PL6.E3A0      #001=DDA$SHOW File=DDA$SHOW.:E05TSI                                TUE 07/29/97 13:35 Page:1
        1        1        /*M* DDA$SHOW SHOW DO ROUTINE */
        2        2        /*T***********************************************************/
        3        3        /*T*                                                         */
        4        4        /*T* Copyright (c) Bull HN Information Systems Inc., 1997    */
        5        5        /*T*                                                         */
        6        6        /*T***********************************************************/
        7        7        /*X* DMR,PLM=5,IND=5,CSU=3,EXM=0,ECU=3,MOC,DCI=5,CRT=5 */
        8        8        %SET LISTSUB='1'B;
        9        9        /*D*  NAME:  DDA$SHOW
       10       10              CALL:  CALL DDA$SHOW
       11       11              INPUT:  S_D.DO$ POINTS TO THE SHOW FRAME
       12       12              DESCRIPTION:  DDA$SHOW IS CALLED BY DDA$DO.
       13       13                     THE SHOW 'TYPE' OR ID RANGE DICTATES WHAT IS TO BE
       14       14                     DONE. */
       15       15                                                /**/
       16       16        DDA$SHOW: PROC;
       17       17                                                /**/
       18       18    1   DCL TYPE SBIN;
       19       19    1   DCL STEP_MODE SBIN;
       20       20    1   DCL F_FROM SBIN;
       21       21    1   DCL F_TO SBIN;
       22       22    1   DCL CMD SBIN;
       23       23    1   DCL DEFI SBIN;
       24       24    1   DCL BB$ PTR;
       25       25    1   DCL REM SBIN;
       26       26    1   DCL SZ SBIN;
       27       27    1   DCL NCARS SBIN;
       28       28    1   DCL I UBIN;
       29       29    1   DCL J UBIN;
       30       30    1   DCL SIZE UBIN;
       31       31    1   DCL CCMD UBIN;
       32       32    1   DCL NONE BIT(1) ALIGNED;
       33       33    1   DCL IX UBIN;
       34       34    1   DCL BUF$ PTR;
       35       35    1   DCL CHAR32 CHAR(32) BASED;
       36       36    1   DCL CHAR16 CHAR(16) BASED;
       37       37    1   DCL CHAR8 CHAR(8) BASED;
PL6.E3A0      #001=DDA$SHOW File=DDA$SHOW.:E05TSI                                TUE 07/29/97 13:35 Page:2
       38       38    1   DCL CHAR7 CHAR(7) BASED UNAL;
       39       39    1   DCL CHAR6 CHAR(6) BASED UNAL;
       40       40    1   DCL CHAR5 CHAR(5) BASED UNAL;
       41       41    1   DCL CHAR1 CHAR(1) BASED UNAL;
       42       42    1   DCL CHAR4 CHAR(4) BASED;
       43       43    1   DCL M BIT(1) ALIGNED;
       44       44    1   DCL E BIT(1) ALIGNED;
       45       45    1   DCL SAVE_WIDTH UBIN;
       46       46    1   DCL TFPRG$ PTR;
       47       47    1   DCL SAVE_CONTEXT$ PTR;
       48       48    1   DCL 1 OPT_L6 ALIGNED,
       49       49    1         2 MCL BIT(1),
       50       50    1         2 ALL REDEF MCL BIT(1),
       51       51    1         2 EVENT BIT(1),
       52       52    1         2 NONE REDEF EVENT BIT(1),
       53       53    1         2 BREAK BIT(1),
       54       54    1         2 MON REDEF BREAK BIT(1),
       55       55    1         2 XCON BIT(1),
       56       56    1         2 SCREECH REDEF XCON BIT(1),
       57       57    1         2 TRAP BIT(1),
       58       58    1         2 ARITHMETIC BIT(1);
       59       59        %INCLUDE DD$BASED;
       60     1362        %AT_FIRST;
       61     1390        %U$SE;
       62     1398        %U$SE(NAME=USAVE,STCLASS=AUTO);
       63     1406        %U$SE(NAME=USE_REM,STCLASS=SYMREF);
       64     1414    1   DCL UNODE UBIN;
       65     1415        %DU$TREE (NAME="DU$TREE(0:0)");
       66     1421        %SHOW$CMD (NAME=S$HOW);
       67     1443        %FPRG$CONTEXT;
       68     1506        %INCLUDE B$OBJECT_C;
       69     4936        %B$TREE_TABLE (HDR_NAME=B$TREEHDR,NODE_NAME="B$NODE(0:0)");
       70     4994        %INCLUDE XUH_MACRO_C;
       71     5078        %INCLUDE DD_SD_M;
       72     6414        %S_D;
       73     7732    1   DCL D_XDELTA BIT(1) ALIGNED SYMREF;
       74     7733    1   DCL DX_DIC BIT(1) ALIGNED SYMREF;
PL6.E3A0      #001=DDA$SHOW File=DDA$SHOW.:E05TSI                                TUE 07/29/97 13:35 Page:3
       75     7734    1   DCL USE$ PTR SYMREF;
       76     7735    1   DCL D_SYMBOLS BIT(1) ALIGNED SYMREF;
       77     7736    1   DCL D_M$DO# UBIN SYMREF READONLY;
       78     7737        %INCLUDE DD_SUBS_C;
       79     8008        %INCLUDE DD_PSUBS_C;
       80     8483        /* SHOW ALL CONTROL TABLE */
       81     8484    1   DCL TABLE(0:25) UBIN CONSTANT INIT(
       82     8485    1                                    308, /* S@RUM */
       83     8486    1                                   310, /* S@ANLZ */
       84     8487    1                               301, /* S@ALLSMALL */
       85     8488    1                                  287, /* S@TRACE */
       86     8489    1                                295, /* S@ABBREVS */
       87     8490    1                                   282, /* S@DEFS */
       88     8491    1                                    290, /* S@USE */
       89     8492    1                                   289, /* S@KEEP */
       90     8493    1                                   307, /* S@TRAP */
       91     8494    1                                 306, /* S@IGNORE */
       92     8495    1                                  300, /* S@RANGE */
       93     8496    1                                   283, /* S@STEP */
       94     8497    1                                 284, /* S@SCHEMA */
       95     8498    1                                 309, /* S@ALTVAR */
       96     8499    1                                 297, /* S@BYPASS */
       97     8500    1                                 303, /* S@FORMAT */
       98     8501    1                                   304, /* S@COPY */
       99     8502    1                                   305, /* S@ECHO */
      100     8503    1                                   302,  /* S@EOM */
      101     8504    1                                314, /* S@PROTECT */
      102     8505    1                                    299, /* S@DIC */
      103     8506    1                                  315, /* S@DEBUG */
      104     8507    1                                    313, /* S@SAD */
      105     8508    1                                322,  /* S@STATUS */
      106     8509    1                                 311, /* S@SYNTAX */
      107     8510    1                                285); /* S@REPORT */
      108     8511    1   DCL NONEMSG CHAR(0) CONSTANT INIT( 'None' );
      109     8512    1   DCL EXCON_NAME(0:19) CHAR(16) CONSTANT UNAL INIT(
      110     8513    1        'Timer,',
      111     8514    1        'Event,',
PL6.E3A0      #001=DDA$SHOW File=DDA$SHOW.:E05TSI                                TUE 07/29/97 13:35 Page:4
      112     8515    1        'Break,',
      113     8516    1        'Xcon,',
      114     8517    1        'Pmme,',
      115     8518    1        'Overflow,',
      116     8519    1        'Divide_check,',
      117     8520    1        'Mme,',
      118     8521    1        'Derail,',
      119     8522    1        'Fault_tag,',
      120     8523    1        'Memory,',
      121     8524    1        'Command,',
      122     8525    1        'Lockup,',
      123     8526    1        'Ipr,',
      124     8527    1        'Seg,',
      125     8528    1        'Page,',
      126     8529    1        'Sec_2,',
      127     8530    1        'Parity,',                         /* not currently used */
      128     8531    1        'Op_not_complete,',                /* not currently used */
      129     8532    1        'Sec_1,');
      130     8533    1   DCL EXCON_SIZE(0:19) UBIN CONSTANT INIT(
      131     8534    1        6,6,6,5,5,9,13,4,7,10,7,8,7,4,4,5,6,7,16,6);
      132     8535    1   DCL 1 DD_FORMAT_TABLE(0:32) CONSTANT,
      133     8536    1         2 SZ UBIN(9) UNAL INIT(
      134     8537    1           3 ,1, 1, 1, 1,
      135     8538    1           1, 1, 1, 1,
      136     8539    1           1, 1, 2, 1,
      137     8540    1           1, 2, 2, 1,
      138     8541    1           1, 2, 1, 1,
      139     8542    1           2, 5, 2, 5,
      140     8543    1           3, 5, 6,
      141     8544    1           6, 3, 5, 7, 5 ),
      142     8545    1         2 TX CHAR(8) UNAL INIT(
      143     8546    1           'REMEMBER','OCTAL   ','UBIN    ','SBIN    ','CHAR    ',
      144     8547    1           'BIT     ','INSTR   ','PTR     ','DESCR   ',
      145     8548    1           'REL     ','EPTR    ','AR      ','VECTOR  ',
      146     8549    1           'X       ','OBIT    ','L$      ','FLOAT   ',
      147     8550    1           'JDE     ','X1      ','TIME    ','ZERO    ',
      148     8551    1           'EBCDIC  ','COMP2   ','OFORT   ','ZFORT   ',
PL6.E3A0      #001=DDA$SHOW File=DDA$SHOW.:E05TSI                                TUE 07/29/97 13:35 Page:5
      149     8552    1           'LOGICAL ','CMPLX   ','INDEX1  ',
      150     8553    1           'INDEX2  ','PUP     ','CAN''T   ','DEFAULT ','COMP1   ');
      151     8554    1   DCL COMPID(0:13) CHAR(8) CONSTANT INIT(
      152     8555    1                                         'GMAP    ',
      153     8556    1                                         'PL6     ',
      154     8557    1                                         'FORTRAN ',
      155     8558    1                                         'COBOL   ',
      156     8559    1                                         'PL1     ',
      157     8560    1                                         'RPG     ',
      158     8561    1                                         'PASCAL  ',
      159     8562    1                                         'MOMUS   ',
      160     8563    1                                         'FPL     ',
      161     8564    1                                         'PARTRGE ',
      162     8565    1                                         'IDL     ',
      163     8566    1                                         'ELSIE   ',
      164     8567    1                                         'CALF    ',
      165     8568    1                                         'CC      ' );
      166     8569    1   DCL COMPIDS(0:13) UBIN CONSTANT INIT( 4, 3, 7, 5, 3, 3, 6, 5, 3, 7, 3, 5, 4, 2 );
      167     8570        %INCLUDE DD_ERR_C;
      168     8967        %INCLUDE DD$DITEM;
       12+    9070             %LIST;
       13+    9071    1        DCL SDD$ PTR;
       14+    9072    1        DCL ZITEM$ PTR;
       15+    9073    1        DCL SDD_L6$ PTR;
       16+    9074    1        DCL ZITEM_L6$ PTR;
      169     9648        %INCLUDE CP_6;
      170     9729        %INCLUDE CP_6_SUBS;
      171    10269        %F$DCB;
      172    10326    1   DCL DUA$SHOW_ANLZ ENTRY(0) ALTRET;
      173    10327    1   DCL DUA$SHOW_RUM ENTRY(0);
      174    10328    1   DCL DDA$SHOW1 ENTRY(2);
      175    10329    1   DCL DDB$BREAK ENTRY ALTRET;
      176    10330    1   DCL DDE$ERROR ENTRY;
      177    10331    1   DCL DDR$MOVE ENTRY(4) ALTRET;
      178    10332    1   DCL DDQ$WRITED ENTRY(2);
      179    10333    1   DCL DUA$OUTPUT ENTRY(4) ALTRET;
      180    10334    1   DCL DUA$CLOSEDUMP ENTRY ALTRET;
PL6.E3A0      #001=DDA$SHOW File=DDA$SHOW.:E05TSI                                TUE 07/29/97 13:35 Page:6
      181    10335    1   DCL DDR$BINTXT ENTRY(4);
      182    10336    1   DCL DDR$POSIT ENTRY(5) ALTRET;
      183    10337    1   DCL DDS$ES_INQ ENTRY(1) ALTRET;
      184    10338    1   DCL DDS$EUTREE ENTRY(0) ALTRET;
      185    10339    1   DCL DXB$USE ENTRY;
      186    10340    1   DCL DFA$FPRG ENTRY(1);
      187    10341    1   DCL DFA$KILL_FPRG ENTRY(1);
      188    10342    1   DCL DFR$REPORT ENTRY(1);
      189    10343                                                /**/
      190    10344    1        NONE = '1'B;
      191    10345    1        BUF$ = ADDR( S_D.OUTPUT );
      192    10346    1        S_D.SIM_UPDATE = '0'B;
      193    10347    1        SAVE_WIDTH = S_D.OUT_WIDTH;
      194    10348    1        IF D_XDELTA THEN GOTO SKIP_DEST;
      195    10349    2        IF S_D.DO$->S$HOW.DESTCODE~= 0 THEN DO;
      196    10350    2             CALL DUA$OUTPUT (S_D.DO$->S$HOW.FID, S_D.DO$->S$HOW.DESTCODE, S_D.DUMPDCB,
             10350                      '1'B) ALTRET (SHOW_RETN);
      197    10351    2             S_D.SIM_UPDATE = '1'B;
      198    10352    2           END;
      199    10353    1        ELSE S_D.DUMPDCB = D_M$DO#;
      200    10354    2        IF DCBADDR(S_D.DUMPDCB)->F$DCB.ASN# = %DEVICE# THEN DO;
      201    10355    2             IF DCBADDR(S_D.DUMPDCB)->F$DCB.WIDTH# = 0 THEN
      202    10356    2                  S_D.OUT_WIDTH = 80;
      203    10357    2             ELSE S_D.OUT_WIDTH = DCBADDR(S_D.DUMPDCB)->F$DCB.WIDTH#;
      204    10358    2           END;
      205    10359    1        ELSE S_D.OUT_WIDTH = 132;
      206    10360    1   SKIP_DEST:
      207    10361    1        F_FROM = 1;
      208    10362    1        F_TO = S_D.FIXLAST;
      209    10363    1        TYPE = S_D.DO$ -> S$HOW.TYPE;
      210    10364    1        IF TYPE = 280                    /* S@ALL */
      211    10365    2        THEN DO IX = 0 TO LENGTHW( TABLE ) -1;
      212    10366    2             CALL DDB$BREAK ALTRET( SHOW_RETN );
      213    10367    2             TYPE = TABLE( IX );
      214    10368    2             CALL SHOW_TYPE;               /* Ignore altret */
      215    10369    2             S_D.ERROR = 0;
      216    10370    2           END;
PL6.E3A0      #001=DDA$SHOW File=DDA$SHOW.:E05TSI                                TUE 07/29/97 13:35 Page:7
      217    10371    2        ELSE DO;
      218    10372    2             IF ( TYPE = 301 )      /* S@ALLSMALL */
      219    10373    2             THEN IF S_D.RUM
      220    10374    2                  THEN TYPE = 308;       /* S@RUM */
      221    10375    2                  ELSE IF S_D.ANLZ
      222    10376    2                       THEN TYPE = 310; /* S@ANLZ */
      223    10377    2             CALL SHOW_TYPE ALTRET( ARET );
      224    10378    2           END;
      225    10379    1        IF NONE AND NOT S_D.SIM_UPDATE
      226    10380    2        THEN DO;
      227    10381    2             S_D.OUTPUT = NONEMSG;
      228    10382    2             CALL DDQ$WRITED( ADDR( S_D.OUTPUT ), LENGTHC( NONEMSG ) );
      229    10383    2           END;
      230    10384                                                /**/
      231    10385    1   SHOW_RETN: ;
      232    10386    1   R:   S_D.OUT_WIDTH = SAVE_WIDTH;
      233    10387    1        IF S_D.SIM_UPDATE THEN CALL DUA$CLOSEDUMP;
      234    10388    1        S_D.SIM_UPDATE = '0'B;
      235    10389    1        RETURN;
      236    10390                                                /**/
      237    10391    1   ARET: ;
      238    10392    1        CALL DDE$ERROR;
      239    10393    1        GOTO R;
      240    10394                                                /**/
      241    10395        %EJECT;
PL6.E3A0      #001=DDA$SHOW File=DDA$SHOW.:E05TSI                                TUE 07/29/97 13:35 Page:8
      242    10396                                                /**/
      243    10397    1   SHOW_TYPE: PROC ALTRET;
      244    10398                                                /**/
      245    10399    2   DCL STX UBIN;
      246    10400                                                /**/
      247    10401    2        IF ( S_D.RUM OR S_D.ANLZ )
      248    10402    2          AND NOT ( TYPE = 282 OR       /* S@DEFS */
      249    10403    2          TYPE = 284 OR               /* S@SCHEMA */
      250    10404    2          TYPE = 290 OR                  /* S@USE */
      251    10405    2          TYPE = 295 OR              /* S@ABBREVS */
      252    10406    2          TYPE = 299 OR                  /* S@DIC */
      253    10407    2          TYPE = 300 OR                /* S@RANGE */
      254    10408    2          TYPE = 302 OR                  /* S@EOM */
      255    10409    2          TYPE = 303 OR               /* S@FORMAT */
      256    10410    2          TYPE = 304 OR                 /* S@COPY */
      257    10411    2          TYPE = 305 OR                 /* S@ECHO */
      258    10412    2          TYPE = 308 OR                  /* S@RUM */
      259    10413    2          TYPE = 309 OR               /* S@ALTVAR */
      260    10414    2          TYPE = 310 OR                 /* S@ANLZ */
      261    10415    2          TYPE = 311 OR               /* S@SYNTAX */
      262    10416    2          TYPE = 314 OR              /* S@PROTECT */
      263    10417    2          TYPE = 322 OR               /* S@STATUS */
      264    10418    2          TYPE = 313 OR                  /* S@SAD */
      265    10419    2          TYPE = 315 OR                /* S@DEBUG */
      266    10420    2          TYPE = 285 )                /* S@REPORT */
      267    10421    3        THEN DO;
      268    10422    3             S_D.ERROR = 125;       /* E@NOTDELTA */
      269    10423    3             ALTRETURN;
      270    10424    3           END;
      271    10425    2        CALL DDB$BREAK ALTRET( SHOWTYPE_RETN );
      272    10426                                                /**/
      273    10427    3        DO CASE( TYPE );
      274    10428    3          CASE(281);                     /* SHOW ATS */
      275    10429    3             CMD = 2;                   /* CMD SET TO 'AT' */
      276    10430    3             CALL SHOW_FIX;
      277    10431    3          CASE(282);                    /* SHOW DEFS */
      278    10432    3             IF S_D.FPRG AND S_D.CURRENT_FPRG_CONTEXT$ -> FPRG$CONTEXT.INTERPRETIVE
PL6.E3A0      #001=DDA$SHOW File=DDA$SHOW.:E05TSI                                TUE 07/29/97 13:35 Page:9
      279    10433    4             THEN DO;
      280    10434    4                  IF S_D.DO$ -> S$HOW.TYPE = 280 /* S@ALL */
      281    10435    4                  THEN GOTO SHOWTYPE_RETN;
      282    10436    5                  ELSE DO;
      283    10437    5                       S_D.ERROR = 309; /* E@NOT_INTERPRETIVE */
      284    10438    5                       GOTO ARET;
      285    10439    5                     END;
      286    10440    4                END;
      287    10441    4             DO DEFI = 0 TO 24;
      288    10442    4                  BB$ = BUF$;
      289    10443    4                  REM = LENGTHC( S_D.OUTPUT );
      290    10444    4                  IF S_D.UD.TEXTSZ(DEFI) ~= 0
      291    10445    5                  THEN DO;
      292    10446    5                       NONE = '0'B;
      293    10447    5                       IF S_D.SIM_UPDATE THEN CALL DDR$MOVE ('DEF ',4,BB$,REM);
      294    10448    5                       SZ = S_D.UD.TEXTSZ(DEFI);
      295    10449    5                       CALL DDR$MOVE(S_D.UD.TEXT(DEFI),SZ,BB$,REM);
      296    10450    5                       CALL DDR$MOVE (' ',1,BB$,REM);
      297    10451    5                       IF NOT S_D.SIM_UPDATE THEN CALL DDR$MOVE('= ',3,BB$,REM);
      298    10452    5                       IF S_D.ONE_TO_TWO.EXEC_DOMAIN = %HOST
      299    10453    5                       THEN CALL DDR$BINTXT(BB$,S_D.UD.VALUE(DEFI),%OCT_FMT,NCARS);
      300    10454    5                       ELSE IF S_D.ONE_TO_TWO.EXEC_DOMAIN = %L6
      301    10455    5                            THEN CALL DDR$BINTXT(BB$,S_D.UD.VALUE(DEFI),%X_FMT,NCARS);
      302    10456    6                            ELSE DO;
      303    10457    6                                 S_D.ERROR = 502; /* E@DELBUG */
      304    10458    6                                 GOTO ARET;
      305    10459    6                               END;
      306    10460    5                       SZ= POFFC(BB$,BUF$) + NCARS;
      307    10461    5                       CALL DDQ$WRITED(BUF$,SZ);
      308    10462    5                     END;
      309    10463    4                END;
      310    10464    3          CASE(283);                    /* SHOW STEP MODE */
      311    10465    3             IF S_D.SIM_UPDATE THEN RETURN;
      312    10466    3             IF S_D.ONE_TO_TWO.EXEC_DOMAIN = %HOST THEN
      313    10467    3                  STEP_MODE = S_D.S$TEP.MODE;
      314    10468    3             ELSE
      315    10469    3                  STEP_MODE = S_D.CURRENT_FPRG_CONTEXT$->FPRG$CONTEXT.STEP_MODE;
PL6.E3A0      #001=DDA$SHOW File=DDA$SHOW.:E05TSI                                TUE 07/29/97 13:35 Page:10
      316    10470    4             DO CASE (STEP_MODE);
      317    10471    4               CASE(584);
      318    10472    4                  S_D.OUTPUT = 'STEPing by substatements';
      319    10473    4                  SIZE = 24;
      320    10474    4               CASE(583);
      321    10475    4                  S_D.OUTPUT = 'STEPing by statements';
      322    10476    4                  SIZE = 21;
      323    10477    4               CASE(582);
      324    10478    4                  S_D.OUTPUT = 'STEPing by paragraphs';
      325    10479    4                  SIZE = 21;
      326    10480    4               CASE(581);
      327    10481    4                  S_D.OUTPUT = 'STEPing by instructions';
      328    10482    4                  SIZE = 23;
      329    10483    4               CASE(ELSE);
      330    10484    4                  S_D.ERROR = 502;    /*E@DELBUG*/
      331    10485    4                  CALL DDE$ERROR;
      332    10486    4                  S_D.OUTPUT = 'STEP BY EH?';
      333    10487    4                  SIZE = 11;
      334    10488    4               END;
      335    10489    3             GOTO WRITE_IT;
      336    10490    3          CASE ( 284);                /* SHOW SCHEMA */
      337    10491    3             S_D.OUTPUT = 'SCHEMA ';
      338    10492    3             SIZE = LENGTHC( 'SCHEMA ' );
      339    10493    3             IF S_D.SCHEMA
      340    10494    3             THEN IF ( S_D.SCH.OK ) AND ( D_SYMBOLS )
      341    10495    4                  THEN DO;
      342    10496    5                       IF NOT S_D.SIM_UPDATE THEN DO;
      343    10497    5                            CALL INSERT( S_D.OUTPUT, SIZE, , 'at ' );
      344    10498    5                            SIZE = SIZE + LENGTHC( 'at ' );
      345    10499    5                          END;
      346    10500    4                       BB$ = PINCRC( ADDR( S_D.OUTPUT ), SIZE );
      347    10501    4                       REM = LENGTHC( S_D.OUTPUT ) - SIZE;
      348    10502    4                       CALL DDR$POSIT( S_D.SCH.IC, BB$, REM, NCARS );
      349    10503    4                       SIZE = SIZE + NCARS;
      350    10504    4                     END;
      351    10505    4                  ELSE DO;
      352    10506    4                       IF S_D.SIM_UPDATE THEN GOTO KISCH;
PL6.E3A0      #001=DDA$SHOW File=DDA$SHOW.:E05TSI                                TUE 07/29/97 13:35 Page:11
      353    10507    4                       CALL INSERT( S_D.OUTPUT, SIZE, , 'not available' );
      354    10508    4                       SIZE = SIZE + LENGTHC( 'not available' );
      355    10509    4                     END;
      356    10510    4             ELSE DO;
      357    10511    5                  IF NOT S_D.SIM_UPDATE THEN DO;
      358    10512    5                       CALL INSERT( S_D.OUTPUT, SIZE, , 'killed' );
      359    10513    5                       SIZE = SIZE + LENGTHC( 'killed' );
      360    10514    5                     END;
      361    10515    5                  ELSE DO;
      362    10516    5   KISCH:              S_D.OUTPUT = 'Kill SCHEMA';
      363    10517    5                       SIZE = 11;
      364    10518    5                     END;
      365    10519    4                END;
      366    10520    3             GOTO WRITE_IT;
      367    10521    3          CASE ( 285 );               /* SHOW REPORT */
      368    10522    3             NONE = '0'B;
      369    10523    4             IF NOT S_D.SIM_UPDATE THEN DO;
      370    10524    4                  S_D.OUTPUT = 'REPORT  OFFSET LINE TYPE';
      371    10525    4                  SIZE = LENGTHC( 'Report  OFFSET LINE TYPE');
      372    10526    4                  CALL DDQ$WRITED( BUF$, SIZE );
      373    10527    4                END;
      374    10528    4             DO STX = 0 TO %(563-550);
      375    10529    4                  CALL DDB$BREAK ALTRET( SHOWTYPE_RETN );
      376    10530    4                  BB$ = ADDR(S_D.OUTPUT);
      377    10531    5                  IF S_D.SIM_UPDATE THEN DO;
      378    10532    5                       S_D.OUTPUT = 'REPORT ';
      379    10533    5                       BB$ = PINCRC(BB$,7);
      380    10534    5                     END;
      381    10535    4                  BB$->CHAR8 = COMPID( STX );
      382    10536    4                  IF S_D.SIM_UPDATE
      383    10537    4                  THEN BB$ = PINCRC( BB$, COMPIDS(STX)+1);
      384    10538    4                  ELSE BB$ = PINCRC( BB$, LENGTHC(COMPID(0)));
      385    10539    5                  IF NOT S_D.SIM_UPDATE THEN DO;
      386    10540    5                       IF S_D.REPORT_FLAGS.OFFSET( STX )
      387    10541    5                       THEN BB$ -> CHAR7 = '  yes';
      388    10542    5                       ELSE BB$ -> CHAR7 = '  no';
      389    10543    5                       BB$ = PINCRC( BB$, LENGTHC( CHAR7 ) );
PL6.E3A0      #001=DDA$SHOW File=DDA$SHOW.:E05TSI                                TUE 07/29/97 13:35 Page:12
      390    10544    5                       IF S_D.REPORT_FLAGS.LINE( STX )
      391    10545    5                       THEN BB$ -> CHAR5 = ' yes';
      392    10546    5                       ELSE BB$ -> CHAR5 = ' no';
      393    10547    5                       BB$ = PINCRC( BB$, LENGTHC( CHAR5 ) );
      394    10548    5                       IF S_D.REPORT_FLAGS.TYPE( STX )
      395    10549    5                       THEN BB$ -> CHAR5 = ' yes';
      396    10550    5                       ELSE BB$ -> CHAR5 = ' no';
      397    10551    5                       BB$ = PINCRC( BB$, LENGTHC( CHAR5 ) );
      398    10552    5                     END;
      399    10553    5                  ELSE DO;
      400    10554    6                       IF S_D.REPORT_FLAGS.OFFSET(STX) THEN DO;
      401    10555    6                            BB$->CHAR8='OFFSET, ';
      402    10556    6                            BB$ = PINCRC(BB$,8);
      403    10557    6                          END;
      404    10558    6                       IF S_D.REPORT_FLAGS.LINE(STX) THEN DO;
      405    10559    6                            BB$->CHAR6 = 'LINE, ';
      406    10560    6                            BB$ = PINCRC(BB$,6);
      407    10561    6                          END;
      408    10562    6                       IF S_D.REPORT_FLAGS.TYPE(STX) THEN DO;
      409    10563    6                            BB$->CHAR6='TYPE, ';
      410    10564    6                            BB$=PINCRC(BB$,6);
      411    10565    6                          END;
      412    10566    5                       BB$ = PINCRC(BB$,-2); /* Back up over last comma */
      413    10567    5                     END;
      414    10568    4                  CALL DDQ$WRITED( BUF$, POFFC(BB$,ADDR(S_D.OUTPUT)) );
      415    10569    4                END;
      416    10570    3          CASE ( 286 );                /* SHOW SAVES */
      417    10571    3             CMD = 45;                 /* CMD SET TO 'SAVE' */
      418    10572    3             CALL SHOW_FIX;
      419    10573    3          CASE( 287 );                 /* SHOW TRACE */
      420    10574    3             IF S_D.ONE_TO_TWO.EXEC_DOMAIN = %HOST
      421    10575    4             THEN DO;
      422    10576    4                  IF S_D.TR$INFO.SET = '0'B OR S_D.ONCALLS ~= 0
      423    10577    5                  THEN DO;
      424    10578    6                       IF NOT S_D.SIM_UPDATE THEN DO;
      425    10579    6                            S_D.OUTPUT = 'TRACE killed';
      426    10580    6                            SIZE = 12;
PL6.E3A0      #001=DDA$SHOW File=DDA$SHOW.:E05TSI                                TUE 07/29/97 13:35 Page:13
      427    10581    6                          END;
      428    10582    6                       ELSE DO;
      429    10583    6                            S_D.OUTPUT = 'Kill TRACE';
      430    10584    6                            SIZE = 10;
      431    10585    6                          END;
      432    10586    5                     END;
      433    10587    5                  ELSE DO;
      434    10588    5                       IF S_D.TR$INFO.TYPE = 47 /*C_TT*/
      435    10589    6                       THEN DO;
      436    10590    6                            S_D.OUTPUT = 'TRACE transfer';
      437    10591    6                            BB$ = PINCRC(ADDR(S_D.OUTPUT),15);
      438    10592    6                          END;
      439    10593    5                       ELSE IF S_D.TR$INFO.TYPE = 583
      440    10594    6                            THEN DO;
      441    10595    6                                 S_D.OUTPUT = 'TRACE statements';
      442    10596    6                                 BB$ = PINCRC(ADDR(S_D.OUTPUT), 17);
      443    10597    6                               END;
      444    10598    5                            ELSE IF S_D.TR$INFO.TYPE = 582
      445    10599    6                                 THEN DO;
      446    10600    6                                      S_D.OUTPUT = 'TRACE paragraphs';
      447    10601    6                                      BB$ = PINCRC(ADDR(S_D.OUTPUT), 17);
      448    10602    6                                    END;
      449    10603    5                                 ELSE
      450    10604    6                                      IF S_D.TR$INFO.X THEN DO;
      451    10605    6                                           S_D.OUTPUT = 'TRACE x calls';
      452    10606    6                                           BB$ = PINCRC(ADDR(S_D.OUTPUT), 14);
      453    10607    6                                         END;
      454    10608    6                                      ELSE DO;
      455    10609    6                                           S_D.OUTPUT = 'TRACE calls';
      456    10610    6                                           BB$ = PINCRC(ADDR(S_D.OUTPUT),12);
      457    10611    6                                         END;
      458    10612    6                       IF S_D.TR$INFO.P THEN DO;
      459    10613    6                            BB$->CHAR32 = S_D.TR$INFO.PTXT;
      460    10614    6                            BB$ = PINCRC(BB$,S_D.TR$INFO.PSIZ+1);
      461    10615    6                          END;
      462    10616    6                       IF S_D.TR$INFO.SILENT AND NOT S_D.SIM_UPDATE THEN DO;
      463    10617    6                            BB$->CHAR32 = '(silent)';
PL6.E3A0      #001=DDA$SHOW File=DDA$SHOW.:E05TSI                                TUE 07/29/97 13:35 Page:14
      464    10618    6                            BB$ = PINCRC(BB$,8);
      465    10619    6                          END;
      466    10620    6                       IF S_D.T$T.ACTIVE OR S_D.TR$INFO.ACTIVE THEN DO;
      467    10621    6                            BB$->CHAR32 = '; TRACE on';
      468    10622    6                            BB$ = PINCRC(BB$, 10);
      469    10623    6                          END;
      470    10624    6                       ELSE DO;
      471    10625    6                            BB$->CHAR32 = '; TRACE off';
      472    10626    6                            BB$ = PINCRC(BB$, 11);
      473    10627    6                          END;
      474    10628    5                       SIZE = POFFC(BB$, ADDR(S_D.OUTPUT));
      475    10629    5                       GOTO WRITE_IT;
      476    10630    5                     END;
      477    10631    4                END;
      478    10632    4             ELSE DO;
      479    10633    4                  IF S_D.CURRENT_FPRG_CONTEXT$ -> FPRG$CONTEXT.TR$INFO.SET = '0'B OR
             10633                           S_D.CURRENT_FPRG_CONTEXT$ -> FPRG$CONTEXT.ONCALLS ~= 0
      480    10634    5                  THEN DO;
      481    10635    6                       IF NOT S_D.SIM_UPDATE THEN DO;
      482    10636    6                            S_D.OUTPUT = 'TRACE killed';
      483    10637    6                            SIZE = 12;
      484    10638    6                          END;
      485    10639    6                       ELSE DO;
      486    10640    6                            S_D.OUTPUT = 'Kill TRACE';
      487    10641    6                            SIZE = 10;
      488    10642    6                          END;
      489    10643    5                     END;
      490    10644    5                  ELSE DO;
      491    10645    5                       IF S_D.CURRENT_FPRG_CONTEXT$ -> FPRG$CONTEXT.TR$INFO.TRANSFERS
      492    10646    6                       THEN DO;
      493    10647    6                            S_D.OUTPUT = 'TRACE transfer';
      494    10648    6                            BB$ = PINCRC(ADDR(S_D.OUTPUT),15);
      495    10649    6                          END;
      496    10650    6                       ELSE DO;
      497    10651    6                            IF S_D.CURRENT_FPRG_CONTEXT$ -> FPRG$CONTEXT.TR$INFO.XCALLS
      498    10652    7                            THEN DO;
      499    10653    7                                 S_D.OUTPUT = 'TRACE x calls';
PL6.E3A0      #001=DDA$SHOW File=DDA$SHOW.:E05TSI                                TUE 07/29/97 13:35 Page:15
      500    10654    7                                 BB$ = PINCRC(ADDR(S_D.OUTPUT), 14);
      501    10655    7                               END;
      502    10656    7                            ELSE DO;
      503    10657    7                                 S_D.OUTPUT = 'TRACE calls';
      504    10658    7                                 BB$ = PINCRC(ADDR(S_D.OUTPUT),12);
      505    10659    7                               END;
      506    10660    6                          END;
      507    10661    6                       IF S_D.CURRENT_FPRG_CONTEXT$ -> FPRG$CONTEXT.TR$INFO.P THEN DO;
      508    10662    6                            BB$->CHAR32 = S_D.CURRENT_FPRG_CONTEXT$ -> FPRG$CONTEXT.
             10662                                     TR$INFO.PTXT;
      509    10663    6                            BB$ = PINCRC(BB$,S_D.CURRENT_FPRG_CONTEXT$ -> FPRG$CONTEXT.
             10663                                     TR$INFO.PSIZ+1);
      510    10664    6                          END;
      511    10665    6                       IF S_D.CURRENT_FPRG_CONTEXT$ -> FPRG$CONTEXT.TR$INFO.SILENT AND
             10665                                NOT S_D.SIM_UPDATE THEN DO;
      512    10666    6                            BB$->CHAR32 = '(silent)';
      513    10667    6                            BB$ = PINCRC(BB$,8);
      514    10668    6                          END;
      515    10669    5                       IF S_D.CURRENT_FPRG_CONTEXT$ -> FPRG$CONTEXT.TR$INFO.ACTIVE
      516    10670    6                       THEN DO;
      517    10671    6                            BB$->CHAR32 = '; TRACE on';
      518    10672    6                            BB$ = PINCRC(BB$, 10);
      519    10673    6                          END;
      520    10674    6                       ELSE DO;
      521    10675    6                            BB$->CHAR32 = '; TRACE off';
      522    10676    6                            BB$ = PINCRC(BB$, 11);
      523    10677    6                          END;
      524    10678    5                       SIZE = POFFC(BB$, ADDR(S_D.OUTPUT));
      525    10679    5                       GOTO WRITE_IT;
      526    10680    5                     END;
      527    10681    4                END;
      528    10682    3             GOTO WRITE_IT;
      529    10683    3          CASE( 288 );                 /* SHOW WHENS */
      530    10684    3             CMD = 67;                 /* CMD SET TO 'WHEN' */
      531    10685    3             CALL SHOW_FIX;
      532    10686    3          CASE ( 289 );                 /* SHOW KEEP */
      533    10687    4             IF D_XDELTA THEN DO;
PL6.E3A0      #001=DDA$SHOW File=DDA$SHOW.:E05TSI                                TUE 07/29/97 13:35 Page:16
      534    10688    4                  SIZE = 12;
      535    10689    4                  IF S_D.K$EEP.TYPE = 1 /*KEEP_ALL*/
      536    10690    4                  THEN S_D.OUTPUT = 'KEEP All';
      537    10691    4                  ELSE IF S_D.K$EEP.TYPE = 2 /*KEEP_NONE*/
      538    10692    4                       THEN S_D.OUTPUT = 'KEEP none';
      539    10693    4                       ELSE IF S_D.K$EEP.TYPE = 3 /*KEEP_MON*/
      540    10694    4                            THEN S_D.OUTPUT = 'KEEP mon';
      541    10695    4                            ELSE IF S_D.K$EEP.TYPE = 4
      542    10696    4                                 THEN S_D.OUTPUT = 'KEEP screech';
      543    10697    5                                 ELSE DO;
      544    10698    5                                      S_D.ERROR = 502; /*E@DELBUG*/
      545    10699    5                                      CALL DDE$ERROR;
      546    10700    5                                    END;
      547    10701    4                  GOTO WRITE_IT;
      548    10702    4                END;
      549    10703    3             S_D.OUTPUT = 'KEEP ';
      550    10704    3             SIZE = 5;
      551    10705    3             BB$ = PINCRC(ADDR(S_D.OUTPUT), 5);
      552    10706    3             CALL BLD_OPTIONS(S_D.KEEP);
      553    10707    3             IF S_D.KEEP~='0'B OR NOT S_D.SIM_UPDATE THEN CALL DDQ$WRITED(ADDR(S_D.
             10707                      OUTPUT), SIZE);
      554    10708    3             IF S_D.FPRG_CONTEXT$ ~= ADDR(NIL)
      555    10709    4             THEN DO;
      556    10710    4                  TFPRG$ = S_D.FPRG_CONTEXT$;
      557    10711    5                  DO WHILE (TFPRG$ ~= ADDR(NIL));
      558    10712    5                       S_D.OUTPUT = 'KEEP ';
      559    10713    5                       SIZE = 5;
      560    10714    5                       BB$ = PINCRC(ADDR(S_D.OUTPUT), 5);
      561    10715    5                       OPT_L6 = TFPRG$ -> FPRG$CONTEXT.KEEP;
      562    10716    5                       CALL BLD_OPTIONS_L6(TFPRG$, OPT_L6);
      563    10717    5                       CALL DDQ$WRITED(ADDR(S_D.OUTPUT), SIZE);
      564    10718    5                       TFPRG$ = TFPRG$ -> FPRG$CONTEXT.NEXT$;
      565    10719    5                     END;
      566    10720    4                END;
      567    10721    3             GOTO RET;
      568    10722    3          CASE ( 290 ) ;                 /* SHOW USE */
      569    10723        /*N* Harold - when are you going to do SHOW USE ? */
PL6.E3A0      #001=DDA$SHOW File=DDA$SHOW.:E05TSI                                TUE 07/29/97 13:35 Page:17
      570    10724    3          CASE( 291 );                 /* SHOW ONCALLS */
      571    10725    3             CMD = 31;                   /* CMD SET TO ON CALL */
      572    10726    3             CALL SHOW_FIX;
      573    10727    3             CMD = 53;              /* C_ONCALLS */
      574    10728    3             CALL SHOW_FIX;
      575    10729    3          CASE( 292 );                 /* SHOW ON ABORT */
      576    10730    3             IF D_XDELTA THEN GOTO ERR7;
      577    10731    3             CMD = 30;                   /* C_OA */
      578    10732    3             CALL SHOW_FIX;
      579    10733    3          CASE( 293 );                  /* SHOW ON EXIT */
      580    10734    3             IF D_XDELTA THEN GOTO ERR7;
      581    10735    3             CMD = 32;                   /* C_OE */
      582    10736    3             CALL SHOW_FIX;
      583    10737    3          CASE( 294 );                 /* SHOW ON NODES */
      584    10738    3             IF D_XDELTA THEN GOTO ERR7;
      585    10739    3             IF NOT S_D.OVERLAID THEN GOTO ERRO;
      586    10740    3             CMD = 34;                  /* C_ONN */
      587    10741    3             CALL SHOW_FIX;
      588    10742    3             CMD = 54;              /* C_ONNODES */
      589    10743    3             CALL SHOW_FIX;
      590    10744    3          CASE( 295 );               /* SHOW ABBREVS */
      591    10745    3          CASE( 296 );                /* SHOW ID(S)   */
      592    10746    3             F_FROM = S_D.DO$ -> S$HOW.ID_FROM;
      593    10747    3             F_TO = S_D.DO$ -> S$HOW.ID_TO;
      594    10748    3             CMD = 0;                 /* SET CMD TO 0 TO RUN THE RANGE SPECIFIED */
      595    10749    3             CALL SHOW_FIX;
      596    10750    3          CASE( 297 );                /* SHOW BYPASS */
      597    10751    3             IF S_D.FPRG AND S_D.CURRENT_FPRG_CONTEXT$ -> FPRG$CONTEXT.INTERPRETIVE
      598    10752    4             THEN DO;
      599    10753    4                  IF S_D.DO$ -> S$HOW.TYPE = 280 /* S@ALL */
      600    10754    4                  THEN GOTO SHOWTYPE_RETN;
      601    10755    5                  ELSE DO;
      602    10756    5                       S_D.ERROR = 309; /* E@NOT_INTERPRETIVE */
      603    10757    5                       GOTO ARET;
      604    10758    5                     END;
      605    10759    4                END;
      606    10760    4             IF S_D.BYPASS THEN DO;
PL6.E3A0      #001=DDA$SHOW File=DDA$SHOW.:E05TSI                                TUE 07/29/97 13:35 Page:18
      607    10761    4                  S_D.OUTPUT = 'BYPASS';
      608    10762    4                  SIZE = 6;
      609    10763    4                END;
      610    10764    4             ELSE DO;
      611    10765    5                  IF NOT S_D.SIM_UPDATE THEN DO;
      612    10766    5                       S_D.OUTPUT = 'BYPASS killed';
      613    10767    5                       SIZE = 13;
      614    10768    5                     END;
      615    10769    5                  ELSE DO;
      616    10770    5                       S_D.OUTPUT = 'Kill BYPASS';
      617    10771    5                       SIZE = 11;
      618    10772    5                     END;
      619    10773    4                END;
      620    10774    3             GOTO WRITE_IT;
      621    10775    3          CASE( 299 );                   /* SHOW DIC */
      622    10776    3             M = '1'B;                     /* Assume not killed */
      623    10777    3             IF D_XDELTA
      624    10778    3             THEN IF NOT DX_DIC
      625    10779    3                  THEN M = '0'B;
      626    10780    3                  ELSE ;
      627    10781    3             ELSE IF S_D.DEBUG
      628    10782    3                  THEN M = '0'B;
      629    10783    3             IF M
      630    10784    4             THEN DO;
      631    10785    4                  IF S_D.DO$->S$HOW.TYPE = 280 /*S@ALL*/
      632    10786    5                  THEN DO;
      633    10787    5                       NONE='0'B;          /* Don't show this if
      634    10788                                                its in the default state
      635    10789                                                and he said SHOW ALL */
      636    10790    5                       GOTO SHOWTYPE_RETN;
      637    10791    5                     END;
      638    10792    5                  ELSE DO;
      639    10793    5                       S_D.OUTPUT = 'DIC';
      640    10794    5                       SIZE = LENGTHC( 'DIC' );
      641    10795    5                     END;
      642    10796    4                END;
      643    10797    4             ELSE DO;
PL6.E3A0      #001=DDA$SHOW File=DDA$SHOW.:E05TSI                                TUE 07/29/97 13:35 Page:19
      644    10798    5                  IF NOT S_D.SIM_UPDATE THEN DO;
      645    10799    5                       S_D.OUTPUT = 'DIC killed';
      646    10800    5                       SIZE = LENGTHC( 'DIC killed' );
      647    10801    5                     END;
      648    10802    5                  ELSE DO;
      649    10803    5                       S_D.OUTPUT = 'Kill DIC';
      650    10804    5                       SIZE = 8;
      651    10805    5                     END;
      652    10806    4                END;
      653    10807    3             GOTO WRITE_IT;
      654    10808    3          CASE( 300 );                 /* SHOW RANGE */
      655    10809    3             IF S_D.FPRG AND S_D.CURRENT_FPRG_CONTEXT$ -> FPRG$CONTEXT.INTERPRETIVE
      656    10810    4             THEN DO;
      657    10811    4                  IF S_D.DO$ -> S$HOW.TYPE = 280 /* S@ALL */
      658    10812    4                  THEN GOTO SHOWTYPE_RETN;
      659    10813    5                  ELSE DO;
      660    10814    5                       S_D.ERROR = 309; /* E@NOT_INTERPRETIVE */
      661    10815    5                       GOTO ARET;
      662    10816    5                     END;
      663    10817    4                END;
      664    10818    3             S_D.OUTPUT = 'RANGE ';
      665    10819    3             BB$ = PINCRC(ADDR(S_D.OUTPUT), 6);
      666    10820    3             IF S_D.ONE_TO_TWO.EXEC_DOMAIN = %HOST
      667    10821    3             THEN CALL DDR$BINTXT(BB$, S_D.RANGE, %OCT_FMT, J);
      668    10822    3             ELSE IF S_D.ONE_TO_TWO.EXEC_DOMAIN = %L6
      669    10823    3                  THEN CALL DDR$BINTXT(BB$, S_D.RANGE, %X_FMT, J);
      670    10824    4                  ELSE DO;
      671    10825    4                       S_D.ERROR = 502; /* E@DELBUG */
      672    10826    4                       GOTO ARET;
      673    10827    4                     END;
      674    10828    3             SIZE = 8+J;
      675    10829    3             GOTO WRITE_IT;
      676    10830    3          CASE( 301 );              /* SHOW ALL */
      677    10831    3             CMD = 0;
      678    10832    3             CALL SHOW_FIX;
      679    10833    3          CASE ( 302 );                  /* SHOW EOM */
      680    10834    3             IF NOT D_XDELTA
PL6.E3A0      #001=DDA$SHOW File=DDA$SHOW.:E05TSI                                TUE 07/29/97 13:35 Page:20
      681    10835    4             THEN DO;
      682    10836    5                  IF S_D.EOM THEN DO;
      683    10837    5                       S_D.OUTPUT = 'EOM';
      684    10838    5                       SIZE = 3;
      685    10839    5                     END;
      686    10840    5                  ELSE DO;
      687    10841    6                       IF NOT S_D.SIM_UPDATE THEN DO;
      688    10842    6                            S_D.OUTPUT = 'EOM killed';
      689    10843    6                            SIZE = 10;
      690    10844    6                          END;
      691    10845    6                       ELSE DO;
      692    10846    6                            S_D.OUTPUT = 'Kill EOM';
      693    10847    6                            SIZE = 8;
      694    10848    6                          END;
      695    10849    5                     END;
      696    10850    4                  GOTO WRITE_IT;
      697    10851    4                END;
      698    10852    3             ELSE GOTO ERR7;
      699    10853    3          CASE ( 303 );               /* SHOW FORMAT */
      700    10854    3             IF S_D.FPRG AND S_D.CURRENT_FPRG_CONTEXT$ -> FPRG$CONTEXT.INTERPRETIVE
      701    10855    4             THEN DO;
      702    10856    4                  IF S_D.DO$ -> S$HOW.TYPE = 280 /* S@ALL */
      703    10857    4                  THEN GOTO SHOWTYPE_RETN;
      704    10858    5                  ELSE DO;
      705    10859    5                       S_D.ERROR = 309; /* E@NOT_INTERPRETIVE */
      706    10860    5                       GOTO ARET;
      707    10861    5                     END;
      708    10862    4                END;
      709    10863    3             NONE = '0'B;
      710    10864    3             M = '1'B;
      711    10865    3             E = '1'B;
      712    10866    3             IF S_D.DO$ -> S$HOW.TYPE = 303 /* S@FORMAT */
      713    10867    3             THEN IF S_D.DO$ -> S$HOW.ID_FROM = 61 /* C@MODIFY */
      714    10868    3                  THEN E = '0'B;
      715    10869    3                  ELSE IF S_D.DO$ -> S$HOW.ID_FROM = 60 /* C@EVAL */
      716    10870    3                       THEN M = '0'B;
      717    10871    3             IF E
PL6.E3A0      #001=DDA$SHOW File=DDA$SHOW.:E05TSI                                TUE 07/29/97 13:35 Page:21
      718    10872    4             THEN DO;
      719    10873    4                  CALL CONCAT( S_D.OUTPUT, 'FORMAT EVALUATE \ ', DD_FORMAT_TABLE.TX(
             10873                           S_D.EFMT_DEFAULT ) );
      720    10874    4                  SIZE = LENGTHC( 'FORMAT EVALUATE \ ' ) + DD_FORMAT_TABLE.SZ( S_D.
             10874                           EFMT_DEFAULT );
      721    10875    4                  CALL DDQ$WRITED( BUF$, SIZE );
      722    10876    4                END;
      723    10877    3             IF M
      724    10878    4             THEN DO;
      725    10879    4                  CALL CONCAT( S_D.OUTPUT, 'FORMAT MODIFY \ ', DD_FORMAT_TABLE.TX( S_D.
             10879                           FMT_DEFAULT ) );
      726    10880    4                  SIZE = LENGTHC( 'FORMAT MODIFY \ ' ) + DD_FORMAT_TABLE.SZ( S_D.
             10880                           FMT_DEFAULT );
      727    10881    4                  CALL DDQ$WRITED( BUF$, SIZE );
      728    10882    4                END;
      729    10883    3          CASE ( 304 );                 /* SHOW COPY */
      730    10884    3             IF NOT D_XDELTA
      731    10885    4             THEN DO;
      732    10886    5                  IF S_D.COPY THEN DO;
      733    10887    5                       S_D.OUTPUT = 'COPY';
      734    10888    5                       SIZE = 4;
      735    10889    5                     END;
      736    10890    5                  ELSE DO;
      737    10891    6                       IF NOT S_D.SIM_UPDATE THEN DO;
      738    10892    6                            S_D.OUTPUT = 'COPY killed';
      739    10893    6                            SIZE = 11;
      740    10894    6                          END;
      741    10895    6                       ELSE DO;
      742    10896    6                            S_D.OUTPUT = 'Kill COPY';
      743    10897    6                            SIZE = 9;
      744    10898    6                          END;
      745    10899    5                     END;
      746    10900    4                  GOTO WRITE_IT;
      747    10901    4                END;
      748    10902    3             ELSE GOTO ERR7;
      749    10903    3          CASE ( 305 );                 /* SHOW ECHO */
      750    10904    3             IF NOT D_XDELTA
PL6.E3A0      #001=DDA$SHOW File=DDA$SHOW.:E05TSI                                TUE 07/29/97 13:35 Page:22
      751    10905    4             THEN DO;
      752    10906    5                  IF S_D.ECHO THEN DO;
      753    10907    5                       S_D.OUTPUT = 'ECHO';
      754    10908    5                       SIZE = 4;
      755    10909    5                     END;
      756    10910    5                  ELSE DO;
      757    10911    6                       IF NOT S_D.SIM_UPDATE THEN DO;
      758    10912    6                            S_D.OUTPUT = 'ECHO killed';
      759    10913    6                            SIZE = 11;
      760    10914    6                          END;
      761    10915    6                       ELSE DO;
      762    10916    6                            S_D.OUTPUT = 'Kill ECHO';
      763    10917    6                            SIZE = 9;
      764    10918    6                          END;
      765    10919    5                     END;
      766    10920    4                  GOTO WRITE_IT;
      767    10921    4                END;
      768    10922    3             ELSE GOTO ERR7;
      769    10923    3          CASE ( 306 );               /* SHOW IGNORE */
      770    10924    3             IF NOT D_XDELTA
      771    10925    4             THEN DO;
      772    10926    4                  S_D.OUTPUT = 'IGNORE ';
      773    10927    4                  SIZE = 7;
      774    10928    4                  BB$ = PINCRC(ADDR(S_D.OUTPUT),7);
      775    10929    4                  CALL BLD_OPTIONS(S_D.IGNORE);
      776    10930    4                  IF S_D.IGNORE~='0'B OR NOT S_D.SIM_UPDATE THEN CALL DDQ$WRITED(ADDR(
             10930                           S_D.OUTPUT), SIZE);
      777    10931    4                  IF S_D.FPRG_CONTEXT$ ~= ADDR(NIL)
      778    10932    5                  THEN DO;
      779    10933    5                       TFPRG$ = S_D.FPRG_CONTEXT$;
      780    10934    6                       DO WHILE (TFPRG$ ~= ADDR(NIL));
      781    10935    6                            IF NOT TFPRG$ -> FPRG$CONTEXT.XDELTA AND
      782    10936    6                              TFPRG$ -> FPRG$CONTEXT.IGNORE(5)
      783    10937    7                            THEN DO;
      784    10938    7                                 S_D.OUTPUT = 'IGNORE ';
      785    10939    7                                 SIZE = 7;
      786    10940    7                                 BB$ = PINCRC(ADDR(S_D.OUTPUT),7);
PL6.E3A0      #001=DDA$SHOW File=DDA$SHOW.:E05TSI                                TUE 07/29/97 13:35 Page:23
      787    10941    7                                 BB$ -> CHAR1 = '(';
      788    10942    7                                 SIZE = SIZE + 1;
      789    10943    7                                 BB$ = PINCRC(BB$, 1);
      790    10944    7                                 REM = SIZEC(S_D.OUTPUT) - 8;
      791    10945    7                                 CALL DDR$MOVE(SUBSTR(TFPRG$->FPRG$CONTEXT.RES, 0,
             10945                                          TFPRG$->FPRG$CONTEXT.RES_SIZE-1),
      792    10946    7                                   TFPRG$->FPRG$CONTEXT.RES_SIZE, BB$, REM);
      793    10947    7                                 BB$ -> CHAR4 = ') ';
      794    10948    7                                 SIZE = SIZE + 2 + TFPRG$->FPRG$CONTEXT.RES_SIZE;
      795    10949    7                                 BB$ = PINCRC(BB$, 2);
      796    10950    7                                 BB$->CHAR16 = 'Arithmetic';
      797    10951    7                                 SIZE = SIZE + 10;
      798    10952    7                                 BB$ = PINCRC(BB$, 10);
      799    10953    7                                 CALL DDQ$WRITED(ADDR(S_D.OUTPUT), SIZE);
      800    10954    7                               END;
      801    10955    6                            TFPRG$ = TFPRG$ -> FPRG$CONTEXT.NEXT$;
      802    10956    6                          END;
      803    10957    5                     END;
      804    10958    4                  GOTO RET;
      805    10959    4                END;
      806    10960    3             ELSE GOTO ERR7;
      807    10961    3          CASE ( 307 );                 /* SHOW TRAP */
      808    10962    3             IF NOT D_XDELTA
      809    10963    4             THEN DO;
      810    10964    4                  S_D.OUTPUT = 'TRAP ';
      811    10965    4                  SIZE = 5;
      812    10966    4                  BB$ = PINCRC(ADDR(S_D.OUTPUT),5);
      813    10967    4                  CALL BLD_OPTIONS(S_D.TRAP);
      814    10968    4                  IF S_D.TRAP~='0'B OR NOT S_D.SIM_UPDATE THEN CALL DDQ$WRITED(ADDR(S_D
             10968                           .OUTPUT), SIZE);
      815    10969    4                  IF S_D.FPRG_CONTEXT$ ~= ADDR(NIL)
      816    10970    5                  THEN DO;
      817    10971    5                       TFPRG$ = S_D.FPRG_CONTEXT$;
      818    10972    6                       DO WHILE (TFPRG$ ~= ADDR(NIL));
      819    10973    6                            S_D.OUTPUT = 'TRAP ';
      820    10974    6                            SIZE = 5;
      821    10975    6                            BB$ = PINCRC(ADDR(S_D.OUTPUT), 5);
PL6.E3A0      #001=DDA$SHOW File=DDA$SHOW.:E05TSI                                TUE 07/29/97 13:35 Page:24
      822    10976    6                            OPT_L6 = TFPRG$ -> FPRG$CONTEXT.TRAP;
      823    10977    6                            CALL BLD_OPTIONS_L6(TFPRG$, OPT_L6);
      824    10978    6                            CALL DDQ$WRITED(ADDR(S_D.OUTPUT), SIZE);
      825    10979    6                            TFPRG$ = TFPRG$ -> FPRG$CONTEXT.NEXT$;
      826    10980    6                          END;
      827    10981    5                     END;
      828    10982    4                  GOTO RET;
      829    10983    4                END;
      830    10984    3             ELSE GOTO ERR7;
      831    10985    3          CASE ( 308 );                  /* SHOW RUM */
      832    10986    3             IF D_XDELTA THEN GOTO ERR7;
      833    10987    3             IF S_D.RUM
      834    10988    4             THEN DO;
      835    10989    4                  NONE = '0'B;
      836    10990    4                  CALL DUA$SHOW_RUM;
      837    10991    4                END;
      838    10992    4             ELSE DO;
      839    10993    4                  NONE = '0'B;
      840    10994    5                  IF NOT S_D.SIM_UPDATE THEN DO;
      841    10995    5                       S_D.OUTPUT = 'RUM killed';
      842    10996    5                       SIZE = LENGTHC( 'RUM killed' );
      843    10997    5                       GOTO WRITE_IT;
      844    10998    5                     END;
      845    10999    4                END;
      846    11000    3          CASE ( 309 );               /* SHOW ALTVAR */
      847    11001    3             S_D.OUTPUT = 'ALTERNATE VARIABLES';
      848    11002    3             SIZE = LENGTHC( 'ALTERNATE VARIABLES' );
      849    11003    3             IF S_D.XOU_NAME.SIZE > 0
      850    11004    4             THEN DO;
      851    11005    4                  CALL INSERT( S_D.OUTPUT, SIZE, , ' ', S_D.XOU_NAME.TEXT );
      852    11006    4                  SIZE = SIZE + LENGTHC( ' ' ) + S_D.XOU_NAME.SIZE;
      853    11007    4                END;
      854    11008    3             IF NOT S_D.XSCH.OK
      855    11009    4             THEN DO;
      856    11010    5                  IF NOT S_D.SIM_UPDATE THEN DO;
      857    11011    5                       CALL INSERT( S_D.OUTPUT, SIZE, ,' killed' );
      858    11012    5                       SIZE = SIZE + LENGTHC( ' killed' );
PL6.E3A0      #001=DDA$SHOW File=DDA$SHOW.:E05TSI                                TUE 07/29/97 13:35 Page:25
      859    11013    5                     END;
      860    11014    5                  ELSE DO;
      861    11015    6                       IF S_D.XOU_NAME.SIZE > 0 THEN DO;
      862    11016    6                            CALL INSERT (S_D.OUTPUT,SIZE,,'; Kill ALTVAR');
      863    11017    6                            SIZE = SIZE + LENGTHC('; Kill ALTVAR');
      864    11018    6                          END;
      865    11019    6                       ELSE DO;
      866    11020    6                            S_D.OUTPUT = 'Kill ALTVAR';
      867    11021    6                            SIZE = 11;
      868    11022    6                          END;
      869    11023    5                     END;
      870    11024    4                END;
      871    11025    3             GOTO WRITE_IT;
      872    11026    3          CASE ( 310 );                 /* SHOW ANLZ */
      873    11027    3             IF D_XDELTA
      874    11028    4             THEN DO;
      875    11029    4                  S_D.ERROR = 18;     /* E@UERR7 */
      876    11030    4                  ALTRETURN;
      877    11031    4                END;
      878    11032    4             ELSE DO;
      879    11033    4                  IF S_D.ANLZ
      880    11034    5                  THEN DO;
      881    11035    5                       NONE = '0'B;
      882    11036    5                       CALL DUA$SHOW_ANLZ ALTRET( ARET );
      883    11037    5                     END;
      884    11038    5                  ELSE DO;
      885    11039    5                       NONE = '0'B;
      886    11040    6                       IF NOT S_D.SIM_UPDATE THEN DO;
      887    11041    6                            S_D.OUTPUT = 'ANLZ killed';
      888    11042    6                            SIZE = LENGTHC( 'ANLZ killed' );
      889    11043    6                            GOTO WRITE_IT;
      890    11044    6                          END;
      891    11045    5                     END;
      892    11046    4                END;
      893    11047    3          CASE ( 311 );               /* SHOW SYNTAX */
      894    11048    3             S_D.OUTPUT = 'SYNTAX ';
      895    11049    3             SIZE = LENGTHC( 'Syntax ' );
PL6.E3A0      #001=DDA$SHOW File=DDA$SHOW.:E05TSI                                TUE 07/29/97 13:35 Page:26
      896    11050    3             CALL INSERT( S_D.OUTPUT, SIZE, , COMPID( S_D.SYNTAX ) );
      897    11051    3             SIZE = SIZE + COMPIDS( S_D.SYNTAX );
      898    11052    3             GOTO WRITE_IT;
      899    11053    3          CASE ( 313 );                  /* SHOW SAD */
      900    11054    3             IF S_D.FPRG AND S_D.CURRENT_FPRG_CONTEXT$ -> FPRG$CONTEXT.INTERPRETIVE
      901    11055    4             THEN DO;
      902    11056    4                  IF S_D.DO$ -> S$HOW.TYPE = 280 /* S@ALL */
      903    11057    4                  THEN GOTO SHOWTYPE_RETN;
      904    11058    5                  ELSE DO;
      905    11059    5                       S_D.ERROR = 309; /* E@NOT_INTERPRETIVE */
      906    11060    5                       GOTO ARET;
      907    11061    5                     END;
      908    11062    4                END;
      909    11063    3             IF D_XDELTA THEN GOTO ERR7;
      910    11064    3             S_D.OUTPUT = 'SAD ';
      911    11065    3             SIZE = LENGTHC( 'SAD ' );
      912    11066    3             IF S_D.SAD < 0
      913    11067    4             THEN DO;
      914    11068    5                  IF NOT S_D.SIM_UPDATE THEN DO;
      915    11069    5                       S_D.OUTPUT = 'SAD killed';
      916    11070    5                       SIZE = 10;
      917    11071    5                     END;
      918    11072    5                  ELSE DO;
      919    11073    5                       S_D.OUTPUT = 'Kill SAD';
      920    11074    5                       SIZE = 8;
      921    11075    5                     END;
      922    11076    4                END;
      923    11077    4             ELSE DO;
      924    11078    4                  S_D.OUTPUT = 'SAD ';
      925    11079    4                  SIZE = 4;
      926    11080    4                  BB$ = PINCRC( BUF$, SIZE );
      927    11081    4                  CALL DDR$BINTXT( BB$, S_D.SAD, %UINT_FMT, NCARS );
      928    11082    4                  SIZE = SIZE + NCARS;
      929    11083    4                END;
      930    11084    3             GOTO WRITE_IT;
      931    11085    3          CASE ( 314 );              /* SHOW PROTECT */
      932    11086    3             IF S_D.PROTECT
PL6.E3A0      #001=DDA$SHOW File=DDA$SHOW.:E05TSI                                TUE 07/29/97 13:35 Page:27
      933    11087    4             THEN DO;
      934    11088    4                  S_D.OUTPUT = 'PROTECT';
      935    11089    4                  SIZE = LENGTHC( 'PROTECT' );
      936    11090    4                END;
      937    11091    4             ELSE DO;
      938    11092    5                  IF NOT S_D.SIM_UPDATE THEN DO;
      939    11093    5                       S_D.OUTPUT = 'PROTECT killed';
      940    11094    5                       SIZE = LENGTHC( 'PROTECT killed' );
      941    11095    5                     END;
      942    11096    5                  ELSE DO;
      943    11097    5                       S_D.OUTPUT = 'Kill PROTECT';
      944    11098    5                       SIZE = 12;
      945    11099    5                     END;
      946    11100    4                END;
      947    11101    3             GOTO WRITE_IT;
      948    11102    3          CASE ( 322 );               /* SHOW STATUS */
      949    11103    4             IF D_XDELTA THEN DO;
      950    11104    4                  S_D.ERROR = 18;
      951    11105    4                  ALTRETURN;
      952    11106    4                END;
      953    11107    3             IF S_D.STATUS
      954    11108    4             THEN DO;
      955    11109    4                  S_D.OUTPUT = 'STATUS';
      956    11110    4                  SIZE = LENGTHC( 'STATUS' );
      957    11111    4                END;
      958    11112    4             ELSE DO;
      959    11113    5                  IF NOT S_D.SIM_UPDATE THEN DO;
      960    11114    5                       S_D.OUTPUT = 'STATUS killed';
      961    11115    5                       SIZE = LENGTHC( 'STATUS killed' );
      962    11116    5                     END;
      963    11117    5                  ELSE DO;
      964    11118    5                       S_D.OUTPUT = 'Kill STATUS';
      965    11119    5                       SIZE = 11;
      966    11120    5                     END;
      967    11121    4                END;
      968    11122    3             GOTO WRITE_IT;
      969    11123    3          CASE ( 315 );                /* SHOW DEBUG */
PL6.E3A0      #001=DDA$SHOW File=DDA$SHOW.:E05TSI                                TUE 07/29/97 13:35 Page:28
      970    11124    3             IF S_D.DEBUGF ~= 0
      971    11125    4             THEN DO;
      972    11126    4                  IF S_D.DEBUGF = BITBIN( '777777777777'O )
      973    11127    5                  THEN DO;
      974    11128    5                       S_D.OUTPUT = 'DEBUG All';
      975    11129    5                       SIZE = LENGTHC( 'DEBUG All' );
      976    11130    5                     END;
      977    11131    5                  ELSE DO;
      978    11132    5                       S_D.OUTPUT = 'DEBUG ';
      979    11133    5                       BB$ = PINCRC( BUF$, LENGTHC( 'DEBUG ' ) );
      980    11134    6                       DO DEFI = 0 TO SIZEB( DEFI ) -1;
      981    11135    6                            IF S_D.DEBUGA( DEFI )
      982    11136    7                            THEN DO;
      983    11137    7                                 CALL DDR$BINTXT( BB$, DEFI, %UINT_FMT, NCARS );
      984    11138    7                                 BB$ = PINCRC( BB$, NCARS );
      985    11139    7                                 BB$ -> CHAR1 = ',';
      986    11140    7                                 BB$ = PINCRC( BB$, 1 );
      987    11141    7                               END;
      988    11142    6                          END;
      989    11143    5                       SIZE = POFFC( BB$, BUF$ ) -1;
      990    11144    5                     END;
      991    11145    4                  GOTO WRITE_IT;
      992    11146    4                END;
      993    11147    3          CASE(318);                   /* FPRGS */
      994    11148    3             NONE = '0'B;
      995    11149    3             SAVE_CONTEXT$ = S_D.CURRENT_FPRG_CONTEXT$;
      996    11150    3             IF S_D.FPRG_CONTEXT$ = ADDR(NIL)
      997    11151    4             THEN DO;
      998    11152    4                  S_D.ERROR = 314; /* E@NOFPRGS_SHOW */
      999    11153    4                  GOTO ARET;
     1000    11154    4                END;
     1001    11155    3             TFPRG$ = S_D.FPRG_CONTEXT$;
     1002    11156    4             DO WHILE (TFPRG$ ~= ADDR(NIL));
     1003    11157    4                  S_D.CURRENT_FPRG_CONTEXT$ = TFPRG$;
     1004    11158    4                  CALL DFA$FPRG (TFPRG$ -> FPRG$CONTEXT.ADDRESS);
     1005    11159    5                  DO CASE(TFPRG$ -> FPRG$CONTEXT.STATE);
     1006    11160    5                    CASE(%RUNNING);
PL6.E3A0      #001=DDA$SHOW File=DDA$SHOW.:E05TSI                                TUE 07/29/97 13:35 Page:29
     1007    11161    5                       CALL DFR$REPORT(%R_FPRG_RUN);
     1008    11162    5                    CASE(%STOPPED);
     1009    11163    5                       CALL DFR$REPORT(%R_FPRG_STOP);
     1010    11164    5                    CASE(%DISASSOCIATED);
     1011    11165    5                       CALL DFR$REPORT(%R_FPRG_DISASSOC);
     1012    11166    5                    CASE(%ATEXIT);
     1013    11167    5                       CALL DFR$REPORT(%R_FPRG_ATEXIT);
     1014    11168    5                    CASE(ELSE);
     1015    11169    5                       S_D.ERROR = 502;
     1016    11170    5                       CALL DDE$ERROR;
     1017    11171    5                       GOTO SHOWTYPE_RETN;
     1018    11172    5                    END;
     1019    11173    4                  TFPRG$ = TFPRG$ -> FPRG$CONTEXT.NEXT$;
     1020    11174    4                END;
     1021    11175    3             S_D.CURRENT_FPRG_CONTEXT$ = SAVE_CONTEXT$;
     1022    11176    3             IF SAVE_CONTEXT$ = ADDR(NIL)
     1023    11177    3             THEN CALL DFA$KILL_FPRG;
     1024    11178    3             ELSE CALL DFA$FPRG(SAVE_CONTEXT$ -> FPRG$CONTEXT.ADDRESS);
     1025    11179    3          CASE(319);
     1026    11180    3             NONE = '0'B;
     1027    11181    3             SAVE_CONTEXT$ = S_D.CURRENT_FPRG_CONTEXT$;
     1028    11182    3             IF S_D.FPRG_CONTEXT$ = ADDR(NIL)
     1029    11183    4             THEN DO;
     1030    11184    4                  S_D.ERROR = 278;    /* E@NOFPRG */
     1031    11185    4                  GOTO ARET;
     1032    11186    4                END;
     1033    11187    3             TFPRG$ = S_D.FPRG_CONTEXT$;
     1034    11188    4             DO WHILE (TFPRG$ -> FPRG$CONTEXT.RES ~= S_D.DO$ -> S$HOW.FPRG_RES);
     1035    11189    4                  TFPRG$ = TFPRG$ -> FPRG$CONTEXT.NEXT$;
     1036    11190    4                  IF TFPRG$ = ADDR(NIL)
     1037    11191    5                  THEN DO;
     1038    11192    5                       S_D.ERROR = 278;
     1039    11193    5                       GOTO ARET;
     1040    11194    5                     END;
     1041    11195    4                END;
     1042    11196    3             S_D.CURRENT_FPRG_CONTEXT$ =TFPRG$;
     1043    11197    3             CALL DFA$FPRG(TFPRG$ -> FPRG$CONTEXT.ADDRESS);
PL6.E3A0      #001=DDA$SHOW File=DDA$SHOW.:E05TSI                                TUE 07/29/97 13:35 Page:30
     1044    11198    4             DO CASE(TFPRG$ -> FPRG$CONTEXT.STATE);
     1045    11199    4               CASE(%RUNNING);
     1046    11200    4                  CALL DFR$REPORT(%R_FPRG_RUN);
     1047    11201    4               CASE(%STOPPED);
     1048    11202    4                  CALL DFR$REPORT(%R_FPRG_STOP);
     1049    11203    4               CASE(%DISASSOCIATED);
     1050    11204    4                  CALL DFR$REPORT(%R_FPRG_DISASSOC);
     1051    11205    4               CASE(%ATEXIT);
     1052    11206    4                  CALL DFR$REPORT(%R_FPRG_ATEXIT);
     1053    11207    4               CASE(ELSE);
     1054    11208    4                  S_D.ERROR = 502;    /* E@DELBUG */
     1055    11209    4                  CALL DDE$ERROR;
     1056    11210    4                  GOTO SHOWTYPE_RETN;
     1057    11211    4               END;
     1058    11212    3             S_D.CURRENT_FPRG_CONTEXT$ = SAVE_CONTEXT$;
     1059    11213    3             IF SAVE_CONTEXT$ = ADDR(NIL)
     1060    11214    3             THEN CALL DFA$KILL_FPRG;
     1061    11215    3             ELSE CALL DFA$FPRG(SAVE_CONTEXT$ -> FPRG$CONTEXT.ADDRESS);
     1062    11216    3          CASE(ELSE);                      /* WHAT'S THIS ? */
     1063    11217    3             S_D.ERROR = 502;         /* E@DELBUG */
     1064    11218    3             CALL DDE$ERROR;
     1065    11219    3          END;
     1066    11220                                                /**/
     1067    11221    2   SHOWTYPE_RETN: ;
     1068    11222    2        RETURN;
     1069    11223    2   WRITE_IT: ;
     1070    11224    2        CALL DDQ$WRITED(ADDR(S_D.OUTPUT), SIZE);
     1071    11225    2   RET:
     1072    11226    2        NONE='0'B;
     1073    11227    2        RETURN;
     1074    11228                                                /**/
     1075    11229    2   ERR7: S_D.ERROR = 18; GOTO ARET;   /* E@UERR7 */
     1076    11230    2   ERRO: S_D.ERROR = 117; GOTO ARET; /* E@NOT_OVERLAID */
     1077    11231    2   ARET: ;
     1078    11232    2        ALTRETURN;
     1079    11233        %EJECT;
PL6.E3A0      #001=DDA$SHOW File=DDA$SHOW.:E05TSI                                TUE 07/29/97 13:35 Page:31
     1080    11234    2   BLD_OPTIONS: PROC(OPT);
     1081    11235    3   DCL 1 OPT ALIGNED,
     1082    11236    3         2 MON BIT(5) UNAL,
     1083    11237    3         2 ARITHMETIC BIT(2) UNAL,
     1084    11238    3         2 PROGRAMMED BIT(3) UNAL,
     1085    11239    3         2 ERROR BIT(10) UNAL,
     1086    11240    3         2 * BIT(16) UNAL;
     1087    11241    3   DCL 1 OPT_BIT(0:35) REDEF OPT BIT(1);
     1088    11242    3   DCL I UBIN;
     1089    11243                                                /**/
     1090    11244    4        IF OPT = '777777777777'O THEN DO;
     1091    11245    4             BB$->CHAR4 = 'All';
     1092    11246    4             SIZE = SIZE + 3;
     1093    11247    4           END;
     1094    11248    4        ELSE IF OPT = '0'B THEN DO;
     1095    11249    4                  BB$->CHAR4 = 'None';
     1096    11250    4                  SIZE = SIZE+4;
     1097    11251    4                END;
     1098    11252    4             ELSE DO;
     1099    11253    4                  IF OPT.MON = '11111'B
     1100    11254    5                  THEN DO;
     1101    11255    5                       BB$->CHAR8 = 'Monitor,';
     1102    11256    5                       BB$ = PINCRC(BB$,8);
     1103    11257    5                       SIZE = SIZE+8;
     1104    11258    5                     END;
     1105    11259    5                  ELSE DO I = 0 TO 4;
     1106    11260    5                       IF OPT_BIT(I) THEN CALL MOVE_NAME;
     1107    11261    5                     END;
     1108    11262    5                  IF OPT.ARITHMETIC = '11'B THEN DO;
     1109    11263    5                       BB$->CHAR16 = 'Arithmetic,';
     1110    11264    5                       SIZE = SIZE + 11;
     1111    11265    5                       BB$ = PINCRC(BB$, 11);
     1112    11266    5                     END;
     1113    11267    5                  ELSE DO I = 5 TO 6;
     1114    11268    5                       IF OPT_BIT(I) THEN CALL MOVE_NAME;
     1115    11269    5                     END;
     1116    11270    5                  IF OPT.PROGRAMMED = '111'B THEN DO;
PL6.E3A0      #001=DDA$SHOW File=DDA$SHOW.:E05TSI                                TUE 07/29/97 13:35 Page:32
     1117    11271    5                       BB$->CHAR16 = 'Programmed,';
     1118    11272    5                       SIZE = SIZE + 11;
     1119    11273    5                       BB$ = PINCRC(BB$, 11);
     1120    11274    5                     END;
     1121    11275    5                  ELSE DO I = 7 TO 9;
     1122    11276    5                       IF OPT_BIT(I) THEN CALL MOVE_NAME;
     1123    11277    5                     END;
     1124    11278    5                  IF OPT.ERROR = '1111111111'B OR OPT.ERROR = '1111111001'B THEN DO;
     1125    11279    5                       BB$->CHAR8 = 'Error,';
     1126    11280    5                       SIZE = SIZE + 6;
     1127    11281    5                       BB$ = PINCRC(BB$, 6);
     1128    11282    5                     END;
     1129    11283    5                  ELSE DO I = 10 TO 19;
     1130    11284    5                       IF I ~= 17 AND I ~= 18 AND OPT_BIT(I) THEN CALL MOVE_NAME;
     1131    11285    5                     END;
     1132    11286    4                  SIZE = SIZE - 1;
     1133    11287    4                END;
     1134    11288    3        RETURN;
     1135    11289    3   MOVE_NAME: PROC;
     1136    11290    4        BB$->CHAR16 = EXCON_NAME(I);
     1137    11291    4        SIZE = SIZE + EXCON_SIZE(I);
     1138    11292    4        BB$ = PINCRC(BB$, EXCON_SIZE(I));
     1139    11293    4        RETURN;
     1140    11294    4   END MOVE_NAME;
     1141    11295    3   END BLD_OPTIONS;
     1142    11296        %EJECT;
PL6.E3A0      #001=DDA$SHOW File=DDA$SHOW.:E05TSI                                TUE 07/29/97 13:35 Page:33
     1143    11297    2   BLD_OPTIONS_L6: PROC(FPRG$, OPT_L6);
     1144    11298    3   DCL FPRG$ PTR;
     1145    11299    3   DCL 1 OPT_L6 ALIGNED,
     1146    11300    3         2 MCL BIT(1),
     1147    11301    3         2 ALL REDEF MCL BIT(1),
     1148    11302    3         2 EVENT BIT(1),
     1149    11303    3         2 NONE REDEF EVENT BIT(1),
     1150    11304    3         2 BREAK BIT(1),
     1151    11305    3         2 MON REDEF BREAK BIT(1),
     1152    11306    3         2 XCON BIT(1),
     1153    11307    3         2 SCREECH REDEF XCON BIT(1),
     1154    11308    3         2 TRAP BIT(1),
     1155    11309    3         2 ARITHMETIC BIT(1);
     1156    11310    3   DCL REM UBIN;
     1157    11311
     1158    11312    3        BB$ -> CHAR1 = '(';
     1159    11313    3        SIZE = SIZE + 1;
     1160    11314    3        BB$ = PINCRC(BB$, 1);
     1161    11315    3        REM = SIZEC(S_D.OUTPUT) - 8;
     1162    11316    3        CALL DDR$MOVE(SUBSTR(TFPRG$->FPRG$CONTEXT.RES, 0, TFPRG$->FPRG$CONTEXT.RES_SIZE
             11316                 -1),
     1163    11317    3          TFPRG$->FPRG$CONTEXT.RES_SIZE, BB$, REM);
     1164    11318    3        BB$ -> CHAR4 = ') ';
     1165    11319    3        SIZE = SIZE + 2 + TFPRG$->FPRG$CONTEXT.RES_SIZE;
     1166    11320    3        BB$ = PINCRC(BB$, 2);
     1167    11321    3        IF FPRG$ -> FPRG$CONTEXT.XDELTA
     1168    11322    4        THEN DO;
     1169    11323    4             IF OPT_L6.ALL
     1170    11324    5             THEN DO;
     1171    11325    5                  BB$->CHAR4 = 'All';
     1172    11326    5                  SIZE = SIZE + 3;
     1173    11327    5                END;
     1174    11328    4             IF OPT_L6.NONE
     1175    11329    5             THEN DO;
     1176    11330    5                  BB$->CHAR4 = 'None';
     1177    11331    5                  SIZE = SIZE + 4;
     1178    11332    5                END;
PL6.E3A0      #001=DDA$SHOW File=DDA$SHOW.:E05TSI                                TUE 07/29/97 13:35 Page:34
     1179    11333    4             IF OPT_L6.MON
     1180    11334    5             THEN DO;
     1181    11335    5                  BB$->CHAR8 = 'Monitor';
     1182    11336    5                  SIZE = SIZE + 7;
     1183    11337    5                END;
     1184    11338    4             IF OPT_L6.SCREECH
     1185    11339    5             THEN DO;
     1186    11340    5                  BB$->CHAR8 = 'Screech';
     1187    11341    5                  SIZE = SIZE + 7;
     1188    11342    5                END;
     1189    11343    4           END;
     1190    11344    4        ELSE DO;
     1191    11345    4             IF OPT_L6 = '77'O
     1192    11346    5             THEN DO;
     1193    11347    5                  BB$->CHAR4 = 'All';
     1194    11348    5                  SIZE = SIZE + 3;
     1195    11349    5                END;
     1196    11350    5             ELSE DO;
     1197    11351    5                  IF OPT_L6.MCL
     1198    11352    6                  THEN DO;
     1199    11353    6                       BB$->CHAR4 = 'MCL,';
     1200    11354    6                       BB$ = PINCRC(BB$,4);
     1201    11355    6                       SIZE = SIZE + 4;
     1202    11356    6                     END;
     1203    11357    5                  IF OPT_L6.EVENT
     1204    11358    6                  THEN DO;
     1205    11359    6                       BB$->CHAR7 = 'Event,';
     1206    11360    6                       BB$ = PINCRC(BB$, 6);
     1207    11361    6                       SIZE = SIZE + 6;
     1208    11362    6                     END;
     1209    11363    5                  IF OPT_L6.BREAK
     1210    11364    6                  THEN DO;
     1211    11365    6                       BB$->CHAR7 = 'Break,';
     1212    11366    6                       BB$ = PINCRC(BB$, 6);
     1213    11367    6                       SIZE = SIZE + 6;
     1214    11368    6                     END;
     1215    11369    5                  IF OPT_L6.XCON
PL6.E3A0      #001=DDA$SHOW File=DDA$SHOW.:E05TSI                                TUE 07/29/97 13:35 Page:35
     1216    11370    6                  THEN DO;
     1217    11371    6                       BB$->CHAR5 = 'Xcon,';
     1218    11372    6                       BB$ = PINCRC(BB$, 5);
     1219    11373    6                       SIZE = SIZE + 5;
     1220    11374    6                     END;
     1221    11375    5                  IF OPT_L6.TRAP
     1222    11376    6                  THEN DO;
     1223    11377    6                       BB$->CHAR5 = 'Trap,';
     1224    11378    6                       BB$ = PINCRC(BB$, 5);
     1225    11379    6                       SIZE = SIZE + 5;
     1226    11380    6                     END;
     1227    11381    5                  IF OPT_L6.ARITHMETIC
     1228    11382    6                  THEN DO;
     1229    11383    6                       BB$->CHAR16 = 'Arithmetic,';
     1230    11384    6                       BB$ = PINCRC(BB$, 11);
     1231    11385    6                       SIZE = SIZE + 11;
     1232    11386    6                     END;
     1233    11387    5                  SIZE = SIZE - 1;
     1234    11388    5                END;
     1235    11389    4           END;
     1236    11390    3        RETURN;
     1237    11391    3   END BLD_OPTIONS_L6;
     1238    11392        %EJECT;
PL6.E3A0      #001=DDA$SHOW File=DDA$SHOW.:E05TSI                                TUE 07/29/97 13:35 Page:36
     1239    11393                                                /**/
     1240    11394    2   SHOW_FIX: PROC;
     1241    11395                                                /**/
     1242    11396    3   DCL NODE UBIN;
     1243    11397    3   DCL CNODE UBIN;
     1244    11398    3   DCL I UBIN;
     1245    11399    3   DCL TREE$ PTR;
     1246    11400    3   DCL ISADDR UBIN;
     1247    11401    3   DCL SAVE_EWSQ# UBIN;
     1248    11402    3   DCL ATT$ PTR;
     1249    11403    3   DCL FPRG_SAVE BIT(1) ALIGNED;
     1250    11404    3   DCL FPRG_CONTEXT_SAVE$ PTR;
     1251    11405    3        FPRG_SAVE = S_D.FPRG;
     1252    11406    3        FPRG_CONTEXT_SAVE$ = S_D.CURRENT_FPRG_CONTEXT$;
     1253    11407                                                /**/
     1254    11408    4        DO I = F_FROM TO F_TO;
     1255    11409    4             CALL DDB$BREAK ALTRET( SHOWFIX_RETN );
     1256    11410    4             CCMD = S_D.FIXCOM.CMD( I );
     1257    11411    4             IF CCMD ~= 0
     1258    11412    4             THEN IF CMD = CCMD OR CMD = 0
     1259    11413    5                  THEN DO;
     1260    11414    5                       S_D.SHOW1 = I;
     1261    11415    5                       NONE = '0'B;
     1262    11416    5                       IF S_D.OVERLAID AND NOT D_XDELTA AND ( CCMD = 2 OR /* C_AT */
     1263    11417    5                         CCMD = 31 OR    /* C_OC */
     1264    11418    5                         CCMD = 67 )   /* C_WHEN */
     1265    11419    6                       THEN DO;
     1266    11420    6                            NODE = PINCRW(S_D.VARCOM$, S_D.FIXCOM.FAI( I ) ) ->
             11420                                     AT_FIRST.NODE;
     1267    11421    6                            TREE$ = S_D.TREE$;
     1268    11422    6                            IF NOT TREE$ -> DU$TREE.NOW_IN( NODE )
     1269    11423    7                            THEN DO;
     1270    11424    7                                 CNODE = S_D.NODE;
     1271    11425    7                                 S_D.NODE = NODE;
     1272    11426    7                                 CALL DDS$EUTREE; /* Ignore altret */
     1273    11427    7                                 S_D.TREE$ = S_D.UTREE$;
     1274    11428    7                                 ISADDR = S_D.B$TREE$ -> B$NODE.PADDR( NODE );
PL6.E3A0      #001=DDA$SHOW File=DDA$SHOW.:E05TSI                                TUE 07/29/97 13:35 Page:37
     1275    11429    7                                 CALL DDS$ES_INQ( ISADDR ); /* Ignore altret */
     1276    11430    7                                 CALL DDA$SHOW1;
     1277    11431    7                                 S_D.NODE = CNODE;
     1278    11432    7                                 S_D.TREE$ = TREE$;
     1279    11433    7                                 IF TREE$ = S_D.MTREE$
     1280    11434    7                                 THEN ISADDR = S_D.SAVEIC;
     1281    11435    8                                 ELSE DO;
     1282    11436    8                                      CALL DDS$EUTREE; /* Ignore altret */
     1283    11437    8                                      ISADDR = S_D.B$TREE$ -> B$NODE.PADDR( CNODE );
     1284    11438    8                                    END;
     1285    11439    7                                 CALL DDS$ES_INQ( ISADDR ); /* Ignore altret */
     1286    11440    7                               END;
     1287    11441    6                            ELSE CALL DDA$SHOW1;
     1288    11442    6                          END;
     1289    11443    5                       ELSE IF D_XDELTA
     1290    11444    6                            THEN DO;
     1291    11445    6                                 SAVE_EWSQ# = S_D.EWSQ#;
     1292    11446    6                                 USAVE = USE_REM; /* SAVE CURRENT USE */
     1293    11447    6                                 UNODE = S_D.UNODE.USENODE;
     1294    11448    6                                 ATT$ = PINCRW(S_D.VARCOM$, S_D.FIXCOM.FAI(I) );
     1295    11449    6                                 IF S_D.FIXCOM.USER(I)
     1296    11450    7                                 THEN DO;
     1297    11451    7                                      S_D.EWSQ# = 0;
     1298    11452    7                                      U$SE.TYPE = 3; /* USE_USER@ */
     1299    11453    7                                      U$SE.APT = ATT$ -> AT_FIRST.U.APT;
     1300    11454    7                                      U$SE.LS = ATT$ -> AT_FIRST.U.LS;
     1301    11455    7                                    END;
     1302    11456    7                                 ELSE DO;
     1303    11457    7                                      S_D.EWSQ# = 1;
     1304    11458    7                                      U$SE.TYPE = 0; /* USE_MON */
     1305    11459    7                                      U$SE.LS = 0;
     1306    11460    7                                      S_D.UNODE.USENODE = ATT$ -> AT_FIRST.NODE;
     1307    11461    7                                    END;
     1308    11462    6                                 CALL DXB$USE;
     1309    11463    6                                 CALL DDA$SHOW1;
     1310    11464    6                                 U$SE = USAVE;
     1311    11465    6                                 CALL DXB$USE;
PL6.E3A0      #001=DDA$SHOW File=DDA$SHOW.:E05TSI                                TUE 07/29/97 13:35 Page:38
     1312    11466    6                                 S_D.UNODE.USENODE = UNODE;
     1313    11467    6                                 S_D.EWSQ# = SAVE_EWSQ#;
     1314    11468    6                               END;
     1315    11469    5                            ELSE CALL DDA$SHOW1;
     1316    11470    5                     END;
     1317    11471    4           END;
     1318    11472                                                /**/
     1319    11473    3        S_D.FPRG = FPRG_SAVE;
     1320    11474    3        S_D.CURRENT_FPRG_CONTEXT$ = FPRG_CONTEXT_SAVE$;
     1321    11475    3        IF S_D.FPRG AND NOT S_D.DEBUG_CMD
     1322    11476    3        THEN CALL DFA$FPRG(S_D.CURRENT_FPRG_CONTEXT$ -> FPRG$CONTEXT.ADDRESS);
     1323    11477    3   SHOWFIX_RETN: ;
     1324    11478    3        RETURN;
     1325    11479                                                /**/
     1326    11480    3   END SHOW_FIX;
     1327    11481                                                /**/
     1328    11482    2   END SHOW_TYPE;
     1329    11483                                                /**/
     1330    11484    1   END DDA$SHOW;

PL6.E3A0      #001=DDA$SHOW File=DDA$SHOW.:E05TSI                                TUE 07/29/97 13:35 Page:39
--  Include file information  --

   CP_6_SUBS.:E05TOU  is referenced.
   CP_6.:E05TOU  cannot be made into a system file and is referenced.
   DD_SRTN_C.:E05TOU  is referenced.
   DD_ACODE_C.:E05TOU  is referenced.
   DD_ICODE_C.:E05TOU  is referenced.
   DD$DITEM.:E05TOU  cannot be made into a system file and is referenced.
   DD_ERR_C.:E05TOU  is referenced.
   DD_PSUBS_C.:E05TOU  is referenced.
   DD_SUBS_C.:E05TOU  is referenced.
   DD_SD_M.:E05TOU  is referenced.
   XUH_MACRO_C.:E05TOU  is referenced.
   B$OBJECT_C.:E05TOU  is referenced.
   DD$BASED.:E05TOU  is referenced.
   B$JIT_C.:E05TOU  was found in the system file and is never referenced.
   CP_6_C.:E05TOU  was found in the system file and is referenced.
      No diagnostics issued in procedure DDA$SHOW.

   Procedure DDA$SHOW requires 2618 words for executable code.
   Procedure DDA$SHOW requires 52 words of local(AUTO) storage.

    No errors detected in file DDA$SHOW.:E05TSI    .

PL6.E3A0      #001=DDA$SHOW File=DDA$SHOW.:E05TSI                                TUE 07/29/97 13:35 Page:40

 Object Unit name= DDA$SHOW                                   File name= DDA$SHOW.:E05TOU
 UTS= JUL 29 '97 13:35:57.60 TUE                              Compiler= PL-6/E31         Sev=      00
 SharedLib= :SHARED_SYSTEM                                    Alt SharedLib=


    ****  Control sections  ****

 Sect   Type Bound  Init  Size OctSiz  Section name(segment info)
    0  RoData even  UTS    478    736  DDA$SHOW
    1   DCB   even  none     0      0  M$UC
    2   Proc  even  none  2618   5072  DDA$SHOW
    3  RoData even  none    32     40  DDA$SHOW

    ****  Entry defs  ****

                              Check   Calling
                             calling  sequence
  Sect OctLoc Primary Altret sequence   type   Parms  Name
     2      0   yes            yes      Std        0  DDA$SHOW
PL6.E3A0      #001=DDA$SHOW File=DDA$SHOW.:E05TSI                                TUE 07/29/97 13:35 Page:41

  ****  Entry refs  ****

         Check        Calling
        calling       sequence
Altret sequence SRef   type   Args  Name
 yes     yes           Std       4 DUA$OUTPUT
 yes     yes           Std       0 DDB$BREAK
         yes           Std       2 DDQ$WRITED
 yes     yes           Std       0 DUA$CLOSEDUMP
         yes           Std       0 DDE$ERROR
 yes     yes           Std       4 DDR$MOVE
         yes           Std       0 DUA$SHOW_RUM
         yes           Std       1 DFR$REPORT
 yes     yes           Std       5 DDR$POSIT
 yes     yes           Std       0 DUA$SHOW_ANLZ
         yes           Std       1 DFA$KILL_FPRG
         yes           Std       4 DDR$BINTXT
         yes           Std       1 DFA$FPRG
 yes     yes           Std       0 DDS$EUTREE
         yes           Std       2 DDA$SHOW1
 yes     yes           Std       1 DDS$ES_INQ
         yes           Std       0 DXB$USE
                       Std       0 B_CONSPOOL_D
                       nStd      0 X66_AUTO_0
                       nStd      0 X66_ARET

  ****  Data refs  ****

  Flags:  r = read only, s = secondary
Flgs Name                             Flgs Name                             Flgs Name
     USE_REM                          r    S_D$                                  D_XDELTA
     DX_DIC                                USE$                                  D_SYMBOLS
r    D_M$DO#                               M$UC                                  B_VECTNIL
PL6.E3A0      #001=DDA$SHOW File=DDA$SHOW.:E05TSI                                TUE 07/29/97 13:35 Page:42

  ****  Segment refs  ****

  Flags:  r = read only, s = secondary
Flgs Name                             Flgs Name                             Flgs Name
     ROSID                                 ISSID
PL6.E3A0      #001=DDA$SHOW File=DDA$SHOW.:E05TSI                                TUE 07/29/97 13:35 Page:43


        1        1        /*M* DDA$SHOW SHOW DO ROUTINE */
        2        2        /*T***********************************************************/
        3        3        /*T*                                                         */
        4        4        /*T* Copyright (c) Bull HN Information Systems Inc., 1997    */
        5        5        /*T*                                                         */
        6        6        /*T***********************************************************/
        7        7        /*X* DMR,PLM=5,IND=5,CSU=3,EXM=0,ECU=3,MOC,DCI=5,CRT=5 */
        8        8        %SET LISTSUB='1'B;
        9        9        /*D*  NAME:  DDA$SHOW
       10       10              CALL:  CALL DDA$SHOW
       11       11              INPUT:  S_D.DO$ POINTS TO THE SHOW FRAME
       12       12              DESCRIPTION:  DDA$SHOW IS CALLED BY DDA$DO.
       13       13                     THE SHOW 'TYPE' OR ID RANGE DICTATES WHAT IS TO BE
       14       14                     DONE. */
       15       15                                                /**/
       16       16        DDA$SHOW: PROC;

     16  2 000000   000000 700200 xent  DDA$SHOW     TSX0  ! X66_AUTO_0
         2 000001   000064 000000                    ZERO    52,0

       17       17                                                /**/
       18       18    1   DCL TYPE SBIN;
       19       19    1   DCL STEP_MODE SBIN;
       20       20    1   DCL F_FROM SBIN;
       21       21    1   DCL F_TO SBIN;
       22       22    1   DCL CMD SBIN;
       23       23    1   DCL DEFI SBIN;
       24       24    1   DCL BB$ PTR;
       25       25    1   DCL REM SBIN;
       26       26    1   DCL SZ SBIN;
       27       27    1   DCL NCARS SBIN;
       28       28    1   DCL I UBIN;
       29       29    1   DCL J UBIN;
       30       30    1   DCL SIZE UBIN;
       31       31    1   DCL CCMD UBIN;
       32       32    1   DCL NONE BIT(1) ALIGNED;
PL6.E3A0      #001=DDA$SHOW File=DDA$SHOW.:E05TSI                                TUE 07/29/97 13:35 Page:44
       33       33    1   DCL IX UBIN;
       34       34    1   DCL BUF$ PTR;
       35       35    1   DCL CHAR32 CHAR(32) BASED;
       36       36    1   DCL CHAR16 CHAR(16) BASED;
       37       37    1   DCL CHAR8 CHAR(8) BASED;
       38       38    1   DCL CHAR7 CHAR(7) BASED UNAL;
       39       39    1   DCL CHAR6 CHAR(6) BASED UNAL;
       40       40    1   DCL CHAR5 CHAR(5) BASED UNAL;
       41       41    1   DCL CHAR1 CHAR(1) BASED UNAL;
       42       42    1   DCL CHAR4 CHAR(4) BASED;
       43       43    1   DCL M BIT(1) ALIGNED;
       44       44    1   DCL E BIT(1) ALIGNED;
       45       45    1   DCL SAVE_WIDTH UBIN;
       46       46    1   DCL TFPRG$ PTR;
       47       47    1   DCL SAVE_CONTEXT$ PTR;
       48       48    1   DCL 1 OPT_L6 ALIGNED,
       49       49    1         2 MCL BIT(1),
       50       50    1         2 ALL REDEF MCL BIT(1),
       51       51    1         2 EVENT BIT(1),
       52       52    1         2 NONE REDEF EVENT BIT(1),
       53       53    1         2 BREAK BIT(1),
       54       54    1         2 MON REDEF BREAK BIT(1),
       55       55    1         2 XCON BIT(1),
       56       56    1         2 SCREECH REDEF XCON BIT(1),
       57       57    1         2 TRAP BIT(1),
       58       58    1         2 ARITHMETIC BIT(1);
       59       59        %INCLUDE DD$BASED;
       60     1362        %AT_FIRST;
       61     1390        %U$SE;
       62     1398        %U$SE(NAME=USAVE,STCLASS=AUTO);
       63     1406        %U$SE(NAME=USE_REM,STCLASS=SYMREF);
       64     1414    1   DCL UNODE UBIN;
       65     1415        %DU$TREE (NAME="DU$TREE(0:0)");
       66     1421        %SHOW$CMD (NAME=S$HOW);
       67     1443        %FPRG$CONTEXT;
       68     1506        %INCLUDE B$OBJECT_C;
       69     4936        %B$TREE_TABLE (HDR_NAME=B$TREEHDR,NODE_NAME="B$NODE(0:0)");
PL6.E3A0      #001=DDA$SHOW File=DDA$SHOW.:E05TSI                                TUE 07/29/97 13:35 Page:45
       70     4994        %INCLUDE XUH_MACRO_C;
       71     5078        %INCLUDE DD_SD_M;
       72     6414        %S_D;
       73     7732    1   DCL D_XDELTA BIT(1) ALIGNED SYMREF;
       74     7733    1   DCL DX_DIC BIT(1) ALIGNED SYMREF;
       75     7734    1   DCL USE$ PTR SYMREF;
       76     7735    1   DCL D_SYMBOLS BIT(1) ALIGNED SYMREF;
       77     7736    1   DCL D_M$DO# UBIN SYMREF READONLY;
       78     7737        %INCLUDE DD_SUBS_C;
       79     8008        %INCLUDE DD_PSUBS_C;
       80     8483        /* SHOW ALL CONTROL TABLE */
       81     8484    1   DCL TABLE(0:25) UBIN CONSTANT INIT(
       82     8485    1                                    308, /* S@RUM */
       83     8486    1                                   310, /* S@ANLZ */
       84     8487    1                               301, /* S@ALLSMALL */
       85     8488    1                                  287, /* S@TRACE */
       86     8489    1                                295, /* S@ABBREVS */
       87     8490    1                                   282, /* S@DEFS */
       88     8491    1                                    290, /* S@USE */
       89     8492    1                                   289, /* S@KEEP */
       90     8493    1                                   307, /* S@TRAP */
       91     8494    1                                 306, /* S@IGNORE */
       92     8495    1                                  300, /* S@RANGE */
       93     8496    1                                   283, /* S@STEP */
       94     8497    1                                 284, /* S@SCHEMA */
       95     8498    1                                 309, /* S@ALTVAR */
       96     8499    1                                 297, /* S@BYPASS */
       97     8500    1                                 303, /* S@FORMAT */
       98     8501    1                                   304, /* S@COPY */
       99     8502    1                                   305, /* S@ECHO */
      100     8503    1                                   302,  /* S@EOM */
      101     8504    1                                314, /* S@PROTECT */
      102     8505    1                                    299, /* S@DIC */
      103     8506    1                                  315, /* S@DEBUG */
      104     8507    1                                    313, /* S@SAD */
      105     8508    1                                322,  /* S@STATUS */
      106     8509    1                                 311, /* S@SYNTAX */
PL6.E3A0      #001=DDA$SHOW File=DDA$SHOW.:E05TSI                                TUE 07/29/97 13:35 Page:46
      107     8510    1                                285); /* S@REPORT */
      108     8511    1   DCL NONEMSG CHAR(0) CONSTANT INIT( 'None' );
      109     8512    1   DCL EXCON_NAME(0:19) CHAR(16) CONSTANT UNAL INIT(
      110     8513    1        'Timer,',
      111     8514    1        'Event,',
      112     8515    1        'Break,',
      113     8516    1        'Xcon,',
      114     8517    1        'Pmme,',
      115     8518    1        'Overflow,',
      116     8519    1        'Divide_check,',
      117     8520    1        'Mme,',
      118     8521    1        'Derail,',
      119     8522    1        'Fault_tag,',
      120     8523    1        'Memory,',
      121     8524    1        'Command,',
      122     8525    1        'Lockup,',
      123     8526    1        'Ipr,',
      124     8527    1        'Seg,',
      125     8528    1        'Page,',
      126     8529    1        'Sec_2,',
      127     8530    1        'Parity,',                         /* not currently used */
      128     8531    1        'Op_not_complete,',                /* not currently used */
      129     8532    1        'Sec_1,');
      130     8533    1   DCL EXCON_SIZE(0:19) UBIN CONSTANT INIT(
      131     8534    1        6,6,6,5,5,9,13,4,7,10,7,8,7,4,4,5,6,7,16,6);
      132     8535    1   DCL 1 DD_FORMAT_TABLE(0:32) CONSTANT,
      133     8536    1         2 SZ UBIN(9) UNAL INIT(
      134     8537    1           3 ,1, 1, 1, 1,
      135     8538    1           1, 1, 1, 1,
      136     8539    1           1, 1, 2, 1,
      137     8540    1           1, 2, 2, 1,
      138     8541    1           1, 2, 1, 1,
      139     8542    1           2, 5, 2, 5,
      140     8543    1           3, 5, 6,
      141     8544    1           6, 3, 5, 7, 5 ),
      142     8545    1         2 TX CHAR(8) UNAL INIT(
      143     8546    1           'REMEMBER','OCTAL   ','UBIN    ','SBIN    ','CHAR    ',
PL6.E3A0      #001=DDA$SHOW File=DDA$SHOW.:E05TSI                                TUE 07/29/97 13:35 Page:47
      144     8547    1           'BIT     ','INSTR   ','PTR     ','DESCR   ',
      145     8548    1           'REL     ','EPTR    ','AR      ','VECTOR  ',
      146     8549    1           'X       ','OBIT    ','L$      ','FLOAT   ',
      147     8550    1           'JDE     ','X1      ','TIME    ','ZERO    ',
      148     8551    1           'EBCDIC  ','COMP2   ','OFORT   ','ZFORT   ',
      149     8552    1           'LOGICAL ','CMPLX   ','INDEX1  ',
      150     8553    1           'INDEX2  ','PUP     ','CAN''T   ','DEFAULT ','COMP1   ');
      151     8554    1   DCL COMPID(0:13) CHAR(8) CONSTANT INIT(
      152     8555    1                                         'GMAP    ',
      153     8556    1                                         'PL6     ',
      154     8557    1                                         'FORTRAN ',
      155     8558    1                                         'COBOL   ',
      156     8559    1                                         'PL1     ',
      157     8560    1                                         'RPG     ',
      158     8561    1                                         'PASCAL  ',
      159     8562    1                                         'MOMUS   ',
      160     8563    1                                         'FPL     ',
      161     8564    1                                         'PARTRGE ',
      162     8565    1                                         'IDL     ',
      163     8566    1                                         'ELSIE   ',
      164     8567    1                                         'CALF    ',
      165     8568    1                                         'CC      ' );
      166     8569    1   DCL COMPIDS(0:13) UBIN CONSTANT INIT( 4, 3, 7, 5, 3, 3, 6, 5, 3, 7, 3, 5, 4, 2 );
      167     8570        %INCLUDE DD_ERR_C;
      168     8967        %INCLUDE DD$DITEM;
       12+    9070             %LIST;
       13+    9071    1        DCL SDD$ PTR;
       14+    9072    1        DCL ZITEM$ PTR;
       15+    9073    1        DCL SDD_L6$ PTR;
       16+    9074    1        DCL ZITEM_L6$ PTR;
      169     9648        %INCLUDE CP_6;
      170     9729        %INCLUDE CP_6_SUBS;
      171    10269        %F$DCB;
      172    10326    1   DCL DUA$SHOW_ANLZ ENTRY(0) ALTRET;
      173    10327    1   DCL DUA$SHOW_RUM ENTRY(0);
      174    10328    1   DCL DDA$SHOW1 ENTRY(2);
      175    10329    1   DCL DDB$BREAK ENTRY ALTRET;
PL6.E3A0      #001=DDA$SHOW File=DDA$SHOW.:E05TSI                                TUE 07/29/97 13:35 Page:48
      176    10330    1   DCL DDE$ERROR ENTRY;
      177    10331    1   DCL DDR$MOVE ENTRY(4) ALTRET;
      178    10332    1   DCL DDQ$WRITED ENTRY(2);
      179    10333    1   DCL DUA$OUTPUT ENTRY(4) ALTRET;
      180    10334    1   DCL DUA$CLOSEDUMP ENTRY ALTRET;
      181    10335    1   DCL DDR$BINTXT ENTRY(4);
      182    10336    1   DCL DDR$POSIT ENTRY(5) ALTRET;
      183    10337    1   DCL DDS$ES_INQ ENTRY(1) ALTRET;
      184    10338    1   DCL DDS$EUTREE ENTRY(0) ALTRET;
      185    10339    1   DCL DXB$USE ENTRY;
      186    10340    1   DCL DFA$FPRG ENTRY(1);
      187    10341    1   DCL DFA$KILL_FPRG ENTRY(1);
      188    10342    1   DCL DFR$REPORT ENTRY(1);
      189    10343                                                /**/
      190    10344    1        NONE = '1'B;

  10344  2 000002   400000 236003                    LDQ     -131072,DU
         2 000003   200021 756100                    STQ     NONE,,AUTO

      191    10345    1        BUF$ = ADDR( S_D.OUTPUT );

  10345  2 000004   000000 236000 xsym               LDQ     S_D$
         2 000005   005335 036003                    ADLQ    2781,DU
         2 000006   200023 756100                    STQ     BUF$,,AUTO

      192    10346    1        S_D.SIM_UPDATE = '0'B;

  10346  2 000007   000000 470400 xsym               LDP0    S_D$
         2 000010   006766 450100                    STZ     3574,,PR0

      193    10347    1        SAVE_WIDTH = S_D.OUT_WIDTH;

  10347  2 000011   000014 235100                    LDA     12,,PR0
         2 000012   200026 755100                    STA     SAVE_WIDTH,,AUTO

      194    10348    1        IF D_XDELTA THEN GOTO SKIP_DEST;

PL6.E3A0      #001=DDA$SHOW File=DDA$SHOW.:E05TSI                                TUE 07/29/97 13:35 Page:49
  10348  2 000013   000000 234000 xsym               SZN     D_XDELTA
         2 000014   000067 604000 2                  TMI     SKIP_DEST

      195    10349    2        IF S_D.DO$->S$HOW.DESTCODE~= 0 THEN DO;

  10349  2 000015   000031 471500                    LDP1    25,,PR0
         2 000016   100015 235100                    LDA     13,,PR1
         2 000017   000041 600000 2                  TZE     s:10353

      196    10350    2            CALL DUA$OUTPUT (S_D.DO$->S$HOW.FID, S_D.DO$->S$HOW.DESTCODE, S_D.DUMPDCB,
             10350                      '1'B) ALTRET (SHOW_RETN);

  10350  2 000020   000000 236000 3                  LDQ     0
         2 000021   200063 756100                    STQ     FPRG_CONTEXT_SAVE$+4,,AUTO
         2 000022   000000 236000 xsym               LDQ     S_D$
         2 000023   005135 036003                    ADLQ    2653,DU
         2 000024   200062 756100                    STQ     FPRG_CONTEXT_SAVE$+3,,AUTO
         2 000025   100015 633500                    EPPR3   13,,PR1
         2 000026   200061 453500                    STP3    FPRG_CONTEXT_SAVE$+2,,AUTO
         2 000027   100016 634500                    EPPR4   14,,PR1
         2 000030   200060 454500                    STP4    FPRG_CONTEXT_SAVE$+1,,AUTO
         2 000031   200060 630500                    EPPR0   FPRG_CONTEXT_SAVE$+1,,AUTO
         2 000032   000022 631400 xsym               EPPR1   B_VECTNIL+18
         2 000033   000000 701000 xent               TSX1    DUA$OUTPUT
         2 000034   000164 702000 2                  TSX2    SHOW_RETN

      197    10351    2             S_D.SIM_UPDATE = '1'B;

  10351  2 000035   400000 236003                    LDQ     -131072,DU
         2 000036   000000 470400 xsym               LDP0    S_D$
         2 000037   006766 756100                    STQ     3574,,PR0

      198    10352    2           END;

  10352  2 000040   000043 710000 2                  TRA     s:10354

      199    10353    1        ELSE S_D.DUMPDCB = D_M$DO#;
PL6.E3A0      #001=DDA$SHOW File=DDA$SHOW.:E05TSI                                TUE 07/29/97 13:35 Page:50

  10353  2 000041   000000 235000 xsym               LDA     D_M$DO#
         2 000042   005135 755100                    STA     2653,,PR0

      200    10354    2        IF DCBADDR(S_D.DUMPDCB)->F$DCB.ASN# = %DEVICE# THEN DO;

  10354  2 000043   000001 471400 3                  LDP1    1
         2 000044   100000 473500                    LDP3    0,,PR1
         2 000045   005135 720100                    LXL0    2653,,PR0
         2 000046   300000 474510                    LDP4    0,X0,PR3
         2 000047   400032 236100                    LDQ     26,,PR4
         2 000050   777000 376007                    ANQ     -512,DL
         2 000051   003000 116007                    CMPQ    1536,DL
         2 000052   000065 601000 2                  TNZ     s:10359

      201    10355    2             IF DCBADDR(S_D.DUMPDCB)->F$DCB.WIDTH# = 0 THEN

  10355  2 000053   400004 236100                    LDQ     4,,PR4
         2 000054   000777 316007                    CANQ    511,DL
         2 000055   000061 601000 2                  TNZ     s:10357

      202    10356    2                  S_D.OUT_WIDTH = 80;

  10356  2 000056   000120 235007                    LDA     80,DL
         2 000057   000014 755100                    STA     12,,PR0
         2 000060   000067 710000 2                  TRA     SKIP_DEST

      203    10357    2             ELSE S_D.OUT_WIDTH = DCBADDR(S_D.DUMPDCB)->F$DCB.WIDTH#;

  10357  2 000061   400004 236100                    LDQ     4,,PR4
         2 000062   000777 376007                    ANQ     511,DL
         2 000063   000014 756100                    STQ     12,,PR0

      204    10358    2           END;

  10358  2 000064   000067 710000 2                  TRA     SKIP_DEST

PL6.E3A0      #001=DDA$SHOW File=DDA$SHOW.:E05TSI                                TUE 07/29/97 13:35 Page:51
      205    10359    1        ELSE S_D.OUT_WIDTH = 132;

  10359  2 000065   000204 235007                    LDA     132,DL
         2 000066   000014 755100                    STA     12,,PR0

      206    10360    1   SKIP_DEST:
      207    10361    1        F_FROM = 1;

  10361  2 000067   000001 235007       SKIP_DEST    LDA     1,DL
         2 000070   200005 755100                    STA     F_FROM,,AUTO

      208    10362    1        F_TO = S_D.FIXLAST;

  10362  2 000071   000047 235100                    LDA     39,,PR0
         2 000072   200006 755100                    STA     F_TO,,AUTO

      209    10363    1        TYPE = S_D.DO$ -> S$HOW.TYPE;

  10363  2 000073   000031 471500                    LDP1    25,,PR0
         2 000074   100001 236100                    LDQ     1,,PR1
         2 000075   000033 772000                    QRL     27
         2 000076   200003 756100                    STQ     TYPE,,AUTO

      210    10364    1        IF TYPE = 280                    /* S@ALL */

  10364  2 000077   000430 116007                    CMPQ    280,DL
         2 000100   000124 601000 2                  TNZ     s:10372

      211    10365    2        THEN DO IX = 0 TO LENGTHW( TABLE ) -1;

  10365  2 000101   200022 450100                    STZ     IX,,AUTO
         2 000102   000120 710000 2                  TRA     s:10370+3

      212    10366    2             CALL DDB$BREAK ALTRET( SHOW_RETN );

  10366  2 000103   000002 631400 xsym               EPPR1   B_VECTNIL+2
         2 000104   000000 701000 xent               TSX1    DDB$BREAK
PL6.E3A0      #001=DDA$SHOW File=DDA$SHOW.:E05TSI                                TUE 07/29/97 13:35 Page:52
         2 000105   000164 702000 2                  TSX2    SHOW_RETN

      213    10367    2             TYPE = TABLE( IX );

  10367  2 000106   200022 720100                    LXL0    IX,,AUTO
         2 000107   000000 235010 0                  LDA     TABLE,X0
         2 000110   200003 755100                    STA     TYPE,,AUTO

      214    10368    2             CALL SHOW_TYPE;               /* Ignore altret */

  10368  2 000111   000203 701000 2                  TSX1    SHOW_TYPE
         2 000112   000000 011000                    NOP     0

      215    10369    2             S_D.ERROR = 0;

  10369  2 000113   000000 470400 xsym               LDP0    S_D$
         2 000114   000013 450100                    STZ     11,,PR0

      216    10370    2           END;

  10370  2 000115   200022 235100                    LDA     IX,,AUTO
         2 000116   000001 035007                    ADLA    1,DL
         2 000117   200022 755100                    STA     IX,,AUTO
         2 000120   200022 235100                    LDA     IX,,AUTO
         2 000121   000032 115007                    CMPA    26,DL
         2 000122   000103 602000 2                  TNC     s:10366
         2 000123   000141 710000 2                  TRA     s:10379

      217    10371    2        ELSE DO;

      218    10372    2             IF ( TYPE = 301 )      /* S@ALLSMALL */

  10372  2 000124   000455 116007                    CMPQ    301,DL
         2 000125   000137 601000 2                  TNZ     s:10377

      219    10373    2             THEN IF S_D.RUM

PL6.E3A0      #001=DDA$SHOW File=DDA$SHOW.:E05TSI                                TUE 07/29/97 13:35 Page:53
  10373  2 000126   004755 234100                    SZN     2541,,PR0
         2 000127   000133 605000 2                  TPL     s:10375

      220    10374    2                  THEN TYPE = 308;       /* S@RUM */

  10374  2 000130   000464 235007                    LDA     308,DL
         2 000131   200003 755100                    STA     TYPE,,AUTO
         2 000132   000137 710000 2                  TRA     s:10377

      221    10375    2                  ELSE IF S_D.ANLZ

  10375  2 000133   004756 234100                    SZN     2542,,PR0
         2 000134   000137 605000 2                  TPL     s:10377

      222    10376    2                       THEN TYPE = 310; /* S@ANLZ */

  10376  2 000135   000466 235007                    LDA     310,DL
         2 000136   200003 755100                    STA     TYPE,,AUTO

      223    10377    2             CALL SHOW_TYPE ALTRET( ARET );

  10377  2 000137   000203 701000 2                  TSX1    SHOW_TYPE
         2 000140   000177 702000 2                  TSX2    ARET

      224    10378    2           END;

      225    10379    1        IF NONE AND NOT S_D.SIM_UPDATE

  10379  2 000141   200021 234100                    SZN     NONE,,AUTO
         2 000142   000164 605000 2                  TPL     SHOW_RETN
         2 000143   000000 470400 xsym               LDP0    S_D$
         2 000144   006766 234100                    SZN     3574,,PR0
         2 000145   000164 604000 2                  TMI     SHOW_RETN

      226    10380    2        THEN DO;

      227    10381    2             S_D.OUTPUT = NONEMSG;
PL6.E3A0      #001=DDA$SHOW File=DDA$SHOW.:E05TSI                                TUE 07/29/97 13:35 Page:54

  10381  2 000146   040100 100400                    MLR     fill='040'O
         2 000147   000032 000004 0                  ADSC9   NONEMSG                  cn=0,n=4
         2 000150   005335 004000                    ADSC9   2781,,PR0                cn=0,n=2048

      228    10382    2             CALL DDQ$WRITED( ADDR( S_D.OUTPUT ), LENGTHC( NONEMSG ) );

  10382  2 000151   000000 236000 xsym               LDQ     S_D$
         2 000152   005335 036003                    ADLQ    2781,DU
         2 000153   200060 756100                    STQ     FPRG_CONTEXT_SAVE$+1,,AUTO
         2 000154   000002 236000 3                  LDQ     2
         2 000155   200063 756100                    STQ     FPRG_CONTEXT_SAVE$+4,,AUTO
         2 000156   200060 631500                    EPPR1   FPRG_CONTEXT_SAVE$+1,,AUTO
         2 000157   200062 451500                    STP1    FPRG_CONTEXT_SAVE$+3,,AUTO
         2 000160   200062 630500                    EPPR0   FPRG_CONTEXT_SAVE$+3,,AUTO
         2 000161   000020 631400 xsym               EPPR1   B_VECTNIL+16
         2 000162   000000 701000 xent               TSX1    DDQ$WRITED
         2 000163   000000 011000                    NOP     0

      229    10383    2           END;

  10379  2 000164                       SHOW_RETN    null
      230    10384                                                /**/
      231    10385    1   SHOW_RETN: ;
      232    10386    1   R:   S_D.OUT_WIDTH = SAVE_WIDTH;

  10386  2 000164   200026 235100       R            LDA     SAVE_WIDTH,,AUTO
         2 000165   000000 470400 xsym               LDP0    S_D$
         2 000166   000014 755100                    STA     12,,PR0

      233    10387    1        IF S_D.SIM_UPDATE THEN CALL DUA$CLOSEDUMP;

  10387  2 000167   006766 234100                    SZN     3574,,PR0
         2 000170   000174 605000 2                  TPL     s:10388

  10387  2 000171   000002 631400 xsym               EPPR1   B_VECTNIL+2
         2 000172   000000 701000 xent               TSX1    DUA$CLOSEDUMP
PL6.E3A0      #001=DDA$SHOW File=DDA$SHOW.:E05TSI                                TUE 07/29/97 13:35 Page:55
         2 000173   000000 011000                    NOP     0

      234    10388    1        S_D.SIM_UPDATE = '0'B;

  10388  2 000174   000000 470400 xsym               LDP0    S_D$
         2 000175   006766 450100                    STZ     3574,,PR0

      235    10389    1        RETURN;

  10389  2 000176   000000 702200 xent               TSX2  ! X66_ARET

  10388  2 000177                       ARET         null
      236    10390                                                /**/
      237    10391    1   ARET: ;
      238    10392    1        CALL DDE$ERROR;

  10392  2 000177   000002 631400 xsym               EPPR1   B_VECTNIL+2
         2 000200   000000 701000 xent               TSX1    DDE$ERROR
         2 000201   000000 011000                    NOP     0

      239    10393    1        GOTO R;

  10393  2 000202   000164 710000 2                  TRA     SHOW_RETN

      240    10394                                                /**/
      241    10395        %EJECT;
PL6.E3A0      #001=DDA$SHOW File=DDA$SHOW.:E05TSI                                TUE 07/29/97 13:35 Page:56
      242    10396                                                /**/
      243    10397    1   SHOW_TYPE: PROC ALTRET;

  10397  2 000203   200044 741300       SHOW_TYPE    STX1  ! UNODE+5,,AUTO

      244    10398                                                /**/
      245    10399    2   DCL STX UBIN;
      246    10400                                                /**/
      247    10401    2        IF ( S_D.RUM OR S_D.ANLZ )

  10401  2 000204   000000 470400 xsym               LDP0    S_D$
         2 000205   004755 234100                    SZN     2541,,PR0
         2 000206   000211 604000 2                  TMI     s:10401+5
         2 000207   004756 234100                    SZN     2542,,PR0
         2 000210   000264 605000 2                  TPL     s:10425
         2 000211   200003 235100                    LDA     TYPE,,AUTO
         2 000212   000432 115007                    CMPA    282,DL
         2 000213   000264 600000 2                  TZE     s:10425
         2 000214   000434 115007                    CMPA    284,DL
         2 000215   000264 600000 2                  TZE     s:10425
         2 000216   000442 115007                    CMPA    290,DL
         2 000217   000264 600000 2                  TZE     s:10425
         2 000220   000447 115007                    CMPA    295,DL
         2 000221   000264 600000 2                  TZE     s:10425
         2 000222   000453 115007                    CMPA    299,DL
         2 000223   000264 600000 2                  TZE     s:10425
         2 000224   000454 115007                    CMPA    300,DL
         2 000225   000264 600000 2                  TZE     s:10425
         2 000226   000456 115007                    CMPA    302,DL
         2 000227   000264 600000 2                  TZE     s:10425
         2 000230   000457 115007                    CMPA    303,DL
         2 000231   000264 600000 2                  TZE     s:10425
         2 000232   000460 115007                    CMPA    304,DL
         2 000233   000264 600000 2                  TZE     s:10425
         2 000234   000461 115007                    CMPA    305,DL
         2 000235   000264 600000 2                  TZE     s:10425
         2 000236   000464 115007                    CMPA    308,DL
PL6.E3A0      #001=DDA$SHOW File=DDA$SHOW.:E05TSI                                TUE 07/29/97 13:35 Page:57
         2 000237   000264 600000 2                  TZE     s:10425
         2 000240   000465 115007                    CMPA    309,DL
         2 000241   000264 600000 2                  TZE     s:10425
         2 000242   000466 115007                    CMPA    310,DL
         2 000243   000264 600000 2                  TZE     s:10425
         2 000244   000467 115007                    CMPA    311,DL
         2 000245   000264 600000 2                  TZE     s:10425
         2 000246   000472 115007                    CMPA    314,DL
         2 000247   000264 600000 2                  TZE     s:10425
         2 000250   000502 115007                    CMPA    322,DL
         2 000251   000264 600000 2                  TZE     s:10425
         2 000252   000471 115007                    CMPA    313,DL
         2 000253   000264 600000 2                  TZE     s:10425
         2 000254   000473 115007                    CMPA    315,DL
         2 000255   000264 600000 2                  TZE     s:10425
         2 000256   000435 115007                    CMPA    285,DL
         2 000257   000264 600000 2                  TZE     s:10425

      248    10402    2          AND NOT ( TYPE = 282 OR       /* S@DEFS */
      249    10403    2          TYPE = 284 OR               /* S@SCHEMA */
      250    10404    2          TYPE = 290 OR                  /* S@USE */
      251    10405    2          TYPE = 295 OR              /* S@ABBREVS */
      252    10406    2          TYPE = 299 OR                  /* S@DIC */
      253    10407    2          TYPE = 300 OR                /* S@RANGE */
      254    10408    2          TYPE = 302 OR                  /* S@EOM */
      255    10409    2          TYPE = 303 OR               /* S@FORMAT */
      256    10410    2          TYPE = 304 OR                 /* S@COPY */
      257    10411    2          TYPE = 305 OR                 /* S@ECHO */
      258    10412    2          TYPE = 308 OR                  /* S@RUM */
      259    10413    2          TYPE = 309 OR               /* S@ALTVAR */
      260    10414    2          TYPE = 310 OR                 /* S@ANLZ */
      261    10415    2          TYPE = 311 OR               /* S@SYNTAX */
      262    10416    2          TYPE = 314 OR              /* S@PROTECT */
      263    10417    2          TYPE = 322 OR               /* S@STATUS */
      264    10418    2          TYPE = 313 OR                  /* S@SAD */
      265    10419    2          TYPE = 315 OR                /* S@DEBUG */
      266    10420    2          TYPE = 285 )                /* S@REPORT */
PL6.E3A0      #001=DDA$SHOW File=DDA$SHOW.:E05TSI                                TUE 07/29/97 13:35 Page:58
      267    10421    3        THEN DO;

      268    10422    3             S_D.ERROR = 125;       /* E@NOTDELTA */

  10422  2 000260   000175 236007                    LDQ     125,DL
         2 000261   000013 756100                    STQ     11,,PR0

      269    10423    3             ALTRETURN;

  10423  2 000262   200044 221300                    LDX1  ! UNODE+5,,AUTO
         2 000263   000000 702211                    TSX2  ! 0,X1

      270    10424    3           END;
      271    10425    2        CALL DDB$BREAK ALTRET( SHOWTYPE_RETN );

  10425  2 000264   000002 631400 xsym               EPPR1   B_VECTNIL+2
         2 000265   000000 701000 xent               TSX1    DDB$BREAK
         2 000266   003772 702000 2                  TSX2    SHOWTYPE_RETN

      272    10426                                                /**/
      273    10427    3        DO CASE( TYPE );

  10427  2 000267   200003 235100                    LDA     TYPE,,AUTO
         2 000270   000431 135007                    SBLA    281,DL
         2 000271   000052 115007                    CMPA    42,DL
         2 000272   000274 602005 2                  TNC     s:10427+5,AL
         2 000273   003764 710000 2                  TRA     s:11217
         2 000274   000346 710000 2                  TRA     s:10429
         2 000275   000353 710000 2                  TRA     s:10432
         2 000276   000574 710000 2                  TRA     s:10465
         2 000277   000670 710000 2                  TRA     s:10491
         2 000300   001003 710000 2                  TRA     s:10522
         2 000301   001234 710000 2                  TRA     s:10571
         2 000302   001241 710000 2                  TRA     s:10574
         2 000303   001567 710000 2                  TRA     s:10684
         2 000304   001574 710000 2                  TRA     s:10687
         2 000305   003772 710000 2                  TRA     SHOWTYPE_RETN
PL6.E3A0      #001=DDA$SHOW File=DDA$SHOW.:E05TSI                                TUE 07/29/97 13:35 Page:59
         2 000306   001750 710000 2                  TRA     s:10725
         2 000307   001761 710000 2                  TRA     s:10730
         2 000310   001770 710000 2                  TRA     s:10734
         2 000311   001777 710000 2                  TRA     s:10738
         2 000312   003772 710000 2                  TRA     SHOWTYPE_RETN
         2 000313   002015 710000 2                  TRA     s:10746
         2 000314   002033 710000 2                  TRA     s:10751
         2 000315   003764 710000 2                  TRA     s:11217
         2 000316   002100 710000 2                  TRA     s:10776
         2 000317   002153 710000 2                  TRA     s:10809
         2 000320   002250 710000 2                  TRA     s:10831
         2 000321   002254 710000 2                  TRA     s:10834
         2 000322   002305 710000 2                  TRA     s:10854
         2 000323   002436 710000 2                  TRA     s:10884
         2 000324   002467 710000 2                  TRA     s:10904
         2 000325   002520 710000 2                  TRA     s:10924
         2 000326   002712 710000 2                  TRA     s:10962
         2 000327   003025 710000 2                  TRA     s:10986
         2 000330   003050 710000 2                  TRA     s:11001
         2 000331   003150 710000 2                  TRA     s:11027
         2 000332   003200 710000 2                  TRA     s:11048
         2 000333   003764 710000 2                  TRA     s:11217
         2 000334   003223 710000 2                  TRA     s:11054
         2 000335   003321 710000 2                  TRA     s:11086
         2 000336   003406 710000 2                  TRA     s:11124
         2 000337   003764 710000 2                  TRA     s:11217
         2 000340   003764 710000 2                  TRA     s:11217
         2 000341   003506 710000 2                  TRA     s:11148
         2 000342   003626 710000 2                  TRA     s:11180
         2 000343   003764 710000 2                  TRA     s:11217
         2 000344   003764 710000 2                  TRA     s:11217
         2 000345   003350 710000 2                  TRA     s:11103

      274    10428    3          CASE(281);                     /* SHOW ATS */

      275    10429    3             CMD = 2;                   /* CMD SET TO 'AT' */

PL6.E3A0      #001=DDA$SHOW File=DDA$SHOW.:E05TSI                                TUE 07/29/97 13:35 Page:60
  10429  2 000346   000002 236007                    LDQ     2,DL
         2 000347   200007 756100                    STQ     CMD,,AUTO

      276    10430    3             CALL SHOW_FIX;

  10430  2 000350   004570 701000 2                  TSX1    SHOW_FIX
         2 000351   000000 011000                    NOP     0
         2 000352   003772 710000 2                  TRA     SHOWTYPE_RETN

      277    10431    3          CASE(282);                    /* SHOW DEFS */

      278    10432    3             IF S_D.FPRG AND S_D.CURRENT_FPRG_CONTEXT$ -> FPRG$CONTEXT.INTERPRETIVE

  10432  2 000353   000000 470400 xsym               LDP0    S_D$
         2 000354   000101 234100                    SZN     65,,PR0
         2 000355   000372 605000 2                  TPL     s:10441
         2 000356   000102 471500                    LDP1    66,,PR0
         2 000357   100001 236100                    LDQ     1,,PR1
         2 000360   200000 316003                    CANQ    65536,DU
         2 000361   000372 600000 2                  TZE     s:10441

      279    10433    4             THEN DO;

      280    10434    4                  IF S_D.DO$ -> S$HOW.TYPE = 280 /* S@ALL */

  10434  2 000362   000031 473500                    LDP3    25,,PR0
         2 000363   300001 236100                    LDQ     1,,PR3
         2 000364   777000 376003                    ANQ     -512,DU
         2 000365   430000 116003                    CMPQ    -118784,DU
         2 000366   003772 600000 2                  TZE     SHOWTYPE_RETN

      281    10435    4                  THEN GOTO SHOWTYPE_RETN;
      282    10436    5                  ELSE DO;

      283    10437    5                       S_D.ERROR = 309; /* E@NOT_INTERPRETIVE */

  10437  2 000367   000465 235007                    LDA     309,DL
PL6.E3A0      #001=DDA$SHOW File=DDA$SHOW.:E05TSI                                TUE 07/29/97 13:35 Page:61
         2 000370   000013 755100                    STA     11,,PR0

      284    10438    5                       GOTO ARET;

  10438  2 000371   004021 710000 2                  TRA     ARET

      285    10439    5                     END;
      286    10440    4                END;
      287    10441    4             DO DEFI = 0 TO 24;

  10441  2 000372   200010 450100                    STZ     DEFI,,AUTO

      288    10442    4                  BB$ = BUF$;

  10442  2 000373   200023 236100                    LDQ     BUF$,,AUTO
         2 000374   200011 756100                    STQ     BB$,,AUTO

      289    10443    4                  REM = LENGTHC( S_D.OUTPUT );

  10443  2 000375   004000 235007                    LDA     2048,DL
         2 000376   200012 755100                    STA     REM,,AUTO

      290    10444    4                  IF S_D.UD.TEXTSZ(DEFI) ~= 0

  10444  2 000377   200010 236100                    LDQ     DEFI,,AUTO
         2 000400   000011 402007                    MPY     9,DL
         2 000401   000000 470400 xsym               LDP0    S_D$
         2 000402   000141 236106                    LDQ     97,QL,PR0
         2 000403   777000 316003                    CANQ    -512,DU
         2 000404   000567 600000 2                  TZE     s:10463

      291    10445    5                  THEN DO;

      292    10446    5                       NONE = '0'B;

  10446  2 000405   200021 450100                    STZ     NONE,,AUTO

PL6.E3A0      #001=DDA$SHOW File=DDA$SHOW.:E05TSI                                TUE 07/29/97 13:35 Page:62
      293    10447    5                       IF S_D.SIM_UPDATE THEN CALL DDR$MOVE ('DEF ',4,BB$,REM);

  10447  2 000406   006766 234100                    SZN     3574,,PR0
         2 000407   000422 605000 2                  TPL     s:10448

  10447  2 000410   200012 631500                    EPPR1   REM,,AUTO
         2 000411   200063 451500                    STP1    FPRG_CONTEXT_SAVE$+4,,AUTO
         2 000412   200011 633500                    EPPR3   BB$,,AUTO
         2 000413   200062 453500                    STP3    FPRG_CONTEXT_SAVE$+3,,AUTO
         2 000414   000004 237000 3                  LDAQ    4
         2 000415   200060 757100                    STAQ    FPRG_CONTEXT_SAVE$+1,,AUTO
         2 000416   200060 630500                    EPPR0   FPRG_CONTEXT_SAVE$+1,,AUTO
         2 000417   000022 631400 xsym               EPPR1   B_VECTNIL+18
         2 000420   000000 701000 xent               TSX1    DDR$MOVE
         2 000421   000000 011000                    NOP     0

      294    10448    5                       SZ = S_D.UD.TEXTSZ(DEFI);

  10448  2 000422   200010 236100                    LDQ     DEFI,,AUTO
         2 000423   000011 402007                    MPY     9,DL
         2 000424   000000 470400 xsym               LDP0    S_D$
         2 000425   000141 236106                    LDQ     97,QL,PR0
         2 000426   000033 772000                    QRL     27
         2 000427   200013 756100                    STQ     SZ,,AUTO

      295    10449    5                       CALL DDR$MOVE(S_D.UD.TEXT(DEFI),SZ,BB$,REM);

  10449  2 000430   200012 631500                    EPPR1   REM,,AUTO
         2 000431   200063 451500                    STP1    FPRG_CONTEXT_SAVE$+4,,AUTO
         2 000432   200011 633500                    EPPR3   BB$,,AUTO
         2 000433   200062 453500                    STP3    FPRG_CONTEXT_SAVE$+3,,AUTO
         2 000434   200013 634500                    EPPR4   SZ,,AUTO
         2 000435   200061 454500                    STP4    FPRG_CONTEXT_SAVE$+2,,AUTO
         2 000436   200010 236100                    LDQ     DEFI,,AUTO
         2 000437   000011 402003                    MPY     9,DU
         2 000440   000006 036000 3                  ADLQ    6
         2 000441   000000 036000 xsym               ADLQ    S_D$
PL6.E3A0      #001=DDA$SHOW File=DDA$SHOW.:E05TSI                                TUE 07/29/97 13:35 Page:63
         2 000442   200060 756100                    STQ     FPRG_CONTEXT_SAVE$+1,,AUTO
         2 000443   200060 630500                    EPPR0   FPRG_CONTEXT_SAVE$+1,,AUTO
         2 000444   000022 631400 xsym               EPPR1   B_VECTNIL+18
         2 000445   000000 701000 xent               TSX1    DDR$MOVE
         2 000446   000000 011000                    NOP     0

      296    10450    5                       CALL DDR$MOVE (' ',1,BB$,REM);

  10450  2 000447   200012 630500                    EPPR0   REM,,AUTO
         2 000450   200063 450500                    STP0    FPRG_CONTEXT_SAVE$+4,,AUTO
         2 000451   200011 631500                    EPPR1   BB$,,AUTO
         2 000452   200062 451500                    STP1    FPRG_CONTEXT_SAVE$+3,,AUTO
         2 000453   000010 237000 3                  LDAQ    8
         2 000454   200060 757100                    STAQ    FPRG_CONTEXT_SAVE$+1,,AUTO
         2 000455   200060 630500                    EPPR0   FPRG_CONTEXT_SAVE$+1,,AUTO
         2 000456   000022 631400 xsym               EPPR1   B_VECTNIL+18
         2 000457   000000 701000 xent               TSX1    DDR$MOVE
         2 000460   000000 011000                    NOP     0

      297    10451    5                       IF NOT S_D.SIM_UPDATE THEN CALL DDR$MOVE('= ',3,BB$,REM);

  10451  2 000461   000000 470400 xsym               LDP0    S_D$
         2 000462   006766 234100                    SZN     3574,,PR0
         2 000463   000476 604000 2                  TMI     s:10452

  10451  2 000464   200012 631500                    EPPR1   REM,,AUTO
         2 000465   200063 451500                    STP1    FPRG_CONTEXT_SAVE$+4,,AUTO
         2 000466   200011 633500                    EPPR3   BB$,,AUTO
         2 000467   200062 453500                    STP3    FPRG_CONTEXT_SAVE$+3,,AUTO
         2 000470   000012 237000 3                  LDAQ    10
         2 000471   200060 757100                    STAQ    FPRG_CONTEXT_SAVE$+1,,AUTO
         2 000472   200060 630500                    EPPR0   FPRG_CONTEXT_SAVE$+1,,AUTO
         2 000473   000022 631400 xsym               EPPR1   B_VECTNIL+18
         2 000474   000000 701000 xent               TSX1    DDR$MOVE
         2 000475   000000 011000                    NOP     0

      298    10452    5                       IF S_D.ONE_TO_TWO.EXEC_DOMAIN = %HOST
PL6.E3A0      #001=DDA$SHOW File=DDA$SHOW.:E05TSI                                TUE 07/29/97 13:35 Page:64

  10452  2 000476   000000 470400 xsym               LDP0    S_D$
         2 000477   006714 235100                    LDA     3532,,PR0
         2 000500   000001 115007                    CMPA    1,DL
         2 000501   000522 601000 2                  TNZ     s:10454

      299    10453    5                       THEN CALL DDR$BINTXT(BB$,S_D.UD.VALUE(DEFI),%OCT_FMT,NCARS);

  10453  2 000502   200014 631500                    EPPR1   NCARS,,AUTO
         2 000503   200063 451500                    STP1    FPRG_CONTEXT_SAVE$+4,,AUTO
         2 000504   000011 236000 3                  LDQ     9
         2 000505   200062 756100                    STQ     FPRG_CONTEXT_SAVE$+3,,AUTO
         2 000506   200010 236100                    LDQ     DEFI,,AUTO
         2 000507   000011 402003                    MPY     9,DU
         2 000510   000140 036003                    ADLQ    96,DU
         2 000511   000000 036000 xsym               ADLQ    S_D$
         2 000512   200061 756100                    STQ     FPRG_CONTEXT_SAVE$+2,,AUTO
         2 000513   200011 633500                    EPPR3   BB$,,AUTO
         2 000514   200060 453500                    STP3    FPRG_CONTEXT_SAVE$+1,,AUTO
         2 000515   200060 630500                    EPPR0   FPRG_CONTEXT_SAVE$+1,,AUTO
         2 000516   000022 631400 xsym               EPPR1   B_VECTNIL+18
         2 000517   000000 701000 xent               TSX1    DDR$BINTXT
         2 000520   000000 011000                    NOP     0
         2 000521   000547 710000 2                  TRA     s:10460

      300    10454    5                       ELSE IF S_D.ONE_TO_TWO.EXEC_DOMAIN = %L6

  10454  2 000522   000002 115007                    CMPA    2,DL
         2 000523   000544 601000 2                  TNZ     s:10457

      301    10455    5                            THEN CALL DDR$BINTXT(BB$,S_D.UD.VALUE(DEFI),%X_FMT,NCARS);

  10455  2 000524   200014 631500                    EPPR1   NCARS,,AUTO
         2 000525   200063 451500                    STP1    FPRG_CONTEXT_SAVE$+4,,AUTO
         2 000526   000014 236000 3                  LDQ     12
         2 000527   200062 756100                    STQ     FPRG_CONTEXT_SAVE$+3,,AUTO
         2 000530   200010 236100                    LDQ     DEFI,,AUTO
PL6.E3A0      #001=DDA$SHOW File=DDA$SHOW.:E05TSI                                TUE 07/29/97 13:35 Page:65
         2 000531   000011 402003                    MPY     9,DU
         2 000532   000140 036003                    ADLQ    96,DU
         2 000533   000000 036000 xsym               ADLQ    S_D$
         2 000534   200061 756100                    STQ     FPRG_CONTEXT_SAVE$+2,,AUTO
         2 000535   200011 633500                    EPPR3   BB$,,AUTO
         2 000536   200060 453500                    STP3    FPRG_CONTEXT_SAVE$+1,,AUTO
         2 000537   200060 630500                    EPPR0   FPRG_CONTEXT_SAVE$+1,,AUTO
         2 000540   000022 631400 xsym               EPPR1   B_VECTNIL+18
         2 000541   000000 701000 xent               TSX1    DDR$BINTXT
         2 000542   000000 011000                    NOP     0
         2 000543   000547 710000 2                  TRA     s:10460

      302    10456    6                            ELSE DO;

      303    10457    6                                 S_D.ERROR = 502; /* E@DELBUG */

  10457  2 000544   000766 236007                    LDQ     502,DL
         2 000545   000013 756100                    STQ     11,,PR0

      304    10458    6                                 GOTO ARET;

  10458  2 000546   004021 710000 2                  TRA     ARET

      305    10459    6                               END;
      306    10460    5                       SZ= POFFC(BB$,BUF$) + NCARS;

  10460  2 000547   200023 236100                    LDQ     BUF$,,AUTO
         2 000550   000020 772000                    QRL     16
         2 000551   200060 756100                    STQ     FPRG_CONTEXT_SAVE$+1,,AUTO
         2 000552   200011 236100                    LDQ     BB$,,AUTO
         2 000553   000020 772000                    QRL     16
         2 000554   200060 136100                    SBLQ    FPRG_CONTEXT_SAVE$+1,,AUTO
         2 000555   200014 036100                    ADLQ    NCARS,,AUTO
         2 000556   200013 756100                    STQ     SZ,,AUTO

      307    10461    5                       CALL DDQ$WRITED(BUF$,SZ);

PL6.E3A0      #001=DDA$SHOW File=DDA$SHOW.:E05TSI                                TUE 07/29/97 13:35 Page:66
  10461  2 000557   200013 630500                    EPPR0   SZ,,AUTO
         2 000560   200061 450500                    STP0    FPRG_CONTEXT_SAVE$+2,,AUTO
         2 000561   200023 631500                    EPPR1   BUF$,,AUTO
         2 000562   200060 451500                    STP1    FPRG_CONTEXT_SAVE$+1,,AUTO
         2 000563   200060 630500                    EPPR0   FPRG_CONTEXT_SAVE$+1,,AUTO
         2 000564   000020 631400 xsym               EPPR1   B_VECTNIL+16
         2 000565   000000 701000 xent               TSX1    DDQ$WRITED
         2 000566   000000 011000                    NOP     0

      308    10462    5                     END;

      309    10463    4                END;

  10463  2 000567   200010 054100                    AOS     DEFI,,AUTO
         2 000570   200010 235100                    LDA     DEFI,,AUTO
         2 000571   000030 115007                    CMPA    24,DL
         2 000572   000373 604400 2                  TMOZ    s:10442
         2 000573   003772 710000 2                  TRA     SHOWTYPE_RETN

      310    10464    3          CASE(283);                    /* SHOW STEP MODE */

      311    10465    3             IF S_D.SIM_UPDATE THEN RETURN;

  10465  2 000574   000000 470400 xsym               LDP0    S_D$
         2 000575   006766 234100                    SZN     3574,,PR0
         2 000576   000601 605000 2                  TPL     s:10466

  10465  2 000577   200044 221300                    LDX1  ! UNODE+5,,AUTO
         2 000600   000001 702211                    TSX2  ! 1,X1

      312    10466    3             IF S_D.ONE_TO_TWO.EXEC_DOMAIN = %HOST THEN

  10466  2 000601   006714 235100                    LDA     3532,,PR0
         2 000602   000001 115007                    CMPA    1,DL
         2 000603   000607 601000 2                  TNZ     s:10469

      313    10467    3                  STEP_MODE = S_D.S$TEP.MODE;
PL6.E3A0      #001=DDA$SHOW File=DDA$SHOW.:E05TSI                                TUE 07/29/97 13:35 Page:67

  10467  2 000604   005310 235100                    LDA     2760,,PR0
         2 000605   200004 755100                    STA     STEP_MODE,,AUTO
         2 000606   000613 710000 2                  TRA     s:10470

      314    10468    3             ELSE
      315    10469    3                  STEP_MODE = S_D.CURRENT_FPRG_CONTEXT$->FPRG$CONTEXT.STEP_MODE;

  10469  2 000607   000102 471500                    LDP1    66,,PR0
         2 000610   100033 236100                    LDQ     27,,PR1
         2 000611   777777 376007                    ANQ     -1,DL
         2 000612   200004 756100                    STQ     STEP_MODE,,AUTO

      316    10470    4             DO CASE (STEP_MODE);

  10470  2 000613   200004 235100                    LDA     STEP_MODE,,AUTO
         2 000614   001105 135007                    SBLA    581,DL
         2 000615   000004 115007                    CMPA    4,DL
         2 000616   000620 602005 2                  TNC     s:10470+5,AL
         2 000617   000654 710000 2                  TRA     s:10484
         2 000620   000646 710000 2                  TRA     s:10481
         2 000621   000640 710000 2                  TRA     s:10478
         2 000622   000632 710000 2                  TRA     s:10475
         2 000623   000624 710000 2                  TRA     s:10472

      317    10471    4               CASE(584);

      318    10472    4                  S_D.OUTPUT = 'STEPing by substatements';

  10472  2 000624   040100 100400                    MLR     fill='040'O
         2 000625   000366 000030 0                  ADSC9   COMPIDS+16               cn=0,n=24
         2 000626   005335 004000                    ADSC9   2781,,PR0                cn=0,n=2048

      319    10473    4                  SIZE = 24;

  10473  2 000627   000030 236007                    LDQ     24,DL
         2 000630   200017 756100                    STQ     SIZE,,AUTO
PL6.E3A0      #001=DDA$SHOW File=DDA$SHOW.:E05TSI                                TUE 07/29/97 13:35 Page:68
         2 000631   000667 710000 2                  TRA     s:10489

      320    10474    4               CASE(583);

      321    10475    4                  S_D.OUTPUT = 'STEPing by statements';

  10475  2 000632   040100 100400                    MLR     fill='040'O
         2 000633   000374 000025 0                  ADSC9   COMPIDS+22               cn=0,n=21
         2 000634   005335 004000                    ADSC9   2781,,PR0                cn=0,n=2048

      322    10476    4                  SIZE = 21;

  10476  2 000635   000025 236007                    LDQ     21,DL
         2 000636   200017 756100                    STQ     SIZE,,AUTO
         2 000637   000667 710000 2                  TRA     s:10489

      323    10477    4               CASE(582);

      324    10478    4                  S_D.OUTPUT = 'STEPing by paragraphs';

  10478  2 000640   040100 100400                    MLR     fill='040'O
         2 000641   000402 000025 0                  ADSC9   COMPIDS+28               cn=0,n=21
         2 000642   005335 004000                    ADSC9   2781,,PR0                cn=0,n=2048

      325    10479    4                  SIZE = 21;

  10479  2 000643   000025 236007                    LDQ     21,DL
         2 000644   200017 756100                    STQ     SIZE,,AUTO
         2 000645   000667 710000 2                  TRA     s:10489

      326    10480    4               CASE(581);

      327    10481    4                  S_D.OUTPUT = 'STEPing by instructions';

  10481  2 000646   040100 100400                    MLR     fill='040'O
         2 000647   000410 000027 0                  ADSC9   COMPIDS+34               cn=0,n=23
         2 000650   005335 004000                    ADSC9   2781,,PR0                cn=0,n=2048
PL6.E3A0      #001=DDA$SHOW File=DDA$SHOW.:E05TSI                                TUE 07/29/97 13:35 Page:69

      328    10482    4                  SIZE = 23;

  10482  2 000651   000027 236007                    LDQ     23,DL
         2 000652   200017 756100                    STQ     SIZE,,AUTO
         2 000653   000667 710000 2                  TRA     s:10489

      329    10483    4               CASE(ELSE);

      330    10484    4                  S_D.ERROR = 502;    /*E@DELBUG*/

  10484  2 000654   000766 236007                    LDQ     502,DL
         2 000655   000013 756100                    STQ     11,,PR0

      331    10485    4                  CALL DDE$ERROR;

  10485  2 000656   000002 631400 xsym               EPPR1   B_VECTNIL+2
         2 000657   000000 701000 xent               TSX1    DDE$ERROR
         2 000660   000000 011000                    NOP     0

      332    10486    4                  S_D.OUTPUT = 'STEP BY EH?';

  10486  2 000661   000000 470400 xsym               LDP0    S_D$
         2 000662   040100 100400                    MLR     fill='040'O
         2 000663   000416 000013 0                  ADSC9   COMPIDS+40               cn=0,n=11
         2 000664   005335 004000                    ADSC9   2781,,PR0                cn=0,n=2048

      333    10487    4                  SIZE = 11;

  10487  2 000665   000013 235007                    LDA     11,DL
         2 000666   200017 755100                    STA     SIZE,,AUTO

      334    10488    4               END;

      335    10489    3             GOTO WRITE_IT;

  10489  2 000667   003774 710000 2                  TRA     WRITE_IT
PL6.E3A0      #001=DDA$SHOW File=DDA$SHOW.:E05TSI                                TUE 07/29/97 13:35 Page:70

      336    10490    3          CASE ( 284);                /* SHOW SCHEMA */

      337    10491    3             S_D.OUTPUT = 'SCHEMA ';

  10491  2 000670   000000 470400 xsym               LDP0    S_D$
         2 000671   040100 100400                    MLR     fill='040'O
         2 000672   000421 000007 0                  ADSC9   COMPIDS+43               cn=0,n=7
         2 000673   005335 004000                    ADSC9   2781,,PR0                cn=0,n=2048

      338    10492    3             SIZE = LENGTHC( 'SCHEMA ' );

  10492  2 000674   000007 236007                    LDQ     7,DL
         2 000675   200017 756100                    STQ     SIZE,,AUTO

      339    10493    3             IF S_D.SCHEMA

  10493  2 000676   000052 234100                    SZN     42,,PR0
         2 000677   000762 605000 2                  TPL     s:10511

      340    10494    3             THEN IF ( S_D.SCH.OK ) AND ( D_SYMBOLS )

  10494  2 000700   000724 234100                    SZN     468,,PR0
         2 000701   000747 605000 2                  TPL     s:10506
         2 000702   000000 234000 xsym               SZN     D_SYMBOLS
         2 000703   000747 605000 2                  TPL     s:10506

      341    10495    4                  THEN DO;

      342    10496    5                       IF NOT S_D.SIM_UPDATE THEN DO;

  10496  2 000704   006766 234100                    SZN     3574,,PR0
         2 000705   000716 604000 2                  TMI     s:10500

      343    10497    5                            CALL INSERT( S_D.OUTPUT, SIZE, , 'at ' );

  10497  2 000706   773777 620006                    EAX0    -2049,QL
PL6.E3A0      #001=DDA$SHOW File=DDA$SHOW.:E05TSI                                TUE 07/29/97 13:35 Page:71
         2 000707   777777 660003                    ERX0    -1,DU
         2 000710   040146 100400                    MLR     fill='040'O
         2 000711   000423 000003 0                  ADSC9   COMPIDS+45               cn=0,n=3
         2 000712   005335 000010                    ADSC9   2781,Q,PR0               cn=0,n=*X0

      344    10498    5                            SIZE = SIZE + LENGTHC( 'at ' );

  10498  2 000713   200017 235100                    LDA     SIZE,,AUTO
         2 000714   000003 035007                    ADLA    3,DL
         2 000715   200017 755100                    STA     SIZE,,AUTO

      345    10499    5                          END;

      346    10500    4                       BB$ = PINCRC( ADDR( S_D.OUTPUT ), SIZE );

  10500  2 000716   200017 236100                    LDQ     SIZE,,AUTO
         2 000717   000020 736000                    QLS     16
         2 000720   005335 036003                    ADLQ    2781,DU
         2 000721   000000 036000 xsym               ADLQ    S_D$
         2 000722   200011 756100                    STQ     BB$,,AUTO

      347    10501    4                       REM = LENGTHC( S_D.OUTPUT ) - SIZE;

  10501  2 000723   004000 235007                    LDA     2048,DL
         2 000724   200017 135100                    SBLA    SIZE,,AUTO
         2 000725   200012 755100                    STA     REM,,AUTO

      348    10502    4                       CALL DDR$POSIT( S_D.SCH.IC, BB$, REM, NCARS );

  10502  2 000726   200014 631500                    EPPR1   NCARS,,AUTO
         2 000727   200063 451500                    STP1    FPRG_CONTEXT_SAVE$+4,,AUTO
         2 000730   200012 633500                    EPPR3   REM,,AUTO
         2 000731   200062 453500                    STP3    FPRG_CONTEXT_SAVE$+3,,AUTO
         2 000732   200011 634500                    EPPR4   BB$,,AUTO
         2 000733   200061 454500                    STP4    FPRG_CONTEXT_SAVE$+2,,AUTO
         2 000734   000000 236000 xsym               LDQ     S_D$
         2 000735   000730 036003                    ADLQ    472,DU
PL6.E3A0      #001=DDA$SHOW File=DDA$SHOW.:E05TSI                                TUE 07/29/97 13:35 Page:72
         2 000736   200060 756100                    STQ     FPRG_CONTEXT_SAVE$+1,,AUTO
         2 000737   200060 630500                    EPPR0   FPRG_CONTEXT_SAVE$+1,,AUTO
         2 000740   000022 631400 xsym               EPPR1   B_VECTNIL+18
         2 000741   000000 701000 xent               TSX1    DDR$POSIT
         2 000742   000000 011000                    NOP     0

      349    10503    4                       SIZE = SIZE + NCARS;

  10503  2 000743   200017 236100                    LDQ     SIZE,,AUTO
         2 000744   200014 036100                    ADLQ    NCARS,,AUTO
         2 000745   200017 756100                    STQ     SIZE,,AUTO

      350    10504    4                     END;

  10504  2 000746   001002 710000 2                  TRA     s:10520

      351    10505    4                  ELSE DO;

      352    10506    4                       IF S_D.SIM_UPDATE THEN GOTO KISCH;

  10506  2 000747   006766 234100                    SZN     3574,,PR0
         2 000750   000775 604000 2                  TMI     KISCH

      353    10507    4                       CALL INSERT( S_D.OUTPUT, SIZE, , 'not available' );

  10507  2 000751   773777 620006                    EAX0    -2049,QL
         2 000752   777777 660003                    ERX0    -1,DU
         2 000753   040146 100400                    MLR     fill='040'O
         2 000754   000424 000015 0                  ADSC9   COMPIDS+46               cn=0,n=13
         2 000755   005335 000010                    ADSC9   2781,Q,PR0               cn=0,n=*X0

      354    10508    4                       SIZE = SIZE + LENGTHC( 'not available' );

  10508  2 000756   200017 235100                    LDA     SIZE,,AUTO
         2 000757   000015 035007                    ADLA    13,DL
         2 000760   200017 755100                    STA     SIZE,,AUTO

PL6.E3A0      #001=DDA$SHOW File=DDA$SHOW.:E05TSI                                TUE 07/29/97 13:35 Page:73
      355    10509    4                     END;

  10509  2 000761   001002 710000 2                  TRA     s:10520

      356    10510    4             ELSE DO;

      357    10511    5                  IF NOT S_D.SIM_UPDATE THEN DO;

  10511  2 000762   006766 234100                    SZN     3574,,PR0
         2 000763   000775 604000 2                  TMI     KISCH

      358    10512    5                       CALL INSERT( S_D.OUTPUT, SIZE, , 'killed' );

  10512  2 000764   773777 620006                    EAX0    -2049,QL
         2 000765   777777 660003                    ERX0    -1,DU
         2 000766   040146 100400                    MLR     fill='040'O
         2 000767   000430 000006 0                  ADSC9   COMPIDS+50               cn=0,n=6
         2 000770   005335 000010                    ADSC9   2781,Q,PR0               cn=0,n=*X0

      359    10513    5                       SIZE = SIZE + LENGTHC( 'killed' );

  10513  2 000771   200017 235100                    LDA     SIZE,,AUTO
         2 000772   000006 035007                    ADLA    6,DL
         2 000773   200017 755100                    STA     SIZE,,AUTO

      360    10514    5                     END;

  10514  2 000774   001002 710000 2                  TRA     s:10520

      361    10515    5                  ELSE DO;

      362    10516    5   KISCH:              S_D.OUTPUT = 'Kill SCHEMA';

  10516  2 000775   040100 100400       KISCH        MLR     fill='040'O
         2 000776   000432 000013 0                  ADSC9   COMPIDS+52               cn=0,n=11
         2 000777   005335 004000                    ADSC9   2781,,PR0                cn=0,n=2048

PL6.E3A0      #001=DDA$SHOW File=DDA$SHOW.:E05TSI                                TUE 07/29/97 13:35 Page:74
      363    10517    5                       SIZE = 11;

  10517  2 001000   000013 235007                    LDA     11,DL
         2 001001   200017 755100                    STA     SIZE,,AUTO

      364    10518    5                     END;

      365    10519    4                END;

      366    10520    3             GOTO WRITE_IT;

  10520  2 001002   003774 710000 2                  TRA     WRITE_IT

      367    10521    3          CASE ( 285 );               /* SHOW REPORT */

      368    10522    3             NONE = '0'B;

  10522  2 001003   200021 450100                    STZ     NONE,,AUTO

      369    10523    4             IF NOT S_D.SIM_UPDATE THEN DO;

  10523  2 001004   000000 470400 xsym               LDP0    S_D$
         2 001005   006766 234100                    SZN     3574,,PR0
         2 001006   001024 604000 2                  TMI     s:10528

      370    10524    4                  S_D.OUTPUT = 'REPORT  OFFSET LINE TYPE';

  10524  2 001007   040100 100400                    MLR     fill='040'O
         2 001010   000435 000030 0                  ADSC9   COMPIDS+55               cn=0,n=24
         2 001011   005335 004000                    ADSC9   2781,,PR0                cn=0,n=2048

      371    10525    4                  SIZE = LENGTHC( 'Report  OFFSET LINE TYPE');

  10525  2 001012   000030 236007                    LDQ     24,DL
         2 001013   200017 756100                    STQ     SIZE,,AUTO

      372    10526    4                  CALL DDQ$WRITED( BUF$, SIZE );
PL6.E3A0      #001=DDA$SHOW File=DDA$SHOW.:E05TSI                                TUE 07/29/97 13:35 Page:75

  10526  2 001014   200017 631500                    EPPR1   SIZE,,AUTO
         2 001015   200061 451500                    STP1    FPRG_CONTEXT_SAVE$+2,,AUTO
         2 001016   200023 633500                    EPPR3   BUF$,,AUTO
         2 001017   200060 453500                    STP3    FPRG_CONTEXT_SAVE$+1,,AUTO
         2 001020   200060 630500                    EPPR0   FPRG_CONTEXT_SAVE$+1,,AUTO
         2 001021   000020 631400 xsym               EPPR1   B_VECTNIL+16
         2 001022   000000 701000 xent               TSX1    DDQ$WRITED
         2 001023   000000 011000                    NOP     0

      373    10527    4                END;

      374    10528    4             DO STX = 0 TO %(563-550);

  10528  2 001024   200045 450100                    STZ     STX,,AUTO

      375    10529    4                  CALL DDB$BREAK ALTRET( SHOWTYPE_RETN );

  10529  2 001025   000002 631400 xsym               EPPR1   B_VECTNIL+2
         2 001026   000000 701000 xent               TSX1    DDB$BREAK
         2 001027   003772 702000 2                  TSX2    SHOWTYPE_RETN

      376    10530    4                  BB$ = ADDR(S_D.OUTPUT);

  10530  2 001030   000000 236000 xsym               LDQ     S_D$
         2 001031   005335 036003                    ADLQ    2781,DU
         2 001032   200011 756100                    STQ     BB$,,AUTO

      377    10531    5                  IF S_D.SIM_UPDATE THEN DO;

  10531  2 001033   000000 470400 xsym               LDP0    S_D$
         2 001034   006766 234100                    SZN     3574,,PR0
         2 001035   001043 605000 2                  TPL     s:10535

      378    10532    5                       S_D.OUTPUT = 'REPORT ';

  10532  2 001036   040100 100400                    MLR     fill='040'O
PL6.E3A0      #001=DDA$SHOW File=DDA$SHOW.:E05TSI                                TUE 07/29/97 13:35 Page:76
         2 001037   000435 000007 0                  ADSC9   COMPIDS+55               cn=0,n=7
         2 001040   005335 004000                    ADSC9   2781,,PR0                cn=0,n=2048

      379    10533    5                       BB$ = PINCRC(BB$,7);

  10533  2 001041   000015 036000 3                  ADLQ    13
         2 001042   200011 756100                    STQ     BB$,,AUTO

      380    10534    5                     END;

      381    10535    4                  BB$->CHAR8 = COMPID( STX );

  10535  2 001043   200045 235100                    LDA     STX,,AUTO
         2 001044   000003 735000                    ALS     3
         2 001045   200011 471500                    LDP1    BB$,,AUTO
         2 001046   040100 100405                    MLR     fill='040'O
         2 001047   000312 000010 0                  ADSC9   COMPID,A                 cn=0,n=8
         2 001050   100000 000010                    ADSC9   0,,PR1                   cn=0,n=8

      382    10536    4                  IF S_D.SIM_UPDATE

  10536  2 001051   006766 234100                    SZN     3574,,PR0
         2 001052   001062 605000 2                  TPL     s:10538

      383    10537    4                  THEN BB$ = PINCRC( BB$, COMPIDS(STX)+1);

  10537  2 001053   200045 720100                    LXL0    STX,,AUTO
         2 001054   000346 236010 0                  LDQ     COMPIDS,X0
         2 001055   000020 736000                    QLS     16
         2 001056   200000 036007                    ADLQ    65536,DL
         2 001057   200011 036100                    ADLQ    BB$,,AUTO
         2 001060   200011 756100                    STQ     BB$,,AUTO
         2 001061   001065 710000 2                  TRA     s:10539

      384    10538    4                  ELSE BB$ = PINCRC( BB$, LENGTHC(COMPID(0)));

  10538  2 001062   200011 236100                    LDQ     BB$,,AUTO
PL6.E3A0      #001=DDA$SHOW File=DDA$SHOW.:E05TSI                                TUE 07/29/97 13:35 Page:77
         2 001063   000002 036003                    ADLQ    2,DU
         2 001064   200011 756100                    STQ     BB$,,AUTO

      385    10539    5                  IF NOT S_D.SIM_UPDATE THEN DO;

  10539  2 001065   006766 234100                    SZN     3574,,PR0
         2 001066   001145 604000 2                  TMI     s:10554

      386    10540    5                       IF S_D.REPORT_FLAGS.OFFSET( STX )

  10540  2 001067   200045 720100                    LXL0    STX,,AUTO
         2 001070   005214 234110                    SZN     2700,X0,PR0
         2 001071   001077 605000 2                  TPL     s:10542

      387    10541    5                       THEN BB$ -> CHAR7 = '  yes';

  10541  2 001072   200011 471500                    LDP1    BB$,,AUTO
         2 001073   040100 100400                    MLR     fill='040'O
         2 001074   000451 000005 0                  ADSC9   COMPIDS+67               cn=0,n=5
         2 001075   100000 000007                    ADSC9   0,,PR1                   cn=0,n=7
         2 001076   001103 710000 2                  TRA     s:10543

      388    10542    5                       ELSE BB$ -> CHAR7 = '  no';

  10542  2 001077   200011 471500                    LDP1    BB$,,AUTO
         2 001100   040100 100400                    MLR     fill='040'O
         2 001101   000453 000004 0                  ADSC9   COMPIDS+69               cn=0,n=4
         2 001102   100000 000007                    ADSC9   0,,PR1                   cn=0,n=7

      389    10543    5                       BB$ = PINCRC( BB$, LENGTHC( CHAR7 ) );

  10543  2 001103   200011 236100                    LDQ     BB$,,AUTO
         2 001104   000015 036000 3                  ADLQ    13
         2 001105   200011 756100                    STQ     BB$,,AUTO

      390    10544    5                       IF S_D.REPORT_FLAGS.LINE( STX )

PL6.E3A0      #001=DDA$SHOW File=DDA$SHOW.:E05TSI                                TUE 07/29/97 13:35 Page:78
  10544  2 001106   005214 236110                    LDQ     2700,X0,PR0
         2 001107   200000 316003                    CANQ    65536,DU
         2 001110   001116 600000 2                  TZE     s:10546

      391    10545    5                       THEN BB$ -> CHAR5 = ' yes';

  10545  2 001111   200011 471500                    LDP1    BB$,,AUTO
         2 001112   040100 100400                    MLR     fill='040'O
         2 001113   000454 000004 0                  ADSC9   COMPIDS+70               cn=0,n=4
         2 001114   100000 000005                    ADSC9   0,,PR1                   cn=0,n=5
         2 001115   001122 710000 2                  TRA     s:10547

      392    10546    5                       ELSE BB$ -> CHAR5 = ' no';

  10546  2 001116   200011 471500                    LDP1    BB$,,AUTO
         2 001117   040100 100400                    MLR     fill='040'O
         2 001120   000455 000003 0                  ADSC9   COMPIDS+71               cn=0,n=3
         2 001121   100000 000005                    ADSC9   0,,PR1                   cn=0,n=5

      393    10547    5                       BB$ = PINCRC( BB$, LENGTHC( CHAR5 ) );

  10547  2 001122   200011 236100                    LDQ     BB$,,AUTO
         2 001123   000016 036000 3                  ADLQ    14
         2 001124   200011 756100                    STQ     BB$,,AUTO

      394    10548    5                       IF S_D.REPORT_FLAGS.TYPE( STX )

  10548  2 001125   005214 236110                    LDQ     2700,X0,PR0
         2 001126   100000 316003                    CANQ    32768,DU
         2 001127   001135 600000 2                  TZE     s:10550

      395    10549    5                       THEN BB$ -> CHAR5 = ' yes';

  10549  2 001130   200011 471500                    LDP1    BB$,,AUTO
         2 001131   040100 100400                    MLR     fill='040'O
         2 001132   000454 000004 0                  ADSC9   COMPIDS+70               cn=0,n=4
         2 001133   100000 000005                    ADSC9   0,,PR1                   cn=0,n=5
PL6.E3A0      #001=DDA$SHOW File=DDA$SHOW.:E05TSI                                TUE 07/29/97 13:35 Page:79
         2 001134   001141 710000 2                  TRA     s:10551

      396    10550    5                       ELSE BB$ -> CHAR5 = ' no';

  10550  2 001135   200011 471500                    LDP1    BB$,,AUTO
         2 001136   040100 100400                    MLR     fill='040'O
         2 001137   000455 000003 0                  ADSC9   COMPIDS+71               cn=0,n=3
         2 001140   100000 000005                    ADSC9   0,,PR1                   cn=0,n=5

      397    10551    5                       BB$ = PINCRC( BB$, LENGTHC( CHAR5 ) );

  10551  2 001141   200011 236100                    LDQ     BB$,,AUTO
         2 001142   000016 036000 3                  ADLQ    14
         2 001143   200011 756100                    STQ     BB$,,AUTO

      398    10552    5                     END;

  10552  2 001144   001206 710000 2                  TRA     s:10568

      399    10553    5                  ELSE DO;

      400    10554    6                       IF S_D.REPORT_FLAGS.OFFSET(STX) THEN DO;

  10554  2 001145   200045 720100                    LXL0    STX,,AUTO
         2 001146   005214 234110                    SZN     2700,X0,PR0
         2 001147   001157 605000 2                  TPL     s:10558

      401    10555    6                            BB$->CHAR8='OFFSET, ';

  10555  2 001150   200011 471500                    LDP1    BB$,,AUTO
         2 001151   040100 100400                    MLR     fill='040'O
         2 001152   000456 000010 0                  ADSC9   COMPIDS+72               cn=0,n=8
         2 001153   100000 000010                    ADSC9   0,,PR1                   cn=0,n=8

      402    10556    6                            BB$ = PINCRC(BB$,8);

  10556  2 001154   200011 236100                    LDQ     BB$,,AUTO
PL6.E3A0      #001=DDA$SHOW File=DDA$SHOW.:E05TSI                                TUE 07/29/97 13:35 Page:80
         2 001155   000002 036003                    ADLQ    2,DU
         2 001156   200011 756100                    STQ     BB$,,AUTO

      403    10557    6                          END;

      404    10558    6                       IF S_D.REPORT_FLAGS.LINE(STX) THEN DO;

  10558  2 001157   005214 236110                    LDQ     2700,X0,PR0
         2 001160   200000 316003                    CANQ    65536,DU
         2 001161   001171 600000 2                  TZE     s:10562

      405    10559    6                            BB$->CHAR6 = 'LINE, ';

  10559  2 001162   200011 471500                    LDP1    BB$,,AUTO
         2 001163   040100 100400                    MLR     fill='040'O
         2 001164   000460 000006 0                  ADSC9   COMPIDS+74               cn=0,n=6
         2 001165   100000 000006                    ADSC9   0,,PR1                   cn=0,n=6

      406    10560    6                            BB$ = PINCRC(BB$,6);

  10560  2 001166   200011 236100                    LDQ     BB$,,AUTO
         2 001167   000017 036000 3                  ADLQ    15
         2 001170   200011 756100                    STQ     BB$,,AUTO

      407    10561    6                          END;

      408    10562    6                       IF S_D.REPORT_FLAGS.TYPE(STX) THEN DO;

  10562  2 001171   005214 236110                    LDQ     2700,X0,PR0
         2 001172   100000 316003                    CANQ    32768,DU
         2 001173   001203 600000 2                  TZE     s:10566

      409    10563    6                            BB$->CHAR6='TYPE, ';

  10563  2 001174   200011 471500                    LDP1    BB$,,AUTO
         2 001175   040100 100400                    MLR     fill='040'O
         2 001176   000462 000006 0                  ADSC9   COMPIDS+76               cn=0,n=6
PL6.E3A0      #001=DDA$SHOW File=DDA$SHOW.:E05TSI                                TUE 07/29/97 13:35 Page:81
         2 001177   100000 000006                    ADSC9   0,,PR1                   cn=0,n=6

      410    10564    6                            BB$=PINCRC(BB$,6);

  10564  2 001200   200011 236100                    LDQ     BB$,,AUTO
         2 001201   000017 036000 3                  ADLQ    15
         2 001202   200011 756100                    STQ     BB$,,AUTO

      411    10565    6                          END;

      412    10566    5                       BB$ = PINCRC(BB$,-2); /* Back up over last comma */

  10566  2 001203   200011 236100                    LDQ     BB$,,AUTO
         2 001204   000020 036000 3                  ADLQ    16
         2 001205   200011 756100                    STQ     BB$,,AUTO

      413    10567    5                     END;

      414    10568    4                  CALL DDQ$WRITED( BUF$, POFFC(BB$,ADDR(S_D.OUTPUT)) );

  10568  2 001206   000000 236000 xsym               LDQ     S_D$
         2 001207   005335 036003                    ADLQ    2781,DU
         2 001210   000020 772000                    QRL     16
         2 001211   200060 756100                    STQ     FPRG_CONTEXT_SAVE$+1,,AUTO
         2 001212   200011 236100                    LDQ     BB$,,AUTO
         2 001213   000020 772000                    QRL     16
         2 001214   200060 136100                    SBLQ    FPRG_CONTEXT_SAVE$+1,,AUTO
         2 001215   200061 756100                    STQ     FPRG_CONTEXT_SAVE$+2,,AUTO
         2 001216   200061 631500                    EPPR1   FPRG_CONTEXT_SAVE$+2,,AUTO
         2 001217   200063 451500                    STP1    FPRG_CONTEXT_SAVE$+4,,AUTO
         2 001220   200023 633500                    EPPR3   BUF$,,AUTO
         2 001221   200062 453500                    STP3    FPRG_CONTEXT_SAVE$+3,,AUTO
         2 001222   200062 630500                    EPPR0   FPRG_CONTEXT_SAVE$+3,,AUTO
         2 001223   000020 631400 xsym               EPPR1   B_VECTNIL+16
         2 001224   000000 701000 xent               TSX1    DDQ$WRITED
         2 001225   000000 011000                    NOP     0

PL6.E3A0      #001=DDA$SHOW File=DDA$SHOW.:E05TSI                                TUE 07/29/97 13:35 Page:82
      415    10569    4                END;

  10569  2 001226   200045 235100                    LDA     STX,,AUTO
         2 001227   000001 035007                    ADLA    1,DL
         2 001230   200045 755100                    STA     STX,,AUTO
         2 001231   000016 115007                    CMPA    14,DL
         2 001232   001025 602000 2                  TNC     s:10529
         2 001233   003772 710000 2                  TRA     SHOWTYPE_RETN

      416    10570    3          CASE ( 286 );                /* SHOW SAVES */

      417    10571    3             CMD = 45;                 /* CMD SET TO 'SAVE' */

  10571  2 001234   000055 236007                    LDQ     45,DL
         2 001235   200007 756100                    STQ     CMD,,AUTO

      418    10572    3             CALL SHOW_FIX;

  10572  2 001236   004570 701000 2                  TSX1    SHOW_FIX
         2 001237   000000 011000                    NOP     0
         2 001240   003772 710000 2                  TRA     SHOWTYPE_RETN

      419    10573    3          CASE( 287 );                 /* SHOW TRACE */

      420    10574    3             IF S_D.ONE_TO_TWO.EXEC_DOMAIN = %HOST

  10574  2 001241   000000 470400 xsym               LDP0    S_D$
         2 001242   006714 235100                    LDA     3532,,PR0
         2 001243   000001 115007                    CMPA    1,DL
         2 001244   001424 601000 2                  TNZ     s:10633

      421    10575    4             THEN DO;

      422    10576    4                  IF S_D.TR$INFO.SET = '0'B OR S_D.ONCALLS ~= 0

  10576  2 001245   004627 234100                    SZN     2455,,PR0
         2 001246   001251 605000 2                  TPL     s:10578
PL6.E3A0      #001=DDA$SHOW File=DDA$SHOW.:E05TSI                                TUE 07/29/97 13:35 Page:83
         2 001247   004745 235100                    LDA     2533,,PR0
         2 001250   001267 600000 2                  TZE     s:10588

      423    10577    5                  THEN DO;

      424    10578    6                       IF NOT S_D.SIM_UPDATE THEN DO;

  10578  2 001251   006766 234100                    SZN     3574,,PR0
         2 001252   001261 604000 2                  TMI     s:10583

      425    10579    6                            S_D.OUTPUT = 'TRACE killed';

  10579  2 001253   040100 100400                    MLR     fill='040'O
         2 001254   000464 000014 0                  ADSC9   COMPIDS+78               cn=0,n=12
         2 001255   005335 004000                    ADSC9   2781,,PR0                cn=0,n=2048

      426    10580    6                            SIZE = 12;

  10580  2 001256   000014 235007                    LDA     12,DL
         2 001257   200017 755100                    STA     SIZE,,AUTO

      427    10581    6                          END;

  10581  2 001260   001566 710000 2                  TRA     s:10682

      428    10582    6                       ELSE DO;

      429    10583    6                            S_D.OUTPUT = 'Kill TRACE';

  10583  2 001261   040100 100400                    MLR     fill='040'O
         2 001262   000467 000012 0                  ADSC9   COMPIDS+81               cn=0,n=10
         2 001263   005335 004000                    ADSC9   2781,,PR0                cn=0,n=2048

      430    10584    6                            SIZE = 10;

  10584  2 001264   000012 235007                    LDA     10,DL
         2 001265   200017 755100                    STA     SIZE,,AUTO
PL6.E3A0      #001=DDA$SHOW File=DDA$SHOW.:E05TSI                                TUE 07/29/97 13:35 Page:84

      431    10585    6                          END;

      432    10586    5                     END;

  10586  2 001266   001566 710000 2                  TRA     s:10682

      433    10587    5                  ELSE DO;

      434    10588    5                       IF S_D.TR$INFO.TYPE = 47 /*C_TT*/

  10588  2 001267   004634 235100                    LDA     2460,,PR0
         2 001270   000057 115007                    CMPA    47,DL
         2 001271   001301 601000 2                  TNZ     s:10593

      435    10589    6                       THEN DO;

      436    10590    6                            S_D.OUTPUT = 'TRACE transfer';

  10590  2 001272   040100 100400                    MLR     fill='040'O
         2 001273   000472 000016 0                  ADSC9   COMPIDS+84               cn=0,n=14
         2 001274   005335 004000                    ADSC9   2781,,PR0                cn=0,n=2048

      437    10591    6                            BB$ = PINCRC(ADDR(S_D.OUTPUT),15);

  10591  2 001275   000000 236000 xsym               LDQ     S_D$
         2 001276   000021 036000 3                  ADLQ    17
         2 001277   200011 756100                    STQ     BB$,,AUTO

      438    10592    6                          END;

  10592  2 001300   001342 710000 2                  TRA     s:10612

      439    10593    5                       ELSE IF S_D.TR$INFO.TYPE = 583

  10593  2 001301   001107 115007                    CMPA    583,DL
         2 001302   001312 601000 2                  TNZ     s:10598
PL6.E3A0      #001=DDA$SHOW File=DDA$SHOW.:E05TSI                                TUE 07/29/97 13:35 Page:85

      440    10594    6                            THEN DO;

      441    10595    6                                 S_D.OUTPUT = 'TRACE statements';

  10595  2 001303   040100 100400                    MLR     fill='040'O
         2 001304   000476 000020 0                  ADSC9   COMPIDS+88               cn=0,n=16
         2 001305   005335 004000                    ADSC9   2781,,PR0                cn=0,n=2048

      442    10596    6                                 BB$ = PINCRC(ADDR(S_D.OUTPUT), 17);

  10596  2 001306   000000 236000 xsym               LDQ     S_D$
         2 001307   000022 036000 3                  ADLQ    18
         2 001310   200011 756100                    STQ     BB$,,AUTO

      443    10597    6                               END;

  10597  2 001311   001342 710000 2                  TRA     s:10612

      444    10598    5                            ELSE IF S_D.TR$INFO.TYPE = 582

  10598  2 001312   001106 115007                    CMPA    582,DL
         2 001313   001323 601000 2                  TNZ     s:10604

      445    10599    6                                 THEN DO;

      446    10600    6                                      S_D.OUTPUT = 'TRACE paragraphs';

  10600  2 001314   040100 100400                    MLR     fill='040'O
         2 001315   000502 000020 0                  ADSC9   COMPIDS+92               cn=0,n=16
         2 001316   005335 004000                    ADSC9   2781,,PR0                cn=0,n=2048

      447    10601    6                                      BB$ = PINCRC(ADDR(S_D.OUTPUT), 17);

  10601  2 001317   000000 236000 xsym               LDQ     S_D$
         2 001320   000022 036000 3                  ADLQ    18
         2 001321   200011 756100                    STQ     BB$,,AUTO
PL6.E3A0      #001=DDA$SHOW File=DDA$SHOW.:E05TSI                                TUE 07/29/97 13:35 Page:86

      448    10602    6                                    END;

  10602  2 001322   001342 710000 2                  TRA     s:10612

      449    10603    5                                 ELSE
      450    10604    6                                      IF S_D.TR$INFO.X THEN DO;

  10604  2 001323   004632 234100                    SZN     2458,,PR0
         2 001324   001334 605000 2                  TPL     s:10609

      451    10605    6                                           S_D.OUTPUT = 'TRACE x calls';

  10605  2 001325   040100 100400                    MLR     fill='040'O
         2 001326   000506 000015 0                  ADSC9   COMPIDS+96               cn=0,n=13
         2 001327   005335 004000                    ADSC9   2781,,PR0                cn=0,n=2048

      452    10606    6                                           BB$ = PINCRC(ADDR(S_D.OUTPUT), 14);

  10606  2 001330   000000 236000 xsym               LDQ     S_D$
         2 001331   000023 036000 3                  ADLQ    19
         2 001332   200011 756100                    STQ     BB$,,AUTO

      453    10607    6                                         END;

  10607  2 001333   001342 710000 2                  TRA     s:10612

      454    10608    6                                      ELSE DO;

      455    10609    6                                           S_D.OUTPUT = 'TRACE calls';

  10609  2 001334   040100 100400                    MLR     fill='040'O
         2 001335   000512 000013 0                  ADSC9   COMPIDS+100              cn=0,n=11
         2 001336   005335 004000                    ADSC9   2781,,PR0                cn=0,n=2048

      456    10610    6                                           BB$ = PINCRC(ADDR(S_D.OUTPUT),12);

PL6.E3A0      #001=DDA$SHOW File=DDA$SHOW.:E05TSI                                TUE 07/29/97 13:35 Page:87
  10610  2 001337   000000 236000 xsym               LDQ     S_D$
         2 001340   005340 036003                    ADLQ    2784,DU
         2 001341   200011 756100                    STQ     BB$,,AUTO

      457    10611    6                                         END;

      458    10612    6                       IF S_D.TR$INFO.P THEN DO;

  10612  2 001342   004633 234100                    SZN     2459,,PR0
         2 001343   001355 605000 2                  TPL     s:10616

      459    10613    6                            BB$->CHAR32 = S_D.TR$INFO.PTXT;

  10613  2 001344   200011 471500                    LDP1    BB$,,AUTO
         2 001345   040100 100500                    MLR     fill='040'O
         2 001346   004636 000030                    ADSC9   2462,,PR0                cn=0,n=24
         2 001347   100000 000040                    ADSC9   0,,PR1                   cn=0,n=32

      460    10614    6                            BB$ = PINCRC(BB$,S_D.TR$INFO.PSIZ+1);

  10614  2 001350   004635 236100                    LDQ     2461,,PR0
         2 001351   000020 736000                    QLS     16
         2 001352   200000 036007                    ADLQ    65536,DL
         2 001353   200011 036100                    ADLQ    BB$,,AUTO
         2 001354   200011 756100                    STQ     BB$,,AUTO

      461    10615    6                          END;

      462    10616    6                       IF S_D.TR$INFO.SILENT AND NOT S_D.SIM_UPDATE THEN DO;

  10616  2 001355   004631 234100                    SZN     2457,,PR0
         2 001356   001370 605000 2                  TPL     s:10620
         2 001357   006766 234100                    SZN     3574,,PR0
         2 001360   001370 604000 2                  TMI     s:10620

      463    10617    6                            BB$->CHAR32 = '(silent)';

PL6.E3A0      #001=DDA$SHOW File=DDA$SHOW.:E05TSI                                TUE 07/29/97 13:35 Page:88
  10617  2 001361   200011 471500                    LDP1    BB$,,AUTO
         2 001362   040100 100400                    MLR     fill='040'O
         2 001363   000515 000010 0                  ADSC9   COMPIDS+103              cn=0,n=8
         2 001364   100000 000040                    ADSC9   0,,PR1                   cn=0,n=32

      464    10618    6                            BB$ = PINCRC(BB$,8);

  10618  2 001365   200011 236100                    LDQ     BB$,,AUTO
         2 001366   000002 036003                    ADLQ    2,DU
         2 001367   200011 756100                    STQ     BB$,,AUTO

      465    10619    6                          END;

      466    10620    6                       IF S_D.T$T.ACTIVE OR S_D.TR$INFO.ACTIVE THEN DO;

  10620  2 001370   004707 234100                    SZN     2503,,PR0
         2 001371   001374 604000 2                  TMI     s:10621
         2 001372   004630 234100                    SZN     2456,,PR0
         2 001373   001404 605000 2                  TPL     s:10625

      467    10621    6                            BB$->CHAR32 = '; TRACE on';

  10621  2 001374   200011 471500                    LDP1    BB$,,AUTO
         2 001375   040100 100400                    MLR     fill='040'O
         2 001376   000517 000012 0                  ADSC9   COMPIDS+105              cn=0,n=10
         2 001377   100000 000040                    ADSC9   0,,PR1                   cn=0,n=32

      468    10622    6                            BB$ = PINCRC(BB$, 10);

  10622  2 001400   200011 236100                    LDQ     BB$,,AUTO
         2 001401   000024 036000 3                  ADLQ    20
         2 001402   200011 756100                    STQ     BB$,,AUTO

      469    10623    6                          END;

  10623  2 001403   001413 710000 2                  TRA     s:10628

PL6.E3A0      #001=DDA$SHOW File=DDA$SHOW.:E05TSI                                TUE 07/29/97 13:35 Page:89
      470    10624    6                       ELSE DO;

      471    10625    6                            BB$->CHAR32 = '; TRACE off';

  10625  2 001404   200011 471500                    LDP1    BB$,,AUTO
         2 001405   040100 100400                    MLR     fill='040'O
         2 001406   000522 000013 0                  ADSC9   COMPIDS+108              cn=0,n=11
         2 001407   100000 000040                    ADSC9   0,,PR1                   cn=0,n=32

      472    10626    6                            BB$ = PINCRC(BB$, 11);

  10626  2 001410   200011 236100                    LDQ     BB$,,AUTO
         2 001411   000025 036000 3                  ADLQ    21
         2 001412   200011 756100                    STQ     BB$,,AUTO

      473    10627    6                          END;

      474    10628    5                       SIZE = POFFC(BB$, ADDR(S_D.OUTPUT));

  10628  2 001413   000000 236000 xsym               LDQ     S_D$
         2 001414   005335 036003                    ADLQ    2781,DU
         2 001415   000020 772000                    QRL     16
         2 001416   200060 756100                    STQ     FPRG_CONTEXT_SAVE$+1,,AUTO
         2 001417   200011 236100                    LDQ     BB$,,AUTO
         2 001420   000020 772000                    QRL     16
         2 001421   200060 136100                    SBLQ    FPRG_CONTEXT_SAVE$+1,,AUTO
         2 001422   200017 756100                    STQ     SIZE,,AUTO

      475    10629    5                       GOTO WRITE_IT;

  10629  2 001423   003774 710000 2                  TRA     WRITE_IT

      476    10630    5                     END;
      477    10631    4                END;
      478    10632    4             ELSE DO;

      479    10633    4                  IF S_D.CURRENT_FPRG_CONTEXT$ -> FPRG$CONTEXT.TR$INFO.SET = '0'B OR
PL6.E3A0      #001=DDA$SHOW File=DDA$SHOW.:E05TSI                                TUE 07/29/97 13:35 Page:90
             10633                           S_D.CURRENT_FPRG_CONTEXT$ -> FPRG$CONTEXT.ONCALLS ~= 0

  10633  2 001424   000102 471500                    LDP1    66,,PR0
         2 001425   100062 236100                    LDQ     50,,PR1
         2 001426   400000 316007                    CANQ    -131072,DL
         2 001427   001432 600000 2                  TZE     s:10635
         2 001430   001776 316003                    CANQ    1022,DU
         2 001431   001450 600000 2                  TZE     s:10645

      480    10634    5                  THEN DO;

      481    10635    6                       IF NOT S_D.SIM_UPDATE THEN DO;

  10635  2 001432   006766 234100                    SZN     3574,,PR0
         2 001433   001442 604000 2                  TMI     s:10640

      482    10636    6                            S_D.OUTPUT = 'TRACE killed';

  10636  2 001434   040100 100400                    MLR     fill='040'O
         2 001435   000464 000014 0                  ADSC9   COMPIDS+78               cn=0,n=12
         2 001436   005335 004000                    ADSC9   2781,,PR0                cn=0,n=2048

      483    10637    6                            SIZE = 12;

  10637  2 001437   000014 236007                    LDQ     12,DL
         2 001440   200017 756100                    STQ     SIZE,,AUTO

      484    10638    6                          END;

  10638  2 001441   001566 710000 2                  TRA     s:10682

      485    10639    6                       ELSE DO;

      486    10640    6                            S_D.OUTPUT = 'Kill TRACE';

  10640  2 001442   040100 100400                    MLR     fill='040'O
         2 001443   000467 000012 0                  ADSC9   COMPIDS+81               cn=0,n=10
PL6.E3A0      #001=DDA$SHOW File=DDA$SHOW.:E05TSI                                TUE 07/29/97 13:35 Page:91
         2 001444   005335 004000                    ADSC9   2781,,PR0                cn=0,n=2048

      487    10641    6                            SIZE = 10;

  10641  2 001445   000012 236007                    LDQ     10,DL
         2 001446   200017 756100                    STQ     SIZE,,AUTO

      488    10642    6                          END;

      489    10643    5                     END;

  10643  2 001447   001566 710000 2                  TRA     s:10682

      490    10644    5                  ELSE DO;

      491    10645    5                       IF S_D.CURRENT_FPRG_CONTEXT$ -> FPRG$CONTEXT.TR$INFO.TRANSFERS

  10645  2 001450   200000 316007                    CANQ    65536,DL
         2 001451   001461 600000 2                  TZE     s:10651

      492    10646    6                       THEN DO;

      493    10647    6                            S_D.OUTPUT = 'TRACE transfer';

  10647  2 001452   040100 100400                    MLR     fill='040'O
         2 001453   000472 000016 0                  ADSC9   COMPIDS+84               cn=0,n=14
         2 001454   005335 004000                    ADSC9   2781,,PR0                cn=0,n=2048

      494    10648    6                            BB$ = PINCRC(ADDR(S_D.OUTPUT),15);

  10648  2 001455   000000 236000 xsym               LDQ     S_D$
         2 001456   000021 036000 3                  ADLQ    17
         2 001457   200011 756100                    STQ     BB$,,AUTO

      495    10649    6                          END;

  10649  2 001460   001500 710000 2                  TRA     s:10661
PL6.E3A0      #001=DDA$SHOW File=DDA$SHOW.:E05TSI                                TUE 07/29/97 13:35 Page:92

      496    10650    6                       ELSE DO;

      497    10651    6                           IF S_D.CURRENT_FPRG_CONTEXT$ -> FPRG$CONTEXT.TR$INFO.XCALLS

  10651  2 001461   040000 316007                    CANQ    16384,DL
         2 001462   001472 600000 2                  TZE     s:10657

      498    10652    7                            THEN DO;

      499    10653    7                                 S_D.OUTPUT = 'TRACE x calls';

  10653  2 001463   040100 100400                    MLR     fill='040'O
         2 001464   000506 000015 0                  ADSC9   COMPIDS+96               cn=0,n=13
         2 001465   005335 004000                    ADSC9   2781,,PR0                cn=0,n=2048

      500    10654    7                                 BB$ = PINCRC(ADDR(S_D.OUTPUT), 14);

  10654  2 001466   000000 236000 xsym               LDQ     S_D$
         2 001467   000023 036000 3                  ADLQ    19
         2 001470   200011 756100                    STQ     BB$,,AUTO

      501    10655    7                               END;

  10655  2 001471   001500 710000 2                  TRA     s:10661

      502    10656    7                            ELSE DO;

      503    10657    7                                 S_D.OUTPUT = 'TRACE calls';

  10657  2 001472   040100 100400                    MLR     fill='040'O
         2 001473   000512 000013 0                  ADSC9   COMPIDS+100              cn=0,n=11
         2 001474   005335 004000                    ADSC9   2781,,PR0                cn=0,n=2048

      504    10658    7                                 BB$ = PINCRC(ADDR(S_D.OUTPUT),12);

  10658  2 001475   000000 236000 xsym               LDQ     S_D$
PL6.E3A0      #001=DDA$SHOW File=DDA$SHOW.:E05TSI                                TUE 07/29/97 13:35 Page:93
         2 001476   005340 036003                    ADLQ    2784,DU
         2 001477   200011 756100                    STQ     BB$,,AUTO

      505    10659    7                               END;

      506    10660    6                          END;

      507    10661    6                       IF S_D.CURRENT_FPRG_CONTEXT$ -> FPRG$CONTEXT.TR$INFO.P THEN DO;

  10661  2 001500   100062 236100                    LDQ     50,,PR1
         2 001501   010000 316007                    CANQ    4096,DL
         2 001502   001516 600000 2                  TZE     s:10665

      508    10662    6                            BB$->CHAR32 = S_D.CURRENT_FPRG_CONTEXT$ -> FPRG$CONTEXT.
             10662                                     TR$INFO.PTXT;

  10662  2 001503   200011 473500                    LDP3    BB$,,AUTO
         2 001504   040100 100500                    MLR     fill='040'O
         2 001505   100063 000030                    ADSC9   51,,PR1                  cn=0,n=24
         2 001506   300000 000040                    ADSC9   0,,PR3                   cn=0,n=32

      509    10663    6                           BB$ = PINCRC(BB$,S_D.CURRENT_FPRG_CONTEXT$ -> FPRG$CONTEXT.
             10663                                     TR$INFO.PSIZ+1);

  10663  2 001507   000102 471500                    LDP1    66,,PR0
         2 001510   100062 236100                    LDQ     50,,PR1
         2 001511   000777 376007                    ANQ     511,DL
         2 001512   000020 736000                    QLS     16
         2 001513   200000 036007                    ADLQ    65536,DL
         2 001514   200011 036100                    ADLQ    BB$,,AUTO
         2 001515   200011 756100                    STQ     BB$,,AUTO

      510    10664    6                          END;

      511    10665    6                       IF S_D.CURRENT_FPRG_CONTEXT$ -> FPRG$CONTEXT.TR$INFO.SILENT AND
             10665                                NOT S_D.SIM_UPDATE THEN DO;

PL6.E3A0      #001=DDA$SHOW File=DDA$SHOW.:E05TSI                                TUE 07/29/97 13:35 Page:94
  10665  2 001516   100062 236100                    LDQ     50,,PR1
         2 001517   020000 316007                    CANQ    8192,DL
         2 001520   001532 600000 2                  TZE     s:10669
         2 001521   006766 234100                    SZN     3574,,PR0
         2 001522   001532 604000 2                  TMI     s:10669

      512    10666    6                            BB$->CHAR32 = '(silent)';

  10666  2 001523   200011 473500                    LDP3    BB$,,AUTO
         2 001524   040100 100400                    MLR     fill='040'O
         2 001525   000515 000010 0                  ADSC9   COMPIDS+103              cn=0,n=8
         2 001526   300000 000040                    ADSC9   0,,PR3                   cn=0,n=32

      513    10667    6                            BB$ = PINCRC(BB$,8);

  10667  2 001527   200011 236100                    LDQ     BB$,,AUTO
         2 001530   000002 036003                    ADLQ    2,DU
         2 001531   200011 756100                    STQ     BB$,,AUTO

      514    10668    6                          END;

      515    10669    5                       IF S_D.CURRENT_FPRG_CONTEXT$ -> FPRG$CONTEXT.TR$INFO.ACTIVE

  10669  2 001532   000102 471500                    LDP1    66,,PR0
         2 001533   100062 236100                    LDQ     50,,PR1
         2 001534   004000 316007                    CANQ    2048,DL
         2 001535   001546 600000 2                  TZE     s:10675

      516    10670    6                       THEN DO;

      517    10671    6                            BB$->CHAR32 = '; TRACE on';

  10671  2 001536   200011 473500                    LDP3    BB$,,AUTO
         2 001537   040100 100400                    MLR     fill='040'O
         2 001540   000517 000012 0                  ADSC9   COMPIDS+105              cn=0,n=10
         2 001541   300000 000040                    ADSC9   0,,PR3                   cn=0,n=32

PL6.E3A0      #001=DDA$SHOW File=DDA$SHOW.:E05TSI                                TUE 07/29/97 13:35 Page:95
      518    10672    6                            BB$ = PINCRC(BB$, 10);

  10672  2 001542   200011 236100                    LDQ     BB$,,AUTO
         2 001543   000024 036000 3                  ADLQ    20
         2 001544   200011 756100                    STQ     BB$,,AUTO

      519    10673    6                          END;

  10673  2 001545   001555 710000 2                  TRA     s:10678

      520    10674    6                       ELSE DO;

      521    10675    6                            BB$->CHAR32 = '; TRACE off';

  10675  2 001546   200011 473500                    LDP3    BB$,,AUTO
         2 001547   040100 100400                    MLR     fill='040'O
         2 001550   000522 000013 0                  ADSC9   COMPIDS+108              cn=0,n=11
         2 001551   300000 000040                    ADSC9   0,,PR3                   cn=0,n=32

      522    10676    6                            BB$ = PINCRC(BB$, 11);

  10676  2 001552   200011 236100                    LDQ     BB$,,AUTO
         2 001553   000025 036000 3                  ADLQ    21
         2 001554   200011 756100                    STQ     BB$,,AUTO

      523    10677    6                          END;

      524    10678    5                       SIZE = POFFC(BB$, ADDR(S_D.OUTPUT));

  10678  2 001555   000000 236000 xsym               LDQ     S_D$
         2 001556   005335 036003                    ADLQ    2781,DU
         2 001557   000020 772000                    QRL     16
         2 001560   200060 756100                    STQ     FPRG_CONTEXT_SAVE$+1,,AUTO
         2 001561   200011 236100                    LDQ     BB$,,AUTO
         2 001562   000020 772000                    QRL     16
         2 001563   200060 136100                    SBLQ    FPRG_CONTEXT_SAVE$+1,,AUTO
         2 001564   200017 756100                    STQ     SIZE,,AUTO
PL6.E3A0      #001=DDA$SHOW File=DDA$SHOW.:E05TSI                                TUE 07/29/97 13:35 Page:96

      525    10679    5                       GOTO WRITE_IT;

  10679  2 001565   003774 710000 2                  TRA     WRITE_IT

      526    10680    5                     END;
      527    10681    4                END;
      528    10682    3             GOTO WRITE_IT;

  10682  2 001566   003774 710000 2                  TRA     WRITE_IT

      529    10683    3          CASE( 288 );                 /* SHOW WHENS */

      530    10684    3             CMD = 67;                 /* CMD SET TO 'WHEN' */

  10684  2 001567   000103 236007                    LDQ     67,DL
         2 001570   200007 756100                    STQ     CMD,,AUTO

      531    10685    3             CALL SHOW_FIX;

  10685  2 001571   004570 701000 2                  TSX1    SHOW_FIX
         2 001572   000000 011000                    NOP     0
         2 001573   003772 710000 2                  TRA     SHOWTYPE_RETN

      532    10686    3          CASE ( 289 );                 /* SHOW KEEP */

      533    10687    4             IF D_XDELTA THEN DO;

  10687  2 001574   000000 234000 xsym               SZN     D_XDELTA
         2 001575   001640 605000 2                  TPL     s:10703

      534    10688    4                  SIZE = 12;

  10688  2 001576   000014 236007                    LDQ     12,DL
         2 001577   200017 756100                    STQ     SIZE,,AUTO

      535    10689    4                  IF S_D.K$EEP.TYPE = 1 /*KEEP_ALL*/
PL6.E3A0      #001=DDA$SHOW File=DDA$SHOW.:E05TSI                                TUE 07/29/97 13:35 Page:97

  10689  2 001600   000000 470400 xsym               LDP0    S_D$
         2 001601   004626 235100                    LDA     2454,,PR0
         2 001602   000001 115007                    CMPA    1,DL
         2 001603   001610 601000 2                  TNZ     s:10691

      536    10690    4                  THEN S_D.OUTPUT = 'KEEP All';

  10690  2 001604   040100 100400                    MLR     fill='040'O
         2 001605   000525 000010 0                  ADSC9   COMPIDS+111              cn=0,n=8
         2 001606   005335 004000                    ADSC9   2781,,PR0                cn=0,n=2048
         2 001607   001637 710000 2                  TRA     s:10701

      537    10691    4                  ELSE IF S_D.K$EEP.TYPE = 2 /*KEEP_NONE*/

  10691  2 001610   000002 115007                    CMPA    2,DL
         2 001611   001616 601000 2                  TNZ     s:10693

      538    10692    4                       THEN S_D.OUTPUT = 'KEEP none';

  10692  2 001612   040100 100400                    MLR     fill='040'O
         2 001613   000527 000011 0                  ADSC9   COMPIDS+113              cn=0,n=9
         2 001614   005335 004000                    ADSC9   2781,,PR0                cn=0,n=2048
         2 001615   001637 710000 2                  TRA     s:10701

      539    10693    4                       ELSE IF S_D.K$EEP.TYPE = 3 /*KEEP_MON*/

  10693  2 001616   000003 115007                    CMPA    3,DL
         2 001617   001624 601000 2                  TNZ     s:10695

      540    10694    4                            THEN S_D.OUTPUT = 'KEEP mon';

  10694  2 001620   040100 100400                    MLR     fill='040'O
         2 001621   000532 000010 0                  ADSC9   COMPIDS+116              cn=0,n=8
         2 001622   005335 004000                    ADSC9   2781,,PR0                cn=0,n=2048
         2 001623   001637 710000 2                  TRA     s:10701

PL6.E3A0      #001=DDA$SHOW File=DDA$SHOW.:E05TSI                                TUE 07/29/97 13:35 Page:98
      541    10695    4                            ELSE IF S_D.K$EEP.TYPE = 4

  10695  2 001624   000004 115007                    CMPA    4,DL
         2 001625   001632 601000 2                  TNZ     s:10698

      542    10696    4                                 THEN S_D.OUTPUT = 'KEEP screech';

  10696  2 001626   040100 100400                    MLR     fill='040'O
         2 001627   000534 000014 0                  ADSC9   COMPIDS+118              cn=0,n=12
         2 001630   005335 004000                    ADSC9   2781,,PR0                cn=0,n=2048
         2 001631   001637 710000 2                  TRA     s:10701

      543    10697    5                                 ELSE DO;

      544    10698    5                                      S_D.ERROR = 502; /*E@DELBUG*/

  10698  2 001632   000766 235007                    LDA     502,DL
         2 001633   000013 755100                    STA     11,,PR0

      545    10699    5                                      CALL DDE$ERROR;

  10699  2 001634   000002 631400 xsym               EPPR1   B_VECTNIL+2
         2 001635   000000 701000 xent               TSX1    DDE$ERROR
         2 001636   000000 011000                    NOP     0

      546    10700    5                                    END;

      547    10701    4                  GOTO WRITE_IT;

  10701  2 001637   003774 710000 2                  TRA     WRITE_IT

      548    10702    4                END;
      549    10703    3             S_D.OUTPUT = 'KEEP ';

  10703  2 001640   000000 470400 xsym               LDP0    S_D$
         2 001641   040100 100400                    MLR     fill='040'O
         2 001642   000525 000005 0                  ADSC9   COMPIDS+111              cn=0,n=5
PL6.E3A0      #001=DDA$SHOW File=DDA$SHOW.:E05TSI                                TUE 07/29/97 13:35 Page:99
         2 001643   005335 004000                    ADSC9   2781,,PR0                cn=0,n=2048

      550    10704    3             SIZE = 5;

  10704  2 001644   000005 236007                    LDQ     5,DL
         2 001645   200017 756100                    STQ     SIZE,,AUTO

      551    10705    3             BB$ = PINCRC(ADDR(S_D.OUTPUT), 5);

  10705  2 001646   000000 236000 xsym               LDQ     S_D$
         2 001647   000026 036000 3                  ADLQ    22
         2 001650   200011 756100                    STQ     BB$,,AUTO

      552    10706    3             CALL BLD_OPTIONS(S_D.KEEP);

  10706  2 001651   000000 236000 xsym               LDQ     S_D$
         2 001652   004727 036003                    ADLQ    2519,DU
         2 001653   200047 756100                    STQ     STX+2,,AUTO
         2 001654   004023 701000 2                  TSX1    BLD_OPTIONS
         2 001655   000000 011000                    NOP     0

      553    10707    3             IF S_D.KEEP~='0'B OR NOT S_D.SIM_UPDATE THEN CALL DDQ$WRITED(ADDR(S_D.
             10707                      OUTPUT), SIZE);

  10707  2 001656   000000 470400 xsym               LDP0    S_D$
         2 001657   004727 235100                    LDA     2519,,PR0
         2 001660   001663 601000 2                  TNZ     s:10707+5
         2 001661   006766 234100                    SZN     3574,,PR0
         2 001662   001676 604000 2                  TMI     s:10708

  10707  2 001663   000000 236000 xsym               LDQ     S_D$
         2 001664   005335 036003                    ADLQ    2781,DU
         2 001665   200060 756100                    STQ     FPRG_CONTEXT_SAVE$+1,,AUTO
         2 001666   200017 631500                    EPPR1   SIZE,,AUTO
         2 001667   200063 451500                    STP1    FPRG_CONTEXT_SAVE$+4,,AUTO
         2 001670   200060 633500                    EPPR3   FPRG_CONTEXT_SAVE$+1,,AUTO
         2 001671   200062 453500                    STP3    FPRG_CONTEXT_SAVE$+3,,AUTO
PL6.E3A0      #001=DDA$SHOW File=DDA$SHOW.:E05TSI                                TUE 07/29/97 13:35 Page:100
         2 001672   200062 630500                    EPPR0   FPRG_CONTEXT_SAVE$+3,,AUTO
         2 001673   000020 631400 xsym               EPPR1   B_VECTNIL+16
         2 001674   000000 701000 xent               TSX1    DDQ$WRITED
         2 001675   000000 011000                    NOP     0

      554    10708    3             IF S_D.FPRG_CONTEXT$ ~= ADDR(NIL)

  10708  2 001676   000000 470400 xsym               LDP0    S_D$
         2 001677   000076 236100                    LDQ     62,,PR0
         2 001700   000001 116000 xsym               CMPQ    B_VECTNIL+1
         2 001701   001747 600000 2                  TZE     s:10721

      555    10709    4             THEN DO;

      556    10710    4                  TFPRG$ = S_D.FPRG_CONTEXT$;

  10710  2 001702   200027 756100                    STQ     TFPRG$,,AUTO

      557    10711    5                  DO WHILE (TFPRG$ ~= ADDR(NIL));

  10711  2 001703   001745 710000 2                  TRA     s:10719

      558    10712    5                       S_D.OUTPUT = 'KEEP ';

  10712  2 001704   000000 470400 xsym               LDP0    S_D$
         2 001705   040100 100400                    MLR     fill='040'O
         2 001706   000525 000005 0                  ADSC9   COMPIDS+111              cn=0,n=5
         2 001707   005335 004000                    ADSC9   2781,,PR0                cn=0,n=2048

      559    10713    5                       SIZE = 5;

  10713  2 001710   000005 235007                    LDA     5,DL
         2 001711   200017 755100                    STA     SIZE,,AUTO

      560    10714    5                       BB$ = PINCRC(ADDR(S_D.OUTPUT), 5);

  10714  2 001712   000000 236000 xsym               LDQ     S_D$
PL6.E3A0      #001=DDA$SHOW File=DDA$SHOW.:E05TSI                                TUE 07/29/97 13:35 Page:101
         2 001713   000026 036000 3                  ADLQ    22
         2 001714   200011 756100                    STQ     BB$,,AUTO

      561    10715    5                       OPT_L6 = TFPRG$ -> FPRG$CONTEXT.KEEP;

  10715  2 001715   200027 471500                    LDP1    TFPRG$,,AUTO
         2 001716   100061 236100                    LDQ     49,,PR1
         2 001717   770000 376003                    ANQ     -4096,DU
         2 001720   200031 756100                    STQ     OPT_L6,,AUTO

      562    10716    5                       CALL BLD_OPTIONS_L6(TFPRG$, OPT_L6);

  10716  2 001721   200031 633500                    EPPR3   OPT_L6,,AUTO
         2 001722   200050 453500                    STP3    NODE+1,,AUTO
         2 001723   200027 634500                    EPPR4   TFPRG$,,AUTO
         2 001724   200047 454500                    STP4    STX+2,,AUTO
         2 001725   004301 701000 2                  TSX1    BLD_OPTIONS_L6
         2 001726   000000 011000                    NOP     0

      563    10717    5                       CALL DDQ$WRITED(ADDR(S_D.OUTPUT), SIZE);

  10717  2 001727   000000 236000 xsym               LDQ     S_D$
         2 001730   005335 036003                    ADLQ    2781,DU
         2 001731   200060 756100                    STQ     FPRG_CONTEXT_SAVE$+1,,AUTO
         2 001732   200017 630500                    EPPR0   SIZE,,AUTO
         2 001733   200063 450500                    STP0    FPRG_CONTEXT_SAVE$+4,,AUTO
         2 001734   200060 631500                    EPPR1   FPRG_CONTEXT_SAVE$+1,,AUTO
         2 001735   200062 451500                    STP1    FPRG_CONTEXT_SAVE$+3,,AUTO
         2 001736   200062 630500                    EPPR0   FPRG_CONTEXT_SAVE$+3,,AUTO
         2 001737   000020 631400 xsym               EPPR1   B_VECTNIL+16
         2 001740   000000 701000 xent               TSX1    DDQ$WRITED
         2 001741   000000 011000                    NOP     0

      564    10718    5                       TFPRG$ = TFPRG$ -> FPRG$CONTEXT.NEXT$;

  10718  2 001742   200027 470500                    LDP0    TFPRG$,,AUTO
         2 001743   000000 236100                    LDQ     0,,PR0
PL6.E3A0      #001=DDA$SHOW File=DDA$SHOW.:E05TSI                                TUE 07/29/97 13:35 Page:102
         2 001744   200027 756100                    STQ     TFPRG$,,AUTO

      565    10719    5                     END;

  10719  2 001745   000001 116000 xsym               CMPQ    B_VECTNIL+1
         2 001746   001704 601000 2                  TNZ     s:10712

      566    10720    4                END;

      567    10721    3             GOTO RET;

  10721  2 001747   004007 710000 2                  TRA     RET

      568    10722    3          CASE ( 290 ) ;                 /* SHOW USE */

      569    10723        /*N* Harold - when are you going to do SHOW USE ? */
      570    10724    3          CASE( 291 );                 /* SHOW ONCALLS */

      571    10725    3             CMD = 31;                   /* CMD SET TO ON CALL */

  10725  2 001750   000037 236007                    LDQ     31,DL
         2 001751   200007 756100                    STQ     CMD,,AUTO

      572    10726    3             CALL SHOW_FIX;

  10726  2 001752   004570 701000 2                  TSX1    SHOW_FIX
         2 001753   000000 011000                    NOP     0

      573    10727    3             CMD = 53;              /* C_ONCALLS */

  10727  2 001754   000065 235007                    LDA     53,DL
         2 001755   200007 755100                    STA     CMD,,AUTO

      574    10728    3             CALL SHOW_FIX;

  10728  2 001756   004570 701000 2                  TSX1    SHOW_FIX
         2 001757   000000 011000                    NOP     0
PL6.E3A0      #001=DDA$SHOW File=DDA$SHOW.:E05TSI                                TUE 07/29/97 13:35 Page:103
         2 001760   003772 710000 2                  TRA     SHOWTYPE_RETN

      575    10729    3          CASE( 292 );                 /* SHOW ON ABORT */

      576    10730    3             IF D_XDELTA THEN GOTO ERR7;

  10730  2 001761   000000 234000 xsym               SZN     D_XDELTA
         2 001762   004012 604000 2                  TMI     ERR7

      577    10731    3             CMD = 30;                   /* C_OA */

  10731  2 001763   000036 236007                    LDQ     30,DL
         2 001764   200007 756100                    STQ     CMD,,AUTO

      578    10732    3             CALL SHOW_FIX;

  10732  2 001765   004570 701000 2                  TSX1    SHOW_FIX
         2 001766   000000 011000                    NOP     0
         2 001767   003772 710000 2                  TRA     SHOWTYPE_RETN

      579    10733    3          CASE( 293 );                  /* SHOW ON EXIT */

      580    10734    3             IF D_XDELTA THEN GOTO ERR7;

  10734  2 001770   000000 234000 xsym               SZN     D_XDELTA
         2 001771   004012 604000 2                  TMI     ERR7

      581    10735    3             CMD = 32;                   /* C_OE */

  10735  2 001772   000040 236007                    LDQ     32,DL
         2 001773   200007 756100                    STQ     CMD,,AUTO

      582    10736    3             CALL SHOW_FIX;

  10736  2 001774   004570 701000 2                  TSX1    SHOW_FIX
         2 001775   000000 011000                    NOP     0
         2 001776   003772 710000 2                  TRA     SHOWTYPE_RETN
PL6.E3A0      #001=DDA$SHOW File=DDA$SHOW.:E05TSI                                TUE 07/29/97 13:35 Page:104

      583    10737    3          CASE( 294 );                 /* SHOW ON NODES */

      584    10738    3             IF D_XDELTA THEN GOTO ERR7;

  10738  2 001777   000000 234000 xsym               SZN     D_XDELTA
         2 002000   004012 604000 2                  TMI     ERR7

      585    10739    3             IF NOT S_D.OVERLAID THEN GOTO ERRO;

  10739  2 002001   000000 470400 xsym               LDP0    S_D$
         2 002002   004764 234100                    SZN     2548,,PR0
         2 002003   004016 605000 2                  TPL     ERRO

      586    10740    3             CMD = 34;                  /* C_ONN */

  10740  2 002004   000042 236007                    LDQ     34,DL
         2 002005   200007 756100                    STQ     CMD,,AUTO

      587    10741    3             CALL SHOW_FIX;

  10741  2 002006   004570 701000 2                  TSX1    SHOW_FIX
         2 002007   000000 011000                    NOP     0

      588    10742    3             CMD = 54;              /* C_ONNODES */

  10742  2 002010   000066 235007                    LDA     54,DL
         2 002011   200007 755100                    STA     CMD,,AUTO

      589    10743    3             CALL SHOW_FIX;

  10743  2 002012   004570 701000 2                  TSX1    SHOW_FIX
         2 002013   000000 011000                    NOP     0
         2 002014   003772 710000 2                  TRA     SHOWTYPE_RETN

      590    10744    3          CASE( 295 );               /* SHOW ABBREVS */

PL6.E3A0      #001=DDA$SHOW File=DDA$SHOW.:E05TSI                                TUE 07/29/97 13:35 Page:105
      591    10745    3          CASE( 296 );                /* SHOW ID(S)   */

      592    10746    3             F_FROM = S_D.DO$ -> S$HOW.ID_FROM;

  10746  2 002015   000000 470400 xsym               LDP0    S_D$
         2 002016   000031 471500                    LDP1    25,,PR0
         2 002017   100001 236100                    LDQ     1,,PR1
         2 002020   000022 772000                    QRL     18
         2 002021   000777 376007                    ANQ     511,DL
         2 002022   200005 756100                    STQ     F_FROM,,AUTO

      593    10747    3             F_TO = S_D.DO$ -> S$HOW.ID_TO;

  10747  2 002023   100001 236100                    LDQ     1,,PR1
         2 002024   000011 772000                    QRL     9
         2 002025   000777 376007                    ANQ     511,DL
         2 002026   200006 756100                    STQ     F_TO,,AUTO

      594    10748    3             CMD = 0;                 /* SET CMD TO 0 TO RUN THE RANGE SPECIFIED */

  10748  2 002027   200007 450100                    STZ     CMD,,AUTO

      595    10749    3             CALL SHOW_FIX;

  10749  2 002030   004570 701000 2                  TSX1    SHOW_FIX
         2 002031   000000 011000                    NOP     0
         2 002032   003772 710000 2                  TRA     SHOWTYPE_RETN

      596    10750    3          CASE( 297 );                /* SHOW BYPASS */

      597    10751    3             IF S_D.FPRG AND S_D.CURRENT_FPRG_CONTEXT$ -> FPRG$CONTEXT.INTERPRETIVE

  10751  2 002033   000000 470400 xsym               LDP0    S_D$
         2 002034   000101 234100                    SZN     65,,PR0
         2 002035   002052 605000 2                  TPL     s:10760
         2 002036   000102 471500                    LDP1    66,,PR0
         2 002037   100001 236100                    LDQ     1,,PR1
PL6.E3A0      #001=DDA$SHOW File=DDA$SHOW.:E05TSI                                TUE 07/29/97 13:35 Page:106
         2 002040   200000 316003                    CANQ    65536,DU
         2 002041   002052 600000 2                  TZE     s:10760

      598    10752    4             THEN DO;

      599    10753    4                  IF S_D.DO$ -> S$HOW.TYPE = 280 /* S@ALL */

  10753  2 002042   000031 473500                    LDP3    25,,PR0
         2 002043   300001 236100                    LDQ     1,,PR3
         2 002044   777000 376003                    ANQ     -512,DU
         2 002045   430000 116003                    CMPQ    -118784,DU
         2 002046   003772 600000 2                  TZE     SHOWTYPE_RETN

      600    10754    4                  THEN GOTO SHOWTYPE_RETN;
      601    10755    5                  ELSE DO;

      602    10756    5                       S_D.ERROR = 309; /* E@NOT_INTERPRETIVE */

  10756  2 002047   000465 235007                    LDA     309,DL
         2 002050   000013 755100                    STA     11,,PR0

      603    10757    5                       GOTO ARET;

  10757  2 002051   004021 710000 2                  TRA     ARET

      604    10758    5                     END;
      605    10759    4                END;
      606    10760    4             IF S_D.BYPASS THEN DO;

  10760  2 002052   001032 234100                    SZN     538,,PR0
         2 002053   002062 605000 2                  TPL     s:10765

      607    10761    4                  S_D.OUTPUT = 'BYPASS';

  10761  2 002054   040100 100400                    MLR     fill='040'O
         2 002055   000537 000006 0                  ADSC9   COMPIDS+121              cn=0,n=6
         2 002056   005335 004000                    ADSC9   2781,,PR0                cn=0,n=2048
PL6.E3A0      #001=DDA$SHOW File=DDA$SHOW.:E05TSI                                TUE 07/29/97 13:35 Page:107

      608    10762    4                  SIZE = 6;

  10762  2 002057   000006 236007                    LDQ     6,DL
         2 002060   200017 756100                    STQ     SIZE,,AUTO

      609    10763    4                END;

  10763  2 002061   002077 710000 2                  TRA     s:10774

      610    10764    4             ELSE DO;

      611    10765    5                  IF NOT S_D.SIM_UPDATE THEN DO;

  10765  2 002062   006766 234100                    SZN     3574,,PR0
         2 002063   002072 604000 2                  TMI     s:10770

      612    10766    5                       S_D.OUTPUT = 'BYPASS killed';

  10766  2 002064   040100 100400                    MLR     fill='040'O
         2 002065   000541 000015 0                  ADSC9   COMPIDS+123              cn=0,n=13
         2 002066   005335 004000                    ADSC9   2781,,PR0                cn=0,n=2048

      613    10767    5                       SIZE = 13;

  10767  2 002067   000015 236007                    LDQ     13,DL
         2 002070   200017 756100                    STQ     SIZE,,AUTO

      614    10768    5                     END;

  10768  2 002071   002077 710000 2                  TRA     s:10774

      615    10769    5                  ELSE DO;

      616    10770    5                       S_D.OUTPUT = 'Kill BYPASS';

  10770  2 002072   040100 100400                    MLR     fill='040'O
PL6.E3A0      #001=DDA$SHOW File=DDA$SHOW.:E05TSI                                TUE 07/29/97 13:35 Page:108
         2 002073   000545 000013 0                  ADSC9   COMPIDS+127              cn=0,n=11
         2 002074   005335 004000                    ADSC9   2781,,PR0                cn=0,n=2048

      617    10771    5                       SIZE = 11;

  10771  2 002075   000013 236007                    LDQ     11,DL
         2 002076   200017 756100                    STQ     SIZE,,AUTO

      618    10772    5                     END;

      619    10773    4                END;

      620    10774    3             GOTO WRITE_IT;

  10774  2 002077   003774 710000 2                  TRA     WRITE_IT

      621    10775    3          CASE( 299 );                   /* SHOW DIC */

      622    10776    3             M = '1'B;                     /* Assume not killed */

  10776  2 002100   400000 236003                    LDQ     -131072,DU
         2 002101   200024 756100                    STQ     M,,AUTO

      623    10777    3             IF D_XDELTA

  10777  2 002102   000000 234000 xsym               SZN     D_XDELTA
         2 002103   002110 605000 2                  TPL     s:10781

      624    10778    3             THEN IF NOT DX_DIC

  10778  2 002104   000000 234000 xsym               SZN     DX_DIC
         2 002105   002114 604000 2                  TMI     s:10783

      625    10779    3                  THEN M = '0'B;

  10779  2 002106   200024 450100                    STZ     M,,AUTO
         2 002107   002114 710000 2                  TRA     s:10783
PL6.E3A0      #001=DDA$SHOW File=DDA$SHOW.:E05TSI                                TUE 07/29/97 13:35 Page:109

      626    10780    3                  ELSE ;
      627    10781    3             ELSE IF S_D.DEBUG

  10781  2 002110   000000 470400 xsym               LDP0    S_D$
         2 002111   004732 234100                    SZN     2522,,PR0
         2 002112   002114 605000 2                  TPL     s:10783

      628    10782    3                  THEN M = '0'B;

  10782  2 002113   200024 450100                    STZ     M,,AUTO

      629    10783    3             IF M

  10783  2 002114   200024 234100                    SZN     M,,AUTO
         2 002115   002134 605000 2                  TPL     s:10798

      630    10784    4             THEN DO;

      631    10785    4                  IF S_D.DO$->S$HOW.TYPE = 280 /*S@ALL*/

  10785  2 002116   000000 470400 xsym               LDP0    S_D$
         2 002117   000031 471500                    LDP1    25,,PR0
         2 002120   100001 236100                    LDQ     1,,PR1
         2 002121   777000 376003                    ANQ     -512,DU
         2 002122   430000 116003                    CMPQ    -118784,DU
         2 002123   002126 601000 2                  TNZ     s:10793

      632    10786    5                  THEN DO;

      633    10787    5                       NONE='0'B;          /* Don't show this if

  10787  2 002124   200021 450100                    STZ     NONE,,AUTO

      634    10788                                                its in the default state
      635    10789                                                and he said SHOW ALL */
      636    10790    5                       GOTO SHOWTYPE_RETN;
PL6.E3A0      #001=DDA$SHOW File=DDA$SHOW.:E05TSI                                TUE 07/29/97 13:35 Page:110

  10790  2 002125   003772 710000 2                  TRA     SHOWTYPE_RETN

      637    10791    5                     END;
      638    10792    5                  ELSE DO;

      639    10793    5                       S_D.OUTPUT = 'DIC';

  10793  2 002126   040100 100400                    MLR     fill='040'O
         2 002127   000550 000003 0                  ADSC9   COMPIDS+130              cn=0,n=3
         2 002130   005335 004000                    ADSC9   2781,,PR0                cn=0,n=2048

      640    10794    5                       SIZE = LENGTHC( 'DIC' );

  10794  2 002131   000003 236007                    LDQ     3,DL
         2 002132   200017 756100                    STQ     SIZE,,AUTO

      641    10795    5                     END;

      642    10796    4                END;

  10796  2 002133   002152 710000 2                  TRA     s:10807

      643    10797    4             ELSE DO;

      644    10798    5                  IF NOT S_D.SIM_UPDATE THEN DO;

  10798  2 002134   000000 470400 xsym               LDP0    S_D$
         2 002135   006766 234100                    SZN     3574,,PR0
         2 002136   002145 604000 2                  TMI     s:10803

      645    10799    5                       S_D.OUTPUT = 'DIC killed';

  10799  2 002137   040100 100400                    MLR     fill='040'O
         2 002140   000551 000012 0                  ADSC9   COMPIDS+131              cn=0,n=10
         2 002141   005335 004000                    ADSC9   2781,,PR0                cn=0,n=2048

PL6.E3A0      #001=DDA$SHOW File=DDA$SHOW.:E05TSI                                TUE 07/29/97 13:35 Page:111
      646    10800    5                       SIZE = LENGTHC( 'DIC killed' );

  10800  2 002142   000012 235007                    LDA     10,DL
         2 002143   200017 755100                    STA     SIZE,,AUTO

      647    10801    5                     END;

  10801  2 002144   002152 710000 2                  TRA     s:10807

      648    10802    5                  ELSE DO;

      649    10803    5                       S_D.OUTPUT = 'Kill DIC';

  10803  2 002145   040100 100400                    MLR     fill='040'O
         2 002146   000554 000010 0                  ADSC9   COMPIDS+134              cn=0,n=8
         2 002147   005335 004000                    ADSC9   2781,,PR0                cn=0,n=2048

      650    10804    5                       SIZE = 8;

  10804  2 002150   000010 235007                    LDA     8,DL
         2 002151   200017 755100                    STA     SIZE,,AUTO

      651    10805    5                     END;

      652    10806    4                END;

      653    10807    3             GOTO WRITE_IT;

  10807  2 002152   003774 710000 2                  TRA     WRITE_IT

      654    10808    3          CASE( 300 );                 /* SHOW RANGE */

      655    10809    3             IF S_D.FPRG AND S_D.CURRENT_FPRG_CONTEXT$ -> FPRG$CONTEXT.INTERPRETIVE

  10809  2 002153   000000 470400 xsym               LDP0    S_D$
         2 002154   000101 234100                    SZN     65,,PR0
         2 002155   002172 605000 2                  TPL     s:10818
PL6.E3A0      #001=DDA$SHOW File=DDA$SHOW.:E05TSI                                TUE 07/29/97 13:35 Page:112
         2 002156   000102 471500                    LDP1    66,,PR0
         2 002157   100001 236100                    LDQ     1,,PR1
         2 002160   200000 316003                    CANQ    65536,DU
         2 002161   002172 600000 2                  TZE     s:10818

      656    10810    4             THEN DO;

      657    10811    4                  IF S_D.DO$ -> S$HOW.TYPE = 280 /* S@ALL */

  10811  2 002162   000031 473500                    LDP3    25,,PR0
         2 002163   300001 236100                    LDQ     1,,PR3
         2 002164   777000 376003                    ANQ     -512,DU
         2 002165   430000 116003                    CMPQ    -118784,DU
         2 002166   003772 600000 2                  TZE     SHOWTYPE_RETN

      658    10812    4                  THEN GOTO SHOWTYPE_RETN;
      659    10813    5                  ELSE DO;

      660    10814    5                       S_D.ERROR = 309; /* E@NOT_INTERPRETIVE */

  10814  2 002167   000465 235007                    LDA     309,DL
         2 002170   000013 755100                    STA     11,,PR0

      661    10815    5                       GOTO ARET;

  10815  2 002171   004021 710000 2                  TRA     ARET

      662    10816    5                     END;
      663    10817    4                END;
      664    10818    3             S_D.OUTPUT = 'RANGE ';

  10818  2 002172   040100 100400                    MLR     fill='040'O
         2 002173   000556 000006 0                  ADSC9   COMPIDS+136              cn=0,n=6
         2 002174   005335 004000                    ADSC9   2781,,PR0                cn=0,n=2048

      665    10819    3             BB$ = PINCRC(ADDR(S_D.OUTPUT), 6);

PL6.E3A0      #001=DDA$SHOW File=DDA$SHOW.:E05TSI                                TUE 07/29/97 13:35 Page:113
  10819  2 002175   000000 236000 xsym               LDQ     S_D$
         2 002176   000027 036000 3                  ADLQ    23
         2 002177   200011 756100                    STQ     BB$,,AUTO

      666    10820    3             IF S_D.ONE_TO_TWO.EXEC_DOMAIN = %HOST

  10820  2 002200   006714 235100                    LDA     3532,,PR0
         2 002201   000001 115007                    CMPA    1,DL
         2 002202   002221 601000 2                  TNZ     s:10822

      667    10821    3             THEN CALL DDR$BINTXT(BB$, S_D.RANGE, %OCT_FMT, J);

  10821  2 002203   200016 631500                    EPPR1   J,,AUTO
         2 002204   200063 451500                    STP1    FPRG_CONTEXT_SAVE$+4,,AUTO
         2 002205   000011 236000 3                  LDQ     9
         2 002206   200062 756100                    STQ     FPRG_CONTEXT_SAVE$+3,,AUTO
         2 002207   000000 236000 xsym               LDQ     S_D$
         2 002210   001031 036003                    ADLQ    537,DU
         2 002211   200061 756100                    STQ     FPRG_CONTEXT_SAVE$+2,,AUTO
         2 002212   200011 633500                    EPPR3   BB$,,AUTO
         2 002213   200060 453500                    STP3    FPRG_CONTEXT_SAVE$+1,,AUTO
         2 002214   200060 630500                    EPPR0   FPRG_CONTEXT_SAVE$+1,,AUTO
         2 002215   000022 631400 xsym               EPPR1   B_VECTNIL+18
         2 002216   000000 701000 xent               TSX1    DDR$BINTXT
         2 002217   000000 011000                    NOP     0
         2 002220   002244 710000 2                  TRA     s:10828

      668    10822    3             ELSE IF S_D.ONE_TO_TWO.EXEC_DOMAIN = %L6

  10822  2 002221   000002 115007                    CMPA    2,DL
         2 002222   002241 601000 2                  TNZ     s:10825

      669    10823    3                  THEN CALL DDR$BINTXT(BB$, S_D.RANGE, %X_FMT, J);

  10823  2 002223   200016 631500                    EPPR1   J,,AUTO
         2 002224   200063 451500                    STP1    FPRG_CONTEXT_SAVE$+4,,AUTO
         2 002225   000014 236000 3                  LDQ     12
PL6.E3A0      #001=DDA$SHOW File=DDA$SHOW.:E05TSI                                TUE 07/29/97 13:35 Page:114
         2 002226   200062 756100                    STQ     FPRG_CONTEXT_SAVE$+3,,AUTO
         2 002227   000000 236000 xsym               LDQ     S_D$
         2 002230   001031 036003                    ADLQ    537,DU
         2 002231   200061 756100                    STQ     FPRG_CONTEXT_SAVE$+2,,AUTO
         2 002232   200011 633500                    EPPR3   BB$,,AUTO
         2 002233   200060 453500                    STP3    FPRG_CONTEXT_SAVE$+1,,AUTO
         2 002234   200060 630500                    EPPR0   FPRG_CONTEXT_SAVE$+1,,AUTO
         2 002235   000022 631400 xsym               EPPR1   B_VECTNIL+18
         2 002236   000000 701000 xent               TSX1    DDR$BINTXT
         2 002237   000000 011000                    NOP     0
         2 002240   002244 710000 2                  TRA     s:10828

      670    10824    4                  ELSE DO;

      671    10825    4                       S_D.ERROR = 502; /* E@DELBUG */

  10825  2 002241   000766 235007                    LDA     502,DL
         2 002242   000013 755100                    STA     11,,PR0

      672    10826    4                       GOTO ARET;

  10826  2 002243   004021 710000 2                  TRA     ARET

      673    10827    4                     END;
      674    10828    3             SIZE = 8+J;

  10828  2 002244   200016 235100                    LDA     J,,AUTO
         2 002245   000010 035007                    ADLA    8,DL
         2 002246   200017 755100                    STA     SIZE,,AUTO

      675    10829    3             GOTO WRITE_IT;

  10829  2 002247   003774 710000 2                  TRA     WRITE_IT

      676    10830    3          CASE( 301 );              /* SHOW ALL */

      677    10831    3             CMD = 0;
PL6.E3A0      #001=DDA$SHOW File=DDA$SHOW.:E05TSI                                TUE 07/29/97 13:35 Page:115

  10831  2 002250   200007 450100                    STZ     CMD,,AUTO

      678    10832    3             CALL SHOW_FIX;

  10832  2 002251   004570 701000 2                  TSX1    SHOW_FIX
         2 002252   000000 011000                    NOP     0
         2 002253   003772 710000 2                  TRA     SHOWTYPE_RETN

      679    10833    3          CASE ( 302 );                  /* SHOW EOM */

      680    10834    3             IF NOT D_XDELTA

  10834  2 002254   000000 234000 xsym               SZN     D_XDELTA
         2 002255   004012 604000 2                  TMI     ERR7

      681    10835    4             THEN DO;

      682    10836    5                  IF S_D.EOM THEN DO;

  10836  2 002256   000000 470400 xsym               LDP0    S_D$
         2 002257   004752 234100                    SZN     2538,,PR0
         2 002260   002267 605000 2                  TPL     s:10841

      683    10837    5                       S_D.OUTPUT = 'EOM';

  10837  2 002261   040100 100400                    MLR     fill='040'O
         2 002262   000560 000003 0                  ADSC9   COMPIDS+138              cn=0,n=3
         2 002263   005335 004000                    ADSC9   2781,,PR0                cn=0,n=2048

      684    10838    5                       SIZE = 3;

  10838  2 002264   000003 236007                    LDQ     3,DL
         2 002265   200017 756100                    STQ     SIZE,,AUTO

      685    10839    5                     END;

PL6.E3A0      #001=DDA$SHOW File=DDA$SHOW.:E05TSI                                TUE 07/29/97 13:35 Page:116
  10839  2 002266   002304 710000 2                  TRA     s:10850

      686    10840    5                  ELSE DO;

      687    10841    6                       IF NOT S_D.SIM_UPDATE THEN DO;

  10841  2 002267   006766 234100                    SZN     3574,,PR0
         2 002270   002277 604000 2                  TMI     s:10846

      688    10842    6                            S_D.OUTPUT = 'EOM killed';

  10842  2 002271   040100 100400                    MLR     fill='040'O
         2 002272   000561 000012 0                  ADSC9   COMPIDS+139              cn=0,n=10
         2 002273   005335 004000                    ADSC9   2781,,PR0                cn=0,n=2048

      689    10843    6                            SIZE = 10;

  10843  2 002274   000012 236007                    LDQ     10,DL
         2 002275   200017 756100                    STQ     SIZE,,AUTO

      690    10844    6                          END;

  10844  2 002276   002304 710000 2                  TRA     s:10850

      691    10845    6                       ELSE DO;

      692    10846    6                            S_D.OUTPUT = 'Kill EOM';

  10846  2 002277   040100 100400                    MLR     fill='040'O
         2 002300   000564 000010 0                  ADSC9   COMPIDS+142              cn=0,n=8
         2 002301   005335 004000                    ADSC9   2781,,PR0                cn=0,n=2048

      693    10847    6                            SIZE = 8;

  10847  2 002302   000010 236007                    LDQ     8,DL
         2 002303   200017 756100                    STQ     SIZE,,AUTO

PL6.E3A0      #001=DDA$SHOW File=DDA$SHOW.:E05TSI                                TUE 07/29/97 13:35 Page:117
      694    10848    6                          END;

      695    10849    5                     END;

      696    10850    4                  GOTO WRITE_IT;

  10850  2 002304   003774 710000 2                  TRA     WRITE_IT

      697    10851    4                END;
      698    10852    3             ELSE GOTO ERR7;
      699    10853    3          CASE ( 303 );               /* SHOW FORMAT */

      700    10854    3             IF S_D.FPRG AND S_D.CURRENT_FPRG_CONTEXT$ -> FPRG$CONTEXT.INTERPRETIVE

  10854  2 002305   000000 470400 xsym               LDP0    S_D$
         2 002306   000101 234100                    SZN     65,,PR0
         2 002307   002324 605000 2                  TPL     s:10863
         2 002310   000102 471500                    LDP1    66,,PR0
         2 002311   100001 236100                    LDQ     1,,PR1
         2 002312   200000 316003                    CANQ    65536,DU
         2 002313   002324 600000 2                  TZE     s:10863

      701    10855    4             THEN DO;

      702    10856    4                  IF S_D.DO$ -> S$HOW.TYPE = 280 /* S@ALL */

  10856  2 002314   000031 473500                    LDP3    25,,PR0
         2 002315   300001 236100                    LDQ     1,,PR3
         2 002316   777000 376003                    ANQ     -512,DU
         2 002317   430000 116003                    CMPQ    -118784,DU
         2 002320   003772 600000 2                  TZE     SHOWTYPE_RETN

      703    10857    4                  THEN GOTO SHOWTYPE_RETN;
      704    10858    5                  ELSE DO;

      705    10859    5                       S_D.ERROR = 309; /* E@NOT_INTERPRETIVE */

PL6.E3A0      #001=DDA$SHOW File=DDA$SHOW.:E05TSI                                TUE 07/29/97 13:35 Page:118
  10859  2 002321   000465 235007                    LDA     309,DL
         2 002322   000013 755100                    STA     11,,PR0

      706    10860    5                       GOTO ARET;

  10860  2 002323   004021 710000 2                  TRA     ARET

      707    10861    5                     END;
      708    10862    4                END;
      709    10863    3             NONE = '0'B;

  10863  2 002324   200021 450100                    STZ     NONE,,AUTO

      710    10864    3             M = '1'B;

  10864  2 002325   400000 236003                    LDQ     -131072,DU
         2 002326   200024 756100                    STQ     M,,AUTO

      711    10865    3             E = '1'B;

  10865  2 002327   200025 756100                    STQ     E,,AUTO

      712    10866    3             IF S_D.DO$ -> S$HOW.TYPE = 303 /* S@FORMAT */

  10866  2 002330   000031 471500                    LDP1    25,,PR0
         2 002331   100001 236100                    LDQ     1,,PR1
         2 002332   777000 376003                    ANQ     -512,DU
         2 002333   457000 116003                    CMPQ    -107008,DU
         2 002334   002346 601000 2                  TNZ     s:10871

      713    10867    3             THEN IF S_D.DO$ -> S$HOW.ID_FROM = 61 /* C@MODIFY */

  10867  2 002335   100001 236100                    LDQ     1,,PR1
         2 002336   000777 376003                    ANQ     511,DU
         2 002337   000075 116003                    CMPQ    61,DU
         2 002340   002343 601000 2                  TNZ     s:10869

PL6.E3A0      #001=DDA$SHOW File=DDA$SHOW.:E05TSI                                TUE 07/29/97 13:35 Page:119
      714    10868    3                  THEN E = '0'B;

  10868  2 002341   200025 450100                    STZ     E,,AUTO
         2 002342   002346 710000 2                  TRA     s:10871

      715    10869    3                  ELSE IF S_D.DO$ -> S$HOW.ID_FROM = 60 /* C@EVAL */

  10869  2 002343   000074 116003                    CMPQ    60,DU
         2 002344   002346 601000 2                  TNZ     s:10871

      716    10870    3                       THEN M = '0'B;

  10870  2 002345   200024 450100                    STZ     M,,AUTO

      717    10871    3             IF E

  10871  2 002346   200025 234100                    SZN     E,,AUTO
         2 002347   002401 605000 2                  TPL     s:10877

      718    10872    4             THEN DO;

      719    10873    4                  CALL CONCAT( S_D.OUTPUT, 'FORMAT EVALUATE \ ', DD_FORMAT_TABLE.TX(
             10873                           S_D.EFMT_DEFAULT ) );

  10873  2 002350   004736 236100                    LDQ     2526,,PR0
         2 002351   000011 402007                    MPY     9,DL
         2 002352   040100 100400                    MLR     fill='040'O
         2 002353   000566 000022 0                  ADSC9   COMPIDS+144              cn=0,n=18
         2 002354   005335 000022                    ADSC9   2781,,PR0                cn=0,n=18
         2 002355   040100 100406                    MLR     fill='040'O
         2 002356   000177 200010 0                  ADSC9   DD_FORMAT_TABLE,Q        cn=1,n=8
         2 002357   005341 403756                    ADSC9   2785,,PR0                cn=2,n=2030

      720    10874    4                  SIZE = LENGTHC( 'FORMAT EVALUATE \ ' ) + DD_FORMAT_TABLE.SZ( S_D.
             10874                           EFMT_DEFAULT );

  10874  2 002360   000000 470400 xsym               LDP0    S_D$
PL6.E3A0      #001=DDA$SHOW File=DDA$SHOW.:E05TSI                                TUE 07/29/97 13:35 Page:120
         2 002361   004736 236100                    LDQ     2526,,PR0
         2 002362   000011 402007                    MPY     9,DL
         2 002363   000100 101406                    MRL     fill='000'O
         2 002364   000177 000001 0                  ADSC9   DD_FORMAT_TABLE,Q        cn=0,n=1
         2 002365   200060 000004                    ADSC9   FPRG_CONTEXT_SAVE$+1,,AUTO cn=0,n=4
         2 002366   200060 236100                    LDQ     FPRG_CONTEXT_SAVE$+1,,AUTO
         2 002367   000022 036007                    ADLQ    18,DL
         2 002370   200017 756100                    STQ     SIZE,,AUTO

      721    10875    4                  CALL DDQ$WRITED( BUF$, SIZE );

  10875  2 002371   200017 631500                    EPPR1   SIZE,,AUTO
         2 002372   200061 451500                    STP1    FPRG_CONTEXT_SAVE$+2,,AUTO
         2 002373   200023 633500                    EPPR3   BUF$,,AUTO
         2 002374   200060 453500                    STP3    FPRG_CONTEXT_SAVE$+1,,AUTO
         2 002375   200060 630500                    EPPR0   FPRG_CONTEXT_SAVE$+1,,AUTO
         2 002376   000020 631400 xsym               EPPR1   B_VECTNIL+16
         2 002377   000000 701000 xent               TSX1    DDQ$WRITED
         2 002400   000000 011000                    NOP     0

      722    10876    4                END;

      723    10877    3             IF M

  10877  2 002401   200024 234100                    SZN     M,,AUTO
         2 002402   003772 605000 2                  TPL     SHOWTYPE_RETN

      724    10878    4             THEN DO;

      725    10879    4                 CALL CONCAT( S_D.OUTPUT, 'FORMAT MODIFY \ ', DD_FORMAT_TABLE.TX( S_D.
             10879                           FMT_DEFAULT ) );

  10879  2 002403   000000 470400 xsym               LDP0    S_D$
         2 002404   000723 236100                    LDQ     467,,PR0
         2 002405   000011 402007                    MPY     9,DL
         2 002406   040100 100400                    MLR     fill='040'O
         2 002407   000573 000020 0                  ADSC9   COMPIDS+149              cn=0,n=16
PL6.E3A0      #001=DDA$SHOW File=DDA$SHOW.:E05TSI                                TUE 07/29/97 13:35 Page:121
         2 002410   005335 000020                    ADSC9   2781,,PR0                cn=0,n=16
         2 002411   040100 100406                    MLR     fill='040'O
         2 002412   000177 200010 0                  ADSC9   DD_FORMAT_TABLE,Q        cn=1,n=8
         2 002413   005341 003760                    ADSC9   2785,,PR0                cn=0,n=2032

      726    10880    4                  SIZE = LENGTHC( 'FORMAT MODIFY \ ' ) + DD_FORMAT_TABLE.SZ( S_D.
             10880                           FMT_DEFAULT );

  10880  2 002414   000000 470400 xsym               LDP0    S_D$
         2 002415   000723 236100                    LDQ     467,,PR0
         2 002416   000011 402007                    MPY     9,DL
         2 002417   000100 101406                    MRL     fill='000'O
         2 002420   000177 000001 0                  ADSC9   DD_FORMAT_TABLE,Q        cn=0,n=1
         2 002421   200060 000004                    ADSC9   FPRG_CONTEXT_SAVE$+1,,AUTO cn=0,n=4
         2 002422   200060 236100                    LDQ     FPRG_CONTEXT_SAVE$+1,,AUTO
         2 002423   000020 036007                    ADLQ    16,DL
         2 002424   200017 756100                    STQ     SIZE,,AUTO

      727    10881    4                  CALL DDQ$WRITED( BUF$, SIZE );

  10881  2 002425   200017 631500                    EPPR1   SIZE,,AUTO
         2 002426   200061 451500                    STP1    FPRG_CONTEXT_SAVE$+2,,AUTO
         2 002427   200023 633500                    EPPR3   BUF$,,AUTO
         2 002430   200060 453500                    STP3    FPRG_CONTEXT_SAVE$+1,,AUTO
         2 002431   200060 630500                    EPPR0   FPRG_CONTEXT_SAVE$+1,,AUTO
         2 002432   000020 631400 xsym               EPPR1   B_VECTNIL+16
         2 002433   000000 701000 xent               TSX1    DDQ$WRITED
         2 002434   000000 011000                    NOP     0

      728    10882    4                END;

  10882  2 002435   003772 710000 2                  TRA     SHOWTYPE_RETN

      729    10883    3          CASE ( 304 );                 /* SHOW COPY */

      730    10884    3             IF NOT D_XDELTA

PL6.E3A0      #001=DDA$SHOW File=DDA$SHOW.:E05TSI                                TUE 07/29/97 13:35 Page:122
  10884  2 002436   000000 234000 xsym               SZN     D_XDELTA
         2 002437   004012 604000 2                  TMI     ERR7

      731    10885    4             THEN DO;

      732    10886    5                  IF S_D.COPY THEN DO;

  10886  2 002440   000000 470400 xsym               LDP0    S_D$
         2 002441   004742 234100                    SZN     2530,,PR0
         2 002442   002451 605000 2                  TPL     s:10891

      733    10887    5                       S_D.OUTPUT = 'COPY';

  10887  2 002443   040100 100400                    MLR     fill='040'O
         2 002444   000577 000004 0                  ADSC9   COMPIDS+153              cn=0,n=4
         2 002445   005335 004000                    ADSC9   2781,,PR0                cn=0,n=2048

      734    10888    5                       SIZE = 4;

  10888  2 002446   000004 236007                    LDQ     4,DL
         2 002447   200017 756100                    STQ     SIZE,,AUTO

      735    10889    5                     END;

  10889  2 002450   002466 710000 2                  TRA     s:10900

      736    10890    5                  ELSE DO;

      737    10891    6                       IF NOT S_D.SIM_UPDATE THEN DO;

  10891  2 002451   006766 234100                    SZN     3574,,PR0
         2 002452   002461 604000 2                  TMI     s:10896

      738    10892    6                            S_D.OUTPUT = 'COPY killed';

  10892  2 002453   040100 100400                    MLR     fill='040'O
         2 002454   000600 000013 0                  ADSC9   COMPIDS+154              cn=0,n=11
PL6.E3A0      #001=DDA$SHOW File=DDA$SHOW.:E05TSI                                TUE 07/29/97 13:35 Page:123
         2 002455   005335 004000                    ADSC9   2781,,PR0                cn=0,n=2048

      739    10893    6                            SIZE = 11;

  10893  2 002456   000013 236007                    LDQ     11,DL
         2 002457   200017 756100                    STQ     SIZE,,AUTO

      740    10894    6                          END;

  10894  2 002460   002466 710000 2                  TRA     s:10900

      741    10895    6                       ELSE DO;

      742    10896    6                            S_D.OUTPUT = 'Kill COPY';

  10896  2 002461   040100 100400                    MLR     fill='040'O
         2 002462   000603 000011 0                  ADSC9   COMPIDS+157              cn=0,n=9
         2 002463   005335 004000                    ADSC9   2781,,PR0                cn=0,n=2048

      743    10897    6                            SIZE = 9;

  10897  2 002464   000011 236007                    LDQ     9,DL
         2 002465   200017 756100                    STQ     SIZE,,AUTO

      744    10898    6                          END;

      745    10899    5                     END;

      746    10900    4                  GOTO WRITE_IT;

  10900  2 002466   003774 710000 2                  TRA     WRITE_IT

      747    10901    4                END;
      748    10902    3             ELSE GOTO ERR7;
      749    10903    3          CASE ( 305 );                 /* SHOW ECHO */

      750    10904    3             IF NOT D_XDELTA
PL6.E3A0      #001=DDA$SHOW File=DDA$SHOW.:E05TSI                                TUE 07/29/97 13:35 Page:124

  10904  2 002467   000000 234000 xsym               SZN     D_XDELTA
         2 002470   004012 604000 2                  TMI     ERR7

      751    10905    4             THEN DO;

      752    10906    5                  IF S_D.ECHO THEN DO;

  10906  2 002471   000000 470400 xsym               LDP0    S_D$
         2 002472   004743 234100                    SZN     2531,,PR0
         2 002473   002502 605000 2                  TPL     s:10911

      753    10907    5                       S_D.OUTPUT = 'ECHO';

  10907  2 002474   040100 100400                    MLR     fill='040'O
         2 002475   000606 000004 0                  ADSC9   COMPIDS+160              cn=0,n=4
         2 002476   005335 004000                    ADSC9   2781,,PR0                cn=0,n=2048

      754    10908    5                       SIZE = 4;

  10908  2 002477   000004 236007                    LDQ     4,DL
         2 002500   200017 756100                    STQ     SIZE,,AUTO

      755    10909    5                     END;

  10909  2 002501   002517 710000 2                  TRA     s:10920

      756    10910    5                  ELSE DO;

      757    10911    6                       IF NOT S_D.SIM_UPDATE THEN DO;

  10911  2 002502   006766 234100                    SZN     3574,,PR0
         2 002503   002512 604000 2                  TMI     s:10916

      758    10912    6                            S_D.OUTPUT = 'ECHO killed';

  10912  2 002504   040100 100400                    MLR     fill='040'O
PL6.E3A0      #001=DDA$SHOW File=DDA$SHOW.:E05TSI                                TUE 07/29/97 13:35 Page:125
         2 002505   000607 000013 0                  ADSC9   COMPIDS+161              cn=0,n=11
         2 002506   005335 004000                    ADSC9   2781,,PR0                cn=0,n=2048

      759    10913    6                            SIZE = 11;

  10913  2 002507   000013 236007                    LDQ     11,DL
         2 002510   200017 756100                    STQ     SIZE,,AUTO

      760    10914    6                          END;

  10914  2 002511   002517 710000 2                  TRA     s:10920

      761    10915    6                       ELSE DO;

      762    10916    6                            S_D.OUTPUT = 'Kill ECHO';

  10916  2 002512   040100 100400                    MLR     fill='040'O
         2 002513   000612 000011 0                  ADSC9   COMPIDS+164              cn=0,n=9
         2 002514   005335 004000                    ADSC9   2781,,PR0                cn=0,n=2048

      763    10917    6                            SIZE = 9;

  10917  2 002515   000011 236007                    LDQ     9,DL
         2 002516   200017 756100                    STQ     SIZE,,AUTO

      764    10918    6                          END;

      765    10919    5                     END;

      766    10920    4                  GOTO WRITE_IT;

  10920  2 002517   003774 710000 2                  TRA     WRITE_IT

      767    10921    4                END;
      768    10922    3             ELSE GOTO ERR7;
      769    10923    3          CASE ( 306 );               /* SHOW IGNORE */

PL6.E3A0      #001=DDA$SHOW File=DDA$SHOW.:E05TSI                                TUE 07/29/97 13:35 Page:126
      770    10924    3             IF NOT D_XDELTA

  10924  2 002520   000000 234000 xsym               SZN     D_XDELTA
         2 002521   004012 604000 2                  TMI     ERR7

      771    10925    4             THEN DO;

      772    10926    4                  S_D.OUTPUT = 'IGNORE ';

  10926  2 002522   000000 470400 xsym               LDP0    S_D$
         2 002523   040100 100400                    MLR     fill='040'O
         2 002524   000615 000007 0                  ADSC9   COMPIDS+167              cn=0,n=7
         2 002525   005335 004000                    ADSC9   2781,,PR0                cn=0,n=2048

      773    10927    4                  SIZE = 7;

  10927  2 002526   000007 236007                    LDQ     7,DL
         2 002527   200017 756100                    STQ     SIZE,,AUTO

      774    10928    4                  BB$ = PINCRC(ADDR(S_D.OUTPUT),7);

  10928  2 002530   000000 236000 xsym               LDQ     S_D$
         2 002531   000030 036000 3                  ADLQ    24
         2 002532   200011 756100                    STQ     BB$,,AUTO

      775    10929    4                  CALL BLD_OPTIONS(S_D.IGNORE);

  10929  2 002533   000000 236000 xsym               LDQ     S_D$
         2 002534   004731 036003                    ADLQ    2521,DU
         2 002535   200047 756100                    STQ     STX+2,,AUTO
         2 002536   004023 701000 2                  TSX1    BLD_OPTIONS
         2 002537   000000 011000                    NOP     0

      776    10930    4                  IF S_D.IGNORE~='0'B OR NOT S_D.SIM_UPDATE THEN CALL DDQ$WRITED(ADDR(
             10930                           S_D.OUTPUT), SIZE);

  10930  2 002540   000000 470400 xsym               LDP0    S_D$
PL6.E3A0      #001=DDA$SHOW File=DDA$SHOW.:E05TSI                                TUE 07/29/97 13:35 Page:127
         2 002541   004731 235100                    LDA     2521,,PR0
         2 002542   002545 601000 2                  TNZ     s:10930+5
         2 002543   006766 234100                    SZN     3574,,PR0
         2 002544   002560 604000 2                  TMI     s:10931

  10930  2 002545   000000 236000 xsym               LDQ     S_D$
         2 002546   005335 036003                    ADLQ    2781,DU
         2 002547   200060 756100                    STQ     FPRG_CONTEXT_SAVE$+1,,AUTO
         2 002550   200017 631500                    EPPR1   SIZE,,AUTO
         2 002551   200063 451500                    STP1    FPRG_CONTEXT_SAVE$+4,,AUTO
         2 002552   200060 633500                    EPPR3   FPRG_CONTEXT_SAVE$+1,,AUTO
         2 002553   200062 453500                    STP3    FPRG_CONTEXT_SAVE$+3,,AUTO
         2 002554   200062 630500                    EPPR0   FPRG_CONTEXT_SAVE$+3,,AUTO
         2 002555   000020 631400 xsym               EPPR1   B_VECTNIL+16
         2 002556   000000 701000 xent               TSX1    DDQ$WRITED
         2 002557   000000 011000                    NOP     0

      777    10931    4                  IF S_D.FPRG_CONTEXT$ ~= ADDR(NIL)

  10931  2 002560   000000 470400 xsym               LDP0    S_D$
         2 002561   000076 236100                    LDQ     62,,PR0
         2 002562   000001 116000 xsym               CMPQ    B_VECTNIL+1
         2 002563   002711 600000 2                  TZE     s:10958

      778    10932    5                  THEN DO;

      779    10933    5                       TFPRG$ = S_D.FPRG_CONTEXT$;

  10933  2 002564   200027 756100                    STQ     TFPRG$,,AUTO

      780    10934    6                       DO WHILE (TFPRG$ ~= ADDR(NIL));

  10934  2 002565   002707 710000 2                  TRA     s:10956

      781    10935    6                            IF NOT TFPRG$ -> FPRG$CONTEXT.XDELTA AND

  10935  2 002566   200027 470500                    LDP0    TFPRG$,,AUTO
PL6.E3A0      #001=DDA$SHOW File=DDA$SHOW.:E05TSI                                TUE 07/29/97 13:35 Page:128
         2 002567   000001 236100                    LDQ     1,,PR0
         2 002570   002000 316003                    CANQ    1024,DU
         2 002571   002704 601000 2                  TNZ     s:10955
         2 002572   000061 236100                    LDQ     49,,PR0
         2 002573   000001 316003                    CANQ    1,DU
         2 002574   002704 600000 2                  TZE     s:10955

      782    10936    6                              TFPRG$ -> FPRG$CONTEXT.IGNORE(5)
      783    10937    7                            THEN DO;

      784    10938    7                                 S_D.OUTPUT = 'IGNORE ';

  10938  2 002575   000000 471400 xsym               LDP1    S_D$
         2 002576   040100 100400                    MLR     fill='040'O
         2 002577   000615 000007 0                  ADSC9   COMPIDS+167              cn=0,n=7
         2 002600   105335 004000                    ADSC9   2781,,PR1                cn=0,n=2048

      785    10939    7                                 SIZE = 7;

  10939  2 002601   000007 235007                    LDA     7,DL
         2 002602   200017 755100                    STA     SIZE,,AUTO

      786    10940    7                                 BB$ = PINCRC(ADDR(S_D.OUTPUT),7);

  10940  2 002603   000000 236000 xsym               LDQ     S_D$
         2 002604   000030 036000 3                  ADLQ    24
         2 002605   200011 756100                    STQ     BB$,,AUTO

      787    10941    7                                 BB$ -> CHAR1 = '(';

  10941  2 002606   200011 473500                    LDP3    BB$,,AUTO
         2 002607   040100 100400                    MLR     fill='040'O
         2 002610   000031 000001 3                  ADSC9   25                       cn=0,n=1
         2 002611   300000 000001                    ADSC9   0,,PR3                   cn=0,n=1

      788    10942    7                                 SIZE = SIZE + 1;

PL6.E3A0      #001=DDA$SHOW File=DDA$SHOW.:E05TSI                                TUE 07/29/97 13:35 Page:129
  10942  2 002612   200017 235100                    LDA     SIZE,,AUTO
         2 002613   000001 035007                    ADLA    1,DL
         2 002614   200017 755100                    STA     SIZE,,AUTO

      789    10943    7                                 BB$ = PINCRC(BB$, 1);

  10943  2 002615   200011 236100                    LDQ     BB$,,AUTO
         2 002616   200000 036007                    ADLQ    65536,DL
         2 002617   200011 756100                    STQ     BB$,,AUTO

      790    10944    7                                 REM = SIZEC(S_D.OUTPUT) - 8;

  10944  2 002620   003770 235007                    LDA     2040,DL
         2 002621   200012 755100                    STA     REM,,AUTO

      791    10945    7                                 CALL DDR$MOVE(SUBSTR(TFPRG$->FPRG$CONTEXT.RES, 0,
             10945                                          TFPRG$->FPRG$CONTEXT.RES_SIZE-1),

  10945  2 002622   200027 470500                    LDP0    TFPRG$,,AUTO
         2 002623   000004 720100                    LXL0    4,,PR0
         2 002624   777777 621010                    EAX1    -1,X0
         2 002625   200012 633500                    EPPR3   REM,,AUTO
         2 002626   200063 453500                    STP3    FPRG_CONTEXT_SAVE$+4,,AUTO
         2 002627   200011 634500                    EPPR4   BB$,,AUTO
         2 002630   200062 454500                    STP4    FPRG_CONTEXT_SAVE$+3,,AUTO
         2 002631   200027 236100                    LDQ     TFPRG$,,AUTO
         2 002632   000004 036003                    ADLQ    4,DU
         2 002633   200061 756100                    STQ     FPRG_CONTEXT_SAVE$+2,,AUTO
         2 002634   200027 236100                    LDQ     TFPRG$,,AUTO
         2 002635   000002 036003                    ADLQ    2,DU
         2 002636   200060 756100                    STQ     FPRG_CONTEXT_SAVE$+1,,AUTO
         2 002637   200060 630500                    EPPR0   FPRG_CONTEXT_SAVE$+1,,AUTO
         2 002640   000022 631400 xsym               EPPR1   B_VECTNIL+18
         2 002641   000000 701000 xent               TSX1    DDR$MOVE
         2 002642   000000 011000                    NOP     0

      792    10946    7                                   TFPRG$->FPRG$CONTEXT.RES_SIZE, BB$, REM);
PL6.E3A0      #001=DDA$SHOW File=DDA$SHOW.:E05TSI                                TUE 07/29/97 13:35 Page:130
      793    10947    7                                 BB$ -> CHAR4 = ') ';

  10947  2 002643   200011 470500                    LDP0    BB$,,AUTO
         2 002644   040100 100400                    MLR     fill='040'O
         2 002645   000617 000002 0                  ADSC9   COMPIDS+169              cn=0,n=2
         2 002646   000000 000004                    ADSC9   0,,PR0                   cn=0,n=4

      794    10948    7                                 SIZE = SIZE + 2 + TFPRG$->FPRG$CONTEXT.RES_SIZE;

  10948  2 002647   200027 470500                    LDP0    TFPRG$,,AUTO
         2 002650   200017 236100                    LDQ     SIZE,,AUTO
         2 002651   000004 036100                    ADLQ    4,,PR0
         2 002652   000002 036007                    ADLQ    2,DL
         2 002653   200017 756100                    STQ     SIZE,,AUTO

      795    10949    7                                 BB$ = PINCRC(BB$, 2);

  10949  2 002654   200011 236100                    LDQ     BB$,,AUTO
         2 002655   400000 036007                    ADLQ    -131072,DL
         2 002656   200011 756100                    STQ     BB$,,AUTO

      796    10950    7                                 BB$->CHAR16 = 'Arithmetic';

  10950  2 002657   200011 471500                    LDP1    BB$,,AUTO
         2 002660   040100 100400                    MLR     fill='040'O
         2 002661   000620 000012 0                  ADSC9   COMPIDS+170              cn=0,n=10
         2 002662   100000 000020                    ADSC9   0,,PR1                   cn=0,n=16

      797    10951    7                                 SIZE = SIZE + 10;

  10951  2 002663   200017 235100                    LDA     SIZE,,AUTO
         2 002664   000012 035007                    ADLA    10,DL
         2 002665   200017 755100                    STA     SIZE,,AUTO

      798    10952    7                                 BB$ = PINCRC(BB$, 10);

  10952  2 002666   200011 236100                    LDQ     BB$,,AUTO
PL6.E3A0      #001=DDA$SHOW File=DDA$SHOW.:E05TSI                                TUE 07/29/97 13:35 Page:131
         2 002667   000024 036000 3                  ADLQ    20
         2 002670   200011 756100                    STQ     BB$,,AUTO

      799    10953    7                                 CALL DDQ$WRITED(ADDR(S_D.OUTPUT), SIZE);

  10953  2 002671   000000 236000 xsym               LDQ     S_D$
         2 002672   005335 036003                    ADLQ    2781,DU
         2 002673   200060 756100                    STQ     FPRG_CONTEXT_SAVE$+1,,AUTO
         2 002674   200017 630500                    EPPR0   SIZE,,AUTO
         2 002675   200063 450500                    STP0    FPRG_CONTEXT_SAVE$+4,,AUTO
         2 002676   200060 631500                    EPPR1   FPRG_CONTEXT_SAVE$+1,,AUTO
         2 002677   200062 451500                    STP1    FPRG_CONTEXT_SAVE$+3,,AUTO
         2 002700   200062 630500                    EPPR0   FPRG_CONTEXT_SAVE$+3,,AUTO
         2 002701   000020 631400 xsym               EPPR1   B_VECTNIL+16
         2 002702   000000 701000 xent               TSX1    DDQ$WRITED
         2 002703   000000 011000                    NOP     0

      800    10954    7                               END;

      801    10955    6                            TFPRG$ = TFPRG$ -> FPRG$CONTEXT.NEXT$;

  10955  2 002704   200027 470500                    LDP0    TFPRG$,,AUTO
         2 002705   000000 236100                    LDQ     0,,PR0
         2 002706   200027 756100                    STQ     TFPRG$,,AUTO

      802    10956    6                          END;

  10956  2 002707   000001 116000 xsym               CMPQ    B_VECTNIL+1
         2 002710   002566 601000 2                  TNZ     s:10935

      803    10957    5                     END;

      804    10958    4                  GOTO RET;

  10958  2 002711   004007 710000 2                  TRA     RET

      805    10959    4                END;
PL6.E3A0      #001=DDA$SHOW File=DDA$SHOW.:E05TSI                                TUE 07/29/97 13:35 Page:132
      806    10960    3             ELSE GOTO ERR7;
      807    10961    3          CASE ( 307 );                 /* SHOW TRAP */

      808    10962    3             IF NOT D_XDELTA

  10962  2 002712   000000 234000 xsym               SZN     D_XDELTA
         2 002713   004012 604000 2                  TMI     ERR7

      809    10963    4             THEN DO;

      810    10964    4                  S_D.OUTPUT = 'TRAP ';

  10964  2 002714   000000 470400 xsym               LDP0    S_D$
         2 002715   040100 100400                    MLR     fill='040'O
         2 002716   000623 000005 0                  ADSC9   COMPIDS+173              cn=0,n=5
         2 002717   005335 004000                    ADSC9   2781,,PR0                cn=0,n=2048

      811    10965    4                  SIZE = 5;

  10965  2 002720   000005 236007                    LDQ     5,DL
         2 002721   200017 756100                    STQ     SIZE,,AUTO

      812    10966    4                  BB$ = PINCRC(ADDR(S_D.OUTPUT),5);

  10966  2 002722   000000 236000 xsym               LDQ     S_D$
         2 002723   000026 036000 3                  ADLQ    22
         2 002724   200011 756100                    STQ     BB$,,AUTO

      813    10967    4                  CALL BLD_OPTIONS(S_D.TRAP);

  10967  2 002725   000000 236000 xsym               LDQ     S_D$
         2 002726   004730 036003                    ADLQ    2520,DU
         2 002727   200047 756100                    STQ     STX+2,,AUTO
         2 002730   004023 701000 2                  TSX1    BLD_OPTIONS
         2 002731   000000 011000                    NOP     0

      814    10968    4                 IF S_D.TRAP~='0'B OR NOT S_D.SIM_UPDATE THEN CALL DDQ$WRITED(ADDR(S_D
PL6.E3A0      #001=DDA$SHOW File=DDA$SHOW.:E05TSI                                TUE 07/29/97 13:35 Page:133
             10968                           .OUTPUT), SIZE);

  10968  2 002732   000000 470400 xsym               LDP0    S_D$
         2 002733   004730 235100                    LDA     2520,,PR0
         2 002734   002737 601000 2                  TNZ     s:10968+5
         2 002735   006766 234100                    SZN     3574,,PR0
         2 002736   002752 604000 2                  TMI     s:10969

  10968  2 002737   000000 236000 xsym               LDQ     S_D$
         2 002740   005335 036003                    ADLQ    2781,DU
         2 002741   200060 756100                    STQ     FPRG_CONTEXT_SAVE$+1,,AUTO
         2 002742   200017 631500                    EPPR1   SIZE,,AUTO
         2 002743   200063 451500                    STP1    FPRG_CONTEXT_SAVE$+4,,AUTO
         2 002744   200060 633500                    EPPR3   FPRG_CONTEXT_SAVE$+1,,AUTO
         2 002745   200062 453500                    STP3    FPRG_CONTEXT_SAVE$+3,,AUTO
         2 002746   200062 630500                    EPPR0   FPRG_CONTEXT_SAVE$+3,,AUTO
         2 002747   000020 631400 xsym               EPPR1   B_VECTNIL+16
         2 002750   000000 701000 xent               TSX1    DDQ$WRITED
         2 002751   000000 011000                    NOP     0

      815    10969    4                  IF S_D.FPRG_CONTEXT$ ~= ADDR(NIL)

  10969  2 002752   000000 470400 xsym               LDP0    S_D$
         2 002753   000076 236100                    LDQ     62,,PR0
         2 002754   000001 116000 xsym               CMPQ    B_VECTNIL+1
         2 002755   003024 600000 2                  TZE     s:10982

      816    10970    5                  THEN DO;

      817    10971    5                       TFPRG$ = S_D.FPRG_CONTEXT$;

  10971  2 002756   200027 756100                    STQ     TFPRG$,,AUTO

      818    10972    6                       DO WHILE (TFPRG$ ~= ADDR(NIL));

  10972  2 002757   003022 710000 2                  TRA     s:10980

PL6.E3A0      #001=DDA$SHOW File=DDA$SHOW.:E05TSI                                TUE 07/29/97 13:35 Page:134
      819    10973    6                            S_D.OUTPUT = 'TRAP ';

  10973  2 002760   000000 470400 xsym               LDP0    S_D$
         2 002761   040100 100400                    MLR     fill='040'O
         2 002762   000623 000005 0                  ADSC9   COMPIDS+173              cn=0,n=5
         2 002763   005335 004000                    ADSC9   2781,,PR0                cn=0,n=2048

      820    10974    6                            SIZE = 5;

  10974  2 002764   000005 235007                    LDA     5,DL
         2 002765   200017 755100                    STA     SIZE,,AUTO

      821    10975    6                            BB$ = PINCRC(ADDR(S_D.OUTPUT), 5);

  10975  2 002766   000000 236000 xsym               LDQ     S_D$
         2 002767   000026 036000 3                  ADLQ    22
         2 002770   200011 756100                    STQ     BB$,,AUTO

      822    10976    6                            OPT_L6 = TFPRG$ -> FPRG$CONTEXT.TRAP;

  10976  2 002771   200027 471500                    LDP1    TFPRG$,,AUTO
         2 002772   100061 236100                    LDQ     49,,PR1
         2 002773   000006 736000                    QLS     6
         2 002774   770000 376003                    ANQ     -4096,DU
         2 002775   200031 756100                    STQ     OPT_L6,,AUTO

      823    10977    6                            CALL BLD_OPTIONS_L6(TFPRG$, OPT_L6);

  10977  2 002776   200031 633500                    EPPR3   OPT_L6,,AUTO
         2 002777   200050 453500                    STP3    NODE+1,,AUTO
         2 003000   200027 634500                    EPPR4   TFPRG$,,AUTO
         2 003001   200047 454500                    STP4    STX+2,,AUTO
         2 003002   004301 701000 2                  TSX1    BLD_OPTIONS_L6
         2 003003   000000 011000                    NOP     0

      824    10978    6                            CALL DDQ$WRITED(ADDR(S_D.OUTPUT), SIZE);

PL6.E3A0      #001=DDA$SHOW File=DDA$SHOW.:E05TSI                                TUE 07/29/97 13:35 Page:135
  10978  2 003004   000000 236000 xsym               LDQ     S_D$
         2 003005   005335 036003                    ADLQ    2781,DU
         2 003006   200060 756100                    STQ     FPRG_CONTEXT_SAVE$+1,,AUTO
         2 003007   200017 630500                    EPPR0   SIZE,,AUTO
         2 003010   200063 450500                    STP0    FPRG_CONTEXT_SAVE$+4,,AUTO
         2 003011   200060 631500                    EPPR1   FPRG_CONTEXT_SAVE$+1,,AUTO
         2 003012   200062 451500                    STP1    FPRG_CONTEXT_SAVE$+3,,AUTO
         2 003013   200062 630500                    EPPR0   FPRG_CONTEXT_SAVE$+3,,AUTO
         2 003014   000020 631400 xsym               EPPR1   B_VECTNIL+16
         2 003015   000000 701000 xent               TSX1    DDQ$WRITED
         2 003016   000000 011000                    NOP     0

      825    10979    6                            TFPRG$ = TFPRG$ -> FPRG$CONTEXT.NEXT$;

  10979  2 003017   200027 470500                    LDP0    TFPRG$,,AUTO
         2 003020   000000 236100                    LDQ     0,,PR0
         2 003021   200027 756100                    STQ     TFPRG$,,AUTO

      826    10980    6                          END;

  10980  2 003022   000001 116000 xsym               CMPQ    B_VECTNIL+1
         2 003023   002760 601000 2                  TNZ     s:10973

      827    10981    5                     END;

      828    10982    4                  GOTO RET;

  10982  2 003024   004007 710000 2                  TRA     RET

      829    10983    4                END;
      830    10984    3             ELSE GOTO ERR7;
      831    10985    3          CASE ( 308 );                  /* SHOW RUM */

      832    10986    3             IF D_XDELTA THEN GOTO ERR7;

  10986  2 003025   000000 234000 xsym               SZN     D_XDELTA
         2 003026   004012 604000 2                  TMI     ERR7
PL6.E3A0      #001=DDA$SHOW File=DDA$SHOW.:E05TSI                                TUE 07/29/97 13:35 Page:136

      833    10987    3             IF S_D.RUM

  10987  2 003027   000000 470400 xsym               LDP0    S_D$
         2 003030   004755 234100                    SZN     2541,,PR0
         2 003031   003037 605000 2                  TPL     s:10993

      834    10988    4             THEN DO;

      835    10989    4                  NONE = '0'B;

  10989  2 003032   200021 450100                    STZ     NONE,,AUTO

      836    10990    4                  CALL DUA$SHOW_RUM;

  10990  2 003033   000002 631400 xsym               EPPR1   B_VECTNIL+2
         2 003034   000000 701000 xent               TSX1    DUA$SHOW_RUM
         2 003035   000000 011000                    NOP     0

      837    10991    4                END;

  10991  2 003036   003772 710000 2                  TRA     SHOWTYPE_RETN

      838    10992    4             ELSE DO;

      839    10993    4                  NONE = '0'B;

  10993  2 003037   200021 450100                    STZ     NONE,,AUTO

      840    10994    5                  IF NOT S_D.SIM_UPDATE THEN DO;

  10994  2 003040   006766 234100                    SZN     3574,,PR0
         2 003041   003772 604000 2                  TMI     SHOWTYPE_RETN

      841    10995    5                       S_D.OUTPUT = 'RUM killed';

  10995  2 003042   040100 100400                    MLR     fill='040'O
PL6.E3A0      #001=DDA$SHOW File=DDA$SHOW.:E05TSI                                TUE 07/29/97 13:35 Page:137
         2 003043   000625 000012 0                  ADSC9   COMPIDS+175              cn=0,n=10
         2 003044   005335 004000                    ADSC9   2781,,PR0                cn=0,n=2048

      842    10996    5                       SIZE = LENGTHC( 'RUM killed' );

  10996  2 003045   000012 236007                    LDQ     10,DL
         2 003046   200017 756100                    STQ     SIZE,,AUTO

      843    10997    5                       GOTO WRITE_IT;

  10997  2 003047   003774 710000 2                  TRA     WRITE_IT

      844    10998    5                     END;
      845    10999    4                END;
      846    11000    3          CASE ( 309 );               /* SHOW ALTVAR */

      847    11001    3             S_D.OUTPUT = 'ALTERNATE VARIABLES';

  11001  2 003050   000000 470400 xsym               LDP0    S_D$
         2 003051   040100 100400                    MLR     fill='040'O
         2 003052   000630 000023 0                  ADSC9   COMPIDS+178              cn=0,n=19
         2 003053   005335 004000                    ADSC9   2781,,PR0                cn=0,n=2048

      848    11002    3             SIZE = LENGTHC( 'ALTERNATE VARIABLES' );

  11002  2 003054   000023 236007                    LDQ     19,DL
         2 003055   200017 756100                    STQ     SIZE,,AUTO

      849    11003    3             IF S_D.XOU_NAME.SIZE > 0

  11003  2 003056   001021 236100                    LDQ     529,,PR0
         2 003057   777000 316003                    CANQ    -512,DU
         2 003060   003105 600000 2                  TZE     s:11008

      850    11004    4             THEN DO;

      851    11005    4                  CALL INSERT( S_D.OUTPUT, SIZE, , ' ', S_D.XOU_NAME.TEXT );
PL6.E3A0      #001=DDA$SHOW File=DDA$SHOW.:E05TSI                                TUE 07/29/97 13:35 Page:138

  11005  2 003061   200017 720100                    LXL0    SIZE,,AUTO
         2 003062   773777 620010                    EAX0    -2049,X0
         2 003063   777777 660003                    ERX0    -1,DU
         2 003064   200017 235100                    LDA     SIZE,,AUTO
         2 003065   040145 100400                    MLR     fill='040'O
         2 003066   000035 000001 xsym               ADSC9   B_VECTNIL+29             cn=0,n=1
         2 003067   005335 000010                    ADSC9   2781,A,PR0               cn=0,n=*X0
         2 003070   200017 236100                    LDQ     SIZE,,AUTO
         2 003071   003777 116007                    CMPQ    2047,DL
         2 003072   003100 603000 2                  TRC     s:11006
         2 003073   774000 620006                    EAX0    -2048,QL
         2 003074   777777 660003                    ERX0    -1,DU
         2 003075   040146 100500                    MLR     fill='040'O
         2 003076   001021 200037                    ADSC9   529,,PR0                 cn=1,n=31
         2 003077   005335 200010                    ADSC9   2781,Q,PR0               cn=1,n=*X0

      852    11006    4                  SIZE = SIZE + LENGTHC( ' ' ) + S_D.XOU_NAME.SIZE;

  11006  2 003100   001021 236100                    LDQ     529,,PR0
         2 003101   000033 772000                    QRL     27
         2 003102   200017 036100                    ADLQ    SIZE,,AUTO
         2 003103   000001 036007                    ADLQ    1,DL
         2 003104   200017 756100                    STQ     SIZE,,AUTO

      853    11007    4                END;

      854    11008    3             IF NOT S_D.XSCH.OK

  11008  2 003105   000751 234100                    SZN     489,,PR0
         2 003106   003147 604000 2                  TMI     s:11025

      855    11009    4             THEN DO;

      856    11010    5                  IF NOT S_D.SIM_UPDATE THEN DO;

  11010  2 003107   006766 234100                    SZN     3574,,PR0
PL6.E3A0      #001=DDA$SHOW File=DDA$SHOW.:E05TSI                                TUE 07/29/97 13:35 Page:139
         2 003110   003124 604000 2                  TMI     s:11015

      857    11011    5                       CALL INSERT( S_D.OUTPUT, SIZE, ,' killed' );

  11011  2 003111   200017 720100                    LXL0    SIZE,,AUTO
         2 003112   773777 620010                    EAX0    -2049,X0
         2 003113   777777 660003                    ERX0    -1,DU
         2 003114   200017 235100                    LDA     SIZE,,AUTO
         2 003115   040145 100400                    MLR     fill='040'O
         2 003116   000601 000007 0                  ADSC9   COMPIDS+155              cn=0,n=7
         2 003117   005335 000010                    ADSC9   2781,A,PR0               cn=0,n=*X0

      858    11012    5                       SIZE = SIZE + LENGTHC( ' killed' );

  11012  2 003120   200017 235100                    LDA     SIZE,,AUTO
         2 003121   000007 035007                    ADLA    7,DL
         2 003122   200017 755100                    STA     SIZE,,AUTO

      859    11013    5                     END;

  11013  2 003123   003147 710000 2                  TRA     s:11025

      860    11014    5                  ELSE DO;

      861    11015    6                       IF S_D.XOU_NAME.SIZE > 0 THEN DO;

  11015  2 003124   001021 236100                    LDQ     529,,PR0
         2 003125   777000 316003                    CANQ    -512,DU
         2 003126   003142 600000 2                  TZE     s:11020

      862    11016    6                            CALL INSERT (S_D.OUTPUT,SIZE,,'; Kill ALTVAR');

  11016  2 003127   200017 720100                    LXL0    SIZE,,AUTO
         2 003130   773777 620010                    EAX0    -2049,X0
         2 003131   777777 660003                    ERX0    -1,DU
         2 003132   200017 235100                    LDA     SIZE,,AUTO
         2 003133   040145 100400                    MLR     fill='040'O
PL6.E3A0      #001=DDA$SHOW File=DDA$SHOW.:E05TSI                                TUE 07/29/97 13:35 Page:140
         2 003134   000635 000015 0                  ADSC9   COMPIDS+183              cn=0,n=13
         2 003135   005335 000010                    ADSC9   2781,A,PR0               cn=0,n=*X0

      863    11017    6                            SIZE = SIZE + LENGTHC('; Kill ALTVAR');

  11017  2 003136   200017 235100                    LDA     SIZE,,AUTO
         2 003137   000015 035007                    ADLA    13,DL
         2 003140   200017 755100                    STA     SIZE,,AUTO

      864    11018    6                          END;

  11018  2 003141   003147 710000 2                  TRA     s:11025

      865    11019    6                       ELSE DO;

      866    11020    6                            S_D.OUTPUT = 'Kill ALTVAR';

  11020  2 003142   040100 100400                    MLR     fill='040'O
         2 003143   000641 000013 0                  ADSC9   COMPIDS+187              cn=0,n=11
         2 003144   005335 004000                    ADSC9   2781,,PR0                cn=0,n=2048

      867    11021    6                            SIZE = 11;

  11021  2 003145   000013 235007                    LDA     11,DL
         2 003146   200017 755100                    STA     SIZE,,AUTO

      868    11022    6                          END;

      869    11023    5                     END;

      870    11024    4                END;

      871    11025    3             GOTO WRITE_IT;

  11025  2 003147   003774 710000 2                  TRA     WRITE_IT

      872    11026    3          CASE ( 310 );                 /* SHOW ANLZ */
PL6.E3A0      #001=DDA$SHOW File=DDA$SHOW.:E05TSI                                TUE 07/29/97 13:35 Page:141

      873    11027    3             IF D_XDELTA

  11027  2 003150   000000 234000 xsym               SZN     D_XDELTA
         2 003151   003157 605000 2                  TPL     s:11033

      874    11028    4             THEN DO;

      875    11029    4                  S_D.ERROR = 18;     /* E@UERR7 */

  11029  2 003152   000022 236007                    LDQ     18,DL
         2 003153   000000 470400 xsym               LDP0    S_D$
         2 003154   000013 756100                    STQ     11,,PR0

      876    11030    4                  ALTRETURN;

  11030  2 003155   200044 221300                    LDX1  ! UNODE+5,,AUTO
         2 003156   000000 702211                    TSX2  ! 0,X1

      877    11031    4                END;
      878    11032    4             ELSE DO;

      879    11033    4                  IF S_D.ANLZ

  11033  2 003157   000000 470400 xsym               LDP0    S_D$
         2 003160   004756 234100                    SZN     2542,,PR0
         2 003161   003167 605000 2                  TPL     s:11039

      880    11034    5                  THEN DO;

      881    11035    5                       NONE = '0'B;

  11035  2 003162   200021 450100                    STZ     NONE,,AUTO

      882    11036    5                       CALL DUA$SHOW_ANLZ ALTRET( ARET );

  11036  2 003163   000002 631400 xsym               EPPR1   B_VECTNIL+2
PL6.E3A0      #001=DDA$SHOW File=DDA$SHOW.:E05TSI                                TUE 07/29/97 13:35 Page:142
         2 003164   000000 701000 xent               TSX1    DUA$SHOW_ANLZ
         2 003165   004021 702000 2                  TSX2    ARET

      883    11037    5                     END;

  11037  2 003166   003772 710000 2                  TRA     SHOWTYPE_RETN

      884    11038    5                  ELSE DO;

      885    11039    5                       NONE = '0'B;

  11039  2 003167   200021 450100                    STZ     NONE,,AUTO

      886    11040    6                       IF NOT S_D.SIM_UPDATE THEN DO;

  11040  2 003170   006766 234100                    SZN     3574,,PR0
         2 003171   003772 604000 2                  TMI     SHOWTYPE_RETN

      887    11041    6                            S_D.OUTPUT = 'ANLZ killed';

  11041  2 003172   040100 100400                    MLR     fill='040'O
         2 003173   000644 000013 0                  ADSC9   COMPIDS+190              cn=0,n=11
         2 003174   005335 004000                    ADSC9   2781,,PR0                cn=0,n=2048

      888    11042    6                            SIZE = LENGTHC( 'ANLZ killed' );

  11042  2 003175   000013 236007                    LDQ     11,DL
         2 003176   200017 756100                    STQ     SIZE,,AUTO

      889    11043    6                            GOTO WRITE_IT;

  11043  2 003177   003774 710000 2                  TRA     WRITE_IT

      890    11044    6                          END;
      891    11045    5                     END;
      892    11046    4                END;
      893    11047    3          CASE ( 311 );               /* SHOW SYNTAX */
PL6.E3A0      #001=DDA$SHOW File=DDA$SHOW.:E05TSI                                TUE 07/29/97 13:35 Page:143

      894    11048    3             S_D.OUTPUT = 'SYNTAX ';

  11048  2 003200   000000 470400 xsym               LDP0    S_D$
         2 003201   040100 100400                    MLR     fill='040'O
         2 003202   000647 000007 0                  ADSC9   COMPIDS+193              cn=0,n=7
         2 003203   005335 004000                    ADSC9   2781,,PR0                cn=0,n=2048

      895    11049    3             SIZE = LENGTHC( 'Syntax ' );

  11049  2 003204   000007 236007                    LDQ     7,DL
         2 003205   200017 756100                    STQ     SIZE,,AUTO

      896    11050    3             CALL INSERT( S_D.OUTPUT, SIZE, , COMPID( S_D.SYNTAX ) );

  11050  2 003206   005235 720100                    LXL0    2717,,PR0
         2 003207   000000 635010                    EAA     0,X0
         2 003210   000017 771000                    ARL     15
         2 003211   773777 621006                    EAX1    -2049,QL
         2 003212   777777 661003                    ERX1    -1,DU
         2 003213   040146 100405                    MLR     fill='040'O
         2 003214   000312 000010 0                  ADSC9   COMPID,A                 cn=0,n=8
         2 003215   005335 000011                    ADSC9   2781,Q,PR0               cn=0,n=*X1

      897    11051    3             SIZE = SIZE + COMPIDS( S_D.SYNTAX );

  11051  2 003216   005235 720100                    LXL0    2717,,PR0
         2 003217   200017 236100                    LDQ     SIZE,,AUTO
         2 003220   000346 036010 0                  ADLQ    COMPIDS,X0
         2 003221   200017 756100                    STQ     SIZE,,AUTO

      898    11052    3             GOTO WRITE_IT;

  11052  2 003222   003774 710000 2                  TRA     WRITE_IT

      899    11053    3          CASE ( 313 );                  /* SHOW SAD */

PL6.E3A0      #001=DDA$SHOW File=DDA$SHOW.:E05TSI                                TUE 07/29/97 13:35 Page:144
      900    11054    3             IF S_D.FPRG AND S_D.CURRENT_FPRG_CONTEXT$ -> FPRG$CONTEXT.INTERPRETIVE

  11054  2 003223   000000 470400 xsym               LDP0    S_D$
         2 003224   000101 234100                    SZN     65,,PR0
         2 003225   003242 605000 2                  TPL     s:11063
         2 003226   000102 471500                    LDP1    66,,PR0
         2 003227   100001 236100                    LDQ     1,,PR1
         2 003230   200000 316003                    CANQ    65536,DU
         2 003231   003242 600000 2                  TZE     s:11063

      901    11055    4             THEN DO;

      902    11056    4                  IF S_D.DO$ -> S$HOW.TYPE = 280 /* S@ALL */

  11056  2 003232   000031 473500                    LDP3    25,,PR0
         2 003233   300001 236100                    LDQ     1,,PR3
         2 003234   777000 376003                    ANQ     -512,DU
         2 003235   430000 116003                    CMPQ    -118784,DU
         2 003236   003772 600000 2                  TZE     SHOWTYPE_RETN

      903    11057    4                  THEN GOTO SHOWTYPE_RETN;
      904    11058    5                  ELSE DO;

      905    11059    5                       S_D.ERROR = 309; /* E@NOT_INTERPRETIVE */

  11059  2 003237   000465 235007                    LDA     309,DL
         2 003240   000013 755100                    STA     11,,PR0

      906    11060    5                       GOTO ARET;

  11060  2 003241   004021 710000 2                  TRA     ARET

      907    11061    5                     END;
      908    11062    4                END;
      909    11063    3             IF D_XDELTA THEN GOTO ERR7;

  11063  2 003242   000000 234000 xsym               SZN     D_XDELTA
PL6.E3A0      #001=DDA$SHOW File=DDA$SHOW.:E05TSI                                TUE 07/29/97 13:35 Page:145
         2 003243   004012 604000 2                  TMI     ERR7

      910    11064    3             S_D.OUTPUT = 'SAD ';

  11064  2 003244   040100 100400                    MLR     fill='040'O
         2 003245   000653 000004 0                  ADSC9   COMPIDS+197              cn=0,n=4
         2 003246   005335 004000                    ADSC9   2781,,PR0                cn=0,n=2048

      911    11065    3             SIZE = LENGTHC( 'SAD ' );

  11065  2 003247   000004 236007                    LDQ     4,DL
         2 003250   200017 756100                    STQ     SIZE,,AUTO

      912    11066    3             IF S_D.SAD < 0

  11066  2 003251   005255 235100                    LDA     2733,,PR0
         2 003252   003271 605000 2                  TPL     s:11078

      913    11067    4             THEN DO;

      914    11068    5                  IF NOT S_D.SIM_UPDATE THEN DO;

  11068  2 003253   006766 234100                    SZN     3574,,PR0
         2 003254   003263 604000 2                  TMI     s:11073

      915    11069    5                       S_D.OUTPUT = 'SAD killed';

  11069  2 003255   040100 100400                    MLR     fill='040'O
         2 003256   000654 000012 0                  ADSC9   COMPIDS+198              cn=0,n=10
         2 003257   005335 004000                    ADSC9   2781,,PR0                cn=0,n=2048

      916    11070    5                       SIZE = 10;

  11070  2 003260   000012 235007                    LDA     10,DL
         2 003261   200017 755100                    STA     SIZE,,AUTO

      917    11071    5                     END;
PL6.E3A0      #001=DDA$SHOW File=DDA$SHOW.:E05TSI                                TUE 07/29/97 13:35 Page:146

  11071  2 003262   003320 710000 2                  TRA     s:11084

      918    11072    5                  ELSE DO;

      919    11073    5                       S_D.OUTPUT = 'Kill SAD';

  11073  2 003263   040100 100400                    MLR     fill='040'O
         2 003264   000657 000010 0                  ADSC9   COMPIDS+201              cn=0,n=8
         2 003265   005335 004000                    ADSC9   2781,,PR0                cn=0,n=2048

      920    11074    5                       SIZE = 8;

  11074  2 003266   000010 235007                    LDA     8,DL
         2 003267   200017 755100                    STA     SIZE,,AUTO

      921    11075    5                     END;

      922    11076    4                END;

  11076  2 003270   003320 710000 2                  TRA     s:11084

      923    11077    4             ELSE DO;

      924    11078    4                  S_D.OUTPUT = 'SAD ';

  11078  2 003271   040100 100400                    MLR     fill='040'O
         2 003272   000653 000004 0                  ADSC9   COMPIDS+197              cn=0,n=4
         2 003273   005335 004000                    ADSC9   2781,,PR0                cn=0,n=2048

      925    11079    4                  SIZE = 4;

  11079  2 003274   200017 756100                    STQ     SIZE,,AUTO

      926    11080    4                  BB$ = PINCRC( BUF$, SIZE );

  11080  2 003275   000020 736000                    QLS     16
PL6.E3A0      #001=DDA$SHOW File=DDA$SHOW.:E05TSI                                TUE 07/29/97 13:35 Page:147
         2 003276   200023 036100                    ADLQ    BUF$,,AUTO
         2 003277   200011 756100                    STQ     BB$,,AUTO

      927    11081    4                  CALL DDR$BINTXT( BB$, S_D.SAD, %UINT_FMT, NCARS );

  11081  2 003300   200014 631500                    EPPR1   NCARS,,AUTO
         2 003301   200063 451500                    STP1    FPRG_CONTEXT_SAVE$+4,,AUTO
         2 003302   000032 236000 3                  LDQ     26
         2 003303   200062 756100                    STQ     FPRG_CONTEXT_SAVE$+3,,AUTO
         2 003304   000000 236000 xsym               LDQ     S_D$
         2 003305   005255 036003                    ADLQ    2733,DU
         2 003306   200061 756100                    STQ     FPRG_CONTEXT_SAVE$+2,,AUTO
         2 003307   200011 633500                    EPPR3   BB$,,AUTO
         2 003310   200060 453500                    STP3    FPRG_CONTEXT_SAVE$+1,,AUTO
         2 003311   200060 630500                    EPPR0   FPRG_CONTEXT_SAVE$+1,,AUTO
         2 003312   000022 631400 xsym               EPPR1   B_VECTNIL+18
         2 003313   000000 701000 xent               TSX1    DDR$BINTXT
         2 003314   000000 011000                    NOP     0

      928    11082    4                  SIZE = SIZE + NCARS;

  11082  2 003315   200017 236100                    LDQ     SIZE,,AUTO
         2 003316   200014 036100                    ADLQ    NCARS,,AUTO
         2 003317   200017 756100                    STQ     SIZE,,AUTO

      929    11083    4                END;

      930    11084    3             GOTO WRITE_IT;

  11084  2 003320   003774 710000 2                  TRA     WRITE_IT

      931    11085    3          CASE ( 314 );              /* SHOW PROTECT */

      932    11086    3             IF S_D.PROTECT

  11086  2 003321   000000 470400 xsym               LDP0    S_D$
         2 003322   005254 234100                    SZN     2732,,PR0
PL6.E3A0      #001=DDA$SHOW File=DDA$SHOW.:E05TSI                                TUE 07/29/97 13:35 Page:148
         2 003323   003332 605000 2                  TPL     s:11092

      933    11087    4             THEN DO;

      934    11088    4                  S_D.OUTPUT = 'PROTECT';

  11088  2 003324   040100 100400                    MLR     fill='040'O
         2 003325   000661 000007 0                  ADSC9   COMPIDS+203              cn=0,n=7
         2 003326   005335 004000                    ADSC9   2781,,PR0                cn=0,n=2048

      935    11089    4                  SIZE = LENGTHC( 'PROTECT' );

  11089  2 003327   000007 236007                    LDQ     7,DL
         2 003330   200017 756100                    STQ     SIZE,,AUTO

      936    11090    4                END;

  11090  2 003331   003347 710000 2                  TRA     s:11101

      937    11091    4             ELSE DO;

      938    11092    5                  IF NOT S_D.SIM_UPDATE THEN DO;

  11092  2 003332   006766 234100                    SZN     3574,,PR0
         2 003333   003342 604000 2                  TMI     s:11097

      939    11093    5                       S_D.OUTPUT = 'PROTECT killed';

  11093  2 003334   040100 100400                    MLR     fill='040'O
         2 003335   000663 000016 0                  ADSC9   COMPIDS+205              cn=0,n=14
         2 003336   005335 004000                    ADSC9   2781,,PR0                cn=0,n=2048

      940    11094    5                       SIZE = LENGTHC( 'PROTECT killed' );

  11094  2 003337   000016 236007                    LDQ     14,DL
         2 003340   200017 756100                    STQ     SIZE,,AUTO

PL6.E3A0      #001=DDA$SHOW File=DDA$SHOW.:E05TSI                                TUE 07/29/97 13:35 Page:149
      941    11095    5                     END;

  11095  2 003341   003347 710000 2                  TRA     s:11101

      942    11096    5                  ELSE DO;

      943    11097    5                       S_D.OUTPUT = 'Kill PROTECT';

  11097  2 003342   040100 100400                    MLR     fill='040'O
         2 003343   000667 000014 0                  ADSC9   COMPIDS+209              cn=0,n=12
         2 003344   005335 004000                    ADSC9   2781,,PR0                cn=0,n=2048

      944    11098    5                       SIZE = 12;

  11098  2 003345   000014 236007                    LDQ     12,DL
         2 003346   200017 756100                    STQ     SIZE,,AUTO

      945    11099    5                     END;

      946    11100    4                END;

      947    11101    3             GOTO WRITE_IT;

  11101  2 003347   003774 710000 2                  TRA     WRITE_IT

      948    11102    3          CASE ( 322 );               /* SHOW STATUS */

      949    11103    4             IF D_XDELTA THEN DO;

  11103  2 003350   000000 234000 xsym               SZN     D_XDELTA
         2 003351   003357 605000 2                  TPL     s:11107

      950    11104    4                  S_D.ERROR = 18;

  11104  2 003352   000022 236007                    LDQ     18,DL
         2 003353   000000 470400 xsym               LDP0    S_D$
         2 003354   000013 756100                    STQ     11,,PR0
PL6.E3A0      #001=DDA$SHOW File=DDA$SHOW.:E05TSI                                TUE 07/29/97 13:35 Page:150

      951    11105    4                  ALTRETURN;

  11105  2 003355   200044 221300                    LDX1  ! UNODE+5,,AUTO
         2 003356   000000 702211                    TSX2  ! 0,X1

      952    11106    4                END;
      953    11107    3             IF S_D.STATUS

  11107  2 003357   000000 470400 xsym               LDP0    S_D$
         2 003360   006746 234100                    SZN     3558,,PR0
         2 003361   003370 605000 2                  TPL     s:11113

      954    11108    4             THEN DO;

      955    11109    4                  S_D.OUTPUT = 'STATUS';

  11109  2 003362   040100 100400                    MLR     fill='040'O
         2 003363   000672 000006 0                  ADSC9   COMPIDS+212              cn=0,n=6
         2 003364   005335 004000                    ADSC9   2781,,PR0                cn=0,n=2048

      956    11110    4                  SIZE = LENGTHC( 'STATUS' );

  11110  2 003365   000006 236007                    LDQ     6,DL
         2 003366   200017 756100                    STQ     SIZE,,AUTO

      957    11111    4                END;

  11111  2 003367   003405 710000 2                  TRA     s:11122

      958    11112    4             ELSE DO;

      959    11113    5                  IF NOT S_D.SIM_UPDATE THEN DO;

  11113  2 003370   006766 234100                    SZN     3574,,PR0
         2 003371   003400 604000 2                  TMI     s:11118

PL6.E3A0      #001=DDA$SHOW File=DDA$SHOW.:E05TSI                                TUE 07/29/97 13:35 Page:151
      960    11114    5                       S_D.OUTPUT = 'STATUS killed';

  11114  2 003372   040100 100400                    MLR     fill='040'O
         2 003373   000674 000015 0                  ADSC9   COMPIDS+214              cn=0,n=13
         2 003374   005335 004000                    ADSC9   2781,,PR0                cn=0,n=2048

      961    11115    5                       SIZE = LENGTHC( 'STATUS killed' );

  11115  2 003375   000015 236007                    LDQ     13,DL
         2 003376   200017 756100                    STQ     SIZE,,AUTO

      962    11116    5                     END;

  11116  2 003377   003405 710000 2                  TRA     s:11122

      963    11117    5                  ELSE DO;

      964    11118    5                       S_D.OUTPUT = 'Kill STATUS';

  11118  2 003400   040100 100400                    MLR     fill='040'O
         2 003401   000700 000013 0                  ADSC9   COMPIDS+218              cn=0,n=11
         2 003402   005335 004000                    ADSC9   2781,,PR0                cn=0,n=2048

      965    11119    5                       SIZE = 11;

  11119  2 003403   000013 236007                    LDQ     11,DL
         2 003404   200017 756100                    STQ     SIZE,,AUTO

      966    11120    5                     END;

      967    11121    4                END;

      968    11122    3             GOTO WRITE_IT;

  11122  2 003405   003774 710000 2                  TRA     WRITE_IT

      969    11123    3          CASE ( 315 );                /* SHOW DEBUG */
PL6.E3A0      #001=DDA$SHOW File=DDA$SHOW.:E05TSI                                TUE 07/29/97 13:35 Page:152

      970    11124    3             IF S_D.DEBUGF ~= 0

  11124  2 003406   000000 470400 xsym               LDP0    S_D$
         2 003407   000053 235100                    LDA     43,,PR0
         2 003410   003772 600000 2                  TZE     SHOWTYPE_RETN

      971    11125    4             THEN DO;

      972    11126    4                  IF S_D.DEBUGF = BITBIN( '777777777777'O )

  11126  2 003411   000053 236100                    LDQ     43,,PR0
         2 003412   000027 116000 xsym               CMPQ    B_VECTNIL+23
         2 003413   003422 601000 2                  TNZ     s:11132

      973    11127    5                  THEN DO;

      974    11128    5                       S_D.OUTPUT = 'DEBUG All';

  11128  2 003414   040100 100400                    MLR     fill='040'O
         2 003415   000703 000011 0                  ADSC9   COMPIDS+221              cn=0,n=9
         2 003416   005335 004000                    ADSC9   2781,,PR0                cn=0,n=2048

      975    11129    5                       SIZE = LENGTHC( 'DEBUG All' );

  11129  2 003417   000011 235007                    LDA     9,DL
         2 003420   200017 755100                    STA     SIZE,,AUTO

      976    11130    5                     END;

  11130  2 003421   003505 710000 2                  TRA     s:11145

      977    11131    5                  ELSE DO;

      978    11132    5                       S_D.OUTPUT = 'DEBUG ';

  11132  2 003422   040100 100400                    MLR     fill='040'O
PL6.E3A0      #001=DDA$SHOW File=DDA$SHOW.:E05TSI                                TUE 07/29/97 13:35 Page:153
         2 003423   000703 000006 0                  ADSC9   COMPIDS+221              cn=0,n=6
         2 003424   005335 004000                    ADSC9   2781,,PR0                cn=0,n=2048

      979    11133    5                       BB$ = PINCRC( BUF$, LENGTHC( 'DEBUG ' ) );

  11133  2 003425   200023 236100                    LDQ     BUF$,,AUTO
         2 003426   000017 036000 3                  ADLQ    15
         2 003427   200011 756100                    STQ     BB$,,AUTO

      980    11134    6                       DO DEFI = 0 TO SIZEB( DEFI ) -1;

  11134  2 003430   200010 450100                    STZ     DEFI,,AUTO
         2 003431   003472 710000 2                  TRA     s:11142+1

      981    11135    6                            IF S_D.DEBUGA( DEFI )

  11135  2 003432   200010 235100                    LDA     DEFI,,AUTO
         2 003433   003435 605000 2                  TPL     s:11135+3
         2 003434   000044 035003                    ADLA    36,DU
         2 003435   000000 470400 xsym               LDP0    S_D$
         2 003436   000000 066505                    CMPB    filb='0'B
         2 003437   000053 000001                    BDSC    43,A,PR0                 by=0,bit=0,n=1
         2 003440   000002 000022 xsym               BDSC    B_VECTNIL+2              by=0,bit=0,n=18
         2 003441   003471 600000 2                  TZE     s:11142

      982    11136    7                            THEN DO;

      983    11137    7                                 CALL DDR$BINTXT( BB$, DEFI, %UINT_FMT, NCARS );

  11137  2 003442   200014 631500                    EPPR1   NCARS,,AUTO
         2 003443   200063 451500                    STP1    FPRG_CONTEXT_SAVE$+4,,AUTO
         2 003444   000032 236000 3                  LDQ     26
         2 003445   200062 756100                    STQ     FPRG_CONTEXT_SAVE$+3,,AUTO
         2 003446   200010 633500                    EPPR3   DEFI,,AUTO
         2 003447   200061 453500                    STP3    FPRG_CONTEXT_SAVE$+2,,AUTO
         2 003450   200011 634500                    EPPR4   BB$,,AUTO
         2 003451   200060 454500                    STP4    FPRG_CONTEXT_SAVE$+1,,AUTO
PL6.E3A0      #001=DDA$SHOW File=DDA$SHOW.:E05TSI                                TUE 07/29/97 13:35 Page:154
         2 003452   200060 630500                    EPPR0   FPRG_CONTEXT_SAVE$+1,,AUTO
         2 003453   000022 631400 xsym               EPPR1   B_VECTNIL+18
         2 003454   000000 701000 xent               TSX1    DDR$BINTXT
         2 003455   000000 011000                    NOP     0

      984    11138    7                                 BB$ = PINCRC( BB$, NCARS );

  11138  2 003456   200014 236100                    LDQ     NCARS,,AUTO
         2 003457   000020 736000                    QLS     16
         2 003460   200011 036100                    ADLQ    BB$,,AUTO
         2 003461   200011 756100                    STQ     BB$,,AUTO

      985    11139    7                                 BB$ -> CHAR1 = ',';

  11139  2 003462   200011 470500                    LDP0    BB$,,AUTO
         2 003463   040100 100400                    MLR     fill='040'O
         2 003464   000033 000001 3                  ADSC9   27                       cn=0,n=1
         2 003465   000000 000001                    ADSC9   0,,PR0                   cn=0,n=1

      986    11140    7                                 BB$ = PINCRC( BB$, 1 );

  11140  2 003466   200011 236100                    LDQ     BB$,,AUTO
         2 003467   200000 036007                    ADLQ    65536,DL
         2 003470   200011 756100                    STQ     BB$,,AUTO

      987    11141    7                               END;

      988    11142    6                          END;

  11142  2 003471   200010 054100                    AOS     DEFI,,AUTO
         2 003472   200010 235100                    LDA     DEFI,,AUTO
         2 003473   000043 115007                    CMPA    35,DL
         2 003474   003432 604400 2                  TMOZ    s:11135

      989    11143    5                       SIZE = POFFC( BB$, BUF$ ) -1;

  11143  2 003475   200023 236100                    LDQ     BUF$,,AUTO
PL6.E3A0      #001=DDA$SHOW File=DDA$SHOW.:E05TSI                                TUE 07/29/97 13:35 Page:155
         2 003476   000020 772000                    QRL     16
         2 003477   200060 756100                    STQ     FPRG_CONTEXT_SAVE$+1,,AUTO
         2 003500   200011 236100                    LDQ     BB$,,AUTO
         2 003501   000020 772000                    QRL     16
         2 003502   200060 136100                    SBLQ    FPRG_CONTEXT_SAVE$+1,,AUTO
         2 003503   000001 136007                    SBLQ    1,DL
         2 003504   200017 756100                    STQ     SIZE,,AUTO

      990    11144    5                     END;

      991    11145    4                  GOTO WRITE_IT;

  11145  2 003505   003774 710000 2                  TRA     WRITE_IT

      992    11146    4                END;
      993    11147    3          CASE(318);                   /* FPRGS */

      994    11148    3             NONE = '0'B;

  11148  2 003506   200021 450100                    STZ     NONE,,AUTO

      995    11149    3             SAVE_CONTEXT$ = S_D.CURRENT_FPRG_CONTEXT$;

  11149  2 003507   000000 470400 xsym               LDP0    S_D$
         2 003510   000102 236100                    LDQ     66,,PR0
         2 003511   200030 756100                    STQ     SAVE_CONTEXT$,,AUTO

      996    11150    3             IF S_D.FPRG_CONTEXT$ = ADDR(NIL)

  11150  2 003512   000076 236100                    LDQ     62,,PR0
         2 003513   000001 116000 xsym               CMPQ    B_VECTNIL+1
         2 003514   003520 601000 2                  TNZ     s:11155

      997    11151    4             THEN DO;

      998    11152    4                  S_D.ERROR = 314; /* E@NOFPRGS_SHOW */

PL6.E3A0      #001=DDA$SHOW File=DDA$SHOW.:E05TSI                                TUE 07/29/97 13:35 Page:156
  11152  2 003515   000472 235007                    LDA     314,DL
         2 003516   000013 755100                    STA     11,,PR0

      999    11153    4                  GOTO ARET;

  11153  2 003517   004021 710000 2                  TRA     ARET

     1000    11154    4                END;
     1001    11155    3             TFPRG$ = S_D.FPRG_CONTEXT$;

  11155  2 003520   200027 756100                    STQ     TFPRG$,,AUTO

     1002    11156    4             DO WHILE (TFPRG$ ~= ADDR(NIL));

  11156  2 003521   003604 710000 2                  TRA     s:11174

     1003    11157    4                  S_D.CURRENT_FPRG_CONTEXT$ = TFPRG$;

  11157  2 003522   200027 236100                    LDQ     TFPRG$,,AUTO
         2 003523   000000 470400 xsym               LDP0    S_D$
         2 003524   000102 756100                    STQ     66,,PR0

     1004    11158    4                  CALL DFA$FPRG (TFPRG$ -> FPRG$CONTEXT.ADDRESS);

  11158  2 003525   000005 036003                    ADLQ    5,DU
         2 003526   200060 756100                    STQ     FPRG_CONTEXT_SAVE$+1,,AUTO
         2 003527   200060 630500                    EPPR0   FPRG_CONTEXT_SAVE$+1,,AUTO
         2 003530   000017 631400 xsym               EPPR1   B_VECTNIL+15
         2 003531   000000 701000 xent               TSX1    DFA$FPRG
         2 003532   000000 011000                    NOP     0

     1005    11159    5                  DO CASE(TFPRG$ -> FPRG$CONTEXT.STATE);

  11159  2 003533   200027 470500                    LDP0    TFPRG$,,AUTO
         2 003534   000001 220100                    LDX0    1,,PR0
         2 003535   000777 360003                    ANX0    511,DU
         2 003536   000005 100003                    CMPX0   5,DU
PL6.E3A0      #001=DDA$SHOW File=DDA$SHOW.:E05TSI                                TUE 07/29/97 13:35 Page:157
         2 003537   003541 602010 2                  TNC     s:11159+6,X0
         2 003540   003572 710000 2                  TRA     s:11169
         2 003541   003572 710000 2                  TRA     s:11169
         2 003542   003546 710000 2                  TRA     s:11161
         2 003543   003553 710000 2                  TRA     s:11163
         2 003544   003560 710000 2                  TRA     s:11165
         2 003545   003565 710000 2                  TRA     s:11167

     1006    11160    5                    CASE(%RUNNING);

     1007    11161    5                       CALL DFR$REPORT(%R_FPRG_RUN);

  11161  2 003546   000002 630400 3                  EPPR0   2
         2 003547   000017 631400 xsym               EPPR1   B_VECTNIL+15
         2 003550   000000 701000 xent               TSX1    DFR$REPORT
         2 003551   000000 011000                    NOP     0
         2 003552   003601 710000 2                  TRA     s:11173

     1008    11162    5                    CASE(%STOPPED);

     1009    11163    5                       CALL DFR$REPORT(%R_FPRG_STOP);

  11163  2 003553   000013 630400 3                  EPPR0   11
         2 003554   000017 631400 xsym               EPPR1   B_VECTNIL+15
         2 003555   000000 701000 xent               TSX1    DFR$REPORT
         2 003556   000000 011000                    NOP     0
         2 003557   003601 710000 2                  TRA     s:11173

     1010    11164    5                    CASE(%DISASSOCIATED);

     1011    11165    5                       CALL DFR$REPORT(%R_FPRG_DISASSOC);

  11165  2 003560   000034 630400 3                  EPPR0   28
         2 003561   000017 631400 xsym               EPPR1   B_VECTNIL+15
         2 003562   000000 701000 xent               TSX1    DFR$REPORT
         2 003563   000000 011000                    NOP     0
         2 003564   003601 710000 2                  TRA     s:11173
PL6.E3A0      #001=DDA$SHOW File=DDA$SHOW.:E05TSI                                TUE 07/29/97 13:35 Page:158

     1012    11166    5                    CASE(%ATEXIT);

     1013    11167    5                       CALL DFR$REPORT(%R_FPRG_ATEXIT);

  11167  2 003565   000035 630400 3                  EPPR0   29
         2 003566   000017 631400 xsym               EPPR1   B_VECTNIL+15
         2 003567   000000 701000 xent               TSX1    DFR$REPORT
         2 003570   000000 011000                    NOP     0
         2 003571   003601 710000 2                  TRA     s:11173

     1014    11168    5                    CASE(ELSE);

     1015    11169    5                       S_D.ERROR = 502;

  11169  2 003572   000766 235007                    LDA     502,DL
         2 003573   000000 471400 xsym               LDP1    S_D$
         2 003574   100013 755100                    STA     11,,PR1

     1016    11170    5                       CALL DDE$ERROR;

  11170  2 003575   000002 631400 xsym               EPPR1   B_VECTNIL+2
         2 003576   000000 701000 xent               TSX1    DDE$ERROR
         2 003577   000000 011000                    NOP     0

     1017    11171    5                       GOTO SHOWTYPE_RETN;

  11171  2 003600   003772 710000 2                  TRA     SHOWTYPE_RETN

     1018    11172    5                    END;

     1019    11173    4                  TFPRG$ = TFPRG$ -> FPRG$CONTEXT.NEXT$;

  11173  2 003601   200027 470500                    LDP0    TFPRG$,,AUTO
         2 003602   000000 236100                    LDQ     0,,PR0
         2 003603   200027 756100                    STQ     TFPRG$,,AUTO

PL6.E3A0      #001=DDA$SHOW File=DDA$SHOW.:E05TSI                                TUE 07/29/97 13:35 Page:159
     1020    11174    4                END;

  11174  2 003604   000001 116000 xsym               CMPQ    B_VECTNIL+1
         2 003605   003522 601000 2                  TNZ     s:11157

     1021    11175    3             S_D.CURRENT_FPRG_CONTEXT$ = SAVE_CONTEXT$;

  11175  2 003606   200030 236100                    LDQ     SAVE_CONTEXT$,,AUTO
         2 003607   000000 470400 xsym               LDP0    S_D$
         2 003610   000102 756100                    STQ     66,,PR0

     1022    11176    3             IF SAVE_CONTEXT$ = ADDR(NIL)

  11176  2 003611   000001 116000 xsym               CMPQ    B_VECTNIL+1
         2 003612   003617 601000 2                  TNZ     s:11178

     1023    11177    3             THEN CALL DFA$KILL_FPRG;

  11177  2 003613   000002 631400 xsym               EPPR1   B_VECTNIL+2
         2 003614   000000 701000 xent               TSX1    DFA$KILL_FPRG
         2 003615   000000 011000                    NOP     0
         2 003616   003772 710000 2                  TRA     SHOWTYPE_RETN

     1024    11178    3             ELSE CALL DFA$FPRG(SAVE_CONTEXT$ -> FPRG$CONTEXT.ADDRESS);

  11178  2 003617   000005 036003                    ADLQ    5,DU
         2 003620   200060 756100                    STQ     FPRG_CONTEXT_SAVE$+1,,AUTO
         2 003621   200060 630500                    EPPR0   FPRG_CONTEXT_SAVE$+1,,AUTO
         2 003622   000017 631400 xsym               EPPR1   B_VECTNIL+15
         2 003623   000000 701000 xent               TSX1    DFA$FPRG
         2 003624   000000 011000                    NOP     0
         2 003625   003772 710000 2                  TRA     SHOWTYPE_RETN

     1025    11179    3          CASE(319);

     1026    11180    3             NONE = '0'B;

PL6.E3A0      #001=DDA$SHOW File=DDA$SHOW.:E05TSI                                TUE 07/29/97 13:35 Page:160
  11180  2 003626   200021 450100                    STZ     NONE,,AUTO

     1027    11181    3             SAVE_CONTEXT$ = S_D.CURRENT_FPRG_CONTEXT$;

  11181  2 003627   000000 470400 xsym               LDP0    S_D$
         2 003630   000102 236100                    LDQ     66,,PR0
         2 003631   200030 756100                    STQ     SAVE_CONTEXT$,,AUTO

     1028    11182    3             IF S_D.FPRG_CONTEXT$ = ADDR(NIL)

  11182  2 003632   000076 236100                    LDQ     62,,PR0
         2 003633   000001 116000 xsym               CMPQ    B_VECTNIL+1
         2 003634   003640 601000 2                  TNZ     s:11187

     1029    11183    4             THEN DO;

     1030    11184    4                  S_D.ERROR = 278;    /* E@NOFPRG */

  11184  2 003635   000426 235007                    LDA     278,DL
         2 003636   000013 755100                    STA     11,,PR0

     1031    11185    4                  GOTO ARET;

  11185  2 003637   004021 710000 2                  TRA     ARET

     1032    11186    4                END;
     1033    11187    3             TFPRG$ = S_D.FPRG_CONTEXT$;

  11187  2 003640   200027 756100                    STQ     TFPRG$,,AUTO

     1034    11188    4             DO WHILE (TFPRG$ -> FPRG$CONTEXT.RES ~= S_D.DO$ -> S$HOW.FPRG_RES);

  11188  2 003641   000031 471500                    LDP1    25,,PR0
         2 003642   200027 473500                    LDP3    TFPRG$,,AUTO
         2 003643   040100 106500                    CMPC    fill='040'O
         2 003644   300002 000010                    ADSC9   2,,PR3                   cn=0,n=8
         2 003645   100003 000010                    ADSC9   3,,PR1                   cn=0,n=8
PL6.E3A0      #001=DDA$SHOW File=DDA$SHOW.:E05TSI                                TUE 07/29/97 13:35 Page:161
         2 003646   003667 600000 2                  TZE     s:11196

     1035    11189    4                  TFPRG$ = TFPRG$ -> FPRG$CONTEXT.NEXT$;

  11189  2 003647   200027 470500                    LDP0    TFPRG$,,AUTO
         2 003650   000000 236100                    LDQ     0,,PR0
         2 003651   200027 756100                    STQ     TFPRG$,,AUTO

     1036    11190    4                  IF TFPRG$ = ADDR(NIL)

  11190  2 003652   000001 116000 xsym               CMPQ    B_VECTNIL+1
         2 003653   003660 601000 2                  TNZ     s:11195

     1037    11191    5                  THEN DO;

     1038    11192    5                       S_D.ERROR = 278;

  11192  2 003654   000426 235007                    LDA     278,DL
         2 003655   000000 470400 xsym               LDP0    S_D$
         2 003656   000013 755100                    STA     11,,PR0

     1039    11193    5                       GOTO ARET;

  11193  2 003657   004021 710000 2                  TRA     ARET

     1040    11194    5                     END;
     1041    11195    4                END;

  11195  2 003660   000000 470400 xsym               LDP0    S_D$
         2 003661   000031 471500                    LDP1    25,,PR0
         2 003662   200027 473500                    LDP3    TFPRG$,,AUTO
         2 003663   040100 106500                    CMPC    fill='040'O
         2 003664   300002 000010                    ADSC9   2,,PR3                   cn=0,n=8
         2 003665   100003 000010                    ADSC9   3,,PR1                   cn=0,n=8
         2 003666   003647 601000 2                  TNZ     s:11189

     1042    11196    3             S_D.CURRENT_FPRG_CONTEXT$ =TFPRG$;
PL6.E3A0      #001=DDA$SHOW File=DDA$SHOW.:E05TSI                                TUE 07/29/97 13:35 Page:162

  11196  2 003667   000102 756100                    STQ     66,,PR0

     1043    11197    3             CALL DFA$FPRG(TFPRG$ -> FPRG$CONTEXT.ADDRESS);

  11197  2 003670   000005 036003                    ADLQ    5,DU
         2 003671   200060 756100                    STQ     FPRG_CONTEXT_SAVE$+1,,AUTO
         2 003672   200060 630500                    EPPR0   FPRG_CONTEXT_SAVE$+1,,AUTO
         2 003673   000017 631400 xsym               EPPR1   B_VECTNIL+15
         2 003674   000000 701000 xent               TSX1    DFA$FPRG
         2 003675   000000 011000                    NOP     0

     1044    11198    4             DO CASE(TFPRG$ -> FPRG$CONTEXT.STATE);

  11198  2 003676   200027 470500                    LDP0    TFPRG$,,AUTO
         2 003677   000001 220100                    LDX0    1,,PR0
         2 003700   000777 360003                    ANX0    511,DU
         2 003701   000005 100003                    CMPX0   5,DU
         2 003702   003704 602010 2                  TNC     s:11198+6,X0
         2 003703   003735 710000 2                  TRA     s:11208
         2 003704   003735 710000 2                  TRA     s:11208
         2 003705   003711 710000 2                  TRA     s:11200
         2 003706   003716 710000 2                  TRA     s:11202
         2 003707   003723 710000 2                  TRA     s:11204
         2 003710   003730 710000 2                  TRA     s:11206

     1045    11199    4               CASE(%RUNNING);

     1046    11200    4                  CALL DFR$REPORT(%R_FPRG_RUN);

  11200  2 003711   000002 630400 3                  EPPR0   2
         2 003712   000017 631400 xsym               EPPR1   B_VECTNIL+15
         2 003713   000000 701000 xent               TSX1    DFR$REPORT
         2 003714   000000 011000                    NOP     0
         2 003715   003744 710000 2                  TRA     s:11212

     1047    11201    4               CASE(%STOPPED);
PL6.E3A0      #001=DDA$SHOW File=DDA$SHOW.:E05TSI                                TUE 07/29/97 13:35 Page:163

     1048    11202    4                  CALL DFR$REPORT(%R_FPRG_STOP);

  11202  2 003716   000013 630400 3                  EPPR0   11
         2 003717   000017 631400 xsym               EPPR1   B_VECTNIL+15
         2 003720   000000 701000 xent               TSX1    DFR$REPORT
         2 003721   000000 011000                    NOP     0
         2 003722   003744 710000 2                  TRA     s:11212

     1049    11203    4               CASE(%DISASSOCIATED);

     1050    11204    4                  CALL DFR$REPORT(%R_FPRG_DISASSOC);

  11204  2 003723   000034 630400 3                  EPPR0   28
         2 003724   000017 631400 xsym               EPPR1   B_VECTNIL+15
         2 003725   000000 701000 xent               TSX1    DFR$REPORT
         2 003726   000000 011000                    NOP     0
         2 003727   003744 710000 2                  TRA     s:11212

     1051    11205    4               CASE(%ATEXIT);

     1052    11206    4                  CALL DFR$REPORT(%R_FPRG_ATEXIT);

  11206  2 003730   000035 630400 3                  EPPR0   29
         2 003731   000017 631400 xsym               EPPR1   B_VECTNIL+15
         2 003732   000000 701000 xent               TSX1    DFR$REPORT
         2 003733   000000 011000                    NOP     0
         2 003734   003744 710000 2                  TRA     s:11212

     1053    11207    4               CASE(ELSE);

     1054    11208    4                  S_D.ERROR = 502;    /* E@DELBUG */

  11208  2 003735   000766 235007                    LDA     502,DL
         2 003736   000000 471400 xsym               LDP1    S_D$
         2 003737   100013 755100                    STA     11,,PR1

PL6.E3A0      #001=DDA$SHOW File=DDA$SHOW.:E05TSI                                TUE 07/29/97 13:35 Page:164
     1055    11209    4                  CALL DDE$ERROR;

  11209  2 003740   000002 631400 xsym               EPPR1   B_VECTNIL+2
         2 003741   000000 701000 xent               TSX1    DDE$ERROR
         2 003742   000000 011000                    NOP     0

     1056    11210    4                  GOTO SHOWTYPE_RETN;

  11210  2 003743   003772 710000 2                  TRA     SHOWTYPE_RETN

     1057    11211    4               END;

     1058    11212    3             S_D.CURRENT_FPRG_CONTEXT$ = SAVE_CONTEXT$;

  11212  2 003744   200030 236100                    LDQ     SAVE_CONTEXT$,,AUTO
         2 003745   000000 470400 xsym               LDP0    S_D$
         2 003746   000102 756100                    STQ     66,,PR0

     1059    11213    3             IF SAVE_CONTEXT$ = ADDR(NIL)

  11213  2 003747   000001 116000 xsym               CMPQ    B_VECTNIL+1
         2 003750   003755 601000 2                  TNZ     s:11215

     1060    11214    3             THEN CALL DFA$KILL_FPRG;

  11214  2 003751   000002 631400 xsym               EPPR1   B_VECTNIL+2
         2 003752   000000 701000 xent               TSX1    DFA$KILL_FPRG
         2 003753   000000 011000                    NOP     0
         2 003754   003772 710000 2                  TRA     SHOWTYPE_RETN

     1061    11215    3             ELSE CALL DFA$FPRG(SAVE_CONTEXT$ -> FPRG$CONTEXT.ADDRESS);

  11215  2 003755   000005 036003                    ADLQ    5,DU
         2 003756   200060 756100                    STQ     FPRG_CONTEXT_SAVE$+1,,AUTO
         2 003757   200060 630500                    EPPR0   FPRG_CONTEXT_SAVE$+1,,AUTO
         2 003760   000017 631400 xsym               EPPR1   B_VECTNIL+15
         2 003761   000000 701000 xent               TSX1    DFA$FPRG
PL6.E3A0      #001=DDA$SHOW File=DDA$SHOW.:E05TSI                                TUE 07/29/97 13:35 Page:165
         2 003762   000000 011000                    NOP     0
         2 003763   003772 710000 2                  TRA     SHOWTYPE_RETN

     1062    11216    3          CASE(ELSE);                      /* WHAT'S THIS ? */

     1063    11217    3             S_D.ERROR = 502;         /* E@DELBUG */

  11217  2 003764   000766 236007                    LDQ     502,DL
         2 003765   000000 470400 xsym               LDP0    S_D$
         2 003766   000013 756100                    STQ     11,,PR0

     1064    11218    3             CALL DDE$ERROR;

  11218  2 003767   000002 631400 xsym               EPPR1   B_VECTNIL+2
         2 003770   000000 701000 xent               TSX1    DDE$ERROR
         2 003771   000000 011000                    NOP     0

     1065    11219    3          END;

  11215  2 003772                       SHOWTYPE_RE* null
     1066    11220                                                /**/
     1067    11221    2   SHOWTYPE_RETN: ;
     1068    11222    2        RETURN;

  11222  2 003772   200044 221300                    LDX1  ! UNODE+5,,AUTO
         2 003773   000001 702211                    TSX2  ! 1,X1

  11215  2 003774                       WRITE_IT     null
     1069    11223    2   WRITE_IT: ;
     1070    11224    2        CALL DDQ$WRITED(ADDR(S_D.OUTPUT), SIZE);

  11224  2 003774   000000 236000 xsym               LDQ     S_D$
         2 003775   005335 036003                    ADLQ    2781,DU
         2 003776   200060 756100                    STQ     FPRG_CONTEXT_SAVE$+1,,AUTO
         2 003777   200017 630500                    EPPR0   SIZE,,AUTO
         2 004000   200063 450500                    STP0    FPRG_CONTEXT_SAVE$+4,,AUTO
         2 004001   200060 631500                    EPPR1   FPRG_CONTEXT_SAVE$+1,,AUTO
PL6.E3A0      #001=DDA$SHOW File=DDA$SHOW.:E05TSI                                TUE 07/29/97 13:35 Page:166
         2 004002   200062 451500                    STP1    FPRG_CONTEXT_SAVE$+3,,AUTO
         2 004003   200062 630500                    EPPR0   FPRG_CONTEXT_SAVE$+3,,AUTO
         2 004004   000020 631400 xsym               EPPR1   B_VECTNIL+16
         2 004005   000000 701000 xent               TSX1    DDQ$WRITED
         2 004006   000000 011000                    NOP     0

     1071    11225    2   RET:
     1072    11226    2        NONE='0'B;

  11226  2 004007   200021 450100       RET          STZ     NONE,,AUTO

     1073    11227    2        RETURN;

  11227  2 004010   200044 221300                    LDX1  ! UNODE+5,,AUTO
         2 004011   000001 702211                    TSX2  ! 1,X1

     1074    11228                                                /**/
     1075    11229    2   ERR7: S_D.ERROR = 18; GOTO ARET;   /* E@UERR7 */

  11229  2 004012   000022 236007       ERR7         LDQ     18,DL
         2 004013   000000 470400 xsym               LDP0    S_D$
         2 004014   000013 756100                    STQ     11,,PR0

  11229  2 004015   004021 710000 2                  TRA     ARET

     1076    11230    2   ERRO: S_D.ERROR = 117; GOTO ARET; /* E@NOT_OVERLAID */

  11230  2 004016   000165 236007       ERRO         LDQ     117,DL
         2 004017   000013 756100                    STQ     11,,PR0

  11230  2 004020   004021 710000 2                  TRA     ARET

  11227  2 004021                       ARET         null
     1077    11231    2   ARET: ;
     1078    11232    2        ALTRETURN;

  11232  2 004021   200044 221300                    LDX1  ! UNODE+5,,AUTO
PL6.E3A0      #001=DDA$SHOW File=DDA$SHOW.:E05TSI                                TUE 07/29/97 13:35 Page:167
         2 004022   000000 702211                    TSX2  ! 0,X1

     1079    11233        %EJECT;
PL6.E3A0      #001=DDA$SHOW File=DDA$SHOW.:E05TSI                                TUE 07/29/97 13:35 Page:168
     1080    11234    2   BLD_OPTIONS: PROC(OPT);

  11234  2 004023   200046 741300       BLD_OPTIONS  STX1  ! STX+1,,AUTO

     1081    11235    3   DCL 1 OPT ALIGNED,
     1082    11236    3         2 MON BIT(5) UNAL,
     1083    11237    3         2 ARITHMETIC BIT(2) UNAL,
     1084    11238    3         2 PROGRAMMED BIT(3) UNAL,
     1085    11239    3         2 ERROR BIT(10) UNAL,
     1086    11240    3         2 * BIT(16) UNAL;
     1087    11241    3   DCL 1 OPT_BIT(0:35) REDEF OPT BIT(1);
     1088    11242    3   DCL I UBIN;
     1089    11243                                                /**/
     1090    11244    4        IF OPT = '777777777777'O THEN DO;

  11244  2 004024   200047 470500                    LDP0    @OPT,,AUTO
         2 004025   000000 236100                    LDQ     0,,PR0
         2 004026   000027 116000 xsym               CMPQ    B_VECTNIL+23
         2 004027   004040 601000 2                  TNZ     s:11248

     1091    11245    4             BB$->CHAR4 = 'All';

  11245  2 004030   200011 471500                    LDP1    BB$,,AUTO
         2 004031   040100 100400                    MLR     fill='040'O
         2 004032   000706 000003 0                  ADSC9   COMPIDS+224              cn=0,n=3
         2 004033   100000 000004                    ADSC9   0,,PR1                   cn=0,n=4

     1092    11246    4             SIZE = SIZE + 3;

  11246  2 004034   200017 235100                    LDA     SIZE,,AUTO
         2 004035   000003 035007                    ADLA    3,DL
         2 004036   200017 755100                    STA     SIZE,,AUTO

     1093    11247    4           END;

  11247  2 004037   004256 710000 2                  TRA     s:11288

PL6.E3A0      #001=DDA$SHOW File=DDA$SHOW.:E05TSI                                TUE 07/29/97 13:35 Page:169
     1094    11248    4        ELSE IF OPT = '0'B THEN DO;

  11248  2 004040   000000 116003                    CMPQ    0,DU
         2 004041   004052 601000 2                  TNZ     s:11253

     1095    11249    4                  BB$->CHAR4 = 'None';

  11249  2 004042   200011 471500                    LDP1    BB$,,AUTO
         2 004043   040100 100400                    MLR     fill='040'O
         2 004044   000707 000004 0                  ADSC9   COMPIDS+225              cn=0,n=4
         2 004045   100000 000004                    ADSC9   0,,PR1                   cn=0,n=4

     1096    11250    4                  SIZE = SIZE+4;

  11250  2 004046   200017 235100                    LDA     SIZE,,AUTO
         2 004047   000004 035007                    ADLA    4,DL
         2 004050   200017 755100                    STA     SIZE,,AUTO

     1097    11251    4                END;

  11251  2 004051   004256 710000 2                  TRA     s:11288

     1098    11252    4             ELSE DO;

     1099    11253    4                  IF OPT.MON = '11111'B

  11253  2 004052   760000 376003                    ANQ     -8192,DU
         2 004053   760000 116003                    CMPQ    -8192,DU
         2 004054   004070 601000 2                  TNZ     s:11259

     1100    11254    5                  THEN DO;

     1101    11255    5                       BB$->CHAR8 = 'Monitor,';

  11255  2 004055   200011 471500                    LDP1    BB$,,AUTO
         2 004056   040100 100400                    MLR     fill='040'O
         2 004057   000710 000010 0                  ADSC9   COMPIDS+226              cn=0,n=8
PL6.E3A0      #001=DDA$SHOW File=DDA$SHOW.:E05TSI                                TUE 07/29/97 13:35 Page:170
         2 004060   100000 000010                    ADSC9   0,,PR1                   cn=0,n=8

     1102    11256    5                       BB$ = PINCRC(BB$,8);

  11256  2 004061   200011 236100                    LDQ     BB$,,AUTO
         2 004062   000002 036003                    ADLQ    2,DU
         2 004063   200011 756100                    STQ     BB$,,AUTO

     1103    11257    5                       SIZE = SIZE+8;

  11257  2 004064   200017 235100                    LDA     SIZE,,AUTO
         2 004065   000010 035007                    ADLA    8,DL
         2 004066   200017 755100                    STA     SIZE,,AUTO

     1104    11258    5                     END;

  11258  2 004067   004106 710000 2                  TRA     s:11262

     1105    11259    5                  ELSE DO I = 0 TO 4;

  11259  2 004070   200050 450100                    STZ     I,,AUTO

     1106    11260    5                       IF OPT_BIT(I) THEN CALL MOVE_NAME;

  11260  2 004071   200047 470500                    LDP0    @OPT,,AUTO
         2 004072   200050 235100                    LDA     I,,AUTO
         2 004073   000000 066505                    CMPB    filb='0'B
         2 004074   000000 000001                    BDSC    0,A,PR0                  by=0,bit=0,n=1
         2 004075   000002 000022 xsym               BDSC    B_VECTNIL+2              by=0,bit=0,n=18
         2 004076   004101 600000 2                  TZE     s:11261

  11260  2 004077   004260 701000 2                  TSX1    MOVE_NAME
         2 004100   000000 011000                    NOP     0

     1107    11261    5                     END;

  11261  2 004101   200050 235100                    LDA     I,,AUTO
PL6.E3A0      #001=DDA$SHOW File=DDA$SHOW.:E05TSI                                TUE 07/29/97 13:35 Page:171
         2 004102   000001 035007                    ADLA    1,DL
         2 004103   200050 755100                    STA     I,,AUTO
         2 004104   000005 115007                    CMPA    5,DL
         2 004105   004071 602000 2                  TNC     s:11260

     1108    11262    5                  IF OPT.ARITHMETIC = '11'B THEN DO;

  11262  2 004106   200047 470500                    LDP0    @OPT,,AUTO
         2 004107   000000 236100                    LDQ     0,,PR0
         2 004110   014000 376003                    ANQ     6144,DU
         2 004111   014000 116003                    CMPQ    6144,DU
         2 004112   004126 601000 2                  TNZ     s:11267

     1109    11263    5                       BB$->CHAR16 = 'Arithmetic,';

  11263  2 004113   200011 471500                    LDP1    BB$,,AUTO
         2 004114   040100 100400                    MLR     fill='040'O
         2 004115   000712 000013 0                  ADSC9   COMPIDS+228              cn=0,n=11
         2 004116   100000 000020                    ADSC9   0,,PR1                   cn=0,n=16

     1110    11264    5                       SIZE = SIZE + 11;

  11264  2 004117   200017 235100                    LDA     SIZE,,AUTO
         2 004120   000013 035007                    ADLA    11,DL
         2 004121   200017 755100                    STA     SIZE,,AUTO

     1111    11265    5                       BB$ = PINCRC(BB$, 11);

  11265  2 004122   200011 236100                    LDQ     BB$,,AUTO
         2 004123   000025 036000 3                  ADLQ    21
         2 004124   200011 756100                    STQ     BB$,,AUTO

     1112    11266    5                     END;

  11266  2 004125   004145 710000 2                  TRA     s:11270

     1113    11267    5                  ELSE DO I = 5 TO 6;
PL6.E3A0      #001=DDA$SHOW File=DDA$SHOW.:E05TSI                                TUE 07/29/97 13:35 Page:172

  11267  2 004126   000005 235007                    LDA     5,DL
         2 004127   200050 755100                    STA     I,,AUTO

     1114    11268    5                       IF OPT_BIT(I) THEN CALL MOVE_NAME;

  11268  2 004130   200047 470500                    LDP0    @OPT,,AUTO
         2 004131   200050 235100                    LDA     I,,AUTO
         2 004132   000000 066505                    CMPB    filb='0'B
         2 004133   000000 000001                    BDSC    0,A,PR0                  by=0,bit=0,n=1
         2 004134   000002 000022 xsym               BDSC    B_VECTNIL+2              by=0,bit=0,n=18
         2 004135   004140 600000 2                  TZE     s:11269

  11268  2 004136   004260 701000 2                  TSX1    MOVE_NAME
         2 004137   000000 011000                    NOP     0

     1115    11269    5                     END;

  11269  2 004140   200050 235100                    LDA     I,,AUTO
         2 004141   000001 035007                    ADLA    1,DL
         2 004142   200050 755100                    STA     I,,AUTO
         2 004143   000007 115007                    CMPA    7,DL
         2 004144   004130 602000 2                  TNC     s:11268

     1116    11270    5                  IF OPT.PROGRAMMED = '111'B THEN DO;

  11270  2 004145   200047 470500                    LDP0    @OPT,,AUTO
         2 004146   000000 236100                    LDQ     0,,PR0
         2 004147   003400 376003                    ANQ     1792,DU
         2 004150   003400 116003                    CMPQ    1792,DU
         2 004151   004165 601000 2                  TNZ     s:11275

     1117    11271    5                       BB$->CHAR16 = 'Programmed,';

  11271  2 004152   200011 471500                    LDP1    BB$,,AUTO
         2 004153   040100 100400                    MLR     fill='040'O
         2 004154   000715 000013 0                  ADSC9   COMPIDS+231              cn=0,n=11
PL6.E3A0      #001=DDA$SHOW File=DDA$SHOW.:E05TSI                                TUE 07/29/97 13:35 Page:173
         2 004155   100000 000020                    ADSC9   0,,PR1                   cn=0,n=16

     1118    11272    5                       SIZE = SIZE + 11;

  11272  2 004156   200017 235100                    LDA     SIZE,,AUTO
         2 004157   000013 035007                    ADLA    11,DL
         2 004160   200017 755100                    STA     SIZE,,AUTO

     1119    11273    5                       BB$ = PINCRC(BB$, 11);

  11273  2 004161   200011 236100                    LDQ     BB$,,AUTO
         2 004162   000025 036000 3                  ADLQ    21
         2 004163   200011 756100                    STQ     BB$,,AUTO

     1120    11274    5                     END;

  11274  2 004164   004204 710000 2                  TRA     s:11278

     1121    11275    5                  ELSE DO I = 7 TO 9;

  11275  2 004165   000007 235007                    LDA     7,DL
         2 004166   200050 755100                    STA     I,,AUTO

     1122    11276    5                       IF OPT_BIT(I) THEN CALL MOVE_NAME;

  11276  2 004167   200047 470500                    LDP0    @OPT,,AUTO
         2 004170   200050 235100                    LDA     I,,AUTO
         2 004171   000000 066505                    CMPB    filb='0'B
         2 004172   000000 000001                    BDSC    0,A,PR0                  by=0,bit=0,n=1
         2 004173   000002 000022 xsym               BDSC    B_VECTNIL+2              by=0,bit=0,n=18
         2 004174   004177 600000 2                  TZE     s:11277

  11276  2 004175   004260 701000 2                  TSX1    MOVE_NAME
         2 004176   000000 011000                    NOP     0

     1123    11277    5                     END;

PL6.E3A0      #001=DDA$SHOW File=DDA$SHOW.:E05TSI                                TUE 07/29/97 13:35 Page:174
  11277  2 004177   200050 235100                    LDA     I,,AUTO
         2 004200   000001 035007                    ADLA    1,DL
         2 004201   200050 755100                    STA     I,,AUTO
         2 004202   000012 115007                    CMPA    10,DL
         2 004203   004167 602000 2                  TNC     s:11276

     1124    11278    5                  IF OPT.ERROR = '1111111111'B OR OPT.ERROR = '1111111001'B THEN DO;

  11278  2 004204   200047 470500                    LDP0    @OPT,,AUTO
         2 004205   000000 236100                    LDQ     0,,PR0
         2 004206   000036 376000 3                  ANQ     30
         2 004207   000036 116000 3                  CMPQ    30
         2 004210   004215 600000 2                  TZE     s:11279
         2 004211   000000 236100                    LDQ     0,,PR0
         2 004212   000036 376000 3                  ANQ     30
         2 004213   000037 116000 3                  CMPQ    31
         2 004214   004230 601000 2                  TNZ     s:11283

     1125    11279    5                       BB$->CHAR8 = 'Error,';

  11279  2 004215   200011 471500                    LDP1    BB$,,AUTO
         2 004216   040100 100400                    MLR     fill='040'O
         2 004217   000720 000006 0                  ADSC9   COMPIDS+234              cn=0,n=6
         2 004220   100000 000010                    ADSC9   0,,PR1                   cn=0,n=8

     1126    11280    5                       SIZE = SIZE + 6;

  11280  2 004221   200017 235100                    LDA     SIZE,,AUTO
         2 004222   000006 035007                    ADLA    6,DL
         2 004223   200017 755100                    STA     SIZE,,AUTO

     1127    11281    5                       BB$ = PINCRC(BB$, 6);

  11281  2 004224   200011 236100                    LDQ     BB$,,AUTO
         2 004225   000017 036000 3                  ADLQ    15
         2 004226   200011 756100                    STQ     BB$,,AUTO

PL6.E3A0      #001=DDA$SHOW File=DDA$SHOW.:E05TSI                                TUE 07/29/97 13:35 Page:175
     1128    11282    5                     END;

  11282  2 004227   004253 710000 2                  TRA     s:11286

     1129    11283    5                  ELSE DO I = 10 TO 19;

  11283  2 004230   000012 235007                    LDA     10,DL
         2 004231   200050 755100                    STA     I,,AUTO

     1130    11284    5                       IF I ~= 17 AND I ~= 18 AND OPT_BIT(I) THEN CALL MOVE_NAME;

  11284  2 004232   200050 235100                    LDA     I,,AUTO
         2 004233   000021 115007                    CMPA    17,DL
         2 004234   004246 600000 2                  TZE     s:11285
         2 004235   000022 115007                    CMPA    18,DL
         2 004236   004246 600000 2                  TZE     s:11285
         2 004237   200047 470500                    LDP0    @OPT,,AUTO
         2 004240   000000 066505                    CMPB    filb='0'B
         2 004241   000000 000001                    BDSC    0,A,PR0                  by=0,bit=0,n=1
         2 004242   000002 000022 xsym               BDSC    B_VECTNIL+2              by=0,bit=0,n=18
         2 004243   004246 600000 2                  TZE     s:11285

  11284  2 004244   004260 701000 2                  TSX1    MOVE_NAME
         2 004245   000000 011000                    NOP     0

     1131    11285    5                     END;

  11285  2 004246   200050 235100                    LDA     I,,AUTO
         2 004247   000001 035007                    ADLA    1,DL
         2 004250   200050 755100                    STA     I,,AUTO
         2 004251   000024 115007                    CMPA    20,DL
         2 004252   004232 602000 2                  TNC     s:11284

     1132    11286    4                  SIZE = SIZE - 1;

  11286  2 004253   200017 235100                    LDA     SIZE,,AUTO
         2 004254   000001 135007                    SBLA    1,DL
PL6.E3A0      #001=DDA$SHOW File=DDA$SHOW.:E05TSI                                TUE 07/29/97 13:35 Page:176
         2 004255   200017 755100                    STA     SIZE,,AUTO

     1133    11287    4                END;

     1134    11288    3        RETURN;

  11288  2 004256   200046 221300                    LDX1  ! STX+1,,AUTO
         2 004257   000001 702211                    TSX2  ! 1,X1

     1135    11289    3   MOVE_NAME: PROC;

  11289  2 004260   200052 741300       MOVE_NAME    STX1  ! I+1,,AUTO

     1136    11290    4        BB$->CHAR16 = EXCON_NAME(I);

  11290  2 004261   200050 235100                    LDA     I,,AUTO
         2 004262   000004 735000                    ALS     4
         2 004263   200011 470500                    LDP0    BB$,,AUTO
         2 004264   040100 100405                    MLR     fill='040'O
         2 004265   000033 000020 0                  ADSC9   EXCON_NAME,A             cn=0,n=16
         2 004266   000000 000020                    ADSC9   0,,PR0                   cn=0,n=16

     1137    11291    4        SIZE = SIZE + EXCON_SIZE(I);

  11291  2 004267   200050 720100                    LXL0    I,,AUTO
         2 004270   200017 236100                    LDQ     SIZE,,AUTO
         2 004271   000153 036010 0                  ADLQ    EXCON_SIZE,X0
         2 004272   200017 756100                    STQ     SIZE,,AUTO

     1138    11292    4        BB$ = PINCRC(BB$, EXCON_SIZE(I));

  11292  2 004273   000153 236010 0                  LDQ     EXCON_SIZE,X0
         2 004274   000020 736000                    QLS     16
         2 004275   200011 036100                    ADLQ    BB$,,AUTO
         2 004276   200011 756100                    STQ     BB$,,AUTO

     1139    11293    4        RETURN;
PL6.E3A0      #001=DDA$SHOW File=DDA$SHOW.:E05TSI                                TUE 07/29/97 13:35 Page:177

  11293  2 004277   200052 221300                    LDX1  ! I+1,,AUTO
         2 004300   000001 702211                    TSX2  ! 1,X1

     1140    11294    4   END MOVE_NAME;
     1141    11295    3   END BLD_OPTIONS;
     1142    11296        %EJECT;
PL6.E3A0      #001=DDA$SHOW File=DDA$SHOW.:E05TSI                                TUE 07/29/97 13:35 Page:178
     1143    11297    2   BLD_OPTIONS_L6: PROC(FPRG$, OPT_L6);

  11297  2 004301   200046 741300       BLD_OPTIONS* STX1  ! STX+1,,AUTO

     1144    11298    3   DCL FPRG$ PTR;
     1145    11299    3   DCL 1 OPT_L6 ALIGNED,
     1146    11300    3         2 MCL BIT(1),
     1147    11301    3         2 ALL REDEF MCL BIT(1),
     1148    11302    3         2 EVENT BIT(1),
     1149    11303    3         2 NONE REDEF EVENT BIT(1),
     1150    11304    3         2 BREAK BIT(1),
     1151    11305    3         2 MON REDEF BREAK BIT(1),
     1152    11306    3         2 XCON BIT(1),
     1153    11307    3         2 SCREECH REDEF XCON BIT(1),
     1154    11308    3         2 TRAP BIT(1),
     1155    11309    3         2 ARITHMETIC BIT(1);
     1156    11310    3   DCL REM UBIN;
     1157    11311
     1158    11312    3        BB$ -> CHAR1 = '(';

  11312  2 004302   200011 470500                    LDP0    BB$,,AUTO
         2 004303   040100 100400                    MLR     fill='040'O
         2 004304   000031 000001 3                  ADSC9   25                       cn=0,n=1
         2 004305   000000 000001                    ADSC9   0,,PR0                   cn=0,n=1

     1159    11313    3        SIZE = SIZE + 1;

  11313  2 004306   200017 235100                    LDA     SIZE,,AUTO
         2 004307   000001 035007                    ADLA    1,DL
         2 004310   200017 755100                    STA     SIZE,,AUTO

     1160    11314    3        BB$ = PINCRC(BB$, 1);

  11314  2 004311   200011 236100                    LDQ     BB$,,AUTO
         2 004312   200000 036007                    ADLQ    65536,DL
         2 004313   200011 756100                    STQ     BB$,,AUTO

PL6.E3A0      #001=DDA$SHOW File=DDA$SHOW.:E05TSI                                TUE 07/29/97 13:35 Page:179
     1161    11315    3        REM = SIZEC(S_D.OUTPUT) - 8;

  11315  2 004314   003770 235007                    LDA     2040,DL
         2 004315   200051 755100                    STA     REM,,AUTO

     1162    11316    3       CALL DDR$MOVE(SUBSTR(TFPRG$->FPRG$CONTEXT.RES, 0, TFPRG$->FPRG$CONTEXT.RES_SIZE
             11316                 -1),

  11316  2 004316   200027 470500                    LDP0    TFPRG$,,AUTO
         2 004317   000004 720100                    LXL0    4,,PR0
         2 004320   777777 621010                    EAX1    -1,X0
         2 004321   200051 631500                    EPPR1   REM,,AUTO
         2 004322   200063 451500                    STP1    FPRG_CONTEXT_SAVE$+4,,AUTO
         2 004323   200011 633500                    EPPR3   BB$,,AUTO
         2 004324   200062 453500                    STP3    FPRG_CONTEXT_SAVE$+3,,AUTO
         2 004325   200027 236100                    LDQ     TFPRG$,,AUTO
         2 004326   000004 036003                    ADLQ    4,DU
         2 004327   200061 756100                    STQ     FPRG_CONTEXT_SAVE$+2,,AUTO
         2 004330   200027 236100                    LDQ     TFPRG$,,AUTO
         2 004331   000002 036003                    ADLQ    2,DU
         2 004332   200060 756100                    STQ     FPRG_CONTEXT_SAVE$+1,,AUTO
         2 004333   200060 630500                    EPPR0   FPRG_CONTEXT_SAVE$+1,,AUTO
         2 004334   000022 631400 xsym               EPPR1   B_VECTNIL+18
         2 004335   000000 701000 xent               TSX1    DDR$MOVE
         2 004336   000000 011000                    NOP     0

     1163    11317    3          TFPRG$->FPRG$CONTEXT.RES_SIZE, BB$, REM);
     1164    11318    3        BB$ -> CHAR4 = ') ';

  11318  2 004337   200011 470500                    LDP0    BB$,,AUTO
         2 004340   040100 100400                    MLR     fill='040'O
         2 004341   000722 000002 0                  ADSC9   COMPIDS+236              cn=0,n=2
         2 004342   000000 000004                    ADSC9   0,,PR0                   cn=0,n=4

     1165    11319    3        SIZE = SIZE + 2 + TFPRG$->FPRG$CONTEXT.RES_SIZE;

  11319  2 004343   200027 470500                    LDP0    TFPRG$,,AUTO
PL6.E3A0      #001=DDA$SHOW File=DDA$SHOW.:E05TSI                                TUE 07/29/97 13:35 Page:180
         2 004344   200017 236100                    LDQ     SIZE,,AUTO
         2 004345   000004 036100                    ADLQ    4,,PR0
         2 004346   000002 036007                    ADLQ    2,DL
         2 004347   200017 756100                    STQ     SIZE,,AUTO

     1166    11320    3        BB$ = PINCRC(BB$, 2);

  11320  2 004350   200011 236100                    LDQ     BB$,,AUTO
         2 004351   400000 036007                    ADLQ    -131072,DL
         2 004352   200011 756100                    STQ     BB$,,AUTO

     1167    11321    3        IF FPRG$ -> FPRG$CONTEXT.XDELTA

  11321  2 004353   200047 471500                    LDP1    @FPRG$,,AUTO
         2 004354   100000 473500                    LDP3    0,,PR1
         2 004355   300001 236100                    LDQ     1,,PR3
         2 004356   002000 316003                    CANQ    1024,DU
         2 004357   004431 600000 2                  TZE     s:11345

     1168    11322    4        THEN DO;

     1169    11323    4             IF OPT_L6.ALL

  11323  2 004360   200050 474500                    LDP4    @OPT_L6,,AUTO
         2 004361   400000 234100                    SZN     0,,PR4
         2 004362   004372 605000 2                  TPL     s:11328

     1170    11324    5             THEN DO;

     1171    11325    5                  BB$->CHAR4 = 'All';

  11325  2 004363   200011 475500                    LDP5    BB$,,AUTO
         2 004364   040100 100400                    MLR     fill='040'O
         2 004365   000706 000003 0                  ADSC9   COMPIDS+224              cn=0,n=3
         2 004366   500000 000004                    ADSC9   0,,PR5                   cn=0,n=4

     1172    11326    5                  SIZE = SIZE + 3;
PL6.E3A0      #001=DDA$SHOW File=DDA$SHOW.:E05TSI                                TUE 07/29/97 13:35 Page:181

  11326  2 004367   200017 235100                    LDA     SIZE,,AUTO
         2 004370   000003 035007                    ADLA    3,DL
         2 004371   200017 755100                    STA     SIZE,,AUTO

     1173    11327    5                END;

     1174    11328    4             IF OPT_L6.NONE

  11328  2 004372   400000 236100                    LDQ     0,,PR4
         2 004373   200000 316003                    CANQ    65536,DU
         2 004374   004404 600000 2                  TZE     s:11333

     1175    11329    5             THEN DO;

     1176    11330    5                  BB$->CHAR4 = 'None';

  11330  2 004375   200011 470500                    LDP0    BB$,,AUTO
         2 004376   040100 100400                    MLR     fill='040'O
         2 004377   000707 000004 0                  ADSC9   COMPIDS+225              cn=0,n=4
         2 004400   000000 000004                    ADSC9   0,,PR0                   cn=0,n=4

     1177    11331    5                  SIZE = SIZE + 4;

  11331  2 004401   200017 235100                    LDA     SIZE,,AUTO
         2 004402   000004 035007                    ADLA    4,DL
         2 004403   200017 755100                    STA     SIZE,,AUTO

     1178    11332    5                END;

     1179    11333    4             IF OPT_L6.MON

  11333  2 004404   400000 236100                    LDQ     0,,PR4
         2 004405   100000 316003                    CANQ    32768,DU
         2 004406   004416 600000 2                  TZE     s:11338

     1180    11334    5             THEN DO;
PL6.E3A0      #001=DDA$SHOW File=DDA$SHOW.:E05TSI                                TUE 07/29/97 13:35 Page:182

     1181    11335    5                  BB$->CHAR8 = 'Monitor';

  11335  2 004407   200011 470500                    LDP0    BB$,,AUTO
         2 004410   040100 100400                    MLR     fill='040'O
         2 004411   000710 000007 0                  ADSC9   COMPIDS+226              cn=0,n=7
         2 004412   000000 000010                    ADSC9   0,,PR0                   cn=0,n=8

     1182    11336    5                  SIZE = SIZE + 7;

  11336  2 004413   200017 235100                    LDA     SIZE,,AUTO
         2 004414   000007 035007                    ADLA    7,DL
         2 004415   200017 755100                    STA     SIZE,,AUTO

     1183    11337    5                END;

     1184    11338    4             IF OPT_L6.SCREECH

  11338  2 004416   400000 236100                    LDQ     0,,PR4
         2 004417   040000 316003                    CANQ    16384,DU
         2 004420   004566 600000 2                  TZE     s:11390

     1185    11339    5             THEN DO;

     1186    11340    5                  BB$->CHAR8 = 'Screech';

  11340  2 004421   200011 470500                    LDP0    BB$,,AUTO
         2 004422   040100 100400                    MLR     fill='040'O
         2 004423   000723 000007 0                  ADSC9   COMPIDS+237              cn=0,n=7
         2 004424   000000 000010                    ADSC9   0,,PR0                   cn=0,n=8

     1187    11341    5                  SIZE = SIZE + 7;

  11341  2 004425   200017 235100                    LDA     SIZE,,AUTO
         2 004426   000007 035007                    ADLA    7,DL
         2 004427   200017 755100                    STA     SIZE,,AUTO

PL6.E3A0      #001=DDA$SHOW File=DDA$SHOW.:E05TSI                                TUE 07/29/97 13:35 Page:183
     1188    11342    5                END;

     1189    11343    4           END;

  11343  2 004430   004566 710000 2                  TRA     s:11390

     1190    11344    4        ELSE DO;

     1191    11345    4             IF OPT_L6 = '77'O

  11345  2 004431   200050 474500                    LDP4    @OPT_L6,,AUTO
         2 004432   400000 236100                    LDQ     0,,PR4
         2 004433   770000 376003                    ANQ     -4096,DU
         2 004434   770000 116003                    CMPQ    -4096,DU
         2 004435   004446 601000 2                  TNZ     s:11351

     1192    11346    5             THEN DO;

     1193    11347    5                  BB$->CHAR4 = 'All';

  11347  2 004436   200011 475500                    LDP5    BB$,,AUTO
         2 004437   040100 100400                    MLR     fill='040'O
         2 004440   000706 000003 0                  ADSC9   COMPIDS+224              cn=0,n=3
         2 004441   500000 000004                    ADSC9   0,,PR5                   cn=0,n=4

     1194    11348    5                  SIZE = SIZE + 3;

  11348  2 004442   200017 235100                    LDA     SIZE,,AUTO
         2 004443   000003 035007                    ADLA    3,DL
         2 004444   200017 755100                    STA     SIZE,,AUTO

     1195    11349    5                END;

  11349  2 004445   004566 710000 2                  TRA     s:11390

     1196    11350    5             ELSE DO;

PL6.E3A0      #001=DDA$SHOW File=DDA$SHOW.:E05TSI                                TUE 07/29/97 13:35 Page:184
     1197    11351    5                  IF OPT_L6.MCL

  11351  2 004446   400000 234100                    SZN     0,,PR4
         2 004447   004462 605000 2                  TPL     s:11357

     1198    11352    6                  THEN DO;

     1199    11353    6                       BB$->CHAR4 = 'MCL,';

  11353  2 004450   200011 475500                    LDP5    BB$,,AUTO
         2 004451   040100 100400                    MLR     fill='040'O
         2 004452   000725 000004 0                  ADSC9   COMPIDS+239              cn=0,n=4
         2 004453   500000 000004                    ADSC9   0,,PR5                   cn=0,n=4

     1200    11354    6                       BB$ = PINCRC(BB$,4);

  11354  2 004454   200011 236100                    LDQ     BB$,,AUTO
         2 004455   000001 036003                    ADLQ    1,DU
         2 004456   200011 756100                    STQ     BB$,,AUTO

     1201    11355    6                       SIZE = SIZE + 4;

  11355  2 004457   200017 235100                    LDA     SIZE,,AUTO
         2 004460   000004 035007                    ADLA    4,DL
         2 004461   200017 755100                    STA     SIZE,,AUTO

     1202    11356    6                     END;

     1203    11357    5                  IF OPT_L6.EVENT

  11357  2 004462   400000 236100                    LDQ     0,,PR4
         2 004463   200000 316003                    CANQ    65536,DU
         2 004464   004477 600000 2                  TZE     s:11363

     1204    11358    6                  THEN DO;

     1205    11359    6                       BB$->CHAR7 = 'Event,';
PL6.E3A0      #001=DDA$SHOW File=DDA$SHOW.:E05TSI                                TUE 07/29/97 13:35 Page:185

  11359  2 004465   200011 470500                    LDP0    BB$,,AUTO
         2 004466   040100 100400                    MLR     fill='040'O
         2 004467   000726 000006 0                  ADSC9   COMPIDS+240              cn=0,n=6
         2 004470   000000 000007                    ADSC9   0,,PR0                   cn=0,n=7

     1206    11360    6                       BB$ = PINCRC(BB$, 6);

  11360  2 004471   200011 236100                    LDQ     BB$,,AUTO
         2 004472   000017 036000 3                  ADLQ    15
         2 004473   200011 756100                    STQ     BB$,,AUTO

     1207    11361    6                       SIZE = SIZE + 6;

  11361  2 004474   200017 235100                    LDA     SIZE,,AUTO
         2 004475   000006 035007                    ADLA    6,DL
         2 004476   200017 755100                    STA     SIZE,,AUTO

     1208    11362    6                     END;

     1209    11363    5                  IF OPT_L6.BREAK

  11363  2 004477   400000 236100                    LDQ     0,,PR4
         2 004500   100000 316003                    CANQ    32768,DU
         2 004501   004514 600000 2                  TZE     s:11369

     1210    11364    6                  THEN DO;

     1211    11365    6                       BB$->CHAR7 = 'Break,';

  11365  2 004502   200011 470500                    LDP0    BB$,,AUTO
         2 004503   040100 100400                    MLR     fill='040'O
         2 004504   000730 000006 0                  ADSC9   COMPIDS+242              cn=0,n=6
         2 004505   000000 000007                    ADSC9   0,,PR0                   cn=0,n=7

     1212    11366    6                       BB$ = PINCRC(BB$, 6);

PL6.E3A0      #001=DDA$SHOW File=DDA$SHOW.:E05TSI                                TUE 07/29/97 13:35 Page:186
  11366  2 004506   200011 236100                    LDQ     BB$,,AUTO
         2 004507   000017 036000 3                  ADLQ    15
         2 004510   200011 756100                    STQ     BB$,,AUTO

     1213    11367    6                       SIZE = SIZE + 6;

  11367  2 004511   200017 235100                    LDA     SIZE,,AUTO
         2 004512   000006 035007                    ADLA    6,DL
         2 004513   200017 755100                    STA     SIZE,,AUTO

     1214    11368    6                     END;

     1215    11369    5                  IF OPT_L6.XCON

  11369  2 004514   400000 236100                    LDQ     0,,PR4
         2 004515   040000 316003                    CANQ    16384,DU
         2 004516   004531 600000 2                  TZE     s:11375

     1216    11370    6                  THEN DO;

     1217    11371    6                       BB$->CHAR5 = 'Xcon,';

  11371  2 004517   200011 470500                    LDP0    BB$,,AUTO
         2 004520   040100 100400                    MLR     fill='040'O
         2 004521   000732 000005 0                  ADSC9   COMPIDS+244              cn=0,n=5
         2 004522   000000 000005                    ADSC9   0,,PR0                   cn=0,n=5

     1218    11372    6                       BB$ = PINCRC(BB$, 5);

  11372  2 004523   200011 236100                    LDQ     BB$,,AUTO
         2 004524   000016 036000 3                  ADLQ    14
         2 004525   200011 756100                    STQ     BB$,,AUTO

     1219    11373    6                       SIZE = SIZE + 5;

  11373  2 004526   200017 235100                    LDA     SIZE,,AUTO
         2 004527   000005 035007                    ADLA    5,DL
PL6.E3A0      #001=DDA$SHOW File=DDA$SHOW.:E05TSI                                TUE 07/29/97 13:35 Page:187
         2 004530   200017 755100                    STA     SIZE,,AUTO

     1220    11374    6                     END;

     1221    11375    5                  IF OPT_L6.TRAP

  11375  2 004531   400000 236100                    LDQ     0,,PR4
         2 004532   020000 316003                    CANQ    8192,DU
         2 004533   004546 600000 2                  TZE     s:11381

     1222    11376    6                  THEN DO;

     1223    11377    6                       BB$->CHAR5 = 'Trap,';

  11377  2 004534   200011 470500                    LDP0    BB$,,AUTO
         2 004535   040100 100400                    MLR     fill='040'O
         2 004536   000734 000005 0                  ADSC9   COMPIDS+246              cn=0,n=5
         2 004537   000000 000005                    ADSC9   0,,PR0                   cn=0,n=5

     1224    11378    6                       BB$ = PINCRC(BB$, 5);

  11378  2 004540   200011 236100                    LDQ     BB$,,AUTO
         2 004541   000016 036000 3                  ADLQ    14
         2 004542   200011 756100                    STQ     BB$,,AUTO

     1225    11379    6                       SIZE = SIZE + 5;

  11379  2 004543   200017 235100                    LDA     SIZE,,AUTO
         2 004544   000005 035007                    ADLA    5,DL
         2 004545   200017 755100                    STA     SIZE,,AUTO

     1226    11380    6                     END;

     1227    11381    5                  IF OPT_L6.ARITHMETIC

  11381  2 004546   400000 236100                    LDQ     0,,PR4
         2 004547   010000 316003                    CANQ    4096,DU
PL6.E3A0      #001=DDA$SHOW File=DDA$SHOW.:E05TSI                                TUE 07/29/97 13:35 Page:188
         2 004550   004563 600000 2                  TZE     s:11387

     1228    11382    6                  THEN DO;

     1229    11383    6                       BB$->CHAR16 = 'Arithmetic,';

  11383  2 004551   200011 470500                    LDP0    BB$,,AUTO
         2 004552   040100 100400                    MLR     fill='040'O
         2 004553   000712 000013 0                  ADSC9   COMPIDS+228              cn=0,n=11
         2 004554   000000 000020                    ADSC9   0,,PR0                   cn=0,n=16

     1230    11384    6                       BB$ = PINCRC(BB$, 11);

  11384  2 004555   200011 236100                    LDQ     BB$,,AUTO
         2 004556   000025 036000 3                  ADLQ    21
         2 004557   200011 756100                    STQ     BB$,,AUTO

     1231    11385    6                       SIZE = SIZE + 11;

  11385  2 004560   200017 235100                    LDA     SIZE,,AUTO
         2 004561   000013 035007                    ADLA    11,DL
         2 004562   200017 755100                    STA     SIZE,,AUTO

     1232    11386    6                     END;

     1233    11387    5                  SIZE = SIZE - 1;

  11387  2 004563   200017 235100                    LDA     SIZE,,AUTO
         2 004564   000001 135007                    SBLA    1,DL
         2 004565   200017 755100                    STA     SIZE,,AUTO

     1234    11388    5                END;

     1235    11389    4           END;

     1236    11390    3        RETURN;

PL6.E3A0      #001=DDA$SHOW File=DDA$SHOW.:E05TSI                                TUE 07/29/97 13:35 Page:189
  11390  2 004566   200046 221300                    LDX1  ! STX+1,,AUTO
         2 004567   000001 702211                    TSX2  ! 1,X1

     1237    11391    3   END BLD_OPTIONS_L6;
     1238    11392        %EJECT;
PL6.E3A0      #001=DDA$SHOW File=DDA$SHOW.:E05TSI                                TUE 07/29/97 13:35 Page:190
     1239    11393                                                /**/
     1240    11394    2   SHOW_FIX: PROC;

  11394  2 004570   200046 741300       SHOW_FIX     STX1  ! STX+1,,AUTO

     1241    11395                                                /**/
     1242    11396    3   DCL NODE UBIN;
     1243    11397    3   DCL CNODE UBIN;
     1244    11398    3   DCL I UBIN;
     1245    11399    3   DCL TREE$ PTR;
     1246    11400    3   DCL ISADDR UBIN;
     1247    11401    3   DCL SAVE_EWSQ# UBIN;
     1248    11402    3   DCL ATT$ PTR;
     1249    11403    3   DCL FPRG_SAVE BIT(1) ALIGNED;
     1250    11404    3   DCL FPRG_CONTEXT_SAVE$ PTR;
     1251    11405    3        FPRG_SAVE = S_D.FPRG;

  11405  2 004571   000000 470400 xsym               LDP0    S_D$
         2 004572   000101 236100                    LDQ     65,,PR0
         2 004573   400000 376003                    ANQ     -131072,DU
         2 004574   200056 756100                    STQ     FPRG_SAVE,,AUTO

     1252    11406    3        FPRG_CONTEXT_SAVE$ = S_D.CURRENT_FPRG_CONTEXT$;

  11406  2 004575   000102 236100                    LDQ     66,,PR0
         2 004576   200057 756100                    STQ     FPRG_CONTEXT_SAVE$,,AUTO

     1253    11407                                                /**/
     1254    11408    4        DO I = F_FROM TO F_TO;

  11408  2 004577   200005 235100                    LDA     F_FROM,,AUTO
         2 004600   200051 755100                    STA     I,,AUTO
         2 004601   005043 710000 2                  TRA     s:11471+3

     1255    11409    4             CALL DDB$BREAK ALTRET( SHOWFIX_RETN );

  11409  2 004602   000002 631400 xsym               EPPR1   B_VECTNIL+2
PL6.E3A0      #001=DDA$SHOW File=DDA$SHOW.:E05TSI                                TUE 07/29/97 13:35 Page:191
         2 004603   000000 701000 xent               TSX1    DDB$BREAK
         2 004604   005070 702000 2                  TSX2    SHOWFIX_RETN

     1256    11410    4             CCMD = S_D.FIXCOM.CMD( I );

  11410  2 004605   200051 236100                    LDQ     I,,AUTO
         2 004606   000006 402007                    MPY     6,DL
         2 004607   000000 470400 xsym               LDP0    S_D$
         2 004610   001212 236106                    LDQ     650,QL,PR0
         2 004611   000033 772000                    QRL     27
         2 004612   200020 756100                    STQ     CCMD,,AUTO

     1257    11411    4             IF CCMD ~= 0

  11411  2 004613   005040 600000 2                  TZE     s:11471

     1258    11412    4             THEN IF CMD = CCMD OR CMD = 0

  11412  2 004614   004617 604000 2                  TMI     s:11412+3
         2 004615   200007 116100                    CMPQ    CMD,,AUTO
         2 004616   004621 600000 2                  TZE     s:11414
         2 004617   200007 235100                    LDA     CMD,,AUTO
         2 004620   005040 601000 2                  TNZ     s:11471

     1259    11413    5                  THEN DO;

     1260    11414    5                       S_D.SHOW1 = I;

  11414  2 004621   200051 235100                    LDA     I,,AUTO
         2 004622   000064 755100                    STA     52,,PR0

     1261    11415    5                       NONE = '0'B;

  11415  2 004623   200021 450100                    STZ     NONE,,AUTO

     1262    11416    5                       IF S_D.OVERLAID AND NOT D_XDELTA AND ( CCMD = 2 OR /* C_AT */

PL6.E3A0      #001=DDA$SHOW File=DDA$SHOW.:E05TSI                                TUE 07/29/97 13:35 Page:192
  11416  2 004624   004764 234100                    SZN     2548,,PR0
         2 004625   004744 605000 2                  TPL     s:11443
         2 004626   000000 234000 xsym               SZN     D_XDELTA
         2 004627   004744 604000 2                  TMI     s:11443
         2 004630   000002 116007                    CMPQ    2,DL
         2 004631   004636 600000 2                  TZE     s:11420
         2 004632   000037 116007                    CMPQ    31,DL
         2 004633   004636 600000 2                  TZE     s:11420
         2 004634   000103 116007                    CMPQ    67,DL
         2 004635   004744 601000 2                  TNZ     s:11443

     1263    11417    5                         CCMD = 31 OR    /* C_OC */
     1264    11418    5                         CCMD = 67 )   /* C_WHEN */
     1265    11419    6                       THEN DO;

     1266    11420    6                            NODE = PINCRW(S_D.VARCOM$, S_D.FIXCOM.FAI( I ) ) ->
             11420                                     AT_FIRST.NODE;

  11420  2 004636   200051 236100                    LDQ     I,,AUTO
         2 004637   000006 402007                    MPY     6,DL
         2 004640   001214 720106                    LXL0    652,QL,PR0
         2 004641   004622 471500                    LDP1    2450,,PR0
         2 004642   100003 236110                    LDQ     3,X0,PR1
         2 004643   000022 772000                    QRL     18
         2 004644   200047 756100                    STQ     NODE,,AUTO

     1267    11421    6                            TREE$ = S_D.TREE$;

  11421  2 004645   004761 236100                    LDQ     2545,,PR0
         2 004646   200052 756100                    STQ     TREE$,,AUTO

     1268    11422    6                            IF NOT TREE$ -> DU$TREE.NOW_IN( NODE )

  11422  2 004647   200047 236100                    LDQ     NODE,,AUTO
         2 004650   000003 402007                    MPY     3,DL
         2 004651   200052 473500                    LDP3    TREE$,,AUTO
         2 004652   300002 234106                    SZN     2,QL,PR3
PL6.E3A0      #001=DDA$SHOW File=DDA$SHOW.:E05TSI                                TUE 07/29/97 13:35 Page:193
         2 004653   004740 604000 2                  TMI     s:11441

     1269    11423    7                            THEN DO;

     1270    11424    7                                 CNODE = S_D.NODE;

  11424  2 004654   004706 235100                    LDA     2502,,PR0
         2 004655   200050 755100                    STA     CNODE,,AUTO

     1271    11425    7                                 S_D.NODE = NODE;

  11425  2 004656   200047 235100                    LDA     NODE,,AUTO
         2 004657   004706 755100                    STA     2502,,PR0

     1272    11426    7                                 CALL DDS$EUTREE; /* Ignore altret */

  11426  2 004660   000002 631400 xsym               EPPR1   B_VECTNIL+2
         2 004661   000000 701000 xent               TSX1    DDS$EUTREE
         2 004662   000000 011000                    NOP     0

     1273    11427    7                                 S_D.TREE$ = S_D.UTREE$;

  11427  2 004663   000000 470400 xsym               LDP0    S_D$
         2 004664   004763 236100                    LDQ     2547,,PR0
         2 004665   004761 756100                    STQ     2545,,PR0

     1274    11428    7                                 ISADDR = S_D.B$TREE$ -> B$NODE.PADDR( NODE );

  11428  2 004666   004767 471500                    LDP1    2551,,PR0
         2 004667   200047 236100                    LDQ     NODE,,AUTO
         2 004670   000006 402007                    MPY     6,DL
         2 004671   100003 236106                    LDQ     3,QL,PR1
         2 004672   000022 772000                    QRL     18
         2 004673   200053 756100                    STQ     ISADDR,,AUTO

     1275    11429    7                                 CALL DDS$ES_INQ( ISADDR ); /* Ignore altret */

PL6.E3A0      #001=DDA$SHOW File=DDA$SHOW.:E05TSI                                TUE 07/29/97 13:35 Page:194
  11429  2 004674   200053 633500                    EPPR3   ISADDR,,AUTO
         2 004675   200060 453500                    STP3    FPRG_CONTEXT_SAVE$+1,,AUTO
         2 004676   200060 630500                    EPPR0   FPRG_CONTEXT_SAVE$+1,,AUTO
         2 004677   000017 631400 xsym               EPPR1   B_VECTNIL+15
         2 004700   000000 701000 xent               TSX1    DDS$ES_INQ
         2 004701   000000 011000                    NOP     0

     1276    11430    7                                 CALL DDA$SHOW1;

  11430  2 004702   000002 631400 xsym               EPPR1   B_VECTNIL+2
         2 004703   000000 701000 xent               TSX1    DDA$SHOW1
         2 004704   000000 011000                    NOP     0

     1277    11431    7                                 S_D.NODE = CNODE;

  11431  2 004705   000000 470400 xsym               LDP0    S_D$
         2 004706   200050 235100                    LDA     CNODE,,AUTO
         2 004707   004706 755100                    STA     2502,,PR0

     1278    11432    7                                 S_D.TREE$ = TREE$;

  11432  2 004710   200052 236100                    LDQ     TREE$,,AUTO
         2 004711   004761 756100                    STQ     2545,,PR0

     1279    11433    7                                 IF TREE$ = S_D.MTREE$

  11433  2 004712   004762 116100                    CMPQ    2546,,PR0
         2 004713   004717 601000 2                  TNZ     s:11436

     1280    11434    7                                 THEN ISADDR = S_D.SAVEIC;

  11434  2 004714   000002 235100                    LDA     2,,PR0
         2 004715   200053 755100                    STA     ISADDR,,AUTO
         2 004716   004731 710000 2                  TRA     s:11439

     1281    11435    8                                 ELSE DO;

PL6.E3A0      #001=DDA$SHOW File=DDA$SHOW.:E05TSI                                TUE 07/29/97 13:35 Page:195
     1282    11436    8                                      CALL DDS$EUTREE; /* Ignore altret */

  11436  2 004717   000002 631400 xsym               EPPR1   B_VECTNIL+2
         2 004720   000000 701000 xent               TSX1    DDS$EUTREE
         2 004721   000000 011000                    NOP     0

     1283    11437    8                                      ISADDR = S_D.B$TREE$ -> B$NODE.PADDR( CNODE );

  11437  2 004722   000000 470400 xsym               LDP0    S_D$
         2 004723   004767 471500                    LDP1    2551,,PR0
         2 004724   200050 236100                    LDQ     CNODE,,AUTO
         2 004725   000006 402007                    MPY     6,DL
         2 004726   100003 236106                    LDQ     3,QL,PR1
         2 004727   000022 772000                    QRL     18
         2 004730   200053 756100                    STQ     ISADDR,,AUTO

     1284    11438    8                                    END;

     1285    11439    7                                 CALL DDS$ES_INQ( ISADDR ); /* Ignore altret */

  11439  2 004731   200053 631500                    EPPR1   ISADDR,,AUTO
         2 004732   200060 451500                    STP1    FPRG_CONTEXT_SAVE$+1,,AUTO
         2 004733   200060 630500                    EPPR0   FPRG_CONTEXT_SAVE$+1,,AUTO
         2 004734   000017 631400 xsym               EPPR1   B_VECTNIL+15
         2 004735   000000 701000 xent               TSX1    DDS$ES_INQ
         2 004736   000000 011000                    NOP     0

     1286    11440    7                               END;

  11440  2 004737   005040 710000 2                  TRA     s:11471

     1287    11441    6                            ELSE CALL DDA$SHOW1;

  11441  2 004740   000002 631400 xsym               EPPR1   B_VECTNIL+2
         2 004741   000000 701000 xent               TSX1    DDA$SHOW1
         2 004742   000000 011000                    NOP     0

PL6.E3A0      #001=DDA$SHOW File=DDA$SHOW.:E05TSI                                TUE 07/29/97 13:35 Page:196
     1288    11442    6                          END;

  11442  2 004743   005040 710000 2                  TRA     s:11471

     1289    11443    5                       ELSE IF D_XDELTA

  11443  2 004744   000000 234000 xsym               SZN     D_XDELTA
         2 004745   005035 605000 2                  TPL     s:11469

     1290    11444    6                            THEN DO;

     1291    11445    6                                 SAVE_EWSQ# = S_D.EWSQ#;

  11445  2 004746   000011 235100                    LDA     9,,PR0
         2 004747   200054 755100                    STA     SAVE_EWSQ#,,AUTO

     1292    11446    6                                 USAVE = USE_REM; /* SAVE CURRENT USE */

  11446  2 004750   000100 100400                    MLR     fill='000'O
         2 004751   000000 000024 xsym               ADSC9   USE_REM                  cn=0,n=20
         2 004752   200032 000024                    ADSC9   USAVE,,AUTO              cn=0,n=20

     1293    11447    6                                 UNODE = S_D.UNODE.USENODE;

  11447  2 004753   004760 235100                    LDA     2544,,PR0
         2 004754   200037 755100                    STA     UNODE,,AUTO

     1294    11448    6                                 ATT$ = PINCRW(S_D.VARCOM$, S_D.FIXCOM.FAI(I) );

  11448  2 004755   200051 236100                    LDQ     I,,AUTO
         2 004756   000006 402007                    MPY     6,DL
         2 004757   001214 720106                    LXL0    652,QL,PR0
         2 004760   004622 471500                    LDP1    2450,,PR0
         2 004761   100000 633510                    EPPR3   0,X0,PR1
         2 004762   200055 453500                    STP3    ATT$,,AUTO

     1295    11449    6                                 IF S_D.FIXCOM.USER(I)
PL6.E3A0      #001=DDA$SHOW File=DDA$SHOW.:E05TSI                                TUE 07/29/97 13:35 Page:197

  11449  2 004763   001212 236106                    LDQ     650,QL,PR0
         2 004764   000001 316003                    CANQ    1,DU
         2 004765   005002 600000 2                  TZE     s:11457

     1296    11450    7                                 THEN DO;

     1297    11451    7                                      S_D.EWSQ# = 0;

  11451  2 004766   000011 450100                    STZ     9,,PR0

     1298    11452    7                                      U$SE.TYPE = 3; /* USE_USER@ */

  11452  2 004767   000003 235007                    LDA     3,DL
         2 004770   000000 474400 xsym               LDP4    USE$
         2 004771   400001 755100                    STA     1,,PR4

     1299    11453    7                                      U$SE.APT = ATT$ -> AT_FIRST.U.APT;

  11453  2 004772   300001 236100                    LDQ     1,,PR3
         2 004773   000022 772000                    QRL     18
         2 004774   400003 756100                    STQ     3,,PR4

     1300    11454    7                                      U$SE.LS = ATT$ -> AT_FIRST.U.LS;

  11454  2 004775   300001 236100                    LDQ     1,,PR3
         2 004776   000017 772000                    QRL     15
         2 004777   000007 376007                    ANQ     7,DL
         2 005000   400002 756100                    STQ     2,,PR4

     1301    11455    7                                    END;

  11455  2 005001   005012 710000 2                  TRA     s:11462

     1302    11456    7                                 ELSE DO;

     1303    11457    7                                      S_D.EWSQ# = 1;
PL6.E3A0      #001=DDA$SHOW File=DDA$SHOW.:E05TSI                                TUE 07/29/97 13:35 Page:198

  11457  2 005002   000001 235007                    LDA     1,DL
         2 005003   000011 755100                    STA     9,,PR0

     1304    11458    7                                      U$SE.TYPE = 0; /* USE_MON */

  11458  2 005004   000000 474400 xsym               LDP4    USE$
         2 005005   400001 450100                    STZ     1,,PR4

     1305    11459    7                                      U$SE.LS = 0;

  11459  2 005006   400002 450100                    STZ     2,,PR4

     1306    11460    7                                      S_D.UNODE.USENODE = ATT$ -> AT_FIRST.NODE;

  11460  2 005007   300003 236100                    LDQ     3,,PR3
         2 005010   000022 772000                    QRL     18
         2 005011   004760 756100                    STQ     2544,,PR0

     1307    11461    7                                    END;

     1308    11462    6                                 CALL DXB$USE;

  11462  2 005012   000002 631400 xsym               EPPR1   B_VECTNIL+2
         2 005013   000000 701000 xent               TSX1    DXB$USE
         2 005014   000000 011000                    NOP     0

     1309    11463    6                                 CALL DDA$SHOW1;

  11463  2 005015   000002 631400 xsym               EPPR1   B_VECTNIL+2
         2 005016   000000 701000 xent               TSX1    DDA$SHOW1
         2 005017   000000 011000                    NOP     0

     1310    11464    6                                 U$SE = USAVE;

  11464  2 005020   000000 470400 xsym               LDP0    USE$
         2 005021   000100 100500                    MLR     fill='000'O
PL6.E3A0      #001=DDA$SHOW File=DDA$SHOW.:E05TSI                                TUE 07/29/97 13:35 Page:199
         2 005022   200032 000024                    ADSC9   USAVE,,AUTO              cn=0,n=20
         2 005023   000000 000024                    ADSC9   0,,PR0                   cn=0,n=20

     1311    11465    6                                 CALL DXB$USE;

  11465  2 005024   000002 631400 xsym               EPPR1   B_VECTNIL+2
         2 005025   000000 701000 xent               TSX1    DXB$USE
         2 005026   000000 011000                    NOP     0

     1312    11466    6                                 S_D.UNODE.USENODE = UNODE;

  11466  2 005027   000000 470400 xsym               LDP0    S_D$
         2 005030   200037 235100                    LDA     UNODE,,AUTO
         2 005031   004760 755100                    STA     2544,,PR0

     1313    11467    6                                 S_D.EWSQ# = SAVE_EWSQ#;

  11467  2 005032   200054 236100                    LDQ     SAVE_EWSQ#,,AUTO
         2 005033   000011 756100                    STQ     9,,PR0

     1314    11468    6                               END;

  11468  2 005034   005040 710000 2                  TRA     s:11471

     1315    11469    5                            ELSE CALL DDA$SHOW1;

  11469  2 005035   000002 631400 xsym               EPPR1   B_VECTNIL+2
         2 005036   000000 701000 xent               TSX1    DDA$SHOW1
         2 005037   000000 011000                    NOP     0

     1316    11470    5                     END;

     1317    11471    4           END;

  11471  2 005040   200051 235100                    LDA     I,,AUTO
         2 005041   000001 035007                    ADLA    1,DL
         2 005042   200051 755100                    STA     I,,AUTO
PL6.E3A0      #001=DDA$SHOW File=DDA$SHOW.:E05TSI                                TUE 07/29/97 13:35 Page:200
         2 005043   200051 236100                    LDQ     I,,AUTO
         2 005044   005047 604000 2                  TMI     s:11473
         2 005045   200006 116100                    CMPQ    F_TO,,AUTO
         2 005046   004602 604400 2                  TMOZ    s:11409

     1318    11472                                                /**/
     1319    11473    3        S_D.FPRG = FPRG_SAVE;

  11473  2 005047   200056 236100                    LDQ     FPRG_SAVE,,AUTO
         2 005050   400000 376003                    ANQ     -131072,DU
         2 005051   000000 470400 xsym               LDP0    S_D$
         2 005052   000101 756100                    STQ     65,,PR0

     1320    11474    3        S_D.CURRENT_FPRG_CONTEXT$ = FPRG_CONTEXT_SAVE$;

  11474  2 005053   200057 236100                    LDQ     FPRG_CONTEXT_SAVE$,,AUTO
         2 005054   000102 756100                    STQ     66,,PR0

     1321    11475    3        IF S_D.FPRG AND NOT S_D.DEBUG_CMD

  11475  2 005055   000101 234100                    SZN     65,,PR0
         2 005056   005070 605000 2                  TPL     SHOWFIX_RETN
         2 005057   004665 234100                    SZN     2485,,PR0
         2 005060   005070 604000 2                  TMI     SHOWFIX_RETN

     1322    11476    3        THEN CALL DFA$FPRG(S_D.CURRENT_FPRG_CONTEXT$ -> FPRG$CONTEXT.ADDRESS);

  11476  2 005061   000102 471500                    LDP1    66,,PR0
         2 005062   100005 633500                    EPPR3   5,,PR1
         2 005063   200060 453500                    STP3    FPRG_CONTEXT_SAVE$+1,,AUTO
         2 005064   200060 630500                    EPPR0   FPRG_CONTEXT_SAVE$+1,,AUTO
         2 005065   000017 631400 xsym               EPPR1   B_VECTNIL+15
         2 005066   000000 701000 xent               TSX1    DFA$FPRG
         2 005067   000000 011000                    NOP     0

  11475  2 005070                       SHOWFIX_RETN null
     1323    11477    3   SHOWFIX_RETN: ;
PL6.E3A0      #001=DDA$SHOW File=DDA$SHOW.:E05TSI                                TUE 07/29/97 13:35 Page:201
     1324    11478    3        RETURN;

  11478  2 005070   200046 221300                    LDX1  ! STX+1,,AUTO
         2 005071   000001 702211                    TSX2  ! 1,X1

TABLE
 Sect OctLoc
   0     000   000000 000464   000000 000466   000000 000455   000000 000437    ................
   0     004   000000 000447   000000 000432   000000 000442   000000 000441    ................
   0     010   000000 000463   000000 000462   000000 000454   000000 000433    ................
   0     014   000000 000434   000000 000465   000000 000451   000000 000457    ................
   0     020   000000 000460   000000 000461   000000 000456   000000 000472    ................
   0     024   000000 000453   000000 000473   000000 000471   000000 000502    ................
   0     030   000000 000467   000000 000435                                    ........

NONEMSG
 Sect OctLoc
   0     032   116157 156145                                                    None

EXCON_NAME
 Sect OctLoc
   0     033   124151 155145   162054 040040   040040 040040   040040 040040    Timer,
   0     037   105166 145156   164054 040040   040040 040040   040040 040040    Event,
   0     043   102162 145141   153054 040040   040040 040040   040040 040040    Break,
   0     047   130143 157156   054040 040040   040040 040040   040040 040040    Xcon,
   0     053   120155 155145   054040 040040   040040 040040   040040 040040    Pmme,
   0     057   117166 145162   146154 157167   054040 040040   040040 040040    Overflow,
   0     063   104151 166151   144145 137143   150145 143153   054040 040040    Divide_check,
   0     067   115155 145054   040040 040040   040040 040040   040040 040040    Mme,
   0     073   104145 162141   151154 054040   040040 040040   040040 040040    Derail,
   0     077   106141 165154   164137 164141   147054 040040   040040 040040    Fault_tag,
   0     103   115145 155157   162171 054040   040040 040040   040040 040040    Memory,
   0     107   103157 155155   141156 144054   040040 040040   040040 040040    Command,
   0     113   114157 143153   165160 054040   040040 040040   040040 040040    Lockup,
   0     117   111160 162054   040040 040040   040040 040040   040040 040040    Ipr,
   0     123   123145 147054   040040 040040   040040 040040   040040 040040    Seg,
   0     127   120141 147145   054040 040040   040040 040040   040040 040040    Page,
PL6.E3A0      #001=DDA$SHOW File=DDA$SHOW.:E05TSI                                TUE 07/29/97 13:35 Page:202
   0     133   123145 143137   062054 040040   040040 040040   040040 040040    Sec_2,
   0     137   120141 162151   164171 054040   040040 040040   040040 040040    Parity,
   0     143   117160 137156   157164 137143   157155 160154   145164 145054    Op_not_complete,
   0     147   123145 143137   061054 040040   040040 040040   040040 040040    Sec_1,

EXCON_SIZE
 Sect OctLoc
   0     153   000000 000006   000000 000006   000000 000006   000000 000005    ................
   0     157   000000 000005   000000 000011   000000 000015   000000 000004    ................
   0     163   000000 000007   000000 000012   000000 000007   000000 000010    ................
   0     167   000000 000007   000000 000004   000000 000004   000000 000005    ................
   0     173   000000 000006   000000 000007   000000 000020   000000 000006    ................

DD_FORMAT_TABLE
 Sect OctLoc
   0     177   003122 105115   105115 102105   122001 117103   124101 114040    .REMEMBER.OCTAL
   0     203   040040 001125   102111 116040   040040 040001   123102 111116      .UBIN    .SBIN
   0     207   040040 040040   001103 110101   122040 040040   040001 102111        .CHAR    .BI
   0     213   124040 040040   040040 001111   116123 124122   040040 040001    T     .INSTR   .
   0     217   120124 122040   040040 040040   001104 105123   103122 040040    PTR     .DESCR
   0     223   040001 122105   114040 040040   040040 001105   120124 122040     .REL     .EPTR
   0     227   040040 040002   101122 040040   040040 040040   001126 105103       .AR      .VEC
   0     233   124117 122040   040001 130040   040040 040040   040040 002117    TOR  .X       .O
   0     237   102111 124040   040040 040002   114044 040040   040040 040040    BIT    .L$
   0     243   001106 114117   101124 040040   040001 112104   105040 040040    .FLOAT   .JDE
   0     247   040040 002130   061040 040040   040040 040001   124111 115105      .X1      .TIME
   0     253   040040 040040   001132 105122   117040 040040   040002 105102        .ZERO    .EB
   0     257   103104 111103   040040 005103   117115 120062   040040 040002    CDIC  .COMP2   .
   0     263   117106 117122   124040 040040   005132 106117   122124 040040    OFORT   .ZFORT
   0     267   040003 114117   107111 103101   114040 005103   115120 114130     .LOGICAL .CMPLX
   0     273   040040 040006   111116 104105   130061 040040   006111 116104       .INDEX1  .IND
   0     277   105130 062040   040003 120125   120040 040040   040040 005103    EX2  .PUP     .C
   0     303   101116 047124   040040 040007   104105 106101   125114 124040    AN'T   .DEFAULT
   0     307   005103 117115   120061 040040   040*** ******                    .COMP1   ...

COMPID
 Sect OctLoc
PL6.E3A0      #001=DDA$SHOW File=DDA$SHOW.:E05TSI                                TUE 07/29/97 13:35 Page:203
   0     312   107115 101120   040040 040040   120114 066040   040040 040040    GMAP    PL6
   0     316   106117 122124   122101 116040   103117 102117   114040 040040    FORTRAN COBOL
   0     322   120114 061040   040040 040040   122120 107040   040040 040040    PL1     RPG
   0     326   120101 123103   101114 040040   115117 115125   123040 040040    PASCAL  MOMUS
   0     332   106120 114040   040040 040040   120101 122124   122107 105040    FPL     PARTRGE
   0     336   111104 114040   040040 040040   105114 123111   105040 040040    IDL     ELSIE
   0     342   103101 114106   040040 040040   103103 040040   040040 040040    CALF    CC

COMPIDS
 Sect OctLoc
   0     346   000000 000004   000000 000003   000000 000007   000000 000005    ................
   0     352   000000 000003   000000 000003   000000 000006   000000 000005    ................
   0     356   000000 000003   000000 000007   000000 000003   000000 000005    ................
   0     362   000000 000004   000000 000002                                    ........

(unnamed)
 Sect OctLoc
   0     364   104105 106040   075040 040040   123124 105120   151156 147040    DEF =   STEPing
   0     370   142171 040163   165142 163164   141164 145155   145156 164163    by substatements
   0     374   123124 105120   151156 147040   142171 040163   164141 164145    STEPing by state
   0     400   155145 156164   163040 040040   123124 105120   151156 147040    ments   STEPing
   0     404   142171 040160   141162 141147   162141 160150   163040 040040    by paragraphs
   0     410   123124 105120   151156 147040   142171 040151   156163 164162    STEPing by instr
   0     414   165143 164151   157156 163040   123124 105120   040102 131040    uctions STEP BY
   0     420   105110 077040   123103 110105   115101 040040   141164 040040    EH? SCHEMA  at
   0     424   156157 164040   141166 141151   154141 142154   145040 040040    not available
   0     430   153151 154154   145144 040040   113151 154154   040123 103110    killed  Kill SCH
   0     434   105115 101040   122105 120117   122124 040040   117106 106123    EMA REPORT  OFFS
   0     440   105124 040114   111116 105040   124131 120105   122145 160157    ET LINE TYPERepo
   0     444   162164 040040   117106 106123   105124 040114   111116 105040    rt  OFFSET LINE
   0     450   124131 120105   040040 171145   163040 040040   040040 156157    TYPE  yes     no
   0     454   040171 145163   040156 157040   117106 106123   105124 054040     yes no OFFSET,
   0     460   114111 116105   054040 040040   124131 120105   054040 040040    LINE,   TYPE,
   0     464   124122 101103   105040 153151   154154 145144   113151 154154    TRACE killedKill
   0     470   040124 122101   103105 040040   124122 101103   105040 164162     TRACE  TRACE tr
   0     474   141156 163146   145162 040040   124122 101103   105040 163164    ansfer  TRACE st
   0     500   141164 145155   145156 164163   124122 101103   105040 160141    atementsTRACE pa
PL6.E3A0      #001=DDA$SHOW File=DDA$SHOW.:E05TSI                                TUE 07/29/97 13:35 Page:204
   0     504   162141 147162   141160 150163   124122 101103   105040 170040    ragraphsTRACE x
   0     510   143141 154154   163040 040040   124122 101103   105040 143141    calls   TRACE ca
   0     514   154154 163040   050163 151154   145156 164051   073040 124122    lls (silent); TR
   0     520   101103 105040   157156 040040   073040 124122   101103 105040    ACE on  ; TRACE
   0     524   157146 146040   113105 105120   040101 154154   113105 105120    off KEEP AllKEEP
   0     530   040156 157156   145040 040040   113105 105120   040155 157156     none   KEEP mon
   0     534   113105 105120   040163 143162   145145 143150   102131 120101    KEEP screechBYPA
   0     540   123123 040040   102131 120101   123123 040153   151154 154145    SS  BYPASS kille
   0     544   144040 040040   113151 154154   040102 131120   101123 123040    d   Kill BYPASS
   0     550   104111 103040   104111 103040   153151 154154   145144 040040    DIC DIC killed
   0     554   113151 154154   040104 111103   122101 116107   105040 040040    Kill DICRANGE
   0     560   105117 115040   105117 115040   153151 154154   145144 040040    EOM EOM killed
   0     564   113151 154154   040105 117115   106117 122115   101124 040105    Kill EOMFORMAT E
   0     570   126101 114125   101124 105040   134040 040040   106117 122115    VALUATE \   FORM
   0     574   101124 040115   117104 111106   131040 134040   103117 120131    AT MODIFY \ COPY
   0     600   103117 120131   040153 151154   154145 144040   113151 154154    COPY killed Kill
   0     604   040103 117120   131040 040040   105103 110117   105103 110117     COPY   ECHOECHO
   0     610   040153 151154   154145 144040   113151 154154   040105 103110     killed Kill ECH
   0     614   117040 040040   111107 116117   122105 040040   051040 040040    O   IGNORE  )
   0     620   101162 151164   150155 145164   151143 040040   124122 101120    Arithmetic  TRAP
   0     624   040040 040040   122125 115040   153151 154154   145144 040040        RUM killed
   0     630   101114 124105   122116 101124   105040 126101   122111 101102    ALTERNATE VARIAB
   0     634   114105 123040   073040 113151   154154 040101   114124 126101    LES ; Kill ALTVA
   0     640   122040 040040   113151 154154   040101 114124   126101 122040    R   Kill ALTVAR
   0     644   101116 114132   040153 151154   154145 144040   123131 116124    ANLZ killed SYNT
   0     650   101130 040040   123171 156164   141170 040040   123101 104040    AX  Syntax  SAD
   0     654   123101 104040   153151 154154   145144 040040   113151 154154    SAD killed  Kill
   0     660   040123 101104   120122 117124   105103 124040   120122 117124     SADPROTECT PROT
   0     664   105103 124040   153151 154154   145144 040040   113151 154154    ECT killed  Kill
   0     670   040120 122117   124105 103124   123124 101124   125123 040040     PROTECTSTATUS
   0     674   123124 101124   125123 040153   151154 154145   144040 040040    STATUS killed
   0     700   113151 154154   040123 124101   124125 123040   104105 102125    Kill STATUS DEBU
   0     704   107040 101154   154040 040040   101154 154040   116157 156145    G All   All None
   0     710   115157 156151   164157 162054   101162 151164   150155 145164    Monitor,Arithmet
   0     714   151143 054040   120162 157147   162141 155155   145144 054040    ic, Programmed,
   0     720   105162 162157   162054 040040   051040 040040   123143 162145    Error,  )   Scre
   0     724   145143 150040   115103 114054   105166 145156   164054 040040    ech MCL,Event,
PL6.E3A0      #001=DDA$SHOW File=DDA$SHOW.:E05TSI                                TUE 07/29/97 13:35 Page:205
   0     730   102162 145141   153054 040040   130143 157156   054040 040040    Break,  Xcon,
   0     734   124162 141160   054040 040040                                    Trap,

(unnamed)
 Sect OctLoc
   3     000   000030 006000   000000 006003   000006 006000   000000 000000    ................
   3     004   000364 006000   000006 006000   000141 200000   000000 000015    .........a......
   3     010   000035 006000   000003 006000   000365 006000   000005 006000    ................
   3     014   000007 006000   000001 600000   000001 200000   000001 400000    ................
   3     020   777777 400000   005340 600000   005341 200000   005340 400000    ................
   3     024   000002 400000   000002 600000   005336 200000   005336 400000    ................
   3     030   005336 600000   050040 040040   000004 006000   054040 040040    ....(   ....,
   3     034   000007 006000   000014 006000   000377 600000   000376 200000    ................
     1325    11479                                                /**/
     1326    11480    3   END SHOW_FIX;
     1327    11481                                                /**/
     1328    11482    2   END SHOW_TYPE;
     1329    11483                                                /**/
     1330    11484    1   END DDA$SHOW;

PL6.E3A0      #001=DDA$SHOW File=DDA$SHOW.:E05TSI                                TUE 07/29/97 13:35 Page:206
--  Include file information  --

   CP_6_SUBS.:E05TOU  is referenced.
   CP_6.:E05TOU  cannot be made into a system file and is referenced.
   DD_SRTN_C.:E05TOU  is referenced.
   DD_ACODE_C.:E05TOU  is referenced.
   DD_ICODE_C.:E05TOU  is referenced.
   DD$DITEM.:E05TOU  cannot be made into a system file and is referenced.
   DD_ERR_C.:E05TOU  is referenced.
   DD_PSUBS_C.:E05TOU  is referenced.
   DD_SUBS_C.:E05TOU  is referenced.
   DD_SD_M.:E05TOU  is referenced.
   XUH_MACRO_C.:E05TOU  is referenced.
   B$OBJECT_C.:E05TOU  is referenced.
   DD$BASED.:E05TOU  is referenced.
   B$JIT_C.:E05TOU  was found in the system file and is never referenced.
   CP_6_C.:E05TOU  was found in the system file and is referenced.
      No diagnostics issued in procedure DDA$SHOW.

   Procedure DDA$SHOW requires 2618 words for executable code.
   Procedure DDA$SHOW requires 52 words of local(AUTO) storage.

    No errors detected in file DDA$SHOW.:E05TSI    .
PL6.E3A0      #001=DDA$SHOW File=DDA$SHOW.:E05TSI                                TUE 07/29/97 13:35 Page:207
          *** CROSS REFERENCE LISTING ***
**     DENOTES     IDENTIFIER DEFINITION
<<                 IDENTIFIER'S VALUE SET
>>                 IDENTIFIER'S VALUE USED
<>                 IDENTIFIER SET AND/OR USED
--                 IDENTIFIER REFERENCED
PL6.E3A0      #001=DDA$SHOW File=DDA$SHOW.:E05TSI                                TUE 07/29/97 13:35 Page:208
          MINI XREF LISTING

ARET
     10388**LABEL   10377--CALLALT
ARET IN PROCEDURE SHOW_TYPE
     11227**LABEL   10438--GOTO    10458--GOTO    10757--GOTO    10815--GOTO    10826--GOTO    10860--GOTO
     11036--CALLALT 11060--GOTO    11153--GOTO    11185--GOTO    11193--GOTO    11229--GOTO    11230--GOTO
ATT$ IN PROCEDURE SHOW_FIX
     11402**DCL     11448<<ASSIGN  11453>>ASSIGN  11454>>ASSIGN  11460>>ASSIGN
AT_FIRST.NODE
      1378**DCL     11420>>ASSIGN  11460>>ASSIGN
AT_FIRST.U.APT
      1369**DCL     11453>>ASSIGN
AT_FIRST.U.LS
      1370**DCL     11454>>ASSIGN
AT_FIRST.UNUSED
      1367**DCL      1368--REDEF    1372--REDEF
B$NODE.PADDR
      4983**DCL     11428>>ASSIGN  11437>>ASSIGN
BB$
        24**DCL     10442<<ASSIGN  10447<>CALL    10449<>CALL    10450<>CALL    10451<>CALL    10453<>CALL
     10455<>CALL    10460>>ASSIGN  10500<<ASSIGN  10502<>CALL    10530<<ASSIGN  10533<<ASSIGN  10533>>ASSIGN
     10535>>ASSIGN  10537<<ASSIGN  10537>>ASSIGN  10538<<ASSIGN  10538>>ASSIGN  10541>>ASSIGN  10542>>ASSIGN
     10543<<ASSIGN  10543>>ASSIGN  10545>>ASSIGN  10546>>ASSIGN  10547<<ASSIGN  10547>>ASSIGN  10549>>ASSIGN
     10550>>ASSIGN  10551<<ASSIGN  10551>>ASSIGN  10555>>ASSIGN  10556<<ASSIGN  10556>>ASSIGN  10559>>ASSIGN
     10560<<ASSIGN  10560>>ASSIGN  10563>>ASSIGN  10564<<ASSIGN  10564>>ASSIGN  10566<<ASSIGN  10566>>ASSIGN
     10568>>CALL    10591<<ASSIGN  10596<<ASSIGN  10601<<ASSIGN  10606<<ASSIGN  10610<<ASSIGN  10613>>ASSIGN
     10614<<ASSIGN  10614>>ASSIGN  10617>>ASSIGN  10618<<ASSIGN  10618>>ASSIGN  10621>>ASSIGN  10622<<ASSIGN
     10622>>ASSIGN  10625>>ASSIGN  10626<<ASSIGN  10626>>ASSIGN  10628>>ASSIGN  10648<<ASSIGN  10654<<ASSIGN
     10658<<ASSIGN  10662>>ASSIGN  10663<<ASSIGN  10663>>ASSIGN  10666>>ASSIGN  10667<<ASSIGN  10667>>ASSIGN
     10671>>ASSIGN  10672<<ASSIGN  10672>>ASSIGN  10675>>ASSIGN  10676<<ASSIGN  10676>>ASSIGN  10678>>ASSIGN
     10705<<ASSIGN  10714<<ASSIGN  10819<<ASSIGN  10821<>CALL    10823<>CALL    10928<<ASSIGN  10940<<ASSIGN
     10941>>ASSIGN  10943<<ASSIGN  10943>>ASSIGN  10945<>CALL    10947>>ASSIGN  10949<<ASSIGN  10949>>ASSIGN
     10950>>ASSIGN  10952<<ASSIGN  10952>>ASSIGN  10966<<ASSIGN  10975<<ASSIGN  11080<<ASSIGN  11081<>CALL
PL6.E3A0      #001=DDA$SHOW File=DDA$SHOW.:E05TSI                                TUE 07/29/97 13:35 Page:209
     11133<<ASSIGN  11137<>CALL    11138<<ASSIGN  11138>>ASSIGN  11139>>ASSIGN  11140<<ASSIGN  11140>>ASSIGN
     11143>>ASSIGN  11245>>ASSIGN  11249>>ASSIGN  11255>>ASSIGN  11256<<ASSIGN  11256>>ASSIGN  11263>>ASSIGN
     11265<<ASSIGN  11265>>ASSIGN  11271>>ASSIGN  11273<<ASSIGN  11273>>ASSIGN  11279>>ASSIGN  11281<<ASSIGN
     11281>>ASSIGN  11290>>ASSIGN  11292<<ASSIGN  11292>>ASSIGN  11312>>ASSIGN  11314<<ASSIGN  11314>>ASSIGN
     11316<>CALL    11318>>ASSIGN  11320<<ASSIGN  11320>>ASSIGN  11325>>ASSIGN  11330>>ASSIGN  11335>>ASSIGN
     11340>>ASSIGN  11347>>ASSIGN  11353>>ASSIGN  11354<<ASSIGN  11354>>ASSIGN  11359>>ASSIGN  11360<<ASSIGN
     11360>>ASSIGN  11365>>ASSIGN  11366<<ASSIGN  11366>>ASSIGN  11371>>ASSIGN  11372<<ASSIGN  11372>>ASSIGN
     11377>>ASSIGN  11378<<ASSIGN  11378>>ASSIGN  11383>>ASSIGN  11384<<ASSIGN  11384>>ASSIGN
BLD_OPTIONS IN PROCEDURE SHOW_TYPE
     11234**PROC    10706--CALL    10929--CALL    10967--CALL
BLD_OPTIONS_L6 IN PROCEDURE SHOW_TYPE
     11297**PROC    10716--CALL    10977--CALL
BUF$
        34**DCL     10345<<ASSIGN  10442>>ASSIGN  10460>>ASSIGN  10461<>CALL    10526<>CALL    10568<>CALL
     10875<>CALL    10881<>CALL    11080>>ASSIGN  11133>>ASSIGN  11143>>ASSIGN
CCMD
        31**DCL     11410<<ASSIGN  11411>>IF      11412>>IF      11416>>IF      11416>>IF      11416>>IF
CHAR1
        41**DCL     10941<<ASSIGN  11139<<ASSIGN  11312<<ASSIGN
CHAR16
        36**DCL     10950<<ASSIGN  11263<<ASSIGN  11271<<ASSIGN  11290<<ASSIGN  11383<<ASSIGN
CHAR32
        35**DCL     10613<<ASSIGN  10617<<ASSIGN  10621<<ASSIGN  10625<<ASSIGN  10662<<ASSIGN  10666<<ASSIGN
     10671<<ASSIGN  10675<<ASSIGN
CHAR4
        42**DCL     10947<<ASSIGN  11245<<ASSIGN  11249<<ASSIGN  11318<<ASSIGN  11325<<ASSIGN  11330<<ASSIGN
     11347<<ASSIGN  11353<<ASSIGN
CHAR5
        40**DCL     10545<<ASSIGN  10546<<ASSIGN  10547--ASSIGN  10549<<ASSIGN  10550<<ASSIGN  10551--ASSIGN
     11371<<ASSIGN  11377<<ASSIGN
CHAR6
        39**DCL     10559<<ASSIGN  10563<<ASSIGN
CHAR7
        38**DCL     10541<<ASSIGN  10542<<ASSIGN  10543--ASSIGN  11359<<ASSIGN  11365<<ASSIGN
CHAR8
        37**DCL     10535<<ASSIGN  10555<<ASSIGN  11255<<ASSIGN  11279<<ASSIGN  11335<<ASSIGN  11340<<ASSIGN
PL6.E3A0      #001=DDA$SHOW File=DDA$SHOW.:E05TSI                                TUE 07/29/97 13:35 Page:210
CMD
        22**DCL     10429<<ASSIGN  10571<<ASSIGN  10684<<ASSIGN  10725<<ASSIGN  10727<<ASSIGN  10731<<ASSIGN
     10735<<ASSIGN  10740<<ASSIGN  10742<<ASSIGN  10748<<ASSIGN  10831<<ASSIGN  11412>>IF      11412>>IF
CNODE IN PROCEDURE SHOW_FIX
     11397**DCL     11424<<ASSIGN  11431>>ASSIGN  11437>>ASSIGN
COMPID
      8554**DCL     10535>>ASSIGN  10538--ASSIGN  11050>>CALLBLT
COMPIDS
      8569**DCL     10537>>ASSIGN  11051>>ASSIGN
DDA$SHOW1
     10328**DCL-ENT 11430--CALL    11441--CALL    11463--CALL    11469--CALL
DDB$BREAK
     10329**DCL-ENT 10366--CALL    10425--CALL    10529--CALL    11409--CALL
DDE$ERROR
     10330**DCL-ENT 10392--CALL    10485--CALL    10699--CALL    11170--CALL    11209--CALL    11218--CALL
DDQ$WRITED
     10332**DCL-ENT 10382--CALL    10461--CALL    10526--CALL    10568--CALL    10707--CALL    10717--CALL
     10875--CALL    10881--CALL    10930--CALL    10953--CALL    10968--CALL    10978--CALL    11224--CALL
DDR$BINTXT
     10335**DCL-ENT 10453--CALL    10455--CALL    10821--CALL    10823--CALL    11081--CALL    11137--CALL
DDR$MOVE
     10331**DCL-ENT 10447--CALL    10449--CALL    10450--CALL    10451--CALL    10945--CALL    11316--CALL
DDR$POSIT
     10336**DCL-ENT 10502--CALL
DDS$ES_INQ
     10337**DCL-ENT 11429--CALL    11439--CALL
DDS$EUTREE
     10338**DCL-ENT 11426--CALL    11436--CALL
DD_FORMAT_TABLE.SZ
      8536**DCL     10874>>ASSIGN  10880>>ASSIGN
DD_FORMAT_TABLE.TX
      8545**DCL     10873>>CALLBLT 10879>>CALLBLT
DEFI
        23**DCL     10441<<DOINDEX 10444>>IF      10448>>ASSIGN  10449>>CALL    10453>>CALL    10455>>CALL
     11134<<DOINDEX 11134--DOINDEX 11135>>IF      11137<>CALL
DFA$FPRG
PL6.E3A0      #001=DDA$SHOW File=DDA$SHOW.:E05TSI                                TUE 07/29/97 13:35 Page:211
     10340**DCL-ENT 11158--CALL    11178--CALL    11197--CALL    11215--CALL    11476--CALL
DFA$KILL_FPRG
     10341**DCL-ENT 11177--CALL    11214--CALL
DFR$REPORT
     10342**DCL-ENT 11161--CALL    11163--CALL    11165--CALL    11167--CALL    11200--CALL    11202--CALL
     11204--CALL    11206--CALL
DU$TREE.NOW_IN
      1419**DCL     11422>>IF
DUA$CLOSEDUMP
     10334**DCL-ENT 10387--CALL
DUA$OUTPUT
     10333**DCL-ENT 10350--CALL
DUA$SHOW_ANLZ
     10326**DCL-ENT 11036--CALL
DUA$SHOW_RUM
     10327**DCL-ENT 10990--CALL
DXB$USE
     10339**DCL-ENT 11462--CALL    11465--CALL
DX_DIC
      7733**DCL     10778>>IF
D_M$DO#
      7736**DCL     10353>>ASSIGN
D_SYMBOLS
      7735**DCL     10494>>IF
D_XDELTA
      7732**DCL     10348>>IF      10687>>IF      10730>>IF      10734>>IF      10738>>IF      10777>>IF
     10834>>IF      10884>>IF      10904>>IF      10924>>IF      10962>>IF      10986>>IF      11027>>IF
     11063>>IF      11103>>IF      11416>>IF      11443>>IF
E
        44**DCL     10865<<ASSIGN  10868<<ASSIGN  10871>>IF
ERR7 IN PROCEDURE SHOW_TYPE
     11229**LABEL   10730--GOTO    10734--GOTO    10738--GOTO    10852--GOTO    10902--GOTO    10922--GOTO
     10960--GOTO    10984--GOTO    10986--GOTO    11063--GOTO
ERRO IN PROCEDURE SHOW_TYPE
     11230**LABEL   10739--GOTO
EXCON_NAME
PL6.E3A0      #001=DDA$SHOW File=DDA$SHOW.:E05TSI                                TUE 07/29/97 13:35 Page:212
      8512**DCL     11290>>ASSIGN
EXCON_SIZE
      8533**DCL     11291>>ASSIGN  11292>>ASSIGN
F$DCB.ACTPOS
     10302**DCL     10302--REDEF
F$DCB.ARS#
     10276**DCL     10276--REDEF
F$DCB.ASN#
     10291**DCL     10354>>IF
F$DCB.ATTR
     10295**DCL     10296--REDEF
F$DCB.BORROW
     10310**DCL     10310--REDEF   10310--REDEF   10310--REDEF
F$DCB.DCBNAME.L
     10324**DCL     10324--IMP-SIZ
F$DCB.EOMCHAR#
     10280**DCL     10280--REDEF
F$DCB.FLDID
     10305**DCL     10305--REDEF
F$DCB.FORM$
     10299**DCL     10299--REDEF
F$DCB.FSECT
     10315**DCL     10315--REDEF
F$DCB.FSN#
     10292**DCL     10292--REDEF   10292--REDEF   10293--REDEF
F$DCB.HEADER$
     10298**DCL     10298--REDEF
F$DCB.IXTNSIZE#
     10296**DCL     10296--REDEF
F$DCB.LASTSTA$
     10285**DCL     10285--REDEF
F$DCB.LVL
     10311**DCL     10311--REDEF
F$DCB.NAME#.C
     10286**DCL     10286--REDEF
F$DCB.NOEOF
PL6.E3A0      #001=DDA$SHOW File=DDA$SHOW.:E05TSI                                TUE 07/29/97 13:35 Page:213
     10308**DCL     10308--REDEF
F$DCB.NRECS#
     10297**DCL     10297--REDEF
F$DCB.NRECX
     10316**DCL     10316--REDEF
F$DCB.OHDR
     10308**DCL     10308--REDEF
F$DCB.ORG#
     10291**DCL     10291--REDEF
F$DCB.PRECNO
     10314**DCL     10314--REDEF
F$DCB.RCSZ
     10320**DCL     10320--REDEF
F$DCB.RES#
     10287**DCL     10287--REDEF
F$DCB.SETX
     10299**DCL     10299--REDEF
F$DCB.TAB$
     10299**DCL     10299--REDEF
F$DCB.TDA
     10313**DCL     10314--REDEF
F$DCB.WIDTH#
     10283**DCL     10355>>IF      10357>>ASSIGN
F$DCB.WSN#
     10287**DCL     10287--REDEF
FPRG$ IN PROCEDURE BLD_OPTIONS_L6
     11298**DCL     11297--PROC    11321>>IF
FPRG$CONTEXT.ADDRESS
      1468**DCL     11158<>CALL    11178<>CALL    11197<>CALL    11215<>CALL    11476<>CALL
FPRG$CONTEXT.IGNORE
      1489**DCL     10935>>IF
FPRG$CONTEXT.INTERPRETIVE
      1449**DCL     10432>>IF      10751>>IF      10809>>IF      10854>>IF      11054>>IF
FPRG$CONTEXT.KEEP
      1487**DCL     10715>>ASSIGN
FPRG$CONTEXT.NEXT$
PL6.E3A0      #001=DDA$SHOW File=DDA$SHOW.:E05TSI                                TUE 07/29/97 13:35 Page:214
      1445**DCL     10718>>ASSIGN  10955>>ASSIGN  10979>>ASSIGN  11173>>ASSIGN  11189>>ASSIGN
FPRG$CONTEXT.ONCALLS
      1493**DCL     10633>>IF
FPRG$CONTEXT.RES
      1464**DCL     10945<>CALL    11188>>DOWHILE 11316<>CALL
FPRG$CONTEXT.RES_SIZE
      1466**DCL     10945>>CALL    10945<>CALL    10948>>ASSIGN  11316>>CALL    11316<>CALL    11319>>ASSIGN
FPRG$CONTEXT.STATE
      1459**DCL     11159>>DOCASE  11198>>DOCASE
FPRG$CONTEXT.STEP_MODE
      1483**DCL     10469>>ASSIGN
FPRG$CONTEXT.TR$INFO.ACTIVE
      1501**DCL     10669>>IF
FPRG$CONTEXT.TR$INFO.P
      1500**DCL     10661>>IF
FPRG$CONTEXT.TR$INFO.PSIZ
      1503**DCL     10663>>ASSIGN
FPRG$CONTEXT.TR$INFO.PTXT
      1504**DCL     10662>>ASSIGN
FPRG$CONTEXT.TR$INFO.SET
      1495**DCL     10633>>IF
FPRG$CONTEXT.TR$INFO.SILENT
      1499**DCL     10665>>IF
FPRG$CONTEXT.TR$INFO.TRANSFERS
      1496**DCL     10645>>IF
FPRG$CONTEXT.TR$INFO.XCALLS
      1498**DCL     10651>>IF
FPRG$CONTEXT.TRAP
      1488**DCL     10976>>ASSIGN
FPRG$CONTEXT.XDELTA
      1457**DCL     10935>>IF      11321>>IF
FPRG_CONTEXT_SAVE$ IN PROCEDURE SHOW_FIX
     11404**DCL     11406<<ASSIGN  11474>>ASSIGN
FPRG_SAVE IN PROCEDURE SHOW_FIX
     11403**DCL     11405<<ASSIGN  11473>>ASSIGN
F_FROM
PL6.E3A0      #001=DDA$SHOW File=DDA$SHOW.:E05TSI                                TUE 07/29/97 13:35 Page:215
        20**DCL     10361<<ASSIGN  10746<<ASSIGN  11408>>DOINDEX
F_TO
        21**DCL     10362<<ASSIGN  10747<<ASSIGN  11408>>DOINDEX
I IN PROCEDURE BLD_OPTIONS
     11242**DCL     11259<<DOINDEX 11260>>IF      11267<<DOINDEX 11268>>IF      11275<<DOINDEX 11276>>IF
     11283<<DOINDEX 11284>>IF      11284>>IF      11284>>IF      11290>>ASSIGN  11291>>ASSIGN  11292>>ASSIGN
I IN PROCEDURE SHOW_FIX
     11398**DCL     11408<<DOINDEX 11410>>ASSIGN  11414>>ASSIGN  11420>>ASSIGN  11448>>ASSIGN  11449>>IF
ISADDR IN PROCEDURE SHOW_FIX
     11400**DCL     11428<<ASSIGN  11429<>CALL    11434<<ASSIGN  11437<<ASSIGN  11439<>CALL
IX
        33**DCL     10365<<DOINDEX 10367>>ASSIGN
J
        29**DCL     10821<>CALL    10823<>CALL    10828>>ASSIGN
KISCH IN PROCEDURE SHOW_TYPE
     10516**LABEL   10506--GOTO
M
        43**DCL     10776<<ASSIGN  10779<<ASSIGN  10782<<ASSIGN  10783>>IF      10864<<ASSIGN  10870<<ASSIGN
     10877>>IF
MOVE_NAME IN PROCEDURE BLD_OPTIONS
     11289**PROC    11260--CALL    11268--CALL    11276--CALL    11284--CALL
NCARS
        27**DCL     10453<>CALL    10455<>CALL    10460>>ASSIGN  10502<>CALL    10503>>ASSIGN  11081<>CALL
     11082>>ASSIGN  11137<>CALL    11138>>ASSIGN
NODE IN PROCEDURE SHOW_FIX
     11396**DCL     11420<<ASSIGN  11422>>IF      11425>>ASSIGN  11428>>ASSIGN
NONE
        32**DCL     10344<<ASSIGN  10379>>IF      10446<<ASSIGN  10522<<ASSIGN  10787<<ASSIGN  10863<<ASSIGN
     10989<<ASSIGN  10993<<ASSIGN  11035<<ASSIGN  11039<<ASSIGN  11148<<ASSIGN  11180<<ASSIGN  11226<<ASSIGN
     11415<<ASSIGN
NONEMSG
      8511**DCL     10381>>ASSIGN  10382--CALL
OPT IN PROCEDURE BLD_OPTIONS
     11235**DCL     11234--PROC    11241--REDEF   11244>>IF      11248>>IF
OPT.ARITHMETIC IN PROCEDURE BLD_OPTIONS
     11237**DCL     11262>>IF
PL6.E3A0      #001=DDA$SHOW File=DDA$SHOW.:E05TSI                                TUE 07/29/97 13:35 Page:216
OPT.ERROR IN PROCEDURE BLD_OPTIONS
     11239**DCL     11278>>IF      11278>>IF
OPT.MON IN PROCEDURE BLD_OPTIONS
     11236**DCL     11253>>IF
OPT.PROGRAMMED IN PROCEDURE BLD_OPTIONS
     11238**DCL     11270>>IF
OPT_BIT IN PROCEDURE BLD_OPTIONS
     11241**DCL     11260>>IF      11268>>IF      11276>>IF      11284>>IF
OPT_L6
        48**DCL     10715<<ASSIGN  10716<>CALL    10976<<ASSIGN  10977<>CALL
OPT_L6.BREAK
        53**DCL        54--REDEF
OPT_L6.EVENT
        51**DCL        52--REDEF
OPT_L6.MCL
        49**DCL        50--REDEF
OPT_L6.XCON
        55**DCL        56--REDEF
OPT_L6 IN PROCEDURE BLD_OPTIONS_L6
     11299**DCL     11297--PROC    11345>>IF
OPT_L6.ALL IN PROCEDURE BLD_OPTIONS_L6
     11301**DCL     11323>>IF
OPT_L6.ARITHMETIC IN PROCEDURE BLD_OPTIONS_L6
     11309**DCL     11381>>IF
OPT_L6.BREAK IN PROCEDURE BLD_OPTIONS_L6
     11304**DCL     11305--REDEF   11363>>IF
OPT_L6.EVENT IN PROCEDURE BLD_OPTIONS_L6
     11302**DCL     11303--REDEF   11357>>IF
OPT_L6.MCL IN PROCEDURE BLD_OPTIONS_L6
     11300**DCL     11301--REDEF   11351>>IF
OPT_L6.MON IN PROCEDURE BLD_OPTIONS_L6
     11305**DCL     11333>>IF
OPT_L6.NONE IN PROCEDURE BLD_OPTIONS_L6
     11303**DCL     11328>>IF
OPT_L6.SCREECH IN PROCEDURE BLD_OPTIONS_L6
     11307**DCL     11338>>IF
PL6.E3A0      #001=DDA$SHOW File=DDA$SHOW.:E05TSI                                TUE 07/29/97 13:35 Page:217
OPT_L6.TRAP IN PROCEDURE BLD_OPTIONS_L6
     11308**DCL     11375>>IF
OPT_L6.XCON IN PROCEDURE BLD_OPTIONS_L6
     11306**DCL     11307--REDEF   11369>>IF
R
     10386**LABEL   10393--GOTO
REM
        25**DCL     10443<<ASSIGN  10447<>CALL    10449<>CALL    10450<>CALL    10451<>CALL    10501<<ASSIGN
     10502<>CALL    10944<<ASSIGN  10945<>CALL
REM IN PROCEDURE BLD_OPTIONS_L6
     11310**DCL     11315<<ASSIGN  11316<>CALL
RET IN PROCEDURE SHOW_TYPE
     11226**LABEL   10721--GOTO    10958--GOTO    10982--GOTO
S$HOW.DESTCODE
      1438**DCL     10349>>IF      10350<>CALL
S$HOW.FID
      1439**DCL     10350<>CALL
S$HOW.FPRG_RES
      1434**DCL     11188>>DOWHILE
S$HOW.ID_FROM
      1427**DCL     10746>>ASSIGN  10867>>IF      10869>>IF
S$HOW.ID_TO
      1428**DCL     10747>>ASSIGN
S$HOW.TYPE
      1426**DCL     10363>>ASSIGN  10434>>IF      10753>>IF      10785>>IF      10811>>IF      10856>>IF
     10866>>IF      11056>>IF
SAVE_CONTEXT$
        47**DCL     11149<<ASSIGN  11175>>ASSIGN  11176>>IF      11178>>CALL    11181<<ASSIGN  11212>>ASSIGN
     11213>>IF      11215>>CALL
SAVE_EWSQ# IN PROCEDURE SHOW_FIX
     11401**DCL     11445<<ASSIGN  11467>>ASSIGN
SAVE_WIDTH
        45**DCL     10347<<ASSIGN  10386>>ASSIGN
SHOWFIX_RETN IN PROCEDURE SHOW_FIX
     11475**LABEL   11409--CALLALT
SHOWTYPE_RETN IN PROCEDURE SHOW_TYPE
PL6.E3A0      #001=DDA$SHOW File=DDA$SHOW.:E05TSI                                TUE 07/29/97 13:35 Page:218
     11215**LABEL   10425--CALLALT 10435--GOTO    10529--CALLALT 10754--GOTO    10790--GOTO    10812--GOTO
     10857--GOTO    11057--GOTO    11171--GOTO    11210--GOTO
SHOW_FIX IN PROCEDURE SHOW_TYPE
     11394**PROC    10430--CALL    10572--CALL    10685--CALL    10726--CALL    10728--CALL    10732--CALL
     10736--CALL    10741--CALL    10743--CALL    10749--CALL    10832--CALL
SHOW_RETN
     10379**LABEL   10350--CALLALT 10366--CALLALT
SHOW_TYPE
     10397**PROC    10368--CALL    10377--CALL
SIZE
        30**DCL     10473<<ASSIGN  10476<<ASSIGN  10479<<ASSIGN  10482<<ASSIGN  10487<<ASSIGN  10492<<ASSIGN
     10497>>CALLBLT 10498<<ASSIGN  10498>>ASSIGN  10500>>ASSIGN  10501>>ASSIGN  10503<<ASSIGN  10503>>ASSIGN
     10507>>CALLBLT 10508<<ASSIGN  10508>>ASSIGN  10512>>CALLBLT 10513<<ASSIGN  10513>>ASSIGN  10517<<ASSIGN
     10525<<ASSIGN  10526<>CALL    10580<<ASSIGN  10584<<ASSIGN  10628<<ASSIGN  10637<<ASSIGN  10641<<ASSIGN
     10678<<ASSIGN  10688<<ASSIGN  10704<<ASSIGN  10707<>CALL    10713<<ASSIGN  10717<>CALL    10762<<ASSIGN
     10767<<ASSIGN  10771<<ASSIGN  10794<<ASSIGN  10800<<ASSIGN  10804<<ASSIGN  10828<<ASSIGN  10838<<ASSIGN
     10843<<ASSIGN  10847<<ASSIGN  10874<<ASSIGN  10875<>CALL    10880<<ASSIGN  10881<>CALL    10888<<ASSIGN
     10893<<ASSIGN  10897<<ASSIGN  10908<<ASSIGN  10913<<ASSIGN  10917<<ASSIGN  10927<<ASSIGN  10930<>CALL
     10939<<ASSIGN  10942<<ASSIGN  10942>>ASSIGN  10948<<ASSIGN  10948>>ASSIGN  10951<<ASSIGN  10951>>ASSIGN
     10953<>CALL    10965<<ASSIGN  10968<>CALL    10974<<ASSIGN  10978<>CALL    10996<<ASSIGN  11002<<ASSIGN
     11005>>CALLBLT 11006<<ASSIGN  11006>>ASSIGN  11011>>CALLBLT 11012<<ASSIGN  11012>>ASSIGN  11016>>CALLBLT
     11017<<ASSIGN  11017>>ASSIGN  11021<<ASSIGN  11042<<ASSIGN  11049<<ASSIGN  11050>>CALLBLT 11051<<ASSIGN
     11051>>ASSIGN  11065<<ASSIGN  11070<<ASSIGN  11074<<ASSIGN  11079<<ASSIGN  11080>>ASSIGN  11082<<ASSIGN
     11082>>ASSIGN  11089<<ASSIGN  11094<<ASSIGN  11098<<ASSIGN  11110<<ASSIGN  11115<<ASSIGN  11119<<ASSIGN
     11129<<ASSIGN  11143<<ASSIGN  11224<>CALL    11246<<ASSIGN  11246>>ASSIGN  11250<<ASSIGN  11250>>ASSIGN
     11257<<ASSIGN  11257>>ASSIGN  11264<<ASSIGN  11264>>ASSIGN  11272<<ASSIGN  11272>>ASSIGN  11280<<ASSIGN
     11280>>ASSIGN  11286<<ASSIGN  11286>>ASSIGN  11291<<ASSIGN  11291>>ASSIGN  11313<<ASSIGN  11313>>ASSIGN
     11319<<ASSIGN  11319>>ASSIGN  11326<<ASSIGN  11326>>ASSIGN  11331<<ASSIGN  11331>>ASSIGN  11336<<ASSIGN
     11336>>ASSIGN  11341<<ASSIGN  11341>>ASSIGN  11348<<ASSIGN  11348>>ASSIGN  11355<<ASSIGN  11355>>ASSIGN
     11361<<ASSIGN  11361>>ASSIGN  11367<<ASSIGN  11367>>ASSIGN  11373<<ASSIGN  11373>>ASSIGN  11379<<ASSIGN
     11379>>ASSIGN  11385<<ASSIGN  11385>>ASSIGN  11387<<ASSIGN  11387>>ASSIGN
SKIP_DEST
     10361**LABEL   10348--GOTO
STEP_MODE
        19**DCL     10467<<ASSIGN  10469<<ASSIGN  10470>>DOCASE
STX IN PROCEDURE SHOW_TYPE
PL6.E3A0      #001=DDA$SHOW File=DDA$SHOW.:E05TSI                                TUE 07/29/97 13:35 Page:219
     10399**DCL     10528<<DOINDEX 10535>>ASSIGN  10537>>ASSIGN  10540>>IF      10544>>IF      10548>>IF
     10554>>IF      10558>>IF      10562>>IF
SZ
        26**DCL     10448<<ASSIGN  10449<>CALL    10460<<ASSIGN  10461<>CALL
S_D.ANLZ
      7066**DCL     10375>>IF      10401>>IF      11033>>IF
S_D.B$TREE$
      7086**DCL     11428>>ASSIGN  11437>>ASSIGN
S_D.BYPASS
      6846**DCL     10760>>IF
S_D.COPY
      7042**DCL     10886>>IF
S_D.CURRENT_CHANNEL
      7366**DCL      7368--REDEF
S_D.CURRENT_FPRG_CONTEXT$
      6566**DCL     10432>>IF      10469>>ASSIGN  10633>>IF      10633>>IF      10645>>IF      10651>>IF
     10661>>IF      10662>>ASSIGN  10663>>ASSIGN  10665>>IF      10669>>IF      10751>>IF      10809>>IF
     10854>>IF      11054>>IF      11149>>ASSIGN  11157<<ASSIGN  11175<<ASSIGN  11181>>ASSIGN  11196<<ASSIGN
     11212<<ASSIGN  11406>>ASSIGN  11474<<ASSIGN  11476>>CALL
S_D.DEBUG
      7021**DCL     10781>>IF
S_D.DEBUGA
      6518**DCL      6520--REDEF   11135>>IF
S_D.DEBUGF
      6520**DCL     11124>>IF      11126>>IF
S_D.DEBUG_CMD
      6938**DCL     11475>>IF
S_D.DO$
      6469**DCL     10349>>IF      10350>>CALL    10350>>CALL    10363>>ASSIGN  10434>>IF      10746>>ASSIGN
     10747>>ASSIGN  10753>>IF      10785>>IF      10811>>IF      10856>>IF      10866>>IF      10867>>IF
     10869>>IF      11056>>IF      11188>>DOWHILE
S_D.DUMPDCB
      7172**DCL     10350<>CALL    10353<<ASSIGN  10354--IF      10355--IF      10357--ASSIGN
S_D.ECHO
      7044**DCL     10906>>IF
S_D.EFMT_DEFAULT
PL6.E3A0      #001=DDA$SHOW File=DDA$SHOW.:E05TSI                                TUE 07/29/97 13:35 Page:220
      7034**DCL     10873>>CALLBLT 10874>>ASSIGN
S_D.EIS
      7476**DCL      7505--REDEF
S_D.EOM
      7058**DCL     10836>>IF
S_D.ERROR
      6447**DCL     10369<<ASSIGN  10422<<ASSIGN  10437<<ASSIGN  10457<<ASSIGN  10484<<ASSIGN  10698<<ASSIGN
     10756<<ASSIGN  10814<<ASSIGN  10825<<ASSIGN  10859<<ASSIGN  11029<<ASSIGN  11059<<ASSIGN  11104<<ASSIGN
     11152<<ASSIGN  11169<<ASSIGN  11184<<ASSIGN  11192<<ASSIGN  11208<<ASSIGN  11217<<ASSIGN  11229<<ASSIGN
     11230<<ASSIGN
S_D.EWSQ#
      6443**DCL     11445>>ASSIGN  11451<<ASSIGN  11457<<ASSIGN  11467<<ASSIGN
S_D.FIXCOM.CMD
      6874**DCL     11410>>ASSIGN
S_D.FIXCOM.FAI
      6884**DCL     11420>>ASSIGN  11448>>ASSIGN
S_D.FIXCOM.USER
      6880**DCL     11449>>IF
S_D.FIXLAST
      6510**DCL     10362>>ASSIGN
S_D.FMT_DEFAULT
      6702**DCL     10879>>CALLBLT 10880>>ASSIGN
S_D.FPRG
      6564**DCL     10432>>IF      10751>>IF      10809>>IF      10854>>IF      11054>>IF      11405>>ASSIGN
     11473<<ASSIGN  11475>>IF
S_D.FPRG_CONTEXT$
      6558**DCL     10708>>IF      10710>>ASSIGN  10931>>IF      10933>>ASSIGN  10969>>IF      10971>>ASSIGN
     11150>>IF      11155>>ASSIGN  11182>>IF      11187>>ASSIGN
S_D.HOST_MESSAGE_BUF_REMOTE
      7409**DCL      7410--REDEF    7424--REDEF
S_D.IGNORE
      7019**DCL     10929<>CALL    10930>>IF
S_D.JDE
      7023**DCL      7024--REDEF
S_D.K$EEP.TYPE
      6896**DCL     10689>>IF      10691>>IF      10693>>IF      10695>>IF
PL6.E3A0      #001=DDA$SHOW File=DDA$SHOW.:E05TSI                                TUE 07/29/97 13:35 Page:221
S_D.KEEP
      7015**DCL     10706<>CALL    10707>>IF
S_D.L$.VALUE
      6576**DCL      6582--REDEF    6590--REDEF    6593--REDEF    6596--REDEF    6599--REDEF
S_D.L$.VALUE.L
      6577**DCL      6578--REDEF    6579--REDEF
S_D.L6_MESSAGE_BUF
      7430**DCL      7432--REDEF
S_D.MTREE$
      7076**DCL     11433>>IF
S_D.NODE
      6975**DCL     11424>>ASSIGN  11425<<ASSIGN  11431<<ASSIGN
S_D.ONCALLS
      7048**DCL     10576>>IF
S_D.ONE_TO_TWO.EXEC_DOMAIN
      7441**DCL     10452>>IF      10454>>IF      10466>>IF      10574>>IF      10820>>IF      10822>>IF
S_D.OUTPUT
      7396**DCL      7398--REDEF   10345--ASSIGN  10381<<ASSIGN  10382--CALL    10443--ASSIGN  10472<<ASSIGN
     10475<<ASSIGN  10478<<ASSIGN  10481<<ASSIGN  10486<<ASSIGN  10491<<ASSIGN  10497<<CALLBLT 10500--ASSIGN
     10501--ASSIGN  10507<<CALLBLT 10512<<CALLBLT 10516<<ASSIGN  10524<<ASSIGN  10530--ASSIGN  10532<<ASSIGN
     10568--CALL    10579<<ASSIGN  10583<<ASSIGN  10590<<ASSIGN  10591--ASSIGN  10595<<ASSIGN  10596--ASSIGN
     10600<<ASSIGN  10601--ASSIGN  10605<<ASSIGN  10606--ASSIGN  10609<<ASSIGN  10610--ASSIGN  10628--ASSIGN
     10636<<ASSIGN  10640<<ASSIGN  10647<<ASSIGN  10648--ASSIGN  10653<<ASSIGN  10654--ASSIGN  10657<<ASSIGN
     10658--ASSIGN  10678--ASSIGN  10690<<ASSIGN  10692<<ASSIGN  10694<<ASSIGN  10696<<ASSIGN  10703<<ASSIGN
     10705--ASSIGN  10707--CALL    10712<<ASSIGN  10714--ASSIGN  10717--CALL    10761<<ASSIGN  10766<<ASSIGN
     10770<<ASSIGN  10793<<ASSIGN  10799<<ASSIGN  10803<<ASSIGN  10818<<ASSIGN  10819--ASSIGN  10837<<ASSIGN
     10842<<ASSIGN  10846<<ASSIGN  10873<<CALLBLT 10879<<CALLBLT 10887<<ASSIGN  10892<<ASSIGN  10896<<ASSIGN
     10907<<ASSIGN  10912<<ASSIGN  10916<<ASSIGN  10926<<ASSIGN  10928--ASSIGN  10930--CALL    10938<<ASSIGN
     10940--ASSIGN  10944--ASSIGN  10953--CALL    10964<<ASSIGN  10966--ASSIGN  10968--CALL    10973<<ASSIGN
     10975--ASSIGN  10978--CALL    10995<<ASSIGN  11001<<ASSIGN  11005<<CALLBLT 11011<<CALLBLT 11016<<CALLBLT
     11020<<ASSIGN  11041<<ASSIGN  11048<<ASSIGN  11050<<CALLBLT 11064<<ASSIGN  11069<<ASSIGN  11073<<ASSIGN
     11078<<ASSIGN  11088<<ASSIGN  11093<<ASSIGN  11097<<ASSIGN  11109<<ASSIGN  11114<<ASSIGN  11118<<ASSIGN
     11128<<ASSIGN  11132<<ASSIGN  11224--CALL    11315--ASSIGN
S_D.OUT_WIDTH
      6449**DCL     10347>>ASSIGN  10356<<ASSIGN  10357<<ASSIGN  10359<<ASSIGN  10386<<ASSIGN
S_D.OVERLAID
PL6.E3A0      #001=DDA$SHOW File=DDA$SHOW.:E05TSI                                TUE 07/29/97 13:35 Page:222
      7080**DCL     10739>>IF      11416>>IF
S_D.PROTECT
      7273**DCL     11086>>IF
S_D.RANGE
      6844**DCL     10821<>CALL    10823<>CALL
S_D.REMOTE_MSG.FNCC
      7415**DCL      7416--REDEF
S_D.REMOTE_MSG.STXC
      7411**DCL      7412--REDEF
S_D.REMOTE_MSG.SUBFNCC
      7419**DCL      7420--REDEF
S_D.REPORT_FLAGS.LINE
      7236**DCL     10544>>IF      10558>>IF
S_D.REPORT_FLAGS.OFFSET
      7235**DCL     10540>>IF      10554>>IF
S_D.REPORT_FLAGS.TYPE
      7237**DCL     10548>>IF      10562>>IF
S_D.RUM
      7064**DCL     10373>>IF      10401>>IF      10987>>IF
S_D.S$TEP.MODE
      7344**DCL     10467>>ASSIGN
S_D.SAD
      7275**DCL     11066>>IF      11081<>CALL
S_D.SAVEIC
      6429**DCL     11434>>ASSIGN
S_D.SCH.IC
      6714**DCL     10502<>CALL
S_D.SCH.OK
      6706**DCL     10494>>IF
S_D.SCHEMA
      6516**DCL     10493>>IF
S_D.SHOW1
      6538**DCL     11414<<ASSIGN
S_D.SIM_UPDATE
      7533**DCL     10346<<ASSIGN  10351<<ASSIGN  10379>>IF      10387>>IF      10388<<ASSIGN  10447>>IF
     10451>>IF      10465>>IF      10496>>IF      10506>>IF      10511>>IF      10523>>IF      10531>>IF
PL6.E3A0      #001=DDA$SHOW File=DDA$SHOW.:E05TSI                                TUE 07/29/97 13:35 Page:223
     10536>>IF      10539>>IF      10578>>IF      10616>>IF      10635>>IF      10665>>IF      10707>>IF
     10765>>IF      10798>>IF      10841>>IF      10891>>IF      10911>>IF      10930>>IF      10968>>IF
     10994>>IF      11010>>IF      11040>>IF      11068>>IF      11092>>IF      11113>>IF
S_D.STATUS
      7518**DCL     11107>>IF
S_D.SV
      6475**DCL      6496--REDEF
S_D.SYNTAX
      7247**DCL     11050>>CALLBLT 11051>>ASSIGN
S_D.T$T.ACTIVE
      6979**DCL     10620>>IF
S_D.TR$INFO.ACTIVE
      6902**DCL     10620>>IF
S_D.TR$INFO.P
      6908**DCL     10612>>IF
S_D.TR$INFO.PSIZ
      6912**DCL     10614>>ASSIGN
S_D.TR$INFO.PTXT
      6914**DCL     10613>>ASSIGN
S_D.TR$INFO.SET
      6900**DCL     10576>>IF
S_D.TR$INFO.SILENT
      6904**DCL     10616>>IF
S_D.TR$INFO.TYPE
      6910**DCL     10588>>IF      10593>>IF      10598>>IF
S_D.TR$INFO.X
      6906**DCL     10604>>IF
S_D.TRAP
      7017**DCL     10967<>CALL    10968>>IF
S_D.TREE$
      7074**DCL     11421>>ASSIGN  11427<<ASSIGN  11432<<ASSIGN
S_D.UD.TEXT
      6622**DCL     10449<>CALL
S_D.UD.TEXTSZ
      6621**DCL     10444>>IF      10448>>ASSIGN
S_D.UD.VALUE
PL6.E3A0      #001=DDA$SHOW File=DDA$SHOW.:E05TSI                                TUE 07/29/97 13:35 Page:224
      6620**DCL     10453<>CALL    10455<>CALL
S_D.UNODE.USENODE
      7072**DCL     11447>>ASSIGN  11460<<ASSIGN  11466<<ASSIGN
S_D.UTREE$
      7078**DCL     11427>>ASSIGN
S_D.VARCOM$
      6887**DCL     11420>>ASSIGN  11448>>ASSIGN
S_D.XOU_NAME.SIZE
      6842**DCL     11003>>IF      11006>>ASSIGN  11015>>IF
S_D.XOU_NAME.TEXT
      6843**DCL     11005>>CALLBLT
S_D.XSCH.OK
      6754**DCL     11008>>IF
S_D$
      7727**DCL      6423--IMP-PTR 10345>>ASSIGN  10346>>ASSIGN  10347>>ASSIGN  10349>>IF      10350>>CALL
     10350>>CALL    10350>>CALL    10351>>ASSIGN  10353>>ASSIGN  10354>>IF      10355>>IF      10356>>ASSIGN
     10357>>ASSIGN  10357>>ASSIGN  10359>>ASSIGN  10362>>ASSIGN  10363>>ASSIGN  10369>>ASSIGN  10373>>IF
     10375>>IF      10379>>IF      10381>>ASSIGN  10382>>CALL    10386>>ASSIGN  10387>>IF      10388>>ASSIGN
     10401>>IF      10401>>IF      10422>>ASSIGN  10432>>IF      10432>>IF      10434>>IF      10437>>ASSIGN
     10444>>IF      10447>>IF      10448>>ASSIGN  10449>>CALL    10451>>IF      10452>>IF      10453>>CALL
     10454>>IF      10455>>CALL    10457>>ASSIGN  10465>>IF      10466>>IF      10467>>ASSIGN  10469>>ASSIGN
     10472>>ASSIGN  10475>>ASSIGN  10478>>ASSIGN  10481>>ASSIGN  10484>>ASSIGN  10486>>ASSIGN  10491>>ASSIGN
     10493>>IF      10494>>IF      10496>>IF      10497>>CALLBLT 10500>>ASSIGN  10502>>CALL    10506>>IF
     10507>>CALLBLT 10511>>IF      10512>>CALLBLT 10516>>ASSIGN  10523>>IF      10524>>ASSIGN  10530>>ASSIGN
     10531>>IF      10532>>ASSIGN  10536>>IF      10539>>IF      10540>>IF      10544>>IF      10548>>IF
     10554>>IF      10558>>IF      10562>>IF      10568>>CALL    10574>>IF      10576>>IF      10576>>IF
     10578>>IF      10579>>ASSIGN  10583>>ASSIGN  10588>>IF      10590>>ASSIGN  10591>>ASSIGN  10593>>IF
     10595>>ASSIGN  10596>>ASSIGN  10598>>IF      10600>>ASSIGN  10601>>ASSIGN  10604>>IF      10605>>ASSIGN
     10606>>ASSIGN  10609>>ASSIGN  10610>>ASSIGN  10612>>IF      10613>>ASSIGN  10614>>ASSIGN  10616>>IF
     10616>>IF      10620>>IF      10620>>IF      10628>>ASSIGN  10633>>IF      10633>>IF      10635>>IF
     10636>>ASSIGN  10640>>ASSIGN  10645>>IF      10647>>ASSIGN  10648>>ASSIGN  10651>>IF      10653>>ASSIGN
     10654>>ASSIGN  10657>>ASSIGN  10658>>ASSIGN  10661>>IF      10662>>ASSIGN  10663>>ASSIGN  10665>>IF
     10665>>IF      10669>>IF      10678>>ASSIGN  10689>>IF      10690>>ASSIGN  10691>>IF      10692>>ASSIGN
     10693>>IF      10694>>ASSIGN  10695>>IF      10696>>ASSIGN  10698>>ASSIGN  10703>>ASSIGN  10705>>ASSIGN
     10706>>CALL    10707>>IF      10707>>IF      10707>>CALL    10708>>IF      10710>>ASSIGN  10712>>ASSIGN
     10714>>ASSIGN  10717>>CALL    10739>>IF      10746>>ASSIGN  10747>>ASSIGN  10751>>IF      10751>>IF
PL6.E3A0      #001=DDA$SHOW File=DDA$SHOW.:E05TSI                                TUE 07/29/97 13:35 Page:225
     10753>>IF      10756>>ASSIGN  10760>>IF      10761>>ASSIGN  10765>>IF      10766>>ASSIGN  10770>>ASSIGN
     10781>>IF      10785>>IF      10793>>ASSIGN  10798>>IF      10799>>ASSIGN  10803>>ASSIGN  10809>>IF
     10809>>IF      10811>>IF      10814>>ASSIGN  10818>>ASSIGN  10819>>ASSIGN  10820>>IF      10821>>CALL
     10822>>IF      10823>>CALL    10825>>ASSIGN  10836>>IF      10837>>ASSIGN  10841>>IF      10842>>ASSIGN
     10846>>ASSIGN  10854>>IF      10854>>IF      10856>>IF      10859>>ASSIGN  10866>>IF      10867>>IF
     10869>>IF      10873>>CALLBLT 10873>>CALLBLT 10874>>ASSIGN  10879>>CALLBLT 10879>>CALLBLT 10880>>ASSIGN
     10886>>IF      10887>>ASSIGN  10891>>IF      10892>>ASSIGN  10896>>ASSIGN  10906>>IF      10907>>ASSIGN
     10911>>IF      10912>>ASSIGN  10916>>ASSIGN  10926>>ASSIGN  10928>>ASSIGN  10929>>CALL    10930>>IF
     10930>>IF      10930>>CALL    10931>>IF      10933>>ASSIGN  10938>>ASSIGN  10940>>ASSIGN  10953>>CALL
     10964>>ASSIGN  10966>>ASSIGN  10967>>CALL    10968>>IF      10968>>IF      10968>>CALL    10969>>IF
     10971>>ASSIGN  10973>>ASSIGN  10975>>ASSIGN  10978>>CALL    10987>>IF      10994>>IF      10995>>ASSIGN
     11001>>ASSIGN  11003>>IF      11005>>CALLBLT 11005>>CALLBLT 11006>>ASSIGN  11008>>IF      11010>>IF
     11011>>CALLBLT 11015>>IF      11016>>CALLBLT 11020>>ASSIGN  11029>>ASSIGN  11033>>IF      11040>>IF
     11041>>ASSIGN  11048>>ASSIGN  11050>>CALLBLT 11050>>CALLBLT 11051>>ASSIGN  11054>>IF      11054>>IF
     11056>>IF      11059>>ASSIGN  11064>>ASSIGN  11066>>IF      11068>>IF      11069>>ASSIGN  11073>>ASSIGN
     11078>>ASSIGN  11081>>CALL    11086>>IF      11088>>ASSIGN  11092>>IF      11093>>ASSIGN  11097>>ASSIGN
     11104>>ASSIGN  11107>>IF      11109>>ASSIGN  11113>>IF      11114>>ASSIGN  11118>>ASSIGN  11124>>IF
     11126>>IF      11128>>ASSIGN  11132>>ASSIGN  11135>>IF      11149>>ASSIGN  11150>>IF      11152>>ASSIGN
     11155>>ASSIGN  11157>>ASSIGN  11169>>ASSIGN  11175>>ASSIGN  11181>>ASSIGN  11182>>IF      11184>>ASSIGN
     11187>>ASSIGN  11188>>DOWHILE 11192>>ASSIGN  11196>>ASSIGN  11208>>ASSIGN  11212>>ASSIGN  11217>>ASSIGN
     11224>>CALL    11229>>ASSIGN  11230>>ASSIGN  11405>>ASSIGN  11406>>ASSIGN  11410>>ASSIGN  11414>>ASSIGN
     11416>>IF      11420>>ASSIGN  11420>>ASSIGN  11421>>ASSIGN  11424>>ASSIGN  11425>>ASSIGN  11427>>ASSIGN
     11427>>ASSIGN  11428>>ASSIGN  11431>>ASSIGN  11432>>ASSIGN  11433>>IF      11434>>ASSIGN  11437>>ASSIGN
     11445>>ASSIGN  11447>>ASSIGN  11448>>ASSIGN  11448>>ASSIGN  11449>>IF      11451>>ASSIGN  11457>>ASSIGN
     11460>>ASSIGN  11466>>ASSIGN  11467>>ASSIGN  11473>>ASSIGN  11474>>ASSIGN  11475>>IF      11475>>IF
     11476>>CALL
TABLE
      8484**DCL     10365--DOINDEX 10367>>ASSIGN
TFPRG$
        46**DCL     10710<<ASSIGN  10711>>DOWHILE 10715>>ASSIGN  10716<>CALL    10718<<ASSIGN  10718>>ASSIGN
     10933<<ASSIGN  10934>>DOWHILE 10935>>IF      10935>>IF      10945>>CALL    10945>>CALL    10945>>CALL
     10948>>ASSIGN  10955<<ASSIGN  10955>>ASSIGN  10971<<ASSIGN  10972>>DOWHILE 10976>>ASSIGN  10977<>CALL
     10979<<ASSIGN  10979>>ASSIGN  11155<<ASSIGN  11156>>DOWHILE 11157>>ASSIGN  11158>>CALL    11159>>DOCASE
     11173<<ASSIGN  11173>>ASSIGN  11187<<ASSIGN  11188>>DOWHILE 11189<<ASSIGN  11189>>ASSIGN  11190>>IF
     11196>>ASSIGN  11197>>CALL    11198>>DOCASE  11316>>CALL    11316>>CALL    11316>>CALL    11319>>ASSIGN
TREE$ IN PROCEDURE SHOW_FIX
PL6.E3A0      #001=DDA$SHOW File=DDA$SHOW.:E05TSI                                TUE 07/29/97 13:35 Page:226
     11399**DCL     11421<<ASSIGN  11422>>IF      11432>>ASSIGN  11433>>IF
TYPE
        18**DCL     10363<<ASSIGN  10364>>IF      10367<<ASSIGN  10372>>IF      10374<<ASSIGN  10376<<ASSIGN
     10401>>IF      10401>>IF      10401>>IF      10401>>IF      10401>>IF      10401>>IF      10401>>IF
     10401>>IF      10401>>IF      10401>>IF      10401>>IF      10401>>IF      10401>>IF      10401>>IF
     10401>>IF      10401>>IF      10401>>IF      10401>>IF      10401>>IF      10427>>DOCASE
U$SE
      1391**DCL     11464<<ASSIGN
U$SE.APT
      1395**DCL     11453<<ASSIGN
U$SE.LS
      1394**DCL     11454<<ASSIGN  11459<<ASSIGN
U$SE.TYPE
      1393**DCL     11452<<ASSIGN  11458<<ASSIGN
UNODE
      1414**DCL     11447<<ASSIGN  11466>>ASSIGN
USAVE
      1399**DCL     11446<<ASSIGN  11464>>ASSIGN
USE$
      7734**DCL      1391--IMP-PTR 11452>>ASSIGN  11453>>ASSIGN  11454>>ASSIGN  11458>>ASSIGN  11459>>ASSIGN
     11464>>ASSIGN
USE_REM
      1407**DCL     11446>>ASSIGN
WRITE_IT IN PROCEDURE SHOW_TYPE
     11215**LABEL   10489--GOTO    10520--GOTO    10629--GOTO    10679--GOTO    10682--GOTO    10701--GOTO
     10774--GOTO    10807--GOTO    10829--GOTO    10850--GOTO    10900--GOTO    10920--GOTO    10997--GOTO
     11025--GOTO    11043--GOTO    11052--GOTO    11084--GOTO    11101--GOTO    11122--GOTO    11145--GOTO
PL6.E3A0      #001=DDA$SHOW File=DDA$SHOW.:E05TSI                                TUE 07/29/97 13:35 Page:227
              *** CROSS REFERENCE LISTING ***
    **     DENOTES     IDENTIFIER DEFINITION
    <<                 IDENTIFIER'S VALUE SET
    >>                 IDENTIFIER'S VALUE USED
    <>                 IDENTIFIER SET AND/OR USED
    --                 IDENTIFIER REFERENCED
PL6.E3A0      #001=DDA$SHOW File=DDA$SHOW.:E05TSI                                TUE 07/29/97 13:35 Page:228
              MINI UREF LISTING

B$TREEHDR    4937**DCL
DDA$SHOW      16**PROC
I      28**DCL
M$ACCT    9674**DCL-ENT
M$ACTIVATE    9677**DCL-ENT
M$ALIB    9670**DCL-ENT
M$ASUSER    9672**DCL-ENT
M$ATTACH    9679**DCL-ENT
M$BADPP    9697**DCL-ENT
M$CGCTL    9678**DCL-ENT
M$CGINFO    9678**DCL-ENT
M$CHECK    9659**DCL-ENT
M$CHGUNIT    9717**DCL-ENT
M$CLOSE    9657**DCL-ENT
M$CLRSTK    9715**DCL-ENT
M$CMDVAR    9726**DCL-ENT
M$CONFIG    9687**DCL-ENT
M$CORRES    9662**DCL-ENT
M$CPEXIT    9671**DCL-ENT
M$CVM    9695**DCL-ENT
M$CVOL    9660**DCL-ENT
M$DCLFLD    9687**DCL-ENT
M$DEACTIVATE    9677**DCL-ENT
M$DELREC    9659**DCL-ENT
M$DEQ    9724**DCL-ENT
M$DETACH    9679**DCL-ENT
M$DEVICE    9661**DCL-ENT
M$DISPLAY    9724**DCL-ENT
M$DISPRES    9664**DCL-ENT
M$DLIB    9670**DCL-ENT
M$DRIBBLE    9687**DCL-ENT
M$DRTN    9715**DCL-ENT
PL6.E3A0      #001=DDA$SHOW File=DDA$SHOW.:E05TSI                                TUE 07/29/97 13:35 Page:229
M$DSUSER    9672**DCL-ENT
M$ENQ    9723**DCL-ENT
M$EOM    9682**DCL-ENT
M$ERASE    9688**DCL-ENT
M$ERR    9669**DCL-ENT
M$ERRMSG    9720**DCL-ENT
M$EVENT    9712**DCL-ENT
M$EXHUME    9721**DCL-ENT
M$EXIT    9669**DCL-ENT
M$EXTEND    9661**DCL-ENT
M$FDP    9693**DCL-ENT
M$FDS    9692**DCL-ENT
M$FEBOOT    9685**DCL-ENT
M$FECTL    9686**DCL-ENT
M$FEDUMP    9685**DCL-ENT
M$FID    9720**DCL-ENT
M$FINDPROC    9674**DCL-ENT
M$FSUSER    9672**DCL-ENT
M$FVP    9694**DCL-ENT
M$FWCG    9678**DCL-ENT
M$GBPL    9698**DCL-ENT
M$GDDL    9694**DCL-ENT
M$GDP    9693**DCL-ENT
M$GDS    9692**DCL-ENT
M$GETDCB    9663**DCL-ENT
M$GETMOUSE    9703**DCL-ENT
M$GETPM    9704**DCL-ENT
M$GJOB    9722**DCL-ENT
M$GLINEATTR    9682**DCL-ENT
M$GOODPP    9697**DCL-ENT
M$GPLATEN    9690**DCL-ENT
M$GPROMPT    9689**DCL-ENT
M$GTRMATTR    9683**DCL-ENT
M$GTRMCTL    9681**DCL-ENT
M$GTRMTAB    9684**DCL-ENT
M$GVP    9693**DCL-ENT
PL6.E3A0      #001=DDA$SHOW File=DDA$SHOW.:E05TSI                                TUE 07/29/97 13:35 Page:230
M$HELP    9720**DCL-ENT
M$INT    9712**DCL-ENT
M$INTRTN    9673**DCL-ENT
M$IOQ    9708**DCL-ENT
M$JOBSTATS    9722**DCL-ENT
M$KEYIN    9662**DCL-ENT
M$LDEV    9657**DCL-ENT
M$LDTRC    9670**DCL-ENT
M$LIMIT    9663**DCL-ENT
M$LINES    9662**DCL-ENT
M$LINK    9669**DCL-ENT
M$MADMUCK    9665**DCL-ENT
M$MAKUSER    9696**DCL-ENT
M$MBS    9664**DCL-ENT
M$MDFFLD    9688**DCL-ENT
M$MERC    9713**DCL-ENT
M$MERCS    9714**DCL-ENT
M$MIRROR    9708**DCL-ENT
M$MONINFO    9725**DCL-ENT
M$MPL    9698**DCL-ENT
M$NODEINFO    9689**DCL-ENT
M$NXTUSR    9723**DCL-ENT
M$OCMSG    9721**DCL-ENT
M$OLAY    9669**DCL-ENT
M$OPEN    9657**DCL-ENT
M$PAS    9698**DCL-ENT
M$PATHCON    9721**DCL-ENT
M$PDS    9692**DCL-ENT
M$PFIL    9659**DCL-ENT
M$PLATEN    9683**DCL-ENT
M$PRECORD    9661**DCL-ENT
M$PROCNAME    9674**DCL-ENT
M$PROFILE    9685**DCL-ENT
M$PROMPT    9681**DCL-ENT
M$RACST    9665**DCL-ENT
M$RDSYSLOG    9706**DCL-ENT
PL6.E3A0      #001=DDA$SHOW File=DDA$SHOW.:E05TSI                                TUE 07/29/97 13:35 Page:231
M$READ    9658**DCL-ENT
M$RELDCB    9663**DCL-ENT
M$RELRES    9664**DCL-ENT
M$RELSTARF    9666**DCL-ENT
M$REM    9666**DCL-ENT
M$RENV    9713**DCL-ENT
M$REQUIRE    9665**DCL-ENT
M$RETRY    9714**DCL-ENT
M$RETRYS    9714**DCL-ENT
M$REW    9660**DCL-ENT
M$RLSFLD    9688**DCL-ENT
M$RPRIV    9716**DCL-ENT
M$RSPP    9695**DCL-ENT
M$RSWITCH    9717**DCL-ENT
M$RUE    9723**DCL-ENT
M$SAD    9696**DCL-ENT
M$SAVE    9672**DCL-ENT
M$SCON    9673**DCL-ENT
M$SCREECH    9671**DCL-ENT
M$SENV    9713**DCL-ENT
M$SETFMA    9657**DCL-ENT
M$SETFP    9686**DCL-ENT
M$SINPUT    9684**DCL-ENT
M$SLCFLD    9689**DCL-ENT
M$SMOUSE    9703**DCL-ENT
M$SMPRT    9695**DCL-ENT
M$SPRIV    9716**DCL-ENT
M$SSC    9696**DCL-ENT
M$SSWITCH    9716**DCL-ENT
M$STATE    9725**DCL-ENT
M$STD    9697**DCL-ENT
M$STIMER    9711**DCL-ENT
M$STLPP    9694**DCL-ENT
M$STRAP    9711**DCL-ENT
M$STRMATTR    9683**DCL-ENT
M$STRMCTL    9681**DCL-ENT
PL6.E3A0      #001=DDA$SHOW File=DDA$SHOW.:E05TSI                                TUE 07/29/97 13:35 Page:232
M$STRMTAB    9684**DCL-ENT
M$SYMBIO    9722**DCL-ENT
M$SYSCON    9708**DCL-ENT
M$SYSID    9726**DCL-ENT
M$TDCLOSE    9707**DCL-ENT
M$TDIO    9707**DCL-ENT
M$TDOPEN    9706**DCL-ENT
M$TDREQCPU    9707**DCL-ENT
M$TEMPWROC    9701**DCL-ENT
M$TIME    9724**DCL-ENT
M$TRAP    9711**DCL-ENT
M$TRMISC    9686**DCL-ENT
M$TRMPRG    9682**DCL-ENT
M$TRTN    9715**DCL-ENT
M$TRUNC    9658**DCL-ENT
M$TTIMER    9711**DCL-ENT
M$UC    9681**DCL
M$UMPL    9698**DCL-ENT
M$UNFID    9720**DCL-ENT
M$UNLATCH    9677**DCL-ENT
M$UNSHARE    9674**DCL-ENT
M$USRFIELD    9717**DCL-ENT
M$VIRTUAL    9692**DCL-ENT
M$WAIT    9715**DCL-ENT
M$WEOF    9660**DCL-ENT
M$WRITE    9658**DCL-ENT
M$WRSYSLOG    9706**DCL-ENT
M$XCON    9712**DCL-ENT
M$XCONRTN    9673**DCL-ENT
M$XEQTIME    9725**DCL-ENT
M$XFLUSH    9666**DCL-ENT
M$XMOUSE    9703**DCL-ENT
M$XXX    9669**DCL-ENT
M$YC    9671**DCL-ENT
SDD$    9071**DCL
SDD_L6$    9073**DCL
PL6.E3A0      #001=DDA$SHOW File=DDA$SHOW.:E05TSI                                TUE 07/29/97 13:35 Page:233
ZITEM$    9072**DCL
ZITEM_L6$    9074**DCL
