VERSION E05

PL6.E3A0      #001=DDA$SHOW1 File=DDA$SHOW1.:E05TSI                              TUE 07/29/97 13:37 Page:1
        1        1        /*M* DDA$SHOW1 SHOW1 DO ROUTINE */
        2        2        /*T***********************************************************/
        3        3        /*T*                                                         */
        4        4        /*T* Copyright (c) Bull HN Information Systems Inc., 1997    */
        5        5        /*T*                                                         */
        6        6        /*T***********************************************************/
        7        7        /*X* DMR,PLM=5,IND=5,CSU=3,EXM=0,ECU=3,MOC,DCI=5,CRT=5 */
        8        8        %SET LISTSUB='1'B;
        9        9        /*D*  NAME:  DDA$SHOW1
       10       10              CALL:  CALL DDA$SHOW1
       11       11              INPUT: S_D.SHOW1 IS THE COMMAND ID (CID) OF THE STORED
       12       12                     COMMAND TO BE 'SHOWN'
       13       13              OUTPUT:  THE STORED COMMAND AND ITS ATTACHMENTS ARE
       14       14                     SHOWN ON THE OUTPUT DEVICE.
       15       15              DESCRIPTION:
       16       16                     THE COMMAND IS SHOWN IN THE FORMAT:
       17       17                          ID (STUFF) COMMAND DEPENDENT (IFSPEC) ATTACHMENTS
       18       18                     */
       19       19
       20       20        DDA$SHOW1: PROC (PSHOW, SIZE);
       21       21        /**/
       22       22    1   DCL PSHOW BIT(1) ALIGNED;
       23       23    1   DCL SIZE UBIN;
       24       24
       25       25        /* Auto */
       26       26    1   DCL SHOW BIT(1) ALIGNED;
       27       27    1   DCL SILENT BIT(1) ALIGNED;
       28       28    1   DCL INACTIVE BIT(1) ALIGNED;
       29       29    1   DCL BYCOUNT SBIN;
       30       30    1   DCL CRCOUNT SBIN;
       31       31    1   DCL ATT UBIN;
       32       32    1   DCL NCARS UBIN;
       33       33    1   DCL BYFLAG BIT(1) ALIGNED;
       34       34    1   DCL ATT$ PTR;
       35       35    1   DCL ATXT$ PTR;
       36       36    1   DCL BUF$ PTR;
       37       37    1   DCL BB$ PTR;
PL6.E3A0      #001=DDA$SHOW1 File=DDA$SHOW1.:E05TSI                              TUE 07/29/97 13:37 Page:2
       38       38    1   DCL REM UBIN;
       39       39    1   DCL CMD UBIN;
       40       40    1   DCL NTXT$ PTR;
       41       41    1   DCL IC UBIN;
       42       42    1   DCL GOT_ID BIT(1) ALIGNED;
       43       43    1   DCL TFPRG$ PTR;
       44       44    1   DCL POS SBIN;
       45       45    1   DCL TPOS SBIN;
       46       46    1   DCL TEMP UBIN;
       47       47        /* Based */
       48       48    1   DCL CHAR$REM CHAR(REM) BASED(BB$);
       49       49    1   DCL CHAR$ATT CHAR(ATT) BASED;
       50       50    1   DCL CHAR$ID CHAR(2) BASED(BB$);
       51       51        %INCLUDE DD$BASED;
       52     1354        %AT_FIRST;
       53     1382        %TEXT$C;
       54     1387    1   DCL D_XDELTA BIT(1) ALIGNED SYMREF;
       55     1388    1   DCL DEFDIR$ PTR SYMREF;
       56     1389        %B$DEF;
       57     1401        %FPRG$CONTEXT;
       58     1464        %INCLUDE B$OBJECT_C;
       59     4894        %B$TREE_TABLE (NODE_NAME="B$TREE_NODE(0:0)");
       60     4952        %INCLUDE XUH_MACRO_C;
       61     5036        %INCLUDE DD_SD_M;
       62     6372        %S_D;
       63     7690        /* Entry */
       64     7691    1   DCL DDE$ERROR ENTRY;
       65     7692    1   DCL DDQ$WRITED ENTRY(2);
       66     7693    1   DCL DDR$BINTXT ENTRY(4);
       67     7694    1   DCL DDR$MOVE ENTRY(4) ALTRET;
       68     7695    1   DCL DDR$POSIT ENTRY(5) ALTRET;
       69     7696    1   DCL DFA$FPRG ENTRY(1);
       70     7697    1   DCL DFA$KILL_FPRG ENTRY(1);
       71     7698        /* Misc */
       72     7699        %INCLUDE DD_SUBS_C;
       73     7970        %INCLUDE DD_ERR_C;
       74     8367        %INCLUDE DD$DITEM;
PL6.E3A0      #001=DDA$SHOW1 File=DDA$SHOW1.:E05TSI                              TUE 07/29/97 13:37 Page:3
       12+    8470             %LIST;
       13+    8471    1        DCL SDD$ PTR;
       14+    8472    1        DCL ZITEM$ PTR;
       15+    8473    1        DCL SDD_L6$ PTR;
       16+    8474    1        DCL ZITEM_L6$ PTR;
       75     9048
       76     9049    1        IF ADDR(PSHOW) = ADDR(NIL)
       77     9050    1        THEN SHOW = '1'B;
       78     9051    1        ELSE SHOW = PSHOW;
       79     9052    1        IF S_D.SIM_UPDATE THEN SHOW = '1'B;
       80     9053        /* Initialization */
       81     9054    1        BUF$ = ADDR( S_D.OUTPUT );
       82     9055    1        BB$ = BUF$;
       83     9056    1        REM = LENGTHC( S_D.OUTPUT );
       84     9057    1        ATT$ = PINCRW(S_D.VARCOM$, S_D.FIXCOM.FAI(S_D.SHOW1) );
       85     9058    1        CMD = ATT$ -> AT_FIRST.CMD;
       86     9059    1        ATXT$ = PINCRC( ATT$, ATT$ -> AT_FIRST.TEXT_OFFSET );
       87     9060        /* CMD id */
       88     9061    1        CALL BINCHAR( CHAR$ID, S_D.SHOW1 );
       89     9062    1        BB$ = PINCRC( BB$, LENGTHC( CHAR$ID ) );
       90     9063    1        REM = REM - LENGTHC( CHAR$ID );
       91     9064    1        CALL DDR$MOVE( ' ', LENGTHC( ' ' ), BB$, REM );
       92     9065    1        IF S_D.FIXCOM.SILENT(S_D.SHOW1)
       93     9066    1        THEN SILENT = '1'B;
       94     9067    1        ELSE SILENT = '0'B;
       95     9068    1        IF S_D.FIXCOM.INACTIVE(S_D.SHOW1)
       96     9069    1        THEN INACTIVE = '1'B;
       97     9070    1        ELSE INACTIVE = '0'B;
       98     9071    1        BYCOUNT = ATT$ -> AT_FIRST.BYPASS_COUNT;
       99     9072    1        IF NOT SHOW
      100     9073    1        THEN GOTO DOADR;
      101     9074    1        CRCOUNT = ATT$ -> AT_FIRST.CURRENT_COUNT;
      102     9075    1        IF BYCOUNT>0 AND CRCOUNT>=0 AND CRCOUNT~=BYCOUNT
      103     9076    1        THEN BYFLAG = '1'B;
      104     9077    1        ELSE BYFLAG = '0'B;
      105     9078    1        IF S_D.FIXCOM.SILENT(S_D.SHOW1) OR
      106     9079    1          S_D.FIXCOM.INACTIVE(S_D.SHOW1) OR
PL6.E3A0      #001=DDA$SHOW1 File=DDA$SHOW1.:E05TSI                              TUE 07/29/97 13:37 Page:4
      107     9080    1          S_D.FIXCOM.NOT_IN(S_D.SHOW1) OR
      108     9081    1          S_D.FIXCOM.USER(S_D.SHOW1) OR
      109     9082    1          S_D.FIXCOM.FPRG(S_D.SHOW1) OR
      110     9083    1          ATT$ -> AT_FIRST.NODE~=0 OR
      111     9084    1          BYFLAG
      112     9085    2        THEN DO;                           /* ( stuff ) */
      113     9086    2             CALL DDR$MOVE( '(', LENGTHC( '(' ), BB$, REM );
      114     9087    2             IF S_D.FIXCOM.FPRG(S_D.SHOW1)
      115     9088    3             THEN DO;
      116     9089    3                  CALL DDR$MOVE(S_D.FIXCOM.FPRG_RES(S_D.SHOW1),
      117     9090    3                    S_D.FIXCOM.FPRG_RES_SIZE(S_D.SHOW1), BB$, REM);
      118     9091    3                  CALL DDR$MOVE(',', LENGTHC(','), BB$, REM);
      119     9092    3                END;
      120     9093    2             IF S_D.FIXCOM.USER(S_D.SHOW1) AND S_D.DEBUG_CMD
      121     9094    3             THEN DO;
      122     9095    3                  IF ATT$ -> AT_FIRST.USERNO = 0
      123     9096    3                  THEN CALL DDR$MOVE('Monitor,', LENGTHC('Monitor,'), BB$, REM);
      124     9097    4                  ELSE DO;
      125     9098    4                       CALL DDR$MOVE('User# ', LENGTHC('User# '), BB$, REM);
      126     9099    4                       TEMP = ATT$ -> AT_FIRST.USERNO;
      127     9100    4                       CALL DDR$BINTXT(BB$, TEMP, %X_FMT, NCARS);
      128     9101    4                       BB$ = PINCRC(BB$, NCARS);
      129     9102    4                       REM = REM - NCARS;
      130     9103    4                       CALL DDR$MOVE(',', LENGTHC(','), BB$, REM);
      131     9104    4                     END;
      132     9105    3                END;
      133     9106    2             ELSE IF S_D.FIXCOM.USER(S_D.SHOW1)
      134     9107    3                  THEN DO CASE ( ATT$ -> AT_FIRST.U.LS );
      135     9108    3                    CASE ( 1 );      /* LS_USER */
      136     9109    3                       CALL DDR$MOVE( 'USER,', LENGTHC( 'USER,' ), BB$, REM );
      137     9110    3                    CASE ( 2 );       /* LS_IDB */
      138     9111    3                       CALL DDR$MOVE( 'IDB,', LENGTHC( 'IDB,' ), BB$, REM );
      139     9112    3                    CASE ( 3 );       /* LS_ASL */
      140     9113    3                       CALL DDR$MOVE( 'ASL,', LENGTHC( 'ASL,' ), BB$, REM );
      141     9114    3                    CASE ( 4 );       /* LS_ICP */
      142     9115    3                       CALL DDR$MOVE( 'ICP,', LENGTHC( 'ICP,' ), BB$, REM );
      143     9116    3                    END;
PL6.E3A0      #001=DDA$SHOW1 File=DDA$SHOW1.:E05TSI                              TUE 07/29/97 13:37 Page:5
      144     9117    2             IF S_D.FIXCOM.SILENT(S_D.SHOW1)
      145     9118    2             THEN CALL DDR$MOVE( 'silent,', LENGTHC( 'silent,' ), BB$, REM );
      146     9119    2             IF S_D.FIXCOM.INACTIVE(S_D.SHOW1)
      147     9120    2             THEN CALL DDR$MOVE( 'inactive,', LENGTHC( 'inactive,' ), BB$, REM );
      148     9121    2             IF S_D.FIXCOM.NOT_IN(S_D.SHOW1)
      149     9122    2             THEN CALL DDR$MOVE( 'not_in,', LENGTHC( 'not_in,' ), BB$, REM );
      150     9123    2             IF ATT$ -> AT_FIRST.NODE ~= 0 AND
      151     9124    2               NOT (S_D.FIXCOM.USER(S_D.SHOW1))
      152     9125    3             THEN DO;
      153     9126    3                  CALL DDR$MOVE( 'node=', LENGTHC( 'node=' ), BB$, REM );
      154     9127    3                  IF D_XDELTA
      155     9128    3                  THEN NTXT$ = ADDR(B$DEF.NINFO.NODE_NAME(ATT$ -> AT_FIRST.NODE) );
      156     9129    3                  ELSE NTXT$ = S_D.B$TREE$ -> B$TREE_NODE.NAME$( ATT$ -> AT_FIRST.NODE
              9129                           );
      157     9130    3                  NCARS = NTXT$ -> TEXT$C.SIZE;
      158     9131    3                  CALL DDR$MOVE( NTXT$ -> TEXT$C.TXT, NCARS, BB$, REM );
      159     9132    3                  CALL DDR$MOVE( ',', LENGTHC( ',' ), BB$, REM );
      160     9133    3                END;
      161     9134    2             IF BYFLAG
      162     9135    3             THEN DO;
      163     9136    3                  CALL DDR$MOVE( '#', LENGTHC( '#' ), BB$, REM );
      164     9137    3                  CALL DDR$BINTXT( BB$, CRCOUNT, %UINT_FMT, NCARS );
      165     9138    3                  BB$ = PINCRC( BB$, NCARS );
      166     9139    3                  REM = REM - NCARS;
      167     9140    3                  CALL DDR$MOVE( '-left,', LENGTHC( '-left,' ), BB$, REM );
      168     9141    3                END;
      169     9142    2             BB$ = PINCRC( BB$, -1 );
      170     9143    2             REM = REM + 1;
      171     9144    2             CALL DDR$MOVE( ') ', LENGTHC( ') ' ), BB$, REM );
      172     9145    2           END;                            /* ( stuff ) */
      173     9146    1   DOADR: ;
      174     9147    1        IF CMD=2 OR                     /* C_AT */
      175     9148    1          CMD=31 OR                      /* C_OC */
      176     9149    1          CMD=45 OR                    /* C_SAVE */
      177     9150    1          CMD=30 OR                      /* C_OA */
      178     9151    1          CMD=32 OR                      /* C_OE */
      179     9152    1          CMD=53                    /* C_ONCALLS */
PL6.E3A0      #001=DDA$SHOW1 File=DDA$SHOW1.:E05TSI                              TUE 07/29/97 13:37 Page:6
      180     9153    2        THEN DO;
      181     9154    3             DO CASE (CMD);
      182     9155    3               CASE (2);                /* C_AT */
      183     9156    3                  IF (NOT SHOW) AND SILENT AND INACTIVE
      184     9157    3                  THEN CALL DDR$MOVE( 'ATSI ', LENGTHC( 'ATSI ' ), BB$, REM );
      185     9158    3                  ELSE IF (NOT SHOW) AND SILENT
      186     9159    3                       THEN CALL DDR$MOVE( 'ATS ', LENGTHC( 'ATS ' ), BB$, REM );
      187     9160    3                       ELSE IF (NOT SHOW) AND INACTIVE
      188     9161    3                            THEN CALL DDR$MOVE( 'ATI ', LENGTHC( 'ATI ' ), BB$, REM );
      189     9162    3                            ELSE CALL DDR$MOVE( 'AT ', LENGTHC( 'AT ' ), BB$, REM );
      190     9163    3               CASE (31);                /* C_OC */
      191     9164    3                  CALL DDR$MOVE( 'ON CALL ', LENGTHC( 'ON CALL ' ), BB$, REM );
      192     9165    3               CASE (45);              /* C_SAVE */
      193     9166    3                  CALL DDR$MOVE( 'SAVE', LENGTHC( 'SAVE' ), BB$, REM );
      194     9167    3               CASE (30);                /* C_OA */
      195     9168    3                  CALL DDR$MOVE( 'ON ABORT', LENGTHC( 'ON ABORT' ), BB$, REM );
      196     9169    3               CASE (32);                /* C_OE */
      197     9170    3                  CALL DDR$MOVE( 'ON EXIT', LENGTHC( 'ON EXIT' ), BB$, REM );
      198     9171    3               CASE (53);           /* C_ONCALLS */
      199     9172    3                  IF ATT$->AT_FIRST.XTERNAL THEN
      200     9173    3                       CALL DDR$MOVE('ON XCALLS', LENGTHC('ON XCALLS'), BB$, REM);
      201     9174    3                  ELSE
      202     9175    3                       CALL DDR$MOVE('ON CALLS',LENGTHC('ON CALLS'),BB$,REM );
      203     9176    3               CASE (ELSE);                /* Shouldn't get here */
      204     9177    3                  S_D.ERROR = 502;    /* E@DELBUG */
      205     9178    3                  CALL DDE$ERROR;
      206     9179    3                  RETURN;
      207     9180    3               END;
      208     9181    2             IF CMD = 2 OR CMD = 31   /* C_AT, C_OC */
      209     9182    3             THEN DO;                      /* Generate position */
      210     9183    3                  IC = S_D.FIXCOM.CDF( S_D.SHOW1 );
      211     9184    3                  IF S_D.FIXCOM.FPRG(S_D.SHOW1)
      212     9185    4                  THEN DO;
      213     9186                                           /* Setup pointer to correct FPRG context */
      214     9187    4                       TFPRG$ = S_D.FPRG_CONTEXT$;
      215     9188    5                       DO WHILE (TFPRG$ -> FPRG$CONTEXT.RES ~= S_D.FIXCOM.FPRG_RES(S_D.
              9188                                SHOW1));
PL6.E3A0      #001=DDA$SHOW1 File=DDA$SHOW1.:E05TSI                              TUE 07/29/97 13:37 Page:7
      216     9189    5                            TFPRG$ = TFPRG$ -> FPRG$CONTEXT.NEXT$;
      217     9190    5                            IF TFPRG$ = ADDR(NIL)
      218     9191    6                            THEN DO;
      219     9192    6                                 S_D.ERROR_HICHAR = S_D.SHOW1;
      220     9193    6                                 S_D.ERROR = 507; /* E@BADFPRGAT */
      221     9194    6                                 CALL DDE$ERROR;
      222     9195    6                                 GOTO RETN;
      223     9196    6                               END;
      224     9197    5                          END;
      225     9198    4                       S_D.CURRENT_FPRG_CONTEXT$ = TFPRG$;
      226     9199    4                       S_D.SHOW = '1'B;
      227     9200    4                       IF NOT S_D.DEBUG_CMD
      228     9201    4                       THEN CALL DFA$FPRG(IC);
      229     9202    4                       S_D.SHOW = '0'B;
      230     9203    4                       CALL DDR$POSIT(IC, BB$, REM, NCARS);
      231     9204        /* #31278           IF NOT S_D.DEBUG_CMD
      232     9205                            THEN CALL DFA$KILL_FPRG;*/
      233     9206    4                     END;
      234     9207    4                  ELSE DO;
      235     9208    4                       IF S_D.FPRG
      236     9209    4                       THEN CALL DFA$KILL_FPRG;
      237     9210    4                       IF CMD = 31 AND NOT SHOW THEN S_D.REPORTING_ONCALL = '1'B;
      238     9211    4                       IF NOT SHOW THEN S_D.SIM_UPDATE = '1'B;
      239     9212    4                       CALL DDR$POSIT( IC, BB$, REM, NCARS );
      240     9213    4                       S_D.REPORTING_ONCALL = '0'B;
      241     9214    4                       IF NOT SHOW THEN S_D.SIM_UPDATE = '0'B;
      242     9215    4                     END;
      243     9216    3                  BB$ = PINCRC( BB$, NCARS );
      244     9217    3                  REM = REM - NCARS;
      245     9218    3                END;
      246     9219    2             IF BYCOUNT > 0
      247     9220    3             THEN DO;                      /* #bypass-count */
      248     9221    3                  CALL DDR$MOVE( ' #', LENGTHC( ' #' ), BB$, REM );
      249     9222    3                  CALL DDR$BINTXT( BB$, BYCOUNT, %UINT_FMT, NCARS );
      250     9223    3                  BB$ = PINCRC( BB$, NCARS );
      251     9224    3                  REM = REM - NCARS;
      252     9225    3                END;                       /* #bypass-count */
PL6.E3A0      #001=DDA$SHOW1 File=DDA$SHOW1.:E05TSI                              TUE 07/29/97 13:37 Page:8
      253     9226    2             IF ATT$ -> AT_FIRST.IF_OFFSET>0
      254     9227    3             THEN DO;                      /* User specified IFSPEC */
      255     9228    3                  ATT = ATT$ -> AT_FIRST.TEXT_SIZE - ATT$ -> AT_FIRST.IF_OFFSET;
      256     9229    3                  NTXT$ = PINCRC( ATXT$, ATT$ -> AT_FIRST.IF_OFFSET );
      257     9230    3                END;                       /* User specified IFSPEC */
      258     9231    2             ELSE IF ATT$ -> AT_FIRST.ATT_OFFSET>0
      259     9232    3                  THEN DO;                 /* User ATTACHMENTS */
      260     9233    3                       ATT = ATT$ -> AT_FIRST.TEXT_SIZE - ATT$ -> AT_FIRST.ATT_OFFSET;
      261     9234    3                       NTXT$ = PINCRC( ATXT$, ATT$ -> AT_FIRST.ATT_OFFSET );
      262     9235    3                       CALL DDR$MOVE( ';', LENGTHC( ';' ), BB$, REM );
      263     9236    3                     END;
      264     9237    3                  ELSE DO;                 /* Neither IFSPEC nor ATTACHMENTS */
      265     9238    3                       ATT = 0;
      266     9239    3                       NTXT$ = ADDR( NTXT$ );
      267     9240    3                     END;                  /* Neither IFSPEC not ATTACHENNTS */
      268     9241    2           END;                            /* Generate position */
      269     9242    2        ELSE DO;                           /* Text as user typed it */
      270     9243    2             GOT_ID = '0'B;
      271     9244    2             IF CMD = 67 OR            /* C_WHEN */
      272     9245    2               CMD = 34 OR              /* C_ONN */
      273     9246    2               CMD = 54             /* C_ONNODES */
      274     9247    3             THEN DO;
      275     9248    3                  ATT = ATT$ -> AT_FIRST.TEXT_SIZE;
      276     9249    3                  CALL INDEX (POS, SUBSTR(ATXT$->CHAR$ATT, 0, 1), '0123456789', 0);
      277     9250    3                  IF POS ~= LENGTHC('0123456789')
      278     9251    3                  THEN GOT_ID = '1'B;
      279     9252    3                END;
      280     9253    2             IF GOT_ID
      281     9254    3             THEN DO;
      282     9255    3                  TPOS = POS;
      283     9256    3                  CALL INDEX(POS, ATXT$->CHAR$ATT, ' ', TPOS);
      284     9257    3                  POS = POS + TPOS + 2;
      285     9258    3                  ATT = ATT$ -> AT_FIRST.TEXT_SIZE - POS;
      286     9259    3                  NTXT$ = PINCRC(ATXT$, POS);
      287     9260    3                END;
      288     9261    3             ELSE DO;
      289     9262    3                  ATT = ATT$ -> AT_FIRST.TEXT_SIZE;
PL6.E3A0      #001=DDA$SHOW1 File=DDA$SHOW1.:E05TSI                              TUE 07/29/97 13:37 Page:9
      290     9263    3                  NTXT$ = ATXT$;
      291     9264    3                END;
      292     9265    2           END;                            /* Text as user typed it */
      293     9266    1        CALL INSERT( CHAR$REM, , , NTXT$ -> CHAR$ATT );
      294     9267    1        NCARS = LENGTHC( S_D.OUTPUT ) - ( REM - ATT );
      295     9268    1        IF SHOW OR S_D.SIM_UPDATE
      296     9269    1        THEN CALL DDQ$WRITED( BUF$, NCARS );
      297     9270    1        ELSE SIZE = NCARS;
      298     9271
      299     9272    1   RETN: ;
      300     9273    1        RETURN;
      301     9274
      302     9275    1   END DDA$SHOW1;

PL6.E3A0      #001=DDA$SHOW1 File=DDA$SHOW1.:E05TSI                              TUE 07/29/97 13:37 Page:10
--  Include file information  --

   DD_SRTN_C.:E05TOU  is referenced.
   DD_ACODE_C.:E05TOU  is referenced.
   DD_ICODE_C.:E05TOU  is referenced.
   DD$DITEM.:E05TOU  cannot be made into a system file and is referenced.
   DD_ERR_C.:E05TOU  is referenced.
   DD_SUBS_C.:E05TOU  is referenced.
   DD_SD_M.:E05TOU  is referenced.
   XUH_MACRO_C.:E05TOU  is referenced.
   B$OBJECT_C.:E05TOU  is referenced.
   DD$BASED.:E05TOU  is referenced.
   B$JIT_C.:E05TOU  was found in the system file and is never referenced.
   CP_6_C.:E05TOU  was found in the system file and is never referenced.
      No diagnostics issued in procedure DDA$SHOW1.

   Procedure DDA$SHOW1 requires 962 words for executable code.
   Procedure DDA$SHOW1 requires 36 words of local(AUTO) storage.

    No errors detected in file DDA$SHOW1.:E05TSI    .

PL6.E3A0      #001=DDA$SHOW1 File=DDA$SHOW1.:E05TSI                              TUE 07/29/97 13:37 Page:11

 Object Unit name= DDA$SHOW1                                  File name= DDA$SHOW1.:E05TOU
 UTS= JUL 29 '97 13:37:09.68 TUE                              Compiler= PL-6/E31         Sev=      00
 SharedLib= :SHARED_SYSTEM                                    Alt SharedLib=


    ****  Control sections  ****

 Sect   Type Bound  Init  Size OctSiz  Section name(segment info)
    0  RoData even  UTS     42     52  DDA$SHOW1
    1   Proc  even  none   962   1702  DDA$SHOW1
    2  RoData even  none    66    102  DDA$SHOW1

    ****  Entry defs  ****

                              Check   Calling
                             calling  sequence
  Sect OctLoc Primary Altret sequence   type   Parms  Name
     1      0   yes            yes      Std        2  DDA$SHOW1

  ****  Entry refs  ****

         Check        Calling
        calling       sequence
Altret sequence SRef   type   Args  Name
 yes     yes           Std       4 DDR$MOVE
         yes           Std       2 DDQ$WRITED
         yes           Std       4 DDR$BINTXT
 yes     yes           Std       5 DDR$POSIT
         yes           Std       1 DFA$KILL_FPRG
         yes           Std       0 DDE$ERROR
         yes           Std       1 DFA$FPRG
                       nStd      0 X66_AUTO_2
                       Std       0 B_CONSPOOL_D
                       nStd      0 X66_ARET
                       nStd      0 X66_INDEX
PL6.E3A0      #001=DDA$SHOW1 File=DDA$SHOW1.:E05TSI                              TUE 07/29/97 13:37 Page:12

  ****  Data refs  ****

  Flags:  r = read only, s = secondary
Flgs Name                             Flgs Name                             Flgs Name
     D_XDELTA                              DEFDIR$                          r    S_D$
     B_VECTNIL

  ****  Segment refs  ****

  Flags:  r = read only, s = secondary
Flgs Name                             Flgs Name                             Flgs Name
     ISSID
PL6.E3A0      #001=DDA$SHOW1 File=DDA$SHOW1.:E05TSI                              TUE 07/29/97 13:37 Page:13


        1        1        /*M* DDA$SHOW1 SHOW1 DO ROUTINE */
        2        2        /*T***********************************************************/
        3        3        /*T*                                                         */
        4        4        /*T* Copyright (c) Bull HN Information Systems Inc., 1997    */
        5        5        /*T*                                                         */
        6        6        /*T***********************************************************/
        7        7        /*X* DMR,PLM=5,IND=5,CSU=3,EXM=0,ECU=3,MOC,DCI=5,CRT=5 */
        8        8        %SET LISTSUB='1'B;
        9        9        /*D*  NAME:  DDA$SHOW1
       10       10              CALL:  CALL DDA$SHOW1
       11       11              INPUT: S_D.SHOW1 IS THE COMMAND ID (CID) OF THE STORED
       12       12                     COMMAND TO BE 'SHOWN'
       13       13              OUTPUT:  THE STORED COMMAND AND ITS ATTACHMENTS ARE
       14       14                     SHOWN ON THE OUTPUT DEVICE.
       15       15              DESCRIPTION:
       16       16                     THE COMMAND IS SHOWN IN THE FORMAT:
       17       17                          ID (STUFF) COMMAND DEPENDENT (IFSPEC) ATTACHMENTS
       18       18                     */
       19       19
       20       20        DDA$SHOW1: PROC (PSHOW, SIZE);

     20  1 000000   000000 700200 xent  DDA$SHOW1    TSX0  ! X66_AUTO_2
         1 000001   000044 000002                    ZERO    36,2

       21       21        /**/
       22       22    1   DCL PSHOW BIT(1) ALIGNED;
       23       23    1   DCL SIZE UBIN;
       24       24
       25       25        /* Auto */
       26       26    1   DCL SHOW BIT(1) ALIGNED;
       27       27    1   DCL SILENT BIT(1) ALIGNED;
       28       28    1   DCL INACTIVE BIT(1) ALIGNED;
       29       29    1   DCL BYCOUNT SBIN;
       30       30    1   DCL CRCOUNT SBIN;
       31       31    1   DCL ATT UBIN;
       32       32    1   DCL NCARS UBIN;
PL6.E3A0      #001=DDA$SHOW1 File=DDA$SHOW1.:E05TSI                              TUE 07/29/97 13:37 Page:14
       33       33    1   DCL BYFLAG BIT(1) ALIGNED;
       34       34    1   DCL ATT$ PTR;
       35       35    1   DCL ATXT$ PTR;
       36       36    1   DCL BUF$ PTR;
       37       37    1   DCL BB$ PTR;
       38       38    1   DCL REM UBIN;
       39       39    1   DCL CMD UBIN;
       40       40    1   DCL NTXT$ PTR;
       41       41    1   DCL IC UBIN;
       42       42    1   DCL GOT_ID BIT(1) ALIGNED;
       43       43    1   DCL TFPRG$ PTR;
       44       44    1   DCL POS SBIN;
       45       45    1   DCL TPOS SBIN;
       46       46    1   DCL TEMP UBIN;
       47       47        /* Based */
       48       48    1   DCL CHAR$REM CHAR(REM) BASED(BB$);
       49       49    1   DCL CHAR$ATT CHAR(ATT) BASED;
       50       50    1   DCL CHAR$ID CHAR(2) BASED(BB$);
       51       51        %INCLUDE DD$BASED;
       52     1354        %AT_FIRST;
       53     1382        %TEXT$C;
       54     1387    1   DCL D_XDELTA BIT(1) ALIGNED SYMREF;
       55     1388    1   DCL DEFDIR$ PTR SYMREF;
       56     1389        %B$DEF;
       57     1401        %FPRG$CONTEXT;
       58     1464        %INCLUDE B$OBJECT_C;
       59     4894        %B$TREE_TABLE (NODE_NAME="B$TREE_NODE(0:0)");
       60     4952        %INCLUDE XUH_MACRO_C;
       61     5036        %INCLUDE DD_SD_M;
       62     6372        %S_D;
       63     7690        /* Entry */
       64     7691    1   DCL DDE$ERROR ENTRY;
       65     7692    1   DCL DDQ$WRITED ENTRY(2);
       66     7693    1   DCL DDR$BINTXT ENTRY(4);
       67     7694    1   DCL DDR$MOVE ENTRY(4) ALTRET;
       68     7695    1   DCL DDR$POSIT ENTRY(5) ALTRET;
       69     7696    1   DCL DFA$FPRG ENTRY(1);
PL6.E3A0      #001=DDA$SHOW1 File=DDA$SHOW1.:E05TSI                              TUE 07/29/97 13:37 Page:15
       70     7697    1   DCL DFA$KILL_FPRG ENTRY(1);
       71     7698        /* Misc */
       72     7699        %INCLUDE DD_SUBS_C;
       73     7970        %INCLUDE DD_ERR_C;
       74     8367        %INCLUDE DD$DITEM;
       12+    8470             %LIST;
       13+    8471    1        DCL SDD$ PTR;
       14+    8472    1        DCL ZITEM$ PTR;
       15+    8473    1        DCL SDD_L6$ PTR;
       16+    8474    1        DCL ZITEM_L6$ PTR;
       75     9048
       76     9049    1        IF ADDR(PSHOW) = ADDR(NIL)

   9049  1 000002   200003 236100                    LDQ     @PSHOW,,AUTO
         1 000003   000001 116000 xsym               CMPQ    B_VECTNIL+1
         1 000004   000010 601000 1                  TNZ     s:9051

       77     9050    1        THEN SHOW = '1'B;

   9050  1 000005   400000 236003                    LDQ     -131072,DU
         1 000006   200005 756100                    STQ     SHOW,,AUTO
         1 000007   000014 710000 1                  TRA     s:9052

       78     9051    1        ELSE SHOW = PSHOW;

   9051  1 000010   200003 470500                    LDP0    @PSHOW,,AUTO
         1 000011   000000 236100                    LDQ     0,,PR0
         1 000012   400000 376003                    ANQ     -131072,DU
         1 000013   200005 756100                    STQ     SHOW,,AUTO

       79     9052    1        IF S_D.SIM_UPDATE THEN SHOW = '1'B;

   9052  1 000014   000000 470400 xsym               LDP0    S_D$
         1 000015   006766 234100                    SZN     3574,,PR0
         1 000016   000021 605000 1                  TPL     s:9054

   9052  1 000017   400000 236003                    LDQ     -131072,DU
PL6.E3A0      #001=DDA$SHOW1 File=DDA$SHOW1.:E05TSI                              TUE 07/29/97 13:37 Page:16
         1 000020   200005 756100                    STQ     SHOW,,AUTO

       80     9053        /* Initialization */
       81     9054    1        BUF$ = ADDR( S_D.OUTPUT );

   9054  1 000021   000000 236000 xsym               LDQ     S_D$
         1 000022   005335 036003                    ADLQ    2781,DU
         1 000023   200017 756100                    STQ     BUF$,,AUTO

       82     9055    1        BB$ = BUF$;

   9055  1 000024   200020 756100                    STQ     BB$,,AUTO

       83     9056    1        REM = LENGTHC( S_D.OUTPUT );

   9056  1 000025   004000 235007                    LDA     2048,DL
         1 000026   200021 755100                    STA     REM,,AUTO

       84     9057    1        ATT$ = PINCRW(S_D.VARCOM$, S_D.FIXCOM.FAI(S_D.SHOW1) );

   9057  1 000027   000064 236100                    LDQ     52,,PR0
         1 000030   000003 402007                    MPY     3,DL
         1 000031   000001 736000                    QLS     1
         1 000032   001214 720106                    LXL0    652,QL,PR0
         1 000033   004622 471500                    LDP1    2450,,PR0
         1 000034   100000 633510                    EPPR3   0,X0,PR1
         1 000035   200015 453500                    STP3    ATT$,,AUTO

       85     9058    1        CMD = ATT$ -> AT_FIRST.CMD;

   9058  1 000036   300000 236100                    LDQ     0,,PR3
         1 000037   000033 772000                    QRL     27
         1 000040   200022 756100                    STQ     CMD,,AUTO

       86     9059    1        ATXT$ = PINCRC( ATT$, ATT$ -> AT_FIRST.TEXT_OFFSET );

   9059  1 000041   300006 236100                    LDQ     6,,PR3
PL6.E3A0      #001=DDA$SHOW1 File=DDA$SHOW1.:E05TSI                              TUE 07/29/97 13:37 Page:17
         1 000042   000022 772000                    QRL     18
         1 000043   000020 736000                    QLS     16
         1 000044   200015 036100                    ADLQ    ATT$,,AUTO
         1 000045   200016 756100                    STQ     ATXT$,,AUTO

       87     9060        /* CMD id */
       88     9061    1        CALL BINCHAR( CHAR$ID, S_D.SHOW1 );

   9061  1 000046   200020 474500                    LDP4    BB$,,AUTO
         1 000047   000100 301500                    BTD
         1 000050   000064 000004                    NDSC9   52,,PR0                  cn=0,s=lsgnf,sf=0,n=4
         1 000051   400000 030002                    NDSC9   0,,PR4                   cn=0,s=nosgn,sf=0,n=2

       89     9062    1        BB$ = PINCRC( BB$, LENGTHC( CHAR$ID ) );

   9062  1 000052   200020 236100                    LDQ     BB$,,AUTO
         1 000053   400000 036007                    ADLQ    -131072,DL
         1 000054   200020 756100                    STQ     BB$,,AUTO

       90     9063    1        REM = REM - LENGTHC( CHAR$ID );

   9063  1 000055   200021 235100                    LDA     REM,,AUTO
         1 000056   000002 135007                    SBLA    2,DL
         1 000057   200021 755100                    STA     REM,,AUTO

       91     9064    1        CALL DDR$MOVE( ' ', LENGTHC( ' ' ), BB$, REM );

   9064  1 000060   200021 631500                    EPPR1   REM,,AUTO
         1 000061   200041 451500                    STP1    TEMP+8,,AUTO
         1 000062   200020 634500                    EPPR4   BB$,,AUTO
         1 000063   200040 454500                    STP4    TEMP+7,,AUTO
         1 000064   000000 237000 2                  LDAQ    0
         1 000065   200036 757100                    STAQ    TEMP+5,,AUTO
         1 000066   200036 630500                    EPPR0   TEMP+5,,AUTO
         1 000067   000022 631400 xsym               EPPR1   B_VECTNIL+18
         1 000070   000000 701000 xent               TSX1    DDR$MOVE
         1 000071   000000 011000                    NOP     0
PL6.E3A0      #001=DDA$SHOW1 File=DDA$SHOW1.:E05TSI                              TUE 07/29/97 13:37 Page:18

       92     9065    1        IF S_D.FIXCOM.SILENT(S_D.SHOW1)

   9065  1 000072   000000 470400 xsym               LDP0    S_D$
         1 000073   000064 236100                    LDQ     52,,PR0
         1 000074   000003 402007                    MPY     3,DL
         1 000075   000001 736000                    QLS     1
         1 000076   001212 236106                    LDQ     650,QL,PR0
         1 000077   000200 316003                    CANQ    128,DU
         1 000100   000104 600000 1                  TZE     s:9067

       93     9066    1        THEN SILENT = '1'B;

   9066  1 000101   400000 236003                    LDQ     -131072,DU
         1 000102   200006 756100                    STQ     SILENT,,AUTO
         1 000103   000105 710000 1                  TRA     s:9068

       94     9067    1        ELSE SILENT = '0'B;

   9067  1 000104   200006 450100                    STZ     SILENT,,AUTO

       95     9068    1        IF S_D.FIXCOM.INACTIVE(S_D.SHOW1)

   9068  1 000105   000064 236100                    LDQ     52,,PR0
         1 000106   000003 402007                    MPY     3,DL
         1 000107   000001 736000                    QLS     1
         1 000110   001212 236106                    LDQ     650,QL,PR0
         1 000111   000400 316003                    CANQ    256,DU
         1 000112   000116 600000 1                  TZE     s:9070

       96     9069    1        THEN INACTIVE = '1'B;

   9069  1 000113   400000 236003                    LDQ     -131072,DU
         1 000114   200007 756100                    STQ     INACTIVE,,AUTO
         1 000115   000117 710000 1                  TRA     s:9071

       97     9070    1        ELSE INACTIVE = '0'B;
PL6.E3A0      #001=DDA$SHOW1 File=DDA$SHOW1.:E05TSI                              TUE 07/29/97 13:37 Page:19

   9070  1 000116   200007 450100                    STZ     INACTIVE,,AUTO

       98     9071    1        BYCOUNT = ATT$ -> AT_FIRST.BYPASS_COUNT;

   9071  1 000117   200015 471500                    LDP1    ATT$,,AUTO
         1 000120   100004 235100                    LDA     4,,PR1
         1 000121   200010 755100                    STA     BYCOUNT,,AUTO

       99     9072    1        IF NOT SHOW

   9072  1 000122   200005 234100                    SZN     SHOW,,AUTO
         1 000123   000740 605000 1                  TPL     DOADR

      100     9073    1        THEN GOTO DOADR;
      101     9074    1        CRCOUNT = ATT$ -> AT_FIRST.CURRENT_COUNT;

   9074  1 000124   100005 235100                    LDA     5,,PR1
         1 000125   200011 755100                    STA     CRCOUNT,,AUTO

      102     9075    1        IF BYCOUNT>0 AND CRCOUNT>=0 AND CRCOUNT~=BYCOUNT

   9075  1 000126   200010 236100                    LDQ     BYCOUNT,,AUTO
         1 000127   000137 604400 1                  TMOZ    s:9077
         1 000130   000000 115003                    CMPA    0,DU
         1 000131   000137 604000 1                  TMI     s:9077
         1 000132   200011 116100                    CMPQ    CRCOUNT,,AUTO
         1 000133   000137 600000 1                  TZE     s:9077

      103     9076    1        THEN BYFLAG = '1'B;

   9076  1 000134   400000 236003                    LDQ     -131072,DU
         1 000135   200014 756100                    STQ     BYFLAG,,AUTO
         1 000136   000140 710000 1                  TRA     s:9078

      104     9077    1        ELSE BYFLAG = '0'B;

PL6.E3A0      #001=DDA$SHOW1 File=DDA$SHOW1.:E05TSI                              TUE 07/29/97 13:37 Page:20
   9077  1 000137   200014 450100                    STZ     BYFLAG,,AUTO

      105     9078    1        IF S_D.FIXCOM.SILENT(S_D.SHOW1) OR

   9078  1 000140   000064 236100                    LDQ     52,,PR0
         1 000141   000003 402007                    MPY     3,DL
         1 000142   000001 736000                    QLS     1
         1 000143   001212 236106                    LDQ     650,QL,PR0
         1 000144   000200 316003                    CANQ    128,DU
         1 000145   000202 601000 1                  TNZ     s:9086
         1 000146   000064 236100                    LDQ     52,,PR0
         1 000147   000003 402007                    MPY     3,DL
         1 000150   000001 736000                    QLS     1
         1 000151   001212 236106                    LDQ     650,QL,PR0
         1 000152   000400 316003                    CANQ    256,DU
         1 000153   000202 601000 1                  TNZ     s:9086
         1 000154   000064 236100                    LDQ     52,,PR0
         1 000155   000003 402007                    MPY     3,DL
         1 000156   000001 736000                    QLS     1
         1 000157   001212 236106                    LDQ     650,QL,PR0
         1 000160   000100 316003                    CANQ    64,DU
         1 000161   000202 601000 1                  TNZ     s:9086
         1 000162   000064 236100                    LDQ     52,,PR0
         1 000163   000003 402007                    MPY     3,DL
         1 000164   000001 736000                    QLS     1
         1 000165   001212 236106                    LDQ     650,QL,PR0
         1 000166   000001 316003                    CANQ    1,DU
         1 000167   000202 601000 1                  TNZ     s:9086
         1 000170   000064 236100                    LDQ     52,,PR0
         1 000171   000003 402007                    MPY     3,DL
         1 000172   000001 736000                    QLS     1
         1 000173   001212 236106                    LDQ     650,QL,PR0
         1 000174   000002 316003                    CANQ    2,DU
         1 000175   000202 601000 1                  TNZ     s:9086
         1 000176   100003 220100                    LDX0    3,,PR1
         1 000177   000202 601000 1                  TNZ     s:9086
         1 000200   200014 234100                    SZN     BYFLAG,,AUTO
PL6.E3A0      #001=DDA$SHOW1 File=DDA$SHOW1.:E05TSI                              TUE 07/29/97 13:37 Page:21
         1 000201   000740 605000 1                  TPL     DOADR

      106     9079    1          S_D.FIXCOM.INACTIVE(S_D.SHOW1) OR
      107     9080    1          S_D.FIXCOM.NOT_IN(S_D.SHOW1) OR
      108     9081    1          S_D.FIXCOM.USER(S_D.SHOW1) OR
      109     9082    1          S_D.FIXCOM.FPRG(S_D.SHOW1) OR
      110     9083    1          ATT$ -> AT_FIRST.NODE~=0 OR
      111     9084    1          BYFLAG
      112     9085    2        THEN DO;                           /* ( stuff ) */

      113     9086    2             CALL DDR$MOVE( '(', LENGTHC( '(' ), BB$, REM );

   9086  1 000202   200021 633500                    EPPR3   REM,,AUTO
         1 000203   200041 453500                    STP3    TEMP+8,,AUTO
         1 000204   200020 634500                    EPPR4   BB$,,AUTO
         1 000205   200040 454500                    STP4    TEMP+7,,AUTO
         1 000206   000004 237000 2                  LDAQ    4
         1 000207   200036 757100                    STAQ    TEMP+5,,AUTO
         1 000210   200036 630500                    EPPR0   TEMP+5,,AUTO
         1 000211   000022 631400 xsym               EPPR1   B_VECTNIL+18
         1 000212   000000 701000 xent               TSX1    DDR$MOVE
         1 000213   000000 011000                    NOP     0

      114     9087    2             IF S_D.FIXCOM.FPRG(S_D.SHOW1)

   9087  1 000214   000000 470400 xsym               LDP0    S_D$
         1 000215   000064 236100                    LDQ     52,,PR0
         1 000216   000003 402007                    MPY     3,DL
         1 000217   000001 736000                    QLS     1
         1 000220   001212 236106                    LDQ     650,QL,PR0
         1 000221   000002 316003                    CANQ    2,DU
         1 000222   000261 600000 1                  TZE     s:9093

      115     9088    3             THEN DO;

      116     9089    3                  CALL DDR$MOVE(S_D.FIXCOM.FPRG_RES(S_D.SHOW1),

PL6.E3A0      #001=DDA$SHOW1 File=DDA$SHOW1.:E05TSI                              TUE 07/29/97 13:37 Page:22
   9089  1 000223   000064 236100                    LDQ     52,,PR0
         1 000224   000003 402007                    MPY     3,DL
         1 000225   200021 631500                    EPPR1   REM,,AUTO
         1 000226   200041 451500                    STP1    TEMP+8,,AUTO
         1 000227   200020 633500                    EPPR3   BB$,,AUTO
         1 000230   200040 453500                    STP3    TEMP+7,,AUTO
         1 000231   200042 756100                    STQ     TEMP+9,,AUTO
         1 000232   000023 736000                    QLS     19
         1 000233   001217 036003                    ADLQ    655,DU
         1 000234   000000 036000 xsym               ADLQ    S_D$
         1 000235   200037 756100                    STQ     TEMP+6,,AUTO
         1 000236   200042 236100                    LDQ     TEMP+9,,AUTO
         1 000237   000023 736000                    QLS     19
         1 000240   001215 036003                    ADLQ    653,DU
         1 000241   000000 036000 xsym               ADLQ    S_D$
         1 000242   200036 756100                    STQ     TEMP+5,,AUTO
         1 000243   200036 630500                    EPPR0   TEMP+5,,AUTO
         1 000244   000022 631400 xsym               EPPR1   B_VECTNIL+18
         1 000245   000000 701000 xent               TSX1    DDR$MOVE
         1 000246   000000 011000                    NOP     0

      117     9090    3                    S_D.FIXCOM.FPRG_RES_SIZE(S_D.SHOW1), BB$, REM);
      118     9091    3                  CALL DDR$MOVE(',', LENGTHC(','), BB$, REM);

   9091  1 000247   200021 630500                    EPPR0   REM,,AUTO
         1 000250   200041 450500                    STP0    TEMP+8,,AUTO
         1 000251   200020 631500                    EPPR1   BB$,,AUTO
         1 000252   200040 451500                    STP1    TEMP+7,,AUTO
         1 000253   000006 237000 2                  LDAQ    6
         1 000254   200036 757100                    STAQ    TEMP+5,,AUTO
         1 000255   200036 630500                    EPPR0   TEMP+5,,AUTO
         1 000256   000022 631400 xsym               EPPR1   B_VECTNIL+18
         1 000257   000000 701000 xent               TSX1    DDR$MOVE
         1 000260   000000 011000                    NOP     0

      119     9092    3                END;

PL6.E3A0      #001=DDA$SHOW1 File=DDA$SHOW1.:E05TSI                              TUE 07/29/97 13:37 Page:23
      120     9093    2             IF S_D.FIXCOM.USER(S_D.SHOW1) AND S_D.DEBUG_CMD

   9093  1 000261   000000 470400 xsym               LDP0    S_D$
         1 000262   000064 236100                    LDQ     52,,PR0
         1 000263   000003 402007                    MPY     3,DL
         1 000264   000001 736000                    QLS     1
         1 000265   001212 236106                    LDQ     650,QL,PR0
         1 000266   000001 316003                    CANQ    1,DU
         1 000267   000365 600000 1                  TZE     s:9106
         1 000270   004665 234100                    SZN     2485,,PR0
         1 000271   000365 605000 1                  TPL     s:9106

      121     9094    3             THEN DO;

      122     9095    3                  IF ATT$ -> AT_FIRST.USERNO = 0

   9095  1 000272   200015 471500                    LDP1    ATT$,,AUTO
         1 000273   100001 236100                    LDQ     1,,PR1
         1 000274   000010 316000 2                  CANQ    8
         1 000275   000311 601000 1                  TNZ     s:9098

      123     9096    3                  THEN CALL DDR$MOVE('Monitor,', LENGTHC('Monitor,'), BB$, REM);

   9096  1 000276   200021 633500                    EPPR3   REM,,AUTO
         1 000277   200041 453500                    STP3    TEMP+8,,AUTO
         1 000300   200020 634500                    EPPR4   BB$,,AUTO
         1 000301   200040 454500                    STP4    TEMP+7,,AUTO
         1 000302   000012 237000 2                  LDAQ    10
         1 000303   200036 757100                    STAQ    TEMP+5,,AUTO
         1 000304   200036 630500                    EPPR0   TEMP+5,,AUTO
         1 000305   000022 631400 xsym               EPPR1   B_VECTNIL+18
         1 000306   000000 701000 xent               TSX1    DDR$MOVE
         1 000307   000000 011000                    NOP     0
         1 000310   000462 710000 1                  TRA     s:9117

      124     9097    4                  ELSE DO;

PL6.E3A0      #001=DDA$SHOW1 File=DDA$SHOW1.:E05TSI                              TUE 07/29/97 13:37 Page:24
      125     9098    4                       CALL DDR$MOVE('User# ', LENGTHC('User# '), BB$, REM);

   9098  1 000311   200021 633500                    EPPR3   REM,,AUTO
         1 000312   200041 453500                    STP3    TEMP+8,,AUTO
         1 000313   200020 634500                    EPPR4   BB$,,AUTO
         1 000314   200040 454500                    STP4    TEMP+7,,AUTO
         1 000315   000014 237000 2                  LDAQ    12
         1 000316   200036 757100                    STAQ    TEMP+5,,AUTO
         1 000317   200036 630500                    EPPR0   TEMP+5,,AUTO
         1 000320   000022 631400 xsym               EPPR1   B_VECTNIL+18
         1 000321   000000 701000 xent               TSX1    DDR$MOVE
         1 000322   000000 011000                    NOP     0

      126     9099    4                       TEMP = ATT$ -> AT_FIRST.USERNO;

   9099  1 000323   200015 470500                    LDP0    ATT$,,AUTO
         1 000324   000001 236100                    LDQ     1,,PR0
         1 000325   000011 772000                    QRL     9
         1 000326   200031 756100                    STQ     TEMP,,AUTO

      127     9100    4                       CALL DDR$BINTXT(BB$, TEMP, %X_FMT, NCARS);

   9100  1 000327   200013 631500                    EPPR1   NCARS,,AUTO
         1 000330   200041 451500                    STP1    TEMP+8,,AUTO
         1 000331   000016 236000 2                  LDQ     14
         1 000332   200040 756100                    STQ     TEMP+7,,AUTO
         1 000333   200031 633500                    EPPR3   TEMP,,AUTO
         1 000334   200037 453500                    STP3    TEMP+6,,AUTO
         1 000335   200020 634500                    EPPR4   BB$,,AUTO
         1 000336   200036 454500                    STP4    TEMP+5,,AUTO
         1 000337   200036 630500                    EPPR0   TEMP+5,,AUTO
         1 000340   000022 631400 xsym               EPPR1   B_VECTNIL+18
         1 000341   000000 701000 xent               TSX1    DDR$BINTXT
         1 000342   000000 011000                    NOP     0

      128     9101    4                       BB$ = PINCRC(BB$, NCARS);

PL6.E3A0      #001=DDA$SHOW1 File=DDA$SHOW1.:E05TSI                              TUE 07/29/97 13:37 Page:25
   9101  1 000343   200013 236100                    LDQ     NCARS,,AUTO
         1 000344   000020 736000                    QLS     16
         1 000345   200020 036100                    ADLQ    BB$,,AUTO
         1 000346   200020 756100                    STQ     BB$,,AUTO

      129     9102    4                       REM = REM - NCARS;

   9102  1 000347   200021 236100                    LDQ     REM,,AUTO
         1 000350   200013 136100                    SBLQ    NCARS,,AUTO
         1 000351   200021 756100                    STQ     REM,,AUTO

      130     9103    4                       CALL DDR$MOVE(',', LENGTHC(','), BB$, REM);

   9103  1 000352   200021 630500                    EPPR0   REM,,AUTO
         1 000353   200041 450500                    STP0    TEMP+8,,AUTO
         1 000354   200020 631500                    EPPR1   BB$,,AUTO
         1 000355   200040 451500                    STP1    TEMP+7,,AUTO
         1 000356   000006 237000 2                  LDAQ    6
         1 000357   200036 757100                    STAQ    TEMP+5,,AUTO
         1 000360   200036 630500                    EPPR0   TEMP+5,,AUTO
         1 000361   000022 631400 xsym               EPPR1   B_VECTNIL+18
         1 000362   000000 701000 xent               TSX1    DDR$MOVE
         1 000363   000000 011000                    NOP     0

      131     9104    4                     END;

      132     9105    3                END;

   9105  1 000364   000462 710000 1                  TRA     s:9117

      133     9106    2             ELSE IF S_D.FIXCOM.USER(S_D.SHOW1)

   9106  1 000365   000064 236100                    LDQ     52,,PR0
         1 000366   000003 402007                    MPY     3,DL
         1 000367   000001 736000                    QLS     1
         1 000370   001212 236106                    LDQ     650,QL,PR0
         1 000371   000001 316003                    CANQ    1,DU
PL6.E3A0      #001=DDA$SHOW1 File=DDA$SHOW1.:E05TSI                              TUE 07/29/97 13:37 Page:26
         1 000372   000462 600000 1                  TZE     s:9117

      134     9107    3                  THEN DO CASE ( ATT$ -> AT_FIRST.U.LS );

   9107  1 000373   200015 471500                    LDP1    ATT$,,AUTO
         1 000374   100001 236100                    LDQ     1,,PR1
         1 000375   000017 772000                    QRL     15
         1 000376   000007 376007                    ANQ     7,DL
         1 000377   000005 116007                    CMPQ    5,DL
         1 000400   000402 602006 1                  TNC     s:9107+7,QL
         1 000401   000462 710000 1                  TRA     s:9117
         1 000402   000462 710000 1                  TRA     s:9117
         1 000403   000407 710000 1                  TRA     s:9109
         1 000404   000422 710000 1                  TRA     s:9111
         1 000405   000435 710000 1                  TRA     s:9113
         1 000406   000450 710000 1                  TRA     s:9115

      135     9108    3                    CASE ( 1 );      /* LS_USER */

      136     9109    3                       CALL DDR$MOVE( 'USER,', LENGTHC( 'USER,' ), BB$, REM );

   9109  1 000407   200021 633500                    EPPR3   REM,,AUTO
         1 000410   200041 453500                    STP3    TEMP+8,,AUTO
         1 000411   200020 634500                    EPPR4   BB$,,AUTO
         1 000412   200040 454500                    STP4    TEMP+7,,AUTO
         1 000413   000020 237000 2                  LDAQ    16
         1 000414   200036 757100                    STAQ    TEMP+5,,AUTO
         1 000415   200036 630500                    EPPR0   TEMP+5,,AUTO
         1 000416   000022 631400 xsym               EPPR1   B_VECTNIL+18
         1 000417   000000 701000 xent               TSX1    DDR$MOVE
         1 000420   000000 011000                    NOP     0
         1 000421   000462 710000 1                  TRA     s:9117

      137     9110    3                    CASE ( 2 );       /* LS_IDB */

      138     9111    3                       CALL DDR$MOVE( 'IDB,', LENGTHC( 'IDB,' ), BB$, REM );

PL6.E3A0      #001=DDA$SHOW1 File=DDA$SHOW1.:E05TSI                              TUE 07/29/97 13:37 Page:27
   9111  1 000422   200021 633500                    EPPR3   REM,,AUTO
         1 000423   200041 453500                    STP3    TEMP+8,,AUTO
         1 000424   200020 634500                    EPPR4   BB$,,AUTO
         1 000425   200040 454500                    STP4    TEMP+7,,AUTO
         1 000426   000022 237000 2                  LDAQ    18
         1 000427   200036 757100                    STAQ    TEMP+5,,AUTO
         1 000430   200036 630500                    EPPR0   TEMP+5,,AUTO
         1 000431   000022 631400 xsym               EPPR1   B_VECTNIL+18
         1 000432   000000 701000 xent               TSX1    DDR$MOVE
         1 000433   000000 011000                    NOP     0
         1 000434   000462 710000 1                  TRA     s:9117

      139     9112    3                    CASE ( 3 );       /* LS_ASL */

      140     9113    3                       CALL DDR$MOVE( 'ASL,', LENGTHC( 'ASL,' ), BB$, REM );

   9113  1 000435   200021 633500                    EPPR3   REM,,AUTO
         1 000436   200041 453500                    STP3    TEMP+8,,AUTO
         1 000437   200020 634500                    EPPR4   BB$,,AUTO
         1 000440   200040 454500                    STP4    TEMP+7,,AUTO
         1 000441   000024 237000 2                  LDAQ    20
         1 000442   200036 757100                    STAQ    TEMP+5,,AUTO
         1 000443   200036 630500                    EPPR0   TEMP+5,,AUTO
         1 000444   000022 631400 xsym               EPPR1   B_VECTNIL+18
         1 000445   000000 701000 xent               TSX1    DDR$MOVE
         1 000446   000000 011000                    NOP     0
         1 000447   000462 710000 1                  TRA     s:9117

      141     9114    3                    CASE ( 4 );       /* LS_ICP */

      142     9115    3                       CALL DDR$MOVE( 'ICP,', LENGTHC( 'ICP,' ), BB$, REM );

   9115  1 000450   200021 633500                    EPPR3   REM,,AUTO
         1 000451   200041 453500                    STP3    TEMP+8,,AUTO
         1 000452   200020 634500                    EPPR4   BB$,,AUTO
         1 000453   200040 454500                    STP4    TEMP+7,,AUTO
         1 000454   000026 237000 2                  LDAQ    22
PL6.E3A0      #001=DDA$SHOW1 File=DDA$SHOW1.:E05TSI                              TUE 07/29/97 13:37 Page:28
         1 000455   200036 757100                    STAQ    TEMP+5,,AUTO
         1 000456   200036 630500                    EPPR0   TEMP+5,,AUTO
         1 000457   000022 631400 xsym               EPPR1   B_VECTNIL+18
         1 000460   000000 701000 xent               TSX1    DDR$MOVE
         1 000461   000000 011000                    NOP     0

      143     9116    3                    END;

      144     9117    2             IF S_D.FIXCOM.SILENT(S_D.SHOW1)

   9117  1 000462   000000 470400 xsym               LDP0    S_D$
         1 000463   000064 236100                    LDQ     52,,PR0
         1 000464   000003 402007                    MPY     3,DL
         1 000465   000001 736000                    QLS     1
         1 000466   001212 236106                    LDQ     650,QL,PR0
         1 000467   000200 316003                    CANQ    128,DU
         1 000470   000503 600000 1                  TZE     s:9119

      145     9118    2             THEN CALL DDR$MOVE( 'silent,', LENGTHC( 'silent,' ), BB$, REM );

   9118  1 000471   200021 631500                    EPPR1   REM,,AUTO
         1 000472   200041 451500                    STP1    TEMP+8,,AUTO
         1 000473   200020 633500                    EPPR3   BB$,,AUTO
         1 000474   200040 453500                    STP3    TEMP+7,,AUTO
         1 000475   000030 237000 2                  LDAQ    24
         1 000476   200036 757100                    STAQ    TEMP+5,,AUTO
         1 000477   200036 630500                    EPPR0   TEMP+5,,AUTO
         1 000500   000022 631400 xsym               EPPR1   B_VECTNIL+18
         1 000501   000000 701000 xent               TSX1    DDR$MOVE
         1 000502   000000 011000                    NOP     0

      146     9119    2             IF S_D.FIXCOM.INACTIVE(S_D.SHOW1)

   9119  1 000503   000000 470400 xsym               LDP0    S_D$
         1 000504   000064 236100                    LDQ     52,,PR0
         1 000505   000003 402007                    MPY     3,DL
         1 000506   000001 736000                    QLS     1
PL6.E3A0      #001=DDA$SHOW1 File=DDA$SHOW1.:E05TSI                              TUE 07/29/97 13:37 Page:29
         1 000507   001212 236106                    LDQ     650,QL,PR0
         1 000510   000400 316003                    CANQ    256,DU
         1 000511   000524 600000 1                  TZE     s:9121

      147     9120    2             THEN CALL DDR$MOVE( 'inactive,', LENGTHC( 'inactive,' ), BB$, REM );

   9120  1 000512   200021 631500                    EPPR1   REM,,AUTO
         1 000513   200041 451500                    STP1    TEMP+8,,AUTO
         1 000514   200020 633500                    EPPR3   BB$,,AUTO
         1 000515   200040 453500                    STP3    TEMP+7,,AUTO
         1 000516   000032 237000 2                  LDAQ    26
         1 000517   200036 757100                    STAQ    TEMP+5,,AUTO
         1 000520   200036 630500                    EPPR0   TEMP+5,,AUTO
         1 000521   000022 631400 xsym               EPPR1   B_VECTNIL+18
         1 000522   000000 701000 xent               TSX1    DDR$MOVE
         1 000523   000000 011000                    NOP     0

      148     9121    2             IF S_D.FIXCOM.NOT_IN(S_D.SHOW1)

   9121  1 000524   000000 470400 xsym               LDP0    S_D$
         1 000525   000064 236100                    LDQ     52,,PR0
         1 000526   000003 402007                    MPY     3,DL
         1 000527   000001 736000                    QLS     1
         1 000530   001212 236106                    LDQ     650,QL,PR0
         1 000531   000100 316003                    CANQ    64,DU
         1 000532   000545 600000 1                  TZE     s:9123

      149     9122    2             THEN CALL DDR$MOVE( 'not_in,', LENGTHC( 'not_in,' ), BB$, REM );

   9122  1 000533   200021 631500                    EPPR1   REM,,AUTO
         1 000534   200041 451500                    STP1    TEMP+8,,AUTO
         1 000535   200020 633500                    EPPR3   BB$,,AUTO
         1 000536   200040 453500                    STP3    TEMP+7,,AUTO
         1 000537   000034 237000 2                  LDAQ    28
         1 000540   200036 757100                    STAQ    TEMP+5,,AUTO
         1 000541   200036 630500                    EPPR0   TEMP+5,,AUTO
         1 000542   000022 631400 xsym               EPPR1   B_VECTNIL+18
PL6.E3A0      #001=DDA$SHOW1 File=DDA$SHOW1.:E05TSI                              TUE 07/29/97 13:37 Page:30
         1 000543   000000 701000 xent               TSX1    DDR$MOVE
         1 000544   000000 011000                    NOP     0

      150     9123    2             IF ATT$ -> AT_FIRST.NODE ~= 0 AND

   9123  1 000545   200015 470500                    LDP0    ATT$,,AUTO
         1 000546   000003 220100                    LDX0    3,,PR0
         1 000547   000647 600000 1                  TZE     s:9134
         1 000550   000000 471400 xsym               LDP1    S_D$
         1 000551   100064 236100                    LDQ     52,,PR1
         1 000552   000003 402007                    MPY     3,DL
         1 000553   000001 736000                    QLS     1
         1 000554   101212 236106                    LDQ     650,QL,PR1
         1 000555   000001 316003                    CANQ    1,DU
         1 000556   000647 601000 1                  TNZ     s:9134

      151     9124    2               NOT (S_D.FIXCOM.USER(S_D.SHOW1))
      152     9125    3             THEN DO;

      153     9126    3                  CALL DDR$MOVE( 'node=', LENGTHC( 'node=' ), BB$, REM );

   9126  1 000557   200021 633500                    EPPR3   REM,,AUTO
         1 000560   200041 453500                    STP3    TEMP+8,,AUTO
         1 000561   200020 634500                    EPPR4   BB$,,AUTO
         1 000562   200040 454500                    STP4    TEMP+7,,AUTO
         1 000563   000036 237000 2                  LDAQ    30
         1 000564   200036 757100                    STAQ    TEMP+5,,AUTO
         1 000565   200036 630500                    EPPR0   TEMP+5,,AUTO
         1 000566   000022 631400 xsym               EPPR1   B_VECTNIL+18
         1 000567   000000 701000 xent               TSX1    DDR$MOVE
         1 000570   000000 011000                    NOP     0

      154     9127    3                  IF D_XDELTA

   9127  1 000571   000000 234000 xsym               SZN     D_XDELTA
         1 000572   000604 605000 1                  TPL     s:9129

PL6.E3A0      #001=DDA$SHOW1 File=DDA$SHOW1.:E05TSI                              TUE 07/29/97 13:37 Page:31
      155     9128    3                  THEN NTXT$ = ADDR(B$DEF.NINFO.NODE_NAME(ATT$ -> AT_FIRST.NODE) );

   9128  1 000573   200015 470500                    LDP0    ATT$,,AUTO
         1 000574   000003 236100                    LDQ     3,,PR0
         1 000575   000022 772000                    QRL     18
         1 000576   000013 402007                    MPY     11,DL
         1 000577   000022 736000                    QLS     18
         1 000600   000002 036003                    ADLQ    2,DU
         1 000601   000000 036000 xsym               ADLQ    DEFDIR$
         1 000602   200023 756100                    STQ     NTXT$,,AUTO
         1 000603   000614 710000 1                  TRA     s:9130

      156     9129    3                  ELSE NTXT$ = S_D.B$TREE$ -> B$TREE_NODE.NAME$( ATT$ -> AT_FIRST.NODE
              9129                           );

   9129  1 000604   000000 470400 xsym               LDP0    S_D$
         1 000605   004767 471500                    LDP1    2551,,PR0
         1 000606   200015 473500                    LDP3    ATT$,,AUTO
         1 000607   300003 236100                    LDQ     3,,PR3
         1 000610   000022 772000                    QRL     18
         1 000611   000006 402007                    MPY     6,DL
         1 000612   100000 236106                    LDQ     0,QL,PR1
         1 000613   200023 756100                    STQ     NTXT$,,AUTO

      157     9130    3                  NCARS = NTXT$ -> TEXT$C.SIZE;

   9130  1 000614   200023 470500                    LDP0    NTXT$,,AUTO
         1 000615   000000 236100                    LDQ     0,,PR0
         1 000616   000033 772000                    QRL     27
         1 000617   200013 756100                    STQ     NCARS,,AUTO

      158     9131    3                  CALL DDR$MOVE( NTXT$ -> TEXT$C.TXT, NCARS, BB$, REM );

   9131  1 000620   200021 631500                    EPPR1   REM,,AUTO
         1 000621   200041 451500                    STP1    TEMP+8,,AUTO
         1 000622   200020 633500                    EPPR3   BB$,,AUTO
         1 000623   200040 453500                    STP3    TEMP+7,,AUTO
PL6.E3A0      #001=DDA$SHOW1 File=DDA$SHOW1.:E05TSI                              TUE 07/29/97 13:37 Page:32
         1 000624   200013 634500                    EPPR4   NCARS,,AUTO
         1 000625   200037 454500                    STP4    TEMP+6,,AUTO
         1 000626   200023 236100                    LDQ     NTXT$,,AUTO
         1 000627   200000 036007                    ADLQ    65536,DL
         1 000630   200036 756100                    STQ     TEMP+5,,AUTO
         1 000631   200036 630500                    EPPR0   TEMP+5,,AUTO
         1 000632   000022 631400 xsym               EPPR1   B_VECTNIL+18
         1 000633   000000 701000 xent               TSX1    DDR$MOVE
         1 000634   000000 011000                    NOP     0

      159     9132    3                  CALL DDR$MOVE( ',', LENGTHC( ',' ), BB$, REM );

   9132  1 000635   200021 630500                    EPPR0   REM,,AUTO
         1 000636   200041 450500                    STP0    TEMP+8,,AUTO
         1 000637   200020 631500                    EPPR1   BB$,,AUTO
         1 000640   200040 451500                    STP1    TEMP+7,,AUTO
         1 000641   000006 237000 2                  LDAQ    6
         1 000642   200036 757100                    STAQ    TEMP+5,,AUTO
         1 000643   200036 630500                    EPPR0   TEMP+5,,AUTO
         1 000644   000022 631400 xsym               EPPR1   B_VECTNIL+18
         1 000645   000000 701000 xent               TSX1    DDR$MOVE
         1 000646   000000 011000                    NOP     0

      160     9133    3                END;

      161     9134    2             IF BYFLAG

   9134  1 000647   200014 234100                    SZN     BYFLAG,,AUTO
         1 000650   000720 605000 1                  TPL     s:9142

      162     9135    3             THEN DO;

      163     9136    3                  CALL DDR$MOVE( '#', LENGTHC( '#' ), BB$, REM );

   9136  1 000651   200021 630500                    EPPR0   REM,,AUTO
         1 000652   200041 450500                    STP0    TEMP+8,,AUTO
         1 000653   200020 631500                    EPPR1   BB$,,AUTO
PL6.E3A0      #001=DDA$SHOW1 File=DDA$SHOW1.:E05TSI                              TUE 07/29/97 13:37 Page:33
         1 000654   200040 451500                    STP1    TEMP+7,,AUTO
         1 000655   000042 237000 2                  LDAQ    34
         1 000656   200036 757100                    STAQ    TEMP+5,,AUTO
         1 000657   200036 630500                    EPPR0   TEMP+5,,AUTO
         1 000660   000022 631400 xsym               EPPR1   B_VECTNIL+18
         1 000661   000000 701000 xent               TSX1    DDR$MOVE
         1 000662   000000 011000                    NOP     0

      164     9137    3                  CALL DDR$BINTXT( BB$, CRCOUNT, %UINT_FMT, NCARS );

   9137  1 000663   200013 630500                    EPPR0   NCARS,,AUTO
         1 000664   200041 450500                    STP0    TEMP+8,,AUTO
         1 000665   000041 236000 2                  LDQ     33
         1 000666   200040 756100                    STQ     TEMP+7,,AUTO
         1 000667   200011 631500                    EPPR1   CRCOUNT,,AUTO
         1 000670   200037 451500                    STP1    TEMP+6,,AUTO
         1 000671   200020 633500                    EPPR3   BB$,,AUTO
         1 000672   200036 453500                    STP3    TEMP+5,,AUTO
         1 000673   200036 630500                    EPPR0   TEMP+5,,AUTO
         1 000674   000022 631400 xsym               EPPR1   B_VECTNIL+18
         1 000675   000000 701000 xent               TSX1    DDR$BINTXT
         1 000676   000000 011000                    NOP     0

      165     9138    3                  BB$ = PINCRC( BB$, NCARS );

   9138  1 000677   200013 236100                    LDQ     NCARS,,AUTO
         1 000700   000020 736000                    QLS     16
         1 000701   200020 036100                    ADLQ    BB$,,AUTO
         1 000702   200020 756100                    STQ     BB$,,AUTO

      166     9139    3                  REM = REM - NCARS;

   9139  1 000703   200021 236100                    LDQ     REM,,AUTO
         1 000704   200013 136100                    SBLQ    NCARS,,AUTO
         1 000705   200021 756100                    STQ     REM,,AUTO

      167     9140    3                  CALL DDR$MOVE( '-left,', LENGTHC( '-left,' ), BB$, REM );
PL6.E3A0      #001=DDA$SHOW1 File=DDA$SHOW1.:E05TSI                              TUE 07/29/97 13:37 Page:34

   9140  1 000706   200021 630500                    EPPR0   REM,,AUTO
         1 000707   200041 450500                    STP0    TEMP+8,,AUTO
         1 000710   200020 631500                    EPPR1   BB$,,AUTO
         1 000711   200040 451500                    STP1    TEMP+7,,AUTO
         1 000712   000044 237000 2                  LDAQ    36
         1 000713   200036 757100                    STAQ    TEMP+5,,AUTO
         1 000714   200036 630500                    EPPR0   TEMP+5,,AUTO
         1 000715   000022 631400 xsym               EPPR1   B_VECTNIL+18
         1 000716   000000 701000 xent               TSX1    DDR$MOVE
         1 000717   000000 011000                    NOP     0

      168     9141    3                END;

      169     9142    2             BB$ = PINCRC( BB$, -1 );

   9142  1 000720   200020 236100                    LDQ     BB$,,AUTO
         1 000721   000034 036000 xsym               ADLQ    B_VECTNIL+28
         1 000722   200020 756100                    STQ     BB$,,AUTO

      170     9143    2             REM = REM + 1;

   9143  1 000723   200021 235100                    LDA     REM,,AUTO
         1 000724   000001 035007                    ADLA    1,DL
         1 000725   200021 755100                    STA     REM,,AUTO

      171     9144    2             CALL DDR$MOVE( ') ', LENGTHC( ') ' ), BB$, REM );

   9144  1 000726   200021 630500                    EPPR0   REM,,AUTO
         1 000727   200041 450500                    STP0    TEMP+8,,AUTO
         1 000730   200020 631500                    EPPR1   BB$,,AUTO
         1 000731   200040 451500                    STP1    TEMP+7,,AUTO
         1 000732   000046 237000 2                  LDAQ    38
         1 000733   200036 757100                    STAQ    TEMP+5,,AUTO
         1 000734   200036 630500                    EPPR0   TEMP+5,,AUTO
         1 000735   000022 631400 xsym               EPPR1   B_VECTNIL+18
         1 000736   000000 701000 xent               TSX1    DDR$MOVE
PL6.E3A0      #001=DDA$SHOW1 File=DDA$SHOW1.:E05TSI                              TUE 07/29/97 13:37 Page:35
         1 000737   000000 011000                    NOP     0

      172     9145    2           END;                            /* ( stuff ) */

      173     9146    1   DOADR: ;

   9146  1 000740                       DOADR        null
      174     9147    1        IF CMD=2 OR                     /* C_AT */

   9147  1 000740   200022 235100                    LDA     CMD,,AUTO
         1 000741   000002 115007                    CMPA    2,DL
         1 000742   000755 600000 1                  TZE     s:9154
         1 000743   000037 115007                    CMPA    31,DL
         1 000744   000755 600000 1                  TZE     s:9154
         1 000745   000055 115007                    CMPA    45,DL
         1 000746   000755 600000 1                  TZE     s:9154
         1 000747   000036 115007                    CMPA    30,DL
         1 000750   000755 600000 1                  TZE     s:9154
         1 000751   000040 115007                    CMPA    32,DL
         1 000752   000755 600000 1                  TZE     s:9154
         1 000753   000065 115007                    CMPA    53,DL
         1 000754   001560 601000 1                  TNZ     s:9243

      175     9148    1          CMD=31 OR                      /* C_OC */
      176     9149    1          CMD=45 OR                    /* C_SAVE */
      177     9150    1          CMD=30 OR                      /* C_OA */
      178     9151    1          CMD=32 OR                      /* C_OE */
      179     9152    1          CMD=53                    /* C_ONCALLS */
      180     9153    2        THEN DO;

      181     9154    3             DO CASE (CMD);

   9154  1 000755   000066 115007                    CMPA    54,DL
         1 000756   000760 602005 1                  TNC     s:9154+3,AL
         1 000757   001246 710000 1                  TRA     s:9177
         1 000760   001246 710000 1                  TRA     s:9177
         1 000761   001246 710000 1                  TRA     s:9177
PL6.E3A0      #001=DDA$SHOW1 File=DDA$SHOW1.:E05TSI                              TUE 07/29/97 13:37 Page:36
         1 000762   001046 710000 1                  TRA     s:9156
         1 000763   001246 710000 1                  TRA     s:9177
         1 000764   001246 710000 1                  TRA     s:9177
         1 000765   001246 710000 1                  TRA     s:9177
         1 000766   001246 710000 1                  TRA     s:9177
         1 000767   001246 710000 1                  TRA     s:9177
         1 000770   001246 710000 1                  TRA     s:9177
         1 000771   001246 710000 1                  TRA     s:9177
         1 000772   001246 710000 1                  TRA     s:9177
         1 000773   001246 710000 1                  TRA     s:9177
         1 000774   001246 710000 1                  TRA     s:9177
         1 000775   001246 710000 1                  TRA     s:9177
         1 000776   001246 710000 1                  TRA     s:9177
         1 000777   001246 710000 1                  TRA     s:9177
         1 001000   001246 710000 1                  TRA     s:9177
         1 001001   001246 710000 1                  TRA     s:9177
         1 001002   001246 710000 1                  TRA     s:9177
         1 001003   001246 710000 1                  TRA     s:9177
         1 001004   001246 710000 1                  TRA     s:9177
         1 001005   001246 710000 1                  TRA     s:9177
         1 001006   001246 710000 1                  TRA     s:9177
         1 001007   001246 710000 1                  TRA     s:9177
         1 001010   001246 710000 1                  TRA     s:9177
         1 001011   001246 710000 1                  TRA     s:9177
         1 001012   001246 710000 1                  TRA     s:9177
         1 001013   001246 710000 1                  TRA     s:9177
         1 001014   001246 710000 1                  TRA     s:9177
         1 001015   001246 710000 1                  TRA     s:9177
         1 001016   001166 710000 1                  TRA     s:9168
         1 001017   001140 710000 1                  TRA     s:9164
         1 001020   001201 710000 1                  TRA     s:9170
         1 001021   001246 710000 1                  TRA     s:9177
         1 001022   001246 710000 1                  TRA     s:9177
         1 001023   001246 710000 1                  TRA     s:9177
         1 001024   001246 710000 1                  TRA     s:9177
         1 001025   001246 710000 1                  TRA     s:9177
         1 001026   001246 710000 1                  TRA     s:9177
PL6.E3A0      #001=DDA$SHOW1 File=DDA$SHOW1.:E05TSI                              TUE 07/29/97 13:37 Page:37
         1 001027   001246 710000 1                  TRA     s:9177
         1 001030   001246 710000 1                  TRA     s:9177
         1 001031   001246 710000 1                  TRA     s:9177
         1 001032   001246 710000 1                  TRA     s:9177
         1 001033   001246 710000 1                  TRA     s:9177
         1 001034   001246 710000 1                  TRA     s:9177
         1 001035   001153 710000 1                  TRA     s:9166
         1 001036   001246 710000 1                  TRA     s:9177
         1 001037   001246 710000 1                  TRA     s:9177
         1 001040   001246 710000 1                  TRA     s:9177
         1 001041   001246 710000 1                  TRA     s:9177
         1 001042   001246 710000 1                  TRA     s:9177
         1 001043   001246 710000 1                  TRA     s:9177
         1 001044   001246 710000 1                  TRA     s:9177
         1 001045   001214 710000 1                  TRA     s:9172

      182     9155    3               CASE (2);                /* C_AT */

      183     9156    3                  IF (NOT SHOW) AND SILENT AND INACTIVE

   9156  1 001046   200005 234100                    SZN     SHOW,,AUTO
         1 001047   001067 604000 1                  TMI     s:9158
         1 001050   200006 234100                    SZN     SILENT,,AUTO
         1 001051   001067 605000 1                  TPL     s:9158
         1 001052   200007 234100                    SZN     INACTIVE,,AUTO
         1 001053   001067 605000 1                  TPL     s:9158

      184     9157    3                  THEN CALL DDR$MOVE( 'ATSI ', LENGTHC( 'ATSI ' ), BB$, REM );

   9157  1 001054   200021 630500                    EPPR0   REM,,AUTO
         1 001055   200041 450500                    STP0    TEMP+8,,AUTO
         1 001056   200020 631500                    EPPR1   BB$,,AUTO
         1 001057   200040 451500                    STP1    TEMP+7,,AUTO
         1 001060   000050 237000 2                  LDAQ    40
         1 001061   200036 757100                    STAQ    TEMP+5,,AUTO
         1 001062   200036 630500                    EPPR0   TEMP+5,,AUTO
         1 001063   000022 631400 xsym               EPPR1   B_VECTNIL+18
PL6.E3A0      #001=DDA$SHOW1 File=DDA$SHOW1.:E05TSI                              TUE 07/29/97 13:37 Page:38
         1 001064   000000 701000 xent               TSX1    DDR$MOVE
         1 001065   000000 011000                    NOP     0
         1 001066   001255 710000 1                  TRA     s:9181

      185     9158    3                  ELSE IF (NOT SHOW) AND SILENT

   9158  1 001067   200005 234100                    SZN     SHOW,,AUTO
         1 001070   001106 604000 1                  TMI     s:9160
         1 001071   200006 234100                    SZN     SILENT,,AUTO
         1 001072   001106 605000 1                  TPL     s:9160

      186     9159    3                       THEN CALL DDR$MOVE( 'ATS ', LENGTHC( 'ATS ' ), BB$, REM );

   9159  1 001073   200021 630500                    EPPR0   REM,,AUTO
         1 001074   200041 450500                    STP0    TEMP+8,,AUTO
         1 001075   200020 631500                    EPPR1   BB$,,AUTO
         1 001076   200040 451500                    STP1    TEMP+7,,AUTO
         1 001077   000052 237000 2                  LDAQ    42
         1 001100   200036 757100                    STAQ    TEMP+5,,AUTO
         1 001101   200036 630500                    EPPR0   TEMP+5,,AUTO
         1 001102   000022 631400 xsym               EPPR1   B_VECTNIL+18
         1 001103   000000 701000 xent               TSX1    DDR$MOVE
         1 001104   000000 011000                    NOP     0
         1 001105   001255 710000 1                  TRA     s:9181

      187     9160    3                       ELSE IF (NOT SHOW) AND INACTIVE

   9160  1 001106   200005 234100                    SZN     SHOW,,AUTO
         1 001107   001125 604000 1                  TMI     s:9162
         1 001110   200007 234100                    SZN     INACTIVE,,AUTO
         1 001111   001125 605000 1                  TPL     s:9162

      188     9161    3                            THEN CALL DDR$MOVE( 'ATI ', LENGTHC( 'ATI ' ), BB$, REM );

   9161  1 001112   200021 630500                    EPPR0   REM,,AUTO
         1 001113   200041 450500                    STP0    TEMP+8,,AUTO
         1 001114   200020 631500                    EPPR1   BB$,,AUTO
PL6.E3A0      #001=DDA$SHOW1 File=DDA$SHOW1.:E05TSI                              TUE 07/29/97 13:37 Page:39
         1 001115   200040 451500                    STP1    TEMP+7,,AUTO
         1 001116   000054 237000 2                  LDAQ    44
         1 001117   200036 757100                    STAQ    TEMP+5,,AUTO
         1 001120   200036 630500                    EPPR0   TEMP+5,,AUTO
         1 001121   000022 631400 xsym               EPPR1   B_VECTNIL+18
         1 001122   000000 701000 xent               TSX1    DDR$MOVE
         1 001123   000000 011000                    NOP     0
         1 001124   001255 710000 1                  TRA     s:9181

      189     9162    3                            ELSE CALL DDR$MOVE( 'AT ', LENGTHC( 'AT ' ), BB$, REM );

   9162  1 001125   200021 630500                    EPPR0   REM,,AUTO
         1 001126   200041 450500                    STP0    TEMP+8,,AUTO
         1 001127   200020 631500                    EPPR1   BB$,,AUTO
         1 001130   200040 451500                    STP1    TEMP+7,,AUTO
         1 001131   000056 237000 2                  LDAQ    46
         1 001132   200036 757100                    STAQ    TEMP+5,,AUTO
         1 001133   200036 630500                    EPPR0   TEMP+5,,AUTO
         1 001134   000022 631400 xsym               EPPR1   B_VECTNIL+18
         1 001135   000000 701000 xent               TSX1    DDR$MOVE
         1 001136   000000 011000                    NOP     0
         1 001137   001255 710000 1                  TRA     s:9181

      190     9163    3               CASE (31);                /* C_OC */

      191     9164    3                  CALL DDR$MOVE( 'ON CALL ', LENGTHC( 'ON CALL ' ), BB$, REM );

   9164  1 001140   200021 630500                    EPPR0   REM,,AUTO
         1 001141   200041 450500                    STP0    TEMP+8,,AUTO
         1 001142   200020 631500                    EPPR1   BB$,,AUTO
         1 001143   200040 451500                    STP1    TEMP+7,,AUTO
         1 001144   000060 237000 2                  LDAQ    48
         1 001145   200036 757100                    STAQ    TEMP+5,,AUTO
         1 001146   200036 630500                    EPPR0   TEMP+5,,AUTO
         1 001147   000022 631400 xsym               EPPR1   B_VECTNIL+18
         1 001150   000000 701000 xent               TSX1    DDR$MOVE
         1 001151   000000 011000                    NOP     0
PL6.E3A0      #001=DDA$SHOW1 File=DDA$SHOW1.:E05TSI                              TUE 07/29/97 13:37 Page:40
         1 001152   001255 710000 1                  TRA     s:9181

      192     9165    3               CASE (45);              /* C_SAVE */

      193     9166    3                  CALL DDR$MOVE( 'SAVE', LENGTHC( 'SAVE' ), BB$, REM );

   9166  1 001153   200021 630500                    EPPR0   REM,,AUTO
         1 001154   200041 450500                    STP0    TEMP+8,,AUTO
         1 001155   200020 631500                    EPPR1   BB$,,AUTO
         1 001156   200040 451500                    STP1    TEMP+7,,AUTO
         1 001157   000062 237000 2                  LDAQ    50
         1 001160   200036 757100                    STAQ    TEMP+5,,AUTO
         1 001161   200036 630500                    EPPR0   TEMP+5,,AUTO
         1 001162   000022 631400 xsym               EPPR1   B_VECTNIL+18
         1 001163   000000 701000 xent               TSX1    DDR$MOVE
         1 001164   000000 011000                    NOP     0
         1 001165   001255 710000 1                  TRA     s:9181

      194     9167    3               CASE (30);                /* C_OA */

      195     9168    3                  CALL DDR$MOVE( 'ON ABORT', LENGTHC( 'ON ABORT' ), BB$, REM );

   9168  1 001166   200021 630500                    EPPR0   REM,,AUTO
         1 001167   200041 450500                    STP0    TEMP+8,,AUTO
         1 001170   200020 631500                    EPPR1   BB$,,AUTO
         1 001171   200040 451500                    STP1    TEMP+7,,AUTO
         1 001172   000064 237000 2                  LDAQ    52
         1 001173   200036 757100                    STAQ    TEMP+5,,AUTO
         1 001174   200036 630500                    EPPR0   TEMP+5,,AUTO
         1 001175   000022 631400 xsym               EPPR1   B_VECTNIL+18
         1 001176   000000 701000 xent               TSX1    DDR$MOVE
         1 001177   000000 011000                    NOP     0
         1 001200   001255 710000 1                  TRA     s:9181

      196     9169    3               CASE (32);                /* C_OE */

      197     9170    3                  CALL DDR$MOVE( 'ON EXIT', LENGTHC( 'ON EXIT' ), BB$, REM );
PL6.E3A0      #001=DDA$SHOW1 File=DDA$SHOW1.:E05TSI                              TUE 07/29/97 13:37 Page:41

   9170  1 001201   200021 630500                    EPPR0   REM,,AUTO
         1 001202   200041 450500                    STP0    TEMP+8,,AUTO
         1 001203   200020 631500                    EPPR1   BB$,,AUTO
         1 001204   200040 451500                    STP1    TEMP+7,,AUTO
         1 001205   000066 237000 2                  LDAQ    54
         1 001206   200036 757100                    STAQ    TEMP+5,,AUTO
         1 001207   200036 630500                    EPPR0   TEMP+5,,AUTO
         1 001210   000022 631400 xsym               EPPR1   B_VECTNIL+18
         1 001211   000000 701000 xent               TSX1    DDR$MOVE
         1 001212   000000 011000                    NOP     0
         1 001213   001255 710000 1                  TRA     s:9181

      198     9171    3               CASE (53);           /* C_ONCALLS */

      199     9172    3                  IF ATT$->AT_FIRST.XTERNAL THEN

   9172  1 001214   200015 470500                    LDP0    ATT$,,AUTO
         1 001215   000003 236100                    LDQ     3,,PR0
         1 001216   400000 316007                    CANQ    -131072,DL
         1 001217   001233 600000 1                  TZE     s:9175

      200     9173    3                       CALL DDR$MOVE('ON XCALLS', LENGTHC('ON XCALLS'), BB$, REM);

   9173  1 001220   200021 631500                    EPPR1   REM,,AUTO
         1 001221   200041 451500                    STP1    TEMP+8,,AUTO
         1 001222   200020 633500                    EPPR3   BB$,,AUTO
         1 001223   200040 453500                    STP3    TEMP+7,,AUTO
         1 001224   000070 237000 2                  LDAQ    56
         1 001225   200036 757100                    STAQ    TEMP+5,,AUTO
         1 001226   200036 630500                    EPPR0   TEMP+5,,AUTO
         1 001227   000022 631400 xsym               EPPR1   B_VECTNIL+18
         1 001230   000000 701000 xent               TSX1    DDR$MOVE
         1 001231   000000 011000                    NOP     0
         1 001232   001255 710000 1                  TRA     s:9181

      201     9174    3                  ELSE
PL6.E3A0      #001=DDA$SHOW1 File=DDA$SHOW1.:E05TSI                              TUE 07/29/97 13:37 Page:42
      202     9175    3                       CALL DDR$MOVE('ON CALLS',LENGTHC('ON CALLS'),BB$,REM );

   9175  1 001233   200021 631500                    EPPR1   REM,,AUTO
         1 001234   200041 451500                    STP1    TEMP+8,,AUTO
         1 001235   200020 633500                    EPPR3   BB$,,AUTO
         1 001236   200040 453500                    STP3    TEMP+7,,AUTO
         1 001237   000072 237000 2                  LDAQ    58
         1 001240   200036 757100                    STAQ    TEMP+5,,AUTO
         1 001241   200036 630500                    EPPR0   TEMP+5,,AUTO
         1 001242   000022 631400 xsym               EPPR1   B_VECTNIL+18
         1 001243   000000 701000 xent               TSX1    DDR$MOVE
         1 001244   000000 011000                    NOP     0
         1 001245   001255 710000 1                  TRA     s:9181

      203     9176    3               CASE (ELSE);                /* Shouldn't get here */

      204     9177    3                  S_D.ERROR = 502;    /* E@DELBUG */

   9177  1 001246   000766 236007                    LDQ     502,DL
         1 001247   000000 470400 xsym               LDP0    S_D$
         1 001250   000013 756100                    STQ     11,,PR0

      205     9178    3                  CALL DDE$ERROR;

   9178  1 001251   000002 631400 xsym               EPPR1   B_VECTNIL+2
         1 001252   000000 701000 xent               TSX1    DDE$ERROR
         1 001253   000000 011000                    NOP     0

      206     9179    3                  RETURN;

   9179  1 001254   000000 702200 xent               TSX2  ! X66_ARET

      207     9180    3               END;

      208     9181    2             IF CMD = 2 OR CMD = 31   /* C_AT, C_OC */

   9181  1 001255   200022 235100                    LDA     CMD,,AUTO
PL6.E3A0      #001=DDA$SHOW1 File=DDA$SHOW1.:E05TSI                              TUE 07/29/97 13:37 Page:43
         1 001256   000002 115007                    CMPA    2,DL
         1 001257   001262 600000 1                  TZE     s:9183
         1 001260   000037 115007                    CMPA    31,DL
         1 001261   001444 601000 1                  TNZ     s:9219

      209     9182    3             THEN DO;                      /* Generate position */

      210     9183    3                  IC = S_D.FIXCOM.CDF( S_D.SHOW1 );

   9183  1 001262   000000 470400 xsym               LDP0    S_D$
         1 001263   000064 236100                    LDQ     52,,PR0
         1 001264   000003 402007                    MPY     3,DL
         1 001265   000001 736000                    QLS     1
         1 001266   001213 235106                    LDA     651,QL,PR0
         1 001267   200024 755100                    STA     IC,,AUTO

      211     9184    3                  IF S_D.FIXCOM.FPRG(S_D.SHOW1)

   9184  1 001270   000064 236100                    LDQ     52,,PR0
         1 001271   000003 402007                    MPY     3,DL
         1 001272   000001 736000                    QLS     1
         1 001273   001212 236106                    LDQ     650,QL,PR0
         1 001274   000002 316003                    CANQ    2,DU
         1 001275   001372 600000 1                  TZE     s:9208

      212     9185    4                  THEN DO;

      213     9186                                           /* Setup pointer to correct FPRG context */
      214     9187    4                       TFPRG$ = S_D.FPRG_CONTEXT$;

   9187  1 001276   000076 236100                    LDQ     62,,PR0
         1 001277   200026 756100                    STQ     TFPRG$,,AUTO

      215     9188    5                      DO WHILE (TFPRG$ -> FPRG$CONTEXT.RES ~= S_D.FIXCOM.FPRG_RES(S_D.
              9188                                SHOW1));

   9188  1 001300   000064 236100                    LDQ     52,,PR0
PL6.E3A0      #001=DDA$SHOW1 File=DDA$SHOW1.:E05TSI                              TUE 07/29/97 13:37 Page:44
         1 001301   000003 402007                    MPY     3,DL
         1 001302   000003 736000                    QLS     3
         1 001303   200026 471500                    LDP1    TFPRG$,,AUTO
         1 001304   040106 106500                    CMPC    fill='040'O
         1 001305   100002 000010                    ADSC9   2,,PR1                   cn=0,n=8
         1 001306   001215 000010                    ADSC9   653,Q,PR0                cn=0,n=8
         1 001307   001337 600000 1                  TZE     s:9198

      216     9189    5                            TFPRG$ = TFPRG$ -> FPRG$CONTEXT.NEXT$;

   9189  1 001310   200026 470500                    LDP0    TFPRG$,,AUTO
         1 001311   000000 236100                    LDQ     0,,PR0
         1 001312   200026 756100                    STQ     TFPRG$,,AUTO

      217     9190    5                            IF TFPRG$ = ADDR(NIL)

   9190  1 001313   000001 116000 xsym               CMPQ    B_VECTNIL+1
         1 001314   001326 601000 1                  TNZ     s:9197

      218     9191    6                            THEN DO;

      219     9192    6                                 S_D.ERROR_HICHAR = S_D.SHOW1;

   9192  1 001315   000000 470400 xsym               LDP0    S_D$
         1 001316   000064 235100                    LDA     52,,PR0
         1 001317   004753 755100                    STA     2539,,PR0

      220     9193    6                                 S_D.ERROR = 507; /* E@BADFPRGAT */

   9193  1 001320   000773 235007                    LDA     507,DL
         1 001321   000013 755100                    STA     11,,PR0

      221     9194    6                                 CALL DDE$ERROR;

   9194  1 001322   000002 631400 xsym               EPPR1   B_VECTNIL+2
         1 001323   000000 701000 xent               TSX1    DDE$ERROR
         1 001324   000000 011000                    NOP     0
PL6.E3A0      #001=DDA$SHOW1 File=DDA$SHOW1.:E05TSI                              TUE 07/29/97 13:37 Page:45

      222     9195    6                                 GOTO RETN;

   9195  1 001325   001701 710000 1                  TRA     RETN

      223     9196    6                               END;
      224     9197    5                          END;

   9197  1 001326   000000 470400 xsym               LDP0    S_D$
         1 001327   000064 236100                    LDQ     52,,PR0
         1 001330   000003 402007                    MPY     3,DL
         1 001331   000003 736000                    QLS     3
         1 001332   200026 471500                    LDP1    TFPRG$,,AUTO
         1 001333   040106 106500                    CMPC    fill='040'O
         1 001334   100002 000010                    ADSC9   2,,PR1                   cn=0,n=8
         1 001335   001215 000010                    ADSC9   653,Q,PR0                cn=0,n=8
         1 001336   001310 601000 1                  TNZ     s:9189

      225     9198    4                       S_D.CURRENT_FPRG_CONTEXT$ = TFPRG$;

   9198  1 001337   200026 236100                    LDQ     TFPRG$,,AUTO
         1 001340   000102 756100                    STQ     66,,PR0

      226     9199    4                       S_D.SHOW = '1'B;

   9199  1 001341   400000 236003                    LDQ     -131072,DU
         1 001342   006715 756100                    STQ     3533,,PR0

      227     9200    4                       IF NOT S_D.DEBUG_CMD

   9200  1 001343   004665 234100                    SZN     2485,,PR0
         1 001344   001353 604000 1                  TMI     s:9202

      228     9201    4                       THEN CALL DFA$FPRG(IC);

   9201  1 001345   200024 633500                    EPPR3   IC,,AUTO
         1 001346   200036 453500                    STP3    TEMP+5,,AUTO
PL6.E3A0      #001=DDA$SHOW1 File=DDA$SHOW1.:E05TSI                              TUE 07/29/97 13:37 Page:46
         1 001347   200036 630500                    EPPR0   TEMP+5,,AUTO
         1 001350   000017 631400 xsym               EPPR1   B_VECTNIL+15
         1 001351   000000 701000 xent               TSX1    DFA$FPRG
         1 001352   000000 011000                    NOP     0

      229     9202    4                       S_D.SHOW = '0'B;

   9202  1 001353   000000 470400 xsym               LDP0    S_D$
         1 001354   006715 450100                    STZ     3533,,PR0

      230     9203    4                       CALL DDR$POSIT(IC, BB$, REM, NCARS);

   9203  1 001355   200013 631500                    EPPR1   NCARS,,AUTO
         1 001356   200041 451500                    STP1    TEMP+8,,AUTO
         1 001357   200021 633500                    EPPR3   REM,,AUTO
         1 001360   200040 453500                    STP3    TEMP+7,,AUTO
         1 001361   200020 634500                    EPPR4   BB$,,AUTO
         1 001362   200037 454500                    STP4    TEMP+6,,AUTO
         1 001363   200024 635500                    EPPR5   IC,,AUTO
         1 001364   200036 455500                    STP5    TEMP+5,,AUTO
         1 001365   200036 630500                    EPPR0   TEMP+5,,AUTO
         1 001366   000022 631400 xsym               EPPR1   B_VECTNIL+18
         1 001367   000000 701000 xent               TSX1    DDR$POSIT
         1 001370   000000 011000                    NOP     0

      231     9204        /* #31278           IF NOT S_D.DEBUG_CMD
      232     9205                            THEN CALL DFA$KILL_FPRG;*/
      233     9206    4                     END;

   9206  1 001371   001435 710000 1                  TRA     s:9216

      234     9207    4                  ELSE DO;

      235     9208    4                       IF S_D.FPRG

   9208  1 001372   000101 234100                    SZN     65,,PR0
         1 001373   001377 605000 1                  TPL     s:9210
PL6.E3A0      #001=DDA$SHOW1 File=DDA$SHOW1.:E05TSI                              TUE 07/29/97 13:37 Page:47

      236     9209    4                       THEN CALL DFA$KILL_FPRG;

   9209  1 001374   000002 631400 xsym               EPPR1   B_VECTNIL+2
         1 001375   000000 701000 xent               TSX1    DFA$KILL_FPRG
         1 001376   000000 011000                    NOP     0

      237     9210    4                       IF CMD = 31 AND NOT SHOW THEN S_D.REPORTING_ONCALL = '1'B;

   9210  1 001377   200022 235100                    LDA     CMD,,AUTO
         1 001400   000037 115007                    CMPA    31,DL
         1 001401   001407 601000 1                  TNZ     s:9211
         1 001402   200005 234100                    SZN     SHOW,,AUTO
         1 001403   001407 604000 1                  TMI     s:9211

   9210  1 001404   400000 236003                    LDQ     -131072,DU
         1 001405   000000 470400 xsym               LDP0    S_D$
         1 001406   006765 756100                    STQ     3573,,PR0

      238     9211    4                       IF NOT SHOW THEN S_D.SIM_UPDATE = '1'B;

   9211  1 001407   200005 234100                    SZN     SHOW,,AUTO
         1 001410   001414 604000 1                  TMI     s:9212

   9211  1 001411   400000 236003                    LDQ     -131072,DU
         1 001412   000000 470400 xsym               LDP0    S_D$
         1 001413   006766 756100                    STQ     3574,,PR0

      239     9212    4                       CALL DDR$POSIT( IC, BB$, REM, NCARS );

   9212  1 001414   200013 630500                    EPPR0   NCARS,,AUTO
         1 001415   200041 450500                    STP0    TEMP+8,,AUTO
         1 001416   200021 631500                    EPPR1   REM,,AUTO
         1 001417   200040 451500                    STP1    TEMP+7,,AUTO
         1 001420   200020 633500                    EPPR3   BB$,,AUTO
         1 001421   200037 453500                    STP3    TEMP+6,,AUTO
         1 001422   200024 634500                    EPPR4   IC,,AUTO
PL6.E3A0      #001=DDA$SHOW1 File=DDA$SHOW1.:E05TSI                              TUE 07/29/97 13:37 Page:48
         1 001423   200036 454500                    STP4    TEMP+5,,AUTO
         1 001424   200036 630500                    EPPR0   TEMP+5,,AUTO
         1 001425   000022 631400 xsym               EPPR1   B_VECTNIL+18
         1 001426   000000 701000 xent               TSX1    DDR$POSIT
         1 001427   000000 011000                    NOP     0

      240     9213    4                       S_D.REPORTING_ONCALL = '0'B;

   9213  1 001430   000000 470400 xsym               LDP0    S_D$
         1 001431   006765 450100                    STZ     3573,,PR0

      241     9214    4                       IF NOT SHOW THEN S_D.SIM_UPDATE = '0'B;

   9214  1 001432   200005 234100                    SZN     SHOW,,AUTO
         1 001433   001435 604000 1                  TMI     s:9216

   9214  1 001434   006766 450100                    STZ     3574,,PR0

      242     9215    4                     END;

      243     9216    3                  BB$ = PINCRC( BB$, NCARS );

   9216  1 001435   200013 236100                    LDQ     NCARS,,AUTO
         1 001436   000020 736000                    QLS     16
         1 001437   200020 036100                    ADLQ    BB$,,AUTO
         1 001440   200020 756100                    STQ     BB$,,AUTO

      244     9217    3                  REM = REM - NCARS;

   9217  1 001441   200021 236100                    LDQ     REM,,AUTO
         1 001442   200013 136100                    SBLQ    NCARS,,AUTO
         1 001443   200021 756100                    STQ     REM,,AUTO

      245     9218    3                END;

      246     9219    2             IF BYCOUNT > 0

PL6.E3A0      #001=DDA$SHOW1 File=DDA$SHOW1.:E05TSI                              TUE 07/29/97 13:37 Page:49
   9219  1 001444   200010 235100                    LDA     BYCOUNT,,AUTO
         1 001445   001503 604400 1                  TMOZ    s:9226

      247     9220    3             THEN DO;                      /* #bypass-count */

      248     9221    3                  CALL DDR$MOVE( ' #', LENGTHC( ' #' ), BB$, REM );

   9221  1 001446   200021 630500                    EPPR0   REM,,AUTO
         1 001447   200041 450500                    STP0    TEMP+8,,AUTO
         1 001450   200020 631500                    EPPR1   BB$,,AUTO
         1 001451   200040 451500                    STP1    TEMP+7,,AUTO
         1 001452   000074 237000 2                  LDAQ    60
         1 001453   200036 757100                    STAQ    TEMP+5,,AUTO
         1 001454   200036 630500                    EPPR0   TEMP+5,,AUTO
         1 001455   000022 631400 xsym               EPPR1   B_VECTNIL+18
         1 001456   000000 701000 xent               TSX1    DDR$MOVE
         1 001457   000000 011000                    NOP     0

      249     9222    3                  CALL DDR$BINTXT( BB$, BYCOUNT, %UINT_FMT, NCARS );

   9222  1 001460   200013 630500                    EPPR0   NCARS,,AUTO
         1 001461   200041 450500                    STP0    TEMP+8,,AUTO
         1 001462   000041 236000 2                  LDQ     33
         1 001463   200040 756100                    STQ     TEMP+7,,AUTO
         1 001464   200010 631500                    EPPR1   BYCOUNT,,AUTO
         1 001465   200037 451500                    STP1    TEMP+6,,AUTO
         1 001466   200020 633500                    EPPR3   BB$,,AUTO
         1 001467   200036 453500                    STP3    TEMP+5,,AUTO
         1 001470   200036 630500                    EPPR0   TEMP+5,,AUTO
         1 001471   000022 631400 xsym               EPPR1   B_VECTNIL+18
         1 001472   000000 701000 xent               TSX1    DDR$BINTXT
         1 001473   000000 011000                    NOP     0

      250     9223    3                  BB$ = PINCRC( BB$, NCARS );

   9223  1 001474   200013 236100                    LDQ     NCARS,,AUTO
         1 001475   000020 736000                    QLS     16
PL6.E3A0      #001=DDA$SHOW1 File=DDA$SHOW1.:E05TSI                              TUE 07/29/97 13:37 Page:50
         1 001476   200020 036100                    ADLQ    BB$,,AUTO
         1 001477   200020 756100                    STQ     BB$,,AUTO

      251     9224    3                  REM = REM - NCARS;

   9224  1 001500   200021 236100                    LDQ     REM,,AUTO
         1 001501   200013 136100                    SBLQ    NCARS,,AUTO
         1 001502   200021 756100                    STQ     REM,,AUTO

      252     9225    3                END;                       /* #bypass-count */

      253     9226    2             IF ATT$ -> AT_FIRST.IF_OFFSET>0

   9226  1 001503   200015 470500                    LDP0    ATT$,,AUTO
         1 001504   000007 720100                    LXL0    7,,PR0
         1 001505   001523 600000 1                  TZE     s:9231

      254     9227    3             THEN DO;                      /* User specified IFSPEC */

      255     9228    3                  ATT = ATT$ -> AT_FIRST.TEXT_SIZE - ATT$ -> AT_FIRST.IF_OFFSET;

   9228  1 001506   000007 236100                    LDQ     7,,PR0
         1 001507   777777 376007                    ANQ     -1,DL
         1 001510   200036 756100                    STQ     TEMP+5,,AUTO
         1 001511   000006 236100                    LDQ     6,,PR0
         1 001512   777777 376007                    ANQ     -1,DL
         1 001513   200036 136100                    SBLQ    TEMP+5,,AUTO
         1 001514   200012 756100                    STQ     ATT,,AUTO

      256     9229    3                  NTXT$ = PINCRC( ATXT$, ATT$ -> AT_FIRST.IF_OFFSET );

   9229  1 001515   000007 236100                    LDQ     7,,PR0
         1 001516   777777 376007                    ANQ     -1,DL
         1 001517   000020 736000                    QLS     16
         1 001520   200016 036100                    ADLQ    ATXT$,,AUTO
         1 001521   200023 756100                    STQ     NTXT$,,AUTO

PL6.E3A0      #001=DDA$SHOW1 File=DDA$SHOW1.:E05TSI                              TUE 07/29/97 13:37 Page:51
      257     9230    3                END;                       /* User specified IFSPEC */

   9230  1 001522   001645 710000 1                  TRA     s:9266

      258     9231    2             ELSE IF ATT$ -> AT_FIRST.ATT_OFFSET>0

   9231  1 001523   000007 221100                    LDX1    7,,PR0
         1 001524   001554 600000 1                  TZE     s:9238

      259     9232    3                  THEN DO;                 /* User ATTACHMENTS */

      260     9233    3                       ATT = ATT$ -> AT_FIRST.TEXT_SIZE - ATT$ -> AT_FIRST.ATT_OFFSET;

   9233  1 001525   000007 236100                    LDQ     7,,PR0
         1 001526   000022 772000                    QRL     18
         1 001527   200036 756100                    STQ     TEMP+5,,AUTO
         1 001530   000006 236100                    LDQ     6,,PR0
         1 001531   777777 376007                    ANQ     -1,DL
         1 001532   200036 136100                    SBLQ    TEMP+5,,AUTO
         1 001533   200012 756100                    STQ     ATT,,AUTO

      261     9234    3                       NTXT$ = PINCRC( ATXT$, ATT$ -> AT_FIRST.ATT_OFFSET );

   9234  1 001534   000007 236100                    LDQ     7,,PR0
         1 001535   000022 772000                    QRL     18
         1 001536   000020 736000                    QLS     16
         1 001537   200016 036100                    ADLQ    ATXT$,,AUTO
         1 001540   200023 756100                    STQ     NTXT$,,AUTO

      262     9235    3                       CALL DDR$MOVE( ';', LENGTHC( ';' ), BB$, REM );

   9235  1 001541   200021 631500                    EPPR1   REM,,AUTO
         1 001542   200041 451500                    STP1    TEMP+8,,AUTO
         1 001543   200020 633500                    EPPR3   BB$,,AUTO
         1 001544   200040 453500                    STP3    TEMP+7,,AUTO
         1 001545   000100 237000 2                  LDAQ    64
         1 001546   200036 757100                    STAQ    TEMP+5,,AUTO
PL6.E3A0      #001=DDA$SHOW1 File=DDA$SHOW1.:E05TSI                              TUE 07/29/97 13:37 Page:52
         1 001547   200036 630500                    EPPR0   TEMP+5,,AUTO
         1 001550   000022 631400 xsym               EPPR1   B_VECTNIL+18
         1 001551   000000 701000 xent               TSX1    DDR$MOVE
         1 001552   000000 011000                    NOP     0

      263     9236    3                     END;

   9236  1 001553   001645 710000 1                  TRA     s:9266

      264     9237    3                  ELSE DO;                 /* Neither IFSPEC nor ATTACHMENTS */

      265     9238    3                       ATT = 0;

   9238  1 001554   200012 450100                    STZ     ATT,,AUTO

      266     9239    3                       NTXT$ = ADDR( NTXT$ );

   9239  1 001555   200023 631500                    EPPR1   NTXT$,,AUTO
         1 001556   200023 451500                    STP1    NTXT$,,AUTO

      267     9240    3                     END;                  /* Neither IFSPEC not ATTACHENNTS */

      268     9241    2           END;                            /* Generate position */

   9241  1 001557   001645 710000 1                  TRA     s:9266

      269     9242    2        ELSE DO;                           /* Text as user typed it */

      270     9243    2             GOT_ID = '0'B;

   9243  1 001560   200025 450100                    STZ     GOT_ID,,AUTO

      271     9244    2             IF CMD = 67 OR            /* C_WHEN */

   9244  1 001561   000103 115007                    CMPA    67,DL
         1 001562   001567 600000 1                  TZE     s:9248
         1 001563   000042 115007                    CMPA    34,DL
PL6.E3A0      #001=DDA$SHOW1 File=DDA$SHOW1.:E05TSI                              TUE 07/29/97 13:37 Page:53
         1 001564   001567 600000 1                  TZE     s:9248
         1 001565   000066 115007                    CMPA    54,DL
         1 001566   001605 601000 1                  TNZ     s:9253

      272     9245    2               CMD = 34 OR              /* C_ONN */
      273     9246    2               CMD = 54             /* C_ONNODES */
      274     9247    3             THEN DO;

      275     9248    3                  ATT = ATT$ -> AT_FIRST.TEXT_SIZE;

   9248  1 001567   200015 470500                    LDP0    ATT$,,AUTO
         1 001570   000006 236100                    LDQ     6,,PR0
         1 001571   777777 376007                    ANQ     -1,DL
         1 001572   200012 756100                    STQ     ATT,,AUTO

      276     9249    3                  CALL INDEX (POS, SUBSTR(ATXT$->CHAR$ATT, 0, 1), '0123456789', 0);

   9249  1 001573   200016 471500                    LDP1    ATXT$,,AUTO
         1 001574   000100 124400                    SCM     mask='000'O
         1 001575   000047 000012 0                  ADSC9   39                       cn=0,n=10
         1 001576   100000 000001                    ADSC9   0,,PR1                   cn=0,n=1
         1 001577   200027 000100                    ARG     POS,,AUTO

      277     9250    3                  IF POS ~= LENGTHC('0123456789')

   9250  1 001600   200027 235100                    LDA     POS,,AUTO
         1 001601   000012 115007                    CMPA    10,DL
         1 001602   001605 600000 1                  TZE     s:9253

      278     9251    3                  THEN GOT_ID = '1'B;

   9251  1 001603   400000 236003                    LDQ     -131072,DU
         1 001604   200025 756100                    STQ     GOT_ID,,AUTO

      279     9252    3                END;

      280     9253    2             IF GOT_ID
PL6.E3A0      #001=DDA$SHOW1 File=DDA$SHOW1.:E05TSI                              TUE 07/29/97 13:37 Page:54

   9253  1 001605   200025 234100                    SZN     GOT_ID,,AUTO
         1 001606   001637 605000 1                  TPL     s:9262

      281     9254    3             THEN DO;

      282     9255    3                  TPOS = POS;

   9255  1 001607   200027 235100                    LDA     POS,,AUTO
         1 001610   200030 755100                    STA     TPOS,,AUTO

      283     9256    3                  CALL INDEX(POS, ATXT$->CHAR$ATT, ' ', TPOS);

   9256  1 001611   200027 631500                    EPPR1   POS,,AUTO
         1 001612   200016 473500                    LDP3    ATXT$,,AUTO
         1 001613   200012 723100                    LXL3    ATT,,AUTO
         1 001614   000035 630400 xsym               EPPR0   B_VECTNIL+29
         1 001615   000001 220003                    LDX0    1,DU
         1 001616   200030 236100                    LDQ     TPOS,,AUTO
         1 001617   000000 701000 xent               TSX1    X66_INDEX
         1 001620   000000 011000                    NOP     0

      284     9257    3                  POS = POS + TPOS + 2;

   9257  1 001621   200027 236100                    LDQ     POS,,AUTO
         1 001622   200030 036100                    ADLQ    TPOS,,AUTO
         1 001623   000002 036007                    ADLQ    2,DL
         1 001624   200027 756100                    STQ     POS,,AUTO

      285     9258    3                  ATT = ATT$ -> AT_FIRST.TEXT_SIZE - POS;

   9258  1 001625   200015 470500                    LDP0    ATT$,,AUTO
         1 001626   000006 236100                    LDQ     6,,PR0
         1 001627   777777 376007                    ANQ     -1,DL
         1 001630   200027 136100                    SBLQ    POS,,AUTO
         1 001631   200012 756100                    STQ     ATT,,AUTO

PL6.E3A0      #001=DDA$SHOW1 File=DDA$SHOW1.:E05TSI                              TUE 07/29/97 13:37 Page:55
      286     9259    3                  NTXT$ = PINCRC(ATXT$, POS);

   9259  1 001632   200027 236100                    LDQ     POS,,AUTO
         1 001633   000020 736000                    QLS     16
         1 001634   200016 036100                    ADLQ    ATXT$,,AUTO
         1 001635   200023 756100                    STQ     NTXT$,,AUTO

      287     9260    3                END;

   9260  1 001636   001645 710000 1                  TRA     s:9266

      288     9261    3             ELSE DO;

      289     9262    3                  ATT = ATT$ -> AT_FIRST.TEXT_SIZE;

   9262  1 001637   200015 470500                    LDP0    ATT$,,AUTO
         1 001640   000006 236100                    LDQ     6,,PR0
         1 001641   777777 376007                    ANQ     -1,DL
         1 001642   200012 756100                    STQ     ATT,,AUTO

      290     9263    3                  NTXT$ = ATXT$;

   9263  1 001643   200016 236100                    LDQ     ATXT$,,AUTO
         1 001644   200023 756100                    STQ     NTXT$,,AUTO

      291     9264    3                END;

      292     9265    2           END;                            /* Text as user typed it */

      293     9266    1        CALL INSERT( CHAR$REM, , , NTXT$ -> CHAR$ATT );

   9266  1 001645   200023 470500                    LDP0    NTXT$,,AUTO
         1 001646   200012 720100                    LXL0    ATT,,AUTO
         1 001647   200020 471500                    LDP1    BB$,,AUTO
         1 001650   200021 721100                    LXL1    REM,,AUTO
         1 001651   040140 100540                    MLR     fill='040'O
         1 001652   000000 000010                    ADSC9   0,,PR0                   cn=0,n=*X0
PL6.E3A0      #001=DDA$SHOW1 File=DDA$SHOW1.:E05TSI                              TUE 07/29/97 13:37 Page:56
         1 001653   100000 000011                    ADSC9   0,,PR1                   cn=0,n=*X1

      294     9267    1        NCARS = LENGTHC( S_D.OUTPUT ) - ( REM - ATT );

   9267  1 001654   200021 236100                    LDQ     REM,,AUTO
         1 001655   200012 136100                    SBLQ    ATT,,AUTO
         1 001656   000027 676000 xsym               ERQ     B_VECTNIL+23
         1 001657   004001 036007                    ADLQ    2049,DL
         1 001660   200013 756100                    STQ     NCARS,,AUTO

      295     9268    1        IF SHOW OR S_D.SIM_UPDATE

   9268  1 001661   200005 234100                    SZN     SHOW,,AUTO
         1 001662   001666 604000 1                  TMI     s:9269
         1 001663   000000 470400 xsym               LDP0    S_D$
         1 001664   006766 234100                    SZN     3574,,PR0
         1 001665   001677 605000 1                  TPL     s:9270

      296     9269    1        THEN CALL DDQ$WRITED( BUF$, NCARS );

   9269  1 001666   200013 630500                    EPPR0   NCARS,,AUTO
         1 001667   200037 450500                    STP0    TEMP+6,,AUTO
         1 001670   200017 631500                    EPPR1   BUF$,,AUTO
         1 001671   200036 451500                    STP1    TEMP+5,,AUTO
         1 001672   200036 630500                    EPPR0   TEMP+5,,AUTO
         1 001673   000020 631400 xsym               EPPR1   B_VECTNIL+16
         1 001674   000000 701000 xent               TSX1    DDQ$WRITED
         1 001675   000000 011000                    NOP     0
         1 001676   001701 710000 1                  TRA     RETN

      297     9270    1        ELSE SIZE = NCARS;

   9270  1 001677   200004 471500                    LDP1    @SIZE,,AUTO
         1 001700   100000 756100                    STQ     0,,PR1

   9268  1 001701                       RETN         null
      298     9271
PL6.E3A0      #001=DDA$SHOW1 File=DDA$SHOW1.:E05TSI                              TUE 07/29/97 13:37 Page:57
      299     9272    1   RETN: ;
      300     9273    1        RETURN;

   9273  1 001701   000000 702200 xent               TSX2  ! X66_ARET

(unnamed)
 Sect OctLoc
   0     000   115157 156151   164157 162054   125163 145162   043040 040040    Monitor,User#
   0     004   125123 105122   054040 040040   111104 102054   101123 114054    USER,   IDB,ASL,
   0     010   111103 120054   163151 154145   156164 054040   151156 141143    ICP,silent, inac
   0     014   164151 166145   054040 040040   156157 164137   151156 054040    tive,   not_in,
   0     020   156157 144145   075040 040040   055154 145146   164054 040040    node=   -left,
   0     024   051040 040040   101124 123111   040040 040040   101124 123040    )   ATSI    ATS
   0     030   101124 111040   101124 040040   117116 040103   101114 114040    ATI AT  ON CALL
   0     034   123101 126105   117116 040101   102117 122124   117116 040105    SAVEON ABORTON E
   0     040   130111 124040   117116 040130   103101 114114   123040 040040    XIT ON XCALLS
   0     044   117116 040103   101114 114123   040043 040040   060061 062063    ON CALLS #  0123
   0     050   064065 066067   070071 040040                                    456789

(unnamed)
 Sect OctLoc
   2     000   000035 006000   000003 006000   050040 040040   054040 040040    ........(   ,
   2     004   000002 006000   000003 006000   000003 006000   000003 006000    ................
   2     010   777777 777000   000000 000015   000000 006000   000012 006000    ................
   2     014   000002 006000   000010 006000   000011 006000   000000 000000    ................
   2     020   000004 006000   000007 006000   000006 006000   000006 006000    ................
   2     024   000007 006000   000006 006000   000010 006000   000006 006000    ................
   2     030   000011 006000   000011 006000   000013 006000   000013 006000    ................
   2     034   000016 006000   000011 006000   000020 006000   000007 006000    ................
   2     040   043040 040040   000004 006000   000040 006000   000003 006000    #   ..... ......
   2     044   000022 006000   000010 006000   000024 006000   000004 006000    ................
   2     050   000025 006000   000007 006000   000027 006000   000006 006000    ................
   2     054   000030 006000   000006 006000   000031 006000   000005 006000    ................
   2     060   000032 006000   000012 006000   000034 006000   000006 006000    ................
   2     064   000035 006000   000012 006000   000037 006000   000011 006000    ................
   2     070   000041 006000   000013 006000   000044 006000   000012 006000    .!.......$......
   2     074   000046 006000   000004 006000   073040 040040   000000 000000    .&......;   ....
PL6.E3A0      #001=DDA$SHOW1 File=DDA$SHOW1.:E05TSI                              TUE 07/29/97 13:37 Page:58
   2     100   000076 006000   000003 006000                                    .>......
      301     9274
      302     9275    1   END DDA$SHOW1;

PL6.E3A0      #001=DDA$SHOW1 File=DDA$SHOW1.:E05TSI                              TUE 07/29/97 13:37 Page:59
--  Include file information  --

   DD_SRTN_C.:E05TOU  is referenced.
   DD_ACODE_C.:E05TOU  is referenced.
   DD_ICODE_C.:E05TOU  is referenced.
   DD$DITEM.:E05TOU  cannot be made into a system file and is referenced.
   DD_ERR_C.:E05TOU  is referenced.
   DD_SUBS_C.:E05TOU  is referenced.
   DD_SD_M.:E05TOU  is referenced.
   XUH_MACRO_C.:E05TOU  is referenced.
   B$OBJECT_C.:E05TOU  is referenced.
   DD$BASED.:E05TOU  is referenced.
   B$JIT_C.:E05TOU  was found in the system file and is never referenced.
   CP_6_C.:E05TOU  was found in the system file and is never referenced.
      No diagnostics issued in procedure DDA$SHOW1.

   Procedure DDA$SHOW1 requires 962 words for executable code.
   Procedure DDA$SHOW1 requires 36 words of local(AUTO) storage.

    No errors detected in file DDA$SHOW1.:E05TSI    .
PL6.E3A0      #001=DDA$SHOW1 File=DDA$SHOW1.:E05TSI                              TUE 07/29/97 13:37 Page:60
          *** CROSS REFERENCE LISTING ***
**     DENOTES     IDENTIFIER DEFINITION
<<                 IDENTIFIER'S VALUE SET
>>                 IDENTIFIER'S VALUE USED
<>                 IDENTIFIER SET AND/OR USED
--                 IDENTIFIER REFERENCED
PL6.E3A0      #001=DDA$SHOW1 File=DDA$SHOW1.:E05TSI                              TUE 07/29/97 13:37 Page:61
          MINI XREF LISTING

ATT
        31**DCL        49--IMP-SIZ  9228<<ASSIGN   9233<<ASSIGN   9238<<ASSIGN   9248<<ASSIGN   9249>>CALLBLT
      9256>>CALLBLT  9258<<ASSIGN   9262<<ASSIGN   9266>>CALLBLT  9267>>ASSIGN
ATT$
        34**DCL      9057<<ASSIGN   9058>>ASSIGN   9059>>ASSIGN   9059>>ASSIGN   9071>>ASSIGN   9074>>ASSIGN
      9078>>IF       9095>>IF       9099>>ASSIGN   9107>>DOCASE   9123>>IF       9128>>ASSIGN   9129>>ASSIGN
      9172>>IF       9226>>IF       9228>>ASSIGN   9228>>ASSIGN   9229>>ASSIGN   9231>>IF       9233>>ASSIGN
      9233>>ASSIGN   9234>>ASSIGN   9248>>ASSIGN   9258>>ASSIGN   9262>>ASSIGN
ATXT$
        35**DCL      9059<<ASSIGN   9229>>ASSIGN   9234>>ASSIGN   9249>>CALLBLT  9256>>CALLBLT  9259>>ASSIGN
      9263>>ASSIGN
AT_FIRST.ATT_OFFSET
      1379**DCL      9231>>IF       9233>>ASSIGN   9234>>ASSIGN
AT_FIRST.BYPASS_COUNT
      1374**DCL      9071>>ASSIGN
AT_FIRST.CMD
      1356**DCL      9058>>ASSIGN
AT_FIRST.CURRENT_COUNT
      1375**DCL      9074>>ASSIGN
AT_FIRST.IF_OFFSET
      1380**DCL      9226>>IF       9228>>ASSIGN   9229>>ASSIGN
AT_FIRST.NODE
      1370**DCL      9078>>IF       9123>>IF       9128>>ASSIGN   9129>>ASSIGN
AT_FIRST.TEXT_OFFSET
      1377**DCL      9059>>ASSIGN
AT_FIRST.TEXT_SIZE
      1378**DCL      9228>>ASSIGN   9233>>ASSIGN   9248>>ASSIGN   9258>>ASSIGN   9262>>ASSIGN
AT_FIRST.U.LS
      1362**DCL      9107>>DOCASE
AT_FIRST.UNUSED
      1359**DCL      1360--REDEF    1364--REDEF
AT_FIRST.USERNO
PL6.E3A0      #001=DDA$SHOW1 File=DDA$SHOW1.:E05TSI                              TUE 07/29/97 13:37 Page:62
      1364**DCL      9095>>IF       9099>>ASSIGN
AT_FIRST.XTERNAL
      1371**DCL      9172>>IF
B$DEF.NINFO.NODE_NAME
      1394**DCL      9128--ASSIGN
B$TREE_NODE.NAME$
      4913**DCL      9129>>ASSIGN
BB$
        37**DCL        48--IMP-PTR    50--IMP-PTR  9055<<ASSIGN   9061>>CALLBLT  9062<<ASSIGN   9062>>ASSIGN
      9064<>CALL     9086<>CALL     9089<>CALL     9091<>CALL     9096<>CALL     9098<>CALL     9100<>CALL
      9101<<ASSIGN   9101>>ASSIGN   9103<>CALL     9109<>CALL     9111<>CALL     9113<>CALL     9115<>CALL
      9118<>CALL     9120<>CALL     9122<>CALL     9126<>CALL     9131<>CALL     9132<>CALL     9136<>CALL
      9137<>CALL     9138<<ASSIGN   9138>>ASSIGN   9140<>CALL     9142<<ASSIGN   9142>>ASSIGN   9144<>CALL
      9157<>CALL     9159<>CALL     9161<>CALL     9162<>CALL     9164<>CALL     9166<>CALL     9168<>CALL
      9170<>CALL     9173<>CALL     9175<>CALL     9203<>CALL     9212<>CALL     9216<<ASSIGN   9216>>ASSIGN
      9221<>CALL     9222<>CALL     9223<<ASSIGN   9223>>ASSIGN   9235<>CALL     9266>>CALLBLT
BUF$
        36**DCL      9054<<ASSIGN   9055>>ASSIGN   9269<>CALL
BYCOUNT
        29**DCL      9071<<ASSIGN   9075>>IF       9075>>IF       9219>>IF       9222<>CALL
BYFLAG
        33**DCL      9076<<ASSIGN   9077<<ASSIGN   9078>>IF       9134>>IF
CHAR$ATT
        49**DCL      9249>>CALLBLT  9256>>CALLBLT  9266>>CALLBLT
CHAR$ID
        50**DCL      9061<<CALLBLT  9062--ASSIGN   9063--ASSIGN
CHAR$REM
        48**DCL      9266<<CALLBLT
CMD
        39**DCL      9058<<ASSIGN   9147>>IF       9147>>IF       9147>>IF       9147>>IF       9147>>IF
      9147>>IF       9154>>DOCASE   9181>>IF       9181>>IF       9210>>IF       9244>>IF       9244>>IF
      9244>>IF
CRCOUNT
        30**DCL      9074<<ASSIGN   9075>>IF       9075>>IF       9137<>CALL
DDE$ERROR
      7691**DCL-ENT  9178--CALL     9194--CALL
PL6.E3A0      #001=DDA$SHOW1 File=DDA$SHOW1.:E05TSI                              TUE 07/29/97 13:37 Page:63
DDQ$WRITED
      7692**DCL-ENT  9269--CALL
DDR$BINTXT
      7693**DCL-ENT  9100--CALL     9137--CALL     9222--CALL
DDR$MOVE
      7694**DCL-ENT  9064--CALL     9086--CALL     9089--CALL     9091--CALL     9096--CALL     9098--CALL
      9103--CALL     9109--CALL     9111--CALL     9113--CALL     9115--CALL     9118--CALL     9120--CALL
      9122--CALL     9126--CALL     9131--CALL     9132--CALL     9136--CALL     9140--CALL     9144--CALL
      9157--CALL     9159--CALL     9161--CALL     9162--CALL     9164--CALL     9166--CALL     9168--CALL
      9170--CALL     9173--CALL     9175--CALL     9221--CALL     9235--CALL
DDR$POSIT
      7695**DCL-ENT  9203--CALL     9212--CALL
DEFDIR$
      1388**DCL      1390--IMP-PTR  9128>>ASSIGN
DFA$FPRG
      7696**DCL-ENT  9201--CALL
DFA$KILL_FPRG
      7697**DCL-ENT  9209--CALL
DOADR
      9146**LABEL    9073--GOTO
D_XDELTA
      1387**DCL      9127>>IF
FPRG$CONTEXT.NEXT$
      1403**DCL      9189>>ASSIGN
FPRG$CONTEXT.RES
      1422**DCL      9188>>DOWHILE
GOT_ID
        42**DCL      9243<<ASSIGN   9251<<ASSIGN   9253>>IF
IC
        41**DCL      9183<<ASSIGN   9201<>CALL     9203<>CALL     9212<>CALL
INACTIVE
        28**DCL      9069<<ASSIGN   9070<<ASSIGN   9156>>IF       9160>>IF
NCARS
        32**DCL      9100<>CALL     9101>>ASSIGN   9102>>ASSIGN   9130<<ASSIGN   9131<>CALL     9137<>CALL
      9138>>ASSIGN   9139>>ASSIGN   9203<>CALL     9212<>CALL     9216>>ASSIGN   9217>>ASSIGN   9222<>CALL
      9223>>ASSIGN   9224>>ASSIGN   9267<<ASSIGN   9269<>CALL     9270>>ASSIGN
PL6.E3A0      #001=DDA$SHOW1 File=DDA$SHOW1.:E05TSI                              TUE 07/29/97 13:37 Page:64
NTXT$
        40**DCL      9128<<ASSIGN   9129<<ASSIGN   9130>>ASSIGN   9131>>CALL     9131>>CALL     9229<<ASSIGN
      9234<<ASSIGN   9239<<ASSIGN   9239--ASSIGN   9259<<ASSIGN   9263<<ASSIGN   9266>>CALLBLT
POS
        44**DCL      9249<<CALLBLT  9250>>IF       9255>>ASSIGN   9256<<CALLBLT  9257<<ASSIGN   9257>>ASSIGN
      9258>>ASSIGN   9259>>ASSIGN
PSHOW
        22**DCL        20--PROC     9049--IF       9051>>ASSIGN
REM
        38**DCL        48--IMP-SIZ  9056<<ASSIGN   9063<<ASSIGN   9063>>ASSIGN   9064<>CALL     9086<>CALL
      9089<>CALL     9091<>CALL     9096<>CALL     9098<>CALL     9102<<ASSIGN   9102>>ASSIGN   9103<>CALL
      9109<>CALL     9111<>CALL     9113<>CALL     9115<>CALL     9118<>CALL     9120<>CALL     9122<>CALL
      9126<>CALL     9131<>CALL     9132<>CALL     9136<>CALL     9139<<ASSIGN   9139>>ASSIGN   9140<>CALL
      9143<<ASSIGN   9143>>ASSIGN   9144<>CALL     9157<>CALL     9159<>CALL     9161<>CALL     9162<>CALL
      9164<>CALL     9166<>CALL     9168<>CALL     9170<>CALL     9173<>CALL     9175<>CALL     9203<>CALL
      9212<>CALL     9217<<ASSIGN   9217>>ASSIGN   9221<>CALL     9224<<ASSIGN   9224>>ASSIGN   9235<>CALL
      9266>>CALLBLT  9267>>ASSIGN
RETN
      9268**LABEL    9195--GOTO
SHOW
        26**DCL      9050<<ASSIGN   9051<<ASSIGN   9052<<ASSIGN   9072>>IF       9156>>IF       9158>>IF
      9160>>IF       9210>>IF       9211>>IF       9214>>IF       9268>>IF
SILENT
        27**DCL      9066<<ASSIGN   9067<<ASSIGN   9156>>IF       9158>>IF
SIZE
        23**DCL        20--PROC     9270<<ASSIGN
S_D.B$TREE$
      7044**DCL      9129>>ASSIGN
S_D.CURRENT_CHANNEL
      7324**DCL      7326--REDEF
S_D.CURRENT_FPRG_CONTEXT$
      6524**DCL      9198<<ASSIGN
S_D.DEBUGA
      6476**DCL      6478--REDEF
S_D.DEBUG_CMD
      6896**DCL      9093>>IF       9200>>IF
PL6.E3A0      #001=DDA$SHOW1 File=DDA$SHOW1.:E05TSI                              TUE 07/29/97 13:37 Page:65
S_D.EIS
      7434**DCL      7463--REDEF
S_D.ERROR
      6405**DCL      9177<<ASSIGN   9193<<ASSIGN
S_D.ERROR_HICHAR
      7018**DCL      9192<<ASSIGN
S_D.FIXCOM.CDF
      6840**DCL      9183>>ASSIGN
S_D.FIXCOM.FAI
      6842**DCL      9057>>ASSIGN
S_D.FIXCOM.FPRG
      6837**DCL      9078>>IF       9087>>IF       9184>>IF
S_D.FIXCOM.FPRG_RES
      6843**DCL      9089<>CALL     9188>>DOWHILE
S_D.FIXCOM.FPRG_RES_SIZE
      6844**DCL      9089<>CALL
S_D.FIXCOM.INACTIVE
      6833**DCL      9068>>IF       9078>>IF       9119>>IF
S_D.FIXCOM.NOT_IN
      6835**DCL      9078>>IF       9121>>IF
S_D.FIXCOM.SILENT
      6834**DCL      9065>>IF       9078>>IF       9117>>IF
S_D.FIXCOM.USER
      6838**DCL      9078>>IF       9093>>IF       9106>>IF       9123>>IF
S_D.FPRG
      6522**DCL      9208>>IF
S_D.FPRG_CONTEXT$
      6516**DCL      9187>>ASSIGN
S_D.HOST_MESSAGE_BUF_REMOTE
      7367**DCL      7368--REDEF    7382--REDEF
S_D.JDE
      6981**DCL      6982--REDEF
S_D.L$.VALUE
      6534**DCL      6540--REDEF    6548--REDEF    6551--REDEF    6554--REDEF    6557--REDEF
S_D.L$.VALUE.L
      6535**DCL      6536--REDEF    6537--REDEF
PL6.E3A0      #001=DDA$SHOW1 File=DDA$SHOW1.:E05TSI                              TUE 07/29/97 13:37 Page:66
S_D.L6_MESSAGE_BUF
      7388**DCL      7390--REDEF
S_D.OUTPUT
      7354**DCL      7356--REDEF    9054--ASSIGN   9056--ASSIGN   9267--ASSIGN
S_D.REMOTE_MSG.FNCC
      7373**DCL      7374--REDEF
S_D.REMOTE_MSG.STXC
      7369**DCL      7370--REDEF
S_D.REMOTE_MSG.SUBFNCC
      7377**DCL      7378--REDEF
S_D.REPORTING_ONCALL
      7489**DCL      9210<<ASSIGN   9213<<ASSIGN
S_D.SHOW
      7401**DCL      9199<<ASSIGN   9202<<ASSIGN
S_D.SHOW1
      6496**DCL      9057>>ASSIGN   9061>>CALLBLT  9065>>IF       9068>>IF       9078>>IF       9078>>IF
      9078>>IF       9078>>IF       9078>>IF       9087>>IF       9089>>CALL     9089>>CALL     9093>>IF
      9106>>IF       9117>>IF       9119>>IF       9121>>IF       9123>>IF       9183>>ASSIGN   9184>>IF
      9188>>DOWHILE  9192>>ASSIGN
S_D.SIM_UPDATE
      7491**DCL      9052>>IF       9211<<ASSIGN   9214<<ASSIGN   9268>>IF
S_D.SV
      6433**DCL      6454--REDEF
S_D.VARCOM$
      6845**DCL      9057>>ASSIGN
S_D$
      7685**DCL      6381--IMP-PTR  9052>>IF       9054>>ASSIGN   9057>>ASSIGN   9057>>ASSIGN   9057>>ASSIGN
      9061>>CALLBLT  9065>>IF       9065>>IF       9068>>IF       9068>>IF       9078>>IF       9078>>IF
      9078>>IF       9078>>IF       9078>>IF       9078>>IF       9078>>IF       9078>>IF       9078>>IF
      9078>>IF       9087>>IF       9087>>IF       9089>>CALL     9089>>CALL     9089>>CALL     9089>>CALL
      9093>>IF       9093>>IF       9093>>IF       9106>>IF       9106>>IF       9117>>IF       9117>>IF
      9119>>IF       9119>>IF       9121>>IF       9121>>IF       9123>>IF       9123>>IF       9129>>ASSIGN
      9177>>ASSIGN   9183>>ASSIGN   9183>>ASSIGN   9184>>IF       9184>>IF       9187>>ASSIGN   9188>>DOWHILE
      9188>>DOWHILE  9192>>ASSIGN   9192>>ASSIGN   9193>>ASSIGN   9198>>ASSIGN   9199>>ASSIGN   9200>>IF
      9202>>ASSIGN   9208>>IF       9210>>ASSIGN   9211>>ASSIGN   9213>>ASSIGN   9214>>ASSIGN   9268>>IF
TEMP
PL6.E3A0      #001=DDA$SHOW1 File=DDA$SHOW1.:E05TSI                              TUE 07/29/97 13:37 Page:67
        46**DCL      9099<<ASSIGN   9100<>CALL
TEXT$C.SIZE
      1384**DCL      1385--IMP-SIZ  9130>>ASSIGN   9131>>CALL
TEXT$C.TXT
      1385**DCL      9131<>CALL
TFPRG$
        43**DCL      9187<<ASSIGN   9188>>DOWHILE  9189<<ASSIGN   9189>>ASSIGN   9190>>IF       9198>>ASSIGN
TPOS
        45**DCL      9255<<ASSIGN   9256>>CALLBLT  9257>>ASSIGN
PL6.E3A0      #001=DDA$SHOW1 File=DDA$SHOW1.:E05TSI                              TUE 07/29/97 13:37 Page:68
              *** CROSS REFERENCE LISTING ***
    **     DENOTES     IDENTIFIER DEFINITION
    <<                 IDENTIFIER'S VALUE SET
    >>                 IDENTIFIER'S VALUE USED
    <>                 IDENTIFIER SET AND/OR USED
    --                 IDENTIFIER REFERENCED
PL6.E3A0      #001=DDA$SHOW1 File=DDA$SHOW1.:E05TSI                              TUE 07/29/97 13:37 Page:69
              MINI UREF LISTING

B$TREE_HEADER    4895**DCL
DDA$SHOW1      20**PROC
SDD$    8471**DCL
SDD_L6$    8473**DCL
ZITEM$    8472**DCL
ZITEM_L6$    8474**DCL
