VERSION E05

PL6.E3A0      #001=DDA$USER_DO File=DDA$USER_DO.:E05TSI                          TUE 07/29/97 13:41 Page:1
        1        1        /*M* DDA$USER_DO . */
        2        2        /*T***********************************************************/
        3        3        /*T*                                                         */
        4        4        /*T* Copyright (c) Bull HN Information Systems Inc., 1997    */
        5        5        /*T*                                                         */
        6        6        /*T***********************************************************/
        7        7        /*X* DMR,PLM=5,IND=5,CSU=3,EXM=0,ECU=3,MOC,DCI=5,CRT=5 */
        8        8        /*D* NAME:  DDA$USER_DO
        9        9             CALL:  CALL DDA$USER_DO ALTRET(NOGO)
       10       10             INPUT: S_D.DO$ POINTS TO THE 'DOO' FRAME CONTAINING THE
       11       11                    ID OF A STORED COMMAND.
       12       12             DESCRIPTION:  DDA$USER_DO DRIVES THE PERFORMANCE OF THE
       13       13                    ATTACHMENTS TO THE SPECIFIED STORED COMMAND.
       14       14                    THE 'DO' COMMAND CAN BE ISSUED DIRECTLY OR AS AN
       15       15                    ATTACHMENT.
       16       16                    1) DIRECT COMMAND.  DXA$FAULT CALLS DDA$DO WHICH
       17       17                       CALLS DDA$USER_DO WHICH CALLS DDA$DOATTACH.
       18       18                    2) ATTACHMENT.  DXA$FAULT CALLS DDA$DOATTACH
       19       19                       WHICH CALLS DDA$DO WHICH CALLS DDA$USER_DO WHICH CALLS
       20       20                       DDA$DOATTACH. NOTE THE RECURSION IN THIS CASE.
       21       21                       WHEN THE ATTACHMENT LIST OF THE TARGET STORED COMMAND
       22       22                       IS COMPLETE AND NO 'GO' COMMAND HAS BEEN ENCOUNTERED
       23       23                       IN THE PROCESS, THEN DDA$USER_DO REFRESHES THE POINTER
       24       24                       TO THE CURRENT ATTACHMENT LIST IN ORDER THAT
       25       25                       IT MAY ALSO RUN TO COMPLETION.
       26       26                    *******************
       27       27                    IN EITHER CASE, THE ALTRETURNS ARE SET SUCH THAT A 'GO'
       28       28                    COMMAND ENCOUNTERED IN THE 'DO ATTACHMENT LIST', WILL CAUSE
       29       29                    THE PROPER RETURNS TO DXA$FAULT AND ULTIMATELY TO USERGO.
       30       30                    */
       31       31        DDA$USER_DO: PROC ALTRET;
       32       32    1   DCL FATT$ PTR;
       33       33    1   DCL SAVE_DO$ PTR;
       34       34    1   DCL SAVE_FAULTCMD$ PTR;
       35       35        %INCLUDE XUH_MACRO_C;
       36      119        %INCLUDE DD_SD_M;
       37     1455        %S_D;
PL6.E3A0      #001=DDA$USER_DO File=DDA$USER_DO.:E05TSI                          TUE 07/29/97 13:41 Page:2
       38     2773        %INCLUDE DD$BASED;
       39     4076        %DOO;
       40     4091        %FIXCOM (NAME="F$XCM");
       41     4107        %AT_FIRST;
       42     4135        %INCLUDE DD_ERR_C;
       43     4532    1   DCL DDA$DOATTACH ENTRY ALTRET;
       44     4533    1   DCL DDE$ERROR ENTRY;
       45     4534
       46     4535    1        S_D.DO_NESTING_LEVEL = S_D.DO_NESTING_LEVEL + 1;
       47     4536                                 /* SAVE THE DO$ POINTER IN CASE 'DO' WAS ISSUED AS AN
       48     4537                                 ATTACHMENT */
       49     4538    1        SAVE_DO$ = S_D.DO$;
       50     4539                                 /* SAVE THE POINTER TO THE CURRENT STORED COMMAND */
       51     4540    1        SAVE_FAULTCMD$ = S_D.FAULTCMD$;
       52     4541                                 /* POINT TO THE STORED COMMAND SPECIFIED BY THE 'DO' */
       53     4542    1        S_D.FAULTCMD$ = PINCRW(ADDR(S_D.FIXCOM),SAVE_DO$->DOO.ID*SIZEW(F$XCM));
       54     4543                            /* DETERMINE THAT THE STORED COMMAND IS STILL AROUND. */
       55     4544    1        IF S_D.FAULTCMD$->F$XCM.CMD = 0 THEN GOTO CANT_DO;
       56     4545                                 /* INSURE THAT THE ID OF THE 'DO' IS NOT EQUAL TO THE
       57     4546                                 ID OF THE CURRENT STORED COMMAND */
       58     4547    1        IF S_D.IXFIX = SAVE_DO$->DOO.ID AND S_D.DO_NESTING_LEVEL > 10
       59     4548    1        THEN GOTO CANT_DO_SELF;
       60     4549                            /* POINT TO THE FIRST ATTACHMENT OF THAT STORED COMMAND */
       61     4550    1        FATT$ = PINCRW(S_D.VARCOM$,S_D.FAULTCMD$->F$XCM.FAI);
       62     4551                       /* MAKE SURE THAT THE STORED COMMAND HAS SOME ATTACHMENTS TO 'DO'
       63     4552                       IF NONE, SET DO$ TO NIL. ELSE, POINT DO$ TO THE
       64     4553                       STORED COMMAND FIRST ATTACHMENT TO BE 'DONE'.
       65     4554                       */
       66     4555    1        IF FATT$ -> AT_FIRST.ATT_OFFSET = 0
       67     4556    1        THEN S_D.DO$ = ADDR(NIL);
       68     4557    1        ELSE S_D.DO$ = FATT$;
       69     4558                                 /* NOW CALL DDA$DO_ATTACH TO PERFORM THE ATTACHMENTS */
       70     4559    1        CALL DDA$DOATTACH ALTRET(USERGO);
       71     4560                  /* A RETURN IMPLIES THAT NO 'GO' WAS ENCOUNTERED. THERE ARE EITHER
       72     4561                  MORE ATTACHMENTS TO PERFORM ON THE CURRENT STORED COMMAND...OR
       73     4562                  THE SCANNER ACCEPTS NEW INPUT.  THE POINTER TO THE
       74     4563                  ORIGINAL STORED COMMAND IS RESTORED (FAULTCMD).  THE
PL6.E3A0      #001=DDA$USER_DO File=DDA$USER_DO.:E05TSI                          TUE 07/29/97 13:41 Page:3
       75     4564                  THE POINTER TO THE 'DO' COMMAND IS RESTORED AND UPDATED
       76     4565                  TO POINT TO THE NEXT ATTACHMENT OF THE CURRENT COMMAND.
       77     4566                  */
       78     4567    1   SCANNER:
       79     4568    1        S_D.DO$ = SAVE_DO$;
       80     4569    1        S_D.FAULTCMD$ = SAVE_FAULTCMD$;
       81     4570    1        S_D.DO_NESTING_LEVEL = S_D.DO_NESTING_LEVEL - 1;
       82     4571    1        ALTRETURN;          /* PROCESS MORE COMMANDS (SCANNER OR ATTACHMENTS) */
       83     4572                       /* A 'GO' COMMAND HAS BEEN ENCOUNTERED IN AN ATTACHMENT LIST.
       84     4573                       RESTORE THE POINTER TO THE CURRENT STORED COMMAND (OR NIL)
       85     4574                       AND CALL DDA$GO. */
       86     4575    1   USERGO:
       87     4576    1        S_D.DO$    = ADDR(NIL);
       88     4577    1        S_D.FAULTCMD$   = SAVE_FAULTCMD$;
       89     4578    1        S_D.DO_NESTING_LEVEL = S_D.DO_NESTING_LEVEL - 1;
       90     4579    1        RETURN;                  /* GET BACK TO DXA$FAULT AND RETURN TO THE USER */
       91     4580                                 /* ID POINTS TO A NON_EXISTANT COMMAND...OR ID EQUALS
       92     4581                                 ID OF THE CURRENT STORED COMMAND */
       93     4582    1   CANT_DO:
       94     4583                                      /*   ID POINTS TO A NON-EXISTANT STORED COMMAND */
       95     4584    1        S_D.ERROR = E@CANTDO;              /* E@CANTDO */
       96     4585    1        CALL DDE$ERROR;
       97     4586    1        GOTO   SCANNER;
       98     4587    1   CANT_DO_SELF:
       99     4588                                                /* ID POINTS TO ID OF S_D.ENTRYCMD$ */
      100     4589    1        S_D.ERROR = E@CANTDO_SELF;         /* E@CANTDO_SELF */
      101     4590    1        CALL DDE$ERROR;
      102     4591    1        GOTO SCANNER;
      103     4592    1   END DDA$USER_DO;

PL6.E3A0      #001=DDA$USER_DO File=DDA$USER_DO.:E05TSI                          TUE 07/29/97 13:41 Page:4
--  Include file information  --

   DD_ERR_C.:E05TOU  is referenced.
   DD$BASED.:E05TOU  is referenced.
   DD_SD_M.:E05TOU  is referenced.
   XUH_MACRO_C.:E05TOU  is referenced.
   B$JIT_C.:E05TOU  was found in the system file and is never referenced.
   CP_6_C.:E05TOU  was found in the system file and is never referenced.
      No diagnostics issued in procedure DDA$USER_DO.

   Procedure DDA$USER_DO requires 72 words for executable code.
   Procedure DDA$USER_DO requires 6 words of local(AUTO) storage.

    No errors detected in file DDA$USER_DO.:E05TSI    .

PL6.E3A0      #001=DDA$USER_DO File=DDA$USER_DO.:E05TSI                          TUE 07/29/97 13:41 Page:5

 Object Unit name= DDA$USER_DO                                File name= DDA$USER_DO.:E05TOU
 UTS= JUL 29 '97 13:41:25.68 TUE                              Compiler= PL-6/E31         Sev=      00
 SharedLib= :SHARED_SYSTEM                                    Alt SharedLib=


    ****  Control sections  ****

 Sect   Type Bound  Init  Size OctSiz  Section name(segment info)
    0   Proc  even  none    72    110  DDA$USER_DO

    ****  Entry defs  ****

                              Check   Calling
                             calling  sequence
  Sect OctLoc Primary Altret sequence   type   Parms  Name
     0      0   yes    yes     yes      Std        0  DDA$USER_DO

  ****  Entry refs  ****

         Check        Calling
        calling       sequence
Altret sequence SRef   type   Args  Name
 yes     yes           Std       0 DDA$DOATTACH
         yes           Std       0 DDE$ERROR
                       nStd      0 X66_AUTO_0
                       Std       0 B_CONSPOOL_D
                       nStd      0 X66_AALT
                       nStd      0 X66_ARET

  ****  Data refs  ****

  Flags:  r = read only, s = secondary
Flgs Name                             Flgs Name                             Flgs Name
r    S_D$                                  B_VECTNIL
PL6.E3A0      #001=DDA$USER_DO File=DDA$USER_DO.:E05TSI                          TUE 07/29/97 13:41 Page:6


        1        1        /*M* DDA$USER_DO . */
        2        2        /*T***********************************************************/
        3        3        /*T*                                                         */
        4        4        /*T* Copyright (c) Bull HN Information Systems Inc., 1997    */
        5        5        /*T*                                                         */
        6        6        /*T***********************************************************/
        7        7        /*X* DMR,PLM=5,IND=5,CSU=3,EXM=0,ECU=3,MOC,DCI=5,CRT=5 */
        8        8        /*D* NAME:  DDA$USER_DO
        9        9             CALL:  CALL DDA$USER_DO ALTRET(NOGO)
       10       10             INPUT: S_D.DO$ POINTS TO THE 'DOO' FRAME CONTAINING THE
       11       11                    ID OF A STORED COMMAND.
       12       12             DESCRIPTION:  DDA$USER_DO DRIVES THE PERFORMANCE OF THE
       13       13                    ATTACHMENTS TO THE SPECIFIED STORED COMMAND.
       14       14                    THE 'DO' COMMAND CAN BE ISSUED DIRECTLY OR AS AN
       15       15                    ATTACHMENT.
       16       16                    1) DIRECT COMMAND.  DXA$FAULT CALLS DDA$DO WHICH
       17       17                       CALLS DDA$USER_DO WHICH CALLS DDA$DOATTACH.
       18       18                    2) ATTACHMENT.  DXA$FAULT CALLS DDA$DOATTACH
       19       19                       WHICH CALLS DDA$DO WHICH CALLS DDA$USER_DO WHICH CALLS
       20       20                       DDA$DOATTACH. NOTE THE RECURSION IN THIS CASE.
       21       21                       WHEN THE ATTACHMENT LIST OF THE TARGET STORED COMMAND
       22       22                       IS COMPLETE AND NO 'GO' COMMAND HAS BEEN ENCOUNTERED
       23       23                       IN THE PROCESS, THEN DDA$USER_DO REFRESHES THE POINTER
       24       24                       TO THE CURRENT ATTACHMENT LIST IN ORDER THAT
       25       25                       IT MAY ALSO RUN TO COMPLETION.
       26       26                    *******************
       27       27                    IN EITHER CASE, THE ALTRETURNS ARE SET SUCH THAT A 'GO'
       28       28                    COMMAND ENCOUNTERED IN THE 'DO ATTACHMENT LIST', WILL CAUSE
       29       29                    THE PROPER RETURNS TO DXA$FAULT AND ULTIMATELY TO USERGO.
       30       30                    */
       31       31        DDA$USER_DO: PROC ALTRET;

     31  0 000000   000000 700200 xent  DDA$USER_DO  TSX0  ! X66_AUTO_0
         0 000001   000006 000000                    ZERO    6,0

       32       32    1   DCL FATT$ PTR;
PL6.E3A0      #001=DDA$USER_DO File=DDA$USER_DO.:E05TSI                          TUE 07/29/97 13:41 Page:7
       33       33    1   DCL SAVE_DO$ PTR;
       34       34    1   DCL SAVE_FAULTCMD$ PTR;
       35       35        %INCLUDE XUH_MACRO_C;
       36      119        %INCLUDE DD_SD_M;
       37     1455        %S_D;
       38     2773        %INCLUDE DD$BASED;
       39     4076        %DOO;
       40     4091        %FIXCOM (NAME="F$XCM");
       41     4107        %AT_FIRST;
       42     4135        %INCLUDE DD_ERR_C;
       43     4532    1   DCL DDA$DOATTACH ENTRY ALTRET;
       44     4533    1   DCL DDE$ERROR ENTRY;
       45     4534
       46     4535    1        S_D.DO_NESTING_LEVEL = S_D.DO_NESTING_LEVEL + 1;

   4535  0 000002   000000 470400 xsym               LDP0    S_D$
         0 000003   004677 235100                    LDA     2495,,PR0
         0 000004   000001 035007                    ADLA    1,DL
         0 000005   004677 755100                    STA     2495,,PR0

       47     4536                                 /* SAVE THE DO$ POINTER IN CASE 'DO' WAS ISSUED AS AN
       48     4537                                 ATTACHMENT */
       49     4538    1        SAVE_DO$ = S_D.DO$;

   4538  0 000006   000031 236100                    LDQ     25,,PR0
         0 000007   200004 756100                    STQ     SAVE_DO$,,AUTO

       50     4539                                 /* SAVE THE POINTER TO THE CURRENT STORED COMMAND */
       51     4540    1        SAVE_FAULTCMD$ = S_D.FAULTCMD$;

   4540  0 000010   000004 236100                    LDQ     4,,PR0
         0 000011   200005 756100                    STQ     SAVE_FAULTCMD$,,AUTO

       52     4541                                 /* POINT TO THE STORED COMMAND SPECIFIED BY THE 'DO' */
       53     4542    1        S_D.FAULTCMD$ = PINCRW(ADDR(S_D.FIXCOM),SAVE_DO$->DOO.ID*SIZEW(F$XCM));

   4542  0 000012   200004 471500                    LDP1    SAVE_DO$,,AUTO
PL6.E3A0      #001=DDA$USER_DO File=DDA$USER_DO.:E05TSI                          TUE 07/29/97 13:41 Page:8
         0 000013   100001 220100                    LDX0    1,,PR1
         0 000014   000000 636010                    EAQ     0,X0
         0 000015   000006 402007                    MPY     6,DL
         0 000016   001212 036003                    ADLQ    650,DU
         0 000017   000000 036000 xsym               ADLQ    S_D$
         0 000020   000004 756100                    STQ     4,,PR0

       54     4543                            /* DETERMINE THAT THE STORED COMMAND IS STILL AROUND. */
       55     4544    1        IF S_D.FAULTCMD$->F$XCM.CMD = 0 THEN GOTO CANT_DO;

   4544  0 000021   000004 473500                    LDP3    4,,PR0
         0 000022   300000 236100                    LDQ     0,,PR3
         0 000023   777000 316003                    CANQ    -512,DU
         0 000024   000074 600000 0                  TZE     CANT_DO

       56     4545                                 /* INSURE THAT THE ID OF THE 'DO' IS NOT EQUAL TO THE
       57     4546                                 ID OF THE CURRENT STORED COMMAND */
       58     4547    1        IF S_D.IXFIX = SAVE_DO$->DOO.ID AND S_D.DO_NESTING_LEVEL > 10

   4547  0 000025   100001 236100                    LDQ     1,,PR1
         0 000026   000022 772000                    QRL     18
         0 000027   000015 116100                    CMPQ    13,,PR0
         0 000030   000034 601000 0                  TNZ     s:4550
         0 000031   004677 235100                    LDA     2495,,PR0
         0 000032   000013 115007                    CMPA    11,DL
         0 000033   000102 603000 0                  TRC     CANT_DO_SELF

       59     4548    1        THEN GOTO CANT_DO_SELF;
       60     4549                            /* POINT TO THE FIRST ATTACHMENT OF THAT STORED COMMAND */
       61     4550    1        FATT$ = PINCRW(S_D.VARCOM$,S_D.FAULTCMD$->F$XCM.FAI);

   4550  0 000034   300002 720100                    LXL0    2,,PR3
         0 000035   004622 474500                    LDP4    2450,,PR0
         0 000036   400000 635510                    EPPR5   0,X0,PR4
         0 000037   200003 455500                    STP5    FATT$,,AUTO

       62     4551                       /* MAKE SURE THAT THE STORED COMMAND HAS SOME ATTACHMENTS TO 'DO'
PL6.E3A0      #001=DDA$USER_DO File=DDA$USER_DO.:E05TSI                          TUE 07/29/97 13:41 Page:9
       63     4552                       IF NONE, SET DO$ TO NIL. ELSE, POINT DO$ TO THE
       64     4553                       STORED COMMAND FIRST ATTACHMENT TO BE 'DONE'.
       65     4554                       */
       66     4555    1        IF FATT$ -> AT_FIRST.ATT_OFFSET = 0

   4555  0 000040   500007 221100                    LDX1    7,,PR5
         0 000041   000045 601000 0                  TNZ     s:4557

       67     4556    1        THEN S_D.DO$ = ADDR(NIL);

   4556  0 000042   000001 236000 xsym               LDQ     B_VECTNIL+1
         0 000043   000031 756100                    STQ     25,,PR0
         0 000044   000047 710000 0                  TRA     s:4559

       68     4557    1        ELSE S_D.DO$ = FATT$;

   4557  0 000045   200003 236100                    LDQ     FATT$,,AUTO
         0 000046   000031 756100                    STQ     25,,PR0

       69     4558                                 /* NOW CALL DDA$DO_ATTACH TO PERFORM THE ATTACHMENTS */
       70     4559    1        CALL DDA$DOATTACH ALTRET(USERGO);

   4559  0 000047   000002 631400 xsym               EPPR1   B_VECTNIL+2
         0 000050   000000 701000 xent               TSX1    DDA$DOATTACH
         0 000051   000063 702000 0                  TSX2    USERGO

       71     4560                  /* A RETURN IMPLIES THAT NO 'GO' WAS ENCOUNTERED. THERE ARE EITHER
       72     4561                  MORE ATTACHMENTS TO PERFORM ON THE CURRENT STORED COMMAND...OR
       73     4562                  THE SCANNER ACCEPTS NEW INPUT.  THE POINTER TO THE
       74     4563                  ORIGINAL STORED COMMAND IS RESTORED (FAULTCMD).  THE
       75     4564                  THE POINTER TO THE 'DO' COMMAND IS RESTORED AND UPDATED
       76     4565                  TO POINT TO THE NEXT ATTACHMENT OF THE CURRENT COMMAND.
       77     4566                  */
       78     4567    1   SCANNER:
       79     4568    1        S_D.DO$ = SAVE_DO$;

   4568  0 000052   200004 236100       SCANNER      LDQ     SAVE_DO$,,AUTO
PL6.E3A0      #001=DDA$USER_DO File=DDA$USER_DO.:E05TSI                          TUE 07/29/97 13:41 Page:10
         0 000053   000000 470400 xsym               LDP0    S_D$
         0 000054   000031 756100                    STQ     25,,PR0

       80     4569    1        S_D.FAULTCMD$ = SAVE_FAULTCMD$;

   4569  0 000055   200005 236100                    LDQ     SAVE_FAULTCMD$,,AUTO
         0 000056   000004 756100                    STQ     4,,PR0

       81     4570    1        S_D.DO_NESTING_LEVEL = S_D.DO_NESTING_LEVEL - 1;

   4570  0 000057   004677 235100                    LDA     2495,,PR0
         0 000060   000001 135007                    SBLA    1,DL
         0 000061   004677 755100                    STA     2495,,PR0

       82     4571    1        ALTRETURN;          /* PROCESS MORE COMMANDS (SCANNER OR ATTACHMENTS) */

   4571  0 000062   000000 702200 xent               TSX2  ! X66_AALT

       83     4572                       /* A 'GO' COMMAND HAS BEEN ENCOUNTERED IN AN ATTACHMENT LIST.
       84     4573                       RESTORE THE POINTER TO THE CURRENT STORED COMMAND (OR NIL)
       85     4574                       AND CALL DDA$GO. */
       86     4575    1   USERGO:
       87     4576    1        S_D.DO$    = ADDR(NIL);

   4576  0 000063   000001 236000 xsym  USERGO       LDQ     B_VECTNIL+1
         0 000064   000000 470400 xsym               LDP0    S_D$
         0 000065   000031 756100                    STQ     25,,PR0

       88     4577    1        S_D.FAULTCMD$   = SAVE_FAULTCMD$;

   4577  0 000066   200005 236100                    LDQ     SAVE_FAULTCMD$,,AUTO
         0 000067   000004 756100                    STQ     4,,PR0

       89     4578    1        S_D.DO_NESTING_LEVEL = S_D.DO_NESTING_LEVEL - 1;

   4578  0 000070   004677 235100                    LDA     2495,,PR0
         0 000071   000001 135007                    SBLA    1,DL
PL6.E3A0      #001=DDA$USER_DO File=DDA$USER_DO.:E05TSI                          TUE 07/29/97 13:41 Page:11
         0 000072   004677 755100                    STA     2495,,PR0

       90     4579    1        RETURN;                  /* GET BACK TO DXA$FAULT AND RETURN TO THE USER */

   4579  0 000073   000000 702200 xent               TSX2  ! X66_ARET

       91     4580                                 /* ID POINTS TO A NON_EXISTANT COMMAND...OR ID EQUALS
       92     4581                                 ID OF THE CURRENT STORED COMMAND */
       93     4582    1   CANT_DO:
       94     4583                                      /*   ID POINTS TO A NON-EXISTANT STORED COMMAND */
       95     4584    1        S_D.ERROR = E@CANTDO;              /* E@CANTDO */

   4584  0 000074   000211 235007       CANT_DO      LDA     137,DL
         0 000075   000013 755100                    STA     11,,PR0

       96     4585    1        CALL DDE$ERROR;

   4585  0 000076   000002 631400 xsym               EPPR1   B_VECTNIL+2
         0 000077   000000 701000 xent               TSX1    DDE$ERROR
         0 000100   000000 011000                    NOP     0

       97     4586    1        GOTO   SCANNER;

   4586  0 000101   000052 710000 0                  TRA     SCANNER

       98     4587    1   CANT_DO_SELF:
       99     4588                                                /* ID POINTS TO ID OF S_D.ENTRYCMD$ */
      100     4589    1        S_D.ERROR = E@CANTDO_SELF;         /* E@CANTDO_SELF */

   4589  0 000102   000347 235007       CANT_DO_SELF LDA     231,DL
         0 000103   000013 755100                    STA     11,,PR0

      101     4590    1        CALL DDE$ERROR;

   4590  0 000104   000002 631400 xsym               EPPR1   B_VECTNIL+2
         0 000105   000000 701000 xent               TSX1    DDE$ERROR
         0 000106   000000 011000                    NOP     0
PL6.E3A0      #001=DDA$USER_DO File=DDA$USER_DO.:E05TSI                          TUE 07/29/97 13:41 Page:12

      102     4591    1        GOTO SCANNER;

   4591  0 000107   000052 710000 0                  TRA     SCANNER
      103     4592    1   END DDA$USER_DO;

PL6.E3A0      #001=DDA$USER_DO File=DDA$USER_DO.:E05TSI                          TUE 07/29/97 13:41 Page:13
--  Include file information  --

   DD_ERR_C.:E05TOU  is referenced.
   DD$BASED.:E05TOU  is referenced.
   DD_SD_M.:E05TOU  is referenced.
   XUH_MACRO_C.:E05TOU  is referenced.
   B$JIT_C.:E05TOU  was found in the system file and is never referenced.
   CP_6_C.:E05TOU  was found in the system file and is never referenced.
      No diagnostics issued in procedure DDA$USER_DO.

   Procedure DDA$USER_DO requires 72 words for executable code.
   Procedure DDA$USER_DO requires 6 words of local(AUTO) storage.

    No errors detected in file DDA$USER_DO.:E05TSI    .
PL6.E3A0      #001=DDA$USER_DO File=DDA$USER_DO.:E05TSI                          TUE 07/29/97 13:41 Page:14
          *** CROSS REFERENCE LISTING ***
**     DENOTES     IDENTIFIER DEFINITION
<<                 IDENTIFIER'S VALUE SET
>>                 IDENTIFIER'S VALUE USED
<>                 IDENTIFIER SET AND/OR USED
--                 IDENTIFIER REFERENCED
PL6.E3A0      #001=DDA$USER_DO File=DDA$USER_DO.:E05TSI                          TUE 07/29/97 13:41 Page:15
          MINI XREF LISTING

AT_FIRST.ATT_OFFSET
      4132**DCL      4555>>IF
AT_FIRST.UNUSED
      4112**DCL      4113--REDEF    4117--REDEF
CANT_DO
      4584**LABEL    4544--GOTO
CANT_DO_SELF
      4589**LABEL    4548--GOTO
DDA$DOATTACH
      4532**DCL-ENT  4559--CALL
DDE$ERROR
      4533**DCL-ENT  4585--CALL     4590--CALL
DOO.ID
      4081**DCL      4542>>ASSIGN   4547>>IF
F$XCM
      4092**DCL      4542--ASSIGN
F$XCM.CMD
      4093**DCL      4544>>IF
F$XCM.FAI
      4103**DCL      4550>>ASSIGN
FATT$
        32**DCL      4550<<ASSIGN   4555>>IF       4557>>ASSIGN
SAVE_DO$
        33**DCL      4538<<ASSIGN   4542>>ASSIGN   4547>>IF       4568>>ASSIGN
SAVE_FAULTCMD$
        34**DCL      4540<<ASSIGN   4569>>ASSIGN   4577>>ASSIGN
SCANNER
      4568**LABEL    4586--GOTO     4591--GOTO
S_D.CURRENT_CHANNEL
      2407**DCL      2409--REDEF
S_D.DEBUGA
      1559**DCL      1561--REDEF
PL6.E3A0      #001=DDA$USER_DO File=DDA$USER_DO.:E05TSI                          TUE 07/29/97 13:41 Page:16
S_D.DO$
      1510**DCL      4538>>ASSIGN   4556<<ASSIGN   4557<<ASSIGN   4568<<ASSIGN   4576<<ASSIGN
S_D.DO_NESTING_LEVEL
      2002**DCL      4535<<ASSIGN   4535>>ASSIGN   4547>>IF       4570<<ASSIGN   4570>>ASSIGN   4578<<ASSIGN
      4578>>ASSIGN
S_D.EIS
      2517**DCL      2546--REDEF
S_D.ERROR
      1488**DCL      4584<<ASSIGN   4589<<ASSIGN
S_D.FAULTCMD$
      1474**DCL      4540>>ASSIGN   4542<<ASSIGN   4544>>IF       4550>>ASSIGN   4569<<ASSIGN   4577<<ASSIGN
S_D.FIXCOM
      1913**DCL      4542--ASSIGN
S_D.HOST_MESSAGE_BUF_REMOTE
      2450**DCL      2451--REDEF    2465--REDEF
S_D.IXFIX
      1492**DCL      4547>>IF
S_D.JDE
      2064**DCL      2065--REDEF
S_D.L$.VALUE
      1617**DCL      1623--REDEF    1631--REDEF    1634--REDEF    1637--REDEF    1640--REDEF
S_D.L$.VALUE.L
      1618**DCL      1619--REDEF    1620--REDEF
S_D.L6_MESSAGE_BUF
      2471**DCL      2473--REDEF
S_D.OUTPUT
      2437**DCL      2439--REDEF
S_D.REMOTE_MSG.FNCC
      2456**DCL      2457--REDEF
S_D.REMOTE_MSG.STXC
      2452**DCL      2453--REDEF
S_D.REMOTE_MSG.SUBFNCC
      2460**DCL      2461--REDEF
S_D.SV
      1516**DCL      1537--REDEF
S_D.VARCOM$
PL6.E3A0      #001=DDA$USER_DO File=DDA$USER_DO.:E05TSI                          TUE 07/29/97 13:41 Page:17
      1928**DCL      4550>>ASSIGN
S_D$
      2768**DCL      1464--IMP-PTR  4535>>ASSIGN   4535>>ASSIGN   4538>>ASSIGN   4540>>ASSIGN   4542>>ASSIGN
      4542>>ASSIGN   4544>>IF       4547>>IF       4547>>IF       4550>>ASSIGN   4550>>ASSIGN   4556>>ASSIGN
      4557>>ASSIGN   4568>>ASSIGN   4569>>ASSIGN   4570>>ASSIGN   4570>>ASSIGN   4576>>ASSIGN   4577>>ASSIGN
      4578>>ASSIGN   4578>>ASSIGN   4584>>ASSIGN   4589>>ASSIGN
USERGO
      4576**LABEL    4559--CALLALT
PL6.E3A0      #001=DDA$USER_DO File=DDA$USER_DO.:E05TSI                          TUE 07/29/97 13:41 Page:18
              *** CROSS REFERENCE LISTING ***
    **     DENOTES     IDENTIFIER DEFINITION
    <<                 IDENTIFIER'S VALUE SET
    >>                 IDENTIFIER'S VALUE USED
    <>                 IDENTIFIER SET AND/OR USED
    --                 IDENTIFIER REFERENCED
PL6.E3A0      #001=DDA$USER_DO File=DDA$USER_DO.:E05TSI                          TUE 07/29/97 13:41 Page:19
              MINI UREF LISTING

DDA$USER_DO      31**PROC
