VERSION E05

PL6.E3A0      #001=DDA$UTSTIME File=DDA$UTSTIME.:E05TSI                          TUE 07/29/97 13:41 Page:1
        1        1        /*M* DDA$UTSTIME - UTS TO DATE AND DATE TO UTS CONVERSION ROUTINES */
        2        2        /*T***********************************************************/
        3        3        /*T*                                                         */
        4        4        /*T* Copyright (c) Bull HN Information Systems Inc., 1997    */
        5        5        /*T*                                                         */
        6        6        /*T***********************************************************/
        7        7        /*X* CCC,DMR,PLM=5,IND=5,CSU=3,EXM=0,ECU=3,MOC,DCI=5,CRT=5 */
        8        8        /*P* NAME: DDA$UTSTIME.
        9        9             DESCRIPTION:  THIS PROCEDURE CONVERTS AN INPUT UTS INTO DATE AND
       10       10                  TIME TEXT OUTPUT.  THE ALTRETURN IS NEVER TAKEN.
       11       11                                     */
       12       12        DDA$UTSTIME: PROC(UTIME,TIME) ALTRET;
       13       13    1   DCL UTIME UBIN(36);                     /* The input uts */
       14       14    1   DCL TIME CHAR(20) CALIGNED;        /* The output uts HH:MM:SS.TT mm/dd/yy */
       15       15    1   DCL 1 OTIME REDEF TIME CALIGNED,
       16       16    1         2 TIME_,
       17       17    1           3 HH CHAR(2) CALIGNED,
       18       18    1           3 *  CHAR(1) CALIGNED,
       19       19    1           3 MM CHAR(2) CALIGNED,
       20       20    1           3 *  CHAR(1) CALIGNED,
       21       21    1           3 SS CHAR(2) CALIGNED,
       22       22    1           3 *  CHAR(1) CALIGNED,
       23       23    1           3 TT CHAR(2) CALIGNED,
       24       24    1         2 *    CHAR(1) CALIGNED,
       25       25    1         2 DATE_,
       26       26    1           3 MM CHAR(2) CALIGNED,
       27       27    1           3 *  CHAR(1) CALIGNED,
       28       28    1           3 DD CHAR(2) CALIGNED,
       29       29    1           3 *  CHAR(1) CALIGNED,
       30       30    1           3 YY CHAR(2) CALIGNED;
       31       31        /**/
       32       32    1   DCL UTS UBIN;                           /* A "HOST UTS" value */
       33       33    1   DCL UTS_IN_SECS UBIN;                   /* Uts truncated to seconds */
       34       34    1   DCL TICS SBIN;                     /* Difference between UTS_IN_SECS & uts */
       35       35    1   DCL SECS SBIN;                          /* Number of seconds in the uts */
       36       36    1   DCL MINS SBIN;                          /* Number of minutes in the uts */
       37       37    1   DCL HRS SBIN;                           /* Number of hours in the uts */
PL6.E3A0      #001=DDA$UTSTIME File=DDA$UTSTIME.:E05TSI                          TUE 07/29/97 13:41 Page:2
       38       38    1   DCL DAYS SBIN;                          /* Number of days in the uts */
       39       39    1   DCL MONS SBIN;                          /* Number of months in the uts */
       40       40    1   DCL YRS SBIN;                           /* Number of years in the uts */
       41       41    1   DCL END_DAY$ PTR;                       /* Total days per month for year */
       42       42    1   DCL END_DAY(0:12) UBIN BASED (END_DAY$);
       43       43
       44       44    1   DCL TDAYS(0:12) CONSTANT UBIN INIT
       45       45    1                  (0, 31, 59, 90,120,151,181,212,243,273,304,334,365);
       46       46    1   DCL LDAYS(0:12) CONSTANT UBIN INIT
       47       47    1                  (0, 31, 60, 91,121,152,182,213,244,274,305,335,366);
       48       48    1   DCL YDAY$(0:3) CONSTANT PTR INIT
       49       49    1                  (ADDR(TDAYS),ADDR(TDAYS),ADDR(LDAYS),ADDR(TDAYS));
       50       50
       51       51        %INCLUDE XUD_UTS_M;
       52      133        %XUD$UTS_ENTRIES;
       53      165        %XUD_UTS_EQU;
       54      176        %EJECT;
PL6.E3A0      #001=DDA$UTSTIME File=DDA$UTSTIME.:E05TSI                          TUE 07/29/97 13:41 Page:3
       55      177    1        UTS = UTIME;
       56      178
       57      179                            /* convert uts into seconds, and a centi-second remainder */
       58      180
       59      181    1        CALL XUD$UTS_DIFF_SEC (SECS, UTS, 0);
       60      182    1        CALL XUD$UTS_ADJ_25TH (UTS_IN_SECS, 0, SECS * %UTS_25TH_SEC#);
       61      183    1        CALL XUD$UTS_DIFF (TICS, UTS, UTS_IN_SECS);
       62      184
       63      185                                           /* fill in the date and time return values */
       64      186
       65      187    1        TIME = '00:00:00.00 00/00/00';
       66      188
       67      189        /*   Tics = tics;  */                   /* Translate uts into units to print */
       68      190        /*   Secs = secs;  */
       69      191    1        MINS = SECS / 60;
       70      192    1        HRS  = MINS / 60;
       71      193    1        DAYS = HRS / 24;
       72      194        /*   Yrs  = ((days since start first leap year before uts origin) /
       73      195                      365.25) - (uts origin year - first leap year year) */
       74      196    1        YRS = (((DAYS + 731) * 4) / 1461) - 2;
       75      197    1        END_DAY$ = YDAY$(MOD(YRS, 4));
       76      198        /*   Days = days since start of current year */
       77      199    1        DAYS = DAYS - ((((YRS + 1) * 1461) / 4) - 365);
       78      200        /*   Months approx = days / 31 */
       79      201    1        MONS = (DAYS / 31) + 1;
       80      202        /*   see if the month is correct, else adjust it */
       81      203    1        IF (DAYS >= END_DAY(MONS)) THEN MONS = MONS + 1;
       82      204        /*   Days = days since start of month */
       83      205    1        DAYS = DAYS - END_DAY(MONS-1) + 1;
       84      206
       85      207    1        CALL BINCHAR (OTIME.TIME_.TT, TICS);
       86      208    1        CALL BINCHAR (OTIME.TIME_.SS, MOD (SECS, 60));
       87      209    1        CALL BINCHAR (OTIME.TIME_.MM, MOD (MINS, 60));
       88      210    1        CALL BINCHAR (OTIME.TIME_.HH, MOD (HRS, 24));
       89      211    1        CALL BINCHAR (OTIME.DATE_.DD, DAYS);
       90      212    1        CALL BINCHAR (OTIME.DATE_.MM, MONS);
       91      213    1        CALL BINCHAR (OTIME.DATE_.YY, MOD(YRS+78, 100));
PL6.E3A0      #001=DDA$UTSTIME File=DDA$UTSTIME.:E05TSI                          TUE 07/29/97 13:41 Page:4
       92      214    1   END DDA$UTSTIME;

PL6.E3A0      #001=DDA$UTSTIME File=DDA$UTSTIME.:E05TSI                          TUE 07/29/97 13:41 Page:5
--  Include file information  --

   XUD_UTS_M.:E05TOU  is referenced.
   B$JIT_C.:E05TOU  was found in the system file and is never referenced.
   CP_6_C.:E05TOU  was found in the system file and is never referenced.
      No diagnostics issued in procedure DDA$UTSTIME.

   Procedure DDA$UTSTIME requires 115 words for executable code.
   Procedure DDA$UTSTIME requires 20 words of local(AUTO) storage.

    No errors detected in file DDA$UTSTIME.:E05TSI    .

PL6.E3A0      #001=DDA$UTSTIME File=DDA$UTSTIME.:E05TSI                          TUE 07/29/97 13:41 Page:6

 Object Unit name= DDA$UTSTIME                                File name= DDA$UTSTIME.:E05TOU
 UTS= JUL 29 '97 13:41:55.60 TUE                              Compiler= PL-6/E31         Sev=      00
 SharedLib= :SHARED_SYSTEM                                    Alt SharedLib=


    ****  Control sections  ****

 Sect   Type Bound  Init  Size OctSiz  Section name(segment info)
    0  RoData even  UTS     35     43  DDA$UTSTIME
    1   Proc  even  none   115    163  DDA$UTSTIME
    2  RoData even  none     1      1  DDA$UTSTIME

    ****  Entry defs  ****

                              Check   Calling
                             calling  sequence
  Sect OctLoc Primary Altret sequence   type   Parms  Name
     1      0   yes    yes     yes      Std        2  DDA$UTSTIME

  ****  Entry refs  ****

         Check        Calling
        calling       sequence
Altret sequence SRef   type   Args  Name
 yes     yes           Std       3 XUD$UTS_DIFF_SEC
 yes     yes           Std       3 XUD$UTS_ADJ_25TH
 yes     yes           Std       3 XUD$UTS_DIFF
                       nStd      0 X66_AUTO_2
                       Std       0 B_CONSPOOL_D
                       nStd      0 X66_ARET

  ****  Data refs  ****

  Flags:  r = read only, s = secondary
Flgs Name                             Flgs Name                             Flgs Name
     B_VECTNIL
PL6.E3A0      #001=DDA$UTSTIME File=DDA$UTSTIME.:E05TSI                          TUE 07/29/97 13:41 Page:7

  ****  Segment refs  ****

  Flags:  r = read only, s = secondary
Flgs Name                             Flgs Name                             Flgs Name
     ISSID
PL6.E3A0      #001=DDA$UTSTIME File=DDA$UTSTIME.:E05TSI                          TUE 07/29/97 13:41 Page:8


        1        1        /*M* DDA$UTSTIME - UTS TO DATE AND DATE TO UTS CONVERSION ROUTINES */
        2        2        /*T***********************************************************/
        3        3        /*T*                                                         */
        4        4        /*T* Copyright (c) Bull HN Information Systems Inc., 1997    */
        5        5        /*T*                                                         */
        6        6        /*T***********************************************************/
        7        7        /*X* CCC,DMR,PLM=5,IND=5,CSU=3,EXM=0,ECU=3,MOC,DCI=5,CRT=5 */
        8        8        /*P* NAME: DDA$UTSTIME.
        9        9             DESCRIPTION:  THIS PROCEDURE CONVERTS AN INPUT UTS INTO DATE AND
       10       10                  TIME TEXT OUTPUT.  THE ALTRETURN IS NEVER TAKEN.
       11       11                                     */
       12       12        DDA$UTSTIME: PROC(UTIME,TIME) ALTRET;

     12  1 000000   000000 700200 xent  DDA$UTSTIME  TSX0  ! X66_AUTO_2
         1 000001   000024 000002                    ZERO    20,2

       13       13    1   DCL UTIME UBIN(36);                     /* The input uts */
       14       14    1   DCL TIME CHAR(20) CALIGNED;        /* The output uts HH:MM:SS.TT mm/dd/yy */
       15       15    1   DCL 1 OTIME REDEF TIME CALIGNED,
       16       16    1         2 TIME_,
       17       17    1           3 HH CHAR(2) CALIGNED,
       18       18    1           3 *  CHAR(1) CALIGNED,
       19       19    1           3 MM CHAR(2) CALIGNED,
       20       20    1           3 *  CHAR(1) CALIGNED,
       21       21    1           3 SS CHAR(2) CALIGNED,
       22       22    1           3 *  CHAR(1) CALIGNED,
       23       23    1           3 TT CHAR(2) CALIGNED,
       24       24    1         2 *    CHAR(1) CALIGNED,
       25       25    1         2 DATE_,
       26       26    1           3 MM CHAR(2) CALIGNED,
       27       27    1           3 *  CHAR(1) CALIGNED,
       28       28    1           3 DD CHAR(2) CALIGNED,
       29       29    1           3 *  CHAR(1) CALIGNED,
       30       30    1           3 YY CHAR(2) CALIGNED;
       31       31        /**/
       32       32    1   DCL UTS UBIN;                           /* A "HOST UTS" value */
PL6.E3A0      #001=DDA$UTSTIME File=DDA$UTSTIME.:E05TSI                          TUE 07/29/97 13:41 Page:9
       33       33    1   DCL UTS_IN_SECS UBIN;                   /* Uts truncated to seconds */
       34       34    1   DCL TICS SBIN;                     /* Difference between UTS_IN_SECS & uts */
       35       35    1   DCL SECS SBIN;                          /* Number of seconds in the uts */
       36       36    1   DCL MINS SBIN;                          /* Number of minutes in the uts */
       37       37    1   DCL HRS SBIN;                           /* Number of hours in the uts */
       38       38    1   DCL DAYS SBIN;                          /* Number of days in the uts */
       39       39    1   DCL MONS SBIN;                          /* Number of months in the uts */
       40       40    1   DCL YRS SBIN;                           /* Number of years in the uts */
       41       41    1   DCL END_DAY$ PTR;                       /* Total days per month for year */
       42       42    1   DCL END_DAY(0:12) UBIN BASED (END_DAY$);
       43       43
       44       44    1   DCL TDAYS(0:12) CONSTANT UBIN INIT
       45       45    1                  (0, 31, 59, 90,120,151,181,212,243,273,304,334,365);
       46       46    1   DCL LDAYS(0:12) CONSTANT UBIN INIT
       47       47    1                  (0, 31, 60, 91,121,152,182,213,244,274,305,335,366);
       48       48    1   DCL YDAY$(0:3) CONSTANT PTR INIT
       49       49    1                  (ADDR(TDAYS),ADDR(TDAYS),ADDR(LDAYS),ADDR(TDAYS));
       50       50
       51       51        %INCLUDE XUD_UTS_M;
       52      133        %XUD$UTS_ENTRIES;
       53      165        %XUD_UTS_EQU;
       54      176        %EJECT;
PL6.E3A0      #001=DDA$UTSTIME File=DDA$UTSTIME.:E05TSI                          TUE 07/29/97 13:41 Page:10
       55      177    1        UTS = UTIME;

    177  1 000002   200003 470500                    LDP0    @UTIME,,AUTO
         1 000003   000000 235100                    LDA     0,,PR0
         1 000004   200005 755100                    STA     UTS,,AUTO

       56      178
       57      179                            /* convert uts into seconds, and a centi-second remainder */
       58      180
       59      181    1        CALL XUD$UTS_DIFF_SEC (SECS, UTS, 0);

    181  1 000005   000000 236000 2                  LDQ     0
         1 000006   200022 756100                    STQ     END_DAY$+4,,AUTO
         1 000007   200005 631500                    EPPR1   UTS,,AUTO
         1 000010   200021 451500                    STP1    END_DAY$+3,,AUTO
         1 000011   200010 633500                    EPPR3   SECS,,AUTO
         1 000012   200020 453500                    STP3    END_DAY$+2,,AUTO
         1 000013   200020 630500                    EPPR0   END_DAY$+2,,AUTO
         1 000014   000021 631400 xsym               EPPR1   B_VECTNIL+17
         1 000015   000000 701000 xent               TSX1    XUD$UTS_DIFF_SEC
         1 000016   000000 011000                    NOP     0

       60      182    1        CALL XUD$UTS_ADJ_25TH (UTS_IN_SECS, 0, SECS * %UTS_25TH_SEC#);

    182  1 000017   200010 236100                    LDQ     SECS,,AUTO
         1 000020   000031 402007                    MPY     25,DL
         1 000021   200020 756100                    STQ     END_DAY$+2,,AUTO
         1 000022   200020 630500                    EPPR0   END_DAY$+2,,AUTO
         1 000023   200023 450500                    STP0    END_DAY$+5,,AUTO
         1 000024   000000 236000 2                  LDQ     0
         1 000025   200022 756100                    STQ     END_DAY$+4,,AUTO
         1 000026   200006 631500                    EPPR1   UTS_IN_SECS,,AUTO
         1 000027   200021 451500                    STP1    END_DAY$+3,,AUTO
         1 000030   200021 630500                    EPPR0   END_DAY$+3,,AUTO
         1 000031   000021 631400 xsym               EPPR1   B_VECTNIL+17
         1 000032   000000 701000 xent               TSX1    XUD$UTS_ADJ_25TH
         1 000033   000000 011000                    NOP     0
PL6.E3A0      #001=DDA$UTSTIME File=DDA$UTSTIME.:E05TSI                          TUE 07/29/97 13:41 Page:11

       61      183    1        CALL XUD$UTS_DIFF (TICS, UTS, UTS_IN_SECS);

    183  1 000034   200006 630500                    EPPR0   UTS_IN_SECS,,AUTO
         1 000035   200022 450500                    STP0    END_DAY$+4,,AUTO
         1 000036   200005 631500                    EPPR1   UTS,,AUTO
         1 000037   200021 451500                    STP1    END_DAY$+3,,AUTO
         1 000040   200007 633500                    EPPR3   TICS,,AUTO
         1 000041   200020 453500                    STP3    END_DAY$+2,,AUTO
         1 000042   200020 630500                    EPPR0   END_DAY$+2,,AUTO
         1 000043   000021 631400 xsym               EPPR1   B_VECTNIL+17
         1 000044   000000 701000 xent               TSX1    XUD$UTS_DIFF
         1 000045   000000 011000                    NOP     0

       62      184
       63      185                                           /* fill in the date and time return values */
       64      186
       65      187    1        TIME = '00:00:00.00 00/00/00';

    187  1 000046   200004 470500                    LDP0    @TIME,,AUTO
         1 000047   040100 100400                    MLR     fill='040'O
         1 000050   000036 000024 0                  ADSC9   YDAY$+4                  cn=0,n=20
         1 000051   000000 000024                    ADSC9   0,,PR0                   cn=0,n=20

       66      188
       67      189        /*   Tics = tics;  */                   /* Translate uts into units to print */
       68      190        /*   Secs = secs;  */
       69      191    1        MINS = SECS / 60;

    191  1 000052   200010 236100                    LDQ     SECS,,AUTO
         1 000053   000074 506007                    DIV     60,DL
         1 000054   200011 756100                    STQ     MINS,,AUTO

       70      192    1        HRS  = MINS / 60;

    192  1 000055   000074 506007                    DIV     60,DL
         1 000056   200012 756100                    STQ     HRS,,AUTO
PL6.E3A0      #001=DDA$UTSTIME File=DDA$UTSTIME.:E05TSI                          TUE 07/29/97 13:41 Page:12

       71      193    1        DAYS = HRS / 24;

    193  1 000057   000030 506007                    DIV     24,DL
         1 000060   200013 756100                    STQ     DAYS,,AUTO

       72      194        /*   Yrs  = ((days since start first leap year before uts origin) /
       73      195                      365.25) - (uts origin year - first leap year year) */
       74      196    1        YRS = (((DAYS + 731) * 4) / 1461) - 2;

    196  1 000061   000002 736000                    QLS     2
         1 000062   005554 036007                    ADLQ    2924,DL
         1 000063   002665 506007                    DIV     1461,DL
         1 000064   000002 136007                    SBLQ    2,DL
         1 000065   200015 756100                    STQ     YRS,,AUTO

       75      197    1        END_DAY$ = YDAY$(MOD(YRS, 4));

    197  1 000066   000004 506007                    DIV     4,DL
         1 000067   000032 236005 0                  LDQ     YDAY$,AL
         1 000070   200016 756100                    STQ     END_DAY$,,AUTO

       76      198        /*   Days = days since start of current year */
       77      199    1        DAYS = DAYS - ((((YRS + 1) * 1461) / 4) - 365);

    199  1 000071   200015 236100                    LDQ     YRS,,AUTO
         1 000072   002665 402007                    MPY     1461,DL
         1 000073   002665 036007                    ADLQ    1461,DL
         1 000074   000004 506007                    DIV     4,DL
         1 000075   200020 756100                    STQ     END_DAY$+2,,AUTO
         1 000076   200013 236100                    LDQ     DAYS,,AUTO
         1 000077   200020 136100                    SBLQ    END_DAY$+2,,AUTO
         1 000100   000555 036007                    ADLQ    365,DL
         1 000101   200013 756100                    STQ     DAYS,,AUTO

       78      200        /*   Months approx = days / 31 */
       79      201    1        MONS = (DAYS / 31) + 1;
PL6.E3A0      #001=DDA$UTSTIME File=DDA$UTSTIME.:E05TSI                          TUE 07/29/97 13:41 Page:13

    201  1 000102   000037 506007                    DIV     31,DL
         1 000103   000001 036007                    ADLQ    1,DL
         1 000104   200014 756100                    STQ     MONS,,AUTO

       80      202        /*   see if the month is correct, else adjust it */
       81      203    1        IF (DAYS >= END_DAY(MONS)) THEN MONS = MONS + 1;

    203  1 000105   200016 471500                    LDP1    END_DAY$,,AUTO
         1 000106   000000 620006                    EAX0    0,QL
         1 000107   200013 236100                    LDQ     DAYS,,AUTO
         1 000110   000114 604000 1                  TMI     s:205
         1 000111   100000 116110                    CMPQ    0,X0,PR1
         1 000112   000114 602000 1                  TNC     s:205

    203  1 000113   200014 054100                    AOS     MONS,,AUTO

       82      204        /*   Days = days since start of month */
       83      205    1        DAYS = DAYS - END_DAY(MONS-1) + 1;

    205  1 000114   200014 720100                    LXL0    MONS,,AUTO
         1 000115   177777 136110                    SBLQ    -1,X0,PR1
         1 000116   000001 036007                    ADLQ    1,DL
         1 000117   200013 756100                    STQ     DAYS,,AUTO

       84      206
       85      207    1        CALL BINCHAR (OTIME.TIME_.TT, TICS);

    207  1 000120   000100 301500                    BTD
         1 000121   200007 000004                    NDSC9   TICS,,AUTO               cn=0,s=lsgnf,sf=0,n=4
         1 000122   000002 230002                    NDSC9   2,,PR0                   cn=1,s=nosgn,sf=0,n=2

       86      208    1        CALL BINCHAR (OTIME.TIME_.SS, MOD (SECS, 60));

    208  1 000123   200010 236100                    LDQ     SECS,,AUTO
         1 000124   000074 506007                    DIV     60,DL
         1 000125   200020 755100                    STA     END_DAY$+2,,AUTO
PL6.E3A0      #001=DDA$UTSTIME File=DDA$UTSTIME.:E05TSI                          TUE 07/29/97 13:41 Page:14
         1 000126   000100 301500                    BTD
         1 000127   200020 000004                    NDSC9   END_DAY$+2,,AUTO         cn=0,s=lsgnf,sf=0,n=4
         1 000130   000001 430002                    NDSC9   1,,PR0                   cn=2,s=nosgn,sf=0,n=2

       87      209    1        CALL BINCHAR (OTIME.TIME_.MM, MOD (MINS, 60));

    209  1 000131   200011 236100                    LDQ     MINS,,AUTO
         1 000132   000074 506007                    DIV     60,DL
         1 000133   200020 755100                    STA     END_DAY$+2,,AUTO
         1 000134   000100 301500                    BTD
         1 000135   200020 000004                    NDSC9   END_DAY$+2,,AUTO         cn=0,s=lsgnf,sf=0,n=4
         1 000136   000000 630002                    NDSC9   0,,PR0                   cn=3,s=nosgn,sf=0,n=2

       88      210    1        CALL BINCHAR (OTIME.TIME_.HH, MOD (HRS, 24));

    210  1 000137   200012 236100                    LDQ     HRS,,AUTO
         1 000140   000030 506007                    DIV     24,DL
         1 000141   200020 755100                    STA     END_DAY$+2,,AUTO
         1 000142   000100 301500                    BTD
         1 000143   200020 000004                    NDSC9   END_DAY$+2,,AUTO         cn=0,s=lsgnf,sf=0,n=4
         1 000144   000000 030002                    NDSC9   0,,PR0                   cn=0,s=nosgn,sf=0,n=2

       89      211    1        CALL BINCHAR (OTIME.DATE_.DD, DAYS);

    211  1 000145   000100 301500                    BTD
         1 000146   200013 000004                    NDSC9   DAYS,,AUTO               cn=0,s=lsgnf,sf=0,n=4
         1 000147   000003 630002                    NDSC9   3,,PR0                   cn=3,s=nosgn,sf=0,n=2

       90      212    1        CALL BINCHAR (OTIME.DATE_.MM, MONS);

    212  1 000150   000100 301500                    BTD
         1 000151   200014 000004                    NDSC9   MONS,,AUTO               cn=0,s=lsgnf,sf=0,n=4
         1 000152   000003 030002                    NDSC9   3,,PR0                   cn=0,s=nosgn,sf=0,n=2

       91      213    1        CALL BINCHAR (OTIME.DATE_.YY, MOD(YRS+78, 100));

    213  1 000153   200015 236100                    LDQ     YRS,,AUTO
PL6.E3A0      #001=DDA$UTSTIME File=DDA$UTSTIME.:E05TSI                          TUE 07/29/97 13:41 Page:15
         1 000154   000116 036007                    ADLQ    78,DL
         1 000155   000144 506007                    DIV     100,DL
         1 000156   200020 755100                    STA     END_DAY$+2,,AUTO
         1 000157   000100 301500                    BTD
         1 000160   200020 000004                    NDSC9   END_DAY$+2,,AUTO         cn=0,s=lsgnf,sf=0,n=4
         1 000161   000004 430002                    NDSC9   4,,PR0                   cn=2,s=nosgn,sf=0,n=2

       92      214    1   END DDA$UTSTIME;

    214  1 000162   000000 702200 xent               TSX2  ! X66_ARET

TDAYS
 Sect OctLoc
   0     000   000000 000000   000000 000037   000000 000073   000000 000132    ...........;...Z
   0     004   000000 000170   000000 000227   000000 000265   000000 000324    ...x............
   0     010   000000 000363   000000 000421   000000 000460   000000 000516    ................
   0     014   000000 000555                                                    ....

LDAYS
 Sect OctLoc
   0     015   000000 000000   000000 000037   000000 000074   000000 000133    ...........<...[
   0     021   000000 000171   000000 000230   000000 000266   000000 000325    ...y............
   0     025   000000 000364   000000 000422   000000 000461   000000 000517    ................
   0     031   000000 000556                                                    ....

YDAY$
 Sect OctLoc
   0     032   000000 006000   000000 006000   000015 006000   000000 006000    ................

(unnamed)
 Sect OctLoc
   0     036   060060 072060   060072 060060   056060 060040   060060 057060    00:00:00.00 00/0
   0     042   060057 060060                                                    0/00

(unnamed)
 Sect OctLoc
   2     000   000002 006000                                                    ....
PL6.E3A0      #001=DDA$UTSTIME File=DDA$UTSTIME.:E05TSI                          TUE 07/29/97 13:41 Page:16

PL6.E3A0      #001=DDA$UTSTIME File=DDA$UTSTIME.:E05TSI                          TUE 07/29/97 13:41 Page:17
--  Include file information  --

   XUD_UTS_M.:E05TOU  is referenced.
   B$JIT_C.:E05TOU  was found in the system file and is never referenced.
   CP_6_C.:E05TOU  was found in the system file and is never referenced.
      No diagnostics issued in procedure DDA$UTSTIME.

   Procedure DDA$UTSTIME requires 115 words for executable code.
   Procedure DDA$UTSTIME requires 20 words of local(AUTO) storage.

    No errors detected in file DDA$UTSTIME.:E05TSI    .
PL6.E3A0      #001=DDA$UTSTIME File=DDA$UTSTIME.:E05TSI                          TUE 07/29/97 13:41 Page:18
          *** CROSS REFERENCE LISTING ***
**     DENOTES     IDENTIFIER DEFINITION
<<                 IDENTIFIER'S VALUE SET
>>                 IDENTIFIER'S VALUE USED
<>                 IDENTIFIER SET AND/OR USED
--                 IDENTIFIER REFERENCED
PL6.E3A0      #001=DDA$UTSTIME File=DDA$UTSTIME.:E05TSI                          TUE 07/29/97 13:41 Page:19
          MINI XREF LISTING

DAYS
        38**DCL       193<<ASSIGN    196>>ASSIGN    199<<ASSIGN    199>>ASSIGN    201>>ASSIGN    203>>IF
       205<<ASSIGN    205>>ASSIGN    211>>CALLBLT
END_DAY
        42**DCL       203>>IF        205>>ASSIGN
END_DAY$
        41**DCL        42--IMP-PTR   197<<ASSIGN    203>>IF        205>>ASSIGN
HRS
        37**DCL       192<<ASSIGN    193>>ASSIGN    210>>CALLBLT
LDAYS
        46**DCL        49--DCLINIT
MINS
        36**DCL       191<<ASSIGN    192>>ASSIGN    209>>CALLBLT
MONS
        39**DCL       201<<ASSIGN    203>>IF        203<<ASSIGN    203>>ASSIGN    205>>ASSIGN    212>>CALLBLT
OTIME.DATE_.DD
        28**DCL       211<<CALLBLT
OTIME.DATE_.MM
        26**DCL       212<<CALLBLT
OTIME.DATE_.YY
        30**DCL       213<<CALLBLT
OTIME.TIME_.HH
        17**DCL       210<<CALLBLT
OTIME.TIME_.MM
        19**DCL       209<<CALLBLT
OTIME.TIME_.SS
        21**DCL       208<<CALLBLT
OTIME.TIME_.TT
        23**DCL       207<<CALLBLT
SECS
        35**DCL       181<>CALL      182>>CALL      191>>ASSIGN    208>>CALLBLT
TDAYS
PL6.E3A0      #001=DDA$UTSTIME File=DDA$UTSTIME.:E05TSI                          TUE 07/29/97 13:41 Page:20
        44**DCL        49--DCLINIT    49--DCLINIT    49--DCLINIT
TICS
        34**DCL       183<>CALL      207>>CALLBLT
TIME
        14**DCL        12--PROC       15--REDEF     187<<ASSIGN
UTIME
        13**DCL        12--PROC      177>>ASSIGN
UTS
        32**DCL       177<<ASSIGN    181<>CALL      183<>CALL
UTS_IN_SECS
        33**DCL       182<>CALL      183<>CALL
XUD$UTS_ADJ_25TH
       158**DCL-ENT   182--CALL
XUD$UTS_DIFF
       134**DCL-ENT   183--CALL
XUD$UTS_DIFF_SEC
       140**DCL-ENT   181--CALL
YDAY$
        48**DCL       197>>ASSIGN
YRS
        40**DCL       196<<ASSIGN    197>>ASSIGN    199>>ASSIGN    213>>CALLBLT
PL6.E3A0      #001=DDA$UTSTIME File=DDA$UTSTIME.:E05TSI                          TUE 07/29/97 13:41 Page:21
              *** CROSS REFERENCE LISTING ***
    **     DENOTES     IDENTIFIER DEFINITION
    <<                 IDENTIFIER'S VALUE SET
    >>                 IDENTIFIER'S VALUE USED
    <>                 IDENTIFIER SET AND/OR USED
    --                 IDENTIFIER REFERENCED
PL6.E3A0      #001=DDA$UTSTIME File=DDA$UTSTIME.:E05TSI                          TUE 07/29/97 13:41 Page:22
              MINI UREF LISTING

DDA$UTSTIME      12**PROC
XUD$UTS_ADJUST     152**DCL-ENT
XUD$UTS_DIFF_25TH     146**DCL-ENT
