VERSION E05

PL6.E3A0      #001=DDB$FINDOP File=DDB$FINDOP.:E05TSI                            TUE 07/29/97 13:43 Page:1
        1        1        /*M* DDB$FINDOP Instruction op code search routine */
        2        2        /*T***********************************************************/
        3        3        /*T*                                                         */
        4        4        /*T* Copyright (c) Bull HN Information Systems Inc., 1997    */
        5        5        /*T*                                                         */
        6        6        /*T***********************************************************/
        7        7        /*X* DMR,PLM=5,IND=5,CSU=3,EXM=0,ECU=3,MOC,DCI=5,CRT=5 */
        8        8        /*F* NAME: DDB$FINDOP
        9        9             PURPOSE: Nothing, replaced by DDB$OCTAL_TO_INSTR. */
       10       10        /*D* NAME: DDB$FINDOP */
       11       11                                                /**/
       12       12        DDB$FINDOP: PROC( I$, IOP$ ) ALTRET;
       13       13                                                /**/
       14       14    1   DCL I$ PTR;
       15       15    1   DCL IOP$ PTR;
       16       16                                                /**/
       17       17    1   END DDB$FINDOP;

PL6.E3A0      #001=DDB$FINDOP File=DDB$FINDOP.:E05TSI                            TUE 07/29/97 13:43 Page:2
--  Include file information  --

   B$JIT_C.:E05TOU  was found in the system file and is never referenced.
   CP_6_C.:E05TOU  was found in the system file and is never referenced.
      No diagnostics issued in procedure DDB$FINDOP.

   No code generated for procedure DDB$FINDOP .
   Procedure DDB$FINDOP requires 6 words of local(AUTO) storage.

    No errors detected in file DDB$FINDOP.:E05TSI    .

PL6.E3A0      #001=DDB$FINDOP File=DDB$FINDOP.:E05TSI                            TUE 07/29/97 13:43 Page:3

 Object Unit name= DDB$FINDOP                                 File name= DDB$FINDOP.:E05TOU
 UTS= JUL 29 '97 13:43:26.88 TUE                              Compiler= PL-6/E31         Sev=      00
 SharedLib= :SHARED_SYSTEM                                    Alt SharedLib=


    ****  Control sections  ****

 Sect   Type Bound  Init  Size OctSiz  Section name(segment info)
    0   Proc  even  none     0      0  DDB$FINDOP

    ****  Entry defs  ****

                              Check   Calling
                             calling  sequence
  Sect OctLoc Primary Altret sequence   type   Parms  Name
     0      0   yes    yes     yes     ~proc       2  DDB$FINDOP
PL6.E3A0      #001=DDB$FINDOP File=DDB$FINDOP.:E05TSI                            TUE 07/29/97 13:43 Page:4

        1        1        /*M* DDB$FINDOP Instruction op code search routine */
        2        2        /*T***********************************************************/
        3        3        /*T*                                                         */
        4        4        /*T* Copyright (c) Bull HN Information Systems Inc., 1997    */
        5        5        /*T*                                                         */
        6        6        /*T***********************************************************/
        7        7        /*X* DMR,PLM=5,IND=5,CSU=3,EXM=0,ECU=3,MOC,DCI=5,CRT=5 */
        8        8        /*F* NAME: DDB$FINDOP
        9        9             PURPOSE: Nothing, replaced by DDB$OCTAL_TO_INSTR. */
       10       10        /*D* NAME: DDB$FINDOP */
       11       11                                                /**/
       12       12        DDB$FINDOP: PROC( I$, IOP$ ) ALTRET;
       13       13                                                /**/
       14       14    1   DCL I$ PTR;
       15       15    1   DCL IOP$ PTR;
       16       16                                                /**/
       17       17    1   END DDB$FINDOP;

PL6.E3A0      #001=DDB$FINDOP File=DDB$FINDOP.:E05TSI                            TUE 07/29/97 13:43 Page:5
--  Include file information  --

   B$JIT_C.:E05TOU  was found in the system file and is never referenced.
   CP_6_C.:E05TOU  was found in the system file and is never referenced.
      No diagnostics issued in procedure DDB$FINDOP.

   No code generated for procedure DDB$FINDOP .
   Procedure DDB$FINDOP requires 6 words of local(AUTO) storage.

    No errors detected in file DDB$FINDOP.:E05TSI    .
PL6.E3A0      #001=DDB$FINDOP File=DDB$FINDOP.:E05TSI                            TUE 07/29/97 13:43 Page:6
          *** CROSS REFERENCE LISTING ***
**     DENOTES     IDENTIFIER DEFINITION
<<                 IDENTIFIER'S VALUE SET
>>                 IDENTIFIER'S VALUE USED
<>                 IDENTIFIER SET AND/OR USED
--                 IDENTIFIER REFERENCED
PL6.E3A0      #001=DDB$FINDOP File=DDB$FINDOP.:E05TSI                            TUE 07/29/97 13:43 Page:7
          MINI XREF LISTING

I$
        14**DCL        12--PROC
IOP$
        15**DCL        12--PROC
PL6.E3A0      #001=DDB$FINDOP File=DDB$FINDOP.:E05TSI                            TUE 07/29/97 13:43 Page:8
              *** CROSS REFERENCE LISTING ***
    **     DENOTES     IDENTIFIER DEFINITION
    <<                 IDENTIFIER'S VALUE SET
    >>                 IDENTIFIER'S VALUE USED
    <>                 IDENTIFIER SET AND/OR USED
    --                 IDENTIFIER REFERENCED
PL6.E3A0      #001=DDB$FINDOP File=DDB$FINDOP.:E05TSI                            TUE 07/29/97 13:43 Page:9
              MINI UREF LISTING

DDB$FINDOP      12**PROC
