VERSION E05

PL6.E3A0      #001=DDB$PUTHIST File=DDB$PUTHIST.:E05TSI                          TUE 07/29/97 13:45 Page:1
        1        1        /*M* DDA$PUTHIST - PUT HISTORY ENTRIES INTO THE BUFFER */
        2        2        /*T***********************************************************/
        3        3        /*T*                                                         */
        4        4        /*T* Copyright (c) Bull HN Information Systems Inc., 1997    */
        5        5        /*T*                                                         */
        6        6        /*T***********************************************************/
        7        7        /*X* CCC,DMR,PLM=5,IND=5,CSU=3,EXM=0,ECU=3,MOC,DCI=5,CRT=5 */
        8        8        DDB$PUTHIST: PROC(TYPE, INST, LIC, RIC, LNODE, RNODE);
        9        9    1   DCL TYPE UBIN;
       10       10    1   DCL INST UBIN;
       11       11    1   DCL LIC UBIN;
       12       12    1   DCL RIC UBIN;
       13       13    1   DCL LNODE UBIN;
       14       14    1   DCL RNODE UBIN;
       15       15        %INCLUDE XUH_MACRO_C;
       16       99        %INCLUDE DD_SD_M;
       17     1435        %S_D;
       18     2753        %INCLUDE DD$BASED;
       19     4056        %HIST_BUF;
       20     4065        %HIST_BUF (NAME=HIST_ENTRY, STCLASS=AUTO);
       21     4074        %INCLUDE DD_SUBS_C;
       22     4345    1   DCL UBIN36 UBIN BASED;
       23     4346    1        S_D.HIST.OUT_ACTIVE = '0'B;
       24     4347                                                /* Load up this entry */
       25     4348    1        HIST_ENTRY.TYPE = TYPE;
       26     4349    1        IF TYPE = H_XEQ
       27     4350    1        THEN ADDR(HIST_ENTRY)->UBIN36 = INST;
       28     4351    2        ELSE DO;
       29     4352    2             HIST_ENTRY.LIC = LIC;
       30     4353    2             HIST_ENTRY.RIC = RIC;
       31     4354    2           END;
       32     4355    1        HIST_ENTRY.LNODE = LNODE;
       33     4356    1        HIST_ENTRY.RNODE = RNODE;
       34     4357    1        IF S_D.HIST.EMPTY                  /*If this is the first entry */
       35     4358    1        THEN S_D.HIST.EMPTY = '0'B;        /* then mark history buffer non_empty */
       36     4359    2        ELSE DO;
       37     4360    2             HIST_ENTRY.COUNT = S_D.HIST.CURR$->HIST_BUF.COUNT;
PL6.E3A0      #001=DDB$PUTHIST File=DDB$PUTHIST.:E05TSI                          TUE 07/29/97 13:45 Page:2
       38     4361    2             IF HIST_ENTRY = S_D.HIST.CURR$->HIST_BUF
       39     4362    3             THEN DO;
       40     4363    3                  S_D.HIST.CURR$->HIST_BUF.COUNT = S_D.HIST.CURR$->HIST_BUF.COUNT + 1;
       41     4364    3                  RETURN; /* This is a duplicate entry, bump the count and return */
       42     4365    3                END;
       43     4366    2             ELSE                          /* Check for wrap around */
       44     4367    2                  IF S_D.HIST.CURR$ = S_D.HIST.END$
       45     4368    3                  THEN DO;
       46     4369    3                       S_D.HIST.ROLLOVER = '1'B; /* Remember that we wrapped around */
       47     4370    3                       S_D.HIST.CURR$ = S_D.HIST.START$;
       48     4371    3                     END;
       49     4372    2                  ELSE S_D.HIST.CURR$ = PINCRW(S_D.HIST.CURR$, SIZEW(HIST_BUF));
       50     4373    2           END;
       51     4374    1        S_D.HIST.CURR$->HIST_BUF = HIST_ENTRY;
       52     4375    1        S_D.HIST.CURR$->HIST_BUF.COUNT = 1;
       53     4376    1        RETURN;
       54     4377    1   END DDB$PUTHIST;

PL6.E3A0      #001=DDB$PUTHIST File=DDB$PUTHIST.:E05TSI                          TUE 07/29/97 13:45 Page:3
--  Include file information  --

   DD_SUBS_C.:E05TOU  is referenced.
   DD$BASED.:E05TOU  is referenced.
   DD_SD_M.:E05TOU  is referenced.
   XUH_MACRO_C.:E05TOU  is referenced.
   B$JIT_C.:E05TOU  was found in the system file and is never referenced.
   CP_6_C.:E05TOU  was found in the system file and is never referenced.
      No diagnostics issued in procedure DDB$PUTHIST.

   Procedure DDB$PUTHIST requires 71 words for executable code.
   Procedure DDB$PUTHIST requires 12 words of local(AUTO) storage.

    No errors detected in file DDB$PUTHIST.:E05TSI    .

PL6.E3A0      #001=DDB$PUTHIST File=DDB$PUTHIST.:E05TSI                          TUE 07/29/97 13:45 Page:4

 Object Unit name= DDB$PUTHIST                                File name= DDB$PUTHIST.:E05TOU
 UTS= JUL 29 '97 13:45:24.64 TUE                              Compiler= PL-6/E31         Sev=      00
 SharedLib= :SHARED_SYSTEM                                    Alt SharedLib=


    ****  Control sections  ****

 Sect   Type Bound  Init  Size OctSiz  Section name(segment info)
    0   Proc  even  none    71    107  DDB$PUTHIST
    1  RoData even  none     1      1  DDB$PUTHIST

    ****  Entry defs  ****

                              Check   Calling
                             calling  sequence
  Sect OctLoc Primary Altret sequence   type   Parms  Name
     0      0   yes            yes      Std        6  DDB$PUTHIST

  ****  Entry refs  ****

         Check        Calling
        calling       sequence
Altret sequence SRef   type   Args  Name
                       nStd      0 X66_AUTO_N
                       nStd      0 X66_ARET
                       Std       0 B_CONSPOOL_D

  ****  Data refs  ****

  Flags:  r = read only, s = secondary
Flgs Name                             Flgs Name                             Flgs Name
r    S_D$                                  B_VECTNIL
PL6.E3A0      #001=DDB$PUTHIST File=DDB$PUTHIST.:E05TSI                          TUE 07/29/97 13:45 Page:5


        1        1        /*M* DDA$PUTHIST - PUT HISTORY ENTRIES INTO THE BUFFER */
        2        2        /*T***********************************************************/
        3        3        /*T*                                                         */
        4        4        /*T* Copyright (c) Bull HN Information Systems Inc., 1997    */
        5        5        /*T*                                                         */
        6        6        /*T***********************************************************/
        7        7        /*X* CCC,DMR,PLM=5,IND=5,CSU=3,EXM=0,ECU=3,MOC,DCI=5,CRT=5 */
        8        8        DDB$PUTHIST: PROC(TYPE, INST, LIC, RIC, LNODE, RNODE);

      8  0 000000   000000 700200 xent  DDB$PUTHIST  TSX0  ! X66_AUTO_N
         0 000001   000014 000006                    ZERO    12,6

        9        9    1   DCL TYPE UBIN;
       10       10    1   DCL INST UBIN;
       11       11    1   DCL LIC UBIN;
       12       12    1   DCL RIC UBIN;
       13       13    1   DCL LNODE UBIN;
       14       14    1   DCL RNODE UBIN;
       15       15        %INCLUDE XUH_MACRO_C;
       16       99        %INCLUDE DD_SD_M;
       17     1435        %S_D;
       18     2753        %INCLUDE DD$BASED;
       19     4056        %HIST_BUF;
       20     4065        %HIST_BUF (NAME=HIST_ENTRY, STCLASS=AUTO);
       21     4074        %INCLUDE DD_SUBS_C;
       22     4345    1   DCL UBIN36 UBIN BASED;
       23     4346    1        S_D.HIST.OUT_ACTIVE = '0'B;

   4346  0 000002   000000 470400 xsym               LDP0    S_D$
         0 000003   004724 450100                    STZ     2516,,PR0

       24     4347                                                /* Load up this entry */
       25     4348    1        HIST_ENTRY.TYPE = TYPE;

   4348  0 000004   200003 471500                    LDP1    @TYPE,,AUTO
         0 000005   100000 236100                    LDQ     0,,PR1
PL6.E3A0      #001=DDB$PUTHIST File=DDB$PUTHIST.:E05TSI                          TUE 07/29/97 13:45 Page:6
         0 000006   000016 736000                    QLS     14
         0 000007   200013 676100                    ERQ     HIST_ENTRY+2,,AUTO
         0 000010   740000 376007                    ANQ     -16384,DL
         0 000011   200013 656100                    ERSQ    HIST_ENTRY+2,,AUTO

       26     4349    1        IF TYPE = H_XEQ

   4349  0 000012   100000 235100                    LDA     0,,PR1
         0 000013   000003 115007                    CMPA    3,DL
         0 000014   000021 601000 0                  TNZ     s:4352

       27     4350    1        THEN ADDR(HIST_ENTRY)->UBIN36 = INST;

   4350  0 000015   200004 473500                    LDP3    @INST,,AUTO
         0 000016   300000 235100                    LDA     0,,PR3
         0 000017   200011 755100                    STA     HIST_ENTRY,,AUTO
         0 000020   000027 710000 0                  TRA     s:4355

       28     4351    2        ELSE DO;

       29     4352    2             HIST_ENTRY.LIC = LIC;

   4352  0 000021   200005 473500                    LDP3    @LIC,,AUTO
         0 000022   300000 235100                    LDA     0,,PR3
         0 000023   200011 755100                    STA     HIST_ENTRY,,AUTO

       30     4353    2             HIST_ENTRY.RIC = RIC;

   4353  0 000024   200006 474500                    LDP4    @RIC,,AUTO
         0 000025   400000 235100                    LDA     0,,PR4
         0 000026   200012 755100                    STA     HIST_ENTRY+1,,AUTO

       31     4354    2           END;

       32     4355    1        HIST_ENTRY.LNODE = LNODE;

   4355  0 000027   200007 473500                    LDP3    @LNODE,,AUTO
PL6.E3A0      #001=DDB$PUTHIST File=DDB$PUTHIST.:E05TSI                          TUE 07/29/97 13:45 Page:7
         0 000030   300000 236100                    LDQ     0,,PR3
         0 000031   000033 736000                    QLS     27
         0 000032   200013 552140                    STBQ    HIST_ENTRY+2,'40'O,AUTO

       33     4356    1        HIST_ENTRY.RNODE = RNODE;

   4356  0 000033   200010 474500                    LDP4    @RNODE,,AUTO
         0 000034   400000 236100                    LDQ     0,,PR4
         0 000035   000022 736000                    QLS     18
         0 000036   200013 552120                    STBQ    HIST_ENTRY+2,'20'O,AUTO

       34     4357    1        IF S_D.HIST.EMPTY                  /*If this is the first entry */

   4357  0 000037   004726 234100                    SZN     2518,,PR0
         0 000040   000043 605000 0                  TPL     s:4360

       35     4358    1        THEN S_D.HIST.EMPTY = '0'B;        /* then mark history buffer non_empty */

   4358  0 000041   004726 450100                    STZ     2518,,PR0
         0 000042   000075 710000 0                  TRA     s:4374

       36     4359    2        ELSE DO;

       37     4360    2             HIST_ENTRY.COUNT = S_D.HIST.CURR$->HIST_BUF.COUNT;

   4360  0 000043   004721 475500                    LDP5    2513,,PR0
         0 000044   500002 236100                    LDQ     2,,PR5
         0 000045   200013 676100                    ERQ     HIST_ENTRY+2,,AUTO
         0 000046   037777 376007                    ANQ     16383,DL
         0 000047   200013 656100                    ERSQ    HIST_ENTRY+2,,AUTO

       38     4361    2             IF HIST_ENTRY = S_D.HIST.CURR$->HIST_BUF

   4361  0 000050   000100 106500                    CMPC    fill='000'O
         0 000051   200011 000014                    ADSC9   HIST_ENTRY,,AUTO         cn=0,n=12
         0 000052   500000 000014                    ADSC9   0,,PR5                   cn=0,n=12
         0 000053   000063 601000 0                  TNZ     s:4367
PL6.E3A0      #001=DDB$PUTHIST File=DDB$PUTHIST.:E05TSI                          TUE 07/29/97 13:45 Page:8

       39     4362    3             THEN DO;

       40     4363    3                  S_D.HIST.CURR$->HIST_BUF.COUNT = S_D.HIST.CURR$->HIST_BUF.COUNT + 1;

   4363  0 000054   500002 236100                    LDQ     2,,PR5
         0 000055   037777 376007                    ANQ     16383,DL
         0 000056   000001 036007                    ADLQ    1,DL
         0 000057   500002 676100                    ERQ     2,,PR5
         0 000060   037777 376007                    ANQ     16383,DL
         0 000061   500002 656100                    ERSQ    2,,PR5

       41     4364    3                  RETURN; /* This is a duplicate entry, bump the count and return */

   4364  0 000062   000000 702200 xent               TSX2  ! X66_ARET

       42     4365    3                END;
       43     4366    2             ELSE                          /* Check for wrap around */
       44     4367    2                  IF S_D.HIST.CURR$ = S_D.HIST.END$

   4367  0 000063   004721 236100                    LDQ     2513,,PR0
         0 000064   004720 116100                    CMPQ    2512,,PR0
         0 000065   000073 601000 0                  TNZ     s:4372

       45     4368    3                  THEN DO;

       46     4369    3                       S_D.HIST.ROLLOVER = '1'B; /* Remember that we wrapped around */

   4369  0 000066   400000 236003                    LDQ     -131072,DU
         0 000067   004723 756100                    STQ     2515,,PR0

       47     4370    3                       S_D.HIST.CURR$ = S_D.HIST.START$;

   4370  0 000070   004717 236100                    LDQ     2511,,PR0
         0 000071   004721 756100                    STQ     2513,,PR0

       48     4371    3                     END;
PL6.E3A0      #001=DDB$PUTHIST File=DDB$PUTHIST.:E05TSI                          TUE 07/29/97 13:45 Page:9

   4371  0 000072   000075 710000 0                  TRA     s:4374

       49     4372    2                  ELSE S_D.HIST.CURR$ = PINCRW(S_D.HIST.CURR$, SIZEW(HIST_BUF));

   4372  0 000073   000003 036003                    ADLQ    3,DU
         0 000074   004721 756100                    STQ     2513,,PR0

       50     4373    2           END;

       51     4374    1        S_D.HIST.CURR$->HIST_BUF = HIST_ENTRY;

   4374  0 000075   004721 475500                    LDP5    2513,,PR0
         0 000076   000100 100500                    MLR     fill='000'O
         0 000077   200011 000014                    ADSC9   HIST_ENTRY,,AUTO         cn=0,n=12
         0 000100   500000 000014                    ADSC9   0,,PR5                   cn=0,n=12

       52     4375    1        S_D.HIST.CURR$->HIST_BUF.COUNT = 1;

   4375  0 000101   004721 475500                    LDP5    2513,,PR0
         0 000102   500002 236100                    LDQ     2,,PR5
         0 000103   000000 376000 1                  ANQ     0
         0 000104   000001 276007                    ORQ     1,DL
         0 000105   500002 756100                    STQ     2,,PR5

       53     4376    1        RETURN;

   4376  0 000106   000000 702200 xent               TSX2  ! X66_ARET

(unnamed)
 Sect OctLoc
   1     000   777777 740000                                                    ....
       54     4377    1   END DDB$PUTHIST;

PL6.E3A0      #001=DDB$PUTHIST File=DDB$PUTHIST.:E05TSI                          TUE 07/29/97 13:45 Page:10
--  Include file information  --

   DD_SUBS_C.:E05TOU  is referenced.
   DD$BASED.:E05TOU  is referenced.
   DD_SD_M.:E05TOU  is referenced.
   XUH_MACRO_C.:E05TOU  is referenced.
   B$JIT_C.:E05TOU  was found in the system file and is never referenced.
   CP_6_C.:E05TOU  was found in the system file and is never referenced.
      No diagnostics issued in procedure DDB$PUTHIST.

   Procedure DDB$PUTHIST requires 71 words for executable code.
   Procedure DDB$PUTHIST requires 12 words of local(AUTO) storage.

    No errors detected in file DDB$PUTHIST.:E05TSI    .
PL6.E3A0      #001=DDB$PUTHIST File=DDB$PUTHIST.:E05TSI                          TUE 07/29/97 13:45 Page:11
          *** CROSS REFERENCE LISTING ***
**     DENOTES     IDENTIFIER DEFINITION
<<                 IDENTIFIER'S VALUE SET
>>                 IDENTIFIER'S VALUE USED
<>                 IDENTIFIER SET AND/OR USED
--                 IDENTIFIER REFERENCED
PL6.E3A0      #001=DDB$PUTHIST File=DDB$PUTHIST.:E05TSI                          TUE 07/29/97 13:45 Page:12
          MINI XREF LISTING

HIST_BUF
      4057**DCL      4361>>IF       4372--ASSIGN   4374<<ASSIGN
HIST_BUF.COUNT
      4063**DCL      4360>>ASSIGN   4363<<ASSIGN   4363>>ASSIGN   4375<<ASSIGN
HIST_ENTRY
      4066**DCL      4350--ASSIGN   4361>>IF       4374>>ASSIGN
HIST_ENTRY.COUNT
      4072**DCL      4360<<ASSIGN
HIST_ENTRY.LIC
      4067**DCL      4352<<ASSIGN
HIST_ENTRY.LNODE
      4069**DCL      4355<<ASSIGN
HIST_ENTRY.RIC
      4068**DCL      4353<<ASSIGN
HIST_ENTRY.RNODE
      4070**DCL      4356<<ASSIGN
HIST_ENTRY.TYPE
      4071**DCL      4348<<ASSIGN
INST
        10**DCL         8--PROC     4350>>ASSIGN
LIC
        11**DCL         8--PROC     4352>>ASSIGN
LNODE
        13**DCL         8--PROC     4355>>ASSIGN
RIC
        12**DCL         8--PROC     4353>>ASSIGN
RNODE
        14**DCL         8--PROC     4356>>ASSIGN
S_D.CURRENT_CHANNEL
      2387**DCL      2389--REDEF
S_D.DEBUGA
      1539**DCL      1541--REDEF
PL6.E3A0      #001=DDB$PUTHIST File=DDB$PUTHIST.:E05TSI                          TUE 07/29/97 13:45 Page:13
S_D.EIS
      2497**DCL      2526--REDEF
S_D.HIST.CURR$
      2024**DCL      4360>>ASSIGN   4361>>IF       4363>>ASSIGN   4363>>ASSIGN   4367>>IF       4370<<ASSIGN
      4372<<ASSIGN   4372>>ASSIGN   4374>>ASSIGN   4375>>ASSIGN
S_D.HIST.EMPTY
      2034**DCL      4357>>IF       4358<<ASSIGN
S_D.HIST.END$
      2022**DCL      4367>>IF
S_D.HIST.OUT_ACTIVE
      2030**DCL      4346<<ASSIGN
S_D.HIST.ROLLOVER
      2028**DCL      4369<<ASSIGN
S_D.HIST.START$
      2020**DCL      4370>>ASSIGN
S_D.HOST_MESSAGE_BUF_REMOTE
      2430**DCL      2431--REDEF    2445--REDEF
S_D.JDE
      2044**DCL      2045--REDEF
S_D.L$.VALUE
      1597**DCL      1603--REDEF    1611--REDEF    1614--REDEF    1617--REDEF    1620--REDEF
S_D.L$.VALUE.L
      1598**DCL      1599--REDEF    1600--REDEF
S_D.L6_MESSAGE_BUF
      2451**DCL      2453--REDEF
S_D.OUTPUT
      2417**DCL      2419--REDEF
S_D.REMOTE_MSG.FNCC
      2436**DCL      2437--REDEF
S_D.REMOTE_MSG.STXC
      2432**DCL      2433--REDEF
S_D.REMOTE_MSG.SUBFNCC
      2440**DCL      2441--REDEF
S_D.SV
      1496**DCL      1517--REDEF
S_D$
PL6.E3A0      #001=DDB$PUTHIST File=DDB$PUTHIST.:E05TSI                          TUE 07/29/97 13:45 Page:14
      2748**DCL      1444--IMP-PTR  4346>>ASSIGN   4357>>IF       4358>>ASSIGN   4360>>ASSIGN   4361>>IF
      4363>>ASSIGN   4363>>ASSIGN   4367>>IF       4367>>IF       4369>>ASSIGN   4370>>ASSIGN   4370>>ASSIGN
      4372>>ASSIGN   4372>>ASSIGN   4374>>ASSIGN   4375>>ASSIGN
TYPE
         9**DCL         8--PROC     4348>>ASSIGN   4349>>IF
UBIN36
      4345**DCL      4350<<ASSIGN
PL6.E3A0      #001=DDB$PUTHIST File=DDB$PUTHIST.:E05TSI                          TUE 07/29/97 13:45 Page:15
              *** CROSS REFERENCE LISTING ***
    **     DENOTES     IDENTIFIER DEFINITION
    <<                 IDENTIFIER'S VALUE SET
    >>                 IDENTIFIER'S VALUE USED
    <>                 IDENTIFIER SET AND/OR USED
    --                 IDENTIFIER REFERENCED
PL6.E3A0      #001=DDB$PUTHIST File=DDB$PUTHIST.:E05TSI                          TUE 07/29/97 13:45 Page:16
              MINI UREF LISTING

DDB$PUTHIST       8**PROC
