VERSION E05

PL6.E3A0      #001=DDB$RESET File=DDB$RESET.:E05TSI                              TUE 07/29/97 13:45 Page:1
        1        1        /*M* DDB$RESET . */
        2        2        /*T***********************************************************/
        3        3        /*T*                                                         */
        4        4        /*T* Copyright (c) Bull HN Information Systems Inc., 1997    */
        5        5        /*T*                                                         */
        6        6        /*T***********************************************************/
        7        7        /*X* DMR,PLM=5,IND=5,CSU=3,EXM=0,ECU=3,MOC,DCI=5,CRT=5 */
        8        8        DDB$RESET: PROC ALTRET;
        9        9    1   DCL INS SBIN BASED;
       10       10    1   DCL JUNK BIT(36);
       11       11        %INCLUDE DD$BASED;
       12     1314        %HOST_INSTR(NAME=INSTR);
       13     1336        %INCLUDE XUH_MACRO_C;
       14     1420        %INCLUDE DD_SD_M;
       15     2756        %S_D;
       16     4074    1   DCL UIS$ PTR SYMREF;
       17     4075    1   DCL DDC$PUTONE ENTRY(2) ALTRET;
       18     4076    1   DCL DDE$ERROR ENTRY;
       19     4077        /*D* NAME:  DDB$EISRESET
       20     4078             CALL:  CALL DDB$EISRESET ALRET(NOTEIS)
       21     4079             DESCRIPTION:  DDB$EISRESET RESTORES THE INSTRUCTION
       22     4080                    AT THE LOCATION DERAILED BY THE EIS-STOPPER.
       23     4081                    THE EIS-STOPPER ACTIVE BIT IS SET INACTIVE.
       24     4082                    THE ALTERNATE RETURN IS TAKEN IF THE EIS-STOPPER IS
       25     4083                    NOT ACTIVE.
       26     4084                    */
       27     4085    1   DDB$TTRESET: ENTRY ALTRET;
       28     4086    2        IF S_D.T$T.ACTIVE AND S_D.T$T.LOC_SAVED THEN DO;
       29     4087    2             CALL DDC$PUTONE(PINCRW(UIS$, S_D.T$T.SAVELOC), S_D.T$T.SAVEINS)  ALTRET(
              4087                      BAD_PUT);
       30     4088    2             S_D.T$T.LOC_SAVED = '0'B;
       31     4089    3             IF S_D.T$T.RET_SAVED THEN DO;
       32     4090    3                  CALL DDC$PUTONE (PINCRW(UIS$, S_D.T$T.RETLOC), S_D.T$T.RETINS) ALTRET
              4090                           (BAD_PUT);
       33     4091    3                  S_D.T$T.RET_SAVED = '0'B;
       34     4092    3                END;
       35     4093    2           END;
PL6.E3A0      #001=DDB$RESET File=DDB$RESET.:E05TSI                              TUE 07/29/97 13:45 Page:2
       36     4094    1        RETURN;
       37     4095    1   DDB$EISRESET: ENTRY ALTRET;
       38     4096    1        IF NOT S_D.E$IS.ACTIVE
       39     4097    1        THEN ALTRETURN;
       40     4098    1        S_D.E$IS.ACTIVE = '0'B;
       41     4099    1        CALL DDC$PUTONE(PINCRW(UIS$, S_D.E$IS.LOC), S_D.E$IS.SAVED) ALTRET(BAD_PUT);
       42     4100    1        IF S_D.E$IS.C.JUNK(0) = 1 THEN
       43     4101    1             CALL DDC$PUTONE( PINCRW(UIS$,S_D.E$IS.LOC+1), S_D.E$IS.C.JUNK(1)) ALTRET(
              4101                      BAD_PUT);
       44     4102    1        RETURN;
       45     4103        /*D* NAME: STEPRESET
       46     4104             CALL: CALL DDB$STEPRESET ALTRET(NOTSTEP)
       47     4105             DESCRIPTION:  DDB$STEPRESET RESTORES THE INSTRUCTION
       48     4106                   AT THE STEP STOPPER.  THE STEP ACTIVE BIT IS SET
       49     4107                   INACTIVE.  THE ALTERNATE RETURN IS TAKEN IF THE STEP
       50     4108                   STOPPER IS NOT ACTIVE.
       51     4109                   */
       52     4110    1   DDB$STEPRESET: ENTRY ALTRET;
       53     4111    1        IF NOT S_D.S$TEP.ACTIVE
       54     4112    1        THEN ALTRETURN;
       55     4113    1        IF S_D.S$TEP.DOING_SOC THEN S_D.S$TEP.ONE_FLAG = '0'B; /* done with SOC */
       56     4114    1        IF S_D.S$TEP.OLD_PTR$ ~= ADDR(NIL)
       57     4115    2        THEN DO;                           /* RESET INHIBIT BIT */
       58     4116    2             JUNK = S_D.S$TEP.OLD_PTR$->INSTR & '777777777577'O;
       59     4117    2             CALL DDC$PUTONE(S_D.S$TEP.OLD_PTR$, JUNK) ALTRET(BAD_PUT);
       60     4118    2           END;
       61     4119    1        S_D.S$TEP.ACTIVE = '0'B;
       62     4120    1        CALL DDC$PUTONE(PINCRW(UIS$,S_D.S$TEP.LOC),S_D.S$TEP.SAVED) ALTRET(BAD_PUT);
       63     4121    1        IF S_D.S$TEP.ALT THEN CALL DDC$PUTONE(PINCRW(UIS$,S_D.S$TEP.ALTLOC), S_D.S$TEP.
              4121                 ALTSAVED) ALTRET(BAD_PUT);
       64     4122    1        RETURN;
       65     4123        /*D* NAME:  DDB$XEQRESET
       66     4124             CALL:  CALL DDB$XEQRESET ALTRETURN(NOTXEQ)
       67     4125             DESCRIPTION:  IF XEQ MODE IS OFF, ALT RETURN IS TAKEN.
       68     4126                    IF ON, THEN THE INSTRUCTION WHICH MAY HAVE BEEN
       69     4127                    DERAILED BY THE XEQ STOPPER IS RESTORED.  NOTE
       70     4128                    THAT THIS HAPPENS ONLY IF THE INSTRUCTION WHICH
PL6.E3A0      #001=DDB$RESET File=DDB$RESET.:E05TSI                              TUE 07/29/97 13:45 Page:3
       71     4129                    WAS XEQ'D WAS A TRANSFER INSTRUCTION. FOR NON-
       72     4130                    TRANSFER INSTRUCTIONS, THE RESTORING WILL PUT
       73     4131                    SOMETHING INTO THE SPECIAL LOCATION (+LENGTH)..
       74     4132                    WITHOUT HURTING ANYTHING.  */
       75     4133    1   DDB$XEQRESET: ENTRY ALTRET;
       76     4134    1        IF S_D.X$EQ.ACTIVE  = '0'B
       77     4135    1        THEN ALTRETURN;
       78     4136    1        S_D.X$EQ.ACTIVE  = '0'B;
       79     4137    1        CALL DDC$PUTONE(PINCRW(UIS$, S_D.X$EQ.LOC), S_D.X$EQ.SAVED) ALTRET(BAD_PUT);
       80     4138    1        RETURN;
       81     4139    1   DDB$WHENRESET: ENTRY ALTRET;
       82     4140    1        IF S_D.WHEN_ACTIVE = '0'B THEN ALTRETURN;
       83     4141    1        S_D.WHEN_ACTIVE = '0'B;
       84     4142    1        CALL DDC$PUTONE(PINCRW(UIS$, S_D.WHEN_IC), S_D.WHEN_INS) ALTRET(BAD_PUT);
       85     4143    1        RETURN;
       86     4144    1   BAD_PUT: ;
       87     4145                                 /* CANT RESTORE A DERAILED INSTRUCTION....A VERY BAD
       88     4146                       OMEN. SET THE FRAME INACTIVE, ISSUE A MESSAGE, AND ALTRETURN...
       89     4147                       I GUESS.  */
       90     4148    1        CALL DDE$ERROR;
       91     4149    1        ALTRETURN;
       92     4150    1   END DDB$RESET;

PL6.E3A0      #001=DDB$RESET File=DDB$RESET.:E05TSI                              TUE 07/29/97 13:45 Page:4
--  Include file information  --

   DD_SD_M.:E05TOU  is referenced.
   XUH_MACRO_C.:E05TOU  is referenced.
   DD$BASED.:E05TOU  is referenced.
   B$JIT_C.:E05TOU  was found in the system file and is never referenced.
   CP_6_C.:E05TOU  was found in the system file and is never referenced.
      No diagnostics issued in procedure DDB$RESET.

   Procedure DDB$RESET requires 186 words for executable code.
   Procedure DDB$RESET requires 8 words of local(AUTO) storage.

    No errors detected in file DDB$RESET.:E05TSI    .

PL6.E3A0      #001=DDB$RESET File=DDB$RESET.:E05TSI                              TUE 07/29/97 13:45 Page:5

 Object Unit name= DDB$RESET                                  File name= DDB$RESET.:E05TOU
 UTS= JUL 29 '97 13:45:52.52 TUE                              Compiler= PL-6/E31         Sev=      00
 SharedLib= :SHARED_SYSTEM                                    Alt SharedLib=


    ****  Control sections  ****

 Sect   Type Bound  Init  Size OctSiz  Section name(segment info)
    0  RoData even  UTS      1      1  DDB$RESET
    1   Proc  even  none   186    272  DDB$RESET
    2  RoData even  none     1      1  DDB$RESET

    ****  Entry defs  ****

                              Check   Calling
                             calling  sequence
  Sect OctLoc Primary Altret sequence   type   Parms  Name
     1      0   yes    yes     yes      Std        0  DDB$RESET
     1      3          yes     yes      Std        0  DDB$TTRESET
     1     53          yes     yes      Std        0  DDB$EISRESET
     1    121          yes     yes      Std        0  DDB$STEPRESET
     1    214          yes     yes      Std        0  DDB$XEQRESET
     1    241          yes     yes      Std        0  DDB$WHENRESET

  ****  Entry refs  ****

         Check        Calling
        calling       sequence
Altret sequence SRef   type   Args  Name
 yes     yes           Std       2 DDC$PUTONE
         yes           Std       0 DDE$ERROR
                       nStd      0 X66_AUTO_0
                       Std       0 B_CONSPOOL_D
                       nStd      0 X66_ARET
                       nStd      0 X66_AALT
PL6.E3A0      #001=DDB$RESET File=DDB$RESET.:E05TSI                              TUE 07/29/97 13:45 Page:6

  ****  Data refs  ****

  Flags:  r = read only, s = secondary
Flgs Name                             Flgs Name                             Flgs Name
r    S_D$                                  UIS$                                  B_VECTNIL
PL6.E3A0      #001=DDB$RESET File=DDB$RESET.:E05TSI                              TUE 07/29/97 13:45 Page:7


        1        1        /*M* DDB$RESET . */
        2        2        /*T***********************************************************/
        3        3        /*T*                                                         */
        4        4        /*T* Copyright (c) Bull HN Information Systems Inc., 1997    */
        5        5        /*T*                                                         */
        6        6        /*T***********************************************************/
        7        7        /*X* DMR,PLM=5,IND=5,CSU=3,EXM=0,ECU=3,MOC,DCI=5,CRT=5 */
        8        8        DDB$RESET: PROC ALTRET;

      8  1 000000   000000 700200 xent  DDB$RESET    TSX0  ! X66_AUTO_0
         1 000001   000010 000000                    ZERO    8,0
         1 000002   000005 710000 1                  TRA     s:4086

        9        9    1   DCL INS SBIN BASED;
       10       10    1   DCL JUNK BIT(36);
       11       11        %INCLUDE DD$BASED;
       12     1314        %HOST_INSTR(NAME=INSTR);
       13     1336        %INCLUDE XUH_MACRO_C;
       14     1420        %INCLUDE DD_SD_M;
       15     2756        %S_D;
       16     4074    1   DCL UIS$ PTR SYMREF;
       17     4075    1   DCL DDC$PUTONE ENTRY(2) ALTRET;
       18     4076    1   DCL DDE$ERROR ENTRY;
       19     4077        /*D* NAME:  DDB$EISRESET
       20     4078             CALL:  CALL DDB$EISRESET ALRET(NOTEIS)
       21     4079             DESCRIPTION:  DDB$EISRESET RESTORES THE INSTRUCTION
       22     4080                    AT THE LOCATION DERAILED BY THE EIS-STOPPER.
       23     4081                    THE EIS-STOPPER ACTIVE BIT IS SET INACTIVE.
       24     4082                    THE ALTERNATE RETURN IS TAKEN IF THE EIS-STOPPER IS
       25     4083                    NOT ACTIVE.
       26     4084                    */
       27     4085    1   DDB$TTRESET: ENTRY ALTRET;

   4085  1 000003   000000 700200 xent  DDB$TTRESET  TSX0  ! X66_AUTO_0
         1 000004   000010 000000                    ZERO    8,0

PL6.E3A0      #001=DDB$RESET File=DDB$RESET.:E05TSI                              TUE 07/29/97 13:45 Page:8
       28     4086    2        IF S_D.T$T.ACTIVE AND S_D.T$T.LOC_SAVED THEN DO;

   4086  1 000005   000000 470400 xsym               LDP0    S_D$
         1 000006   004707 234100                    SZN     2503,,PR0
         1 000007   000052 605000 1                  TPL     s:4094
         1 000010   004710 234100                    SZN     2504,,PR0
         1 000011   000052 605000 1                  TPL     s:4094

       29     4087    2             CALL DDC$PUTONE(PINCRW(UIS$, S_D.T$T.SAVELOC), S_D.T$T.SAVEINS)  ALTRET(
              4087                      BAD_PUT);

   4087  1 000012   004714 220100                    LDX0    2508,,PR0
         1 000013   000000 636010                    EAQ     0,X0
         1 000014   000000 036000 xsym               ADLQ    UIS$
         1 000015   200004 756100                    STQ     JUNK+1,,AUTO
         1 000016   000000 236000 xsym               LDQ     S_D$
         1 000017   004713 036003                    ADLQ    2507,DU
         1 000020   200007 756100                    STQ     JUNK+4,,AUTO
         1 000021   200004 631500                    EPPR1   JUNK+1,,AUTO
         1 000022   200006 451500                    STP1    JUNK+3,,AUTO
         1 000023   200006 630500                    EPPR0   JUNK+3,,AUTO
         1 000024   000020 631400 xsym               EPPR1   B_VECTNIL+16
         1 000025   000000 701000 xent               TSX1    DDC$PUTONE
         1 000026   000266 702000 1                  TSX2    BAD_PUT

       30     4088    2             S_D.T$T.LOC_SAVED = '0'B;

   4088  1 000027   000000 470400 xsym               LDP0    S_D$
         1 000030   004710 450100                    STZ     2504,,PR0

       31     4089    3             IF S_D.T$T.RET_SAVED THEN DO;

   4089  1 000031   004711 234100                    SZN     2505,,PR0
         1 000032   000052 605000 1                  TPL     s:4094

       32     4090    3                 CALL DDC$PUTONE (PINCRW(UIS$, S_D.T$T.RETLOC), S_D.T$T.RETINS) ALTRET
              4090                           (BAD_PUT);
PL6.E3A0      #001=DDB$RESET File=DDB$RESET.:E05TSI                              TUE 07/29/97 13:45 Page:9

   4090  1 000033   004714 720100                    LXL0    2508,,PR0
         1 000034   000000 636010                    EAQ     0,X0
         1 000035   000000 036000 xsym               ADLQ    UIS$
         1 000036   200004 756100                    STQ     JUNK+1,,AUTO
         1 000037   000000 236000 xsym               LDQ     S_D$
         1 000040   004715 036003                    ADLQ    2509,DU
         1 000041   200007 756100                    STQ     JUNK+4,,AUTO
         1 000042   200004 631500                    EPPR1   JUNK+1,,AUTO
         1 000043   200006 451500                    STP1    JUNK+3,,AUTO
         1 000044   200006 630500                    EPPR0   JUNK+3,,AUTO
         1 000045   000020 631400 xsym               EPPR1   B_VECTNIL+16
         1 000046   000000 701000 xent               TSX1    DDC$PUTONE
         1 000047   000266 702000 1                  TSX2    BAD_PUT

       33     4091    3                  S_D.T$T.RET_SAVED = '0'B;

   4091  1 000050   000000 470400 xsym               LDP0    S_D$
         1 000051   004711 450100                    STZ     2505,,PR0

       34     4092    3                END;

       35     4093    2           END;

       36     4094    1        RETURN;

   4094  1 000052   000000 702200 xent               TSX2  ! X66_ARET

       37     4095    1   DDB$EISRESET: ENTRY ALTRET;

   4095  1 000053   000000 700200 xent  DDB$EISRESET TSX0  ! X66_AUTO_0
         1 000054   000010 000000                    ZERO    8,0

       38     4096    1        IF NOT S_D.E$IS.ACTIVE

   4096  1 000055   000000 470400 xsym               LDP0    S_D$
         1 000056   004657 234100                    SZN     2479,,PR0
PL6.E3A0      #001=DDB$RESET File=DDB$RESET.:E05TSI                              TUE 07/29/97 13:45 Page:10
         1 000057   000061 604000 1                  TMI     s:4098

       39     4097    1        THEN ALTRETURN;

   4097  1 000060   000000 702200 xent               TSX2  ! X66_AALT

       40     4098    1        S_D.E$IS.ACTIVE = '0'B;

   4098  1 000061   004657 450100                    STZ     2479,,PR0

       41     4099    1        CALL DDC$PUTONE(PINCRW(UIS$, S_D.E$IS.LOC), S_D.E$IS.SAVED) ALTRET(BAD_PUT);

   4099  1 000062   004660 720100                    LXL0    2480,,PR0
         1 000063   000000 636010                    EAQ     0,X0
         1 000064   000000 036000 xsym               ADLQ    UIS$
         1 000065   200004 756100                    STQ     JUNK+1,,AUTO
         1 000066   000000 236000 xsym               LDQ     S_D$
         1 000067   004661 036003                    ADLQ    2481,DU
         1 000070   200007 756100                    STQ     JUNK+4,,AUTO
         1 000071   200004 631500                    EPPR1   JUNK+1,,AUTO
         1 000072   200006 451500                    STP1    JUNK+3,,AUTO
         1 000073   200006 630500                    EPPR0   JUNK+3,,AUTO
         1 000074   000020 631400 xsym               EPPR1   B_VECTNIL+16
         1 000075   000000 701000 xent               TSX1    DDC$PUTONE
         1 000076   000266 702000 1                  TSX2    BAD_PUT

       42     4100    1        IF S_D.E$IS.C.JUNK(0) = 1 THEN

   4100  1 000077   000000 470400 xsym               LDP0    S_D$
         1 000100   004662 235100                    LDA     2482,,PR0
         1 000101   000001 115007                    CMPA    1,DL
         1 000102   000120 601000 1                  TNZ     s:4102

       43     4101    1             CALL DDC$PUTONE( PINCRW(UIS$,S_D.E$IS.LOC+1), S_D.E$IS.C.JUNK(1)) ALTRET(
              4101                      BAD_PUT);

   4101  1 000103   004660 720100                    LXL0    2480,,PR0
PL6.E3A0      #001=DDB$RESET File=DDB$RESET.:E05TSI                              TUE 07/29/97 13:45 Page:11
         1 000104   000001 636010                    EAQ     1,X0
         1 000105   000000 036000 xsym               ADLQ    UIS$
         1 000106   200004 756100                    STQ     JUNK+1,,AUTO
         1 000107   000000 236000 xsym               LDQ     S_D$
         1 000110   004663 036003                    ADLQ    2483,DU
         1 000111   200007 756100                    STQ     JUNK+4,,AUTO
         1 000112   200004 631500                    EPPR1   JUNK+1,,AUTO
         1 000113   200006 451500                    STP1    JUNK+3,,AUTO
         1 000114   200006 630500                    EPPR0   JUNK+3,,AUTO
         1 000115   000020 631400 xsym               EPPR1   B_VECTNIL+16
         1 000116   000000 701000 xent               TSX1    DDC$PUTONE
         1 000117   000266 702000 1                  TSX2    BAD_PUT

       44     4102    1        RETURN;

   4102  1 000120   000000 702200 xent               TSX2  ! X66_ARET

       45     4103        /*D* NAME: STEPRESET
       46     4104             CALL: CALL DDB$STEPRESET ALTRET(NOTSTEP)
       47     4105             DESCRIPTION:  DDB$STEPRESET RESTORES THE INSTRUCTION
       48     4106                   AT THE STEP STOPPER.  THE STEP ACTIVE BIT IS SET
       49     4107                   INACTIVE.  THE ALTERNATE RETURN IS TAKEN IF THE STEP
       50     4108                   STOPPER IS NOT ACTIVE.
       51     4109                   */
       52     4110    1   DDB$STEPRESET: ENTRY ALTRET;

   4110  1 000121   000000 700200 xent  DDB$STEPRES* TSX0  ! X66_AUTO_0
         1 000122   000010 000000                    ZERO    8,0

       53     4111    1        IF NOT S_D.S$TEP.ACTIVE

   4111  1 000123   000000 470400 xsym               LDP0    S_D$
         1 000124   005276 234100                    SZN     2750,,PR0
         1 000125   000127 604000 1                  TMI     s:4113

       54     4112    1        THEN ALTRETURN;

PL6.E3A0      #001=DDB$RESET File=DDB$RESET.:E05TSI                              TUE 07/29/97 13:45 Page:12
   4112  1 000126   000000 702200 xent               TSX2  ! X66_AALT

       55     4113    1        IF S_D.S$TEP.DOING_SOC THEN S_D.S$TEP.ONE_FLAG = '0'B; /* done with SOC */

   4113  1 000127   005277 236100                    LDQ     2751,,PR0
         1 000130   100000 316003                    CANQ    32768,DU
         1 000131   000134 600000 1                  TZE     s:4114

   4113  1 000132   000000 236000 2                  LDQ     0
         1 000133   005277 356100                    ANSQ    2751,,PR0

       56     4114    1        IF S_D.S$TEP.OLD_PTR$ ~= ADDR(NIL)

   4114  1 000134   005305 236100                    LDQ     2757,,PR0
         1 000135   000001 116000 xsym               CMPQ    B_VECTNIL+1
         1 000136   000154 600000 1                  TZE     s:4119

       57     4115    2        THEN DO;                           /* RESET INHIBIT BIT */

       58     4116    2             JUNK = S_D.S$TEP.OLD_PTR$->INSTR & '777777777577'O;

   4116  1 000137   005305 471500                    LDP1    2757,,PR0
         1 000140   100000 236100                    LDQ     0,,PR1
         1 000141   000000 376000 0                  ANQ     0
         1 000142   200003 756100                    STQ     JUNK,,AUTO

       59     4117    2             CALL DDC$PUTONE(S_D.S$TEP.OLD_PTR$, JUNK) ALTRET(BAD_PUT);

   4117  1 000143   200003 633500                    EPPR3   JUNK,,AUTO
         1 000144   200005 453500                    STP3    JUNK+2,,AUTO
         1 000145   000000 236000 xsym               LDQ     S_D$
         1 000146   005305 036003                    ADLQ    2757,DU
         1 000147   200004 756100                    STQ     JUNK+1,,AUTO
         1 000150   200004 630500                    EPPR0   JUNK+1,,AUTO
         1 000151   000020 631400 xsym               EPPR1   B_VECTNIL+16
         1 000152   000000 701000 xent               TSX1    DDC$PUTONE
         1 000153   000266 702000 1                  TSX2    BAD_PUT
PL6.E3A0      #001=DDB$RESET File=DDB$RESET.:E05TSI                              TUE 07/29/97 13:45 Page:13

       60     4118    2           END;

       61     4119    1        S_D.S$TEP.ACTIVE = '0'B;

   4119  1 000154   000000 470400 xsym               LDP0    S_D$
         1 000155   005276 450100                    STZ     2750,,PR0

       62     4120    1        CALL DDC$PUTONE(PINCRW(UIS$,S_D.S$TEP.LOC),S_D.S$TEP.SAVED) ALTRET(BAD_PUT);

   4120  1 000156   005300 720100                    LXL0    2752,,PR0
         1 000157   000000 636010                    EAQ     0,X0
         1 000160   000000 036000 xsym               ADLQ    UIS$
         1 000161   200004 756100                    STQ     JUNK+1,,AUTO
         1 000162   000000 236000 xsym               LDQ     S_D$
         1 000163   005302 036003                    ADLQ    2754,DU
         1 000164   200007 756100                    STQ     JUNK+4,,AUTO
         1 000165   200004 631500                    EPPR1   JUNK+1,,AUTO
         1 000166   200006 451500                    STP1    JUNK+3,,AUTO
         1 000167   200006 630500                    EPPR0   JUNK+3,,AUTO
         1 000170   000020 631400 xsym               EPPR1   B_VECTNIL+16
         1 000171   000000 701000 xent               TSX1    DDC$PUTONE
         1 000172   000266 702000 1                  TSX2    BAD_PUT

       63     4121    1       IF S_D.S$TEP.ALT THEN CALL DDC$PUTONE(PINCRW(UIS$,S_D.S$TEP.ALTLOC), S_D.S$TEP.
              4121                 ALTSAVED) ALTRET(BAD_PUT);

   4121  1 000173   000000 470400 xsym               LDP0    S_D$
         1 000174   005277 234100                    SZN     2751,,PR0
         1 000175   000213 605000 1                  TPL     s:4122

   4121  1 000176   005301 720100                    LXL0    2753,,PR0
         1 000177   000000 636010                    EAQ     0,X0
         1 000200   000000 036000 xsym               ADLQ    UIS$
         1 000201   200004 756100                    STQ     JUNK+1,,AUTO
         1 000202   000000 236000 xsym               LDQ     S_D$
         1 000203   005303 036003                    ADLQ    2755,DU
PL6.E3A0      #001=DDB$RESET File=DDB$RESET.:E05TSI                              TUE 07/29/97 13:45 Page:14
         1 000204   200007 756100                    STQ     JUNK+4,,AUTO
         1 000205   200004 631500                    EPPR1   JUNK+1,,AUTO
         1 000206   200006 451500                    STP1    JUNK+3,,AUTO
         1 000207   200006 630500                    EPPR0   JUNK+3,,AUTO
         1 000210   000020 631400 xsym               EPPR1   B_VECTNIL+16
         1 000211   000000 701000 xent               TSX1    DDC$PUTONE
         1 000212   000266 702000 1                  TSX2    BAD_PUT

       64     4122    1        RETURN;

   4122  1 000213   000000 702200 xent               TSX2  ! X66_ARET

       65     4123        /*D* NAME:  DDB$XEQRESET
       66     4124             CALL:  CALL DDB$XEQRESET ALTRETURN(NOTXEQ)
       67     4125             DESCRIPTION:  IF XEQ MODE IS OFF, ALT RETURN IS TAKEN.
       68     4126                    IF ON, THEN THE INSTRUCTION WHICH MAY HAVE BEEN
       69     4127                    DERAILED BY THE XEQ STOPPER IS RESTORED.  NOTE
       70     4128                    THAT THIS HAPPENS ONLY IF THE INSTRUCTION WHICH
       71     4129                    WAS XEQ'D WAS A TRANSFER INSTRUCTION. FOR NON-
       72     4130                    TRANSFER INSTRUCTIONS, THE RESTORING WILL PUT
       73     4131                    SOMETHING INTO THE SPECIAL LOCATION (+LENGTH)..
       74     4132                    WITHOUT HURTING ANYTHING.  */
       75     4133    1   DDB$XEQRESET: ENTRY ALTRET;

   4133  1 000214   000000 700200 xent  DDB$XEQRESET TSX0  ! X66_AUTO_0
         1 000215   000010 000000                    ZERO    8,0

       76     4134    1        IF S_D.X$EQ.ACTIVE  = '0'B

   4134  1 000216   000000 470400 xsym               LDP0    S_D$
         1 000217   004646 234100                    SZN     2470,,PR0
         1 000220   000222 604000 1                  TMI     s:4136

       77     4135    1        THEN ALTRETURN;

   4135  1 000221   000000 702200 xent               TSX2  ! X66_AALT

PL6.E3A0      #001=DDB$RESET File=DDB$RESET.:E05TSI                              TUE 07/29/97 13:45 Page:15
       78     4136    1        S_D.X$EQ.ACTIVE  = '0'B;

   4136  1 000222   004646 450100                    STZ     2470,,PR0

       79     4137    1        CALL DDC$PUTONE(PINCRW(UIS$, S_D.X$EQ.LOC), S_D.X$EQ.SAVED) ALTRET(BAD_PUT);

   4137  1 000223   004647 720100                    LXL0    2471,,PR0
         1 000224   000000 636010                    EAQ     0,X0
         1 000225   000000 036000 xsym               ADLQ    UIS$
         1 000226   200004 756100                    STQ     JUNK+1,,AUTO
         1 000227   000000 236000 xsym               LDQ     S_D$
         1 000230   004651 036003                    ADLQ    2473,DU
         1 000231   200007 756100                    STQ     JUNK+4,,AUTO
         1 000232   200004 631500                    EPPR1   JUNK+1,,AUTO
         1 000233   200006 451500                    STP1    JUNK+3,,AUTO
         1 000234   200006 630500                    EPPR0   JUNK+3,,AUTO
         1 000235   000020 631400 xsym               EPPR1   B_VECTNIL+16
         1 000236   000000 701000 xent               TSX1    DDC$PUTONE
         1 000237   000266 702000 1                  TSX2    BAD_PUT

       80     4138    1        RETURN;

   4138  1 000240   000000 702200 xent               TSX2  ! X66_ARET

       81     4139    1   DDB$WHENRESET: ENTRY ALTRET;

   4139  1 000241   000000 700200 xent  DDB$WHENRES* TSX0  ! X66_AUTO_0
         1 000242   000010 000000                    ZERO    8,0

       82     4140    1        IF S_D.WHEN_ACTIVE = '0'B THEN ALTRETURN;

   4140  1 000243   000000 470400 xsym               LDP0    S_D$
         1 000244   005320 234100                    SZN     2768,,PR0
         1 000245   000247 604000 1                  TMI     s:4141

   4140  1 000246   000000 702200 xent               TSX2  ! X66_AALT

PL6.E3A0      #001=DDB$RESET File=DDB$RESET.:E05TSI                              TUE 07/29/97 13:45 Page:16
       83     4141    1        S_D.WHEN_ACTIVE = '0'B;

   4141  1 000247   005320 450100                    STZ     2768,,PR0

       84     4142    1        CALL DDC$PUTONE(PINCRW(UIS$, S_D.WHEN_IC), S_D.WHEN_INS) ALTRET(BAD_PUT);

   4142  1 000250   005316 720100                    LXL0    2766,,PR0
         1 000251   000000 636010                    EAQ     0,X0
         1 000252   000000 036000 xsym               ADLQ    UIS$
         1 000253   200004 756100                    STQ     JUNK+1,,AUTO
         1 000254   000000 236000 xsym               LDQ     S_D$
         1 000255   005317 036003                    ADLQ    2767,DU
         1 000256   200007 756100                    STQ     JUNK+4,,AUTO
         1 000257   200004 631500                    EPPR1   JUNK+1,,AUTO
         1 000260   200006 451500                    STP1    JUNK+3,,AUTO
         1 000261   200006 630500                    EPPR0   JUNK+3,,AUTO
         1 000262   000020 631400 xsym               EPPR1   B_VECTNIL+16
         1 000263   000000 701000 xent               TSX1    DDC$PUTONE
         1 000264   000266 702000 1                  TSX2    BAD_PUT

       85     4143    1        RETURN;

   4143  1 000265   000000 702200 xent               TSX2  ! X66_ARET

   4141  1 000266                       BAD_PUT      null
       86     4144    1   BAD_PUT: ;
       87     4145                                 /* CANT RESTORE A DERAILED INSTRUCTION....A VERY BAD
       88     4146                       OMEN. SET THE FRAME INACTIVE, ISSUE A MESSAGE, AND ALTRETURN...
       89     4147                       I GUESS.  */
       90     4148    1        CALL DDE$ERROR;

   4148  1 000266   000002 631400 xsym               EPPR1   B_VECTNIL+2
         1 000267   000000 701000 xent               TSX1    DDE$ERROR
         1 000270   000000 011000                    NOP     0

       91     4149    1        ALTRETURN;

PL6.E3A0      #001=DDB$RESET File=DDB$RESET.:E05TSI                              TUE 07/29/97 13:45 Page:17
   4149  1 000271   000000 702200 xent               TSX2  ! X66_AALT

(unnamed)
 Sect OctLoc
   0     000   777777 777577                                                    ....

(unnamed)
 Sect OctLoc
   2     000   577777 777777                                                    ....
       92     4150    1   END DDB$RESET;

PL6.E3A0      #001=DDB$RESET File=DDB$RESET.:E05TSI                              TUE 07/29/97 13:45 Page:18
--  Include file information  --

   DD_SD_M.:E05TOU  is referenced.
   XUH_MACRO_C.:E05TOU  is referenced.
   DD$BASED.:E05TOU  is referenced.
   B$JIT_C.:E05TOU  was found in the system file and is never referenced.
   CP_6_C.:E05TOU  was found in the system file and is never referenced.
      No diagnostics issued in procedure DDB$RESET.

   Procedure DDB$RESET requires 186 words for executable code.
   Procedure DDB$RESET requires 8 words of local(AUTO) storage.

    No errors detected in file DDB$RESET.:E05TSI    .
PL6.E3A0      #001=DDB$RESET File=DDB$RESET.:E05TSI                              TUE 07/29/97 13:45 Page:19
          *** CROSS REFERENCE LISTING ***
**     DENOTES     IDENTIFIER DEFINITION
<<                 IDENTIFIER'S VALUE SET
>>                 IDENTIFIER'S VALUE USED
<>                 IDENTIFIER SET AND/OR USED
--                 IDENTIFIER REFERENCED
PL6.E3A0      #001=DDB$RESET File=DDB$RESET.:E05TSI                              TUE 07/29/97 13:45 Page:20
          MINI XREF LISTING

BAD_PUT
      4141**LABEL    4087--CALLALT  4090--CALLALT  4099--CALLALT  4101--CALLALT  4117--CALLALT  4120--CALLALT
      4121--CALLALT  4137--CALLALT  4142--CALLALT
DDC$PUTONE
      4075**DCL-ENT  4087--CALL     4090--CALL     4099--CALL     4101--CALL     4117--CALL     4120--CALL
      4121--CALL     4137--CALL     4142--CALL
DDE$ERROR
      4076**DCL-ENT  4148--CALL
INSTR
      1315**DCL      4116>>ASSIGN
INSTR.TAG.TD
      1331**DCL      1332--REDEF
INSTR.TAGG
      1328**DCL      1329--REDEF
INSTR.Y
      1316**DCL      1317--REDEF    1320--REDEF
JUNK
        10**DCL      4116<<ASSIGN   4117<>CALL
S_D.CURRENT_CHANNEL
      3708**DCL      3710--REDEF
S_D.DEBUGA
      2860**DCL      2862--REDEF
S_D.E$IS.ACTIVE
      3273**DCL      4096>>IF       4098<<ASSIGN
S_D.E$IS.C.JUNK
      3277**DCL      4100>>IF       4101<>CALL
S_D.E$IS.LOC
      3274**DCL      4099>>CALL     4101>>CALL
S_D.E$IS.SAVED
      3275**DCL      4099<>CALL
S_D.EIS
      3818**DCL      3847--REDEF
PL6.E3A0      #001=DDB$RESET File=DDB$RESET.:E05TSI                              TUE 07/29/97 13:45 Page:21
S_D.HOST_MESSAGE_BUF_REMOTE
      3751**DCL      3752--REDEF    3766--REDEF
S_D.JDE
      3365**DCL      3366--REDEF
S_D.L$.VALUE
      2918**DCL      2924--REDEF    2932--REDEF    2935--REDEF    2938--REDEF    2941--REDEF
S_D.L$.VALUE.L
      2919**DCL      2920--REDEF    2921--REDEF
S_D.L6_MESSAGE_BUF
      3772**DCL      3774--REDEF
S_D.OUTPUT
      3738**DCL      3740--REDEF
S_D.REMOTE_MSG.FNCC
      3757**DCL      3758--REDEF
S_D.REMOTE_MSG.STXC
      3753**DCL      3754--REDEF
S_D.REMOTE_MSG.SUBFNCC
      3761**DCL      3762--REDEF
S_D.S$TEP.ACTIVE
      3660**DCL      4111>>IF       4119<<ASSIGN
S_D.S$TEP.ALT
      3662**DCL      4121>>IF
S_D.S$TEP.ALTLOC
      3671**DCL      4121>>CALL
S_D.S$TEP.ALTSAVED
      3675**DCL      4121<>CALL
S_D.S$TEP.DOING_SOC
      3666**DCL      4113>>IF
S_D.S$TEP.LOC
      3669**DCL      4120>>CALL
S_D.S$TEP.OLD_PTR$
      3679**DCL      4114>>IF       4116>>ASSIGN   4117<>CALL
S_D.S$TEP.ONE_FLAG
      3664**DCL      4113<<ASSIGN
S_D.S$TEP.SAVED
      3673**DCL      4120<>CALL
PL6.E3A0      #001=DDB$RESET File=DDB$RESET.:E05TSI                              TUE 07/29/97 13:45 Page:22
S_D.SV
      2817**DCL      2838--REDEF
S_D.T$T.ACTIVE
      3321**DCL      4086>>IF
S_D.T$T.LOC_SAVED
      3323**DCL      4086>>IF       4088<<ASSIGN
S_D.T$T.RETINS
      3335**DCL      4090<>CALL
S_D.T$T.RETLOC
      3333**DCL      4090>>CALL
S_D.T$T.RET_SAVED
      3325**DCL      4089>>IF       4091<<ASSIGN
S_D.T$T.SAVEINS
      3329**DCL      4087<>CALL
S_D.T$T.SAVELOC
      3331**DCL      4087>>CALL
S_D.WHEN_ACTIVE
      3706**DCL      4140>>IF       4141<<ASSIGN
S_D.WHEN_IC
      3702**DCL      4142>>CALL
S_D.WHEN_INS
      3704**DCL      4142<>CALL
S_D.X$EQ.ACTIVE
      3264**DCL      4134>>IF       4136<<ASSIGN
S_D.X$EQ.LOC
      3265**DCL      4137>>CALL
S_D.X$EQ.SAVED
      3267**DCL      4137<>CALL
S_D$
      4069**DCL      2765--IMP-PTR  4086>>IF       4086>>IF       4087>>CALL     4087>>CALL     4088>>ASSIGN
      4089>>IF       4090>>CALL     4090>>CALL     4091>>ASSIGN   4096>>IF       4098>>ASSIGN   4099>>CALL
      4099>>CALL     4100>>IF       4101>>CALL     4101>>CALL     4111>>IF       4113>>IF       4113>>ASSIGN
      4114>>IF       4116>>ASSIGN   4117>>CALL     4119>>ASSIGN   4120>>CALL     4120>>CALL     4121>>IF
      4121>>CALL     4121>>CALL     4134>>IF       4136>>ASSIGN   4137>>CALL     4137>>CALL     4140>>IF
      4141>>ASSIGN   4142>>CALL     4142>>CALL
UIS$
PL6.E3A0      #001=DDB$RESET File=DDB$RESET.:E05TSI                              TUE 07/29/97 13:45 Page:23
      4074**DCL      4087>>CALL     4090>>CALL     4099>>CALL     4101>>CALL     4120>>CALL     4121>>CALL
      4137>>CALL     4142>>CALL
PL6.E3A0      #001=DDB$RESET File=DDB$RESET.:E05TSI                              TUE 07/29/97 13:45 Page:24
              *** CROSS REFERENCE LISTING ***
    **     DENOTES     IDENTIFIER DEFINITION
    <<                 IDENTIFIER'S VALUE SET
    >>                 IDENTIFIER'S VALUE USED
    <>                 IDENTIFIER SET AND/OR USED
    --                 IDENTIFIER REFERENCED
PL6.E3A0      #001=DDB$RESET File=DDB$RESET.:E05TSI                              TUE 07/29/97 13:45 Page:25
              MINI UREF LISTING

DDB$EISRESET    4095**ENTRY
DDB$RESET       8**PROC
DDB$STEPRESET    4110**ENTRY
DDB$TTRESET    4085**ENTRY
DDB$WHENRESET    4139**ENTRY
DDB$XEQRESET    4133**ENTRY
INS       9**DCL
