VERSION E05

PL6.E3A0      #001=DDB$TEFFADD File=DDB$TEFFADD.:E05TSI                          TUE 07/29/97 13:48 Page:1
        1        1        /*M* DDB$TEFFADD Find transfer instruction effective address */
        2        2        /*T***********************************************************/
        3        3        /*T*                                                         */
        4        4        /*T* Copyright (c) Bull HN Information Systems Inc., 1997    */
        5        5        /*T*                                                         */
        6        6        /*T***********************************************************/
        7        7        /*X* DMR,PLM=5,IND=5,CSU=3,EXM=0,ECU=3,MOC,DCI=5,CRT=5 */
        8        8        /*D*  NAME:  DDB$TEFFADD
        9        9              CALL:  CALL DDB$TEFFADD(INS$,IC) ALTRET
       10       10              INPUT: INS$ POINTS TO A TRANSFER INSTRUCTION
       11       11              OUTPUT:  IC CONTAINS THE EFFECTIVE IC VALUE.
       12       12              DESCRIPTION:  DDB$TEFFADD COMPUTES THE EFFECTIVEE
       13       13                ADDRESS OF A TRANSFER INSTRUCTION. THE ALTERNATE
       14       14                RETURN IS TAKEN IF THE TRANSFER CONTAINS ILLEGAL
       15       15                ADDRESS MODIFICATION (DU OR DL).
       16       16                ALTERNATE RETURN IS ALSO TAKEN IF THE INSTRUCTION
       17       17                HAS IR,RI,IT OR DR MODIFICTION.
       18       18              */
       19       19        DDB$TEFFADD: PROC( INS$, ICB ) ALTRET;
       20       20        %INCLUDE DD$BASED;
       21     1323        %HOST_INSTR(NAME=INSTR);
       22     1345        %HOST_REG$VALUES (NAME=REG$VALUES,STCLASS=BASED);
       23     1358    1   DCL INS$ PTR;
       24     1359    1   DCL ICB BIT(36) ALIGNED;
       25     1360    1   DCL IC REDEF ICB UBIN;
       26     1361    1   DCL TD UBIN;
       27     1362    1   DCL Y UBIN;
       28     1363    1   DCL ISR BIT(72);
       29     1364    1   DCL DRS BIT(72);
       30     1365    1   DCL PPRS PTR;
       31     1366    1   DCL 1 PRS REDEF PPRS,
       32     1367    1         2 LHALF UBIN(18) HALIGNED,
       33     1368    1         2 RHALF UBIN(18) HALIGNED;
       34     1369        %INCLUDE XUH_MACRO_C;
       35     1453        %INCLUDE DD_SD_M;
       36     2789        %S_D;
       37     4107        %INCLUDE DD_SUBS_C;
PL6.E3A0      #001=DDB$TEFFADD File=DDB$TEFFADD.:E05TSI                          TUE 07/29/97 13:48 Page:2
       38     4378    1   DCL UIS$ PTR SYMREF;
       39     4379    1   DCL B$TCB$ PTR SYMREF;
       40     4380        %INCLUDE CP_6;
       41     4461        %B$TCB;
       42     4464        %B$EXCFR;
       43     4482                                                /**/
       44     4483    1        IF INS$->INSTR.TAG.TM = 2          /* IT TYPE */
       45     4484    1          AND INS$->INSTR.TAG.TD = 9       /* I TYPE */
       46     4485    2        THEN DO;
       47     4486    2             IC = PINCRW(UIS$, INS$->INSTR.Y)->INSTR.Y; /* GO INDIRECT */
       48     4487    2             RETURN;
       49     4488    2           END;
       50     4489    1        IF INS$->INSTR.TAGG ~= 32          /* FAULT_TAG */
       51     4490    1          AND INS$->INSTR.TAG.TM ~= R_MOD
       52     4491    1        THEN ALTRETURN;
       53     4492    1        IF INS$->INSTR.AR
       54     4493    2        THEN DO;
       55     4494    2             ISR = B$TCB$ -> B$TCB.STK$ -> B$EXCFR.ISR &
       56     4495    2               '777777600177777777777777'O;
       57     4496    2             DRS = B$TCB$ -> B$TCB.STK$ -> B$EXCFR.DRS(INS$->INSTR.YFIELD.DR) &
       58     4497    2               '777777600177777777777777'O;
       59     4498    2             IF ISR ~= DRS
       60     4499    2             THEN ALTRETURN;
       61     4500    2             PPRS = B$TCB$ -> B$TCB.STK$ -> B$EXCFR.PRS( INS$ -> INSTR.YFIELD.DR);
       62     4501    2             Y = INS$->INSTR.YFIELD.YY + PRS.LHALF;
       63     4502    2           END;
       64     4503    1        ELSE Y=INS$->INSTR.Y;
       65     4504    1        TD = INS$->INSTR.TAG.TD;
       66     4505    2        DO CASE(TD);
       67     4506    2          CASE(0);                         /* NONE */
       68     4507    2             IC = Y;
       69     4508    2          CASE(1);                         /* AU */
       70     4509    2             IC = Y+S_D.UREG$->REG$VALUES.HA.AU;
       71     4510    2          CASE(2);                         /* QU */
       72     4511    2             IC = Y+S_D.UREG$->REG$VALUES.HQ.QU;
       73     4512    2          CASE(3);                         /* DU */
       74     4513    2             ALTRETURN;                    /* ILLEGAL ON TRANSFERS */
PL6.E3A0      #001=DDB$TEFFADD File=DDB$TEFFADD.:E05TSI                          TUE 07/29/97 13:48 Page:3
       75     4514    2          CASE(4);                         /* IC */
       76     4515    2             IC = Y+S_D.SAVEIC;
       77     4516    2          CASE(5);                         /* AL */
       78     4517    2             IC = Y+S_D.UREG$->REG$VALUES.HA.AL;
       79     4518    2          CASE(6);                         /* QL */
       80     4519    2             IC = Y+S_D.UREG$->REG$VALUES.HQ.QL;
       81     4520    2          CASE(7);                         /* DL */
       82     4521    2             ALTRETURN;                    /* ILLEGAL ON TRANSFERS */
       83     4522    2          CASE(8,9,10,11,12,13,14,15);     /* X0 THROUGH X7 */
       84     4523    2             IC = Y+S_D.UREG$->REG$VALUES.X(TD-8);
       85     4524    2          END;
       86     4525    1        ICB = ICB & '000000777777'O;
       87     4526    1        RETURN;
       88     4527    1   END DDB$TEFFADD;

PL6.E3A0      #001=DDB$TEFFADD File=DDB$TEFFADD.:E05TSI                          TUE 07/29/97 13:48 Page:4
--  Include file information  --

   CP_6.:E05TOU  cannot be made into a system file and is referenced.
   DD_SUBS_C.:E05TOU  is referenced.
   DD_SD_M.:E05TOU  is referenced.
   XUH_MACRO_C.:E05TOU  is referenced.
   DD$BASED.:E05TOU  is referenced.
   B$JIT_C.:E05TOU  was found in the system file and is never referenced.
   CP_6_C.:E05TOU  was found in the system file and is referenced.
      No diagnostics issued in procedure DDB$TEFFADD.

   Procedure DDB$TEFFADD requires 158 words for executable code.
   Procedure DDB$TEFFADD requires 14 words of local(AUTO) storage.

    No errors detected in file DDB$TEFFADD.:E05TSI    .

PL6.E3A0      #001=DDB$TEFFADD File=DDB$TEFFADD.:E05TSI                          TUE 07/29/97 13:48 Page:5

 Object Unit name= DDB$TEFFADD                                File name= DDB$TEFFADD.:E05TOU
 UTS= JUL 29 '97 13:48:48.20 TUE                              Compiler= PL-6/E31         Sev=      00
 SharedLib= :SHARED_SYSTEM                                    Alt SharedLib=


    ****  Control sections  ****

 Sect   Type Bound  Init  Size OctSiz  Section name(segment info)
    0   DCB   even  none     0      0  M$UC
    1  RoData even  UTS      3      3  DDB$TEFFADD
    2   Proc  even  none   158    236  DDB$TEFFADD

    ****  Entry defs  ****

                              Check   Calling
                             calling  sequence
  Sect OctLoc Primary Altret sequence   type   Parms  Name
     2      0   yes    yes     yes      Std        2  DDB$TEFFADD

  ****  Entry refs  ****

         Check        Calling
        calling       sequence
Altret sequence SRef   type   Args  Name
                       nStd      0 X66_AUTO_2
                       nStd      0 X66_ARET
                       nStd      0 X66_AALT

  ****  Data refs  ****

  Flags:  r = read only, s = secondary
Flgs Name                             Flgs Name                             Flgs Name
r    S_D$                                  UIS$                                  B$TCB$
     M$UC
PL6.E3A0      #001=DDB$TEFFADD File=DDB$TEFFADD.:E05TSI                          TUE 07/29/97 13:48 Page:6


        1        1        /*M* DDB$TEFFADD Find transfer instruction effective address */
        2        2        /*T***********************************************************/
        3        3        /*T*                                                         */
        4        4        /*T* Copyright (c) Bull HN Information Systems Inc., 1997    */
        5        5        /*T*                                                         */
        6        6        /*T***********************************************************/
        7        7        /*X* DMR,PLM=5,IND=5,CSU=3,EXM=0,ECU=3,MOC,DCI=5,CRT=5 */
        8        8        /*D*  NAME:  DDB$TEFFADD
        9        9              CALL:  CALL DDB$TEFFADD(INS$,IC) ALTRET
       10       10              INPUT: INS$ POINTS TO A TRANSFER INSTRUCTION
       11       11              OUTPUT:  IC CONTAINS THE EFFECTIVE IC VALUE.
       12       12              DESCRIPTION:  DDB$TEFFADD COMPUTES THE EFFECTIVEE
       13       13                ADDRESS OF A TRANSFER INSTRUCTION. THE ALTERNATE
       14       14                RETURN IS TAKEN IF THE TRANSFER CONTAINS ILLEGAL
       15       15                ADDRESS MODIFICATION (DU OR DL).
       16       16                ALTERNATE RETURN IS ALSO TAKEN IF THE INSTRUCTION
       17       17                HAS IR,RI,IT OR DR MODIFICTION.
       18       18              */
       19       19        DDB$TEFFADD: PROC( INS$, ICB ) ALTRET;

     19  2 000000   000000 700200 xent  DDB$TEFFADD  TSX0  ! X66_AUTO_2
         2 000001   000016 000002                    ZERO    14,2

       20       20        %INCLUDE DD$BASED;
       21     1323        %HOST_INSTR(NAME=INSTR);
       22     1345        %HOST_REG$VALUES (NAME=REG$VALUES,STCLASS=BASED);
       23     1358    1   DCL INS$ PTR;
       24     1359    1   DCL ICB BIT(36) ALIGNED;
       25     1360    1   DCL IC REDEF ICB UBIN;
       26     1361    1   DCL TD UBIN;
       27     1362    1   DCL Y UBIN;
       28     1363    1   DCL ISR BIT(72);
       29     1364    1   DCL DRS BIT(72);
       30     1365    1   DCL PPRS PTR;
       31     1366    1   DCL 1 PRS REDEF PPRS,
       32     1367    1         2 LHALF UBIN(18) HALIGNED,
PL6.E3A0      #001=DDB$TEFFADD File=DDB$TEFFADD.:E05TSI                          TUE 07/29/97 13:48 Page:7
       33     1368    1         2 RHALF UBIN(18) HALIGNED;
       34     1369        %INCLUDE XUH_MACRO_C;
       35     1453        %INCLUDE DD_SD_M;
       36     2789        %S_D;
       37     4107        %INCLUDE DD_SUBS_C;
       38     4378    1   DCL UIS$ PTR SYMREF;
       39     4379    1   DCL B$TCB$ PTR SYMREF;
       40     4380        %INCLUDE CP_6;
       41     4461        %B$TCB;
       42     4464        %B$EXCFR;
       43     4482                                                /**/
       44     4483    1        IF INS$->INSTR.TAG.TM = 2          /* IT TYPE */

   4483  2 000002   200003 470500                    LDP0    @INS$,,AUTO
         2 000003   000000 471500                    LDP1    0,,PR0
         2 000004   100000 236100                    LDQ     0,,PR1
         2 000005   000060 376007                    ANQ     48,DL
         2 000006   000040 116007                    CMPQ    32,DL
         2 000007   000023 601000 2                  TNZ     s:4489
         2 000010   100000 236100                    LDQ     0,,PR1
         2 000011   000017 376007                    ANQ     15,DL
         2 000012   000011 116007                    CMPQ    9,DL
         2 000013   000023 601000 2                  TNZ     s:4489

       45     4484    1          AND INS$->INSTR.TAG.TD = 9       /* I TYPE */
       46     4485    2        THEN DO;

       47     4486    2             IC = PINCRW(UIS$, INS$->INSTR.Y)->INSTR.Y; /* GO INDIRECT */

   4486  2 000014   100000 220100                    LDX0    0,,PR1
         2 000015   000000 473400 xsym               LDP3    UIS$
         2 000016   300000 236110                    LDQ     0,X0,PR3
         2 000017   000022 772000                    QRL     18
         2 000020   200004 474500                    LDP4    @ICB,,AUTO
         2 000021   400000 756100                    STQ     0,,PR4

       48     4487    2             RETURN;
PL6.E3A0      #001=DDB$TEFFADD File=DDB$TEFFADD.:E05TSI                          TUE 07/29/97 13:48 Page:8

   4487  2 000022   000000 702200 xent               TSX2  ! X66_ARET

       49     4488    2           END;
       50     4489    1        IF INS$->INSTR.TAGG ~= 32          /* FAULT_TAG */

   4489  2 000023   100000 236100                    LDQ     0,,PR1
         2 000024   000077 376007                    ANQ     63,DL
         2 000025   000040 116007                    CMPQ    32,DL
         2 000026   000033 600000 2                  TZE     s:4492
         2 000027   100000 236100                    LDQ     0,,PR1
         2 000030   000060 316007                    CANQ    48,DL
         2 000031   000033 600000 2                  TZE     s:4492

       51     4490    1          AND INS$->INSTR.TAG.TM ~= R_MOD
       52     4491    1        THEN ALTRETURN;

   4491  2 000032   000000 702200 xent               TSX2  ! X66_AALT

       53     4492    1        IF INS$->INSTR.AR

   4492  2 000033   100000 236100                    LDQ     0,,PR1
         2 000034   000100 316007                    CANQ    64,DL
         2 000035   000110 600000 2                  TZE     s:4503

       54     4493    2        THEN DO;

       55     4494    2             ISR = B$TCB$ -> B$TCB.STK$ -> B$EXCFR.ISR &

   4494  2 000036   000000 473400 xsym               LDP3    B$TCB$
         2 000037   300001 474500                    LDP4    1,,PR3
         2 000040   000100 100500                    MLR     fill='000'O
         2 000041   400010 000010                    ADSC9   8,,PR4                   cn=0,n=8
         2 000042   200014 000010                    ADSC9   PPRS+1,,AUTO             cn=0,n=8
         2 000043   200014 237100                    LDAQ    PPRS+1,,AUTO
         2 000044   000000 377000 1                  ANAQ    0
         2 000045   200007 755100                    STA     ISR,,AUTO
PL6.E3A0      #001=DDB$TEFFADD File=DDB$TEFFADD.:E05TSI                          TUE 07/29/97 13:48 Page:9
         2 000046   200010 756100                    STQ     ISR+1,,AUTO

       56     4495    2               '777777600177777777777777'O;
       57     4496    2             DRS = B$TCB$ -> B$TCB.STK$ -> B$EXCFR.DRS(INS$->INSTR.YFIELD.DR) &

   4496  2 000047   000000 471500                    LDP1    0,,PR0
         2 000050   300001 474500                    LDP4    1,,PR3
         2 000051   100000 236100                    LDQ     0,,PR1
         2 000052   000040 772000                    QRL     32
         2 000053   000016 376007                    ANQ     14,DL
         2 000054   000002 736000                    QLS     2
         2 000055   000100 100506                    MLR     fill='000'O
         2 000056   400030 000010                    ADSC9   24,Q,PR4                 cn=0,n=8
         2 000057   200014 000010                    ADSC9   PPRS+1,,AUTO             cn=0,n=8
         2 000060   200014 237100                    LDAQ    PPRS+1,,AUTO
         2 000061   000000 377000 1                  ANAQ    0
         2 000062   200011 755100                    STA     DRS,,AUTO
         2 000063   200012 756100                    STQ     DRS+1,,AUTO

       58     4497    2               '777777600177777777777777'O;
       59     4498    2             IF ISR ~= DRS

   4498  2 000064   000100 106500                    CMPC    fill='000'O
         2 000065   200007 000010                    ADSC9   ISR,,AUTO                cn=0,n=8
         2 000066   200011 000010                    ADSC9   DRS,,AUTO                cn=0,n=8
         2 000067   000071 600000 2                  TZE     s:4500

       60     4499    2             THEN ALTRETURN;

   4499  2 000070   000000 702200 xent               TSX2  ! X66_AALT

       61     4500    2             PPRS = B$TCB$ -> B$TCB.STK$ -> B$EXCFR.PRS( INS$ -> INSTR.YFIELD.DR);

   4500  2 000071   000000 471500                    LDP1    0,,PR0
         2 000072   300001 474500                    LDP4    1,,PR3
         2 000073   100000 236100                    LDQ     0,,PR1
         2 000074   000041 772000                    QRL     33
PL6.E3A0      #001=DDB$TEFFADD File=DDB$TEFFADD.:E05TSI                          TUE 07/29/97 13:48 Page:10
         2 000075   400020 236106                    LDQ     16,QL,PR4
         2 000076   200013 756100                    STQ     PPRS,,AUTO

       62     4501    2             Y = INS$->INSTR.YFIELD.YY + PRS.LHALF;

   4501  2 000077   200013 235100                    LDA     PPRS,,AUTO
         2 000100   000022 771000                    ARL     18
         2 000101   200014 755100                    STA     PPRS+1,,AUTO
         2 000102   100000 236100                    LDQ     0,,PR1
         2 000103   000003 736000                    QLS     3
         2 000104   000025 732000                    QRS     21
         2 000105   200014 036100                    ADLQ    PPRS+1,,AUTO
         2 000106   200006 756100                    STQ     Y,,AUTO

       63     4502    2           END;

   4502  2 000107   000113 710000 2                  TRA     s:4504

       64     4503    1        ELSE Y=INS$->INSTR.Y;

   4503  2 000110   100000 236100                    LDQ     0,,PR1
         2 000111   000022 772000                    QRL     18
         2 000112   200006 756100                    STQ     Y,,AUTO

       65     4504    1        TD = INS$->INSTR.TAG.TD;

   4504  2 000113   000000 471500                    LDP1    0,,PR0
         2 000114   100000 236100                    LDQ     0,,PR1
         2 000115   000017 376007                    ANQ     15,DL
         2 000116   200005 756100                    STQ     TD,,AUTO

       66     4505    2        DO CASE(TD);

   4505  2 000117   000020 116007                    CMPQ    16,DL
         2 000120   000122 602006 2                  TNC     s:4505+3,QL
         2 000121   000231 710000 2                  TRA     s:4525
         2 000122   000142 710000 2                  TRA     s:4507
PL6.E3A0      #001=DDB$TEFFADD File=DDB$TEFFADD.:E05TSI                          TUE 07/29/97 13:48 Page:11
         2 000123   000146 710000 2                  TRA     s:4509
         2 000124   000156 710000 2                  TRA     s:4511
         2 000125   000166 710000 2                  TRA     s:4513
         2 000126   000167 710000 2                  TRA     s:4515
         2 000127   000175 710000 2                  TRA     s:4517
         2 000130   000205 710000 2                  TRA     s:4519
         2 000131   000215 710000 2                  TRA     s:4521
         2 000132   000216 710000 2                  TRA     s:4523
         2 000133   000216 710000 2                  TRA     s:4523
         2 000134   000216 710000 2                  TRA     s:4523
         2 000135   000216 710000 2                  TRA     s:4523
         2 000136   000216 710000 2                  TRA     s:4523
         2 000137   000216 710000 2                  TRA     s:4523
         2 000140   000216 710000 2                  TRA     s:4523
         2 000141   000216 710000 2                  TRA     s:4523

       67     4506    2          CASE(0);                         /* NONE */

       68     4507    2             IC = Y;

   4507  2 000142   200004 473500                    LDP3    @ICB,,AUTO
         2 000143   200006 235100                    LDA     Y,,AUTO
         2 000144   300000 755100                    STA     0,,PR3
         2 000145   000231 710000 2                  TRA     s:4525

       69     4508    2          CASE(1);                         /* AU */

       70     4509    2             IC = Y+S_D.UREG$->REG$VALUES.HA.AU;

   4509  2 000146   000000 473400 xsym               LDP3    S_D$
         2 000147   300045 474500                    LDP4    37,,PR3
         2 000150   400004 236100                    LDQ     4,,PR4
         2 000151   000022 772000                    QRL     18
         2 000152   200006 036100                    ADLQ    Y,,AUTO
         2 000153   200004 475500                    LDP5    @ICB,,AUTO
         2 000154   500000 756100                    STQ     0,,PR5
         2 000155   000231 710000 2                  TRA     s:4525
PL6.E3A0      #001=DDB$TEFFADD File=DDB$TEFFADD.:E05TSI                          TUE 07/29/97 13:48 Page:12

       71     4510    2          CASE(2);                         /* QU */

       72     4511    2             IC = Y+S_D.UREG$->REG$VALUES.HQ.QU;

   4511  2 000156   000000 473400 xsym               LDP3    S_D$
         2 000157   300045 474500                    LDP4    37,,PR3
         2 000160   400005 236100                    LDQ     5,,PR4
         2 000161   000022 772000                    QRL     18
         2 000162   200006 036100                    ADLQ    Y,,AUTO
         2 000163   200004 475500                    LDP5    @ICB,,AUTO
         2 000164   500000 756100                    STQ     0,,PR5
         2 000165   000231 710000 2                  TRA     s:4525

       73     4512    2          CASE(3);                         /* DU */

       74     4513    2             ALTRETURN;                    /* ILLEGAL ON TRANSFERS */

   4513  2 000166   000000 702200 xent               TSX2  ! X66_AALT

       75     4514    2          CASE(4);                         /* IC */

       76     4515    2             IC = Y+S_D.SAVEIC;

   4515  2 000167   000000 473400 xsym               LDP3    S_D$
         2 000170   200006 236100                    LDQ     Y,,AUTO
         2 000171   300002 036100                    ADLQ    2,,PR3
         2 000172   200004 474500                    LDP4    @ICB,,AUTO
         2 000173   400000 756100                    STQ     0,,PR4
         2 000174   000231 710000 2                  TRA     s:4525

       77     4516    2          CASE(5);                         /* AL */

       78     4517    2             IC = Y+S_D.UREG$->REG$VALUES.HA.AL;

   4517  2 000175   000000 473400 xsym               LDP3    S_D$
         2 000176   300045 474500                    LDP4    37,,PR3
PL6.E3A0      #001=DDB$TEFFADD File=DDB$TEFFADD.:E05TSI                          TUE 07/29/97 13:48 Page:13
         2 000177   400004 236100                    LDQ     4,,PR4
         2 000200   777777 376007                    ANQ     -1,DL
         2 000201   200006 036100                    ADLQ    Y,,AUTO
         2 000202   200004 475500                    LDP5    @ICB,,AUTO
         2 000203   500000 756100                    STQ     0,,PR5
         2 000204   000231 710000 2                  TRA     s:4525

       79     4518    2          CASE(6);                         /* QL */

       80     4519    2             IC = Y+S_D.UREG$->REG$VALUES.HQ.QL;

   4519  2 000205   000000 473400 xsym               LDP3    S_D$
         2 000206   300045 474500                    LDP4    37,,PR3
         2 000207   400005 236100                    LDQ     5,,PR4
         2 000210   777777 376007                    ANQ     -1,DL
         2 000211   200006 036100                    ADLQ    Y,,AUTO
         2 000212   200004 475500                    LDP5    @ICB,,AUTO
         2 000213   500000 756100                    STQ     0,,PR5
         2 000214   000231 710000 2                  TRA     s:4525

       81     4520    2          CASE(7);                         /* DL */

       82     4521    2             ALTRETURN;                    /* ILLEGAL ON TRANSFERS */

   4521  2 000215   000000 702200 xent               TSX2  ! X66_AALT

       83     4522    2          CASE(8,9,10,11,12,13,14,15);     /* X0 THROUGH X7 */

       84     4523    2             IC = Y+S_D.UREG$->REG$VALUES.X(TD-8);

   4523  2 000216   000000 473400 xsym               LDP3    S_D$
         2 000217   300045 474500                    LDP4    37,,PR3
         2 000220   200005 235100                    LDA     TD,,AUTO
         2 000221   000001 735000                    ALS     1
         2 000222   000100 101505                    MRL     fill='000'O
         2 000223   477774 000002                    ADSC9   -4,A,PR4                 cn=0,n=2
         2 000224   200014 000004                    ADSC9   PPRS+1,,AUTO             cn=0,n=4
PL6.E3A0      #001=DDB$TEFFADD File=DDB$TEFFADD.:E05TSI                          TUE 07/29/97 13:48 Page:14
         2 000225   200014 236100                    LDQ     PPRS+1,,AUTO
         2 000226   200006 036100                    ADLQ    Y,,AUTO
         2 000227   200004 471500                    LDP1    @ICB,,AUTO
         2 000230   100000 756100                    STQ     0,,PR1

       85     4524    2          END;

       86     4525    1        ICB = ICB & '000000777777'O;

   4525  2 000231   200004 471500                    LDP1    @ICB,,AUTO
         2 000232   100000 236100                    LDQ     0,,PR1
         2 000233   000002 376000 1                  ANQ     2
         2 000234   100000 756100                    STQ     0,,PR1

       87     4526    1        RETURN;

   4526  2 000235   000000 702200 xent               TSX2  ! X66_ARET

(unnamed)
 Sect OctLoc
   1     000   777777 600177   777777 777777   000000 777777                    ............
       88     4527    1   END DDB$TEFFADD;

PL6.E3A0      #001=DDB$TEFFADD File=DDB$TEFFADD.:E05TSI                          TUE 07/29/97 13:48 Page:15
--  Include file information  --

   CP_6.:E05TOU  cannot be made into a system file and is referenced.
   DD_SUBS_C.:E05TOU  is referenced.
   DD_SD_M.:E05TOU  is referenced.
   XUH_MACRO_C.:E05TOU  is referenced.
   DD$BASED.:E05TOU  is referenced.
   B$JIT_C.:E05TOU  was found in the system file and is never referenced.
   CP_6_C.:E05TOU  was found in the system file and is referenced.
      No diagnostics issued in procedure DDB$TEFFADD.

   Procedure DDB$TEFFADD requires 158 words for executable code.
   Procedure DDB$TEFFADD requires 14 words of local(AUTO) storage.

    No errors detected in file DDB$TEFFADD.:E05TSI    .
PL6.E3A0      #001=DDB$TEFFADD File=DDB$TEFFADD.:E05TSI                          TUE 07/29/97 13:48 Page:16
          *** CROSS REFERENCE LISTING ***
**     DENOTES     IDENTIFIER DEFINITION
<<                 IDENTIFIER'S VALUE SET
>>                 IDENTIFIER'S VALUE USED
<>                 IDENTIFIER SET AND/OR USED
--                 IDENTIFIER REFERENCED
PL6.E3A0      #001=DDB$TEFFADD File=DDB$TEFFADD.:E05TSI                          TUE 07/29/97 13:48 Page:17
          MINI XREF LISTING

B$EXCFR.ASL
      4465**DCL      4465--REDEF
B$EXCFR.DRS
      4476**DCL      4496>>ASSIGN
B$EXCFR.ERR.ERR#
      4479**DCL      4479--REDEF
B$EXCFR.EVID
      4478**DCL      4478--REDEF    4479--REDEF
B$EXCFR.IR
      4466**DCL      4466--REDEF
B$EXCFR.ISR
      4469**DCL      4494>>ASSIGN
B$EXCFR.PREVSZ
      4465**DCL      4465--REDEF
B$EXCFR.PRS
      4476**DCL      4500>>ASSIGN
B$EXCFR.SUBC
      4477**DCL      4477--REDEF    4478--REDEF    4478--REDEF
B$TCB.STK$
      4462**DCL      4494>>ASSIGN   4496>>ASSIGN   4500>>ASSIGN
B$TCB$
      4379**DCL      4494>>ASSIGN   4496>>ASSIGN   4500>>ASSIGN
DRS
      1364**DCL      4496<<ASSIGN   4498>>IF
IC
      1360**DCL      4486<<ASSIGN   4507<<ASSIGN   4509<<ASSIGN   4511<<ASSIGN   4515<<ASSIGN   4517<<ASSIGN
      4519<<ASSIGN   4523<<ASSIGN
ICB
      1359**DCL        19--PROC     1360--REDEF    4525<<ASSIGN   4525>>ASSIGN
INS$
      1358**DCL        19--PROC     4483>>IF       4483>>IF       4486>>ASSIGN   4489>>IF       4489>>IF
      4492>>IF       4496>>ASSIGN   4500>>ASSIGN   4501>>ASSIGN   4503>>ASSIGN   4504>>ASSIGN
PL6.E3A0      #001=DDB$TEFFADD File=DDB$TEFFADD.:E05TSI                          TUE 07/29/97 13:48 Page:18
INSTR.AR
      1336**DCL      4492>>IF
INSTR.TAG.TD
      1340**DCL      1341--REDEF    4483>>IF       4504>>ASSIGN
INSTR.TAG.TM
      1339**DCL      4483>>IF       4489>>IF
INSTR.TAGG
      1337**DCL      1338--REDEF    4489>>IF
INSTR.Y
      1325**DCL      1326--REDEF    1329--REDEF    4486>>ASSIGN   4486>>ASSIGN   4503>>ASSIGN
INSTR.YFIELD.DR
      1327**DCL      4496>>ASSIGN   4500>>ASSIGN
INSTR.YFIELD.YY
      1328**DCL      4501>>ASSIGN
ISR
      1363**DCL      4494<<ASSIGN   4498>>IF
PPRS
      1365**DCL      1366--REDEF    4500<<ASSIGN
PRS.LHALF
      1367**DCL      4501>>ASSIGN
REG$VALUES.A
      1348**DCL      1349--REDEF
REG$VALUES.HA.AL
      1351**DCL      4517>>ASSIGN
REG$VALUES.HA.AU
      1350**DCL      4509>>ASSIGN
REG$VALUES.HQ.QL
      1355**DCL      4519>>ASSIGN
REG$VALUES.HQ.QU
      1354**DCL      4511>>ASSIGN
REG$VALUES.Q
      1352**DCL      1353--REDEF
REG$VALUES.X
      1347**DCL      4523>>ASSIGN
S_D.CURRENT_CHANNEL
      3741**DCL      3743--REDEF
PL6.E3A0      #001=DDB$TEFFADD File=DDB$TEFFADD.:E05TSI                          TUE 07/29/97 13:48 Page:19
S_D.DEBUGA
      2893**DCL      2895--REDEF
S_D.EIS
      3851**DCL      3880--REDEF
S_D.HOST_MESSAGE_BUF_REMOTE
      3784**DCL      3785--REDEF    3799--REDEF
S_D.JDE
      3398**DCL      3399--REDEF
S_D.L$.VALUE
      2951**DCL      2957--REDEF    2965--REDEF    2968--REDEF    2971--REDEF    2974--REDEF
S_D.L$.VALUE.L
      2952**DCL      2953--REDEF    2954--REDEF
S_D.L6_MESSAGE_BUF
      3805**DCL      3807--REDEF
S_D.OUTPUT
      3771**DCL      3773--REDEF
S_D.REMOTE_MSG.FNCC
      3790**DCL      3791--REDEF
S_D.REMOTE_MSG.STXC
      3786**DCL      3787--REDEF
S_D.REMOTE_MSG.SUBFNCC
      3794**DCL      3795--REDEF
S_D.SAVEIC
      2804**DCL      4515>>ASSIGN
S_D.SV
      2850**DCL      2871--REDEF
S_D.UREG$
      2881**DCL      4509>>ASSIGN   4511>>ASSIGN   4517>>ASSIGN   4519>>ASSIGN   4523>>ASSIGN
S_D$
      4102**DCL      2798--IMP-PTR  4509>>ASSIGN   4511>>ASSIGN   4515>>ASSIGN   4517>>ASSIGN   4519>>ASSIGN
      4523>>ASSIGN
TD
      1361**DCL      4504<<ASSIGN   4505>>DOCASE   4523>>ASSIGN
UIS$
      4378**DCL      4486>>ASSIGN
Y
PL6.E3A0      #001=DDB$TEFFADD File=DDB$TEFFADD.:E05TSI                          TUE 07/29/97 13:48 Page:20
      1362**DCL      4501<<ASSIGN   4503<<ASSIGN   4507>>ASSIGN   4509>>ASSIGN   4511>>ASSIGN   4515>>ASSIGN
      4517>>ASSIGN   4519>>ASSIGN   4523>>ASSIGN
PL6.E3A0      #001=DDB$TEFFADD File=DDB$TEFFADD.:E05TSI                          TUE 07/29/97 13:48 Page:21
              *** CROSS REFERENCE LISTING ***
    **     DENOTES     IDENTIFIER DEFINITION
    <<                 IDENTIFIER'S VALUE SET
    >>                 IDENTIFIER'S VALUE USED
    <>                 IDENTIFIER SET AND/OR USED
    --                 IDENTIFIER REFERENCED
PL6.E3A0      #001=DDB$TEFFADD File=DDB$TEFFADD.:E05TSI                          TUE 07/29/97 13:48 Page:22
              MINI UREF LISTING

DDB$TEFFADD      19**PROC
M$ACCT    4406**DCL-ENT
M$ACTIVATE    4409**DCL-ENT
M$ALIB    4402**DCL-ENT
M$ASUSER    4404**DCL-ENT
M$ATTACH    4411**DCL-ENT
M$BADPP    4429**DCL-ENT
M$CGCTL    4410**DCL-ENT
M$CGINFO    4410**DCL-ENT
M$CHECK    4391**DCL-ENT
M$CHGUNIT    4449**DCL-ENT
M$CLOSE    4389**DCL-ENT
M$CLRSTK    4447**DCL-ENT
M$CMDVAR    4458**DCL-ENT
M$CONFIG    4419**DCL-ENT
M$CORRES    4394**DCL-ENT
M$CPEXIT    4403**DCL-ENT
M$CVM    4427**DCL-ENT
M$CVOL    4392**DCL-ENT
M$DCLFLD    4419**DCL-ENT
M$DEACTIVATE    4409**DCL-ENT
M$DELREC    4391**DCL-ENT
M$DEQ    4456**DCL-ENT
M$DETACH    4411**DCL-ENT
M$DEVICE    4393**DCL-ENT
M$DISPLAY    4456**DCL-ENT
M$DISPRES    4396**DCL-ENT
M$DLIB    4402**DCL-ENT
M$DRIBBLE    4419**DCL-ENT
M$DRTN    4447**DCL-ENT
M$DSUSER    4404**DCL-ENT
M$ENQ    4455**DCL-ENT
PL6.E3A0      #001=DDB$TEFFADD File=DDB$TEFFADD.:E05TSI                          TUE 07/29/97 13:48 Page:23
M$EOM    4414**DCL-ENT
M$ERASE    4420**DCL-ENT
M$ERR    4401**DCL-ENT
M$ERRMSG    4452**DCL-ENT
M$EVENT    4444**DCL-ENT
M$EXHUME    4453**DCL-ENT
M$EXIT    4401**DCL-ENT
M$EXTEND    4393**DCL-ENT
M$FDP    4425**DCL-ENT
M$FDS    4424**DCL-ENT
M$FEBOOT    4417**DCL-ENT
M$FECTL    4418**DCL-ENT
M$FEDUMP    4417**DCL-ENT
M$FID    4452**DCL-ENT
M$FINDPROC    4406**DCL-ENT
M$FSUSER    4404**DCL-ENT
M$FVP    4426**DCL-ENT
M$FWCG    4410**DCL-ENT
M$GBPL    4430**DCL-ENT
M$GDDL    4426**DCL-ENT
M$GDP    4425**DCL-ENT
M$GDS    4424**DCL-ENT
M$GETDCB    4395**DCL-ENT
M$GETMOUSE    4435**DCL-ENT
M$GETPM    4436**DCL-ENT
M$GJOB    4454**DCL-ENT
M$GLINEATTR    4414**DCL-ENT
M$GOODPP    4429**DCL-ENT
M$GPLATEN    4422**DCL-ENT
M$GPROMPT    4421**DCL-ENT
M$GTRMATTR    4415**DCL-ENT
M$GTRMCTL    4413**DCL-ENT
M$GTRMTAB    4416**DCL-ENT
M$GVP    4425**DCL-ENT
M$HELP    4452**DCL-ENT
M$INT    4444**DCL-ENT
PL6.E3A0      #001=DDB$TEFFADD File=DDB$TEFFADD.:E05TSI                          TUE 07/29/97 13:48 Page:24
M$INTRTN    4405**DCL-ENT
M$IOQ    4440**DCL-ENT
M$JOBSTATS    4454**DCL-ENT
M$KEYIN    4394**DCL-ENT
M$LDEV    4389**DCL-ENT
M$LDTRC    4402**DCL-ENT
M$LIMIT    4395**DCL-ENT
M$LINES    4394**DCL-ENT
M$LINK    4401**DCL-ENT
M$MADMUCK    4397**DCL-ENT
M$MAKUSER    4428**DCL-ENT
M$MBS    4396**DCL-ENT
M$MDFFLD    4420**DCL-ENT
M$MERC    4445**DCL-ENT
M$MERCS    4446**DCL-ENT
M$MIRROR    4440**DCL-ENT
M$MONINFO    4457**DCL-ENT
M$MPL    4430**DCL-ENT
M$NODEINFO    4421**DCL-ENT
M$NXTUSR    4455**DCL-ENT
M$OCMSG    4453**DCL-ENT
M$OLAY    4401**DCL-ENT
M$OPEN    4389**DCL-ENT
M$PAS    4430**DCL-ENT
M$PATHCON    4453**DCL-ENT
M$PDS    4424**DCL-ENT
M$PFIL    4391**DCL-ENT
M$PLATEN    4415**DCL-ENT
M$PRECORD    4393**DCL-ENT
M$PROCNAME    4406**DCL-ENT
M$PROFILE    4417**DCL-ENT
M$PROMPT    4413**DCL-ENT
M$RACST    4397**DCL-ENT
M$RDSYSLOG    4438**DCL-ENT
M$READ    4390**DCL-ENT
M$RELDCB    4395**DCL-ENT
PL6.E3A0      #001=DDB$TEFFADD File=DDB$TEFFADD.:E05TSI                          TUE 07/29/97 13:48 Page:25
M$RELRES    4396**DCL-ENT
M$RELSTARF    4398**DCL-ENT
M$REM    4398**DCL-ENT
M$RENV    4445**DCL-ENT
M$REQUIRE    4397**DCL-ENT
M$RETRY    4446**DCL-ENT
M$RETRYS    4446**DCL-ENT
M$REW    4392**DCL-ENT
M$RLSFLD    4420**DCL-ENT
M$RPRIV    4448**DCL-ENT
M$RSPP    4427**DCL-ENT
M$RSWITCH    4449**DCL-ENT
M$RUE    4455**DCL-ENT
M$SAD    4428**DCL-ENT
M$SAVE    4404**DCL-ENT
M$SCON    4405**DCL-ENT
M$SCREECH    4403**DCL-ENT
M$SENV    4445**DCL-ENT
M$SETFMA    4389**DCL-ENT
M$SETFP    4418**DCL-ENT
M$SINPUT    4416**DCL-ENT
M$SLCFLD    4421**DCL-ENT
M$SMOUSE    4435**DCL-ENT
M$SMPRT    4427**DCL-ENT
M$SPRIV    4448**DCL-ENT
M$SSC    4428**DCL-ENT
M$SSWITCH    4448**DCL-ENT
M$STATE    4457**DCL-ENT
M$STD    4429**DCL-ENT
M$STIMER    4443**DCL-ENT
M$STLPP    4426**DCL-ENT
M$STRAP    4443**DCL-ENT
M$STRMATTR    4415**DCL-ENT
M$STRMCTL    4413**DCL-ENT
M$STRMTAB    4416**DCL-ENT
M$SYMBIO    4454**DCL-ENT
PL6.E3A0      #001=DDB$TEFFADD File=DDB$TEFFADD.:E05TSI                          TUE 07/29/97 13:48 Page:26
M$SYSCON    4440**DCL-ENT
M$SYSID    4458**DCL-ENT
M$TDCLOSE    4439**DCL-ENT
M$TDIO    4439**DCL-ENT
M$TDOPEN    4438**DCL-ENT
M$TDREQCPU    4439**DCL-ENT
M$TEMPWROC    4433**DCL-ENT
M$TIME    4456**DCL-ENT
M$TRAP    4443**DCL-ENT
M$TRMISC    4418**DCL-ENT
M$TRMPRG    4414**DCL-ENT
M$TRTN    4447**DCL-ENT
M$TRUNC    4390**DCL-ENT
M$TTIMER    4443**DCL-ENT
M$UC    4413**DCL
M$UMPL    4430**DCL-ENT
M$UNFID    4452**DCL-ENT
M$UNLATCH    4409**DCL-ENT
M$UNSHARE    4406**DCL-ENT
M$USRFIELD    4449**DCL-ENT
M$VIRTUAL    4424**DCL-ENT
M$WAIT    4447**DCL-ENT
M$WEOF    4392**DCL-ENT
M$WRITE    4390**DCL-ENT
M$WRSYSLOG    4438**DCL-ENT
M$XCON    4444**DCL-ENT
M$XCONRTN    4405**DCL-ENT
M$XEQTIME    4457**DCL-ENT
M$XFLUSH    4398**DCL-ENT
M$XMOUSE    4435**DCL-ENT
M$XXX    4401**DCL-ENT
M$YC    4403**DCL-ENT
