VERSION E05

PL6.E3A0      #001=DDB$TESTTRAN File=DDB$TSTTRAN.:E05TSI                         TUE 07/29/97 13:49 Page:1
        1        1        /*M* DDB$TSTTRAN . */
        2        2        /*T***********************************************************/
        3        3        /*T*                                                         */
        4        4        /*T* Copyright (c) Bull HN Information Systems Inc., 1997    */
        5        5        /*T*                                                         */
        6        6        /*T***********************************************************/
        7        7        /*X* DMR,PLM=5,IND=5,CSU=3,EXM=0,ECU=3,MOC,DCI=5,CRT=5 */
        8        8        /*D*  NAME:  DDB$TESTTRAN
        9        9              CALL:  CALL DDB$TESTTRAN(INS$)  ALTRET(NO_TRAN)
       10       10              INPUT:  INS$ POINTS TO THE INSTRUCTION TO BE INSPECTED.
       11       11              OUTPUT: DDB$TRAN TAKES THE ALTERNATE RETURN IF THE INSTRUCTION
       12       12                      WILL NOT TRANSFER.
       13       13              DESCRIPTION:  THE APPROPRIATE INDICATOR IS CHECKED FOR
       14       14                      THE OFF CONDITION..(FOR NO TRANSFER).
       15       15              */
       16       16        DDB$TESTTRAN: PROC(INS$) ALTRET;
       17       17        %INCLUDE DD_ERR_C;
       18      414        %INCLUDE DD$BASED;
       19     1717        %HOST_INSTR(NAME=INSTR);
       20     1739        %IND$VALUES (STCLASS=BASED);
       21     1757    1   DCL DDE$ERROR ENTRY;
       22     1758    1   DCL OP SBIN;
       23     1759    1   DCL INS$ PTR;
       24     1760        %INCLUDE XUH_MACRO_C;
       25     1844        %INCLUDE DD_SD_M;
       26     3180        %S_D;
       27     4498                                                /**/
       28     4499    1        OP = INS$->INSTR.OP-BITBIN('1400'O);
       29     4500        /*  OP IS THE 10 BIT OP CODE MINUS '600'O */
       30     4501    2        DO CASE(OP);
       31     4502    2          CASE(0);                         /* TZE */
       32     4503    2             IF S_D.IND$->IND$VALUES.ZERO = '0'B THEN ALTRETURN;
       33     4504    2          CASE(1);                         /* TRTN */
       34     4505    2             IF S_D.IND$->IND$VALUES.TRC ='0'B THEN ALTRETURN;
       35     4506    2          CASE(2);                         /* TNZ */
       36     4507    2             IF S_D.IND$->IND$VALUES.ZERO = '1'B THEN ALTRETURN;
       37     4508    2          CASE(3);                         /*TRTF */
PL6.E3A0      #001=DDB$TESTTRAN File=DDB$TSTTRAN.:E05TSI                         TUE 07/29/97 13:49 Page:2
       38     4509    2             IF S_D.IND$->IND$VALUES.TRC = '1'B THEN ALTRETURN;
       39     4510    2          CASE(4);                         /* TNC */
       40     4511    2             IF S_D.IND$->IND$VALUES.CARRY = '1'B THEN ALTRETURN;
       41     4512    2          CASE(6);                         /* TRC */
       42     4513    2             IF S_D.IND$->IND$VALUES.CARRY = '0'B THEN ALTRETURN;
       43     4514    2          CASE(8);                         /* TMI */
       44     4515    2             IF S_D.IND$->IND$VALUES.NEG = '0'B THEN ALTRETURN;
       45     4516    2          CASE(9);                         /* TMOZ */
       46     4517    2             IF (S_D.IND$->IND$VALUES.NEG = '0'B) AND (S_D.IND$->IND$VALUES.ZERO = '0'B
              4517                      )
       47     4518    2             THEN ALTRETURN;
       48     4519    2          CASE(10);                        /* TPL */
       49     4520    2             IF S_D.IND$->IND$VALUES.NEG = '1'B THEN ALTRETURN;
       50     4521    2          CASE(11);                        /* TPNZ */
       51     4522    2             IF (S_D.IND$->IND$VALUES.NEG = '1'B) OR  (S_D.IND$->IND$VALUES.ZERO = '1'B
              4522                      )
       52     4523    2             THEN ALTRETURN;
       53     4524    2          CASE(13);                        /* TTN */
       54     4525    2             IF S_D.IND$->IND$VALUES.TR = '0'B THEN ALTRETURN;
       55     4526    2          CASE(14);                        /* TTF */
       56     4527    2             IF S_D.IND$->IND$VALUES.TR = '1'B THEN ALTRETURN;
       57     4528    2          CASE(24);                        /* TEO */
       58     4529    2             IF S_D.IND$->IND$VALUES.EXOF = '0'B THEN ALTRETURN;
       59     4530    2          CASE(26);                        /* TEU */
       60     4531    2             IF S_D.IND$->IND$VALUES.EXUF = '0'B THEN ALTRETURN;
       61     4532    2          CASE(30);                        /* TOV */
       62     4533    2             IF S_D.IND$->IND$VALUES.OF = '0'B THEN ALTRETURN;
       63     4534    2          CASE(ELSE);
       64     4535    2             S_D.ERROR = E@DELBUG;
              4535                      /* E@DELBUG - SHOULDN'T HAVE GOTTEN HERE..DEL BUGG */
       65     4536    2             CALL DDE$ERROR;
       66     4537    2             RETURN;
       67     4538    2          END;
       68     4539    1        RETURN;
       69     4540    1   END DDB$TESTTRAN;

PL6.E3A0      #001=DDB$TESTTRAN File=DDB$TSTTRAN.:E05TSI                         TUE 07/29/97 13:49 Page:3
--  Include file information  --

   DD_SD_M.:E05TOU  is referenced.
   XUH_MACRO_C.:E05TOU  is referenced.
   DD$BASED.:E05TOU  is referenced.
   DD_ERR_C.:E05TOU  is referenced.
   B$JIT_C.:E05TOU  was found in the system file and is never referenced.
   CP_6_C.:E05TOU  was found in the system file and is never referenced.
      No diagnostics issued in procedure DDB$TESTTRAN.

   Procedure DDB$TESTTRAN requires 145 words for executable code.
   Procedure DDB$TESTTRAN requires 6 words of local(AUTO) storage.

    No errors detected in file DDB$TSTTRAN.:E05TSI    .

PL6.E3A0      #001=DDB$TESTTRAN File=DDB$TSTTRAN.:E05TSI                         TUE 07/29/97 13:49 Page:4

 Object Unit name= DDB$TESTTRAN                               File name= DDB$TSTTRAN.:E05TOU
 UTS= JUL 29 '97 13:49:31.68 TUE                              Compiler= PL-6/E31         Sev=      00
 SharedLib= :SHARED_SYSTEM                                    Alt SharedLib=


    ****  Control sections  ****

 Sect   Type Bound  Init  Size OctSiz  Section name(segment info)
    0   Proc  even  none   145    221  DDB$TESTTRAN

    ****  Entry defs  ****

                              Check   Calling
                             calling  sequence
  Sect OctLoc Primary Altret sequence   type   Parms  Name
     0      0   yes    yes     yes      Std        1  DDB$TESTTRAN

  ****  Entry refs  ****

         Check        Calling
        calling       sequence
Altret sequence SRef   type   Args  Name
         yes           Std       0 DDE$ERROR
                       nStd      0 X66_AUTO_1
                       nStd      0 X66_AALT
                       Std       0 B_CONSPOOL_D
                       nStd      0 X66_ARET

  ****  Data refs  ****

  Flags:  r = read only, s = secondary
Flgs Name                             Flgs Name                             Flgs Name
r    S_D$                                  B_VECTNIL
PL6.E3A0      #001=DDB$TESTTRAN File=DDB$TSTTRAN.:E05TSI                         TUE 07/29/97 13:49 Page:5


        1        1        /*M* DDB$TSTTRAN . */
        2        2        /*T***********************************************************/
        3        3        /*T*                                                         */
        4        4        /*T* Copyright (c) Bull HN Information Systems Inc., 1997    */
        5        5        /*T*                                                         */
        6        6        /*T***********************************************************/
        7        7        /*X* DMR,PLM=5,IND=5,CSU=3,EXM=0,ECU=3,MOC,DCI=5,CRT=5 */
        8        8        /*D*  NAME:  DDB$TESTTRAN
        9        9              CALL:  CALL DDB$TESTTRAN(INS$)  ALTRET(NO_TRAN)
       10       10              INPUT:  INS$ POINTS TO THE INSTRUCTION TO BE INSPECTED.
       11       11              OUTPUT: DDB$TRAN TAKES THE ALTERNATE RETURN IF THE INSTRUCTION
       12       12                      WILL NOT TRANSFER.
       13       13              DESCRIPTION:  THE APPROPRIATE INDICATOR IS CHECKED FOR
       14       14                      THE OFF CONDITION..(FOR NO TRANSFER).
       15       15              */
       16       16        DDB$TESTTRAN: PROC(INS$) ALTRET;

     16  0 000000   000000 700200 xent  DDB$TESTTRAN TSX0  ! X66_AUTO_1
         0 000001   000006 000001                    ZERO    6,1

       17       17        %INCLUDE DD_ERR_C;
       18      414        %INCLUDE DD$BASED;
       19     1717        %HOST_INSTR(NAME=INSTR);
       20     1739        %IND$VALUES (STCLASS=BASED);
       21     1757    1   DCL DDE$ERROR ENTRY;
       22     1758    1   DCL OP SBIN;
       23     1759    1   DCL INS$ PTR;
       24     1760        %INCLUDE XUH_MACRO_C;
       25     1844        %INCLUDE DD_SD_M;
       26     3180        %S_D;
       27     4498                                                /**/
       28     4499    1        OP = INS$->INSTR.OP-BITBIN('1400'O);

   4499  0 000002   200003 470500                    LDP0    @INS$,,AUTO
         0 000003   000000 471500                    LDP1    0,,PR0
         0 000004   100000 236100                    LDQ     0,,PR1
PL6.E3A0      #001=DDB$TESTTRAN File=DDB$TSTTRAN.:E05TSI                         TUE 07/29/97 13:49 Page:6
         0 000005   000010 772000                    QRL     8
         0 000006   001777 376007                    ANQ     1023,DL
         0 000007   001400 136007                    SBLQ    768,DL
         0 000010   200004 756100                    STQ     OP,,AUTO

       29     4500        /*  OP IS THE 10 BIT OP CODE MINUS '600'O */
       30     4501    2        DO CASE(OP);

   4501  0 000011   000037 116007                    CMPQ    31,DL
         0 000012   000014 602006 0                  TNC     s:4501+3,QL
         0 000013   000211 710000 0                  TRA     s:4535
         0 000014   000053 710000 0                  TRA     s:4503
         0 000015   000061 710000 0                  TRA     s:4505
         0 000016   000067 710000 0                  TRA     s:4507
         0 000017   000075 710000 0                  TRA     s:4509
         0 000020   000103 710000 0                  TRA     s:4511
         0 000021   000211 710000 0                  TRA     s:4535
         0 000022   000111 710000 0                  TRA     s:4513
         0 000023   000211 710000 0                  TRA     s:4535
         0 000024   000117 710000 0                  TRA     s:4515
         0 000025   000125 710000 0                  TRA     s:4517
         0 000026   000135 710000 0                  TRA     s:4520
         0 000027   000143 710000 0                  TRA     s:4522
         0 000030   000211 710000 0                  TRA     s:4535
         0 000031   000153 710000 0                  TRA     s:4525
         0 000032   000161 710000 0                  TRA     s:4527
         0 000033   000211 710000 0                  TRA     s:4535
         0 000034   000211 710000 0                  TRA     s:4535
         0 000035   000211 710000 0                  TRA     s:4535
         0 000036   000211 710000 0                  TRA     s:4535
         0 000037   000211 710000 0                  TRA     s:4535
         0 000040   000211 710000 0                  TRA     s:4535
         0 000041   000211 710000 0                  TRA     s:4535
         0 000042   000211 710000 0                  TRA     s:4535
         0 000043   000211 710000 0                  TRA     s:4535
         0 000044   000167 710000 0                  TRA     s:4529
         0 000045   000211 710000 0                  TRA     s:4535
PL6.E3A0      #001=DDB$TESTTRAN File=DDB$TSTTRAN.:E05TSI                         TUE 07/29/97 13:49 Page:7
         0 000046   000175 710000 0                  TRA     s:4531
         0 000047   000211 710000 0                  TRA     s:4535
         0 000050   000211 710000 0                  TRA     s:4535
         0 000051   000211 710000 0                  TRA     s:4535
         0 000052   000203 710000 0                  TRA     s:4533

       31     4502    2          CASE(0);                         /* TZE */

       32     4503    2             IF S_D.IND$->IND$VALUES.ZERO = '0'B THEN ALTRETURN;

   4503  0 000053   000000 473400 xsym               LDP3    S_D$
         0 000054   300046 474500                    LDP4    38,,PR3
         0 000055   400000 236100                    LDQ     0,,PR4
         0 000056   400000 316007                    CANQ    -131072,DL
         0 000057   000220 601000 0                  TNZ     s:4539

   4503  0 000060   000000 702200 xent               TSX2  ! X66_AALT

       33     4504    2          CASE(1);                         /* TRTN */

       34     4505    2             IF S_D.IND$->IND$VALUES.TRC ='0'B THEN ALTRETURN;

   4505  0 000061   000000 473400 xsym               LDP3    S_D$
         0 000062   300046 474500                    LDP4    38,,PR3
         0 000063   400000 236100                    LDQ     0,,PR4
         0 000064   000100 316007                    CANQ    64,DL
         0 000065   000220 601000 0                  TNZ     s:4539

   4505  0 000066   000000 702200 xent               TSX2  ! X66_AALT

       35     4506    2          CASE(2);                         /* TNZ */

       36     4507    2             IF S_D.IND$->IND$VALUES.ZERO = '1'B THEN ALTRETURN;

   4507  0 000067   000000 473400 xsym               LDP3    S_D$
         0 000070   300046 474500                    LDP4    38,,PR3
         0 000071   400000 236100                    LDQ     0,,PR4
PL6.E3A0      #001=DDB$TESTTRAN File=DDB$TSTTRAN.:E05TSI                         TUE 07/29/97 13:49 Page:8
         0 000072   400000 316007                    CANQ    -131072,DL
         0 000073   000220 600000 0                  TZE     s:4539

   4507  0 000074   000000 702200 xent               TSX2  ! X66_AALT

       37     4508    2          CASE(3);                         /*TRTF */

       38     4509    2             IF S_D.IND$->IND$VALUES.TRC = '1'B THEN ALTRETURN;

   4509  0 000075   000000 473400 xsym               LDP3    S_D$
         0 000076   300046 474500                    LDP4    38,,PR3
         0 000077   400000 236100                    LDQ     0,,PR4
         0 000100   000100 316007                    CANQ    64,DL
         0 000101   000220 600000 0                  TZE     s:4539

   4509  0 000102   000000 702200 xent               TSX2  ! X66_AALT

       39     4510    2          CASE(4);                         /* TNC */

       40     4511    2             IF S_D.IND$->IND$VALUES.CARRY = '1'B THEN ALTRETURN;

   4511  0 000103   000000 473400 xsym               LDP3    S_D$
         0 000104   300046 474500                    LDP4    38,,PR3
         0 000105   400000 236100                    LDQ     0,,PR4
         0 000106   100000 316007                    CANQ    32768,DL
         0 000107   000220 600000 0                  TZE     s:4539

   4511  0 000110   000000 702200 xent               TSX2  ! X66_AALT

       41     4512    2          CASE(6);                         /* TRC */

       42     4513    2             IF S_D.IND$->IND$VALUES.CARRY = '0'B THEN ALTRETURN;

   4513  0 000111   000000 473400 xsym               LDP3    S_D$
         0 000112   300046 474500                    LDP4    38,,PR3
         0 000113   400000 236100                    LDQ     0,,PR4
         0 000114   100000 316007                    CANQ    32768,DL
PL6.E3A0      #001=DDB$TESTTRAN File=DDB$TSTTRAN.:E05TSI                         TUE 07/29/97 13:49 Page:9
         0 000115   000220 601000 0                  TNZ     s:4539

   4513  0 000116   000000 702200 xent               TSX2  ! X66_AALT

       43     4514    2          CASE(8);                         /* TMI */

       44     4515    2             IF S_D.IND$->IND$VALUES.NEG = '0'B THEN ALTRETURN;

   4515  0 000117   000000 473400 xsym               LDP3    S_D$
         0 000120   300046 474500                    LDP4    38,,PR3
         0 000121   400000 236100                    LDQ     0,,PR4
         0 000122   200000 316007                    CANQ    65536,DL
         0 000123   000220 601000 0                  TNZ     s:4539

   4515  0 000124   000000 702200 xent               TSX2  ! X66_AALT

       45     4516    2          CASE(9);                         /* TMOZ */

       46     4517    2            IF (S_D.IND$->IND$VALUES.NEG = '0'B) AND (S_D.IND$->IND$VALUES.ZERO = '0'B
              4517                      )

   4517  0 000125   000000 473400 xsym               LDP3    S_D$
         0 000126   300046 474500                    LDP4    38,,PR3
         0 000127   400000 236100                    LDQ     0,,PR4
         0 000130   200000 316007                    CANQ    65536,DL
         0 000131   000220 601000 0                  TNZ     s:4539
         0 000132   400000 316007                    CANQ    -131072,DL
         0 000133   000220 601000 0                  TNZ     s:4539

       47     4518    2             THEN ALTRETURN;

   4518  0 000134   000000 702200 xent               TSX2  ! X66_AALT

       48     4519    2          CASE(10);                        /* TPL */

       49     4520    2             IF S_D.IND$->IND$VALUES.NEG = '1'B THEN ALTRETURN;

PL6.E3A0      #001=DDB$TESTTRAN File=DDB$TSTTRAN.:E05TSI                         TUE 07/29/97 13:49 Page:10
   4520  0 000135   000000 473400 xsym               LDP3    S_D$
         0 000136   300046 474500                    LDP4    38,,PR3
         0 000137   400000 236100                    LDQ     0,,PR4
         0 000140   200000 316007                    CANQ    65536,DL
         0 000141   000220 600000 0                  TZE     s:4539

   4520  0 000142   000000 702200 xent               TSX2  ! X66_AALT

       50     4521    2          CASE(11);                        /* TPNZ */

       51     4522    2             IF (S_D.IND$->IND$VALUES.NEG = '1'B) OR (S_D.IND$->IND$VALUES.ZERO = '1'B
              4522                      )

   4522  0 000143   000000 473400 xsym               LDP3    S_D$
         0 000144   300046 474500                    LDP4    38,,PR3
         0 000145   400000 236100                    LDQ     0,,PR4
         0 000146   200000 316007                    CANQ    65536,DL
         0 000147   000152 601000 0                  TNZ     s:4523
         0 000150   400000 316007                    CANQ    -131072,DL
         0 000151   000220 600000 0                  TZE     s:4539

       52     4523    2             THEN ALTRETURN;

   4523  0 000152   000000 702200 xent               TSX2  ! X66_AALT

       53     4524    2          CASE(13);                        /* TTN */

       54     4525    2             IF S_D.IND$->IND$VALUES.TR = '0'B THEN ALTRETURN;

   4525  0 000153   000000 473400 xsym               LDP3    S_D$
         0 000154   300046 474500                    LDP4    38,,PR3
         0 000155   400000 236100                    LDQ     0,,PR4
         0 000156   002000 316007                    CANQ    1024,DL
         0 000157   000220 601000 0                  TNZ     s:4539

   4525  0 000160   000000 702200 xent               TSX2  ! X66_AALT

PL6.E3A0      #001=DDB$TESTTRAN File=DDB$TSTTRAN.:E05TSI                         TUE 07/29/97 13:49 Page:11
       55     4526    2          CASE(14);                        /* TTF */

       56     4527    2             IF S_D.IND$->IND$VALUES.TR = '1'B THEN ALTRETURN;

   4527  0 000161   000000 473400 xsym               LDP3    S_D$
         0 000162   300046 474500                    LDP4    38,,PR3
         0 000163   400000 236100                    LDQ     0,,PR4
         0 000164   002000 316007                    CANQ    1024,DL
         0 000165   000220 600000 0                  TZE     s:4539

   4527  0 000166   000000 702200 xent               TSX2  ! X66_AALT

       57     4528    2          CASE(24);                        /* TEO */

       58     4529    2             IF S_D.IND$->IND$VALUES.EXOF = '0'B THEN ALTRETURN;

   4529  0 000167   000000 473400 xsym               LDP3    S_D$
         0 000170   300046 474500                    LDP4    38,,PR3
         0 000171   400000 236100                    LDQ     0,,PR4
         0 000172   020000 316007                    CANQ    8192,DL
         0 000173   000220 601000 0                  TNZ     s:4539

   4529  0 000174   000000 702200 xent               TSX2  ! X66_AALT

       59     4530    2          CASE(26);                        /* TEU */

       60     4531    2             IF S_D.IND$->IND$VALUES.EXUF = '0'B THEN ALTRETURN;

   4531  0 000175   000000 473400 xsym               LDP3    S_D$
         0 000176   300046 474500                    LDP4    38,,PR3
         0 000177   400000 236100                    LDQ     0,,PR4
         0 000200   010000 316007                    CANQ    4096,DL
         0 000201   000220 601000 0                  TNZ     s:4539

   4531  0 000202   000000 702200 xent               TSX2  ! X66_AALT

       61     4532    2          CASE(30);                        /* TOV */
PL6.E3A0      #001=DDB$TESTTRAN File=DDB$TSTTRAN.:E05TSI                         TUE 07/29/97 13:49 Page:12

       62     4533    2             IF S_D.IND$->IND$VALUES.OF = '0'B THEN ALTRETURN;

   4533  0 000203   000000 473400 xsym               LDP3    S_D$
         0 000204   300046 474500                    LDP4    38,,PR3
         0 000205   400000 236100                    LDQ     0,,PR4
         0 000206   040000 316007                    CANQ    16384,DL
         0 000207   000220 601000 0                  TNZ     s:4539

   4533  0 000210   000000 702200 xent               TSX2  ! X66_AALT

       63     4534    2          CASE(ELSE);

       64     4535    2             S_D.ERROR = E@DELBUG;
              4535                      /* E@DELBUG - SHOULDN'T HAVE GOTTEN HERE..DEL BUGG */

   4535  0 000211   000766 235007                    LDA     502,DL
         0 000212   000000 473400 xsym               LDP3    S_D$
         0 000213   300013 755100                    STA     11,,PR3

       65     4536    2             CALL DDE$ERROR;

   4536  0 000214   000002 631400 xsym               EPPR1   B_VECTNIL+2
         0 000215   000000 701000 xent               TSX1    DDE$ERROR
         0 000216   000000 011000                    NOP     0

       66     4537    2             RETURN;

   4537  0 000217   000000 702200 xent               TSX2  ! X66_ARET

       67     4538    2          END;

       68     4539    1        RETURN;

   4539  0 000220   000000 702200 xent               TSX2  ! X66_ARET
       69     4540    1   END DDB$TESTTRAN;

PL6.E3A0      #001=DDB$TESTTRAN File=DDB$TSTTRAN.:E05TSI                         TUE 07/29/97 13:49 Page:13
--  Include file information  --

   DD_SD_M.:E05TOU  is referenced.
   XUH_MACRO_C.:E05TOU  is referenced.
   DD$BASED.:E05TOU  is referenced.
   DD_ERR_C.:E05TOU  is referenced.
   B$JIT_C.:E05TOU  was found in the system file and is never referenced.
   CP_6_C.:E05TOU  was found in the system file and is never referenced.
      No diagnostics issued in procedure DDB$TESTTRAN.

   Procedure DDB$TESTTRAN requires 145 words for executable code.
   Procedure DDB$TESTTRAN requires 6 words of local(AUTO) storage.

    No errors detected in file DDB$TSTTRAN.:E05TSI    .
PL6.E3A0      #001=DDB$TESTTRAN File=DDB$TSTTRAN.:E05TSI                         TUE 07/29/97 13:49 Page:14
          *** CROSS REFERENCE LISTING ***
**     DENOTES     IDENTIFIER DEFINITION
<<                 IDENTIFIER'S VALUE SET
>>                 IDENTIFIER'S VALUE USED
<>                 IDENTIFIER SET AND/OR USED
--                 IDENTIFIER REFERENCED
PL6.E3A0      #001=DDB$TESTTRAN File=DDB$TSTTRAN.:E05TSI                         TUE 07/29/97 13:49 Page:15
          MINI XREF LISTING

DDE$ERROR
      1757**DCL-ENT  4536--CALL
IND$VALUES.CARRY
      1744**DCL      4511>>IF       4513>>IF
IND$VALUES.EXOF
      1746**DCL      4529>>IF
IND$VALUES.EXUF
      1747**DCL      4531>>IF
IND$VALUES.NEG
      1743**DCL      4515>>IF       4517>>IF       4520>>IF       4522>>IF
IND$VALUES.OF
      1745**DCL      4533>>IF
IND$VALUES.TR
      1749**DCL      4525>>IF       4527>>IF
IND$VALUES.TRC
      1753**DCL      4505>>IF       4509>>IF
IND$VALUES.ZERO
      1742**DCL      4503>>IF       4507>>IF       4517>>IF       4522>>IF
INS$
      1759**DCL        16--PROC     4499>>ASSIGN
INSTR.OP
      1728**DCL      4499>>ASSIGN
INSTR.TAG.TD
      1734**DCL      1735--REDEF
INSTR.TAGG
      1731**DCL      1732--REDEF
INSTR.Y
      1719**DCL      1720--REDEF    1723--REDEF
OP
      1758**DCL      4499<<ASSIGN   4501>>DOCASE
S_D.CURRENT_CHANNEL
      4132**DCL      4134--REDEF
PL6.E3A0      #001=DDB$TESTTRAN File=DDB$TSTTRAN.:E05TSI                         TUE 07/29/97 13:49 Page:16
S_D.DEBUGA
      3284**DCL      3286--REDEF
S_D.EIS
      4242**DCL      4271--REDEF
S_D.ERROR
      3213**DCL      4535<<ASSIGN
S_D.HOST_MESSAGE_BUF_REMOTE
      4175**DCL      4176--REDEF    4190--REDEF
S_D.IND$
      3274**DCL      4503>>IF       4505>>IF       4507>>IF       4509>>IF       4511>>IF       4513>>IF
      4515>>IF       4517>>IF       4517>>IF       4520>>IF       4522>>IF       4522>>IF       4525>>IF
      4527>>IF       4529>>IF       4531>>IF       4533>>IF
S_D.JDE
      3789**DCL      3790--REDEF
S_D.L$.VALUE
      3342**DCL      3348--REDEF    3356--REDEF    3359--REDEF    3362--REDEF    3365--REDEF
S_D.L$.VALUE.L
      3343**DCL      3344--REDEF    3345--REDEF
S_D.L6_MESSAGE_BUF
      4196**DCL      4198--REDEF
S_D.OUTPUT
      4162**DCL      4164--REDEF
S_D.REMOTE_MSG.FNCC
      4181**DCL      4182--REDEF
S_D.REMOTE_MSG.STXC
      4177**DCL      4178--REDEF
S_D.REMOTE_MSG.SUBFNCC
      4185**DCL      4186--REDEF
S_D.SV
      3241**DCL      3262--REDEF
S_D$
      4493**DCL      3189--IMP-PTR  4503>>IF       4505>>IF       4507>>IF       4509>>IF       4511>>IF
      4513>>IF       4515>>IF       4517>>IF       4517>>IF       4520>>IF       4522>>IF       4522>>IF
      4525>>IF       4527>>IF       4529>>IF       4531>>IF       4533>>IF       4535>>ASSIGN
PL6.E3A0      #001=DDB$TESTTRAN File=DDB$TSTTRAN.:E05TSI                         TUE 07/29/97 13:49 Page:17
              *** CROSS REFERENCE LISTING ***
    **     DENOTES     IDENTIFIER DEFINITION
    <<                 IDENTIFIER'S VALUE SET
    >>                 IDENTIFIER'S VALUE USED
    <>                 IDENTIFIER SET AND/OR USED
    --                 IDENTIFIER REFERENCED
PL6.E3A0      #001=DDB$TESTTRAN File=DDB$TSTTRAN.:E05TSI                         TUE 07/29/97 13:49 Page:18
              MINI UREF LISTING

DDB$TESTTRAN      16**PROC
