VERSION E05

PL6.E3A0      #001=DDB$USERFAULT File=DDB$UFAULT.:E05TSI                         TUE 07/29/97 13:50 Page:1
        1        1        /*M* DDB$UFAULT . */
        2        2        /*T***********************************************************/
        3        3        /*T*                                                         */
        4        4        /*T* Copyright (c) Bull HN Information Systems Inc., 1997    */
        5        5        /*T*                                                         */
        6        6        /*T***********************************************************/
        7        7        /*X* DMR,PLM=5,IND=5,CSU=3,EXM=0,ECU=3,MOC,DCI=5,CRT=5 */
        8        8        /*P* NAME:  DDB$USERFAULT
        9        9             PURPOSE: TO EXAMINE AND REPORT FAULTS NOT CAUSED BY DELTA.
       10       10                      TO GIVE CONTROL TO THE SCANNER OR TO THE USER
       11       11                      DEPENDING UPON THE STATE OF THE 'ON FAULTS'.
       12       12                      */
       13       13        /*D*  NAME:   DDB$USERFAULT
       14       14              CALL:   CALL DDB$USERFAULT ALTRET(USERGO)
       15       15              DESCRIPTION:
       16       16                      IF IC IS NOT EQUAL TO THE SPECIAL LOCATION
       17       17                      AND THE USER DOES NOT WANT FAULT CONTROL, THEN HIS
       18       18                      PROGRAM IS RESTORED, A MESSAGE IS SENT AND THE SCANNER
       19       19                      GETS CONTROL WHEN DDB$USERFAULT RETURNS.
       20       20                      IF THE USER WANTS FAULT CONTROL, GOIC IS SET PROPERLY
       21       21                      WITHIN THE ON_FAULTS ROUTINE, AND USERGO GETS CONTROL
       22       22                      WHEN DDB$USERFAULT RETURNS.
       23       23                        IF IC IS EQUAL TO THE SPECIAL LOCATION THEN SEVERAL
       24       24                      SPECIAL CONDITIONS ARE EXAMINED: XEQ FAULT,
       25       25                      FAULTING ON THE EXECUATION OF A DERAILED
       26       26                      SINGLE WORD INSTRUCTION.
       27       27                      */
       28       28        DDB$USERFAULT: PROC ALTRET;
       29       29        %INCLUDE DD$BASED;
       30     1332        %FIXCOM (NAME="FIXCOM(0:0)");
       31     1348        %INCLUDE DD_SUBS_C;
       32     1619    1   DCL I SBIN;
       33     1620    1   DCL FLAG BIT(1);
       34     1621        %INCLUDE XUH_MACRO_C;
       35     1705        %INCLUDE DD_SD_M;
       36     3041        %S_D;
       37     4359    1   DCL D_XDELTA BIT(1) SYMREF;
PL6.E3A0      #001=DDB$USERFAULT File=DDB$UFAULT.:E05TSI                         TUE 07/29/97 13:50 Page:2
       38     4360    1   DCL B$TCB$ PTR SYMREF;
       39     4361        %INCLUDE CP_6;
       40     4442        %B$TCB;
       41     4445    1   DCL DUR$ECCRPT ENTRY(1);
       42     4446    1   DCL DXA$KEEP_FAULTS ENTRY ALTRET;
       43     4447    1   DCL DDB$RESTORE ENTRY;
       44     4448    1   DCL DDB$EISRESET ENTRY ALTRET;
       45     4449    1   DCL DDB$STEPRESET ENTRY ALTRET;
       46     4450    1   DCL DDB$WHENRESET ENTRY ALTRET;
       47     4451    1   DCL DDR$REPORT ENTRY(1);
       48     4452                  /* SET DEFAULT PROCEED MODE TO 'STOP' IN CASE 'DO' IS PROCESSED. */
       49     4453    1        S_D.STOP = '1'B;
       50     4454    1        FLAG = '0'B;
       51     4455    1        S_D.FAULTCMD$ = ADDR(NIL);
       52     4456    1        IF NOT D_XDELTA
       53     4457    1        THEN S_D.TCB$ = B$TCB$->B$TCB.STK$; /* Point at his frame on our stack */
       54     4458    1        IF S_D.TIC ~=S_D.SL
       55     4459    2        THEN DO;
       56     4460    2   USERFLT10: ;
       57     4461    2             S_D.SAVEIC = S_D.TIC;
       58     4462    2   USERFLT20: ;
       59     4463    2             CALL DXA$KEEP_FAULTS ALTRET(USERGO);
       60     4464    2             CALL DDB$WHENRESET ALTRET(NOTWHEN);
       61     4465    2   NOTWHEN:  ;
       62     4466    2             CALL DDB$EISRESET ALTRET(NOTEIS);
       63     4467    2   NOTEIS:   ;
       64     4468    2             CALL DDB$STEPRESET ALTRET(NOTSTEP);
       65     4469    2   NOTSTEP:  ;
       66     4470    2             CALL DDB$RESTORE;
       67     4471    2             IF D_XDELTA THEN
       68     4472    2                  CALL DDR$REPORT(R_USERFLT);
       69     4473    2             ELSE IF FLAG THEN CALL DUR$ECCRPT(ECCRPT_DERAIL);
              4473                      /* DERAILED INSTRUCTION  FAULT */
       70     4474    2                  ELSE CALL DUR$ECCRPT(ECCRPT_USER); /* REGULAR USERLAND FAULT */
       71     4475    2             S_D.SV.DELENT = 1;            /* USER TRAP CAUSED ENTRY */
       72     4476    2             RETURN;
       73     4477    2           END;
PL6.E3A0      #001=DDB$USERFAULT File=DDB$UFAULT.:E05TSI                         TUE 07/29/97 13:50 Page:3
       74     4478        /*  CHECK FOR FAULT ON EXECUTION OF THE XEQ COMMAND  */
       75     4479    1        IF S_D.X$EQ.ACTIVE
       76     4480    2        THEN DO;
       77     4481    2             S_D.X$EQ.ACTIVE = '0'B;
       78     4482    2             CALL DDB$RESTORE;
       79     4483    2             IF D_XDELTA THEN CALL DDR$REPORT(R_XEQFLT);
       80     4484    2             ELSE CALL DUR$ECCRPT(ECCRPT_XEQ); /* XEQ FAULT */
       81     4485    2             RETURN;
       82     4486    2           END;
       83     4487        /*  CHECK FOR FAULT ON EXECUTION OF DERAILED INSTRUCTION */
       84     4488    2        DO I = 1 TO S_D.FIXLAST;
       85     4489    2             IF S_D.FIXCOM.CMD(I) = C_AT OR S_D.FIXCOM.CMD(I) = C_OC /* C_AT,C_OC */
       86     4490    3             THEN DO;
       87     4491    3                  IF S_D.FIXCOM.CDF(I) = S_D.SAVEIC
       88     4492    4                  THEN DO;
       89     4493    4                       FLAG = '1'B;
       90     4494    4                       GOTO USERFLT20;
       91     4495    4                     END;
       92     4496    3                END;
       93     4497    2           END;
       94     4498    1        GOTO USERFLT10;
       95     4499    1   USERGO: ALTRETURN;
       96     4500    1   END DDB$USERFAULT;

PL6.E3A0      #001=DDB$USERFAULT File=DDB$UFAULT.:E05TSI                         TUE 07/29/97 13:50 Page:4
--  Include file information  --

   CP_6.:E05TOU  cannot be made into a system file and is referenced.
   DD_SD_M.:E05TOU  is referenced.
   XUH_MACRO_C.:E05TOU  is referenced.
   DD_SUBS_C.:E05TOU  is referenced.
   DD$BASED.:E05TOU  is referenced.
   B$JIT_C.:E05TOU  was found in the system file and is never referenced.
   CP_6_C.:E05TOU  was found in the system file and is referenced.
      No diagnostics issued in procedure DDB$USERFAULT.

   Procedure DDB$USERFAULT requires 105 words for executable code.
   Procedure DDB$USERFAULT requires 6 words of local(AUTO) storage.

    No errors detected in file DDB$UFAULT.:E05TSI    .

PL6.E3A0      #001=DDB$USERFAULT File=DDB$UFAULT.:E05TSI                         TUE 07/29/97 13:50 Page:5

 Object Unit name= DDB$USERFAULT                              File name= DDB$UFAULT.:E05TOU
 UTS= JUL 29 '97 13:50:02.72 TUE                              Compiler= PL-6/E31         Sev=      00
 SharedLib= :SHARED_SYSTEM                                    Alt SharedLib=


    ****  Control sections  ****

 Sect   Type Bound  Init  Size OctSiz  Section name(segment info)
    0   DCB   even  none     0      0  M$UC
    1   Proc  even  none   105    151  DDB$USERFAULT
    2  RoData even  none     4      4  DDB$USERFAULT

    ****  Entry defs  ****

                              Check   Calling
                             calling  sequence
  Sect OctLoc Primary Altret sequence   type   Parms  Name
     1      0   yes    yes     yes      Std        0  DDB$USERFAULT

  ****  Entry refs  ****

         Check        Calling
        calling       sequence
Altret sequence SRef   type   Args  Name
 yes     yes           Std       0 DXA$KEEP_FAULTS
         yes           Std       1 DDR$REPORT
         yes           Std       1 DUR$ECCRPT
 yes     yes           Std       0 DDB$WHENRESET
 yes     yes           Std       0 DDB$EISRESET
 yes     yes           Std       0 DDB$STEPRESET
         yes           Std       0 DDB$RESTORE
                       nStd      0 X66_AUTO_0
                       Std       0 B_CONSPOOL_D
                       nStd      0 X66_ARET
                       nStd      0 X66_AALT
PL6.E3A0      #001=DDB$USERFAULT File=DDB$UFAULT.:E05TSI                         TUE 07/29/97 13:50 Page:6

  ****  Data refs  ****

  Flags:  r = read only, s = secondary
Flgs Name                             Flgs Name                             Flgs Name
r    S_D$                                  D_XDELTA                              B$TCB$
     M$UC                                  B_VECTNIL

  ****  Segment refs  ****

  Flags:  r = read only, s = secondary
Flgs Name                             Flgs Name                             Flgs Name
     ISSID
PL6.E3A0      #001=DDB$USERFAULT File=DDB$UFAULT.:E05TSI                         TUE 07/29/97 13:50 Page:7


        1        1        /*M* DDB$UFAULT . */
        2        2        /*T***********************************************************/
        3        3        /*T*                                                         */
        4        4        /*T* Copyright (c) Bull HN Information Systems Inc., 1997    */
        5        5        /*T*                                                         */
        6        6        /*T***********************************************************/
        7        7        /*X* DMR,PLM=5,IND=5,CSU=3,EXM=0,ECU=3,MOC,DCI=5,CRT=5 */
        8        8        /*P* NAME:  DDB$USERFAULT
        9        9             PURPOSE: TO EXAMINE AND REPORT FAULTS NOT CAUSED BY DELTA.
       10       10                      TO GIVE CONTROL TO THE SCANNER OR TO THE USER
       11       11                      DEPENDING UPON THE STATE OF THE 'ON FAULTS'.
       12       12                      */
       13       13        /*D*  NAME:   DDB$USERFAULT
       14       14              CALL:   CALL DDB$USERFAULT ALTRET(USERGO)
       15       15              DESCRIPTION:
       16       16                      IF IC IS NOT EQUAL TO THE SPECIAL LOCATION
       17       17                      AND THE USER DOES NOT WANT FAULT CONTROL, THEN HIS
       18       18                      PROGRAM IS RESTORED, A MESSAGE IS SENT AND THE SCANNER
       19       19                      GETS CONTROL WHEN DDB$USERFAULT RETURNS.
       20       20                      IF THE USER WANTS FAULT CONTROL, GOIC IS SET PROPERLY
       21       21                      WITHIN THE ON_FAULTS ROUTINE, AND USERGO GETS CONTROL
       22       22                      WHEN DDB$USERFAULT RETURNS.
       23       23                        IF IC IS EQUAL TO THE SPECIAL LOCATION THEN SEVERAL
       24       24                      SPECIAL CONDITIONS ARE EXAMINED: XEQ FAULT,
       25       25                      FAULTING ON THE EXECUATION OF A DERAILED
       26       26                      SINGLE WORD INSTRUCTION.
       27       27                      */
       28       28        DDB$USERFAULT: PROC ALTRET;

     28  1 000000   000000 700200 xent  DDB$USERFAU* TSX0  ! X66_AUTO_0
         1 000001   000006 000000                    ZERO    6,0

       29       29        %INCLUDE DD$BASED;
       30     1332        %FIXCOM (NAME="FIXCOM(0:0)");
       31     1348        %INCLUDE DD_SUBS_C;
       32     1619    1   DCL I SBIN;
PL6.E3A0      #001=DDB$USERFAULT File=DDB$UFAULT.:E05TSI                         TUE 07/29/97 13:50 Page:8
       33     1620    1   DCL FLAG BIT(1);
       34     1621        %INCLUDE XUH_MACRO_C;
       35     1705        %INCLUDE DD_SD_M;
       36     3041        %S_D;
       37     4359    1   DCL D_XDELTA BIT(1) SYMREF;
       38     4360    1   DCL B$TCB$ PTR SYMREF;
       39     4361        %INCLUDE CP_6;
       40     4442        %B$TCB;
       41     4445    1   DCL DUR$ECCRPT ENTRY(1);
       42     4446    1   DCL DXA$KEEP_FAULTS ENTRY ALTRET;
       43     4447    1   DCL DDB$RESTORE ENTRY;
       44     4448    1   DCL DDB$EISRESET ENTRY ALTRET;
       45     4449    1   DCL DDB$STEPRESET ENTRY ALTRET;
       46     4450    1   DCL DDB$WHENRESET ENTRY ALTRET;
       47     4451    1   DCL DDR$REPORT ENTRY(1);
       48     4452                  /* SET DEFAULT PROCEED MODE TO 'STOP' IN CASE 'DO' IS PROCESSED. */
       49     4453    1        S_D.STOP = '1'B;

   4453  1 000002   400000 236003                    LDQ     -131072,DU
         1 000003   000000 470400 xsym               LDP0    S_D$
         1 000004   000050 756100                    STQ     40,,PR0

       50     4454    1        FLAG = '0'B;

   4454  1 000005   200004 450100                    STZ     FLAG,,AUTO

       51     4455    1        S_D.FAULTCMD$ = ADDR(NIL);

   4455  1 000006   000001 236000 xsym               LDQ     B_VECTNIL+1
         1 000007   000004 756100                    STQ     4,,PR0

       52     4456    1        IF NOT D_XDELTA

   4456  1 000010   000000 234000 xsym               SZN     D_XDELTA
         1 000011   000015 604000 1                  TMI     s:4458

       53     4457    1        THEN S_D.TCB$ = B$TCB$->B$TCB.STK$; /* Point at his frame on our stack */
PL6.E3A0      #001=DDB$USERFAULT File=DDB$UFAULT.:E05TSI                         TUE 07/29/97 13:50 Page:9

   4457  1 000012   000000 471400 xsym               LDP1    B$TCB$
         1 000013   100001 236100                    LDQ     1,,PR1
         1 000014   004751 756100                    STQ     2537,,PR0

       54     4458    1        IF S_D.TIC ~=S_D.SL

   4458  1 000015   000027 236100                    LDQ     23,,PR0
         1 000016   000021 604000 1                  TMI     USERFLT10
         1 000017   000010 116100                    CMPQ    8,,PR0
         1 000020   000071 600000 1                  TZE     s:4479

       55     4459    2        THEN DO;

   4457  1 000021                       USERFLT10    null
       56     4460    2   USERFLT10: ;
       57     4461    2             S_D.SAVEIC = S_D.TIC;

   4461  1 000021   000000 470400 xsym               LDP0    S_D$
         1 000022   000027 235100                    LDA     23,,PR0
         1 000023   000002 755100                    STA     2,,PR0

   4461  1 000024                       USERFLT20    null
       58     4462    2   USERFLT20: ;
       59     4463    2             CALL DXA$KEEP_FAULTS ALTRET(USERGO);

   4463  1 000024   000002 631400 xsym               EPPR1   B_VECTNIL+2
         1 000025   000000 701000 xent               TSX1    DXA$KEEP_FAULTS
         1 000026   000150 702000 1                  TSX2    USERGO

       60     4464    2             CALL DDB$WHENRESET ALTRET(NOTWHEN);

   4464  1 000027   000002 631400 xsym               EPPR1   B_VECTNIL+2
         1 000030   000000 701000 xent               TSX1    DDB$WHENRESET
         1 000031   000032 702000 1                  TSX2    NOTWHEN

   4461  1 000032                       NOTWHEN      null
PL6.E3A0      #001=DDB$USERFAULT File=DDB$UFAULT.:E05TSI                         TUE 07/29/97 13:50 Page:10
       61     4465    2   NOTWHEN:  ;
       62     4466    2             CALL DDB$EISRESET ALTRET(NOTEIS);

   4466  1 000032   000002 631400 xsym               EPPR1   B_VECTNIL+2
         1 000033   000000 701000 xent               TSX1    DDB$EISRESET
         1 000034   000035 702000 1                  TSX2    NOTEIS

   4461  1 000035                       NOTEIS       null
       63     4467    2   NOTEIS:   ;
       64     4468    2             CALL DDB$STEPRESET ALTRET(NOTSTEP);

   4468  1 000035   000002 631400 xsym               EPPR1   B_VECTNIL+2
         1 000036   000000 701000 xent               TSX1    DDB$STEPRESET
         1 000037   000040 702000 1                  TSX2    NOTSTEP

   4461  1 000040                       NOTSTEP      null
       65     4469    2   NOTSTEP:  ;
       66     4470    2             CALL DDB$RESTORE;

   4470  1 000040   000002 631400 xsym               EPPR1   B_VECTNIL+2
         1 000041   000000 701000 xent               TSX1    DDB$RESTORE
         1 000042   000000 011000                    NOP     0

       67     4471    2             IF D_XDELTA THEN

   4471  1 000043   000000 234000 xsym               SZN     D_XDELTA
         1 000044   000052 605000 1                  TPL     s:4473

       68     4472    2                  CALL DDR$REPORT(R_USERFLT);

   4472  1 000045   000000 630400 2                  EPPR0   0
         1 000046   000017 631400 xsym               EPPR1   B_VECTNIL+15
         1 000047   000000 701000 xent               TSX1    DDR$REPORT
         1 000050   000000 011000                    NOP     0
         1 000051   000065 710000 1                  TRA     s:4475

       69     4473    2             ELSE IF FLAG THEN CALL DUR$ECCRPT(ECCRPT_DERAIL);
PL6.E3A0      #001=DDB$USERFAULT File=DDB$UFAULT.:E05TSI                         TUE 07/29/97 13:50 Page:11
              4473                      /* DERAILED INSTRUCTION  FAULT */

   4473  1 000052   200004 234100                    SZN     FLAG,,AUTO
         1 000053   000061 605000 1                  TPL     s:4474

   4473  1 000054   000001 630400 2                  EPPR0   1
         1 000055   000017 631400 xsym               EPPR1   B_VECTNIL+15
         1 000056   000000 701000 xent               TSX1    DUR$ECCRPT
         1 000057   000000 011000                    NOP     0
         1 000060   000065 710000 1                  TRA     s:4475

       70     4474    2                  ELSE CALL DUR$ECCRPT(ECCRPT_USER); /* REGULAR USERLAND FAULT */

   4474  1 000061   000002 630400 2                  EPPR0   2
         1 000062   000017 631400 xsym               EPPR1   B_VECTNIL+15
         1 000063   000000 701000 xent               TSX1    DUR$ECCRPT
         1 000064   000000 011000                    NOP     0

       71     4475    2             S_D.SV.DELENT = 1;            /* USER TRAP CAUSED ENTRY */

   4475  1 000065   000001 235007                    LDA     1,DL
         1 000066   000000 470400 xsym               LDP0    S_D$
         1 000067   000037 755100                    STA     31,,PR0

       72     4476    2             RETURN;

   4476  1 000070   000000 702200 xent               TSX2  ! X66_ARET

       73     4477    2           END;
       74     4478        /*  CHECK FOR FAULT ON EXECUTION OF THE XEQ COMMAND  */
       75     4479    1        IF S_D.X$EQ.ACTIVE

   4479  1 000071   004646 234100                    SZN     2470,,PR0
         1 000072   000113 605000 1                  TPL     s:4488

       76     4480    2        THEN DO;

PL6.E3A0      #001=DDB$USERFAULT File=DDB$UFAULT.:E05TSI                         TUE 07/29/97 13:50 Page:12
       77     4481    2             S_D.X$EQ.ACTIVE = '0'B;

   4481  1 000073   004646 450100                    STZ     2470,,PR0

       78     4482    2             CALL DDB$RESTORE;

   4482  1 000074   000002 631400 xsym               EPPR1   B_VECTNIL+2
         1 000075   000000 701000 xent               TSX1    DDB$RESTORE
         1 000076   000000 011000                    NOP     0

       79     4483    2             IF D_XDELTA THEN CALL DDR$REPORT(R_XEQFLT);

   4483  1 000077   000000 234000 xsym               SZN     D_XDELTA
         1 000100   000106 605000 1                  TPL     s:4484

   4483  1 000101   000003 630400 2                  EPPR0   3
         1 000102   000017 631400 xsym               EPPR1   B_VECTNIL+15
         1 000103   000000 701000 xent               TSX1    DDR$REPORT
         1 000104   000000 011000                    NOP     0
         1 000105   000112 710000 1                  TRA     s:4485

       80     4484    2             ELSE CALL DUR$ECCRPT(ECCRPT_XEQ); /* XEQ FAULT */

   4484  1 000106   000000 630400 2                  EPPR0   0
         1 000107   000017 631400 xsym               EPPR1   B_VECTNIL+15
         1 000110   000000 701000 xent               TSX1    DUR$ECCRPT
         1 000111   000000 011000                    NOP     0

       81     4485    2             RETURN;

   4485  1 000112   000000 702200 xent               TSX2  ! X66_ARET

       82     4486    2           END;
       83     4487        /*  CHECK FOR FAULT ON EXECUTION OF DERAILED INSTRUCTION */
       84     4488    2        DO I = 1 TO S_D.FIXLAST;

   4488  1 000113   000001 235007                    LDA     1,DL
PL6.E3A0      #001=DDB$USERFAULT File=DDB$UFAULT.:E05TSI                         TUE 07/29/97 13:50 Page:13
         1 000114   200003 755100                    STA     I,,AUTO
         1 000115   000144 710000 1                  TRA     s:4497+1

       85     4489    2             IF S_D.FIXCOM.CMD(I) = C_AT OR S_D.FIXCOM.CMD(I) = C_OC /* C_AT,C_OC */

   4489  1 000116   200003 236100                    LDQ     I,,AUTO
         1 000117   000006 402007                    MPY     6,DL
         1 000120   000000 470400 xsym               LDP0    S_D$
         1 000121   001212 236106                    LDQ     650,QL,PR0
         1 000122   777000 376003                    ANQ     -512,DU
         1 000123   002000 116003                    CMPQ    1024,DU
         1 000124   000133 600000 1                  TZE     s:4491
         1 000125   200003 236100                    LDQ     I,,AUTO
         1 000126   000006 402007                    MPY     6,DL
         1 000127   001212 236106                    LDQ     650,QL,PR0
         1 000130   777000 376003                    ANQ     -512,DU
         1 000131   037000 116003                    CMPQ    15872,DU
         1 000132   000143 601000 1                  TNZ     s:4497

       86     4490    3             THEN DO;

       87     4491    3                  IF S_D.FIXCOM.CDF(I) = S_D.SAVEIC

   4491  1 000133   200003 236100                    LDQ     I,,AUTO
         1 000134   000006 402007                    MPY     6,DL
         1 000135   001213 236106                    LDQ     651,QL,PR0
         1 000136   000002 116100                    CMPQ    2,,PR0
         1 000137   000143 601000 1                  TNZ     s:4497

       88     4492    4                  THEN DO;

       89     4493    4                       FLAG = '1'B;

   4493  1 000140   400000 236003                    LDQ     -131072,DU
         1 000141   200004 756100                    STQ     FLAG,,AUTO

       90     4494    4                       GOTO USERFLT20;
PL6.E3A0      #001=DDB$USERFAULT File=DDB$UFAULT.:E05TSI                         TUE 07/29/97 13:50 Page:14

   4494  1 000142   000024 710000 1                  TRA     USERFLT20

       91     4495    4                     END;
       92     4496    3                END;
       93     4497    2           END;

   4497  1 000143   200003 054100                    AOS     I,,AUTO
         1 000144   200003 236100                    LDQ     I,,AUTO
         1 000145   000047 116100                    CMPQ    39,,PR0
         1 000146   000116 604400 1                  TMOZ    s:4489

       94     4498    1        GOTO USERFLT10;

   4498  1 000147   000021 710000 1                  TRA     USERFLT10

       95     4499    1   USERGO: ALTRETURN;

   4499  1 000150   000000 702200 xent  USERGO       TSX2  ! X66_AALT

(unnamed)
 Sect OctLoc
   2     000   000005 006000   000004 006000   000002 006000   000006 006000    ................
       96     4500    1   END DDB$USERFAULT;

PL6.E3A0      #001=DDB$USERFAULT File=DDB$UFAULT.:E05TSI                         TUE 07/29/97 13:50 Page:15
--  Include file information  --

   CP_6.:E05TOU  cannot be made into a system file and is referenced.
   DD_SD_M.:E05TOU  is referenced.
   XUH_MACRO_C.:E05TOU  is referenced.
   DD_SUBS_C.:E05TOU  is referenced.
   DD$BASED.:E05TOU  is referenced.
   B$JIT_C.:E05TOU  was found in the system file and is never referenced.
   CP_6_C.:E05TOU  was found in the system file and is referenced.
      No diagnostics issued in procedure DDB$USERFAULT.

   Procedure DDB$USERFAULT requires 105 words for executable code.
   Procedure DDB$USERFAULT requires 6 words of local(AUTO) storage.

    No errors detected in file DDB$UFAULT.:E05TSI    .
PL6.E3A0      #001=DDB$USERFAULT File=DDB$UFAULT.:E05TSI                         TUE 07/29/97 13:50 Page:16
          *** CROSS REFERENCE LISTING ***
**     DENOTES     IDENTIFIER DEFINITION
<<                 IDENTIFIER'S VALUE SET
>>                 IDENTIFIER'S VALUE USED
<>                 IDENTIFIER SET AND/OR USED
--                 IDENTIFIER REFERENCED
PL6.E3A0      #001=DDB$USERFAULT File=DDB$UFAULT.:E05TSI                         TUE 07/29/97 13:50 Page:17
          MINI XREF LISTING

B$TCB.STK$
      4443**DCL      4457>>ASSIGN
B$TCB$
      4360**DCL      4457>>ASSIGN
DDB$EISRESET
      4448**DCL-ENT  4466--CALL
DDB$RESTORE
      4447**DCL-ENT  4470--CALL     4482--CALL
DDB$STEPRESET
      4449**DCL-ENT  4468--CALL
DDB$WHENRESET
      4450**DCL-ENT  4464--CALL
DDR$REPORT
      4451**DCL-ENT  4472--CALL     4483--CALL
DUR$ECCRPT
      4445**DCL-ENT  4473--CALL     4474--CALL     4484--CALL
DXA$KEEP_FAULTS
      4446**DCL-ENT  4463--CALL
D_XDELTA
      4359**DCL      4456>>IF       4471>>IF       4483>>IF
FLAG
      1620**DCL      4454<<ASSIGN   4473>>IF       4493<<ASSIGN
I
      1619**DCL      4488<<DOINDEX  4489>>IF       4489>>IF       4491>>IF
NOTEIS
      4461**LABEL    4466--CALLALT
NOTSTEP
      4461**LABEL    4468--CALLALT
NOTWHEN
      4461**LABEL    4464--CALLALT
S_D.CURRENT_CHANNEL
      3993**DCL      3995--REDEF
PL6.E3A0      #001=DDB$USERFAULT File=DDB$UFAULT.:E05TSI                         TUE 07/29/97 13:50 Page:18
S_D.DEBUGA
      3145**DCL      3147--REDEF
S_D.EIS
      4103**DCL      4132--REDEF
S_D.FAULTCMD$
      3060**DCL      4455<<ASSIGN
S_D.FIXCOM.CDF
      3509**DCL      4491>>IF
S_D.FIXCOM.CMD
      3501**DCL      4489>>IF       4489>>IF
S_D.FIXLAST
      3137**DCL      4488>>DOINDEX
S_D.HOST_MESSAGE_BUF_REMOTE
      4036**DCL      4037--REDEF    4051--REDEF
S_D.JDE
      3650**DCL      3651--REDEF
S_D.L$.VALUE
      3203**DCL      3209--REDEF    3217--REDEF    3220--REDEF    3223--REDEF    3226--REDEF
S_D.L$.VALUE.L
      3204**DCL      3205--REDEF    3206--REDEF
S_D.L6_MESSAGE_BUF
      4057**DCL      4059--REDEF
S_D.OUTPUT
      4023**DCL      4025--REDEF
S_D.REMOTE_MSG.FNCC
      4042**DCL      4043--REDEF
S_D.REMOTE_MSG.STXC
      4038**DCL      4039--REDEF
S_D.REMOTE_MSG.SUBFNCC
      4046**DCL      4047--REDEF
S_D.SAVEIC
      3056**DCL      4461<<ASSIGN   4491>>IF
S_D.SL
      3068**DCL      4458>>IF
S_D.STOP
      3139**DCL      4453<<ASSIGN
PL6.E3A0      #001=DDB$USERFAULT File=DDB$UFAULT.:E05TSI                         TUE 07/29/97 13:50 Page:19
S_D.SV
      3102**DCL      3123--REDEF
S_D.SV.DELENT
      3110**DCL      4475<<ASSIGN
S_D.TCB$
      3683**DCL      4457<<ASSIGN
S_D.TIC
      3092**DCL      4458>>IF       4461>>ASSIGN
S_D.X$EQ.ACTIVE
      3549**DCL      4479>>IF       4481<<ASSIGN
S_D$
      4354**DCL      3050--IMP-PTR  4453>>ASSIGN   4455>>ASSIGN   4457>>ASSIGN   4458>>IF       4458>>IF
      4461>>ASSIGN   4461>>ASSIGN   4475>>ASSIGN   4479>>IF       4481>>ASSIGN   4488>>DOINDEX  4489>>IF
      4489>>IF       4491>>IF       4491>>IF
USERFLT10
      4457**LABEL    4498--GOTO
USERFLT20
      4461**LABEL    4494--GOTO
USERGO
      4499**LABEL    4463--CALLALT
PL6.E3A0      #001=DDB$USERFAULT File=DDB$UFAULT.:E05TSI                         TUE 07/29/97 13:50 Page:20
              *** CROSS REFERENCE LISTING ***
    **     DENOTES     IDENTIFIER DEFINITION
    <<                 IDENTIFIER'S VALUE SET
    >>                 IDENTIFIER'S VALUE USED
    <>                 IDENTIFIER SET AND/OR USED
    --                 IDENTIFIER REFERENCED
PL6.E3A0      #001=DDB$USERFAULT File=DDB$UFAULT.:E05TSI                         TUE 07/29/97 13:50 Page:21
              MINI UREF LISTING

DDB$USERFAULT      28**PROC
FIXCOM    1333**DCL
M$ACCT    4387**DCL-ENT
M$ACTIVATE    4390**DCL-ENT
M$ALIB    4383**DCL-ENT
M$ASUSER    4385**DCL-ENT
M$ATTACH    4392**DCL-ENT
M$BADPP    4410**DCL-ENT
M$CGCTL    4391**DCL-ENT
M$CGINFO    4391**DCL-ENT
M$CHECK    4372**DCL-ENT
M$CHGUNIT    4430**DCL-ENT
M$CLOSE    4370**DCL-ENT
M$CLRSTK    4428**DCL-ENT
M$CMDVAR    4439**DCL-ENT
M$CONFIG    4400**DCL-ENT
M$CORRES    4375**DCL-ENT
M$CPEXIT    4384**DCL-ENT
M$CVM    4408**DCL-ENT
M$CVOL    4373**DCL-ENT
M$DCLFLD    4400**DCL-ENT
M$DEACTIVATE    4390**DCL-ENT
M$DELREC    4372**DCL-ENT
M$DEQ    4437**DCL-ENT
M$DETACH    4392**DCL-ENT
M$DEVICE    4374**DCL-ENT
M$DISPLAY    4437**DCL-ENT
M$DISPRES    4377**DCL-ENT
M$DLIB    4383**DCL-ENT
M$DRIBBLE    4400**DCL-ENT
M$DRTN    4428**DCL-ENT
M$DSUSER    4385**DCL-ENT
PL6.E3A0      #001=DDB$USERFAULT File=DDB$UFAULT.:E05TSI                         TUE 07/29/97 13:50 Page:22
M$ENQ    4436**DCL-ENT
M$EOM    4395**DCL-ENT
M$ERASE    4401**DCL-ENT
M$ERR    4382**DCL-ENT
M$ERRMSG    4433**DCL-ENT
M$EVENT    4425**DCL-ENT
M$EXHUME    4434**DCL-ENT
M$EXIT    4382**DCL-ENT
M$EXTEND    4374**DCL-ENT
M$FDP    4406**DCL-ENT
M$FDS    4405**DCL-ENT
M$FEBOOT    4398**DCL-ENT
M$FECTL    4399**DCL-ENT
M$FEDUMP    4398**DCL-ENT
M$FID    4433**DCL-ENT
M$FINDPROC    4387**DCL-ENT
M$FSUSER    4385**DCL-ENT
M$FVP    4407**DCL-ENT
M$FWCG    4391**DCL-ENT
M$GBPL    4411**DCL-ENT
M$GDDL    4407**DCL-ENT
M$GDP    4406**DCL-ENT
M$GDS    4405**DCL-ENT
M$GETDCB    4376**DCL-ENT
M$GETMOUSE    4416**DCL-ENT
M$GETPM    4417**DCL-ENT
M$GJOB    4435**DCL-ENT
M$GLINEATTR    4395**DCL-ENT
M$GOODPP    4410**DCL-ENT
M$GPLATEN    4403**DCL-ENT
M$GPROMPT    4402**DCL-ENT
M$GTRMATTR    4396**DCL-ENT
M$GTRMCTL    4394**DCL-ENT
M$GTRMTAB    4397**DCL-ENT
M$GVP    4406**DCL-ENT
M$HELP    4433**DCL-ENT
PL6.E3A0      #001=DDB$USERFAULT File=DDB$UFAULT.:E05TSI                         TUE 07/29/97 13:50 Page:23
M$INT    4425**DCL-ENT
M$INTRTN    4386**DCL-ENT
M$IOQ    4421**DCL-ENT
M$JOBSTATS    4435**DCL-ENT
M$KEYIN    4375**DCL-ENT
M$LDEV    4370**DCL-ENT
M$LDTRC    4383**DCL-ENT
M$LIMIT    4376**DCL-ENT
M$LINES    4375**DCL-ENT
M$LINK    4382**DCL-ENT
M$MADMUCK    4378**DCL-ENT
M$MAKUSER    4409**DCL-ENT
M$MBS    4377**DCL-ENT
M$MDFFLD    4401**DCL-ENT
M$MERC    4426**DCL-ENT
M$MERCS    4427**DCL-ENT
M$MIRROR    4421**DCL-ENT
M$MONINFO    4438**DCL-ENT
M$MPL    4411**DCL-ENT
M$NODEINFO    4402**DCL-ENT
M$NXTUSR    4436**DCL-ENT
M$OCMSG    4434**DCL-ENT
M$OLAY    4382**DCL-ENT
M$OPEN    4370**DCL-ENT
M$PAS    4411**DCL-ENT
M$PATHCON    4434**DCL-ENT
M$PDS    4405**DCL-ENT
M$PFIL    4372**DCL-ENT
M$PLATEN    4396**DCL-ENT
M$PRECORD    4374**DCL-ENT
M$PROCNAME    4387**DCL-ENT
M$PROFILE    4398**DCL-ENT
M$PROMPT    4394**DCL-ENT
M$RACST    4378**DCL-ENT
M$RDSYSLOG    4419**DCL-ENT
M$READ    4371**DCL-ENT
PL6.E3A0      #001=DDB$USERFAULT File=DDB$UFAULT.:E05TSI                         TUE 07/29/97 13:50 Page:24
M$RELDCB    4376**DCL-ENT
M$RELRES    4377**DCL-ENT
M$RELSTARF    4379**DCL-ENT
M$REM    4379**DCL-ENT
M$RENV    4426**DCL-ENT
M$REQUIRE    4378**DCL-ENT
M$RETRY    4427**DCL-ENT
M$RETRYS    4427**DCL-ENT
M$REW    4373**DCL-ENT
M$RLSFLD    4401**DCL-ENT
M$RPRIV    4429**DCL-ENT
M$RSPP    4408**DCL-ENT
M$RSWITCH    4430**DCL-ENT
M$RUE    4436**DCL-ENT
M$SAD    4409**DCL-ENT
M$SAVE    4385**DCL-ENT
M$SCON    4386**DCL-ENT
M$SCREECH    4384**DCL-ENT
M$SENV    4426**DCL-ENT
M$SETFMA    4370**DCL-ENT
M$SETFP    4399**DCL-ENT
M$SINPUT    4397**DCL-ENT
M$SLCFLD    4402**DCL-ENT
M$SMOUSE    4416**DCL-ENT
M$SMPRT    4408**DCL-ENT
M$SPRIV    4429**DCL-ENT
M$SSC    4409**DCL-ENT
M$SSWITCH    4429**DCL-ENT
M$STATE    4438**DCL-ENT
M$STD    4410**DCL-ENT
M$STIMER    4424**DCL-ENT
M$STLPP    4407**DCL-ENT
M$STRAP    4424**DCL-ENT
M$STRMATTR    4396**DCL-ENT
M$STRMCTL    4394**DCL-ENT
M$STRMTAB    4397**DCL-ENT
PL6.E3A0      #001=DDB$USERFAULT File=DDB$UFAULT.:E05TSI                         TUE 07/29/97 13:50 Page:25
M$SYMBIO    4435**DCL-ENT
M$SYSCON    4421**DCL-ENT
M$SYSID    4439**DCL-ENT
M$TDCLOSE    4420**DCL-ENT
M$TDIO    4420**DCL-ENT
M$TDOPEN    4419**DCL-ENT
M$TDREQCPU    4420**DCL-ENT
M$TEMPWROC    4414**DCL-ENT
M$TIME    4437**DCL-ENT
M$TRAP    4424**DCL-ENT
M$TRMISC    4399**DCL-ENT
M$TRMPRG    4395**DCL-ENT
M$TRTN    4428**DCL-ENT
M$TRUNC    4371**DCL-ENT
M$TTIMER    4424**DCL-ENT
M$UC    4394**DCL
M$UMPL    4411**DCL-ENT
M$UNFID    4433**DCL-ENT
M$UNLATCH    4390**DCL-ENT
M$UNSHARE    4387**DCL-ENT
M$USRFIELD    4430**DCL-ENT
M$VIRTUAL    4405**DCL-ENT
M$WAIT    4428**DCL-ENT
M$WEOF    4373**DCL-ENT
M$WRITE    4371**DCL-ENT
M$WRSYSLOG    4419**DCL-ENT
M$XCON    4425**DCL-ENT
M$XCONRTN    4386**DCL-ENT
M$XEQTIME    4438**DCL-ENT
M$XFLUSH    4379**DCL-ENT
M$XMOUSE    4416**DCL-ENT
M$XXX    4382**DCL-ENT
M$YC    4384**DCL-ENT
