VERSION E05

 13:50 07/29/97  FILE=DDC$AS.:E05TSI                                                                     1    BMAP - B00
                                         1  *M*  DDC$AS   -  Routines to push current DR2 on AS and pop AS
                                         2  *T***********************************************************
                                         3  *T*                                                         *
                                         4  *T* Copyright (c) Bull HN Information Systems Inc., 1997    *
                                         5  *T*                                                         *
                                         6  *T***********************************************************
                                         7  *F*  NAME: DDC$SET_DR2
                                         8  *F*  PURPOSE: Push current DR2 onto AS for reference in PL6 as UDR2$
                                         9  *F*  NAME: Pop argument stack before exiting to user
                                        10  *
 0 000000                               11           USE      DDC$SET_AS,1
                                        12           ENTDEF   DDC$SET_AS
                                        13           ENTDEF   DDC$POP_AS
                                        14           SYMREF   USS1$
                                        15           SYMREF   ULS$
                                        16           SYMREF   D_XDELTA
             000000000000               17  PR0      EQU      0
                                        18  *
   000000                               19  DDC$SET_AS   NULL
                                        20  *N* TEMP FOR XDELTA - DO NOTHING
   000000  X 000000 2350 00             21           LDA      D_XDELTA          IS THIS XDELTA ?
   000001    000001 6040 11             22           TMI      1,X1              YES, GET OUT
   000002  X 000000 4704 00             23           LDP0     USS1$             PTR TO SAFE-STORE FRAME - TYPE 1
   000003    0 00034 6705 00            24           LDD0     28,,PR0           DR2 FROM SAFE STORE
   000004    000000 1104 00             25           SDR0                       PUSH ONTO AS
   000005  X 000000 2350 00             26           LDA      D_XDELTA          IS THIS XDELTA ?
   000006    000001 6040 11             27           TMI      1,X1              YES, GET OUT
   000007  X 000000 4704 00             28           LDP0     ULS$              USER LS
   000010    0 00034 6715 00            29           LDD1     28,,PR0           USER ECCB
   000011    000000 1114 00             30           SDR1                       PUSH ON AS (AS1)
   000012    0 00036 6715 00            31           LDD1     30,,PR0           USER TCB
   000013    000000 1114 00             32           SDR1                       PUSH ON AS (AS2)
   000014    000001 7100 11             33           TRA      1,X1
                                        34  *
   000015                               35  DDC$POP_AS   NULL
   000015  X 000000 2350 00             36           LDA      D_XDELTA          ONLY POP IF XDELTA
   000016    000001 6050 11             37           TPL      1,X1
 13:50 07/29/97  FILE=DDC$AS.:E05TSI                                                                     2    BMAP - B00
   000017 (1)000000 1764 00             38           PAS      =0                POP ARGUMENT STACK
   000020    000001 7100 11             39           TRA      1,X1
                                        40           END
 1 000000    000000000000

  CONTROL SECTION TABLE

   0 CODE   EVEN  000021 DDC$SET_AS
   1 RODATA EVEN  000001 LITERALS

 13:50 07/29/97  FILE=DDC$AS.:E05TSI          SYMBOL TABLE                                               3    BMAP - B00
 12101000 000000000015 DDC$POP_AS      13       *35
 12101000 000000000000 DDC$SET_AS      12       *19
 03301002 000000000000 D_XDELTA       *16        21        26        36
 41000000 000000000000 PR0            *17        24        29        31
 03301001 000000000000 ULS$           *15        28
 03301000 000000000000 USS1$          *14        23

       6 SYMBOLS

       0 MACROS

    SYMBOL SPACE USED    83 WORDS
     MACRO SPACE USED     0 WORDS
   INPUT RECORDS READ    80
 STATEMENTS PROCESSED    32
         ELAPSED TIME  0:01.12
             CPU TIME     0.40 SEC.
        ASSEMBLY RATE  4800 STATEMENTS/CPU MIN.

      NO ERRORS

