VERSION E05

PL6.E3A0      #001=DDD$ADDREXP File=DDD$ADDREXP.:E05TSI                          TUE 07/29/97 13:50 Page:1
        1        1        /*M*  DDD$ADDREXP - BUILD ADDRESS EXPRESSION ENTRY IN DATA DESCRIPTOR */
        2        2        /*T***********************************************************/
        3        3        /*T*                                                         */
        4        4        /*T* Copyright (c) Bull HN Information Systems Inc., 1997    */
        5        5        /*T*                                                         */
        6        6        /*T***********************************************************/
        7        7        /*X* DMR,PLM=5,IND=5,CSU=3,EXM=0,ECU=3,MOC,DCI=5,CRT=5 */
        8        8        %SET LISTSUB='1'B;
        9        9        DDD$ADDREXP: PROC(ROOT$,EXPR_IDX) ALTRET;
       10       10        /* PARMS */
       11       11    1   DCL ROOT$ PTR;
       12       12    1   DCL EXPR_IDX SBIN;
       13       13        /* MISC */
       14       14             %INCLUDE XUH_MACRO_C;
       15       98             %INCLUDE DD_SD_M;
       16     1434             %S_D;
       17     2752             %INCLUDE DD_ERR_C;
       18     3149             %INCLUDE DD_PSUBS_C;
       19     3624             %INCLUDE XU_MACRO_C;
       20     6730             %PARSE$OUT(NAME=O,SCRITCH=SCRATCH,STCLASS=BASED);
       21     6775             %INCLUDE DD$DITEM;
       12+    6878             %LIST;
       13+    6879    1        DCL SDD$ PTR;
       14+    6880    1        DCL ZITEM$ PTR;
       15+    6881    1        DCL SDD_L6$ PTR;
       16+    6882    1        DCL ZITEM_L6$ PTR;
       22     7456             %DITEM;
       23     7536        /* EXTERNAL ROUTINES */
       24     7537    1   DCL DDD$SIMEXP ENTRY(3) ALTRET;
       25     7538        /* LOCAL TEMPS */
       26     7539    1   DCL TEMP$ PTR;
       27     7540    1   DCL TEMP SBIN;
       28     7541    1   DCL UBIN36 UBIN BASED;
       29     7542                                                /**/
       30     7543    1        SDD$ = S_D.D$;
       31     7544    1        TEMP$ = ROOT$ -> O.SUBLK$(EXPR_IDX);
       32     7545    1        DITEM = '0'B;
PL6.E3A0      #001=DDD$ADDREXP File=DDD$ADDREXP.:E05TSI                          TUE 07/29/97 13:50 Page:2
       33     7546    1        DITEM.TYPE_CODE = %EXP_ICODE;      /* EXP_ICODE */
       34     7547    1        DITEM.FLAGS.EXPOP = TEMP$ -> O.SUBLK$(0) -> O.CODE - 590 + 1; /* PLUS_CODE */
       35     7548                                 /* NOTE ARITH OP CODES ARE 1=+, 2=-, 3=<<, 4=>>  */
       36     7549    1        DITEM.ADDR_TYPE = %CONST_ACODE;    /* CONST_ACODE */
       37     7550    1        CALL DDD$SIMEXP(TEMP$ -> O.SUBLK$(1),
       38     7551    1          TEMP, DITEM.FLAGS.OFLAG) ALTRET(AERR);
       39     7552    1        DITEM.VALUE = TEMP;
       40     7553    1        CALL BUMPD$ ALTRET(AERR);
       41     7554    1        RETURN;
       42     7555    1   AERR:
       43     7556    1        ALTRETURN;
       44     7557             %EJECT;
PL6.E3A0      #001=DDD$ADDREXP File=DDD$ADDREXP.:E05TSI                          TUE 07/29/97 13:50 Page:3
       45     7558             %BUMPD$;
              7559             %LIST;
              7560    1   BUMPD$: PROC(PCNT) ALTRET;
              7561    2   DCL PCNT UBIN;
              7562    2   DCL CNT UBIN;
              7563    2   DCL DD_VARCOM$ PTR SYMREF;
              7564    2   DCL DDM$GETMEM ENTRY(3) ALTRET;
              7565    2        IF ADDR(PCNT) = ADDR(NIL)
              7566    2        THEN CNT = SIZEW(DITEM);
              7567    2        ELSE CNT = PCNT;
              7568    2        SDD$ = PINCRW(SDD$,CNT);
              7569    2        IF SDD$ > S_D.DESCL$
              7570    3        THEN DO;
              7571    3             IF S_D.STORED ~= 0
              7572    4             THEN DO;
              7573    5                  DO WHILE (SDD$ > PINCRW(S_D.DESCL$, 1));
              7574    5                       CALL DDM$GETMEM(DD_VARCOM$, 1024);
              7575    5                       S_D.VARCOM_HIGH$ = PINCRW(S_D.VARCOM_HIGH$, 1024);
              7576    5                       S_D.DESCL$ = S_D.VARCOM_HIGH$;
              7577    5                     END;
              7578    4                END;
              7579    4             ELSE DO;
              7580    4                  S_D.ERROR = 8; /* E@NOROOM */
              7581    4                  ALTRETURN;
              7582    4                END;
              7583    3           END;
              7584    2        S_D.D$ = SDD$;
              7585    2        RETURN;
              7586    2        END BUMPD$;
       46     7589    1   END DDD$ADDREXP;

PL6.E3A0      #001=DDD$ADDREXP File=DDD$ADDREXP.:E05TSI                          TUE 07/29/97 13:50 Page:4
--  Include file information  --

   DD_SRTN_C.:E05TOU  is referenced.
   DD_ACODE_C.:E05TOU  is referenced.
   DD_ICODE_C.:E05TOU  is referenced.
   DD$DITEM.:E05TOU  cannot be made into a system file and is referenced.
   XU_MACRO_C.:E05TOU  is referenced.
   DD_PSUBS_C.:E05TOU  is referenced.
   DD_ERR_C.:E05TOU  is referenced.
   DD_SD_M.:E05TOU  is referenced.
   XUH_MACRO_C.:E05TOU  is referenced.
   B$JIT_C.:E05TOU  was found in the system file and is never referenced.
   CP_6_C.:E05TOU  was found in the system file and is never referenced.
      No diagnostics issued in procedure DDD$ADDREXP.

   Procedure DDD$ADDREXP requires 92 words for executable code.
   Procedure DDD$ADDREXP requires 20 words of local(AUTO) storage.

    No errors detected in file DDD$ADDREXP.:E05TSI    .

PL6.E3A0      #001=DDD$ADDREXP File=DDD$ADDREXP.:E05TSI                          TUE 07/29/97 13:50 Page:5

 Object Unit name= DDD$ADDREXP                                File name= DDD$ADDREXP.:E05TOU
 UTS= JUL 29 '97 13:50:46.04 TUE                              Compiler= PL-6/E31         Sev=      00
 SharedLib= :SHARED_SYSTEM                                    Alt SharedLib=


    ****  Control sections  ****

 Sect   Type Bound  Init  Size OctSiz  Section name(segment info)
    0   Proc  even  none    92    134  DDD$ADDREXP
    1  RoData even  none     3      3  DDD$ADDREXP

    ****  Entry defs  ****

                              Check   Calling
                             calling  sequence
  Sect OctLoc Primary Altret sequence   type   Parms  Name
     0      0   yes    yes     yes      Std        2  DDD$ADDREXP

  ****  Entry refs  ****

         Check        Calling
        calling       sequence
Altret sequence SRef   type   Args  Name
 yes     yes           Std       3 DDD$SIMEXP
 yes     yes           Std       3 DDM$GETMEM
                       nStd      0 X66_AUTO_2
                       Std       0 B_CONSPOOL_D
                       nStd      0 X66_ARET
                       nStd      0 X66_AALT

  ****  Data refs  ****

  Flags:  r = read only, s = secondary
Flgs Name                             Flgs Name                             Flgs Name
r    S_D$                                  DD_VARCOM$                            B_VECTNIL
PL6.E3A0      #001=DDD$ADDREXP File=DDD$ADDREXP.:E05TSI                          TUE 07/29/97 13:50 Page:6

  ****  Segment refs  ****

  Flags:  r = read only, s = secondary
Flgs Name                             Flgs Name                             Flgs Name
     ISSID
PL6.E3A0      #001=DDD$ADDREXP File=DDD$ADDREXP.:E05TSI                          TUE 07/29/97 13:50 Page:7


        1        1        /*M*  DDD$ADDREXP - BUILD ADDRESS EXPRESSION ENTRY IN DATA DESCRIPTOR */
        2        2        /*T***********************************************************/
        3        3        /*T*                                                         */
        4        4        /*T* Copyright (c) Bull HN Information Systems Inc., 1997    */
        5        5        /*T*                                                         */
        6        6        /*T***********************************************************/
        7        7        /*X* DMR,PLM=5,IND=5,CSU=3,EXM=0,ECU=3,MOC,DCI=5,CRT=5 */
        8        8        %SET LISTSUB='1'B;
        9        9        DDD$ADDREXP: PROC(ROOT$,EXPR_IDX) ALTRET;

      9  0 000000   000000 700200 xent  DDD$ADDREXP  TSX0  ! X66_AUTO_2
         0 000001   000024 000002                    ZERO    20,2

       10       10        /* PARMS */
       11       11    1   DCL ROOT$ PTR;
       12       12    1   DCL EXPR_IDX SBIN;
       13       13        /* MISC */
       14       14             %INCLUDE XUH_MACRO_C;
       15       98             %INCLUDE DD_SD_M;
       16     1434             %S_D;
       17     2752             %INCLUDE DD_ERR_C;
       18     3149             %INCLUDE DD_PSUBS_C;
       19     3624             %INCLUDE XU_MACRO_C;
       20     6730             %PARSE$OUT(NAME=O,SCRITCH=SCRATCH,STCLASS=BASED);
       21     6775             %INCLUDE DD$DITEM;
       12+    6878             %LIST;
       13+    6879    1        DCL SDD$ PTR;
       14+    6880    1        DCL ZITEM$ PTR;
       15+    6881    1        DCL SDD_L6$ PTR;
       16+    6882    1        DCL ZITEM_L6$ PTR;
       22     7456             %DITEM;
       23     7536        /* EXTERNAL ROUTINES */
       24     7537    1   DCL DDD$SIMEXP ENTRY(3) ALTRET;
       25     7538        /* LOCAL TEMPS */
       26     7539    1   DCL TEMP$ PTR;
       27     7540    1   DCL TEMP SBIN;
PL6.E3A0      #001=DDD$ADDREXP File=DDD$ADDREXP.:E05TSI                          TUE 07/29/97 13:50 Page:8
       28     7541    1   DCL UBIN36 UBIN BASED;
       29     7542                                                /**/
       30     7543    1        SDD$ = S_D.D$;

   7543  0 000002   000000 470400 xsym               LDP0    S_D$
         0 000003   000044 236100                    LDQ     36,,PR0
         0 000004   200005 756100                    STQ     SDD$,,AUTO

       31     7544    1        TEMP$ = ROOT$ -> O.SUBLK$(EXPR_IDX);

   7544  0 000005   200003 471500                    LDP1    @ROOT$,,AUTO
         0 000006   100000 473500                    LDP3    0,,PR1
         0 000007   200004 474500                    LDP4    @EXPR_IDX,,AUTO
         0 000010   400000 235100                    LDA     0,,PR4
         0 000011   300003 236105                    LDQ     3,AL,PR3
         0 000012   200011 756100                    STQ     TEMP$,,AUTO

       32     7545    1        DITEM = '0'B;

   7545  0 000013   200005 475500                    LDP5    SDD$,,AUTO
         0 000014   000100 100400                    MLR     fill='000'O
         0 000015   000002 000001 xsym               ADSC9   B_VECTNIL+2              cn=0,n=1
         0 000016   500000 000014                    ADSC9   0,,PR5                   cn=0,n=12

       33     7546    1        DITEM.TYPE_CODE = %EXP_ICODE;      /* EXP_ICODE */

   7546  0 000017   000010 236007                    LDQ     8,DL
         0 000020   500000 552104                    STBQ    0,'04'O,PR5

       34     7547    1        DITEM.FLAGS.EXPOP = TEMP$ -> O.SUBLK$(0) -> O.CODE - 590 + 1; /* PLUS_CODE */

   7547  0 000021   200011 473500                    LDP3    TEMP$,,AUTO
         0 000022   300003 476500                    LDP6    3,,PR3
         0 000023   600000 236100                    LDQ     0,,PR6
         0 000024   777777 376007                    ANQ     -1,DL
         0 000025   001115 136007                    SBLQ    589,DL
         0 000026   000022 736000                    QLS     18
PL6.E3A0      #001=DDD$ADDREXP File=DDD$ADDREXP.:E05TSI                          TUE 07/29/97 13:50 Page:9
         0 000027   500000 676100                    ERQ     0,,PR5
         0 000030   000017 376003                    ANQ     15,DU
         0 000031   500000 656100                    ERSQ    0,,PR5

       35     7548                                 /* NOTE ARITH OP CODES ARE 1=+, 2=-, 3=<<, 4=>>  */
       36     7549    1        DITEM.ADDR_TYPE = %CONST_ACODE;    /* CONST_ACODE */

   7549  0 000032   102000 236007                    LDQ     33792,DL
         0 000033   500000 552110                    STBQ    0,'10'O,PR5

       37     7550    1        CALL DDD$SIMEXP(TEMP$ -> O.SUBLK$(1),

   7550  0 000034   200005 236100                    LDQ     SDD$,,AUTO
         0 000035   200000 036007                    ADLQ    65536,DL
         0 000036   200022 756100                    STQ     CNT+4,,AUTO
         0 000037   200012 636500                    EPPR6   TEMP,,AUTO
         0 000040   200021 456500                    STP6    CNT+3,,AUTO
         0 000041   200011 236100                    LDQ     TEMP$,,AUTO
         0 000042   000004 036003                    ADLQ    4,DU
         0 000043   200020 756100                    STQ     CNT+2,,AUTO
         0 000044   200020 630500                    EPPR0   CNT+2,,AUTO
         0 000045   000021 631400 xsym               EPPR1   B_VECTNIL+17
         0 000046   000000 701000 xent               TSX1    DDD$SIMEXP
         0 000047   000060 702000 0                  TSX2    AERR

       38     7551    1          TEMP, DITEM.FLAGS.OFLAG) ALTRET(AERR);
       39     7552    1        DITEM.VALUE = TEMP;

   7552  0 000050   200012 235100                    LDA     TEMP,,AUTO
         0 000051   200005 470500                    LDP0    SDD$,,AUTO
         0 000052   000001 755100                    STA     1,,PR0

       40     7553    1        CALL BUMPD$ ALTRET(AERR);

   7553  0 000053   000001 236000 xsym               LDQ     B_VECTNIL+1
         0 000054   200015 756100                    STQ     TEMP+3,,AUTO
         0 000055   000061 701000 0                  TSX1    BUMPD$
PL6.E3A0      #001=DDD$ADDREXP File=DDD$ADDREXP.:E05TSI                          TUE 07/29/97 13:50 Page:10
         0 000056   000060 702000 0                  TSX2    AERR

       41     7554    1        RETURN;

   7554  0 000057   000000 702200 xent               TSX2  ! X66_ARET

       42     7555    1   AERR:
       43     7556    1        ALTRETURN;

   7556  0 000060   000000 702200 xent  AERR         TSX2  ! X66_AALT

       44     7557             %EJECT;
PL6.E3A0      #001=DDD$ADDREXP File=DDD$ADDREXP.:E05TSI                          TUE 07/29/97 13:50 Page:11
       45     7558             %BUMPD$;
              7559             %LIST;
              7560    1   BUMPD$: PROC(PCNT) ALTRET;

   7560  0 000061   200014 741300       BUMPD$       STX1  ! TEMP+2,,AUTO

              7561    2   DCL PCNT UBIN;
              7562    2   DCL CNT UBIN;
              7563    2   DCL DD_VARCOM$ PTR SYMREF;
              7564    2   DCL DDM$GETMEM ENTRY(3) ALTRET;
              7565    2        IF ADDR(PCNT) = ADDR(NIL)

   7565  0 000062   200015 236100                    LDQ     @PCNT,,AUTO
         0 000063   000001 116000 xsym               CMPQ    B_VECTNIL+1
         0 000064   000070 601000 0                  TNZ     s:7567

              7566    2        THEN CNT = SIZEW(DITEM);

   7566  0 000065   000003 235007                    LDA     3,DL
         0 000066   200016 755100                    STA     CNT,,AUTO
         0 000067   000073 710000 0                  TRA     s:7568

              7567    2        ELSE CNT = PCNT;

   7567  0 000070   200015 470500                    LDP0    @PCNT,,AUTO
         0 000071   000000 235100                    LDA     0,,PR0
         0 000072   200016 755100                    STA     CNT,,AUTO

              7568    2        SDD$ = PINCRW(SDD$,CNT);

   7568  0 000073   200016 236100                    LDQ     CNT,,AUTO
         0 000074   000022 736000                    QLS     18
         0 000075   200005 036100                    ADLQ    SDD$,,AUTO
         0 000076   200005 756100                    STQ     SDD$,,AUTO

              7569    2        IF SDD$ > S_D.DESCL$

PL6.E3A0      #001=DDD$ADDREXP File=DDD$ADDREXP.:E05TSI                          TUE 07/29/97 13:50 Page:12
   7569  0 000077   000000 470400 xsym               LDP0    S_D$
         0 000100   000042 116100                    CMPQ    34,,PR0
         0 000101   000130 602000 0                  TNC     s:7584
         0 000102   000130 600000 0                  TZE     s:7584

              7570    3        THEN DO;

              7571    3             IF S_D.STORED ~= 0

   7571  0 000103   000135 235100                    LDA     93,,PR0
         0 000104   000124 600000 0                  TZE     s:7580

              7572    4             THEN DO;

              7573    5                  DO WHILE (SDD$ > PINCRW(S_D.DESCL$, 1));

   7573  0 000105   000117 710000 0                  TRA     s:7577

              7574    5                       CALL DDM$GETMEM(DD_VARCOM$, 1024);

   7574  0 000106   000001 630400 1                  EPPR0   1
         0 000107   000020 631400 xsym               EPPR1   B_VECTNIL+16
         0 000110   000000 701000 xent               TSX1    DDM$GETMEM
         0 000111   000000 011000                    NOP     0

              7575    5                       S_D.VARCOM_HIGH$ = PINCRW(S_D.VARCOM_HIGH$, 1024);

   7575  0 000112   000000 470400 xsym               LDP0    S_D$
         0 000113   004623 236100                    LDQ     2451,,PR0
         0 000114   002000 036003                    ADLQ    1024,DU
         0 000115   004623 756100                    STQ     2451,,PR0

              7576    5                       S_D.DESCL$ = S_D.VARCOM_HIGH$;

   7576  0 000116   000042 756100                    STQ     34,,PR0

              7577    5                     END;
PL6.E3A0      #001=DDD$ADDREXP File=DDD$ADDREXP.:E05TSI                          TUE 07/29/97 13:50 Page:13

   7577  0 000117   000042 236100                    LDQ     34,,PR0
         0 000120   000001 036003                    ADLQ    1,DU
         0 000121   200005 116100                    CMPQ    SDD$,,AUTO
         0 000122   000106 602000 0                  TNC     s:7574

              7578    4                END;

   7578  0 000123   000130 710000 0                  TRA     s:7584

              7579    4             ELSE DO;

              7580    4                  S_D.ERROR = 8; /* E@NOROOM */

   7580  0 000124   000010 235007                    LDA     8,DL
         0 000125   000013 755100                    STA     11,,PR0

              7581    4                  ALTRETURN;

   7581  0 000126   200014 221300                    LDX1  ! TEMP+2,,AUTO
         0 000127   000000 702211                    TSX2  ! 0,X1

              7582    4                END;
              7583    3           END;
              7584    2        S_D.D$ = SDD$;

   7584  0 000130   200005 236100                    LDQ     SDD$,,AUTO
         0 000131   000044 756100                    STQ     36,,PR0

              7585    2        RETURN;

   7585  0 000132   200014 221300                    LDX1  ! TEMP+2,,AUTO
         0 000133   000001 702211                    TSX2  ! 1,X1

(unnamed)
 Sect OctLoc
   1     000   000000 002000   000000 006000   000000 006000                    ............
PL6.E3A0      #001=DDD$ADDREXP File=DDD$ADDREXP.:E05TSI                          TUE 07/29/97 13:50 Page:14
              7586    2        END BUMPD$;
       46     7589    1   END DDD$ADDREXP;

PL6.E3A0      #001=DDD$ADDREXP File=DDD$ADDREXP.:E05TSI                          TUE 07/29/97 13:50 Page:15
--  Include file information  --

   DD_SRTN_C.:E05TOU  is referenced.
   DD_ACODE_C.:E05TOU  is referenced.
   DD_ICODE_C.:E05TOU  is referenced.
   DD$DITEM.:E05TOU  cannot be made into a system file and is referenced.
   XU_MACRO_C.:E05TOU  is referenced.
   DD_PSUBS_C.:E05TOU  is referenced.
   DD_ERR_C.:E05TOU  is referenced.
   DD_SD_M.:E05TOU  is referenced.
   XUH_MACRO_C.:E05TOU  is referenced.
   B$JIT_C.:E05TOU  was found in the system file and is never referenced.
   CP_6_C.:E05TOU  was found in the system file and is never referenced.
      No diagnostics issued in procedure DDD$ADDREXP.

   Procedure DDD$ADDREXP requires 92 words for executable code.
   Procedure DDD$ADDREXP requires 20 words of local(AUTO) storage.

    No errors detected in file DDD$ADDREXP.:E05TSI    .
PL6.E3A0      #001=DDD$ADDREXP File=DDD$ADDREXP.:E05TSI                          TUE 07/29/97 13:50 Page:16
          *** CROSS REFERENCE LISTING ***
**     DENOTES     IDENTIFIER DEFINITION
<<                 IDENTIFIER'S VALUE SET
>>                 IDENTIFIER'S VALUE USED
<>                 IDENTIFIER SET AND/OR USED
--                 IDENTIFIER REFERENCED
PL6.E3A0      #001=DDD$ADDREXP File=DDD$ADDREXP.:E05TSI                          TUE 07/29/97 13:50 Page:17
          MINI XREF LISTING

AERR
      7556**LABEL    7550--CALLALT  7553--CALLALT
BUMPD$
      7560**PROC     7553--CALL
CNT IN PROCEDURE BUMPD$
      7562**DCL      7566<<ASSIGN   7567<<ASSIGN   7568>>ASSIGN
DDD$SIMEXP
      7537**DCL-ENT  7550--CALL
DDM$GETMEM IN PROCEDURE BUMPD$
      7564**DCL-ENT  7574--CALL
DD_VARCOM$ IN PROCEDURE BUMPD$
      7563**DCL      7574<>CALL
DITEM
      7457**DCL      7545<<ASSIGN   7566--ASSIGN
DITEM.ADDRESS
      7478**DCL      7483--REDEF    7484--REDEF    7485--REDEF
DITEM.ADDR_TYPE
      7473**DCL      7549<<ASSIGN
DITEM.FLAGS.EXPOP
      7472**DCL      7547<<ASSIGN
DITEM.FLAGS.OFLAG
      7461**DCL      7550<>CALL
DITEM.SP.VD
      7486**DCL      7490--REDEF    7493--REDEF
DITEM.TYPE_CODE
      7476**DCL      7546<<ASSIGN
DITEM.VALUE
      7483**DCL      7552<<ASSIGN
EXPR_IDX
        12**DCL         9--PROC     7544>>ASSIGN
O.CODE
      6744**DCL      7547>>ASSIGN
PL6.E3A0      #001=DDD$ADDREXP File=DDD$ADDREXP.:E05TSI                          TUE 07/29/97 13:50 Page:18
O.SUBLK$
      6769**DCL      7544>>ASSIGN   7547>>ASSIGN   7550<>CALL
PCNT IN PROCEDURE BUMPD$
      7561**DCL      7560--PROC     7565--IF       7567>>ASSIGN
ROOT$
        11**DCL         9--PROC     7544>>ASSIGN
SDD$
      6879**DCL      7457--IMP-PTR  7543<<ASSIGN   7545>>ASSIGN   7546>>ASSIGN   7547>>ASSIGN   7549>>ASSIGN
      7550>>CALL     7552>>ASSIGN   7568<<ASSIGN   7568>>ASSIGN   7569>>IF       7573>>DOWHILE  7584>>ASSIGN
S_D.CURRENT_CHANNEL
      2386**DCL      2388--REDEF
S_D.D$
      1524**DCL      7543>>ASSIGN   7584<<ASSIGN
S_D.DEBUGA
      1538**DCL      1540--REDEF
S_D.DESCL$
      1520**DCL      7569>>IF       7573>>DOWHILE  7576<<ASSIGN
S_D.EIS
      2496**DCL      2525--REDEF
S_D.ERROR
      1467**DCL      7580<<ASSIGN
S_D.HOST_MESSAGE_BUF_REMOTE
      2429**DCL      2430--REDEF    2444--REDEF
S_D.JDE
      2043**DCL      2044--REDEF
S_D.L$.VALUE
      1596**DCL      1602--REDEF    1610--REDEF    1613--REDEF    1616--REDEF    1619--REDEF
S_D.L$.VALUE.L
      1597**DCL      1598--REDEF    1599--REDEF
S_D.L6_MESSAGE_BUF
      2450**DCL      2452--REDEF
S_D.OUTPUT
      2416**DCL      2418--REDEF
S_D.REMOTE_MSG.FNCC
      2435**DCL      2436--REDEF
S_D.REMOTE_MSG.STXC
PL6.E3A0      #001=DDD$ADDREXP File=DDD$ADDREXP.:E05TSI                          TUE 07/29/97 13:50 Page:19
      2431**DCL      2432--REDEF
S_D.REMOTE_MSG.SUBFNCC
      2439**DCL      2440--REDEF
S_D.STORED
      1632**DCL      7571>>IF
S_D.SV
      1495**DCL      1516--REDEF
S_D.VARCOM_HIGH$
      1909**DCL      7575<<ASSIGN   7575>>ASSIGN   7576>>ASSIGN
S_D$
      2747**DCL      1443--IMP-PTR  7543>>ASSIGN   7569>>IF       7571>>IF       7573>>DOWHILE  7575>>ASSIGN
      7575>>ASSIGN   7576>>ASSIGN   7576>>ASSIGN   7580>>ASSIGN   7584>>ASSIGN
TEMP
      7540**DCL      7550<>CALL     7552>>ASSIGN
TEMP$
      7539**DCL      7544<<ASSIGN   7547>>ASSIGN   7550>>CALL
PL6.E3A0      #001=DDD$ADDREXP File=DDD$ADDREXP.:E05TSI                          TUE 07/29/97 13:50 Page:20
              *** CROSS REFERENCE LISTING ***
    **     DENOTES     IDENTIFIER DEFINITION
    <<                 IDENTIFIER'S VALUE SET
    >>                 IDENTIFIER'S VALUE USED
    <>                 IDENTIFIER SET AND/OR USED
    --                 IDENTIFIER REFERENCED
PL6.E3A0      #001=DDD$ADDREXP File=DDD$ADDREXP.:E05TSI                          TUE 07/29/97 13:50 Page:21
              MINI UREF LISTING

DDD$ADDREXP       9**PROC
SDD_L6$    6881**DCL
UBIN36    7541**DCL
ZITEM$    6880**DCL
ZITEM_L6$    6882**DCL
