VERSION E05

PL6.E3A0      #001=DDD$MULT File=DDD$MULT.:E05TSI                                TUE 07/29/97 13:52 Page:1
        1        1        /*M*  DDD$MULT - FILLS IN CACLULATED MULTIPLIERS FOR INDEX DATA ITEMS */
        2        2        /*T***********************************************************/
        3        3        /*T*                                                         */
        4        4        /*T* Copyright (c) Bull HN Information Systems Inc., 1997    */
        5        5        /*T*                                                         */
        6        6        /*T***********************************************************/
        7        7        /*X* DMR,PLM=5,IND=5,CSU=3,EXM=0,ECU=3,MOC,DCI=5,CRT=5 */
        8        8        %SET LISTSUB = '1'B;
        9        9        DDD$MULT: PROC(DIM_CNT, MULT, PENTRY$, ENTRY#) ALTRET;
       10       10        /* PARMS */
       11       11    1   DCL DIM_CNT SBIN;
       12       12    1   DCL MULT(0:0) PTR;
       13       13    1   DCL PENTRY$ PTR;
       14       14             %INCLUDE DD$BASED;
       15     1317             %DD$VENTRY;
       16     1322    1   DCL I UBIN;
       17     1323    1   DCL D SBIN;
       18     1324    1   DCL DIMS UBIN;
       19     1325    1   DCL J UBIN;
       20     1326    1   DCL IND UBIN;
       21     1327    1   DCL ENTRY$ PTR;
       22     1328    1   DCL SAVE_ENTRY$ PTR;
       23     1329    1   DCL ERESET BIT(1);
       24     1330    1   DCL ARRAYTYP UBIN;
       25     1331    1   DCL IENTRY$ PTR;
       26     1332    1   DCL TEMP UBIN;
       27     1333    1   DCL TEMP1 UBIN;
       28     1334    1   DCL VALUE UBIN;
       29     1335    1   DCL ADDRESS UBIN;
       30     1336    1   DCL SEG UBIN;
       31     1337    1   DCL DESC# UBIN;
       32     1338    1   DCL NOT_IS BIT(1) ALIGNED;
       33     1339    1   DCL B$TCB$ PTR SYMREF;
       34     1340    1   DCL IENTRY# UBIN;
       35     1341    1   DCL TYPESIZE_MULT(0:63) UBIN SYMREF;
       36     1342    1   DCL TYPESIZE_MULT_FEP(0:63) UBIN SYMREF;
       37     1343        /* EXTERNAL ENTRIES */
PL6.E3A0      #001=DDD$MULT File=DDD$MULT.:E05TSI                                TUE 07/29/97 13:52 Page:2
       38     1344    1   DCL DDE$ERROR ENTRY;
       39     1345    1   DCL DDF$VREBL_# ENTRY(2) ALTRET;
       40     1346    1   DCL DDK$GETMVAL ENTRY(5) ALTRET;
       41     1347    1   DCL DFK$GETMVAL ENTRY(6) ALTRET;
       42     1348             %INCLUDE CP_6;
       43     1429             %B$TCB;
       44     1432             %INCLUDE B$SS;
       45     1611             %INCLUDE XUH_MACRO_C;
       46     1695             %INCLUDE DD_SD_M;
       47     3031             %S_D;
       48     4349             %INCLUDE B$OBJECT_C;
       49     7779             %B$VREBL(STCLASS="BASED(ENTRY$)");
       50     7943             %B$VREBLC(STCLASS="BASED(ENTRY$)");
       51     8016             %B$VREBLCA(STCLASS="BASED(ENTRY$)");
       52     8104             %VREBLSUBS;
       53     8112             %INCLUDE DD_ERR_C;
       54     8509             %INCLUDE DD$DITEM;
       12+    8612             %LIST;
       13+    8613    1        DCL SDD$ PTR;
       14+    8614    1        DCL ZITEM$ PTR;
       15+    8615    1        DCL SDD_L6$ PTR;
       16+    8616    1        DCL ZITEM_L6$ PTR;
       55     9190             %DITEM;
       56     9270             %MITEM;
       57     9318                                                /**/
       58     9319    1        J = 0;
       59     9320    1        ENTRY$ = PENTRY$;
       60     9321    1        ERESET = '0'B;
       61     9322    2        DO I = 1 TO ENTRY#.C;
       62     9323    2             IF ENTRY#.C ~= 1
       63     9324    3             THEN DO;
       64     9325    3                  CALL DDF$VREBL_#(ENTRY#.E( I ), ENTRY$) ALTRET(BADSCHEMA);
       65     9326    3                  ERESET = '1'B;
       66     9327    3                END;
       67     9328    2             ARRAYTYP = B$VREBL.ARRAYTYP;
       68     9329    3             DO CASE( ARRAYTYP);
       69     9330    3               CASE( %SCALAR_ARRAY );
PL6.E3A0      #001=DDD$MULT File=DDD$MULT.:E05TSI                                TUE 07/29/97 13:52 Page:3
       70     9331                                                /* Do nothing */
       71     9332    3               CASE( %VECTOR0_ARRAY, %VECTOR1_ARRAY );
       72     9333    3                  MULT( J ) -> MITEM.MULT = 1;
       73     9334    3                  IF ARRAYTYP = %VECTOR1_ARRAY
       74     9335    3                  THEN MULT( J ) -> MITEM.OFS = 1;
       75     9336    3                  ELSE MULT( J ) -> MITEM.OFS = 0;
       76     9337    3                  MULT( J ) -> MITEM.NEWOFF = '1'B;
       77     9338    3                  IF B$VREBL.SZTYP
       78     9339    4                  THEN DO;
       79     9340    4                       IENTRY# = B$VREBL.LOGSIZ;
       80     9341    4                       CALL DDF$VREBL_#(IENTRY#, IENTRY$) ALTRET(BADSCHEMA);
       81     9342    4                       CALL GETVAL ALTRET(TRAP_ELMNTSIZ);
       82     9343    4                       IF S_D.ONE_TO_TWO.EXEC_DOMAIN = %HOST
       83     9344    4                       THEN MULT( J ) -> MITEM.ELMNTSIZ = VALUE * TYPESIZE_MULT(B$VREBL
              9344                                .DATATYP);
       84     9345    4                       ELSE MULT( J ) -> MITEM.ELMNTSIZ = VALUE * TYPESIZE_MULT_FEP(
              9345                                B$VREBL.DATATYP);
       85     9346    4                     END;
       86     9347    3                  ELSE MULT( J ) -> MITEM.ELMNTSIZ = B$VREBL.ELMNTSIZ;
       87     9348    3                  J = J + 1;
       88     9349    3               CASE( %REAL_ARRAY, %VIRTUAL_ARRAY);
       89     9350    3                  DIMS = B$VREBL.DIMS - 1;
       90     9351    3                  MULT( J ) -> MITEM.NEWOFF = '1'B;
       91     9352    3                  IF B$VREBL.SZTYP
       92     9353    4                  THEN DO;
       93     9354    4                       IENTRY# = B$VREBL.LOGSIZ;
       94     9355    4                       CALL DDF$VREBL_#(IENTRY#, IENTRY$) ALTRET(BADSCHEMA);
       95     9356    4                       CALL GETVAL ALTRET(TRAP_ELMNTSIZ);
       96     9357    4                       IF S_D.ONE_TO_TWO.EXEC_DOMAIN = %HOST
       97     9358    4                       THEN MULT( J ) -> MITEM.ELMNTSIZ = VALUE * TYPESIZE_MULT(B$VREBL
              9358                                .DATATYP);
       98     9359    4                       ELSE MULT( J ) -> MITEM.ELMNTSIZ = VALUE * TYPESIZE_MULT_FEP(
              9359                                B$VREBL.DATATYP);
       99     9360    4                     END;
      100     9361    3                  ELSE MULT( J ) -> MITEM.ELMNTSIZ = B$VREBL.ELMNTSIZ;
      101     9362    3                  SAVE_ENTRY$ = ENTRY$;    /* save the original ptr. */
      102     9363    4                  DO D = 0 TO DIMS;
PL6.E3A0      #001=DDD$MULT File=DDD$MULT.:E05TSI                                TUE 07/29/97 13:52 Page:4
      103     9364    4                       IF ARRAYTYP = %REAL_ARRAY
      104     9365    4                       THEN IND = MOD(D, 6);
      105     9366    4                       ELSE IND = MOD(D, 3);
      106     9367    4                       IF IND = 0
      107     9368    4                       THEN ENTRY$ = PINCRW(ENTRY$, SIZEW(B$VREBL));
      108     9369    4                       MULT( J ) -> MITEM.OFS = B$VREBLC.OFFSET;
      109     9370    4                       IF ARRAYTYP = %REAL_ARRAY
      110     9371    4                       THEN MULT( J ) -> MITEM.MULT = B$VREBLC.MULT_62( IND );
      111     9372    4                       ELSE MULT(J)->MITEM.MULT = B$VREBLC.MULT_61( IND );
      112     9373    4                       J = J + 1;
      113     9374    4                       IF DIM_CNT = 1 AND DIMS > 0
      114     9375    5                       THEN DO;
      115     9376    5                            MULT(J - 1) -> MITEM.OFS = 0;
      116     9377    5                            ENTRY$ = SAVE_ENTRY$ ; /* reset to array info. ptr. */
      117     9378    5                            GOTO DONE;     /* Special case for implicit u/l */
      118     9379    5                          END;
      119     9380    4                     END;                  /* DO D = 0 TO DIMS */
      120     9381    3                  ENTRY$ = SAVE_ENTRY$;    /* restore to original. */
      121     9382    3               CASE( %ADJUSTABLE_ARRAY );
      122     9383    3                  DIMS = B$VREBL.DIMS - 1;
      123     9384    3                  MULT(J) -> MITEM.NEWOFF = '1'B;
      124     9385    3                  IF B$VREBL.SZTYP
      125     9386    4                  THEN DO;
      126     9387    4                       IENTRY# = B$VREBL.LOGSIZ;
      127     9388    4                       CALL DDF$VREBL_#(IENTRY#, IENTRY$) ALTRET(BADSCHEMA);
      128     9389    4                       CALL GETVAL ALTRET(TRAP_ELMNTSIZ);
      129     9390    4                       IF S_D.ONE_TO_TWO.EXEC_DOMAIN = %HOST
      130     9391    4                       THEN MULT( J ) -> MITEM.ELMNTSIZ = VALUE * TYPESIZE_MULT(B$VREBL
              9391                                .DATATYP);
      131     9392    4                       ELSE MULT( J ) -> MITEM.ELMNTSIZ = VALUE * TYPESIZE_MULT_FEP(
              9392                                B$VREBL.DATATYP);
      132     9393    4                     END;
      133     9394    3                  ELSE MULT(J) -> MITEM.ELMNTSIZ = B$VREBL.ELMNTSIZ;
      134     9395    4                  DO D = 0 TO DIMS;
      135     9396    4                       IND = MOD(D, 3);
      136     9397    4                       IF IND = 0
      137     9398    4                       THEN ENTRY$ = PINCRW(ENTRY$, SIZEW(B$VREBL));
PL6.E3A0      #001=DDD$MULT File=DDD$MULT.:E05TSI                                TUE 07/29/97 13:52 Page:5
      138     9399    4                       IF B$VREBLCA.IOFFSET
      139     9400    5                       THEN DO;
      140     9401    5                            IENTRY# = B$VREBLCA.OFF_V#;
      141     9402    5                            CALL DDF$VREBL_# (IENTRY#, IENTRY$) ALTRET(BADSCHEMA);
      142     9403    5                            CALL GETVAL ALTRET(TRAP_ADJ_DIM);
      143     9404    5                            MULT(J) -> MITEM.OFS = VALUE;
      144     9405    5                            SAVE_ENTRY$ = ENTRY$; /* save orig. ptr. */
      145     9406    5                            CALL DDF$VREBL_# (ENTRY#.E(I),ENTRY$) ALTRET (BADSCHEMA);
      146     9407    5                            ENTRY$ = SAVE_ENTRY$; /* Restore orig. ptr.*/
      147     9408    5                          END;
      148     9409    4                       ELSE MULT(J) -> MITEM.OFS = B$VREBLCA.OFFSET;
      149     9410    4                       IENTRY# = B$VREBLCA.MULT_A.N(IND);
      150     9411    4                       IF B$VREBLCA.MULT_A.I(IND)
      151     9412    5                       THEN DO;
      152     9413    5                            CALL DDF$VREBL_# (IENTRY#, IENTRY$) ALTRET(BADSCHEMA);
      153     9414    5                            CALL GETVAL ALTRET(TRAP_ADJ_DIM);
      154     9415    5                            MULT(J) -> MITEM.MULT = VALUE;
      155     9416    5                          END;
      156     9417    4                       ELSE MULT(J) -> MITEM.MULT = IENTRY#;
      157     9418    4                       J = J + 1;
      158     9419    4                       IF DIM_CNT = 1 AND DIMS > 0
      159     9420    5                       THEN DO;
      160     9421    5                            MULT(J - 1) -> MITEM.OFS = 0;
      161     9422    5                            MULT(J - 1) -> MITEM.MULT = 1;
      162     9423    5                            GOTO DONE;
      163     9424    5                          END;
      164     9425    4                     END;
      165     9426    3               CASE( ELSE );
      166     9427    3                  S_D.ERROR = 187; /* E@NOTIMPLARRAY */
      167     9428    3                  CALL DDE$ERROR;
      168     9429    3                  RETURN;
      169     9430    3               END;                        /* DO CASE( ARRAYTYP ) */
      170     9431    2           END;                            /* DO I = O TO ENTRY#.C */
      171     9432    1        IF ARRAYTYP = %ADJUSTABLE_ARRAY
      172     9433    2        THEN DO;                           /* Adjust multipliers */
      173     9434    2             TEMP = MULT(0) -> MITEM.MULT;
      174     9435    2             MULT(0) -> MITEM.MULT = 1;
PL6.E3A0      #001=DDD$MULT File=DDD$MULT.:E05TSI                                TUE 07/29/97 13:52 Page:6
      175     9436    3             DO I = 1 TO J - 1;
      176     9437    3                  TEMP1 = MULT(I) -> MITEM.MULT;
      177     9438    3                  MULT(I) -> MITEM.MULT = TEMP1 * MULT(I - 1) -> MITEM.MULT;
      178     9439    3                  TEMP = TEMP1;
      179     9440    3                END;
      180     9441    2           END;
      181     9442    1   DONE:;
      182     9443    1        IF ERESET
      183     9444    1        THEN PENTRY$ = ENTRY$;
      184     9445                                                /**/
      185     9446    1        S_D.D$ -> DITEM.FLAGS.AFLAG = '1'B;
      186     9447    1        RETURN;
      187     9448    1   BADSCHEMA:;
      188     9449    1        S_D.ERROR = 22;              /* E@UERR11 */
      189     9450    1        CALL DDE$ERROR;
      190     9451    1        RETURN;
      191     9452    1   TRAP_ADJ_DIM: ;
      192     9453    1        S_D.ERROR = 263;        /* E@TRAP_ADJ_DIM */
      193     9454    1        ALTRETURN;
      194     9455    1   TRAP_ELMNTSIZ: ;
      195     9456    1        S_D.ERROR = 338;       /* E@TRAP_ELMNTSIZ */
      196     9457    1        ALTRETURN;
      197     9458        %EJECT;
PL6.E3A0      #001=DDD$MULT File=DDD$MULT.:E05TSI                                TUE 07/29/97 13:52 Page:7
      198     9459    1   GETVAL: PROC ALTRET;
      199     9460    2   DCL L6_AUTO UBIN CONSTANT INIT(10485760); /* 'A00000'X = AUTO base for LCP6 user */
      200     9461    3        DO CASE (S_D.ONE_TO_TWO.EXEC_DOMAIN);
      201     9462    3          CASE (%HOST);
      202     9463    3             ADDRESS = IENTRY$ -> B$VREBL.ADR.W;
      203     9464    3          CASE (%L6);
      204     9465    3             ADDRESS = IENTRY$ -> B$VREBL.ADR6.W;
      205     9466    3          CASE (ELSE);
      206     9467    3             S_D.ERROR = 502;         /* E@DELBUG */
      207     9468    3             ALTRETURN;
      208     9469    3          END;
      209     9470    2        SEG = 3;
      210     9471    2        DESC# = 0;
      211     9472    2        NOT_IS = '0'B;
      212     9473    2        IF IENTRY$ -> B$VREBL.ADDRTYP = %AUTO_ACODE + 1
      213     9474    3        THEN DO;
      214     9475    3             IF S_D.ONE_TO_TWO.EXEC_DOMAIN = %HOST
      215     9476    4             THEN DO;
      216     9477    4                  DESC# = 4;
      217     9478    4                  NOT_IS = '1'B;
      218     9479    4                  ADDRESS = ADDRESS + (B$TCB$ -> B$TCB.STK$ -> B$SS.PR2.AR2 / 64);
      219     9480    4   G:             CALL DDK$GETMVAL (VALUE, ADDRESS, SEG, DESC#, NOT_IS) ALTRET(ALT);
      220     9481    4                END;
      221     9482    3             ELSE IF S_D.ONE_TO_TWO.EXEC_DOMAIN = %L6
      222     9483    4                  THEN DO;
      223     9484    4                       ADDRESS = ADDRESS + L6_AUTO;
      224     9485    4   G6:                 CALL DFK$GETMVAL (VALUE, ADDRESS, SEG, DESC#, NOT_IS, '0'B)
              9485            ALTRET(ALT);
      225     9486    4                     END;
      226     9487    4                  ELSE DO;
      227     9488    4                       S_D.ERROR = 502; /* E@DELBUG */
      228     9489    4                       CALL DDE$ERROR;
      229     9490    4                       GOTO ALT;
      230     9491    4                     END;
      231     9492    3           END;
      232     9493    3        ELSE DO;
      233     9494    3             IF S_D.ONE_TO_TWO.EXEC_DOMAIN=%HOST
PL6.E3A0      #001=DDD$MULT File=DDD$MULT.:E05TSI                                TUE 07/29/97 13:52 Page:8
      234     9495    3             THEN GOTO G;
      235     9496    3             ELSE
      236     9497    3                  GOTO G6;
      237     9498    3           END;
      238     9499    2        RETURN;
      239     9500    2   ALT: ;
      240     9501    2        ALTRETURN;
      241     9502    2   END GETVAL;
      242     9503    1   END DDD$MULT;

PL6.E3A0      #001=DDD$MULT File=DDD$MULT.:E05TSI                                TUE 07/29/97 13:52 Page:9
--  Include file information  --

   DD_SRTN_C.:E05TOU  is referenced.
   DD_ACODE_C.:E05TOU  is referenced.
   DD_ICODE_C.:E05TOU  is referenced.
   DD$DITEM.:E05TOU  cannot be made into a system file and is referenced.
   DD_ERR_C.:E05TOU  is referenced.
   B$OBJECT_C.:E05TOU  is referenced.
   DD_SD_M.:E05TOU  is referenced.
   XUH_MACRO_C.:E05TOU  is referenced.
   B$SS.:E05TOU  cannot be made into a system file and is referenced.
   CP_6.:E05TOU  cannot be made into a system file and is referenced.
   DD$BASED.:E05TOU  is referenced.
   B$JIT_C.:E05TOU  was found in the system file and is never referenced.
   CP_6_C.:E05TOU  was found in the system file and is referenced.
      No diagnostics issued in procedure DDD$MULT.

   Procedure DDD$MULT requires 556 words for executable code.
   Procedure DDD$MULT requires 38 words of local(AUTO) storage.

    No errors detected in file DDD$MULT.:E05TSI    .

PL6.E3A0      #001=DDD$MULT File=DDD$MULT.:E05TSI                                TUE 07/29/97 13:52 Page:10

 Object Unit name= DDD$MULT                                   File name= DDD$MULT.:E05TOU
 UTS= JUL 29 '97 13:52:55.56 TUE                              Compiler= PL-6/E31         Sev=      00
 SharedLib= :SHARED_SYSTEM                                    Alt SharedLib=


    ****  Control sections  ****

 Sect   Type Bound  Init  Size OctSiz  Section name(segment info)
    0   DCB   even  none     0      0  M$UC
    1  RoData even  UTS      1      1  DDD$MULT
    2   Proc  even  none   556   1054  DDD$MULT
    3  RoData even  none     1      1  DDD$MULT

    ****  Entry defs  ****

                              Check   Calling
                             calling  sequence
  Sect OctLoc Primary Altret sequence   type   Parms  Name
     2      0   yes    yes     yes      Std        4  DDD$MULT

  ****  Entry refs  ****

         Check        Calling
        calling       sequence
Altret sequence SRef   type   Args  Name
 yes     yes           Std       2 DDF$VREBL_#
         yes           Std       0 DDE$ERROR
 yes     yes           Std       5 DDK$GETMVAL
 yes     yes           Std       6 DFK$GETMVAL
                       nStd      0 X66_AUTO_4
                       Std       0 B_CONSPOOL_D
                       nStd      0 X66_ARET
                       nStd      0 X66_AALT
PL6.E3A0      #001=DDD$MULT File=DDD$MULT.:E05TSI                                TUE 07/29/97 13:52 Page:11

  ****  Data refs  ****

  Flags:  r = read only, s = secondary
Flgs Name                             Flgs Name                             Flgs Name
     B$TCB$                                TYPESIZE_MULT                         TYPESIZE_MULT_FEP
     M$UC                             r    S_D$                                  B_VECTNIL

  ****  Segment refs  ****

  Flags:  r = read only, s = secondary
Flgs Name                             Flgs Name                             Flgs Name
     ISSID
PL6.E3A0      #001=DDD$MULT File=DDD$MULT.:E05TSI                                TUE 07/29/97 13:52 Page:12


        1        1        /*M*  DDD$MULT - FILLS IN CACLULATED MULTIPLIERS FOR INDEX DATA ITEMS */
        2        2        /*T***********************************************************/
        3        3        /*T*                                                         */
        4        4        /*T* Copyright (c) Bull HN Information Systems Inc., 1997    */
        5        5        /*T*                                                         */
        6        6        /*T***********************************************************/
        7        7        /*X* DMR,PLM=5,IND=5,CSU=3,EXM=0,ECU=3,MOC,DCI=5,CRT=5 */
        8        8        %SET LISTSUB = '1'B;
        9        9        DDD$MULT: PROC(DIM_CNT, MULT, PENTRY$, ENTRY#) ALTRET;

      9  2 000000   000000 700200 xent  DDD$MULT     TSX0  ! X66_AUTO_4
         2 000001   000046 000004                    ZERO    38,4

       10       10        /* PARMS */
       11       11    1   DCL DIM_CNT SBIN;
       12       12    1   DCL MULT(0:0) PTR;
       13       13    1   DCL PENTRY$ PTR;
       14       14             %INCLUDE DD$BASED;
       15     1317             %DD$VENTRY;
       16     1322    1   DCL I UBIN;
       17     1323    1   DCL D SBIN;
       18     1324    1   DCL DIMS UBIN;
       19     1325    1   DCL J UBIN;
       20     1326    1   DCL IND UBIN;
       21     1327    1   DCL ENTRY$ PTR;
       22     1328    1   DCL SAVE_ENTRY$ PTR;
       23     1329    1   DCL ERESET BIT(1);
       24     1330    1   DCL ARRAYTYP UBIN;
       25     1331    1   DCL IENTRY$ PTR;
       26     1332    1   DCL TEMP UBIN;
       27     1333    1   DCL TEMP1 UBIN;
       28     1334    1   DCL VALUE UBIN;
       29     1335    1   DCL ADDRESS UBIN;
       30     1336    1   DCL SEG UBIN;
       31     1337    1   DCL DESC# UBIN;
       32     1338    1   DCL NOT_IS BIT(1) ALIGNED;
PL6.E3A0      #001=DDD$MULT File=DDD$MULT.:E05TSI                                TUE 07/29/97 13:52 Page:13
       33     1339    1   DCL B$TCB$ PTR SYMREF;
       34     1340    1   DCL IENTRY# UBIN;
       35     1341    1   DCL TYPESIZE_MULT(0:63) UBIN SYMREF;
       36     1342    1   DCL TYPESIZE_MULT_FEP(0:63) UBIN SYMREF;
       37     1343        /* EXTERNAL ENTRIES */
       38     1344    1   DCL DDE$ERROR ENTRY;
       39     1345    1   DCL DDF$VREBL_# ENTRY(2) ALTRET;
       40     1346    1   DCL DDK$GETMVAL ENTRY(5) ALTRET;
       41     1347    1   DCL DFK$GETMVAL ENTRY(6) ALTRET;
       42     1348             %INCLUDE CP_6;
       43     1429             %B$TCB;
       44     1432             %INCLUDE B$SS;
       45     1611             %INCLUDE XUH_MACRO_C;
       46     1695             %INCLUDE DD_SD_M;
       47     3031             %S_D;
       48     4349             %INCLUDE B$OBJECT_C;
       49     7779             %B$VREBL(STCLASS="BASED(ENTRY$)");
       50     7943             %B$VREBLC(STCLASS="BASED(ENTRY$)");
       51     8016             %B$VREBLCA(STCLASS="BASED(ENTRY$)");
       52     8104             %VREBLSUBS;
       53     8112             %INCLUDE DD_ERR_C;
       54     8509             %INCLUDE DD$DITEM;
       12+    8612             %LIST;
       13+    8613    1        DCL SDD$ PTR;
       14+    8614    1        DCL ZITEM$ PTR;
       15+    8615    1        DCL SDD_L6$ PTR;
       16+    8616    1        DCL ZITEM_L6$ PTR;
       55     9190             %DITEM;
       56     9270             %MITEM;
       57     9318                                                /**/
       58     9319    1        J = 0;

   9319  2 000002   200012 450100                    STZ     J,,AUTO

       59     9320    1        ENTRY$ = PENTRY$;

   9320  2 000003   200005 470500                    LDP0    @PENTRY$,,AUTO
PL6.E3A0      #001=DDD$MULT File=DDD$MULT.:E05TSI                                TUE 07/29/97 13:52 Page:14
         2 000004   000000 236100                    LDQ     0,,PR0
         2 000005   200014 756100                    STQ     ENTRY$,,AUTO

       60     9321    1        ERESET = '0'B;

   9321  2 000006   200016 450100                    STZ     ERESET,,AUTO

       61     9322    2        DO I = 1 TO ENTRY#.C;

   9322  2 000007   000001 235007                    LDA     1,DL
         2 000010   200007 755100                    STA     I,,AUTO
         2 000011   000623 710000 2                  TRA     s:9431+3

       62     9323    2             IF ENTRY#.C ~= 1

   9323  2 000012   200006 470500                    LDP0    @ENTRY#,,AUTO
         2 000013   000000 235100                    LDA     0,,PR0
         2 000014   000001 115007                    CMPA    1,DL
         2 000015   000033 600000 2                  TZE     s:9328

       63     9324    3             THEN DO;

       64     9325    3                  CALL DDF$VREBL_#(ENTRY#.E( I ), ENTRY$) ALTRET(BADSCHEMA);

   9325  2 000016   200014 631500                    EPPR1   ENTRY$,,AUTO
         2 000017   200041 451500                    STP1    SDD$+8,,AUTO
         2 000020   200007 236100                    LDQ     I,,AUTO
         2 000021   000022 736000                    QLS     18
         2 000022   000001 036003                    ADLQ    1,DU
         2 000023   200006 036100                    ADLQ    @ENTRY#,,AUTO
         2 000024   200040 756100                    STQ     SDD$+7,,AUTO
         2 000025   200040 630500                    EPPR0   SDD$+7,,AUTO
         2 000026   000020 631400 xsym               EPPR1   B_VECTNIL+16
         2 000027   000000 701000 xent               TSX1    DDF$VREBL_#
         2 000030   000675 702000 2                  TSX2    BADSCHEMA

       65     9326    3                  ERESET = '1'B;
PL6.E3A0      #001=DDD$MULT File=DDD$MULT.:E05TSI                                TUE 07/29/97 13:52 Page:15

   9326  2 000031   400000 236003                    LDQ     -131072,DU
         2 000032   200016 756100                    STQ     ERESET,,AUTO

       66     9327    3                END;

       67     9328    2             ARRAYTYP = B$VREBL.ARRAYTYP;

   9328  2 000033   200014 470500                    LDP0    ENTRY$,,AUTO
         2 000034   000001 236100                    LDQ     1,,PR0
         2 000035   000004 772000                    QRL     4
         2 000036   000017 376007                    ANQ     15,DL
         2 000037   200017 756100                    STQ     ARRAYTYP,,AUTO

       68     9329    3             DO CASE( ARRAYTYP);

   9329  2 000040   000006 116007                    CMPQ    6,DL
         2 000041   000043 602006 2                  TNC     s:9329+3,QL
         2 000042   000611 710000 2                  TRA     s:9427
         2 000043   000620 710000 2                  TRA     s:9431
         2 000044   000051 710000 2                  TRA     s:9333
         2 000045   000051 710000 2                  TRA     s:9333
         2 000046   000155 710000 2                  TRA     s:9350
         2 000047   000155 710000 2                  TRA     s:9350
         2 000050   000346 710000 2                  TRA     s:9383

       69     9330    3               CASE( %SCALAR_ARRAY );

       70     9331                                                /* Do nothing */
       71     9332    3               CASE( %VECTOR0_ARRAY, %VECTOR1_ARRAY );

       72     9333    3                  MULT( J ) -> MITEM.MULT = 1;

   9333  2 000051   200004 471500                    LDP1    @MULT,,AUTO
         2 000052   200012 720100                    LXL0    J,,AUTO
         2 000053   100000 473510                    LDP3    0,X0,PR1
         2 000054   000001 235007                    LDA     1,DL
PL6.E3A0      #001=DDD$MULT File=DDD$MULT.:E05TSI                                TUE 07/29/97 13:52 Page:16
         2 000055   300001 755100                    STA     1,,PR3

       73     9334    3                  IF ARRAYTYP = %VECTOR1_ARRAY

   9334  2 000056   000002 116007                    CMPQ    2,DL
         2 000057   000063 601000 2                  TNZ     s:9336

       74     9335    3                  THEN MULT( J ) -> MITEM.OFS = 1;

   9335  2 000060   100000 470510                    LDP0    0,X0,PR1
         2 000061   000002 755100                    STA     2,,PR0
         2 000062   000065 710000 2                  TRA     s:9337

       75     9336    3                  ELSE MULT( J ) -> MITEM.OFS = 0;

   9336  2 000063   100000 470510                    LDP0    0,X0,PR1
         2 000064   000002 450100                    STZ     2,,PR0

       76     9337    3                  MULT( J ) -> MITEM.NEWOFF = '1'B;

   9337  2 000065   100000 470510                    LDP0    0,X0,PR1
         2 000066   100000 236003                    LDQ     32768,DU
         2 000067   000000 256100                    ORSQ    0,,PR0

       77     9338    3                  IF B$VREBL.SZTYP

   9338  2 000070   200014 470500                    LDP0    ENTRY$,,AUTO
         2 000071   000001 236100                    LDQ     1,,PR0
         2 000072   000400 316007                    CANQ    256,DL
         2 000073   000145 600000 2                  TZE     s:9347

       78     9339    4                  THEN DO;

       79     9340    4                       IENTRY# = B$VREBL.LOGSIZ;

   9340  2 000074   000001 236100                    LDQ     1,,PR0
         2 000075   000022 772000                    QRL     18
PL6.E3A0      #001=DDD$MULT File=DDD$MULT.:E05TSI                                TUE 07/29/97 13:52 Page:17
         2 000076   200030 756100                    STQ     IENTRY#,,AUTO

       80     9341    4                       CALL DDF$VREBL_#(IENTRY#, IENTRY$) ALTRET(BADSCHEMA);

   9341  2 000077   200020 633500                    EPPR3   IENTRY$,,AUTO
         2 000100   200041 453500                    STP3    SDD$+8,,AUTO
         2 000101   200030 634500                    EPPR4   IENTRY#,,AUTO
         2 000102   200040 454500                    STP4    SDD$+7,,AUTO
         2 000103   200040 630500                    EPPR0   SDD$+7,,AUTO
         2 000104   000020 631400 xsym               EPPR1   B_VECTNIL+16
         2 000105   000000 701000 xent               TSX1    DDF$VREBL_#
         2 000106   000675 702000 2                  TSX2    BADSCHEMA

       81     9342    4                       CALL GETVAL ALTRET(TRAP_ELMNTSIZ);

   9342  2 000107   000714 701000 2                  TSX1    GETVAL
         2 000110   000710 702000 2                  TSX2    TRAP_ELMNTSIZ

       82     9343    4                       IF S_D.ONE_TO_TWO.EXEC_DOMAIN = %HOST

   9343  2 000111   000000 470400 xsym               LDP0    S_D$
         2 000112   006714 235100                    LDA     3532,,PR0
         2 000113   000001 115007                    CMPA    1,DL
         2 000114   000131 601000 2                  TNZ     s:9345

       83     9344    4                      THEN MULT( J ) -> MITEM.ELMNTSIZ = VALUE * TYPESIZE_MULT(B$VREBL
              9344                                .DATATYP);

   9344  2 000115   200004 471500                    LDP1    @MULT,,AUTO
         2 000116   200012 720100                    LXL0    J,,AUTO
         2 000117   100000 473510                    LDP3    0,X0,PR1
         2 000120   200014 474500                    LDP4    ENTRY$,,AUTO
         2 000121   400000 236100                    LDQ     0,,PR4
         2 000122   000002 772000                    QRL     2
         2 000123   000077 376007                    ANQ     63,DL
         2 000124   000000 621006                    EAX1    0,QL
         2 000125   200023 236100                    LDQ     VALUE,,AUTO
PL6.E3A0      #001=DDD$MULT File=DDD$MULT.:E05TSI                                TUE 07/29/97 13:52 Page:18
         2 000126   000000 402011 xsym               MPY     TYPESIZE_MULT,X1
         2 000127   300003 756100                    STQ     3,,PR3
         2 000130   000151 710000 2                  TRA     s:9348

       84     9345    4                       ELSE MULT( J ) -> MITEM.ELMNTSIZ = VALUE * TYPESIZE_MULT_FEP(
              9345                                B$VREBL.DATATYP);

   9345  2 000131   200004 471500                    LDP1    @MULT,,AUTO
         2 000132   200012 720100                    LXL0    J,,AUTO
         2 000133   100000 473510                    LDP3    0,X0,PR1
         2 000134   200014 474500                    LDP4    ENTRY$,,AUTO
         2 000135   400000 236100                    LDQ     0,,PR4
         2 000136   000002 772000                    QRL     2
         2 000137   000077 376007                    ANQ     63,DL
         2 000140   000000 621006                    EAX1    0,QL
         2 000141   200023 236100                    LDQ     VALUE,,AUTO
         2 000142   000000 402011 xsym               MPY     TYPESIZE_MULT_FEP,X1
         2 000143   300003 756100                    STQ     3,,PR3

       85     9346    4                     END;

   9346  2 000144   000151 710000 2                  TRA     s:9348

       86     9347    3                  ELSE MULT( J ) -> MITEM.ELMNTSIZ = B$VREBL.ELMNTSIZ;

   9347  2 000145   100000 473510                    LDP3    0,X0,PR1
         2 000146   000003 236100                    LDQ     3,,PR0
         2 000147   000014 772000                    QRL     12
         2 000150   300003 756100                    STQ     3,,PR3

       87     9348    3                  J = J + 1;

   9348  2 000151   200012 235100                    LDA     J,,AUTO
         2 000152   000001 035007                    ADLA    1,DL
         2 000153   200012 755100                    STA     J,,AUTO
         2 000154   000620 710000 2                  TRA     s:9431

PL6.E3A0      #001=DDD$MULT File=DDD$MULT.:E05TSI                                TUE 07/29/97 13:52 Page:19
       88     9349    3               CASE( %REAL_ARRAY, %VIRTUAL_ARRAY);

       89     9350    3                  DIMS = B$VREBL.DIMS - 1;

   9350  2 000155   000004 236100                    LDQ     4,,PR0
         2 000156   000022 772000                    QRL     18
         2 000157   000001 136007                    SBLQ    1,DL
         2 000160   200011 756100                    STQ     DIMS,,AUTO

       90     9351    3                  MULT( J ) -> MITEM.NEWOFF = '1'B;

   9351  2 000161   200004 471500                    LDP1    @MULT,,AUTO
         2 000162   200012 720100                    LXL0    J,,AUTO
         2 000163   100000 473510                    LDP3    0,X0,PR1
         2 000164   100000 236003                    LDQ     32768,DU
         2 000165   300000 256100                    ORSQ    0,,PR3

       91     9352    3                  IF B$VREBL.SZTYP

   9352  2 000166   200014 470500                    LDP0    ENTRY$,,AUTO
         2 000167   000001 236100                    LDQ     1,,PR0
         2 000170   000400 316007                    CANQ    256,DL
         2 000171   000243 600000 2                  TZE     s:9361

       92     9353    4                  THEN DO;

       93     9354    4                       IENTRY# = B$VREBL.LOGSIZ;

   9354  2 000172   000001 236100                    LDQ     1,,PR0
         2 000173   000022 772000                    QRL     18
         2 000174   200030 756100                    STQ     IENTRY#,,AUTO

       94     9355    4                       CALL DDF$VREBL_#(IENTRY#, IENTRY$) ALTRET(BADSCHEMA);

   9355  2 000175   200020 633500                    EPPR3   IENTRY$,,AUTO
         2 000176   200041 453500                    STP3    SDD$+8,,AUTO
         2 000177   200030 634500                    EPPR4   IENTRY#,,AUTO
PL6.E3A0      #001=DDD$MULT File=DDD$MULT.:E05TSI                                TUE 07/29/97 13:52 Page:20
         2 000200   200040 454500                    STP4    SDD$+7,,AUTO
         2 000201   200040 630500                    EPPR0   SDD$+7,,AUTO
         2 000202   000020 631400 xsym               EPPR1   B_VECTNIL+16
         2 000203   000000 701000 xent               TSX1    DDF$VREBL_#
         2 000204   000675 702000 2                  TSX2    BADSCHEMA

       95     9356    4                       CALL GETVAL ALTRET(TRAP_ELMNTSIZ);

   9356  2 000205   000714 701000 2                  TSX1    GETVAL
         2 000206   000710 702000 2                  TSX2    TRAP_ELMNTSIZ

       96     9357    4                       IF S_D.ONE_TO_TWO.EXEC_DOMAIN = %HOST

   9357  2 000207   000000 470400 xsym               LDP0    S_D$
         2 000210   006714 235100                    LDA     3532,,PR0
         2 000211   000001 115007                    CMPA    1,DL
         2 000212   000227 601000 2                  TNZ     s:9359

       97     9358    4                      THEN MULT( J ) -> MITEM.ELMNTSIZ = VALUE * TYPESIZE_MULT(B$VREBL
              9358                                .DATATYP);

   9358  2 000213   200004 471500                    LDP1    @MULT,,AUTO
         2 000214   200012 720100                    LXL0    J,,AUTO
         2 000215   100000 473510                    LDP3    0,X0,PR1
         2 000216   200014 474500                    LDP4    ENTRY$,,AUTO
         2 000217   400000 236100                    LDQ     0,,PR4
         2 000220   000002 772000                    QRL     2
         2 000221   000077 376007                    ANQ     63,DL
         2 000222   000000 621006                    EAX1    0,QL
         2 000223   200023 236100                    LDQ     VALUE,,AUTO
         2 000224   000000 402011 xsym               MPY     TYPESIZE_MULT,X1
         2 000225   300003 756100                    STQ     3,,PR3
         2 000226   000247 710000 2                  TRA     s:9362

       98     9359    4                       ELSE MULT( J ) -> MITEM.ELMNTSIZ = VALUE * TYPESIZE_MULT_FEP(
              9359                                B$VREBL.DATATYP);

PL6.E3A0      #001=DDD$MULT File=DDD$MULT.:E05TSI                                TUE 07/29/97 13:52 Page:21
   9359  2 000227   200004 471500                    LDP1    @MULT,,AUTO
         2 000230   200012 720100                    LXL0    J,,AUTO
         2 000231   100000 473510                    LDP3    0,X0,PR1
         2 000232   200014 474500                    LDP4    ENTRY$,,AUTO
         2 000233   400000 236100                    LDQ     0,,PR4
         2 000234   000002 772000                    QRL     2
         2 000235   000077 376007                    ANQ     63,DL
         2 000236   000000 621006                    EAX1    0,QL
         2 000237   200023 236100                    LDQ     VALUE,,AUTO
         2 000240   000000 402011 xsym               MPY     TYPESIZE_MULT_FEP,X1
         2 000241   300003 756100                    STQ     3,,PR3

       99     9360    4                     END;

   9360  2 000242   000247 710000 2                  TRA     s:9362

      100     9361    3                  ELSE MULT( J ) -> MITEM.ELMNTSIZ = B$VREBL.ELMNTSIZ;

   9361  2 000243   100000 473510                    LDP3    0,X0,PR1
         2 000244   000003 236100                    LDQ     3,,PR0
         2 000245   000014 772000                    QRL     12
         2 000246   300003 756100                    STQ     3,,PR3

      101     9362    3                  SAVE_ENTRY$ = ENTRY$;    /* save the original ptr. */

   9362  2 000247   200014 236100                    LDQ     ENTRY$,,AUTO
         2 000250   200015 756100                    STQ     SAVE_ENTRY$,,AUTO

      102     9363    4                  DO D = 0 TO DIMS;

   9363  2 000251   200010 450100                    STZ     D,,AUTO
         2 000252   000337 710000 2                  TRA     s:9380+1

      103     9364    4                       IF ARRAYTYP = %REAL_ARRAY

   9364  2 000253   200017 235100                    LDA     ARRAYTYP,,AUTO
         2 000254   000003 115007                    CMPA    3,DL
PL6.E3A0      #001=DDD$MULT File=DDD$MULT.:E05TSI                                TUE 07/29/97 13:52 Page:22
         2 000255   000262 601000 2                  TNZ     s:9366

      104     9365    4                       THEN IND = MOD(D, 6);

   9365  2 000256   200010 236100                    LDQ     D,,AUTO
         2 000257   000006 506007                    DIV     6,DL
         2 000260   200013 755100                    STA     IND,,AUTO
         2 000261   000265 710000 2                  TRA     s:9367

      105     9366    4                       ELSE IND = MOD(D, 3);

   9366  2 000262   200010 236100                    LDQ     D,,AUTO
         2 000263   000003 506007                    DIV     3,DL
         2 000264   200013 755100                    STA     IND,,AUTO

      106     9367    4                       IF IND = 0

   9367  2 000265   000000 115003                    CMPA    0,DU
         2 000266   000272 601000 2                  TNZ     s:9369

      107     9368    4                       THEN ENTRY$ = PINCRW(ENTRY$, SIZEW(B$VREBL));

   9368  2 000267   200014 236100                    LDQ     ENTRY$,,AUTO
         2 000270   000005 036003                    ADLQ    5,DU
         2 000271   200014 756100                    STQ     ENTRY$,,AUTO

      108     9369    4                       MULT( J ) -> MITEM.OFS = B$VREBLC.OFFSET;

   9369  2 000272   200004 470500                    LDP0    @MULT,,AUTO
         2 000273   200012 720100                    LXL0    J,,AUTO
         2 000274   000000 471510                    LDP1    0,X0,PR0
         2 000275   200014 473500                    LDP3    ENTRY$,,AUTO
         2 000276   300000 236100                    LDQ     0,,PR3
         2 000277   000010 732000                    QRS     8
         2 000300   100002 756100                    STQ     2,,PR1

      109     9370    4                       IF ARRAYTYP = %REAL_ARRAY
PL6.E3A0      #001=DDD$MULT File=DDD$MULT.:E05TSI                                TUE 07/29/97 13:52 Page:23

   9370  2 000301   200017 236100                    LDQ     ARRAYTYP,,AUTO
         2 000302   000003 116007                    CMPQ    3,DL
         2 000303   000313 601000 2                  TNZ     s:9372

      110     9371    4                       THEN MULT( J ) -> MITEM.MULT = B$VREBLC.MULT_62( IND );

   9371  2 000304   000000 471510                    LDP1    0,X0,PR0
         2 000305   000001 735000                    ALS     1
         2 000306   200014 473500                    LDP3    ENTRY$,,AUTO
         2 000307   000100 101505                    MRL     fill='000'O
         2 000310   300002 000002                    ADSC9   2,A,PR3                  cn=0,n=2
         2 000311   100001 000004                    ADSC9   1,,PR1                   cn=0,n=4
         2 000312   000317 710000 2                  TRA     s:9373

      111     9372    4                       ELSE MULT(J)->MITEM.MULT = B$VREBLC.MULT_61( IND );

   9372  2 000313   000000 471510                    LDP1    0,X0,PR0
         2 000314   200014 473500                    LDP3    ENTRY$,,AUTO
         2 000315   300002 235105                    LDA     2,AL,PR3
         2 000316   100001 755100                    STA     1,,PR1

      112     9373    4                       J = J + 1;

   9373  2 000317   200012 235100                    LDA     J,,AUTO
         2 000320   000001 035007                    ADLA    1,DL
         2 000321   200012 755100                    STA     J,,AUTO

      113     9374    4                       IF DIM_CNT = 1 AND DIMS > 0

   9374  2 000322   200003 471500                    LDP1    @DIM_CNT,,AUTO
         2 000323   100000 235100                    LDA     0,,PR1
         2 000324   000001 115007                    CMPA    1,DL
         2 000325   000336 601000 2                  TNZ     s:9380
         2 000326   200011 235100                    LDA     DIMS,,AUTO
         2 000327   000336 600000 2                  TZE     s:9380

PL6.E3A0      #001=DDD$MULT File=DDD$MULT.:E05TSI                                TUE 07/29/97 13:52 Page:24
      114     9375    5                       THEN DO;

      115     9376    5                            MULT(J - 1) -> MITEM.OFS = 0;

   9376  2 000330   200012 720100                    LXL0    J,,AUTO
         2 000331   077777 473510                    LDP3    -1,X0,PR0
         2 000332   300002 450100                    STZ     2,,PR3

      116     9377    5                            ENTRY$ = SAVE_ENTRY$ ; /* reset to array info. ptr. */

   9377  2 000333   200015 236100                    LDQ     SAVE_ENTRY$,,AUTO
         2 000334   200014 756100                    STQ     ENTRY$,,AUTO

      117     9378    5                            GOTO DONE;     /* Special case for implicit u/l */

   9378  2 000335   000663 710000 2                  TRA     DONE

      118     9379    5                          END;
      119     9380    4                     END;                  /* DO D = 0 TO DIMS */

   9380  2 000336   200010 054100                    AOS     D,,AUTO
         2 000337   200011 236100                    LDQ     DIMS,,AUTO
         2 000340   000253 604000 2                  TMI     s:9364
         2 000341   200010 116100                    CMPQ    D,,AUTO
         2 000342   000253 605000 2                  TPL     s:9364

      120     9381    3                  ENTRY$ = SAVE_ENTRY$;    /* restore to original. */

   9381  2 000343   200015 236100                    LDQ     SAVE_ENTRY$,,AUTO
         2 000344   200014 756100                    STQ     ENTRY$,,AUTO
         2 000345   000620 710000 2                  TRA     s:9431

      121     9382    3               CASE( %ADJUSTABLE_ARRAY );

      122     9383    3                  DIMS = B$VREBL.DIMS - 1;

   9383  2 000346   000004 236100                    LDQ     4,,PR0
PL6.E3A0      #001=DDD$MULT File=DDD$MULT.:E05TSI                                TUE 07/29/97 13:52 Page:25
         2 000347   000022 772000                    QRL     18
         2 000350   000001 136007                    SBLQ    1,DL
         2 000351   200011 756100                    STQ     DIMS,,AUTO

      123     9384    3                  MULT(J) -> MITEM.NEWOFF = '1'B;

   9384  2 000352   200004 471500                    LDP1    @MULT,,AUTO
         2 000353   200012 720100                    LXL0    J,,AUTO
         2 000354   100000 473510                    LDP3    0,X0,PR1
         2 000355   100000 236003                    LDQ     32768,DU
         2 000356   300000 256100                    ORSQ    0,,PR3

      124     9385    3                  IF B$VREBL.SZTYP

   9385  2 000357   200014 470500                    LDP0    ENTRY$,,AUTO
         2 000360   000001 236100                    LDQ     1,,PR0
         2 000361   000400 316007                    CANQ    256,DL
         2 000362   000434 600000 2                  TZE     s:9394

      125     9386    4                  THEN DO;

      126     9387    4                       IENTRY# = B$VREBL.LOGSIZ;

   9387  2 000363   000001 236100                    LDQ     1,,PR0
         2 000364   000022 772000                    QRL     18
         2 000365   200030 756100                    STQ     IENTRY#,,AUTO

      127     9388    4                       CALL DDF$VREBL_#(IENTRY#, IENTRY$) ALTRET(BADSCHEMA);

   9388  2 000366   200020 633500                    EPPR3   IENTRY$,,AUTO
         2 000367   200041 453500                    STP3    SDD$+8,,AUTO
         2 000370   200030 634500                    EPPR4   IENTRY#,,AUTO
         2 000371   200040 454500                    STP4    SDD$+7,,AUTO
         2 000372   200040 630500                    EPPR0   SDD$+7,,AUTO
         2 000373   000020 631400 xsym               EPPR1   B_VECTNIL+16
         2 000374   000000 701000 xent               TSX1    DDF$VREBL_#
         2 000375   000675 702000 2                  TSX2    BADSCHEMA
PL6.E3A0      #001=DDD$MULT File=DDD$MULT.:E05TSI                                TUE 07/29/97 13:52 Page:26

      128     9389    4                       CALL GETVAL ALTRET(TRAP_ELMNTSIZ);

   9389  2 000376   000714 701000 2                  TSX1    GETVAL
         2 000377   000710 702000 2                  TSX2    TRAP_ELMNTSIZ

      129     9390    4                       IF S_D.ONE_TO_TWO.EXEC_DOMAIN = %HOST

   9390  2 000400   000000 470400 xsym               LDP0    S_D$
         2 000401   006714 235100                    LDA     3532,,PR0
         2 000402   000001 115007                    CMPA    1,DL
         2 000403   000420 601000 2                  TNZ     s:9392

      130     9391    4                      THEN MULT( J ) -> MITEM.ELMNTSIZ = VALUE * TYPESIZE_MULT(B$VREBL
              9391                                .DATATYP);

   9391  2 000404   200004 471500                    LDP1    @MULT,,AUTO
         2 000405   200012 720100                    LXL0    J,,AUTO
         2 000406   100000 473510                    LDP3    0,X0,PR1
         2 000407   200014 474500                    LDP4    ENTRY$,,AUTO
         2 000410   400000 236100                    LDQ     0,,PR4
         2 000411   000002 772000                    QRL     2
         2 000412   000077 376007                    ANQ     63,DL
         2 000413   000000 621006                    EAX1    0,QL
         2 000414   200023 236100                    LDQ     VALUE,,AUTO
         2 000415   000000 402011 xsym               MPY     TYPESIZE_MULT,X1
         2 000416   300003 756100                    STQ     3,,PR3
         2 000417   000440 710000 2                  TRA     s:9395

      131     9392    4                       ELSE MULT( J ) -> MITEM.ELMNTSIZ = VALUE * TYPESIZE_MULT_FEP(
              9392                                B$VREBL.DATATYP);

   9392  2 000420   200004 471500                    LDP1    @MULT,,AUTO
         2 000421   200012 720100                    LXL0    J,,AUTO
         2 000422   100000 473510                    LDP3    0,X0,PR1
         2 000423   200014 474500                    LDP4    ENTRY$,,AUTO
         2 000424   400000 236100                    LDQ     0,,PR4
PL6.E3A0      #001=DDD$MULT File=DDD$MULT.:E05TSI                                TUE 07/29/97 13:52 Page:27
         2 000425   000002 772000                    QRL     2
         2 000426   000077 376007                    ANQ     63,DL
         2 000427   000000 621006                    EAX1    0,QL
         2 000430   200023 236100                    LDQ     VALUE,,AUTO
         2 000431   000000 402011 xsym               MPY     TYPESIZE_MULT_FEP,X1
         2 000432   300003 756100                    STQ     3,,PR3

      132     9393    4                     END;

   9393  2 000433   000440 710000 2                  TRA     s:9395

      133     9394    3                  ELSE MULT(J) -> MITEM.ELMNTSIZ = B$VREBL.ELMNTSIZ;

   9394  2 000434   100000 473510                    LDP3    0,X0,PR1
         2 000435   000003 236100                    LDQ     3,,PR0
         2 000436   000014 772000                    QRL     12
         2 000437   300003 756100                    STQ     3,,PR3

      134     9395    4                  DO D = 0 TO DIMS;

   9395  2 000440   200010 450100                    STZ     D,,AUTO
         2 000441   000604 710000 2                  TRA     s:9425+1

      135     9396    4                       IND = MOD(D, 3);

   9396  2 000442   200010 236100                    LDQ     D,,AUTO
         2 000443   000003 506007                    DIV     3,DL
         2 000444   200013 755100                    STA     IND,,AUTO

      136     9397    4                       IF IND = 0

   9397  2 000445   000000 115003                    CMPA    0,DU
         2 000446   000452 601000 2                  TNZ     s:9399

      137     9398    4                       THEN ENTRY$ = PINCRW(ENTRY$, SIZEW(B$VREBL));

   9398  2 000447   200014 236100                    LDQ     ENTRY$,,AUTO
PL6.E3A0      #001=DDD$MULT File=DDD$MULT.:E05TSI                                TUE 07/29/97 13:52 Page:28
         2 000450   000005 036003                    ADLQ    5,DU
         2 000451   200014 756100                    STQ     ENTRY$,,AUTO

      138     9399    4                       IF B$VREBLCA.IOFFSET

   9399  2 000452   200014 470500                    LDP0    ENTRY$,,AUTO
         2 000453   000000 234100                    SZN     0,,PR0
         2 000454   000520 605000 2                  TPL     s:9409

      139     9400    5                       THEN DO;

      140     9401    5                            IENTRY# = B$VREBLCA.OFF_V#;

   9401  2 000455   000000 236100                    LDQ     0,,PR0
         2 000456   000010 772000                    QRL     8
         2 000457   000032 376000 xsym               ANQ     B_VECTNIL+26
         2 000460   200030 756100                    STQ     IENTRY#,,AUTO

      141     9402    5                            CALL DDF$VREBL_# (IENTRY#, IENTRY$) ALTRET(BADSCHEMA);

   9402  2 000461   200020 631500                    EPPR1   IENTRY$,,AUTO
         2 000462   200041 451500                    STP1    SDD$+8,,AUTO
         2 000463   200030 633500                    EPPR3   IENTRY#,,AUTO
         2 000464   200040 453500                    STP3    SDD$+7,,AUTO
         2 000465   200040 630500                    EPPR0   SDD$+7,,AUTO
         2 000466   000020 631400 xsym               EPPR1   B_VECTNIL+16
         2 000467   000000 701000 xent               TSX1    DDF$VREBL_#
         2 000470   000675 702000 2                  TSX2    BADSCHEMA

      142     9403    5                            CALL GETVAL ALTRET(TRAP_ADJ_DIM);

   9403  2 000471   000714 701000 2                  TSX1    GETVAL
         2 000472   000704 702000 2                  TSX2    TRAP_ADJ_DIM

      143     9404    5                            MULT(J) -> MITEM.OFS = VALUE;

   9404  2 000473   200004 470500                    LDP0    @MULT,,AUTO
PL6.E3A0      #001=DDD$MULT File=DDD$MULT.:E05TSI                                TUE 07/29/97 13:52 Page:29
         2 000474   200012 720100                    LXL0    J,,AUTO
         2 000475   000000 471510                    LDP1    0,X0,PR0
         2 000476   200023 235100                    LDA     VALUE,,AUTO
         2 000477   100002 755100                    STA     2,,PR1

      144     9405    5                            SAVE_ENTRY$ = ENTRY$; /* save orig. ptr. */

   9405  2 000500   200014 236100                    LDQ     ENTRY$,,AUTO
         2 000501   200015 756100                    STQ     SAVE_ENTRY$,,AUTO

      145     9406    5                            CALL DDF$VREBL_# (ENTRY#.E(I),ENTRY$) ALTRET (BADSCHEMA);

   9406  2 000502   200014 631500                    EPPR1   ENTRY$,,AUTO
         2 000503   200041 451500                    STP1    SDD$+8,,AUTO
         2 000504   200007 236100                    LDQ     I,,AUTO
         2 000505   000022 736000                    QLS     18
         2 000506   000001 036003                    ADLQ    1,DU
         2 000507   200006 036100                    ADLQ    @ENTRY#,,AUTO
         2 000510   200040 756100                    STQ     SDD$+7,,AUTO
         2 000511   200040 630500                    EPPR0   SDD$+7,,AUTO
         2 000512   000020 631400 xsym               EPPR1   B_VECTNIL+16
         2 000513   000000 701000 xent               TSX1    DDF$VREBL_#
         2 000514   000675 702000 2                  TSX2    BADSCHEMA

      146     9407    5                            ENTRY$ = SAVE_ENTRY$; /* Restore orig. ptr.*/

   9407  2 000515   200015 236100                    LDQ     SAVE_ENTRY$,,AUTO
         2 000516   200014 756100                    STQ     ENTRY$,,AUTO

      147     9408    5                          END;

   9408  2 000517   000527 710000 2                  TRA     s:9410

      148     9409    4                       ELSE MULT(J) -> MITEM.OFS = B$VREBLCA.OFFSET;

   9409  2 000520   200004 471500                    LDP1    @MULT,,AUTO
         2 000521   200012 720100                    LXL0    J,,AUTO
PL6.E3A0      #001=DDD$MULT File=DDD$MULT.:E05TSI                                TUE 07/29/97 13:52 Page:30
         2 000522   100000 473510                    LDP3    0,X0,PR1
         2 000523   000000 236100                    LDQ     0,,PR0
         2 000524   000001 736000                    QLS     1
         2 000525   000011 732000                    QRS     9
         2 000526   300002 756100                    STQ     2,,PR3

      149     9410    4                       IENTRY# = B$VREBLCA.MULT_A.N(IND);

   9410  2 000527   200014 470500                    LDP0    ENTRY$,,AUTO
         2 000530   200013 720100                    LXL0    IND,,AUTO
         2 000531   000002 236110                    LDQ     2,X0,PR0
         2 000532   000031 376000 xsym               ANQ     B_VECTNIL+25
         2 000533   200030 756100                    STQ     IENTRY#,,AUTO

      150     9411    4                       IF B$VREBLCA.MULT_A.I(IND)

   9411  2 000534   000002 234110                    SZN     2,X0,PR0
         2 000535   000556 605000 2                  TPL     s:9417

      151     9412    5                       THEN DO;

      152     9413    5                            CALL DDF$VREBL_# (IENTRY#, IENTRY$) ALTRET(BADSCHEMA);

   9413  2 000536   200020 631500                    EPPR1   IENTRY$,,AUTO
         2 000537   200041 451500                    STP1    SDD$+8,,AUTO
         2 000540   200030 633500                    EPPR3   IENTRY#,,AUTO
         2 000541   200040 453500                    STP3    SDD$+7,,AUTO
         2 000542   200040 630500                    EPPR0   SDD$+7,,AUTO
         2 000543   000020 631400 xsym               EPPR1   B_VECTNIL+16
         2 000544   000000 701000 xent               TSX1    DDF$VREBL_#
         2 000545   000675 702000 2                  TSX2    BADSCHEMA

      153     9414    5                            CALL GETVAL ALTRET(TRAP_ADJ_DIM);

   9414  2 000546   000714 701000 2                  TSX1    GETVAL
         2 000547   000704 702000 2                  TSX2    TRAP_ADJ_DIM

PL6.E3A0      #001=DDD$MULT File=DDD$MULT.:E05TSI                                TUE 07/29/97 13:52 Page:31
      154     9415    5                            MULT(J) -> MITEM.MULT = VALUE;

   9415  2 000550   200004 470500                    LDP0    @MULT,,AUTO
         2 000551   200012 720100                    LXL0    J,,AUTO
         2 000552   000000 471510                    LDP1    0,X0,PR0
         2 000553   200023 235100                    LDA     VALUE,,AUTO
         2 000554   100001 755100                    STA     1,,PR1

      155     9416    5                          END;

   9416  2 000555   000562 710000 2                  TRA     s:9418

      156     9417    4                       ELSE MULT(J) -> MITEM.MULT = IENTRY#;

   9417  2 000556   200004 471500                    LDP1    @MULT,,AUTO
         2 000557   200012 721100                    LXL1    J,,AUTO
         2 000560   100000 473511                    LDP3    0,X1,PR1
         2 000561   300001 756100                    STQ     1,,PR3

      157     9418    4                       J = J + 1;

   9418  2 000562   200012 235100                    LDA     J,,AUTO
         2 000563   000001 035007                    ADLA    1,DL
         2 000564   200012 755100                    STA     J,,AUTO

      158     9419    4                       IF DIM_CNT = 1 AND DIMS > 0

   9419  2 000565   200003 470500                    LDP0    @DIM_CNT,,AUTO
         2 000566   000000 235100                    LDA     0,,PR0
         2 000567   000001 115007                    CMPA    1,DL
         2 000570   000603 601000 2                  TNZ     s:9425
         2 000571   200011 236100                    LDQ     DIMS,,AUTO
         2 000572   000603 600000 2                  TZE     s:9425

      159     9420    5                       THEN DO;

      160     9421    5                            MULT(J - 1) -> MITEM.OFS = 0;
PL6.E3A0      #001=DDD$MULT File=DDD$MULT.:E05TSI                                TUE 07/29/97 13:52 Page:32

   9421  2 000573   200004 471500                    LDP1    @MULT,,AUTO
         2 000574   200012 720100                    LXL0    J,,AUTO
         2 000575   177777 473510                    LDP3    -1,X0,PR1
         2 000576   300002 450100                    STZ     2,,PR3

      161     9422    5                            MULT(J - 1) -> MITEM.MULT = 1;

   9422  2 000577   177777 473510                    LDP3    -1,X0,PR1
         2 000600   000001 235007                    LDA     1,DL
         2 000601   300001 755100                    STA     1,,PR3

      162     9423    5                            GOTO DONE;

   9423  2 000602   000663 710000 2                  TRA     DONE

      163     9424    5                          END;
      164     9425    4                     END;

   9425  2 000603   200010 054100                    AOS     D,,AUTO
         2 000604   200011 236100                    LDQ     DIMS,,AUTO
         2 000605   000442 604000 2                  TMI     s:9396
         2 000606   200010 116100                    CMPQ    D,,AUTO
         2 000607   000442 605000 2                  TPL     s:9396
         2 000610   000620 710000 2                  TRA     s:9431

      165     9426    3               CASE( ELSE );

      166     9427    3                  S_D.ERROR = 187; /* E@NOTIMPLARRAY */

   9427  2 000611   000273 235007                    LDA     187,DL
         2 000612   000000 471400 xsym               LDP1    S_D$
         2 000613   100013 755100                    STA     11,,PR1

      167     9428    3                  CALL DDE$ERROR;

   9428  2 000614   000002 631400 xsym               EPPR1   B_VECTNIL+2
PL6.E3A0      #001=DDD$MULT File=DDD$MULT.:E05TSI                                TUE 07/29/97 13:52 Page:33
         2 000615   000000 701000 xent               TSX1    DDE$ERROR
         2 000616   000000 011000                    NOP     0

      168     9429    3                  RETURN;

   9429  2 000617   000000 702200 xent               TSX2  ! X66_ARET

      169     9430    3               END;                        /* DO CASE( ARRAYTYP ) */

      170     9431    2           END;                            /* DO I = O TO ENTRY#.C */

   9431  2 000620   200007 235100                    LDA     I,,AUTO
         2 000621   000001 035007                    ADLA    1,DL
         2 000622   200007 755100                    STA     I,,AUTO
         2 000623   200006 470500                    LDP0    @ENTRY#,,AUTO
         2 000624   000000 236100                    LDQ     0,,PR0
         2 000625   200007 116100                    CMPQ    I,,AUTO
         2 000626   000012 603000 2                  TRC     s:9323

      171     9432    1        IF ARRAYTYP = %ADJUSTABLE_ARRAY

   9432  2 000627   200017 235100                    LDA     ARRAYTYP,,AUTO
         2 000630   000005 115007                    CMPA    5,DL
         2 000631   000663 601000 2                  TNZ     DONE

      172     9433    2        THEN DO;                           /* Adjust multipliers */

      173     9434    2             TEMP = MULT(0) -> MITEM.MULT;

   9434  2 000632   200004 471500                    LDP1    @MULT,,AUTO
         2 000633   100000 473500                    LDP3    0,,PR1
         2 000634   300001 235100                    LDA     1,,PR3
         2 000635   200021 755100                    STA     TEMP,,AUTO

      174     9435    2             MULT(0) -> MITEM.MULT = 1;

   9435  2 000636   000001 235007                    LDA     1,DL
PL6.E3A0      #001=DDD$MULT File=DDD$MULT.:E05TSI                                TUE 07/29/97 13:52 Page:34
         2 000637   300001 755100                    STA     1,,PR3

      175     9436    3             DO I = 1 TO J - 1;

   9436  2 000640   200007 755100                    STA     I,,AUTO
         2 000641   000660 710000 2                  TRA     s:9440+3

      176     9437    3                  TEMP1 = MULT(I) -> MITEM.MULT;

   9437  2 000642   200004 470500                    LDP0    @MULT,,AUTO
         2 000643   200007 720100                    LXL0    I,,AUTO
         2 000644   000000 471510                    LDP1    0,X0,PR0
         2 000645   100001 235100                    LDA     1,,PR1
         2 000646   200022 755100                    STA     TEMP1,,AUTO

      177     9438    3                  MULT(I) -> MITEM.MULT = TEMP1 * MULT(I - 1) -> MITEM.MULT;

   9438  2 000647   077777 473510                    LDP3    -1,X0,PR0
         2 000650   200022 236100                    LDQ     TEMP1,,AUTO
         2 000651   300001 402100                    MPY     1,,PR3
         2 000652   100001 756100                    STQ     1,,PR1

      178     9439    3                  TEMP = TEMP1;

   9439  2 000653   200022 235100                    LDA     TEMP1,,AUTO
         2 000654   200021 755100                    STA     TEMP,,AUTO

      179     9440    3                END;

   9440  2 000655   200007 236100                    LDQ     I,,AUTO
         2 000656   000001 036007                    ADLQ    1,DL
         2 000657   200007 756100                    STQ     I,,AUTO
         2 000660   200007 236100                    LDQ     I,,AUTO
         2 000661   200012 116100                    CMPQ    J,,AUTO
         2 000662   000642 602000 2                  TNC     s:9437

      180     9441    2           END;
PL6.E3A0      #001=DDD$MULT File=DDD$MULT.:E05TSI                                TUE 07/29/97 13:52 Page:35

   9438  2 000663                       DONE         null
      181     9442    1   DONE:;
      182     9443    1        IF ERESET

   9443  2 000663   200016 234100                    SZN     ERESET,,AUTO
         2 000664   000670 605000 2                  TPL     s:9446

      183     9444    1        THEN PENTRY$ = ENTRY$;

   9444  2 000665   200014 236100                    LDQ     ENTRY$,,AUTO
         2 000666   200005 470500                    LDP0    @PENTRY$,,AUTO
         2 000667   000000 756100                    STQ     0,,PR0

      184     9445                                                /**/
      185     9446    1        S_D.D$ -> DITEM.FLAGS.AFLAG = '1'B;

   9446  2 000670   000000 470400 xsym               LDP0    S_D$
         2 000671   000044 471500                    LDP1    36,,PR0
         2 000672   000200 236003                    LDQ     128,DU
         2 000673   100000 256100                    ORSQ    0,,PR1

      186     9447    1        RETURN;

   9447  2 000674   000000 702200 xent               TSX2  ! X66_ARET

   9446  2 000675                       BADSCHEMA    null
      187     9448    1   BADSCHEMA:;
      188     9449    1        S_D.ERROR = 22;              /* E@UERR11 */

   9449  2 000675   000026 235007                    LDA     22,DL
         2 000676   000000 470400 xsym               LDP0    S_D$
         2 000677   000013 755100                    STA     11,,PR0

      189     9450    1        CALL DDE$ERROR;

   9450  2 000700   000002 631400 xsym               EPPR1   B_VECTNIL+2
PL6.E3A0      #001=DDD$MULT File=DDD$MULT.:E05TSI                                TUE 07/29/97 13:52 Page:36
         2 000701   000000 701000 xent               TSX1    DDE$ERROR
         2 000702   000000 011000                    NOP     0

      190     9451    1        RETURN;

   9451  2 000703   000000 702200 xent               TSX2  ! X66_ARET

   9449  2 000704                       TRAP_ADJ_DIM null
      191     9452    1   TRAP_ADJ_DIM: ;
      192     9453    1        S_D.ERROR = 263;        /* E@TRAP_ADJ_DIM */

   9453  2 000704   000407 235007                    LDA     263,DL
         2 000705   000000 470400 xsym               LDP0    S_D$
         2 000706   000013 755100                    STA     11,,PR0

      193     9454    1        ALTRETURN;

   9454  2 000707   000000 702200 xent               TSX2  ! X66_AALT

   9453  2 000710                       TRAP_ELMNTS* null
      194     9455    1   TRAP_ELMNTSIZ: ;
      195     9456    1        S_D.ERROR = 338;       /* E@TRAP_ELMNTSIZ */

   9456  2 000710   000522 235007                    LDA     338,DL
         2 000711   000000 470400 xsym               LDP0    S_D$
         2 000712   000013 755100                    STA     11,,PR0

      196     9457    1        ALTRETURN;

   9457  2 000713   000000 702200 xent               TSX2  ! X66_AALT

      197     9458        %EJECT;
PL6.E3A0      #001=DDD$MULT File=DDD$MULT.:E05TSI                                TUE 07/29/97 13:52 Page:37
      198     9459    1   GETVAL: PROC ALTRET;

   9459  2 000714   200036 741300       GETVAL       STX1  ! SDD$+5,,AUTO

      199     9460    2   DCL L6_AUTO UBIN CONSTANT INIT(10485760); /* 'A00000'X = AUTO base for LCP6 user */
      200     9461    3        DO CASE (S_D.ONE_TO_TWO.EXEC_DOMAIN);

   9461  2 000715   000000 470400 xsym               LDP0    S_D$
         2 000716   006714 235100                    LDA     3532,,PR0
         2 000717   000003 115007                    CMPA    3,DL
         2 000720   000722 602005 2                  TNC     s:9461+5,AL
         2 000721   000737 710000 2                  TRA     s:9467
         2 000722   000737 710000 2                  TRA     s:9467
         2 000723   000725 710000 2                  TRA     s:9463
         2 000724   000732 710000 2                  TRA     s:9465

      201     9462    3          CASE (%HOST);

      202     9463    3             ADDRESS = IENTRY$ -> B$VREBL.ADR.W;

   9463  2 000725   200020 471500                    LDP1    IENTRY$,,AUTO
         2 000726   100000 236100                    LDQ     0,,PR1
         2 000727   000022 772000                    QRL     18
         2 000730   200024 756100                    STQ     ADDRESS,,AUTO
         2 000731   000743 710000 2                  TRA     s:9470

      203     9464    3          CASE (%L6);

      204     9465    3             ADDRESS = IENTRY$ -> B$VREBL.ADR6.W;

   9465  2 000732   200020 471500                    LDP1    IENTRY$,,AUTO
         2 000733   100000 236100                    LDQ     0,,PR1
         2 000734   000020 772000                    QRL     16
         2 000735   200024 756100                    STQ     ADDRESS,,AUTO
         2 000736   000743 710000 2                  TRA     s:9470

      205     9466    3          CASE (ELSE);
PL6.E3A0      #001=DDD$MULT File=DDD$MULT.:E05TSI                                TUE 07/29/97 13:52 Page:38

      206     9467    3             S_D.ERROR = 502;         /* E@DELBUG */

   9467  2 000737   000766 236007                    LDQ     502,DL
         2 000740   000013 756100                    STQ     11,,PR0

      207     9468    3             ALTRETURN;

   9468  2 000741   200036 221300                    LDX1  ! SDD$+5,,AUTO
         2 000742   000000 702211                    TSX2  ! 0,X1

      208     9469    3          END;

      209     9470    2        SEG = 3;

   9470  2 000743   000003 235007                    LDA     3,DL
         2 000744   200025 755100                    STA     SEG,,AUTO

      210     9471    2        DESC# = 0;

   9471  2 000745   200026 450100                    STZ     DESC#,,AUTO

      211     9472    2        NOT_IS = '0'B;

   9472  2 000746   200027 450100                    STZ     NOT_IS,,AUTO

      212     9473    2        IF IENTRY$ -> B$VREBL.ADDRTYP = %AUTO_ACODE + 1

   9473  2 000747   100000 236100                    LDQ     0,,PR1
         2 000750   007400 376007                    ANQ     3840,DL
         2 000751   001000 116007                    CMPQ    512,DL
         2 000752   001044 601000 2                  TNZ     s:9494

      213     9474    3        THEN DO;

      214     9475    3             IF S_D.ONE_TO_TWO.EXEC_DOMAIN = %HOST

PL6.E3A0      #001=DDD$MULT File=DDD$MULT.:E05TSI                                TUE 07/29/97 13:52 Page:39
   9475  2 000753   006714 235100                    LDA     3532,,PR0
         2 000754   000001 115007                    CMPA    1,DL
         2 000755   001010 601000 2                  TNZ     s:9482

      215     9476    4             THEN DO;

      216     9477    4                  DESC# = 4;

   9477  2 000756   000004 235007                    LDA     4,DL
         2 000757   200026 755100                    STA     DESC#,,AUTO

      217     9478    4                  NOT_IS = '1'B;

   9478  2 000760   400000 236003                    LDQ     -131072,DU
         2 000761   200027 756100                    STQ     NOT_IS,,AUTO

      218     9479    4                  ADDRESS = ADDRESS + (B$TCB$ -> B$TCB.STK$ -> B$SS.PR2.AR2 / 64);

   9479  2 000762   000000 473400 xsym               LDP3    B$TCB$
         2 000763   300001 474500                    LDP4    1,,PR3
         2 000764   400022 236100                    LDQ     18,,PR4
         2 000765   000014 772000                    QRL     12
         2 000766   000006 772000                    QRL     6
         2 000767   200024 036100                    ADLQ    ADDRESS,,AUTO
         2 000770   200024 756100                    STQ     ADDRESS,,AUTO

      219     9480    4   G:             CALL DDK$GETMVAL (VALUE, ADDRESS, SEG, DESC#, NOT_IS) ALTRET(ALT);

   9480  2 000771   200027 630500       G            EPPR0   NOT_IS,,AUTO
         2 000772   200044 450500                    STP0    SDD$+11,,AUTO
         2 000773   200026 631500                    EPPR1   DESC#,,AUTO
         2 000774   200043 451500                    STP1    SDD$+10,,AUTO
         2 000775   200025 633500                    EPPR3   SEG,,AUTO
         2 000776   200042 453500                    STP3    SDD$+9,,AUTO
         2 000777   200024 634500                    EPPR4   ADDRESS,,AUTO
         2 001000   200041 454500                    STP4    SDD$+8,,AUTO
         2 001001   200023 635500                    EPPR5   VALUE,,AUTO
PL6.E3A0      #001=DDD$MULT File=DDD$MULT.:E05TSI                                TUE 07/29/97 13:52 Page:40
         2 001002   200040 455500                    STP5    SDD$+7,,AUTO
         2 001003   200040 630500                    EPPR0   SDD$+7,,AUTO
         2 001004   000023 631400 xsym               EPPR1   B_VECTNIL+19
         2 001005   000000 701000 xent               TSX1    DDK$GETMVAL
         2 001006   001052 702000 2                  TSX2    ALT

      220     9481    4                END;

   9481  2 001007   001050 710000 2                  TRA     s:9499

      221     9482    3             ELSE IF S_D.ONE_TO_TWO.EXEC_DOMAIN = %L6

   9482  2 001010   000002 115007                    CMPA    2,DL
         2 001011   001036 601000 2                  TNZ     s:9488

      222     9483    4                  THEN DO;

      223     9484    4                       ADDRESS = ADDRESS + L6_AUTO;

   9484  2 001012   200024 236100                    LDQ     ADDRESS,,AUTO
         2 001013   000000 036000 1                  ADLQ    L6_AUTO
         2 001014   200024 756100                    STQ     ADDRESS,,AUTO

      224     9485    4   G6:                 CALL DFK$GETMVAL (VALUE, ADDRESS, SEG, DESC#, NOT_IS, '0'B)
              9485            ALTRET(ALT);

   9485  2 001015   000000 236000 3     G6           LDQ     0
         2 001016   200045 756100                    STQ     SDD$+12,,AUTO
         2 001017   200027 630500                    EPPR0   NOT_IS,,AUTO
         2 001020   200044 450500                    STP0    SDD$+11,,AUTO
         2 001021   200026 631500                    EPPR1   DESC#,,AUTO
         2 001022   200043 451500                    STP1    SDD$+10,,AUTO
         2 001023   200025 633500                    EPPR3   SEG,,AUTO
         2 001024   200042 453500                    STP3    SDD$+9,,AUTO
         2 001025   200024 634500                    EPPR4   ADDRESS,,AUTO
         2 001026   200041 454500                    STP4    SDD$+8,,AUTO
         2 001027   200023 635500                    EPPR5   VALUE,,AUTO
PL6.E3A0      #001=DDD$MULT File=DDD$MULT.:E05TSI                                TUE 07/29/97 13:52 Page:41
         2 001030   200040 455500                    STP5    SDD$+7,,AUTO
         2 001031   200040 630500                    EPPR0   SDD$+7,,AUTO
         2 001032   000024 631400 xsym               EPPR1   B_VECTNIL+20
         2 001033   000000 701000 xent               TSX1    DFK$GETMVAL
         2 001034   001052 702000 2                  TSX2    ALT

      225     9486    4                     END;

   9486  2 001035   001050 710000 2                  TRA     s:9499

      226     9487    4                  ELSE DO;

      227     9488    4                       S_D.ERROR = 502; /* E@DELBUG */

   9488  2 001036   000766 235007                    LDA     502,DL
         2 001037   000013 755100                    STA     11,,PR0

      228     9489    4                       CALL DDE$ERROR;

   9489  2 001040   000002 631400 xsym               EPPR1   B_VECTNIL+2
         2 001041   000000 701000 xent               TSX1    DDE$ERROR
         2 001042   000000 011000                    NOP     0

      229     9490    4                       GOTO ALT;

   9490  2 001043   001052 710000 2                  TRA     ALT

      230     9491    4                     END;
      231     9492    3           END;
      232     9493    3        ELSE DO;

      233     9494    3             IF S_D.ONE_TO_TWO.EXEC_DOMAIN=%HOST

   9494  2 001044   006714 235100                    LDA     3532,,PR0
         2 001045   000001 115007                    CMPA    1,DL
         2 001046   000771 600000 2                  TZE     G

PL6.E3A0      #001=DDD$MULT File=DDD$MULT.:E05TSI                                TUE 07/29/97 13:52 Page:42
      234     9495    3             THEN GOTO G;
      235     9496    3             ELSE
      236     9497    3                  GOTO G6;

   9497  2 001047   001015 710000 2                  TRA     G6

      237     9498    3           END;
      238     9499    2        RETURN;

   9499  2 001050   200036 221300                    LDX1  ! SDD$+5,,AUTO
         2 001051   000001 702211                    TSX2  ! 1,X1

   9498  2 001052                       ALT          null
      239     9500    2   ALT: ;
      240     9501    2        ALTRETURN;

   9501  2 001052   200036 221300                    LDX1  ! SDD$+5,,AUTO
         2 001053   000000 702211                    TSX2  ! 0,X1

L6_AUTO
 Sect OctLoc
   1     000   000050 000000                                                    .(..

(unnamed)
 Sect OctLoc
   3     000   000002 006000                                                    ....
      241     9502    2   END GETVAL;
      242     9503    1   END DDD$MULT;

PL6.E3A0      #001=DDD$MULT File=DDD$MULT.:E05TSI                                TUE 07/29/97 13:52 Page:43
--  Include file information  --

   DD_SRTN_C.:E05TOU  is referenced.
   DD_ACODE_C.:E05TOU  is referenced.
   DD_ICODE_C.:E05TOU  is referenced.
   DD$DITEM.:E05TOU  cannot be made into a system file and is referenced.
   DD_ERR_C.:E05TOU  is referenced.
   B$OBJECT_C.:E05TOU  is referenced.
   DD_SD_M.:E05TOU  is referenced.
   XUH_MACRO_C.:E05TOU  is referenced.
   B$SS.:E05TOU  cannot be made into a system file and is referenced.
   CP_6.:E05TOU  cannot be made into a system file and is referenced.
   DD$BASED.:E05TOU  is referenced.
   B$JIT_C.:E05TOU  was found in the system file and is never referenced.
   CP_6_C.:E05TOU  was found in the system file and is referenced.
      No diagnostics issued in procedure DDD$MULT.

   Procedure DDD$MULT requires 556 words for executable code.
   Procedure DDD$MULT requires 38 words of local(AUTO) storage.

    No errors detected in file DDD$MULT.:E05TSI    .
PL6.E3A0      #001=DDD$MULT File=DDD$MULT.:E05TSI                                TUE 07/29/97 13:52 Page:44
          *** CROSS REFERENCE LISTING ***
**     DENOTES     IDENTIFIER DEFINITION
<<                 IDENTIFIER'S VALUE SET
>>                 IDENTIFIER'S VALUE USED
<>                 IDENTIFIER SET AND/OR USED
--                 IDENTIFIER REFERENCED
PL6.E3A0      #001=DDD$MULT File=DDD$MULT.:E05TSI                                TUE 07/29/97 13:52 Page:45
          MINI XREF LISTING

ADDRESS
      1335**DCL      9463<<ASSIGN   9465<<ASSIGN   9479<<ASSIGN   9479>>ASSIGN   9480<>CALL     9484<<ASSIGN
      9484>>ASSIGN   9485<>CALL
ALT IN PROCEDURE GETVAL
      9498**LABEL    9480--CALLALT  9485--CALLALT  9490--GOTO
ARRAYTYP
      1330**DCL      9328<<ASSIGN   9329>>DOCASE   9334>>IF       9364>>IF       9370>>IF       9432>>IF
B$SS.PR2.AR2
      1517**DCL      9479>>ASSIGN
B$SS.RVA
      1484**DCL      1485--REDEF
B$TCB.STK$
      1430**DCL      9479>>ASSIGN
B$TCB$
      1339**DCL      9479>>ASSIGN
B$VREBL
      7780**DCL      9368--ASSIGN   9398--ASSIGN
B$VREBL.ADDRTYP
      7807**DCL      9473>>IF
B$VREBL.ADR
      7781**DCL      7793--REDEF
B$VREBL.ADR.W
      7787**DCL      9463>>ASSIGN
B$VREBL.ADR6.W
      7801**DCL      9465>>ASSIGN
B$VREBL.ARRAYTYP
      7868**DCL      9328>>ASSIGN
B$VREBL.DATATYP
      7831**DCL      9344>>ASSIGN   9345>>ASSIGN   9358>>ASSIGN   9359>>ASSIGN   9391>>ASSIGN   9392>>ASSIGN
B$VREBL.DIMS
      7934**DCL      9350>>ASSIGN   9383>>ASSIGN
B$VREBL.ELMNTSIZ
PL6.E3A0      #001=DDD$MULT File=DDD$MULT.:E05TSI                                TUE 07/29/97 13:52 Page:46
      7916**DCL      9347>>ASSIGN   9361>>ASSIGN   9394>>ASSIGN
B$VREBL.LOGSIZ
      7842**DCL      9340>>ASSIGN   9354>>ASSIGN   9387>>ASSIGN
B$VREBL.SZTYP
      7862**DCL      9338>>IF       9352>>IF       9385>>IF
B$VREBLC.MULT_61
      7967**DCL      7991--REDEF    9372>>ASSIGN
B$VREBLC.MULT_62
      7991**DCL      9371>>ASSIGN
B$VREBLC.OFFSET
      7945**DCL      9369>>ASSIGN
B$VREBLCA.ELEMENTS
      8054**DCL      8057--REDEF
B$VREBLCA.IOFFSET
      8018**DCL      9399>>IF
B$VREBLCA.MULT_A.I
      8093**DCL      9411>>IF
B$VREBLCA.MULT_A.N
      8098**DCL      9410>>ASSIGN
B$VREBLCA.OFFSET
      8030**DCL      8034--REDEF    9409>>ASSIGN
B$VREBLCA.OFF_V#
      8034**DCL      9401>>ASSIGN
BADSCHEMA
      9446**LABEL    9325--CALLALT  9341--CALLALT  9355--CALLALT  9388--CALLALT  9402--CALLALT  9406--CALLALT
      9413--CALLALT
D
      1323**DCL      9363<<DOINDEX  9365>>ASSIGN   9366>>ASSIGN   9395<<DOINDEX  9396>>ASSIGN
DDE$ERROR
      1344**DCL-ENT  9428--CALL     9450--CALL     9489--CALL
DDF$VREBL_#
      1345**DCL-ENT  9325--CALL     9341--CALL     9355--CALL     9388--CALL     9402--CALL     9406--CALL
      9413--CALL
DDK$GETMVAL
      1346**DCL-ENT  9480--CALL
DESC#
PL6.E3A0      #001=DDD$MULT File=DDD$MULT.:E05TSI                                TUE 07/29/97 13:52 Page:47
      1337**DCL      9471<<ASSIGN   9477<<ASSIGN   9480<>CALL     9485<>CALL
DFK$GETMVAL
      1347**DCL-ENT  9485--CALL
DIMS
      1324**DCL      9350<<ASSIGN   9363>>DOINDEX  9374>>IF       9383<<ASSIGN   9395>>DOINDEX  9419>>IF
DIM_CNT
        11**DCL         9--PROC     9374>>IF       9419>>IF
DITEM.ADDRESS
      9212**DCL      9217--REDEF    9218--REDEF    9219--REDEF
DITEM.FLAGS.AFLAG
      9197**DCL      9446<<ASSIGN
DITEM.SP.VD
      9220**DCL      9224--REDEF    9227--REDEF
DONE
      9438**LABEL    9378--GOTO     9423--GOTO
ENTRY#
      1318**DCL         9--PROC
ENTRY#.C
      1319**DCL      9322>>DOINDEX  9323>>IF
ENTRY#.E
      1320**DCL      9325<>CALL     9406<>CALL
ENTRY$
      1327**DCL      7780--IMP-PTR  7944--IMP-PTR  8017--IMP-PTR  9320<<ASSIGN   9325<>CALL     9328>>ASSIGN
      9338>>IF       9340>>ASSIGN   9344>>ASSIGN   9345>>ASSIGN   9347>>ASSIGN   9350>>ASSIGN   9352>>IF
      9354>>ASSIGN   9358>>ASSIGN   9359>>ASSIGN   9361>>ASSIGN   9362>>ASSIGN   9368<<ASSIGN   9368>>ASSIGN
      9369>>ASSIGN   9371>>ASSIGN   9372>>ASSIGN   9377<<ASSIGN   9381<<ASSIGN   9383>>ASSIGN   9385>>IF
      9387>>ASSIGN   9391>>ASSIGN   9392>>ASSIGN   9394>>ASSIGN   9398<<ASSIGN   9398>>ASSIGN   9399>>IF
      9401>>ASSIGN   9405>>ASSIGN   9406<>CALL     9407<<ASSIGN   9409>>ASSIGN   9410>>ASSIGN   9411>>IF
      9444>>ASSIGN
ERESET
      1329**DCL      9321<<ASSIGN   9326<<ASSIGN   9443>>IF
G IN PROCEDURE GETVAL
      9480**LABEL    9495--GOTO
G6 IN PROCEDURE GETVAL
      9485**LABEL    9497--GOTO
GETVAL
PL6.E3A0      #001=DDD$MULT File=DDD$MULT.:E05TSI                                TUE 07/29/97 13:52 Page:48
      9459**PROC     9342--CALL     9356--CALL     9389--CALL     9403--CALL     9414--CALL
I
      1322**DCL      9322<<DOINDEX  9325>>CALL     9406>>CALL     9436<<DOINDEX  9437>>ASSIGN   9438>>ASSIGN
      9438>>ASSIGN
IENTRY#
      1340**DCL      9340<<ASSIGN   9341<>CALL     9354<<ASSIGN   9355<>CALL     9387<<ASSIGN   9388<>CALL
      9401<<ASSIGN   9402<>CALL     9410<<ASSIGN   9413<>CALL     9417>>ASSIGN
IENTRY$
      1331**DCL      9341<>CALL     9355<>CALL     9388<>CALL     9402<>CALL     9413<>CALL     9463>>ASSIGN
      9465>>ASSIGN   9473>>IF
IND
      1326**DCL      9365<<ASSIGN   9366<<ASSIGN   9367>>IF       9371>>ASSIGN   9372>>ASSIGN   9396<<ASSIGN
      9397>>IF       9410>>ASSIGN   9411>>IF
J
      1325**DCL      9319<<ASSIGN   9333>>ASSIGN   9335>>ASSIGN   9336>>ASSIGN   9337>>ASSIGN   9344>>ASSIGN
      9345>>ASSIGN   9347>>ASSIGN   9348<<ASSIGN   9348>>ASSIGN   9351>>ASSIGN   9358>>ASSIGN   9359>>ASSIGN
      9361>>ASSIGN   9369>>ASSIGN   9371>>ASSIGN   9372>>ASSIGN   9373<<ASSIGN   9373>>ASSIGN   9376>>ASSIGN
      9384>>ASSIGN   9391>>ASSIGN   9392>>ASSIGN   9394>>ASSIGN   9404>>ASSIGN   9409>>ASSIGN   9415>>ASSIGN
      9417>>ASSIGN   9418<<ASSIGN   9418>>ASSIGN   9421>>ASSIGN   9422>>ASSIGN   9436>>DOINDEX
L6_AUTO IN PROCEDURE GETVAL
      9460**DCL      9484>>ASSIGN
MITEM.AMULT.ADR
      9289**DCL      9293--REDEF
MITEM.AOFS.ADR
      9304**DCL      9308--REDEF
MITEM.ELMNTSIZ
      9315**DCL      9344<<ASSIGN   9345<<ASSIGN   9347<<ASSIGN   9358<<ASSIGN   9359<<ASSIGN   9361<<ASSIGN
      9391<<ASSIGN   9392<<ASSIGN   9394<<ASSIGN
MITEM.MULT
      9285**DCL      9287--REDEF    9333<<ASSIGN   9371<<ASSIGN   9372<<ASSIGN   9415<<ASSIGN   9417<<ASSIGN
      9422<<ASSIGN   9434>>ASSIGN   9435<<ASSIGN   9437>>ASSIGN   9438<<ASSIGN   9438>>ASSIGN
MITEM.NEWOFF
      9278**DCL      9337<<ASSIGN   9351<<ASSIGN   9384<<ASSIGN
MITEM.OFS
      9300**DCL      9302--REDEF    9335<<ASSIGN   9336<<ASSIGN   9369<<ASSIGN   9376<<ASSIGN   9404<<ASSIGN
      9409<<ASSIGN   9421<<ASSIGN
PL6.E3A0      #001=DDD$MULT File=DDD$MULT.:E05TSI                                TUE 07/29/97 13:52 Page:49
MULT
        12**DCL         9--PROC     9333>>ASSIGN   9335>>ASSIGN   9336>>ASSIGN   9337>>ASSIGN   9344>>ASSIGN
      9345>>ASSIGN   9347>>ASSIGN   9351>>ASSIGN   9358>>ASSIGN   9359>>ASSIGN   9361>>ASSIGN   9369>>ASSIGN
      9371>>ASSIGN   9372>>ASSIGN   9376>>ASSIGN   9384>>ASSIGN   9391>>ASSIGN   9392>>ASSIGN   9394>>ASSIGN
      9404>>ASSIGN   9409>>ASSIGN   9415>>ASSIGN   9417>>ASSIGN   9421>>ASSIGN   9422>>ASSIGN   9434>>ASSIGN
      9435>>ASSIGN   9437>>ASSIGN   9438>>ASSIGN   9438>>ASSIGN
NOT_IS
      1338**DCL      9472<<ASSIGN   9478<<ASSIGN   9480<>CALL     9485<>CALL
PENTRY$
        13**DCL         9--PROC     9320>>ASSIGN   9444<<ASSIGN
SAVE_ENTRY$
      1328**DCL      9362<<ASSIGN   9377>>ASSIGN   9381>>ASSIGN   9405<<ASSIGN   9407>>ASSIGN
SDD$
      8613**DCL      9191--IMP-PTR
SEG
      1336**DCL      9470<<ASSIGN   9480<>CALL     9485<>CALL
S_D.CURRENT_CHANNEL
      3983**DCL      3985--REDEF
S_D.D$
      3121**DCL      9446>>ASSIGN
S_D.DEBUGA
      3135**DCL      3137--REDEF
S_D.EIS
      4093**DCL      4122--REDEF
S_D.ERROR
      3064**DCL      9427<<ASSIGN   9449<<ASSIGN   9453<<ASSIGN   9456<<ASSIGN   9467<<ASSIGN   9488<<ASSIGN
S_D.HOST_MESSAGE_BUF_REMOTE
      4026**DCL      4027--REDEF    4041--REDEF
S_D.JDE
      3640**DCL      3641--REDEF
S_D.L$.VALUE
      3193**DCL      3199--REDEF    3207--REDEF    3210--REDEF    3213--REDEF    3216--REDEF
S_D.L$.VALUE.L
      3194**DCL      3195--REDEF    3196--REDEF
S_D.L6_MESSAGE_BUF
      4047**DCL      4049--REDEF
PL6.E3A0      #001=DDD$MULT File=DDD$MULT.:E05TSI                                TUE 07/29/97 13:52 Page:50
S_D.ONE_TO_TWO.EXEC_DOMAIN
      4058**DCL      9343>>IF       9357>>IF       9390>>IF       9461>>DOCASE   9475>>IF       9482>>IF
      9494>>IF
S_D.OUTPUT
      4013**DCL      4015--REDEF
S_D.REMOTE_MSG.FNCC
      4032**DCL      4033--REDEF
S_D.REMOTE_MSG.STXC
      4028**DCL      4029--REDEF
S_D.REMOTE_MSG.SUBFNCC
      4036**DCL      4037--REDEF
S_D.SV
      3092**DCL      3113--REDEF
S_D$
      4344**DCL      3040--IMP-PTR  9343>>IF       9357>>IF       9390>>IF       9427>>ASSIGN   9446>>ASSIGN
      9449>>ASSIGN   9453>>ASSIGN   9456>>ASSIGN   9461>>DOCASE   9467>>ASSIGN   9475>>IF       9482>>IF
      9488>>ASSIGN   9494>>IF
TEMP
      1332**DCL      9434<<ASSIGN   9439<<ASSIGN
TEMP1
      1333**DCL      9437<<ASSIGN   9438>>ASSIGN   9439>>ASSIGN
TRAP_ADJ_DIM
      9449**LABEL    9403--CALLALT  9414--CALLALT
TRAP_ELMNTSIZ
      9453**LABEL    9342--CALLALT  9356--CALLALT  9389--CALLALT
TYPESIZE_MULT
      1341**DCL      9344>>ASSIGN   9358>>ASSIGN   9391>>ASSIGN
TYPESIZE_MULT_FEP
      1342**DCL      9345>>ASSIGN   9359>>ASSIGN   9392>>ASSIGN
VALUE
      1334**DCL      9344>>ASSIGN   9345>>ASSIGN   9358>>ASSIGN   9359>>ASSIGN   9391>>ASSIGN   9392>>ASSIGN
      9404>>ASSIGN   9415>>ASSIGN   9480<>CALL     9485<>CALL
PL6.E3A0      #001=DDD$MULT File=DDD$MULT.:E05TSI                                TUE 07/29/97 13:52 Page:51
              *** CROSS REFERENCE LISTING ***
    **     DENOTES     IDENTIFIER DEFINITION
    <<                 IDENTIFIER'S VALUE SET
    >>                 IDENTIFIER'S VALUE USED
    <>                 IDENTIFIER SET AND/OR USED
    --                 IDENTIFIER REFERENCED
PL6.E3A0      #001=DDD$MULT File=DDD$MULT.:E05TSI                                TUE 07/29/97 13:52 Page:52
              MINI UREF LISTING

DDD$MULT       9**PROC
M$ACCT    1374**DCL-ENT
M$ACTIVATE    1377**DCL-ENT
M$ALIB    1370**DCL-ENT
M$ASUSER    1372**DCL-ENT
M$ATTACH    1379**DCL-ENT
M$BADPP    1397**DCL-ENT
M$CGCTL    1378**DCL-ENT
M$CGINFO    1378**DCL-ENT
M$CHECK    1359**DCL-ENT
M$CHGUNIT    1417**DCL-ENT
M$CLOSE    1357**DCL-ENT
M$CLRSTK    1415**DCL-ENT
M$CMDVAR    1426**DCL-ENT
M$CONFIG    1387**DCL-ENT
M$CORRES    1362**DCL-ENT
M$CPEXIT    1371**DCL-ENT
M$CVM    1395**DCL-ENT
M$CVOL    1360**DCL-ENT
M$DCLFLD    1387**DCL-ENT
M$DEACTIVATE    1377**DCL-ENT
M$DELREC    1359**DCL-ENT
M$DEQ    1424**DCL-ENT
M$DETACH    1379**DCL-ENT
M$DEVICE    1361**DCL-ENT
M$DISPLAY    1424**DCL-ENT
M$DISPRES    1364**DCL-ENT
M$DLIB    1370**DCL-ENT
M$DRIBBLE    1387**DCL-ENT
M$DRTN    1415**DCL-ENT
M$DSUSER    1372**DCL-ENT
M$ENQ    1423**DCL-ENT
PL6.E3A0      #001=DDD$MULT File=DDD$MULT.:E05TSI                                TUE 07/29/97 13:52 Page:53
M$EOM    1382**DCL-ENT
M$ERASE    1388**DCL-ENT
M$ERR    1369**DCL-ENT
M$ERRMSG    1420**DCL-ENT
M$EVENT    1412**DCL-ENT
M$EXHUME    1421**DCL-ENT
M$EXIT    1369**DCL-ENT
M$EXTEND    1361**DCL-ENT
M$FDP    1393**DCL-ENT
M$FDS    1392**DCL-ENT
M$FEBOOT    1385**DCL-ENT
M$FECTL    1386**DCL-ENT
M$FEDUMP    1385**DCL-ENT
M$FID    1420**DCL-ENT
M$FINDPROC    1374**DCL-ENT
M$FSUSER    1372**DCL-ENT
M$FVP    1394**DCL-ENT
M$FWCG    1378**DCL-ENT
M$GBPL    1398**DCL-ENT
M$GDDL    1394**DCL-ENT
M$GDP    1393**DCL-ENT
M$GDS    1392**DCL-ENT
M$GETDCB    1363**DCL-ENT
M$GETMOUSE    1403**DCL-ENT
M$GETPM    1404**DCL-ENT
M$GJOB    1422**DCL-ENT
M$GLINEATTR    1382**DCL-ENT
M$GOODPP    1397**DCL-ENT
M$GPLATEN    1390**DCL-ENT
M$GPROMPT    1389**DCL-ENT
M$GTRMATTR    1383**DCL-ENT
M$GTRMCTL    1381**DCL-ENT
M$GTRMTAB    1384**DCL-ENT
M$GVP    1393**DCL-ENT
M$HELP    1420**DCL-ENT
M$INT    1412**DCL-ENT
PL6.E3A0      #001=DDD$MULT File=DDD$MULT.:E05TSI                                TUE 07/29/97 13:52 Page:54
M$INTRTN    1373**DCL-ENT
M$IOQ    1408**DCL-ENT
M$JOBSTATS    1422**DCL-ENT
M$KEYIN    1362**DCL-ENT
M$LDEV    1357**DCL-ENT
M$LDTRC    1370**DCL-ENT
M$LIMIT    1363**DCL-ENT
M$LINES    1362**DCL-ENT
M$LINK    1369**DCL-ENT
M$MADMUCK    1365**DCL-ENT
M$MAKUSER    1396**DCL-ENT
M$MBS    1364**DCL-ENT
M$MDFFLD    1388**DCL-ENT
M$MERC    1413**DCL-ENT
M$MERCS    1414**DCL-ENT
M$MIRROR    1408**DCL-ENT
M$MONINFO    1425**DCL-ENT
M$MPL    1398**DCL-ENT
M$NODEINFO    1389**DCL-ENT
M$NXTUSR    1423**DCL-ENT
M$OCMSG    1421**DCL-ENT
M$OLAY    1369**DCL-ENT
M$OPEN    1357**DCL-ENT
M$PAS    1398**DCL-ENT
M$PATHCON    1421**DCL-ENT
M$PDS    1392**DCL-ENT
M$PFIL    1359**DCL-ENT
M$PLATEN    1383**DCL-ENT
M$PRECORD    1361**DCL-ENT
M$PROCNAME    1374**DCL-ENT
M$PROFILE    1385**DCL-ENT
M$PROMPT    1381**DCL-ENT
M$RACST    1365**DCL-ENT
M$RDSYSLOG    1406**DCL-ENT
M$READ    1358**DCL-ENT
M$RELDCB    1363**DCL-ENT
PL6.E3A0      #001=DDD$MULT File=DDD$MULT.:E05TSI                                TUE 07/29/97 13:52 Page:55
M$RELRES    1364**DCL-ENT
M$RELSTARF    1366**DCL-ENT
M$REM    1366**DCL-ENT
M$RENV    1413**DCL-ENT
M$REQUIRE    1365**DCL-ENT
M$RETRY    1414**DCL-ENT
M$RETRYS    1414**DCL-ENT
M$REW    1360**DCL-ENT
M$RLSFLD    1388**DCL-ENT
M$RPRIV    1416**DCL-ENT
M$RSPP    1395**DCL-ENT
M$RSWITCH    1417**DCL-ENT
M$RUE    1423**DCL-ENT
M$SAD    1396**DCL-ENT
M$SAVE    1372**DCL-ENT
M$SCON    1373**DCL-ENT
M$SCREECH    1371**DCL-ENT
M$SENV    1413**DCL-ENT
M$SETFMA    1357**DCL-ENT
M$SETFP    1386**DCL-ENT
M$SINPUT    1384**DCL-ENT
M$SLCFLD    1389**DCL-ENT
M$SMOUSE    1403**DCL-ENT
M$SMPRT    1395**DCL-ENT
M$SPRIV    1416**DCL-ENT
M$SSC    1396**DCL-ENT
M$SSWITCH    1416**DCL-ENT
M$STATE    1425**DCL-ENT
M$STD    1397**DCL-ENT
M$STIMER    1411**DCL-ENT
M$STLPP    1394**DCL-ENT
M$STRAP    1411**DCL-ENT
M$STRMATTR    1383**DCL-ENT
M$STRMCTL    1381**DCL-ENT
M$STRMTAB    1384**DCL-ENT
M$SYMBIO    1422**DCL-ENT
PL6.E3A0      #001=DDD$MULT File=DDD$MULT.:E05TSI                                TUE 07/29/97 13:52 Page:56
M$SYSCON    1408**DCL-ENT
M$SYSID    1426**DCL-ENT
M$TDCLOSE    1407**DCL-ENT
M$TDIO    1407**DCL-ENT
M$TDOPEN    1406**DCL-ENT
M$TDREQCPU    1407**DCL-ENT
M$TEMPWROC    1401**DCL-ENT
M$TIME    1424**DCL-ENT
M$TRAP    1411**DCL-ENT
M$TRMISC    1386**DCL-ENT
M$TRMPRG    1382**DCL-ENT
M$TRTN    1415**DCL-ENT
M$TRUNC    1358**DCL-ENT
M$TTIMER    1411**DCL-ENT
M$UC    1381**DCL
M$UMPL    1398**DCL-ENT
M$UNFID    1420**DCL-ENT
M$UNLATCH    1377**DCL-ENT
M$UNSHARE    1374**DCL-ENT
M$USRFIELD    1417**DCL-ENT
M$VIRTUAL    1392**DCL-ENT
M$WAIT    1415**DCL-ENT
M$WEOF    1360**DCL-ENT
M$WRITE    1358**DCL-ENT
M$WRSYSLOG    1406**DCL-ENT
M$XCON    1412**DCL-ENT
M$XCONRTN    1373**DCL-ENT
M$XEQTIME    1425**DCL-ENT
M$XFLUSH    1366**DCL-ENT
M$XMOUSE    1403**DCL-ENT
M$XXX    1369**DCL-ENT
M$YC    1371**DCL-ENT
SDD_L6$    8615**DCL
ZITEM$    8614**DCL
ZITEM_L6$    8616**DCL
