VERSION E05

PL6.E3A0      #001=DDD$PQLIST File=DDD$PQLIST.:E05TSI                            TUE 07/29/97 13:53 Page:1
        1        1        /*M* DDD$PQLIST - CONTROLS BUILDING OF A LIST OF POINTER DATA DESC. ITEMS */
        2        2        /*T***********************************************************/
        3        3        /*T*                                                         */
        4        4        /*T* Copyright (c) Bull HN Information Systems Inc., 1997    */
        5        5        /*T*                                                         */
        6        6        /*T***********************************************************/
        7        7        /*X* DMR,PLM=5,IND=5,CSU=3,EXM=0,ECU=3,MOC,DCI=5,CRT=5 */
        8        8        /*P*  NAME: DDD$PQLIST
        9        9              PURPOSE: CONTROLS BUILDING OF DATA DESCRIPTOR ITEMS IN THE
       10       10                      DISPLAY DATA DESCRIPTION FOR THE LIST OF PONTER
       11       11                      QUALIFIERS IN THE MIDDLE OF A VARIABLE REFERENCE (IF ANY).
       12       12              DESCRIPTION: FOR EACH POINTER QUALIFICATION OF A LIST
       13       13                  OF POINTER QUALIFICATIONS (A$ -> B$ -> X), DDD$PQLIST
       14       14                  CALLS THE ROUTINE DDD$BLD_PTR TO BUILD THE NECCESSARY DATA
       15       15                  DESCRIPTOR ITEMS IN THE DATA DESCRIPTOR FOR THE VARIABLE
       16       16                  REFERENCE.  THESE ITEMS ARE PLACED IN THE VARIABLES DATA
       17       17                  DESCRIPTOR AT THE LOCATION POINTED BY THE GLOBAL POINTER S_D.D$.
       18       18                  AT ENTRY THE FLAG BASED_FLAG IS SET TO ZERO.
       19       19                  BASED_FLAG IS USED TO INDICATE WHETHER THE ITEM BEING BUILT
       20       20                  IS POINTER QUALIFIED.  AFTER THE FIRST CALL ON BLD_PTR,
       21       21                  BASED_FLAG IS SET.
       22       22                                                                    */
       23       23        DDD$PQLIST: PROC(PQLIST$, BASED_FLAG) ALTRET;
       24       24                                                /* PARAMETERS */
       25       25    1   DCL PQLIST$ PTR;                        /* ROOT NODE IN M$PARSE TREE FOR POINTER
       26       26                                                         QUALIFICATION LIST */
       27       27    1   DCL BASED_FLAG BIT(1) ALIGNED;
       28       28                                                /* LOCAL TEMPS */
       29       29    1   DCL IDX SBIN;
       30       30                                                /* EXTERNAL ROUTINES */
       31       31    1   DCL DDD$BLD_PTR ENTRY(2) ALTRET;
       32       32                                                /* MISC */
       33       33             %INCLUDE XU_MACRO_C;
       34     3139             %PARSE$OUT(NAME=O,STCLASS=BASED);
       35     3184                                                /**/
       36     3185    1        BASED_FLAG = '0'B;
       37     3186    2        DO IDX = 0 TO PQLIST$ -> O.NSUBLKS - 2;
PL6.E3A0      #001=DDD$PQLIST File=DDD$PQLIST.:E05TSI                            TUE 07/29/97 13:53 Page:2
       38     3187    2             CALL DDD$BLD_PTR(PQLIST$ -> O.SUBLK$(IDX), BASED_FLAG)
       39     3188    2               ALTRET(PQERR);
       40     3189    2             BASED_FLAG = '1'B;
       41     3190    2           END;
       42     3191    1        RETURN;
       43     3192    1   PQERR:
       44     3193    1        ALTRETURN;
       45     3194    1   END DDD$PQLIST;

PL6.E3A0      #001=DDD$PQLIST File=DDD$PQLIST.:E05TSI                            TUE 07/29/97 13:53 Page:3
--  Include file information  --

   XU_MACRO_C.:E05TOU  is referenced.
   B$JIT_C.:E05TOU  was found in the system file and is never referenced.
   CP_6_C.:E05TOU  was found in the system file and is never referenced.
      No diagnostics issued in procedure DDD$PQLIST.

   Procedure DDD$PQLIST requires 30 words for executable code.
   Procedure DDD$PQLIST requires 8 words of local(AUTO) storage.

    No errors detected in file DDD$PQLIST.:E05TSI    .

PL6.E3A0      #001=DDD$PQLIST File=DDD$PQLIST.:E05TSI                            TUE 07/29/97 13:53 Page:4

 Object Unit name= DDD$PQLIST                                 File name= DDD$PQLIST.:E05TOU
 UTS= JUL 29 '97 13:53:46.08 TUE                              Compiler= PL-6/E31         Sev=      00
 SharedLib= :SHARED_SYSTEM                                    Alt SharedLib=


    ****  Control sections  ****

 Sect   Type Bound  Init  Size OctSiz  Section name(segment info)
    0   Proc  even  none    30     36  DDD$PQLIST

    ****  Entry defs  ****

                              Check   Calling
                             calling  sequence
  Sect OctLoc Primary Altret sequence   type   Parms  Name
     0      0   yes    yes     yes      Std        2  DDD$PQLIST

  ****  Entry refs  ****

         Check        Calling
        calling       sequence
Altret sequence SRef   type   Args  Name
 yes     yes           Std       2 DDD$BLD_PTR
                       nStd      0 X66_AUTO_2
                       Std       0 B_CONSPOOL_D
                       nStd      0 X66_ARET
                       nStd      0 X66_AALT

  ****  Data refs  ****

  Flags:  r = read only, s = secondary
Flgs Name                             Flgs Name                             Flgs Name
     B_VECTNIL
PL6.E3A0      #001=DDD$PQLIST File=DDD$PQLIST.:E05TSI                            TUE 07/29/97 13:53 Page:5


        1        1        /*M* DDD$PQLIST - CONTROLS BUILDING OF A LIST OF POINTER DATA DESC. ITEMS */
        2        2        /*T***********************************************************/
        3        3        /*T*                                                         */
        4        4        /*T* Copyright (c) Bull HN Information Systems Inc., 1997    */
        5        5        /*T*                                                         */
        6        6        /*T***********************************************************/
        7        7        /*X* DMR,PLM=5,IND=5,CSU=3,EXM=0,ECU=3,MOC,DCI=5,CRT=5 */
        8        8        /*P*  NAME: DDD$PQLIST
        9        9              PURPOSE: CONTROLS BUILDING OF DATA DESCRIPTOR ITEMS IN THE
       10       10                      DISPLAY DATA DESCRIPTION FOR THE LIST OF PONTER
       11       11                      QUALIFIERS IN THE MIDDLE OF A VARIABLE REFERENCE (IF ANY).
       12       12              DESCRIPTION: FOR EACH POINTER QUALIFICATION OF A LIST
       13       13                  OF POINTER QUALIFICATIONS (A$ -> B$ -> X), DDD$PQLIST
       14       14                  CALLS THE ROUTINE DDD$BLD_PTR TO BUILD THE NECCESSARY DATA
       15       15                  DESCRIPTOR ITEMS IN THE DATA DESCRIPTOR FOR THE VARIABLE
       16       16                  REFERENCE.  THESE ITEMS ARE PLACED IN THE VARIABLES DATA
       17       17                  DESCRIPTOR AT THE LOCATION POINTED BY THE GLOBAL POINTER S_D.D$.
       18       18                  AT ENTRY THE FLAG BASED_FLAG IS SET TO ZERO.
       19       19                  BASED_FLAG IS USED TO INDICATE WHETHER THE ITEM BEING BUILT
       20       20                  IS POINTER QUALIFIED.  AFTER THE FIRST CALL ON BLD_PTR,
       21       21                  BASED_FLAG IS SET.
       22       22                                                                    */
       23       23        DDD$PQLIST: PROC(PQLIST$, BASED_FLAG) ALTRET;

     23  0 000000   000000 700200 xent  DDD$PQLIST   TSX0  ! X66_AUTO_2
         0 000001   000010 000002                    ZERO    8,2

       24       24                                                /* PARAMETERS */
       25       25    1   DCL PQLIST$ PTR;                        /* ROOT NODE IN M$PARSE TREE FOR POINTER
       26       26                                                         QUALIFICATION LIST */
       27       27    1   DCL BASED_FLAG BIT(1) ALIGNED;
       28       28                                                /* LOCAL TEMPS */
       29       29    1   DCL IDX SBIN;
       30       30                                                /* EXTERNAL ROUTINES */
       31       31    1   DCL DDD$BLD_PTR ENTRY(2) ALTRET;
       32       32                                                /* MISC */
PL6.E3A0      #001=DDD$PQLIST File=DDD$PQLIST.:E05TSI                            TUE 07/29/97 13:53 Page:6
       33       33             %INCLUDE XU_MACRO_C;
       34     3139             %PARSE$OUT(NAME=O,STCLASS=BASED);
       35     3184                                                /**/
       36     3185    1        BASED_FLAG = '0'B;

   3185  0 000002   200004 470500                    LDP0    @BASED_FLAG,,AUTO
         0 000003   000000 450100                    STZ     0,,PR0

       37     3186    2        DO IDX = 0 TO PQLIST$ -> O.NSUBLKS - 2;

   3186  0 000004   200005 450100                    STZ     IDX,,AUTO
         0 000005   000025 710000 0                  TRA     s:3190+1

       38     3187    2             CALL DDD$BLD_PTR(PQLIST$ -> O.SUBLK$(IDX), BASED_FLAG)

   3187  0 000006   200003 470500                    LDP0    @PQLIST$,,AUTO
         0 000007   000000 471500                    LDP1    0,,PR0
         0 000010   200004 236100                    LDQ     @BASED_FLAG,,AUTO
         0 000011   200007 756100                    STQ     IDX+2,,AUTO
         0 000012   200005 720100                    LXL0    IDX,,AUTO
         0 000013   100003 633510                    EPPR3   3,X0,PR1
         0 000014   200006 453500                    STP3    IDX+1,,AUTO
         0 000015   200006 630500                    EPPR0   IDX+1,,AUTO
         0 000016   000020 631400 xsym               EPPR1   B_VECTNIL+16
         0 000017   000000 701000 xent               TSX1    DDD$BLD_PTR
         0 000020   000035 702000 0                  TSX2    PQERR

       39     3188    2               ALTRET(PQERR);
       40     3189    2             BASED_FLAG = '1'B;

   3189  0 000021   400000 236003                    LDQ     -131072,DU
         0 000022   200004 470500                    LDP0    @BASED_FLAG,,AUTO
         0 000023   000000 756100                    STQ     0,,PR0

       41     3190    2           END;

   3190  0 000024   200005 054100                    AOS     IDX,,AUTO
PL6.E3A0      #001=DDD$PQLIST File=DDD$PQLIST.:E05TSI                            TUE 07/29/97 13:53 Page:7
         0 000025   200003 471500                    LDP1    @PQLIST$,,AUTO
         0 000026   100000 473500                    LDP3    0,,PR1
         0 000027   300001 236100                    LDQ     1,,PR3
         0 000030   000022 772000                    QRL     18
         0 000031   000002 136007                    SBLQ    2,DL
         0 000032   200005 116100                    CMPQ    IDX,,AUTO
         0 000033   000006 605000 0                  TPL     s:3187

       42     3191    1        RETURN;

   3191  0 000034   000000 702200 xent               TSX2  ! X66_ARET

       43     3192    1   PQERR:
       44     3193    1        ALTRETURN;

   3193  0 000035   000000 702200 xent  PQERR        TSX2  ! X66_AALT
       45     3194    1   END DDD$PQLIST;

PL6.E3A0      #001=DDD$PQLIST File=DDD$PQLIST.:E05TSI                            TUE 07/29/97 13:53 Page:8
--  Include file information  --

   XU_MACRO_C.:E05TOU  is referenced.
   B$JIT_C.:E05TOU  was found in the system file and is never referenced.
   CP_6_C.:E05TOU  was found in the system file and is never referenced.
      No diagnostics issued in procedure DDD$PQLIST.

   Procedure DDD$PQLIST requires 30 words for executable code.
   Procedure DDD$PQLIST requires 8 words of local(AUTO) storage.

    No errors detected in file DDD$PQLIST.:E05TSI    .
PL6.E3A0      #001=DDD$PQLIST File=DDD$PQLIST.:E05TSI                            TUE 07/29/97 13:53 Page:9
          *** CROSS REFERENCE LISTING ***
**     DENOTES     IDENTIFIER DEFINITION
<<                 IDENTIFIER'S VALUE SET
>>                 IDENTIFIER'S VALUE USED
<>                 IDENTIFIER SET AND/OR USED
--                 IDENTIFIER REFERENCED
PL6.E3A0      #001=DDD$PQLIST File=DDD$PQLIST.:E05TSI                            TUE 07/29/97 13:53 Page:10
          MINI XREF LISTING

BASED_FLAG
        27**DCL        23--PROC     3185<<ASSIGN   3187<>CALL     3189<<ASSIGN
DDD$BLD_PTR
        31**DCL-ENT  3187--CALL
IDX
        29**DCL      3186<<DOINDEX  3187>>CALL
O.NSUBLKS
      3157**DCL      3186>>DOINDEX
O.SUBLK$
      3178**DCL      3187<>CALL
PQERR
      3193**LABEL    3187--CALLALT
PQLIST$
        25**DCL        23--PROC     3186>>DOINDEX  3187>>CALL
PL6.E3A0      #001=DDD$PQLIST File=DDD$PQLIST.:E05TSI                            TUE 07/29/97 13:53 Page:11
              *** CROSS REFERENCE LISTING ***
    **     DENOTES     IDENTIFIER DEFINITION
    <<                 IDENTIFIER'S VALUE SET
    >>                 IDENTIFIER'S VALUE USED
    <>                 IDENTIFIER SET AND/OR USED
    --                 IDENTIFIER REFERENCED
PL6.E3A0      #001=DDD$PQLIST File=DDD$PQLIST.:E05TSI                            TUE 07/29/97 13:53 Page:12
              MINI UREF LISTING

DDD$PQLIST      23**PROC
