VERSION E05

PL6.E3A0      #001=DDD$SIMEXP File=DDD$SIMEXP.:E05TSI                            TUE 07/29/97 13:54 Page:1
        1        1        /*M*  DDD$SIMEXP - RETURNS VALUE FOR SIMEXP_CODE NODES */
        2        2        /*T***********************************************************/
        3        3        /*T*                                                         */
        4        4        /*T* Copyright (c) Bull HN Information Systems Inc., 1997    */
        5        5        /*T*                                                         */
        6        6        /*T***********************************************************/
        7        7        /*X* DMR,PLM=5,IND=5,CSU=3,EXM=0,ECU=3,MOC,DCI=5,CRT=5 */
        8        8        %SET LISTSUB='1'B;
        9        9        DDD$SIMEXP: PROC(SIMEXP$, VALUE, OFLAG) ALTRET;
       10       10    1   DCL SIMEXP$ PTR;
       11       11    1   DCL VALUE SBIN;
       12       12    1   DCL OFLAG BIT(1) UNAL;
       13       13             %INCLUDE XUH_MACRO_C;
       14       97             %INCLUDE DD_SD_M;
       15     1433             %S_D;
       16     2751             %INCLUDE DD_PSUBS_C;
       17     3226    1   DCL DDS$SIMEXP ENTRY(2) ALTRET;
       18     3227        /**/
       19     3228    1        S_D.ACCUM = 0;
       20     3229    1        S_D.OP = 590;                /* PLUS_CODE */
       21     3230        /*N* Set S_D.SIMBLEOK='1'B unconditionally when scanner is re-written */
       22     3231    1        IF S_D.STORED = 0
       23     3232    1        THEN S_D.SIMBLEOK = '1'B;          /* Direct command */
       24     3233    1        ELSE S_D.SIMBLEOK = '0'B;          /* Stored command */
       25     3234    1        S_D.SDOO = '0'B;                   /* CLEAR 'OCTAL-FOUND-FLAG' */
       26     3235    1        S_D.SDOB = '0'B;
       27     3236    1        S_D.SDOT = '0'B;
       28     3237    1        S_D.SDOOB = '0'B;
       29     3238    1        CALL DDS$SIMEXP(SIMEXP$, VALUE) ALTRET(ARET);
       30     3239    1        OFLAG = S_D.SDOO | S_D.SDOB | S_D.SDOT | S_D.SDOOB;
       31     3240    1        RETURN;
       32     3241    1   ARET:
       33     3242    1        ALTRETURN;
       34     3243    1   END DDD$SIMEXP;

PL6.E3A0      #001=DDD$SIMEXP File=DDD$SIMEXP.:E05TSI                            TUE 07/29/97 13:54 Page:2
--  Include file information  --

   DD_PSUBS_C.:E05TOU  is referenced.
   DD_SD_M.:E05TOU  is referenced.
   XUH_MACRO_C.:E05TOU  is referenced.
   B$JIT_C.:E05TOU  was found in the system file and is never referenced.
   CP_6_C.:E05TOU  was found in the system file and is never referenced.
      No diagnostics issued in procedure DDD$SIMEXP.

   Procedure DDD$SIMEXP requires 46 words for executable code.
   Procedure DDD$SIMEXP requires 12 words of local(AUTO) storage.

    No errors detected in file DDD$SIMEXP.:E05TSI    .

PL6.E3A0      #001=DDD$SIMEXP File=DDD$SIMEXP.:E05TSI                            TUE 07/29/97 13:54 Page:3

 Object Unit name= DDD$SIMEXP                                 File name= DDD$SIMEXP.:E05TOU
 UTS= JUL 29 '97 13:54:05.52 TUE                              Compiler= PL-6/E31         Sev=      00
 SharedLib= :SHARED_SYSTEM                                    Alt SharedLib=


    ****  Control sections  ****

 Sect   Type Bound  Init  Size OctSiz  Section name(segment info)
    0   Proc  even  none    46     56  DDD$SIMEXP

    ****  Entry defs  ****

                              Check   Calling
                             calling  sequence
  Sect OctLoc Primary Altret sequence   type   Parms  Name
     0      0   yes    yes     yes      Std        3  DDD$SIMEXP

  ****  Entry refs  ****

         Check        Calling
        calling       sequence
Altret sequence SRef   type   Args  Name
 yes     yes           Std       2 DDS$SIMEXP
                       nStd      0 X66_AUTO_3
                       Std       0 B_CONSPOOL_D
                       nStd      0 X66_ARET
                       nStd      0 X66_AALT

  ****  Data refs  ****

  Flags:  r = read only, s = secondary
Flgs Name                             Flgs Name                             Flgs Name
r    S_D$                                  B_VECTNIL
PL6.E3A0      #001=DDD$SIMEXP File=DDD$SIMEXP.:E05TSI                            TUE 07/29/97 13:54 Page:4


        1        1        /*M*  DDD$SIMEXP - RETURNS VALUE FOR SIMEXP_CODE NODES */
        2        2        /*T***********************************************************/
        3        3        /*T*                                                         */
        4        4        /*T* Copyright (c) Bull HN Information Systems Inc., 1997    */
        5        5        /*T*                                                         */
        6        6        /*T***********************************************************/
        7        7        /*X* DMR,PLM=5,IND=5,CSU=3,EXM=0,ECU=3,MOC,DCI=5,CRT=5 */
        8        8        %SET LISTSUB='1'B;
        9        9        DDD$SIMEXP: PROC(SIMEXP$, VALUE, OFLAG) ALTRET;

      9  0 000000   000000 700200 xent  DDD$SIMEXP   TSX0  ! X66_AUTO_3
         0 000001   000014 000003                    ZERO    12,3

       10       10    1   DCL SIMEXP$ PTR;
       11       11    1   DCL VALUE SBIN;
       12       12    1   DCL OFLAG BIT(1) UNAL;
       13       13             %INCLUDE XUH_MACRO_C;
       14       97             %INCLUDE DD_SD_M;
       15     1433             %S_D;
       16     2751             %INCLUDE DD_PSUBS_C;
       17     3226    1   DCL DDS$SIMEXP ENTRY(2) ALTRET;
       18     3227        /**/
       19     3228    1        S_D.ACCUM = 0;

   3228  0 000002   000000 470400 xsym               LDP0    S_D$
         0 000003   000137 450100                    STZ     95,,PR0

       20     3229    1        S_D.OP = 590;                /* PLUS_CODE */

   3229  0 000004   001116 235007                    LDA     590,DL
         0 000005   000136 755100                    STA     94,,PR0

       21     3230        /*N* Set S_D.SIMBLEOK='1'B unconditionally when scanner is re-written */
       22     3231    1        IF S_D.STORED = 0

   3231  0 000006   000135 235100                    LDA     93,,PR0
PL6.E3A0      #001=DDD$SIMEXP File=DDD$SIMEXP.:E05TSI                            TUE 07/29/97 13:54 Page:5
         0 000007   000013 601000 0                  TNZ     s:3233

       23     3232    1        THEN S_D.SIMBLEOK = '1'B;          /* Direct command */

   3232  0 000010   400000 236003                    LDQ     -131072,DU
         0 000011   000054 756100                    STQ     44,,PR0
         0 000012   000014 710000 0                  TRA     s:3234

       24     3233    1        ELSE S_D.SIMBLEOK = '0'B;          /* Stored command */

   3233  0 000013   000054 450100                    STZ     44,,PR0

       25     3234    1        S_D.SDOO = '0'B;                   /* CLEAR 'OCTAL-FOUND-FLAG' */

   3234  0 000014   000060 450100                    STZ     48,,PR0

       26     3235    1        S_D.SDOB = '0'B;

   3235  0 000015   004737 450100                    STZ     2527,,PR0

       27     3236    1        S_D.SDOT = '0'B;

   3236  0 000016   004741 450100                    STZ     2529,,PR0

       28     3237    1        S_D.SDOOB = '0'B;

   3237  0 000017   004740 450100                    STZ     2528,,PR0

       29     3238    1        CALL DDS$SIMEXP(SIMEXP$, VALUE) ALTRET(ARET);

   3238  0 000020   200003 630500                    EPPR0   @SIMEXP$,,AUTO
         0 000021   000020 631400 xsym               EPPR1   B_VECTNIL+16
         0 000022   000000 701000 xent               TSX1    DDS$SIMEXP
         0 000023   000055 702000 0                  TSX2    ARET

       30     3239    1        OFLAG = S_D.SDOO | S_D.SDOB | S_D.SDOT | S_D.SDOOB;

PL6.E3A0      #001=DDD$SIMEXP File=DDD$SIMEXP.:E05TSI                            TUE 07/29/97 13:54 Page:6
   3239  0 000024   000000 470400 xsym               LDP0    S_D$
         0 000025   004737 236100                    LDQ     2527,,PR0
         0 000026   400000 376003                    ANQ     -131072,DU
         0 000027   200006 756100                    STQ     @OFLAG+1,,AUTO
         0 000030   000060 236100                    LDQ     48,,PR0
         0 000031   400000 376003                    ANQ     -131072,DU
         0 000032   200006 276100                    ORQ     @OFLAG+1,,AUTO
         0 000033   200007 756100                    STQ     @OFLAG+2,,AUTO
         0 000034   004741 236100                    LDQ     2529,,PR0
         0 000035   400000 376003                    ANQ     -131072,DU
         0 000036   200010 756100                    STQ     @OFLAG+3,,AUTO
         0 000037   200007 236100                    LDQ     @OFLAG+2,,AUTO
         0 000040   200010 276100                    ORQ     @OFLAG+3,,AUTO
         0 000041   200011 756100                    STQ     @OFLAG+4,,AUTO
         0 000042   004740 236100                    LDQ     2528,,PR0
         0 000043   400000 376003                    ANQ     -131072,DU
         0 000044   200012 756100                    STQ     @OFLAG+5,,AUTO
         0 000045   200011 236100                    LDQ     @OFLAG+4,,AUTO
         0 000046   200012 276100                    ORQ     @OFLAG+5,,AUTO
         0 000047   200013 756100                    STQ     @OFLAG+6,,AUTO
         0 000050   200005 471500                    LDP1    @OFLAG,,AUTO
         0 000051   003100 060500                    CSL     bolr='003'O
         0 000052   200013 000044                    BDSC    @OFLAG+6,,AUTO           by=0,bit=0,n=36
         0 000053   100000 000001                    BDSC    0,,PR1                   by=0,bit=0,n=1

       31     3240    1        RETURN;

   3240  0 000054   000000 702200 xent               TSX2  ! X66_ARET

       32     3241    1   ARET:
       33     3242    1        ALTRETURN;

   3242  0 000055   000000 702200 xent  ARET         TSX2  ! X66_AALT
       34     3243    1   END DDD$SIMEXP;

PL6.E3A0      #001=DDD$SIMEXP File=DDD$SIMEXP.:E05TSI                            TUE 07/29/97 13:54 Page:7
--  Include file information  --

   DD_PSUBS_C.:E05TOU  is referenced.
   DD_SD_M.:E05TOU  is referenced.
   XUH_MACRO_C.:E05TOU  is referenced.
   B$JIT_C.:E05TOU  was found in the system file and is never referenced.
   CP_6_C.:E05TOU  was found in the system file and is never referenced.
      No diagnostics issued in procedure DDD$SIMEXP.

   Procedure DDD$SIMEXP requires 46 words for executable code.
   Procedure DDD$SIMEXP requires 12 words of local(AUTO) storage.

    No errors detected in file DDD$SIMEXP.:E05TSI    .
PL6.E3A0      #001=DDD$SIMEXP File=DDD$SIMEXP.:E05TSI                            TUE 07/29/97 13:54 Page:8
          *** CROSS REFERENCE LISTING ***
**     DENOTES     IDENTIFIER DEFINITION
<<                 IDENTIFIER'S VALUE SET
>>                 IDENTIFIER'S VALUE USED
<>                 IDENTIFIER SET AND/OR USED
--                 IDENTIFIER REFERENCED
PL6.E3A0      #001=DDD$SIMEXP File=DDD$SIMEXP.:E05TSI                            TUE 07/29/97 13:54 Page:9
          MINI XREF LISTING

ARET
      3242**LABEL    3238--CALLALT
DDS$SIMEXP
      3226**DCL-ENT  3238--CALL
OFLAG
        12**DCL         9--PROC     3239<<ASSIGN
SIMEXP$
        10**DCL         9--PROC     3238<>CALL
S_D.ACCUM
      1635**DCL      3228<<ASSIGN
S_D.CURRENT_CHANNEL
      2385**DCL      2387--REDEF
S_D.DEBUGA
      1537**DCL      1539--REDEF
S_D.EIS
      2495**DCL      2524--REDEF
S_D.HOST_MESSAGE_BUF_REMOTE
      2428**DCL      2429--REDEF    2443--REDEF
S_D.JDE
      2042**DCL      2043--REDEF
S_D.L$.VALUE
      1595**DCL      1601--REDEF    1609--REDEF    1612--REDEF    1615--REDEF    1618--REDEF
S_D.L$.VALUE.L
      1596**DCL      1597--REDEF    1598--REDEF
S_D.L6_MESSAGE_BUF
      2449**DCL      2451--REDEF
S_D.OP
      1633**DCL      3229<<ASSIGN
S_D.OUTPUT
      2415**DCL      2417--REDEF
S_D.REMOTE_MSG.FNCC
      2434**DCL      2435--REDEF
PL6.E3A0      #001=DDD$SIMEXP File=DDD$SIMEXP.:E05TSI                            TUE 07/29/97 13:54 Page:10
S_D.REMOTE_MSG.STXC
      2430**DCL      2431--REDEF
S_D.REMOTE_MSG.SUBFNCC
      2438**DCL      2439--REDEF
S_D.SDOB
      2055**DCL      3235<<ASSIGN   3239>>ASSIGN
S_D.SDOO
      1549**DCL      3234<<ASSIGN   3239>>ASSIGN
S_D.SDOOB
      2057**DCL      3237<<ASSIGN   3239>>ASSIGN
S_D.SDOT
      2059**DCL      3236<<ASSIGN   3239>>ASSIGN
S_D.SIMBLEOK
      1541**DCL      3232<<ASSIGN   3233<<ASSIGN
S_D.STORED
      1631**DCL      3231>>IF
S_D.SV
      1494**DCL      1515--REDEF
S_D$
      2746**DCL      1442--IMP-PTR  3228>>ASSIGN   3229>>ASSIGN   3231>>IF       3232>>ASSIGN   3233>>ASSIGN
      3234>>ASSIGN   3235>>ASSIGN   3236>>ASSIGN   3237>>ASSIGN   3239>>ASSIGN   3239>>ASSIGN   3239>>ASSIGN
      3239>>ASSIGN
VALUE
        11**DCL         9--PROC     3238<>CALL
PL6.E3A0      #001=DDD$SIMEXP File=DDD$SIMEXP.:E05TSI                            TUE 07/29/97 13:54 Page:11
              *** CROSS REFERENCE LISTING ***
    **     DENOTES     IDENTIFIER DEFINITION
    <<                 IDENTIFIER'S VALUE SET
    >>                 IDENTIFIER'S VALUE USED
    <>                 IDENTIFIER SET AND/OR USED
    --                 IDENTIFIER REFERENCED
PL6.E3A0      #001=DDD$SIMEXP File=DDD$SIMEXP.:E05TSI                            TUE 07/29/97 13:54 Page:12
              MINI UREF LISTING

DDD$SIMEXP       9**PROC
