VERSION E05

PL6.E3A0      #001=DDE$ERRS File=DDE$ERRS.:E05TSI                                TUE 07/29/97 13:57 Page:1
        1        1        /*M* DDE$ERRS - Depository for User DELTA error messages */
        2        2        /*T***********************************************************/
        3        3        /*T*                                                         */
        4        4        /*T* Copyright (c) Bull HN Information Systems Inc., 1997    */
        5        5        /*T*                                                         */
        6        6        /*T***********************************************************/
        7        7        /*X* DMC,DFC */
        8        8
        9        9        DDE$ERRS: PROC;
       10       10
       11       11        /* User error messages */
       12       12
       13       13        /*E* ERROR: DDE-E$DD_UNKNOWN
       14       14        MESSAGE0::
       15       15        %"%U1" %**** Unable to find error message text ****
       16       16        */
       17       17        /*E* ERROR: DDE-E$DD_RANGE_SPEC
       18       18        MESSAGE0::
       19       19        Bad subscript
       20       20        MESSAGE1::
       21       21        Range specification not allowed on pointer variable
       22       22        */
       23       23        /*E* ERROR: DDE-E$DD_ADDREXP
       24       24        MESSAGE0::
       25       25        Invalid address expression
       26       26        MESSAGE1::
       27       27        Address expression not allowed on based pointer variable
       28       28        */
       29       29        /*E* ERROR: DDE-E$DD_SYM_NOTFOUND
       30       30        MESSAGE0::
       31       31        %"%U1" %Symbol not found
       32       32        */
       33       33        /*E* ERROR: DDE-E$DD_INVLD_SPEC
       34       34        MESSAGE0::
       35       35        %"%U1" %Invalid use of special symbol
       36       36        */
       37       37        /*E* ERROR: DDE-E$DD_SDEF
PL6.E3A0      #001=DDE$ERRS File=DDE$ERRS.:E05TSI                                TUE 07/29/97 13:57 Page:2
       38       38        MESSAGE0::
       39       39        %"%U1" %Invalid use of symdef
       40       40        */
       41       41        /*E* ERROR: DDE-E$DD_SUBSCRIPT
       42       42        MESSAGE0::
       43       43        %"%U1" %wrong number of subscripts
       44       44        */
       45       45        /*E* ERROR: DDE-E$DD_INVLD_PTR
       46       46        MESSAGE0::
       47       47        %"%U1" %is not a PTR
       48       48        */
       49       49        /*E* ERROR: DDE-E$DD_NOROOM
       50       50        MESSAGE0::
       51       51        %"%U1" %No room for data descriptor
       52       52        */
       53       53        /*E* ERROR: DDE-E$DD_VAR_REF
       54       54        MESSAGE0::
       55       55        %"%U1" %not BASED or parameter
       56       56        */
       57       57        /*E* ERROR: DDE-E$DD_CANT_LET_SPSYM
       58       58        MESSAGE0::
       59       59        Can't LET this special symbol
       60       60        */
       61       61        /*E* ERROR: DDE-E$DD_UERR0
       62       62        MESSAGE0::
       63       63        %"%U1" %Eh@%U2
       64       64        */
       65       65        /*E* ERROR: DDE-E$DD_UERR1
       66       66        MESSAGE0::
       67       67        %"%U1" %ID out of range or already in use
       68       68        */
       69       69        /*E* ERROR: DDE-E$DD_UERR2
       70       70        MESSAGE0::
       71       71        %"%U1" %Attachments to an immediate directive specified
       72       72        */
       73       73        /*E* ERROR: DDE-E$DD_UERR3
       74       74        MESSAGE0::
PL6.E3A0      #001=DDE$ERRS File=DDE$ERRS.:E05TSI                                TUE 07/29/97 13:57 Page:3
       75       75        %"%U1" %ID specified on immediate directive or on continued attachments
       76       76        */
       77       77        /*E* ERROR: DDE-E$DD_UERR4
       78       78        MESSAGE0::
       79       79        %"%U1" %Insufficient space in dircom/varcom to build directive
       80       80        */
       81       81        /*E* ERROR: DDE-E$DD_UERR5
       82       82        MESSAGE0::
       83       83        %"%U1" %Stored directive specified as an attachment
       84       84        */
       85       85        /*E* ERROR: DDE-E$DD_UERR6
       86       86        MESSAGE0::
       87       87        %"%U1" %No free slots available in fixcom
       88       88        */
       89       89        /*E* ERROR: DDE-E$DD_UERR7
       90       90        MESSAGE0::
       91       91        %"%U1" %User DELTA only directive in XDELTA
       92       92        */
       93       93        /*E* ERROR: DDE-E$DD_UERR8
       94       94        MESSAGE0::
       95       95        %"%U1" %XDELTA only directive in user DELTA
       96       96        MESSAGE1::
       97       97        That directive is not legal when issued from user DELTA
       98       98        */
       99       99        /*E* ERROR: DDE-E$DD_UERR9
      100      100        MESSAGE0::
      101      101        %"%U1" %Debug schema KILLed or not available
      102      102        */
      103      103        /*E* ERROR: DDE-E$DD_UERR10
      104      104        MESSAGE0::
      105      105        %"%U1" %Can't find symbol
      106      106        */
      107      107        /*E* ERROR: DDE-E$DD_UERR11
      108      108        MESSAGE0::
      109      109        %"%U1" %Your Run Unit's DEBUG SCHEMA is bad
      110      110        */
      111      111        /*E* ERROR: DDE-E$DD_UERR12
PL6.E3A0      #001=DDE$ERRS File=DDE$ERRS.:E05TSI                                TUE 07/29/97 13:57 Page:4
      112      112        MESSAGE0::
      113      113        %"%U1" %Feature not yet available
      114      114        */
      115      115        /*E* ERROR: DDE-E$DD_BAD_SUBREF
      116      116        MESSAGE0::
      117      117        %"%U1" %Bad subscript
      118      118        */
      119      119        /*E* ERROR: DDE-E$DD_UERR25
      120      120        MESSAGE0::
      121      121        %"%U1" %Invalid IS address specified
      122      122        */
      123      123        /*E* ERROR: DDE-E$DD_SUBST_REF
      124      124        MESSAGE0::
      125      125        %"%U1" %Invalid substatement reference
      126      126        */
      127      127        /*E* ERROR: DDE-E$DD_OFFSET_REF
      128      128        MESSAGE0::
      129      129        %"%U1" %Invalid offset reference
      130      130        */
      131      131        /*E* ERROR: DDE-E$DD_LBL_ARRAY_NOT
      132      132        MESSAGE0::
      133      133        %"%U1" %Labeled array reference not allowed
      134      134        */
      135      135        /*E* ERROR: DDE-E$DD_LBL_ARRAY_FIND
      136      136        MESSAGE0::
      137      137        %"%U1" %Can't find specified labeled array reference
      138      138        */
      139      139        /*E* ERROR: DDE-E$DD_LINE#
      140      140        MESSAGE0::
      141      141        %"%U1" %Can't find specified line number
      142      142        */
      143      143        /*E* ERROR: DDE-E$DD_SUBST_OFF
      144      144        MESSAGE0::
      145      145        %"%U1" %Can't find specified substatement
      146      146        */
      147      147        /*E* ERROR: DDE-E$DD_EDEF
      148      148        MESSAGE0::
PL6.E3A0      #001=DDE$ERRS File=DDE$ERRS.:E05TSI                                TUE 07/29/97 13:57 Page:5
      149      149        %"%U1" %Can't find specified entdef
      150      150        */
      151      151        /*E* ERROR: DDE-E$DD_LABEL
      152      152        MESSAGE0::
      153      153        %"%U1" %Can't find specified label
      154      154        */
      155      155        /*E* ERROR: DDE-E$DD_NOTYET
      156      156        MESSAGE0::
      157      157        %"%U1" %Feature not yet implemented
      158      158        */
      159      159        /*E* ERROR: DDE-E$DD_DXG$PTREND
      160      160        MESSAGE0::
      161      161        %"%U1" %Error calling DXG$PTREND
      162      162        */
      163      163        /*E* ERROR: DDE-E$DD_ADDRBAD
      164      164        MESSAGE0::
      165      165        %"%U1" %Addressing error
      166      166        */
      167      167        /*E* ERROR: DDE-E$DD_EXPR2CMPLX
      168      168        MESSAGE0::
      169      169        %"%U1" %Expression is too complex
      170      170        */
      171      171        /*E* ERROR: DDE-E$DD_USE_CONFLICT
      172      172        MESSAGE0::
      173      173        %"%U1" %'USE' in conflict with request
      174      174        */
      175      175        /*E* ERROR: DDE-E$DD_SUBRANGE
      176      176        MESSAGE0::
      177      177        %"%U1" %Invalid range specification
      178      178        */
      179      179        /*E* ERROR: DDE-E$DD_ADDREXPG256K
      180      180        MESSAGE0::
      181      181        %"%U1" %Address expression > 256k
      182      182        */
      183      183        /*E* ERROR: DDE-E$DD_NODISP
      184      184        MESSAGE0::
      185      185        %"%U1" %Item not able to be displayed
PL6.E3A0      #001=DDE$ERRS File=DDE$ERRS.:E05TSI                                TUE 07/29/97 13:57 Page:6
      186      186        */
      187      187        /*E* ERROR: DDE-E$DD_NOMOD
      188      188        MESSAGE0::
      189      189        %"%U1" %Item not able to be modified
      190      190        */
      191      191        /*E* ERROR: DDE-E$DD_NOEVAL
      192      192        MESSAGE0::
      193      193        %"%U1" %Item not able to be evaluated
      194      194        */
      195      195        /*E* ERROR: DDE-E$DD_NOPOS
      196      196        MESSAGE0::
      197      197        %"%U1" %Position not appropriate for a breakpoint
      198      198        */
      199      199        /*E* ERROR: DDE-E$DD_OPCODE
      200      200        MESSAGE0::
      201      201        %"%U1" %Invalid op code mnemonic
      202      202        */
      203      203        /*E* ERROR: DDE-E$DD_TOOLARGE
      204      204        MESSAGE0::
      205      205        %"%U1" %Specified value too large
      206      206        */
      207      207        /*E* ERROR: DDE-E$DD_NOTATT
      208      208        MESSAGE0::
      209      209        %"%U1" %Not attachable directive
      210      210        */
      211      211        /*E* ERROR: DDE-E$DD_SYM2LONG
      212      212        MESSAGE0::
      213      213        %"%U1" %Symbol too long
      214      214        */
      215      215        /*E* ERROR: DDE-E$DD_BAD_APT
      216      216        MESSAGE0::
      217      217        %"%U1" %Bad page table
      218      218        */
      219      219        /*E* ERROR: DDE-E$DD_BAD_USERNO
      220      220        MESSAGE0::
      221      221        %"%U1" %Bad user # in USE
      222      222        */
PL6.E3A0      #001=DDE$ERRS File=DDE$ERRS.:E05TSI                                TUE 07/29/97 13:57 Page:7
      223      223        /*E* ERROR: DDE-E$DD_NOSYMBHERE
      224      224        MESSAGE0::
      225      225        %"%U1" %Symbolic reference not allowed here
      226      226        */
      227      227        /*E* ERROR: DDE-E$DD_INVLDQUAL
      228      228        MESSAGE0::
      229      229        %"%U1" %Qualification not allowed here
      230      230        */
      231      231        /*E* ERROR: DDE-E$DD_SYNTAX
      232      232        MESSAGE0::
      233      233        %"%U1" %Eh?
      234      234        */
      235      235        /*E* ERROR: DDE-E$DD_NOTMON
      236      236        MESSAGE0::
      237      237        %"%U1" %USE MON required for ON CALL directive
      238      238        */
      239      239        /*E* ERROR: DDE-E$DD_USE
      240      240        MESSAGE0::
      241      241        %"%U1" %USE type not compatible with stored directive type
      242      242        */
      243      243        /*E* ERROR: DDE-E$DD_NOTIFSPEC
      244      244        MESSAGE0::
      245      245        %"%U1" %Ifspec not allowed on this directive
      246      246        */
      247      247        /*E* ERROR: DDE-E$DD_DUBREAK
      248      248        MESSAGE0::
      249      249        %"%U1" %Duplicate breakpoints are not allowed
      250      250        MESSAGE1::
      251      251        The position reference given in this breakpoint is the same
      252      252        as the position given for some previously defined breakpoint.
      253      253        Either KILL the previous breakpoint, or specify its ID when
      254      254        defining this breakpoint eg.
      255      255        05 AT HERE
      256      256        */
      257      257        /*E* ERROR: DDE-E$DD_CANTEVAL
      258      258        MESSAGE0::
      259      259        %"%U1" %Address expression cannot be evaluated
PL6.E3A0      #001=DDE$ERRS File=DDE$ERRS.:E05TSI                                TUE 07/29/97 13:57 Page:8
      260      260        */
      261      261        /*E* ERROR: DDE-E$DD_ULRANGE
      262      262        MESSAGE0::
      263      263        %"%U1" %Lower > upper subscript reference
      264      264        */
      265      265        /*E* ERROR: DDE-E$DD_SEGIDERR
      266      266        MESSAGE0::
      267      267        %"%U1" %Segid out of descriptor segment bounds
      268      268        */
      269      269        /*E* ERROR: DDE-E$DD_REDEF
      270      270        MESSAGE0::
      271      271        %"%U1" %Can't redefine symbol
      272      272        */
      273      273        /*E* ERROR: DDE-E$DD_2MANYDEFS
      274      274        MESSAGE0::
      275      275        %"%U1" %Too many user defs
      276      276        */
      277      277        /*E* ERROR: DDE-E$DD_FROM_TO
      278      278        MESSAGE0::
      279      279        %"%U1" %ID 'TO' greater than ID 'FROM'
      280      280        */
      281      281        /*E* ERROR: DDE-E$DD_CONSTOOBIG
      282      282        MESSAGE0::
      283      283        %"%U1" %Constant too big
      284      284        */
      285      285        /*E* ERROR: DDE-E$DD_BADDIG
      286      286        MESSAGE0::
      287      287        %"%U1" %Invalid bit/octal/hexadecimal digit
      288      288        */
      289      289        /*E* ERROR: DDE-E$DD_INCMPDTYPES
      290      290        MESSAGE0::
      291      291        %"%U1" %Incompatible data types for 'LET'
      292      292        */
      293      293        /*E* ERROR: DDE-E$DD_$LMISUSE
      294      294        MESSAGE0::
      295      295        %"%U1" %Misuse of $L special symbol
      296      296        */
PL6.E3A0      #001=DDE$ERRS File=DDE$ERRS.:E05TSI                                TUE 07/29/97 13:57 Page:9
      297      297        /*E* ERROR: DDE-E$DD_OUTOFSEG
      298      298        MESSAGE0::
      299      299        %"%U1" %Access out of segment
      300      300        */
      301      301        /*E* ERROR: DDE-E$DD_BADDESCTYPE
      302      302        MESSAGE0::
      303      303        %"%U1" %Bad descriptor type (not operand storage)
      304      304        */
      305      305        /*E* ERROR: DDE-E$DD_SEGNOTPRES
      306      306        MESSAGE0::
      307      307        %"%U1" %Segment present bit reset in descriptor
      308      308        */
      309      309        /*E* ERROR: DDE-E$DD_SEGEMPTY
      310      310        MESSAGE0::
      311      311        %"%U1" %Segment empty bit set in descriptor
      312      312        */
      313      313        /*E* ERROR: DDE-E$DD_CANTWRITESEG
      314      314        MESSAGE0::
      315      315        %"%U1" %Descriptor does not allow write access
      316      316        */
      317      317        /*E* ERROR: DDE-E$DD_CANTREADSEG
      318      318        MESSAGE0::
      319      319        %"%U1" %Descriptor does not allow read access
      320      320        */
      321      321        /*E* ERROR: DDE-E$DD_BADPTDW
      322      322        MESSAGE0::
      323      323        %"%U1" %Bad page table directory word
      324      324        */
      325      325        /*E* ERROR: DDE-E$DD_OUTOFMAP
      326      326        MESSAGE0::
      327      327        %"%U1" %Reference is beyond map
      328      328        */
      329      329        /*E* ERROR: DDE-E$DD_NOPAGE
      330      330        MESSAGE0::
      331      331        %"%U1" %Reference starts on non-existent page
      332      332        */
      333      333        /*E* ERROR: DDE-E$DD_NOPAGE2
PL6.E3A0      #001=DDE$ERRS File=DDE$ERRS.:E05TSI                                TUE 07/29/97 13:57 Page:10
      334      334        MESSAGE0::
      335      335        %"%U1" %Reference crosses page boundary to non-existent page
      336      336        */
      337      337        /*E* ERROR: DDE-E$DD_ACCESS_FAULT
      338      338        MESSAGE0::
      339      339        %"%U1" %DELTA trapped during access
      340      340        */
      341      341        /*E* ERROR: DDE-E$DD_IN_DEV_ERROR
      342      342        MESSAGE0::
      343      343        %"%U1" %Error reading input device
      344      344        */
      345      345        /*E* ERROR: DDE-E$DD_SUBDSCALAR
      346      346        MESSAGE0::
      347      347        %"%U1" %Save your subscripts for array references
      348      348        MESSAGE1::
      349      349        You have specified subscripts for a symbol which
      350      350        is not a vector, array, table, or matrix.
      351      351        */
      352      352        /*E* ERROR: DDE-E$DD_2MANYSUBS
      353      353        MESSAGE0::
      354      354        %"%U1" %Too many subscripts specified
      355      355        */
      356      356        /*E* ERROR: DDE-E$DD_OLDNOTOLD
      357      357        MESSAGE0::
      358      358        %(%U1) %Expected value not found
      359      359        */
      360      360        /*E* ERROR: DDE-E$DD_BADADDR
      361      361        MESSAGE0::
      362      362        %"%U1" %Bad address
      363      363        */
      364      364        /*E* ERROR: DDE-E$DD_CANTFINDSEG
      365      365        MESSAGE0::
      366      366        %"%U1" %Can't find self identifying segments
      367      367        */
      368      368        /*E* ERROR: DDE-E$DD_CANTTAB
      369      369        MESSAGE0::
      370      370        %"%U1" %Can't do that indirection
PL6.E3A0      #001=DDE$ERRS File=DDE$ERRS.:E05TSI                                TUE 07/29/97 13:57 Page:11
      371      371        */
      372      372        /*E* ERROR: DDE-E$DD_BADVALEXP
      373      373        MESSAGE0::
      374      374        %"%U1" %Bad expression value
      375      375        */
      376      376        /*E* ERROR: DDE-E$DD_EXPNOTVALID
      377      377        MESSAGE0::
      378      378        %"%U1" %Expression not valid here
      379      379        */
      380      380        /*E* ERROR: DDE-E$DD_BUFFULL
      381      381        MESSAGE0::
      382      382        %"%U1" %Output buffer full
      383      383        */
      384      384        /*E* ERROR: DDE-E$DD_UNKFMT
      385      385        MESSAGE0::
      386      386        %"%U1" %Unknown format
      387      387        */
      388      388        /*E* ERROR: DDE-E$DD_SIZE_TYPE
      389      389        MESSAGE0::
      390      390        %"%U1" %Data size - type mismatch (LET/IF)
      391      391        */
      392      392        /*E* ERROR: DDE-E$DD_ONLY1
      393      393        MESSAGE0::
      394      394        %"%U1" %Only one type each of ON (ABORT, EXIT, CALLS, NODES) can be specified
      395      395        */
      396      396        /*E* ERROR: DDE-E$DD_NO_CONTROL
      397      397        MESSAGE0::
      398      398        %"%U1" %You don't have a handler for that Exceptional Condition
      399      399        MESSAGE1::
      400      400        To use the XCON or GOTRAP directives, your program must
      401      401        have previously requested control for this Exceptional
      402      402        Condition via M$TRAP, M$XCON, M$EVENT, M$INT, or M$STIMER.
      403      403        */
      404      404        /*E* ERROR: DDE-E$DD_NO_BREAK
      405      405        MESSAGE0::
      406      406        %"%U1" %You don't have break control
      407      407        MESSAGE1::
PL6.E3A0      #001=DDE$ERRS File=DDE$ERRS.:E05TSI                                TUE 07/29/97 13:57 Page:12
      408      408        Your program did not ask for control of BREAK events
      409      409        with the M$INT monitor service.
      410      410        */
      411      411        /*E* ERROR: DDE-E$DD_NODEFS1
      412      412        MESSAGE0::
      413      413        %"%U1" %Can't read HEAD record
      414      414        */
      415      415        /*E* ERROR: DDE-E$DD_NODEFS2
      416      416        MESSAGE0::
      417      417        %"%U1" %Can't get memory for DEFs records
      418      418        */
      419      419        /*E* ERROR: DDE-E$DD_NODEFS3
      420      420        MESSAGE0::
      421      421        %"%U1" %Can't read DEF NAMES record
      422      422        */
      423      423        /*E* ERROR: DDE-E$DD_NODEFS4
      424      424        MESSAGE0::
      425      425        %"%U1" %Can't read ENTDEFs record
      426      426        */
      427      427        /*E* ERROR: DDE-E$DD_NODEFS5
      428      428        MESSAGE0::
      429      429        %"%U1" %Can't read SYMDEFs record
      430      430        */
      431      431        /*E* ERROR: DDE-E$DD_NOPTR
      432      432        MESSAGE0::
      433      433        %"%U1" %must have PTR
      434      434        */
      435      435        /*E* ERROR: DDE-E$DD_NO_TRAP
      436      436        MESSAGE0::
      437      437        %"%U1" %DELTA entry was not caused by user trap
      438      438        MESSAGE1::
      439      439        This entry to DELTA was caused by a breakpoint, or this
      440      440        is the initial entry. GOTRAP may be used only if this entry
      441      441        was caused by a user program trap or asynchronous event.
      442      442        */
      443      443        /*E* ERROR: DDE-E$DD_NO_TCB
      444      444        MESSAGE0::
PL6.E3A0      #001=DDE$ERRS File=DDE$ERRS.:E05TSI                                TUE 07/29/97 13:57 Page:13
      445      445        %"%U1" %Your TCB is full or not there
      446      446        */
      447      447        /*E* ERROR: DDE-E$DD_NO_TRAP_CONTROL
      448      448        MESSAGE0::
      449      449        %"%U1" %You specified TRAP, but don't have control for the
      450      450        */
      451      451        /*E* ERROR: DDE-E$DD_PACCESS_FAULT
      452      452        MESSAGE0::
      453      453        %"%U1" %Bad parameter pointer
      454      454        */
      455      455        /*E* ERROR: DDE-E$DD_BADPTR
      456      456        MESSAGE0::
      457      457        %"%U1" %Bad pointer
      458      458        */
      459      459        /*E* ERROR: DDE-E$DD_HIST_EMPTY
      460      460        MESSAGE0::
      461      461        %"%U1" %History buffer is empty
      462      462        */
      463      463        /*E* ERROR: DDE-E$DD_NO_MORE_HIST
      464      464        MESSAGE0::
      465      465        %"%U1" %No more history
      466      466        */
      467      467        /*E* ERROR: DDE-E$DD_NOSL$
      468      468        MESSAGE0::
      469      469        %"%U1" %Can't find DELTA special location
      470      470        */
      471      471        /*E* ERROR: DDE-E$DD_XCON_IN_PROGRESS
      472      472        MESSAGE0::
      473      473        %"%U1" %You specified TRAP, but exit control is already in progress
      474      474        */
      475      475        /*E* ERROR: DDE-E$DD_CANT_XCON
      476      476        MESSAGE0::
      477      477        %"%U1" %Exit control already in progress, this would run you down
      478      478        */
      479      479        /*E* ERROR: DDE-E$DD_CANT_BREAK
      480      480        MESSAGE0::
      481      481        %"%U1" %BREAK was reset by DELTA
PL6.E3A0      #001=DDE$ERRS File=DDE$ERRS.:E05TSI                                TUE 07/29/97 13:57 Page:14
      482      482        */
      483      483        /*E* ERROR: DDE-E$DD_XDONLYSYM
      484      484        MESSAGE0::
      485      485        %"%U1" %XDELTA-only symbol, not allowed here
      486      486        */
      487      487        /*E* ERROR: DDE-E$DD_NO_TRACE_INFO
      488      488        MESSAGE0::
      489      489        %"%U1" %Can't turn trace on, no trace parameters exist, use TC or TT
      490      490        MESSAGE1::
      491      491        TRACE ON is used to enable tracing after tracing was
      492      492        disabled with the TRACE OFF directive. In this case,
      493      493        either no TRACE was ever set up, or the TRACE state
      494      494        was deleted with KILL TRACE.
      495      495        MESSAGE2::
      496      496        You can not turn TRACE on until you tell DELTA what
      497      497        kind of TRACEing you wish to perform. See the TRACE TRANSFER
      498      498        and TRACE CALLS directives (HELP TT and HELP TC).
      499      499        */
      500      500        /*E* ERROR: DDE-E$DD_UDONLYSYM
      501      501        MESSAGE0::
      502      502        %"%U1" %User DELTA-only symbol, not allowed here
      503      503        */
      504      504        /*E* ERROR: DDE-E$DD_CANT_ANLZ
      505      505        MESSAGE0::
      506      506        %"%U1" %You don't have proper privilege for ANLZ/DELTA
      507      507        */
      508      508        /*E* ERROR: DDE-E$DD_NOT_IN_PATCH
      509      509        MESSAGE0::
      510      510        %"%U1" %Not allowed in PATCH mode
      511      511        */
      512      512        /*E* ERROR: DDE-E$DD_BADIFADR
      513      513        MESSAGE0::
      514      514        %"%U1" %Bad expression in IF
      515      515        */
      516      516        /*E* ERROR: DDE-E$DD_NOT_OVERLAID
      517      517        MESSAGE0::
      518      518        %"%U1" %Program is not overlaid
PL6.E3A0      #001=DDE$ERRS File=DDE$ERRS.:E05TSI                                TUE 07/29/97 13:57 Page:15
      519      519        */
      520      520        /*E* ERROR: DDE-E$DD_OVTABLES
      521      521        MESSAGE0::
      522      522        %"%U1" %Can't get memory for DELTA overlay control tables
      523      523        */
      524      524        /*E* ERROR: DDE-E$DD_OVDEFS
      525      525        MESSAGE0::
      526      526        %"%U1" %Can't get memory for DELTA overlay DEFs records
      527      527        */
      528      528        /*E* ERROR: DDE-E$DD_BADNODE
      529      529        MESSAGE0::
      530      530        %"%U1" %Can't find specified overlay node
      531      531        */
      532      532        /*E* ERROR: DDE-E$DD_NOTROOT
      533      533        MESSAGE0::
      534      534        %"%U1" %Root node can't be M$OLAYed
      535      535        */
      536      536        /*E* ERROR: DDE-E$DD_PATCHONLY
      537      537        MESSAGE0::
      538      538        %"%U1" %PATCH mode only directive
      539      539        */
      540      540        /*E* ERROR: DDE-E$DD_BADRUMEXP
      541      541        MESSAGE0::
      542      542        %"%U1" %Expression invalid in RUM mode
      543      543        */
      544      544        /*E* ERROR: DDE-E$DD_NOTRUM
      545      545        MESSAGE0::
      546      546        %"%U1" %You are not in RUM mode
      547      547        */
      548      548        /*E* ERROR: DDE-E$DD_NOTDELTA
      549      549        MESSAGE0::
      550      550        %"%U1" %DELTA mode only directive
      551      551        */
      552      552        /*E* ERROR: DDE-E$DD_NONAME
      553      553        MESSAGE0::
      554      554        %"%U1" %Can't RUM a fid without a name
      555      555        */
PL6.E3A0      #001=DDE$ERRS File=DDE$ERRS.:E05TSI                                TUE 07/29/97 13:57 Page:16
      556      556        /*E* ERROR: DDE-E$DD_NOPNUPD
      557      557        MESSAGE0::
      558      558        %"%U1" %RUM fid open for input only
      559      559        */
      560      560        /*E* ERROR: DDE-E$DD_IGLRFID
      561      561        MESSAGE0::
      562      562        %"%U1" %Specified RUM fid is not an RU
      563      563        */
      564      564        /*E* ERROR: DDE-E$DD_NOMEM
      565      565        MESSAGE0::
      566      566        %"%U1" %Unable to allocate memory
      567      567        */
      568      568        /*E* ERROR: DDE-E$DD_WARNROS
      569      569        MESSAGE0::
      570      570        %"%U1" %Can't modify DCBs, no read-only-segment
      571      571        */
      572      572        /*E* ERROR: DDE-E$DD_NOTYOURS
      573      573        MESSAGE0::
      574      574        %"%U1" %Requested address is not within Run Unit
      575      575        */
      576      576        /*E* ERROR: DDE-E$DD_NOPROGREC
      577      577        MESSAGE0::
      578      578        %"%U1" %Unable to access Run Unit program record
      579      579        */
      580      580        /*E* ERROR: DDE-E$DD_NOROSREC
      581      581        MESSAGE0::
      582      582        %"%U1" %Unable to access Run Unit read-only-segment record
      583      583        */
      584      584        /*E* ERROR: DDE-E$DD_NOHEADREC
      585      585        MESSAGE0::
      586      586        %"%U1" %Unable to access Run Unit HEAD record
      587      587        */
      588      588        /*E* ERROR: DDE-E$DD_NULLCMD
      589      589        MESSAGE0::
      590      590        %"%U1" %Null directives don't make sense here
      591      591        */
      592      592        /*E* ERROR: DDE-E$DD_SCAN1_CONT
PL6.E3A0      #001=DDE$ERRS File=DDE$ERRS.:E05TSI                                TUE 07/29/97 13:57 Page:17
      593      593        MESSAGE0::
      594      594        %"%U1" %Continued directives don't make sense here
      595      595        */
      596      596        /*E* ERROR: DDE-E$DD_CANTDO
      597      597        MESSAGE0::
      598      598        %"%U1" %Can't DO - stored directive ID doesn't exist
      599      599        */
      600      600        /*E* ERROR: DDE-E$DD_BADPS1
      601      601        MESSAGE0::
      602      602        %"%U1" %Fault while accessing CMD from M$ALIB
      603      603        */
      604      604        /*E* ERROR: DDE-E$DD_BADPS2
      605      605        MESSAGE0::
      606      606        %"%U1" %Fault while accessing RESULTS from M$ALIB
      607      607        */
      608      608        /*E* ERROR: DDE-E$DD_BADEDITKEY
      609      609        MESSAGE0::
      610      610        %"%U1" %That's no EDIT key
      611      611        */
      612      612        /*E* ERROR: DDE-E$DD_ANLZ_NOBUFF
      613      613        MESSAGE0::
      614      614        %"%U1" %Can't find Recovery Buffer
      615      615        */
      616      616        /*E* ERROR: DDE-E$DD_ANLZ_NODIR
      617      617        MESSAGE0::
      618      618        %"%U1" %Can't find User Directory
      619      619        */
      620      620        /*E* ERROR: DDE-E$DD_ANLZ_NOHJIT
      621      621        MESSAGE0::
      622      622        %"%U1" %Can't find HJIT - during USE
      623      623        */
      624      624        /*E* ERROR: DDE-E$DD_ANLZ_NOJIT
      625      625        MESSAGE0::
      626      626        %"%U1" %Can't find JIT - during USE
      627      627        */
      628      628        /*E* ERROR: DDE-E$DD_ANLZ_NOUSER
      629      629        MESSAGE0::
PL6.E3A0      #001=DDE$ERRS File=DDE$ERRS.:E05TSI                                TUE 07/29/97 13:57 Page:18
      630      630        %"%U1" %No such user or user not dumped
      631      631        */
      632      632        /*E* ERROR: DDE-E$DD_ANLZ_PAGENOTDUMPED
      633      633        MESSAGE0::
      634      634        %"%U1" %Address references page which was not dumped
      635      635        */
      636      636        /*E* ERROR: DDE-E$DD_ANLZ_KILLED
      637      637        MESSAGE0::
      638      638        %"%U1" %ANLZ KILLED
      639      639        */
      640      640        /*E* ERROR: DDE-E$DD_ANLZ_NOMEM
      641      641        MESSAGE0::
      642      642        %"%U1" %Can't get memory for ANLZ
      643      643        */
      644      644        /*E* ERROR: DDE-E$DD_ANLZ_NOPAGE
      645      645        MESSAGE0::
      646      646        %"%U1" %Can't get a page from the dump file that should be there
      647      647        */
      648      648        /*E* ERROR: DDE-E$DD_NO@
      649      649        MESSAGE0::
      650      650        %"%U1" %'@' patch space not defined in your program
      651      651        */
      652      652        /*E* ERROR: DDE-E$DD_NO#
      653      653        MESSAGE0::
      654      654        %"%U1" %'#' patch space not defined in your program
      655      655        */
      656      656        /*E* ERROR: DDE-E$DD_NOMORE@
      657      657        MESSAGE0::
      658      658        %"%U1" %No more '@' patch space left
      659      659        */
      660      660        /*E* ERROR: DDE-E$DD_NOMORE#
      661      661        MESSAGE0::
      662      662        %"%U1" %No more '#' patch space left
      663      663        */
      664      664        /*E* ERROR: DDE-E$DD_CANTPUTINANLZ
      665      665        MESSAGE0::
      666      666        %"%U1" %You may not store into a dump file
PL6.E3A0      #001=DDE$ERRS File=DDE$ERRS.:E05TSI                                TUE 07/29/97 13:57 Page:19
      667      667        */
      668      668        /*E* ERROR: DDE-E$DD_NOTANLZ
      669      669        MESSAGE0::
      670      670        %"%U1" %You are not in ANLZ mode
      671      671        */
      672      672        /*E* ERROR: DDE-E$DD_NOTATTM
      673      673        MESSAGE0::
      674      674        %"%U1" %Only the closed form of MODIFY is attachable
      675      675        */
      676      676        /*E* ERROR: DDE-E$DD_CANTEXIT
      677      677        MESSAGE0::
      678      678        %"%U1" %Can't EXIT, entry was not via M$LINK
      679      679        */
      680      680        /*E* ERROR: DDE-E$DD_BADAUTO
      681      681        MESSAGE0::
      682      682        %"%U1" %This auto stack is incorrectly structured
      683      683        */
      684      684        /*E* ERROR: DDE-E$DD_AUTOBASE
      685      685        MESSAGE0::
      686      686        That's no AUTO stack
      687      687        MESSAGE1::
      688      688        because its base is incorrectly structured.
      689      689        */
      690      690        /*E* ERROR: DDE-E$DD_NOTEDIT
      691      691        MESSAGE0::
      692      692        %"%U1" %Your READ fid,key is not to an EDIT compatible file
      693      693        */
      694      694        /*E* ERROR: DDE-E$DD_NOTFILE
      695      695        MESSAGE0::
      696      696        %"%U1" %Your READ fid,start is not to a file
      697      697        */
      698      698        /*E* ERROR: DDE-E$DD_NOPNDO
      699      699        MESSAGE0::
      700      700        %"%U1" %Default open to M$DO failed - writing on 'ME'
      701      701        */
      702      702        /*E* ERROR: DDE-E$DD_READ_BANG
      703      703        MESSAGE0::
PL6.E3A0      #001=DDE$ERRS File=DDE$ERRS.:E05TSI                                TUE 07/29/97 13:57 Page:20
      704      704        %"%U1" %DELTA says - Command stream exhausted, I quit.
      705      705        */
      706      706        /*E* ERROR: DDE-E$DD_ANLZ_BADUSE
      707      707        MESSAGE0::
      708      708        %"%U1" %ANLZ can't do that USE yet
      709      709        */
      710      710        /*E* ERROR: DDE-E$DD_NO_USE
      711      711        MESSAGE0::
      712      712        %"%U1" %Current USE environment is bad
      713      713        */
      714      714        /*E* ERROR: DDE-E$DD_NO_ALTVAR
      715      715        MESSAGE0::
      716      716        %"%U1" %Can't establish specified ALTVAR schema
      717      717        */
      718      718        /*E* ERROR: DDE-E$DD_BADDEC
      719      719        MESSAGE0::
      720      720        %"%U1" %Bad decimal number
      721      721        */
      722      722        /*E* ERROR: DDE-E$DD_BAD_COBOL_CALL
      723      723        MESSAGE0::
      724      724        %"%U1" %Bad shared library call in COBOL module
      725      725        */
      726      726        /*E* ERROR: DDE-E$DD_BAD_SHARED_CALL
      727      727        MESSAGE0::
      728      728        %"%U1" %Unknown format in call to shared library
      729      729        */
      730      730        /*E* ERROR: DDE-E$DD_SHARED_NO_SCHEMA
      731      731        MESSAGE0::
      732      732        %"%U1" %Must have schema to decode call to shared library
      733      733        */
      734      734        /*E* ERROR: DDE-E$DD_TC_XDPREFIX
      735      735        MESSAGE0::
      736      736        %"%U1" %XDELTA trace calls requires prefix
      737      737        */
      738      738        /*E* ERROR: DDE-E$DD_HELP_XDELTA
      739      739        MESSAGE0::
      740      740        HELP is not available in XDELTA
PL6.E3A0      #001=DDE$ERRS File=DDE$ERRS.:E05TSI                                TUE 07/29/97 13:57 Page:21
      741      741        */
      742      742        /*E* ERROR: DDE-E$DD_NO_HELP
      743      743        MESSAGE0::
      744      744        I can't figure out what you want me to help you with!
      745      745        DESCRIPTION: This message can have no higher severity than 0.
      746      746        */
      747      747        /*E* ERROR: DDE-E$DD_NO_MORE_HELP
      748      748        MESSAGE0::
      749      749        No further HELP is available
      750      750        DESCRIPTION: This message can have no higher severity than 0.
      751      751        */
      752      752        /*E* ERROR: DDE-E$DD_BADPS3
      753      753        MESSAGE0::
      754      754        Fault while accessing V area from M$ALIB
      755      755        MESSAGE1::
      756      756        DELTA trapped while accessing FPT_ALIB.V. Your
      757      757        FPT_ALIB.V_ is either NIL, or poorly formed.
      758      758        */
      759      759        /*E* ERROR: DDE-E$DD_ZEROOPS
      760      760        MESSAGE0::
      761      761        %"%U1" %Inhibit, Tag, or PR modification not allowed with ZERO op code
      762      762        */
      763      763        /*E* ERROR: DDE-E$DD_CANT_SAD
      764      764        MESSAGE0::
      765      765        You don't have the proper PRIV for SAD
      766      766        */
      767      767        /*E* ERROR: DDE-E$DD_BAD_SAD
      768      768        MESSAGE0::
      769      769        Bad LS specified for SAD
      770      770        MESSAGE1::
      771      771        The M$SAD PMME returned a BAD SEGID error code.
      772      772        */
      773      773        /*E* ERROR: DDE-E$DD_NOTDCB
      774      774        MESSAGE0::
      775      775        Not a DCB name or number
      776      776        */
      777      777        /*E* ERROR: DDE-E$DD_NOSAD
PL6.E3A0      #001=DDE$ERRS File=DDE$ERRS.:E05TSI                                TUE 07/29/97 13:57 Page:22
      778      778        MESSAGE0::
      779      779        $SAD not valid if SAD command not issued
      780      780        */
      781      781        /*E* ERROR: DDE-E$DD_NOTANLZ_FILE
      782      782        MESSAGE0::
      783      783        That pointer/location valid only for ANLZ dump-file mode.
      784      784        */
      785      785        /*E* ERROR: DDE-E$DD_NODCB
      786      786        MESSAGE0::
      787      787        No such DCB
      788      788        MESSAGE1::
      789      789        The DCB number is greater than B$ROSEG.NUMDCBS
      790      790        */
      791      791        /*E* ERROR: DDE-E$DD_DCBNIL
      792      792        MESSAGE0::
      793      793        That DCB slot is empty
      794      794        MESSAGE1::
      795      795        The DCB pointer for that DCB is NIL.
      796      796        */
      797      797        /*E* ERROR: DDE-E$DD_PROTECT
      798      798        MESSAGE0::
      799      799        %"%U1" %Can't store - PROTECT mode set
      800      800        */
      801      801        /*E* ERROR: DDE-E$DD_NOTALIB
      802      802        MESSAGE0::
      803      803        Entry to DELTA not via M$ALIB
      804      804        */
      805      805        /*E* ERROR: DDE-E$DD_NOTIMPLARRAY
      806      806        MESSAGE0::
      807      807        %"%U1" %unimplemented array type
      808      808        MESSAGE1::
      809      809        Virtual arrays are not supported by DELTA
      810      810        */
      811      811        /*E* ERROR: DDE-E$DD_WRONG#SUBS
      812      812        MESSAGE0::
      813      813        %"%U1" %wrong number of subscripts - correct number = %U2
      814      814        MESSAGE1::
PL6.E3A0      #001=DDE$ERRS File=DDE$ERRS.:E05TSI                                TUE 07/29/97 13:57 Page:23
      815      815        Number of subscripts does not match this variables dimensions
      816      816        */
      817      817        /*E* ERROR: DDE-E$DD_BAD_SUBREF_2BG
      818      818        MESSAGE0::
      819      819        Bad subscript
      820      820        MESSAGE1::
      821      821        Constant subscript values cannot exceed 262143
      822      822        */
      823      823        /*E* ERROR: DDE-E$DD_BAD_SUBREF_EXP
      824      824        MESSAGE0::
      825      825        Bad subscript
      826      826        MESSAGE1::
      827      827        Subscripts may not contain expressions
      828      828        */
      829      829        /*E* ERROR: DDE-E$DD_BAD_SUBREF_RNGE
      830      830        MESSAGE0::
      831      831        Bad subscript
      832      832        MESSAGE1::
      833      833        Range specification not allowed for subscript variable
      834      834        */
      835      835        /*E* ERROR: DDE-E$DD_BAD_SUBREF_DST
      836      836        MESSAGE0::
      837      837        %"%U1" %bad subscript
      838      838        MESSAGE1::
      839      839        Invalid data type for subscript variable
      840      840        */
      841      841        /*E* ERROR: DDE-E$DD_NORBIRTH
      842      842        MESSAGE0::
      843      843        Warning: RU has no BIRTH record
      844      844        MESSAGE1::
      845      845        RUM will not be able to maintain a record of the last
      846      846        time this Run Unit was RUMed, and the number of times
      847      847        this Run Unit was RUMed.
      848      848        */
      849      849        /*E* ERROR: DDE-E$DD_NOWBIRTH
      850      850        MESSAGE0::
      851      851        Unable to update Run Unit BIRTH record
PL6.E3A0      #001=DDE$ERRS File=DDE$ERRS.:E05TSI                                TUE 07/29/97 13:57 Page:24
      852      852        */
      853      853        /*E* ERROR: DDE-E$DD_BAD_SUBREF_SCAL
      854      854        MESSAGE0::
      855      855        bad subscript
      856      856        MESSAGE1::
      857      857        Subscript variables must not be scaled
      858      858        */
      859      859        /*E* ERROR: DDE-E$DD_CANT_STEP_SHARED
      860      860        MESSAGE0::
      861      861        Can't STEP in shared library
      862      862        MESSAGE1::
      863      863        The current IC is in the shared library. Since DELTA does
      864      864        not have write access to shared code, it can not step within
      865      865        shared code. Set a breakpoint in your program, and continue
      866      866        stepping from there.
      867      867        */
      868      868        /*E* ERROR: DDE-E$DD_CANT_TRACE_SHARED
      869      869        MESSAGE0::
      870      870        Can't TRACE in shared library
      871      871        MESSAGE1::
      872      872        The current IC is in the shared library. Since DELTA does
      873      873        not have write access to shared code, it can not continue
      874      874        tracing from this point. You must TRACE OFF, set a breakpoint
      875      875        in your program, and TRACE ON to continue tracing from there.
      876      876        */
      877      877        /*E* ERROR: DDE-E$DD_COBOL_WARNING
      878      878        MESSAGE0::
      879      879         *** WARNING ***  Do not STEP or TRACE in the COBOL sections of this run-unit. You h
               879        ave been warned.
      880      880        MESSAGE1::
      881      881        Due to the non-standard calling sequences used by this version
      882      882        of COBOL, STEP and TRACE can not be supported. Any attempted
      883      883        use will cause strange and undesired results.
      884      884        */
      885      885        /*E* ERROR: DDE-E$DD_FORTREAL
      886      886        MESSAGE0::
      887      887        FORTRAN floating point constant out of range
PL6.E3A0      #001=DDE$ERRS File=DDE$ERRS.:E05TSI                                TUE 07/29/97 13:57 Page:25
      888      888        MESSAGE1::
      889      889        The specified IF/LET floating point constant could not be
      890      890        converted by the common library module XPN_7LSPTOD. This
      891      891        is caused by the absolute value of the specified exponent
      892      892        being too large.
      893      893        */
      894      894        /*E* ERROR: DDE-E$DD_DB_EXIT
      895      895        MESSAGE0::
      896      896        AT M$DRTN
      897      897        DESCRIPTION: Used for debugging DELTA. This message is output
      898      898                     when DB@EXIT is set, and DDA$DELTA is at the M$DRTN.
      899      899        */
      900      900        /*E* ERROR: DDE-E$DD_RUM_WHAT
      901      901        MESSAGE0::
      902      902        RUM what?
      903      903        DESCRIPTION: This message is output by DDA$DELTA when an IBEX RUM
      904      904                     is passed without a fid.
      905      905        */
      906      906        /*E* ERROR: DDE-E$DD_RUMONLY
      907      907        MESSAGE0::
      908      908        RUM-mode only symbol
      909      909        MESSAGE1::
      910      910        $SA and $PRIV are only valid in RUM mode
      911      911        */
      912      912        /*E* ERROR: DDE-E$DD_NOWHEAD
      913      913        MESSAGE0::
      914      914        Unable to update Run Unit HEAD record
      915      915        MESSAGE1::
      916      916        DELTA was unable to re-write the Run Unit HEAD record.
      917      917        */
      918      918        /*E* ERROR: DDE-E$DD_NOWROS
      919      919        MESSAGE0::
      920      920        Unable to update Run Unit DCB (ROS record)
      921      921        MESSAGE1::
      922      922        DELTA was unable to re-write the ROS record(s) that
      923      923        contain the DCB that was modified by RUM.
      924      924        */
PL6.E3A0      #001=DDE$ERRS File=DDE$ERRS.:E05TSI                                TUE 07/29/97 13:57 Page:26
      925      925        /*E* ERROR: DDE-E$DD_UTSERR
      926      926        MESSAGE0::
      927      927        RUM abnormally terminated - UTS violation
      928      928        MESSAGE1::
      929      929        The creation UTS must be specified on the RUM command
      930      930        invocation if the FID being RUMed resides in :SYS account,
      931      931        and the FID is open for updating, or the UTS was specified
      932      932        and it did not match the creation UTS.
      933      933        */
      934      934        /*E* ERROR: DDE-E$DD_CANTLETOVERP
      935      935        MESSAGE0::
      936      936        Can't LET item with overpunched sign
      937      937        */
      938      938        /*E* ERROR: DDE-E$DD_VAL2BIG
      939      939        MESSAGE0::
      940      940        Value too large
      941      941        */
      942      942        /*E* ERROR: DDE-E$DD_WHEN_NOTIS_OR_DS
      943      943        MESSAGE0::
      944      944        WHEN variable must be in static memory or in a dynamic segment.
      945      945        */
      946      946        /*E* ERROR: DDE-E$DD_DCBOUND
      947      947        MESSAGE0::
      948      948        Referenced item is out of DCB bounds
      949      949        */
      950      950        /*E* ERROR: DDE-E$DD_CANTIFOVER
      951      951        MESSAGE0::
      952      952        Can't test value of item with overpunched sign
      953      953        */
      954      954        /*E* ERROR: DDE-E$DD_EXP_MODE_ERR
      955      955        MESSAGE0::
      956      956        Expression too complex for RUM or ANLZ-file mode
      957      957        MESSAGE1::
      958      958        RUM or ANLZ-file mode does not allow variable or
      959      959        address specification of a pointer nor do they allow
      960      960        subscripting with variables. The only pointer specification
      961      961        allowed is with DELTA special pointers like $JIT, $DCBn,
PL6.E3A0      #001=DDE$ERRS File=DDE$ERRS.:E05TSI                                TUE 07/29/97 13:57 Page:27
      962      962        and $LSn.
      963      963        */
      964      964        /*E* ERROR: DDE-E$DD_BADCMD_RUM
      965      965        MESSAGE0::
      966      966        Command not valid in RUM mode
      967      967        */
      968      968        /*E* ERROR: DDE-E$DD_NIHEAD
      969      969        MESSAGE0::
      970      970        Referenced item is out of HEAD record bounds
      971      971        */
      972      972        /*E* ERROR: DDE-E$DD_CANTAUTOMODE
      973      973        MESSAGE0::
      974      974        Can't reference AUTO type variables in RUM or ANLZ mode
      975      975        */
      976      976        /*E* ERROR: DDE-E$DD_BADSTACK
      977      977        MESSAGE0::
      978      978        Can't reference AUTO type variables, your stack is malformed
      979      979        */
      980      980        /*E* ERROR: DDE-E$DD_AUTONOTACTIVE
      981      981        MESSAGE0::
      982      982        AUTO variable not active
      983      983        MESSAGE1::
      984      984        Some auto variable in that request is not
      985      985        in any of the currently active stack frames
      986      986        */
      987      987        /*E* ERROR: DDE-E$DD_CANTGOALIB
      988      988        MESSAGE0::
      989      989        Can't GO position when entry was via M$ALIB
      990      990        MESSAGE1::
      991      991        When DELTA is entered due to an M$ALIB call,
      992      992        it must return to the M$ALIB call. The
      993      993        position specified on the GO directive can
      994      994        not be honored, so it is not allowed here.
      995      995        MESSAGE2::
      996      996        Use GO or ALIB RET to go to the normal return
      997      997        of the M$ALIB call, use ALIB ALT to effect
      998      998        an ALTRETURN.
PL6.E3A0      #001=DDE$ERRS File=DDE$ERRS.:E05TSI                                TUE 07/29/97 13:57 Page:28
      999      999        */
     1000     1000        /*E* ERROR: DDE-E$DD_CANTSTEPALIB
     1001     1001        MESSAGE0::
     1002     1002        Can't STEP, program not running under control of DELTA
     1003     1003        MESSAGE1::
     1004     1004        The program must be started under DELTA, or DELTA
     1005     1005        must be associated after CTRL-Y. STEP is not legal
     1006     1006        when DELTA is associated by M$ALIB.
     1007     1007        */
     1008     1008        /*E* ERROR: DDE-E$DD_CANTSTEPSHARED
     1009     1009        MESSAGE0::
     1010     1010        Can't STEP when entry was via M$ALIB from an ASL,
     1011     1011        shared library, or execute-only run-unit.
     1012     1012        */
     1013     1013        /*E* ERROR: DDE-E$DD_CANTKEEPASL
     1014     1014        MESSAGE0::
     1015     1015        KEEP is not legal when M$ALIB was called from an ASL
     1016     1016        */
     1017     1017        /*E* ERROR: DDE-E$DD_CANTTTSHARED
     1018     1018        MESSAGE0::
     1019     1019        Can't TRACE TRANSFER from within a shared library, say TRACE OFF
     1020     1020        MESSAGE1::
     1021     1021        You hit BREAK or had a fault while the IC was in
     1022     1022        the shared library. DELTA can't trace transfer in
     1023     1023        shared code. You must turn trace off, and set a breakpoint
     1024     1024        in the unshared part of your run-unit with a TRACE ON
     1025     1025        attachment if you wish to continue tracing.
     1026     1026        */
     1027     1027        /*E* ERROR: DDE-E$DD_CANTTTALIB
     1028     1028        MESSAGE0::
     1029     1029        Can't TRACE TRANSFER out of here, say TRACE OFF
     1030     1030        MESSAGE1::
     1031     1031        Entry to DELTA was via M$ALIB from a shared library,
     1032     1032        an ASL, or an execute-only run-unit. DELTA does not
     1033     1033        have write access to procedure in these cases, so
     1034     1034        tracing must be turned off before execution can proceed.
     1035     1035        */
PL6.E3A0      #001=DDE$ERRS File=DDE$ERRS.:E05TSI                                TUE 07/29/97 13:57 Page:29
     1036     1036        /*E* ERROR: DDE-E$DD_BADSHARESTACK
     1037     1037        MESSAGE0::
     1038     1038        Can't get return address from AUTO stack, can't continue STEP or TRACE
     1039     1039        */
     1040     1040        /*E* ERROR: DDE-E$DD_RUMSKIP
     1041     1041        MESSAGE0::
     1042     1042        SKIPPED while RUMing system processors
     1043     1043        MESSAGE1::
     1044     1044        The preceeding directive was skipped by DELTA while RUMing
     1045     1045        the system processors via M$ALIB from GHOST1. The next valid
     1046     1046        RUM command will reset skipping mode. Only RUM, READ, END,
     1047     1047        QUIT, GO, or ALIB directives are honored while in skipping
     1048     1048        mode.
     1049     1049        */
     1050     1050        /*E* ERROR: DDE-E$DD_UTSFIELD
     1051     1051        MESSAGE0::
     1052     1052        %"%U1" %field of UTS is too big
     1053     1053        MESSAGE1::
     1054     1054        The specified value is too big to fit into its intended
     1055     1055        DATE/TIME field.
     1056     1056        */
     1057     1057        /*E* ERROR: DDE-E$DD_CANT_TR_ONCALLS
     1058     1058        MESSAGE0::
     1059     1059        Can't TRACE and have ONCALLS set at the same time.
     1060     1060        MESSAGE1::
     1061     1061        You must KILL ONCALLS, then re-issue the TRACE directive.
     1062     1062        */
     1063     1063        /*E* ERROR: DDE-E$DD_CANT_ONCALLS_TR
     1064     1064        MESSAGE0::
     1065     1065        Can't ONCALLS and have TRACE set at the same time.
     1066     1066        MESSAGE1::
     1067     1067        You must KILL TRACE, then re-issue the ONCALLS directive.
     1068     1068        */
     1069     1069        /*E* ERROR: DDE-E$DD_EXPRNOALLOW
     1070     1070        MESSAGE0::
     1071     1071        Expression not allowed on array reference.
     1072     1072        MESSAGE1::
PL6.E3A0      #001=DDE$ERRS File=DDE$ERRS.:E05TSI                                TUE 07/29/97 13:57 Page:30
     1073     1073        You can't use address expression modification for a
     1074     1074        general array reference with the DISPLAY directive, use
     1075     1075        MODIFY instead.
     1076     1076        */
     1077     1077        /*E* ERROR: DDE-E$DD_NOTINRUM
     1078     1078        MESSAGE0::
     1079     1079        That directive isn't allowed in RUM mode.
     1080     1080        */
     1081     1081        /*E* ERROR: DDE-E$DD_ODDBASE
     1082     1082        MESSAGE0::
     1083     1083        AUTO stack must be on an even word boundary.
     1084     1084        */
     1085     1085        /*E* ERROR: DDE-E$DD_CANTDO_SELF
     1086     1086        MESSAGE0::
     1087     1087        Can't DO - stored directive ID is object of itself.
     1088     1088        */
     1089     1089        /*E* ERROR: DDE-E$DD_NOSSRUM
     1090     1090        MESSAGE0::
     1091     1091        That distinguished name not allowed in RUM mode
     1092     1092        MESSAGE1::
     1093     1093        RUM mode does not allow the following distinguished names:
     1094     1094        $A, $AU, $AL, $Q, $QU, $QL, $E, $EA, $EAQ, $IND, $X0 to
     1095     1095        $X7, and $IC.
     1096     1096        */
     1097     1097
     1098     1098        /*E* ERROR: DDE-E$DD_IF_TRAP
     1099     1099        MESSAGE0::
     1100     1100        Trap during IF processing
     1101     1101        MESSAGE1::
     1102     1102        True value assumed.
     1103     1103        */
     1104     1104        /*E* ERROR: DDE-E$DD_SUBNOTVALID
     1105     1105        MESSAGE0::
     1106     1106        Subscript not valid decimal
     1107     1107        MESSAGE1::
     1108     1108        Value of variable used for subscript is not a legal
     1109     1109        decimal number.
PL6.E3A0      #001=DDE$ERRS File=DDE$ERRS.:E05TSI                                TUE 07/29/97 13:57 Page:31
     1110     1110        */
     1111     1111        /*E* ERROR: DDE-E$DD_RUMBUFS
     1112     1112        MESSAGE0::
     1113     1113        %"%U1" %invalid number of BUFFERs specified.
     1114     1114        MESSAGE1::
     1115     1115        The value of "n" for the BUFFERS=n RUM option must
     1116     1116        be greater than 0 and less than or equal to 10.
     1117     1117        */
     1118     1118        /*E* ERROR: DDE-E$DD_NODEFS_NOTRACE
     1119     1119        MESSAGE0::
     1120     1120        Can't TRACE - no ENTDEFS record
     1121     1121        MESSAGE1::
     1122     1122        Run unit contains no ENTDEFS record so DELTA can't do any
     1123     1123        TRACEing
     1124     1124        */
     1125     1125        /*E* ERROR: DDE-E$DD_CANTACCESS
     1126     1126        MESSAGE0::
     1127     1127        DELTA can't access this location
     1128     1128        */
     1129     1129        /*E* ERROR: DDE-E$DD_CANTALIB
     1130     1130        MESSAGE0::
     1131     1131        Invalid ALIB command - entry to DELTA not via M$ALIB
     1132     1132        */
     1133     1133        /*E* ERROR: DDE-E$DD_CANT_UPDATE_RU
     1134     1134        MESSAGE0::
     1135     1135        Unable to update Run Unit record
     1136     1136        */
     1137     1137        /*E* ERROR: DDE-E$DD_ITEM_TRUNCATED
     1138     1138        MESSAGE0::
     1139     1139        Item truncated to 144 bits
     1140     1140        */
     1141     1141        /*E* ERROR: DDE-E$DD_DBOOT_NOTALLOWED
     1142     1142        MESSAGE0::
     1143     1143        DBOOT directive not allowed here
     1144     1144        MESSAGE1::
     1145     1145        DBOOT directive not allowed as multiple command unless
     1146     1146        it is the last one
PL6.E3A0      #001=DDE$ERRS File=DDE$ERRS.:E05TSI                                TUE 07/29/97 13:57 Page:32
     1147     1147        */
     1148     1148        /*E* ERROR: DDE-E$DD_MINI_NOTALLOWED
     1149     1149        MESSAGE0::
     1150     1150        MINI directive not allowed here
     1151     1151        MESSAGE1::
     1152     1152        MINI directive not allowed as multiple command unless
     1153     1153        it is the last one
     1154     1154        */
     1155     1155        /*E* ERROR: DDE-E$DD_STEP_NOTALLOWED
     1156     1156        MESSAGE0::
     1157     1157        STEP directive not allowed here
     1158     1158        MESSAGE1::
     1159     1159        STEP directive not allowed as multiple command unless
     1160     1160        it is the last one
     1161     1161        */
     1162     1162        /*E* ERROR: DDE-E$DD_TBOOT_NOTALLOWED
     1163     1163        MESSAGE0::
     1164     1164        TBOOT directive not allowed here
     1165     1165        MESSAGE1::
     1166     1166        TBOOT directive not allowed as multiple command unless
     1167     1167        it is the last one
     1168     1168        */
     1169     1169        /*E* ERROR: DDE-E$DD_XEQ_NOTALLOWED
     1170     1170        MESSAGE0::
     1171     1171        XEQ directive not allowed here
     1172     1172        MESSAGE1::
     1173     1173        XEQ directive not allowed as multiple command unless
     1174     1174        it is the last one
     1175     1175        */
     1176     1176        /*E* ERROR: DDE-E$DD_CANTXEQALIB
     1177     1177        MESSAGE0::
     1178     1178        Can't XEQ when entry was via M$ALIB
     1179     1179        MESSAGE1::
     1180     1180        XEQ is not legal when DELTA is associated by M$ALIB
     1181     1181        */
     1182     1182        /*E* ERROR: DDE-E$DD_NO_STORED_COMMANDS
     1183     1183        MESSAGE0::
PL6.E3A0      #001=DDE$ERRS File=DDE$ERRS.:E05TSI                                TUE 07/29/97 13:57 Page:33
     1184     1184        No such stored commands
     1185     1185        MESSAGE1::
     1186     1186        There are no stored commands in the range specified
     1187     1187        */
     1188     1188        /*E* ERROR: DDE-E$DD_NO_SUCH_BREAKPOINTS
     1189     1189        MESSAGE0::
     1190     1190        No such breakpoints
     1191     1191        MESSAGE1::
     1192     1192        There are no breakpoints in the range specified
     1193     1193        */
     1194     1194        /*E* ERROR: DDE-E$DD_SIZE_NOT_WORD
     1195     1195        MESSAGE0::
     1196     1196        Z format not allowed on non word size items
     1197     1197        */
     1198     1198        /*E* ERROR: DDE-E$DD_NOTANLZMODE
     1199     1199        MESSAGE0::
     1200     1200        Directive not allowed in ANLZ mode
     1201     1201        */
     1202     1202        /*E* ERROR: DDE-E$DD_PACKDEC_TRUNCATED
     1203     1203        MESSAGE0::
     1204     1204        Packed decimal truncated
     1205     1205        */
     1206     1206        /*E* ERROR: DDE-E$DD_UNPACKDEC_TRUNCATED
     1207     1207        MESSAGE0::
     1208     1208        Unpacked decimal truncated
     1209     1209        */
     1210     1210        /*E* ERROR: DDE-E$DD_INVALID_SIZE
     1211     1211        MESSAGE0::
     1212     1212        Invalid size for character string
     1213     1213        */
     1214     1214        /*E* ERROR: DDE-E$DD_NOTBATCH
     1215     1215        MESSAGE0::
     1216     1216        Command not allowed in BATCH
     1217     1217        */
     1218     1218        /*E* ERROR: DDE-E$DD_ILLEGAL_ATT#
     1219     1219        MESSAGE0::
     1220     1220        Invalid attachment number specified
PL6.E3A0      #001=DDE$ERRS File=DDE$ERRS.:E05TSI                                TUE 07/29/97 13:57 Page:34
     1221     1221        */
     1222     1222        /*E* ERROR: DDE-E$DD_CANT_UPDATE
     1223     1223        MESSAGE0::
     1224     1224        Can't UPDATE - stored directive doesn't exist - ID = %U2
     1225     1225        */
     1226     1226        /*E* ERROR: DDE-E$DD_ACT_IGNORED_LF
     1227     1227        MESSAGE0::
     1228     1228        Invalid activation character ignored - line feed assumed
     1229     1229        */
     1230     1230        /*E* ERROR: DDE-E$DD_ACT_IGNORED_CR
     1231     1231        MESSAGE0::
     1232     1232        Invalid activation character ignored - carriage return assumed
     1233     1233        */
     1234     1234        /*E* ERROR: DDE-E$DD_SCMD_GREATER256
     1235     1235        MESSAGE0::
     1236     1236        Stored directive > 256 characters long - UPDATE will be done
     1237     1237        an attachment at a time
     1238     1238        */
     1239     1239        /*E* ERROR: DDE-E$DD_NO_ATTACHMENT
     1240     1240        MESSAGE0::
     1241     1241        Specified attachment doesn't exist
     1242     1242        */
     1243     1243        /*E* ERROR: DDE-E$DD_SCMD_RESTORED
     1244     1244        MESSAGE0::
     1245     1245        Stored directive restored to what it was before the
     1246     1246        error in UPDATEing occurred
     1247     1247        */
     1248     1248        /*E* ERROR: DDE-E$DD_SCMD_ERRORED
     1249     1249        MESSAGE0::
     1250     1250        Stored directive errored is:
     1251     1251        */
     1252     1252        /*E* ERROR: DDE-E$DD_TRAP_ADJ_DIM
     1253     1253        MESSAGE0::
     1254     1254        DELTA trapped processing adjustable dimensions
     1255     1255        MESSAGE1::
     1256     1256        Trap occurred while accessing offset or multiplier values
     1257     1257        */
PL6.E3A0      #001=DDE$ERRS File=DDE$ERRS.:E05TSI                                TUE 07/29/97 13:57 Page:35
     1258     1258        /*E* ERROR: DDE-E$DD_TRAP_VIRTUAL
     1259     1259        MESSAGE0::
     1260     1260        DELTA trapped processing virtual arrays
     1261     1261        MESSAGE1::
     1262     1262        Trap occurred while accessing offset or descriptor values
     1263     1263        */
     1264     1264        /*E* ERROR: DDE-E$DD_CANTBRKALIB
     1265     1265        MESSAGE0::
     1266     1266        Can't BREAK when entry was via M$ALIB call.
     1267     1267        */
     1268     1268        /*E* ERROR: DDE-E$DD_CANTGOTRPALIB
     1269     1269        MESSAGE0::
     1270     1270        Can't GOTRAP position when entry was via M$ALIB call.
     1271     1271        */
     1272     1272        /*E* ERROR: DDE-E$DD_CANTGOTSALIB
     1273     1273        MESSAGE0::
     1274     1274        Can't GOTRAPSTEP position when entry was via M$ALIB call.
     1275     1275        */
     1276     1276        /*E* ERROR: DDE-E$DD_CANTGOSTPALIB
     1277     1277        MESSAGE0::
     1278     1278        Can't GOSTEP position when entry was via M$ALIB call.
     1279     1279        */
     1280     1280        /*E* ERROR: DDE-E$DD_CANTXCONALIB
     1281     1281        MESSAGE0::
     1282     1282        Can't XCON when entry was via M$ALIB call.
     1283     1283        */
     1284     1284        /*E* ERROR: DDE-E$DD_CANTEXITALIB
     1285     1285        MESSAGE0::
     1286     1286        Can't EXIT when entry was via M$ALIB call.
     1287     1287        */
     1288     1288        /*E* ERROR: DDE-E$DD_NOTHOSTRU
     1289     1289        MESSAGE0::
     1290     1290        Run unit is not a Host RU.
     1291     1291        */
     1292     1292        /*E* ERROR: DDE-E$DD_NOTFEPRU
     1293     1293        MESSAGE0::
     1294     1294        Run unit is not a FEP RU.
PL6.E3A0      #001=DDE$ERRS File=DDE$ERRS.:E05TSI                                TUE 07/29/97 13:57 Page:36
     1295     1295        */
     1296     1296        /*E* ERROR: DDE-E$DD_BADHEADRECORD
     1297     1297        MESSAGE0::
     1298     1298        Bad head record - use HEAD.X or recompile and relink.
     1299     1299        */
     1300     1300        /*E* ERROR: DDE-E$DD_SYMNOTANLZ
     1301     1301        MESSAGE0::
     1302     1302        Symbol not allowed in ANLZ mode
     1303     1303        */
     1304     1304        /*E* ERROR: DDE-E$DD_NOTCGFID
     1305     1305        MESSAGE0::
     1306     1306        That is not a COMGROUP fid
     1307     1307        MESSAGE1::
     1308     1308        In the command '<station> ON <comgroup>', <comgroup> must be
     1309     1309        a COMGROUP fid
     1310     1310        */
     1311     1311        /*E* ERROR: DDE-E$DD_NODBGDCB
     1312     1312        MESSAGE0::
     1313     1313        Can't get a DCB for debugging
     1314     1314        */
     1315     1315        /*E* ERROR: DDE-E$DD_NOFPRGSWAIT
     1316     1316        MESSAGE0::
     1317     1317        No FPRGs to WAIT for
     1318     1318        */
     1319     1319        /*E* ERROR: DDE-E$DD_NOFPRGSSTOP
     1320     1320        MESSAGE0::
     1321     1321        No FPRGs to STOP
     1322     1322        */
     1323     1323        /*E* ERROR: DDE-E$DD_DIVIDE_CHECK
     1324     1324        MESSAGE0::
     1325     1325        Divide Check
     1326     1326        */
     1327     1327        /*E* ERROR: DDE-E$DD_CMD_ONLY_FPRG
     1328     1328        MESSAGE0::
     1329     1329        Command only allowed for FPRGs
     1330     1330        */
     1331     1331        /*E* ERROR: DDE-E$DD_NOFPRG
PL6.E3A0      #001=DDE$ERRS File=DDE$ERRS.:E05TSI                                TUE 07/29/97 13:57 Page:37
     1332     1332        MESSAGE0::
     1333     1333        That FPRG doesn't exist
     1334     1334        */
     1335     1335        /*E* ERROR: DDE-E$DD_CANTGOTRAPFPRG
     1336     1336        MESSAGE0::
     1337     1337        Can't GOTRAP all when there are FPRGs
     1338     1338        */
     1339     1339        /*E* ERROR: DDE-E$DD_CANTGOSTEPFPRG
     1340     1340        MESSAGE0::
     1341     1341        Can't GOSTEP all when there are FPRGs
     1342     1342        */
     1343     1343        /*E* ERROR: DDE-E$DD_NOFPRGGO
     1344     1344        MESSAGE0::
     1345     1345        No FPRG(s) to GO
     1346     1346        */
     1347     1347        /*E* ERROR: DDE-E$DD_FPRGNOTSTOPPED
     1348     1348        MESSAGE0::
     1349     1349        That FPRG is not stopped
     1350     1350        */
     1351     1351        /*E* ERROR: DDE-E$DD_NODEFS6
     1352     1352        MESSAGE0::
     1353     1353        Can't read alternate schema ENTDEFs record
     1354     1354        */
     1355     1355        /*E* ERROR: DDE-E$DD_NODEFS7
     1356     1356        MESSAGE0::
     1357     1357        Can't read alternate schema SYMDEFs record
     1358     1358        */
     1359     1359        /*E* ERROR: DDE-E$DD_WRONG_SIZE
     1360     1360        MESSAGE0::
     1361     1361        Sizes of new and expected values don't match
     1362     1362        */
     1363     1363        /*E* ERROR: DDE-E$DD_NODEFS_NOONC
     1364     1364        MESSAGE0::
     1365     1365        Can't do ON CALL - no ENTDEFs record
     1366     1366        */
     1367     1367        /*E* ERROR: DDE-E$DD_NOROOMATS
     1368     1368        MESSAGE0::
PL6.E3A0      #001=DDE$ERRS File=DDE$ERRS.:E05TSI                                TUE 07/29/97 13:57 Page:38
     1369     1369        Can't get memory for breakpoints
     1370     1370        */
     1371     1371        /*E* ERROR: DDE-E$DD_TOOMANYBKPNTS
     1372     1372        MESSAGE0::
     1373     1373        Too many breakpoints are set for this Front-end Program -
     1374     1374        only 20 are allowed
     1375     1375        */
     1376     1376        /*E* ERROR: DDE-E$DD_ERR_KILLFPRGAT
     1377     1377        MESSAGE0::
     1378     1378        %"%U1" %Can't kill an FPRG breakpoint - number = %U2
     1379     1379        */
     1380     1380        /*E* ERROR: DDE-E$DD_INVALID_HOSTSUBDIRECTIVE
     1381     1381        MESSAGE0::
     1382     1382        Invalid subdirective for HOST
     1383     1383        */
     1384     1384        /*E* ERROR: DDE-E$DD_INVALID_FEPSUBDIRECTIVE
     1385     1385        MESSAGE0::
     1386     1386        Invalid subdirective for FEP
     1387     1387        */
     1388     1388        /*E* ERROR: DDE-E$DD_BADBKPNTADDR
     1389     1389        MESSAGE0::
     1390     1390        Invalid address specified for the breakpoint
     1391     1391        */
     1392     1392        /*E* ERROR: DDE-E$DD_BAD_CONSTANT
     1393     1393        MESSAGE0::
     1394     1394        %"%U1" %Bad constant
     1395     1395        */
     1396     1396        /*E* ERROR: DDE-E$DD_TOOMANY_DIGITS
     1397     1397        MESSAGE0::
     1398     1398        Too many digits in "%U1" for %U2 bits
     1399     1399        */
     1400     1400        /*E* ERROR: DDE-E$DD_NO_INST
     1401     1401        MESSAGE0::
     1402     1402        %%U1 % Instruction / register combination not found
     1403     1403        */
     1404     1404        /*E* ERROR: DDE-E$DD_BAD_ADDR_MODE
     1405     1405        MESSAGE0::
PL6.E3A0      #001=DDE$ERRS File=DDE$ERRS.:E05TSI                                TUE 07/29/97 13:57 Page:39
     1406     1406        %%U1 % That's not a valid addressing mode for this instruction
     1407     1407        */
     1408     1408        /*E* ERROR: DDE-E$DD_BAD_VALUE
     1409     1409        MESSAGE0::
     1410     1410        %%U1 % Value in operand field exceeds range for this instruction; zero substituted
     1411     1411        */
     1412     1412        /*E* ERROR: DDE-E$DD_UN_IM_INST
     1413     1413        MESSAGE0::
     1414     1414        %%U1 % Unimplemented instruction
     1415     1415        */
     1416     1416        /*E* ERROR: DDE-E$DD_SHORT_PREL_ERROR
     1417     1417        MESSAGE0::
     1418     1418        Displacement underflow / overflow detected; instruction ignored
     1419     1419        */
     1420     1420        /*E* ERROR: DDE-E$DD_BAD_REG
     1421     1421        MESSAGE0::
     1422     1422        %%U1 % Illegal register in operand field
     1423     1423        */
     1424     1424        /*E* ERROR: DDE-E$DD_NO_MASK
     1425     1425        MESSAGE0::
     1426     1426        %%U1 % Expected mask not found
     1427     1427        */
     1428     1428        /*E* ERROR: DDE-E$DD_BAD_MASK
     1429     1429        MESSAGE0::
     1430     1430        %%U1 % Mask field not evaluatable; zero substituted
     1431     1431        */
     1432     1432        /*E* ERROR: DDE-E$DD_MISSING_OPERAND
     1433     1433        MESSAGE0::
     1434     1434        %%U1 % Expected operand in operand field not found; instruction ignored
     1435     1435        */
     1436     1436        /*E* ERROR: DDE-E$DD_SYMNOTHOST
     1437     1437        MESSAGE0::
     1438     1438        Symbol not allowed in Host mode
     1439     1439        */
     1440     1440        /*E* ERROR: DDE-E$DD_BAD_$O
     1441     1441        MESSAGE0::
     1442     1442        $O can not be calculated in this particular case
PL6.E3A0      #001=DDE$ERRS File=DDE$ERRS.:E05TSI                                TUE 07/29/97 13:57 Page:40
     1443     1443        */
     1444     1444        /*E* ERROR: DDE-E$DD_FEPSYM_NOTANLZ
     1445     1445        MESSAGE0::
     1446     1446        FEP symbol not allowed in ANLZ mode
     1447     1447        */
     1448     1448        /*E* ERROR: DDE-E$DD_VREFTOOLONG
     1449     1449        MESSAGE0::
     1450     1450        Variable reference too long for DELTA to handle
     1451     1451        */
     1452     1452        /*E* ERROR: DDE-E$DD_SYMNOTFEP
     1453     1453        MESSAGE0::
     1454     1454        Symbol not allowed in FEP mode
     1455     1455        */
     1456     1456        /*E* ERROR: DDE-E$DD_NOT_INTERPRETIVE
     1457     1457        MESSAGE0::
     1458     1458        Command not allowed for interpretive programs
     1459     1459        */
     1460     1460        /*E* ERROR: DDE-E$DD_CANTFORMAT
     1461     1461        MESSAGE0::
     1462     1462        Data item is too big to be formatted
     1463     1463        */
     1464     1464        /*E* ERROR: DDE-E$DD_WRONFEPFMT
     1465     1465        MESSAGE0::
     1466     1466        Invalid FEP format
     1467     1467        */
     1468     1468        /*E* ERROR: DDE-E$DD_ANLZ_NONODEDIR
     1469     1469        MESSAGE0::
     1470     1470        Can't find Node Directory
     1471     1471        */
     1472     1472        /*E* ERROR: DDE-E$DD_SIZEMISFMT
     1473     1473        MESSAGE0::
     1474     1474        Can't display item of this size in specified format
     1475     1475        */
     1476     1476        /*E* ERROR: DDE-E$DD_NOFPRGS_SHOW
     1477     1477        MESSAGE0::
     1478     1478        No FPRGS to SHOW
     1479     1479        */
PL6.E3A0      #001=DDE$ERRS File=DDE$ERRS.:E05TSI                                TUE 07/29/97 13:57 Page:41
     1480     1480        /*E* ERROR: DDE-E$DD_NOTIMPFPRG
     1481     1481        MESSAGE0::
     1482     1482        Command not implemented for FEP programs
     1483     1483        */
     1484     1484        /*E* ERROR: DDE-E$DD_ADDR_CONFLICT
     1485     1485        MESSAGE0::
     1486     1486        Instruction addressing mode conflict; two different addressing modes specified at th
              1486        e same time
     1487     1487        */
     1488     1488        /*E* ERROR: DDE-E$DD_STEP_ERROR
     1489     1489        MESSAGE0::
     1490     1490        Error occured while trying to STEP in FEP program
     1491     1491        */
     1492     1492        /*E* ERROR: DDE-E$DD_EVAL_ERROR
     1493     1493        MESSAGE0::
     1494     1494        Error occured while trying to evaluate an address in FEP program
     1495     1495        */
     1496     1496        /*E* ERROR: DDE-E$DD_NOFPRGUSE
     1497     1497        MESSAGE0::
     1498     1498        No FPRG(s) to USE
     1499     1499        */
     1500     1500        /*E* ERROR: DDE-E$DD_LARGEINST
     1501     1501        MESSAGE0::
     1502     1502        Instruction too long to be evaluated
     1503     1503        */
     1504     1504        /*E* ERROR: DDE-E$DD_RUMONLY_DIR
     1505     1505        MESSAGE0::
     1506     1506        RUM mode only directive
     1507     1507        */
     1508     1508        /*E* ERROR: DDE-E$DD_FMTCONFLICT
     1509     1509        MESSAGE0::
     1510     1510        Conflict in format specified
     1511     1511        */
     1512     1512        /*E* ERROR: DDE-E$DD_WRONHOSTFMT
     1513     1513        MESSAGE0::
     1514     1514        Invalid HOST format
     1515     1515        */
PL6.E3A0      #001=DDE$ERRS File=DDE$ERRS.:E05TSI                                TUE 07/29/97 13:57 Page:42
     1516     1516        /*E* ERROR: DDE-E$DD_ITEM_TRUNC_256
     1517     1517        MESSAGE0::
     1518     1518        Item truncated to 256 bits
     1519     1519        */
     1520     1520        /*E* ERROR: DDE-E$DD_CHARCALIGN
     1521     1521        MESSAGE0::
     1522     1522        Character variables must be at least CALIGNED
     1523     1523        */
     1524     1524        /*E* ERROR: DDE-E$DD_STATIONINUSE
     1525     1525        MESSAGE0::
     1526     1526        That station is already in use
     1527     1527        */
     1528     1528        /*E* ERROR: DDE-E$DD_NOSUCHSTATION
     1529     1529        MESSAGE0::
     1530     1530        That station doesn't exist
     1531     1531        */
     1532     1532        /*E* ERROR: DDE-E$DD_WHENCOHEN
     1533     1533        MESSAGE0::
     1534     1534        Real Programmers don't use WHENs - you wimp!!
     1535     1535        */
     1536     1536        /*E* ERROR: DDE-E$DD_NOTL6XDELTA
     1537     1537        MESSAGE0::
     1538     1538        User DELTA only directive in FEP XDELTA mode
     1539     1539        */
     1540     1540        /*E* ERROR: DDE-E$DD_TRAP_ELMNTSIZ
     1541     1541        MESSAGE0::
     1542     1542        DELTA trapped processing indirect element size
     1543     1543        */
     1544     1544        /*E* ERROR: DDE-E$DD_NOCHANSELECTED
     1545     1545        MESSAGE0::
     1546     1546        No channel currently selected
     1547     1547        */
     1548     1548        /*E* ERROR: DDE-E$DD_NOTAB
     1549     1549        MESSAGE0::
     1550     1550        TAB (Indirect) doesn't make sense here
     1551     1551        */
     1552     1552        /*E* ERROR: DDE-E$DD_NOCANBREAK
PL6.E3A0      #001=DDE$ERRS File=DDE$ERRS.:E05TSI                                TUE 07/29/97 13:57 Page:43
     1553     1553        MESSAGE0::
     1554     1554        Can't say break while proccessing user event
     1555     1555        */
     1556     1556        /*E* ERROR: DDE-E$DD_MASKNOTALLOWED
     1557     1557        MESSAGE0::
     1558     1558        Mask field not allowed
     1559     1559        */
     1560     1560        /*E* ERROR: DDE-E$DD_NOT_DPS90
     1561     1561        MESSAGE0::
     1562     1562        That symbol is not valid on this cpu type
     1563     1563        */
     1564     1564        /*E* ERROR: DDE-E$DD_FPRGRUNNING
     1565     1565        MESSAGE0::
     1566     1566        Can't step - FPRG is running
     1567     1567        */
     1568     1568        /* Internal error codes (start at 500) */
     1569     1569        /*E* ERROR: DDE-E$DD_BADMSG
     1570     1570        MESSAGE0::
     1571     1571        Last message received by FD was bad
     1572     1572        */
     1573     1573        /*E* ERROR: DDE-E$DD_CMDNOTSUPPORT
     1574     1574        MESSAGE0::
     1575     1575        Command not supported for FPRGs
     1576     1576        */
     1577     1577        /*E* ERROR: DDE-E$DD_ITEM_TRUNC_312
     1578     1578        MESSAGE0::
     1579     1579        Item truncated to 312 characters
     1580     1580        */
     1581     1581        /*E* ERROR: DDE-E$DD_SPREL_NOT_VALID
     1582     1582        MESSAGE0::
     1583     1583        SPREL not allowed for this instruction
     1584     1584        */
     1585     1585        /*E* ERROR: DDE-E$DD_BADXBREAK
     1586     1586        MESSAGE0::
     1587     1587        Interpreter associated in the FEP did an
     1588     1588        M$XBREAK without a VLP_XBREAK
     1589     1589        */
PL6.E3A0      #001=DDE$ERRS File=DDE$ERRS.:E05TSI                                TUE 07/29/97 13:57 Page:44
     1590     1590        /*E* ERROR: DDE-E$DD_FEPXDELTAONLY
     1591     1591        MESSAGE0::
     1592     1592        Command only allowed for FEP XDELTA
     1593     1593        */
     1594     1594        /*E* ERROR: DDE-E$DD_LINEDEAD
     1595     1595        MESSAGE0::
     1596     1596        Specified line is dead
     1597     1597        */
     1598     1598        /*E* ERROR: DDE-E$DD_CANTMODLCT
     1599     1599        MESSAGE0::
     1600     1600        Couldn't modify the specified LCT
     1601     1601        */
     1602     1602        /*E* ERROR: DDE-E$DD_CANTLET
     1603     1603        MESSAGE0::
     1604     1604        LET of this type of variable unsupported
     1605     1605        */
     1606     1606        /*E* ERROR: DDE-E$DD_ROBFULL
     1607     1607        MESSAGE0::
     1608     1608        RUM LIST record truncated to 120 chars
     1609     1609        */
     1610     1610
     1611     1611        /* Internal error codes (start at 500) */
     1612     1612        /*E* ERROR: DDE-E$DD_PARSERR
     1613     1613        MESSAGE0::
     1614     1614        @%U1 X$PARSE altret, PCB.ERROR.CODE=%U2
     1615     1615        */
     1616     1616        /*E* ERROR: DDE-E$DD_DERR1
     1617     1617        MESSAGE0::
     1618     1618        @%U1 X$PARSE returned unknown directive code
     1619     1619        */
     1620     1620        /*E* ERROR: DDE-E$DD_DELBUG
     1621     1621        MESSAGE0::
     1622     1622        @%U1 DELTA BUG..I should not have gotten here
     1623     1623        */
     1624     1624        /*E* ERROR: DDE-E$DD_NOTIMP
     1625     1625        MESSAGE0::
     1626     1626        @%U1 Unimplemented condition encountered.
PL6.E3A0      #001=DDE$ERRS File=DDE$ERRS.:E05TSI                                TUE 07/29/97 13:57 Page:45
     1627     1627        */
     1628     1628        /*E* ERROR: DDE-E$DD_CANTXEQ
     1629     1629        MESSAGE0::
     1630     1630        @%U1 Can't XEQ this instruction
     1631     1631        */
     1632     1632        /*E* ERROR: DDE-E$DD_CANTSTEP
     1633     1633        MESSAGE0::
     1634     1634        @%U1 Can't STEP this instruction
     1635     1635        */
     1636     1636        /*E* ERROR: DDE-E$DD_BADIC
     1637     1637        MESSAGE0::
     1638     1638        @%U1 IC for GO out of IS range
     1639     1639        */
     1640     1640        /*E* ERROR: DDE-E$DD_BADFPRGAT
     1641     1641        MESSAGE0::
     1642     1642        @%U1 Can't find the FPRG for breakpoint number = %U2
     1643     1643        */
     1644     1644        /*E* ERROR: DDE-E$DD_BAD_EWSQ
     1645     1645        MESSAGE0::
     1646     1646        @%U1 Unknown WSQ at fault time
     1647     1647        */
     1648     1648        /*E* ERROR: DDE-E$DD_MUST_KILL_BRK
     1649     1649        MESSAGE0::
     1650     1650        @%U1 Breakpoint on special instruction - like PMME
     1651     1651        */
     1652     1652        /*E* ERROR: DDE-E$DD_RISKY_BRK
     1653     1653        MESSAGE0::
     1654     1654        @%U1 Breakpoint has IC or indirect modification
     1655     1655        */
     1656     1656        /*E* ERROR: DDE-E$DD_NOTDECIMAL
     1657     1657        MESSAGE0::
     1658     1658        @%U1 Node not 'DECIMALS' in DDS$DECIMAL
     1659     1659        */
     1660     1660        /*E* ERROR: DDE-E$DD_NO_B$USRT$
     1661     1661        MESSAGE0::
     1662     1662        @%U1 Can't find user table
     1663     1663        */
PL6.E3A0      #001=DDE$ERRS File=DDE$ERRS.:E05TSI                                TUE 07/29/97 13:57 Page:46
     1664     1664        /*E* ERROR: DDE-E$DD_NOS_CNODE
     1665     1665        MESSAGE0::
     1666     1666        @%U1 Can't find S_CNODE
     1667     1667        */
     1668     1668        /*E* ERROR: DDE-E$DD_LOST_TT
     1669     1669        MESSAGE0::
     1670     1670        @%U1 Trace Transfer lost
     1671     1671        */
     1672     1672        /*E* ERROR: DDE-E$DD_RELRUM
     1673     1673        MESSAGE0::
     1674     1674        @%U1 Can't release RUM dcb
     1675     1675        */
     1676     1676        /*E* ERROR: DDE-E$DD_RELS_D
     1677     1677        MESSAGE0::
     1678     1678        @%U1 Can't release static data memory area
     1679     1679        */
     1680     1680        /*E* ERROR: DDE-E$DD_RELND
     1681     1681        MESSAGE0::
     1682     1682        @%U1 Can't release RUM/OVERLAY data segment
     1683     1683        */
     1684     1684        /*E* ERROR: DDE-E$DD_CLSRUM
     1685     1685        MESSAGE0::
     1686     1686        @%U1 Can't close RUM dcb
     1687     1687        */
     1688     1688        /*E* ERROR: DDE-E$DD_ACROS
     1689     1689        MESSAGE0::
     1690     1690        @%U1 Can't access RUM RU read-only-segment
     1691     1691        */
     1692     1692        /*E* ERROR: DDE-E$DD_NOTIME
     1693     1693        MESSAGE0::
     1694     1694        @%U1 Can't get RUM UTS from M$TIME
     1695     1695        */
     1696     1696        /*E* ERROR: DDE-E$DD_NO_LET_ARRAYS
     1697     1697        MESSAGE0::
     1698     1698        LET of arrays not implemented
     1699     1699        */
     1700     1700        /*E* ERROR: DDE-E$DD_CLSFPRG
PL6.E3A0      #001=DDE$ERRS File=DDE$ERRS.:E05TSI                                TUE 07/29/97 13:57 Page:47
     1701     1701        MESSAGE0::
     1702     1702        Can't close the FPRG DCB
     1703     1703        */
     1704     1704        /*E* ERROR: DDE-E$DD_RELFPRG
     1705     1705        MESSAGE0::
     1706     1706        Can't release the FPRG DCB
     1707     1707        */
     1708     1708        /*E* ERROR: DDE-E$DD_BADMESSAGE
     1709     1709        MESSAGE0::
     1710     1710        Received a bad message from the FD
     1711     1711        */
     1712     1712        /*E* ERROR: DDE-E$DD_BADEVENT
     1713     1713        MESSAGE0::
     1714     1714        Received a bad event for an FPRG
     1715     1715        */
     1716     1716        /*E* ERROR: DDE-E$DD_BADBRKPNT
     1717     1717        MESSAGE0::
     1718     1718        Unknown stored command in FIXCOM
     1719     1719        */
     1720     1720        /*E* ERROR: DDE-E$DD_DDNOTFEP
     1721     1721        MESSAGE0::
     1722     1722        Data Descriptor malformed or not FEP format
     1723     1723        */
     1724     1724        /*E* ERROR: DDE-E$DD_BAD_PUT1
     1725     1725        MESSAGE0::
     1726     1726        @%U1 Can't put into descriptor storage
     1727     1727        */
     1728     1728        /*E* ERROR: DDE-E$DD_BAD_PUT2
     1729     1729        MESSAGE0::
     1730     1730        @%U1 Can't store into missing page
     1731     1731        */
     1732     1732        /*E* ERROR: DDE-E$DD_NOTOCTIL
     1733     1733        MESSAGE0::
     1734     1734        @%U1 Node not 'OCTIL' in DDS$OCTAL
     1735     1735        */
     1736     1736        /*E* ERROR: DDE-E$DD_NOTHEX
     1737     1737        MESSAGE0::
PL6.E3A0      #001=DDE$ERRS File=DDE$ERRS.:E05TSI                                TUE 07/29/97 13:57 Page:48
     1738     1738        @%U1 Node not 'HEXIL' in DDS$HEX
     1739     1739        */
     1740     1740        /*E* ERROR: DDE-E$DD_KILLCASE
     1741     1741        MESSAGE0::
     1742     1742        @%U1 Build kill case(else)
     1743     1743        */
     1744     1744        /*E* ERROR: DDE-E$DD_SHOWCASE
     1745     1745        MESSAGE0::
     1746     1746        @%U1 Build show case(else)
     1747     1747        */
     1748     1748        /*E* ERROR: DDE-E$DD_SSF
     1749     1749        MESSAGE0::
     1750     1750        @%U1 Safe store less than 192 words
     1751     1751        */
     1752     1752        /*E* ERROR: DDE-E$DD_DO_SCAN_FAULT
     1753     1753        MESSAGE0::
     1754     1754        @%U1 Fault in DELTA during do or scan phase
     1755     1755        */
     1756     1756        /*E* ERROR: DDE-E$DD_HARD_FAULT
     1757     1757        MESSAGE0::
     1758     1758        @%U1 Hard fault in DELTA, go to MINI
     1759     1759        */
     1760     1760        /*E* ERROR: DDE-E$DD_BAD_SOC_RET
     1761     1761        MESSAGE0::
     1762     1762        @%U1 Can't SOC this PROC/ENTRY, $X1 is invalid
     1763     1763        */
     1764     1764
     1765     1765    1   END DDE$ERRS;

PL6.E3A0      #001=DDE$ERRS File=DDE$ERRS.:E05TSI                                TUE 07/29/97 13:57 Page:49
--  Include file information  --

   B$JIT_C.:E05TOU  was found in the system file and is never referenced.
   CP_6_C.:E05TOU  was found in the system file and is never referenced.
      No diagnostics issued in procedure DDE$ERRS.

   No code generated for procedure DDE$ERRS .
   Procedure DDE$ERRS requires 4 words of local(AUTO) storage.

    No errors detected in file DDE$ERRS.:E05TSI    .

PL6.E3A0      #001=DDE$ERRS File=DDE$ERRS.:E05TSI                                TUE 07/29/97 13:57 Page:50

 Object Unit name= DDE$ERRS                                   File name= DDE$ERRS.:E05TOU
 UTS= JUL 29 '97 13:57:49.56 TUE                              Compiler= PL-6/E31         Sev=      00
 SharedLib= :SHARED_SYSTEM                                    Alt SharedLib=


    ****  Control sections  ****

 Sect   Type Bound  Init  Size OctSiz  Section name(segment info)
    0   Proc  even  none     0      0  DDE$ERRS

    ****  Entry defs  ****

                              Check   Calling
                             calling  sequence
  Sect OctLoc Primary Altret sequence   type   Parms  Name
     0      0   yes            yes     ~proc       0  DDE$ERRS
PL6.E3A0      #001=DDE$ERRS File=DDE$ERRS.:E05TSI                                TUE 07/29/97 13:57 Page:51

        1        1        /*M* DDE$ERRS - Depository for User DELTA error messages */
        2        2        /*T***********************************************************/
        3        3        /*T*                                                         */
        4        4        /*T* Copyright (c) Bull HN Information Systems Inc., 1997    */
        5        5        /*T*                                                         */
        6        6        /*T***********************************************************/
        7        7        /*X* DMC,DFC */
        8        8
        9        9        DDE$ERRS: PROC;
       10       10
       11       11        /* User error messages */
       12       12
       13       13        /*E* ERROR: DDE-E$DD_UNKNOWN
       14       14        MESSAGE0::
       15       15        %"%U1" %**** Unable to find error message text ****
       16       16        */
       17       17        /*E* ERROR: DDE-E$DD_RANGE_SPEC
       18       18        MESSAGE0::
       19       19        Bad subscript
       20       20        MESSAGE1::
       21       21        Range specification not allowed on pointer variable
       22       22        */
       23       23        /*E* ERROR: DDE-E$DD_ADDREXP
       24       24        MESSAGE0::
       25       25        Invalid address expression
       26       26        MESSAGE1::
       27       27        Address expression not allowed on based pointer variable
       28       28        */
       29       29        /*E* ERROR: DDE-E$DD_SYM_NOTFOUND
       30       30        MESSAGE0::
       31       31        %"%U1" %Symbol not found
       32       32        */
       33       33        /*E* ERROR: DDE-E$DD_INVLD_SPEC
       34       34        MESSAGE0::
       35       35        %"%U1" %Invalid use of special symbol
       36       36        */
       37       37        /*E* ERROR: DDE-E$DD_SDEF
PL6.E3A0      #001=DDE$ERRS File=DDE$ERRS.:E05TSI                                TUE 07/29/97 13:57 Page:52
       38       38        MESSAGE0::
       39       39        %"%U1" %Invalid use of symdef
       40       40        */
       41       41        /*E* ERROR: DDE-E$DD_SUBSCRIPT
       42       42        MESSAGE0::
       43       43        %"%U1" %wrong number of subscripts
       44       44        */
       45       45        /*E* ERROR: DDE-E$DD_INVLD_PTR
       46       46        MESSAGE0::
       47       47        %"%U1" %is not a PTR
       48       48        */
       49       49        /*E* ERROR: DDE-E$DD_NOROOM
       50       50        MESSAGE0::
       51       51        %"%U1" %No room for data descriptor
       52       52        */
       53       53        /*E* ERROR: DDE-E$DD_VAR_REF
       54       54        MESSAGE0::
       55       55        %"%U1" %not BASED or parameter
       56       56        */
       57       57        /*E* ERROR: DDE-E$DD_CANT_LET_SPSYM
       58       58        MESSAGE0::
       59       59        Can't LET this special symbol
       60       60        */
       61       61        /*E* ERROR: DDE-E$DD_UERR0
       62       62        MESSAGE0::
       63       63        %"%U1" %Eh@%U2
       64       64        */
       65       65        /*E* ERROR: DDE-E$DD_UERR1
       66       66        MESSAGE0::
       67       67        %"%U1" %ID out of range or already in use
       68       68        */
       69       69        /*E* ERROR: DDE-E$DD_UERR2
       70       70        MESSAGE0::
       71       71        %"%U1" %Attachments to an immediate directive specified
       72       72        */
       73       73        /*E* ERROR: DDE-E$DD_UERR3
       74       74        MESSAGE0::
PL6.E3A0      #001=DDE$ERRS File=DDE$ERRS.:E05TSI                                TUE 07/29/97 13:57 Page:53
       75       75        %"%U1" %ID specified on immediate directive or on continued attachments
       76       76        */
       77       77        /*E* ERROR: DDE-E$DD_UERR4
       78       78        MESSAGE0::
       79       79        %"%U1" %Insufficient space in dircom/varcom to build directive
       80       80        */
       81       81        /*E* ERROR: DDE-E$DD_UERR5
       82       82        MESSAGE0::
       83       83        %"%U1" %Stored directive specified as an attachment
       84       84        */
       85       85        /*E* ERROR: DDE-E$DD_UERR6
       86       86        MESSAGE0::
       87       87        %"%U1" %No free slots available in fixcom
       88       88        */
       89       89        /*E* ERROR: DDE-E$DD_UERR7
       90       90        MESSAGE0::
       91       91        %"%U1" %User DELTA only directive in XDELTA
       92       92        */
       93       93        /*E* ERROR: DDE-E$DD_UERR8
       94       94        MESSAGE0::
       95       95        %"%U1" %XDELTA only directive in user DELTA
       96       96        MESSAGE1::
       97       97        That directive is not legal when issued from user DELTA
       98       98        */
       99       99        /*E* ERROR: DDE-E$DD_UERR9
      100      100        MESSAGE0::
      101      101        %"%U1" %Debug schema KILLed or not available
      102      102        */
      103      103        /*E* ERROR: DDE-E$DD_UERR10
      104      104        MESSAGE0::
      105      105        %"%U1" %Can't find symbol
      106      106        */
      107      107        /*E* ERROR: DDE-E$DD_UERR11
      108      108        MESSAGE0::
      109      109        %"%U1" %Your Run Unit's DEBUG SCHEMA is bad
      110      110        */
      111      111        /*E* ERROR: DDE-E$DD_UERR12
PL6.E3A0      #001=DDE$ERRS File=DDE$ERRS.:E05TSI                                TUE 07/29/97 13:57 Page:54
      112      112        MESSAGE0::
      113      113        %"%U1" %Feature not yet available
      114      114        */
      115      115        /*E* ERROR: DDE-E$DD_BAD_SUBREF
      116      116        MESSAGE0::
      117      117        %"%U1" %Bad subscript
      118      118        */
      119      119        /*E* ERROR: DDE-E$DD_UERR25
      120      120        MESSAGE0::
      121      121        %"%U1" %Invalid IS address specified
      122      122        */
      123      123        /*E* ERROR: DDE-E$DD_SUBST_REF
      124      124        MESSAGE0::
      125      125        %"%U1" %Invalid substatement reference
      126      126        */
      127      127        /*E* ERROR: DDE-E$DD_OFFSET_REF
      128      128        MESSAGE0::
      129      129        %"%U1" %Invalid offset reference
      130      130        */
      131      131        /*E* ERROR: DDE-E$DD_LBL_ARRAY_NOT
      132      132        MESSAGE0::
      133      133        %"%U1" %Labeled array reference not allowed
      134      134        */
      135      135        /*E* ERROR: DDE-E$DD_LBL_ARRAY_FIND
      136      136        MESSAGE0::
      137      137        %"%U1" %Can't find specified labeled array reference
      138      138        */
      139      139        /*E* ERROR: DDE-E$DD_LINE#
      140      140        MESSAGE0::
      141      141        %"%U1" %Can't find specified line number
      142      142        */
      143      143        /*E* ERROR: DDE-E$DD_SUBST_OFF
      144      144        MESSAGE0::
      145      145        %"%U1" %Can't find specified substatement
      146      146        */
      147      147        /*E* ERROR: DDE-E$DD_EDEF
      148      148        MESSAGE0::
PL6.E3A0      #001=DDE$ERRS File=DDE$ERRS.:E05TSI                                TUE 07/29/97 13:57 Page:55
      149      149        %"%U1" %Can't find specified entdef
      150      150        */
      151      151        /*E* ERROR: DDE-E$DD_LABEL
      152      152        MESSAGE0::
      153      153        %"%U1" %Can't find specified label
      154      154        */
      155      155        /*E* ERROR: DDE-E$DD_NOTYET
      156      156        MESSAGE0::
      157      157        %"%U1" %Feature not yet implemented
      158      158        */
      159      159        /*E* ERROR: DDE-E$DD_DXG$PTREND
      160      160        MESSAGE0::
      161      161        %"%U1" %Error calling DXG$PTREND
      162      162        */
      163      163        /*E* ERROR: DDE-E$DD_ADDRBAD
      164      164        MESSAGE0::
      165      165        %"%U1" %Addressing error
      166      166        */
      167      167        /*E* ERROR: DDE-E$DD_EXPR2CMPLX
      168      168        MESSAGE0::
      169      169        %"%U1" %Expression is too complex
      170      170        */
      171      171        /*E* ERROR: DDE-E$DD_USE_CONFLICT
      172      172        MESSAGE0::
      173      173        %"%U1" %'USE' in conflict with request
      174      174        */
      175      175        /*E* ERROR: DDE-E$DD_SUBRANGE
      176      176        MESSAGE0::
      177      177        %"%U1" %Invalid range specification
      178      178        */
      179      179        /*E* ERROR: DDE-E$DD_ADDREXPG256K
      180      180        MESSAGE0::
      181      181        %"%U1" %Address expression > 256k
      182      182        */
      183      183        /*E* ERROR: DDE-E$DD_NODISP
      184      184        MESSAGE0::
      185      185        %"%U1" %Item not able to be displayed
PL6.E3A0      #001=DDE$ERRS File=DDE$ERRS.:E05TSI                                TUE 07/29/97 13:57 Page:56
      186      186        */
      187      187        /*E* ERROR: DDE-E$DD_NOMOD
      188      188        MESSAGE0::
      189      189        %"%U1" %Item not able to be modified
      190      190        */
      191      191        /*E* ERROR: DDE-E$DD_NOEVAL
      192      192        MESSAGE0::
      193      193        %"%U1" %Item not able to be evaluated
      194      194        */
      195      195        /*E* ERROR: DDE-E$DD_NOPOS
      196      196        MESSAGE0::
      197      197        %"%U1" %Position not appropriate for a breakpoint
      198      198        */
      199      199        /*E* ERROR: DDE-E$DD_OPCODE
      200      200        MESSAGE0::
      201      201        %"%U1" %Invalid op code mnemonic
      202      202        */
      203      203        /*E* ERROR: DDE-E$DD_TOOLARGE
      204      204        MESSAGE0::
      205      205        %"%U1" %Specified value too large
      206      206        */
      207      207        /*E* ERROR: DDE-E$DD_NOTATT
      208      208        MESSAGE0::
      209      209        %"%U1" %Not attachable directive
      210      210        */
      211      211        /*E* ERROR: DDE-E$DD_SYM2LONG
      212      212        MESSAGE0::
      213      213        %"%U1" %Symbol too long
      214      214        */
      215      215        /*E* ERROR: DDE-E$DD_BAD_APT
      216      216        MESSAGE0::
      217      217        %"%U1" %Bad page table
      218      218        */
      219      219        /*E* ERROR: DDE-E$DD_BAD_USERNO
      220      220        MESSAGE0::
      221      221        %"%U1" %Bad user # in USE
      222      222        */
PL6.E3A0      #001=DDE$ERRS File=DDE$ERRS.:E05TSI                                TUE 07/29/97 13:57 Page:57
      223      223        /*E* ERROR: DDE-E$DD_NOSYMBHERE
      224      224        MESSAGE0::
      225      225        %"%U1" %Symbolic reference not allowed here
      226      226        */
      227      227        /*E* ERROR: DDE-E$DD_INVLDQUAL
      228      228        MESSAGE0::
      229      229        %"%U1" %Qualification not allowed here
      230      230        */
      231      231        /*E* ERROR: DDE-E$DD_SYNTAX
      232      232        MESSAGE0::
      233      233        %"%U1" %Eh?
      234      234        */
      235      235        /*E* ERROR: DDE-E$DD_NOTMON
      236      236        MESSAGE0::
      237      237        %"%U1" %USE MON required for ON CALL directive
      238      238        */
      239      239        /*E* ERROR: DDE-E$DD_USE
      240      240        MESSAGE0::
      241      241        %"%U1" %USE type not compatible with stored directive type
      242      242        */
      243      243        /*E* ERROR: DDE-E$DD_NOTIFSPEC
      244      244        MESSAGE0::
      245      245        %"%U1" %Ifspec not allowed on this directive
      246      246        */
      247      247        /*E* ERROR: DDE-E$DD_DUBREAK
      248      248        MESSAGE0::
      249      249        %"%U1" %Duplicate breakpoints are not allowed
      250      250        MESSAGE1::
      251      251        The position reference given in this breakpoint is the same
      252      252        as the position given for some previously defined breakpoint.
      253      253        Either KILL the previous breakpoint, or specify its ID when
      254      254        defining this breakpoint eg.
      255      255        05 AT HERE
      256      256        */
      257      257        /*E* ERROR: DDE-E$DD_CANTEVAL
      258      258        MESSAGE0::
      259      259        %"%U1" %Address expression cannot be evaluated
PL6.E3A0      #001=DDE$ERRS File=DDE$ERRS.:E05TSI                                TUE 07/29/97 13:57 Page:58
      260      260        */
      261      261        /*E* ERROR: DDE-E$DD_ULRANGE
      262      262        MESSAGE0::
      263      263        %"%U1" %Lower > upper subscript reference
      264      264        */
      265      265        /*E* ERROR: DDE-E$DD_SEGIDERR
      266      266        MESSAGE0::
      267      267        %"%U1" %Segid out of descriptor segment bounds
      268      268        */
      269      269        /*E* ERROR: DDE-E$DD_REDEF
      270      270        MESSAGE0::
      271      271        %"%U1" %Can't redefine symbol
      272      272        */
      273      273        /*E* ERROR: DDE-E$DD_2MANYDEFS
      274      274        MESSAGE0::
      275      275        %"%U1" %Too many user defs
      276      276        */
      277      277        /*E* ERROR: DDE-E$DD_FROM_TO
      278      278        MESSAGE0::
      279      279        %"%U1" %ID 'TO' greater than ID 'FROM'
      280      280        */
      281      281        /*E* ERROR: DDE-E$DD_CONSTOOBIG
      282      282        MESSAGE0::
      283      283        %"%U1" %Constant too big
      284      284        */
      285      285        /*E* ERROR: DDE-E$DD_BADDIG
      286      286        MESSAGE0::
      287      287        %"%U1" %Invalid bit/octal/hexadecimal digit
      288      288        */
      289      289        /*E* ERROR: DDE-E$DD_INCMPDTYPES
      290      290        MESSAGE0::
      291      291        %"%U1" %Incompatible data types for 'LET'
      292      292        */
      293      293        /*E* ERROR: DDE-E$DD_$LMISUSE
      294      294        MESSAGE0::
      295      295        %"%U1" %Misuse of $L special symbol
      296      296        */
PL6.E3A0      #001=DDE$ERRS File=DDE$ERRS.:E05TSI                                TUE 07/29/97 13:57 Page:59
      297      297        /*E* ERROR: DDE-E$DD_OUTOFSEG
      298      298        MESSAGE0::
      299      299        %"%U1" %Access out of segment
      300      300        */
      301      301        /*E* ERROR: DDE-E$DD_BADDESCTYPE
      302      302        MESSAGE0::
      303      303        %"%U1" %Bad descriptor type (not operand storage)
      304      304        */
      305      305        /*E* ERROR: DDE-E$DD_SEGNOTPRES
      306      306        MESSAGE0::
      307      307        %"%U1" %Segment present bit reset in descriptor
      308      308        */
      309      309        /*E* ERROR: DDE-E$DD_SEGEMPTY
      310      310        MESSAGE0::
      311      311        %"%U1" %Segment empty bit set in descriptor
      312      312        */
      313      313        /*E* ERROR: DDE-E$DD_CANTWRITESEG
      314      314        MESSAGE0::
      315      315        %"%U1" %Descriptor does not allow write access
      316      316        */
      317      317        /*E* ERROR: DDE-E$DD_CANTREADSEG
      318      318        MESSAGE0::
      319      319        %"%U1" %Descriptor does not allow read access
      320      320        */
      321      321        /*E* ERROR: DDE-E$DD_BADPTDW
      322      322        MESSAGE0::
      323      323        %"%U1" %Bad page table directory word
      324      324        */
      325      325        /*E* ERROR: DDE-E$DD_OUTOFMAP
      326      326        MESSAGE0::
      327      327        %"%U1" %Reference is beyond map
      328      328        */
      329      329        /*E* ERROR: DDE-E$DD_NOPAGE
      330      330        MESSAGE0::
      331      331        %"%U1" %Reference starts on non-existent page
      332      332        */
      333      333        /*E* ERROR: DDE-E$DD_NOPAGE2
PL6.E3A0      #001=DDE$ERRS File=DDE$ERRS.:E05TSI                                TUE 07/29/97 13:57 Page:60
      334      334        MESSAGE0::
      335      335        %"%U1" %Reference crosses page boundary to non-existent page
      336      336        */
      337      337        /*E* ERROR: DDE-E$DD_ACCESS_FAULT
      338      338        MESSAGE0::
      339      339        %"%U1" %DELTA trapped during access
      340      340        */
      341      341        /*E* ERROR: DDE-E$DD_IN_DEV_ERROR
      342      342        MESSAGE0::
      343      343        %"%U1" %Error reading input device
      344      344        */
      345      345        /*E* ERROR: DDE-E$DD_SUBDSCALAR
      346      346        MESSAGE0::
      347      347        %"%U1" %Save your subscripts for array references
      348      348        MESSAGE1::
      349      349        You have specified subscripts for a symbol which
      350      350        is not a vector, array, table, or matrix.
      351      351        */
      352      352        /*E* ERROR: DDE-E$DD_2MANYSUBS
      353      353        MESSAGE0::
      354      354        %"%U1" %Too many subscripts specified
      355      355        */
      356      356        /*E* ERROR: DDE-E$DD_OLDNOTOLD
      357      357        MESSAGE0::
      358      358        %(%U1) %Expected value not found
      359      359        */
      360      360        /*E* ERROR: DDE-E$DD_BADADDR
      361      361        MESSAGE0::
      362      362        %"%U1" %Bad address
      363      363        */
      364      364        /*E* ERROR: DDE-E$DD_CANTFINDSEG
      365      365        MESSAGE0::
      366      366        %"%U1" %Can't find self identifying segments
      367      367        */
      368      368        /*E* ERROR: DDE-E$DD_CANTTAB
      369      369        MESSAGE0::
      370      370        %"%U1" %Can't do that indirection
PL6.E3A0      #001=DDE$ERRS File=DDE$ERRS.:E05TSI                                TUE 07/29/97 13:57 Page:61
      371      371        */
      372      372        /*E* ERROR: DDE-E$DD_BADVALEXP
      373      373        MESSAGE0::
      374      374        %"%U1" %Bad expression value
      375      375        */
      376      376        /*E* ERROR: DDE-E$DD_EXPNOTVALID
      377      377        MESSAGE0::
      378      378        %"%U1" %Expression not valid here
      379      379        */
      380      380        /*E* ERROR: DDE-E$DD_BUFFULL
      381      381        MESSAGE0::
      382      382        %"%U1" %Output buffer full
      383      383        */
      384      384        /*E* ERROR: DDE-E$DD_UNKFMT
      385      385        MESSAGE0::
      386      386        %"%U1" %Unknown format
      387      387        */
      388      388        /*E* ERROR: DDE-E$DD_SIZE_TYPE
      389      389        MESSAGE0::
      390      390        %"%U1" %Data size - type mismatch (LET/IF)
      391      391        */
      392      392        /*E* ERROR: DDE-E$DD_ONLY1
      393      393        MESSAGE0::
      394      394        %"%U1" %Only one type each of ON (ABORT, EXIT, CALLS, NODES) can be specified
      395      395        */
      396      396        /*E* ERROR: DDE-E$DD_NO_CONTROL
      397      397        MESSAGE0::
      398      398        %"%U1" %You don't have a handler for that Exceptional Condition
      399      399        MESSAGE1::
      400      400        To use the XCON or GOTRAP directives, your program must
      401      401        have previously requested control for this Exceptional
      402      402        Condition via M$TRAP, M$XCON, M$EVENT, M$INT, or M$STIMER.
      403      403        */
      404      404        /*E* ERROR: DDE-E$DD_NO_BREAK
      405      405        MESSAGE0::
      406      406        %"%U1" %You don't have break control
      407      407        MESSAGE1::
PL6.E3A0      #001=DDE$ERRS File=DDE$ERRS.:E05TSI                                TUE 07/29/97 13:57 Page:62
      408      408        Your program did not ask for control of BREAK events
      409      409        with the M$INT monitor service.
      410      410        */
      411      411        /*E* ERROR: DDE-E$DD_NODEFS1
      412      412        MESSAGE0::
      413      413        %"%U1" %Can't read HEAD record
      414      414        */
      415      415        /*E* ERROR: DDE-E$DD_NODEFS2
      416      416        MESSAGE0::
      417      417        %"%U1" %Can't get memory for DEFs records
      418      418        */
      419      419        /*E* ERROR: DDE-E$DD_NODEFS3
      420      420        MESSAGE0::
      421      421        %"%U1" %Can't read DEF NAMES record
      422      422        */
      423      423        /*E* ERROR: DDE-E$DD_NODEFS4
      424      424        MESSAGE0::
      425      425        %"%U1" %Can't read ENTDEFs record
      426      426        */
      427      427        /*E* ERROR: DDE-E$DD_NODEFS5
      428      428        MESSAGE0::
      429      429        %"%U1" %Can't read SYMDEFs record
      430      430        */
      431      431        /*E* ERROR: DDE-E$DD_NOPTR
      432      432        MESSAGE0::
      433      433        %"%U1" %must have PTR
      434      434        */
      435      435        /*E* ERROR: DDE-E$DD_NO_TRAP
      436      436        MESSAGE0::
      437      437        %"%U1" %DELTA entry was not caused by user trap
      438      438        MESSAGE1::
      439      439        This entry to DELTA was caused by a breakpoint, or this
      440      440        is the initial entry. GOTRAP may be used only if this entry
      441      441        was caused by a user program trap or asynchronous event.
      442      442        */
      443      443        /*E* ERROR: DDE-E$DD_NO_TCB
      444      444        MESSAGE0::
PL6.E3A0      #001=DDE$ERRS File=DDE$ERRS.:E05TSI                                TUE 07/29/97 13:57 Page:63
      445      445        %"%U1" %Your TCB is full or not there
      446      446        */
      447      447        /*E* ERROR: DDE-E$DD_NO_TRAP_CONTROL
      448      448        MESSAGE0::
      449      449        %"%U1" %You specified TRAP, but don't have control for the
      450      450        */
      451      451        /*E* ERROR: DDE-E$DD_PACCESS_FAULT
      452      452        MESSAGE0::
      453      453        %"%U1" %Bad parameter pointer
      454      454        */
      455      455        /*E* ERROR: DDE-E$DD_BADPTR
      456      456        MESSAGE0::
      457      457        %"%U1" %Bad pointer
      458      458        */
      459      459        /*E* ERROR: DDE-E$DD_HIST_EMPTY
      460      460        MESSAGE0::
      461      461        %"%U1" %History buffer is empty
      462      462        */
      463      463        /*E* ERROR: DDE-E$DD_NO_MORE_HIST
      464      464        MESSAGE0::
      465      465        %"%U1" %No more history
      466      466        */
      467      467        /*E* ERROR: DDE-E$DD_NOSL$
      468      468        MESSAGE0::
      469      469        %"%U1" %Can't find DELTA special location
      470      470        */
      471      471        /*E* ERROR: DDE-E$DD_XCON_IN_PROGRESS
      472      472        MESSAGE0::
      473      473        %"%U1" %You specified TRAP, but exit control is already in progress
      474      474        */
      475      475        /*E* ERROR: DDE-E$DD_CANT_XCON
      476      476        MESSAGE0::
      477      477        %"%U1" %Exit control already in progress, this would run you down
      478      478        */
      479      479        /*E* ERROR: DDE-E$DD_CANT_BREAK
      480      480        MESSAGE0::
      481      481        %"%U1" %BREAK was reset by DELTA
PL6.E3A0      #001=DDE$ERRS File=DDE$ERRS.:E05TSI                                TUE 07/29/97 13:57 Page:64
      482      482        */
      483      483        /*E* ERROR: DDE-E$DD_XDONLYSYM
      484      484        MESSAGE0::
      485      485        %"%U1" %XDELTA-only symbol, not allowed here
      486      486        */
      487      487        /*E* ERROR: DDE-E$DD_NO_TRACE_INFO
      488      488        MESSAGE0::
      489      489        %"%U1" %Can't turn trace on, no trace parameters exist, use TC or TT
      490      490        MESSAGE1::
      491      491        TRACE ON is used to enable tracing after tracing was
      492      492        disabled with the TRACE OFF directive. In this case,
      493      493        either no TRACE was ever set up, or the TRACE state
      494      494        was deleted with KILL TRACE.
      495      495        MESSAGE2::
      496      496        You can not turn TRACE on until you tell DELTA what
      497      497        kind of TRACEing you wish to perform. See the TRACE TRANSFER
      498      498        and TRACE CALLS directives (HELP TT and HELP TC).
      499      499        */
      500      500        /*E* ERROR: DDE-E$DD_UDONLYSYM
      501      501        MESSAGE0::
      502      502        %"%U1" %User DELTA-only symbol, not allowed here
      503      503        */
      504      504        /*E* ERROR: DDE-E$DD_CANT_ANLZ
      505      505        MESSAGE0::
      506      506        %"%U1" %You don't have proper privilege for ANLZ/DELTA
      507      507        */
      508      508        /*E* ERROR: DDE-E$DD_NOT_IN_PATCH
      509      509        MESSAGE0::
      510      510        %"%U1" %Not allowed in PATCH mode
      511      511        */
      512      512        /*E* ERROR: DDE-E$DD_BADIFADR
      513      513        MESSAGE0::
      514      514        %"%U1" %Bad expression in IF
      515      515        */
      516      516        /*E* ERROR: DDE-E$DD_NOT_OVERLAID
      517      517        MESSAGE0::
      518      518        %"%U1" %Program is not overlaid
PL6.E3A0      #001=DDE$ERRS File=DDE$ERRS.:E05TSI                                TUE 07/29/97 13:57 Page:65
      519      519        */
      520      520        /*E* ERROR: DDE-E$DD_OVTABLES
      521      521        MESSAGE0::
      522      522        %"%U1" %Can't get memory for DELTA overlay control tables
      523      523        */
      524      524        /*E* ERROR: DDE-E$DD_OVDEFS
      525      525        MESSAGE0::
      526      526        %"%U1" %Can't get memory for DELTA overlay DEFs records
      527      527        */
      528      528        /*E* ERROR: DDE-E$DD_BADNODE
      529      529        MESSAGE0::
      530      530        %"%U1" %Can't find specified overlay node
      531      531        */
      532      532        /*E* ERROR: DDE-E$DD_NOTROOT
      533      533        MESSAGE0::
      534      534        %"%U1" %Root node can't be M$OLAYed
      535      535        */
      536      536        /*E* ERROR: DDE-E$DD_PATCHONLY
      537      537        MESSAGE0::
      538      538        %"%U1" %PATCH mode only directive
      539      539        */
      540      540        /*E* ERROR: DDE-E$DD_BADRUMEXP
      541      541        MESSAGE0::
      542      542        %"%U1" %Expression invalid in RUM mode
      543      543        */
      544      544        /*E* ERROR: DDE-E$DD_NOTRUM
      545      545        MESSAGE0::
      546      546        %"%U1" %You are not in RUM mode
      547      547        */
      548      548        /*E* ERROR: DDE-E$DD_NOTDELTA
      549      549        MESSAGE0::
      550      550        %"%U1" %DELTA mode only directive
      551      551        */
      552      552        /*E* ERROR: DDE-E$DD_NONAME
      553      553        MESSAGE0::
      554      554        %"%U1" %Can't RUM a fid without a name
      555      555        */
PL6.E3A0      #001=DDE$ERRS File=DDE$ERRS.:E05TSI                                TUE 07/29/97 13:57 Page:66
      556      556        /*E* ERROR: DDE-E$DD_NOPNUPD
      557      557        MESSAGE0::
      558      558        %"%U1" %RUM fid open for input only
      559      559        */
      560      560        /*E* ERROR: DDE-E$DD_IGLRFID
      561      561        MESSAGE0::
      562      562        %"%U1" %Specified RUM fid is not an RU
      563      563        */
      564      564        /*E* ERROR: DDE-E$DD_NOMEM
      565      565        MESSAGE0::
      566      566        %"%U1" %Unable to allocate memory
      567      567        */
      568      568        /*E* ERROR: DDE-E$DD_WARNROS
      569      569        MESSAGE0::
      570      570        %"%U1" %Can't modify DCBs, no read-only-segment
      571      571        */
      572      572        /*E* ERROR: DDE-E$DD_NOTYOURS
      573      573        MESSAGE0::
      574      574        %"%U1" %Requested address is not within Run Unit
      575      575        */
      576      576        /*E* ERROR: DDE-E$DD_NOPROGREC
      577      577        MESSAGE0::
      578      578        %"%U1" %Unable to access Run Unit program record
      579      579        */
      580      580        /*E* ERROR: DDE-E$DD_NOROSREC
      581      581        MESSAGE0::
      582      582        %"%U1" %Unable to access Run Unit read-only-segment record
      583      583        */
      584      584        /*E* ERROR: DDE-E$DD_NOHEADREC
      585      585        MESSAGE0::
      586      586        %"%U1" %Unable to access Run Unit HEAD record
      587      587        */
      588      588        /*E* ERROR: DDE-E$DD_NULLCMD
      589      589        MESSAGE0::
      590      590        %"%U1" %Null directives don't make sense here
      591      591        */
      592      592        /*E* ERROR: DDE-E$DD_SCAN1_CONT
PL6.E3A0      #001=DDE$ERRS File=DDE$ERRS.:E05TSI                                TUE 07/29/97 13:57 Page:67
      593      593        MESSAGE0::
      594      594        %"%U1" %Continued directives don't make sense here
      595      595        */
      596      596        /*E* ERROR: DDE-E$DD_CANTDO
      597      597        MESSAGE0::
      598      598        %"%U1" %Can't DO - stored directive ID doesn't exist
      599      599        */
      600      600        /*E* ERROR: DDE-E$DD_BADPS1
      601      601        MESSAGE0::
      602      602        %"%U1" %Fault while accessing CMD from M$ALIB
      603      603        */
      604      604        /*E* ERROR: DDE-E$DD_BADPS2
      605      605        MESSAGE0::
      606      606        %"%U1" %Fault while accessing RESULTS from M$ALIB
      607      607        */
      608      608        /*E* ERROR: DDE-E$DD_BADEDITKEY
      609      609        MESSAGE0::
      610      610        %"%U1" %That's no EDIT key
      611      611        */
      612      612        /*E* ERROR: DDE-E$DD_ANLZ_NOBUFF
      613      613        MESSAGE0::
      614      614        %"%U1" %Can't find Recovery Buffer
      615      615        */
      616      616        /*E* ERROR: DDE-E$DD_ANLZ_NODIR
      617      617        MESSAGE0::
      618      618        %"%U1" %Can't find User Directory
      619      619        */
      620      620        /*E* ERROR: DDE-E$DD_ANLZ_NOHJIT
      621      621        MESSAGE0::
      622      622        %"%U1" %Can't find HJIT - during USE
      623      623        */
      624      624        /*E* ERROR: DDE-E$DD_ANLZ_NOJIT
      625      625        MESSAGE0::
      626      626        %"%U1" %Can't find JIT - during USE
      627      627        */
      628      628        /*E* ERROR: DDE-E$DD_ANLZ_NOUSER
      629      629        MESSAGE0::
PL6.E3A0      #001=DDE$ERRS File=DDE$ERRS.:E05TSI                                TUE 07/29/97 13:57 Page:68
      630      630        %"%U1" %No such user or user not dumped
      631      631        */
      632      632        /*E* ERROR: DDE-E$DD_ANLZ_PAGENOTDUMPED
      633      633        MESSAGE0::
      634      634        %"%U1" %Address references page which was not dumped
      635      635        */
      636      636        /*E* ERROR: DDE-E$DD_ANLZ_KILLED
      637      637        MESSAGE0::
      638      638        %"%U1" %ANLZ KILLED
      639      639        */
      640      640        /*E* ERROR: DDE-E$DD_ANLZ_NOMEM
      641      641        MESSAGE0::
      642      642        %"%U1" %Can't get memory for ANLZ
      643      643        */
      644      644        /*E* ERROR: DDE-E$DD_ANLZ_NOPAGE
      645      645        MESSAGE0::
      646      646        %"%U1" %Can't get a page from the dump file that should be there
      647      647        */
      648      648        /*E* ERROR: DDE-E$DD_NO@
      649      649        MESSAGE0::
      650      650        %"%U1" %'@' patch space not defined in your program
      651      651        */
      652      652        /*E* ERROR: DDE-E$DD_NO#
      653      653        MESSAGE0::
      654      654        %"%U1" %'#' patch space not defined in your program
      655      655        */
      656      656        /*E* ERROR: DDE-E$DD_NOMORE@
      657      657        MESSAGE0::
      658      658        %"%U1" %No more '@' patch space left
      659      659        */
      660      660        /*E* ERROR: DDE-E$DD_NOMORE#
      661      661        MESSAGE0::
      662      662        %"%U1" %No more '#' patch space left
      663      663        */
      664      664        /*E* ERROR: DDE-E$DD_CANTPUTINANLZ
      665      665        MESSAGE0::
      666      666        %"%U1" %You may not store into a dump file
PL6.E3A0      #001=DDE$ERRS File=DDE$ERRS.:E05TSI                                TUE 07/29/97 13:57 Page:69
      667      667        */
      668      668        /*E* ERROR: DDE-E$DD_NOTANLZ
      669      669        MESSAGE0::
      670      670        %"%U1" %You are not in ANLZ mode
      671      671        */
      672      672        /*E* ERROR: DDE-E$DD_NOTATTM
      673      673        MESSAGE0::
      674      674        %"%U1" %Only the closed form of MODIFY is attachable
      675      675        */
      676      676        /*E* ERROR: DDE-E$DD_CANTEXIT
      677      677        MESSAGE0::
      678      678        %"%U1" %Can't EXIT, entry was not via M$LINK
      679      679        */
      680      680        /*E* ERROR: DDE-E$DD_BADAUTO
      681      681        MESSAGE0::
      682      682        %"%U1" %This auto stack is incorrectly structured
      683      683        */
      684      684        /*E* ERROR: DDE-E$DD_AUTOBASE
      685      685        MESSAGE0::
      686      686        That's no AUTO stack
      687      687        MESSAGE1::
      688      688        because its base is incorrectly structured.
      689      689        */
      690      690        /*E* ERROR: DDE-E$DD_NOTEDIT
      691      691        MESSAGE0::
      692      692        %"%U1" %Your READ fid,key is not to an EDIT compatible file
      693      693        */
      694      694        /*E* ERROR: DDE-E$DD_NOTFILE
      695      695        MESSAGE0::
      696      696        %"%U1" %Your READ fid,start is not to a file
      697      697        */
      698      698        /*E* ERROR: DDE-E$DD_NOPNDO
      699      699        MESSAGE0::
      700      700        %"%U1" %Default open to M$DO failed - writing on 'ME'
      701      701        */
      702      702        /*E* ERROR: DDE-E$DD_READ_BANG
      703      703        MESSAGE0::
PL6.E3A0      #001=DDE$ERRS File=DDE$ERRS.:E05TSI                                TUE 07/29/97 13:57 Page:70
      704      704        %"%U1" %DELTA says - Command stream exhausted, I quit.
      705      705        */
      706      706        /*E* ERROR: DDE-E$DD_ANLZ_BADUSE
      707      707        MESSAGE0::
      708      708        %"%U1" %ANLZ can't do that USE yet
      709      709        */
      710      710        /*E* ERROR: DDE-E$DD_NO_USE
      711      711        MESSAGE0::
      712      712        %"%U1" %Current USE environment is bad
      713      713        */
      714      714        /*E* ERROR: DDE-E$DD_NO_ALTVAR
      715      715        MESSAGE0::
      716      716        %"%U1" %Can't establish specified ALTVAR schema
      717      717        */
      718      718        /*E* ERROR: DDE-E$DD_BADDEC
      719      719        MESSAGE0::
      720      720        %"%U1" %Bad decimal number
      721      721        */
      722      722        /*E* ERROR: DDE-E$DD_BAD_COBOL_CALL
      723      723        MESSAGE0::
      724      724        %"%U1" %Bad shared library call in COBOL module
      725      725        */
      726      726        /*E* ERROR: DDE-E$DD_BAD_SHARED_CALL
      727      727        MESSAGE0::
      728      728        %"%U1" %Unknown format in call to shared library
      729      729        */
      730      730        /*E* ERROR: DDE-E$DD_SHARED_NO_SCHEMA
      731      731        MESSAGE0::
      732      732        %"%U1" %Must have schema to decode call to shared library
      733      733        */
      734      734        /*E* ERROR: DDE-E$DD_TC_XDPREFIX
      735      735        MESSAGE0::
      736      736        %"%U1" %XDELTA trace calls requires prefix
      737      737        */
      738      738        /*E* ERROR: DDE-E$DD_HELP_XDELTA
      739      739        MESSAGE0::
      740      740        HELP is not available in XDELTA
PL6.E3A0      #001=DDE$ERRS File=DDE$ERRS.:E05TSI                                TUE 07/29/97 13:57 Page:71
      741      741        */
      742      742        /*E* ERROR: DDE-E$DD_NO_HELP
      743      743        MESSAGE0::
      744      744        I can't figure out what you want me to help you with!
      745      745        DESCRIPTION: This message can have no higher severity than 0.
      746      746        */
      747      747        /*E* ERROR: DDE-E$DD_NO_MORE_HELP
      748      748        MESSAGE0::
      749      749        No further HELP is available
      750      750        DESCRIPTION: This message can have no higher severity than 0.
      751      751        */
      752      752        /*E* ERROR: DDE-E$DD_BADPS3
      753      753        MESSAGE0::
      754      754        Fault while accessing V area from M$ALIB
      755      755        MESSAGE1::
      756      756        DELTA trapped while accessing FPT_ALIB.V. Your
      757      757        FPT_ALIB.V_ is either NIL, or poorly formed.
      758      758        */
      759      759        /*E* ERROR: DDE-E$DD_ZEROOPS
      760      760        MESSAGE0::
      761      761        %"%U1" %Inhibit, Tag, or PR modification not allowed with ZERO op code
      762      762        */
      763      763        /*E* ERROR: DDE-E$DD_CANT_SAD
      764      764        MESSAGE0::
      765      765        You don't have the proper PRIV for SAD
      766      766        */
      767      767        /*E* ERROR: DDE-E$DD_BAD_SAD
      768      768        MESSAGE0::
      769      769        Bad LS specified for SAD
      770      770        MESSAGE1::
      771      771        The M$SAD PMME returned a BAD SEGID error code.
      772      772        */
      773      773        /*E* ERROR: DDE-E$DD_NOTDCB
      774      774        MESSAGE0::
      775      775        Not a DCB name or number
      776      776        */
      777      777        /*E* ERROR: DDE-E$DD_NOSAD
PL6.E3A0      #001=DDE$ERRS File=DDE$ERRS.:E05TSI                                TUE 07/29/97 13:57 Page:72
      778      778        MESSAGE0::
      779      779        $SAD not valid if SAD command not issued
      780      780        */
      781      781        /*E* ERROR: DDE-E$DD_NOTANLZ_FILE
      782      782        MESSAGE0::
      783      783        That pointer/location valid only for ANLZ dump-file mode.
      784      784        */
      785      785        /*E* ERROR: DDE-E$DD_NODCB
      786      786        MESSAGE0::
      787      787        No such DCB
      788      788        MESSAGE1::
      789      789        The DCB number is greater than B$ROSEG.NUMDCBS
      790      790        */
      791      791        /*E* ERROR: DDE-E$DD_DCBNIL
      792      792        MESSAGE0::
      793      793        That DCB slot is empty
      794      794        MESSAGE1::
      795      795        The DCB pointer for that DCB is NIL.
      796      796        */
      797      797        /*E* ERROR: DDE-E$DD_PROTECT
      798      798        MESSAGE0::
      799      799        %"%U1" %Can't store - PROTECT mode set
      800      800        */
      801      801        /*E* ERROR: DDE-E$DD_NOTALIB
      802      802        MESSAGE0::
      803      803        Entry to DELTA not via M$ALIB
      804      804        */
      805      805        /*E* ERROR: DDE-E$DD_NOTIMPLARRAY
      806      806        MESSAGE0::
      807      807        %"%U1" %unimplemented array type
      808      808        MESSAGE1::
      809      809        Virtual arrays are not supported by DELTA
      810      810        */
      811      811        /*E* ERROR: DDE-E$DD_WRONG#SUBS
      812      812        MESSAGE0::
      813      813        %"%U1" %wrong number of subscripts - correct number = %U2
      814      814        MESSAGE1::
PL6.E3A0      #001=DDE$ERRS File=DDE$ERRS.:E05TSI                                TUE 07/29/97 13:57 Page:73
      815      815        Number of subscripts does not match this variables dimensions
      816      816        */
      817      817        /*E* ERROR: DDE-E$DD_BAD_SUBREF_2BG
      818      818        MESSAGE0::
      819      819        Bad subscript
      820      820        MESSAGE1::
      821      821        Constant subscript values cannot exceed 262143
      822      822        */
      823      823        /*E* ERROR: DDE-E$DD_BAD_SUBREF_EXP
      824      824        MESSAGE0::
      825      825        Bad subscript
      826      826        MESSAGE1::
      827      827        Subscripts may not contain expressions
      828      828        */
      829      829        /*E* ERROR: DDE-E$DD_BAD_SUBREF_RNGE
      830      830        MESSAGE0::
      831      831        Bad subscript
      832      832        MESSAGE1::
      833      833        Range specification not allowed for subscript variable
      834      834        */
      835      835        /*E* ERROR: DDE-E$DD_BAD_SUBREF_DST
      836      836        MESSAGE0::
      837      837        %"%U1" %bad subscript
      838      838        MESSAGE1::
      839      839        Invalid data type for subscript variable
      840      840        */
      841      841        /*E* ERROR: DDE-E$DD_NORBIRTH
      842      842        MESSAGE0::
      843      843        Warning: RU has no BIRTH record
      844      844        MESSAGE1::
      845      845        RUM will not be able to maintain a record of the last
      846      846        time this Run Unit was RUMed, and the number of times
      847      847        this Run Unit was RUMed.
      848      848        */
      849      849        /*E* ERROR: DDE-E$DD_NOWBIRTH
      850      850        MESSAGE0::
      851      851        Unable to update Run Unit BIRTH record
PL6.E3A0      #001=DDE$ERRS File=DDE$ERRS.:E05TSI                                TUE 07/29/97 13:57 Page:74
      852      852        */
      853      853        /*E* ERROR: DDE-E$DD_BAD_SUBREF_SCAL
      854      854        MESSAGE0::
      855      855        bad subscript
      856      856        MESSAGE1::
      857      857        Subscript variables must not be scaled
      858      858        */
      859      859        /*E* ERROR: DDE-E$DD_CANT_STEP_SHARED
      860      860        MESSAGE0::
      861      861        Can't STEP in shared library
      862      862        MESSAGE1::
      863      863        The current IC is in the shared library. Since DELTA does
      864      864        not have write access to shared code, it can not step within
      865      865        shared code. Set a breakpoint in your program, and continue
      866      866        stepping from there.
      867      867        */
      868      868        /*E* ERROR: DDE-E$DD_CANT_TRACE_SHARED
      869      869        MESSAGE0::
      870      870        Can't TRACE in shared library
      871      871        MESSAGE1::
      872      872        The current IC is in the shared library. Since DELTA does
      873      873        not have write access to shared code, it can not continue
      874      874        tracing from this point. You must TRACE OFF, set a breakpoint
      875      875        in your program, and TRACE ON to continue tracing from there.
      876      876        */
      877      877        /*E* ERROR: DDE-E$DD_COBOL_WARNING
      878      878        MESSAGE0::
      879      879        *** WARNING ***  Do not STEP or TRACE in the COBOL sections of this run-unit. You h
               879        ave been warned.
      880      880        MESSAGE1::
      881      881        Due to the non-standard calling sequences used by this version
      882      882        of COBOL, STEP and TRACE can not be supported. Any attempted
      883      883        use will cause strange and undesired results.
      884      884        */
      885      885        /*E* ERROR: DDE-E$DD_FORTREAL
      886      886        MESSAGE0::
      887      887        FORTRAN floating point constant out of range
PL6.E3A0      #001=DDE$ERRS File=DDE$ERRS.:E05TSI                                TUE 07/29/97 13:57 Page:75
      888      888        MESSAGE1::
      889      889        The specified IF/LET floating point constant could not be
      890      890        converted by the common library module XPN_7LSPTOD. This
      891      891        is caused by the absolute value of the specified exponent
      892      892        being too large.
      893      893        */
      894      894        /*E* ERROR: DDE-E$DD_DB_EXIT
      895      895        MESSAGE0::
      896      896        AT M$DRTN
      897      897        DESCRIPTION: Used for debugging DELTA. This message is output
      898      898                     when DB@EXIT is set, and DDA$DELTA is at the M$DRTN.
      899      899        */
      900      900        /*E* ERROR: DDE-E$DD_RUM_WHAT
      901      901        MESSAGE0::
      902      902        RUM what?
      903      903        DESCRIPTION: This message is output by DDA$DELTA when an IBEX RUM
      904      904                     is passed without a fid.
      905      905        */
      906      906        /*E* ERROR: DDE-E$DD_RUMONLY
      907      907        MESSAGE0::
      908      908        RUM-mode only symbol
      909      909        MESSAGE1::
      910      910        $SA and $PRIV are only valid in RUM mode
      911      911        */
      912      912        /*E* ERROR: DDE-E$DD_NOWHEAD
      913      913        MESSAGE0::
      914      914        Unable to update Run Unit HEAD record
      915      915        MESSAGE1::
      916      916        DELTA was unable to re-write the Run Unit HEAD record.
      917      917        */
      918      918        /*E* ERROR: DDE-E$DD_NOWROS
      919      919        MESSAGE0::
      920      920        Unable to update Run Unit DCB (ROS record)
      921      921        MESSAGE1::
      922      922        DELTA was unable to re-write the ROS record(s) that
      923      923        contain the DCB that was modified by RUM.
      924      924        */
PL6.E3A0      #001=DDE$ERRS File=DDE$ERRS.:E05TSI                                TUE 07/29/97 13:57 Page:76
      925      925        /*E* ERROR: DDE-E$DD_UTSERR
      926      926        MESSAGE0::
      927      927        RUM abnormally terminated - UTS violation
      928      928        MESSAGE1::
      929      929        The creation UTS must be specified on the RUM command
      930      930        invocation if the FID being RUMed resides in :SYS account,
      931      931        and the FID is open for updating, or the UTS was specified
      932      932        and it did not match the creation UTS.
      933      933        */
      934      934        /*E* ERROR: DDE-E$DD_CANTLETOVERP
      935      935        MESSAGE0::
      936      936        Can't LET item with overpunched sign
      937      937        */
      938      938        /*E* ERROR: DDE-E$DD_VAL2BIG
      939      939        MESSAGE0::
      940      940        Value too large
      941      941        */
      942      942        /*E* ERROR: DDE-E$DD_WHEN_NOTIS_OR_DS
      943      943        MESSAGE0::
      944      944        WHEN variable must be in static memory or in a dynamic segment.
      945      945        */
      946      946        /*E* ERROR: DDE-E$DD_DCBOUND
      947      947        MESSAGE0::
      948      948        Referenced item is out of DCB bounds
      949      949        */
      950      950        /*E* ERROR: DDE-E$DD_CANTIFOVER
      951      951        MESSAGE0::
      952      952        Can't test value of item with overpunched sign
      953      953        */
      954      954        /*E* ERROR: DDE-E$DD_EXP_MODE_ERR
      955      955        MESSAGE0::
      956      956        Expression too complex for RUM or ANLZ-file mode
      957      957        MESSAGE1::
      958      958        RUM or ANLZ-file mode does not allow variable or
      959      959        address specification of a pointer nor do they allow
      960      960        subscripting with variables. The only pointer specification
      961      961        allowed is with DELTA special pointers like $JIT, $DCBn,
PL6.E3A0      #001=DDE$ERRS File=DDE$ERRS.:E05TSI                                TUE 07/29/97 13:57 Page:77
      962      962        and $LSn.
      963      963        */
      964      964        /*E* ERROR: DDE-E$DD_BADCMD_RUM
      965      965        MESSAGE0::
      966      966        Command not valid in RUM mode
      967      967        */
      968      968        /*E* ERROR: DDE-E$DD_NIHEAD
      969      969        MESSAGE0::
      970      970        Referenced item is out of HEAD record bounds
      971      971        */
      972      972        /*E* ERROR: DDE-E$DD_CANTAUTOMODE
      973      973        MESSAGE0::
      974      974        Can't reference AUTO type variables in RUM or ANLZ mode
      975      975        */
      976      976        /*E* ERROR: DDE-E$DD_BADSTACK
      977      977        MESSAGE0::
      978      978        Can't reference AUTO type variables, your stack is malformed
      979      979        */
      980      980        /*E* ERROR: DDE-E$DD_AUTONOTACTIVE
      981      981        MESSAGE0::
      982      982        AUTO variable not active
      983      983        MESSAGE1::
      984      984        Some auto variable in that request is not
      985      985        in any of the currently active stack frames
      986      986        */
      987      987        /*E* ERROR: DDE-E$DD_CANTGOALIB
      988      988        MESSAGE0::
      989      989        Can't GO position when entry was via M$ALIB
      990      990        MESSAGE1::
      991      991        When DELTA is entered due to an M$ALIB call,
      992      992        it must return to the M$ALIB call. The
      993      993        position specified on the GO directive can
      994      994        not be honored, so it is not allowed here.
      995      995        MESSAGE2::
      996      996        Use GO or ALIB RET to go to the normal return
      997      997        of the M$ALIB call, use ALIB ALT to effect
      998      998        an ALTRETURN.
PL6.E3A0      #001=DDE$ERRS File=DDE$ERRS.:E05TSI                                TUE 07/29/97 13:57 Page:78
      999      999        */
     1000     1000        /*E* ERROR: DDE-E$DD_CANTSTEPALIB
     1001     1001        MESSAGE0::
     1002     1002        Can't STEP, program not running under control of DELTA
     1003     1003        MESSAGE1::
     1004     1004        The program must be started under DELTA, or DELTA
     1005     1005        must be associated after CTRL-Y. STEP is not legal
     1006     1006        when DELTA is associated by M$ALIB.
     1007     1007        */
     1008     1008        /*E* ERROR: DDE-E$DD_CANTSTEPSHARED
     1009     1009        MESSAGE0::
     1010     1010        Can't STEP when entry was via M$ALIB from an ASL,
     1011     1011        shared library, or execute-only run-unit.
     1012     1012        */
     1013     1013        /*E* ERROR: DDE-E$DD_CANTKEEPASL
     1014     1014        MESSAGE0::
     1015     1015        KEEP is not legal when M$ALIB was called from an ASL
     1016     1016        */
     1017     1017        /*E* ERROR: DDE-E$DD_CANTTTSHARED
     1018     1018        MESSAGE0::
     1019     1019        Can't TRACE TRANSFER from within a shared library, say TRACE OFF
     1020     1020        MESSAGE1::
     1021     1021        You hit BREAK or had a fault while the IC was in
     1022     1022        the shared library. DELTA can't trace transfer in
     1023     1023        shared code. You must turn trace off, and set a breakpoint
     1024     1024        in the unshared part of your run-unit with a TRACE ON
     1025     1025        attachment if you wish to continue tracing.
     1026     1026        */
     1027     1027        /*E* ERROR: DDE-E$DD_CANTTTALIB
     1028     1028        MESSAGE0::
     1029     1029        Can't TRACE TRANSFER out of here, say TRACE OFF
     1030     1030        MESSAGE1::
     1031     1031        Entry to DELTA was via M$ALIB from a shared library,
     1032     1032        an ASL, or an execute-only run-unit. DELTA does not
     1033     1033        have write access to procedure in these cases, so
     1034     1034        tracing must be turned off before execution can proceed.
     1035     1035        */
PL6.E3A0      #001=DDE$ERRS File=DDE$ERRS.:E05TSI                                TUE 07/29/97 13:57 Page:79
     1036     1036        /*E* ERROR: DDE-E$DD_BADSHARESTACK
     1037     1037        MESSAGE0::
     1038     1038        Can't get return address from AUTO stack, can't continue STEP or TRACE
     1039     1039        */
     1040     1040        /*E* ERROR: DDE-E$DD_RUMSKIP
     1041     1041        MESSAGE0::
     1042     1042        SKIPPED while RUMing system processors
     1043     1043        MESSAGE1::
     1044     1044        The preceeding directive was skipped by DELTA while RUMing
     1045     1045        the system processors via M$ALIB from GHOST1. The next valid
     1046     1046        RUM command will reset skipping mode. Only RUM, READ, END,
     1047     1047        QUIT, GO, or ALIB directives are honored while in skipping
     1048     1048        mode.
     1049     1049        */
     1050     1050        /*E* ERROR: DDE-E$DD_UTSFIELD
     1051     1051        MESSAGE0::
     1052     1052        %"%U1" %field of UTS is too big
     1053     1053        MESSAGE1::
     1054     1054        The specified value is too big to fit into its intended
     1055     1055        DATE/TIME field.
     1056     1056        */
     1057     1057        /*E* ERROR: DDE-E$DD_CANT_TR_ONCALLS
     1058     1058        MESSAGE0::
     1059     1059        Can't TRACE and have ONCALLS set at the same time.
     1060     1060        MESSAGE1::
     1061     1061        You must KILL ONCALLS, then re-issue the TRACE directive.
     1062     1062        */
     1063     1063        /*E* ERROR: DDE-E$DD_CANT_ONCALLS_TR
     1064     1064        MESSAGE0::
     1065     1065        Can't ONCALLS and have TRACE set at the same time.
     1066     1066        MESSAGE1::
     1067     1067        You must KILL TRACE, then re-issue the ONCALLS directive.
     1068     1068        */
     1069     1069        /*E* ERROR: DDE-E$DD_EXPRNOALLOW
     1070     1070        MESSAGE0::
     1071     1071        Expression not allowed on array reference.
     1072     1072        MESSAGE1::
PL6.E3A0      #001=DDE$ERRS File=DDE$ERRS.:E05TSI                                TUE 07/29/97 13:57 Page:80
     1073     1073        You can't use address expression modification for a
     1074     1074        general array reference with the DISPLAY directive, use
     1075     1075        MODIFY instead.
     1076     1076        */
     1077     1077        /*E* ERROR: DDE-E$DD_NOTINRUM
     1078     1078        MESSAGE0::
     1079     1079        That directive isn't allowed in RUM mode.
     1080     1080        */
     1081     1081        /*E* ERROR: DDE-E$DD_ODDBASE
     1082     1082        MESSAGE0::
     1083     1083        AUTO stack must be on an even word boundary.
     1084     1084        */
     1085     1085        /*E* ERROR: DDE-E$DD_CANTDO_SELF
     1086     1086        MESSAGE0::
     1087     1087        Can't DO - stored directive ID is object of itself.
     1088     1088        */
     1089     1089        /*E* ERROR: DDE-E$DD_NOSSRUM
     1090     1090        MESSAGE0::
     1091     1091        That distinguished name not allowed in RUM mode
     1092     1092        MESSAGE1::
     1093     1093        RUM mode does not allow the following distinguished names:
     1094     1094        $A, $AU, $AL, $Q, $QU, $QL, $E, $EA, $EAQ, $IND, $X0 to
     1095     1095        $X7, and $IC.
     1096     1096        */
     1097     1097
     1098     1098        /*E* ERROR: DDE-E$DD_IF_TRAP
     1099     1099        MESSAGE0::
     1100     1100        Trap during IF processing
     1101     1101        MESSAGE1::
     1102     1102        True value assumed.
     1103     1103        */
     1104     1104        /*E* ERROR: DDE-E$DD_SUBNOTVALID
     1105     1105        MESSAGE0::
     1106     1106        Subscript not valid decimal
     1107     1107        MESSAGE1::
     1108     1108        Value of variable used for subscript is not a legal
     1109     1109        decimal number.
PL6.E3A0      #001=DDE$ERRS File=DDE$ERRS.:E05TSI                                TUE 07/29/97 13:57 Page:81
     1110     1110        */
     1111     1111        /*E* ERROR: DDE-E$DD_RUMBUFS
     1112     1112        MESSAGE0::
     1113     1113        %"%U1" %invalid number of BUFFERs specified.
     1114     1114        MESSAGE1::
     1115     1115        The value of "n" for the BUFFERS=n RUM option must
     1116     1116        be greater than 0 and less than or equal to 10.
     1117     1117        */
     1118     1118        /*E* ERROR: DDE-E$DD_NODEFS_NOTRACE
     1119     1119        MESSAGE0::
     1120     1120        Can't TRACE - no ENTDEFS record
     1121     1121        MESSAGE1::
     1122     1122        Run unit contains no ENTDEFS record so DELTA can't do any
     1123     1123        TRACEing
     1124     1124        */
     1125     1125        /*E* ERROR: DDE-E$DD_CANTACCESS
     1126     1126        MESSAGE0::
     1127     1127        DELTA can't access this location
     1128     1128        */
     1129     1129        /*E* ERROR: DDE-E$DD_CANTALIB
     1130     1130        MESSAGE0::
     1131     1131        Invalid ALIB command - entry to DELTA not via M$ALIB
     1132     1132        */
     1133     1133        /*E* ERROR: DDE-E$DD_CANT_UPDATE_RU
     1134     1134        MESSAGE0::
     1135     1135        Unable to update Run Unit record
     1136     1136        */
     1137     1137        /*E* ERROR: DDE-E$DD_ITEM_TRUNCATED
     1138     1138        MESSAGE0::
     1139     1139        Item truncated to 144 bits
     1140     1140        */
     1141     1141        /*E* ERROR: DDE-E$DD_DBOOT_NOTALLOWED
     1142     1142        MESSAGE0::
     1143     1143        DBOOT directive not allowed here
     1144     1144        MESSAGE1::
     1145     1145        DBOOT directive not allowed as multiple command unless
     1146     1146        it is the last one
PL6.E3A0      #001=DDE$ERRS File=DDE$ERRS.:E05TSI                                TUE 07/29/97 13:57 Page:82
     1147     1147        */
     1148     1148        /*E* ERROR: DDE-E$DD_MINI_NOTALLOWED
     1149     1149        MESSAGE0::
     1150     1150        MINI directive not allowed here
     1151     1151        MESSAGE1::
     1152     1152        MINI directive not allowed as multiple command unless
     1153     1153        it is the last one
     1154     1154        */
     1155     1155        /*E* ERROR: DDE-E$DD_STEP_NOTALLOWED
     1156     1156        MESSAGE0::
     1157     1157        STEP directive not allowed here
     1158     1158        MESSAGE1::
     1159     1159        STEP directive not allowed as multiple command unless
     1160     1160        it is the last one
     1161     1161        */
     1162     1162        /*E* ERROR: DDE-E$DD_TBOOT_NOTALLOWED
     1163     1163        MESSAGE0::
     1164     1164        TBOOT directive not allowed here
     1165     1165        MESSAGE1::
     1166     1166        TBOOT directive not allowed as multiple command unless
     1167     1167        it is the last one
     1168     1168        */
     1169     1169        /*E* ERROR: DDE-E$DD_XEQ_NOTALLOWED
     1170     1170        MESSAGE0::
     1171     1171        XEQ directive not allowed here
     1172     1172        MESSAGE1::
     1173     1173        XEQ directive not allowed as multiple command unless
     1174     1174        it is the last one
     1175     1175        */
     1176     1176        /*E* ERROR: DDE-E$DD_CANTXEQALIB
     1177     1177        MESSAGE0::
     1178     1178        Can't XEQ when entry was via M$ALIB
     1179     1179        MESSAGE1::
     1180     1180        XEQ is not legal when DELTA is associated by M$ALIB
     1181     1181        */
     1182     1182        /*E* ERROR: DDE-E$DD_NO_STORED_COMMANDS
     1183     1183        MESSAGE0::
PL6.E3A0      #001=DDE$ERRS File=DDE$ERRS.:E05TSI                                TUE 07/29/97 13:57 Page:83
     1184     1184        No such stored commands
     1185     1185        MESSAGE1::
     1186     1186        There are no stored commands in the range specified
     1187     1187        */
     1188     1188        /*E* ERROR: DDE-E$DD_NO_SUCH_BREAKPOINTS
     1189     1189        MESSAGE0::
     1190     1190        No such breakpoints
     1191     1191        MESSAGE1::
     1192     1192        There are no breakpoints in the range specified
     1193     1193        */
     1194     1194        /*E* ERROR: DDE-E$DD_SIZE_NOT_WORD
     1195     1195        MESSAGE0::
     1196     1196        Z format not allowed on non word size items
     1197     1197        */
     1198     1198        /*E* ERROR: DDE-E$DD_NOTANLZMODE
     1199     1199        MESSAGE0::
     1200     1200        Directive not allowed in ANLZ mode
     1201     1201        */
     1202     1202        /*E* ERROR: DDE-E$DD_PACKDEC_TRUNCATED
     1203     1203        MESSAGE0::
     1204     1204        Packed decimal truncated
     1205     1205        */
     1206     1206        /*E* ERROR: DDE-E$DD_UNPACKDEC_TRUNCATED
     1207     1207        MESSAGE0::
     1208     1208        Unpacked decimal truncated
     1209     1209        */
     1210     1210        /*E* ERROR: DDE-E$DD_INVALID_SIZE
     1211     1211        MESSAGE0::
     1212     1212        Invalid size for character string
     1213     1213        */
     1214     1214        /*E* ERROR: DDE-E$DD_NOTBATCH
     1215     1215        MESSAGE0::
     1216     1216        Command not allowed in BATCH
     1217     1217        */
     1218     1218        /*E* ERROR: DDE-E$DD_ILLEGAL_ATT#
     1219     1219        MESSAGE0::
     1220     1220        Invalid attachment number specified
PL6.E3A0      #001=DDE$ERRS File=DDE$ERRS.:E05TSI                                TUE 07/29/97 13:57 Page:84
     1221     1221        */
     1222     1222        /*E* ERROR: DDE-E$DD_CANT_UPDATE
     1223     1223        MESSAGE0::
     1224     1224        Can't UPDATE - stored directive doesn't exist - ID = %U2
     1225     1225        */
     1226     1226        /*E* ERROR: DDE-E$DD_ACT_IGNORED_LF
     1227     1227        MESSAGE0::
     1228     1228        Invalid activation character ignored - line feed assumed
     1229     1229        */
     1230     1230        /*E* ERROR: DDE-E$DD_ACT_IGNORED_CR
     1231     1231        MESSAGE0::
     1232     1232        Invalid activation character ignored - carriage return assumed
     1233     1233        */
     1234     1234        /*E* ERROR: DDE-E$DD_SCMD_GREATER256
     1235     1235        MESSAGE0::
     1236     1236        Stored directive > 256 characters long - UPDATE will be done
     1237     1237        an attachment at a time
     1238     1238        */
     1239     1239        /*E* ERROR: DDE-E$DD_NO_ATTACHMENT
     1240     1240        MESSAGE0::
     1241     1241        Specified attachment doesn't exist
     1242     1242        */
     1243     1243        /*E* ERROR: DDE-E$DD_SCMD_RESTORED
     1244     1244        MESSAGE0::
     1245     1245        Stored directive restored to what it was before the
     1246     1246        error in UPDATEing occurred
     1247     1247        */
     1248     1248        /*E* ERROR: DDE-E$DD_SCMD_ERRORED
     1249     1249        MESSAGE0::
     1250     1250        Stored directive errored is:
     1251     1251        */
     1252     1252        /*E* ERROR: DDE-E$DD_TRAP_ADJ_DIM
     1253     1253        MESSAGE0::
     1254     1254        DELTA trapped processing adjustable dimensions
     1255     1255        MESSAGE1::
     1256     1256        Trap occurred while accessing offset or multiplier values
     1257     1257        */
PL6.E3A0      #001=DDE$ERRS File=DDE$ERRS.:E05TSI                                TUE 07/29/97 13:57 Page:85
     1258     1258        /*E* ERROR: DDE-E$DD_TRAP_VIRTUAL
     1259     1259        MESSAGE0::
     1260     1260        DELTA trapped processing virtual arrays
     1261     1261        MESSAGE1::
     1262     1262        Trap occurred while accessing offset or descriptor values
     1263     1263        */
     1264     1264        /*E* ERROR: DDE-E$DD_CANTBRKALIB
     1265     1265        MESSAGE0::
     1266     1266        Can't BREAK when entry was via M$ALIB call.
     1267     1267        */
     1268     1268        /*E* ERROR: DDE-E$DD_CANTGOTRPALIB
     1269     1269        MESSAGE0::
     1270     1270        Can't GOTRAP position when entry was via M$ALIB call.
     1271     1271        */
     1272     1272        /*E* ERROR: DDE-E$DD_CANTGOTSALIB
     1273     1273        MESSAGE0::
     1274     1274        Can't GOTRAPSTEP position when entry was via M$ALIB call.
     1275     1275        */
     1276     1276        /*E* ERROR: DDE-E$DD_CANTGOSTPALIB
     1277     1277        MESSAGE0::
     1278     1278        Can't GOSTEP position when entry was via M$ALIB call.
     1279     1279        */
     1280     1280        /*E* ERROR: DDE-E$DD_CANTXCONALIB
     1281     1281        MESSAGE0::
     1282     1282        Can't XCON when entry was via M$ALIB call.
     1283     1283        */
     1284     1284        /*E* ERROR: DDE-E$DD_CANTEXITALIB
     1285     1285        MESSAGE0::
     1286     1286        Can't EXIT when entry was via M$ALIB call.
     1287     1287        */
     1288     1288        /*E* ERROR: DDE-E$DD_NOTHOSTRU
     1289     1289        MESSAGE0::
     1290     1290        Run unit is not a Host RU.
     1291     1291        */
     1292     1292        /*E* ERROR: DDE-E$DD_NOTFEPRU
     1293     1293        MESSAGE0::
     1294     1294        Run unit is not a FEP RU.
PL6.E3A0      #001=DDE$ERRS File=DDE$ERRS.:E05TSI                                TUE 07/29/97 13:57 Page:86
     1295     1295        */
     1296     1296        /*E* ERROR: DDE-E$DD_BADHEADRECORD
     1297     1297        MESSAGE0::
     1298     1298        Bad head record - use HEAD.X or recompile and relink.
     1299     1299        */
     1300     1300        /*E* ERROR: DDE-E$DD_SYMNOTANLZ
     1301     1301        MESSAGE0::
     1302     1302        Symbol not allowed in ANLZ mode
     1303     1303        */
     1304     1304        /*E* ERROR: DDE-E$DD_NOTCGFID
     1305     1305        MESSAGE0::
     1306     1306        That is not a COMGROUP fid
     1307     1307        MESSAGE1::
     1308     1308        In the command '<station> ON <comgroup>', <comgroup> must be
     1309     1309        a COMGROUP fid
     1310     1310        */
     1311     1311        /*E* ERROR: DDE-E$DD_NODBGDCB
     1312     1312        MESSAGE0::
     1313     1313        Can't get a DCB for debugging
     1314     1314        */
     1315     1315        /*E* ERROR: DDE-E$DD_NOFPRGSWAIT
     1316     1316        MESSAGE0::
     1317     1317        No FPRGs to WAIT for
     1318     1318        */
     1319     1319        /*E* ERROR: DDE-E$DD_NOFPRGSSTOP
     1320     1320        MESSAGE0::
     1321     1321        No FPRGs to STOP
     1322     1322        */
     1323     1323        /*E* ERROR: DDE-E$DD_DIVIDE_CHECK
     1324     1324        MESSAGE0::
     1325     1325        Divide Check
     1326     1326        */
     1327     1327        /*E* ERROR: DDE-E$DD_CMD_ONLY_FPRG
     1328     1328        MESSAGE0::
     1329     1329        Command only allowed for FPRGs
     1330     1330        */
     1331     1331        /*E* ERROR: DDE-E$DD_NOFPRG
PL6.E3A0      #001=DDE$ERRS File=DDE$ERRS.:E05TSI                                TUE 07/29/97 13:57 Page:87
     1332     1332        MESSAGE0::
     1333     1333        That FPRG doesn't exist
     1334     1334        */
     1335     1335        /*E* ERROR: DDE-E$DD_CANTGOTRAPFPRG
     1336     1336        MESSAGE0::
     1337     1337        Can't GOTRAP all when there are FPRGs
     1338     1338        */
     1339     1339        /*E* ERROR: DDE-E$DD_CANTGOSTEPFPRG
     1340     1340        MESSAGE0::
     1341     1341        Can't GOSTEP all when there are FPRGs
     1342     1342        */
     1343     1343        /*E* ERROR: DDE-E$DD_NOFPRGGO
     1344     1344        MESSAGE0::
     1345     1345        No FPRG(s) to GO
     1346     1346        */
     1347     1347        /*E* ERROR: DDE-E$DD_FPRGNOTSTOPPED
     1348     1348        MESSAGE0::
     1349     1349        That FPRG is not stopped
     1350     1350        */
     1351     1351        /*E* ERROR: DDE-E$DD_NODEFS6
     1352     1352        MESSAGE0::
     1353     1353        Can't read alternate schema ENTDEFs record
     1354     1354        */
     1355     1355        /*E* ERROR: DDE-E$DD_NODEFS7
     1356     1356        MESSAGE0::
     1357     1357        Can't read alternate schema SYMDEFs record
     1358     1358        */
     1359     1359        /*E* ERROR: DDE-E$DD_WRONG_SIZE
     1360     1360        MESSAGE0::
     1361     1361        Sizes of new and expected values don't match
     1362     1362        */
     1363     1363        /*E* ERROR: DDE-E$DD_NODEFS_NOONC
     1364     1364        MESSAGE0::
     1365     1365        Can't do ON CALL - no ENTDEFs record
     1366     1366        */
     1367     1367        /*E* ERROR: DDE-E$DD_NOROOMATS
     1368     1368        MESSAGE0::
PL6.E3A0      #001=DDE$ERRS File=DDE$ERRS.:E05TSI                                TUE 07/29/97 13:57 Page:88
     1369     1369        Can't get memory for breakpoints
     1370     1370        */
     1371     1371        /*E* ERROR: DDE-E$DD_TOOMANYBKPNTS
     1372     1372        MESSAGE0::
     1373     1373        Too many breakpoints are set for this Front-end Program -
     1374     1374        only 20 are allowed
     1375     1375        */
     1376     1376        /*E* ERROR: DDE-E$DD_ERR_KILLFPRGAT
     1377     1377        MESSAGE0::
     1378     1378        %"%U1" %Can't kill an FPRG breakpoint - number = %U2
     1379     1379        */
     1380     1380        /*E* ERROR: DDE-E$DD_INVALID_HOSTSUBDIRECTIVE
     1381     1381        MESSAGE0::
     1382     1382        Invalid subdirective for HOST
     1383     1383        */
     1384     1384        /*E* ERROR: DDE-E$DD_INVALID_FEPSUBDIRECTIVE
     1385     1385        MESSAGE0::
     1386     1386        Invalid subdirective for FEP
     1387     1387        */
     1388     1388        /*E* ERROR: DDE-E$DD_BADBKPNTADDR
     1389     1389        MESSAGE0::
     1390     1390        Invalid address specified for the breakpoint
     1391     1391        */
     1392     1392        /*E* ERROR: DDE-E$DD_BAD_CONSTANT
     1393     1393        MESSAGE0::
     1394     1394        %"%U1" %Bad constant
     1395     1395        */
     1396     1396        /*E* ERROR: DDE-E$DD_TOOMANY_DIGITS
     1397     1397        MESSAGE0::
     1398     1398        Too many digits in "%U1" for %U2 bits
     1399     1399        */
     1400     1400        /*E* ERROR: DDE-E$DD_NO_INST
     1401     1401        MESSAGE0::
     1402     1402        %%U1 % Instruction / register combination not found
     1403     1403        */
     1404     1404        /*E* ERROR: DDE-E$DD_BAD_ADDR_MODE
     1405     1405        MESSAGE0::
PL6.E3A0      #001=DDE$ERRS File=DDE$ERRS.:E05TSI                                TUE 07/29/97 13:57 Page:89
     1406     1406        %%U1 % That's not a valid addressing mode for this instruction
     1407     1407        */
     1408     1408        /*E* ERROR: DDE-E$DD_BAD_VALUE
     1409     1409        MESSAGE0::
     1410     1410        %%U1 % Value in operand field exceeds range for this instruction; zero substituted
     1411     1411        */
     1412     1412        /*E* ERROR: DDE-E$DD_UN_IM_INST
     1413     1413        MESSAGE0::
     1414     1414        %%U1 % Unimplemented instruction
     1415     1415        */
     1416     1416        /*E* ERROR: DDE-E$DD_SHORT_PREL_ERROR
     1417     1417        MESSAGE0::
     1418     1418        Displacement underflow / overflow detected; instruction ignored
     1419     1419        */
     1420     1420        /*E* ERROR: DDE-E$DD_BAD_REG
     1421     1421        MESSAGE0::
     1422     1422        %%U1 % Illegal register in operand field
     1423     1423        */
     1424     1424        /*E* ERROR: DDE-E$DD_NO_MASK
     1425     1425        MESSAGE0::
     1426     1426        %%U1 % Expected mask not found
     1427     1427        */
     1428     1428        /*E* ERROR: DDE-E$DD_BAD_MASK
     1429     1429        MESSAGE0::
     1430     1430        %%U1 % Mask field not evaluatable; zero substituted
     1431     1431        */
     1432     1432        /*E* ERROR: DDE-E$DD_MISSING_OPERAND
     1433     1433        MESSAGE0::
     1434     1434        %%U1 % Expected operand in operand field not found; instruction ignored
     1435     1435        */
     1436     1436        /*E* ERROR: DDE-E$DD_SYMNOTHOST
     1437     1437        MESSAGE0::
     1438     1438        Symbol not allowed in Host mode
     1439     1439        */
     1440     1440        /*E* ERROR: DDE-E$DD_BAD_$O
     1441     1441        MESSAGE0::
     1442     1442        $O can not be calculated in this particular case
PL6.E3A0      #001=DDE$ERRS File=DDE$ERRS.:E05TSI                                TUE 07/29/97 13:57 Page:90
     1443     1443        */
     1444     1444        /*E* ERROR: DDE-E$DD_FEPSYM_NOTANLZ
     1445     1445        MESSAGE0::
     1446     1446        FEP symbol not allowed in ANLZ mode
     1447     1447        */
     1448     1448        /*E* ERROR: DDE-E$DD_VREFTOOLONG
     1449     1449        MESSAGE0::
     1450     1450        Variable reference too long for DELTA to handle
     1451     1451        */
     1452     1452        /*E* ERROR: DDE-E$DD_SYMNOTFEP
     1453     1453        MESSAGE0::
     1454     1454        Symbol not allowed in FEP mode
     1455     1455        */
     1456     1456        /*E* ERROR: DDE-E$DD_NOT_INTERPRETIVE
     1457     1457        MESSAGE0::
     1458     1458        Command not allowed for interpretive programs
     1459     1459        */
     1460     1460        /*E* ERROR: DDE-E$DD_CANTFORMAT
     1461     1461        MESSAGE0::
     1462     1462        Data item is too big to be formatted
     1463     1463        */
     1464     1464        /*E* ERROR: DDE-E$DD_WRONFEPFMT
     1465     1465        MESSAGE0::
     1466     1466        Invalid FEP format
     1467     1467        */
     1468     1468        /*E* ERROR: DDE-E$DD_ANLZ_NONODEDIR
     1469     1469        MESSAGE0::
     1470     1470        Can't find Node Directory
     1471     1471        */
     1472     1472        /*E* ERROR: DDE-E$DD_SIZEMISFMT
     1473     1473        MESSAGE0::
     1474     1474        Can't display item of this size in specified format
     1475     1475        */
     1476     1476        /*E* ERROR: DDE-E$DD_NOFPRGS_SHOW
     1477     1477        MESSAGE0::
     1478     1478        No FPRGS to SHOW
     1479     1479        */
PL6.E3A0      #001=DDE$ERRS File=DDE$ERRS.:E05TSI                                TUE 07/29/97 13:57 Page:91
     1480     1480        /*E* ERROR: DDE-E$DD_NOTIMPFPRG
     1481     1481        MESSAGE0::
     1482     1482        Command not implemented for FEP programs
     1483     1483        */
     1484     1484        /*E* ERROR: DDE-E$DD_ADDR_CONFLICT
     1485     1485        MESSAGE0::
     1486     1486       Instruction addressing mode conflict; two different addressing modes specified at th
              1486        e same time
     1487     1487        */
     1488     1488        /*E* ERROR: DDE-E$DD_STEP_ERROR
     1489     1489        MESSAGE0::
     1490     1490        Error occured while trying to STEP in FEP program
     1491     1491        */
     1492     1492        /*E* ERROR: DDE-E$DD_EVAL_ERROR
     1493     1493        MESSAGE0::
     1494     1494        Error occured while trying to evaluate an address in FEP program
     1495     1495        */
     1496     1496        /*E* ERROR: DDE-E$DD_NOFPRGUSE
     1497     1497        MESSAGE0::
     1498     1498        No FPRG(s) to USE
     1499     1499        */
     1500     1500        /*E* ERROR: DDE-E$DD_LARGEINST
     1501     1501        MESSAGE0::
     1502     1502        Instruction too long to be evaluated
     1503     1503        */
     1504     1504        /*E* ERROR: DDE-E$DD_RUMONLY_DIR
     1505     1505        MESSAGE0::
     1506     1506        RUM mode only directive
     1507     1507        */
     1508     1508        /*E* ERROR: DDE-E$DD_FMTCONFLICT
     1509     1509        MESSAGE0::
     1510     1510        Conflict in format specified
     1511     1511        */
     1512     1512        /*E* ERROR: DDE-E$DD_WRONHOSTFMT
     1513     1513        MESSAGE0::
     1514     1514        Invalid HOST format
     1515     1515        */
PL6.E3A0      #001=DDE$ERRS File=DDE$ERRS.:E05TSI                                TUE 07/29/97 13:57 Page:92
     1516     1516        /*E* ERROR: DDE-E$DD_ITEM_TRUNC_256
     1517     1517        MESSAGE0::
     1518     1518        Item truncated to 256 bits
     1519     1519        */
     1520     1520        /*E* ERROR: DDE-E$DD_CHARCALIGN
     1521     1521        MESSAGE0::
     1522     1522        Character variables must be at least CALIGNED
     1523     1523        */
     1524     1524        /*E* ERROR: DDE-E$DD_STATIONINUSE
     1525     1525        MESSAGE0::
     1526     1526        That station is already in use
     1527     1527        */
     1528     1528        /*E* ERROR: DDE-E$DD_NOSUCHSTATION
     1529     1529        MESSAGE0::
     1530     1530        That station doesn't exist
     1531     1531        */
     1532     1532        /*E* ERROR: DDE-E$DD_WHENCOHEN
     1533     1533        MESSAGE0::
     1534     1534        Real Programmers don't use WHENs - you wimp!!
     1535     1535        */
     1536     1536        /*E* ERROR: DDE-E$DD_NOTL6XDELTA
     1537     1537        MESSAGE0::
     1538     1538        User DELTA only directive in FEP XDELTA mode
     1539     1539        */
     1540     1540        /*E* ERROR: DDE-E$DD_TRAP_ELMNTSIZ
     1541     1541        MESSAGE0::
     1542     1542        DELTA trapped processing indirect element size
     1543     1543        */
     1544     1544        /*E* ERROR: DDE-E$DD_NOCHANSELECTED
     1545     1545        MESSAGE0::
     1546     1546        No channel currently selected
     1547     1547        */
     1548     1548        /*E* ERROR: DDE-E$DD_NOTAB
     1549     1549        MESSAGE0::
     1550     1550        TAB (Indirect) doesn't make sense here
     1551     1551        */
     1552     1552        /*E* ERROR: DDE-E$DD_NOCANBREAK
PL6.E3A0      #001=DDE$ERRS File=DDE$ERRS.:E05TSI                                TUE 07/29/97 13:57 Page:93
     1553     1553        MESSAGE0::
     1554     1554        Can't say break while proccessing user event
     1555     1555        */
     1556     1556        /*E* ERROR: DDE-E$DD_MASKNOTALLOWED
     1557     1557        MESSAGE0::
     1558     1558        Mask field not allowed
     1559     1559        */
     1560     1560        /*E* ERROR: DDE-E$DD_NOT_DPS90
     1561     1561        MESSAGE0::
     1562     1562        That symbol is not valid on this cpu type
     1563     1563        */
     1564     1564        /*E* ERROR: DDE-E$DD_FPRGRUNNING
     1565     1565        MESSAGE0::
     1566     1566        Can't step - FPRG is running
     1567     1567        */
     1568     1568        /* Internal error codes (start at 500) */
     1569     1569        /*E* ERROR: DDE-E$DD_BADMSG
     1570     1570        MESSAGE0::
     1571     1571        Last message received by FD was bad
     1572     1572        */
     1573     1573        /*E* ERROR: DDE-E$DD_CMDNOTSUPPORT
     1574     1574        MESSAGE0::
     1575     1575        Command not supported for FPRGs
     1576     1576        */
     1577     1577        /*E* ERROR: DDE-E$DD_ITEM_TRUNC_312
     1578     1578        MESSAGE0::
     1579     1579        Item truncated to 312 characters
     1580     1580        */
     1581     1581        /*E* ERROR: DDE-E$DD_SPREL_NOT_VALID
     1582     1582        MESSAGE0::
     1583     1583        SPREL not allowed for this instruction
     1584     1584        */
     1585     1585        /*E* ERROR: DDE-E$DD_BADXBREAK
     1586     1586        MESSAGE0::
     1587     1587        Interpreter associated in the FEP did an
     1588     1588        M$XBREAK without a VLP_XBREAK
     1589     1589        */
PL6.E3A0      #001=DDE$ERRS File=DDE$ERRS.:E05TSI                                TUE 07/29/97 13:57 Page:94
     1590     1590        /*E* ERROR: DDE-E$DD_FEPXDELTAONLY
     1591     1591        MESSAGE0::
     1592     1592        Command only allowed for FEP XDELTA
     1593     1593        */
     1594     1594        /*E* ERROR: DDE-E$DD_LINEDEAD
     1595     1595        MESSAGE0::
     1596     1596        Specified line is dead
     1597     1597        */
     1598     1598        /*E* ERROR: DDE-E$DD_CANTMODLCT
     1599     1599        MESSAGE0::
     1600     1600        Couldn't modify the specified LCT
     1601     1601        */
     1602     1602        /*E* ERROR: DDE-E$DD_CANTLET
     1603     1603        MESSAGE0::
     1604     1604        LET of this type of variable unsupported
     1605     1605        */
     1606     1606        /*E* ERROR: DDE-E$DD_ROBFULL
     1607     1607        MESSAGE0::
     1608     1608        RUM LIST record truncated to 120 chars
     1609     1609        */
     1610     1610
     1611     1611        /* Internal error codes (start at 500) */
     1612     1612        /*E* ERROR: DDE-E$DD_PARSERR
     1613     1613        MESSAGE0::
     1614     1614        @%U1 X$PARSE altret, PCB.ERROR.CODE=%U2
     1615     1615        */
     1616     1616        /*E* ERROR: DDE-E$DD_DERR1
     1617     1617        MESSAGE0::
     1618     1618        @%U1 X$PARSE returned unknown directive code
     1619     1619        */
     1620     1620        /*E* ERROR: DDE-E$DD_DELBUG
     1621     1621        MESSAGE0::
     1622     1622        @%U1 DELTA BUG..I should not have gotten here
     1623     1623        */
     1624     1624        /*E* ERROR: DDE-E$DD_NOTIMP
     1625     1625        MESSAGE0::
     1626     1626        @%U1 Unimplemented condition encountered.
PL6.E3A0      #001=DDE$ERRS File=DDE$ERRS.:E05TSI                                TUE 07/29/97 13:57 Page:95
     1627     1627        */
     1628     1628        /*E* ERROR: DDE-E$DD_CANTXEQ
     1629     1629        MESSAGE0::
     1630     1630        @%U1 Can't XEQ this instruction
     1631     1631        */
     1632     1632        /*E* ERROR: DDE-E$DD_CANTSTEP
     1633     1633        MESSAGE0::
     1634     1634        @%U1 Can't STEP this instruction
     1635     1635        */
     1636     1636        /*E* ERROR: DDE-E$DD_BADIC
     1637     1637        MESSAGE0::
     1638     1638        @%U1 IC for GO out of IS range
     1639     1639        */
     1640     1640        /*E* ERROR: DDE-E$DD_BADFPRGAT
     1641     1641        MESSAGE0::
     1642     1642        @%U1 Can't find the FPRG for breakpoint number = %U2
     1643     1643        */
     1644     1644        /*E* ERROR: DDE-E$DD_BAD_EWSQ
     1645     1645        MESSAGE0::
     1646     1646        @%U1 Unknown WSQ at fault time
     1647     1647        */
     1648     1648        /*E* ERROR: DDE-E$DD_MUST_KILL_BRK
     1649     1649        MESSAGE0::
     1650     1650        @%U1 Breakpoint on special instruction - like PMME
     1651     1651        */
     1652     1652        /*E* ERROR: DDE-E$DD_RISKY_BRK
     1653     1653        MESSAGE0::
     1654     1654        @%U1 Breakpoint has IC or indirect modification
     1655     1655        */
     1656     1656        /*E* ERROR: DDE-E$DD_NOTDECIMAL
     1657     1657        MESSAGE0::
     1658     1658        @%U1 Node not 'DECIMALS' in DDS$DECIMAL
     1659     1659        */
     1660     1660        /*E* ERROR: DDE-E$DD_NO_B$USRT$
     1661     1661        MESSAGE0::
     1662     1662        @%U1 Can't find user table
     1663     1663        */
PL6.E3A0      #001=DDE$ERRS File=DDE$ERRS.:E05TSI                                TUE 07/29/97 13:57 Page:96
     1664     1664        /*E* ERROR: DDE-E$DD_NOS_CNODE
     1665     1665        MESSAGE0::
     1666     1666        @%U1 Can't find S_CNODE
     1667     1667        */
     1668     1668        /*E* ERROR: DDE-E$DD_LOST_TT
     1669     1669        MESSAGE0::
     1670     1670        @%U1 Trace Transfer lost
     1671     1671        */
     1672     1672        /*E* ERROR: DDE-E$DD_RELRUM
     1673     1673        MESSAGE0::
     1674     1674        @%U1 Can't release RUM dcb
     1675     1675        */
     1676     1676        /*E* ERROR: DDE-E$DD_RELS_D
     1677     1677        MESSAGE0::
     1678     1678        @%U1 Can't release static data memory area
     1679     1679        */
     1680     1680        /*E* ERROR: DDE-E$DD_RELND
     1681     1681        MESSAGE0::
     1682     1682        @%U1 Can't release RUM/OVERLAY data segment
     1683     1683        */
     1684     1684        /*E* ERROR: DDE-E$DD_CLSRUM
     1685     1685        MESSAGE0::
     1686     1686        @%U1 Can't close RUM dcb
     1687     1687        */
     1688     1688        /*E* ERROR: DDE-E$DD_ACROS
     1689     1689        MESSAGE0::
     1690     1690        @%U1 Can't access RUM RU read-only-segment
     1691     1691        */
     1692     1692        /*E* ERROR: DDE-E$DD_NOTIME
     1693     1693        MESSAGE0::
     1694     1694        @%U1 Can't get RUM UTS from M$TIME
     1695     1695        */
     1696     1696        /*E* ERROR: DDE-E$DD_NO_LET_ARRAYS
     1697     1697        MESSAGE0::
     1698     1698        LET of arrays not implemented
     1699     1699        */
     1700     1700        /*E* ERROR: DDE-E$DD_CLSFPRG
PL6.E3A0      #001=DDE$ERRS File=DDE$ERRS.:E05TSI                                TUE 07/29/97 13:57 Page:97
     1701     1701        MESSAGE0::
     1702     1702        Can't close the FPRG DCB
     1703     1703        */
     1704     1704        /*E* ERROR: DDE-E$DD_RELFPRG
     1705     1705        MESSAGE0::
     1706     1706        Can't release the FPRG DCB
     1707     1707        */
     1708     1708        /*E* ERROR: DDE-E$DD_BADMESSAGE
     1709     1709        MESSAGE0::
     1710     1710        Received a bad message from the FD
     1711     1711        */
     1712     1712        /*E* ERROR: DDE-E$DD_BADEVENT
     1713     1713        MESSAGE0::
     1714     1714        Received a bad event for an FPRG
     1715     1715        */
     1716     1716        /*E* ERROR: DDE-E$DD_BADBRKPNT
     1717     1717        MESSAGE0::
     1718     1718        Unknown stored command in FIXCOM
     1719     1719        */
     1720     1720        /*E* ERROR: DDE-E$DD_DDNOTFEP
     1721     1721        MESSAGE0::
     1722     1722        Data Descriptor malformed or not FEP format
     1723     1723        */
     1724     1724        /*E* ERROR: DDE-E$DD_BAD_PUT1
     1725     1725        MESSAGE0::
     1726     1726        @%U1 Can't put into descriptor storage
     1727     1727        */
     1728     1728        /*E* ERROR: DDE-E$DD_BAD_PUT2
     1729     1729        MESSAGE0::
     1730     1730        @%U1 Can't store into missing page
     1731     1731        */
     1732     1732        /*E* ERROR: DDE-E$DD_NOTOCTIL
     1733     1733        MESSAGE0::
     1734     1734        @%U1 Node not 'OCTIL' in DDS$OCTAL
     1735     1735        */
     1736     1736        /*E* ERROR: DDE-E$DD_NOTHEX
     1737     1737        MESSAGE0::
PL6.E3A0      #001=DDE$ERRS File=DDE$ERRS.:E05TSI                                TUE 07/29/97 13:57 Page:98
     1738     1738        @%U1 Node not 'HEXIL' in DDS$HEX
     1739     1739        */
     1740     1740        /*E* ERROR: DDE-E$DD_KILLCASE
     1741     1741        MESSAGE0::
     1742     1742        @%U1 Build kill case(else)
     1743     1743        */
     1744     1744        /*E* ERROR: DDE-E$DD_SHOWCASE
     1745     1745        MESSAGE0::
     1746     1746        @%U1 Build show case(else)
     1747     1747        */
     1748     1748        /*E* ERROR: DDE-E$DD_SSF
     1749     1749        MESSAGE0::
     1750     1750        @%U1 Safe store less than 192 words
     1751     1751        */
     1752     1752        /*E* ERROR: DDE-E$DD_DO_SCAN_FAULT
     1753     1753        MESSAGE0::
     1754     1754        @%U1 Fault in DELTA during do or scan phase
     1755     1755        */
     1756     1756        /*E* ERROR: DDE-E$DD_HARD_FAULT
     1757     1757        MESSAGE0::
     1758     1758        @%U1 Hard fault in DELTA, go to MINI
     1759     1759        */
     1760     1760        /*E* ERROR: DDE-E$DD_BAD_SOC_RET
     1761     1761        MESSAGE0::
     1762     1762        @%U1 Can't SOC this PROC/ENTRY, $X1 is invalid
     1763     1763        */
     1764     1764
     1765     1765    1   END DDE$ERRS;

PL6.E3A0      #001=DDE$ERRS File=DDE$ERRS.:E05TSI                                TUE 07/29/97 13:57 Page:99
--  Include file information  --

   B$JIT_C.:E05TOU  was found in the system file and is never referenced.
   CP_6_C.:E05TOU  was found in the system file and is never referenced.
      No diagnostics issued in procedure DDE$ERRS.

   No code generated for procedure DDE$ERRS .
   Procedure DDE$ERRS requires 4 words of local(AUTO) storage.

    No errors detected in file DDE$ERRS.:E05TSI    .
PL6.E3A0      #001=DDE$ERRS File=DDE$ERRS.:E05TSI                                TUE 07/29/97 13:57 Page:100
          *** CROSS REFERENCE LISTING ***
**     DENOTES     IDENTIFIER DEFINITION
<<                 IDENTIFIER'S VALUE SET
>>                 IDENTIFIER'S VALUE USED
<>                 IDENTIFIER SET AND/OR USED
--                 IDENTIFIER REFERENCED
PL6.E3A0      #001=DDE$ERRS File=DDE$ERRS.:E05TSI                                TUE 07/29/97 13:57 Page:101
          MINI XREF LISTING

PL6.E3A0      #001=DDE$ERRS File=DDE$ERRS.:E05TSI                                TUE 07/29/97 13:57 Page:102
          *** CROSS REFERENCE LISTING ***
**     DENOTES     IDENTIFIER DEFINITION
<<                 IDENTIFIER'S VALUE SET
>>                 IDENTIFIER'S VALUE USED
<>                 IDENTIFIER SET AND/OR USED
--                 IDENTIFIER REFERENCED
PL6.E3A0      #001=DDE$ERRS File=DDE$ERRS.:E05TSI                                TUE 07/29/97 13:57 Page:103
          MINI UREF LISTING

DDE$ERRS       9**PROC
