VERSION E05

PL6.E3A0      #001=DDI$SETUP File=DDI$SETUP.:E05TSI                              TUE 07/29/97 13:59 Page:1
        1        1        /*M* DDI$SETUP - EVERYTIME INITIALIZATION FOR USER DELTA */
        2        2        /*T***********************************************************/
        3        3        /*T*                                                         */
        4        4        /*T* Copyright (c) Bull HN Information Systems Inc., 1997    */
        5        5        /*T*                                                         */
        6        6        /*T***********************************************************/
        7        7        /*X* DMR,PLM=5,IND=5,CSU=3,EXM=0,ECU=3,MOC,DCI=5,CRT=5 */
        8        8        /*P*
        9        9             NAME: DDI$SETUP
       10       10             PURPOSE:
       11       11                   To set up everything for this time through DELTA
       12       12             DESCRIPTION:
       13       13                   Initialize the context structure for this time through DELTA.
       14       14                   Call the SCHEMA_SETUP Modules to establish the current schema.
       15       15        */
       16       16        DDI$SETUP: PROC;
       17       17        %INCLUDE B$SS;
       18      196        %INCLUDE B_STRINGS_C;
       19      325        %INCLUDE CP_6;
       20      406        %B$TCB;
       21      409        %B$EXCFR;
       22      427        %FPT_DRTN(FPTN=FPT$DRTN,STCLASS=BASED);
       23      451    1   DCL 1 UREGS BASED,
       24      452    1         2 *(0:6) UBIN;                    /* SEVEN WORDS FOR THE REGISTERS */
       25      453        %INCLUDE XUH_MACRO_C;
       26      537        %INCLUDE DD_SD_M;
       27     1873        %S_D;
       28     3191    1   DCL UTCB$ PTR SYMREF;
       29     3192    1   DCL B$TCB$ PTR SYMREF;
       30     3193    1   DCL UIS$ PTR SYMREF;
       31     3194    1   DCL 1 SHRUNKISR BASED ALIGNED,
       32     3195    1         2 * BIT(50) UNAL,
       33     3196    1         2 BASE UBIN(20) UNAL;
       34     3197    1   DCL DDS$ES_INQ ENTRY(1) ALTRET;
       35     3198    1   DCL DDS$SET_Q2C ENTRY ALTRET;
       36     3199                                                /**/
       37     3200    1        S_D.SV.DELENT = 0;                 /* INITIALIZE TO NOT USER FAULT */
PL6.E3A0      #001=DDI$SETUP File=DDI$SETUP.:E05TSI                              TUE 07/29/97 13:59 Page:2
       38     3201    1        IF S_D.STAND_ALONE THEN S_D.TCB$ = ADDR(NIL);
       39     3202    1        ELSE S_D.TCB$ = UTCB$->B$TCB.STK$; /* Point into his stack */
       40     3203    1        S_D.USS$ = B$TCB$->B$TCB.STK$;
       41     3204    1        S_D.ACTUALIC = S_D.USS$->B$SS.IC;
       42     3205    1        IF S_D.USS$ -> B$SS.ISR.WSR = %USERWSR
       43     3206    1        THEN S_D.ISBASE = ADDR(S_D.USS$->B$SS.ISR)->SHRUNKISR.BASE - BITBIN('200000'O);
       44     3207    1        ELSE S_D.ISBASE = 0;
       45     3208    1        S_D.GOIC = S_D.ACTUALIC + S_D.ISBASE;
       46     3209    1        S_D.TIC = S_D.GOIC;
       47     3210    1        S_D.FAULTINS$ = PINCRW(UIS$,S_D.TIC);
       48     3211    1        S_D.FAULT = S_D.USS$->B$SS.FC;
       49     3212    1        S_D.DO$ = ADDR(NIL);
       50     3213    1        S_D.FAULTCMD$  = ADDR(NIL);
       51     3214    1        S_D.ENTRYCMD$ = ADDR(NIL);
       52     3215    1        S_D.HELPING = '0'B;
       53     3216    1        S_D.LAST_ERROR = '0'B;
       54     3217    1        S_D.GO_MODE = '0'B;
       55     3218    1        S_D.DO_SCAN = '0'B;
       56     3219    1        S_D.ERROR_SYM$ = ADDR(NIL);
       57     3220    1        S_D.ERROR = 0;
       58     3221    1        S_D.ACCESS = '0'B;
       59     3222    1        S_D.IND$ = PINCRW(S_D.USS$,4);
       60     3223    1        S_D.UREG$->UREGS = S_D.USS$->B$EXCFR.REGS;
       61     3224    1        S_D.DRTN$ -> FPT$DRTN.V.IR# = S_D.USS$ -> B$EXCFR.IR;
       62     3225    1        S_D.TREE$ = S_D.MTREE$;
       63     3226    1        CALL DDS$ES_INQ(S_D.TIC);
       64     3227    1        S_D.UNODE.CURRENT = S_D.NODE;
       65     3228    1        CALL DDS$SET_Q2C;
       66     3229    1        RETURN;
       67     3230    1   END;

PL6.E3A0      #001=DDI$SETUP File=DDI$SETUP.:E05TSI                              TUE 07/29/97 13:59 Page:3
--  Include file information  --

   DD_SD_M.:E05TOU  is referenced.
   XUH_MACRO_C.:E05TOU  is referenced.
   CP_6.:E05TOU  cannot be made into a system file and is referenced.
   B_STRINGS_C.:E05TOU  is referenced.
   B$SS.:E05TOU  cannot be made into a system file and is referenced.
   B$JIT_C.:E05TOU  was found in the system file and is never referenced.
   CP_6_C.:E05TOU  was found in the system file and is referenced.
      No diagnostics issued in procedure DDI$SETUP.

   Procedure DDI$SETUP requires 79 words for executable code.
   Procedure DDI$SETUP requires 6 words of local(AUTO) storage.

    No errors detected in file DDI$SETUP.:E05TSI    .

PL6.E3A0      #001=DDI$SETUP File=DDI$SETUP.:E05TSI                              TUE 07/29/97 13:59 Page:4

 Object Unit name= DDI$SETUP                                  File name= DDI$SETUP.:E05TOU
 UTS= JUL 29 '97 13:59:24.64 TUE                              Compiler= PL-6/E31         Sev=      00
 SharedLib= :SHARED_SYSTEM                                    Alt SharedLib=


    ****  Control sections  ****

 Sect   Type Bound  Init  Size OctSiz  Section name(segment info)
    0   DCB   even  none     0      0  M$UC
    1   Proc  even  none    79    117  DDI$SETUP
    2  RoData even  none     1      1  DDI$SETUP

    ****  Entry defs  ****

                              Check   Calling
                             calling  sequence
  Sect OctLoc Primary Altret sequence   type   Parms  Name
     1      0   yes            yes      Std        0  DDI$SETUP

  ****  Entry refs  ****

         Check        Calling
        calling       sequence
Altret sequence SRef   type   Args  Name
 yes     yes           Std       1 DDS$ES_INQ
 yes     yes           Std       0 DDS$SET_Q2C
                       nStd      0 X66_AUTO_0
                       Std       0 B_CONSPOOL_D
                       nStd      0 X66_ARET

  ****  Data refs  ****

  Flags:  r = read only, s = secondary
Flgs Name                             Flgs Name                             Flgs Name
     M$UC                             r    S_D$                                  UTCB$
     B$TCB$                                UIS$                                  B_VECTNIL
PL6.E3A0      #001=DDI$SETUP File=DDI$SETUP.:E05TSI                              TUE 07/29/97 13:59 Page:5


        1        1        /*M* DDI$SETUP - EVERYTIME INITIALIZATION FOR USER DELTA */
        2        2        /*T***********************************************************/
        3        3        /*T*                                                         */
        4        4        /*T* Copyright (c) Bull HN Information Systems Inc., 1997    */
        5        5        /*T*                                                         */
        6        6        /*T***********************************************************/
        7        7        /*X* DMR,PLM=5,IND=5,CSU=3,EXM=0,ECU=3,MOC,DCI=5,CRT=5 */
        8        8        /*P*
        9        9             NAME: DDI$SETUP
       10       10             PURPOSE:
       11       11                   To set up everything for this time through DELTA
       12       12             DESCRIPTION:
       13       13                   Initialize the context structure for this time through DELTA.
       14       14                   Call the SCHEMA_SETUP Modules to establish the current schema.
       15       15        */
       16       16        DDI$SETUP: PROC;

     16  1 000000   000000 700200 xent  DDI$SETUP    TSX0  ! X66_AUTO_0
         1 000001   000006 000000                    ZERO    6,0

       17       17        %INCLUDE B$SS;
       18      196        %INCLUDE B_STRINGS_C;
       19      325        %INCLUDE CP_6;
       20      406        %B$TCB;
       21      409        %B$EXCFR;
       22      427        %FPT_DRTN(FPTN=FPT$DRTN,STCLASS=BASED);
       23      451    1   DCL 1 UREGS BASED,
       24      452    1         2 *(0:6) UBIN;                    /* SEVEN WORDS FOR THE REGISTERS */
       25      453        %INCLUDE XUH_MACRO_C;
       26      537        %INCLUDE DD_SD_M;
       27     1873        %S_D;
       28     3191    1   DCL UTCB$ PTR SYMREF;
       29     3192    1   DCL B$TCB$ PTR SYMREF;
       30     3193    1   DCL UIS$ PTR SYMREF;
       31     3194    1   DCL 1 SHRUNKISR BASED ALIGNED,
       32     3195    1         2 * BIT(50) UNAL,
PL6.E3A0      #001=DDI$SETUP File=DDI$SETUP.:E05TSI                              TUE 07/29/97 13:59 Page:6
       33     3196    1         2 BASE UBIN(20) UNAL;
       34     3197    1   DCL DDS$ES_INQ ENTRY(1) ALTRET;
       35     3198    1   DCL DDS$SET_Q2C ENTRY ALTRET;
       36     3199                                                /**/
       37     3200    1        S_D.SV.DELENT = 0;                 /* INITIALIZE TO NOT USER FAULT */

   3200  1 000002   000000 470400 xsym               LDP0    S_D$
         1 000003   000037 450100                    STZ     31,,PR0

       38     3201    1        IF S_D.STAND_ALONE THEN S_D.TCB$ = ADDR(NIL);

   3201  1 000004   004624 234100                    SZN     2452,,PR0
         1 000005   000011 605000 1                  TPL     s:3202

   3201  1 000006   000001 236000 xsym               LDQ     B_VECTNIL+1
         1 000007   004751 756100                    STQ     2537,,PR0
         1 000010   000014 710000 1                  TRA     s:3203

       39     3202    1        ELSE S_D.TCB$ = UTCB$->B$TCB.STK$; /* Point into his stack */

   3202  1 000011   000000 471400 xsym               LDP1    UTCB$
         1 000012   100001 236100                    LDQ     1,,PR1
         1 000013   004751 756100                    STQ     2537,,PR0

       40     3203    1        S_D.USS$ = B$TCB$->B$TCB.STK$;

   3203  1 000014   000000 471400 xsym               LDP1    B$TCB$
         1 000015   100001 236100                    LDQ     1,,PR1
         1 000016   000005 756100                    STQ     5,,PR0

       41     3204    1        S_D.ACTUALIC = S_D.USS$->B$SS.IC;

   3204  1 000017   000005 473500                    LDP3    5,,PR0
         1 000020   300004 236100                    LDQ     4,,PR3
         1 000021   000022 772000                    QRL     18
         1 000022   004656 756100                    STQ     2478,,PR0

PL6.E3A0      #001=DDI$SETUP File=DDI$SETUP.:E05TSI                              TUE 07/29/97 13:59 Page:7
       42     3205    1        IF S_D.USS$ -> B$SS.ISR.WSR = %USERWSR

   3205  1 000023   300010 236100                    LDQ     8,,PR3
         1 000024   000160 376007                    ANQ     112,DL
         1 000025   000160 116007                    CMPQ    112,DL
         1 000026   000035 601000 1                  TNZ     s:3207

       43     3206    1       THEN S_D.ISBASE = ADDR(S_D.USS$->B$SS.ISR)->SHRUNKISR.BASE - BITBIN('200000'O);

   3206  1 000027   300011 236100                    LDQ     9,,PR3
         1 000030   000002 772000                    QRL     2
         1 000031   000000 376000 2                  ANQ     0
         1 000032   200000 136007                    SBLQ    65536,DL
         1 000033   000720 756100                    STQ     464,,PR0
         1 000034   000036 710000 1                  TRA     s:3208

       44     3207    1        ELSE S_D.ISBASE = 0;

   3207  1 000035   000720 450100                    STZ     464,,PR0

       45     3208    1        S_D.GOIC = S_D.ACTUALIC + S_D.ISBASE;

   3208  1 000036   004656 236100                    LDQ     2478,,PR0
         1 000037   000720 036100                    ADLQ    464,,PR0
         1 000040   000001 756100                    STQ     1,,PR0

       46     3209    1        S_D.TIC = S_D.GOIC;

   3209  1 000041   000027 756100                    STQ     23,,PR0

       47     3210    1        S_D.FAULTINS$ = PINCRW(UIS$,S_D.TIC);

   3210  1 000042   000022 736000                    QLS     18
         1 000043   000000 036000 xsym               ADLQ    UIS$
         1 000044   000003 756100                    STQ     3,,PR0

       48     3211    1        S_D.FAULT = S_D.USS$->B$SS.FC;
PL6.E3A0      #001=DDI$SETUP File=DDI$SETUP.:E05TSI                              TUE 07/29/97 13:59 Page:8

   3211  1 000045   300005 236100                    LDQ     5,,PR3
         1 000046   000023 772000                    QRL     19
         1 000047   000037 376007                    ANQ     31,DL
         1 000050   000030 756100                    STQ     24,,PR0

       49     3212    1        S_D.DO$ = ADDR(NIL);

   3212  1 000051   000001 236000 xsym               LDQ     B_VECTNIL+1
         1 000052   000031 756100                    STQ     25,,PR0

       50     3213    1        S_D.FAULTCMD$  = ADDR(NIL);

   3213  1 000053   000004 756100                    STQ     4,,PR0

       51     3214    1        S_D.ENTRYCMD$ = ADDR(NIL);

   3214  1 000054   005203 756100                    STQ     2691,,PR0

       52     3215    1        S_D.HELPING = '0'B;

   3215  1 000055   005252 450100                    STZ     2730,,PR0

       53     3216    1        S_D.LAST_ERROR = '0'B;

   3216  1 000056   005234 450100                    STZ     2716,,PR0

       54     3217    1        S_D.GO_MODE = '0'B;

   3217  1 000057   000020 450100                    STZ     16,,PR0

       55     3218    1        S_D.DO_SCAN = '0'B;

   3218  1 000060   000017 450100                    STZ     15,,PR0

       56     3219    1        S_D.ERROR_SYM$ = ADDR(NIL);

PL6.E3A0      #001=DDI$SETUP File=DDI$SETUP.:E05TSI                              TUE 07/29/97 13:59 Page:9
   3219  1 000061   000032 756100                    STQ     26,,PR0

       57     3220    1        S_D.ERROR = 0;

   3220  1 000062   000013 450100                    STZ     11,,PR0

       58     3221    1        S_D.ACCESS = '0'B;

   3221  1 000063   000016 450100                    STZ     14,,PR0

       59     3222    1        S_D.IND$ = PINCRW(S_D.USS$,4);

   3222  1 000064   000005 236100                    LDQ     5,,PR0
         1 000065   000004 036003                    ADLQ    4,DU
         1 000066   000046 756100                    STQ     38,,PR0

       60     3223    1        S_D.UREG$->UREGS = S_D.USS$->B$EXCFR.REGS;

   3223  1 000067   000045 474500                    LDP4    37,,PR0
         1 000070   000100 100500                    MLR     fill='000'O
         1 000071   300050 000034                    ADSC9   40,,PR3                  cn=0,n=28
         1 000072   400000 000034                    ADSC9   0,,PR4                   cn=0,n=28

       61     3224    1        S_D.DRTN$ -> FPT$DRTN.V.IR# = S_D.USS$ -> B$EXCFR.IR;

   3224  1 000073   004704 471500                    LDP1    2500,,PR0
         1 000074   000005 473500                    LDP3    5,,PR0
         1 000075   300004 720100                    LXL0    4,,PR3
         1 000076   100012 440100                    SXL0    10,,PR1

       62     3225    1        S_D.TREE$ = S_D.MTREE$;

   3225  1 000077   004762 236100                    LDQ     2546,,PR0
         1 000100   004761 756100                    STQ     2545,,PR0

       63     3226    1        CALL DDS$ES_INQ(S_D.TIC);

PL6.E3A0      #001=DDI$SETUP File=DDI$SETUP.:E05TSI                              TUE 07/29/97 13:59 Page:10
   3226  1 000101   000000 236000 xsym               LDQ     S_D$
         1 000102   000027 036003                    ADLQ    23,DU
         1 000103   200004 756100                    STQ     4,,AUTO
         1 000104   200004 630500                    EPPR0   4,,AUTO
         1 000105   000017 631400 xsym               EPPR1   B_VECTNIL+15
         1 000106   000000 701000 xent               TSX1    DDS$ES_INQ
         1 000107   000000 011000                    NOP     0

       64     3227    1        S_D.UNODE.CURRENT = S_D.NODE;

   3227  1 000110   000000 470400 xsym               LDP0    S_D$
         1 000111   004706 235100                    LDA     2502,,PR0
         1 000112   004757 755100                    STA     2543,,PR0

       65     3228    1        CALL DDS$SET_Q2C;

   3228  1 000113   000002 631400 xsym               EPPR1   B_VECTNIL+2
         1 000114   000000 701000 xent               TSX1    DDS$SET_Q2C
         1 000115   000000 011000                    NOP     0

       66     3229    1        RETURN;

   3229  1 000116   000000 702200 xent               TSX2  ! X66_ARET

(unnamed)
 Sect OctLoc
   2     000   000003 777777                                                    ....
       67     3230    1   END;

PL6.E3A0      #001=DDI$SETUP File=DDI$SETUP.:E05TSI                              TUE 07/29/97 13:59 Page:11
--  Include file information  --

   DD_SD_M.:E05TOU  is referenced.
   XUH_MACRO_C.:E05TOU  is referenced.
   CP_6.:E05TOU  cannot be made into a system file and is referenced.
   B_STRINGS_C.:E05TOU  is referenced.
   B$SS.:E05TOU  cannot be made into a system file and is referenced.
   B$JIT_C.:E05TOU  was found in the system file and is never referenced.
   CP_6_C.:E05TOU  was found in the system file and is referenced.
      No diagnostics issued in procedure DDI$SETUP.

   Procedure DDI$SETUP requires 79 words for executable code.
   Procedure DDI$SETUP requires 6 words of local(AUTO) storage.

    No errors detected in file DDI$SETUP.:E05TSI    .
PL6.E3A0      #001=DDI$SETUP File=DDI$SETUP.:E05TSI                              TUE 07/29/97 13:59 Page:12
          *** CROSS REFERENCE LISTING ***
**     DENOTES     IDENTIFIER DEFINITION
<<                 IDENTIFIER'S VALUE SET
>>                 IDENTIFIER'S VALUE USED
<>                 IDENTIFIER SET AND/OR USED
--                 IDENTIFIER REFERENCED
PL6.E3A0      #001=DDI$SETUP File=DDI$SETUP.:E05TSI                              TUE 07/29/97 13:59 Page:13
          MINI XREF LISTING

B$EXCFR.ASL
       410**DCL       410--REDEF
B$EXCFR.ERR.ERR#
       424**DCL       424--REDEF
B$EXCFR.EVID
       423**DCL       423--REDEF     424--REDEF
B$EXCFR.IR
       411**DCL       411--REDEF    3224>>ASSIGN
B$EXCFR.PREVSZ
       410**DCL       410--REDEF
B$EXCFR.REGS
       421**DCL      3223>>ASSIGN
B$EXCFR.SUBC
       422**DCL       422--REDEF     423--REDEF     423--REDEF
B$SS.FC
        58**DCL      3211>>ASSIGN
B$SS.IC
        36**DCL      3204>>ASSIGN
B$SS.ISR
        71**DCL      3206--ASSIGN
B$SS.ISR.WSR
        74**DCL      3205>>IF
B$SS.RVA
        69**DCL        70--REDEF
B$TCB.STK$
       407**DCL      3202>>ASSIGN   3203>>ASSIGN
B$TCB$
      3192**DCL      3203>>ASSIGN
DDS$ES_INQ
      3197**DCL-ENT  3226--CALL
DDS$SET_Q2C
      3198**DCL-ENT  3228--CALL
PL6.E3A0      #001=DDI$SETUP File=DDI$SETUP.:E05TSI                              TUE 07/29/97 13:59 Page:14
FPT$DRTN.V.IR#
       440**DCL       440--REDEF    3224<<ASSIGN
SHRUNKISR.BASE
      3196**DCL      3206>>ASSIGN
S_D.ACCESS
      1912**DCL      3221<<ASSIGN
S_D.ACTUALIC
      2386**DCL      3204<<ASSIGN   3208>>ASSIGN
S_D.CURRENT_CHANNEL
      2825**DCL      2827--REDEF
S_D.DEBUGA
      1977**DCL      1979--REDEF
S_D.DO$
      1928**DCL      3212<<ASSIGN
S_D.DO_SCAN
      1914**DCL      3218<<ASSIGN
S_D.DRTN$
      2430**DCL      3224>>ASSIGN
S_D.EIS
      2935**DCL      2964--REDEF
S_D.ENTRYCMD$
      2677**DCL      3214<<ASSIGN
S_D.ERROR
      1906**DCL      3220<<ASSIGN
S_D.ERROR_SYM$
      1930**DCL      3219<<ASSIGN
S_D.FAULT
      1926**DCL      3211<<ASSIGN
S_D.FAULTCMD$
      1892**DCL      3213<<ASSIGN
S_D.FAULTINS$
      1890**DCL      3210<<ASSIGN
S_D.GOIC
      1886**DCL      3208<<ASSIGN   3209>>ASSIGN
S_D.GO_MODE
      1916**DCL      3217<<ASSIGN
PL6.E3A0      #001=DDI$SETUP File=DDI$SETUP.:E05TSI                              TUE 07/29/97 13:59 Page:15
S_D.HELPING
      2728**DCL      3215<<ASSIGN
S_D.HOST_MESSAGE_BUF_REMOTE
      2868**DCL      2869--REDEF    2883--REDEF
S_D.IND$
      1967**DCL      3222<<ASSIGN
S_D.ISBASE
      2155**DCL      3206<<ASSIGN   3207<<ASSIGN   3208>>ASSIGN
S_D.JDE
      2482**DCL      2483--REDEF
S_D.L$.VALUE
      2035**DCL      2041--REDEF    2049--REDEF    2052--REDEF    2055--REDEF    2058--REDEF
S_D.L$.VALUE.L
      2036**DCL      2037--REDEF    2038--REDEF
S_D.L6_MESSAGE_BUF
      2889**DCL      2891--REDEF
S_D.LAST_ERROR
      2700**DCL      3216<<ASSIGN
S_D.MTREE$
      2535**DCL      3225>>ASSIGN
S_D.NODE
      2434**DCL      3227>>ASSIGN
S_D.OUTPUT
      2855**DCL      2857--REDEF
S_D.REMOTE_MSG.FNCC
      2874**DCL      2875--REDEF
S_D.REMOTE_MSG.STXC
      2870**DCL      2871--REDEF
S_D.REMOTE_MSG.SUBFNCC
      2878**DCL      2879--REDEF
S_D.STAND_ALONE
      2350**DCL      3201>>IF
S_D.SV
      1934**DCL      1955--REDEF
S_D.SV.DELENT
      1942**DCL      3200<<ASSIGN
PL6.E3A0      #001=DDI$SETUP File=DDI$SETUP.:E05TSI                              TUE 07/29/97 13:59 Page:16
S_D.TCB$
      2515**DCL      3201<<ASSIGN   3202<<ASSIGN
S_D.TIC
      1924**DCL      3209<<ASSIGN   3210>>ASSIGN   3226<>CALL
S_D.TREE$
      2533**DCL      3225<<ASSIGN
S_D.UNODE.CURRENT
      2529**DCL      3227<<ASSIGN
S_D.UREG$
      1965**DCL      3223>>ASSIGN
S_D.USS$
      1894**DCL      3203<<ASSIGN   3204>>ASSIGN   3205>>IF       3206>>ASSIGN   3211>>ASSIGN   3222>>ASSIGN
      3223>>ASSIGN   3224>>ASSIGN
S_D$
      3186**DCL      1882--IMP-PTR  3200>>ASSIGN   3201>>IF       3201>>ASSIGN   3202>>ASSIGN   3203>>ASSIGN
      3204>>ASSIGN   3204>>ASSIGN   3205>>IF       3206>>ASSIGN   3206>>ASSIGN   3207>>ASSIGN   3208>>ASSIGN
      3208>>ASSIGN   3208>>ASSIGN   3209>>ASSIGN   3209>>ASSIGN   3210>>ASSIGN   3210>>ASSIGN   3211>>ASSIGN
      3211>>ASSIGN   3212>>ASSIGN   3213>>ASSIGN   3214>>ASSIGN   3215>>ASSIGN   3216>>ASSIGN   3217>>ASSIGN
      3218>>ASSIGN   3219>>ASSIGN   3220>>ASSIGN   3221>>ASSIGN   3222>>ASSIGN   3222>>ASSIGN   3223>>ASSIGN
      3223>>ASSIGN   3224>>ASSIGN   3224>>ASSIGN   3225>>ASSIGN   3225>>ASSIGN   3226>>CALL     3227>>ASSIGN
      3227>>ASSIGN
UIS$
      3193**DCL      3210>>ASSIGN
UREGS
       451**DCL      3223<<ASSIGN
UTCB$
      3191**DCL      3202>>ASSIGN
PL6.E3A0      #001=DDI$SETUP File=DDI$SETUP.:E05TSI                              TUE 07/29/97 13:59 Page:17
              *** CROSS REFERENCE LISTING ***
    **     DENOTES     IDENTIFIER DEFINITION
    <<                 IDENTIFIER'S VALUE SET
    >>                 IDENTIFIER'S VALUE USED
    <>                 IDENTIFIER SET AND/OR USED
    --                 IDENTIFIER REFERENCED
PL6.E3A0      #001=DDI$SETUP File=DDI$SETUP.:E05TSI                              TUE 07/29/97 13:59 Page:18
              MINI UREF LISTING

DDI$SETUP      16**PROC
M$ACCT     351**DCL-ENT
M$ACTIVATE     354**DCL-ENT
M$ALIB     347**DCL-ENT
M$ASUSER     349**DCL-ENT
M$ATTACH     356**DCL-ENT
M$BADPP     374**DCL-ENT
M$CGCTL     355**DCL-ENT
M$CGINFO     355**DCL-ENT
M$CHECK     336**DCL-ENT
M$CHGUNIT     394**DCL-ENT
M$CLOSE     334**DCL-ENT
M$CLRSTK     392**DCL-ENT
M$CMDVAR     403**DCL-ENT
M$CONFIG     364**DCL-ENT
M$CORRES     339**DCL-ENT
M$CPEXIT     348**DCL-ENT
M$CVM     372**DCL-ENT
M$CVOL     337**DCL-ENT
M$DCLFLD     364**DCL-ENT
M$DEACTIVATE     354**DCL-ENT
M$DELREC     336**DCL-ENT
M$DEQ     401**DCL-ENT
M$DETACH     356**DCL-ENT
M$DEVICE     338**DCL-ENT
M$DISPLAY     401**DCL-ENT
M$DISPRES     341**DCL-ENT
M$DLIB     347**DCL-ENT
M$DRIBBLE     364**DCL-ENT
M$DRTN     392**DCL-ENT
M$DSUSER     349**DCL-ENT
M$ENQ     400**DCL-ENT
PL6.E3A0      #001=DDI$SETUP File=DDI$SETUP.:E05TSI                              TUE 07/29/97 13:59 Page:19
M$EOM     359**DCL-ENT
M$ERASE     365**DCL-ENT
M$ERR     346**DCL-ENT
M$ERRMSG     397**DCL-ENT
M$EVENT     389**DCL-ENT
M$EXHUME     398**DCL-ENT
M$EXIT     346**DCL-ENT
M$EXTEND     338**DCL-ENT
M$FDP     370**DCL-ENT
M$FDS     369**DCL-ENT
M$FEBOOT     362**DCL-ENT
M$FECTL     363**DCL-ENT
M$FEDUMP     362**DCL-ENT
M$FID     397**DCL-ENT
M$FINDPROC     351**DCL-ENT
M$FSUSER     349**DCL-ENT
M$FVP     371**DCL-ENT
M$FWCG     355**DCL-ENT
M$GBPL     375**DCL-ENT
M$GDDL     371**DCL-ENT
M$GDP     370**DCL-ENT
M$GDS     369**DCL-ENT
M$GETDCB     340**DCL-ENT
M$GETMOUSE     380**DCL-ENT
M$GETPM     381**DCL-ENT
M$GJOB     399**DCL-ENT
M$GLINEATTR     359**DCL-ENT
M$GOODPP     374**DCL-ENT
M$GPLATEN     367**DCL-ENT
M$GPROMPT     366**DCL-ENT
M$GTRMATTR     360**DCL-ENT
M$GTRMCTL     358**DCL-ENT
M$GTRMTAB     361**DCL-ENT
M$GVP     370**DCL-ENT
M$HELP     397**DCL-ENT
M$INT     389**DCL-ENT
PL6.E3A0      #001=DDI$SETUP File=DDI$SETUP.:E05TSI                              TUE 07/29/97 13:59 Page:20
M$INTRTN     350**DCL-ENT
M$IOQ     385**DCL-ENT
M$JOBSTATS     399**DCL-ENT
M$KEYIN     339**DCL-ENT
M$LDEV     334**DCL-ENT
M$LDTRC     347**DCL-ENT
M$LIMIT     340**DCL-ENT
M$LINES     339**DCL-ENT
M$LINK     346**DCL-ENT
M$MADMUCK     342**DCL-ENT
M$MAKUSER     373**DCL-ENT
M$MBS     341**DCL-ENT
M$MDFFLD     365**DCL-ENT
M$MERC     390**DCL-ENT
M$MERCS     391**DCL-ENT
M$MIRROR     385**DCL-ENT
M$MONINFO     402**DCL-ENT
M$MPL     375**DCL-ENT
M$NODEINFO     366**DCL-ENT
M$NXTUSR     400**DCL-ENT
M$OCMSG     398**DCL-ENT
M$OLAY     346**DCL-ENT
M$OPEN     334**DCL-ENT
M$PAS     375**DCL-ENT
M$PATHCON     398**DCL-ENT
M$PDS     369**DCL-ENT
M$PFIL     336**DCL-ENT
M$PLATEN     360**DCL-ENT
M$PRECORD     338**DCL-ENT
M$PROCNAME     351**DCL-ENT
M$PROFILE     362**DCL-ENT
M$PROMPT     358**DCL-ENT
M$RACST     342**DCL-ENT
M$RDSYSLOG     383**DCL-ENT
M$READ     335**DCL-ENT
M$RELDCB     340**DCL-ENT
PL6.E3A0      #001=DDI$SETUP File=DDI$SETUP.:E05TSI                              TUE 07/29/97 13:59 Page:21
M$RELRES     341**DCL-ENT
M$RELSTARF     343**DCL-ENT
M$REM     343**DCL-ENT
M$RENV     390**DCL-ENT
M$REQUIRE     342**DCL-ENT
M$RETRY     391**DCL-ENT
M$RETRYS     391**DCL-ENT
M$REW     337**DCL-ENT
M$RLSFLD     365**DCL-ENT
M$RPRIV     393**DCL-ENT
M$RSPP     372**DCL-ENT
M$RSWITCH     394**DCL-ENT
M$RUE     400**DCL-ENT
M$SAD     373**DCL-ENT
M$SAVE     349**DCL-ENT
M$SCON     350**DCL-ENT
M$SCREECH     348**DCL-ENT
M$SENV     390**DCL-ENT
M$SETFMA     334**DCL-ENT
M$SETFP     363**DCL-ENT
M$SINPUT     361**DCL-ENT
M$SLCFLD     366**DCL-ENT
M$SMOUSE     380**DCL-ENT
M$SMPRT     372**DCL-ENT
M$SPRIV     393**DCL-ENT
M$SSC     373**DCL-ENT
M$SSWITCH     393**DCL-ENT
M$STATE     402**DCL-ENT
M$STD     374**DCL-ENT
M$STIMER     388**DCL-ENT
M$STLPP     371**DCL-ENT
M$STRAP     388**DCL-ENT
M$STRMATTR     360**DCL-ENT
M$STRMCTL     358**DCL-ENT
M$STRMTAB     361**DCL-ENT
M$SYMBIO     399**DCL-ENT
PL6.E3A0      #001=DDI$SETUP File=DDI$SETUP.:E05TSI                              TUE 07/29/97 13:59 Page:22
M$SYSCON     385**DCL-ENT
M$SYSID     403**DCL-ENT
M$TDCLOSE     384**DCL-ENT
M$TDIO     384**DCL-ENT
M$TDOPEN     383**DCL-ENT
M$TDREQCPU     384**DCL-ENT
M$TEMPWROC     378**DCL-ENT
M$TIME     401**DCL-ENT
M$TRAP     388**DCL-ENT
M$TRMISC     363**DCL-ENT
M$TRMPRG     359**DCL-ENT
M$TRTN     392**DCL-ENT
M$TRUNC     335**DCL-ENT
M$TTIMER     388**DCL-ENT
M$UC     358**DCL
M$UMPL     375**DCL-ENT
M$UNFID     397**DCL-ENT
M$UNLATCH     354**DCL-ENT
M$UNSHARE     351**DCL-ENT
M$USRFIELD     394**DCL-ENT
M$VIRTUAL     369**DCL-ENT
M$WAIT     392**DCL-ENT
M$WEOF     337**DCL-ENT
M$WRITE     335**DCL-ENT
M$WRSYSLOG     383**DCL-ENT
M$XCON     389**DCL-ENT
M$XCONRTN     350**DCL-ENT
M$XEQTIME     402**DCL-ENT
M$XFLUSH     343**DCL-ENT
M$XMOUSE     380**DCL-ENT
M$XXX     346**DCL-ENT
M$YC     348**DCL-ENT
