VERSION E05

PL6.E3A0      #001=DDK$ADDEXPR File=DDK$ADDEXPR.:E05TSI                          TUE 07/29/97 13:59 Page:1
        1        1        /*M*  DDK$ADDEXPR - PL6 DRIVER FOR BMAP DDK$ADDX_A */
        2        2        /*T***********************************************************/
        3        3        /*T*                                                         */
        4        4        /*T* Copyright (c) Bull HN Information Systems Inc., 1997    */
        5        5        /*T*                                                         */
        6        6        /*T***********************************************************/
        7        7        /*X* DMR,PLM=5,IND=5,CSU=3,EXM=0,ECU=3,MOC,DCI=5,CRT=5 */
        8        8        DDK$ADDEXPR: PROC(OFFSET, EXPR_VAL, EXPR_OP);
        9        9    1   DCL OFFSET SBIN;
       10       10    1   DCL EXPR_VAL SBIN;
       11       11    1   DCL EXPR_OP SBIN;
       12       12    1   DCL DDK$ADDX_A ENTRY;
       13       13        /**/
       14       14    1        CALL DDK$ADDX_A;
       15       15    1        EXPR_OP = 0;
       16       16    1        RETURN;
       17       17    1   END DDK$ADDEXPR;

PL6.E3A0      #001=DDK$ADDEXPR File=DDK$ADDEXPR.:E05TSI                          TUE 07/29/97 13:59 Page:2
--  Include file information  --

   B$JIT_C.:E05TOU  was found in the system file and is never referenced.
   CP_6_C.:E05TOU  was found in the system file and is never referenced.
      No diagnostics issued in procedure DDK$ADDEXPR.

   Procedure DDK$ADDEXPR requires 8 words for executable code.
   Procedure DDK$ADDEXPR requires 6 words of local(AUTO) storage.

    No errors detected in file DDK$ADDEXPR.:E05TSI    .

PL6.E3A0      #001=DDK$ADDEXPR File=DDK$ADDEXPR.:E05TSI                          TUE 07/29/97 13:59 Page:3

 Object Unit name= DDK$ADDEXPR                                File name= DDK$ADDEXPR.:E05TOU
 UTS= JUL 29 '97 13:59:47.80 TUE                              Compiler= PL-6/E31         Sev=      00
 SharedLib= :SHARED_SYSTEM                                    Alt SharedLib=


    ****  Control sections  ****

 Sect   Type Bound  Init  Size OctSiz  Section name(segment info)
    0   Proc  even  none     8     10  DDK$ADDEXPR

    ****  Entry defs  ****

                              Check   Calling
                             calling  sequence
  Sect OctLoc Primary Altret sequence   type   Parms  Name
     0      0   yes            yes      Std        3  DDK$ADDEXPR

  ****  Entry refs  ****

         Check        Calling
        calling       sequence
Altret sequence SRef   type   Args  Name
         yes           Std       0 DDK$ADDX_A
                       nStd      0 X66_AUTO_3
                       Std       0 B_CONSPOOL_D
                       nStd      0 X66_ARET

  ****  Data refs  ****

  Flags:  r = read only, s = secondary
Flgs Name                             Flgs Name                             Flgs Name
     B_VECTNIL
PL6.E3A0      #001=DDK$ADDEXPR File=DDK$ADDEXPR.:E05TSI                          TUE 07/29/97 13:59 Page:4


        1        1        /*M*  DDK$ADDEXPR - PL6 DRIVER FOR BMAP DDK$ADDX_A */
        2        2        /*T***********************************************************/
        3        3        /*T*                                                         */
        4        4        /*T* Copyright (c) Bull HN Information Systems Inc., 1997    */
        5        5        /*T*                                                         */
        6        6        /*T***********************************************************/
        7        7        /*X* DMR,PLM=5,IND=5,CSU=3,EXM=0,ECU=3,MOC,DCI=5,CRT=5 */
        8        8        DDK$ADDEXPR: PROC(OFFSET, EXPR_VAL, EXPR_OP);

      8  0 000000   000000 700200 xent  DDK$ADDEXPR  TSX0  ! X66_AUTO_3
         0 000001   000006 000003                    ZERO    6,3

        9        9    1   DCL OFFSET SBIN;
       10       10    1   DCL EXPR_VAL SBIN;
       11       11    1   DCL EXPR_OP SBIN;
       12       12    1   DCL DDK$ADDX_A ENTRY;
       13       13        /**/
       14       14    1        CALL DDK$ADDX_A;

     14  0 000002   000002 631400 xsym               EPPR1   B_VECTNIL+2
         0 000003   000000 701000 xent               TSX1    DDK$ADDX_A
         0 000004   000000 011000                    NOP     0

       15       15    1        EXPR_OP = 0;

     15  0 000005   200005 470500                    LDP0    @EXPR_OP,,AUTO
         0 000006   000000 450100                    STZ     0,,PR0

       16       16    1        RETURN;

     16  0 000007   000000 702200 xent               TSX2  ! X66_ARET
       17       17    1   END DDK$ADDEXPR;

PL6.E3A0      #001=DDK$ADDEXPR File=DDK$ADDEXPR.:E05TSI                          TUE 07/29/97 13:59 Page:5
--  Include file information  --

   B$JIT_C.:E05TOU  was found in the system file and is never referenced.
   CP_6_C.:E05TOU  was found in the system file and is never referenced.
      No diagnostics issued in procedure DDK$ADDEXPR.

   Procedure DDK$ADDEXPR requires 8 words for executable code.
   Procedure DDK$ADDEXPR requires 6 words of local(AUTO) storage.

    No errors detected in file DDK$ADDEXPR.:E05TSI    .
PL6.E3A0      #001=DDK$ADDEXPR File=DDK$ADDEXPR.:E05TSI                          TUE 07/29/97 13:59 Page:6
          *** CROSS REFERENCE LISTING ***
**     DENOTES     IDENTIFIER DEFINITION
<<                 IDENTIFIER'S VALUE SET
>>                 IDENTIFIER'S VALUE USED
<>                 IDENTIFIER SET AND/OR USED
--                 IDENTIFIER REFERENCED
PL6.E3A0      #001=DDK$ADDEXPR File=DDK$ADDEXPR.:E05TSI                          TUE 07/29/97 13:59 Page:7
          MINI XREF LISTING

DDK$ADDX_A
        12**DCL-ENT    14--CALL
EXPR_OP
        11**DCL         8--PROC       15<<ASSIGN
EXPR_VAL
        10**DCL         8--PROC
OFFSET
         9**DCL         8--PROC
PL6.E3A0      #001=DDK$ADDEXPR File=DDK$ADDEXPR.:E05TSI                          TUE 07/29/97 13:59 Page:8
              *** CROSS REFERENCE LISTING ***
    **     DENOTES     IDENTIFIER DEFINITION
    <<                 IDENTIFIER'S VALUE SET
    >>                 IDENTIFIER'S VALUE USED
    <>                 IDENTIFIER SET AND/OR USED
    --                 IDENTIFIER REFERENCED
PL6.E3A0      #001=DDK$ADDEXPR File=DDK$ADDEXPR.:E05TSI                          TUE 07/29/97 13:59 Page:9
              MINI UREF LISTING

DDK$ADDEXPR       8**PROC
