VERSION E05

 14:03 07/29/97  FILE=DDK$GETV_A.:E05TSI                                                                 1    BMAP - B00
                                         1  *M*  DDK$GETV_A - BMAP EXTENSION TO DDK$GETVAL
                                         2  *T***********************************************************
                                         3  *T*                                                         *
                                         4  *T* Copyright (c) Bull HN Information Systems Inc., 1997    *
                                         5  *T*                                                         *
                                         6  *T***********************************************************
                                         7  *      TABS 7,16,34
 0 000000                                8        USE      DDK$GETV_A,1
                                         9        ENTDEF   DDK$GETV_A
                                        10  * POINTERS REFERENCING XDELTA'S LINKAGE SEGMENT
                                        11        SYMREF   USDS$             TYPE1 USER SPECIAL DESCRIPTOR STORAGE
                                        12        SYMREF   USS1$             TYPE1 SAFE-STORE
                                        13        SYMREF   UPS$              TYPE1 PARM STK
                                        14  *     (OFFSET   -
                                        15  *       FROM   UAS$              TYPE1 ARG STK
                                        16  *        UPS$) ULS$              TYPE1 LNK SEG
                                        17        SYMREF   DLS$              TYPE0 XDLS
                                        18        SYMREF   REALX$            TYPE0 WSQ0
                                        19        SYMREF   REALXB_OFF        OFFSET FROM XDLS TO BASE OF REALX$ DESC
                                        20        SYMREF   MAPX$             TYPE0 WSQ2
                                        21        SYMREF   MAPXB_OFF         OFFSET FORM XDLS TO BASE OF MAPX$ DESC
                                        22        SYMREF   IOBUF$            TYPE0 XDELTA
                                        23        SYMREF   UJIT$             TYPE0 WSQ2 JIT
                                        24        SYMREF   UHJIT$            TYPE0 WSQ HJIT
                                        25        SYMREF   USE$              TYPE0 XDELTA
                                        26        SYMREF   S_D_ACCESS$       PTR INTO S_D
                                        27        SYMREF   S_D_REM_ACCESS$   PTR INTO S_D
                                        28        SYMREF   S_D_USS$$         PTR INTO S_D
                                        29        SYMREF   S_D_TCB$$         PTR INTO S_D
                                        30        SYMREF   S_D_ANLZ$         PTR INTO S_D
                                        31        SYMREF   MALS$             PTR TO SPECIAL MON LS FOR ANLZ/DELTA
                                        32        SYMREF   MIS$              PTR TO MONITOR INSTR SEG (WSPTD)
                                        33        SYMREF   SCX1$             SCRATCH DESC
                                        34        SYMREF   SCX1_OFF          OFFSET TO SCRATCH DESC FROM DLS$
                                        35        SYMREF   S_D_SAD$          PTR INTO S_D
                                        36        SYMREF   S_D_IPRFLT$       PTR INTO S_D
                                        37        SYMREF   S_D_ASTACKOFF$    PTR INTO S_D
 14:03 07/29/97  FILE=DDK$GETV_A.:E05TSI                                                                 2    BMAP - B00
                                        38        SYMREF   SAD$              PTR FOR SPCL DESC # FOR $SAD
                                        39        SYMREF   D_XDELTA          IS THIS XDELTA FLAG
                                        40        SYMREF   WSR               XDELTA STORAGE OF WSR REG'S
                                        41        SYMREF   S_D_HW_RES_MEM$     DO WE HAVE RES MEM
                                        42        SYMREF   S_D_HW_PTB_UNITS$   PTB UNITS
                                        43        SYMREF   S_D_HW_WSQ0PT$
                                        44        SYMREF   IPHY$
                                        45        SEGREF   DR6SID
                                        46  *
             000000000003               47  USE_USER@ EQU  3
             000000000004               48  USE_USER# EQU  4
                                        49  *
             000000000001               50  AR     EQU     1
             000000000001               51  RL     EQU     1
                                        52  *
             000000000002               53  AUTO  EQU      2
             000000000000               54  PR0   EQU      0
             000000000001               55  PR1   EQU      1
             000000000002               56  PR2   EQU      2
             000000000003               57  PR3   EQU      3
             000000000004               58  PR4   EQU      4
             000000000005               59  PR5   EQU      5
             000000000006               60  PR6   EQU      6
             000000000007               61  PR7   EQU      7
                                        62  *  VALUES FOR OFFSETS TO DDX$GETVAL PARM AND AUTO PTRS
             000000000003               63  VAL$  EQU      3                 PTR
             000000000004               64  ITEM  EQU      4                 STRUC(36)
             000000000005               65  SVALUE EQU     5                 SBIN
             000000000006               66  DSIZE EQU      6                 SBIN
             000000000007               67  RSIZE EQU      7                 SBIN
             000000000010               68  INDXX EQU      8                 SBIN
             000000000011               69  PNTR  EQU      9                 SBIN/PTR
             000000000012               70  EXPR_VAL EQU   10                SBIN
             000000000013               71  EXPR_OP EQU    11                SBIN
             000000000014               72  ADDR_TYPE EQU  12                SBIN
             000000000015               73  ARRAY_FLAG EQU 13                BIT(1)
             000000000016               74  TRUNC_FLAG EQU 14                BIT(1)
 14:03 07/29/97  FILE=DDK$GETV_A.:E05TSI                                                                 3    BMAP - B00
             000000000017               75  EIS   EQU      15                UBIN
             000000000004               76  MVNU_EIS  EQU  4                 EIS WHAT CODE FOR FIRST MVN OPERATION
             000000000014               77  UMVNU_EIS  EQU 12                EIS WHT CODE FOR FIRST UNPACKED MVN OPERATION
                                        78  *  LOCAL AUTO
             000000000020               79  OFFSET EQU     16                SBIN
             000000000022               80  DESC  EQU      18                BIT(72) DALIGNED
             000000000024               81  TEMP1 EQU      20                SBIN
             000000000025               82  TEMP2 EQU      21                SBIN
             000000000026               83  TRUNC EQU      22                BIT(1)
             000000000027               84  POINTER EQU    23                SBIN/PTR
             000000000030               85  SZ    EQU      24                SBIN
             000000000031               86  WHAT  EQU      25                UBIN
             000000000032               87  TAR   EQU      26                UBIN
             000000000033               88  WSQ#  EQU      27                UBIN
             000000000034               89  PTW1  EQU      28                UBIN
             000000000035               90  PTW2  EQU      29                UBIN
             000000000036               91  MAPSZ EQU      30                UBIN
             000000000037               92  PT#   EQU      31                UBIN
             000000000040               93  ERRCODE EQU    32                UBIN
             000000000041               94  RET   EQU      33                UBIN

 14:03 07/29/97  FILE=DDK$GETV_A.:E05TSI                                                                 4    BMAP - B00
                                        95        EJECT
          (0)000000000000               96  DDK$GETV_A EQU    *
                                        97  *
                                        98  *
                                        99  *  PNTR IS 36-BIT VALUE, EITHER A USER POINTER OR AN
                                       100  *     ENCODED SPECIAL SYMBOL
                                       101  *
                                       102  *  OFFSET IS 36-BIT BIT OFFSET TO BE ADDED TO POINTER VALUE
                                       103  *
                                       104  *  DSIZE IS SIZE OF DATA TO BE FETCHED / STOWED
                                       105  *
                                       106  *  RSIZE IS SIZE OF DATA TO RETURN / PUT
                                       107  *
   000000    2 00041 7411 00           108        STX1     RET,,AUTO
   000001    2 00027 2351 00           109        LDA      POINTER,,AUTO
   000002    000012 7310 00            110        ARS      10
   000003    000003 3750 07            111        ANA      3,DL              GET S-FIELD OF SEGID
   000004    000001 1150 07            112        CMPA     1,DL              IS IT SPECIAL SYMBOL ?
   000005 (0)000047 6000 00            113        TZE      NOTUSER           T/ YES, NOT A USER POINTER
                                       114  * USER POINTER
   000006  X 000000 4754 05            115        LDP5     UPS$,AL           GET DELTA'S PTR TO USER DESC SEG
                                       116  *                                (EITHER UPS$, UAS$, OR ULS$)
   000007    2 00027 2361 00           117        LDQ      POINTER,,AUTO
   000010    001777 3760 07            118        ANQ      =O1777,DL         GET D-FIELD OF SEGID
   000011    000001 7360 00            119        QLS      1                 MAKE INTO WORD DISP
   000012  X 000000 4774 00            120        LDP7     S_D_ANLZ$
   000013    7 00000 2201 00           121        LDX0     0,,PR7            is this ANLZ/DELTA
   000014 (0)000033 6050 00            122        TPL      NOTANLZ1
   000015    000003 1150 07            123        CMPA     3,DL
   000016 (0)001314 6010 00            124        TNZ      NOTANLZ3          not LS
   000017  X 000000 4754 00            125        LDP5     MALS$             special MON LS
   000020    400000 2350 03            126        LDA      =O400000,DU
   000021  X 000000 4744 00            127        LDP4     S_D_ACCESS$
   000022    4 00000 7551 00           128        STA      0,,PR4
   000023  X 000000 4744 00            129        LDP4     S_D_REM_ACCESS$
   000024    4 00000 4525 00           130        STP      AUTO,0,,PR4       do PL6 remember
   000025 (0)001302 6350 00            131        EAA      UPACCESSFAULT
 14:03 07/29/97  FILE=DDK$GETV_A.:E05TSI                                                                 5    BMAP - B00
   000026    4 00001 7551 00           132        STA      1,,PR4
   000027    5 00000 6765 06           133        LDD6     0,QL,PR5          Get special MON LSn (WSR=3)
   000030  X 000000 4744 00            134        LDP4     S_D_ACCESS$
   000031    4 00000 4501 00           135        STZ      0,,PR4
   000032 (0)000045 7100 00            136        TRA      GETAR
   000033                              137  NOTANLZ1 NULL
   000033    400000 2350 03            138        LDA      =O400000,DU
   000034  X 000000 4744 00            139        LDP4     S_D_ACCESS$
   000035    4 00000 7551 00           140        STA      0,,PR4
   000036  X 000000 4744 00            141        LDP4     S_D_REM_ACCESS$
   000037    4 00000 4525 00           142        STP      AUTO,0,,PR4       do PL6 remember
   000040 (0)001302 6350 00            143        EAA      UPACCESSFAULT
   000041    4 00001 7551 00           144        STA      1,,PR4
   000042    5 00000 6765 06           145        LDD6     0,QL,PR5          PICK UP USER'S DESC
   000043  X 000000 4744 00            146        LDP4     S_D_ACCESS$
   000044    4 00000 4501 00           147        STZ      0,,PR4
   000045                              148  GETAR NULL
   000045    2 00027 7665 00           149        LAR6     POINTER,,AUTO     PICK UP USER'S AR VALUE
   000046 (0)000442 7100 00            150        TRA      GOTP6             MERGE WITH OTHERS
                                       151  *
                                       152  *  NOT USER POINTER, INTERPRET SPECIAL SYMBOL
                                       153  *
                                       154  *            ENCODED SPECIAL SYMBOL - DESC (pointer) TYPE
                                       155  *
                                       156  *     ******************************************
                                       157  *     *0     5*6   14*15     23*2425*26      35*
                                       158  *     *       *      *         *    *          *
                                       159  *     * TYPE  * ID   * DISP    * =1 *    =0    *
                                       160  *     ******************************************
                                       161  *
                                       162  *  VALUES AS ENCODED IN DD_SPEC_D
                                       163  *
                                       164  *     FLAGS - not used here
                                       165  *
                                       166  *     TYPE:  0   $SSR, $JIT, $HJIT
                                       167  *                ID: 0 $SSR
                                       168  *                    1 $JIT
 14:03 07/29/97  FILE=DDK$GETV_A.:E05TSI                                                                 6    BMAP - B00
                                       169  *                    2 $HJIT
                                       170  *                    3 $TCB
                                       171  *                    4 $SAD
                                       172  *                    5 $RVB (ANLZ_FILE MODE ONLY)
                                       173  *                    6 $USD (ANLZ_FILE MODE ONLY)
                                       174  *                    7 $ERR (ANLZ_FILE MODE ONLY)
                                       175  *                    8 $HEAD (RUM MODE ONLY)
                                       176  *                    9 $CGn (ANLZ_FILE MODE ONLY)
                                       177  *
                                       178  *            1   $ISR, $ASR, $LSR, $PSR  look at user segs as data
                                       179  *
                                       180  *                ID: 0 $PSR
                                       181  *                    1 $ISR
                                       182  *                    2 $ASR
                                       183  *                    3 $LSR
                                       184  *                DISP - NOT USED
                                       185  *
                                       186  *            2   $DRn, $PRn, $AUTO  use descr from SS
                                       187  *
                                       188  *                ID - if non-zero, word displ in SS to AR
                                       189  *                DISP - word disp to DR in SS
                                       190  *
                                       191  *            3   $ASn, $PSn, $LSn, $DSn, $VSn  use descriptor from user desc seg
                                       192  *
                                       193  *                ID: 0 $PSn
                                       194  *                    1 not used
                                       195  *                    2 $ASn
                                       196  *                    3 $LSn
                                       197  *                DISP - n X 2 (word displ to descriptor)
                                       198  *
                                       199  *            4   $REAL, $VIRT
                                       200  *                ID: 0 $REAL
                                       201  *                    1 $VIRT
                                       202  *
                                       203  *            5   $IOBUF
                                       204  *
                                       205  *            6   $PARMn
 14:03 07/29/97  FILE=DDK$GETV_A.:E05TSI                                                                 7    BMAP - B00
                                       206  *                use nth parameter pointer from
                                       207                   current AUTO stack frame
                                       208  *                  ID-DISP - parameter number
                                       209  *            7   $DCBn - use nth DCB
                                       210  *                     DISP - DCB number
                                       211  *
                                       212  *            8   $ROSEG, $RDBR, $TSA - L6 Only
                                       213  *
                                       214  *                ID: 0 $ROSEG
                                       215  *                    1 $RDBR
                                       216  *                    2 $TSA
                                       217  *                DISP: Not used
                                       218  *
                                       219  *            9   $Bn  - L6 Only
                                       220  *
                                       221  *                ID: 0 $Bn
                                       222  *                DISP - n
                                       223  *
                                       224  *            10  $RES - (reserverd memory for DPS-90)
                                       225  *
                                       226  *
          (0)000000000047              227  NOTUSER  EQU   *
                                       228  *
   000047    2 00027 2351 00           229        LDA      POINTER,,AUTO     get encoded value
   000050    000036 7310 00            230        ARS      30
   000051    000077 3750 07            231        ANA      =O77,DL           isolate type
   000052 (0)000053 7100 05            232        TRA      *+1,AL
   000053 (0)000066 7100 00            233        TRA      TYPE0             $SSR, $JIT, $HJIT
   000054 (0)000130 7100 00            234        TRA      TYPE1             $ISR, $LSR, $ASR, $PSR
   000055 (0)000135 7100 00            235        TRA      TYPE2             $DRn, $PRn, $AUTO
   000056 (0)000167 7100 00            236        TRA      TYPE3             $ASn, $PSn, $LSn, $DSn
   000057 (0)000260 7100 00            237        TRA      TYPE4             $REAL, $VIRT
   000060 (0)000316 7100 00            238        TRA      TYPE5             $IOBUF
   000061 (0)000352 7100 00            239        TRA      TYPE6             $PARMn
   000062 (0)000325 7100 00            240        TRA      TYPE7             $DCBn
   000063    000000 000000             241        ZERO     0,0
   000064    000000 000000             242        ZERO     0,0
 14:03 07/29/97  FILE=DDK$GETV_A.:E05TSI                                                                 8    BMAP - B00
   000065 (0)000417 7100 00            243        TRA      TYPE10            $RES
                                       244  *
          (0)000000000066              245  TYPE0 EQU      *                 $SSR, $JIT, $HJIT, $SDn
                                       246  *
   000066    2 00027 2351 00           247        LDA      POINTER,,AUTO
   000067    000025 7310 00            248        ARS      21
   000070    000777 3750 07            249        ANA      =O777,DL          isolate id field
   000071 (0)000072 7100 05            250        TRA      *+1,AL
   000072 (0)000116 7100 00            251        TRA      SSR               0 - $SSR
   000073 (0)000122 7100 00            252        TRA      JIT               1 - $JIT
   000074 (0)000124 7100 00            253        TRA      HJIT              2 - $HJIT
   000075 (0)000111 7100 00            254        TRA      TCB               3 - $TCB
   000076 (0)000104 7100 00            255        TRA      SAD               4 - $SAD
   000077 (0)001326 7100 00            256        TRA      DELBUG            5 - $RVB
   000100 (0)001326 7100 00            257        TRA      DELBUG            6 - $USD
   000101 (0)001326 7100 00            258        TRA      DELBUG            7 - $ERR
   000102 (0)001326 7100 00            259        TRA      DELBUG            8 - $HEAD
   000103 (0)001326 7100 00            260        TRA      DELBUG            9 - $CGn
   000104                              261  SAD   NULL
   000104  X 000000 4744 00            262        LDP4     S_D_SAD$
   000105    4 00000 2361 00           263        LDQ      0,,PR4
   000106 (0)001312 6040 00            264        TMI      NOSAD             T/ user hasn't issuded SAD cmd
   000107  X 000000 4764 00            265        LDP6     SAD$
   000110 (0)000442 7100 00            266        TRA      GOTP6
          (0)000000000111              267  TCB   EQU      *
   000111  X 000000 2350 00            268        LDA      D_XDELTA
   000112 (0)001306 6040 00            269        TMI      UDONLYSYM
   000113  X 000000 4764 00            270        LDP6     S_D_TCB$$
   000114    6 00000 4765 00           271        LDP6     0,,PR6
   000115 (0)000442 7100 00            272        TRA      GOTP6
          (0)000000000116              273  SSR   EQU      *
   000116  X 000000 4764 00            274        LDP6     S_D_USS$$
   000117    6 00000 4765 00           275        LDP6     0,,PR6            $SSR (type 0)
   000120 (0)001402 6764 00            276        LDD6     SHRINKSSR
   000121 (0)000442 7100 00            277        TRA      GOTP6
          (0)000000000122              278  JIT   EQU      *
   000122  X 000000 4764 00            279        LDP6     UJIT$
 14:03 07/29/97  FILE=DDK$GETV_A.:E05TSI                                                                 9    BMAP - B00
   000123 (0)000442 7100 00            280        TRA      GOTP6
          (0)000000000124              281  HJIT  EQU      *
   000124  X 000000 2350 00            282        LDA      D_XDELTA
   000125 (0)001310 6050 00            283        TPL      XDONLYSYM
   000126  X 000000 4764 00            284        LDP6     UHJIT$
   000127 (0)000442 7100 00            285        TRA      GOTP6
                                       286  *
          (0)000000000130              287  TYPE1    EQU      *                 $ISR, $LSR, $ASR, $PSR
                                       288  *
   000130    2 00027 2351 00           289        LDA      POINTER,,AUTO
   000131    000025 7710 00            290        ARL      21
   000132    000777 3750 07            291        ANA      =O777,DL          isolate ID
   000133  X 000000 4764 05            292        LDP6     UPS$,AL           DELTA's PTR to user desc seg
   000134 (0)000442 7100 00            293        TRA      GOTP6
                                       294  *
          (0)000000000135              295  TYPE2 EQU      *                 $DRn, $PRn, $AUTO
                                       296  *
   000135  X 000000 4754 00            297        LDP5     USS1$             DELTA  PTR to user SS (as DESC seg)
   000136    2 00027 2351 00           298        LDA      POINTER,,AUTO
   000137    000014 7310 00            299        ARS      12
   000140    000777 3750 07            300        ANA      =O777,DL          isolate DISP
   000141  X 000000 4774 00            301        LDP7     S_D_ANLZ$
   000142    7 00000 2201 00           302        LDX0     0,,PR7
   000143 (0)001314 6010 00            303        TNZ      NOTANLZ3          Not allowed if ANLZ
   000144    5 00000 6765 05           304        LDD6     0,AL,PR5          pick up user's DESC
   000145  X 000000 4754 00            305        LDP5     S_D_USS$$
   000146    5 00000 4755 00           306        LDP5     0,,PR5            $SSR (type 0)
   000147    2 00027 2351 00           307        LDA      POINTER,,AUTO
   000150    000025 7310 00            308        ARS      21
   000151    000777 3750 07            309        ANA      =O777,DL          isolate ID
   000152 (0)000442 6000 00            310        TZE      GOTP6             T/ no AR wanted
   000153    000030 1150 07            311        CMPA     24,DL             IS THIS $AUTO
   000154 (0)000157 6000 00            312        TZE      AUTO$              T/ YES
   000155                              313  TOPAUTO NULL                     TEMP FIX FOR TOP FRAME !!
   000155    5 00000 7665 05           314        LAR6     0,AL,PR5          load AR from SS value
   000156 (0)000442 7100 00            315        TRA      GOTP6
   000157                              316  AUTO$  NULL
 14:03 07/29/97  FILE=DDK$GETV_A.:E05TSI                                                                 10   BMAP - B00
   000157    000022 2350 07            317        LDA      18,DL             TEMP FIX FOR TOP FRAME !!
   000160 (0)000155 7100 00            318        TRA      TOPAUTO           TEMP FIX FOR TOP FRAME !!
   000161  X 000000 4754 00            319        LDP5     S_D_ASTACKOFF$
   000162    5 00000 2351 00           320        LDA      0,,PR5
   000163    000022 7350 00            321        ALS      18                WANT RIGHT HALF
   000164    5 00000 7551 00           322        STA      0,,PR5
   000165    5 00000 7665 00           323        LAR6     0,,PR5            GET RIGHT STACK FRAME OFFSET
   000166 (0)000442 7100 00            324        TRA      GOTP6
                                       325  *
          (0)000000000167              326  TYPE3 EQU      *                 $ASn, $PSn, $LSn, $DSn
                                       327  *
   000167    2 00027 2361 00           328        LDQ      POINTER,,AUTO
   000170    000025 7320 00            329        QRS      21
   000171    000777 3760 07            330        ANQ      =O777,DL          isolate ID
   000172  X 000000 4754 06            331        LDP5     UPS$,QL           get DELTA's PTR to user's desc seg
   000173    2 00027 2351 00           332        LDA      POINTER,,AUTO
   000174    000014 7310 00            333        ARS      12
   000175    000777 3750 07            334        ANA      =O777,DL          isolate DISP
   000176  X 000000 4774 00            335        LDP7     S_D_ANLZ$
   000177    7 00000 2201 00           336        LDX0     0,,PR7
   000200 (0)000245 6050 00            337        TPL      NOTANLZ2          not ANLZ/DELTA
   000201    000003 1160 07            338        CMPQ     3,DL
   000202 (0)001314 6010 00            339        TNZ      NOTANLZ3          not LS
   000203  X 000000 4754 00            340        LDP5     MALS$             special MON LS
   000204  X 000000 4744 00            341        LDP4     S_D_ACCESS$
   000205    400000 2360 03            342        LDQ      =O400000,DU
   000206    4 00000 7561 00           343        STQ      0,,PR4
   000207  X 000000 4744 00            344        LDP4     S_D_REM_ACCESS$
   000210    4 00000 4525 00           345        STP      AUTO,0,,PR4
   000211 (0)001304 6360 00            346        EAQ      SEGIDERR
   000212    4 00001 7561 00           347        STQ      1,,PR4
   000213    5 00000 6765 05           348        LDD6     0,AL,PR5          get user's descriptor
   000214  X 000000 4744 00            349        LDP4     S_D_ACCESS$
   000215    4 00000 4501 00           350        STZ      0,,PR4
   000216    2 00022 0565 00           351        STD6     DESC,,AUTO
   000217    2 00022 2361 00           352        LDQ      DESC,,AUTO        CHECK TO SEE IF WSQ TYPE
   000220    000017 3760 07            353        ANQ      =15,DL
 14:03 07/29/97  FILE=DDK$GETV_A.:E05TSI                                                                 11   BMAP - B00
   000221    000002 1160 07            354        CMPQ     2,DL
   000222 (0)000442 6040 00            355        TMI      GOTP6             T/ NO, USE DESC FROM UDELWSQ LS
   000223    2 00022 2361 00           356        LDQ      DESC,,AUTO        CHECK TO SEE IF WSQ > 6
   000224    000004 7720 00            357        QRL      4
   000225    000777 3760 07            358        ANQ      =511,DL
   000226    000007 1160 07            359        CMPQ     7,DL              IOENDWSQ
   000227 (0)000442 6040 00            360        TMI      GOTP6             T/ NO, USE DESC FROM UDELWSQ LS
   000230    000003 2220 03            361        LDX2     3,DU
   000231  X 000000 4754 12            362        LDP5     UPS$,X2           GET MON LS
   000232  X 000000 4744 00            363        LDP4     S_D_ACCESS$
   000233    400000 2360 03            364        LDQ      =O400000,DU
   000234    4 00000 7561 00           365        STQ      0,,PR4
   000235  X 000000 4744 00            366        LDP4     S_D_REM_ACCESS$
   000236    4 00000 4525 00           367        STP      AUTO,0,,PR4
   000237 (0)001304 6360 00            368        EAQ      SEGIDERR
   000240    4 00001 7561 00           369        STQ      1,,PR4
   000241    5 00000 6765 05           370        LDD6     0,AL,PR5          get user's descriptor
   000242  X 000000 4744 00            371        LDP4     S_D_ACCESS$
   000243    4 00000 4501 00           372        STZ      0,,PR4
   000244 (0)000442 7100 00            373        TRA      GOTP6
   000245                              374  NOTANLZ2 NULL
   000245  X 000000 4744 00            375        LDP4     S_D_ACCESS$
   000246    400000 2360 03            376        LDQ      =O400000,DU
   000247    4 00000 7561 00           377        STQ      0,,PR4
   000250  X 000000 4744 00            378        LDP4     S_D_REM_ACCESS$
   000251    4 00000 4525 00           379        STP      AUTO,0,,PR4
   000252 (0)001304 6360 00            380        EAQ      SEGIDERR
   000253    4 00001 7561 00           381        STQ      1,,PR4
   000254    5 00000 6765 05           382        LDD6     0,AL,PR5          get user's descriptor
   000255  X 000000 4744 00            383        LDP4     S_D_ACCESS$
   000256    4 00000 4501 00           384        STZ      0,,PR4
   000257 (0)000442 7100 00            385        TRA      GOTP6
                                       386  *
          (0)000000000260              387  TYPE4 EQU      *                 $REAL, $VIRT
                                       388  *
   000260  X 000000 2350 00            389        LDA      D_XDELTA
   000261 (0)001310 6050 00            390        TPL      XDONLYSYM
 14:03 07/29/97  FILE=DDK$GETV_A.:E05TSI                                                                 12   BMAP - B00
   000262  X 000000 4754 00            391        LDP5     DLS$              PTR to DELTA's LS type 0
   000263    2 00027 2351 00           392        LDA      POINTER,,AUTO
   000264    001760 3750 03            393        ANA      =O001760,DU       get ID
   000265 (0)000271 6000 00            394        TZE      REAL              0 = REAL, 1 = VIRT
   000266    000001 2220 03            395        LDX2     1,DU              flag so we know its VIRT
   000267    5 X 00000 5075 00         396        AWD      MAPXB_OFF,,PR5    add offset to base of MAPX desc
   000270 (0)000273 7100 00            397        TRA      GOTBASE
          (0)000000000271              398  REAL  EQU      *
   000271    000000 2220 03            399        LDX2     0,DU              flag its REAL
   000272    5 X 00000 5075 00         400        AWD      REALXB_OFF,,PR5   add offset to base of REALX desc
          (0)000000000273              401  GOTBASE EQU    *
   000273    2 00020 2361 00           402        LDQ      OFFSET,,AUTO      bit offset ...
   000274    000044 5060 07            403        DIV      =36,DL            ... to word offset
   000275 (0)001377 5060 00            404        DIV      K256              divide by 256K
   000276    2 00020 7551 00           405        STA      OFFSET,,AUTO      offset in words, this SEG
   000277    000000 1020 03            406        CMPX2    0,DU              is this VIRT
   000300 (0)000303 6000 00            407        TZE      NOCHK             T/ no, dont have to check SEG #
   000301    000004 1160 07            408        CMPQ     4,DL              VIRT can only have 1024K
   000302 (0)001270 6050 00            409        TPL      ADDRBAD           ALTRETURN
          (0)000000000303              410  NOCHK    EQU      *
   000303 (0)001400 4020 00            411        MPY      K1024             base in bytes
   000304    5 00000 0561 00           412        ASQ      0,,PR5            add to base of descriptor
   000305  X 000000 4764 00            413        LDP6     REALX$            ASSUME REAL FOR NOW
   000306    000000 1020 03            414        CMPX2    0,DU              IS THIS VIRTUAL ?
   000307 (0)000311 6000 00            415        TZE      *+2
   000310  X 000000 4764 00            416        LDP6     MAPX$
   000311    2 00020 2361 00           417        LDQ      OFFSET,,AUTO
   000312    000044 4020 07            418        MPY      =36,DL            back to bits
   000313    2 00020 7561 00           419        STQ      OFFSET,,AUTO
   000314    5 00000 4501 00           420        STZ      0,,PR5            reset base back to zero
   000315 (0)000442 7100 00            421        TRA      GOTP6
                                       422  *
          (0)000000000316              423  TYPE5 EQU      *                 $IOBUF
                                       424  *
   000316  X 000000 2350 00            425        LDA      D_XDELTA
   000317 (0)001310 6050 00            426        TPL      XDONLYSYM
   000320  X 000000 4764 00            427        LDP6     IOBUF$
 14:03 07/29/97  FILE=DDK$GETV_A.:E05TSI                                                                 13   BMAP - B00
   000321    2 00020 2361 00           428        LDQ      OFFSET,,AUTO
   000322    110000 1160 07            429        CMPQ     1024*36,DL
   000323 (0)001270 6050 00            430        TPL      ADDRBAD           ALTRETURN
   000324 (0)000442 7100 00            431        TRA      GOTP6
                                       432  *
          (0)000000000325              433  TYPE7 EQU      *
                                       434  *
   000325  X 000003 4754 00            435        LDP5     UPS$+3            $LSR
   000326    5 00006 6755 00           436        LDD5     6,,PR5            $LS3 (ROSEG)
   000327    2 00027 2351 00           437        LDA      POINTER,,AUTO
   000330    000014 7310 00            438        ARS      12
   000331    000777 3750 07            439        ANA      =O777,DL          DCB#
   000332  X 000000 4774 00            440        LDP7     S_D_ANLZ$
   000333    7 00000 2201 00           441        LDX0     0,,PR7
   000334 (0)001314 6010 00            442        TNZ      NOTANLZ3          Not allowed if ANLZ
   000335    000000 6200 05            443        EAX0     0,AL
   000336    400000 2360 03            444        LDQ      =O400000,DU
   000337  X 000000 4744 00            445        LDP4     S_D_REM_ACCESS$
   000340    4 00000 4525 00           446        STP      AUTO,0,,PR4
   000341 (0)001302 6360 00            447        EAQ      UPACCESSFAULT
   000342    4 00000 7561 00           448        STQ      0,,PR4
   000343  X 000000 4744 00            449        LDP4     S_D_ACCESS$
   000344    4 00000 7561 00           450        STQ      0,,PR4
   000345    5 00000 0601 00           451        ADX0     0,,PR5            add offset to DCB pointer list
   000346    5 00000 2351 10           452        LDA      0,X0,PR5          pick up DCB pointer
   000347    4 00000 4501 00           453        STZ      0,,PR4
   000350    2 00027 7551 00           454        STA      POINTER,,AUTO
   000351 (0)000000 7100 00            455        TRA      DDK$GETV_A        start all over again
                                       456  *
          (0)000000000352              457  TYPE6 EQU      *
                                       458  *
   000352  X 000000 4774 00            459        LDP7     S_D_ANLZ$
   000353    7 00000 2201 00           460        LDX0     0,,PR7
   000354 (0)001314 6010 00            461        TNZ      NOTANLZ3          Not allowed if ANLZ
   000355  X 000000 4744 00            462        LDP4     USS1$             PTR to user's SS as DESC storage
   000356    000004 2350 07            463        LDA      AUTO*2,DL         offset to AUTO desc
   000357    4 00030 6755 05           464        LDD5     24,AL,PR4         pick up user's descriptor
 14:03 07/29/97  FILE=DDK$GETV_A.:E05TSI                                                                 14   BMAP - B00
   000360  X 000000 4744 00            465        LDP4     S_D_USS$$
   000361    4 00000 4765 00           466        LDP6     0,,PR4            TEMP FIX FOR TOP FRAME !!
   000362    000022 2350 07            467        LDA      18,DL             TEMP  FIX FOR TOP FRAME !!
   000363    6 00000 7655 05           468        LAR5     0,AL,PR6          TEMP FIX FOR TOP FRAME !!
   000364    000006 7100 04            469        TRA      6,IC              TEMP FIX FOR TOP FRAME !!
   000365  X 000000 4744 00            470        LDP4     S_D_ASTACKOFF$
   000366    4 00000 2351 00           471        LDA      0,,PR4
   000367    000022 7350 00            472        ALS      18                WANT RIGHT HALF
   000370    4 00000 7551 00           473        STA      0,,PR4
   000371    4 00000 7655 00           474        LAR5     0,,PR4            ADD OFFSET TO CORRECT FRAME
   000372  X 000000 4744 00            475        LDP4     S_D_ASTACKOFF$
   000373    2 00027 2351 00           476        LDA      POINTER,,AUTO
   000374    000014 7310 00            477        ARS      12
   000375    777777 3750 07            478        ANA      =O777777,DL       get parameter #
   000376    400000 2360 03            479        LDQ      =O400000,DU
   000377  X 000000 4744 00            480        LDP4     S_D_ACCESS$
   000400    4 00000 7561 00           481        STQ      0,,PR4
   000401  X 000000 4744 00            482        LDP4     S_D_REM_ACCESS$
   000402    4 00000 4525 00           483        STP      AUTO,0,,PR4       do PL6 remember
   000403 (0)001300 6360 00            484        EAQ      PACCESSFAULT
   000404    4 00001 7561 00           485        STQ      1,,PR4
   000405    5 00002 2351 05           486        LDA      2,AL,PR5          pick up user's pointer
   000406    2 00027 7551 00           487        STA      POINTER,,AUTO     ... AND ...
   000407    006000 3750 07            488        ANA      =O6000,DL
   000410    002000 1150 07            489        CMPA      =O2000,DL
   000411 (0)000414 6010 00            490        TNZ       TGLABEL
   000412    004000 2350 07            491        LDA       =O4000,DL
   000413    2 00027 2551 00           492        ORSA      POINTER,,AUTO
   000414                              493  TGLABEL NULL
   000414  X 000000 4744 00            494        LDP4     S_D_ACCESS$
   000415    4 00000 4501 00           495        STZ      0,,PR4
   000416 (0)000000 7100 00            496        TRA      DDK$GETV_A        ... START ALL OVER
                                       497  *
          (0)000000000417              498  TYPE10 EQU *
                                       499  *
                                       500  *
                                       501  WRES   MACRO
 14:03 07/29/97  FILE=DDK$GETV_A.:E05TSI                                                                 15   BMAP - B00
                                       502         VFD     18/#1,15/=O23201,3/#2
                                       503         ENDM
                                       504  *
   000417  X 000000 2340 00            505         SZN     D_XDELTA
   000420 (0)001310 6050 00            506         TPL     XDONLYSYM
   000421  X 000000 4704 00            507         LDP0    S_D_HW_RES_MEM$
   000422    0 00000 2341 00           508         SZN     0,,PR0
   000423 (0)001320 6050 00            509         TPL     NORESMEM
   000424    2 00003 4705 00           510         LDP0    VAL$,,AUTO
   000425    0 00000 4745 00           511         LDP4    0,,PR0
   000426    2 00020 2361 00           512         LDQ     OFFSET,,AUTO
   000427    000044 5060 07            513         DIV     =36,DL
   000430    000000 6230 06            514         EAX3    0,QL
   000431    2 00031 2351 00           515         LDA     WHAT,,AUTO
   000432    000077 3750 07            516         ANA     =O77,DL
   000433 (0)000437 6010 00            517         TNZ     WRESM
   000434    000000 2310 13            518         RRES    0,3
   000435    4 00000 7551 00           519         STA     0,,PR4
   000436 (0)000441 7100 00            520         TRA     RESCOM
   000437    4 00000 2351 00           521  WRESM  LDA     0,,PR4
   000440    000000 23201 3            522         WRES    0,3
   000441    000001 7100 11            523  RESCOM TRA     1,X1
                                       524  *
          (0)000000000442              525  GOTP6 EQU      *
                                       526  *
   000442    2 00022 0565 00           527        STD6     DESC,,AUTO          SAVE DR6 IN TEMP (DALIGNED)
   000443    2 00022 2351 00           528        LDA      DESC,,AUTO
   000444 (1)000000 2360 00            529        LDQ      =O777777777760
   000445    000004 2110 07            530        CMK      4,DL
   000446 (0)000773 6000 00            531        TZE      VIRTSEG
   000447    000006 2110 07            532        CMK      6,DL
   000450 (0)000773 6000 00            533        TZE      VIRTSEG
   000451    2 00024 7465 00           534        SAR6     TEMP1,,AUTO
   000452    2 00020 2361 00           535        LDQ      OFFSET,,AUTO      bit offset
   000453    000044 5060 07            536        DIV      =36,DL            word offset in Q, bits in A
   000454    000022 7360 00            537        QLS      18
   000455    2 00025 7561 00           538        STQ      TEMP2,,AUTO
 14:03 07/29/97  FILE=DDK$GETV_A.:E05TSI                                                                 16   BMAP - B00
   000456    2 00025 2221 00           539        LDX2     TEMP2,,AUTO
   000457    2 00024 0421 00           540        ASX2     TEMP1,,AUTO       add word offset (w/o clearing bits18-23)
   000460 (0)001266 6030 00            541        TRC      ADRGR256          ALTRETURN address > 256K
   000461    2 00024 7665 00           542        LAR6     TEMP1,,AUTO       reload AR
   000462    6 00000 5035 05           543        ABD      0,AL,PR6          add remaining bit offset
   000463    2 00026 2351 00           544        LDA      TRUNC,,AUTO       pick up truncation flag
   000464 (0)000466 6050 00            545        TPL      NOTRUNC           T/ dont trunc to word address
   000465    6 00000 5075 00           546        AWD      0,,PR6            zero out AR bits 18-23
          (0)000000000466              547  NOTRUNC EQU    *
                                       548  *     COMMENTS FROM HERE ON TYPED ON CDI MINITERM
                                       549  *     WHERE LOWER CASE IS NEXT TO IMPOSSIBLE TO TYPE
                                       550  *     THIS COMMENT BY JRC 3/19/78 (almost impossible)
                                       551  *  CHECK AR6 AND DSIZE TO SEE IF DATUM IS WITHIN SEGMENT (DR6)
   000466    2 00032 7465 00           552        SAR6     TAR,,AUTO         SAVE AR6 IN TEMP
   000467    2 00006 4705 00           553        LDP0     DSIZE,,AUTO       Assume DSIZE is bits
   000470    0 00000 2351 00           554        LDA      0,,PR0
   000471    2 00031 2361 00           555        LDQ      WHAT,,AUTO        SEE IF THIS IS DECIMAL NUMBER
   000472    000004 1160 07            556        CMPQ     MVNU_EIS,DL
   000473 (0)000520 6040 00            557        TMI      SZKNOWN           T/ NO, DSIZE ALL READY IN BITS
   000474    000014 1160 00            558        CMPQ     UMVNU_EIS         FIRST UNPACKED MOVE
   000475 (0)000502 6040 00            559        TMI      PACKED
   000476    000000 6360 05            560        EAQ      0,AL
   000477    000011 4020 07            561        MPY      9,DL
   000500    000000 6350 06            562        EAA      0,QL
   000501 (0)000520 7100 00            563        TRA      SZKNOWN
   000502                              564  PACKED  NULL
   000502    000001 7730 00            565        LRL      1                 SEE IF # OF DIGITS IS EVEN
   000503    000000 0760 07            566        ADQ      0,DL
   000504 (0)000511 6040 00            567        TMI      ODDNUM            T/ NO, ODD NUMBER - MORE WORK
   000505    000044 7730 00            568        LRL      36                GET NUMBER OF DIGITS / 2
   000506    000011 4020 07            569        MPY      9,DL              TIMES 9 IS BITS
   000507    000044 7370 00            570        LLS      36                INTO A - REG
   000510 (0)000520 7100 00            571        TRA      SZKNOWN
   000511                              572  ODDNUM  NULL
   000511    000000 6360 05            573        EAQ      0,AL              MUST NOW CHECK FOR BYTE ALIGNMENT
   000512    000011 4020 07            574        MPY      9,DL
   000513    000004 6350 06            575        EAA      4,QL              ASSUME ODD BIT ALIGNMENT
 14:03 07/29/97  FILE=DDK$GETV_A.:E05TSI                                                                 17   BMAP - B00
   000514    2 00032 2361 00           576        LDQ      TAR,,AUTO
   000515    170000 3760 07            577        ANQ      =O170000,DL
   000516 (0)000520 6010 00            578        TNZ      SZKNOWN           T/ YES, ODD
   000517    000001 0750 07            579        ADA      1,DL              ADD ONE BIT FOR EVEN ALIGNMENT
   000520                              580  SZKNOWN  NULL
   000520    000001 1750 07            581        SBA      1,DL              MINUS ONE
   000521    6 00000 5035 05           582        ABD      0,AL,PR6          ADD TO AR REG
   000522    2 00024 7465 00           583        SAR6     TEMP1,,AUTO
   000523    2 00024 2351 00           584        LDA      TEMP1,,AUTO
   000524    007777 2750 07            585        ORA      =O7777,DL
   000525    2 00032 1151 00           586        CMPA     TAR,,AUTO         CHECK FOR 256K OVERFLOW
   000526 (0)001240 6020 00            587        TNC      OUTOFSEG          T/ YES, WENT PAST 256K
   000527 (1)000001 3750 00            588        ANA      =O777777600000    CLEAR OUT GARBAGE
   000530    2 00022 1151 00           589        CMPA     DESC,,AUTO        IS AR OUT OF BOUNDS
   000531 (0)000533 6000 00            590        TZE      *+2
   000532 (0)001240 6030 00            591        TRC      OUTOFSEG          T/ YES, ERROR
                                       592  *  CHECK FOR VALID DESCRIPTOR (DR6)
   000533  X 000000 2350 00            593        LDA      D_XDELTA          IS THIS XDELTA ?
   000534 (0)000537 6050 00            594        TPL      *+3
   000535    001761 4764 07            595        LDP6     =O1761,DL         XDELTA - OK TO USE DESC SEG AS DATA
   000536    2 00022 0565 00           596        STD6     DESC,,AUTO        COPY IN LOCAL TEMP
   000537    2 00022 2351 00           597        LDA      DESC,,AUTO
   000540 (1)000000 2360 00            598        LDQ      =O777777777760    MASK FOR TYPE BITS
   000541    000002 2110 07            599        CMK      2,DL              IS THIS TYPE 2 DESCRIPTOR
   000542 (0)000571 6000 00            600        TZE      WSQTYPE           T/ YES, DATA SEG, WSQ SPECIFIED
   000543    000000 2110 07            601        CMK      0,DL              IS THIS TYPE 0 DESCRIPTOR
   000544 (0)001242 6010 00            602        TNZ      BADDESCTYPE       T/ NO, DESC NOT OPERAND STORAGE - ERROR
                                       603  *  WRSTYPE
   000545    000177 3750 07            604        ANA      =O177,DL          GET WSR
   000546    000004 7710 00            605        ARL      4
   000547    000001 0750 07            606        ADA      1,DL
   000550    2 00024 7551 00           607        STA      TEMP1,,AUTO
   000551    2 00024 2361 00           608        LDQ      TEMP1,,AUTO
   000552    000011 4020 07            609        MPY      9,DL              NUMBER OF BITS TO ROTATE AQ TO ...
   000553    2 00024 7561 00           610        STQ      TEMP1,,AUTO       ... TO POSITION WSQ VALUE
   000554    2 00024 7221 00           611        LXL2     TEMP1,,AUTO
   000555  X 000000 2370 00            612        LDAQ     WSR               SAVED WSR VALUES
 14:03 07/29/97  FILE=DDK$GETV_A.:E05TSI                                                                 18   BMAP - B00
   000556    000000 7770 12            613        LLR      0,X2              POSITION VALUE
   000557    000777 3760 07            614        ANQ      =O777,DL          ISOLATE VALUE
   000560    000010 1160 07            615        CMPQ     8,DL              IS IT USERWSQ ?
   000561 (0)000565 6010 00            616        TNZ      *+4               T/ NO, OK TO USE AS IS
   000562    2 00025 7525 00           617        STWS     TEMP2,,AUTO       GET WSR7 TO SEE WHO 9 IS TODAY
   000563    2 00025 2361 00           618        LDQ      TEMP2,,AUTO       NOTE: TEMP2 MUST BE ODD LOCATION
   000564    000777 3760 07            619        ANQ      =O777,DL
   000565    2 00033 7561 00           620        STQ      WSQ#,,AUTO        SAVE WSQ#
   000566    2 00022 2351 00           621        LDA      DESC,,AUTO
   000567    000007 7710 00            622        ARL      7                 POSITION FLAGS
   000570 (0)000576 7100 00            623        TRA      CHKFLGS
          (0)000000000571              624  WSQTYPE  EQU   *
   000571    000004 7710 00            625        ARL      4
   000572    2 00033 4501 00           626        STZ      WSQ#,,AUTO
   000573    2 00033 5511 04           627        STBA     WSQ#,4,AUTO       STORE WSQ VALUE (BYTE 3)
   000574    000003 7710 00            628        ARL      3                 POSITION FLAGS
   000575    000077 2750 07            629        ORA      =O077,DL          OR IN ASSUMED FLAGS
          (0)000000000576              630  CHKFLGS  EQU   *
   000576    000001 3150 07            631        CANA     =O001,DL          SEGMENT PRESENT ?
   000577 (0)001244 6000 00            632        TZE      SEGNOTPRES
   000600    000002 3150 07            633        CANA     =O002,DL          SEGMENT NOT EMPTY ?
   000601 (0)001246 6000 00            634        TZE      SEGEMPTY
   000602    2 00031 2361 00           635        LDQ      WHAT,,AUTO        HIGH ORDER BIT INDICATES...
   000603 (0)000617 6050 00            636        TPL      NOTWRITE          ... PUT OPERATION
   000604    000200 3150 07            637        CANA     =O200,DL          WRITE ACCESS ?
   000605 (0)000621 6010 00            638        TNZ      DESCOK
   000606  X 000000 2350 00            639        LDA      D_XDELTA          IS THIS XDELTA
   000607 (0)001250 6050 00            640        TPL      CANTWRITESEG      T/ NO, HONOR FLAGS
   000610    2 00022 2371 00           641        LDAQ     DESC,,AUTO
   000611    040000 2750 07            642        ORA      =O40000,DL        SET IN WRITE BIT
   000612  X 000000 4754 00            643        LDP5     DLS$              XDELTA LS TYPE 0
   000613    5 X 00000 7571 00         644        STAQ     SCX1_OFF,,PR5     CREATE DESC WITH WRITE ACCESS
   000614  X 000000 4764 00            645        LDP6     SCX1$             PICK IT UP
   000615    2 00022 0565 00           646        STD6     DESC,,AUTO
   000616 (0)000621 7100 00            647        TRA      DESCOK
          (0)000000000617              648  NOTWRITE  EQU  *
   000617    000400 3150 07            649        CANA     =O400,DL          READ ACCESS ?
 14:03 07/29/97  FILE=DDK$GETV_A.:E05TSI                                                                 19   BMAP - B00
   000620 (0)001252 6000 00            650        TZE      CANTREADSEG       EVEN XDELTA CANT DO THIS
          (0)000000000621              651  DESCOK  EQU    *
                                       652  *  CHECK PAGE TABLE (IF ANY) FOR ACCESS
   000621    2 00034 4501 00           653        STZ      PTW1,,AUTO        ZERO OUT LOCAL FLAGS
   000622    2 00035 4501 00           654        STZ      PTW2,,AUTO
   000623  X 000000 2350 00            655        LDA      D_XDELTA          IS THIS XDELTA
   000624 (0)000734 6050 00            656        TPL      NOMAP             T/ NO, ASSUME MAP OK (LET IT TRAP)
   000625    2 00033 2351 00           657        LDA      WSQ#,,AUTO
   000626 (0)000734 6000 00            658        TZE      NOMAP
   000627  X 000000 4754 00            659        LDP5     MIS$              ASSUME WSPTD IS MONITOR IS WORD 0
   000630    5 00000 2351 05           660        LDA      0,AL,PR5          PICK UP PTD WORD
   000631    000014 7730 00            661        LRL      12                SHIFT PT SIZE INTO Q
   000632    000030 7720 00            662        QRL      24                JUSTIFY
   000633    000006 7360 00            663        QLS      6                 SIZE IS MOD 64
   000634 (0)000636 6050 00            664        TPL      *+2
   000635    000100 2360 07            665        LDQ      64,DL             ZERO SIZE MEANS 64 WORDS
   000636    000001 0760 07            666        ADQ      1,DL              ADD ONE FOR TPL (WANT TGZ)
   000637    2 00036 7561 00           667        STQ      MAPSZ,,AUTO       SAVE MAP SIZE FOR CHECK LATER
   000640    000003 7730 00            668        LRL      3                 FRAGMENTED PT BIT
   000641    000000 0760 07            669        ADQ      0,DL              SET INDICS
   000642 (0)001254 6040 00            670        TMI      BADPTDW           DONT ALLOW FRAG'D PT
   000643    000001 7730 00            671        LRL      1                 PT PRESENT BIT
   000644    000000 0760 07            672        ADQ      0,DL              SET INDICS
   000645 (0)001254 6050 00            673        TPL      BADPTDW           PT PRESENT BIT NOT SET
   000646    000002 7710 00            674        ARL      2                 GET PTA IN AL.  (MOD HW_PTB_UNITS)
   000647  X 000000 4704 00            675        LDP0     S_D_HW_PTB_UNITS$       DO WE HAVE TO SHIFT TO GET PAGE NUMBER
   000650    0 00000 2361 00           676        LDQ      0,,0              VALID ARE 64,1024
   000651    000100 1160 07            677        CMPQ     64,DL             64 MEANS SHIFT RIGHT 4 (MAKE IT SMALLER)
   000652 (0)000654 6010 00            678        TNZ      MODOK             IF NOT 64, THEN 1024 IS ONLY OTHER CHOICE
   000653    000004 7310 00            679        ARS      4                 MAKE IT SMALLER (MOD64->MOD1024)
   000654                              680  MODOK NULL
   000654  X 000000 4704 00            681        LDP0     S_D_HW_WSQ0PT$
   000655    0 00000 2341 00           682        SZN      0,,PR0
   000656 (0)000666 6050 00            683        TPL      NOWSQ0PT
   000657    000001 7730 00            684        LRL      1
   000660  X 000000 4754 00            685        LDP5     IPHY$
   000661    5 00000 2351 05           686        LDA      0,AL,PR5
 14:03 07/29/97  FILE=DDK$GETV_A.:E05TSI                                                                 20   BMAP - B00
   000662    000000 0760 07            687        ADQ      0,DL
   000663 (0)000665 6040 00            688        TMI      *+2
   000664    000022 7710 00            689        ARL      18
   000665    777777 3750 07            690        ANA      =O777777,DL
   000666                              691  NOWSQ0PT NULL                    NOW WE HAVE A (WSQ0) PAGE NUMBER
   000666    000014 7350 00            692        ALS      12                MAKE IT A BYTE ADDR
   000667  X 000000 4754 00            693        LDP5     DLS$              XDELTA LS TYPE 0
   000670    5 X 00000 7551 00         694        STA      REALXB_OFF,,PR5   BASE INTO SCRATCH REAL DESC
   000671    2 00032 2351 00           695        LDA      TAR,,AUTO         USER'S OFFSET FROM DR6
   000672    000020 7710 00            696        ARL      16                GET BYTE ADDRES OFFSET
   000673    2 00023 0751 00           697        ADA      DESC+1,,AUTO      ADD SEGMENT VIRTUAL BASE IN BYTES
   000674    000014 7730 00            698        LRL      12                GET PAGE#, BYTE OFFSET (IN Q)
   000675    2 00037 7551 00           699        STA      PT#,,AUTO
   000676    2 00036 1151 00           700        CMPA     MAPSZ,,AUTO       ARE WE BEYOND MAP SIZE
   000677 (0)001256 6050 00            701        TPL      OUTOFMAP          T/ YES, ERROR
   000700    000030 7720 00            702        QRL      24                BYTE OFFSET FROM PAGE BOUNDARY FOR START IN388
   000701    2 00024 7561 00           703        STQ      TEMP1,,AUTO       SAVE FOR "DO WE NEED NEXT PAGE CHK"
   000702  X 000000 4754 00            704        LDP5     REALX$            DESC OF PT
   000703    5 00000 2361 05           705        LDQ      0,AL,PR5          PICK UP PT WORD
   000704    000040 3160 07            706        CANQ     =O40,DL           IS PAGE PRESENT ?
   000705 (0)001260 6000 00            707        TZE      NOPAGE            T/ NO - ERROR
   000706    2 00034 7561 00           708        STQ      PTW1,,AUTO        SAVE ORIGINAL PT WORD
   000707    000020 2760 07            709        ORQ      =O20,DL           SET IN WRITE BIT (ALWAYS)
   000710    5 00000 7561 05           710        STQ      0,AL,PR5          SET BACK INTO MAP
   000711    2 00006 4705 00           711        LDP0     DSIZE,,AUTO       GET PTR TO DATUM SIZE
   000712    0 00000 2361 00           712        LDQ      0,,PR0            DATUM SIZE
   000713    000011 5060 07            713        DIV      9,DL              IN BYTES
   000714    2 00024 0761 00           714        ADQ      TEMP1,,AUTO       ADDED TO START BYTE OFFSET
   000715    000000 0750 07            715        ADA      0,DL              SET INDICS
   000716    000002 6010 04            716        TNZ      2,IC              ODD BITS LEFT OVER
   000717    000001 1760 07            717        SBQ      1,DL              NO ODD BITS, BOUND IS SIZE - 1
   000720    010000 1160 07            718        CMPQ     =O10000,DL        DID WE CROSS PAGE BOUNDARY ?
   000721 (0)000733 6040 00            719        TMI      MAPOK             T/ NO, MAP OK NOW
   000722    000001 0750 07            720        ADA      1,DL              NEXT PAGE
   000723    2 00036 1151 00           721        CMPA     MAPSZ,,AUTO
   000724 (0)001256 6050 00            722        TPL      OUTOFMAP          T/ BEYOND MAP SIZE - ERROR
   000725    5 00000 2361 05           723        LDQ      0,AL,PR5
 14:03 07/29/97  FILE=DDK$GETV_A.:E05TSI                                                                 21   BMAP - B00
   000726    000040 3160 07            724        CANQ     =O40,DL           IS PAGE PRESENT
   000727 (0)001262 6000 00            725        TZE      NOPAGE2           T/ NO - ERROR
   000730    2 00035 7561 00           726        STQ      PTW2,,AUTO        SAVE ORIGINAL PAGE TABLE WORD
   000731    000020 2760 07            727        ORQ      =O20,DL           SET WRITE BIT (ALWAYS)
   000732    5 00000 7561 05           728        STQ      0,AL,PR5          SET MODIFIED WORD INTO PT
          (0)000000000733              729  MAPOK EQU      *
   000733    000000 5324 00            730        CAMP     0                 CLEAR AM
          (0)000000000734              731  NOMAP EQU      *
                                       732  *  NOW WE'RE READY TO DO GET / PUT
   000734    2 00032 7665 00           733        LAR6     TAR,,AUTO         GET SAVED AR CONTENTS
   000735    2 00003 4705 00           734        LDP0     VAL$,,AUTO
   000736    0 00000 4745 00           735        LDP4     0,,PR0            PTR TO 'VALUE'
          (0)000000000737              736  GETIT EQU      *
   000737    400000 2350 03            737        LDA      =O400000,DU       SET FLAG TO INDICATE ...
   000740  X 000000 4754 00            738        LDP5     S_D_ACCESS$
   000741    5 00000 7551 00           739        STA      0,,PR5            ... THAT WE'RE ACCESSING USER
   000742  X 000000 4754 00            740        LDP5     S_D_REM_ACCESS$
   000743    5 00000 4525 00           741        STP      AUTO,0,,PR5       DO PL6 "REMEMBER"
   000744 (0)001272 6360 00            742        EAQ      ACCESSFAULT
   000745    5 00001 7561 00           743        STQ      1,,PR5
   000746    2 00031 2351 00           744        LDA      WHAT,,AUTO
   000747    000077 3750 07            745        ANA      =O77,DL           CLEAR FLAGS
   000750 (0)000751 7100 05            746        TRA      *+1,AL            DO FUNCTION
   000751 (0)001006 7100 00            747        TRA      GETVAL            GET_EIS
   000752 (0)001022 7100 00            748        TRA      PUTCHAR           MLR_EIS
   000753 (0)001031 7100 00            749        TRA      PUTBIT            CSL_EIS
   000754 (0)001042 7100 00            750        TRA      PUTVAL            CSR_EIS
   000755 (0)001056 7100 00            751        TRA      GETMVNU           MVNU_EIS
   000756 (0)001065 7100 00            752        TRA      GETMVNL           MNVL_EIS
   000757 (0)001074 7100 00            753        TRA      GETMVNT           MVNT_EIS
   000760 (0)001130 7100 00            754        TRA      PUTMVNU           PMVNU_EIS
   000761 (0)001141 7100 00            755        TRA      PUTMVNL           PMVNL_EIS
   000762 (0)001152 7100 00            756        TRA      PUTMVNT           PMVNT_EIS
   000763 (0)001163 7100 00            757        TRA      PUTEMVNL          PEMVNL_EIS
   000764 (0)001174 7100 00            758        TRA      PUTEMVNT          PEMVNT_EIS
   000765 (0)001205 7100 00            759        TRA      PUTUMVNU          PUMVNU_EIS
   000766 (0)001216 7100 00            760        TRA      PUTUMVNL          PUMVNL_EIS
 14:03 07/29/97  FILE=DDK$GETV_A.:E05TSI                                                                 22   BMAP - B00
   000767 (0)001227 7100 00            761        TRA      PUTUMVNT          PUMVNT_EIS
   000770 (0)001103 7100 00            762        TRA      GETUMVNU          UMVNU_EIS
   000771 (0)001112 7100 00            763        TRA      GETUMVNL          UMVNL_EIS
   000772 (0)001121 7100 00            764        TRA      GETUMVNT          UMVNT_EIS
          (0)000000000773              765  VIRTSEG EQU    *
   000773    2 00032 7465 00           766        SAR6     TAR,,AUTO
   000774  X 000000 2350 00            767        LDA      D_XDELTA
   000775 (0)001242 6040 00            768        TMI      BADDESCTYPE
   000776    2 00034 4501 00           769        STZ      PTW1,,AUTO
   000777    2 00035 4501 00           770        STZ      PTW2,,AUTO
   001000    2 00020 2361 00           771        LDQ      OFFSET,,AUTO
   001001    000011 5060 07            772        DIV      9,DL
   001002    2 00023 0761 00           773        ADQ      DESC+1,,AUTO
   001003    2 00024 7561 00           774        STQ      TEMP1,,AUTO
   001004    2 00024 6165 00           775        LDEA6    TEMP1,,AUTO
   001005 (0)000734 7100 00            776        TRA      NOMAP
          (0)000000001006              777  GETVAL  EQU    *
                                       778  *
   001006 (0)001332 7020 00            779        TSX2     CHK9              SEE IF WE CAN USE MRL
   001007 (0)001015 7100 00            780        TRA      GETVALCSR         T/ NO, SIZES NOT MULTIPLE OF 9 BITS
   001010    000 0 140 1015 40         781        MRL      (AR,RL),(AR,RL),0,0  FILL WITH '000'O
   001011    6 00000 0 0 0 0005        782        ADSC9    0,0,AL,PR6        SIZE IN A
   001012    4 00000 0 0 0 0006        783        ADSC9    0,0,QL,PR4        SIZE IN Q
   001013 (0)001357 7020 00            784        TSX2     MAPREST           RESTORE MAP IN CASE ALTERED
   001014    000001 7100 11            785        TRA      1,X1              NORMAL RETURN
          (0)000000001015              786  GETVALCSR  EQU *
   001015    0 00 03 0 140 0615 40     787        CSR      (AR,RL),(AR,RL),3,0,0
   001016    6 00000 0 00 0005         788        BDSC     0,AL,,,PR6
   001017    4 00000 0 00 0006         789        BDSC     0,QL,,,PR4
   001020 (0)001357 7020 00            790        TSX2     MAPREST
   001021    000001 7100 11            791        TRA      1,X1
          (0)000000001022              792  PUTCHAR  EQU   *
   001022 (0)001332 7020 00            793        TSX2     CHK9
   001023 (0)001316 7100 00            794        TRA      CHARALIGN         SHOULDN'T BE HERE WITH FUNNY SIZES
   001024    040 0 140 1005 40         795        MLR      (AR,RL),(AR,RL),040,0  FILL WITH BLANKS
   001025    4 00000 0 0 0 0006        796        ADSC9    0,0,QL,PR4
   001026    6 00000 0 0 0 0005        797        ADSC9    0,0,AL,PR6
 14:03 07/29/97  FILE=DDK$GETV_A.:E05TSI                                                                 23   BMAP - B00
   001027 (0)001357 7020 00            798        TSX2     MAPREST
   001030    000001 7100 11            799        TRA      1,X1
          (0)000000001031              800  PUTBIT  EQU    *
   001031    2 00006 4705 00           801        LDP0     DSIZE,,AUTO
   001032    0 00000 2351 00           802        LDA      0,,PR0
   001033    2 00007 4705 00           803        LDP0     RSIZE,,AUTO
   001034    0 00000 2361 00           804        LDQ      0,,PR0
   001035    0 00 03 0 140 0605 40     805        CSL      (AR,RL),(AR,RL),3,0,0
   001036    4 00000 0 00 0006         806        BDSC     0,QL,,,PR4
   001037    6 00000 0 00 0005         807        BDSC     0,AL,,,PR6
   001040 (0)001357 7020 00            808        TSX2     MAPREST
   001041    000001 7100 11            809        TRA      1,X1
          (0)000000001042              810  PUTVAL  EQU    *
   001042 (0)001332 7020 00            811        TSX2     CHK9
   001043 (0)001051 7100 00            812        TRA      PUTVALCSR         FUNNY SIZES - USE CSR
   001044    000 0 140 1015 40         813        MRL      (AR,RL),(AR,RL),0,0   FILL WITH ZEROES
   001045    4 00000 0 0 0 0006        814        ADSC9    0,0,QL,PR4
   001046    6 00000 0 0 0 0005        815        ADSC9    0,0,AL,PR6
   001047 (0)001357 7020 00            816        TSX2     MAPREST
   001050    000001 7100 11            817        TRA      1,X1
          (0)000000001051              818  PUTVALCSR  EQU *
   001051    0 00 03 0 140 0615 40     819        CSR      (AR,RL),(AR,RL),3,0,0   ZERO FILL
   001052    4 00000 0 00 0006         820        BDSC     0,QL,,,PR4
   001053    6 00000 0 00 0005         821        BDSC     0,AL,,,PR6
   001054 (0)001357 7020 00            822        TSX2     MAPREST
   001055    000001 7100 11            823        TRA      1,X1
   001056                              824  GETMVNU  NULL
   001056    2 00006 4705 00           825        LDP0     DSIZE,,AUTO
   001057    0 00000 2351 00           826        LDA      0,,PR0
   001060    0 000 0 0 100 3005 40     827        MVN      (1,1),(1)       (AR,RL),(AR)
   001061    6 00000 0 1 3 00 05       828        NDSC4    0,0,AL,3,0,PR6  N=*A, unsigned
   001062    4 00000 0 0 1 00 77       829        NDSC9    0,0,63,1,0,PR4  N=63, leading sign
   001063 (0)001357 7020 00            830        TSX2     MAPREST
   001064    000001 7100 11            831        TRA      1,X1
                                       832  *
   001065                              833  GETMVNL  NULL
   001065    2 00006 4705 00           834        LDP0     DSIZE,,AUTO
 14:03 07/29/97  FILE=DDK$GETV_A.:E05TSI                                                                 24   BMAP - B00
   001066    0 00000 2351 00           835        LDA      0,,PR0
   001067    0 000 0 0 100 3005 40     836        MVN      (1,1),(1)       (AR,RL),(AR)
   001070    6 00000 0 1 1 00 05       837        NDSC4    0,0,AL,1,0,PR6  N=*A, leading sign
   001071    4 00000 0 0 1 00 77       838        NDSC9    0,0,63,1,0,PR4  N=63, leading sign
   001072 (0)001357 7020 00            839        TSX2     MAPREST
   001073    000001 7100 11            840        TRA      1,X1
                                       841  *
   001074                              842  GETMVNT  NULL
   001074    2 00006 4705 00           843        LDP0     DSIZE,,AUTO
   001075    0 00000 2351 00           844        LDA      0,,PR0
   001076    0 000 0 0 100 3005 40     845        MVN      (1,1),(1)       (AR,RL),(AR)
   001077    6 00000 0 1 2 00 05       846        NDSC4    0,0,AL,2,0,PR6  N=*A, trailing sign
   001100    4 00000 0 0 1 00 77       847        NDSC9    0,0,63,1,0,PR4  N=63, leading sign
   001101 (0)001357 7020 00            848        TSX2     MAPREST
   001102    000001 7100 11            849        TRA      1,X1
                                       850  *
   001103                              851  GETUMVNU  NULL
   001103    2 00006 4705 00           852        LDP0     DSIZE,,AUTO
   001104    0 00000 2351 00           853        LDA      0,,PR0
   001105    0 000 0 0 100 3005 40     854        MVN      (1,1),(1)       (AR,RL),(AR)
   001106    6 00000 0 0 3 00 05       855        NDSC9    0,0,AL,3,0,PR6  N=*A, unsigned
   001107    4 00000 0 0 1 00 77       856        NDSC9    0,0,63,1,0,PR4  N=63, leading sign
   001110 (0)001357 7020 00            857        TSX2     MAPREST
   001111    000001 7100 11            858        TRA      1,X1
                                       859  *
   001112                              860  GETUMVNL  NULL
   001112    2 00006 4705 00           861        LDP0     DSIZE,,AUTO
   001113    0 00000 2351 00           862        LDA      0,,PR0
   001114    0 000 0 0 100 3005 40     863        MVN      (1,1),(1)       (AR,RL),(AR)
   001115    6 00000 0 0 1 00 05       864        NDSC9    0,0,AL,1,0,PR6  N=*A, leading sign
   001116    4 00000 0 0 1 00 77       865        NDSC9    0,0,63,1,0,PR4  N=63, leading sign
   001117 (0)001357 7020 00            866        TSX2     MAPREST
   001120    000001 7100 11            867        TRA      1,X1
                                       868  *
   001121                              869  GETUMVNT  NULL
   001121    2 00006 4705 00           870        LDP0     DSIZE,,AUTO
   001122    0 00000 2351 00           871        LDA      0,,PR0
 14:03 07/29/97  FILE=DDK$GETV_A.:E05TSI                                                                 25   BMAP - B00
   001123    0 000 0 0 100 3005 40     872        MVN      (1,1),(1)       (AR,RL),(AR)
   001124    6 00000 0 0 2 00 05       873        NDSC9    0,0,AL,2,0,PR6  N=*A, trailing sign
   001125    4 00000 0 0 1 00 77       874        NDSC9    0,0,63,1,0,PR4  N=63, leading sign
   001126 (0)001357 7020 00            875        TSX2     MAPREST
   001127    000001 7100 11            876        TRA      1,X1
                                       877  *
   001130                              878  PUTMVNU   NULL
   001130    2 00006 4705 00           879        LDP0     DSIZE,,AUTO
   001131    0 00000 2351 00           880        LDA      0,,PR0
   001132    2 00007 4705 00           881        LDP0     RSIZE,,AUTO
   001133    0 00000 2361 00           882        LDQ      0,,PR0
   001134    0 000 0 0 140 3005 40     883        MVN      (1,1),(1,1)       (AR,RL),(AR,RL)
   001135    4 00000 0 0 1 00 06       884        NDSC9    0,0,QL,1,0,PR4    N=*Q, leading sign, unpacked
   001136    6 00000 0 1 3 00 05       885        NDSC4    0,0,AL,3,0,PR6    N=*A, unsigned, packed
   001137 (0)001357 7020 00            886        TSX2     MAPREST
   001140    000001 7100 11            887        TRA      1,X1
                                       888  *
   001141                              889  PUTMVNL  NULL
   001141    2 00006 4705 00           890        LDP0     DSIZE,,AUTO
   001142    0 00000 2351 00           891        LDA      0,,PR0
   001143    2 00007 4705 00           892        LDP0     RSIZE,,AUTO
   001144    0 00000 2361 00           893        LDQ      0,,PR0
   001145    0 000 0 0 140 3005 40     894        MVN      (1,1),(1,1)       (AR,RL),(AR,RL)
   001146    4 00000 0 0 1 00 06       895        NDSC9    0,0,QL,1,0,PR4    N=*Q, leading sign, unpacked
   001147    6 00000 0 1 1 00 05       896        NDSC4    0,0,AL,1,0,PR6    N=*A, leading sign, packed
   001150 (0)001357 7020 00            897        TSX2     MAPREST
   001151    000001 7100 11            898        TRA      1,X1
                                       899  *
   001152                              900  PUTMVNT  NULL
   001152    2 00006 4705 00           901        LDP0     DSIZE,,AUTO
   001153    0 00000 2351 00           902        LDA      0,,PR0
   001154    2 00007 4705 00           903        LDP0     RSIZE,,AUTO
   001155    0 00000 2361 00           904        LDQ      0,,PR0
   001156    0 000 0 0 140 3005 40     905        MVN      (1,1),(1,1)       (AR,RL),(AR,RL)
   001157    4 00000 0 0 1 00 06       906        NDSC9    0,0,QL,1,0,PR4    N=*Q, leading sign, unpacked
   001160    6 00000 0 1 2 00 05       907        NDSC4    0,0,AL,2,0,PR6    N=*A, trailing sign, packed
   001161 (0)001357 7020 00            908        TSX2     MAPREST
 14:03 07/29/97  FILE=DDK$GETV_A.:E05TSI                                                                 26   BMAP - B00
   001162    000001 7100 11            909        TRA      1,X1
                                       910  *
   001163                              911  PUTEMVNL  NULL
   001163    2 00006 4705 00           912        LDP0     DSIZE,,AUTO
   001164    0 00000 2351 00           913        LDA      0,,PR0
   001165    2 00007 4705 00           914        LDP0     RSIZE,,AUTO
   001166    0 00000 2361 00           915        LDQ      0,,PR0
   001167    1 000 0 0 140 3005 40     916        MVN      (1,1),(1,1),,1      (AR,RL),(AR,RL),,P
   001170    4 00000 0 0 1 00 06       917        NDSC9    0,0,QL,1,0,PR4    N=*Q, leading sign, unpacked
   001171    6 00000 0 1 1 00 05       918        NDSC4    0,0,AL,1,0,PR6    N=*A, leading sign, packed
   001172 (0)001357 7020 00            919        TSX2     MAPREST
   001173    000001 7100 11            920        TRA      1,X1
   001174                              921  PUTEMVNT  NULL
   001174    2 00006 4705 00           922        LDP0     DSIZE,,AUTO
   001175    0 00000 2351 00           923        LDA      0,,PR0
   001176    2 00007 4705 00           924        LDP0     RSIZE,,AUTO
   001177    0 00000 2361 00           925        LDQ      0,,PR0
   001200    1 000 0 0 140 3005 40     926        MVN      (1,1),(1,1),,1      (AR,RL),(AR,RL),,P
   001201    4 00000 0 0 1 00 06       927        NDSC9    0,0,QL,1,0,PR4    N=*Q, leading sign, unpacked
   001202    6 00000 0 1 2 00 05       928        NDSC4    0,0,AL,2,0,PR6    N=*A, trailing sign, packed
   001203 (0)001357 7020 00            929        TSX2     MAPREST
   001204    000001 7100 11            930        TRA      1,X1
                                       931  *
   001205                              932  PUTUMVNU  NULL
   001205    2 00006 4705 00           933        LDP0     DSIZE,,AUTO
   001206    0 00000 2351 00           934        LDA      0,,PR0
   001207    2 00007 4705 00           935        LDP0     RSIZE,,AUTO
   001210    0 00000 2361 00           936        LDQ      0,,PR0
   001211    0 000 0 0 140 3005 40     937        MVN      (1,1),(1,1)       (AR,RL),(AR,RL)
   001212    4 00000 0 0 1 00 06       938        NDSC9    0,0,QL,1,0,PR4    N=*Q, leading sign, unpacked
   001213    6 00000 0 0 3 00 05       939        NDSC9    0,0,AL,3,0,PR6    N=*A, unsigned, unpacked
   001214 (0)001357 7020 00            940        TSX2     MAPREST
   001215    000001 7100 11            941        TRA      1,X1
                                       942  *
   001216                              943  PUTUMVNL  NULL
   001216    2 00006 4705 00           944        LDP0     DSIZE,,AUTO
   001217    0 00000 2351 00           945        LDA      0,,PR0
 14:03 07/29/97  FILE=DDK$GETV_A.:E05TSI                                                                 27   BMAP - B00
   001220    2 00007 4705 00           946        LDP0     RSIZE,,AUTO
   001221    0 00000 2361 00           947        LDQ      0,,PR0
   001222    0 000 0 0 140 3005 40     948        MVN      (1,1),(1,1)       (AR,RL),(AR,RL)
   001223    4 00000 0 0 1 00 06       949        NDSC9    0,0,QL,1,0,PR4    N=*Q, leading sign, unpacked
   001224    6 00000 0 0 1 00 05       950        NDSC9    0,0,AL,1,0,PR6    N=*A, leading sign, unpacked
   001225 (0)001357 7020 00            951        TSX2     MAPREST
   001226    000001 7100 11            952        TRA      1,X1
                                       953  *
   001227                              954  PUTUMVNT  NULL
   001227    2 00006 4705 00           955        LDP0     DSIZE,,AUTO
   001230    0 00000 2351 00           956        LDA      0,,PR0
   001231    2 00007 4705 00           957        LDP0     RSIZE,,AUTO
   001232    0 00000 2361 00           958        LDQ      0,,PR0
   001233    0 000 0 0 140 3005 40     959        MVN      (1,1),(1,1)       (AR,RL),(AR,RL)
   001234    4 00000 0 0 1 00 06       960        NDSC9    0,0,QL,1,0,PR4    N=*Q, leading sign, unpacked
   001235    6 00000 0 0 2 00 05       961        NDSC9    0,0,AL,2,0,PR6    N=*A, trailing sign, unpacked
   001236 (0)001357 7020 00            962        TSX2     MAPREST
   001237    000001 7100 11            963        TRA      1,X1
                                       964  *  ERRORS
          (0)000000001240              965  OUTOFSEG       EQU  *
   001240    000000 2350 07            966        LDA      0,DL              E@OUTOFSEG
   001241 (0)001327 7100 00            967        TRA      ALTRET
          (0)000000001242              968  BADDESCTYPE    EQU  *
   001242    000001 2350 07            969        LDA      1,DL              E@BADDESCTYPE
   001243 (0)001327 7100 00            970        TRA      ALTRET
          (0)000000001244              971  SEGNOTPRES     EQU  *
   001244    000002 2350 07            972        LDA      2,DL              E@SEGNOTPRES
   001245 (0)001327 7100 00            973        TRA      ALTRET
          (0)000000001246              974  SEGEMPTY       EQU  *
   001246    000003 2350 07            975        LDA      3,DL              E@SEGEMPTY
   001247 (0)001327 7100 00            976        TRA      ALTRET
          (0)000000001250              977  CANTWRITESEG   EQU  *
   001250    000004 2350 07            978        LDA      4,DL              E@CANTWRITESEG
   001251 (0)001327 7100 00            979        TRA      ALTRET
          (0)000000001252              980  CANTREADSEG    EQU  *
   001252    000005 2350 07            981        LDA      5,DL              E@CANTREADSEG
   001253 (0)001327 7100 00            982        TRA      ALTRET
 14:03 07/29/97  FILE=DDK$GETV_A.:E05TSI                                                                 28   BMAP - B00
          (0)000000001254              983  BADPTDW        EQU  *
   001254    000006 2350 07            984        LDA      6,DL              E@BADPTDW
   001255 (0)001327 7100 00            985        TRA      ALTRET
          (0)000000001256              986  OUTOFMAP       EQU  *
   001256    000007 2350 07            987        LDA      7,DL              E@OUTOFMAP
   001257 (0)001327 7100 00            988        TRA      ALTRET
          (0)000000001260              989  NOPAGE         EQU  *
   001260    000010 2350 07            990        LDA      8,DL              E@NOPAGE
   001261 (0)001327 7100 00            991        TRA      ALTRET
          (0)000000001262              992  NOPAGE2        EQU  *
   001262    000011 2350 07            993        LDA      9,DL              E@NOPAGE2
   001263 (0)001327 7100 00            994        TRA      ALTRET
          (0)000000001264              995  USECONFL  EQU  *
   001264    000014 2350 07            996        LDA      12,DL             E@USE_CONFLICT
   001265 (0)001327 7100 00            997        TRA      ALTRET
          (0)000000001266              998  ADRGR256  EQU  *
   001266    000015 2350 07            999        LDA      13,DL             E@ADDREXPGR256K
   001267 (0)001327 7100 00           1000        TRA      ALTRET
          (0)000000001270             1001  ADDRBAD  EQU   *
   001270    000016 2350 07           1002        LDA      14,DL             E@ADDRBAD
   001271 (0)001327 7100 00           1003        TRA      ALTRET
          (0)000000001272             1004  ACCESSFAULT  EQU  *              "UNWIND" TO HERE WHEN FAULT OCCURS
   001272 (0)001357 7020 00           1005        TSX2     MAPREST           JUST IN CASE
          (0)000000001273             1006  ACCESSFAULTNR  EQU  *            NO REST ENTRY
   001273  X 000000 4744 00           1007        LDP4     S_D_IPRFLT$
   001274    4 00000 2341 00          1008        SZN      0,,PR4            WAS THIS ACCESS OR BAD DECIMAL
   001275 (0)001322 6040 00           1009        TMI      IPRFLT            T/ DECIMAL FAULT
   001276    000012 2350 07           1010        LDA      10,DL             E@ACCESS_FAULT
   001277 (0)001327 7100 00           1011        TRA      ALTRET
          (0)000000001300             1012  PACCESSFAULT  EQU  *
   001300    000017 2350 07           1013        LDA      15,DL             E@PACCESS_FAULT
   001301 (0)001327 7100 00           1014        TRA      ALTRET
          (0)000000001302             1015  UPACCESSFAULT  EQU  *
   001302    000020 2350 07           1016        LDA      16,DL             E@BADPTR
   001303 (0)001327 7100 00           1017        TRA      ALTRET
          (0)000000001304             1018  SEGIDERR EQU   *
   001304    000021 2350 07           1019        LDA      17,DL             E@SEGIDERR
 14:03 07/29/97  FILE=DDK$GETV_A.:E05TSI                                                                 29   BMAP - B00
   001305 (0)001327 7100 00           1020        TRA      ALTRET
          (0)000000001306             1021  UDONLYSYM EQU  *
   001306    000022 2350 07           1022        LDA      18,DL             E@UDONLYSYM
   001307 (0)001327 7100 00           1023        TRA      ALTRET
          (0)000000001310             1024  XDONLYSYM EQU  *
   001310    000023 2350 07           1025        LDA      19,DL             E@XDONLYSYM
   001311 (0)001327 7100 00           1026        TRA      ALTRET
   001312                             1027  NOSAD NULL
   001312    000025 2350 07           1028        LDA      21,DL
   001313 (0)001327 7100 00           1029        TRA      ALTRET
          (0)000000001314             1030  NOTANLZ3 EQU   *
   001314    000026 2350 07           1031        LDA      22,DL
   001315 (0)001327 7100 00           1032        TRA      ALTRET
          (0)000000001316             1033  CHARALIGN EQU *
   001316    000027 2350 07           1034        LDA      23,DL
   001317 (0)001327 7100 00           1035        TRA      ALTRET
          (0)000000001320             1036  NORESMEM EQU *
   001320    000030 2350 07           1037        LDA      24,DL
   001321 (0)001327 7100 00           1038        TRA      ALTRET
   001322                             1039  IPRFLT NULL
   001322  X 000000 4744 00           1040        LDP4     S_D_IPRFLT$
   001323    4 00000 4501 00          1041        STZ      0,,PR4
   001324    000024 2350 07           1042        LDA      20,DL             E@BADDEC
   001325 (0)001327 7100 00           1043        TRA      ALTRET
          (0)000000001326             1044  DELBUG         EQU  *
   001326    000013 2350 07           1045        LDA      11,DL             E@DELBUG
          (0)000000001327             1046  ALTRET  EQU    *
   001327    2 00040 7551 00          1047        STA      ERRCODE,,AUTO
   001330    2 00041 2211 00          1048        LDX1     RET,,AUTO
   001331    000000 7100 11           1049        TRA      0,X1              ALTRETURN TO DDK$GETVAL
                                      1050  *  LOCAL ROUTINES
          (0)000000001332             1051  CHK9  EQU      *                 ROUTINE TO CHECK DSIZE AND RSIZE FOR MOD9
   001332    2 00032 2351 00          1052        LDA      TAR,,AUTO         GET AR VALUE
   001333    170000 3750 07           1053        ANA      =O170000,DL       CHECK BIT OFFSET
   001334 (0)001352 6010 00           1054        TNZ      BITS              CANT DO MLR/MRL IF BIT OFFSET NON-ZERO
   001335    2 00006 4705 00          1055        LDP0     DSIZE,,AUTO
   001336    0 00000 2361 00          1056        LDQ      0,,PR0
 14:03 07/29/97  FILE=DDK$GETV_A.:E05TSI                                                                 30   BMAP - B00
   001337    000011 5060 07           1057        DIV      9,DL
   001340    000000 0750 07           1058        ADA      0,DL              SET INDICS
   001341 (0)001352 6010 00           1059        TNZ      BITS              T/ NOT MOD 9, MUST USE BIT MOVE
   001342    2 00024 7561 00          1060        STQ      TEMP1,,AUTO
   001343    2 00007 4705 00          1061        LDP0     RSIZE,,AUTO
   001344    0 00000 2361 00          1062        LDQ      0,,PR0
   001345    000011 5060 07           1063        DIV      9,DL
   001346    000000 0750 07           1064        ADA      0,DL              SET INDICS
   001347 (0)001352 6010 00           1065        TNZ      BITS              T/ NOT MOD 9, MUST USE BIT MOVE
   001350    2 00024 2351 00          1066        LDA      TEMP1,,AUTO
   001351    000001 7100 12           1067        TRA      1,X2              OK - USE MLR / MRL
          (0)000000001352             1068  BITS  EQU      *
   001352    2 00006 4705 00          1069        LDP0     DSIZE,,AUTO
   001353    0 00000 2351 00          1070        LDA      0,,PR0
   001354    2 00007 4705 00          1071        LDP0     RSIZE,,AUTO
   001355    0 00000 2361 00          1072        LDQ      0,,PR0
   001356    000000 7100 12           1073        TRA      0,X2              ALTRET - GO USE CSR / CSL
          (0)000000001357             1074  MAPREST EQU    *
                                      1075  *  ROUTINE TO RESTORE MAP IN CASE XDELTA SET IN ANY WRITE BITS
                                      1076  *  REALX$ (IF WE ACCESSED A MAPPED ENTRY) POINTS TO THE PAGE TABLE IN REAL
   001357  X 000000 4754 00           1077        LDP5     S_D_ACCESS$
   001360    5 00000 4501 00          1078        STZ      0,,PR5            RESET "ACCESSING USER" FLAG
   001361    2 00034 2351 00          1079        LDA      PTW1,,AUTO        ORIGINAL PAGE TABLE WORD
   001362    000000 6000 12           1080        TZE      0,X2              IF ZERO, WE DIDN'T CHANGE ANY PT ENTRY
   001363    2 00037 2361 00          1081        LDQ      PT#,,AUTO         NUMBER OF PT WORD CHANGED
   001364  X 000000 4754 00           1082        LDP5     REALX$            PTR TO PAGE TABLE IN REAL
   001365    5 00000 7551 06          1083        STA      0,QL,PR5          RESTORE ORIGINAL WORD
   001366    000000 5324 00           1084        CAMP     0                 CLEAR AM, LEAVE OFF IF NOT ON
   001367    2 00035 2351 00          1085        LDA      PTW2,,AUTO        SOMETIMES WE CHANGE TWO WORDS
   001370    000000 6000 12           1086        TZE      0,X2              ALL DONE
   001371    000001 0760 07           1087        ADQ      1,DL              BUMP UP TO NEXT PAGE
   001372    5 00000 7551 06          1088        STA      0,QL,PR5          RESTORE THAT WORD TOO
   001373    000000 5324 00           1089        CAMP     0                 CLEAR AM, LEAVE OFF IF NOT ON
   001374  X 000000 4754 00           1090        LDP5     DLS$              PTR TO XDLS
   001375    5 X 00000 4501 00        1091        STZ      REALXB_OFF,,PR5   RESET BASE TO ZERO
   001376    000000 7100 12           1092        TRA      0,X2              ALL DONE
                                      1093  *
 14:03 07/29/97  FILE=DDK$GETV_A.:E05TSI                                                                 31   BMAP - B00
   001377    000001000000             1094  K256  DEC      256B25
   001400    000004000000             1095  K1024 DEC      1024B25
   001401    000000 0110 00           1096        EVEN
   001402
   001402    000077 3 777 1 00        1097  SHRINKSSR  VEC DR6SID,0,64
   001403    000000 0 00 X 0000
                                      1098        END
 1 000000    777777777760
   000001    777777600000

  CONTROL SECTION TABLE

   0 CODE   EVEN  001404 DDK$GETV_A
   1 RODATA EVEN  000002 LITERALS

 14:03 07/29/97  FILE=DDK$GETV_A.:E05TSI      SYMBOL TABLE                                               32   BMAP - B00
 41101000 000000001272 ACCESSFAULT    742     *1004
 40101000 000000001273 ACCESSFAULTNR*1006
 41101000 000000001270 ADDRBAD        409       430     *1001
 40000000 000000000014 ADDR_TYPE      *72
 41101000 000000001266 ADRGR256       541      *998
 41101000 000000001327 ALTRET         967       970       973       976       979       982       985
                                      988       991       994       997      1000      1003      1011
                                     1014      1017      1020      1023      1026      1029      1032
                                     1035      1038      1043     *1046
 41000000 000000000001 AR             *50       781       787       795       805       813       819
 40000000 000000000015 ARRAY_FLAG     *73
 41000000 000000000002 AUTO           *53       108       109       117       130       142       149
                                      229       247       289       298       307       328       332
                                      345       351       352       356       367       379       392
                                      402       405       417       419       428       437       446
                                      454       463       476       483       487       492       510
                                      512       515       527       528       534       535       538
                                      539       540       542       544       552       553       555
                                      576       583       584       586       589       596       597
                                      607       608       610       611       617       618       620
                                      621       626       627       635       641       646       653
                                      654       657       667       695       697       699       700
                                      703       708       711       714       721       726       733
                                      734       741       744       766       769       770       771
                                      773       774       775       801       803       825       834
                                      843       852       861       870       879       881       890
                                      892       901       903       912       914       922       924
                                      933       935       944       946       955       957      1047
                                     1048      1052      1055      1060      1061      1066      1069
                                     1071      1079      1081      1085
 01101000 000000000157 AUTO$          312      *316
 41101000 000000001242 BADDESCTYPE    602       768      *968
 41101000 000000001254 BADPTDW        670       673      *983
 41101000 000000001352 BITS          1054      1059      1065     *1068
 41101000 000000001252 CANTREADSEG    650      *980
 41101000 000000001250 CANTWRITESEG   640      *977
 41101000 000000001316 CHARALIGN      794     *1033
 14:03 07/29/97  FILE=DDK$GETV_A.:E05TSI      SYMBOL TABLE                                               33   BMAP - B00
 41101000 000000001332 CHK9           779       793       811     *1051
 41101000 000000000576 CHKFLGS        623      *630
 53101000 000000000000 DDK$GETV_A       9       *96       455       496
 41101000 000000001326 DELBUG         256       257       258       259       260     *1044
 41000000 000000000022 DESC           *80       351       352       356       527       528       589
                                      596       597       621       641       646       697       773
 41101000 000000000621 DESCOK         638       647      *651
 03301003 000000000000 DLS$           *17       391       643       693      1090
 03601000 000000000000 DR6SID         *45      1097
 41000000 000000000006 DSIZE          *66       553       711       801       825       834       843
                                      852       861       870       879       890       901       912
                                      922       933       944       955      1055      1069
 03301025 000000000000 D_XDELTA       *39       268       282       389       425       505       593
                                      639       655       767
 40000000 000000000017 EIS            *75
 41000000 000000000040 ERRCODE        *93      1047
 40000000 000000000013 EXPR_OP        *71
 40000000 000000000012 EXPR_VAL       *70
 01101000 000000000045 GETAR          136      *148
 40101000 000000000737 GETIT         *736
 01101000 000000001065 GETMVNL        752      *833
 01101000 000000001074 GETMVNT        753      *842
 01101000 000000001056 GETMVNU        751      *824
 01101000 000000001112 GETUMVNL       763      *860
 01101000 000000001121 GETUMVNT       764      *869
 01101000 000000001103 GETUMVNU       762      *851
 41101000 000000001006 GETVAL         747      *777
 41101000 000000001015 GETVALCSR      780      *786
 41101000 000000000273 GOTBASE        397      *401
 41101000 000000000442 GOTP6          150       266       272       277       280       285       293
                                      310       315       324       355       360       373       385
                                      421       431      *525
 41101000 000000000124 HJIT           253      *281
 40000000 000000000010 INDXX          *68
 03301008 000000000000 IOBUF$         *22       427
 03301030 000000000000 IPHY$          *44       685
 01101000 000000001322 IPRFLT        1009     *1039
 14:03 07/29/97  FILE=DDK$GETV_A.:E05TSI      SYMBOL TABLE                                               34   BMAP - B00
 40000000 000000000004 ITEM           *64
 41101000 000000000122 JIT            252      *278
 01101000 000000001400 K1024          411     *1095
 01101000 000000001377 K256           404     *1094
 03301017 000000000000 MALS$          *31       125       340
 41101000 000000000733 MAPOK          719      *729
 41101000 000000001357 MAPREST        784       790       798       808       816       822       830
                                      839       848       857       866       875       886       897
                                      908       919       929       940       951       962      1005
                                    *1074
 41000000 000000000036 MAPSZ          *91       667       700       721
 03301006 000000000000 MAPX$          *20       416
 03301007 000000000000 MAPXB_OFF      *21       396
 03301018 000000000000 MIS$           *32       659
 01101000 000000000654 MODOK          678      *680
 41000000 000000000004 MVNU_EIS       *76       556
 41101000 000000000303 NOCHK          407      *410
 41101000 000000000734 NOMAP          656       658      *731       776
 41101000 000000001260 NOPAGE         707      *989
 41101000 000000001262 NOPAGE2        725      *992
 41101000 000000001320 NORESMEM       509     *1036
 01101000 000000001312 NOSAD          264     *1027
 01101000 000000000033 NOTANLZ1       122      *137
 01101000 000000000245 NOTANLZ2       337      *374
 41101000 000000001314 NOTANLZ3       124       303       339       442       461     *1030
 41101000 000000000466 NOTRUNC        545      *547
 41101000 000000000047 NOTUSER        113      *227
 41101000 000000000617 NOTWRITE       636      *648
 01101000 000000000666 NOWSQ0PT       683      *691
 01101000 000000000511 ODDNUM         567      *572
 41000000 000000000020 OFFSET         *79       402       405       417       419       428       512
                                      535       771
 41101000 000000001256 OUTOFMAP       701       722      *986
 41101000 000000001240 OUTOFSEG       587       591      *965
 41101000 000000001300 PACCESSFAULT   484     *1012
 01101000 000000000502 PACKED         559      *564
 40000000 000000000011 PNTR           *69
 14:03 07/29/97  FILE=DDK$GETV_A.:E05TSI      SYMBOL TABLE                                               35   BMAP - B00
 41000000 000000000027 POINTER        *84       109       117       149       229       247       289
                                      298       307       328       332       392       437       454
                                      476       487       492
 41000000 000000000000 PR0            *54       508       511       554       682       712       735
                                      802       804       826       835       844       853       862
                                      871       880       882       891       893       902       904
                                      913       915       923       925       934       936       945
                                      947       956       958      1056      1062      1070      1072
 40000000 000000000001 PR1            *55
 40000000 000000000002 PR2            *56
 40000000 000000000003 PR3            *57
 41000000 000000000004 PR4            *58       128       130       132       135       140       142
                                      144       147       263       343       345       347       350
                                      365       367       369       372       377       379       381
                                      384       446       448       450       453       464       466
                                      471       473       474       481       483       485       495
                                      519       521       783       789       796       806       814
                                      820       829       838       847       856       865       874
                                      884       895       906       917       927       938       949
                                      960      1008      1041
 41000000 000000000005 PR5            *59       133       145       304       306       314       320
                                      322       323       348       370       382       396       400
                                      412       420       436       451       452       486       644
                                      660       686       694       705       710       723       728
                                      739       741       743      1078      1083      1088      1091
 41000000 000000000006 PR6            *60       271       275       468       543       546       582
                                      782       788       797       807       815       821       828
                                      837       846       855       864       873       885       896
                                      907       918       928       939       950       961
 41000000 000000000007 PR7            *61       121       302       336       441       460
 41000000 000000000037 PT#            *92       699      1081
 41000000 000000000034 PTW1           *89       653       708       769      1079
 41000000 000000000035 PTW2           *90       654       726       770      1085
 41101000 000000001031 PUTBIT         749      *800
 41101000 000000001022 PUTCHAR        748      *792
 01101000 000000001163 PUTEMVNL       757      *911
 01101000 000000001174 PUTEMVNT       758      *921
 14:03 07/29/97  FILE=DDK$GETV_A.:E05TSI      SYMBOL TABLE                                               36   BMAP - B00
 01101000 000000001141 PUTMVNL        755      *889
 01101000 000000001152 PUTMVNT        756      *900
 01101000 000000001130 PUTMVNU        754      *878
 01101000 000000001216 PUTUMVNL       760      *943
 01101000 000000001227 PUTUMVNT       761      *954
 01101000 000000001205 PUTUMVNU       759      *932
 41101000 000000001042 PUTVAL         750      *810
 41101000 000000001051 PUTVALCSR      812      *818
 41101000 000000000271 REAL           394      *398
 03301004 000000000000 REALX$         *18       413       704      1082
 03301005 000000000000 REALXB_OFF     *19       400       694      1091
 01101000 000000000441 RESCOM         520      *523
 41000000 000000000041 RET            *94       108      1048
 41000000 000000000001 RL             *51       781       787       795       805       813       819
 41000000 000000000007 RSIZE          *67       803       881       892       903       914       924
                                      935       946       957      1061      1071
 01101000 000000000104 SAD            255      *261
 03301024 000000000000 SAD$           *38       265
 03301019 000000000000 SCX1$          *33       645
 03301020 000000000000 SCX1_OFF       *34       644
 41101000 000000001246 SEGEMPTY       634      *974
 41101000 000000001304 SEGIDERR       346       368       380     *1018
 41101000 000000001244 SEGNOTPRES     632      *971
 01101000 000000001402 SHRINKSSR      276     *1097
 41101000 000000000116 SSR            251      *273
 40000000 000000000005 SVALUE         *65
 40000000 000000000030 SZ             *85
 01101000 000000000520 SZKNOWN        557       563       571       578      *580
 03301012 000000000000 S_D_ACCESS$    *26       127       134       139       146       341       349
                                      363       371       375       383       449       480       494
                                      738      1077
 03301016 000000000000 S_D_ANLZ$      *30       120       301       335       440       459
 03301023 000000000000 S_D_ASTACKOFF$           *37       319       470       475
 03301028 000000000000 S_D_HW_PTB_UNITS$        *42       675
 03301027 000000000000 S_D_HW_RES_MEM$          *41       507
 03301029 000000000000 S_D_HW_WSQ0PT$           *43       681
 03301022 000000000000 S_D_IPRFLT$    *36      1007      1040
 14:03 07/29/97  FILE=DDK$GETV_A.:E05TSI      SYMBOL TABLE                                               37   BMAP - B00
 03301013 000000000000 S_D_REM_ACCESS$          *27       129       141       344       366       378
                                      445       482       740
 03301021 000000000000 S_D_SAD$       *35       262
 03301015 000000000000 S_D_TCB$$      *29       270
 03301014 000000000000 S_D_USS$$      *28       274       305       465
 41000000 000000000032 TAR            *87       552       576       586       695       733       766
                                     1052
 41101000 000000000111 TCB            254      *267
 41000000 000000000024 TEMP1          *81       534       540       542       583       584       607
                                      608       610       611       703       714       774       775
                                     1060      1066
 41000000 000000000025 TEMP2          *82       538       539       617       618
 01101000 000000000414 TGLABEL        490      *493
 01101000 000000000155 TOPAUTO       *313       318
 41000000 000000000026 TRUNC          *83       544
 40000000 000000000016 TRUNC_FLAG     *74
 41101000 000000000066 TYPE0          233      *245
 41101000 000000000130 TYPE1          234      *287
 41101000 000000000417 TYPE10         243      *498
 41101000 000000000135 TYPE2          235      *295
 41101000 000000000167 TYPE3          236      *326
 41101000 000000000260 TYPE4          237      *387
 41101000 000000000316 TYPE5          238      *423
 41101000 000000000352 TYPE6          239      *457
 41101000 000000000325 TYPE7          240      *433
 41101000 000000001306 UDONLYSYM      269     *1021
 03301010 000000000000 UHJIT$         *24       284
 03301009 000000000000 UJIT$          *23       279
 41000000 000000000014 UMVNU_EIS      *77       558
 41101000 000000001302 UPACCESSFAULT  131       143       447     *1015
 03301002 000000000000 UPS$           *13       115       292       331       362       435
 02301000 000000000000 USDS$          *11
 02301011 000000000000 USE$           *25
 40101000 000000001264 USECONFL      *995
 40000000 000000000004 USE_USER#      *48
 40000000 000000000003 USE_USER@      *47
 03301001 000000000000 USS1$          *12       297       462
 14:03 07/29/97  FILE=DDK$GETV_A.:E05TSI      SYMBOL TABLE                                               38   BMAP - B00
 41000000 000000000003 VAL$           *63       510       734
 41101000 000000000773 VIRTSEG        531       533      *765
 41000000 000000000031 WHAT           *86       515       555       635       744
 01101000 000000000437 WRESM          517      *521
 41000000 000000000033 WSQ#           *88       620       626       627       657
 41101000 000000000571 WSQTYPE        600      *624
 03301026 000000000000 WSR            *40       612
 41101000 000000001310 XDONLYSYM      283       390       426       506     *1024

     171 SYMBOLS

 14:03 07/29/97  FILE=DDK$GETV_A.:E05TSI      MACRO TABLE                                                39   BMAP - B00
 WRES           522

       1 MACRO

    SYMBOL SPACE USED  3009 WORDS
     MACRO SPACE USED    26 WORDS
   INPUT RECORDS READ  2196
 STATEMENTS PROCESSED  1085
         ELAPSED TIME  0:09.08
             CPU TIME     8.28 SEC.
        ASSEMBLY RATE  7862 STATEMENTS/CPU MIN.

      NO ERRORS

