VERSION E05

PL6.E3A0      #001=DDK$INCR@ File=DDK$INCR.:E05TSI                               TUE 07/29/97 14:03 Page:1
        1        1        /*M* DDK$INCR - Increment patch space header words */
        2        2        /*T***********************************************************/
        3        3        /*T*                                                         */
        4        4        /*T* Copyright (c) Bull HN Information Systems Inc., 1997    */
        5        5        /*T*                                                         */
        6        6        /*T***********************************************************/
        7        7        /*X* CCC,DMR,PLM=5,IND=5,CSU=3,EXM=0,ECU=3,MOC,DCI=5,CRT=5 */
        8        8        /*P* NAME: DDK$INCR@
        9        9             PURPOSE: Increments the header words in the user's procedure
       10       10                  patch space, and adjusts DELTA's internal pointers.
       11       11                                                          */
       12       12        DDK$INCR@: PROC(ADDRESS, SIZE) ALTRET;
       13       13        %INCLUDE DD_ERR_C;
       14      410                                                /**/
       15      411    1   DCL UIS$ PTR SYMREF;
       16      412    1   DCL UBIN18 UBIN(18) UNAL BASED;
       17      413    1   DCL UBIN36 UBIN BASED;
       18      414    1   DCL POINTER BIT(36) CONSTANT INIT('000000006000'O);
       19      415    1   DCL POINTER$  REDEF POINTER PTR;
       20      416    1   DCL DUU$PUTMVAL ENTRY(6) ALTRET;
       21      417    1   DCL DDK$PUTMVAL ENTRY(5) ALTRET;
       22      418    1   DCL DFK$PUTMVAL ENTRY(6) ALTRET;
       23      419    1   DCL DDE$ERROR ENTRY;
       24      420    1   DCL SIZE UBIN;
       25      421    1   DCL 1 VALUE ALIGNED,
       26      422    1         2 SIZE UBIN,
       27      423    1         2 OPS(0:15) UBIN;
       28      424    1   DCL PNTR PTR;
       29      425    1   DCL PNTR_WORD REDEF PNTR UBIN(36);
       30      426    1   DCL 1 PNTR_L6 REDEF PNTR,
       31      427    1         2 * UBIN(4) UNAL,
       32      428    1         2 UW UBIN(16) UNAL,
       33      429    1         2 LW UBIN(16) UNAL;
       34      430    1   DCL ADDRESS SBIN;
       35      431        %INCLUDE XUH_MACRO_C;
       36      515        %INCLUDE DD_SD_M;
       37     1851        %S_D;
PL6.E3A0      #001=DDK$INCR@ File=DDK$INCR.:E05TSI                               TUE 07/29/97 14:03 Page:2
       38     3169                                                /**/
       39     3170    1        IF S_D.RSPACE@ = 0
       40     3171    2        THEN DO;
       41     3172    2             S_D.ERROR = E@NOMORE@;        /* E@NOMORE@ */
       42     3173    2             GOTO ALT;
       43     3174    2           END;
       44     3175    1        VALUE.SIZE = 1;
       45     3176    1        IF (ADDRESS + (SIZE - 1)) >= S_D.NEXT@
       46     3177    2        THEN DO;
       47     3178    2             S_D.RSPACE@ = S_D.HIGH@ - (ADDRESS + (SIZE - 1));
       48     3179    2             IF S_D.RSPACE@ <= 0
       49     3180    3             THEN DO;
       50     3181    3                  IF S_D.RUM
       51     3182    4                  THEN DO;
       52     3183    4                       VALUE.OPS(0) = 0;
       53     3184    4                       CALL DUU$PUTMVAL(VALUE, 0, S_D.HEAD@ + 1, 0, 0, '0'B) ALTRET(ALT
              3184                                );
       54     3185    4                     END;
       55     3186    3                  IF S_D.RSPACE@ < 0
       56     3187    4                  THEN DO;
       57     3188    4                       S_D.RSPACE@ = 0;
       58     3189    4                       S_D.ERROR = E@NOMORE@; /* E@NOMORE@ */
       59     3190    4                       GOTO ALT;
       60     3191    4                     END;
       61     3192    3                  RETURN;
       62     3193    3                END;
       63     3194    2             S_D.NEXT@ = ADDRESS + SIZE;
       64     3195    2             IF S_D.RUM
       65     3196    3             THEN DO;
       66     3197    3                  IF S_D.ONE_TO_TWO.EXEC_DOMAIN = %HOST
       67     3198    4                  THEN DO;
       68     3199    4                       PNTR = PINCRW(POINTER$, S_D.NEXT@);
       69     3200    4                       VALUE.OPS(0) = PNTR_WORD;
       70     3201    4                       CALL DUU$PUTMVAL(VALUE, 0, S_D.HEAD@, 0, 0, '0'B) ALTRET(ALT);
       71     3202    4                     END;
       72     3203    3                  ELSE IF S_D.ONE_TO_TWO.EXEC_DOMAIN = %L6
       73     3204    4                       THEN DO;
PL6.E3A0      #001=DDK$INCR@ File=DDK$INCR.:E05TSI                               TUE 07/29/97 14:03 Page:3
       74     3205    4                            PNTR_WORD = S_D.NEXT@;
       75     3206    4                            VALUE.SIZE = 2;
       76     3207    4                            VALUE.OPS(0) = PNTR_L6.UW;
       77     3208    4                            VALUE.OPS(1) = PNTR_L6.LW;
       78     3209    4                            CALL DUU$PUTMVAL(VALUE, 0, S_D.HEAD@, 0, 0, '0'B) ALTRET(
              3209                                     ALT);
       79     3210    4                          END;
       80     3211    4                       ELSE DO;
       81     3212    4                            S_D.ERROR = E@DELBUG; /* E@DELBUG */
       82     3213    4                            CALL DDE$ERROR;
       83     3214    4                            GOTO ALT;
       84     3215    4                          END;
       85     3216    3                  VALUE.SIZE = 1;
       86     3217    3                  VALUE.OPS(0) = S_D.RSPACE@;
       87     3218    3                  IF S_D.ONE_TO_TWO.EXEC_DOMAIN = %HOST
       88     3219    3                  THEN CALL DUU$PUTMVAL(VALUE, 0, S_D.HEAD@ + 1, 0, 0, '0'B) ALTRET(ALT
              3219                           );
       89     3220    3                  ELSE CALL DUU$PUTMVAL(VALUE, 0, S_D.HEAD@ + 2, 0, 0, '0'B) ALTRET(ALT
              3220                           );
       90     3221    3                END;
       91     3222    3             ELSE DO;
       92     3223    3                  IF S_D.ONE_TO_TWO.EXEC_DOMAIN = %HOST
       93     3224    4                  THEN DO;
       94     3225    4                       CALL DDK$PUTMVAL (PINCRW(POINTER$,S_D.NEXT@), S_D.HEAD@, 0, 0,
              3225                                '0'B)
       95     3226    4                         ALTRET(ALT);
       96     3227    4                       CALL DDK$PUTMVAL (S_D.RSPACE@, S_D.HEAD@ + 1, 0, 0, '0'B)
       97     3228    4                         ALTRET(ALT);
       98     3229    4                     END;
       99     3230    3                  ELSE IF S_D.ONE_TO_TWO.EXEC_DOMAIN = %L6
      100     3231    4                       THEN DO;
      101     3232    4                            PNTR_WORD = S_D.NEXT@;
      102     3233    4                            VALUE.SIZE = 2;
      103     3234    4                            VALUE.OPS(0) = PNTR_L6.UW;
      104     3235    4                            VALUE.OPS(1) = PNTR_L6.LW;
      105     3236    4                            CALL DFK$PUTMVAL (VALUE, , S_D.HEAD@, 3, 0, '0'B)
      106     3237    4                              ALTRET(ALT);
PL6.E3A0      #001=DDK$INCR@ File=DDK$INCR.:E05TSI                               TUE 07/29/97 14:03 Page:4
      107     3238    4                            VALUE.OPS(0) = S_D.RSPACE@;
      108     3239    4                            VALUE.SIZE = 1;
      109     3240    4                            CALL DFK$PUTMVAL (VALUE, , S_D.HEAD@ + 2, 3, 0, '0'B)
      110     3241    4                              ALTRET(ALT);
      111     3242    4                          END;
      112     3243    4                       ELSE DO;
      113     3244    4                            S_D.ERROR = E@DELBUG; /* E@DELBUG */
      114     3245    4                            CALL DDE$ERROR;
      115     3246    4                            GOTO ALT;
      116     3247    4                          END;
      117     3248    3                END;
      118     3249    2           END;
      119     3250    1        RETURN;
      120     3251             %EJECT;
PL6.E3A0      #001=DDK$INCR@ File=DDK$INCR.:E05TSI                               TUE 07/29/97 14:03 Page:5
      121     3252        /*P* NAME: DDK$INCR#
      122     3253             PURPOSE: Increments the header words in the user's data
      123     3254                  patch space, and adjusts DELTA's internal pointers.
      124     3255                                                          */
      125     3256    1   DDK$INCR#: ENTRY(ADDRESS, SIZE) ALTRET;
      126     3257                                                /**/
      127     3258                                                /**/
      128     3259    1        VALUE.SIZE = 1;
      129     3260    1        IF S_D.RSPACE# = 0
      130     3261    2        THEN DO;
      131     3262    2             S_D.ERROR = E@NOMORE#;        /* E@NOMORE# */
      132     3263    2             GOTO ALT;
      133     3264    2           END;
      134     3265    1        IF (ADDRESS + (SIZE - 1)) >= S_D.NEXT#
      135     3266    2        THEN DO;
      136     3267    2             S_D.RSPACE# = S_D.HIGH# - (ADDRESS + (SIZE - 1));
      137     3268    2             IF S_D.RSPACE# <= 0
      138     3269    3             THEN DO;
      139     3270    3                  IF S_D.RUM
      140     3271    4                  THEN DO;
      141     3272    4                       VALUE.OPS(0) = 0;
      142     3273    4                       CALL DUU$PUTMVAL(VALUE, 0, S_D.HEAD# + 1, 0, 0, '0'B) ALTRET(ALT
              3273                                );
      143     3274    4                     END;
      144     3275    3                  IF S_D.RSPACE# < 0
      145     3276    4                  THEN DO;
      146     3277    4                       S_D.RSPACE# = 0;
      147     3278    4                       S_D.ERROR = E@NOMORE#; /* E@NOMORE# */
      148     3279    4                       GOTO ALT;
      149     3280    4                     END;
      150     3281    3                  RETURN;
      151     3282    3                END;
      152     3283    2             S_D.NEXT# = ADDRESS + SIZE;
      153     3284    2             IF S_D.RUM
      154     3285    3             THEN DO;
      155     3286    3                  IF S_D.ONE_TO_TWO.EXEC_DOMAIN = %HOST
      156     3287    4                  THEN DO;
PL6.E3A0      #001=DDK$INCR@ File=DDK$INCR.:E05TSI                               TUE 07/29/97 14:03 Page:6
      157     3288    4                       PNTR = PINCRW(POINTER$, S_D.NEXT#);
      158     3289    4                       VALUE.OPS(0) = PNTR_WORD;
      159     3290    4                       CALL DUU$PUTMVAL(VALUE, 0, S_D.HEAD#, 0, 0, '0'B)
      160     3291    4                         ALTRET(ALT);
      161     3292    4                     END;
      162     3293    3                  ELSE IF S_D.ONE_TO_TWO.EXEC_DOMAIN = %L6
      163     3294    4                       THEN DO;
      164     3295    4                            PNTR_WORD = S_D.NEXT#;
      165     3296    4                            VALUE.SIZE = 2;
      166     3297    4                            VALUE.OPS(0) = PNTR_L6.UW;
      167     3298    4                            VALUE.OPS(1) = PNTR_L6.LW;
      168     3299    4                            CALL DUU$PUTMVAL(VALUE, 0, S_D.HEAD#, 0, 0, '0'B)
      169     3300    4                              ALTRET(ALT);
      170     3301    4                          END;
      171     3302    4                       ELSE DO;
      172     3303    4                            S_D.ERROR = E@DELBUG; /* E@DELBUG */
      173     3304    4                            CALL DDE$ERROR;
      174     3305    4                            GOTO ALT;
      175     3306    4                          END;
      176     3307    3                  VALUE.SIZE = 1;
      177     3308    3                  VALUE.OPS(0) = S_D.RSPACE#;
      178     3309    3                  IF S_D.ONE_TO_TWO.EXEC_DOMAIN = %HOST
      179     3310    3                  THEN CALL DUU$PUTMVAL(VALUE, 0, S_D.HEAD# + 1, 0, 0, '0'B) ALTRET(ALT
              3310                           );
      180     3311    3                  ELSE CALL DUU$PUTMVAL(VALUE, 0, S_D.HEAD# + 2, 0, 0, '0'B) ALTRET(ALT
              3311                           );
      181     3312    3                END;
      182     3313    3             ELSE DO;
      183     3314    3                  IF S_D.ONE_TO_TWO.EXEC_DOMAIN = %HOST
      184     3315    4                  THEN DO;
      185     3316    4                       CALL DDK$PUTMVAL (PINCRW(POINTER$,S_D.NEXT#), S_D.HEAD#, 0, 0,
              3316                                '0'B)
      186     3317    4                         ALTRET(ALT);
      187     3318    4                       CALL DDK$PUTMVAL (S_D.RSPACE#, S_D.HEAD# + 1, 0, 0, '0'B)
      188     3319    4                         ALTRET(ALT);
      189     3320    4                     END;
      190     3321    3                  ELSE IF S_D.ONE_TO_TWO.EXEC_DOMAIN = %L6
PL6.E3A0      #001=DDK$INCR@ File=DDK$INCR.:E05TSI                               TUE 07/29/97 14:03 Page:7
      191     3322    4                       THEN DO;
      192     3323    4                            PNTR_WORD = S_D.NEXT#;
      193     3324    4                            VALUE.SIZE = 2;
      194     3325    4                            VALUE.OPS(0) = PNTR_L6.UW;
      195     3326    4                            VALUE.OPS(1) = PNTR_L6.LW;
      196     3327    4                            CALL DFK$PUTMVAL (VALUE, , S_D.HEAD#, 3, 0, '0'B)
      197     3328    4                              ALTRET(ALT);
      198     3329    4                            VALUE.OPS(0) = S_D.RSPACE#;
      199     3330    4                            VALUE.SIZE = 1;
      200     3331    4                            CALL DFK$PUTMVAL (VALUE, , S_D.HEAD# + 2, 3, 0, '0'B)
      201     3332    4                              ALTRET(ALT);
      202     3333    4                          END;
      203     3334    4                       ELSE DO;
      204     3335    4                            S_D.ERROR = E@DELBUG; /* E@DELBUG */
      205     3336    4                            CALL DDE$ERROR;
      206     3337    4                            GOTO ALT;
      207     3338    4                          END;
      208     3339    3                END;
      209     3340    2           END;
      210     3341    1        RETURN;
      211     3342    1   ALT: ;
      212     3343    1        ALTRETURN;
      213     3344    1   END DDK$INCR@;

PL6.E3A0      #001=DDK$INCR@ File=DDK$INCR.:E05TSI                               TUE 07/29/97 14:03 Page:8
--  Include file information  --

   DD_SD_M.:E05TOU  is referenced.
   XUH_MACRO_C.:E05TOU  is referenced.
   DD_ERR_C.:E05TOU  is referenced.
   B$JIT_C.:E05TOU  was found in the system file and is never referenced.
   CP_6_C.:E05TOU  was found in the system file and is never referenced.
      No diagnostics issued in procedure DDK$INCR@.

   Procedure DDK$INCR@ requires 509 words for executable code.
   Procedure DDK$INCR@ requires 32 words of local(AUTO) storage.

    No errors detected in file DDK$INCR.:E05TSI    .

PL6.E3A0      #001=DDK$INCR@ File=DDK$INCR.:E05TSI                               TUE 07/29/97 14:03 Page:9

 Object Unit name= DDK$INCR@                                  File name= DDK$INCR.:E05TOU
 UTS= JUL 29 '97 14:03:50.80 TUE                              Compiler= PL-6/E31         Sev=      00
 SharedLib= :SHARED_SYSTEM                                    Alt SharedLib=


    ****  Control sections  ****

 Sect   Type Bound  Init  Size OctSiz  Section name(segment info)
    0  RoData even  UTS      1      1  DDK$INCR@
    1   Proc  even  none   509    775  DDK$INCR@
    2  RoData even  none     3      3  DDK$INCR@

    ****  Entry defs  ****

                              Check   Calling
                             calling  sequence
  Sect OctLoc Primary Altret sequence   type   Parms  Name
     1      0   yes    yes     yes      Std        2  DDK$INCR@
     1    376          yes     yes      Std        2  DDK$INCR#

  ****  Entry refs  ****

         Check        Calling
        calling       sequence
Altret sequence SRef   type   Args  Name
 yes     yes           Std       6 DUU$PUTMVAL
         yes           Std       0 DDE$ERROR
 yes     yes           Std       5 DDK$PUTMVAL
 yes     yes           Std       6 DFK$PUTMVAL
                       nStd      0 X66_AUTO_2
                       Std       0 B_CONSPOOL_D
                       nStd      0 X66_ARET
                       nStd      0 X66_AALT
PL6.E3A0      #001=DDK$INCR@ File=DDK$INCR.:E05TSI                               TUE 07/29/97 14:03 Page:10

  ****  Data refs  ****

  Flags:  r = read only, s = secondary
Flgs Name                             Flgs Name                             Flgs Name
r    S_D$                                  B_VECTNIL

  ****  Segment refs  ****

  Flags:  r = read only, s = secondary
Flgs Name                             Flgs Name                             Flgs Name
     ISSID
PL6.E3A0      #001=DDK$INCR@ File=DDK$INCR.:E05TSI                               TUE 07/29/97 14:03 Page:11


        1        1        /*M* DDK$INCR - Increment patch space header words */
        2        2        /*T***********************************************************/
        3        3        /*T*                                                         */
        4        4        /*T* Copyright (c) Bull HN Information Systems Inc., 1997    */
        5        5        /*T*                                                         */
        6        6        /*T***********************************************************/
        7        7        /*X* CCC,DMR,PLM=5,IND=5,CSU=3,EXM=0,ECU=3,MOC,DCI=5,CRT=5 */
        8        8        /*P* NAME: DDK$INCR@
        9        9             PURPOSE: Increments the header words in the user's procedure
       10       10                  patch space, and adjusts DELTA's internal pointers.
       11       11                                                          */
       12       12        DDK$INCR@: PROC(ADDRESS, SIZE) ALTRET;

     12  1 000000   000000 700200 xent  DDK$INCR@    TSX0  ! X66_AUTO_2
         1 000001   000040 000002                    ZERO    32,2

       13       13        %INCLUDE DD_ERR_C;
       14      410                                                /**/
       15      411    1   DCL UIS$ PTR SYMREF;
       16      412    1   DCL UBIN18 UBIN(18) UNAL BASED;
       17      413    1   DCL UBIN36 UBIN BASED;
       18      414    1   DCL POINTER BIT(36) CONSTANT INIT('000000006000'O);
       19      415    1   DCL POINTER$  REDEF POINTER PTR;
       20      416    1   DCL DUU$PUTMVAL ENTRY(6) ALTRET;
       21      417    1   DCL DDK$PUTMVAL ENTRY(5) ALTRET;
       22      418    1   DCL DFK$PUTMVAL ENTRY(6) ALTRET;
       23      419    1   DCL DDE$ERROR ENTRY;
       24      420    1   DCL SIZE UBIN;
       25      421    1   DCL 1 VALUE ALIGNED,
       26      422    1         2 SIZE UBIN,
       27      423    1         2 OPS(0:15) UBIN;
       28      424    1   DCL PNTR PTR;
       29      425    1   DCL PNTR_WORD REDEF PNTR UBIN(36);
       30      426    1   DCL 1 PNTR_L6 REDEF PNTR,
       31      427    1         2 * UBIN(4) UNAL,
       32      428    1         2 UW UBIN(16) UNAL,
PL6.E3A0      #001=DDK$INCR@ File=DDK$INCR.:E05TSI                               TUE 07/29/97 14:03 Page:12
       33      429    1         2 LW UBIN(16) UNAL;
       34      430    1   DCL ADDRESS SBIN;
       35      431        %INCLUDE XUH_MACRO_C;
       36      515        %INCLUDE DD_SD_M;
       37     1851        %S_D;
       38     3169                                                /**/
       39     3170    1        IF S_D.RSPACE@ = 0

   3170  1 000002   000000 470400 xsym               LDP0    S_D$
         1 000003   005056 235100                    LDA     2606,,PR0
         1 000004   000010 601000 1                  TNZ     s:3175

       40     3171    2        THEN DO;

       41     3172    2             S_D.ERROR = E@NOMORE@;        /* E@NOMORE@ */

   3172  1 000005   000231 236007                    LDQ     153,DL
         1 000006   000013 756100                    STQ     11,,PR0

       42     3173    2             GOTO ALT;

   3173  1 000007   000774 710000 1                  TRA     ALT

       43     3174    2           END;
       44     3175    1        VALUE.SIZE = 1;

   3175  1 000010   000001 236007                    LDQ     1,DL
         1 000011   200005 756100                    STQ     VALUE,,AUTO

       45     3176    1        IF (ADDRESS + (SIZE - 1)) >= S_D.NEXT@

   3176  1 000012   200004 471500                    LDP1    @SIZE,,AUTO
         1 000013   200003 473500                    LDP3    @ADDRESS,,AUTO
         1 000014   100000 236100                    LDQ     0,,PR1
         1 000015   300000 036100                    ADLQ    0,,PR3
         1 000016   000375 604000 1                  TMI     s:3250
         1 000017   005055 116100                    CMPQ    2605,,PR0
PL6.E3A0      #001=DDK$INCR@ File=DDK$INCR.:E05TSI                               TUE 07/29/97 14:03 Page:13
         1 000020   000375 602000 1                  TNC     s:3250
         1 000021   000375 600000 1                  TZE     s:3250

       46     3177    2        THEN DO;

       47     3178    2             S_D.RSPACE@ = S_D.HIGH@ - (ADDRESS + (SIZE - 1));

   3178  1 000022   100000 236100                    LDQ     0,,PR1
         1 000023   300000 036100                    ADLQ    0,,PR3
         1 000024   200030 756100                    STQ     PNTR+2,,AUTO
         1 000025   005133 236100                    LDQ     2651,,PR0
         1 000026   200030 136100                    SBLQ    PNTR+2,,AUTO
         1 000027   000001 036007                    ADLQ    1,DL
         1 000030   005056 756100                    STQ     2606,,PR0

       48     3179    2             IF S_D.RSPACE@ <= 0

   3179  1 000031   000065 605400 1                  TPNZ    s:3194

       49     3180    3             THEN DO;

       50     3181    3                  IF S_D.RUM

   3181  1 000032   004755 234100                    SZN     2541,,PR0
         1 000033   000055 605000 1                  TPL     s:3186

       51     3182    4                  THEN DO;

       52     3183    4                       VALUE.OPS(0) = 0;

   3183  1 000034   200006 450100                    STZ     VALUE+1,,AUTO

       53     3184    4                      CALL DUU$PUTMVAL(VALUE, 0, S_D.HEAD@ + 1, 0, 0, '0'B) ALTRET(ALT
              3184                                );

   3184  1 000035   005057 235100                    LDA     2607,,PR0
         1 000036   000001 035007                    ADLA    1,DL
PL6.E3A0      #001=DDK$INCR@ File=DDK$INCR.:E05TSI                               TUE 07/29/97 14:03 Page:14
         1 000037   200030 755100                    STA     PNTR+2,,AUTO
         1 000040   000000 237000 2                  LDAQ    0
         1 000041   200036 757100                    STAQ    PNTR+8,,AUTO
         1 000042   000000 236000 2                  LDQ     0
         1 000043   200035 756100                    STQ     PNTR+7,,AUTO
         1 000044   200030 634500                    EPPR4   PNTR+2,,AUTO
         1 000045   200034 454500                    STP4    PNTR+6,,AUTO
         1 000046   200033 756100                    STQ     PNTR+5,,AUTO
         1 000047   200005 635500                    EPPR5   VALUE,,AUTO
         1 000050   200032 455500                    STP5    PNTR+4,,AUTO
         1 000051   200032 630500                    EPPR0   PNTR+4,,AUTO
         1 000052   000024 631400 xsym               EPPR1   B_VECTNIL+20
         1 000053   000000 701000 xent               TSX1    DUU$PUTMVAL
         1 000054   000774 702000 1                  TSX2    ALT

       54     3185    4                     END;

       55     3186    3                  IF S_D.RSPACE@ < 0

   3186  1 000055   000000 470400 xsym               LDP0    S_D$
         1 000056   005056 235100                    LDA     2606,,PR0
         1 000057   000064 605000 1                  TPL     s:3192

       56     3187    4                  THEN DO;

       57     3188    4                       S_D.RSPACE@ = 0;

   3188  1 000060   005056 450100                    STZ     2606,,PR0

       58     3189    4                       S_D.ERROR = E@NOMORE@; /* E@NOMORE@ */

   3189  1 000061   000231 235007                    LDA     153,DL
         1 000062   000013 755100                    STA     11,,PR0

       59     3190    4                       GOTO ALT;

   3190  1 000063   000774 710000 1                  TRA     ALT
PL6.E3A0      #001=DDK$INCR@ File=DDK$INCR.:E05TSI                               TUE 07/29/97 14:03 Page:15

       60     3191    4                     END;
       61     3192    3                  RETURN;

   3192  1 000064   000000 702200 xent               TSX2  ! X66_ARET

       62     3193    3                END;
       63     3194    2             S_D.NEXT@ = ADDRESS + SIZE;

   3194  1 000065   300000 236100                    LDQ     0,,PR3
         1 000066   100000 036100                    ADLQ    0,,PR1
         1 000067   005055 756100                    STQ     2605,,PR0

       64     3195    2             IF S_D.RUM

   3195  1 000070   004755 234100                    SZN     2541,,PR0
         1 000071   000237 605000 1                  TPL     s:3223

       65     3196    3             THEN DO;

       66     3197    3                  IF S_D.ONE_TO_TWO.EXEC_DOMAIN = %HOST

   3197  1 000072   006714 235100                    LDA     3532,,PR0
         1 000073   000001 115007                    CMPA    1,DL
         1 000074   000123 601000 1                  TNZ     s:3203

       67     3198    4                  THEN DO;

       68     3199    4                       PNTR = PINCRW(POINTER$, S_D.NEXT@);

   3199  1 000075   005055 720100                    LXL0    2605,,PR0
         1 000076   000000 636010                    EAQ     0,X0
         1 000077   000000 036000 0                  ADLQ    POINTER
         1 000100   200026 756100                    STQ     PNTR,,AUTO

       69     3200    4                       VALUE.OPS(0) = PNTR_WORD;

PL6.E3A0      #001=DDK$INCR@ File=DDK$INCR.:E05TSI                               TUE 07/29/97 14:03 Page:16
   3200  1 000101   200026 235100                    LDA     PNTR,,AUTO
         1 000102   200006 755100                    STA     VALUE+1,,AUTO

       70     3201    4                       CALL DUU$PUTMVAL(VALUE, 0, S_D.HEAD@, 0, 0, '0'B) ALTRET(ALT);

   3201  1 000103   000000 237000 2                  LDAQ    0
         1 000104   200034 757100                    STAQ    PNTR+6,,AUTO
         1 000105   000000 236000 2                  LDQ     0
         1 000106   200033 756100                    STQ     PNTR+5,,AUTO
         1 000107   000000 236000 xsym               LDQ     S_D$
         1 000110   005057 036003                    ADLQ    2607,DU
         1 000111   200032 756100                    STQ     PNTR+4,,AUTO
         1 000112   000000 236000 2                  LDQ     0
         1 000113   200031 756100                    STQ     PNTR+3,,AUTO
         1 000114   200005 634500                    EPPR4   VALUE,,AUTO
         1 000115   200030 454500                    STP4    PNTR+2,,AUTO
         1 000116   200030 630500                    EPPR0   PNTR+2,,AUTO
         1 000117   000024 631400 xsym               EPPR1   B_VECTNIL+20
         1 000120   000000 701000 xent               TSX1    DUU$PUTMVAL
         1 000121   000774 702000 1                  TSX2    ALT

       71     3202    4                     END;

   3202  1 000122   000165 710000 1                  TRA     s:3216

       72     3203    3                  ELSE IF S_D.ONE_TO_TWO.EXEC_DOMAIN = %L6

   3203  1 000123   000002 115007                    CMPA    2,DL
         1 000124   000157 601000 1                  TNZ     s:3212

       73     3204    4                       THEN DO;

       74     3205    4                            PNTR_WORD = S_D.NEXT@;

   3205  1 000125   200026 756100                    STQ     PNTR,,AUTO

       75     3206    4                            VALUE.SIZE = 2;
PL6.E3A0      #001=DDK$INCR@ File=DDK$INCR.:E05TSI                               TUE 07/29/97 14:03 Page:17

   3206  1 000126   000002 235007                    LDA     2,DL
         1 000127   200005 755100                    STA     VALUE,,AUTO

       76     3207    4                            VALUE.OPS(0) = PNTR_L6.UW;

   3207  1 000130   200026 236100                    LDQ     PNTR,,AUTO
         1 000131   000020 772000                    QRL     16
         1 000132   177777 376007                    ANQ     65535,DL
         1 000133   200006 756100                    STQ     VALUE+1,,AUTO

       77     3208    4                            VALUE.OPS(1) = PNTR_L6.LW;

   3208  1 000134   200026 236100                    LDQ     PNTR,,AUTO
         1 000135   177777 376007                    ANQ     65535,DL
         1 000136   200007 756100                    STQ     VALUE+2,,AUTO

       78     3209    4                            CALL DUU$PUTMVAL(VALUE, 0, S_D.HEAD@, 0, 0, '0'B) ALTRET(
              3209                                     ALT);

   3209  1 000137   000000 237000 2                  LDAQ    0
         1 000140   200034 757100                    STAQ    PNTR+6,,AUTO
         1 000141   000000 236000 2                  LDQ     0
         1 000142   200033 756100                    STQ     PNTR+5,,AUTO
         1 000143   000000 236000 xsym               LDQ     S_D$
         1 000144   005057 036003                    ADLQ    2607,DU
         1 000145   200032 756100                    STQ     PNTR+4,,AUTO
         1 000146   000000 236000 2                  LDQ     0
         1 000147   200031 756100                    STQ     PNTR+3,,AUTO
         1 000150   200005 634500                    EPPR4   VALUE,,AUTO
         1 000151   200030 454500                    STP4    PNTR+2,,AUTO
         1 000152   200030 630500                    EPPR0   PNTR+2,,AUTO
         1 000153   000024 631400 xsym               EPPR1   B_VECTNIL+20
         1 000154   000000 701000 xent               TSX1    DUU$PUTMVAL
         1 000155   000774 702000 1                  TSX2    ALT

       79     3210    4                          END;
PL6.E3A0      #001=DDK$INCR@ File=DDK$INCR.:E05TSI                               TUE 07/29/97 14:03 Page:18

   3210  1 000156   000165 710000 1                  TRA     s:3216

       80     3211    4                       ELSE DO;

       81     3212    4                            S_D.ERROR = E@DELBUG; /* E@DELBUG */

   3212  1 000157   000766 235007                    LDA     502,DL
         1 000160   000013 755100                    STA     11,,PR0

       82     3213    4                            CALL DDE$ERROR;

   3213  1 000161   000002 631400 xsym               EPPR1   B_VECTNIL+2
         1 000162   000000 701000 xent               TSX1    DDE$ERROR
         1 000163   000000 011000                    NOP     0

       83     3214    4                            GOTO ALT;

   3214  1 000164   000774 710000 1                  TRA     ALT

       84     3215    4                          END;
       85     3216    3                  VALUE.SIZE = 1;

   3216  1 000165   000001 235007                    LDA     1,DL
         1 000166   200005 755100                    STA     VALUE,,AUTO

       86     3217    3                  VALUE.OPS(0) = S_D.RSPACE@;

   3217  1 000167   000000 470400 xsym               LDP0    S_D$
         1 000170   005056 235100                    LDA     2606,,PR0
         1 000171   200006 755100                    STA     VALUE+1,,AUTO

       87     3218    3                  IF S_D.ONE_TO_TWO.EXEC_DOMAIN = %HOST

   3218  1 000172   006714 235100                    LDA     3532,,PR0
         1 000173   000001 115007                    CMPA    1,DL
         1 000174   000216 601000 1                  TNZ     s:3220
PL6.E3A0      #001=DDK$INCR@ File=DDK$INCR.:E05TSI                               TUE 07/29/97 14:03 Page:19

       88     3219    3                 THEN CALL DUU$PUTMVAL(VALUE, 0, S_D.HEAD@ + 1, 0, 0, '0'B) ALTRET(ALT
              3219                           );

   3219  1 000175   005057 235100                    LDA     2607,,PR0
         1 000176   000001 035007                    ADLA    1,DL
         1 000177   200030 755100                    STA     PNTR+2,,AUTO
         1 000200   000000 237000 2                  LDAQ    0
         1 000201   200036 757100                    STAQ    PNTR+8,,AUTO
         1 000202   000000 236000 2                  LDQ     0
         1 000203   200035 756100                    STQ     PNTR+7,,AUTO
         1 000204   200030 631500                    EPPR1   PNTR+2,,AUTO
         1 000205   200034 451500                    STP1    PNTR+6,,AUTO
         1 000206   200033 756100                    STQ     PNTR+5,,AUTO
         1 000207   200005 633500                    EPPR3   VALUE,,AUTO
         1 000210   200032 453500                    STP3    PNTR+4,,AUTO
         1 000211   200032 630500                    EPPR0   PNTR+4,,AUTO
         1 000212   000024 631400 xsym               EPPR1   B_VECTNIL+20
         1 000213   000000 701000 xent               TSX1    DUU$PUTMVAL
         1 000214   000774 702000 1                  TSX2    ALT
         1 000215   000375 710000 1                  TRA     s:3250

       89     3220    3                 ELSE CALL DUU$PUTMVAL(VALUE, 0, S_D.HEAD@ + 2, 0, 0, '0'B) ALTRET(ALT
              3220                           );

   3220  1 000216   005057 235100                    LDA     2607,,PR0
         1 000217   000002 035007                    ADLA    2,DL
         1 000220   200030 755100                    STA     PNTR+2,,AUTO
         1 000221   000000 237000 2                  LDAQ    0
         1 000222   200036 757100                    STAQ    PNTR+8,,AUTO
         1 000223   000000 236000 2                  LDQ     0
         1 000224   200035 756100                    STQ     PNTR+7,,AUTO
         1 000225   200030 631500                    EPPR1   PNTR+2,,AUTO
         1 000226   200034 451500                    STP1    PNTR+6,,AUTO
         1 000227   200033 756100                    STQ     PNTR+5,,AUTO
         1 000230   200005 633500                    EPPR3   VALUE,,AUTO
         1 000231   200032 453500                    STP3    PNTR+4,,AUTO
PL6.E3A0      #001=DDK$INCR@ File=DDK$INCR.:E05TSI                               TUE 07/29/97 14:03 Page:20
         1 000232   200032 630500                    EPPR0   PNTR+4,,AUTO
         1 000233   000024 631400 xsym               EPPR1   B_VECTNIL+20
         1 000234   000000 701000 xent               TSX1    DUU$PUTMVAL
         1 000235   000774 702000 1                  TSX2    ALT

       90     3221    3                END;

   3221  1 000236   000375 710000 1                  TRA     s:3250

       91     3222    3             ELSE DO;

       92     3223    3                  IF S_D.ONE_TO_TWO.EXEC_DOMAIN = %HOST

   3223  1 000237   006714 235100                    LDA     3532,,PR0
         1 000240   000001 115007                    CMPA    1,DL
         1 000241   000305 601000 1                  TNZ     s:3230

       93     3224    4                  THEN DO;

       94     3225    4                       CALL DDK$PUTMVAL (PINCRW(POINTER$,S_D.NEXT@), S_D.HEAD@, 0, 0,
              3225                                '0'B)

   3225  1 000242   005055 720100                    LXL0    2605,,PR0
         1 000243   000000 636010                    EAQ     0,X0
         1 000244   000000 036000 0                  ADLQ    POINTER
         1 000245   200030 756100                    STQ     PNTR+2,,AUTO
         1 000246   000000 237000 2                  LDAQ    0
         1 000247   200034 757100                    STAQ    PNTR+6,,AUTO
         1 000250   000000 236000 2                  LDQ     0
         1 000251   200033 756100                    STQ     PNTR+5,,AUTO
         1 000252   000000 236000 xsym               LDQ     S_D$
         1 000253   005057 036003                    ADLQ    2607,DU
         1 000254   200032 756100                    STQ     PNTR+4,,AUTO
         1 000255   200030 634500                    EPPR4   PNTR+2,,AUTO
         1 000256   200031 454500                    STP4    PNTR+3,,AUTO
         1 000257   200031 630500                    EPPR0   PNTR+3,,AUTO
         1 000260   000023 631400 xsym               EPPR1   B_VECTNIL+19
PL6.E3A0      #001=DDK$INCR@ File=DDK$INCR.:E05TSI                               TUE 07/29/97 14:03 Page:21
         1 000261   000000 701000 xent               TSX1    DDK$PUTMVAL
         1 000262   000774 702000 1                  TSX2    ALT

       95     3226    4                         ALTRET(ALT);
       96     3227    4                       CALL DDK$PUTMVAL (S_D.RSPACE@, S_D.HEAD@ + 1, 0, 0, '0'B)

   3227  1 000263   000000 470400 xsym               LDP0    S_D$
         1 000264   005057 235100                    LDA     2607,,PR0
         1 000265   000001 035007                    ADLA    1,DL
         1 000266   200030 755100                    STA     PNTR+2,,AUTO
         1 000267   000000 237000 2                  LDAQ    0
         1 000270   200034 757100                    STAQ    PNTR+6,,AUTO
         1 000271   000000 236000 2                  LDQ     0
         1 000272   200033 756100                    STQ     PNTR+5,,AUTO
         1 000273   200030 631500                    EPPR1   PNTR+2,,AUTO
         1 000274   200032 451500                    STP1    PNTR+4,,AUTO
         1 000275   000000 236000 xsym               LDQ     S_D$
         1 000276   005056 036003                    ADLQ    2606,DU
         1 000277   200031 756100                    STQ     PNTR+3,,AUTO
         1 000300   200031 630500                    EPPR0   PNTR+3,,AUTO
         1 000301   000023 631400 xsym               EPPR1   B_VECTNIL+19
         1 000302   000000 701000 xent               TSX1    DDK$PUTMVAL
         1 000303   000774 702000 1                  TSX2    ALT

       97     3228    4                         ALTRET(ALT);
       98     3229    4                     END;

   3229  1 000304   000375 710000 1                  TRA     s:3250

       99     3230    3                  ELSE IF S_D.ONE_TO_TWO.EXEC_DOMAIN = %L6

   3230  1 000305   000002 115007                    CMPA    2,DL
         1 000306   000367 601000 1                  TNZ     s:3244

      100     3231    4                       THEN DO;

      101     3232    4                            PNTR_WORD = S_D.NEXT@;
PL6.E3A0      #001=DDK$INCR@ File=DDK$INCR.:E05TSI                               TUE 07/29/97 14:03 Page:22

   3232  1 000307   200026 756100                    STQ     PNTR,,AUTO

      102     3233    4                            VALUE.SIZE = 2;

   3233  1 000310   000002 235007                    LDA     2,DL
         1 000311   200005 755100                    STA     VALUE,,AUTO

      103     3234    4                            VALUE.OPS(0) = PNTR_L6.UW;

   3234  1 000312   200026 236100                    LDQ     PNTR,,AUTO
         1 000313   000020 772000                    QRL     16
         1 000314   177777 376007                    ANQ     65535,DL
         1 000315   200006 756100                    STQ     VALUE+1,,AUTO

      104     3235    4                            VALUE.OPS(1) = PNTR_L6.LW;

   3235  1 000316   200026 236100                    LDQ     PNTR,,AUTO
         1 000317   177777 376007                    ANQ     65535,DL
         1 000320   200007 756100                    STQ     VALUE+2,,AUTO

      105     3236    4                            CALL DFK$PUTMVAL (VALUE, , S_D.HEAD@, 3, 0, '0'B)

   3236  1 000321   000000 237000 2                  LDAQ    0
         1 000322   200034 757100                    STAQ    PNTR+6,,AUTO
         1 000323   000002 236000 2                  LDQ     2
         1 000324   200033 756100                    STQ     PNTR+5,,AUTO
         1 000325   000000 236000 xsym               LDQ     S_D$
         1 000326   005057 036003                    ADLQ    2607,DU
         1 000327   200032 756100                    STQ     PNTR+4,,AUTO
         1 000330   000001 236000 xsym               LDQ     B_VECTNIL+1
         1 000331   200031 756100                    STQ     PNTR+3,,AUTO
         1 000332   200005 634500                    EPPR4   VALUE,,AUTO
         1 000333   200030 454500                    STP4    PNTR+2,,AUTO
         1 000334   200030 630500                    EPPR0   PNTR+2,,AUTO
         1 000335   000024 631400 xsym               EPPR1   B_VECTNIL+20
         1 000336   000000 701000 xent               TSX1    DFK$PUTMVAL
PL6.E3A0      #001=DDK$INCR@ File=DDK$INCR.:E05TSI                               TUE 07/29/97 14:03 Page:23
         1 000337   000774 702000 1                  TSX2    ALT

      106     3237    4                              ALTRET(ALT);
      107     3238    4                            VALUE.OPS(0) = S_D.RSPACE@;

   3238  1 000340   000000 470400 xsym               LDP0    S_D$
         1 000341   005056 235100                    LDA     2606,,PR0
         1 000342   200006 755100                    STA     VALUE+1,,AUTO

      108     3239    4                            VALUE.SIZE = 1;

   3239  1 000343   000001 236007                    LDQ     1,DL
         1 000344   200005 756100                    STQ     VALUE,,AUTO

      109     3240    4                            CALL DFK$PUTMVAL (VALUE, , S_D.HEAD@ + 2, 3, 0, '0'B)

   3240  1 000345   005057 235100                    LDA     2607,,PR0
         1 000346   000002 035007                    ADLA    2,DL
         1 000347   200030 755100                    STA     PNTR+2,,AUTO
         1 000350   000000 237000 2                  LDAQ    0
         1 000351   200036 757100                    STAQ    PNTR+8,,AUTO
         1 000352   000002 236000 2                  LDQ     2
         1 000353   200035 756100                    STQ     PNTR+7,,AUTO
         1 000354   200030 631500                    EPPR1   PNTR+2,,AUTO
         1 000355   200034 451500                    STP1    PNTR+6,,AUTO
         1 000356   000001 236000 xsym               LDQ     B_VECTNIL+1
         1 000357   200033 756100                    STQ     PNTR+5,,AUTO
         1 000360   200005 633500                    EPPR3   VALUE,,AUTO
         1 000361   200032 453500                    STP3    PNTR+4,,AUTO
         1 000362   200032 630500                    EPPR0   PNTR+4,,AUTO
         1 000363   000024 631400 xsym               EPPR1   B_VECTNIL+20
         1 000364   000000 701000 xent               TSX1    DFK$PUTMVAL
         1 000365   000774 702000 1                  TSX2    ALT

      110     3241    4                              ALTRET(ALT);
      111     3242    4                          END;

PL6.E3A0      #001=DDK$INCR@ File=DDK$INCR.:E05TSI                               TUE 07/29/97 14:03 Page:24
   3242  1 000366   000375 710000 1                  TRA     s:3250

      112     3243    4                       ELSE DO;

      113     3244    4                            S_D.ERROR = E@DELBUG; /* E@DELBUG */

   3244  1 000367   000766 235007                    LDA     502,DL
         1 000370   000013 755100                    STA     11,,PR0

      114     3245    4                            CALL DDE$ERROR;

   3245  1 000371   000002 631400 xsym               EPPR1   B_VECTNIL+2
         1 000372   000000 701000 xent               TSX1    DDE$ERROR
         1 000373   000000 011000                    NOP     0

      115     3246    4                            GOTO ALT;

   3246  1 000374   000774 710000 1                  TRA     ALT

      116     3247    4                          END;
      117     3248    3                END;
      118     3249    2           END;
      119     3250    1        RETURN;

   3250  1 000375   000000 702200 xent               TSX2  ! X66_ARET

      120     3251             %EJECT;
PL6.E3A0      #001=DDK$INCR@ File=DDK$INCR.:E05TSI                               TUE 07/29/97 14:03 Page:25
      121     3252        /*P* NAME: DDK$INCR#
      122     3253             PURPOSE: Increments the header words in the user's data
      123     3254                  patch space, and adjusts DELTA's internal pointers.
      124     3255                                                          */
      125     3256    1   DDK$INCR#: ENTRY(ADDRESS, SIZE) ALTRET;

   3256  1 000376   000000 700200 xent  DDK$INCR#    TSX0  ! X66_AUTO_2
         1 000377   000040 000002                    ZERO    32,2

      126     3257                                                /**/
      127     3258                                                /**/
      128     3259    1        VALUE.SIZE = 1;

   3259  1 000400   000001 235007                    LDA     1,DL
         1 000401   200005 755100                    STA     VALUE,,AUTO

      129     3260    1        IF S_D.RSPACE# = 0

   3260  1 000402   000000 470400 xsym               LDP0    S_D$
         1 000403   005063 235100                    LDA     2611,,PR0
         1 000404   000410 601000 1                  TNZ     s:3265

      130     3261    2        THEN DO;

      131     3262    2             S_D.ERROR = E@NOMORE#;        /* E@NOMORE# */

   3262  1 000405   000232 236007                    LDQ     154,DL
         1 000406   000013 756100                    STQ     11,,PR0

      132     3263    2             GOTO ALT;

   3263  1 000407   000774 710000 1                  TRA     ALT

      133     3264    2           END;
      134     3265    1        IF (ADDRESS + (SIZE - 1)) >= S_D.NEXT#

   3265  1 000410   200004 471500                    LDP1    @SIZE,,AUTO
PL6.E3A0      #001=DDK$INCR@ File=DDK$INCR.:E05TSI                               TUE 07/29/97 14:03 Page:26
         1 000411   200003 473500                    LDP3    @ADDRESS,,AUTO
         1 000412   100000 236100                    LDQ     0,,PR1
         1 000413   300000 036100                    ADLQ    0,,PR3
         1 000414   000773 604000 1                  TMI     s:3341
         1 000415   005062 116100                    CMPQ    2610,,PR0
         1 000416   000773 602000 1                  TNC     s:3341
         1 000417   000773 600000 1                  TZE     s:3341

      135     3266    2        THEN DO;

      136     3267    2             S_D.RSPACE# = S_D.HIGH# - (ADDRESS + (SIZE - 1));

   3267  1 000420   100000 236100                    LDQ     0,,PR1
         1 000421   300000 036100                    ADLQ    0,,PR3
         1 000422   200030 756100                    STQ     PNTR+2,,AUTO
         1 000423   005136 236100                    LDQ     2654,,PR0
         1 000424   200030 136100                    SBLQ    PNTR+2,,AUTO
         1 000425   000001 036007                    ADLQ    1,DL
         1 000426   005063 756100                    STQ     2611,,PR0

      137     3268    2             IF S_D.RSPACE# <= 0

   3268  1 000427   000463 605400 1                  TPNZ    s:3283

      138     3269    3             THEN DO;

      139     3270    3                  IF S_D.RUM

   3270  1 000430   004755 234100                    SZN     2541,,PR0
         1 000431   000453 605000 1                  TPL     s:3275

      140     3271    4                  THEN DO;

      141     3272    4                       VALUE.OPS(0) = 0;

   3272  1 000432   200006 450100                    STZ     VALUE+1,,AUTO

PL6.E3A0      #001=DDK$INCR@ File=DDK$INCR.:E05TSI                               TUE 07/29/97 14:03 Page:27
      142     3273    4                      CALL DUU$PUTMVAL(VALUE, 0, S_D.HEAD# + 1, 0, 0, '0'B) ALTRET(ALT
              3273                                );

   3273  1 000433   005064 235100                    LDA     2612,,PR0
         1 000434   000001 035007                    ADLA    1,DL
         1 000435   200030 755100                    STA     PNTR+2,,AUTO
         1 000436   000000 237000 2                  LDAQ    0
         1 000437   200036 757100                    STAQ    PNTR+8,,AUTO
         1 000440   000000 236000 2                  LDQ     0
         1 000441   200035 756100                    STQ     PNTR+7,,AUTO
         1 000442   200030 634500                    EPPR4   PNTR+2,,AUTO
         1 000443   200034 454500                    STP4    PNTR+6,,AUTO
         1 000444   200033 756100                    STQ     PNTR+5,,AUTO
         1 000445   200005 635500                    EPPR5   VALUE,,AUTO
         1 000446   200032 455500                    STP5    PNTR+4,,AUTO
         1 000447   200032 630500                    EPPR0   PNTR+4,,AUTO
         1 000450   000024 631400 xsym               EPPR1   B_VECTNIL+20
         1 000451   000000 701000 xent               TSX1    DUU$PUTMVAL
         1 000452   000774 702000 1                  TSX2    ALT

      143     3274    4                     END;

      144     3275    3                  IF S_D.RSPACE# < 0

   3275  1 000453   000000 470400 xsym               LDP0    S_D$
         1 000454   005063 235100                    LDA     2611,,PR0
         1 000455   000462 605000 1                  TPL     s:3281

      145     3276    4                  THEN DO;

      146     3277    4                       S_D.RSPACE# = 0;

   3277  1 000456   005063 450100                    STZ     2611,,PR0

      147     3278    4                       S_D.ERROR = E@NOMORE#; /* E@NOMORE# */

   3278  1 000457   000232 235007                    LDA     154,DL
PL6.E3A0      #001=DDK$INCR@ File=DDK$INCR.:E05TSI                               TUE 07/29/97 14:03 Page:28
         1 000460   000013 755100                    STA     11,,PR0

      148     3279    4                       GOTO ALT;

   3279  1 000461   000774 710000 1                  TRA     ALT

      149     3280    4                     END;
      150     3281    3                  RETURN;

   3281  1 000462   000000 702200 xent               TSX2  ! X66_ARET

      151     3282    3                END;
      152     3283    2             S_D.NEXT# = ADDRESS + SIZE;

   3283  1 000463   300000 236100                    LDQ     0,,PR3
         1 000464   100000 036100                    ADLQ    0,,PR1
         1 000465   005062 756100                    STQ     2610,,PR0

      153     3284    2             IF S_D.RUM

   3284  1 000466   004755 234100                    SZN     2541,,PR0
         1 000467   000635 605000 1                  TPL     s:3314

      154     3285    3             THEN DO;

      155     3286    3                  IF S_D.ONE_TO_TWO.EXEC_DOMAIN = %HOST

   3286  1 000470   006714 235100                    LDA     3532,,PR0
         1 000471   000001 115007                    CMPA    1,DL
         1 000472   000521 601000 1                  TNZ     s:3293

      156     3287    4                  THEN DO;

      157     3288    4                       PNTR = PINCRW(POINTER$, S_D.NEXT#);

   3288  1 000473   005062 720100                    LXL0    2610,,PR0
         1 000474   000000 636010                    EAQ     0,X0
PL6.E3A0      #001=DDK$INCR@ File=DDK$INCR.:E05TSI                               TUE 07/29/97 14:03 Page:29
         1 000475   000000 036000 0                  ADLQ    POINTER
         1 000476   200026 756100                    STQ     PNTR,,AUTO

      158     3289    4                       VALUE.OPS(0) = PNTR_WORD;

   3289  1 000477   200026 235100                    LDA     PNTR,,AUTO
         1 000500   200006 755100                    STA     VALUE+1,,AUTO

      159     3290    4                       CALL DUU$PUTMVAL(VALUE, 0, S_D.HEAD#, 0, 0, '0'B)

   3290  1 000501   000000 237000 2                  LDAQ    0
         1 000502   200034 757100                    STAQ    PNTR+6,,AUTO
         1 000503   000000 236000 2                  LDQ     0
         1 000504   200033 756100                    STQ     PNTR+5,,AUTO
         1 000505   000000 236000 xsym               LDQ     S_D$
         1 000506   005064 036003                    ADLQ    2612,DU
         1 000507   200032 756100                    STQ     PNTR+4,,AUTO
         1 000510   000000 236000 2                  LDQ     0
         1 000511   200031 756100                    STQ     PNTR+3,,AUTO
         1 000512   200005 634500                    EPPR4   VALUE,,AUTO
         1 000513   200030 454500                    STP4    PNTR+2,,AUTO
         1 000514   200030 630500                    EPPR0   PNTR+2,,AUTO
         1 000515   000024 631400 xsym               EPPR1   B_VECTNIL+20
         1 000516   000000 701000 xent               TSX1    DUU$PUTMVAL
         1 000517   000774 702000 1                  TSX2    ALT

      160     3291    4                         ALTRET(ALT);
      161     3292    4                     END;

   3292  1 000520   000563 710000 1                  TRA     s:3307

      162     3293    3                  ELSE IF S_D.ONE_TO_TWO.EXEC_DOMAIN = %L6

   3293  1 000521   000002 115007                    CMPA    2,DL
         1 000522   000555 601000 1                  TNZ     s:3303

      163     3294    4                       THEN DO;
PL6.E3A0      #001=DDK$INCR@ File=DDK$INCR.:E05TSI                               TUE 07/29/97 14:03 Page:30

      164     3295    4                            PNTR_WORD = S_D.NEXT#;

   3295  1 000523   200026 756100                    STQ     PNTR,,AUTO

      165     3296    4                            VALUE.SIZE = 2;

   3296  1 000524   000002 235007                    LDA     2,DL
         1 000525   200005 755100                    STA     VALUE,,AUTO

      166     3297    4                            VALUE.OPS(0) = PNTR_L6.UW;

   3297  1 000526   200026 236100                    LDQ     PNTR,,AUTO
         1 000527   000020 772000                    QRL     16
         1 000530   177777 376007                    ANQ     65535,DL
         1 000531   200006 756100                    STQ     VALUE+1,,AUTO

      167     3298    4                            VALUE.OPS(1) = PNTR_L6.LW;

   3298  1 000532   200026 236100                    LDQ     PNTR,,AUTO
         1 000533   177777 376007                    ANQ     65535,DL
         1 000534   200007 756100                    STQ     VALUE+2,,AUTO

      168     3299    4                            CALL DUU$PUTMVAL(VALUE, 0, S_D.HEAD#, 0, 0, '0'B)

   3299  1 000535   000000 237000 2                  LDAQ    0
         1 000536   200034 757100                    STAQ    PNTR+6,,AUTO
         1 000537   000000 236000 2                  LDQ     0
         1 000540   200033 756100                    STQ     PNTR+5,,AUTO
         1 000541   000000 236000 xsym               LDQ     S_D$
         1 000542   005064 036003                    ADLQ    2612,DU
         1 000543   200032 756100                    STQ     PNTR+4,,AUTO
         1 000544   000000 236000 2                  LDQ     0
         1 000545   200031 756100                    STQ     PNTR+3,,AUTO
         1 000546   200005 634500                    EPPR4   VALUE,,AUTO
         1 000547   200030 454500                    STP4    PNTR+2,,AUTO
         1 000550   200030 630500                    EPPR0   PNTR+2,,AUTO
PL6.E3A0      #001=DDK$INCR@ File=DDK$INCR.:E05TSI                               TUE 07/29/97 14:03 Page:31
         1 000551   000024 631400 xsym               EPPR1   B_VECTNIL+20
         1 000552   000000 701000 xent               TSX1    DUU$PUTMVAL
         1 000553   000774 702000 1                  TSX2    ALT

      169     3300    4                              ALTRET(ALT);
      170     3301    4                          END;

   3301  1 000554   000563 710000 1                  TRA     s:3307

      171     3302    4                       ELSE DO;

      172     3303    4                            S_D.ERROR = E@DELBUG; /* E@DELBUG */

   3303  1 000555   000766 235007                    LDA     502,DL
         1 000556   000013 755100                    STA     11,,PR0

      173     3304    4                            CALL DDE$ERROR;

   3304  1 000557   000002 631400 xsym               EPPR1   B_VECTNIL+2
         1 000560   000000 701000 xent               TSX1    DDE$ERROR
         1 000561   000000 011000                    NOP     0

      174     3305    4                            GOTO ALT;

   3305  1 000562   000774 710000 1                  TRA     ALT

      175     3306    4                          END;
      176     3307    3                  VALUE.SIZE = 1;

   3307  1 000563   000001 235007                    LDA     1,DL
         1 000564   200005 755100                    STA     VALUE,,AUTO

      177     3308    3                  VALUE.OPS(0) = S_D.RSPACE#;

   3308  1 000565   000000 470400 xsym               LDP0    S_D$
         1 000566   005063 235100                    LDA     2611,,PR0
         1 000567   200006 755100                    STA     VALUE+1,,AUTO
PL6.E3A0      #001=DDK$INCR@ File=DDK$INCR.:E05TSI                               TUE 07/29/97 14:03 Page:32

      178     3309    3                  IF S_D.ONE_TO_TWO.EXEC_DOMAIN = %HOST

   3309  1 000570   006714 235100                    LDA     3532,,PR0
         1 000571   000001 115007                    CMPA    1,DL
         1 000572   000614 601000 1                  TNZ     s:3311

      179     3310    3                 THEN CALL DUU$PUTMVAL(VALUE, 0, S_D.HEAD# + 1, 0, 0, '0'B) ALTRET(ALT
              3310                           );

   3310  1 000573   005064 235100                    LDA     2612,,PR0
         1 000574   000001 035007                    ADLA    1,DL
         1 000575   200030 755100                    STA     PNTR+2,,AUTO
         1 000576   000000 237000 2                  LDAQ    0
         1 000577   200036 757100                    STAQ    PNTR+8,,AUTO
         1 000600   000000 236000 2                  LDQ     0
         1 000601   200035 756100                    STQ     PNTR+7,,AUTO
         1 000602   200030 631500                    EPPR1   PNTR+2,,AUTO
         1 000603   200034 451500                    STP1    PNTR+6,,AUTO
         1 000604   200033 756100                    STQ     PNTR+5,,AUTO
         1 000605   200005 633500                    EPPR3   VALUE,,AUTO
         1 000606   200032 453500                    STP3    PNTR+4,,AUTO
         1 000607   200032 630500                    EPPR0   PNTR+4,,AUTO
         1 000610   000024 631400 xsym               EPPR1   B_VECTNIL+20
         1 000611   000000 701000 xent               TSX1    DUU$PUTMVAL
         1 000612   000774 702000 1                  TSX2    ALT
         1 000613   000773 710000 1                  TRA     s:3341

      180     3311    3                 ELSE CALL DUU$PUTMVAL(VALUE, 0, S_D.HEAD# + 2, 0, 0, '0'B) ALTRET(ALT
              3311                           );

   3311  1 000614   005064 235100                    LDA     2612,,PR0
         1 000615   000002 035007                    ADLA    2,DL
         1 000616   200030 755100                    STA     PNTR+2,,AUTO
         1 000617   000000 237000 2                  LDAQ    0
         1 000620   200036 757100                    STAQ    PNTR+8,,AUTO
         1 000621   000000 236000 2                  LDQ     0
PL6.E3A0      #001=DDK$INCR@ File=DDK$INCR.:E05TSI                               TUE 07/29/97 14:03 Page:33
         1 000622   200035 756100                    STQ     PNTR+7,,AUTO
         1 000623   200030 631500                    EPPR1   PNTR+2,,AUTO
         1 000624   200034 451500                    STP1    PNTR+6,,AUTO
         1 000625   200033 756100                    STQ     PNTR+5,,AUTO
         1 000626   200005 633500                    EPPR3   VALUE,,AUTO
         1 000627   200032 453500                    STP3    PNTR+4,,AUTO
         1 000630   200032 630500                    EPPR0   PNTR+4,,AUTO
         1 000631   000024 631400 xsym               EPPR1   B_VECTNIL+20
         1 000632   000000 701000 xent               TSX1    DUU$PUTMVAL
         1 000633   000774 702000 1                  TSX2    ALT

      181     3312    3                END;

   3312  1 000634   000773 710000 1                  TRA     s:3341

      182     3313    3             ELSE DO;

      183     3314    3                  IF S_D.ONE_TO_TWO.EXEC_DOMAIN = %HOST

   3314  1 000635   006714 235100                    LDA     3532,,PR0
         1 000636   000001 115007                    CMPA    1,DL
         1 000637   000703 601000 1                  TNZ     s:3321

      184     3315    4                  THEN DO;

      185     3316    4                       CALL DDK$PUTMVAL (PINCRW(POINTER$,S_D.NEXT#), S_D.HEAD#, 0, 0,
              3316                                '0'B)

   3316  1 000640   005062 720100                    LXL0    2610,,PR0
         1 000641   000000 636010                    EAQ     0,X0
         1 000642   000000 036000 0                  ADLQ    POINTER
         1 000643   200030 756100                    STQ     PNTR+2,,AUTO
         1 000644   000000 237000 2                  LDAQ    0
         1 000645   200034 757100                    STAQ    PNTR+6,,AUTO
         1 000646   000000 236000 2                  LDQ     0
         1 000647   200033 756100                    STQ     PNTR+5,,AUTO
         1 000650   000000 236000 xsym               LDQ     S_D$
PL6.E3A0      #001=DDK$INCR@ File=DDK$INCR.:E05TSI                               TUE 07/29/97 14:03 Page:34
         1 000651   005064 036003                    ADLQ    2612,DU
         1 000652   200032 756100                    STQ     PNTR+4,,AUTO
         1 000653   200030 634500                    EPPR4   PNTR+2,,AUTO
         1 000654   200031 454500                    STP4    PNTR+3,,AUTO
         1 000655   200031 630500                    EPPR0   PNTR+3,,AUTO
         1 000656   000023 631400 xsym               EPPR1   B_VECTNIL+19
         1 000657   000000 701000 xent               TSX1    DDK$PUTMVAL
         1 000660   000774 702000 1                  TSX2    ALT

      186     3317    4                         ALTRET(ALT);
      187     3318    4                       CALL DDK$PUTMVAL (S_D.RSPACE#, S_D.HEAD# + 1, 0, 0, '0'B)

   3318  1 000661   000000 470400 xsym               LDP0    S_D$
         1 000662   005064 235100                    LDA     2612,,PR0
         1 000663   000001 035007                    ADLA    1,DL
         1 000664   200030 755100                    STA     PNTR+2,,AUTO
         1 000665   000000 237000 2                  LDAQ    0
         1 000666   200034 757100                    STAQ    PNTR+6,,AUTO
         1 000667   000000 236000 2                  LDQ     0
         1 000670   200033 756100                    STQ     PNTR+5,,AUTO
         1 000671   200030 631500                    EPPR1   PNTR+2,,AUTO
         1 000672   200032 451500                    STP1    PNTR+4,,AUTO
         1 000673   000000 236000 xsym               LDQ     S_D$
         1 000674   005063 036003                    ADLQ    2611,DU
         1 000675   200031 756100                    STQ     PNTR+3,,AUTO
         1 000676   200031 630500                    EPPR0   PNTR+3,,AUTO
         1 000677   000023 631400 xsym               EPPR1   B_VECTNIL+19
         1 000700   000000 701000 xent               TSX1    DDK$PUTMVAL
         1 000701   000774 702000 1                  TSX2    ALT

      188     3319    4                         ALTRET(ALT);
      189     3320    4                     END;

   3320  1 000702   000773 710000 1                  TRA     s:3341

      190     3321    3                  ELSE IF S_D.ONE_TO_TWO.EXEC_DOMAIN = %L6

PL6.E3A0      #001=DDK$INCR@ File=DDK$INCR.:E05TSI                               TUE 07/29/97 14:03 Page:35
   3321  1 000703   000002 115007                    CMPA    2,DL
         1 000704   000765 601000 1                  TNZ     s:3335

      191     3322    4                       THEN DO;

      192     3323    4                            PNTR_WORD = S_D.NEXT#;

   3323  1 000705   200026 756100                    STQ     PNTR,,AUTO

      193     3324    4                            VALUE.SIZE = 2;

   3324  1 000706   000002 235007                    LDA     2,DL
         1 000707   200005 755100                    STA     VALUE,,AUTO

      194     3325    4                            VALUE.OPS(0) = PNTR_L6.UW;

   3325  1 000710   200026 236100                    LDQ     PNTR,,AUTO
         1 000711   000020 772000                    QRL     16
         1 000712   177777 376007                    ANQ     65535,DL
         1 000713   200006 756100                    STQ     VALUE+1,,AUTO

      195     3326    4                            VALUE.OPS(1) = PNTR_L6.LW;

   3326  1 000714   200026 236100                    LDQ     PNTR,,AUTO
         1 000715   177777 376007                    ANQ     65535,DL
         1 000716   200007 756100                    STQ     VALUE+2,,AUTO

      196     3327    4                            CALL DFK$PUTMVAL (VALUE, , S_D.HEAD#, 3, 0, '0'B)

   3327  1 000717   000000 237000 2                  LDAQ    0
         1 000720   200034 757100                    STAQ    PNTR+6,,AUTO
         1 000721   000002 236000 2                  LDQ     2
         1 000722   200033 756100                    STQ     PNTR+5,,AUTO
         1 000723   000000 236000 xsym               LDQ     S_D$
         1 000724   005064 036003                    ADLQ    2612,DU
         1 000725   200032 756100                    STQ     PNTR+4,,AUTO
         1 000726   000001 236000 xsym               LDQ     B_VECTNIL+1
PL6.E3A0      #001=DDK$INCR@ File=DDK$INCR.:E05TSI                               TUE 07/29/97 14:03 Page:36
         1 000727   200031 756100                    STQ     PNTR+3,,AUTO
         1 000730   200005 634500                    EPPR4   VALUE,,AUTO
         1 000731   200030 454500                    STP4    PNTR+2,,AUTO
         1 000732   200030 630500                    EPPR0   PNTR+2,,AUTO
         1 000733   000024 631400 xsym               EPPR1   B_VECTNIL+20
         1 000734   000000 701000 xent               TSX1    DFK$PUTMVAL
         1 000735   000774 702000 1                  TSX2    ALT

      197     3328    4                              ALTRET(ALT);
      198     3329    4                            VALUE.OPS(0) = S_D.RSPACE#;

   3329  1 000736   000000 470400 xsym               LDP0    S_D$
         1 000737   005063 235100                    LDA     2611,,PR0
         1 000740   200006 755100                    STA     VALUE+1,,AUTO

      199     3330    4                            VALUE.SIZE = 1;

   3330  1 000741   000001 236007                    LDQ     1,DL
         1 000742   200005 756100                    STQ     VALUE,,AUTO

      200     3331    4                            CALL DFK$PUTMVAL (VALUE, , S_D.HEAD# + 2, 3, 0, '0'B)

   3331  1 000743   005064 235100                    LDA     2612,,PR0
         1 000744   000002 035007                    ADLA    2,DL
         1 000745   200030 755100                    STA     PNTR+2,,AUTO
         1 000746   000000 237000 2                  LDAQ    0
         1 000747   200036 757100                    STAQ    PNTR+8,,AUTO
         1 000750   000002 236000 2                  LDQ     2
         1 000751   200035 756100                    STQ     PNTR+7,,AUTO
         1 000752   200030 631500                    EPPR1   PNTR+2,,AUTO
         1 000753   200034 451500                    STP1    PNTR+6,,AUTO
         1 000754   000001 236000 xsym               LDQ     B_VECTNIL+1
         1 000755   200033 756100                    STQ     PNTR+5,,AUTO
         1 000756   200005 633500                    EPPR3   VALUE,,AUTO
         1 000757   200032 453500                    STP3    PNTR+4,,AUTO
         1 000760   200032 630500                    EPPR0   PNTR+4,,AUTO
         1 000761   000024 631400 xsym               EPPR1   B_VECTNIL+20
PL6.E3A0      #001=DDK$INCR@ File=DDK$INCR.:E05TSI                               TUE 07/29/97 14:03 Page:37
         1 000762   000000 701000 xent               TSX1    DFK$PUTMVAL
         1 000763   000774 702000 1                  TSX2    ALT

      201     3332    4                              ALTRET(ALT);
      202     3333    4                          END;

   3333  1 000764   000773 710000 1                  TRA     s:3341

      203     3334    4                       ELSE DO;

      204     3335    4                            S_D.ERROR = E@DELBUG; /* E@DELBUG */

   3335  1 000765   000766 235007                    LDA     502,DL
         1 000766   000013 755100                    STA     11,,PR0

      205     3336    4                            CALL DDE$ERROR;

   3336  1 000767   000002 631400 xsym               EPPR1   B_VECTNIL+2
         1 000770   000000 701000 xent               TSX1    DDE$ERROR
         1 000771   000000 011000                    NOP     0

      206     3337    4                            GOTO ALT;

   3337  1 000772   000774 710000 1                  TRA     ALT

      207     3338    4                          END;
      208     3339    3                END;
      209     3340    2           END;
      210     3341    1        RETURN;

   3341  1 000773   000000 702200 xent               TSX2  ! X66_ARET

   3331  1 000774                       ALT          null
      211     3342    1   ALT: ;
      212     3343    1        ALTRETURN;

   3343  1 000774   000000 702200 xent               TSX2  ! X66_AALT
PL6.E3A0      #001=DDK$INCR@ File=DDK$INCR.:E05TSI                               TUE 07/29/97 14:03 Page:38

POINTER
 Sect OctLoc
   0     000   000000 006000                                                    ....

(unnamed)
 Sect OctLoc
   2     000   000002 006000   000002 006000   000005 006000                    ............
      213     3344    1   END DDK$INCR@;

PL6.E3A0      #001=DDK$INCR@ File=DDK$INCR.:E05TSI                               TUE 07/29/97 14:03 Page:39
--  Include file information  --

   DD_SD_M.:E05TOU  is referenced.
   XUH_MACRO_C.:E05TOU  is referenced.
   DD_ERR_C.:E05TOU  is referenced.
   B$JIT_C.:E05TOU  was found in the system file and is never referenced.
   CP_6_C.:E05TOU  was found in the system file and is never referenced.
      No diagnostics issued in procedure DDK$INCR@.

   Procedure DDK$INCR@ requires 509 words for executable code.
   Procedure DDK$INCR@ requires 32 words of local(AUTO) storage.

    No errors detected in file DDK$INCR.:E05TSI    .
PL6.E3A0      #001=DDK$INCR@ File=DDK$INCR.:E05TSI                               TUE 07/29/97 14:03 Page:40
          *** CROSS REFERENCE LISTING ***
**     DENOTES     IDENTIFIER DEFINITION
<<                 IDENTIFIER'S VALUE SET
>>                 IDENTIFIER'S VALUE USED
<>                 IDENTIFIER SET AND/OR USED
--                 IDENTIFIER REFERENCED
PL6.E3A0      #001=DDK$INCR@ File=DDK$INCR.:E05TSI                               TUE 07/29/97 14:03 Page:41
          MINI XREF LISTING

ADDRESS
       430**DCL        12--PROC     3176>>IF       3178>>ASSIGN   3194>>ASSIGN   3256--ENTRY    3265>>IF
      3267>>ASSIGN   3283>>ASSIGN
ALT
      3331**LABEL    3173--GOTO     3184--CALLALT  3190--GOTO     3201--CALLALT  3209--CALLALT  3214--GOTO
      3219--CALLALT  3220--CALLALT  3225--CALLALT  3227--CALLALT  3236--CALLALT  3240--CALLALT  3246--GOTO
      3263--GOTO     3273--CALLALT  3279--GOTO     3290--CALLALT  3299--CALLALT  3305--GOTO     3310--CALLALT
      3311--CALLALT  3316--CALLALT  3318--CALLALT  3327--CALLALT  3331--CALLALT  3337--GOTO
DDE$ERROR
       419**DCL-ENT  3213--CALL     3245--CALL     3304--CALL     3336--CALL
DDK$PUTMVAL
       417**DCL-ENT  3225--CALL     3227--CALL     3316--CALL     3318--CALL
DFK$PUTMVAL
       418**DCL-ENT  3236--CALL     3240--CALL     3327--CALL     3331--CALL
DUU$PUTMVAL
       416**DCL-ENT  3184--CALL     3201--CALL     3209--CALL     3219--CALL     3220--CALL     3273--CALL
      3290--CALL     3299--CALL     3310--CALL     3311--CALL
PNTR
       424**DCL       425--REDEF     426--REDEF    3199<<ASSIGN   3288<<ASSIGN
PNTR_L6.LW
       429**DCL      3208>>ASSIGN   3235>>ASSIGN   3298>>ASSIGN   3326>>ASSIGN
PNTR_L6.UW
       428**DCL      3207>>ASSIGN   3234>>ASSIGN   3297>>ASSIGN   3325>>ASSIGN
PNTR_WORD
       425**DCL      3200>>ASSIGN   3205<<ASSIGN   3232<<ASSIGN   3289>>ASSIGN   3295<<ASSIGN   3323<<ASSIGN
POINTER
       414**DCL       415--REDEF
POINTER$
       415**DCL      3199>>ASSIGN   3225>>CALL     3288>>ASSIGN   3316>>CALL
SIZE
       420**DCL        12--PROC     3176>>IF       3178>>ASSIGN   3194>>ASSIGN   3256--ENTRY    3265>>IF
      3267>>ASSIGN   3283>>ASSIGN
PL6.E3A0      #001=DDK$INCR@ File=DDK$INCR.:E05TSI                               TUE 07/29/97 14:03 Page:42
S_D.CURRENT_CHANNEL
      2803**DCL      2805--REDEF
S_D.DEBUGA
      1955**DCL      1957--REDEF
S_D.EIS
      2913**DCL      2942--REDEF
S_D.ERROR
      1884**DCL      3172<<ASSIGN   3189<<ASSIGN   3212<<ASSIGN   3244<<ASSIGN   3262<<ASSIGN   3278<<ASSIGN
      3303<<ASSIGN   3335<<ASSIGN
S_D.HEAD#
      2587**DCL      3273>>CALL     3290<>CALL     3299<>CALL     3310>>CALL     3311>>CALL     3316<>CALL
      3318>>CALL     3327<>CALL     3331>>CALL
S_D.HEAD@
      2577**DCL      3184>>CALL     3201<>CALL     3209<>CALL     3219>>CALL     3220>>CALL     3225<>CALL
      3227>>CALL     3236<>CALL     3240>>CALL
S_D.HIGH#
      2611**DCL      3267>>ASSIGN
S_D.HIGH@
      2605**DCL      3178>>ASSIGN
S_D.HOST_MESSAGE_BUF_REMOTE
      2846**DCL      2847--REDEF    2861--REDEF
S_D.JDE
      2460**DCL      2461--REDEF
S_D.L$.VALUE
      2013**DCL      2019--REDEF    2027--REDEF    2030--REDEF    2033--REDEF    2036--REDEF
S_D.L$.VALUE.L
      2014**DCL      2015--REDEF    2016--REDEF
S_D.L6_MESSAGE_BUF
      2867**DCL      2869--REDEF
S_D.NEXT#
      2583**DCL      3265>>IF       3283<<ASSIGN   3288>>ASSIGN   3295>>ASSIGN   3316>>CALL     3323>>ASSIGN
S_D.NEXT@
      2573**DCL      3176>>IF       3194<<ASSIGN   3199>>ASSIGN   3205>>ASSIGN   3225>>CALL     3232>>ASSIGN
S_D.ONE_TO_TWO.EXEC_DOMAIN
      2878**DCL      3197>>IF       3203>>IF       3218>>IF       3223>>IF       3230>>IF       3286>>IF
      3293>>IF       3309>>IF       3314>>IF       3321>>IF
PL6.E3A0      #001=DDK$INCR@ File=DDK$INCR.:E05TSI                               TUE 07/29/97 14:03 Page:43
S_D.OUTPUT
      2833**DCL      2835--REDEF
S_D.REMOTE_MSG.FNCC
      2852**DCL      2853--REDEF
S_D.REMOTE_MSG.STXC
      2848**DCL      2849--REDEF
S_D.REMOTE_MSG.SUBFNCC
      2856**DCL      2857--REDEF
S_D.RSPACE#
      2585**DCL      3260>>IF       3267<<ASSIGN   3268>>IF       3275>>IF       3277<<ASSIGN   3308>>ASSIGN
      3318<>CALL     3329>>ASSIGN
S_D.RSPACE@
      2575**DCL      3170>>IF       3178<<ASSIGN   3179>>IF       3186>>IF       3188<<ASSIGN   3217>>ASSIGN
      3227<>CALL     3238>>ASSIGN
S_D.RUM
      2501**DCL      3181>>IF       3195>>IF       3270>>IF       3284>>IF
S_D.SV
      1912**DCL      1933--REDEF
S_D$
      3164**DCL      1860--IMP-PTR  3170>>IF       3172>>ASSIGN   3176>>IF       3178>>ASSIGN   3178>>ASSIGN
      3179>>IF       3181>>IF       3184>>CALL     3186>>IF       3188>>ASSIGN   3189>>ASSIGN   3194>>ASSIGN
      3195>>IF       3197>>IF       3199>>ASSIGN   3201>>CALL     3203>>IF       3205>>ASSIGN   3209>>CALL
      3212>>ASSIGN   3217>>ASSIGN   3218>>IF       3219>>CALL     3220>>CALL     3223>>IF       3225>>CALL
      3225>>CALL     3227>>CALL     3227>>CALL     3230>>IF       3232>>ASSIGN   3236>>CALL     3238>>ASSIGN
      3240>>CALL     3244>>ASSIGN   3260>>IF       3262>>ASSIGN   3265>>IF       3267>>ASSIGN   3267>>ASSIGN
      3268>>IF       3270>>IF       3273>>CALL     3275>>IF       3277>>ASSIGN   3278>>ASSIGN   3283>>ASSIGN
      3284>>IF       3286>>IF       3288>>ASSIGN   3290>>CALL     3293>>IF       3295>>ASSIGN   3299>>CALL
      3303>>ASSIGN   3308>>ASSIGN   3309>>IF       3310>>CALL     3311>>CALL     3314>>IF       3316>>CALL
      3316>>CALL     3318>>CALL     3318>>CALL     3321>>IF       3323>>ASSIGN   3327>>CALL     3329>>ASSIGN
      3331>>CALL     3335>>ASSIGN
VALUE
       421**DCL      3184<>CALL     3201<>CALL     3209<>CALL     3219<>CALL     3220<>CALL     3236<>CALL
      3240<>CALL     3273<>CALL     3290<>CALL     3299<>CALL     3310<>CALL     3311<>CALL     3327<>CALL
      3331<>CALL
VALUE.OPS
       423**DCL      3183<<ASSIGN   3200<<ASSIGN   3207<<ASSIGN   3208<<ASSIGN   3217<<ASSIGN   3234<<ASSIGN
PL6.E3A0      #001=DDK$INCR@ File=DDK$INCR.:E05TSI                               TUE 07/29/97 14:03 Page:44
      3235<<ASSIGN   3238<<ASSIGN   3272<<ASSIGN   3289<<ASSIGN   3297<<ASSIGN   3298<<ASSIGN   3308<<ASSIGN
      3325<<ASSIGN   3326<<ASSIGN   3329<<ASSIGN
VALUE.SIZE
       422**DCL      3175<<ASSIGN   3206<<ASSIGN   3216<<ASSIGN   3233<<ASSIGN   3239<<ASSIGN   3259<<ASSIGN
      3296<<ASSIGN   3307<<ASSIGN   3324<<ASSIGN   3330<<ASSIGN
PL6.E3A0      #001=DDK$INCR@ File=DDK$INCR.:E05TSI                               TUE 07/29/97 14:03 Page:45
              *** CROSS REFERENCE LISTING ***
    **     DENOTES     IDENTIFIER DEFINITION
    <<                 IDENTIFIER'S VALUE SET
    >>                 IDENTIFIER'S VALUE USED
    <>                 IDENTIFIER SET AND/OR USED
    --                 IDENTIFIER REFERENCED
PL6.E3A0      #001=DDK$INCR@ File=DDK$INCR.:E05TSI                               TUE 07/29/97 14:03 Page:46
              MINI UREF LISTING

DDK$INCR#    3256**ENTRY
DDK$INCR@      12**PROC
UBIN18     412**DCL
UBIN36     413**DCL
UIS$     411**DCL
