VERSION E05

 14:04 07/29/97  FILE=DDK$MISC.:E05TSI                                                                   1    BMAP - B00
                                         1  *M*  DDK$MISC - Miscellaneous BMAP routines
                                         2  *T***********************************************************
                                         3  *T*                                                         *
                                         4  *T* Copyright (c) Bull HN Information Systems Inc., 1997    *
                                         5  *T*                                                         *
                                         6  *T***********************************************************
                                         7  *
                                         8           ENTDEF   DDK$GET_EA
                                         9           ENTDEF   DDK$GET_EAQ
                                        10           ENTDEF   DDK$COMP1
                                        11           ENTDEF   DDK$COMP2
                                        12           ENTDEF   DDK$MCOMP1
                                        13           ENTDEF   DDK$MCOMP2
                                        14           ENTDEF   DDK$CFLT
                                        15           ENTDEF   DDK$CDFLT
                                        16           ENTDEF   DDK$FROUND
                                        17           ENTDEF   DDK$ADDX_A
                                        18           ENTDEF   DDK$GETPARM
                                        19           ENTDEF   DDK$SEXTEND
                                        20           ENTDEF   DDK$GETX1
                                        21           ENTDEF   DDK$CMPDEC
                                        22           ENTDEF   DDK$SEVAL
                                        23           ENTDEF   DDK$L6_UTS
                                        24  *
                                        25           ENTREF   X66_AUTO_N
                                        26           ENTREF   X66_ARET
                                        27  *
                                        28           SYMREF   S_D_SEG$
                                        29           SYMREF   S_D_UREG$$
                                        30           SYMREF   USS1$
                                        31           SYMREF   S_D_USS$$
                                        32           SYMREF   S_D_ACCESS$
                                        33           SYMREF   S_D_REM_ACCESS$
                                        34           SYMREF   S_D_ASTACKOFF$
                                        35  *
             000000000002               36  AUTO     EQU      2
             000000000000               37  PR0      EQU      0
 14:04 07/29/97  FILE=DDK$MISC.:E05TSI                                                                   2    BMAP - B00
             000000000003               38  PR3      EQU      3
             000000000004               39  PR4      EQU      4
             000000000005               40  PR5      EQU      5
             000000000006               41  PR6      EQU      6
             000000000001               42  PARG1    EQU      1
             000000000003               43  PARG2    EQU      3
             000000000004               44  PARG3    EQU      4
             000000000001               45  PARM1    EQU      1
             000000000003               46  PARM2    EQU      3

 14:04 07/29/97  FILE=DDK$MISC.:E05TSI           DDK$MISC - DDK$GET_EA                                   3    BMAP - B00
                                        47           TTL      DDK$MISC - DDK$GET_EA
                                        48  *
                                        49  *D*  NAME: DDK$GET_EA
                                        50  *D*  DESCRIPTION: Returns $EA
                                        51  *
 0 000000                               52  DDK$GET_EA NULL
   000000    0 00000 4715 00            53           LDP      PARG1,0,,PR0
   000001  X 000000 4704 00             54           LDP0     S_D_UREG$$
   000002    0 00000 4705 00            55           LDP0     0,,PR0
   000003    0 00006 4111 00            56           LDE      6,,PR0            S_D$ -> S_D.UREG$ -> REG$VALUES.E
   000004    0 00004 2351 00            57           LDA      4,,PR0            S_D$ -> S_D.UREG$ -> REG$VALUES.A
   000005    000000 2360 03             58           LDQ      0,DU              ZERO FOR Q.
   000006    1 00002 4561 00            59           STE      2,,PARG1          STORE INTO VALUE
   000007    1 00000 7571 00            60           STAQ     0,,PARG1
   000010    000001 7100 11             61           TRA      1,X1

 14:04 07/29/97  FILE=DDK$MISC.:E05TSI           DDK$MISC - DDK$GET_EAQ                                  4    BMAP - B00
                                        62           TTL      DDK$MISC - DDK$GET_EAQ
                                        63  *
                                        64  *D*  NAME: DDK$GET_EAQ
                                        65  *D*  DESCRIPTION: Returns $EAQ
                                        66  *
   000011                               67  DDK$GET_EAQ  NULL
   000011    0 00000 4715 00            68           LDP      PARG1,0,,PR0
   000012  X 000000 4704 00             69           LDP0     S_D_UREG$$
   000013    0 00000 4705 00            70           LDP0     0,,PR0
   000014    0 00006 4111 00            71           LDE      6,,PR0            S_D$ -> S_D.UREG$ -> REG$VALUES.E
   000015    0 00004 2351 00            72           LDA      4,,PR0            S_D$ -> S_D.UREG$ -> REG$VALUES.A
   000016    0 00005 2361 00            73           LDQ      5,,PR0            S_D$ -> S_D.UREG$ -> REG$VALUES.Q
   000017    1 00002 4561 00            74           STE      2,,PARG1          STORE INTO VALUE (DALIGNED)
   000020    1 00000 7571 00            75           STAQ     0,,PARG1
   000021    000001 7100 11             76           TRA      1,X1

 14:04 07/29/97  FILE=DDK$MISC.:E05TSI           DDK$MISC - DDK$COMP1                                    5    BMAP - B00
                                        77           TTL      DDK$MISC - DDK$COMP1
                                        78  *
   000022                               79  DDK$COMP1  NULL
   000022    0 00000 4715 00            80           LDP      PARG1,0,,PR0
   000023    1 00000 2351 00            81           LDA      0,,PARG1
   000024    000032 7730 00             82           LRL      26             GET 8
   000025    000001 7710 00             83           ARL      1              THROW AWAY 1
   000026    000010 7730 00             84           LRL      8              GET 8
   000027    000024 7320 00             85           QRS      20             SIGN EXTEND
   000030    1 00000 7561 00            86           STQ      0,,PARG1
   000031    000001 7100 11             87           TRA      1,X1

 14:04 07/29/97  FILE=DDK$MISC.:E05TSI           DDK$MISC - DDK$COMP2                                    6    BMAP - B00
                                        88           TTL      DDK$MISC - DDK$COMP2
                                        89  *
   000032                               90  DDK$COMP2  NULL
   000032    0 00000 4715 00            91           LDP      PARG1,0,,PR0
   000033    1 00000 2351 00            92           LDA      0,,PARG1
   000034    000010 7730 00             93           LRL      8              GET 8
   000035    000001 7710 00             94           ARL      1              THROW AWAY 1
   000036    000010 7730 00             95           LRL      8              GET 8
   000037    000001 7710 00             96           ARL      1
   000040    000010 7730 00             97           LRL      8
   000041    000001 7710 00             98           ARL      1
   000042    000010 7730 00             99           LRL      8
   000043    000004 7320 00            100           QRS      4              SIGN EXTEND
   000044    1 00000 7561 00           101           STQ      0,,PARG1
   000045    000001 7100 11            102           TRA      1,X1

 14:04 07/29/97  FILE=DDK$MISC.:E05TSI           DDK$MISC - DDK$MCOMP1                                   7    BMAP - B00
                                       103           TTL      DDK$MISC - DDK$MCOMP1
                                       104  *
   000046                              105  DDK$MCOMP1 NULL
   000046    0 00000 4715 00           106           LDP      PARG1,0,,PR0
   000047    1 00000 2361 00           107           LDQ      0,,PARG1
   000050    000000 2350 07            108           LDA      0,DL
   000051    000024 7360 00            109           QLS      20                 THROW AWAY 20 BITS
   000052    000010 7370 00            110           LLS      8
   000053    000001 7350 00            111           ALS      1
   000054    000010 7370 00            112           LLS      8
   000055    1 00000 7551 00           113           STA      0,,PARG1
   000056    000001 7100 11            114           TRA      1,X1

 14:04 07/29/97  FILE=DDK$MISC.:E05TSI           DDK$MISC - DDK$MCOMP2                                   8    BMAP - B00
                                       115           TTL      DDK$MISC - DDK$MCOMP2
                                       116  *
   000057                              117  DDK$MCOMP2 NULL
   000057    0 00000 4715 00           118           LDP      PARG1,0,,PR0
   000060    1 00000 2361 00           119           LDQ      0,,PARG1
   000061    000000 2350 07            120           LDA      0,DL
   000062    000004 7360 00            121           QLS      4                 THROW AWAY 4 BITS
   000063    000010 7370 00            122           LLS      8
   000064    000001 7350 00            123           ALS      1
   000065    000010 7370 00            124           LLS      8
   000066    000001 7350 00            125           ALS      1
   000067    000010 7370 00            126           LLS      8
   000070    000001 7350 00            127           ALS      1
   000071    000010 7370 00            128           LLS      8
   000072    1 00000 7551 00           129           STA      0,,PARG1
   000073    000001 7100 11            130           TRA      1,X1

 14:04 07/29/97  FILE=DDK$MISC.:E05TSI           DDK$MISC - DDK$CFLT                                     9    BMAP - B00
                                       131           TTL      DDK$MISC - DDK$CFLT
                                       132  *
   000074                              133  DDK$CFLT  NULL
   000074    0 00000 4715 00           134           LDP      PARG1,0,,PR0
   000075    0 00001 4735 00           135           LDP      PARG2,1,,PR0
   000076    0 00002 4745 00           136           LDP      PARG3,2,,PR0
   000077    4 00000 4501 00           137           STZ      0,,PARG3
   000100    3 00000 4311 00           138           FLD      0,,PARG2
   000101    1 00000 5171 00           139           DFCMP    0,,PARG1
   000102    000001 6054 11            140           TPNZ      1,X1
   000103 (0)000106 6010 00            141           TNZ      NOTEQ
   000104    4 00000 0541 00           142           AOS      0,,PARG3
   000105    000001 7100 11            143           TRA      1,X1
   000106                              144  NOTEQ    NULL
   000106    000002 2350 07            145           LDA      2,DL
   000107    4 00000 7551 00           146           STA      0,,PARG3
   000110    000001 7100 11            147           TRA      1,X1

 14:04 07/29/97  FILE=DDK$MISC.:E05TSI           DDK$MISC - DDK$CDFLT                                    10   BMAP - B00
                                       148           TTL      DDK$MISC - DDK$CDFLT
                                       149  *
   000111                              150  DDK$CDFLT  NULL
   000111    0 00000 4715 00           151           LDP      PARG1,0,,PR0
   000112    0 00001 4735 00           152           LDP      PARG2,1,,PR0
   000113    0 00002 4745 00           153           LDP      PARG3,2,,PR0
   000114    4 00000 4501 00           154           STZ      0,,PARG3
   000115    3 00000 4331 00           155           DFLD     0,,PARG2
   000116    1 00000 5171 00           156           DFCMP    0,,PARG1
   000117    000001 6054 11            157           TPNZ      1,X1
   000120 (0)000123 6010 00            158           TNZ      DNOTEQ
   000121    4 00000 0541 00           159           AOS      0,,PARG3
   000122    000001 7100 11            160           TRA      1,X1
   000123                              161  DNOTEQ   NULL
   000123    000002 2350 07            162           LDA      2,DL
   000124    4 00000 7551 00           163           STA      0,,PARG3
   000125    000001 7100 11            164           TRA      1,X1

 14:04 07/29/97  FILE=DDK$MISC.:E05TSI           DDK$MISC - DDK$FROUND                                   11   BMAP - B00
                                       165           TTL      DDK$MISC - DDK$FROUND
                                       166  *
   000126                              167  DDK$FROUND  NULL
   000126    0 00000 4715 00           168           LDP      PARG1,0,,PR0
   000127    1 00000 4331 00           169           DFLD     0,,PARG1
   000130    1 00000 4701 00           170           FSTR     0,,PARG1
   000131    000001 7100 11            171           TRA      1,X1

 14:04 07/29/97  FILE=DDK$MISC.:E05TSI           DDK$MISC - DDK$ADDX_A                                   12   BMAP - B00
                                       172           TTL      DDK$MISC - DDK$ADDX_A
                                       173  *D*  NAME: DDK$ADDX_A
                                       174  *D*  DESCRIPTION: PERFORMS EXPRESSION MODIFICATION TO OFFSET
                                       175  *
          (0)000000000132              176  DDK$ADDX_A   EQU  *
                                       177  *
   000132    2 00003 4735 00           178           LDP3     3,,AUTO
   000133    2 00004 4745 00           179           LDP4     4,,AUTO
   000134    2 00005 4755 00           180           LDP5     5,,AUTO
   000135    5 00000 0321 00           181           LDQC     0,,PR5            PICK EXPR_OP AND CLEAR IT
   000136 (0)000136 7100 06            182           TRA      *,QL
   000137 (0)000200 7100 00            183           TRA      PLUS_A
   000140 (0)000203 7100 00            184           TRA      MINUS_A
   000141 (0)000173 7100 00            185           TRA      LSHIFT_A
   000142 (0)000166 7100 00            186           TRA      RSHIFT_A
   000143 (0)000162 7100 00            187           TRA      MULT_A
   000144 (0)000156 7100 00            188           TRA      DIV_A
   000145 (0)000152 7100 00            189           TRA      OR_A
                                       190  ******** TRA      AND_A
          (0)000000000146              191  AND_A    EQU      *
   000146    3 00000 2361 00           192           LDQ      0,,PR3
   000147    4 00000 3761 00           193           ANQ      0,,PR4
   000150    3 00000 7561 00           194           STQ      0,,PR3
   000151    000001 7100 11            195           TRA      1,X1
          (0)000000000152              196  OR_A     EQU      *
   000152    3 00000 2361 00           197           LDQ      0,,PR3
   000153    4 00000 2761 00           198           ORQ      0,,PR4
   000154    3 00000 7561 00           199           STQ      0,,PR3
   000155    000001 7100 11            200           TRA      1,X1
          (0)000000000156              201  DIV_A    EQU      *
   000156    3 00000 2361 00           202           LDQ      0,,PR3
   000157    4 00000 5061 00           203           DIV      0,,PR4
   000160    3 00000 7561 00           204           STQ      0,,PR3
   000161    000001 7100 11            205           TRA      1,X1
          (0)000000000162              206  MULT_A   EQU      *
   000162    3 00000 2361 00           207           LDQ      0,,PR3
   000163    4 00000 4021 00           208           MPY      0,,PR4
 14:04 07/29/97  FILE=DDK$MISC.:E05TSI           DDK$MISC - DDK$ADDX_A                                   13   BMAP - B00
   000164    3 00000 7561 00           209           STQ      0,,PR3
   000165    000001 7100 11            210           TRA      1,X1
          (0)000000000166              211  RSHIFT_A EQU      *
   000166    3 00000 2361 00           212           LDQ      0,,PR3
   000167    4 00000 2351 00           213           LDA      0,,PR4
   000170    000000 7320 05            214           QRS      0,AL
   000171    3 00000 7561 00           215           STQ      0,,PR3
   000172    000001 7100 11            216           TRA      1,X1
          (0)000000000173              217  LSHIFT_A EQU      *
   000173    3 00000 2361 00           218           LDQ      0,,PR3
   000174    4 00000 2351 00           219           LDA      0,,PR4
   000175    000000 7360 05            220           QLS      0,AL
   000176    3 00000 7561 00           221           STQ      0,,PR3
   000177    000001 7100 11            222           TRA      1,X1
          (0)000000000200              223  PLUS_A   EQU      *
   000200    4 00000 2351 00           224           LDA      0,,PR4
   000201    3 00000 0551 00           225           ASA      0,,PR3
   000202    000001 7100 11            226           TRA      1,X1
          (0)000000000203              227  MINUS_A  EQU      *
   000203    4 00000 2351 00           228           LDA      0,,PR4
   000204    000000 5310 00            229           NEG
   000205    3 00000 0551 00           230           ASA      0,,PR3
   000206    000001 7100 11            231           TRA      1,X1

 14:04 07/29/97  FILE=DDK$MISC.:E05TSI           DDK$MISC - DDK$GETPARM                                  14   BMAP - B00
                                       232           TTL      DDK$MISC - DDK$GETPARM
                                       233  *
                                       234  *D*  NAME: DDK$GETPARM
                                       235  *D*  PURPOSE: FETCH POINTER TO A PARAMETER FROM USER'S CURRENT
                                       236  *D*               AUTO FRAM.
                                       237  *D*  INPUT: (FIRST PARAMETER) PARAMETER #
                                       238  *D*  OUTPUT: (SECOND PARAMETER) USER'S POINTER
                                       239  *
                                       240  *
          (0)000000000207              241  DDK$GETPARM EQU   *
                                       242  *
   000207    0 00000 4715 00           243           LDP      PARG1,0,,PR0
   000210    0 00001 4735 00           244           LDP      PARG2,1,,PR0
   000211    3 00000 7411 00           245           STX1     0,,PARG2          REMEMBER RETURN IN CASE OF FAULT
   000212  X 000000 4744 00            246           LDP4     USS1$             PTR TO USER'S SS AS DESC STORAGE
   000213    000004 2350 07            247           LDA      AUTO*2,DL         OFFSET TO AUTO DESC
   000214    4 00030 6755 05           248           LDD5     24,AL,PR4         PICK UP USER'S DESCRIPTOR
   000215  X 000000 4764 00            249           LDP6     S_D_USS$$
   000216    6 00000 4745 00           250           LDP4     0,,PR6
   000217    4 00022 7655 00           251           LAR5     18,,PR4        GET OFFSET FROM PR2 IN SS FRAME
   000220    1 00000 2351 00           252           LDA      0,,PARM1          GET PARAMETER #
   000221    400000 2360 03            253           LDQ       =O400000,DU
   000222  X 000000 4764 00            254           LDP6      S_D_ACCESS$
   000223    6 00000 7561 00           255           STQ       0,,PR6
   000224  X 000000 4764 00            256           LDP6      S_D_REM_ACCESS$
   000225    6 00000 4525 00           257           STP       AUTO,0,,PR6 do PL6 remember
   000226 (0)000242 6360 00            258           EAQ       PACCESSFAULT
   000227    6 00001 7561 00           259           STQ       1,,PR6
   000230    5 00002 2351 05           260           LDA      2,AL,PR5          GET USER'S POINTER
   000231  X 000000 4764 00            261           LDP6     S_D_ACCESS$
   000232    6 00000 4501 00           262           STZ      0,,PR6
   000233    3 00000 7551 00           263           STA      0,,PARM2
   000234    006000 3750 07            264           ANA      =O6000,DL
   000235    002000 1150 07            265           CMPA     =O2000,DL
   000236 (0)000241 6010 00            266           TNZ      TGLABEL
   000237    004000 2350 07            267           LDA      =O4000,DL
   000240    3 00000 2551 00           268           ORSA     0,,PARM2
 14:04 07/29/97  FILE=DDK$MISC.:E05TSI           DDK$MISC - DDK$GETPARM                                  15   BMAP - B00
   000241                              269  TGLABEL  NULL
   000241    000001 7100 11            270           TRA      1,X1
          (0)000000000242              271  PACCESSFAULT EQU *
   000242    3 00000 2211 00           272           LDX1     0,,PARG2          GET RETURN ADDRESS
   000243    000000 7100 11            273           TRA      0,X1

 14:04 07/29/97  FILE=DDK$MISC.:E05TSI           DDK$MISC - DDK$SEXTEND                                  16   BMAP - B00
                                       274           TTL      DDK$MISC - DDK$SEXTEND
                                       275  *
                                       276  *D*  DDK$SEXTEND - SIGN EXTEND ARG1 (WHICH IS ARG2 BITS LEFT JUST)
                                       277  *
          (0)000000000244              278  DDK$SEXTEND  EQU  *
                                       279  *
   000244    0 00000 4715 00           280           LDP      PARG1,0,,PR0
   000245    0 00001 4735 00           281           LDP      PARG2,1,,PR0
   000246    1 00000 2361 00           282           LDQ      0,,PARG1
   000247    000044 2350 07            283           LDA      36,DL
   000250    3 00000 1751 00           284           SBA      0,,PARG2
   000251    000000 7320 05            285           QRS      0,AL
   000252    1 00000 7561 00           286           STQ      0,,PARG1
   000253    000001 7100 11            287           TRA      1,X1

 14:04 07/29/97  FILE=DDK$MISC.:E05TSI           DDK$MISC - DDK$GETX1                                    17   BMAP - B00
                                       288           TTL      DDK$MISC - DDK$GETX1
                                       289  *F*  NAME: DDK$GETX1
                                       290  *F*  PURPOSE: TO GET RETURN ADDRESS FROM CURRENT AUTO FRAME.
                                       291  *F*  DESCRIPTION: THE RETURN ADDRESS IS OBTAINED FROM BITS 18-35 OF
                                       292  *F*               WORD 0 OF THE CURRENT AUTO FRAME.
                                       293  *D*  NAME: DDK$GETX1
                                       294  *D*  CALL: CALL DDK$GETX1( ADDRESS );
                                       295  *D*  ENVIRONMENT:
                                       296  *D*  INPUT: CURRENT AUTO FRAME.
                                       297  *D*  OUTPUT: ADDRESS - RETURN ADDRESS.
                                       298  *D*  SCRATCH: Q.
                                       299  *D*  DESCRIPTION: THE RETURN ADDRESS IS OBTAINED FROM BITS 18-35 OF
                                       300  *D*               WORD 0 OF THE CURRENT AUTO FRAME.
                                       301  *
          (0)000000000254              302  DDK$GETX1 EQU       *
                                       303  *
   000254    0 00000 4715 00           304            LDP       PARG1,0,,PR0
   000255    2 00000 2361 00           305            LDQ       0,,AUTO                  GET RETURN ADDRESS
   000256    000022 7720 00            306            QRL       18                       WITH BITS 0-17 ZERO-ED
   000257    1 00000 7561 00           307            STQ       0,,PARM1                  & SET IT IN PARAMETER
   000260    000001 7100 11            308            TRA       1,X1                     DONE - NORMAL RETURN

 14:04 07/29/97  FILE=DDK$MISC.:E05TSI           DDK$MISC - DDK$SEVAL                                    18   BMAP - B00
                                       309           TTL      DDK$MISC - DDK$SEVAL
                                       310  *F*  NAME: DDK$SEVAL
                                       311  *F*  PURPOSE: TO EVALUATE EXPRESSIONS FOR DDS$EVAL
                                       312  *F*  DESCRIPTION: THE RESULT OF OPERAND1 OPERATION OPERAND2 IS STORED
                                       313  *F*               IN THE CELL CONTAINING OPERATION CODE.
                                       314  *D*  NAME: DDK$SEVAL
                                       315  *D*  CALL: CALL DDK$SEVAL( OPERAND1, OPERAND2, OPERATION );
                                       316  *D*  ENVIRONMENT:
                                       317  *D*  INPUT: OPERAND1 - SBIN WORD
                                       318  *D*         OPERAND2 - SBIN WORD
                                       319  *D*         OPERATION - SBIN WORD, CODES ARE:
                                       320  *D*                     1, ADDITION.
                                       321  *D*                     2, SUBTRACTION.
                                       322  *D*                     3, LEFT SHIFT.
                                       323  *D*                     4, RIGHT SHIFT.
                                       324  *D*                     5, MULTIPLICATION.
                                       325  *D*                     6, DIVISION.
                                       326  *D*  OUTPUT: RESULT IS STORED IN OPERATION CODE CELL.
                                       327  *D*  SCRATCH: A, Q.
                                       328  *D*  DESCRIPTION: A BRANCH TABLE IS USED TO DETERMINE WHICH OPERATION
                                       329  *D*               TO PERFORM.
                                       330  *
          (0)000000000261              331  DDK$SEVAL EQU       *
                                       332  *
   000261    0 00000 4715 00           333            LDP       PARG1,0,,PR0
   000262    0 00001 4735 00           334            LDP       PARG2,1,,PR0
   000263    0 00002 4745 00           335            LDP       PARG3,2,,PR0
   000264    4 00000 0321 00           336            LDQC      0,,PARG3                 GET OPERATION CODE & CLEAR IT
   000265 (0)000265 7100 06            337            TRA       *,QL                     DO CASE( OPERATION )
   000266 (0)000327 7100 00            338            TRA       PLUS_S
   000267 (0)000333 7100 00            339            TRA       MINUS_S
   000270 (0)000322 7100 00            340            TRA       LSHIFT_S
   000271 (0)000315 7100 00            341            TRA       RSHIFT_S
   000272 (0)000311 7100 00            342            TRA       MULT_S
   000273 (0)000305 7100 00            343            TRA       DIV_S
   000274 (0)000301 7100 00            344            TRA       OR_S
                                       345  ********* TRA       AND_S
 14:04 07/29/97  FILE=DDK$MISC.:E05TSI           DDK$MISC - DDK$SEVAL                                    19   BMAP - B00
          (0)000000000275              346  AND_S     EQU       *                        CASE( 8 )
   000275    1 00000 2361 00           347            LDQ       0,,PARG1                 GET OPERAND 1
   000276    3 00000 3761 00           348            ANQ       0,,PARG2                 AND OPERAND 2
   000277    4 00000 7561 00           349            STQ       0,,PARG3                 SET RESULT
   000300    000001 7100 11            350            TRA       1,X1                      & RETURN
          (0)000000000301              351  OR_S      EQU       *                        CASE( 7 )
   000301    1 00000 2361 00           352            LDQ       0,,PARG1                 GET OPERAND 1
   000302    3 00000 2761 00           353            ORQ       0,,PARG2                 OR OPERAND 2
   000303    4 00000 7561 00           354            STQ       0,,PARG3                 SET RESULT
   000304    000001 7100 11            355            TRA       1,X1                      & RETURN
          (0)000000000305              356  DIV_S     EQU       *                        CASE( 6 )
   000305    1 00000 2361 00           357            LDQ       0,,PARG1                 GET OPERAND 1
   000306    3 00000 5061 00           358            DIV       0,,PARG2                 DIVIDE BY OPERAND 2
   000307    4 00000 7561 00           359            STQ       0,,PARG3                 SET RESULT
   000310    000001 7100 11            360            TRA       1,X1                      & RETURN
          (0)000000000311              361  MULT_S    EQU       *                        CASE( 5 )
   000311    1 00000 2361 00           362            LDQ       0,,PARG1                 GET OPERAND 1
   000312    3 00000 4021 00           363            MPY       0,,PARG2                 MULTIPLY BY OPERAND 2
   000313    4 00000 7561 00           364            STQ       0,,PARG3                 SET RESULT
   000314    000001 7100 11            365            TRA       1,X1                      & RETURN
          (0)000000000315              366  RSHIFT_S  EQU       *                        CASE( 4 )
   000315    1 00000 2361 00           367            LDQ       0,,PARG1                 GET OPERAND 1
   000316    3 00000 2351 00           368            LDA       0,,PARG2                 GET OPERAND2
   000317    000000 7320 05            369            QRS       0,AL                     RIGHT SHIFT IT
   000320    4 00000 7561 00           370            STQ       0,,PARG3                 SET RESULT
   000321    000001 7100 11            371            TRA       1,X1                      & RETURN
          (0)000000000322              372  LSHIFT_S  EQU       *                        CASE( 3 )
   000322    1 00000 2361 00           373            LDQ       0,,PARG1                 GET OPERAND 1
   000323    3 00000 2351 00           374            LDA       0,,PARG2                 GET OPERAND2
   000324    000000 7360 05            375            QLS       0,AL                     LEFT SHIFT IT
   000325    4 00000 7561 00           376            STQ       0,,PARG3                 SET RESULT
   000326    000001 7100 11            377            TRA       1,X1                      & RETURN
          (0)000000000327              378  PLUS_S    EQU       *                        CASE( 2 )
   000327    3 00000 2351 00           379            LDA       0,,PARG2                 GET OPERAND2
   000330    1 00000 0751 00           380            ADA       0,,PARG1                 ADD OPERAND1
   000331    4 00000 7551 00           381            STA       0,,PARG3                 SET RESULT
   000332    000001 7100 11            382            TRA       1,X1                      & RETURN
 14:04 07/29/97  FILE=DDK$MISC.:E05TSI           DDK$MISC - DDK$SEVAL                                    20   BMAP - B00
          (0)000000000333              383  MINUS_S   EQU       *                        CASE( 1 )
   000333    3 00000 2351 00           384            LDA       0,,PARG2                 GET OPERAND2
   000334    000000 5310 00            385            NEG                                COMPLEMENT OPERAND2
   000335    1 00000 0751 00           386            ADA       0,,PARG1                 ADD OPERAND1
   000336    4 00000 7551 00           387            STA       0,,PARG3                 SET RESULT
   000337    000001 7100 11            388            TRA       1,X1                      & RETURN
                                       389  *

 14:04 07/29/97  FILE=DDK$MISC.:E05TSI           DDK$MISC - DDK$CMPDEC                                   21   BMAP - B00
                                       390           TTL      DDK$MISC - DDK$CMPDEC
                                       391  *
   000340                              392  DDK$CMPDEC  NULL
                                       393  *
   000340  X 000000 7000 00            394           TSX0     X66_AUTO_N
   000341    000012 000005             395           ZERO     10,5
   000342    2 00003 4705 00           396           LDP0     3,,AUTO
   000343    0 00000 7221 00           397           LXL2     0,,PR0            CSIZE
   000344    2 00005 4705 00           398           LDP0     5,,AUTO
   000345    0 00000 7231 00           399           LXL3     0,,PR0            VSIZE
   000346    2 00004 4745 00           400           LDP4     4,,AUTO           A(C_VAL)
   000347    2 00006 4755 00           401           LDP5     6,,AUTO           A(V_VAL)
   000350    2 00007 4705 00           402           LDP0     7,,AUTO           A(COMP_FLAG)
   000351    0 00000 4501 00           403           STZ      0,,PR0            assume C_VAL < V_VAL
   000352    0 000 0 0 140 3035 40     404           CMPN     (1,1),(1,1)
   000353    4 00000 0 0 1 00 12       405           NDSC9    0,,X2,1,0,PR4     N=*X2,leading sign, no scale
   000354    5 00000 0 0 1 00 13       406           NDSC9    0,,X3,1,0,PR5     N=*X3,leading sign, no scale
   000355  X 000000 6054 00            407           TPNZ     X66_ARET              C_VAL < V_VAL
   000356 (0)000362 6000 00            408           TZE      DECEQ
   000357    000002 2350 07            409           LDA      2,DL
   000360    0 00000 7551 00           410           STA      0,,PR0            C_VAL > V_VAL
   000361  X 000000 7100 00            411           TRA      X66_ARET
   000362                              412  DECEQ    NULL
   000362    0 00000 0541 00           413           AOS      0,,PR0            C_VAL = V_VAL
   000363  X 000000 7100 00            414           TRA      X66_ARET
                                       415  *
                                       416  *      Convert L6 UTS to HOST UTS
                                       417  *
          (0)000000000364              418  DDK$L6_UTS EQU   *
   000364    0 00000 4715 00           419         LDP1    0,,0
   000365    0 00001 4735 00           420         LDP3    1,,0
   000366    1 00000 2351 00           421         LDA     0,,1
                                       422  *      ANA     MAXFUTS
   000367    000024 4010 07            423         MPF     20,DL
   000370    000003 5070 07            424         DVF     3,DL
   000371    000001 7350 00            425         ALS     1
   000372    000002 1160 07            426         CMPQ    2,DL
 14:04 07/29/97  FILE=DDK$MISC.:E05TSI           DDK$MISC - DDK$CMPDEC                                   22   BMAP - B00
   000373 (0)000375 6040 00            427         TMI     *+2
   000374    000001 0350 07            428         ADLA    1,DL
   000375    3 00000 7551 00           429         STA     0,,3
   000376    000001 7100 11            430         TRA     1,1
                                       431           END

  CONTROL SECTION TABLE

   0 CODE   EVEN  000377
   1 RODATA EVEN  000000 LITERALS

 14:04 07/29/97  FILE=DDK$MISC.:E05TSI        SYMBOL TABLE                                               23   BMAP - B00
 40101000 000000000146 AND_A         *191
 40101000 000000000275 AND_S         *346
 41000000 000000000002 AUTO           *36       178       179       180       247       257       305
                                      396       398       400       401       402
 52101000 000000000132 DDK$ADDX_A      17      *176
 12101000 000000000111 DDK$CDFLT       15      *150
 12101000 000000000074 DDK$CFLT        14      *133
 12101000 000000000340 DDK$CMPDEC      21      *392
 12101000 000000000022 DDK$COMP1       10       *79
 12101000 000000000032 DDK$COMP2       11       *90
 12101000 000000000126 DDK$FROUND      16      *167
 52101000 000000000207 DDK$GETPARM     18      *241
 52101000 000000000254 DDK$GETX1       20      *302
 12101000 000000000000 DDK$GET_EA       8       *52
 12101000 000000000011 DDK$GET_EAQ      9       *67
 52101000 000000000364 DDK$L6_UTS      23      *418
 12101000 000000000046 DDK$MCOMP1      12      *105
 12101000 000000000057 DDK$MCOMP2      13      *117
 52101000 000000000261 DDK$SEVAL       22      *331
 52101000 000000000244 DDK$SEXTEND     19      *278
 01101000 000000000362 DECEQ          408      *412
 41101000 000000000156 DIV_A          188      *201
 41101000 000000000305 DIV_S          343      *356
 01101000 000000000123 DNOTEQ         158      *161
 41101000 000000000173 LSHIFT_A       185      *217
 41101000 000000000322 LSHIFT_S       340      *372
 41101000 000000000203 MINUS_A        184      *227
 41101000 000000000333 MINUS_S        339      *383
 41101000 000000000162 MULT_A         187      *206
 41101000 000000000311 MULT_S         342      *361
 01101000 000000000106 NOTEQ          141      *144
 41101000 000000000152 OR_A           189      *196
 41101000 000000000301 OR_S           344      *351
 41101000 000000000242 PACCESSFAULT   258      *271
 41000000 000000000001 PARG1          *42        53        59        60        68        74        75
                                       80        81        86        91        92       101       106
                                      107       113       118       119       129       134       139
 14:04 07/29/97  FILE=DDK$MISC.:E05TSI        SYMBOL TABLE                                               24   BMAP - B00
                                      151       156       168       169       170       243       280
                                      282       286       304       333       347       352       357
                                      362       367       373       380       386
 41000000 000000000003 PARG2          *43       135       138       152       155       244       245
                                      272       281       284       334       348       353       358
                                      363       368       374       379       384
 41000000 000000000004 PARG3          *44       136       137       142       146       153       154
                                      159       163       335       336       349       354       359
                                      364       370       376       381       387
 41000000 000000000001 PARM1          *45       252       307
 41000000 000000000003 PARM2          *46       263       268
 41101000 000000000200 PLUS_A         183      *223
 41101000 000000000327 PLUS_S         338      *378
 41000000 000000000000 PR0            *37        53        55        56        57        68        70
                                       71        72        73        80        91       106       118
                                      134       135       136       151       152       153       168
                                      243       244       280       281       304       333       334
                                      335       397       399       403       410       413
 41000000 000000000003 PR3            *38       192       194       197       199       202       204
                                      207       209       212       215       218       221       225
                                      230
 41000000 000000000004 PR4            *39       193       198       203       208       213       219
                                      224       228       248       251       405
 41000000 000000000005 PR5            *40       181       260       406
 41000000 000000000006 PR6            *41       250       255       257       259       262
 41101000 000000000166 RSHIFT_A       186      *211
 41101000 000000000315 RSHIFT_S       341      *366
 03301004 000000000000 S_D_ACCESS$    *32       254       261
 02301006 000000000000 S_D_ASTACKOFF$           *34
 03301005 000000000000 S_D_REM_ACCESS$          *33       256
 02301000 000000000000 S_D_SEG$       *28
 03301001 000000000000 S_D_UREG$$     *29        54        69
 03301003 000000000000 S_D_USS$$      *31       249
 01101000 000000000241 TGLABEL        266      *269
 03301002 000000000000 USS1$          *30       246
 03201001 000000000000 X66_ARET       *26       407       411       414
 03201000 000000000000 X66_AUTO_N     *25       394
 14:04 07/29/97  FILE=DDK$MISC.:E05TSI        SYMBOL TABLE                                               25   BMAP - B00

      57 SYMBOLS

       0 MACROS

    SYMBOL SPACE USED   951 WORDS
     MACRO SPACE USED     0 WORDS
   INPUT RECORDS READ   862
 STATEMENTS PROCESSED   393
         ELAPSED TIME  0:03.44
             CPU TIME     3.03 SEC.
        ASSEMBLY RATE  7782 STATEMENTS/CPU MIN.

      NO ERRORS

