VERSION E05

PL6.E3A0      #001=DDK$PUTSPEC File=DDK$PUTSPEC.:E05TSI                          TUE 07/29/97 14:04 Page:1
        1        1        /*M*  DDK$PUTSPEC - stores VALUE into special symbols */
        2        2        /*T***********************************************************/
        3        3        /*T*                                                         */
        4        4        /*T* Copyright (c) Bull HN Information Systems Inc., 1997    */
        5        5        /*T*                                                         */
        6        6        /*T***********************************************************/
        7        7        /*X* DMR,PLM=5,IND=5,CSU=3,EXM=0,ECU=3,MOC,DCI=5,CRT=5 */
        8        8        %SET LISTSUB='1'B;
        9        9        DDK$PUTSPEC: PROC(DITEM, VALUE);
       10       10        /* Parms */
       11       11        %INCLUDE DD$DITEM;
       12+     114             %LIST;
       13+     115    1        DCL SDD$ PTR;
       14+     116    1        DCL ZITEM$ PTR;
       15+     117    1        DCL SDD_L6$ PTR;
       16+     118    1        DCL ZITEM_L6$ PTR;
       12      692            %DITEM (STCLASS=PARAM);
       13      772    1   DCL TEMP UBIN;
       14      773    1   DCL VALUE SBIN;
       15      774    1   DCL CVALUE REDEF VALUE CHAR(4);
       16      775        /* Locals */
       17      776    1   DCL SZ UBIN;
       18      777        /* Misc */
       19      778    1   DCL WSR(0:7) UBIN(9) UNAL SYMREF;
       20      779    1   DCL PRS(0:7) UBIN;
       21      780    1   DCL PRSCHAR REDEF PRS CHAR(32);
       22      781    1   DCL UBIN36 UBIN BASED;
       23      782    1   DCL BIT36 BIT(36) BASED ALIGNED;
       24      783    1   DCL CHAR4 CHAR(4) BASED;
       25      784    1   DCL CHAR32 CHAR(32) BASED;
       26      785    1   DCL TEXTR CHAR(SZ) BASED;
       27      786    1   DCL EREG UBIN(8) BASED UNAL;
       28      787    1   DCL UIS$ PTR SYMREF;
       29      788    1   DCL MIS$ PTR SYMREF;
       30      789    1   DCL D_XDELTA BIT(1) SYMREF;
       31      790        %INCLUDE DD_ERR_C;
       32     1187        %INCLUDE XUH_MACRO_C;
PL6.E3A0      #001=DDK$PUTSPEC File=DDK$PUTSPEC.:E05TSI                          TUE 07/29/97 14:04 Page:2
       33     1271        %INCLUDE DD_SD_M;
       34     2607        %S_D;
       35     3925        %INCLUDE DD$BASED;
       36     5228        %HOST_REG$VALUES;
       37     5241        %INCLUDE B$SS;
       38     5420        %INCLUDE CP_6;
       39     5501        %FPT_DRTN(STCLASS=CONSTANT,MRGSS=YES);
       40     5525        %FPT_DRTN(FPTN=FPT$DRTN,STCLASS=AUTO);
       41     5549        %FPT_DRTN(FPTN=FPT$$DRTN, STCLASS=BASED);
       42     5573        %B$EXCFR;
       43     5591        /* External routines */
       44     5592    1   DCL DDE$ERROR ENTRY;
       45     5593    1   DCL DDS$ES_INQ ENTRY(1) ALTRET;
       46     5594    1   DCL DDS$SET_Q2C ENTRY ALTRET;
       47     5595        /**/
       48     5596    1        IF DITEM.ADDR_TYPE = %DESC_ACODE
       49     5597    2        THEN DO;                           /* Asssume $PRn */
       50     5598    2             TEMP = ( DITEM.SP.VD.DISP - 24 ) / 2;
       51     5599    2             GOTO MODPRS;
       52     5600    2           END;
       53     5601    2        DO CASE( DITEM.SP.VS.ID );
       54     5602    2          CASE( %E_RTN );
       55     5603    2             S_D.UREG$ -> HOST_REG$VALUES.E = VALUE;
       56     5604    2          CASE( %A_RTN );
       57     5605    2             S_D.UREG$ -> HOST_REG$VALUES.A = VALUE;
       58     5606    2          CASE( %Q_RTN );
       59     5607    2             S_D.UREG$ -> HOST_REG$VALUES.Q = VALUE;
       60     5608    2          CASE( %AU_RTN );
       61     5609    2             S_D.UREG$ -> HOST_REG$VALUES.HA.AU = VALUE;
       62     5610    2          CASE( %AL_RTN );
       63     5611    2             S_D.UREG$ -> HOST_REG$VALUES.HA.AL = VALUE;
       64     5612    2          CASE( %QU_RTN );
       65     5613    2             S_D.UREG$ -> HOST_REG$VALUES.HQ.QU = VALUE;
       66     5614    2          CASE( %QL_RTN );
       67     5615    2             S_D.UREG$ -> HOST_REG$VALUES.HQ.QL = VALUE;
       68     5616    2          CASE( %X_RTN );
       69     5617    2             S_D.UREG$ -> HOST_REG$VALUES.X(DITEM.SP.VS.SZ) = VALUE;
PL6.E3A0      #001=DDK$PUTSPEC File=DDK$PUTSPEC.:E05TSI                          TUE 07/29/97 14:04 Page:3
       70     5618    2          CASE( %IND_RTN );
       71     5619    2             IF D_XDELTA
       72     5620    2             THEN S_D.USS$ -> B$SS.IR = BINBIT(VALUE, 18);
       73     5621    3             ELSE DO;
       74     5622    3                  S_D.DRTN$ -> FPT$$DRTN.V.IR# = BINBIT(VALUE,18);
       75     5623    3                  S_D.DRTN$ -> FPT$$DRTN.V.SETIR# = '1'B;
       76     5624    3                END;
       77     5625    2          CASE( %IC_RTN );
       78     5626    2             S_D.SAVEIC = VALUE;
       79     5627    2             CALL DDS$ES_INQ( VALUE );     /* Ignore altret */
       80     5628    2             CALL DDS$SET_Q2C;
       81     5629    2             S_D.FAULTCMD$ = ADDR(NIL);
       82     5630    2          CASE( %WSR_RTN );
       83     5631    2             IF NOT D_XDELTA THEN GOTO NOTXDELTA;
       84     5632    2             WSR(DITEM.SP.VS.SZ) = VALUE;
       85     5633    2          CASE( %WSQ_RTN );
       86     5634    2             IF NOT D_XDELTA
       87     5635    3             THEN DO;
       88     5636    3   NOTXDELTA:
       89     5637    3                  S_D.ERROR = 111; /* E@XDONLYSYM */
       90     5638    3                  CALL DDE$ERROR;
       91     5639    3                  RETURN;
       92     5640    3                END;
       93     5641    2             PINCRW(MIS$, DITEM.SP.VS.SZ) -> UBIN36 = VALUE;
       94     5642    2          CASE( %FMASK_RTN );
       95     5643    2             S_D.FIND.MASK_F = VALUE;
       96     5644    2          CASE( %FRANGE_RTN );
       97     5645    2             S_D.FIND.NUM = VALUE;
       98     5646    2          CASE( %AR_RTN );
       99     5647    2             TEMP = DITEM.SP.VS.SZ;
      100     5648    2             VALUE = BITBIN( ( BINBIT(VALUE,36) & '777777770000'O )
      101     5649    2               | ( ADDR(S_D.USS$ -> B$EXCFR.PRS(TEMP)) -> BIT36 & '000000007777'O ));
      102     5650    2   MODPRS:   ;
      103     5651    2             IF D_XDELTA
      104     5652    2             THEN ADDR(S_D.USS$ -> B$EXCFR.PRS(TEMP)) -> BIT36 = BINBIT(VALUE, 36);
      105     5653    3             ELSE DO;
      106     5654    3                  FPT$DRTN = FPT_DRTN;
PL6.E3A0      #001=DDK$PUTSPEC File=DDK$PUTSPEC.:E05TSI                          TUE 07/29/97 14:04 Page:4
      107     5655    3                  FPT$DRTN.V_ = VECTOR(FPT$DRTN.V);
      108     5656    3                  FPT$DRTN.DRS_ = VECTOR(PRS);
      109     5657    3                  PRSCHAR = ADDR(S_D.USS$ -> B$EXCFR.PRS) -> CHAR32;
      110     5658    3                  PRS(TEMP) = VALUE;
      111     5659    3                  CALL M$DRTN(FPT$DRTN) ALTRET(BADPNTR);
      112     5660    3                END;
      113     5661    2          CASE(%CI_RTN, %T_RTN, %S_RTN, %IV_RTN, %Z_RTN,
      114     5662    2                  %ASV_RTN, %R_RTN, %M_RTN);
      115     5663    2             S_D.ERROR = 304;     /* E@SYMNOTHOST */
      116     5664    2             CALL DDE$ERROR;
      117     5665    2             RETURN;
      118     5666    2          CASE( ELSE );
      119     5667    2             S_D.ERROR = 10; /* E@CANT_LET_SPSYM */
      120     5668    2             CALL DDE$ERROR;
      121     5669    2          END;                             /* DO CASE( DITEM.SP.VS.ID ) */
      122     5670    1        RETURN;
      123     5671    1   BADPNTR:;
      124     5672    1        S_D.ERROR = 104;              /* E@BADPTR */
      125     5673    1        CALL DDE$ERROR;
      126     5674    1        RETURN;
      127     5675    1   END DDK$PUTSPEC;

PL6.E3A0      #001=DDK$PUTSPEC File=DDK$PUTSPEC.:E05TSI                          TUE 07/29/97 14:04 Page:5
--  Include file information  --

   CP_6.:E05TOU  cannot be made into a system file and is referenced.
   B$SS.:E05TOU  cannot be made into a system file and is referenced.
   DD$BASED.:E05TOU  is referenced.
   DD_SD_M.:E05TOU  is referenced.
   XUH_MACRO_C.:E05TOU  is referenced.
   DD_ERR_C.:E05TOU  is referenced.
   DD_SRTN_C.:E05TOU  is referenced.
   DD_ACODE_C.:E05TOU  is referenced.
   DD_ICODE_C.:E05TOU  is referenced.
   DD$DITEM.:E05TOU  cannot be made into a system file and is referenced.
   B$JIT_C.:E05TOU  was found in the system file and is never referenced.
   CP_6_C.:E05TOU  was found in the system file and is referenced.
      No diagnostics issued in procedure DDK$PUTSPEC.

   Procedure DDK$PUTSPEC requires 263 words for executable code.
   Procedure DDK$PUTSPEC requires 36 words of local(AUTO) storage.

    No errors detected in file DDK$PUTSPEC.:E05TSI    .

PL6.E3A0      #001=DDK$PUTSPEC File=DDK$PUTSPEC.:E05TSI                          TUE 07/29/97 14:04 Page:6

 Object Unit name= DDK$PUTSPEC                                File name= DDK$PUTSPEC.:E05TOU
 UTS= JUL 29 '97 14:04:24.12 TUE                              Compiler= PL-6/E31         Sev=      00
 SharedLib= :SHARED_SYSTEM                                    Alt SharedLib=


    ****  Control sections  ****

 Sect   Type Bound  Init  Size OctSiz  Section name(segment info)
    0   DCB   even  none     0      0  M$UC
    1  RoData even  UTS     16     20  DDK$PUTSPEC
    2   Proc  even  none   263    407  DDK$PUTSPEC
    3  RoData even  none     2      2  DDK$PUTSPEC

    ****  Entry defs  ****

                              Check   Calling
                             calling  sequence
  Sect OctLoc Primary Altret sequence   type   Parms  Name
     2      0   yes            yes      Std        2  DDK$PUTSPEC

  ****  Entry refs  ****

         Check        Calling
        calling       sequence
Altret sequence SRef   type   Args  Name
 yes     yes           Std       1 DDS$ES_INQ
 yes     yes           Std       0 DDS$SET_Q2C
         yes           Std       0 DDE$ERROR
                       nStd      0 X66_AUTO_2
                       Std       0 B_CONSPOOL_D
                       nStd      0 X66_ARET
PL6.E3A0      #001=DDK$PUTSPEC File=DDK$PUTSPEC.:E05TSI                          TUE 07/29/97 14:04 Page:7

  ****  Data refs  ****

  Flags:  r = read only, s = secondary
Flgs Name                             Flgs Name                             Flgs Name
     WSR                                   MIS$                                  D_XDELTA
r    S_D$                                  M$UC                                  B_VECTNIL

  ****  Segment refs  ****

  Flags:  r = read only, s = secondary
Flgs Name                             Flgs Name                             Flgs Name
     NULLSID                               ISSID
PL6.E3A0      #001=DDK$PUTSPEC File=DDK$PUTSPEC.:E05TSI                          TUE 07/29/97 14:04 Page:8


        1        1        /*M*  DDK$PUTSPEC - stores VALUE into special symbols */
        2        2        /*T***********************************************************/
        3        3        /*T*                                                         */
        4        4        /*T* Copyright (c) Bull HN Information Systems Inc., 1997    */
        5        5        /*T*                                                         */
        6        6        /*T***********************************************************/
        7        7        /*X* DMR,PLM=5,IND=5,CSU=3,EXM=0,ECU=3,MOC,DCI=5,CRT=5 */
        8        8        %SET LISTSUB='1'B;
        9        9        DDK$PUTSPEC: PROC(DITEM, VALUE);

      9  2 000000   000000 700200 xent  DDK$PUTSPEC  TSX0  ! X66_AUTO_2
         2 000001   000044 000002                    ZERO    36,2

       10       10        /* Parms */
       11       11        %INCLUDE DD$DITEM;
       12+     114             %LIST;
       13+     115    1        DCL SDD$ PTR;
       14+     116    1        DCL ZITEM$ PTR;
       15+     117    1        DCL SDD_L6$ PTR;
       16+     118    1        DCL ZITEM_L6$ PTR;
       12      692            %DITEM (STCLASS=PARAM);
       13      772    1   DCL TEMP UBIN;
       14      773    1   DCL VALUE SBIN;
       15      774    1   DCL CVALUE REDEF VALUE CHAR(4);
       16      775        /* Locals */
       17      776    1   DCL SZ UBIN;
       18      777        /* Misc */
       19      778    1   DCL WSR(0:7) UBIN(9) UNAL SYMREF;
       20      779    1   DCL PRS(0:7) UBIN;
       21      780    1   DCL PRSCHAR REDEF PRS CHAR(32);
       22      781    1   DCL UBIN36 UBIN BASED;
       23      782    1   DCL BIT36 BIT(36) BASED ALIGNED;
       24      783    1   DCL CHAR4 CHAR(4) BASED;
       25      784    1   DCL CHAR32 CHAR(32) BASED;
       26      785    1   DCL TEXTR CHAR(SZ) BASED;
       27      786    1   DCL EREG UBIN(8) BASED UNAL;
PL6.E3A0      #001=DDK$PUTSPEC File=DDK$PUTSPEC.:E05TSI                          TUE 07/29/97 14:04 Page:9
       28      787    1   DCL UIS$ PTR SYMREF;
       29      788    1   DCL MIS$ PTR SYMREF;
       30      789    1   DCL D_XDELTA BIT(1) SYMREF;
       31      790        %INCLUDE DD_ERR_C;
       32     1187        %INCLUDE XUH_MACRO_C;
       33     1271        %INCLUDE DD_SD_M;
       34     2607        %S_D;
       35     3925        %INCLUDE DD$BASED;
       36     5228        %HOST_REG$VALUES;
       37     5241        %INCLUDE B$SS;
       38     5420        %INCLUDE CP_6;
       39     5501        %FPT_DRTN(STCLASS=CONSTANT,MRGSS=YES);
       40     5525        %FPT_DRTN(FPTN=FPT$DRTN,STCLASS=AUTO);
       41     5549        %FPT_DRTN(FPTN=FPT$$DRTN, STCLASS=BASED);
       42     5573        %B$EXCFR;
       43     5591        /* External routines */
       44     5592    1   DCL DDE$ERROR ENTRY;
       45     5593    1   DCL DDS$ES_INQ ENTRY(1) ALTRET;
       46     5594    1   DCL DDS$SET_Q2C ENTRY ALTRET;
       47     5595        /**/
       48     5596    1        IF DITEM.ADDR_TYPE = %DESC_ACODE

   5596  2 000002   200003 470500                    LDP0    @DITEM,,AUTO
         2 000003   000000 236100                    LDQ     0,,PR0
         2 000004   777000 376007                    ANQ     -512,DL
         2 000005   100000 116007                    CMPQ    32768,DL
         2 000006   000016 601000 2                  TNZ     s:5601

       49     5597    2        THEN DO;                           /* Asssume $PRn */

       50     5598    2             TEMP = ( DITEM.SP.VD.DISP - 24 ) / 2;

   5598  2 000007   000001 236100                    LDQ     1,,PR0
         2 000010   000014 772000                    QRL     12
         2 000011   000777 376007                    ANQ     511,DL
         2 000012   000030 136007                    SBLQ    24,DL
         2 000013   000002 506007                    DIV     2,DL
PL6.E3A0      #001=DDK$PUTSPEC File=DDK$PUTSPEC.:E05TSI                          TUE 07/29/97 14:04 Page:10
         2 000014   200011 756100                    STQ     TEMP,,AUTO

       51     5599    2             GOTO MODPRS;

   5599  2 000015   000316 710000 2                  TRA     MODPRS

       52     5600    2           END;
       53     5601    2        DO CASE( DITEM.SP.VS.ID );

   5601  2 000016   000001 236100                    LDQ     1,,PR0
         2 000017   000033 772000                    QRL     27
         2 000020   000005 136007                    SBLQ    5,DL
         2 000021   000053 116007                    CMPQ    43,DL
         2 000022   000024 602006 2                  TNC     s:5601+6,QL
         2 000023   000371 710000 2                  TRA     s:5667
         2 000024   000165 710000 2                  TRA     s:5619
         2 000025   000371 710000 2                  TRA     s:5667
         2 000026   000371 710000 2                  TRA     s:5667
         2 000027   000371 710000 2                  TRA     s:5667
         2 000030   000371 710000 2                  TRA     s:5667
         2 000031   000362 710000 2                  TRA     s:5663
         2 000032   000362 710000 2                  TRA     s:5663
         2 000033   000362 710000 2                  TRA     s:5663
         2 000034   000371 710000 2                  TRA     s:5667
         2 000035   000214 710000 2                  TRA     s:5626
         2 000036   000077 710000 2                  TRA     s:5603
         2 000037   000106 710000 2                  TRA     s:5605
         2 000040   000114 710000 2                  TRA     s:5607
         2 000041   000122 710000 2                  TRA     s:5609
         2 000042   000130 710000 2                  TRA     s:5611
         2 000043   000136 710000 2                  TRA     s:5613
         2 000044   000144 710000 2                  TRA     s:5615
         2 000045   000371 710000 2                  TRA     s:5667
         2 000046   000272 710000 2                  TRA     s:5645
         2 000047   000265 710000 2                  TRA     s:5643
         2 000050   000152 710000 2                  TRA     s:5617
         2 000051   000233 710000 2                  TRA     s:5631
PL6.E3A0      #001=DDK$PUTSPEC File=DDK$PUTSPEC.:E05TSI                          TUE 07/29/97 14:04 Page:11
         2 000052   000245 710000 2                  TRA     s:5634
         2 000053   000371 710000 2                  TRA     s:5667
         2 000054   000277 710000 2                  TRA     s:5647
         2 000055   000371 710000 2                  TRA     s:5667
         2 000056   000371 710000 2                  TRA     s:5667
         2 000057   000371 710000 2                  TRA     s:5667
         2 000060   000371 710000 2                  TRA     s:5667
         2 000061   000371 710000 2                  TRA     s:5667
         2 000062   000371 710000 2                  TRA     s:5667
         2 000063   000371 710000 2                  TRA     s:5667
         2 000064   000371 710000 2                  TRA     s:5667
         2 000065   000371 710000 2                  TRA     s:5667
         2 000066   000371 710000 2                  TRA     s:5667
         2 000067   000371 710000 2                  TRA     s:5667
         2 000070   000371 710000 2                  TRA     s:5667
         2 000071   000371 710000 2                  TRA     s:5667
         2 000072   000362 710000 2                  TRA     s:5663
         2 000073   000362 710000 2                  TRA     s:5663
         2 000074   000362 710000 2                  TRA     s:5663
         2 000075   000362 710000 2                  TRA     s:5663
         2 000076   000362 710000 2                  TRA     s:5663

       54     5602    2          CASE( %E_RTN );

       55     5603    2             S_D.UREG$ -> HOST_REG$VALUES.E = VALUE;

   5603  2 000077   000000 471400 xsym               LDP1    S_D$
         2 000100   100045 473500                    LDP3    37,,PR1
         2 000101   200004 474500                    LDP4    @VALUE,,AUTO
         2 000102   400000 235100                    LDA     0,,PR4
         2 000103   000034 735000                    ALS     28
         2 000104   300006 755100                    STA     6,,PR3
         2 000105   000377 710000 2                  TRA     s:5670

       56     5604    2          CASE( %A_RTN );

       57     5605    2             S_D.UREG$ -> HOST_REG$VALUES.A = VALUE;
PL6.E3A0      #001=DDK$PUTSPEC File=DDK$PUTSPEC.:E05TSI                          TUE 07/29/97 14:04 Page:12

   5605  2 000106   000000 471400 xsym               LDP1    S_D$
         2 000107   100045 473500                    LDP3    37,,PR1
         2 000110   200004 474500                    LDP4    @VALUE,,AUTO
         2 000111   400000 235100                    LDA     0,,PR4
         2 000112   300004 755100                    STA     4,,PR3
         2 000113   000377 710000 2                  TRA     s:5670

       58     5606    2          CASE( %Q_RTN );

       59     5607    2             S_D.UREG$ -> HOST_REG$VALUES.Q = VALUE;

   5607  2 000114   000000 471400 xsym               LDP1    S_D$
         2 000115   100045 473500                    LDP3    37,,PR1
         2 000116   200004 474500                    LDP4    @VALUE,,AUTO
         2 000117   400000 235100                    LDA     0,,PR4
         2 000120   300005 755100                    STA     5,,PR3
         2 000121   000377 710000 2                  TRA     s:5670

       60     5608    2          CASE( %AU_RTN );

       61     5609    2             S_D.UREG$ -> HOST_REG$VALUES.HA.AU = VALUE;

   5609  2 000122   000000 471400 xsym               LDP1    S_D$
         2 000123   100045 473500                    LDP3    37,,PR1
         2 000124   200004 474500                    LDP4    @VALUE,,AUTO
         2 000125   400000 720100                    LXL0    0,,PR4
         2 000126   300004 740100                    STX0    4,,PR3
         2 000127   000377 710000 2                  TRA     s:5670

       62     5610    2          CASE( %AL_RTN );

       63     5611    2             S_D.UREG$ -> HOST_REG$VALUES.HA.AL = VALUE;

   5611  2 000130   000000 471400 xsym               LDP1    S_D$
         2 000131   100045 473500                    LDP3    37,,PR1
         2 000132   200004 474500                    LDP4    @VALUE,,AUTO
PL6.E3A0      #001=DDK$PUTSPEC File=DDK$PUTSPEC.:E05TSI                          TUE 07/29/97 14:04 Page:13
         2 000133   400000 720100                    LXL0    0,,PR4
         2 000134   300004 440100                    SXL0    4,,PR3
         2 000135   000377 710000 2                  TRA     s:5670

       64     5612    2          CASE( %QU_RTN );

       65     5613    2             S_D.UREG$ -> HOST_REG$VALUES.HQ.QU = VALUE;

   5613  2 000136   000000 471400 xsym               LDP1    S_D$
         2 000137   100045 473500                    LDP3    37,,PR1
         2 000140   200004 474500                    LDP4    @VALUE,,AUTO
         2 000141   400000 720100                    LXL0    0,,PR4
         2 000142   300005 740100                    STX0    5,,PR3
         2 000143   000377 710000 2                  TRA     s:5670

       66     5614    2          CASE( %QL_RTN );

       67     5615    2             S_D.UREG$ -> HOST_REG$VALUES.HQ.QL = VALUE;

   5615  2 000144   000000 471400 xsym               LDP1    S_D$
         2 000145   100045 473500                    LDP3    37,,PR1
         2 000146   200004 474500                    LDP4    @VALUE,,AUTO
         2 000147   400000 720100                    LXL0    0,,PR4
         2 000150   300005 440100                    SXL0    5,,PR3
         2 000151   000377 710000 2                  TRA     s:5670

       68     5616    2          CASE( %X_RTN );

       69     5617    2             S_D.UREG$ -> HOST_REG$VALUES.X(DITEM.SP.VS.SZ) = VALUE;

   5617  2 000152   000000 471400 xsym               LDP1    S_D$
         2 000153   100045 473500                    LDP3    37,,PR1
         2 000154   000001 236100                    LDQ     1,,PR0
         2 000155   000022 772000                    QRL     18
         2 000156   000777 376007                    ANQ     511,DL
         2 000157   000001 736000                    QLS     1
         2 000160   200004 474500                    LDP4    @VALUE,,AUTO
PL6.E3A0      #001=DDK$PUTSPEC File=DDK$PUTSPEC.:E05TSI                          TUE 07/29/97 14:04 Page:14
         2 000161   000106 101500                    MRL     fill='000'O
         2 000162   400000 000004                    ADSC9   0,,PR4                   cn=0,n=4
         2 000163   300000 000002                    ADSC9   0,Q,PR3                  cn=0,n=2
         2 000164   000377 710000 2                  TRA     s:5670

       70     5618    2          CASE( %IND_RTN );

       71     5619    2             IF D_XDELTA

   5619  2 000165   000000 234000 xsym               SZN     D_XDELTA
         2 000166   000200 605000 2                  TPL     s:5622

       72     5620    2             THEN S_D.USS$ -> B$SS.IR = BINBIT(VALUE, 18);

   5620  2 000167   000000 471400 xsym               LDP1    S_D$
         2 000170   100005 473500                    LDP3    5,,PR1
         2 000171   200004 474500                    LDP4    @VALUE,,AUTO
         2 000172   400000 236100                    LDQ     0,,PR4
         2 000173   000022 736000                    QLS     18
         2 000174   000022 772000                    QRL     18
         2 000175   000000 620006                    EAX0    0,QL
         2 000176   300004 440100                    SXL0    4,,PR3
         2 000177   000377 710000 2                  TRA     s:5670

       73     5621    3             ELSE DO;

       74     5622    3                  S_D.DRTN$ -> FPT$$DRTN.V.IR# = BINBIT(VALUE,18);

   5622  2 000200   000000 471400 xsym               LDP1    S_D$
         2 000201   104704 473500                    LDP3    2500,,PR1
         2 000202   200004 474500                    LDP4    @VALUE,,AUTO
         2 000203   400000 236100                    LDQ     0,,PR4
         2 000204   000022 736000                    QLS     18
         2 000205   000022 772000                    QRL     18
         2 000206   000000 620006                    EAX0    0,QL
         2 000207   300012 440100                    SXL0    10,,PR3

PL6.E3A0      #001=DDK$PUTSPEC File=DDK$PUTSPEC.:E05TSI                          TUE 07/29/97 14:04 Page:15
       75     5623    3                  S_D.DRTN$ -> FPT$$DRTN.V.SETIR# = '1'B;

   5623  2 000210   104704 473500                    LDP3    2500,,PR1
         2 000211   400000 236003                    LDQ     -131072,DU
         2 000212   300013 256100                    ORSQ    11,,PR3

       76     5624    3                END;

   5624  2 000213   000377 710000 2                  TRA     s:5670

       77     5625    2          CASE( %IC_RTN );

       78     5626    2             S_D.SAVEIC = VALUE;

   5626  2 000214   200004 471500                    LDP1    @VALUE,,AUTO
         2 000215   100000 235100                    LDA     0,,PR1
         2 000216   000000 473400 xsym               LDP3    S_D$
         2 000217   300002 755100                    STA     2,,PR3

       79     5627    2             CALL DDS$ES_INQ( VALUE );     /* Ignore altret */

   5627  2 000220   200004 630500                    EPPR0   @VALUE,,AUTO
         2 000221   000017 631400 xsym               EPPR1   B_VECTNIL+15
         2 000222   000000 701000 xent               TSX1    DDS$ES_INQ
         2 000223   000000 011000                    NOP     0

       80     5628    2             CALL DDS$SET_Q2C;

   5628  2 000224   000002 631400 xsym               EPPR1   B_VECTNIL+2
         2 000225   000000 701000 xent               TSX1    DDS$SET_Q2C
         2 000226   000000 011000                    NOP     0

       81     5629    2             S_D.FAULTCMD$ = ADDR(NIL);

   5629  2 000227   000001 236000 xsym               LDQ     B_VECTNIL+1
         2 000230   000000 470400 xsym               LDP0    S_D$
         2 000231   000004 756100                    STQ     4,,PR0
PL6.E3A0      #001=DDK$PUTSPEC File=DDK$PUTSPEC.:E05TSI                          TUE 07/29/97 14:04 Page:16
         2 000232   000377 710000 2                  TRA     s:5670

       82     5630    2          CASE( %WSR_RTN );

       83     5631    2             IF NOT D_XDELTA THEN GOTO NOTXDELTA;

   5631  2 000233   000000 234000 xsym               SZN     D_XDELTA
         2 000234   000247 605000 2                  TPL     NOTXDELTA

       84     5632    2             WSR(DITEM.SP.VS.SZ) = VALUE;

   5632  2 000235   000001 236100                    LDQ     1,,PR0
         2 000236   000022 772000                    QRL     18
         2 000237   000777 376007                    ANQ     511,DL
         2 000240   200004 471500                    LDP1    @VALUE,,AUTO
         2 000241   000006 101500                    MRL     fill='000'O
         2 000242   100000 000004                    ADSC9   0,,PR1                   cn=0,n=4
         2 000243   000000 000001 xsym               ADSC9   WSR,Q                    cn=0,n=1
         2 000244   000377 710000 2                  TRA     s:5670

       85     5633    2          CASE( %WSQ_RTN );

       86     5634    2             IF NOT D_XDELTA

   5634  2 000245   000000 234000 xsym               SZN     D_XDELTA
         2 000246   000256 604000 2                  TMI     s:5641

       87     5635    3             THEN DO;

       88     5636    3   NOTXDELTA:
       89     5637    3                  S_D.ERROR = 111; /* E@XDONLYSYM */

   5637  2 000247   000157 235007       NOTXDELTA    LDA     111,DL
         2 000250   000000 471400 xsym               LDP1    S_D$
         2 000251   100013 755100                    STA     11,,PR1

       90     5638    3                  CALL DDE$ERROR;
PL6.E3A0      #001=DDK$PUTSPEC File=DDK$PUTSPEC.:E05TSI                          TUE 07/29/97 14:04 Page:17

   5638  2 000252   000002 631400 xsym               EPPR1   B_VECTNIL+2
         2 000253   000000 701000 xent               TSX1    DDE$ERROR
         2 000254   000000 011000                    NOP     0

       91     5639    3                  RETURN;

   5639  2 000255   000000 702200 xent               TSX2  ! X66_ARET

       92     5640    3                END;
       93     5641    2             PINCRW(MIS$, DITEM.SP.VS.SZ) -> UBIN36 = VALUE;

   5641  2 000256   000001 220100                    LDX0    1,,PR0
         2 000257   000777 360003                    ANX0    511,DU
         2 000260   200004 471500                    LDP1    @VALUE,,AUTO
         2 000261   100000 235100                    LDA     0,,PR1
         2 000262   000000 473400 xsym               LDP3    MIS$
         2 000263   300000 755110                    STA     0,X0,PR3
         2 000264   000377 710000 2                  TRA     s:5670

       94     5642    2          CASE( %FMASK_RTN );

       95     5643    2             S_D.FIND.MASK_F = VALUE;

   5643  2 000265   200004 471500                    LDP1    @VALUE,,AUTO
         2 000266   000000 473400 xsym               LDP3    S_D$
         2 000267   100000 235100                    LDA     0,,PR1
         2 000270   305211 755100                    STA     2697,,PR3
         2 000271   000377 710000 2                  TRA     s:5670

       96     5644    2          CASE( %FRANGE_RTN );

       97     5645    2             S_D.FIND.NUM = VALUE;

   5645  2 000272   200004 471500                    LDP1    @VALUE,,AUTO
         2 000273   100000 235100                    LDA     0,,PR1
         2 000274   000000 473400 xsym               LDP3    S_D$
PL6.E3A0      #001=DDK$PUTSPEC File=DDK$PUTSPEC.:E05TSI                          TUE 07/29/97 14:04 Page:18
         2 000275   305207 755100                    STA     2695,,PR3
         2 000276   000377 710000 2                  TRA     s:5670

       98     5646    2          CASE( %AR_RTN );

       99     5647    2             TEMP = DITEM.SP.VS.SZ;

   5647  2 000277   000001 236100                    LDQ     1,,PR0
         2 000300   000022 772000                    QRL     18
         2 000301   000777 376007                    ANQ     511,DL
         2 000302   200011 756100                    STQ     TEMP,,AUTO

      100     5648    2             VALUE = BITBIN( ( BINBIT(VALUE,36) & '777777770000'O )

   5648  2 000303   200004 471500                    LDP1    @VALUE,,AUTO
         2 000304   100000 236100                    LDQ     0,,PR1
         2 000305   000016 376000 1                  ANQ     FPT_DRTN+14
         2 000306   000000 473400 xsym               LDP3    S_D$
         2 000307   300005 474500                    LDP4    5,,PR3
         2 000310   200011 720100                    LXL0    TEMP,,AUTO
         2 000311   200042 756100                    STQ     FPT$DRTN+14,,AUTO
         2 000312   400020 236110                    LDQ     16,X0,PR4
         2 000313   000017 376000 1                  ANQ     FPT_DRTN+15
         2 000314   200042 276100                    ORQ     FPT$DRTN+14,,AUTO
         2 000315   100000 756100                    STQ     0,,PR1

   5648  2 000316                       MODPRS       null
      101     5649    2               | ( ADDR(S_D.USS$ -> B$EXCFR.PRS(TEMP)) -> BIT36 & '000000007777'O ));
      102     5650    2   MODPRS:   ;
      103     5651    2             IF D_XDELTA

   5651  2 000316   000000 234000 xsym               SZN     D_XDELTA
         2 000317   000327 605000 2                  TPL     s:5654

      104     5652    2             THEN ADDR(S_D.USS$ -> B$EXCFR.PRS(TEMP)) -> BIT36 = BINBIT(VALUE, 36);

   5652  2 000320   000000 471400 xsym               LDP1    S_D$
PL6.E3A0      #001=DDK$PUTSPEC File=DDK$PUTSPEC.:E05TSI                          TUE 07/29/97 14:04 Page:19
         2 000321   100005 473500                    LDP3    5,,PR1
         2 000322   200004 474500                    LDP4    @VALUE,,AUTO
         2 000323   400000 236100                    LDQ     0,,PR4
         2 000324   200011 720100                    LXL0    TEMP,,AUTO
         2 000325   300020 756110                    STQ     16,X0,PR3
         2 000326   000377 710000 2                  TRA     s:5670

      105     5653    3             ELSE DO;

      106     5654    3                  FPT$DRTN = FPT_DRTN;

   5654  2 000327   000100 100400                    MLR     fill='000'O
         2 000330   000000 000070 1                  ADSC9   FPT_DRTN                 cn=0,n=56
         2 000331   200024 000070                    ADSC9   FPT$DRTN,,AUTO           cn=0,n=56

      107     5655    3                  FPT$DRTN.V_ = VECTOR(FPT$DRTN.V);

   5655  2 000332   000000 235000 3                  LDA     0
         2 000333   200042 452500                    STP2    FPT$DRTN+14,,AUTO
         2 000334   200042 236100                    LDQ     FPT$DRTN+14,,AUTO
         2 000335   000036 036003                    ADLQ    30,DU
         2 000336   200030 757100                    STAQ    FPT$DRTN+4,,AUTO

      108     5656    3                  FPT$DRTN.DRS_ = VECTOR(PRS);

   5656  2 000337   000001 235000 3                  LDA     1
         2 000340   200042 452500                    STP2    FPT$DRTN+14,,AUTO
         2 000341   200042 236100                    LDQ     FPT$DRTN+14,,AUTO
         2 000342   000013 036003                    ADLQ    11,DU
         2 000343   200026 757100                    STAQ    FPT$DRTN+2,,AUTO

      109     5657    3                  PRSCHAR = ADDR(S_D.USS$ -> B$EXCFR.PRS) -> CHAR32;

   5657  2 000344   000000 471400 xsym               LDP1    S_D$
         2 000345   100005 473500                    LDP3    5,,PR1
         2 000346   040100 100500                    MLR     fill='040'O
         2 000347   300020 000040                    ADSC9   16,,PR3                  cn=0,n=32
PL6.E3A0      #001=DDK$PUTSPEC File=DDK$PUTSPEC.:E05TSI                          TUE 07/29/97 14:04 Page:20
         2 000350   200013 000040                    ADSC9   PRS,,AUTO                cn=0,n=32

      110     5658    3                  PRS(TEMP) = VALUE;

   5658  2 000351   200004 473500                    LDP3    @VALUE,,AUTO
         2 000352   300000 235100                    LDA     0,,PR3
         2 000353   200011 720100                    LXL0    TEMP,,AUTO
         2 000354   200013 755110                    STA     PRS,X0,AUTO

      111     5659    3                  CALL M$DRTN(FPT$DRTN) ALTRET(BADPNTR);

   5659  2 000355   200024 630500                    EPPR0   FPT$DRTN,,AUTO
         2 000356   410017 713400                    CLIMB   alt,+4111
         2 000357   402000 401760                    pmme    nvectors=5
         2 000360   000400 702000 2                  TSX2    BADPNTR

      112     5660    3                END;

   5660  2 000361   000377 710000 2                  TRA     s:5670

      113     5661    2          CASE(%CI_RTN, %T_RTN, %S_RTN, %IV_RTN, %Z_RTN,

      114     5662    2                  %ASV_RTN, %R_RTN, %M_RTN);
      115     5663    2             S_D.ERROR = 304;     /* E@SYMNOTHOST */

   5663  2 000362   000460 235007                    LDA     304,DL
         2 000363   000000 471400 xsym               LDP1    S_D$
         2 000364   100013 755100                    STA     11,,PR1

      116     5664    2             CALL DDE$ERROR;

   5664  2 000365   000002 631400 xsym               EPPR1   B_VECTNIL+2
         2 000366   000000 701000 xent               TSX1    DDE$ERROR
         2 000367   000000 011000                    NOP     0

      117     5665    2             RETURN;

PL6.E3A0      #001=DDK$PUTSPEC File=DDK$PUTSPEC.:E05TSI                          TUE 07/29/97 14:04 Page:21
   5665  2 000370   000000 702200 xent               TSX2  ! X66_ARET

      118     5666    2          CASE( ELSE );

      119     5667    2             S_D.ERROR = 10; /* E@CANT_LET_SPSYM */

   5667  2 000371   000012 235007                    LDA     10,DL
         2 000372   000000 471400 xsym               LDP1    S_D$
         2 000373   100013 755100                    STA     11,,PR1

      120     5668    2             CALL DDE$ERROR;

   5668  2 000374   000002 631400 xsym               EPPR1   B_VECTNIL+2
         2 000375   000000 701000 xent               TSX1    DDE$ERROR
         2 000376   000000 011000                    NOP     0

      121     5669    2          END;                             /* DO CASE( DITEM.SP.VS.ID ) */

      122     5670    1        RETURN;

   5670  2 000377   000000 702200 xent               TSX2  ! X66_ARET

   5668  2 000400                       BADPNTR      null
      123     5671    1   BADPNTR:;
      124     5672    1        S_D.ERROR = 104;              /* E@BADPTR */

   5672  2 000400   000150 235007                    LDA     104,DL
         2 000401   000000 470400 xsym               LDP0    S_D$
         2 000402   000013 755100                    STA     11,,PR0

      125     5673    1        CALL DDE$ERROR;

   5673  2 000403   000002 631400 xsym               EPPR1   B_VECTNIL+2
         2 000404   000000 701000 xent               TSX1    DDE$ERROR
         2 000405   000000 011000                    NOP     0

      126     5674    1        RETURN;
PL6.E3A0      #001=DDK$PUTSPEC File=DDK$PUTSPEC.:E05TSI                          TUE 07/29/97 14:04 Page:22

   5674  2 000406   000000 702200 xent               TSX2  ! X66_ARET

FPT_DRTN
 Sect OctLoc
   1     000   000000 177640   000000 006014   000000 177640   000000 006014    ................
   1     004   000003 777640   000012 006000   000000 177640   000000 006014    ................
   1     010   000000 177640   000000 006014   000000 000000   000400 000000    ................
   1     014   000000 000000   000000 000000                                    ........

(unnamed)
 Sect OctLoc
   1     016   777777 770000   000000 007777                                    ........

(unnamed)
 Sect OctLoc
   3     000   000003 777640   000007 777640                                    ........
      127     5675    1   END DDK$PUTSPEC;

PL6.E3A0      #001=DDK$PUTSPEC File=DDK$PUTSPEC.:E05TSI                          TUE 07/29/97 14:04 Page:23
--  Include file information  --

   CP_6.:E05TOU  cannot be made into a system file and is referenced.
   B$SS.:E05TOU  cannot be made into a system file and is referenced.
   DD$BASED.:E05TOU  is referenced.
   DD_SD_M.:E05TOU  is referenced.
   XUH_MACRO_C.:E05TOU  is referenced.
   DD_ERR_C.:E05TOU  is referenced.
   DD_SRTN_C.:E05TOU  is referenced.
   DD_ACODE_C.:E05TOU  is referenced.
   DD_ICODE_C.:E05TOU  is referenced.
   DD$DITEM.:E05TOU  cannot be made into a system file and is referenced.
   B$JIT_C.:E05TOU  was found in the system file and is never referenced.
   CP_6_C.:E05TOU  was found in the system file and is referenced.
      No diagnostics issued in procedure DDK$PUTSPEC.

   Procedure DDK$PUTSPEC requires 263 words for executable code.
   Procedure DDK$PUTSPEC requires 36 words of local(AUTO) storage.

    No errors detected in file DDK$PUTSPEC.:E05TSI    .
PL6.E3A0      #001=DDK$PUTSPEC File=DDK$PUTSPEC.:E05TSI                          TUE 07/29/97 14:04 Page:24
          *** CROSS REFERENCE LISTING ***
**     DENOTES     IDENTIFIER DEFINITION
<<                 IDENTIFIER'S VALUE SET
>>                 IDENTIFIER'S VALUE USED
<>                 IDENTIFIER SET AND/OR USED
--                 IDENTIFIER REFERENCED
PL6.E3A0      #001=DDK$PUTSPEC File=DDK$PUTSPEC.:E05TSI                          TUE 07/29/97 14:04 Page:25
          MINI XREF LISTING

B$EXCFR.ASL
      5574**DCL      5574--REDEF
B$EXCFR.ERR.ERR#
      5588**DCL      5588--REDEF
B$EXCFR.EVID
      5587**DCL      5587--REDEF    5588--REDEF
B$EXCFR.IR
      5575**DCL      5575--REDEF
B$EXCFR.PREVSZ
      5574**DCL      5574--REDEF
B$EXCFR.PRS
      5585**DCL      5648--ASSIGN   5652--ASSIGN   5657--ASSIGN
B$EXCFR.SUBC
      5586**DCL      5586--REDEF    5587--REDEF    5587--REDEF
B$SS.IR
      5261**DCL      5620<<ASSIGN
B$SS.RVA
      5293**DCL      5294--REDEF
BADPNTR
      5668**LABEL    5659--CALLALT
BIT36
       782**DCL      5648>>ASSIGN   5652<<ASSIGN
CHAR32
       784**DCL      5657>>ASSIGN
DDE$ERROR
      5592**DCL-ENT  5638--CALL     5664--CALL     5668--CALL     5673--CALL
DDS$ES_INQ
      5593**DCL-ENT  5627--CALL
DDS$SET_Q2C
      5594**DCL-ENT  5628--CALL
DITEM
       693**DCL         9--PROC
PL6.E3A0      #001=DDK$PUTSPEC File=DDK$PUTSPEC.:E05TSI                          TUE 07/29/97 14:04 Page:26
DITEM.ADDRESS
       714**DCL       719--REDEF     720--REDEF     721--REDEF
DITEM.ADDR_TYPE
       709**DCL      5596>>IF
DITEM.SP.VD
       722**DCL       726--REDEF     729--REDEF
DITEM.SP.VD.DISP
       725**DCL      5598>>ASSIGN
DITEM.SP.VS.ID
       730**DCL      5601>>DOCASE
DITEM.SP.VS.SZ
       731**DCL      5617>>ASSIGN   5632>>ASSIGN   5641>>ASSIGN   5647>>ASSIGN
D_XDELTA
       789**DCL      5619>>IF       5631>>IF       5634>>IF       5651>>IF
FPT$$DRTN.V.IR#
      5562**DCL      5562--REDEF    5622<<ASSIGN
FPT$$DRTN.V.SETIR#
      5564**DCL      5623<<ASSIGN
FPT$DRTN
      5536**DCL      5654<<ASSIGN   5659<>CALL
FPT$DRTN.DRS_
      5536**DCL      5656<<ASSIGN
FPT$DRTN.V
      5538**DCL      5655--ASSIGN
FPT$DRTN.V.IR#
      5538**DCL      5538--REDEF
FPT$DRTN.V_
      5536**DCL      5655<<ASSIGN
FPT_DRTN
      5512**DCL      5654>>ASSIGN
FPT_DRTN.V
      5514**DCL      5513--DCLINIT
FPT_DRTN.V.IR#
      5514**DCL      5514--REDEF
HOST_REG$VALUES.A
      5231**DCL      5232--REDEF    5605<<ASSIGN
PL6.E3A0      #001=DDK$PUTSPEC File=DDK$PUTSPEC.:E05TSI                          TUE 07/29/97 14:04 Page:27
HOST_REG$VALUES.E
      5239**DCL      5603<<ASSIGN
HOST_REG$VALUES.HA.AL
      5234**DCL      5611<<ASSIGN
HOST_REG$VALUES.HA.AU
      5233**DCL      5609<<ASSIGN
HOST_REG$VALUES.HQ.QL
      5238**DCL      5615<<ASSIGN
HOST_REG$VALUES.HQ.QU
      5237**DCL      5613<<ASSIGN
HOST_REG$VALUES.Q
      5235**DCL      5236--REDEF    5607<<ASSIGN
HOST_REG$VALUES.X
      5230**DCL      5617<<ASSIGN
M$DRTN
      5487**DCL-ENT  5659--CALL
MIS$
       788**DCL      5641>>ASSIGN
MODPRS
      5648**LABEL    5599--GOTO
NOTXDELTA
      5637**LABEL    5631--GOTO
PRS
       779**DCL       780--REDEF    5656--ASSIGN   5658<<ASSIGN
PRSCHAR
       780**DCL      5657<<ASSIGN
SZ
       776**DCL       785--IMP-SIZ
S_D.CURRENT_CHANNEL
      3559**DCL      3561--REDEF
S_D.DEBUGA
      2711**DCL      2713--REDEF
S_D.DRTN$
      3164**DCL      5622>>ASSIGN   5623>>ASSIGN
S_D.EIS
      3669**DCL      3698--REDEF
PL6.E3A0      #001=DDK$PUTSPEC File=DDK$PUTSPEC.:E05TSI                          TUE 07/29/97 14:04 Page:28
S_D.ERROR
      2640**DCL      5637<<ASSIGN   5663<<ASSIGN   5667<<ASSIGN   5672<<ASSIGN
S_D.FAULTCMD$
      2626**DCL      5629<<ASSIGN
S_D.FIND.MASK_F
      3422**DCL      5643<<ASSIGN
S_D.FIND.NUM
      3420**DCL      5645<<ASSIGN
S_D.HOST_MESSAGE_BUF_REMOTE
      3602**DCL      3603--REDEF    3617--REDEF
S_D.JDE
      3216**DCL      3217--REDEF
S_D.L$.VALUE
      2769**DCL      2775--REDEF    2783--REDEF    2786--REDEF    2789--REDEF    2792--REDEF
S_D.L$.VALUE.L
      2770**DCL      2771--REDEF    2772--REDEF
S_D.L6_MESSAGE_BUF
      3623**DCL      3625--REDEF
S_D.OUTPUT
      3589**DCL      3591--REDEF
S_D.REMOTE_MSG.FNCC
      3608**DCL      3609--REDEF
S_D.REMOTE_MSG.STXC
      3604**DCL      3605--REDEF
S_D.REMOTE_MSG.SUBFNCC
      3612**DCL      3613--REDEF
S_D.SAVEIC
      2622**DCL      5626<<ASSIGN
S_D.SV
      2668**DCL      2689--REDEF
S_D.UREG$
      2699**DCL      5603>>ASSIGN   5605>>ASSIGN   5607>>ASSIGN   5609>>ASSIGN   5611>>ASSIGN   5613>>ASSIGN
      5615>>ASSIGN   5617>>ASSIGN
S_D.USS$
      2628**DCL      5620>>ASSIGN   5648>>ASSIGN   5652>>ASSIGN   5657>>ASSIGN
S_D$
PL6.E3A0      #001=DDK$PUTSPEC File=DDK$PUTSPEC.:E05TSI                          TUE 07/29/97 14:04 Page:29
      3920**DCL      2616--IMP-PTR  5603>>ASSIGN   5605>>ASSIGN   5607>>ASSIGN   5609>>ASSIGN   5611>>ASSIGN
      5613>>ASSIGN   5615>>ASSIGN   5617>>ASSIGN   5620>>ASSIGN   5622>>ASSIGN   5623>>ASSIGN   5626>>ASSIGN
      5629>>ASSIGN   5637>>ASSIGN   5643>>ASSIGN   5645>>ASSIGN   5648>>ASSIGN   5652>>ASSIGN   5657>>ASSIGN
      5663>>ASSIGN   5667>>ASSIGN   5672>>ASSIGN
TEMP
       772**DCL      5598<<ASSIGN   5647<<ASSIGN   5648>>ASSIGN   5652>>ASSIGN   5658>>ASSIGN
UBIN36
       781**DCL      5641<<ASSIGN
VALUE
       773**DCL         9--PROC      774--REDEF    5603>>ASSIGN   5605>>ASSIGN   5607>>ASSIGN   5609>>ASSIGN
      5611>>ASSIGN   5613>>ASSIGN   5615>>ASSIGN   5617>>ASSIGN   5620>>ASSIGN   5622>>ASSIGN   5626>>ASSIGN
      5627<>CALL     5632>>ASSIGN   5641>>ASSIGN   5643>>ASSIGN   5645>>ASSIGN   5648<<ASSIGN   5648>>ASSIGN
      5652>>ASSIGN   5658>>ASSIGN
WSR
       778**DCL      5632<<ASSIGN
PL6.E3A0      #001=DDK$PUTSPEC File=DDK$PUTSPEC.:E05TSI                          TUE 07/29/97 14:04 Page:30
              *** CROSS REFERENCE LISTING ***
    **     DENOTES     IDENTIFIER DEFINITION
    <<                 IDENTIFIER'S VALUE SET
    >>                 IDENTIFIER'S VALUE USED
    <>                 IDENTIFIER SET AND/OR USED
    --                 IDENTIFIER REFERENCED
PL6.E3A0      #001=DDK$PUTSPEC File=DDK$PUTSPEC.:E05TSI                          TUE 07/29/97 14:04 Page:31
              MINI UREF LISTING

CHAR4     783**DCL
CVALUE     774**DCL
DDK$PUTSPEC       9**PROC
EREG     786**DCL
M$ACCT    5446**DCL-ENT
M$ACTIVATE    5449**DCL-ENT
M$ALIB    5442**DCL-ENT
M$ASUSER    5444**DCL-ENT
M$ATTACH    5451**DCL-ENT
M$BADPP    5469**DCL-ENT
M$CGCTL    5450**DCL-ENT
M$CGINFO    5450**DCL-ENT
M$CHECK    5431**DCL-ENT
M$CHGUNIT    5489**DCL-ENT
M$CLOSE    5429**DCL-ENT
M$CLRSTK    5487**DCL-ENT
M$CMDVAR    5498**DCL-ENT
M$CONFIG    5459**DCL-ENT
M$CORRES    5434**DCL-ENT
M$CPEXIT    5443**DCL-ENT
M$CVM    5467**DCL-ENT
M$CVOL    5432**DCL-ENT
M$DCLFLD    5459**DCL-ENT
M$DEACTIVATE    5449**DCL-ENT
M$DELREC    5431**DCL-ENT
M$DEQ    5496**DCL-ENT
M$DETACH    5451**DCL-ENT
M$DEVICE    5433**DCL-ENT
M$DISPLAY    5496**DCL-ENT
M$DISPRES    5436**DCL-ENT
M$DLIB    5442**DCL-ENT
M$DRIBBLE    5459**DCL-ENT
PL6.E3A0      #001=DDK$PUTSPEC File=DDK$PUTSPEC.:E05TSI                          TUE 07/29/97 14:04 Page:32
M$DSUSER    5444**DCL-ENT
M$ENQ    5495**DCL-ENT
M$EOM    5454**DCL-ENT
M$ERASE    5460**DCL-ENT
M$ERR    5441**DCL-ENT
M$ERRMSG    5492**DCL-ENT
M$EVENT    5484**DCL-ENT
M$EXHUME    5493**DCL-ENT
M$EXIT    5441**DCL-ENT
M$EXTEND    5433**DCL-ENT
M$FDP    5465**DCL-ENT
M$FDS    5464**DCL-ENT
M$FEBOOT    5457**DCL-ENT
M$FECTL    5458**DCL-ENT
M$FEDUMP    5457**DCL-ENT
M$FID    5492**DCL-ENT
M$FINDPROC    5446**DCL-ENT
M$FSUSER    5444**DCL-ENT
M$FVP    5466**DCL-ENT
M$FWCG    5450**DCL-ENT
M$GBPL    5470**DCL-ENT
M$GDDL    5466**DCL-ENT
M$GDP    5465**DCL-ENT
M$GDS    5464**DCL-ENT
M$GETDCB    5435**DCL-ENT
M$GETMOUSE    5475**DCL-ENT
M$GETPM    5476**DCL-ENT
M$GJOB    5494**DCL-ENT
M$GLINEATTR    5454**DCL-ENT
M$GOODPP    5469**DCL-ENT
M$GPLATEN    5462**DCL-ENT
M$GPROMPT    5461**DCL-ENT
M$GTRMATTR    5455**DCL-ENT
M$GTRMCTL    5453**DCL-ENT
M$GTRMTAB    5456**DCL-ENT
M$GVP    5465**DCL-ENT
PL6.E3A0      #001=DDK$PUTSPEC File=DDK$PUTSPEC.:E05TSI                          TUE 07/29/97 14:04 Page:33
M$HELP    5492**DCL-ENT
M$INT    5484**DCL-ENT
M$INTRTN    5445**DCL-ENT
M$IOQ    5480**DCL-ENT
M$JOBSTATS    5494**DCL-ENT
M$KEYIN    5434**DCL-ENT
M$LDEV    5429**DCL-ENT
M$LDTRC    5442**DCL-ENT
M$LIMIT    5435**DCL-ENT
M$LINES    5434**DCL-ENT
M$LINK    5441**DCL-ENT
M$MADMUCK    5437**DCL-ENT
M$MAKUSER    5468**DCL-ENT
M$MBS    5436**DCL-ENT
M$MDFFLD    5460**DCL-ENT
M$MERC    5485**DCL-ENT
M$MERCS    5486**DCL-ENT
M$MIRROR    5480**DCL-ENT
M$MONINFO    5497**DCL-ENT
M$MPL    5470**DCL-ENT
M$NODEINFO    5461**DCL-ENT
M$NXTUSR    5495**DCL-ENT
M$OCMSG    5493**DCL-ENT
M$OLAY    5441**DCL-ENT
M$OPEN    5429**DCL-ENT
M$PAS    5470**DCL-ENT
M$PATHCON    5493**DCL-ENT
M$PDS    5464**DCL-ENT
M$PFIL    5431**DCL-ENT
M$PLATEN    5455**DCL-ENT
M$PRECORD    5433**DCL-ENT
M$PROCNAME    5446**DCL-ENT
M$PROFILE    5457**DCL-ENT
M$PROMPT    5453**DCL-ENT
M$RACST    5437**DCL-ENT
M$RDSYSLOG    5478**DCL-ENT
PL6.E3A0      #001=DDK$PUTSPEC File=DDK$PUTSPEC.:E05TSI                          TUE 07/29/97 14:04 Page:34
M$READ    5430**DCL-ENT
M$RELDCB    5435**DCL-ENT
M$RELRES    5436**DCL-ENT
M$RELSTARF    5438**DCL-ENT
M$REM    5438**DCL-ENT
M$RENV    5485**DCL-ENT
M$REQUIRE    5437**DCL-ENT
M$RETRY    5486**DCL-ENT
M$RETRYS    5486**DCL-ENT
M$REW    5432**DCL-ENT
M$RLSFLD    5460**DCL-ENT
M$RPRIV    5488**DCL-ENT
M$RSPP    5467**DCL-ENT
M$RSWITCH    5489**DCL-ENT
M$RUE    5495**DCL-ENT
M$SAD    5468**DCL-ENT
M$SAVE    5444**DCL-ENT
M$SCON    5445**DCL-ENT
M$SCREECH    5443**DCL-ENT
M$SENV    5485**DCL-ENT
M$SETFMA    5429**DCL-ENT
M$SETFP    5458**DCL-ENT
M$SINPUT    5456**DCL-ENT
M$SLCFLD    5461**DCL-ENT
M$SMOUSE    5475**DCL-ENT
M$SMPRT    5467**DCL-ENT
M$SPRIV    5488**DCL-ENT
M$SSC    5468**DCL-ENT
M$SSWITCH    5488**DCL-ENT
M$STATE    5497**DCL-ENT
M$STD    5469**DCL-ENT
M$STIMER    5483**DCL-ENT
M$STLPP    5466**DCL-ENT
M$STRAP    5483**DCL-ENT
M$STRMATTR    5455**DCL-ENT
M$STRMCTL    5453**DCL-ENT
PL6.E3A0      #001=DDK$PUTSPEC File=DDK$PUTSPEC.:E05TSI                          TUE 07/29/97 14:04 Page:35
M$STRMTAB    5456**DCL-ENT
M$SYMBIO    5494**DCL-ENT
M$SYSCON    5480**DCL-ENT
M$SYSID    5498**DCL-ENT
M$TDCLOSE    5479**DCL-ENT
M$TDIO    5479**DCL-ENT
M$TDOPEN    5478**DCL-ENT
M$TDREQCPU    5479**DCL-ENT
M$TEMPWROC    5473**DCL-ENT
M$TIME    5496**DCL-ENT
M$TRAP    5483**DCL-ENT
M$TRMISC    5458**DCL-ENT
M$TRMPRG    5454**DCL-ENT
M$TRTN    5487**DCL-ENT
M$TRUNC    5430**DCL-ENT
M$TTIMER    5483**DCL-ENT
M$UC    5453**DCL
M$UMPL    5470**DCL-ENT
M$UNFID    5492**DCL-ENT
M$UNLATCH    5449**DCL-ENT
M$UNSHARE    5446**DCL-ENT
M$USRFIELD    5489**DCL-ENT
M$VIRTUAL    5464**DCL-ENT
M$WAIT    5487**DCL-ENT
M$WEOF    5432**DCL-ENT
M$WRITE    5430**DCL-ENT
M$WRSYSLOG    5478**DCL-ENT
M$XCON    5484**DCL-ENT
M$XCONRTN    5445**DCL-ENT
M$XEQTIME    5497**DCL-ENT
M$XFLUSH    5438**DCL-ENT
M$XMOUSE    5475**DCL-ENT
M$XXX    5441**DCL-ENT
M$YC    5443**DCL-ENT
SDD$     115**DCL
SDD_L6$     117**DCL
PL6.E3A0      #001=DDK$PUTSPEC File=DDK$PUTSPEC.:E05TSI                          TUE 07/29/97 14:04 Page:36
TEXTR     785**DCL
UIS$     787**DCL
ZITEM$     116**DCL
ZITEM_L6$     118**DCL
