VERSION E05

PL6.E3A0      #001=DDR$BINTXT File=DDR$BINTXT.:E05TSI                            TUE 07/29/97 14:06 Page:1
        1        1        /*M* DDR$BINTXT - CONVERT BINARY TO DECIMAL/OCTAL */
        2        2        /*T***********************************************************/
        3        3        /*T*                                                         */
        4        4        /*T* Copyright (c) Bull HN Information Systems Inc., 1997    */
        5        5        /*T*                                                         */
        6        6        /*T***********************************************************/
        7        7        /*X* DMR,PLM=5,IND=5,CSU=3,EXM=0,ECU=3,MOC,DCI=5,CRT=5 */
        8        8        /*M*  DDR$BINTXT - CONVERTS BINARY TO DECIMAL / OCTAL /HEX */
        9        9        /*P*  NAME: DDR$BINTXT
       10       10              PURPOSE: Converts UBIN(36) to DECIMAL, OCTAL or HEX digits without
       11       11                       leading zeros.
       12       12                       Both OCTAL and HEX strings will be preceeded by a period  ('.').
       13       13                       This formatting routine is used when formatting an OCTAL
       14       14                       number in L66 environment or a HEX number in L6 environment. */
       15       15        /*D*  NAME: DDR$BINTXT
       16       16              CALL: DDR$BINTXT(STR$,BIN,FLAG,SIZE)
       17       17              INPUT: STR$ - Pointer to output buffer for digit string
       18       18                     BIN  - UBIN(36) value to be converted
       19       19                     FLAG - UBIN(36) to indicate type of conversion
       20       20              OUPUT: STR$ - character string up to 11 CHARS (DEC),13 CHARS (OCT)
       21       21                            or 10 CHARS (HEX)
       22       22                     SIZE - SBIN(36) size of string build at STR$
       23       23                                                     */
       24       24        DDR$BINTXT: PROC(STR$,BIN,FLAG,SIZE);
       25       25                                                /* PARMS */
       26       26    1   DCL STR$ PTR;
       27       27    1   DCL BIN UBIN(36);
       28       28    1   DCL FLAG UBIN;
       29       29    1   DCL SIZE SBIN;
       30       30                                                /* LOCAL TEMPS */
       31       31    1   DCL STR CHAR(12);
       32       32    1   DCL ASTR(0:11) REDEF STR CHAR(1);
       33       33    1   DCL I SBIN;
       34       34    1   DCL S$ PTR;
       35       35    1   DCL FFND BIT(1);
       36       36    1   DCL CHAR1 CHAR(1) BASED;
       37       37    1   DCL DIGITS UBIN;
PL6.E3A0      #001=DDR$BINTXT File=DDR$BINTXT.:E05TSI                            TUE 07/29/97 14:06 Page:2
       38       38
       39       39        %INCLUDE DD$DITEM;
       12+     142             %LIST;
       13+     143    1        DCL SDD$ PTR;
       14+     144    1        DCL ZITEM$ PTR;
       15+     145    1        DCL SDD_L6$ PTR;
       16+     146    1        DCL ZITEM_L6$ PTR;
       40      720                                                /* EXT ROUTINES */
       41      721    1   DCL DDR$BINOCT ENTRY(2);
       42      722    1   DCL DFR$BINHEX ENTRY(4);
       43      723    1        S$ = STR$;
       44      724    1        SIZE =0;
       45      725    2        DO CASE ( FLAG );
       46      726    2          CASE ( %UINT_FMT );
       47      727    2             CALL BINCHAR(STR, BIN);
       48      728    2             DIGITS = 12;
       49      729
       50      730    2          CASE ( %OCT_FMT );
       51      731    2             CALL DDR$BINOCT(STR, BIN);
       52      732    2             SIZE = 1;
       53      733    2             S$ -> CHAR1 = '.';
       54      734    2             S$ = PINCRC(S$, 1);
       55      735    2             DIGITS = 12;
       56      736    2          CASE ( %X_FMT );
       57      737    2             S$ -> CHAR1 = '.';
       58      738    2             S$ = PINCRC ( S$, 1 );
       59      739    2             SIZE = 1;
       60      740    2             CALL DFR$BINHEX ( BIN, STR );
       61      741    2             DIGITS = 8;
       62      742
       63      743    2          END;
       64      744    1        FFND = '0'B;
       65      745    2        DO I = 0 TO DIGITS-2;
       66      746    2             IF ASTR(I) ~= '0' OR FFND
       67      747    3             THEN DO;
       68      748    3                  FFND = '1'B;
       69      749    3                  S$ -> CHAR1 = ASTR(I);
PL6.E3A0      #001=DDR$BINTXT File=DDR$BINTXT.:E05TSI                            TUE 07/29/97 14:06 Page:3
       70      750    3                  S$ = PINCRC(S$, 1);
       71      751    3                  SIZE = SIZE + 1;
       72      752    3                END;
       73      753    2           END;                            /* DO I = 0 TO DIGITS-2 */
       74      754    1        S$ -> CHAR1 = ASTR(DIGITS-1);      /* Output at least a '0' */
       75      755    1        SIZE = SIZE + 1;
       76      756    1   END DDR$BINTXT;
       77      757        %EOD;

PL6.E3A0      #001=DDR$BINTXT File=DDR$BINTXT.:E05TSI                            TUE 07/29/97 14:06 Page:4
--  Include file information  --

   DD_SRTN_C.:E05TOU  is referenced.
   DD_ACODE_C.:E05TOU  is referenced.
   DD_ICODE_C.:E05TOU  is referenced.
   DD$DITEM.:E05TOU  cannot be made into a system file and is referenced.
   B$JIT_C.:E05TOU  was found in the system file and is never referenced.
   CP_6_C.:E05TOU  was found in the system file and is never referenced.
      No diagnostics issued in procedure DDR$BINTXT.

   Procedure DDR$BINTXT requires 109 words for executable code.
   Procedure DDR$BINTXT requires 20 words of local(AUTO) storage.

PL6.E3A0      #001=DDR$BINTXT File=DDR$BINTXT.:E05TSI                            TUE 07/29/97 14:06 Page:5

 Object Unit name= DDR$BINTXT                                 File name= DDR$BINTXT.:E05TOU
 UTS= JUL 29 '97 14:06:35.68 TUE                              Compiler= PL-6/E31         Sev=      00
 SharedLib= :SHARED_SYSTEM                                    Alt SharedLib=


    ****  Control sections  ****

 Sect   Type Bound  Init  Size OctSiz  Section name(segment info)
    0   Proc  even  none   109    155  DDR$BINTXT
    1  RoData even  none     2      2  DDR$BINTXT

    ****  Entry defs  ****

                              Check   Calling
                             calling  sequence
  Sect OctLoc Primary Altret sequence   type   Parms  Name
     0      0   yes            yes      Std        4  DDR$BINTXT

  ****  Entry refs  ****

         Check        Calling
        calling       sequence
Altret sequence SRef   type   Args  Name
         yes           Std       2 DDR$BINOCT
         yes           Std       4 DFR$BINHEX
                       nStd      0 X66_AUTO_4
                       Std       0 B_CONSPOOL_D
                       nStd      0 X66_ARET

  ****  Data refs  ****

  Flags:  r = read only, s = secondary
Flgs Name                             Flgs Name                             Flgs Name
     B_VECTNIL
PL6.E3A0      #001=DDR$BINTXT File=DDR$BINTXT.:E05TSI                            TUE 07/29/97 14:06 Page:6


        1        1        /*M* DDR$BINTXT - CONVERT BINARY TO DECIMAL/OCTAL */
        2        2        /*T***********************************************************/
        3        3        /*T*                                                         */
        4        4        /*T* Copyright (c) Bull HN Information Systems Inc., 1997    */
        5        5        /*T*                                                         */
        6        6        /*T***********************************************************/
        7        7        /*X* DMR,PLM=5,IND=5,CSU=3,EXM=0,ECU=3,MOC,DCI=5,CRT=5 */
        8        8        /*M*  DDR$BINTXT - CONVERTS BINARY TO DECIMAL / OCTAL /HEX */
        9        9        /*P*  NAME: DDR$BINTXT
       10       10              PURPOSE: Converts UBIN(36) to DECIMAL, OCTAL or HEX digits without
       11       11                       leading zeros.
       12       12                       Both OCTAL and HEX strings will be preceeded by a period  ('.').
       13       13                       This formatting routine is used when formatting an OCTAL
       14       14                       number in L66 environment or a HEX number in L6 environment. */
       15       15        /*D*  NAME: DDR$BINTXT
       16       16              CALL: DDR$BINTXT(STR$,BIN,FLAG,SIZE)
       17       17              INPUT: STR$ - Pointer to output buffer for digit string
       18       18                     BIN  - UBIN(36) value to be converted
       19       19                     FLAG - UBIN(36) to indicate type of conversion
       20       20              OUPUT: STR$ - character string up to 11 CHARS (DEC),13 CHARS (OCT)
       21       21                            or 10 CHARS (HEX)
       22       22                     SIZE - SBIN(36) size of string build at STR$
       23       23                                                     */
       24       24        DDR$BINTXT: PROC(STR$,BIN,FLAG,SIZE);

     24  0 000000   000000 700200 xent  DDR$BINTXT   TSX0  ! X66_AUTO_4
         0 000001   000024 000004                    ZERO    20,4

       25       25                                                /* PARMS */
       26       26    1   DCL STR$ PTR;
       27       27    1   DCL BIN UBIN(36);
       28       28    1   DCL FLAG UBIN;
       29       29    1   DCL SIZE SBIN;
       30       30                                                /* LOCAL TEMPS */
       31       31    1   DCL STR CHAR(12);
       32       32    1   DCL ASTR(0:11) REDEF STR CHAR(1);
PL6.E3A0      #001=DDR$BINTXT File=DDR$BINTXT.:E05TSI                            TUE 07/29/97 14:06 Page:7
       33       33    1   DCL I SBIN;
       34       34    1   DCL S$ PTR;
       35       35    1   DCL FFND BIT(1);
       36       36    1   DCL CHAR1 CHAR(1) BASED;
       37       37    1   DCL DIGITS UBIN;
       38       38
       39       39        %INCLUDE DD$DITEM;
       12+     142             %LIST;
       13+     143    1        DCL SDD$ PTR;
       14+     144    1        DCL ZITEM$ PTR;
       15+     145    1        DCL SDD_L6$ PTR;
       16+     146    1        DCL ZITEM_L6$ PTR;
       40      720                                                /* EXT ROUTINES */
       41      721    1   DCL DDR$BINOCT ENTRY(2);
       42      722    1   DCL DFR$BINHEX ENTRY(4);
       43      723    1        S$ = STR$;

    723  0 000002   200003 470500                    LDP0    @STR$,,AUTO
         0 000003   000000 236100                    LDQ     0,,PR0
         0 000004   200013 756100                    STQ     S$,,AUTO

       44      724    1        SIZE =0;

    724  0 000005   200006 471500                    LDP1    @SIZE,,AUTO
         0 000006   100000 450100                    STZ     0,,PR1

       45      725    2        DO CASE ( FLAG );

    725  0 000007   200005 473500                    LDP3    @FLAG,,AUTO
         0 000010   300000 235100                    LDA     0,,PR3
         0 000011   000016 115007                    CMPA    14,DL
         0 000012   000014 602005 0                  TNC     s:725+5,AL
         0 000013   000113 710000 0                  TRA     s:744
         0 000014   000113 710000 0                  TRA     s:744
         0 000015   000044 710000 0                  TRA     s:731
         0 000016   000032 710000 0                  TRA     s:727
         0 000017   000113 710000 0                  TRA     s:744
PL6.E3A0      #001=DDR$BINTXT File=DDR$BINTXT.:E05TSI                            TUE 07/29/97 14:06 Page:8
         0 000020   000113 710000 0                  TRA     s:744
         0 000021   000113 710000 0                  TRA     s:744
         0 000022   000113 710000 0                  TRA     s:744
         0 000023   000113 710000 0                  TRA     s:744
         0 000024   000113 710000 0                  TRA     s:744
         0 000025   000113 710000 0                  TRA     s:744
         0 000026   000113 710000 0                  TRA     s:744
         0 000027   000113 710000 0                  TRA     s:744
         0 000030   000113 710000 0                  TRA     s:744
         0 000031   000071 710000 0                  TRA     s:737

       46      726    2          CASE ( %UINT_FMT );

       47      727    2             CALL BINCHAR(STR, BIN);

    727  0 000032   200004 474500                    LDP4    @BIN,,AUTO
         0 000033   400000 235100                    LDA     0,,PR4
         0 000034   000044 773000                    LRL     36
         0 000035   200022 757100                    STAQ    DIGITS+5,,AUTO
         0 000036   000100 301500                    BTD
         0 000037   200022 000010                    NDSC9   DIGITS+5,,AUTO           cn=0,s=lsgnf,sf=0,n=8
         0 000040   200007 030014                    NDSC9   STR,,AUTO                cn=0,s=nosgn,sf=0,n=12

       48      728    2             DIGITS = 12;

    728  0 000041   000014 235007                    LDA     12,DL
         0 000042   200015 755100                    STA     DIGITS,,AUTO
         0 000043   000113 710000 0                  TRA     s:744

       49      729
       50      730    2          CASE ( %OCT_FMT );

       51      731    2             CALL DDR$BINOCT(STR, BIN);

    731  0 000044   200004 236100                    LDQ     @BIN,,AUTO
         0 000045   200023 756100                    STQ     DIGITS+6,,AUTO
         0 000046   200007 634500                    EPPR4   STR,,AUTO
PL6.E3A0      #001=DDR$BINTXT File=DDR$BINTXT.:E05TSI                            TUE 07/29/97 14:06 Page:9
         0 000047   200022 454500                    STP4    DIGITS+5,,AUTO
         0 000050   200022 630500                    EPPR0   DIGITS+5,,AUTO
         0 000051   000020 631400 xsym               EPPR1   B_VECTNIL+16
         0 000052   000000 701000 xent               TSX1    DDR$BINOCT
         0 000053   000000 011000                    NOP     0

       52      732    2             SIZE = 1;

    732  0 000054   000001 235007                    LDA     1,DL
         0 000055   200006 470500                    LDP0    @SIZE,,AUTO
         0 000056   000000 755100                    STA     0,,PR0

       53      733    2             S$ -> CHAR1 = '.';

    733  0 000057   200013 471500                    LDP1    S$,,AUTO
         0 000060   040100 100400                    MLR     fill='040'O
         0 000061   000000 000001 1                  ADSC9   0                        cn=0,n=1
         0 000062   100000 000001                    ADSC9   0,,PR1                   cn=0,n=1

       54      734    2             S$ = PINCRC(S$, 1);

    734  0 000063   200013 236100                    LDQ     S$,,AUTO
         0 000064   200000 036007                    ADLQ    65536,DL
         0 000065   200013 756100                    STQ     S$,,AUTO

       55      735    2             DIGITS = 12;

    735  0 000066   000014 235007                    LDA     12,DL
         0 000067   200015 755100                    STA     DIGITS,,AUTO
         0 000070   000113 710000 0                  TRA     s:744

       56      736    2          CASE ( %X_FMT );

       57      737    2             S$ -> CHAR1 = '.';

    737  0 000071   200013 474500                    LDP4    S$,,AUTO
         0 000072   040100 100400                    MLR     fill='040'O
PL6.E3A0      #001=DDR$BINTXT File=DDR$BINTXT.:E05TSI                            TUE 07/29/97 14:06 Page:10
         0 000073   000000 000001 1                  ADSC9   0                        cn=0,n=1
         0 000074   400000 000001                    ADSC9   0,,PR4                   cn=0,n=1

       58      738    2             S$ = PINCRC ( S$, 1 );

    738  0 000075   200000 036007                    ADLQ    65536,DL
         0 000076   200013 756100                    STQ     S$,,AUTO

       59      739    2             SIZE = 1;

    739  0 000077   000001 235007                    LDA     1,DL
         0 000100   100000 755100                    STA     0,,PR1

       60      740    2             CALL DFR$BINHEX ( BIN, STR );

    740  0 000101   200007 634500                    EPPR4   STR,,AUTO
         0 000102   200023 454500                    STP4    DIGITS+6,,AUTO
         0 000103   200004 236100                    LDQ     @BIN,,AUTO
         0 000104   200022 756100                    STQ     DIGITS+5,,AUTO
         0 000105   200022 630500                    EPPR0   DIGITS+5,,AUTO
         0 000106   000020 631400 xsym               EPPR1   B_VECTNIL+16
         0 000107   000000 701000 xent               TSX1    DFR$BINHEX
         0 000110   000000 011000                    NOP     0

       61      741    2             DIGITS = 8;

    741  0 000111   000010 235007                    LDA     8,DL
         0 000112   200015 755100                    STA     DIGITS,,AUTO

       62      742
       63      743    2          END;

       64      744    1        FFND = '0'B;

    744  0 000113   200014 450100                    STZ     FFND,,AUTO

       65      745    2        DO I = 0 TO DIGITS-2;
PL6.E3A0      #001=DDR$BINTXT File=DDR$BINTXT.:E05TSI                            TUE 07/29/97 14:06 Page:11

    745  0 000114   200012 450100                    STZ     I,,AUTO
         0 000115   000141 710000 0                  TRA     s:753+1

       66      746    2             IF ASTR(I) ~= '0' OR FFND

    746  0 000116   200012 235100                    LDA     I,,AUTO
         0 000117   040000 106505                    CMPC    fill='040'O
         0 000120   200007 000001                    ADSC9   STR,A,AUTO               cn=0,n=1
         0 000121   000001 000001 1                  ADSC9   1                        cn=0,n=1
         0 000122   000125 601000 0                  TNZ     s:748
         0 000123   200014 234100                    SZN     FFND,,AUTO
         0 000124   000140 605000 0                  TPL     s:753

       67      747    3             THEN DO;

       68      748    3                  FFND = '1'B;

    748  0 000125   400000 236003                    LDQ     -131072,DU
         0 000126   200014 756100                    STQ     FFND,,AUTO

       69      749    3                  S$ -> CHAR1 = ASTR(I);

    749  0 000127   200013 470500                    LDP0    S$,,AUTO
         0 000130   040100 100505                    MLR     fill='040'O
         0 000131   200007 000001                    ADSC9   STR,A,AUTO               cn=0,n=1
         0 000132   000000 000001                    ADSC9   0,,PR0                   cn=0,n=1

       70      750    3                  S$ = PINCRC(S$, 1);

    750  0 000133   200013 236100                    LDQ     S$,,AUTO
         0 000134   200000 036007                    ADLQ    65536,DL
         0 000135   200013 756100                    STQ     S$,,AUTO

       71      751    3                  SIZE = SIZE + 1;

    751  0 000136   200006 470500                    LDP0    @SIZE,,AUTO
PL6.E3A0      #001=DDR$BINTXT File=DDR$BINTXT.:E05TSI                            TUE 07/29/97 14:06 Page:12
         0 000137   000000 054100                    AOS     0,,PR0

       72      752    3                END;

       73      753    2           END;                            /* DO I = 0 TO DIGITS-2 */

    753  0 000140   200012 054100                    AOS     I,,AUTO
         0 000141   200015 236100                    LDQ     DIGITS,,AUTO
         0 000142   000002 136007                    SBLQ    2,DL
         0 000143   200012 116100                    CMPQ    I,,AUTO
         0 000144   000116 605000 0                  TPL     s:746

       74      754    1        S$ -> CHAR1 = ASTR(DIGITS-1);      /* Output at least a '0' */

    754  0 000145   200015 235100                    LDA     DIGITS,,AUTO
         0 000146   200013 470500                    LDP0    S$,,AUTO
         0 000147   040100 100505                    MLR     fill='040'O
         0 000150   200006 600001                    ADSC9   @SIZE,A,AUTO             cn=3,n=1
         0 000151   000000 000001                    ADSC9   0,,PR0                   cn=0,n=1

       75      755    1        SIZE = SIZE + 1;

    755  0 000152   200006 471500                    LDP1    @SIZE,,AUTO
         0 000153   100000 054100                    AOS     0,,PR1

       76      756    1   END DDR$BINTXT;

    756  0 000154   000000 702200 xent               TSX2  ! X66_ARET

(unnamed)
 Sect OctLoc
   1     000   056040 040040   060040 040040                                    .   0
       77      757        %EOD;

PL6.E3A0      #001=DDR$BINTXT File=DDR$BINTXT.:E05TSI                            TUE 07/29/97 14:06 Page:13
--  Include file information  --

   DD_SRTN_C.:E05TOU  is referenced.
   DD_ACODE_C.:E05TOU  is referenced.
   DD_ICODE_C.:E05TOU  is referenced.
   DD$DITEM.:E05TOU  cannot be made into a system file and is referenced.
   B$JIT_C.:E05TOU  was found in the system file and is never referenced.
   CP_6_C.:E05TOU  was found in the system file and is never referenced.
      No diagnostics issued in procedure DDR$BINTXT.

   Procedure DDR$BINTXT requires 109 words for executable code.
   Procedure DDR$BINTXT requires 20 words of local(AUTO) storage.
PL6.E3A0      #001=DDR$BINTXT File=DDR$BINTXT.:E05TSI                            TUE 07/29/97 14:06 Page:14
          *** CROSS REFERENCE LISTING ***
**     DENOTES     IDENTIFIER DEFINITION
<<                 IDENTIFIER'S VALUE SET
>>                 IDENTIFIER'S VALUE USED
<>                 IDENTIFIER SET AND/OR USED
--                 IDENTIFIER REFERENCED
PL6.E3A0      #001=DDR$BINTXT File=DDR$BINTXT.:E05TSI                            TUE 07/29/97 14:06 Page:15
          MINI XREF LISTING

ASTR
        32**DCL       746>>IF        749>>ASSIGN    754>>ASSIGN
BIN
        27**DCL        24--PROC      727>>CALLBLT   731<>CALL      740<>CALL
CHAR1
        36**DCL       733<<ASSIGN    737<<ASSIGN    749<<ASSIGN    754<<ASSIGN
DDR$BINOCT
       721**DCL-ENT   731--CALL
DFR$BINHEX
       722**DCL-ENT   740--CALL
DIGITS
        37**DCL       728<<ASSIGN    735<<ASSIGN    741<<ASSIGN    745>>DOINDEX   754>>ASSIGN
FFND
        35**DCL       744<<ASSIGN    746>>IF        748<<ASSIGN
FLAG
        28**DCL        24--PROC      725>>DOCASE
I
        33**DCL       745<<DOINDEX   746>>IF        749>>ASSIGN
S$
        34**DCL       723<<ASSIGN    733>>ASSIGN    734<<ASSIGN    734>>ASSIGN    737>>ASSIGN    738<<ASSIGN
       738>>ASSIGN    749>>ASSIGN    750<<ASSIGN    750>>ASSIGN    754>>ASSIGN
SIZE
        29**DCL        24--PROC      724<<ASSIGN    732<<ASSIGN    739<<ASSIGN    751<<ASSIGN    751>>ASSIGN
       755<<ASSIGN    755>>ASSIGN
STR
        31**DCL        32--REDEF     727<<CALLBLT   731<>CALL      740<>CALL
STR$
        26**DCL        24--PROC      723>>ASSIGN
PL6.E3A0      #001=DDR$BINTXT File=DDR$BINTXT.:E05TSI                            TUE 07/29/97 14:06 Page:16
              *** CROSS REFERENCE LISTING ***
    **     DENOTES     IDENTIFIER DEFINITION
    <<                 IDENTIFIER'S VALUE SET
    >>                 IDENTIFIER'S VALUE USED
    <>                 IDENTIFIER SET AND/OR USED
    --                 IDENTIFIER REFERENCED
PL6.E3A0      #001=DDR$BINTXT File=DDR$BINTXT.:E05TSI                            TUE 07/29/97 14:06 Page:17
              MINI UREF LISTING

DDR$BINTXT      24**PROC
SDD$     143**DCL
SDD_L6$     145**DCL
ZITEM$     144**DCL
ZITEM_L6$     146**DCL

PL6.E3A0      #002=DDR$BUMPC_D$ File=DDR$BINTXT.:E05TSI                          TUE 07/29/97 14:06 Page:18
       78        1        /*M*  DDR$BUMPC_D$ - INCREMENTS S_D.D$ AND CHECKS S_D.DESCL$ */
       79        2        /*T***********************************************************/
       80        3        /*T*                                                         */
       81        4        /*T* Copyright (c) Bull HN Information Systems Inc., 1997    */
       82        5        /*T*                                                         */
       83        6        /*T***********************************************************/
       84        7        DDR$BUMPC_D$: PROC(N) ALTRET;
       85        8    1   DCL N SBIN;
       86        9             %INCLUDE XUH_MACRO_C;
       87       93             %INCLUDE DD_SD_M;
       88     1429             %S_D;
       89     2747             %INCLUDE DD_ERR_C;
       90     3144    1        IF POFFC(S_D.DESCL$, S_D.D$) < N
       91     3145    2        THEN DO;
       92     3146    2             S_D.ERROR = E@BUFFULL;        /* E@BUFFULL */
       93     3147    2             ALTRETURN;
       94     3148    2           END;
       95     3149    1        S_D.D$ = PINCRC(S_D.D$, N);
       96     3150    1        RETURN;
       97     3151    1   END DDR$BUMPC_D$;

PL6.E3A0      #002=DDR$BUMPC_D$ File=DDR$BINTXT.:E05TSI                          TUE 07/29/97 14:06 Page:19
--  Include file information  --

   DD_ERR_C.:E05TOU  is referenced.
   DD_SD_M.:E05TOU  is referenced.
   XUH_MACRO_C.:E05TOU  is referenced.
   B$JIT_C.:E05TOU  was found in the system file and is never referenced.
   CP_6_C.:E05TOU  was found in the system file and is never referenced.
      No diagnostics issued in procedure DDR$BUMPC_D$.

   Procedure DDR$BUMPC_D$ requires 24 words for executable code.
   Procedure DDR$BUMPC_D$ requires 6 words of local(AUTO) storage.

    No errors detected in file DDR$BINTXT.:E05TSI    .

PL6.E3A0      #002=DDR$BUMPC_D$ File=DDR$BINTXT.:E05TSI                          TUE 07/29/97 14:06 Page:20

 Object Unit name= DDR$BUMPC_D$                               File name= DDR$BINTXT.:E05TOU
 UTS= JUL 29 '97 14:06:39.00 TUE                              Compiler= PL-6/E31         Sev=      00
 SharedLib= :SHARED_SYSTEM                                    Alt SharedLib=


    ****  Control sections  ****

 Sect   Type Bound  Init  Size OctSiz  Section name(segment info)
    0   Proc  even  none    24     30  DDR$BUMPC_D$

    ****  Entry defs  ****

                              Check   Calling
                             calling  sequence
  Sect OctLoc Primary Altret sequence   type   Parms  Name
     0      0   yes    yes     yes      Std        1  DDR$BUMPC_D$

  ****  Entry refs  ****

         Check        Calling
        calling       sequence
Altret sequence SRef   type   Args  Name
                       nStd      0 X66_AUTO_1
                       nStd      0 X66_AALT
                       nStd      0 X66_ARET

  ****  Data refs  ****

  Flags:  r = read only, s = secondary
Flgs Name                             Flgs Name                             Flgs Name
r    S_D$
PL6.E3A0      #002=DDR$BUMPC_D$ File=DDR$BINTXT.:E05TSI                          TUE 07/29/97 14:06 Page:21


       78        1        /*M*  DDR$BUMPC_D$ - INCREMENTS S_D.D$ AND CHECKS S_D.DESCL$ */
       79        2        /*T***********************************************************/
       80        3        /*T*                                                         */
       81        4        /*T* Copyright (c) Bull HN Information Systems Inc., 1997    */
       82        5        /*T*                                                         */
       83        6        /*T***********************************************************/
       84        7        DDR$BUMPC_D$: PROC(N) ALTRET;

      7  0 000000   000000 700200 xent  DDR$BUMPC_D$ TSX0  ! X66_AUTO_1
         0 000001   000006 000001                    ZERO    6,1

       85        8    1   DCL N SBIN;
       86        9             %INCLUDE XUH_MACRO_C;
       87       93             %INCLUDE DD_SD_M;
       88     1429             %S_D;
       89     2747             %INCLUDE DD_ERR_C;
       90     3144    1        IF POFFC(S_D.DESCL$, S_D.D$) < N

   3144  0 000002   000000 470400 xsym               LDP0    S_D$
         0 000003   000044 236100                    LDQ     36,,PR0
         0 000004   000020 772000                    QRL     16
         0 000005   200004 756100                    STQ     @N+1,,AUTO
         0 000006   000042 236100                    LDQ     34,,PR0
         0 000007   000020 772000                    QRL     16
         0 000010   200004 136100                    SBLQ    @N+1,,AUTO
         0 000011   200003 471500                    LDP1    @N,,AUTO
         0 000012   100000 116100                    CMPQ    0,,PR1
         0 000013   000017 605000 0                  TPL     s:3149

       91     3145    2        THEN DO;

       92     3146    2             S_D.ERROR = E@BUFFULL;        /* E@BUFFULL */

   3146  0 000014   000130 235007                    LDA     88,DL
         0 000015   000013 755100                    STA     11,,PR0

PL6.E3A0      #002=DDR$BUMPC_D$ File=DDR$BINTXT.:E05TSI                          TUE 07/29/97 14:06 Page:22
       93     3147    2             ALTRETURN;

   3147  0 000016   000000 702200 xent               TSX2  ! X66_AALT

       94     3148    2           END;
       95     3149    1        S_D.D$ = PINCRC(S_D.D$, N);

   3149  0 000017   100000 236100                    LDQ     0,,PR1
         0 000020   000044 473500                    LDP3    36,,PR0
         0 000021   000011 402007                    MPY     9,DL
         0 000022   000000 116003                    CMPQ    0,DU
         0 000023   000025 605000 0                  TPL     s:3149+6
         0 000024   000044 036003                    ADLQ    36,DU
         0 000025   300000 503506                    ABD     0,QL,PR3
         0 000026   000044 453500                    STP3    36,,PR0

       96     3150    1        RETURN;

   3150  0 000027   000000 702200 xent               TSX2  ! X66_ARET
       97     3151    1   END DDR$BUMPC_D$;

PL6.E3A0      #002=DDR$BUMPC_D$ File=DDR$BINTXT.:E05TSI                          TUE 07/29/97 14:06 Page:23
--  Include file information  --

   DD_ERR_C.:E05TOU  is referenced.
   DD_SD_M.:E05TOU  is referenced.
   XUH_MACRO_C.:E05TOU  is referenced.
   B$JIT_C.:E05TOU  was found in the system file and is never referenced.
   CP_6_C.:E05TOU  was found in the system file and is never referenced.
      No diagnostics issued in procedure DDR$BUMPC_D$.

   Procedure DDR$BUMPC_D$ requires 24 words for executable code.
   Procedure DDR$BUMPC_D$ requires 6 words of local(AUTO) storage.

    No errors detected in file DDR$BINTXT.:E05TSI    .
PL6.E3A0      #002=DDR$BUMPC_D$ File=DDR$BINTXT.:E05TSI                          TUE 07/29/97 14:06 Page:24
          *** CROSS REFERENCE LISTING ***
**     DENOTES     IDENTIFIER DEFINITION
<<                 IDENTIFIER'S VALUE SET
>>                 IDENTIFIER'S VALUE USED
<>                 IDENTIFIER SET AND/OR USED
--                 IDENTIFIER REFERENCED
PL6.E3A0      #002=DDR$BUMPC_D$ File=DDR$BINTXT.:E05TSI                          TUE 07/29/97 14:06 Page:25
          MINI XREF LISTING

N
         8**DCL         7--PROC     3144>>IF       3149>>ASSIGN
S_D.CURRENT_CHANNEL
      2381**DCL      2383--REDEF
S_D.D$
      1519**DCL      3144>>IF       3149<<ASSIGN   3149>>ASSIGN
S_D.DEBUGA
      1533**DCL      1535--REDEF
S_D.DESCL$
      1515**DCL      3144>>IF
S_D.EIS
      2491**DCL      2520--REDEF
S_D.ERROR
      1462**DCL      3146<<ASSIGN
S_D.HOST_MESSAGE_BUF_REMOTE
      2424**DCL      2425--REDEF    2439--REDEF
S_D.JDE
      2038**DCL      2039--REDEF
S_D.L$.VALUE
      1591**DCL      1597--REDEF    1605--REDEF    1608--REDEF    1611--REDEF    1614--REDEF
S_D.L$.VALUE.L
      1592**DCL      1593--REDEF    1594--REDEF
S_D.L6_MESSAGE_BUF
      2445**DCL      2447--REDEF
S_D.OUTPUT
      2411**DCL      2413--REDEF
S_D.REMOTE_MSG.FNCC
      2430**DCL      2431--REDEF
S_D.REMOTE_MSG.STXC
      2426**DCL      2427--REDEF
S_D.REMOTE_MSG.SUBFNCC
      2434**DCL      2435--REDEF
PL6.E3A0      #002=DDR$BUMPC_D$ File=DDR$BINTXT.:E05TSI                          TUE 07/29/97 14:06 Page:26
S_D.SV
      1490**DCL      1511--REDEF
S_D$
      2742**DCL      1438--IMP-PTR  3144>>IF       3144>>IF       3146>>ASSIGN   3149>>ASSIGN   3149>>ASSIGN
PL6.E3A0      #002=DDR$BUMPC_D$ File=DDR$BINTXT.:E05TSI                          TUE 07/29/97 14:06 Page:27
              *** CROSS REFERENCE LISTING ***
    **     DENOTES     IDENTIFIER DEFINITION
    <<                 IDENTIFIER'S VALUE SET
    >>                 IDENTIFIER'S VALUE USED
    <>                 IDENTIFIER SET AND/OR USED
    --                 IDENTIFIER REFERENCED
PL6.E3A0      #002=DDR$BUMPC_D$ File=DDR$BINTXT.:E05TSI                          TUE 07/29/97 14:06 Page:28
              MINI UREF LISTING

DDR$BUMPC_D$       7**PROC
