VERSION E05

PL6.E3A0      #001=DDR$PACK File=DDR$CONVERT.:E05TSI                             TUE 07/29/97 14:06 Page:1
        1        1        /*M* DDR$CONVERT - Utility module to compensate for L66/L6 word size */
        2        2        /*T***********************************************************/
        3        3        /*T*                                                         */
        4        4        /*T* Copyright (c) Bull HN Information Systems Inc., 1997    */
        5        5        /*T*                                                         */
        6        6        /*T***********************************************************/
        7        7        DDR$PACK: PROC (SIZE,L6PTR$,L66PTR$,CONTEXT$) ;
        8        8        /**/
        9        9    1   DCL SIZE UBIN WORD ALIGNED ;   /* Number of L66 bytes for DDR$PACK,
       10       10                                          Number of L6 bytes for DDR$UNPACK */
       11       11    1   DCL L6PTR$  PTR ;
       12       12    1   DCL L66PTR$ PTR;
       13       13    1   DCL CONTEXT$ PTR;
       14       14        /**/
       15       15    1   DCL BYTE_CNT UBIN WORD ALIGNED ;
       16       16    1   DCL L66_BYTE BASED(L66$) CALIGNED UBIN(9);
       17       17    1   DCL L6_BYTE UBIN(8) BASED(L6$) UNAL;
       18       18    1   DCL L6$  PTR ;                          /* Pointer to L6 Land */
       19       19    1   DCL L66$ PTR ;                          /* Pointer to L66 Land */
       20       20    1   DCL CHAR1 CHAR(1) CALIGNED;
       21       21    1   DCL 1 CHARB REDEF CHAR1,
       22       22    1         2 * BIT(1),
       23       23    1         2 BITS BIT(8);
       24       24    1   DCL BUFFER (0:69) ALIGNED BIT(36);
       25       25    1   DCL MSG_SIZE (0:32) UBIN SYMREF;
       26       26        %INCLUDE XUH_MACRO_C;
       27      110        %INCLUDE DD_SD_M;
       28     1446        %S_D;
       29     2764        %S_D_PTRS;
       30     2801        %INCLUDE DD$BASED;
       31     4104        %FPRG$CONTEXT;
       32     4167        %INCLUDE GD$MSG_M;
       33     4331        %GD$MSG(FPTN=GD$MSG,STCLASS="BASED(S_D_L6_MESSAGE$)",L6=YES,L6PTR="UBIN(32) UNAL");
       34     4487    1   DCL XTBL(0:63) BIT(36) CONSTANT INIT(
       35     4488    1         '000201202003'O,'204005006207'O,'210011012213'O,'014215216017'O,
       36     4489    1         '220021022223'O,'024225226027'O,'030231232033'O,'234035036237'O,
       37     4490    1         '240041042243'O,'044245246047'O,'050251252053'O,'254055056257'O,
PL6.E3A0      #001=DDR$PACK File=DDR$CONVERT.:E05TSI                             TUE 07/29/97 14:06 Page:2
       38     4491    1         '060261262063'O,'264065066267'O,'270071072273'O,'074275276077'O,
       39     4492    1         '000201202003'O,'204005006207'O,'210011012213'O,'014215216017'O,
       40     4493    1         '220021022223'O,'024225226027'O,'030231232033'O,'234035036237'O,
       41     4494    1         '240041042243'O,'044245246047'O,'050251252053'O,'254055056257'O,
       42     4495    1         '060261262063'O,'264065066267'O,'270071072273'O,'074275276077'O,
       43     4496    1         '000201202003'O,'204005006207'O,'210011012213'O,'014215216017'O,
       44     4497    1         '220021022223'O,'024225226027'O,'030231232033'O,'234035036237'O,
       45     4498    1         '240041042243'O,'044245246047'O,'050251252053'O,'254055056257'O,
       46     4499    1         '060261262063'O,'264065066267'O,'270071072273'O,'074275276077'O,
       47     4500    1         '000201202003'O,'204005006207'O,'210011012213'O,'014215216017'O,
       48     4501    1         '220021022223'O,'024225226027'O,'030231232033'O,'234035036237'O,
       49     4502    1         '240041042243'O,'044245246047'O,'050251252053'O,'254055056257'O,
       50     4503    1         '060061062063'O,'064065066067'O,'070071072073'O,'074075076077'O);
       51     4504        /**/
       52     4505    1        IF CONTEXT$ -> FPRG$CONTEXT.XDELTA
       53     4506    2        THEN DO;
       54     4507    2             S_D.REMOTE_MSG_L6.FNC = (S_D.REMOTE_MSG.FNC.C & '176'O);
       55     4508    2             S_D.REMOTE_MSG_L6.SUBFNC = (S_D.REMOTE_MSG.SUBFNC.C & '176'O);
       56     4509    2             CALL XLATE_9_TO_6(BUFFER, XTBL, S_D.REMOTE_MSG.TXT);
       57     4510    2             S_D.REMOTE_MSG_L6.TXT = BUFFER;
       58     4511    2           END;
       59     4512    2        ELSE DO;
       60     4513                  /* Save the original pointers */
       61     4514    2             L6$    = L6PTR$ ;
       62     4515    2             L66$    = L66PTR$ ;
       63     4516    3             DO BYTE_CNT = 1 TO SIZE ;
       64     4517    3                  L6_BYTE = L66_BYTE;
       65     4518    3                  L66$ = PINCRC (L66$,1)  ;
       66     4519    3                  L6$ = PINCRB (L6$,8) ;
       67     4520    3                END ;
       68     4521    2           END;
       69     4522    1        RETURN ;
       70     4523        /**/
       71     4524    1   DDR$UNPACK: ENTRY (SIZE,L6PTR$,L66PTR$,CONTEXT$) ;
       72     4525        /**/
       73     4526    1        IF CONTEXT$ -> FPRG$CONTEXT.XDELTA
       74     4527    2        THEN DO;
PL6.E3A0      #001=DDR$PACK File=DDR$CONVERT.:E05TSI                             TUE 07/29/97 14:06 Page:3
       75     4528    2             BUFFER = S_D.REMOTE_MSG_L6.TXT;
       76     4529    2             S_D.REMOTE_MSG = '0'B;
       77     4530    2             CALL XLATE_6_TO_9(S_D.REMOTE_MSG.TXT, XTBL, BUFFER);
       78     4531    2             CHARB = '0'B;
       79     4532    2             CHARB.BITS = S_D.REMOTE_MSG_L6.FNC;
       80     4533    2             CALL XLATE(S_D.REMOTE_MSG.FNCC, XTBL, CHAR1);
       81     4534    2             CHARB = '0'B;
       82     4535    2             CHARB.BITS = S_D.REMOTE_MSG_L6.SUBFNC;
       83     4536    2             CALL XLATE(S_D.REMOTE_MSG.SUBFNCC ,XTBL,  CHAR1);
       84     4537    2             CALL INSERT(S_D.REMOTE_MSG.STXC, 0, 1, BINASC(66));
       85     4538    2             IF GD$MSG.FNC > 32
       86     4539    2             THEN BYTE_CNT = 410;
       87     4540    2             ELSE BYTE_CNT = MSG_SIZE(GD$MSG.FNC) - 4;
       88     4541    2             CALL INSERT(S_D.REMOTE_MSG.TXT, BYTE_CNT, 1, BINASC(195));
       89     4542    2           END;
       90     4543    2        ELSE DO;
       91     4544    2             L66$ = L66PTR$;
       92     4545    2             L6$ = L6PTR$;
       93     4546    3             DO BYTE_CNT = 1 TO SIZE ;
       94     4547    3                  L66_BYTE = L6_BYTE ;
       95     4548    3                  L66$ = PINCRC (L66$,1)  ;
       96     4549    3                  L6$ = PINCRB (L6$,8) ;
       97     4550    3                END ;
       98     4551    2           END;
       99     4552    1        RETURN ;
      100     4553    1   END DDR$PACK  ;

PL6.E3A0      #001=DDR$PACK File=DDR$CONVERT.:E05TSI                             TUE 07/29/97 14:06 Page:4
--  Include file information  --

   GD$MSG_M.:E05TOU  is referenced.
   DD$BASED.:E05TOU  is referenced.
   DD_SD_M.:E05TOU  is referenced.
   XUH_MACRO_C.:E05TOU  is referenced.
   B$JIT_C.:E05TOU  was found in the system file and is never referenced.
   CP_6_C.:E05TOU  was found in the system file and is never referenced.
      No diagnostics issued in procedure DDR$PACK.

   Procedure DDR$PACK requires 146 words for executable code.
   Procedure DDR$PACK requires 82 words of local(AUTO) storage.

    No errors detected in file DDR$CONVERT.:E05TSI    .

PL6.E3A0      #001=DDR$PACK File=DDR$CONVERT.:E05TSI                             TUE 07/29/97 14:06 Page:5

 Object Unit name= DDR$PACK                                   File name= DDR$CONVERT.:E05TOU
 UTS= JUL 29 '97 14:06:54.32 TUE                              Compiler= PL-6/E31         Sev=      00
 SharedLib= :SHARED_SYSTEM                                    Alt SharedLib=


    ****  Control sections  ****

 Sect   Type Bound  Init  Size OctSiz  Section name(segment info)
    0  RoData even  UTS     64    100  DDR$PACK
    1   Proc  even  none   146    222  DDR$PACK
    2  RoData even  none     1      1  DDR$PACK

    ****  Entry defs  ****

                              Check   Calling
                             calling  sequence
  Sect OctLoc Primary Altret sequence   type   Parms  Name
     1      0   yes            yes      Std        4  DDR$PACK
     1     73                  yes      Std        4  DDR$UNPACK

  ****  Entry refs  ****

         Check        Calling
        calling       sequence
Altret sequence SRef   type   Args  Name
                       nStd      0 X66_AUTO_4
                       nStd      0 X66_ARET
                       Std       0 B_CONSPOOL_D

  ****  Data refs  ****

  Flags:  r = read only, s = secondary
Flgs Name                             Flgs Name                             Flgs Name
     MSG_SIZE                         r    S_D$                             r    S_D_L6_MESSAGE$
     B_VECTNIL
PL6.E3A0      #001=DDR$PACK File=DDR$CONVERT.:E05TSI                             TUE 07/29/97 14:06 Page:6


        1        1        /*M* DDR$CONVERT - Utility module to compensate for L66/L6 word size */
        2        2        /*T***********************************************************/
        3        3        /*T*                                                         */
        4        4        /*T* Copyright (c) Bull HN Information Systems Inc., 1997    */
        5        5        /*T*                                                         */
        6        6        /*T***********************************************************/
        7        7        DDR$PACK: PROC (SIZE,L6PTR$,L66PTR$,CONTEXT$) ;

      7  1 000000   000000 700200 xent  DDR$PACK     TSX0  ! X66_AUTO_4
         1 000001   000122 000004                    ZERO    82,4

        8        8        /**/
        9        9    1   DCL SIZE UBIN WORD ALIGNED ;   /* Number of L66 bytes for DDR$PACK,
       10       10                                          Number of L6 bytes for DDR$UNPACK */
       11       11    1   DCL L6PTR$  PTR ;
       12       12    1   DCL L66PTR$ PTR;
       13       13    1   DCL CONTEXT$ PTR;
       14       14        /**/
       15       15    1   DCL BYTE_CNT UBIN WORD ALIGNED ;
       16       16    1   DCL L66_BYTE BASED(L66$) CALIGNED UBIN(9);
       17       17    1   DCL L6_BYTE UBIN(8) BASED(L6$) UNAL;
       18       18    1   DCL L6$  PTR ;                          /* Pointer to L6 Land */
       19       19    1   DCL L66$ PTR ;                          /* Pointer to L66 Land */
       20       20    1   DCL CHAR1 CHAR(1) CALIGNED;
       21       21    1   DCL 1 CHARB REDEF CHAR1,
       22       22    1         2 * BIT(1),
       23       23    1         2 BITS BIT(8);
       24       24    1   DCL BUFFER (0:69) ALIGNED BIT(36);
       25       25    1   DCL MSG_SIZE (0:32) UBIN SYMREF;
       26       26        %INCLUDE XUH_MACRO_C;
       27      110        %INCLUDE DD_SD_M;
       28     1446        %S_D;
       29     2764        %S_D_PTRS;
       30     2801        %INCLUDE DD$BASED;
       31     4104        %FPRG$CONTEXT;
       32     4167        %INCLUDE GD$MSG_M;
PL6.E3A0      #001=DDR$PACK File=DDR$CONVERT.:E05TSI                             TUE 07/29/97 14:06 Page:7
       33     4331        %GD$MSG(FPTN=GD$MSG,STCLASS="BASED(S_D_L6_MESSAGE$)",L6=YES,L6PTR="UBIN(32) UNAL");
       34     4487    1   DCL XTBL(0:63) BIT(36) CONSTANT INIT(
       35     4488    1         '000201202003'O,'204005006207'O,'210011012213'O,'014215216017'O,
       36     4489    1         '220021022223'O,'024225226027'O,'030231232033'O,'234035036237'O,
       37     4490    1         '240041042243'O,'044245246047'O,'050251252053'O,'254055056257'O,
       38     4491    1         '060261262063'O,'264065066267'O,'270071072273'O,'074275276077'O,
       39     4492    1         '000201202003'O,'204005006207'O,'210011012213'O,'014215216017'O,
       40     4493    1         '220021022223'O,'024225226027'O,'030231232033'O,'234035036237'O,
       41     4494    1         '240041042243'O,'044245246047'O,'050251252053'O,'254055056257'O,
       42     4495    1         '060261262063'O,'264065066267'O,'270071072273'O,'074275276077'O,
       43     4496    1         '000201202003'O,'204005006207'O,'210011012213'O,'014215216017'O,
       44     4497    1         '220021022223'O,'024225226027'O,'030231232033'O,'234035036237'O,
       45     4498    1         '240041042243'O,'044245246047'O,'050251252053'O,'254055056257'O,
       46     4499    1         '060261262063'O,'264065066267'O,'270071072273'O,'074275276077'O,
       47     4500    1         '000201202003'O,'204005006207'O,'210011012213'O,'014215216017'O,
       48     4501    1         '220021022223'O,'024225226027'O,'030231232033'O,'234035036237'O,
       49     4502    1         '240041042243'O,'044245246047'O,'050251252053'O,'254055056257'O,
       50     4503    1         '060061062063'O,'064065066067'O,'070071072073'O,'074075076077'O);
       51     4504        /**/
       52     4505    1        IF CONTEXT$ -> FPRG$CONTEXT.XDELTA

   4505  1 000002   200006 470500                    LDP0    @CONTEXT$,,AUTO
         1 000003   000000 471500                    LDP1    0,,PR0
         1 000004   100001 236100                    LDQ     1,,PR1
         1 000005   002000 316003                    CANQ    1024,DU
         1 000006   000037 600000 1                  TZE     s:4514

       53     4506    2        THEN DO;

       54     4507    2             S_D.REMOTE_MSG_L6.FNC = (S_D.REMOTE_MSG.FNC.C & '176'O);

   4507  1 000007   000000 473400 xsym               LDP3    S_D$
         1 000010   306435 236100                    LDQ     3357,,PR3
         1 000011   000012 736000                    QLS     10
         1 000012   776000 376003                    ANQ     -1024,DU
         1 000013   176000 376003                    ANQ     64512,DU
         1 000014   306605 676100                    ERQ     3461,,PR3
PL6.E3A0      #001=DDR$PACK File=DDR$CONVERT.:E05TSI                             TUE 07/29/97 14:06 Page:8
         1 000015   776000 376003                    ANQ     -1024,DU
         1 000016   306605 656100                    ERSQ    3461,,PR3

       55     4508    2             S_D.REMOTE_MSG_L6.SUBFNC = (S_D.REMOTE_MSG.SUBFNC.C & '176'O);

   4508  1 000017   306435 236100                    LDQ     3357,,PR3
         1 000020   000023 736000                    QLS     19
         1 000021   776000 376003                    ANQ     -1024,DU
         1 000022   176000 376003                    ANQ     64512,DU
         1 000023   000010 772000                    QRL     8
         1 000024   306605 676100                    ERQ     3461,,PR3
         1 000025   001774 376003                    ANQ     1020,DU
         1 000026   306605 656100                    ERSQ    3461,,PR3

       56     4509    2             CALL XLATE_9_TO_6(BUFFER, XTBL, S_D.REMOTE_MSG.TXT);

   4509  1 000027   040100 160500                    MVT     fill='040'O
         1 000030   306435 600634                    ADSC9   3357,,PR3                cn=3,n=412
         1 000031   200013 020644                    ADSC6   BUFFER,,AUTO             cn=0,n=420
         1 000032   000000 000000 0                  ARG     XTBL

       57     4510    2             S_D.REMOTE_MSG_L6.TXT = BUFFER;

   4510  1 000033   003100 060500                    CSL     bolr='003'O
         1 000034   200013 004700                    BDSC    BUFFER,,AUTO             by=0,bit=0,n=2496
         1 000035   306605 274700                    BDSC    3461,,PR3                by=1,bit=7,n=2496

       58     4511    2           END;

   4511  1 000036   000072 710000 1                  TRA     s:4522

       59     4512    2        ELSE DO;

       60     4513                  /* Save the original pointers */
       61     4514    2             L6$    = L6PTR$ ;

   4514  1 000037   200004 473500                    LDP3    @L6PTR$,,AUTO
PL6.E3A0      #001=DDR$PACK File=DDR$CONVERT.:E05TSI                             TUE 07/29/97 14:06 Page:9
         1 000040   300000 236100                    LDQ     0,,PR3
         1 000041   200010 756100                    STQ     L6$,,AUTO

       62     4515    2             L66$    = L66PTR$ ;

   4515  1 000042   200005 474500                    LDP4    @L66PTR$,,AUTO
         1 000043   400000 236100                    LDQ     0,,PR4
         1 000044   200011 756100                    STQ     L66$,,AUTO

       63     4516    3             DO BYTE_CNT = 1 TO SIZE ;

   4516  1 000045   000001 235007                    LDA     1,DL
         1 000046   200007 755100                    STA     BYTE_CNT,,AUTO
         1 000047   000066 710000 1                  TRA     s:4520+3

       64     4517    3                  L6_BYTE = L66_BYTE;

   4517  1 000050   200011 470500                    LDP0    L66$,,AUTO
         1 000051   200010 471500                    LDP1    L6$,,AUTO
         1 000052   003100 061500                    CSR     bolr='003'O
         1 000053   000000 000011                    BDSC    0,,PR0                   by=0,bit=0,n=9
         1 000054   100000 000010                    BDSC    0,,PR1                   by=0,bit=0,n=8

       65     4518    3                  L66$ = PINCRC (L66$,1)  ;

   4518  1 000055   200011 236100                    LDQ     L66$,,AUTO
         1 000056   200000 036007                    ADLQ    65536,DL
         1 000057   200011 756100                    STQ     L66$,,AUTO

       66     4519    3                  L6$ = PINCRB (L6$,8) ;

   4519  1 000060   000010 220003                    LDX0    8,DU
         1 000061   100000 503510                    ABD     0,X0,PR1
         1 000062   200010 451500                    STP1    L6$,,AUTO

       67     4520    3                END ;

PL6.E3A0      #001=DDR$PACK File=DDR$CONVERT.:E05TSI                             TUE 07/29/97 14:06 Page:10
   4520  1 000063   200007 235100                    LDA     BYTE_CNT,,AUTO
         1 000064   000001 035007                    ADLA    1,DL
         1 000065   200007 755100                    STA     BYTE_CNT,,AUTO
         1 000066   200003 470500                    LDP0    @SIZE,,AUTO
         1 000067   000000 236100                    LDQ     0,,PR0
         1 000070   200007 116100                    CMPQ    BYTE_CNT,,AUTO
         1 000071   000050 603000 1                  TRC     s:4517

       68     4521    2           END;

       69     4522    1        RETURN ;

   4522  1 000072   000000 702200 xent               TSX2  ! X66_ARET

       70     4523        /**/
       71     4524    1   DDR$UNPACK: ENTRY (SIZE,L6PTR$,L66PTR$,CONTEXT$) ;

   4524  1 000073   000000 700200 xent  DDR$UNPACK   TSX0  ! X66_AUTO_4
         1 000074   000122 000004                    ZERO    82,4

       72     4525        /**/
       73     4526    1        IF CONTEXT$ -> FPRG$CONTEXT.XDELTA

   4526  1 000075   200006 470500                    LDP0    @CONTEXT$,,AUTO
         1 000076   000000 471500                    LDP1    0,,PR0
         1 000077   100001 236100                    LDQ     1,,PR1
         1 000100   002000 316003                    CANQ    1024,DU
         1 000101   000166 600000 1                  TZE     s:4544

       74     4527    2        THEN DO;

       75     4528    2             BUFFER = S_D.REMOTE_MSG_L6.TXT;

   4528  1 000102   000000 473400 xsym               LDP3    S_D$
         1 000103   003100 060500                    CSL     bolr='003'O
         1 000104   306605 274700                    BDSC    3461,,PR3                by=1,bit=7,n=2496
         1 000105   200013 004730                    BDSC    BUFFER,,AUTO             by=0,bit=0,n=2520
PL6.E3A0      #001=DDR$PACK File=DDR$CONVERT.:E05TSI                             TUE 07/29/97 14:06 Page:11

       76     4529    2             S_D.REMOTE_MSG = '0'B;

   4529  1 000106   000100 100400                    MLR     fill='000'O
         1 000107   000002 000001 xsym               ADSC9   B_VECTNIL+2              cn=0,n=1
         1 000110   306435 000637                    ADSC9   3357,,PR3                cn=0,n=415

       77     4530    2             CALL XLATE_6_TO_9(S_D.REMOTE_MSG.TXT, XTBL, BUFFER);

   4530  1 000111   020100 160500                    MVT     fill='020'O
         1 000112   200013 020644                    ADSC6   BUFFER,,AUTO             cn=0,n=420
         1 000113   306435 600634                    ADSC9   3357,,PR3                cn=3,n=412
         1 000114   000000 000000 0                  ARG     XTBL

       78     4531    2             CHARB = '0'B;

   4531  1 000115   000000 236003                    LDQ     0,DU
         1 000116   200012 552140                    STBQ    CHAR1,'40'O,AUTO

       79     4532    2             CHARB.BITS = S_D.REMOTE_MSG_L6.FNC;

   4532  1 000117   306605 236100                    LDQ     3461,,PR3
         1 000120   000001 772000                    QRL     1
         1 000121   200012 676100                    ERQ     CHAR1,,AUTO
         1 000122   377000 376003                    ANQ     130560,DU
         1 000123   200012 656100                    ERSQ    CHAR1,,AUTO

       80     4533    2             CALL XLATE(S_D.REMOTE_MSG.FNCC, XTBL, CHAR1);

   4533  1 000124   040100 160500                    MVT     fill='040'O
         1 000125   200012 000001                    ADSC9   CHAR1,,AUTO              cn=0,n=1
         1 000126   306435 200001                    ADSC9   3357,,PR3                cn=1,n=1
         1 000127   000000 000000 0                  ARG     XTBL

       81     4534    2             CHARB = '0'B;

   4534  1 000130   000000 236003                    LDQ     0,DU
PL6.E3A0      #001=DDR$PACK File=DDR$CONVERT.:E05TSI                             TUE 07/29/97 14:06 Page:12
         1 000131   200012 552140                    STBQ    CHAR1,'40'O,AUTO

       82     4535    2             CHARB.BITS = S_D.REMOTE_MSG_L6.SUBFNC;

   4535  1 000132   306605 236100                    LDQ     3461,,PR3
         1 000133   000007 736000                    QLS     7
         1 000134   200012 676100                    ERQ     CHAR1,,AUTO
         1 000135   377000 376003                    ANQ     130560,DU
         1 000136   200012 656100                    ERSQ    CHAR1,,AUTO

       83     4536    2             CALL XLATE(S_D.REMOTE_MSG.SUBFNCC ,XTBL,  CHAR1);

   4536  1 000137   040100 160500                    MVT     fill='040'O
         1 000140   200012 000001                    ADSC9   CHAR1,,AUTO              cn=0,n=1
         1 000141   306435 400001                    ADSC9   3357,,PR3                cn=2,n=1
         1 000142   000000 000000 0                  ARG     XTBL

       84     4537    2             CALL INSERT(S_D.REMOTE_MSG.STXC, 0, 1, BINASC(66));

   4537  1 000143   102000 236003                    LDQ     33792,DU
         1 000144   306435 552140                    STBQ    3357,'40'O,PR3

       85     4538    2             IF GD$MSG.FNC > 32

   4538  1 000145   000000 471400 xsym               LDP1    S_D_L6_MESSAGE$
         1 000146   100000 236100                    LDQ     0,,PR1
         1 000147   776000 376003                    ANQ     -1024,DU
         1 000150   102000 116003                    CMPQ    33792,DU
         1 000151   000155 602000 1                  TNC     s:4540

       86     4539    2             THEN BYTE_CNT = 410;

   4539  1 000152   000632 235007                    LDA     410,DL
         1 000153   200007 755100                    STA     BYTE_CNT,,AUTO
         1 000154   000162 710000 1                  TRA     s:4541

       87     4540    2             ELSE BYTE_CNT = MSG_SIZE(GD$MSG.FNC) - 4;
PL6.E3A0      #001=DDR$PACK File=DDR$CONVERT.:E05TSI                             TUE 07/29/97 14:06 Page:13

   4540  1 000155   100000 236100                    LDQ     0,,PR1
         1 000156   000034 772000                    QRL     28
         1 000157   000000 235006 xsym               LDA     MSG_SIZE,QL
         1 000160   000004 135007                    SBLA    4,DL
         1 000161   200007 755100                    STA     BYTE_CNT,,AUTO

       88     4541    2             CALL INSERT(S_D.REMOTE_MSG.TXT, BYTE_CNT, 1, BINASC(195));

   4541  1 000162   040105 100400                    MLR     fill='040'O
         1 000163   000000 000001 2                  ADSC9   0                        cn=0,n=1
         1 000164   306435 600001                    ADSC9   3357,A,PR3               cn=3,n=1

       89     4542    2           END;

   4542  1 000165   000221 710000 1                  TRA     s:4552

       90     4543    2        ELSE DO;

       91     4544    2             L66$ = L66PTR$;

   4544  1 000166   200005 473500                    LDP3    @L66PTR$,,AUTO
         1 000167   300000 236100                    LDQ     0,,PR3
         1 000170   200011 756100                    STQ     L66$,,AUTO

       92     4545    2             L6$ = L6PTR$;

   4545  1 000171   200004 474500                    LDP4    @L6PTR$,,AUTO
         1 000172   400000 236100                    LDQ     0,,PR4
         1 000173   200010 756100                    STQ     L6$,,AUTO

       93     4546    3             DO BYTE_CNT = 1 TO SIZE ;

   4546  1 000174   000001 235007                    LDA     1,DL
         1 000175   200007 755100                    STA     BYTE_CNT,,AUTO
         1 000176   000215 710000 1                  TRA     s:4550+3

PL6.E3A0      #001=DDR$PACK File=DDR$CONVERT.:E05TSI                             TUE 07/29/97 14:06 Page:14
       94     4547    3                  L66_BYTE = L6_BYTE ;

   4547  1 000177   200010 470500                    LDP0    L6$,,AUTO
         1 000200   200011 471500                    LDP1    L66$,,AUTO
         1 000201   003100 061500                    CSR     bolr='003'O
         1 000202   000000 000010                    BDSC    0,,PR0                   by=0,bit=0,n=8
         1 000203   100000 000011                    BDSC    0,,PR1                   by=0,bit=0,n=9

       95     4548    3                  L66$ = PINCRC (L66$,1)  ;

   4548  1 000204   200011 236100                    LDQ     L66$,,AUTO
         1 000205   200000 036007                    ADLQ    65536,DL
         1 000206   200011 756100                    STQ     L66$,,AUTO

       96     4549    3                  L6$ = PINCRB (L6$,8) ;

   4549  1 000207   000010 220003                    LDX0    8,DU
         1 000210   000000 503510                    ABD     0,X0,PR0
         1 000211   200010 450500                    STP0    L6$,,AUTO

       97     4550    3                END ;

   4550  1 000212   200007 235100                    LDA     BYTE_CNT,,AUTO
         1 000213   000001 035007                    ADLA    1,DL
         1 000214   200007 755100                    STA     BYTE_CNT,,AUTO
         1 000215   200003 470500                    LDP0    @SIZE,,AUTO
         1 000216   000000 236100                    LDQ     0,,PR0
         1 000217   200007 116100                    CMPQ    BYTE_CNT,,AUTO
         1 000220   000177 603000 1                  TRC     s:4547

       98     4551    2           END;

       99     4552    1        RETURN ;

   4552  1 000221   000000 702200 xent               TSX2  ! X66_ARET

XTBL
PL6.E3A0      #001=DDR$PACK File=DDR$CONVERT.:E05TSI                             TUE 07/29/97 14:06 Page:15
 Sect OctLoc
   0     000   000201 202003   204005 006207   210011 012213   014215 216017    ................
   0     004   220021 022223   024225 226027   030231 232033   234035 036237    ................
   0     010   240041 042243   044245 246047   050251 252053   254055 056257    .!".$..'(..+.-..
   0     014   060261 262063   264065 066267   270071 072273   074275 276077    0..3.56..9:.<..?
   0     020   000201 202003   204005 006207   210011 012213   014215 216017    ................
   0     024   220021 022223   024225 226027   030231 232033   234035 036237    ................
   0     030   240041 042243   044245 246047   050251 252053   254055 056257    .!".$..'(..+.-..
   0     034   060261 262063   264065 066267   270071 072273   074275 276077    0..3.56..9:.<..?
   0     040   000201 202003   204005 006207   210011 012213   014215 216017    ................
   0     044   220021 022223   024225 226027   030231 232033   234035 036237    ................
   0     050   240041 042243   044245 246047   050251 252053   254055 056257    .!".$..'(..+.-..
   0     054   060261 262063   264065 066267   270071 072273   074275 276077    0..3.56..9:.<..?
   0     060   000201 202003   204005 006207   210011 012213   014215 216017    ................
   0     064   220021 022223   024225 226027   030231 232033   234035 036237    ................
   0     070   240041 042243   044245 246047   050251 252053   254055 056257    .!".$..'(..+.-..
   0     074   060061 062063   064065 066067   070071 072073   074075 076077    0123456789:;<=>?

(unnamed)
 Sect OctLoc
   2     000   303040 040040                                                    .
      100     4553    1   END DDR$PACK  ;

PL6.E3A0      #001=DDR$PACK File=DDR$CONVERT.:E05TSI                             TUE 07/29/97 14:06 Page:16
--  Include file information  --

   GD$MSG_M.:E05TOU  is referenced.
   DD$BASED.:E05TOU  is referenced.
   DD_SD_M.:E05TOU  is referenced.
   XUH_MACRO_C.:E05TOU  is referenced.
   B$JIT_C.:E05TOU  was found in the system file and is never referenced.
   CP_6_C.:E05TOU  was found in the system file and is never referenced.
      No diagnostics issued in procedure DDR$PACK.

   Procedure DDR$PACK requires 146 words for executable code.
   Procedure DDR$PACK requires 82 words of local(AUTO) storage.

    No errors detected in file DDR$CONVERT.:E05TSI    .
PL6.E3A0      #001=DDR$PACK File=DDR$CONVERT.:E05TSI                             TUE 07/29/97 14:06 Page:17
          *** CROSS REFERENCE LISTING ***
**     DENOTES     IDENTIFIER DEFINITION
<<                 IDENTIFIER'S VALUE SET
>>                 IDENTIFIER'S VALUE USED
<>                 IDENTIFIER SET AND/OR USED
--                 IDENTIFIER REFERENCED
PL6.E3A0      #001=DDR$PACK File=DDR$CONVERT.:E05TSI                             TUE 07/29/97 14:06 Page:18
          MINI XREF LISTING

BUFFER
        24**DCL      4509<<CALLBLT  4510>>ASSIGN   4528<<ASSIGN   4530>>CALLBLT
BYTE_CNT
        15**DCL      4516<<DOINDEX  4539<<ASSIGN   4540<<ASSIGN   4541>>CALLBLT  4546<<DOINDEX
CHAR1
        20**DCL        21--REDEF    4533>>CALLBLT  4536>>CALLBLT
CHARB
        21**DCL      4531<<ASSIGN   4534<<ASSIGN
CHARB.BITS
        23**DCL      4532<<ASSIGN   4535<<ASSIGN
CONTEXT$
        13**DCL         7--PROC     4505>>IF       4524--ENTRY    4526>>IF
FPRG$CONTEXT.XDELTA
      4118**DCL      4505>>IF       4526>>IF
GD$MSG.BRKRQS.IF$CONST.SIZE
      4399**DCL      4399--REDEF
GD$MSG.BRKRQS.IF$CONST.TEXT
      4399**DCL      4400--REDEF    4400--REDEF    4401--REDEF    4402--REDEF
GD$MSG.BRKRSP.BRK#
      4413**DCL      4413--REDEF
GD$MSG.BRKRSP.USER#
      4413**DCL      4413--REDEF
GD$MSG.FNC
      4348**DCL      4538>>IF       4540>>ASSIGN
GD$MSG.LETMEM_D.VALUE.SIZE
      4371**DCL      4371--REDEF
GD$MSG.LETMEM_D.VALUE.TEXT
      4372**DCL      4372--REDEF    4372--REDEF    4373--REDEF    4374--REDEF
GD$MSG.MESSAGE
      4353**DCL      4353--REDEF    4354--REDEF    4354--REDEF    4355--REDEF    4366--REDEF    4379--REDEF
      4384--REDEF    4391--REDEF    4407--REDEF    4412--REDEF    4418--REDEF    4419--REDEF    4448--REDEF
      4450--REDEF    4461--REDEF    4468--REDEF    4480--REDEF
PL6.E3A0      #001=DDR$PACK File=DDR$CONVERT.:E05TSI                             TUE 07/29/97 14:06 Page:19
GD$MSG.SUBFNC
      4348**DCL      4348--REDEF    4352--REDEF
GD$MSG.TSA.I
      4420**DCL      4420--REDEF
GD$MSG.TSA.S
      4422**DCL      4422--REDEF
GD$MSG.USERQS.ASDT$
      4448**DCL      4448--REDEF    4449--REDEF
L6$
        18**DCL        17--IMP-PTR  4514<<ASSIGN   4517>>ASSIGN   4519<<ASSIGN   4519>>ASSIGN   4545<<ASSIGN
      4547>>ASSIGN   4549<<ASSIGN   4549>>ASSIGN
L66$
        19**DCL        16--IMP-PTR  4515<<ASSIGN   4517>>ASSIGN   4518<<ASSIGN   4518>>ASSIGN   4544<<ASSIGN
      4547>>ASSIGN   4548<<ASSIGN   4548>>ASSIGN
L66PTR$
        12**DCL         7--PROC     4515>>ASSIGN   4524--ENTRY    4544>>ASSIGN
L66_BYTE
        16**DCL      4517>>ASSIGN   4547<<ASSIGN
L6PTR$
        11**DCL         7--PROC     4514>>ASSIGN   4524--ENTRY    4545>>ASSIGN
L6_BYTE
        17**DCL      4517<<ASSIGN   4547>>ASSIGN
MSG_SIZE
        25**DCL      4540>>ASSIGN
SIZE
         9**DCL         7--PROC     4516>>DOINDEX  4524--ENTRY    4546>>DOINDEX
S_D.CURRENT_CHANNEL
      2398**DCL      2400--REDEF
S_D.DEBUGA
      1550**DCL      1552--REDEF
S_D.EIS
      2508**DCL      2537--REDEF
S_D.HOST_MESSAGE_BUF_REMOTE
      2441**DCL      2442--REDEF    2456--REDEF
S_D.JDE
      2055**DCL      2056--REDEF
PL6.E3A0      #001=DDR$PACK File=DDR$CONVERT.:E05TSI                             TUE 07/29/97 14:06 Page:20
S_D.L$.VALUE
      1608**DCL      1614--REDEF    1622--REDEF    1625--REDEF    1628--REDEF    1631--REDEF
S_D.L$.VALUE.L
      1609**DCL      1610--REDEF    1611--REDEF
S_D.L6_MESSAGE_BUF
      2462**DCL      2464--REDEF
S_D.OUTPUT
      2428**DCL      2430--REDEF
S_D.REMOTE_MSG
      2442**DCL      4529<<ASSIGN
S_D.REMOTE_MSG.FNC.C
      2450**DCL      4507>>ASSIGN
S_D.REMOTE_MSG.FNCC
      2447**DCL      2448--REDEF    4533<<CALLBLT
S_D.REMOTE_MSG.STXC
      2443**DCL      2444--REDEF    4537<<CALLBLT
S_D.REMOTE_MSG.SUBFNC.C
      2454**DCL      4508>>ASSIGN
S_D.REMOTE_MSG.SUBFNCC
      2451**DCL      2452--REDEF    4536<<CALLBLT
S_D.REMOTE_MSG.TXT
      2455**DCL      4509>>CALLBLT  4530<<CALLBLT  4541<<CALLBLT
S_D.REMOTE_MSG_L6.FNC
      2466**DCL      4507<<ASSIGN   4532>>ASSIGN
S_D.REMOTE_MSG_L6.SUBFNC
      2467**DCL      4508<<ASSIGN   4535>>ASSIGN
S_D.REMOTE_MSG_L6.TXT
      2468**DCL      4510<<ASSIGN   4528>>ASSIGN
S_D.SV
      1507**DCL      1528--REDEF
S_D$
      2759**DCL      1455--IMP-PTR  4507>>ASSIGN   4507>>ASSIGN   4508>>ASSIGN   4508>>ASSIGN   4509>>CALLBLT
      4510>>ASSIGN   4528>>ASSIGN   4529>>ASSIGN   4530>>CALLBLT  4532>>ASSIGN   4533>>CALLBLT  4535>>ASSIGN
      4536>>CALLBLT  4537>>CALLBLT  4541>>CALLBLT
S_D_L6_MESSAGE$
      2796**DCL      4348--IMP-PTR  4538>>IF       4540>>ASSIGN
PL6.E3A0      #001=DDR$PACK File=DDR$CONVERT.:E05TSI                             TUE 07/29/97 14:06 Page:21
XTBL
      4487**DCL      4509>>CALLBLT  4530>>CALLBLT  4533>>CALLBLT  4536>>CALLBLT
PL6.E3A0      #001=DDR$PACK File=DDR$CONVERT.:E05TSI                             TUE 07/29/97 14:06 Page:22
              *** CROSS REFERENCE LISTING ***
    **     DENOTES     IDENTIFIER DEFINITION
    <<                 IDENTIFIER'S VALUE SET
    >>                 IDENTIFIER'S VALUE USED
    <>                 IDENTIFIER SET AND/OR USED
    --                 IDENTIFIER REFERENCED
PL6.E3A0      #001=DDR$PACK File=DDR$CONVERT.:E05TSI                             TUE 07/29/97 14:06 Page:23
              MINI UREF LISTING

DDR$PACK       7**PROC
DDR$UNPACK    4524**ENTRY
S_D_ACCESS$    2774**DCL
S_D_ANLZ$    2776**DCL
S_D_ASTACKOFF$    2775**DCL
S_D_BREAK$    2777**DCL
S_D_DO_SCAN$    2778**DCL
S_D_ERROR$    2779**DCL
S_D_FAULTCMD$$    2780**DCL
S_D_FAULTINS$$    2781**DCL
S_D_GOIC$    2782**DCL
S_D_GO_MODE$    2783**DCL
S_D_HOST_MESSAGE$    2795**DCL
S_D_HW_PTB_UNITS$    2799**DCL
S_D_HW_RES_MEM$    2797**DCL
S_D_HW_WSQ0PT$    2798**DCL
S_D_IPRFLT$    2785**DCL
S_D_IXFIX$    2784**DCL
S_D_REM_ACCESS$    2786**DCL
S_D_REM_DISKBOOT$    2788**DCL
S_D_REM_DO_SCAN$    2787**DCL
S_D_RETURNN$    2789**DCL
S_D_SAD$    2790**DCL
S_D_SAVEIC$    2791**DCL
S_D_SEG$    2773**DCL
S_D_TCB$$    2792**DCL
S_D_UREG$$    2793**DCL
S_D_USS$$    2794**DCL
