PL6.E3A0      #001=DDR$INSTR File=DDR$INSTR.:E05TSI                              TUE 07/29/97 14:07 Page:1
        1        1        /*M* DDR$INSTR REPORT INSTRUCTION ROUTINE */
        2        2        /*T***********************************************************/
        3        3        /*T*                                                         */
        4        4        /*T* Copyright (c) Bull HN Information Systems Inc., 1997    */
        5        5        /*T*                                                         */
        6        6        /*T***********************************************************/
        7        7        /*D*  NAME:  DDR$INSTR
        8        8              CALL:  CALL DDR$INSTR(INS)   ALTRET(TOO_BIG)
        9        9              INPUT: INS is the instruction to be formatted
       10       10                     S_D.D$ is the buffer pointer
       11       11                     S_D.DESCL$ is the pointer to the end of the buffer
       12       12              OUTPUT:The formatted instruction is sent to the buffer
       13       13              DESCRIPTION:  The length of the instruction is determined
       14       14                     from the op code table.  multi-word instructions
       15       15                     are handled separately.  Single word instructions
       16       16                     have two general cases: IT modification and non IT
       17       17                     (I.E., R, RI or IR) modification. An attempt is
       18       18                     made to put out each significant field symbolically in
       19       19                     the form
       20       20                           OP! yfield,tag,PR
       21       21                     if there is not enough buffer for this representation
       22       22                     or if it is inappropriate to put out the yfield
       23       23                  symbolically (IC, DU, DL, or IT, or AR) then octal representation
       24       24                     is used.  An ALTRET is taken if octal cant happen.
       25       25
       26       26                     If we're in MODIFY, then EIS instructions will set a
       27       27                     flag so that <lf>'s will decode the DSC's associated with
       28       28                     the EIS instruction.
       29       29                     */
       30       30        DDR$INSTR: PROC(INS)   ALTRET;
       31       31    1   DCL INS BIT(36) ALIGNED;
       32       32        %INCLUDE DD$BASED;
       33     1335        %HOST_INSTR(NAME=INSTR,STCLASS="");
       34     1357    1   DCL 1 EIS0 REDEF INSTR,
       35     1358    1         2 FP BIT(1) UNAL,
       36     1359    1         2 * BIT(1) UNAL,
       37     1360    1         2 MF3 BIT(7) UNAL,
PL6.E3A0      #001=DDR$INSTR File=DDR$INSTR.:E05TSI                              TUE 07/29/97 14:07 Page:2
       38     1361    1         2 T BIT(1) UNAL,
       39     1362    1         2 RD BIT(1) UNAL,
       40     1363    1         2 MF2 BIT(7) UNAL,
       41     1364    1         2 OP BIT(10) UNAL,
       42     1365    1         2 I BIT(1) UNAL,
       43     1366    1         2 MF1 BIT(7) UNAL;
       44     1367    1   DCL 1 EIS1 REDEF INSTR,
       45     1368    1         2 FILL UBIN(9) UNAL,
       46     1369    1         2 BOLR REDEF FILL,
       47     1370    1           3 * BIT(5) UNAL,
       48     1371    1           3 X UBIN(4) UNAL,
       49     1372    1         2 * BIT(27) UNAL;
       50     1373    1   DCL 1 CLIMB0 REDEF INSTR,
       51     1374    1         2 ALT BIT(1),
       52     1375    1         2 X0 UBIN(17) UNAL,
       53     1376    1         2 * BIT(18);
       54     1377    1   DCL 1 CLIMB1 REDEF INSTR,
       55     1378    1         2 E BIT(1) UNAL,
       56     1379    1         2 P UBIN(9) UNAL,
       57     1380    1         2 * BIT(8) UNAL,
       58     1381    1         2 X0 BIT(1) UNAL,
       59     1382    1         2 NOSL BIT(1) UNAL,
       60     1383    1         2 * BIT(2) UNAL,
       61     1384    1         2 OP UBIN(2) UNAL,
       62     1385    1         2 SID UBIN(12) UNAL;
       63     1386        %ADSC_INSTR(STCLASS="REDEF INSTR");
       64     1394        %BDSC_INSTR(STCLASS="REDEF INSTR");
       65     1401        %NDSC_INSTR(STCLASS="REDEF INSTR");
       66     1410        %SDSC_INSTR(STCLASS="REDEF INSTR");
       67     1419        %VDSC_INSTR(STCLASS="REDEF INSTR");
       68     1426        %ARG_INSTR(STCLASS="REDEF INSTR");
       69     1434    1   DCL TAGS(0:63) CHAR(4) CONSTANT ALIGNED INIT
       70     1435    1   ('    ',',AU ',',QU ',',DU ',',IC ',',AL ',',QL ',',DL ',
       71     1436    1    ',X0 ',',X1 ',',X2 ',',X3 ',',X4 ',',X5 ',',X6 ',',X7 ',
       72     1437    1    ',N* ',',AU*',',QU*',',.23',',IC*',',AL*',',QL*',',.27',
       73     1438    1    ',X0*',',X1*',',X2*',',X3*',',X4*',',X5*',',X6*',',X7*',
       74     1439    1    ',F  ',',.41',',.42',',.43',',SD ',',SCR',',.46',',.47',
PL6.E3A0      #001=DDR$INSTR File=DDR$INSTR.:E05TSI                              TUE 07/29/97 14:07 Page:3
       75     1440    1    ',CI ',',I  ',',SC ',',AD ',',DI ',',DIC',',ID ',',IDC',
       76     1441    1    ',*N ',',*AU',',*QU',',*DU',',*IC',',*AL',',*QL',',*DL',
       77     1442    1    ',*X0',',*X1',',*X2',',*X3',',*X4',',*X5',',*X6',',*X7');
       78     1443    1   DCL PREGS(0:7) CHAR(4) CONSTANT ALIGNED INIT
       79     1444    1   (',PR0',',PR1',',PR2',',PR3',',PR4',',PR5',',PR6',',PR7');
       80     1445    1   DCL EISTAG(0:3) CHAR(2) CONSTANT ALIGNED INIT ('9 ','6 ','4 ','x ');
       81     1446    1   DCL SDSC_SIZE(0:1) CHAR(2) CONSTANT ALIGNED INIT ('9 ', '8 ');
       82     1447    1   DCL NDSC_SIZE(0:1) CHAR(2) CONSTANT ALIGNED INIT ('9 ', '4 ');
       83     1448    1   DCL BINTOCHAR(0:7) CHAR(4) CONSTANT ALIGNED INIT
       84     1449    1   (',0, ',',1, ',',2, ',',3, ',',4, ',',5, ',',6, ',',7, ');
       85     1450    1   DCL FSS SBIN;
       86     1451    1   DCL BUF_LENGTH SBIN;
       87     1452    1   DCL A$REA CHAR(BUF_LENGTH) BASED;
       88     1453    1   DCL LENGTH SBIN;
       89     1454    1   DCL YY SBIN;
       90     1455    1   DCL CSTRING CHAR(40);
       91     1456    1   DCL CHAR1 CHAR(1) BASED;
       92     1457    1   DCL C$ PTR;
       93     1458    1   DCL SIZE SBIN;
       94     1459    1   DCL REGLEN UBIN;
       95     1460    1   DCL TM SBIN;
       96     1461    1   DCL TD SBIN;
       97     1462    1   DCL TAG UBIN;
       98     1463    1   DCL TAGG CHAR(4);
       99     1464    1   DCL X0 BIT(18) HALIGNED;
      100     1465    1   DCL YFIELD_HAS_REG BIT(1);
      101     1466    1   DCL YFIELD_IN_OCTAL BIT(1);
      102     1467    1   DCL SIZE_IS_REG BIT(1);
      103     1468    1   DCL SAVE_D$_INIT PTR;
      104     1469        %SUB TM_IR = 3;
      105     1470        %SUB TM_IT = 2;
      106     1471        %SUB TM_RI = 1;
      107     1472        %SUB TD_DU = 3;
      108     1473        %SUB TD_DL = 7;
      109     1474        %SUB TD_IC = 4;
      110     1475             %INCLUDE XUH_MACRO_C;
      111     1559             %INCLUDE DD_SD_M;
PL6.E3A0      #001=DDR$INSTR File=DDR$INSTR.:E05TSI                              TUE 07/29/97 14:07 Page:4
      112     2895             %S_D;
      113     4213        %INCLUDE DD_ERR_C;
      114     4610        %INCLUDE DD_SUBS_C;
      115     4881        %INCLUDE B_STRINGS_C;
      116     5010        %INCLUDE DD$DITEM;
       12+    5113             %LIST;
       13+    5114    1        DCL SDD$ PTR;
       14+    5115    1        DCL ZITEM$ PTR;
       15+    5116    1        DCL SDD_L6$ PTR;
       16+    5117    1        DCL ZITEM_L6$ PTR;
      117     5691        %OP$TAB (STCLASS=AUTO);
      118     5718    1   DCL DDR$BINTXT ENTRY(4);
      119     5719    1   DCL DDB$OCTAL_TO_INSTR ENTRY(2) ALTRET;
      120     5720    1   DCL DDE$ERROR ENTRY;
      121     5721    1        S_D.ACCESS = '1'B;
      122     5722    1        REMEMBER CANT_ACCESS IN S_D.REM_ACCESS;
      123     5723    1        INSTR = INS;
      124     5724    1        S_D.ACCESS = '0'B;
      125     5725                                                /*  Initialize final string size      */
      126     5726    1        FSS = 0;
      127     5727                                 /* Save initial buffer pointer, in case backup to octal
      128     5728                                    is necessary */
      129     5729    1        SAVE_D$_INIT = S_D.D$;
      130     5730    1        C$ = ADDR(CSTRING);                /* Pointer to auto char string        */
      131     5731    1        BUF_LENGTH = POFFC(S_D.DESCL$,S_D.D$);
      132     5732                                 /* Guarantee that octal representation is possible.  */
      133     5733    2        IF BUF_LENGTH <13 THEN DO;
      134     5734    2             S_D.ERROR = E@BUFFULL;           /* E@BUFFULL */
      135     5735    2             ALTRETURN;
      136     5736    2           END;
      137     5737                                                /* Blank the buffer                   */
      138     5738    1        S_D.D$->A$REA = ' ';
      139     5739                                      /* Point to the instruction to be formatted     */
      140     5740                                      /* Locate the instruction in the op code table  */
      141     5741    1        IF S_D.EIS.DESC# AND S_D.MACTIVE THEN GOTO DECODE_DESC;
      142     5742    1        CALL DDB$OCTAL_TO_INSTR(INSTR,OP$TAB) ALTRET(PURE_OCTAL);
      143     5743                            /* Distinguish between single and multi-word instructions */
PL6.E3A0      #001=DDR$INSTR File=DDR$INSTR.:E05TSI                              TUE 07/29/97 14:07 Page:5
      144     5744    1        LENGTH = OP$TAB.LENGTH;
      145     5745                                                /* Move op mnemonic into buffer       */
      146     5746    1        CALL INDEX (SIZE, ' ', OP$TAB.MNE);
      147     5747    1        CALL MOVE (OP$TAB.MNE, SIZE) ALTRET(TOO_BIG);
      148     5748    1        IF OP$TAB.NIS.AWDX AND NOT INSTR.AR
      149     5749    1        THEN CALL MOVE( 'X', 1 ) ALTRET( TOO_BIG );
      150     5750                       /* If the inhibit bit is set put out '! ' else put out ' '     */
      151     5751    1        IF INSTR.I THEN CALL MOVE('! ',2)ALTRET(TOO_BIG);
      152     5752    1        ELSE CALL MOVE(' ',1) ALTRET(TOO_BIG);
      153     5753    1        IF LENGTH > 1
      154     5754    1        THEN GOTO MULTI_WORD_OP;
      155     5755                                                /* Convert yfield from bin to text    */
      156     5756                                                /* Get TM type                        */
      157     5757    1        TM = INSTR.TAG.TM;
      158     5758    1        TD = INSTR.TAG.TD;
      159     5759    1        TAG = INSTR.TAGG;
      160     5760    1        YFIELD_HAS_REG = INSTR.AR | OP$TAB.NIS.AWDX;
      161     5761    1        YFIELD_IN_OCTAL = OP$TAB.NIS.OCTALY;
      162     5762                       /* Decide whether to put Y field out symbolically or in octal,
      163     5763                          that IS: Put out y field symbolically only if tm is not it
      164     5764                          and TD is not DU,DL or IC.  */
      165     5765    1        IF (TM=TM_IT) OR (TD=TD_DU) OR (TD=TD_DL) OR (TD=TD_IC) OR YFIELD_HAS_REG
      166     5766    1          THEN
      167     5767    1             YFIELD_IN_OCTAL = '1'B;
      168     5768                                                /* Try for symbolic yfield            */
      169     5769    1        CALL SYMBOLIC_YFIELD ALTRET (TOO_BIG);
      170     5770                                                /* Put out TAG field                  */
      171     5771    1        IF OP$TAB.NIS.STCA
      172     5772    1          THEN
      173     5773    1             CALL CONCAT (TAGG, ',.', BINASC(TAG/8+48), BINASC(MOD(TAG,8)+48));
      174     5774    1          ELSE
      175     5775    1             TAGG = TAGS(TAG);
      176     5776    1        CALL INDEX (SIZE, ' ', TAGG);
      177     5777    1        CALL MOVE (TAGG, SIZE) ALTRET (TOO_BIG);
      178     5778                                                /* see if we need a ,PRx on instr     */
      179     5779    1        IF YFIELD_HAS_REG
      180     5780    2          THEN DO;
PL6.E3A0      #001=DDR$INSTR File=DDR$INSTR.:E05TSI                              TUE 07/29/97 14:07 Page:6
      181     5781    2             IF TAG = 0 THEN CALL MOVE (',',1) ALTRET (TOO_BIG);
      182     5782    2             CALL MOVE(PREGS(INSTR.YFIELD.DR),4) ALTRET(TOO_BIG);
      183     5783    2          END;
      184     5784    1        RETURN;
      185     5785        %EJECT;
PL6.E3A0      #001=DDR$INSTR File=DDR$INSTR.:E05TSI                              TUE 07/29/97 14:07 Page:7
      186     5786                            /* Multi word instruction. */
      187     5787    1   MULTI_WORD_OP:
      188     5788    1        S_D.KILLEDEF = '0'B;
      189     5789    1        IF S_D.MACTIVE
      190     5790    2          THEN DO;
      191     5791    2             S_D.EIS.DESC1.DESC# = '1'B;
      192     5792    2             S_D.EIS.DESC1.DESC_TYPE = OP$TAB.DESC1;
      193     5793    2             S_D.EIS.DESC1.MODS = EIS0.MF1;
      194     5794    2          END;
      195     5795    1        IF OP$TAB.TYPE=4 THEN GOTO CLIMB_INSTR;  /* special */
      196     5796    1        CALL DO_MF (EIS0.MF1);
      197     5797    1        IF (OP$TAB.LENGTH > 2)
      198     5798    2          THEN DO;
      199     5799    2             IF S_D.MACTIVE
      200     5800    3               THEN DO;
      201     5801    3                  S_D.EIS.DESC2.DESC# = '1'B;
      202     5802    3                  S_D.EIS.DESC2.DESC_TYPE = OP$TAB.DESC2;
      203     5803    3                  S_D.EIS.DESC2.MODS = EIS0.MF2;
      204     5804    3               END;
      205     5805    2             IF OP$TAB.DESC2 ~= 6 /*arg*/ THEN CALL DO_MF (EIS0.MF2);
      206     5806    2          END;
      207     5807    1        IF (OP$TAB.LENGTH > 3)
      208     5808    2          THEN DO;
      209     5809    2             IF S_D.MACTIVE
      210     5810    3               THEN DO;
      211     5811    3                  S_D.EIS.DESC3.DESC# = '1'B;
      212     5812    3                  S_D.EIS.DESC3.DESC_TYPE = OP$TAB.DESC3;
      213     5813    3                  S_D.EIS.DESC3.MODS = EIS0.MF3;
      214     5814    3               END;
      215     5815    2             IF OP$TAB.DESC3 ~= 6 /*arg*/ THEN CALL DO_MF (EIS0.MF3);
      216     5816    2          END;
      217     5817    2        IF OP$TAB.EIS.FILL OR OP$TAB.EIS.MASK THEN DO;
      218     5818    2           YY=EIS1.FILL;
      219     5819    2           CALL DDR$BINTXT(C$,YY,%OCT_FMT,SIZE);
      220     5820    2           CALL MOVE (CSTRING,SIZE);
      221     5821    2           CALL MOVE (',',1);
      222     5822    2           END;
PL6.E3A0      #001=DDR$INSTR File=DDR$INSTR.:E05TSI                              TUE 07/29/97 14:07 Page:8
      223     5823    2        IF OP$TAB.EIS.BOLR THEN DO;
      224     5824    2           YY=EIS1.BOLR.X;
      225     5825    2           CALL DDR$BINTXT(C$,YY,%OCT_FMT,SIZE);
      226     5826    2           CALL MOVE (CSTRING,SIZE);
      227     5827    2           CALL MOVE (',',1);
      228     5828    2           END;
      229     5829    1        IF OP$TAB.EIS.RD THEN IF EIS0.RD THEN CALL MOVE ('RD,',3);ELSE CALL MOVE('0,',2
              5829                 );
      230     5830    1        IF OP$TAB.EIS.P THEN IF EIS0.FP THEN CALL MOVE ('P,',2);ELSE CALL MOVE('0,',2);
      231     5831    1        IF OP$TAB.EIS.F THEN IF EIS0.FP THEN CALL MOVE ('F,',2);ELSE CALL MOVE('0,',2);
      232     5832    1        IF OP$TAB.EIS.T THEN IF EIS0.T THEN CALL MOVE ('T,',2);ELSE CALL MOVE('0,',2);
      233     5833    1        S_D.D$=PINCRC(S_D.D$,-1);
      234     5834    1        RETURN;
      235     5835        %EJECT;
PL6.E3A0      #001=DDR$INSTR File=DDR$INSTR.:E05TSI                              TUE 07/29/97 14:07 Page:9
      236     5836    1   CLIMB_INSTR:;
      237     5837    1        IF CLIMB0.ALT THEN CALL MOVE ('alt,',4) ALTRET (TOO_BIG);
      238     5838    1        X0 = BINBIT(CLIMB0.X0,18);
      239     5839    2        DO SELECT(X0);
      240     5840    2          SELECT('000001'O); CALL MOVE('M$EXIT',SIZEC('M$EXIT'));
      241     5841    2          SELECT('000002'O); CALL MOVE('M$ERR',SIZEC('M$ERR'));
      242     5842    2          SELECT('000003'O); CALL MOVE('M$XXX',SIZEC('M$XXX'));
      243     5843    2          SELECT('000004'O); CALL MOVE('M$OLAY',SIZEC('M$OLAY'));
      244     5844    2          SELECT('000005'O); CALL MOVE('M$LINK',SIZEC('M$LINK'));
      245     5845    2          SELECT('000006'O); CALL MOVE('M$LDTRC',SIZEC('M$LDTRC'));
      246     5846    2          SELECT('000007'O); CALL MOVE('M$ALIB',SIZEC('M$ALIB'));
      247     5847    2          SELECT('000010'O); CALL MOVE('M$DLIB',SIZEC('M$DLIB'));
      248     5848    2          SELECT('000011'O); CALL MOVE('M$YC',SIZEC('M$YC'));
      249     5849    2          SELECT('000012'O); CALL MOVE('M$CPEXIT',SIZEC('M$CPEXIT'));
      250     5850    2          SELECT('000013'O); CALL MOVE('M$SCREECH',SIZEC('M$SCREECH'));
      251     5851    2          SELECT('000014'O); CALL MOVE('M$FSUSER',SIZEC('M$FSUSER'));
      252     5852    2          SELECT('000015'O); CALL MOVE('M$ASUSER',SIZEC('M$ASUSER'));
      253     5853    2          SELECT('000016'O); CALL MOVE('M$DSUSER',SIZEC('M$DSUSER'));
      254     5854    2          SELECT('000017'O); CALL MOVE('M$SAVE',SIZEC('M$SAVE'));
      255     5855    2          SELECT('000020'O); CALL MOVE('M$SCON',SIZEC('M$SCON'));
      256     5856    2          SELECT('000021'O); CALL MOVE('M$INTRTN',SIZEC('M$INTRTN'));
      257     5857    2          SELECT('000022'O); CALL MOVE('M$XCONRTN',SIZEC('M$XCONRTN'));
      258     5858    2          SELECT('000023'O); CALL MOVE('M$PROCNAME',SIZEC('M$PROCNAME'));
      259     5859    2          SELECT('000024'O); CALL MOVE('M$FINDPROC',SIZEC('M$FINDPROC'));
      260     5860    2          SELECT('000025'O); CALL MOVE('M$UNSHARE',SIZEC('M$UNSHARE'));
      261     5861    2          SELECT('000026'O); CALL MOVE('M$ACCT',SIZEC('M$ACCT'));
      262     5862    2          SELECT('010000'O); CALL MOVE('M$STIMER',SIZEC('M$STIMER'));
      263     5863    2          SELECT('010001'O); CALL MOVE('M$EVENT',SIZEC('M$EVENT'));
      264     5864    2          SELECT('010002'O); CALL MOVE('M$INT',SIZEC('M$INT'));
      265     5865    2          SELECT('010003'O); CALL MOVE('M$XCON',SIZEC('M$XCON'));
      266     5866    2          SELECT('010004'O); CALL MOVE('M$TRAP',SIZEC('M$TRAP'));
      267     5867    2          SELECT('010005'O); CALL MOVE('M$STRAP',SIZEC('M$STRAP'));
      268     5868    2          SELECT('010006'O); CALL MOVE('M$TTIMER',SIZEC('M$TTIMER'));
      269     5869    2          SELECT('010007'O); CALL MOVE('M$MERC',SIZEC('M$MERC'));
      270     5870    2          SELECT('010010'O); CALL MOVE('M$RETRY',SIZEC('M$RETRY'));
      271     5871    2          SELECT('010011'O); CALL MOVE('M$SENV',SIZEC('M$SENV'));
      272     5872    2          SELECT('010012'O); CALL MOVE('M$TRTN',SIZEC('M$TRTN'));
PL6.E3A0      #001=DDR$INSTR File=DDR$INSTR.:E05TSI                              TUE 07/29/97 14:07 Page:10
      273     5873    2          SELECT('010013'O); CALL MOVE('M$CLRSTK',SIZEC('M$CLRSTK'));
      274     5874    2          SELECT('010014'O); CALL MOVE('M$MERCS',SIZEC('M$MERCS'));
      275     5875    2          SELECT('010015'O); CALL MOVE('M$RETRYS',SIZEC('M$RETRYS'));
      276     5876    2          SELECT('010016'O); CALL MOVE('M$RENV',SIZEC('M$RENV'));
      277     5877    2          SELECT('010017'O); CALL MOVE('M$DRTN',SIZEC('M$DRTN'));
      278     5878    2          SELECT('020000'O); CALL MOVE('M$ERRMSG',SIZEC('M$ERRMSG'));
      279     5879    2          SELECT('020001'O); CALL MOVE('M$FID',SIZEC('M$FID'));
      280     5880    2          SELECT('020002'O); CALL MOVE('M$ENQ',SIZEC('M$ENQ'));
      281     5881    2          SELECT('020003'O); CALL MOVE('M$DEQ',SIZEC('M$DEQ'));
      282     5882    2          SELECT('020004'O); CALL MOVE('M$TIME',SIZEC('M$TIME'));
      283     5883    2          SELECT('020005'O); CALL MOVE('M$NXTUSR',SIZEC('M$NXTUSR'));
      284     5884    2          SELECT('020006'O); CALL MOVE('M$WAIT',SIZEC('M$WAIT'));
      285     5885    2          SELECT('020007'O); CALL MOVE('M$DISPLAY',SIZEC('M$DISPLAY'));
      286     5886    2          SELECT('020010'O); CALL MOVE('M$STATE',SIZEC('M$STATE'));
      287     5887    2          SELECT('020011'O); CALL MOVE('M$XEQTIME',SIZEC('M$XEQTIME'));
      288     5888    2          SELECT('020012'O); CALL MOVE('M$SPRIV',SIZEC('M$SPRIV'));
      289     5889    2          SELECT('020013'O); CALL MOVE('M$RPRIV',SIZEC('M$RPRIV'));
      290     5890    2          SELECT('020014'O); CALL MOVE('M$SSWITCH',SIZEC('M$SSWITCH'));
      291     5891    2          SELECT('020015'O); CALL MOVE('M$RSWITCH',SIZEC('M$RSWITCH'));
      292     5892    2          SELECT('020016'O); CALL MOVE('M$CHGUNIT',SIZEC('M$CHGUNIT'));
      293     5893    2          SELECT('020017'O); CALL MOVE('M$USRFIELD',SIZEC('M$USRFIELD'));
      294     5894    2          SELECT('020020'O); CALL MOVE('M$RUE',SIZEC('M$RUE'));
      295     5895    2          SELECT('020021'O); CALL MOVE('M$UNFID',SIZEC('M$UNFID'));
      296     5896    2          SELECT('020022'O); CALL MOVE('M$GJOB',SIZEC('M$GJOB'));
      297     5897    2          SELECT('020023'O); CALL MOVE('M$MONINFO',SIZEC('M$MONINFO'));
      298     5898    2          SELECT('020024'O); CALL MOVE('M$HELP',SIZEC('M$HELP'));
      299     5899    2          SELECT('020025'O); CALL MOVE('M$CMDVAR',SIZEC('M$CMDVAR'));
      300     5900    2          SELECT('020026'O); CALL MOVE('M$SYSID',SIZEC('M$SYSID'));
      301     5901    2          SELECT('030000'O); CALL MOVE('M$MAKUSER',SIZEC('M$MAKUSER'));
      302     5902    2          SELECT('030001'O); CALL MOVE('M$GDS',SIZEC('M$GDS'));
      303     5903    2          SELECT('030002'O); CALL MOVE('M$FDS',SIZEC('M$FDS'));
      304     5904    2          SELECT('030003'O); CALL MOVE('M$GDP',SIZEC('M$GDP'));
      305     5905    2          SELECT('030004'O); CALL MOVE('M$FDP',SIZEC('M$FDP'));
      306     5906    2          SELECT('030005'O); CALL MOVE('M$GVP',SIZEC('M$GVP'));
      307     5907    2          SELECT('030006'O); CALL MOVE('M$FVP',SIZEC('M$FVP'));
      308     5908    2          SELECT('030007'O); CALL MOVE('M$STLPP',SIZEC('M$STLPP'));
      309     5909    2          SELECT('030010'O); CALL MOVE('M$RSPP',SIZEC('M$RSPP'));
PL6.E3A0      #001=DDR$INSTR File=DDR$INSTR.:E05TSI                              TUE 07/29/97 14:07 Page:11
      310     5910    2          SELECT('030011'O); CALL MOVE('M$CVM',SIZEC('M$CVM'));
      311     5911    2          SELECT('030012'O); CALL MOVE('M$SMPRT',SIZEC('M$SMPRT'));
      312     5912    2          SELECT('030013'O); CALL MOVE('M$SSC',SIZEC('M$SSC'));
      313     5913    2          SELECT('030014'O); CALL MOVE('M$GDDL',SIZEC('M$GDDL'));
      314     5914    2          SELECT('030015'O); CALL MOVE('M$SAD',SIZEC('M$SAD'));
      315     5915    2          SELECT('030016'O); CALL MOVE('M$STD',SIZEC('M$STD'));
      316     5916    2          SELECT('030017'O); CALL MOVE('M$BADPP',SIZEC('M$BADPP'));
      317     5917    2          SELECT('030020'O); CALL MOVE('M$GOODPP',SIZEC('M$GOODPP'));
      318     5918    2          SELECT('030021'O); CALL MOVE('M$GBPL',SIZEC('M$GBPL'));
      319     5919    2          SELECT('030022'O); CALL MOVE('M$MPL',SIZEC('M$MPL'));
      320     5920    2          SELECT('030023'O); CALL MOVE('M$UMPL',SIZEC('M$UMPL'));
      321     5921    2          SELECT('030024'O); CALL MOVE('M$PDS',SIZEC('M$PDS'));
      322     5922    2          SELECT('030025'O); CALL MOVE('M$PAS',SIZEC('M$PAS'));
      323     5923    2          SELECT('040000'O); CALL MOVE('M$READ',SIZEC('M$READ'));
      324     5924    2          SELECT('040001'O); CALL MOVE('M$WRITE',SIZEC('M$WRITE'));
      325     5925    2          SELECT('040002'O); CALL MOVE('M$DELREC',SIZEC('M$DELREC'));
      326     5926    2          SELECT('040003'O); CALL MOVE('M$PRECORD',SIZEC('M$PRECORD'));
      327     5927    2          SELECT('040004'O); CALL MOVE('M$PFIL',SIZEC('M$PFIL'));
      328     5928    2          SELECT('040005'O); CALL MOVE('M$EXTEND',SIZEC('M$EXTEND'));
      329     5929    2          SELECT('040006'O); CALL MOVE('M$REW',SIZEC('M$REW'));
      330     5930    2          SELECT('040007'O); CALL MOVE('M$WEOF',SIZEC('M$WEOF'));
      331     5931    2          SELECT('050000'O); CALL MOVE('M$OPEN',SIZEC('M$OPEN'));
      332     5932    2          SELECT('050001'O); CALL MOVE('M$CLOSE',SIZEC('M$CLOSE'));
      333     5933    2          SELECT('050002'O); CALL MOVE('M$CHECK',SIZEC('M$CHECK'));
      334     5934    2          SELECT('050003'O); CALL MOVE('M$TRUNC',SIZEC('M$TRUNC'));
      335     5935    2          SELECT('050004'O); CALL MOVE('M$CVOL',SIZEC('M$CVOL'));
      336     5936    2          SELECT('050005'O); CALL MOVE('M$LINES',SIZEC('M$LINES'));
      337     5937    2          SELECT('050006'O); CALL MOVE('M$DEVICE',SIZEC('M$DEVICE'));
      338     5938    2          SELECT('060000'O); CALL MOVE('M$CORRES',SIZEC('M$CORRES'));
      339     5939    2          SELECT('060001'O); CALL MOVE('M$SETFMA',SIZEC('M$SETFMA'));
      340     5940    2          SELECT('060002'O); CALL MOVE('M$GETDCB',SIZEC('M$GETDCB'));
      341     5941    2          SELECT('060003'O); CALL MOVE('M$RELDCB',SIZEC('M$RELDCB'));
      342     5942    2          SELECT('060004'O); CALL MOVE('M$LDEV',SIZEC('M$LDEV'));
      343     5943    2          SELECT('060005'O); CALL MOVE('M$MADMUCK',SIZEC('M$MADMUCK'));
      344     5944    2          SELECT('060006'O); CALL MOVE('M$REM',SIZEC('M$REM'));
      345     5945    2          SELECT('060007'O); CALL MOVE('M$XFLUSH',SIZEC('M$XFLUSH'));
      346     5946    2          SELECT('060010'O); CALL MOVE('M$RELSTARF',SIZEC('M$RELSTARF'));
PL6.E3A0      #001=DDR$INSTR File=DDR$INSTR.:E05TSI                              TUE 07/29/97 14:07 Page:12
      347     5947    2          SELECT('070000'O); CALL MOVE('M$RDSYSLOG',SIZEC('M$RDSYSLOG'));
      348     5948    2          SELECT('070001'O); CALL MOVE('M$WRSYSLOG',SIZEC('M$WRSYSLOG'));
      349     5949    2          SELECT('070002'O); CALL MOVE('M$TDOPEN',SIZEC('M$TDOPEN'));
      350     5950    2          SELECT('070003'O); CALL MOVE('M$TDCLOSE',SIZEC('M$TDCLOSE'));
      351     5951    2          SELECT('070004'O); CALL MOVE('M$TDIO',SIZEC('M$TDIO'));
      352     5952    2          SELECT('070005'O); CALL MOVE('M$TDREQCPU',SIZEC('M$TDREQCPU'));
      353     5953    2          SELECT('070006'O); CALL MOVE('M$IOQ',SIZEC('M$IOQ'));
      354     5954    2          SELECT('070007'O); CALL MOVE('M$SYSCON',SIZEC('M$SYSCON'));
      355     5955    2          SELECT('100000'O); CALL MOVE('M$ACTIVATE',SIZEC('M$ACTIVATE'));
      356     5956    2          SELECT('100001'O); CALL MOVE('M$DEACTIVATE',SIZEC('M$DEACTIVATE'));
      357     5957    2          SELECT('100002'O); CALL MOVE('M$UNLATCH',SIZEC('M$UNLATCH'));
      358     5958    2          SELECT('100003'O); CALL MOVE('M$CGCTL',SIZEC('M$CGCTL'));
      359     5959    2          SELECT('100004'O); CALL MOVE('M$CGINFO',SIZEC('M$CGINFO'));
      360     5960    2          SELECT('100005'O); CALL MOVE('M$FWCG',SIZEC('M$FWCG'));
      361     5961    2          SELECT('110000'O); CALL MOVE('M$TEMPWROC',SIZEC('M$TEMPWROC'));
      362     5962    2          SELECT('120000'O); CALL MOVE('M$KEYIN',SIZEC('M$KEYIN'));
      363     5963    2          SELECT('120001'O); CALL MOVE('M$OCMSG',SIZEC('M$OCMSG'));
      364     5964    2          SELECT('130000'O); CALL MOVE('M$PATHCON',SIZEC('M$PATHCON'));
      365     5965    2          SELECT('130001'O); CALL MOVE('M$EXHUME',SIZEC('M$EXHUME'));
      366     5966    2          SELECT('140003'O); CALL MOVE('M$SMOUSE',SIZEC('M$SMOUSE'));
      367     5967    2          SELECT('140004'O); CALL MOVE('M$XMOUSE',SIZEC('M$XMOUSE'));
      368     5968    2          SELECT('140005'O); CALL MOVE('M$GETMOUSE',SIZEC('M$GETMOUSE'));
      369     5969    2          SELECT('140006'O); CALL MOVE('M$GETPM',SIZEC('M$GETPM'));
      370     5970    2          SELECT('150000'O); CALL MOVE('M$LIMIT',SIZEC('M$LIMIT'));
      371     5971    2          SELECT('150001'O); CALL MOVE('M$MBS',SIZEC('M$MBS'));
      372     5972    2          SELECT('150002'O); CALL MOVE('M$DISPRES',SIZEC('M$DISPRES'));
      373     5973    2          SELECT('150003'O); CALL MOVE('M$RELRES',SIZEC('M$RELRES'));
      374     5974    2          SELECT('150004'O); CALL MOVE('M$REQUIRE',SIZEC('M$REQUIRE'));
      375     5975    2          SELECT('150005'O); CALL MOVE('M$RACST',SIZEC('M$RACST'));
      376     5976    2          SELECT('160000'O); CALL MOVE('M$STRMCTL',SIZEC('M$STRMCTL'));
      377     5977    2          SELECT('160001'O); CALL MOVE('M$GTRMCTL',SIZEC('M$GTRMCTL'));
      378     5978    2          SELECT('160002'O); CALL MOVE('M$PROMPT',SIZEC('M$PROMPT'));
      379     5979    2          SELECT('160003'O); CALL MOVE('M$EOM',SIZEC('M$EOM'));
      380     5980    2          SELECT('160004'O); CALL MOVE('M$TRMPRG',SIZEC('M$TRMPRG'));
      381     5981    2          SELECT('160005'O); CALL MOVE('M$GLINEATTR',SIZEC('M$GLINEATTR'));
      382     5982    2          SELECT('160006'O); CALL MOVE('M$STRMATTR',SIZEC('M$STRMATTR'));
      383     5983    2          SELECT('160007'O); CALL MOVE('M$GTRMATTR',SIZEC('M$GTRMATTR'));
PL6.E3A0      #001=DDR$INSTR File=DDR$INSTR.:E05TSI                              TUE 07/29/97 14:07 Page:13
      384     5984    2          SELECT('160010'O); CALL MOVE('M$PLATEN',SIZEC('M$PLATEN'));
      385     5985    2          SELECT('160011'O); CALL MOVE('M$STRMTAB',SIZEC('M$STRMTAB'));
      386     5986    2          SELECT('160012'O); CALL MOVE('M$GTRMTAB',SIZEC('M$GTRMTAB'));
      387     5987    2          SELECT('160013'O); CALL MOVE('M$SINPUT',SIZEC('M$SINPUT'));
      388     5988    2          SELECT('160014'O); CALL MOVE('M$PROFILE',SIZEC('M$PROFILE'));
      389     5989    2          SELECT('160015'O); CALL MOVE('M$FEBOOT',SIZEC('M$FEBOOT'));
      390     5990    2          SELECT('160016'O); CALL MOVE('M$FEDUMP',SIZEC('M$FEDUMP'));
      391     5991    2          SELECT('160017'O); CALL MOVE('M$FECTL',SIZEC('M$FECTL'));
      392     5992    2          SELECT('160020'O); CALL MOVE('M$TRMISC',SIZEC('M$TRMISC'));
      393     5993    2          SELECT('160021'O); CALL MOVE('M$SETFP',SIZEC('M$SETFP'));
      394     5994    2          SELECT('160022'O); CALL MOVE('M$DRIBBLE',SIZEC('M$DRIBBLE'));
      395     5995    2          SELECT('160023'O); CALL MOVE('M$CONFIG',SIZEC('M$CONFIG'));
      396     5996    2          SELECT('160024'O); CALL MOVE('M$DCLFLD',SIZEC('M$DCLFLD'));
      397     5997    2          SELECT('160025'O); CALL MOVE('M$ERASE',SIZEC('M$ERASE'));
      398     5998    2          SELECT('160026'O); CALL MOVE('M$MDFFLD',SIZEC('M$MDFFLD'));
      399     5999    2          SELECT('160027'O); CALL MOVE('M$RLSFLD',SIZEC('M$RLSFLD'));
      400     6000    2          SELECT('160030'O); CALL MOVE('M$SLCFLD',SIZEC('M$SLCFLD'));
      401     6001    2          SELECT('160031'O); CALL MOVE('M$NODEINFO',SIZEC('M$NODEINFO'));
      402     6002    2          SELECT('160032'O); CALL MOVE('M$GPROMPT',SIZEC('M$GPROMPT'));
      403     6003    2          SELECT('170000'O); CALL MOVE('M$SYMBIO',SIZEC('M$SYMBIO'));
      404     6004    2          SELECT('170001'O); CALL MOVE('M$JOBSTATS',SIZEC('M$JOBSTATS'));
      405     6005    2          SELECT(ELSE);
      406     6006    2            YY = CLIMB0.X0;
      407     6007    2            CALL DDR$BINTXT(C$,YY,%OCT_FMT,SIZE);
      408     6008    2            CALL MOVE (CSTRING,SIZE);
      409     6009    2          END;  /* do select */
      410     6010    1            IF FSS > BUF_LENGTH THEN GOTO TOO_BIG;
      411     6011    1          RETURN;
      412     6012        %EJECT;
PL6.E3A0      #001=DDR$INSTR File=DDR$INSTR.:E05TSI                              TUE 07/29/97 14:07 Page:14
      413     6013                       /* Not enough buffer space for instruction format.  Put out in
      414     6014                          pure octal. */
      415     6015    1   TOO_BIG:
      416     6016    1        GOTO PURE_OCTAL;
      417     6017    1   PURE_OCTAL:
      418     6018                            /* Put out instruction in pure octal (12 octal characters)
      419     6019                            reset the buffer pointer and convert.  */
      420     6020    1        S_D.KILLEDEF = '0'B;
      421     6021    1        S_D.D$ = SAVE_D$_INIT;
      422     6022    1        CALL DDR$BINTXT(S_D.D$,INSTR,%OCT_FMT,SIZE);
      423     6023    1        S_D.D$ = PINCRC(S_D.D$,SIZE);
      424     6024    1        RETURN;
      425     6025    1   CANT_ACCESS:
      426     6026    1        S_D.ERROR = E@CANTACCESS;  /* E@CANTACCESS */
      427     6027    1        ALTRETURN;
      428     6028        %EJECT;
PL6.E3A0      #001=DDR$INSTR File=DDR$INSTR.:E05TSI                              TUE 07/29/97 14:07 Page:15
      429     6029    1   DECODE_DESC:;      /* this is a descriptor following an EIS instruction */
      430     6030    1     YFIELD_HAS_REG = S_D.EIS.MODS.AR;
      431     6031    1     YFIELD_IN_OCTAL = '0'B;
      432     6032    1     SIZE_IS_REG = S_D.EIS.MODS.RL;
      433     6033    1     TAG = 0;
      434     6034    2     DO CASE (S_D.EIS.DESC_TYPE);
      435     6035    2       CASE (D_ADSC);      /* ADSCn */
      436     6036    2          CALL MOVE ('ADSC',4) ALTRET (TOO_BIG);
      437     6037    2          CALL MOVE (EISTAG(ADSC.TA), 2) ALTRET (TOO_BIG);
      438     6038    2          CALL SYMBOLIC_YFIELD ALTRET (TOO_BIG);
      439     6039    2          REGLEN = ADSC.CN;
      440     6040    2          IF (ADSC.TA = 0) THEN REGLEN = REGLEN / 2;
      441     6041    2          CALL MOVE (BINTOCHAR (REGLEN), 2) ALTRET (TOO_BIG);
      442     6042    2          REGLEN = ADSC.N;
      443     6043    2          CALL MOVE_REGLEN ALTRET (TOO_BIG);
      444     6044    2       CASE (D_BDSC);      /* BDSC */
      445     6045    2          CALL MOVE ('BDSC ', 5);
      446     6046    2          CALL SYMBOLIC_YFIELD ALTRET (TOO_BIG);
      447     6047    2          REGLEN = BDSC.N;
      448     6048    2          CALL MOVE_REGLEN ALTRET (TOO_BIG);
      449     6049    2          CALL MOVE (BINTOCHAR(BDSC.C),2) ALTRET (TOO_BIG);
      450     6050    2          SIZE = BDSC.B;
      451     6051    2          CALL MOVE (',',1) ALTRET (TOO_BIG);
      452     6052    2          CALL DDR$BINTXT(C$,SIZE,%OCT_FMT,SIZE);
      453     6053    2          CALL MOVE (CSTRING,SIZE) ALTRET (TOO_BIG);
      454     6054    2       CASE (D_NDSC);      /* NDSCn */
      455     6055    2          CALL MOVE ('NDSC', 4) ALTRET (TOO_BIG);
      456     6056    2          CALL MOVE (NDSC_SIZE(NDSC.TN),2) ALTRET (TOO_BIG);
      457     6057    2          CALL SYMBOLIC_YFIELD ALTRET (TOO_BIG);
      458     6058    2          CALL MOVE (BINTOCHAR(NDSC.CN),2) ALTRET (TOO_BIG);
      459     6059    2          REGLEN = NDSC.N;
      460     6060    2          CALL MOVE_REGLEN ALTRET (TOO_BIG);
      461     6061    2          CALL MOVE (BINTOCHAR(NDSC.SX),3) ALTRET (TOO_BIG);
      462     6062    2          SIZE = NDSC.SF;
      463     6063    2          CALL DDR$BINTXT(C$,SIZE,%UINT_FMT,SIZE);
      464     6064    2          CALL MOVE (CSTRING,SIZE) ALTRET (TOO_BIG);
      465     6065    2       CASE (D_SDSC);      /* SDSCn */
PL6.E3A0      #001=DDR$INSTR File=DDR$INSTR.:E05TSI                              TUE 07/29/97 14:07 Page:16
      466     6066    2          CALL MOVE ('SDSC', 4) ALTRET (TOO_BIG);
      467     6067    2          CALL MOVE (SDSC_SIZE(SDSC.B),2) ALTRET (TOO_BIG);
      468     6068    2          CALL SYMBOLIC_YFIELD ALTRET (TOO_BIG);
      469     6069    2          CALL MOVE (BINTOCHAR(SDSC.CN),1) ALTRET (TOO_BIG);
      470     6070    2          CALL MOVE (BINTOCHAR(SDSC.L),2) ALTRET (TOO_BIG);
      471     6071    2          CALL MOVE (BINTOCHAR(SDSC.SE),2) ALTRET (TOO_BIG);
      472     6072    2       CASE (D_VDSC);      /* VDSC */
      473     6073    2          CALL MOVE ('VDSC ', 5) ALTRET (TOO_BIG);
      474     6074    2          CALL SYMBOLIC_YFIELD ALTRET (TOO_BIG);
      475     6075    2          SIZE_IS_REG = VDSC.R;
      476     6076    2          REGLEN = VDSC.VI;
      477     6077    2          CALL MOVE_REGLEN ALTRET (TOO_BIG);
      478     6078    2          IF VDSC.RN > 0
      479     6079    2            THEN CALL MOVE (TAGS(VDSC.RN),3) ALTRET (TOO_BIG);
      480     6080    2            ELSE IF YFIELD_HAS_REG THEN CALL MOVE (',',1) ALTRET (TOO_BIG);
      481     6081    2       CASE (D_ARG);       /* ARG */
      482     6082    2   DECODE_ARG:;
      483     6083    2          CALL MOVE ('ARG ', 4) ALTRET (TOO_BIG);
      484     6084    2          YFIELD_HAS_REG = ARG.AR;
      485     6085    2          CALL SYMBOLIC_YFIELD ALTRET (TOO_BIG);
      486     6086    2          IF ARG.REG > 0
      487     6087    2            THEN CALL MOVE (TAGS(ARG.REG),3) ALTRET (TOO_BIG);
      488     6088    2            ELSE IF YFIELD_HAS_REG THEN CALL MOVE (',',1) ALTRET (TOO_BIG);
      489     6089    2       CASE (D_CDSC);      /* CLIMB extention word */
      490     6090    2          YFIELD_HAS_REG = '0'B;
      491     6091    3          DO CASE (CLIMB1.OP);
      492     6092    3            CASE (0);
      493     6093    3               IF CLIMB1.SID = 1008
      494     6094    3                 THEN CALL MOVE ('pmme ',5);
      495     6095    3                 ELSE CALL MOVE ('climb ',5);
      496     6096    3               REGLEN = 0;
      497     6097    3               IF CLIMB1.E
      498     6098    3                 THEN REGLEN = CLIMB1.P+1;
      499     6099    3               CALL DDR$BINTXT(C$,REGLEN,%UINT_FMT,SIZE);
      500     6100    3               CALL MOVE (CSTRING,SIZE);
      501     6101    3            CASE (1);
      502     6102    3              CALL MOVE ('ret',3);
PL6.E3A0      #001=DDR$INSTR File=DDR$INSTR.:E05TSI                              TUE 07/29/97 14:07 Page:17
      503     6103    3            CASE (2);
      504     6104    3              CALL MOVE ('ltras',5);
      505     6105    3            CASE (3);
      506     6106    3              CALL MOVE ('ltrad',5);
      507     6107    3          END; /* do case */
      508     6108    2     END; /* case */
      509     6109    1     IF YFIELD_HAS_REG
      510     6110    1       THEN
      511     6111    1          CALL MOVE (PREGS(INSTR.YFIELD.DR),4) ALTRET (TOO_BIG);
      512     6112
      513     6113    1     RETURN;
      514     6114        %EJECT;
PL6.E3A0      #001=DDR$INSTR File=DDR$INSTR.:E05TSI                              TUE 07/29/97 14:07 Page:18
      515     6115    1   MOVE_REGLEN: PROC ALTRET;
      516     6116
      517     6117    2     IF SIZE_IS_REG
      518     6118    3       THEN DO;
      519     6119    3         REGLEN = MOD (REGLEN,16);
      520     6120    3         IF REGLEN > 0
      521     6121    3           THEN CALL MOVE (TAGS(REGLEN), 3) ALTRET (NO_ROOM);
      522     6122    3           ELSE CALL MOVE (',', 1) ALTRET (NO_ROOM);
      523     6123    3       END;
      524     6124    3       ELSE DO;
      525     6125    3         CALL MOVE (',',1) ALTRET (NO_ROOM);
      526     6126    3         CALL DDR$BINTXT (C$,REGLEN,%UINT_FMT,SIZE);
      527     6127    3         CALL MOVE (CSTRING,SIZE) ALTRET (NO_ROOM);
      528     6128    3       END;
      529     6129    2     RETURN;
      530     6130    2   NO_ROOM:
      531     6131    2     ALTRETURN;
      532     6132    2   END;
      533     6133        %EJECT;
PL6.E3A0      #001=DDR$INSTR File=DDR$INSTR.:E05TSI                              TUE 07/29/97 14:07 Page:19
      534     6134    1   DO_MF: PROC (P_MF);
      535     6135
      536     6136    2   DCL P_MF BIT(7) UNAL;
      537     6137    2   DCL 1 MF ALIGNED,
      538     6138    2         2 AR BIT(1) UNAL,
      539     6139    2         2 RL BIT(1) UNAL,
      540     6140    2         2 ID BIT(1) UNAL,
      541     6141    2         2 REG UBIN(4) UNAL,
      542     6142    2         2 * BIT(29);
      543     6143    2   DCL 1 AFTER_AR REDEF MF,
      544     6144    2         2 * BIT(1),
      545     6145    2         2 X BIT(6),
      546     6146    2         2 * BIT(29);
      547     6147    2   DCL 1 AFTER_RL REDEF MF,
      548     6148    2         2 * BIT(2),
      549     6149    2         2 X BIT(5),
      550     6150    2         2 * BIT(29);
      551     6151    2   DCL REGT(0:15) CHAR(4) CONSTANT INIT(')', ',AU)', 'QU)', ',.3)',
      552     6152    2                                      ',IC)', ',A)', ',Q)', ',.7)',
      553     6153    2                                      ',X0)', ',X1)', ',X2)', ',X3)',
      554     6154    2                                      ',X4)', ',X5)', ',X6)', ',X7)');
      555     6155
      556     6156    2        MF = P_MF;
      557     6157    2        CALL MOVE ('(',1);
      558     6158    2        IF MF.AR THEN CALL MOVE('AR',2);
      559     6159    2        IF AFTER_AR.X THEN CALL MOVE (',',1);
      560     6160    2        IF MF.RL THEN CALL MOVE('RL',2);
      561     6161    2        IF AFTER_RL.X THEN CALL MOVE (',',1);
      562     6162    2        IF MF.ID THEN CALL MOVE('ID',2);
      563     6163    2        CALL INDEX (SIZE, ' ', REGT(MF.REG));
      564     6164    2        CALL MOVE(REGT(MF.REG),SIZE);
      565     6165    2        CALL MOVE (',',1);
      566     6166    2        RETURN;
      567     6167
      568     6168    2   END DO_MF;
      569     6169        %EJECT;
PL6.E3A0      #001=DDR$INSTR File=DDR$INSTR.:E05TSI                              TUE 07/29/97 14:07 Page:20
      570     6170    1   MOVE: PROC(STRING,SZ) ALTRET;
      571     6171    2   DCL SZ SBIN;
      572     6172    2   DCL STRING CHAR(SZ);
      573     6173    2   DCL BUFFER CHAR(SZ) BASED;
      574     6174                                 /* Will this new string exceed maximum buffer size ? */
      575     6175    2        FSS = FSS+SZ;
      576     6176    2        IF FSS > BUF_LENGTH THEN ALTRETURN;
      577     6177                                                /* No.  Move it                       */
      578     6178    2        S_D.D$->BUFFER = STRING;
      579     6179    2        S_D.D$ = PINCRC(S_D.D$,SZ);
      580     6180    2        RETURN;
      581     6181                       /* Put out the yfield symbolically if it will fit in the buffer.
      582     6182                          altreturn if not.  */
      583     6183    2   END MOVE;
      584     6184        %EJECT;
PL6.E3A0      #001=DDR$INSTR File=DDR$INSTR.:E05TSI                              TUE 07/29/97 14:07 Page:21
      585     6185        /*** SYMBOLIC_YFIELD: takes the Y field from INSTR, and outputs it.
      586     6186         ***   if YFIELD_HAS_REG, top 3 bits are a register, so use octal.
      587     6187         ***   if YFIELD_IN_OCTAL, don't try to output as ENTDEF+xx.
      588     6188         ***/
      589     6189    1   SYMBOLIC_YFIELD: PROC ALTRET;
      590     6190    2   DCL SAVE_EWSQ# UBIN;
      591     6191    2   DCL MSS SBIN;
      592     6192    2   DCL YY SBIN;
      593     6193    2   DCL DDR$POSIT ENTRY(5) ALTRET;
      594     6194
      595     6195                            /* Save schema state.  Set schema state to 'NO SCHEMA' in
      596     6196                               order to force DDR$POSIT to return ENTDEF+offset. */
      597     6197    2        SAVE_EWSQ# = S_D.EWSQ#;
      598     6198
      599     6199    2        YY = INSTR.Y;
      600     6200    2        IF YFIELD_HAS_REG
      601     6201    3          THEN DO;
      602     6202    3            YY = INSTR.YFIELD.YY;
      603     6203    3            GOTO OCTAL_YFIELD;
      604     6204    3          END;
      605     6205    2        IF YFIELD_IN_OCTAL THEN GOTO OCTAL_YFIELD;
      606     6206                                                /* Compute maximum string size        */
      607     6207    2        MSS = POFFC(S_D.DESCL$,S_D.D$);
      608     6208    2        CALL DDR$POSIT(YY,S_D.D$,MSS,SIZE) ALTRET(OCTAL_YFIELD);
      609     6209    2        S_D.D$ = PINCRC(S_D.D$,SIZE);
      610     6210    2        FSS = FSS + SIZE;
      611     6211                                                /* Restore old schema state           */
      612     6212    2        S_D.EWSQ# = SAVE_EWSQ#;
      613     6213    2        RETURN;
      614     6214
      615     6215    2   OCTAL_YFIELD:;
      616     6216    2        S_D.EWSQ# = SAVE_EWSQ#;
      617     6217    2        CALL DDR$BINTXT(C$,YY,%OCT_FMT,SIZE);
      618     6218    2        CALL MOVE (CSTRING,SIZE) ALTRET (NO_ROOM);
      619     6219    2        RETURN;
      620     6220
      621     6221    2   NO_ROOM:;
PL6.E3A0      #001=DDR$INSTR File=DDR$INSTR.:E05TSI                              TUE 07/29/97 14:07 Page:22
      622     6222    2        ALTRETURN;
      623     6223    2   END SYMBOLIC_YFIELD;
      624     6224    1   END DDR$INSTR;

PL6.E3A0      #001=DDR$INSTR File=DDR$INSTR.:E05TSI                              TUE 07/29/97 14:07 Page:23
--  Include file information  --

   DD_SRTN_C.:E05TOU  is referenced.
   DD_ACODE_C.:E05TOU  is referenced.
   DD_ICODE_C.:E05TOU  is referenced.
   DD$DITEM.:E05TOU  cannot be made into a system file and is referenced.
   B_STRINGS_C.:E05TOU  is referenced.
   DD_SUBS_C.:E05TOU  is referenced.
   DD_ERR_C.:E05TOU  is referenced.
   DD_SD_M.:E05TOU  is referenced.
   XUH_MACRO_C.:E05TOU  is referenced.
   DD$BASED.:E05TOU  is referenced.
   B$JIT_C.:E05TOU  was found in the system file and is never referenced.
   CP_6_C.:E05TOU  was found in the system file and is never referenced.
      No diagnostics issued in procedure DDR$INSTR.

   Procedure DDR$INSTR requires 2894 words for executable code.
   Procedure DDR$INSTR requires 50 words of local(AUTO) storage.

    No errors detected in file DDR$INSTR.:E05TSI    .

PL6.E3A0      #001=DDR$INSTR File=DDR$INSTR.:E05TSI                              TUE 07/29/97 14:07 Page:24

 Object Unit name= DDR$INSTR                                  File name= DDR$INSTR.:E05TOU
 UTS= JUL 29 '97 14:07:15.52 TUE                              Compiler= PL-6/E31         Sev=      00
 SharedLib= :SHARED_SYSTEM                                    Alt SharedLib=


    ****  Control sections  ****

 Sect   Type Bound  Init  Size OctSiz  Section name(segment info)
    0  RoData even  UTS    496    760  DDR$INSTR
    1   Proc  even  none  2894   5516  DDR$INSTR
    2  RoData even  none   207    317  DDR$INSTR

    ****  Entry defs  ****

                              Check   Calling
                             calling  sequence
  Sect OctLoc Primary Altret sequence   type   Parms  Name
     1      0   yes    yes     yes      Std        1  DDR$INSTR

  ****  Entry refs  ****

         Check        Calling
        calling       sequence
Altret sequence SRef   type   Args  Name
 yes     yes           Std       2 DDB$OCTAL_TO_INSTR
         yes           Std       4 DDR$BINTXT
 yes     yes           Std       5 DDR$POSIT
                       nStd      0 X66_AUTO_1
                       nStd      0 X66_AALT
                       Std       0 B_CONSPOOL_D
                       nStd      0 X66_ARET
PL6.E3A0      #001=DDR$INSTR File=DDR$INSTR.:E05TSI                              TUE 07/29/97 14:07 Page:25

  ****  Data refs  ****

  Flags:  r = read only, s = secondary
Flgs Name                             Flgs Name                             Flgs Name
r    S_D$                                  B_VECTNIL

  ****  Segment refs  ****

  Flags:  r = read only, s = secondary
Flgs Name                             Flgs Name                             Flgs Name
     ISSID
PL6.E3A0      #001=DDR$INSTR File=DDR$INSTR.:E05TSI                              TUE 07/29/97 14:07 Page:26


        1        1        /*M* DDR$INSTR REPORT INSTRUCTION ROUTINE */
        2        2        /*T***********************************************************/
        3        3        /*T*                                                         */
        4        4        /*T* Copyright (c) Bull HN Information Systems Inc., 1997    */
        5        5        /*T*                                                         */
        6        6        /*T***********************************************************/
        7        7        /*D*  NAME:  DDR$INSTR
        8        8              CALL:  CALL DDR$INSTR(INS)   ALTRET(TOO_BIG)
        9        9              INPUT: INS is the instruction to be formatted
       10       10                     S_D.D$ is the buffer pointer
       11       11                     S_D.DESCL$ is the pointer to the end of the buffer
       12       12              OUTPUT:The formatted instruction is sent to the buffer
       13       13              DESCRIPTION:  The length of the instruction is determined
       14       14                     from the op code table.  multi-word instructions
       15       15                     are handled separately.  Single word instructions
       16       16                     have two general cases: IT modification and non IT
       17       17                     (I.E., R, RI or IR) modification. An attempt is
       18       18                     made to put out each significant field symbolically in
       19       19                     the form
       20       20                           OP! yfield,tag,PR
       21       21                     if there is not enough buffer for this representation
       22       22                     or if it is inappropriate to put out the yfield
       23       23                  symbolically (IC, DU, DL, or IT, or AR) then octal representation
       24       24                     is used.  An ALTRET is taken if octal cant happen.
       25       25
       26       26                     If we're in MODIFY, then EIS instructions will set a
       27       27                     flag so that <lf>'s will decode the DSC's associated with
       28       28                     the EIS instruction.
       29       29                     */
       30       30        DDR$INSTR: PROC(INS)   ALTRET;

     30  1 000000   000000 700200 xent  DDR$INSTR    TSX0  ! X66_AUTO_1
         1 000001   000062 000001                    ZERO    50,1

       31       31    1   DCL INS BIT(36) ALIGNED;
       32       32        %INCLUDE DD$BASED;
PL6.E3A0      #001=DDR$INSTR File=DDR$INSTR.:E05TSI                              TUE 07/29/97 14:07 Page:27
       33     1335        %HOST_INSTR(NAME=INSTR,STCLASS="");
       34     1357    1   DCL 1 EIS0 REDEF INSTR,
       35     1358    1         2 FP BIT(1) UNAL,
       36     1359    1         2 * BIT(1) UNAL,
       37     1360    1         2 MF3 BIT(7) UNAL,
       38     1361    1         2 T BIT(1) UNAL,
       39     1362    1         2 RD BIT(1) UNAL,
       40     1363    1         2 MF2 BIT(7) UNAL,
       41     1364    1         2 OP BIT(10) UNAL,
       42     1365    1         2 I BIT(1) UNAL,
       43     1366    1         2 MF1 BIT(7) UNAL;
       44     1367    1   DCL 1 EIS1 REDEF INSTR,
       45     1368    1         2 FILL UBIN(9) UNAL,
       46     1369    1         2 BOLR REDEF FILL,
       47     1370    1           3 * BIT(5) UNAL,
       48     1371    1           3 X UBIN(4) UNAL,
       49     1372    1         2 * BIT(27) UNAL;
       50     1373    1   DCL 1 CLIMB0 REDEF INSTR,
       51     1374    1         2 ALT BIT(1),
       52     1375    1         2 X0 UBIN(17) UNAL,
       53     1376    1         2 * BIT(18);
       54     1377    1   DCL 1 CLIMB1 REDEF INSTR,
       55     1378    1         2 E BIT(1) UNAL,
       56     1379    1         2 P UBIN(9) UNAL,
       57     1380    1         2 * BIT(8) UNAL,
       58     1381    1         2 X0 BIT(1) UNAL,
       59     1382    1         2 NOSL BIT(1) UNAL,
       60     1383    1         2 * BIT(2) UNAL,
       61     1384    1         2 OP UBIN(2) UNAL,
       62     1385    1         2 SID UBIN(12) UNAL;
       63     1386        %ADSC_INSTR(STCLASS="REDEF INSTR");
       64     1394        %BDSC_INSTR(STCLASS="REDEF INSTR");
       65     1401        %NDSC_INSTR(STCLASS="REDEF INSTR");
       66     1410        %SDSC_INSTR(STCLASS="REDEF INSTR");
       67     1419        %VDSC_INSTR(STCLASS="REDEF INSTR");
       68     1426        %ARG_INSTR(STCLASS="REDEF INSTR");
       69     1434    1   DCL TAGS(0:63) CHAR(4) CONSTANT ALIGNED INIT
PL6.E3A0      #001=DDR$INSTR File=DDR$INSTR.:E05TSI                              TUE 07/29/97 14:07 Page:28
       70     1435    1   ('    ',',AU ',',QU ',',DU ',',IC ',',AL ',',QL ',',DL ',
       71     1436    1    ',X0 ',',X1 ',',X2 ',',X3 ',',X4 ',',X5 ',',X6 ',',X7 ',
       72     1437    1    ',N* ',',AU*',',QU*',',.23',',IC*',',AL*',',QL*',',.27',
       73     1438    1    ',X0*',',X1*',',X2*',',X3*',',X4*',',X5*',',X6*',',X7*',
       74     1439    1    ',F  ',',.41',',.42',',.43',',SD ',',SCR',',.46',',.47',
       75     1440    1    ',CI ',',I  ',',SC ',',AD ',',DI ',',DIC',',ID ',',IDC',
       76     1441    1    ',*N ',',*AU',',*QU',',*DU',',*IC',',*AL',',*QL',',*DL',
       77     1442    1    ',*X0',',*X1',',*X2',',*X3',',*X4',',*X5',',*X6',',*X7');
       78     1443    1   DCL PREGS(0:7) CHAR(4) CONSTANT ALIGNED INIT
       79     1444    1   (',PR0',',PR1',',PR2',',PR3',',PR4',',PR5',',PR6',',PR7');
       80     1445    1   DCL EISTAG(0:3) CHAR(2) CONSTANT ALIGNED INIT ('9 ','6 ','4 ','x ');
       81     1446    1   DCL SDSC_SIZE(0:1) CHAR(2) CONSTANT ALIGNED INIT ('9 ', '8 ');
       82     1447    1   DCL NDSC_SIZE(0:1) CHAR(2) CONSTANT ALIGNED INIT ('9 ', '4 ');
       83     1448    1   DCL BINTOCHAR(0:7) CHAR(4) CONSTANT ALIGNED INIT
       84     1449    1   (',0, ',',1, ',',2, ',',3, ',',4, ',',5, ',',6, ',',7, ');
       85     1450    1   DCL FSS SBIN;
       86     1451    1   DCL BUF_LENGTH SBIN;
       87     1452    1   DCL A$REA CHAR(BUF_LENGTH) BASED;
       88     1453    1   DCL LENGTH SBIN;
       89     1454    1   DCL YY SBIN;
       90     1455    1   DCL CSTRING CHAR(40);
       91     1456    1   DCL CHAR1 CHAR(1) BASED;
       92     1457    1   DCL C$ PTR;
       93     1458    1   DCL SIZE SBIN;
       94     1459    1   DCL REGLEN UBIN;
       95     1460    1   DCL TM SBIN;
       96     1461    1   DCL TD SBIN;
       97     1462    1   DCL TAG UBIN;
       98     1463    1   DCL TAGG CHAR(4);
       99     1464    1   DCL X0 BIT(18) HALIGNED;
      100     1465    1   DCL YFIELD_HAS_REG BIT(1);
      101     1466    1   DCL YFIELD_IN_OCTAL BIT(1);
      102     1467    1   DCL SIZE_IS_REG BIT(1);
      103     1468    1   DCL SAVE_D$_INIT PTR;
      104     1469        %SUB TM_IR = 3;
      105     1470        %SUB TM_IT = 2;
      106     1471        %SUB TM_RI = 1;
PL6.E3A0      #001=DDR$INSTR File=DDR$INSTR.:E05TSI                              TUE 07/29/97 14:07 Page:29
      107     1472        %SUB TD_DU = 3;
      108     1473        %SUB TD_DL = 7;
      109     1474        %SUB TD_IC = 4;
      110     1475             %INCLUDE XUH_MACRO_C;
      111     1559             %INCLUDE DD_SD_M;
      112     2895             %S_D;
      113     4213        %INCLUDE DD_ERR_C;
      114     4610        %INCLUDE DD_SUBS_C;
      115     4881        %INCLUDE B_STRINGS_C;
      116     5010        %INCLUDE DD$DITEM;
       12+    5113             %LIST;
       13+    5114    1        DCL SDD$ PTR;
       14+    5115    1        DCL ZITEM$ PTR;
       15+    5116    1        DCL SDD_L6$ PTR;
       16+    5117    1        DCL ZITEM_L6$ PTR;
      117     5691        %OP$TAB (STCLASS=AUTO);
      118     5718    1   DCL DDR$BINTXT ENTRY(4);
      119     5719    1   DCL DDB$OCTAL_TO_INSTR ENTRY(2) ALTRET;
      120     5720    1   DCL DDE$ERROR ENTRY;
      121     5721    1        S_D.ACCESS = '1'B;

   5721  1 000002   400000 236003                    LDQ     -131072,DU
         1 000003   000000 470400 xsym               LDP0    S_D$
         1 000004   000016 756100                    STQ     14,,PR0

      122     5722    1        REMEMBER CANT_ACCESS IN S_D.REM_ACCESS;

   5722  1 000005   004335 635000 1                  EAA     CANT_ACCESS
         1 000006   000024 452500                    STP2    20,,PR0
         1 000007   000025 755100                    STA     21,,PR0

      123     5723    1        INSTR = INS;

   5723  1 000010   200003 471500                    LDP1    @INS,,AUTO
         1 000011   100000 236100                    LDQ     0,,PR1
         1 000012   200004 756100                    STQ     INSTR,,AUTO

PL6.E3A0      #001=DDR$INSTR File=DDR$INSTR.:E05TSI                              TUE 07/29/97 14:07 Page:30
      124     5724    1        S_D.ACCESS = '0'B;

   5724  1 000013   000016 450100                    STZ     14,,PR0

      125     5725                                                /*  Initialize final string size      */
      126     5726    1        FSS = 0;

   5726  1 000014   200005 450100                    STZ     FSS,,AUTO

      127     5727                                 /* Save initial buffer pointer, in case backup to octal
      128     5728                                    is necessary */
      129     5729    1        SAVE_D$_INIT = S_D.D$;

   5729  1 000015   000044 236100                    LDQ     36,,PR0
         1 000016   200036 756100                    STQ     SAVE_D$_INIT,,AUTO

      130     5730    1        C$ = ADDR(CSTRING);                /* Pointer to auto char string        */

   5730  1 000017   200011 633500                    EPPR3   CSTRING,,AUTO
         1 000020   200023 453500                    STP3    C$,,AUTO

      131     5731    1        BUF_LENGTH = POFFC(S_D.DESCL$,S_D.D$);

   5731  1 000021   000044 236100                    LDQ     36,,PR0
         1 000022   000020 772000                    QRL     16
         1 000023   200056 756100                    STQ     @SZ+2,,AUTO
         1 000024   000042 236100                    LDQ     34,,PR0
         1 000025   000020 772000                    QRL     16
         1 000026   200056 136100                    SBLQ    @SZ+2,,AUTO
         1 000027   200006 756100                    STQ     BUF_LENGTH,,AUTO

      132     5732                                 /* Guarantee that octal representation is possible.  */
      133     5733    2        IF BUF_LENGTH <13 THEN DO;

   5733  1 000030   000015 116007                    CMPQ    13,DL
         1 000031   000035 605000 1                  TPL     s:5738

PL6.E3A0      #001=DDR$INSTR File=DDR$INSTR.:E05TSI                              TUE 07/29/97 14:07 Page:31
      134     5734    2             S_D.ERROR = E@BUFFULL;           /* E@BUFFULL */

   5734  1 000032   000130 235007                    LDA     88,DL
         1 000033   000013 755100                    STA     11,,PR0

      135     5735    2             ALTRETURN;

   5735  1 000034   000000 702200 xent               TSX2  ! X66_AALT

      136     5736    2           END;
      137     5737                                                /* Blank the buffer                   */
      138     5738    1        S_D.D$->A$REA = ' ';

   5738  1 000035   000044 474500                    LDP4    36,,PR0
         1 000036   000000 620006                    EAX0    0,QL
         1 000037   040140 100400                    MLR     fill='040'O
         1 000040   000035 000001 xsym               ADSC9   B_VECTNIL+29             cn=0,n=1
         1 000041   400000 000010                    ADSC9   0,,PR4                   cn=0,n=*X0

      139     5739                                      /* Point to the instruction to be formatted     */
      140     5740                                      /* Locate the instruction in the op code table  */
      141     5741    1        IF S_D.EIS.DESC# AND S_D.MACTIVE THEN GOTO DECODE_DESC;

   5741  1 000042   006740 234100                    SZN     3552,,PR0
         1 000043   000046 605000 1                  TPL     s:5742
         1 000044   000713 234100                    SZN     459,,PR0
         1 000045   004341 604000 1                  TMI     DECODE_DESC

      142     5742    1        CALL DDB$OCTAL_TO_INSTR(INSTR,OP$TAB) ALTRET(PURE_OCTAL);

   5742  1 000046   200043 633500                    EPPR3   OP$TAB,,AUTO
         1 000047   200057 453500                    STP3    @SZ+3,,AUTO
         1 000050   200004 634500                    EPPR4   INSTR,,AUTO
         1 000051   200056 454500                    STP4    @SZ+2,,AUTO
         1 000052   200056 630500                    EPPR0   @SZ+2,,AUTO
         1 000053   000020 631400 xsym               EPPR1   B_VECTNIL+16
         1 000054   000000 701000 xent               TSX1    DDB$OCTAL_TO_INSTR
PL6.E3A0      #001=DDR$INSTR File=DDR$INSTR.:E05TSI                              TUE 07/29/97 14:07 Page:32
         1 000055   004302 702000 1                  TSX2    PURE_OCTAL

      143     5743                            /* Distinguish between single and multi-word instructions */
      144     5744    1        LENGTH = OP$TAB.LENGTH;

   5744  1 000056   200043 236100                    LDQ     OP$TAB,,AUTO
         1 000057   000007 376007                    ANQ     7,DL
         1 000060   200007 756100                    STQ     LENGTH,,AUTO

      145     5745                                                /* Move op mnemonic into buffer       */
      146     5746    1        CALL INDEX (SIZE, ' ', OP$TAB.MNE);

   5746  1 000061   000000 124500                    SCM     mask='000'O
         1 000062   200044 000006                    ADSC9   OP$TAB+1,,AUTO           cn=0,n=6
         1 000063   000035 000001 xsym               ADSC9   B_VECTNIL+29             cn=0,n=1
         1 000064   200024 000100                    ARG     SIZE,,AUTO

      147     5747    1        CALL MOVE (OP$TAB.MNE, SIZE) ALTRET(TOO_BIG);

   5747  1 000065   200024 630500                    EPPR0   SIZE,,AUTO
         1 000066   200054 450500                    STP0    @STRING+1,,AUTO
         1 000067   200044 631500                    EPPR1   OP$TAB+1,,AUTO
         1 000070   200053 451500                    STP1    YY+2,,AUTO
         1 000071   005350 701000 1                  TSX1    MOVE
         1 000072   004301 702000 1                  TSX2    TOO_BIG

      148     5748    1        IF OP$TAB.NIS.AWDX AND NOT INSTR.AR

   5748  1 000073   200043 236100                    LDQ     OP$TAB,,AUTO
         1 000074   040000 316003                    CANQ    16384,DU
         1 000075   000107 600000 1                  TZE     s:5751
         1 000076   200004 236100                    LDQ     INSTR,,AUTO
         1 000077   000100 316007                    CANQ    64,DL
         1 000100   000107 601000 1                  TNZ     s:5751

      149     5749    1        THEN CALL MOVE( 'X', 1 ) ALTRET( TOO_BIG );

PL6.E3A0      #001=DDR$INSTR File=DDR$INSTR.:E05TSI                              TUE 07/29/97 14:07 Page:33
   5749  1 000101   000001 236000 2                  LDQ     1
         1 000102   200054 756100                    STQ     @STRING+1,,AUTO
         1 000103   000002 236000 2                  LDQ     2
         1 000104   200053 756100                    STQ     YY+2,,AUTO
         1 000105   005350 701000 1                  TSX1    MOVE
         1 000106   004301 702000 1                  TSX2    TOO_BIG

      150     5750                       /* If the inhibit bit is set put out '! ' else put out ' '     */
      151     5751    1        IF INSTR.I THEN CALL MOVE('! ',2)ALTRET(TOO_BIG);

   5751  1 000107   200004 236100                    LDQ     INSTR,,AUTO
         1 000110   000200 316007                    CANQ    128,DL
         1 000111   000121 600000 1                  TZE     s:5752

   5751  1 000112   000003 236000 2                  LDQ     3
         1 000113   200054 756100                    STQ     @STRING+1,,AUTO
         1 000114   000004 236000 2                  LDQ     4
         1 000115   200053 756100                    STQ     YY+2,,AUTO
         1 000116   005350 701000 1                  TSX1    MOVE
         1 000117   004301 702000 1                  TSX2    TOO_BIG
         1 000120   000127 710000 1                  TRA     s:5753

      152     5752    1        ELSE CALL MOVE(' ',1) ALTRET(TOO_BIG);

   5752  1 000121   000001 236000 2                  LDQ     1
         1 000122   200054 756100                    STQ     @STRING+1,,AUTO
         1 000123   000005 236000 2                  LDQ     5
         1 000124   200053 756100                    STQ     YY+2,,AUTO
         1 000125   005350 701000 1                  TSX1    MOVE
         1 000126   004301 702000 1                  TSX2    TOO_BIG

      153     5753    1        IF LENGTH > 1

   5753  1 000127   200007 235100                    LDA     LENGTH,,AUTO
         1 000130   000001 115007                    CMPA    1,DL
         1 000131   000272 605400 1                  TPNZ    MULTI_WORD_OP

PL6.E3A0      #001=DDR$INSTR File=DDR$INSTR.:E05TSI                              TUE 07/29/97 14:07 Page:34
      154     5754    1        THEN GOTO MULTI_WORD_OP;
      155     5755                                                /* Convert yfield from bin to text    */
      156     5756                                                /* Get TM type                        */
      157     5757    1        TM = INSTR.TAG.TM;

   5757  1 000132   200004 236100                    LDQ     INSTR,,AUTO
         1 000133   000004 772000                    QRL     4
         1 000134   000003 376007                    ANQ     3,DL
         1 000135   200026 756100                    STQ     TM,,AUTO

      158     5758    1        TD = INSTR.TAG.TD;

   5758  1 000136   200004 236100                    LDQ     INSTR,,AUTO
         1 000137   000017 376007                    ANQ     15,DL
         1 000140   200027 756100                    STQ     TD,,AUTO

      159     5759    1        TAG = INSTR.TAGG;

   5759  1 000141   200004 236100                    LDQ     INSTR,,AUTO
         1 000142   000077 376007                    ANQ     63,DL
         1 000143   200030 756100                    STQ     TAG,,AUTO

      160     5760    1        YFIELD_HAS_REG = INSTR.AR | OP$TAB.NIS.AWDX;

   5760  1 000144   200043 236100                    LDQ     OP$TAB,,AUTO
         1 000145   000003 736000                    QLS     3
         1 000146   400000 376003                    ANQ     -131072,DU
         1 000147   200056 756100                    STQ     @SZ+2,,AUTO
         1 000150   200004 236100                    LDQ     INSTR,,AUTO
         1 000151   000035 736000                    QLS     29
         1 000152   400000 376003                    ANQ     -131072,DU
         1 000153   200056 276100                    ORQ     @SZ+2,,AUTO
         1 000154   200033 756100                    STQ     YFIELD_HAS_REG,,AUTO

      161     5761    1        YFIELD_IN_OCTAL = OP$TAB.NIS.OCTALY;

   5761  1 000155   200043 236100                    LDQ     OP$TAB,,AUTO
PL6.E3A0      #001=DDR$INSTR File=DDR$INSTR.:E05TSI                              TUE 07/29/97 14:07 Page:35
         1 000156   000002 736000                    QLS     2
         1 000157   400000 376003                    ANQ     -131072,DU
         1 000160   200034 756100                    STQ     YFIELD_IN_OCTAL,,AUTO

      162     5762                       /* Decide whether to put Y field out symbolically or in octal,
      163     5763                          that IS: Put out y field symbolically only if tm is not it
      164     5764                          and TD is not DU,DL or IC.  */
      165     5765    1        IF (TM=TM_IT) OR (TD=TD_DU) OR (TD=TD_DL) OR (TD=TD_IC) OR YFIELD_HAS_REG

   5765  1 000161   200026 235100                    LDA     TM,,AUTO
         1 000162   000002 115007                    CMPA    2,DL
         1 000163   000175 600000 1                  TZE     s:5767
         1 000164   200027 235100                    LDA     TD,,AUTO
         1 000165   000003 115007                    CMPA    3,DL
         1 000166   000175 600000 1                  TZE     s:5767
         1 000167   000007 115007                    CMPA    7,DL
         1 000170   000175 600000 1                  TZE     s:5767
         1 000171   000004 115007                    CMPA    4,DL
         1 000172   000175 600000 1                  TZE     s:5767
         1 000173   200033 234100                    SZN     YFIELD_HAS_REG,,AUTO
         1 000174   000177 605000 1                  TPL     s:5769

      166     5766    1          THEN
      167     5767    1             YFIELD_IN_OCTAL = '1'B;

   5767  1 000175   400000 236003                    LDQ     -131072,DU
         1 000176   200034 756100                    STQ     YFIELD_IN_OCTAL,,AUTO

      168     5768                                                /* Try for symbolic yfield            */
      169     5769    1        CALL SYMBOLIC_YFIELD ALTRET (TOO_BIG);

   5769  1 000177   005401 701000 1                  TSX1    SYMBOLIC_YFIELD
         1 000200   004301 702000 1                  TSX2    TOO_BIG

      170     5770                                                /* Put out TAG field                  */
      171     5771    1        IF OP$TAB.NIS.STCA

PL6.E3A0      #001=DDR$INSTR File=DDR$INSTR.:E05TSI                              TUE 07/29/97 14:07 Page:36
   5771  1 000201   200043 236100                    LDQ     OP$TAB,,AUTO
         1 000202   020000 316003                    CANQ    8192,DU
         1 000203   000231 600000 1                  TZE     s:5775

      172     5772    1          THEN
      173     5773    1             CALL CONCAT (TAGG, ',.', BINASC(TAG/8+48), BINASC(MOD(TAG,8)+48));

   5773  1 000204   200030 236100                    LDQ     TAG,,AUTO
         1 000205   000003 772000                    QRL     3
         1 000206   000060 036007                    ADLQ    48,DL
         1 000207   000033 736000                    QLS     27
         1 000210   000006 276000 2                  ORQ     6
         1 000211   200056 756100                    STQ     @SZ+2,,AUTO
         1 000212   200030 236100                    LDQ     TAG,,AUTO
         1 000213   000007 376007                    ANQ     7,DL
         1 000214   000060 036007                    ADLQ    48,DL
         1 000215   000033 736000                    QLS     27
         1 000216   000006 276000 2                  ORQ     6
         1 000217   000151 220000 0                  LDX0    REGT+17
         1 000220   200031 740100                    STX0    TAGG,,AUTO
         1 000221   200057 756100                    STQ     @SZ+3,,AUTO
         1 000222   200056 236100                    LDQ     @SZ+2,,AUTO
         1 000223   000022 772000                    QRL     18
         1 000224   200031 552110                    STBQ    TAGG,'10'O,AUTO
         1 000225   200057 236100                    LDQ     @SZ+3,,AUTO
         1 000226   000033 772000                    QRL     27
         1 000227   200031 552104                    STBQ    TAGG,'04'O,AUTO
         1 000230   000234 710000 1                  TRA     s:5776

      174     5774    1          ELSE
      175     5775    1             TAGG = TAGS(TAG);

   5775  1 000231   200030 720100                    LXL0    TAG,,AUTO
         1 000232   000000 236010 0                  LDQ     TAGS,X0
         1 000233   200031 756100                    STQ     TAGG,,AUTO

      176     5776    1        CALL INDEX (SIZE, ' ', TAGG);
PL6.E3A0      #001=DDR$INSTR File=DDR$INSTR.:E05TSI                              TUE 07/29/97 14:07 Page:37

   5776  1 000234   000000 124500                    SCM     mask='000'O
         1 000235   200031 000004                    ADSC9   TAGG,,AUTO               cn=0,n=4
         1 000236   000035 000001 xsym               ADSC9   B_VECTNIL+29             cn=0,n=1
         1 000237   200024 000100                    ARG     SIZE,,AUTO

      177     5777    1        CALL MOVE (TAGG, SIZE) ALTRET (TOO_BIG);

   5777  1 000240   200024 630500                    EPPR0   SIZE,,AUTO
         1 000241   200054 450500                    STP0    @STRING+1,,AUTO
         1 000242   200031 631500                    EPPR1   TAGG,,AUTO
         1 000243   200053 451500                    STP1    YY+2,,AUTO
         1 000244   005350 701000 1                  TSX1    MOVE
         1 000245   004301 702000 1                  TSX2    TOO_BIG

      178     5778                                                /* see if we need a ,PRx on instr     */
      179     5779    1        IF YFIELD_HAS_REG

   5779  1 000246   200033 234100                    SZN     YFIELD_HAS_REG,,AUTO
         1 000247   000271 605000 1                  TPL     s:5784

      180     5780    2          THEN DO;

      181     5781    2             IF TAG = 0 THEN CALL MOVE (',',1) ALTRET (TOO_BIG);

   5781  1 000250   200030 235100                    LDA     TAG,,AUTO
         1 000251   000260 601000 1                  TNZ     s:5782

   5781  1 000252   000001 236000 2                  LDQ     1
         1 000253   200054 756100                    STQ     @STRING+1,,AUTO
         1 000254   000010 236000 2                  LDQ     8
         1 000255   200053 756100                    STQ     YY+2,,AUTO
         1 000256   005350 701000 1                  TSX1    MOVE
         1 000257   004301 702000 1                  TSX2    TOO_BIG

      182     5782    2             CALL MOVE(PREGS(INSTR.YFIELD.DR),4) ALTRET(TOO_BIG);

PL6.E3A0      #001=DDR$INSTR File=DDR$INSTR.:E05TSI                              TUE 07/29/97 14:07 Page:38
   5782  1 000260   200004 236100                    LDQ     INSTR,,AUTO
         1 000261   000041 772000                    QRL     33
         1 000262   000000 620006                    EAX0    0,QL
         1 000263   000011 236000 2                  LDQ     9
         1 000264   200054 756100                    STQ     @STRING+1,,AUTO
         1 000265   000100 630410 0                  EPPR0   PREGS,X0
         1 000266   200053 450500                    STP0    YY+2,,AUTO
         1 000267   005350 701000 1                  TSX1    MOVE
         1 000270   004301 702000 1                  TSX2    TOO_BIG

      183     5783    2          END;

      184     5784    1        RETURN;

   5784  1 000271   000000 702200 xent               TSX2  ! X66_ARET

      185     5785        %EJECT;
PL6.E3A0      #001=DDR$INSTR File=DDR$INSTR.:E05TSI                              TUE 07/29/97 14:07 Page:39
      186     5786                            /* Multi word instruction. */
      187     5787    1   MULTI_WORD_OP:
      188     5788    1        S_D.KILLEDEF = '0'B;

   5788  1 000272   000000 470400 xsym  MULTI_WORD_* LDP0    S_D$
         1 000273   000105 450100                    STZ     69,,PR0

      189     5789    1        IF S_D.MACTIVE

   5789  1 000274   000713 234100                    SZN     459,,PR0
         1 000275   000312 605000 1                  TPL     s:5795

      190     5790    2          THEN DO;

      191     5791    2             S_D.EIS.DESC1.DESC# = '1'B;

   5791  1 000276   002000 236003                    LDQ     1024,DU
         1 000277   006740 256100                    ORSQ    3552,,PR0

      192     5792    2             S_D.EIS.DESC1.DESC_TYPE = OP$TAB.DESC1;

   5792  1 000300   200045 236100                    LDQ     OP$TAB+2,,AUTO
         1 000301   000012 736000                    QLS     10
         1 000302   006740 676100                    ERQ     3552,,PR0
         1 000303   001600 376003                    ANQ     896,DU
         1 000304   006740 656100                    ERSQ    3552,,PR0

      193     5793    2             S_D.EIS.DESC1.MODS = EIS0.MF1;

   5793  1 000305   200004 236100                    LDQ     INSTR,,AUTO
         1 000306   000022 736000                    QLS     18
         1 000307   006740 676100                    ERQ     3552,,PR0
         1 000310   000160 376003                    ANQ     112,DU
         1 000311   006740 656100                    ERSQ    3552,,PR0

      194     5794    2          END;

PL6.E3A0      #001=DDR$INSTR File=DDR$INSTR.:E05TSI                              TUE 07/29/97 14:07 Page:40
      195     5795    1        IF OP$TAB.TYPE=4 THEN GOTO CLIMB_INSTR;  /* special */

   5795  1 000312   200043 236100                    LDQ     OP$TAB,,AUTO
         1 000313   000370 376007                    ANQ     248,DL
         1 000314   000040 116007                    CMPQ    32,DL
         1 000315   000633 600000 1                  TZE     CLIMB_INSTR

      196     5796    1        CALL DO_MF (EIS0.MF1);

   5796  1 000316   200056 452500                    STP2    @SZ+2,,AUTO
         1 000317   200056 236100                    LDQ     @SZ+2,,AUTO
         1 000320   000012 036000 2                  ADLQ    10
         1 000321   200047 756100                    STQ     OP$TAB+4,,AUTO
         1 000322   005230 701000 1                  TSX1    DO_MF
         1 000323   000000 011000                    NOP     0

      197     5797    1        IF (OP$TAB.LENGTH > 2)

   5797  1 000324   200043 236100                    LDQ     OP$TAB,,AUTO
         1 000325   000007 376007                    ANQ     7,DL
         1 000326   000003 116007                    CMPQ    3,DL
         1 000327   000361 602000 1                  TNC     s:5807

      198     5798    2          THEN DO;

      199     5799    2             IF S_D.MACTIVE

   5799  1 000330   000000 470400 xsym               LDP0    S_D$
         1 000331   000713 234100                    SZN     459,,PR0
         1 000332   000347 605000 1                  TPL     s:5805

      200     5800    3               THEN DO;

      201     5801    3                  S_D.EIS.DESC2.DESC# = '1'B;

   5801  1 000333   000010 236003                    LDQ     8,DU
         1 000334   006740 256100                    ORSQ    3552,,PR0
PL6.E3A0      #001=DDR$INSTR File=DDR$INSTR.:E05TSI                              TUE 07/29/97 14:07 Page:41

      202     5802    3                  S_D.EIS.DESC2.DESC_TYPE = OP$TAB.DESC2;

   5802  1 000335   200045 236100                    LDQ     OP$TAB+2,,AUTO
         1 000336   000006 736000                    QLS     6
         1 000337   006740 676100                    ERQ     3552,,PR0
         1 000340   000007 376003                    ANQ     7,DU
         1 000341   006740 656100                    ERSQ    3552,,PR0

      203     5803    3                  S_D.EIS.DESC2.MODS = EIS0.MF2;

   5803  1 000342   200004 236100                    LDQ     INSTR,,AUTO
         1 000343   000007 772000                    QRL     7
         1 000344   006740 676100                    ERQ     3552,,PR0
         1 000345   700000 376007                    ANQ     -32768,DL
         1 000346   006740 656100                    ERSQ    3552,,PR0

      204     5804    3               END;

      205     5805    2             IF OP$TAB.DESC2 ~= 6 /*arg*/ THEN CALL DO_MF (EIS0.MF2);

   5805  1 000347   200045 236100                    LDQ     OP$TAB+2,,AUTO
         1 000350   070000 376007                    ANQ     28672,DL
         1 000351   060000 116007                    CMPQ    24576,DL
         1 000352   000361 600000 1                  TZE     s:5807

   5805  1 000353   200056 452500                    STP2    @SZ+2,,AUTO
         1 000354   200056 236100                    LDQ     @SZ+2,,AUTO
         1 000355   000013 036000 2                  ADLQ    11
         1 000356   200047 756100                    STQ     OP$TAB+4,,AUTO
         1 000357   005230 701000 1                  TSX1    DO_MF
         1 000360   000000 011000                    NOP     0

      206     5806    2          END;

      207     5807    1        IF (OP$TAB.LENGTH > 3)

PL6.E3A0      #001=DDR$INSTR File=DDR$INSTR.:E05TSI                              TUE 07/29/97 14:07 Page:42
   5807  1 000361   200043 236100                    LDQ     OP$TAB,,AUTO
         1 000362   000007 376007                    ANQ     7,DL
         1 000363   000004 116007                    CMPQ    4,DL
         1 000364   000416 602000 1                  TNC     s:5817

      208     5808    2          THEN DO;

      209     5809    2             IF S_D.MACTIVE

   5809  1 000365   000000 470400 xsym               LDP0    S_D$
         1 000366   000713 234100                    SZN     459,,PR0
         1 000367   000404 605000 1                  TPL     s:5815

      210     5810    3               THEN DO;

      211     5811    3                  S_D.EIS.DESC3.DESC# = '1'B;

   5811  1 000370   040000 236007                    LDQ     16384,DL
         1 000371   006740 256100                    ORSQ    3552,,PR0

      212     5812    3                  S_D.EIS.DESC3.DESC_TYPE = OP$TAB.DESC3;

   5812  1 000372   200045 236100                    LDQ     OP$TAB+2,,AUTO
         1 000373   000002 736000                    QLS     2
         1 000374   006740 676100                    ERQ     3552,,PR0
         1 000375   034000 376007                    ANQ     14336,DL
         1 000376   006740 656100                    ERSQ    3552,,PR0

      213     5813    3                  S_D.EIS.DESC3.MODS = EIS0.MF3;

   5813  1 000377   200004 236100                    LDQ     INSTR,,AUTO
         1 000400   000027 772000                    QRL     23
         1 000401   006740 676100                    ERQ     3552,,PR0
         1 000402   003400 376007                    ANQ     1792,DL
         1 000403   006740 656100                    ERSQ    3552,,PR0

      214     5814    3               END;
PL6.E3A0      #001=DDR$INSTR File=DDR$INSTR.:E05TSI                              TUE 07/29/97 14:07 Page:43

      215     5815    2             IF OP$TAB.DESC3 ~= 6 /*arg*/ THEN CALL DO_MF (EIS0.MF3);

   5815  1 000404   200045 236100                    LDQ     OP$TAB+2,,AUTO
         1 000405   007000 376007                    ANQ     3584,DL
         1 000406   006000 116007                    CMPQ    3072,DL
         1 000407   000416 600000 1                  TZE     s:5817

   5815  1 000410   200056 452500                    STP2    @SZ+2,,AUTO
         1 000411   200056 236100                    LDQ     @SZ+2,,AUTO
         1 000412   000014 036000 2                  ADLQ    12
         1 000413   200047 756100                    STQ     OP$TAB+4,,AUTO
         1 000414   005230 701000 1                  TSX1    DO_MF
         1 000415   000000 011000                    NOP     0

      216     5816    2          END;

      217     5817    2        IF OP$TAB.EIS.FILL OR OP$TAB.EIS.MASK THEN DO;

   5817  1 000416   200043 236100                    LDQ     OP$TAB,,AUTO
         1 000417   100000 316003                    CANQ    32768,DU
         1 000420   000423 601000 1                  TNZ     s:5818
         1 000421   040000 316003                    CANQ    16384,DU
         1 000422   000456 600000 1                  TZE     s:5823

      218     5818    2           YY=EIS1.FILL;

   5818  1 000423   200004 236100                    LDQ     INSTR,,AUTO
         1 000424   000033 772000                    QRL     27
         1 000425   200010 756100                    STQ     YY,,AUTO

      219     5819    2           CALL DDR$BINTXT(C$,YY,%OCT_FMT,SIZE);

   5819  1 000426   200024 630500                    EPPR0   SIZE,,AUTO
         1 000427   200061 450500                    STP0    @SZ+5,,AUTO
         1 000430   000001 236000 2                  LDQ     1
         1 000431   200060 756100                    STQ     @SZ+4,,AUTO
PL6.E3A0      #001=DDR$INSTR File=DDR$INSTR.:E05TSI                              TUE 07/29/97 14:07 Page:44
         1 000432   200010 631500                    EPPR1   YY,,AUTO
         1 000433   200057 451500                    STP1    @SZ+3,,AUTO
         1 000434   200023 633500                    EPPR3   C$,,AUTO
         1 000435   200056 453500                    STP3    @SZ+2,,AUTO
         1 000436   200056 630500                    EPPR0   @SZ+2,,AUTO
         1 000437   000022 631400 xsym               EPPR1   B_VECTNIL+18
         1 000440   000000 701000 xent               TSX1    DDR$BINTXT
         1 000441   000000 011000                    NOP     0

      220     5820    2           CALL MOVE (CSTRING,SIZE);

   5820  1 000442   200024 630500                    EPPR0   SIZE,,AUTO
         1 000443   200054 450500                    STP0    @STRING+1,,AUTO
         1 000444   200011 631500                    EPPR1   CSTRING,,AUTO
         1 000445   200053 451500                    STP1    YY+2,,AUTO
         1 000446   005350 701000 1                  TSX1    MOVE
         1 000447   000000 011000                    NOP     0

      221     5821    2           CALL MOVE (',',1);

   5821  1 000450   000001 236000 2                  LDQ     1
         1 000451   200054 756100                    STQ     @STRING+1,,AUTO
         1 000452   000010 236000 2                  LDQ     8
         1 000453   200053 756100                    STQ     YY+2,,AUTO
         1 000454   005350 701000 1                  TSX1    MOVE
         1 000455   000000 011000                    NOP     0

      222     5822    2           END;

      223     5823    2        IF OP$TAB.EIS.BOLR THEN DO;

   5823  1 000456   200043 236100                    LDQ     OP$TAB,,AUTO
         1 000457   020000 316003                    CANQ    8192,DU
         1 000460   000515 600000 1                  TZE     s:5829

      224     5824    2           YY=EIS1.BOLR.X;

PL6.E3A0      #001=DDR$INSTR File=DDR$INSTR.:E05TSI                              TUE 07/29/97 14:07 Page:45
   5824  1 000461   200004 236100                    LDQ     INSTR,,AUTO
         1 000462   000033 772000                    QRL     27
         1 000463   000017 376007                    ANQ     15,DL
         1 000464   200010 756100                    STQ     YY,,AUTO

      225     5825    2           CALL DDR$BINTXT(C$,YY,%OCT_FMT,SIZE);

   5825  1 000465   200024 630500                    EPPR0   SIZE,,AUTO
         1 000466   200061 450500                    STP0    @SZ+5,,AUTO
         1 000467   000001 236000 2                  LDQ     1
         1 000470   200060 756100                    STQ     @SZ+4,,AUTO
         1 000471   200010 631500                    EPPR1   YY,,AUTO
         1 000472   200057 451500                    STP1    @SZ+3,,AUTO
         1 000473   200023 633500                    EPPR3   C$,,AUTO
         1 000474   200056 453500                    STP3    @SZ+2,,AUTO
         1 000475   200056 630500                    EPPR0   @SZ+2,,AUTO
         1 000476   000022 631400 xsym               EPPR1   B_VECTNIL+18
         1 000477   000000 701000 xent               TSX1    DDR$BINTXT
         1 000500   000000 011000                    NOP     0

      226     5826    2           CALL MOVE (CSTRING,SIZE);

   5826  1 000501   200024 630500                    EPPR0   SIZE,,AUTO
         1 000502   200054 450500                    STP0    @STRING+1,,AUTO
         1 000503   200011 631500                    EPPR1   CSTRING,,AUTO
         1 000504   200053 451500                    STP1    YY+2,,AUTO
         1 000505   005350 701000 1                  TSX1    MOVE
         1 000506   000000 011000                    NOP     0

      227     5827    2           CALL MOVE (',',1);

   5827  1 000507   000001 236000 2                  LDQ     1
         1 000510   200054 756100                    STQ     @STRING+1,,AUTO
         1 000511   000010 236000 2                  LDQ     8
         1 000512   200053 756100                    STQ     YY+2,,AUTO
         1 000513   005350 701000 1                  TSX1    MOVE
         1 000514   000000 011000                    NOP     0
PL6.E3A0      #001=DDR$INSTR File=DDR$INSTR.:E05TSI                              TUE 07/29/97 14:07 Page:46

      228     5828    2           END;

      229     5829    1       IF OP$TAB.EIS.RD THEN IF EIS0.RD THEN CALL MOVE ('RD,',3);ELSE CALL MOVE('0,',2
              5829                 );

   5829  1 000515   200043 236100                    LDQ     OP$TAB,,AUTO
         1 000516   004000 316003                    CANQ    2048,DU
         1 000517   000540 600000 1                  TZE     s:5830

   5829  1 000520   200004 236100                    LDQ     INSTR,,AUTO
         1 000521   000200 316003                    CANQ    128,DU
         1 000522   000532 600000 1                  TZE     s:5829+13

   5829  1 000523   000015 236000 2                  LDQ     13
         1 000524   200054 756100                    STQ     @STRING+1,,AUTO
         1 000525   000016 236000 2                  LDQ     14
         1 000526   200053 756100                    STQ     YY+2,,AUTO
         1 000527   005350 701000 1                  TSX1    MOVE
         1 000530   000000 011000                    NOP     0
         1 000531   000540 710000 1                  TRA     s:5830

   5829  1 000532   000003 236000 2                  LDQ     3
         1 000533   200054 756100                    STQ     @STRING+1,,AUTO
         1 000534   000017 236000 2                  LDQ     15
         1 000535   200053 756100                    STQ     YY+2,,AUTO
         1 000536   005350 701000 1                  TSX1    MOVE
         1 000537   000000 011000                    NOP     0

      230     5830    1       IF OP$TAB.EIS.P THEN IF EIS0.FP THEN CALL MOVE ('P,',2);ELSE CALL MOVE('0,',2);

   5830  1 000540   200043 236100                    LDQ     OP$TAB,,AUTO
         1 000541   002000 316003                    CANQ    1024,DU
         1 000542   000562 600000 1                  TZE     s:5831

   5830  1 000543   200004 234100                    SZN     INSTR,,AUTO
         1 000544   000554 605000 1                  TPL     s:5830+12
PL6.E3A0      #001=DDR$INSTR File=DDR$INSTR.:E05TSI                              TUE 07/29/97 14:07 Page:47

   5830  1 000545   000003 236000 2                  LDQ     3
         1 000546   200054 756100                    STQ     @STRING+1,,AUTO
         1 000547   000020 236000 2                  LDQ     16
         1 000550   200053 756100                    STQ     YY+2,,AUTO
         1 000551   005350 701000 1                  TSX1    MOVE
         1 000552   000000 011000                    NOP     0
         1 000553   000562 710000 1                  TRA     s:5831

   5830  1 000554   000003 236000 2                  LDQ     3
         1 000555   200054 756100                    STQ     @STRING+1,,AUTO
         1 000556   000017 236000 2                  LDQ     15
         1 000557   200053 756100                    STQ     YY+2,,AUTO
         1 000560   005350 701000 1                  TSX1    MOVE
         1 000561   000000 011000                    NOP     0

      231     5831    1       IF OP$TAB.EIS.F THEN IF EIS0.FP THEN CALL MOVE ('F,',2);ELSE CALL MOVE('0,',2);

   5831  1 000562   200043 236100                    LDQ     OP$TAB,,AUTO
         1 000563   010000 316003                    CANQ    4096,DU
         1 000564   000604 600000 1                  TZE     s:5832

   5831  1 000565   200004 234100                    SZN     INSTR,,AUTO
         1 000566   000576 605000 1                  TPL     s:5831+12

   5831  1 000567   000003 236000 2                  LDQ     3
         1 000570   200054 756100                    STQ     @STRING+1,,AUTO
         1 000571   000021 236000 2                  LDQ     17
         1 000572   200053 756100                    STQ     YY+2,,AUTO
         1 000573   005350 701000 1                  TSX1    MOVE
         1 000574   000000 011000                    NOP     0
         1 000575   000604 710000 1                  TRA     s:5832

   5831  1 000576   000003 236000 2                  LDQ     3
         1 000577   200054 756100                    STQ     @STRING+1,,AUTO
         1 000600   000017 236000 2                  LDQ     15
         1 000601   200053 756100                    STQ     YY+2,,AUTO
PL6.E3A0      #001=DDR$INSTR File=DDR$INSTR.:E05TSI                              TUE 07/29/97 14:07 Page:48
         1 000602   005350 701000 1                  TSX1    MOVE
         1 000603   000000 011000                    NOP     0

      232     5832    1        IF OP$TAB.EIS.T THEN IF EIS0.T THEN CALL MOVE ('T,',2);ELSE CALL MOVE('0,',2);

   5832  1 000604   200043 430100                    FSZN    OP$TAB,,AUTO
         1 000605   000626 605000 1                  TPL     s:5833

   5832  1 000606   200004 236100                    LDQ     INSTR,,AUTO
         1 000607   000400 316003                    CANQ    256,DU
         1 000610   000620 600000 1                  TZE     s:5832+12

   5832  1 000611   000003 236000 2                  LDQ     3
         1 000612   200054 756100                    STQ     @STRING+1,,AUTO
         1 000613   000022 236000 2                  LDQ     18
         1 000614   200053 756100                    STQ     YY+2,,AUTO
         1 000615   005350 701000 1                  TSX1    MOVE
         1 000616   000000 011000                    NOP     0
         1 000617   000626 710000 1                  TRA     s:5833

   5832  1 000620   000003 236000 2                  LDQ     3
         1 000621   200054 756100                    STQ     @STRING+1,,AUTO
         1 000622   000017 236000 2                  LDQ     15
         1 000623   200053 756100                    STQ     YY+2,,AUTO
         1 000624   005350 701000 1                  TSX1    MOVE
         1 000625   000000 011000                    NOP     0

      233     5833    1        S_D.D$=PINCRC(S_D.D$,-1);

   5833  1 000626   000000 470400 xsym               LDP0    S_D$
         1 000627   000044 236100                    LDQ     36,,PR0
         1 000630   000034 036000 xsym               ADLQ    B_VECTNIL+28
         1 000631   000044 756100                    STQ     36,,PR0

      234     5834    1        RETURN;

   5834  1 000632   000000 702200 xent               TSX2  ! X66_ARET
PL6.E3A0      #001=DDR$INSTR File=DDR$INSTR.:E05TSI                              TUE 07/29/97 14:07 Page:49

   5833  1 000633                       CLIMB_INSTR  null
      235     5835        %EJECT;
PL6.E3A0      #001=DDR$INSTR File=DDR$INSTR.:E05TSI                              TUE 07/29/97 14:07 Page:50
      236     5836    1   CLIMB_INSTR:;
      237     5837    1        IF CLIMB0.ALT THEN CALL MOVE ('alt,',4) ALTRET (TOO_BIG);

   5837  1 000633   200004 234100                    SZN     INSTR,,AUTO
         1 000634   000643 605000 1                  TPL     s:5838

   5837  1 000635   000011 236000 2                  LDQ     9
         1 000636   200054 756100                    STQ     @STRING+1,,AUTO
         1 000637   000023 236000 2                  LDQ     19
         1 000640   200053 756100                    STQ     YY+2,,AUTO
         1 000641   005350 701000 1                  TSX1    MOVE
         1 000642   004301 702000 1                  TSX2    TOO_BIG

      238     5838    1        X0 = BINBIT(CLIMB0.X0,18);

   5838  1 000643   200004 236100                    LDQ     INSTR,,AUTO
         1 000644   000022 772000                    QRL     18
         1 000645   377777 376007                    ANQ     131071,DL
         1 000646   000022 736000                    QLS     18
         1 000647   000022 772000                    QRL     18
         1 000650   000000 620006                    EAX0    0,QL
         1 000651   200032 740100                    STX0    X0,,AUTO

      239     5839    2        DO SELECT(X0);

   5839  1 000652   030002 100003                    CMPX0   12290,DU
         1 000653   001456 602000 1                  TNC     s:5839+388
         1 000654   030002 100003                    CMPX0   12290,DU
         1 000655   002735 600000 1                  TZE     s:5903
         1 000656   140004 100003                    CMPX0   49156,DU
         1 000657   001070 602000 1                  TNC     s:5839+142
         1 000660   140004 100003                    CMPX0   49156,DU
         1 000661   003635 600000 1                  TZE     s:5967
         1 000662   160007 100003                    CMPX0   57351,DU
         1 000663   001000 602000 1                  TNC     s:5839+86
         1 000664   160007 100003                    CMPX0   57351,DU
         1 000665   004015 600000 1                  TZE     s:5983
PL6.E3A0      #001=DDR$INSTR File=DDR$INSTR.:E05TSI                              TUE 07/29/97 14:07 Page:51
         1 000666   160017 100003                    CMPX0   57359,DU
         1 000667   000747 602000 1                  TNC     s:5839+61
         1 000670   160017 100003                    CMPX0   57359,DU
         1 000671   004105 600000 1                  TZE     s:5991
         1 000672   160027 100003                    CMPX0   57367,DU
         1 000673   000717 602000 1                  TNC     s:5839+37
         1 000674   160027 100003                    CMPX0   57367,DU
         1 000675   004175 600000 1                  TZE     s:5999
         1 000676   160031 100003                    CMPX0   57369,DU
         1 000677   000714 602000 1                  TNC     s:5839+34
         1 000700   160031 100003                    CMPX0   57369,DU
         1 000701   004213 600000 1                  TZE     s:6001
         1 000702   170000 100003                    CMPX0   61440,DU
         1 000703   000711 602000 1                  TNC     s:5839+31
         1 000704   170000 100003                    CMPX0   61440,DU
         1 000705   004231 600000 1                  TZE     s:6003
         1 000706   170001 100003                    CMPX0   61441,DU
         1 000707   004247 601000 1                  TNZ     s:6006
         1 000710   004240 710000 1                  TRA     s:6004
         1 000711   160032 100003                    CMPX0   57370,DU
         1 000712   004247 601000 1                  TNZ     s:6006
         1 000713   004222 710000 1                  TRA     s:6002
         1 000714   160030 100003                    CMPX0   57368,DU
         1 000715   004247 601000 1                  TNZ     s:6006
         1 000716   004204 710000 1                  TRA     s:6000
         1 000717   160023 100003                    CMPX0   57363,DU
         1 000720   000735 602000 1                  TNC     s:5839+51
         1 000721   160023 100003                    CMPX0   57363,DU
         1 000722   004141 600000 1                  TZE     s:5995
         1 000723   160025 100003                    CMPX0   57365,DU
         1 000724   000732 602000 1                  TNC     s:5839+48
         1 000725   160025 100003                    CMPX0   57365,DU
         1 000726   004157 600000 1                  TZE     s:5997
         1 000727   160026 100003                    CMPX0   57366,DU
         1 000730   004247 601000 1                  TNZ     s:6006
         1 000731   004166 710000 1                  TRA     s:5998
         1 000732   160024 100003                    CMPX0   57364,DU
PL6.E3A0      #001=DDR$INSTR File=DDR$INSTR.:E05TSI                              TUE 07/29/97 14:07 Page:52
         1 000733   004247 601000 1                  TNZ     s:6006
         1 000734   004150 710000 1                  TRA     s:5996
         1 000735   160021 100003                    CMPX0   57361,DU
         1 000736   000744 602000 1                  TNC     s:5839+58
         1 000737   160021 100003                    CMPX0   57361,DU
         1 000740   004123 600000 1                  TZE     s:5993
         1 000741   160022 100003                    CMPX0   57362,DU
         1 000742   004247 601000 1                  TNZ     s:6006
         1 000743   004132 710000 1                  TRA     s:5994
         1 000744   160020 100003                    CMPX0   57360,DU
         1 000745   004247 601000 1                  TNZ     s:6006
         1 000746   004114 710000 1                  TRA     s:5992
         1 000747   160013 100003                    CMPX0   57355,DU
         1 000750   000766 602000 1                  TNC     s:5839+76
         1 000751   160013 100003                    CMPX0   57355,DU
         1 000752   004051 600000 1                  TZE     s:5987
         1 000753   160015 100003                    CMPX0   57357,DU
         1 000754   000762 602000 1                  TNC     s:5839+72
         1 000755   160015 100003                    CMPX0   57357,DU
         1 000756   004067 600000 1                  TZE     s:5989
         1 000757   160016 100003                    CMPX0   57358,DU
         1 000760   004247 601000 1                  TNZ     s:6006
         1 000761   004076 710000 1                  TRA     s:5990
         1 000762   200032 220100                    LDX0    X0,,AUTO
         1 000763   160014 100003                    CMPX0   57356,DU
         1 000764   004247 601000 1                  TNZ     s:6006
         1 000765   004060 710000 1                  TRA     s:5988
         1 000766   160011 100003                    CMPX0   57353,DU
         1 000767   000775 602000 1                  TNC     s:5839+83
         1 000770   160011 100003                    CMPX0   57353,DU
         1 000771   004033 600000 1                  TZE     s:5985
         1 000772   160012 100003                    CMPX0   57354,DU
         1 000773   004247 601000 1                  TNZ     s:6006
         1 000774   004042 710000 1                  TRA     s:5986
         1 000775   160010 100003                    CMPX0   57352,DU
         1 000776   004247 601000 1                  TNZ     s:6006
         1 000777   004024 710000 1                  TRA     s:5984
PL6.E3A0      #001=DDR$INSTR File=DDR$INSTR.:E05TSI                              TUE 07/29/97 14:07 Page:53
         1 001000   150005 100003                    CMPX0   53253,DU
         1 001001   001037 602000 1                  TNC     s:5839+117
         1 001002   150005 100003                    CMPX0   53253,DU
         1 001003   003725 600000 1                  TZE     s:5975
         1 001004   160003 100003                    CMPX0   57347,DU
         1 001005   001023 602000 1                  TNC     s:5839+105
         1 001006   160003 100003                    CMPX0   57347,DU
         1 001007   003761 600000 1                  TZE     s:5979
         1 001010   160005 100003                    CMPX0   57349,DU
         1 001011   001017 602000 1                  TNC     s:5839+101
         1 001012   160005 100003                    CMPX0   57349,DU
         1 001013   003777 600000 1                  TZE     s:5981
         1 001014   160006 100003                    CMPX0   57350,DU
         1 001015   004247 601000 1                  TNZ     s:6006
         1 001016   004006 710000 1                  TRA     s:5982
         1 001017   200032 220100                    LDX0    X0,,AUTO
         1 001020   160004 100003                    CMPX0   57348,DU
         1 001021   004247 601000 1                  TNZ     s:6006
         1 001022   003770 710000 1                  TRA     s:5980
         1 001023   200032 220100                    LDX0    X0,,AUTO
         1 001024   160001 100003                    CMPX0   57345,DU
         1 001025   001033 602000 1                  TNC     s:5839+113
         1 001026   160001 100003                    CMPX0   57345,DU
         1 001027   003743 600000 1                  TZE     s:5977
         1 001030   160002 100003                    CMPX0   57346,DU
         1 001031   004247 601000 1                  TNZ     s:6006
         1 001032   003752 710000 1                  TRA     s:5978
         1 001033   200032 220100                    LDX0    X0,,AUTO
         1 001034   160000 100003                    CMPX0   57344,DU
         1 001035   004247 601000 1                  TNZ     s:6006
         1 001036   003734 710000 1                  TRA     s:5976
         1 001037   150001 100003                    CMPX0   53249,DU
         1 001040   001056 602000 1                  TNC     s:5839+132
         1 001041   150001 100003                    CMPX0   53249,DU
         1 001042   003671 600000 1                  TZE     s:5971
         1 001043   150003 100003                    CMPX0   53251,DU
         1 001044   001052 602000 1                  TNC     s:5839+128
PL6.E3A0      #001=DDR$INSTR File=DDR$INSTR.:E05TSI                              TUE 07/29/97 14:07 Page:54
         1 001045   150003 100003                    CMPX0   53251,DU
         1 001046   003707 600000 1                  TZE     s:5973
         1 001047   150004 100003                    CMPX0   53252,DU
         1 001050   004247 601000 1                  TNZ     s:6006
         1 001051   003716 710000 1                  TRA     s:5974
         1 001052   200032 220100                    LDX0    X0,,AUTO
         1 001053   150002 100003                    CMPX0   53250,DU
         1 001054   004247 601000 1                  TNZ     s:6006
         1 001055   003700 710000 1                  TRA     s:5972
         1 001056   140006 100003                    CMPX0   49158,DU
         1 001057   001065 602000 1                  TNC     s:5839+139
         1 001060   140006 100003                    CMPX0   49158,DU
         1 001061   003653 600000 1                  TZE     s:5969
         1 001062   150000 100003                    CMPX0   53248,DU
         1 001063   004247 601000 1                  TNZ     s:6006
         1 001064   003662 710000 1                  TRA     s:5970
         1 001065   140005 100003                    CMPX0   49157,DU
         1 001066   004247 601000 1                  TNZ     s:6006
         1 001067   003644 710000 1                  TRA     s:5968
         1 001070   050004 100003                    CMPX0   20484,DU
         1 001071   001267 602000 1                  TNC     s:5839+269
         1 001072   050004 100003                    CMPX0   20484,DU
         1 001073   003275 600000 1                  TZE     s:5935
         1 001074   070004 100003                    CMPX0   28676,DU
         1 001075   001173 602000 1                  TNC     s:5839+209
         1 001076   070004 100003                    CMPX0   28676,DU
         1 001077   003455 600000 1                  TZE     s:5951
         1 001100   100004 100003                    CMPX0   32772,DU
         1 001101   001137 602000 1                  TNC     s:5839+181
         1 001102   100004 100003                    CMPX0   32772,DU
         1 001103   003545 600000 1                  TZE     s:5959
         1 001104   120001 100003                    CMPX0   40961,DU
         1 001105   001123 602000 1                  TNC     s:5839+169
         1 001106   120001 100003                    CMPX0   40961,DU
         1 001107   003601 600000 1                  TZE     s:5963
         1 001110   130001 100003                    CMPX0   45057,DU
         1 001111   001117 602000 1                  TNC     s:5839+165
PL6.E3A0      #001=DDR$INSTR File=DDR$INSTR.:E05TSI                              TUE 07/29/97 14:07 Page:55
         1 001112   130001 100003                    CMPX0   45057,DU
         1 001113   003617 600000 1                  TZE     s:5965
         1 001114   140003 100003                    CMPX0   49155,DU
         1 001115   004247 601000 1                  TNZ     s:6006
         1 001116   003626 710000 1                  TRA     s:5966
         1 001117   200032 220100                    LDX0    X0,,AUTO
         1 001120   130000 100003                    CMPX0   45056,DU
         1 001121   004247 601000 1                  TNZ     s:6006
         1 001122   003610 710000 1                  TRA     s:5964
         1 001123   200032 220100                    LDX0    X0,,AUTO
         1 001124   110000 100003                    CMPX0   36864,DU
         1 001125   001133 602000 1                  TNC     s:5839+177
         1 001126   110000 100003                    CMPX0   36864,DU
         1 001127   003563 600000 1                  TZE     s:5961
         1 001130   120000 100003                    CMPX0   40960,DU
         1 001131   004247 601000 1                  TNZ     s:6006
         1 001132   003572 710000 1                  TRA     s:5962
         1 001133   200032 220100                    LDX0    X0,,AUTO
         1 001134   100005 100003                    CMPX0   32773,DU
         1 001135   004247 601000 1                  TNZ     s:6006
         1 001136   003554 710000 1                  TRA     s:5960
         1 001137   200032 220100                    LDX0    X0,,AUTO
         1 001140   100000 100003                    CMPX0   32768,DU
         1 001141   001157 602000 1                  TNC     s:5839+197
         1 001142   100000 100003                    CMPX0   32768,DU
         1 001143   003511 600000 1                  TZE     s:5955
         1 001144   100002 100003                    CMPX0   32770,DU
         1 001145   001153 602000 1                  TNC     s:5839+193
         1 001146   100002 100003                    CMPX0   32770,DU
         1 001147   003527 600000 1                  TZE     s:5957
         1 001150   100003 100003                    CMPX0   32771,DU
         1 001151   004247 601000 1                  TNZ     s:6006
         1 001152   003536 710000 1                  TRA     s:5958
         1 001153   200032 220100                    LDX0    X0,,AUTO
         1 001154   100001 100003                    CMPX0   32769,DU
         1 001155   004247 601000 1                  TNZ     s:6006
         1 001156   003520 710000 1                  TRA     s:5956
PL6.E3A0      #001=DDR$INSTR File=DDR$INSTR.:E05TSI                              TUE 07/29/97 14:07 Page:56
         1 001157   200032 220100                    LDX0    X0,,AUTO
         1 001160   070006 100003                    CMPX0   28678,DU
         1 001161   001167 602000 1                  TNC     s:5839+205
         1 001162   070006 100003                    CMPX0   28678,DU
         1 001163   003473 600000 1                  TZE     s:5953
         1 001164   070007 100003                    CMPX0   28679,DU
         1 001165   004247 601000 1                  TNZ     s:6006
         1 001166   003502 710000 1                  TRA     s:5954
         1 001167   200032 220100                    LDX0    X0,,AUTO
         1 001170   070005 100003                    CMPX0   28677,DU
         1 001171   004247 601000 1                  TNZ     s:6006
         1 001172   003464 710000 1                  TRA     s:5952
         1 001173   200032 220100                    LDX0    X0,,AUTO
         1 001174   060005 100003                    CMPX0   24581,DU
         1 001175   001233 602000 1                  TNC     s:5839+241
         1 001176   060005 100003                    CMPX0   24581,DU
         1 001177   003365 600000 1                  TZE     s:5943
         1 001200   070000 100003                    CMPX0   28672,DU
         1 001201   001217 602000 1                  TNC     s:5839+229
         1 001202   070000 100003                    CMPX0   28672,DU
         1 001203   003421 600000 1                  TZE     s:5947
         1 001204   070002 100003                    CMPX0   28674,DU
         1 001205   001213 602000 1                  TNC     s:5839+225
         1 001206   070002 100003                    CMPX0   28674,DU
         1 001207   003437 600000 1                  TZE     s:5949
         1 001210   070003 100003                    CMPX0   28675,DU
         1 001211   004247 601000 1                  TNZ     s:6006
         1 001212   003446 710000 1                  TRA     s:5950
         1 001213   200032 220100                    LDX0    X0,,AUTO
         1 001214   070001 100003                    CMPX0   28673,DU
         1 001215   004247 601000 1                  TNZ     s:6006
         1 001216   003430 710000 1                  TRA     s:5948
         1 001217   200032 220100                    LDX0    X0,,AUTO
         1 001220   060007 100003                    CMPX0   24583,DU
         1 001221   001227 602000 1                  TNC     s:5839+237
         1 001222   060007 100003                    CMPX0   24583,DU
         1 001223   003403 600000 1                  TZE     s:5945
PL6.E3A0      #001=DDR$INSTR File=DDR$INSTR.:E05TSI                              TUE 07/29/97 14:07 Page:57
         1 001224   060010 100003                    CMPX0   24584,DU
         1 001225   004247 601000 1                  TNZ     s:6006
         1 001226   003412 710000 1                  TRA     s:5946
         1 001227   200032 220100                    LDX0    X0,,AUTO
         1 001230   060006 100003                    CMPX0   24582,DU
         1 001231   004247 601000 1                  TNZ     s:6006
         1 001232   003374 710000 1                  TRA     s:5944
         1 001233   200032 220100                    LDX0    X0,,AUTO
         1 001234   060001 100003                    CMPX0   24577,DU
         1 001235   001253 602000 1                  TNC     s:5839+257
         1 001236   060001 100003                    CMPX0   24577,DU
         1 001237   003331 600000 1                  TZE     s:5939
         1 001240   060003 100003                    CMPX0   24579,DU
         1 001241   001247 602000 1                  TNC     s:5839+253
         1 001242   060003 100003                    CMPX0   24579,DU
         1 001243   003347 600000 1                  TZE     s:5941
         1 001244   060004 100003                    CMPX0   24580,DU
         1 001245   004247 601000 1                  TNZ     s:6006
         1 001246   003356 710000 1                  TRA     s:5942
         1 001247   200032 220100                    LDX0    X0,,AUTO
         1 001250   060002 100003                    CMPX0   24578,DU
         1 001251   004247 601000 1                  TNZ     s:6006
         1 001252   003340 710000 1                  TRA     s:5940
         1 001253   200032 220100                    LDX0    X0,,AUTO
         1 001254   050006 100003                    CMPX0   20486,DU
         1 001255   001263 602000 1                  TNC     s:5839+265
         1 001256   050006 100003                    CMPX0   20486,DU
         1 001257   003313 600000 1                  TZE     s:5937
         1 001260   060000 100003                    CMPX0   24576,DU
         1 001261   004247 601000 1                  TNZ     s:6006
         1 001262   003322 710000 1                  TRA     s:5938
         1 001263   200032 220100                    LDX0    X0,,AUTO
         1 001264   050005 100003                    CMPX0   20485,DU
         1 001265   004247 601000 1                  TNZ     s:6006
         1 001266   003304 710000 1                  TRA     s:5936
         1 001267   030022 100003                    CMPX0   12306,DU
         1 001270   001366 602000 1                  TNC     s:5839+332
PL6.E3A0      #001=DDR$INSTR File=DDR$INSTR.:E05TSI                              TUE 07/29/97 14:07 Page:58
         1 001271   030022 100003                    CMPX0   12306,DU
         1 001272   003115 600000 1                  TZE     s:5919
         1 001273   040004 100003                    CMPX0   16388,DU
         1 001274   001332 602000 1                  TNC     s:5839+304
         1 001275   040004 100003                    CMPX0   16388,DU
         1 001276   003205 600000 1                  TZE     s:5927
         1 001277   050000 100003                    CMPX0   20480,DU
         1 001300   001316 602000 1                  TNC     s:5839+292
         1 001301   050000 100003                    CMPX0   20480,DU
         1 001302   003241 600000 1                  TZE     s:5931
         1 001303   050002 100003                    CMPX0   20482,DU
         1 001304   001312 602000 1                  TNC     s:5839+288
         1 001305   050002 100003                    CMPX0   20482,DU
         1 001306   003257 600000 1                  TZE     s:5933
         1 001307   050003 100003                    CMPX0   20483,DU
         1 001310   004247 601000 1                  TNZ     s:6006
         1 001311   003266 710000 1                  TRA     s:5934
         1 001312   200032 220100                    LDX0    X0,,AUTO
         1 001313   050001 100003                    CMPX0   20481,DU
         1 001314   004247 601000 1                  TNZ     s:6006
         1 001315   003250 710000 1                  TRA     s:5932
         1 001316   200032 220100                    LDX0    X0,,AUTO
         1 001317   040006 100003                    CMPX0   16390,DU
         1 001320   001326 602000 1                  TNC     s:5839+300
         1 001321   040006 100003                    CMPX0   16390,DU
         1 001322   003223 600000 1                  TZE     s:5929
         1 001323   040007 100003                    CMPX0   16391,DU
         1 001324   004247 601000 1                  TNZ     s:6006
         1 001325   003232 710000 1                  TRA     s:5930
         1 001326   200032 220100                    LDX0    X0,,AUTO
         1 001327   040005 100003                    CMPX0   16389,DU
         1 001330   004247 601000 1                  TNZ     s:6006
         1 001331   003214 710000 1                  TRA     s:5928
         1 001332   200032 220100                    LDX0    X0,,AUTO
         1 001333   040000 100003                    CMPX0   16384,DU
         1 001334   001352 602000 1                  TNC     s:5839+320
         1 001335   040000 100003                    CMPX0   16384,DU
PL6.E3A0      #001=DDR$INSTR File=DDR$INSTR.:E05TSI                              TUE 07/29/97 14:07 Page:59
         1 001336   003151 600000 1                  TZE     s:5923
         1 001337   040002 100003                    CMPX0   16386,DU
         1 001340   001346 602000 1                  TNC     s:5839+316
         1 001341   040002 100003                    CMPX0   16386,DU
         1 001342   003167 600000 1                  TZE     s:5925
         1 001343   040003 100003                    CMPX0   16387,DU
         1 001344   004247 601000 1                  TNZ     s:6006
         1 001345   003176 710000 1                  TRA     s:5926
         1 001346   200032 220100                    LDX0    X0,,AUTO
         1 001347   040001 100003                    CMPX0   16385,DU
         1 001350   004247 601000 1                  TNZ     s:6006
         1 001351   003160 710000 1                  TRA     s:5924
         1 001352   200032 220100                    LDX0    X0,,AUTO
         1 001353   030024 100003                    CMPX0   12308,DU
         1 001354   001362 602000 1                  TNC     s:5839+328
         1 001355   030024 100003                    CMPX0   12308,DU
         1 001356   003133 600000 1                  TZE     s:5921
         1 001357   030025 100003                    CMPX0   12309,DU
         1 001360   004247 601000 1                  TNZ     s:6006
         1 001361   003142 710000 1                  TRA     s:5922
         1 001362   200032 220100                    LDX0    X0,,AUTO
         1 001363   030023 100003                    CMPX0   12307,DU
         1 001364   004247 601000 1                  TNZ     s:6006
         1 001365   003124 710000 1                  TRA     s:5920
         1 001366   030012 100003                    CMPX0   12298,DU
         1 001367   001425 602000 1                  TNC     s:5839+363
         1 001370   030012 100003                    CMPX0   12298,DU
         1 001371   003025 600000 1                  TZE     s:5911
         1 001372   030016 100003                    CMPX0   12302,DU
         1 001373   001411 602000 1                  TNC     s:5839+351
         1 001374   030016 100003                    CMPX0   12302,DU
         1 001375   003061 600000 1                  TZE     s:5915
         1 001376   030020 100003                    CMPX0   12304,DU
         1 001377   001405 602000 1                  TNC     s:5839+347
         1 001400   030020 100003                    CMPX0   12304,DU
         1 001401   003077 600000 1                  TZE     s:5917
         1 001402   030021 100003                    CMPX0   12305,DU
PL6.E3A0      #001=DDR$INSTR File=DDR$INSTR.:E05TSI                              TUE 07/29/97 14:07 Page:60
         1 001403   004247 601000 1                  TNZ     s:6006
         1 001404   003106 710000 1                  TRA     s:5918
         1 001405   200032 220100                    LDX0    X0,,AUTO
         1 001406   030017 100003                    CMPX0   12303,DU
         1 001407   004247 601000 1                  TNZ     s:6006
         1 001410   003070 710000 1                  TRA     s:5916
         1 001411   200032 220100                    LDX0    X0,,AUTO
         1 001412   030014 100003                    CMPX0   12300,DU
         1 001413   001421 602000 1                  TNC     s:5839+359
         1 001414   030014 100003                    CMPX0   12300,DU
         1 001415   003043 600000 1                  TZE     s:5913
         1 001416   030015 100003                    CMPX0   12301,DU
         1 001417   004247 601000 1                  TNZ     s:6006
         1 001420   003052 710000 1                  TRA     s:5914
         1 001421   200032 220100                    LDX0    X0,,AUTO
         1 001422   030013 100003                    CMPX0   12299,DU
         1 001423   004247 601000 1                  TNZ     s:6006
         1 001424   003034 710000 1                  TRA     s:5912
         1 001425   030006 100003                    CMPX0   12294,DU
         1 001426   001444 602000 1                  TNC     s:5839+378
         1 001427   030006 100003                    CMPX0   12294,DU
         1 001430   002771 600000 1                  TZE     s:5907
         1 001431   030010 100003                    CMPX0   12296,DU
         1 001432   001440 602000 1                  TNC     s:5839+374
         1 001433   030010 100003                    CMPX0   12296,DU
         1 001434   003007 600000 1                  TZE     s:5909
         1 001435   030011 100003                    CMPX0   12297,DU
         1 001436   004247 601000 1                  TNZ     s:6006
         1 001437   003016 710000 1                  TRA     s:5910
         1 001440   200032 220100                    LDX0    X0,,AUTO
         1 001441   030007 100003                    CMPX0   12295,DU
         1 001442   004247 601000 1                  TNZ     s:6006
         1 001443   003000 710000 1                  TRA     s:5908
         1 001444   030004 100003                    CMPX0   12292,DU
         1 001445   001453 602000 1                  TNC     s:5839+385
         1 001446   030004 100003                    CMPX0   12292,DU
         1 001447   002753 600000 1                  TZE     s:5905
PL6.E3A0      #001=DDR$INSTR File=DDR$INSTR.:E05TSI                              TUE 07/29/97 14:07 Page:61
         1 001450   030005 100003                    CMPX0   12293,DU
         1 001451   004247 601000 1                  TNZ     s:6006
         1 001452   002762 710000 1                  TRA     s:5906
         1 001453   030003 100003                    CMPX0   12291,DU
         1 001454   004247 601000 1                  TNZ     s:6006
         1 001455   002744 710000 1                  TRA     s:5904
         1 001456   010011 100003                    CMPX0   4105,DU
         1 001457   001655 602000 1                  TNC     s:5839+515
         1 001460   010011 100003                    CMPX0   4105,DU
         1 001461   002375 600000 1                  TZE     s:5871
         1 001462   020011 100003                    CMPX0   8201,DU
         1 001463   001561 602000 1                  TNC     s:5839+455
         1 001464   020011 100003                    CMPX0   8201,DU
         1 001465   002555 600000 1                  TZE     s:5887
         1 001466   020021 100003                    CMPX0   8209,DU
         1 001467   001525 602000 1                  TNC     s:5839+427
         1 001470   020021 100003                    CMPX0   8209,DU
         1 001471   002645 600000 1                  TZE     s:5895
         1 001472   020025 100003                    CMPX0   8213,DU
         1 001473   001511 602000 1                  TNC     s:5839+415
         1 001474   020025 100003                    CMPX0   8213,DU
         1 001475   002701 600000 1                  TZE     s:5899
         1 001476   030000 100003                    CMPX0   12288,DU
         1 001477   001505 602000 1                  TNC     s:5839+411
         1 001500   030000 100003                    CMPX0   12288,DU
         1 001501   002717 600000 1                  TZE     s:5901
         1 001502   030001 100003                    CMPX0   12289,DU
         1 001503   004247 601000 1                  TNZ     s:6006
         1 001504   002726 710000 1                  TRA     s:5902
         1 001505   200032 220100                    LDX0    X0,,AUTO
         1 001506   020026 100003                    CMPX0   8214,DU
         1 001507   004247 601000 1                  TNZ     s:6006
         1 001510   002710 710000 1                  TRA     s:5900
         1 001511   200032 220100                    LDX0    X0,,AUTO
         1 001512   020023 100003                    CMPX0   8211,DU
         1 001513   001521 602000 1                  TNC     s:5839+423
         1 001514   020023 100003                    CMPX0   8211,DU
PL6.E3A0      #001=DDR$INSTR File=DDR$INSTR.:E05TSI                              TUE 07/29/97 14:07 Page:62
         1 001515   002663 600000 1                  TZE     s:5897
         1 001516   020024 100003                    CMPX0   8212,DU
         1 001517   004247 601000 1                  TNZ     s:6006
         1 001520   002672 710000 1                  TRA     s:5898
         1 001521   200032 220100                    LDX0    X0,,AUTO
         1 001522   020022 100003                    CMPX0   8210,DU
         1 001523   004247 601000 1                  TNZ     s:6006
         1 001524   002654 710000 1                  TRA     s:5896
         1 001525   200032 220100                    LDX0    X0,,AUTO
         1 001526   020015 100003                    CMPX0   8205,DU
         1 001527   001545 602000 1                  TNC     s:5839+443
         1 001530   020015 100003                    CMPX0   8205,DU
         1 001531   002611 600000 1                  TZE     s:5891
         1 001532   020017 100003                    CMPX0   8207,DU
         1 001533   001541 602000 1                  TNC     s:5839+439
         1 001534   020017 100003                    CMPX0   8207,DU
         1 001535   002627 600000 1                  TZE     s:5893
         1 001536   020020 100003                    CMPX0   8208,DU
         1 001537   004247 601000 1                  TNZ     s:6006
         1 001540   002636 710000 1                  TRA     s:5894
         1 001541   200032 220100                    LDX0    X0,,AUTO
         1 001542   020016 100003                    CMPX0   8206,DU
         1 001543   004247 601000 1                  TNZ     s:6006
         1 001544   002620 710000 1                  TRA     s:5892
         1 001545   200032 220100                    LDX0    X0,,AUTO
         1 001546   020013 100003                    CMPX0   8203,DU
         1 001547   001555 602000 1                  TNC     s:5839+451
         1 001550   020013 100003                    CMPX0   8203,DU
         1 001551   002573 600000 1                  TZE     s:5889
         1 001552   020014 100003                    CMPX0   8204,DU
         1 001553   004247 601000 1                  TNZ     s:6006
         1 001554   002602 710000 1                  TRA     s:5890
         1 001555   200032 220100                    LDX0    X0,,AUTO
         1 001556   020012 100003                    CMPX0   8202,DU
         1 001557   004247 601000 1                  TNZ     s:6006
         1 001560   002564 710000 1                  TRA     s:5888
         1 001561   200032 220100                    LDX0    X0,,AUTO
PL6.E3A0      #001=DDR$INSTR File=DDR$INSTR.:E05TSI                              TUE 07/29/97 14:07 Page:63
         1 001562   020001 100003                    CMPX0   8193,DU
         1 001563   001621 602000 1                  TNC     s:5839+487
         1 001564   020001 100003                    CMPX0   8193,DU
         1 001565   002465 600000 1                  TZE     s:5879
         1 001566   020005 100003                    CMPX0   8197,DU
         1 001567   001605 602000 1                  TNC     s:5839+475
         1 001570   020005 100003                    CMPX0   8197,DU
         1 001571   002521 600000 1                  TZE     s:5883
         1 001572   020007 100003                    CMPX0   8199,DU
         1 001573   001601 602000 1                  TNC     s:5839+471
         1 001574   020007 100003                    CMPX0   8199,DU
         1 001575   002537 600000 1                  TZE     s:5885
         1 001576   020010 100003                    CMPX0   8200,DU
         1 001577   004247 601000 1                  TNZ     s:6006
         1 001600   002546 710000 1                  TRA     s:5886
         1 001601   200032 220100                    LDX0    X0,,AUTO
         1 001602   020006 100003                    CMPX0   8198,DU
         1 001603   004247 601000 1                  TNZ     s:6006
         1 001604   002530 710000 1                  TRA     s:5884
         1 001605   200032 220100                    LDX0    X0,,AUTO
         1 001606   020003 100003                    CMPX0   8195,DU
         1 001607   001615 602000 1                  TNC     s:5839+483
         1 001610   020003 100003                    CMPX0   8195,DU
         1 001611   002503 600000 1                  TZE     s:5881
         1 001612   020004 100003                    CMPX0   8196,DU
         1 001613   004247 601000 1                  TNZ     s:6006
         1 001614   002512 710000 1                  TRA     s:5882
         1 001615   200032 220100                    LDX0    X0,,AUTO
         1 001616   020002 100003                    CMPX0   8194,DU
         1 001617   004247 601000 1                  TNZ     s:6006
         1 001620   002474 710000 1                  TRA     s:5880
         1 001621   200032 220100                    LDX0    X0,,AUTO
         1 001622   010015 100003                    CMPX0   4109,DU
         1 001623   001641 602000 1                  TNC     s:5839+503
         1 001624   010015 100003                    CMPX0   4109,DU
         1 001625   002431 600000 1                  TZE     s:5875
         1 001626   010017 100003                    CMPX0   4111,DU
PL6.E3A0      #001=DDR$INSTR File=DDR$INSTR.:E05TSI                              TUE 07/29/97 14:07 Page:64
         1 001627   001635 602000 1                  TNC     s:5839+499
         1 001630   010017 100003                    CMPX0   4111,DU
         1 001631   002447 600000 1                  TZE     s:5877
         1 001632   020000 100003                    CMPX0   8192,DU
         1 001633   004247 601000 1                  TNZ     s:6006
         1 001634   002456 710000 1                  TRA     s:5878
         1 001635   200032 220100                    LDX0    X0,,AUTO
         1 001636   010016 100003                    CMPX0   4110,DU
         1 001637   004247 601000 1                  TNZ     s:6006
         1 001640   002440 710000 1                  TRA     s:5876
         1 001641   200032 220100                    LDX0    X0,,AUTO
         1 001642   010013 100003                    CMPX0   4107,DU
         1 001643   001651 602000 1                  TNC     s:5839+511
         1 001644   010013 100003                    CMPX0   4107,DU
         1 001645   002413 600000 1                  TZE     s:5873
         1 001646   010014 100003                    CMPX0   4108,DU
         1 001647   004247 601000 1                  TNZ     s:6006
         1 001650   002422 710000 1                  TRA     s:5874
         1 001651   200032 220100                    LDX0    X0,,AUTO
         1 001652   010012 100003                    CMPX0   4106,DU
         1 001653   004247 601000 1                  TNZ     s:6006
         1 001654   002404 710000 1                  TRA     s:5872
         1 001655   000020 100003                    CMPX0   16,DU
         1 001656   001754 602000 1                  TNC     s:5839+578
         1 001657   000020 100003                    CMPX0   16,DU
         1 001660   002215 600000 1                  TZE     s:5855
         1 001661   010001 100003                    CMPX0   4097,DU
         1 001662   001720 602000 1                  TNC     s:5839+550
         1 001663   010001 100003                    CMPX0   4097,DU
         1 001664   002305 600000 1                  TZE     s:5863
         1 001665   010005 100003                    CMPX0   4101,DU
         1 001666   001704 602000 1                  TNC     s:5839+538
         1 001667   010005 100003                    CMPX0   4101,DU
         1 001670   002341 600000 1                  TZE     s:5867
         1 001671   010007 100003                    CMPX0   4103,DU
         1 001672   001700 602000 1                  TNC     s:5839+534
         1 001673   010007 100003                    CMPX0   4103,DU
PL6.E3A0      #001=DDR$INSTR File=DDR$INSTR.:E05TSI                              TUE 07/29/97 14:07 Page:65
         1 001674   002357 600000 1                  TZE     s:5869
         1 001675   010010 100003                    CMPX0   4104,DU
         1 001676   004247 601000 1                  TNZ     s:6006
         1 001677   002366 710000 1                  TRA     s:5870
         1 001700   200032 220100                    LDX0    X0,,AUTO
         1 001701   010006 100003                    CMPX0   4102,DU
         1 001702   004247 601000 1                  TNZ     s:6006
         1 001703   002350 710000 1                  TRA     s:5868
         1 001704   200032 220100                    LDX0    X0,,AUTO
         1 001705   010003 100003                    CMPX0   4099,DU
         1 001706   001714 602000 1                  TNC     s:5839+546
         1 001707   010003 100003                    CMPX0   4099,DU
         1 001710   002323 600000 1                  TZE     s:5865
         1 001711   010004 100003                    CMPX0   4100,DU
         1 001712   004247 601000 1                  TNZ     s:6006
         1 001713   002332 710000 1                  TRA     s:5866
         1 001714   200032 220100                    LDX0    X0,,AUTO
         1 001715   010002 100003                    CMPX0   4098,DU
         1 001716   004247 601000 1                  TNZ     s:6006
         1 001717   002314 710000 1                  TRA     s:5864
         1 001720   200032 220100                    LDX0    X0,,AUTO
         1 001721   000024 100003                    CMPX0   20,DU
         1 001722   001740 602000 1                  TNC     s:5839+566
         1 001723   000024 100003                    CMPX0   20,DU
         1 001724   002251 600000 1                  TZE     s:5859
         1 001725   000026 100003                    CMPX0   22,DU
         1 001726   001734 602000 1                  TNC     s:5839+562
         1 001727   000026 100003                    CMPX0   22,DU
         1 001730   002267 600000 1                  TZE     s:5861
         1 001731   010000 100003                    CMPX0   4096,DU
         1 001732   004247 601000 1                  TNZ     s:6006
         1 001733   002276 710000 1                  TRA     s:5862
         1 001734   200032 220100                    LDX0    X0,,AUTO
         1 001735   000025 100003                    CMPX0   21,DU
         1 001736   004247 601000 1                  TNZ     s:6006
         1 001737   002260 710000 1                  TRA     s:5860
         1 001740   200032 220100                    LDX0    X0,,AUTO
PL6.E3A0      #001=DDR$INSTR File=DDR$INSTR.:E05TSI                              TUE 07/29/97 14:07 Page:66
         1 001741   000022 100003                    CMPX0   18,DU
         1 001742   001750 602000 1                  TNC     s:5839+574
         1 001743   000022 100003                    CMPX0   18,DU
         1 001744   002233 600000 1                  TZE     s:5857
         1 001745   000023 100003                    CMPX0   19,DU
         1 001746   004247 601000 1                  TNZ     s:6006
         1 001747   002242 710000 1                  TRA     s:5858
         1 001750   200032 220100                    LDX0    X0,,AUTO
         1 001751   000021 100003                    CMPX0   17,DU
         1 001752   004247 601000 1                  TNZ     s:6006
         1 001753   002224 710000 1                  TRA     s:5856
         1 001754   000010 100003                    CMPX0   8,DU
         1 001755   002013 602000 1                  TNC     s:5839+609
         1 001756   000010 100003                    CMPX0   8,DU
         1 001757   002125 600000 1                  TZE     s:5847
         1 001760   000014 100003                    CMPX0   12,DU
         1 001761   001777 602000 1                  TNC     s:5839+597
         1 001762   000014 100003                    CMPX0   12,DU
         1 001763   002161 600000 1                  TZE     s:5851
         1 001764   000016 100003                    CMPX0   14,DU
         1 001765   001773 602000 1                  TNC     s:5839+593
         1 001766   000016 100003                    CMPX0   14,DU
         1 001767   002177 600000 1                  TZE     s:5853
         1 001770   000017 100003                    CMPX0   15,DU
         1 001771   004247 601000 1                  TNZ     s:6006
         1 001772   002206 710000 1                  TRA     s:5854
         1 001773   200032 220100                    LDX0    X0,,AUTO
         1 001774   000015 100003                    CMPX0   13,DU
         1 001775   004247 601000 1                  TNZ     s:6006
         1 001776   002170 710000 1                  TRA     s:5852
         1 001777   200032 220100                    LDX0    X0,,AUTO
         1 002000   000012 100003                    CMPX0   10,DU
         1 002001   002007 602000 1                  TNC     s:5839+605
         1 002002   000012 100003                    CMPX0   10,DU
         1 002003   002143 600000 1                  TZE     s:5849
         1 002004   000013 100003                    CMPX0   11,DU
         1 002005   004247 601000 1                  TNZ     s:6006
PL6.E3A0      #001=DDR$INSTR File=DDR$INSTR.:E05TSI                              TUE 07/29/97 14:07 Page:67
         1 002006   002152 710000 1                  TRA     s:5850
         1 002007   200032 220100                    LDX0    X0,,AUTO
         1 002010   000011 100003                    CMPX0   9,DU
         1 002011   004247 601000 1                  TNZ     s:6006
         1 002012   002134 710000 1                  TRA     s:5848
         1 002013   000004 100003                    CMPX0   4,DU
         1 002014   002032 602000 1                  TNC     s:5839+624
         1 002015   000004 100003                    CMPX0   4,DU
         1 002016   002071 600000 1                  TZE     s:5843
         1 002017   000006 100003                    CMPX0   6,DU
         1 002020   002026 602000 1                  TNC     s:5839+620
         1 002021   000006 100003                    CMPX0   6,DU
         1 002022   002107 600000 1                  TZE     s:5845
         1 002023   000007 100003                    CMPX0   7,DU
         1 002024   004247 601000 1                  TNZ     s:6006
         1 002025   002116 710000 1                  TRA     s:5846
         1 002026   200032 220100                    LDX0    X0,,AUTO
         1 002027   000005 100003                    CMPX0   5,DU
         1 002030   004247 601000 1                  TNZ     s:6006
         1 002031   002100 710000 1                  TRA     s:5844
         1 002032   000002 100003                    CMPX0   2,DU
         1 002033   002041 602000 1                  TNC     s:5839+631
         1 002034   000002 100003                    CMPX0   2,DU
         1 002035   002053 600000 1                  TZE     s:5841
         1 002036   000003 100003                    CMPX0   3,DU
         1 002037   004247 601000 1                  TNZ     s:6006
         1 002040   002062 710000 1                  TRA     s:5842
         1 002041   000001 100003                    CMPX0   1,DU
         1 002042   004247 601000 1                  TNZ     s:6006
         1 002043   002044 710000 1                  TRA     s:5840

      240     5840    2          SELECT('000001'O); CALL MOVE('M$EXIT',SIZEC('M$EXIT'));

   5840  1 002044   000024 236000 2                  LDQ     20
         1 002045   200054 756100                    STQ     @STRING+1,,AUTO
         1 002046   000025 236000 2                  LDQ     21
         1 002047   200053 756100                    STQ     YY+2,,AUTO
PL6.E3A0      #001=DDR$INSTR File=DDR$INSTR.:E05TSI                              TUE 07/29/97 14:07 Page:68
         1 002050   005350 701000 1                  TSX1    MOVE
         1 002051   000000 011000                    NOP     0
         1 002052   004275 710000 1                  TRA     s:6010

      241     5841    2          SELECT('000002'O); CALL MOVE('M$ERR',SIZEC('M$ERR'));

   5841  1 002053   000026 236000 2                  LDQ     22
         1 002054   200054 756100                    STQ     @STRING+1,,AUTO
         1 002055   000027 236000 2                  LDQ     23
         1 002056   200053 756100                    STQ     YY+2,,AUTO
         1 002057   005350 701000 1                  TSX1    MOVE
         1 002060   000000 011000                    NOP     0
         1 002061   004275 710000 1                  TRA     s:6010

      242     5842    2          SELECT('000003'O); CALL MOVE('M$XXX',SIZEC('M$XXX'));

   5842  1 002062   000026 236000 2                  LDQ     22
         1 002063   200054 756100                    STQ     @STRING+1,,AUTO
         1 002064   000030 236000 2                  LDQ     24
         1 002065   200053 756100                    STQ     YY+2,,AUTO
         1 002066   005350 701000 1                  TSX1    MOVE
         1 002067   000000 011000                    NOP     0
         1 002070   004275 710000 1                  TRA     s:6010

      243     5843    2          SELECT('000004'O); CALL MOVE('M$OLAY',SIZEC('M$OLAY'));

   5843  1 002071   000024 236000 2                  LDQ     20
         1 002072   200054 756100                    STQ     @STRING+1,,AUTO
         1 002073   000031 236000 2                  LDQ     25
         1 002074   200053 756100                    STQ     YY+2,,AUTO
         1 002075   005350 701000 1                  TSX1    MOVE
         1 002076   000000 011000                    NOP     0
         1 002077   004275 710000 1                  TRA     s:6010

      244     5844    2          SELECT('000005'O); CALL MOVE('M$LINK',SIZEC('M$LINK'));

   5844  1 002100   000024 236000 2                  LDQ     20
PL6.E3A0      #001=DDR$INSTR File=DDR$INSTR.:E05TSI                              TUE 07/29/97 14:07 Page:69
         1 002101   200054 756100                    STQ     @STRING+1,,AUTO
         1 002102   000032 236000 2                  LDQ     26
         1 002103   200053 756100                    STQ     YY+2,,AUTO
         1 002104   005350 701000 1                  TSX1    MOVE
         1 002105   000000 011000                    NOP     0
         1 002106   004275 710000 1                  TRA     s:6010

      245     5845    2          SELECT('000006'O); CALL MOVE('M$LDTRC',SIZEC('M$LDTRC'));

   5845  1 002107   000033 236000 2                  LDQ     27
         1 002110   200054 756100                    STQ     @STRING+1,,AUTO
         1 002111   000034 236000 2                  LDQ     28
         1 002112   200053 756100                    STQ     YY+2,,AUTO
         1 002113   005350 701000 1                  TSX1    MOVE
         1 002114   000000 011000                    NOP     0
         1 002115   004275 710000 1                  TRA     s:6010

      246     5846    2          SELECT('000007'O); CALL MOVE('M$ALIB',SIZEC('M$ALIB'));

   5846  1 002116   000024 236000 2                  LDQ     20
         1 002117   200054 756100                    STQ     @STRING+1,,AUTO
         1 002120   000035 236000 2                  LDQ     29
         1 002121   200053 756100                    STQ     YY+2,,AUTO
         1 002122   005350 701000 1                  TSX1    MOVE
         1 002123   000000 011000                    NOP     0
         1 002124   004275 710000 1                  TRA     s:6010

      247     5847    2          SELECT('000010'O); CALL MOVE('M$DLIB',SIZEC('M$DLIB'));

   5847  1 002125   000024 236000 2                  LDQ     20
         1 002126   200054 756100                    STQ     @STRING+1,,AUTO
         1 002127   000036 236000 2                  LDQ     30
         1 002130   200053 756100                    STQ     YY+2,,AUTO
         1 002131   005350 701000 1                  TSX1    MOVE
         1 002132   000000 011000                    NOP     0
         1 002133   004275 710000 1                  TRA     s:6010

PL6.E3A0      #001=DDR$INSTR File=DDR$INSTR.:E05TSI                              TUE 07/29/97 14:07 Page:70
      248     5848    2          SELECT('000011'O); CALL MOVE('M$YC',SIZEC('M$YC'));

   5848  1 002134   000011 236000 2                  LDQ     9
         1 002135   200054 756100                    STQ     @STRING+1,,AUTO
         1 002136   000037 236000 2                  LDQ     31
         1 002137   200053 756100                    STQ     YY+2,,AUTO
         1 002140   005350 701000 1                  TSX1    MOVE
         1 002141   000000 011000                    NOP     0
         1 002142   004275 710000 1                  TRA     s:6010

      249     5849    2          SELECT('000012'O); CALL MOVE('M$CPEXIT',SIZEC('M$CPEXIT'));

   5849  1 002143   000040 236000 2                  LDQ     32
         1 002144   200054 756100                    STQ     @STRING+1,,AUTO
         1 002145   000041 236000 2                  LDQ     33
         1 002146   200053 756100                    STQ     YY+2,,AUTO
         1 002147   005350 701000 1                  TSX1    MOVE
         1 002150   000000 011000                    NOP     0
         1 002151   004275 710000 1                  TRA     s:6010

      250     5850    2          SELECT('000013'O); CALL MOVE('M$SCREECH',SIZEC('M$SCREECH'));

   5850  1 002152   000042 236000 2                  LDQ     34
         1 002153   200054 756100                    STQ     @STRING+1,,AUTO
         1 002154   000043 236000 2                  LDQ     35
         1 002155   200053 756100                    STQ     YY+2,,AUTO
         1 002156   005350 701000 1                  TSX1    MOVE
         1 002157   000000 011000                    NOP     0
         1 002160   004275 710000 1                  TRA     s:6010

      251     5851    2          SELECT('000014'O); CALL MOVE('M$FSUSER',SIZEC('M$FSUSER'));

   5851  1 002161   000040 236000 2                  LDQ     32
         1 002162   200054 756100                    STQ     @STRING+1,,AUTO
         1 002163   000044 236000 2                  LDQ     36
         1 002164   200053 756100                    STQ     YY+2,,AUTO
         1 002165   005350 701000 1                  TSX1    MOVE
PL6.E3A0      #001=DDR$INSTR File=DDR$INSTR.:E05TSI                              TUE 07/29/97 14:07 Page:71
         1 002166   000000 011000                    NOP     0
         1 002167   004275 710000 1                  TRA     s:6010

      252     5852    2          SELECT('000015'O); CALL MOVE('M$ASUSER',SIZEC('M$ASUSER'));

   5852  1 002170   000040 236000 2                  LDQ     32
         1 002171   200054 756100                    STQ     @STRING+1,,AUTO
         1 002172   000045 236000 2                  LDQ     37
         1 002173   200053 756100                    STQ     YY+2,,AUTO
         1 002174   005350 701000 1                  TSX1    MOVE
         1 002175   000000 011000                    NOP     0
         1 002176   004275 710000 1                  TRA     s:6010

      253     5853    2          SELECT('000016'O); CALL MOVE('M$DSUSER',SIZEC('M$DSUSER'));

   5853  1 002177   000040 236000 2                  LDQ     32
         1 002200   200054 756100                    STQ     @STRING+1,,AUTO
         1 002201   000046 236000 2                  LDQ     38
         1 002202   200053 756100                    STQ     YY+2,,AUTO
         1 002203   005350 701000 1                  TSX1    MOVE
         1 002204   000000 011000                    NOP     0
         1 002205   004275 710000 1                  TRA     s:6010

      254     5854    2          SELECT('000017'O); CALL MOVE('M$SAVE',SIZEC('M$SAVE'));

   5854  1 002206   000024 236000 2                  LDQ     20
         1 002207   200054 756100                    STQ     @STRING+1,,AUTO
         1 002210   000047 236000 2                  LDQ     39
         1 002211   200053 756100                    STQ     YY+2,,AUTO
         1 002212   005350 701000 1                  TSX1    MOVE
         1 002213   000000 011000                    NOP     0
         1 002214   004275 710000 1                  TRA     s:6010

      255     5855    2          SELECT('000020'O); CALL MOVE('M$SCON',SIZEC('M$SCON'));

   5855  1 002215   000024 236000 2                  LDQ     20
         1 002216   200054 756100                    STQ     @STRING+1,,AUTO
PL6.E3A0      #001=DDR$INSTR File=DDR$INSTR.:E05TSI                              TUE 07/29/97 14:07 Page:72
         1 002217   000050 236000 2                  LDQ     40
         1 002220   200053 756100                    STQ     YY+2,,AUTO
         1 002221   005350 701000 1                  TSX1    MOVE
         1 002222   000000 011000                    NOP     0
         1 002223   004275 710000 1                  TRA     s:6010

      256     5856    2          SELECT('000021'O); CALL MOVE('M$INTRTN',SIZEC('M$INTRTN'));

   5856  1 002224   000040 236000 2                  LDQ     32
         1 002225   200054 756100                    STQ     @STRING+1,,AUTO
         1 002226   000051 236000 2                  LDQ     41
         1 002227   200053 756100                    STQ     YY+2,,AUTO
         1 002230   005350 701000 1                  TSX1    MOVE
         1 002231   000000 011000                    NOP     0
         1 002232   004275 710000 1                  TRA     s:6010

      257     5857    2          SELECT('000022'O); CALL MOVE('M$XCONRTN',SIZEC('M$XCONRTN'));

   5857  1 002233   000042 236000 2                  LDQ     34
         1 002234   200054 756100                    STQ     @STRING+1,,AUTO
         1 002235   000052 236000 2                  LDQ     42
         1 002236   200053 756100                    STQ     YY+2,,AUTO
         1 002237   005350 701000 1                  TSX1    MOVE
         1 002240   000000 011000                    NOP     0
         1 002241   004275 710000 1                  TRA     s:6010

      258     5858    2          SELECT('000023'O); CALL MOVE('M$PROCNAME',SIZEC('M$PROCNAME'));

   5858  1 002242   000053 236000 2                  LDQ     43
         1 002243   200054 756100                    STQ     @STRING+1,,AUTO
         1 002244   000054 236000 2                  LDQ     44
         1 002245   200053 756100                    STQ     YY+2,,AUTO
         1 002246   005350 701000 1                  TSX1    MOVE
         1 002247   000000 011000                    NOP     0
         1 002250   004275 710000 1                  TRA     s:6010

      259     5859    2          SELECT('000024'O); CALL MOVE('M$FINDPROC',SIZEC('M$FINDPROC'));
PL6.E3A0      #001=DDR$INSTR File=DDR$INSTR.:E05TSI                              TUE 07/29/97 14:07 Page:73

   5859  1 002251   000053 236000 2                  LDQ     43
         1 002252   200054 756100                    STQ     @STRING+1,,AUTO
         1 002253   000055 236000 2                  LDQ     45
         1 002254   200053 756100                    STQ     YY+2,,AUTO
         1 002255   005350 701000 1                  TSX1    MOVE
         1 002256   000000 011000                    NOP     0
         1 002257   004275 710000 1                  TRA     s:6010

      260     5860    2          SELECT('000025'O); CALL MOVE('M$UNSHARE',SIZEC('M$UNSHARE'));

   5860  1 002260   000042 236000 2                  LDQ     34
         1 002261   200054 756100                    STQ     @STRING+1,,AUTO
         1 002262   000056 236000 2                  LDQ     46
         1 002263   200053 756100                    STQ     YY+2,,AUTO
         1 002264   005350 701000 1                  TSX1    MOVE
         1 002265   000000 011000                    NOP     0
         1 002266   004275 710000 1                  TRA     s:6010

      261     5861    2          SELECT('000026'O); CALL MOVE('M$ACCT',SIZEC('M$ACCT'));

   5861  1 002267   000024 236000 2                  LDQ     20
         1 002270   200054 756100                    STQ     @STRING+1,,AUTO
         1 002271   000057 236000 2                  LDQ     47
         1 002272   200053 756100                    STQ     YY+2,,AUTO
         1 002273   005350 701000 1                  TSX1    MOVE
         1 002274   000000 011000                    NOP     0
         1 002275   004275 710000 1                  TRA     s:6010

      262     5862    2          SELECT('010000'O); CALL MOVE('M$STIMER',SIZEC('M$STIMER'));

   5862  1 002276   000040 236000 2                  LDQ     32
         1 002277   200054 756100                    STQ     @STRING+1,,AUTO
         1 002300   000060 236000 2                  LDQ     48
         1 002301   200053 756100                    STQ     YY+2,,AUTO
         1 002302   005350 701000 1                  TSX1    MOVE
         1 002303   000000 011000                    NOP     0
PL6.E3A0      #001=DDR$INSTR File=DDR$INSTR.:E05TSI                              TUE 07/29/97 14:07 Page:74
         1 002304   004275 710000 1                  TRA     s:6010

      263     5863    2          SELECT('010001'O); CALL MOVE('M$EVENT',SIZEC('M$EVENT'));

   5863  1 002305   000033 236000 2                  LDQ     27
         1 002306   200054 756100                    STQ     @STRING+1,,AUTO
         1 002307   000061 236000 2                  LDQ     49
         1 002310   200053 756100                    STQ     YY+2,,AUTO
         1 002311   005350 701000 1                  TSX1    MOVE
         1 002312   000000 011000                    NOP     0
         1 002313   004275 710000 1                  TRA     s:6010

      264     5864    2          SELECT('010002'O); CALL MOVE('M$INT',SIZEC('M$INT'));

   5864  1 002314   000026 236000 2                  LDQ     22
         1 002315   200054 756100                    STQ     @STRING+1,,AUTO
         1 002316   000051 236000 2                  LDQ     41
         1 002317   200053 756100                    STQ     YY+2,,AUTO
         1 002320   005350 701000 1                  TSX1    MOVE
         1 002321   000000 011000                    NOP     0
         1 002322   004275 710000 1                  TRA     s:6010

      265     5865    2          SELECT('010003'O); CALL MOVE('M$XCON',SIZEC('M$XCON'));

   5865  1 002323   000024 236000 2                  LDQ     20
         1 002324   200054 756100                    STQ     @STRING+1,,AUTO
         1 002325   000052 236000 2                  LDQ     42
         1 002326   200053 756100                    STQ     YY+2,,AUTO
         1 002327   005350 701000 1                  TSX1    MOVE
         1 002330   000000 011000                    NOP     0
         1 002331   004275 710000 1                  TRA     s:6010

      266     5866    2          SELECT('010004'O); CALL MOVE('M$TRAP',SIZEC('M$TRAP'));

   5866  1 002332   000024 236000 2                  LDQ     20
         1 002333   200054 756100                    STQ     @STRING+1,,AUTO
         1 002334   000062 236000 2                  LDQ     50
PL6.E3A0      #001=DDR$INSTR File=DDR$INSTR.:E05TSI                              TUE 07/29/97 14:07 Page:75
         1 002335   200053 756100                    STQ     YY+2,,AUTO
         1 002336   005350 701000 1                  TSX1    MOVE
         1 002337   000000 011000                    NOP     0
         1 002340   004275 710000 1                  TRA     s:6010

      267     5867    2          SELECT('010005'O); CALL MOVE('M$STRAP',SIZEC('M$STRAP'));

   5867  1 002341   000033 236000 2                  LDQ     27
         1 002342   200054 756100                    STQ     @STRING+1,,AUTO
         1 002343   000063 236000 2                  LDQ     51
         1 002344   200053 756100                    STQ     YY+2,,AUTO
         1 002345   005350 701000 1                  TSX1    MOVE
         1 002346   000000 011000                    NOP     0
         1 002347   004275 710000 1                  TRA     s:6010

      268     5868    2          SELECT('010006'O); CALL MOVE('M$TTIMER',SIZEC('M$TTIMER'));

   5868  1 002350   000040 236000 2                  LDQ     32
         1 002351   200054 756100                    STQ     @STRING+1,,AUTO
         1 002352   000064 236000 2                  LDQ     52
         1 002353   200053 756100                    STQ     YY+2,,AUTO
         1 002354   005350 701000 1                  TSX1    MOVE
         1 002355   000000 011000                    NOP     0
         1 002356   004275 710000 1                  TRA     s:6010

      269     5869    2          SELECT('010007'O); CALL MOVE('M$MERC',SIZEC('M$MERC'));

   5869  1 002357   000024 236000 2                  LDQ     20
         1 002360   200054 756100                    STQ     @STRING+1,,AUTO
         1 002361   000065 236000 2                  LDQ     53
         1 002362   200053 756100                    STQ     YY+2,,AUTO
         1 002363   005350 701000 1                  TSX1    MOVE
         1 002364   000000 011000                    NOP     0
         1 002365   004275 710000 1                  TRA     s:6010

      270     5870    2          SELECT('010010'O); CALL MOVE('M$RETRY',SIZEC('M$RETRY'));

PL6.E3A0      #001=DDR$INSTR File=DDR$INSTR.:E05TSI                              TUE 07/29/97 14:07 Page:76
   5870  1 002366   000033 236000 2                  LDQ     27
         1 002367   200054 756100                    STQ     @STRING+1,,AUTO
         1 002370   000066 236000 2                  LDQ     54
         1 002371   200053 756100                    STQ     YY+2,,AUTO
         1 002372   005350 701000 1                  TSX1    MOVE
         1 002373   000000 011000                    NOP     0
         1 002374   004275 710000 1                  TRA     s:6010

      271     5871    2          SELECT('010011'O); CALL MOVE('M$SENV',SIZEC('M$SENV'));

   5871  1 002375   000024 236000 2                  LDQ     20
         1 002376   200054 756100                    STQ     @STRING+1,,AUTO
         1 002377   000067 236000 2                  LDQ     55
         1 002400   200053 756100                    STQ     YY+2,,AUTO
         1 002401   005350 701000 1                  TSX1    MOVE
         1 002402   000000 011000                    NOP     0
         1 002403   004275 710000 1                  TRA     s:6010

      272     5872    2          SELECT('010012'O); CALL MOVE('M$TRTN',SIZEC('M$TRTN'));

   5872  1 002404   000024 236000 2                  LDQ     20
         1 002405   200054 756100                    STQ     @STRING+1,,AUTO
         1 002406   000070 236000 2                  LDQ     56
         1 002407   200053 756100                    STQ     YY+2,,AUTO
         1 002410   005350 701000 1                  TSX1    MOVE
         1 002411   000000 011000                    NOP     0
         1 002412   004275 710000 1                  TRA     s:6010

      273     5873    2          SELECT('010013'O); CALL MOVE('M$CLRSTK',SIZEC('M$CLRSTK'));

   5873  1 002413   000040 236000 2                  LDQ     32
         1 002414   200054 756100                    STQ     @STRING+1,,AUTO
         1 002415   000071 236000 2                  LDQ     57
         1 002416   200053 756100                    STQ     YY+2,,AUTO
         1 002417   005350 701000 1                  TSX1    MOVE
         1 002420   000000 011000                    NOP     0
         1 002421   004275 710000 1                  TRA     s:6010
PL6.E3A0      #001=DDR$INSTR File=DDR$INSTR.:E05TSI                              TUE 07/29/97 14:07 Page:77

      274     5874    2          SELECT('010014'O); CALL MOVE('M$MERCS',SIZEC('M$MERCS'));

   5874  1 002422   000033 236000 2                  LDQ     27
         1 002423   200054 756100                    STQ     @STRING+1,,AUTO
         1 002424   000072 236000 2                  LDQ     58
         1 002425   200053 756100                    STQ     YY+2,,AUTO
         1 002426   005350 701000 1                  TSX1    MOVE
         1 002427   000000 011000                    NOP     0
         1 002430   004275 710000 1                  TRA     s:6010

      275     5875    2          SELECT('010015'O); CALL MOVE('M$RETRYS',SIZEC('M$RETRYS'));

   5875  1 002431   000040 236000 2                  LDQ     32
         1 002432   200054 756100                    STQ     @STRING+1,,AUTO
         1 002433   000073 236000 2                  LDQ     59
         1 002434   200053 756100                    STQ     YY+2,,AUTO
         1 002435   005350 701000 1                  TSX1    MOVE
         1 002436   000000 011000                    NOP     0
         1 002437   004275 710000 1                  TRA     s:6010

      276     5876    2          SELECT('010016'O); CALL MOVE('M$RENV',SIZEC('M$RENV'));

   5876  1 002440   000024 236000 2                  LDQ     20
         1 002441   200054 756100                    STQ     @STRING+1,,AUTO
         1 002442   000074 236000 2                  LDQ     60
         1 002443   200053 756100                    STQ     YY+2,,AUTO
         1 002444   005350 701000 1                  TSX1    MOVE
         1 002445   000000 011000                    NOP     0
         1 002446   004275 710000 1                  TRA     s:6010

      277     5877    2          SELECT('010017'O); CALL MOVE('M$DRTN',SIZEC('M$DRTN'));

   5877  1 002447   000024 236000 2                  LDQ     20
         1 002450   200054 756100                    STQ     @STRING+1,,AUTO
         1 002451   000075 236000 2                  LDQ     61
         1 002452   200053 756100                    STQ     YY+2,,AUTO
PL6.E3A0      #001=DDR$INSTR File=DDR$INSTR.:E05TSI                              TUE 07/29/97 14:07 Page:78
         1 002453   005350 701000 1                  TSX1    MOVE
         1 002454   000000 011000                    NOP     0
         1 002455   004275 710000 1                  TRA     s:6010

      278     5878    2          SELECT('020000'O); CALL MOVE('M$ERRMSG',SIZEC('M$ERRMSG'));

   5878  1 002456   000040 236000 2                  LDQ     32
         1 002457   200054 756100                    STQ     @STRING+1,,AUTO
         1 002460   000076 236000 2                  LDQ     62
         1 002461   200053 756100                    STQ     YY+2,,AUTO
         1 002462   005350 701000 1                  TSX1    MOVE
         1 002463   000000 011000                    NOP     0
         1 002464   004275 710000 1                  TRA     s:6010

      279     5879    2          SELECT('020001'O); CALL MOVE('M$FID',SIZEC('M$FID'));

   5879  1 002465   000026 236000 2                  LDQ     22
         1 002466   200054 756100                    STQ     @STRING+1,,AUTO
         1 002467   000077 236000 2                  LDQ     63
         1 002470   200053 756100                    STQ     YY+2,,AUTO
         1 002471   005350 701000 1                  TSX1    MOVE
         1 002472   000000 011000                    NOP     0
         1 002473   004275 710000 1                  TRA     s:6010

      280     5880    2          SELECT('020002'O); CALL MOVE('M$ENQ',SIZEC('M$ENQ'));

   5880  1 002474   000026 236000 2                  LDQ     22
         1 002475   200054 756100                    STQ     @STRING+1,,AUTO
         1 002476   000100 236000 2                  LDQ     64
         1 002477   200053 756100                    STQ     YY+2,,AUTO
         1 002500   005350 701000 1                  TSX1    MOVE
         1 002501   000000 011000                    NOP     0
         1 002502   004275 710000 1                  TRA     s:6010

      281     5881    2          SELECT('020003'O); CALL MOVE('M$DEQ',SIZEC('M$DEQ'));

   5881  1 002503   000026 236000 2                  LDQ     22
PL6.E3A0      #001=DDR$INSTR File=DDR$INSTR.:E05TSI                              TUE 07/29/97 14:07 Page:79
         1 002504   200054 756100                    STQ     @STRING+1,,AUTO
         1 002505   000101 236000 2                  LDQ     65
         1 002506   200053 756100                    STQ     YY+2,,AUTO
         1 002507   005350 701000 1                  TSX1    MOVE
         1 002510   000000 011000                    NOP     0
         1 002511   004275 710000 1                  TRA     s:6010

      282     5882    2          SELECT('020004'O); CALL MOVE('M$TIME',SIZEC('M$TIME'));

   5882  1 002512   000024 236000 2                  LDQ     20
         1 002513   200054 756100                    STQ     @STRING+1,,AUTO
         1 002514   000102 236000 2                  LDQ     66
         1 002515   200053 756100                    STQ     YY+2,,AUTO
         1 002516   005350 701000 1                  TSX1    MOVE
         1 002517   000000 011000                    NOP     0
         1 002520   004275 710000 1                  TRA     s:6010

      283     5883    2          SELECT('020005'O); CALL MOVE('M$NXTUSR',SIZEC('M$NXTUSR'));

   5883  1 002521   000040 236000 2                  LDQ     32
         1 002522   200054 756100                    STQ     @STRING+1,,AUTO
         1 002523   000103 236000 2                  LDQ     67
         1 002524   200053 756100                    STQ     YY+2,,AUTO
         1 002525   005350 701000 1                  TSX1    MOVE
         1 002526   000000 011000                    NOP     0
         1 002527   004275 710000 1                  TRA     s:6010

      284     5884    2          SELECT('020006'O); CALL MOVE('M$WAIT',SIZEC('M$WAIT'));

   5884  1 002530   000024 236000 2                  LDQ     20
         1 002531   200054 756100                    STQ     @STRING+1,,AUTO
         1 002532   000104 236000 2                  LDQ     68
         1 002533   200053 756100                    STQ     YY+2,,AUTO
         1 002534   005350 701000 1                  TSX1    MOVE
         1 002535   000000 011000                    NOP     0
         1 002536   004275 710000 1                  TRA     s:6010

PL6.E3A0      #001=DDR$INSTR File=DDR$INSTR.:E05TSI                              TUE 07/29/97 14:07 Page:80
      285     5885    2          SELECT('020007'O); CALL MOVE('M$DISPLAY',SIZEC('M$DISPLAY'));

   5885  1 002537   000042 236000 2                  LDQ     34
         1 002540   200054 756100                    STQ     @STRING+1,,AUTO
         1 002541   000105 236000 2                  LDQ     69
         1 002542   200053 756100                    STQ     YY+2,,AUTO
         1 002543   005350 701000 1                  TSX1    MOVE
         1 002544   000000 011000                    NOP     0
         1 002545   004275 710000 1                  TRA     s:6010

      286     5886    2          SELECT('020010'O); CALL MOVE('M$STATE',SIZEC('M$STATE'));

   5886  1 002546   000033 236000 2                  LDQ     27
         1 002547   200054 756100                    STQ     @STRING+1,,AUTO
         1 002550   000106 236000 2                  LDQ     70
         1 002551   200053 756100                    STQ     YY+2,,AUTO
         1 002552   005350 701000 1                  TSX1    MOVE
         1 002553   000000 011000                    NOP     0
         1 002554   004275 710000 1                  TRA     s:6010

      287     5887    2          SELECT('020011'O); CALL MOVE('M$XEQTIME',SIZEC('M$XEQTIME'));

   5887  1 002555   000042 236000 2                  LDQ     34
         1 002556   200054 756100                    STQ     @STRING+1,,AUTO
         1 002557   000107 236000 2                  LDQ     71
         1 002560   200053 756100                    STQ     YY+2,,AUTO
         1 002561   005350 701000 1                  TSX1    MOVE
         1 002562   000000 011000                    NOP     0
         1 002563   004275 710000 1                  TRA     s:6010

      288     5888    2          SELECT('020012'O); CALL MOVE('M$SPRIV',SIZEC('M$SPRIV'));

   5888  1 002564   000033 236000 2                  LDQ     27
         1 002565   200054 756100                    STQ     @STRING+1,,AUTO
         1 002566   000110 236000 2                  LDQ     72
         1 002567   200053 756100                    STQ     YY+2,,AUTO
         1 002570   005350 701000 1                  TSX1    MOVE
PL6.E3A0      #001=DDR$INSTR File=DDR$INSTR.:E05TSI                              TUE 07/29/97 14:07 Page:81
         1 002571   000000 011000                    NOP     0
         1 002572   004275 710000 1                  TRA     s:6010

      289     5889    2          SELECT('020013'O); CALL MOVE('M$RPRIV',SIZEC('M$RPRIV'));

   5889  1 002573   000033 236000 2                  LDQ     27
         1 002574   200054 756100                    STQ     @STRING+1,,AUTO
         1 002575   000111 236000 2                  LDQ     73
         1 002576   200053 756100                    STQ     YY+2,,AUTO
         1 002577   005350 701000 1                  TSX1    MOVE
         1 002600   000000 011000                    NOP     0
         1 002601   004275 710000 1                  TRA     s:6010

      290     5890    2          SELECT('020014'O); CALL MOVE('M$SSWITCH',SIZEC('M$SSWITCH'));

   5890  1 002602   000042 236000 2                  LDQ     34
         1 002603   200054 756100                    STQ     @STRING+1,,AUTO
         1 002604   000112 236000 2                  LDQ     74
         1 002605   200053 756100                    STQ     YY+2,,AUTO
         1 002606   005350 701000 1                  TSX1    MOVE
         1 002607   000000 011000                    NOP     0
         1 002610   004275 710000 1                  TRA     s:6010

      291     5891    2          SELECT('020015'O); CALL MOVE('M$RSWITCH',SIZEC('M$RSWITCH'));

   5891  1 002611   000042 236000 2                  LDQ     34
         1 002612   200054 756100                    STQ     @STRING+1,,AUTO
         1 002613   000113 236000 2                  LDQ     75
         1 002614   200053 756100                    STQ     YY+2,,AUTO
         1 002615   005350 701000 1                  TSX1    MOVE
         1 002616   000000 011000                    NOP     0
         1 002617   004275 710000 1                  TRA     s:6010

      292     5892    2          SELECT('020016'O); CALL MOVE('M$CHGUNIT',SIZEC('M$CHGUNIT'));

   5892  1 002620   000042 236000 2                  LDQ     34
         1 002621   200054 756100                    STQ     @STRING+1,,AUTO
PL6.E3A0      #001=DDR$INSTR File=DDR$INSTR.:E05TSI                              TUE 07/29/97 14:07 Page:82
         1 002622   000114 236000 2                  LDQ     76
         1 002623   200053 756100                    STQ     YY+2,,AUTO
         1 002624   005350 701000 1                  TSX1    MOVE
         1 002625   000000 011000                    NOP     0
         1 002626   004275 710000 1                  TRA     s:6010

      293     5893    2          SELECT('020017'O); CALL MOVE('M$USRFIELD',SIZEC('M$USRFIELD'));

   5893  1 002627   000053 236000 2                  LDQ     43
         1 002630   200054 756100                    STQ     @STRING+1,,AUTO
         1 002631   000115 236000 2                  LDQ     77
         1 002632   200053 756100                    STQ     YY+2,,AUTO
         1 002633   005350 701000 1                  TSX1    MOVE
         1 002634   000000 011000                    NOP     0
         1 002635   004275 710000 1                  TRA     s:6010

      294     5894    2          SELECT('020020'O); CALL MOVE('M$RUE',SIZEC('M$RUE'));

   5894  1 002636   000026 236000 2                  LDQ     22
         1 002637   200054 756100                    STQ     @STRING+1,,AUTO
         1 002640   000116 236000 2                  LDQ     78
         1 002641   200053 756100                    STQ     YY+2,,AUTO
         1 002642   005350 701000 1                  TSX1    MOVE
         1 002643   000000 011000                    NOP     0
         1 002644   004275 710000 1                  TRA     s:6010

      295     5895    2          SELECT('020021'O); CALL MOVE('M$UNFID',SIZEC('M$UNFID'));

   5895  1 002645   000033 236000 2                  LDQ     27
         1 002646   200054 756100                    STQ     @STRING+1,,AUTO
         1 002647   000117 236000 2                  LDQ     79
         1 002650   200053 756100                    STQ     YY+2,,AUTO
         1 002651   005350 701000 1                  TSX1    MOVE
         1 002652   000000 011000                    NOP     0
         1 002653   004275 710000 1                  TRA     s:6010

      296     5896    2          SELECT('020022'O); CALL MOVE('M$GJOB',SIZEC('M$GJOB'));
PL6.E3A0      #001=DDR$INSTR File=DDR$INSTR.:E05TSI                              TUE 07/29/97 14:07 Page:83

   5896  1 002654   000024 236000 2                  LDQ     20
         1 002655   200054 756100                    STQ     @STRING+1,,AUTO
         1 002656   000120 236000 2                  LDQ     80
         1 002657   200053 756100                    STQ     YY+2,,AUTO
         1 002660   005350 701000 1                  TSX1    MOVE
         1 002661   000000 011000                    NOP     0
         1 002662   004275 710000 1                  TRA     s:6010

      297     5897    2          SELECT('020023'O); CALL MOVE('M$MONINFO',SIZEC('M$MONINFO'));

   5897  1 002663   000042 236000 2                  LDQ     34
         1 002664   200054 756100                    STQ     @STRING+1,,AUTO
         1 002665   000121 236000 2                  LDQ     81
         1 002666   200053 756100                    STQ     YY+2,,AUTO
         1 002667   005350 701000 1                  TSX1    MOVE
         1 002670   000000 011000                    NOP     0
         1 002671   004275 710000 1                  TRA     s:6010

      298     5898    2          SELECT('020024'O); CALL MOVE('M$HELP',SIZEC('M$HELP'));

   5898  1 002672   000024 236000 2                  LDQ     20
         1 002673   200054 756100                    STQ     @STRING+1,,AUTO
         1 002674   000122 236000 2                  LDQ     82
         1 002675   200053 756100                    STQ     YY+2,,AUTO
         1 002676   005350 701000 1                  TSX1    MOVE
         1 002677   000000 011000                    NOP     0
         1 002700   004275 710000 1                  TRA     s:6010

      299     5899    2          SELECT('020025'O); CALL MOVE('M$CMDVAR',SIZEC('M$CMDVAR'));

   5899  1 002701   000040 236000 2                  LDQ     32
         1 002702   200054 756100                    STQ     @STRING+1,,AUTO
         1 002703   000123 236000 2                  LDQ     83
         1 002704   200053 756100                    STQ     YY+2,,AUTO
         1 002705   005350 701000 1                  TSX1    MOVE
         1 002706   000000 011000                    NOP     0
PL6.E3A0      #001=DDR$INSTR File=DDR$INSTR.:E05TSI                              TUE 07/29/97 14:07 Page:84
         1 002707   004275 710000 1                  TRA     s:6010

      300     5900    2          SELECT('020026'O); CALL MOVE('M$SYSID',SIZEC('M$SYSID'));

   5900  1 002710   000033 236000 2                  LDQ     27
         1 002711   200054 756100                    STQ     @STRING+1,,AUTO
         1 002712   000124 236000 2                  LDQ     84
         1 002713   200053 756100                    STQ     YY+2,,AUTO
         1 002714   005350 701000 1                  TSX1    MOVE
         1 002715   000000 011000                    NOP     0
         1 002716   004275 710000 1                  TRA     s:6010

      301     5901    2          SELECT('030000'O); CALL MOVE('M$MAKUSER',SIZEC('M$MAKUSER'));

   5901  1 002717   000042 236000 2                  LDQ     34
         1 002720   200054 756100                    STQ     @STRING+1,,AUTO
         1 002721   000125 236000 2                  LDQ     85
         1 002722   200053 756100                    STQ     YY+2,,AUTO
         1 002723   005350 701000 1                  TSX1    MOVE
         1 002724   000000 011000                    NOP     0
         1 002725   004275 710000 1                  TRA     s:6010

      302     5902    2          SELECT('030001'O); CALL MOVE('M$GDS',SIZEC('M$GDS'));

   5902  1 002726   000026 236000 2                  LDQ     22
         1 002727   200054 756100                    STQ     @STRING+1,,AUTO
         1 002730   000126 236000 2                  LDQ     86
         1 002731   200053 756100                    STQ     YY+2,,AUTO
         1 002732   005350 701000 1                  TSX1    MOVE
         1 002733   000000 011000                    NOP     0
         1 002734   004275 710000 1                  TRA     s:6010

      303     5903    2          SELECT('030002'O); CALL MOVE('M$FDS',SIZEC('M$FDS'));

   5903  1 002735   000026 236000 2                  LDQ     22
         1 002736   200054 756100                    STQ     @STRING+1,,AUTO
         1 002737   000127 236000 2                  LDQ     87
PL6.E3A0      #001=DDR$INSTR File=DDR$INSTR.:E05TSI                              TUE 07/29/97 14:07 Page:85
         1 002740   200053 756100                    STQ     YY+2,,AUTO
         1 002741   005350 701000 1                  TSX1    MOVE
         1 002742   000000 011000                    NOP     0
         1 002743   004275 710000 1                  TRA     s:6010

      304     5904    2          SELECT('030003'O); CALL MOVE('M$GDP',SIZEC('M$GDP'));

   5904  1 002744   000026 236000 2                  LDQ     22
         1 002745   200054 756100                    STQ     @STRING+1,,AUTO
         1 002746   000130 236000 2                  LDQ     88
         1 002747   200053 756100                    STQ     YY+2,,AUTO
         1 002750   005350 701000 1                  TSX1    MOVE
         1 002751   000000 011000                    NOP     0
         1 002752   004275 710000 1                  TRA     s:6010

      305     5905    2          SELECT('030004'O); CALL MOVE('M$FDP',SIZEC('M$FDP'));

   5905  1 002753   000026 236000 2                  LDQ     22
         1 002754   200054 756100                    STQ     @STRING+1,,AUTO
         1 002755   000131 236000 2                  LDQ     89
         1 002756   200053 756100                    STQ     YY+2,,AUTO
         1 002757   005350 701000 1                  TSX1    MOVE
         1 002760   000000 011000                    NOP     0
         1 002761   004275 710000 1                  TRA     s:6010

      306     5906    2          SELECT('030005'O); CALL MOVE('M$GVP',SIZEC('M$GVP'));

   5906  1 002762   000026 236000 2                  LDQ     22
         1 002763   200054 756100                    STQ     @STRING+1,,AUTO
         1 002764   000132 236000 2                  LDQ     90
         1 002765   200053 756100                    STQ     YY+2,,AUTO
         1 002766   005350 701000 1                  TSX1    MOVE
         1 002767   000000 011000                    NOP     0
         1 002770   004275 710000 1                  TRA     s:6010

      307     5907    2          SELECT('030006'O); CALL MOVE('M$FVP',SIZEC('M$FVP'));

PL6.E3A0      #001=DDR$INSTR File=DDR$INSTR.:E05TSI                              TUE 07/29/97 14:07 Page:86
   5907  1 002771   000026 236000 2                  LDQ     22
         1 002772   200054 756100                    STQ     @STRING+1,,AUTO
         1 002773   000133 236000 2                  LDQ     91
         1 002774   200053 756100                    STQ     YY+2,,AUTO
         1 002775   005350 701000 1                  TSX1    MOVE
         1 002776   000000 011000                    NOP     0
         1 002777   004275 710000 1                  TRA     s:6010

      308     5908    2          SELECT('030007'O); CALL MOVE('M$STLPP',SIZEC('M$STLPP'));

   5908  1 003000   000033 236000 2                  LDQ     27
         1 003001   200054 756100                    STQ     @STRING+1,,AUTO
         1 003002   000134 236000 2                  LDQ     92
         1 003003   200053 756100                    STQ     YY+2,,AUTO
         1 003004   005350 701000 1                  TSX1    MOVE
         1 003005   000000 011000                    NOP     0
         1 003006   004275 710000 1                  TRA     s:6010

      309     5909    2          SELECT('030010'O); CALL MOVE('M$RSPP',SIZEC('M$RSPP'));

   5909  1 003007   000024 236000 2                  LDQ     20
         1 003010   200054 756100                    STQ     @STRING+1,,AUTO
         1 003011   000135 236000 2                  LDQ     93
         1 003012   200053 756100                    STQ     YY+2,,AUTO
         1 003013   005350 701000 1                  TSX1    MOVE
         1 003014   000000 011000                    NOP     0
         1 003015   004275 710000 1                  TRA     s:6010

      310     5910    2          SELECT('030011'O); CALL MOVE('M$CVM',SIZEC('M$CVM'));

   5910  1 003016   000026 236000 2                  LDQ     22
         1 003017   200054 756100                    STQ     @STRING+1,,AUTO
         1 003020   000136 236000 2                  LDQ     94
         1 003021   200053 756100                    STQ     YY+2,,AUTO
         1 003022   005350 701000 1                  TSX1    MOVE
         1 003023   000000 011000                    NOP     0
         1 003024   004275 710000 1                  TRA     s:6010
PL6.E3A0      #001=DDR$INSTR File=DDR$INSTR.:E05TSI                              TUE 07/29/97 14:07 Page:87

      311     5911    2          SELECT('030012'O); CALL MOVE('M$SMPRT',SIZEC('M$SMPRT'));

   5911  1 003025   000033 236000 2                  LDQ     27
         1 003026   200054 756100                    STQ     @STRING+1,,AUTO
         1 003027   000137 236000 2                  LDQ     95
         1 003030   200053 756100                    STQ     YY+2,,AUTO
         1 003031   005350 701000 1                  TSX1    MOVE
         1 003032   000000 011000                    NOP     0
         1 003033   004275 710000 1                  TRA     s:6010

      312     5912    2          SELECT('030013'O); CALL MOVE('M$SSC',SIZEC('M$SSC'));

   5912  1 003034   000026 236000 2                  LDQ     22
         1 003035   200054 756100                    STQ     @STRING+1,,AUTO
         1 003036   000140 236000 2                  LDQ     96
         1 003037   200053 756100                    STQ     YY+2,,AUTO
         1 003040   005350 701000 1                  TSX1    MOVE
         1 003041   000000 011000                    NOP     0
         1 003042   004275 710000 1                  TRA     s:6010

      313     5913    2          SELECT('030014'O); CALL MOVE('M$GDDL',SIZEC('M$GDDL'));

   5913  1 003043   000024 236000 2                  LDQ     20
         1 003044   200054 756100                    STQ     @STRING+1,,AUTO
         1 003045   000141 236000 2                  LDQ     97
         1 003046   200053 756100                    STQ     YY+2,,AUTO
         1 003047   005350 701000 1                  TSX1    MOVE
         1 003050   000000 011000                    NOP     0
         1 003051   004275 710000 1                  TRA     s:6010

      314     5914    2          SELECT('030015'O); CALL MOVE('M$SAD',SIZEC('M$SAD'));

   5914  1 003052   000026 236000 2                  LDQ     22
         1 003053   200054 756100                    STQ     @STRING+1,,AUTO
         1 003054   000142 236000 2                  LDQ     98
         1 003055   200053 756100                    STQ     YY+2,,AUTO
PL6.E3A0      #001=DDR$INSTR File=DDR$INSTR.:E05TSI                              TUE 07/29/97 14:07 Page:88
         1 003056   005350 701000 1                  TSX1    MOVE
         1 003057   000000 011000                    NOP     0
         1 003060   004275 710000 1                  TRA     s:6010

      315     5915    2          SELECT('030016'O); CALL MOVE('M$STD',SIZEC('M$STD'));

   5915  1 003061   000026 236000 2                  LDQ     22
         1 003062   200054 756100                    STQ     @STRING+1,,AUTO
         1 003063   000143 236000 2                  LDQ     99
         1 003064   200053 756100                    STQ     YY+2,,AUTO
         1 003065   005350 701000 1                  TSX1    MOVE
         1 003066   000000 011000                    NOP     0
         1 003067   004275 710000 1                  TRA     s:6010

      316     5916    2          SELECT('030017'O); CALL MOVE('M$BADPP',SIZEC('M$BADPP'));

   5916  1 003070   000033 236000 2                  LDQ     27
         1 003071   200054 756100                    STQ     @STRING+1,,AUTO
         1 003072   000144 236000 2                  LDQ     100
         1 003073   200053 756100                    STQ     YY+2,,AUTO
         1 003074   005350 701000 1                  TSX1    MOVE
         1 003075   000000 011000                    NOP     0
         1 003076   004275 710000 1                  TRA     s:6010

      317     5917    2          SELECT('030020'O); CALL MOVE('M$GOODPP',SIZEC('M$GOODPP'));

   5917  1 003077   000040 236000 2                  LDQ     32
         1 003100   200054 756100                    STQ     @STRING+1,,AUTO
         1 003101   000145 236000 2                  LDQ     101
         1 003102   200053 756100                    STQ     YY+2,,AUTO
         1 003103   005350 701000 1                  TSX1    MOVE
         1 003104   000000 011000                    NOP     0
         1 003105   004275 710000 1                  TRA     s:6010

      318     5918    2          SELECT('030021'O); CALL MOVE('M$GBPL',SIZEC('M$GBPL'));

   5918  1 003106   000024 236000 2                  LDQ     20
PL6.E3A0      #001=DDR$INSTR File=DDR$INSTR.:E05TSI                              TUE 07/29/97 14:07 Page:89
         1 003107   200054 756100                    STQ     @STRING+1,,AUTO
         1 003110   000146 236000 2                  LDQ     102
         1 003111   200053 756100                    STQ     YY+2,,AUTO
         1 003112   005350 701000 1                  TSX1    MOVE
         1 003113   000000 011000                    NOP     0
         1 003114   004275 710000 1                  TRA     s:6010

      319     5919    2          SELECT('030022'O); CALL MOVE('M$MPL',SIZEC('M$MPL'));

   5919  1 003115   000026 236000 2                  LDQ     22
         1 003116   200054 756100                    STQ     @STRING+1,,AUTO
         1 003117   000147 236000 2                  LDQ     103
         1 003120   200053 756100                    STQ     YY+2,,AUTO
         1 003121   005350 701000 1                  TSX1    MOVE
         1 003122   000000 011000                    NOP     0
         1 003123   004275 710000 1                  TRA     s:6010

      320     5920    2          SELECT('030023'O); CALL MOVE('M$UMPL',SIZEC('M$UMPL'));

   5920  1 003124   000024 236000 2                  LDQ     20
         1 003125   200054 756100                    STQ     @STRING+1,,AUTO
         1 003126   000150 236000 2                  LDQ     104
         1 003127   200053 756100                    STQ     YY+2,,AUTO
         1 003130   005350 701000 1                  TSX1    MOVE
         1 003131   000000 011000                    NOP     0
         1 003132   004275 710000 1                  TRA     s:6010

      321     5921    2          SELECT('030024'O); CALL MOVE('M$PDS',SIZEC('M$PDS'));

   5921  1 003133   000026 236000 2                  LDQ     22
         1 003134   200054 756100                    STQ     @STRING+1,,AUTO
         1 003135   000151 236000 2                  LDQ     105
         1 003136   200053 756100                    STQ     YY+2,,AUTO
         1 003137   005350 701000 1                  TSX1    MOVE
         1 003140   000000 011000                    NOP     0
         1 003141   004275 710000 1                  TRA     s:6010

PL6.E3A0      #001=DDR$INSTR File=DDR$INSTR.:E05TSI                              TUE 07/29/97 14:07 Page:90
      322     5922    2          SELECT('030025'O); CALL MOVE('M$PAS',SIZEC('M$PAS'));

   5922  1 003142   000026 236000 2                  LDQ     22
         1 003143   200054 756100                    STQ     @STRING+1,,AUTO
         1 003144   000152 236000 2                  LDQ     106
         1 003145   200053 756100                    STQ     YY+2,,AUTO
         1 003146   005350 701000 1                  TSX1    MOVE
         1 003147   000000 011000                    NOP     0
         1 003150   004275 710000 1                  TRA     s:6010

      323     5923    2          SELECT('040000'O); CALL MOVE('M$READ',SIZEC('M$READ'));

   5923  1 003151   000024 236000 2                  LDQ     20
         1 003152   200054 756100                    STQ     @STRING+1,,AUTO
         1 003153   000153 236000 2                  LDQ     107
         1 003154   200053 756100                    STQ     YY+2,,AUTO
         1 003155   005350 701000 1                  TSX1    MOVE
         1 003156   000000 011000                    NOP     0
         1 003157   004275 710000 1                  TRA     s:6010

      324     5924    2          SELECT('040001'O); CALL MOVE('M$WRITE',SIZEC('M$WRITE'));

   5924  1 003160   000033 236000 2                  LDQ     27
         1 003161   200054 756100                    STQ     @STRING+1,,AUTO
         1 003162   000154 236000 2                  LDQ     108
         1 003163   200053 756100                    STQ     YY+2,,AUTO
         1 003164   005350 701000 1                  TSX1    MOVE
         1 003165   000000 011000                    NOP     0
         1 003166   004275 710000 1                  TRA     s:6010

      325     5925    2          SELECT('040002'O); CALL MOVE('M$DELREC',SIZEC('M$DELREC'));

   5925  1 003167   000040 236000 2                  LDQ     32
         1 003170   200054 756100                    STQ     @STRING+1,,AUTO
         1 003171   000155 236000 2                  LDQ     109
         1 003172   200053 756100                    STQ     YY+2,,AUTO
         1 003173   005350 701000 1                  TSX1    MOVE
PL6.E3A0      #001=DDR$INSTR File=DDR$INSTR.:E05TSI                              TUE 07/29/97 14:07 Page:91
         1 003174   000000 011000                    NOP     0
         1 003175   004275 710000 1                  TRA     s:6010

      326     5926    2          SELECT('040003'O); CALL MOVE('M$PRECORD',SIZEC('M$PRECORD'));

   5926  1 003176   000042 236000 2                  LDQ     34
         1 003177   200054 756100                    STQ     @STRING+1,,AUTO
         1 003200   000156 236000 2                  LDQ     110
         1 003201   200053 756100                    STQ     YY+2,,AUTO
         1 003202   005350 701000 1                  TSX1    MOVE
         1 003203   000000 011000                    NOP     0
         1 003204   004275 710000 1                  TRA     s:6010

      327     5927    2          SELECT('040004'O); CALL MOVE('M$PFIL',SIZEC('M$PFIL'));

   5927  1 003205   000024 236000 2                  LDQ     20
         1 003206   200054 756100                    STQ     @STRING+1,,AUTO
         1 003207   000157 236000 2                  LDQ     111
         1 003210   200053 756100                    STQ     YY+2,,AUTO
         1 003211   005350 701000 1                  TSX1    MOVE
         1 003212   000000 011000                    NOP     0
         1 003213   004275 710000 1                  TRA     s:6010

      328     5928    2          SELECT('040005'O); CALL MOVE('M$EXTEND',SIZEC('M$EXTEND'));

   5928  1 003214   000040 236000 2                  LDQ     32
         1 003215   200054 756100                    STQ     @STRING+1,,AUTO
         1 003216   000160 236000 2                  LDQ     112
         1 003217   200053 756100                    STQ     YY+2,,AUTO
         1 003220   005350 701000 1                  TSX1    MOVE
         1 003221   000000 011000                    NOP     0
         1 003222   004275 710000 1                  TRA     s:6010

      329     5929    2          SELECT('040006'O); CALL MOVE('M$REW',SIZEC('M$REW'));

   5929  1 003223   000026 236000 2                  LDQ     22
         1 003224   200054 756100                    STQ     @STRING+1,,AUTO
PL6.E3A0      #001=DDR$INSTR File=DDR$INSTR.:E05TSI                              TUE 07/29/97 14:07 Page:92
         1 003225   000161 236000 2                  LDQ     113
         1 003226   200053 756100                    STQ     YY+2,,AUTO
         1 003227   005350 701000 1                  TSX1    MOVE
         1 003230   000000 011000                    NOP     0
         1 003231   004275 710000 1                  TRA     s:6010

      330     5930    2          SELECT('040007'O); CALL MOVE('M$WEOF',SIZEC('M$WEOF'));

   5930  1 003232   000024 236000 2                  LDQ     20
         1 003233   200054 756100                    STQ     @STRING+1,,AUTO
         1 003234   000162 236000 2                  LDQ     114
         1 003235   200053 756100                    STQ     YY+2,,AUTO
         1 003236   005350 701000 1                  TSX1    MOVE
         1 003237   000000 011000                    NOP     0
         1 003240   004275 710000 1                  TRA     s:6010

      331     5931    2          SELECT('050000'O); CALL MOVE('M$OPEN',SIZEC('M$OPEN'));

   5931  1 003241   000024 236000 2                  LDQ     20
         1 003242   200054 756100                    STQ     @STRING+1,,AUTO
         1 003243   000163 236000 2                  LDQ     115
         1 003244   200053 756100                    STQ     YY+2,,AUTO
         1 003245   005350 701000 1                  TSX1    MOVE
         1 003246   000000 011000                    NOP     0
         1 003247   004275 710000 1                  TRA     s:6010

      332     5932    2          SELECT('050001'O); CALL MOVE('M$CLOSE',SIZEC('M$CLOSE'));

   5932  1 003250   000033 236000 2                  LDQ     27
         1 003251   200054 756100                    STQ     @STRING+1,,AUTO
         1 003252   000164 236000 2                  LDQ     116
         1 003253   200053 756100                    STQ     YY+2,,AUTO
         1 003254   005350 701000 1                  TSX1    MOVE
         1 003255   000000 011000                    NOP     0
         1 003256   004275 710000 1                  TRA     s:6010

      333     5933    2          SELECT('050002'O); CALL MOVE('M$CHECK',SIZEC('M$CHECK'));
PL6.E3A0      #001=DDR$INSTR File=DDR$INSTR.:E05TSI                              TUE 07/29/97 14:07 Page:93

   5933  1 003257   000033 236000 2                  LDQ     27
         1 003260   200054 756100                    STQ     @STRING+1,,AUTO
         1 003261   000165 236000 2                  LDQ     117
         1 003262   200053 756100                    STQ     YY+2,,AUTO
         1 003263   005350 701000 1                  TSX1    MOVE
         1 003264   000000 011000                    NOP     0
         1 003265   004275 710000 1                  TRA     s:6010

      334     5934    2          SELECT('050003'O); CALL MOVE('M$TRUNC',SIZEC('M$TRUNC'));

   5934  1 003266   000033 236000 2                  LDQ     27
         1 003267   200054 756100                    STQ     @STRING+1,,AUTO
         1 003270   000166 236000 2                  LDQ     118
         1 003271   200053 756100                    STQ     YY+2,,AUTO
         1 003272   005350 701000 1                  TSX1    MOVE
         1 003273   000000 011000                    NOP     0
         1 003274   004275 710000 1                  TRA     s:6010

      335     5935    2          SELECT('050004'O); CALL MOVE('M$CVOL',SIZEC('M$CVOL'));

   5935  1 003275   000024 236000 2                  LDQ     20
         1 003276   200054 756100                    STQ     @STRING+1,,AUTO
         1 003277   000167 236000 2                  LDQ     119
         1 003300   200053 756100                    STQ     YY+2,,AUTO
         1 003301   005350 701000 1                  TSX1    MOVE
         1 003302   000000 011000                    NOP     0
         1 003303   004275 710000 1                  TRA     s:6010

      336     5936    2          SELECT('050005'O); CALL MOVE('M$LINES',SIZEC('M$LINES'));

   5936  1 003304   000033 236000 2                  LDQ     27
         1 003305   200054 756100                    STQ     @STRING+1,,AUTO
         1 003306   000170 236000 2                  LDQ     120
         1 003307   200053 756100                    STQ     YY+2,,AUTO
         1 003310   005350 701000 1                  TSX1    MOVE
         1 003311   000000 011000                    NOP     0
PL6.E3A0      #001=DDR$INSTR File=DDR$INSTR.:E05TSI                              TUE 07/29/97 14:07 Page:94
         1 003312   004275 710000 1                  TRA     s:6010

      337     5937    2          SELECT('050006'O); CALL MOVE('M$DEVICE',SIZEC('M$DEVICE'));

   5937  1 003313   000040 236000 2                  LDQ     32
         1 003314   200054 756100                    STQ     @STRING+1,,AUTO
         1 003315   000171 236000 2                  LDQ     121
         1 003316   200053 756100                    STQ     YY+2,,AUTO
         1 003317   005350 701000 1                  TSX1    MOVE
         1 003320   000000 011000                    NOP     0
         1 003321   004275 710000 1                  TRA     s:6010

      338     5938    2          SELECT('060000'O); CALL MOVE('M$CORRES',SIZEC('M$CORRES'));

   5938  1 003322   000040 236000 2                  LDQ     32
         1 003323   200054 756100                    STQ     @STRING+1,,AUTO
         1 003324   000172 236000 2                  LDQ     122
         1 003325   200053 756100                    STQ     YY+2,,AUTO
         1 003326   005350 701000 1                  TSX1    MOVE
         1 003327   000000 011000                    NOP     0
         1 003330   004275 710000 1                  TRA     s:6010

      339     5939    2          SELECT('060001'O); CALL MOVE('M$SETFMA',SIZEC('M$SETFMA'));

   5939  1 003331   000040 236000 2                  LDQ     32
         1 003332   200054 756100                    STQ     @STRING+1,,AUTO
         1 003333   000173 236000 2                  LDQ     123
         1 003334   200053 756100                    STQ     YY+2,,AUTO
         1 003335   005350 701000 1                  TSX1    MOVE
         1 003336   000000 011000                    NOP     0
         1 003337   004275 710000 1                  TRA     s:6010

      340     5940    2          SELECT('060002'O); CALL MOVE('M$GETDCB',SIZEC('M$GETDCB'));

   5940  1 003340   000040 236000 2                  LDQ     32
         1 003341   200054 756100                    STQ     @STRING+1,,AUTO
         1 003342   000174 236000 2                  LDQ     124
PL6.E3A0      #001=DDR$INSTR File=DDR$INSTR.:E05TSI                              TUE 07/29/97 14:07 Page:95
         1 003343   200053 756100                    STQ     YY+2,,AUTO
         1 003344   005350 701000 1                  TSX1    MOVE
         1 003345   000000 011000                    NOP     0
         1 003346   004275 710000 1                  TRA     s:6010

      341     5941    2          SELECT('060003'O); CALL MOVE('M$RELDCB',SIZEC('M$RELDCB'));

   5941  1 003347   000040 236000 2                  LDQ     32
         1 003350   200054 756100                    STQ     @STRING+1,,AUTO
         1 003351   000175 236000 2                  LDQ     125
         1 003352   200053 756100                    STQ     YY+2,,AUTO
         1 003353   005350 701000 1                  TSX1    MOVE
         1 003354   000000 011000                    NOP     0
         1 003355   004275 710000 1                  TRA     s:6010

      342     5942    2          SELECT('060004'O); CALL MOVE('M$LDEV',SIZEC('M$LDEV'));

   5942  1 003356   000024 236000 2                  LDQ     20
         1 003357   200054 756100                    STQ     @STRING+1,,AUTO
         1 003360   000176 236000 2                  LDQ     126
         1 003361   200053 756100                    STQ     YY+2,,AUTO
         1 003362   005350 701000 1                  TSX1    MOVE
         1 003363   000000 011000                    NOP     0
         1 003364   004275 710000 1                  TRA     s:6010

      343     5943    2          SELECT('060005'O); CALL MOVE('M$MADMUCK',SIZEC('M$MADMUCK'));

   5943  1 003365   000042 236000 2                  LDQ     34
         1 003366   200054 756100                    STQ     @STRING+1,,AUTO
         1 003367   000177 236000 2                  LDQ     127
         1 003370   200053 756100                    STQ     YY+2,,AUTO
         1 003371   005350 701000 1                  TSX1    MOVE
         1 003372   000000 011000                    NOP     0
         1 003373   004275 710000 1                  TRA     s:6010

      344     5944    2          SELECT('060006'O); CALL MOVE('M$REM',SIZEC('M$REM'));

PL6.E3A0      #001=DDR$INSTR File=DDR$INSTR.:E05TSI                              TUE 07/29/97 14:07 Page:96
   5944  1 003374   000026 236000 2                  LDQ     22
         1 003375   200054 756100                    STQ     @STRING+1,,AUTO
         1 003376   000200 236000 2                  LDQ     128
         1 003377   200053 756100                    STQ     YY+2,,AUTO
         1 003400   005350 701000 1                  TSX1    MOVE
         1 003401   000000 011000                    NOP     0
         1 003402   004275 710000 1                  TRA     s:6010

      345     5945    2          SELECT('060007'O); CALL MOVE('M$XFLUSH',SIZEC('M$XFLUSH'));

   5945  1 003403   000040 236000 2                  LDQ     32
         1 003404   200054 756100                    STQ     @STRING+1,,AUTO
         1 003405   000201 236000 2                  LDQ     129
         1 003406   200053 756100                    STQ     YY+2,,AUTO
         1 003407   005350 701000 1                  TSX1    MOVE
         1 003410   000000 011000                    NOP     0
         1 003411   004275 710000 1                  TRA     s:6010

      346     5946    2          SELECT('060010'O); CALL MOVE('M$RELSTARF',SIZEC('M$RELSTARF'));

   5946  1 003412   000053 236000 2                  LDQ     43
         1 003413   200054 756100                    STQ     @STRING+1,,AUTO
         1 003414   000202 236000 2                  LDQ     130
         1 003415   200053 756100                    STQ     YY+2,,AUTO
         1 003416   005350 701000 1                  TSX1    MOVE
         1 003417   000000 011000                    NOP     0
         1 003420   004275 710000 1                  TRA     s:6010

      347     5947    2          SELECT('070000'O); CALL MOVE('M$RDSYSLOG',SIZEC('M$RDSYSLOG'));

   5947  1 003421   000053 236000 2                  LDQ     43
         1 003422   200054 756100                    STQ     @STRING+1,,AUTO
         1 003423   000203 236000 2                  LDQ     131
         1 003424   200053 756100                    STQ     YY+2,,AUTO
         1 003425   005350 701000 1                  TSX1    MOVE
         1 003426   000000 011000                    NOP     0
         1 003427   004275 710000 1                  TRA     s:6010
PL6.E3A0      #001=DDR$INSTR File=DDR$INSTR.:E05TSI                              TUE 07/29/97 14:07 Page:97

      348     5948    2          SELECT('070001'O); CALL MOVE('M$WRSYSLOG',SIZEC('M$WRSYSLOG'));

   5948  1 003430   000053 236000 2                  LDQ     43
         1 003431   200054 756100                    STQ     @STRING+1,,AUTO
         1 003432   000204 236000 2                  LDQ     132
         1 003433   200053 756100                    STQ     YY+2,,AUTO
         1 003434   005350 701000 1                  TSX1    MOVE
         1 003435   000000 011000                    NOP     0
         1 003436   004275 710000 1                  TRA     s:6010

      349     5949    2          SELECT('070002'O); CALL MOVE('M$TDOPEN',SIZEC('M$TDOPEN'));

   5949  1 003437   000040 236000 2                  LDQ     32
         1 003440   200054 756100                    STQ     @STRING+1,,AUTO
         1 003441   000205 236000 2                  LDQ     133
         1 003442   200053 756100                    STQ     YY+2,,AUTO
         1 003443   005350 701000 1                  TSX1    MOVE
         1 003444   000000 011000                    NOP     0
         1 003445   004275 710000 1                  TRA     s:6010

      350     5950    2          SELECT('070003'O); CALL MOVE('M$TDCLOSE',SIZEC('M$TDCLOSE'));

   5950  1 003446   000042 236000 2                  LDQ     34
         1 003447   200054 756100                    STQ     @STRING+1,,AUTO
         1 003450   000206 236000 2                  LDQ     134
         1 003451   200053 756100                    STQ     YY+2,,AUTO
         1 003452   005350 701000 1                  TSX1    MOVE
         1 003453   000000 011000                    NOP     0
         1 003454   004275 710000 1                  TRA     s:6010

      351     5951    2          SELECT('070004'O); CALL MOVE('M$TDIO',SIZEC('M$TDIO'));

   5951  1 003455   000024 236000 2                  LDQ     20
         1 003456   200054 756100                    STQ     @STRING+1,,AUTO
         1 003457   000207 236000 2                  LDQ     135
         1 003460   200053 756100                    STQ     YY+2,,AUTO
PL6.E3A0      #001=DDR$INSTR File=DDR$INSTR.:E05TSI                              TUE 07/29/97 14:07 Page:98
         1 003461   005350 701000 1                  TSX1    MOVE
         1 003462   000000 011000                    NOP     0
         1 003463   004275 710000 1                  TRA     s:6010

      352     5952    2          SELECT('070005'O); CALL MOVE('M$TDREQCPU',SIZEC('M$TDREQCPU'));

   5952  1 003464   000053 236000 2                  LDQ     43
         1 003465   200054 756100                    STQ     @STRING+1,,AUTO
         1 003466   000210 236000 2                  LDQ     136
         1 003467   200053 756100                    STQ     YY+2,,AUTO
         1 003470   005350 701000 1                  TSX1    MOVE
         1 003471   000000 011000                    NOP     0
         1 003472   004275 710000 1                  TRA     s:6010

      353     5953    2          SELECT('070006'O); CALL MOVE('M$IOQ',SIZEC('M$IOQ'));

   5953  1 003473   000026 236000 2                  LDQ     22
         1 003474   200054 756100                    STQ     @STRING+1,,AUTO
         1 003475   000211 236000 2                  LDQ     137
         1 003476   200053 756100                    STQ     YY+2,,AUTO
         1 003477   005350 701000 1                  TSX1    MOVE
         1 003500   000000 011000                    NOP     0
         1 003501   004275 710000 1                  TRA     s:6010

      354     5954    2          SELECT('070007'O); CALL MOVE('M$SYSCON',SIZEC('M$SYSCON'));

   5954  1 003502   000040 236000 2                  LDQ     32
         1 003503   200054 756100                    STQ     @STRING+1,,AUTO
         1 003504   000212 236000 2                  LDQ     138
         1 003505   200053 756100                    STQ     YY+2,,AUTO
         1 003506   005350 701000 1                  TSX1    MOVE
         1 003507   000000 011000                    NOP     0
         1 003510   004275 710000 1                  TRA     s:6010

      355     5955    2          SELECT('100000'O); CALL MOVE('M$ACTIVATE',SIZEC('M$ACTIVATE'));

   5955  1 003511   000053 236000 2                  LDQ     43
PL6.E3A0      #001=DDR$INSTR File=DDR$INSTR.:E05TSI                              TUE 07/29/97 14:07 Page:99
         1 003512   200054 756100                    STQ     @STRING+1,,AUTO
         1 003513   000213 236000 2                  LDQ     139
         1 003514   200053 756100                    STQ     YY+2,,AUTO
         1 003515   005350 701000 1                  TSX1    MOVE
         1 003516   000000 011000                    NOP     0
         1 003517   004275 710000 1                  TRA     s:6010

      356     5956    2          SELECT('100001'O); CALL MOVE('M$DEACTIVATE',SIZEC('M$DEACTIVATE'));

   5956  1 003520   000215 236000 2                  LDQ     141
         1 003521   200054 756100                    STQ     @STRING+1,,AUTO
         1 003522   000216 236000 2                  LDQ     142
         1 003523   200053 756100                    STQ     YY+2,,AUTO
         1 003524   005350 701000 1                  TSX1    MOVE
         1 003525   000000 011000                    NOP     0
         1 003526   004275 710000 1                  TRA     s:6010

      357     5957    2          SELECT('100002'O); CALL MOVE('M$UNLATCH',SIZEC('M$UNLATCH'));

   5957  1 003527   000042 236000 2                  LDQ     34
         1 003530   200054 756100                    STQ     @STRING+1,,AUTO
         1 003531   000217 236000 2                  LDQ     143
         1 003532   200053 756100                    STQ     YY+2,,AUTO
         1 003533   005350 701000 1                  TSX1    MOVE
         1 003534   000000 011000                    NOP     0
         1 003535   004275 710000 1                  TRA     s:6010

      358     5958    2          SELECT('100003'O); CALL MOVE('M$CGCTL',SIZEC('M$CGCTL'));

   5958  1 003536   000033 236000 2                  LDQ     27
         1 003537   200054 756100                    STQ     @STRING+1,,AUTO
         1 003540   000220 236000 2                  LDQ     144
         1 003541   200053 756100                    STQ     YY+2,,AUTO
         1 003542   005350 701000 1                  TSX1    MOVE
         1 003543   000000 011000                    NOP     0
         1 003544   004275 710000 1                  TRA     s:6010

PL6.E3A0      #001=DDR$INSTR File=DDR$INSTR.:E05TSI                              TUE 07/29/97 14:07 Page:100
      359     5959    2          SELECT('100004'O); CALL MOVE('M$CGINFO',SIZEC('M$CGINFO'));

   5959  1 003545   000040 236000 2                  LDQ     32
         1 003546   200054 756100                    STQ     @STRING+1,,AUTO
         1 003547   000221 236000 2                  LDQ     145
         1 003550   200053 756100                    STQ     YY+2,,AUTO
         1 003551   005350 701000 1                  TSX1    MOVE
         1 003552   000000 011000                    NOP     0
         1 003553   004275 710000 1                  TRA     s:6010

      360     5960    2          SELECT('100005'O); CALL MOVE('M$FWCG',SIZEC('M$FWCG'));

   5960  1 003554   000024 236000 2                  LDQ     20
         1 003555   200054 756100                    STQ     @STRING+1,,AUTO
         1 003556   000222 236000 2                  LDQ     146
         1 003557   200053 756100                    STQ     YY+2,,AUTO
         1 003560   005350 701000 1                  TSX1    MOVE
         1 003561   000000 011000                    NOP     0
         1 003562   004275 710000 1                  TRA     s:6010

      361     5961    2          SELECT('110000'O); CALL MOVE('M$TEMPWROC',SIZEC('M$TEMPWROC'));

   5961  1 003563   000053 236000 2                  LDQ     43
         1 003564   200054 756100                    STQ     @STRING+1,,AUTO
         1 003565   000223 236000 2                  LDQ     147
         1 003566   200053 756100                    STQ     YY+2,,AUTO
         1 003567   005350 701000 1                  TSX1    MOVE
         1 003570   000000 011000                    NOP     0
         1 003571   004275 710000 1                  TRA     s:6010

      362     5962    2          SELECT('120000'O); CALL MOVE('M$KEYIN',SIZEC('M$KEYIN'));

   5962  1 003572   000033 236000 2                  LDQ     27
         1 003573   200054 756100                    STQ     @STRING+1,,AUTO
         1 003574   000224 236000 2                  LDQ     148
         1 003575   200053 756100                    STQ     YY+2,,AUTO
         1 003576   005350 701000 1                  TSX1    MOVE
PL6.E3A0      #001=DDR$INSTR File=DDR$INSTR.:E05TSI                              TUE 07/29/97 14:07 Page:101
         1 003577   000000 011000                    NOP     0
         1 003600   004275 710000 1                  TRA     s:6010

      363     5963    2          SELECT('120001'O); CALL MOVE('M$OCMSG',SIZEC('M$OCMSG'));

   5963  1 003601   000033 236000 2                  LDQ     27
         1 003602   200054 756100                    STQ     @STRING+1,,AUTO
         1 003603   000225 236000 2                  LDQ     149
         1 003604   200053 756100                    STQ     YY+2,,AUTO
         1 003605   005350 701000 1                  TSX1    MOVE
         1 003606   000000 011000                    NOP     0
         1 003607   004275 710000 1                  TRA     s:6010

      364     5964    2          SELECT('130000'O); CALL MOVE('M$PATHCON',SIZEC('M$PATHCON'));

   5964  1 003610   000042 236000 2                  LDQ     34
         1 003611   200054 756100                    STQ     @STRING+1,,AUTO
         1 003612   000226 236000 2                  LDQ     150
         1 003613   200053 756100                    STQ     YY+2,,AUTO
         1 003614   005350 701000 1                  TSX1    MOVE
         1 003615   000000 011000                    NOP     0
         1 003616   004275 710000 1                  TRA     s:6010

      365     5965    2          SELECT('130001'O); CALL MOVE('M$EXHUME',SIZEC('M$EXHUME'));

   5965  1 003617   000040 236000 2                  LDQ     32
         1 003620   200054 756100                    STQ     @STRING+1,,AUTO
         1 003621   000227 236000 2                  LDQ     151
         1 003622   200053 756100                    STQ     YY+2,,AUTO
         1 003623   005350 701000 1                  TSX1    MOVE
         1 003624   000000 011000                    NOP     0
         1 003625   004275 710000 1                  TRA     s:6010

      366     5966    2          SELECT('140003'O); CALL MOVE('M$SMOUSE',SIZEC('M$SMOUSE'));

   5966  1 003626   000040 236000 2                  LDQ     32
         1 003627   200054 756100                    STQ     @STRING+1,,AUTO
PL6.E3A0      #001=DDR$INSTR File=DDR$INSTR.:E05TSI                              TUE 07/29/97 14:07 Page:102
         1 003630   000230 236000 2                  LDQ     152
         1 003631   200053 756100                    STQ     YY+2,,AUTO
         1 003632   005350 701000 1                  TSX1    MOVE
         1 003633   000000 011000                    NOP     0
         1 003634   004275 710000 1                  TRA     s:6010

      367     5967    2          SELECT('140004'O); CALL MOVE('M$XMOUSE',SIZEC('M$XMOUSE'));

   5967  1 003635   000040 236000 2                  LDQ     32
         1 003636   200054 756100                    STQ     @STRING+1,,AUTO
         1 003637   000231 236000 2                  LDQ     153
         1 003640   200053 756100                    STQ     YY+2,,AUTO
         1 003641   005350 701000 1                  TSX1    MOVE
         1 003642   000000 011000                    NOP     0
         1 003643   004275 710000 1                  TRA     s:6010

      368     5968    2          SELECT('140005'O); CALL MOVE('M$GETMOUSE',SIZEC('M$GETMOUSE'));

   5968  1 003644   000053 236000 2                  LDQ     43
         1 003645   200054 756100                    STQ     @STRING+1,,AUTO
         1 003646   000232 236000 2                  LDQ     154
         1 003647   200053 756100                    STQ     YY+2,,AUTO
         1 003650   005350 701000 1                  TSX1    MOVE
         1 003651   000000 011000                    NOP     0
         1 003652   004275 710000 1                  TRA     s:6010

      369     5969    2          SELECT('140006'O); CALL MOVE('M$GETPM',SIZEC('M$GETPM'));

   5969  1 003653   000033 236000 2                  LDQ     27
         1 003654   200054 756100                    STQ     @STRING+1,,AUTO
         1 003655   000233 236000 2                  LDQ     155
         1 003656   200053 756100                    STQ     YY+2,,AUTO
         1 003657   005350 701000 1                  TSX1    MOVE
         1 003660   000000 011000                    NOP     0
         1 003661   004275 710000 1                  TRA     s:6010

      370     5970    2          SELECT('150000'O); CALL MOVE('M$LIMIT',SIZEC('M$LIMIT'));
PL6.E3A0      #001=DDR$INSTR File=DDR$INSTR.:E05TSI                              TUE 07/29/97 14:07 Page:103

   5970  1 003662   000033 236000 2                  LDQ     27
         1 003663   200054 756100                    STQ     @STRING+1,,AUTO
         1 003664   000234 236000 2                  LDQ     156
         1 003665   200053 756100                    STQ     YY+2,,AUTO
         1 003666   005350 701000 1                  TSX1    MOVE
         1 003667   000000 011000                    NOP     0
         1 003670   004275 710000 1                  TRA     s:6010

      371     5971    2          SELECT('150001'O); CALL MOVE('M$MBS',SIZEC('M$MBS'));

   5971  1 003671   000026 236000 2                  LDQ     22
         1 003672   200054 756100                    STQ     @STRING+1,,AUTO
         1 003673   000235 236000 2                  LDQ     157
         1 003674   200053 756100                    STQ     YY+2,,AUTO
         1 003675   005350 701000 1                  TSX1    MOVE
         1 003676   000000 011000                    NOP     0
         1 003677   004275 710000 1                  TRA     s:6010

      372     5972    2          SELECT('150002'O); CALL MOVE('M$DISPRES',SIZEC('M$DISPRES'));

   5972  1 003700   000042 236000 2                  LDQ     34
         1 003701   200054 756100                    STQ     @STRING+1,,AUTO
         1 003702   000236 236000 2                  LDQ     158
         1 003703   200053 756100                    STQ     YY+2,,AUTO
         1 003704   005350 701000 1                  TSX1    MOVE
         1 003705   000000 011000                    NOP     0
         1 003706   004275 710000 1                  TRA     s:6010

      373     5973    2          SELECT('150003'O); CALL MOVE('M$RELRES',SIZEC('M$RELRES'));

   5973  1 003707   000040 236000 2                  LDQ     32
         1 003710   200054 756100                    STQ     @STRING+1,,AUTO
         1 003711   000237 236000 2                  LDQ     159
         1 003712   200053 756100                    STQ     YY+2,,AUTO
         1 003713   005350 701000 1                  TSX1    MOVE
         1 003714   000000 011000                    NOP     0
PL6.E3A0      #001=DDR$INSTR File=DDR$INSTR.:E05TSI                              TUE 07/29/97 14:07 Page:104
         1 003715   004275 710000 1                  TRA     s:6010

      374     5974    2          SELECT('150004'O); CALL MOVE('M$REQUIRE',SIZEC('M$REQUIRE'));

   5974  1 003716   000042 236000 2                  LDQ     34
         1 003717   200054 756100                    STQ     @STRING+1,,AUTO
         1 003720   000240 236000 2                  LDQ     160
         1 003721   200053 756100                    STQ     YY+2,,AUTO
         1 003722   005350 701000 1                  TSX1    MOVE
         1 003723   000000 011000                    NOP     0
         1 003724   004275 710000 1                  TRA     s:6010

      375     5975    2          SELECT('150005'O); CALL MOVE('M$RACST',SIZEC('M$RACST'));

   5975  1 003725   000033 236000 2                  LDQ     27
         1 003726   200054 756100                    STQ     @STRING+1,,AUTO
         1 003727   000241 236000 2                  LDQ     161
         1 003730   200053 756100                    STQ     YY+2,,AUTO
         1 003731   005350 701000 1                  TSX1    MOVE
         1 003732   000000 011000                    NOP     0
         1 003733   004275 710000 1                  TRA     s:6010

      376     5976    2          SELECT('160000'O); CALL MOVE('M$STRMCTL',SIZEC('M$STRMCTL'));

   5976  1 003734   000042 236000 2                  LDQ     34
         1 003735   200054 756100                    STQ     @STRING+1,,AUTO
         1 003736   000242 236000 2                  LDQ     162
         1 003737   200053 756100                    STQ     YY+2,,AUTO
         1 003740   005350 701000 1                  TSX1    MOVE
         1 003741   000000 011000                    NOP     0
         1 003742   004275 710000 1                  TRA     s:6010

      377     5977    2          SELECT('160001'O); CALL MOVE('M$GTRMCTL',SIZEC('M$GTRMCTL'));

   5977  1 003743   000042 236000 2                  LDQ     34
         1 003744   200054 756100                    STQ     @STRING+1,,AUTO
         1 003745   000243 236000 2                  LDQ     163
PL6.E3A0      #001=DDR$INSTR File=DDR$INSTR.:E05TSI                              TUE 07/29/97 14:07 Page:105
         1 003746   200053 756100                    STQ     YY+2,,AUTO
         1 003747   005350 701000 1                  TSX1    MOVE
         1 003750   000000 011000                    NOP     0
         1 003751   004275 710000 1                  TRA     s:6010

      378     5978    2          SELECT('160002'O); CALL MOVE('M$PROMPT',SIZEC('M$PROMPT'));

   5978  1 003752   000040 236000 2                  LDQ     32
         1 003753   200054 756100                    STQ     @STRING+1,,AUTO
         1 003754   000244 236000 2                  LDQ     164
         1 003755   200053 756100                    STQ     YY+2,,AUTO
         1 003756   005350 701000 1                  TSX1    MOVE
         1 003757   000000 011000                    NOP     0
         1 003760   004275 710000 1                  TRA     s:6010

      379     5979    2          SELECT('160003'O); CALL MOVE('M$EOM',SIZEC('M$EOM'));

   5979  1 003761   000026 236000 2                  LDQ     22
         1 003762   200054 756100                    STQ     @STRING+1,,AUTO
         1 003763   000245 236000 2                  LDQ     165
         1 003764   200053 756100                    STQ     YY+2,,AUTO
         1 003765   005350 701000 1                  TSX1    MOVE
         1 003766   000000 011000                    NOP     0
         1 003767   004275 710000 1                  TRA     s:6010

      380     5980    2          SELECT('160004'O); CALL MOVE('M$TRMPRG',SIZEC('M$TRMPRG'));

   5980  1 003770   000040 236000 2                  LDQ     32
         1 003771   200054 756100                    STQ     @STRING+1,,AUTO
         1 003772   000246 236000 2                  LDQ     166
         1 003773   200053 756100                    STQ     YY+2,,AUTO
         1 003774   005350 701000 1                  TSX1    MOVE
         1 003775   000000 011000                    NOP     0
         1 003776   004275 710000 1                  TRA     s:6010

      381     5981    2          SELECT('160005'O); CALL MOVE('M$GLINEATTR',SIZEC('M$GLINEATTR'));

PL6.E3A0      #001=DDR$INSTR File=DDR$INSTR.:E05TSI                              TUE 07/29/97 14:07 Page:106
   5981  1 003777   000247 236000 2                  LDQ     167
         1 004000   200054 756100                    STQ     @STRING+1,,AUTO
         1 004001   000250 236000 2                  LDQ     168
         1 004002   200053 756100                    STQ     YY+2,,AUTO
         1 004003   005350 701000 1                  TSX1    MOVE
         1 004004   000000 011000                    NOP     0
         1 004005   004275 710000 1                  TRA     s:6010

      382     5982    2          SELECT('160006'O); CALL MOVE('M$STRMATTR',SIZEC('M$STRMATTR'));

   5982  1 004006   000053 236000 2                  LDQ     43
         1 004007   200054 756100                    STQ     @STRING+1,,AUTO
         1 004010   000251 236000 2                  LDQ     169
         1 004011   200053 756100                    STQ     YY+2,,AUTO
         1 004012   005350 701000 1                  TSX1    MOVE
         1 004013   000000 011000                    NOP     0
         1 004014   004275 710000 1                  TRA     s:6010

      383     5983    2          SELECT('160007'O); CALL MOVE('M$GTRMATTR',SIZEC('M$GTRMATTR'));

   5983  1 004015   000053 236000 2                  LDQ     43
         1 004016   200054 756100                    STQ     @STRING+1,,AUTO
         1 004017   000252 236000 2                  LDQ     170
         1 004020   200053 756100                    STQ     YY+2,,AUTO
         1 004021   005350 701000 1                  TSX1    MOVE
         1 004022   000000 011000                    NOP     0
         1 004023   004275 710000 1                  TRA     s:6010

      384     5984    2          SELECT('160010'O); CALL MOVE('M$PLATEN',SIZEC('M$PLATEN'));

   5984  1 004024   000040 236000 2                  LDQ     32
         1 004025   200054 756100                    STQ     @STRING+1,,AUTO
         1 004026   000253 236000 2                  LDQ     171
         1 004027   200053 756100                    STQ     YY+2,,AUTO
         1 004030   005350 701000 1                  TSX1    MOVE
         1 004031   000000 011000                    NOP     0
         1 004032   004275 710000 1                  TRA     s:6010
PL6.E3A0      #001=DDR$INSTR File=DDR$INSTR.:E05TSI                              TUE 07/29/97 14:07 Page:107

      385     5985    2          SELECT('160011'O); CALL MOVE('M$STRMTAB',SIZEC('M$STRMTAB'));

   5985  1 004033   000042 236000 2                  LDQ     34
         1 004034   200054 756100                    STQ     @STRING+1,,AUTO
         1 004035   000254 236000 2                  LDQ     172
         1 004036   200053 756100                    STQ     YY+2,,AUTO
         1 004037   005350 701000 1                  TSX1    MOVE
         1 004040   000000 011000                    NOP     0
         1 004041   004275 710000 1                  TRA     s:6010

      386     5986    2          SELECT('160012'O); CALL MOVE('M$GTRMTAB',SIZEC('M$GTRMTAB'));

   5986  1 004042   000042 236000 2                  LDQ     34
         1 004043   200054 756100                    STQ     @STRING+1,,AUTO
         1 004044   000255 236000 2                  LDQ     173
         1 004045   200053 756100                    STQ     YY+2,,AUTO
         1 004046   005350 701000 1                  TSX1    MOVE
         1 004047   000000 011000                    NOP     0
         1 004050   004275 710000 1                  TRA     s:6010

      387     5987    2          SELECT('160013'O); CALL MOVE('M$SINPUT',SIZEC('M$SINPUT'));

   5987  1 004051   000040 236000 2                  LDQ     32
         1 004052   200054 756100                    STQ     @STRING+1,,AUTO
         1 004053   000256 236000 2                  LDQ     174
         1 004054   200053 756100                    STQ     YY+2,,AUTO
         1 004055   005350 701000 1                  TSX1    MOVE
         1 004056   000000 011000                    NOP     0
         1 004057   004275 710000 1                  TRA     s:6010

      388     5988    2          SELECT('160014'O); CALL MOVE('M$PROFILE',SIZEC('M$PROFILE'));

   5988  1 004060   000042 236000 2                  LDQ     34
         1 004061   200054 756100                    STQ     @STRING+1,,AUTO
         1 004062   000257 236000 2                  LDQ     175
         1 004063   200053 756100                    STQ     YY+2,,AUTO
PL6.E3A0      #001=DDR$INSTR File=DDR$INSTR.:E05TSI                              TUE 07/29/97 14:07 Page:108
         1 004064   005350 701000 1                  TSX1    MOVE
         1 004065   000000 011000                    NOP     0
         1 004066   004275 710000 1                  TRA     s:6010

      389     5989    2          SELECT('160015'O); CALL MOVE('M$FEBOOT',SIZEC('M$FEBOOT'));

   5989  1 004067   000040 236000 2                  LDQ     32
         1 004070   200054 756100                    STQ     @STRING+1,,AUTO
         1 004071   000260 236000 2                  LDQ     176
         1 004072   200053 756100                    STQ     YY+2,,AUTO
         1 004073   005350 701000 1                  TSX1    MOVE
         1 004074   000000 011000                    NOP     0
         1 004075   004275 710000 1                  TRA     s:6010

      390     5990    2          SELECT('160016'O); CALL MOVE('M$FEDUMP',SIZEC('M$FEDUMP'));

   5990  1 004076   000040 236000 2                  LDQ     32
         1 004077   200054 756100                    STQ     @STRING+1,,AUTO
         1 004100   000261 236000 2                  LDQ     177
         1 004101   200053 756100                    STQ     YY+2,,AUTO
         1 004102   005350 701000 1                  TSX1    MOVE
         1 004103   000000 011000                    NOP     0
         1 004104   004275 710000 1                  TRA     s:6010

      391     5991    2          SELECT('160017'O); CALL MOVE('M$FECTL',SIZEC('M$FECTL'));

   5991  1 004105   000033 236000 2                  LDQ     27
         1 004106   200054 756100                    STQ     @STRING+1,,AUTO
         1 004107   000262 236000 2                  LDQ     178
         1 004110   200053 756100                    STQ     YY+2,,AUTO
         1 004111   005350 701000 1                  TSX1    MOVE
         1 004112   000000 011000                    NOP     0
         1 004113   004275 710000 1                  TRA     s:6010

      392     5992    2          SELECT('160020'O); CALL MOVE('M$TRMISC',SIZEC('M$TRMISC'));

   5992  1 004114   000040 236000 2                  LDQ     32
PL6.E3A0      #001=DDR$INSTR File=DDR$INSTR.:E05TSI                              TUE 07/29/97 14:07 Page:109
         1 004115   200054 756100                    STQ     @STRING+1,,AUTO
         1 004116   000263 236000 2                  LDQ     179
         1 004117   200053 756100                    STQ     YY+2,,AUTO
         1 004120   005350 701000 1                  TSX1    MOVE
         1 004121   000000 011000                    NOP     0
         1 004122   004275 710000 1                  TRA     s:6010

      393     5993    2          SELECT('160021'O); CALL MOVE('M$SETFP',SIZEC('M$SETFP'));

   5993  1 004123   000033 236000 2                  LDQ     27
         1 004124   200054 756100                    STQ     @STRING+1,,AUTO
         1 004125   000264 236000 2                  LDQ     180
         1 004126   200053 756100                    STQ     YY+2,,AUTO
         1 004127   005350 701000 1                  TSX1    MOVE
         1 004130   000000 011000                    NOP     0
         1 004131   004275 710000 1                  TRA     s:6010

      394     5994    2          SELECT('160022'O); CALL MOVE('M$DRIBBLE',SIZEC('M$DRIBBLE'));

   5994  1 004132   000042 236000 2                  LDQ     34
         1 004133   200054 756100                    STQ     @STRING+1,,AUTO
         1 004134   000265 236000 2                  LDQ     181
         1 004135   200053 756100                    STQ     YY+2,,AUTO
         1 004136   005350 701000 1                  TSX1    MOVE
         1 004137   000000 011000                    NOP     0
         1 004140   004275 710000 1                  TRA     s:6010

      395     5995    2          SELECT('160023'O); CALL MOVE('M$CONFIG',SIZEC('M$CONFIG'));

   5995  1 004141   000040 236000 2                  LDQ     32
         1 004142   200054 756100                    STQ     @STRING+1,,AUTO
         1 004143   000266 236000 2                  LDQ     182
         1 004144   200053 756100                    STQ     YY+2,,AUTO
         1 004145   005350 701000 1                  TSX1    MOVE
         1 004146   000000 011000                    NOP     0
         1 004147   004275 710000 1                  TRA     s:6010

PL6.E3A0      #001=DDR$INSTR File=DDR$INSTR.:E05TSI                              TUE 07/29/97 14:07 Page:110
      396     5996    2          SELECT('160024'O); CALL MOVE('M$DCLFLD',SIZEC('M$DCLFLD'));

   5996  1 004150   000040 236000 2                  LDQ     32
         1 004151   200054 756100                    STQ     @STRING+1,,AUTO
         1 004152   000267 236000 2                  LDQ     183
         1 004153   200053 756100                    STQ     YY+2,,AUTO
         1 004154   005350 701000 1                  TSX1    MOVE
         1 004155   000000 011000                    NOP     0
         1 004156   004275 710000 1                  TRA     s:6010

      397     5997    2          SELECT('160025'O); CALL MOVE('M$ERASE',SIZEC('M$ERASE'));

   5997  1 004157   000033 236000 2                  LDQ     27
         1 004160   200054 756100                    STQ     @STRING+1,,AUTO
         1 004161   000270 236000 2                  LDQ     184
         1 004162   200053 756100                    STQ     YY+2,,AUTO
         1 004163   005350 701000 1                  TSX1    MOVE
         1 004164   000000 011000                    NOP     0
         1 004165   004275 710000 1                  TRA     s:6010

      398     5998    2          SELECT('160026'O); CALL MOVE('M$MDFFLD',SIZEC('M$MDFFLD'));

   5998  1 004166   000040 236000 2                  LDQ     32
         1 004167   200054 756100                    STQ     @STRING+1,,AUTO
         1 004170   000271 236000 2                  LDQ     185
         1 004171   200053 756100                    STQ     YY+2,,AUTO
         1 004172   005350 701000 1                  TSX1    MOVE
         1 004173   000000 011000                    NOP     0
         1 004174   004275 710000 1                  TRA     s:6010

      399     5999    2          SELECT('160027'O); CALL MOVE('M$RLSFLD',SIZEC('M$RLSFLD'));

   5999  1 004175   000040 236000 2                  LDQ     32
         1 004176   200054 756100                    STQ     @STRING+1,,AUTO
         1 004177   000272 236000 2                  LDQ     186
         1 004200   200053 756100                    STQ     YY+2,,AUTO
         1 004201   005350 701000 1                  TSX1    MOVE
PL6.E3A0      #001=DDR$INSTR File=DDR$INSTR.:E05TSI                              TUE 07/29/97 14:07 Page:111
         1 004202   000000 011000                    NOP     0
         1 004203   004275 710000 1                  TRA     s:6010

      400     6000    2          SELECT('160030'O); CALL MOVE('M$SLCFLD',SIZEC('M$SLCFLD'));

   6000  1 004204   000040 236000 2                  LDQ     32
         1 004205   200054 756100                    STQ     @STRING+1,,AUTO
         1 004206   000273 236000 2                  LDQ     187
         1 004207   200053 756100                    STQ     YY+2,,AUTO
         1 004210   005350 701000 1                  TSX1    MOVE
         1 004211   000000 011000                    NOP     0
         1 004212   004275 710000 1                  TRA     s:6010

      401     6001    2          SELECT('160031'O); CALL MOVE('M$NODEINFO',SIZEC('M$NODEINFO'));

   6001  1 004213   000053 236000 2                  LDQ     43
         1 004214   200054 756100                    STQ     @STRING+1,,AUTO
         1 004215   000274 236000 2                  LDQ     188
         1 004216   200053 756100                    STQ     YY+2,,AUTO
         1 004217   005350 701000 1                  TSX1    MOVE
         1 004220   000000 011000                    NOP     0
         1 004221   004275 710000 1                  TRA     s:6010

      402     6002    2          SELECT('160032'O); CALL MOVE('M$GPROMPT',SIZEC('M$GPROMPT'));

   6002  1 004222   000042 236000 2                  LDQ     34
         1 004223   200054 756100                    STQ     @STRING+1,,AUTO
         1 004224   000275 236000 2                  LDQ     189
         1 004225   200053 756100                    STQ     YY+2,,AUTO
         1 004226   005350 701000 1                  TSX1    MOVE
         1 004227   000000 011000                    NOP     0
         1 004230   004275 710000 1                  TRA     s:6010

      403     6003    2          SELECT('170000'O); CALL MOVE('M$SYMBIO',SIZEC('M$SYMBIO'));

   6003  1 004231   000040 236000 2                  LDQ     32
         1 004232   200054 756100                    STQ     @STRING+1,,AUTO
PL6.E3A0      #001=DDR$INSTR File=DDR$INSTR.:E05TSI                              TUE 07/29/97 14:07 Page:112
         1 004233   000276 236000 2                  LDQ     190
         1 004234   200053 756100                    STQ     YY+2,,AUTO
         1 004235   005350 701000 1                  TSX1    MOVE
         1 004236   000000 011000                    NOP     0
         1 004237   004275 710000 1                  TRA     s:6010

      404     6004    2          SELECT('170001'O); CALL MOVE('M$JOBSTATS',SIZEC('M$JOBSTATS'));

   6004  1 004240   000053 236000 2                  LDQ     43
         1 004241   200054 756100                    STQ     @STRING+1,,AUTO
         1 004242   000277 236000 2                  LDQ     191
         1 004243   200053 756100                    STQ     YY+2,,AUTO
         1 004244   005350 701000 1                  TSX1    MOVE
         1 004245   000000 011000                    NOP     0
         1 004246   004275 710000 1                  TRA     s:6010

      405     6005    2          SELECT(ELSE);

      406     6006    2            YY = CLIMB0.X0;

   6006  1 004247   200004 236100                    LDQ     INSTR,,AUTO
         1 004250   000022 772000                    QRL     18
         1 004251   377777 376007                    ANQ     131071,DL
         1 004252   200010 756100                    STQ     YY,,AUTO

      407     6007    2            CALL DDR$BINTXT(C$,YY,%OCT_FMT,SIZE);

   6007  1 004253   200024 630500                    EPPR0   SIZE,,AUTO
         1 004254   200061 450500                    STP0    @SZ+5,,AUTO
         1 004255   000001 236000 2                  LDQ     1
         1 004256   200060 756100                    STQ     @SZ+4,,AUTO
         1 004257   200010 631500                    EPPR1   YY,,AUTO
         1 004260   200057 451500                    STP1    @SZ+3,,AUTO
         1 004261   200023 633500                    EPPR3   C$,,AUTO
         1 004262   200056 453500                    STP3    @SZ+2,,AUTO
         1 004263   200056 630500                    EPPR0   @SZ+2,,AUTO
         1 004264   000022 631400 xsym               EPPR1   B_VECTNIL+18
PL6.E3A0      #001=DDR$INSTR File=DDR$INSTR.:E05TSI                              TUE 07/29/97 14:07 Page:113
         1 004265   000000 701000 xent               TSX1    DDR$BINTXT
         1 004266   000000 011000                    NOP     0

      408     6008    2            CALL MOVE (CSTRING,SIZE);

   6008  1 004267   200024 630500                    EPPR0   SIZE,,AUTO
         1 004270   200054 450500                    STP0    @STRING+1,,AUTO
         1 004271   200011 631500                    EPPR1   CSTRING,,AUTO
         1 004272   200053 451500                    STP1    YY+2,,AUTO
         1 004273   005350 701000 1                  TSX1    MOVE
         1 004274   000000 011000                    NOP     0

      409     6009    2          END;  /* do select */

      410     6010    1            IF FSS > BUF_LENGTH THEN GOTO TOO_BIG;

   6010  1 004275   200005 236100                    LDQ     FSS,,AUTO
         1 004276   200006 116100                    CMPQ    BUF_LENGTH,,AUTO
         1 004277   004301 605400 1                  TPNZ    TOO_BIG

      411     6011    1          RETURN;

   6011  1 004300   000000 702200 xent               TSX2  ! X66_ARET

      412     6012        %EJECT;
PL6.E3A0      #001=DDR$INSTR File=DDR$INSTR.:E05TSI                              TUE 07/29/97 14:07 Page:114
      413     6013                       /* Not enough buffer space for instruction format.  Put out in
      414     6014                          pure octal. */
      415     6015    1   TOO_BIG:
      416     6016    1        GOTO PURE_OCTAL;

   6016  1 004301   004302 710000 1     TOO_BIG      TRA     PURE_OCTAL

      417     6017    1   PURE_OCTAL:
      418     6018                            /* Put out instruction in pure octal (12 octal characters)
      419     6019                            reset the buffer pointer and convert.  */
      420     6020    1        S_D.KILLEDEF = '0'B;

   6020  1 004302   000000 470400 xsym  PURE_OCTAL   LDP0    S_D$
         1 004303   000105 450100                    STZ     69,,PR0

      421     6021    1        S_D.D$ = SAVE_D$_INIT;

   6021  1 004304   200036 236100                    LDQ     SAVE_D$_INIT,,AUTO
         1 004305   000044 756100                    STQ     36,,PR0

      422     6022    1        CALL DDR$BINTXT(S_D.D$,INSTR,%OCT_FMT,SIZE);

   6022  1 004306   200024 631500                    EPPR1   SIZE,,AUTO
         1 004307   200061 451500                    STP1    @SZ+5,,AUTO
         1 004310   000001 236000 2                  LDQ     1
         1 004311   200060 756100                    STQ     @SZ+4,,AUTO
         1 004312   200004 633500                    EPPR3   INSTR,,AUTO
         1 004313   200057 453500                    STP3    @SZ+3,,AUTO
         1 004314   000000 236000 xsym               LDQ     S_D$
         1 004315   000044 036003                    ADLQ    36,DU
         1 004316   200056 756100                    STQ     @SZ+2,,AUTO
         1 004317   200056 630500                    EPPR0   @SZ+2,,AUTO
         1 004320   000022 631400 xsym               EPPR1   B_VECTNIL+18
         1 004321   000000 701000 xent               TSX1    DDR$BINTXT
         1 004322   000000 011000                    NOP     0

      423     6023    1        S_D.D$ = PINCRC(S_D.D$,SIZE);
PL6.E3A0      #001=DDR$INSTR File=DDR$INSTR.:E05TSI                              TUE 07/29/97 14:07 Page:115

   6023  1 004323   000000 470400 xsym               LDP0    S_D$
         1 004324   000044 471500                    LDP1    36,,PR0
         1 004325   200024 236100                    LDQ     SIZE,,AUTO
         1 004326   000011 402007                    MPY     9,DL
         1 004327   000000 116003                    CMPQ    0,DU
         1 004330   004332 605000 1                  TPL     s:6023+7
         1 004331   000044 036003                    ADLQ    36,DU
         1 004332   100000 503506                    ABD     0,QL,PR1
         1 004333   000044 451500                    STP1    36,,PR0

      424     6024    1        RETURN;

   6024  1 004334   000000 702200 xent               TSX2  ! X66_ARET

      425     6025    1   CANT_ACCESS:
      426     6026    1        S_D.ERROR = E@CANTACCESS;  /* E@CANTACCESS */

   6026  1 004335   000355 235007       CANT_ACCESS  LDA     237,DL
         1 004336   000000 470400 xsym               LDP0    S_D$
         1 004337   000013 755100                    STA     11,,PR0

      427     6027    1        ALTRETURN;

   6027  1 004340   000000 702200 xent               TSX2  ! X66_AALT

   6023  1 004341                       DECODE_DESC  null
      428     6028        %EJECT;
PL6.E3A0      #001=DDR$INSTR File=DDR$INSTR.:E05TSI                              TUE 07/29/97 14:07 Page:116
      429     6029    1   DECODE_DESC:;      /* this is a descriptor following an EIS instruction */
      430     6030    1     YFIELD_HAS_REG = S_D.EIS.MODS.AR;

   6030  1 004341   006740 236100                    LDQ     3552,,PR0
         1 004342   000004 736000                    QLS     4
         1 004343   400000 376003                    ANQ     -131072,DU
         1 004344   200033 756100                    STQ     YFIELD_HAS_REG,,AUTO

      431     6031    1     YFIELD_IN_OCTAL = '0'B;

   6031  1 004345   200034 450100                    STZ     YFIELD_IN_OCTAL,,AUTO

      432     6032    1     SIZE_IS_REG = S_D.EIS.MODS.RL;

   6032  1 004346   006740 236100                    LDQ     3552,,PR0
         1 004347   000005 736000                    QLS     5
         1 004350   400000 376003                    ANQ     -131072,DU
         1 004351   200035 756100                    STQ     SIZE_IS_REG,,AUTO

      433     6033    1     TAG = 0;

   6033  1 004352   200030 450100                    STZ     TAG,,AUTO

      434     6034    2     DO CASE (S_D.EIS.DESC_TYPE);

   6034  1 004353   006740 236100                    LDQ     3552,,PR0
         1 004354   000040 772000                    QRL     32
         1 004355   000007 376007                    ANQ     7,DL
         1 004356   000010 116007                    CMPQ    8,DL
         1 004357   004361 602006 1                  TNC     s:6034+6,QL
         1 004360   005132 710000 1                  TRA     s:6109
         1 004361   005132 710000 1                  TRA     s:6109
         1 004362   004371 710000 1                  TRA     s:6036
         1 004363   004442 710000 1                  TRA     s:6045
         1 004364   004526 710000 1                  TRA     s:6055
         1 004365   004630 710000 1                  TRA     s:6066
         1 004366   004707 710000 1                  TRA     s:6073
PL6.E3A0      #001=DDR$INSTR File=DDR$INSTR.:E05TSI                              TUE 07/29/97 14:07 Page:117
         1 004367   004756 710000 1                  TRA     DECODE_ARG
         1 004370   005017 710000 1                  TRA     s:6090

      435     6035    2       CASE (D_ADSC);      /* ADSCn */

      436     6036    2          CALL MOVE ('ADSC',4) ALTRET (TOO_BIG);

   6036  1 004371   000011 236000 2                  LDQ     9
         1 004372   200054 756100                    STQ     @STRING+1,,AUTO
         1 004373   000300 236000 2                  LDQ     192
         1 004374   200053 756100                    STQ     YY+2,,AUTO
         1 004375   005350 701000 1                  TSX1    MOVE
         1 004376   004301 702000 1                  TSX2    TOO_BIG

      437     6037    2          CALL MOVE (EISTAG(ADSC.TA), 2) ALTRET (TOO_BIG);

   6037  1 004377   200004 236100                    LDQ     INSTR,,AUTO
         1 004400   000015 772000                    QRL     13
         1 004401   000003 376007                    ANQ     3,DL
         1 004402   000000 620006                    EAX0    0,QL
         1 004403   000003 236000 2                  LDQ     3
         1 004404   200054 756100                    STQ     @STRING+1,,AUTO
         1 004405   000110 630410 0                  EPPR0   EISTAG,X0
         1 004406   200053 450500                    STP0    YY+2,,AUTO
         1 004407   005350 701000 1                  TSX1    MOVE
         1 004410   004301 702000 1                  TSX2    TOO_BIG

      438     6038    2          CALL SYMBOLIC_YFIELD ALTRET (TOO_BIG);

   6038  1 004411   005401 701000 1                  TSX1    SYMBOLIC_YFIELD
         1 004412   004301 702000 1                  TSX2    TOO_BIG

      439     6039    2          REGLEN = ADSC.CN;

   6039  1 004413   200004 236100                    LDQ     INSTR,,AUTO
         1 004414   000017 772000                    QRL     15
         1 004415   000007 376007                    ANQ     7,DL
PL6.E3A0      #001=DDR$INSTR File=DDR$INSTR.:E05TSI                              TUE 07/29/97 14:07 Page:118
         1 004416   200025 756100                    STQ     REGLEN,,AUTO

      440     6040    2          IF (ADSC.TA = 0) THEN REGLEN = REGLEN / 2;

   6040  1 004417   200004 236100                    LDQ     INSTR,,AUTO
         1 004420   060000 316007                    CANQ    24576,DL
         1 004421   004425 601000 1                  TNZ     s:6041

   6040  1 004422   200025 236100                    LDQ     REGLEN,,AUTO
         1 004423   000001 772000                    QRL     1
         1 004424   200025 756100                    STQ     REGLEN,,AUTO

      441     6041    2          CALL MOVE (BINTOCHAR (REGLEN), 2) ALTRET (TOO_BIG);

   6041  1 004425   000003 236000 2                  LDQ     3
         1 004426   200054 756100                    STQ     @STRING+1,,AUTO
         1 004427   200025 720100                    LXL0    REGLEN,,AUTO
         1 004430   000120 630410 0                  EPPR0   BINTOCHAR,X0
         1 004431   200053 450500                    STP0    YY+2,,AUTO
         1 004432   005350 701000 1                  TSX1    MOVE
         1 004433   004301 702000 1                  TSX2    TOO_BIG

      442     6042    2          REGLEN = ADSC.N;

   6042  1 004434   200004 236100                    LDQ     INSTR,,AUTO
         1 004435   007777 376007                    ANQ     4095,DL
         1 004436   200025 756100                    STQ     REGLEN,,AUTO

      443     6043    2          CALL MOVE_REGLEN ALTRET (TOO_BIG);

   6043  1 004437   005146 701000 1                  TSX1    MOVE_REGLEN
         1 004440   004301 702000 1                  TSX2    TOO_BIG
         1 004441   005132 710000 1                  TRA     s:6109

      444     6044    2       CASE (D_BDSC);      /* BDSC */

      445     6045    2          CALL MOVE ('BDSC ', 5);
PL6.E3A0      #001=DDR$INSTR File=DDR$INSTR.:E05TSI                              TUE 07/29/97 14:07 Page:119

   6045  1 004442   000026 236000 2                  LDQ     22
         1 004443   200054 756100                    STQ     @STRING+1,,AUTO
         1 004444   000301 236000 2                  LDQ     193
         1 004445   200053 756100                    STQ     YY+2,,AUTO
         1 004446   005350 701000 1                  TSX1    MOVE
         1 004447   000000 011000                    NOP     0

      446     6046    2          CALL SYMBOLIC_YFIELD ALTRET (TOO_BIG);

   6046  1 004450   005401 701000 1                  TSX1    SYMBOLIC_YFIELD
         1 004451   004301 702000 1                  TSX2    TOO_BIG

      447     6047    2          REGLEN = BDSC.N;

   6047  1 004452   200004 236100                    LDQ     INSTR,,AUTO
         1 004453   007777 376007                    ANQ     4095,DL
         1 004454   200025 756100                    STQ     REGLEN,,AUTO

      448     6048    2          CALL MOVE_REGLEN ALTRET (TOO_BIG);

   6048  1 004455   005146 701000 1                  TSX1    MOVE_REGLEN
         1 004456   004301 702000 1                  TSX2    TOO_BIG

      449     6049    2          CALL MOVE (BINTOCHAR(BDSC.C),2) ALTRET (TOO_BIG);

   6049  1 004457   200004 236100                    LDQ     INSTR,,AUTO
         1 004460   000020 772000                    QRL     16
         1 004461   000003 376007                    ANQ     3,DL
         1 004462   000000 620006                    EAX0    0,QL
         1 004463   000003 236000 2                  LDQ     3
         1 004464   200054 756100                    STQ     @STRING+1,,AUTO
         1 004465   000120 630410 0                  EPPR0   BINTOCHAR,X0
         1 004466   200053 450500                    STP0    YY+2,,AUTO
         1 004467   005350 701000 1                  TSX1    MOVE
         1 004470   004301 702000 1                  TSX2    TOO_BIG

PL6.E3A0      #001=DDR$INSTR File=DDR$INSTR.:E05TSI                              TUE 07/29/97 14:07 Page:120
      450     6050    2          SIZE = BDSC.B;

   6050  1 004471   200004 236100                    LDQ     INSTR,,AUTO
         1 004472   000014 772000                    QRL     12
         1 004473   000017 376007                    ANQ     15,DL
         1 004474   200024 756100                    STQ     SIZE,,AUTO

      451     6051    2          CALL MOVE (',',1) ALTRET (TOO_BIG);

   6051  1 004475   000001 236000 2                  LDQ     1
         1 004476   200054 756100                    STQ     @STRING+1,,AUTO
         1 004477   000010 236000 2                  LDQ     8
         1 004500   200053 756100                    STQ     YY+2,,AUTO
         1 004501   005350 701000 1                  TSX1    MOVE
         1 004502   004301 702000 1                  TSX2    TOO_BIG

      452     6052    2          CALL DDR$BINTXT(C$,SIZE,%OCT_FMT,SIZE);

   6052  1 004503   200024 630500                    EPPR0   SIZE,,AUTO
         1 004504   200061 450500                    STP0    @SZ+5,,AUTO
         1 004505   000001 236000 2                  LDQ     1
         1 004506   200060 756100                    STQ     @SZ+4,,AUTO
         1 004507   200024 631500                    EPPR1   SIZE,,AUTO
         1 004510   200057 451500                    STP1    @SZ+3,,AUTO
         1 004511   200023 633500                    EPPR3   C$,,AUTO
         1 004512   200056 453500                    STP3    @SZ+2,,AUTO
         1 004513   200056 630500                    EPPR0   @SZ+2,,AUTO
         1 004514   000022 631400 xsym               EPPR1   B_VECTNIL+18
         1 004515   000000 701000 xent               TSX1    DDR$BINTXT
         1 004516   000000 011000                    NOP     0

      453     6053    2          CALL MOVE (CSTRING,SIZE) ALTRET (TOO_BIG);

   6053  1 004517   200024 630500                    EPPR0   SIZE,,AUTO
         1 004520   200054 450500                    STP0    @STRING+1,,AUTO
         1 004521   200011 631500                    EPPR1   CSTRING,,AUTO
         1 004522   200053 451500                    STP1    YY+2,,AUTO
PL6.E3A0      #001=DDR$INSTR File=DDR$INSTR.:E05TSI                              TUE 07/29/97 14:07 Page:121
         1 004523   005350 701000 1                  TSX1    MOVE
         1 004524   004301 702000 1                  TSX2    TOO_BIG
         1 004525   005132 710000 1                  TRA     s:6109

      454     6054    2       CASE (D_NDSC);      /* NDSCn */

      455     6055    2          CALL MOVE ('NDSC', 4) ALTRET (TOO_BIG);

   6055  1 004526   000011 236000 2                  LDQ     9
         1 004527   200054 756100                    STQ     @STRING+1,,AUTO
         1 004530   000302 236000 2                  LDQ     194
         1 004531   200053 756100                    STQ     YY+2,,AUTO
         1 004532   005350 701000 1                  TSX1    MOVE
         1 004533   004301 702000 1                  TSX2    TOO_BIG

      456     6056    2          CALL MOVE (NDSC_SIZE(NDSC.TN),2) ALTRET (TOO_BIG);

   6056  1 004534   200004 236100                    LDQ     INSTR,,AUTO
         1 004535   000016 772000                    QRL     14
         1 004536   000001 376007                    ANQ     1,DL
         1 004537   000000 620006                    EAX0    0,QL
         1 004540   000003 236000 2                  LDQ     3
         1 004541   200054 756100                    STQ     @STRING+1,,AUTO
         1 004542   000116 630410 0                  EPPR0   NDSC_SIZE,X0
         1 004543   200053 450500                    STP0    YY+2,,AUTO
         1 004544   005350 701000 1                  TSX1    MOVE
         1 004545   004301 702000 1                  TSX2    TOO_BIG

      457     6057    2          CALL SYMBOLIC_YFIELD ALTRET (TOO_BIG);

   6057  1 004546   005401 701000 1                  TSX1    SYMBOLIC_YFIELD
         1 004547   004301 702000 1                  TSX2    TOO_BIG

      458     6058    2          CALL MOVE (BINTOCHAR(NDSC.CN),2) ALTRET (TOO_BIG);

   6058  1 004550   200004 236100                    LDQ     INSTR,,AUTO
         1 004551   000017 772000                    QRL     15
PL6.E3A0      #001=DDR$INSTR File=DDR$INSTR.:E05TSI                              TUE 07/29/97 14:07 Page:122
         1 004552   000007 376007                    ANQ     7,DL
         1 004553   000000 620006                    EAX0    0,QL
         1 004554   000003 236000 2                  LDQ     3
         1 004555   200054 756100                    STQ     @STRING+1,,AUTO
         1 004556   000120 630410 0                  EPPR0   BINTOCHAR,X0
         1 004557   200053 450500                    STP0    YY+2,,AUTO
         1 004560   005350 701000 1                  TSX1    MOVE
         1 004561   004301 702000 1                  TSX2    TOO_BIG

      459     6059    2          REGLEN = NDSC.N;

   6059  1 004562   200004 236100                    LDQ     INSTR,,AUTO
         1 004563   000077 376007                    ANQ     63,DL
         1 004564   200025 756100                    STQ     REGLEN,,AUTO

      460     6060    2          CALL MOVE_REGLEN ALTRET (TOO_BIG);

   6060  1 004565   005146 701000 1                  TSX1    MOVE_REGLEN
         1 004566   004301 702000 1                  TSX2    TOO_BIG

      461     6061    2          CALL MOVE (BINTOCHAR(NDSC.SX),3) ALTRET (TOO_BIG);

   6061  1 004567   200004 236100                    LDQ     INSTR,,AUTO
         1 004570   000014 772000                    QRL     12
         1 004571   000003 376007                    ANQ     3,DL
         1 004572   000000 620006                    EAX0    0,QL
         1 004573   000015 236000 2                  LDQ     13
         1 004574   200054 756100                    STQ     @STRING+1,,AUTO
         1 004575   000120 630410 0                  EPPR0   BINTOCHAR,X0
         1 004576   200053 450500                    STP0    YY+2,,AUTO
         1 004577   005350 701000 1                  TSX1    MOVE
         1 004600   004301 702000 1                  TSX2    TOO_BIG

      462     6062    2          SIZE = NDSC.SF;

   6062  1 004601   200004 236100                    LDQ     INSTR,,AUTO
         1 004602   000030 736000                    QLS     24
PL6.E3A0      #001=DDR$INSTR File=DDR$INSTR.:E05TSI                              TUE 07/29/97 14:07 Page:123
         1 004603   000036 732000                    QRS     30
         1 004604   200024 756100                    STQ     SIZE,,AUTO

      463     6063    2          CALL DDR$BINTXT(C$,SIZE,%UINT_FMT,SIZE);

   6063  1 004605   200024 630500                    EPPR0   SIZE,,AUTO
         1 004606   200061 450500                    STP0    @SZ+5,,AUTO
         1 004607   000003 236000 2                  LDQ     3
         1 004610   200060 756100                    STQ     @SZ+4,,AUTO
         1 004611   200024 631500                    EPPR1   SIZE,,AUTO
         1 004612   200057 451500                    STP1    @SZ+3,,AUTO
         1 004613   200023 633500                    EPPR3   C$,,AUTO
         1 004614   200056 453500                    STP3    @SZ+2,,AUTO
         1 004615   200056 630500                    EPPR0   @SZ+2,,AUTO
         1 004616   000022 631400 xsym               EPPR1   B_VECTNIL+18
         1 004617   000000 701000 xent               TSX1    DDR$BINTXT
         1 004620   000000 011000                    NOP     0

      464     6064    2          CALL MOVE (CSTRING,SIZE) ALTRET (TOO_BIG);

   6064  1 004621   200024 630500                    EPPR0   SIZE,,AUTO
         1 004622   200054 450500                    STP0    @STRING+1,,AUTO
         1 004623   200011 631500                    EPPR1   CSTRING,,AUTO
         1 004624   200053 451500                    STP1    YY+2,,AUTO
         1 004625   005350 701000 1                  TSX1    MOVE
         1 004626   004301 702000 1                  TSX2    TOO_BIG
         1 004627   005132 710000 1                  TRA     s:6109

      465     6065    2       CASE (D_SDSC);      /* SDSCn */

      466     6066    2          CALL MOVE ('SDSC', 4) ALTRET (TOO_BIG);

   6066  1 004630   000011 236000 2                  LDQ     9
         1 004631   200054 756100                    STQ     @STRING+1,,AUTO
         1 004632   000303 236000 2                  LDQ     195
         1 004633   200053 756100                    STQ     YY+2,,AUTO
         1 004634   005350 701000 1                  TSX1    MOVE
PL6.E3A0      #001=DDR$INSTR File=DDR$INSTR.:E05TSI                              TUE 07/29/97 14:07 Page:124
         1 004635   004301 702000 1                  TSX2    TOO_BIG

      467     6067    2          CALL MOVE (SDSC_SIZE(SDSC.B),2) ALTRET (TOO_BIG);

   6067  1 004636   200004 236100                    LDQ     INSTR,,AUTO
         1 004637   000015 772000                    QRL     13
         1 004640   000001 376007                    ANQ     1,DL
         1 004641   000000 620006                    EAX0    0,QL
         1 004642   000003 236000 2                  LDQ     3
         1 004643   200054 756100                    STQ     @STRING+1,,AUTO
         1 004644   000114 630410 0                  EPPR0   SDSC_SIZE,X0
         1 004645   200053 450500                    STP0    YY+2,,AUTO
         1 004646   005350 701000 1                  TSX1    MOVE
         1 004647   004301 702000 1                  TSX2    TOO_BIG

      468     6068    2          CALL SYMBOLIC_YFIELD ALTRET (TOO_BIG);

   6068  1 004650   005401 701000 1                  TSX1    SYMBOLIC_YFIELD
         1 004651   004301 702000 1                  TSX2    TOO_BIG

      469     6069    2          CALL MOVE (BINTOCHAR(SDSC.CN),1) ALTRET (TOO_BIG);

   6069  1 004652   200004 236100                    LDQ     INSTR,,AUTO
         1 004653   000017 772000                    QRL     15
         1 004654   000007 376007                    ANQ     7,DL
         1 004655   000000 620006                    EAX0    0,QL
         1 004656   000001 236000 2                  LDQ     1
         1 004657   200054 756100                    STQ     @STRING+1,,AUTO
         1 004660   000120 630410 0                  EPPR0   BINTOCHAR,X0
         1 004661   200053 450500                    STP0    YY+2,,AUTO
         1 004662   005350 701000 1                  TSX1    MOVE
         1 004663   004301 702000 1                  TSX2    TOO_BIG

      470     6070    2          CALL MOVE (BINTOCHAR(SDSC.L),2) ALTRET (TOO_BIG);

   6070  1 004664   200004 720100                    LXL0    INSTR,,AUTO
         1 004665   000007 360003                    ANX0    7,DU
PL6.E3A0      #001=DDR$INSTR File=DDR$INSTR.:E05TSI                              TUE 07/29/97 14:07 Page:125
         1 004666   000003 236000 2                  LDQ     3
         1 004667   200054 756100                    STQ     @STRING+1,,AUTO
         1 004670   000120 630410 0                  EPPR0   BINTOCHAR,X0
         1 004671   200053 450500                    STP0    YY+2,,AUTO
         1 004672   005350 701000 1                  TSX1    MOVE
         1 004673   004301 702000 1                  TSX2    TOO_BIG

      471     6071    2          CALL MOVE (BINTOCHAR(SDSC.SE),2) ALTRET (TOO_BIG);

   6071  1 004674   200004 236100                    LDQ     INSTR,,AUTO
         1 004675   000016 772000                    QRL     14
         1 004676   000001 376007                    ANQ     1,DL
         1 004677   000000 620006                    EAX0    0,QL
         1 004700   000003 236000 2                  LDQ     3
         1 004701   200054 756100                    STQ     @STRING+1,,AUTO
         1 004702   000120 630410 0                  EPPR0   BINTOCHAR,X0
         1 004703   200053 450500                    STP0    YY+2,,AUTO
         1 004704   005350 701000 1                  TSX1    MOVE
         1 004705   004301 702000 1                  TSX2    TOO_BIG
         1 004706   005132 710000 1                  TRA     s:6109

      472     6072    2       CASE (D_VDSC);      /* VDSC */

      473     6073    2          CALL MOVE ('VDSC ', 5) ALTRET (TOO_BIG);

   6073  1 004707   000026 236000 2                  LDQ     22
         1 004710   200054 756100                    STQ     @STRING+1,,AUTO
         1 004711   000304 236000 2                  LDQ     196
         1 004712   200053 756100                    STQ     YY+2,,AUTO
         1 004713   005350 701000 1                  TSX1    MOVE
         1 004714   004301 702000 1                  TSX2    TOO_BIG

      474     6074    2          CALL SYMBOLIC_YFIELD ALTRET (TOO_BIG);

   6074  1 004715   005401 701000 1                  TSX1    SYMBOLIC_YFIELD
         1 004716   004301 702000 1                  TSX2    TOO_BIG

PL6.E3A0      #001=DDR$INSTR File=DDR$INSTR.:E05TSI                              TUE 07/29/97 14:07 Page:126
      475     6075    2          SIZE_IS_REG = VDSC.R;

   6075  1 004717   200004 236100                    LDQ     INSTR,,AUTO
         1 004720   000037 736000                    QLS     31
         1 004721   400000 376003                    ANQ     -131072,DU
         1 004722   200035 756100                    STQ     SIZE_IS_REG,,AUTO

      476     6076    2          REGLEN = VDSC.VI;

   6076  1 004723   200004 236100                    LDQ     INSTR,,AUTO
         1 004724   000022 736000                    QLS     18
         1 004725   000027 732000                    QRS     23
         1 004726   200025 756100                    STQ     REGLEN,,AUTO

      477     6077    2          CALL MOVE_REGLEN ALTRET (TOO_BIG);

   6077  1 004727   005146 701000 1                  TSX1    MOVE_REGLEN
         1 004730   004301 702000 1                  TSX2    TOO_BIG

      478     6078    2          IF VDSC.RN > 0

   6078  1 004731   200004 236100                    LDQ     INSTR,,AUTO
         1 004732   000017 316007                    CANQ    15,DL
         1 004733   004745 600000 1                  TZE     s:6080

      479     6079    2            THEN CALL MOVE (TAGS(VDSC.RN),3) ALTRET (TOO_BIG);

   6079  1 004734   200004 720100                    LXL0    INSTR,,AUTO
         1 004735   000017 360003                    ANX0    15,DU
         1 004736   000015 236000 2                  LDQ     13
         1 004737   200054 756100                    STQ     @STRING+1,,AUTO
         1 004740   000000 630410 0                  EPPR0   TAGS,X0
         1 004741   200053 450500                    STP0    YY+2,,AUTO
         1 004742   005350 701000 1                  TSX1    MOVE
         1 004743   004301 702000 1                  TSX2    TOO_BIG
         1 004744   005132 710000 1                  TRA     s:6109

PL6.E3A0      #001=DDR$INSTR File=DDR$INSTR.:E05TSI                              TUE 07/29/97 14:07 Page:127
      480     6080    2            ELSE IF YFIELD_HAS_REG THEN CALL MOVE (',',1) ALTRET (TOO_BIG);

   6080  1 004745   200033 234100                    SZN     YFIELD_HAS_REG,,AUTO
         1 004746   005132 605000 1                  TPL     s:6109

   6080  1 004747   000001 236000 2                  LDQ     1
         1 004750   200054 756100                    STQ     @STRING+1,,AUTO
         1 004751   000010 236000 2                  LDQ     8
         1 004752   200053 756100                    STQ     YY+2,,AUTO
         1 004753   005350 701000 1                  TSX1    MOVE
         1 004754   004301 702000 1                  TSX2    TOO_BIG
         1 004755   005132 710000 1                  TRA     s:6109

      481     6081    2       CASE (D_ARG);       /* ARG */

   6080  1 004756                       DECODE_ARG   null
      482     6082    2   DECODE_ARG:;
      483     6083    2          CALL MOVE ('ARG ', 4) ALTRET (TOO_BIG);

   6083  1 004756   000011 236000 2                  LDQ     9
         1 004757   200054 756100                    STQ     @STRING+1,,AUTO
         1 004760   000305 236000 2                  LDQ     197
         1 004761   200053 756100                    STQ     YY+2,,AUTO
         1 004762   005350 701000 1                  TSX1    MOVE
         1 004763   004301 702000 1                  TSX2    TOO_BIG

      484     6084    2          YFIELD_HAS_REG = ARG.AR;

   6084  1 004764   200004 236100                    LDQ     INSTR,,AUTO
         1 004765   000035 736000                    QLS     29
         1 004766   400000 376003                    ANQ     -131072,DU
         1 004767   200033 756100                    STQ     YFIELD_HAS_REG,,AUTO

      485     6085    2          CALL SYMBOLIC_YFIELD ALTRET (TOO_BIG);

   6085  1 004770   005401 701000 1                  TSX1    SYMBOLIC_YFIELD
         1 004771   004301 702000 1                  TSX2    TOO_BIG
PL6.E3A0      #001=DDR$INSTR File=DDR$INSTR.:E05TSI                              TUE 07/29/97 14:07 Page:128

      486     6086    2          IF ARG.REG > 0

   6086  1 004772   200004 236100                    LDQ     INSTR,,AUTO
         1 004773   000017 316007                    CANQ    15,DL
         1 004774   005006 600000 1                  TZE     s:6088

      487     6087    2            THEN CALL MOVE (TAGS(ARG.REG),3) ALTRET (TOO_BIG);

   6087  1 004775   200004 720100                    LXL0    INSTR,,AUTO
         1 004776   000017 360003                    ANX0    15,DU
         1 004777   000015 236000 2                  LDQ     13
         1 005000   200054 756100                    STQ     @STRING+1,,AUTO
         1 005001   000000 630410 0                  EPPR0   TAGS,X0
         1 005002   200053 450500                    STP0    YY+2,,AUTO
         1 005003   005350 701000 1                  TSX1    MOVE
         1 005004   004301 702000 1                  TSX2    TOO_BIG
         1 005005   005132 710000 1                  TRA     s:6109

      488     6088    2            ELSE IF YFIELD_HAS_REG THEN CALL MOVE (',',1) ALTRET (TOO_BIG);

   6088  1 005006   200033 234100                    SZN     YFIELD_HAS_REG,,AUTO
         1 005007   005132 605000 1                  TPL     s:6109

   6088  1 005010   000001 236000 2                  LDQ     1
         1 005011   200054 756100                    STQ     @STRING+1,,AUTO
         1 005012   000010 236000 2                  LDQ     8
         1 005013   200053 756100                    STQ     YY+2,,AUTO
         1 005014   005350 701000 1                  TSX1    MOVE
         1 005015   004301 702000 1                  TSX2    TOO_BIG
         1 005016   005132 710000 1                  TRA     s:6109

      489     6089    2       CASE (D_CDSC);      /* CLIMB extention word */

      490     6090    2          YFIELD_HAS_REG = '0'B;

   6090  1 005017   200033 450100                    STZ     YFIELD_HAS_REG,,AUTO
PL6.E3A0      #001=DDR$INSTR File=DDR$INSTR.:E05TSI                              TUE 07/29/97 14:07 Page:129

      491     6091    3          DO CASE (CLIMB1.OP);

   6091  1 005020   200004 236100                    LDQ     INSTR,,AUTO
         1 005021   000014 772000                    QRL     12
         1 005022   000003 376007                    ANQ     3,DL
         1 005023   000004 116007                    CMPQ    4,DL
         1 005024   005026 602006 1                  TNC     s:6091+6,QL
         1 005025   005132 710000 1                  TRA     s:6109
         1 005026   005032 710000 1                  TRA     s:6093
         1 005027   005106 710000 1                  TRA     s:6102
         1 005030   005115 710000 1                  TRA     s:6104
         1 005031   005124 710000 1                  TRA     s:6106

      492     6092    3            CASE (0);

      493     6093    3               IF CLIMB1.SID = 1008

   6093  1 005032   200004 236100                    LDQ     INSTR,,AUTO
         1 005033   007777 376007                    ANQ     4095,DL
         1 005034   001760 116007                    CMPQ    1008,DL
         1 005035   005045 601000 1                  TNZ     s:6095

      494     6094    3                 THEN CALL MOVE ('pmme ',5);

   6094  1 005036   000026 236000 2                  LDQ     22
         1 005037   200054 756100                    STQ     @STRING+1,,AUTO
         1 005040   000306 236000 2                  LDQ     198
         1 005041   200053 756100                    STQ     YY+2,,AUTO
         1 005042   005350 701000 1                  TSX1    MOVE
         1 005043   000000 011000                    NOP     0
         1 005044   005053 710000 1                  TRA     s:6096

      495     6095    3                 ELSE CALL MOVE ('climb ',5);

   6095  1 005045   000026 236000 2                  LDQ     22
         1 005046   200054 756100                    STQ     @STRING+1,,AUTO
PL6.E3A0      #001=DDR$INSTR File=DDR$INSTR.:E05TSI                              TUE 07/29/97 14:07 Page:130
         1 005047   000307 236000 2                  LDQ     199
         1 005050   200053 756100                    STQ     YY+2,,AUTO
         1 005051   005350 701000 1                  TSX1    MOVE
         1 005052   000000 011000                    NOP     0

      496     6096    3               REGLEN = 0;

   6096  1 005053   200025 450100                    STZ     REGLEN,,AUTO

      497     6097    3               IF CLIMB1.E

   6097  1 005054   200004 234100                    SZN     INSTR,,AUTO
         1 005055   005063 605000 1                  TPL     s:6099

      498     6098    3                 THEN REGLEN = CLIMB1.P+1;

   6098  1 005056   200004 236100                    LDQ     INSTR,,AUTO
         1 005057   000032 772000                    QRL     26
         1 005060   000777 376007                    ANQ     511,DL
         1 005061   000001 036007                    ADLQ    1,DL
         1 005062   200025 756100                    STQ     REGLEN,,AUTO

      499     6099    3               CALL DDR$BINTXT(C$,REGLEN,%UINT_FMT,SIZE);

   6099  1 005063   200024 630500                    EPPR0   SIZE,,AUTO
         1 005064   200061 450500                    STP0    @SZ+5,,AUTO
         1 005065   000003 236000 2                  LDQ     3
         1 005066   200060 756100                    STQ     @SZ+4,,AUTO
         1 005067   200025 631500                    EPPR1   REGLEN,,AUTO
         1 005070   200057 451500                    STP1    @SZ+3,,AUTO
         1 005071   200023 633500                    EPPR3   C$,,AUTO
         1 005072   200056 453500                    STP3    @SZ+2,,AUTO
         1 005073   200056 630500                    EPPR0   @SZ+2,,AUTO
         1 005074   000022 631400 xsym               EPPR1   B_VECTNIL+18
         1 005075   000000 701000 xent               TSX1    DDR$BINTXT
         1 005076   000000 011000                    NOP     0

PL6.E3A0      #001=DDR$INSTR File=DDR$INSTR.:E05TSI                              TUE 07/29/97 14:07 Page:131
      500     6100    3               CALL MOVE (CSTRING,SIZE);

   6100  1 005077   200024 630500                    EPPR0   SIZE,,AUTO
         1 005100   200054 450500                    STP0    @STRING+1,,AUTO
         1 005101   200011 631500                    EPPR1   CSTRING,,AUTO
         1 005102   200053 451500                    STP1    YY+2,,AUTO
         1 005103   005350 701000 1                  TSX1    MOVE
         1 005104   000000 011000                    NOP     0
         1 005105   005132 710000 1                  TRA     s:6109

      501     6101    3            CASE (1);

      502     6102    3              CALL MOVE ('ret',3);

   6102  1 005106   000015 236000 2                  LDQ     13
         1 005107   200054 756100                    STQ     @STRING+1,,AUTO
         1 005110   000310 236000 2                  LDQ     200
         1 005111   200053 756100                    STQ     YY+2,,AUTO
         1 005112   005350 701000 1                  TSX1    MOVE
         1 005113   000000 011000                    NOP     0
         1 005114   005132 710000 1                  TRA     s:6109

      503     6103    3            CASE (2);

      504     6104    3              CALL MOVE ('ltras',5);

   6104  1 005115   000026 236000 2                  LDQ     22
         1 005116   200054 756100                    STQ     @STRING+1,,AUTO
         1 005117   000311 236000 2                  LDQ     201
         1 005120   200053 756100                    STQ     YY+2,,AUTO
         1 005121   005350 701000 1                  TSX1    MOVE
         1 005122   000000 011000                    NOP     0
         1 005123   005132 710000 1                  TRA     s:6109

      505     6105    3            CASE (3);

      506     6106    3              CALL MOVE ('ltrad',5);
PL6.E3A0      #001=DDR$INSTR File=DDR$INSTR.:E05TSI                              TUE 07/29/97 14:07 Page:132

   6106  1 005124   000026 236000 2                  LDQ     22
         1 005125   200054 756100                    STQ     @STRING+1,,AUTO
         1 005126   000312 236000 2                  LDQ     202
         1 005127   200053 756100                    STQ     YY+2,,AUTO
         1 005130   005350 701000 1                  TSX1    MOVE
         1 005131   000000 011000                    NOP     0

      507     6107    3          END; /* do case */

      508     6108    2     END; /* case */

      509     6109    1     IF YFIELD_HAS_REG

   6109  1 005132   200033 234100                    SZN     YFIELD_HAS_REG,,AUTO
         1 005133   005145 605000 1                  TPL     s:6113

      510     6110    1       THEN
      511     6111    1          CALL MOVE (PREGS(INSTR.YFIELD.DR),4) ALTRET (TOO_BIG);

   6111  1 005134   200004 236100                    LDQ     INSTR,,AUTO
         1 005135   000041 772000                    QRL     33
         1 005136   000000 620006                    EAX0    0,QL
         1 005137   000011 236000 2                  LDQ     9
         1 005140   200054 756100                    STQ     @STRING+1,,AUTO
         1 005141   000100 630410 0                  EPPR0   PREGS,X0
         1 005142   200053 450500                    STP0    YY+2,,AUTO
         1 005143   005350 701000 1                  TSX1    MOVE
         1 005144   004301 702000 1                  TSX2    TOO_BIG

      512     6112
      513     6113    1     RETURN;

   6113  1 005145   000000 702200 xent               TSX2  ! X66_ARET

      514     6114        %EJECT;
PL6.E3A0      #001=DDR$INSTR File=DDR$INSTR.:E05TSI                              TUE 07/29/97 14:07 Page:133
      515     6115    1   MOVE_REGLEN: PROC ALTRET;

   6115  1 005146   200046 741300       MOVE_REGLEN  STX1  ! OP$TAB+3,,AUTO

      516     6116
      517     6117    2     IF SIZE_IS_REG

   6117  1 005147   200035 234100                    SZN     SIZE_IS_REG,,AUTO
         1 005150   005174 605000 1                  TPL     s:6125

      518     6118    3       THEN DO;

      519     6119    3         REGLEN = MOD (REGLEN,16);

   6119  1 005151   200025 236100                    LDQ     REGLEN,,AUTO
         1 005152   000017 376007                    ANQ     15,DL
         1 005153   200025 756100                    STQ     REGLEN,,AUTO

      520     6120    3         IF REGLEN > 0

   6120  1 005154   005165 600000 1                  TZE     s:6122

      521     6121    3           THEN CALL MOVE (TAGS(REGLEN), 3) ALTRET (NO_ROOM);

   6121  1 005155   000015 236000 2                  LDQ     13
         1 005156   200054 756100                    STQ     @STRING+1,,AUTO
         1 005157   200025 720100                    LXL0    REGLEN,,AUTO
         1 005160   000000 630410 0                  EPPR0   TAGS,X0
         1 005161   200053 450500                    STP0    YY+2,,AUTO
         1 005162   005350 701000 1                  TSX1    MOVE
         1 005163   005226 702000 1                  TSX2    NO_ROOM
         1 005164   005224 710000 1                  TRA     s:6129

      522     6122    3           ELSE CALL MOVE (',', 1) ALTRET (NO_ROOM);

   6122  1 005165   000001 236000 2                  LDQ     1
         1 005166   200054 756100                    STQ     @STRING+1,,AUTO
PL6.E3A0      #001=DDR$INSTR File=DDR$INSTR.:E05TSI                              TUE 07/29/97 14:07 Page:134
         1 005167   000010 236000 2                  LDQ     8
         1 005170   200053 756100                    STQ     YY+2,,AUTO
         1 005171   005350 701000 1                  TSX1    MOVE
         1 005172   005226 702000 1                  TSX2    NO_ROOM

      523     6123    3       END;

   6123  1 005173   005224 710000 1                  TRA     s:6129

      524     6124    3       ELSE DO;

      525     6125    3         CALL MOVE (',',1) ALTRET (NO_ROOM);

   6125  1 005174   000001 236000 2                  LDQ     1
         1 005175   200054 756100                    STQ     @STRING+1,,AUTO
         1 005176   000010 236000 2                  LDQ     8
         1 005177   200053 756100                    STQ     YY+2,,AUTO
         1 005200   005350 701000 1                  TSX1    MOVE
         1 005201   005226 702000 1                  TSX2    NO_ROOM

      526     6126    3         CALL DDR$BINTXT (C$,REGLEN,%UINT_FMT,SIZE);

   6126  1 005202   200024 630500                    EPPR0   SIZE,,AUTO
         1 005203   200061 450500                    STP0    @SZ+5,,AUTO
         1 005204   000003 236000 2                  LDQ     3
         1 005205   200060 756100                    STQ     @SZ+4,,AUTO
         1 005206   200025 631500                    EPPR1   REGLEN,,AUTO
         1 005207   200057 451500                    STP1    @SZ+3,,AUTO
         1 005210   200023 633500                    EPPR3   C$,,AUTO
         1 005211   200056 453500                    STP3    @SZ+2,,AUTO
         1 005212   200056 630500                    EPPR0   @SZ+2,,AUTO
         1 005213   000022 631400 xsym               EPPR1   B_VECTNIL+18
         1 005214   000000 701000 xent               TSX1    DDR$BINTXT
         1 005215   000000 011000                    NOP     0

      527     6127    3         CALL MOVE (CSTRING,SIZE) ALTRET (NO_ROOM);

PL6.E3A0      #001=DDR$INSTR File=DDR$INSTR.:E05TSI                              TUE 07/29/97 14:07 Page:135
   6127  1 005216   200024 630500                    EPPR0   SIZE,,AUTO
         1 005217   200054 450500                    STP0    @STRING+1,,AUTO
         1 005220   200011 631500                    EPPR1   CSTRING,,AUTO
         1 005221   200053 451500                    STP1    YY+2,,AUTO
         1 005222   005350 701000 1                  TSX1    MOVE
         1 005223   005226 702000 1                  TSX2    NO_ROOM

      528     6128    3       END;

      529     6129    2     RETURN;

   6129  1 005224   200046 221300                    LDX1  ! OP$TAB+3,,AUTO
         1 005225   000001 702211                    TSX2  ! 1,X1

      530     6130    2   NO_ROOM:
      531     6131    2     ALTRETURN;

   6131  1 005226   200046 221300       NO_ROOM      LDX1  ! OP$TAB+3,,AUTO
         1 005227   000000 702211                    TSX2  ! 0,X1

      532     6132    2   END;
      533     6133        %EJECT;
PL6.E3A0      #001=DDR$INSTR File=DDR$INSTR.:E05TSI                              TUE 07/29/97 14:07 Page:136
      534     6134    1   DO_MF: PROC (P_MF);

   6134  1 005230   200046 741300       DO_MF        STX1  ! OP$TAB+3,,AUTO

      535     6135
      536     6136    2   DCL P_MF BIT(7) UNAL;
      537     6137    2   DCL 1 MF ALIGNED,
      538     6138    2         2 AR BIT(1) UNAL,
      539     6139    2         2 RL BIT(1) UNAL,
      540     6140    2         2 ID BIT(1) UNAL,
      541     6141    2         2 REG UBIN(4) UNAL,
      542     6142    2         2 * BIT(29);
      543     6143    2   DCL 1 AFTER_AR REDEF MF,
      544     6144    2         2 * BIT(1),
      545     6145    2         2 X BIT(6),
      546     6146    2         2 * BIT(29);
      547     6147    2   DCL 1 AFTER_RL REDEF MF,
      548     6148    2         2 * BIT(2),
      549     6149    2         2 X BIT(5),
      550     6150    2         2 * BIT(29);
      551     6151    2   DCL REGT(0:15) CHAR(4) CONSTANT INIT(')', ',AU)', 'QU)', ',.3)',
      552     6152    2                                      ',IC)', ',A)', ',Q)', ',.7)',
      553     6153    2                                      ',X0)', ',X1)', ',X2)', ',X3)',
      554     6154    2                                      ',X4)', ',X5)', ',X6)', ',X7)');
      555     6155
      556     6156    2        MF = P_MF;

   6156  1 005231   200047 470500                    LDP0    @P_MF,,AUTO
         1 005232   003100 060500                    CSL     bolr='003'O
         1 005233   000000 000007                    BDSC    0,,PR0                   by=0,bit=0,n=7
         1 005234   200050 000044                    BDSC    MF,,AUTO                 by=0,bit=0,n=36

      557     6157    2        CALL MOVE ('(',1);

   6157  1 005235   000001 236000 2                  LDQ     1
         1 005236   200054 756100                    STQ     @STRING+1,,AUTO
         1 005237   000314 236000 2                  LDQ     204
PL6.E3A0      #001=DDR$INSTR File=DDR$INSTR.:E05TSI                              TUE 07/29/97 14:07 Page:137
         1 005240   200053 756100                    STQ     YY+2,,AUTO
         1 005241   005350 701000 1                  TSX1    MOVE
         1 005242   000000 011000                    NOP     0

      558     6158    2        IF MF.AR THEN CALL MOVE('AR',2);

   6158  1 005243   200050 234100                    SZN     MF,,AUTO
         1 005244   005253 605000 1                  TPL     s:6159

   6158  1 005245   000003 236000 2                  LDQ     3
         1 005246   200054 756100                    STQ     @STRING+1,,AUTO
         1 005247   000305 236000 2                  LDQ     197
         1 005250   200053 756100                    STQ     YY+2,,AUTO
         1 005251   005350 701000 1                  TSX1    MOVE
         1 005252   000000 011000                    NOP     0

      559     6159    2        IF AFTER_AR.X THEN CALL MOVE (',',1);

   6159  1 005253   200050 236100                    LDQ     MF,,AUTO
         1 005254   374000 316003                    CANQ    129024,DU
         1 005255   005264 600000 1                  TZE     s:6160

   6159  1 005256   000001 236000 2                  LDQ     1
         1 005257   200054 756100                    STQ     @STRING+1,,AUTO
         1 005260   000010 236000 2                  LDQ     8
         1 005261   200053 756100                    STQ     YY+2,,AUTO
         1 005262   005350 701000 1                  TSX1    MOVE
         1 005263   000000 011000                    NOP     0

      560     6160    2        IF MF.RL THEN CALL MOVE('RL',2);

   6160  1 005264   200050 236100                    LDQ     MF,,AUTO
         1 005265   200000 316003                    CANQ    65536,DU
         1 005266   005275 600000 1                  TZE     s:6161

   6160  1 005267   000003 236000 2                  LDQ     3
         1 005270   200054 756100                    STQ     @STRING+1,,AUTO
PL6.E3A0      #001=DDR$INSTR File=DDR$INSTR.:E05TSI                              TUE 07/29/97 14:07 Page:138
         1 005271   000315 236000 2                  LDQ     205
         1 005272   200053 756100                    STQ     YY+2,,AUTO
         1 005273   005350 701000 1                  TSX1    MOVE
         1 005274   000000 011000                    NOP     0

      561     6161    2        IF AFTER_RL.X THEN CALL MOVE (',',1);

   6161  1 005275   200050 236100                    LDQ     MF,,AUTO
         1 005276   174000 316003                    CANQ    63488,DU
         1 005277   005306 600000 1                  TZE     s:6162

   6161  1 005300   000001 236000 2                  LDQ     1
         1 005301   200054 756100                    STQ     @STRING+1,,AUTO
         1 005302   000010 236000 2                  LDQ     8
         1 005303   200053 756100                    STQ     YY+2,,AUTO
         1 005304   005350 701000 1                  TSX1    MOVE
         1 005305   000000 011000                    NOP     0

      562     6162    2        IF MF.ID THEN CALL MOVE('ID',2);

   6162  1 005306   200050 236100                    LDQ     MF,,AUTO
         1 005307   100000 316003                    CANQ    32768,DU
         1 005310   005317 600000 1                  TZE     s:6163

   6162  1 005311   000003 236000 2                  LDQ     3
         1 005312   200054 756100                    STQ     @STRING+1,,AUTO
         1 005313   000316 236000 2                  LDQ     206
         1 005314   200053 756100                    STQ     YY+2,,AUTO
         1 005315   005350 701000 1                  TSX1    MOVE
         1 005316   000000 011000                    NOP     0

      563     6163    2        CALL INDEX (SIZE, ' ', REGT(MF.REG));

   6163  1 005317   200050 236100                    LDQ     MF,,AUTO
         1 005320   000035 772000                    QRL     29
         1 005321   000017 376007                    ANQ     15,DL
         1 005322   000002 736000                    QLS     2
PL6.E3A0      #001=DDR$INSTR File=DDR$INSTR.:E05TSI                              TUE 07/29/97 14:07 Page:139
         1 005323   000000 124406                    SCM     mask='000'O
         1 005324   000130 000004 0                  ADSC9   REGT,Q                   cn=0,n=4
         1 005325   000035 000001 xsym               ADSC9   B_VECTNIL+29             cn=0,n=1
         1 005326   200024 000100                    ARG     SIZE,,AUTO

      564     6164    2        CALL MOVE(REGT(MF.REG),SIZE);

   6164  1 005327   200050 236100                    LDQ     MF,,AUTO
         1 005330   000035 772000                    QRL     29
         1 005331   000017 376007                    ANQ     15,DL
         1 005332   200024 630500                    EPPR0   SIZE,,AUTO
         1 005333   200054 450500                    STP0    @STRING+1,,AUTO
         1 005334   000130 631406 0                  EPPR1   REGT,QL
         1 005335   200053 451500                    STP1    YY+2,,AUTO
         1 005336   005350 701000 1                  TSX1    MOVE
         1 005337   000000 011000                    NOP     0

      565     6165    2        CALL MOVE (',',1);

   6165  1 005340   000001 236000 2                  LDQ     1
         1 005341   200054 756100                    STQ     @STRING+1,,AUTO
         1 005342   000010 236000 2                  LDQ     8
         1 005343   200053 756100                    STQ     YY+2,,AUTO
         1 005344   005350 701000 1                  TSX1    MOVE
         1 005345   000000 011000                    NOP     0

      566     6166    2        RETURN;

   6166  1 005346   200046 221300                    LDX1  ! OP$TAB+3,,AUTO
         1 005347   000001 702211                    TSX2  ! 1,X1

      567     6167
      568     6168    2   END DO_MF;
      569     6169        %EJECT;
PL6.E3A0      #001=DDR$INSTR File=DDR$INSTR.:E05TSI                              TUE 07/29/97 14:07 Page:140
      570     6170    1   MOVE: PROC(STRING,SZ) ALTRET;

   6170  1 005350   200052 741300       MOVE         STX1  ! YY+1,,AUTO

      571     6171    2   DCL SZ SBIN;
      572     6172    2   DCL STRING CHAR(SZ);
      573     6173    2   DCL BUFFER CHAR(SZ) BASED;
      574     6174                                 /* Will this new string exceed maximum buffer size ? */
      575     6175    2        FSS = FSS+SZ;

   6175  1 005351   200054 470500                    LDP0    @SZ,,AUTO
         1 005352   200005 236100                    LDQ     FSS,,AUTO
         1 005353   000000 036100                    ADLQ    0,,PR0
         1 005354   200005 756100                    STQ     FSS,,AUTO

      576     6176    2        IF FSS > BUF_LENGTH THEN ALTRETURN;

   6176  1 005355   200006 116100                    CMPQ    BUF_LENGTH,,AUTO
         1 005356   005360 604400 1                  TMOZ    s:6178

   6176  1 005357   000000 702211                    TSX2  ! 0,X1

      577     6177                                                /* No.  Move it                       */
      578     6178    2        S_D.D$->BUFFER = STRING;

   6178  1 005360   000000 471400 xsym               LDP1    S_D$
         1 005361   100044 473500                    LDP3    36,,PR1
         1 005362   000000 720100                    LXL0    0,,PR0
         1 005363   200053 474500                    LDP4    @STRING,,AUTO
         1 005364   040140 100540                    MLR     fill='040'O
         1 005365   400000 000010                    ADSC9   0,,PR4                   cn=0,n=*X0
         1 005366   300000 000010                    ADSC9   0,,PR3                   cn=0,n=*X0

      579     6179    2        S_D.D$ = PINCRC(S_D.D$,SZ);

   6179  1 005367   000000 236100                    LDQ     0,,PR0
         1 005370   100044 473500                    LDP3    36,,PR1
PL6.E3A0      #001=DDR$INSTR File=DDR$INSTR.:E05TSI                              TUE 07/29/97 14:07 Page:141
         1 005371   000011 402007                    MPY     9,DL
         1 005372   000000 116003                    CMPQ    0,DU
         1 005373   005375 605000 1                  TPL     s:6179+6
         1 005374   000044 036003                    ADLQ    36,DU
         1 005375   300000 503506                    ABD     0,QL,PR3
         1 005376   100044 453500                    STP3    36,,PR1

      580     6180    2        RETURN;

   6180  1 005377   200052 221300                    LDX1  ! YY+1,,AUTO
         1 005400   000001 702211                    TSX2  ! 1,X1

      581     6181                       /* Put out the yfield symbolically if it will fit in the buffer.
      582     6182                          altreturn if not.  */
      583     6183    2   END MOVE;
      584     6184        %EJECT;
PL6.E3A0      #001=DDR$INSTR File=DDR$INSTR.:E05TSI                              TUE 07/29/97 14:07 Page:142
      585     6185        /*** SYMBOLIC_YFIELD: takes the Y field from INSTR, and outputs it.
      586     6186         ***   if YFIELD_HAS_REG, top 3 bits are a register, so use octal.
      587     6187         ***   if YFIELD_IN_OCTAL, don't try to output as ENTDEF+xx.
      588     6188         ***/
      589     6189    1   SYMBOLIC_YFIELD: PROC ALTRET;

   6189  1 005401   200046 741300       SYMBOLIC_YF* STX1  ! OP$TAB+3,,AUTO

      590     6190    2   DCL SAVE_EWSQ# UBIN;
      591     6191    2   DCL MSS SBIN;
      592     6192    2   DCL YY SBIN;
      593     6193    2   DCL DDR$POSIT ENTRY(5) ALTRET;
      594     6194
      595     6195                            /* Save schema state.  Set schema state to 'NO SCHEMA' in
      596     6196                               order to force DDR$POSIT to return ENTDEF+offset. */
      597     6197    2        SAVE_EWSQ# = S_D.EWSQ#;

   6197  1 005402   000000 470400 xsym               LDP0    S_D$
         1 005403   000011 235100                    LDA     9,,PR0
         1 005404   200047 755100                    STA     SAVE_EWSQ#,,AUTO

      598     6198
      599     6199    2        YY = INSTR.Y;

   6199  1 005405   200004 236100                    LDQ     INSTR,,AUTO
         1 005406   000022 772000                    QRL     18
         1 005407   200051 756100                    STQ     YY,,AUTO

      600     6200    2        IF YFIELD_HAS_REG

   6200  1 005410   200033 234100                    SZN     YFIELD_HAS_REG,,AUTO
         1 005411   005417 605000 1                  TPL     s:6205

      601     6201    3          THEN DO;

      602     6202    3            YY = INSTR.YFIELD.YY;

PL6.E3A0      #001=DDR$INSTR File=DDR$INSTR.:E05TSI                              TUE 07/29/97 14:07 Page:143
   6202  1 005412   200004 236100                    LDQ     INSTR,,AUTO
         1 005413   000003 736000                    QLS     3
         1 005414   000025 732000                    QRS     21
         1 005415   200051 756100                    STQ     YY,,AUTO

      603     6203    3            GOTO OCTAL_YFIELD;

   6203  1 005416   005465 710000 1                  TRA     OCTAL_YFIELD

      604     6204    3          END;
      605     6205    2        IF YFIELD_IN_OCTAL THEN GOTO OCTAL_YFIELD;

   6205  1 005417   200034 234100                    SZN     YFIELD_IN_OCTAL,,AUTO
         1 005420   005465 604000 1                  TMI     OCTAL_YFIELD

      606     6206                                                /* Compute maximum string size        */
      607     6207    2        MSS = POFFC(S_D.DESCL$,S_D.D$);

   6207  1 005421   000044 236100                    LDQ     36,,PR0
         1 005422   000020 772000                    QRL     16
         1 005423   200056 756100                    STQ     @SZ+2,,AUTO
         1 005424   000042 236100                    LDQ     34,,PR0
         1 005425   000020 772000                    QRL     16
         1 005426   200056 136100                    SBLQ    @SZ+2,,AUTO
         1 005427   200050 756100                    STQ     MSS,,AUTO

      608     6208    2        CALL DDR$POSIT(YY,S_D.D$,MSS,SIZE) ALTRET(OCTAL_YFIELD);

   6208  1 005430   200024 631500                    EPPR1   SIZE,,AUTO
         1 005431   200061 451500                    STP1    @SZ+5,,AUTO
         1 005432   200050 633500                    EPPR3   MSS,,AUTO
         1 005433   200060 453500                    STP3    @SZ+4,,AUTO
         1 005434   000000 236000 xsym               LDQ     S_D$
         1 005435   000044 036003                    ADLQ    36,DU
         1 005436   200057 756100                    STQ     @SZ+3,,AUTO
         1 005437   200051 634500                    EPPR4   YY,,AUTO
         1 005440   200056 454500                    STP4    @SZ+2,,AUTO
PL6.E3A0      #001=DDR$INSTR File=DDR$INSTR.:E05TSI                              TUE 07/29/97 14:07 Page:144
         1 005441   200056 630500                    EPPR0   @SZ+2,,AUTO
         1 005442   000022 631400 xsym               EPPR1   B_VECTNIL+18
         1 005443   000000 701000 xent               TSX1    DDR$POSIT
         1 005444   005465 702000 1                  TSX2    OCTAL_YFIELD

      609     6209    2        S_D.D$ = PINCRC(S_D.D$,SIZE);

   6209  1 005445   000000 470400 xsym               LDP0    S_D$
         1 005446   000044 471500                    LDP1    36,,PR0
         1 005447   200024 236100                    LDQ     SIZE,,AUTO
         1 005450   000011 402007                    MPY     9,DL
         1 005451   000000 116003                    CMPQ    0,DU
         1 005452   005454 605000 1                  TPL     s:6209+7
         1 005453   000044 036003                    ADLQ    36,DU
         1 005454   100000 503506                    ABD     0,QL,PR1
         1 005455   000044 451500                    STP1    36,,PR0

      610     6210    2        FSS = FSS + SIZE;

   6210  1 005456   200005 236100                    LDQ     FSS,,AUTO
         1 005457   200024 036100                    ADLQ    SIZE,,AUTO
         1 005460   200005 756100                    STQ     FSS,,AUTO

      611     6211                                                /* Restore old schema state           */
      612     6212    2        S_D.EWSQ# = SAVE_EWSQ#;

   6212  1 005461   200047 235100                    LDA     SAVE_EWSQ#,,AUTO
         1 005462   000011 755100                    STA     9,,PR0

      613     6213    2        RETURN;

   6213  1 005463   200046 221300                    LDX1  ! OP$TAB+3,,AUTO
         1 005464   000001 702211                    TSX2  ! 1,X1

   6212  1 005465                       OCTAL_YFIELD null
      614     6214
      615     6215    2   OCTAL_YFIELD:;
PL6.E3A0      #001=DDR$INSTR File=DDR$INSTR.:E05TSI                              TUE 07/29/97 14:07 Page:145
      616     6216    2        S_D.EWSQ# = SAVE_EWSQ#;

   6216  1 005465   200047 235100                    LDA     SAVE_EWSQ#,,AUTO
         1 005466   000000 470400 xsym               LDP0    S_D$
         1 005467   000011 755100                    STA     9,,PR0

      617     6217    2        CALL DDR$BINTXT(C$,YY,%OCT_FMT,SIZE);

   6217  1 005470   200024 631500                    EPPR1   SIZE,,AUTO
         1 005471   200061 451500                    STP1    @SZ+5,,AUTO
         1 005472   000001 236000 2                  LDQ     1
         1 005473   200060 756100                    STQ     @SZ+4,,AUTO
         1 005474   200051 633500                    EPPR3   YY,,AUTO
         1 005475   200057 453500                    STP3    @SZ+3,,AUTO
         1 005476   200023 634500                    EPPR4   C$,,AUTO
         1 005477   200056 454500                    STP4    @SZ+2,,AUTO
         1 005500   200056 630500                    EPPR0   @SZ+2,,AUTO
         1 005501   000022 631400 xsym               EPPR1   B_VECTNIL+18
         1 005502   000000 701000 xent               TSX1    DDR$BINTXT
         1 005503   000000 011000                    NOP     0

      618     6218    2        CALL MOVE (CSTRING,SIZE) ALTRET (NO_ROOM);

   6218  1 005504   200024 630500                    EPPR0   SIZE,,AUTO
         1 005505   200054 450500                    STP0    @SZ,,AUTO
         1 005506   200011 631500                    EPPR1   CSTRING,,AUTO
         1 005507   200053 451500                    STP1    @STRING,,AUTO
         1 005510   005350 701000 1                  TSX1    MOVE
         1 005511   005514 702000 1                  TSX2    NO_ROOM

      619     6219    2        RETURN;

   6219  1 005512   200046 221300                    LDX1  ! OP$TAB+3,,AUTO
         1 005513   000001 702211                    TSX2  ! 1,X1

   6216  1 005514                       NO_ROOM      null
      620     6220
PL6.E3A0      #001=DDR$INSTR File=DDR$INSTR.:E05TSI                              TUE 07/29/97 14:07 Page:146
      621     6221    2   NO_ROOM:;
      622     6222    2        ALTRETURN;

   6222  1 005514   200046 221300                    LDX1  ! OP$TAB+3,,AUTO
         1 005515   000000 702211                    TSX2  ! 0,X1

TAGS
 Sect OctLoc
   0     000   040040 040040   054101 125040   054121 125040   054104 125040        ,AU ,QU ,DU
   0     004   054111 103040   054101 114040   054121 114040   054104 114040    ,IC ,AL ,QL ,DL
   0     010   054130 060040   054130 061040   054130 062040   054130 063040    ,X0 ,X1 ,X2 ,X3
   0     014   054130 064040   054130 065040   054130 066040   054130 067040    ,X4 ,X5 ,X6 ,X7
   0     020   054116 052040   054101 125052   054121 125052   054056 062063    ,N* ,AU*,QU*,.23
   0     024   054111 103052   054101 114052   054121 114052   054056 062067    ,IC*,AL*,QL*,.27
   0     030   054130 060052   054130 061052   054130 062052   054130 063052    ,X0*,X1*,X2*,X3*
   0     034   054130 064052   054130 065052   054130 066052   054130 067052    ,X4*,X5*,X6*,X7*
   0     040   054106 040040   054056 064061   054056 064062   054056 064063    ,F  ,.41,.42,.43
   0     044   054123 104040   054123 103122   054056 064066   054056 064067    ,SD ,SCR,.46,.47
   0     050   054103 111040   054111 040040   054123 103040   054101 104040    ,CI ,I  ,SC ,AD
   0     054   054104 111040   054104 111103   054111 104040   054111 104103    ,DI ,DIC,ID ,IDC
   0     060   054052 116040   054052 101125   054052 121125   054052 104125    ,*N ,*AU,*QU,*DU
   0     064   054052 111103   054052 101114   054052 121114   054052 104114    ,*IC,*AL,*QL,*DL
   0     070   054052 130060   054052 130061   054052 130062   054052 130063    ,*X0,*X1,*X2,*X3
   0     074   054052 130064   054052 130065   054052 130066   054052 130067    ,*X4,*X5,*X6,*X7

PREGS
 Sect OctLoc
   0     100   054120 122060   054120 122061   054120 122062   054120 122063    ,PR0,PR1,PR2,PR3
   0     104   054120 122064   054120 122065   054120 122066   054120 122067    ,PR4,PR5,PR6,PR7

EISTAG
 Sect OctLoc
   0     110   071040 040040   066040 040040   064040 040040   170040 040040    9   6   4   x

SDSC_SIZE
 Sect OctLoc
   0     114   071040 040040   070040 040040                                    9   8
PL6.E3A0      #001=DDR$INSTR File=DDR$INSTR.:E05TSI                              TUE 07/29/97 14:07 Page:147

NDSC_SIZE
 Sect OctLoc
   0     116   071040 040040   064040 040040                                    9   4

BINTOCHAR
 Sect OctLoc
   0     120   054060 054040   054061 054040   054062 054040   054063 054040    ,0, ,1, ,2, ,3,
   0     124   054064 054040   054065 054040   054066 054040   054067 054040    ,4, ,5, ,6, ,7,

REGT
 Sect OctLoc
   0     130   051040 040040   054101 125051   121125 051040   054056 063051    )   ,AU)QU) ,.3)
   0     134   054111 103051   054101 051040   054121 051040   054056 067051    ,IC),A) ,Q) ,.7)
   0     140   054130 060051   054130 061051   054130 062051   054130 063051    ,X0),X1),X2),X3)
   0     144   054130 064051   054130 065051   054130 066051   054130 067051    ,X4),X5),X6),X7)

(unnamed)
 Sect OctLoc
   0     150   041040 040040   054056 040040   122104 054040   060054 040040    !   ,.  RD, 0,
   0     154   120054 040040   106054 040040   124054 040040   141154 164054    P,  F,  T,  alt,
   0     160   115044 105130   111124 040040   115044 105122   122040 040040    M$EXIT  M$ERR
   0     164   115044 130130   130040 040040   115044 117114   101131 040040    M$XXX   M$OLAY
   0     170   115044 114111   116113 040040   115044 114104   124122 103040    M$LINK  M$LDTRC
   0     174   115044 101114   111102 040040   115044 104114   111102 040040    M$ALIB  M$DLIB
   0     200   115044 131103   115044 103120   105130 111124   115044 123103    M$YCM$CPEXITM$SC
   0     204   122105 105103   110040 040040   115044 106123   125123 105122    REECH   M$FSUSER
   0     210   115044 101123   125123 105122   115044 104123   125123 105122    M$ASUSERM$DSUSER
   0     214   115044 123101   126105 040040   115044 123103   117116 040040    M$SAVE  M$SCON
   0     220   115044 111116   124122 124116   115044 130103   117116 122124    M$INTRTNM$XCONRT
   0     224   116040 040040   115044 120122   117103 116101   115105 040040    N   M$PROCNAME
   0     230   115044 106111   116104 120122   117103 040040   115044 125116    M$FINDPROC  M$UN
   0     234   123110 101122   105040 040040   115044 101103   103124 040040    SHARE   M$ACCT
   0     240   115044 123124   111115 105122   115044 105126   105116 124040    M$STIMERM$EVENT
   0     244   115044 124122   101120 040040   115044 123124   122101 120040    M$TRAP  M$STRAP
   0     250   115044 124124   111115 105122   115044 115105   122103 040040    M$TTIMERM$MERC
   0     254   115044 122105   124122 131040   115044 123105   116126 040040    M$RETRY M$SENV
PL6.E3A0      #001=DDR$INSTR File=DDR$INSTR.:E05TSI                              TUE 07/29/97 14:07 Page:148
   0     260   115044 124122   124116 040040   115044 103114   122123 124113    M$TRTN  M$CLRSTK
   0     264   115044 115105   122103 123040   115044 122105   124122 131123    M$MERCS M$RETRYS
   0     270   115044 122105   116126 040040   115044 104122   124116 040040    M$RENV  M$DRTN
   0     274   115044 105122   122115 123107   115044 106111   104040 040040    M$ERRMSGM$FID
   0     300   115044 105116   121040 040040   115044 104105   121040 040040    M$ENQ   M$DEQ
   0     304   115044 124111   115105 040040   115044 116130   124125 123122    M$TIME  M$NXTUSR
   0     310   115044 127101   111124 040040   115044 104111   123120 114101    M$WAIT  M$DISPLA
   0     314   131040 040040   115044 123124   101124 105040   115044 130105    Y   M$STATE M$XE
   0     320   121124 111115   105040 040040   115044 123120   122111 126040    QTIME   M$SPRIV
   0     324   115044 122120   122111 126040   115044 123123   127111 124103    M$RPRIV M$SSWITC
   0     330   110040 040040   115044 122123   127111 124103   110040 040040    H   M$RSWITCH
   0     334   115044 103110   107125 116111   124040 040040   115044 125123    M$CHGUNIT   M$US
   0     340   122106 111105   114104 040040   115044 122125   105040 040040    RFIELD  M$RUE
   0     344   115044 125116   106111 104040   115044 107112   117102 040040    M$UNFID M$GJOB
   0     350   115044 115117   116111 116106   117040 040040   115044 110105    M$MONINFO   M$HE
   0     354   114120 040040   115044 103115   104126 101122   115044 123131    LP  M$CMDVARM$SY
   0     360   123111 104040   115044 115101   113125 123105   122040 040040    SID M$MAKUSER
   0     364   115044 107104   123040 040040   115044 106104   123040 040040    M$GDS   M$FDS
   0     370   115044 107104   120040 040040   115044 106104   120040 040040    M$GDP   M$FDP
   0     374   115044 107126   120040 040040   115044 106126   120040 040040    M$GVP   M$FVP
   0     400   115044 123124   114120 120040   115044 122123   120120 040040    M$STLPP M$RSPP
   0     404   115044 103126   115040 040040   115044 123115   120122 124040    M$CVM   M$SMPRT
   0     410   115044 123123   103040 040040   115044 107104   104114 040040    M$SSC   M$GDDL
   0     414   115044 123101   104040 040040   115044 123124   104040 040040    M$SAD   M$STD
   0     420   115044 102101   104120 120040   115044 107117   117104 120120    M$BADPP M$GOODPP
   0     424   115044 107102   120114 040040   115044 115120   114040 040040    M$GBPL  M$MPL
   0     430   115044 125115   120114 040040   115044 120104   123040 040040    M$UMPL  M$PDS
   0     434   115044 120101   123040 040040   115044 122105   101104 040040    M$PAS   M$READ
   0     440   115044 127122   111124 105040   115044 104105   114122 105103    M$WRITE M$DELREC
   0     444   115044 120122   105103 117122   104040 040040   115044 120106    M$PRECORD   M$PF
   0     450   111114 040040   115044 105130   124105 116104   115044 122105    IL  M$EXTENDM$RE
   0     454   127040 040040   115044 127105   117106 040040   115044 117120    W   M$WEOF  M$OP
   0     460   105116 040040   115044 103114   117123 105040   115044 103110    EN  M$CLOSE M$CH
   0     464   105103 113040   115044 124122   125116 103040   115044 103126    ECK M$TRUNC M$CV
   0     470   117114 040040   115044 114111   116105 123040   115044 104105    OL  M$LINES M$DE
   0     474   126111 103105   115044 103117   122122 105123   115044 123105    VICEM$CORRESM$SE
   0     500   124106 115101   115044 107105   124104 103102   115044 122105    TFMAM$GETDCBM$RE
PL6.E3A0      #001=DDR$INSTR File=DDR$INSTR.:E05TSI                              TUE 07/29/97 14:07 Page:149
   0     504   114104 103102   115044 114104   105126 040040   115044 115101    LDCBM$LDEV  M$MA
   0     510   104115 125103   113040 040040   115044 122105   115040 040040    DMUCK   M$REM
   0     514   115044 130106   114125 123110   115044 122105   114123 124101    M$XFLUSHM$RELSTA
   0     520   122106 040040   115044 122104   123131 123114   117107 040040    RF  M$RDSYSLOG
   0     524   115044 127122   123131 123114   117107 040040   115044 124104    M$WRSYSLOG  M$TD
   0     530   117120 105116   115044 124104   103114 117123   105040 040040    OPENM$TDCLOSE
   0     534   115044 124104   111117 040040   115044 124104   122105 121103    M$TDIO  M$TDREQC
   0     540   120125 040040   115044 111117   121040 040040   115044 123131    PU  M$IOQ   M$SY
   0     544   123103 117116   115044 101103   124111 126101   124105 040040    SCONM$ACTIVATE
   0     550   115044 104105   101103 124111   126101 124105   115044 125116    M$DEACTIVATEM$UN
   0     554   114101 124103   110040 040040   115044 103107   103124 114040    LATCH   M$CGCTL
   0     560   115044 103107   111116 106117   115044 106127   103107 040040    M$CGINFOM$FWCG
   0     564   115044 124105   115120 127122   117103 040040   115044 113105    M$TEMPWROC  M$KE
   0     570   131111 116040   115044 117103   115123 107040   115044 120101    YIN M$OCMSG M$PA
   0     574   124110 103117   116040 040040   115044 105130   110125 115105    THCON   M$EXHUME
   0     600   115044 123115   117125 123105   115044 130115   117125 123105    M$SMOUSEM$XMOUSE
   0     604   115044 107105   124115 117125   123105 040040   115044 107105    M$GETMOUSE  M$GE
   0     610   124120 115040   115044 114111   115111 124040   115044 115102    TPM M$LIMIT M$MB
   0     614   123040 040040   115044 104111   123120 122105   123040 040040    S   M$DISPRES
   0     620   115044 122105   114122 105123   115044 122105   121125 111122    M$RELRESM$REQUIR
   0     624   105040 040040   115044 122101   103123 124040   115044 123124    E   M$RACST M$ST
   0     630   122115 103124   114040 040040   115044 107124   122115 103124    RMCTL   M$GTRMCT
   0     634   114040 040040   115044 120122   117115 120124   115044 105117    L   M$PROMPTM$EO
   0     640   115040 040040   115044 124122   115120 122107   115044 107114    M   M$TRMPRGM$GL
   0     644   111116 105101   124124 122040   115044 123124   122115 101124    INEATTR M$STRMAT
   0     650   124122 040040   115044 107124   122115 101124   124122 040040    TR  M$GTRMATTR
   0     654   115044 120114   101124 105116   115044 123124   122115 124101    M$PLATENM$STRMTA
   0     660   102040 040040   115044 107124   122115 124101   102040 040040    B   M$GTRMTAB
   0     664   115044 123111   116120 125124   115044 120122   117106 111114    M$SINPUTM$PROFIL
   0     670   105040 040040   115044 106105   102117 117124   115044 106105    E   M$FEBOOTM$FE
   0     674   104125 115120   115044 106105   103124 114040   115044 124122    DUMPM$FECTL M$TR
   0     700   115111 123103   115044 123105   124106 120040   115044 104122    MISCM$SETFP M$DR
   0     704   111102 102114   105040 040040   115044 103117   116106 111107    IBBLE   M$CONFIG
   0     710   115044 104103   114106 114104   115044 105122   101123 105040    M$DCLFLDM$ERASE
   0     714   115044 115104   106106 114104   115044 122114   123106 114104    M$MDFFLDM$RLSFLD
   0     720   115044 123114   103106 114104   115044 116117   104105 111116    M$SLCFLDM$NODEIN
   0     724   106117 040040   115044 107120   122117 115120   124040 040040    FO  M$GPROMPT
PL6.E3A0      #001=DDR$INSTR File=DDR$INSTR.:E05TSI                              TUE 07/29/97 14:07 Page:150
   0     730   115044 123131   115102 111117   115044 112117   102123 124101    M$SYMBIOM$JOBSTA
   0     734   124123 040040   101104 123103   102104 123103   040040 040040    TS  ADSCBDSC
   0     740   116104 123103   123104 123103   126104 123103   040040 040040    NDSCSDSCVDSC
   0     744   101122 107040   160155 155145   040040 040040   143154 151155    ARG pmme    clim
   0     750   142040 040040   162145 164040   154164 162141   163040 040040    b   ret ltras
   0     754   154164 162141   144040 040040   122114 040040   111104 040040    ltrad   RL  ID

(unnamed)
 Sect OctLoc
   2     000   130040 040040   000003 006000   000000 006000   000004 006000    X   ............
   2     004   000150 006000   000035 006000   000040 040040   054040 040040    .h.......   ,
   2     010   000007 006000   000006 006000   000004 620000   000004 220000    ................
   2     014   000004 020000   000005 006000   000152 006000   000153 006000    .........j...k..
   2     020   000154 006000   000155 006000   000156 006000   000157 006000    .l...m...n...o..
   2     024   000010 006000   000160 006000   000007 006000   000162 006000    .....p.......r..
   2     030   000164 006000   000166 006000   000170 006000   000011 006000    .t...v...x......
   2     034   000172 006000   000174 006000   000176 006000   000200 006000    .z...|...~......
   2     040   000012 006000   000201 006000   000013 006000   000203 006000    ................
   2     044   000206 006000   000210 006000   000212 006000   000214 006000    ................
   2     050   000216 006000   000220 006000   000222 006000   000014 006000    ................
   2     054   000225 006000   000230 006000   000233 006000   000236 006000    ................
   2     060   000240 006000   000242 006000   000244 006000   000246 006000    ................
   2     064   000250 006000   000252 006000   000254 006000   000256 006000    ................
   2     070   000260 006000   000262 006000   000264 006000   000266 006000    ................
   2     074   000270 006000   000272 006000   000274 006000   000276 006000    ................
   2     100   000300 006000   000302 006000   000304 006000   000306 006000    ................
   2     104   000310 006000   000312 006000   000315 006000   000317 006000    ................
   2     110   000322 006000   000324 006000   000326 006000   000331 006000    ................
   2     114   000334 006000   000337 006000   000342 006000   000344 006000    ................
   2     120   000346 006000   000350 006000   000353 006000   000355 006000    ................
   2     124   000357 006000   000361 006000   000364 006000   000366 006000    ................
   2     130   000370 006000   000372 006000   000374 006000   000376 006000    ................
   2     134   000400 006000   000402 006000   000404 006000   000406 006000    ................
   2     140   000410 006000   000412 006000   000414 006000   000416 006000    ................
   2     144   000420 006000   000422 006000   000424 006000   000426 006000    ................
   2     150   000430 006000   000432 006000   000434 006000   000436 006000    ................
   2     154   000440 006000   000442 006000   000444 006000   000447 006000    ................
PL6.E3A0      #001=DDR$INSTR File=DDR$INSTR.:E05TSI                              TUE 07/29/97 14:07 Page:151
   2     160   000451 006000   000453 006000   000455 006000   000457 006000    ................
   2     164   000461 006000   000463 006000   000465 006000   000467 006000    ................
   2     170   000471 006000   000473 006000   000475 006000   000477 006000    ................
   2     174   000501 006000   000503 006000   000505 006000   000507 006000    ................
   2     200   000512 006000   000514 006000   000516 006000   000521 006000    ................
   2     204   000524 006000   000527 006000   000531 006000   000534 006000    ................
   2     210   000536 006000   000541 006000   000543 006000   000545 006000    ................
   2     214   000000 000014   000214 006000   000550 006000   000553 006000    ................
   2     220   000556 006000   000560 006000   000562 006000   000564 006000    ................
   2     224   000567 006000   000571 006000   000573 006000   000576 006000    ................
   2     230   000600 006000   000602 006000   000604 006000   000607 006000    ................
   2     234   000611 006000   000613 006000   000615 006000   000620 006000    ................
   2     240   000622 006000   000625 006000   000627 006000   000632 006000    ................
   2     244   000635 006000   000637 006000   000641 006000   000015 006000    ................
   2     250   000643 006000   000646 006000   000651 006000   000654 006000    ................
   2     254   000656 006000   000661 006000   000664 006000   000666 006000    ................
   2     260   000671 006000   000673 006000   000675 006000   000677 006000    ................
   2     264   000701 006000   000703 006000   000706 006000   000710 006000    ................
   2     270   000712 006000   000714 006000   000716 006000   000720 006000    ................
   2     274   000722 006000   000725 006000   000730 006000   000732 006000    ................
   2     300   000735 006000   000736 006000   000740 006000   000741 006000    ................
   2     304   000742 006000   000744 006000   000745 006000   000747 006000    ................
   2     310   000751 006000   000752 006000   000754 006000   050040 040040    ............(
   2     314   000313 006000   000756 006000   000757 006000                    ............
      623     6223    2   END SYMBOLIC_YFIELD;
      624     6224    1   END DDR$INSTR;

PL6.E3A0      #001=DDR$INSTR File=DDR$INSTR.:E05TSI                              TUE 07/29/97 14:07 Page:152
--  Include file information  --

   DD_SRTN_C.:E05TOU  is referenced.
   DD_ACODE_C.:E05TOU  is referenced.
   DD_ICODE_C.:E05TOU  is referenced.
   DD$DITEM.:E05TOU  cannot be made into a system file and is referenced.
   B_STRINGS_C.:E05TOU  is referenced.
   DD_SUBS_C.:E05TOU  is referenced.
   DD_ERR_C.:E05TOU  is referenced.
   DD_SD_M.:E05TOU  is referenced.
   XUH_MACRO_C.:E05TOU  is referenced.
   DD$BASED.:E05TOU  is referenced.
   B$JIT_C.:E05TOU  was found in the system file and is never referenced.
   CP_6_C.:E05TOU  was found in the system file and is never referenced.
      No diagnostics issued in procedure DDR$INSTR.

   Procedure DDR$INSTR requires 2894 words for executable code.
   Procedure DDR$INSTR requires 50 words of local(AUTO) storage.

    No errors detected in file DDR$INSTR.:E05TSI    .
PL6.E3A0      #001=DDR$INSTR File=DDR$INSTR.:E05TSI                              TUE 07/29/97 14:07 Page:153
          *** CROSS REFERENCE LISTING ***
**     DENOTES     IDENTIFIER DEFINITION
<<                 IDENTIFIER'S VALUE SET
>>                 IDENTIFIER'S VALUE USED
<>                 IDENTIFIER SET AND/OR USED
--                 IDENTIFIER REFERENCED
PL6.E3A0      #001=DDR$INSTR File=DDR$INSTR.:E05TSI                              TUE 07/29/97 14:07 Page:154
          MINI XREF LISTING

A$REA
      1452**DCL      5738<<ASSIGN
ADSC.CN
      1389**DCL      6039>>ASSIGN
ADSC.N
      1392**DCL      6042>>ASSIGN
ADSC.TA
      1390**DCL      6037>>CALL     6040>>IF
AFTER_AR.X IN PROCEDURE DO_MF
      6145**DCL      6159>>IF
AFTER_RL.X IN PROCEDURE DO_MF
      6149**DCL      6161>>IF
ARG.AR
      1430**DCL      6084>>ASSIGN
ARG.REG
      1432**DCL      6086>>IF       6087>>CALL
BDSC.B
      1398**DCL      6050>>ASSIGN
BDSC.C
      1397**DCL      6049>>CALL
BDSC.N
      1399**DCL      6047>>ASSIGN
BINTOCHAR
      1448**DCL      6041<>CALL     6049<>CALL     6058<>CALL     6061<>CALL     6069<>CALL     6070<>CALL
      6071<>CALL
BUFFER IN PROCEDURE MOVE
      6173**DCL      6178<<ASSIGN
BUF_LENGTH
      1451**DCL      1452--IMP-SIZ  5731<<ASSIGN   5733>>IF       5738>>ASSIGN   6010>>IF       6176>>IF
C$
      1457**DCL      5730<<ASSIGN   5819<>CALL     5825<>CALL     6007<>CALL     6052<>CALL     6063<>CALL
      6099<>CALL     6126<>CALL     6217<>CALL
PL6.E3A0      #001=DDR$INSTR File=DDR$INSTR.:E05TSI                              TUE 07/29/97 14:07 Page:155
CANT_ACCESS
      6026**LABEL    5722--REMEMBR
CLIMB0.ALT
      1374**DCL      5837>>IF
CLIMB0.X0
      1375**DCL      5838>>ASSIGN   6006>>ASSIGN
CLIMB1.E
      1378**DCL      6097>>IF
CLIMB1.OP
      1384**DCL      6091>>DOCASE
CLIMB1.P
      1379**DCL      6098>>ASSIGN
CLIMB1.SID
      1385**DCL      6093>>IF
CLIMB_INSTR
      5833**LABEL    5795--GOTO
CSTRING
      1455**DCL      5730--ASSIGN   5820<>CALL     5826<>CALL     6008<>CALL     6053<>CALL     6064<>CALL
      6100<>CALL     6127<>CALL     6218<>CALL
DDB$OCTAL_TO_INSTR
      5719**DCL-ENT  5742--CALL
DDR$BINTXT
      5718**DCL-ENT  5819--CALL     5825--CALL     6007--CALL     6022--CALL     6052--CALL     6063--CALL
      6099--CALL     6126--CALL     6217--CALL
DDR$POSIT IN PROCEDURE SYMBOLIC_YFIELD
      6193**DCL-ENT  6208--CALL
DECODE_DESC
      6023**LABEL    5741--GOTO
DO_MF
      6134**PROC     5796--CALL     5805--CALL     5815--CALL
EIS0.FP
      1358**DCL      5830>>IF       5831>>IF
EIS0.MF1
      1366**DCL      5793>>ASSIGN   5796<>CALL
EIS0.MF2
      1363**DCL      5803>>ASSIGN   5805<>CALL
PL6.E3A0      #001=DDR$INSTR File=DDR$INSTR.:E05TSI                              TUE 07/29/97 14:07 Page:156
EIS0.MF3
      1360**DCL      5813>>ASSIGN   5815<>CALL
EIS0.RD
      1362**DCL      5829>>IF
EIS0.T
      1361**DCL      5832>>IF
EIS1.BOLR.X
      1371**DCL      5824>>ASSIGN
EIS1.FILL
      1368**DCL      1369--REDEF    5818>>ASSIGN
EISTAG
      1445**DCL      6037<>CALL
FSS
      1450**DCL      5726<<ASSIGN   6010>>IF       6175<<ASSIGN   6175>>ASSIGN   6176>>IF       6210<<ASSIGN
      6210>>ASSIGN
INS
        31**DCL        30--PROC     5723>>ASSIGN
INSTR
      1336**DCL      1357--REDEF    1367--REDEF    1373--REDEF    1377--REDEF    1387--REDEF    1395--REDEF
      1402--REDEF    1411--REDEF    1420--REDEF    1427--REDEF    5723<<ASSIGN   5742<>CALL     6022<>CALL
INSTR.AR
      1348**DCL      5748>>IF       5760>>ASSIGN
INSTR.I
      1347**DCL      5751>>IF
INSTR.TAG.TD
      1352**DCL      1353--REDEF    5758>>ASSIGN
INSTR.TAG.TM
      1351**DCL      5757>>ASSIGN
INSTR.TAGG
      1349**DCL      1350--REDEF    5759>>ASSIGN
INSTR.Y
      1337**DCL      1338--REDEF    1341--REDEF    6199>>ASSIGN
INSTR.YFIELD.DR
      1339**DCL      5782>>CALL     6111>>CALL
INSTR.YFIELD.YY
      1340**DCL      6202>>ASSIGN
PL6.E3A0      #001=DDR$INSTR File=DDR$INSTR.:E05TSI                              TUE 07/29/97 14:07 Page:157
LENGTH
      1453**DCL      5744<<ASSIGN   5753>>IF
MF IN PROCEDURE DO_MF
      6137**DCL      6143--REDEF    6147--REDEF    6156<<ASSIGN
MF.AR IN PROCEDURE DO_MF
      6138**DCL      6158>>IF
MF.ID IN PROCEDURE DO_MF
      6140**DCL      6162>>IF
MF.REG IN PROCEDURE DO_MF
      6141**DCL      6163>>CALLBLT  6164>>CALL
MF.RL IN PROCEDURE DO_MF
      6139**DCL      6160>>IF
MOVE
      6170**PROC     5747--CALL     5749--CALL     5751--CALL     5752--CALL     5777--CALL     5781--CALL
      5782--CALL     5820--CALL     5821--CALL     5826--CALL     5827--CALL     5829--CALL     5829--CALL
      5830--CALL     5830--CALL     5831--CALL     5831--CALL     5832--CALL     5832--CALL     5837--CALL
      5840--CALL     5841--CALL     5842--CALL     5843--CALL     5844--CALL     5845--CALL     5846--CALL
      5847--CALL     5848--CALL     5849--CALL     5850--CALL     5851--CALL     5852--CALL     5853--CALL
      5854--CALL     5855--CALL     5856--CALL     5857--CALL     5858--CALL     5859--CALL     5860--CALL
      5861--CALL     5862--CALL     5863--CALL     5864--CALL     5865--CALL     5866--CALL     5867--CALL
      5868--CALL     5869--CALL     5870--CALL     5871--CALL     5872--CALL     5873--CALL     5874--CALL
      5875--CALL     5876--CALL     5877--CALL     5878--CALL     5879--CALL     5880--CALL     5881--CALL
      5882--CALL     5883--CALL     5884--CALL     5885--CALL     5886--CALL     5887--CALL     5888--CALL
      5889--CALL     5890--CALL     5891--CALL     5892--CALL     5893--CALL     5894--CALL     5895--CALL
      5896--CALL     5897--CALL     5898--CALL     5899--CALL     5900--CALL     5901--CALL     5902--CALL
      5903--CALL     5904--CALL     5905--CALL     5906--CALL     5907--CALL     5908--CALL     5909--CALL
      5910--CALL     5911--CALL     5912--CALL     5913--CALL     5914--CALL     5915--CALL     5916--CALL
      5917--CALL     5918--CALL     5919--CALL     5920--CALL     5921--CALL     5922--CALL     5923--CALL
      5924--CALL     5925--CALL     5926--CALL     5927--CALL     5928--CALL     5929--CALL     5930--CALL
      5931--CALL     5932--CALL     5933--CALL     5934--CALL     5935--CALL     5936--CALL     5937--CALL
      5938--CALL     5939--CALL     5940--CALL     5941--CALL     5942--CALL     5943--CALL     5944--CALL
      5945--CALL     5946--CALL     5947--CALL     5948--CALL     5949--CALL     5950--CALL     5951--CALL
      5952--CALL     5953--CALL     5954--CALL     5955--CALL     5956--CALL     5957--CALL     5958--CALL
      5959--CALL     5960--CALL     5961--CALL     5962--CALL     5963--CALL     5964--CALL     5965--CALL
      5966--CALL     5967--CALL     5968--CALL     5969--CALL     5970--CALL     5971--CALL     5972--CALL
      5973--CALL     5974--CALL     5975--CALL     5976--CALL     5977--CALL     5978--CALL     5979--CALL
PL6.E3A0      #001=DDR$INSTR File=DDR$INSTR.:E05TSI                              TUE 07/29/97 14:07 Page:158
      5980--CALL     5981--CALL     5982--CALL     5983--CALL     5984--CALL     5985--CALL     5986--CALL
      5987--CALL     5988--CALL     5989--CALL     5990--CALL     5991--CALL     5992--CALL     5993--CALL
      5994--CALL     5995--CALL     5996--CALL     5997--CALL     5998--CALL     5999--CALL     6000--CALL
      6001--CALL     6002--CALL     6003--CALL     6004--CALL     6008--CALL     6036--CALL     6037--CALL
      6041--CALL     6045--CALL     6049--CALL     6051--CALL     6053--CALL     6055--CALL     6056--CALL
      6058--CALL     6061--CALL     6064--CALL     6066--CALL     6067--CALL     6069--CALL     6070--CALL
      6071--CALL     6073--CALL     6079--CALL     6080--CALL     6083--CALL     6087--CALL     6088--CALL
      6094--CALL     6095--CALL     6100--CALL     6102--CALL     6104--CALL     6106--CALL     6111--CALL
      6121--CALL     6122--CALL     6125--CALL     6127--CALL     6157--CALL     6158--CALL     6159--CALL
      6160--CALL     6161--CALL     6162--CALL     6164--CALL     6165--CALL     6218--CALL
MOVE_REGLEN
      6115**PROC     6043--CALL     6048--CALL     6060--CALL     6077--CALL
MSS IN PROCEDURE SYMBOLIC_YFIELD
      6191**DCL      6207<<ASSIGN   6208<>CALL
MULTI_WORD_OP
      5788**LABEL    5754--GOTO
NDSC.CN
      1404**DCL      6058>>CALL
NDSC.N
      1408**DCL      6059>>ASSIGN
NDSC.SF
      1407**DCL      6062>>ASSIGN
NDSC.SX
      1406**DCL      6061>>CALL
NDSC.TN
      1405**DCL      6056>>CALL
NDSC_SIZE
      1447**DCL      6056<>CALL
NO_ROOM IN PROCEDURE MOVE_REGLEN
      6131**LABEL    6121--CALLALT  6122--CALLALT  6125--CALLALT  6127--CALLALT
NO_ROOM IN PROCEDURE SYMBOLIC_YFIELD
      6216**LABEL    6218--CALLALT
OCTAL_YFIELD IN PROCEDURE SYMBOLIC_YFIELD
      6212**LABEL    6203--GOTO     6205--GOTO     6208--CALLALT
OP$TAB
      5692**DCL      5742<>CALL
PL6.E3A0      #001=DDR$INSTR File=DDR$INSTR.:E05TSI                              TUE 07/29/97 14:07 Page:159
OP$TAB.DESC1
      5713**DCL      5792>>ASSIGN
OP$TAB.DESC2
      5714**DCL      5802>>ASSIGN   5805>>IF
OP$TAB.DESC3
      5715**DCL      5812>>ASSIGN   5815>>IF
OP$TAB.EIS
      5694**DCL      5702--REDEF
OP$TAB.EIS.BOLR
      5697**DCL      5823>>IF
OP$TAB.EIS.F
      5698**DCL      5831>>IF
OP$TAB.EIS.FILL
      5695**DCL      5817>>IF
OP$TAB.EIS.MASK
      5696**DCL      5817>>IF
OP$TAB.EIS.P
      5700**DCL      5830>>IF
OP$TAB.EIS.RD
      5699**DCL      5829>>IF
OP$TAB.EIS.T
      5701**DCL      5832>>IF
OP$TAB.LENGTH
      5711**DCL      5744>>ASSIGN   5797>>IF       5807>>IF
OP$TAB.MNE
      5712**DCL      5746>>CALLBLT  5747<>CALL
OP$TAB.NIS.AWDX
      5704**DCL      5748>>IF       5760>>ASSIGN
OP$TAB.NIS.OCTALY
      5703**DCL      5761>>ASSIGN
OP$TAB.NIS.STCA
      5705**DCL      5771>>IF
OP$TAB.TYPE
      5710**DCL      5795>>IF
PREGS
      1443**DCL      5782<>CALL     6111<>CALL
PL6.E3A0      #001=DDR$INSTR File=DDR$INSTR.:E05TSI                              TUE 07/29/97 14:07 Page:160
PURE_OCTAL
      6020**LABEL    5742--CALLALT  6016--GOTO
P_MF IN PROCEDURE DO_MF
      6136**DCL      6134--PROC     6156>>ASSIGN
REGLEN
      1459**DCL      6039<<ASSIGN   6040<<ASSIGN   6040>>ASSIGN   6041>>CALL     6042<<ASSIGN   6047<<ASSIGN
      6059<<ASSIGN   6076<<ASSIGN   6096<<ASSIGN   6098<<ASSIGN   6099<>CALL     6119<<ASSIGN   6119>>ASSIGN
      6120>>IF       6121>>CALL     6126<>CALL
REGT IN PROCEDURE DO_MF
      6151**DCL      6163>>CALLBLT  6164<>CALL
SAVE_D$_INIT
      1468**DCL      5729<<ASSIGN   6021>>ASSIGN
SAVE_EWSQ# IN PROCEDURE SYMBOLIC_YFIELD
      6190**DCL      6197<<ASSIGN   6212>>ASSIGN   6216>>ASSIGN
SDSC.B
      1415**DCL      6067>>CALL
SDSC.CN
      1413**DCL      6069>>CALL
SDSC.L
      1417**DCL      6070>>CALL
SDSC.SE
      1414**DCL      6071>>CALL
SDSC_SIZE
      1446**DCL      6067<>CALL
SIZE
      1458**DCL      5746<<CALLBLT  5747<>CALL     5776<<CALLBLT  5777<>CALL     5819<>CALL     5820<>CALL
      5825<>CALL     5826<>CALL     6007<>CALL     6008<>CALL     6022<>CALL     6023>>ASSIGN   6050<<ASSIGN
      6052<>CALL     6052<>CALL     6053<>CALL     6062<<ASSIGN   6063<>CALL     6063<>CALL     6064<>CALL
      6099<>CALL     6100<>CALL     6126<>CALL     6127<>CALL     6163<<CALLBLT  6164<>CALL     6208<>CALL
      6209>>ASSIGN   6210>>ASSIGN   6217<>CALL     6218<>CALL
SIZE_IS_REG
      1467**DCL      6032<<ASSIGN   6075<<ASSIGN   6117>>IF
STRING IN PROCEDURE MOVE
      6172**DCL      6170--PROC     6178>>ASSIGN
SYMBOLIC_YFIELD
      6189**PROC     5769--CALL     6038--CALL     6046--CALL     6057--CALL     6068--CALL     6074--CALL
PL6.E3A0      #001=DDR$INSTR File=DDR$INSTR.:E05TSI                              TUE 07/29/97 14:07 Page:161
      6085--CALL
SZ IN PROCEDURE MOVE
      6171**DCL      6170--PROC     6172--IMP-SIZ  6173--IMP-SIZ  6175>>ASSIGN   6178>>ASSIGN   6178>>ASSIGN
      6179>>ASSIGN
S_D.ACCESS
      2934**DCL      5721<<ASSIGN   5724<<ASSIGN
S_D.CURRENT_CHANNEL
      3847**DCL      3849--REDEF
S_D.D$
      2985**DCL      5729>>ASSIGN   5731>>ASSIGN   5738>>ASSIGN   5833<<ASSIGN   5833>>ASSIGN   6021<<ASSIGN
      6022<>CALL     6023<<ASSIGN   6023>>ASSIGN   6178>>ASSIGN   6179<<ASSIGN   6179>>ASSIGN   6207>>ASSIGN
      6208<>CALL     6209<<ASSIGN   6209>>ASSIGN
S_D.DEBUGA
      2999**DCL      3001--REDEF
S_D.DESCL$
      2981**DCL      5731>>ASSIGN   6207>>ASSIGN
S_D.EIS
      3957**DCL      3986--REDEF
S_D.EIS.DESC#
      3958**DCL      5741>>IF
S_D.EIS.DESC1.DESC#
      3965**DCL      5791<<ASSIGN
S_D.EIS.DESC1.DESC_TYPE
      3966**DCL      5792<<ASSIGN
S_D.EIS.DESC1.MODS
      3967**DCL      5793<<ASSIGN
S_D.EIS.DESC2.DESC#
      3972**DCL      5801<<ASSIGN
S_D.EIS.DESC2.DESC_TYPE
      3973**DCL      5802<<ASSIGN
S_D.EIS.DESC2.MODS
      3974**DCL      5803<<ASSIGN
S_D.EIS.DESC3.DESC#
      3979**DCL      5811<<ASSIGN
S_D.EIS.DESC3.DESC_TYPE
      3980**DCL      5812<<ASSIGN
PL6.E3A0      #001=DDR$INSTR File=DDR$INSTR.:E05TSI                              TUE 07/29/97 14:07 Page:162
S_D.EIS.DESC3.MODS
      3981**DCL      5813<<ASSIGN
S_D.EIS.DESC_TYPE
      3959**DCL      6034>>DOCASE
S_D.EIS.MODS.AR
      3961**DCL      6030>>ASSIGN
S_D.EIS.MODS.RL
      3962**DCL      6032>>ASSIGN
S_D.ERROR
      2928**DCL      5734<<ASSIGN   6026<<ASSIGN
S_D.EWSQ#
      2924**DCL      6197>>ASSIGN   6212<<ASSIGN   6216<<ASSIGN
S_D.HOST_MESSAGE_BUF_REMOTE
      3890**DCL      3891--REDEF    3905--REDEF
S_D.JDE
      3504**DCL      3505--REDEF
S_D.KILLEDEF
      3053**DCL      5788<<ASSIGN   6020<<ASSIGN
S_D.L$.VALUE
      3057**DCL      3063--REDEF    3071--REDEF    3074--REDEF    3077--REDEF    3080--REDEF
S_D.L$.VALUE.L
      3058**DCL      3059--REDEF    3060--REDEF
S_D.L6_MESSAGE_BUF
      3911**DCL      3913--REDEF
S_D.MACTIVE
      3168**DCL      5741>>IF       5789>>IF       5799>>IF       5809>>IF
S_D.OUTPUT
      3877**DCL      3879--REDEF
S_D.REMOTE_MSG.FNCC
      3896**DCL      3897--REDEF
S_D.REMOTE_MSG.STXC
      3892**DCL      3893--REDEF
S_D.REMOTE_MSG.SUBFNCC
      3900**DCL      3901--REDEF
S_D.REM_ACCESS
      2942**DCL      5722<<REMEMBR
PL6.E3A0      #001=DDR$INSTR File=DDR$INSTR.:E05TSI                              TUE 07/29/97 14:07 Page:163
S_D.SV
      2956**DCL      2977--REDEF
S_D$
      4208**DCL      2904--IMP-PTR  5721>>ASSIGN   5722>>REMEMBR  5724>>ASSIGN   5729>>ASSIGN   5731>>ASSIGN
      5731>>ASSIGN   5734>>ASSIGN   5738>>ASSIGN   5741>>IF       5741>>IF       5788>>ASSIGN   5789>>IF
      5791>>ASSIGN   5792>>ASSIGN   5793>>ASSIGN   5799>>IF       5801>>ASSIGN   5802>>ASSIGN   5803>>ASSIGN
      5809>>IF       5811>>ASSIGN   5812>>ASSIGN   5813>>ASSIGN   5833>>ASSIGN   5833>>ASSIGN   6020>>ASSIGN
      6021>>ASSIGN   6022>>CALL     6023>>ASSIGN   6023>>ASSIGN   6026>>ASSIGN   6030>>ASSIGN   6032>>ASSIGN
      6034>>DOCASE   6178>>ASSIGN   6179>>ASSIGN   6179>>ASSIGN   6197>>ASSIGN   6207>>ASSIGN   6207>>ASSIGN
      6208>>CALL     6209>>ASSIGN   6209>>ASSIGN   6212>>ASSIGN   6216>>ASSIGN
TAG
      1462**DCL      5759<<ASSIGN   5773>>CALLBLT  5773>>CALLBLT  5775>>ASSIGN   5781>>IF       6033<<ASSIGN
TAGG
      1463**DCL      5773<<CALLBLT  5775<<ASSIGN   5776>>CALLBLT  5777<>CALL
TAGS
      1434**DCL      5775>>ASSIGN   6079<>CALL     6087<>CALL     6121<>CALL
TD
      1461**DCL      5758<<ASSIGN   5765>>IF       5765>>IF       5765>>IF
TM
      1460**DCL      5757<<ASSIGN   5765>>IF
TOO_BIG
      6016**LABEL    5747--CALLALT  5749--CALLALT  5751--CALLALT  5752--CALLALT  5769--CALLALT  5777--CALLALT
      5781--CALLALT  5782--CALLALT  5837--CALLALT  6010--GOTO     6036--CALLALT  6037--CALLALT  6038--CALLALT
      6041--CALLALT  6043--CALLALT  6046--CALLALT  6048--CALLALT  6049--CALLALT  6051--CALLALT  6053--CALLALT
      6055--CALLALT  6056--CALLALT  6057--CALLALT  6058--CALLALT  6060--CALLALT  6061--CALLALT  6064--CALLALT
      6066--CALLALT  6067--CALLALT  6068--CALLALT  6069--CALLALT  6070--CALLALT  6071--CALLALT  6073--CALLALT
      6074--CALLALT  6077--CALLALT  6079--CALLALT  6080--CALLALT  6083--CALLALT  6085--CALLALT  6087--CALLALT
      6088--CALLALT  6111--CALLALT
VDSC.R
      1423**DCL      6075>>ASSIGN
VDSC.RN
      1424**DCL      6078>>IF       6079>>CALL
VDSC.VI
      1422**DCL      6076>>ASSIGN
X0
      1464**DCL      5838<<ASSIGN   5839>>DOSELCT
PL6.E3A0      #001=DDR$INSTR File=DDR$INSTR.:E05TSI                              TUE 07/29/97 14:07 Page:164
YFIELD_HAS_REG
      1465**DCL      5760<<ASSIGN   5765>>IF       5779>>IF       6030<<ASSIGN   6080>>IF       6084<<ASSIGN
      6088>>IF       6090<<ASSIGN   6109>>IF       6200>>IF
YFIELD_IN_OCTAL
      1466**DCL      5761<<ASSIGN   5767<<ASSIGN   6031<<ASSIGN   6205>>IF
YY
      1454**DCL      5818<<ASSIGN   5819<>CALL     5824<<ASSIGN   5825<>CALL     6006<<ASSIGN   6007<>CALL
YY IN PROCEDURE SYMBOLIC_YFIELD
      6192**DCL      6199<<ASSIGN   6202<<ASSIGN   6208<>CALL     6217<>CALL
PL6.E3A0      #001=DDR$INSTR File=DDR$INSTR.:E05TSI                              TUE 07/29/97 14:07 Page:165
              *** CROSS REFERENCE LISTING ***
    **     DENOTES     IDENTIFIER DEFINITION
    <<                 IDENTIFIER'S VALUE SET
    >>                 IDENTIFIER'S VALUE USED
    <>                 IDENTIFIER SET AND/OR USED
    --                 IDENTIFIER REFERENCED
PL6.E3A0      #001=DDR$INSTR File=DDR$INSTR.:E05TSI                              TUE 07/29/97 14:07 Page:166
              MINI UREF LISTING

CHAR1    1456**DCL
DDE$ERROR    5720**DCL-ENT
DDR$INSTR      30**PROC
DECODE_ARG    6080**LABEL
SDD$    5114**DCL
SDD_L6$    5116**DCL
ZITEM$    5115**DCL
ZITEM_L6$    5117**DCL
