VERSION E05

PL6.E3A0      #001=DDR$REPORT File=DDR$REPORT.:E05TSI                            TUE 07/29/97 14:09 Page:1
        1        1        /*M*  DDR$REPORT  */
        2        2        /*T***********************************************************/
        3        3        /*T*                                                         */
        4        4        /*T* Copyright (c) Bull HN Information Systems Inc., 1997    */
        5        5        /*T*                                                         */
        6        6        /*T***********************************************************/
        7        7        /*X* DMR,PLM=5,IND=5,CSU=3,EXM=0,ECU=3,MOC,DCI=5,CRT=5 */
        8        8        /*P*  NAME: DDR$REPORT
        9        9             PURPOSE: to report breaks, faults, and traces to the user. */
       10       10        /*D* NAME: DDR$REPORT
       11       11             CALL: CALL DDR$REPORT( EVENT );
       12       12             DESCRIPTION: TYPE IS THE CODE OF THE EVENT TO BE REPORTED.
       13       13                  IF USER DELTA AND THE PSEUDO SENSE SWITCH ARE 'TSTn' WHERE
       14       14                  n IS ANY CHARACTER, DELTA WILL NOT GIVE A VERSION NUMBER.
       15       15                  IF THE SWITCHES ARE 'TST0' THEN REPORT WILL NOT INCLUDE A
       16       16                  POSITION IN ITS MESSAGES. */
       17       17                                                /**/
       18       18        DDR$REPORT: PROC( EVENT );
       19       19                                                /**/
       20       20    1   DCL TEMP UBIN;
       21       21    1   DCL EVENT UBIN;
       22       22    1   DCL X1 UBIN;
       23       23    1   DCL REM UBIN;
       24       24    1   DCL BB$ PTR;
       25       25    1   DCL PTR$ PTR;
       26       26    1   DCL MSG_LENGTH UBIN;
       27       27    1   DCL NCARS UBIN;
       28       28    1   DCL SAVEIC UBIN;
       29       29    1   DCL SAVE_D$ PTR;
       30       30    1   DCL SAVE_DESCL$ PTR;
       31       31    1   DCL FAULT UBIN;
       32       32    1   DCL ERROR UBIN;
       33       33    1   DCL LNODE UBIN;
       34       34    1   DCL RNODE UBIN;
       35       35    1   DCL SWITCH CHAR(4) ALIGNED;
       36       36    1   DCL 1 SS REDEF SWITCH,
       37       37    1         2 TST CHAR(3) UNAL,
PL6.E3A0      #001=DDR$REPORT File=DDR$REPORT.:E05TSI                            TUE 07/29/97 14:09 Page:2
       38       38    1         2 N CHAR(1) UNAL;
       39       39    1   DCL WIRD UBIN BASED;
       40       40    1   DCL CHAR2 CHAR(2) BASED;
       41       41    1   DCL CHAR4 CHAR(4) BASED;
       42       42    1   DCL CHAR32 CHAR(32) BASED;
       43       43    1   DCL 1 TEXTC BASED UNAL,
       44       44    1         2 LEN UBIN(9) UNAL,
       45       45    1         2 TEXT CHAR(TEXTC.LEN) UNAL;
       46       46    1   DCL F00 CHAR(0) CONSTANT INIT('SHUTDOWN');
       47       47    1   DCL F01 CHAR(0) CONSTANT INIT('MEMORY (STR)');
       48       48    1   DCL F02 CHAR(0) CONSTANT INIT('MASTER MODE ENTRY');
       49       49    1   DCL F03 CHAR(0) CONSTANT INIT('FAULT TAG');
       50       50    1   DCL F04 CHAR(0) CONSTANT INIT('TIMER RUNOUT');
       51       51    1   DCL F05 CHAR(0) CONSTANT INIT('COMMAND');
       52       52    1   DCL F06 CHAR(0) CONSTANT INIT('DERAIL');
       53       53    1   DCL F07 CHAR(0) CONSTANT INIT('LOCKUP');
       54       54    1   DCL F08 CHAR(0) CONSTANT INIT('CONNECT');
       55       55    1   DCL F09 CHAR(0) CONSTANT INIT('PARITY');
       56       56    1   DCL F10 CHAR(0) CONSTANT INIT('ILLEGAL PROCEDURE');
       57       57    1   DCL F11 CHAR(0) CONSTANT INIT('OPERATION NOT COMPLETE');
       58       58    1   DCL F12 CHAR(0) CONSTANT INIT('STARTUP');
       59       59    1   DCL F13 CHAR(0) CONSTANT INIT('OVERFLOW');
       60       60    1   DCL F14 CHAR(0) CONSTANT INIT('DIVIDE CHECK');
       61       61    1   DCL F15 CHAR(0) CONSTANT INIT('EXECUTE');
       62       62    1   DCL F16 CHAR(0) CONSTANT INIT('SECURITY - CLASS 1');
       63       63    1   DCL F17 CHAR(0) CONSTANT INIT('DYNAMIC LINKING');
       64       64    1   DCL F18 CHAR(0) CONSTANT INIT('MISSING SEGMENT');
       65       65    1   DCL F19 CHAR(0) CONSTANT INIT('MISSING WORKING SPACE');
       66       66    1   DCL F20 CHAR(0) CONSTANT INIT('MISSING PAGE');
       67       67    1   DCL F21 CHAR(0) CONSTANT INIT('SECURITY - CLASS 2');
       68       68        /* Array of pointers to fault code text, index = fault code */
       69       69    1   DCL FAULT_TEXT_PTR$(0:21) PTR CONSTANT INIT(
       70       70    1     ADDR(F00),
       71       71    1     ADDR(F01),
       72       72    1     ADDR(F02),
       73       73    1     ADDR(F03),
       74       74    1     ADDR(F04),
PL6.E3A0      #001=DDR$REPORT File=DDR$REPORT.:E05TSI                            TUE 07/29/97 14:09 Page:3
       75       75    1     ADDR(F05),
       76       76    1     ADDR(F06),
       77       77    1     ADDR(F07),
       78       78    1     ADDR(F08),
       79       79    1     ADDR(F09),
       80       80    1     ADDR(F10),
       81       81    1     ADDR(F11),
       82       82    1     ADDR(F12),
       83       83    1     ADDR(F13),
       84       84    1     ADDR(F14),
       85       85    1     ADDR(F15),
       86       86    1     ADDR(F16),
       87       87    1     ADDR(F17),
       88       88    1     ADDR(F18),
       89       89    1     ADDR(F19),
       90       90    1     ADDR(F20),
       91       91    1     ADDR(F21) );
       92       92        /* Sizes of fault code text */
       93       93    1   DCL FAULT_TEXT_SIZE(0:21) UBIN    CONSTANT INIT(
       94       94    1      8,12,17, 9,12,
       95       95    1      7, 6, 6, 7, 6,
       96       96    1     17,22, 7, 8,12,
       97       97    1      7,18,15,15,21,
       98       98    1     12,18);
       99       99    1   DCL 1 B_VERSION ALIGNED SYMREF,
      100      100    1         2 SIZE UBIN(9) CALIGNED,
      101      101    1         2 TEXT CHAR(1) CALIGNED;
      102      102    1   DCL DD_VERSIZE UBIN ALIGNED;
      103      103    1   DCL UJIT$ PTR SYMREF;
      104      104    1   DCL DCTX_ME UBIN SYMREF;
      105      105        %INCLUDE B$SS;
      106      284        %INCLUDE CP_6;
      107      365        %B$TCB;
      108      368    1   DCL UTCB$ PTR SYMREF;
      109      369        %INCLUDE DD_SUBS_C;
      110      640        %INCLUDE DD_PSUBS_C;
      111     1115        %INCLUDE B$JIT;
PL6.E3A0      #001=DDR$REPORT File=DDR$REPORT.:E05TSI                            TUE 07/29/97 14:09 Page:4
      112     1405    1   DCL B$JIT$ PTR SYMREF;
      113     1406        %INCLUDE B$OBJECT_C;
      114     4836        %B$TREE_TABLE (NODE_NAME="B$TREE_NODE(0:0)");
      115     4894        %B$EDEF;
      116     4964        %SUB_CST;
      117     4980        %B$LBNTRY0;
      118     5016        %INCLUDE XUH_MACRO_C;
      119     5100        %INCLUDE DD_SD_M;
      120     6436        %S_D;
      121     7754        %INCLUDE DD_ERR_C;
      122     8151        %INCLUDE B_STRINGS_C;
      123     8280        %INCLUDE DD$DITEM;
       12+    8383             %LIST;
       13+    8384    1        DCL SDD$ PTR;
       14+    8385    1        DCL ZITEM$ PTR;
       15+    8386    1        DCL SDD_L6$ PTR;
       16+    8387    1        DCL ZITEM_L6$ PTR;
      124     8961        %F$DCB;
      125     9018        /*N* THIS MUST BE CHANGED IF THE TCB STRUCTURE CHANGES (NOT LIKELY) */
      126     9019    1   DCL 1 B$TCBSTK BASED,
      127     9020    1         2 * UBIN,
      128     9021    1         2 OFFSET UBIN(18) UNAL,
      129     9022    1         2 * UBIN(18) UNAL;
      130     9023    1   DCL D_M$LM# UBIN SYMREF;
      131     9024    1   DCL D_XDELTA BIT(1) SYMREF;
      132     9025    1   DCL IRM_NOKP_SCR UBIN SYMREF;
      133     9026    1   DCL UBIN36 UBIN(36) BASED;
      134     9027    1   DCL MIS$ PTR SYMREF;
      135     9028    1   DCL IN_DEV UBIN SYMREF;
      136     9029    1   DCL OUT_DEV UBIN SYMREF;
      137     9030    1   DCL DEL_FAULTLOC UBIN SYMREF;
      138     9031    1   DCL DEL_FAULT UBIN SYMREF;
      139     9032    1   DCL DDR$POSIT ENTRY(5) ALTRET;
      140     9033    1   DCL DDR$BINTXT ENTRY(4);
      141     9034    1   DCL DDQ$WRITE   ENTRY(2);
      142     9035    1   DCL DDQ$WRITENU ENTRY(2);
      143     9036    1   DCL DDE$ERROR ENTRY;
PL6.E3A0      #001=DDR$REPORT File=DDR$REPORT.:E05TSI                            TUE 07/29/97 14:09 Page:5
      144     9037    1   DCL DDR$MOVE ENTRY(4) ALTRET;
      145     9038    1   DCL DDB$PUTHIST ENTRY(6);
      146     9039    1   DCL DDS$ES_INQ ENTRY(1) ALTRET;
      147     9040    1   DCL DDS$IC2NODE ENTRY(2) ALTRET;
      148     9041    1   DCL DDR$INSTR ENTRY(1) ALTRET;
      149     9042                                                /**/
      150     9043    1        IF NOT D_XDELTA THEN SWITCH = ADDR(B$JIT$->B$JIT.SWITCH(0))->CHAR4;
      151     9044    1        ELSE SWITCH = 'XDEL';              /* JUST SO IT DOESN'T SAY TST */
      152     9045    1               ERROR = 0;
      153     9046    1               SAVEIC = S_D.SAVEIC;        /* Convert to UBIN */
      154     9047    1               REM = LENGTHC( S_D.OUTPUT );
      155     9048    1        BB$ = ADDR( S_D.OUTPUT );          /* Initialize the buffer pointer */
      156     9049                                                /* Blank the buffer */
      157     9050    1        S_D.OUTPUT = ' ';
      158     9051        /* If the event occured in a wsq other than 1 (other than the
      159     9052           monitor, then precede the report with WSQ#) */
      160     9053    1        IF ( S_D.EWSQ# ~= %MONWSQ ) AND ( EVENT ~= R_SFAULT ) /* %MONWSQ */
      161     9054    2        THEN DO;
      162     9055    3             DO CASE ( S_D.EWSQ# );
      163     9056    3               CASE ( %REALWSQ );          /* %REALWSQ */
      164     9057    3                  CALL DDR$MOVE( '(Real', 5, BB$, REM );
      165     9058    3               CASE ( %MONWSQ );           /* HUH? - %MONWSQ */
      166     9059    3                  CALL DDR$MOVE( '(Huh?', 5, BB$, REM );
      167     9060    3               CASE ( %CPWSQ, %DBWSQ, %ASLWSQ, %USERWSQ );
              9060                        /* %CPWSQ, %DBWSQ, %ASLWSQ, %USERWSQ */
      168     9061    3                  TEMP = UJIT$ -> B$JIT.USER; /* User number */
      169     9062    3                  CALL DDR$MOVE( '(User#', 6, BB$, REM );
      170     9063    3                  CALL DDR$BINTXT( BB$, TEMP, %OCT_FMT, NCARS );
      171     9064    3                  CALL UPDTBP;             /* Update BB$, REM */
      172     9065    4                  DO CASE ( S_D.EWSQ# );
      173     9066    4                    CASE ( %CPWSQ );       /* %CPWSQ */
      174     9067    4                       CALL DDR$MOVE( ',ICP', 4, BB$, REM );
      175     9068    4                    CASE ( %DBWSQ );       /* %DBWSQ */
      176     9069    4                       CALL DDR$MOVE( ',IDB', 4, BB$, REM );
      177     9070    4                    CASE ( %ASLWSQ );      /* %ASLWSQ */
      178     9071    4                       CALL DDR$MOVE( ',ASL', 4, BB$, REM );
      179     9072    4                    END;
PL6.E3A0      #001=DDR$REPORT File=DDR$REPORT.:E05TSI                            TUE 07/29/97 14:09 Page:6
      180     9073    3               CASE ( ELSE );
      181     9074    3                  CALL DDR$MOVE( '(EWSQ#', 6, BB$, REM );
      182     9075    3                  CALL DDR$BINTXT( BB$, S_D.EWSQ#, %OCT_FMT, NCARS );
      183     9076    3                  CALL UPDTBP;             /* Update BB$, REM */
      184     9077    3               END;
      185     9078    2             CALL DDR$MOVE( ') ', 2, BB$, REM );
      186     9079    2           END;
      187     9080    2        DO CASE(EVENT);
      188     9081    2          CASE(R_AT);
      189     9082    2             GOTO REPORT_AT;
      190     9083    2          CASE(R_ONCALL);
      191     9084    2             GOTO REPORT_ONCALL;
      192     9085    2          CASE(R_USERFLT);
      193     9086    2             GOTO REPORT_FAULT;
      194     9087    2          CASE(R_XEQFLT);
      195     9088    2             GOTO REPORT_XEQFLT;
      196     9089    2          CASE(R_STEP);
      197     9090    2             GOTO REPORT_STEP;
      198     9091    2          CASE(R_TRACECALLS);
      199     9092    2             GOTO REPORT_TRACECALLS;
      200     9093    2          CASE(R_WHEN);
      201     9094    2             GOTO REPORT_WHEN;
      202     9095    2          CASE(R_SFAULT);
      203     9096    2             GOTO REPORT_SFAULT;
      204     9097    2          CASE(R_BREAK);
      205     9098    2             GOTO REPORT_BREAK;
      206     9099    2          CASE(R_ONNODE);
      207     9100    2             GOTO REPORT_ONNODE;
      208     9101    2          CASE(R_DELTA, R_DELTA_ONLY, R_ALIB, R_ANLZ, R_RUM, R_AUTOS);
      209     9102    2             GOTO REPORT_DELTA;
      210     9103    2          CASE(R_PATCH);
      211     9104    2             GOTO REPORT_PATCH;
      212     9105    2          CASE(R_LINKIN);
      213     9106    2             GOTO REPORT_LINKIN;
      214     9107    2          CASE(R_LDTRCIN);
      215     9108    2             GOTO REPORT_LDTRCIN;
      216     9109    2          CASE(R_LINKRTN);
PL6.E3A0      #001=DDR$REPORT File=DDR$REPORT.:E05TSI                            TUE 07/29/97 14:09 Page:7
      217     9110    2             GOTO REPORT_LINKRTN;
      218     9111    2          CASE(R_TTLOST);
      219     9112    2             GOTO REPORT_TTLOST;
      220     9113    2          CASE(R_SCREECH);
      221     9114    2             GOTO REPORT_SCREECH;
      222     9115    2          CASE(R_WHENXEQ);
      223     9116    2             GOTO REPORT_WHENXEQ;
      224     9117    2          CASE(R_WHENPMME);
      225     9118    2             GOTO REPORT_WHENPMME;
      226     9119    2          CASE(R_WHENASL);
      227     9120    2             GOTO REPORT_WHENASL;
      228     9121    2          CASE(R_STOP);
      229     9122    2             GOTO REPORT_STOP;
      230     9123    2          CASE(ELSE);
      231     9124        /* Report error & split */
      232     9125    2             S_D.ERROR = E@DELBUG;         /* E@DELBUG */
      233     9126    2             CALL DDE$ERROR;
      234     9127    2             RETURN;
      235     9128    2          END;                             /* DO CASE */
      236     9129    1   REPORT_PATCH:
      237     9130    1        DD_VERSIZE = B_VERSION.SIZE;
      238     9131    1        CALL DDR$MOVE('MON/GHOST1 patches may now be entered. (XDELTA ',
      239     9132    1          LENGTHC('MON/GHOST1 patches may now be entered. (XDELTA '),
      240     9133    1          BB$, REM);
      241     9134    1        CALL DDR$MOVE(B_VERSION.TEXT, DD_VERSIZE, BB$, REM);
      242     9135    1        CALL DDR$MOVE(')', 1, BB$, REM);
      243     9136    1        IN_DEV = DCTX_ME;
      244     9137    1        OUT_DEV = DCTX_ME;
      245     9138    1        GOTO REPORT;
      246     9139    1   REPORT_LDTRCIN:
      247     9140    1        CALL DDR$MOVE('M$LDTRC to ', 11, BB$, REM);
      248     9141    1        GOTO RL1;
      249     9142    1   REPORT_LINKIN:
      250     9143    1        CALL DDR$MOVE('M$LINK to ', 10, BB$, REM);
      251     9144    1   RL1:
      252     9145    1        PTR$ = ADDR(DCBADDR(D_M$LM#)->F$DCB.NAME#);
      253     9146    1        BB$->CHAR32 = PTR$->TEXTC.TEXT;
PL6.E3A0      #001=DDR$REPORT File=DDR$REPORT.:E05TSI                            TUE 07/29/97 14:09 Page:8
      254     9147    1        NCARS = PTR$->TEXTC.LEN;
      255     9148    1        CALL UPDTBP;
      256     9149    1        CALL DDR$MOVE('.', 1, BB$, REM);
      257     9150    1        CALL DDR$MOVE(DCBADDR(D_M$LM#)->F$DCB.ACCT#, 9, BB$, REM);
      258     9151    1        CALL DDR$MOVE('IC = ', 5, BB$, REM);
      259     9152    1        GOTO REPORT_IBP;
      260     9153    1   REPORT_LINKRTN:
      261     9154    1        CALL DDR$MOVE('Return from M$LINK, IC = ', 25, BB$, REM);
      262     9155    1        GOTO REPORT_IBP;
      263     9156    1   REPORT_TTLOST:
      264     9157    1        CALL DDR$MOVE('Trace Transfer lost @ ', 22, BB$, REM);
      265     9158    1        GOTO REPORT_IBP;
      266     9159    1   REPORT_SCREECH:
      267     9160    1        IF PINCRW(MIS$, IRM_NOKP_SCR) -> UBIN36 = 0
      268     9161    2        THEN DO;
      269     9162    2             CALL DDR$MOVE('SCREECH IC = ', 13, BB$, REM);
      270     9163    2             GOTO REPORT_IBP;
      271     9164    2           END;
      272     9165    1        ELSE RETURN;
      273     9166    1   REPORT_STOP:
      274     9167    1        CALL DDR$MOVE( 'Host program stopped  IC = ', LENGTHC(
              9167                 'Host program stopped  IC = '), BB$, REM) ALTRET(TOO_BIG);
      275     9168    1        GOTO REPORT_IBP;
      276     9169    1   REPORT_DELTA:
      277     9170    1        DD_VERSIZE = B_VERSION.SIZE;
      278     9171    1        IF D_XDELTA
      279     9172    1        THEN CALL DDR$MOVE ( 'XDELTA ', LENGTHC('XDELTA '), BB$, REM );
      280     9173    1        ELSE IF EVENT = R_RUM THEN CALL DDR$MOVE ('RUM ', LENGTHC('RUM '), BB$, REM);
      281     9174    1             ELSE IF EVENT = R_ANLZ THEN CALL DDR$MOVE ('ANLZ/DELTA ', LENGTHC(
              9174                      'ANLZ/DELTA '), BB$, REM);
      282     9175    2                  ELSE IF SS.TST = 'TST' THEN DO;
      283     9176    2                            CALL DDR$MOVE ('DELTA TEST ', LENGTHC('DELTA TEST '), BB$,
              9176                                     REM);
      284     9177    2                            GOTO L1;
      285     9178    2                          END;
      286     9179    1                       ELSE CALL DDR$MOVE ( 'DELTA ', LENGTHC('DELTA '), BB$, REM );
      287     9180        /*N*                ELSE DO;
PL6.E3A0      #001=DDR$REPORT File=DDR$REPORT.:E05TSI                            TUE 07/29/97 14:09 Page:9
      288     9181         CALL DDR$MOVE ( 'DELTA is ready when you are ', LENGTHC('DELTA is ready when you ar
              9181        e '), BB$, REM);
      289     9182                                 GOTO L1;
      290     9183                               END; */
      291     9184    1        CALL DDR$MOVE( B_VERSION.TEXT, DD_VERSIZE, BB$, REM );
      292     9185    1        CALL DDR$MOVE( ' here', 5, BB$, REM );
      293     9186    2        IF D_XDELTA THEN DO;
      294     9187    2             IN_DEV = DCTX_ME;
      295     9188    2             OUT_DEV = DCTX_ME;
      296     9189    2           END;
      297     9190    1   L1:  ;
      298     9191    1        IF EVENT = R_DELTA_ONLY OR (S_D.STAND_ALONE AND NOT(S_D.ANLZ OR S_D.RUM))
      299     9192    2        THEN DO;
      300     9193    2             CALL DDR$MOVE (' (No RU associated)',19,BB$,REM) ALTRET (TOO_BIG);
      301     9194    2             GOTO REPORT;
      302     9195    2           END;
      303     9196    1        IF EVENT = R_ANLZ AND NOT S_D.ANLZ_FILE
      304     9197    2        THEN DO;
      305     9198    2             CALL DDR$MOVE(' (ANLZing running monitor)', 26, BB$, REM) ALTRET(TOO_BIG);
      306     9199    2             GOTO REPORT;
      307     9200    2           END;
      308     9201    1        IF EVENT = R_ALIB THEN CALL DDR$MOVE(' via M$ALIB', 11, BB$, REM) ALTRET(
              9201                 TOO_BIG);
      309     9202    1        IF EVENT = R_RUM THEN CALL DDR$MOVE(' SA = ', 6, BB$, REM) ALTRET(TOO_BIG);
      310     9203    1        ELSE CALL DDR$MOVE(' IC = ', 6, BB$, REM) ALTRET(TOO_BIG);
      311     9204    1        IF SS.N = '0'
      312     9205    1        THEN CALL DDR$MOVE ('TEST', 4, BB$, REM) ALTRET( TOO_BIG );
      313     9206    2        ELSE DO;
      314     9207    2             CALL DDR$POSIT( SAVEIC, BB$, REM, NCARS ) ALTRET( TOO_BIG );
      315     9208    2             CALL UPDTBP;                  /* Update BB$, REM */
      316     9209    2           END;
      317     9210    1        IF EVENT = R_AUTOS
      318     9211    2        THEN DO;
      319     9212    2             MSG_LENGTH = POFFC( BB$, ADDR( S_D.OUTPUT ) );
      320     9213    2             CALL DDQ$WRITE( ADDR( S_D.OUTPUT ), MSG_LENGTH );
      321     9214    2             IF ERROR ~= 0
      322     9215    3             THEN DO;
PL6.E3A0      #001=DDR$REPORT File=DDR$REPORT.:E05TSI                            TUE 07/29/97 14:09 Page:10
      323     9216    3                  S_D.ERROR = ERROR;
      324     9217    3                  CALL DDE$ERROR;
      325     9218    3                END;
      326     9219    2             REM = LENGTHC( S_D.OUTPUT );
      327     9220    2             BB$ = ADDR( S_D.OUTPUT );     /* Initialize the buffer pointer */
      328     9221    2             S_D.OUTPUT = ' ';
      329     9222    2             CALL DDR$MOVE( '(Auto shared RU associated)', LENGTHC(
              9222                      '(Auto shared RU associated)'), BB$, REM) ALTRET(TOO_BIG);
      330     9223    2             MSG_LENGTH = POFFC( BB$, ADDR( S_D.OUTPUT ) );
      331     9224    2             CALL DDQ$WRITE( ADDR( S_D.OUTPUT ), MSG_LENGTH );
      332     9225    2             IF ERROR ~= 0
      333     9226    3             THEN DO;
      334     9227    3                  S_D.ERROR = ERROR;
      335     9228    3                  CALL DDE$ERROR;
      336     9229    3                END;
      337     9230    2             REM = LENGTHC( S_D.OUTPUT );
      338     9231    2             BB$ = ADDR( S_D.OUTPUT );     /* Initialize the buffer pointer */
      339     9232    2             S_D.OUTPUT = ' ';
      340     9233    2             CALL DDR$MOVE(
              9233                      'For modification of procedure (including breakpoints) use UNSHARE',
      341     9234    2               LENGTHC(
              9234                        'For modification of procedure (including breakpoints) use UNSHARE')
              9234                        , BB$, REM ) ALTRET( TOO_BIG );
      342     9235    2             MSG_LENGTH = POFFC( BB$, ADDR( S_D.OUTPUT ) );
      343     9236    2             CALL DDQ$WRITE( ADDR( S_D.OUTPUT ), MSG_LENGTH );
      344     9237    2             IF ERROR ~= 0
      345     9238    3             THEN DO;
      346     9239    3                  S_D.ERROR = ERROR;
      347     9240    3                  CALL DDE$ERROR;
      348     9241    3                END;
      349     9242    2             RETURN;
      350     9243    2           END;
      351     9244    1        GOTO REPORT;
      352     9245    1   REPORT_AT:
      353     9246    1        CALL BINCHAR( BB$ -> CHAR2, S_D.IXFIX );
      354     9247    1        NCARS = 2;
      355     9248    1        CALL UPDTBP;                       /* Update BB$, REM */
PL6.E3A0      #001=DDR$REPORT File=DDR$REPORT.:E05TSI                            TUE 07/29/97 14:09 Page:11
      356     9249    1        CALL DDR$MOVE( ' A_BRK@ ', 8, BB$, REM ) ALTRET( TOO_BIG );
      357     9250    1        GOTO REPORT_IBP;
      358     9251    1   REPORT_ONCALL:
      359     9252    1        CALL BINCHAR( BB$ -> CHAR2, S_D.IXFIX );
      360     9253    1        NCARS = 2;
      361     9254    1        CALL UPDTBP;                       /* Update BB$, REM */
      362     9255    1        CALL DDR$MOVE( ' ON CALL_BRK@ ', 14, BB$, REM ) ALTRET( TOO_BIG );
      363     9256    1        CALL DDR$POSIT( SAVEIC, BB$, REM, NCARS) ALTRET(TOO_BIG);
      364     9257    1        CALL UPDTBP;
      365     9258    1        X1 = S_D.USS$->B$SS.X1 - 1;
      366     9259    1        CALL DDR$MOVE( ' from ', 6, BB$, REM) ALTRET(TOO_BIG);
      367     9260    1        CALL DDR$POSIT (X1, BB$, REM, NCARS) ALTRET(TOO_BIG);
      368     9261    1        CALL UPDTBP;
      369     9262    1        IF S_D.OVERLAID
      370     9263    1        THEN CALL DDS$IC2NODE (SAVEIC);
      371     9264    1        GOTO REPORT;
      372     9265    1   REPORT_ONNODE: ;
      373     9266    1        CALL BINCHAR( BB$ ->CHAR2, S_D.IXFIX );
      374     9267    1        NCARS = 3;
      375     9268    1        CALL UPDTBP;
      376     9269    1        PTR$ = S_D.B$TREE$ -> B$TREE_NODE.NAME$( S_D.LAST_NODE_LOADED );
      377     9270    1        BB$->CHAR32 = PTR$->TEXTC.TEXT;
      378     9271    1        NCARS = PTR$->TEXTC.LEN+1;
      379     9272    1        CALL UPDTBP;
      380     9273    1        CALL DDR$MOVE( 'LOADED @ ', 9, BB$, REM) ALTRET(TOO_BIG);
      381     9274    1        GOTO REPORT_IBP;
      382     9275    1   REPORT_IBP:
      383     9276    2        IF SS.N = '0' THEN DO;
      384     9277    2             CALL DDR$MOVE ('TEST', 4, BB$, REM);
      385     9278    2             GOTO REPORT;
      386     9279    2           END;
      387     9280    1        CALL DDR$POSIT( SAVEIC, BB$, REM, NCARS ) ALTRET( TOO_BIG );
      388     9281    1        CALL UPDTBP;                       /* Update BB$, REM */
      389     9282    1        GOTO REPORT;
      390     9283    1   REPORT_STEP:
      391     9284    1        CALL DDR$POSIT( SAVEIC, BB$, REM, NCARS ) ALTRET( TOO_BIG );
      392     9285    1        CALL UPDTBP;                       /* Update BB$, REM */
PL6.E3A0      #001=DDR$REPORT File=DDR$REPORT.:E05TSI                            TUE 07/29/97 14:09 Page:12
      393     9286    1        CALL DDS$ES_INQ( SAVEIC ) ALTRET( STEP0 );
      394     9287    1        IF S_D.S$TEP.MODE = C@INSTRUCTIONS THEN GOTO STEP0;
      395     9288    1        IF S_D.QSCH.OK AND S_D.SCHEMA
      396     9289    1        THEN IF S_D.REPORT_FLAGS.OFFSET( S_D.LB0$ -> B$LBNTRY0.COMPILER )
      397     9290    1             THEN GOTO STEP0;              /* Report instruction */
      398     9291    1             ELSE ;                        /* Don't report instruction */
      399     9292    1        ELSE GOTO STEP0;
      400     9293    2        DO WHILE ( '0'B );
      401     9294    2   STEP0:    ;
      402     9295    2             CALL DDR$MOVE( '/ ', 2, BB$, REM ) ALTRET( TOO_BIG );
      403     9296    2             SAVE_D$ = S_D.D$;             /* DDR$INSTR uses S_D.D$, S_D.DESCL$ */
      404     9297    2             SAVE_DESCL$ = S_D.DESCL$;
      405     9298    2             S_D.D$ = BB$;
      406     9299    2             S_D.DESCL$ = PINCRC( S_D.D$, REM );
      407     9300    2             S_D.KILLEDEF = '1'B;
      408     9301    2             CALL DDR$INSTR( S_D.FAULTINS$ -> WIRD ) ALTRET( TOO_BIG_1 );
      409     9302    2             REM = REM - POFFC( S_D.D$, BB$ );
      410     9303    2             BB$ = S_D.D$;
      411     9304    2           END;
      412     9305    1        IF S_D.S$TEP.ALT AND S_D.S$TEP.ALTLOC = SAVEIC THEN
      413     9306    1             CALL DDR$MOVE (' *ALTRET*', 9, BB$, REM) ALTRET(TOO_BIG);
      414     9307    1        BB$->CHAR2 = '  ';
      415     9308    1        BB$ = PINCRC(BB$,2);               /* LEAVE SOME SPACE BEFORE THE PROMPT */
      416     9309    1   RESTORE:
      417     9310    1        S_D.D$ = SAVE_D$;
      418     9311    1        S_D.DESCL$ = SAVE_DESCL$;
      419     9312    1        GOTO REPORT;
      420     9313    1   TOO_BIG_1:
      421     9314    1        ERROR = E@BUFFULL;                 /* E@BUFFULL */
      422     9315    1        GOTO RESTORE;
      423     9316    1   REPORT_TRACECALLS:
      424     9317    1        PTR$ = PINCRW(S_D.EDEF$, S_D.QSCH.PEDEF#*SIZEW(B$EDEF));
      425     9318    1        IF PTR$->B$EDEF.CST = %ASYNC# OR PTR$->B$EDEF.CST = %XASYNC#
      426     9319    2        THEN DO;
      427     9320    2             TEMP = H_ATC;
      428     9321    2             X1 = PINCRW(UTCB$, UTCB$->B$TCBSTK.OFFSET)->B$SS.IC;
              9321                      /* Get ic from the users TCB */
PL6.E3A0      #001=DDR$REPORT File=DDR$REPORT.:E05TSI                            TUE 07/29/97 14:09 Page:13
      429     9322    2           END;
      430     9323    2        ELSE DO;
      431     9324    2             TEMP = H_TC;
      432     9325    2             X1 = S_D.USS$->B$SS.X1 - 1;
      433     9326    2           END;
      434     9327    1        IF S_D.HIST.ACTIVE
      435     9328    2        THEN DO;
      436     9329    3             IF S_D.OVERLAID THEN DO;
      437     9330    3                  CALL DDS$IC2NODE (X1, LNODE) ALTRET(ZERO);
      438     9331    3                  CALL DDS$IC2NODE (SAVEIC, RNODE) ALTRET(ZERO);
      439     9332    3                END;
      440     9333    3             ELSE DO;
      441     9334    3   ZERO:          LNODE=0;
      442     9335    3                  RNODE=0;
      443     9336    3                END;
      444     9337    2             CALL DDB$PUTHIST (TEMP, 0, X1, SAVEIC, LNODE, RNODE);
      445     9338    2           END;
      446     9339    1        IF S_D.TR$INFO.SILENT THEN RETURN;
      447     9340    1        CALL DDR$POSIT(X1, BB$, REM, NCARS) ALTRET(TOO_BIG);
      448     9341    1        CALL UPDTBP;
      449     9342    1        IF TEMP = H_TC THEN
      450     9343    1             CALL DDR$MOVE( ' <CALLED> ', 10, BB$, REM ) ALTRET(TOO_BIG);
      451     9344    1        ELSE CALL DDR$MOVE(' <ASYNC ENTRY> ', 15, BB$, REM) ALTRET (TOO_BIG);
      452     9345    1        CALL DDR$POSIT( SAVEIC, BB$, REM, NCARS ) ALTRET( TOO_BIG );
      453     9346    1        CALL UPDTBP;                       /* Update BB$, REM */
      454     9347    1        GOTO REPORT;
      455     9348    1   REPORT_WHEN:
      456     9349    1        CALL BINCHAR( BB$->CHAR2, S_D.IXFIX);
      457     9350    1        NCARS = 2;
      458     9351    1        CALL UPDTBP;
      459     9352    1        CALL DDR$MOVE ( ' WHEN_BRK@ ', 11, BB$, REM) ALTRET(TOO_BIG);
      460     9353    1        GOTO REPORT_IBP;
      461     9354    1   REPORT_WHENXEQ:
      462     9355    1        CALL BINCHAR( BB$->CHAR2, S_D.IXFIX);
      463     9356    1        NCARS = 2;
      464     9357    1        CALL UPDTBP;
      465     9358    1        CALL DDR$MOVE( ' WHEN_BRK during XEQ', 20, BB$, REM) ALTRET(TOO_BIG);
PL6.E3A0      #001=DDR$REPORT File=DDR$REPORT.:E05TSI                            TUE 07/29/97 14:09 Page:14
      466     9359    1        GOTO REPORT;
      467     9360    1   REPORT_WHENPMME:
      468     9361    1        CALL BINCHAR(BB$->CHAR2, S_D.IXFIX);
      469     9362    1        NCARS=2;
      470     9363    1        CALL UPDTBP;
      471     9364    1        CALL DDR$MOVE ( ' WHEN_BRK@ monitor call before ', 31, BB$, REM) ALTRET(TOO_BIG
              9364                 );
      472     9365    1        GOTO REPORT_IBP;
      473     9366    1   REPORT_WHENASL:
      474     9367    1        CALL BINCHAR(BB$->CHAR2, S_D.IXFIX);
      475     9368    1        NCARS = 2;
      476     9369    1        CALL UPDTBP;
      477     9370    1        CALL DDR$MOVE(' WHEN_BRK@ during ASL call before ', 34, BB$, REM) ALTRET(
              9370                 TOO_BIG);
      478     9371    1        GOTO REPORT_IBP;
      479     9372    1   REPORT_FAULT:
      480     9373    1        CALL DDR$MOVE( 'FAULT@ ', 7, BB$, REM ) ALTRET( TOO_BIG );
      481     9374    1        CALL DDR$POSIT( SAVEIC, BB$, REM, NCARS ) ALTRET( TOO_BIG );
      482     9375    1        CALL UPDTBP;                       /* Update BB$, REM */
      483     9376    1   REPORT_FAULT_TEXT:
      484     9377    1        FAULT = S_D.FAULT;
      485     9378    1   REPORT_FAULT_TEXT1:
      486     9379    1        CALL DDR$MOVE( ' FC = ', 6, BB$, REM ) ALTRET( TOO_BIG );
      487     9380    1        CALL DDR$BINTXT( BB$, FAULT, %OCT_FMT, NCARS );
      488     9381    1        CALL UPDTBP;                       /* Update BB$, REM */
      489     9382    1        CALL DDR$MOVE( ' -> ', 4, BB$, REM ) ALTRET( TOO_BIG );
      490     9383    1        CALL DDR$MOVE( FAULT_TEXT_PTR$( FAULT ) -> WIRD,
      491     9384    1          FAULT_TEXT_SIZE( FAULT ), BB$, REM ) ALTRET( TOO_BIG );
      492     9385    1        GOTO REPORT;
      493     9386    1   REPORT_SFAULT:
      494     9387    1        CALL DDR$MOVE( 'FAULT IN DELTA@ ', 16, BB$, REM ) ALTRET( TOO_BIG );
      495     9388    1        CALL DDR$BINTXT( BB$, DEL_FAULTLOC, %OCT_FMT, NCARS);
      496     9389    1        CALL UPDTBP;                       /* Update BB$, REM */
      497     9390    1        FAULT = DEL_FAULT;
      498     9391    1        GOTO REPORT_FAULT_TEXT1;
      499     9392    1   REPORT_XEQFLT:
      500     9393    1        CALL DDR$MOVE( 'XEQ FAULT', 9, BB$, REM ) ALTRET( TOO_BIG );
PL6.E3A0      #001=DDR$REPORT File=DDR$REPORT.:E05TSI                            TUE 07/29/97 14:09 Page:15
      501     9394    1        GOTO REPORT_FAULT_TEXT;
      502     9395    1   REPORT_BREAK:
      503     9396    1        CALL DDR$MOVE( 'BREAK IN DELTA', 14, BB$, REM ) ALTRET( TOO_BIG );
      504     9397    1        GOTO REPORT;
      505     9398    1   TOO_BIG:
      506     9399    1        ERROR = E@BUFFULL;                 /* E@BUFFULL */
      507     9400    1   REPORT:
      508     9401    1        MSG_LENGTH = POFFC( BB$, ADDR( S_D.OUTPUT ) );
      509     9402    1        IF EVENT = R_STEP
      510     9403    1        THEN CALL DDQ$WRITENU( ADDR( S_D.OUTPUT ), MSG_LENGTH );
      511     9404    1        ELSE CALL DDQ$WRITE( ADDR( S_D.OUTPUT ), MSG_LENGTH );
      512     9405    1        IF ERROR ~= 0
      513     9406    2        THEN DO;
      514     9407    2             S_D.ERROR = ERROR;
      515     9408    2             CALL DDE$ERROR;
      516     9409    2           END;
      517     9410                                                /**/
      518     9411    1        RETURN;
      519     9412        %EJECT;
PL6.E3A0      #001=DDR$REPORT File=DDR$REPORT.:E05TSI                            TUE 07/29/97 14:09 Page:16
      520     9413                                                /**/
      521     9414    1   UPDTBP: PROC;
      522     9415                                                /**/
      523     9416    2        BB$ = PINCRC( BB$, NCARS );
      524     9417    2        REM = REM - NCARS;
      525     9418                                                /**/
      526     9419    2        RETURN;
      527     9420                                                /**/
      528     9421    2   END UPDTBP;
      529     9422                                                /**/
      530     9423    1   END DDR$REPORT;

PL6.E3A0      #001=DDR$REPORT File=DDR$REPORT.:E05TSI                            TUE 07/29/97 14:09 Page:17
--  Include file information  --

   DD_SRTN_C.:E05TOU  is referenced.
   DD_ACODE_C.:E05TOU  is referenced.
   DD_ICODE_C.:E05TOU  is referenced.
   DD$DITEM.:E05TOU  cannot be made into a system file and is referenced.
   B_STRINGS_C.:E05TOU  is referenced.
   DD_ERR_C.:E05TOU  is referenced.
   DD_SD_M.:E05TOU  is referenced.
   XUH_MACRO_C.:E05TOU  is referenced.
   B$OBJECT_C.:E05TOU  is referenced.
   B$JIT.:E05TOU  cannot be made into a system file and is referenced.
   DD_PSUBS_C.:E05TOU  is referenced.
   DD_SUBS_C.:E05TOU  is referenced.
   CP_6.:E05TOU  cannot be made into a system file and is referenced.
   B$SS.:E05TOU  cannot be made into a system file and is referenced.
   B$JIT_C.:E05TOU  was found in the system file and is referenced.
   CP_6_C.:E05TOU  was found in the system file and is referenced.
      No diagnostics issued in procedure DDR$REPORT.

   Procedure DDR$REPORT requires 1374 words for executable code.
   Procedure DDR$REPORT requires 32 words of local(AUTO) storage.

    No errors detected in file DDR$REPORT.:E05TSI    .

PL6.E3A0      #001=DDR$REPORT File=DDR$REPORT.:E05TSI                            TUE 07/29/97 14:09 Page:18

 Object Unit name= DDR$REPORT                                 File name= DDR$REPORT.:E05TOU
 UTS= JUL 29 '97 14:09:44.88 TUE                              Compiler= PL-6/E31         Sev=      00
 SharedLib= :SHARED_SYSTEM                                    Alt SharedLib=


    ****  Control sections  ****

 Sect   Type Bound  Init  Size OctSiz  Section name(segment info)
    0  RoData even  UTS    291    443  DDR$REPORT
    1   DCB   even  none     0      0  M$UC
    2   Proc  even  none  1374   2536  DDR$REPORT
    3  RoData even  none   124    174  DDR$REPORT

    ****  Entry defs  ****

                              Check   Calling
                             calling  sequence
  Sect OctLoc Primary Altret sequence   type   Parms  Name
     2      0   yes            yes      Std        1  DDR$REPORT
PL6.E3A0      #001=DDR$REPORT File=DDR$REPORT.:E05TSI                            TUE 07/29/97 14:09 Page:19

  ****  Entry refs  ****

         Check        Calling
        calling       sequence
Altret sequence SRef   type   Args  Name
 yes     yes           Std       4 DDR$MOVE
 yes     yes           Std       2 DDS$IC2NODE
         yes           Std       4 DDR$BINTXT
 yes     yes           Std       5 DDR$POSIT
         yes           Std       2 DDQ$WRITE
         yes           Std       6 DDB$PUTHIST
         yes           Std       2 DDQ$WRITENU
 yes     yes           Std       1 DDS$ES_INQ
         yes           Std       0 DDE$ERROR
 yes     yes           Std       1 DDR$INSTR
                       nStd      0 X66_AUTO_1
                       Std       0 B_CONSPOOL_D
                       nStd      0 X66_ARET

  ****  Data refs  ****

  Flags:  r = read only, s = secondary
Flgs Name                             Flgs Name                             Flgs Name
     B_VERSION                             UJIT$                                 DCTX_ME
     M$UC                                  UTCB$                                 B$JIT$
r    S_D$                                  D_M$LM#                               D_XDELTA
     IRM_NOKP_SCR                          MIS$                                  IN_DEV
     OUT_DEV                               DEL_FAULTLOC                          DEL_FAULT
     B_VECTNIL

  ****  Segment refs  ****

  Flags:  r = read only, s = secondary
Flgs Name                             Flgs Name                             Flgs Name
     ISSID                                 ROSID
PL6.E3A0      #001=DDR$REPORT File=DDR$REPORT.:E05TSI                            TUE 07/29/97 14:09 Page:20


        1        1        /*M*  DDR$REPORT  */
        2        2        /*T***********************************************************/
        3        3        /*T*                                                         */
        4        4        /*T* Copyright (c) Bull HN Information Systems Inc., 1997    */
        5        5        /*T*                                                         */
        6        6        /*T***********************************************************/
        7        7        /*X* DMR,PLM=5,IND=5,CSU=3,EXM=0,ECU=3,MOC,DCI=5,CRT=5 */
        8        8        /*P*  NAME: DDR$REPORT
        9        9             PURPOSE: to report breaks, faults, and traces to the user. */
       10       10        /*D* NAME: DDR$REPORT
       11       11             CALL: CALL DDR$REPORT( EVENT );
       12       12             DESCRIPTION: TYPE IS THE CODE OF THE EVENT TO BE REPORTED.
       13       13                  IF USER DELTA AND THE PSEUDO SENSE SWITCH ARE 'TSTn' WHERE
       14       14                  n IS ANY CHARACTER, DELTA WILL NOT GIVE A VERSION NUMBER.
       15       15                  IF THE SWITCHES ARE 'TST0' THEN REPORT WILL NOT INCLUDE A
       16       16                  POSITION IN ITS MESSAGES. */
       17       17                                                /**/
       18       18        DDR$REPORT: PROC( EVENT );

     18  2 000000   000000 700200 xent  DDR$REPORT   TSX0  ! X66_AUTO_1
         2 000001   000040 000001                    ZERO    32,1

       19       19                                                /**/
       20       20    1   DCL TEMP UBIN;
       21       21    1   DCL EVENT UBIN;
       22       22    1   DCL X1 UBIN;
       23       23    1   DCL REM UBIN;
       24       24    1   DCL BB$ PTR;
       25       25    1   DCL PTR$ PTR;
       26       26    1   DCL MSG_LENGTH UBIN;
       27       27    1   DCL NCARS UBIN;
       28       28    1   DCL SAVEIC UBIN;
       29       29    1   DCL SAVE_D$ PTR;
       30       30    1   DCL SAVE_DESCL$ PTR;
       31       31    1   DCL FAULT UBIN;
       32       32    1   DCL ERROR UBIN;
PL6.E3A0      #001=DDR$REPORT File=DDR$REPORT.:E05TSI                            TUE 07/29/97 14:09 Page:21
       33       33    1   DCL LNODE UBIN;
       34       34    1   DCL RNODE UBIN;
       35       35    1   DCL SWITCH CHAR(4) ALIGNED;
       36       36    1   DCL 1 SS REDEF SWITCH,
       37       37    1         2 TST CHAR(3) UNAL,
       38       38    1         2 N CHAR(1) UNAL;
       39       39    1   DCL WIRD UBIN BASED;
       40       40    1   DCL CHAR2 CHAR(2) BASED;
       41       41    1   DCL CHAR4 CHAR(4) BASED;
       42       42    1   DCL CHAR32 CHAR(32) BASED;
       43       43    1   DCL 1 TEXTC BASED UNAL,
       44       44    1         2 LEN UBIN(9) UNAL,
       45       45    1         2 TEXT CHAR(TEXTC.LEN) UNAL;
       46       46    1   DCL F00 CHAR(0) CONSTANT INIT('SHUTDOWN');
       47       47    1   DCL F01 CHAR(0) CONSTANT INIT('MEMORY (STR)');
       48       48    1   DCL F02 CHAR(0) CONSTANT INIT('MASTER MODE ENTRY');
       49       49    1   DCL F03 CHAR(0) CONSTANT INIT('FAULT TAG');
       50       50    1   DCL F04 CHAR(0) CONSTANT INIT('TIMER RUNOUT');
       51       51    1   DCL F05 CHAR(0) CONSTANT INIT('COMMAND');
       52       52    1   DCL F06 CHAR(0) CONSTANT INIT('DERAIL');
       53       53    1   DCL F07 CHAR(0) CONSTANT INIT('LOCKUP');
       54       54    1   DCL F08 CHAR(0) CONSTANT INIT('CONNECT');
       55       55    1   DCL F09 CHAR(0) CONSTANT INIT('PARITY');
       56       56    1   DCL F10 CHAR(0) CONSTANT INIT('ILLEGAL PROCEDURE');
       57       57    1   DCL F11 CHAR(0) CONSTANT INIT('OPERATION NOT COMPLETE');
       58       58    1   DCL F12 CHAR(0) CONSTANT INIT('STARTUP');
       59       59    1   DCL F13 CHAR(0) CONSTANT INIT('OVERFLOW');
       60       60    1   DCL F14 CHAR(0) CONSTANT INIT('DIVIDE CHECK');
       61       61    1   DCL F15 CHAR(0) CONSTANT INIT('EXECUTE');
       62       62    1   DCL F16 CHAR(0) CONSTANT INIT('SECURITY - CLASS 1');
       63       63    1   DCL F17 CHAR(0) CONSTANT INIT('DYNAMIC LINKING');
       64       64    1   DCL F18 CHAR(0) CONSTANT INIT('MISSING SEGMENT');
       65       65    1   DCL F19 CHAR(0) CONSTANT INIT('MISSING WORKING SPACE');
       66       66    1   DCL F20 CHAR(0) CONSTANT INIT('MISSING PAGE');
       67       67    1   DCL F21 CHAR(0) CONSTANT INIT('SECURITY - CLASS 2');
       68       68        /* Array of pointers to fault code text, index = fault code */
       69       69    1   DCL FAULT_TEXT_PTR$(0:21) PTR CONSTANT INIT(
PL6.E3A0      #001=DDR$REPORT File=DDR$REPORT.:E05TSI                            TUE 07/29/97 14:09 Page:22
       70       70    1     ADDR(F00),
       71       71    1     ADDR(F01),
       72       72    1     ADDR(F02),
       73       73    1     ADDR(F03),
       74       74    1     ADDR(F04),
       75       75    1     ADDR(F05),
       76       76    1     ADDR(F06),
       77       77    1     ADDR(F07),
       78       78    1     ADDR(F08),
       79       79    1     ADDR(F09),
       80       80    1     ADDR(F10),
       81       81    1     ADDR(F11),
       82       82    1     ADDR(F12),
       83       83    1     ADDR(F13),
       84       84    1     ADDR(F14),
       85       85    1     ADDR(F15),
       86       86    1     ADDR(F16),
       87       87    1     ADDR(F17),
       88       88    1     ADDR(F18),
       89       89    1     ADDR(F19),
       90       90    1     ADDR(F20),
       91       91    1     ADDR(F21) );
       92       92        /* Sizes of fault code text */
       93       93    1   DCL FAULT_TEXT_SIZE(0:21) UBIN    CONSTANT INIT(
       94       94    1      8,12,17, 9,12,
       95       95    1      7, 6, 6, 7, 6,
       96       96    1     17,22, 7, 8,12,
       97       97    1      7,18,15,15,21,
       98       98    1     12,18);
       99       99    1   DCL 1 B_VERSION ALIGNED SYMREF,
      100      100    1         2 SIZE UBIN(9) CALIGNED,
      101      101    1         2 TEXT CHAR(1) CALIGNED;
      102      102    1   DCL DD_VERSIZE UBIN ALIGNED;
      103      103    1   DCL UJIT$ PTR SYMREF;
      104      104    1   DCL DCTX_ME UBIN SYMREF;
      105      105        %INCLUDE B$SS;
      106      284        %INCLUDE CP_6;
PL6.E3A0      #001=DDR$REPORT File=DDR$REPORT.:E05TSI                            TUE 07/29/97 14:09 Page:23
      107      365        %B$TCB;
      108      368    1   DCL UTCB$ PTR SYMREF;
      109      369        %INCLUDE DD_SUBS_C;
      110      640        %INCLUDE DD_PSUBS_C;
      111     1115        %INCLUDE B$JIT;
      112     1405    1   DCL B$JIT$ PTR SYMREF;
      113     1406        %INCLUDE B$OBJECT_C;
      114     4836        %B$TREE_TABLE (NODE_NAME="B$TREE_NODE(0:0)");
      115     4894        %B$EDEF;
      116     4964        %SUB_CST;
      117     4980        %B$LBNTRY0;
      118     5016        %INCLUDE XUH_MACRO_C;
      119     5100        %INCLUDE DD_SD_M;
      120     6436        %S_D;
      121     7754        %INCLUDE DD_ERR_C;
      122     8151        %INCLUDE B_STRINGS_C;
      123     8280        %INCLUDE DD$DITEM;
       12+    8383             %LIST;
       13+    8384    1        DCL SDD$ PTR;
       14+    8385    1        DCL ZITEM$ PTR;
       15+    8386    1        DCL SDD_L6$ PTR;
       16+    8387    1        DCL ZITEM_L6$ PTR;
      124     8961        %F$DCB;
      125     9018        /*N* THIS MUST BE CHANGED IF THE TCB STRUCTURE CHANGES (NOT LIKELY) */
      126     9019    1   DCL 1 B$TCBSTK BASED,
      127     9020    1         2 * UBIN,
      128     9021    1         2 OFFSET UBIN(18) UNAL,
      129     9022    1         2 * UBIN(18) UNAL;
      130     9023    1   DCL D_M$LM# UBIN SYMREF;
      131     9024    1   DCL D_XDELTA BIT(1) SYMREF;
      132     9025    1   DCL IRM_NOKP_SCR UBIN SYMREF;
      133     9026    1   DCL UBIN36 UBIN(36) BASED;
      134     9027    1   DCL MIS$ PTR SYMREF;
      135     9028    1   DCL IN_DEV UBIN SYMREF;
      136     9029    1   DCL OUT_DEV UBIN SYMREF;
      137     9030    1   DCL DEL_FAULTLOC UBIN SYMREF;
      138     9031    1   DCL DEL_FAULT UBIN SYMREF;
PL6.E3A0      #001=DDR$REPORT File=DDR$REPORT.:E05TSI                            TUE 07/29/97 14:09 Page:24
      139     9032    1   DCL DDR$POSIT ENTRY(5) ALTRET;
      140     9033    1   DCL DDR$BINTXT ENTRY(4);
      141     9034    1   DCL DDQ$WRITE   ENTRY(2);
      142     9035    1   DCL DDQ$WRITENU ENTRY(2);
      143     9036    1   DCL DDE$ERROR ENTRY;
      144     9037    1   DCL DDR$MOVE ENTRY(4) ALTRET;
      145     9038    1   DCL DDB$PUTHIST ENTRY(6);
      146     9039    1   DCL DDS$ES_INQ ENTRY(1) ALTRET;
      147     9040    1   DCL DDS$IC2NODE ENTRY(2) ALTRET;
      148     9041    1   DCL DDR$INSTR ENTRY(1) ALTRET;
      149     9042                                                /**/
      150     9043    1        IF NOT D_XDELTA THEN SWITCH = ADDR(B$JIT$->B$JIT.SWITCH(0))->CHAR4;

   9043  2 000002   000000 234000 xsym               SZN     D_XDELTA
         2 000003   000010 604000 2                  TMI     s:9044

   9043  2 000004   000000 470400 xsym               LDP0    B$JIT$
         2 000005   000031 236100                    LDQ     25,,PR0
         2 000006   200022 756100                    STQ     SWITCH,,AUTO
         2 000007   000012 710000 2                  TRA     s:9045

      151     9044    1        ELSE SWITCH = 'XDEL';              /* JUST SO IT DOESN'T SAY TST */

   9044  2 000010   000165 236000 0                  LDQ     FAULT_TEXT_SIZE+22
         2 000011   200022 756100                    STQ     SWITCH,,AUTO

      152     9045    1               ERROR = 0;

   9045  2 000012   200017 450100                    STZ     ERROR,,AUTO

      153     9046    1               SAVEIC = S_D.SAVEIC;        /* Convert to UBIN */

   9046  2 000013   000000 470400 xsym               LDP0    S_D$
         2 000014   000002 235100                    LDA     2,,PR0
         2 000015   200013 755100                    STA     SAVEIC,,AUTO

      154     9047    1               REM = LENGTHC( S_D.OUTPUT );
PL6.E3A0      #001=DDR$REPORT File=DDR$REPORT.:E05TSI                            TUE 07/29/97 14:09 Page:25

   9047  2 000016   004000 235007                    LDA     2048,DL
         2 000017   200006 755100                    STA     REM,,AUTO

      155     9048    1        BB$ = ADDR( S_D.OUTPUT );          /* Initialize the buffer pointer */

   9048  2 000020   000000 236000 xsym               LDQ     S_D$
         2 000021   005335 036003                    ADLQ    2781,DU
         2 000022   200007 756100                    STQ     BB$,,AUTO

      156     9049                                                /* Blank the buffer */
      157     9050    1        S_D.OUTPUT = ' ';

   9050  2 000023   040100 100400                    MLR     fill='040'O
         2 000024   000035 000001 xsym               ADSC9   B_VECTNIL+29             cn=0,n=1
         2 000025   005335 004000                    ADSC9   2781,,PR0                cn=0,n=2048

      158     9051        /* If the event occured in a wsq other than 1 (other than the
      159     9052           monitor, then precede the report with WSQ#) */
      160     9053    1        IF ( S_D.EWSQ# ~= %MONWSQ ) AND ( EVENT ~= R_SFAULT ) /* %MONWSQ */

   9053  2 000026   000011 235100                    LDA     9,,PR0
         2 000027   000001 115007                    CMPA    1,DL
         2 000030   000252 600000 2                  TZE     s:9080
         2 000031   200003 471500                    LDP1    @EVENT,,AUTO
         2 000032   100000 235100                    LDA     0,,PR1
         2 000033   000010 115007                    CMPA    8,DL
         2 000034   000252 600000 2                  TZE     s:9080

      161     9054    2        THEN DO;

      162     9055    3             DO CASE ( S_D.EWSQ# );

   9055  2 000035   000011 235100                    LDA     9,,PR0
         2 000036   000011 115007                    CMPA    9,DL
         2 000037   000041 602005 2                  TNC     s:9055+4,AL
         2 000040   000207 710000 2                  TRA     s:9074
PL6.E3A0      #001=DDR$REPORT File=DDR$REPORT.:E05TSI                            TUE 07/29/97 14:09 Page:26
         2 000041   000052 710000 2                  TRA     s:9057
         2 000042   000065 710000 2                  TRA     s:9059
         2 000043   000207 710000 2                  TRA     s:9074
         2 000044   000207 710000 2                  TRA     s:9074
         2 000045   000100 710000 2                  TRA     s:9061
         2 000046   000100 710000 2                  TRA     s:9061
         2 000047   000100 710000 2                  TRA     s:9061
         2 000050   000207 710000 2                  TRA     s:9074
         2 000051   000100 710000 2                  TRA     s:9061

      163     9056    3               CASE ( %REALWSQ );          /* %REALWSQ */

      164     9057    3                  CALL DDR$MOVE( '(Real', 5, BB$, REM );

   9057  2 000052   200006 633500                    EPPR3   REM,,AUTO
         2 000053   200035 453500                    STP3    DD_VERSIZE+10,,AUTO
         2 000054   200007 634500                    EPPR4   BB$,,AUTO
         2 000055   200034 454500                    STP4    DD_VERSIZE+9,,AUTO
         2 000056   000000 237000 3                  LDAQ    0
         2 000057   200032 757100                    STAQ    DD_VERSIZE+7,,AUTO
         2 000060   200032 630500                    EPPR0   DD_VERSIZE+7,,AUTO
         2 000061   000022 631400 xsym               EPPR1   B_VECTNIL+18
         2 000062   000000 701000 xent               TSX1    DDR$MOVE
         2 000063   000000 011000                    NOP     0
         2 000064   000240 710000 2                  TRA     s:9078

      165     9058    3               CASE ( %MONWSQ );           /* HUH? - %MONWSQ */

      166     9059    3                  CALL DDR$MOVE( '(Huh?', 5, BB$, REM );

   9059  2 000065   200006 633500                    EPPR3   REM,,AUTO
         2 000066   200035 453500                    STP3    DD_VERSIZE+10,,AUTO
         2 000067   200007 634500                    EPPR4   BB$,,AUTO
         2 000070   200034 454500                    STP4    DD_VERSIZE+9,,AUTO
         2 000071   000002 237000 3                  LDAQ    2
         2 000072   200032 757100                    STAQ    DD_VERSIZE+7,,AUTO
         2 000073   200032 630500                    EPPR0   DD_VERSIZE+7,,AUTO
PL6.E3A0      #001=DDR$REPORT File=DDR$REPORT.:E05TSI                            TUE 07/29/97 14:09 Page:27
         2 000074   000022 631400 xsym               EPPR1   B_VECTNIL+18
         2 000075   000000 701000 xent               TSX1    DDR$MOVE
         2 000076   000000 011000                    NOP     0
         2 000077   000240 710000 2                  TRA     s:9078

      167     9060    3               CASE ( %CPWSQ, %DBWSQ, %ASLWSQ, %USERWSQ );
              9060                        /* %CPWSQ, %DBWSQ, %ASLWSQ, %USERWSQ */

      168     9061    3                  TEMP = UJIT$ -> B$JIT.USER; /* User number */

   9061  2 000100   000000 473400 xsym               LDP3    UJIT$
         2 000101   300000 236100                    LDQ     0,,PR3
         2 000102   000022 772000                    QRL     18
         2 000103   000777 376007                    ANQ     511,DL
         2 000104   200004 756100                    STQ     TEMP,,AUTO

      169     9062    3                  CALL DDR$MOVE( '(User#', 6, BB$, REM );

   9062  2 000105   200006 634500                    EPPR4   REM,,AUTO
         2 000106   200035 454500                    STP4    DD_VERSIZE+10,,AUTO
         2 000107   200007 635500                    EPPR5   BB$,,AUTO
         2 000110   200034 455500                    STP5    DD_VERSIZE+9,,AUTO
         2 000111   000004 237000 3                  LDAQ    4
         2 000112   200032 757100                    STAQ    DD_VERSIZE+7,,AUTO
         2 000113   200032 630500                    EPPR0   DD_VERSIZE+7,,AUTO
         2 000114   000022 631400 xsym               EPPR1   B_VECTNIL+18
         2 000115   000000 701000 xent               TSX1    DDR$MOVE
         2 000116   000000 011000                    NOP     0

      170     9063    3                  CALL DDR$BINTXT( BB$, TEMP, %OCT_FMT, NCARS );

   9063  2 000117   200012 630500                    EPPR0   NCARS,,AUTO
         2 000120   200035 450500                    STP0    DD_VERSIZE+10,,AUTO
         2 000121   000006 236000 3                  LDQ     6
         2 000122   200034 756100                    STQ     DD_VERSIZE+9,,AUTO
         2 000123   200004 631500                    EPPR1   TEMP,,AUTO
         2 000124   200033 451500                    STP1    DD_VERSIZE+8,,AUTO
PL6.E3A0      #001=DDR$REPORT File=DDR$REPORT.:E05TSI                            TUE 07/29/97 14:09 Page:28
         2 000125   200007 633500                    EPPR3   BB$,,AUTO
         2 000126   200032 453500                    STP3    DD_VERSIZE+7,,AUTO
         2 000127   200032 630500                    EPPR0   DD_VERSIZE+7,,AUTO
         2 000130   000022 631400 xsym               EPPR1   B_VECTNIL+18
         2 000131   000000 701000 xent               TSX1    DDR$BINTXT
         2 000132   000000 011000                    NOP     0

      171     9064    3                  CALL UPDTBP;             /* Update BB$, REM */

   9064  2 000133   002525 701000 2                  TSX1    UPDTBP
         2 000134   000000 011000                    NOP     0

      172     9065    4                  DO CASE ( S_D.EWSQ# );

   9065  2 000135   000000 470400 xsym               LDP0    S_D$
         2 000136   000011 235100                    LDA     9,,PR0
         2 000137   000004 135007                    SBLA    4,DL
         2 000140   000003 115007                    CMPA    3,DL
         2 000141   000143 602005 2                  TNC     s:9065+6,AL
         2 000142   000240 710000 2                  TRA     s:9078
         2 000143   000146 710000 2                  TRA     s:9067
         2 000144   000161 710000 2                  TRA     s:9069
         2 000145   000174 710000 2                  TRA     s:9071

      173     9066    4                    CASE ( %CPWSQ );       /* %CPWSQ */

      174     9067    4                       CALL DDR$MOVE( ',ICP', 4, BB$, REM );

   9067  2 000146   200006 631500                    EPPR1   REM,,AUTO
         2 000147   200035 451500                    STP1    DD_VERSIZE+10,,AUTO
         2 000150   200007 633500                    EPPR3   BB$,,AUTO
         2 000151   200034 453500                    STP3    DD_VERSIZE+9,,AUTO
         2 000152   000010 237000 3                  LDAQ    8
         2 000153   200032 757100                    STAQ    DD_VERSIZE+7,,AUTO
         2 000154   200032 630500                    EPPR0   DD_VERSIZE+7,,AUTO
         2 000155   000022 631400 xsym               EPPR1   B_VECTNIL+18
         2 000156   000000 701000 xent               TSX1    DDR$MOVE
PL6.E3A0      #001=DDR$REPORT File=DDR$REPORT.:E05TSI                            TUE 07/29/97 14:09 Page:29
         2 000157   000000 011000                    NOP     0
         2 000160   000240 710000 2                  TRA     s:9078

      175     9068    4                    CASE ( %DBWSQ );       /* %DBWSQ */

      176     9069    4                       CALL DDR$MOVE( ',IDB', 4, BB$, REM );

   9069  2 000161   200006 631500                    EPPR1   REM,,AUTO
         2 000162   200035 451500                    STP1    DD_VERSIZE+10,,AUTO
         2 000163   200007 633500                    EPPR3   BB$,,AUTO
         2 000164   200034 453500                    STP3    DD_VERSIZE+9,,AUTO
         2 000165   000012 237000 3                  LDAQ    10
         2 000166   200032 757100                    STAQ    DD_VERSIZE+7,,AUTO
         2 000167   200032 630500                    EPPR0   DD_VERSIZE+7,,AUTO
         2 000170   000022 631400 xsym               EPPR1   B_VECTNIL+18
         2 000171   000000 701000 xent               TSX1    DDR$MOVE
         2 000172   000000 011000                    NOP     0
         2 000173   000240 710000 2                  TRA     s:9078

      177     9070    4                    CASE ( %ASLWSQ );      /* %ASLWSQ */

      178     9071    4                       CALL DDR$MOVE( ',ASL', 4, BB$, REM );

   9071  2 000174   200006 631500                    EPPR1   REM,,AUTO
         2 000175   200035 451500                    STP1    DD_VERSIZE+10,,AUTO
         2 000176   200007 633500                    EPPR3   BB$,,AUTO
         2 000177   200034 453500                    STP3    DD_VERSIZE+9,,AUTO
         2 000200   000014 237000 3                  LDAQ    12
         2 000201   200032 757100                    STAQ    DD_VERSIZE+7,,AUTO
         2 000202   200032 630500                    EPPR0   DD_VERSIZE+7,,AUTO
         2 000203   000022 631400 xsym               EPPR1   B_VECTNIL+18
         2 000204   000000 701000 xent               TSX1    DDR$MOVE
         2 000205   000000 011000                    NOP     0

      179     9072    4                    END;

   9072  2 000206   000240 710000 2                  TRA     s:9078
PL6.E3A0      #001=DDR$REPORT File=DDR$REPORT.:E05TSI                            TUE 07/29/97 14:09 Page:30

      180     9073    3               CASE ( ELSE );

      181     9074    3                  CALL DDR$MOVE( '(EWSQ#', 6, BB$, REM );

   9074  2 000207   200006 633500                    EPPR3   REM,,AUTO
         2 000210   200035 453500                    STP3    DD_VERSIZE+10,,AUTO
         2 000211   200007 634500                    EPPR4   BB$,,AUTO
         2 000212   200034 454500                    STP4    DD_VERSIZE+9,,AUTO
         2 000213   000016 237000 3                  LDAQ    14
         2 000214   200032 757100                    STAQ    DD_VERSIZE+7,,AUTO
         2 000215   200032 630500                    EPPR0   DD_VERSIZE+7,,AUTO
         2 000216   000022 631400 xsym               EPPR1   B_VECTNIL+18
         2 000217   000000 701000 xent               TSX1    DDR$MOVE
         2 000220   000000 011000                    NOP     0

      182     9075    3                  CALL DDR$BINTXT( BB$, S_D.EWSQ#, %OCT_FMT, NCARS );

   9075  2 000221   200012 630500                    EPPR0   NCARS,,AUTO
         2 000222   200035 450500                    STP0    DD_VERSIZE+10,,AUTO
         2 000223   000006 236000 3                  LDQ     6
         2 000224   200034 756100                    STQ     DD_VERSIZE+9,,AUTO
         2 000225   000000 236000 xsym               LDQ     S_D$
         2 000226   000011 036003                    ADLQ    9,DU
         2 000227   200033 756100                    STQ     DD_VERSIZE+8,,AUTO
         2 000230   200007 631500                    EPPR1   BB$,,AUTO
         2 000231   200032 451500                    STP1    DD_VERSIZE+7,,AUTO
         2 000232   200032 630500                    EPPR0   DD_VERSIZE+7,,AUTO
         2 000233   000022 631400 xsym               EPPR1   B_VECTNIL+18
         2 000234   000000 701000 xent               TSX1    DDR$BINTXT
         2 000235   000000 011000                    NOP     0

      183     9076    3                  CALL UPDTBP;             /* Update BB$, REM */

   9076  2 000236   002525 701000 2                  TSX1    UPDTBP
         2 000237   000000 011000                    NOP     0

PL6.E3A0      #001=DDR$REPORT File=DDR$REPORT.:E05TSI                            TUE 07/29/97 14:09 Page:31
      184     9077    3               END;

      185     9078    2             CALL DDR$MOVE( ') ', 2, BB$, REM );

   9078  2 000240   200006 630500                    EPPR0   REM,,AUTO
         2 000241   200035 450500                    STP0    DD_VERSIZE+10,,AUTO
         2 000242   200007 631500                    EPPR1   BB$,,AUTO
         2 000243   200034 451500                    STP1    DD_VERSIZE+9,,AUTO
         2 000244   000020 237000 3                  LDAQ    16
         2 000245   200032 757100                    STAQ    DD_VERSIZE+7,,AUTO
         2 000246   200032 630500                    EPPR0   DD_VERSIZE+7,,AUTO
         2 000247   000022 631400 xsym               EPPR1   B_VECTNIL+18
         2 000250   000000 701000 xent               TSX1    DDR$MOVE
         2 000251   000000 011000                    NOP     0

      186     9079    2           END;

      187     9080    2        DO CASE(EVENT);

   9080  2 000252   200003 470500                    LDP0    @EVENT,,AUTO
         2 000253   000000 235100                    LDA     0,,PR0
         2 000254   000035 115007                    CMPA    29,DL
         2 000255   000257 602005 2                  TNC     s:9080+5,AL
         2 000256   000341 710000 2                  TRA     s:9125
         2 000257   000341 710000 2                  TRA     s:9125
         2 000260   000314 710000 2                  TRA     s:9082
         2 000261   000315 710000 2                  TRA     s:9084
         2 000262   000316 710000 2                  TRA     s:9086
         2 000263   000317 710000 2                  TRA     s:9088
         2 000264   000321 710000 2                  TRA     s:9092
         2 000265   000320 710000 2                  TRA     s:9090
         2 000266   000322 710000 2                  TRA     s:9094
         2 000267   000323 710000 2                  TRA     s:9096
         2 000270   000341 710000 2                  TRA     s:9125
         2 000271   000324 710000 2                  TRA     s:9098
         2 000272   000326 710000 2                  TRA     s:9102
         2 000273   000326 710000 2                  TRA     s:9102
PL6.E3A0      #001=DDR$REPORT File=DDR$REPORT.:E05TSI                            TUE 07/29/97 14:09 Page:32
         2 000274   000325 710000 2                  TRA     s:9100
         2 000275   000327 710000 2                  TRA     s:9104
         2 000276   000330 710000 2                  TRA     s:9106
         2 000277   000332 710000 2                  TRA     s:9110
         2 000300   000326 710000 2                  TRA     s:9102
         2 000301   000326 710000 2                  TRA     s:9102
         2 000302   000326 710000 2                  TRA     s:9102
         2 000303   000341 710000 2                  TRA     s:9125
         2 000304   000334 710000 2                  TRA     s:9114
         2 000305   000333 710000 2                  TRA     s:9112
         2 000306   000331 710000 2                  TRA     s:9108
         2 000307   000335 710000 2                  TRA     s:9116
         2 000310   000336 710000 2                  TRA     s:9118
         2 000311   000326 710000 2                  TRA     s:9102
         2 000312   000337 710000 2                  TRA     s:9120
         2 000313   000340 710000 2                  TRA     s:9122

      188     9081    2          CASE(R_AT);

      189     9082    2             GOTO REPORT_AT;

   9082  2 000314   001315 710000 2                  TRA     REPORT_AT

      190     9083    2          CASE(R_ONCALL);

      191     9084    2             GOTO REPORT_ONCALL;

   9084  2 000315   001341 710000 2                  TRA     REPORT_ONCALL

      192     9085    2          CASE(R_USERFLT);

      193     9086    2             GOTO REPORT_FAULT;

   9086  2 000316   002254 710000 2                  TRA     REPORT_FAULT

      194     9087    2          CASE(R_XEQFLT);

PL6.E3A0      #001=DDR$REPORT File=DDR$REPORT.:E05TSI                            TUE 07/29/97 14:09 Page:33
      195     9088    2             GOTO REPORT_XEQFLT;

   9088  2 000317   002422 710000 2                  TRA     REPORT_XEQFLT

      196     9089    2          CASE(R_STEP);

      197     9090    2             GOTO REPORT_STEP;

   9090  2 000320   001563 710000 2                  TRA     REPORT_STEP

      198     9091    2          CASE(R_TRACECALLS);

      199     9092    2             GOTO REPORT_TRACECALLS;

   9092  2 000321   001740 710000 2                  TRA     REPORT_TRACECALLS

      200     9093    2          CASE(R_WHEN);

      201     9094    2             GOTO REPORT_WHEN;

   9094  2 000322   002134 710000 2                  TRA     REPORT_WHEN

      202     9095    2          CASE(R_SFAULT);

      203     9096    2             GOTO REPORT_SFAULT;

   9096  2 000323   002367 710000 2                  TRA     REPORT_SFAULT

      204     9097    2          CASE(R_BREAK);

      205     9098    2             GOTO REPORT_BREAK;

   9098  2 000324   002435 710000 2                  TRA     REPORT_BREAK

      206     9099    2          CASE(R_ONNODE);

      207     9100    2             GOTO REPORT_ONNODE;
PL6.E3A0      #001=DDR$REPORT File=DDR$REPORT.:E05TSI                            TUE 07/29/97 14:09 Page:34

   9100  2 000325   001452 710000 2                  TRA     REPORT_ONNODE

      208     9101    2          CASE(R_DELTA, R_DELTA_ONLY, R_ALIB, R_ANLZ, R_RUM, R_AUTOS);

      209     9102    2             GOTO REPORT_DELTA;

   9102  2 000326   000615 710000 2                  TRA     REPORT_DELTA

      210     9103    2          CASE(R_PATCH);

      211     9104    2             GOTO REPORT_PATCH;

   9104  2 000327   000350 710000 2                  TRA     REPORT_PATCH

      212     9105    2          CASE(R_LINKIN);

      213     9106    2             GOTO REPORT_LINKIN;

   9106  2 000330   000432 710000 2                  TRA     REPORT_LINKIN

      214     9107    2          CASE(R_LDTRCIN);

      215     9108    2             GOTO REPORT_LDTRCIN;

   9108  2 000331   000417 710000 2                  TRA     REPORT_LDTRCIN

      216     9109    2          CASE(R_LINKRTN);

      217     9110    2             GOTO REPORT_LINKRTN;

   9110  2 000332   000534 710000 2                  TRA     REPORT_LINKRTN

      218     9111    2          CASE(R_TTLOST);

      219     9112    2             GOTO REPORT_TTLOST;

PL6.E3A0      #001=DDR$REPORT File=DDR$REPORT.:E05TSI                            TUE 07/29/97 14:09 Page:35
   9112  2 000333   000547 710000 2                  TRA     REPORT_TTLOST

      220     9113    2          CASE(R_SCREECH);

      221     9114    2             GOTO REPORT_SCREECH;

   9114  2 000334   000562 710000 2                  TRA     REPORT_SCREECH

      222     9115    2          CASE(R_WHENXEQ);

      223     9116    2             GOTO REPORT_WHENXEQ;

   9116  2 000335   002160 710000 2                  TRA     REPORT_WHENXEQ

      224     9117    2          CASE(R_WHENPMME);

      225     9118    2             GOTO REPORT_WHENPMME;

   9118  2 000336   002204 710000 2                  TRA     REPORT_WHENPMME

      226     9119    2          CASE(R_WHENASL);

      227     9120    2             GOTO REPORT_WHENASL;

   9120  2 000337   002230 710000 2                  TRA     REPORT_WHENASL

      228     9121    2          CASE(R_STOP);

      229     9122    2             GOTO REPORT_STOP;

   9122  2 000340   000602 710000 2                  TRA     REPORT_STOP

      230     9123    2          CASE(ELSE);

      231     9124        /* Report error & split */
      232     9125    2             S_D.ERROR = E@DELBUG;         /* E@DELBUG */

PL6.E3A0      #001=DDR$REPORT File=DDR$REPORT.:E05TSI                            TUE 07/29/97 14:09 Page:36
   9125  2 000341   000766 236007                    LDQ     502,DL
         2 000342   000000 471400 xsym               LDP1    S_D$
         2 000343   100013 756100                    STQ     11,,PR1

      233     9126    2             CALL DDE$ERROR;

   9126  2 000344   000002 631400 xsym               EPPR1   B_VECTNIL+2
         2 000345   000000 701000 xent               TSX1    DDE$ERROR
         2 000346   000000 011000                    NOP     0

      234     9127    2             RETURN;

   9127  2 000347   000000 702200 xent               TSX2  ! X66_ARET

      235     9128    2          END;                             /* DO CASE */

      236     9129    1   REPORT_PATCH:
      237     9130    1        DD_VERSIZE = B_VERSION.SIZE;

   9130  2 000350   000000 236000 xsym  REPORT_PATCH LDQ     B_VERSION
         2 000351   000033 772000                    QRL     27
         2 000352   200023 756100                    STQ     DD_VERSIZE,,AUTO

      238     9131    1        CALL DDR$MOVE('MON/GHOST1 patches may now be entered. (XDELTA ',

   9131  2 000353   200006 631500                    EPPR1   REM,,AUTO
         2 000354   200035 451500                    STP1    DD_VERSIZE+10,,AUTO
         2 000355   200007 633500                    EPPR3   BB$,,AUTO
         2 000356   200034 453500                    STP3    DD_VERSIZE+9,,AUTO
         2 000357   000024 237000 3                  LDAQ    20
         2 000360   200032 757100                    STAQ    DD_VERSIZE+7,,AUTO
         2 000361   200032 630500                    EPPR0   DD_VERSIZE+7,,AUTO
         2 000362   000022 631400 xsym               EPPR1   B_VECTNIL+18
         2 000363   000000 701000 xent               TSX1    DDR$MOVE
         2 000364   000000 011000                    NOP     0

      239     9132    1          LENGTHC('MON/GHOST1 patches may now be entered. (XDELTA '),
PL6.E3A0      #001=DDR$REPORT File=DDR$REPORT.:E05TSI                            TUE 07/29/97 14:09 Page:37
      240     9133    1          BB$, REM);
      241     9134    1        CALL DDR$MOVE(B_VERSION.TEXT, DD_VERSIZE, BB$, REM);

   9134  2 000365   200006 630500                    EPPR0   REM,,AUTO
         2 000366   200035 450500                    STP0    DD_VERSIZE+10,,AUTO
         2 000367   200007 631500                    EPPR1   BB$,,AUTO
         2 000370   200034 451500                    STP1    DD_VERSIZE+9,,AUTO
         2 000371   200023 633500                    EPPR3   DD_VERSIZE,,AUTO
         2 000372   200033 453500                    STP3    DD_VERSIZE+8,,AUTO
         2 000373   000023 236000 3                  LDQ     19
         2 000374   200032 756100                    STQ     DD_VERSIZE+7,,AUTO
         2 000375   200032 630500                    EPPR0   DD_VERSIZE+7,,AUTO
         2 000376   000022 631400 xsym               EPPR1   B_VECTNIL+18
         2 000377   000000 701000 xent               TSX1    DDR$MOVE
         2 000400   000000 011000                    NOP     0

      242     9135    1        CALL DDR$MOVE(')', 1, BB$, REM);

   9135  2 000401   200006 630500                    EPPR0   REM,,AUTO
         2 000402   200035 450500                    STP0    DD_VERSIZE+10,,AUTO
         2 000403   200007 631500                    EPPR1   BB$,,AUTO
         2 000404   200034 451500                    STP1    DD_VERSIZE+9,,AUTO
         2 000405   000030 237000 3                  LDAQ    24
         2 000406   200032 757100                    STAQ    DD_VERSIZE+7,,AUTO
         2 000407   200032 630500                    EPPR0   DD_VERSIZE+7,,AUTO
         2 000410   000022 631400 xsym               EPPR1   B_VECTNIL+18
         2 000411   000000 701000 xent               TSX1    DDR$MOVE
         2 000412   000000 011000                    NOP     0

      243     9136    1        IN_DEV = DCTX_ME;

   9136  2 000413   000000 235000 xsym               LDA     DCTX_ME
         2 000414   000000 755000 xsym               STA     IN_DEV

      244     9137    1        OUT_DEV = DCTX_ME;

   9137  2 000415   000000 755000 xsym               STA     OUT_DEV
PL6.E3A0      #001=DDR$REPORT File=DDR$REPORT.:E05TSI                            TUE 07/29/97 14:09 Page:38

      245     9138    1        GOTO REPORT;

   9138  2 000416   002452 710000 2                  TRA     REPORT

      246     9139    1   REPORT_LDTRCIN:
      247     9140    1        CALL DDR$MOVE('M$LDTRC to ', 11, BB$, REM);

   9140  2 000417   200006 631500       REPORT_LDTR* EPPR1   REM,,AUTO
         2 000420   200035 451500                    STP1    DD_VERSIZE+10,,AUTO
         2 000421   200007 633500                    EPPR3   BB$,,AUTO
         2 000422   200034 453500                    STP3    DD_VERSIZE+9,,AUTO
         2 000423   000032 237000 3                  LDAQ    26
         2 000424   200032 757100                    STAQ    DD_VERSIZE+7,,AUTO
         2 000425   200032 630500                    EPPR0   DD_VERSIZE+7,,AUTO
         2 000426   000022 631400 xsym               EPPR1   B_VECTNIL+18
         2 000427   000000 701000 xent               TSX1    DDR$MOVE
         2 000430   000000 011000                    NOP     0

      248     9141    1        GOTO RL1;

   9141  2 000431   000444 710000 2                  TRA     RL1

      249     9142    1   REPORT_LINKIN:
      250     9143    1        CALL DDR$MOVE('M$LINK to ', 10, BB$, REM);

   9143  2 000432   200006 631500       REPORT_LINK* EPPR1   REM,,AUTO
         2 000433   200035 451500                    STP1    DD_VERSIZE+10,,AUTO
         2 000434   200007 633500                    EPPR3   BB$,,AUTO
         2 000435   200034 453500                    STP3    DD_VERSIZE+9,,AUTO
         2 000436   000034 237000 3                  LDAQ    28
         2 000437   200032 757100                    STAQ    DD_VERSIZE+7,,AUTO
         2 000440   200032 630500                    EPPR0   DD_VERSIZE+7,,AUTO
         2 000441   000022 631400 xsym               EPPR1   B_VECTNIL+18
         2 000442   000000 701000 xent               TSX1    DDR$MOVE
         2 000443   000000 011000                    NOP     0

PL6.E3A0      #001=DDR$REPORT File=DDR$REPORT.:E05TSI                            TUE 07/29/97 14:09 Page:39
      251     9144    1   RL1:
      252     9145    1        PTR$ = ADDR(DCBADDR(D_M$LM#)->F$DCB.NAME#);

   9145  2 000444   000027 470400 3     RL1          LDP0    23
         2 000445   000000 471500                    LDP1    0,,PR0
         2 000446   000000 720000 xsym               LXL0    D_M$LM#
         2 000447   100000 473510                    LDP3    0,X0,PR1
         2 000450   300010 634500                    EPPR4   8,,PR3
         2 000451   200010 454500                    STP4    PTR$,,AUTO

      253     9146    1        BB$->CHAR32 = PTR$->TEXTC.TEXT;

   9146  2 000452   000100 101500                    MRL     fill='000'O
         2 000453   400000 000001                    ADSC9   0,,PR4                   cn=0,n=1
         2 000454   200032 000002                    ADSC9   DD_VERSIZE+7,,AUTO       cn=0,n=2
         2 000455   200032 221100                    LDX1    DD_VERSIZE+7,,AUTO
         2 000456   200007 475500                    LDP5    BB$,,AUTO
         2 000457   040100 100540                    MLR     fill='040'O
         2 000460   400000 200011                    ADSC9   0,,PR4                   cn=1,n=*X1
         2 000461   500000 000040                    ADSC9   0,,PR5                   cn=0,n=32

      254     9147    1        NCARS = PTR$->TEXTC.LEN;

   9147  2 000462   000100 101500                    MRL     fill='000'O
         2 000463   400000 000001                    ADSC9   0,,PR4                   cn=0,n=1
         2 000464   200012 000004                    ADSC9   NCARS,,AUTO              cn=0,n=4

      255     9148    1        CALL UPDTBP;

   9148  2 000465   002525 701000 2                  TSX1    UPDTBP
         2 000466   000000 011000                    NOP     0

      256     9149    1        CALL DDR$MOVE('.', 1, BB$, REM);

   9149  2 000467   200006 630500                    EPPR0   REM,,AUTO
         2 000470   200035 450500                    STP0    DD_VERSIZE+10,,AUTO
         2 000471   200007 631500                    EPPR1   BB$,,AUTO
PL6.E3A0      #001=DDR$REPORT File=DDR$REPORT.:E05TSI                            TUE 07/29/97 14:09 Page:40
         2 000472   200034 451500                    STP1    DD_VERSIZE+9,,AUTO
         2 000473   000040 237000 3                  LDAQ    32
         2 000474   200032 757100                    STAQ    DD_VERSIZE+7,,AUTO
         2 000475   200032 630500                    EPPR0   DD_VERSIZE+7,,AUTO
         2 000476   000022 631400 xsym               EPPR1   B_VECTNIL+18
         2 000477   000000 701000 xent               TSX1    DDR$MOVE
         2 000500   000000 011000                    NOP     0

      257     9150    1        CALL DDR$MOVE(DCBADDR(D_M$LM#)->F$DCB.ACCT#, 9, BB$, REM);

   9150  2 000501   000027 470400 3                  LDP0    23
         2 000502   000000 471500                    LDP1    0,,PR0
         2 000503   000000 720000 xsym               LXL0    D_M$LM#
         2 000504   100000 473510                    LDP3    0,X0,PR1
         2 000505   200006 634500                    EPPR4   REM,,AUTO
         2 000506   200035 454500                    STP4    DD_VERSIZE+10,,AUTO
         2 000507   200007 635500                    EPPR5   BB$,,AUTO
         2 000510   200034 455500                    STP5    DD_VERSIZE+9,,AUTO
         2 000511   000037 236000 3                  LDQ     31
         2 000512   200033 756100                    STQ     DD_VERSIZE+8,,AUTO
         2 000513   300020 636500                    EPPR6   16,,PR3
         2 000514   200032 456500                    STP6    DD_VERSIZE+7,,AUTO
         2 000515   200032 630500                    EPPR0   DD_VERSIZE+7,,AUTO
         2 000516   000022 631400 xsym               EPPR1   B_VECTNIL+18
         2 000517   000000 701000 xent               TSX1    DDR$MOVE
         2 000520   000000 011000                    NOP     0

      258     9151    1        CALL DDR$MOVE('IC = ', 5, BB$, REM);

   9151  2 000521   200006 630500                    EPPR0   REM,,AUTO
         2 000522   200035 450500                    STP0    DD_VERSIZE+10,,AUTO
         2 000523   200007 631500                    EPPR1   BB$,,AUTO
         2 000524   200034 451500                    STP1    DD_VERSIZE+9,,AUTO
         2 000525   000042 237000 3                  LDAQ    34
         2 000526   200032 757100                    STAQ    DD_VERSIZE+7,,AUTO
         2 000527   200032 630500                    EPPR0   DD_VERSIZE+7,,AUTO
         2 000530   000022 631400 xsym               EPPR1   B_VECTNIL+18
PL6.E3A0      #001=DDR$REPORT File=DDR$REPORT.:E05TSI                            TUE 07/29/97 14:09 Page:41
         2 000531   000000 701000 xent               TSX1    DDR$MOVE
         2 000532   000000 011000                    NOP     0

      259     9152    1        GOTO REPORT_IBP;

   9152  2 000533   001525 710000 2                  TRA     REPORT_IBP

      260     9153    1   REPORT_LINKRTN:
      261     9154    1        CALL DDR$MOVE('Return from M$LINK, IC = ', 25, BB$, REM);

   9154  2 000534   200006 631500       REPORT_LINK* EPPR1   REM,,AUTO
         2 000535   200035 451500                    STP1    DD_VERSIZE+10,,AUTO
         2 000536   200007 633500                    EPPR3   BB$,,AUTO
         2 000537   200034 453500                    STP3    DD_VERSIZE+9,,AUTO
         2 000540   000046 237000 3                  LDAQ    38
         2 000541   200032 757100                    STAQ    DD_VERSIZE+7,,AUTO
         2 000542   200032 630500                    EPPR0   DD_VERSIZE+7,,AUTO
         2 000543   000022 631400 xsym               EPPR1   B_VECTNIL+18
         2 000544   000000 701000 xent               TSX1    DDR$MOVE
         2 000545   000000 011000                    NOP     0

      262     9155    1        GOTO REPORT_IBP;

   9155  2 000546   001525 710000 2                  TRA     REPORT_IBP

      263     9156    1   REPORT_TTLOST:
      264     9157    1        CALL DDR$MOVE('Trace Transfer lost @ ', 22, BB$, REM);

   9157  2 000547   200006 631500       REPORT_TTLO* EPPR1   REM,,AUTO
         2 000550   200035 451500                    STP1    DD_VERSIZE+10,,AUTO
         2 000551   200007 633500                    EPPR3   BB$,,AUTO
         2 000552   200034 453500                    STP3    DD_VERSIZE+9,,AUTO
         2 000553   000050 237000 3                  LDAQ    40
         2 000554   200032 757100                    STAQ    DD_VERSIZE+7,,AUTO
         2 000555   200032 630500                    EPPR0   DD_VERSIZE+7,,AUTO
         2 000556   000022 631400 xsym               EPPR1   B_VECTNIL+18
         2 000557   000000 701000 xent               TSX1    DDR$MOVE
PL6.E3A0      #001=DDR$REPORT File=DDR$REPORT.:E05TSI                            TUE 07/29/97 14:09 Page:42
         2 000560   000000 011000                    NOP     0

      265     9158    1        GOTO REPORT_IBP;

   9158  2 000561   001525 710000 2                  TRA     REPORT_IBP

      266     9159    1   REPORT_SCREECH:
      267     9160    1        IF PINCRW(MIS$, IRM_NOKP_SCR) -> UBIN36 = 0

   9160  2 000562   000000 471400 xsym  REPORT_SCRE* LDP1    MIS$
         2 000563   000000 720000 xsym               LXL0    IRM_NOKP_SCR
         2 000564   100000 235110                    LDA     0,X0,PR1
         2 000565   000601 601000 2                  TNZ     s:9165

      268     9161    2        THEN DO;

      269     9162    2             CALL DDR$MOVE('SCREECH IC = ', 13, BB$, REM);

   9162  2 000566   200006 633500                    EPPR3   REM,,AUTO
         2 000567   200035 453500                    STP3    DD_VERSIZE+10,,AUTO
         2 000570   200007 634500                    EPPR4   BB$,,AUTO
         2 000571   200034 454500                    STP4    DD_VERSIZE+9,,AUTO
         2 000572   000054 237000 3                  LDAQ    44
         2 000573   200032 757100                    STAQ    DD_VERSIZE+7,,AUTO
         2 000574   200032 630500                    EPPR0   DD_VERSIZE+7,,AUTO
         2 000575   000022 631400 xsym               EPPR1   B_VECTNIL+18
         2 000576   000000 701000 xent               TSX1    DDR$MOVE
         2 000577   000000 011000                    NOP     0

      270     9163    2             GOTO REPORT_IBP;

   9163  2 000600   001525 710000 2                  TRA     REPORT_IBP

      271     9164    2           END;
      272     9165    1        ELSE RETURN;

   9165  2 000601   000000 702200 xent               TSX2  ! X66_ARET
PL6.E3A0      #001=DDR$REPORT File=DDR$REPORT.:E05TSI                            TUE 07/29/97 14:09 Page:43

      273     9166    1   REPORT_STOP:
      274     9167    1        CALL DDR$MOVE( 'Host program stopped  IC = ', LENGTHC(
              9167                 'Host program stopped  IC = '), BB$, REM) ALTRET(TOO_BIG);

   9167  2 000602   200006 630500       REPORT_STOP  EPPR0   REM,,AUTO
         2 000603   200035 450500                    STP0    DD_VERSIZE+10,,AUTO
         2 000604   200007 631500                    EPPR1   BB$,,AUTO
         2 000605   200034 451500                    STP1    DD_VERSIZE+9,,AUTO
         2 000606   000056 237000 3                  LDAQ    46
         2 000607   200032 757100                    STAQ    DD_VERSIZE+7,,AUTO
         2 000610   200032 630500                    EPPR0   DD_VERSIZE+7,,AUTO
         2 000611   000022 631400 xsym               EPPR1   B_VECTNIL+18
         2 000612   000000 701000 xent               TSX1    DDR$MOVE
         2 000613   002450 702000 2                  TSX2    TOO_BIG

      275     9168    1        GOTO REPORT_IBP;

   9168  2 000614   001525 710000 2                  TRA     REPORT_IBP

      276     9169    1   REPORT_DELTA:
      277     9170    1        DD_VERSIZE = B_VERSION.SIZE;

   9170  2 000615   000000 236000 xsym  REPORT_DELTA LDQ     B_VERSION
         2 000616   000033 772000                    QRL     27
         2 000617   200023 756100                    STQ     DD_VERSIZE,,AUTO

      278     9171    1        IF D_XDELTA

   9171  2 000620   000000 234000 xsym               SZN     D_XDELTA
         2 000621   000635 605000 2                  TPL     s:9173

      279     9172    1        THEN CALL DDR$MOVE ( 'XDELTA ', LENGTHC('XDELTA '), BB$, REM );

   9172  2 000622   200006 631500                    EPPR1   REM,,AUTO
         2 000623   200035 451500                    STP1    DD_VERSIZE+10,,AUTO
         2 000624   200007 633500                    EPPR3   BB$,,AUTO
PL6.E3A0      #001=DDR$REPORT File=DDR$REPORT.:E05TSI                            TUE 07/29/97 14:09 Page:44
         2 000625   200034 453500                    STP3    DD_VERSIZE+9,,AUTO
         2 000626   000060 237000 3                  LDAQ    48
         2 000627   200032 757100                    STAQ    DD_VERSIZE+7,,AUTO
         2 000630   200032 630500                    EPPR0   DD_VERSIZE+7,,AUTO
         2 000631   000022 631400 xsym               EPPR1   B_VECTNIL+18
         2 000632   000000 701000 xent               TSX1    DDR$MOVE
         2 000633   000000 011000                    NOP     0
         2 000634   000721 710000 2                  TRA     s:9184

      280     9173    1        ELSE IF EVENT = R_RUM THEN CALL DDR$MOVE ('RUM ', LENGTHC('RUM '), BB$, REM);

   9173  2 000635   000000 235100                    LDA     0,,PR0
         2 000636   000022 115007                    CMPA    18,DL
         2 000637   000653 601000 2                  TNZ     s:9174

   9173  2 000640   200006 631500                    EPPR1   REM,,AUTO
         2 000641   200035 451500                    STP1    DD_VERSIZE+10,,AUTO
         2 000642   200007 633500                    EPPR3   BB$,,AUTO
         2 000643   200034 453500                    STP3    DD_VERSIZE+9,,AUTO
         2 000644   000062 237000 3                  LDAQ    50
         2 000645   200032 757100                    STAQ    DD_VERSIZE+7,,AUTO
         2 000646   200032 630500                    EPPR0   DD_VERSIZE+7,,AUTO
         2 000647   000022 631400 xsym               EPPR1   B_VECTNIL+18
         2 000650   000000 701000 xent               TSX1    DDR$MOVE
         2 000651   000000 011000                    NOP     0
         2 000652   000721 710000 2                  TRA     s:9184

      281     9174    1             ELSE IF EVENT = R_ANLZ THEN CALL DDR$MOVE ('ANLZ/DELTA ', LENGTHC(
              9174                      'ANLZ/DELTA '), BB$, REM);

   9174  2 000653   000023 115007                    CMPA    19,DL
         2 000654   000670 601000 2                  TNZ     s:9175

   9174  2 000655   200006 631500                    EPPR1   REM,,AUTO
         2 000656   200035 451500                    STP1    DD_VERSIZE+10,,AUTO
         2 000657   200007 633500                    EPPR3   BB$,,AUTO
         2 000660   200034 453500                    STP3    DD_VERSIZE+9,,AUTO
PL6.E3A0      #001=DDR$REPORT File=DDR$REPORT.:E05TSI                            TUE 07/29/97 14:09 Page:45
         2 000661   000064 237000 3                  LDAQ    52
         2 000662   200032 757100                    STAQ    DD_VERSIZE+7,,AUTO
         2 000663   200032 630500                    EPPR0   DD_VERSIZE+7,,AUTO
         2 000664   000022 631400 xsym               EPPR1   B_VECTNIL+18
         2 000665   000000 701000 xent               TSX1    DDR$MOVE
         2 000666   000000 011000                    NOP     0
         2 000667   000721 710000 2                  TRA     s:9184

      282     9175    2                  ELSE IF SS.TST = 'TST' THEN DO;

   9175  2 000670   200022 236100                    LDQ     SWITCH,,AUTO
         2 000671   000262 676000 0                  ERQ     FAULT_TEXT_SIZE+83
         2 000672   000066 376000 3                  ANQ     54
         2 000673   000707 601000 2                  TNZ     s:9179

      283     9176    2                            CALL DDR$MOVE ('DELTA TEST ', LENGTHC('DELTA TEST '), BB$,
              9176                                     REM);

   9176  2 000674   200006 631500                    EPPR1   REM,,AUTO
         2 000675   200035 451500                    STP1    DD_VERSIZE+10,,AUTO
         2 000676   200007 633500                    EPPR3   BB$,,AUTO
         2 000677   200034 453500                    STP3    DD_VERSIZE+9,,AUTO
         2 000700   000070 237000 3                  LDAQ    56
         2 000701   200032 757100                    STAQ    DD_VERSIZE+7,,AUTO
         2 000702   200032 630500                    EPPR0   DD_VERSIZE+7,,AUTO
         2 000703   000022 631400 xsym               EPPR1   B_VECTNIL+18
         2 000704   000000 701000 xent               TSX1    DDR$MOVE
         2 000705   000000 011000                    NOP     0

      284     9177    2                            GOTO L1;

   9177  2 000706   000754 710000 2                  TRA     L1

      285     9178    2                          END;
      286     9179    1                       ELSE CALL DDR$MOVE ( 'DELTA ', LENGTHC('DELTA '), BB$, REM );

   9179  2 000707   200006 631500                    EPPR1   REM,,AUTO
PL6.E3A0      #001=DDR$REPORT File=DDR$REPORT.:E05TSI                            TUE 07/29/97 14:09 Page:46
         2 000710   200035 451500                    STP1    DD_VERSIZE+10,,AUTO
         2 000711   200007 633500                    EPPR3   BB$,,AUTO
         2 000712   200034 453500                    STP3    DD_VERSIZE+9,,AUTO
         2 000713   000072 237000 3                  LDAQ    58
         2 000714   200032 757100                    STAQ    DD_VERSIZE+7,,AUTO
         2 000715   200032 630500                    EPPR0   DD_VERSIZE+7,,AUTO
         2 000716   000022 631400 xsym               EPPR1   B_VECTNIL+18
         2 000717   000000 701000 xent               TSX1    DDR$MOVE
         2 000720   000000 011000                    NOP     0

      287     9180        /*N*                ELSE DO;
      288     9181        CALL DDR$MOVE ( 'DELTA is ready when you are ', LENGTHC('DELTA is ready when you ar
              9181        e '), BB$, REM);
      289     9182                                 GOTO L1;
      290     9183                               END; */
      291     9184    1        CALL DDR$MOVE( B_VERSION.TEXT, DD_VERSIZE, BB$, REM );

   9184  2 000721   200006 630500                    EPPR0   REM,,AUTO
         2 000722   200035 450500                    STP0    DD_VERSIZE+10,,AUTO
         2 000723   200007 631500                    EPPR1   BB$,,AUTO
         2 000724   200034 451500                    STP1    DD_VERSIZE+9,,AUTO
         2 000725   200023 633500                    EPPR3   DD_VERSIZE,,AUTO
         2 000726   200033 453500                    STP3    DD_VERSIZE+8,,AUTO
         2 000727   000023 236000 3                  LDQ     19
         2 000730   200032 756100                    STQ     DD_VERSIZE+7,,AUTO
         2 000731   200032 630500                    EPPR0   DD_VERSIZE+7,,AUTO
         2 000732   000022 631400 xsym               EPPR1   B_VECTNIL+18
         2 000733   000000 701000 xent               TSX1    DDR$MOVE
         2 000734   000000 011000                    NOP     0

      292     9185    1        CALL DDR$MOVE( ' here', 5, BB$, REM );

   9185  2 000735   200006 630500                    EPPR0   REM,,AUTO
         2 000736   200035 450500                    STP0    DD_VERSIZE+10,,AUTO
         2 000737   200007 631500                    EPPR1   BB$,,AUTO
         2 000740   200034 451500                    STP1    DD_VERSIZE+9,,AUTO
         2 000741   000074 237000 3                  LDAQ    60
PL6.E3A0      #001=DDR$REPORT File=DDR$REPORT.:E05TSI                            TUE 07/29/97 14:09 Page:47
         2 000742   200032 757100                    STAQ    DD_VERSIZE+7,,AUTO
         2 000743   200032 630500                    EPPR0   DD_VERSIZE+7,,AUTO
         2 000744   000022 631400 xsym               EPPR1   B_VECTNIL+18
         2 000745   000000 701000 xent               TSX1    DDR$MOVE
         2 000746   000000 011000                    NOP     0

      293     9186    2        IF D_XDELTA THEN DO;

   9186  2 000747   000000 234000 xsym               SZN     D_XDELTA
         2 000750   000754 605000 2                  TPL     L1

      294     9187    2             IN_DEV = DCTX_ME;

   9187  2 000751   000000 235000 xsym               LDA     DCTX_ME
         2 000752   000000 755000 xsym               STA     IN_DEV

      295     9188    2             OUT_DEV = DCTX_ME;

   9188  2 000753   000000 755000 xsym               STA     OUT_DEV

      296     9189    2           END;

   9186  2 000754                       L1           null
      297     9190    1   L1:  ;
      298     9191    1        IF EVENT = R_DELTA_ONLY OR (S_D.STAND_ALONE AND NOT(S_D.ANLZ OR S_D.RUM))

   9191  2 000754   200003 470500                    LDP0    @EVENT,,AUTO
         2 000755   000000 235100                    LDA     0,,PR0
         2 000756   000014 115007                    CMPA    12,DL
         2 000757   000767 600000 2                  TZE     s:9193
         2 000760   000000 471400 xsym               LDP1    S_D$
         2 000761   104624 234100                    SZN     2452,,PR1
         2 000762   001002 605000 2                  TPL     s:9196
         2 000763   104756 234100                    SZN     2542,,PR1
         2 000764   001002 604000 2                  TMI     s:9196
         2 000765   104755 234100                    SZN     2541,,PR1
         2 000766   001002 604000 2                  TMI     s:9196
PL6.E3A0      #001=DDR$REPORT File=DDR$REPORT.:E05TSI                            TUE 07/29/97 14:09 Page:48

      299     9192    2        THEN DO;

      300     9193    2             CALL DDR$MOVE (' (No RU associated)',19,BB$,REM) ALTRET (TOO_BIG);

   9193  2 000767   200006 631500                    EPPR1   REM,,AUTO
         2 000770   200035 451500                    STP1    DD_VERSIZE+10,,AUTO
         2 000771   200007 633500                    EPPR3   BB$,,AUTO
         2 000772   200034 453500                    STP3    DD_VERSIZE+9,,AUTO
         2 000773   000076 237000 3                  LDAQ    62
         2 000774   200032 757100                    STAQ    DD_VERSIZE+7,,AUTO
         2 000775   200032 630500                    EPPR0   DD_VERSIZE+7,,AUTO
         2 000776   000022 631400 xsym               EPPR1   B_VECTNIL+18
         2 000777   000000 701000 xent               TSX1    DDR$MOVE
         2 001000   002450 702000 2                  TSX2    TOO_BIG

      301     9194    2             GOTO REPORT;

   9194  2 001001   002452 710000 2                  TRA     REPORT

      302     9195    2           END;
      303     9196    1        IF EVENT = R_ANLZ AND NOT S_D.ANLZ_FILE

   9196  2 001002   000023 115007                    CMPA    19,DL
         2 001003   001021 601000 2                  TNZ     s:9201
         2 001004   105052 234100                    SZN     2602,,PR1
         2 001005   001021 604000 2                  TMI     s:9201

      304     9197    2        THEN DO;

      305     9198    2            CALL DDR$MOVE(' (ANLZing running monitor)', 26, BB$, REM) ALTRET(TOO_BIG);

   9198  2 001006   200006 633500                    EPPR3   REM,,AUTO
         2 001007   200035 453500                    STP3    DD_VERSIZE+10,,AUTO
         2 001010   200007 634500                    EPPR4   BB$,,AUTO
         2 001011   200034 454500                    STP4    DD_VERSIZE+9,,AUTO
         2 001012   000102 237000 3                  LDAQ    66
PL6.E3A0      #001=DDR$REPORT File=DDR$REPORT.:E05TSI                            TUE 07/29/97 14:09 Page:49
         2 001013   200032 757100                    STAQ    DD_VERSIZE+7,,AUTO
         2 001014   200032 630500                    EPPR0   DD_VERSIZE+7,,AUTO
         2 001015   000022 631400 xsym               EPPR1   B_VECTNIL+18
         2 001016   000000 701000 xent               TSX1    DDR$MOVE
         2 001017   002450 702000 2                  TSX2    TOO_BIG

      306     9199    2             GOTO REPORT;

   9199  2 001020   002452 710000 2                  TRA     REPORT

      307     9200    2           END;
      308     9201    1        IF EVENT = R_ALIB THEN CALL DDR$MOVE(' via M$ALIB', 11, BB$, REM) ALTRET(
              9201                 TOO_BIG);

   9201  2 001021   000021 115007                    CMPA    17,DL
         2 001022   001035 601000 2                  TNZ     s:9202

   9201  2 001023   200006 633500                    EPPR3   REM,,AUTO
         2 001024   200035 453500                    STP3    DD_VERSIZE+10,,AUTO
         2 001025   200007 634500                    EPPR4   BB$,,AUTO
         2 001026   200034 454500                    STP4    DD_VERSIZE+9,,AUTO
         2 001027   000104 237000 3                  LDAQ    68
         2 001030   200032 757100                    STAQ    DD_VERSIZE+7,,AUTO
         2 001031   200032 630500                    EPPR0   DD_VERSIZE+7,,AUTO
         2 001032   000022 631400 xsym               EPPR1   B_VECTNIL+18
         2 001033   000000 701000 xent               TSX1    DDR$MOVE
         2 001034   002450 702000 2                  TSX2    TOO_BIG

      309     9202    1        IF EVENT = R_RUM THEN CALL DDR$MOVE(' SA = ', 6, BB$, REM) ALTRET(TOO_BIG);

   9202  2 001035   200003 470500                    LDP0    @EVENT,,AUTO
         2 001036   000000 235100                    LDA     0,,PR0
         2 001037   000022 115007                    CMPA    18,DL
         2 001040   001054 601000 2                  TNZ     s:9203

   9202  2 001041   200006 631500                    EPPR1   REM,,AUTO
         2 001042   200035 451500                    STP1    DD_VERSIZE+10,,AUTO
PL6.E3A0      #001=DDR$REPORT File=DDR$REPORT.:E05TSI                            TUE 07/29/97 14:09 Page:50
         2 001043   200007 633500                    EPPR3   BB$,,AUTO
         2 001044   200034 453500                    STP3    DD_VERSIZE+9,,AUTO
         2 001045   000106 237000 3                  LDAQ    70
         2 001046   200032 757100                    STAQ    DD_VERSIZE+7,,AUTO
         2 001047   200032 630500                    EPPR0   DD_VERSIZE+7,,AUTO
         2 001050   000022 631400 xsym               EPPR1   B_VECTNIL+18
         2 001051   000000 701000 xent               TSX1    DDR$MOVE
         2 001052   002450 702000 2                  TSX2    TOO_BIG
         2 001053   001066 710000 2                  TRA     s:9204

      310     9203    1        ELSE CALL DDR$MOVE(' IC = ', 6, BB$, REM) ALTRET(TOO_BIG);

   9203  2 001054   200006 631500                    EPPR1   REM,,AUTO
         2 001055   200035 451500                    STP1    DD_VERSIZE+10,,AUTO
         2 001056   200007 633500                    EPPR3   BB$,,AUTO
         2 001057   200034 453500                    STP3    DD_VERSIZE+9,,AUTO
         2 001060   000110 237000 3                  LDAQ    72
         2 001061   200032 757100                    STAQ    DD_VERSIZE+7,,AUTO
         2 001062   200032 630500                    EPPR0   DD_VERSIZE+7,,AUTO
         2 001063   000022 631400 xsym               EPPR1   B_VECTNIL+18
         2 001064   000000 701000 xent               TSX1    DDR$MOVE
         2 001065   002450 702000 2                  TSX2    TOO_BIG

      311     9204    1        IF SS.N = '0'

   9204  2 001066   200022 236100                    LDQ     SWITCH,,AUTO
         2 001067   000777 376007                    ANQ     511,DL
         2 001070   000060 116007                    CMPQ    48,DL
         2 001071   001105 601000 2                  TNZ     s:9207

      312     9205    1        THEN CALL DDR$MOVE ('TEST', 4, BB$, REM) ALTRET( TOO_BIG );

   9205  2 001072   200006 630500                    EPPR0   REM,,AUTO
         2 001073   200035 450500                    STP0    DD_VERSIZE+10,,AUTO
         2 001074   200007 631500                    EPPR1   BB$,,AUTO
         2 001075   200034 451500                    STP1    DD_VERSIZE+9,,AUTO
         2 001076   000112 237000 3                  LDAQ    74
PL6.E3A0      #001=DDR$REPORT File=DDR$REPORT.:E05TSI                            TUE 07/29/97 14:09 Page:51
         2 001077   200032 757100                    STAQ    DD_VERSIZE+7,,AUTO
         2 001100   200032 630500                    EPPR0   DD_VERSIZE+7,,AUTO
         2 001101   000022 631400 xsym               EPPR1   B_VECTNIL+18
         2 001102   000000 701000 xent               TSX1    DDR$MOVE
         2 001103   002450 702000 2                  TSX2    TOO_BIG
         2 001104   001123 710000 2                  TRA     s:9210

      313     9206    2        ELSE DO;

      314     9207    2             CALL DDR$POSIT( SAVEIC, BB$, REM, NCARS ) ALTRET( TOO_BIG );

   9207  2 001105   200012 630500                    EPPR0   NCARS,,AUTO
         2 001106   200035 450500                    STP0    DD_VERSIZE+10,,AUTO
         2 001107   200006 631500                    EPPR1   REM,,AUTO
         2 001110   200034 451500                    STP1    DD_VERSIZE+9,,AUTO
         2 001111   200007 633500                    EPPR3   BB$,,AUTO
         2 001112   200033 453500                    STP3    DD_VERSIZE+8,,AUTO
         2 001113   200013 634500                    EPPR4   SAVEIC,,AUTO
         2 001114   200032 454500                    STP4    DD_VERSIZE+7,,AUTO
         2 001115   200032 630500                    EPPR0   DD_VERSIZE+7,,AUTO
         2 001116   000022 631400 xsym               EPPR1   B_VECTNIL+18
         2 001117   000000 701000 xent               TSX1    DDR$POSIT
         2 001120   002450 702000 2                  TSX2    TOO_BIG

      315     9208    2             CALL UPDTBP;                  /* Update BB$, REM */

   9208  2 001121   002525 701000 2                  TSX1    UPDTBP
         2 001122   000000 011000                    NOP     0

      316     9209    2           END;

      317     9210    1        IF EVENT = R_AUTOS

   9210  2 001123   200003 470500                    LDP0    @EVENT,,AUTO
         2 001124   000000 235100                    LDA     0,,PR0
         2 001125   000032 115007                    CMPA    26,DL
         2 001126   001314 601000 2                  TNZ     s:9244
PL6.E3A0      #001=DDR$REPORT File=DDR$REPORT.:E05TSI                            TUE 07/29/97 14:09 Page:52

      318     9211    2        THEN DO;

      319     9212    2             MSG_LENGTH = POFFC( BB$, ADDR( S_D.OUTPUT ) );

   9212  2 001127   000000 236000 xsym               LDQ     S_D$
         2 001130   005335 036003                    ADLQ    2781,DU
         2 001131   000020 772000                    QRL     16
         2 001132   200032 756100                    STQ     DD_VERSIZE+7,,AUTO
         2 001133   200007 236100                    LDQ     BB$,,AUTO
         2 001134   000020 772000                    QRL     16
         2 001135   200032 136100                    SBLQ    DD_VERSIZE+7,,AUTO
         2 001136   200011 756100                    STQ     MSG_LENGTH,,AUTO

      320     9213    2             CALL DDQ$WRITE( ADDR( S_D.OUTPUT ), MSG_LENGTH );

   9213  2 001137   000000 236000 xsym               LDQ     S_D$
         2 001140   005335 036003                    ADLQ    2781,DU
         2 001141   200032 756100                    STQ     DD_VERSIZE+7,,AUTO
         2 001142   200011 631500                    EPPR1   MSG_LENGTH,,AUTO
         2 001143   200035 451500                    STP1    DD_VERSIZE+10,,AUTO
         2 001144   200032 633500                    EPPR3   DD_VERSIZE+7,,AUTO
         2 001145   200034 453500                    STP3    DD_VERSIZE+9,,AUTO
         2 001146   200034 630500                    EPPR0   DD_VERSIZE+9,,AUTO
         2 001147   000020 631400 xsym               EPPR1   B_VECTNIL+16
         2 001150   000000 701000 xent               TSX1    DDQ$WRITE
         2 001151   000000 011000                    NOP     0

      321     9214    2             IF ERROR ~= 0

   9214  2 001152   200017 235100                    LDA     ERROR,,AUTO
         2 001153   001161 600000 2                  TZE     s:9219

      322     9215    3             THEN DO;

      323     9216    3                  S_D.ERROR = ERROR;

PL6.E3A0      #001=DDR$REPORT File=DDR$REPORT.:E05TSI                            TUE 07/29/97 14:09 Page:53
   9216  2 001154   000000 470400 xsym               LDP0    S_D$
         2 001155   000013 755100                    STA     11,,PR0

      324     9217    3                  CALL DDE$ERROR;

   9217  2 001156   000002 631400 xsym               EPPR1   B_VECTNIL+2
         2 001157   000000 701000 xent               TSX1    DDE$ERROR
         2 001160   000000 011000                    NOP     0

      325     9218    3                END;

      326     9219    2             REM = LENGTHC( S_D.OUTPUT );

   9219  2 001161   004000 235007                    LDA     2048,DL
         2 001162   200006 755100                    STA     REM,,AUTO

      327     9220    2             BB$ = ADDR( S_D.OUTPUT );     /* Initialize the buffer pointer */

   9220  2 001163   000000 236000 xsym               LDQ     S_D$
         2 001164   005335 036003                    ADLQ    2781,DU
         2 001165   200007 756100                    STQ     BB$,,AUTO

      328     9221    2             S_D.OUTPUT = ' ';

   9221  2 001166   000000 470400 xsym               LDP0    S_D$
         2 001167   040100 100400                    MLR     fill='040'O
         2 001170   000035 000001 xsym               ADSC9   B_VECTNIL+29             cn=0,n=1
         2 001171   005335 004000                    ADSC9   2781,,PR0                cn=0,n=2048

      329     9222    2             CALL DDR$MOVE( '(Auto shared RU associated)', LENGTHC(
              9222                      '(Auto shared RU associated)'), BB$, REM) ALTRET(TOO_BIG);

   9222  2 001172   200006 631500                    EPPR1   REM,,AUTO
         2 001173   200035 451500                    STP1    DD_VERSIZE+10,,AUTO
         2 001174   200007 633500                    EPPR3   BB$,,AUTO
         2 001175   200034 453500                    STP3    DD_VERSIZE+9,,AUTO
         2 001176   000114 237000 3                  LDAQ    76
PL6.E3A0      #001=DDR$REPORT File=DDR$REPORT.:E05TSI                            TUE 07/29/97 14:09 Page:54
         2 001177   200032 757100                    STAQ    DD_VERSIZE+7,,AUTO
         2 001200   200032 630500                    EPPR0   DD_VERSIZE+7,,AUTO
         2 001201   000022 631400 xsym               EPPR1   B_VECTNIL+18
         2 001202   000000 701000 xent               TSX1    DDR$MOVE
         2 001203   002450 702000 2                  TSX2    TOO_BIG

      330     9223    2             MSG_LENGTH = POFFC( BB$, ADDR( S_D.OUTPUT ) );

   9223  2 001204   000000 236000 xsym               LDQ     S_D$
         2 001205   005335 036003                    ADLQ    2781,DU
         2 001206   000020 772000                    QRL     16
         2 001207   200032 756100                    STQ     DD_VERSIZE+7,,AUTO
         2 001210   200007 236100                    LDQ     BB$,,AUTO
         2 001211   000020 772000                    QRL     16
         2 001212   200032 136100                    SBLQ    DD_VERSIZE+7,,AUTO
         2 001213   200011 756100                    STQ     MSG_LENGTH,,AUTO

      331     9224    2             CALL DDQ$WRITE( ADDR( S_D.OUTPUT ), MSG_LENGTH );

   9224  2 001214   000000 236000 xsym               LDQ     S_D$
         2 001215   005335 036003                    ADLQ    2781,DU
         2 001216   200032 756100                    STQ     DD_VERSIZE+7,,AUTO
         2 001217   200011 630500                    EPPR0   MSG_LENGTH,,AUTO
         2 001220   200035 450500                    STP0    DD_VERSIZE+10,,AUTO
         2 001221   200032 631500                    EPPR1   DD_VERSIZE+7,,AUTO
         2 001222   200034 451500                    STP1    DD_VERSIZE+9,,AUTO
         2 001223   200034 630500                    EPPR0   DD_VERSIZE+9,,AUTO
         2 001224   000020 631400 xsym               EPPR1   B_VECTNIL+16
         2 001225   000000 701000 xent               TSX1    DDQ$WRITE
         2 001226   000000 011000                    NOP     0

      332     9225    2             IF ERROR ~= 0

   9225  2 001227   200017 235100                    LDA     ERROR,,AUTO
         2 001230   001236 600000 2                  TZE     s:9230

      333     9226    3             THEN DO;
PL6.E3A0      #001=DDR$REPORT File=DDR$REPORT.:E05TSI                            TUE 07/29/97 14:09 Page:55

      334     9227    3                  S_D.ERROR = ERROR;

   9227  2 001231   000000 470400 xsym               LDP0    S_D$
         2 001232   000013 755100                    STA     11,,PR0

      335     9228    3                  CALL DDE$ERROR;

   9228  2 001233   000002 631400 xsym               EPPR1   B_VECTNIL+2
         2 001234   000000 701000 xent               TSX1    DDE$ERROR
         2 001235   000000 011000                    NOP     0

      336     9229    3                END;

      337     9230    2             REM = LENGTHC( S_D.OUTPUT );

   9230  2 001236   004000 235007                    LDA     2048,DL
         2 001237   200006 755100                    STA     REM,,AUTO

      338     9231    2             BB$ = ADDR( S_D.OUTPUT );     /* Initialize the buffer pointer */

   9231  2 001240   000000 236000 xsym               LDQ     S_D$
         2 001241   005335 036003                    ADLQ    2781,DU
         2 001242   200007 756100                    STQ     BB$,,AUTO

      339     9232    2             S_D.OUTPUT = ' ';

   9232  2 001243   000000 470400 xsym               LDP0    S_D$
         2 001244   040100 100400                    MLR     fill='040'O
         2 001245   000035 000001 xsym               ADSC9   B_VECTNIL+29             cn=0,n=1
         2 001246   005335 004000                    ADSC9   2781,,PR0                cn=0,n=2048

      340     9233    2             CALL DDR$MOVE(
              9233                      'For modification of procedure (including breakpoints) use UNSHARE',

   9233  2 001247   200006 631500                    EPPR1   REM,,AUTO
         2 001250   200035 451500                    STP1    DD_VERSIZE+10,,AUTO
PL6.E3A0      #001=DDR$REPORT File=DDR$REPORT.:E05TSI                            TUE 07/29/97 14:09 Page:56
         2 001251   200007 633500                    EPPR3   BB$,,AUTO
         2 001252   200034 453500                    STP3    DD_VERSIZE+9,,AUTO
         2 001253   000116 237000 3                  LDAQ    78
         2 001254   200032 757100                    STAQ    DD_VERSIZE+7,,AUTO
         2 001255   200032 630500                    EPPR0   DD_VERSIZE+7,,AUTO
         2 001256   000022 631400 xsym               EPPR1   B_VECTNIL+18
         2 001257   000000 701000 xent               TSX1    DDR$MOVE
         2 001260   002450 702000 2                  TSX2    TOO_BIG

      341     9234    2               LENGTHC(
              9234                       'For modification of procedure (including breakpoints) use UNSHARE')
              9234                        , BB$, REM ) ALTRET( TOO_BIG );
      342     9235    2             MSG_LENGTH = POFFC( BB$, ADDR( S_D.OUTPUT ) );

   9235  2 001261   000000 236000 xsym               LDQ     S_D$
         2 001262   005335 036003                    ADLQ    2781,DU
         2 001263   000020 772000                    QRL     16
         2 001264   200032 756100                    STQ     DD_VERSIZE+7,,AUTO
         2 001265   200007 236100                    LDQ     BB$,,AUTO
         2 001266   000020 772000                    QRL     16
         2 001267   200032 136100                    SBLQ    DD_VERSIZE+7,,AUTO
         2 001270   200011 756100                    STQ     MSG_LENGTH,,AUTO

      343     9236    2             CALL DDQ$WRITE( ADDR( S_D.OUTPUT ), MSG_LENGTH );

   9236  2 001271   000000 236000 xsym               LDQ     S_D$
         2 001272   005335 036003                    ADLQ    2781,DU
         2 001273   200032 756100                    STQ     DD_VERSIZE+7,,AUTO
         2 001274   200011 630500                    EPPR0   MSG_LENGTH,,AUTO
         2 001275   200035 450500                    STP0    DD_VERSIZE+10,,AUTO
         2 001276   200032 631500                    EPPR1   DD_VERSIZE+7,,AUTO
         2 001277   200034 451500                    STP1    DD_VERSIZE+9,,AUTO
         2 001300   200034 630500                    EPPR0   DD_VERSIZE+9,,AUTO
         2 001301   000020 631400 xsym               EPPR1   B_VECTNIL+16
         2 001302   000000 701000 xent               TSX1    DDQ$WRITE
         2 001303   000000 011000                    NOP     0

PL6.E3A0      #001=DDR$REPORT File=DDR$REPORT.:E05TSI                            TUE 07/29/97 14:09 Page:57
      344     9237    2             IF ERROR ~= 0

   9237  2 001304   200017 235100                    LDA     ERROR,,AUTO
         2 001305   001313 600000 2                  TZE     s:9242

      345     9238    3             THEN DO;

      346     9239    3                  S_D.ERROR = ERROR;

   9239  2 001306   000000 470400 xsym               LDP0    S_D$
         2 001307   000013 755100                    STA     11,,PR0

      347     9240    3                  CALL DDE$ERROR;

   9240  2 001310   000002 631400 xsym               EPPR1   B_VECTNIL+2
         2 001311   000000 701000 xent               TSX1    DDE$ERROR
         2 001312   000000 011000                    NOP     0

      348     9241    3                END;

      349     9242    2             RETURN;

   9242  2 001313   000000 702200 xent               TSX2  ! X66_ARET

      350     9243    2           END;
      351     9244    1        GOTO REPORT;

   9244  2 001314   002452 710000 2                  TRA     REPORT

      352     9245    1   REPORT_AT:
      353     9246    1        CALL BINCHAR( BB$ -> CHAR2, S_D.IXFIX );

   9246  2 001315   000000 471400 xsym  REPORT_AT    LDP1    S_D$
         2 001316   200007 473500                    LDP3    BB$,,AUTO
         2 001317   000100 301500                    BTD
         2 001320   100015 000004                    NDSC9   13,,PR1                  cn=0,s=lsgnf,sf=0,n=4
         2 001321   300000 030002                    NDSC9   0,,PR3                   cn=0,s=nosgn,sf=0,n=2
PL6.E3A0      #001=DDR$REPORT File=DDR$REPORT.:E05TSI                            TUE 07/29/97 14:09 Page:58

      354     9247    1        NCARS = 2;

   9247  2 001322   000002 235007                    LDA     2,DL
         2 001323   200012 755100                    STA     NCARS,,AUTO

      355     9248    1        CALL UPDTBP;                       /* Update BB$, REM */

   9248  2 001324   002525 701000 2                  TSX1    UPDTBP
         2 001325   000000 011000                    NOP     0

      356     9249    1        CALL DDR$MOVE( ' A_BRK@ ', 8, BB$, REM ) ALTRET( TOO_BIG );

   9249  2 001326   200006 630500                    EPPR0   REM,,AUTO
         2 001327   200035 450500                    STP0    DD_VERSIZE+10,,AUTO
         2 001330   200007 631500                    EPPR1   BB$,,AUTO
         2 001331   200034 451500                    STP1    DD_VERSIZE+9,,AUTO
         2 001332   000120 237000 3                  LDAQ    80
         2 001333   200032 757100                    STAQ    DD_VERSIZE+7,,AUTO
         2 001334   200032 630500                    EPPR0   DD_VERSIZE+7,,AUTO
         2 001335   000022 631400 xsym               EPPR1   B_VECTNIL+18
         2 001336   000000 701000 xent               TSX1    DDR$MOVE
         2 001337   002450 702000 2                  TSX2    TOO_BIG

      357     9250    1        GOTO REPORT_IBP;

   9250  2 001340   001525 710000 2                  TRA     REPORT_IBP

      358     9251    1   REPORT_ONCALL:
      359     9252    1        CALL BINCHAR( BB$ -> CHAR2, S_D.IXFIX );

   9252  2 001341   000000 471400 xsym  REPORT_ONCA* LDP1    S_D$
         2 001342   200007 473500                    LDP3    BB$,,AUTO
         2 001343   000100 301500                    BTD
         2 001344   100015 000004                    NDSC9   13,,PR1                  cn=0,s=lsgnf,sf=0,n=4
         2 001345   300000 030002                    NDSC9   0,,PR3                   cn=0,s=nosgn,sf=0,n=2

PL6.E3A0      #001=DDR$REPORT File=DDR$REPORT.:E05TSI                            TUE 07/29/97 14:09 Page:59
      360     9253    1        NCARS = 2;

   9253  2 001346   000002 235007                    LDA     2,DL
         2 001347   200012 755100                    STA     NCARS,,AUTO

      361     9254    1        CALL UPDTBP;                       /* Update BB$, REM */

   9254  2 001350   002525 701000 2                  TSX1    UPDTBP
         2 001351   000000 011000                    NOP     0

      362     9255    1        CALL DDR$MOVE( ' ON CALL_BRK@ ', 14, BB$, REM ) ALTRET( TOO_BIG );

   9255  2 001352   200006 630500                    EPPR0   REM,,AUTO
         2 001353   200035 450500                    STP0    DD_VERSIZE+10,,AUTO
         2 001354   200007 631500                    EPPR1   BB$,,AUTO
         2 001355   200034 451500                    STP1    DD_VERSIZE+9,,AUTO
         2 001356   000124 237000 3                  LDAQ    84
         2 001357   200032 757100                    STAQ    DD_VERSIZE+7,,AUTO
         2 001360   200032 630500                    EPPR0   DD_VERSIZE+7,,AUTO
         2 001361   000022 631400 xsym               EPPR1   B_VECTNIL+18
         2 001362   000000 701000 xent               TSX1    DDR$MOVE
         2 001363   002450 702000 2                  TSX2    TOO_BIG

      363     9256    1        CALL DDR$POSIT( SAVEIC, BB$, REM, NCARS) ALTRET(TOO_BIG);

   9256  2 001364   200012 630500                    EPPR0   NCARS,,AUTO
         2 001365   200035 450500                    STP0    DD_VERSIZE+10,,AUTO
         2 001366   200006 631500                    EPPR1   REM,,AUTO
         2 001367   200034 451500                    STP1    DD_VERSIZE+9,,AUTO
         2 001370   200007 633500                    EPPR3   BB$,,AUTO
         2 001371   200033 453500                    STP3    DD_VERSIZE+8,,AUTO
         2 001372   200013 634500                    EPPR4   SAVEIC,,AUTO
         2 001373   200032 454500                    STP4    DD_VERSIZE+7,,AUTO
         2 001374   200032 630500                    EPPR0   DD_VERSIZE+7,,AUTO
         2 001375   000022 631400 xsym               EPPR1   B_VECTNIL+18
         2 001376   000000 701000 xent               TSX1    DDR$POSIT
         2 001377   002450 702000 2                  TSX2    TOO_BIG
PL6.E3A0      #001=DDR$REPORT File=DDR$REPORT.:E05TSI                            TUE 07/29/97 14:09 Page:60

      364     9257    1        CALL UPDTBP;

   9257  2 001400   002525 701000 2                  TSX1    UPDTBP
         2 001401   000000 011000                    NOP     0

      365     9258    1        X1 = S_D.USS$->B$SS.X1 - 1;

   9258  2 001402   000000 470400 xsym               LDP0    S_D$
         2 001403   000005 471500                    LDP1    5,,PR0
         2 001404   100050 236100                    LDQ     40,,PR1
         2 001405   777777 376007                    ANQ     -1,DL
         2 001406   000001 136007                    SBLQ    1,DL
         2 001407   200005 756100                    STQ     X1,,AUTO

      366     9259    1        CALL DDR$MOVE( ' from ', 6, BB$, REM) ALTRET(TOO_BIG);

   9259  2 001410   200006 631500                    EPPR1   REM,,AUTO
         2 001411   200035 451500                    STP1    DD_VERSIZE+10,,AUTO
         2 001412   200007 633500                    EPPR3   BB$,,AUTO
         2 001413   200034 453500                    STP3    DD_VERSIZE+9,,AUTO
         2 001414   000126 237000 3                  LDAQ    86
         2 001415   200032 757100                    STAQ    DD_VERSIZE+7,,AUTO
         2 001416   200032 630500                    EPPR0   DD_VERSIZE+7,,AUTO
         2 001417   000022 631400 xsym               EPPR1   B_VECTNIL+18
         2 001420   000000 701000 xent               TSX1    DDR$MOVE
         2 001421   002450 702000 2                  TSX2    TOO_BIG

      367     9260    1        CALL DDR$POSIT (X1, BB$, REM, NCARS) ALTRET(TOO_BIG);

   9260  2 001422   200012 630500                    EPPR0   NCARS,,AUTO
         2 001423   200035 450500                    STP0    DD_VERSIZE+10,,AUTO
         2 001424   200006 631500                    EPPR1   REM,,AUTO
         2 001425   200034 451500                    STP1    DD_VERSIZE+9,,AUTO
         2 001426   200007 633500                    EPPR3   BB$,,AUTO
         2 001427   200033 453500                    STP3    DD_VERSIZE+8,,AUTO
         2 001430   200005 634500                    EPPR4   X1,,AUTO
PL6.E3A0      #001=DDR$REPORT File=DDR$REPORT.:E05TSI                            TUE 07/29/97 14:09 Page:61
         2 001431   200032 454500                    STP4    DD_VERSIZE+7,,AUTO
         2 001432   200032 630500                    EPPR0   DD_VERSIZE+7,,AUTO
         2 001433   000022 631400 xsym               EPPR1   B_VECTNIL+18
         2 001434   000000 701000 xent               TSX1    DDR$POSIT
         2 001435   002450 702000 2                  TSX2    TOO_BIG

      368     9261    1        CALL UPDTBP;

   9261  2 001436   002525 701000 2                  TSX1    UPDTBP
         2 001437   000000 011000                    NOP     0

      369     9262    1        IF S_D.OVERLAID

   9262  2 001440   000000 470400 xsym               LDP0    S_D$
         2 001441   004764 234100                    SZN     2548,,PR0
         2 001442   001451 605000 2                  TPL     s:9264

      370     9263    1        THEN CALL DDS$IC2NODE (SAVEIC);

   9263  2 001443   200013 631500                    EPPR1   SAVEIC,,AUTO
         2 001444   200032 451500                    STP1    DD_VERSIZE+7,,AUTO
         2 001445   200032 630500                    EPPR0   DD_VERSIZE+7,,AUTO
         2 001446   000017 631400 xsym               EPPR1   B_VECTNIL+15
         2 001447   000000 701000 xent               TSX1    DDS$IC2NODE
         2 001450   000000 011000                    NOP     0

      371     9264    1        GOTO REPORT;

   9264  2 001451   002452 710000 2                  TRA     REPORT

   9262  2 001452                       REPORT_ONNO* null
      372     9265    1   REPORT_ONNODE: ;
      373     9266    1        CALL BINCHAR( BB$ ->CHAR2, S_D.IXFIX );

   9266  2 001452   000000 471400 xsym               LDP1    S_D$
         2 001453   200007 473500                    LDP3    BB$,,AUTO
         2 001454   000100 301500                    BTD
PL6.E3A0      #001=DDR$REPORT File=DDR$REPORT.:E05TSI                            TUE 07/29/97 14:09 Page:62
         2 001455   100015 000004                    NDSC9   13,,PR1                  cn=0,s=lsgnf,sf=0,n=4
         2 001456   300000 030002                    NDSC9   0,,PR3                   cn=0,s=nosgn,sf=0,n=2

      374     9267    1        NCARS = 3;

   9267  2 001457   000003 235007                    LDA     3,DL
         2 001460   200012 755100                    STA     NCARS,,AUTO

      375     9268    1        CALL UPDTBP;

   9268  2 001461   002525 701000 2                  TSX1    UPDTBP
         2 001462   000000 011000                    NOP     0

      376     9269    1        PTR$ = S_D.B$TREE$ -> B$TREE_NODE.NAME$( S_D.LAST_NODE_LOADED );

   9269  2 001463   000000 470400 xsym               LDP0    S_D$
         2 001464   004767 471500                    LDP1    2551,,PR0
         2 001465   004734 236100                    LDQ     2524,,PR0
         2 001466   000006 402007                    MPY     6,DL
         2 001467   100000 236106                    LDQ     0,QL,PR1
         2 001470   200010 756100                    STQ     PTR$,,AUTO

      377     9270    1        BB$->CHAR32 = PTR$->TEXTC.TEXT;

   9270  2 001471   200010 473500                    LDP3    PTR$,,AUTO
         2 001472   000100 101500                    MRL     fill='000'O
         2 001473   300000 000001                    ADSC9   0,,PR3                   cn=0,n=1
         2 001474   200032 000002                    ADSC9   DD_VERSIZE+7,,AUTO       cn=0,n=2
         2 001475   200032 220100                    LDX0    DD_VERSIZE+7,,AUTO
         2 001476   200007 474500                    LDP4    BB$,,AUTO
         2 001477   040100 100540                    MLR     fill='040'O
         2 001500   300000 200010                    ADSC9   0,,PR3                   cn=1,n=*X0
         2 001501   400000 000040                    ADSC9   0,,PR4                   cn=0,n=32

      378     9271    1        NCARS = PTR$->TEXTC.LEN+1;

   9271  2 001502   000100 101500                    MRL     fill='000'O
PL6.E3A0      #001=DDR$REPORT File=DDR$REPORT.:E05TSI                            TUE 07/29/97 14:09 Page:63
         2 001503   300000 000001                    ADSC9   0,,PR3                   cn=0,n=1
         2 001504   200032 000004                    ADSC9   DD_VERSIZE+7,,AUTO       cn=0,n=4
         2 001505   200032 236100                    LDQ     DD_VERSIZE+7,,AUTO
         2 001506   000001 036007                    ADLQ    1,DL
         2 001507   200012 756100                    STQ     NCARS,,AUTO

      379     9272    1        CALL UPDTBP;

   9272  2 001510   002525 701000 2                  TSX1    UPDTBP
         2 001511   000000 011000                    NOP     0

      380     9273    1        CALL DDR$MOVE( 'LOADED @ ', 9, BB$, REM) ALTRET(TOO_BIG);

   9273  2 001512   200006 630500                    EPPR0   REM,,AUTO
         2 001513   200035 450500                    STP0    DD_VERSIZE+10,,AUTO
         2 001514   200007 631500                    EPPR1   BB$,,AUTO
         2 001515   200034 451500                    STP1    DD_VERSIZE+9,,AUTO
         2 001516   000130 237000 3                  LDAQ    88
         2 001517   200032 757100                    STAQ    DD_VERSIZE+7,,AUTO
         2 001520   200032 630500                    EPPR0   DD_VERSIZE+7,,AUTO
         2 001521   000022 631400 xsym               EPPR1   B_VECTNIL+18
         2 001522   000000 701000 xent               TSX1    DDR$MOVE
         2 001523   002450 702000 2                  TSX2    TOO_BIG

      381     9274    1        GOTO REPORT_IBP;

   9274  2 001524   001525 710000 2                  TRA     REPORT_IBP

      382     9275    1   REPORT_IBP:
      383     9276    2        IF SS.N = '0' THEN DO;

   9276  2 001525   200022 236100       REPORT_IBP   LDQ     SWITCH,,AUTO
         2 001526   000777 376007                    ANQ     511,DL
         2 001527   000060 116007                    CMPQ    48,DL
         2 001530   001544 601000 2                  TNZ     s:9280

      384     9277    2             CALL DDR$MOVE ('TEST', 4, BB$, REM);
PL6.E3A0      #001=DDR$REPORT File=DDR$REPORT.:E05TSI                            TUE 07/29/97 14:09 Page:64

   9277  2 001531   200006 630500                    EPPR0   REM,,AUTO
         2 001532   200035 450500                    STP0    DD_VERSIZE+10,,AUTO
         2 001533   200007 631500                    EPPR1   BB$,,AUTO
         2 001534   200034 451500                    STP1    DD_VERSIZE+9,,AUTO
         2 001535   000112 237000 3                  LDAQ    74
         2 001536   200032 757100                    STAQ    DD_VERSIZE+7,,AUTO
         2 001537   200032 630500                    EPPR0   DD_VERSIZE+7,,AUTO
         2 001540   000022 631400 xsym               EPPR1   B_VECTNIL+18
         2 001541   000000 701000 xent               TSX1    DDR$MOVE
         2 001542   000000 011000                    NOP     0

      385     9278    2             GOTO REPORT;

   9278  2 001543   002452 710000 2                  TRA     REPORT

      386     9279    2           END;
      387     9280    1        CALL DDR$POSIT( SAVEIC, BB$, REM, NCARS ) ALTRET( TOO_BIG );

   9280  2 001544   200012 630500                    EPPR0   NCARS,,AUTO
         2 001545   200035 450500                    STP0    DD_VERSIZE+10,,AUTO
         2 001546   200006 631500                    EPPR1   REM,,AUTO
         2 001547   200034 451500                    STP1    DD_VERSIZE+9,,AUTO
         2 001550   200007 633500                    EPPR3   BB$,,AUTO
         2 001551   200033 453500                    STP3    DD_VERSIZE+8,,AUTO
         2 001552   200013 634500                    EPPR4   SAVEIC,,AUTO
         2 001553   200032 454500                    STP4    DD_VERSIZE+7,,AUTO
         2 001554   200032 630500                    EPPR0   DD_VERSIZE+7,,AUTO
         2 001555   000022 631400 xsym               EPPR1   B_VECTNIL+18
         2 001556   000000 701000 xent               TSX1    DDR$POSIT
         2 001557   002450 702000 2                  TSX2    TOO_BIG

      388     9281    1        CALL UPDTBP;                       /* Update BB$, REM */

   9281  2 001560   002525 701000 2                  TSX1    UPDTBP
         2 001561   000000 011000                    NOP     0

PL6.E3A0      #001=DDR$REPORT File=DDR$REPORT.:E05TSI                            TUE 07/29/97 14:09 Page:65
      389     9282    1        GOTO REPORT;

   9282  2 001562   002452 710000 2                  TRA     REPORT

      390     9283    1   REPORT_STEP:
      391     9284    1        CALL DDR$POSIT( SAVEIC, BB$, REM, NCARS ) ALTRET( TOO_BIG );

   9284  2 001563   200012 631500       REPORT_STEP  EPPR1   NCARS,,AUTO
         2 001564   200035 451500                    STP1    DD_VERSIZE+10,,AUTO
         2 001565   200006 633500                    EPPR3   REM,,AUTO
         2 001566   200034 453500                    STP3    DD_VERSIZE+9,,AUTO
         2 001567   200007 634500                    EPPR4   BB$,,AUTO
         2 001570   200033 454500                    STP4    DD_VERSIZE+8,,AUTO
         2 001571   200013 635500                    EPPR5   SAVEIC,,AUTO
         2 001572   200032 455500                    STP5    DD_VERSIZE+7,,AUTO
         2 001573   200032 630500                    EPPR0   DD_VERSIZE+7,,AUTO
         2 001574   000022 631400 xsym               EPPR1   B_VECTNIL+18
         2 001575   000000 701000 xent               TSX1    DDR$POSIT
         2 001576   002450 702000 2                  TSX2    TOO_BIG

      392     9285    1        CALL UPDTBP;                       /* Update BB$, REM */

   9285  2 001577   002525 701000 2                  TSX1    UPDTBP
         2 001600   000000 011000                    NOP     0

      393     9286    1        CALL DDS$ES_INQ( SAVEIC ) ALTRET( STEP0 );

   9286  2 001601   200013 630500                    EPPR0   SAVEIC,,AUTO
         2 001602   200032 450500                    STP0    DD_VERSIZE+7,,AUTO
         2 001603   200032 630500                    EPPR0   DD_VERSIZE+7,,AUTO
         2 001604   000017 631400 xsym               EPPR1   B_VECTNIL+15
         2 001605   000000 701000 xent               TSX1    DDS$ES_INQ
         2 001606   001626 702000 2                  TSX2    STEP0

      394     9287    1        IF S_D.S$TEP.MODE = C@INSTRUCTIONS THEN GOTO STEP0;

   9287  2 001607   000000 470400 xsym               LDP0    S_D$
PL6.E3A0      #001=DDR$REPORT File=DDR$REPORT.:E05TSI                            TUE 07/29/97 14:09 Page:66
         2 001610   005310 235100                    LDA     2760,,PR0
         2 001611   001105 115007                    CMPA    581,DL
         2 001612   001626 600000 2                  TZE     STEP0

      395     9288    1        IF S_D.QSCH.OK AND S_D.SCHEMA

   9288  2 001613   000733 234100                    SZN     475,,PR0
         2 001614   001626 605000 2                  TPL     STEP0
         2 001615   000052 234100                    SZN     42,,PR0
         2 001616   001626 605000 2                  TPL     STEP0

      396     9289    1        THEN IF S_D.REPORT_FLAGS.OFFSET( S_D.LB0$ -> B$LBNTRY0.COMPILER )

   9289  2 001617   001035 471500                    LDP1    541,,PR0
         2 001620   100000 220100                    LDX0    0,,PR1
         2 001621   000777 360003                    ANX0    511,DU
         2 001622   005214 234110                    SZN     2700,X0,PR0
         2 001623   001626 604000 2                  TMI     STEP0
         2 001624   001625 710000 2                  TRA     s:9293

      397     9290    1             THEN GOTO STEP0;              /* Report instruction */
      398     9291    1             ELSE ;                        /* Don't report instruction */
      399     9292    1        ELSE GOTO STEP0;
      400     9293    2        DO WHILE ( '0'B );

   9293  2 001625   001701 710000 2                  TRA     s:9305

   9288  2 001626                       STEP0        null
      401     9294    2   STEP0:    ;
      402     9295    2             CALL DDR$MOVE( '/ ', 2, BB$, REM ) ALTRET( TOO_BIG );

   9295  2 001626   200006 630500                    EPPR0   REM,,AUTO
         2 001627   200035 450500                    STP0    DD_VERSIZE+10,,AUTO
         2 001630   200007 631500                    EPPR1   BB$,,AUTO
         2 001631   200034 451500                    STP1    DD_VERSIZE+9,,AUTO
         2 001632   000132 237000 3                  LDAQ    90
         2 001633   200032 757100                    STAQ    DD_VERSIZE+7,,AUTO
PL6.E3A0      #001=DDR$REPORT File=DDR$REPORT.:E05TSI                            TUE 07/29/97 14:09 Page:67
         2 001634   200032 630500                    EPPR0   DD_VERSIZE+7,,AUTO
         2 001635   000022 631400 xsym               EPPR1   B_VECTNIL+18
         2 001636   000000 701000 xent               TSX1    DDR$MOVE
         2 001637   002450 702000 2                  TSX2    TOO_BIG

      403     9296    2             SAVE_D$ = S_D.D$;             /* DDR$INSTR uses S_D.D$, S_D.DESCL$ */

   9296  2 001640   000000 470400 xsym               LDP0    S_D$
         2 001641   000044 236100                    LDQ     36,,PR0
         2 001642   200014 756100                    STQ     SAVE_D$,,AUTO

      404     9297    2             SAVE_DESCL$ = S_D.DESCL$;

   9297  2 001643   000042 236100                    LDQ     34,,PR0
         2 001644   200015 756100                    STQ     SAVE_DESCL$,,AUTO

      405     9298    2             S_D.D$ = BB$;

   9298  2 001645   200007 236100                    LDQ     BB$,,AUTO
         2 001646   000044 756100                    STQ     36,,PR0

      406     9299    2             S_D.DESCL$ = PINCRC( S_D.D$, REM );

   9299  2 001647   000044 471500                    LDP1    36,,PR0
         2 001650   200006 236100                    LDQ     REM,,AUTO
         2 001651   000011 402007                    MPY     9,DL
         2 001652   100000 503506                    ABD     0,QL,PR1
         2 001653   000042 451500                    STP1    34,,PR0

      407     9300    2             S_D.KILLEDEF = '1'B;

   9300  2 001654   400000 236003                    LDQ     -131072,DU
         2 001655   000105 756100                    STQ     69,,PR0

      408     9301    2             CALL DDR$INSTR( S_D.FAULTINS$ -> WIRD ) ALTRET( TOO_BIG_1 );

   9301  2 001656   000003 473500                    LDP3    3,,PR0
PL6.E3A0      #001=DDR$REPORT File=DDR$REPORT.:E05TSI                            TUE 07/29/97 14:09 Page:68
         2 001657   200032 453500                    STP3    DD_VERSIZE+7,,AUTO
         2 001660   200032 630500                    EPPR0   DD_VERSIZE+7,,AUTO
         2 001661   000017 631400 xsym               EPPR1   B_VECTNIL+15
         2 001662   000000 701000 xent               TSX1    DDR$INSTR
         2 001663   001735 702000 2                  TSX2    TOO_BIG_1

      409     9302    2             REM = REM - POFFC( S_D.D$, BB$ );

   9302  2 001664   200007 236100                    LDQ     BB$,,AUTO
         2 001665   000020 772000                    QRL     16
         2 001666   200032 756100                    STQ     DD_VERSIZE+7,,AUTO
         2 001667   000000 470400 xsym               LDP0    S_D$
         2 001670   000044 236100                    LDQ     36,,PR0
         2 001671   000020 772000                    QRL     16
         2 001672   200032 136100                    SBLQ    DD_VERSIZE+7,,AUTO
         2 001673   200033 756100                    STQ     DD_VERSIZE+8,,AUTO
         2 001674   200006 236100                    LDQ     REM,,AUTO
         2 001675   200033 136100                    SBLQ    DD_VERSIZE+8,,AUTO
         2 001676   200006 756100                    STQ     REM,,AUTO

      410     9303    2             BB$ = S_D.D$;

   9303  2 001677   000044 236100                    LDQ     36,,PR0
         2 001700   200007 756100                    STQ     BB$,,AUTO

      411     9304    2           END;

      412     9305    1        IF S_D.S$TEP.ALT AND S_D.S$TEP.ALTLOC = SAVEIC THEN

   9305  2 001701   005277 234100                    SZN     2751,,PR0
         2 001702   001720 605000 2                  TPL     s:9307
         2 001703   005301 236100                    LDQ     2753,,PR0
         2 001704   200013 116100                    CMPQ    SAVEIC,,AUTO
         2 001705   001720 601000 2                  TNZ     s:9307

      413     9306    1             CALL DDR$MOVE (' *ALTRET*', 9, BB$, REM) ALTRET(TOO_BIG);

PL6.E3A0      #001=DDR$REPORT File=DDR$REPORT.:E05TSI                            TUE 07/29/97 14:09 Page:69
   9306  2 001706   200006 631500                    EPPR1   REM,,AUTO
         2 001707   200035 451500                    STP1    DD_VERSIZE+10,,AUTO
         2 001710   200007 633500                    EPPR3   BB$,,AUTO
         2 001711   200034 453500                    STP3    DD_VERSIZE+9,,AUTO
         2 001712   000134 237000 3                  LDAQ    92
         2 001713   200032 757100                    STAQ    DD_VERSIZE+7,,AUTO
         2 001714   200032 630500                    EPPR0   DD_VERSIZE+7,,AUTO
         2 001715   000022 631400 xsym               EPPR1   B_VECTNIL+18
         2 001716   000000 701000 xent               TSX1    DDR$MOVE
         2 001717   002450 702000 2                  TSX2    TOO_BIG

      414     9307    1        BB$->CHAR2 = '  ';

   9307  2 001720   200007 470500                    LDP0    BB$,,AUTO
         2 001721   040100 100400                    MLR     fill='040'O
         2 001722   000225 000002 0                  ADSC9   FAULT_TEXT_SIZE+54       cn=0,n=2
         2 001723   000000 000002                    ADSC9   0,,PR0                   cn=0,n=2

      415     9308    1        BB$ = PINCRC(BB$,2);               /* LEAVE SOME SPACE BEFORE THE PROMPT */

   9308  2 001724   200007 236100                    LDQ     BB$,,AUTO
         2 001725   400000 036007                    ADLQ    -131072,DL
         2 001726   200007 756100                    STQ     BB$,,AUTO

      416     9309    1   RESTORE:
      417     9310    1        S_D.D$ = SAVE_D$;

   9310  2 001727   200014 236100       RESTORE      LDQ     SAVE_D$,,AUTO
         2 001730   000000 470400 xsym               LDP0    S_D$
         2 001731   000044 756100                    STQ     36,,PR0

      418     9311    1        S_D.DESCL$ = SAVE_DESCL$;

   9311  2 001732   200015 236100                    LDQ     SAVE_DESCL$,,AUTO
         2 001733   000042 756100                    STQ     34,,PR0

      419     9312    1        GOTO REPORT;
PL6.E3A0      #001=DDR$REPORT File=DDR$REPORT.:E05TSI                            TUE 07/29/97 14:09 Page:70

   9312  2 001734   002452 710000 2                  TRA     REPORT

      420     9313    1   TOO_BIG_1:
      421     9314    1        ERROR = E@BUFFULL;                 /* E@BUFFULL */

   9314  2 001735   000130 235007       TOO_BIG_1    LDA     88,DL
         2 001736   200017 755100                    STA     ERROR,,AUTO

      422     9315    1        GOTO RESTORE;

   9315  2 001737   001727 710000 2                  TRA     RESTORE

      423     9316    1   REPORT_TRACECALLS:
      424     9317    1        PTR$ = PINCRW(S_D.EDEF$, S_D.QSCH.PEDEF#*SIZEW(B$EDEF));

   9317  2 001740   000000 471400 xsym  REPORT_TRAC* LDP1    S_D$
         2 001741   100734 720100                    LXL0    476,,PR1
         2 001742   101042 473500                    LDP3    546,,PR1
         2 001743   000000 636010                    EAQ     0,X0
         2 001744   000021 772000                    QRL     17
         2 001745   300000 634506                    EPPR4   0,QL,PR3
         2 001746   200010 454500                    STP4    PTR$,,AUTO

      425     9318    1        IF PTR$->B$EDEF.CST = %ASYNC# OR PTR$->B$EDEF.CST = %XASYNC#

   9318  2 001747   400001 236100                    LDQ     1,,PR4
         2 001750   074000 376007                    ANQ     30720,DL
         2 001751   014000 116007                    CMPQ    6144,DL
         2 001752   001755 600000 2                  TZE     s:9320
         2 001753   040000 116007                    CMPQ    16384,DL
         2 001754   001765 601000 2                  TNZ     s:9324

      426     9319    2        THEN DO;

      427     9320    2             TEMP = H_ATC;

PL6.E3A0      #001=DDR$REPORT File=DDR$REPORT.:E05TSI                            TUE 07/29/97 14:09 Page:71
   9320  2 001755   000005 235007                    LDA     5,DL
         2 001756   200004 755100                    STA     TEMP,,AUTO

      428     9321    2             X1 = PINCRW(UTCB$, UTCB$->B$TCBSTK.OFFSET)->B$SS.IC;
              9321                      /* Get ic from the users TCB */

   9321  2 001757   000000 475400 xsym               LDP5    UTCB$
         2 001760   500001 221100                    LDX1    1,,PR5
         2 001761   500004 236111                    LDQ     4,X1,PR5
         2 001762   000022 772000                    QRL     18
         2 001763   200005 756100                    STQ     X1,,AUTO

      429     9322    2           END;

   9322  2 001764   001774 710000 2                  TRA     s:9327

      430     9323    2        ELSE DO;

      431     9324    2             TEMP = H_TC;

   9324  2 001765   000001 235007                    LDA     1,DL
         2 001766   200004 755100                    STA     TEMP,,AUTO

      432     9325    2             X1 = S_D.USS$->B$SS.X1 - 1;

   9325  2 001767   100005 475500                    LDP5    5,,PR1
         2 001770   500050 236100                    LDQ     40,,PR5
         2 001771   777777 376007                    ANQ     -1,DL
         2 001772   000001 136007                    SBLQ    1,DL
         2 001773   200005 756100                    STQ     X1,,AUTO

      433     9326    2           END;

      434     9327    1        IF S_D.HIST.ACTIVE

   9327  2 001774   104725 234100                    SZN     2517,,PR1
         2 001775   002043 605000 2                  TPL     s:9339
PL6.E3A0      #001=DDR$REPORT File=DDR$REPORT.:E05TSI                            TUE 07/29/97 14:09 Page:72

      435     9328    2        THEN DO;

      436     9329    3             IF S_D.OVERLAID THEN DO;

   9329  2 001776   104764 234100                    SZN     2548,,PR1
         2 001777   002021 605000 2                  TPL     ZERO

      437     9330    3                  CALL DDS$IC2NODE (X1, LNODE) ALTRET(ZERO);

   9330  2 002000   200020 635500                    EPPR5   LNODE,,AUTO
         2 002001   200033 455500                    STP5    DD_VERSIZE+8,,AUTO
         2 002002   200005 636500                    EPPR6   X1,,AUTO
         2 002003   200032 456500                    STP6    DD_VERSIZE+7,,AUTO
         2 002004   200032 630500                    EPPR0   DD_VERSIZE+7,,AUTO
         2 002005   000020 631400 xsym               EPPR1   B_VECTNIL+16
         2 002006   000000 701000 xent               TSX1    DDS$IC2NODE
         2 002007   002021 702000 2                  TSX2    ZERO

      438     9331    3                  CALL DDS$IC2NODE (SAVEIC, RNODE) ALTRET(ZERO);

   9331  2 002010   200021 630500                    EPPR0   RNODE,,AUTO
         2 002011   200033 450500                    STP0    DD_VERSIZE+8,,AUTO
         2 002012   200013 631500                    EPPR1   SAVEIC,,AUTO
         2 002013   200032 451500                    STP1    DD_VERSIZE+7,,AUTO
         2 002014   200032 630500                    EPPR0   DD_VERSIZE+7,,AUTO
         2 002015   000020 631400 xsym               EPPR1   B_VECTNIL+16
         2 002016   000000 701000 xent               TSX1    DDS$IC2NODE
         2 002017   002021 702000 2                  TSX2    ZERO

      439     9332    3                END;

   9332  2 002020   002023 710000 2                  TRA     s:9337

      440     9333    3             ELSE DO;

      441     9334    3   ZERO:          LNODE=0;
PL6.E3A0      #001=DDR$REPORT File=DDR$REPORT.:E05TSI                            TUE 07/29/97 14:09 Page:73

   9334  2 002021   200020 450100       ZERO         STZ     LNODE,,AUTO

      442     9335    3                  RNODE=0;

   9335  2 002022   200021 450100                    STZ     RNODE,,AUTO

      443     9336    3                END;

      444     9337    2             CALL DDB$PUTHIST (TEMP, 0, X1, SAVEIC, LNODE, RNODE);

   9337  2 002023   200021 630500                    EPPR0   RNODE,,AUTO
         2 002024   200037 450500                    STP0    DD_VERSIZE+12,,AUTO
         2 002025   200020 631500                    EPPR1   LNODE,,AUTO
         2 002026   200036 451500                    STP1    DD_VERSIZE+11,,AUTO
         2 002027   200013 633500                    EPPR3   SAVEIC,,AUTO
         2 002030   200035 453500                    STP3    DD_VERSIZE+10,,AUTO
         2 002031   200005 634500                    EPPR4   X1,,AUTO
         2 002032   200034 454500                    STP4    DD_VERSIZE+9,,AUTO
         2 002033   000123 236000 3                  LDQ     83
         2 002034   200033 756100                    STQ     DD_VERSIZE+8,,AUTO
         2 002035   200004 635500                    EPPR5   TEMP,,AUTO
         2 002036   200032 455500                    STP5    DD_VERSIZE+7,,AUTO
         2 002037   200032 630500                    EPPR0   DD_VERSIZE+7,,AUTO
         2 002040   000024 631400 xsym               EPPR1   B_VECTNIL+20
         2 002041   000000 701000 xent               TSX1    DDB$PUTHIST
         2 002042   000000 011000                    NOP     0

      445     9338    2           END;

      446     9339    1        IF S_D.TR$INFO.SILENT THEN RETURN;

   9339  2 002043   000000 470400 xsym               LDP0    S_D$
         2 002044   004631 234100                    SZN     2457,,PR0
         2 002045   002047 605000 2                  TPL     s:9340

   9339  2 002046   000000 702200 xent               TSX2  ! X66_ARET
PL6.E3A0      #001=DDR$REPORT File=DDR$REPORT.:E05TSI                            TUE 07/29/97 14:09 Page:74

      447     9340    1        CALL DDR$POSIT(X1, BB$, REM, NCARS) ALTRET(TOO_BIG);

   9340  2 002047   200012 631500                    EPPR1   NCARS,,AUTO
         2 002050   200035 451500                    STP1    DD_VERSIZE+10,,AUTO
         2 002051   200006 633500                    EPPR3   REM,,AUTO
         2 002052   200034 453500                    STP3    DD_VERSIZE+9,,AUTO
         2 002053   200007 634500                    EPPR4   BB$,,AUTO
         2 002054   200033 454500                    STP4    DD_VERSIZE+8,,AUTO
         2 002055   200005 635500                    EPPR5   X1,,AUTO
         2 002056   200032 455500                    STP5    DD_VERSIZE+7,,AUTO
         2 002057   200032 630500                    EPPR0   DD_VERSIZE+7,,AUTO
         2 002060   000022 631400 xsym               EPPR1   B_VECTNIL+18
         2 002061   000000 701000 xent               TSX1    DDR$POSIT
         2 002062   002450 702000 2                  TSX2    TOO_BIG

      448     9341    1        CALL UPDTBP;

   9341  2 002063   002525 701000 2                  TSX1    UPDTBP
         2 002064   000000 011000                    NOP     0

      449     9342    1        IF TEMP = H_TC THEN

   9342  2 002065   200004 235100                    LDA     TEMP,,AUTO
         2 002066   000001 115007                    CMPA    1,DL
         2 002067   002103 601000 2                  TNZ     s:9344

      450     9343    1             CALL DDR$MOVE( ' <CALLED> ', 10, BB$, REM ) ALTRET(TOO_BIG);

   9343  2 002070   200006 630500                    EPPR0   REM,,AUTO
         2 002071   200035 450500                    STP0    DD_VERSIZE+10,,AUTO
         2 002072   200007 631500                    EPPR1   BB$,,AUTO
         2 002073   200034 451500                    STP1    DD_VERSIZE+9,,AUTO
         2 002074   000136 237000 3                  LDAQ    94
         2 002075   200032 757100                    STAQ    DD_VERSIZE+7,,AUTO
         2 002076   200032 630500                    EPPR0   DD_VERSIZE+7,,AUTO
         2 002077   000022 631400 xsym               EPPR1   B_VECTNIL+18
PL6.E3A0      #001=DDR$REPORT File=DDR$REPORT.:E05TSI                            TUE 07/29/97 14:09 Page:75
         2 002100   000000 701000 xent               TSX1    DDR$MOVE
         2 002101   002450 702000 2                  TSX2    TOO_BIG
         2 002102   002115 710000 2                  TRA     s:9345

      451     9344    1        ELSE CALL DDR$MOVE(' <ASYNC ENTRY> ', 15, BB$, REM) ALTRET (TOO_BIG);

   9344  2 002103   200006 630500                    EPPR0   REM,,AUTO
         2 002104   200035 450500                    STP0    DD_VERSIZE+10,,AUTO
         2 002105   200007 631500                    EPPR1   BB$,,AUTO
         2 002106   200034 451500                    STP1    DD_VERSIZE+9,,AUTO
         2 002107   000142 237000 3                  LDAQ    98
         2 002110   200032 757100                    STAQ    DD_VERSIZE+7,,AUTO
         2 002111   200032 630500                    EPPR0   DD_VERSIZE+7,,AUTO
         2 002112   000022 631400 xsym               EPPR1   B_VECTNIL+18
         2 002113   000000 701000 xent               TSX1    DDR$MOVE
         2 002114   002450 702000 2                  TSX2    TOO_BIG

      452     9345    1        CALL DDR$POSIT( SAVEIC, BB$, REM, NCARS ) ALTRET( TOO_BIG );

   9345  2 002115   200012 630500                    EPPR0   NCARS,,AUTO
         2 002116   200035 450500                    STP0    DD_VERSIZE+10,,AUTO
         2 002117   200006 631500                    EPPR1   REM,,AUTO
         2 002120   200034 451500                    STP1    DD_VERSIZE+9,,AUTO
         2 002121   200007 633500                    EPPR3   BB$,,AUTO
         2 002122   200033 453500                    STP3    DD_VERSIZE+8,,AUTO
         2 002123   200013 634500                    EPPR4   SAVEIC,,AUTO
         2 002124   200032 454500                    STP4    DD_VERSIZE+7,,AUTO
         2 002125   200032 630500                    EPPR0   DD_VERSIZE+7,,AUTO
         2 002126   000022 631400 xsym               EPPR1   B_VECTNIL+18
         2 002127   000000 701000 xent               TSX1    DDR$POSIT
         2 002130   002450 702000 2                  TSX2    TOO_BIG

      453     9346    1        CALL UPDTBP;                       /* Update BB$, REM */

   9346  2 002131   002525 701000 2                  TSX1    UPDTBP
         2 002132   000000 011000                    NOP     0

PL6.E3A0      #001=DDR$REPORT File=DDR$REPORT.:E05TSI                            TUE 07/29/97 14:09 Page:76
      454     9347    1        GOTO REPORT;

   9347  2 002133   002452 710000 2                  TRA     REPORT

      455     9348    1   REPORT_WHEN:
      456     9349    1        CALL BINCHAR( BB$->CHAR2, S_D.IXFIX);

   9349  2 002134   000000 471400 xsym  REPORT_WHEN  LDP1    S_D$
         2 002135   200007 473500                    LDP3    BB$,,AUTO
         2 002136   000100 301500                    BTD
         2 002137   100015 000004                    NDSC9   13,,PR1                  cn=0,s=lsgnf,sf=0,n=4
         2 002140   300000 030002                    NDSC9   0,,PR3                   cn=0,s=nosgn,sf=0,n=2

      457     9350    1        NCARS = 2;

   9350  2 002141   000002 235007                    LDA     2,DL
         2 002142   200012 755100                    STA     NCARS,,AUTO

      458     9351    1        CALL UPDTBP;

   9351  2 002143   002525 701000 2                  TSX1    UPDTBP
         2 002144   000000 011000                    NOP     0

      459     9352    1        CALL DDR$MOVE ( ' WHEN_BRK@ ', 11, BB$, REM) ALTRET(TOO_BIG);

   9352  2 002145   200006 630500                    EPPR0   REM,,AUTO
         2 002146   200035 450500                    STP0    DD_VERSIZE+10,,AUTO
         2 002147   200007 631500                    EPPR1   BB$,,AUTO
         2 002150   200034 451500                    STP1    DD_VERSIZE+9,,AUTO
         2 002151   000144 237000 3                  LDAQ    100
         2 002152   200032 757100                    STAQ    DD_VERSIZE+7,,AUTO
         2 002153   200032 630500                    EPPR0   DD_VERSIZE+7,,AUTO
         2 002154   000022 631400 xsym               EPPR1   B_VECTNIL+18
         2 002155   000000 701000 xent               TSX1    DDR$MOVE
         2 002156   002450 702000 2                  TSX2    TOO_BIG

      460     9353    1        GOTO REPORT_IBP;
PL6.E3A0      #001=DDR$REPORT File=DDR$REPORT.:E05TSI                            TUE 07/29/97 14:09 Page:77

   9353  2 002157   001525 710000 2                  TRA     REPORT_IBP

      461     9354    1   REPORT_WHENXEQ:
      462     9355    1        CALL BINCHAR( BB$->CHAR2, S_D.IXFIX);

   9355  2 002160   000000 471400 xsym  REPORT_WHEN* LDP1    S_D$
         2 002161   200007 473500                    LDP3    BB$,,AUTO
         2 002162   000100 301500                    BTD
         2 002163   100015 000004                    NDSC9   13,,PR1                  cn=0,s=lsgnf,sf=0,n=4
         2 002164   300000 030002                    NDSC9   0,,PR3                   cn=0,s=nosgn,sf=0,n=2

      463     9356    1        NCARS = 2;

   9356  2 002165   000002 235007                    LDA     2,DL
         2 002166   200012 755100                    STA     NCARS,,AUTO

      464     9357    1        CALL UPDTBP;

   9357  2 002167   002525 701000 2                  TSX1    UPDTBP
         2 002170   000000 011000                    NOP     0

      465     9358    1        CALL DDR$MOVE( ' WHEN_BRK during XEQ', 20, BB$, REM) ALTRET(TOO_BIG);

   9358  2 002171   200006 630500                    EPPR0   REM,,AUTO
         2 002172   200035 450500                    STP0    DD_VERSIZE+10,,AUTO
         2 002173   200007 631500                    EPPR1   BB$,,AUTO
         2 002174   200034 451500                    STP1    DD_VERSIZE+9,,AUTO
         2 002175   000146 237000 3                  LDAQ    102
         2 002176   200032 757100                    STAQ    DD_VERSIZE+7,,AUTO
         2 002177   200032 630500                    EPPR0   DD_VERSIZE+7,,AUTO
         2 002200   000022 631400 xsym               EPPR1   B_VECTNIL+18
         2 002201   000000 701000 xent               TSX1    DDR$MOVE
         2 002202   002450 702000 2                  TSX2    TOO_BIG

      466     9359    1        GOTO REPORT;

PL6.E3A0      #001=DDR$REPORT File=DDR$REPORT.:E05TSI                            TUE 07/29/97 14:09 Page:78
   9359  2 002203   002452 710000 2                  TRA     REPORT

      467     9360    1   REPORT_WHENPMME:
      468     9361    1        CALL BINCHAR(BB$->CHAR2, S_D.IXFIX);

   9361  2 002204   000000 471400 xsym  REPORT_WHEN* LDP1    S_D$
         2 002205   200007 473500                    LDP3    BB$,,AUTO
         2 002206   000100 301500                    BTD
         2 002207   100015 000004                    NDSC9   13,,PR1                  cn=0,s=lsgnf,sf=0,n=4
         2 002210   300000 030002                    NDSC9   0,,PR3                   cn=0,s=nosgn,sf=0,n=2

      469     9362    1        NCARS=2;

   9362  2 002211   000002 235007                    LDA     2,DL
         2 002212   200012 755100                    STA     NCARS,,AUTO

      470     9363    1        CALL UPDTBP;

   9363  2 002213   002525 701000 2                  TSX1    UPDTBP
         2 002214   000000 011000                    NOP     0

      471     9364    1       CALL DDR$MOVE ( ' WHEN_BRK@ monitor call before ', 31, BB$, REM) ALTRET(TOO_BIG
              9364                 );

   9364  2 002215   200006 630500                    EPPR0   REM,,AUTO
         2 002216   200035 450500                    STP0    DD_VERSIZE+10,,AUTO
         2 002217   200007 631500                    EPPR1   BB$,,AUTO
         2 002220   200034 451500                    STP1    DD_VERSIZE+9,,AUTO
         2 002221   000152 237000 3                  LDAQ    106
         2 002222   200032 757100                    STAQ    DD_VERSIZE+7,,AUTO
         2 002223   200032 630500                    EPPR0   DD_VERSIZE+7,,AUTO
         2 002224   000022 631400 xsym               EPPR1   B_VECTNIL+18
         2 002225   000000 701000 xent               TSX1    DDR$MOVE
         2 002226   002450 702000 2                  TSX2    TOO_BIG

      472     9365    1        GOTO REPORT_IBP;

PL6.E3A0      #001=DDR$REPORT File=DDR$REPORT.:E05TSI                            TUE 07/29/97 14:09 Page:79
   9365  2 002227   001525 710000 2                  TRA     REPORT_IBP

      473     9366    1   REPORT_WHENASL:
      474     9367    1        CALL BINCHAR(BB$->CHAR2, S_D.IXFIX);

   9367  2 002230   000000 470400 xsym  REPORT_WHEN* LDP0    S_D$
         2 002231   200007 471500                    LDP1    BB$,,AUTO
         2 002232   000100 301500                    BTD
         2 002233   000015 000004                    NDSC9   13,,PR0                  cn=0,s=lsgnf,sf=0,n=4
         2 002234   100000 030002                    NDSC9   0,,PR1                   cn=0,s=nosgn,sf=0,n=2

      475     9368    1        NCARS = 2;

   9368  2 002235   000002 235007                    LDA     2,DL
         2 002236   200012 755100                    STA     NCARS,,AUTO

      476     9369    1        CALL UPDTBP;

   9369  2 002237   002525 701000 2                  TSX1    UPDTBP
         2 002240   000000 011000                    NOP     0

      477     9370    1        CALL DDR$MOVE(' WHEN_BRK@ during ASL call before ', 34, BB$, REM) ALTRET(
              9370                 TOO_BIG);

   9370  2 002241   200006 630500                    EPPR0   REM,,AUTO
         2 002242   200035 450500                    STP0    DD_VERSIZE+10,,AUTO
         2 002243   200007 631500                    EPPR1   BB$,,AUTO
         2 002244   200034 451500                    STP1    DD_VERSIZE+9,,AUTO
         2 002245   000154 237000 3                  LDAQ    108
         2 002246   200032 757100                    STAQ    DD_VERSIZE+7,,AUTO
         2 002247   200032 630500                    EPPR0   DD_VERSIZE+7,,AUTO
         2 002250   000022 631400 xsym               EPPR1   B_VECTNIL+18
         2 002251   000000 701000 xent               TSX1    DDR$MOVE
         2 002252   002450 702000 2                  TSX2    TOO_BIG

      478     9371    1        GOTO REPORT_IBP;

PL6.E3A0      #001=DDR$REPORT File=DDR$REPORT.:E05TSI                            TUE 07/29/97 14:09 Page:80
   9371  2 002253   001525 710000 2                  TRA     REPORT_IBP

      479     9372    1   REPORT_FAULT:
      480     9373    1        CALL DDR$MOVE( 'FAULT@ ', 7, BB$, REM ) ALTRET( TOO_BIG );

   9373  2 002254   200006 631500       REPORT_FAULT EPPR1   REM,,AUTO
         2 002255   200035 451500                    STP1    DD_VERSIZE+10,,AUTO
         2 002256   200007 633500                    EPPR3   BB$,,AUTO
         2 002257   200034 453500                    STP3    DD_VERSIZE+9,,AUTO
         2 002260   000156 237000 3                  LDAQ    110
         2 002261   200032 757100                    STAQ    DD_VERSIZE+7,,AUTO
         2 002262   200032 630500                    EPPR0   DD_VERSIZE+7,,AUTO
         2 002263   000022 631400 xsym               EPPR1   B_VECTNIL+18
         2 002264   000000 701000 xent               TSX1    DDR$MOVE
         2 002265   002450 702000 2                  TSX2    TOO_BIG

      481     9374    1        CALL DDR$POSIT( SAVEIC, BB$, REM, NCARS ) ALTRET( TOO_BIG );

   9374  2 002266   200012 630500                    EPPR0   NCARS,,AUTO
         2 002267   200035 450500                    STP0    DD_VERSIZE+10,,AUTO
         2 002270   200006 631500                    EPPR1   REM,,AUTO
         2 002271   200034 451500                    STP1    DD_VERSIZE+9,,AUTO
         2 002272   200007 633500                    EPPR3   BB$,,AUTO
         2 002273   200033 453500                    STP3    DD_VERSIZE+8,,AUTO
         2 002274   200013 634500                    EPPR4   SAVEIC,,AUTO
         2 002275   200032 454500                    STP4    DD_VERSIZE+7,,AUTO
         2 002276   200032 630500                    EPPR0   DD_VERSIZE+7,,AUTO
         2 002277   000022 631400 xsym               EPPR1   B_VECTNIL+18
         2 002300   000000 701000 xent               TSX1    DDR$POSIT
         2 002301   002450 702000 2                  TSX2    TOO_BIG

      482     9375    1        CALL UPDTBP;                       /* Update BB$, REM */

   9375  2 002302   002525 701000 2                  TSX1    UPDTBP
         2 002303   000000 011000                    NOP     0

      483     9376    1   REPORT_FAULT_TEXT:
PL6.E3A0      #001=DDR$REPORT File=DDR$REPORT.:E05TSI                            TUE 07/29/97 14:09 Page:81
      484     9377    1        FAULT = S_D.FAULT;

   9377  2 002304   000000 470400 xsym  REPORT_FAUL* LDP0    S_D$
         2 002305   000030 235100                    LDA     24,,PR0
         2 002306   200016 755100                    STA     FAULT,,AUTO

      485     9378    1   REPORT_FAULT_TEXT1:
      486     9379    1        CALL DDR$MOVE( ' FC = ', 6, BB$, REM ) ALTRET( TOO_BIG );

   9379  2 002307   200006 630500       REPORT_FAUL* EPPR0   REM,,AUTO
         2 002310   200035 450500                    STP0    DD_VERSIZE+10,,AUTO
         2 002311   200007 631500                    EPPR1   BB$,,AUTO
         2 002312   200034 451500                    STP1    DD_VERSIZE+9,,AUTO
         2 002313   000160 237000 3                  LDAQ    112
         2 002314   200032 757100                    STAQ    DD_VERSIZE+7,,AUTO
         2 002315   200032 630500                    EPPR0   DD_VERSIZE+7,,AUTO
         2 002316   000022 631400 xsym               EPPR1   B_VECTNIL+18
         2 002317   000000 701000 xent               TSX1    DDR$MOVE
         2 002320   002450 702000 2                  TSX2    TOO_BIG

      487     9380    1        CALL DDR$BINTXT( BB$, FAULT, %OCT_FMT, NCARS );

   9380  2 002321   200012 630500                    EPPR0   NCARS,,AUTO
         2 002322   200035 450500                    STP0    DD_VERSIZE+10,,AUTO
         2 002323   000006 236000 3                  LDQ     6
         2 002324   200034 756100                    STQ     DD_VERSIZE+9,,AUTO
         2 002325   200016 631500                    EPPR1   FAULT,,AUTO
         2 002326   200033 451500                    STP1    DD_VERSIZE+8,,AUTO
         2 002327   200007 633500                    EPPR3   BB$,,AUTO
         2 002330   200032 453500                    STP3    DD_VERSIZE+7,,AUTO
         2 002331   200032 630500                    EPPR0   DD_VERSIZE+7,,AUTO
         2 002332   000022 631400 xsym               EPPR1   B_VECTNIL+18
         2 002333   000000 701000 xent               TSX1    DDR$BINTXT
         2 002334   000000 011000                    NOP     0

      488     9381    1        CALL UPDTBP;                       /* Update BB$, REM */

PL6.E3A0      #001=DDR$REPORT File=DDR$REPORT.:E05TSI                            TUE 07/29/97 14:09 Page:82
   9381  2 002335   002525 701000 2                  TSX1    UPDTBP
         2 002336   000000 011000                    NOP     0

      489     9382    1        CALL DDR$MOVE( ' -> ', 4, BB$, REM ) ALTRET( TOO_BIG );

   9382  2 002337   200006 630500                    EPPR0   REM,,AUTO
         2 002340   200035 450500                    STP0    DD_VERSIZE+10,,AUTO
         2 002341   200007 631500                    EPPR1   BB$,,AUTO
         2 002342   200034 451500                    STP1    DD_VERSIZE+9,,AUTO
         2 002343   000162 237000 3                  LDAQ    114
         2 002344   200032 757100                    STAQ    DD_VERSIZE+7,,AUTO
         2 002345   200032 630500                    EPPR0   DD_VERSIZE+7,,AUTO
         2 002346   000022 631400 xsym               EPPR1   B_VECTNIL+18
         2 002347   000000 701000 xent               TSX1    DDR$MOVE
         2 002350   002450 702000 2                  TSX2    TOO_BIG

      490     9383    1        CALL DDR$MOVE( FAULT_TEXT_PTR$( FAULT ) -> WIRD,

   9383  2 002351   200016 720100                    LXL0    FAULT,,AUTO
         2 002352   000111 470410 0                  LDP0    FAULT_TEXT_PTR$,X0
         2 002353   200006 631500                    EPPR1   REM,,AUTO
         2 002354   200035 451500                    STP1    DD_VERSIZE+10,,AUTO
         2 002355   200007 633500                    EPPR3   BB$,,AUTO
         2 002356   200034 453500                    STP3    DD_VERSIZE+9,,AUTO
         2 002357   000137 634410 0                  EPPR4   FAULT_TEXT_SIZE,X0
         2 002360   200033 454500                    STP4    DD_VERSIZE+8,,AUTO
         2 002361   200032 450500                    STP0    DD_VERSIZE+7,,AUTO
         2 002362   200032 630500                    EPPR0   DD_VERSIZE+7,,AUTO
         2 002363   000022 631400 xsym               EPPR1   B_VECTNIL+18
         2 002364   000000 701000 xent               TSX1    DDR$MOVE
         2 002365   002450 702000 2                  TSX2    TOO_BIG

      491     9384    1          FAULT_TEXT_SIZE( FAULT ), BB$, REM ) ALTRET( TOO_BIG );
      492     9385    1        GOTO REPORT;

   9385  2 002366   002452 710000 2                  TRA     REPORT

PL6.E3A0      #001=DDR$REPORT File=DDR$REPORT.:E05TSI                            TUE 07/29/97 14:09 Page:83
      493     9386    1   REPORT_SFAULT:
      494     9387    1        CALL DDR$MOVE( 'FAULT IN DELTA@ ', 16, BB$, REM ) ALTRET( TOO_BIG );

   9387  2 002367   200006 631500       REPORT_SFAU* EPPR1   REM,,AUTO
         2 002370   200035 451500                    STP1    DD_VERSIZE+10,,AUTO
         2 002371   200007 633500                    EPPR3   BB$,,AUTO
         2 002372   200034 453500                    STP3    DD_VERSIZE+9,,AUTO
         2 002373   000166 237000 3                  LDAQ    118
         2 002374   200032 757100                    STAQ    DD_VERSIZE+7,,AUTO
         2 002375   200032 630500                    EPPR0   DD_VERSIZE+7,,AUTO
         2 002376   000022 631400 xsym               EPPR1   B_VECTNIL+18
         2 002377   000000 701000 xent               TSX1    DDR$MOVE
         2 002400   002450 702000 2                  TSX2    TOO_BIG

      495     9388    1        CALL DDR$BINTXT( BB$, DEL_FAULTLOC, %OCT_FMT, NCARS);

   9388  2 002401   200012 630500                    EPPR0   NCARS,,AUTO
         2 002402   200035 450500                    STP0    DD_VERSIZE+10,,AUTO
         2 002403   000006 236000 3                  LDQ     6
         2 002404   200034 756100                    STQ     DD_VERSIZE+9,,AUTO
         2 002405   000165 236000 3                  LDQ     117
         2 002406   200033 756100                    STQ     DD_VERSIZE+8,,AUTO
         2 002407   200007 631500                    EPPR1   BB$,,AUTO
         2 002410   200032 451500                    STP1    DD_VERSIZE+7,,AUTO
         2 002411   200032 630500                    EPPR0   DD_VERSIZE+7,,AUTO
         2 002412   000022 631400 xsym               EPPR1   B_VECTNIL+18
         2 002413   000000 701000 xent               TSX1    DDR$BINTXT
         2 002414   000000 011000                    NOP     0

      496     9389    1        CALL UPDTBP;                       /* Update BB$, REM */

   9389  2 002415   002525 701000 2                  TSX1    UPDTBP
         2 002416   000000 011000                    NOP     0

      497     9390    1        FAULT = DEL_FAULT;

   9390  2 002417   000000 235000 xsym               LDA     DEL_FAULT
PL6.E3A0      #001=DDR$REPORT File=DDR$REPORT.:E05TSI                            TUE 07/29/97 14:09 Page:84
         2 002420   200016 755100                    STA     FAULT,,AUTO

      498     9391    1        GOTO REPORT_FAULT_TEXT1;

   9391  2 002421   002307 710000 2                  TRA     REPORT_FAULT_TEXT1

      499     9392    1   REPORT_XEQFLT:
      500     9393    1        CALL DDR$MOVE( 'XEQ FAULT', 9, BB$, REM ) ALTRET( TOO_BIG );

   9393  2 002422   200006 631500       REPORT_XEQF* EPPR1   REM,,AUTO
         2 002423   200035 451500                    STP1    DD_VERSIZE+10,,AUTO
         2 002424   200007 633500                    EPPR3   BB$,,AUTO
         2 002425   200034 453500                    STP3    DD_VERSIZE+9,,AUTO
         2 002426   000170 237000 3                  LDAQ    120
         2 002427   200032 757100                    STAQ    DD_VERSIZE+7,,AUTO
         2 002430   200032 630500                    EPPR0   DD_VERSIZE+7,,AUTO
         2 002431   000022 631400 xsym               EPPR1   B_VECTNIL+18
         2 002432   000000 701000 xent               TSX1    DDR$MOVE
         2 002433   002450 702000 2                  TSX2    TOO_BIG

      501     9394    1        GOTO REPORT_FAULT_TEXT;

   9394  2 002434   002304 710000 2                  TRA     REPORT_FAULT_TEXT

      502     9395    1   REPORT_BREAK:
      503     9396    1        CALL DDR$MOVE( 'BREAK IN DELTA', 14, BB$, REM ) ALTRET( TOO_BIG );

   9396  2 002435   200006 631500       REPORT_BREAK EPPR1   REM,,AUTO
         2 002436   200035 451500                    STP1    DD_VERSIZE+10,,AUTO
         2 002437   200007 633500                    EPPR3   BB$,,AUTO
         2 002440   200034 453500                    STP3    DD_VERSIZE+9,,AUTO
         2 002441   000172 237000 3                  LDAQ    122
         2 002442   200032 757100                    STAQ    DD_VERSIZE+7,,AUTO
         2 002443   200032 630500                    EPPR0   DD_VERSIZE+7,,AUTO
         2 002444   000022 631400 xsym               EPPR1   B_VECTNIL+18
         2 002445   000000 701000 xent               TSX1    DDR$MOVE
         2 002446   002450 702000 2                  TSX2    TOO_BIG
PL6.E3A0      #001=DDR$REPORT File=DDR$REPORT.:E05TSI                            TUE 07/29/97 14:09 Page:85

      504     9397    1        GOTO REPORT;

   9397  2 002447   002452 710000 2                  TRA     REPORT

      505     9398    1   TOO_BIG:
      506     9399    1        ERROR = E@BUFFULL;                 /* E@BUFFULL */

   9399  2 002450   000130 235007       TOO_BIG      LDA     88,DL
         2 002451   200017 755100                    STA     ERROR,,AUTO

      507     9400    1   REPORT:
      508     9401    1        MSG_LENGTH = POFFC( BB$, ADDR( S_D.OUTPUT ) );

   9401  2 002452   000000 236000 xsym  REPORT       LDQ     S_D$
         2 002453   005335 036003                    ADLQ    2781,DU
         2 002454   000020 772000                    QRL     16
         2 002455   200032 756100                    STQ     DD_VERSIZE+7,,AUTO
         2 002456   200007 236100                    LDQ     BB$,,AUTO
         2 002457   000020 772000                    QRL     16
         2 002460   200032 136100                    SBLQ    DD_VERSIZE+7,,AUTO
         2 002461   200011 756100                    STQ     MSG_LENGTH,,AUTO

      509     9402    1        IF EVENT = R_STEP

   9402  2 002462   200003 470500                    LDP0    @EVENT,,AUTO
         2 002463   000000 235100                    LDA     0,,PR0
         2 002464   000006 115007                    CMPA    6,DL
         2 002465   002502 601000 2                  TNZ     s:9404

      510     9403    1        THEN CALL DDQ$WRITENU( ADDR( S_D.OUTPUT ), MSG_LENGTH );

   9403  2 002466   000000 236000 xsym               LDQ     S_D$
         2 002467   005335 036003                    ADLQ    2781,DU
         2 002470   200032 756100                    STQ     DD_VERSIZE+7,,AUTO
         2 002471   200011 631500                    EPPR1   MSG_LENGTH,,AUTO
         2 002472   200035 451500                    STP1    DD_VERSIZE+10,,AUTO
PL6.E3A0      #001=DDR$REPORT File=DDR$REPORT.:E05TSI                            TUE 07/29/97 14:09 Page:86
         2 002473   200032 633500                    EPPR3   DD_VERSIZE+7,,AUTO
         2 002474   200034 453500                    STP3    DD_VERSIZE+9,,AUTO
         2 002475   200034 630500                    EPPR0   DD_VERSIZE+9,,AUTO
         2 002476   000020 631400 xsym               EPPR1   B_VECTNIL+16
         2 002477   000000 701000 xent               TSX1    DDQ$WRITENU
         2 002500   000000 011000                    NOP     0
         2 002501   002515 710000 2                  TRA     s:9405

      511     9404    1        ELSE CALL DDQ$WRITE( ADDR( S_D.OUTPUT ), MSG_LENGTH );

   9404  2 002502   000000 236000 xsym               LDQ     S_D$
         2 002503   005335 036003                    ADLQ    2781,DU
         2 002504   200032 756100                    STQ     DD_VERSIZE+7,,AUTO
         2 002505   200011 631500                    EPPR1   MSG_LENGTH,,AUTO
         2 002506   200035 451500                    STP1    DD_VERSIZE+10,,AUTO
         2 002507   200032 633500                    EPPR3   DD_VERSIZE+7,,AUTO
         2 002510   200034 453500                    STP3    DD_VERSIZE+9,,AUTO
         2 002511   200034 630500                    EPPR0   DD_VERSIZE+9,,AUTO
         2 002512   000020 631400 xsym               EPPR1   B_VECTNIL+16
         2 002513   000000 701000 xent               TSX1    DDQ$WRITE
         2 002514   000000 011000                    NOP     0

      512     9405    1        IF ERROR ~= 0

   9405  2 002515   200017 235100                    LDA     ERROR,,AUTO
         2 002516   002524 600000 2                  TZE     s:9411

      513     9406    2        THEN DO;

      514     9407    2             S_D.ERROR = ERROR;

   9407  2 002517   000000 470400 xsym               LDP0    S_D$
         2 002520   000013 755100                    STA     11,,PR0

      515     9408    2             CALL DDE$ERROR;

   9408  2 002521   000002 631400 xsym               EPPR1   B_VECTNIL+2
PL6.E3A0      #001=DDR$REPORT File=DDR$REPORT.:E05TSI                            TUE 07/29/97 14:09 Page:87
         2 002522   000000 701000 xent               TSX1    DDE$ERROR
         2 002523   000000 011000                    NOP     0

      516     9409    2           END;

      517     9410                                                /**/
      518     9411    1        RETURN;

   9411  2 002524   000000 702200 xent               TSX2  ! X66_ARET

      519     9412        %EJECT;
PL6.E3A0      #001=DDR$REPORT File=DDR$REPORT.:E05TSI                            TUE 07/29/97 14:09 Page:88
      520     9413                                                /**/
      521     9414    1   UPDTBP: PROC;

   9414  2 002525   200030 741300       UPDTBP       STX1  ! DD_VERSIZE+5,,AUTO

      522     9415                                                /**/
      523     9416    2        BB$ = PINCRC( BB$, NCARS );

   9416  2 002526   200012 236100                    LDQ     NCARS,,AUTO
         2 002527   000020 736000                    QLS     16
         2 002530   200007 036100                    ADLQ    BB$,,AUTO
         2 002531   200007 756100                    STQ     BB$,,AUTO

      524     9417    2        REM = REM - NCARS;

   9417  2 002532   200006 236100                    LDQ     REM,,AUTO
         2 002533   200012 136100                    SBLQ    NCARS,,AUTO
         2 002534   200006 756100                    STQ     REM,,AUTO

      525     9418                                                /**/
      526     9419    2        RETURN;

   9419  2 002535   000001 702211                    TSX2  ! 1,X1

F00
 Sect OctLoc
   0     000   123110 125124   104117 127116                                    SHUTDOWN

F01
 Sect OctLoc
   0     002   115105 115117   122131 040050   123124 122051                    MEMORY (STR)

F02
 Sect OctLoc
   0     005   115101 123124   105122 040115   117104 105040   105116 124122    MASTER MODE ENTR
   0     011   131*** ******                                                    Y...

PL6.E3A0      #001=DDR$REPORT File=DDR$REPORT.:E05TSI                            TUE 07/29/97 14:09 Page:89
F03
 Sect OctLoc
   0     012   106101 125114   124040 124101   107*** ******                    FAULT TAG...

F04
 Sect OctLoc
   0     015   124111 115105   122040 122125   116117 125124                    TIMER RUNOUT

F05
 Sect OctLoc
   0     020   103117 115115   101116 104***                                    COMMAND.

F06
 Sect OctLoc
   0     022   104105 122101   111114 ******                                    DERAIL..

F07
 Sect OctLoc
   0     024   114117 103113   125120 ******                                    LOCKUP..

F08
 Sect OctLoc
   0     026   103117 116116   105103 124***                                    CONNECT.

F09
 Sect OctLoc
   0     030   120101 122111   124131 ******                                    PARITY..

F10
 Sect OctLoc
   0     032   111114 114105   107101 114040   120122 117103   105104 125122    ILLEGAL PROCEDUR
   0     036   105*** ******                                                    E...

F11
 Sect OctLoc
   0     037   117120 105122   101124 111117   116040 116117   124040 103117    OPERATION NOT CO
   0     043   115120 114105   124105 ******                                    MPLETE..
PL6.E3A0      #001=DDR$REPORT File=DDR$REPORT.:E05TSI                            TUE 07/29/97 14:09 Page:90

F12
 Sect OctLoc
   0     045   123124 101122   124125 120***                                    STARTUP.

F13
 Sect OctLoc
   0     047   117126 105122   106114 117127                                    OVERFLOW

F14
 Sect OctLoc
   0     051   104111 126111   104105 040103   110105 103113                    DIVIDE CHECK

F15
 Sect OctLoc
   0     054   105130 105103   125124 105***                                    EXECUTE.

F16
 Sect OctLoc
   0     056   123105 103125   122111 124131   040055 040103   114101 123123    SECURITY - CLASS
   0     062   040061 ******                                                     1..

F17
 Sect OctLoc
   0     063   104131 116101   115111 103040   114111 116113   111116 107***    DYNAMIC LINKING.

F18
 Sect OctLoc
   0     067   115111 123123   111116 107040   123105 107115   105116 124***    MISSING SEGMENT.

F19
 Sect OctLoc
   0     073   115111 123123   111116 107040   127117 122113   111116 107040    MISSING WORKING
   0     077   123120 101103   105*** ******                                    SPACE...

F20
 Sect OctLoc
PL6.E3A0      #001=DDR$REPORT File=DDR$REPORT.:E05TSI                            TUE 07/29/97 14:09 Page:91
   0     101   115111 123123   111116 107040   120101 107105                    MISSING PAGE

F21
 Sect OctLoc
   0     104   123105 103125   122111 124131   040055 040103   114101 123123    SECURITY - CLASS
   0     110   040062 ******                                                     2..

FAULT_TEXT_PTR$
 Sect OctLoc
   0     111   000000 006000   000002 006000   000005 006000   000012 006000    ................
   0     115   000015 006000   000020 006000   000022 006000   000024 006000    ................
   0     121   000026 006000   000030 006000   000032 006000   000037 006000    ................
   0     125   000045 006000   000047 006000   000051 006000   000054 006000    .%...'...)...,..
   0     131   000056 006000   000063 006000   000067 006000   000073 006000    .....3...7...;..
   0     135   000101 006000   000104 006000                                    .A...D..

FAULT_TEXT_SIZE
 Sect OctLoc
   0     137   000000 000010   000000 000014   000000 000021   000000 000011    ................
   0     143   000000 000014   000000 000007   000000 000006   000000 000006    ................
   0     147   000000 000007   000000 000006   000000 000021   000000 000026    ................
   0     153   000000 000007   000000 000010   000000 000014   000000 000007    ................
   0     157   000000 000022   000000 000017   000000 000017   000000 000025    ................
   0     163   000000 000014   000000 000022                                    ........

(unnamed)
 Sect OctLoc
   0     165   130104 105114   050122 145141   154040 040040   050110 165150    XDEL(Real   (Huh
   0     171   077040 040040   050125 163145   162043 040040   054111 103120    ?   (User#  ,ICP
   0     175   054111 104102   054101 123114   050105 127123   121043 040040    ,IDB,ASL(EWSQ#
   0     201   051040 040040   115117 116057   107110 117123   124061 040160    )   MON/GHOST1 p
   0     205   141164 143150   145163 040155   141171 040156   157167 040142    atches may now b
   0     211   145040 145156   164145 162145   144056 040050   130104 105114    e entered. (XDEL
   0     215   124101 040040   115044 114104   124122 103040   164157 040040    TA  M$LDTRC to
   0     221   115044 114111   116113 040164   157040 040040   111103 040075    M$LINK to   IC =
   0     225   040040 040040   122145 164165   162156 040146   162157 155040        Return from
   0     231   115044 114111   116113 054040   111103 040075   040040 040040    M$LINK, IC =
PL6.E3A0      #001=DDR$REPORT File=DDR$REPORT.:E05TSI                            TUE 07/29/97 14:09 Page:92
   0     235   124162 141143   145040 124162   141156 163146   145162 040154    Trace Transfer l
   0     241   157163 164040   100040 040040   123103 122105   105103 110040    ost @   SCREECH
   0     245   111103 040075   040040 040040   110157 163164   040160 162157    IC =    Host pro
   0     251   147162 141155   040163 164157   160160 145144   040040 111103    gram stopped  IC
   0     255   040075 040040   122125 115040   101116 114132   057104 105114     =  RUM ANLZ/DEL
   0     261   124101 040040   124123 124040   104105 114124   101040 124105    TA  TST DELTA TE
   0     265   123124 040040   040150 145162   145040 040040   040050 116157    ST   here    (No
   0     271   040122 125040   141163 163157   143151 141164   145144 051040     RU associated)
   0     275   040050 101116   114132 151156   147040 162165   156156 151156     (ANLZing runnin
   0     301   147040 155157   156151 164157   162051 040040   040166 151141    g monitor)   via
   0     305   040115 044101   114111 102040   040123 101040   075040 040040     M$ALIB  SA =
   0     311   040111 103040   075040 040040   124105 123124   050101 165164     IC =   TEST(Aut
   0     315   157040 163150   141162 145144   040122 125040   141163 163157    o shared RU asso
   0     321   143151 141164   145144 051040   106157 162040   155157 144151    ciated) For modi
   0     325   146151 143141   164151 157156   040157 146040   160162 157143    fication of proc
   0     331   145144 165162   145040 050151   156143 154165   144151 156147    edure (including
   0     335   040142 162145   141153 160157   151156 164163   051040 165163     breakpoints) us
   0     341   145040 125116   123110 101122   105040 040040   040101 137102    e UNSHARE    A_B
   0     345   122113 100040   040117 116040   103101 114114   137102 122113    RK@  ON CALL_BRK
   0     351   100040 040040   040146 162157   155040 040040   114117 101104    @    from   LOAD
   0     355   105104 040100   040040 040040   057040 040040   040052 101114    ED @    /    *AL
   0     361   124122 105124   052040 040040   040074 103101   114114 105104    TRET*    <CALLED
   0     365   076040 040040   040074 101123   131116 103040   105116 124122    >    <ASYNC ENTR
   0     371   131076 040040   040127 110105   116137 102122   113100 040040    Y>   WHEN_BRK@
   0     375   040127 110105   116137 102122   113040 144165   162151 156147     WHEN_BRK during
   0     401   040130 105121   040127 110105   116137 102122   113100 040155     XEQ WHEN_BRK@ m
   0     405   157156 151164   157162 040143   141154 154040   142145 146157    onitor call befo
   0     411   162145 040040   040127 110105   116137 102122   113100 040144    re   WHEN_BRK@ d
   0     415   165162 151156   147040 101123   114040 143141   154154 040142    uring ASL call b
   0     421   145146 157162   145040 040040   106101 125114   124100 040040    efore   FAULT@
   0     425   040106 103040   075040 040040   040055 076040   106101 125114     FC =    -> FAUL
   0     431   124040 111116   040104 105114   124101 100040   130105 121040    T IN DELTA@ XEQ
   0     435   106101 125114   124040 040040   102122 105101   113040 111116    FAULT   BREAK IN
   0     441   040104 105114   124101 040040                                     DELTA

(unnamed)
 Sect OctLoc
PL6.E3A0      #001=DDR$REPORT File=DDR$REPORT.:E05TSI                            TUE 07/29/97 14:09 Page:93
   3     000   000166 006000   000007 006000   000170 006000   000007 006000    .v.......x......
   3     004   000172 006000   000010 006000   000003 006000   000000 000000    .z..............
   3     010   000174 006000   000006 006000   000175 006000   000006 006000    .|.......}......
   3     014   000176 006000   000006 006000   000177 006000   000010 006000    .~..............
   3     020   000201 006000   000004 006000   000000 000057   000000 206000    .........../....
   3     024   000202 006000   000022 006000   051040 040040   000000 006003    ........)   ....
   3     030   000026 006000   000003 006000   000216 006000   000015 006000    ................
   3     034   000221 006000   000014 006000   056040 040040   000013 006000    .........   ....
   3     040   000036 006000   000003 006000   000224 006000   000007 006000    ................
   3     044   000000 000031   000000 000026   000226 006000   000044 006000    .............$..
   3     050   000235 006000   000045 006000   000000 000015   000000 000033    .....%..........
   3     054   000243 006000   000052 006000   000247 006000   000053 006000    .....*.......+..
   3     060   000214 006000   000011 006000   000256 006000   000006 006000    ................
   3     064   000257 006000   000015 006000   777777 777000   000000 000023    ................
   3     070   000263 006000   000015 006000   000263 006000   000010 006000    ................
   3     074   000266 006000   000007 006000   000270 006000   000067 006000    .............7..
   3     100   000000 000032   000000 000101   000275 006000   000100 006000    .......A.....@..
   3     104   000304 006000   000015 006000   000307 006000   000010 006000    ................
   3     110   000311 006000   000010 006000   000313 006000   000006 006000    ................
   3     114   000314 006000   000053 006000   000323 006000   000101 006000    .....+.......A..
   3     120   000344 006000   000012 006000   000000 000016   000002 006000    ................
   3     124   000346 006000   000122 006000   000352 006000   000010 006000    .....R..........
   3     130   000354 006000   000013 006000   000357 006000   000004 006000    ................
   3     134   000360 006000   000013 006000   000363 006000   000014 006000    ................
   3     140   000000 000017   000000 000024   000366 006000   000140 006000    .............`..
   3     144   000372 006000   000015 006000   000375 006000   000141 006000    .............a..
   3     150   000000 000037   000000 000042   000402 006000   000150 006000    .......".....h..
   3     154   000412 006000   000151 006000   000423 006000   000011 006000    .....i..........
   3     160   000425 006000   000010 006000   000427 006000   000006 006000    ................
   3     164   000000 000020   000000 006000   000430 006000   000164 006000    .............t..
   3     170   000434 006000   000013 006000   000437 006000   000122 006000    .............R..
      527     9420                                                /**/
      528     9421    2   END UPDTBP;
      529     9422                                                /**/
      530     9423    1   END DDR$REPORT;

PL6.E3A0      #001=DDR$REPORT File=DDR$REPORT.:E05TSI                            TUE 07/29/97 14:09 Page:94
--  Include file information  --

   DD_SRTN_C.:E05TOU  is referenced.
   DD_ACODE_C.:E05TOU  is referenced.
   DD_ICODE_C.:E05TOU  is referenced.
   DD$DITEM.:E05TOU  cannot be made into a system file and is referenced.
   B_STRINGS_C.:E05TOU  is referenced.
   DD_ERR_C.:E05TOU  is referenced.
   DD_SD_M.:E05TOU  is referenced.
   XUH_MACRO_C.:E05TOU  is referenced.
   B$OBJECT_C.:E05TOU  is referenced.
   B$JIT.:E05TOU  cannot be made into a system file and is referenced.
   DD_PSUBS_C.:E05TOU  is referenced.
   DD_SUBS_C.:E05TOU  is referenced.
   CP_6.:E05TOU  cannot be made into a system file and is referenced.
   B$SS.:E05TOU  cannot be made into a system file and is referenced.
   B$JIT_C.:E05TOU  was found in the system file and is referenced.
   CP_6_C.:E05TOU  was found in the system file and is referenced.
      No diagnostics issued in procedure DDR$REPORT.

   Procedure DDR$REPORT requires 1374 words for executable code.
   Procedure DDR$REPORT requires 32 words of local(AUTO) storage.

    No errors detected in file DDR$REPORT.:E05TSI    .
PL6.E3A0      #001=DDR$REPORT File=DDR$REPORT.:E05TSI                            TUE 07/29/97 14:09 Page:95
          *** CROSS REFERENCE LISTING ***
**     DENOTES     IDENTIFIER DEFINITION
<<                 IDENTIFIER'S VALUE SET
>>                 IDENTIFIER'S VALUE USED
<>                 IDENTIFIER SET AND/OR USED
--                 IDENTIFIER REFERENCED
PL6.E3A0      #001=DDR$REPORT File=DDR$REPORT.:E05TSI                            TUE 07/29/97 14:09 Page:96
          MINI XREF LISTING

B$EDEF
      4895**DCL      9317--ASSIGN
B$EDEF.CST
      4941**DCL      9318>>IF       9318>>IF
B$EDEF.OU
      4912**DCL      4918--REDEF
B$JIT.CPFLAGS1.SLEAZE
      1223**DCL      1223--REDEF
B$JIT.ERR.MID
      1130**DCL      1130--REDEF
B$JIT.JRESPEAK
      1291**DCL      1292--REDEF
B$JIT.ORIGINATOR_PORT.FROM_CR
      1400**DCL      1400--REDEF    1401--REDEF
B$JIT.PNR
      1304**DCL      1304--REDEF
B$JIT.SWITCH
      1217**DCL      9043--ASSIGN
B$JIT.TSLINE
      1398**DCL      1399--REDEF
B$JIT.USER
      1129**DCL      9061>>ASSIGN
B$JIT$
      1405**DCL      1124--IMP-PTR  9043>>ASSIGN
B$LBNTRY0.COMPILER
      4984**DCL      9289>>IF
B$LBNTRY0.NO_AUTO
      5007**DCL      5012--REDEF
B$LBNTRY0.VERSION
      4996**DCL      4998--REDEF
B$SS.IC
       124**DCL      9321>>ASSIGN
PL6.E3A0      #001=DDR$REPORT File=DDR$REPORT.:E05TSI                            TUE 07/29/97 14:09 Page:97
B$SS.RVA
       157**DCL       158--REDEF
B$SS.X1
       256**DCL      9258>>ASSIGN   9325>>ASSIGN
B$TCBSTK.OFFSET
      9021**DCL      9321>>ASSIGN
B$TREE_NODE.NAME$
      4855**DCL      9269>>ASSIGN
BB$
        24**DCL      9048<<ASSIGN   9057<>CALL     9059<>CALL     9062<>CALL     9063<>CALL     9067<>CALL
      9069<>CALL     9071<>CALL     9074<>CALL     9075<>CALL     9078<>CALL     9131<>CALL     9134<>CALL
      9135<>CALL     9140<>CALL     9143<>CALL     9146>>ASSIGN   9149<>CALL     9150<>CALL     9151<>CALL
      9154<>CALL     9157<>CALL     9162<>CALL     9167<>CALL     9172<>CALL     9173<>CALL     9174<>CALL
      9176<>CALL     9179<>CALL     9184<>CALL     9185<>CALL     9193<>CALL     9198<>CALL     9201<>CALL
      9202<>CALL     9203<>CALL     9205<>CALL     9207<>CALL     9212>>ASSIGN   9220<<ASSIGN   9222<>CALL
      9223>>ASSIGN   9231<<ASSIGN   9233<>CALL     9235>>ASSIGN   9246>>CALLBLT  9249<>CALL     9252>>CALLBLT
      9255<>CALL     9256<>CALL     9259<>CALL     9260<>CALL     9266>>CALLBLT  9270>>ASSIGN   9273<>CALL
      9277<>CALL     9280<>CALL     9284<>CALL     9295<>CALL     9298>>ASSIGN   9302>>ASSIGN   9303<<ASSIGN
      9306<>CALL     9307>>ASSIGN   9308<<ASSIGN   9308>>ASSIGN   9340<>CALL     9343<>CALL     9344<>CALL
      9345<>CALL     9349>>CALLBLT  9352<>CALL     9355>>CALLBLT  9358<>CALL     9361>>CALLBLT  9364<>CALL
      9367>>CALLBLT  9370<>CALL     9373<>CALL     9374<>CALL     9379<>CALL     9380<>CALL     9382<>CALL
      9383<>CALL     9387<>CALL     9388<>CALL     9393<>CALL     9396<>CALL     9401>>ASSIGN   9416<<ASSIGN
      9416>>ASSIGN
B_VERSION.SIZE
       100**DCL      9130>>ASSIGN   9170>>ASSIGN
B_VERSION.TEXT
       101**DCL      9134<>CALL     9184<>CALL
CHAR2
        40**DCL      9246<<CALLBLT  9252<<CALLBLT  9266<<CALLBLT  9307<<ASSIGN   9349<<CALLBLT  9355<<CALLBLT
      9361<<CALLBLT  9367<<CALLBLT
CHAR32
        42**DCL      9146<<ASSIGN   9270<<ASSIGN
CHAR4
        41**DCL      9043>>ASSIGN
DCTX_ME
       104**DCL      9136>>ASSIGN   9137>>ASSIGN   9187>>ASSIGN   9188>>ASSIGN
PL6.E3A0      #001=DDR$REPORT File=DDR$REPORT.:E05TSI                            TUE 07/29/97 14:09 Page:98
DDB$PUTHIST
      9038**DCL-ENT  9337--CALL
DDE$ERROR
      9036**DCL-ENT  9126--CALL     9217--CALL     9228--CALL     9240--CALL     9408--CALL
DDQ$WRITE
      9034**DCL-ENT  9213--CALL     9224--CALL     9236--CALL     9404--CALL
DDQ$WRITENU
      9035**DCL-ENT  9403--CALL
DDR$BINTXT
      9033**DCL-ENT  9063--CALL     9075--CALL     9380--CALL     9388--CALL
DDR$INSTR
      9041**DCL-ENT  9301--CALL
DDR$MOVE
      9037**DCL-ENT  9057--CALL     9059--CALL     9062--CALL     9067--CALL     9069--CALL     9071--CALL
      9074--CALL     9078--CALL     9131--CALL     9134--CALL     9135--CALL     9140--CALL     9143--CALL
      9149--CALL     9150--CALL     9151--CALL     9154--CALL     9157--CALL     9162--CALL     9167--CALL
      9172--CALL     9173--CALL     9174--CALL     9176--CALL     9179--CALL     9184--CALL     9185--CALL
      9193--CALL     9198--CALL     9201--CALL     9202--CALL     9203--CALL     9205--CALL     9222--CALL
      9233--CALL     9249--CALL     9255--CALL     9259--CALL     9273--CALL     9277--CALL     9295--CALL
      9306--CALL     9343--CALL     9344--CALL     9352--CALL     9358--CALL     9364--CALL     9370--CALL
      9373--CALL     9379--CALL     9382--CALL     9383--CALL     9387--CALL     9393--CALL     9396--CALL
DDR$POSIT
      9032**DCL-ENT  9207--CALL     9256--CALL     9260--CALL     9280--CALL     9284--CALL     9340--CALL
      9345--CALL     9374--CALL
DDS$ES_INQ
      9039**DCL-ENT  9286--CALL
DDS$IC2NODE
      9040**DCL-ENT  9263--CALL     9330--CALL     9331--CALL
DD_VERSIZE
       102**DCL      9130<<ASSIGN   9134<>CALL     9170<<ASSIGN   9184<>CALL
DEL_FAULT
      9031**DCL      9390>>ASSIGN
DEL_FAULTLOC
      9030**DCL      9388<>CALL
D_M$LM#
      9023**DCL      9145--ASSIGN   9150--CALL
PL6.E3A0      #001=DDR$REPORT File=DDR$REPORT.:E05TSI                            TUE 07/29/97 14:09 Page:99
D_XDELTA
      9024**DCL      9043>>IF       9171>>IF       9186>>IF
ERROR
        32**DCL      9045<<ASSIGN   9214>>IF       9216>>ASSIGN   9225>>IF       9227>>ASSIGN   9237>>IF
      9239>>ASSIGN   9314<<ASSIGN   9399<<ASSIGN   9405>>IF       9407>>ASSIGN
EVENT
        21**DCL        18--PROC     9053>>IF       9080>>DOCASE   9173>>IF       9174>>IF       9191>>IF
      9196>>IF       9201>>IF       9202>>IF       9210>>IF       9402>>IF
F$DCB.ACCT#
      8978**DCL      9150<>CALL
F$DCB.ACTPOS
      8994**DCL      8994--REDEF
F$DCB.ARS#
      8968**DCL      8968--REDEF
F$DCB.ATTR
      8987**DCL      8988--REDEF
F$DCB.BORROW
      9002**DCL      9002--REDEF    9002--REDEF    9002--REDEF
F$DCB.DCBNAME.L
      9016**DCL      9016--IMP-SIZ
F$DCB.EOMCHAR#
      8972**DCL      8972--REDEF
F$DCB.FLDID
      8997**DCL      8997--REDEF
F$DCB.FORM$
      8991**DCL      8991--REDEF
F$DCB.FSECT
      9007**DCL      9007--REDEF
F$DCB.FSN#
      8984**DCL      8984--REDEF    8984--REDEF    8985--REDEF
F$DCB.HEADER$
      8990**DCL      8990--REDEF
F$DCB.IXTNSIZE#
      8988**DCL      8988--REDEF
F$DCB.LASTSTA$
      8977**DCL      8977--REDEF
PL6.E3A0      #001=DDR$REPORT File=DDR$REPORT.:E05TSI                            TUE 07/29/97 14:09 Page:100
F$DCB.LVL
      9003**DCL      9003--REDEF
F$DCB.NAME#
      8978**DCL      9145--ASSIGN
F$DCB.NAME#.C
      8978**DCL      8978--REDEF
F$DCB.NOEOF
      9000**DCL      9000--REDEF
F$DCB.NRECS#
      8989**DCL      8989--REDEF
F$DCB.NRECX
      9008**DCL      9008--REDEF
F$DCB.OHDR
      9000**DCL      9000--REDEF
F$DCB.ORG#
      8983**DCL      8983--REDEF
F$DCB.PRECNO
      9006**DCL      9006--REDEF
F$DCB.RCSZ
      9012**DCL      9012--REDEF
F$DCB.RES#
      8979**DCL      8979--REDEF
F$DCB.SETX
      8991**DCL      8991--REDEF
F$DCB.TAB$
      8991**DCL      8991--REDEF
F$DCB.TDA
      9005**DCL      9006--REDEF
F$DCB.WSN#
      8979**DCL      8979--REDEF
F00
        46**DCL        70--DCLINIT
F01
        47**DCL        71--DCLINIT
F02
        48**DCL        72--DCLINIT
PL6.E3A0      #001=DDR$REPORT File=DDR$REPORT.:E05TSI                            TUE 07/29/97 14:09 Page:101
F03
        49**DCL        73--DCLINIT
F04
        50**DCL        74--DCLINIT
F05
        51**DCL        75--DCLINIT
F06
        52**DCL        76--DCLINIT
F07
        53**DCL        77--DCLINIT
F08
        54**DCL        78--DCLINIT
F09
        55**DCL        79--DCLINIT
F10
        56**DCL        80--DCLINIT
F11
        57**DCL        81--DCLINIT
F12
        58**DCL        82--DCLINIT
F13
        59**DCL        83--DCLINIT
F14
        60**DCL        84--DCLINIT
F15
        61**DCL        85--DCLINIT
F16
        62**DCL        86--DCLINIT
F17
        63**DCL        87--DCLINIT
F18
        64**DCL        88--DCLINIT
F19
        65**DCL        89--DCLINIT
F20
        66**DCL        90--DCLINIT
PL6.E3A0      #001=DDR$REPORT File=DDR$REPORT.:E05TSI                            TUE 07/29/97 14:09 Page:102
F21
        67**DCL        91--DCLINIT
FAULT
        31**DCL      9377<<ASSIGN   9380<>CALL     9383>>CALL     9383>>CALL     9390<<ASSIGN
FAULT_TEXT_PTR$
        69**DCL      9383>>CALL
FAULT_TEXT_SIZE
        93**DCL      9383<>CALL
IN_DEV
      9028**DCL      9136<<ASSIGN   9187<<ASSIGN
IRM_NOKP_SCR
      9025**DCL      9160>>IF
L1
      9186**LABEL    9177--GOTO
LNODE
        33**DCL      9330<>CALL     9334<<ASSIGN   9337<>CALL
MIS$
      9027**DCL      9160>>IF
MSG_LENGTH
        26**DCL      9212<<ASSIGN   9213<>CALL     9223<<ASSIGN   9224<>CALL     9235<<ASSIGN   9236<>CALL
      9401<<ASSIGN   9403<>CALL     9404<>CALL
NCARS
        27**DCL      9063<>CALL     9075<>CALL     9147<<ASSIGN   9207<>CALL     9247<<ASSIGN   9253<<ASSIGN
      9256<>CALL     9260<>CALL     9267<<ASSIGN   9271<<ASSIGN   9280<>CALL     9284<>CALL     9340<>CALL
      9345<>CALL     9350<<ASSIGN   9356<<ASSIGN   9362<<ASSIGN   9368<<ASSIGN   9374<>CALL     9380<>CALL
      9388<>CALL     9416>>ASSIGN   9417>>ASSIGN
OUT_DEV
      9029**DCL      9137<<ASSIGN   9188<<ASSIGN
PTR$
        25**DCL      9145<<ASSIGN   9146>>ASSIGN   9146>>ASSIGN   9147>>ASSIGN   9269<<ASSIGN   9270>>ASSIGN
      9270>>ASSIGN   9271>>ASSIGN   9317<<ASSIGN   9318>>IF       9318>>IF
REM
        23**DCL      9047<<ASSIGN   9057<>CALL     9059<>CALL     9062<>CALL     9067<>CALL     9069<>CALL
      9071<>CALL     9074<>CALL     9078<>CALL     9131<>CALL     9134<>CALL     9135<>CALL     9140<>CALL
      9143<>CALL     9149<>CALL     9150<>CALL     9151<>CALL     9154<>CALL     9157<>CALL     9162<>CALL
      9167<>CALL     9172<>CALL     9173<>CALL     9174<>CALL     9176<>CALL     9179<>CALL     9184<>CALL
PL6.E3A0      #001=DDR$REPORT File=DDR$REPORT.:E05TSI                            TUE 07/29/97 14:09 Page:103
      9185<>CALL     9193<>CALL     9198<>CALL     9201<>CALL     9202<>CALL     9203<>CALL     9205<>CALL
      9207<>CALL     9219<<ASSIGN   9222<>CALL     9230<<ASSIGN   9233<>CALL     9249<>CALL     9255<>CALL
      9256<>CALL     9259<>CALL     9260<>CALL     9273<>CALL     9277<>CALL     9280<>CALL     9284<>CALL
      9295<>CALL     9299>>ASSIGN   9302<<ASSIGN   9302>>ASSIGN   9306<>CALL     9340<>CALL     9343<>CALL
      9344<>CALL     9345<>CALL     9352<>CALL     9358<>CALL     9364<>CALL     9370<>CALL     9373<>CALL
      9374<>CALL     9379<>CALL     9382<>CALL     9383<>CALL     9387<>CALL     9393<>CALL     9396<>CALL
      9417<<ASSIGN   9417>>ASSIGN
REPORT
      9401**LABEL    9138--GOTO     9194--GOTO     9199--GOTO     9244--GOTO     9264--GOTO     9278--GOTO
      9282--GOTO     9312--GOTO     9347--GOTO     9359--GOTO     9385--GOTO     9397--GOTO
REPORT_AT
      9246**LABEL    9082--GOTO
REPORT_BREAK
      9396**LABEL    9098--GOTO
REPORT_DELTA
      9170**LABEL    9102--GOTO
REPORT_FAULT
      9373**LABEL    9086--GOTO
REPORT_FAULT_TEXT
      9377**LABEL    9394--GOTO
REPORT_FAULT_TEXT1
      9379**LABEL    9391--GOTO
REPORT_IBP
      9276**LABEL    9152--GOTO     9155--GOTO     9158--GOTO     9163--GOTO     9168--GOTO     9250--GOTO
      9274--GOTO     9353--GOTO     9365--GOTO     9371--GOTO
REPORT_LDTRCIN
      9140**LABEL    9108--GOTO
REPORT_LINKIN
      9143**LABEL    9106--GOTO
REPORT_LINKRTN
      9154**LABEL    9110--GOTO
REPORT_ONCALL
      9252**LABEL    9084--GOTO
REPORT_ONNODE
      9262**LABEL    9100--GOTO
REPORT_PATCH
PL6.E3A0      #001=DDR$REPORT File=DDR$REPORT.:E05TSI                            TUE 07/29/97 14:09 Page:104
      9130**LABEL    9104--GOTO
REPORT_SCREECH
      9160**LABEL    9114--GOTO
REPORT_SFAULT
      9387**LABEL    9096--GOTO
REPORT_STEP
      9284**LABEL    9090--GOTO
REPORT_STOP
      9167**LABEL    9122--GOTO
REPORT_TRACECALLS
      9317**LABEL    9092--GOTO
REPORT_TTLOST
      9157**LABEL    9112--GOTO
REPORT_WHEN
      9349**LABEL    9094--GOTO
REPORT_WHENASL
      9367**LABEL    9120--GOTO
REPORT_WHENPMME
      9361**LABEL    9118--GOTO
REPORT_WHENXEQ
      9355**LABEL    9116--GOTO
REPORT_XEQFLT
      9393**LABEL    9088--GOTO
RESTORE
      9310**LABEL    9315--GOTO
RL1
      9145**LABEL    9141--GOTO
RNODE
        34**DCL      9331<>CALL     9335<<ASSIGN   9337<>CALL
SAVEIC
        28**DCL      9046<<ASSIGN   9207<>CALL     9256<>CALL     9263<>CALL     9280<>CALL     9284<>CALL
      9286<>CALL     9305>>IF       9331<>CALL     9337<>CALL     9345<>CALL     9374<>CALL
SAVE_D$
        29**DCL      9296<<ASSIGN   9310>>ASSIGN
SAVE_DESCL$
        30**DCL      9297<<ASSIGN   9311>>ASSIGN
PL6.E3A0      #001=DDR$REPORT File=DDR$REPORT.:E05TSI                            TUE 07/29/97 14:09 Page:105
SS.N
        38**DCL      9204>>IF       9276>>IF
SS.TST
        37**DCL      9175>>IF
STEP0
      9288**LABEL    9286--CALLALT  9287--GOTO     9290--GOTO     9292--GOTO
SWITCH
        35**DCL        36--REDEF    9043<<ASSIGN   9044<<ASSIGN
S_D.ANLZ
      7088**DCL      9191>>IF
S_D.ANLZ_FILE
      7152**DCL      9196>>IF
S_D.B$TREE$
      7108**DCL      9269>>ASSIGN
S_D.CURRENT_CHANNEL
      7388**DCL      7390--REDEF
S_D.D$
      6526**DCL      9296>>ASSIGN   9298<<ASSIGN   9299>>ASSIGN   9302>>ASSIGN   9303>>ASSIGN   9310<<ASSIGN
S_D.DEBUGA
      6540**DCL      6542--REDEF
S_D.DESCL$
      6522**DCL      9297>>ASSIGN   9299<<ASSIGN   9311<<ASSIGN
S_D.EDEF$
      6884**DCL      9317>>ASSIGN
S_D.EIS
      7498**DCL      7527--REDEF
S_D.ERROR
      6469**DCL      9125<<ASSIGN   9216<<ASSIGN   9227<<ASSIGN   9239<<ASSIGN   9407<<ASSIGN
S_D.EWSQ#
      6465**DCL      9053>>IF       9055>>DOCASE   9065>>DOCASE   9075<>CALL
S_D.FAULT
      6489**DCL      9377>>ASSIGN
S_D.FAULTINS$
      6453**DCL      9301>>CALL
S_D.HIST.ACTIVE
      7033**DCL      9327>>IF
PL6.E3A0      #001=DDR$REPORT File=DDR$REPORT.:E05TSI                            TUE 07/29/97 14:09 Page:106
S_D.HOST_MESSAGE_BUF_REMOTE
      7431**DCL      7432--REDEF    7446--REDEF
S_D.IXFIX
      6473**DCL      9246>>CALLBLT  9252>>CALLBLT  9266>>CALLBLT  9349>>CALLBLT  9355>>CALLBLT  9361>>CALLBLT
      9367>>CALLBLT
S_D.JDE
      7045**DCL      7046--REDEF
S_D.KILLEDEF
      6594**DCL      9300<<ASSIGN
S_D.L$.VALUE
      6598**DCL      6604--REDEF    6612--REDEF    6615--REDEF    6618--REDEF    6621--REDEF
S_D.L$.VALUE.L
      6599**DCL      6600--REDEF    6601--REDEF
S_D.L6_MESSAGE_BUF
      7452**DCL      7454--REDEF
S_D.LAST_NODE_LOADED
      7052**DCL      9269>>ASSIGN
S_D.LB0$
      6874**DCL      9289>>IF
S_D.OUTPUT
      7418**DCL      7420--REDEF    9047--ASSIGN   9048--ASSIGN   9050<<ASSIGN   9212--ASSIGN   9213--CALL
      9219--ASSIGN   9220--ASSIGN   9221<<ASSIGN   9223--ASSIGN   9224--CALL     9230--ASSIGN   9231--ASSIGN
      9232<<ASSIGN   9235--ASSIGN   9236--CALL     9401--ASSIGN   9403--CALL     9404--CALL
S_D.OVERLAID
      7102**DCL      9262>>IF       9329>>IF
S_D.QSCH.OK
      6744**DCL      9288>>IF
S_D.QSCH.PEDEF#
      6746**DCL      9317>>ASSIGN
S_D.REMOTE_MSG.FNCC
      7437**DCL      7438--REDEF
S_D.REMOTE_MSG.STXC
      7433**DCL      7434--REDEF
S_D.REMOTE_MSG.SUBFNCC
      7441**DCL      7442--REDEF
S_D.REPORT_FLAGS.OFFSET
PL6.E3A0      #001=DDR$REPORT File=DDR$REPORT.:E05TSI                            TUE 07/29/97 14:09 Page:107
      7257**DCL      9289>>IF
S_D.RUM
      7086**DCL      9191>>IF
S_D.S$TEP.ALT
      7342**DCL      9305>>IF
S_D.S$TEP.ALTLOC
      7351**DCL      9305>>IF
S_D.S$TEP.MODE
      7366**DCL      9287>>IF
S_D.SAVEIC
      6451**DCL      9046>>ASSIGN
S_D.SCHEMA
      6538**DCL      9288>>IF
S_D.STAND_ALONE
      6913**DCL      9191>>IF
S_D.SV
      6497**DCL      6518--REDEF
S_D.TR$INFO.SILENT
      6926**DCL      9339>>IF
S_D.USS$
      6457**DCL      9258>>ASSIGN   9325>>ASSIGN
S_D$
      7749**DCL      6445--IMP-PTR  9046>>ASSIGN   9048>>ASSIGN   9050>>ASSIGN   9053>>IF       9055>>DOCASE
      9065>>DOCASE   9075>>CALL     9125>>ASSIGN   9191>>IF       9191>>IF       9191>>IF       9196>>IF
      9212>>ASSIGN   9213>>CALL     9216>>ASSIGN   9220>>ASSIGN   9221>>ASSIGN   9223>>ASSIGN   9224>>CALL
      9227>>ASSIGN   9231>>ASSIGN   9232>>ASSIGN   9235>>ASSIGN   9236>>CALL     9239>>ASSIGN   9246>>CALLBLT
      9252>>CALLBLT  9258>>ASSIGN   9262>>IF       9266>>CALLBLT  9269>>ASSIGN   9269>>ASSIGN   9287>>IF
      9288>>IF       9288>>IF       9289>>IF       9289>>IF       9296>>ASSIGN   9297>>ASSIGN   9298>>ASSIGN
      9299>>ASSIGN   9299>>ASSIGN   9300>>ASSIGN   9301>>CALL     9302>>ASSIGN   9303>>ASSIGN   9305>>IF
      9305>>IF       9310>>ASSIGN   9311>>ASSIGN   9317>>ASSIGN   9317>>ASSIGN   9325>>ASSIGN   9327>>IF
      9329>>IF       9339>>IF       9349>>CALLBLT  9355>>CALLBLT  9361>>CALLBLT  9367>>CALLBLT  9377>>ASSIGN
      9401>>ASSIGN   9403>>CALL     9404>>CALL     9407>>ASSIGN
TEMP
        20**DCL      9061<<ASSIGN   9063<>CALL     9320<<ASSIGN   9324<<ASSIGN   9337<>CALL     9342>>IF
TEXTC.LEN
        44**DCL        45--IMP-SIZ  9146>>ASSIGN   9147>>ASSIGN   9270>>ASSIGN   9271>>ASSIGN
PL6.E3A0      #001=DDR$REPORT File=DDR$REPORT.:E05TSI                            TUE 07/29/97 14:09 Page:108
TEXTC.TEXT
        45**DCL      9146>>ASSIGN   9270>>ASSIGN
TOO_BIG
      9399**LABEL    9167--CALLALT  9193--CALLALT  9198--CALLALT  9201--CALLALT  9202--CALLALT  9203--CALLALT
      9205--CALLALT  9207--CALLALT  9222--CALLALT  9233--CALLALT  9249--CALLALT  9255--CALLALT  9256--CALLALT
      9259--CALLALT  9260--CALLALT  9273--CALLALT  9280--CALLALT  9284--CALLALT  9295--CALLALT  9306--CALLALT
      9340--CALLALT  9343--CALLALT  9344--CALLALT  9345--CALLALT  9352--CALLALT  9358--CALLALT  9364--CALLALT
      9370--CALLALT  9373--CALLALT  9374--CALLALT  9379--CALLALT  9382--CALLALT  9383--CALLALT  9387--CALLALT
      9393--CALLALT  9396--CALLALT
TOO_BIG_1
      9314**LABEL    9301--CALLALT
UBIN36
      9026**DCL      9160>>IF
UJIT$
       103**DCL      9061>>ASSIGN
UPDTBP
      9414**PROC     9064--CALL     9076--CALL     9148--CALL     9208--CALL     9248--CALL     9254--CALL
      9257--CALL     9261--CALL     9268--CALL     9272--CALL     9281--CALL     9285--CALL     9341--CALL
      9346--CALL     9351--CALL     9357--CALL     9363--CALL     9369--CALL     9375--CALL     9381--CALL
      9389--CALL
UTCB$
       368**DCL      9321>>ASSIGN   9321>>ASSIGN
WIRD
        39**DCL      9301<>CALL     9383<>CALL
X1
        22**DCL      9258<<ASSIGN   9260<>CALL     9321<<ASSIGN   9325<<ASSIGN   9330<>CALL     9337<>CALL
      9340<>CALL
ZERO
      9334**LABEL    9330--CALLALT  9331--CALLALT
PL6.E3A0      #001=DDR$REPORT File=DDR$REPORT.:E05TSI                            TUE 07/29/97 14:09 Page:109
              *** CROSS REFERENCE LISTING ***
    **     DENOTES     IDENTIFIER DEFINITION
    <<                 IDENTIFIER'S VALUE SET
    >>                 IDENTIFIER'S VALUE USED
    <>                 IDENTIFIER SET AND/OR USED
    --                 IDENTIFIER REFERENCED
PL6.E3A0      #001=DDR$REPORT File=DDR$REPORT.:E05TSI                            TUE 07/29/97 14:09 Page:110
              MINI UREF LISTING

B$TCB     366**DCL
B$TREE_HEADER    4837**DCL
DDR$REPORT      18**PROC
M$ACCT     310**DCL-ENT
M$ACTIVATE     313**DCL-ENT
M$ALIB     306**DCL-ENT
M$ASUSER     308**DCL-ENT
M$ATTACH     315**DCL-ENT
M$BADPP     333**DCL-ENT
M$CGCTL     314**DCL-ENT
M$CGINFO     314**DCL-ENT
M$CHECK     295**DCL-ENT
M$CHGUNIT     353**DCL-ENT
M$CLOSE     293**DCL-ENT
M$CLRSTK     351**DCL-ENT
M$CMDVAR     362**DCL-ENT
M$CONFIG     323**DCL-ENT
M$CORRES     298**DCL-ENT
M$CPEXIT     307**DCL-ENT
M$CVM     331**DCL-ENT
M$CVOL     296**DCL-ENT
M$DCLFLD     323**DCL-ENT
M$DEACTIVATE     313**DCL-ENT
M$DELREC     295**DCL-ENT
M$DEQ     360**DCL-ENT
M$DETACH     315**DCL-ENT
M$DEVICE     297**DCL-ENT
M$DISPLAY     360**DCL-ENT
M$DISPRES     300**DCL-ENT
M$DLIB     306**DCL-ENT
M$DRIBBLE     323**DCL-ENT
M$DRTN     351**DCL-ENT
PL6.E3A0      #001=DDR$REPORT File=DDR$REPORT.:E05TSI                            TUE 07/29/97 14:09 Page:111
M$DSUSER     308**DCL-ENT
M$ENQ     359**DCL-ENT
M$EOM     318**DCL-ENT
M$ERASE     324**DCL-ENT
M$ERR     305**DCL-ENT
M$ERRMSG     356**DCL-ENT
M$EVENT     348**DCL-ENT
M$EXHUME     357**DCL-ENT
M$EXIT     305**DCL-ENT
M$EXTEND     297**DCL-ENT
M$FDP     329**DCL-ENT
M$FDS     328**DCL-ENT
M$FEBOOT     321**DCL-ENT
M$FECTL     322**DCL-ENT
M$FEDUMP     321**DCL-ENT
M$FID     356**DCL-ENT
M$FINDPROC     310**DCL-ENT
M$FSUSER     308**DCL-ENT
M$FVP     330**DCL-ENT
M$FWCG     314**DCL-ENT
M$GBPL     334**DCL-ENT
M$GDDL     330**DCL-ENT
M$GDP     329**DCL-ENT
M$GDS     328**DCL-ENT
M$GETDCB     299**DCL-ENT
M$GETMOUSE     339**DCL-ENT
M$GETPM     340**DCL-ENT
M$GJOB     358**DCL-ENT
M$GLINEATTR     318**DCL-ENT
M$GOODPP     333**DCL-ENT
M$GPLATEN     326**DCL-ENT
M$GPROMPT     325**DCL-ENT
M$GTRMATTR     319**DCL-ENT
M$GTRMCTL     317**DCL-ENT
M$GTRMTAB     320**DCL-ENT
M$GVP     329**DCL-ENT
PL6.E3A0      #001=DDR$REPORT File=DDR$REPORT.:E05TSI                            TUE 07/29/97 14:09 Page:112
M$HELP     356**DCL-ENT
M$INT     348**DCL-ENT
M$INTRTN     309**DCL-ENT
M$IOQ     344**DCL-ENT
M$JOBSTATS     358**DCL-ENT
M$KEYIN     298**DCL-ENT
M$LDEV     293**DCL-ENT
M$LDTRC     306**DCL-ENT
M$LIMIT     299**DCL-ENT
M$LINES     298**DCL-ENT
M$LINK     305**DCL-ENT
M$MADMUCK     301**DCL-ENT
M$MAKUSER     332**DCL-ENT
M$MBS     300**DCL-ENT
M$MDFFLD     324**DCL-ENT
M$MERC     349**DCL-ENT
M$MERCS     350**DCL-ENT
M$MIRROR     344**DCL-ENT
M$MONINFO     361**DCL-ENT
M$MPL     334**DCL-ENT
M$NODEINFO     325**DCL-ENT
M$NXTUSR     359**DCL-ENT
M$OCMSG     357**DCL-ENT
M$OLAY     305**DCL-ENT
M$OPEN     293**DCL-ENT
M$PAS     334**DCL-ENT
M$PATHCON     357**DCL-ENT
M$PDS     328**DCL-ENT
M$PFIL     295**DCL-ENT
M$PLATEN     319**DCL-ENT
M$PRECORD     297**DCL-ENT
M$PROCNAME     310**DCL-ENT
M$PROFILE     321**DCL-ENT
M$PROMPT     317**DCL-ENT
M$RACST     301**DCL-ENT
M$RDSYSLOG     342**DCL-ENT
PL6.E3A0      #001=DDR$REPORT File=DDR$REPORT.:E05TSI                            TUE 07/29/97 14:09 Page:113
M$READ     294**DCL-ENT
M$RELDCB     299**DCL-ENT
M$RELRES     300**DCL-ENT
M$RELSTARF     302**DCL-ENT
M$REM     302**DCL-ENT
M$RENV     349**DCL-ENT
M$REQUIRE     301**DCL-ENT
M$RETRY     350**DCL-ENT
M$RETRYS     350**DCL-ENT
M$REW     296**DCL-ENT
M$RLSFLD     324**DCL-ENT
M$RPRIV     352**DCL-ENT
M$RSPP     331**DCL-ENT
M$RSWITCH     353**DCL-ENT
M$RUE     359**DCL-ENT
M$SAD     332**DCL-ENT
M$SAVE     308**DCL-ENT
M$SCON     309**DCL-ENT
M$SCREECH     307**DCL-ENT
M$SENV     349**DCL-ENT
M$SETFMA     293**DCL-ENT
M$SETFP     322**DCL-ENT
M$SINPUT     320**DCL-ENT
M$SLCFLD     325**DCL-ENT
M$SMOUSE     339**DCL-ENT
M$SMPRT     331**DCL-ENT
M$SPRIV     352**DCL-ENT
M$SSC     332**DCL-ENT
M$SSWITCH     352**DCL-ENT
M$STATE     361**DCL-ENT
M$STD     333**DCL-ENT
M$STIMER     347**DCL-ENT
M$STLPP     330**DCL-ENT
M$STRAP     347**DCL-ENT
M$STRMATTR     319**DCL-ENT
M$STRMCTL     317**DCL-ENT
PL6.E3A0      #001=DDR$REPORT File=DDR$REPORT.:E05TSI                            TUE 07/29/97 14:09 Page:114
M$STRMTAB     320**DCL-ENT
M$SYMBIO     358**DCL-ENT
M$SYSCON     344**DCL-ENT
M$SYSID     362**DCL-ENT
M$TDCLOSE     343**DCL-ENT
M$TDIO     343**DCL-ENT
M$TDOPEN     342**DCL-ENT
M$TDREQCPU     343**DCL-ENT
M$TEMPWROC     337**DCL-ENT
M$TIME     360**DCL-ENT
M$TRAP     347**DCL-ENT
M$TRMISC     322**DCL-ENT
M$TRMPRG     318**DCL-ENT
M$TRTN     351**DCL-ENT
M$TRUNC     294**DCL-ENT
M$TTIMER     347**DCL-ENT
M$UC     317**DCL
M$UMPL     334**DCL-ENT
M$UNFID     356**DCL-ENT
M$UNLATCH     313**DCL-ENT
M$UNSHARE     310**DCL-ENT
M$USRFIELD     353**DCL-ENT
M$VIRTUAL     328**DCL-ENT
M$WAIT     351**DCL-ENT
M$WEOF     296**DCL-ENT
M$WRITE     294**DCL-ENT
M$WRSYSLOG     342**DCL-ENT
M$XCON     348**DCL-ENT
M$XCONRTN     309**DCL-ENT
M$XEQTIME     361**DCL-ENT
M$XFLUSH     302**DCL-ENT
M$XMOUSE     339**DCL-ENT
M$XXX     305**DCL-ENT
M$YC     307**DCL-ENT
SDD$    8384**DCL
SDD_L6$    8386**DCL
PL6.E3A0      #001=DDR$REPORT File=DDR$REPORT.:E05TSI                            TUE 07/29/97 14:09 Page:115
ZITEM$    8385**DCL
ZITEM_L6$    8387**DCL
