VERSION E05

PL6.E3A0      #001=DDR$UD_FIND File=DDR$UD_FIND.:E05TSI                          TUE 07/29/97 14:11 Page:1
        1        1        /*M*  DDR$UD_FIND - Find closest UDEF to given value */
        2        2        /*T***********************************************************/
        3        3        /*T*                                                         */
        4        4        /*T* Copyright (c) Bull HN Information Systems Inc., 1997    */
        5        5        /*T*                                                         */
        6        6        /*T***********************************************************/
        7        7        /*X* DMR,PLM=5,IND=5,CSU=3,EXM=0,ECU=3,MCL=4,DCI=5,CRT=5 */
        8        8        /*F*  NAME: DDR$UD_FIND
        9        9              PURPOSE: Searches the user defined symbol table for the
       10       10                       closest non-negative value that is greator
       11       11                       or equal to the given value.
       12       12                                                     */
       13       13        DDR$UD_FIND: PROC(ADDRESS, TEXT$, VALUE) ALTRET;
       14       14          /* Parms */
       15       15    1   DCL ADDRESS UBIN;
       16       16    1   DCL TEXT$ PTR;
       17       17    1   DCL VALUE UBIN;
       18       18          /* Locals */
       19       19    1   DCL LOW UBIN;
       20       20    1   DCL LIDX SBIN;
       21       21    1   DCL I UBIN;
       22       22    1   DCL DIFF SBIN;
       23       23    1   DCL TEMP SBIN;
       24       24          /* Misc */
       25       25        %INCLUDE XUH_MACRO_C;
       26      109             %INCLUDE DD_SD_M;
       27     1445             %S_D;
       28     2763                                                /**/
       29     2764    1        LIDX = -1;
       30     2765    1        LOW = BITBIN('377777777777'O);
       31     2766    2        DO I = 0 TO 24;
       32     2767    2             IF S_D.UD.TEXTSZ(I) ~= 0
       33     2768    3             THEN DO;
       34     2769    3                  TEMP = S_D.UD.VALUE(I);
       35     2770    3                  IF TEMP > 0
       36     2771    4                  THEN DO;
       37     2772    4                       DIFF = ADDRESS - TEMP;
PL6.E3A0      #001=DDR$UD_FIND File=DDR$UD_FIND.:E05TSI                          TUE 07/29/97 14:11 Page:2
       38     2773    4                       IF DIFF >= 0
       39     2774    4                         AND DIFF < LOW
       40     2775    5                       THEN DO;
       41     2776    5                            LIDX = I;
       42     2777    5                            LOW = DIFF;
       43     2778    5                          END;
       44     2779    4                     END;
       45     2780    3                END;
       46     2781    2           END;                            /* DO I = 0 TO 24 */
       47     2782    1        IF LIDX = -1
       48     2783    1        THEN ALTRETURN;
       49     2784                                                /**/
       50     2785    1        TEXT$ = ADDR(S_D.UD.TEXTSZ(LIDX));
       51     2786    1        VALUE = S_D.UD.VALUE(LIDX);
       52     2787    1        RETURN;
       53     2788    1   END DDR$UD_FIND;

PL6.E3A0      #001=DDR$UD_FIND File=DDR$UD_FIND.:E05TSI                          TUE 07/29/97 14:11 Page:3
--  Include file information  --

   DD_SD_M.:E05TOU  is referenced.
   XUH_MACRO_C.:E05TOU  is referenced.
   B$JIT_C.:E05TOU  was found in the system file and is never referenced.
   CP_6_C.:E05TOU  was found in the system file and is never referenced.
      No diagnostics issued in procedure DDR$UD_FIND.

   Procedure DDR$UD_FIND requires 49 words for executable code.
   Procedure DDR$UD_FIND requires 12 words of local(AUTO) storage.

    No errors detected in file DDR$UD_FIND.:E05TSI    .

PL6.E3A0      #001=DDR$UD_FIND File=DDR$UD_FIND.:E05TSI                          TUE 07/29/97 14:11 Page:4

 Object Unit name= DDR$UD_FIND                                File name= DDR$UD_FIND.:E05TOU
 UTS= JUL 29 '97 14:11:01.04 TUE                              Compiler= PL-6/E31         Sev=      00
 SharedLib= :SHARED_SYSTEM                                    Alt SharedLib=


    ****  Control sections  ****

 Sect   Type Bound  Init  Size OctSiz  Section name(segment info)
    0   Proc  even  none    49     61  DDR$UD_FIND

    ****  Entry defs  ****

                              Check   Calling
                             calling  sequence
  Sect OctLoc Primary Altret sequence   type   Parms  Name
     0      0   yes    yes     yes      Std        3  DDR$UD_FIND

  ****  Entry refs  ****

         Check        Calling
        calling       sequence
Altret sequence SRef   type   Args  Name
                       Std       0 B_CONSPOOL_D
                       nStd      0 X66_AUTO_3
                       nStd      0 X66_AALT
                       nStd      0 X66_ARET

  ****  Data refs  ****

  Flags:  r = read only, s = secondary
Flgs Name                             Flgs Name                             Flgs Name
r    S_D$                                  B_VECTNIL
PL6.E3A0      #001=DDR$UD_FIND File=DDR$UD_FIND.:E05TSI                          TUE 07/29/97 14:11 Page:5


        1        1        /*M*  DDR$UD_FIND - Find closest UDEF to given value */
        2        2        /*T***********************************************************/
        3        3        /*T*                                                         */
        4        4        /*T* Copyright (c) Bull HN Information Systems Inc., 1997    */
        5        5        /*T*                                                         */
        6        6        /*T***********************************************************/
        7        7        /*X* DMR,PLM=5,IND=5,CSU=3,EXM=0,ECU=3,MCL=4,DCI=5,CRT=5 */
        8        8        /*F*  NAME: DDR$UD_FIND
        9        9              PURPOSE: Searches the user defined symbol table for the
       10       10                       closest non-negative value that is greator
       11       11                       or equal to the given value.
       12       12                                                     */
       13       13        DDR$UD_FIND: PROC(ADDRESS, TEXT$, VALUE) ALTRET;

     13  0 000000   000000 700200 xent  DDR$UD_FIND  TSX0  ! X66_AUTO_3
         0 000001   000014 000003                    ZERO    12,3

       14       14          /* Parms */
       15       15    1   DCL ADDRESS UBIN;
       16       16    1   DCL TEXT$ PTR;
       17       17    1   DCL VALUE UBIN;
       18       18          /* Locals */
       19       19    1   DCL LOW UBIN;
       20       20    1   DCL LIDX SBIN;
       21       21    1   DCL I UBIN;
       22       22    1   DCL DIFF SBIN;
       23       23    1   DCL TEMP SBIN;
       24       24          /* Misc */
       25       25        %INCLUDE XUH_MACRO_C;
       26      109             %INCLUDE DD_SD_M;
       27     1445             %S_D;
       28     2763                                                /**/
       29     2764    1        LIDX = -1;

   2764  0 000002   000001 335007                    LCA     1,DL
         0 000003   200007 755100                    STA     LIDX,,AUTO
PL6.E3A0      #001=DDR$UD_FIND File=DDR$UD_FIND.:E05TSI                          TUE 07/29/97 14:11 Page:6

       30     2765    1        LOW = BITBIN('377777777777'O);

   2765  0 000004   000031 236000 xsym               LDQ     B_VECTNIL+25
         0 000005   200006 756100                    STQ     LOW,,AUTO

       31     2766    2        DO I = 0 TO 24;

   2766  0 000006   200010 450100                    STZ     I,,AUTO

       32     2767    2             IF S_D.UD.TEXTSZ(I) ~= 0

   2767  0 000007   200010 236100                    LDQ     I,,AUTO
         0 000010   000011 402007                    MPY     9,DL
         0 000011   000000 470400 xsym               LDP0    S_D$
         0 000012   000141 236106                    LDQ     97,QL,PR0
         0 000013   777000 316003                    CANQ    -512,DU
         0 000014   000035 600000 0                  TZE     s:2781

       33     2768    3             THEN DO;

       34     2769    3                  TEMP = S_D.UD.VALUE(I);

   2769  0 000015   200010 236100                    LDQ     I,,AUTO
         0 000016   000011 402007                    MPY     9,DL
         0 000017   000140 235106                    LDA     96,QL,PR0
         0 000020   200012 755100                    STA     TEMP,,AUTO

       35     2770    3                  IF TEMP > 0

   2770  0 000021   000035 604400 0                  TMOZ    s:2781

       36     2771    4                  THEN DO;

       37     2772    4                       DIFF = ADDRESS - TEMP;

   2772  0 000022   200003 471500                    LDP1    @ADDRESS,,AUTO
PL6.E3A0      #001=DDR$UD_FIND File=DDR$UD_FIND.:E05TSI                          TUE 07/29/97 14:11 Page:7
         0 000023   100000 236100                    LDQ     0,,PR1
         0 000024   200012 136100                    SBLQ    TEMP,,AUTO
         0 000025   200011 756100                    STQ     DIFF,,AUTO

       38     2773    4                       IF DIFF >= 0

   2773  0 000026   000035 604000 0                  TMI     s:2781
         0 000027   000032 604000 0                  TMI     s:2776
         0 000030   200006 116100                    CMPQ    LOW,,AUTO
         0 000031   000035 603000 0                  TRC     s:2781

       39     2774    4                         AND DIFF < LOW
       40     2775    5                       THEN DO;

       41     2776    5                            LIDX = I;

   2776  0 000032   200010 235100                    LDA     I,,AUTO
         0 000033   200007 755100                    STA     LIDX,,AUTO

       42     2777    5                            LOW = DIFF;

   2777  0 000034   200006 756100                    STQ     LOW,,AUTO

       43     2778    5                          END;

       44     2779    4                     END;

       45     2780    3                END;

       46     2781    2           END;                            /* DO I = 0 TO 24 */

   2781  0 000035   200010 235100                    LDA     I,,AUTO
         0 000036   000001 035007                    ADLA    1,DL
         0 000037   200010 755100                    STA     I,,AUTO
         0 000040   000031 115007                    CMPA    25,DL
         0 000041   000007 602000 0                  TNC     s:2767

PL6.E3A0      #001=DDR$UD_FIND File=DDR$UD_FIND.:E05TSI                          TUE 07/29/97 14:11 Page:8
       47     2782    1        IF LIDX = -1

   2782  0 000042   200007 236100                    LDQ     LIDX,,AUTO
         0 000043   000027 116000 xsym               CMPQ    B_VECTNIL+23
         0 000044   000046 601000 0                  TNZ     s:2785

       48     2783    1        THEN ALTRETURN;

   2783  0 000045   000000 702200 xent               TSX2  ! X66_AALT

       49     2784                                                /**/
       50     2785    1        TEXT$ = ADDR(S_D.UD.TEXTSZ(LIDX));

   2785  0 000046   000011 402003                    MPY     9,DU
         0 000047   000141 036003                    ADLQ    97,DU
         0 000050   000000 036000 xsym               ADLQ    S_D$
         0 000051   200004 471500                    LDP1    @TEXT$,,AUTO
         0 000052   100000 756100                    STQ     0,,PR1

       51     2786    1        VALUE = S_D.UD.VALUE(LIDX);

   2786  0 000053   200007 236100                    LDQ     LIDX,,AUTO
         0 000054   000011 402007                    MPY     9,DL
         0 000055   000140 235106                    LDA     96,QL,PR0
         0 000056   200005 473500                    LDP3    @VALUE,,AUTO
         0 000057   300000 755100                    STA     0,,PR3

       52     2787    1        RETURN;

   2787  0 000060   000000 702200 xent               TSX2  ! X66_ARET
       53     2788    1   END DDR$UD_FIND;

PL6.E3A0      #001=DDR$UD_FIND File=DDR$UD_FIND.:E05TSI                          TUE 07/29/97 14:11 Page:9
--  Include file information  --

   DD_SD_M.:E05TOU  is referenced.
   XUH_MACRO_C.:E05TOU  is referenced.
   B$JIT_C.:E05TOU  was found in the system file and is never referenced.
   CP_6_C.:E05TOU  was found in the system file and is never referenced.
      No diagnostics issued in procedure DDR$UD_FIND.

   Procedure DDR$UD_FIND requires 49 words for executable code.
   Procedure DDR$UD_FIND requires 12 words of local(AUTO) storage.

    No errors detected in file DDR$UD_FIND.:E05TSI    .
PL6.E3A0      #001=DDR$UD_FIND File=DDR$UD_FIND.:E05TSI                          TUE 07/29/97 14:11 Page:10
          *** CROSS REFERENCE LISTING ***
**     DENOTES     IDENTIFIER DEFINITION
<<                 IDENTIFIER'S VALUE SET
>>                 IDENTIFIER'S VALUE USED
<>                 IDENTIFIER SET AND/OR USED
--                 IDENTIFIER REFERENCED
PL6.E3A0      #001=DDR$UD_FIND File=DDR$UD_FIND.:E05TSI                          TUE 07/29/97 14:11 Page:11
          MINI XREF LISTING

ADDRESS
        15**DCL        13--PROC     2772>>ASSIGN
DIFF
        22**DCL      2772<<ASSIGN   2773>>IF       2773>>IF       2777>>ASSIGN
I
        21**DCL      2766<<DOINDEX  2767>>IF       2769>>ASSIGN   2776>>ASSIGN
LIDX
        20**DCL      2764<<ASSIGN   2776<<ASSIGN   2782>>IF       2785>>ASSIGN   2786>>ASSIGN
LOW
        19**DCL      2765<<ASSIGN   2773>>IF       2777<<ASSIGN
S_D.CURRENT_CHANNEL
      2397**DCL      2399--REDEF
S_D.DEBUGA
      1549**DCL      1551--REDEF
S_D.EIS
      2507**DCL      2536--REDEF
S_D.HOST_MESSAGE_BUF_REMOTE
      2440**DCL      2441--REDEF    2455--REDEF
S_D.JDE
      2054**DCL      2055--REDEF
S_D.L$.VALUE
      1607**DCL      1613--REDEF    1621--REDEF    1624--REDEF    1627--REDEF    1630--REDEF
S_D.L$.VALUE.L
      1608**DCL      1609--REDEF    1610--REDEF
S_D.L6_MESSAGE_BUF
      2461**DCL      2463--REDEF
S_D.OUTPUT
      2427**DCL      2429--REDEF
S_D.REMOTE_MSG.FNCC
      2446**DCL      2447--REDEF
S_D.REMOTE_MSG.STXC
      2442**DCL      2443--REDEF
PL6.E3A0      #001=DDR$UD_FIND File=DDR$UD_FIND.:E05TSI                          TUE 07/29/97 14:11 Page:12
S_D.REMOTE_MSG.SUBFNCC
      2450**DCL      2451--REDEF
S_D.SV
      1506**DCL      1527--REDEF
S_D.UD.TEXTSZ
      1652**DCL      2767>>IF       2785--ASSIGN
S_D.UD.VALUE
      1651**DCL      2769>>ASSIGN   2786>>ASSIGN
S_D$
      2758**DCL      1454--IMP-PTR  2767>>IF       2769>>ASSIGN   2785>>ASSIGN   2786>>ASSIGN
TEMP
        23**DCL      2769<<ASSIGN   2770>>IF       2772>>ASSIGN
TEXT$
        16**DCL        13--PROC     2785<<ASSIGN
VALUE
        17**DCL        13--PROC     2786<<ASSIGN
PL6.E3A0      #001=DDR$UD_FIND File=DDR$UD_FIND.:E05TSI                          TUE 07/29/97 14:11 Page:13
              *** CROSS REFERENCE LISTING ***
    **     DENOTES     IDENTIFIER DEFINITION
    <<                 IDENTIFIER'S VALUE SET
    >>                 IDENTIFIER'S VALUE USED
    <>                 IDENTIFIER SET AND/OR USED
    --                 IDENTIFIER REFERENCED
PL6.E3A0      #001=DDR$UD_FIND File=DDR$UD_FIND.:E05TSI                          TUE 07/29/97 14:11 Page:14
              MINI UREF LISTING

DDR$UD_FIND      13**PROC
