PL6.E3A0      #001=DDS$BLD File=DDS$BLD.:E05TSI                                  TUE 07/29/97 14:11 Page:557
ANLZ$CMD.FIDSCH.TEXT IN PROCEDURE DDS$BLD_ANLZ
     13829**DCL     13858--IF      13879<<ASSIGN
ANLZ$CMD.FILE IN PROCEDURE DDS$BLD_ANLZ
     13813**DCL     13835<<ASSIGN  13848<<ASSIGN
ANLZ$CMD.FILESCH IN PROCEDURE DDS$BLD_ANLZ
     13814**DCL     13836<<ASSIGN  13855<<ASSIGN
ANLZ$CMD.RES.RES# IN PROCEDURE DDS$BLD_ANLZ
     13825**DCL     13872<<CALLBLT
ANLZ$CMD.RUNNING IN PROCEDURE DDS$BLD_ANLZ
     13815**DCL     13834<<ASSIGN  13844<<ASSIGN
ARET IN PROCEDURE DDS$BLD_ACTIVE
     13676**LABEL   13650--CALLALT 13659--CALLALT 13665--CALLALT 13673--GOTO
ARET IN PROCEDURE DDS$BLD_ALIB
     13728**LABEL   13711--CALLALT 13722--GOTO
ARET IN PROCEDURE DDS$BLD_ALTVAR
     13779**LABEL   13762--CALLALT 13771--GOTO
ARET IN PROCEDURE DDS$BLD_ANLZ
     13892**LABEL   13832--CALLALT 13868--CALLALT 13884--GOTO    13889--GOTO
ARET IN PROCEDURE DDS$BLD_BREAK
     14304**LABEL   14300--CALLALT
ARET IN PROCEDURE DDS$BLD_DEBUG
     14453**LABEL   14355--CALLALT 14370--CALLALT 14389--GOTO    14416--CALLALT 14450--GOTO
ARET IN PROCEDURE DDS$BLD_DEF
     14508**LABEL   14490--CALLALT 14495--GOTO    14499--CALLALT 14503--GOTO
ARET IN PROCEDURE DDS$BLD_DISP
     14607**LABEL   14590--CALLALT 14598--CALLALT
ARET IN PROCEDURE DDS$BLD_ERRFID
     14655**LABEL   14650--CALLALT
ARET IN PROCEDURE DDS$BLD_EVAL
     14752**LABEL   14704--CALLALT 14717--CALLALT 14721--GOTO    14733--CALLALT 14738--GOTO
ARET IN PROCEDURE DDS$BLD_FIND
     14904**LABEL   14817--CALLALT 14830--CALLALT 14837--CALLALT 14847--CALLALT 14853--CALLALT 14860--CALLALT
     14871--CALLALT 14878--CALLALT 14888--CALLALT 14901--GOTO    14902--GOTO
ARET IN PROCEDURE DDS$BLD_FORMAT
     14941**LABEL   14935--CALLALT
ARET IN PROCEDURE DDS$BLD_GO
PL6.E3A0      #001=DDS$BLD File=DDS$BLD.:E05TSI                                  TUE 07/29/97 14:11 Page:558
     15154**LABEL   15057--CALLALT 15100--CALLALT 15128--GOTO    15152--GOTO
ARET IN PROCEDURE DDS$BLD_HELP
     15189**LABEL   15184--CALLALT
ARET IN PROCEDURE DDS$BLD_HISTORY
     15252**LABEL   15227--CALLALT 15237--CALLALT 15246--GOTO
ARET IN PROCEDURE DDS$BLD_KILL
     15380**LABEL   15298--CALLALT 15321--GOTO    15323--CALLALT 15329--CALLALT 15370--GOTO    15375--GOTO
     15376--GOTO    15377--GOTO    15378--GOTO
ARET IN PROCEDURE DDS$BLD_LET
     15471**LABEL   15452--CALLALT 15454--CALLALT 15458--GOTO    15463--GOTO    15466--CALLALT
ARET IN PROCEDURE DDS$BLD_MACTIVE
     15646**LABEL   15529--CALLALT 15552--CALLALT 15556--GOTO    15563--GOTO    15567--CALLALT 15573--GOTO
     15583--CALLALT 15590--CALLALT 15595--GOTO    15607--GOTO    15629--GOTO    15638--CALLALT
ARET IN PROCEDURE DDS$BLD_MLCT
     15809**LABEL   15790--CALLALT 15793--CALLALT 15800--CALLALT
ARET IN PROCEDURE DDS$BLD_MODIFYDW
     15751**LABEL   15693--CALLALT 15699--CALLALT 15704--CALLALT 15710--GOTO    15723--CALLALT 15728--GOTO
     15739--CALLALT 15743--GOTO
ARET IN PROCEDURE DDS$BLD_NAME
     15855**LABEL   15839--CALLALT
ARET IN PROCEDURE DDS$BLD_OA
     16023**LABEL   15990--CALLALT 16006--GOTO    16020--GOTO
ARET IN PROCEDURE DDS$BLD_ONCALLS
     16823**LABEL   16745--GOTO    16754--GOTO    16768--CALLALT 16781--GOTO    16807--GOTO    16817--CALLALT
     16826--GOTO
ARET IN PROCEDURE DDS$BLD_PLUGH
     16886**LABEL   16861--CALLALT 16870--GOTO    16874--CALLALT 16878--GOTO
ARET IN PROCEDURE DDS$BLD_PMD
     16941**LABEL   16928--CALLALT
ARET IN PROCEDURE DDS$BLD_PROMPT
     16986**LABEL   16975--CALLALT 16980--GOTO
ARET IN PROCEDURE DDS$BLD_RANGE
     17080**LABEL   17072--CALLALT 17075--CALLALT
ARET IN PROCEDURE DDS$BLD_REPORT
     17159**LABEL   17119--CALLALT
ARET IN PROCEDURE DDS$BLD_RUM
PL6.E3A0      #001=DDS$BLD File=DDS$BLD.:E05TSI                                  TUE 07/29/97 14:11 Page:559
     17277**LABEL   17215--CALLALT 17227--GOTO    17239--CALLALT 17244--GOTO    17257--CALLALT 17263--GOTO
     17270--GOTO
ARET IN PROCEDURE DDS$BLD_SAD
     17320**LABEL   17314--CALLALT 17315--CALLALT
ARET IN PROCEDURE DDS$BLD_SCHEMA
     17431**LABEL   17404--CALLALT 17412--CALLALT 17430--GOTO
ARET IN PROCEDURE DDS$BLD_SELCHAN
     17477**LABEL   17468--CALLALT 17470--CALLALT
ARET IN PROCEDURE DDS$BLD_SHOW
     17620**LABEL   17523--CALLALT 17561--GOTO    17563--CALLALT 17569--CALLALT 17607--GOTO    17616--GOTO
     17617--GOTO    17618--GOTO    17619--GOTO
ARET IN PROCEDURE DDS$BLD_SYNTAX
     17761**LABEL   17754--CALLALT
ARET IN PROCEDURE DDS$BLD_TRACE
     17926**LABEL   17868--CALLALT 17901--GOTO    17924--GOTO
ARET IN PROCEDURE DDS$BLD_TSA
     17974**LABEL   17961--CALLALT 17967--CALLALT
ARET IN PROCEDURE DDS$BLD_UNFID
     18050**LABEL   18013--CALLALT
ARET IN PROCEDURE DDS$BLD_UNSHARE
     18115**LABEL   18087--CALLALT
ARET IN PROCEDURE DDS$BLD_UPDATE
     18218**LABEL   18156--CALLALT 18168--CALLALT 18175--CALLALT 18184--CALLALT 18189--CALLALT 18195--CALLALT
     18202--CALLALT 18214--GOTO    18215--GOTO
ARET IN PROCEDURE DDS$BLD_XEQ
     18602**LABEL   18580--CALLALT 18585--CALLALT 18591--CALLALT 18595--GOTO
ARET1 IN PROCEDURE DDS$BLD_OA
     16022**LABEL   15971--GOTO    15982--GOTO    15986--GOTO
ARET1 IN PROCEDURE DDS$BLD_ONCALLS
     16822**LABEL   16741--GOTO    16750--GOTO    16765--GOTO
ARETLARG IN PROCEDURE DDS$BLD_ANLZ
     13889**LABEL   13870--GOTO
ARETLARG IN PROCEDURE DDS$BLD_DEBUG
     14450**LABEL   14372--GOTO
ARETTCP IN PROCEDURE DDS$BLD_TRACE
     17924**LABEL   17920--GOTO
PL6.E3A0      #001=DDS$BLD File=DDS$BLD.:E05TSI                                  TUE 07/29/97 14:11 Page:560
ASML IN PROCEDURE DDS$BLD_SHOW
     17526**LABEL   17534--GOTO
ATTACH_AT_TIME IN PROCEDURE DDS$BLD_UPDATE
     18135**DCL     18154<<ASSIGN  18163<<ASSIGN  18211>>ASSIGN
AT_FIRST IN PROCEDURE DDS$BLD_AT
     13985**DCL     14103--CALL
AT_FIRST.BYPASS_COUNT IN PROCEDURE DDS$BLD_AT
     14004**DCL     14119<<ASSIGN  14154<>CALL
AT_FIRST.CURRENT_COUNT IN PROCEDURE DDS$BLD_AT
     14005**DCL     14120<<ASSIGN
AT_FIRST.NODE IN PROCEDURE DDS$BLD_AT
     14000**DCL     14107<<ASSIGN  14108<<ASSIGN  14109<<ASSIGN
AT_FIRST.UNUSED IN PROCEDURE DDS$BLD_AT
     13989**DCL     13990--REDEF   13994--REDEF
B$EDEF.ISADDR IN PROCEDURE DDS$BLD_OC
     16141**DCL     16360>>ASSIGN
B$EDEF.OU IN PROCEDURE DDS$BLD_OC
     16135**DCL     16141--REDEF
B$INTNTRY.ISADDR IN PROCEDURE DDS$BLD_OC
     16199**DCL     16357>>ASSIGN
B$INTNTRY.OU IN PROCEDURE DDS$BLD_OC
     16192**DCL     16199--REDEF
B$JIT.CPFLAGS1.SLEAZE
      9353**DCL      9353--REDEF
B$JIT.ERR.MID
      9260**DCL      9260--REDEF
B$JIT.JRESPEAK
      9421**DCL      9422--REDEF
B$JIT.ORIGINATOR_PORT.FROM_CR
      9530**DCL      9530--REDEF    9531--REDEF
B$JIT.PNR
      9434**DCL      9434--REDEF
B$JIT.TDP
      9419**DCL     14105>>IF
B$JIT.TSLINE
      9528**DCL      9529--REDEF
PL6.E3A0      #001=DDS$BLD File=DDS$BLD.:E05TSI                                  TUE 07/29/97 14:11 Page:561
B$JIT$
      9535**DCL      9254--IMP-PTR 14105>>IF
B$NODE.FLGS.NOW_IN IN PROCEDURE DDS$BLD_AT
     13949**DCL     14111>>IF
B$NODE.FLGS.NOW_IN IN PROCEDURE DDS$BLD_OC
     16082**DCL     16370>>IF
BB$ IN PROCEDURE DDS$BLD_AT
     13922**DCL     14171<<ASSIGN  14172<>CALL    14173<<ASSIGN  14173>>ASSIGN  14174>>ASSIGN
BB$ IN PROCEDURE DDS$BLD_OC
     16054**DCL     16432<<ASSIGN  16433<>CALL    16434<<ASSIGN  16434>>ASSIGN  16435>>ASSIGN
CHAR2 IN PROCEDURE DDS$BLD_ANLZ
     13807**DCL     13871<<CALLBLT 13872>>CALLBLT
CHAR2 IN PROCEDURE DDS$BLD_RUM
     17186**DCL     17246<<CALLBLT 17247--CALLBLT 17247>>CALLBLT
CHAR22 IN PROCEDURE DDS$BLD_AT
     13921**DCL     14174<<ASSIGN
CHAR22 IN PROCEDURE DDS$BLD_OC
     16053**DCL     16435<<ASSIGN
CMD IN PROCEDURE DDS$BLD_ONCALLS
     16643**DCL     16737<<ASSIGN  16763<<ASSIGN  16768<>CALL    16787>>IF
CMDCODE
      9601**DCL        29--PROC    13240>>DOCASE
CODE IN PROCEDURE DDS$BLD_ALIB
     13696**DCL     13715<<ASSIGN  13716>>IF      13716>>IF      13717>>ASSIGN  13718>>IF      13719>>ASSIGN
CODE IN PROCEDURE DDS$BLD_ANLZ
     13799**DCL     13839<<ASSIGN  13840>>DOCASE
CODE IN PROCEDURE DDS$BLD_DEBUG
     14324**DCL     14362<<ASSIGN  14363>>IF      14365>>IF      14368>>IF      14370<>CALL    14371>>IF
     14371--IF      14373>>ASSIGN  14375>>IF      14413>>IF      14424>>IF
CODE IN PROCEDURE DDS$BLD_EVAL
     14681**DCL     14708<<ASSIGN  14724<<ASSIGN  14725<<ASSIGN  14743<<ASSIGN  14748>>ASSIGN
CODE IN PROCEDURE DDS$BLD_GO
     14963**DCL     15062<<ASSIGN  15063>>IF      15113>>IF      15115>>IF      15119>>IF      15121>>IF
CODE IN PROCEDURE DDS$BLD_HISTORY
     15211**DCL     15232<<ASSIGN  15233>>IF      15235>>IF      15240>>IF      15242>>IF
CODE IN PROCEDURE DDS$BLD_MACTIVE
PL6.E3A0      #001=DDS$BLD File=DDS$BLD.:E05TSI                                  TUE 07/29/97 14:11 Page:562
     15502**DCL     15539<<ASSIGN  15569<<ASSIGN  15599<<ASSIGN  15603<<ASSIGN  15632>>ASSIGN
CODE IN PROCEDURE DDS$BLD_ONCALLS
     16641**DCL     16772<<ASSIGN  16773>>IF      16775>>IF      16777>>IF
CODE IN PROCEDURE DDS$BLD_PMD
     16906**DCL     16934<<ASSIGN  16935>>ASSIGN
CODE IN PROCEDURE DDS$BLD_QUIT
     17011**DCL     17025<<ASSIGN  17026>>IF
CODE IN PROCEDURE DDS$BLD_REPORT
     17100**DCL     17123<<ASSIGN  17124>>IF      17131>>IF      17134>>IF      17139>>IF      17144>>IF
     17151>>ASSIGN
CODE IN PROCEDURE DDS$BLD_RUM
     17179**DCL     17219<<ASSIGN  17220>>IF      17231>>IF      17233>>IF      17250>>IF      17250>>IF
     17250>>IF      17253>>ASSIGN  17254>>IF
CODE IN PROCEDURE DDS$BLD_SCHEMA
     17379**DCL     17408<<ASSIGN  17409>>IF      17420>>IF
CODE IN PROCEDURE DDS$BLD_STOP
     17692**DCL     17706<<ASSIGN  17707>>IF      17712>>IF
CODE IN PROCEDURE DDS$BLD_TRACE
     17783**DCL     17875<<ASSIGN  17876>>IF      17878>>IF      17878>>IF      17878>>IF      17878>>IF
     17878>>IF      17878>>IF      17878>>IF      17878>>IF      17886>>ASSIGN  17887>>IF      17892>>IF
CODE IN PROCEDURE DDS$BLD_UNSHARE
     18071**DCL     18098<<ASSIGN  18099>>IF      18104>>IF      18106>>IF
CODE IN PROCEDURE DDS$BLD_UPDATE
     18134**DCL     18158<<ASSIGN  18159>>DOCASE  18161>>IF
DDA$TRACEON
     13198**DCL-ENT 16794--CALL
DDB$CHECK_ADDR
     13221**DCL-ENT 14133--CALL    16394--CALL
DDD$SIMEXP
     13199**DCL-ENT 14853--CALL    15552--CALL
DDE$ERROR
     13222**DCL-ENT 14158--CALL    14169--CALL    16417--CALL    16430--CALL    17269--CALL
DDESC IN PROCEDURE DDS$BLD_PLUGH
     16859**DCL     16872<<ASSIGN  16881<<ASSIGN  16882>>ASSIGN
DDK$EVAL
     13236**DCL-ENT 15712--CALL
PL6.E3A0      #001=DDS$BLD File=DDS$BLD.:E05TSI                                  TUE 07/29/97 14:11 Page:563
DDQ$WRITE
     13224**DCL-ENT 14175--CALL    16436--CALL
DDR$BINTXT
     13223**DCL-ENT 14172--CALL    16433--CALL
DDS$ATTDIRA
     13201**DCL-ENT 13650--CALL    13711--CALL    13762--CALL    13832--CALL    14300--CALL    14355--CALL
     14490--CALL    14543--CALL    14590--CALL    14650--CALL    14704--CALL    14817--CALL    14935--CALL
     15057--CALL    15184--CALL    15227--CALL    15298--CALL    15452--CALL    15529--CALL    15638--CALL
     15693--CALL    15699--CALL    15790--CALL    15839--CALL    16861--CALL    16928--CALL    16975--CALL
     17020--CALL    17072--CALL    17119--CALL    17215--CALL    17314--CALL    17404--CALL    17468--CALL
     17523--CALL    17649--CALL    17701--CALL    17754--CALL    17868--CALL    17961--CALL    18013--CALL
     18087--CALL    18156--CALL    18321--CALL    18541--CALL    18580--CALL
DDS$BLD_ACTIVE
     13606**PROC    13248--CALL
DDS$BLD_ALIB
     13692**PROC    13251--CALL
DDS$BLD_ALTVAR
     13743**PROC    13253--CALL
DDS$BLD_ANLZ
     13795**PROC    13257--CALL
DDS$BLD_AT
     13916**PROC    13259--CALL
DDS$BLD_BREAK
     14193**PROC    13266--CALL
DDS$BLD_BYPASS IN PROCEDURE DDS$BLD_BREAK
     14215**ENTRY   13271--CALL
DDS$BLD_CACHE IN PROCEDURE DDS$BLD_BREAK
     14290**ENTRY   13274--CALL
DDS$BLD_COPY IN PROCEDURE DDS$BLD_BREAK
     14225**ENTRY   13277--CALL
DDS$BLD_CRASH IN PROCEDURE DDS$BLD_BREAK
     14220**ENTRY   13282--CALL
DDS$BLD_DBOOT IN PROCEDURE DDS$BLD_BREAK
     14230**ENTRY   13286--CALL
DDS$BLD_DEBUG
     14320**PROC    13288--CALL
PL6.E3A0      #001=DDS$BLD File=DDS$BLD.:E05TSI                                  TUE 07/29/97 14:11 Page:564
DDS$BLD_DEF
     14472**PROC    13294--CALL
DDS$BLD_DELETE IN PROCEDURE DDS$BLD_BREAK
     14235**ENTRY   13292--CALL
DDS$BLD_DIC IN PROCEDURE DDS$BLD_BREAK
     14240**ENTRY   13307--CALL
DDS$BLD_DISP
     14571**PROC    13309--CALL
DDS$BLD_DLCT IN PROCEDURE DDS$BLD_BREAK
     14245**ENTRY   13300--CALL
DDS$BLD_DO
     14523**PROC    13305--CALL
DDS$BLD_DUMP
     13229**DCL-ENT 13311--CALL
DDS$BLD_ECHO
     13230**DCL-ENT 13313--CALL
DDS$BLD_EOM IN PROCEDURE DDS$BLD_BREAK
     14250**ENTRY   13318--CALL
DDS$BLD_ERRFID
     14623**PROC    13321--CALL
DDS$BLD_EVAL
     14678**PROC    13315--CALL
DDS$BLD_EXIT IN PROCEDURE DDS$BLD_BREAK
     14255**ENTRY   13327--CALL
DDS$BLD_FIND
     14771**PROC    13329--CALL
DDS$BLD_FORMAT
     14920**PROC    13331--CALL
DDS$BLD_GO
     14957**PROC    13350--CALL
DDS$BLD_HELP
     15170**PROC    13354--CALL
DDS$BLD_HISTORY
     15205**PROC    13359--CALL
DDS$BLD_IGNORE
     13233**DCL-ENT 13345--CALL
PL6.E3A0      #001=DDS$BLD File=DDS$BLD.:E05TSI                                  TUE 07/29/97 14:11 Page:565
DDS$BLD_INACTIVE IN PROCEDURE DDS$BLD_ACTIVE
     13629**ENTRY   13336--CALL
DDS$BLD_KEEP
     13231**DCL-ENT 13366--CALL
DDS$BLD_KILL
     15268**PROC    13361--CALL
DDS$BLD_LET
     15397**PROC    13369--CALL
DDS$BLD_LIST IN PROCEDURE DDS$BLD_ACTIVE
     13644**ENTRY   13375--CALL
DDS$BLD_MACLOSE IN PROCEDURE DDS$BLD_MACTIVE
     15636**ENTRY   13377--CALL
DDS$BLD_MACTIVE
     15497**PROC    13380--CALL    13382--CALL
DDS$BLD_MINI IN PROCEDURE DDS$BLD_BREAK
     14260**ENTRY   13389--CALL
DDS$BLD_MLCT
     15768**PROC    13399--CALL
DDS$BLD_MODIFY IN PROCEDURE DDS$BLD_MODIFYDW
     15697**ENTRY   13393--CALL
DDS$BLD_MODIFYDW
     15667**PROC    13391--CALL
DDS$BLD_NAME
     15818**PROC    13401--CALL
DDS$BLD_OA
     15871**PROC    13404--CALL
DDS$BLD_OC
     16047**PROC    13407--CALL
DDS$BLD_OE IN PROCEDURE DDS$BLD_OA
     15976**ENTRY   13412--CALL
DDS$BLD_ONCALLS
     16635**PROC    13409--CALL
DDS$BLD_ONN
     16462**PROC    13416--CALL
DDS$BLD_ONNODES IN PROCEDURE DDS$BLD_ONCALLS
     16759**ENTRY   13420--CALL
PL6.E3A0      #001=DDS$BLD File=DDS$BLD.:E05TSI                                  TUE 07/29/97 14:11 Page:566
DDS$BLD_OUTPUT
     13234**DCL-ENT 13422--CALL
DDS$BLD_PLUGH
     16842**PROC    13424--CALL
DDS$BLD_PMD
     16902**PROC    13426--CALL
DDS$BLD_PROMPT
     16957**PROC    13430--CALL
DDS$BLD_PROTECT IN PROCEDURE DDS$BLD_BREAK
     14265**ENTRY   13428--CALL
DDS$BLD_QMARK1 IN PROCEDURE DDS$BLD_BREAK
     14270**ENTRY   13434--CALL
DDS$BLD_QMARK2 IN PROCEDURE DDS$BLD_BREAK
     14275**ENTRY   13438--CALL
DDS$BLD_QUIT
     16994**PROC    13442--CALL
DDS$BLD_RANGE
     17053**PROC    13444--CALL
DDS$BLD_READ
     13235**DCL-ENT 13446--CALL
DDS$BLD_REPORT
     17096**PROC    13448--CALL
DDS$BLD_RUM
     17175**PROC    13452--CALL
DDS$BLD_SAD
     17295**PROC    13455--CALL
DDS$BLD_SAVE
     17335**PROC    13478--CALL
DDS$BLD_SCHEMA
     17373**PROC    13457--CALL
DDS$BLD_SELCHAN
     17447**PROC    13463--CALL
DDS$BLD_SHOW
     17493**PROC    13465--CALL
DDS$BLD_SILENT IN PROCEDURE DDS$BLD_ACTIVE
     13634**ENTRY   13483--CALL
PL6.E3A0      #001=DDS$BLD File=DDS$BLD.:E05TSI                                  TUE 07/29/97 14:11 Page:567
DDS$BLD_STATUS IN PROCEDURE DDS$BLD_BREAK
     14280**ENTRY   13468--CALL
DDS$BLD_STEP
     17628**PROC    13475--CALL
DDS$BLD_STOP
     17675**PROC    13490--CALL
DDS$BLD_STORE IN PROCEDURE DDS$BLD_FIND
     14812**ENTRY   13492--CALL
DDS$BLD_SYNTAX
     17737**PROC    13494--CALL
DDS$BLD_TBOOT IN PROCEDURE DDS$BLD_BREAK
     14285**ENTRY   13503--CALL
DDS$BLD_TRACE
     17777**PROC    13499--CALL
DDS$BLD_TRAP
     13232**DCL-ENT 13512--CALL
DDS$BLD_TSA
     17942**PROC    13517--CALL
DDS$BLD_UNFID
     17990**PROC    13522--CALL
DDS$BLD_UNSHARE
     18067**PROC    13531--CALL
DDS$BLD_UNSILENT IN PROCEDURE DDS$BLD_ACTIVE
     13639**ENTRY   13536--CALL
DDS$BLD_UPDATE
     18131**PROC    13545--CALL
DDS$BLD_USE
     18226**PROC    13519--CALL
DDS$BLD_WAIT
     18523**PROC    13552--CALL
DDS$BLD_XCON IN PROCEDURE DDS$BLD_BREAK
     14295**ENTRY   13558--CALL
DDS$BLD_XEQ
     18562**PROC    13565--CALL
DDS$CNSNT
     13202**DCL-ENT 15466--CALL
PL6.E3A0      #001=DDS$BLD File=DDS$BLD.:E05TSI                                  TUE 07/29/97 14:11 Page:568
DDS$DECIMAL
     13203**DCL-ENT 13659--CALL    13665--CALL    13868--CALL    14118--CALL    14370--CALL    14416--CALL
     14545--CALL    15323--CALL    15329--CALL    16379--CALL    16597--CALL    17239--CALL    17257--CALL
     17563--CALL    17569--CALL    17659--CALL    18037--CALL    18040--CALL    18168--CALL    18175--CALL
     18184--CALL    18189--CALL    18195--CALL    18202--CALL    18373--CALL
DDS$DUBREAK
     13204**DCL-ENT 14131--CALL    16392--CALL    16610--CALL
DDS$ED_SRCH
     13205**DCL-ENT 16353--CALL
DDS$ES_INQ
     13206**DCL-ENT 14099--CALL    16363--CALL
DDS$HEX
     13212**DCL-ENT 15793--CALL    15800--CALL    17470--CALL    17967--CALL    18402--CALL    18494--CALL
DDS$IE_SRCH
     13207**DCL-ENT 16351--CALL
DDS$INSTR
     13208**DCL-ENT 14733--CALL    14837--CALL    14878--CALL    15583--CALL    15723--CALL    18585--CALL
DDS$ND_SRCH
     13210**DCL-ENT 16584--CALL    18446--CALL
DDS$OCTAL
     13211**DCL-ENT 18354--CALL    18377--CALL    18387--CALL    18398--CALL
DDS$POSIMX
     13213**DCL-ENT 14860--CALL    14888--CALL
DDS$POSITION
     13214**DCL-ENT 14083--CALL    15100--CALL    17412--CALL    18484--CALL
DDS$QUAL_SRCH
     13215**DCL-ENT 16375--CALL
DDS$SAVE_L6INSTR_PTR
     18606**PROC    14735--CALL    15586--CALL    15725--CALL
DDS$SDO
     13216**DCL-ENT 15237--CALL    17075--CALL    17315--CALL
DDS$SET_Q2D
     13217**DCL-ENT 14100--CALL    16364--CALL
DDS$STOREDA
     13218**DCL-ENT 14103--CALL    15990--CALL    16367--CALL    16590--CALL    16768--CALL    17366--CALL
DDS$VREFCOM
PL6.E3A0      #001=DDS$BLD File=DDS$BLD.:E05TSI                                  TUE 07/29/97 14:11 Page:569
     13219**DCL-ENT 14499--CALL    14598--CALL    14717--CALL    14830--CALL    14847--CALL    14871--CALL
     15454--CALL    15567--CALL    15704--CALL    15739--CALL    16874--CALL    18591--CALL
DEBUG$CMD IN PROCEDURE DDS$BLD_DEBUG
     14332**DCL     14355--CALL
DEBUG$CMD.CG IN PROCEDURE DDS$BLD_DEBUG
     14340**DCL     14396<<ASSIGN
DEBUG$CMD.CG_FID IN PROCEDURE DDS$BLD_DEBUG
     14350**DCL     14386--IF
DEBUG$CMD.CG_FID.SIZE IN PROCEDURE DDS$BLD_DEBUG
     14351**DCL     14399<<ASSIGN  14403<<ASSIGN  14409<<ASSIGN  14441<<ASSIGN
DEBUG$CMD.CG_FID.TEXT IN PROCEDURE DDS$BLD_DEBUG
     14352**DCL     14400<<ASSIGN  14404<<CALLBLT 14410<<ASSIGN  14442<<ASSIGN
DEBUG$CMD.FEP IN PROCEDURE DDS$BLD_DEBUG
     14338**DCL     14426<<ASSIGN
DEBUG$CMD.OPTARRY IN PROCEDURE DDS$BLD_DEBUG
     14345**DCL     14346--REDEF   14373<<ASSIGN
DEBUG$CMD.OPTIONS IN PROCEDURE DDS$BLD_DEBUG
     14346**DCL     14364<<ASSIGN
DEBUG$CMD.STATION_FID.SIZE IN PROCEDURE DDS$BLD_DEBUG
     14348**DCL     14379<<ASSIGN  14420<<ASSIGN  14434<<ASSIGN
DEBUG$CMD.STATION_FID.TEXT IN PROCEDURE DDS$BLD_DEBUG
     14349**DCL     14380<<ASSIGN  14421<<ASSIGN  14435<<ASSIGN
DEBUG$CMD.SYSID IN PROCEDURE DDS$BLD_DEBUG
     14339**DCL     14422<<ASSIGN
DEBUG$CMD.SYSID# IN PROCEDURE DDS$BLD_DEBUG
     14336**DCL     14417<<ASSIGN
DEBUG$CMD.TPACCT IN PROCEDURE DDS$BLD_DEBUG
     14341**DCL     14408<<ASSIGN
DEF$CMD IN PROCEDURE DDS$BLD_DEF
     14476**DCL     14490--CALL
DEF$CMD.TEXTC IN PROCEDURE DDS$BLD_DEF
     14485**DCL     14497<<ASSIGN
DEFAULT IN PROCEDURE DDS$BLD_REPORT
     17101**DCL     17120<<ASSIGN  17129<<ASSIGN  17137<<ASSIGN  17142<<ASSIGN  17147<<ASSIGN  17154>>ASSIGN
DFA$ONCALL
     13225**DCL-ENT 16413--CALL
PL6.E3A0      #001=DDS$BLD File=DDS$BLD.:E05TSI                                  TUE 07/29/97 14:11 Page:570
DFA$ONCALLS
     13226**DCL-ENT 16817--CALL
DFA$SET_AT
     13227**DCL-ENT 14154--CALL
DFS$INSTR
     13209**DCL-ENT 15590--CALL
DISPLAY IN PROCEDURE DDS$BLD_DISP
     14578**DCL     14590--CALL
DISPLAY.NUM IN PROCEDURE DDS$BLD_DISP
     14583**DCL     14593<<ASSIGN
DOO IN PROCEDURE DDS$BLD_DO
     14527**DCL     14543--CALL
DOO.ID IN PROCEDURE DDS$BLD_DO
     14531**DCL     14553<<ASSIGN
DUA$RUM_COMM
     13220**DCL-ENT 15619--CALL
DUM1 IN PROCEDURE DDS$BLD_MODIFYDW
     15689**DCL     15712<>CALL
DUM2 IN PROCEDURE DDS$BLD_MODIFYDW
     15690**DCL     15712<>CALL
DUM3 IN PROCEDURE DDS$BLD_MODIFYDW
     15691**DCL     15712<>CALL
DUMVAR1 IN PROCEDURE DDS$BLD_MACTIVE
     15506**DCL     15590<>CALL
D_SYMBOLS
     13195**DCL     13406>>IF
D_XDELTA
     13194**DCL     13250>>IF      13255>>IF      13261>>IF      13273>>IF      13276>>IF      13284>>IF
     13290>>IF      13317>>IF      13320>>IF      13323>>IF      13338>>IF      13371>>IF      13385>>IF
     13403>>IF      13411>>IF      13414>>IF      13418>>IF      13440>>IF      13450>>IF      13454>>IF
     13467>>IF      13485>>IF      13501>>IF      13505>>IF      13514>>IF      13521>>IF      13524>>IF
     13538>>IF      13547>>IF      13554>>IF      14104>>IF      14110>>IF      15147>>IF      15313>>IF
     15315>>IF      15317>>IF      15341>>IF      15347>>IF      15349>>IF      15351>>IF      15354>>IF
     15356>>IF      15367>>IF      17015>>IF      17546>>IF      17553>>IF      17555>>IF      17557>>IF
     17578>>IF      17584>>IF      17587>>IF      17589>>IF      17591>>IF      17594>>IF      17597>>IF
     17696>>IF      17917>>IF      18323>>IF
PL6.E3A0      #001=DDS$BLD File=DDS$BLD.:E05TSI                                  TUE 07/29/97 14:11 Page:571
EFTO IN PROCEDURE DDS$BLD_ACTIVE
     13673**LABEL   13668--GOTO
EFTO IN PROCEDURE DDS$BLD_KILL
     15376**LABEL   15332--GOTO
EFTO IN PROCEDURE DDS$BLD_SHOW
     17617**LABEL   17572--GOTO
ENOV IN PROCEDURE DDS$BLD_KILL
     15375**LABEL   15318--GOTO
ENOV IN PROCEDURE DDS$BLD_SHOW
     17616**LABEL   17558--GOTO
ENTRY$ IN PROCEDURE DDS$BLD_OC
     16058**DCL     16351<>CALL    16353<>CALL    16357>>ASSIGN  16360>>ASSIGN
ERR$ IN PROCEDURE DDS$BLD_OC
     16057**DCL     16350<<ASSIGN  16423>>ASSIGN
ERR$ IN PROCEDURE DDS$BLD_ONN
     16467**DCL     16583<<ASSIGN  16614>>ASSIGN
ERR1 IN PROCEDURE DDS$BLD_ACTIVE
     13674**LABEL   13662--GOTO    13667--GOTO
ERR1 IN PROCEDURE DDS$BLD_KILL
     15378**LABEL   15326--GOTO    15331--GOTO
ERR1 IN PROCEDURE DDS$BLD_SHOW
     17618**LABEL   17566--GOTO    17571--GOTO
ERR1 IN PROCEDURE DDS$BLD_UPDATE
     18214**LABEL   18172--GOTO    18178--GOTO    18188--GOTO    18199--GOTO
ERR25 IN PROCEDURE DDS$BLD_GO
     15152**LABEL   15104--GOTO    15108--GOTO
ERR25 IN PROCEDURE DDS$BLD_SCHEMA
     17430**LABEL   17415--GOTO    17417--GOTO
ERR25 IN PROCEDURE DDS$BLD_USE
     18505**LABEL   18486--GOTO
ERR7 IN PROCEDURE DDS$BLD_GO
     15153**LABEL   15148--GOTO
ERR7 IN PROCEDURE DDS$BLD_KILL
     15379**LABEL   15313--GOTO    15315--GOTO    15317--GOTO    15341--GOTO    15347--GOTO    15349--GOTO
     15351--GOTO    15354--GOTO    15356--GOTO    15367--GOTO
ERR7 IN PROCEDURE DDS$BLD_SHOW
PL6.E3A0      #001=DDS$BLD File=DDS$BLD.:E05TSI                                  TUE 07/29/97 14:11 Page:572
     17619**LABEL   17546--GOTO    17553--GOTO    17555--GOTO    17557--GOTO    17578--GOTO    17584--GOTO
     17587--GOTO    17589--GOTO    17591--GOTO    17594--GOTO    17597--GOTO
ERRFID$CMD IN PROCEDURE DDS$BLD_ERRFID
     14626**DCL     14650--CALL
ERRFID$CMD.FID IN PROCEDURE DDS$BLD_ERRFID
     14645**DCL     14652<<ASSIGN
ERRFID$CMD.GOTUTS IN PROCEDURE DDS$BLD_ERRFID
     14630**DCL     14631--REDEF
ERRFID$CMD.UTS IN PROCEDURE DDS$BLD_ERRFID
     14639**DCL     14640--REDEF
ERRTL IN PROCEDURE DDS$BLD_ANLZ
     13890**LABEL   13852--GOTO    13859--GOTO
ERR_ATTACH IN PROCEDURE DDS$BLD_UPDATE
     18216**LABEL   18192--GOTO    18206--GOTO
ERR_FROM_TO IN PROCEDURE DDS$BLD_UPDATE
     18215**LABEL   18180--GOTO
ESYM IN PROCEDURE DDS$BLD_KILL
     15377**LABEL   15337--GOTO
EVAL$CMD IN PROCEDURE DDS$BLD_EVAL
     14689**DCL     14704--CALL
EVAL$CMD.AWDX IN PROCEDURE DDS$BLD_EVAL
     14696**DCL     14741<<ASSIGN
EVAL$CMD.DDESC IN PROCEDURE DDS$BLD_EVAL
     14694**DCL     14746<<ASSIGN
EVAL$CMD.FMT IN PROCEDURE DDS$BLD_EVAL
     14698**DCL     14748<<ASSIGN
EVAL$CMD.IGNPR IN PROCEDURE DDS$BLD_EVAL
     14695**DCL     14740<<ASSIGN
EVAL$CMD.INSTR IN PROCEDURE DDS$BLD_EVAL
     14693**DCL     14730<<ASSIGN
EVAL$CMD.SACT IN PROCEDURE DDS$BLD_EVAL
     14699**DCL     14706<<ASSIGN
FEP# IN PROCEDURE DDS$BLD_ANLZ
     13806**DCL     13868<>CALL    13869>>IF      13871>>CALLBLT
FIND$CMD IN PROCEDURE DDS$BLD_FIND
     14783**DCL     14817--CALL
PL6.E3A0      #001=DDS$BLD File=DDS$BLD.:E05TSI                                  TUE 07/29/97 14:11 Page:573
FIND$CMD.AWDX IN PROCEDURE DDS$BLD_FIND
     14798**DCL     14839<<ASSIGN  14880<<ASSIGN
FIND$CMD.FROM IN PROCEDURE DDS$BLD_FIND
     14788**DCL     14844<<ASSIGN
FIND$CMD.FROMFIRST IN PROCEDURE DDS$BLD_FIND
     14794**DCL     14897<<ASSIGN
FIND$CMD.IGNPR IN PROCEDURE DDS$BLD_FIND
     14796**DCL     14838<<ASSIGN  14879<<ASSIGN
FIND$CMD.INSTR IN PROCEDURE DDS$BLD_FIND
     14787**DCL     14836<<ASSIGN
FIND$CMD.NOTFLAG IN PROCEDURE DDS$BLD_FIND
     14795**DCL     14827<<ASSIGN
FIND$CMD.NUM IN PROCEDURE DDS$BLD_FIND
     14804**DCL     14845<<ASSIGN  14854<<ASSIGN
FIND$CMD.SUBS IN PROCEDURE DDS$BLD_FIND
     14790**DCL     14866<<ASSIGN
FIND$CMD.SUBSFIRST IN PROCEDURE DDS$BLD_FIND
     14793**DCL     14896<<ASSIGN
FIND$CMD.SUBSINSTR IN PROCEDURE DDS$BLD_FIND
     14792**DCL     14877<<ASSIGN
FIND$CMD.SUBSUNDER IN PROCEDURE DDS$BLD_FIND
     14791**DCL     14885<<ASSIGN
FIND$CMD.SUBSUNDER_V IN PROCEDURE DDS$BLD_FIND
     14806**DCL     14889<<ASSIGN
FIND$CMD.UNDER IN PROCEDURE DDS$BLD_FIND
     14789**DCL     14859<<ASSIGN
FIND$CMD.UNDER_V IN PROCEDURE DDS$BLD_FIND
     14805**DCL     14861<<ASSIGN
FMT IN PROCEDURE DDS$BLD_LET
     15450**DCL     15465<<ASSIGN  15466<>CALL
FORMAT$CMD IN PROCEDURE DDS$BLD_FORMAT
     14923**DCL     14935--CALL
FORMAT$CMD.FORMAT IN PROCEDURE DDS$BLD_FORMAT
     14928**DCL     14937<<ASSIGN
FORMAT$CMD.TYPE IN PROCEDURE DDS$BLD_FORMAT
     14927**DCL     14936<<ASSIGN
PL6.E3A0      #001=DDS$BLD File=DDS$BLD.:E05TSI                                  TUE 07/29/97 14:11 Page:574
FPRG$CONTEXT.FANLZ
      9552**DCL     13246>>IF      13264>>IF      13269>>IF      13296>>IF      13303>>IF      13325>>IF
     13334>>IF      13343>>IF      13348>>IF      13357>>IF      13364>>IF      13373>>IF      13395>>IF
     13459>>IF      13473>>IF      13481>>IF      13487>>IF      13497>>IF      13510>>IF      13526>>IF
     13534>>IF      13541>>IF      13550>>IF      13556>>IF      13563>>IF      16864>>IF
FPRG$CONTEXT.XDELTA
      9551**DCL     13279>>IF      13296>>IF      13339>>IF      13395>>IF      13459>>IF      13506>>IF
     13528>>IF      16864>>IF
FPRG$CONTEXT.FIXCOM_INDEX IN PROCEDURE DDS$BLD_AT
     14053**DCL     14137>>DOWHILE 14153<<ASSIGN
FPRG$CONTEXT.RES IN PROCEDURE DDS$BLD_AT
     14033**DCL     14147>>ASSIGN
FPRG$CONTEXT.RES_SIZE IN PROCEDURE DDS$BLD_AT
     14035**DCL     14149>>ASSIGN
FPRG$CONTEXT.NEXT$ IN PROCEDURE DDS$BLD_GO
     14994**DCL     15086>>ASSIGN
FPRG$CONTEXT.RES IN PROCEDURE DDS$BLD_GO
     15013**DCL     15083>>IF      15144>>ASSIGN
FPRG$CONTEXT.FIXCOM_INDEX IN PROCEDURE DDS$BLD_OA
     15944**DCL     15999>>DOWHILE 16008<<ASSIGN
FPRG$CONTEXT.ONEXIT IN PROCEDURE DDS$BLD_OA
     15952**DCL     15985>>IF      16014<<ASSIGN
FPRG$CONTEXT.RES IN PROCEDURE DDS$BLD_OA
     15924**DCL     16010>>ASSIGN
FPRG$CONTEXT.RES_SIZE IN PROCEDURE DDS$BLD_OA
     15926**DCL     16012>>ASSIGN
FPRG$CONTEXT.FIXCOM_INDEX IN PROCEDURE DDS$BLD_OC
     16314**DCL     16398>>DOWHILE 16407<<ASSIGN
FPRG$CONTEXT.RES IN PROCEDURE DDS$BLD_OC
     16294**DCL     16409>>ASSIGN
FPRG$CONTEXT.RES_SIZE IN PROCEDURE DDS$BLD_OC
     16296**DCL     16411>>ASSIGN
FPRG$CONTEXT.FIXCOM_INDEX IN PROCEDURE DDS$BLD_ONCALLS
     16714**DCL     16800>>DOWHILE 16809<<ASSIGN
FPRG$CONTEXT.ONCALLS IN PROCEDURE DDS$BLD_ONCALLS
     16723**DCL     16749>>IF      16815<<ASSIGN
PL6.E3A0      #001=DDS$BLD File=DDS$BLD.:E05TSI                                  TUE 07/29/97 14:11 Page:575
FPRG$CONTEXT.ONCALLS_X IN PROCEDURE DDS$BLD_ONCALLS
     16683**DCL     16816<<ASSIGN
FPRG$CONTEXT.RES IN PROCEDURE DDS$BLD_ONCALLS
     16694**DCL     16811>>ASSIGN
FPRG$CONTEXT.RES_SIZE IN PROCEDURE DDS$BLD_ONCALLS
     16696**DCL     16813>>ASSIGN
FPRG$CONTEXT.TR$INFO.SET IN PROCEDURE DDS$BLD_ONCALLS
     16725**DCL     16751>>IF
FPRG$CONTEXT.INTERPRETIVE IN PROCEDURE DDS$BLD_ONN
     16502**DCL     16566>>IF
FPRG$CONTEXT.TR$INFO.SET IN PROCEDURE DDS$BLD_TRACE
     17840**DCL     17913>>IF
FPRG$CONTEXT.TR$INFO.SILENT IN PROCEDURE DDS$BLD_TRACE
     17844**DCL     17914>>ASSIGN
FPRG$CONTEXT.FANLZ IN PROCEDURE DDS$BLD_USE
     18249**DCL     18326>>IF      18345>>IF      18367>>IF      18385>>IF      18408>>IF      18425>>IF
     18429>>IF      18433>>IF      18452>>IF      18469>>IF      18479>>IF      18489>>IF
FPRG$CONTEXT.XDELTA IN PROCEDURE DDS$BLD_USE
     18248**DCL     18326>>IF      18345>>IF      18367>>IF      18385>>IF      18408>>IF      18425>>IF
     18429>>IF      18433>>IF      18452>>IF      18469>>IF      18479>>IF      18489>>IF
FROMX IN PROCEDURE DDS$BLD_FIND
     14779**DCL     14819<<ASSIGN  14843<<ASSIGN  14894>>IF      14895>>IF
GO$CMD IN PROCEDURE DDS$BLD_GO
     14973**DCL     15057--CALL
GO$CMD.ALL IN PROCEDURE DDS$BLD_GO
     14981**DCL     15058<<ASSIGN  15094<<ASSIGN  15120<<ASSIGN  15123<<ASSIGN  15131>>IF      15138<<ASSIGN
     15142<<ASSIGN
GO$CMD.FPRG IN PROCEDURE DDS$BLD_GO
     14983**DCL     15095<<ASSIGN  15143<<ASSIGN
GO$CMD.FPRG_RES IN PROCEDURE DDS$BLD_GO
     14989**DCL     15096<<ASSIGN  15144<<ASSIGN
GO$CMD.GOPOS IN PROCEDURE DDS$BLD_GO
     14978**DCL     15099<<ASSIGN  15131>>IF      15147>>IF
GO$CMD.HOST IN PROCEDURE DDS$BLD_GO
     14982**DCL     15124<<ASSIGN  15139<<ASSIGN
GO$CMD.POSITION IN PROCEDURE DDS$BLD_GO
PL6.E3A0      #001=DDS$BLD File=DDS$BLD.:E05TSI                                  TUE 07/29/97 14:11 Page:576
     14988**DCL     15110<<ASSIGN
GO$CMD.STEP IN PROCEDURE DDS$BLD_GO
     14979**DCL     15114<<ASSIGN  15131>>IF      15147>>IF
GO$CMD.TRAP IN PROCEDURE DDS$BLD_GO
     14980**DCL     15117<<ASSIGN  15131>>IF      15147>>IF
GOTED IN PROCEDURE DDS$BLD_OC
     16360**LABEL   16353--CALLALT
GOTFMT IN PROCEDURE DDS$BLD_EVAL
     14687**DCL     14717<>CALL    14723>>IF
GOTFMT IN PROCEDURE DDS$BLD_MACTIVE
     15505**DCL     15567<>CALL    15568>>IF
GOTFMT IN PROCEDURE DDS$BLD_MODIFYDW
     15688**DCL     15704<>CALL    15705>>IF      15733>>IF
GOTIE IN PROCEDURE DDS$BLD_OC
     16357**LABEL   16351--CALLALT
GOTIT IN PROCEDURE DDS$BLD_GO
     14967**DCL     15065<<ASSIGN  15081>>DOWHILE 15085<<ASSIGN  15092>>IF
GOTIT IN PROCEDURE DDS$BLD_OC
     16363**LABEL   16358--GOTO
GOTVREF IN PROCEDURE DDS$BLD_EVAL
     14686**DCL     14707<<ASSIGN  14715<<ASSIGN  14729<<ASSIGN  14745>>IF
GOTVREF IN PROCEDURE DDS$BLD_MACTIVE
     15504**DCL     15532<<ASSIGN  15546<<ASSIGN  15579<<ASSIGN  15612>>IF
HELP$CMD IN PROCEDURE DDS$BLD_HELP
     15173**DCL     15184--CALL
HELP$CMD.ASYM$ IN PROCEDURE DDS$BLD_HELP
     15181**DCL     15185<<ASSIGN
HISTORY$CMD IN PROCEDURE DDS$BLD_HISTORY
     15214**DCL     15227--CALL
HISTORY$CMD.CLEAR IN PROCEDURE DDS$BLD_HISTORY
     15219**DCL     15243<<ASSIGN
HISTORY$CMD.COUNT IN PROCEDURE DDS$BLD_HISTORY
     15224**DCL     15228<<ASSIGN  15234<<ASSIGN  15238<<ASSIGN
HISTORY$CMD.MORE IN PROCEDURE DDS$BLD_HISTORY
     15218**DCL     15241<<ASSIGN
I IN PROCEDURE DDS$BLD_ANLZ
PL6.E3A0      #001=DDS$BLD File=DDS$BLD.:E05TSI                                  TUE 07/29/97 14:11 Page:577
     13803**DCL     13863<<DOINDEX 13864>>ASSIGN
I IN PROCEDURE DDS$BLD_AT
     13925**DCL     14136<<ASSIGN  14137>>DOWHILE 14137>>DOWHILE 14139<<ASSIGN  14139>>ASSIGN  14141>>IF
     14153>>ASSIGN  14154<>CALL
I IN PROCEDURE DDS$BLD_DEBUG
     14330**DCL     14427<<DOINDEX 14428>>ASSIGN
I IN PROCEDURE DDS$BLD_OA
     15874**DCL     15998<<ASSIGN  15999>>DOWHILE 15999>>DOWHILE 16001<<ASSIGN  16001>>ASSIGN  16003>>IF
     16008>>ASSIGN  16014>>ASSIGN
I IN PROCEDURE DDS$BLD_OC
     16052**DCL     16397<<ASSIGN  16398>>DOWHILE 16398>>DOWHILE 16400<<ASSIGN  16400>>ASSIGN  16402>>IF
     16407>>ASSIGN  16413<>CALL
I IN PROCEDURE DDS$BLD_ONCALLS
     16644**DCL     16799<<ASSIGN  16800>>DOWHILE 16800>>DOWHILE 16802<<ASSIGN  16802>>ASSIGN  16804>>IF
     16809>>ASSIGN  16815>>ASSIGN  16817<>CALL
IC IN PROCEDURE DDS$BLD_AT
     13920**DCL     14083<>CALL    14086>>IF      14093>>IF      14099<>CALL    14105>>IF      14113>>ASSIGN
     14133<>CALL
IC IN PROCEDURE DDS$BLD_OC
     16051**DCL     16357<<ASSIGN  16360<<ASSIGN  16363<>CALL    16372>>ASSIGN  16394<>CALL
IX IN PROCEDURE DDS$BLD_ALIB
     13695**DCL     13713<<DOINDEX 13714>>ASSIGN
IX IN PROCEDURE DDS$BLD_ANLZ
     13798**DCL     13837<<DOINDEX 13838>>ASSIGN
IX IN PROCEDURE DDS$BLD_DEBUG
     14323**DCL     14360<<DOINDEX 14361>>ASSIGN
IX IN PROCEDURE DDS$BLD_EVAL
     14682**DCL     14710<<DOINDEX 14711>>ASSIGN
IX IN PROCEDURE DDS$BLD_FIND
     14775**DCL     14821<<DOINDEX 14823>>ASSIGN  14843>>ASSIGN  14865>>ASSIGN
IX IN PROCEDURE DDS$BLD_GO
     14960**DCL     15060<<DOINDEX 15061>>ASSIGN
IX IN PROCEDURE DDS$BLD_HISTORY
     15208**DCL     15230<<DOINDEX 15231>>ASSIGN
IX IN PROCEDURE DDS$BLD_MACTIVE
     15503**DCL     15540<<DOINDEX 15541>>ASSIGN
PL6.E3A0      #001=DDS$BLD File=DDS$BLD.:E05TSI                                  TUE 07/29/97 14:11 Page:578
IX IN PROCEDURE DDS$BLD_MODIFYDW
     15686**DCL     15715<<DOINDEX 15716>>ASSIGN  15718>>IF      15719>>ASSIGN  15730>>ASSIGN  15731>>ASSIGN
     15732>>ASSIGN
IX IN PROCEDURE DDS$BLD_ONCALLS
     16638**DCL     16770<<DOINDEX 16771>>ASSIGN
IX IN PROCEDURE DDS$BLD_PMD
     16905**DCL     16932<<DOINDEX 16933>>ASSIGN
IX IN PROCEDURE DDS$BLD_QUIT
     17008**DCL     17023<<DOINDEX 17024>>ASSIGN
IX IN PROCEDURE DDS$BLD_REPORT
     17099**DCL     17122<<DOINDEX 17123>>ASSIGN
IX IN PROCEDURE DDS$BLD_RUM
     17178**DCL     17217<<DOINDEX 17218>>ASSIGN
IX IN PROCEDURE DDS$BLD_SCHEMA
     17376**DCL     17406<<DOINDEX 17407>>ASSIGN
IX IN PROCEDURE DDS$BLD_STOP
     17689**DCL     17704<<DOINDEX 17705>>ASSIGN
IX IN PROCEDURE DDS$BLD_TRACE
     17780**DCL     17873<<DOINDEX 17874>>ASSIGN
IX IN PROCEDURE DDS$BLD_UNSHARE
     18070**DCL     18097<<DOINDEX 18098>>ASSIGN
IXX IN PROCEDURE DDS$BLD_AT
     13918**DCL     14078<<DOINDEX 14079>>ASSIGN
IXX IN PROCEDURE DDS$BLD_OC
     16049**DCL     16344<<DOINDEX 16345>>ASSIGN
IXX IN PROCEDURE DDS$BLD_ONN
     16464**DCL     16577<<DOINDEX 16578>>ASSIGN
IXX IN PROCEDURE DDS$BLD_RUM
     17183**DCL     17237<<DOINDEX 17238>>ASSIGN  17240>>IF      17247>>CALLBLT
KILL$CMD IN PROCEDURE DDS$BLD_KILL
     15276**DCL     15298--CALL
KILL$CMD.FPRG IN PROCEDURE DDS$BLD_KILL
     15286**DCL     15361<<ASSIGN
KILL$CMD.FPRG_RES IN PROCEDURE DDS$BLD_KILL
     15288**DCL     15360<<ASSIGN
KILL$CMD.ID_FROM IN PROCEDURE DDS$BLD_KILL
PL6.E3A0      #001=DDS$BLD File=DDS$BLD.:E05TSI                                  TUE 07/29/97 14:11 Page:579
     15281**DCL     15324<<ASSIGN  15344<<ASSIGN
KILL$CMD.ID_TO IN PROCEDURE DDS$BLD_KILL
     15282**DCL     15325<<ASSIGN  15330<<ASSIGN
KILL$CMD.TEXTC IN PROCEDURE DDS$BLD_KILL
     15289**DCL     15338<<ASSIGN
KILL$CMD.TYPE IN PROCEDURE DDS$BLD_KILL
     15280**DCL     15300<<ASSIGN  15301>>DOCASE
L1 IN PROCEDURE DDS$BLD_MODIFYDW
     15700**LABEL   15695--GOTO
L6_OUT$BLK.SUBLK$ IN PROCEDURE DDS$SAVE_L6INSTR_PTR
     18649**DCL     18656>>ASSIGN
LASTBLT$
      9604**DCL     13239<<ASSIGN  13613--IMP-PTR 13651>>ASSIGN  13652>>ASSIGN  13653>>ASSIGN  13655>>ASSIGN
     13660>>ASSIGN  13661>>ASSIGN  13666>>ASSIGN  13699--IMP-PTR 13717>>ASSIGN  13719>>ASSIGN  13748--IMP-PTR
     13765>>ASSIGN  13773>>ASSIGN  13774>>ASSIGN  13809--IMP-PTR 13834>>ASSIGN  13835>>ASSIGN  13836>>ASSIGN
     13844>>ASSIGN  13845>>ASSIGN  13846>>ASSIGN  13848>>ASSIGN  13853>>ASSIGN  13855>>ASSIGN  13860>>ASSIGN
     13862>>ASSIGN  13872>>CALLBLT 13878>>ASSIGN  13879>>ASSIGN  13985--IMP-PTR 14107>>ASSIGN  14108>>ASSIGN
     14109>>ASSIGN  14119>>ASSIGN  14120>>ASSIGN  14154>>CALL    14197--IMP-PTR 14332--IMP-PTR 14364>>ASSIGN
     14373>>ASSIGN  14379>>ASSIGN  14380>>ASSIGN  14396>>ASSIGN  14399>>ASSIGN  14400>>ASSIGN  14403>>ASSIGN
     14404>>CALLBLT 14408>>ASSIGN  14409>>ASSIGN  14410>>ASSIGN  14417>>ASSIGN  14420>>ASSIGN  14421>>ASSIGN
     14422>>ASSIGN  14426>>ASSIGN  14434>>ASSIGN  14435>>ASSIGN  14441>>ASSIGN  14442>>ASSIGN  14476--IMP-PTR
     14497>>ASSIGN  14527--IMP-PTR 14553>>ASSIGN  14578--IMP-PTR 14593>>ASSIGN  14626--IMP-PTR 14652>>ASSIGN
     14689--IMP-PTR 14706>>ASSIGN  14730>>ASSIGN  14740>>ASSIGN  14741>>ASSIGN  14746>>ASSIGN  14748>>ASSIGN
     14783--IMP-PTR 14827>>ASSIGN  14836>>ASSIGN  14838>>ASSIGN  14839>>ASSIGN  14844>>ASSIGN  14845>>ASSIGN
     14854>>ASSIGN  14859>>ASSIGN  14861>>ASSIGN  14866>>ASSIGN  14877>>ASSIGN  14879>>ASSIGN  14880>>ASSIGN
     14885>>ASSIGN  14889>>ASSIGN  14896>>ASSIGN  14897>>ASSIGN  14923--IMP-PTR 14936>>ASSIGN  14937>>ASSIGN
     14973--IMP-PTR 15058>>ASSIGN  15094>>ASSIGN  15095>>ASSIGN  15096>>ASSIGN  15099>>ASSIGN  15110>>ASSIGN
     15114>>ASSIGN  15117>>ASSIGN  15120>>ASSIGN  15123>>ASSIGN  15124>>ASSIGN  15131>>IF      15131>>IF
     15131>>IF      15131>>IF      15138>>ASSIGN  15139>>ASSIGN  15142>>ASSIGN  15143>>ASSIGN  15144>>ASSIGN
     15147>>IF      15147>>IF      15147>>IF      15173--IMP-PTR 15185>>ASSIGN  15214--IMP-PTR 15228>>ASSIGN
     15234>>ASSIGN  15238>>ASSIGN  15241>>ASSIGN  15243>>ASSIGN  15276--IMP-PTR 15300>>ASSIGN  15301>>DOCASE
     15324>>ASSIGN  15325>>ASSIGN  15330>>ASSIGN  15338>>ASSIGN  15344>>ASSIGN  15360>>ASSIGN  15361>>ASSIGN
     15400--IMP-PTR 15466>>CALL    15467>>ASSIGN  15510--IMP-PTR 15531>>ASSIGN  15558>>ASSIGN  15566>>ASSIGN
     15580>>ASSIGN  15581>>ASSIGN  15597>>ASSIGN  15598>>ASSIGN  15614>>ASSIGN  15623>>ASSIGN  15624>>IF
     15625>>ASSIGN  15632>>ASSIGN  15639>>ASSIGN  15670--IMP-PTR 15694>>ASSIGN  15701>>ASSIGN  15719>>ASSIGN
     15730>>ASSIGN  15731>>ASSIGN  15732>>ASSIGN  15737>>ASSIGN  15775--IMP-PTR 15796>>ASSIGN  15803>>ASSIGN
PL6.E3A0      #001=DDS$BLD File=DDS$BLD.:E05TSI                                  TUE 07/29/97 14:11 Page:580
     15804>>ASSIGN  15825--IMP-PTR 15842>>ASSIGN  15844>>ASSIGN  15847>>ASSIGN  15850>>ASSIGN  15876--IMP-PTR
     16246--IMP-PTR 16368>>ASSIGN  16380>>ASSIGN  16381>>ASSIGN  16413>>CALL    16469--IMP-PTR 16591>>ASSIGN
     16598>>ASSIGN  16599>>ASSIGN  16646--IMP-PTR 16774>>ASSIGN  16792>>ASSIGN  16816>>ASSIGN  16845--IMP-PTR
     16882>>ASSIGN  16909--IMP-PTR 16931>>ASSIGN  16935>>ASSIGN  16961--IMP-PTR 16982>>ASSIGN  16996--IMP-PTR
     17028>>ASSIGN  17029>>ASSIGN  17056--IMP-PTR 17076>>ASSIGN  17103--IMP-PTR 17126>>ASSIGN  17127>>ASSIGN
     17128>>ASSIGN  17136>>ASSIGN  17141>>ASSIGN  17146>>ASSIGN  17150>>ASSIGN  17151>>ASSIGN  17154>>ASSIGN
     17191--IMP-PTR 17229>>ASSIGN  17232>>ASSIGN  17235>>ASSIGN  17236>>ASSIGN  17247>>CALLBLT 17253>>ASSIGN
     17265>>ASSIGN  17298--IMP-PTR 17316>>ASSIGN  17338--IMP-PTR 17387--IMP-PTR 17411>>ASSIGN  17418>>ASSIGN
     17422>>ASSIGN  17424>>ASSIGN  17425>>ASSIGN  17453--IMP-PTR 17473>>ASSIGN  17501--IMP-PTR 17526>>ASSIGN
     17529>>ASSIGN  17532>>ASSIGN  17533>>ASSIGN  17536>>ASSIGN  17537>>DOCASE  17564>>ASSIGN  17565>>ASSIGN
     17570>>ASSIGN  17581>>ASSIGN  17603>>ASSIGN  17604>>ASSIGN  17610>>ASSIGN  17611>>ASSIGN  17634--IMP-PTR
     17652>>ASSIGN  17661>>ASSIGN  17665>>ASSIGN  17677--IMP-PTR 17709>>ASSIGN  17710>>ASSIGN  17714>>ASSIGN
     17740--IMP-PTR 17756>>ASSIGN  17852--IMP-PTR 17890>>ASSIGN  17893>>ASSIGN  17895>>ASSIGN  17903>>ASSIGN
     17904>>ASSIGN  17910>>ASSIGN  17914>>ASSIGN  17916>>ASSIGN  17917>>IF      17949--IMP-PTR 17970>>ASSIGN
     17995--IMP-PTR 18015>>ASSIGN  18016>>ASSIGN  18017>>ASSIGN  18018>>ASSIGN  18019>>ASSIGN  18020>>ASSIGN
     18024>>ASSIGN  18030>>ASSIGN  18036>>ASSIGN  18038>>ASSIGN  18041>>ASSIGN  18044>>ASSIGN  18045>>ASSIGN
     18075--IMP-PTR 18110>>ASSIGN  18111>>ASSIGN  18139--IMP-PTR 18155>>ASSIGN  18166>>ASSIGN  18169>>ASSIGN
     18170>>ASSIGN  18176>>ASSIGN  18183>>ASSIGN  18185>>ASSIGN  18186>>ASSIGN  18190>>ASSIGN  18194>>ASSIGN
     18196>>ASSIGN  18197>>ASSIGN  18203>>ASSIGN  18204>>ASSIGN  18207>>ASSIGN  18209>>ASSIGN  18211>>ASSIGN
     18298--IMP-PTR 18328>>ASSIGN  18336>>ASSIGN  18340>>ASSIGN  18355>>ASSIGN  18358>>ASSIGN  18362>>ASSIGN
     18379>>ASSIGN  18381>>ASSIGN  18389>>ASSIGN  18390>>ASSIGN  18410>>ASSIGN  18411>>ASSIGN  18414>>ASSIGN
     18415>>ASSIGN  18423>>ASSIGN  18427>>ASSIGN  18431>>ASSIGN  18435>>ASSIGN  18437>>ASSIGN  18437>>ASSIGN
     18438>>ASSIGN  18447>>ASSIGN  18448>>ASSIGN  18463>>ASSIGN  18465>>ASSIGN  18466>>ASSIGN  18474>>ASSIGN
     18476>>ASSIGN  18477>>ASSIGN  18481>>ASSIGN  18487>>ASSIGN  18491>>ASSIGN  18497>>ASSIGN  18526--IMP-PTR
     18566--IMP-PTR 18586>>ASSIGN  18587>>ASSIGN  18588>>ASSIGN  18598>>ASSIGN
LCT$CMD IN PROCEDURE DDS$BLD_MLCT
     15775**DCL     15790--CALL
LCT$CMD.LCT# IN PROCEDURE DDS$BLD_MLCT
     15784**DCL     15785--REDEF   15796<<ASSIGN
LCT$CMD.LCT_NEW_VALUE IN PROCEDURE DDS$BLD_MLCT
     15786**DCL     15804<<ASSIGN
LCT$CMD.NEW_VALUE IN PROCEDURE DDS$BLD_MLCT
     15779**DCL     15803<<ASSIGN
LCT$CMD IN PROCEDURE DDS$BLD_SELCHAN
     17453**DCL     17468--CALL
LCT$CMD.CHAN# IN PROCEDURE DDS$BLD_SELCHAN
PL6.E3A0      #001=DDS$BLD File=DDS$BLD.:E05TSI                                  TUE 07/29/97 14:11 Page:581
     17463**DCL     17473<<ASSIGN
LCT$CMD.LCT# IN PROCEDURE DDS$BLD_SELCHAN
     17462**DCL     17463--REDEF
LET$CMD IN PROCEDURE DDS$BLD_LET
     15400**DCL     15452--CALL
LET$CMD.CONS.TANT IN PROCEDURE DDS$BLD_LET
     15420**DCL     15421--REDEF
LET$CMD.P.ADR IN PROCEDURE DDS$BLD_LET
     15431**DCL     15435--REDEF
LET$CMD.TEXTC IN PROCEDURE DDS$BLD_LET
     15409**DCL     15417--REDEF   15423--REDEF   15428--REDEF   15442--REDEF   15466<>CALL
LET$CMD.TEXTC.SIZE IN PROCEDURE DDS$BLD_LET
     15410**DCL     15411--REDEF
LET$CMD.TEXTC.TEXT IN PROCEDURE DDS$BLD_LET
     15412**DCL     15413--REDEF   15414--REDEF
LET$CMD.TYPE IN PROCEDURE DDS$BLD_LET
     15405**DCL     15467<<ASSIGN
LIBRARY IN PROCEDURE DDS$BLD_UNSHARE
     18073**DCL     18092<<ASSIGN  18096<<ASSIGN  18101<<ASSIGN  18105<<ASSIGN  18111>>ASSIGN
MACTIVE$CMD IN PROCEDURE DDS$BLD_MACTIVE
     15510**DCL     15529--CALL    15638--CALL
MACTIVE$CMD.AWDX IN PROCEDURE DDS$BLD_MACTIVE
     15518**DCL     15598<<ASSIGN
MACTIVE$CMD.DDESC IN PROCEDURE DDS$BLD_MACTIVE
     15514**DCL     15566<<ASSIGN  15580<<ASSIGN
MACTIVE$CMD.FORMAT IN PROCEDURE DDS$BLD_MACTIVE
     15523**DCL     15524--REDEF   15632<<ASSIGN  15639<<ASSIGN
MACTIVE$CMD.IGNPR IN PROCEDURE DDS$BLD_MACTIVE
     15517**DCL     15597<<ASSIGN
MACTIVE$CMD.INSTR IN PROCEDURE DDS$BLD_MACTIVE
     15515**DCL     15581<<ASSIGN
MACTIVE$CMD.LCT_NEW_VALUE IN PROCEDURE DDS$BLD_MACTIVE
     15524**DCL     15558<<ASSIGN
MACTIVE$CMD.NMSLASH IN PROCEDURE DDS$BLD_MACTIVE
     15516**DCL     15623<<ASSIGN
MACTIVE$CMD.SACT IN PROCEDURE DDS$BLD_MACTIVE
PL6.E3A0      #001=DDS$BLD File=DDS$BLD.:E05TSI                                  TUE 07/29/97 14:11 Page:582
     15520**DCL     15531<<ASSIGN
MACTIVE$CMD.SUBCODE IN PROCEDURE DDS$BLD_MACTIVE
     15525**DCL     15614<<ASSIGN  15624>>IF      15625<<ASSIGN
MODIFY$CMD IN PROCEDURE DDS$BLD_MODIFYDW
     15670**DCL     15693--CALL    15699--CALL
MODIFY$CMD.AWDX IN PROCEDURE DDS$BLD_MODIFYDW
     15677**DCL     15731<<ASSIGN
MODIFY$CMD.DDESC IN PROCEDURE DDS$BLD_MODIFYDW
     15674**DCL     15719<<ASSIGN
MODIFY$CMD.DW IN PROCEDURE DDS$BLD_MODIFYDW
     15678**DCL     15694<<ASSIGN
MODIFY$CMD.IGNPR IN PROCEDURE DDS$BLD_MODIFYDW
     15676**DCL     15730<<ASSIGN
MODIFY$CMD.INSTR IN PROCEDURE DDS$BLD_MODIFYDW
     15675**DCL     15732<<ASSIGN
MODIFY$CMD.NWARN IN PROCEDURE DDS$BLD_MODIFYDW
     15679**DCL     15737<<ASSIGN
MODIFY$CMD.SACT IN PROCEDURE DDS$BLD_MODIFYDW
     15681**DCL     15701<<ASSIGN
N$ IN PROCEDURE DDS$BLD_ACTIVE
     13608**DCL     13658<<ASSIGN  13659>>CALL    13663>>IF      13665>>CALL
N$ IN PROCEDURE DDS$BLD_EVAL
     14680**DCL     14711<<ASSIGN  14712>>ASSIGN  14717<>CALL    14733<>CALL    14735<>CALL    14743>>ASSIGN
N$ IN PROCEDURE DDS$BLD_KILL
     15270**DCL     15299<<ASSIGN  15300>>ASSIGN  15323>>CALL    15327>>IF      15329>>CALL    15336<<ASSIGN
     15336>>ASSIGN  15337>>IF      15338>>ASSIGN  15338>>ASSIGN  15343>>IF      15344>>ASSIGN  15357>>IF
     15359>>ASSIGN
N$ IN PROCEDURE DDS$BLD_MACTIVE
     15500**DCL     15541<<ASSIGN  15542>>ASSIGN  15549<<ASSIGN  15549>>ASSIGN  15550>>IF      15552<>CALL
     15567<>CALL    15583<>CALL    15586<>CALL    15590>>CALL    15603>>ASSIGN
N$ IN PROCEDURE DDS$BLD_MODIFYDW
     15687**DCL     15716<<ASSIGN  15718>>IF      15720>>IF      15723<>CALL    15725<>CALL    15736>>IF
     15739<>CALL
N$ IN PROCEDURE DDS$BLD_SHOW
     17495**DCL     17530<<ASSIGN  17531>>IF      17531>>IF      17531>>IF      17532>>ASSIGN  17536>>ASSIGN
     17563>>CALL    17567>>IF      17569>>CALL    17580>>IF      17581>>ASSIGN  17602>>ASSIGN
PL6.E3A0      #001=DDS$BLD File=DDS$BLD.:E05TSI                                  TUE 07/29/97 14:11 Page:583
N$ IN PROCEDURE DDS$BLD_UNFID
     17992**DCL     18022<<ASSIGN  18023>>IF      18026<<ASSIGN  18029>>IF      18032<<ASSIGN  18034>>IF
     18035>>IF      18037>>CALL    18039>>IF      18040>>CALL    18045>>ASSIGN  18045>>ASSIGN
N$ IN PROCEDURE DDS$BLD_XEQ
     18564**DCL     18582<<ASSIGN  18583>>IF      18585<>CALL    18591<>CALL
NAME$CMD IN PROCEDURE DDS$BLD_NAME
     15825**DCL     15839--CALL
NAME$CMD.ENTDEFS IN PROCEDURE DDS$BLD_NAME
     15833**DCL     15842<<ASSIGN  15844<<ASSIGN
NAME$CMD.TEXTC IN PROCEDURE DDS$BLD_NAME
     15834**DCL     15847<<ASSIGN  15850<<ASSIGN
NC$ IN PROCEDURE DDS$BLD_ALIB
     13697**DCL     13714<<ASSIGN  13715>>ASSIGN
NC$ IN PROCEDURE DDS$BLD_ANLZ
     13802**DCL     13838<<ASSIGN  13839>>ASSIGN  13849>>ASSIGN  13856>>ASSIGN  13863>>DOINDEX 13864>>ASSIGN
NC$ IN PROCEDURE DDS$BLD_DEBUG
     14325**DCL     14361<<ASSIGN  14362>>ASSIGN  14370<>CALL    14377>>ASSIGN  14381>>ASSIGN  14415>>ASSIGN
     14418>>ASSIGN  14427>>DOINDEX 14428>>ASSIGN
NC$ IN PROCEDURE DDS$BLD_FIND
     14776**DCL     14823<<ASSIGN  14824>>ASSIGN  14830<>CALL    14837<>CALL    14846>>ASSIGN  14850>>IF
     14852>>ASSIGN  14860<>CALL    14867>>ASSIGN  14883>>IF      14886>>ASSIGN  14886>>ASSIGN  14888<>CALL
NC$ IN PROCEDURE DDS$BLD_GO
     14962**DCL     15061<<ASSIGN  15062>>ASSIGN  15070>>ASSIGN  15100<>CALL
NC$ IN PROCEDURE DDS$BLD_HISTORY
     15210**DCL     15231<<ASSIGN  15232>>ASSIGN  15237<>CALL
NC$ IN PROCEDURE DDS$BLD_KILL
     15273**DCL     15359<<ASSIGN  15360>>ASSIGN  15360>>ASSIGN
NC$ IN PROCEDURE DDS$BLD_MLCT
     15771**DCL     15792<<ASSIGN  15793<>CALL    15799<<ASSIGN  15800<>CALL
NC$ IN PROCEDURE DDS$BLD_ONCALLS
     16640**DCL     16771<<ASSIGN  16772>>ASSIGN
NC$ IN PROCEDURE DDS$BLD_PMD
     16907**DCL     16933<<ASSIGN  16934>>ASSIGN
NC$ IN PROCEDURE DDS$BLD_QUIT
     17010**DCL     17024<<ASSIGN  17025>>ASSIGN  17029>>ASSIGN  17029>>ASSIGN
NC$ IN PROCEDURE DDS$BLD_RUM
PL6.E3A0      #001=DDS$BLD File=DDS$BLD.:E05TSI                                  TUE 07/29/97 14:11 Page:584
     17182**DCL     17218<<ASSIGN  17219>>ASSIGN  17222>>ASSIGN  17238>>ASSIGN  17256>>ASSIGN
NC$ IN PROCEDURE DDS$BLD_SCHEMA
     17378**DCL     17407<<ASSIGN  17408>>ASSIGN  17412<>CALL    17423>>ASSIGN
NC$ IN PROCEDURE DDS$BLD_SELCHAN
     17449**DCL     17469<<ASSIGN  17470<>CALL
NC$ IN PROCEDURE DDS$BLD_SHOW
     17498**DCL     17602<<ASSIGN  17603>>ASSIGN  17603>>ASSIGN
NC$ IN PROCEDURE DDS$BLD_STEP
     17631**DCL     17656<<ASSIGN  17657>>ASSIGN  17659<>CALL
NC$ IN PROCEDURE DDS$BLD_STOP
     17691**DCL     17705<<ASSIGN  17706>>ASSIGN  17710>>ASSIGN  17710>>ASSIGN
NC$ IN PROCEDURE DDS$BLD_TRACE
     17782**DCL     17874<<ASSIGN  17875>>ASSIGN  17896<<ASSIGN  17896>>ASSIGN  17897>>ASSIGN  17904>>ASSIGN
     17904>>ASSIGN
NC$ IN PROCEDURE DDS$BLD_TSA
     17945**DCL     17966<<ASSIGN  17967<>CALL
NC$ IN PROCEDURE DDS$BLD_UPDATE
     18133**DCL     18157<<ASSIGN  18158>>ASSIGN  18164<<ASSIGN  18167<<ASSIGN  18167>>ASSIGN  18168>>CALL
     18173>>IF      18175>>CALL    18184>>CALL    18189>>CALL    18195>>CALL    18200>>IF      18202>>CALL
     18207>>ASSIGN  18209>>ASSIGN
NCC$ IN PROCEDURE DDS$BLD_ANLZ
     13804**DCL     13864<<ASSIGN  13865>>ASSIGN  13868<>CALL    13876<<ASSIGN  13876>>ASSIGN  13877>>ASSIGN
NCC$ IN PROCEDURE DDS$BLD_DEBUG
     14327**DCL     14377<<ASSIGN  14378>>ASSIGN  14381<<ASSIGN  14382>>ASSIGN  14383<<ASSIGN  14383>>ASSIGN
     14384>>ASSIGN  14393>>ASSIGN  14394<<ASSIGN  14394>>ASSIGN  14395>>ASSIGN  14415<<ASSIGN  14416<>CALL
     14418<<ASSIGN  14419>>ASSIGN  14428<<ASSIGN  14429>>ASSIGN  14432<<ASSIGN  14432>>ASSIGN  14433>>ASSIGN
     14439<<ASSIGN  14439>>ASSIGN  14440>>ASSIGN
NCC$ IN PROCEDURE DDS$BLD_FIND
     14777**DCL     14846<<ASSIGN  14847<>CALL    14852<<ASSIGN  14853<>CALL    14867<<ASSIGN  14868>>ASSIGN
     14871<>CALL    14878<>CALL
NCC$ IN PROCEDURE DDS$BLD_GO
     14964**DCL     15070<<ASSIGN  15071>>IF      15073<<ASSIGN  15073>>ASSIGN  15074>>IF      15076<<ASSIGN
     15076>>ASSIGN  15077>>IF      15079>>ASSIGN
NCC$ IN PROCEDURE DDS$BLD_OC
     16056**DCL     16345<<ASSIGN  16346>>ASSIGN  16349<<ASSIGN  16349>>ASSIGN  16350>>ASSIGN  16351<>CALL
     16353<>CALL    16375<>CALL    16378<<ASSIGN  16378>>ASSIGN  16379<>CALL
PL6.E3A0      #001=DDS$BLD File=DDS$BLD.:E05TSI                                  TUE 07/29/97 14:11 Page:585
NCC$ IN PROCEDURE DDS$BLD_ONN
     16466**DCL     16578<<ASSIGN  16579>>ASSIGN  16582<<ASSIGN  16582>>ASSIGN  16583>>ASSIGN  16584<>CALL
     16596<<ASSIGN  16596>>ASSIGN  16597<>CALL
NCC$ IN PROCEDURE DDS$BLD_RUM
     17185**DCL     17238<<ASSIGN  17239<>CALL    17243>>ASSIGN  17256<<ASSIGN  17257<>CALL    17262>>ASSIGN
NCD IN PROCEDURE DDS$BLD_ANLZ
     13805**DCL     13865<<ASSIGN  13866>>IF      13874>>IF
NCD IN PROCEDURE DDS$BLD_DEBUG
     14326**DCL     14382<<ASSIGN  14391>>IF      14393<<ASSIGN  14397>>IF      14416<>CALL    14417>>ASSIGN
     14429<<ASSIGN  14430>>IF      14437>>IF
NCD IN PROCEDURE DDS$BLD_EVAL
     14685**DCL     14712<<ASSIGN  14713>>IF      14727>>IF
NCD IN PROCEDURE DDS$BLD_FIND
     14778**DCL     14824<<ASSIGN  14826>>IF      14828>>IF      14834>>IF      14841>>IF      14857>>IF
     14863>>IF      14868<<ASSIGN  14869>>IF      14875>>IF
NCD IN PROCEDURE DDS$BLD_MACTIVE
     15501**DCL     15542<<ASSIGN  15543>>IF      15576>>IF      15601>>IF      15610>>IF      15610>>IF
     15614>>ASSIGN  15616>>IF      15621>>IF
NCD IN PROCEDURE DDS$BLD_STEP
     17632**DCL     17657<<ASSIGN  17658>>IF      17662>>ASSIGN
NCMD$
      9603**DCL     13238<<ASSIGN  13654>>IF      13658>>ASSIGN  13712>>ASSIGN  13714>>ASSIGN  13763>>IF
     13766>>ASSIGN  13833>>ASSIGN  13838>>ASSIGN  14078>>DOINDEX 14079>>ASSIGN  14356>>ASSIGN  14361>>ASSIGN
     14491>>ASSIGN  14499>>CALL    14545>>CALL    14591>>ASSIGN  14652>>ASSIGN  14652>>ASSIGN  14709>>ASSIGN
     14711>>ASSIGN  14818>>ASSIGN  14823>>ASSIGN  14936>>ASSIGN  14937>>ASSIGN  15059>>ASSIGN  15061>>ASSIGN
     15185>>ASSIGN  15229>>ASSIGN  15231>>ASSIGN  15299>>ASSIGN  15454>>CALL    15466>>CALL    15537>>ASSIGN
     15541>>ASSIGN  15702>>ASSIGN  15704>>CALL    15716>>ASSIGN  15791>>ASSIGN  15792>>ASSIGN  15799>>ASSIGN
     15841>>IF      15846>>IF      15847>>ASSIGN  15847>>ASSIGN  16344>>DOINDEX 16345>>ASSIGN  16577>>DOINDEX
     16578>>ASSIGN  16769>>ASSIGN  16771>>ASSIGN  16862>>IF      16874>>CALL    16929>>ASSIGN  16933>>ASSIGN
     16976>>ASSIGN  17022>>ASSIGN  17024>>ASSIGN  17074>>IF      17075>>CALL    17121>>ASSIGN  17123>>ASSIGN
     17216>>ASSIGN  17218>>ASSIGN  17315>>CALL    17405>>ASSIGN  17407>>ASSIGN  17469>>ASSIGN  17524>>IF
     17530>>ASSIGN  17533>>ASSIGN  17533>>ASSIGN  17609>>IF      17610>>ASSIGN  17611>>ASSIGN  17611>>ASSIGN
     17654>>IF      17656>>ASSIGN  17703>>ASSIGN  17705>>ASSIGN  17755>>IF      17756>>ASSIGN  17872>>ASSIGN
     17874>>ASSIGN  17962>>IF      17966>>ASSIGN  18021>>IF      18022>>ASSIGN  18025>>IF      18026>>ASSIGN
     18031>>IF      18032>>ASSIGN  18088>>ASSIGN  18098>>ASSIGN  18157>>ASSIGN  18164>>ASSIGN  18329>>IF
     18331>>ASSIGN  18341>>ASSIGN  18363>>ASSIGN  18387>>CALL    18394>>ASSIGN  18445>>ASSIGN  18460>>ASSIGN
PL6.E3A0      #001=DDS$BLD File=DDS$BLD.:E05TSI                                  TUE 07/29/97 14:11 Page:586
     18475>>IF      18477>>ASSIGN  18482>>ASSIGN  18492>>ASSIGN  18582>>ASSIGN
ND_PTR IN PROCEDURE DDS$SAVE_L6INSTR_PTR
     18608**DCL     18606--PROC    18656>>ASSIGN
NNC$ IN PROCEDURE DDS$BLD_AT
     13924**DCL     14079<<ASSIGN  14080>>ASSIGN  14083<>CALL    14117<<ASSIGN  14117>>ASSIGN  14118<>CALL
NOTIMPFPRG IN PROCEDURE DDS$BLD_OA
     16013**LABEL   15973--GOTO
NOTIMPFPRG IN PROCEDURE DDS$BLD_ONCALLS
     16824**LABEL   16762--GOTO
NOTIMPFPRG IN PROCEDURE DDS$BLD_ONN
     16605**LABEL   16561--GOTO
NSB IN PROCEDURE DDS$BLD_ALIB
     13694**DCL     13712<<ASSIGN  13713>>DOINDEX
NSB IN PROCEDURE DDS$BLD_ANLZ
     13797**DCL     13833<<ASSIGN  13837>>DOINDEX
NSB IN PROCEDURE DDS$BLD_DEBUG
     14322**DCL     14356<<ASSIGN  14357>>IF      14360>>DOINDEX
NSB IN PROCEDURE DDS$BLD_EVAL
     14683**DCL     14709<<ASSIGN  14710>>DOINDEX
NSB IN PROCEDURE DDS$BLD_GO
     14959**DCL     15059<<ASSIGN  15060>>DOINDEX
NSB IN PROCEDURE DDS$BLD_HISTORY
     15207**DCL     15229<<ASSIGN  15230>>DOINDEX
NSB IN PROCEDURE DDS$BLD_ONCALLS
     16637**DCL     16769<<ASSIGN  16770>>DOINDEX
NSB IN PROCEDURE DDS$BLD_PMD
     16904**DCL     16929<<ASSIGN  16930>>IF      16932>>DOINDEX
NSB IN PROCEDURE DDS$BLD_QUIT
     17007**DCL     17022<<ASSIGN  17023>>DOINDEX
NSB IN PROCEDURE DDS$BLD_REPORT
     17098**DCL     17121<<ASSIGN  17122>>DOINDEX
NSB IN PROCEDURE DDS$BLD_RUM
     17177**DCL     17216<<ASSIGN  17217>>DOINDEX
NSB IN PROCEDURE DDS$BLD_SCHEMA
     17375**DCL     17405<<ASSIGN  17406>>DOINDEX
NSB IN PROCEDURE DDS$BLD_STOP
PL6.E3A0      #001=DDS$BLD File=DDS$BLD.:E05TSI                                  TUE 07/29/97 14:11 Page:587
     17688**DCL     17703<<ASSIGN  17704>>DOINDEX
NSB IN PROCEDURE DDS$BLD_TRACE
     17779**DCL     17872<<ASSIGN  17873>>DOINDEX
NSB IN PROCEDURE DDS$BLD_UNSHARE
     18069**DCL     18088<<ASSIGN  18089>>IF      18097>>DOINDEX
NSUB IN PROCEDURE DDS$BLD_FIND
     14774**DCL     14818<<ASSIGN  14819>>ASSIGN  14820>>ASSIGN  14821>>DOINDEX
NSUB IN PROCEDURE DDS$BLD_MACTIVE
     15499**DCL     15537<<ASSIGN  15540>>DOINDEX 15604>>IF
NSUB IN PROCEDURE DDS$BLD_MLCT
     15770**DCL     15791<<ASSIGN  15797>>IF
NSUB IN PROCEDURE DDS$BLD_MODIFYDW
     15685**DCL     15702<<ASSIGN  15715>>DOINDEX
NUM IN PROCEDURE DDS$BLD_DISP
     14576**DCL     14592<<ASSIGN  14593>>ASSIGN  14594>>DOINDEX
NVREF$ IN PROCEDURE DDS$BLD_DISP
     14574**DCL     14591<<ASSIGN  14592>>ASSIGN  14596>>ASSIGN
OC$CMD IN PROCEDURE DDS$BLD_OC
     16246**DCL     16367--CALL
OC$CMD.BYPASS_COUNT IN PROCEDURE DDS$BLD_OC
     16265**DCL     16380<<ASSIGN  16413<>CALL
OC$CMD.CURRENT_COUNT IN PROCEDURE DDS$BLD_OC
     16266**DCL     16381<<ASSIGN
OC$CMD.NODE IN PROCEDURE DDS$BLD_OC
     16261**DCL     16368<<ASSIGN
OC$CMD.UNUSED IN PROCEDURE DDS$BLD_OC
     16250**DCL     16251--REDEF   16255--REDEF
ON IN PROCEDURE DDS$BLD_TRACE
     17787**DCL     17870<<ASSIGN  17877<<ASSIGN  17909>>IF      17913>>IF
ONABORT$CMD IN PROCEDURE DDS$BLD_OA
     15876**DCL     15990--CALL
ONABORT$CMD.UNUSED IN PROCEDURE DDS$BLD_OA
     15880**DCL     15881--REDEF   15885--REDEF
ONCALLS$CMD IN PROCEDURE DDS$BLD_ONCALLS
     16646**DCL     16768--CALL
ONCALLS$CMD.UNUSED IN PROCEDURE DDS$BLD_ONCALLS
PL6.E3A0      #001=DDS$BLD File=DDS$BLD.:E05TSI                                  TUE 07/29/97 14:11 Page:588
     16650**DCL     16651--REDEF   16655--REDEF
ONCALLS$CMD.XTERNAL IN PROCEDURE DDS$BLD_ONCALLS
     16662**DCL     16774<<ASSIGN  16792>>ASSIGN  16816>>ASSIGN
ONN$CMD IN PROCEDURE DDS$BLD_ONN
     16469**DCL     16590--CALL
ONN$CMD.BYPASS_COUNT IN PROCEDURE DDS$BLD_ONN
     16488**DCL     16598<<ASSIGN
ONN$CMD.CURRENT_COUNT IN PROCEDURE DDS$BLD_ONN
     16489**DCL     16599<<ASSIGN
ONN$CMD.NODE IN PROCEDURE DDS$BLD_ONN
     16484**DCL     16591<<ASSIGN
ONN$CMD.UNUSED IN PROCEDURE DDS$BLD_ONN
     16473**DCL     16474--REDEF   16478--REDEF
PLUGH$CMD IN PROCEDURE DDS$BLD_PLUGH
     16845**DCL     16861--CALL
PLUGH$CMD.DDESC IN PROCEDURE DDS$BLD_PLUGH
     16853**DCL     16882<<ASSIGN
PMD$CMD IN PROCEDURE DDS$BLD_PMD
     16909**DCL     16928--CALL
PMD$CMD.L6_OPTIONS IN PROCEDURE DDS$BLD_PMD
     16916**DCL     16917--REDEF
PMD$CMD.OPTARRY IN PROCEDURE DDS$BLD_PMD
     16923**DCL     16924--REDEF   16931<<ASSIGN  16935<<ASSIGN
POB.CODE
      9628**DCL     13715>>ASSIGN  13839>>ASSIGN  13865>>ASSIGN  14080>>ASSIGN  14362>>ASSIGN  14382>>ASSIGN
     14393>>ASSIGN  14429>>ASSIGN  14712>>ASSIGN  14743>>ASSIGN  14824>>ASSIGN  14868>>ASSIGN  14936>>ASSIGN
     14937>>ASSIGN  15062>>ASSIGN  15071>>IF      15074>>IF      15077>>IF      15232>>ASSIGN  15300>>ASSIGN
     15344>>ASSIGN  15542>>ASSIGN  15550>>IF      15603>>ASSIGN  15718>>IF      15720>>IF      15736>>IF
     15841>>IF      16346>>ASSIGN  16579>>ASSIGN  16772>>ASSIGN  16934>>ASSIGN  17025>>ASSIGN  17123>>ASSIGN
     17219>>ASSIGN  17408>>ASSIGN  17531>>IF      17531>>IF      17531>>IF      17532>>ASSIGN  17536>>ASSIGN
     17581>>ASSIGN  17610>>ASSIGN  17657>>ASSIGN  17706>>ASSIGN  17756>>ASSIGN  17875>>ASSIGN  18023>>IF
     18029>>IF      18035>>IF      18098>>ASSIGN  18158>>ASSIGN  18200>>IF      18331>>ASSIGN  18348>>ASSIGN
     18370>>IF      18420>>ASSIGN  18461>>ASSIGN  18477>>ASSIGN  18483>>ASSIGN  18493>>ASSIGN  18583>>IF
POB.NSB
      9632**DCL     13654>>IF      13663>>IF      13712>>ASSIGN  13763>>IF      13833>>ASSIGN  13863>>DOINDEX
     14078>>DOINDEX 14356>>ASSIGN  14427>>DOINDEX 14592>>ASSIGN  14709>>ASSIGN  14818>>ASSIGN  14850>>IF
PL6.E3A0      #001=DDS$BLD File=DDS$BLD.:E05TSI                                  TUE 07/29/97 14:11 Page:589
     14883>>IF      15059>>ASSIGN  15229>>ASSIGN  15327>>IF      15343>>IF      15357>>IF      15537>>ASSIGN
     15702>>ASSIGN  15791>>ASSIGN  15846>>IF      16344>>DOINDEX 16577>>DOINDEX 16769>>ASSIGN  16862>>IF
     16929>>ASSIGN  17022>>ASSIGN  17074>>IF      17121>>ASSIGN  17216>>ASSIGN  17405>>ASSIGN  17524>>IF
     17567>>IF      17580>>IF      17609>>IF      17654>>IF      17703>>ASSIGN  17755>>IF      17872>>ASSIGN
     17962>>IF      18021>>IF      18025>>IF      18031>>IF      18039>>IF      18088>>ASSIGN  18173>>IF
     18329>>IF      18343>>IF      18364>>IF      18417>>IF      18417>>IF      18420>>ASSIGN  18475>>IF
POB.SUBLK$
      9653**DCL     13658>>ASSIGN  13659<>CALL    13665<>CALL    13714>>ASSIGN  13766>>ASSIGN  13766>>ASSIGN
     13838>>ASSIGN  13849>>ASSIGN  13856>>ASSIGN  13864>>ASSIGN  13876>>ASSIGN  13877>>ASSIGN  14079>>ASSIGN
     14117>>ASSIGN  14361>>ASSIGN  14377>>ASSIGN  14378>>ASSIGN  14381>>ASSIGN  14383>>ASSIGN  14384>>ASSIGN
     14394>>ASSIGN  14395>>ASSIGN  14415>>ASSIGN  14418>>ASSIGN  14419>>ASSIGN  14428>>ASSIGN  14432>>ASSIGN
     14433>>ASSIGN  14439>>ASSIGN  14440>>ASSIGN  14491>>ASSIGN  14491>>ASSIGN  14499<>CALL    14545<>CALL
     14591>>ASSIGN  14596>>ASSIGN  14652>>ASSIGN  14652>>ASSIGN  14652>>ASSIGN  14652>>ASSIGN  14711>>ASSIGN
     14743>>ASSIGN  14823>>ASSIGN  14846>>ASSIGN  14852>>ASSIGN  14867>>ASSIGN  14886<<ASSIGN  14886>>ASSIGN
     14936>>ASSIGN  14937>>ASSIGN  14937>>ASSIGN  15061>>ASSIGN  15070>>ASSIGN  15073>>ASSIGN  15076>>ASSIGN
     15079>>ASSIGN  15185>>ASSIGN  15185>>ASSIGN  15231>>ASSIGN  15299>>ASSIGN  15323<>CALL    15329<>CALL
     15336>>ASSIGN  15336>>ASSIGN  15344>>ASSIGN  15359>>ASSIGN  15454<>CALL    15466<>CALL    15541>>ASSIGN
     15549>>ASSIGN  15549>>ASSIGN  15549>>ASSIGN  15590<>CALL    15603>>ASSIGN  15704<>CALL    15716>>ASSIGN
     15792>>ASSIGN  15799>>ASSIGN  15841>>IF      15847>>ASSIGN  15847>>ASSIGN  15847>>ASSIGN  15847>>ASSIGN
     16345>>ASSIGN  16349>>ASSIGN  16378>>ASSIGN  16578>>ASSIGN  16582>>ASSIGN  16596>>ASSIGN  16771>>ASSIGN
     16874<>CALL    16933>>ASSIGN  16976>>ASSIGN  16976>>ASSIGN  17024>>ASSIGN  17075<>CALL    17123>>ASSIGN
     17218>>ASSIGN  17222>>ASSIGN  17238>>ASSIGN  17243>>ASSIGN  17256>>ASSIGN  17262>>ASSIGN  17315<>CALL
     17407>>ASSIGN  17423>>ASSIGN  17469>>ASSIGN  17530>>ASSIGN  17533>>ASSIGN  17533>>ASSIGN  17533>>ASSIGN
     17533>>ASSIGN  17563<>CALL    17569<>CALL    17581>>ASSIGN  17602>>ASSIGN  17610>>ASSIGN  17611>>ASSIGN
     17611>>ASSIGN  17611>>ASSIGN  17611>>ASSIGN  17656>>ASSIGN  17705>>ASSIGN  17756>>ASSIGN  17874>>ASSIGN
     17896>>ASSIGN  17966>>ASSIGN  18022>>ASSIGN  18026>>ASSIGN  18032>>ASSIGN  18037<>CALL    18040<>CALL
     18045>>ASSIGN  18045>>ASSIGN  18098>>ASSIGN  18157>>ASSIGN  18164>>ASSIGN  18167>>ASSIGN  18168<>CALL
     18175<>CALL    18184<>CALL    18189<>CALL    18195<>CALL    18200>>IF      18202<>CALL    18207>>ASSIGN
     18207>>ASSIGN  18209>>ASSIGN  18209>>ASSIGN  18331>>ASSIGN  18341>>ASSIGN  18347>>ASSIGN  18363>>ASSIGN
     18369>>ASSIGN  18387>>CALL    18387<>CALL    18394>>ASSIGN  18398<>CALL    18402<>CALL    18420>>ASSIGN
     18445>>ASSIGN  18445>>ASSIGN  18445>>ASSIGN  18460>>ASSIGN  18460>>ASSIGN  18475>>IF      18477>>ASSIGN
     18477>>ASSIGN  18482>>ASSIGN  18482>>ASSIGN  18492>>ASSIGN  18492>>ASSIGN  18582>>ASSIGN
PROGRAM IN PROCEDURE DDS$BLD_UNSHARE
     18072**DCL     18091<<ASSIGN  18095<<ASSIGN  18102<<ASSIGN  18107<<ASSIGN  18110>>ASSIGN
PROMPT$CMD IN PROCEDURE DDS$BLD_PROMPT
     16961**DCL     16975--CALL
PL6.E3A0      #001=DDS$BLD File=DDS$BLD.:E05TSI                                  TUE 07/29/97 14:11 Page:590
PROMPT$CMD.TEXTC IN PROCEDURE DDS$BLD_PROMPT
     16970**DCL     16982<<ASSIGN
QUEST IN PROCEDURE DDS$BLD_NAME
     15820**DCL     15850>>ASSIGN
QUIT$CMD IN PROCEDURE DDS$BLD_QUIT
     16996**DCL     17020--CALL
QUIT$CMD.FPRG IN PROCEDURE DDS$BLD_QUIT
     17000**DCL     17028<<ASSIGN
QUIT$CMD.FPRG_RES IN PROCEDURE DDS$BLD_QUIT
     17005**DCL     17029<<ASSIGN
RANGE$CMD IN PROCEDURE DDS$BLD_RANGE
     17056**DCL     17072--CALL
RANGE$CMD.ID IN PROCEDURE DDS$BLD_RANGE
     17060**DCL     17076<<ASSIGN
REPORT$CMD IN PROCEDURE DDS$BLD_REPORT
     17103**DCL     17119--CALL
REPORT$CMD.COMPILER IN PROCEDURE DDS$BLD_REPORT
     17107**DCL     17151<<ASSIGN
REPORT$CMD.COMPILER_SPF IN PROCEDURE DDS$BLD_REPORT
     17108**DCL     17150<<ASSIGN
REPORT$CMD.DEFAULT IN PROCEDURE DDS$BLD_REPORT
     17109**DCL     17154<<ASSIGN
REPORT$CMD.LINE IN PROCEDURE DDS$BLD_REPORT
     17111**DCL     17127<<ASSIGN  17141<<ASSIGN
REPORT$CMD.OFFSET IN PROCEDURE DDS$BLD_REPORT
     17110**DCL     17126<<ASSIGN  17136<<ASSIGN
REPORT$CMD.TYPE IN PROCEDURE DDS$BLD_REPORT
     17112**DCL     17128<<ASSIGN  17146<<ASSIGN
RET IN PROCEDURE DDS$BLD_AT
     14162**LABEL   14152--GOTO
RETN IN PROCEDURE DDS$BLD_SHOW
     17614**LABEL   17527--GOTO
RUM$CMD IN PROCEDURE DDS$BLD_RUM
     17191**DCL     17215--CALL
RUM$CMD.BUFFERS IN PROCEDURE DDS$BLD_RUM
     17199**DCL     17265<<ASSIGN
PL6.E3A0      #001=DDS$BLD File=DDS$BLD.:E05TSI                                  TUE 07/29/97 14:11 Page:591
RUM$CMD.CODE IN PROCEDURE DDS$BLD_RUM
     17200**DCL     17253<<ASSIGN
RUM$CMD.FID IN PROCEDURE DDS$BLD_RUM
     17210**DCL     17229<<ASSIGN
RUM$CMD.FID.TEXT IN PROCEDURE DDS$BLD_RUM
     17212**DCL     17224--IF
RUM$CMD.GOTUTS IN PROCEDURE DDS$BLD_RUM
     17195**DCL     17196--REDEF   17235<<ASSIGN
RUM$CMD.NUTS IN PROCEDURE DDS$BLD_RUM
     17197**DCL     17232<<ASSIGN
RUM$CMD.UTS IN PROCEDURE DDS$BLD_RUM
     17204**DCL     17205--REDEF   17236<<ASSIGN  17247<<CALLBLT
SAD$CMD IN PROCEDURE DDS$BLD_SAD
     17298**DCL     17314--CALL
SAD$CMD.ID IN PROCEDURE DDS$BLD_SAD
     17302**DCL     17316<<ASSIGN
SAVE$CMD IN PROCEDURE DDS$BLD_SAVE
     17338**DCL     17366--CALL
SAVE$CMD.UNUSED IN PROCEDURE DDS$BLD_SAVE
     17342**DCL     17343--REDEF   17347--REDEF
SCHEMA$CMD IN PROCEDURE DDS$BLD_SCHEMA
     17387**DCL     17404--CALL
SCHEMA$CMD.FID.SIZE IN PROCEDURE DDS$BLD_SCHEMA
     17399**DCL     17424<<ASSIGN
SCHEMA$CMD.FID.TEXT IN PROCEDURE DDS$BLD_SCHEMA
     17400**DCL     17425<<ASSIGN
SCHEMA$CMD.GOTFID IN PROCEDURE DDS$BLD_SCHEMA
     17393**DCL     17422<<ASSIGN
SCHEMA$CMD.GOTPOS IN PROCEDURE DDS$BLD_SCHEMA
     17392**DCL     17411<<ASSIGN
SCHEMA$CMD.POSITION IN PROCEDURE DDS$BLD_SCHEMA
     17391**DCL     17418<<ASSIGN
SETUP IN PROCEDURE DDS$BLD_ACTIVE
     13650**LABEL   13627--GOTO    13632--GOTO    13637--GOTO    13642--GOTO    13647--GOTO
SETUP IN PROCEDURE DDS$BLD_BREAK
     14300**LABEL   14213--GOTO    14218--GOTO    14223--GOTO    14228--GOTO    14233--GOTO    14238--GOTO
PL6.E3A0      #001=DDS$BLD File=DDS$BLD.:E05TSI                                  TUE 07/29/97 14:11 Page:592
     14243--GOTO    14248--GOTO    14253--GOTO    14258--GOTO    14263--GOTO    14268--GOTO    14273--GOTO
     14278--GOTO    14283--GOTO    14288--GOTO    14293--GOTO
SETUP IN PROCEDURE DDS$BLD_FIND
     14817**LABEL   14810--GOTO
SETUP IN PROCEDURE DDS$BLD_OA
     15990**LABEL   15974--GOTO
SETUP IN PROCEDURE DDS$BLD_ONCALLS
     16768**LABEL   16757--GOTO
SHOW$CMD IN PROCEDURE DDS$BLD_SHOW
     17501**DCL     17523--CALL
SHOW$CMD.DESTCODE IN PROCEDURE DDS$BLD_SHOW
     17517**DCL     17529<<ASSIGN  17532<<ASSIGN  17610<<ASSIGN
SHOW$CMD.FID IN PROCEDURE DDS$BLD_SHOW
     17518**DCL     17533<<ASSIGN  17611<<ASSIGN
SHOW$CMD.FPRG IN PROCEDURE DDS$BLD_SHOW
     17511**DCL     17604<<ASSIGN
SHOW$CMD.FPRG_RES IN PROCEDURE DDS$BLD_SHOW
     17513**DCL     17603<<ASSIGN
SHOW$CMD.ID_FROM IN PROCEDURE DDS$BLD_SHOW
     17506**DCL     17564<<ASSIGN  17581<<ASSIGN
SHOW$CMD.ID_TO IN PROCEDURE DDS$BLD_SHOW
     17507**DCL     17565<<ASSIGN  17570<<ASSIGN
SHOW$CMD.TYPE IN PROCEDURE DDS$BLD_SHOW
     17505**DCL     17526<<ASSIGN  17536<<ASSIGN  17537>>DOCASE
SILENT IN PROCEDURE DDS$BLD_TRACE
     17786**DCL     17871<<ASSIGN  17889<<ASSIGN  17909>>IF      17913>>IF
SIZE IN PROCEDURE DDS$BLD_ANLZ
     13800**DCL     13850<<ASSIGN  13851>>IF      13857<<ASSIGN  13858>>IF
SIZE IN PROCEDURE DDS$BLD_AT
     13923**DCL     14172<>CALL    14173>>ASSIGN  14175>>CALL
SIZE IN PROCEDURE DDS$BLD_DEBUG
     14329**DCL     14385<<ASSIGN  14386>>IF
SIZE IN PROCEDURE DDS$BLD_OC
     16055**DCL     16433<>CALL    16434>>ASSIGN  16436>>CALL
SIZE IN PROCEDURE DDS$BLD_RUM
     17180**DCL     17223<<ASSIGN  17224>>IF
PL6.E3A0      #001=DDS$BLD File=DDS$BLD.:E05TSI                                  TUE 07/29/97 14:11 Page:593
STEP$CMD IN PROCEDURE DDS$BLD_STEP
     17634**DCL     17649--CALL
STEP$CMD.ID IN PROCEDURE DDS$BLD_STEP
     17638**DCL     17665<<ASSIGN
STEP$CMD.SACT IN PROCEDURE DDS$BLD_STEP
     17644**DCL     17652<<ASSIGN
STEP$CMD.SETTYPE IN PROCEDURE DDS$BLD_STEP
     17639**DCL     17661<<ASSIGN
STOP$CMD IN PROCEDURE DDS$BLD_STOP
     17677**DCL     17701--CALL
STOP$CMD.FPRG IN PROCEDURE DDS$BLD_STOP
     17681**DCL     17709<<ASSIGN  17714<<ASSIGN
STOP$CMD.FPRG_RES IN PROCEDURE DDS$BLD_STOP
     17686**DCL     17710<<ASSIGN
SUBSX IN PROCEDURE DDS$BLD_FIND
     14781**DCL     14820<<ASSIGN  14865<<ASSIGN  14894>>IF      14895>>IF
SYM.COUNT
      9689**DCL      9692--IMP-SIZ 15360>>ASSIGN  17029>>ASSIGN  17603>>ASSIGN  17710>>ASSIGN  18466>>ASSIGN
SYM.TEXT
      9692**DCL     15360>>ASSIGN  17029>>ASSIGN  17603>>ASSIGN  17710>>ASSIGN  18466>>ASSIGN
SYNERR IN PROCEDURE DDS$BLD_MACTIVE
     15644**LABEL   15613--GOTO
SYNTAX$CMD IN PROCEDURE DDS$BLD_SYNTAX
     17740**DCL     17754--CALL
SYNTAX$CMD.ID IN PROCEDURE DDS$BLD_SYNTAX
     17744**DCL     17756<<ASSIGN
S_D.ANLZ
     12527**DCL     13245>>IF      13262>>IF      13268>>IF      13302>>IF      13324>>IF      13333>>IF
     13342>>IF      13347>>IF      13356>>IF      13363>>IF      13372>>IF      13472>>IF      13480>>IF
     13486>>IF      13496>>IF      13509>>IF      13515>>IF      13525>>IF      13533>>IF      13540>>IF
     13548>>IF      13555>>IF      13562>>IF      18323>>IF
S_D.ANLZ_FILE
     12591**DCL     13368>>IF
S_D.AWDX
     12092**DCL     14741>>ASSIGN  14839>>ASSIGN  14880>>ASSIGN  15598>>ASSIGN  15731>>ASSIGN  18587>>ASSIGN
S_D.B$TREE$
PL6.E3A0      #001=DDS$BLD File=DDS$BLD.:E05TSI                                  TUE 07/29/97 14:11 Page:594
     12547**DCL     14111>>IF      16370>>IF
S_D.BATCH
     12354**DCL     13543>>IF
S_D.CAN_I_DO_BREAK
     12933**DCL     13263>>IF
S_D.CURRENT_CHANNEL
     12827**DCL     12829--REDEF
S_D.CURRENT_FPRG_CONTEXT$
     12027**DCL     13246>>IF      13264>>IF      13269>>IF      13279>>IF      13296>>IF      13296>>IF
     13303>>IF      13325>>IF      13334>>IF      13339>>IF      13343>>IF      13348>>IF      13357>>IF
     13364>>IF      13373>>IF      13395>>IF      13395>>IF      13459>>IF      13459>>IF      13473>>IF
     13481>>IF      13487>>IF      13497>>IF      13506>>IF      13510>>IF      13526>>IF      13528>>IF
     13534>>IF      13541>>IF      13550>>IF      13556>>IF      13563>>IF      14137>>DOWHILE 14147>>ASSIGN
     14149>>ASSIGN  14153>>ASSIGN  15144>>ASSIGN  15985>>IF      15999>>DOWHILE 16008>>ASSIGN  16010>>ASSIGN
     16012>>ASSIGN  16014>>ASSIGN  16398>>DOWHILE 16407>>ASSIGN  16409>>ASSIGN  16411>>ASSIGN  16564>>IF
     16566>>IF      16572>>IF      16749>>IF      16751>>IF      16800>>DOWHILE 16809>>ASSIGN  16811>>ASSIGN
     16813>>ASSIGN  16815>>ASSIGN  16816>>ASSIGN  16864>>IF      16864>>IF      17913>>IF      17914>>ASSIGN
     18326>>IF      18326>>IF      18345>>IF      18345>>IF      18367>>IF      18367>>IF      18385>>IF
     18385>>IF      18408>>IF      18408>>IF      18425>>IF      18425>>IF      18429>>IF      18429>>IF
     18433>>IF      18433>>IF      18452>>IF      18452>>IF      18469>>IF      18469>>IF      18479>>IF
     18479>>IF      18489>>IF      18489>>IF
S_D.D$
     11965**DCL     14498>>ASSIGN  14597>>ASSIGN  14716>>ASSIGN  14822>>ASSIGN  15453>>ASSIGN  15538>>ASSIGN
     15703>>ASSIGN  15717>>ASSIGN  16873>>ASSIGN  18581>>ASSIGN  18656>>ASSIGN  18657<<ASSIGN  18657>>ASSIGN
S_D.DEBUGA
     11979**DCL     11981--REDEF
S_D.DO_ATTACH
     12102**DCL     13256>>IF      13285>>IF      13353>>IF      13384>>IF      13433>>IF      13437>>IF
     13440>>IF      13451>>IF      13470>>IF      13502>>IF      13539>>IF      13560>>IF      17015>>IF
     17696>>IF
S_D.EDEF$
     12323**DCL     16337>>IF
S_D.EIS
     12937**DCL     12966--REDEF
S_D.ERROR
     11908**DCL     13242<<ASSIGN  13386<<ASSIGN  13572<<ASSIGN  13573<<ASSIGN  13574<<ASSIGN  13575<<ASSIGN
PL6.E3A0      #001=DDS$BLD File=DDS$BLD.:E05TSI                                  TUE 07/29/97 14:11 Page:595
     13576<<ASSIGN  13577<<ASSIGN  13578<<ASSIGN  13579<<ASSIGN  13580<<ASSIGN  13581<<ASSIGN  13582<<ASSIGN
     13583<<ASSIGN  13584<<ASSIGN  13585<<ASSIGN  13586<<ASSIGN  13587<<ASSIGN  13588<<ASSIGN  13673<<ASSIGN
     13674<<ASSIGN  13721<<ASSIGN  13770<<ASSIGN  13883<<ASSIGN  13889<<ASSIGN  13890<<ASSIGN  14088<<ASSIGN
     14095<<ASSIGN  14127<<ASSIGN  14143<<ASSIGN  14157<<ASSIGN  14168<<ASSIGN  14388<<ASSIGN  14450<<ASSIGN
     14494<<ASSIGN  14502<<ASSIGN  14549<<ASSIGN  14601<<ASSIGN  14720<<ASSIGN  14737<<ASSIGN  14901<<ASSIGN
     14902<<ASSIGN  15127<<ASSIGN  15152<<ASSIGN  15153<<ASSIGN  15245<<ASSIGN  15320<<ASSIGN  15369<<ASSIGN
     15375<<ASSIGN  15376<<ASSIGN  15377<<ASSIGN  15378<<ASSIGN  15379<<ASSIGN  15457<<ASSIGN  15462<<ASSIGN
     15555<<ASSIGN  15562<<ASSIGN  15572<<ASSIGN  15594<<ASSIGN  15606<<ASSIGN  15628<<ASSIGN  15644<<ASSIGN
     15709<<ASSIGN  15727<<ASSIGN  15742<<ASSIGN  15808<<ASSIGN  16005<<ASSIGN  16019<<ASSIGN  16022<<ASSIGN
     16339<<ASSIGN  16354<<ASSIGN  16388<<ASSIGN  16404<<ASSIGN  16416<<ASSIGN  16429<<ASSIGN  16568<<ASSIGN
     16574<<ASSIGN  16587<<ASSIGN  16606<<ASSIGN  16618<<ASSIGN  16744<<ASSIGN  16753<<ASSIGN  16780<<ASSIGN
     16806<<ASSIGN  16822<<ASSIGN  16825<<ASSIGN  16869<<ASSIGN  16877<<ASSIGN  16979<<ASSIGN  17017<<ASSIGN
     17032<<ASSIGN  17226<<ASSIGN  17242<<ASSIGN  17261<<ASSIGN  17268<<ASSIGN  17430<<ASSIGN  17476<<ASSIGN
     17560<<ASSIGN  17606<<ASSIGN  17616<<ASSIGN  17617<<ASSIGN  17618<<ASSIGN  17619<<ASSIGN  17698<<ASSIGN
     17716<<ASSIGN  17900<<ASSIGN  17924<<ASSIGN  17973<<ASSIGN  18214<<ASSIGN  18215<<ASSIGN  18216<<ASSIGN
     18455<<ASSIGN  18501<<ASSIGN  18502<<ASSIGN  18504<<ASSIGN  18505<<ASSIGN  18506<<ASSIGN  18594<<ASSIGN
S_D.ERROR_SYM$
     11932**DCL     14589<<ASSIGN  16423<<ASSIGN  16614<<ASSIGN  17243<<ASSIGN  17262<<ASSIGN
S_D.FIXCOM
     12333**DCL     13662--IF      13662--IF      13667--IF      13667--IF      14547--IF      14547--IF
     15326--IF      15326--IF      15331--IF      15331--IF      17566--IF      17566--IF      17571--IF
     17571--IF      18171--IF      18171--IF      18177--IF      18177--IF      18187--IF      18187--IF
     18198--IF      18198--IF
S_D.FIXCOM.CDF
     12343**DCL     14113<<ASSIGN  16372<<ASSIGN  16592<<ASSIGN
S_D.FIXCOM.FPRG
     12340**DCL     14146<<ASSIGN  16009<<ASSIGN  16408<<ASSIGN  16810<<ASSIGN
S_D.FIXCOM.FPRG_RES
     12346**DCL     14147<<ASSIGN  16010<<ASSIGN  16409<<ASSIGN  16811<<ASSIGN
S_D.FIXCOM.FPRG_RES_SIZE
     12347**DCL     14149<<ASSIGN  16012<<ASSIGN  16411<<ASSIGN  16813<<ASSIGN
S_D.FIXCOM.INACTIVE
     12336**DCL     14125<<ASSIGN  14151>>IF      14176<<ASSIGN  16386<<ASSIGN  16437<<ASSIGN  16604<<ASSIGN
     16778<<ASSIGN  16793>>IF
S_D.FIXCOM.NOT_IN
     12338**DCL     14112<<ASSIGN  16371<<ASSIGN
PL6.E3A0      #001=DDS$BLD File=DDS$BLD.:E05TSI                                  TUE 07/29/97 14:11 Page:596
S_D.FIXCOM.SILENT
     12337**DCL     14123<<ASSIGN  16384<<ASSIGN  16602<<ASSIGN  16776<<ASSIGN
S_D.FPRG
     12025**DCL     13246>>IF      13264>>IF      13269>>IF      13279>>IF      13296>>IF      13303>>IF
     13325>>IF      13334>>IF      13343>>IF      13348>>IF      13357>>IF      13364>>IF      13373>>IF
     13395>>IF      13459>>IF      13473>>IF      13481>>IF      13487>>IF      13497>>IF      13510>>IF
     13526>>IF      13534>>IF      13541>>IF      13550>>IF      13556>>IF      13563>>IF      16564>>IF
     16572>>IF      16864>>IF      18326>>IF      18345>>IF      18367>>IF      18385>>IF      18408>>IF
     18425>>IF      18429>>IF      18433>>IF      18452>>IF      18469>>IF      18479>>IF      18489>>IF
S_D.FPRG_CONTEXT$
     12019**DCL     13489>>IF      15066>>IF      15080>>ASSIGN
S_D.GHOST1
     12134**DCL     17277>>IF
S_D.HOST_MESSAGE_BUF_REMOTE
     12870**DCL     12871--REDEF   12885--REDEF
S_D.IFSPEC$
     11985**DCL     13352>>IF      13432>>IF      13436>>IF      13477>>IF
S_D.IGNPR
     12090**DCL     14740>>ASSIGN  14838>>ASSIGN  14879>>ASSIGN  15597>>ASSIGN  15730>>ASSIGN  18586>>ASSIGN
S_D.JDE
     12484**DCL     12485--REDEF
S_D.L$.VALUE
     12037**DCL     12043--REDEF   12051--REDEF   12054--REDEF   12057--REDEF   12060--REDEF
S_D.L$.VALUE.L
     12038**DCL     12039--REDEF   12040--REDEF
S_D.L6_MESSAGE_BUF
     12891**DCL     12893--REDEF
S_D.LADC
     12977**DCL     13385>>IF
S_D.LASTBLT$
     12071**DCL     13239>>ASSIGN
S_D.MACTIVE
     12148**DCL     14747<<ASSIGN
S_D.MLCT
     12834**DCL     15547>>IF
S_D.NCMD$
PL6.E3A0      #001=DDS$BLD File=DDS$BLD.:E05TSI                                  TUE 07/29/97 14:11 Page:597
     12515**DCL     13238>>ASSIGN
S_D.NODE
     12436**DCL     14108>>ASSIGN  14109>>ASSIGN  14111>>IF      16368>>ASSIGN  16370>>IF
S_D.ONABORT
     12507**DCL     15970>>IF      15994<<ASSIGN
S_D.ONCALLS
     12509**DCL     16740>>IF      16789<<ASSIGN
S_D.ONEXIT
     12511**DCL     15981>>IF      15995<<ASSIGN
S_D.ONE_TO_TWO.EXEC_DOMAIN
     12902**DCL     13339>>IF      13506>>IF      13516>>IF      13528>>IF      14084>>IF      14132>>IF
     14134>>IF      14731>>DOCASE  15101>>IF      15136>>IF      15582>>IF      15584>>IF      15722>>IF
     15724>>IF      15968>>IF      15979>>IF      15991>>IF      16393>>IF      16395>>IF      16560>>IF
     16738>>IF      16761>>IF      16785>>IF      16864>>IF      17413>>IF      17907>>IF      18396>>IF
S_D.ONNODES
     12513**DCL     16764>>IF      16796<<ASSIGN
S_D.OUTPUT
     12857**DCL     12859--REDEF   14170<<ASSIGN  14171--ASSIGN  14175--CALL    16431<<ASSIGN  16432--ASSIGN
     16436--CALL
S_D.OVERLAID
     12541**DCL     13415>>IF      13419>>IF      14110>>IF      14166>>IF      15318>>IF      16369>>IF
     16427>>IF      17558>>IF      18334>>IF      18443>>IF
S_D.PATCH
     12523**DCL     13471>>IF      13561>>IF
S_D.QUALIFIED
     12146**DCL     14101<<ASSIGN  16352>>IF      16365<<ASSIGN
S_D.RCBC.BUF$
     12120**DCL     17258--IF      17258--IF
S_D.REMACTIVE
     12094**DCL     13379<<ASSIGN  14747>>ASSIGN  15545>>IF      15578>>IF
S_D.REMOTE_MSG.FNCC
     12876**DCL     12877--REDEF
S_D.REMOTE_MSG.STXC
     12872**DCL     12873--REDEF
S_D.REMOTE_MSG.SUBFNCC
     12880**DCL     12881--REDEF
PL6.E3A0      #001=DDS$BLD File=DDS$BLD.:E05TSI                                  TUE 07/29/97 14:11 Page:598
S_D.RUM
     12525**DCL     13245>>IF      13262>>IF      13268>>IF      13291>>IF      13302>>IF      13324>>IF
     13333>>IF      13342>>IF      13347>>IF      13356>>IF      13363>>IF      13472>>IF      13480>>IF
     13486>>IF      13496>>IF      13509>>IF      13515>>IF      13525>>IF      13533>>IF      13540>>IF
     13548>>IF      13555>>IF      13562>>IF      15618>>IF      18469>>IF
S_D.RUM_FEP
     13007**DCL     18472>>IF
S_D.RUM_SKIP
     11975**DCL     17278<<ASSIGN
S_D.SACT
     12084**DCL     14705>>IF      15530>>IF      15700>>IF      17651>>IF
S_D.STORED
     12073**DCL     14112>>ASSIGN  14113>>ASSIGN  14123>>ASSIGN  14125>>ASSIGN  14146>>ASSIGN  14147>>ASSIGN
     14149>>ASSIGN  14151>>IF      14153>>ASSIGN  14154<>CALL    14172<>CALL    14176>>ASSIGN  15994>>ASSIGN
     15995>>ASSIGN  16008>>ASSIGN  16009>>ASSIGN  16010>>ASSIGN  16012>>ASSIGN  16371>>ASSIGN  16372>>ASSIGN
     16384>>ASSIGN  16386>>ASSIGN  16407>>ASSIGN  16408>>ASSIGN  16409>>ASSIGN  16411>>ASSIGN  16413<>CALL
     16433<>CALL    16437>>ASSIGN  16592>>ASSIGN  16602>>ASSIGN  16604>>ASSIGN  16776>>ASSIGN  16778>>ASSIGN
     16789>>ASSIGN  16793>>IF      16796>>ASSIGN  16809>>ASSIGN  16810>>ASSIGN  16811>>ASSIGN  16813>>ASSIGN
     16817<>CALL
S_D.SV
     11936**DCL     11957--REDEF
S_D.TEMP$O
     13118**DCL     15712<>CALL
S_D.TEMP$O_ACTIVE
     13120**DCL     15713<<ASSIGN  15748<<ASSIGN  15751<<ASSIGN
S_D.TR$INFO.SET
     12361**DCL     16742>>IF      16790<<ASSIGN  17909>>IF
S_D.TR$INFO.SILENT
     12365**DCL     17910>>ASSIGN
S_D.TR$INFO.TYPE
     12371**DCL     16791<<ASSIGN
S_D.TR$INFO.X
     12367**DCL     16792<<ASSIGN
S_D.UNODE.USENODE
     12533**DCL     14166>>IF      16427>>IF
S_D.UPROMPT
PL6.E3A0      #001=DDS$BLD File=DDS$BLD.:E05TSI                                  TUE 07/29/97 14:11 Page:599
     12663**DCL     16977--IF
S_D$
     13188**DCL     11884--IMP-PTR 13238>>ASSIGN  13239>>ASSIGN  13242>>ASSIGN  13245>>IF      13245>>IF
     13246>>IF      13246>>IF      13256>>IF      13262>>IF      13262>>IF      13263>>IF      13264>>IF
     13264>>IF      13268>>IF      13268>>IF      13269>>IF      13269>>IF      13279>>IF      13279>>IF
     13285>>IF      13291>>IF      13296>>IF      13296>>IF      13296>>IF      13302>>IF      13302>>IF
     13303>>IF      13303>>IF      13324>>IF      13324>>IF      13325>>IF      13325>>IF      13333>>IF
     13333>>IF      13334>>IF      13334>>IF      13339>>IF      13339>>IF      13342>>IF      13342>>IF
     13343>>IF      13343>>IF      13347>>IF      13347>>IF      13348>>IF      13348>>IF      13352>>IF
     13353>>IF      13356>>IF      13356>>IF      13357>>IF      13357>>IF      13363>>IF      13363>>IF
     13364>>IF      13364>>IF      13368>>IF      13372>>IF      13373>>IF      13373>>IF      13379>>ASSIGN
     13384>>IF      13385>>IF      13386>>ASSIGN  13395>>IF      13395>>IF      13395>>IF      13415>>IF
     13419>>IF      13432>>IF      13433>>IF      13436>>IF      13437>>IF      13440>>IF      13451>>IF
     13459>>IF      13459>>IF      13459>>IF      13470>>IF      13471>>IF      13472>>IF      13472>>IF
     13473>>IF      13473>>IF      13477>>IF      13480>>IF      13480>>IF      13481>>IF      13481>>IF
     13486>>IF      13486>>IF      13487>>IF      13487>>IF      13489>>IF      13496>>IF      13496>>IF
     13497>>IF      13497>>IF      13502>>IF      13506>>IF      13506>>IF      13509>>IF      13509>>IF
     13510>>IF      13510>>IF      13515>>IF      13515>>IF      13516>>IF      13525>>IF      13525>>IF
     13526>>IF      13526>>IF      13528>>IF      13528>>IF      13533>>IF      13533>>IF      13534>>IF
     13534>>IF      13539>>IF      13540>>IF      13540>>IF      13541>>IF      13541>>IF      13543>>IF
     13548>>IF      13548>>IF      13550>>IF      13550>>IF      13555>>IF      13555>>IF      13556>>IF
     13556>>IF      13560>>IF      13561>>IF      13562>>IF      13562>>IF      13563>>IF      13563>>IF
     13572>>ASSIGN  13573>>ASSIGN  13574>>ASSIGN  13575>>ASSIGN  13576>>ASSIGN  13577>>ASSIGN  13578>>ASSIGN
     13579>>ASSIGN  13580>>ASSIGN  13581>>ASSIGN  13582>>ASSIGN  13583>>ASSIGN  13584>>ASSIGN  13585>>ASSIGN
     13586>>ASSIGN  13587>>ASSIGN  13588>>ASSIGN  13673>>ASSIGN  13674>>ASSIGN  13721>>ASSIGN  13770>>ASSIGN
     13883>>ASSIGN  13889>>ASSIGN  13890>>ASSIGN  14084>>IF      14088>>ASSIGN  14095>>ASSIGN  14101>>ASSIGN
     14108>>ASSIGN  14109>>ASSIGN  14110>>IF      14111>>IF      14111>>IF      14112>>ASSIGN  14112>>ASSIGN
     14113>>ASSIGN  14113>>ASSIGN  14123>>ASSIGN  14123>>ASSIGN  14125>>ASSIGN  14125>>ASSIGN  14127>>ASSIGN
     14132>>IF      14134>>IF      14137>>DOWHILE 14143>>ASSIGN  14146>>ASSIGN  14146>>ASSIGN  14147>>ASSIGN
     14147>>ASSIGN  14147>>ASSIGN  14149>>ASSIGN  14149>>ASSIGN  14149>>ASSIGN  14151>>IF      14151>>IF
     14153>>ASSIGN  14153>>ASSIGN  14154>>CALL    14157>>ASSIGN  14166>>IF      14166>>IF      14168>>ASSIGN
     14170>>ASSIGN  14171>>ASSIGN  14172>>CALL    14175>>CALL    14176>>ASSIGN  14176>>ASSIGN  14388>>ASSIGN
     14450>>ASSIGN  14494>>ASSIGN  14498>>ASSIGN  14502>>ASSIGN  14549>>ASSIGN  14589>>ASSIGN  14597>>ASSIGN
     14601>>ASSIGN  14705>>IF      14716>>ASSIGN  14720>>ASSIGN  14731>>DOCASE  14737>>ASSIGN  14740>>ASSIGN
     14741>>ASSIGN  14747>>ASSIGN  14747>>ASSIGN  14822>>ASSIGN  14838>>ASSIGN  14839>>ASSIGN  14879>>ASSIGN
     14880>>ASSIGN  14901>>ASSIGN  14902>>ASSIGN  15066>>IF      15080>>ASSIGN  15101>>IF      15127>>ASSIGN
PL6.E3A0      #001=DDS$BLD File=DDS$BLD.:E05TSI                                  TUE 07/29/97 14:11 Page:600
     15136>>IF      15144>>ASSIGN  15152>>ASSIGN  15153>>ASSIGN  15245>>ASSIGN  15318>>IF      15320>>ASSIGN
     15369>>ASSIGN  15375>>ASSIGN  15376>>ASSIGN  15377>>ASSIGN  15378>>ASSIGN  15379>>ASSIGN  15453>>ASSIGN
     15457>>ASSIGN  15462>>ASSIGN  15530>>IF      15538>>ASSIGN  15545>>IF      15547>>IF      15555>>ASSIGN
     15562>>ASSIGN  15572>>ASSIGN  15578>>IF      15582>>IF      15584>>IF      15594>>ASSIGN  15597>>ASSIGN
     15598>>ASSIGN  15606>>ASSIGN  15618>>IF      15628>>ASSIGN  15644>>ASSIGN  15700>>IF      15703>>ASSIGN
     15709>>ASSIGN  15712>>CALL    15713>>ASSIGN  15717>>ASSIGN  15722>>IF      15724>>IF      15727>>ASSIGN
     15730>>ASSIGN  15731>>ASSIGN  15742>>ASSIGN  15748>>ASSIGN  15751>>ASSIGN  15808>>ASSIGN  15968>>IF
     15970>>IF      15979>>IF      15981>>IF      15985>>IF      15991>>IF      15994>>ASSIGN  15994>>ASSIGN
     15995>>ASSIGN  15995>>ASSIGN  15999>>DOWHILE 16005>>ASSIGN  16008>>ASSIGN  16008>>ASSIGN  16009>>ASSIGN
     16009>>ASSIGN  16010>>ASSIGN  16010>>ASSIGN  16010>>ASSIGN  16012>>ASSIGN  16012>>ASSIGN  16012>>ASSIGN
     16014>>ASSIGN  16019>>ASSIGN  16022>>ASSIGN  16337>>IF      16339>>ASSIGN  16352>>IF      16354>>ASSIGN
     16365>>ASSIGN  16368>>ASSIGN  16369>>IF      16370>>IF      16370>>IF      16371>>ASSIGN  16371>>ASSIGN
     16372>>ASSIGN  16372>>ASSIGN  16384>>ASSIGN  16384>>ASSIGN  16386>>ASSIGN  16386>>ASSIGN  16388>>ASSIGN
     16393>>IF      16395>>IF      16398>>DOWHILE 16404>>ASSIGN  16407>>ASSIGN  16407>>ASSIGN  16408>>ASSIGN
     16408>>ASSIGN  16409>>ASSIGN  16409>>ASSIGN  16409>>ASSIGN  16411>>ASSIGN  16411>>ASSIGN  16411>>ASSIGN
     16413>>CALL    16416>>ASSIGN  16423>>ASSIGN  16427>>IF      16427>>IF      16429>>ASSIGN  16431>>ASSIGN
     16432>>ASSIGN  16433>>CALL    16436>>CALL    16437>>ASSIGN  16437>>ASSIGN  16560>>IF      16564>>IF
     16564>>IF      16566>>IF      16568>>ASSIGN  16572>>IF      16572>>IF      16574>>ASSIGN  16587>>ASSIGN
     16592>>ASSIGN  16592>>ASSIGN  16602>>ASSIGN  16602>>ASSIGN  16604>>ASSIGN  16604>>ASSIGN  16606>>ASSIGN
     16614>>ASSIGN  16618>>ASSIGN  16738>>IF      16740>>IF      16742>>IF      16744>>ASSIGN  16749>>IF
     16751>>IF      16753>>ASSIGN  16761>>IF      16764>>IF      16776>>ASSIGN  16776>>ASSIGN  16778>>ASSIGN
     16778>>ASSIGN  16780>>ASSIGN  16785>>IF      16789>>ASSIGN  16789>>ASSIGN  16790>>ASSIGN  16791>>ASSIGN
     16792>>ASSIGN  16793>>IF      16793>>IF      16796>>ASSIGN  16796>>ASSIGN  16800>>DOWHILE 16806>>ASSIGN
     16809>>ASSIGN  16809>>ASSIGN  16810>>ASSIGN  16810>>ASSIGN  16811>>ASSIGN  16811>>ASSIGN  16811>>ASSIGN
     16813>>ASSIGN  16813>>ASSIGN  16813>>ASSIGN  16815>>ASSIGN  16816>>ASSIGN  16817>>CALL    16822>>ASSIGN
     16825>>ASSIGN  16864>>IF      16864>>IF      16864>>IF      16864>>IF      16869>>ASSIGN  16873>>ASSIGN
     16877>>ASSIGN  16979>>ASSIGN  17015>>IF      17017>>ASSIGN  17032>>ASSIGN  17226>>ASSIGN  17242>>ASSIGN
     17243>>ASSIGN  17261>>ASSIGN  17262>>ASSIGN  17268>>ASSIGN  17277>>IF      17278>>ASSIGN  17413>>IF
     17430>>ASSIGN  17476>>ASSIGN  17558>>IF      17560>>ASSIGN  17606>>ASSIGN  17616>>ASSIGN  17617>>ASSIGN
     17618>>ASSIGN  17619>>ASSIGN  17651>>IF      17696>>IF      17698>>ASSIGN  17716>>ASSIGN  17900>>ASSIGN
     17907>>IF      17909>>IF      17910>>ASSIGN  17913>>IF      17914>>ASSIGN  17924>>ASSIGN  17973>>ASSIGN
     18214>>ASSIGN  18215>>ASSIGN  18216>>ASSIGN  18323>>IF      18326>>IF      18326>>IF      18326>>IF
     18334>>IF      18345>>IF      18345>>IF      18345>>IF      18367>>IF      18367>>IF      18367>>IF
     18385>>IF      18385>>IF      18385>>IF      18396>>IF      18408>>IF      18408>>IF      18408>>IF
     18425>>IF      18425>>IF      18425>>IF      18429>>IF      18429>>IF      18429>>IF      18433>>IF
     18433>>IF      18433>>IF      18443>>IF      18452>>IF      18452>>IF      18452>>IF      18455>>ASSIGN
PL6.E3A0      #001=DDS$BLD File=DDS$BLD.:E05TSI                                  TUE 07/29/97 14:11 Page:601
     18469>>IF      18469>>IF      18469>>IF      18469>>IF      18472>>IF      18479>>IF      18479>>IF
     18479>>IF      18489>>IF      18489>>IF      18489>>IF      18501>>ASSIGN  18502>>ASSIGN  18504>>ASSIGN
     18505>>ASSIGN  18506>>ASSIGN  18581>>ASSIGN  18586>>ASSIGN  18587>>ASSIGN  18594>>ASSIGN  18656>>ASSIGN
     18657>>ASSIGN  18657>>ASSIGN
S_FAULT IN PROCEDURE DDS$BLD_AT
     14162**LABEL   14133--CALLALT
S_FAULT IN PROCEDURE DDS$BLD_OC
     16413**LABEL   16394--CALLALT
T$ IN PROCEDURE DDS$BLD_ALTVAR
     13746**DCL     13766<<ASSIGN  13767>>ASSIGN  13774>>ASSIGN  13774>>ASSIGN
T1 IN PROCEDURE DDS$BLD_ACTIVE
     13611**DCL     13626<<ASSIGN  13631<<ASSIGN  13636<<ASSIGN  13641<<ASSIGN  13646<<ASSIGN  13650<>CALL
     13654>>IF      13662>>IF      13667>>IF
T1 IN PROCEDURE DDS$BLD_BREAK
     14195**DCL     14212<<ASSIGN  14217<<ASSIGN  14222<<ASSIGN  14227<<ASSIGN  14232<<ASSIGN  14237<<ASSIGN
     14242<<ASSIGN  14247<<ASSIGN  14252<<ASSIGN  14257<<ASSIGN  14262<<ASSIGN  14267<<ASSIGN  14272<<ASSIGN
     14277<<ASSIGN  14282<<ASSIGN  14287<<ASSIGN  14292<<ASSIGN  14297<<ASSIGN  14300<>CALL
T1 IN PROCEDURE DDS$BLD_GO
     14970**DCL     15056<<ASSIGN  15057<>CALL    15066>>IF
T1 IN PROCEDURE DDS$BLD_MLCT
     15773**DCL     15789<<ASSIGN  15790<>CALL
T1 IN PROCEDURE DDS$BLD_SCHEMA
     17384**DCL     17403<<ASSIGN  17404<>CALL
T1 IN PROCEDURE DDS$BLD_SELCHAN
     17451**DCL     17467<<ASSIGN  17468<>CALL
T1 IN PROCEDURE DDS$BLD_TSA
     17947**DCL     17960<<ASSIGN  17961<>CALL
TCODE IN PROCEDURE DDS$BLD_AT
     13919**DCL     14080<<ASSIGN  14081>>IF      14115>>IF      14118<>CALL    14119>>ASSIGN  14120>>ASSIGN
     14122>>IF      14124>>IF
TCODE IN PROCEDURE DDS$BLD_DO
     14525**DCL     14545<>CALL    14547>>IF      14547>>IF      14553>>ASSIGN
TCODE IN PROCEDURE DDS$BLD_OC
     16050**DCL     16346<<ASSIGN  16347>>IF      16347>>IF      16374>>IF      16376>>IF      16379<>CALL
     16380>>ASSIGN  16381>>ASSIGN  16383>>IF      16385>>IF
TCODE IN PROCEDURE DDS$BLD_ONN
PL6.E3A0      #001=DDS$BLD File=DDS$BLD.:E05TSI                                  TUE 07/29/97 14:11 Page:602
     16465**DCL     16579<<ASSIGN  16580>>IF      16580>>IF      16584<>CALL    16585>>IF      16591>>ASSIGN
     16592>>ASSIGN  16594>>IF      16597<>CALL    16598>>ASSIGN  16599>>ASSIGN  16601>>IF      16603>>IF
TCODE IN PROCEDURE DDS$BLD_TRACE
     17785**DCL     17869<<ASSIGN  17886<<ASSIGN  17916>>ASSIGN  17917>>IF
TEMP IN PROCEDURE DDS$BLD_STEP
     17630**DCL     17653<<ASSIGN  17659<>CALL    17662<<ASSIGN  17665>>ASSIGN
TEMP IN PROCEDURE DDS$BLD_USE
     18229**DCL     18342<<ASSIGN  18350<<ASSIGN  18352<<ASSIGN  18358>>ASSIGN  18373<>CALL    18377<>CALL
     18379>>ASSIGN  18387<>CALL    18390>>ASSIGN  18398<>CALL    18402<>CALL    18405<<ASSIGN  18411>>ASSIGN
     18415>>ASSIGN  18419<<ASSIGN  18420<<ASSIGN  18421>>DOCASE  18446<>CALL    18448>>ASSIGN
TEMP$ IN PROCEDURE DDS$BLD_USE
     18231**DCL     18341<<ASSIGN  18343>>IF      18347<<ASSIGN  18347>>ASSIGN  18348>>ASSIGN  18354<>CALL
     18363<<ASSIGN  18364>>IF      18369<<ASSIGN  18369>>ASSIGN  18370>>IF      18373<>CALL    18377<>CALL
     18394<<ASSIGN  18398>>CALL    18402>>CALL    18417>>IF      18417>>IF      18420>>ASSIGN  18420>>ASSIGN
     18445<<ASSIGN  18446<>CALL    18460<<ASSIGN  18461>>ASSIGN  18466>>ASSIGN  18466>>ASSIGN  18482<<ASSIGN
     18483>>ASSIGN  18484<>CALL    18492<<ASSIGN  18493>>ASSIGN  18494<>CALL
TEMP1 IN PROCEDURE DDS$BLD_USE
     18230**DCL     18348<<ASSIGN  18349>>IF      18351>>IF      18354<>CALL    18355>>ASSIGN  18461<<ASSIGN
     18462>>IF      18483<<ASSIGN  18493<<ASSIGN
TEMP_FLAG IN PROCEDURE DDS$BLD_FIND
     14780**DCL     14853<>CALL
TEMP_FLAG IN PROCEDURE DDS$BLD_MACTIVE
     15507**DCL     15552<>CALL
TEXT$ IN PROCEDURE DDS$BLD_ANLZ
     13801**DCL     13849<<ASSIGN  13850>>ASSIGN  13853>>ASSIGN  13853>>ASSIGN  13856<<ASSIGN  13857>>ASSIGN
     13860>>ASSIGN  13860>>ASSIGN  13877<<ASSIGN  13878>>ASSIGN  13879>>ASSIGN  13879>>ASSIGN
TEXT$ IN PROCEDURE DDS$BLD_DEBUG
     14328**DCL     14378<<ASSIGN  14379>>ASSIGN  14380>>ASSIGN  14380>>ASSIGN  14384<<ASSIGN  14385>>ASSIGN
     14395<<ASSIGN  14399>>ASSIGN  14400>>ASSIGN  14400>>ASSIGN  14403>>ASSIGN  14404>>CALLBLT 14404>>CALLBLT
     14409>>ASSIGN  14410>>ASSIGN  14410>>ASSIGN  14419<<ASSIGN  14420>>ASSIGN  14421>>ASSIGN  14421>>ASSIGN
     14433<<ASSIGN  14434>>ASSIGN  14435>>ASSIGN  14435>>ASSIGN  14440<<ASSIGN  14441>>ASSIGN  14442>>ASSIGN
     14442>>ASSIGN
TEXT$ IN PROCEDURE DDS$BLD_DEF
     14474**DCL     14491<<ASSIGN  14492>>IF      14497>>ASSIGN  14497>>ASSIGN
TEXT$ IN PROCEDURE DDS$BLD_GO
     14971**DCL     15079<<ASSIGN  15083>>IF      15083>>IF      15096>>ASSIGN  15096>>ASSIGN
PL6.E3A0      #001=DDS$BLD File=DDS$BLD.:E05TSI                                  TUE 07/29/97 14:11 Page:603
TEXT$ IN PROCEDURE DDS$BLD_PROMPT
     16959**DCL     16976<<ASSIGN  16977>>IF      16982>>ASSIGN  16982>>ASSIGN
TEXT$ IN PROCEDURE DDS$BLD_RUM
     17181**DCL     17222<<ASSIGN  17223>>ASSIGN  17229>>ASSIGN  17229>>ASSIGN
TEXT$ IN PROCEDURE DDS$BLD_SCHEMA
     17385**DCL     17423<<ASSIGN  17424>>ASSIGN  17425>>ASSIGN  17425>>ASSIGN
TEXT$C
      9698**DCL     13853>>ASSIGN  13860>>ASSIGN  14497>>ASSIGN  14652>>ASSIGN  15338>>ASSIGN  15847>>ASSIGN
     16982>>ASSIGN  17229>>ASSIGN  17533>>ASSIGN  17611>>ASSIGN  18045>>ASSIGN
TEXT$C.SIZE
      9699**DCL      9700--IMP-SIZ 13767>>ASSIGN  13774>>ASSIGN  13850>>ASSIGN  13853>>ASSIGN  13857>>ASSIGN
     13860>>ASSIGN  13878>>ASSIGN  13879>>ASSIGN  14379>>ASSIGN  14380>>ASSIGN  14385>>ASSIGN  14399>>ASSIGN
     14400>>ASSIGN  14403>>ASSIGN  14404>>CALLBLT 14409>>ASSIGN  14410>>ASSIGN  14420>>ASSIGN  14421>>ASSIGN
     14434>>ASSIGN  14435>>ASSIGN  14441>>ASSIGN  14442>>ASSIGN  14492>>IF      14497>>ASSIGN  14652>>ASSIGN
     15083>>IF      15096>>ASSIGN  15337>>IF      15338>>ASSIGN  15847>>ASSIGN  16977>>IF      16982>>ASSIGN
     17223>>ASSIGN  17229>>ASSIGN  17424>>ASSIGN  17425>>ASSIGN  17533>>ASSIGN  17611>>ASSIGN  17897>>ASSIGN
     17904>>ASSIGN  18045>>ASSIGN
TEXT$C.TXT
      9700**DCL     13774>>ASSIGN  13879>>ASSIGN  14380>>ASSIGN  14400>>ASSIGN  14404>>CALLBLT 14410>>ASSIGN
     14421>>ASSIGN  14435>>ASSIGN  14442>>ASSIGN  15083>>IF      15096>>ASSIGN  17425>>ASSIGN  17904>>ASSIGN
TFPRG$ IN PROCEDURE DDS$BLD_GO
     14966**DCL     15080<<ASSIGN  15081>>DOWHILE 15083>>IF      15086<<ASSIGN  15086>>ASSIGN
TL IN PROCEDURE DDS$BLD_TSA
     17970**LABEL   17964--GOTO
TOOLARGE IN PROCEDURE DDS$BLD_MLCT
     15808**LABEL   15795--GOTO    15802--GOTO
TOOLARGE IN PROCEDURE DDS$BLD_SELCHAN
     17476**LABEL   17472--GOTO
TOOLARGE IN PROCEDURE DDS$BLD_TSA
     17973**LABEL   17969--GOTO
TRACE$CMD IN PROCEDURE DDS$BLD_TRACE
     17852**DCL     17868--CALL
TRACE$CMD.PREFIX IN PROCEDURE DDS$BLD_TRACE
     17856**DCL     17895<<ASSIGN  17917>>IF
TRACE$CMD.PSIZ IN PROCEDURE DDS$BLD_TRACE
     17864**DCL     17903<<ASSIGN
PL6.E3A0      #001=DDS$BLD File=DDS$BLD.:E05TSI                                  TUE 07/29/97 14:11 Page:604
TRACE$CMD.PTXT IN PROCEDURE DDS$BLD_TRACE
     17865**DCL     17898--IF      17904<<ASSIGN
TRACE$CMD.SILENT IN PROCEDURE DDS$BLD_TRACE
     17858**DCL     17890<<ASSIGN  17910<<ASSIGN  17914<<ASSIGN
TRACE$CMD.TYPE IN PROCEDURE DDS$BLD_TRACE
     17860**DCL     17916<<ASSIGN
TRACE$CMD.XTERNAL IN PROCEDURE DDS$BLD_TRACE
     17857**DCL     17893<<ASSIGN
TSA$CMD IN PROCEDURE DDS$BLD_TSA
     17949**DCL     17961--CALL
TSA$CMD.ADDRESS IN PROCEDURE DDS$BLD_TSA
     17957**DCL     17970<<ASSIGN
TYPE IN PROCEDURE DDS$BLD_LET
     15449**DCL     15466<>CALL    15467>>ASSIGN
TYPE IN PROCEDURE DDS$BLD_USE
     18228**DCL     18330<<ASSIGN  18331<<ASSIGN  18332>>DOCASE  18365<<ASSIGN  18372<<ASSIGN  18376<<ASSIGN
     18381>>ASSIGN  18395>>IF      18406>>IF      18417>>IF      18417>>IF
UBIN36 IN PROCEDURE DDS$SAVE_L6INSTR_PTR
     18609**DCL     18656<<ASSIGN
UDERR1
     13576**LABEL   13567--GOTO
UNFID$CMD IN PROCEDURE DDS$BLD_UNFID
     17995**DCL     18013--CALL
UNFID$CMD.CLOSED IN PROCEDURE DDS$BLD_UNFID
     18002**DCL     18016<<ASSIGN  18024<<ASSIGN
UNFID$CMD.DCBN IN PROCEDURE DDS$BLD_UNFID
     18008**DCL     18045<<ASSIGN
UNFID$CMD.DCBN.C IN PROCEDURE DDS$BLD_UNFID
     18010**DCL     18020<<ASSIGN
UNFID$CMD.ID_FROM IN PROCEDURE DDS$BLD_UNFID
     17999**DCL     18018<<ASSIGN  18038<<ASSIGN
UNFID$CMD.ID_TO IN PROCEDURE DDS$BLD_UNFID
     18000**DCL     18019<<ASSIGN  18041<<ASSIGN
UNFID$CMD.K13 IN PROCEDURE DDS$BLD_UNFID
     18001**DCL     18017<<ASSIGN  18036<<ASSIGN  18044<<ASSIGN
UNFID$CMD.OPEN IN PROCEDURE DDS$BLD_UNFID
PL6.E3A0      #001=DDS$BLD File=DDS$BLD.:E05TSI                                  TUE 07/29/97 14:11 Page:605
     18003**DCL     18015<<ASSIGN  18030<<ASSIGN
UNSHARE$CMD IN PROCEDURE DDS$BLD_UNSHARE
     18075**DCL     18087--CALL
UNSHARE$CMD.LIBRARY IN PROCEDURE DDS$BLD_UNSHARE
     18080**DCL     18111<<ASSIGN
UNSHARE$CMD.PROGRAM IN PROCEDURE DDS$BLD_UNSHARE
     18079**DCL     18110<<ASSIGN
UPDATE$CMD IN PROCEDURE DDS$BLD_UPDATE
     18139**DCL     18156--CALL
UPDATE$CMD.ASYM$ IN PROCEDURE DDS$BLD_UPDATE
     18151**DCL     18207<<ASSIGN  18209<<ASSIGN
UPDATE$CMD.ATTACHMENT IN PROCEDURE DDS$BLD_UPDATE
     18143**DCL     18155<<ASSIGN  18204<<ASSIGN
UPDATE$CMD.ATTACHMENT# IN PROCEDURE DDS$BLD_UPDATE
     18147**DCL     18190<<ASSIGN  18203<<ASSIGN
UPDATE$CMD.ATTACH_AT_TIME IN PROCEDURE DDS$BLD_UPDATE
     18142**DCL     18211<<ASSIGN
UPDATE$CMD.ID_FROM IN PROCEDURE DDS$BLD_UPDATE
     18145**DCL     18169<<ASSIGN  18185<<ASSIGN  18196<<ASSIGN
UPDATE$CMD.ID_TO IN PROCEDURE DDS$BLD_UPDATE
     18146**DCL     18170<<ASSIGN  18176<<ASSIGN  18186<<ASSIGN  18197<<ASSIGN
UPDATE$CMD.UPDATE# IN PROCEDURE DDS$BLD_UPDATE
     18144**DCL     18166<<ASSIGN  18183<<ASSIGN  18194<<ASSIGN
USE$
     13196**DCL      9607--IMP-PTR
USE$CMD IN PROCEDURE DDS$BLD_USE
     18298**DCL     18321--CALL
USE$CMD.BASE IN PROCEDURE DDS$BLD_USE
     18308**DCL     18309--REDEF   18310--REDEF   18311--REDEF   18312--REDEF   18313--REDEF   18314--REDEF
     18355<<ASSIGN
USE$CMD.FPRG IN PROCEDURE DDS$BLD_USE
     18316**DCL     18465<<ASSIGN
USE$CMD.FPRG_RES IN PROCEDURE DDS$BLD_USE
     18318**DCL     18466<<ASSIGN
USE$CMD.HOST IN PROCEDURE DDS$BLD_USE
     18315**DCL     18463<<ASSIGN
PL6.E3A0      #001=DDS$BLD File=DDS$BLD.:E05TSI                                  TUE 07/29/97 14:11 Page:606
USE$CMD.LEVEL IN PROCEDURE DDS$BLD_USE
     18314**DCL     18497<<ASSIGN
USE$CMD.LS IN PROCEDURE DDS$BLD_USE
     18304**DCL     18328<<ASSIGN  18423<<ASSIGN  18427<<ASSIGN  18431<<ASSIGN  18435<<ASSIGN
USE$CMD.NODE IN PROCEDURE DDS$BLD_USE
     18310**DCL     18448<<ASSIGN
USE$CMD.POSITION IN PROCEDURE DDS$BLD_USE
     18313**DCL     18487<<ASSIGN
USE$CMD.PTA IN PROCEDURE DDS$BLD_USE
     18311**DCL     18379<<ASSIGN  18390<<ASSIGN  18411<<ASSIGN
USE$CMD.SECTION IN PROCEDURE DDS$BLD_USE
     18312**DCL     18476<<ASSIGN  18477<<ASSIGN
USE$CMD.SUBTYPE IN PROCEDURE DDS$BLD_USE
     18303**DCL     18304--REDEF   18358<<ASSIGN  18381<<ASSIGN  18437<<ASSIGN
USE$CMD.TYPE IN PROCEDURE DDS$BLD_USE
     18302**DCL     18336<<ASSIGN  18340<<ASSIGN  18362<<ASSIGN  18389<<ASSIGN  18410<<ASSIGN  18414<<ASSIGN
     18437>>ASSIGN  18438<<ASSIGN  18447<<ASSIGN  18474<<ASSIGN  18481<<ASSIGN  18491<<ASSIGN
USE$CMD.USERNO IN PROCEDURE DDS$BLD_USE
     18309**DCL     18415<<ASSIGN
USERAT
     13578**LABEL   13256--GOTO    13285--GOTO    13353--GOTO    13384--GOTO    13433--GOTO    13437--GOTO
     13441--GOTO    13451--GOTO    13470--GOTO    13502--GOTO    13539--GOTO    13560--GOTO
USERCONS IN PROCEDURE DDS$BLD_USE
     18506**LABEL   18496--GOTO
USEREV IN PROCEDURE DDS$BLD_FIND
     14901**LABEL   14832--GOTO    14849--GOTO    14873--GOTO
USERIF
     13577**LABEL   13352--GOTO    13432--GOTO    13436--GOTO    13477--GOTO
USERL6XDELTA
     13585**LABEL   13341--GOTO    13508--GOTO    13530--GOTO
USERNAN
     13584**LABEL   13368--GOTO    13372--GOTO    13374--GOTO
USERNBA
     13581**LABEL   13544--GOTO
USERNDE
     13583**LABEL   13245--GOTO    13247--GOTO    13262--GOTO    13265--GOTO    13268--GOTO    13270--GOTO
PL6.E3A0      #001=DDS$BLD File=DDS$BLD.:E05TSI                                  TUE 07/29/97 14:11 Page:607
     13302--GOTO    13304--GOTO    13324--GOTO    13326--GOTO    13333--GOTO    13335--GOTO    13342--GOTO
     13344--GOTO    13347--GOTO    13349--GOTO    13356--GOTO    13358--GOTO    13363--GOTO    13365--GOTO
     13472--GOTO    13474--GOTO    13480--GOTO    13482--GOTO    13486--GOTO    13488--GOTO    13496--GOTO
     13498--GOTO    13509--GOTO    13511--GOTO    13515--GOTO    13525--GOTO    13527--GOTO    13533--GOTO
     13535--GOTO    13540--GOTO    13542--GOTO    13549--GOTO    13551--GOTO    13555--GOTO    13557--GOTO
     13562--GOTO    13564--GOTO
USERNFEPXDELTA
     13586**LABEL   13281--GOTO    13299--GOTO    13398--GOTO    13462--GOTO
USERNFS
     13587**LABEL   13489--GOTO
USERNH IN PROCEDURE DDS$BLD_FIND
     14902**LABEL   14882--GOTO    14892--GOTO
USERNHOST
     13588**LABEL   13516--GOTO
USERNRU
     13582**LABEL   13291--GOTO
USERNRUM IN PROCEDURE DDS$BLD_USE
     18504**LABEL   18471--GOTO
USEROV
     13579**LABEL   13415--GOTO    13419--GOTO
USEROV IN PROCEDURE DDS$BLD_USE
     18501**LABEL   18335--GOTO    18444--GOTO
USERPA
     13580**LABEL   13471--GOTO    13561--GOTO
USERR3
     13572**LABEL   13406--GOTO
USERR341
     13575**LABEL   13263--GOTO
USERR7
     13573**LABEL   13250--GOTO    13255--GOTO    13261--GOTO    13273--GOTO    13276--GOTO    13290--GOTO
     13317--GOTO    13320--GOTO    13323--GOTO    13338--GOTO    13371--GOTO    13403--GOTO    13411--GOTO
     13414--GOTO    13418--GOTO    13450--GOTO    13454--GOTO    13467--GOTO    13485--GOTO    13505--GOTO
     13514--GOTO    13521--GOTO    13524--GOTO    13538--GOTO    13547--GOTO    13554--GOTO
USERR8
     13574**LABEL   13284--GOTO    13501--GOTO
USERRERR
PL6.E3A0      #001=DDS$BLD File=DDS$BLD.:E05TSI                                  TUE 07/29/97 14:11 Page:608
     13591**LABEL   13243--GOTO    13248--CALLALT 13251--CALLALT 13253--CALLALT 13257--CALLALT 13259--CALLALT
     13266--CALLALT 13271--CALLALT 13274--CALLALT 13277--CALLALT 13282--CALLALT 13286--CALLALT 13288--CALLALT
     13292--CALLALT 13294--CALLALT 13300--CALLALT 13305--CALLALT 13307--CALLALT 13309--CALLALT 13311--CALLALT
     13313--CALLALT 13315--CALLALT 13318--CALLALT 13321--CALLALT 13327--CALLALT 13329--CALLALT 13331--CALLALT
     13336--CALLALT 13345--CALLALT 13350--CALLALT 13354--CALLALT 13359--CALLALT 13361--CALLALT 13366--CALLALT
     13369--CALLALT 13375--CALLALT 13377--CALLALT 13380--CALLALT 13382--CALLALT 13387--GOTO    13389--CALLALT
     13391--CALLALT 13393--CALLALT 13399--CALLALT 13401--CALLALT 13404--CALLALT 13407--CALLALT 13409--CALLALT
     13412--CALLALT 13416--CALLALT 13420--CALLALT 13422--CALLALT 13424--CALLALT 13426--CALLALT 13428--CALLALT
     13430--CALLALT 13434--CALLALT 13438--CALLALT 13442--CALLALT 13444--CALLALT 13446--CALLALT 13448--CALLALT
     13452--CALLALT 13455--CALLALT 13457--CALLALT 13463--CALLALT 13465--CALLALT 13468--CALLALT 13475--CALLALT
     13478--CALLALT 13483--CALLALT 13490--CALLALT 13492--CALLALT 13494--CALLALT 13499--CALLALT 13503--CALLALT
     13512--CALLALT 13517--CALLALT 13519--CALLALT 13522--CALLALT 13531--CALLALT 13536--CALLALT 13545--CALLALT
     13552--CALLALT 13558--CALLALT 13565--CALLALT 13572--GOTO    13573--GOTO    13574--GOTO    13575--GOTO
     13576--GOTO    13577--GOTO    13578--GOTO    13579--GOTO    13580--GOTO    13581--GOTO    13582--GOTO
     13583--GOTO    13584--GOTO    13585--GOTO    13586--GOTO    13587--GOTO    13588--GOTO
USERSY IN PROCEDURE DDS$BLD_USE
     18502**LABEL   18339--GOTO    18346--GOTO    18361--GOTO    18368--GOTO    18384--GOTO    18386--GOTO
     18393--GOTO    18409--GOTO    18426--GOTO    18430--GOTO    18434--GOTO    18451--GOTO    18453--GOTO
     18459--GOTO    18473--GOTO    18480--GOTO    18490--GOTO
UTSM IN PROCEDURE DDS$BLD_RUM
     17188**DCL     17240>>IF
UTSP IN PROCEDURE DDS$BLD_RUM
     17187**DCL     17236>>ASSIGN
UTSX IN PROCEDURE DDS$BLD_RUM
     17189**DCL     17237--DOINDEX 17247>>CALLBLT
V IN PROCEDURE DDS$BLD_ACTIVE
     13609**DCL     13659<>CALL    13660>>ASSIGN  13661>>ASSIGN  13662>>IF      13662>>IF      13668>>IF
V IN PROCEDURE DDS$BLD_ALTVAR
     13745**DCL     13767<<ASSIGN  13768>>IF      13773>>ASSIGN
V IN PROCEDURE DDS$BLD_FIND
     14773**DCL     14809<<ASSIGN  14814<<ASSIGN  14817<>CALL    14825<<ASSIGN  14853<>CALL    14854>>ASSIGN
     14860<>CALL    14861>>ASSIGN  14887<<ASSIGN  14888<>CALL    14889>>ASSIGN
V IN PROCEDURE DDS$BLD_GO
     14969**DCL     15100<>CALL    15103>>IF      15107>>IF      15110>>ASSIGN
V IN PROCEDURE DDS$BLD_HISTORY
     15212**DCL     15237<>CALL    15238>>ASSIGN
PL6.E3A0      #001=DDS$BLD File=DDS$BLD.:E05TSI                                  TUE 07/29/97 14:11 Page:609
V IN PROCEDURE DDS$BLD_KILL
     15271**DCL     15323<>CALL    15324>>ASSIGN  15325>>ASSIGN  15326>>IF      15326>>IF      15332>>IF
V IN PROCEDURE DDS$BLD_MACTIVE
     15508**DCL     15552<>CALL    15553>>IF      15558>>ASSIGN
V IN PROCEDURE DDS$BLD_MLCT
     15772**DCL     15793<>CALL    15794>>IF      15796>>ASSIGN  15800<>CALL    15801>>IF      15804>>ASSIGN
V IN PROCEDURE DDS$BLD_OA
     15873**DCL     15967<<ASSIGN  15978<<ASSIGN  15990<>CALL    15993>>IF
V IN PROCEDURE DDS$BLD_RANGE
     17070**DCL     17073<<ASSIGN  17075<>CALL    17076>>ASSIGN
V IN PROCEDURE DDS$BLD_RUM
     17184**DCL     17239<>CALL    17240>>IF      17246>>CALLBLT 17257<>CALL    17258>>IF      17258>>IF
     17265>>ASSIGN
V IN PROCEDURE DDS$BLD_SAD
     17312**DCL     17315<>CALL    17316>>ASSIGN
V IN PROCEDURE DDS$BLD_SCHEMA
     17383**DCL     17412<>CALL    17413>>IF      17416>>IF      17418>>ASSIGN
V IN PROCEDURE DDS$BLD_SELCHAN
     17450**DCL     17470<>CALL    17471>>IF      17473>>ASSIGN
V IN PROCEDURE DDS$BLD_SHOW
     17496**DCL     17563<>CALL    17564>>ASSIGN  17565>>ASSIGN  17566>>IF      17566>>IF      17572>>IF
V IN PROCEDURE DDS$BLD_TRACE
     17784**DCL     17897<<ASSIGN  17898>>IF      17903>>ASSIGN
V IN PROCEDURE DDS$BLD_TSA
     17946**DCL     17963<<ASSIGN  17967<>CALL    17968>>IF      17970>>ASSIGN
V IN PROCEDURE DDS$BLD_UNFID
     17993**DCL     18037<>CALL    18038>>ASSIGN  18040<>CALL    18041>>ASSIGN
V IN PROCEDURE DDS$BLD_UPDATE
     18136**DCL     18168<>CALL    18169>>ASSIGN  18170>>ASSIGN  18171>>IF      18171>>IF      18179>>IF
     18184<>CALL    18185>>ASSIGN  18186>>ASSIGN  18187>>IF      18187>>IF      18195<>CALL    18196>>ASSIGN
     18197>>ASSIGN  18198>>IF      18198>>IF
V IN PROCEDURE DDS$BLD_USE
     18232**DCL     18484<>CALL    18485>>IF      18487>>ASSIGN  18494<>CALL    18495>>IF      18497>>ASSIGN
V1 IN PROCEDURE DDS$BLD_ACTIVE
     13610**DCL     13665<>CALL    13666>>ASSIGN  13667>>IF      13667>>IF      13668>>IF
V1 IN PROCEDURE DDS$BLD_KILL
PL6.E3A0      #001=DDS$BLD File=DDS$BLD.:E05TSI                                  TUE 07/29/97 14:11 Page:610
     15272**DCL     15329<>CALL    15330>>ASSIGN  15331>>IF      15331>>IF      15332>>IF
V1 IN PROCEDURE DDS$BLD_SHOW
     17497**DCL     17569<>CALL    17570>>ASSIGN  17571>>IF      17571>>IF      17572>>IF
V1 IN PROCEDURE DDS$BLD_UPDATE
     18137**DCL     18175<>CALL    18176>>ASSIGN  18177>>IF      18177>>IF      18179>>IF      18189<>CALL
     18190>>ASSIGN  18191>>IF      18202<>CALL    18203>>ASSIGN  18205>>IF
VREF IN PROCEDURE DDS$BLD_DISP
     14573**DCL     14594<<DOINDEX 14596>>ASSIGN
VREF$ IN PROCEDURE DDS$BLD_DISP
     14575**DCL     14596<<ASSIGN  14598<>CALL
WAIT$CMD IN PROCEDURE DDS$BLD_WAIT
     18526**DCL     18541--CALL
WAIT$CMD.UNUSED IN PROCEDURE DDS$BLD_WAIT
     18530**DCL     18531--REDEF   18535--REDEF
XDEL IN PROCEDURE DDS$BLD_USE
     18233**DCL     18324<<ASSIGN  18325<<ASSIGN  18327<<ASSIGN  18334>>IF      18338>>IF      18360>>IF
     18383>>IF      18392>>IF      18450>>IF      18458>>IF
XEQ$CMD IN PROCEDURE DDS$BLD_XEQ
     18566**DCL     18580--CALL
XEQ$CMD.AWDX IN PROCEDURE DDS$BLD_XEQ
     18573**DCL     18587<<ASSIGN
XEQ$CMD.IGNPR IN PROCEDURE DDS$BLD_XEQ
     18572**DCL     18586<<ASSIGN
XEQ$CMD.INSTR IN PROCEDURE DDS$BLD_XEQ
     18571**DCL     18588<<ASSIGN
XEQ$CMD.NUM IN PROCEDURE DDS$BLD_XEQ
     18570**DCL     18598<<ASSIGN
ZITEM.ADDRESS
     10418**DCL     10423--REDEF   10424--REDEF   10425--REDEF
ZITEM.DTYP
     10400**DCL     15705>>IF
ZITEM.FLAGS.ADDREXP
     10397**DCL     15460>>IF
ZITEM.FLAGS.MDSE.D
     10391**DCL     14599>>IF
ZITEM.FLAGS.MDSE.E
PL6.E3A0      #001=DDS$BLD File=DDS$BLD.:E05TSI                                  TUE 07/29/97 14:11 Page:611
     10395**DCL     14500>>IF      14718>>IF      14831>>IF      14848>>IF      14872>>IF      15460>>IF
     15570>>IF      15740>>IF      18592>>IF
ZITEM.FLAGS.MDSE.M
     10389**DCL     15455>>IF      15707>>IF      16875>>IF
ZITEM.FMT_SPEC
     10414**DCL     14725>>ASSIGN  15465>>ASSIGN  15569>>ASSIGN  15706<<ASSIGN  15734<<ASSIGN
ZITEM.SP.VD
     10426**DCL     10430--REDEF   10433--REDEF
ZITEM$
      9807**DCL     10384--IMP-PTR 14498<<ASSIGN  14500>>IF      14597<<ASSIGN  14599>>IF      14716<<ASSIGN
     14718>>IF      14725>>ASSIGN  14822<<ASSIGN  14831>>IF      14848>>IF      14872>>IF      15453<<ASSIGN
     15455>>IF      15460>>IF      15460>>IF      15465>>ASSIGN  15538<<ASSIGN  15569>>ASSIGN  15570>>IF
     15703<<ASSIGN  15705>>IF      15706>>ASSIGN  15707>>IF      15717<<ASSIGN  15734>>ASSIGN  15740>>IF
     16873<<ASSIGN  16875>>IF      18581<<ASSIGN  18592>>IF
PL6.E3A0      #001=DDS$BLD File=DDS$BLD.:E05TSI                                  TUE 07/29/97 14:11 Page:612
              *** CROSS REFERENCE LISTING ***
    **     DENOTES     IDENTIFIER DEFINITION
    <<                 IDENTIFIER'S VALUE SET
    >>                 IDENTIFIER'S VALUE USED
    <>                 IDENTIFIER SET AND/OR USED
    --                 IDENTIFIER REFERENCED
PL6.E3A0      #001=DDS$BLD File=DDS$BLD.:E05TSI                                  TUE 07/29/97 14:11 Page:613
              MINI UREF LISTING

B$TREEHDR IN PROCEDURE DDS$BLD_AT  13927**DCL
B$TREEHDR IN PROCEDURE DDS$BLD_OC  16060**DCL
DDE$NOTYET   13200**DCL-ENT
DDS$BLD      29**PROC
NCC$ IN PROCEDURE DDS$BLD_SCHEMA  17380**DCL
NSUB IN PROCEDURE DDS$BLD_TSA  17944**DCL
SDD$    9806**DCL
SDD_L6$    9808**DCL
TCODE IN PROCEDURE DDS$BLD_GO  14965**DCL
TCODE IN PROCEDURE DDS$BLD_SCHEMA  17381**DCL
TEXT$ IN PROCEDURE DDS$BLD_KILL  15274**DCL
TEXT$ IN PROCEDURE DDS$BLD_QUIT  17012**DCL
TEXT$ IN PROCEDURE DDS$BLD_SHOW  17499**DCL
TEXT$ IN PROCEDURE DDS$BLD_STOP  17693**DCL
U$SE    9607**DCL
V IN PROCEDURE DDS$BLD_ONCALLS  16642**DCL
V IN PROCEDURE DDS$BLD_QUIT  17013**DCL
V IN PROCEDURE DDS$BLD_STOP  17694**DCL
ZITEM_L6$    9809**DCL
