VERSION E05

PL6.E3A0      #001=DDS$EVAL File=DDS$EVAL.:E05TSI                                TUE 07/29/97 14:16 Page:1
        1        1        /*M* DDS$EVAL . */
        2        2        /*T***********************************************************/
        3        3        /*T*                                                         */
        4        4        /*T* Copyright (c) Bull HN Information Systems Inc., 1997    */
        5        5        /*T*                                                         */
        6        6        /*T***********************************************************/
        7        7        /*X* DMR,PLM=5,IND=5,CSU=3,EXM=0,ECU=3,MOC,DCI=5,CRT=5 */
        8        8        %SET LISTSUB='1'B;
        9        9        /*F* NAME: DDS$EVAL
       10       10             PURPOSE: TO EVALUATE <OP1> <OP> <OP2> TYPE EXPRESSIONS
       11       11             DESCRIPTION: USES DDS$GEVAL TO DO THE ACTUAL ARITHMETIC. */
       12       12        /*D* NAME: DDS$EVAL
       13       13             CALL: CALL DDS$EVAL( OP1, OP2, OP, RESULT ) ALTRET(BAD OP);
       14       14             INTERFACE: DDS$GEVAL
       15       15             ENVIRONMENT:
       16       16             INPUT: OP1 - FIRST OPERAND
       17       17                    OP2 - SECOND OPERAND
       18       18                    OP - OPERATION CODE
       19       19             OUTPUT: RESULT := OP1 OP OP2
       20       20             SCRATCH: LOCAL AUTO ONLY.
       21       21             DESCRIPTION: OP1 OP OP2 IS STORED IN RESULT. */
       22       22        /**/
       23       23        DDS$EVAL: PROC( OP1, OP2, OP, RESULT ) ALTRET;
       24       24        /**/
       25       25    1   DCL OP1 SBIN;                           /* OPERAND 1 */
       26       26    1   DCL OP2 SBIN;                           /* OPERAND 2 */
       27       27    1   DCL OP SBIN;                            /* OPERATION CODE */
       28       28    1   DCL RESULT SBIN;                        /* RESULT */
       29       29    1   DCL TOP SBIN;                           /* TEMP FOR OP CODE */
       30       30    1   DCL 1 TOP_REDEF REDEF TOP,
       31       31    1         2 H1 UBIN(18) HALIGNED,
       32       32    1         2 H2 UBIN(18) HALIGNED;
       33       33    1   DCL DDK$SEVAL ENTRY(3);                 /* DOES THE WORK */
       34       34        %INCLUDE DD_PSUBS_C;                    /* SYNTAX TREE %SUBS */
       35      509        %INCLUDE DD_ERR_C;
       36      906        %INCLUDE XUH_MACRO_C;
       37      990        %INCLUDE DD_SD_M;                       /* S_D */
PL6.E3A0      #001=DDS$EVAL File=DDS$EVAL.:E05TSI                                TUE 07/29/97 14:16 Page:2
       38     2326        %S_D;
       39     3644        /**/
       40     3645    1        TOP = OP - 590 + 1;          /* PLUS_CODE */
       41     3646    2        IF (TOP_REDEF.H2=595-590+1) AND (OP2=0) THEN DO;
       42     3647    2             S_D.ERROR = 346;
       43     3648    2             ALTRETURN;
       44     3649    2           END;
       45     3650    1        CALL DDK$SEVAL( OP1, OP2, TOP );
       46     3651    1        RESULT = TOP;
       47     3652    1        RETURN;
       48     3653        /**/
       49     3654    1   END DDS$EVAL;

PL6.E3A0      #001=DDS$EVAL File=DDS$EVAL.:E05TSI                                TUE 07/29/97 14:16 Page:3
--  Include file information  --

   DD_SD_M.:E05TOU  is referenced.
   XUH_MACRO_C.:E05TOU  is referenced.
   DD_ERR_C.:E05TOU  is referenced.
   DD_PSUBS_C.:E05TOU  is referenced.
   B$JIT_C.:E05TOU  was found in the system file and is never referenced.
   CP_6_C.:E05TOU  was found in the system file and is never referenced.
      No diagnostics issued in procedure DDS$EVAL.

   Procedure DDS$EVAL requires 29 words for executable code.
   Procedure DDS$EVAL requires 12 words of local(AUTO) storage.

    No errors detected in file DDS$EVAL.:E05TSI    .

PL6.E3A0      #001=DDS$EVAL File=DDS$EVAL.:E05TSI                                TUE 07/29/97 14:16 Page:4

 Object Unit name= DDS$EVAL                                   File name= DDS$EVAL.:E05TOU
 UTS= JUL 29 '97 14:16:02.92 TUE                              Compiler= PL-6/E31         Sev=      00
 SharedLib= :SHARED_SYSTEM                                    Alt SharedLib=


    ****  Control sections  ****

 Sect   Type Bound  Init  Size OctSiz  Section name(segment info)
    0   Proc  even  none    29     35  DDS$EVAL

    ****  Entry defs  ****

                              Check   Calling
                             calling  sequence
  Sect OctLoc Primary Altret sequence   type   Parms  Name
     0      0   yes    yes     yes      Std        4  DDS$EVAL

  ****  Entry refs  ****

         Check        Calling
        calling       sequence
Altret sequence SRef   type   Args  Name
         yes           Std       3 DDK$SEVAL
                       nStd      0 X66_AUTO_4
                       nStd      0 X66_AALT
                       Std       0 B_CONSPOOL_D
                       nStd      0 X66_ARET

  ****  Data refs  ****

  Flags:  r = read only, s = secondary
Flgs Name                             Flgs Name                             Flgs Name
r    S_D$                                  B_VECTNIL
PL6.E3A0      #001=DDS$EVAL File=DDS$EVAL.:E05TSI                                TUE 07/29/97 14:16 Page:5


        1        1        /*M* DDS$EVAL . */
        2        2        /*T***********************************************************/
        3        3        /*T*                                                         */
        4        4        /*T* Copyright (c) Bull HN Information Systems Inc., 1997    */
        5        5        /*T*                                                         */
        6        6        /*T***********************************************************/
        7        7        /*X* DMR,PLM=5,IND=5,CSU=3,EXM=0,ECU=3,MOC,DCI=5,CRT=5 */
        8        8        %SET LISTSUB='1'B;
        9        9        /*F* NAME: DDS$EVAL
       10       10             PURPOSE: TO EVALUATE <OP1> <OP> <OP2> TYPE EXPRESSIONS
       11       11             DESCRIPTION: USES DDS$GEVAL TO DO THE ACTUAL ARITHMETIC. */
       12       12        /*D* NAME: DDS$EVAL
       13       13             CALL: CALL DDS$EVAL( OP1, OP2, OP, RESULT ) ALTRET(BAD OP);
       14       14             INTERFACE: DDS$GEVAL
       15       15             ENVIRONMENT:
       16       16             INPUT: OP1 - FIRST OPERAND
       17       17                    OP2 - SECOND OPERAND
       18       18                    OP - OPERATION CODE
       19       19             OUTPUT: RESULT := OP1 OP OP2
       20       20             SCRATCH: LOCAL AUTO ONLY.
       21       21             DESCRIPTION: OP1 OP OP2 IS STORED IN RESULT. */
       22       22        /**/
       23       23        DDS$EVAL: PROC( OP1, OP2, OP, RESULT ) ALTRET;

     23  0 000000   000000 700200 xent  DDS$EVAL     TSX0  ! X66_AUTO_4
         0 000001   000014 000004                    ZERO    12,4

       24       24        /**/
       25       25    1   DCL OP1 SBIN;                           /* OPERAND 1 */
       26       26    1   DCL OP2 SBIN;                           /* OPERAND 2 */
       27       27    1   DCL OP SBIN;                            /* OPERATION CODE */
       28       28    1   DCL RESULT SBIN;                        /* RESULT */
       29       29    1   DCL TOP SBIN;                           /* TEMP FOR OP CODE */
       30       30    1   DCL 1 TOP_REDEF REDEF TOP,
       31       31    1         2 H1 UBIN(18) HALIGNED,
       32       32    1         2 H2 UBIN(18) HALIGNED;
PL6.E3A0      #001=DDS$EVAL File=DDS$EVAL.:E05TSI                                TUE 07/29/97 14:16 Page:6
       33       33    1   DCL DDK$SEVAL ENTRY(3);                 /* DOES THE WORK */
       34       34        %INCLUDE DD_PSUBS_C;                    /* SYNTAX TREE %SUBS */
       35      509        %INCLUDE DD_ERR_C;
       36      906        %INCLUDE XUH_MACRO_C;
       37      990        %INCLUDE DD_SD_M;                       /* S_D */
       38     2326        %S_D;
       39     3644        /**/
       40     3645    1        TOP = OP - 590 + 1;          /* PLUS_CODE */

   3645  0 000002   200005 470500                    LDP0    @OP,,AUTO
         0 000003   000000 235100                    LDA     0,,PR0
         0 000004   001115 135007                    SBLA    589,DL
         0 000005   200007 755100                    STA     TOP,,AUTO

       41     3646    2        IF (TOP_REDEF.H2=595-590+1) AND (OP2=0) THEN DO;

   3646  0 000006   200007 720100                    LXL0    TOP,,AUTO
         0 000007   000006 100003                    CMPX0   6,DU
         0 000010   000020 601000 0                  TNZ     s:3650
         0 000011   200004 471500                    LDP1    @OP2,,AUTO
         0 000012   100000 235100                    LDA     0,,PR1
         0 000013   000020 601000 0                  TNZ     s:3650

       42     3647    2             S_D.ERROR = 346;

   3647  0 000014   000532 236007                    LDQ     346,DL
         0 000015   000000 473400 xsym               LDP3    S_D$
         0 000016   300013 756100                    STQ     11,,PR3

       43     3648    2             ALTRETURN;

   3648  0 000017   000000 702200 xent               TSX2  ! X66_AALT

       44     3649    2           END;
       45     3650    1        CALL DDK$SEVAL( OP1, OP2, TOP );

   3650  0 000020   200007 631500                    EPPR1   TOP,,AUTO
PL6.E3A0      #001=DDS$EVAL File=DDS$EVAL.:E05TSI                                TUE 07/29/97 14:16 Page:7
         0 000021   200012 451500                    STP1    TOP+3,,AUTO
         0 000022   200004 236100                    LDQ     @OP2,,AUTO
         0 000023   200003 235100                    LDA     @OP1,,AUTO
         0 000024   200010 757100                    STAQ    TOP+1,,AUTO
         0 000025   200010 630500                    EPPR0   TOP+1,,AUTO
         0 000026   000021 631400 xsym               EPPR1   B_VECTNIL+17
         0 000027   000000 701000 xent               TSX1    DDK$SEVAL
         0 000030   000000 011000                    NOP     0

       46     3651    1        RESULT = TOP;

   3651  0 000031   200006 470500                    LDP0    @RESULT,,AUTO
         0 000032   200007 235100                    LDA     TOP,,AUTO
         0 000033   000000 755100                    STA     0,,PR0

       47     3652    1        RETURN;

   3652  0 000034   000000 702200 xent               TSX2  ! X66_ARET
       48     3653        /**/
       49     3654    1   END DDS$EVAL;

PL6.E3A0      #001=DDS$EVAL File=DDS$EVAL.:E05TSI                                TUE 07/29/97 14:16 Page:8
--  Include file information  --

   DD_SD_M.:E05TOU  is referenced.
   XUH_MACRO_C.:E05TOU  is referenced.
   DD_ERR_C.:E05TOU  is referenced.
   DD_PSUBS_C.:E05TOU  is referenced.
   B$JIT_C.:E05TOU  was found in the system file and is never referenced.
   CP_6_C.:E05TOU  was found in the system file and is never referenced.
      No diagnostics issued in procedure DDS$EVAL.

   Procedure DDS$EVAL requires 29 words for executable code.
   Procedure DDS$EVAL requires 12 words of local(AUTO) storage.

    No errors detected in file DDS$EVAL.:E05TSI    .
PL6.E3A0      #001=DDS$EVAL File=DDS$EVAL.:E05TSI                                TUE 07/29/97 14:16 Page:9
          *** CROSS REFERENCE LISTING ***
**     DENOTES     IDENTIFIER DEFINITION
<<                 IDENTIFIER'S VALUE SET
>>                 IDENTIFIER'S VALUE USED
<>                 IDENTIFIER SET AND/OR USED
--                 IDENTIFIER REFERENCED
PL6.E3A0      #001=DDS$EVAL File=DDS$EVAL.:E05TSI                                TUE 07/29/97 14:16 Page:10
          MINI XREF LISTING

DDK$SEVAL
        33**DCL-ENT  3650--CALL
OP
        27**DCL        23--PROC     3645>>ASSIGN
OP1
        25**DCL        23--PROC     3650<>CALL
OP2
        26**DCL        23--PROC     3646>>IF       3650<>CALL
RESULT
        28**DCL        23--PROC     3651<<ASSIGN
S_D.CURRENT_CHANNEL
      3278**DCL      3280--REDEF
S_D.DEBUGA
      2430**DCL      2432--REDEF
S_D.EIS
      3388**DCL      3417--REDEF
S_D.ERROR
      2359**DCL      3647<<ASSIGN
S_D.HOST_MESSAGE_BUF_REMOTE
      3321**DCL      3322--REDEF    3336--REDEF
S_D.JDE
      2935**DCL      2936--REDEF
S_D.L$.VALUE
      2488**DCL      2494--REDEF    2502--REDEF    2505--REDEF    2508--REDEF    2511--REDEF
S_D.L$.VALUE.L
      2489**DCL      2490--REDEF    2491--REDEF
S_D.L6_MESSAGE_BUF
      3342**DCL      3344--REDEF
S_D.OUTPUT
      3308**DCL      3310--REDEF
S_D.REMOTE_MSG.FNCC
      3327**DCL      3328--REDEF
PL6.E3A0      #001=DDS$EVAL File=DDS$EVAL.:E05TSI                                TUE 07/29/97 14:16 Page:11
S_D.REMOTE_MSG.STXC
      3323**DCL      3324--REDEF
S_D.REMOTE_MSG.SUBFNCC
      3331**DCL      3332--REDEF
S_D.SV
      2387**DCL      2408--REDEF
S_D$
      3639**DCL      2335--IMP-PTR  3647>>ASSIGN
TOP
        29**DCL        30--REDEF    3645<<ASSIGN   3650<>CALL     3651>>ASSIGN
TOP_REDEF.H2
        32**DCL      3646>>IF
PL6.E3A0      #001=DDS$EVAL File=DDS$EVAL.:E05TSI                                TUE 07/29/97 14:16 Page:12
              *** CROSS REFERENCE LISTING ***
    **     DENOTES     IDENTIFIER DEFINITION
    <<                 IDENTIFIER'S VALUE SET
    >>                 IDENTIFIER'S VALUE USED
    <>                 IDENTIFIER SET AND/OR USED
    --                 IDENTIFIER REFERENCED
PL6.E3A0      #001=DDS$EVAL File=DDS$EVAL.:E05TSI                                TUE 07/29/97 14:16 Page:13
              MINI UREF LISTING

DDS$EVAL      23**PROC
