VERSION E05

PL6.E3A0      #001=DDS$INSTR File=DDS$INSTR.:E05TSI                              TUE 07/29/97 14:17 Page:1
        1        1        /*M* DDS$INSTR INSTRUCTION ASSEMBLER BUILD ROUTINE */
        2        2        /*T***********************************************************/
        3        3        /*T*                                                         */
        4        4        /*T* Copyright (c) Bull HN Information Systems Inc., 1997    */
        5        5        /*T*                                                         */
        6        6        /*T***********************************************************/
        7        7        /*X* DMR,PLM=5,IND=5,CSU=3,EXM=0,ECU=3,MOC,DCI=5,CRT=5 */
        8        8        %SET LISTSUB='1'B;
        9        9        /*F* NAME: DDS$INSTR
       10       10             PURPOSE: TO ASSEMBLE THE INSTRUCTION POINTED TO BY NODE "INSTR".
       11       11             DESCRIPTION: PICKS UP EACH FIELD & ASSEMBLES IT INTO THE INSTRUCTION. */
       12       12        /*D* NAME: DDS$INSTR
       13       13             CALL: CALL DDS$INSTR( N$ ) ALTRET( ERROR );
       14       14             INTERFACE: SYNTAX TREE FOR DELTA.
       15       15             ENVIRONMENT:
       16       16             INPUT: N$ - POINTER TO NODE "INSTR".
       17       17                    S_D.D$ - POINTER TO INSTRUCTION TEMPLATE.
       18       18             OUTPUT: S_D.D$ - POINTER TO NEXT WORD IN BUILD BUFFER.
       19       19                     S_D.IGNPR - IGNORE PR MODIFICATION FLAG
       20       20                     S_D.AWDX - AWDX TYPE PR MODIFICATION FLAG
       21       21             SCRATCH: S_D.ACCUM
       22       22             DESCRIPTION: PICKS UP EACH FIELD, I.E., OP CODE, INHIBIT INDICATOR,
       23       23             TAG, ADDRESS REGISTER, AND ASSEMBLES THEM IN A GMAP INSTRUCTION TEMPLATE
       24       24             LOCATED AT INS$. THE ADDRESS FIELD OF THE INSTRUCTION IS ENCODED AS
       25       25             A DATA DESCRIPTOR, IMMEDIATELY FOLLOWING THE INSTRUCTION TEMPLATE.
       26       26             ANY FORMAT SPECIFICATION IS HANDLED BY THE CALLING ROUTINE. THE RESULATANT
       27       27             DATA DESCRIPTOR FOR THE ADDRESS MUST BE AN EVALUATABLE ITEM. RETURNS
       28       28             UNLESS AN ERROR CONDITION ENCOUNTERED, THEN ALTRETURNS. */
       29       29        /**/
       30       30        DDS$INSTR: PROC( N$ ) ALTRET;
       31       31        /**/
       32       32    1   DCL N$ PTR;                             /* "INSTR" NODE */
       33       33    1   DCL INS$ PTR;                           /* INSTRUCTION TEMPLATE POINTER */
       34       34    1   DCL INSDD$ PTR;                         /* BEGINNING OF DATA DESCRIPTOR */
       35       35    1   DCL IX SBIN;                            /* LOOP INDEX */
       36       36    1   DCL NC$ PTR;                            /* CURRENT NODE POINTER */
       37       37    1   DCL TEMP SBIN;                          /* TEMP FOR INTERMEDIATE RESULTS */
PL6.E3A0      #001=DDS$INSTR File=DDS$INSTR.:E05TSI                              TUE 07/29/97 14:17 Page:2
       38       38    1   DCL TAG SBIN;                           /* TAG FOR INTERMEDIATE TAG VALUES */
       39       39    1   DCL VREF_HERE BIT(1) ALIGNED;           /* VREF ENCOUNTERED FLAG */
       40       40    1   DCL GOTZERO BIT(1) ALIGNED;             /* Got ZERO op code */
       41       41    1   DCL TARGET_TEXT CHAR(6);
       42       42        %INCLUDE DD$BASED;
       43     1345        %HOST_INSTR (NAME=INS,STCLASS="BASED(INS$)");
       44     1367        %ADSC_INSTR (STCLASS="REDEF INS");
       45     1375        %BDSC_INSTR (STCLASS="REDEF INS");
       46     1382        %NDSC_INSTR (STCLASS="REDEF INS");
       47     1391        %SDSC_INSTR (STCLASS="REDEF INS");
       48     1400        %VDSC_INSTR (STCLASS="REDEF INS");
       49     1407        %EIS_INSTR (STCLASS="REDEF INS");
       50     1424    1   DCL INSBIN UBIN WORD BASED;
       51     1425    1   DCL 1 ILH$RH BASED (INS$) ALIGNED,
       52     1426    1         2 LH UBIN HALF UNAL,
       53     1427    1         2 RH UBIN HALF UNAL;
       54     1428    1   DCL 1 MF_FIELD UNAL,
       55     1429    1         2 AR UBIN(1) UNAL,
       56     1430    1         2 RL UBIN(1) UNAL,
       57     1431    1         2 ID UBIN(1) UNAL,
       58     1432    1         2 REG UBIN(4) UNAL;
       59     1433        %OP$TAB (STCLASS=AUTO);
       60     1460        %INCLUDE XU_MACRO_C;
       61     4566        %PARSE$OUT (NAME=POB, STCLASS=BASED, NSUBLKS=NSB);
       62     4611        %PARSE$SYM (NAME=POS, STCLASS=BASED);
       63     4649        %INCLUDE DD$DITEM;                      /* DATA DESCRIPTOR STUFF */
       12+    4752             %LIST;
       13+    4753    1        DCL SDD$ PTR;
       14+    4754    1        DCL ZITEM$ PTR;
       15+    4755    1        DCL SDD_L6$ PTR;
       16+    4756    1        DCL ZITEM_L6$ PTR;
       64     5330        %ZITEM;
       65     5402        %INCLUDE XUH_MACRO_C;
       66     5486        %INCLUDE DD_SD_M;
       67     6822        %S_D;
       68     8140        %INCLUDE DD_PSUBS_C;                    /* syntax tree %SUBS */
       69     8615        %INCLUDE DD_ERR_C;                      /* error codes */
PL6.E3A0      #001=DDS$INSTR File=DDS$INSTR.:E05TSI                              TUE 07/29/97 14:17 Page:3
       70     9012        %INCLUDE DD_SUBS_C;
       71     9283        /**/
       72     9284    1   DCL DDB$MNEM_TO_INSTR ENTRY(2) ALTRET;
       73     9285    1   DCL DDS$VREFCOM ENTRY(2) ALTRET;        /* builds data desc. from VREF node */
       74     9286    1   DCL DDS$VREFCOMD ENTRY(2) ALTRET;       /* builds known constant data desc. */
       75     9287    1   DCL DDS$OCTAL ENTRY(2) ALTRET;          /* handles "OCTIL" node */
       76     9288        /**/
       77     9289    1        INS$ = S_D.D$;
       78     9290    1        INS = '0'B;
       79     9291    1        VREF_HERE = '0'B;
       80     9292    1        S_D.IGNPR = '0'B;
       81     9293    1        S_D.AWDX = '0'B;
       82     9294    1        S_D.D$ = PINCRW( S_D.D$, SIZEW( INSBIN ) );
       83     9295    1        INSDD$ = S_D.D$;
       84     9296    2        DO IX = 0 TO N$ -> POB.NSB - 1;
       85     9297    2             NC$ = N$ -> POB.SUBLK$( IX );
       86     9298    3             DO CASE (NC$ -> POB.CODE) ;
       87     9299    3               CASE (14);            /* SYM_CODE - find symbol */
       88     9300    3                  TARGET_TEXT = NC$ -> POS.TEXT;
       89     9301    3                  CALL DDB$MNEM_TO_INSTR (TARGET_TEXT, OP$TAB) ALTRET (ARETOPC);
       90     9302    3                  IF OP$TAB.TYPE = 6/*T_INPUT*/
       91     9303    3                  THEN ADSC.TA = OP$TAB.OPE1; /* set unit size if it exists */
       92     9304    3                  ELSE INS.OP = OP$TAB.OPCODE;
       93     9305    3                  IF OP$TAB.TYPE = 5/*T_OTHER*/ AND OP$TAB.NIS.AWDX
       94     9306    4                  THEN DO;
       95     9307    4                       INS.AR = '1'B;
       96     9308    4                       S_D.AWDX = '1'B;
       97     9309    4                     END;
       98     9310    3                  IF OP$TAB.TYPE = 1/*T_EIS*/   /* just in case VECTOR EIS */
       99     9311    4                  THEN DO;
      100     9312    4                       INS.VECT.OPE1 = OP$TAB.OPE1;
      101     9313    4                       INS.VECT.OPE2 = OP$TAB.OPE2;
      102     9314    4                     END;
      103     9315    3                  IF OP$TAB.TYPE = 6/*T_INPUT*/ AND OP$TAB.OPCODE = 16/*T_PTR*/
      104     9316    3                  THEN INS = '000000006000'O; /* initial PTR value */
      105     9317    3               CASE (65);           /* BANG_CODE - set inhibit bit */
      106     9318    3                  IF OP$TAB.TYPE ~= 6/*T_INPUT*/
PL6.E3A0      #001=DDS$INSTR File=DDS$INSTR.:E05TSI                              TUE 07/29/97 14:17 Page:4
      107     9319    3                  THEN INS.I = '1'B;
      108     9320    3               CASE (38);           /* VREF_CODE - evaluate "VREF" */
      109     9321    3                  VREF_HERE = '1'B;
      110     9322    3                  CALL DDS$VREFCOM( NC$ ) ALTRET( ALTRT );
      111     9323    3                  IF NOT ( INSDD$ -> ZITEM.FLAGS.MDSE.E )
      112     9324    3                  THEN GOTO ARETEVAL;
      113     9325    3                  IF INSDD$->ZITEM.ADDR_TYPE=%BIGSTATIC_ACODE
      114     9326    3                    AND S_D.SDOT           /* Allow 2 char text for DU or DL */
      115     9327    3                    AND BINBIT(INSDD$->ZITEM.VALUE,18)='040040'O
      116     9328    3                  THEN INSDD$->ZITEM.VALUE = INSDD$->ZITEM.VALUE/262144;
      117     9329    3                  IF (INSDD$->ZITEM.ADDR_TYPE=%CONST_ACODE OR
      118     9330    3                    INSDD$->ZITEM.ADDR_TYPE=%BIGBASED_ACODE OR
      119     9331    3                    INSDD$->ZITEM.ADDR_TYPE=%BIGSTATIC_ACODE) AND
      120     9332    3                    BINBIT(INSDD$->ZITEM.VALUE,36) > '000000777777'O AND
      121     9333    3                    BINBIT(INSDD$->ZITEM.VALUE,36) < '777777400000'O THEN GOTO ARETOCT;
      122     9334    3               CASE (70);            /* TAG_CODE - evaluate TAG field */
      123     9335    3                  CALL EVAL_VAL ALTRET (ALTRT);
      124     9336    3                  IF TEMP > BITBIN( '77'O ) THEN GOTO ARETOCT;
      125     9337    3                  INS.TAGG = TEMP;
      126     9338    3               CASE (244);            /* TAG_NUM1 */
      127     9339    3                  CALL EVAL_VAL ALTRET (ALTRT);
      128     9340    4                  DO CASE (OP$TAB.OPCODE) ; /* which type of instr. to encode */
      129     9341    4                    CASE (2/*T_ADSC*/);         /* ADSC (CN) -  character number */
      130     9342    4                       IF OP$TAB.OPE1 = 0  /* ADSC9 */
      131     9343    4                       THEN
      132     9344    4                            TEMP = TEMP * 2;
      133     9345    4                       IF TEMP > 7 THEN GOTO ARETOCT;
      134     9346    4                       ADSC.CN = TEMP;
      135     9347    4                    CASE (4/*T_BDSC*/);         /* BDSC (N) - length (OR reg) */
      136     9348    4                       IF TEMP > BITBIN ('7777'O) THEN GOTO ARETOCT;
      137     9349    4                       BDSC.N = TEMP;
      138     9350    4                    CASE (6/*T_NDSC*/);         /* NDSC (CN) - character number */
      139     9351    4                       IF TEMP > 7 THEN GOTO ARETOCT;
      140     9352    4                       NDSC.CN = TEMP;
      141     9353    4                    CASE (8/*T_SDSC*/);         /* SDSC (CN) - character number */
      142     9354    4                       IF TEMP > 7 THEN GOTO ARETOCT;
      143     9355    4                       SDSC.CN = TEMP;
PL6.E3A0      #001=DDS$INSTR File=DDS$INSTR.:E05TSI                              TUE 07/29/97 14:17 Page:5
      144     9356    4                    CASE (10/*T_VDSC*/);         /* VDSC (VI) - space between elmts */
      145     9357    4                       IF TEMP > BITBIN ('17777'O) THEN GOTO ARETOCT;
      146     9358    4                       VDSC.VI = TEMP;
      147     9359    4                    CASE (14/*T_ZERO*/);         /* ZERO (rhs) - right half of value */
      148     9360    4                       IF TEMP > BITBIN ('777777'O) THEN GOTO ARETOCT;
      149     9361    4                       ILH$RH.RH = TEMP;
      150     9362    4                    CASE (16/*T_PTR*/);          /* PTR - linkage segment number */
      151     9363    4                       IF TEMP > 1023 THEN GOTO ARETOCT;
      152     9364    4                       ILH$RH.RH = TEMP + BITBIN('6000'O);
      153     9365    4                    END;                   /* do case (OP$TAB.OPCODE) */
      154     9366    3               CASE (245);            /* TAG_NUM2 */
      155     9367    3                  CALL EVAL_VAL ALTRET (ALTRT);
      156     9368    4                  DO CASE (OP$TAB.OPCODE) ; /* which type of instr. to encode */
      157     9369    4                    CASE (2/*T_ADSC*/);         /* ADSC (N) - length (or reg) */
      158     9370    4                       IF TEMP > BITBIN ('7777'O) THEN GOTO ARETOCT;
      159     9371    4                       ADSC.N = TEMP;
      160     9372    4                    CASE (4/*T_BDSC*/);         /* BDSC (C) - character number */
      161     9373    4                       IF TEMP > 3 THEN GOTO ARETOCT;
      162     9374    4                       BDSC.C = TAG;
      163     9375    4                    CASE (6/*T_NDSC*/);         /* NDSC (N) - length (or reg) */
      164     9376    4                       IF TEMP > BITBIN ('77'O) THEN GOTO ARETOCT;
      165     9377    4                       NDSC.N = TEMP;
      166     9378    4                    CASE (8/*T_SDSC*/);         /* SDSC (L) - length */
      167     9379    4                       IF TEMP > 4 THEN GOTO ARETOCT;
      168     9380    4                       SDSC.L = TEMP;
      169     9381    4                    CASE (10/*T_VDSC*/);         /* VDSC (R) - index register */
      170     9382    4                       IF TEMP > 15 THEN GOTO ARETOCT;
      171     9383    4                       VDSC.RN = TEMP;
      172     9384    4                    END;                   /* do case (OP$TAB.OPCODE) */
      173     9385    3               CASE (246);            /* TAG_NUM3 */
      174     9386    3                  CALL EVAL_VAL ALTRET (ALTRT);
      175     9387    4                  DO CASE (OP$TAB.OPCODE) ; /* which type of instr. to encode */
      176     9388    4                    CASE (4/*T_BDSC*/);         /* BDSC (B) - bit number */
      177     9389    4                       IF TEMP > 9 THEN GOTO ARETOCT;
      178     9390    4                       BDSC.B = TAG;
      179     9391    4                    CASE (6/*T_NDSC*/);         /* NDSC (S) - sign and sign type */
      180     9392    4                       IF TEMP > 3 THEN GOTO ARETOCT;
PL6.E3A0      #001=DDS$INSTR File=DDS$INSTR.:E05TSI                              TUE 07/29/97 14:17 Page:6
      181     9393    4                       NDSC.SX = TEMP;
      182     9394    4                    CASE (8/*T_SDSC*/);         /* SDSC (SE) - state of enlarge */
      183     9395    4                       IF TEMP > 1 THEN GOTO ARETOCT;
      184     9396    4                       SDSC.SE = TEMP;
      185     9397    4                    END;                   /* do case (OP$TAB.OPCODE) */
      186     9398    3               CASE (247);            /* TAG_NUM4 */
      187     9399    3                  CALL EVAL_VAL ALTRET (ALTRT);
      188     9400    4                  DO CASE (OP$TAB.OPCODE) ; /* which type of instr. to encode */
      189     9401    4                    CASE (6/*T_NDSC*/);         /* NDSC (SF) - scale factor */
      190     9402    4                       IF TEMP > BITBIN ('77'O) THEN GOTO ARETOCT;
      191     9403    4                       NDSC.SF = TEMP;
      192     9404    4                    END;                   /* do case (OP$TAB.OPCODE) */
      193     9405    3               CASE (240);             /* EIS_MF0 - 1st MF for EIS instr */
      194     9406    3                  IF (OP$TAB.DESC1 < 1/*D_ADSC*/ OR OP$TAB.DESC1 > 5/*D_VDSC*/) THEN
              9406                           GOTO ARETSYN;
      195     9407    3                  CALL EVAL_MF;
      196     9408    3                  EIS.MF1 = MF_FIELD;
      197     9409    3               CASE (241);             /* EIS_MF1 - 2nd MF for EIS instr */
      198     9410    3                  IF (OP$TAB.DESC2 < 1/*D_ADSC*/ OR OP$TAB.DESC2 > 5/*D_VDSC*/) THEN
              9410                           GOTO ARETSYN;
      199     9411    3                  CALL EVAL_MF;
      200     9412    3                  EIS.MF2 = MF_FIELD;
      201     9413    3               CASE (242);             /* EIS_MF2 - 3rd MF for EIS instr */
      202     9414    3                  IF (OP$TAB.DESC3 < 1/*D_ADSC*/ OR OP$TAB.DESC3 > 5/*D_VDSC*/) THEN
              9414                           GOTO ARETSYN;
      203     9415    3                  CALL EVAL_MF;
      204     9416    3                  EIS.XX.MF3 = MF_FIELD;
      205     9417    3               CASE (243);           /* EIS_EXTRA - extra trailing stuff */
      206     9418    3                  CALL EVAL_VAL ALTRET (ALTRT);
      207     9419    3                  IF OP$TAB.EIS.FILL OR OP$TAB.EIS.MASK
      208     9420    4                  THEN DO;
      209     9421    4                       IF TEMP > BITBIN ('777'O) THEN GOTO ARETOCT;
      210     9422    4                       EIS.FILL = TEMP;
      211     9423    4                       OP$TAB.EIS.FILL = '0'B;
      212     9424    4                       OP$TAB.EIS.MASK = '0'B;
      213     9425    4                     END;
      214     9426    3                  ELSE IF OP$TAB.EIS.BOLR
PL6.E3A0      #001=DDS$INSTR File=DDS$INSTR.:E05TSI                              TUE 07/29/97 14:17 Page:7
      215     9427    4                       THEN DO;
      216     9428    4                            IF TEMP > 15 THEN GOTO ARETOCT;
      217     9429    4                            EIS.X.BOLR = TEMP;
      218     9430    4                            OP$TAB.EIS.BOLR = '0'B;
      219     9431    4                          END;
      220     9432    3                       ELSE IF OP$TAB.EIS.RD
      221     9433    4                            THEN DO;
      222     9434    4                                 IF TEMP > 1 THEN GOTO ARETOCT;
      223     9435    4                                 EIS.RD = TEMP;
      224     9436    4                                 OP$TAB.EIS.RD = '0'B;
      225     9437    4                               END;
      226     9438    3                            ELSE IF OP$TAB.EIS.F OR OP$TAB.EIS.P
      227     9439    4                                 THEN DO;
      228     9440    4                                      IF TEMP > 1 THEN GOTO ARETOCT;
      229     9441    4                                      EIS.X.FP = TEMP;
      230     9442    4                                      OP$TAB.EIS.F = '0'B;
      231     9443    4                                      OP$TAB.EIS.P = '0'B;
      232     9444    4                                    END;
      233     9445    3                                 ELSE IF OP$TAB.EIS.T
      234     9446    4                                      THEN DO;
      235     9447    4                                           IF TEMP > 1 THEN GOTO ARETOCT;
      236     9448    4                                           EIS.T = TEMP;
      237     9449    4                                           OP$TAB.EIS.T = '0'B;
      238     9450    4                                         END;
      239     9451    3                                      ELSE
      240     9452    3                                           GOTO ARETSYN;
      241     9453    3               CASE (66);             /* PR_CODE - AR or PR specified */
      242     9454    3                  INS.YFIELD.DR = ASCBIN(SUBSTR(NC$->POB.SUBLK$(0)->POS.TEXT,0,1)) -
              9454                           ASCBIN('0');
      243     9455    3                  IF ( OP$TAB.TYPE = 6/*T_INPUT*/ AND
      244     9456    3                    OP$TAB.OPCODE ~= 12/*T_ARG*/ ) OR
      245     9457    3                    OP$TAB.NIS.AWDX
      246     9458    3                  THEN ;
      247     9459    3                  ELSE INS.AR = '1'B;
      248     9460    3               CASE (69);          /* COMMA_CODE - do nothing */
      249     9461    3               CASE (ELSE);                /* ??? */
      250     9462    3                  GOTO ARETDER;
PL6.E3A0      #001=DDS$INSTR File=DDS$INSTR.:E05TSI                              TUE 07/29/97 14:17 Page:8
      251     9463    3               END;                        /* do case (NC$ -> POB.CODE) */
      252     9464    2           END;                            /* "DO IX" */
      253     9465    1        IF NC$ -> POB.CODE = 69    /* COMMA_CODE */
      254     9466    1        THEN GOTO ARETSYN;
      255     9467    1        IF NOT VREF_HERE
      256     9468    2        THEN DO;                           /* MAKE MY OWN VREF */
      257     9469    2             S_D.ACCUM = INS.Y;
      258     9470    2             CALL DDS$VREFCOMD ALTRET( ALTRT );
      259     9471    2           END;                            /* MAKE MY OWN VREF */
      260     9472    1        S_D.IGNPR = GOTZERO;
      261     9473        /**/
      262     9474    1        RETURN;
      263     9475        /**/
      264     9476    1   ARETOCT: S_D.ERROR = 46; GOTO ALTRT; /* E@TOOLARGE */
      265     9477    1   ARETDER: S_D.ERROR = 501; GOTO ALTRT; /* E@DERR1 */
      266     9478    1   ARETSYN: S_D.ERROR = 53; GOTO ALTRT; /* E@SYNTAX */
      267     9479    1   ARETEVAL: S_D.ERROR = 43; GOTO ALTRT; /* E@NOEVAL */
      268     9480    1   ARETOPC: S_D.ERROR = 45; GOTO ALTRT; /* E@OPCODE */
      269     9481        /**/
      270     9482    1   ALTRT: ALTRETURN;
      271     9483        /**/
      272     9484        %EJECT;
PL6.E3A0      #001=DDS$INSTR File=DDS$INSTR.:E05TSI                              TUE 07/29/97 14:17 Page:9
      273     9485        /* EVAL_VAL - evaluates a "TAG" or "TAGx" node returning a UBIN */
      274     9486        /*    value in the variable TEMP.                               */
      275     9487    1   EVAL_VAL: PROC ALTRET;
      276     9488
      277     9489    2   DCL N$ PTR;
      278     9490
      279     9491    2        N$ = NC$;
      280     9492    2   RECASE:;
      281     9493    3        DO CASE( N$ -> POB.CODE );
      282     9494    3          CASE( 220 );               /* RI MODIFICATION */
      283     9495    3             TEMP = N$->POB.SUBLK$(0)->POB.CODE - 224 + BITBIN( '20'O );
      284     9496    3          CASE( 221 );               /* R MODIFICATION */
      285     9497    3             TEMP = N$->POB.SUBLK$(0)->POB.CODE - 224;
      286     9498    3          CASE( 222 );               /* IR MODIFICATION */
      287     9499    3             TEMP = N$->POB.SUBLK$(0)->POB.CODE - 224 + BITBIN( '60'O );
      288     9500    3          CASE( 223 );               /* IT MODIFICATION */
      289     9501    3             TEMP = N$->POB.SUBLK$(0)->POB.CODE - 224 + BITBIN( '40'O );
      290     9502    3          CASE( 8 );                /* DEC_CODE */
      291     9503    3             CALL CHARBIN (TEMP, N$ -> POS.TEXT);
      292     9504    3          CASE( 27 );                /* OCT_CODE */
      293     9505    3             CALL DDS$OCTAL (N$, TEMP) ALTRET (ALT);
      294     9506    3          CASE( ELSE );                    /* not there yet */
      295     9507    3             N$ = N$ -> POB.SUBLK$(0);
      296     9508    3             GOTO RECASE;
      297     9509    3          END;                             /* do case (N$ -> POB.CODE) */
      298     9510    2        RETURN;
      299     9511        /**/
      300     9512    2   ALT: ALTRETURN;
      301     9513        /**/
      302     9514    2   END EVAL_VAL;
      303     9515        /**/
      304     9516        %EJECT;
PL6.E3A0      #001=DDS$INSTR File=DDS$INSTR.:E05TSI                              TUE 07/29/97 14:17 Page:10
      305     9517        /* EVAL_MF - evaluates an "EIS_MFx" node returning the MF field.
      306     9518        */
      307     9519    1   EVAL_MF: PROC ALTRET;
      308     9520
      309     9521    2   DCL NCC$ PTR;
      310     9522    2   DCL IX SBIN;
      311     9523
      312     9524    2        MF_FIELD = '0'B;
      313     9525    2        NCC$ = NC$;
      314     9526    3        DO IX = 0 TO NCC$ -> POB.NSB - 1;
      315     9527    3             NC$ = NCC$ -> POB.SUBLK$(IX);
      316     9528    4             DO CASE( NC$ -> POB.CODE );
      317     9529    4               CASE( 244 );           /* AR MODIFICATION */
      318     9530    4                  CALL EVAL_VAL ALTRET (ALT);
      319     9531    4                  IF TEMP > 1 THEN GOTO TOOBIG;
      320     9532    4                  MF_FIELD.AR = TEMP;
      321     9533    4               CASE( 245 );           /* RL MODIFICATION */
      322     9534    4                  CALL EVAL_VAL ALTRET (ALT);
      323     9535    4                  IF TEMP > 1 THEN GOTO TOOBIG;
      324     9536    4                  MF_FIELD.RL = TEMP;
      325     9537    4               CASE( 246 );           /* ID MODIFICATION */
      326     9538    4                  CALL EVAL_VAL ALTRET (ALT);
      327     9539    4                  IF TEMP > 1 THEN GOTO TOOBIG;
      328     9540    4                  MF_FIELD.ID = TEMP;
      329     9541    4               CASE( 247 );           /* REG MODIFICATION */
      330     9542    4                  CALL EVAL_VAL ALTRET (ALT);
      331     9543    4                  IF TEMP > 15 THEN GOTO TOOBIG;
      332     9544    4                  MF_FIELD.REG = TEMP;
      333     9545    4               CASE( 69 );         /* COMMA_CODE - ignore it */
      334     9546    4               END;                        /* do case (NC$ -> POB.CODE) */
      335     9547    3           END;                            /* do IX = ... */
      336     9548    2        RETURN;
      337     9549        /**/
      338     9550    2   TOOBIG: S_D.ERROR = 46;
      339     9551    2   ALT: ALTRETURN;
      340     9552        /**/
      341     9553    2   END EVAL_MF;
PL6.E3A0      #001=DDS$INSTR File=DDS$INSTR.:E05TSI                              TUE 07/29/97 14:17 Page:11
      342     9554        /**/
      343     9555    1   END DDS$INSTR;

PL6.E3A0      #001=DDS$INSTR File=DDS$INSTR.:E05TSI                              TUE 07/29/97 14:17 Page:12
--  Include file information  --

   DD_SUBS_C.:E05TOU  is referenced.
   DD_ERR_C.:E05TOU  is referenced.
   DD_PSUBS_C.:E05TOU  is referenced.
   DD_SD_M.:E05TOU  is referenced.
   XUH_MACRO_C.:E05TOU  is referenced.
   DD_SRTN_C.:E05TOU  is referenced.
   DD_ACODE_C.:E05TOU  is referenced.
   DD_ICODE_C.:E05TOU  is referenced.
   DD$DITEM.:E05TOU  cannot be made into a system file and is referenced.
   XU_MACRO_C.:E05TOU  is referenced.
   DD$BASED.:E05TOU  is referenced.
   B$JIT_C.:E05TOU  was found in the system file and is never referenced.
   CP_6_C.:E05TOU  was found in the system file and is never referenced.
      No diagnostics issued in procedure DDS$INSTR.

   Procedure DDS$INSTR requires 1151 words for executable code.
   Procedure DDS$INSTR requires 30 words of local(AUTO) storage.

    No errors detected in file DDS$INSTR.:E05TSI    .

PL6.E3A0      #001=DDS$INSTR File=DDS$INSTR.:E05TSI                              TUE 07/29/97 14:17 Page:13

 Object Unit name= DDS$INSTR                                  File name= DDS$INSTR.:E05TOU
 UTS= JUL 29 '97 14:17:30.72 TUE                              Compiler= PL-6/E31         Sev=      00
 SharedLib= :SHARED_SYSTEM                                    Alt SharedLib=


    ****  Control sections  ****

 Sect   Type Bound  Init  Size OctSiz  Section name(segment info)
    0  RoData even  UTS      3      3  DDS$INSTR
    1   Proc  even  none  1151   2177  DDS$INSTR
    2  RoData even  none     7      7  DDS$INSTR

    ****  Entry defs  ****

                              Check   Calling
                             calling  sequence
  Sect OctLoc Primary Altret sequence   type   Parms  Name
     1      0   yes    yes     yes      Std        1  DDS$INSTR

  ****  Entry refs  ****

         Check        Calling
        calling       sequence
Altret sequence SRef   type   Args  Name
 yes     yes           Std       2 DDB$MNEM_TO_INSTR
 yes     yes           Std       2 DDS$VREFCOMD
 yes     yes           Std       2 DDS$VREFCOM
 yes     yes           Std       2 DDS$OCTAL
                       nStd      0 X66_AUTO_1
                       Std       0 B_CONSPOOL_D
                       nStd      0 X66_ARET
                       nStd      0 X66_AALT
PL6.E3A0      #001=DDS$INSTR File=DDS$INSTR.:E05TSI                              TUE 07/29/97 14:17 Page:14

  ****  Data refs  ****

  Flags:  r = read only, s = secondary
Flgs Name                             Flgs Name                             Flgs Name
r    S_D$                                  B_VECTNIL
PL6.E3A0      #001=DDS$INSTR File=DDS$INSTR.:E05TSI                              TUE 07/29/97 14:17 Page:15


        1        1        /*M* DDS$INSTR INSTRUCTION ASSEMBLER BUILD ROUTINE */
        2        2        /*T***********************************************************/
        3        3        /*T*                                                         */
        4        4        /*T* Copyright (c) Bull HN Information Systems Inc., 1997    */
        5        5        /*T*                                                         */
        6        6        /*T***********************************************************/
        7        7        /*X* DMR,PLM=5,IND=5,CSU=3,EXM=0,ECU=3,MOC,DCI=5,CRT=5 */
        8        8        %SET LISTSUB='1'B;
        9        9        /*F* NAME: DDS$INSTR
       10       10             PURPOSE: TO ASSEMBLE THE INSTRUCTION POINTED TO BY NODE "INSTR".
       11       11             DESCRIPTION: PICKS UP EACH FIELD & ASSEMBLES IT INTO THE INSTRUCTION. */
       12       12        /*D* NAME: DDS$INSTR
       13       13             CALL: CALL DDS$INSTR( N$ ) ALTRET( ERROR );
       14       14             INTERFACE: SYNTAX TREE FOR DELTA.
       15       15             ENVIRONMENT:
       16       16             INPUT: N$ - POINTER TO NODE "INSTR".
       17       17                    S_D.D$ - POINTER TO INSTRUCTION TEMPLATE.
       18       18             OUTPUT: S_D.D$ - POINTER TO NEXT WORD IN BUILD BUFFER.
       19       19                     S_D.IGNPR - IGNORE PR MODIFICATION FLAG
       20       20                     S_D.AWDX - AWDX TYPE PR MODIFICATION FLAG
       21       21             SCRATCH: S_D.ACCUM
       22       22             DESCRIPTION: PICKS UP EACH FIELD, I.E., OP CODE, INHIBIT INDICATOR,
       23       23             TAG, ADDRESS REGISTER, AND ASSEMBLES THEM IN A GMAP INSTRUCTION TEMPLATE
       24       24             LOCATED AT INS$. THE ADDRESS FIELD OF THE INSTRUCTION IS ENCODED AS
       25       25             A DATA DESCRIPTOR, IMMEDIATELY FOLLOWING THE INSTRUCTION TEMPLATE.
       26       26             ANY FORMAT SPECIFICATION IS HANDLED BY THE CALLING ROUTINE. THE RESULATANT
       27       27             DATA DESCRIPTOR FOR THE ADDRESS MUST BE AN EVALUATABLE ITEM. RETURNS
       28       28             UNLESS AN ERROR CONDITION ENCOUNTERED, THEN ALTRETURNS. */
       29       29        /**/
       30       30        DDS$INSTR: PROC( N$ ) ALTRET;

     30  1 000000   000000 700200 xent  DDS$INSTR    TSX0  ! X66_AUTO_1
         1 000001   000036 000001                    ZERO    30,1

       31       31        /**/
       32       32    1   DCL N$ PTR;                             /* "INSTR" NODE */
PL6.E3A0      #001=DDS$INSTR File=DDS$INSTR.:E05TSI                              TUE 07/29/97 14:17 Page:16
       33       33    1   DCL INS$ PTR;                           /* INSTRUCTION TEMPLATE POINTER */
       34       34    1   DCL INSDD$ PTR;                         /* BEGINNING OF DATA DESCRIPTOR */
       35       35    1   DCL IX SBIN;                            /* LOOP INDEX */
       36       36    1   DCL NC$ PTR;                            /* CURRENT NODE POINTER */
       37       37    1   DCL TEMP SBIN;                          /* TEMP FOR INTERMEDIATE RESULTS */
       38       38    1   DCL TAG SBIN;                           /* TAG FOR INTERMEDIATE TAG VALUES */
       39       39    1   DCL VREF_HERE BIT(1) ALIGNED;           /* VREF ENCOUNTERED FLAG */
       40       40    1   DCL GOTZERO BIT(1) ALIGNED;             /* Got ZERO op code */
       41       41    1   DCL TARGET_TEXT CHAR(6);
       42       42        %INCLUDE DD$BASED;
       43     1345        %HOST_INSTR (NAME=INS,STCLASS="BASED(INS$)");
       44     1367        %ADSC_INSTR (STCLASS="REDEF INS");
       45     1375        %BDSC_INSTR (STCLASS="REDEF INS");
       46     1382        %NDSC_INSTR (STCLASS="REDEF INS");
       47     1391        %SDSC_INSTR (STCLASS="REDEF INS");
       48     1400        %VDSC_INSTR (STCLASS="REDEF INS");
       49     1407        %EIS_INSTR (STCLASS="REDEF INS");
       50     1424    1   DCL INSBIN UBIN WORD BASED;
       51     1425    1   DCL 1 ILH$RH BASED (INS$) ALIGNED,
       52     1426    1         2 LH UBIN HALF UNAL,
       53     1427    1         2 RH UBIN HALF UNAL;
       54     1428    1   DCL 1 MF_FIELD UNAL,
       55     1429    1         2 AR UBIN(1) UNAL,
       56     1430    1         2 RL UBIN(1) UNAL,
       57     1431    1         2 ID UBIN(1) UNAL,
       58     1432    1         2 REG UBIN(4) UNAL;
       59     1433        %OP$TAB (STCLASS=AUTO);
       60     1460        %INCLUDE XU_MACRO_C;
       61     4566        %PARSE$OUT (NAME=POB, STCLASS=BASED, NSUBLKS=NSB);
       62     4611        %PARSE$SYM (NAME=POS, STCLASS=BASED);
       63     4649        %INCLUDE DD$DITEM;                      /* DATA DESCRIPTOR STUFF */
       12+    4752             %LIST;
       13+    4753    1        DCL SDD$ PTR;
       14+    4754    1        DCL ZITEM$ PTR;
       15+    4755    1        DCL SDD_L6$ PTR;
       16+    4756    1        DCL ZITEM_L6$ PTR;
       64     5330        %ZITEM;
PL6.E3A0      #001=DDS$INSTR File=DDS$INSTR.:E05TSI                              TUE 07/29/97 14:17 Page:17
       65     5402        %INCLUDE XUH_MACRO_C;
       66     5486        %INCLUDE DD_SD_M;
       67     6822        %S_D;
       68     8140        %INCLUDE DD_PSUBS_C;                    /* syntax tree %SUBS */
       69     8615        %INCLUDE DD_ERR_C;                      /* error codes */
       70     9012        %INCLUDE DD_SUBS_C;
       71     9283        /**/
       72     9284    1   DCL DDB$MNEM_TO_INSTR ENTRY(2) ALTRET;
       73     9285    1   DCL DDS$VREFCOM ENTRY(2) ALTRET;        /* builds data desc. from VREF node */
       74     9286    1   DCL DDS$VREFCOMD ENTRY(2) ALTRET;       /* builds known constant data desc. */
       75     9287    1   DCL DDS$OCTAL ENTRY(2) ALTRET;          /* handles "OCTIL" node */
       76     9288        /**/
       77     9289    1        INS$ = S_D.D$;

   9289  1 000002   000000 470400 xsym               LDP0    S_D$
         1 000003   000044 236100                    LDQ     36,,PR0
         1 000004   200004 756100                    STQ     INS$,,AUTO

       78     9290    1        INS = '0'B;

   9290  1 000005   200004 471500                    LDP1    INS$,,AUTO
         1 000006   100000 450100                    STZ     0,,PR1

       79     9291    1        VREF_HERE = '0'B;

   9291  1 000007   200012 450100                    STZ     VREF_HERE,,AUTO

       80     9292    1        S_D.IGNPR = '0'B;

   9292  1 000010   000504 450100                    STZ     324,,PR0

       81     9293    1        S_D.AWDX = '0'B;

   9293  1 000011   000505 450100                    STZ     325,,PR0

       82     9294    1        S_D.D$ = PINCRW( S_D.D$, SIZEW( INSBIN ) );

PL6.E3A0      #001=DDS$INSTR File=DDS$INSTR.:E05TSI                              TUE 07/29/97 14:17 Page:18
   9294  1 000012   000044 236100                    LDQ     36,,PR0
         1 000013   000001 036003                    ADLQ    1,DU
         1 000014   000044 756100                    STQ     36,,PR0

       83     9295    1        INSDD$ = S_D.D$;

   9295  1 000015   200005 756100                    STQ     INSDD$,,AUTO

       84     9296    2        DO IX = 0 TO N$ -> POB.NSB - 1;

   9296  1 000016   200006 450100                    STZ     IX,,AUTO
         1 000017   001362 710000 1                  TRA     s:9464+1

       85     9297    2             NC$ = N$ -> POB.SUBLK$( IX );

   9297  1 000020   200003 470500                    LDP0    @N$,,AUTO
         1 000021   000000 471500                    LDP1    0,,PR0
         1 000022   200006 720100                    LXL0    IX,,AUTO
         1 000023   100003 236110                    LDQ     3,X0,PR1
         1 000024   200007 756100                    STQ     NC$,,AUTO

       86     9298    3             DO CASE (NC$ -> POB.CODE) ;

   9298  1 000025   200007 471500                    LDP1    NC$,,AUTO
         1 000026   100000 236100                    LDQ     0,,PR1
         1 000027   777777 376007                    ANQ     -1,DL
         1 000030   000016 136007                    SBLQ    14,DL
         1 000031   000352 116007                    CMPQ    234,DL
         1 000032   000034 602006 1                  TNC     s:9298+7,QL
         1 000033   001360 710000 1                  TRA     s:9462
         1 000034   000406 710000 1                  TRA     s:9300
         1 000035   001360 710000 1                  TRA     s:9462
         1 000036   001360 710000 1                  TRA     s:9462
         1 000037   001360 710000 1                  TRA     s:9462
         1 000040   001360 710000 1                  TRA     s:9462
         1 000041   001360 710000 1                  TRA     s:9462
         1 000042   001360 710000 1                  TRA     s:9462
PL6.E3A0      #001=DDS$INSTR File=DDS$INSTR.:E05TSI                              TUE 07/29/97 14:17 Page:19
         1 000043   001360 710000 1                  TRA     s:9462
         1 000044   001360 710000 1                  TRA     s:9462
         1 000045   001360 710000 1                  TRA     s:9462
         1 000046   001360 710000 1                  TRA     s:9462
         1 000047   001360 710000 1                  TRA     s:9462
         1 000050   001360 710000 1                  TRA     s:9462
         1 000051   001360 710000 1                  TRA     s:9462
         1 000052   001360 710000 1                  TRA     s:9462
         1 000053   001360 710000 1                  TRA     s:9462
         1 000054   001360 710000 1                  TRA     s:9462
         1 000055   001360 710000 1                  TRA     s:9462
         1 000056   001360 710000 1                  TRA     s:9462
         1 000057   001360 710000 1                  TRA     s:9462
         1 000060   001360 710000 1                  TRA     s:9462
         1 000061   001360 710000 1                  TRA     s:9462
         1 000062   001360 710000 1                  TRA     s:9462
         1 000063   001360 710000 1                  TRA     s:9462
         1 000064   000517 710000 1                  TRA     s:9321
         1 000065   001360 710000 1                  TRA     s:9462
         1 000066   001360 710000 1                  TRA     s:9462
         1 000067   001360 710000 1                  TRA     s:9462
         1 000070   001360 710000 1                  TRA     s:9462
         1 000071   001360 710000 1                  TRA     s:9462
         1 000072   001360 710000 1                  TRA     s:9462
         1 000073   001360 710000 1                  TRA     s:9462
         1 000074   001360 710000 1                  TRA     s:9462
         1 000075   001360 710000 1                  TRA     s:9462
         1 000076   001360 710000 1                  TRA     s:9462
         1 000077   001360 710000 1                  TRA     s:9462
         1 000100   001360 710000 1                  TRA     s:9462
         1 000101   001360 710000 1                  TRA     s:9462
         1 000102   001360 710000 1                  TRA     s:9462
         1 000103   001360 710000 1                  TRA     s:9462
         1 000104   001360 710000 1                  TRA     s:9462
         1 000105   001360 710000 1                  TRA     s:9462
         1 000106   001360 710000 1                  TRA     s:9462
         1 000107   001360 710000 1                  TRA     s:9462
PL6.E3A0      #001=DDS$INSTR File=DDS$INSTR.:E05TSI                              TUE 07/29/97 14:17 Page:20
         1 000110   001360 710000 1                  TRA     s:9462
         1 000111   001360 710000 1                  TRA     s:9462
         1 000112   001360 710000 1                  TRA     s:9462
         1 000113   001360 710000 1                  TRA     s:9462
         1 000114   001360 710000 1                  TRA     s:9462
         1 000115   001360 710000 1                  TRA     s:9462
         1 000116   001360 710000 1                  TRA     s:9462
         1 000117   000507 710000 1                  TRA     s:9318
         1 000120   001326 710000 1                  TRA     s:9454
         1 000121   001360 710000 1                  TRA     s:9462
         1 000122   001360 710000 1                  TRA     s:9462
         1 000123   001361 710000 1                  TRA     s:9464
         1 000124   000570 710000 1                  TRA     s:9335
         1 000125   001360 710000 1                  TRA     s:9462
         1 000126   001360 710000 1                  TRA     s:9462
         1 000127   001360 710000 1                  TRA     s:9462
         1 000130   001360 710000 1                  TRA     s:9462
         1 000131   001360 710000 1                  TRA     s:9462
         1 000132   001360 710000 1                  TRA     s:9462
         1 000133   001360 710000 1                  TRA     s:9462
         1 000134   001360 710000 1                  TRA     s:9462
         1 000135   001360 710000 1                  TRA     s:9462
         1 000136   001360 710000 1                  TRA     s:9462
         1 000137   001360 710000 1                  TRA     s:9462
         1 000140   001360 710000 1                  TRA     s:9462
         1 000141   001360 710000 1                  TRA     s:9462
         1 000142   001360 710000 1                  TRA     s:9462
         1 000143   001360 710000 1                  TRA     s:9462
         1 000144   001360 710000 1                  TRA     s:9462
         1 000145   001360 710000 1                  TRA     s:9462
         1 000146   001360 710000 1                  TRA     s:9462
         1 000147   001360 710000 1                  TRA     s:9462
         1 000150   001360 710000 1                  TRA     s:9462
         1 000151   001360 710000 1                  TRA     s:9462
         1 000152   001360 710000 1                  TRA     s:9462
         1 000153   001360 710000 1                  TRA     s:9462
         1 000154   001360 710000 1                  TRA     s:9462
PL6.E3A0      #001=DDS$INSTR File=DDS$INSTR.:E05TSI                              TUE 07/29/97 14:17 Page:21
         1 000155   001360 710000 1                  TRA     s:9462
         1 000156   001360 710000 1                  TRA     s:9462
         1 000157   001360 710000 1                  TRA     s:9462
         1 000160   001360 710000 1                  TRA     s:9462
         1 000161   001360 710000 1                  TRA     s:9462
         1 000162   001360 710000 1                  TRA     s:9462
         1 000163   001360 710000 1                  TRA     s:9462
         1 000164   001360 710000 1                  TRA     s:9462
         1 000165   001360 710000 1                  TRA     s:9462
         1 000166   001360 710000 1                  TRA     s:9462
         1 000167   001360 710000 1                  TRA     s:9462
         1 000170   001360 710000 1                  TRA     s:9462
         1 000171   001360 710000 1                  TRA     s:9462
         1 000172   001360 710000 1                  TRA     s:9462
         1 000173   001360 710000 1                  TRA     s:9462
         1 000174   001360 710000 1                  TRA     s:9462
         1 000175   001360 710000 1                  TRA     s:9462
         1 000176   001360 710000 1                  TRA     s:9462
         1 000177   001360 710000 1                  TRA     s:9462
         1 000200   001360 710000 1                  TRA     s:9462
         1 000201   001360 710000 1                  TRA     s:9462
         1 000202   001360 710000 1                  TRA     s:9462
         1 000203   001360 710000 1                  TRA     s:9462
         1 000204   001360 710000 1                  TRA     s:9462
         1 000205   001360 710000 1                  TRA     s:9462
         1 000206   001360 710000 1                  TRA     s:9462
         1 000207   001360 710000 1                  TRA     s:9462
         1 000210   001360 710000 1                  TRA     s:9462
         1 000211   001360 710000 1                  TRA     s:9462
         1 000212   001360 710000 1                  TRA     s:9462
         1 000213   001360 710000 1                  TRA     s:9462
         1 000214   001360 710000 1                  TRA     s:9462
         1 000215   001360 710000 1                  TRA     s:9462
         1 000216   001360 710000 1                  TRA     s:9462
         1 000217   001360 710000 1                  TRA     s:9462
         1 000220   001360 710000 1                  TRA     s:9462
         1 000221   001360 710000 1                  TRA     s:9462
PL6.E3A0      #001=DDS$INSTR File=DDS$INSTR.:E05TSI                              TUE 07/29/97 14:17 Page:22
         1 000222   001360 710000 1                  TRA     s:9462
         1 000223   001360 710000 1                  TRA     s:9462
         1 000224   001360 710000 1                  TRA     s:9462
         1 000225   001360 710000 1                  TRA     s:9462
         1 000226   001360 710000 1                  TRA     s:9462
         1 000227   001360 710000 1                  TRA     s:9462
         1 000230   001360 710000 1                  TRA     s:9462
         1 000231   001360 710000 1                  TRA     s:9462
         1 000232   001360 710000 1                  TRA     s:9462
         1 000233   001360 710000 1                  TRA     s:9462
         1 000234   001360 710000 1                  TRA     s:9462
         1 000235   001360 710000 1                  TRA     s:9462
         1 000236   001360 710000 1                  TRA     s:9462
         1 000237   001360 710000 1                  TRA     s:9462
         1 000240   001360 710000 1                  TRA     s:9462
         1 000241   001360 710000 1                  TRA     s:9462
         1 000242   001360 710000 1                  TRA     s:9462
         1 000243   001360 710000 1                  TRA     s:9462
         1 000244   001360 710000 1                  TRA     s:9462
         1 000245   001360 710000 1                  TRA     s:9462
         1 000246   001360 710000 1                  TRA     s:9462
         1 000247   001360 710000 1                  TRA     s:9462
         1 000250   001360 710000 1                  TRA     s:9462
         1 000251   001360 710000 1                  TRA     s:9462
         1 000252   001360 710000 1                  TRA     s:9462
         1 000253   001360 710000 1                  TRA     s:9462
         1 000254   001360 710000 1                  TRA     s:9462
         1 000255   001360 710000 1                  TRA     s:9462
         1 000256   001360 710000 1                  TRA     s:9462
         1 000257   001360 710000 1                  TRA     s:9462
         1 000260   001360 710000 1                  TRA     s:9462
         1 000261   001360 710000 1                  TRA     s:9462
         1 000262   001360 710000 1                  TRA     s:9462
         1 000263   001360 710000 1                  TRA     s:9462
         1 000264   001360 710000 1                  TRA     s:9462
         1 000265   001360 710000 1                  TRA     s:9462
         1 000266   001360 710000 1                  TRA     s:9462
PL6.E3A0      #001=DDS$INSTR File=DDS$INSTR.:E05TSI                              TUE 07/29/97 14:17 Page:23
         1 000267   001360 710000 1                  TRA     s:9462
         1 000270   001360 710000 1                  TRA     s:9462
         1 000271   001360 710000 1                  TRA     s:9462
         1 000272   001360 710000 1                  TRA     s:9462
         1 000273   001360 710000 1                  TRA     s:9462
         1 000274   001360 710000 1                  TRA     s:9462
         1 000275   001360 710000 1                  TRA     s:9462
         1 000276   001360 710000 1                  TRA     s:9462
         1 000277   001360 710000 1                  TRA     s:9462
         1 000300   001360 710000 1                  TRA     s:9462
         1 000301   001360 710000 1                  TRA     s:9462
         1 000302   001360 710000 1                  TRA     s:9462
         1 000303   001360 710000 1                  TRA     s:9462
         1 000304   001360 710000 1                  TRA     s:9462
         1 000305   001360 710000 1                  TRA     s:9462
         1 000306   001360 710000 1                  TRA     s:9462
         1 000307   001360 710000 1                  TRA     s:9462
         1 000310   001360 710000 1                  TRA     s:9462
         1 000311   001360 710000 1                  TRA     s:9462
         1 000312   001360 710000 1                  TRA     s:9462
         1 000313   001360 710000 1                  TRA     s:9462
         1 000314   001360 710000 1                  TRA     s:9462
         1 000315   001360 710000 1                  TRA     s:9462
         1 000316   001360 710000 1                  TRA     s:9462
         1 000317   001360 710000 1                  TRA     s:9462
         1 000320   001360 710000 1                  TRA     s:9462
         1 000321   001360 710000 1                  TRA     s:9462
         1 000322   001360 710000 1                  TRA     s:9462
         1 000323   001360 710000 1                  TRA     s:9462
         1 000324   001360 710000 1                  TRA     s:9462
         1 000325   001360 710000 1                  TRA     s:9462
         1 000326   001360 710000 1                  TRA     s:9462
         1 000327   001360 710000 1                  TRA     s:9462
         1 000330   001360 710000 1                  TRA     s:9462
         1 000331   001360 710000 1                  TRA     s:9462
         1 000332   001360 710000 1                  TRA     s:9462
         1 000333   001360 710000 1                  TRA     s:9462
PL6.E3A0      #001=DDS$INSTR File=DDS$INSTR.:E05TSI                              TUE 07/29/97 14:17 Page:24
         1 000334   001360 710000 1                  TRA     s:9462
         1 000335   001360 710000 1                  TRA     s:9462
         1 000336   001360 710000 1                  TRA     s:9462
         1 000337   001360 710000 1                  TRA     s:9462
         1 000340   001360 710000 1                  TRA     s:9462
         1 000341   001360 710000 1                  TRA     s:9462
         1 000342   001360 710000 1                  TRA     s:9462
         1 000343   001360 710000 1                  TRA     s:9462
         1 000344   001360 710000 1                  TRA     s:9462
         1 000345   001360 710000 1                  TRA     s:9462
         1 000346   001360 710000 1                  TRA     s:9462
         1 000347   001360 710000 1                  TRA     s:9462
         1 000350   001360 710000 1                  TRA     s:9462
         1 000351   001360 710000 1                  TRA     s:9462
         1 000352   001360 710000 1                  TRA     s:9462
         1 000353   001360 710000 1                  TRA     s:9462
         1 000354   001360 710000 1                  TRA     s:9462
         1 000355   001360 710000 1                  TRA     s:9462
         1 000356   001360 710000 1                  TRA     s:9462
         1 000357   001360 710000 1                  TRA     s:9462
         1 000360   001360 710000 1                  TRA     s:9462
         1 000361   001360 710000 1                  TRA     s:9462
         1 000362   001360 710000 1                  TRA     s:9462
         1 000363   001360 710000 1                  TRA     s:9462
         1 000364   001360 710000 1                  TRA     s:9462
         1 000365   001360 710000 1                  TRA     s:9462
         1 000366   001360 710000 1                  TRA     s:9462
         1 000367   001360 710000 1                  TRA     s:9462
         1 000370   001360 710000 1                  TRA     s:9462
         1 000371   001360 710000 1                  TRA     s:9462
         1 000372   001360 710000 1                  TRA     s:9462
         1 000373   001360 710000 1                  TRA     s:9462
         1 000374   001360 710000 1                  TRA     s:9462
         1 000375   001360 710000 1                  TRA     s:9462
         1 000376   001127 710000 1                  TRA     s:9406
         1 000377   001147 710000 1                  TRA     s:9410
         1 000400   001167 710000 1                  TRA     s:9414
PL6.E3A0      #001=DDS$INSTR File=DDS$INSTR.:E05TSI                              TUE 07/29/97 14:17 Page:25
         1 000401   001207 710000 1                  TRA     s:9418
         1 000402   000601 710000 1                  TRA     s:9339
         1 000403   000734 710000 1                  TRA     s:9367
         1 000404   001031 710000 1                  TRA     s:9386
         1 000405   001105 710000 1                  TRA     s:9399

       87     9299    3               CASE (14);            /* SYM_CODE - find symbol */

       88     9300    3                  TARGET_TEXT = NC$ -> POS.TEXT;

   9300  1 000406   100004 236100                    LDQ     4,,PR1
         1 000407   000033 772000                    QRL     27
         1 000410   000000 621006                    EAX1    0,QL
         1 000411   040100 100540                    MLR     fill='040'O
         1 000412   100004 200011                    ADSC9   4,,PR1                   cn=1,n=*X1
         1 000413   200014 000006                    ADSC9   TARGET_TEXT,,AUTO        cn=0,n=6

       89     9301    3                  CALL DDB$MNEM_TO_INSTR (TARGET_TEXT, OP$TAB) ALTRET (ARETOPC);

   9301  1 000414   200017 633500                    EPPR3   OP$TAB,,AUTO
         1 000415   200035 453500                    STP3    N$+2,,AUTO
         1 000416   200014 634500                    EPPR4   TARGET_TEXT,,AUTO
         1 000417   200034 454500                    STP4    N$+1,,AUTO
         1 000420   200034 630500                    EPPR0   N$+1,,AUTO
         1 000421   000020 631400 xsym               EPPR1   B_VECTNIL+16
         1 000422   000000 701000 xent               TSX1    DDB$MNEM_TO_INSTR
         1 000423   001433 702000 1                  TSX2    ARETOPC

       90     9302    3                  IF OP$TAB.TYPE = 6/*T_INPUT*/

   9302  1 000424   200017 236100                    LDQ     OP$TAB,,AUTO
         1 000425   000370 376007                    ANQ     248,DL
         1 000426   000060 116007                    CMPQ    48,DL
         1 000427   000437 601000 1                  TNZ     s:9304

       91     9303    3                  THEN ADSC.TA = OP$TAB.OPE1; /* set unit size if it exists */

PL6.E3A0      #001=DDS$INSTR File=DDS$INSTR.:E05TSI                              TUE 07/29/97 14:17 Page:26
   9303  1 000430   200004 470500                    LDP0    INS$,,AUTO
         1 000431   200017 236100                    LDQ     OP$TAB,,AUTO
         1 000432   000025 772000                    QRL     21
         1 000433   000000 676100                    ERQ     0,,PR0
         1 000434   060000 376007                    ANQ     24576,DL
         1 000435   000000 656100                    ERSQ    0,,PR0
         1 000436   000444 710000 1                  TRA     s:9305

       92     9304    3                  ELSE INS.OP = OP$TAB.OPCODE;

   9304  1 000437   200004 470500                    LDP0    INS$,,AUTO
         1 000440   200017 236100                    LDQ     OP$TAB,,AUTO
         1 000441   000000 676100                    ERQ     0,,PR0
         1 000442   777400 376007                    ANQ     -256,DL
         1 000443   000000 656100                    ERSQ    0,,PR0

       93     9305    3                  IF OP$TAB.TYPE = 5/*T_OTHER*/ AND OP$TAB.NIS.AWDX

   9305  1 000444   200017 236100                    LDQ     OP$TAB,,AUTO
         1 000445   000370 376007                    ANQ     248,DL
         1 000446   000050 116007                    CMPQ    40,DL
         1 000447   000460 601000 1                  TNZ     s:9310
         1 000450   200017 236100                    LDQ     OP$TAB,,AUTO
         1 000451   040000 316003                    CANQ    16384,DU
         1 000452   000460 600000 1                  TZE     s:9310

       94     9306    4                  THEN DO;

       95     9307    4                       INS.AR = '1'B;

   9307  1 000453   000100 236007                    LDQ     64,DL
         1 000454   000000 256100                    ORSQ    0,,PR0

       96     9308    4                       S_D.AWDX = '1'B;

   9308  1 000455   400000 236003                    LDQ     -131072,DU
         1 000456   000000 471400 xsym               LDP1    S_D$
PL6.E3A0      #001=DDS$INSTR File=DDS$INSTR.:E05TSI                              TUE 07/29/97 14:17 Page:27
         1 000457   100505 756100                    STQ     325,,PR1

       97     9309    4                     END;

       98     9310    3                  IF OP$TAB.TYPE = 1/*T_EIS*/   /* just in case VECTOR EIS */

   9310  1 000460   200017 236100                    LDQ     OP$TAB,,AUTO
         1 000461   000370 376007                    ANQ     248,DL
         1 000462   000010 116007                    CMPQ    8,DL
         1 000463   000474 601000 1                  TNZ     s:9315

       99     9311    4                  THEN DO;

      100     9312    4                       INS.VECT.OPE1 = OP$TAB.OPE1;

   9312  1 000464   200017 236100                    LDQ     OP$TAB,,AUTO
         1 000465   000000 676100                    ERQ     0,,PR0
         1 000466   600000 376003                    ANQ     -65536,DU
         1 000467   000000 656100                    ERSQ    0,,PR0

      101     9313    4                       INS.VECT.OPE2 = OP$TAB.OPE2;

   9313  1 000470   200017 236100                    LDQ     OP$TAB,,AUTO
         1 000471   000000 676100                    ERQ     0,,PR0
         1 000472   000600 376003                    ANQ     384,DU
         1 000473   000000 656100                    ERSQ    0,,PR0

      102     9314    4                     END;

      103     9315    3                  IF OP$TAB.TYPE = 6/*T_INPUT*/ AND OP$TAB.OPCODE = 16/*T_PTR*/

   9315  1 000474   200017 236100                    LDQ     OP$TAB,,AUTO
         1 000475   000370 376007                    ANQ     248,DL
         1 000476   000060 116007                    CMPQ    48,DL
         1 000477   001361 601000 1                  TNZ     s:9464
         1 000500   200017 236100                    LDQ     OP$TAB,,AUTO
         1 000501   777400 376007                    ANQ     -256,DL
PL6.E3A0      #001=DDS$INSTR File=DDS$INSTR.:E05TSI                              TUE 07/29/97 14:17 Page:28
         1 000502   010000 116007                    CMPQ    4096,DL
         1 000503   001361 601000 1                  TNZ     s:9464

      104     9316    3                  THEN INS = '000000006000'O; /* initial PTR value */

   9316  1 000504   000000 236000 0                  LDQ     0
         1 000505   000000 756100                    STQ     0,,PR0
         1 000506   001361 710000 1                  TRA     s:9464

      105     9317    3               CASE (65);           /* BANG_CODE - set inhibit bit */

      106     9318    3                  IF OP$TAB.TYPE ~= 6/*T_INPUT*/

   9318  1 000507   200017 236100                    LDQ     OP$TAB,,AUTO
         1 000510   000370 376007                    ANQ     248,DL
         1 000511   000060 116007                    CMPQ    48,DL
         1 000512   001361 600000 1                  TZE     s:9464

      107     9319    3                  THEN INS.I = '1'B;

   9319  1 000513   200004 473500                    LDP3    INS$,,AUTO
         1 000514   000200 236007                    LDQ     128,DL
         1 000515   300000 256100                    ORSQ    0,,PR3
         1 000516   001361 710000 1                  TRA     s:9464

      108     9320    3               CASE (38);           /* VREF_CODE - evaluate "VREF" */

      109     9321    3                  VREF_HERE = '1'B;

   9321  1 000517   400000 236003                    LDQ     -131072,DU
         1 000520   200012 756100                    STQ     VREF_HERE,,AUTO

      110     9322    3                  CALL DDS$VREFCOM( NC$ ) ALTRET( ALTRT );

   9322  1 000521   200007 633500                    EPPR3   NC$,,AUTO
         1 000522   200034 453500                    STP3    N$+1,,AUTO
         1 000523   200034 630500                    EPPR0   N$+1,,AUTO
PL6.E3A0      #001=DDS$INSTR File=DDS$INSTR.:E05TSI                              TUE 07/29/97 14:17 Page:29
         1 000524   000017 631400 xsym               EPPR1   B_VECTNIL+15
         1 000525   000000 701000 xent               TSX1    DDS$VREFCOM
         1 000526   001437 702000 1                  TSX2    ALTRT

      111     9323    3                  IF NOT ( INSDD$ -> ZITEM.FLAGS.MDSE.E )

   9323  1 000527   200005 470500                    LDP0    INSDD$,,AUTO
         1 000530   000001 236100                    LDQ     1,,PR0
         1 000531   040000 316003                    CANQ    16384,DU
         1 000532   001427 600000 1                  TZE     ARETEVAL

      112     9324    3                  THEN GOTO ARETEVAL;
      113     9325    3                  IF INSDD$->ZITEM.ADDR_TYPE=%BIGSTATIC_ACODE

   9325  1 000533   000006 236100                    LDQ     6,,PR0
         1 000534   000777 376003                    ANQ     511,DU
         1 000535   000104 116003                    CMPQ    68,DU
         1 000536   000551 601000 1                  TNZ     s:9329
         1 000537   000000 471400 xsym               LDP1    S_D$
         1 000540   104741 234100                    SZN     2529,,PR1
         1 000541   000551 605000 1                  TPL     s:9329
         1 000542   000007 236100                    LDQ     7,,PR0
         1 000543   000022 736000                    QLS     18
         1 000544   040040 116003                    CMPQ    16416,DU
         1 000545   000551 601000 1                  TNZ     s:9329

      114     9326    3                    AND S_D.SDOT           /* Allow 2 char text for DU or DL */
      115     9327    3                    AND BINBIT(INSDD$->ZITEM.VALUE,18)='040040'O
      116     9328    3                  THEN INSDD$->ZITEM.VALUE = INSDD$->ZITEM.VALUE/262144;

   9328  1 000546   000007 236100                    LDQ     7,,PR0
         1 000547   000022 772000                    QRL     18
         1 000550   000007 756100                    STQ     7,,PR0

      117     9329    3                  IF (INSDD$->ZITEM.ADDR_TYPE=%CONST_ACODE OR

   9329  1 000551   000006 236100                    LDQ     6,,PR0
PL6.E3A0      #001=DDS$INSTR File=DDS$INSTR.:E05TSI                              TUE 07/29/97 14:17 Page:30
         1 000552   000777 376003                    ANQ     511,DU
         1 000553   000102 116003                    CMPQ    66,DU
         1 000554   000561 600000 1                  TZE     s:9329+8
         1 000555   000103 116003                    CMPQ    67,DU
         1 000556   000561 600000 1                  TZE     s:9329+8
         1 000557   000104 116003                    CMPQ    68,DU
         1 000560   000567 601000 1                  TNZ     s:9329+14
         1 000561   000001 236000 0                  LDQ     1
         1 000562   000007 116100                    CMPQ    7,,PR0
         1 000563   000567 603000 1                  TRC     s:9329+14
         1 000564   000007 236100                    LDQ     7,,PR0
         1 000565   000002 116000 0                  CMPQ    2
         1 000566   001413 602000 1                  TNC     ARETOCT
         1 000567   001361 710000 1                  TRA     s:9464

      118     9330    3                    INSDD$->ZITEM.ADDR_TYPE=%BIGBASED_ACODE OR
      119     9331    3                    INSDD$->ZITEM.ADDR_TYPE=%BIGSTATIC_ACODE) AND
      120     9332    3                    BINBIT(INSDD$->ZITEM.VALUE,36) > '000000777777'O AND
      121     9333    3                   BINBIT(INSDD$->ZITEM.VALUE,36) < '777777400000'O THEN GOTO ARETOCT;
      122     9334    3               CASE (70);            /* TAG_CODE - evaluate TAG field */

      123     9335    3                  CALL EVAL_VAL ALTRET (ALTRT);

   9335  1 000570   001440 701000 1                  TSX1    EVAL_VAL
         1 000571   001437 702000 1                  TSX2    ALTRT

      124     9336    3                  IF TEMP > BITBIN( '77'O ) THEN GOTO ARETOCT;

   9336  1 000572   200010 235100                    LDA     TEMP,,AUTO
         1 000573   000077 115007                    CMPA    63,DL
         1 000574   001413 605400 1                  TPNZ    ARETOCT

      125     9337    3                  INS.TAGG = TEMP;

   9337  1 000575   200004 470500                    LDP0    INS$,,AUTO
         1 000576   200010 236100                    LDQ     TEMP,,AUTO
         1 000577   000000 752101                    STCQ    0,'01'O,PR0
PL6.E3A0      #001=DDS$INSTR File=DDS$INSTR.:E05TSI                              TUE 07/29/97 14:17 Page:31
         1 000600   001361 710000 1                  TRA     s:9464

      126     9338    3               CASE (244);            /* TAG_NUM1 */

      127     9339    3                  CALL EVAL_VAL ALTRET (ALTRT);

   9339  1 000601   001440 701000 1                  TSX1    EVAL_VAL
         1 000602   001437 702000 1                  TSX2    ALTRT

      128     9340    4                  DO CASE (OP$TAB.OPCODE) ; /* which type of instr. to encode */

   9340  1 000603   200017 236100                    LDQ     OP$TAB,,AUTO
         1 000604   000010 772000                    QRL     8
         1 000605   001777 376007                    ANQ     1023,DL
         1 000606   000021 116007                    CMPQ    17,DL
         1 000607   000611 602006 1                  TNC     s:9340+6,QL
         1 000610   001361 710000 1                  TRA     s:9464
         1 000611   000733 710000 1                  TRA     s:9365
         1 000612   000733 710000 1                  TRA     s:9365
         1 000613   000632 710000 1                  TRA     s:9342
         1 000614   000733 710000 1                  TRA     s:9365
         1 000615   000651 710000 1                  TRA     s:9348
         1 000616   000733 710000 1                  TRA     s:9365
         1 000617   000660 710000 1                  TRA     s:9351
         1 000620   000733 710000 1                  TRA     s:9365
         1 000621   000672 710000 1                  TRA     s:9354
         1 000622   000733 710000 1                  TRA     s:9365
         1 000623   000704 710000 1                  TRA     s:9357
         1 000624   000733 710000 1                  TRA     s:9365
         1 000625   000733 710000 1                  TRA     s:9365
         1 000626   000733 710000 1                  TRA     s:9365
         1 000627   000716 710000 1                  TRA     s:9360
         1 000630   000733 710000 1                  TRA     s:9365
         1 000631   000725 710000 1                  TRA     s:9363

      129     9341    4                    CASE (2/*T_ADSC*/);         /* ADSC (CN) -  character number */

PL6.E3A0      #001=DDS$INSTR File=DDS$INSTR.:E05TSI                              TUE 07/29/97 14:17 Page:32
      130     9342    4                       IF OP$TAB.OPE1 = 0  /* ADSC9 */

   9342  1 000632   200017 236100                    LDQ     OP$TAB,,AUTO
         1 000633   600000 316003                    CANQ    -65536,DU
         1 000634   000637 601000 1                  TNZ     s:9345

      131     9343    4                       THEN
      132     9344    4                            TEMP = TEMP * 2;

   9344  1 000635   200010 236100                    LDQ     TEMP,,AUTO
         1 000636   200010 056100                    ASQ     TEMP,,AUTO

      133     9345    4                       IF TEMP > 7 THEN GOTO ARETOCT;

   9345  1 000637   200010 235100                    LDA     TEMP,,AUTO
         1 000640   000007 115007                    CMPA    7,DL
         1 000641   001413 605400 1                  TPNZ    ARETOCT

      134     9346    4                       ADSC.CN = TEMP;

   9346  1 000642   200004 470500                    LDP0    INS$,,AUTO
         1 000643   200010 236100                    LDQ     TEMP,,AUTO
         1 000644   000017 736000                    QLS     15
         1 000645   000000 676100                    ERQ     0,,PR0
         1 000646   700000 376007                    ANQ     -32768,DL
         1 000647   000000 656100                    ERSQ    0,,PR0
         1 000650   001361 710000 1                  TRA     s:9464

      135     9347    4                    CASE (4/*T_BDSC*/);         /* BDSC (N) - length (OR reg) */

      136     9348    4                       IF TEMP > BITBIN ('7777'O) THEN GOTO ARETOCT;

   9348  1 000651   200010 235100                    LDA     TEMP,,AUTO
         1 000652   007777 115007                    CMPA    4095,DL
         1 000653   001413 605400 1                  TPNZ    ARETOCT

      137     9349    4                       BDSC.N = TEMP;
PL6.E3A0      #001=DDS$INSTR File=DDS$INSTR.:E05TSI                              TUE 07/29/97 14:17 Page:33

   9349  1 000654   200004 470500                    LDP0    INS$,,AUTO
         1 000655   200010 236100                    LDQ     TEMP,,AUTO
         1 000656   000000 752103                    STCQ    0,'03'O,PR0
         1 000657   001361 710000 1                  TRA     s:9464

      138     9350    4                    CASE (6/*T_NDSC*/);         /* NDSC (CN) - character number */

      139     9351    4                       IF TEMP > 7 THEN GOTO ARETOCT;

   9351  1 000660   200010 235100                    LDA     TEMP,,AUTO
         1 000661   000007 115007                    CMPA    7,DL
         1 000662   001413 605400 1                  TPNZ    ARETOCT

      140     9352    4                       NDSC.CN = TEMP;

   9352  1 000663   200004 470500                    LDP0    INS$,,AUTO
         1 000664   200010 236100                    LDQ     TEMP,,AUTO
         1 000665   000017 736000                    QLS     15
         1 000666   000000 676100                    ERQ     0,,PR0
         1 000667   700000 376007                    ANQ     -32768,DL
         1 000670   000000 656100                    ERSQ    0,,PR0
         1 000671   001361 710000 1                  TRA     s:9464

      141     9353    4                    CASE (8/*T_SDSC*/);         /* SDSC (CN) - character number */

      142     9354    4                       IF TEMP > 7 THEN GOTO ARETOCT;

   9354  1 000672   200010 235100                    LDA     TEMP,,AUTO
         1 000673   000007 115007                    CMPA    7,DL
         1 000674   001413 605400 1                  TPNZ    ARETOCT

      143     9355    4                       SDSC.CN = TEMP;

   9355  1 000675   200004 470500                    LDP0    INS$,,AUTO
         1 000676   200010 236100                    LDQ     TEMP,,AUTO
         1 000677   000017 736000                    QLS     15
PL6.E3A0      #001=DDS$INSTR File=DDS$INSTR.:E05TSI                              TUE 07/29/97 14:17 Page:34
         1 000700   000000 676100                    ERQ     0,,PR0
         1 000701   700000 376007                    ANQ     -32768,DL
         1 000702   000000 656100                    ERSQ    0,,PR0
         1 000703   001361 710000 1                  TRA     s:9464

      144     9356    4                    CASE (10/*T_VDSC*/);         /* VDSC (VI) - space between elmts */

      145     9357    4                       IF TEMP > BITBIN ('17777'O) THEN GOTO ARETOCT;

   9357  1 000704   200010 235100                    LDA     TEMP,,AUTO
         1 000705   017777 115007                    CMPA    8191,DL
         1 000706   001413 605400 1                  TPNZ    ARETOCT

      146     9358    4                       VDSC.VI = TEMP;

   9358  1 000707   200004 470500                    LDP0    INS$,,AUTO
         1 000710   200010 236100                    LDQ     TEMP,,AUTO
         1 000711   000005 736000                    QLS     5
         1 000712   000000 676100                    ERQ     0,,PR0
         1 000713   777740 376007                    ANQ     -32,DL
         1 000714   000000 656100                    ERSQ    0,,PR0
         1 000715   001361 710000 1                  TRA     s:9464

      147     9359    4                    CASE (14/*T_ZERO*/);        /* ZERO (rhs) - right half of value */

      148     9360    4                       IF TEMP > BITBIN ('777777'O) THEN GOTO ARETOCT;

   9360  1 000716   200010 235100                    LDA     TEMP,,AUTO
         1 000717   777777 115007                    CMPA    -1,DL
         1 000720   001413 605400 1                  TPNZ    ARETOCT

      149     9361    4                       ILH$RH.RH = TEMP;

   9361  1 000721   000000 620005                    EAX0    0,AL
         1 000722   200004 470500                    LDP0    INS$,,AUTO
         1 000723   000000 440100                    SXL0    0,,PR0
         1 000724   001361 710000 1                  TRA     s:9464
PL6.E3A0      #001=DDS$INSTR File=DDS$INSTR.:E05TSI                              TUE 07/29/97 14:17 Page:35

      150     9362    4                    CASE (16/*T_PTR*/);          /* PTR - linkage segment number */

      151     9363    4                       IF TEMP > 1023 THEN GOTO ARETOCT;

   9363  1 000725   200010 235100                    LDA     TEMP,,AUTO
         1 000726   001777 115007                    CMPA    1023,DL
         1 000727   001413 605400 1                  TPNZ    ARETOCT

      152     9364    4                       ILH$RH.RH = TEMP + BITBIN('6000'O);

   9364  1 000730   006000 620005                    EAX0    3072,AL
         1 000731   200004 470500                    LDP0    INS$,,AUTO
         1 000732   000000 440100                    SXL0    0,,PR0

      153     9365    4                    END;                   /* do case (OP$TAB.OPCODE) */

   9365  1 000733   001361 710000 1                  TRA     s:9464

      154     9366    3               CASE (245);            /* TAG_NUM2 */

      155     9367    3                  CALL EVAL_VAL ALTRET (ALTRT);

   9367  1 000734   001440 701000 1                  TSX1    EVAL_VAL
         1 000735   001437 702000 1                  TSX2    ALTRT

      156     9368    4                  DO CASE (OP$TAB.OPCODE) ; /* which type of instr. to encode */

   9368  1 000736   200017 236100                    LDQ     OP$TAB,,AUTO
         1 000737   000010 772000                    QRL     8
         1 000740   001777 376007                    ANQ     1023,DL
         1 000741   000013 116007                    CMPQ    11,DL
         1 000742   000744 602006 1                  TNC     s:9368+6,QL
         1 000743   001361 710000 1                  TRA     s:9464
         1 000744   001030 710000 1                  TRA     s:9384
         1 000745   001030 710000 1                  TRA     s:9384
         1 000746   000757 710000 1                  TRA     s:9370
PL6.E3A0      #001=DDS$INSTR File=DDS$INSTR.:E05TSI                              TUE 07/29/97 14:17 Page:36
         1 000747   001030 710000 1                  TRA     s:9384
         1 000750   000766 710000 1                  TRA     s:9373
         1 000751   001030 710000 1                  TRA     s:9384
         1 000752   001000 710000 1                  TRA     s:9376
         1 000753   001030 710000 1                  TRA     s:9384
         1 000754   001007 710000 1                  TRA     s:9379
         1 000755   001030 710000 1                  TRA     s:9384
         1 000756   001020 710000 1                  TRA     s:9382

      157     9369    4                    CASE (2/*T_ADSC*/);         /* ADSC (N) - length (or reg) */

      158     9370    4                       IF TEMP > BITBIN ('7777'O) THEN GOTO ARETOCT;

   9370  1 000757   200010 235100                    LDA     TEMP,,AUTO
         1 000760   007777 115007                    CMPA    4095,DL
         1 000761   001413 605400 1                  TPNZ    ARETOCT

      159     9371    4                       ADSC.N = TEMP;

   9371  1 000762   200004 470500                    LDP0    INS$,,AUTO
         1 000763   200010 236100                    LDQ     TEMP,,AUTO
         1 000764   000000 752103                    STCQ    0,'03'O,PR0
         1 000765   001361 710000 1                  TRA     s:9464

      160     9372    4                    CASE (4/*T_BDSC*/);         /* BDSC (C) - character number */

      161     9373    4                       IF TEMP > 3 THEN GOTO ARETOCT;

   9373  1 000766   200010 235100                    LDA     TEMP,,AUTO
         1 000767   000003 115007                    CMPA    3,DL
         1 000770   001413 605400 1                  TPNZ    ARETOCT

      162     9374    4                       BDSC.C = TAG;

   9374  1 000771   200004 470500                    LDP0    INS$,,AUTO
         1 000772   200011 236100                    LDQ     TAG,,AUTO
         1 000773   000020 736000                    QLS     16
PL6.E3A0      #001=DDS$INSTR File=DDS$INSTR.:E05TSI                              TUE 07/29/97 14:17 Page:37
         1 000774   000000 676100                    ERQ     0,,PR0
         1 000775   600000 376007                    ANQ     -65536,DL
         1 000776   000000 656100                    ERSQ    0,,PR0
         1 000777   001361 710000 1                  TRA     s:9464

      163     9375    4                    CASE (6/*T_NDSC*/);         /* NDSC (N) - length (or reg) */

      164     9376    4                       IF TEMP > BITBIN ('77'O) THEN GOTO ARETOCT;

   9376  1 001000   200010 235100                    LDA     TEMP,,AUTO
         1 001001   000077 115007                    CMPA    63,DL
         1 001002   001413 605400 1                  TPNZ    ARETOCT

      165     9377    4                       NDSC.N = TEMP;

   9377  1 001003   200004 470500                    LDP0    INS$,,AUTO
         1 001004   200010 236100                    LDQ     TEMP,,AUTO
         1 001005   000000 752101                    STCQ    0,'01'O,PR0
         1 001006   001361 710000 1                  TRA     s:9464

      166     9378    4                    CASE (8/*T_SDSC*/);         /* SDSC (L) - length */

      167     9379    4                       IF TEMP > 4 THEN GOTO ARETOCT;

   9379  1 001007   200010 235100                    LDA     TEMP,,AUTO
         1 001010   000004 115007                    CMPA    4,DL
         1 001011   001413 605400 1                  TPNZ    ARETOCT

      168     9380    4                       SDSC.L = TEMP;

   9380  1 001012   200004 470500                    LDP0    INS$,,AUTO
         1 001013   200010 236100                    LDQ     TEMP,,AUTO
         1 001014   000000 676100                    ERQ     0,,PR0
         1 001015   000007 376007                    ANQ     7,DL
         1 001016   000000 656100                    ERSQ    0,,PR0
         1 001017   001361 710000 1                  TRA     s:9464

PL6.E3A0      #001=DDS$INSTR File=DDS$INSTR.:E05TSI                              TUE 07/29/97 14:17 Page:38
      169     9381    4                    CASE (10/*T_VDSC*/);         /* VDSC (R) - index register */

      170     9382    4                       IF TEMP > 15 THEN GOTO ARETOCT;

   9382  1 001020   200010 235100                    LDA     TEMP,,AUTO
         1 001021   000017 115007                    CMPA    15,DL
         1 001022   001413 605400 1                  TPNZ    ARETOCT

      171     9383    4                       VDSC.RN = TEMP;

   9383  1 001023   200004 470500                    LDP0    INS$,,AUTO
         1 001024   200010 236100                    LDQ     TEMP,,AUTO
         1 001025   000000 676100                    ERQ     0,,PR0
         1 001026   000017 376007                    ANQ     15,DL
         1 001027   000000 656100                    ERSQ    0,,PR0

      172     9384    4                    END;                   /* do case (OP$TAB.OPCODE) */

   9384  1 001030   001361 710000 1                  TRA     s:9464

      173     9385    3               CASE (246);            /* TAG_NUM3 */

      174     9386    3                  CALL EVAL_VAL ALTRET (ALTRT);

   9386  1 001031   001440 701000 1                  TSX1    EVAL_VAL
         1 001032   001437 702000 1                  TSX2    ALTRT

      175     9387    4                  DO CASE (OP$TAB.OPCODE) ; /* which type of instr. to encode */

   9387  1 001033   200017 236100                    LDQ     OP$TAB,,AUTO
         1 001034   000010 772000                    QRL     8
         1 001035   001777 376007                    ANQ     1023,DL
         1 001036   000004 136007                    SBLQ    4,DL
         1 001037   000005 116007                    CMPQ    5,DL
         1 001040   001042 602006 1                  TNC     s:9387+7,QL
         1 001041   001361 710000 1                  TRA     s:9464
         1 001042   001047 710000 1                  TRA     s:9389
PL6.E3A0      #001=DDS$INSTR File=DDS$INSTR.:E05TSI                              TUE 07/29/97 14:17 Page:39
         1 001043   001104 710000 1                  TRA     s:9397
         1 001044   001061 710000 1                  TRA     s:9392
         1 001045   001104 710000 1                  TRA     s:9397
         1 001046   001073 710000 1                  TRA     s:9395

      176     9388    4                    CASE (4/*T_BDSC*/);         /* BDSC (B) - bit number */

      177     9389    4                       IF TEMP > 9 THEN GOTO ARETOCT;

   9389  1 001047   200010 235100                    LDA     TEMP,,AUTO
         1 001050   000011 115007                    CMPA    9,DL
         1 001051   001413 605400 1                  TPNZ    ARETOCT

      178     9390    4                       BDSC.B = TAG;

   9390  1 001052   200004 470500                    LDP0    INS$,,AUTO
         1 001053   200011 236100                    LDQ     TAG,,AUTO
         1 001054   000014 736000                    QLS     12
         1 001055   000000 676100                    ERQ     0,,PR0
         1 001056   170000 376007                    ANQ     61440,DL
         1 001057   000000 656100                    ERSQ    0,,PR0
         1 001060   001361 710000 1                  TRA     s:9464

      179     9391    4                    CASE (6/*T_NDSC*/);         /* NDSC (S) - sign and sign type */

      180     9392    4                       IF TEMP > 3 THEN GOTO ARETOCT;

   9392  1 001061   200010 235100                    LDA     TEMP,,AUTO
         1 001062   000003 115007                    CMPA    3,DL
         1 001063   001413 605400 1                  TPNZ    ARETOCT

      181     9393    4                       NDSC.SX = TEMP;

   9393  1 001064   200004 470500                    LDP0    INS$,,AUTO
         1 001065   200010 236100                    LDQ     TEMP,,AUTO
         1 001066   000014 736000                    QLS     12
         1 001067   000000 676100                    ERQ     0,,PR0
PL6.E3A0      #001=DDS$INSTR File=DDS$INSTR.:E05TSI                              TUE 07/29/97 14:17 Page:40
         1 001070   030000 376007                    ANQ     12288,DL
         1 001071   000000 656100                    ERSQ    0,,PR0
         1 001072   001361 710000 1                  TRA     s:9464

      182     9394    4                    CASE (8/*T_SDSC*/);         /* SDSC (SE) - state of enlarge */

      183     9395    4                       IF TEMP > 1 THEN GOTO ARETOCT;

   9395  1 001073   200010 235100                    LDA     TEMP,,AUTO
         1 001074   000001 115007                    CMPA    1,DL
         1 001075   001413 605400 1                  TPNZ    ARETOCT

      184     9396    4                       SDSC.SE = TEMP;

   9396  1 001076   200004 470500                    LDP0    INS$,,AUTO
         1 001077   200010 236100                    LDQ     TEMP,,AUTO
         1 001100   000016 736000                    QLS     14
         1 001101   000000 676100                    ERQ     0,,PR0
         1 001102   040000 376007                    ANQ     16384,DL
         1 001103   000000 656100                    ERSQ    0,,PR0

      185     9397    4                    END;                   /* do case (OP$TAB.OPCODE) */

   9397  1 001104   001361 710000 1                  TRA     s:9464

      186     9398    3               CASE (247);            /* TAG_NUM4 */

      187     9399    3                  CALL EVAL_VAL ALTRET (ALTRT);

   9399  1 001105   001440 701000 1                  TSX1    EVAL_VAL
         1 001106   001437 702000 1                  TSX2    ALTRT

      188     9400    4                  DO CASE (OP$TAB.OPCODE) ; /* which type of instr. to encode */

   9400  1 001107   200017 236100                    LDQ     OP$TAB,,AUTO
         1 001110   000010 772000                    QRL     8
         1 001111   001777 376007                    ANQ     1023,DL
PL6.E3A0      #001=DDS$INSTR File=DDS$INSTR.:E05TSI                              TUE 07/29/97 14:17 Page:41
         1 001112   000006 136007                    SBLQ    6,DL
         1 001113   000001 116007                    CMPQ    1,DL
         1 001114   001116 602006 1                  TNC     s:9400+7,QL
         1 001115   001361 710000 1                  TRA     s:9464
         1 001116   001117 710000 1                  TRA     s:9402

      189     9401    4                    CASE (6/*T_NDSC*/);         /* NDSC (SF) - scale factor */

      190     9402    4                       IF TEMP > BITBIN ('77'O) THEN GOTO ARETOCT;

   9402  1 001117   200010 235100                    LDA     TEMP,,AUTO
         1 001120   000077 115007                    CMPA    63,DL
         1 001121   001413 605400 1                  TPNZ    ARETOCT

      191     9403    4                       NDSC.SF = TEMP;

   9403  1 001122   200004 470500                    LDP0    INS$,,AUTO
         1 001123   200010 236100                    LDQ     TEMP,,AUTO
         1 001124   000006 736000                    QLS     6
         1 001125   000000 752102                    STCQ    0,'02'O,PR0

      192     9404    4                    END;                   /* do case (OP$TAB.OPCODE) */

   9404  1 001126   001361 710000 1                  TRA     s:9464

      193     9405    3               CASE (240);             /* EIS_MF0 - 1st MF for EIS instr */

      194     9406    3                  IF (OP$TAB.DESC1 < 1/*D_ADSC*/ OR OP$TAB.DESC1 > 5/*D_VDSC*/) THEN
              9406                           GOTO ARETSYN;

   9406  1 001127   200021 236100                    LDQ     OP$TAB+2,,AUTO
         1 001130   700000 316007                    CANQ    -32768,DL
         1 001131   001423 600000 1                  TZE     ARETSYN
         1 001132   200021 236100                    LDQ     OP$TAB+2,,AUTO
         1 001133   700000 376007                    ANQ     -32768,DL
         1 001134   600000 116007                    CMPQ    -65536,DL
         1 001135   001423 603000 1                  TRC     ARETSYN
PL6.E3A0      #001=DDS$INSTR File=DDS$INSTR.:E05TSI                              TUE 07/29/97 14:17 Page:42

      195     9407    3                  CALL EVAL_MF;

   9407  1 001136   002061 701000 1                  TSX1    EVAL_MF
         1 001137   000000 011000                    NOP     0

      196     9408    3                  EIS.MF1 = MF_FIELD;

   9408  1 001140   200004 470500                    LDP0    INS$,,AUTO
         1 001141   200016 236100                    LDQ     MF_FIELD,,AUTO
         1 001142   000035 772000                    QRL     29
         1 001143   000000 676100                    ERQ     0,,PR0
         1 001144   000177 376007                    ANQ     127,DL
         1 001145   000000 656100                    ERSQ    0,,PR0
         1 001146   001361 710000 1                  TRA     s:9464

      197     9409    3               CASE (241);             /* EIS_MF1 - 2nd MF for EIS instr */

      198     9410    3                  IF (OP$TAB.DESC2 < 1/*D_ADSC*/ OR OP$TAB.DESC2 > 5/*D_VDSC*/) THEN
              9410                           GOTO ARETSYN;

   9410  1 001147   200021 236100                    LDQ     OP$TAB+2,,AUTO
         1 001150   070000 316007                    CANQ    28672,DL
         1 001151   001423 600000 1                  TZE     ARETSYN
         1 001152   200021 236100                    LDQ     OP$TAB+2,,AUTO
         1 001153   070000 376007                    ANQ     28672,DL
         1 001154   060000 116007                    CMPQ    24576,DL
         1 001155   001423 603000 1                  TRC     ARETSYN

      199     9411    3                  CALL EVAL_MF;

   9411  1 001156   002061 701000 1                  TSX1    EVAL_MF
         1 001157   000000 011000                    NOP     0

      200     9412    3                  EIS.MF2 = MF_FIELD;

   9412  1 001160   200004 470500                    LDP0    INS$,,AUTO
PL6.E3A0      #001=DDS$INSTR File=DDS$INSTR.:E05TSI                              TUE 07/29/97 14:17 Page:43
         1 001161   200016 236100                    LDQ     MF_FIELD,,AUTO
         1 001162   000013 772000                    QRL     11
         1 001163   000000 676100                    ERQ     0,,PR0
         1 001164   000177 376003                    ANQ     127,DU
         1 001165   000000 656100                    ERSQ    0,,PR0
         1 001166   001361 710000 1                  TRA     s:9464

      201     9413    3               CASE (242);             /* EIS_MF2 - 3rd MF for EIS instr */

      202     9414    3                  IF (OP$TAB.DESC3 < 1/*D_ADSC*/ OR OP$TAB.DESC3 > 5/*D_VDSC*/) THEN
              9414                           GOTO ARETSYN;

   9414  1 001167   200021 236100                    LDQ     OP$TAB+2,,AUTO
         1 001170   007000 316007                    CANQ    3584,DL
         1 001171   001423 600000 1                  TZE     ARETSYN
         1 001172   200021 236100                    LDQ     OP$TAB+2,,AUTO
         1 001173   007000 376007                    ANQ     3584,DL
         1 001174   006000 116007                    CMPQ    3072,DL
         1 001175   001423 603000 1                  TRC     ARETSYN

      203     9415    3                  CALL EVAL_MF;

   9415  1 001176   002061 701000 1                  TSX1    EVAL_MF
         1 001177   000000 011000                    NOP     0

      204     9416    3                  EIS.XX.MF3 = MF_FIELD;

   9416  1 001200   200004 470500                    LDP0    INS$,,AUTO
         1 001201   200016 236100                    LDQ     MF_FIELD,,AUTO
         1 001202   000002 772000                    QRL     2
         1 001203   000000 676100                    ERQ     0,,PR0
         1 001204   177000 376003                    ANQ     65024,DU
         1 001205   000000 656100                    ERSQ    0,,PR0
         1 001206   001361 710000 1                  TRA     s:9464

      205     9417    3               CASE (243);           /* EIS_EXTRA - extra trailing stuff */

PL6.E3A0      #001=DDS$INSTR File=DDS$INSTR.:E05TSI                              TUE 07/29/97 14:17 Page:44
      206     9418    3                  CALL EVAL_VAL ALTRET (ALTRT);

   9418  1 001207   001440 701000 1                  TSX1    EVAL_VAL
         1 001210   001437 702000 1                  TSX2    ALTRT

      207     9419    3                  IF OP$TAB.EIS.FILL OR OP$TAB.EIS.MASK

   9419  1 001211   200017 236100                    LDQ     OP$TAB,,AUTO
         1 001212   100000 316003                    CANQ    32768,DU
         1 001213   001216 601000 1                  TNZ     s:9421
         1 001214   040000 316003                    CANQ    16384,DU
         1 001215   001232 600000 1                  TZE     s:9426

      208     9420    4                  THEN DO;

      209     9421    4                       IF TEMP > BITBIN ('777'O) THEN GOTO ARETOCT;

   9421  1 001216   200010 235100                    LDA     TEMP,,AUTO
         1 001217   000777 115007                    CMPA    511,DL
         1 001220   001413 605400 1                  TPNZ    ARETOCT

      210     9422    4                       EIS.FILL = TEMP;

   9422  1 001221   200004 470500                    LDP0    INS$,,AUTO
         1 001222   200010 236100                    LDQ     TEMP,,AUTO
         1 001223   000033 736000                    QLS     27
         1 001224   000000 552140                    STBQ    0,'40'O,PR0

      211     9423    4                       OP$TAB.EIS.FILL = '0'B;

   9423  1 001225   000000 236000 2                  LDQ     0
         1 001226   200017 356100                    ANSQ    OP$TAB,,AUTO

      212     9424    4                       OP$TAB.EIS.MASK = '0'B;

   9424  1 001227   000001 236000 2                  LDQ     1
         1 001230   200017 356100                    ANSQ    OP$TAB,,AUTO
PL6.E3A0      #001=DDS$INSTR File=DDS$INSTR.:E05TSI                              TUE 07/29/97 14:17 Page:45

      213     9425    4                     END;

   9425  1 001231   001361 710000 1                  TRA     s:9464

      214     9426    3                  ELSE IF OP$TAB.EIS.BOLR

   9426  1 001232   020000 316003                    CANQ    8192,DU
         1 001233   001250 600000 1                  TZE     s:9432

      215     9427    4                       THEN DO;

      216     9428    4                            IF TEMP > 15 THEN GOTO ARETOCT;

   9428  1 001234   200010 235100                    LDA     TEMP,,AUTO
         1 001235   000017 115007                    CMPA    15,DL
         1 001236   001413 605400 1                  TPNZ    ARETOCT

      217     9429    4                            EIS.X.BOLR = TEMP;

   9429  1 001237   200004 470500                    LDP0    INS$,,AUTO
         1 001240   200010 236100                    LDQ     TEMP,,AUTO
         1 001241   000033 736000                    QLS     27
         1 001242   000000 676100                    ERQ     0,,PR0
         1 001243   017000 376003                    ANQ     7680,DU
         1 001244   000000 656100                    ERSQ    0,,PR0

      218     9430    4                            OP$TAB.EIS.BOLR = '0'B;

   9430  1 001245   000002 236000 2                  LDQ     2
         1 001246   200017 356100                    ANSQ    OP$TAB,,AUTO

      219     9431    4                          END;

   9431  1 001247   001361 710000 1                  TRA     s:9464

      220     9432    3                       ELSE IF OP$TAB.EIS.RD
PL6.E3A0      #001=DDS$INSTR File=DDS$INSTR.:E05TSI                              TUE 07/29/97 14:17 Page:46

   9432  1 001250   004000 316003                    CANQ    2048,DU
         1 001251   001266 600000 1                  TZE     s:9438

      221     9433    4                            THEN DO;

      222     9434    4                                 IF TEMP > 1 THEN GOTO ARETOCT;

   9434  1 001252   200010 235100                    LDA     TEMP,,AUTO
         1 001253   000001 115007                    CMPA    1,DL
         1 001254   001413 605400 1                  TPNZ    ARETOCT

      223     9435    4                                 EIS.RD = TEMP;

   9435  1 001255   200004 470500                    LDP0    INS$,,AUTO
         1 001256   200010 236100                    LDQ     TEMP,,AUTO
         1 001257   000031 736000                    QLS     25
         1 001260   000000 676100                    ERQ     0,,PR0
         1 001261   000200 376003                    ANQ     128,DU
         1 001262   000000 656100                    ERSQ    0,,PR0

      224     9436    4                                 OP$TAB.EIS.RD = '0'B;

   9436  1 001263   000003 236000 2                  LDQ     3
         1 001264   200017 356100                    ANSQ    OP$TAB,,AUTO

      225     9437    4                               END;

   9437  1 001265   001361 710000 1                  TRA     s:9464

      226     9438    3                            ELSE IF OP$TAB.EIS.F OR OP$TAB.EIS.P

   9438  1 001266   010000 316003                    CANQ    4096,DU
         1 001267   001272 601000 1                  TNZ     s:9440
         1 001270   002000 316003                    CANQ    1024,DU
         1 001271   001310 600000 1                  TZE     s:9445

PL6.E3A0      #001=DDS$INSTR File=DDS$INSTR.:E05TSI                              TUE 07/29/97 14:17 Page:47
      227     9439    4                                 THEN DO;

      228     9440    4                                      IF TEMP > 1 THEN GOTO ARETOCT;

   9440  1 001272   200010 235100                    LDA     TEMP,,AUTO
         1 001273   000001 115007                    CMPA    1,DL
         1 001274   001413 605400 1                  TPNZ    ARETOCT

      229     9441    4                                      EIS.X.FP = TEMP;

   9441  1 001275   200004 470500                    LDP0    INS$,,AUTO
         1 001276   200010 236100                    LDQ     TEMP,,AUTO
         1 001277   000043 736000                    QLS     35
         1 001300   000000 676100                    ERQ     0,,PR0
         1 001301   400000 376003                    ANQ     -131072,DU
         1 001302   000000 656100                    ERSQ    0,,PR0

      230     9442    4                                      OP$TAB.EIS.F = '0'B;

   9442  1 001303   000004 236000 2                  LDQ     4
         1 001304   200017 356100                    ANSQ    OP$TAB,,AUTO

      231     9443    4                                      OP$TAB.EIS.P = '0'B;

   9443  1 001305   000005 236000 2                  LDQ     5
         1 001306   200017 356100                    ANSQ    OP$TAB,,AUTO

      232     9444    4                                    END;

   9444  1 001307   001361 710000 1                  TRA     s:9464

      233     9445    3                                 ELSE IF OP$TAB.EIS.T

   9445  1 001310   200017 430100                    FSZN    OP$TAB,,AUTO
         1 001311   001423 605000 1                  TPL     ARETSYN

      234     9446    4                                      THEN DO;
PL6.E3A0      #001=DDS$INSTR File=DDS$INSTR.:E05TSI                              TUE 07/29/97 14:17 Page:48

      235     9447    4                                           IF TEMP > 1 THEN GOTO ARETOCT;

   9447  1 001312   200010 235100                    LDA     TEMP,,AUTO
         1 001313   000001 115007                    CMPA    1,DL
         1 001314   001413 605400 1                  TPNZ    ARETOCT

      236     9448    4                                           EIS.T = TEMP;

   9448  1 001315   200004 470500                    LDP0    INS$,,AUTO
         1 001316   200010 236100                    LDQ     TEMP,,AUTO
         1 001317   000032 736000                    QLS     26
         1 001320   000000 676100                    ERQ     0,,PR0
         1 001321   000400 376003                    ANQ     256,DU
         1 001322   000000 656100                    ERSQ    0,,PR0

      237     9449    4                                           OP$TAB.EIS.T = '0'B;

   9449  1 001323   000006 236000 2                  LDQ     6
         1 001324   200017 356100                    ANSQ    OP$TAB,,AUTO

      238     9450    4                                         END;

   9450  1 001325   001361 710000 1                  TRA     s:9464

      239     9451    3                                      ELSE
      240     9452    3                                           GOTO ARETSYN;
      241     9453    3               CASE (66);             /* PR_CODE - AR or PR specified */

      242     9454    3                  INS.YFIELD.DR = ASCBIN(SUBSTR(NC$->POB.SUBLK$(0)->POS.TEXT,0,1)) -
              9454                           ASCBIN('0');

   9454  1 001326   100003 473500                    LDP3    3,,PR1
         1 001327   300004 236100                    LDQ     4,,PR3
         1 001330   000033 772000                    QRL     27
         1 001331   300004 236100                    LDQ     4,,PR3
         1 001332   000022 772000                    QRL     18
PL6.E3A0      #001=DDS$INSTR File=DDS$INSTR.:E05TSI                              TUE 07/29/97 14:17 Page:49
         1 001333   000777 376007                    ANQ     511,DL
         1 001334   200004 474500                    LDP4    INS$,,AUTO
         1 001335   000060 136007                    SBLQ    48,DL
         1 001336   000041 736000                    QLS     33
         1 001337   400000 676100                    ERQ     0,,PR4
         1 001340   700000 376003                    ANQ     -32768,DU
         1 001341   400000 656100                    ERSQ    0,,PR4

      243     9455    3                  IF ( OP$TAB.TYPE = 6/*T_INPUT*/ AND

   9455  1 001342   200017 236100                    LDQ     OP$TAB,,AUTO
         1 001343   000370 376007                    ANQ     248,DL
         1 001344   000060 116007                    CMPQ    48,DL
         1 001345   001352 601000 1                  TNZ     s:9455+8
         1 001346   200017 236100                    LDQ     OP$TAB,,AUTO
         1 001347   777400 376007                    ANQ     -256,DL
         1 001350   006000 116007                    CMPQ    3072,DL
         1 001351   001361 601000 1                  TNZ     s:9464
         1 001352   200017 236100                    LDQ     OP$TAB,,AUTO
         1 001353   040000 316003                    CANQ    16384,DU
         1 001354   001361 601000 1                  TNZ     s:9464

      244     9456    3                    OP$TAB.OPCODE ~= 12/*T_ARG*/ ) OR
      245     9457    3                    OP$TAB.NIS.AWDX
      246     9458    3                  THEN ;
      247     9459    3                  ELSE INS.AR = '1'B;

   9459  1 001355   000100 236007                    LDQ     64,DL
         1 001356   400000 256100                    ORSQ    0,,PR4
         1 001357   001361 710000 1                  TRA     s:9464

      248     9460    3               CASE (69);          /* COMMA_CODE - do nothing */

      249     9461    3               CASE (ELSE);                /* ??? */

      250     9462    3                  GOTO ARETDER;

PL6.E3A0      #001=DDS$INSTR File=DDS$INSTR.:E05TSI                              TUE 07/29/97 14:17 Page:50
   9462  1 001360   001417 710000 1                  TRA     ARETDER

      251     9463    3               END;                        /* do case (NC$ -> POB.CODE) */

      252     9464    2           END;                            /* "DO IX" */

   9464  1 001361   200006 054100                    AOS     IX,,AUTO
         1 001362   200003 470500                    LDP0    @N$,,AUTO
         1 001363   000000 471500                    LDP1    0,,PR0
         1 001364   100001 236100                    LDQ     1,,PR1
         1 001365   000022 772000                    QRL     18
         1 001366   200006 116100                    CMPQ    IX,,AUTO
         1 001367   000020 605400 1                  TPNZ    s:9297

      253     9465    1        IF NC$ -> POB.CODE = 69    /* COMMA_CODE */

   9465  1 001370   200007 473500                    LDP3    NC$,,AUTO
         1 001371   300000 720100                    LXL0    0,,PR3
         1 001372   000105 100003                    CMPX0   69,DU
         1 001373   001423 600000 1                  TZE     ARETSYN

      254     9466    1        THEN GOTO ARETSYN;
      255     9467    1        IF NOT VREF_HERE

   9467  1 001374   200012 234100                    SZN     VREF_HERE,,AUTO
         1 001375   001406 604000 1                  TMI     s:9472

      256     9468    2        THEN DO;                           /* MAKE MY OWN VREF */

      257     9469    2             S_D.ACCUM = INS.Y;

   9469  1 001376   200004 474500                    LDP4    INS$,,AUTO
         1 001377   400000 236100                    LDQ     0,,PR4
         1 001400   000022 772000                    QRL     18
         1 001401   000000 475400 xsym               LDP5    S_D$
         1 001402   500137 756100                    STQ     95,,PR5

PL6.E3A0      #001=DDS$INSTR File=DDS$INSTR.:E05TSI                              TUE 07/29/97 14:17 Page:51
      258     9470    2             CALL DDS$VREFCOMD ALTRET( ALTRT );

   9470  1 001403   000002 631400 xsym               EPPR1   B_VECTNIL+2
         1 001404   000000 701000 xent               TSX1    DDS$VREFCOMD
         1 001405   001437 702000 1                  TSX2    ALTRT

      259     9471    2           END;                            /* MAKE MY OWN VREF */

      260     9472    1        S_D.IGNPR = GOTZERO;

   9472  1 001406   200013 236100                    LDQ     GOTZERO,,AUTO
         1 001407   400000 376003                    ANQ     -131072,DU
         1 001410   000000 470400 xsym               LDP0    S_D$
         1 001411   000504 756100                    STQ     324,,PR0

      261     9473        /**/
      262     9474    1        RETURN;

   9474  1 001412   000000 702200 xent               TSX2  ! X66_ARET

      263     9475        /**/
      264     9476    1   ARETOCT: S_D.ERROR = 46; GOTO ALTRT; /* E@TOOLARGE */

   9476  1 001413   000056 235007       ARETOCT      LDA     46,DL
         1 001414   000000 470400 xsym               LDP0    S_D$
         1 001415   000013 755100                    STA     11,,PR0

   9476  1 001416   001437 710000 1                  TRA     ALTRT

      265     9477    1   ARETDER: S_D.ERROR = 501; GOTO ALTRT; /* E@DERR1 */

   9477  1 001417   000765 235007       ARETDER      LDA     501,DL
         1 001420   000000 473400 xsym               LDP3    S_D$
         1 001421   300013 755100                    STA     11,,PR3

   9477  1 001422   001437 710000 1                  TRA     ALTRT

PL6.E3A0      #001=DDS$INSTR File=DDS$INSTR.:E05TSI                              TUE 07/29/97 14:17 Page:52
      266     9478    1   ARETSYN: S_D.ERROR = 53; GOTO ALTRT; /* E@SYNTAX */

   9478  1 001423   000065 235007       ARETSYN      LDA     53,DL
         1 001424   000000 470400 xsym               LDP0    S_D$
         1 001425   000013 755100                    STA     11,,PR0

   9478  1 001426   001437 710000 1                  TRA     ALTRT

      267     9479    1   ARETEVAL: S_D.ERROR = 43; GOTO ALTRT; /* E@NOEVAL */

   9479  1 001427   000053 235007       ARETEVAL     LDA     43,DL
         1 001430   000000 471400 xsym               LDP1    S_D$
         1 001431   100013 755100                    STA     11,,PR1

   9479  1 001432   001437 710000 1                  TRA     ALTRT

      268     9480    1   ARETOPC: S_D.ERROR = 45; GOTO ALTRT; /* E@OPCODE */

   9480  1 001433   000055 235007       ARETOPC      LDA     45,DL
         1 001434   000000 470400 xsym               LDP0    S_D$
         1 001435   000013 755100                    STA     11,,PR0

   9480  1 001436   001437 710000 1                  TRA     ALTRT

      269     9481        /**/
      270     9482    1   ALTRT: ALTRETURN;

   9482  1 001437   000000 702200 xent  ALTRT        TSX2  ! X66_AALT

      271     9483        /**/
      272     9484        %EJECT;
PL6.E3A0      #001=DDS$INSTR File=DDS$INSTR.:E05TSI                              TUE 07/29/97 14:17 Page:53
      273     9485        /* EVAL_VAL - evaluates a "TAG" or "TAGx" node returning a UBIN */
      274     9486        /*    value in the variable TEMP.                               */
      275     9487    1   EVAL_VAL: PROC ALTRET;

   9487  1 001440   200032 741300       EVAL_VAL     STX1  ! IX+2,,AUTO

      276     9488
      277     9489    2   DCL N$ PTR;
      278     9490
      279     9491    2        N$ = NC$;

   9491  1 001441   200007 236100                    LDQ     NC$,,AUTO
         1 001442   200033 756100                    STQ     N$,,AUTO

   9491  1 001443                       RECASE       null
      280     9492    2   RECASE:;
      281     9493    3        DO CASE( N$ -> POB.CODE );

   9493  1 001443   200033 470500                    LDP0    N$,,AUTO
         1 001444   000000 236100                    LDQ     0,,PR0
         1 001445   777777 376007                    ANQ     -1,DL
         1 001446   000010 136007                    SBLQ    8,DL
         1 001447   000330 116007                    CMPQ    216,DL
         1 001450   001452 602006 1                  TNC     RECASE+7,QL
         1 001451   002052 710000 1                  TRA     s:9507
         1 001452   002032 710000 1                  TRA     s:9503
         1 001453   002052 710000 1                  TRA     s:9507
         1 001454   002052 710000 1                  TRA     s:9507
         1 001455   002052 710000 1                  TRA     s:9507
         1 001456   002052 710000 1                  TRA     s:9507
         1 001457   002052 710000 1                  TRA     s:9507
         1 001460   002052 710000 1                  TRA     s:9507
         1 001461   002052 710000 1                  TRA     s:9507
         1 001462   002052 710000 1                  TRA     s:9507
         1 001463   002052 710000 1                  TRA     s:9507
         1 001464   002052 710000 1                  TRA     s:9507
         1 001465   002052 710000 1                  TRA     s:9507
PL6.E3A0      #001=DDS$INSTR File=DDS$INSTR.:E05TSI                              TUE 07/29/97 14:17 Page:54
         1 001466   002052 710000 1                  TRA     s:9507
         1 001467   002052 710000 1                  TRA     s:9507
         1 001470   002052 710000 1                  TRA     s:9507
         1 001471   002052 710000 1                  TRA     s:9507
         1 001472   002052 710000 1                  TRA     s:9507
         1 001473   002052 710000 1                  TRA     s:9507
         1 001474   002052 710000 1                  TRA     s:9507
         1 001475   002041 710000 1                  TRA     s:9505
         1 001476   002052 710000 1                  TRA     s:9507
         1 001477   002052 710000 1                  TRA     s:9507
         1 001500   002052 710000 1                  TRA     s:9507
         1 001501   002052 710000 1                  TRA     s:9507
         1 001502   002052 710000 1                  TRA     s:9507
         1 001503   002052 710000 1                  TRA     s:9507
         1 001504   002052 710000 1                  TRA     s:9507
         1 001505   002052 710000 1                  TRA     s:9507
         1 001506   002052 710000 1                  TRA     s:9507
         1 001507   002052 710000 1                  TRA     s:9507
         1 001510   002052 710000 1                  TRA     s:9507
         1 001511   002052 710000 1                  TRA     s:9507
         1 001512   002052 710000 1                  TRA     s:9507
         1 001513   002052 710000 1                  TRA     s:9507
         1 001514   002052 710000 1                  TRA     s:9507
         1 001515   002052 710000 1                  TRA     s:9507
         1 001516   002052 710000 1                  TRA     s:9507
         1 001517   002052 710000 1                  TRA     s:9507
         1 001520   002052 710000 1                  TRA     s:9507
         1 001521   002052 710000 1                  TRA     s:9507
         1 001522   002052 710000 1                  TRA     s:9507
         1 001523   002052 710000 1                  TRA     s:9507
         1 001524   002052 710000 1                  TRA     s:9507
         1 001525   002052 710000 1                  TRA     s:9507
         1 001526   002052 710000 1                  TRA     s:9507
         1 001527   002052 710000 1                  TRA     s:9507
         1 001530   002052 710000 1                  TRA     s:9507
         1 001531   002052 710000 1                  TRA     s:9507
         1 001532   002052 710000 1                  TRA     s:9507
PL6.E3A0      #001=DDS$INSTR File=DDS$INSTR.:E05TSI                              TUE 07/29/97 14:17 Page:55
         1 001533   002052 710000 1                  TRA     s:9507
         1 001534   002052 710000 1                  TRA     s:9507
         1 001535   002052 710000 1                  TRA     s:9507
         1 001536   002052 710000 1                  TRA     s:9507
         1 001537   002052 710000 1                  TRA     s:9507
         1 001540   002052 710000 1                  TRA     s:9507
         1 001541   002052 710000 1                  TRA     s:9507
         1 001542   002052 710000 1                  TRA     s:9507
         1 001543   002052 710000 1                  TRA     s:9507
         1 001544   002052 710000 1                  TRA     s:9507
         1 001545   002052 710000 1                  TRA     s:9507
         1 001546   002052 710000 1                  TRA     s:9507
         1 001547   002052 710000 1                  TRA     s:9507
         1 001550   002052 710000 1                  TRA     s:9507
         1 001551   002052 710000 1                  TRA     s:9507
         1 001552   002052 710000 1                  TRA     s:9507
         1 001553   002052 710000 1                  TRA     s:9507
         1 001554   002052 710000 1                  TRA     s:9507
         1 001555   002052 710000 1                  TRA     s:9507
         1 001556   002052 710000 1                  TRA     s:9507
         1 001557   002052 710000 1                  TRA     s:9507
         1 001560   002052 710000 1                  TRA     s:9507
         1 001561   002052 710000 1                  TRA     s:9507
         1 001562   002052 710000 1                  TRA     s:9507
         1 001563   002052 710000 1                  TRA     s:9507
         1 001564   002052 710000 1                  TRA     s:9507
         1 001565   002052 710000 1                  TRA     s:9507
         1 001566   002052 710000 1                  TRA     s:9507
         1 001567   002052 710000 1                  TRA     s:9507
         1 001570   002052 710000 1                  TRA     s:9507
         1 001571   002052 710000 1                  TRA     s:9507
         1 001572   002052 710000 1                  TRA     s:9507
         1 001573   002052 710000 1                  TRA     s:9507
         1 001574   002052 710000 1                  TRA     s:9507
         1 001575   002052 710000 1                  TRA     s:9507
         1 001576   002052 710000 1                  TRA     s:9507
         1 001577   002052 710000 1                  TRA     s:9507
PL6.E3A0      #001=DDS$INSTR File=DDS$INSTR.:E05TSI                              TUE 07/29/97 14:17 Page:56
         1 001600   002052 710000 1                  TRA     s:9507
         1 001601   002052 710000 1                  TRA     s:9507
         1 001602   002052 710000 1                  TRA     s:9507
         1 001603   002052 710000 1                  TRA     s:9507
         1 001604   002052 710000 1                  TRA     s:9507
         1 001605   002052 710000 1                  TRA     s:9507
         1 001606   002052 710000 1                  TRA     s:9507
         1 001607   002052 710000 1                  TRA     s:9507
         1 001610   002052 710000 1                  TRA     s:9507
         1 001611   002052 710000 1                  TRA     s:9507
         1 001612   002052 710000 1                  TRA     s:9507
         1 001613   002052 710000 1                  TRA     s:9507
         1 001614   002052 710000 1                  TRA     s:9507
         1 001615   002052 710000 1                  TRA     s:9507
         1 001616   002052 710000 1                  TRA     s:9507
         1 001617   002052 710000 1                  TRA     s:9507
         1 001620   002052 710000 1                  TRA     s:9507
         1 001621   002052 710000 1                  TRA     s:9507
         1 001622   002052 710000 1                  TRA     s:9507
         1 001623   002052 710000 1                  TRA     s:9507
         1 001624   002052 710000 1                  TRA     s:9507
         1 001625   002052 710000 1                  TRA     s:9507
         1 001626   002052 710000 1                  TRA     s:9507
         1 001627   002052 710000 1                  TRA     s:9507
         1 001630   002052 710000 1                  TRA     s:9507
         1 001631   002052 710000 1                  TRA     s:9507
         1 001632   002052 710000 1                  TRA     s:9507
         1 001633   002052 710000 1                  TRA     s:9507
         1 001634   002052 710000 1                  TRA     s:9507
         1 001635   002052 710000 1                  TRA     s:9507
         1 001636   002052 710000 1                  TRA     s:9507
         1 001637   002052 710000 1                  TRA     s:9507
         1 001640   002052 710000 1                  TRA     s:9507
         1 001641   002052 710000 1                  TRA     s:9507
         1 001642   002052 710000 1                  TRA     s:9507
         1 001643   002052 710000 1                  TRA     s:9507
         1 001644   002052 710000 1                  TRA     s:9507
PL6.E3A0      #001=DDS$INSTR File=DDS$INSTR.:E05TSI                              TUE 07/29/97 14:17 Page:57
         1 001645   002052 710000 1                  TRA     s:9507
         1 001646   002052 710000 1                  TRA     s:9507
         1 001647   002052 710000 1                  TRA     s:9507
         1 001650   002052 710000 1                  TRA     s:9507
         1 001651   002052 710000 1                  TRA     s:9507
         1 001652   002052 710000 1                  TRA     s:9507
         1 001653   002052 710000 1                  TRA     s:9507
         1 001654   002052 710000 1                  TRA     s:9507
         1 001655   002052 710000 1                  TRA     s:9507
         1 001656   002052 710000 1                  TRA     s:9507
         1 001657   002052 710000 1                  TRA     s:9507
         1 001660   002052 710000 1                  TRA     s:9507
         1 001661   002052 710000 1                  TRA     s:9507
         1 001662   002052 710000 1                  TRA     s:9507
         1 001663   002052 710000 1                  TRA     s:9507
         1 001664   002052 710000 1                  TRA     s:9507
         1 001665   002052 710000 1                  TRA     s:9507
         1 001666   002052 710000 1                  TRA     s:9507
         1 001667   002052 710000 1                  TRA     s:9507
         1 001670   002052 710000 1                  TRA     s:9507
         1 001671   002052 710000 1                  TRA     s:9507
         1 001672   002052 710000 1                  TRA     s:9507
         1 001673   002052 710000 1                  TRA     s:9507
         1 001674   002052 710000 1                  TRA     s:9507
         1 001675   002052 710000 1                  TRA     s:9507
         1 001676   002052 710000 1                  TRA     s:9507
         1 001677   002052 710000 1                  TRA     s:9507
         1 001700   002052 710000 1                  TRA     s:9507
         1 001701   002052 710000 1                  TRA     s:9507
         1 001702   002052 710000 1                  TRA     s:9507
         1 001703   002052 710000 1                  TRA     s:9507
         1 001704   002052 710000 1                  TRA     s:9507
         1 001705   002052 710000 1                  TRA     s:9507
         1 001706   002052 710000 1                  TRA     s:9507
         1 001707   002052 710000 1                  TRA     s:9507
         1 001710   002052 710000 1                  TRA     s:9507
         1 001711   002052 710000 1                  TRA     s:9507
PL6.E3A0      #001=DDS$INSTR File=DDS$INSTR.:E05TSI                              TUE 07/29/97 14:17 Page:58
         1 001712   002052 710000 1                  TRA     s:9507
         1 001713   002052 710000 1                  TRA     s:9507
         1 001714   002052 710000 1                  TRA     s:9507
         1 001715   002052 710000 1                  TRA     s:9507
         1 001716   002052 710000 1                  TRA     s:9507
         1 001717   002052 710000 1                  TRA     s:9507
         1 001720   002052 710000 1                  TRA     s:9507
         1 001721   002052 710000 1                  TRA     s:9507
         1 001722   002052 710000 1                  TRA     s:9507
         1 001723   002052 710000 1                  TRA     s:9507
         1 001724   002052 710000 1                  TRA     s:9507
         1 001725   002052 710000 1                  TRA     s:9507
         1 001726   002052 710000 1                  TRA     s:9507
         1 001727   002052 710000 1                  TRA     s:9507
         1 001730   002052 710000 1                  TRA     s:9507
         1 001731   002052 710000 1                  TRA     s:9507
         1 001732   002052 710000 1                  TRA     s:9507
         1 001733   002052 710000 1                  TRA     s:9507
         1 001734   002052 710000 1                  TRA     s:9507
         1 001735   002052 710000 1                  TRA     s:9507
         1 001736   002052 710000 1                  TRA     s:9507
         1 001737   002052 710000 1                  TRA     s:9507
         1 001740   002052 710000 1                  TRA     s:9507
         1 001741   002052 710000 1                  TRA     s:9507
         1 001742   002052 710000 1                  TRA     s:9507
         1 001743   002052 710000 1                  TRA     s:9507
         1 001744   002052 710000 1                  TRA     s:9507
         1 001745   002052 710000 1                  TRA     s:9507
         1 001746   002052 710000 1                  TRA     s:9507
         1 001747   002052 710000 1                  TRA     s:9507
         1 001750   002052 710000 1                  TRA     s:9507
         1 001751   002052 710000 1                  TRA     s:9507
         1 001752   002052 710000 1                  TRA     s:9507
         1 001753   002052 710000 1                  TRA     s:9507
         1 001754   002052 710000 1                  TRA     s:9507
         1 001755   002052 710000 1                  TRA     s:9507
         1 001756   002052 710000 1                  TRA     s:9507
PL6.E3A0      #001=DDS$INSTR File=DDS$INSTR.:E05TSI                              TUE 07/29/97 14:17 Page:59
         1 001757   002052 710000 1                  TRA     s:9507
         1 001760   002052 710000 1                  TRA     s:9507
         1 001761   002052 710000 1                  TRA     s:9507
         1 001762   002052 710000 1                  TRA     s:9507
         1 001763   002052 710000 1                  TRA     s:9507
         1 001764   002052 710000 1                  TRA     s:9507
         1 001765   002052 710000 1                  TRA     s:9507
         1 001766   002052 710000 1                  TRA     s:9507
         1 001767   002052 710000 1                  TRA     s:9507
         1 001770   002052 710000 1                  TRA     s:9507
         1 001771   002052 710000 1                  TRA     s:9507
         1 001772   002052 710000 1                  TRA     s:9507
         1 001773   002052 710000 1                  TRA     s:9507
         1 001774   002052 710000 1                  TRA     s:9507
         1 001775   002052 710000 1                  TRA     s:9507
         1 001776   002002 710000 1                  TRA     s:9495
         1 001777   002010 710000 1                  TRA     s:9497
         1 002000   002016 710000 1                  TRA     s:9499
         1 002001   002024 710000 1                  TRA     s:9501

      282     9494    3          CASE( 220 );               /* RI MODIFICATION */

      283     9495    3             TEMP = N$->POB.SUBLK$(0)->POB.CODE - 224 + BITBIN( '20'O );

   9495  1 002002   000003 471500                    LDP1    3,,PR0
         1 002003   100000 236100                    LDQ     0,,PR1
         1 002004   777777 376007                    ANQ     -1,DL
         1 002005   000320 136007                    SBLQ    208,DL
         1 002006   200010 756100                    STQ     TEMP,,AUTO
         1 002007   002055 710000 1                  TRA     s:9510

      284     9496    3          CASE( 221 );               /* R MODIFICATION */

      285     9497    3             TEMP = N$->POB.SUBLK$(0)->POB.CODE - 224;

   9497  1 002010   000003 471500                    LDP1    3,,PR0
         1 002011   100000 236100                    LDQ     0,,PR1
PL6.E3A0      #001=DDS$INSTR File=DDS$INSTR.:E05TSI                              TUE 07/29/97 14:17 Page:60
         1 002012   777777 376007                    ANQ     -1,DL
         1 002013   000340 136007                    SBLQ    224,DL
         1 002014   200010 756100                    STQ     TEMP,,AUTO
         1 002015   002055 710000 1                  TRA     s:9510

      286     9498    3          CASE( 222 );               /* IR MODIFICATION */

      287     9499    3             TEMP = N$->POB.SUBLK$(0)->POB.CODE - 224 + BITBIN( '60'O );

   9499  1 002016   000003 471500                    LDP1    3,,PR0
         1 002017   100000 236100                    LDQ     0,,PR1
         1 002020   777777 376007                    ANQ     -1,DL
         1 002021   000260 136007                    SBLQ    176,DL
         1 002022   200010 756100                    STQ     TEMP,,AUTO
         1 002023   002055 710000 1                  TRA     s:9510

      288     9500    3          CASE( 223 );               /* IT MODIFICATION */

      289     9501    3             TEMP = N$->POB.SUBLK$(0)->POB.CODE - 224 + BITBIN( '40'O );

   9501  1 002024   000003 471500                    LDP1    3,,PR0
         1 002025   100000 236100                    LDQ     0,,PR1
         1 002026   777777 376007                    ANQ     -1,DL
         1 002027   000300 136007                    SBLQ    192,DL
         1 002030   200010 756100                    STQ     TEMP,,AUTO
         1 002031   002055 710000 1                  TRA     s:9510

      290     9502    3          CASE( 8 );                /* DEC_CODE */

      291     9503    3             CALL CHARBIN (TEMP, N$ -> POS.TEXT);

   9503  1 002032   000004 236100                    LDQ     4,,PR0
         1 002033   000033 772000                    QRL     27
         1 002034   000000 620006                    EAX0    0,QL
         1 002035   000100 305540                    DTB
         1 002036   000004 230010                    NDSC9   4,,PR0                   cn=1,s=nosgn,sf=0,n=*X0
         1 002037   200010 000004                    NDSC9   TEMP,,AUTO               cn=0,s=lsgnf,sf=0,n=4
PL6.E3A0      #001=DDS$INSTR File=DDS$INSTR.:E05TSI                              TUE 07/29/97 14:17 Page:61
         1 002040   002055 710000 1                  TRA     s:9510

      292     9504    3          CASE( 27 );                /* OCT_CODE */

      293     9505    3             CALL DDS$OCTAL (N$, TEMP) ALTRET (ALT);

   9505  1 002041   200010 631500                    EPPR1   TEMP,,AUTO
         1 002042   200035 451500                    STP1    N$+2,,AUTO
         1 002043   200033 633500                    EPPR3   N$,,AUTO
         1 002044   200034 453500                    STP3    N$+1,,AUTO
         1 002045   200034 630500                    EPPR0   N$+1,,AUTO
         1 002046   000020 631400 xsym               EPPR1   B_VECTNIL+16
         1 002047   000000 701000 xent               TSX1    DDS$OCTAL
         1 002050   002057 702000 1                  TSX2    ALT
         1 002051   002055 710000 1                  TRA     s:9510

      294     9506    3          CASE( ELSE );                    /* not there yet */

      295     9507    3             N$ = N$ -> POB.SUBLK$(0);

   9507  1 002052   000003 236100                    LDQ     3,,PR0
         1 002053   200033 756100                    STQ     N$,,AUTO

      296     9508    3             GOTO RECASE;

   9508  1 002054   001443 710000 1                  TRA     RECASE

      297     9509    3          END;                             /* do case (N$ -> POB.CODE) */

      298     9510    2        RETURN;

   9510  1 002055   200032 221300                    LDX1  ! IX+2,,AUTO
         1 002056   000001 702211                    TSX2  ! 1,X1

      299     9511        /**/
      300     9512    2   ALT: ALTRETURN;

PL6.E3A0      #001=DDS$INSTR File=DDS$INSTR.:E05TSI                              TUE 07/29/97 14:17 Page:62
   9512  1 002057   200032 221300       ALT          LDX1  ! IX+2,,AUTO
         1 002060   000000 702211                    TSX2  ! 0,X1

      301     9513        /**/
      302     9514    2   END EVAL_VAL;
      303     9515        /**/
      304     9516        %EJECT;
PL6.E3A0      #001=DDS$INSTR File=DDS$INSTR.:E05TSI                              TUE 07/29/97 14:17 Page:63
      305     9517        /* EVAL_MF - evaluates an "EIS_MFx" node returning the MF field.
      306     9518        */
      307     9519    1   EVAL_MF: PROC ALTRET;

   9519  1 002061   200026 741300       EVAL_MF      STX1  ! ZITEM$+3,,AUTO

      308     9520
      309     9521    2   DCL NCC$ PTR;
      310     9522    2   DCL IX SBIN;
      311     9523
      312     9524    2        MF_FIELD = '0'B;

   9524  1 002062   200016 450100                    STZ     MF_FIELD,,AUTO

      313     9525    2        NCC$ = NC$;

   9525  1 002063   200007 236100                    LDQ     NC$,,AUTO
         1 002064   200027 756100                    STQ     NCC$,,AUTO

      314     9526    3        DO IX = 0 TO NCC$ -> POB.NSB - 1;

   9526  1 002065   200030 450100                    STZ     IX,,AUTO
         1 002066   002163 710000 1                  TRA     s:9547+1

      315     9527    3             NC$ = NCC$ -> POB.SUBLK$(IX);

   9527  1 002067   200027 470500                    LDP0    NCC$,,AUTO
         1 002070   200030 720100                    LXL0    IX,,AUTO
         1 002071   000003 236110                    LDQ     3,X0,PR0
         1 002072   200007 756100                    STQ     NC$,,AUTO

      316     9528    4             DO CASE( NC$ -> POB.CODE );

   9528  1 002073   200007 471500                    LDP1    NC$,,AUTO
         1 002074   100000 236100                    LDQ     0,,PR1
         1 002075   777777 376007                    ANQ     -1,DL
         1 002076   000364 136007                    SBLQ    244,DL
PL6.E3A0      #001=DDS$INSTR File=DDS$INSTR.:E05TSI                              TUE 07/29/97 14:17 Page:64
         1 002077   000004 116007                    CMPQ    4,DL
         1 002100   002102 602006 1                  TNC     s:9528+7,QL
         1 002101   002162 710000 1                  TRA     s:9547
         1 002102   002106 710000 1                  TRA     s:9530
         1 002103   002121 710000 1                  TRA     s:9534
         1 002104   002134 710000 1                  TRA     s:9538
         1 002105   002147 710000 1                  TRA     s:9542

      317     9529    4               CASE( 244 );           /* AR MODIFICATION */

      318     9530    4                  CALL EVAL_VAL ALTRET (ALT);

   9530  1 002106   001440 701000 1                  TSX1    EVAL_VAL
         1 002107   002175 702000 1                  TSX2    ALT

      319     9531    4                  IF TEMP > 1 THEN GOTO TOOBIG;

   9531  1 002110   200010 235100                    LDA     TEMP,,AUTO
         1 002111   000001 115007                    CMPA    1,DL
         1 002112   002172 605400 1                  TPNZ    TOOBIG

      320     9532    4                  MF_FIELD.AR = TEMP;

   9532  1 002113   200010 236100                    LDQ     TEMP,,AUTO
         1 002114   000043 736000                    QLS     35
         1 002115   200016 676100                    ERQ     MF_FIELD,,AUTO
         1 002116   400000 376003                    ANQ     -131072,DU
         1 002117   200016 656100                    ERSQ    MF_FIELD,,AUTO
         1 002120   002162 710000 1                  TRA     s:9547

      321     9533    4               CASE( 245 );           /* RL MODIFICATION */

      322     9534    4                  CALL EVAL_VAL ALTRET (ALT);

   9534  1 002121   001440 701000 1                  TSX1    EVAL_VAL
         1 002122   002175 702000 1                  TSX2    ALT

PL6.E3A0      #001=DDS$INSTR File=DDS$INSTR.:E05TSI                              TUE 07/29/97 14:17 Page:65
      323     9535    4                  IF TEMP > 1 THEN GOTO TOOBIG;

   9535  1 002123   200010 235100                    LDA     TEMP,,AUTO
         1 002124   000001 115007                    CMPA    1,DL
         1 002125   002172 605400 1                  TPNZ    TOOBIG

      324     9536    4                  MF_FIELD.RL = TEMP;

   9536  1 002126   200010 236100                    LDQ     TEMP,,AUTO
         1 002127   000042 736000                    QLS     34
         1 002130   200016 676100                    ERQ     MF_FIELD,,AUTO
         1 002131   200000 376003                    ANQ     65536,DU
         1 002132   200016 656100                    ERSQ    MF_FIELD,,AUTO
         1 002133   002162 710000 1                  TRA     s:9547

      325     9537    4               CASE( 246 );           /* ID MODIFICATION */

      326     9538    4                  CALL EVAL_VAL ALTRET (ALT);

   9538  1 002134   001440 701000 1                  TSX1    EVAL_VAL
         1 002135   002175 702000 1                  TSX2    ALT

      327     9539    4                  IF TEMP > 1 THEN GOTO TOOBIG;

   9539  1 002136   200010 235100                    LDA     TEMP,,AUTO
         1 002137   000001 115007                    CMPA    1,DL
         1 002140   002172 605400 1                  TPNZ    TOOBIG

      328     9540    4                  MF_FIELD.ID = TEMP;

   9540  1 002141   200010 236100                    LDQ     TEMP,,AUTO
         1 002142   000041 736000                    QLS     33
         1 002143   200016 676100                    ERQ     MF_FIELD,,AUTO
         1 002144   100000 376003                    ANQ     32768,DU
         1 002145   200016 656100                    ERSQ    MF_FIELD,,AUTO
         1 002146   002162 710000 1                  TRA     s:9547

PL6.E3A0      #001=DDS$INSTR File=DDS$INSTR.:E05TSI                              TUE 07/29/97 14:17 Page:66
      329     9541    4               CASE( 247 );           /* REG MODIFICATION */

      330     9542    4                  CALL EVAL_VAL ALTRET (ALT);

   9542  1 002147   001440 701000 1                  TSX1    EVAL_VAL
         1 002150   002175 702000 1                  TSX2    ALT

      331     9543    4                  IF TEMP > 15 THEN GOTO TOOBIG;

   9543  1 002151   200010 235100                    LDA     TEMP,,AUTO
         1 002152   000017 115007                    CMPA    15,DL
         1 002153   002172 605400 1                  TPNZ    TOOBIG

      332     9544    4                  MF_FIELD.REG = TEMP;

   9544  1 002154   200010 236100                    LDQ     TEMP,,AUTO
         1 002155   000035 736000                    QLS     29
         1 002156   200016 676100                    ERQ     MF_FIELD,,AUTO
         1 002157   074000 376003                    ANQ     30720,DU
         1 002160   200016 656100                    ERSQ    MF_FIELD,,AUTO
         1 002161   002162 710000 1                  TRA     s:9547

      333     9545    4               CASE( 69 );         /* COMMA_CODE - ignore it */

      334     9546    4               END;                        /* do case (NC$ -> POB.CODE) */

      335     9547    3           END;                            /* do IX = ... */

   9547  1 002162   200030 054100                    AOS     IX,,AUTO
         1 002163   200027 470500                    LDP0    NCC$,,AUTO
         1 002164   000001 236100                    LDQ     1,,PR0
         1 002165   000022 772000                    QRL     18
         1 002166   200030 116100                    CMPQ    IX,,AUTO
         1 002167   002067 605400 1                  TPNZ    s:9527

      336     9548    2        RETURN;

PL6.E3A0      #001=DDS$INSTR File=DDS$INSTR.:E05TSI                              TUE 07/29/97 14:17 Page:67
   9548  1 002170   200026 221300                    LDX1  ! ZITEM$+3,,AUTO
         1 002171   000001 702211                    TSX2  ! 1,X1

      337     9549        /**/
      338     9550    2   TOOBIG: S_D.ERROR = 46;

   9550  1 002172   000056 236007       TOOBIG       LDQ     46,DL
         1 002173   000000 470400 xsym               LDP0    S_D$
         1 002174   000013 756100                    STQ     11,,PR0

      339     9551    2   ALT: ALTRETURN;

   9551  1 002175   200026 221300       ALT          LDX1  ! ZITEM$+3,,AUTO
         1 002176   000000 702211                    TSX2  ! 0,X1

(unnamed)
 Sect OctLoc
   0     000   000000 006000   000000 777777   777777 400000                    ............

(unnamed)
 Sect OctLoc
   2     000   677777 777777   737777 777777   757777 777777   773777 777777    ................
   2     004   767777 777777   775777 777777   776777 777777                    ............
      340     9552        /**/
      341     9553    2   END EVAL_MF;
      342     9554        /**/
      343     9555    1   END DDS$INSTR;

PL6.E3A0      #001=DDS$INSTR File=DDS$INSTR.:E05TSI                              TUE 07/29/97 14:17 Page:68
--  Include file information  --

   DD_SUBS_C.:E05TOU  is referenced.
   DD_ERR_C.:E05TOU  is referenced.
   DD_PSUBS_C.:E05TOU  is referenced.
   DD_SD_M.:E05TOU  is referenced.
   XUH_MACRO_C.:E05TOU  is referenced.
   DD_SRTN_C.:E05TOU  is referenced.
   DD_ACODE_C.:E05TOU  is referenced.
   DD_ICODE_C.:E05TOU  is referenced.
   DD$DITEM.:E05TOU  cannot be made into a system file and is referenced.
   XU_MACRO_C.:E05TOU  is referenced.
   DD$BASED.:E05TOU  is referenced.
   B$JIT_C.:E05TOU  was found in the system file and is never referenced.
   CP_6_C.:E05TOU  was found in the system file and is never referenced.
      No diagnostics issued in procedure DDS$INSTR.

   Procedure DDS$INSTR requires 1151 words for executable code.
   Procedure DDS$INSTR requires 30 words of local(AUTO) storage.

    No errors detected in file DDS$INSTR.:E05TSI    .
PL6.E3A0      #001=DDS$INSTR File=DDS$INSTR.:E05TSI                              TUE 07/29/97 14:17 Page:69
          *** CROSS REFERENCE LISTING ***
**     DENOTES     IDENTIFIER DEFINITION
<<                 IDENTIFIER'S VALUE SET
>>                 IDENTIFIER'S VALUE USED
<>                 IDENTIFIER SET AND/OR USED
--                 IDENTIFIER REFERENCED
PL6.E3A0      #001=DDS$INSTR File=DDS$INSTR.:E05TSI                              TUE 07/29/97 14:17 Page:70
          MINI XREF LISTING

ADSC.CN
      1370**DCL      9346<<ASSIGN
ADSC.N
      1373**DCL      9371<<ASSIGN
ADSC.TA
      1371**DCL      9303<<ASSIGN
ALT IN PROCEDURE EVAL_MF
      9551**LABEL    9530--CALLALT  9534--CALLALT  9538--CALLALT  9542--CALLALT
ALT IN PROCEDURE EVAL_VAL
      9512**LABEL    9505--CALLALT
ALTRT
      9482**LABEL    9322--CALLALT  9335--CALLALT  9339--CALLALT  9367--CALLALT  9386--CALLALT  9399--CALLALT
      9418--CALLALT  9470--CALLALT  9476--GOTO     9477--GOTO     9478--GOTO     9479--GOTO     9480--GOTO
ARETDER
      9477**LABEL    9462--GOTO
ARETEVAL
      9479**LABEL    9324--GOTO
ARETOCT
      9476**LABEL    9333--GOTO     9336--GOTO     9345--GOTO     9348--GOTO     9351--GOTO     9354--GOTO
      9357--GOTO     9360--GOTO     9363--GOTO     9370--GOTO     9373--GOTO     9376--GOTO     9379--GOTO
      9382--GOTO     9389--GOTO     9392--GOTO     9395--GOTO     9402--GOTO     9421--GOTO     9428--GOTO
      9434--GOTO     9440--GOTO     9447--GOTO
ARETOPC
      9480**LABEL    9301--CALLALT
ARETSYN
      9478**LABEL    9406--GOTO     9410--GOTO     9414--GOTO     9452--GOTO     9466--GOTO
BDSC.B
      1379**DCL      9390<<ASSIGN
BDSC.C
      1378**DCL      9374<<ASSIGN
BDSC.N
      1380**DCL      9349<<ASSIGN
PL6.E3A0      #001=DDS$INSTR File=DDS$INSTR.:E05TSI                              TUE 07/29/97 14:17 Page:71
DDB$MNEM_TO_INSTR
      9284**DCL-ENT  9301--CALL
DDS$OCTAL
      9287**DCL-ENT  9505--CALL
DDS$VREFCOM
      9285**DCL-ENT  9322--CALL
DDS$VREFCOMD
      9286**DCL-ENT  9470--CALL
EIS.FILL
      1409**DCL      1410--REDEF    1414--REDEF    9422<<ASSIGN
EIS.MF1
      1422**DCL      9408<<ASSIGN
EIS.MF2
      1419**DCL      9412<<ASSIGN
EIS.RD
      1418**DCL      9435<<ASSIGN
EIS.T
      1417**DCL      9448<<ASSIGN
EIS.X.BOLR
      1413**DCL      9429<<ASSIGN
EIS.X.FP
      1411**DCL      9441<<ASSIGN
EIS.XX.MF3
      1416**DCL      9416<<ASSIGN
EVAL_MF
      9519**PROC     9407--CALL     9411--CALL     9415--CALL
EVAL_VAL
      9487**PROC     9335--CALL     9339--CALL     9367--CALL     9386--CALL     9399--CALL     9418--CALL
      9530--CALL     9534--CALL     9538--CALL     9542--CALL
GOTZERO
        40**DCL      9472>>ASSIGN
ILH$RH.RH
      1427**DCL      9361<<ASSIGN   9364<<ASSIGN
INS
      1346**DCL      1368--REDEF    1376--REDEF    1383--REDEF    1392--REDEF    1401--REDEF    1408--REDEF
      9290<<ASSIGN   9316<<ASSIGN
PL6.E3A0      #001=DDS$INSTR File=DDS$INSTR.:E05TSI                              TUE 07/29/97 14:17 Page:72
INS.AR
      1358**DCL      9307<<ASSIGN   9459<<ASSIGN
INS.I
      1357**DCL      9319<<ASSIGN
INS.OP
      1356**DCL      9304<<ASSIGN
INS.TAG.TD
      1362**DCL      1363--REDEF
INS.TAGG
      1359**DCL      1360--REDEF    9337<<ASSIGN
INS.VECT.OPE1
      1352**DCL      9312<<ASSIGN
INS.VECT.OPE2
      1354**DCL      9313<<ASSIGN
INS.Y
      1347**DCL      1348--REDEF    1351--REDEF    9469>>ASSIGN
INS.YFIELD.DR
      1349**DCL      9454<<ASSIGN
INS$
        33**DCL      1346--IMP-PTR  1368--IMP-PTR  1376--IMP-PTR  1383--IMP-PTR  1392--IMP-PTR  1401--IMP-PTR
      1408--IMP-PTR  1425--IMP-PTR  9289<<ASSIGN   9290>>ASSIGN   9303>>ASSIGN   9304>>ASSIGN   9307>>ASSIGN
      9312>>ASSIGN   9313>>ASSIGN   9316>>ASSIGN   9319>>ASSIGN   9337>>ASSIGN   9346>>ASSIGN   9349>>ASSIGN
      9352>>ASSIGN   9355>>ASSIGN   9358>>ASSIGN   9361>>ASSIGN   9364>>ASSIGN   9371>>ASSIGN   9374>>ASSIGN
      9377>>ASSIGN   9380>>ASSIGN   9383>>ASSIGN   9390>>ASSIGN   9393>>ASSIGN   9396>>ASSIGN   9403>>ASSIGN
      9408>>ASSIGN   9412>>ASSIGN   9416>>ASSIGN   9422>>ASSIGN   9429>>ASSIGN   9435>>ASSIGN   9441>>ASSIGN
      9448>>ASSIGN   9454>>ASSIGN   9459>>ASSIGN   9469>>ASSIGN
INSBIN
      1424**DCL      9294--ASSIGN
INSDD$
        34**DCL      9295<<ASSIGN   9323>>IF       9325>>IF       9325>>IF       9328>>ASSIGN   9328>>ASSIGN
      9329>>IF       9329>>IF       9329>>IF       9329>>IF       9329>>IF
IX
        35**DCL      9296<<DOINDEX  9297>>ASSIGN
IX IN PROCEDURE EVAL_MF
      9522**DCL      9526<<DOINDEX  9527>>ASSIGN
MF_FIELD
PL6.E3A0      #001=DDS$INSTR File=DDS$INSTR.:E05TSI                              TUE 07/29/97 14:17 Page:73
      1428**DCL      9408>>ASSIGN   9412>>ASSIGN   9416>>ASSIGN   9524<<ASSIGN
MF_FIELD.AR
      1429**DCL      9532<<ASSIGN
MF_FIELD.ID
      1431**DCL      9540<<ASSIGN
MF_FIELD.REG
      1432**DCL      9544<<ASSIGN
MF_FIELD.RL
      1430**DCL      9536<<ASSIGN
N$
        32**DCL        30--PROC     9296>>DOINDEX  9297>>ASSIGN
N$ IN PROCEDURE EVAL_VAL
      9489**DCL      9491<<ASSIGN   9493>>DOCASE   9495>>ASSIGN   9497>>ASSIGN   9499>>ASSIGN   9501>>ASSIGN
      9503>>CALLBLT  9503>>CALLBLT  9505<>CALL     9507<<ASSIGN   9507>>ASSIGN
NC$
        36**DCL      9297<<ASSIGN   9298>>DOCASE   9300>>ASSIGN   9300>>ASSIGN   9322<>CALL     9454>>ASSIGN
      9454>>ASSIGN   9465>>IF       9491>>ASSIGN   9525>>ASSIGN   9527<<ASSIGN   9528>>DOCASE
NCC$ IN PROCEDURE EVAL_MF
      9521**DCL      9525<<ASSIGN   9526>>DOINDEX  9527>>ASSIGN
NDSC.CN
      1385**DCL      9352<<ASSIGN
NDSC.N
      1389**DCL      9377<<ASSIGN
NDSC.SF
      1388**DCL      9403<<ASSIGN
NDSC.SX
      1387**DCL      9393<<ASSIGN
OP$TAB
      1434**DCL      9301<>CALL
OP$TAB.DESC1
      1455**DCL      9406>>IF       9406>>IF
OP$TAB.DESC2
      1456**DCL      9410>>IF       9410>>IF
OP$TAB.DESC3
      1457**DCL      9414>>IF       9414>>IF
OP$TAB.EIS
PL6.E3A0      #001=DDS$INSTR File=DDS$INSTR.:E05TSI                              TUE 07/29/97 14:17 Page:74
      1436**DCL      1444--REDEF
OP$TAB.EIS.BOLR
      1439**DCL      9426>>IF       9430<<ASSIGN
OP$TAB.EIS.F
      1440**DCL      9438>>IF       9442<<ASSIGN
OP$TAB.EIS.FILL
      1437**DCL      9419>>IF       9423<<ASSIGN
OP$TAB.EIS.MASK
      1438**DCL      9419>>IF       9424<<ASSIGN
OP$TAB.EIS.P
      1442**DCL      9438>>IF       9443<<ASSIGN
OP$TAB.EIS.RD
      1441**DCL      9432>>IF       9436<<ASSIGN
OP$TAB.EIS.T
      1443**DCL      9445>>IF       9449<<ASSIGN
OP$TAB.NIS.AWDX
      1446**DCL      9305>>IF       9455>>IF
OP$TAB.OPCODE
      1451**DCL      9304>>ASSIGN   9315>>IF       9340>>DOCASE   9368>>DOCASE   9387>>DOCASE   9400>>DOCASE
      9455>>IF
OP$TAB.OPE1
      1435**DCL      9303>>ASSIGN   9312>>ASSIGN   9342>>IF
OP$TAB.OPE2
      1449**DCL      9313>>ASSIGN
OP$TAB.TYPE
      1452**DCL      9302>>IF       9305>>IF       9310>>IF       9315>>IF       9318>>IF       9455>>IF
POB.CODE
      4580**DCL      9298>>DOCASE   9465>>IF       9493>>DOCASE   9495>>ASSIGN   9497>>ASSIGN   9499>>ASSIGN
      9501>>ASSIGN   9528>>DOCASE
POB.NSB
      4584**DCL      9296>>DOINDEX  9526>>DOINDEX
POB.SUBLK$
      4605**DCL      9297>>ASSIGN   9454>>ASSIGN   9454>>ASSIGN   9495>>ASSIGN   9497>>ASSIGN   9499>>ASSIGN
      9501>>ASSIGN   9507>>ASSIGN   9527>>ASSIGN
POS.COUNT
      4641**DCL      4644--IMP-SIZ  9300>>ASSIGN   9454>>ASSIGN   9503>>CALLBLT
PL6.E3A0      #001=DDS$INSTR File=DDS$INSTR.:E05TSI                              TUE 07/29/97 14:17 Page:75
POS.TEXT
      4644**DCL      9300>>ASSIGN   9454>>ASSIGN   9503>>CALLBLT
RECASE IN PROCEDURE EVAL_VAL
      9491**LABEL    9508--GOTO
SDSC.CN
      1394**DCL      9355<<ASSIGN
SDSC.L
      1398**DCL      9380<<ASSIGN
SDSC.SE
      1395**DCL      9396<<ASSIGN
S_D.ACCUM
      7024**DCL      9469<<ASSIGN
S_D.AWDX
      7039**DCL      9293<<ASSIGN   9308<<ASSIGN
S_D.CURRENT_CHANNEL
      7774**DCL      7776--REDEF
S_D.D$
      6912**DCL      9289>>ASSIGN   9294<<ASSIGN   9294>>ASSIGN   9295>>ASSIGN
S_D.DEBUGA
      6926**DCL      6928--REDEF
S_D.EIS
      7884**DCL      7913--REDEF
S_D.ERROR
      6855**DCL      9476<<ASSIGN   9477<<ASSIGN   9478<<ASSIGN   9479<<ASSIGN   9480<<ASSIGN   9550<<ASSIGN
S_D.HOST_MESSAGE_BUF_REMOTE
      7817**DCL      7818--REDEF    7832--REDEF
S_D.IGNPR
      7037**DCL      9292<<ASSIGN   9472<<ASSIGN
S_D.JDE
      7431**DCL      7432--REDEF
S_D.L$.VALUE
      6984**DCL      6990--REDEF    6998--REDEF    7001--REDEF    7004--REDEF    7007--REDEF
S_D.L$.VALUE.L
      6985**DCL      6986--REDEF    6987--REDEF
S_D.L6_MESSAGE_BUF
      7838**DCL      7840--REDEF
PL6.E3A0      #001=DDS$INSTR File=DDS$INSTR.:E05TSI                              TUE 07/29/97 14:17 Page:76
S_D.OUTPUT
      7804**DCL      7806--REDEF
S_D.REMOTE_MSG.FNCC
      7823**DCL      7824--REDEF
S_D.REMOTE_MSG.STXC
      7819**DCL      7820--REDEF
S_D.REMOTE_MSG.SUBFNCC
      7827**DCL      7828--REDEF
S_D.SDOT
      7448**DCL      9325>>IF
S_D.SV
      6883**DCL      6904--REDEF
S_D$
      8135**DCL      6831--IMP-PTR  9289>>ASSIGN   9292>>ASSIGN   9293>>ASSIGN   9294>>ASSIGN   9294>>ASSIGN
      9295>>ASSIGN   9308>>ASSIGN   9325>>IF       9469>>ASSIGN   9472>>ASSIGN   9476>>ASSIGN   9477>>ASSIGN
      9478>>ASSIGN   9479>>ASSIGN   9480>>ASSIGN   9550>>ASSIGN
TAG
        38**DCL      9374>>ASSIGN   9390>>ASSIGN
TARGET_TEXT
        41**DCL      9300<<ASSIGN   9301<>CALL
TEMP
        37**DCL      9336>>IF       9337>>ASSIGN   9344<<ASSIGN   9344>>ASSIGN   9345>>IF       9346>>ASSIGN
      9348>>IF       9349>>ASSIGN   9351>>IF       9352>>ASSIGN   9354>>IF       9355>>ASSIGN   9357>>IF
      9358>>ASSIGN   9360>>IF       9361>>ASSIGN   9363>>IF       9364>>ASSIGN   9370>>IF       9371>>ASSIGN
      9373>>IF       9376>>IF       9377>>ASSIGN   9379>>IF       9380>>ASSIGN   9382>>IF       9383>>ASSIGN
      9389>>IF       9392>>IF       9393>>ASSIGN   9395>>IF       9396>>ASSIGN   9402>>IF       9403>>ASSIGN
      9421>>IF       9422>>ASSIGN   9428>>IF       9429>>ASSIGN   9434>>IF       9435>>ASSIGN   9440>>IF
      9441>>ASSIGN   9447>>IF       9448>>ASSIGN   9495<<ASSIGN   9497<<ASSIGN   9499<<ASSIGN   9501<<ASSIGN
      9503<<CALLBLT  9505<>CALL     9531>>IF       9532>>ASSIGN   9535>>IF       9536>>ASSIGN   9539>>IF
      9540>>ASSIGN   9543>>IF       9544>>ASSIGN
TOOBIG IN PROCEDURE EVAL_MF
      9550**LABEL    9531--GOTO     9535--GOTO     9539--GOTO     9543--GOTO
VDSC.RN
      1405**DCL      9383<<ASSIGN
VDSC.VI
      1403**DCL      9358<<ASSIGN
PL6.E3A0      #001=DDS$INSTR File=DDS$INSTR.:E05TSI                              TUE 07/29/97 14:17 Page:77
VREF_HERE
        39**DCL      9291<<ASSIGN   9321<<ASSIGN   9467>>IF
ZITEM.ADDRESS
      5365**DCL      5370--REDEF    5371--REDEF    5372--REDEF
ZITEM.ADDR_TYPE
      5359**DCL      9325>>IF       9329>>IF       9329>>IF       9329>>IF
ZITEM.FLAGS.MDSE.E
      5342**DCL      9323>>IF
ZITEM.SP.VD
      5373**DCL      5377--REDEF    5380--REDEF
ZITEM.VALUE
      5370**DCL      9325>>IF       9328<<ASSIGN   9328>>ASSIGN   9329>>IF       9329>>IF
ZITEM$
      4754**DCL      5331--IMP-PTR
PL6.E3A0      #001=DDS$INSTR File=DDS$INSTR.:E05TSI                              TUE 07/29/97 14:17 Page:78
              *** CROSS REFERENCE LISTING ***
    **     DENOTES     IDENTIFIER DEFINITION
    <<                 IDENTIFIER'S VALUE SET
    >>                 IDENTIFIER'S VALUE USED
    <>                 IDENTIFIER SET AND/OR USED
    --                 IDENTIFIER REFERENCED
PL6.E3A0      #001=DDS$INSTR File=DDS$INSTR.:E05TSI                              TUE 07/29/97 14:17 Page:79
              MINI UREF LISTING

DDS$INSTR      30**PROC
SDD$    4753**DCL
SDD_L6$    4755**DCL
ZITEM_L6$    4756**DCL
