VERSION E05

PL6.E3A0      #001=DDS$POSIMX File=DDS$POSIMX.:E05TSI                            TUE 07/29/97 14:19 Page:1
        1        1        /*M* DDS$POSIMX EVALUATE SIMEXP FOR POSITION DRIVER ROUTINE */
        2        2        /*T***********************************************************/
        3        3        /*T*                                                         */
        4        4        /*T* Copyright (c) Bull HN Information Systems Inc., 1997    */
        5        5        /*T*                                                         */
        6        6        /*T***********************************************************/
        7        7        /*X* DMR,PLM=5,IND=5,CSU=3,EXM=0,ECU=3,MOC,DCI=5,CRT=5 */
        8        8        %SET LISTSUB='1'B;
        9        9        /*F* NAME: DDS$POSIMX
       10       10             PURPOSE: TO EVALUATE THE NODE "SIMX" | "SUBSTMT2" AS A POSITION EXPRESSION.
       11       11             DESCRIPTION: SETS UP APPROPRIATE CONTROLS IN S_D & CALLS DDS$SIMEXP
       12       12             TO DO THE WORK. RETURNS IF SUCCESSFUL, ELSE ALTRETURNS. */
       13       13        /*D* NAME: DDS$POSIMX
       14       14             CALL: CALL DDS$POSIMX( NODE$, IC ) ALTRET(CANT DO);
       15       15             INTERFACE: DDS$SIMEXP
       16       16                        S_D.ACCUM - INIT ACCUMULATOR VALUE
       17       17                        S_D.OP - INIT OPERATOR
       18       18                        S_D.SIMBLOK - SIMBLE OK FLAG FOR DDS$SDO
       19       19             ENVIRONMENT: DDS$SCAN ACTIVE
       20       20             INPUT: NODE$ - POINTER TO "SIMX" | "SUBSTMT2" NODE.
       21       21                    IC - INITIAL VALUE OF EXPRESSION BEING EVALUATED.
       22       22             OUTPUT: IC - EVALUATION OF "SIMX" | "SUBSTMT2" EXPRESSION (IS ADDRESS).
       23       23             SCRATCH: LOCAL AUTO ONLY.
       24       24             DESCRIPTION: SETS UP APPROPRIATE CONTROLS IN S_D & CALLS DDS$SIMEXP
       25       25             TO DO THE WORK. RETURNS IF SUCCESSFUL, ELSE ALTRETURNS. */
       26       26                                                /**/
       27       27        DDS$POSIMX: PROC( NODE$, IC ) ALTRET;
       28       28                                                /**/
       29       29    1   DCL NODE$ PTR;
       30       30    1   DCL IC SBIN;
       31       31    1   DCL NC$ PTR;
       32       32    1   DCL NCD SBIN;
       33       33             %INCLUDE XU_MACRO_C;
       34     3139             %PARSE$OUT (NAME=POB,STCLASS=BASED,NSUBLKS=NSB);
       35     3184    1   DCL DDS$SIMEXP ENTRY(2) ALTRET;
       36     3185             %INCLUDE DD_PSUBS_C;
       37     3660             %INCLUDE XUH_MACRO_C;
PL6.E3A0      #001=DDS$POSIMX File=DDS$POSIMX.:E05TSI                            TUE 07/29/97 14:19 Page:2
       38     3744             %INCLUDE DD_SD_M;
       39     5080             %S_D;
       40     6398                                                /**/
       41     6399    1        S_D.ACCUM = IC;
       42     6400    1        S_D.OP = 590;                /* PLUS_CODE */
       43     6401    1        S_D.SIMBLEOK = '1'B;
       44     6402                                                /**/
       45     6403    1        NC$ = NODE$ -> POB.SUBLK$( 0 );
       46     6404    1        NCD = NC$ -> POB.CODE;
       47     6405    1        IF ( NCD = 47 )           /* SIMEXP_CODE */
       48     6406    2        THEN DO;                           /* NOTHING */
       49     6407    2           END;
       50     6408    2        ELSE DO;                           /* MUST BE ARITHOP */
       51     6409    2             S_D.OP = NCD;
       52     6410    2             NC$ = NODE$ -> POB.SUBLK$( 1 );
       53     6411    2           END;
       54     6412    1        CALL DDS$SIMEXP( NC$, IC ) ALTRET( ALTRT );
       55     6413    1        RETURN;
       56     6414                                                /**/
       57     6415    1   ALTRT: ALTRETURN;
       58     6416                                                /**/
       59     6417    1   END DDS$POSIMX;

PL6.E3A0      #001=DDS$POSIMX File=DDS$POSIMX.:E05TSI                            TUE 07/29/97 14:19 Page:3
--  Include file information  --

   DD_SD_M.:E05TOU  is referenced.
   XUH_MACRO_C.:E05TOU  is referenced.
   DD_PSUBS_C.:E05TOU  is referenced.
   XU_MACRO_C.:E05TOU  is referenced.
   B$JIT_C.:E05TOU  was found in the system file and is never referenced.
   CP_6_C.:E05TOU  was found in the system file and is never referenced.
      No diagnostics issued in procedure DDS$POSIMX.

   Procedure DDS$POSIMX requires 35 words for executable code.
   Procedure DDS$POSIMX requires 10 words of local(AUTO) storage.

    No errors detected in file DDS$POSIMX.:E05TSI    .

PL6.E3A0      #001=DDS$POSIMX File=DDS$POSIMX.:E05TSI                            TUE 07/29/97 14:19 Page:4

 Object Unit name= DDS$POSIMX                                 File name= DDS$POSIMX.:E05TOU
 UTS= JUL 29 '97 14:19:16.12 TUE                              Compiler= PL-6/E31         Sev=      00
 SharedLib= :SHARED_SYSTEM                                    Alt SharedLib=


    ****  Control sections  ****

 Sect   Type Bound  Init  Size OctSiz  Section name(segment info)
    0   Proc  even  none    35     43  DDS$POSIMX

    ****  Entry defs  ****

                              Check   Calling
                             calling  sequence
  Sect OctLoc Primary Altret sequence   type   Parms  Name
     0      0   yes    yes     yes      Std        2  DDS$POSIMX

  ****  Entry refs  ****

         Check        Calling
        calling       sequence
Altret sequence SRef   type   Args  Name
 yes     yes           Std       2 DDS$SIMEXP
                       nStd      0 X66_AUTO_2
                       Std       0 B_CONSPOOL_D
                       nStd      0 X66_ARET
                       nStd      0 X66_AALT

  ****  Data refs  ****

  Flags:  r = read only, s = secondary
Flgs Name                             Flgs Name                             Flgs Name
r    S_D$                                  B_VECTNIL
PL6.E3A0      #001=DDS$POSIMX File=DDS$POSIMX.:E05TSI                            TUE 07/29/97 14:19 Page:5


        1        1        /*M* DDS$POSIMX EVALUATE SIMEXP FOR POSITION DRIVER ROUTINE */
        2        2        /*T***********************************************************/
        3        3        /*T*                                                         */
        4        4        /*T* Copyright (c) Bull HN Information Systems Inc., 1997    */
        5        5        /*T*                                                         */
        6        6        /*T***********************************************************/
        7        7        /*X* DMR,PLM=5,IND=5,CSU=3,EXM=0,ECU=3,MOC,DCI=5,CRT=5 */
        8        8        %SET LISTSUB='1'B;
        9        9        /*F* NAME: DDS$POSIMX
       10       10             PURPOSE: TO EVALUATE THE NODE "SIMX" | "SUBSTMT2" AS A POSITION EXPRESSION.
       11       11             DESCRIPTION: SETS UP APPROPRIATE CONTROLS IN S_D & CALLS DDS$SIMEXP
       12       12             TO DO THE WORK. RETURNS IF SUCCESSFUL, ELSE ALTRETURNS. */
       13       13        /*D* NAME: DDS$POSIMX
       14       14             CALL: CALL DDS$POSIMX( NODE$, IC ) ALTRET(CANT DO);
       15       15             INTERFACE: DDS$SIMEXP
       16       16                        S_D.ACCUM - INIT ACCUMULATOR VALUE
       17       17                        S_D.OP - INIT OPERATOR
       18       18                        S_D.SIMBLOK - SIMBLE OK FLAG FOR DDS$SDO
       19       19             ENVIRONMENT: DDS$SCAN ACTIVE
       20       20             INPUT: NODE$ - POINTER TO "SIMX" | "SUBSTMT2" NODE.
       21       21                    IC - INITIAL VALUE OF EXPRESSION BEING EVALUATED.
       22       22             OUTPUT: IC - EVALUATION OF "SIMX" | "SUBSTMT2" EXPRESSION (IS ADDRESS).
       23       23             SCRATCH: LOCAL AUTO ONLY.
       24       24             DESCRIPTION: SETS UP APPROPRIATE CONTROLS IN S_D & CALLS DDS$SIMEXP
       25       25             TO DO THE WORK. RETURNS IF SUCCESSFUL, ELSE ALTRETURNS. */
       26       26                                                /**/
       27       27        DDS$POSIMX: PROC( NODE$, IC ) ALTRET;

     27  0 000000   000000 700200 xent  DDS$POSIMX   TSX0  ! X66_AUTO_2
         0 000001   000012 000002                    ZERO    10,2

       28       28                                                /**/
       29       29    1   DCL NODE$ PTR;
       30       30    1   DCL IC SBIN;
       31       31    1   DCL NC$ PTR;
       32       32    1   DCL NCD SBIN;
PL6.E3A0      #001=DDS$POSIMX File=DDS$POSIMX.:E05TSI                            TUE 07/29/97 14:19 Page:6
       33       33             %INCLUDE XU_MACRO_C;
       34     3139             %PARSE$OUT (NAME=POB,STCLASS=BASED,NSUBLKS=NSB);
       35     3184    1   DCL DDS$SIMEXP ENTRY(2) ALTRET;
       36     3185             %INCLUDE DD_PSUBS_C;
       37     3660             %INCLUDE XUH_MACRO_C;
       38     3744             %INCLUDE DD_SD_M;
       39     5080             %S_D;
       40     6398                                                /**/
       41     6399    1        S_D.ACCUM = IC;

   6399  0 000002   200004 470500                    LDP0    @IC,,AUTO
         0 000003   000000 471400 xsym               LDP1    S_D$
         0 000004   000000 235100                    LDA     0,,PR0
         0 000005   100137 755100                    STA     95,,PR1

       42     6400    1        S_D.OP = 590;                /* PLUS_CODE */

   6400  0 000006   001116 236007                    LDQ     590,DL
         0 000007   100136 756100                    STQ     94,,PR1

       43     6401    1        S_D.SIMBLEOK = '1'B;

   6401  0 000010   400000 236003                    LDQ     -131072,DU
         0 000011   100054 756100                    STQ     44,,PR1

       44     6402                                                /**/
       45     6403    1        NC$ = NODE$ -> POB.SUBLK$( 0 );

   6403  0 000012   200003 473500                    LDP3    @NODE$,,AUTO
         0 000013   300000 474500                    LDP4    0,,PR3
         0 000014   400003 236100                    LDQ     3,,PR4
         0 000015   200005 756100                    STQ     NC$,,AUTO

       46     6404    1        NCD = NC$ -> POB.CODE;

   6404  0 000016   200005 474500                    LDP4    NC$,,AUTO
         0 000017   400000 236100                    LDQ     0,,PR4
PL6.E3A0      #001=DDS$POSIMX File=DDS$POSIMX.:E05TSI                            TUE 07/29/97 14:19 Page:7
         0 000020   777777 376007                    ANQ     -1,DL
         0 000021   200006 756100                    STQ     NCD,,AUTO

       47     6405    1        IF ( NCD = 47 )           /* SIMEXP_CODE */

   6405  0 000022   000057 116007                    CMPQ    47,DL
         0 000023   000025 601000 0                  TNZ     s:6409

       48     6406    2        THEN DO;                           /* NOTHING */

       49     6407    2           END;

   6407  0 000024   000031 710000 0                  TRA     s:6412

       50     6408    2        ELSE DO;                           /* MUST BE ARITHOP */

       51     6409    2             S_D.OP = NCD;

   6409  0 000025   100136 756100                    STQ     94,,PR1

       52     6410    2             NC$ = NODE$ -> POB.SUBLK$( 1 );

   6410  0 000026   300000 475500                    LDP5    0,,PR3
         0 000027   500004 236100                    LDQ     4,,PR5
         0 000030   200005 756100                    STQ     NC$,,AUTO

       53     6411    2           END;

       54     6412    1        CALL DDS$SIMEXP( NC$, IC ) ALTRET( ALTRT );

   6412  0 000031   200004 236100                    LDQ     @IC,,AUTO
         0 000032   200011 756100                    STQ     NCD+3,,AUTO
         0 000033   200005 634500                    EPPR4   NC$,,AUTO
         0 000034   200010 454500                    STP4    NCD+2,,AUTO
         0 000035   200010 630500                    EPPR0   NCD+2,,AUTO
         0 000036   000020 631400 xsym               EPPR1   B_VECTNIL+16
         0 000037   000000 701000 xent               TSX1    DDS$SIMEXP
PL6.E3A0      #001=DDS$POSIMX File=DDS$POSIMX.:E05TSI                            TUE 07/29/97 14:19 Page:8
         0 000040   000042 702000 0                  TSX2    ALTRT

       55     6413    1        RETURN;

   6413  0 000041   000000 702200 xent               TSX2  ! X66_ARET

       56     6414                                                /**/
       57     6415    1   ALTRT: ALTRETURN;

   6415  0 000042   000000 702200 xent  ALTRT        TSX2  ! X66_AALT
       58     6416                                                /**/
       59     6417    1   END DDS$POSIMX;

PL6.E3A0      #001=DDS$POSIMX File=DDS$POSIMX.:E05TSI                            TUE 07/29/97 14:19 Page:9
--  Include file information  --

   DD_SD_M.:E05TOU  is referenced.
   XUH_MACRO_C.:E05TOU  is referenced.
   DD_PSUBS_C.:E05TOU  is referenced.
   XU_MACRO_C.:E05TOU  is referenced.
   B$JIT_C.:E05TOU  was found in the system file and is never referenced.
   CP_6_C.:E05TOU  was found in the system file and is never referenced.
      No diagnostics issued in procedure DDS$POSIMX.

   Procedure DDS$POSIMX requires 35 words for executable code.
   Procedure DDS$POSIMX requires 10 words of local(AUTO) storage.

    No errors detected in file DDS$POSIMX.:E05TSI    .
PL6.E3A0      #001=DDS$POSIMX File=DDS$POSIMX.:E05TSI                            TUE 07/29/97 14:19 Page:10
          *** CROSS REFERENCE LISTING ***
**     DENOTES     IDENTIFIER DEFINITION
<<                 IDENTIFIER'S VALUE SET
>>                 IDENTIFIER'S VALUE USED
<>                 IDENTIFIER SET AND/OR USED
--                 IDENTIFIER REFERENCED
PL6.E3A0      #001=DDS$POSIMX File=DDS$POSIMX.:E05TSI                            TUE 07/29/97 14:19 Page:11
          MINI XREF LISTING

ALTRT
      6415**LABEL    6412--CALLALT
DDS$SIMEXP
      3184**DCL-ENT  6412--CALL
IC
        30**DCL        27--PROC     6399>>ASSIGN   6412<>CALL
NC$
        31**DCL      6403<<ASSIGN   6404>>ASSIGN   6410<<ASSIGN   6412<>CALL
NCD
        32**DCL      6404<<ASSIGN   6405>>IF       6409>>ASSIGN
NODE$
        29**DCL        27--PROC     6403>>ASSIGN   6410>>ASSIGN
POB.CODE
      3153**DCL      6404>>ASSIGN
POB.SUBLK$
      3178**DCL      6403>>ASSIGN   6410>>ASSIGN
S_D.ACCUM
      5282**DCL      6399<<ASSIGN
S_D.CURRENT_CHANNEL
      6032**DCL      6034--REDEF
S_D.DEBUGA
      5184**DCL      5186--REDEF
S_D.EIS
      6142**DCL      6171--REDEF
S_D.HOST_MESSAGE_BUF_REMOTE
      6075**DCL      6076--REDEF    6090--REDEF
S_D.JDE
      5689**DCL      5690--REDEF
S_D.L$.VALUE
      5242**DCL      5248--REDEF    5256--REDEF    5259--REDEF    5262--REDEF    5265--REDEF
S_D.L$.VALUE.L
      5243**DCL      5244--REDEF    5245--REDEF
PL6.E3A0      #001=DDS$POSIMX File=DDS$POSIMX.:E05TSI                            TUE 07/29/97 14:19 Page:12
S_D.L6_MESSAGE_BUF
      6096**DCL      6098--REDEF
S_D.OP
      5280**DCL      6400<<ASSIGN   6409<<ASSIGN
S_D.OUTPUT
      6062**DCL      6064--REDEF
S_D.REMOTE_MSG.FNCC
      6081**DCL      6082--REDEF
S_D.REMOTE_MSG.STXC
      6077**DCL      6078--REDEF
S_D.REMOTE_MSG.SUBFNCC
      6085**DCL      6086--REDEF
S_D.SIMBLEOK
      5188**DCL      6401<<ASSIGN
S_D.SV
      5141**DCL      5162--REDEF
S_D$
      6393**DCL      5089--IMP-PTR  6399>>ASSIGN   6400>>ASSIGN   6401>>ASSIGN   6409>>ASSIGN
PL6.E3A0      #001=DDS$POSIMX File=DDS$POSIMX.:E05TSI                            TUE 07/29/97 14:19 Page:13
              *** CROSS REFERENCE LISTING ***
    **     DENOTES     IDENTIFIER DEFINITION
    <<                 IDENTIFIER'S VALUE SET
    >>                 IDENTIFIER'S VALUE USED
    <>                 IDENTIFIER SET AND/OR USED
    --                 IDENTIFIER REFERENCED
PL6.E3A0      #001=DDS$POSIMX File=DDS$POSIMX.:E05TSI                            TUE 07/29/97 14:19 Page:14
              MINI UREF LISTING

DDS$POSIMX      27**PROC
