VERSION E05

PL6.E3A0      #001=DDS$POSITION File=DDS$POSIT.:E05TSI                           TUE 07/29/97 14:19 Page:1
        1        1        /*M* DDS$POSIT EVALUATE POSITION DRIVER ROUTINE */
        2        2        /*T***********************************************************/
        3        3        /*T*                                                         */
        4        4        /*T* Copyright (c) Bull HN Information Systems Inc., 1997    */
        5        5        /*T*                                                         */
        6        6        /*T***********************************************************/
        7        7        /*X* DMR,PLM=5,IND=5,CSU=3,EXM=0,ECU=3,MOC,DCI=5,CRT=5 */
        8        8        %SET LISTSUB='1'B;
        9        9        /*F* NAME: DDS$POSITION
       10       10             PURPOSE: TO EVALUATE THE NODE "POSITION".
       11       11             DESCRIPTION: "POSITION" POINTS TO EITHER "POS11" OR "SIMX".
       12       12             "POS11" IS EVALUATED BY CALLING DCS$POS11. "SIMX" IS EVALUATED
       13       13             BY CALLING DDS$POSIMX. */
       14       14        /*D* NAME: DDS$POSITION
       15       15             CALL: CALL DDS$POSITION(NODE$,IC) ALTRET(NOT FOUND);
       16       16             INTERFACE: DDS$POS11
       17       17                        DDS$POSIMX
       18       18             ENVIRONMENT: DDS$SCAN ACTIVE.
       19       19             INPUT: NODE$ - POINTER TO "POSITION" NODE.
       20       20             OUTPUT: IC - IS ADDRESS IF POSITION FOUND.
       21       21             SCRATCH : LOCAL AUTO ONLY.
       22       22             DESCRIPTION: "POSITION" POINTS TO EITHER "POS11" OR "SIMX".
       23       23             "POS11" IS EVALUATED BY CALLING DDS$POS11. "SIMX" IS EVALUATED
       24       24             BY CALLING DDS$POSIMX. */
       25       25        /**/
       26       26        DDS$POSITION: PROC(NODE$,IC) ALTRET;
       27       27        /**/
       28       28    1   DCL NODE$ PTR;                          /* POINTER TO NODE INPUT */
       29       29    1   DCL IC SBIN;                            /* IS ADDRESS OUTPUT */
       30       30    1   DCL TCODE SBIN;                         /* TEMP FOR CODE */
       31       31    1   DCL NC$ PTR;                            /* CURRENT NODE POINTER */
       32       32        %INCLUDE DD_PSUBS_C;                    /* PARSE %SUBS */
       33      507        %INCLUDE XU_MACRO_C;                    /* M$PARSE MACROS */
       34     3613        %INCLUDE XU_SUBS_C;                     /* M$PARSE %SUBs */
       35     3705        %PARSE$OUT (NAME=POB,STCLASS=BASED,NSUBLKS=NSB);
       36     3750        %INCLUDE DD_ERR_C;                      /* ERROR CODE %SUBS */
       37     4147        %INCLUDE XUH_MACRO_C;
PL6.E3A0      #001=DDS$POSITION File=DDS$POSIT.:E05TSI                           TUE 07/29/97 14:19 Page:2
       38     4231        %INCLUDE DD_SD_M;
       39     5567        %S_D;
       40     6885    1   DCL DDS$POS11 ENTRY(2) ALTRET;     /* EVALUATES QUALIFIED POSITION REFERENCE */
       41     6886    1   DCL DDS$POSIMX ENTRY(2) ALTRET;         /* EVALUATES "SIMX" NODE */
       42     6887                                                /**/
       43     6888        /* SEE IF IT'S "POS11" OR "SIMX" */
       44     6889    1        NC$ = NODE$->POB.SUBLK$(0);        /* POINT TO NEXT NODE */
       45     6890    1        TCODE = NC$->POB.CODE;             /* GET ITS CODE */
       46     6891    1        IF TCODE = 103                 /* C@QUAL3 */
       47     6892    2        THEN DO;
       48     6893    2             S_D.GOTQUAL3 = '1'B;
       49     6894    2             NC$ = NODE$ -> POB.SUBLK$( 1 );
       50     6895    2             TCODE = NC$ -> POB.CODE;
       51     6896    2             IF NOT S_D.SCHEMA
       52     6897    3             THEN DO;
       53     6898    3                  S_D.ERROR = 20;     /* E@UERR9 */
       54     6899    3                  GOTO ALTRT;
       55     6900    3                END;
       56     6901    2           END;
       57     6902    1        ELSE S_D.GOTQUAL3 = '0'B;
       58     6903    1        IF TCODE = 13                 /* C@POS11 */
       59     6904    2        THEN DO;                           /* IT'S A POS11 */
       60     6905    2             CALL DDS$POS11(NC$,IC) ALTRET(ALTRT);
       61     6906    2           END;
       62     6907    1        ELSE IF TCODE = 22             /* C@SIMX */
       63     6908    2             THEN DO;                      /* IT'S A SIMX - EVALUATE IT */
       64     6909    2                  IF S_D.GOTQUAL3
       65     6910    3                  THEN DO;
       66     6911    3                       S_D.ERROR = 53; /* E@SYNTAX */
       67     6912    3                       GOTO ALTRT;
       68     6913    3                     END;
       69     6914    2                  IC = 0;
       70     6915    2                  CALL DDS$POSIMX( NC$, IC ) ALTRET( ALTRT );
       71     6916    2                END;
       72     6917    2             ELSE DO;                      /* UNKNOWN CODE */
       73     6918    2                  S_D.ERROR = 501;     /* E@DERR1 */
       74     6919    2                  GOTO ALTRT;              /* RETURN WITH INTERNAL ERROR CODE */
PL6.E3A0      #001=DDS$POSITION File=DDS$POSIT.:E05TSI                           TUE 07/29/97 14:19 Page:3
       75     6920    2                END;
       76     6921        /* DONE */
       77     6922    1        RETURN;
       78     6923        /* CAN'T FIND */
       79     6924    1   ALTRT:
       80     6925    1        ALTRETURN;
       81     6926        /**/
       82     6927    1   END DDS$POSITION;

PL6.E3A0      #001=DDS$POSITION File=DDS$POSIT.:E05TSI                           TUE 07/29/97 14:19 Page:4
--  Include file information  --

   DD_SD_M.:E05TOU  is referenced.
   XUH_MACRO_C.:E05TOU  is referenced.
   DD_ERR_C.:E05TOU  is referenced.
   XU_SUBS_C.:E05TOU  is referenced.
   XU_MACRO_C.:E05TOU  is referenced.
   DD_PSUBS_C.:E05TOU  is referenced.
   B$JIT_C.:E05TOU  was found in the system file and is never referenced.
   CP_6_C.:E05TOU  was found in the system file and is never referenced.
      No diagnostics issued in procedure DDS$POSITION.

   Procedure DDS$POSITION requires 63 words for executable code.
   Procedure DDS$POSITION requires 10 words of local(AUTO) storage.

    No errors detected in file DDS$POSIT.:E05TSI    .

PL6.E3A0      #001=DDS$POSITION File=DDS$POSIT.:E05TSI                           TUE 07/29/97 14:19 Page:5

 Object Unit name= DDS$POSITION                               File name= DDS$POSIT.:E05TOU
 UTS= JUL 29 '97 14:19:41.44 TUE                              Compiler= PL-6/E31         Sev=      00
 SharedLib= :SHARED_SYSTEM                                    Alt SharedLib=


    ****  Control sections  ****

 Sect   Type Bound  Init  Size OctSiz  Section name(segment info)
    0   Proc  even  none    63     77  DDS$POSITION

    ****  Entry defs  ****

                              Check   Calling
                             calling  sequence
  Sect OctLoc Primary Altret sequence   type   Parms  Name
     0      0   yes    yes     yes      Std        2  DDS$POSITION

  ****  Entry refs  ****

         Check        Calling
        calling       sequence
Altret sequence SRef   type   Args  Name
 yes     yes           Std       2 DDS$POS11
 yes     yes           Std       2 DDS$POSIMX
                       nStd      0 X66_AUTO_2
                       Std       0 B_CONSPOOL_D
                       nStd      0 X66_ARET
                       nStd      0 X66_AALT

  ****  Data refs  ****

  Flags:  r = read only, s = secondary
Flgs Name                             Flgs Name                             Flgs Name
r    S_D$                                  B_VECTNIL
PL6.E3A0      #001=DDS$POSITION File=DDS$POSIT.:E05TSI                           TUE 07/29/97 14:19 Page:6


        1        1        /*M* DDS$POSIT EVALUATE POSITION DRIVER ROUTINE */
        2        2        /*T***********************************************************/
        3        3        /*T*                                                         */
        4        4        /*T* Copyright (c) Bull HN Information Systems Inc., 1997    */
        5        5        /*T*                                                         */
        6        6        /*T***********************************************************/
        7        7        /*X* DMR,PLM=5,IND=5,CSU=3,EXM=0,ECU=3,MOC,DCI=5,CRT=5 */
        8        8        %SET LISTSUB='1'B;
        9        9        /*F* NAME: DDS$POSITION
       10       10             PURPOSE: TO EVALUATE THE NODE "POSITION".
       11       11             DESCRIPTION: "POSITION" POINTS TO EITHER "POS11" OR "SIMX".
       12       12             "POS11" IS EVALUATED BY CALLING DCS$POS11. "SIMX" IS EVALUATED
       13       13             BY CALLING DDS$POSIMX. */
       14       14        /*D* NAME: DDS$POSITION
       15       15             CALL: CALL DDS$POSITION(NODE$,IC) ALTRET(NOT FOUND);
       16       16             INTERFACE: DDS$POS11
       17       17                        DDS$POSIMX
       18       18             ENVIRONMENT: DDS$SCAN ACTIVE.
       19       19             INPUT: NODE$ - POINTER TO "POSITION" NODE.
       20       20             OUTPUT: IC - IS ADDRESS IF POSITION FOUND.
       21       21             SCRATCH : LOCAL AUTO ONLY.
       22       22             DESCRIPTION: "POSITION" POINTS TO EITHER "POS11" OR "SIMX".
       23       23             "POS11" IS EVALUATED BY CALLING DDS$POS11. "SIMX" IS EVALUATED
       24       24             BY CALLING DDS$POSIMX. */
       25       25        /**/
       26       26        DDS$POSITION: PROC(NODE$,IC) ALTRET;

     26  0 000000   000000 700200 xent  DDS$POSITION TSX0  ! X66_AUTO_2
         0 000001   000012 000002                    ZERO    10,2

       27       27        /**/
       28       28    1   DCL NODE$ PTR;                          /* POINTER TO NODE INPUT */
       29       29    1   DCL IC SBIN;                            /* IS ADDRESS OUTPUT */
       30       30    1   DCL TCODE SBIN;                         /* TEMP FOR CODE */
       31       31    1   DCL NC$ PTR;                            /* CURRENT NODE POINTER */
       32       32        %INCLUDE DD_PSUBS_C;                    /* PARSE %SUBS */
PL6.E3A0      #001=DDS$POSITION File=DDS$POSIT.:E05TSI                           TUE 07/29/97 14:19 Page:7
       33      507        %INCLUDE XU_MACRO_C;                    /* M$PARSE MACROS */
       34     3613        %INCLUDE XU_SUBS_C;                     /* M$PARSE %SUBs */
       35     3705        %PARSE$OUT (NAME=POB,STCLASS=BASED,NSUBLKS=NSB);
       36     3750        %INCLUDE DD_ERR_C;                      /* ERROR CODE %SUBS */
       37     4147        %INCLUDE XUH_MACRO_C;
       38     4231        %INCLUDE DD_SD_M;
       39     5567        %S_D;
       40     6885    1   DCL DDS$POS11 ENTRY(2) ALTRET;     /* EVALUATES QUALIFIED POSITION REFERENCE */
       41     6886    1   DCL DDS$POSIMX ENTRY(2) ALTRET;         /* EVALUATES "SIMX" NODE */
       42     6887                                                /**/
       43     6888        /* SEE IF IT'S "POS11" OR "SIMX" */
       44     6889    1        NC$ = NODE$->POB.SUBLK$(0);        /* POINT TO NEXT NODE */

   6889  0 000002   200003 470500                    LDP0    @NODE$,,AUTO
         0 000003   000000 471500                    LDP1    0,,PR0
         0 000004   100003 236100                    LDQ     3,,PR1
         0 000005   200006 756100                    STQ     NC$,,AUTO

       45     6890    1        TCODE = NC$->POB.CODE;             /* GET ITS CODE */

   6890  0 000006   200006 471500                    LDP1    NC$,,AUTO
         0 000007   100000 236100                    LDQ     0,,PR1
         0 000010   777777 376007                    ANQ     -1,DL
         0 000011   200005 756100                    STQ     TCODE,,AUTO

       46     6891    1        IF TCODE = 103                 /* C@QUAL3 */

   6891  0 000012   000147 116007                    CMPQ    103,DL
         0 000013   000033 601000 0                  TNZ     s:6902

       47     6892    2        THEN DO;

       48     6893    2             S_D.GOTQUAL3 = '1'B;

   6893  0 000014   400000 236003                    LDQ     -131072,DU
         0 000015   000000 473400 xsym               LDP3    S_D$
         0 000016   304773 756100                    STQ     2555,,PR3
PL6.E3A0      #001=DDS$POSITION File=DDS$POSIT.:E05TSI                           TUE 07/29/97 14:19 Page:8

       49     6894    2             NC$ = NODE$ -> POB.SUBLK$( 1 );

   6894  0 000017   000000 474500                    LDP4    0,,PR0
         0 000020   400004 236100                    LDQ     4,,PR4
         0 000021   200006 756100                    STQ     NC$,,AUTO

       50     6895    2             TCODE = NC$ -> POB.CODE;

   6895  0 000022   200006 471500                    LDP1    NC$,,AUTO
         0 000023   100000 236100                    LDQ     0,,PR1
         0 000024   777777 376007                    ANQ     -1,DL
         0 000025   200005 756100                    STQ     TCODE,,AUTO

       51     6896    2             IF NOT S_D.SCHEMA

   6896  0 000026   300052 234100                    SZN     42,,PR3
         0 000027   000035 604000 0                  TMI     s:6903

       52     6897    3             THEN DO;

       53     6898    3                  S_D.ERROR = 20;     /* E@UERR9 */

   6898  0 000030   000024 235007                    LDA     20,DL
         0 000031   300013 755100                    STA     11,,PR3

       54     6899    3                  GOTO ALTRT;

   6899  0 000032   000076 710000 0                  TRA     ALTRT

       55     6900    3                END;
       56     6901    2           END;
       57     6902    1        ELSE S_D.GOTQUAL3 = '0'B;

   6902  0 000033   000000 473400 xsym               LDP3    S_D$
         0 000034   304773 450100                    STZ     2555,,PR3

PL6.E3A0      #001=DDS$POSITION File=DDS$POSIT.:E05TSI                           TUE 07/29/97 14:19 Page:9
       58     6903    1        IF TCODE = 13                 /* C@POS11 */

   6903  0 000035   000015 116007                    CMPQ    13,DL
         0 000036   000050 601000 0                  TNZ     s:6907

       59     6904    2        THEN DO;                           /* IT'S A POS11 */

       60     6905    2             CALL DDS$POS11(NC$,IC) ALTRET(ALTRT);

   6905  0 000037   200004 236100                    LDQ     @IC,,AUTO
         0 000040   200011 756100                    STQ     NC$+3,,AUTO
         0 000041   200006 634500                    EPPR4   NC$,,AUTO
         0 000042   200010 454500                    STP4    NC$+2,,AUTO
         0 000043   200010 630500                    EPPR0   NC$+2,,AUTO
         0 000044   000020 631400 xsym               EPPR1   B_VECTNIL+16
         0 000045   000000 701000 xent               TSX1    DDS$POS11
         0 000046   000076 702000 0                  TSX2    ALTRT

       61     6906    2           END;

   6906  0 000047   000075 710000 0                  TRA     s:6922

       62     6907    1        ELSE IF TCODE = 22             /* C@SIMX */

   6907  0 000050   000026 116007                    CMPQ    22,DL
         0 000051   000072 601000 0                  TNZ     s:6918

       63     6908    2             THEN DO;                      /* IT'S A SIMX - EVALUATE IT */

       64     6909    2                  IF S_D.GOTQUAL3

   6909  0 000052   304773 234100                    SZN     2555,,PR3
         0 000053   000057 605000 0                  TPL     s:6914

       65     6910    3                  THEN DO;

       66     6911    3                       S_D.ERROR = 53; /* E@SYNTAX */
PL6.E3A0      #001=DDS$POSITION File=DDS$POSIT.:E05TSI                           TUE 07/29/97 14:19 Page:10

   6911  0 000054   000065 235007                    LDA     53,DL
         0 000055   300013 755100                    STA     11,,PR3

       67     6912    3                       GOTO ALTRT;

   6912  0 000056   000076 710000 0                  TRA     ALTRT

       68     6913    3                     END;
       69     6914    2                  IC = 0;

   6914  0 000057   200004 474500                    LDP4    @IC,,AUTO
         0 000060   400000 450100                    STZ     0,,PR4

       70     6915    2                  CALL DDS$POSIMX( NC$, IC ) ALTRET( ALTRT );

   6915  0 000061   200004 236100                    LDQ     @IC,,AUTO
         0 000062   200011 756100                    STQ     NC$+3,,AUTO
         0 000063   200006 631500                    EPPR1   NC$,,AUTO
         0 000064   200010 451500                    STP1    NC$+2,,AUTO
         0 000065   200010 630500                    EPPR0   NC$+2,,AUTO
         0 000066   000020 631400 xsym               EPPR1   B_VECTNIL+16
         0 000067   000000 701000 xent               TSX1    DDS$POSIMX
         0 000070   000076 702000 0                  TSX2    ALTRT

       71     6916    2                END;

   6916  0 000071   000075 710000 0                  TRA     s:6922

       72     6917    2             ELSE DO;                      /* UNKNOWN CODE */

       73     6918    2                  S_D.ERROR = 501;     /* E@DERR1 */

   6918  0 000072   000765 235007                    LDA     501,DL
         0 000073   300013 755100                    STA     11,,PR3

       74     6919    2                  GOTO ALTRT;              /* RETURN WITH INTERNAL ERROR CODE */
PL6.E3A0      #001=DDS$POSITION File=DDS$POSIT.:E05TSI                           TUE 07/29/97 14:19 Page:11

   6919  0 000074   000076 710000 0                  TRA     ALTRT

       75     6920    2                END;
       76     6921        /* DONE */
       77     6922    1        RETURN;

   6922  0 000075   000000 702200 xent               TSX2  ! X66_ARET

       78     6923        /* CAN'T FIND */
       79     6924    1   ALTRT:
       80     6925    1        ALTRETURN;

   6925  0 000076   000000 702200 xent  ALTRT        TSX2  ! X66_AALT
       81     6926        /**/
       82     6927    1   END DDS$POSITION;

PL6.E3A0      #001=DDS$POSITION File=DDS$POSIT.:E05TSI                           TUE 07/29/97 14:19 Page:12
--  Include file information  --

   DD_SD_M.:E05TOU  is referenced.
   XUH_MACRO_C.:E05TOU  is referenced.
   DD_ERR_C.:E05TOU  is referenced.
   XU_SUBS_C.:E05TOU  is referenced.
   XU_MACRO_C.:E05TOU  is referenced.
   DD_PSUBS_C.:E05TOU  is referenced.
   B$JIT_C.:E05TOU  was found in the system file and is never referenced.
   CP_6_C.:E05TOU  was found in the system file and is never referenced.
      No diagnostics issued in procedure DDS$POSITION.

   Procedure DDS$POSITION requires 63 words for executable code.
   Procedure DDS$POSITION requires 10 words of local(AUTO) storage.

    No errors detected in file DDS$POSIT.:E05TSI    .
PL6.E3A0      #001=DDS$POSITION File=DDS$POSIT.:E05TSI                           TUE 07/29/97 14:19 Page:13
          *** CROSS REFERENCE LISTING ***
**     DENOTES     IDENTIFIER DEFINITION
<<                 IDENTIFIER'S VALUE SET
>>                 IDENTIFIER'S VALUE USED
<>                 IDENTIFIER SET AND/OR USED
--                 IDENTIFIER REFERENCED
PL6.E3A0      #001=DDS$POSITION File=DDS$POSIT.:E05TSI                           TUE 07/29/97 14:19 Page:14
          MINI XREF LISTING

ALTRT
      6925**LABEL    6899--GOTO     6905--CALLALT  6912--GOTO     6915--CALLALT  6919--GOTO
DDS$POS11
      6885**DCL-ENT  6905--CALL
DDS$POSIMX
      6886**DCL-ENT  6915--CALL
IC
        29**DCL        26--PROC     6905<>CALL     6914<<ASSIGN   6915<>CALL
NC$
        31**DCL      6889<<ASSIGN   6890>>ASSIGN   6894<<ASSIGN   6895>>ASSIGN   6905<>CALL     6915<>CALL
NODE$
        28**DCL        26--PROC     6889>>ASSIGN   6894>>ASSIGN
POB.CODE
      3719**DCL      6890>>ASSIGN   6895>>ASSIGN
POB.SUBLK$
      3744**DCL      6889>>ASSIGN   6894>>ASSIGN
S_D.CURRENT_CHANNEL
      6519**DCL      6521--REDEF
S_D.DEBUGA
      5671**DCL      5673--REDEF
S_D.EIS
      6629**DCL      6658--REDEF
S_D.ERROR
      5600**DCL      6898<<ASSIGN   6911<<ASSIGN   6918<<ASSIGN
S_D.GOTQUAL3
      6247**DCL      6893<<ASSIGN   6902<<ASSIGN   6909>>IF
S_D.HOST_MESSAGE_BUF_REMOTE
      6562**DCL      6563--REDEF    6577--REDEF
S_D.JDE
      6176**DCL      6177--REDEF
S_D.L$.VALUE
      5729**DCL      5735--REDEF    5743--REDEF    5746--REDEF    5749--REDEF    5752--REDEF
PL6.E3A0      #001=DDS$POSITION File=DDS$POSIT.:E05TSI                           TUE 07/29/97 14:19 Page:15
S_D.L$.VALUE.L
      5730**DCL      5731--REDEF    5732--REDEF
S_D.L6_MESSAGE_BUF
      6583**DCL      6585--REDEF
S_D.OUTPUT
      6549**DCL      6551--REDEF
S_D.REMOTE_MSG.FNCC
      6568**DCL      6569--REDEF
S_D.REMOTE_MSG.STXC
      6564**DCL      6565--REDEF
S_D.REMOTE_MSG.SUBFNCC
      6572**DCL      6573--REDEF
S_D.SCHEMA
      5669**DCL      6896>>IF
S_D.SV
      5628**DCL      5649--REDEF
S_D$
      6880**DCL      5576--IMP-PTR  6893>>ASSIGN   6896>>IF       6898>>ASSIGN   6902>>ASSIGN   6909>>IF
      6911>>ASSIGN   6918>>ASSIGN
TCODE
        30**DCL      6890<<ASSIGN   6891>>IF       6895<<ASSIGN   6903>>IF       6907>>IF
PL6.E3A0      #001=DDS$POSITION File=DDS$POSIT.:E05TSI                           TUE 07/29/97 14:19 Page:16
              *** CROSS REFERENCE LISTING ***
    **     DENOTES     IDENTIFIER DEFINITION
    <<                 IDENTIFIER'S VALUE SET
    >>                 IDENTIFIER'S VALUE USED
    <>                 IDENTIFIER SET AND/OR USED
    --                 IDENTIFIER REFERENCED
PL6.E3A0      #001=DDS$POSITION File=DDS$POSIT.:E05TSI                           TUE 07/29/97 14:19 Page:17
              MINI UREF LISTING

DDS$POSITION      26**PROC
