VERSION E05

PL6.E3A0      #001=DDS$POS_SP File=DDS$POS_SP.:E05TSI                            TUE 07/29/97 14:20 Page:1
        1        1        /*M* DDS$POS_SP EVALUATE SPECIAL SYMBOLS ($O,$IC,$L) AS POSITIONS. */
        2        2        /*T***********************************************************/
        3        3        /*T*                                                         */
        4        4        /*T* Copyright (c) Bull HN Information Systems Inc., 1997    */
        5        5        /*T*                                                         */
        6        6        /*T***********************************************************/
        7        7        /*X* DMR,PLM=5,IND=5,CSU=3,EXM=0,ECU=3,MOC,DCI=5,CRT=5 */
        8        8        %SET LISTSUB='1'B;
        9        9        /*F* NAME: DDS$POS_SP
       10       10             PURPOSE: TO EVALUATE SPECIAL SYMBOLS FOR POSITION SPECIFICATION.
       11       11             DESCRIPTION: VALIDATES & GETS BASIC INFO ABOUT SPECIAL SYMBOL
       12       12             BY CALLING DDS$SP_SRCH. IF THE SYMBOL IS KNOWN & IS ONE OF $O, $IC, OR $L
       13       13             THEN ITS VALUE IS OBTAINED BY CALLING DCK$GETSPEC, AND THE ALTRETURN
       14       14             IS TAKEN. IF ANY OF THE ABOVE CONDITIONS ARE NOT MET THEN THE NORMAL
       15       15             RETURN IS TAKEN. */
       16       16        /*D* NAME: DDS$POS_SP
       17       17             CALL: CALL DDS$POS_SP( SYM$, V, ERROR ) ALTRET( SUCCESSFUL );
       18       18             INTERFACE: SPECIAL SYMBOL ITEM DEFINITIONS.
       19       19             ENVIRONMENT: DELTA SCANNER ACTIVE.
       20       20             INPUT: SYM$ - POINTER TO SYMBOL TEXTC.
       21       21             OUTPUT: V - SBIN VALUE.
       22       22                     ERROR - WHETHER SYMBOLIC TEXT WAS IDENTIFIED.
       23       23             SCRATCH: LOCAL AUTO ONLY.
       24       24             DESCRIPTION: VALIDATES & GETS BASIC INFO ABOUT SPECIAL SYMBOL
       25       25             BY CALLING DDS$SP_SRCH. IF THE SYMBOL IS KNOWN & IS ONE OF $O, $IC, OR $L
       26       26             THEN ITS VALUE IS OBTAINED BY CALLING DDK$GETSPEC, AND THE ALTRETURN
       27       27             IS TAKEN. IF ANY OF THE ABOVE CONDITIONS ARE NOT MET THEN THE NORMAL
       28       28             RETURN IS TAKEN. */
       29       29                                                /**/
       30       30        DDS$POS_SP: PROC( SYM$, V, ERROR ) ALTRET;
       31       31                                                /**/
       32       32    1   DCL SYM$ PTR;
       33       33    1   DCL V SBIN;
       34       34    1   DCL ERROR BIT(1) ALIGNED;
       35       35    1   DCL ATYPE SBIN;
       36       36    1   DCL 1 SITEM_VAL,
       37       37    1         2 ID UBIN(9) UNAL,
PL6.E3A0      #001=DDS$POS_SP File=DDS$POS_SP.:E05TSI                            TUE 07/29/97 14:20 Page:2
       38       38    1         2 SZ UBIN(9) UNAL,
       39       39    1         2 * UBIN(6) UNAL,
       40       40    1         2 MDSE,
       41       41    1           3 M BIT(1),
       42       42    1           3 D BIT(1),
       43       43    1           3 S BIT(1),
       44       44    1           3 E BIT(1),
       45       45    1           3 * BIT(2),
       46       46    1         2 FMT UBIN(6) UNAL;
       47       47    1   DCL ID SBIN;
       48       48    1   DCL DUMMY SBIN;
       49       49             %INCLUDE DD$DITEM;
       12+     152             %LIST;
       13+     153    1        DCL SDD$ PTR;
       14+     154    1        DCL ZITEM$ PTR;
       15+     155    1        DCL SDD_L6$ PTR;
       16+     156    1        DCL ZITEM_L6$ PTR;
       50      730             %INCLUDE DD_ERR_C;
       51     1127             %INCLUDE XUH_MACRO_C;
       52     1211             %INCLUDE DD_SD_M;
       53     2547             %S_D;
       54     3865    1   DCL DDS$SP_SRCH  ENTRY(2) ALTRET;
       55     3866    1   DCL DDI$GET_PATCH_SPACE ENTRY;
       56     3867                                                /**/
       57     3868    1        ERROR = '0'B;                      /* ASSUME SYMBOL NOT FOUND */
       58     3869    1        CALL DDS$SP_SRCH( SYM$, SITEM_VAL ) ALTRET( FOUND );
       59     3870    1        GOTO NFOUND;
       60     3871    1   FOUND:
       61     3872    1        IF SITEM_VAL.MDSE.E
       62     3873    2        THEN DO;
       63     3874    3             DO CASE( SITEM_VAL.ID );
       64     3875    3               CASE( %O_RTN );             /* O_RTN */
       65     3876    3                  IF S_D.O$.NOT_IS
       66     3877    3                  THEN GOTO INVSPEC;
       67     3878    3                  IF S_D.TEMP$O_ACTIVE THEN
       68     3879    3                       V = S_D.TEMP$O;
       69     3880    3                  ELSE
PL6.E3A0      #001=DDS$POS_SP File=DDS$POS_SP.:E05TSI                            TUE 07/29/97 14:20 Page:3
       70     3881    3                       V = S_D.O$.ADDRESS;
       71     3882    3               CASE( %I_RTN );             /* I_RTN */
       72     3883    3                  V = S_D.SAVEIC;
       73     3884    3               CASE( %L_RTN );             /* L_RTN */
       74     3885    3                  V= S_D.L$.VALUE.L;
       75     3886    3               CASE( %@_RTN );             /* @_RTN */
       76     3887    3                  IF NOT S_D.DEFINED@ THEN CALL DDI$GET_PATCH_SPACE;
       77     3888    3                  IF NOT S_D.GOT@
       78     3889    3                  THEN GOTO NPATCHI;
       79     3890    3                  V = S_D.NEXT@;
       80     3891    3               CASE( %@@_RTN );            /* @@_RTN */
       81     3892    3                  IF NOT S_D.DEFINED@ THEN CALL DDI$GET_PATCH_SPACE;
       82     3893    3                  IF NOT S_D.GOT@
       83     3894    3                  THEN GOTO NPATCHI;
       84     3895    3                  V = ( ( S_D.NEXT@ + 1 ) / 2 ) * 2;
       85     3896    3               CASE( %#_RTN );             /* #_RTN */
       86     3897    3                  IF NOT S_D.DEFINED# THEN CALL DDI$GET_PATCH_SPACE;
       87     3898    3                  IF NOT S_D.GOT#
       88     3899    3                  THEN GOTO NPATCHD;
       89     3900    3                  V = S_D.NEXT#;
       90     3901    3               CASE( %##_RTN );            /* ##_RTN */
       91     3902    3                  IF NOT S_D.DEFINED# THEN CALL DDI$GET_PATCH_SPACE;
       92     3903    3                  IF NOT S_D.GOT#
       93     3904    3                  THEN GOTO NPATCHD;
       94     3905    3                  V = ( ( S_D.NEXT# + 1 ) / 2 ) * 2;
       95     3906    3               CASE( ELSE );
       96     3907    3                  GOTO INVSPEC;
       97     3908    3               END;              /* DO CASE( ADDR( SITEM_VAL ) -> SITEM.ID ) */
       98     3909    2             ALTRETURN;
       99     3910    2           END;
      100     3911                                                /**/
      101     3912    1   INVSPEC: S_D.ERROR = 4; /* E@INVLD_SPEC */ GOTO SETERROR;
      102     3913    1   NPATCHI: S_D.ERROR = 151; /* E@NO@ */ GOTO SETERROR;
      103     3914    1   NPATCHD: S_D.ERROR = 152; /* E@NO# */ GOTO SETERROR;
      104     3915    1   SETERROR:
      105     3916    1        ERROR = '1'B;
      106     3917                                                /**/
PL6.E3A0      #001=DDS$POS_SP File=DDS$POS_SP.:E05TSI                            TUE 07/29/97 14:20 Page:4
      107     3918    1   NFOUND: RETURN;
      108     3919                                                /**/
      109     3920    1   END DDS$POS_SP;

PL6.E3A0      #001=DDS$POS_SP File=DDS$POS_SP.:E05TSI                            TUE 07/29/97 14:20 Page:5
--  Include file information  --

   DD_SD_M.:E05TOU  is referenced.
   XUH_MACRO_C.:E05TOU  is referenced.
   DD_ERR_C.:E05TOU  is referenced.
   DD_SRTN_C.:E05TOU  is referenced.
   DD_ACODE_C.:E05TOU  is referenced.
   DD_ICODE_C.:E05TOU  is referenced.
   DD$DITEM.:E05TOU  cannot be made into a system file and is referenced.
   B$JIT_C.:E05TOU  was found in the system file and is never referenced.
   CP_6_C.:E05TOU  was found in the system file and is never referenced.
      No diagnostics issued in procedure DDS$POS_SP.

   Procedure DDS$POS_SP requires 154 words for executable code.
   Procedure DDS$POS_SP requires 16 words of local(AUTO) storage.

    No errors detected in file DDS$POS_SP.:E05TSI    .

PL6.E3A0      #001=DDS$POS_SP File=DDS$POS_SP.:E05TSI                            TUE 07/29/97 14:20 Page:6

 Object Unit name= DDS$POS_SP                                 File name= DDS$POS_SP.:E05TOU
 UTS= JUL 29 '97 14:20:00.96 TUE                              Compiler= PL-6/E31         Sev=      00
 SharedLib= :SHARED_SYSTEM                                    Alt SharedLib=


    ****  Control sections  ****

 Sect   Type Bound  Init  Size OctSiz  Section name(segment info)
    0   Proc  even  none   154    232  DDS$POS_SP

    ****  Entry defs  ****

                              Check   Calling
                             calling  sequence
  Sect OctLoc Primary Altret sequence   type   Parms  Name
     0      0   yes    yes     yes      Std        3  DDS$POS_SP

  ****  Entry refs  ****

         Check        Calling
        calling       sequence
Altret sequence SRef   type   Args  Name
 yes     yes           Std       2 DDS$SP_SRCH
         yes           Std       0 DDI$GET_PATCH_SPACE
                       nStd      0 X66_AUTO_3
                       Std       0 B_CONSPOOL_D
                       nStd      0 X66_AALT
                       nStd      0 X66_ARET

  ****  Data refs  ****

  Flags:  r = read only, s = secondary
Flgs Name                             Flgs Name                             Flgs Name
r    S_D$                                  B_VECTNIL
PL6.E3A0      #001=DDS$POS_SP File=DDS$POS_SP.:E05TSI                            TUE 07/29/97 14:20 Page:7


        1        1        /*M* DDS$POS_SP EVALUATE SPECIAL SYMBOLS ($O,$IC,$L) AS POSITIONS. */
        2        2        /*T***********************************************************/
        3        3        /*T*                                                         */
        4        4        /*T* Copyright (c) Bull HN Information Systems Inc., 1997    */
        5        5        /*T*                                                         */
        6        6        /*T***********************************************************/
        7        7        /*X* DMR,PLM=5,IND=5,CSU=3,EXM=0,ECU=3,MOC,DCI=5,CRT=5 */
        8        8        %SET LISTSUB='1'B;
        9        9        /*F* NAME: DDS$POS_SP
       10       10             PURPOSE: TO EVALUATE SPECIAL SYMBOLS FOR POSITION SPECIFICATION.
       11       11             DESCRIPTION: VALIDATES & GETS BASIC INFO ABOUT SPECIAL SYMBOL
       12       12             BY CALLING DDS$SP_SRCH. IF THE SYMBOL IS KNOWN & IS ONE OF $O, $IC, OR $L
       13       13             THEN ITS VALUE IS OBTAINED BY CALLING DCK$GETSPEC, AND THE ALTRETURN
       14       14             IS TAKEN. IF ANY OF THE ABOVE CONDITIONS ARE NOT MET THEN THE NORMAL
       15       15             RETURN IS TAKEN. */
       16       16        /*D* NAME: DDS$POS_SP
       17       17             CALL: CALL DDS$POS_SP( SYM$, V, ERROR ) ALTRET( SUCCESSFUL );
       18       18             INTERFACE: SPECIAL SYMBOL ITEM DEFINITIONS.
       19       19             ENVIRONMENT: DELTA SCANNER ACTIVE.
       20       20             INPUT: SYM$ - POINTER TO SYMBOL TEXTC.
       21       21             OUTPUT: V - SBIN VALUE.
       22       22                     ERROR - WHETHER SYMBOLIC TEXT WAS IDENTIFIED.
       23       23             SCRATCH: LOCAL AUTO ONLY.
       24       24             DESCRIPTION: VALIDATES & GETS BASIC INFO ABOUT SPECIAL SYMBOL
       25       25             BY CALLING DDS$SP_SRCH. IF THE SYMBOL IS KNOWN & IS ONE OF $O, $IC, OR $L
       26       26             THEN ITS VALUE IS OBTAINED BY CALLING DDK$GETSPEC, AND THE ALTRETURN
       27       27             IS TAKEN. IF ANY OF THE ABOVE CONDITIONS ARE NOT MET THEN THE NORMAL
       28       28             RETURN IS TAKEN. */
       29       29                                                /**/
       30       30        DDS$POS_SP: PROC( SYM$, V, ERROR ) ALTRET;

     30  0 000000   000000 700200 xent  DDS$POS_SP   TSX0  ! X66_AUTO_3
         0 000001   000020 000003                    ZERO    16,3

       31       31                                                /**/
       32       32    1   DCL SYM$ PTR;
PL6.E3A0      #001=DDS$POS_SP File=DDS$POS_SP.:E05TSI                            TUE 07/29/97 14:20 Page:8
       33       33    1   DCL V SBIN;
       34       34    1   DCL ERROR BIT(1) ALIGNED;
       35       35    1   DCL ATYPE SBIN;
       36       36    1   DCL 1 SITEM_VAL,
       37       37    1         2 ID UBIN(9) UNAL,
       38       38    1         2 SZ UBIN(9) UNAL,
       39       39    1         2 * UBIN(6) UNAL,
       40       40    1         2 MDSE,
       41       41    1           3 M BIT(1),
       42       42    1           3 D BIT(1),
       43       43    1           3 S BIT(1),
       44       44    1           3 E BIT(1),
       45       45    1           3 * BIT(2),
       46       46    1         2 FMT UBIN(6) UNAL;
       47       47    1   DCL ID SBIN;
       48       48    1   DCL DUMMY SBIN;
       49       49             %INCLUDE DD$DITEM;
       12+     152             %LIST;
       13+     153    1        DCL SDD$ PTR;
       14+     154    1        DCL ZITEM$ PTR;
       15+     155    1        DCL SDD_L6$ PTR;
       16+     156    1        DCL ZITEM_L6$ PTR;
       50      730             %INCLUDE DD_ERR_C;
       51     1127             %INCLUDE XUH_MACRO_C;
       52     1211             %INCLUDE DD_SD_M;
       53     2547             %S_D;
       54     3865    1   DCL DDS$SP_SRCH  ENTRY(2) ALTRET;
       55     3866    1   DCL DDI$GET_PATCH_SPACE ENTRY;
       56     3867                                                /**/
       57     3868    1        ERROR = '0'B;                      /* ASSUME SYMBOL NOT FOUND */

   3868  0 000002   200005 470500                    LDP0    @ERROR,,AUTO
         0 000003   000000 450100                    STZ     0,,PR0

       58     3869    1        CALL DDS$SP_SRCH( SYM$, SITEM_VAL ) ALTRET( FOUND );

   3869  0 000004   200007 631500                    EPPR1   SITEM_VAL,,AUTO
PL6.E3A0      #001=DDS$POS_SP File=DDS$POS_SP.:E05TSI                            TUE 07/29/97 14:20 Page:9
         0 000005   200017 451500                    STP1    SITEM_VAL+8,,AUTO
         0 000006   200003 236100                    LDQ     @SYM$,,AUTO
         0 000007   200016 756100                    STQ     SITEM_VAL+7,,AUTO
         0 000010   200016 630500                    EPPR0   SITEM_VAL+7,,AUTO
         0 000011   000020 631400 xsym               EPPR1   B_VECTNIL+16
         0 000012   000000 701000 xent               TSX1    DDS$SP_SRCH
         0 000013   000015 702000 0                  TSX2    FOUND

       59     3870    1        GOTO NFOUND;

   3870  0 000014   000231 710000 0                  TRA     NFOUND

       60     3871    1   FOUND:
       61     3872    1        IF SITEM_VAL.MDSE.E

   3872  0 000015   200007 236100       FOUND        LDQ     SITEM_VAL,,AUTO
         0 000016   000400 316007                    CANQ    256,DL
         0 000017   000214 600000 0                  TZE     INVSPEC

       62     3873    2        THEN DO;

       63     3874    3             DO CASE( SITEM_VAL.ID );

   3874  0 000020   200007 236100                    LDQ     SITEM_VAL,,AUTO
         0 000021   000033 772000                    QRL     27
         0 000022   000044 116007                    CMPQ    36,DL
         0 000023   000025 602006 0                  TNC     s:3874+5,QL
         0 000024   000212 710000 0                  TRA     s:3907
         0 000025   000071 710000 0                  TRA     s:3876
         0 000026   000106 710000 0                  TRA     s:3883
         0 000027   000113 710000 0                  TRA     s:3885
         0 000030   000212 710000 0                  TRA     s:3907
         0 000031   000212 710000 0                  TRA     s:3907
         0 000032   000212 710000 0                  TRA     s:3907
         0 000033   000212 710000 0                  TRA     s:3907
         0 000034   000212 710000 0                  TRA     s:3907
         0 000035   000212 710000 0                  TRA     s:3907
PL6.E3A0      #001=DDS$POS_SP File=DDS$POS_SP.:E05TSI                            TUE 07/29/97 14:20 Page:10
         0 000036   000212 710000 0                  TRA     s:3907
         0 000037   000212 710000 0                  TRA     s:3907
         0 000040   000212 710000 0                  TRA     s:3907
         0 000041   000212 710000 0                  TRA     s:3907
         0 000042   000212 710000 0                  TRA     s:3907
         0 000043   000212 710000 0                  TRA     s:3907
         0 000044   000212 710000 0                  TRA     s:3907
         0 000045   000212 710000 0                  TRA     s:3907
         0 000046   000212 710000 0                  TRA     s:3907
         0 000047   000212 710000 0                  TRA     s:3907
         0 000050   000212 710000 0                  TRA     s:3907
         0 000051   000212 710000 0                  TRA     s:3907
         0 000052   000212 710000 0                  TRA     s:3907
         0 000053   000212 710000 0                  TRA     s:3907
         0 000054   000212 710000 0                  TRA     s:3907
         0 000055   000212 710000 0                  TRA     s:3907
         0 000056   000212 710000 0                  TRA     s:3907
         0 000057   000212 710000 0                  TRA     s:3907
         0 000060   000212 710000 0                  TRA     s:3907
         0 000061   000212 710000 0                  TRA     s:3907
         0 000062   000212 710000 0                  TRA     s:3907
         0 000063   000212 710000 0                  TRA     s:3907
         0 000064   000212 710000 0                  TRA     s:3907
         0 000065   000120 710000 0                  TRA     s:3887
         0 000066   000135 710000 0                  TRA     s:3892
         0 000067   000155 710000 0                  TRA     s:3897
         0 000070   000172 710000 0                  TRA     s:3902

       64     3875    3               CASE( %O_RTN );             /* O_RTN */

       65     3876    3                  IF S_D.O$.NOT_IS

   3876  0 000071   000000 470400 xsym               LDP0    S_D$
         0 000072   000133 234100                    SZN     91,,PR0
         0 000073   000214 604000 0                  TMI     INVSPEC

       66     3877    3                  THEN GOTO INVSPEC;
PL6.E3A0      #001=DDS$POS_SP File=DDS$POS_SP.:E05TSI                            TUE 07/29/97 14:20 Page:11
       67     3878    3                  IF S_D.TEMP$O_ACTIVE THEN

   3878  0 000074   007106 234100                    SZN     3654,,PR0
         0 000075   000102 605000 0                  TPL     s:3881

       68     3879    3                       V = S_D.TEMP$O;

   3879  0 000076   007105 235100                    LDA     3653,,PR0
         0 000077   200004 471500                    LDP1    @V,,AUTO
         0 000100   100000 755100                    STA     0,,PR1
         0 000101   000213 710000 0                  TRA     s:3909

       69     3880    3                  ELSE
       70     3881    3                       V = S_D.O$.ADDRESS;

   3881  0 000102   000132 235100                    LDA     90,,PR0
         0 000103   200004 471500                    LDP1    @V,,AUTO
         0 000104   100000 755100                    STA     0,,PR1
         0 000105   000213 710000 0                  TRA     s:3909

       71     3882    3               CASE( %I_RTN );             /* I_RTN */

       72     3883    3                  V = S_D.SAVEIC;

   3883  0 000106   000000 470400 xsym               LDP0    S_D$
         0 000107   000002 235100                    LDA     2,,PR0
         0 000110   200004 471500                    LDP1    @V,,AUTO
         0 000111   100000 755100                    STA     0,,PR1
         0 000112   000213 710000 0                  TRA     s:3909

       73     3884    3               CASE( %L_RTN );             /* L_RTN */

       74     3885    3                  V= S_D.L$.VALUE.L;

   3885  0 000113   000000 470400 xsym               LDP0    S_D$
         0 000114   200004 471500                    LDP1    @V,,AUTO
         0 000115   000106 235100                    LDA     70,,PR0
PL6.E3A0      #001=DDS$POS_SP File=DDS$POS_SP.:E05TSI                            TUE 07/29/97 14:20 Page:12
         0 000116   100000 755100                    STA     0,,PR1
         0 000117   000213 710000 0                  TRA     s:3909

       75     3886    3               CASE( %@_RTN );             /* @_RTN */

       76     3887    3                  IF NOT S_D.DEFINED@ THEN CALL DDI$GET_PATCH_SPACE;

   3887  0 000120   000000 470400 xsym               LDP0    S_D$
         0 000121   005060 234100                    SZN     2608,,PR0
         0 000122   000126 604000 0                  TMI     s:3888

   3887  0 000123   000002 631400 xsym               EPPR1   B_VECTNIL+2
         0 000124   000000 701000 xent               TSX1    DDI$GET_PATCH_SPACE
         0 000125   000000 011000                    NOP     0

       77     3888    3                  IF NOT S_D.GOT@

   3888  0 000126   000000 470400 xsym               LDP0    S_D$
         0 000127   005054 234100                    SZN     2604,,PR0
         0 000130   000220 605000 0                  TPL     NPATCHI

       78     3889    3                  THEN GOTO NPATCHI;
       79     3890    3                  V = S_D.NEXT@;

   3890  0 000131   005055 235100                    LDA     2605,,PR0
         0 000132   200004 471500                    LDP1    @V,,AUTO
         0 000133   100000 755100                    STA     0,,PR1
         0 000134   000213 710000 0                  TRA     s:3909

       80     3891    3               CASE( %@@_RTN );            /* @@_RTN */

       81     3892    3                  IF NOT S_D.DEFINED@ THEN CALL DDI$GET_PATCH_SPACE;

   3892  0 000135   000000 470400 xsym               LDP0    S_D$
         0 000136   005060 234100                    SZN     2608,,PR0
         0 000137   000143 604000 0                  TMI     s:3893

PL6.E3A0      #001=DDS$POS_SP File=DDS$POS_SP.:E05TSI                            TUE 07/29/97 14:20 Page:13
   3892  0 000140   000002 631400 xsym               EPPR1   B_VECTNIL+2
         0 000141   000000 701000 xent               TSX1    DDI$GET_PATCH_SPACE
         0 000142   000000 011000                    NOP     0

       82     3893    3                  IF NOT S_D.GOT@

   3893  0 000143   000000 470400 xsym               LDP0    S_D$
         0 000144   005054 234100                    SZN     2604,,PR0
         0 000145   000220 605000 0                  TPL     NPATCHI

       83     3894    3                  THEN GOTO NPATCHI;
       84     3895    3                  V = ( ( S_D.NEXT@ + 1 ) / 2 ) * 2;

   3895  0 000146   005055 236100                    LDQ     2605,,PR0
         0 000147   000001 036007                    ADLQ    1,DL
         0 000150   000001 772000                    QRL     1
         0 000151   000001 736000                    QLS     1
         0 000152   200004 471500                    LDP1    @V,,AUTO
         0 000153   100000 756100                    STQ     0,,PR1
         0 000154   000213 710000 0                  TRA     s:3909

       85     3896    3               CASE( %#_RTN );             /* #_RTN */

       86     3897    3                  IF NOT S_D.DEFINED# THEN CALL DDI$GET_PATCH_SPACE;

   3897  0 000155   000000 470400 xsym               LDP0    S_D$
         0 000156   005065 234100                    SZN     2613,,PR0
         0 000157   000163 604000 0                  TMI     s:3898

   3897  0 000160   000002 631400 xsym               EPPR1   B_VECTNIL+2
         0 000161   000000 701000 xent               TSX1    DDI$GET_PATCH_SPACE
         0 000162   000000 011000                    NOP     0

       87     3898    3                  IF NOT S_D.GOT#

   3898  0 000163   000000 470400 xsym               LDP0    S_D$
         0 000164   005061 234100                    SZN     2609,,PR0
PL6.E3A0      #001=DDS$POS_SP File=DDS$POS_SP.:E05TSI                            TUE 07/29/97 14:20 Page:14
         0 000165   000223 605000 0                  TPL     NPATCHD

       88     3899    3                  THEN GOTO NPATCHD;
       89     3900    3                  V = S_D.NEXT#;

   3900  0 000166   005062 235100                    LDA     2610,,PR0
         0 000167   200004 471500                    LDP1    @V,,AUTO
         0 000170   100000 755100                    STA     0,,PR1
         0 000171   000213 710000 0                  TRA     s:3909

       90     3901    3               CASE( %##_RTN );            /* ##_RTN */

       91     3902    3                  IF NOT S_D.DEFINED# THEN CALL DDI$GET_PATCH_SPACE;

   3902  0 000172   000000 470400 xsym               LDP0    S_D$
         0 000173   005065 234100                    SZN     2613,,PR0
         0 000174   000200 604000 0                  TMI     s:3903

   3902  0 000175   000002 631400 xsym               EPPR1   B_VECTNIL+2
         0 000176   000000 701000 xent               TSX1    DDI$GET_PATCH_SPACE
         0 000177   000000 011000                    NOP     0

       92     3903    3                  IF NOT S_D.GOT#

   3903  0 000200   000000 470400 xsym               LDP0    S_D$
         0 000201   005061 234100                    SZN     2609,,PR0
         0 000202   000223 605000 0                  TPL     NPATCHD

       93     3904    3                  THEN GOTO NPATCHD;
       94     3905    3                  V = ( ( S_D.NEXT# + 1 ) / 2 ) * 2;

   3905  0 000203   005062 236100                    LDQ     2610,,PR0
         0 000204   000001 036007                    ADLQ    1,DL
         0 000205   000001 772000                    QRL     1
         0 000206   000001 736000                    QLS     1
         0 000207   200004 471500                    LDP1    @V,,AUTO
         0 000210   100000 756100                    STQ     0,,PR1
PL6.E3A0      #001=DDS$POS_SP File=DDS$POS_SP.:E05TSI                            TUE 07/29/97 14:20 Page:15
         0 000211   000213 710000 0                  TRA     s:3909

       95     3906    3               CASE( ELSE );

       96     3907    3                  GOTO INVSPEC;

   3907  0 000212   000214 710000 0                  TRA     INVSPEC

       97     3908    3               END;              /* DO CASE( ADDR( SITEM_VAL ) -> SITEM.ID ) */

       98     3909    2             ALTRETURN;

   3909  0 000213   000000 702200 xent               TSX2  ! X66_AALT

       99     3910    2           END;
      100     3911                                                /**/
      101     3912    1   INVSPEC: S_D.ERROR = 4; /* E@INVLD_SPEC */ GOTO SETERROR;

   3912  0 000214   000004 235007       INVSPEC      LDA     4,DL
         0 000215   000000 470400 xsym               LDP0    S_D$
         0 000216   000013 755100                    STA     11,,PR0

   3912  0 000217   000226 710000 0                  TRA     SETERROR

      102     3913    1   NPATCHI: S_D.ERROR = 151; /* E@NO@ */ GOTO SETERROR;

   3913  0 000220   000227 235007       NPATCHI      LDA     151,DL
         0 000221   000013 755100                    STA     11,,PR0

   3913  0 000222   000226 710000 0                  TRA     SETERROR

      103     3914    1   NPATCHD: S_D.ERROR = 152; /* E@NO# */ GOTO SETERROR;

   3914  0 000223   000230 235007       NPATCHD      LDA     152,DL
         0 000224   000013 755100                    STA     11,,PR0

   3914  0 000225   000226 710000 0                  TRA     SETERROR
PL6.E3A0      #001=DDS$POS_SP File=DDS$POS_SP.:E05TSI                            TUE 07/29/97 14:20 Page:16

      104     3915    1   SETERROR:
      105     3916    1        ERROR = '1'B;

   3916  0 000226   400000 236003       SETERROR     LDQ     -131072,DU
         0 000227   200005 471500                    LDP1    @ERROR,,AUTO
         0 000230   100000 756100                    STQ     0,,PR1

      106     3917                                                /**/
      107     3918    1   NFOUND: RETURN;

   3918  0 000231   000000 702200 xent  NFOUND       TSX2  ! X66_ARET
      108     3919                                                /**/
      109     3920    1   END DDS$POS_SP;

PL6.E3A0      #001=DDS$POS_SP File=DDS$POS_SP.:E05TSI                            TUE 07/29/97 14:20 Page:17
--  Include file information  --

   DD_SD_M.:E05TOU  is referenced.
   XUH_MACRO_C.:E05TOU  is referenced.
   DD_ERR_C.:E05TOU  is referenced.
   DD_SRTN_C.:E05TOU  is referenced.
   DD_ACODE_C.:E05TOU  is referenced.
   DD_ICODE_C.:E05TOU  is referenced.
   DD$DITEM.:E05TOU  cannot be made into a system file and is referenced.
   B$JIT_C.:E05TOU  was found in the system file and is never referenced.
   CP_6_C.:E05TOU  was found in the system file and is never referenced.
      No diagnostics issued in procedure DDS$POS_SP.

   Procedure DDS$POS_SP requires 154 words for executable code.
   Procedure DDS$POS_SP requires 16 words of local(AUTO) storage.

    No errors detected in file DDS$POS_SP.:E05TSI    .
PL6.E3A0      #001=DDS$POS_SP File=DDS$POS_SP.:E05TSI                            TUE 07/29/97 14:20 Page:18
          *** CROSS REFERENCE LISTING ***
**     DENOTES     IDENTIFIER DEFINITION
<<                 IDENTIFIER'S VALUE SET
>>                 IDENTIFIER'S VALUE USED
<>                 IDENTIFIER SET AND/OR USED
--                 IDENTIFIER REFERENCED
PL6.E3A0      #001=DDS$POS_SP File=DDS$POS_SP.:E05TSI                            TUE 07/29/97 14:20 Page:19
          MINI XREF LISTING

DDI$GET_PATCH_SPACE
      3866**DCL-ENT  3887--CALL     3892--CALL     3897--CALL     3902--CALL
DDS$SP_SRCH
      3865**DCL-ENT  3869--CALL
ERROR
        34**DCL        30--PROC     3868<<ASSIGN   3916<<ASSIGN
FOUND
      3872**LABEL    3869--CALLALT
INVSPEC
      3912**LABEL    3877--GOTO     3907--GOTO
NFOUND
      3918**LABEL    3870--GOTO
NPATCHD
      3914**LABEL    3899--GOTO     3904--GOTO
NPATCHI
      3913**LABEL    3889--GOTO     3894--GOTO
SETERROR
      3916**LABEL    3912--GOTO     3913--GOTO     3914--GOTO
SITEM_VAL
        36**DCL      3869<>CALL
SITEM_VAL.ID
        37**DCL      3874>>DOCASE
SITEM_VAL.MDSE.E
        44**DCL      3872>>IF
SYM$
        32**DCL        30--PROC     3869<>CALL
S_D.CURRENT_CHANNEL
      3499**DCL      3501--REDEF
S_D.DEBUGA
      2651**DCL      2653--REDEF
S_D.DEFINED#
      3285**DCL      3897>>IF       3902>>IF
PL6.E3A0      #001=DDS$POS_SP File=DDS$POS_SP.:E05TSI                            TUE 07/29/97 14:20 Page:20
S_D.DEFINED@
      3275**DCL      3887>>IF       3892>>IF
S_D.EIS
      3609**DCL      3638--REDEF
S_D.ERROR
      2580**DCL      3912<<ASSIGN   3913<<ASSIGN   3914<<ASSIGN
S_D.GOT#
      3277**DCL      3898>>IF       3903>>IF
S_D.GOT@
      3267**DCL      3888>>IF       3893>>IF
S_D.HOST_MESSAGE_BUF_REMOTE
      3542**DCL      3543--REDEF    3557--REDEF
S_D.JDE
      3156**DCL      3157--REDEF
S_D.L$.VALUE
      2709**DCL      2715--REDEF    2723--REDEF    2726--REDEF    2729--REDEF    2732--REDEF
S_D.L$.VALUE.L
      2710**DCL      2711--REDEF    2712--REDEF    3885>>ASSIGN
S_D.L6_MESSAGE_BUF
      3563**DCL      3565--REDEF
S_D.NEXT#
      3279**DCL      3900>>ASSIGN   3905>>ASSIGN
S_D.NEXT@
      3269**DCL      3890>>ASSIGN   3895>>ASSIGN
S_D.O$.ADDRESS
      2740**DCL      3881>>ASSIGN
S_D.O$.NOT_IS
      2741**DCL      3876>>IF
S_D.OUTPUT
      3529**DCL      3531--REDEF
S_D.REMOTE_MSG.FNCC
      3548**DCL      3549--REDEF
S_D.REMOTE_MSG.STXC
      3544**DCL      3545--REDEF
S_D.REMOTE_MSG.SUBFNCC
      3552**DCL      3553--REDEF
PL6.E3A0      #001=DDS$POS_SP File=DDS$POS_SP.:E05TSI                            TUE 07/29/97 14:20 Page:21
S_D.SAVEIC
      2562**DCL      3883>>ASSIGN
S_D.SV
      2608**DCL      2629--REDEF
S_D.TEMP$O
      3790**DCL      3879>>ASSIGN
S_D.TEMP$O_ACTIVE
      3792**DCL      3878>>IF
S_D$
      3860**DCL      2556--IMP-PTR  3876>>IF       3878>>IF       3879>>ASSIGN   3881>>ASSIGN   3883>>ASSIGN
      3885>>ASSIGN   3887>>IF       3888>>IF       3890>>ASSIGN   3892>>IF       3893>>IF       3895>>ASSIGN
      3897>>IF       3898>>IF       3900>>ASSIGN   3902>>IF       3903>>IF       3905>>ASSIGN   3912>>ASSIGN
      3913>>ASSIGN   3914>>ASSIGN
V
        33**DCL        30--PROC     3879<<ASSIGN   3881<<ASSIGN   3883<<ASSIGN   3885<<ASSIGN   3890<<ASSIGN
      3895<<ASSIGN   3900<<ASSIGN   3905<<ASSIGN
PL6.E3A0      #001=DDS$POS_SP File=DDS$POS_SP.:E05TSI                            TUE 07/29/97 14:20 Page:22
              *** CROSS REFERENCE LISTING ***
    **     DENOTES     IDENTIFIER DEFINITION
    <<                 IDENTIFIER'S VALUE SET
    >>                 IDENTIFIER'S VALUE USED
    <>                 IDENTIFIER SET AND/OR USED
    --                 IDENTIFIER REFERENCED
PL6.E3A0      #001=DDS$POS_SP File=DDS$POS_SP.:E05TSI                            TUE 07/29/97 14:20 Page:23
              MINI UREF LISTING

ATYPE      35**DCL
DDS$POS_SP      30**PROC
DUMMY      48**DCL
ID      47**DCL
SDD$     153**DCL
SDD_L6$     155**DCL
ZITEM$     154**DCL
ZITEM_L6$     156**DCL
