VERSION E05

PL6.E3A0      #001=DDS$SDO File=DDS$SDO.:E05TSI                                  TUE 07/29/97 14:21 Page:1
        1        1        /*M* DDS$SDO EVALUATE "SIMBLE", "DECIMAL", "OCTIL", OR "CNR1C" NODES */
        2        2        /*T***********************************************************/
        3        3        /*T*                                                         */
        4        4        /*T* Copyright (c) Bull HN Information Systems Inc., 1997    */
        5        5        /*T*                                                         */
        6        6        /*T***********************************************************/
        7        7        /*X* DMR,PLM=5,IND=5,CSU=3,EXM=0,ECU=3,MOC,DCI=5,CRT=5 */
        8        8        %SET LISTSUB='1'B;
        9        9        /*F* NAME: DDS$SDO
       10       10             PURPOSE: TO EVALUATE "SIMBLE", "DECIMALS", "OCTIL", OR "CNR1C" NODES.
       11       11             DESCRIPTION: DETERMINES WHICH NODE IT IS, THEN CALLS THE APPROPRIATE
       12       12             ROUTINE TO EVALUATE IT. THE NODES "SIMBLE" AND "CNR1C" ARE
       13       13             EVALUATED INLINE. */
       14       14        /*D* NAME: DDS$SDO
       15       15             CALL: CALL DDS$SDO( NODE$, V ) ALTRET( ERROR );
       16       16             INTERFACE: DDS$UD_SRCH
       17       17                        DDS$POS_SP
       18       18                        DDS$ED_SRCH
       19       19                        DDS$SD_SRCH
       20       20             ENVIRONMENT:
       21       21             INPUT: N$ - POINTER TO NODE.
       22       22                    S_D.SIMBLEOK - WHETHER SIMBLES ARE ALLOWED
       23       23                    S_D.SDOSDEF - WHETHER TO SEARCH SYMDEFs BEFORE ENTDEFs
       24       24             OUTPUT: V - VALUE OUTPUT.
       25       25                     S_D.SDOS - WHETHER SIMBLE WAS ENCOUNTERED
       26       26                     S_D.SDOD - WHETHER DECIMAL WAS ENCOUNTERED
       27       27                     S_D.SDOO - WHETHER OCTAL WAS ENCOUNTERED
       28       28                     S_D.SDOB - WHETHER BIT-STRING WAS ENCOUNTERED
       29       29                     S_D.SDOOB - WHETHER OCTAL BIT-STRING WAS ENCOUNTERED
       30       30                     S_D.SDOT - WHETHER TEXT-STRING WAS ENCOUNTERED
       31       31             SCRATCH: LOCAL AUTO ONLY.
       32       32             DESCRIPTION: DETERMINES WHICH NODE IT IS, THEN CALLS THE APPROPRIATE
       33       33             ROUTINE TO EVALUATE IT. RETURNS UNLESS AN ERROR CONDITION ENCOUNTERED,
       34       34             THEN ALTRETURNS. */
       35       35        /**/
       36       36        DDS$SDO: PROC( NODE$, V ) ALTRET;
       37       37        /**/
PL6.E3A0      #001=DDS$SDO File=DDS$SDO.:E05TSI                                  TUE 07/29/97 14:21 Page:2
       38       38    1   DCL NODE$ PTR;                          /* POINTER TO NODE INPUT */
       39       39    1   DCL V UBIN;                             /* VALUE OUTPUT */
       40       40    1   DCL T REDEF V CHAR(4);
       41       41    1   DCL VBIT (0:35) REDEF V UBIN(1) UNAL;
       42       42    1   DCL VOCT (0:11) REDEF V UBIN(3) UNAL;
       43       43    1   DCL VHEX (0:8)  REDEF V UBIN(4) UNAL;
       44       44    1   DCL 1 L6BIT REDEF V,
       45       45    1         2 * BIT(4) UNAL,
       46       46    1         2 X (0:31) UBIN(1) UNAL;
       47       47    1   DCL 1 L6OCT REDEF V,
       48       48    1         2 * BIT(4) UNAL,
       49       49    1         2 X (0:9) UBIN(3) UNAL,
       50       50    1         2 * BIT(2) UNAL;
       51       51    1   DCL 1 L6HEX REDEF V,
       52       52    1         2 * BIT(4) UNAL,
       53       53    1         2 X (0:7) UBIN(4) UNAL;
       54       54    1   DCL 1 L6TXT REDEF V,
       55       55    1         2 * BIT(4) UNAL,
       56       56    1         2 X (0:3) UBIN(8) UNAL;
       57       57    1   DCL N$ PTR;                             /* TEMP FOR CURRENT NODE */
       58       58    1   DCL NCD SBIN;                           /* CURRENT NODE CODE */
       59       59    1   DCL SYM$ PTR;                           /* SYMBOL TEXTC POINTER */
       60       60    1   DCL ENTRY$ PTR;                         /* EDEF/SYMDEF POINTER */
       61       61    1   DCL ERROR BIT(1) ALIGNED;
       62       62    1   DCL IX UBIN;
       63       63    1   DCL TSIZ UBIN;
       64       64    1   DCL ACCUM UBIN;
       65       65    1   DCL TEMP UBIN;
       66       66    1   DCL TCHARS CHAR(4);
       67       67    1   DCL BCHARS(0:3) REDEF TCHARS UBIN BYTE CALIGNED;
       68       68    1   DCL C CHAR(1);
       69       69    1   DCL CHAR$1 CHAR(1) BASED UNAL;
       70       70    1   DCL SCHARS (0:0) CHAR(1) CALIGNED BASED (SYM$);
       71       71    1   DCL SSTR CHAR(TSIZ) CALIGNED BASED (SYM$);
       72       72    1   DCL XCHARS CHAR(16) CONSTANT INIT('0123456789ABCDEF');
       73       73
       74       74        /* Use ASCII character value as an index to get an EBCDIC character
PL6.E3A0      #001=DDS$SDO File=DDS$SDO.:E05TSI                                  TUE 07/29/97 14:21 Page:3
       75       75           value.
       76       76           For the ASCII character value -
       77       77               only use 8 bits to distinguish an ASCII character, the 9th bit
       78       78               can be either '0'B or '1'B.
       79       79           For the EBCDIC character value -
       80       80               the 8th bit is always '0'B. */
       81       81
       82       82    1   DCL 1 ASC2EBC CONSTANT DALIGNED,
       83       83    1         2 C(0:511) UBIN BYTE UNAL INIT(
       84       84        /*Most sig-       Least significant digits         */
       85       85        /*nificant  000  001  010  011  100  101  110  111 */
       86       86    1   /* 00000 */   0,   1,   2,   3,  55,  45,  46,  47,
       87       87    1   /* 00001 */  22,   5,  37,  11,  12,  13,  14,  15,
       88       88    1   /* 00010 */  16,  17,  18,  19,  60,  61,  50,  38,
       89       89    1   /* 00011 */  24,  25,  63,  39,  28,  29,  30,  31,
       90       90    1   /* 00100 */  64,  90, 127, 123,  91, 108,  80, 125,
       91       91    1   /* 00101 */  77,  93,  92,  78, 107,  96,  75,  97,
       92       92    1   /* 00110 */ 240, 241, 242, 243, 244, 245, 246, 247,
       93       93    1   /* 00111 */ 248, 249, 122,  94,  76, 126, 110, 111,
       94       94    1   /* 01000 */ 124, 193, 194, 195, 196, 197, 198, 199,
       95       95    1   /* 01001 */ 200, 201, 209, 210, 211, 212, 213, 214,
       96       96    1   /* 01010 */ 215, 216, 217, 226, 227, 228, 229, 230,
       97       97    1   /* 01011 */ 231, 232, 233,  74, 224,  79,  95, 109,
       98       98    1   /* 01100 */ 121, 129, 130, 131, 132, 133, 134, 135,
       99       99    1   /* 01101 */ 136, 137, 145, 146, 147, 148, 149, 150,
      100      100    1   /* 01110 */ 151, 152, 153, 162, 163, 164, 165, 166,
      101      101    1   /* 01111 */ 167, 168, 169, 192, 106, 208, 161,   7,
      102      102    1   /* 10000 */  32,  33,  34,  35,  36,  21,   6,  23,
      103      103    1   /* 10001 */  40,  41,  42,  43,  44,   9,  10,  27,
      104      104    1   /* 10010 */  48,  49,  26,  51,  52,  53,  54,   8,
      105      105    1   /* 10011 */  56,  57,  58,  59,   4,  20,  62, 225,
      106      106    1   /* 10100 */  65,  66,  67,  68,  69,  70,  71,  72,
      107      107    1   /* 10101 */  73,  81,  82,  83,  84,  85,  86,  87,
      108      108    1   /* 10110 */  88,  89,  98,  99, 100, 101, 102, 103,
      109      109    1   /* 10111 */ 104, 105, 112, 113, 114, 115, 116, 117,
      110      110    1   /* 11000 */ 118, 119, 120, 128, 138, 139, 140, 141,
      111      111    1   /* 11001 */ 142, 143, 144, 154, 155, 156, 157, 158,
PL6.E3A0      #001=DDS$SDO File=DDS$SDO.:E05TSI                                  TUE 07/29/97 14:21 Page:4
      112      112    1   /* 11010 */ 159, 160, 170, 171, 172, 173, 174, 175,
      113      113    1   /* 11011 */ 176, 177, 178, 179, 180, 181, 182, 183,
      114      114    1   /* 11100 */ 184, 185, 186, 187, 188, 189, 190, 191,
      115      115    1   /* 11101 */ 202, 203, 204, 205, 206, 207, 218, 219,
      116      116    1   /* 11110 */ 220, 221, 222, 223, 234, 235, 236, 237,
      117      117    1   /* 11111 */ 238, 239, 250, 251, 252, 253, 254, 255,
      118      118    1   /* 00000 */   0,   1,   2,   3,  55,  45,  46,  47,
      119      119    1   /* 00001 */  22,   5,  37,  11,  12,  13,  14,  15,
      120      120    1   /* 00010 */  16,  17,  18,  19,  60,  61,  50,  38,
      121      121    1   /* 00011 */  24,  25,  63,  39,  28,  29,  30,  31,
      122      122    1   /* 00100 */  64,  79, 127, 123,  91, 108,  80, 125,
      123      123    1   /* 00101 */  77,  93,  92,  78, 107,  96,  75,  97,
      124      124    1   /* 00110 */ 240, 241, 242, 243, 244, 245, 246, 247,
      125      125    1   /* 00111 */ 248, 249, 122,  94,  76, 126, 110, 111,
      126      126    1   /* 01000 */ 124, 193, 194, 195, 196, 197, 198, 199,
      127      127    1   /* 01001 */ 200, 201, 209, 210, 211, 212, 213, 214,
      128      128    1   /* 01010 */ 215, 216, 217, 226, 227, 228, 229, 230,
      129      129    1   /* 01011 */ 231, 232, 233,  74, 224,  90,  95, 109,
      130      130    1   /* 01100 */ 121, 129, 130, 131, 132, 133, 134, 135,
      131      131    1   /* 01101 */ 136, 137, 145, 146, 147, 148, 149, 150,
      132      132    1   /* 01110 */ 151, 152, 153, 162, 163, 164, 165, 166,
      133      133    1   /* 01111 */ 167, 168, 169, 192, 106, 208, 161,   7,
      134      134    1   /* 10000 */  32,  33,  34,  35,  36,  21,   6,  23,
      135      135    1   /* 10001 */  40,  41,  42,  43,  44,   9,  10,  27,
      136      136    1   /* 10010 */  48,  49,  26,  51,  52,  53,  54,   8,
      137      137    1   /* 10011 */  56,  57,  58,  59,   4,  20,  62, 225,
      138      138    1   /* 10100 */  65,  66,  67,  68,  69,  70,  71,  72,
      139      139    1   /* 10101 */  73,  81,  82,  83,  84,  85,  86,  87,
      140      140    1   /* 10110 */  88,  89,  98,  99, 100, 101, 102, 103,
      141      141    1   /* 10111 */ 104, 105, 112, 113, 114, 115, 116, 117,
      142      142    1   /* 11000 */ 118, 119, 120, 128, 138, 139, 140, 141,
      143      143    1   /* 11001 */ 142, 143, 144, 154, 155, 156, 157, 158,
      144      144    1   /* 11010 */ 159, 160, 170, 171, 172, 173, 174, 175,
      145      145    1   /* 11011 */ 176, 177, 178, 179, 180, 181, 182, 183,
      146      146    1   /* 11100 */ 184, 185, 186, 187, 188, 189, 190, 191,
      147      147    1   /* 11101 */ 202, 203, 204, 205, 206, 207, 218, 219,
      148      148    1   /* 11110 */ 220, 221, 222, 223, 234, 235, 236, 237,
PL6.E3A0      #001=DDS$SDO File=DDS$SDO.:E05TSI                                  TUE 07/29/97 14:21 Page:5
      149      149    1   /* 11111 */ 238, 239, 250, 251, 252, 253, 254, 255);
      150      150        %INCLUDE DD$BASED;
      151     1453        %TEXT$C;
      152     1458        %INCLUDE B$OBJECT_C;                    /* OBJECT LANGUAGE STRUCTURES */
      153     4888        %B$EDEF;
      154     4958        %B$SDEF;
      155     5012        %INCLUDE XU_MACRO_C;                    /* X$PARSE MACROS */
      156     8118        %INCLUDE XU_SUBS_C;                     /* X$PARSE %SUBS */
      157     8210        %PARSE$OUT (NAME=POB,STCLASS=BASED,NSUBLKS=NSB);
      158     8255        %PARSE$SYM (NAME=POS,STCLASS=BASED);
      159     8293        %INCLUDE DD_ERR_C;                      /* ERROR %SUBS */
      160     8690        %INCLUDE DD_PSUBS_C;                    /* SYNTAX TREE NODE CODES */
      161     9165        %INCLUDE XUH_MACRO_C;
      162     9249        %INCLUDE DD_SD_M;
      163    10585        %S_D;
      164    11903    1   DCL DDS$POS_SP ENTRY(3) ALTRET;         /* EVALUATES SPECIAL SYMBOLS */
      165    11904    1   DCL DDS$UD_SRCH ENTRY(2) ALTRET;        /* EVALUATES USER DEFINED SYMBOLS */
      166    11905    1   DCL DDS$ED_SRCH ENTRY(2) ALTRET;        /* EVALUATES ENTDEFS */
      167    11906    1   DCL DDS$SD_SRCH ENTRY(2) ALTRET;        /* EVALUATES SYMDEFS */
      168    11907        %EJECT;
PL6.E3A0      #001=DDS$SDO File=DDS$SDO.:E05TSI                                  TUE 07/29/97 14:21 Page:6
      169    11908        /**/
      170    11909    1        N$ = NODE$ -> POB.SUBLK$( 0 );
      171    11910    1        NCD = N$ -> POB.CODE;
      172    11911    1        IF ( NCD = 14 ) OR ( NCD = 15 ) /* SYM_CODE | QTSTRING_CODE */
      173    11912    2        THEN DO;                           /* "SIMBLE" */
      174    11913    2             SYM$ = N$ -> POB.SUBLK$( 0 ); /* POINT TO "SIMBLE" TEXT */
      175    11914    2             IF NOT S_D.SIMBLEOK
      176    11915    3             THEN DO;                      /* SIMBLE NOT ALLOWED HERE */
      177    11916    3                  S_D.ERROR = 51; /* E@NOSYMBHERE */
      178    11917    3                  GOTO ARETSYM;
      179    11918    3                END;
      180    11919    2             ELSE ;
      181    11920    2             S_D.SDOS = '1'B;
      182    11921    2             CALL DDS$UD_SRCH( SYM$, V ) ALTRET( RETN );
      183    11922    2             IF NCD = 14             /* SYM_CODE */
      184    11923    3             THEN DO;
      185    11924    3                  CALL DDS$POS_SP( SYM$, V, ERROR ) ALTRET( RETN );
      186    11925    3                  IF ERROR
      187    11926    3                  THEN GOTO ARETSYM;
      188    11927    3                END;
      189    11928    2             ELSE ;              /* BYPASS SPECIAL SYMBOL CHECK IF QTSTRINGS */
      190    11929    2             IF S_D.SDOSDEF
      191    11930    3             THEN DO;                      /* SEARCH SYMDEFs FIRST */
      192    11931    3                  CALL DDS$SD_SRCH( SYM$, ENTRY$ ) ALTRET( SD_FOUND );
      193    11932    3                  CALL DDS$ED_SRCH( SYM$, ENTRY$ ) ALTRET( ED_FOUND );
      194    11933    3                END;
      195    11934    3             ELSE DO;                      /* SEARCH ENTDEFs FIRST */
      196    11935    3                  CALL DDS$ED_SRCH( SYM$, ENTRY$ ) ALTRET( ED_FOUND );
      197    11936    3                  CALL DDS$SD_SRCH( SYM$, ENTRY$ ) ALTRET( SD_FOUND );
      198    11937    3                END;
      199    11938                                                /* CAN'T RESOLVE SYMBOL */
      200    11939    2             S_D.ERROR = 3;   /* E@SYM_NOTFOUND */
      201    11940    2   ARETSYM:
      202    11941    2             S_D.ERROR_SYM$ = SYM$;
      203    11942    2             GOTO ALTRT;
      204    11943    2   ED_FOUND:
      205    11944    2             V = ENTRY$ -> B$EDEF.ISADDR;
PL6.E3A0      #001=DDS$SDO File=DDS$SDO.:E05TSI                                  TUE 07/29/97 14:21 Page:7
      206    11945    2             GOTO RETN;
      207    11946    2   SD_FOUND:
      208    11947    2             IF ENTRY$ -> B$SDEF.CONSTNT
      209    11948    2             THEN V = ENTRY$ -> B$SDEF.VALUE;
      210    11949    2             ELSE V = ENTRY$ -> B$SDEF.AD.ISADDR;
      211    11950    2             GOTO RETN;
      212    11951    2           END;                            /* "SIMBLE" */
      213    11952    1        ELSE IF NCD = 27             /* OCT_CODE */
      214    11953    2             THEN DO;                      /* "OCTIL" */
      215    11954    2                  S_D.SDOO = '1'B;
      216    11955    2                  GOTO OCTAL;
      217    11956    2                END;                       /* "OCTIL" */
      218    11957    1             ELSE IF NCD = 8        /* DEC_CODE */
      219    11958    2                  THEN DO;                 /* "DECIMAL" */
      220    11959    2                       S_D.SDOD = '1'B;
      221    11960    2                       N$ = N$ -> POB.SUBLK$( 0 );
      222    11961    2                       GOTO DECIMAL;
      223    11962    2                     END;                  /* "DECIMAL" */
      224    11963    1                  ELSE IF NCD = 200  /* CNR1_CODE */
      225    11964    2                       THEN DO;            /* "CNR1C" */
      226    11965    2                            NCD = 472 ; /* C@SPECC - DEFAULT IS CHARACTER STRING */
      227    11966    2                            IF ( N$ -> POB.NSB = 2 )
      228    11967    2                            THEN NCD = N$ -> POB.SUBLK$( 1 ) -> POB.CODE;
      229    11968    2                            SYM$ = ADDR (N$ -> POB.SUBLK$(0) -> POS.TEXT);
             11968                                     /* QUOTE STRING TEXT POINTER */
      230    11969    2                            TSIZ = N$ -> POB.SUBLK$(0) -> POS.COUNT;
      231    11970    2                            V = 0;
      232    11971    3                            DO CASE( NCD );
      233    11972    3                              CASE ( 470 ); /* C@FSPECB - BIT STRING */
      234    11973    3                                 S_D.SDOB = '1'B;
      235    11974    4                                 DO CASE ( S_D.ONE_TO_TWO.EXEC_DOMAIN );
      236    11975    4                                   CASE ( %HOST );
      237    11976    4                                      IF ( TSIZ > LENGTHB( V ) ) THEN GOTO CONSTOOBIG;
      238    11977    5                                      DO IX = 0 TO TSIZ-1;
      239    11978    5                                           CALL INDEX (TEMP, SCHARS(IX), '01')
      240    11979    5                                             ALTRET (BADDIG);
      241    11980    5                                           VBIT(IX) = TEMP;
PL6.E3A0      #001=DDS$SDO File=DDS$SDO.:E05TSI                                  TUE 07/29/97 14:21 Page:8
      242    11981    5                                         END; /* "DO IX" */
      243    11982    4                                   CASE ( %L6 );
      244    11983    4                                      IF  TSIZ > LENGTHB( L6BIT.X )
      245    11984    4                                      THEN GOTO CONSTOOBIG;
      246    11985    5                                      DO IX = 0 TO TSIZ-1;
      247    11986    5                                           CALL INDEX (TEMP, SCHARS(IX), '01')
      248    11987    5                                             ALTRET (BADDIG);
      249    11988    5                                           L6BIT.X(IX) = TEMP;
      250    11989    5                                         END;
      251    11990    4                                   CASE ( ELSE );
      252    11991    4                                      S_D.ERROR = 502; /* E@DELBUG */
      253    11992    4                                      GOTO ALTRT;
      254    11993    4                                   END;
      255    11994    3                              CASE ( 471 ); /* C@FSPECO - OCTAL BIT STRING */
      256    11995    3                                 S_D.SDOOB = '1'B;
      257    11996    4                                 DO CASE ( S_D.ONE_TO_TWO.EXEC_DOMAIN );
      258    11997    4                                   CASE ( %HOST );
      259    11998    4                                      IF ( TSIZ > LENGTHB( V ) / 3 ) THEN GOTO
             11998                                               CONSTOOBIG;
      260    11999    5                                      DO IX = 0 TO TSIZ-1;
      261    12000    5                                           CALL INDEX (TEMP, SCHARS(IX), '01234567')
      262    12001    5                                             ALTRET (BADDIG);
      263    12002    5                                           VOCT (IX) = TEMP;
      264    12003    5                                         END;
      265    12004    4                                   CASE ( %L6 );
      266    12005    4                                      IF ( TSIZ > LENGTHB( L6OCT.X ) / 3 )
      267    12006    4                                      THEN GOTO CONSTOOBIG;
      268    12007    5                                      DO IX = 0 TO TSIZ-1;
      269    12008    5                                           CALL INDEX (TEMP, SCHARS(IX), '01234567')
      270    12009    5                                             ALTRET (BADDIG);
      271    12010    5                                           L6OCT.X(IX) = TEMP;
      272    12011    5                                         END;
      273    12012    4                                   CASE ( ELSE );
      274    12013    4                                      S_D.ERROR = 502; /* E@DELBUG */
      275    12014    4                                      GOTO ALTRT;
      276    12015    4                                   END;
      277    12016    3                              CASE ( 472 ); /* C@FSPECC - CHARACTER STRING */
PL6.E3A0      #001=DDS$SDO File=DDS$SDO.:E05TSI                                  TUE 07/29/97 14:21 Page:9
      278    12017    3                                 S_D.SDOT = '1'B;
      279    12018    3                                 CALL INSERT (TCHARS,,, SSTR) ALTRET (CONSTOOBIG);
      280    12019    4                                 DO CASE ( S_D.ONE_TO_TWO.EXEC_DOMAIN );
      281    12020    4                                   CASE ( %HOST );
      282    12021    4                                      T = TCHARS;
      283    12022    4                                   CASE ( %L6 );
      284    12023    4                                      L6TXT.X (0) = BCHARS (0);
      285    12024    4                                      L6TXT.X (1) = BCHARS (1);
      286    12025    4                                      L6TXT.X (2) = BCHARS (2);
      287    12026    4                                      L6TXT.X (3) = BCHARS (3);
      288    12027    4                                   CASE ( ELSE );
      289    12028    4                                      S_D.ERROR = 502; /* E@DELBUG */
      290    12029    4                                      GOTO ALTRT;
      291    12030    4                                   END;
      292    12031    3                              CASE ( 474 ); /* C@FSPECX - HEX STRING */
      293    12032    4                                 DO CASE ( S_D.ONE_TO_TWO.EXEC_DOMAIN );
      294    12033    4                                   CASE ( %HOST );
      295    12034    4                                      IF (TSIZ > LENGTHB(V) / 4)
      296    12035    4                                      THEN GOTO CONSTOOBIG;
      297    12036    5                                      DO IX = 0 TO TSIZ-1;
      298    12037    5                                           CALL INDEX (TEMP, SCHARS(IX), XCHARS)
      299    12038    5                                             ALTRET (BADDIG);
      300    12039    5                                           VHEX(IX) = TEMP;
      301    12040    5                                         END;
      302    12041    4                                   CASE ( %L6 );
      303    12042    4                                      IF (TSIZ > LENGTHB(L6HEX.X) / 4 )
      304    12043    4                                      THEN GOTO CONSTOOBIG;
      305    12044    5                                      DO IX = 0 TO TSIZ-1;
      306    12045    5                                           CALL INDEX (TEMP, SCHARS(IX), XCHARS)
      307    12046    5                                             ALTRET (BADDIG);
      308    12047    5                                           L6HEX.X (IX) = TEMP;
      309    12048    5                                         END;
      310    12049    4                                   CASE ( ELSE );
      311    12050    4                                      S_D.ERROR = 502; /* E@DELBUG */
      312    12051    4                                      GOTO ALTRT;
      313    12052    4                                   END;
      314    12053    3                              CASE ( 475 ); /* C@FSPECEB - EBCDIC CHARACTER */
PL6.E3A0      #001=DDS$SDO File=DDS$SDO.:E05TSI                                  TUE 07/29/97 14:21 Page:10
      315    12054    3                                 CALL XLATE (TCHARS, ASC2EBC, SSTR) ALTRET (CONSTOOBIG)
             12054                                          ;
      316    12055    4                                 DO CASE ( S_D.ONE_TO_TWO.EXEC_DOMAIN );
      317    12056    4                                   CASE ( %HOST );
      318    12057    4                                      T = TCHARS;
      319    12058    4                                   CASE ( %L6 );
      320    12059    4                                      L6TXT.X (0) = BCHARS (0);
      321    12060    4                                      L6TXT.X (1) = BCHARS (1);
      322    12061    4                                      L6TXT.X (2) = BCHARS (2);
      323    12062    4                                      L6TXT.X (3) = BCHARS (3);
      324    12063    4                                   END;
      325    12064    3                              END;         /* "DO CASE( NCD )" */
      326    12065    2                          END;             /* "CNR1C" */
      327    12066    1                       ELSE IF NCD = 104 /* HEX_CODE */
      328    12067    2                            THEN DO;       /* "HEXIL" */
      329    12068    2                                 S_D.SDOH = '1'B;
      330    12069    2                                 GOTO HEX;
      331    12070    2                               END;
      332    12071    2                            ELSE DO;       /* UNKNOWN CODE */
      333    12072    2                                 S_D.ERROR = 501; /* E@DERR1 */
      334    12073    2                                 GOTO ALTRT;
      335    12074    2                               END;        /* UNKNOWN CODE */
      336    12075        /**/
      337    12076    1        RETURN;
      338    12077        %EJECT;
PL6.E3A0      #001=DDS$SDO File=DDS$SDO.:E05TSI                                  TUE 07/29/97 14:21 Page:11
      339    12078        /**/
      340    12079    1   DDS$DECIMAL: ENTRY( NODE$, V ) ALTRET;
      341    12080        /**/
      342    12081    1        IF NODE$ -> POB.CODE ~= 8   /* DEC_CODE */
      343    12082    1        THEN GOTO NOTDECERR;
      344    12083    1        N$ = NODE$ -> POB.SUBLK$( 0 );
      345    12084    1   DECIMAL: ;
      346    12085    1        TSIZ = N$ -> TEXT$C.SIZE;
      347    12086    2        DO CASE ( S_D.ONE_TO_TWO.EXEC_DOMAIN );
      348    12087    2          CASE ( %HOST );
      349    12088    2             IF TSIZ > LENGTHC( '68719476735' ) THEN GOTO TOOLARGE;
      350    12089    2             IF TSIZ = LENGTHC( '68719476735' ) AND
      351    12090    2               N$ -> TEXT$C.TXT > '68719476735'
      352    12091    2             THEN GOTO TOOLARGE;
      353    12092    2          CASE ( %L6 );
      354    12093    2             IF TSIZ > LENGTHC( '4294967295' ) THEN GOTO TOOLARGE;
      355    12094    2             IF TSIZ = LENGTHC( '4294967295' ) AND
      356    12095    2               N$ -> TEXT$C.TXT > '4294967295'
      357    12096    2             THEN GOTO TOOLARGE;
      358    12097    2          CASE ( ELSE );
      359    12098    2             S_D.ERROR = 502;         /* E@DELBUG */
      360    12099    2             GOTO ALTRT;
      361    12100    2          END;
      362    12101    1        CALL CHARBIN( V, N$ -> TEXT$C.TXT );
      363    12102    1        RETURN;
      364    12103        %EJECT;
PL6.E3A0      #001=DDS$SDO File=DDS$SDO.:E05TSI                                  TUE 07/29/97 14:21 Page:12
      365    12104        /**/
      366    12105    1   DDS$OCTAL: ENTRY( NODE$, V ) ALTRET;
      367    12106        /**/
      368    12107    1        IF NODE$ -> POB.CODE ~= 27   /* OCT_CODE */
      369    12108    1        THEN GOTO NOTOCTERR;
      370    12109    1        N$ = NODE$;
      371    12110    1   OCTAL: ;
      372    12111    1        IF N$ -> POB.NDTYPE = %KONCAT#
      373    12112    1        THEN N$ = N$ -> POB.SUBLK$( 0 );
      374    12113    1        N$ = N$ -> POB.SUBLK$( 0 );
      375    12114    1        TSIZ = N$ -> TEXT$C.SIZE;
      376    12115    2        DO CASE ( S_D.ONE_TO_TWO.EXEC_DOMAIN );
      377    12116    2          CASE ( %HOST );
      378    12117    2             IF TSIZ > 12 THEN GOTO TOOLARGE;
      379    12118    2          CASE ( %L6 );
      380    12119    2             IF TSIZ > 10 THEN GOTO TOOLARGE;
      381    12120    2          CASE ( ELSE );
      382    12121    2             S_D.ERROR = 502;
      383    12122    2             GOTO ALTRT;
      384    12123    2          END;
      385    12124        /* PICK UP EACH DIGIT LEFT TO RIGHT & ACCUMULATE INTO SUM */
      386    12125    1        ACCUM = 0;
      387    12126    2        DO IX = 1 TO TSIZ;
      388    12127    2             N$ = PINCRC( N$, LENGTHC( CHAR$1 ) );
      389    12128    2             ACCUM = ( ACCUM * 8 ) + ASCBIN( N$ -> CHAR$1 ) - ASCBIN( '0' );
      390    12129    2           END;                            /* "DO IX" */
      391    12130    1        V = ACCUM;
      392    12131    1        RETURN;
      393    12132        %EJECT;
PL6.E3A0      #001=DDS$SDO File=DDS$SDO.:E05TSI                                  TUE 07/29/97 14:21 Page:13
      394    12133        /**/
      395    12134    1   DDS$HEX: ENTRY(NODE$, V) ALTRET;
      396    12135        /**/
      397    12136    1        IF NODE$ -> POB.CODE ~= 104   /* HEX_CODE */
      398    12137    1        THEN GOTO NOTHEXERR;
      399    12138    1        N$ = NODE$;
      400    12139    1   HEX: ;
      401    12140    1        IF N$ -> POB.NDTYPE = %KONCAT#
      402    12141    1        THEN N$ = N$ -> POB.SUBLK$(0);
      403    12142    1        N$ = N$ -> POB.SUBLK$(0);
      404    12143    1        TSIZ = N$ -> TEXT$C.SIZE;
      405    12144    1        IF TSIZ > 8
      406    12145    1        THEN GOTO TOOLARGE;
      407    12146                            /* Pick up each digit left to right and accumulate in sum */
      408    12147    1        ACCUM = 0;
      409    12148    2        DO IX = 1 TO TSIZ;
      410    12149    2             N$ = PINCRC(N$, LENGTHC(CHAR$1));
      411    12150    2             CALL INDEX(TEMP, N$ -> CHAR$1, XCHARS) ALTRET(BADDIG);
      412    12151    2             ACCUM = ACCUM*16 + TEMP;
      413    12152    2           END;
      414    12153    1        V = ACCUM;
      415    12154    1        RETURN;
      416    12155        /**/
      417    12156    1   RETN: RETURN;
      418    12157        /**/
      419    12158    1   CONSTOOBIG: S_D.ERROR = 64; GOTO ALTRT; /* E@CONSTOOBIG */
      420    12159    1   NOTDECERR: S_D.ERROR = 511; GOTO ALTRT; /* E@NOTDECIMAL */
      421    12160    1   NOTOCTERR: S_D.ERROR = 603; GOTO ALTRT; /* E@NOTOCTIL */
      422    12161    1   NOTHEXERR: S_D.ERROR = 604; GOTO ALTRT; /* E@NOTHEX */
      423    12162    1   TOOLARGE: S_D.ERROR = 46; GOTO ALTRT; /* E@TOOLARGE */
      424    12163    1   BADDIG: S_D.ERROR = 65;           /* E@BADDIG */
      425    12164    1   ALTRT: ALTRETURN;
      426    12165        /**/
      427    12166    1   END DDS$SDO;

PL6.E3A0      #001=DDS$SDO File=DDS$SDO.:E05TSI                                  TUE 07/29/97 14:21 Page:14
--  Include file information  --

   DD_SD_M.:E05TOU  is referenced.
   XUH_MACRO_C.:E05TOU  is referenced.
   DD_PSUBS_C.:E05TOU  is referenced.
   DD_ERR_C.:E05TOU  is referenced.
   XU_SUBS_C.:E05TOU  is referenced.
   XU_MACRO_C.:E05TOU  is referenced.
   B$OBJECT_C.:E05TOU  is referenced.
   DD$BASED.:E05TOU  is referenced.
   B$JIT_C.:E05TOU  was found in the system file and is never referenced.
   CP_6_C.:E05TOU  was found in the system file and is never referenced.
      No diagnostics issued in procedure DDS$SDO.

   Procedure DDS$SDO requires 625 words for executable code.
   Procedure DDS$SDO requires 20 words of local(AUTO) storage.

    No errors detected in file DDS$SDO.:E05TSI    .

PL6.E3A0      #001=DDS$SDO File=DDS$SDO.:E05TSI                                  TUE 07/29/97 14:21 Page:15

 Object Unit name= DDS$SDO                                    File name= DDS$SDO.:E05TOU
 UTS= JUL 29 '97 14:21:00.72 TUE                              Compiler= PL-6/E31         Sev=      00
 SharedLib= :SHARED_SYSTEM                                    Alt SharedLib=


    ****  Control sections  ****

 Sect   Type Bound  Init  Size OctSiz  Section name(segment info)
    0  RoData even  UTS    141    215  DDS$SDO
    1   Proc  even  none   625   1161  DDS$SDO
    2  RoData even  none     2      2  DDS$SDO

    ****  Entry defs  ****

                              Check   Calling
                             calling  sequence
  Sect OctLoc Primary Altret sequence   type   Parms  Name
     1      0   yes    yes     yes      Std        2  DDS$SDO
     1    652          yes     yes      Std        2  DDS$DECIMAL
     1    740          yes     yes      Std        2  DDS$OCTAL
     1   1044          yes     yes      Std        2  DDS$HEX

  ****  Entry refs  ****

         Check        Calling
        calling       sequence
Altret sequence SRef   type   Args  Name
 yes     yes           Std       2 DDS$UD_SRCH
 yes     yes           Std       3 DDS$POS_SP
 yes     yes           Std       2 DDS$SD_SRCH
 yes     yes           Std       2 DDS$ED_SRCH
                       nStd      0 X66_AUTO_2
                       Std       0 B_CONSPOOL_D
                       nStd      0 X66_ARET
                       nStd      0 X66_AALT
PL6.E3A0      #001=DDS$SDO File=DDS$SDO.:E05TSI                                  TUE 07/29/97 14:21 Page:16

  ****  Data refs  ****

  Flags:  r = read only, s = secondary
Flgs Name                             Flgs Name                             Flgs Name
r    S_D$                                  B_VECTNIL
PL6.E3A0      #001=DDS$SDO File=DDS$SDO.:E05TSI                                  TUE 07/29/97 14:21 Page:17


        1        1        /*M* DDS$SDO EVALUATE "SIMBLE", "DECIMAL", "OCTIL", OR "CNR1C" NODES */
        2        2        /*T***********************************************************/
        3        3        /*T*                                                         */
        4        4        /*T* Copyright (c) Bull HN Information Systems Inc., 1997    */
        5        5        /*T*                                                         */
        6        6        /*T***********************************************************/
        7        7        /*X* DMR,PLM=5,IND=5,CSU=3,EXM=0,ECU=3,MOC,DCI=5,CRT=5 */
        8        8        %SET LISTSUB='1'B;
        9        9        /*F* NAME: DDS$SDO
       10       10             PURPOSE: TO EVALUATE "SIMBLE", "DECIMALS", "OCTIL", OR "CNR1C" NODES.
       11       11             DESCRIPTION: DETERMINES WHICH NODE IT IS, THEN CALLS THE APPROPRIATE
       12       12             ROUTINE TO EVALUATE IT. THE NODES "SIMBLE" AND "CNR1C" ARE
       13       13             EVALUATED INLINE. */
       14       14        /*D* NAME: DDS$SDO
       15       15             CALL: CALL DDS$SDO( NODE$, V ) ALTRET( ERROR );
       16       16             INTERFACE: DDS$UD_SRCH
       17       17                        DDS$POS_SP
       18       18                        DDS$ED_SRCH
       19       19                        DDS$SD_SRCH
       20       20             ENVIRONMENT:
       21       21             INPUT: N$ - POINTER TO NODE.
       22       22                    S_D.SIMBLEOK - WHETHER SIMBLES ARE ALLOWED
       23       23                    S_D.SDOSDEF - WHETHER TO SEARCH SYMDEFs BEFORE ENTDEFs
       24       24             OUTPUT: V - VALUE OUTPUT.
       25       25                     S_D.SDOS - WHETHER SIMBLE WAS ENCOUNTERED
       26       26                     S_D.SDOD - WHETHER DECIMAL WAS ENCOUNTERED
       27       27                     S_D.SDOO - WHETHER OCTAL WAS ENCOUNTERED
       28       28                     S_D.SDOB - WHETHER BIT-STRING WAS ENCOUNTERED
       29       29                     S_D.SDOOB - WHETHER OCTAL BIT-STRING WAS ENCOUNTERED
       30       30                     S_D.SDOT - WHETHER TEXT-STRING WAS ENCOUNTERED
       31       31             SCRATCH: LOCAL AUTO ONLY.
       32       32             DESCRIPTION: DETERMINES WHICH NODE IT IS, THEN CALLS THE APPROPRIATE
       33       33             ROUTINE TO EVALUATE IT. RETURNS UNLESS AN ERROR CONDITION ENCOUNTERED,
       34       34             THEN ALTRETURNS. */
       35       35        /**/
       36       36        DDS$SDO: PROC( NODE$, V ) ALTRET;
PL6.E3A0      #001=DDS$SDO File=DDS$SDO.:E05TSI                                  TUE 07/29/97 14:21 Page:18

     36  1 000000   000000 700200 xent  DDS$SDO      TSX0  ! X66_AUTO_2
         1 000001   000024 000002                    ZERO    20,2

       37       37        /**/
       38       38    1   DCL NODE$ PTR;                          /* POINTER TO NODE INPUT */
       39       39    1   DCL V UBIN;                             /* VALUE OUTPUT */
       40       40    1   DCL T REDEF V CHAR(4);
       41       41    1   DCL VBIT (0:35) REDEF V UBIN(1) UNAL;
       42       42    1   DCL VOCT (0:11) REDEF V UBIN(3) UNAL;
       43       43    1   DCL VHEX (0:8)  REDEF V UBIN(4) UNAL;
       44       44    1   DCL 1 L6BIT REDEF V,
       45       45    1         2 * BIT(4) UNAL,
       46       46    1         2 X (0:31) UBIN(1) UNAL;
       47       47    1   DCL 1 L6OCT REDEF V,
       48       48    1         2 * BIT(4) UNAL,
       49       49    1         2 X (0:9) UBIN(3) UNAL,
       50       50    1         2 * BIT(2) UNAL;
       51       51    1   DCL 1 L6HEX REDEF V,
       52       52    1         2 * BIT(4) UNAL,
       53       53    1         2 X (0:7) UBIN(4) UNAL;
       54       54    1   DCL 1 L6TXT REDEF V,
       55       55    1         2 * BIT(4) UNAL,
       56       56    1         2 X (0:3) UBIN(8) UNAL;
       57       57    1   DCL N$ PTR;                             /* TEMP FOR CURRENT NODE */
       58       58    1   DCL NCD SBIN;                           /* CURRENT NODE CODE */
       59       59    1   DCL SYM$ PTR;                           /* SYMBOL TEXTC POINTER */
       60       60    1   DCL ENTRY$ PTR;                         /* EDEF/SYMDEF POINTER */
       61       61    1   DCL ERROR BIT(1) ALIGNED;
       62       62    1   DCL IX UBIN;
       63       63    1   DCL TSIZ UBIN;
       64       64    1   DCL ACCUM UBIN;
       65       65    1   DCL TEMP UBIN;
       66       66    1   DCL TCHARS CHAR(4);
       67       67    1   DCL BCHARS(0:3) REDEF TCHARS UBIN BYTE CALIGNED;
       68       68    1   DCL C CHAR(1);
       69       69    1   DCL CHAR$1 CHAR(1) BASED UNAL;
PL6.E3A0      #001=DDS$SDO File=DDS$SDO.:E05TSI                                  TUE 07/29/97 14:21 Page:19
       70       70    1   DCL SCHARS (0:0) CHAR(1) CALIGNED BASED (SYM$);
       71       71    1   DCL SSTR CHAR(TSIZ) CALIGNED BASED (SYM$);
       72       72    1   DCL XCHARS CHAR(16) CONSTANT INIT('0123456789ABCDEF');
       73       73
       74       74        /* Use ASCII character value as an index to get an EBCDIC character
       75       75           value.
       76       76           For the ASCII character value -
       77       77               only use 8 bits to distinguish an ASCII character, the 9th bit
       78       78               can be either '0'B or '1'B.
       79       79           For the EBCDIC character value -
       80       80               the 8th bit is always '0'B. */
       81       81
       82       82    1   DCL 1 ASC2EBC CONSTANT DALIGNED,
       83       83    1         2 C(0:511) UBIN BYTE UNAL INIT(
       84       84        /*Most sig-       Least significant digits         */
       85       85        /*nificant  000  001  010  011  100  101  110  111 */
       86       86    1   /* 00000 */   0,   1,   2,   3,  55,  45,  46,  47,
       87       87    1   /* 00001 */  22,   5,  37,  11,  12,  13,  14,  15,
       88       88    1   /* 00010 */  16,  17,  18,  19,  60,  61,  50,  38,
       89       89    1   /* 00011 */  24,  25,  63,  39,  28,  29,  30,  31,
       90       90    1   /* 00100 */  64,  90, 127, 123,  91, 108,  80, 125,
       91       91    1   /* 00101 */  77,  93,  92,  78, 107,  96,  75,  97,
       92       92    1   /* 00110 */ 240, 241, 242, 243, 244, 245, 246, 247,
       93       93    1   /* 00111 */ 248, 249, 122,  94,  76, 126, 110, 111,
       94       94    1   /* 01000 */ 124, 193, 194, 195, 196, 197, 198, 199,
       95       95    1   /* 01001 */ 200, 201, 209, 210, 211, 212, 213, 214,
       96       96    1   /* 01010 */ 215, 216, 217, 226, 227, 228, 229, 230,
       97       97    1   /* 01011 */ 231, 232, 233,  74, 224,  79,  95, 109,
       98       98    1   /* 01100 */ 121, 129, 130, 131, 132, 133, 134, 135,
       99       99    1   /* 01101 */ 136, 137, 145, 146, 147, 148, 149, 150,
      100      100    1   /* 01110 */ 151, 152, 153, 162, 163, 164, 165, 166,
      101      101    1   /* 01111 */ 167, 168, 169, 192, 106, 208, 161,   7,
      102      102    1   /* 10000 */  32,  33,  34,  35,  36,  21,   6,  23,
      103      103    1   /* 10001 */  40,  41,  42,  43,  44,   9,  10,  27,
      104      104    1   /* 10010 */  48,  49,  26,  51,  52,  53,  54,   8,
      105      105    1   /* 10011 */  56,  57,  58,  59,   4,  20,  62, 225,
      106      106    1   /* 10100 */  65,  66,  67,  68,  69,  70,  71,  72,
PL6.E3A0      #001=DDS$SDO File=DDS$SDO.:E05TSI                                  TUE 07/29/97 14:21 Page:20
      107      107    1   /* 10101 */  73,  81,  82,  83,  84,  85,  86,  87,
      108      108    1   /* 10110 */  88,  89,  98,  99, 100, 101, 102, 103,
      109      109    1   /* 10111 */ 104, 105, 112, 113, 114, 115, 116, 117,
      110      110    1   /* 11000 */ 118, 119, 120, 128, 138, 139, 140, 141,
      111      111    1   /* 11001 */ 142, 143, 144, 154, 155, 156, 157, 158,
      112      112    1   /* 11010 */ 159, 160, 170, 171, 172, 173, 174, 175,
      113      113    1   /* 11011 */ 176, 177, 178, 179, 180, 181, 182, 183,
      114      114    1   /* 11100 */ 184, 185, 186, 187, 188, 189, 190, 191,
      115      115    1   /* 11101 */ 202, 203, 204, 205, 206, 207, 218, 219,
      116      116    1   /* 11110 */ 220, 221, 222, 223, 234, 235, 236, 237,
      117      117    1   /* 11111 */ 238, 239, 250, 251, 252, 253, 254, 255,
      118      118    1   /* 00000 */   0,   1,   2,   3,  55,  45,  46,  47,
      119      119    1   /* 00001 */  22,   5,  37,  11,  12,  13,  14,  15,
      120      120    1   /* 00010 */  16,  17,  18,  19,  60,  61,  50,  38,
      121      121    1   /* 00011 */  24,  25,  63,  39,  28,  29,  30,  31,
      122      122    1   /* 00100 */  64,  79, 127, 123,  91, 108,  80, 125,
      123      123    1   /* 00101 */  77,  93,  92,  78, 107,  96,  75,  97,
      124      124    1   /* 00110 */ 240, 241, 242, 243, 244, 245, 246, 247,
      125      125    1   /* 00111 */ 248, 249, 122,  94,  76, 126, 110, 111,
      126      126    1   /* 01000 */ 124, 193, 194, 195, 196, 197, 198, 199,
      127      127    1   /* 01001 */ 200, 201, 209, 210, 211, 212, 213, 214,
      128      128    1   /* 01010 */ 215, 216, 217, 226, 227, 228, 229, 230,
      129      129    1   /* 01011 */ 231, 232, 233,  74, 224,  90,  95, 109,
      130      130    1   /* 01100 */ 121, 129, 130, 131, 132, 133, 134, 135,
      131      131    1   /* 01101 */ 136, 137, 145, 146, 147, 148, 149, 150,
      132      132    1   /* 01110 */ 151, 152, 153, 162, 163, 164, 165, 166,
      133      133    1   /* 01111 */ 167, 168, 169, 192, 106, 208, 161,   7,
      134      134    1   /* 10000 */  32,  33,  34,  35,  36,  21,   6,  23,
      135      135    1   /* 10001 */  40,  41,  42,  43,  44,   9,  10,  27,
      136      136    1   /* 10010 */  48,  49,  26,  51,  52,  53,  54,   8,
      137      137    1   /* 10011 */  56,  57,  58,  59,   4,  20,  62, 225,
      138      138    1   /* 10100 */  65,  66,  67,  68,  69,  70,  71,  72,
      139      139    1   /* 10101 */  73,  81,  82,  83,  84,  85,  86,  87,
      140      140    1   /* 10110 */  88,  89,  98,  99, 100, 101, 102, 103,
      141      141    1   /* 10111 */ 104, 105, 112, 113, 114, 115, 116, 117,
      142      142    1   /* 11000 */ 118, 119, 120, 128, 138, 139, 140, 141,
      143      143    1   /* 11001 */ 142, 143, 144, 154, 155, 156, 157, 158,
PL6.E3A0      #001=DDS$SDO File=DDS$SDO.:E05TSI                                  TUE 07/29/97 14:21 Page:21
      144      144    1   /* 11010 */ 159, 160, 170, 171, 172, 173, 174, 175,
      145      145    1   /* 11011 */ 176, 177, 178, 179, 180, 181, 182, 183,
      146      146    1   /* 11100 */ 184, 185, 186, 187, 188, 189, 190, 191,
      147      147    1   /* 11101 */ 202, 203, 204, 205, 206, 207, 218, 219,
      148      148    1   /* 11110 */ 220, 221, 222, 223, 234, 235, 236, 237,
      149      149    1   /* 11111 */ 238, 239, 250, 251, 252, 253, 254, 255);
      150      150        %INCLUDE DD$BASED;
      151     1453        %TEXT$C;
      152     1458        %INCLUDE B$OBJECT_C;                    /* OBJECT LANGUAGE STRUCTURES */
      153     4888        %B$EDEF;
      154     4958        %B$SDEF;
      155     5012        %INCLUDE XU_MACRO_C;                    /* X$PARSE MACROS */
      156     8118        %INCLUDE XU_SUBS_C;                     /* X$PARSE %SUBS */
      157     8210        %PARSE$OUT (NAME=POB,STCLASS=BASED,NSUBLKS=NSB);
      158     8255        %PARSE$SYM (NAME=POS,STCLASS=BASED);
      159     8293        %INCLUDE DD_ERR_C;                      /* ERROR %SUBS */
      160     8690        %INCLUDE DD_PSUBS_C;                    /* SYNTAX TREE NODE CODES */
      161     9165        %INCLUDE XUH_MACRO_C;
      162     9249        %INCLUDE DD_SD_M;
      163    10585        %S_D;
      164    11903    1   DCL DDS$POS_SP ENTRY(3) ALTRET;         /* EVALUATES SPECIAL SYMBOLS */
      165    11904    1   DCL DDS$UD_SRCH ENTRY(2) ALTRET;        /* EVALUATES USER DEFINED SYMBOLS */
      166    11905    1   DCL DDS$ED_SRCH ENTRY(2) ALTRET;        /* EVALUATES ENTDEFS */
      167    11906    1   DCL DDS$SD_SRCH ENTRY(2) ALTRET;        /* EVALUATES SYMDEFS */
      168    11907        %EJECT;
PL6.E3A0      #001=DDS$SDO File=DDS$SDO.:E05TSI                                  TUE 07/29/97 14:21 Page:22
      169    11908        /**/
      170    11909    1        N$ = NODE$ -> POB.SUBLK$( 0 );

  11909  1 000002   200003 470500                    LDP0    @NODE$,,AUTO
         1 000003   000000 471500                    LDP1    0,,PR0
         1 000004   100003 236100                    LDQ     3,,PR1
         1 000005   200005 756100                    STQ     N$,,AUTO

      171    11910    1        NCD = N$ -> POB.CODE;

  11910  1 000006   200005 473500                    LDP3    N$,,AUTO
         1 000007   300000 236100                    LDQ     0,,PR3
         1 000010   777777 376007                    ANQ     -1,DL
         1 000011   200006 756100                    STQ     NCD,,AUTO

      172    11911    1        IF ( NCD = 14 ) OR ( NCD = 15 ) /* SYM_CODE | QTSTRING_CODE */

  11911  1 000012   000016 116007                    CMPQ    14,DL
         1 000013   000016 600000 1                  TZE     s:11913
         1 000014   000017 116007                    CMPQ    15,DL
         1 000015   000155 601000 1                  TNZ     s:11952

      173    11912    2        THEN DO;                           /* "SIMBLE" */

      174    11913    2             SYM$ = N$ -> POB.SUBLK$( 0 ); /* POINT TO "SIMBLE" TEXT */

  11913  1 000016   300003 236100                    LDQ     3,,PR3
         1 000017   200007 756100                    STQ     SYM$,,AUTO

      175    11914    2             IF NOT S_D.SIMBLEOK

  11914  1 000020   000000 471400 xsym               LDP1    S_D$
         1 000021   100054 234100                    SZN     44,,PR1
         1 000022   000026 604000 1                  TMI     s:11920

      176    11915    3             THEN DO;                      /* SIMBLE NOT ALLOWED HERE */

PL6.E3A0      #001=DDS$SDO File=DDS$SDO.:E05TSI                                  TUE 07/29/97 14:21 Page:23
      177    11916    3                  S_D.ERROR = 51; /* E@NOSYMBHERE */

  11916  1 000023   000063 235007                    LDA     51,DL
         1 000024   100013 755100                    STA     11,,PR1

      178    11917    3                  GOTO ARETSYM;

  11917  1 000025   000126 710000 1                  TRA     ARETSYM

      179    11918    3                END;
      180    11919    2             ELSE ;
      181    11920    2             S_D.SDOS = '1'B;

  11920  1 000026   400000 236003                    LDQ     -131072,DU
         1 000027   100056 756100                    STQ     46,,PR1

      182    11921    2             CALL DDS$UD_SRCH( SYM$, V ) ALTRET( RETN );

  11921  1 000030   200004 236100                    LDQ     @V,,AUTO
         1 000031   200021 756100                    STQ     TCHARS+3,,AUTO
         1 000032   200007 634500                    EPPR4   SYM$,,AUTO
         1 000033   200020 454500                    STP4    TCHARS+2,,AUTO
         1 000034   200020 630500                    EPPR0   TCHARS+2,,AUTO
         1 000035   000020 631400 xsym               EPPR1   B_VECTNIL+16
         1 000036   000000 701000 xent               TSX1    DDS$UD_SRCH
         1 000037   001130 702000 1                  TSX2    RETN

      183    11922    2             IF NCD = 14             /* SYM_CODE */

  11922  1 000040   200006 235100                    LDA     NCD,,AUTO
         1 000041   000016 115007                    CMPA    14,DL
         1 000042   000057 601000 1                  TNZ     s:11929

      184    11923    3             THEN DO;

      185    11924    3                  CALL DDS$POS_SP( SYM$, V, ERROR ) ALTRET( RETN );

PL6.E3A0      #001=DDS$SDO File=DDS$SDO.:E05TSI                                  TUE 07/29/97 14:21 Page:24
  11924  1 000043   200011 630500                    EPPR0   ERROR,,AUTO
         1 000044   200022 450500                    STP0    TCHARS+4,,AUTO
         1 000045   200004 236100                    LDQ     @V,,AUTO
         1 000046   200021 756100                    STQ     TCHARS+3,,AUTO
         1 000047   200007 631500                    EPPR1   SYM$,,AUTO
         1 000050   200020 451500                    STP1    TCHARS+2,,AUTO
         1 000051   200020 630500                    EPPR0   TCHARS+2,,AUTO
         1 000052   000021 631400 xsym               EPPR1   B_VECTNIL+17
         1 000053   000000 701000 xent               TSX1    DDS$POS_SP
         1 000054   001130 702000 1                  TSX2    RETN

      186    11925    3                  IF ERROR

  11925  1 000055   200011 234100                    SZN     ERROR,,AUTO
         1 000056   000126 604000 1                  TMI     ARETSYM

      187    11926    3                  THEN GOTO ARETSYM;
      188    11927    3                END;

      189    11928    2             ELSE ;              /* BYPASS SPECIAL SYMBOL CHECK IF QTSTRINGS */
      190    11929    2             IF S_D.SDOSDEF

  11929  1 000057   000000 470400 xsym               LDP0    S_D$
         1 000060   000061 234100                    SZN     49,,PR0
         1 000061   000103 605000 1                  TPL     s:11935

      191    11930    3             THEN DO;                      /* SEARCH SYMDEFs FIRST */

      192    11931    3                  CALL DDS$SD_SRCH( SYM$, ENTRY$ ) ALTRET( SD_FOUND );

  11931  1 000062   200010 631500                    EPPR1   ENTRY$,,AUTO
         1 000063   200021 451500                    STP1    TCHARS+3,,AUTO
         1 000064   200007 633500                    EPPR3   SYM$,,AUTO
         1 000065   200020 453500                    STP3    TCHARS+2,,AUTO
         1 000066   200020 630500                    EPPR0   TCHARS+2,,AUTO
         1 000067   000020 631400 xsym               EPPR1   B_VECTNIL+16
         1 000070   000000 701000 xent               TSX1    DDS$SD_SRCH
PL6.E3A0      #001=DDS$SDO File=DDS$SDO.:E05TSI                                  TUE 07/29/97 14:21 Page:25
         1 000071   000140 702000 1                  TSX2    SD_FOUND

      193    11932    3                  CALL DDS$ED_SRCH( SYM$, ENTRY$ ) ALTRET( ED_FOUND );

  11932  1 000072   200010 630500                    EPPR0   ENTRY$,,AUTO
         1 000073   200021 450500                    STP0    TCHARS+3,,AUTO
         1 000074   200007 631500                    EPPR1   SYM$,,AUTO
         1 000075   200020 451500                    STP1    TCHARS+2,,AUTO
         1 000076   200020 630500                    EPPR0   TCHARS+2,,AUTO
         1 000077   000020 631400 xsym               EPPR1   B_VECTNIL+16
         1 000100   000000 701000 xent               TSX1    DDS$ED_SRCH
         1 000101   000132 702000 1                  TSX2    ED_FOUND

      194    11933    3                END;

  11933  1 000102   000123 710000 1                  TRA     s:11939

      195    11934    3             ELSE DO;                      /* SEARCH ENTDEFs FIRST */

      196    11935    3                  CALL DDS$ED_SRCH( SYM$, ENTRY$ ) ALTRET( ED_FOUND );

  11935  1 000103   200010 631500                    EPPR1   ENTRY$,,AUTO
         1 000104   200021 451500                    STP1    TCHARS+3,,AUTO
         1 000105   200007 633500                    EPPR3   SYM$,,AUTO
         1 000106   200020 453500                    STP3    TCHARS+2,,AUTO
         1 000107   200020 630500                    EPPR0   TCHARS+2,,AUTO
         1 000110   000020 631400 xsym               EPPR1   B_VECTNIL+16
         1 000111   000000 701000 xent               TSX1    DDS$ED_SRCH
         1 000112   000132 702000 1                  TSX2    ED_FOUND

      197    11936    3                  CALL DDS$SD_SRCH( SYM$, ENTRY$ ) ALTRET( SD_FOUND );

  11936  1 000113   200010 630500                    EPPR0   ENTRY$,,AUTO
         1 000114   200021 450500                    STP0    TCHARS+3,,AUTO
         1 000115   200007 631500                    EPPR1   SYM$,,AUTO
         1 000116   200020 451500                    STP1    TCHARS+2,,AUTO
         1 000117   200020 630500                    EPPR0   TCHARS+2,,AUTO
PL6.E3A0      #001=DDS$SDO File=DDS$SDO.:E05TSI                                  TUE 07/29/97 14:21 Page:26
         1 000120   000020 631400 xsym               EPPR1   B_VECTNIL+16
         1 000121   000000 701000 xent               TSX1    DDS$SD_SRCH
         1 000122   000140 702000 1                  TSX2    SD_FOUND

      198    11937    3                END;

      199    11938                                                /* CAN'T RESOLVE SYMBOL */
      200    11939    2             S_D.ERROR = 3;   /* E@SYM_NOTFOUND */

  11939  1 000123   000003 235007                    LDA     3,DL
         1 000124   000000 470400 xsym               LDP0    S_D$
         1 000125   000013 755100                    STA     11,,PR0

      201    11940    2   ARETSYM:
      202    11941    2             S_D.ERROR_SYM$ = SYM$;

  11941  1 000126   200007 236100       ARETSYM      LDQ     SYM$,,AUTO
         1 000127   000000 470400 xsym               LDP0    S_D$
         1 000130   000032 756100                    STQ     26,,PR0

      203    11942    2             GOTO ALTRT;

  11942  1 000131   001160 710000 1                  TRA     ALTRT

      204    11943    2   ED_FOUND:
      205    11944    2             V = ENTRY$ -> B$EDEF.ISADDR;

  11944  1 000132   200010 470500       ED_FOUND     LDP0    ENTRY$,,AUTO
         1 000133   200004 471500                    LDP1    @V,,AUTO
         1 000134   000000 236100                    LDQ     0,,PR0
         1 000135   000032 376000 xsym               ANQ     B_VECTNIL+26
         1 000136   100000 756100                    STQ     0,,PR1

      206    11945    2             GOTO RETN;

  11945  1 000137   001130 710000 1                  TRA     RETN

PL6.E3A0      #001=DDS$SDO File=DDS$SDO.:E05TSI                                  TUE 07/29/97 14:21 Page:27
      207    11946    2   SD_FOUND:
      208    11947    2             IF ENTRY$ -> B$SDEF.CONSTNT

  11947  1 000140   200010 470500       SD_FOUND     LDP0    ENTRY$,,AUTO
         1 000141   000001 236100                    LDQ     1,,PR0
         1 000142   400000 316007                    CANQ    -131072,DL
         1 000143   000150 600000 1                  TZE     s:11949

      209    11948    2             THEN V = ENTRY$ -> B$SDEF.VALUE;

  11948  1 000144   000000 235100                    LDA     0,,PR0
         1 000145   200004 471500                    LDP1    @V,,AUTO
         1 000146   100000 755100                    STA     0,,PR1
         1 000147   000154 710000 1                  TRA     s:11950

      210    11949    2             ELSE V = ENTRY$ -> B$SDEF.AD.ISADDR;

  11949  1 000150   200004 471500                    LDP1    @V,,AUTO
         1 000151   000000 236100                    LDQ     0,,PR0
         1 000152   000032 376000 xsym               ANQ     B_VECTNIL+26
         1 000153   100000 756100                    STQ     0,,PR1

      211    11950    2             GOTO RETN;

  11950  1 000154   001130 710000 1                  TRA     RETN

      212    11951    2           END;                            /* "SIMBLE" */
      213    11952    1        ELSE IF NCD = 27             /* OCT_CODE */

  11952  1 000155   000033 116007                    CMPQ    27,DL
         1 000156   000163 601000 1                  TNZ     s:11957

      214    11953    2             THEN DO;                      /* "OCTIL" */

      215    11954    2                  S_D.SDOO = '1'B;

  11954  1 000157   400000 236003                    LDQ     -131072,DU
PL6.E3A0      #001=DDS$SDO File=DDS$SDO.:E05TSI                                  TUE 07/29/97 14:21 Page:28
         1 000160   000000 474400 xsym               LDP4    S_D$
         1 000161   400060 756100                    STQ     48,,PR4

      216    11955    2                  GOTO OCTAL;

  11955  1 000162   000751 710000 1                  TRA     OCTAL

      217    11956    2                END;                       /* "OCTIL" */
      218    11957    1             ELSE IF NCD = 8        /* DEC_CODE */

  11957  1 000163   000010 116007                    CMPQ    8,DL
         1 000164   000173 601000 1                  TNZ     s:11963

      219    11958    2                  THEN DO;                 /* "DECIMAL" */

      220    11959    2                       S_D.SDOD = '1'B;

  11959  1 000165   400000 236003                    LDQ     -131072,DU
         1 000166   000000 474400 xsym               LDP4    S_D$
         1 000167   400057 756100                    STQ     47,,PR4

      221    11960    2                       N$ = N$ -> POB.SUBLK$( 0 );

  11960  1 000170   300003 236100                    LDQ     3,,PR3
         1 000171   200005 756100                    STQ     N$,,AUTO

      222    11961    2                       GOTO DECIMAL;

  11961  1 000172   000663 710000 1                  TRA     DECIMAL

      223    11962    2                     END;                  /* "DECIMAL" */
      224    11963    1                  ELSE IF NCD = 200  /* CNR1_CODE */

  11963  1 000173   000310 116007                    CMPQ    200,DL
         1 000174   000637 601000 1                  TNZ     s:12066

      225    11964    2                       THEN DO;            /* "CNR1C" */
PL6.E3A0      #001=DDS$SDO File=DDS$SDO.:E05TSI                                  TUE 07/29/97 14:21 Page:29

      226    11965    2                            NCD = 472 ; /* C@SPECC - DEFAULT IS CHARACTER STRING */

  11965  1 000175   000730 235007                    LDA     472,DL
         1 000176   200006 755100                    STA     NCD,,AUTO

      227    11966    2                            IF ( N$ -> POB.NSB = 2 )

  11966  1 000177   300001 220100                    LDX0    1,,PR3
         1 000200   000002 100003                    CMPX0   2,DU
         1 000201   000206 601000 1                  TNZ     s:11968

      228    11967    2                            THEN NCD = N$ -> POB.SUBLK$( 1 ) -> POB.CODE;

  11967  1 000202   300004 474500                    LDP4    4,,PR3
         1 000203   400000 236100                    LDQ     0,,PR4
         1 000204   777777 376007                    ANQ     -1,DL
         1 000205   200006 756100                    STQ     NCD,,AUTO

      229    11968    2                            SYM$ = ADDR (N$ -> POB.SUBLK$(0) -> POS.TEXT);
             11968                                     /* QUOTE STRING TEXT POINTER */

  11968  1 000206   300003 474500                    LDP4    3,,PR3
         1 000207   200020 454500                    STP4    TCHARS+2,,AUTO
         1 000210   200020 236100                    LDQ     TCHARS+2,,AUTO
         1 000211   000000 036000 2                  ADLQ    0
         1 000212   200007 756100                    STQ     SYM$,,AUTO

      230    11969    2                            TSIZ = N$ -> POB.SUBLK$(0) -> POS.COUNT;

  11969  1 000213   300003 471500                    LDP1    3,,PR3
         1 000214   100004 236100                    LDQ     4,,PR1
         1 000215   000033 772000                    QRL     27
         1 000216   200013 756100                    STQ     TSIZ,,AUTO

      231    11970    2                            V = 0;

PL6.E3A0      #001=DDS$SDO File=DDS$SDO.:E05TSI                                  TUE 07/29/97 14:21 Page:30
  11970  1 000217   200004 474500                    LDP4    @V,,AUTO
         1 000220   400000 450100                    STZ     0,,PR4

      232    11971    3                            DO CASE( NCD );

  11971  1 000221   200006 235100                    LDA     NCD,,AUTO
         1 000222   000726 135007                    SBLA    470,DL
         1 000223   000006 115007                    CMPA    6,DL
         1 000224   000226 602005 1                  TNC     s:11971+5,AL
         1 000225   000651 710000 1                  TRA     s:12076
         1 000226   000234 710000 1                  TRA     s:11973
         1 000227   000325 710000 1                  TRA     s:11995
         1 000230   000424 710000 1                  TRA     s:12017
         1 000231   000636 710000 1                  TRA     s:12065
         1 000232   000500 710000 1                  TRA     s:12032
         1 000233   000571 710000 1                  TRA     s:12054

      233    11972    3                              CASE ( 470 ); /* C@FSPECB - BIT STRING */

      234    11973    3                                 S_D.SDOB = '1'B;

  11973  1 000234   400000 236003                    LDQ     -131072,DU
         1 000235   000000 471400 xsym               LDP1    S_D$
         1 000236   104737 756100                    STQ     2527,,PR1

      235    11974    4                                 DO CASE ( S_D.ONE_TO_TWO.EXEC_DOMAIN );

  11974  1 000237   106714 235100                    LDA     3532,,PR1
         1 000240   000003 115007                    CMPA    3,DL
         1 000241   000243 602005 1                  TNC     s:11974+4,AL
         1 000242   000322 710000 1                  TRA     s:11991
         1 000243   000322 710000 1                  TRA     s:11991
         1 000244   000246 710000 1                  TRA     s:11976
         1 000245   000274 710000 1                  TRA     s:11983

      236    11975    4                                   CASE ( %HOST );

PL6.E3A0      #001=DDS$SDO File=DDS$SDO.:E05TSI                                  TUE 07/29/97 14:21 Page:31
      237    11976    4                                      IF ( TSIZ > LENGTHB( V ) ) THEN GOTO CONSTOOBIG;

  11976  1 000246   200013 235100                    LDA     TSIZ,,AUTO
         1 000247   000045 115007                    CMPA    37,DL
         1 000250   001131 603000 1                  TRC     CONSTOOBIG

      238    11977    5                                      DO IX = 0 TO TSIZ-1;

  11977  1 000251   200012 450100                    STZ     IX,,AUTO
         1 000252   000270 710000 1                  TRA     s:11981+2

      239    11978    5                                           CALL INDEX (TEMP, SCHARS(IX), '01')

  11978  1 000253   200007 470500                    LDP0    SYM$,,AUTO
         1 000254   200012 235100                    LDA     IX,,AUTO
         1 000255   000105 124400                    SCM     mask='000'O
         1 000256   000204 000002 0                  ADSC9   ASC2EBC+128              cn=0,n=2
         1 000257   000000 000001                    ADSC9   0,A,PR0                  cn=0,n=1
         1 000260   200015 000100                    ARG     TEMP,,AUTO
         1 000261   001155 606400 1                  TTN     BADDIG

      240    11979    5                                             ALTRET (BADDIG);
      241    11980    5                                           VBIT(IX) = TEMP;

  11980  1 000262   200004 471500                    LDP1    @V,,AUTO
         1 000263   003105 061500                    CSR     bolr='003'O
         1 000264   200015 000044                    BDSC    TEMP,,AUTO               by=0,bit=0,n=36
         1 000265   100000 000001                    BDSC    0,A,PR1                  by=0,bit=0,n=1

      242    11981    5                                         END; /* "DO IX" */

  11981  1 000266   000001 035007                    ADLA    1,DL
         1 000267   200012 755100                    STA     IX,,AUTO
         1 000270   200012 236100                    LDQ     IX,,AUTO
         1 000271   200013 116100                    CMPQ    TSIZ,,AUTO
         1 000272   000253 602000 1                  TNC     s:11978
         1 000273   000651 710000 1                  TRA     s:12076
PL6.E3A0      #001=DDS$SDO File=DDS$SDO.:E05TSI                                  TUE 07/29/97 14:21 Page:32

      243    11982    4                                   CASE ( %L6 );

      244    11983    4                                      IF  TSIZ > LENGTHB( L6BIT.X )

  11983  1 000274   200013 235100                    LDA     TSIZ,,AUTO
         1 000275   000041 115007                    CMPA    33,DL
         1 000276   001131 603000 1                  TRC     CONSTOOBIG

      245    11984    4                                      THEN GOTO CONSTOOBIG;
      246    11985    5                                      DO IX = 0 TO TSIZ-1;

  11985  1 000277   200012 450100                    STZ     IX,,AUTO
         1 000300   000316 710000 1                  TRA     s:11989+2

      247    11986    5                                           CALL INDEX (TEMP, SCHARS(IX), '01')

  11986  1 000301   200007 470500                    LDP0    SYM$,,AUTO
         1 000302   200012 235100                    LDA     IX,,AUTO
         1 000303   000105 124400                    SCM     mask='000'O
         1 000304   000204 000002 0                  ADSC9   ASC2EBC+128              cn=0,n=2
         1 000305   000000 000001                    ADSC9   0,A,PR0                  cn=0,n=1
         1 000306   200015 000100                    ARG     TEMP,,AUTO
         1 000307   001155 606400 1                  TTN     BADDIG

      248    11987    5                                             ALTRET (BADDIG);
      249    11988    5                                           L6BIT.X(IX) = TEMP;

  11988  1 000310   200004 471500                    LDP1    @V,,AUTO
         1 000311   003105 061500                    CSR     bolr='003'O
         1 000312   200015 000044                    BDSC    TEMP,,AUTO               by=0,bit=0,n=36
         1 000313   100000 040001                    BDSC    0,A,PR1                  by=0,bit=4,n=1

      250    11989    5                                         END;

  11989  1 000314   000001 035007                    ADLA    1,DL
         1 000315   200012 755100                    STA     IX,,AUTO
PL6.E3A0      #001=DDS$SDO File=DDS$SDO.:E05TSI                                  TUE 07/29/97 14:21 Page:33
         1 000316   200012 236100                    LDQ     IX,,AUTO
         1 000317   200013 116100                    CMPQ    TSIZ,,AUTO
         1 000320   000301 602000 1                  TNC     s:11986
         1 000321   000651 710000 1                  TRA     s:12076

      251    11990    4                                   CASE ( ELSE );

      252    11991    4                                      S_D.ERROR = 502; /* E@DELBUG */

  11991  1 000322   000766 235007                    LDA     502,DL
         1 000323   100013 755100                    STA     11,,PR1

      253    11992    4                                      GOTO ALTRT;

  11992  1 000324   001160 710000 1                  TRA     ALTRT

      254    11993    4                                   END;

      255    11994    3                              CASE ( 471 ); /* C@FSPECO - OCTAL BIT STRING */

      256    11995    3                                 S_D.SDOOB = '1'B;

  11995  1 000325   400000 236003                    LDQ     -131072,DU
         1 000326   000000 471400 xsym               LDP1    S_D$
         1 000327   104740 756100                    STQ     2528,,PR1

      257    11996    4                                 DO CASE ( S_D.ONE_TO_TWO.EXEC_DOMAIN );

  11996  1 000330   106714 235100                    LDA     3532,,PR1
         1 000331   000003 115007                    CMPA    3,DL
         1 000332   000334 602005 1                  TNC     s:11996+4,AL
         1 000333   000421 710000 1                  TRA     s:12013
         1 000334   000421 710000 1                  TRA     s:12013
         1 000335   000337 710000 1                  TRA     s:11998
         1 000336   000370 710000 1                  TRA     s:12005

      258    11997    4                                   CASE ( %HOST );
PL6.E3A0      #001=DDS$SDO File=DDS$SDO.:E05TSI                                  TUE 07/29/97 14:21 Page:34

      259    11998    4                                      IF ( TSIZ > LENGTHB( V ) / 3 ) THEN GOTO
             11998                                               CONSTOOBIG;

  11998  1 000337   200013 235100                    LDA     TSIZ,,AUTO
         1 000340   000015 115007                    CMPA    13,DL
         1 000341   001131 603000 1                  TRC     CONSTOOBIG

      260    11999    5                                      DO IX = 0 TO TSIZ-1;

  11999  1 000342   200012 450100                    STZ     IX,,AUTO
         1 000343   000364 710000 1                  TRA     s:12003+3

      261    12000    5                                           CALL INDEX (TEMP, SCHARS(IX), '01234567')

  12000  1 000344   200007 470500                    LDP0    SYM$,,AUTO
         1 000345   200012 235100                    LDA     IX,,AUTO
         1 000346   000105 124400                    SCM     mask='000'O
         1 000347   000205 000010 0                  ADSC9   ASC2EBC+129              cn=0,n=8
         1 000350   000000 000001                    ADSC9   0,A,PR0                  cn=0,n=1
         1 000351   200015 000100                    ARG     TEMP,,AUTO
         1 000352   001155 606400 1                  TTN     BADDIG

      262    12001    5                                             ALTRET (BADDIG);
      263    12002    5                                           VOCT (IX) = TEMP;

  12002  1 000353   200012 236100                    LDQ     IX,,AUTO
         1 000354   000003 402007                    MPY     3,DL
         1 000355   200004 471500                    LDP1    @V,,AUTO
         1 000356   003106 061500                    CSR     bolr='003'O
         1 000357   200015 000044                    BDSC    TEMP,,AUTO               by=0,bit=0,n=36
         1 000360   100000 000003                    BDSC    0,Q,PR1                  by=0,bit=0,n=3

      264    12003    5                                         END;

  12003  1 000361   200012 235100                    LDA     IX,,AUTO
         1 000362   000001 035007                    ADLA    1,DL
PL6.E3A0      #001=DDS$SDO File=DDS$SDO.:E05TSI                                  TUE 07/29/97 14:21 Page:35
         1 000363   200012 755100                    STA     IX,,AUTO
         1 000364   200012 236100                    LDQ     IX,,AUTO
         1 000365   200013 116100                    CMPQ    TSIZ,,AUTO
         1 000366   000344 602000 1                  TNC     s:12000
         1 000367   000651 710000 1                  TRA     s:12076

      265    12004    4                                   CASE ( %L6 );

      266    12005    4                                      IF ( TSIZ > LENGTHB( L6OCT.X ) / 3 )

  12005  1 000370   200013 235100                    LDA     TSIZ,,AUTO
         1 000371   000013 115007                    CMPA    11,DL
         1 000372   001131 603000 1                  TRC     CONSTOOBIG

      267    12006    4                                      THEN GOTO CONSTOOBIG;
      268    12007    5                                      DO IX = 0 TO TSIZ-1;

  12007  1 000373   200012 450100                    STZ     IX,,AUTO
         1 000374   000415 710000 1                  TRA     s:12011+3

      269    12008    5                                           CALL INDEX (TEMP, SCHARS(IX), '01234567')

  12008  1 000375   200007 470500                    LDP0    SYM$,,AUTO
         1 000376   200012 235100                    LDA     IX,,AUTO
         1 000377   000105 124400                    SCM     mask='000'O
         1 000400   000205 000010 0                  ADSC9   ASC2EBC+129              cn=0,n=8
         1 000401   000000 000001                    ADSC9   0,A,PR0                  cn=0,n=1
         1 000402   200015 000100                    ARG     TEMP,,AUTO
         1 000403   001155 606400 1                  TTN     BADDIG

      270    12009    5                                             ALTRET (BADDIG);
      271    12010    5                                           L6OCT.X(IX) = TEMP;

  12010  1 000404   200012 236100                    LDQ     IX,,AUTO
         1 000405   000003 402007                    MPY     3,DL
         1 000406   200004 471500                    LDP1    @V,,AUTO
         1 000407   003106 061500                    CSR     bolr='003'O
PL6.E3A0      #001=DDS$SDO File=DDS$SDO.:E05TSI                                  TUE 07/29/97 14:21 Page:36
         1 000410   200015 000044                    BDSC    TEMP,,AUTO               by=0,bit=0,n=36
         1 000411   100000 040003                    BDSC    0,Q,PR1                  by=0,bit=4,n=3

      272    12011    5                                         END;

  12011  1 000412   200012 235100                    LDA     IX,,AUTO
         1 000413   000001 035007                    ADLA    1,DL
         1 000414   200012 755100                    STA     IX,,AUTO
         1 000415   200012 236100                    LDQ     IX,,AUTO
         1 000416   200013 116100                    CMPQ    TSIZ,,AUTO
         1 000417   000375 602000 1                  TNC     s:12008
         1 000420   000651 710000 1                  TRA     s:12076

      273    12012    4                                   CASE ( ELSE );

      274    12013    4                                      S_D.ERROR = 502; /* E@DELBUG */

  12013  1 000421   000766 235007                    LDA     502,DL
         1 000422   100013 755100                    STA     11,,PR1

      275    12014    4                                      GOTO ALTRT;

  12014  1 000423   001160 710000 1                  TRA     ALTRT

      276    12015    4                                   END;

      277    12016    3                              CASE ( 472 ); /* C@FSPECC - CHARACTER STRING */

      278    12017    3                                 S_D.SDOT = '1'B;

  12017  1 000424   400000 236003                    LDQ     -131072,DU
         1 000425   000000 471400 xsym               LDP1    S_D$
         1 000426   104741 756100                    STQ     2529,,PR1

      279    12018    3                                 CALL INSERT (TCHARS,,, SSTR) ALTRET (CONSTOOBIG);

  12018  1 000427   200007 475500                    LDP5    SYM$,,AUTO
PL6.E3A0      #001=DDS$SDO File=DDS$SDO.:E05TSI                                  TUE 07/29/97 14:21 Page:37
         1 000430   200013 720100                    LXL0    TSIZ,,AUTO
         1 000431   040100 100540                    MLR     fill='040'O
         1 000432   500000 000010                    ADSC9   0,,PR5                   cn=0,n=*X0
         1 000433   200016 000004                    ADSC9   TCHARS,,AUTO             cn=0,n=4
         1 000434   200013 236100                    LDQ     TSIZ,,AUTO
         1 000435   000005 116007                    CMPQ    5,DL
         1 000436   001131 603000 1                  TRC     CONSTOOBIG

      280    12019    4                                 DO CASE ( S_D.ONE_TO_TWO.EXEC_DOMAIN );

  12019  1 000437   106714 235100                    LDA     3532,,PR1
         1 000440   000003 115007                    CMPA    3,DL
         1 000441   000443 602005 1                  TNC     s:12019+4,AL
         1 000442   000475 710000 1                  TRA     s:12028
         1 000443   000475 710000 1                  TRA     s:12028
         1 000444   000446 710000 1                  TRA     s:12021
         1 000445   000451 710000 1                  TRA     s:12023

      281    12020    4                                   CASE ( %HOST );

      282    12021    4                                      T = TCHARS;

  12021  1 000446   200016 236100                    LDQ     TCHARS,,AUTO
         1 000447   400000 756100                    STQ     0,,PR4
         1 000450   000651 710000 1                  TRA     s:12076

      283    12022    4                                   CASE ( %L6 );

      284    12023    4                                      L6TXT.X (0) = BCHARS (0);

  12023  1 000451   200016 236100                    LDQ     TCHARS,,AUTO
         1 000452   000003 772000                    QRL     3
         1 000453   400000 676100                    ERQ     0,,PR4
         1 000454   037700 376003                    ANQ     16320,DU
         1 000455   400000 656100                    ERSQ    0,,PR4

      285    12024    4                                      L6TXT.X (1) = BCHARS (1);
PL6.E3A0      #001=DDS$SDO File=DDS$SDO.:E05TSI                                  TUE 07/29/97 14:21 Page:38

  12024  1 000456   200016 236100                    LDQ     TCHARS,,AUTO
         1 000457   000002 772000                    QRL     2
         1 000460   400000 676100                    ERQ     0,,PR4
         1 000461   000001 376000 2                  ANQ     1
         1 000462   400000 656100                    ERSQ    0,,PR4

      286    12025    4                                      L6TXT.X (2) = BCHARS (2);

  12025  1 000463   200016 236100                    LDQ     TCHARS,,AUTO
         1 000464   000001 772000                    QRL     1
         1 000465   400000 676100                    ERQ     0,,PR4
         1 000466   177400 376007                    ANQ     65280,DL
         1 000467   400000 656100                    ERSQ    0,,PR4

      287    12026    4                                      L6TXT.X (3) = BCHARS (3);

  12026  1 000470   200016 236100                    LDQ     TCHARS,,AUTO
         1 000471   400000 676100                    ERQ     0,,PR4
         1 000472   000377 376007                    ANQ     255,DL
         1 000473   400000 656100                    ERSQ    0,,PR4
         1 000474   000651 710000 1                  TRA     s:12076

      288    12027    4                                   CASE ( ELSE );

      289    12028    4                                      S_D.ERROR = 502; /* E@DELBUG */

  12028  1 000475   000766 235007                    LDA     502,DL
         1 000476   100013 755100                    STA     11,,PR1

      290    12029    4                                      GOTO ALTRT;

  12029  1 000477   001160 710000 1                  TRA     ALTRT

      291    12030    4                                   END;

      292    12031    3                              CASE ( 474 ); /* C@FSPECX - HEX STRING */
PL6.E3A0      #001=DDS$SDO File=DDS$SDO.:E05TSI                                  TUE 07/29/97 14:21 Page:39

      293    12032    4                                 DO CASE ( S_D.ONE_TO_TWO.EXEC_DOMAIN );

  12032  1 000500   000000 471400 xsym               LDP1    S_D$
         1 000501   106714 235100                    LDA     3532,,PR1
         1 000502   000003 115007                    CMPA    3,DL
         1 000503   000505 602005 1                  TNC     s:12032+5,AL
         1 000504   000566 710000 1                  TRA     s:12050
         1 000505   000566 710000 1                  TRA     s:12050
         1 000506   000510 710000 1                  TRA     s:12034
         1 000507   000537 710000 1                  TRA     s:12042

      294    12033    4                                   CASE ( %HOST );

      295    12034    4                                      IF (TSIZ > LENGTHB(V) / 4)

  12034  1 000510   000012 116007                    CMPQ    10,DL
         1 000511   001131 603000 1                  TRC     CONSTOOBIG

      296    12035    4                                      THEN GOTO CONSTOOBIG;
      297    12036    5                                      DO IX = 0 TO TSIZ-1;

  12036  1 000512   200012 450100                    STZ     IX,,AUTO
         1 000513   000533 710000 1                  TRA     s:12040+3

      298    12037    5                                           CALL INDEX (TEMP, SCHARS(IX), XCHARS)

  12037  1 000514   200007 470500                    LDP0    SYM$,,AUTO
         1 000515   200012 235100                    LDA     IX,,AUTO
         1 000516   000105 124400                    SCM     mask='000'O
         1 000517   000000 000020 0                  ADSC9   XCHARS                   cn=0,n=16
         1 000520   000000 000001                    ADSC9   0,A,PR0                  cn=0,n=1
         1 000521   200015 000100                    ARG     TEMP,,AUTO
         1 000522   001155 606400 1                  TTN     BADDIG

      299    12038    5                                             ALTRET (BADDIG);
      300    12039    5                                           VHEX(IX) = TEMP;
PL6.E3A0      #001=DDS$SDO File=DDS$SDO.:E05TSI                                  TUE 07/29/97 14:21 Page:40

  12039  1 000523   000002 735000                    ALS     2
         1 000524   200004 471500                    LDP1    @V,,AUTO
         1 000525   003105 061500                    CSR     bolr='003'O
         1 000526   200015 000044                    BDSC    TEMP,,AUTO               by=0,bit=0,n=36
         1 000527   100000 000004                    BDSC    0,A,PR1                  by=0,bit=0,n=4

      301    12040    5                                         END;

  12040  1 000530   200012 236100                    LDQ     IX,,AUTO
         1 000531   000001 036007                    ADLQ    1,DL
         1 000532   200012 756100                    STQ     IX,,AUTO
         1 000533   200012 236100                    LDQ     IX,,AUTO
         1 000534   200013 116100                    CMPQ    TSIZ,,AUTO
         1 000535   000514 602000 1                  TNC     s:12037
         1 000536   000651 710000 1                  TRA     s:12076

      302    12041    4                                   CASE ( %L6 );

      303    12042    4                                      IF (TSIZ > LENGTHB(L6HEX.X) / 4 )

  12042  1 000537   000011 116007                    CMPQ    9,DL
         1 000540   001131 603000 1                  TRC     CONSTOOBIG

      304    12043    4                                      THEN GOTO CONSTOOBIG;
      305    12044    5                                      DO IX = 0 TO TSIZ-1;

  12044  1 000541   200012 450100                    STZ     IX,,AUTO
         1 000542   000562 710000 1                  TRA     s:12048+3

      306    12045    5                                           CALL INDEX (TEMP, SCHARS(IX), XCHARS)

  12045  1 000543   200007 470500                    LDP0    SYM$,,AUTO
         1 000544   200012 235100                    LDA     IX,,AUTO
         1 000545   000105 124400                    SCM     mask='000'O
         1 000546   000000 000020 0                  ADSC9   XCHARS                   cn=0,n=16
         1 000547   000000 000001                    ADSC9   0,A,PR0                  cn=0,n=1
PL6.E3A0      #001=DDS$SDO File=DDS$SDO.:E05TSI                                  TUE 07/29/97 14:21 Page:41
         1 000550   200015 000100                    ARG     TEMP,,AUTO
         1 000551   001155 606400 1                  TTN     BADDIG

      307    12046    5                                             ALTRET (BADDIG);
      308    12047    5                                           L6HEX.X (IX) = TEMP;

  12047  1 000552   000002 735000                    ALS     2
         1 000553   200004 471500                    LDP1    @V,,AUTO
         1 000554   003105 061500                    CSR     bolr='003'O
         1 000555   200015 000044                    BDSC    TEMP,,AUTO               by=0,bit=0,n=36
         1 000556   100000 040004                    BDSC    0,A,PR1                  by=0,bit=4,n=4

      309    12048    5                                         END;

  12048  1 000557   200012 236100                    LDQ     IX,,AUTO
         1 000560   000001 036007                    ADLQ    1,DL
         1 000561   200012 756100                    STQ     IX,,AUTO
         1 000562   200012 236100                    LDQ     IX,,AUTO
         1 000563   200013 116100                    CMPQ    TSIZ,,AUTO
         1 000564   000543 602000 1                  TNC     s:12045
         1 000565   000651 710000 1                  TRA     s:12076

      310    12049    4                                   CASE ( ELSE );

      311    12050    4                                      S_D.ERROR = 502; /* E@DELBUG */

  12050  1 000566   000766 235007                    LDA     502,DL
         1 000567   100013 755100                    STA     11,,PR1

      312    12051    4                                      GOTO ALTRT;

  12051  1 000570   001160 710000 1                  TRA     ALTRT

      313    12052    4                                   END;

      314    12053    3                              CASE ( 475 ); /* C@FSPECEB - EBCDIC CHARACTER */

PL6.E3A0      #001=DDS$SDO File=DDS$SDO.:E05TSI                                  TUE 07/29/97 14:21 Page:42
      315    12054    3                                CALL XLATE (TCHARS, ASC2EBC, SSTR) ALTRET (CONSTOOBIG)
             12054                                          ;

  12054  1 000571   200007 471500                    LDP1    SYM$,,AUTO
         1 000572   000000 620006                    EAX0    0,QL
         1 000573   040100 160540                    MVT     fill='040'O
         1 000574   100000 000010                    ADSC9   0,,PR1                   cn=0,n=*X0
         1 000575   200016 000004                    ADSC9   TCHARS,,AUTO             cn=0,n=4
         1 000576   000004 000000 0                  ARG     ASC2EBC
         1 000577   001131 600400 1                  TRTN    CONSTOOBIG

      316    12055    4                                 DO CASE ( S_D.ONE_TO_TWO.EXEC_DOMAIN );

  12055  1 000600   000000 475400 xsym               LDP5    S_D$
         1 000601   506714 235100                    LDA     3532,,PR5
         1 000602   000003 115007                    CMPA    3,DL
         1 000603   000605 602005 1                  TNC     s:12055+5,AL
         1 000604   000651 710000 1                  TRA     s:12076
         1 000605   000636 710000 1                  TRA     s:12065
         1 000606   000610 710000 1                  TRA     s:12057
         1 000607   000613 710000 1                  TRA     s:12059

      317    12056    4                                   CASE ( %HOST );

      318    12057    4                                      T = TCHARS;

  12057  1 000610   200016 236100                    LDQ     TCHARS,,AUTO
         1 000611   400000 756100                    STQ     0,,PR4
         1 000612   000651 710000 1                  TRA     s:12076

      319    12058    4                                   CASE ( %L6 );

      320    12059    4                                      L6TXT.X (0) = BCHARS (0);

  12059  1 000613   200016 236100                    LDQ     TCHARS,,AUTO
         1 000614   000003 772000                    QRL     3
         1 000615   400000 676100                    ERQ     0,,PR4
PL6.E3A0      #001=DDS$SDO File=DDS$SDO.:E05TSI                                  TUE 07/29/97 14:21 Page:43
         1 000616   037700 376003                    ANQ     16320,DU
         1 000617   400000 656100                    ERSQ    0,,PR4

      321    12060    4                                      L6TXT.X (1) = BCHARS (1);

  12060  1 000620   200016 236100                    LDQ     TCHARS,,AUTO
         1 000621   000002 772000                    QRL     2
         1 000622   400000 676100                    ERQ     0,,PR4
         1 000623   000001 376000 2                  ANQ     1
         1 000624   400000 656100                    ERSQ    0,,PR4

      322    12061    4                                      L6TXT.X (2) = BCHARS (2);

  12061  1 000625   200016 236100                    LDQ     TCHARS,,AUTO
         1 000626   000001 772000                    QRL     1
         1 000627   400000 676100                    ERQ     0,,PR4
         1 000630   177400 376007                    ANQ     65280,DL
         1 000631   400000 656100                    ERSQ    0,,PR4

      323    12062    4                                      L6TXT.X (3) = BCHARS (3);

  12062  1 000632   200016 236100                    LDQ     TCHARS,,AUTO
         1 000633   400000 676100                    ERQ     0,,PR4
         1 000634   000377 376007                    ANQ     255,DL
         1 000635   400000 656100                    ERSQ    0,,PR4

      324    12063    4                                   END;

      325    12064    3                              END;         /* "DO CASE( NCD )" */

      326    12065    2                          END;             /* "CNR1C" */

  12065  1 000636   000651 710000 1                  TRA     s:12076

      327    12066    1                       ELSE IF NCD = 104 /* HEX_CODE */

  12066  1 000637   000150 116007                    CMPQ    104,DL
PL6.E3A0      #001=DDS$SDO File=DDS$SDO.:E05TSI                                  TUE 07/29/97 14:21 Page:44
         1 000640   000645 601000 1                  TNZ     s:12072

      328    12067    2                            THEN DO;       /* "HEXIL" */

      329    12068    2                                 S_D.SDOH = '1'B;

  12068  1 000641   400000 236003                    LDQ     -131072,DU
         1 000642   000000 474400 xsym               LDP4    S_D$
         1 000643   404664 756100                    STQ     2484,,PR4

      330    12069    2                                 GOTO HEX;

  12069  1 000644   001055 710000 1                  TRA     HEX

      331    12070    2                               END;
      332    12071    2                            ELSE DO;       /* UNKNOWN CODE */

      333    12072    2                                 S_D.ERROR = 501; /* E@DERR1 */

  12072  1 000645   000765 235007                    LDA     501,DL
         1 000646   000000 474400 xsym               LDP4    S_D$
         1 000647   400013 755100                    STA     11,,PR4

      334    12073    2                                 GOTO ALTRT;

  12073  1 000650   001160 710000 1                  TRA     ALTRT

      335    12074    2                               END;        /* UNKNOWN CODE */
      336    12075        /**/
      337    12076    1        RETURN;

  12076  1 000651   000000 702200 xent               TSX2  ! X66_ARET

      338    12077        %EJECT;
PL6.E3A0      #001=DDS$SDO File=DDS$SDO.:E05TSI                                  TUE 07/29/97 14:21 Page:45
      339    12078        /**/
      340    12079    1   DDS$DECIMAL: ENTRY( NODE$, V ) ALTRET;

  12079  1 000652   000000 700200 xent  DDS$DECIMAL  TSX0  ! X66_AUTO_2
         1 000653   000024 000002                    ZERO    20,2

      341    12080        /**/
      342    12081    1        IF NODE$ -> POB.CODE ~= 8   /* DEC_CODE */

  12081  1 000654   200003 470500                    LDP0    @NODE$,,AUTO
         1 000655   000000 471500                    LDP1    0,,PR0
         1 000656   100000 720100                    LXL0    0,,PR1
         1 000657   000010 100003                    CMPX0   8,DU
         1 000660   001135 601000 1                  TNZ     NOTDECERR

      343    12082    1        THEN GOTO NOTDECERR;
      344    12083    1        N$ = NODE$ -> POB.SUBLK$( 0 );

  12083  1 000661   100003 236100                    LDQ     3,,PR1
         1 000662   200005 756100                    STQ     N$,,AUTO

  12083  1 000663                       DECIMAL      null
      345    12084    1   DECIMAL: ;
      346    12085    1        TSIZ = N$ -> TEXT$C.SIZE;

  12085  1 000663   200005 471500                    LDP1    N$,,AUTO
         1 000664   100000 236100                    LDQ     0,,PR1
         1 000665   000033 772000                    QRL     27
         1 000666   200013 756100                    STQ     TSIZ,,AUTO

      347    12086    2        DO CASE ( S_D.ONE_TO_TWO.EXEC_DOMAIN );

  12086  1 000667   000000 473400 xsym               LDP3    S_D$
         1 000670   306714 235100                    LDA     3532,,PR3
         1 000671   000003 115007                    CMPA    3,DL
         1 000672   000674 602005 1                  TNC     s:12086+5,AL
         1 000673   000723 710000 1                  TRA     s:12098
PL6.E3A0      #001=DDS$SDO File=DDS$SDO.:E05TSI                                  TUE 07/29/97 14:21 Page:46
         1 000674   000723 710000 1                  TRA     s:12098
         1 000675   000677 710000 1                  TRA     s:12088
         1 000676   000711 710000 1                  TRA     s:12093

      348    12087    2          CASE ( %HOST );

      349    12088    2             IF TSIZ > LENGTHC( '68719476735' ) THEN GOTO TOOLARGE;

  12088  1 000677   000014 116007                    CMPQ    12,DL
         1 000700   001151 603000 1                  TRC     TOOLARGE

      350    12089    2             IF TSIZ = LENGTHC( '68719476735' ) AND

  12089  1 000701   000013 116007                    CMPQ    11,DL
         1 000702   000710 601000 1                  TNZ     s:12089+7
         1 000703   000000 620006                    EAX0    0,QL
         1 000704   040140 106400                    CMPC    fill='040'O
         1 000705   000207 000013 0                  ADSC9   ASC2EBC+131              cn=0,n=11
         1 000706   100000 200010                    ADSC9   0,,PR1                   cn=1,n=*X0
         1 000707   001151 602000 1                  TNC     TOOLARGE
         1 000710   000726 710000 1                  TRA     s:12101

      351    12090    2               N$ -> TEXT$C.TXT > '68719476735'
      352    12091    2             THEN GOTO TOOLARGE;
      353    12092    2          CASE ( %L6 );

      354    12093    2             IF TSIZ > LENGTHC( '4294967295' ) THEN GOTO TOOLARGE;

  12093  1 000711   000013 116007                    CMPQ    11,DL
         1 000712   001151 603000 1                  TRC     TOOLARGE

      355    12094    2             IF TSIZ = LENGTHC( '4294967295' ) AND

  12094  1 000713   000012 116007                    CMPQ    10,DL
         1 000714   000722 601000 1                  TNZ     s:12094+7
         1 000715   000000 620006                    EAX0    0,QL
         1 000716   040140 106400                    CMPC    fill='040'O
PL6.E3A0      #001=DDS$SDO File=DDS$SDO.:E05TSI                                  TUE 07/29/97 14:21 Page:47
         1 000717   000212 000012 0                  ADSC9   ASC2EBC+134              cn=0,n=10
         1 000720   100000 200010                    ADSC9   0,,PR1                   cn=1,n=*X0
         1 000721   001151 602000 1                  TNC     TOOLARGE
         1 000722   000726 710000 1                  TRA     s:12101

      356    12095    2               N$ -> TEXT$C.TXT > '4294967295'
      357    12096    2             THEN GOTO TOOLARGE;
      358    12097    2          CASE ( ELSE );

      359    12098    2             S_D.ERROR = 502;         /* E@DELBUG */

  12098  1 000723   000766 235007                    LDA     502,DL
         1 000724   300013 755100                    STA     11,,PR3

      360    12099    2             GOTO ALTRT;

  12099  1 000725   001160 710000 1                  TRA     ALTRT

      361    12100    2          END;

      362    12101    1        CALL CHARBIN( V, N$ -> TEXT$C.TXT );

  12101  1 000726   100000 236100                    LDQ     0,,PR1
         1 000727   000033 772000                    QRL     27
         1 000730   000000 620006                    EAX0    0,QL
         1 000731   000100 305540                    DTB
         1 000732   100000 230010                    NDSC9   0,,PR1                   cn=1,s=nosgn,sf=0,n=*X0
         1 000733   200020 000010                    NDSC9   TCHARS+2,,AUTO           cn=0,s=lsgnf,sf=0,n=8
         1 000734   200004 474500                    LDP4    @V,,AUTO
         1 000735   200021 236100                    LDQ     TCHARS+3,,AUTO
         1 000736   400000 756100                    STQ     0,,PR4

      363    12102    1        RETURN;

  12102  1 000737   000000 702200 xent               TSX2  ! X66_ARET

      364    12103        %EJECT;
PL6.E3A0      #001=DDS$SDO File=DDS$SDO.:E05TSI                                  TUE 07/29/97 14:21 Page:48
      365    12104        /**/
      366    12105    1   DDS$OCTAL: ENTRY( NODE$, V ) ALTRET;

  12105  1 000740   000000 700200 xent  DDS$OCTAL    TSX0  ! X66_AUTO_2
         1 000741   000024 000002                    ZERO    20,2

      367    12106        /**/
      368    12107    1        IF NODE$ -> POB.CODE ~= 27   /* OCT_CODE */

  12107  1 000742   200003 470500                    LDP0    @NODE$,,AUTO
         1 000743   000000 471500                    LDP1    0,,PR0
         1 000744   100000 720100                    LXL0    0,,PR1
         1 000745   000033 100003                    CMPX0   27,DU
         1 000746   001141 601000 1                  TNZ     NOTOCTERR

      369    12108    1        THEN GOTO NOTOCTERR;
      370    12109    1        N$ = NODE$;

  12109  1 000747   000000 236100                    LDQ     0,,PR0
         1 000750   200005 756100                    STQ     N$,,AUTO

  12109  1 000751                       OCTAL        null
      371    12110    1   OCTAL: ;
      372    12111    1        IF N$ -> POB.NDTYPE = %KONCAT#

  12111  1 000751   200005 471500                    LDP1    N$,,AUTO
         1 000752   100000 236100                    LDQ     0,,PR1
         1 000753   000077 376003                    ANQ     63,DU
         1 000754   000002 116003                    CMPQ    2,DU
         1 000755   000760 601000 1                  TNZ     s:12113

      373    12112    1        THEN N$ = N$ -> POB.SUBLK$( 0 );

  12112  1 000756   100003 236100                    LDQ     3,,PR1
         1 000757   200005 756100                    STQ     N$,,AUTO

      374    12113    1        N$ = N$ -> POB.SUBLK$( 0 );
PL6.E3A0      #001=DDS$SDO File=DDS$SDO.:E05TSI                                  TUE 07/29/97 14:21 Page:49

  12113  1 000760   200005 471500                    LDP1    N$,,AUTO
         1 000761   100003 236100                    LDQ     3,,PR1
         1 000762   200005 756100                    STQ     N$,,AUTO

      375    12114    1        TSIZ = N$ -> TEXT$C.SIZE;

  12114  1 000763   200005 471500                    LDP1    N$,,AUTO
         1 000764   100000 236100                    LDQ     0,,PR1
         1 000765   000033 772000                    QRL     27
         1 000766   200013 756100                    STQ     TSIZ,,AUTO

      376    12115    2        DO CASE ( S_D.ONE_TO_TWO.EXEC_DOMAIN );

  12115  1 000767   000000 473400 xsym               LDP3    S_D$
         1 000770   306714 235100                    LDA     3532,,PR3
         1 000771   000003 115007                    CMPA    3,DL
         1 000772   000774 602005 1                  TNC     s:12115+5,AL
         1 000773   001005 710000 1                  TRA     s:12121
         1 000774   001005 710000 1                  TRA     s:12121
         1 000775   000777 710000 1                  TRA     s:12117
         1 000776   001002 710000 1                  TRA     s:12119

      377    12116    2          CASE ( %HOST );

      378    12117    2             IF TSIZ > 12 THEN GOTO TOOLARGE;

  12117  1 000777   000015 116007                    CMPQ    13,DL
         1 001000   001151 603000 1                  TRC     TOOLARGE
         1 001001   001010 710000 1                  TRA     s:12125

      379    12118    2          CASE ( %L6 );

      380    12119    2             IF TSIZ > 10 THEN GOTO TOOLARGE;

  12119  1 001002   000013 116007                    CMPQ    11,DL
         1 001003   001151 603000 1                  TRC     TOOLARGE
PL6.E3A0      #001=DDS$SDO File=DDS$SDO.:E05TSI                                  TUE 07/29/97 14:21 Page:50
         1 001004   001010 710000 1                  TRA     s:12125

      381    12120    2          CASE ( ELSE );

      382    12121    2             S_D.ERROR = 502;

  12121  1 001005   000766 235007                    LDA     502,DL
         1 001006   300013 755100                    STA     11,,PR3

      383    12122    2             GOTO ALTRT;

  12122  1 001007   001160 710000 1                  TRA     ALTRT

      384    12123    2          END;

      385    12124        /* PICK UP EACH DIGIT LEFT TO RIGHT & ACCUMULATE INTO SUM */
      386    12125    1        ACCUM = 0;

  12125  1 001010   200014 450100                    STZ     ACCUM,,AUTO

      387    12126    2        DO IX = 1 TO TSIZ;

  12126  1 001011   000001 235007                    LDA     1,DL
         1 001012   200012 755100                    STA     IX,,AUTO
         1 001013   001035 710000 1                  TRA     s:12129+3

      388    12127    2             N$ = PINCRC( N$, LENGTHC( CHAR$1 ) );

  12127  1 001014   200005 236100                    LDQ     N$,,AUTO
         1 001015   200000 036007                    ADLQ    65536,DL
         1 001016   200005 756100                    STQ     N$,,AUTO

      389    12128    2             ACCUM = ( ACCUM * 8 ) + ASCBIN( N$ -> CHAR$1 ) - ASCBIN( '0' );

  12128  1 001017   200005 470500                    LDP0    N$,,AUTO
         1 001020   000100 101500                    MRL     fill='000'O
         1 001021   000000 000001                    ADSC9   0,,PR0                   cn=0,n=1
PL6.E3A0      #001=DDS$SDO File=DDS$SDO.:E05TSI                                  TUE 07/29/97 14:21 Page:51
         1 001022   200020 000004                    ADSC9   TCHARS+2,,AUTO           cn=0,n=4
         1 001023   200020 236100                    LDQ     TCHARS+2,,AUTO
         1 001024   200021 756100                    STQ     TCHARS+3,,AUTO
         1 001025   200014 236100                    LDQ     ACCUM,,AUTO
         1 001026   000003 736000                    QLS     3
         1 001027   200021 036100                    ADLQ    TCHARS+3,,AUTO
         1 001030   000060 136007                    SBLQ    48,DL
         1 001031   200014 756100                    STQ     ACCUM,,AUTO

      390    12129    2           END;                            /* "DO IX" */

  12129  1 001032   200012 235100                    LDA     IX,,AUTO
         1 001033   000001 035007                    ADLA    1,DL
         1 001034   200012 755100                    STA     IX,,AUTO
         1 001035   200013 236100                    LDQ     TSIZ,,AUTO
         1 001036   200012 116100                    CMPQ    IX,,AUTO
         1 001037   001014 603000 1                  TRC     s:12127

      391    12130    1        V = ACCUM;

  12130  1 001040   200004 470500                    LDP0    @V,,AUTO
         1 001041   200014 235100                    LDA     ACCUM,,AUTO
         1 001042   000000 755100                    STA     0,,PR0

      392    12131    1        RETURN;

  12131  1 001043   000000 702200 xent               TSX2  ! X66_ARET

      393    12132        %EJECT;
PL6.E3A0      #001=DDS$SDO File=DDS$SDO.:E05TSI                                  TUE 07/29/97 14:21 Page:52
      394    12133        /**/
      395    12134    1   DDS$HEX: ENTRY(NODE$, V) ALTRET;

  12134  1 001044   000000 700200 xent  DDS$HEX      TSX0  ! X66_AUTO_2
         1 001045   000024 000002                    ZERO    20,2

      396    12135        /**/
      397    12136    1        IF NODE$ -> POB.CODE ~= 104   /* HEX_CODE */

  12136  1 001046   200003 470500                    LDP0    @NODE$,,AUTO
         1 001047   000000 471500                    LDP1    0,,PR0
         1 001050   100000 720100                    LXL0    0,,PR1
         1 001051   000150 100003                    CMPX0   104,DU
         1 001052   001145 601000 1                  TNZ     NOTHEXERR

      398    12137    1        THEN GOTO NOTHEXERR;
      399    12138    1        N$ = NODE$;

  12138  1 001053   000000 236100                    LDQ     0,,PR0
         1 001054   200005 756100                    STQ     N$,,AUTO

  12138  1 001055                       HEX          null
      400    12139    1   HEX: ;
      401    12140    1        IF N$ -> POB.NDTYPE = %KONCAT#

  12140  1 001055   200005 471500                    LDP1    N$,,AUTO
         1 001056   100000 236100                    LDQ     0,,PR1
         1 001057   000077 376003                    ANQ     63,DU
         1 001060   000002 116003                    CMPQ    2,DU
         1 001061   001064 601000 1                  TNZ     s:12142

      402    12141    1        THEN N$ = N$ -> POB.SUBLK$(0);

  12141  1 001062   100003 236100                    LDQ     3,,PR1
         1 001063   200005 756100                    STQ     N$,,AUTO

      403    12142    1        N$ = N$ -> POB.SUBLK$(0);
PL6.E3A0      #001=DDS$SDO File=DDS$SDO.:E05TSI                                  TUE 07/29/97 14:21 Page:53

  12142  1 001064   200005 471500                    LDP1    N$,,AUTO
         1 001065   100003 236100                    LDQ     3,,PR1
         1 001066   200005 756100                    STQ     N$,,AUTO

      404    12143    1        TSIZ = N$ -> TEXT$C.SIZE;

  12143  1 001067   200005 471500                    LDP1    N$,,AUTO
         1 001070   100000 236100                    LDQ     0,,PR1
         1 001071   000033 772000                    QRL     27
         1 001072   200013 756100                    STQ     TSIZ,,AUTO

      405    12144    1        IF TSIZ > 8

  12144  1 001073   000011 116007                    CMPQ    9,DL
         1 001074   001151 603000 1                  TRC     TOOLARGE

      406    12145    1        THEN GOTO TOOLARGE;
      407    12146                            /* Pick up each digit left to right and accumulate in sum */
      408    12147    1        ACCUM = 0;

  12147  1 001075   200014 450100                    STZ     ACCUM,,AUTO

      409    12148    2        DO IX = 1 TO TSIZ;

  12148  1 001076   000001 235007                    LDA     1,DL
         1 001077   200012 755100                    STA     IX,,AUTO
         1 001100   001121 710000 1                  TRA     s:12152+3

      410    12149    2             N$ = PINCRC(N$, LENGTHC(CHAR$1));

  12149  1 001101   200005 236100                    LDQ     N$,,AUTO
         1 001102   200000 036007                    ADLQ    65536,DL
         1 001103   200005 756100                    STQ     N$,,AUTO

      411    12150    2             CALL INDEX(TEMP, N$ -> CHAR$1, XCHARS) ALTRET(BADDIG);

PL6.E3A0      #001=DDS$SDO File=DDS$SDO.:E05TSI                                  TUE 07/29/97 14:21 Page:54
  12150  1 001104   200005 470500                    LDP0    N$,,AUTO
         1 001105   000100 124400                    SCM     mask='000'O
         1 001106   000000 000020 0                  ADSC9   XCHARS                   cn=0,n=16
         1 001107   000000 000001                    ADSC9   0,,PR0                   cn=0,n=1
         1 001110   200015 000100                    ARG     TEMP,,AUTO
         1 001111   001155 606400 1                  TTN     BADDIG

      412    12151    2             ACCUM = ACCUM*16 + TEMP;

  12151  1 001112   200014 236100                    LDQ     ACCUM,,AUTO
         1 001113   000004 736000                    QLS     4
         1 001114   200015 036100                    ADLQ    TEMP,,AUTO
         1 001115   200014 756100                    STQ     ACCUM,,AUTO

      413    12152    2           END;

  12152  1 001116   200012 235100                    LDA     IX,,AUTO
         1 001117   000001 035007                    ADLA    1,DL
         1 001120   200012 755100                    STA     IX,,AUTO
         1 001121   200013 236100                    LDQ     TSIZ,,AUTO
         1 001122   200012 116100                    CMPQ    IX,,AUTO
         1 001123   001101 603000 1                  TRC     s:12149

      414    12153    1        V = ACCUM;

  12153  1 001124   200004 470500                    LDP0    @V,,AUTO
         1 001125   200014 235100                    LDA     ACCUM,,AUTO
         1 001126   000000 755100                    STA     0,,PR0

      415    12154    1        RETURN;

  12154  1 001127   000000 702200 xent               TSX2  ! X66_ARET

      416    12155        /**/
      417    12156    1   RETN: RETURN;

  12156  1 001130   000000 702200 xent  RETN         TSX2  ! X66_ARET
PL6.E3A0      #001=DDS$SDO File=DDS$SDO.:E05TSI                                  TUE 07/29/97 14:21 Page:55

      418    12157        /**/
      419    12158    1   CONSTOOBIG: S_D.ERROR = 64; GOTO ALTRT; /* E@CONSTOOBIG */

  12158  1 001131   000100 235007       CONSTOOBIG   LDA     64,DL
         1 001132   000000 470400 xsym               LDP0    S_D$
         1 001133   000013 755100                    STA     11,,PR0

  12158  1 001134   001160 710000 1                  TRA     ALTRT

      420    12159    1   NOTDECERR: S_D.ERROR = 511; GOTO ALTRT; /* E@NOTDECIMAL */

  12159  1 001135   000777 235007       NOTDECERR    LDA     511,DL
         1 001136   000000 473400 xsym               LDP3    S_D$
         1 001137   300013 755100                    STA     11,,PR3

  12159  1 001140   001160 710000 1                  TRA     ALTRT

      421    12160    1   NOTOCTERR: S_D.ERROR = 603; GOTO ALTRT; /* E@NOTOCTIL */

  12160  1 001141   001133 235007       NOTOCTERR    LDA     603,DL
         1 001142   000000 473400 xsym               LDP3    S_D$
         1 001143   300013 755100                    STA     11,,PR3

  12160  1 001144   001160 710000 1                  TRA     ALTRT

      422    12161    1   NOTHEXERR: S_D.ERROR = 604; GOTO ALTRT; /* E@NOTHEX */

  12161  1 001145   001134 235007       NOTHEXERR    LDA     604,DL
         1 001146   000000 473400 xsym               LDP3    S_D$
         1 001147   300013 755100                    STA     11,,PR3

  12161  1 001150   001160 710000 1                  TRA     ALTRT

      423    12162    1   TOOLARGE: S_D.ERROR = 46; GOTO ALTRT; /* E@TOOLARGE */

  12162  1 001151   000056 235007       TOOLARGE     LDA     46,DL
PL6.E3A0      #001=DDS$SDO File=DDS$SDO.:E05TSI                                  TUE 07/29/97 14:21 Page:56
         1 001152   000000 473400 xsym               LDP3    S_D$
         1 001153   300013 755100                    STA     11,,PR3

  12162  1 001154   001160 710000 1                  TRA     ALTRT

      424    12163    1   BADDIG: S_D.ERROR = 65;           /* E@BADDIG */

  12163  1 001155   000101 235007       BADDIG       LDA     65,DL
         1 001156   000000 470400 xsym               LDP0    S_D$
         1 001157   000013 755100                    STA     11,,PR0

      425    12164    1   ALTRT: ALTRETURN;

  12164  1 001160   000000 702200 xent  ALTRT        TSX2  ! X66_AALT

XCHARS
 Sect OctLoc
   0     000   060061 062063   064065 066067   070071 101102   103104 105106    0123456789ABCDEF

ASC2EBC
 Sect OctLoc
   0     004   000001 002003   067055 056057   026005 045013   014015 016017    ....7-./..%.....
   0     010   020021 022023   074075 062046   030031 077047   034035 036037    ....<=2&..?'....
   0     014   100132 177173   133154 120175   115135 134116   153140 113141    @Z.{[lP}M]\Nk`Ka
   0     020   360361 362363   364365 366367   370371 172136   114176 156157    ..........z^L~no
   0     024   174301 302303   304305 306307   310311 321322   323324 325326    |...............
   0     030   327330 331342   343344 345346   347350 351112   340117 137155    ...........J.O_m
   0     034   171201 202203   204205 206207   210211 221222   223224 225226    y...............
   0     040   227230 231242   243244 245246   247250 251300   152320 241007    ............j...
   0     044   040041 042043   044025 006027   050051 052053   054011 012033     !"#$...()*+,...
   0     050   060061 032063   064065 066010   070071 072073   004024 076341    01.3456.89:;..>.
   0     054   101102 103104   105106 107110   111121 122123   124125 126127    ABCDEFGHIQRSTUVW
   0     060   130131 142143   144145 146147   150151 160161   162163 164165    XYbcdefghipqrstu
   0     064   166167 170200   212213 214215   216217 220232   233234 235236    vwx.............
   0     070   237240 252253   254255 256257   260261 262263   264265 266267    ................
   0     074   270271 272273   274275 276277   312313 314315   316317 332333    ................
   0     100   334335 336337   352353 354355   356357 372373   374375 376377    ................
PL6.E3A0      #001=DDS$SDO File=DDS$SDO.:E05TSI                                  TUE 07/29/97 14:21 Page:57
   0     104   000001 002003   067055 056057   026005 045013   014015 016017    ....7-./..%.....
   0     110   020021 022023   074075 062046   030031 077047   034035 036037    ....<=2&..?'....
   0     114   100117 177173   133154 120175   115135 134116   153140 113141    @O.{[lP}M]\Nk`Ka
   0     120   360361 362363   364365 366367   370371 172136   114176 156157    ..........z^L~no
   0     124   174301 302303   304305 306307   310311 321322   323324 325326    |...............
   0     130   327330 331342   343344 345346   347350 351112   340132 137155    ...........J.Z_m
   0     134   171201 202203   204205 206207   210211 221222   223224 225226    y...............
   0     140   227230 231242   243244 245246   247250 251300   152320 241007    ............j...
   0     144   040041 042043   044025 006027   050051 052053   054011 012033     !"#$...()*+,...
   0     150   060061 032063   064065 066010   070071 072073   004024 076341    01.3456.89:;..>.
   0     154   101102 103104   105106 107110   111121 122123   124125 126127    ABCDEFGHIQRSTUVW
   0     160   130131 142143   144145 146147   150151 160161   162163 164165    XYbcdefghipqrstu
   0     164   166167 170200   212213 214215   216217 220232   233234 235236    vwx.............
   0     170   237240 252253   254255 256257   260261 262263   264265 266267    ................
   0     174   270271 272273   274275 276277   312313 314315   316317 332333    ................
   0     200   334335 336337   352353 354355   356357 372373   374375 376377    ................

(unnamed)
 Sect OctLoc
   0     204   060061 040040   060061 062063   064065 066067   066070 067061    01  012345676871
   0     210   071064 067066   067063 065040   064062 071064   071066 067062    9476735 42949672
   0     214   071065 040040                                                    95

(unnamed)
 Sect OctLoc
   2     000   000004 200000   000077 600000                                    .....?..
      426    12165        /**/
      427    12166    1   END DDS$SDO;

PL6.E3A0      #001=DDS$SDO File=DDS$SDO.:E05TSI                                  TUE 07/29/97 14:21 Page:58
--  Include file information  --

   DD_SD_M.:E05TOU  is referenced.
   XUH_MACRO_C.:E05TOU  is referenced.
   DD_PSUBS_C.:E05TOU  is referenced.
   DD_ERR_C.:E05TOU  is referenced.
   XU_SUBS_C.:E05TOU  is referenced.
   XU_MACRO_C.:E05TOU  is referenced.
   B$OBJECT_C.:E05TOU  is referenced.
   DD$BASED.:E05TOU  is referenced.
   B$JIT_C.:E05TOU  was found in the system file and is never referenced.
   CP_6_C.:E05TOU  was found in the system file and is never referenced.
      No diagnostics issued in procedure DDS$SDO.

   Procedure DDS$SDO requires 625 words for executable code.
   Procedure DDS$SDO requires 20 words of local(AUTO) storage.

    No errors detected in file DDS$SDO.:E05TSI    .
PL6.E3A0      #001=DDS$SDO File=DDS$SDO.:E05TSI                                  TUE 07/29/97 14:21 Page:59
          *** CROSS REFERENCE LISTING ***
**     DENOTES     IDENTIFIER DEFINITION
<<                 IDENTIFIER'S VALUE SET
>>                 IDENTIFIER'S VALUE USED
<>                 IDENTIFIER SET AND/OR USED
--                 IDENTIFIER REFERENCED
PL6.E3A0      #001=DDS$SDO File=DDS$SDO.:E05TSI                                  TUE 07/29/97 14:21 Page:60
          MINI XREF LISTING

ACCUM
        64**DCL     12125<<ASSIGN  12128<<ASSIGN  12128>>ASSIGN  12130>>ASSIGN  12147<<ASSIGN  12151<<ASSIGN
     12151>>ASSIGN  12153>>ASSIGN
ALTRT
     12164**LABEL   11942--GOTO    11992--GOTO    12014--GOTO    12029--GOTO    12051--GOTO    12073--GOTO
     12099--GOTO    12122--GOTO    12158--GOTO    12159--GOTO    12160--GOTO    12161--GOTO    12162--GOTO
ARETSYM
     11941**LABEL   11917--GOTO    11926--GOTO
ASC2EBC
        82**DCL     12054>>CALLBLT
B$EDEF.ISADDR
      4912**DCL     11944>>ASSIGN
B$EDEF.OU
      4906**DCL      4912--REDEF
B$SDEF.AD.ISADDR
      4985**DCL     11949>>ASSIGN
B$SDEF.AD.OU
      4979**DCL      4985--REDEF
B$SDEF.CONSTNT
      4990**DCL     11947>>IF
B$SDEF.VALUE
      4960**DCL      4963--REDEF   11948>>ASSIGN
BADDIG
     12163**LABEL   11978--CALLALT 11986--CALLALT 12000--CALLALT 12008--CALLALT 12037--CALLALT 12045--CALLALT
     12150--CALLALT
BCHARS
        67**DCL     12023>>ASSIGN  12024>>ASSIGN  12025>>ASSIGN  12026>>ASSIGN  12059>>ASSIGN  12060>>ASSIGN
     12061>>ASSIGN  12062>>ASSIGN
CHAR$1
        69**DCL     12127--ASSIGN  12128>>ASSIGN  12149--ASSIGN  12150>>CALLBLT
CONSTOOBIG
     12158**LABEL   11976--GOTO    11984--GOTO    11998--GOTO    12006--GOTO    12018--CALLALT 12035--GOTO
PL6.E3A0      #001=DDS$SDO File=DDS$SDO.:E05TSI                                  TUE 07/29/97 14:21 Page:61
     12043--GOTO    12054--CALLALT
DDS$ED_SRCH
     11905**DCL-ENT 11932--CALL    11935--CALL
DDS$POS_SP
     11903**DCL-ENT 11924--CALL
DDS$SD_SRCH
     11906**DCL-ENT 11931--CALL    11936--CALL
DDS$UD_SRCH
     11904**DCL-ENT 11921--CALL
DECIMAL
     12083**LABEL   11961--GOTO
ED_FOUND
     11944**LABEL   11932--CALLALT 11935--CALLALT
ENTRY$
        60**DCL     11931<>CALL    11932<>CALL    11935<>CALL    11936<>CALL    11944>>ASSIGN  11947>>IF
     11948>>ASSIGN  11949>>ASSIGN
ERROR
        61**DCL     11924<>CALL    11925>>IF
HEX
     12138**LABEL   12069--GOTO
IX
        62**DCL     11977<<DOINDEX 11978>>CALLBLT 11980>>ASSIGN  11985<<DOINDEX 11986>>CALLBLT 11988>>ASSIGN
     11999<<DOINDEX 12000>>CALLBLT 12002>>ASSIGN  12007<<DOINDEX 12008>>CALLBLT 12010>>ASSIGN  12036<<DOINDEX
     12037>>CALLBLT 12039>>ASSIGN  12044<<DOINDEX 12045>>CALLBLT 12047>>ASSIGN  12126<<DOINDEX 12148<<DOINDEX
L6BIT.X
        46**DCL     11983--IF      11988<<ASSIGN
L6HEX.X
        53**DCL     12042--IF      12047<<ASSIGN
L6OCT.X
        49**DCL     12005--IF      12010<<ASSIGN
L6TXT.X
        56**DCL     12023<<ASSIGN  12024<<ASSIGN  12025<<ASSIGN  12026<<ASSIGN  12059<<ASSIGN  12060<<ASSIGN
     12061<<ASSIGN  12062<<ASSIGN
N$
        57**DCL     11909<<ASSIGN  11910>>ASSIGN  11913>>ASSIGN  11960<<ASSIGN  11960>>ASSIGN  11966>>IF
     11967>>ASSIGN  11968>>ASSIGN  11969>>ASSIGN  12083<<ASSIGN  12085>>ASSIGN  12089>>IF      12089>>IF
PL6.E3A0      #001=DDS$SDO File=DDS$SDO.:E05TSI                                  TUE 07/29/97 14:21 Page:62
     12094>>IF      12094>>IF      12101>>CALLBLT 12101>>CALLBLT 12109<<ASSIGN  12111>>IF      12112<<ASSIGN
     12112>>ASSIGN  12113<<ASSIGN  12113>>ASSIGN  12114>>ASSIGN  12127<<ASSIGN  12127>>ASSIGN  12128>>ASSIGN
     12138<<ASSIGN  12140>>IF      12141<<ASSIGN  12141>>ASSIGN  12142<<ASSIGN  12142>>ASSIGN  12143>>ASSIGN
     12149<<ASSIGN  12149>>ASSIGN  12150>>CALLBLT
NCD
        58**DCL     11910<<ASSIGN  11911>>IF      11911>>IF      11922>>IF      11952>>IF      11957>>IF
     11963>>IF      11965<<ASSIGN  11967<<ASSIGN  11971>>DOCASE  12066>>IF
NODE$
        38**DCL        36--PROC    11909>>ASSIGN  12079--ENTRY   12081>>IF      12083>>ASSIGN  12105--ENTRY
     12107>>IF      12109>>ASSIGN  12134--ENTRY   12136>>IF      12138>>ASSIGN
NOTDECERR
     12159**LABEL   12082--GOTO
NOTHEXERR
     12161**LABEL   12137--GOTO
NOTOCTERR
     12160**LABEL   12108--GOTO
OCTAL
     12109**LABEL   11955--GOTO
POB.CODE
      8224**DCL     11910>>ASSIGN  11967>>ASSIGN  12081>>IF      12107>>IF      12136>>IF
POB.NDTYPE
      8219**DCL     12111>>IF      12140>>IF
POB.NSB
      8228**DCL     11966>>IF
POB.SUBLK$
      8249**DCL     11909>>ASSIGN  11913>>ASSIGN  11960>>ASSIGN  11967>>ASSIGN  11968>>ASSIGN  11969>>ASSIGN
     12083>>ASSIGN  12112>>ASSIGN  12113>>ASSIGN  12141>>ASSIGN  12142>>ASSIGN
POS.COUNT
      8285**DCL      8288--IMP-SIZ 11969>>ASSIGN
POS.TEXT
      8288**DCL     11968--ASSIGN
RETN
     12156**LABEL   11921--CALLALT 11924--CALLALT 11945--GOTO    11950--GOTO
SCHARS
        70**DCL     11978>>CALLBLT 11986>>CALLBLT 12000>>CALLBLT 12008>>CALLBLT 12037>>CALLBLT 12045>>CALLBLT
SD_FOUND
PL6.E3A0      #001=DDS$SDO File=DDS$SDO.:E05TSI                                  TUE 07/29/97 14:21 Page:63
     11947**LABEL   11931--CALLALT 11936--CALLALT
SSTR
        71**DCL     12018>>CALLBLT 12054>>CALLBLT
SYM$
        59**DCL        70--IMP-PTR    71--IMP-PTR 11913<<ASSIGN  11921<>CALL    11924<>CALL    11931<>CALL
     11932<>CALL    11935<>CALL    11936<>CALL    11941>>ASSIGN  11968<<ASSIGN  11978>>CALLBLT 11986>>CALLBLT
     12000>>CALLBLT 12008>>CALLBLT 12018>>CALLBLT 12037>>CALLBLT 12045>>CALLBLT 12054>>CALLBLT
S_D.CURRENT_CHANNEL
     11537**DCL     11539--REDEF
S_D.DEBUGA
     10689**DCL     10691--REDEF
S_D.EIS
     11647**DCL     11676--REDEF
S_D.ERROR
     10618**DCL     11916<<ASSIGN  11939<<ASSIGN  11991<<ASSIGN  12013<<ASSIGN  12028<<ASSIGN  12050<<ASSIGN
     12072<<ASSIGN  12098<<ASSIGN  12121<<ASSIGN  12158<<ASSIGN  12159<<ASSIGN  12160<<ASSIGN  12161<<ASSIGN
     12162<<ASSIGN  12163<<ASSIGN
S_D.ERROR_SYM$
     10642**DCL     11941<<ASSIGN
S_D.HOST_MESSAGE_BUF_REMOTE
     11580**DCL     11581--REDEF   11595--REDEF
S_D.JDE
     11194**DCL     11195--REDEF
S_D.L$.VALUE
     10747**DCL     10753--REDEF   10761--REDEF   10764--REDEF   10767--REDEF   10770--REDEF
S_D.L$.VALUE.L
     10748**DCL     10749--REDEF   10750--REDEF
S_D.L6_MESSAGE_BUF
     11601**DCL     11603--REDEF
S_D.ONE_TO_TWO.EXEC_DOMAIN
     11612**DCL     11974>>DOCASE  11996>>DOCASE  12019>>DOCASE  12032>>DOCASE  12055>>DOCASE  12086>>DOCASE
     12115>>DOCASE
S_D.OUTPUT
     11567**DCL     11569--REDEF
S_D.REMOTE_MSG.FNCC
     11586**DCL     11587--REDEF
PL6.E3A0      #001=DDS$SDO File=DDS$SDO.:E05TSI                                  TUE 07/29/97 14:21 Page:64
S_D.REMOTE_MSG.STXC
     11582**DCL     11583--REDEF
S_D.REMOTE_MSG.SUBFNCC
     11590**DCL     11591--REDEF
S_D.SDOB
     11207**DCL     11973<<ASSIGN
S_D.SDOD
     10699**DCL     11959<<ASSIGN
S_D.SDOH
     11107**DCL     12068<<ASSIGN
S_D.SDOO
     10701**DCL     11954<<ASSIGN
S_D.SDOOB
     11209**DCL     11995<<ASSIGN
S_D.SDOS
     10697**DCL     11920<<ASSIGN
S_D.SDOSDEF
     10703**DCL     11929>>IF
S_D.SDOT
     11211**DCL     12017<<ASSIGN
S_D.SIMBLEOK
     10693**DCL     11914>>IF
S_D.SV
     10646**DCL     10667--REDEF
S_D$
     11898**DCL     10594--IMP-PTR 11914>>IF      11916>>ASSIGN  11920>>ASSIGN  11929>>IF      11939>>ASSIGN
     11941>>ASSIGN  11954>>ASSIGN  11959>>ASSIGN  11973>>ASSIGN  11974>>DOCASE  11991>>ASSIGN  11995>>ASSIGN
     11996>>DOCASE  12013>>ASSIGN  12017>>ASSIGN  12019>>DOCASE  12028>>ASSIGN  12032>>DOCASE  12050>>ASSIGN
     12055>>DOCASE  12068>>ASSIGN  12072>>ASSIGN  12086>>DOCASE  12098>>ASSIGN  12115>>DOCASE  12121>>ASSIGN
     12158>>ASSIGN  12159>>ASSIGN  12160>>ASSIGN  12161>>ASSIGN  12162>>ASSIGN  12163>>ASSIGN
T
        40**DCL     12021<<ASSIGN  12057<<ASSIGN
TCHARS
        66**DCL        67--REDEF   12018<<CALLBLT 12021>>ASSIGN  12054<<CALLBLT 12057>>ASSIGN
TEMP
        65**DCL     11978<<CALLBLT 11980>>ASSIGN  11986<<CALLBLT 11988>>ASSIGN  12000<<CALLBLT 12002>>ASSIGN
PL6.E3A0      #001=DDS$SDO File=DDS$SDO.:E05TSI                                  TUE 07/29/97 14:21 Page:65
     12008<<CALLBLT 12010>>ASSIGN  12037<<CALLBLT 12039>>ASSIGN  12045<<CALLBLT 12047>>ASSIGN  12150<<CALLBLT
     12151>>ASSIGN
TEXT$C.SIZE
      1455**DCL      1456--IMP-SIZ 12085>>ASSIGN  12089>>IF      12094>>IF      12101>>CALLBLT 12114>>ASSIGN
     12143>>ASSIGN
TEXT$C.TXT
      1456**DCL     12089>>IF      12094>>IF      12101>>CALLBLT
TOOLARGE
     12162**LABEL   12088--GOTO    12091--GOTO    12093--GOTO    12096--GOTO    12117--GOTO    12119--GOTO
     12145--GOTO
TSIZ
        63**DCL        71--IMP-SIZ 11969<<ASSIGN  11976>>IF      11977>>DOINDEX 11983>>IF      11985>>DOINDEX
     11998>>IF      11999>>DOINDEX 12005>>IF      12007>>DOINDEX 12018>>CALLBLT 12034>>IF      12036>>DOINDEX
     12042>>IF      12044>>DOINDEX 12054>>CALLBLT 12085<<ASSIGN  12088>>IF      12089>>IF      12093>>IF
     12094>>IF      12114<<ASSIGN  12117>>IF      12119>>IF      12126>>DOINDEX 12143<<ASSIGN  12144>>IF
     12148>>DOINDEX
V
        39**DCL        36--PROC       40--REDEF      41--REDEF      42--REDEF      43--REDEF      44--REDEF
        47--REDEF      51--REDEF      54--REDEF   11921<>CALL    11924<>CALL    11944<<ASSIGN  11948<<ASSIGN
     11949<<ASSIGN  11970<<ASSIGN  11976--IF      11998--IF      12034--IF      12079--ENTRY   12101<<CALLBLT
     12105--ENTRY   12130<<ASSIGN  12134--ENTRY   12153<<ASSIGN
VBIT
        41**DCL     11980<<ASSIGN
VHEX
        43**DCL     12039<<ASSIGN
VOCT
        42**DCL     12002<<ASSIGN
XCHARS
        72**DCL     12037>>CALLBLT 12045>>CALLBLT 12150>>CALLBLT
PL6.E3A0      #001=DDS$SDO File=DDS$SDO.:E05TSI                                  TUE 07/29/97 14:21 Page:66
              *** CROSS REFERENCE LISTING ***
    **     DENOTES     IDENTIFIER DEFINITION
    <<                 IDENTIFIER'S VALUE SET
    >>                 IDENTIFIER'S VALUE USED
    <>                 IDENTIFIER SET AND/OR USED
    --                 IDENTIFIER REFERENCED
PL6.E3A0      #001=DDS$SDO File=DDS$SDO.:E05TSI                                  TUE 07/29/97 14:21 Page:67
              MINI UREF LISTING

C      68**DCL
DDS$DECIMAL   12079**ENTRY
DDS$HEX   12134**ENTRY
DDS$OCTAL   12105**ENTRY
DDS$SDO      36**PROC
