VERSION E05

PL6.E3A0      #001=DDS$SET_D2Q File=DDS$SET_D2Q.:E05TSI                          TUE 07/29/97 14:22 Page:1
        1        1        /*M* DDS$SET_D2Q - Routines to establish default schema access */
        2        2        /*T***********************************************************/
        3        3        /*T*                                                         */
        4        4        /*T* Copyright (c) Bull HN Information Systems Inc., 1997    */
        5        5        /*T*                                                         */
        6        6        /*T***********************************************************/
        7        7        /*F* NAME: DDS$SET_D2Q
        8        8             PURPOSE: To house a set of routines that establish the schema, given
        9        9                      a previously established schema.
       10       10             DESCRIPTION: Each routine copies the specified schema frame to the
       11       11                          specified schema frame. Those routines that copy to "Q"
       12       12                          also cause the in memory schema access to be setup by
       13       13                          calling DDS$GETQSCH. */
       14       14        /*D* NAME: DDS$SET_D2Q */
       15       15                                                /**/
       16       16        DDS$SET_D2Q: PROC ALTRET;
       17       17                                                /**/
       18       18        /*D* The structure QSCH must be identical to S_D.QSCH */
       19       19    1   DCL 1 QSCH,
       20       20    1        2 OK BIT(1) ALIGNED,
       21       21    1        2 PEDEF# UBIN,
       22       22    1        2 NODE UBIN,
       23       23    1        2 NPOINTER UBIN,
       24       24    1        2 IC UBIN,
       25       25    1        2 LB# UBIN,
       26       26    1        2 PTR$ PTR;
       27       27    1   DCL NODE$ PTR;
       28       28        %INCLUDE DD$BASED;
       29     1331        %INCLUDE XUH_MACRO_C;
       30     1415        %INCLUDE DD_SD_M;
       31     2751        %S_D;
       32     4069        %DU$NODE;
       33     4079    1   DCL D_XDELTA BIT(1) ALIGNED SYMREF;
       34     4080    1   DCL DDS$GETQSCH ENTRY ALTRET;
       35     4081                                                /**/
       36     4082    1        IF S_D.QSCH = S_D.DSCH
       37     4083    1        THEN RETURN;
PL6.E3A0      #001=DDS$SET_D2Q File=DDS$SET_D2Q.:E05TSI                          TUE 07/29/97 14:22 Page:2
       38     4084    1        QSCH = S_D.QSCH;
       39     4085    1        S_D.QSCH = S_D.DSCH;
       40     4086    1        GOTO COMMON;
       41     4087                                                /**/
       42     4088    1   DDS$SET_C2Q: ENTRY ALTRET;
       43     4089                                                /**/
       44     4090    1        IF S_D.QSCH = S_D.SCH
       45     4091    1        THEN RETURN;
       46     4092    1        QSCH = S_D.QSCH;
       47     4093    1        S_D.QSCH = S_D.SCH;
       48     4094    1        GOTO COMMON;
       49     4095                                                /**/
       50     4096    1   DDS$SET_T2Q: ENTRY ALTRET;
       51     4097                                                /**/
       52     4098    1        IF S_D.QSCH = S_D.TSCH
       53     4099    1        THEN RETURN;
       54     4100    1        QSCH = S_D.QSCH;
       55     4101    1        S_D.QSCH = S_D.TSCH;
       56     4102    1        GOTO COMMON;
       57     4103                                                /**/
       58     4104    1   DDS$SET_X2Q: ENTRY ALTRET;
       59     4105                                                /**/
       60     4106    1        IF S_D.QSCH = S_D.XSCH
       61     4107    1        THEN RETURN;
       62     4108    1        QSCH = S_D.QSCH;
       63     4109    1        S_D.QSCH = S_D.XSCH;
       64     4110        /****GOTO COMMON;****/
       65     4111    1   COMMON: ;
       66     4112    1        IF S_D.QSCH.OK
       67     4113    2        THEN DO;
       68     4114    2             S_D.NODE = S_D.QSCH.NODE;
       69     4115    3             IF S_D.OVERLAID AND NOT D_XDELTA THEN DO;
       70     4116    3                NODE$ = PINCRW(S_D.NODESEG$, SIZEW(DU$NODE) * S_D.NODE);
       71     4117    3                S_D.EDEF$ = NODE$->DU$NODE.EDEF$;
       72     4118    3                S_D.EDEF_END$ = NODE$->DU$NODE.EDEF_END$;
       73     4119    3                S_D.SDEF$ = NODE$->DU$NODE.SDEF$;
       74     4120    3                S_D.SDEF_END$ = NODE$->DU$NODE.SDEF_END$;
PL6.E3A0      #001=DDS$SET_D2Q File=DDS$SET_D2Q.:E05TSI                          TUE 07/29/97 14:22 Page:3
       75     4121    3                S_D.DNAME$ = NODE$->DU$NODE.DNAME$;
       76     4122    3                END;
       77     4123    2             IF ( QSCH.OK ) AND
       78     4124    2                ( S_D.QSCH.NODE = QSCH.NODE ) AND
       79     4125    2                ( S_D.QSCH.PEDEF# = QSCH.PEDEF# )
       80     4126    2             THEN RETURN;
       81     4127    2             CALL DDS$GETQSCH ALTRET( ARET );
       82     4128    2             END;
       83     4129                                                /**/
       84     4130    1        RETURN;
       85     4131                                                /**/
       86     4132    1   ARET:
       87     4133    1        ALTRETURN;
       88     4134                                                /**/
       89     4135    1   DDS$SET_Q2C: ENTRY ALTRET;
       90     4136                                                /**/
       91     4137    1        S_D.SCH = S_D.QSCH;
       92     4138    1        RETURN;
       93     4139                                                /**/
       94     4140    1   DDS$SET_Q2D: ENTRY ALTRET;
       95     4141                                                /**/
       96     4142    1        S_D.DSCH = S_D.QSCH;
       97     4143    1        RETURN;
       98     4144                                                /**/
       99     4145    1   DDS$SET_Q2T: ENTRY ALTRET;
      100     4146                                                /**/
      101     4147    1        S_D.TSCH = S_D.QSCH;
      102     4148    1        RETURN;
      103     4149                                                /**/
      104     4150    1   DDS$SET_Q2X: ENTRY ALTRET;
      105     4151                                                /**/
      106     4152    1        S_D.XSCH = S_D.QSCH;
      107     4153    1        RETURN;
      108     4154                                                /**/
      109     4155    1   DDS$SET_Q2MX: ENTRY ALTRET;
      110     4156                                                /**/
      111     4157    1        S_D.MXSCH = S_D.QSCH;
PL6.E3A0      #001=DDS$SET_D2Q File=DDS$SET_D2Q.:E05TSI                          TUE 07/29/97 14:22 Page:4
      112     4158    1        RETURN;
      113     4159                                                /**/
      114     4160    1   DDS$SET_Q2AX: ENTRY ALTRET;
      115     4161                                                /**/
      116     4162    1        S_D.AXSCH = S_D.QSCH;
      117     4163    1        RETURN;
      118     4164                                                /**/
      119     4165    1   DDS$SET_MX2X: ENTRY ALTRET;
      120     4166                                                /**/
      121     4167    1        S_D.XSCH = S_D.MXSCH;
      122     4168    1        RETURN;
      123     4169                                                /**/
      124     4170    1   DDS$SET_AX2X: ENTRY ALTRET;
      125     4171                                                /**/
      126     4172    1        S_D.XSCH = S_D.AXSCH;
      127     4173    1        RETURN;
      128     4174                                                /**/
      129     4175    1   DDS$SET_C2D: ENTRY ALTRET;
      130     4176                                                /**/
      131     4177    1        S_D.DSCH = S_D.SCH;
      132     4178    1        RETURN;
      133     4179                                                /**/
      134     4180    1   END DDS$SET_D2Q;

PL6.E3A0      #001=DDS$SET_D2Q File=DDS$SET_D2Q.:E05TSI                          TUE 07/29/97 14:22 Page:5
--  Include file information  --

   DD_SD_M.:E05TOU  is referenced.
   XUH_MACRO_C.:E05TOU  is referenced.
   DD$BASED.:E05TOU  is referenced.
   B$JIT_C.:E05TOU  was found in the system file and is never referenced.
   CP_6_C.:E05TOU  was found in the system file and is never referenced.
      No diagnostics issued in procedure DDS$SET_D2Q.

   Procedure DDS$SET_D2Q requires 161 words for executable code.
   Procedure DDS$SET_D2Q requires 12 words of local(AUTO) storage.

    No errors detected in file DDS$SET_D2Q.:E05TSI    .

PL6.E3A0      #001=DDS$SET_D2Q File=DDS$SET_D2Q.:E05TSI                          TUE 07/29/97 14:22 Page:6

 Object Unit name= DDS$SET_D2Q                                File name= DDS$SET_D2Q.:E05TOU
 UTS= JUL 29 '97 14:22:00.96 TUE                              Compiler= PL-6/E31         Sev=      00
 SharedLib= :SHARED_SYSTEM                                    Alt SharedLib=


    ****  Control sections  ****

 Sect   Type Bound  Init  Size OctSiz  Section name(segment info)
    0   Proc  even  none   161    241  DDS$SET_D2Q

    ****  Entry defs  ****

                              Check   Calling
                             calling  sequence
  Sect OctLoc Primary Altret sequence   type   Parms  Name
     0      0   yes    yes     yes      Std        0  DDS$SET_D2Q
     0     17          yes     yes      Std        0  DDS$SET_C2Q
     0     36          yes     yes      Std        0  DDS$SET_T2Q
     0     55          yes     yes      Std        0  DDS$SET_X2Q
     0    142          yes     yes      Std        0  DDS$SET_Q2C
     0    151          yes     yes      Std        0  DDS$SET_Q2D
     0    160          yes     yes      Std        0  DDS$SET_Q2T
     0    167          yes     yes      Std        0  DDS$SET_Q2X
     0    176          yes     yes      Std        0  DDS$SET_Q2MX
     0    205          yes     yes      Std        0  DDS$SET_Q2AX
     0    214          yes     yes      Std        0  DDS$SET_MX2X
     0    223          yes     yes      Std        0  DDS$SET_AX2X
     0    232          yes     yes      Std        0  DDS$SET_C2D
PL6.E3A0      #001=DDS$SET_D2Q File=DDS$SET_D2Q.:E05TSI                          TUE 07/29/97 14:22 Page:7

  ****  Entry refs  ****

         Check        Calling
        calling       sequence
Altret sequence SRef   type   Args  Name
 yes     yes           Std       0 DDS$GETQSCH
                       nStd      0 X66_AUTO_0
                       nStd      0 X66_ARET
                       Std       0 B_CONSPOOL_D
                       nStd      0 X66_AALT

  ****  Data refs  ****

  Flags:  r = read only, s = secondary
Flgs Name                             Flgs Name                             Flgs Name
r    S_D$                                  D_XDELTA                              B_VECTNIL
PL6.E3A0      #001=DDS$SET_D2Q File=DDS$SET_D2Q.:E05TSI                          TUE 07/29/97 14:22 Page:8


        1        1        /*M* DDS$SET_D2Q - Routines to establish default schema access */
        2        2        /*T***********************************************************/
        3        3        /*T*                                                         */
        4        4        /*T* Copyright (c) Bull HN Information Systems Inc., 1997    */
        5        5        /*T*                                                         */
        6        6        /*T***********************************************************/
        7        7        /*F* NAME: DDS$SET_D2Q
        8        8             PURPOSE: To house a set of routines that establish the schema, given
        9        9                      a previously established schema.
       10       10             DESCRIPTION: Each routine copies the specified schema frame to the
       11       11                          specified schema frame. Those routines that copy to "Q"
       12       12                          also cause the in memory schema access to be setup by
       13       13                          calling DDS$GETQSCH. */
       14       14        /*D* NAME: DDS$SET_D2Q */
       15       15                                                /**/
       16       16        DDS$SET_D2Q: PROC ALTRET;

     16  0 000000   000000 700200 xent  DDS$SET_D2Q  TSX0  ! X66_AUTO_0
         0 000001   000014 000000                    ZERO    12,0

       17       17                                                /**/
       18       18        /*D* The structure QSCH must be identical to S_D.QSCH */
       19       19    1   DCL 1 QSCH,
       20       20    1        2 OK BIT(1) ALIGNED,
       21       21    1        2 PEDEF# UBIN,
       22       22    1        2 NODE UBIN,
       23       23    1        2 NPOINTER UBIN,
       24       24    1        2 IC UBIN,
       25       25    1        2 LB# UBIN,
       26       26    1        2 PTR$ PTR;
       27       27    1   DCL NODE$ PTR;
       28       28        %INCLUDE DD$BASED;
       29     1331        %INCLUDE XUH_MACRO_C;
       30     1415        %INCLUDE DD_SD_M;
       31     2751        %S_D;
       32     4069        %DU$NODE;
PL6.E3A0      #001=DDS$SET_D2Q File=DDS$SET_D2Q.:E05TSI                          TUE 07/29/97 14:22 Page:9
       33     4079    1   DCL D_XDELTA BIT(1) ALIGNED SYMREF;
       34     4080    1   DCL DDS$GETQSCH ENTRY ALTRET;
       35     4081                                                /**/
       36     4082    1        IF S_D.QSCH = S_D.DSCH

   4082  0 000002   000000 470400 xsym               LDP0    S_D$
         0 000003   000100 106500                    CMPC    fill='000'O
         0 000004   000733 000034                    ADSC9   475,,PR0                 cn=0,n=28
         0 000005   000742 000034                    ADSC9   482,,PR0                 cn=0,n=28
         0 000006   000010 601000 0                  TNZ     s:4084

       37     4083    1        THEN RETURN;

   4083  0 000007   000000 702200 xent               TSX2  ! X66_ARET

       38     4084    1        QSCH = S_D.QSCH;

   4084  0 000010   000100 100500                    MLR     fill='000'O
         0 000011   000733 000034                    ADSC9   475,,PR0                 cn=0,n=28
         0 000012   200003 000034                    ADSC9   QSCH,,AUTO               cn=0,n=28

       39     4085    1        S_D.QSCH = S_D.DSCH;

   4085  0 000013   000100 100500                    MLR     fill='000'O
         0 000014   000742 000034                    ADSC9   482,,PR0                 cn=0,n=28
         0 000015   000733 000034                    ADSC9   475,,PR0                 cn=0,n=28

       40     4086    1        GOTO COMMON;

   4086  0 000016   000073 710000 0                  TRA     COMMON

       41     4087                                                /**/
       42     4088    1   DDS$SET_C2Q: ENTRY ALTRET;

   4088  0 000017   000000 700200 xent  DDS$SET_C2Q  TSX0  ! X66_AUTO_0
         0 000020   000014 000000                    ZERO    12,0

PL6.E3A0      #001=DDS$SET_D2Q File=DDS$SET_D2Q.:E05TSI                          TUE 07/29/97 14:22 Page:10
       43     4089                                                /**/
       44     4090    1        IF S_D.QSCH = S_D.SCH

   4090  0 000021   000000 470400 xsym               LDP0    S_D$
         0 000022   000100 106500                    CMPC    fill='000'O
         0 000023   000733 000034                    ADSC9   475,,PR0                 cn=0,n=28
         0 000024   000724 000034                    ADSC9   468,,PR0                 cn=0,n=28
         0 000025   000027 601000 0                  TNZ     s:4092

       45     4091    1        THEN RETURN;

   4091  0 000026   000000 702200 xent               TSX2  ! X66_ARET

       46     4092    1        QSCH = S_D.QSCH;

   4092  0 000027   000100 100500                    MLR     fill='000'O
         0 000030   000733 000034                    ADSC9   475,,PR0                 cn=0,n=28
         0 000031   200003 000034                    ADSC9   QSCH,,AUTO               cn=0,n=28

       47     4093    1        S_D.QSCH = S_D.SCH;

   4093  0 000032   000100 100500                    MLR     fill='000'O
         0 000033   000724 000034                    ADSC9   468,,PR0                 cn=0,n=28
         0 000034   000733 000034                    ADSC9   475,,PR0                 cn=0,n=28

       48     4094    1        GOTO COMMON;

   4094  0 000035   000073 710000 0                  TRA     COMMON

       49     4095                                                /**/
       50     4096    1   DDS$SET_T2Q: ENTRY ALTRET;

   4096  0 000036   000000 700200 xent  DDS$SET_T2Q  TSX0  ! X66_AUTO_0
         0 000037   000014 000000                    ZERO    12,0

       51     4097                                                /**/
       52     4098    1        IF S_D.QSCH = S_D.TSCH
PL6.E3A0      #001=DDS$SET_D2Q File=DDS$SET_D2Q.:E05TSI                          TUE 07/29/97 14:22 Page:11

   4098  0 000040   000000 470400 xsym               LDP0    S_D$
         0 000041   000100 106500                    CMPC    fill='000'O
         0 000042   000733 000034                    ADSC9   475,,PR0                 cn=0,n=28
         0 000043   000760 000034                    ADSC9   496,,PR0                 cn=0,n=28
         0 000044   000046 601000 0                  TNZ     s:4100

       53     4099    1        THEN RETURN;

   4099  0 000045   000000 702200 xent               TSX2  ! X66_ARET

       54     4100    1        QSCH = S_D.QSCH;

   4100  0 000046   000100 100500                    MLR     fill='000'O
         0 000047   000733 000034                    ADSC9   475,,PR0                 cn=0,n=28
         0 000050   200003 000034                    ADSC9   QSCH,,AUTO               cn=0,n=28

       55     4101    1        S_D.QSCH = S_D.TSCH;

   4101  0 000051   000100 100500                    MLR     fill='000'O
         0 000052   000760 000034                    ADSC9   496,,PR0                 cn=0,n=28
         0 000053   000733 000034                    ADSC9   475,,PR0                 cn=0,n=28

       56     4102    1        GOTO COMMON;

   4102  0 000054   000073 710000 0                  TRA     COMMON

       57     4103                                                /**/
       58     4104    1   DDS$SET_X2Q: ENTRY ALTRET;

   4104  0 000055   000000 700200 xent  DDS$SET_X2Q  TSX0  ! X66_AUTO_0
         0 000056   000014 000000                    ZERO    12,0

       59     4105                                                /**/
       60     4106    1        IF S_D.QSCH = S_D.XSCH

   4106  0 000057   000000 470400 xsym               LDP0    S_D$
PL6.E3A0      #001=DDS$SET_D2Q File=DDS$SET_D2Q.:E05TSI                          TUE 07/29/97 14:22 Page:12
         0 000060   000100 106500                    CMPC    fill='000'O
         0 000061   000733 000034                    ADSC9   475,,PR0                 cn=0,n=28
         0 000062   000751 000034                    ADSC9   489,,PR0                 cn=0,n=28
         0 000063   000065 601000 0                  TNZ     s:4108

       61     4107    1        THEN RETURN;

   4107  0 000064   000000 702200 xent               TSX2  ! X66_ARET

       62     4108    1        QSCH = S_D.QSCH;

   4108  0 000065   000100 100500                    MLR     fill='000'O
         0 000066   000733 000034                    ADSC9   475,,PR0                 cn=0,n=28
         0 000067   200003 000034                    ADSC9   QSCH,,AUTO               cn=0,n=28

       63     4109    1        S_D.QSCH = S_D.XSCH;

   4109  0 000070   000100 100500                    MLR     fill='000'O
         0 000071   000751 000034                    ADSC9   489,,PR0                 cn=0,n=28
         0 000072   000733 000034                    ADSC9   475,,PR0                 cn=0,n=28

   4109  0 000073                       COMMON       null
       64     4110        /****GOTO COMMON;****/
       65     4111    1   COMMON: ;
       66     4112    1        IF S_D.QSCH.OK

   4112  0 000073   000733 234100                    SZN     475,,PR0
         0 000074   000140 605000 0                  TPL     s:4130

       67     4113    2        THEN DO;

       68     4114    2             S_D.NODE = S_D.QSCH.NODE;

   4114  0 000075   000735 235100                    LDA     477,,PR0
         0 000076   004706 755100                    STA     2502,,PR0

       69     4115    3             IF S_D.OVERLAID AND NOT D_XDELTA THEN DO;
PL6.E3A0      #001=DDS$SET_D2Q File=DDS$SET_D2Q.:E05TSI                          TUE 07/29/97 14:22 Page:13

   4115  0 000077   004764 234100                    SZN     2548,,PR0
         0 000100   000124 605000 0                  TPL     s:4123
         0 000101   000000 234000 xsym               SZN     D_XDELTA
         0 000102   000124 604000 0                  TMI     s:4123

       70     4116    3                NODE$ = PINCRW(S_D.NODESEG$, SIZEW(DU$NODE) * S_D.NODE);

   4116  0 000103   004706 720100                    LXL0    2502,,PR0
         0 000104   005003 471500                    LDP1    2563,,PR0
         0 000105   000000 636010                    EAQ     0,X0
         0 000106   000022 772000                    QRL     18
         0 000107   000007 402007                    MPY     7,DL
         0 000110   100000 633506                    EPPR3   0,QL,PR1
         0 000111   200012 453500                    STP3    NODE$,,AUTO

       71     4117    3                S_D.EDEF$ = NODE$->DU$NODE.EDEF$;

   4117  0 000112   300002 236100                    LDQ     2,,PR3
         0 000113   001042 756100                    STQ     546,,PR0

       72     4118    3                S_D.EDEF_END$ = NODE$->DU$NODE.EDEF_END$;

   4118  0 000114   300003 236100                    LDQ     3,,PR3
         0 000115   001044 756100                    STQ     548,,PR0

       73     4119    3                S_D.SDEF$ = NODE$->DU$NODE.SDEF$;

   4119  0 000116   300004 236100                    LDQ     4,,PR3
         0 000117   001043 756100                    STQ     547,,PR0

       74     4120    3                S_D.SDEF_END$ = NODE$->DU$NODE.SDEF_END$;

   4120  0 000120   300005 236100                    LDQ     5,,PR3
         0 000121   001045 756100                    STQ     549,,PR0

       75     4121    3                S_D.DNAME$ = NODE$->DU$NODE.DNAME$;
PL6.E3A0      #001=DDS$SET_D2Q File=DDS$SET_D2Q.:E05TSI                          TUE 07/29/97 14:22 Page:14

   4121  0 000122   300006 236100                    LDQ     6,,PR3
         0 000123   001041 756100                    STQ     545,,PR0

       76     4122    3                END;

       77     4123    2             IF ( QSCH.OK ) AND

   4123  0 000124   200003 234100                    SZN     QSCH,,AUTO
         0 000125   000135 605000 0                  TPL     s:4127
         0 000126   000735 236100                    LDQ     477,,PR0
         0 000127   200005 116100                    CMPQ    QSCH+2,,AUTO
         0 000130   000135 601000 0                  TNZ     s:4127
         0 000131   000734 236100                    LDQ     476,,PR0
         0 000132   200004 116100                    CMPQ    QSCH+1,,AUTO
         0 000133   000135 601000 0                  TNZ     s:4127

       78     4124    2                ( S_D.QSCH.NODE = QSCH.NODE ) AND
       79     4125    2                ( S_D.QSCH.PEDEF# = QSCH.PEDEF# )
       80     4126    2             THEN RETURN;

   4126  0 000134   000000 702200 xent               TSX2  ! X66_ARET

       81     4127    2             CALL DDS$GETQSCH ALTRET( ARET );

   4127  0 000135   000002 631400 xsym               EPPR1   B_VECTNIL+2
         0 000136   000000 701000 xent               TSX1    DDS$GETQSCH
         0 000137   000141 702000 0                  TSX2    ARET

       82     4128    2             END;

       83     4129                                                /**/
       84     4130    1        RETURN;

   4130  0 000140   000000 702200 xent               TSX2  ! X66_ARET

       85     4131                                                /**/
PL6.E3A0      #001=DDS$SET_D2Q File=DDS$SET_D2Q.:E05TSI                          TUE 07/29/97 14:22 Page:15
       86     4132    1   ARET:
       87     4133    1        ALTRETURN;

   4133  0 000141   000000 702200 xent  ARET         TSX2  ! X66_AALT

       88     4134                                                /**/
       89     4135    1   DDS$SET_Q2C: ENTRY ALTRET;

   4135  0 000142   000000 700200 xent  DDS$SET_Q2C  TSX0  ! X66_AUTO_0
         0 000143   000014 000000                    ZERO    12,0

       90     4136                                                /**/
       91     4137    1        S_D.SCH = S_D.QSCH;

   4137  0 000144   000000 470400 xsym               LDP0    S_D$
         0 000145   000100 100500                    MLR     fill='000'O
         0 000146   000733 000034                    ADSC9   475,,PR0                 cn=0,n=28
         0 000147   000724 000034                    ADSC9   468,,PR0                 cn=0,n=28

       92     4138    1        RETURN;

   4138  0 000150   000000 702200 xent               TSX2  ! X66_ARET

       93     4139                                                /**/
       94     4140    1   DDS$SET_Q2D: ENTRY ALTRET;

   4140  0 000151   000000 700200 xent  DDS$SET_Q2D  TSX0  ! X66_AUTO_0
         0 000152   000014 000000                    ZERO    12,0

       95     4141                                                /**/
       96     4142    1        S_D.DSCH = S_D.QSCH;

   4142  0 000153   000000 470400 xsym               LDP0    S_D$
         0 000154   000100 100500                    MLR     fill='000'O
         0 000155   000733 000034                    ADSC9   475,,PR0                 cn=0,n=28
         0 000156   000742 000034                    ADSC9   482,,PR0                 cn=0,n=28

PL6.E3A0      #001=DDS$SET_D2Q File=DDS$SET_D2Q.:E05TSI                          TUE 07/29/97 14:22 Page:16
       97     4143    1        RETURN;

   4143  0 000157   000000 702200 xent               TSX2  ! X66_ARET

       98     4144                                                /**/
       99     4145    1   DDS$SET_Q2T: ENTRY ALTRET;

   4145  0 000160   000000 700200 xent  DDS$SET_Q2T  TSX0  ! X66_AUTO_0
         0 000161   000014 000000                    ZERO    12,0

      100     4146                                                /**/
      101     4147    1        S_D.TSCH = S_D.QSCH;

   4147  0 000162   000000 470400 xsym               LDP0    S_D$
         0 000163   000100 100500                    MLR     fill='000'O
         0 000164   000733 000034                    ADSC9   475,,PR0                 cn=0,n=28
         0 000165   000760 000034                    ADSC9   496,,PR0                 cn=0,n=28

      102     4148    1        RETURN;

   4148  0 000166   000000 702200 xent               TSX2  ! X66_ARET

      103     4149                                                /**/
      104     4150    1   DDS$SET_Q2X: ENTRY ALTRET;

   4150  0 000167   000000 700200 xent  DDS$SET_Q2X  TSX0  ! X66_AUTO_0
         0 000170   000014 000000                    ZERO    12,0

      105     4151                                                /**/
      106     4152    1        S_D.XSCH = S_D.QSCH;

   4152  0 000171   000000 470400 xsym               LDP0    S_D$
         0 000172   000100 100500                    MLR     fill='000'O
         0 000173   000733 000034                    ADSC9   475,,PR0                 cn=0,n=28
         0 000174   000751 000034                    ADSC9   489,,PR0                 cn=0,n=28

      107     4153    1        RETURN;
PL6.E3A0      #001=DDS$SET_D2Q File=DDS$SET_D2Q.:E05TSI                          TUE 07/29/97 14:22 Page:17

   4153  0 000175   000000 702200 xent               TSX2  ! X66_ARET

      108     4154                                                /**/
      109     4155    1   DDS$SET_Q2MX: ENTRY ALTRET;

   4155  0 000176   000000 700200 xent  DDS$SET_Q2MX TSX0  ! X66_AUTO_0
         0 000177   000014 000000                    ZERO    12,0

      110     4156                                                /**/
      111     4157    1        S_D.MXSCH = S_D.QSCH;

   4157  0 000200   000000 470400 xsym               LDP0    S_D$
         0 000201   000100 100500                    MLR     fill='000'O
         0 000202   000733 000034                    ADSC9   475,,PR0                 cn=0,n=28
         0 000203   000767 000034                    ADSC9   503,,PR0                 cn=0,n=28

      112     4158    1        RETURN;

   4158  0 000204   000000 702200 xent               TSX2  ! X66_ARET

      113     4159                                                /**/
      114     4160    1   DDS$SET_Q2AX: ENTRY ALTRET;

   4160  0 000205   000000 700200 xent  DDS$SET_Q2AX TSX0  ! X66_AUTO_0
         0 000206   000014 000000                    ZERO    12,0

      115     4161                                                /**/
      116     4162    1        S_D.AXSCH = S_D.QSCH;

   4162  0 000207   000000 470400 xsym               LDP0    S_D$
         0 000210   000100 100500                    MLR     fill='000'O
         0 000211   000733 000034                    ADSC9   475,,PR0                 cn=0,n=28
         0 000212   000776 000034                    ADSC9   510,,PR0                 cn=0,n=28

      117     4163    1        RETURN;

PL6.E3A0      #001=DDS$SET_D2Q File=DDS$SET_D2Q.:E05TSI                          TUE 07/29/97 14:22 Page:18
   4163  0 000213   000000 702200 xent               TSX2  ! X66_ARET

      118     4164                                                /**/
      119     4165    1   DDS$SET_MX2X: ENTRY ALTRET;

   4165  0 000214   000000 700200 xent  DDS$SET_MX2X TSX0  ! X66_AUTO_0
         0 000215   000014 000000                    ZERO    12,0

      120     4166                                                /**/
      121     4167    1        S_D.XSCH = S_D.MXSCH;

   4167  0 000216   000000 470400 xsym               LDP0    S_D$
         0 000217   000100 100500                    MLR     fill='000'O
         0 000220   000767 000034                    ADSC9   503,,PR0                 cn=0,n=28
         0 000221   000751 000034                    ADSC9   489,,PR0                 cn=0,n=28

      122     4168    1        RETURN;

   4168  0 000222   000000 702200 xent               TSX2  ! X66_ARET

      123     4169                                                /**/
      124     4170    1   DDS$SET_AX2X: ENTRY ALTRET;

   4170  0 000223   000000 700200 xent  DDS$SET_AX2X TSX0  ! X66_AUTO_0
         0 000224   000014 000000                    ZERO    12,0

      125     4171                                                /**/
      126     4172    1        S_D.XSCH = S_D.AXSCH;

   4172  0 000225   000000 470400 xsym               LDP0    S_D$
         0 000226   000100 100500                    MLR     fill='000'O
         0 000227   000776 000034                    ADSC9   510,,PR0                 cn=0,n=28
         0 000230   000751 000034                    ADSC9   489,,PR0                 cn=0,n=28

      127     4173    1        RETURN;

   4173  0 000231   000000 702200 xent               TSX2  ! X66_ARET
PL6.E3A0      #001=DDS$SET_D2Q File=DDS$SET_D2Q.:E05TSI                          TUE 07/29/97 14:22 Page:19

      128     4174                                                /**/
      129     4175    1   DDS$SET_C2D: ENTRY ALTRET;

   4175  0 000232   000000 700200 xent  DDS$SET_C2D  TSX0  ! X66_AUTO_0
         0 000233   000014 000000                    ZERO    12,0

      130     4176                                                /**/
      131     4177    1        S_D.DSCH = S_D.SCH;

   4177  0 000234   000000 470400 xsym               LDP0    S_D$
         0 000235   000100 100500                    MLR     fill='000'O
         0 000236   000724 000034                    ADSC9   468,,PR0                 cn=0,n=28
         0 000237   000742 000034                    ADSC9   482,,PR0                 cn=0,n=28

      132     4178    1        RETURN;

   4178  0 000240   000000 702200 xent               TSX2  ! X66_ARET
      133     4179                                                /**/
      134     4180    1   END DDS$SET_D2Q;

PL6.E3A0      #001=DDS$SET_D2Q File=DDS$SET_D2Q.:E05TSI                          TUE 07/29/97 14:22 Page:20
--  Include file information  --

   DD_SD_M.:E05TOU  is referenced.
   XUH_MACRO_C.:E05TOU  is referenced.
   DD$BASED.:E05TOU  is referenced.
   B$JIT_C.:E05TOU  was found in the system file and is never referenced.
   CP_6_C.:E05TOU  was found in the system file and is never referenced.
      No diagnostics issued in procedure DDS$SET_D2Q.

   Procedure DDS$SET_D2Q requires 161 words for executable code.
   Procedure DDS$SET_D2Q requires 12 words of local(AUTO) storage.

    No errors detected in file DDS$SET_D2Q.:E05TSI    .
PL6.E3A0      #001=DDS$SET_D2Q File=DDS$SET_D2Q.:E05TSI                          TUE 07/29/97 14:22 Page:21
          *** CROSS REFERENCE LISTING ***
**     DENOTES     IDENTIFIER DEFINITION
<<                 IDENTIFIER'S VALUE SET
>>                 IDENTIFIER'S VALUE USED
<>                 IDENTIFIER SET AND/OR USED
--                 IDENTIFIER REFERENCED
PL6.E3A0      #001=DDS$SET_D2Q File=DDS$SET_D2Q.:E05TSI                          TUE 07/29/97 14:22 Page:22
          MINI XREF LISTING

ARET
      4133**LABEL    4127--CALLALT
COMMON
      4109**LABEL    4086--GOTO     4094--GOTO     4102--GOTO
DDS$GETQSCH
      4080**DCL-ENT  4127--CALL
DU$NODE
      4070**DCL      4116--ASSIGN
DU$NODE.DNAME$
      4077**DCL      4121>>ASSIGN
DU$NODE.EDEF$
      4073**DCL      4117>>ASSIGN
DU$NODE.EDEF_END$
      4074**DCL      4118>>ASSIGN
DU$NODE.SDEF$
      4075**DCL      4119>>ASSIGN
DU$NODE.SDEF_END$
      4076**DCL      4120>>ASSIGN
D_XDELTA
      4079**DCL      4115>>IF
NODE$
        27**DCL      4116<<ASSIGN   4117>>ASSIGN   4118>>ASSIGN   4119>>ASSIGN   4120>>ASSIGN   4121>>ASSIGN
QSCH
        19**DCL      4084<<ASSIGN   4092<<ASSIGN   4100<<ASSIGN   4108<<ASSIGN
QSCH.NODE
        22**DCL      4123>>IF
QSCH.OK
        20**DCL      4123>>IF
QSCH.PEDEF#
        21**DCL      4123>>IF
S_D.AXSCH
      3137**DCL      4162<<ASSIGN   4172>>ASSIGN
PL6.E3A0      #001=DDS$SET_D2Q File=DDS$SET_D2Q.:E05TSI                          TUE 07/29/97 14:22 Page:23
S_D.CURRENT_CHANNEL
      3703**DCL      3705--REDEF
S_D.DEBUGA
      2855**DCL      2857--REDEF
S_D.DNAME$
      3197**DCL      4121<<ASSIGN
S_D.DSCH
      3073**DCL      4082>>IF       4085>>ASSIGN   4142<<ASSIGN   4177<<ASSIGN
S_D.EDEF$
      3199**DCL      4117<<ASSIGN
S_D.EDEF_END$
      3203**DCL      4118<<ASSIGN
S_D.EIS
      3813**DCL      3842--REDEF
S_D.HOST_MESSAGE_BUF_REMOTE
      3746**DCL      3747--REDEF    3761--REDEF
S_D.JDE
      3360**DCL      3361--REDEF
S_D.L$.VALUE
      2913**DCL      2919--REDEF    2927--REDEF    2930--REDEF    2933--REDEF    2936--REDEF
S_D.L$.VALUE.L
      2914**DCL      2915--REDEF    2916--REDEF
S_D.L6_MESSAGE_BUF
      3767**DCL      3769--REDEF
S_D.MXSCH
      3121**DCL      4157<<ASSIGN   4167>>ASSIGN
S_D.NODE
      3312**DCL      4114<<ASSIGN   4116>>ASSIGN
S_D.NODESEG$
      3447**DCL      4116>>ASSIGN
S_D.OUTPUT
      3733**DCL      3735--REDEF
S_D.OVERLAID
      3417**DCL      4115>>IF
S_D.QSCH
      3057**DCL      4082>>IF       4084>>ASSIGN   4085<<ASSIGN   4090>>IF       4092>>ASSIGN   4093<<ASSIGN
PL6.E3A0      #001=DDS$SET_D2Q File=DDS$SET_D2Q.:E05TSI                          TUE 07/29/97 14:22 Page:24
      4098>>IF       4100>>ASSIGN   4101<<ASSIGN   4106>>IF       4108>>ASSIGN   4109<<ASSIGN   4137>>ASSIGN
      4142>>ASSIGN   4147>>ASSIGN   4152>>ASSIGN   4157>>ASSIGN   4162>>ASSIGN
S_D.QSCH.NODE
      3063**DCL      4114>>ASSIGN   4123>>IF
S_D.QSCH.OK
      3059**DCL      4112>>IF
S_D.QSCH.PEDEF#
      3061**DCL      4123>>IF
S_D.REMOTE_MSG.FNCC
      3752**DCL      3753--REDEF
S_D.REMOTE_MSG.STXC
      3748**DCL      3749--REDEF
S_D.REMOTE_MSG.SUBFNCC
      3756**DCL      3757--REDEF
S_D.SCH
      3041**DCL      4090>>IF       4093>>ASSIGN   4137<<ASSIGN   4177>>ASSIGN
S_D.SDEF$
      3201**DCL      4119<<ASSIGN
S_D.SDEF_END$
      3205**DCL      4120<<ASSIGN
S_D.SV
      2812**DCL      2833--REDEF
S_D.TSCH
      3105**DCL      4098>>IF       4101>>ASSIGN   4147<<ASSIGN
S_D.XSCH
      3089**DCL      4106>>IF       4109>>ASSIGN   4152<<ASSIGN   4167<<ASSIGN   4172<<ASSIGN
S_D$
      4064**DCL      2760--IMP-PTR  4082>>IF       4082>>IF       4084>>ASSIGN   4085>>ASSIGN   4085>>ASSIGN
      4090>>IF       4090>>IF       4092>>ASSIGN   4093>>ASSIGN   4093>>ASSIGN   4098>>IF       4098>>IF
      4100>>ASSIGN   4101>>ASSIGN   4101>>ASSIGN   4106>>IF       4106>>IF       4108>>ASSIGN   4109>>ASSIGN
      4109>>ASSIGN   4112>>IF       4114>>ASSIGN   4114>>ASSIGN   4115>>IF       4116>>ASSIGN   4116>>ASSIGN
      4117>>ASSIGN   4118>>ASSIGN   4119>>ASSIGN   4120>>ASSIGN   4121>>ASSIGN   4123>>IF       4123>>IF
      4137>>ASSIGN   4137>>ASSIGN   4142>>ASSIGN   4142>>ASSIGN   4147>>ASSIGN   4147>>ASSIGN   4152>>ASSIGN
      4152>>ASSIGN   4157>>ASSIGN   4157>>ASSIGN   4162>>ASSIGN   4162>>ASSIGN   4167>>ASSIGN   4167>>ASSIGN
      4172>>ASSIGN   4172>>ASSIGN   4177>>ASSIGN   4177>>ASSIGN
PL6.E3A0      #001=DDS$SET_D2Q File=DDS$SET_D2Q.:E05TSI                          TUE 07/29/97 14:22 Page:25
              *** CROSS REFERENCE LISTING ***
    **     DENOTES     IDENTIFIER DEFINITION
    <<                 IDENTIFIER'S VALUE SET
    >>                 IDENTIFIER'S VALUE USED
    <>                 IDENTIFIER SET AND/OR USED
    --                 IDENTIFIER REFERENCED
PL6.E3A0      #001=DDS$SET_D2Q File=DDS$SET_D2Q.:E05TSI                          TUE 07/29/97 14:22 Page:26
              MINI UREF LISTING

DDS$SET_AX2X    4170**ENTRY
DDS$SET_C2D    4175**ENTRY
DDS$SET_C2Q    4088**ENTRY
DDS$SET_D2Q      16**PROC
DDS$SET_MX2X    4165**ENTRY
DDS$SET_Q2AX    4160**ENTRY
DDS$SET_Q2C    4135**ENTRY
DDS$SET_Q2D    4140**ENTRY
DDS$SET_Q2MX    4155**ENTRY
DDS$SET_Q2T    4145**ENTRY
DDS$SET_Q2X    4150**ENTRY
DDS$SET_T2Q    4096**ENTRY
DDS$SET_X2Q    4104**ENTRY
