VERSION E05

PL6.E3A0      #001=DDS$SP_SRCH File=DDS$SP_SRCH.:E05TSI                          TUE 07/29/97 14:22 Page:1
        1        1        /*M*  DDS$SP_SRCH - search special names (other than desc/ptr) */
        2        2        /*T***********************************************************/
        3        3        /*T*                                                         */
        4        4        /*T* Copyright (c) Bull HN Information Systems Inc., 1997    */
        5        5        /*T*                                                         */
        6        6        /*T***********************************************************/
        7        7        /*X* DMR,PLM=5,IND=5,CSU=3,EXM=0,ECU=3,MCL=4,DCI=5,CRT=5 */
        8        8        DDS$SP_SRCH: PROC(SYM$,SITEM_VAL) ALTRET;
        9        9          /* Params */
       10       10    1   DCL SYM$ PTR;
       11       11    1   DCL 1 SITEM_VAL UNAL,
       12       12    1         2 ID UBIN(9) UNAL,
       13       13    1         2 SZ UBIN(9) UNAL,
       14       14    1         2 * UBIN(6) UNAL,
       15       15    1         2 FLAGS UBIN(6) UNAL,
       16       16    1         2 FMT UBIN(6) UNAL;
       17       17          /* Locals */
       18       18    1   DCL I UBIN;
       19       19    1   DCL J UBIN;
       20       20    1   DCL T UBIN(9);
       21       21    1   DCL SIZE UBIN;
       22       22    1   DCL VALUE UBIN;
       23       23    1   DCL SP_NAME CHAR(16);                   /* Longer than longest Special! */
       24       24    1   DCL ULIMIT(0:6) UBIN CONSTANT INIT(7, 7, 510, 510, 7, 7, 7);
                24            /* X, WSR, WSQ, ARG AR R M */
       25       25    1   DCL LLIMIT(0:6) UBIN CONSTANT INIT(0, 0, 0, 1, 0, 1, 1); /* Same */
       26       26          /* Misc */
       27       27             %LIST;
       28       28             %INCLUDE DD_SPEC_R;
        1+      29        /*M* DD_SPEC_R - SYMREF FOR SPECIAL SYMBOLS STRUCTURE  */
        2+      30        /*T***********************************************************/
        3+      31        /*T*                                                         */
        4+      32        /*T* Copyright (c) Bull HN Information Systems Inc., 1997    */
        5+      33        /*T*                                                         */
        6+      34        /*T***********************************************************/
        7+      35        /*X* DMC,DFC */
        8+      36             %EQU NONUMSUFX_LO=0;
PL6.E3A0      #001=DDS$SP_SRCH File=DDS$SP_SRCH.:E05TSI                          TUE 07/29/97 14:22 Page:2
        9+      37             %EQU NONUMSUFX_HI=41;
       10+      38             %EQU NUMSUFX_LO=42;
       11+      39             %EQU NUMSUFX_HI=48;
       12+      40    1        DCL 1 SPEC(0:1) SYMREF,
       13+      41    1             2 NAME$ PTR,        /* PTR TO NAME IN TEXTC */
       14+      42    1             2 ITEM BIT(36),     /* VALUE FOR DITEM STRUCTURE  */
       15+      43    1             2 ITEMB REDEF ITEM,
       16+      44    1               3 ID UBIN(9) UNAL,
       17+      45    1               3 SZ UBIN(9) UNAL,
       18+      46    1               3 * UBIN(12) UNAL,
       19+      47    1               3 FMT UBIN(6) UNAL;
       29       48             %PLIST;
       30       49             %INCLUDE DD$DITEM;
       12+     152             %LIST;
       13+     153    1        DCL SDD$ PTR;
       14+     154    1        DCL ZITEM$ PTR;
       15+     155    1        DCL SDD_L6$ PTR;
       16+     156    1        DCL ZITEM_L6$ PTR;
       31      730             %INCLUDE XUH_MACRO_C;
       32      814             %INCLUDE DD_SD_M;
       33     2150             %INCLUDE B$TABLES_C;
       34     2258             %B$XL_UPPER (NAME=UP);
       35     2262             %S_D;
       36     3580             %LIST;
       37     3581    1   DCL 1 TEXTC BASED,
       38     3582    1         2 SZ UBIN(9) UNAL,
       39     3583    1         2 TXT CHAR(TEXTC.SZ);
       40     3584    1   DCL 1 TEXTR BASED,
       41     3585    1         2 * UBIN(9) UNAL,
       42     3586    1         2 TXT CHAR(SIZE);
       43     3587                                      /* First check list of names w/o numeric suffix */
       44     3588    1        CALL XLATE(SP_NAME, UP, SYM$->TEXTC.TXT);
       45     3589    2        DO I = %NONUMSUFX_LO TO %NONUMSUFX_HI;
       46     3590    2             IF SP_NAME = SPEC.NAME$(I) -> TEXTC.TXT THEN
       47     3591    3             DO;
       48     3592    3                  SITEM_VAL = SPEC.ITEM(I);
       49     3593    3                  IF S_D.ONE_TO_TWO.EXEC_DOMAIN = %L6 AND
PL6.E3A0      #001=DDS$SP_SRCH File=DDS$SP_SRCH.:E05TSI                          TUE 07/29/97 14:22 Page:3
       50     3594    3                    SITEM_VAL.FMT = %OCT_FMT
       51     3595    3                  THEN IF SPEC.ITEMB.ID(I) ~= %A_RTN
       52     3596    3                       THEN SITEM_VAL.FMT = %X_FMT;
       53     3597    3                       ELSE SITEM_VAL.FMT = %PTR_FMT;
       54     3598    3                  ALTRETURN;
       55     3599    3                END;
       56     3600    2           END;
       57     3601                                                /*  Check for names w/ numeric suffix */
       58     3602    2        DO I = %NUMSUFX_LO TO %NUMSUFX_HI;
       59     3603    2             SIZE = SPEC.NAME$(I) -> TEXTC.SZ;
       60     3604    2             IF substr(SP_NAME,,SIZE) = SPEC.NAME$(I)->TEXTC.TXT
       61     3605    2             THEN GOTO GOTIT;
       62     3606    2           END;
       63     3607    1        RETURN;                       /* Fell through, not found, just return */
       64     3608    1   GOTIT:
       65     3609    1        IF SYM$ -> TEXTC.SZ = SIZE
       66     3610    1        THEN RETURN;                       /* No n specified, not good */
       67     3611    2        DO J = SIZE TO SYM$ -> TEXTC.SZ - 1;
       68     3612    2             T = ASCBIN(SUBSTR(SYM$ -> TEXTC.TXT,J,1));
       69     3613    2             IF (T < 48) OR (T > 57)
       70     3614    2             THEN RETURN;                  /* Not digit */
       71     3615    2           END;
       72     3616    1        CALL CHARBIN(VALUE,SUBSTR(SYM$ -> TEXTC.TXT,SIZE));
       73     3617    1        IF (VALUE > ULIMIT(I - (%NONUMSUFX_HI +1))) OR (VALUE < LLIMIT(I - (%
              3617                 NONUMSUFX_HI +1)))
       74     3618    1        THEN RETURN;                       /* Bad value, just return */
       75     3619    1        SITEM_VAL = SPEC.ITEM(I);
       76     3620    1        SITEM_VAL.SZ = VALUE;
       77     3621    1        ALTRETURN;
       78     3622    1   END DDS$SP_SRCH;

PL6.E3A0      #001=DDS$SP_SRCH File=DDS$SP_SRCH.:E05TSI                          TUE 07/29/97 14:22 Page:4
--  Include file information  --

   B$TABLES_C.:E05TOU  cannot be made into a system file and is referenced.
   DD_SD_M.:E05TOU  is referenced.
   XUH_MACRO_C.:E05TOU  is referenced.
   DD_SRTN_C.:E05TOU  is referenced.
   DD_ACODE_C.:E05TOU  is referenced.
   DD_ICODE_C.:E05TOU  is referenced.
   DD$DITEM.:E05TOU  cannot be made into a system file and is referenced.
   DD_SPEC_R.:E05TOU  cannot be made into a system file and is referenced.
   B$JIT_C.:E05TOU  was found in the system file and is never referenced.
   CP_6_C.:E05TOU  was found in the system file and is never referenced.
      No diagnostics issued in procedure DDS$SP_SRCH.

   Procedure DDS$SP_SRCH requires 159 words for executable code.
   Procedure DDS$SP_SRCH requires 22 words of local(AUTO) storage.

    No errors detected in file DDS$SP_SRCH.:E05TSI    .

PL6.E3A0      #001=DDS$SP_SRCH File=DDS$SP_SRCH.:E05TSI                          TUE 07/29/97 14:22 Page:5

 Object Unit name= DDS$SP_SRCH                                File name= DDS$SP_SRCH.:E05TOU
 UTS= JUL 29 '97 14:22:37.20 TUE                              Compiler= PL-6/E31         Sev=      00
 SharedLib= :SHARED_SYSTEM                                    Alt SharedLib=


    ****  Control sections  ****

 Sect   Type Bound  Init  Size OctSiz  Section name(segment info)
    0  RoData even  UTS     14     16  DDS$SP_SRCH
    1   Proc  even  none   159    237  DDS$SP_SRCH
    2  RoData even  none     1      1  DDS$SP_SRCH

    ****  Entry defs  ****

                              Check   Calling
                             calling  sequence
  Sect OctLoc Primary Altret sequence   type   Parms  Name
     1      0   yes    yes     yes      Std        2  DDS$SP_SRCH

  ****  Entry refs  ****

         Check        Calling
        calling       sequence
Altret sequence SRef   type   Args  Name
         yes          ~proc      0 B_POINTER
                       nStd      0 X66_AUTO_2
                       Std       0 B_CONSPOOL_D
                       nStd      0 X66_AALT
                       nStd      0 X66_ARET

  ****  Data refs  ****

  Flags:  r = read only, s = secondary
Flgs Name                             Flgs Name                             Flgs Name
     SPEC                             r    B$XL_UPPER$                      r    S_D$
     B_VECTNIL
PL6.E3A0      #001=DDS$SP_SRCH File=DDS$SP_SRCH.:E05TSI                          TUE 07/29/97 14:22 Page:6


        1        1        /*M*  DDS$SP_SRCH - search special names (other than desc/ptr) */
        2        2        /*T***********************************************************/
        3        3        /*T*                                                         */
        4        4        /*T* Copyright (c) Bull HN Information Systems Inc., 1997    */
        5        5        /*T*                                                         */
        6        6        /*T***********************************************************/
        7        7        /*X* DMR,PLM=5,IND=5,CSU=3,EXM=0,ECU=3,MCL=4,DCI=5,CRT=5 */
        8        8        DDS$SP_SRCH: PROC(SYM$,SITEM_VAL) ALTRET;

      8  1 000000   000000 700200 xent  DDS$SP_SRCH  TSX0  ! X66_AUTO_2
         1 000001   000026 000002                    ZERO    22,2

        9        9          /* Params */
       10       10    1   DCL SYM$ PTR;
       11       11    1   DCL 1 SITEM_VAL UNAL,
       12       12    1         2 ID UBIN(9) UNAL,
       13       13    1         2 SZ UBIN(9) UNAL,
       14       14    1         2 * UBIN(6) UNAL,
       15       15    1         2 FLAGS UBIN(6) UNAL,
       16       16    1         2 FMT UBIN(6) UNAL;
       17       17          /* Locals */
       18       18    1   DCL I UBIN;
       19       19    1   DCL J UBIN;
       20       20    1   DCL T UBIN(9);
       21       21    1   DCL SIZE UBIN;
       22       22    1   DCL VALUE UBIN;
       23       23    1   DCL SP_NAME CHAR(16);                   /* Longer than longest Special! */
       24       24    1   DCL ULIMIT(0:6) UBIN CONSTANT INIT(7, 7, 510, 510, 7, 7, 7);
                24            /* X, WSR, WSQ, ARG AR R M */
       25       25    1   DCL LLIMIT(0:6) UBIN CONSTANT INIT(0, 0, 0, 1, 0, 1, 1); /* Same */
       26       26          /* Misc */
       27       27             %LIST;
       28       28             %INCLUDE DD_SPEC_R;
        1+      29        /*M* DD_SPEC_R - SYMREF FOR SPECIAL SYMBOLS STRUCTURE  */
        2+      30        /*T***********************************************************/
        3+      31        /*T*                                                         */
PL6.E3A0      #001=DDS$SP_SRCH File=DDS$SP_SRCH.:E05TSI                          TUE 07/29/97 14:22 Page:7
        4+      32        /*T* Copyright (c) Bull HN Information Systems Inc., 1997    */
        5+      33        /*T*                                                         */
        6+      34        /*T***********************************************************/
        7+      35        /*X* DMC,DFC */
        8+      36             %EQU NONUMSUFX_LO=0;
        9+      37             %EQU NONUMSUFX_HI=41;
       10+      38             %EQU NUMSUFX_LO=42;
       11+      39             %EQU NUMSUFX_HI=48;
       12+      40    1        DCL 1 SPEC(0:1) SYMREF,
       13+      41    1             2 NAME$ PTR,        /* PTR TO NAME IN TEXTC */
       14+      42    1             2 ITEM BIT(36),     /* VALUE FOR DITEM STRUCTURE  */
       15+      43    1             2 ITEMB REDEF ITEM,
       16+      44    1               3 ID UBIN(9) UNAL,
       17+      45    1               3 SZ UBIN(9) UNAL,
       18+      46    1               3 * UBIN(12) UNAL,
       19+      47    1               3 FMT UBIN(6) UNAL;
       29       48             %PLIST;
       30       49             %INCLUDE DD$DITEM;
       12+     152             %LIST;
       13+     153    1        DCL SDD$ PTR;
       14+     154    1        DCL ZITEM$ PTR;
       15+     155    1        DCL SDD_L6$ PTR;
       16+     156    1        DCL ZITEM_L6$ PTR;
       31      730             %INCLUDE XUH_MACRO_C;
       32      814             %INCLUDE DD_SD_M;
       33     2150             %INCLUDE B$TABLES_C;
       34     2258             %B$XL_UPPER (NAME=UP);
       35     2262             %S_D;
       36     3580             %LIST;
       37     3581    1   DCL 1 TEXTC BASED,
       38     3582    1         2 SZ UBIN(9) UNAL,
       39     3583    1         2 TXT CHAR(TEXTC.SZ);
       40     3584    1   DCL 1 TEXTR BASED,
       41     3585    1         2 * UBIN(9) UNAL,
       42     3586    1         2 TXT CHAR(SIZE);
       43     3587                                      /* First check list of names w/o numeric suffix */
       44     3588    1        CALL XLATE(SP_NAME, UP, SYM$->TEXTC.TXT);
PL6.E3A0      #001=DDS$SP_SRCH File=DDS$SP_SRCH.:E05TSI                          TUE 07/29/97 14:22 Page:8

   3588  1 000002   200003 470500                    LDP0    @SYM$,,AUTO
         1 000003   000000 471500                    LDP1    0,,PR0
         1 000004   000100 101500                    MRL     fill='000'O
         1 000005   100000 000001                    ADSC9   0,,PR1                   cn=0,n=1
         1 000006   200022 000002                    ADSC9   SP_NAME+8,,AUTO          cn=0,n=2
         1 000007   200022 220100                    LDX0    SP_NAME+8,,AUTO
         1 000010   000000 473400 xsym               LDP3    B$XL_UPPER$
         1 000011   040100 160540                    MVT     fill='040'O
         1 000012   100000 200010                    ADSC9   0,,PR1                   cn=1,n=*X0
         1 000013   200012 000020                    ADSC9   SP_NAME,,AUTO            cn=0,n=16
         1 000014   300000 000100                    ARG     0,,PR3

       45     3589    2        DO I = %NONUMSUFX_LO TO %NONUMSUFX_HI;

   3589  1 000015   200005 450100                    STZ     I,,AUTO

       46     3590    2             IF SP_NAME = SPEC.NAME$(I) -> TEXTC.TXT THEN

   3590  1 000016   200005 235100                    LDA     I,,AUTO
         1 000017   000001 735000                    ALS     1
         1 000020   000000 470405 xsym               LDP0    SPEC,AL
         1 000021   000100 101500                    MRL     fill='000'O
         1 000022   000000 000001                    ADSC9   0,,PR0                   cn=0,n=1
         1 000023   200022 000002                    ADSC9   SP_NAME+8,,AUTO          cn=0,n=2
         1 000024   200022 220100                    LDX0    SP_NAME+8,,AUTO
         1 000025   040140 106500                    CMPC    fill='040'O
         1 000026   200012 000020                    ADSC9   SP_NAME,,AUTO            cn=0,n=16
         1 000027   000000 200010                    ADSC9   0,,PR0                   cn=1,n=*X0
         1 000030   000067 601000 1                  TNZ     s:3600

       47     3591    3             DO;

       48     3592    3                  SITEM_VAL = SPEC.ITEM(I);

   3592  1 000031   200005 236100                    LDQ     I,,AUTO
         1 000032   000110 402007                    MPY     72,DL
PL6.E3A0      #001=DDS$SP_SRCH File=DDS$SP_SRCH.:E05TSI                          TUE 07/29/97 14:22 Page:9
         1 000033   200004 470500                    LDP0    @SITEM_VAL,,AUTO
         1 000034   003100 060406                    CSL     bolr='003'O
         1 000035   000001 000044 xsym               BDSC    SPEC+1,Q                 by=0,bit=0,n=36
         1 000036   000000 000044                    BDSC    0,,PR0                   by=0,bit=0,n=36

       49     3593    3                  IF S_D.ONE_TO_TWO.EXEC_DOMAIN = %L6 AND

   3593  1 000037   000000 471400 xsym               LDP1    S_D$
         1 000040   106714 235100                    LDA     3532,,PR1
         1 000041   000002 115007                    CMPA    2,DL
         1 000042   000066 601000 1                  TNZ     s:3598
         1 000043   003100 061500                    CSR     bolr='003'O
         1 000044   000000 630006                    BDSC    0,,PR0                   by=3,bit=3,n=6
         1 000045   200022 000044                    BDSC    SP_NAME+8,,AUTO          by=0,bit=0,n=36
         1 000046   200022 236100                    LDQ     SP_NAME+8,,AUTO
         1 000047   000001 116007                    CMPQ    1,DL
         1 000050   000066 601000 1                  TNZ     s:3598

       50     3594    3                    SITEM_VAL.FMT = %OCT_FMT
       51     3595    3                  THEN IF SPEC.ITEMB.ID(I) ~= %A_RTN

   3595  1 000051   200005 236100                    LDQ     I,,AUTO
         1 000052   000001 736000                    QLS     1
         1 000053   000001 236006 xsym               LDQ     SPEC+1,QL
         1 000054   777000 376003                    ANQ     -512,DU
         1 000055   020000 116003                    CMPQ    8192,DU
         1 000056   000063 600000 1                  TZE     s:3597

       52     3596    3                       THEN SITEM_VAL.FMT = %X_FMT;

   3596  1 000057   003100 061400                    CSR     bolr='003'O
         1 000060   000000 000044 2                  BDSC    0                        by=0,bit=0,n=36
         1 000061   000000 630006                    BDSC    0,,PR0                   by=3,bit=3,n=6
         1 000062   000066 710000 1                  TRA     s:3598

       53     3597    3                       ELSE SITEM_VAL.FMT = %PTR_FMT;

PL6.E3A0      #001=DDS$SP_SRCH File=DDS$SP_SRCH.:E05TSI                          TUE 07/29/97 14:22 Page:10
   3597  1 000063   003100 061400                    CSR     bolr='003'O
         1 000064   000011 000044 xsym               BDSC    B_VECTNIL+9              by=0,bit=0,n=36
         1 000065   000000 630006                    BDSC    0,,PR0                   by=3,bit=3,n=6

       54     3598    3                  ALTRETURN;

   3598  1 000066   000000 702200 xent               TSX2  ! X66_AALT

       55     3599    3                END;
       56     3600    2           END;

   3600  1 000067   200005 236100                    LDQ     I,,AUTO
         1 000070   000001 036007                    ADLQ    1,DL
         1 000071   200005 756100                    STQ     I,,AUTO
         1 000072   000052 116007                    CMPQ    42,DL
         1 000073   000016 602000 1                  TNC     s:3590

       57     3601                                                /*  Check for names w/ numeric suffix */
       58     3602    2        DO I = %NUMSUFX_LO TO %NUMSUFX_HI;

   3602  1 000074   000052 235007                    LDA     42,DL
         1 000075   200005 755100                    STA     I,,AUTO

       59     3603    2             SIZE = SPEC.NAME$(I) -> TEXTC.SZ;

   3603  1 000076   200005 235100                    LDA     I,,AUTO
         1 000077   000001 735000                    ALS     1
         1 000100   000000 470405 xsym               LDP0    SPEC,AL
         1 000101   000100 101500                    MRL     fill='000'O
         1 000102   000000 000001                    ADSC9   0,,PR0                   cn=0,n=1
         1 000103   200010 000004                    ADSC9   SIZE,,AUTO               cn=0,n=4

       60     3604    2             IF substr(SP_NAME,,SIZE) = SPEC.NAME$(I)->TEXTC.TXT

   3604  1 000104   000100 101500                    MRL     fill='000'O
         1 000105   000000 000001                    ADSC9   0,,PR0                   cn=0,n=1
         1 000106   200022 000002                    ADSC9   SP_NAME+8,,AUTO          cn=0,n=2
PL6.E3A0      #001=DDS$SP_SRCH File=DDS$SP_SRCH.:E05TSI                          TUE 07/29/97 14:22 Page:11
         1 000107   200022 220100                    LDX0    SP_NAME+8,,AUTO
         1 000110   200010 721100                    LXL1    SIZE,,AUTO
         1 000111   040140 106540                    CMPC    fill='040'O
         1 000112   200012 000011                    ADSC9   SP_NAME,,AUTO            cn=0,n=*X1
         1 000113   000000 200010                    ADSC9   0,,PR0                   cn=1,n=*X0
         1 000114   000123 600000 1                  TZE     GOTIT

       61     3605    2             THEN GOTO GOTIT;
       62     3606    2           END;

   3606  1 000115   200005 236100                    LDQ     I,,AUTO
         1 000116   000001 036007                    ADLQ    1,DL
         1 000117   200005 756100                    STQ     I,,AUTO
         1 000120   000061 116007                    CMPQ    49,DL
         1 000121   000076 602000 1                  TNC     s:3603

       63     3607    1        RETURN;                       /* Fell through, not found, just return */

   3607  1 000122   000000 702200 xent               TSX2  ! X66_ARET

       64     3608    1   GOTIT:
       65     3609    1        IF SYM$ -> TEXTC.SZ = SIZE

   3609  1 000123   200003 471500       GOTIT        LDP1    @SYM$,,AUTO
         1 000124   100000 473500                    LDP3    0,,PR1
         1 000125   000100 101500                    MRL     fill='000'O
         1 000126   300000 000001                    ADSC9   0,,PR3                   cn=0,n=1
         1 000127   200022 000004                    ADSC9   SP_NAME+8,,AUTO          cn=0,n=4
         1 000130   200022 236100                    LDQ     SP_NAME+8,,AUTO
         1 000131   200010 116100                    CMPQ    SIZE,,AUTO
         1 000132   000134 601000 1                  TNZ     s:3611

       66     3610    1        THEN RETURN;                       /* No n specified, not good */

   3610  1 000133   000000 702200 xent               TSX2  ! X66_ARET

       67     3611    2        DO J = SIZE TO SYM$ -> TEXTC.SZ - 1;
PL6.E3A0      #001=DDS$SP_SRCH File=DDS$SP_SRCH.:E05TSI                          TUE 07/29/97 14:22 Page:12

   3611  1 000134   200010 235100                    LDA     SIZE,,AUTO
         1 000135   200006 755100                    STA     J,,AUTO
         1 000136   000165 710000 1                  TRA     s:3615+2

       68     3612    2             T = ASCBIN(SUBSTR(SYM$ -> TEXTC.TXT,J,1));

   3612  1 000137   200003 470500                    LDP0    @SYM$,,AUTO
         1 000140   000000 471500                    LDP1    0,,PR0
         1 000141   000100 101500                    MRL     fill='000'O
         1 000142   100000 000001                    ADSC9   0,,PR1                   cn=0,n=1
         1 000143   200022 000002                    ADSC9   SP_NAME+8,,AUTO          cn=0,n=2
         1 000144   200022 220100                    LDX0    SP_NAME+8,,AUTO
         1 000145   200006 235100                    LDA     J,,AUTO
         1 000146   000100 101505                    MRL     fill='000'O
         1 000147   100000 200001                    ADSC9   0,A,PR1                  cn=1,n=1
         1 000150   200023 000004                    ADSC9   SP_NAME+9,,AUTO          cn=0,n=4
         1 000151   200023 236100                    LDQ     SP_NAME+9,,AUTO
         1 000152   000033 736000                    QLS     27
         1 000153   200007 756100                    STQ     T,,AUTO

       69     3613    2             IF (T < 48) OR (T > 57)

   3613  1 000154   200007 236100                    LDQ     T,,AUTO
         1 000155   777000 376003                    ANQ     -512,DU
         1 000156   060000 116003                    CMPQ    24576,DU
         1 000157   000162 602000 1                  TNC     s:3614
         1 000160   072000 116003                    CMPQ    29696,DU
         1 000161   000163 602000 1                  TNC     s:3615

       70     3614    2             THEN RETURN;                  /* Not digit */

   3614  1 000162   000000 702200 xent               TSX2  ! X66_ARET

       71     3615    2           END;

   3615  1 000163   000001 035007                    ADLA    1,DL
PL6.E3A0      #001=DDS$SP_SRCH File=DDS$SP_SRCH.:E05TSI                          TUE 07/29/97 14:22 Page:13
         1 000164   200006 755100                    STA     J,,AUTO
         1 000165   200003 470500                    LDP0    @SYM$,,AUTO
         1 000166   000000 471500                    LDP1    0,,PR0
         1 000167   000100 101500                    MRL     fill='000'O
         1 000170   100000 000001                    ADSC9   0,,PR1                   cn=0,n=1
         1 000171   200022 000004                    ADSC9   SP_NAME+8,,AUTO          cn=0,n=4
         1 000172   200022 236100                    LDQ     SP_NAME+8,,AUTO
         1 000173   200006 116100                    CMPQ    J,,AUTO
         1 000174   000176 600000 1                  TZE     s:3616
         1 000175   000137 603000 1                  TRC     s:3612

       72     3616    1        CALL CHARBIN(VALUE,SUBSTR(SYM$ -> TEXTC.TXT,SIZE));

   3616  1 000176   000000 471500                    LDP1    0,,PR0
         1 000177   000100 101500                    MRL     fill='000'O
         1 000200   100000 000001                    ADSC9   0,,PR1                   cn=0,n=1
         1 000201   200022 000002                    ADSC9   SP_NAME+8,,AUTO          cn=0,n=2
         1 000202   200022 220100                    LDX0    SP_NAME+8,,AUTO
         1 000203   000000 636010                    EAQ     0,X0
         1 000204   000022 772000                    QRL     18
         1 000205   200010 136100                    SBLQ    SIZE,,AUTO
         1 000206   000000 621006                    EAX1    0,QL
         1 000207   200010 236100                    LDQ     SIZE,,AUTO
         1 000210   000100 305546                    DTB
         1 000211   100000 230011                    NDSC9   0,Q,PR1                  cn=1,s=nosgn,sf=0,n=*X1
         1 000212   200024 000010                    NDSC9   SP_NAME+10,,AUTO         cn=0,s=lsgnf,sf=0,n=8
         1 000213   200025 235100                    LDA     SP_NAME+11,,AUTO
         1 000214   200011 755100                    STA     VALUE,,AUTO

       73     3617    1        IF (VALUE > ULIMIT(I - (%NONUMSUFX_HI +1))) OR (VALUE < LLIMIT(I - (%
              3617                 NONUMSUFX_HI +1)))

   3617  1 000215   200005 720100                    LXL0    I,,AUTO
         1 000216   777726 236010 0                  LDQ     LLIMIT-49,X0
         1 000217   200011 116100                    CMPQ    VALUE,,AUTO
         1 000220   000224 602000 1                  TNC     s:3618
         1 000221   200011 236100                    LDQ     VALUE,,AUTO
PL6.E3A0      #001=DDS$SP_SRCH File=DDS$SP_SRCH.:E05TSI                          TUE 07/29/97 14:22 Page:14
         1 000222   777735 116010 0                  CMPQ    LLIMIT-42,X0
         1 000223   000225 603000 1                  TRC     s:3619

       74     3618    1        THEN RETURN;                       /* Bad value, just return */

   3618  1 000224   000000 702200 xent               TSX2  ! X66_ARET

       75     3619    1        SITEM_VAL = SPEC.ITEM(I);

   3619  1 000225   200005 236100                    LDQ     I,,AUTO
         1 000226   000110 402007                    MPY     72,DL
         1 000227   200004 471500                    LDP1    @SITEM_VAL,,AUTO
         1 000230   003100 060406                    CSL     bolr='003'O
         1 000231   000001 000044 xsym               BDSC    SPEC+1,Q                 by=0,bit=0,n=36
         1 000232   100000 000044                    BDSC    0,,PR1                   by=0,bit=0,n=36

       76     3620    1        SITEM_VAL.SZ = VALUE;

   3620  1 000233   003100 061500                    CSR     bolr='003'O
         1 000234   200011 000044                    BDSC    VALUE,,AUTO              by=0,bit=0,n=36
         1 000235   100000 200011                    BDSC    0,,PR1                   by=1,bit=0,n=9

       77     3621    1        ALTRETURN;

   3621  1 000236   000000 702200 xent               TSX2  ! X66_AALT

ULIMIT
 Sect OctLoc
   0     000   000000 000007   000000 000007   000000 000776   000000 000776    ................
   0     004   000000 000007   000000 000007   000000 000007                    ............

LLIMIT
 Sect OctLoc
   0     007   000000 000000   000000 000000   000000 000000   000000 000001    ................
   0     013   000000 000000   000000 000001   000000 000001                    ............

(unnamed)
PL6.E3A0      #001=DDS$SP_SRCH File=DDS$SP_SRCH.:E05TSI                          TUE 07/29/97 14:22 Page:15
 Sect OctLoc
   2     000   000000 000015                                                    ....
       78     3622    1   END DDS$SP_SRCH;

PL6.E3A0      #001=DDS$SP_SRCH File=DDS$SP_SRCH.:E05TSI                          TUE 07/29/97 14:22 Page:16
--  Include file information  --

   B$TABLES_C.:E05TOU  cannot be made into a system file and is referenced.
   DD_SD_M.:E05TOU  is referenced.
   XUH_MACRO_C.:E05TOU  is referenced.
   DD_SRTN_C.:E05TOU  is referenced.
   DD_ACODE_C.:E05TOU  is referenced.
   DD_ICODE_C.:E05TOU  is referenced.
   DD$DITEM.:E05TOU  cannot be made into a system file and is referenced.
   DD_SPEC_R.:E05TOU  cannot be made into a system file and is referenced.
   B$JIT_C.:E05TOU  was found in the system file and is never referenced.
   CP_6_C.:E05TOU  was found in the system file and is never referenced.
      No diagnostics issued in procedure DDS$SP_SRCH.

   Procedure DDS$SP_SRCH requires 159 words for executable code.
   Procedure DDS$SP_SRCH requires 22 words of local(AUTO) storage.

    No errors detected in file DDS$SP_SRCH.:E05TSI    .
PL6.E3A0      #001=DDS$SP_SRCH File=DDS$SP_SRCH.:E05TSI                          TUE 07/29/97 14:22 Page:17
          *** CROSS REFERENCE LISTING ***
**     DENOTES     IDENTIFIER DEFINITION
<<                 IDENTIFIER'S VALUE SET
>>                 IDENTIFIER'S VALUE USED
<>                 IDENTIFIER SET AND/OR USED
--                 IDENTIFIER REFERENCED
PL6.E3A0      #001=DDS$SP_SRCH File=DDS$SP_SRCH.:E05TSI                          TUE 07/29/97 14:22 Page:18
          MINI XREF LISTING

B$XL_UPPER$
      2259**DCL      2260--IMP-PTR  3588>>CALLBLT
GOTIT
      3609**LABEL    3605--GOTO
I
        18**DCL      3589<<DOINDEX  3590>>IF       3590>>IF       3592>>ASSIGN   3595>>IF       3602<<DOINDEX
      3603>>ASSIGN   3604>>IF       3604>>IF       3617>>IF       3617>>IF       3619>>ASSIGN
J
        19**DCL      3611<<DOINDEX  3612>>ASSIGN
LLIMIT
        25**DCL      3617>>IF
SITEM_VAL
        11**DCL         8--PROC     3592<<ASSIGN   3619<<ASSIGN
SITEM_VAL.FMT
        16**DCL      3593>>IF       3596<<ASSIGN   3597<<ASSIGN
SITEM_VAL.SZ
        13**DCL      3620<<ASSIGN
SIZE
        21**DCL      3586--IMP-SIZ  3603<<ASSIGN   3604>>IF       3609>>IF       3611>>DOINDEX  3616>>CALLBLT
SPEC.ITEM
        42**DCL        43--REDEF    3592>>ASSIGN   3619>>ASSIGN
SPEC.ITEMB.ID
        44**DCL      3595>>IF
SPEC.NAME$
        41**DCL      3590>>IF       3590>>IF       3603>>ASSIGN   3604>>IF       3604>>IF
SP_NAME
        23**DCL      3588<<CALLBLT  3590>>IF       3604>>IF
SYM$
        10**DCL         8--PROC     3588>>CALLBLT  3588>>CALLBLT  3609>>IF       3611>>DOINDEX  3612>>ASSIGN
      3612>>ASSIGN   3616>>CALLBLT  3616>>CALLBLT
S_D.CURRENT_CHANNEL
      3214**DCL      3216--REDEF
PL6.E3A0      #001=DDS$SP_SRCH File=DDS$SP_SRCH.:E05TSI                          TUE 07/29/97 14:22 Page:19
S_D.DEBUGA
      2366**DCL      2368--REDEF
S_D.EIS
      3324**DCL      3353--REDEF
S_D.HOST_MESSAGE_BUF_REMOTE
      3257**DCL      3258--REDEF    3272--REDEF
S_D.JDE
      2871**DCL      2872--REDEF
S_D.L$.VALUE
      2424**DCL      2430--REDEF    2438--REDEF    2441--REDEF    2444--REDEF    2447--REDEF
S_D.L$.VALUE.L
      2425**DCL      2426--REDEF    2427--REDEF
S_D.L6_MESSAGE_BUF
      3278**DCL      3280--REDEF
S_D.ONE_TO_TWO.EXEC_DOMAIN
      3289**DCL      3593>>IF
S_D.OUTPUT
      3244**DCL      3246--REDEF
S_D.REMOTE_MSG.FNCC
      3263**DCL      3264--REDEF
S_D.REMOTE_MSG.STXC
      3259**DCL      3260--REDEF
S_D.REMOTE_MSG.SUBFNCC
      3267**DCL      3268--REDEF
S_D.SV
      2323**DCL      2344--REDEF
S_D$
      3575**DCL      2271--IMP-PTR  3593>>IF
T
        20**DCL      3612<<ASSIGN   3613>>IF       3613>>IF
TEXTC.SZ
      3582**DCL      3583--IMP-SIZ  3588>>CALLBLT  3590>>IF       3603>>ASSIGN   3604>>IF       3609>>IF
      3611>>DOINDEX  3612>>ASSIGN   3616>>CALLBLT
TEXTC.TXT
      3583**DCL      3588>>CALLBLT  3590>>IF       3604>>IF       3612>>ASSIGN   3616>>CALLBLT
ULIMIT
PL6.E3A0      #001=DDS$SP_SRCH File=DDS$SP_SRCH.:E05TSI                          TUE 07/29/97 14:22 Page:20
        24**DCL      3617>>IF
UP
      2260**DCL      3588>>CALLBLT
VALUE
        22**DCL      3616<<CALLBLT  3617>>IF       3617>>IF       3620>>ASSIGN
PL6.E3A0      #001=DDS$SP_SRCH File=DDS$SP_SRCH.:E05TSI                          TUE 07/29/97 14:22 Page:21
              *** CROSS REFERENCE LISTING ***
    **     DENOTES     IDENTIFIER DEFINITION
    <<                 IDENTIFIER'S VALUE SET
    >>                 IDENTIFIER'S VALUE USED
    <>                 IDENTIFIER SET AND/OR USED
    --                 IDENTIFIER REFERENCED
PL6.E3A0      #001=DDS$SP_SRCH File=DDS$SP_SRCH.:E05TSI                          TUE 07/29/97 14:22 Page:22
              MINI UREF LISTING

B_POINTER    2200**DCL-ENT
DDS$SP_SRCH       8**PROC
SDD$     153**DCL
SDD_L6$     155**DCL
TEXTR    3584**DCL
ZITEM$     154**DCL
ZITEM_L6$     156**DCL
