VERSION E05

PL6.E3A0      #001=DDS$UD_SRCH File=DDS$UD_SRCH.:E05TSI                          TUE 07/29/97 14:23 Page:1
        1        1        /*M*  DDS$UD_SRCH - SEARCH FOR USER DEFINED SYMBOL */
        2        2        /*T***********************************************************/
        3        3        /*T*                                                         */
        4        4        /*T* Copyright (c) Bull HN Information Systems Inc., 1997    */
        5        5        /*T*                                                         */
        6        6        /*T***********************************************************/
        7        7        /*X* DMR,PLM=5,IND=5,CSU=3,EXM=0,ECU=3,MOC,DCI=5,CRT=5 */
        8        8        /*F*  NAME: DDS$UD_SRCH
        9        9              PURPOSE: TO SEARCH THE USER DEFINED SYMBOL TABLE FOR A
       10       10                  GIVEN SYMBOL, RETURNING ITS VALUE IF FOUND.
       11       11              DESCRIPTION: THE INPUT PARAMETER SYM$ POINTS AT A
       12       12                  TEXTC SYMBOL NAME.  THIS NAME IS COMPARED WITH
       13       13                  THE CURRENT LIST OF USER DEFINED SYMBOL NAMES.  IF A
       14       14                  MATCH IS FOUND, THE VALUE OF THE SYMBOL IS RETURNED
       15       15                  AS THE PARAMETER 'VALUE'.  A SUCCESSFUL SEARCH CAUSES
       16       16                  AN ALTRETURN, FAILURE CAUSES A NORMAL RETURN.
       17       17                                                     */
       18       18        DDS$UD_SRCH: PROC(SYM$, VALUE) ALTRET;
       19       19                                                /* PARMS */
       20       20    1   DCL SYM$ PTR;
       21       21    1   DCL VALUE SBIN;
       22       22                                                /* LOCALS */
       23       23    1   DCL I SBIN;
       24       24    1   DCL TEMP SBIN;
       25       25                                                /* MISC */
       26       26    1   DCL 1 SYM BASED(SYM$),
       27       27    1         2 SZ UBIN(9) UNAL,
       28       28    1         2 TXT CHAR(SYM.SZ);
       29       29             %INCLUDE XUH_MACRO_C;
       30      113             %INCLUDE DD_SD_M;
       31     1449             %S_D;
       32     2767             %INCLUDE DD_ERR_C;
       33     3164                                                /**/
       34     3165    1        TEMP = SIZEW(S_D.UD) / 9 - 1;
       35     3166    2        DO I = 0 TO TEMP;
       36     3167    2             IF SYM.SZ = S_D.UD.TEXTSZ(I)
       37     3168    2             THEN
PL6.E3A0      #001=DDS$UD_SRCH File=DDS$UD_SRCH.:E05TSI                          TUE 07/29/97 14:23 Page:2
       38     3169    2                  IF SYM.TXT = S_D.UD.TEXT(I)
       39     3170    3                  THEN DO;
       40     3171    3                       VALUE = S_D.UD.VALUE(I);
       41     3172    3                       ALTRETURN;
       42     3173    3                     END;
       43     3174    2           END;                            /* DO I = 0 TO TEMP */
       44     3175    1        RETURN;
       45     3176    1   END DDS$UD_SRCH;

PL6.E3A0      #001=DDS$UD_SRCH File=DDS$UD_SRCH.:E05TSI                          TUE 07/29/97 14:23 Page:3
--  Include file information  --

   DD_ERR_C.:E05TOU  is referenced.
   DD_SD_M.:E05TOU  is referenced.
   XUH_MACRO_C.:E05TOU  is referenced.
   B$JIT_C.:E05TOU  was found in the system file and is never referenced.
   CP_6_C.:E05TOU  was found in the system file and is never referenced.
      No diagnostics issued in procedure DDS$UD_SRCH.

   Procedure DDS$UD_SRCH requires 42 words for executable code.
   Procedure DDS$UD_SRCH requires 10 words of local(AUTO) storage.

    No errors detected in file DDS$UD_SRCH.:E05TSI    .

PL6.E3A0      #001=DDS$UD_SRCH File=DDS$UD_SRCH.:E05TSI                          TUE 07/29/97 14:23 Page:4

 Object Unit name= DDS$UD_SRCH                                File name= DDS$UD_SRCH.:E05TOU
 UTS= JUL 29 '97 14:23:51.60 TUE                              Compiler= PL-6/E31         Sev=      00
 SharedLib= :SHARED_SYSTEM                                    Alt SharedLib=


    ****  Control sections  ****

 Sect   Type Bound  Init  Size OctSiz  Section name(segment info)
    0   Proc  even  none    42     52  DDS$UD_SRCH

    ****  Entry defs  ****

                              Check   Calling
                             calling  sequence
  Sect OctLoc Primary Altret sequence   type   Parms  Name
     0      0   yes    yes     yes      Std        2  DDS$UD_SRCH

  ****  Entry refs  ****

         Check        Calling
        calling       sequence
Altret sequence SRef   type   Args  Name
                       nStd      0 X66_AUTO_2
                       Std       0 B_CONSPOOL_D
                       nStd      0 X66_AALT
                       nStd      0 X66_ARET

  ****  Data refs  ****

  Flags:  r = read only, s = secondary
Flgs Name                             Flgs Name                             Flgs Name
r    S_D$                                  B_VECTNIL
PL6.E3A0      #001=DDS$UD_SRCH File=DDS$UD_SRCH.:E05TSI                          TUE 07/29/97 14:23 Page:5


        1        1        /*M*  DDS$UD_SRCH - SEARCH FOR USER DEFINED SYMBOL */
        2        2        /*T***********************************************************/
        3        3        /*T*                                                         */
        4        4        /*T* Copyright (c) Bull HN Information Systems Inc., 1997    */
        5        5        /*T*                                                         */
        6        6        /*T***********************************************************/
        7        7        /*X* DMR,PLM=5,IND=5,CSU=3,EXM=0,ECU=3,MOC,DCI=5,CRT=5 */
        8        8        /*F*  NAME: DDS$UD_SRCH
        9        9              PURPOSE: TO SEARCH THE USER DEFINED SYMBOL TABLE FOR A
       10       10                  GIVEN SYMBOL, RETURNING ITS VALUE IF FOUND.
       11       11              DESCRIPTION: THE INPUT PARAMETER SYM$ POINTS AT A
       12       12                  TEXTC SYMBOL NAME.  THIS NAME IS COMPARED WITH
       13       13                  THE CURRENT LIST OF USER DEFINED SYMBOL NAMES.  IF A
       14       14                  MATCH IS FOUND, THE VALUE OF THE SYMBOL IS RETURNED
       15       15                  AS THE PARAMETER 'VALUE'.  A SUCCESSFUL SEARCH CAUSES
       16       16                  AN ALTRETURN, FAILURE CAUSES A NORMAL RETURN.
       17       17                                                     */
       18       18        DDS$UD_SRCH: PROC(SYM$, VALUE) ALTRET;

     18  0 000000   000000 700200 xent  DDS$UD_SRCH  TSX0  ! X66_AUTO_2
         0 000001   000012 000002                    ZERO    10,2

       19       19                                                /* PARMS */
       20       20    1   DCL SYM$ PTR;
       21       21    1   DCL VALUE SBIN;
       22       22                                                /* LOCALS */
       23       23    1   DCL I SBIN;
       24       24    1   DCL TEMP SBIN;
       25       25                                                /* MISC */
       26       26    1   DCL 1 SYM BASED(SYM$),
       27       27    1         2 SZ UBIN(9) UNAL,
       28       28    1         2 TXT CHAR(SYM.SZ);
       29       29             %INCLUDE XUH_MACRO_C;
       30      113             %INCLUDE DD_SD_M;
       31     1449             %S_D;
       32     2767             %INCLUDE DD_ERR_C;
PL6.E3A0      #001=DDS$UD_SRCH File=DDS$UD_SRCH.:E05TSI                          TUE 07/29/97 14:23 Page:6
       33     3164                                                /**/
       34     3165    1        TEMP = SIZEW(S_D.UD) / 9 - 1;

   3165  0 000002   000030 235007                    LDA     24,DL
         0 000003   200006 755100                    STA     TEMP,,AUTO

       35     3166    2        DO I = 0 TO TEMP;

   3166  0 000004   200005 450100                    STZ     I,,AUTO
         0 000005   000046 710000 0                  TRA     s:3174+1

       36     3167    2             IF SYM.SZ = S_D.UD.TEXTSZ(I)

   3167  0 000006   200003 470500                    LDP0    @SYM$,,AUTO
         0 000007   000000 471500                    LDP1    0,,PR0
         0 000010   200005 236100                    LDQ     I,,AUTO
         0 000011   000011 402007                    MPY     9,DL
         0 000012   000000 473400 xsym               LDP3    S_D$
         0 000013   300141 236106                    LDQ     97,QL,PR3
         0 000014   000033 772000                    QRL     27
         0 000015   200010 756100                    STQ     TEMP+2,,AUTO
         0 000016   000100 101500                    MRL     fill='000'O
         0 000017   100000 000001                    ADSC9   0,,PR1                   cn=0,n=1
         0 000020   200011 000004                    ADSC9   TEMP+3,,AUTO             cn=0,n=4
         0 000021   200011 236100                    LDQ     TEMP+3,,AUTO
         0 000022   200010 116100                    CMPQ    TEMP+2,,AUTO
         0 000023   000045 601000 0                  TNZ     s:3174

       37     3168    2             THEN
       38     3169    2                  IF SYM.TXT = S_D.UD.TEXT(I)

   3169  0 000024   000000 471500                    LDP1    0,,PR0
         0 000025   000100 101500                    MRL     fill='000'O
         0 000026   100000 000001                    ADSC9   0,,PR1                   cn=0,n=1
         0 000027   200010 000002                    ADSC9   TEMP+2,,AUTO             cn=0,n=2
         0 000030   200010 220100                    LDX0    TEMP+2,,AUTO
         0 000031   200005 236100                    LDQ     I,,AUTO
PL6.E3A0      #001=DDS$UD_SRCH File=DDS$UD_SRCH.:E05TSI                          TUE 07/29/97 14:23 Page:7
         0 000032   000044 402007                    MPY     36,DL
         0 000033   040106 106540                    CMPC    fill='040'O
         0 000034   100000 200010                    ADSC9   0,,PR1                   cn=1,n=*X0
         0 000035   300141 200037                    ADSC9   97,Q,PR3                 cn=1,n=31
         0 000036   000045 601000 0                  TNZ     s:3174

       39     3170    3                  THEN DO;

       40     3171    3                       VALUE = S_D.UD.VALUE(I);

   3171  0 000037   200005 236100                    LDQ     I,,AUTO
         0 000040   000011 402007                    MPY     9,DL
         0 000041   200004 471500                    LDP1    @VALUE,,AUTO
         0 000042   300140 235106                    LDA     96,QL,PR3
         0 000043   100000 755100                    STA     0,,PR1

       41     3172    3                       ALTRETURN;

   3172  0 000044   000000 702200 xent               TSX2  ! X66_AALT

       42     3173    3                     END;
       43     3174    2           END;                            /* DO I = 0 TO TEMP */

   3174  0 000045   200005 054100                    AOS     I,,AUTO
         0 000046   200005 236100                    LDQ     I,,AUTO
         0 000047   200006 116100                    CMPQ    TEMP,,AUTO
         0 000050   000006 604400 0                  TMOZ    s:3167

       44     3175    1        RETURN;

   3175  0 000051   000000 702200 xent               TSX2  ! X66_ARET
       45     3176    1   END DDS$UD_SRCH;

PL6.E3A0      #001=DDS$UD_SRCH File=DDS$UD_SRCH.:E05TSI                          TUE 07/29/97 14:23 Page:8
--  Include file information  --

   DD_ERR_C.:E05TOU  is referenced.
   DD_SD_M.:E05TOU  is referenced.
   XUH_MACRO_C.:E05TOU  is referenced.
   B$JIT_C.:E05TOU  was found in the system file and is never referenced.
   CP_6_C.:E05TOU  was found in the system file and is never referenced.
      No diagnostics issued in procedure DDS$UD_SRCH.

   Procedure DDS$UD_SRCH requires 42 words for executable code.
   Procedure DDS$UD_SRCH requires 10 words of local(AUTO) storage.

    No errors detected in file DDS$UD_SRCH.:E05TSI    .
PL6.E3A0      #001=DDS$UD_SRCH File=DDS$UD_SRCH.:E05TSI                          TUE 07/29/97 14:23 Page:9
          *** CROSS REFERENCE LISTING ***
**     DENOTES     IDENTIFIER DEFINITION
<<                 IDENTIFIER'S VALUE SET
>>                 IDENTIFIER'S VALUE USED
<>                 IDENTIFIER SET AND/OR USED
--                 IDENTIFIER REFERENCED
PL6.E3A0      #001=DDS$UD_SRCH File=DDS$UD_SRCH.:E05TSI                          TUE 07/29/97 14:23 Page:10
          MINI XREF LISTING

I
        23**DCL      3166<<DOINDEX  3167>>IF       3169>>IF       3171>>ASSIGN
SYM.SZ
        27**DCL        28--IMP-SIZ  3167>>IF       3169>>IF
SYM.TXT
        28**DCL      3169>>IF
SYM$
        20**DCL        18--PROC       26--IMP-PTR  3167>>IF       3169>>IF       3169>>IF
S_D.CURRENT_CHANNEL
      2401**DCL      2403--REDEF
S_D.DEBUGA
      1553**DCL      1555--REDEF
S_D.EIS
      2511**DCL      2540--REDEF
S_D.HOST_MESSAGE_BUF_REMOTE
      2444**DCL      2445--REDEF    2459--REDEF
S_D.JDE
      2058**DCL      2059--REDEF
S_D.L$.VALUE
      1611**DCL      1617--REDEF    1625--REDEF    1628--REDEF    1631--REDEF    1634--REDEF
S_D.L$.VALUE.L
      1612**DCL      1613--REDEF    1614--REDEF
S_D.L6_MESSAGE_BUF
      2465**DCL      2467--REDEF
S_D.OUTPUT
      2431**DCL      2433--REDEF
S_D.REMOTE_MSG.FNCC
      2450**DCL      2451--REDEF
S_D.REMOTE_MSG.STXC
      2446**DCL      2447--REDEF
S_D.REMOTE_MSG.SUBFNCC
      2454**DCL      2455--REDEF
PL6.E3A0      #001=DDS$UD_SRCH File=DDS$UD_SRCH.:E05TSI                          TUE 07/29/97 14:23 Page:11
S_D.SV
      1510**DCL      1531--REDEF
S_D.UD
      1653**DCL      3165--ASSIGN
S_D.UD.TEXT
      1657**DCL      3169>>IF
S_D.UD.TEXTSZ
      1656**DCL      3167>>IF
S_D.UD.VALUE
      1655**DCL      3171>>ASSIGN
S_D$
      2762**DCL      1458--IMP-PTR  3167>>IF       3169>>IF       3171>>ASSIGN
TEMP
        24**DCL      3165<<ASSIGN   3166>>DOINDEX
VALUE
        21**DCL        18--PROC     3171<<ASSIGN
PL6.E3A0      #001=DDS$UD_SRCH File=DDS$UD_SRCH.:E05TSI                          TUE 07/29/97 14:23 Page:12
              *** CROSS REFERENCE LISTING ***
    **     DENOTES     IDENTIFIER DEFINITION
    <<                 IDENTIFIER'S VALUE SET
    >>                 IDENTIFIER'S VALUE USED
    <>                 IDENTIFIER SET AND/OR USED
    --                 IDENTIFIER REFERENCED
PL6.E3A0      #001=DDS$UD_SRCH File=DDS$UD_SRCH.:E05TSI                          TUE 07/29/97 14:23 Page:13
              MINI UREF LISTING

DDS$UD_SRCH      18**PROC
