VERSION E05

PL6.E3A0      #001=DDZ$CMDUMP File=DDZ$CMDUMP.:E05TSI                            TUE 07/29/97 14:27 Page:1
        1        1        /*M* DDZ$CMDUMP Command build buffer dumping program for DELTA */
        2        2        /*T***********************************************************/
        3        3        /*T*                                                         */
        4        4        /*T* Copyright (c) Bull HN Information Systems Inc., 1997    */
        5        5        /*T*                                                         */
        6        6        /*T***********************************************************/
        7        7        DDZ$CMDUMP: PROC(START$,END$);
        8        8    1   DCL START$ PTR;
        9        9    1   DCL END$ PTR;
       10       10    1   DCL DDB$BREAK ENTRY(0) ALTRET;
       11       11    1   DCL DDQ$WRITE ENTRY(2);
       12       12    1   DCL DDR$BINOCT ENTRY(2);
       13       13    1   DCL WRD(0:0) SBIN BASED;
       14       14    1   DCL T1 UBIN(36);
       15       15    1   DCL T2 UBIN(36);
       16       16    1   DCL OBUF CHAR(80);
       17       17    1   DCL ABUF(0:79) REDEF OBUF CHAR(1);
       18       18        %INCLUDE XUH_MACRO_C;
       19      102        %INCLUDE DD_SD_M;
       20     1438        %S_D;
       21     2756    1        T2 = POFFW(END$,START$);
       22     2757    2        DO T1 = 0 TO T2;
       23     2758    2             CALL DDB$BREAK ALTRET(RETN);
       24     2759    2             OBUF = ' ';
       25     2760    2             CALL DDR$BINOCT(OBUF, T1);
       26     2761    2             ABUF(13) = '-';
       27     2762    2             CALL DDR$BINOCT(ABUF(15), START$ -> WRD(T1));
       28     2763    2             S_D.OUTPUT = SUBSTR( OBUF, 10, 17 );
       29     2764    2             CALL DDQ$WRITE(ADDR(S_D.OUTPUT), 17);
       30     2765    2             END;
       31     2766    1   RETN: ;
       32     2767    1        RETURN;
       33     2768    1   END DDZ$CMDUMP;

PL6.E3A0      #001=DDZ$CMDUMP File=DDZ$CMDUMP.:E05TSI                            TUE 07/29/97 14:27 Page:2
--  Include file information  --

   DD_SD_M.:E05TOU  is referenced.
   XUH_MACRO_C.:E05TOU  is referenced.
   B$JIT_C.:E05TOU  was found in the system file and is never referenced.
   CP_6_C.:E05TOU  was found in the system file and is never referenced.
      No diagnostics issued in procedure DDZ$CMDUMP.

   Procedure DDZ$CMDUMP requires 64 words for executable code.
   Procedure DDZ$CMDUMP requires 32 words of local(AUTO) storage.

    No errors detected in file DDZ$CMDUMP.:E05TSI    .

PL6.E3A0      #001=DDZ$CMDUMP File=DDZ$CMDUMP.:E05TSI                            TUE 07/29/97 14:27 Page:3

 Object Unit name= DDZ$CMDUMP                                 File name= DDZ$CMDUMP.:E05TOU
 UTS= JUL 29 '97 14:27:04.68 TUE                              Compiler= PL-6/E31         Sev=      00
 SharedLib= :SHARED_SYSTEM                                    Alt SharedLib=


    ****  Control sections  ****

 Sect   Type Bound  Init  Size OctSiz  Section name(segment info)
    0   Proc  even  none    64    100  DDZ$CMDUMP
    1  RoData even  none     3      3  DDZ$CMDUMP

    ****  Entry defs  ****

                              Check   Calling
                             calling  sequence
  Sect OctLoc Primary Altret sequence   type   Parms  Name
     0      0   yes            yes      Std        2  DDZ$CMDUMP

  ****  Entry refs  ****

         Check        Calling
        calling       sequence
Altret sequence SRef   type   Args  Name
 yes     yes           Std       0 DDB$BREAK
         yes           Std       2 DDR$BINOCT
         yes           Std       2 DDQ$WRITE
                       nStd      0 X66_AUTO_2
                       Std       0 B_CONSPOOL_D
                       nStd      0 X66_ARET

  ****  Data refs  ****

  Flags:  r = read only, s = secondary
Flgs Name                             Flgs Name                             Flgs Name
r    S_D$                                  B_VECTNIL
PL6.E3A0      #001=DDZ$CMDUMP File=DDZ$CMDUMP.:E05TSI                            TUE 07/29/97 14:27 Page:4

  ****  Segment refs  ****

  Flags:  r = read only, s = secondary
Flgs Name                             Flgs Name                             Flgs Name
     ISSID
PL6.E3A0      #001=DDZ$CMDUMP File=DDZ$CMDUMP.:E05TSI                            TUE 07/29/97 14:27 Page:5


        1        1        /*M* DDZ$CMDUMP Command build buffer dumping program for DELTA */
        2        2        /*T***********************************************************/
        3        3        /*T*                                                         */
        4        4        /*T* Copyright (c) Bull HN Information Systems Inc., 1997    */
        5        5        /*T*                                                         */
        6        6        /*T***********************************************************/
        7        7        DDZ$CMDUMP: PROC(START$,END$);

      7  0 000000   000000 700200 xent  DDZ$CMDUMP   TSX0  ! X66_AUTO_2
         0 000001   000040 000002                    ZERO    32,2

        8        8    1   DCL START$ PTR;
        9        9    1   DCL END$ PTR;
       10       10    1   DCL DDB$BREAK ENTRY(0) ALTRET;
       11       11    1   DCL DDQ$WRITE ENTRY(2);
       12       12    1   DCL DDR$BINOCT ENTRY(2);
       13       13    1   DCL WRD(0:0) SBIN BASED;
       14       14    1   DCL T1 UBIN(36);
       15       15    1   DCL T2 UBIN(36);
       16       16    1   DCL OBUF CHAR(80);
       17       17    1   DCL ABUF(0:79) REDEF OBUF CHAR(1);
       18       18        %INCLUDE XUH_MACRO_C;
       19      102        %INCLUDE DD_SD_M;
       20     1438        %S_D;
       21     2756    1        T2 = POFFW(END$,START$);

   2756  0 000002   200003 470500                    LDP0    @START$,,AUTO
         0 000003   000000 236100                    LDQ     0,,PR0
         0 000004   000022 772000                    QRL     18
         0 000005   200034 756100                    STQ     OBUF+21,,AUTO
         0 000006   200004 471500                    LDP1    @END$,,AUTO
         0 000007   100000 236100                    LDQ     0,,PR1
         0 000010   000022 772000                    QRL     18
         0 000011   200034 136100                    SBLQ    OBUF+21,,AUTO
         0 000012   200006 756100                    STQ     T2,,AUTO

PL6.E3A0      #001=DDZ$CMDUMP File=DDZ$CMDUMP.:E05TSI                            TUE 07/29/97 14:27 Page:6
       22     2757    2        DO T1 = 0 TO T2;

   2757  0 000013   200005 450100                    STZ     T1,,AUTO
         0 000014   000074 710000 0                  TRA     s:2765+3

       23     2758    2             CALL DDB$BREAK ALTRET(RETN);

   2758  0 000015   000002 631400 xsym               EPPR1   B_VECTNIL+2
         0 000016   000000 701000 xent               TSX1    DDB$BREAK
         0 000017   000077 702000 0                  TSX2    RETN

       24     2759    2             OBUF = ' ';

   2759  0 000020   040100 100400                    MLR     fill='040'O
         0 000021   000035 000001 xsym               ADSC9   B_VECTNIL+29             cn=0,n=1
         0 000022   200007 000120                    ADSC9   OBUF,,AUTO               cn=0,n=80

       25     2760    2             CALL DDR$BINOCT(OBUF, T1);

   2760  0 000023   200005 630500                    EPPR0   T1,,AUTO
         0 000024   200035 450500                    STP0    OBUF+22,,AUTO
         0 000025   200007 631500                    EPPR1   OBUF,,AUTO
         0 000026   200034 451500                    STP1    OBUF+21,,AUTO
         0 000027   200034 630500                    EPPR0   OBUF+21,,AUTO
         0 000030   000020 631400 xsym               EPPR1   B_VECTNIL+16
         0 000031   000000 701000 xent               TSX1    DDR$BINOCT
         0 000032   000000 011000                    NOP     0

       26     2761    2             ABUF(13) = '-';

   2761  0 000033   000055 236003                    LDQ     45,DU
         0 000034   200012 552120                    STBQ    OBUF+3,'20'O,AUTO

       27     2762    2             CALL DDR$BINOCT(ABUF(15), START$ -> WRD(T1));

   2762  0 000035   200003 470500                    LDP0    @START$,,AUTO
         0 000036   000000 471500                    LDP1    0,,PR0
PL6.E3A0      #001=DDZ$CMDUMP File=DDZ$CMDUMP.:E05TSI                            TUE 07/29/97 14:27 Page:7
         0 000037   200005 720100                    LXL0    T1,,AUTO
         0 000040   100000 633510                    EPPR3   0,X0,PR1
         0 000041   200035 453500                    STP3    OBUF+22,,AUTO
         0 000042   200036 452500                    STP2    OBUF+23,,AUTO
         0 000043   200036 236100                    LDQ     OBUF+23,,AUTO
         0 000044   000000 036000 1                  ADLQ    0
         0 000045   200034 756100                    STQ     OBUF+21,,AUTO
         0 000046   200034 630500                    EPPR0   OBUF+21,,AUTO
         0 000047   000020 631400 xsym               EPPR1   B_VECTNIL+16
         0 000050   000000 701000 xent               TSX1    DDR$BINOCT
         0 000051   000000 011000                    NOP     0

       28     2763    2             S_D.OUTPUT = SUBSTR( OBUF, 10, 17 );

   2763  0 000052   000000 470400 xsym               LDP0    S_D$
         0 000053   040100 100500                    MLR     fill='040'O
         0 000054   200011 400021                    ADSC9   OBUF+2,,AUTO             cn=2,n=17
         0 000055   005335 004000                    ADSC9   2781,,PR0                cn=0,n=2048

       29     2764    2             CALL DDQ$WRITE(ADDR(S_D.OUTPUT), 17);

   2764  0 000056   000000 236000 xsym               LDQ     S_D$
         0 000057   005335 036003                    ADLQ    2781,DU
         0 000060   200034 756100                    STQ     OBUF+21,,AUTO
         0 000061   000002 236000 1                  LDQ     2
         0 000062   200037 756100                    STQ     OBUF+24,,AUTO
         0 000063   200034 631500                    EPPR1   OBUF+21,,AUTO
         0 000064   200036 451500                    STP1    OBUF+23,,AUTO
         0 000065   200036 630500                    EPPR0   OBUF+23,,AUTO
         0 000066   000020 631400 xsym               EPPR1   B_VECTNIL+16
         0 000067   000000 701000 xent               TSX1    DDQ$WRITE
         0 000070   000000 011000                    NOP     0

       30     2765    2             END;

   2765  0 000071   200005 235100                    LDA     T1,,AUTO
         0 000072   000001 035007                    ADLA    1,DL
PL6.E3A0      #001=DDZ$CMDUMP File=DDZ$CMDUMP.:E05TSI                            TUE 07/29/97 14:27 Page:8
         0 000073   200005 755100                    STA     T1,,AUTO
         0 000074   200006 236100                    LDQ     T2,,AUTO
         0 000075   200005 116100                    CMPQ    T1,,AUTO
         0 000076   000015 603000 0                  TRC     s:2758

   2763  0 000077                       RETN         null
       31     2766    1   RETN: ;
       32     2767    1        RETURN;

   2767  0 000077   000000 702200 xent               TSX2  ! X66_ARET

(unnamed)
 Sect OctLoc
   1     000   000012 600000   000000 000021   000001 006000                    ............
       33     2768    1   END DDZ$CMDUMP;

PL6.E3A0      #001=DDZ$CMDUMP File=DDZ$CMDUMP.:E05TSI                            TUE 07/29/97 14:27 Page:9
--  Include file information  --

   DD_SD_M.:E05TOU  is referenced.
   XUH_MACRO_C.:E05TOU  is referenced.
   B$JIT_C.:E05TOU  was found in the system file and is never referenced.
   CP_6_C.:E05TOU  was found in the system file and is never referenced.
      No diagnostics issued in procedure DDZ$CMDUMP.

   Procedure DDZ$CMDUMP requires 64 words for executable code.
   Procedure DDZ$CMDUMP requires 32 words of local(AUTO) storage.

    No errors detected in file DDZ$CMDUMP.:E05TSI    .
PL6.E3A0      #001=DDZ$CMDUMP File=DDZ$CMDUMP.:E05TSI                            TUE 07/29/97 14:27 Page:10
          *** CROSS REFERENCE LISTING ***
**     DENOTES     IDENTIFIER DEFINITION
<<                 IDENTIFIER'S VALUE SET
>>                 IDENTIFIER'S VALUE USED
<>                 IDENTIFIER SET AND/OR USED
--                 IDENTIFIER REFERENCED
PL6.E3A0      #001=DDZ$CMDUMP File=DDZ$CMDUMP.:E05TSI                            TUE 07/29/97 14:27 Page:11
          MINI XREF LISTING

ABUF
        17**DCL      2761<<ASSIGN   2762<>CALL
DDB$BREAK
        10**DCL-ENT  2758--CALL
DDQ$WRITE
        11**DCL-ENT  2764--CALL
DDR$BINOCT
        12**DCL-ENT  2760--CALL     2762--CALL
END$
         9**DCL         7--PROC     2756>>ASSIGN
OBUF
        16**DCL        17--REDEF    2759<<ASSIGN   2760<>CALL     2763>>ASSIGN
RETN
      2763**LABEL    2758--CALLALT
START$
         8**DCL         7--PROC     2756>>ASSIGN   2762>>CALL
S_D.CURRENT_CHANNEL
      2390**DCL      2392--REDEF
S_D.DEBUGA
      1542**DCL      1544--REDEF
S_D.EIS
      2500**DCL      2529--REDEF
S_D.HOST_MESSAGE_BUF_REMOTE
      2433**DCL      2434--REDEF    2448--REDEF
S_D.JDE
      2047**DCL      2048--REDEF
S_D.L$.VALUE
      1600**DCL      1606--REDEF    1614--REDEF    1617--REDEF    1620--REDEF    1623--REDEF
S_D.L$.VALUE.L
      1601**DCL      1602--REDEF    1603--REDEF
S_D.L6_MESSAGE_BUF
      2454**DCL      2456--REDEF
PL6.E3A0      #001=DDZ$CMDUMP File=DDZ$CMDUMP.:E05TSI                            TUE 07/29/97 14:27 Page:12
S_D.OUTPUT
      2420**DCL      2422--REDEF    2763<<ASSIGN   2764--CALL
S_D.REMOTE_MSG.FNCC
      2439**DCL      2440--REDEF
S_D.REMOTE_MSG.STXC
      2435**DCL      2436--REDEF
S_D.REMOTE_MSG.SUBFNCC
      2443**DCL      2444--REDEF
S_D.SV
      1499**DCL      1520--REDEF
S_D$
      2751**DCL      1447--IMP-PTR  2763>>ASSIGN   2764>>CALL
T1
        14**DCL      2757<<DOINDEX  2760<>CALL     2762>>CALL
T2
        15**DCL      2756<<ASSIGN   2757>>DOINDEX
WRD
        13**DCL      2762<>CALL
PL6.E3A0      #001=DDZ$CMDUMP File=DDZ$CMDUMP.:E05TSI                            TUE 07/29/97 14:27 Page:13
              *** CROSS REFERENCE LISTING ***
    **     DENOTES     IDENTIFIER DEFINITION
    <<                 IDENTIFIER'S VALUE SET
    >>                 IDENTIFIER'S VALUE USED
    <>                 IDENTIFIER SET AND/OR USED
    --                 IDENTIFIER REFERENCED
PL6.E3A0      #001=DDZ$CMDUMP File=DDZ$CMDUMP.:E05TSI                            TUE 07/29/97 14:27 Page:14
              MINI UREF LISTING

DDZ$CMDUMP       7**PROC
