VERSION E05

PL6.E3A0      #001=DD$DTYP_D File=DD_DTYP_D.:E05TSI                              TUE 07/29/97 14:27 Page:1
        1        1        /*M* DD_DTYP_D - ALL INFORMATION RELATING TO VARIABLE DATA TYPE INFO */
        2        2        /*T***********************************************************/
        3        3        /*T*                                                         */
        4        4        /*T* Copyright (c) Bull HN Information Systems Inc., 1997    */
        5        5        /*T*                                                         */
        6        6        /*T***********************************************************/
        7        7        /*X* DMR,PLM=5,IND=5,CSU=3,EXM=0,ECU=3,MOC,DCI=5,CRT=5 */
        8        8        DD$DTYP_D:PROC;
        9        9             %INCLUDE DD$DITEM;
       12+     112             %LIST;
       13+     113    1        DCL SDD$ PTR;
       14+     114    1        DCL ZITEM$ PTR;
       15+     115    1        DCL SDD_L6$ PTR;
       16+     116    1        DCL ZITEM_L6$ PTR;
       10      690    1   DCL FMT(0:63) SBIN CONSTANT SYMDEF INIT(
       11      691    1             %CANT_FMT,                    /* 0 */
       12      692    1             %SINT_FMT,                    /* 1 */
       13      693    1             %OCT_FMT,                     /* 2 */
       14      694    1             %FLOAT_FMT*2,                 /* 3 - 4 */
       15      695    1             %OCT_FMT*2,                   /* 5 - 6 */
       16      696    1             %CMPXFORT_FMT*2,              /* 7 - 8 */
       17      697    1             %PUP_FMT,                     /* 9 */
       18      698    1             %CANT_FMT*3,                  /* 10 - 12 */
       19      699    1             %PTR_FMT,                     /* 13 */
       20      700    1             %CANT_FMT,                    /* 14 */
       21      701    1             %OCT_FMT*2,                   /* 15 - 16 */
       22      702    1             %CANT_FMT*2,                  /* 17 - 18 */
       23      703    1             %BIT_FMT,                     /* 19 */
       24      704    1             %CANT_FMT,                    /* 20 */
       25      705    1             %CHAR_FMT,                    /* 21 */
       26      706    1             %CANT_FMT*2,                  /* 22 - 23 */
       27      707    1             %UINT_FMT,                    /* 24 */
       28      708    1             %PUP_FMT,                     /* 25 */
       29      709    1             %CHAR_FMT,                    /* 26 */
       30      710    1             %OCT_FMT,                     /* 27 */
       31      711    1             %EPTR_FMT,                    /* 28 */
       32      712    1             %COMP1_FMT,                   /* 29 */
PL6.E3A0      #001=DD$DTYP_D File=DD_DTYP_D.:E05TSI                              TUE 07/29/97 14:27 Page:2
       33      713    1             %COMP2_FMT,                   /* 30 */
       34      714    1             %PUP_FMT,                     /* 31 */
       35      715    1             %INDX1_FMT,                   /* 32 */
       36      716    1             %INDX2_FMT,                   /* 33 */
       37      717    1             %CANT_FMT,                    /* 34 */
       38      718    1             %LOGFORT_FMT,                 /* 35 */
       39      719    1             %CANT_FMT*4,                  /* 36 - 39 */
       40      720    1             %PUP_FMT*6,                   /* 40 - 45 */
       41      721    1             %CANT_FMT,                    /* 46 */
       42      722    1             %VECTOR_FMT,                  /* 47 */
       43      723    1             %REMEMBER_FMT,                /* 48 */
       44      724    1             %DESC_FMT,                    /* 49 */
       45      725    1             %CANT_FMT*5,                  /* 50 - 54 */
       46      726    1             %INST_FMT,                    /* 55 */
       47      727    1             %OCT_FMT,                     /* 56 */
       48      728    1             %X_FMT,                       /* 57 */
       49      729    1             %CANT_FMT*6);                 /* 58 - 63 */
       50      730    1   END;

PL6.E3A0      #001=DD$DTYP_D File=DD_DTYP_D.:E05TSI                              TUE 07/29/97 14:27 Page:3
--  Include file information  --

   DD_SRTN_C.:E05TOU  is referenced.
   DD_ACODE_C.:E05TOU  is referenced.
   DD_ICODE_C.:E05TOU  is referenced.
   DD$DITEM.:E05TOU  cannot be made into a system file and is referenced.
   B$JIT_C.:E05TOU  was found in the system file and is never referenced.
   CP_6_C.:E05TOU  was found in the system file and is never referenced.
      No diagnostics issued in procedure DD$DTYP_D.

   No code generated for procedure DD$DTYP_D .
   Procedure DD$DTYP_D requires 8 words of local(AUTO) storage.

    No errors detected in file DD_DTYP_D.:E05TSI    .

PL6.E3A0      #001=DD$DTYP_D File=DD_DTYP_D.:E05TSI                              TUE 07/29/97 14:27 Page:4

 Object Unit name= DD$DTYP_D                                  File name= DD_DTYP_D.:E05TOU
 UTS= JUL 29 '97 14:27:20.16 TUE                              Compiler= PL-6/E31         Sev=      00
 SharedLib= :SHARED_SYSTEM                                    Alt SharedLib=


    ****  Control sections  ****

 Sect   Type Bound  Init  Size OctSiz  Section name(segment info)
    0  RoData even  UTS     64    100  DD$DTYP_D
    1   Proc  even  none     0      0  DD$DTYP_D

    ****  Entry defs  ****

                              Check   Calling
                             calling  sequence
  Sect OctLoc Primary Altret sequence   type   Parms  Name
     1      0   yes            yes     ~proc       0  DD$DTYP_D

  ****  Data defs  ****

 Sect OctLoc  Name                           Sect OctLoc  Name
    0      0  FMT
PL6.E3A0      #001=DD$DTYP_D File=DD_DTYP_D.:E05TSI                              TUE 07/29/97 14:27 Page:5


(unnamed)
 Sect OctLoc
   0     000   000000 000036   000000 000003   000000 000001   000000 000020    ................
   0     004   000000 000020   000000 000001   000000 000001   000000 000032    ................
   0     010   000000 000032   000000 000035   000000 000036   000000 000036    ................
   0     014   000000 000036   000000 000007   000000 000036   000000 000001    ................
   0     020   000000 000001   000000 000036   000000 000036   000000 000005    ................
   0     024   000000 000036   000000 000004   000000 000036   000000 000036    ................
   0     030   000000 000002   000000 000035   000000 000004   000000 000001    ................
   0     034   000000 000012   000000 000040   000000 000026   000000 000035    ....... ........
   0     040   000000 000033   000000 000034   000000 000036   000000 000031    ................
   0     044   000000 000036   000000 000036   000000 000036   000000 000036    ................
   0     050   000000 000035   000000 000035   000000 000035   000000 000035    ................
   0     054   000000 000035   000000 000035   000000 000036   000000 000014    ................
   0     060   000000 000000   000000 000010   000000 000036   000000 000036    ................
   0     064   000000 000036   000000 000036   000000 000036   000000 000006    ................
   0     070   000000 000001   000000 000015   000000 000036   000000 000036    ................
   0     074   000000 000036   000000 000036   000000 000036   000000 000036    ................
        1        1        /*M* DD_DTYP_D - ALL INFORMATION RELATING TO VARIABLE DATA TYPE INFO */
        2        2        /*T***********************************************************/
        3        3        /*T*                                                         */
        4        4        /*T* Copyright (c) Bull HN Information Systems Inc., 1997    */
        5        5        /*T*                                                         */
        6        6        /*T***********************************************************/
        7        7        /*X* DMR,PLM=5,IND=5,CSU=3,EXM=0,ECU=3,MOC,DCI=5,CRT=5 */
        8        8        DD$DTYP_D:PROC;
        9        9             %INCLUDE DD$DITEM;
       12+     112             %LIST;
       13+     113    1        DCL SDD$ PTR;
       14+     114    1        DCL ZITEM$ PTR;
       15+     115    1        DCL SDD_L6$ PTR;
       16+     116    1        DCL ZITEM_L6$ PTR;
       10      690    1   DCL FMT(0:63) SBIN CONSTANT SYMDEF INIT(
       11      691    1             %CANT_FMT,                    /* 0 */
       12      692    1             %SINT_FMT,                    /* 1 */
       13      693    1             %OCT_FMT,                     /* 2 */
PL6.E3A0      #001=DD$DTYP_D File=DD_DTYP_D.:E05TSI                              TUE 07/29/97 14:27 Page:6
       14      694    1             %FLOAT_FMT*2,                 /* 3 - 4 */
       15      695    1             %OCT_FMT*2,                   /* 5 - 6 */
       16      696    1             %CMPXFORT_FMT*2,              /* 7 - 8 */
       17      697    1             %PUP_FMT,                     /* 9 */
       18      698    1             %CANT_FMT*3,                  /* 10 - 12 */
       19      699    1             %PTR_FMT,                     /* 13 */
       20      700    1             %CANT_FMT,                    /* 14 */
       21      701    1             %OCT_FMT*2,                   /* 15 - 16 */
       22      702    1             %CANT_FMT*2,                  /* 17 - 18 */
       23      703    1             %BIT_FMT,                     /* 19 */
       24      704    1             %CANT_FMT,                    /* 20 */
       25      705    1             %CHAR_FMT,                    /* 21 */
       26      706    1             %CANT_FMT*2,                  /* 22 - 23 */
       27      707    1             %UINT_FMT,                    /* 24 */
       28      708    1             %PUP_FMT,                     /* 25 */
       29      709    1             %CHAR_FMT,                    /* 26 */
       30      710    1             %OCT_FMT,                     /* 27 */
       31      711    1             %EPTR_FMT,                    /* 28 */
       32      712    1             %COMP1_FMT,                   /* 29 */
       33      713    1             %COMP2_FMT,                   /* 30 */
       34      714    1             %PUP_FMT,                     /* 31 */
       35      715    1             %INDX1_FMT,                   /* 32 */
       36      716    1             %INDX2_FMT,                   /* 33 */
       37      717    1             %CANT_FMT,                    /* 34 */
       38      718    1             %LOGFORT_FMT,                 /* 35 */
       39      719    1             %CANT_FMT*4,                  /* 36 - 39 */
       40      720    1             %PUP_FMT*6,                   /* 40 - 45 */
       41      721    1             %CANT_FMT,                    /* 46 */
       42      722    1             %VECTOR_FMT,                  /* 47 */
       43      723    1             %REMEMBER_FMT,                /* 48 */
       44      724    1             %DESC_FMT,                    /* 49 */
       45      725    1             %CANT_FMT*5,                  /* 50 - 54 */
       46      726    1             %INST_FMT,                    /* 55 */
       47      727    1             %OCT_FMT,                     /* 56 */
       48      728    1             %X_FMT,                       /* 57 */
       49      729    1             %CANT_FMT*6);                 /* 58 - 63 */
       50      730    1   END;
PL6.E3A0      #001=DD$DTYP_D File=DD_DTYP_D.:E05TSI                              TUE 07/29/97 14:27 Page:7

PL6.E3A0      #001=DD$DTYP_D File=DD_DTYP_D.:E05TSI                              TUE 07/29/97 14:27 Page:8
--  Include file information  --

   DD_SRTN_C.:E05TOU  is referenced.
   DD_ACODE_C.:E05TOU  is referenced.
   DD_ICODE_C.:E05TOU  is referenced.
   DD$DITEM.:E05TOU  cannot be made into a system file and is referenced.
   B$JIT_C.:E05TOU  was found in the system file and is never referenced.
   CP_6_C.:E05TOU  was found in the system file and is never referenced.
      No diagnostics issued in procedure DD$DTYP_D.

   No code generated for procedure DD$DTYP_D .
   Procedure DD$DTYP_D requires 8 words of local(AUTO) storage.

    No errors detected in file DD_DTYP_D.:E05TSI    .
PL6.E3A0      #001=DD$DTYP_D File=DD_DTYP_D.:E05TSI                              TUE 07/29/97 14:27 Page:9
          *** CROSS REFERENCE LISTING ***
**     DENOTES     IDENTIFIER DEFINITION
<<                 IDENTIFIER'S VALUE SET
>>                 IDENTIFIER'S VALUE USED
<>                 IDENTIFIER SET AND/OR USED
--                 IDENTIFIER REFERENCED
PL6.E3A0      #001=DD$DTYP_D File=DD_DTYP_D.:E05TSI                              TUE 07/29/97 14:27 Page:10
          MINI XREF LISTING

PL6.E3A0      #001=DD$DTYP_D File=DD_DTYP_D.:E05TSI                              TUE 07/29/97 14:27 Page:11
          *** CROSS REFERENCE LISTING ***
**     DENOTES     IDENTIFIER DEFINITION
<<                 IDENTIFIER'S VALUE SET
>>                 IDENTIFIER'S VALUE USED
<>                 IDENTIFIER SET AND/OR USED
--                 IDENTIFIER REFERENCED
PL6.E3A0      #001=DD$DTYP_D File=DD_DTYP_D.:E05TSI                              TUE 07/29/97 14:27 Page:12
          MINI UREF LISTING

DD$DTYP_D       8**PROC
FMT     690**DCL
SDD$     113**DCL
SDD_L6$     115**DCL
ZITEM$     114**DCL
ZITEM_L6$     116**DCL
