VERSION E05

 14:27 07/29/97  FILE=DD_OP_D.:E05TSI                                                                    1    BMAP - B00
                                         1  *M* DD_OP_D - L66 op code tables.
                                         2  *T***********************************************************
                                         3  *T*                                                         *
                                         4  *T* Copyright (c) Bull HN Information Systems Inc., 1997    *
                                         5  *T*                                                         *
                                         6  *T***********************************************************
                                         7  *D* NAME: DD_OP_D
                                         8  *
                                         9  * MACRO TO GENERATE OP CODE TABLE
                                        10  *
                                        11  *  OP   CODE(9),BIT10(1),OPE1(2),OPE2(2),TYPE(3),MNEMONIC(6*9),
                                        12  *         LENGTH(3),INFO-FILL/MASK/BOLR/F/RD/T/P/OCTAL-Y/AWDX/STCA(7),
                                        13  *         DESC1(3),DESC2(3),DESC3(3)
                                        14  *
                                        15  OP MACRO
                                        16     VFD  2/#3,7/#8,2/#4,7/0,O9/#1,1/#2,5/#5,3/#7,A54/#6,3/#9,3/#10,3/#11,9/0
                                        17     ENDM OP
                                        18  *
                                        19  * AN ENTRY IN THE OP CODE TABLE IS THREE WORDS LONG CONSISTING OF:
                                        20  *
                                        21  *                      OPE1 (DPS90 VECTOR INSTR ONLY)
                                        22  *                      EIS_FLAGS BIT(7)
             000000000100               23  FILL EQU 64              . FILL
             000000000040               24  MASK EQU 32              . MASK
             000000000020               25  BOLR EQU 16              . BOLR
             000000000010               26  F    EQU  8              . F
             000000000004               27  RD   EQU  4              . RD
             000000000002               28  P    EQU  2              . P
             000000000001               29  T    EQU  1              . T
                                        30  *                      NIS_FLAGS REDEF EIS_FLAGS
             000000000100               31  OCTLY EQU 64             . OCTAL Y-FIELD BIT(1)
             000000000040               32  AWX   EQU 32             . LIKE AWDX BIT(1)
             000000000020               33  STC   EQU 16             . LIKE STCA BIT(1)
                                        34  *                      OPE2 (DPS90 VECTOR INSTR ONLY)
                                        35  *                      UNUSED BIT(7)
                                        36  *                      OP CODE BIT(9)
                                        37  *                      OP CODE EXTENSION BIT(1)
 14:27 07/29/97  FILE=DD_OP_D.:E05TSI                                                                    2    BMAP - B00
                                        38  *                      TYPE BIT(5)
             000000000001               39  EIS EQU 1                . EIS
             000000000002               40  UTR EQU 2                . UTR (UNCONDITIONAL TRANSFER)
             000000000003               41  CTR EQU 3                . CTR (CONDITIONAL TRANSFER)
             000000000004               42  SPE EQU 4                . SPE (SPECIAL)
                                        43  *N*                            XEC, XED, REPEAT, CLIMB ?
             000000000005               44  OTH EQU 5                . OTH (OTHER)
             000000000006               45  INP EQU 6                . INP (INPUT ONLY (IE. DESCRIPTORS))
                                        46  *                      LENGTH UBIN(3)
                                        47  *                      MNEMONIC CHAR(6)
                                        48  *                      DESC1 BIT(3)
             000000000001               49  ADSC  EQU 1              . ADSC
             000000000002               50  BDSC  EQU 2              . BDSC
             000000000003               51  NDSC  EQU 3              . NDSC
             000000000004               52  SDSC  EQU 4              . SDSC
             000000000005               53  VDSC  EQU 5              . VDSC
             000000000006               54  ARG   EQU 6              . ARG
             000000000007               55  CDSC  EQU 7              . CDSC  (climb descriptor - only on output)
             000000000007               56  ZERO  EQU 7              . ZERO  (only on input)
             000000000010               57  PTR   EQU 8              . PTR
                                        58  *                      DESC2 BIT(3)
                                        59  *                      DESC3 BIT(3)
                                        60  *                      UNUSED BIT(9)
                                        61  *
                                        62  *
                                        63           ENTDEF   DD_OP_D
                                        64  *
 0 000000                               65           USE      DD_OP_D,6
                                        66  *
          (0)000000000000               67  DD_OP_D  EQU      *
                                        68  *
                                        69       ENTDEF DDB$MNEM_TO_INSTR
                                        70       ENTDEF DDB$OCTAL_TO_INSTR
                                        71
             000000000000               72  PR0     EQU     0
             000000000003               73  PR3     EQU     3
             000000000004               74  PR4     EQU     4
 14:27 07/29/97  FILE=DD_OP_D.:E05TSI                                                                    3    BMAP - B00
                                        75
          (0)000000000000               76  DDB$OCTAL_TO_INSTR EQU *
   000000    0 00000 4735 00            77          LDP3    0,,PR0
   000001    0 00001 4745 00            78          LDP4    1,,PR0
   000002    3 00000 2351 00            79          LDA     0,,PR3
   000003    777401 3360 07             80          LCQ     =O777401,DL      * Q = Mask for 10 bits of opcode
   000004    003572 2200 03             81          LDX0    DDB$OP_CODES_LEN,DU
   000005    000000 6220 05             82          EAX2    0,AL              * if we have a vector instruction
   000006    006000 2020 03             83          CNAX2   =O006000,DU       * we want to have more mask to check
   000007 (0)000014 6000 00             84          TZE     OCTAL_LOOP
   000010    770400 3620 03             85          ANX2    =O770400,DU
   000011    010400 1020 03             86          CMPX2   =O010400,DU
   000012 (0)000014 6010 00             87          TNZ     OCTAL_LOOP
   000013    600600 6760 03             88          ERQ     =O600600,DU       * its a vector instruction, fix mask
          (0)000000000014               89  OCTAL_LOOP      EQU *
   000014    000003 1600 03             90          SBX0    3,DU
   000015    000000 6040 11             91          TMI     0,X1              * couldn't find MNEMONIC - ALTRETurn
   000016 (0)000043 2110 10             92          CMK     DDB$OP_CODES,X0
   000017 (0)000014 6010 00             93          TNZ     OCTAL_LOOP
                                        94
          (0)000000000020               95  GOT_INSTR       EQU *
   000020 (0)000043 2350 10             96          LDA     DDB$OP_CODES,X0
   000021    4 00000 7551 00            97          STA     0,,PR4
   000022 (0)000044 2350 10             98          LDA     DDB$OP_CODES+1,X0
   000023    4 00001 7551 00            99          STA     1,,PR4
   000024 (0)000045 2350 10            100          LDA     DDB$OP_CODES+2,X0
   000025    4 00002 7551 00           101          STA     2,,PR4
   000026    000001 7100 11            102          TRA     1,X1
                                       103
          (0)000000000027              104  DDB$MNEM_TO_INSTR EQU *
   000027    0 00000 4735 00           105          LDP3    0,,PR0
   000030    0 00001 4745 00           106          LDP4    1,,PR0
   000031    3 00000 2351 00           107          LDA     0,,PR3            * load first 4 chars of MNEMonic
   000032    3 00001 2221 00           108          LDX2    1,,PR3            * X2 = last 2 chars of MNEMonic
   000033    003636 2200 03            109          LDX0    DDB$OP_NAMES_LEN,DU
          (0)000000000034              110  MNEM_LOOP       EQU *
   000034    000003 1600 03            111          SBX0    3,DU
 14:27 07/29/97  FILE=DD_OP_D.:E05TSI                                                                    4    BMAP - B00
   000035    000000 6040 11            112          TMI     0,X1              * couldn't find MNEMONIC - ALTRETurn
   000036 (0)000044 1150 10            113          CMPA    DDB$OP_CODES+1,X0
   000037 (0)000034 6010 00            114          TNZ     MNEM_LOOP
   000040 (0)000045 1020 10            115          CMPX2   DDB$OP_CODES+2,X0
   000041 (0)000034 6010 00            116          TNZ     MNEM_LOOP
                                       117
   000042 (0)000020 7100 00            118          TRA     GOT_INSTR         * we found it, so return it
                                       119
          (0)000000000043              120  DDB$OP_CODES EQU *
   000043    0 100 0 000 001 0 05 1    121          OP      001,0,0,0,OTH,MME,1,OCTLY
   000044    115115105040
   000045    040040 0 0 0 000
   000046    0 100 0 000 002 0 05 1    122          OP      002,0,0,0,OTH,DRL,1,OCTLY
   000047    104122114040
   000050    040040 0 0 0 000
   000051    0 000 0 000 004 1 01 4    123          OP      004,1,0,0,EIS,MVNEX,4,,NDSC,ADSC,NDSC
   000052    115126116105
   000053    130040 3 1 3 000
   000054    0 000 0 000 011 0 05 1    124          OP      011,0,0,0,OTH,NOP,1
   000055    116117120040
   000056    040040 0 0 0 000
   000057    0 100 0 000 011 1 05 1    125          OP      011,1,0,0,OTH,CCAC,1,OCTLY
   000060    103103101103
   000061    040040 0 0 0 000
   000062    0 100 0 000 012 0 05 1    126          OP      012,0,0,0,OTH,PULS1,1,OCTLY
   000063    120125114123
   000064    061040 0 0 0 000
   000065    0 000 0 000 012 1 01 4    127          OP      012,1,0,0,EIS,VFAD,4,,VDSC,VDSC,VDSC
   000066    126106101104
   000067    040040 5 5 5 000
   000070    0 000 1 000 012 1 01 4    128          OP      012,1,0,1,EIS,VFSB,4,,VDSC,VDSC,VDSC
   000071    126106123102
   000072    040040 5 5 5 000
   000073    0 000 2 000 012 1 01 4    129          OP      012,1,0,2,EIS,VFMP,4,,VDSC,VDSC,VDSC
   000074    126106115120
   000075    040040 5 5 5 000
   000076    0 000 3 000 012 1 01 4    130          OP      012,1,0,3,EIS,VFDV,4,,VDSC,VDSC,VDSC
 14:27 07/29/97  FILE=DD_OP_D.:E05TSI                                                                    5    BMAP - B00
   000077    126106104126
   000100    040040 5 5 5 000
   000101    1 000 0 000 012 1 01 2    131          OP      012,1,1,0,EIS,VFSM,2,,VDSC
   000102    126106123115
   000103    040040 5 0 0 000
   000104    1 000 1 000 012 1 01 2    132          OP      012,1,1,1,EIS,VFSN,2,,VDSC
   000105    126106123116
   000106    040040 5 0 0 000
   000107    1 000 2 000 012 1 01 3    133          OP      012,1,1,2,EIS,VFIP,3,,VDSC,VDSC
   000110    126106111120
   000111    040040 5 5 0 000
   000112    1 000 3 000 012 1 01 3    134          OP      012,1,1,3,EIS,VFIPN,3,,VDSC,VDSC
   000113    126106111120
   000114    116040 5 5 0 000
   000115    2 000 0 000 012 1 01 3    135          OP      012,1,2,0,EIS,VFMA,3,,VDSC,VDSC,VDSC
   000116    126106115101
   000117    040040 5 5 5 000
   000120    2 000 1 000 012 1 01 4    136          OP      012,1,2,1,EIS,VFSN,4,,VDSC,VDSC,VDSC
   000121    126106123116
   000122    040040 5 5 5 000
   000123    2 000 2 000 012 1 01 4    137          OP      012,1,2,2,EIS,VFIT,4,,VDSC,VDSC,VDSC
   000124    126106111124
   000125    040040 5 5 5 000
   000126    2 000 3 000 012 1 01 4    138          OP      012,1,2,3,EIS,VFITN,4,,VDSC,VDSC,VDSC
   000127    126106111124
   000130    116040 5 5 5 000
   000131    0 100 0 000 013 0 05 1    139          OP      013,0,0,0,OTH,PULS2,1,OCTLY
   000132    120125114123
   000133    062040 0 0 0 000
   000134    0 000 0 000 013 1 01 4    140          OP      013,1,0,0,EIS,VDFAD,4,,VDSC,VDSC,VDSC
   000135    126104106101
   000136    104040 5 5 5 000
   000137    0 000 1 000 013 1 01 4    141          OP      013,1,0,1,EIS,VDFSB,4,,VDSC,VDSC,VDSC
   000140    126104106123
   000141    102040 5 5 5 000
   000142    0 000 2 000 013 1 01 4    142          OP      013,1,0,2,EIS,VDFMP,4,,VDSC,VDSC,VDSC
   000143    126104106115
 14:27 07/29/97  FILE=DD_OP_D.:E05TSI                                                                    6    BMAP - B00
   000144    120040 5 5 5 000
   000145    0 000 3 000 013 1 01 4    143          OP      013,1,0,3,EIS,VDFDV,4,,VDSC,VDSC,VDSC
   000146    126104106104
   000147    126040 5 5 5 000
   000150    1 000 0 000 013 1 01 2    144          OP      013,1,1,0,EIS,VDFSM,2,,VDSC
   000151    126104106123
   000152    115040 5 0 0 000
   000153    1 000 1 000 013 1 01 2    145          OP      013,1,1,1,EIS,VDFSN,2,,VDSC
   000154    126104106123
   000155    116040 5 0 0 000
   000156    1 000 2 000 013 1 01 3    146          OP      013,1,1,2,EIS,VDFIP,3,,VDSC,VDSC
   000157    126104106111
   000160    120040 5 5 0 000
   000161    1 000 3 000 013 1 01 3    147          OP      013,1,1,3,EIS,VDFIN,3,,VDSC,VDSC
   000162    126104106111
   000163    116040 5 5 0 000
   000164    2 000 0 000 013 1 01 3    148          OP      013,1,2,0,EIS,VDFMA,3,,VDSC,VDSC,VDSC
   000165    126104106115
   000166    101040 5 5 5 000
   000167    2 000 1 000 013 1 01 4    149          OP      013,1,2,1,EIS,VDFSN,4,,VDSC,VDSC,VDSC
   000170    126104106123
   000171    116040 5 5 5 000
   000172    2 000 2 000 013 1 01 4    150          OP      013,1,2,2,EIS,VDFIT,4,,VDSC,VDSC,VDSC
   000173    126104106111
   000174    124040 5 5 5 000
   000175    2 000 3 000 013 1 01 4    151          OP      013,1,2,3,EIS,VDFTN,4,,VDSC,VDSC,VDSC
   000176    126104106124
   000177    116040 5 5 5 000
   000200    0 000 0 000 014 1 01 3    152          OP      014,1,0,0,EIS,VFMSD,3,,VDSC,VDSC
   000201    126106115123
   000202    104040 5 5 0 000
   000203    0 000 1 000 014 1 01 3    153          OP      014,1,0,1,EIS,VFNG,3,,VDSC,VDSC
   000204    126106116107
   000205    040040 5 5 0 000
   000206    0 000 2 000 014 1 01 3    154          OP      014,1,0,2,EIS,VFMVP,3,,VDSC,VDSC
   000207    126106115126
   000210    120040 5 5 0 000
 14:27 07/29/97  FILE=DD_OP_D.:E05TSI                                                                    7    BMAP - B00
   000211    0 000 3 000 014 1 01 3    155          OP      014,1,0,3,EIS,VFMVN,3,,VDSC,VDSC
   000212    126106115126
   000213    116040 5 5 0 000
   000214    1 000 0 000 014 1 01 2    156          OP      014,1,1,0,EIS,VFMAX,2,,VDSC
   000215    126106115101
   000216    130040 5 0 0 000
   000217    1 000 1 000 014 1 01 2    157          OP      014,1,1,1,EIS,VFMIN,2,,VDSC
   000220    126106115111
   000221    116040 5 0 0 000
   000222    1 000 2 000 014 1 01 2    158          OP      014,1,1,2,EIS,VFMXG,2,,VDSC
   000223    126106115130
   000224    107040 5 0 0 000
   000225    1 000 3 000 014 1 01 2    159          OP      014,1,1,3,EIS,VFMIG,2,,VDSC
   000226    126106115111
   000227    107040 5 0 0 000
   000230    0 000 0 000 015 0 05 1    160          OP      015,0,0,0,OTH,CIOC,1
   000231    103111117103
   000232    040040 0 0 0 000
   000233    0 000 0 000 015 1 01 3    161          OP      015,1,0,0,EIS,VFMDS,3,,VDSC,VDSC
   000234    126106115104
   000235    123040 5 5 0 000
   000236    0 000 1 000 015 1 01 3    162          OP      015,1,0,1,EIS,VDFNG,3,,VDSC,VDSC
   000237    126104106116
   000240    107040 5 5 0 000
   000241    0 000 2 000 015 1 01 3    163          OP      015,1,0,2,EIS,VDFVP,3,,VDSC,VDSC
   000242    126104106126
   000243    120040 5 5 0 000
   000244    0 000 3 000 015 1 01 3    164          OP      015,1,0,3,EIS,VDFVN,3,,VDSC,VDSC
   000245    126104106126
   000246    116040 5 5 0 000
   000247    1 000 0 000 015 1 01 2    165          OP      015,1,1,0,EIS,VDFMX,2,,VDSC
   000250    126104106115
   000251    130040 5 0 0 000
   000252    1 000 1 000 015 1 01 2    166          OP      015,1,1,1,EIS,VDFMN,2,,VDSC
   000253    126104106115
   000254    116040 5 0 0 000
   000255    1 000 2 000 015 1 01 2    167          OP      015,1,1,2,EIS,VDFXG,2,,VDSC
 14:27 07/29/97  FILE=DD_OP_D.:E05TSI                                                                    8    BMAP - B00
   000256    126104106130
   000257    107040 5 0 0 000
   000260    1 000 3 000 015 1 01 2    168          OP      015,1,1,3,EIS,VDFIG,2,,VDSC
   000261    126104106111
   000262    107040 5 0 0 000
   000263    0 000 0 000 016 1 01 4    169          OP      016,1,0,0,EIS,VIAD,4,,VDSC,VDSC,VDSC
   000264    126111101104
   000265    040040 5 5 5 000
   000266    0 000 1 000 016 1 01 4    170          OP      016,1,0,1,EIS,VISB,4,,VDSC,VDSC,VDSC
   000267    126111123102
   000270    040040 5 5 5 000
   000271    0 000 2 000 016 1 01 4    171          OP      016,1,0,2,EIS,VIMP,4,,VDSC,VDSC,VDSC
   000272    126111115120
   000273    040040 5 5 5 000
   000274    1 000 0 000 016 1 01 2    172          OP      016,1,1,0,EIS,VISM,2,,VDSC
   000275    126111123115
   000276    040040 5 0 0 000
   000277    1 000 1 000 016 1 01 2    173          OP      016,1,1,1,EIS,VISN,2,,VDSC
   000300    126111123116
   000301    040040 5 0 0 000
   000302    1 000 2 000 016 1 01 3    174          OP      016,1,1,2,EIS,VIIP,3,,VDSC,VDSC
   000303    126111111120
   000304    040040 5 5 0 000
   000305    1 000 3 000 016 1 01 3    175          OP      016,1,1,3,EIS,VIIPN,3,,VDSC,VDSC
   000306    126111111120
   000307    116040 5 5 0 000
   000310    2 000 0 000 016 1 01 4    176          OP      016,1,2,0,EIS,VIMA,4,,VDSC,VDSC,VDSC
   000311    126111115101
   000312    040040 5 5 5 000
   000313    2 000 1 000 016 1 01 4    177          OP      016,1,2,1,EIS,VIMS,4,,VDSC,VDSC,VDSC
   000314    126111115123
   000315    040040 5 5 5 000
   000316    2 000 2 000 016 1 01 4    178          OP      016,1,2,2,EIS,VIIT,4,,VDSC,VDSC,VDSC
   000317    126111111124
   000320    040040 5 5 5 000
   000321    2 000 3 000 016 1 01 4    179          OP      016,1,2,3,EIS,VIITN,4,,VDSC,VDSC,VDSC
   000322    126111111124
 14:27 07/29/97  FILE=DD_OP_D.:E05TSI                                                                    9    BMAP - B00
   000323    116040 5 5 5 000
   000324    3 000 0 000 016 1 01 4    180          OP      016,1,3,0,EIS,VLAN,4,,VDSC,VDSC,VDSC
   000325    126114101116
   000326    040040 5 5 5 000
   000327    3 000 1 000 016 1 01 4    181          OP      016,1,3,1,EIS,VLOR,4,,VDSC,VDSC,VDSC
   000330    126114117122
   000331    040040 5 5 5 000
   000332    3 000 2 000 016 1 01 4    182          OP      016,1,3,2,EIS,VLER,4,,VDSC,VDSC,VDSC
   000333    126114105122
   000334    040040 5 5 5 000
   000335    0 000 1 000 017 1 01 3    183          OP      017,1,0,1,EIS,VING,3,,VDSC,VDSC
   000336    126111116107
   000337    040040 5 5 0 000
   000340    0 000 2 000 017 1 01 3    184          OP      017,1,0,2,EIS,VIMVP,3,,VDSC,VDSC
   000341    126111115126
   000342    120040 5 5 0 000
   000343    0 000 3 000 017 1 01 3    185          OP      017,1,0,3,EIS,VIMVN,3,,VDSC,VDSC
   000344    126111115126
   000345    116040 5 5 0 000
   000346    1 000 0 000 017 1 01 2    186          OP      017,1,1,0,EIS,VIMAX,2,,VDSC
   000347    126111115101
   000350    130040 5 0 0 000
   000351    1 000 1 000 017 1 01 2    187          OP      017,1,1,1,EIS,VIMIN,2,,VDSC
   000352    126111115111
   000353    116040 5 0 0 000
   000354    1 000 2 000 017 1 01 2    188          OP      017,1,1,2,EIS,VIMXG,2,,VDSC
   000355    126111115130
   000356    107040 5 0 0 000
   000357    1 000 3 000 017 1 01 2    189          OP      017,1,1,3,EIS,VIMIG,2,,VDSC
   000360    126111115111
   000361    107040 5 0 0 000
   000362    2 000 0 000 017 1 01 3    190          OP      017,1,2,0,EIS,VMVS,3,,VDSC,VDSC
   000363    126115126123
   000364    040040 5 5 0 000
   000365    2 000 1 000 017 1 01 3    191          OP      017,1,2,1,EIS,VMVD,3,,VDSC,VDSC
   000366    126115126104
   000367    040040 5 5 0 000
 14:27 07/29/97  FILE=DD_OP_D.:E05TSI                                                                    10   BMAP - B00
   000370    0 000 0 000 020 0 05 1    192          OP      020,0,0,0,OTH,ADLX0,1
   000371    101104114130
   000372    060040 0 0 0 000
   000373    0 000 0 000 020 1 01 4    193          OP      020,1,0,0,EIS,MVE,4,,ADSC,ADSC,ADSC
   000374    115126105040
   000375    040040 1 1 1 000
   000376    0 000 0 000 021 0 05 1    194          OP      021,0,0,0,OTH,ADLX1,1
   000377    101104114130
   000400    061040 0 0 0 000
   000401    0 000 0 000 022 0 05 1    195          OP      022,0,0,0,OTH,ADLX2,1
   000402    101104114130
   000403    062040 0 0 0 000
   000404    0 000 0 000 023 0 05 1    196          OP      023,0,0,0,OTH,ADLX3,1
   000405    101104114130
   000406    063040 0 0 0 000
   000407    0 000 0 000 024 0 05 1    197          OP      024,0,0,0,OTH,ADLX4,1
   000410    101104114130
   000411    064040 0 0 0 000
   000412    0 000 0 000 024 1 01 4    198          OP      024,1,0,0,EIS,MVNE,4,,NDSC,ADSC,ADSC
   000413    115126116105
   000414    040040 3 1 1 000
   000415    0 000 0 000 025 0 05 1    199          OP      025,0,0,0,OTH,ADLX5,1
   000416    101104114130
   000417    065040 0 0 0 000
   000420    0 000 0 000 026 0 05 1    200          OP      026,0,0,0,OTH,ADLX6,1
   000421    101104114130
   000422    066040 0 0 0 000
   000423    0 000 0 000 027 0 05 1    201          OP      027,0,0,0,OTH,ADLX7,1
   000424    101104114130
   000425    067040 0 0 0 000
   000426    0 000 0 000 032 0 05 1    202          OP      032,0,0,0,OTH,LDQC,1
   000427    114104121103
   000430    040040 0 0 0 000
   000431    0 000 0 000 033 0 05 1    203          OP      033,0,0,0,OTH,ADL,1
   000432    101104114040
   000433    040040 0 0 0 000
   000434    0 000 0 000 034 0 05 1    204          OP      034,0,0,0,OTH,LDAC,1
 14:27 07/29/97  FILE=DD_OP_D.:E05TSI                                                                    11   BMAP - B00
   000435    114104101103
   000436    040040 0 0 0 000
   000437    0 000 0 000 035 0 05 1    205          OP      035,0,0,0,OTH,ADLA,1
   000440    101104114101
   000441    040040 0 0 0 000
   000442    0 000 0 000 036 0 05 1    206          OP      036,0,0,0,OTH,ADLQ,1
   000443    101104114121
   000444    040040 0 0 0 000
   000445    0 000 0 000 037 0 05 1    207          OP      037,0,0,0,OTH,ADLAQ,1
   000446    101104114101
   000447    121040 0 0 0 000
   000450    0 000 0 000 040 0 05 1    208          OP      040,0,0,0,OTH,ASX0,1
   000451    101123130060
   000452    040040 0 0 0 000
   000453    0 000 0 000 041 0 05 1    209          OP      041,0,0,0,OTH,ASX1,1
   000454    101123130061
   000455    040040 0 0 0 000
   000456    0 000 0 000 042 0 05 1    210          OP      042,0,0,0,OTH,ASX2,1
   000457    101123130062
   000460    040040 0 0 0 000
   000461    0 000 0 000 043 0 05 1    211          OP      043,0,0,0,OTH,ASX3,1
   000462    101123130063
   000463    040040 0 0 0 000
   000464    0 000 0 000 044 0 05 1    212          OP      044,0,0,0,OTH,ASX4,1
   000465    101123130064
   000466    040040 0 0 0 000
   000467    0 000 0 000 045 0 05 1    213          OP      045,0,0,0,OTH,ASX5,1
   000470    101123130065
   000471    040040 0 0 0 000
   000472    0 000 0 000 046 0 05 1    214          OP      046,0,0,0,OTH,ASX6,1
   000473    101123130066
   000474    040040 0 0 0 000
   000475    0 000 0 000 047 0 05 1    215          OP      047,0,0,0,OTH,ASX7,1
   000476    101123130067
   000477    040040 0 0 0 000
   000500    0 000 0 000 050 1 05 1    216          OP      050,1,0,0,OTH,STD0,1
   000501    123124104060
 14:27 07/29/97  FILE=DD_OP_D.:E05TSI                                                                    12   BMAP - B00
   000502    040040 0 0 0 000
   000503    0 000 0 000 051 1 05 1    217          OP      051,1,0,0,OTH,STD1,1
   000504    123124104061
   000505    040040 0 0 0 000
   000506    0 000 0 000 052 1 05 1    218          OP      052,1,0,0,OTH,STD2,1
   000507    123124104062
   000510    040040 0 0 0 000
   000511    0 000 0 000 053 1 05 1    219          OP      053,1,0,0,OTH,STD3,1
   000512    123124104063
   000513    040040 0 0 0 000
   000514    0 000 0 000 054 0 05 1    220          OP      054,0,0,0,OTH,AOS,1
   000515    101117123040
   000516    040040 0 0 0 000
   000517    0 000 0 000 054 1 05 1    221          OP      054,1,0,0,OTH,STD4,1
   000520    123124104064
   000521    040040 0 0 0 000
   000522    0 000 0 000 055 0 05 1    222          OP      055,0,0,0,OTH,ASA,1
   000523    101123101040
   000524    040040 0 0 0 000
   000525    0 000 0 000 055 1 05 1    223          OP      055,1,0,0,OTH,STD5,1
   000526    123124104065
   000527    040040 0 0 0 000
   000530    0 000 0 000 056 0 05 1    224          OP      056,0,0,0,OTH,ASQ,1
   000531    101123121040
   000532    040040 0 0 0 000
   000533    0 000 0 000 056 1 05 1    225          OP      056,1,0,0,OTH,STD6,1
   000534    123124104066
   000535    040040 0 0 0 000
   000536    0 000 0 000 057 0 05 1    226          OP      057,0,0,0,OTH,LCCL,1
   000537    114103103114
   000540    040040 0 0 0 000
   000541    0 000 0 000 057 1 05 1    227          OP      057,1,0,0,OTH,STD7,1
   000542    123124104067
   000543    040040 0 0 0 000
   000544    0 000 0 000 060 0 05 1    228          OP      060,0,0,0,OTH,ADX0,1
   000545    101104130060
   000546    040040 0 0 0 000
 14:27 07/29/97  FILE=DD_OP_D.:E05TSI                                                                    13   BMAP - B00
   000547    0 031 0 000 060 1 01 3    229          OP      060,1,0,0,EIS,CSL,3,BOLR+F+T,BDSC,BDSC
   000550    103123114040
   000551    040040 2 2 0 000
   000552    0 000 0 000 061 0 05 1    230          OP      061,0,0,0,OTH,ADX1,1
   000553    101104130061
   000554    040040 0 0 0 000
   000555    0 031 0 000 061 1 01 3    231          OP      061,1,0,0,EIS,CSR,3,BOLR+F+T,BDSC,BDSC
   000556    103123122040
   000557    040040 2 2 0 000
   000560    0 000 0 000 062 0 05 1    232          OP      062,0,0,0,OTH,ADX2,1
   000561    101104130062
   000562    040040 0 0 0 000
   000563    0 000 0 000 063 0 05 1    233          OP      063,0,0,0,OTH,ADX3,1
   000564    101104130063
   000565    040040 0 0 0 000
   000566    0 000 0 000 064 0 05 1    234          OP      064,0,0,0,OTH,ADX4,1
   000567    101104130064
   000570    040040 0 0 0 000
   000571    0 031 0 000 064 1 01 3    235          OP      064,1,0,0,EIS,SZTL,3,BOLR+F+T,BDSC,BDSC
   000572    123132124114
   000573    040040 2 2 0 000
   000574    0 000 0 000 065 0 05 1    236          OP      065,0,0,0,OTH,ADX5,1
   000575    101104130065
   000576    040040 0 0 0 000
   000577    0 031 0 000 065 1 01 3    237          OP      065,1,0,0,EIS,SZTR,3,BOLR+F+T,BDSC,BDSC
   000600    123132124122
   000601    040040 2 2 0 000
   000602    0 000 0 000 066 0 05 1    238          OP      066,0,0,0,OTH,ADX6,1
   000603    101104130066
   000604    040040 0 0 0 000
   000605    0 010 0 000 066 1 01 3    239          OP      066,1,0,0,EIS,CMPB,3,F,BDSC,BDSC
   000606    103115120102
   000607    040040 2 2 0 000
   000610    0 000 0 000 067 0 05 1    240          OP      067,0,0,0,OTH,ADX7,1
   000611    101104130067
   000612    040040 0 0 0 000
   000613    0 000 0 000 071 0 05 1    241          OP      071,0,0,0,OTH,AWCA,1
 14:27 07/29/97  FILE=DD_OP_D.:E05TSI                                                                    14   BMAP - B00
   000614    101127103101
   000615    040040 0 0 0 000
   000616    0 000 0 000 072 0 05 1    242          OP      072,0,0,0,OTH,AWCQ,1
   000617    101127103121
   000620    040040 0 0 0 000
   000621    0 000 0 000 073 0 05 1    243          OP      073,0,0,0,OTH,LREG,1
   000622    114122105107
   000623    040040 0 0 0 000
   000624    0 000 0 000 075 0 05 1    244          OP      075,0,0,0,OTH,ADA,1
   000625    101104101040
   000626    040040 0 0 0 000
   000627    0 000 0 000 076 0 05 1    245          OP      076,0,0,0,OTH,ADQ,1
   000630    101104121040
   000631    040040 0 0 0 000
   000632    0 000 0 000 077 0 05 1    246          OP      077,0,0,0,OTH,ADAQ,1
   000633    101104101121
   000634    040040 0 0 0 000
   000635    0 000 0 000 100 0 05 1    247          OP      100,0,0,0,OTH,CMPX0,1
   000636    103115120130
   000637    060040 0 0 0 000
   000640    0 101 0 000 100 1 01 3    248          OP      100,1,0,0,EIS,MLR,3,FILL+T,ADSC,ADSC
   000641    115114122040
   000642    040040 1 1 0 000
   000643    0 000 0 000 101 0 05 1    249          OP      101,0,0,0,OTH,CMPX1,1
   000644    103115120130
   000645    061040 0 0 0 000
   000646    0 101 0 000 101 1 01 3    250          OP      101,1,0,0,EIS,MRL,3,FILL+T,ADSC,ADSC
   000647    115122114040
   000650    040040 1 1 0 000
   000651    0 000 0 000 102 0 05 1    251          OP      102,0,0,0,OTH,CMPX2,1
   000652    103115120130
   000653    062040 0 0 0 000
   000654    0 000 0 000 103 0 05 1    252          OP      103,0,0,0,OTH,CMPX3,1
   000655    103115120130
   000656    063040 0 0 0 000
   000657    0 000 0 000 104 0 05 1    253          OP      104,0,0,0,OTH,CMPX4,1
   000660    103115120130
 14:27 07/29/97  FILE=DD_OP_D.:E05TSI                                                                    15   BMAP - B00
   000661    064040 0 0 0 000
   000662    0 000 0 000 105 0 05 1    254          OP      105,0,0,0,OTH,CMPX5,1
   000663    103115120130
   000664    065040 0 0 0 000
   000665    0 000 0 000 106 0 05 1    255          OP      106,0,0,0,OTH,CMPX6,1
   000666    103115120130
   000667    066040 0 0 0 000
   000670    0 100 0 000 106 1 01 3    256          OP      106,1,0,0,EIS,CMPC,3,FILL,ADSC,ADSC
   000671    103115120103
   000672    040040 1 1 0 000
   000673    0 000 0 000 107 0 05 1    257          OP      107,0,0,0,OTH,CMPX7,1
   000674    103115120130
   000675    067040 0 0 0 000
   000676    0 000 0 000 110 1 05 1    258          OP      110,1,0,0,OTH,SDR0,1
   000677    123104122060
   000700    040040 0 0 0 000
   000701    0 000 0 000 111 0 05 1    259          OP      111,0,0,0,OTH,CWL,1
   000702    103127114040
   000703    040040 0 0 0 000
   000704    0 000 0 000 111 1 05 1    260          OP      111,1,0,0,OTH,SDR1,1
   000705    123104122061
   000706    040040 0 0 0 000
   000707    0 000 0 000 112 1 05 1    261          OP      112,1,0,0,OTH,SDR2,1
   000710    123104122062
   000711    040040 0 0 0 000
   000712    0 000 0 000 113 1 05 1    262          OP      113,1,0,0,OTH,SDR3,1
   000713    123104122063
   000714    040040 0 0 0 000
   000715    0 000 0 000 114 1 05 1    263          OP      114,1,0,0,OTH,SDR4,1
   000716    123104122064
   000717    040040 0 0 0 000
   000720    0 000 0 000 115 0 05 1    264          OP      115,0,0,0,OTH,CMPA,1
   000721    103115120101
   000722    040040 0 0 0 000
   000723    0 000 0 000 115 1 05 1    265          OP      115,1,0,0,OTH,SDR5,1
   000724    123104122065
   000725    040040 0 0 0 000
 14:27 07/29/97  FILE=DD_OP_D.:E05TSI                                                                    16   BMAP - B00
   000726    0 000 0 000 116 0 05 1    266          OP      116,0,0,0,OTH,CMPQ,1
   000727    103115120121
   000730    040040 0 0 0 000
   000731    0 000 0 000 116 1 05 1    267          OP      116,1,0,0,OTH,SDR6,1
   000732    123104122066
   000733    040040 0 0 0 000
   000734    0 000 0 000 117 0 05 1    268          OP      117,0,0,0,OTH,CMPAQ,1
   000735    103115120101
   000736    121040 0 0 0 000
   000737    0 000 0 000 117 1 05 1    269          OP      117,1,0,0,OTH,SDR7,1
   000740    123104122067
   000741    040040 0 0 0 000
   000742    0 000 0 000 120 0 05 1    270          OP      120,0,0,0,OTH,SBLX0,1
   000743    123102114130
   000744    060040 0 0 0 000
   000745    0 000 0 000 120 1 01 4    271          OP      120,1,0,0,EIS,SCD,4,,ADSC,ADSC,ARG
   000746    123103104040
   000747    040040 1 1 6 000
   000750    0 000 0 000 121 0 05 1    272          OP      121,0,0,0,OTH,SBLX1,1
   000751    123102114130
   000752    061040 0 0 0 000
   000753    0 000 0 000 121 1 01 4    273          OP      121,1,0,0,EIS,SCDR,4,,ADSC,ADSC,ARG
   000754    123103104122
   000755    040040 1 1 6 000
   000756    0 000 0 000 122 0 05 1    274          OP      122,0,0,0,OTH,SBLX2,1
   000757    123102114130
   000760    062040 0 0 0 000
   000761    0 000 0 000 123 0 05 1    275          OP      123,0,0,0,OTH,SBLX3,1
   000762    123102114130
   000763    063040 0 0 0 000
   000764    0 000 0 000 124 0 05 1    276          OP      124,0,0,0,OTH,SBLX4,1
   000765    123102114130
   000766    064040 0 0 0 000
   000767    0 040 0 000 124 1 01 4    277          OP      124,1,0,0,EIS,SCM,4,MASK,ADSC,ADSC,ARG
   000770    123103115040
   000771    040040 1 1 6 000
   000772    0 000 0 000 125 0 05 1    278          OP      125,0,0,0,OTH,SBLX5,1
 14:27 07/29/97  FILE=DD_OP_D.:E05TSI                                                                    17   BMAP - B00
   000773    123102114130
   000774    065040 0 0 0 000
   000775    0 040 0 000 125 1 01 4    279          OP      125,1,0,0,EIS,SCMR,4,MASK,ADSC,ADSC,ARG
   000776    123103115122
   000777    040040 1 1 6 000
   001000    0 000 0 000 126 0 05 1    280          OP      126,0,0,0,OTH,SBLX6,1
   001001    123102114130
   001002    066040 0 0 0 000
   001003    0 000 0 000 127 0 05 1    281          OP      127,0,0,0,OTH,SBLX7,1
   001004    123102114130
   001005    067040 0 0 0 000
   001006    0 000 0 000 135 0 05 1    282          OP      135,0,0,0,OTH,SBLA,1
   001007    123102114101
   001010    040040 0 0 0 000
   001011    0 000 0 000 136 0 05 1    283          OP      136,0,0,0,OTH,SBLQ,1
   001012    123102114121
   001013    040040 0 0 0 000
   001014    0 000 0 000 137 0 05 1    284          OP      137,0,0,0,OTH,SBLAQ,1
   001015    123102114101
   001016    121040 0 0 0 000
   001017    0 000 0 000 140 0 05 1    285          OP      140,0,0,0,OTH,SSX0,1
   001020    123123130060
   001021    040040 0 0 0 000
   001022    0 000 0 000 141 0 05 1    286          OP      141,0,0,0,OTH,SSX1,1
   001023    123123130061
   001024    040040 0 0 0 000
   001025    0 000 0 000 142 0 05 1    287          OP      142,0,0,0,OTH,SSX2,1
   001026    123123130062
   001027    040040 0 0 0 000
   001030    0 000 0 000 143 0 05 1    288          OP      143,0,0,0,OTH,SSX3,1
   001031    123123130063
   001032    040040 0 0 0 000
   001033    0 000 0 000 144 0 05 1    289          OP      144,0,0,0,OTH,SSX4,1
   001034    123123130064
   001035    040040 0 0 0 000
   001036    0 000 0 000 145 0 05 1    290          OP      145,0,0,0,OTH,SSX5,1
   001037    123123130065
 14:27 07/29/97  FILE=DD_OP_D.:E05TSI                                                                    18   BMAP - B00
   001040    040040 0 0 0 000
   001041    0 000 0 000 146 0 05 1    291          OP      146,0,0,0,OTH,SSX6,1
   001042    123123130066
   001043    040040 0 0 0 000
   001044    0 000 0 000 147 0 05 1    292          OP      147,0,0,0,OTH,SSX7,1
   001045    123123130067
   001046    040040 0 0 0 000
   001047    0 000 0 000 150 1 05 1    293          OP      150,1,0,0,OTH,STDSA,1
   001050    123124104123
   001051    101040 0 0 0 000
   001052    0 000 0 000 151 1 05 1    294          OP      151,1,0,0,OTH,SPDBR,1
   001053    123120104102
   001054    122040 0 0 0 000
   001055    0 000 0 000 152 1 05 1    295          OP      152,1,0,0,OTH,STO,1
   001056    123124117040
   001057    040040 0 0 0 000
   001060    0 000 0 000 154 1 05 1    296          OP      154,1,0,0,OTH,SICHR,1    DPS90 only
   001061    123111103110
   001062    122040 0 0 0 000
   001063    0 000 0 000 155 0 05 1    297          OP      155,0,0,0,OTH,SSA,1
   001064    123123101040
   001065    040040 0 0 0 000
   001066    0 000 0 000 155 1 05 1    298          OP      155,1,0,0,OTH,STPDW,1
   001067    123124120104
   001070    127040 0 0 0 000
   001071    0 000 0 000 156 0 05 1    299          OP      156,0,0,0,OTH,SSQ,1
   001072    123123121040
   001073    040040 0 0 0 000
   001074    0 000 0 000 156 1 05 1    300          OP      156,1,0,0,OTH,RICHR,1    DPS90 only
   001075    122111103110
   001076    122040 0 0 0 000
   001077    0 000 0 000 157 0 05 1    301          OP      157,0,0,0,OTH,SBER,1
   001100    123102105122
   001101    040040 0 0 0 000
   001102    0 000 0 000 157 1 05 1    302          OP      157,1,0,0,OTH,STPTW,1
   001103    123124120124
   001104    127040 0 0 0 000
 14:27 07/29/97  FILE=DD_OP_D.:E05TSI                                                                    19   BMAP - B00
   001105    0 000 0 000 160 0 05 1    303          OP      160,0,0,0,OTH,SBX0,1
   001106    123102130060
   001107    040040 0 0 0 000
   001110    0 101 0 000 160 1 01 4    304          OP      160,1,0,0,EIS,MVT,4,FILL+T,ADSC,ADSC,ARG
   001111    115126124040
   001112    040040 1 1 6 000
   001113    0 000 0 000 161 0 05 1    305          OP      161,0,0,0,OTH,SBX1,1
   001114    123102130061
   001115    040040 0 0 0 000
   001116    0 000 0 000 162 0 05 1    306          OP      162,0,0,0,OTH,SBX2,1
   001117    123102130062
   001120    040040 0 0 0 000
   001121    0 000 0 000 163 0 05 1    307          OP      163,0,0,0,OTH,SBX3,1
   001122    123102130063
   001123    040040 0 0 0 000
   001124    0 000 0 000 164 0 05 1    308          OP      164,0,0,0,OTH,SBX4,1
   001125    123102130064
   001126    040040 0 0 0 000
   001127    0 000 0 000 164 1 01 4    309          OP      164,1,0,0,EIS,TCT,4,,ADSC,ARG,ARG
   001130    124103124040
   001131    040040 1 6 6 000
   001132    0 000 0 000 165 0 05 1    310          OP      165,0,0,0,OTH,SBX5,1
   001133    123102130065
   001134    040040 0 0 0 000
   001135    0 000 0 000 165 1 01 4    311          OP      165,1,0,0,EIS,TCTR,4,,ADSC,ARG,ARG
   001136    124103124122
   001137    040040 1 6 6 000
   001140    0 000 0 000 166 0 05 1    312          OP      166,0,0,0,OTH,SBX6,1
   001141    123102130066
   001142    040040 0 0 0 000
   001143    0 100 0 000 166 1 01 4    313          OP      166,1,0,0,EIS,CMPCT,4,FILL,ADSC,ADSC,ARG
   001144    103115120103
   001145    124040 1 1 6 000
   001146    0 000 0 000 167 0 05 1    314          OP      167,0,0,0,OTH,SBX7,1
   001147    123102130067
   001150    040040 0 0 0 000
   001151    0 000 0 000 170 1 05 1    315          OP      170,1,0,0,OTH,LDDSA,1
 14:27 07/29/97  FILE=DD_OP_D.:E05TSI                                                                    20   BMAP - B00
   001152    114104104123
   001153    101040 0 0 0 000
   001154    0 000 0 000 171 0 05 1    316          OP      171,0,0,0,OTH,SWCA,1
   001155    123127103101
   001156    040040 0 0 0 000
   001157    0 000 0 000 171 1 05 1    317          OP      171,1,0,0,OTH,LPDBR,1
   001160    114120104102
   001161    122040 0 0 0 000
   001162    0 000 0 000 172 0 05 1    318          OP      172,0,0,0,OTH,SWCQ,1
   001163    123127103121
   001164    040040 0 0 0 000
   001165    0 000 0 000 172 1 05 1    319          OP      172,1,0,0,OTH,LDO,1
   001166    114104117040
   001167    040040 0 0 0 000
   001170    0 000 0 000 175 0 05 1    320          OP      175,0,0,0,OTH,SBA,1
   001171    123102101040
   001172    040040 0 0 0 000
   001173    0 000 0 000 176 0 05 1    321          OP      176,0,0,0,OTH,SBQ,1
   001174    123102121040
   001175    040040 0 0 0 000
   001176    0 000 0 000 176 1 05 1    322          OP      176,1,0,0,OTH,PAS,1
   001177    120101123040
   001200    040040 0 0 0 000
   001201    0 000 0 000 177 0 05 1    323          OP      177,0,0,0,OTH,SBAQ,1
   001202    123102101121
   001203    040040 0 0 0 000
   001204    0 000 0 000 200 0 05 1    324          OP      200,0,0,0,OTH,CNAX0,1
   001205    103116101130
   001206    060040 0 0 0 000
   001207    0 000 0 000 201 0 05 1    325          OP      201,0,0,0,OTH,CNAX1,1
   001210    103116101130
   001211    061040 0 0 0 000
   001212    0 000 0 000 202 0 05 1    326          OP      202,0,0,0,OTH,CNAX2,1
   001213    103116101130
   001214    062040 0 0 0 000
   001215    0 007 0 000 202 1 01 3    327          OP      202,1,0,0,EIS,AD2D,3,RD+T+P,NDSC,NDSC
   001216    101104062104
 14:27 07/29/97  FILE=DD_OP_D.:E05TSI                                                                    21   BMAP - B00
   001217    040040 3 3 0 000
   001220    0 000 0 000 203 0 05 1    328          OP      203,0,0,0,OTH,CNAX3,1
   001221    103116101130
   001222    063040 0 0 0 000
   001223    0 007 0 000 203 1 01 3    329          OP      203,1,0,0,EIS,SB2D,3,RD+T+P,NDSC,NDSC
   001224    123102062104
   001225    040040 3 3 0 000
   001226    0 000 0 000 204 0 05 1    330          OP      204,0,0,0,OTH,CNAX4,1
   001227    103116101130
   001230    064040 0 0 0 000
   001231    0 000 0 000 205 0 05 1    331          OP      205,0,0,0,OTH,CNAX5,1
   001232    103116101130
   001233    065040 0 0 0 000
   001234    0 000 0 000 206 0 05 1    332          OP      206,0,0,0,OTH,CNAX6,1
   001235    103116101130
   001236    066040 0 0 0 000
   001237    0 007 0 000 206 1 01 3    333          OP      206,1,0,0,EIS,MP2D,3,RD+T+P,NDSC,NDSC
   001240    115120062104
   001241    040040 3 3 0 000
   001242    0 000 0 000 207 0 05 1    334          OP      207,0,0,0,OTH,CNAX7,1
   001243    103116101130
   001244    067040 0 0 0 000
   001245    0 006 0 000 207 1 01 3    335          OP      207,1,0,0,EIS,DV2D,3,RD+P,NDSC,NDSC
   001246    104126062104
   001247    040040 3 3 0 000
   001250    0 000 0 000 211 0 05 1    336          OP      211,0,0,0,OTH,CMK,1
   001251    103115113040
   001252    040040 0 0 0 000
   001253    0 000 0 000 214 0 05 1    337          OP      214,0,0,0,OTH,SZNC,1
   001254    123132116103
   001255    040040 0 0 0 000
   001256    0 000 0 000 215 0 05 1    338          OP      215,0,0,0,OTH,CNAA,1
   001257    103116101101
   001260    040040 0 0 0 000
   001261    0 000 0 000 216 0 05 1    339          OP      216,0,0,0,OTH,CNAQ,1
   001262    103116101121
   001263    040040 0 0 0 000
 14:27 07/29/97  FILE=DD_OP_D.:E05TSI                                                                    22   BMAP - B00
   001264    0 000 0 000 217 0 05 1    340          OP      217,0,0,0,OTH,CNAAQ,1
   001265    103116101101
   001266    121040 0 0 0 000
   001267    0 000 0 000 220 0 05 1    341          OP      220,0,0,0,OTH,LDX0,1
   001270    114104130060
   001271    040040 0 0 0 000
   001272    0 000 0 000 221 0 05 1    342          OP      221,0,0,0,OTH,LDX1,1
   001273    114104130061
   001274    040040 0 0 0 000
   001275    0 000 0 000 222 0 05 1    343          OP      222,0,0,0,OTH,LDX2,1
   001276    114104130062
   001277    040040 0 0 0 000
   001300    0 007 0 000 222 1 01 4    344          OP      222,1,0,0,EIS,AD3D,4,RD+T+P,NDSC,NDSC,NDSC
   001301    101104063104
   001302    040040 3 3 3 000
   001303    0 000 0 000 223 0 05 1    345          OP      223,0,0,0,OTH,LDX3,1
   001304    114104130063
   001305    040040 0 0 0 000
   001306    0 007 0 000 223 1 01 4    346          OP      223,1,0,0,EIS,SB3D,4,RD+T+P,NDSC,NDSC,NDSC
   001307    123102063104
   001310    040040 3 3 3 000
   001311    0 000 0 000 224 0 05 1    347          OP      224,0,0,0,OTH,LDX4,1
   001312    114104130064
   001313    040040 0 0 0 000
   001314    0 000 0 000 225 0 05 1    348          OP      225,0,0,0,OTH,LDX5,1
   001315    114104130065
   001316    040040 0 0 0 000
   001317    0 000 0 000 226 0 05 1    349          OP      226,0,0,0,OTH,LDX6,1
   001320    114104130066
   001321    040040 0 0 0 000
   001322    0 007 0 000 226 1 01 4    350          OP      226,1,0,0,EIS,MP3D,4,RD+T+P,NDSC,NDSC,NDSC
   001323    115120063104
   001324    040040 3 3 3 000
   001325    0 000 0 000 227 0 05 1    351          OP      227,0,0,0,OTH,LDX7,1
   001326    114104130067
   001327    040040 0 0 0 000
   001330    0 006 0 000 227 1 01 4    352          OP      227,1,0,0,EIS,DV3D,4,RD+P,NDSC,NDSC,NDSC
 14:27 07/29/97  FILE=DD_OP_D.:E05TSI                                                                    23   BMAP - B00
   001331    104126063104
   001332    040040 3 3 3 000
   001333    0 000 0 000 230 0 05 1    353          OP      230,0,0,0,OTH,LBAR,1
   001334    114102101122
   001335    040040 0 0 0 000
   001336    0 100 0 000 231 0 05 1    354          OP      231,0,0,0,OTH,RRES,1,OCTLY
   001337    122122105123
   001340    040040 0 0 0 000
   001341    0 000 0 000 232 0 05 1    355          OP      232,0,0,0,OTH,WRES,1     DPS90 only
   001342    127122105123
   001343    040040 0 0 0 000
   001344    0 000 0 000 233 0 05 1    356          OP      233,0,0,0,OTH,RIMR,1
   001345    122111115122
   001346    040040 0 0 0 000
   001347    0 000 0 000 234 0 05 1    357          OP      234,0,0,0,OTH,SZN,1
   001350    123132116040
   001351    040040 0 0 0 000
   001352    0 000 0 000 235 0 05 1    358          OP      235,0,0,0,OTH,LDA,1
   001353    114104101040
   001354    040040 0 0 0 000
   001355    0 000 0 000 235 1 05 1    359          OP      235,1,0,0,OTH,MLDA,1
   001356    115114104101
   001357    040040 0 0 0 000
   001360    0 000 0 000 236 0 05 1    360          OP      236,0,0,0,OTH,LDQ,1
   001361    114104121040
   001362    040040 0 0 0 000
   001363    0 000 0 000 236 1 05 1    361          OP      236,1,0,0,OTH,MLDQ,1
   001364    115114104121
   001365    040040 0 0 0 000
   001366    0 000 0 000 237 0 05 1    362          OP      237,0,0,0,OTH,LDAQ,1
   001367    114104101121
   001370    040040 0 0 0 000
   001371    0 000 0 000 237 1 05 1    363          OP      237,1,0,0,OTH,MLDAQ,1
   001372    115114104101
   001373    121040 0 0 0 000
   001374    0 000 0 000 240 0 05 1    364          OP      240,0,0,0,OTH,ORSX0,1
   001375    117122123130
 14:27 07/29/97  FILE=DD_OP_D.:E05TSI                                                                    24   BMAP - B00
   001376    060040 0 0 0 000
   001377    0 000 0 000 241 0 05 1    365          OP      241,0,0,0,OTH,ORSX1,1
   001400    117122123130
   001401    061040 0 0 0 000
   001402    0 000 0 000 242 0 05 1    366          OP      242,0,0,0,OTH,ORSX2,1
   001403    117122123130
   001404    062040 0 0 0 000
   001405    0 007 0 000 242 1 01 3    367          OP      242,1,0,0,EIS,AD2DX,3,RD+T+P,NDSC,NDSC
   001406    101104062104
   001407    130040 3 3 0 000
   001410    0 000 0 000 243 0 05 1    368          OP      243,0,0,0,OTH,ORSX3,1
   001411    117122123130
   001412    063040 0 0 0 000
   001413    0 007 0 000 243 1 01 3    369          OP      243,1,0,0,EIS,SB2DX,3,RD+T+P,NDSC,NDSC
   001414    123102062104
   001415    130040 3 3 0 000
   001416    0 000 0 000 244 0 05 1    370          OP      244,0,0,0,OTH,ORSX4,1
   001417    117122123130
   001420    064040 0 0 0 000
   001421    0 000 0 000 245 0 05 1    371          OP      245,0,0,0,OTH,ORSX5,1
   001422    117122123130
   001423    065040 0 0 0 000
   001424    0 000 0 000 246 0 05 1    372          OP      246,0,0,0,OTH,ORSX6,1
   001425    117122123130
   001426    066040 0 0 0 000
   001427    0 007 0 000 246 1 01 3    373          OP      246,1,0,0,EIS,MP2DX,3,RD+T+P,NDSC,NDSC
   001430    115120062104
   001431    130040 3 3 0 000
   001432    0 000 0 000 247 0 05 1    374          OP      247,0,0,0,OTH,ORSX7,1
   001433    117122123130
   001434    067040 0 0 0 000
   001435    0 006 0 000 247 1 01 3    375          OP      247,1,0,0,EIS,DV2DX,3,RD+P,NDSC,NDSC
   001436    104126062104
   001437    130040 3 3 0 000
   001440    0 000 0 000 255 0 05 1    376          OP      255,0,0,0,OTH,ORSA,1
   001441    117122123101
   001442    040040 0 0 0 000
 14:27 07/29/97  FILE=DD_OP_D.:E05TSI                                                                    25   BMAP - B00
   001443    0 000 0 000 256 0 05 1    377          OP      256,0,0,0,OTH,ORSQ,1
   001444    117122123121
   001445    040040 0 0 0 000
   001446    0 000 0 000 260 0 05 1    378          OP      260,0,0,0,OTH,ORX0,1
   001447    117122130060
   001450    040040 0 0 0 000
   001451    0 000 0 000 261 0 05 1    379          OP      261,0,0,0,OTH,ORX1,1
   001452    117122130061
   001453    040040 0 0 0 000
   001454    0 000 0 000 262 0 05 1    380          OP      262,0,0,0,OTH,ORX2,1
   001455    117122130062
   001456    040040 0 0 0 000
   001457    0 007 0 000 262 1 01 4    381          OP      262,1,0,0,EIS,AD3DX,4,RD+T+P,NDSC,NDSC,NDSC
   001460    101104063104
   001461    130040 3 3 3 000
   001462    0 000 0 000 263 0 05 1    382          OP      263,0,0,0,OTH,ORX3,1
   001463    117122130063
   001464    040040 0 0 0 000
   001465    0 007 0 000 263 1 01 4    383          OP      263,1,0,0,EIS,SB3DX,4,RD+T+P,NDSC,NDSC,NDSC
   001466    123102063104
   001467    130040 3 3 3 000
   001470    0 000 0 000 264 0 05 1    384          OP      264,0,0,0,OTH,ORX4,1
   001471    117122130064
   001472    040040 0 0 0 000
   001473    0 000 0 000 265 0 05 1    385          OP      265,0,0,0,OTH,ORX5,1
   001474    117122130065
   001475    040040 0 0 0 000
   001476    0 000 0 000 266 0 05 1    386          OP      266,0,0,0,OTH,ORX6,1
   001477    117122130066
   001500    040040 0 0 0 000
   001501    0 007 0 000 266 1 01 4    387          OP      266,1,0,0,EIS,MP3DX,4,RD+T+P,NDSC,NDSC,NDSC
   001502    115120063104
   001503    130040 3 3 3 000
   001504    0 000 0 000 267 0 05 1    388          OP      267,0,0,0,OTH,ORX7,1
   001505    117122130067
   001506    040040 0 0 0 000
   001507    0 006 0 000 267 1 01 4    389          OP      267,1,0,0,EIS,DV3DX,4,RD+P,NDSC,NDSC,NDSC
 14:27 07/29/97  FILE=DD_OP_D.:E05TSI                                                                    26   BMAP - B00
   001510    104126063104
   001511    130040 3 3 3 000
   001512    0 000 0 000 275 0 05 1    390          OP      275,0,0,0,OTH,ORA,1
   001513    117122101040
   001514    040040 0 0 0 000
   001515    0 000 0 000 276 0 05 1    391          OP      276,0,0,0,OTH,ORQ,1
   001516    117122121040
   001517    040040 0 0 0 000
   001520    0 000 0 000 277 0 05 1    392          OP      277,0,0,0,OTH,ORAQ,1
   001521    117122101121
   001522    040040 0 0 0 000
   001523    0 000 0 000 300 0 05 1    393          OP      300,0,0,0,OTH,CANX0,1
   001524    103101116130
   001525    060040 0 0 0 000
   001526    0 007 0 000 300 1 01 3    394          OP      300,1,0,0,EIS,MVN,3,RD+T+P,NDSC,NDSC
   001527    115126116040
   001530    040040 3 3 0 000
   001531    0 000 0 000 301 0 05 1    395          OP      301,0,0,0,OTH,CANX1,1
   001532    103101116130
   001533    061040 0 0 0 000
   001534    0 002 0 000 301 1 01 3    396          OP      301,1,0,0,EIS,BTD,3,P,NDSC,NDSC
   001535    102124104040
   001536    040040 3 3 0 000
   001537    0 000 0 000 302 0 05 1    397          OP      302,0,0,0,OTH,CANX2,1
   001540    103101116130
   001541    062040 0 0 0 000
   001542    0 000 0 000 303 0 05 1    398          OP      303,0,0,0,OTH,CANX3,1
   001543    103101116130
   001544    063040 0 0 0 000
   001545    0 000 0 000 303 1 01 3    399          OP      303,1,0,0,EIS,CMPN,3,,NDSC,NDSC
   001546    103115120116
   001547    040040 3 3 0 000
   001550    0 000 0 000 304 0 05 1    400          OP      304,0,0,0,OTH,CANX4,1
   001551    103101116130
   001552    064040 0 0 0 000
   001553    0 000 0 000 305 0 05 1    401          OP      305,0,0,0,OTH,CANX5,1
   001554    103101116130
 14:27 07/29/97  FILE=DD_OP_D.:E05TSI                                                                    27   BMAP - B00
   001555    065040 0 0 0 000
   001556    0 000 0 000 305 1 01 3    402          OP      305,1,0,0,EIS,DTB,3,,NDSC,NDSC
   001557    104124102040
   001560    040040 3 3 0 000
   001561    0 000 0 000 306 0 05 1    403          OP      306,0,0,0,OTH,CANX6,1
   001562    103101116130
   001563    066040 0 0 0 000
   001564    0 000 0 000 307 0 05 1    404          OP      307,0,0,0,OTH,CANX7,1
   001565    103101116130
   001566    067040 0 0 0 000
   001567    0 000 0 000 315 0 05 1    405          OP      315,0,0,0,OTH,CANA,1
   001570    103101116101
   001571    040040 0 0 0 000
   001572    0 000 0 000 316 0 05 1    406          OP      316,0,0,0,OTH,CANQ,1
   001573    103101116121
   001574    040040 0 0 0 000
   001575    0 000 0 000 317 0 05 1    407          OP      317,0,0,0,OTH,CANAQ,1
   001576    103101116101
   001577    121040 0 0 0 000
   001600    0 000 0 000 320 0 05 1    408          OP      320,0,0,0,OTH,LCX0,1
   001601    114103130060
   001602    040040 0 0 0 000
   001603    0 000 0 000 321 0 05 1    409          OP      321,0,0,0,OTH,LCX1,1
   001604    114103130061
   001605    040040 0 0 0 000
   001606    0 000 0 000 322 0 05 1    410          OP      322,0,0,0,OTH,LCX2,1
   001607    114103130062
   001610    040040 0 0 0 000
   001611    0 000 0 000 323 0 05 1    411          OP      323,0,0,0,OTH,LCX3,1
   001612    114103130063
   001613    040040 0 0 0 000
   001614    0 000 0 000 324 0 05 1    412          OP      324,0,0,0,OTH,LCX4,1
   001615    114103130064
   001616    040040 0 0 0 000
   001617    0 000 0 000 325 0 05 1    413          OP      325,0,0,0,OTH,LCX5,1
   001620    114103130065
   001621    040040 0 0 0 000
 14:27 07/29/97  FILE=DD_OP_D.:E05TSI                                                                    28   BMAP - B00
   001622    0 000 0 000 326 0 05 1    414          OP      326,0,0,0,OTH,LCX6,1
   001623    114103130066
   001624    040040 0 0 0 000
   001625    0 000 0 000 327 0 05 1    415          OP      327,0,0,0,OTH,LCX7,1
   001626    114103130067
   001627    040040 0 0 0 000
   001630    0 000 0 000 335 0 05 1    416          OP      335,0,0,0,OTH,LCA,1
   001631    114103101040
   001632    040040 0 0 0 000
   001633    0 000 0 000 336 0 05 1    417          OP      336,0,0,0,OTH,LCQ,1
   001634    114103121040
   001635    040040 0 0 0 000
   001636    0 000 0 000 337 0 05 1    418          OP      337,0,0,0,OTH,LCAQ,1
   001637    114103101121
   001640    040040 0 0 0 000
   001641    0 000 0 000 340 0 05 1    419          OP      340,0,0,0,OTH,ANSX0,1
   001642    101116123130
   001643    060040 0 0 0 000
   001644    0 007 0 000 340 1 01 3    420          OP      340,1,0,0,EIS,MVNX,3,RD+T+P,NDSC,NDSC
   001645    115126116130
   001646    040040 3 3 0 000
   001647    0 000 0 000 341 0 05 1    421          OP      341,0,0,0,OTH,ANSX1,1
   001650    101116123130
   001651    061040 0 0 0 000
   001652    0 000 0 000 342 0 05 1    422          OP      342,0,0,0,OTH,ANSX2,1
   001653    101116123130
   001654    062040 0 0 0 000
   001655    0 000 0 000 343 0 05 1    423          OP      343,0,0,0,OTH,ANSX3,1
   001656    101116123130
   001657    063040 0 0 0 000
   001660    0 000 0 000 343 1 01 3    424          OP      343,1,0,0,EIS,CMPNX,3,,NDSC,NDSC
   001661    103115120116
   001662    130040 3 3 0 000
   001663    0 000 0 000 344 0 05 1    425          OP      344,0,0,0,OTH,ANSX4,1
   001664    101116123130
   001665    064040 0 0 0 000
   001666    0 000 0 000 345 0 05 1    426          OP      345,0,0,0,OTH,ANSX5,1
 14:27 07/29/97  FILE=DD_OP_D.:E05TSI                                                                    29   BMAP - B00
   001667    101116123130
   001670    065040 0 0 0 000
   001671    0 000 0 000 346 0 05 1    427          OP      346,0,0,0,OTH,ANSX6,1
   001672    101116123130
   001673    066040 0 0 0 000
   001674    0 000 0 000 347 0 05 1    428          OP      347,0,0,0,OTH,ANSX7,1
   001675    101116123130
   001676    067040 0 0 0 000
   001677    0 000 0 000 355 0 05 1    429          OP      355,0,0,0,OTH,ANSA,1
   001700    101116123101
   001701    040040 0 0 0 000
   001702    0 000 0 000 356 0 05 1    430          OP      356,0,0,0,OTH,ANSQ,1
   001703    101116123121
   001704    040040 0 0 0 000
   001705    0 000 0 000 360 0 05 1    431          OP      360,0,0,0,OTH,ANX0,1
   001706    101116130060
   001707    040040 0 0 0 000
   001710    0 000 0 000 361 0 05 1    432          OP      361,0,0,0,OTH,ANX1,1
   001711    101116130061
   001712    040040 0 0 0 000
   001713    0 000 0 000 361 1 01 2    433          OP      361,1,0,0,EIS,MTR,2,,SDSC
   001714    115124122040
   001715    040040 4 0 0 000
   001716    0 000 0 000 362 0 05 1    434          OP      362,0,0,0,OTH,ANX2,1
   001717    101116130062
   001720    040040 0 0 0 000
   001721    0 000 0 000 362 1 05 1    435          OP      362,1,0,0,OTH,FRAN,1     DPS90 only
   001722    106122101116
   001723    040040 0 0 0 000
   001724    0 000 0 000 363 0 05 1    436          OP      363,0,0,0,OTH,ANX3,1
   001725    101116130063
   001726    040040 0 0 0 000
   001727    0 000 0 000 363 1 05 1    437          OP      363,1,0,0,OTH,XRAN,1     DPS90 only
   001730    130122101116
   001731    040040 0 0 0 000
   001732    0 000 0 000 364 0 05 1    438          OP      364,0,0,0,OTH,ANX4,1
   001733    101116130064
 14:27 07/29/97  FILE=DD_OP_D.:E05TSI                                                                    30   BMAP - B00
   001734    040040 0 0 0 000
   001735    0 000 0 000 365 0 05 1    439          OP      365,0,0,0,OTH,ANX5,1
   001736    101116130065
   001737    040040 0 0 0 000
   001740    0 000 0 000 365 1 01 2    440          OP      365,1,0,0,EIS,MTM,2,,SDSC
   001741    115124115040
   001742    040040 4 0 0 000
   001743    0 000 0 000 366 0 05 1    441          OP      366,0,0,0,OTH,ANX6,1
   001744    101116130066
   001745    040040 0 0 0 000
   001746    0 000 0 000 367 0 05 1    442          OP      367,0,0,0,OTH,ANX7,1
   001747    101116130067
   001750    040040 0 0 0 000
   001751    0 000 0 000 367 1 05 1    443          OP      367,1,0,0,OTH,RPN,1      DPS90 only
   001752    122120116040
   001753    040040 0 0 0 000
   001754    0 000 0 000 375 0 05 1    444          OP      375,0,0,0,OTH,ANA,1
   001755    101116101040
   001756    040040 0 0 0 000
   001757    0 000 0 000 376 0 05 1    445          OP      376,0,0,0,OTH,ANQ,1
   001760    101116121040
   001761    040040 0 0 0 000
   001762    0 000 0 000 377 0 05 1    446          OP      377,0,0,0,OTH,ANAQ,1
   001763    101116101121
   001764    040040 0 0 0 000
   001765    0 000 0 000 401 0 05 1    447          OP      401,0,0,0,OTH,MPF,1
   001766    115120106040
   001767    040040 0 0 0 000
   001770    0 000 0 000 402 0 05 1    448          OP      402,0,0,0,OTH,MPY,1
   001771    115120131040
   001772    040040 0 0 0 000
   001773    0 000 0 000 405 0 05 1    449          OP      405,0,0,0,OTH,CMG,1
   001774    103115107040
   001775    040040 0 0 0 000
   001776    0 000 0 000 411 0 05 1    450          OP      411,0,0,0,OTH,LDE,1
   001777    114104105040
   002000    040040 0 0 0 000
 14:27 07/29/97  FILE=DD_OP_D.:E05TSI                                                                    31   BMAP - B00
   002001    0 000 0 000 412 1 05 1    451          OP      412,1,0,0,OTH,EPAT,1
   002002    105120101124
   002003    040040 0 0 0 000
   002004    0 000 0 000 413 0 05 1    452          OP      413,0,0,0,OTH,RCCL,1
   002005    122103103114
   002006    040040 0 0 0 000
   002007    0 000 0 000 415 0 05 1    453          OP      415,0,0,0,OTH,ADE,1
   002010    101104105040
   002011    040040 0 0 0 000
   002012    0 000 0 000 421 0 05 1    454          OP      421,0,0,0,OTH,UFM,1
   002013    125106115040
   002014    040040 0 0 0 000
   002015    0 000 0 000 423 0 05 1    455          OP      423,0,0,0,OTH,DUFM,1
   002016    104125106115
   002017    040040 0 0 0 000
   002020    0 000 0 000 425 0 05 1    456          OP      425,0,0,0,OTH,FCMG,1
   002021    106103115107
   002022    040040 0 0 0 000
   002023    0 000 0 000 427 0 05 1    457          OP      427,0,0,0,OTH,DFCMG,1
   002024    104106103115
   002025    107040 0 0 0 000
   002026    0 000 0 000 430 0 05 1    458          OP      430,0,0,0,OTH,FSZN,1
   002027    106123132116
   002030    040040 0 0 0 000
   002031    0 000 0 000 431 0 05 1    459          OP      431,0,0,0,OTH,FLD,1
   002032    106114104040
   002033    040040 0 0 0 000
   002034    0 000 0 000 432 0 05 1    460          OP      432,0,0,0,OTH,QFLD,1     DPS90 only
   002035    121106114104
   002036    040040 0 0 0 000
   002037    0 000 0 000 433 0 05 1    461          OP      433,0,0,0,OTH,DFLD,1
   002040    104106114104
   002041    040040 0 0 0 000
   002042    0 000 0 000 434 0 05 1    462          OP      434,0,0,0,OTH,UFTR,1     DPS90 only
   002043    125106124122
   002044    040040 0 0 0 000
   002045    0 000 0 000 435 0 05 1    463          OP      435,0,0,0,OTH,UFA,1
 14:27 07/29/97  FILE=DD_OP_D.:E05TSI                                                                    32   BMAP - B00
   002046    125106101040
   002047    040040 0 0 0 000
   002050    0 000 0 000 437 0 05 1    464          OP      437,0,0,0,OTH,DUFA,1
   002051    104125106101
   002052    040040 0 0 0 000
   002053    0 000 0 000 440 0 05 1    465          OP      440,0,0,0,OTH,SXL0,1
   002054    123130114060
   002055    040040 0 0 0 000
   002056    0 000 0 000 441 0 05 1    466          OP      441,0,0,0,OTH,SXL1,1
   002057    123130114061
   002060    040040 0 0 0 000
   002061    0 000 0 000 442 0 05 1    467          OP      442,0,0,0,OTH,SXL2,1
   002062    123130114062
   002063    040040 0 0 0 000
   002064    0 000 0 000 443 0 05 1    468          OP      443,0,0,0,OTH,SXL3,1
   002065    123130114063
   002066    040040 0 0 0 000
   002067    0 000 0 000 443 1 05 1    469          OP      443,1,0,0,OTH,SAREG,1
   002070    123101122105
   002071    107040 0 0 0 000
   002072    0 000 0 000 444 0 05 1    470          OP      444,0,0,0,OTH,SXL4,1
   002073    123130114064
   002074    040040 0 0 0 000
   002075    0 000 0 000 445 0 05 1    471          OP      445,0,0,0,OTH,SXL5,1
   002076    123130114065
   002077    040040 0 0 0 000
   002100    0 000 0 000 446 0 05 1    472          OP      446,0,0,0,OTH,SXL6,1
   002101    123130114066
   002102    040040 0 0 0 000
   002103    0 000 0 000 447 0 05 1    473          OP      447,0,0,0,OTH,SXL7,1
   002104    123130114067
   002105    040040 0 0 0 000
   002106    0 000 0 000 447 1 05 1    474          OP      447,1,0,0,OTH,SPL,1
   002107    123120114040
   002110    040040 0 0 0 000
   002111    0 000 0 000 450 0 05 1    475          OP      450,0,0,0,OTH,STZ,1
   002112    123124132040
 14:27 07/29/97  FILE=DD_OP_D.:E05TSI                                                                    33   BMAP - B00
   002113    040040 0 0 0 000
   002114    0 000 0 000 450 1 05 1    476          OP      450,1,0,0,OTH,STP0,1
   002115    123124120060
   002116    040040 0 0 0 000
   002117    0 000 0 000 451 0 05 1    477          OP      451,0,0,0,OTH,SMIC,1
   002120    123115111103
   002121    040040 0 0 0 000
   002122    0 000 0 000 451 1 05 1    478          OP      451,1,0,0,OTH,STP1,1
   002123    123124120061
   002124    040040 0 0 0 000
   002125    0 000 0 000 452 0 05 1    479          OP      452,0,0,0,OTH,SFR,1
   002126    123106122040
   002127    040040 0 0 0 000
   002130    0 000 0 000 452 1 05 1    480          OP      452,1,0,0,OTH,STP2,1
   002131    123124120062
   002132    040040 0 0 0 000
   002133    0 000 0 000 453 0 05 1    481          OP      453,0,0,0,OTH,QFST,1     DPS90 only
   002134    121106123124
   002135    040040 0 0 0 000
   002136    0 000 0 000 453 1 05 1    482          OP      453,1,0,0,OTH,STP3,1
   002137    123124120063
   002140    040040 0 0 0 000
   002141    0 000 0 000 454 0 05 1    483          OP      454,0,0,0,OTH,STT,1
   002142    123124124040
   002143    040040 0 0 0 000
   002144    0 000 0 000 454 1 05 1    484          OP      454,1,0,0,OTH,STP4,1
   002145    123124120064
   002146    040040 0 0 0 000
   002147    0 000 0 000 455 0 05 1    485          OP      455,0,0,0,OTH,FST,1
   002150    106123124040
   002151    040040 0 0 0 000
   002152    0 000 0 000 455 1 05 1    486          OP      455,1,0,0,OTH,STP5,1
   002153    123124120065
   002154    040040 0 0 0 000
   002155    0 000 0 000 456 0 05 1    487          OP      456,0,0,0,OTH,STE,1
   002156    123124105040
   002157    040040 0 0 0 000
 14:27 07/29/97  FILE=DD_OP_D.:E05TSI                                                                    34   BMAP - B00
   002160    0 000 0 000 456 1 05 1    488          OP      456,1,0,0,OTH,STP6,1
   002161    123124120066
   002162    040040 0 0 0 000
   002163    0 000 0 000 457 0 05 1    489          OP      457,0,0,0,OTH,DFST,1
   002164    104106123124
   002165    040040 0 0 0 000
   002166    0 000 0 000 457 1 05 1    490          OP      457,1,0,0,OTH,STP7,1
   002167    123124120067
   002170    040040 0 0 0 000
   002171    0 000 0 000 460 0 05 1    491          OP      460,0,0,0,OTH,QSMP,1     DPS90 only
   002172    121123115120
   002173    040040 0 0 0 000
   002174    0 000 0 000 461 0 05 1    492          OP      461,0,0,0,OTH,FMP,1
   002175    106115120040
   002176    040040 0 0 0 000
   002177    0 000 0 000 462 0 05 1    493          OP      462,0,0,0,OTH,QFMP,1     DPS90 only
   002200    121106115120
   002201    040040 0 0 0 000
   002202    0 000 0 000 463 0 05 1    494          OP      463,0,0,0,OTH,DFMP,1
   002203    104106115120
   002204    040040 0 0 0 000
   002205    0 000 0 000 463 1 05 1    495          OP      463,1,0,0,OTH,LAREG,1
   002206    114101122105
   002207    107040 0 0 0 000
   002210    0 000 0 000 465 0 05 1    496          OP      465,0,0,0,OTH,FSBI,1     DPS90 only
   002211    106123102111
   002212    040040 0 0 0 000
   002213    0 000 0 000 466 0 05 1    497          OP      466,0,0,0,OTH,QFSTR,1    DPS90 only
   002214    121106123124
   002215    122040 0 0 0 000
   002216    0 000 0 000 467 0 05 1    498          OP      467,0,0,0,OTH,DFSBI,1    DPS90 only
   002217    104106123102
   002220    111040 0 0 0 000
   002221    0 000 0 000 467 1 05 1    499          OP      467,1,0,0,OTH,LPL,1
   002222    114120114040
   002223    040040 0 0 0 000
   002224    0 000 0 000 470 0 05 1    500          OP      470,0,0,0,OTH,FSTR,1
 14:27 07/29/97  FILE=DD_OP_D.:E05TSI                                                                    35   BMAP - B00
   002225    106123124122
   002226    040040 0 0 0 000
   002227    0 000 0 000 470 1 05 1    501          OP      470,1,0,0,OTH,LDP0,1
   002230    114104120060
   002231    040040 0 0 0 000
   002232    0 100 0 000 471 0 05 1    502          OP      471,0,0,0,OTH,FRD,1,OCTLY
   002233    106122104040
   002234    040040 0 0 0 000
   002235    0 000 0 000 471 1 05 1    503          OP      471,1,0,0,OTH,LDP1,1
   002236    114104120061
   002237    040040 0 0 0 000
   002240    0 000 0 000 472 0 05 1    504          OP      472,0,0,0,OTH,DFSTR,1
   002241    104106123124
   002242    122040 0 0 0 000
   002243    0 000 0 000 472 1 05 1    505          OP      472,1,0,0,OTH,LDP2,1
   002244    114104120062
   002245    040040 0 0 0 000
   002246    0 100 0 000 473 0 05 1    506          OP      473,0,0,0,OTH,DFRD,1,OCTLY
   002247    104106122104
   002250    040040 0 0 0 000
   002251    0 000 0 000 473 1 05 1    507          OP      473,1,0,0,OTH,LDP3,1
   002252    114104120063
   002253    040040 0 0 0 000
   002254    0 000 0 000 474 0 05 1    508          OP      474,0,0,0,OTH,FTR,1      DPS90 only
   002255    106124122040
   002256    040040 0 0 0 000
   002257    0 000 0 000 474 1 05 1    509          OP      474,1,0,0,OTH,LDP4,1
   002260    114104120064
   002261    040040 0 0 0 000
   002262    0 000 0 000 475 0 05 1    510          OP      475,0,0,0,OTH,FAD,1
   002263    106101104040
   002264    040040 0 0 0 000
   002265    0 000 0 000 475 1 05 1    511          OP      475,1,0,0,OTH,LDP5,1
   002266    114104120065
   002267    040040 0 0 0 000
   002270    0 000 0 000 476 0 05 1    512          OP      476,0,0,0,OTH,QFAD,1     DPS90 only
   002271    121106101104
 14:27 07/29/97  FILE=DD_OP_D.:E05TSI                                                                    36   BMAP - B00
   002272    040040 0 0 0 000
   002273    0 000 0 000 476 1 05 1    513          OP      476,1,0,0,OTH,LDP6,1
   002274    114104120066
   002275    040040 0 0 0 000
   002276    0 000 0 000 477 0 05 1    514          OP      477,0,0,0,OTH,DFAD,1
   002277    104106101104
   002300    040040 0 0 0 000
   002301    0 000 0 000 477 1 05 1    515          OP      477,1,0,0,OTH,LDP7,1
   002302    114104120067
   002303    040040 0 0 0 000
   002304    0 000 0 000 500 0 05 1    516          OP      500,0,0,0,OTH,RPL,1
   002305    122120114040
   002306    040040 0 0 0 000
   002307    0 040 0 000 500 1 05 1    517          OP      500,1,0,0,OTH,A9BD,1,AWX
   002310    101071102104
   002311    040040 0 0 0 000
   002312    0 040 0 000 501 1 05 1    518          OP      501,1,0,0,OTH,A6BD,1,AWX
   002313    101066102104
   002314    040040 0 0 0 000
   002315    0 040 0 000 502 1 05 1    519          OP      502,1,0,0,OTH,A4BD,1,AWX
   002316    101064102104
   002317    040040 0 0 0 000
   002320    0 040 0 000 503 1 05 1    520          OP      503,1,0,0,OTH,ABD,1,AWX
   002321    101102104040
   002322    040040 0 0 0 000
   002323    0 000 0 000 505 0 05 1    521          OP      505,0,0,0,OTH,BCD,1
   002324    102103104040
   002325    040040 0 0 0 000
   002326    0 000 0 000 506 0 05 1    522          OP      506,0,0,0,OTH,DIV,1
   002327    104111126040
   002330    040040 0 0 0 000
   002331    0 000 0 000 507 0 05 1    523          OP      507,0,0,0,OTH,DVF,1
   002332    104126106040
   002333    040040 0 0 0 000
   002334    0 040 0 000 507 1 05 1    524          OP      507,1,0,0,OTH,AWD,1,AWX
   002335    101127104040
   002336    040040 0 0 0 000
 14:27 07/29/97  FILE=DD_OP_D.:E05TSI                                                                    37   BMAP - B00
   002337    0 100 0 000 513 0 05 1    525          OP      513,0,0,0,OTH,FNEG,1,OCTLY
   002340    106116105107
   002341    040040 0 0 0 000
   002342    0 000 0 000 515 0 05 1    526          OP      515,0,0,0,OTH,FCMP,1
   002343    106103115120
   002344    040040 0 0 0 000
   002345    0 000 0 000 517 0 05 1    527          OP      517,0,0,0,OTH,DFCMP,1
   002346    104106103115
   002347    120040 0 0 0 000
   002350    0 000 0 000 520 0 05 1    528          OP      520,0,0,0,OTH,RPT,1
   002351    122120124040
   002352    040040 0 0 0 000
   002353    0 040 0 000 520 1 05 1    529          OP      520,1,0,0,OTH,S9BD,1,AWX
   002354    123071102104
   002355    040040 0 0 0 000
   002356    0 040 0 000 521 1 05 1    530          OP      521,1,0,0,OTH,S6BD,1,AWX
   002357    123066102104
   002360    040040 0 0 0 000
   002361    0 040 0 000 522 1 05 1    531          OP      522,1,0,0,OTH,S4BD,1,AWX
   002362    123064102104
   002363    040040 0 0 0 000
   002364    0 040 0 000 523 1 05 1    532          OP      523,1,0,0,OTH,SBD,1,AWX
   002365    123102104040
   002366    040040 0 0 0 000
   002367    0 000 0 000 525 0 05 1    533          OP      525,0,0,0,OTH,FDI,1
   002370    106104111040
   002371    040040 0 0 0 000
   002372    0 000 0 000 527 0 05 1    534          OP      527,0,0,0,OTH,DFDI,1
   002373    104106104111
   002374    040040 0 0 0 000
   002375    0 040 0 000 527 1 05 1    535          OP      527,1,0,0,OTH,SWD,1,AWX
   002376    123127104040
   002377    040040 0 0 0 000
   002400    0 000 0 000 530 0 05 1    536          OP      530,0,0,0,OTH,FLP,1      DPS90 only
   002401    106114120040
   002402    040040 0 0 0 000
   002403    0 100 0 000 531 0 05 1    537          OP      531,0,0,0,OTH,NEG,1,OCTLY
 14:27 07/29/97  FILE=DD_OP_D.:E05TSI                                                                    38   BMAP - B00
   002404    116105107040
   002405    040040 0 0 0 000
   002406    0 000 0 000 532 0 05 1    538          OP      532,0,0,0,OTH,DFLP,1     DPS90 only
   002407    104106114120
   002410    040040 0 0 0 000
   002411    0 000 0 000 532 1 05 1    539          OP      532,1,0,0,OTH,CAMP,1
   002412    103101115120
   002413    040040 0 0 0 000
   002414    0 100 0 000 533 0 05 1    540          OP      533,0,0,0,OTH,NEGL,1,OCTLY
   002415    116105107114
   002416    040040 0 0 0 000
   002417    0 000 0 000 535 0 05 1    541          OP      535,0,0,0,OTH,UFS,1
   002420    125106123040
   002421    040040 0 0 0 000
   002422    0 000 0 000 537 0 05 1    542          OP      537,0,0,0,OTH,DUFS,1
   002423    104125106123
   002424    040040 0 0 0 000
   002425    0 000 0 000 540 0 05 1    543          OP      540,0,0,0,OTH,TRCT0,1    DPS90 only
   002426    124122103124
   002427    060040 0 0 0 000
   002430    0 000 0 000 540 1 05 1    544          OP      540,1,0,0,OTH,ARA0,1
   002431    101122101060
   002432    040040 0 0 0 000
   002433    0 000 0 000 541 0 05 1    545          OP      541,0,0,0,OTH,TRCT1,1    DPS90 only
   002434    124122103124
   002435    061040 0 0 0 000
   002436    0 000 0 000 541 1 05 1    546          OP      541,1,0,0,OTH,ARA1,1
   002437    101122101061
   002440    040040 0 0 0 000
   002441    0 000 0 000 542 0 05 1    547          OP      542,0,0,0,OTH,TRCT2,1    DPS90 only
   002442    124122103124
   002443    062040 0 0 0 000
   002444    0 000 0 000 542 1 05 1    548          OP      542,1,0,0,OTH,ARA2,1
   002445    101122101062
   002446    040040 0 0 0 000
   002447    0 000 0 000 543 0 05 1    549          OP      543,0,0,0,OTH,TRCT3,1    DPS90 only
   002450    124122103124
 14:27 07/29/97  FILE=DD_OP_D.:E05TSI                                                                    39   BMAP - B00
   002451    063040 0 0 0 000
   002452    0 000 0 000 543 1 05 1    550          OP      543,1,0,0,OTH,ARA3,1
   002453    101122101063
   002454    040040 0 0 0 000
   002455    0 000 0 000 544 0 05 1    551          OP      544,0,0,0,OTH,TRCT4,1    DPS90 only
   002456    124122103124
   002457    064040 0 0 0 000
   002460    0 000 0 000 544 1 05 1    552          OP      544,1,0,0,OTH,ARA4,1
   002461    101122101064
   002462    040040 0 0 0 000
   002463    0 000 0 000 545 0 05 1    553          OP      545,0,0,0,OTH,TRCT5,1    DPS90 only
   002464    124122103124
   002465    065040 0 0 0 000
   002466    0 000 0 000 545 1 05 1    554          OP      545,1,0,0,OTH,ARA5,1
   002467    101122101065
   002470    040040 0 0 0 000
   002471    0 000 0 000 546 0 05 1    555          OP      546,0,0,0,OTH,TRCT6,1    DPS90 only
   002472    124122103124
   002473    066040 0 0 0 000
   002474    0 000 0 000 546 1 05 1    556          OP      546,1,0,0,OTH,ARA6,1
   002475    101122101066
   002476    040040 0 0 0 000
   002477    0 000 0 000 547 0 05 1    557          OP      547,0,0,0,OTH,TRCT7,1    DPS90 only
   002500    124122103124
   002501    067040 0 0 0 000
   002502    0 000 0 000 547 1 05 1    558          OP      547,1,0,0,OTH,ARA7,1
   002503    101122101067
   002504    040040 0 0 0 000
   002505    0 000 0 000 550 0 05 1    559          OP      550,0,0,0,OTH,SBAR,1
   002506    123102101122
   002507    040040 0 0 0 000
   002510    0 000 0 000 550 1 05 1    560          OP      550,1,0,0,OTH,STTD,1
   002511    123124124104
   002512    040040 0 0 0 000
   002513    0 020 0 000 551 0 05 1    561          OP      551,0,0,0,OTH,STBA,1,STC
   002514    123124102101
   002515    040040 0 0 0 000
 14:27 07/29/97  FILE=DD_OP_D.:E05TSI                                                                    40   BMAP - B00
   002516    0 000 0 000 551 1 05 1    562          OP      551,1,0,0,OTH,STDSD,1
   002517    123124104123
   002520    104040 0 0 0 000
   002521    0 020 0 000 552 0 05 1    563          OP      552,0,0,0,OTH,STBQ,1,STC
   002522    123124102121
   002523    040040 0 0 0 000
   002524    0 000 0 000 553 0 05 1    564          OP      553,0,0,0,OTH,LIMR,1
   002525    114111115122
   002526    040040 0 0 0 000
   002527    0 000 0 000 553 1 05 1    565          OP      553,1,0,0,OTH,STTA,1
   002530    123124124101
   002531    040040 0 0 0 000
   002532    0 000 0 000 554 0 05 1    566          OP      554,0,0,0,OTH,STC1,1
   002533    123124103061
   002534    040040 0 0 0 000
   002535    0 000 0 000 555 0 05 1    567          OP      555,0,0,0,OTH,SMBA,1
   002536    123115102101
   002537    040040 0 0 0 000
   002540    0 000 0 000 556 0 05 1    568          OP      556,0,0,0,OTH,SMBB,1
   002541    123115102102
   002542    040040 0 0 0 000
   002543    0 000 0 000 560 0 05 1    569          OP      560,0,0,0,OTH,RPD,1
   002544    122120104040
   002545    040040 0 0 0 000
   002546    0 000 0 000 560 1 05 1    570          OP      560,1,0,0,OTH,AAR0,1
   002547    101101122060
   002550    040040 0 0 0 000
   002551    0 000 0 000 561 1 05 1    571          OP      561,1,0,0,OTH,AAR1,1
   002552    101101122061
   002553    040040 0 0 0 000
   002554    0 000 0 000 562 1 05 1    572          OP      562,1,0,0,OTH,AAR2,1
   002555    101101122062
   002556    040040 0 0 0 000
   002557    0 000 0 000 563 1 05 1    573          OP      563,1,0,0,OTH,AAR3,1
   002560    101101122063
   002561    040040 0 0 0 000
   002562    0 000 0 000 564 1 05 1    574          OP      564,1,0,0,OTH,AAR4,1
 14:27 07/29/97  FILE=DD_OP_D.:E05TSI                                                                    41   BMAP - B00
   002563    101101122064
   002564    040040 0 0 0 000
   002565    0 000 0 000 565 0 05 1    575          OP      565,0,0,0,OTH,FDV,1
   002566    106104126040
   002567    040040 0 0 0 000
   002570    0 000 0 000 565 1 05 1    576          OP      565,1,0,0,OTH,AAR5,1
   002571    101101122065
   002572    040040 0 0 0 000
   002573    0 000 0 000 566 1 05 1    577          OP      566,1,0,0,OTH,AAR6,1
   002574    101101122066
   002575    040040 0 0 0 000
   002576    0 000 0 000 567 0 05 1    578          OP      567,0,0,0,OTH,DFDV,1
   002577    104106104126
   002600    040040 0 0 0 000
   002601    0 000 0 000 567 1 05 1    579          OP      567,1,0,0,OTH,AAR7,1
   002602    101101122067
   002603    040040 0 0 0 000
   002604    0 000 0 000 570 0 05 1    580          OP      570,0,0,0,OTH,LMBA,1
   002605    114115102101
   002606    040040 0 0 0 000
   002607    0 000 0 000 571 0 05 1    581          OP      571,0,0,0,OTH,LDDSD,1
   002610    114104104123
   002611    104040 0 0 0 000
   002612    0 000 0 000 571 0 05 1    582          OP      571,0,0,0,OTH,LMBB,1
   002613    114115102102
   002614    040040 0 0 0 000
   002615    0 000 0 000 572 0 05 1    583          OP      572,0,0,0,OTH,LBER,1
   002616    114102105122
   002617    040040 0 0 0 000
   002620    0 100 0 000 573 0 05 1    584          OP      573,0,0,0,OTH,FNO,1,OCTLY
   002621    106116117040
   002622    040040 0 0 0 000
   002623    0 000 0 000 574 0 05 1    585          OP      574,0,0,0,OTH,LMDR,1
   002624    114115104122
   002625    040040 0 0 0 000
   002626    0 000 0 000 575 0 05 1    586          OP      575,0,0,0,OTH,FSB,1
   002627    106123102040
 14:27 07/29/97  FILE=DD_OP_D.:E05TSI                                                                    42   BMAP - B00
   002630    040040 0 0 0 000
   002631    0 000 0 000 576 0 05 1    587          OP      576,0,0,0,OTH,QFSB,1     DPS90 only
   002632    121106123102
   002633    040040 0 0 0 000
   002634    0 000 0 000 577 0 05 1    588          OP      577,0,0,0,OTH,DFSB,1
   002635    104106123102
   002636    040040 0 0 0 000
   002637    0 000 0 000 600 0 03 1    589          OP      600,0,0,0,CTR,TZE,1
   002640    124132105040
   002641    040040 0 0 0 000
   002642    0 000 0 000 600 1 03 1    590          OP      600,1,0,0,CTR,TRTN,1
   002643    124122124116
   002644    040040 0 0 0 000
   002645    0 000 0 000 601 0 03 1    591          OP      601,0,0,0,CTR,TNZ,1
   002646    124116132040
   002647    040040 0 0 0 000
   002650    0 000 0 000 601 1 03 1    592          OP      601,1,0,0,CTR,TRTF,1
   002651    124122124106
   002652    040040 0 0 0 000
   002653    0 000 0 000 602 0 03 1    593          OP      602,0,0,0,CTR,TNC,1
   002654    124116103040
   002655    040040 0 0 0 000
   002656    0 000 0 000 603 0 03 1    594          OP      603,0,0,0,CTR,TRC,1
   002657    124122103040
   002660    040040 0 0 0 000
   002661    0 000 0 000 604 0 03 1    595          OP      604,0,0,0,CTR,TMI,1
   002662    124115111040
   002663    040040 0 0 0 000
   002664    0 000 0 000 604 1 03 1    596          OP      604,1,0,0,CTR,TMOZ,1
   002665    124115117132
   002666    040040 0 0 0 000
   002667    0 000 0 000 605 0 03 1    597          OP      605,0,0,0,CTR,TPL,1
   002670    124120114040
   002671    040040 0 0 0 000
   002672    0 000 0 000 605 1 03 1    598          OP      605,1,0,0,CTR,TPNZ,1
   002673    124120116132
   002674    040040 0 0 0 000
 14:27 07/29/97  FILE=DD_OP_D.:E05TSI                                                                    43   BMAP - B00
   002675    0 000 0 000 606 1 03 1    599          OP      606,1,0,0,CTR,TTN,1
   002676    124124116040
   002677    040040 0 0 0 000
   002700    0 000 0 000 607 0 03 1    600          OP      607,0,0,0,CTR,TTF,1
   002701    124124106040
   002702    040040 0 0 0 000
   002703    0 000 0 000 610 1 05 1    601          OP      610,1,0,0,OTH,LDEA0,1
   002704    114104105101
   002705    060040 0 0 0 000
   002706    0 000 0 000 611 1 05 1    602          OP      611,1,0,0,OTH,LDEA1,1
   002707    114104105101
   002710    061040 0 0 0 000
   002711    0 020 1 000 612 0 05 1    603          OP      612,0,0,1,OTH,DIAG,1,STC     DPS90 only
   002712    104111101107
   002713    040040 0 0 0 000
   002714    0 000 0 000 612 1 05 1    604          OP      612,1,0,0,OTH,LDEA2,1
   002715    114104105101
   002716    062040 0 0 0 000
   002717    0 000 0 000 613 1 05 1    605          OP      613,1,0,0,OTH,LDEA3,1
   002720    114104105101
   002721    063040 0 0 0 000
   002722    0 000 0 000 614 0 03 1    606          OP      614,0,0,0,CTR,TEO,1
   002723    124105117040
   002724    040040 0 0 0 000
   002725    0 000 0 000 614 1 05 1    607          OP      614,1,0,0,OTH,LDEA4,1
   002726    114104105101
   002727    064040 0 0 0 000
   002730    0 000 0 000 615 0 03 1    608          OP      615,0,0,0,CTR,TEU,1
   002731    124105125040
   002732    040040 0 0 0 000
   002733    0 000 0 000 615 1 05 1    609          OP      615,1,0,0,OTH,LDEA5,1
   002734    114104105101
   002735    065040 0 0 0 000
   002736    0 100 1 000 616 0 05 1    610          OP      616,0,0,1,OTH,DIS,1,OCTLY
   002737    104111123040
   002740    040040 0 0 0 000
   002741    0 000 0 000 616 1 05 1    611          OP      616,1,0,0,OTH,LDEA6,1
 14:27 07/29/97  FILE=DD_OP_D.:E05TSI                                                                    44   BMAP - B00
   002742    114104105101
   002743    066040 0 0 0 000
   002744    0 000 0 000 617 0 03 1    612          OP      617,0,0,0,CTR,TOV,1
   002745    124117126040
   002746    040040 0 0 0 000
   002747    0 000 0 000 617 1 05 1    613          OP      617,1,0,0,OTH,LDEA7,1
   002750    114104105101
   002751    067040 0 0 0 000
   002752    0 000 0 000 620 0 05 1    614          OP      620,0,0,0,OTH,EAX0,1
   002753    105101130060
   002754    040040 0 0 0 000
   002755    0 000 0 000 621 0 05 1    615          OP      621,0,0,0,OTH,EAX1,1
   002756    105101130061
   002757    040040 0 0 0 000
   002760    0 000 0 000 622 0 05 1    616          OP      622,0,0,0,OTH,EAX2,1
   002761    105101130062
   002762    040040 0 0 0 000
   002763    0 000 0 000 623 0 05 1    617          OP      623,0,0,0,OTH,EAX3,1
   002764    105101130063
   002765    040040 0 0 0 000
   002766    0 000 0 000 624 0 05 1    618          OP      624,0,0,0,OTH,EAX4,1
   002767    105101130064
   002770    040040 0 0 0 000
   002771    0 000 0 000 625 0 05 1    619          OP      625,0,0,0,OTH,EAX5,1
   002772    105101130065
   002773    040040 0 0 0 000
   002774    0 000 0 000 626 0 05 1    620          OP      626,0,0,0,OTH,EAX6,1
   002775    105101130066
   002776    040040 0 0 0 000
   002777    0 000 0 000 627 0 05 1    621          OP      627,0,0,0,OTH,EAX7,1
   003000    105101130067
   003001    040040 0 0 0 000
   003002    0 000 1 000 630 0 02 1    622          OP      630,0,0,1,UTR,RET,1
   003003    122105124040
   003004    040040 0 0 0 000
   003005    0 000 0 000 630 1 05 1    623          OP      630,1,0,0,OTH,EPPR0,1
   003006    105120120122
 14:27 07/29/97  FILE=DD_OP_D.:E05TSI                                                                    45   BMAP - B00
   003007    060040 0 0 0 000
   003010    0 000 0 000 631 1 05 1    624          OP      631,1,0,0,OTH,EPPR1,1
   003011    105120120122
   003012    061040 0 0 0 000
   003013    0 000 0 000 632 1 05 1    625          OP      632,1,0,0,OTH,EPPR2,1
   003014    105120120122
   003015    062040 0 0 0 000
   003016    0 000 0 000 633 1 05 1    626          OP      633,1,0,0,OTH,EPPR3,1
   003017    105120120122
   003020    063040 0 0 0 000
   003021    0 000 0 000 634 0 05 1    627          OP      634,0,0,0,OTH,LDI,1
   003022    114104111040
   003023    040040 0 0 0 000
   003024    0 000 0 000 634 1 05 1    628          OP      634,1,0,0,OTH,EPPR4,1
   003025    105120120122
   003026    064040 0 0 0 000
   003027    0 000 0 000 635 0 05 1    629          OP      635,0,0,0,OTH,EAA,1
   003030    105101101040
   003031    040040 0 0 0 000
   003032    0 000 0 000 635 1 05 1    630          OP      635,1,0,0,OTH,EPPR5,1
   003033    105120120122
   003034    065040 0 0 0 000
   003035    0 000 0 000 636 0 05 1    631          OP      636,0,0,0,OTH,EAQ,1
   003036    105101121040
   003037    040040 0 0 0 000
   003040    0 000 0 000 636 1 05 1    632          OP      636,1,0,0,OTH,EPPR6,1
   003041    105120120122
   003042    066040 0 0 0 000
   003043    0 000 0 000 637 0 05 1    633          OP      637,0,0,0,OTH,LDT,1
   003044    114104124040
   003045    040040 0 0 0 000
   003046    0 000 0 000 637 1 05 1    634          OP      637,1,0,0,OTH,EPPR7,1
   003047    105120120122
   003050    067040 0 0 0 000
   003051    0 000 0 000 640 0 05 1    635          OP      640,0,0,0,OTH,ERSX0,1
   003052    105122123130
   003053    060040 0 0 0 000
 14:27 07/29/97  FILE=DD_OP_D.:E05TSI                                                                    46   BMAP - B00
   003054    0 000 0 000 640 1 05 1    636          OP      640,1,0,0,OTH,ARN0,1
   003055    101122116060
   003056    040040 0 0 0 000
   003057    0 000 0 000 641 0 05 1    637          OP      641,0,0,0,OTH,ERSX1,1
   003060    105122123130
   003061    061040 0 0 0 000
   003062    0 000 0 000 641 1 05 1    638          OP      641,1,0,0,OTH,ARN1,1
   003063    101122116061
   003064    040040 0 0 0 000
   003065    0 000 0 000 642 0 05 1    639          OP      642,0,0,0,OTH,ERSX2,1
   003066    105122123130
   003067    062040 0 0 0 000
   003070    0 000 0 000 642 1 05 1    640          OP      642,1,0,0,OTH,ARN2,1
   003071    101122116062
   003072    040040 0 0 0 000
   003073    0 000 0 000 643 0 05 1    641          OP      643,0,0,0,OTH,ERSX3,1
   003074    105122123130
   003075    063040 0 0 0 000
   003076    0 000 0 000 643 1 05 1    642          OP      643,1,0,0,OTH,ARN3,1
   003077    101122116063
   003100    040040 0 0 0 000
   003101    0 000 0 000 644 0 05 1    643          OP      644,0,0,0,OTH,ERSX4,1
   003102    105122123130
   003103    064040 0 0 0 000
   003104    0 000 0 000 644 1 05 1    644          OP      644,1,0,0,OTH,ARN4,1
   003105    101122116064
   003106    040040 0 0 0 000
   003107    0 000 0 000 645 0 05 1    645          OP      645,0,0,0,OTH,ERSX5,1
   003110    105122123130
   003111    065040 0 0 0 000
   003112    0 000 0 000 645 1 05 1    646          OP      645,1,0,0,OTH,ARN5,1
   003113    101122116065
   003114    040040 0 0 0 000
   003115    0 000 0 000 646 0 05 1    647          OP      646,0,0,0,OTH,ERSX6,1
   003116    105122123130
   003117    066040 0 0 0 000
   003120    0 000 0 000 646 1 05 1    648          OP      646,1,0,0,OTH,ARN6,1
 14:27 07/29/97  FILE=DD_OP_D.:E05TSI                                                                    47   BMAP - B00
   003121    101122116066
   003122    040040 0 0 0 000
   003123    0 000 0 000 647 0 05 1    649          OP      647,0,0,0,OTH,ERSX7,1
   003124    105122123130
   003125    067040 0 0 0 000
   003126    0 000 0 000 647 1 05 1    650          OP      647,1,0,0,OTH,ARN7,1
   003127    101122116067
   003130    040040 0 0 0 000
   003131    0 000 0 000 654 0 05 1    651          OP      654,0,0,0,OTH,STACQ,1
   003132    123124101103
   003133    121040 0 0 0 000
   003134    0 000 0 000 655 0 05 1    652          OP      655,0,0,0,OTH,ERSA,1
   003135    105122123101
   003136    040040 0 0 0 000
   003137    0 000 0 000 656 0 05 1    653          OP      656,0,0,0,OTH,ERSQ,1
   003140    105122123121
   003141    040040 0 0 0 000
   003142    0 000 0 000 660 0 05 1    654          OP      660,0,0,0,OTH,ERX0,1
   003143    105122130060
   003144    040040 0 0 0 000
   003145    0 000 0 000 660 1 05 1    655          OP      660,1,0,0,OTH,NAR0,1
   003146    116101122060
   003147    040040 0 0 0 000
   003150    0 000 0 000 661 0 05 1    656          OP      661,0,0,0,OTH,ERX1,1
   003151    105122130061
   003152    040040 0 0 0 000
   003153    0 000 0 000 661 1 05 1    657          OP      661,1,0,0,OTH,NAR1,1
   003154    116101122061
   003155    040040 0 0 0 000
   003156    0 000 0 000 662 0 05 1    658          OP      662,0,0,0,OTH,ERX2,1
   003157    105122130062
   003160    040040 0 0 0 000
   003161    0 000 0 000 662 1 05 1    659          OP      662,1,0,0,OTH,NAR2,1
   003162    116101122062
   003163    040040 0 0 0 000
   003164    0 000 0 000 663 0 05 1    660          OP      663,0,0,0,OTH,ERX3,1
   003165    105122130063
 14:27 07/29/97  FILE=DD_OP_D.:E05TSI                                                                    48   BMAP - B00
   003166    040040 0 0 0 000
   003167    0 000 0 000 663 1 05 1    661          OP      663,1,0,0,OTH,NAR3,1
   003170    116101122063
   003171    040040 0 0 0 000
   003172    0 000 0 000 664 0 05 1    662          OP      664,0,0,0,OTH,ERX4,1
   003173    105122130064
   003174    040040 0 0 0 000
   003175    0 000 0 000 664 1 05 1    663          OP      664,1,0,0,OTH,NAR4,1
   003176    116101122064
   003177    040040 0 0 0 000
   003200    0 000 0 000 665 0 05 1    664          OP      665,0,0,0,OTH,ERX5,1
   003201    105122130065
   003202    040040 0 0 0 000
   003203    0 000 0 000 665 1 05 1    665          OP      665,1,0,0,OTH,NAR5,1
   003204    116101122065
   003205    040040 0 0 0 000
   003206    0 000 0 000 666 0 05 1    666          OP      666,0,0,0,OTH,ERX6,1
   003207    105122130066
   003210    040040 0 0 0 000
   003211    0 000 0 000 666 1 05 1    667          OP      666,1,0,0,OTH,NAR6,1
   003212    116101122066
   003213    040040 0 0 0 000
   003214    0 000 0 000 667 0 05 1    668          OP      667,0,0,0,OTH,ERX7,1
   003215    105122130067
   003216    040040 0 0 0 000
   003217    0 000 0 000 667 1 05 1    669          OP      667,1,0,0,OTH,NAR7,1
   003220    116101122067
   003221    040040 0 0 0 000
   003222    0 000 0 000 670 1 05 1    670          OP      670,1,0,0,OTH,LDD0,1
   003223    114104104060
   003224    040040 0 0 0 000
   003225    0 000 0 000 671 1 05 1    671          OP      671,1,0,0,OTH,LDD1,1
   003226    114104104061
   003227    040040 0 0 0 000
   003230    0 000 0 000 672 1 05 1    672          OP      672,1,0,0,OTH,LDD2,1
   003231    114104104062
   003232    040040 0 0 0 000
 14:27 07/29/97  FILE=DD_OP_D.:E05TSI                                                                    49   BMAP - B00
   003233    0 000 0 000 673 1 05 1    673          OP      673,1,0,0,OTH,LDD3,1
   003234    114104104063
   003235    040040 0 0 0 000
   003236    0 000 0 000 674 0 05 1    674          OP      674,0,0,0,OTH,LCPR,1
   003237    114103120122
   003240    040040 0 0 0 000
   003241    0 000 0 000 674 1 05 1    675          OP      674,1,0,0,OTH,LDD4,1
   003242    114104104064
   003243    040040 0 0 0 000
   003244    0 000 0 000 675 0 05 1    676          OP      675,0,0,0,OTH,ERA,1
   003245    105122101040
   003246    040040 0 0 0 000
   003247    0 000 0 000 675 1 05 1    677          OP      675,1,0,0,OTH,LDD5,1
   003250    114104104065
   003251    040040 0 0 0 000
   003252    0 000 0 000 676 0 05 1    678          OP      676,0,0,0,OTH,ERQ,1
   003253    105122121040
   003254    040040 0 0 0 000
   003255    0 000 0 000 676 1 05 1    679          OP      676,1,0,0,OTH,LDD6,1
   003256    114104104066
   003257    040040 0 0 0 000
   003260    0 000 0 000 677 0 05 1    680          OP      677,0,0,0,OTH,ERAQ,1
   003261    105122101121
   003262    040040 0 0 0 000
   003263    0 000 0 000 677 1 05 1    681          OP      677,1,0,0,OTH,LDD7,1
   003264    114104104067
   003265    040040 0 0 0 000
   003266    0 000 0 000 700 0 02 1    682          OP      700,0,0,0,UTR,TSX0,1
   003267    124123130060
   003270    040040 0 0 0 000
   003271    0 000 0 000 701 0 02 1    683          OP      701,0,0,0,UTR,TSX1,1
   003272    124123130061
   003273    040040 0 0 0 000
   003274    0 000 0 000 702 0 02 1    684          OP      702,0,0,0,UTR,TSX2,1
   003275    124123130062
   003276    040040 0 0 0 000
   003277    0 000 0 000 703 0 02 1    685          OP      703,0,0,0,UTR,TSX3,1
 14:27 07/29/97  FILE=DD_OP_D.:E05TSI                                                                    50   BMAP - B00
   003300    124123130063
   003301    040040 0 0 0 000
   003302    0 000 0 000 704 0 02 1    686          OP      704,0,0,0,UTR,TSX4,1
   003303    124123130064
   003304    040040 0 0 0 000
   003305    0 000 0 000 705 0 02 1    687          OP      705,0,0,0,UTR,TSX5,1
   003306    124123130065
   003307    040040 0 0 0 000
   003310    0 000 0 000 706 0 02 1    688          OP      706,0,0,0,UTR,TSX6,1
   003311    124123130066
   003312    040040 0 0 0 000
   003313    0 000 0 000 707 0 02 1    689          OP      707,0,0,0,UTR,TSX7,1
   003314    124123130067
   003315    040040 0 0 0 000
   003316    0 000 0 000 710 0 02 1    690          OP      710,0,0,0,UTR,TRA,1
   003317    124122101040
   003320    040040 0 0 0 000
   003321    0 000 0 000 713 1 04 2    691          OP      713,1,0,0,SPE,CLIMB,2,,CDSC
   003322    103114111115
   003323    102040 7 0 0 000
   003324    0 000 0 000 715 0 02 1    692          OP      715,0,0,0,UTR,TSS,1
   003325    124123123040
   003326    040040 0 0 0 000
   003327    0 000 0 000 716 0 05 1    693          OP      716,0,0,0,OTH,XEC,1
   003330    130105103040
   003331    040040 0 0 0 000
   003332    0 000 0 000 717 0 05 1    694          OP      717,0,0,0,OTH,XED,1
   003333    130105104040
   003334    040040 0 0 0 000
   003335    0 000 0 000 720 0 05 1    695          OP      720,0,0,0,OTH,LXL0,1
   003336    114130114060
   003337    040040 0 0 0 000
   003340    0 000 0 000 721 0 05 1    696          OP      721,0,0,0,OTH,LXL1,1
   003341    114130114061
   003342    040040 0 0 0 000
   003343    0 000 0 000 722 0 05 1    697          OP      722,0,0,0,OTH,LXL2,1
   003344    114130114062
 14:27 07/29/97  FILE=DD_OP_D.:E05TSI                                                                    51   BMAP - B00
   003345    040040 0 0 0 000
   003346    0 000 0 000 723 0 05 1    698          OP      723,0,0,0,OTH,LXL3,1
   003347    114130114063
   003350    040040 0 0 0 000
   003351    0 000 0 000 724 0 05 1    699          OP      724,0,0,0,OTH,LXL4,1
   003352    114130114064
   003353    040040 0 0 0 000
   003354    0 000 0 000 725 0 05 1    700          OP      725,0,0,0,OTH,LXL5,1
   003355    114130114065
   003356    040040 0 0 0 000
   003357    0 000 0 000 726 0 05 1    701          OP      726,0,0,0,OTH,LXL6,1
   003360    114130114066
   003361    040040 0 0 0 000
   003362    0 000 0 000 727 0 05 1    702          OP      727,0,0,0,OTH,LXL7,1
   003363    114130114067
   003364    040040 0 0 0 000
   003365    0 000 0 000 731 0 05 1    703          OP      731,0,0,0,OTH,ARS,1
   003366    101122123040
   003367    040040 0 0 0 000
   003370    0 100 0 000 732 0 05 1    704          OP      732,0,0,0,OTH,QRS,1,OCTLY
   003371    121122123040
   003372    040040 0 0 0 000
   003373    0 100 0 000 733 0 05 1    705          OP      733,0,0,0,OTH,LRS,1,OCTLY
   003374    114122123040
   003375    040040 0 0 0 000
   003376    0 100 0 000 735 0 05 1    706          OP      735,0,0,0,OTH,ALS,1,OCTLY
   003377    101114123040
   003400    040040 0 0 0 000
   003401    0 100 0 000 736 0 05 1    707          OP      736,0,0,0,OTH,QLS,1,OCTLY
   003402    121114123040
   003403    040040 0 0 0 000
   003404    0 100 0 000 737 0 05 1    708          OP      737,0,0,0,OTH,LLS,1,OCTLY
   003405    114114123040
   003406    040040 0 0 0 000
   003407    0 000 0 000 740 0 05 1    709          OP      740,0,0,0,OTH,STX0,1
   003410    123124130060
   003411    040040 0 0 0 000
 14:27 07/29/97  FILE=DD_OP_D.:E05TSI                                                                    52   BMAP - B00
   003412    0 000 0 000 740 1 05 1    710          OP      740,1,0,0,OTH,SAR0,1
   003413    123101122060
   003414    040040 0 0 0 000
   003415    0 000 0 000 741 0 05 1    711          OP      741,0,0,0,OTH,STX1,1
   003416    123124130061
   003417    040040 0 0 0 000
   003420    0 000 0 000 741 1 05 1    712          OP      741,1,0,0,OTH,SAR1,1
   003421    123101122061
   003422    040040 0 0 0 000
   003423    0 000 0 000 742 0 05 1    713          OP      742,0,0,0,OTH,STX2,1
   003424    123124130062
   003425    040040 0 0 0 000
   003426    0 000 0 000 742 1 05 1    714          OP      742,1,0,0,OTH,SAR2,1
   003427    123101122062
   003430    040040 0 0 0 000
   003431    0 000 0 000 743 0 05 1    715          OP      743,0,0,0,OTH,STX3,1
   003432    123124130063
   003433    040040 0 0 0 000
   003434    0 000 0 000 743 1 05 1    716          OP      743,1,0,0,OTH,SAR3,1
   003435    123101122063
   003436    040040 0 0 0 000
   003437    0 000 0 000 744 0 05 1    717          OP      744,0,0,0,OTH,STX4,1
   003440    123124130064
   003441    040040 0 0 0 000
   003442    0 000 0 000 744 1 05 1    718          OP      744,1,0,0,OTH,SAR4,1
   003443    123101122064
   003444    040040 0 0 0 000
   003445    0 000 0 000 745 0 05 1    719          OP      745,0,0,0,OTH,STX5,1
   003446    123124130065
   003447    040040 0 0 0 000
   003450    0 000 0 000 745 1 05 1    720          OP      745,1,0,0,OTH,SAR5,1
   003451    123101122065
   003452    040040 0 0 0 000
   003453    0 000 0 000 746 0 05 1    721          OP      746,0,0,0,OTH,STX6,1
   003454    123124130066
   003455    040040 0 0 0 000
   003456    0 000 0 000 746 1 05 1    722          OP      746,1,0,0,OTH,SAR6,1
 14:27 07/29/97  FILE=DD_OP_D.:E05TSI                                                                    53   BMAP - B00
   003457    123101122066
   003460    040040 0 0 0 000
   003461    0 000 0 000 747 0 05 1    723          OP      747,0,0,0,OTH,STX7,1
   003462    123124130067
   003463    040040 0 0 0 000
   003464    0 000 0 000 747 1 05 1    724          OP      747,1,0,0,OTH,SAR7,1
   003465    123101122067
   003466    040040 0 0 0 000
   003467    0 000 0 000 750 0 05 1    725          OP      750,0,0,0,OTH,STC2,1
   003470    123124103062
   003471    040040 0 0 0 000
   003472    0 000 0 000 750 1 05 1    726          OP      750,1,0,0,OTH,STAS,1
   003473    123124101123
   003474    040040 0 0 0 000
   003475    0 020 0 000 751 0 05 1    727          OP      751,0,0,0,OTH,STCA,1,STC
   003476    123124103101
   003477    040040 0 0 0 000
   003500    0 000 0 000 751 1 05 1    728          OP      751,1,0,0,OTH,STPS,1
   003501    123124120123
   003502    040040 0 0 0 000
   003503    0 020 0 000 752 0 05 1    729          OP      752,0,0,0,OTH,STCQ,1,STC
   003504    123124103121
   003505    040040 0 0 0 000
   003506    0 000 0 000 752 1 05 1    730          OP      752,1,0,0,OTH,STWS,1
   003507    123124127123
   003510    040040 0 0 0 000
   003511    0 000 0 000 753 0 05 1    731          OP      753,0,0,0,OTH,SREG,1
   003512    123122105107
   003513    040040 0 0 0 000
   003514    0 000 0 000 753 1 05 1    732          OP      753,1,0,0,OTH,STSS,1
   003515    123124123123
   003516    040040 0 0 0 000
   003517    0 000 0 000 754 0 05 1    733          OP      754,0,0,0,OTH,STI,1
   003520    123124111040
   003521    040040 0 0 0 000
   003522    0 000 0 000 755 0 05 1    734          OP      755,0,0,0,OTH,STA,1
   003523    123124101040
 14:27 07/29/97  FILE=DD_OP_D.:E05TSI                                                                    54   BMAP - B00
   003524    040040 0 0 0 000
   003525    0 000 0 000 755 1 05 1    735          OP      755,1,0,0,OTH,MSTA,1
   003526    115123124101
   003527    040040 0 0 0 000
   003530    0 000 0 000 756 0 05 1    736          OP      756,0,0,0,OTH,STQ,1
   003531    123124121040
   003532    040040 0 0 0 000
   003533    0 000 0 000 756 1 05 1    737          OP      756,1,0,0,OTH,MSTQ,1
   003534    115123124121
   003535    040040 0 0 0 000
   003536    0 000 0 000 757 0 05 1    738          OP      757,0,0,0,OTH,STAQ,1
   003537    123124101121
   003540    040040 0 0 0 000
   003541    0 000 0 000 757 1 05 1    739          OP      757,1,0,0,OTH,MSTAQ,1
   003542    115123124101
   003543    121040 0 0 0 000
   003544    0 000 0 000 760 1 05 1    740          OP      760,1,0,0,OTH,LAR0,1
   003545    114101122060
   003546    040040 0 0 0 000
   003547    0 000 0 000 761 1 05 1    741          OP      761,1,0,0,OTH,LAR1,1
   003550    114101122061
   003551    040040 0 0 0 000
   003552    0 000 0 000 762 1 05 1    742          OP      762,1,0,0,OTH,LAR2,1
   003553    114101122062
   003554    040040 0 0 0 000
   003555    0 000 0 000 763 1 05 1    743          OP      763,1,0,0,OTH,LAR3,1
   003556    114101122063
   003557    040040 0 0 0 000
   003560    0 000 0 000 764 1 05 1    744          OP      764,1,0,0,OTH,LAR4,1
   003561    114101122064
   003562    040040 0 0 0 000
   003563    0 000 0 000 765 1 05 1    745          OP      765,1,0,0,OTH,LAR5,1
   003564    114101122065
   003565    040040 0 0 0 000
   003566    0 000 0 000 766 1 05 1    746          OP      766,1,0,0,OTH,LAR6,1
   003567    114101122066
   003570    040040 0 0 0 000
 14:27 07/29/97  FILE=DD_OP_D.:E05TSI                                                                    55   BMAP - B00
   003571    0 000 0 000 767 1 05 1    747          OP      767,1,0,0,OTH,LAR7,1
   003572    114101122067
   003573    040040 0 0 0 000
   003574    0 000 0 000 770 1 05 1    748          OP      770,1,0,0,OTH,LDAS,1
   003575    114104101123
   003576    040040 0 0 0 000
   003577    0 100 0 000 771 0 05 1    749          OP      771,0,0,0,OTH,ARL,1,OCTLY
   003600    101122114040
   003601    040040 0 0 0 000
   003602    0 000 0 000 771 1 05 1    750          OP      771,1,0,0,OTH,LDPS,1
   003603    114104120123
   003604    040040 0 0 0 000
   003605    0 100 0 000 772 0 05 1    751          OP      772,0,0,0,OTH,QRL,1,OCTLY
   003606    121122114040
   003607    040040 0 0 0 000
   003610    0 000 0 000 772 1 05 1    752          OP      772,1,0,0,OTH,LDWS,1
   003611    114104127123
   003612    040040 0 0 0 000
   003613    0 100 0 000 773 0 05 1    753          OP      773,0,0,0,OTH,LRL,1,OCTLY
   003614    114122114040
   003615    040040 0 0 0 000
   003616    0 000 0 000 773 1 05 1    754          OP      773,1,0,0,OTH,LDSS,1
   003617    114104123123
   003620    040040 0 0 0 000
   003621    0 100 0 000 774 0 05 1    755          OP      774,0,0,0,OTH,GTB,1,OCTLY
   003622    107124102040
   003623    040040 0 0 0 000
   003624    0 100 0 000 775 0 05 1    756          OP      775,0,0,0,OTH,ALR,1,OCTLY
   003625    101114122040
   003626    040040 0 0 0 000
   003627    0 100 0 000 776 0 05 1    757          OP      776,0,0,0,OTH,QLR,1,OCTLY
   003630    121114122040
   003631    040040 0 0 0 000
   003632    0 100 0 000 777 0 05 1    758          OP      777,0,0,0,OTH,LLR,1,OCTLY
   003633    114114122040
   003634    040040 0 0 0 000
             000000003572              759  DDB$OP_CODES_LEN EQU *-DDB$OP_CODES
 14:27 07/29/97  FILE=DD_OP_D.:E05TSI                                                                    56   BMAP - B00
   003635    0 000 0 000 006 0 06 1    760          OP      ARG,0,0,0,INP,ARG,1
   003636    101122107040
   003637    040040 0 0 0 000
   003640    2 000 0 000 001 0 06 1    761          OP     ADSC,0,2,0,INP,ADSC4,1
   003641    101104123103
   003642    064040 0 0 0 000
   003643    1 000 0 000 001 0 06 1    762          OP     ADSC,0,1,0,INP,ADSC6,1
   003644    101104123103
   003645    066040 0 0 0 000
   003646    0 000 0 000 001 0 06 1    763          OP     ADSC,0,0,0,INP,ADSC9,1
   003647    101104123103
   003650    071040 0 0 0 000
   003651    0 000 0 000 002 0 06 1    764          OP     BDSC,0,0,0,INP,BDSC,1
   003652    102104123103
   003653    040040 0 0 0 000
   003654    2 000 0 000 003 0 06 1    765          OP     NDSC,0,2,0,INP,NDSC4,1
   003655    116104123103
   003656    064040 0 0 0 000
   003657    0 000 0 000 003 0 06 1    766          OP     NDSC,0,0,0,INP,NDSC9,1
   003660    116104123103
   003661    071040 0 0 0 000
   003662    1 000 0 000 004 0 06 1    767          OP     SDSC,0,1,0,INP,SDSC8,1
   003663    123104123103
   003664    070040 0 0 0 000
   003665    0 000 0 000 004 0 06 1    768          OP     SDSC,0,0,0,INP,SDSC9,1
   003666    123104123103
   003667    071040 0 0 0 000
   003670    0 000 0 000 005 0 06 1    769          OP     VDSC,0,0,0,INP,VDSC,1
   003671    126104123103
   003672    040040 0 0 0 000
   003673    0 000 0 000 007 0 06 1    770          OP     ZERO,0,0,0,INP,ZERO,1
   003674    132105122117
   003675    040040 0 0 0 000
   003676    0 000 0 000 010 0 06 1    771          OP     PTR,0,0,0,INP,PTR,1
   003677    120124122040
   003700    040040 0 0 0 000
             000000003636              772  DDB$OP_NAMES_LEN EQU *-DDB$OP_CODES
 14:27 07/29/97  FILE=DD_OP_D.:E05TSI                                                                    57   BMAP - B00
                                       773       END

  CONTROL SECTION TABLE

   0 RODATA EVEN  003701 DD_OP_D
   1 RODATA EVEN  000000 LITERALS

 14:27 07/29/97  FILE=DD_OP_D.:E05TSI         SYMBOL TABLE                                               58   BMAP - B00
 41000000 000000000001 ADSC           *49       123       193       198       248       250       256
                                      271       273       277       279       304       309       311
                                      313       761       762       763
 41000000 000000000006 ARG            *54       271       273       277       279       304       309
                                      311       313       760
 41000000 000000000040 AWX            *32       517       518       519       520       524       529
                                      530       531       532       535
 41000000 000000000002 BDSC           *50       229       231       235       237       239       764
 41000000 000000000020 BOLR           *25       229       231       235       237
 41000000 000000000007 CDSC           *55       691
 41000000 000000000003 CTR            *41       589       590       591       592       593       594
                                      595       596       597       598       599       600       606
                                      608       612
 52101000 000000000027 DDB$MNEM_TO_INSTR         69      *104
 52101000 000000000000 DDB$OCTAL_TO_INSTR        70       *76
 41101000 000000000043 DDB$OP_CODES    92        96        98       100       113       115      *120
                                      759       772
 41000000 000000003572 DDB$OP_CODES_LEN          81      *759
 41000000 000000003636 DDB$OP_NAMES_LEN         109      *772
 52101000 000000000000 DD_OP_D         63       *67
 41000000 000000000001 EIS            *39       123       127       128       129       130       131
                                      132       133       134       135       136       137       138
                                      140       141       142       143       144       145       146
                                      147       148       149       150       151       152       153
                                      154       155       156       157       158       159       161
                                      162       163       164       165       166       167       168
                                      169       170       171       172       173       174       175
                                      176       177       178       179       180       181       182
                                      183       184       185       186       187       188       189
                                      190       191       193       198       229       231       235
                                      237       239       248       250       256       271       273
                                      277       279       304       309       311       313       327
                                      329       333       335       344       346       350       352
                                      367       369       373       375       381       383       387
                                      389       394       396       399       402       420       424
                                      433       440
 41000000 000000000010 F              *26       229       231       235       237       239
 14:27 07/29/97  FILE=DD_OP_D.:E05TSI         SYMBOL TABLE                                               59   BMAP - B00
 41000000 000000000100 FILL           *23       248       250       256       304       313
 41101000 000000000020 GOT_INSTR      *95       118
 41000000 000000000006 INP            *45       760       761       762       763       764       765
                                      766       767       768       769       770       771
 41000000 000000000040 MASK           *24       277       279
 41101000 000000000034 MNEM_LOOP     *110       114       116
 41000000 000000000003 NDSC           *51       123       198       327       329       333       335
                                      344       346       350       352       367       369       373
                                      375       381       383       387       389       394       396
                                      399       402       420       424       765       766
 41101000 000000000014 OCTAL_LOOP      84        87       *89        93
 41000000 000000000100 OCTLY          *31       121       122       125       126       139       354
                                      502       506       525       537       540       584       610
                                      704       705       706       707       708       749       751
                                      753       755       756       757       758
 41000000 000000000005 OTH            *44       121       122       124       125       126       139
                                      160       192       194       195       196       197       199
                                      200       201       202       203       204       205       206
                                      207       208       209       210       211       212       213
                                      214       215       216       217       218       219       220
                                      221       222       223       224       225       226       227
                                      228       230       232       233       234       236       238
                                      240       241       242       243       244       245       246
                                      247       249       251       252       253       254       255
                                      257       258       259       260       261       262       263
                                      264       265       266       267       268       269       270
                                      272       274       275       276       278       280       281
                                      282       283       284       285       286       287       288
                                      289       290       291       292       293       294       295
                                      296       297       298       299       300       301       302
                                      303       305       306       307       308       310       312
                                      314       315       316       317       318       319       320
                                      321       322       323       324       325       326       328
                                      330       331       332       334       336       337       338
                                      339       340       341       342       343       345       347
                                      348       349       351       353       354       355       356
                                      357       358       359       360       361       362       363
 14:27 07/29/97  FILE=DD_OP_D.:E05TSI         SYMBOL TABLE                                               60   BMAP - B00
                                      364       365       366       368       370       371       372
                                      374       376       377       378       379       380       382
                                      384       385       386       388       390       391       392
                                      393       395       397       398       400       401       403
                                      404       405       406       407       408       409       410
                                      411       412       413       414       415       416       417
                                      418       419       421       422       423       425       426
                                      427       428       429       430       431       432       434
                                      435       436       437       438       439       441       442
                                      443       444       445       446       447       448       449
                                      450       451       452       453       454       455       456
                                      457       458       459       460       461       462       463
                                      464       465       466       467       468       469       470
                                      471       472       473       474       475       476       477
                                      478       479       480       481       482       483       484
                                      485       486       487       488       489       490       491
                                      492       493       494       495       496       497       498
                                      499       500       501       502       503       504       505
                                      506       507       508       509       510       511       512
                                      513       514       515       516       517       518       519
                                      520       521       522       523       524       525       526
                                      527       528       529       530       531       532       533
                                      534       535       536       537       538       539       540
                                      541       542       543       544       545       546       547
                                      548       549       550       551       552       553       554
                                      555       556       557       558       559       560       561
                                      562       563       564       565       566       567       568
                                      569       570       571       572       573       574       575
                                      576       577       578       579       580       581       582
                                      583       584       585       586       587       588       601
                                      602       603       604       605       607       609       610
                                      611       613       614       615       616       617       618
                                      619       620       621       623       624       625       626
                                      627       628       629       630       631       632       633
                                      634       635       636       637       638       639       640
                                      641       642       643       644       645       646       647
                                      648       649       650       651       652       653       654
 14:27 07/29/97  FILE=DD_OP_D.:E05TSI         SYMBOL TABLE                                               61   BMAP - B00
                                      655       656       657       658       659       660       661
                                      662       663       664       665       666       667       668
                                      669       670       671       672       673       674       675
                                      676       677       678       679       680       681       693
                                      694       695       696       697       698       699       700
                                      701       702       703       704       705       706       707
                                      708       709       710       711       712       713       714
                                      715       716       717       718       719       720       721
                                      722       723       724       725       726       727       728
                                      729       730       731       732       733       734       735
                                      736       737       738       739       740       741       742
                                      743       744       745       746       747       748       749
                                      750       751       752       753       754       755       756
                                      757       758
 41000000 000000000002 P              *28       327       329       333       335       344       346
                                      350       352       367       369       373       375       381
                                      383       387       389       394       396       420
 41000000 000000000000 PR0            *72        77        78       105       106
 41000000 000000000003 PR3            *73        79       107       108
 41000000 000000000004 PR4            *74        97        99       101
 41000000 000000000010 PTR            *57       771
 41000000 000000000004 RD             *27       327       329       333       335       344       346
                                      350       352       367       369       373       375       381
                                      383       387       389       394       420
 41000000 000000000004 SDSC           *52       433       440       767       768
 41000000 000000000004 SPE            *42       691
 41000000 000000000020 STC            *33       561       563       603       727       729
 41000000 000000000001 T              *29       229       231       235       237       248       250
                                      304       327       329       333       344       346       350
                                      367       369       373       381       383       387       394
                                      420
 41000000 000000000002 UTR            *40       622       682       683       684       685       686
                                      687       688       689       690       692
 41000000 000000000005 VDSC           *53       127       128       129       130       131       132
                                      133       134       135       136       137       138       140
                                      141       142       143       144       145       146       147
                                      148       149       150       151       152       153       154
 14:27 07/29/97  FILE=DD_OP_D.:E05TSI         SYMBOL TABLE                                               62   BMAP - B00
                                      155       156       157       158       159       161       162
                                      163       164       165       166       167       168       169
                                      170       171       172       173       174       175       176
                                      177       178       179       180       181       182       183
                                      184       185       186       187       188       189       190
                                      191       769
 41000000 000000000007 ZERO           *56       770

      37 SYMBOLS

 14:27 07/29/97  FILE=DD_OP_D.:E05TSI         MACRO TABLE                                                63   BMAP - B00
 OP             121       122       123       124       125       126       127       128       129
                130       131       132       133       134       135       136       137       138
                139       140       141       142       143       144       145       146       147
                148       149       150       151       152       153       154       155       156
                157       158       159       160       161       162       163       164       165
                166       167       168       169       170       171       172       173       174
                175       176       177       178       179       180       181       182       183
                184       185       186       187       188       189       190       191       192
                193       194       195       196       197       198       199       200       201
                202       203       204       205       206       207       208       209       210
                211       212       213       214       215       216       217       218       219
                220       221       222       223       224       225       226       227       228
                229       230       231       232       233       234       235       236       237
                238       239       240       241       242       243       244       245       246
                247       248       249       250       251       252       253       254       255
                256       257       258       259       260       261       262       263       264
                265       266       267       268       269       270       271       272       273
                274       275       276       277       278       279       280       281       282
                283       284       285       286       287       288       289       290       291
                292       293       294       295       296       297       298       299       300
                301       302       303       304       305       306       307       308       309
                310       311       312       313       314       315       316       317       318
                319       320       321       322       323       324       325       326       327
                328       329       330       331       332       333       334       335       336
                337       338       339       340       341       342       343       344       345
                346       347       348       349       350       351       352       353       354
                355       356       357       358       359       360       361       362       363
                364       365       366       367       368       369       370       371       372
                373       374       375       376       377       378       379       380       381
                382       383       384       385       386       387       388       389       390
                391       392       393       394       395       396       397       398       399
                400       401       402       403       404       405       406       407       408
                409       410       411       412       413       414       415       416       417
                418       419       420       421       422       423       424       425       426
                427       428       429       430       431       432       433       434       435
                436       437       438       439       440       441       442       443       444
                445       446       447       448       449       450       451       452       453
 14:27 07/29/97  FILE=DD_OP_D.:E05TSI         MACRO TABLE                                                64   BMAP - B00
                454       455       456       457       458       459       460       461       462
                463       464       465       466       467       468       469       470       471
                472       473       474       475       476       477       478       479       480
                481       482       483       484       485       486       487       488       489
                490       491       492       493       494       495       496       497       498
                499       500       501       502       503       504       505       506       507
                508       509       510       511       512       513       514       515       516
                517       518       519       520       521       522       523       524       525
                526       527       528       529       530       531       532       533       534
                535       536       537       538       539       540       541       542       543
                544       545       546       547       548       549       550       551       552
                553       554       555       556       557       558       559       560       561
                562       563       564       565       566       567       568       569       570
                571       572       573       574       575       576       577       578       579
                580       581       582       583       584       585       586       587       588
                589       590       591       592       593       594       595       596       597
                598       599       600       601       602       603       604       605       606
                607       608       609       610       611       612       613       614       615
                616       617       618       619       620       621       622       623       624
                625       626       627       628       629       630       631       632       633
                634       635       636       637       638       639       640       641       642
                643       644       645       646       647       648       649       650       651
                652       653       654       655       656       657       658       659       660
                661       662       663       664       665       666       667       668       669
                670       671       672       673       674       675       676       677       678
                679       680       681       682       683       684       685       686       687
                688       689       690       691       692       693       694       695       696
                697       698       699       700       701       702       703       704       705
                706       707       708       709       710       711       712       713       714
                715       716       717       718       719       720       721       722       723
                724       725       726       727       728       729       730       731       732
                733       734       735       736       737       738       739       740       741
                742       743       744       745       746       747       748       749       750
                751       752       753       754       755       756       757       758       760
                761       762       763       764       765       766       767       768       769
                770       771

 14:27 07/29/97  FILE=DD_OP_D.:E05TSI         MACRO TABLE                                                65   BMAP - B00
       1 MACRO

    SYMBOL SPACE USED  3496 WORDS
     MACRO SPACE USED    52 WORDS
   INPUT RECORDS READ  1546
 STATEMENTS PROCESSED  2718
         ELAPSED TIME  0:33.88
             CPU TIME    18.59 SEC.
        ASSEMBLY RATE  8772 STATEMENTS/CPU MIN.

      NO ERRORS

