VERSION E05

PL6.E3A0      #001=DD_REPORT_D File=DD_REPORT_D.:E05TSI                          TUE 07/29/97 14:28 Page:1
        1        1        /*M* DD_REPORT_D - Default report flags */
        2        2        /*T***********************************************************/
        3        3        /*T*                                                         */
        4        4        /*T* Copyright (c) Bull HN Information Systems Inc., 1997    */
        5        5        /*T*                                                         */
        6        6        /*T***********************************************************/
        7        7        /*X* DMC,DFC */
        8        8
        9        9        DD_REPORT_D: PROC;
       10       10
       11       11        /* ! R ! */
       12       12    1   DCL 1 DD_REPORT_FLAGS(0:13) CONSTANT SYMDEF,
       13       13    1        2 OFFSET BIT(1) UNAL INIT( '1'B,   /* GMAP */
       14       14    1                                   '0'B,   /* PL6 */
       15       15    1                                   '0'B,   /* FORTRAN */
       16       16    1                                   '0'B,   /* COBOL */
       17       17    1                                   '0'B,   /* PL1 */
       18       18    1                                   '0'B,   /* RPG */
       19       19    1                                   '0'B,   /* PASCAL */
       20       20    1                                   '0'B,   /* MOMUS */
       21       21    1                                   '0'B,   /* FPL */
       22       22    1                                   '0'B,   /* PARTRGE */
       23       23    1                                   '0'B,   /* IDL */
       24       24    1                                   '0'B,   /* ELSIE */
       25       25    1                                   '0'B,   /* CALF */
       26       26    1                                   '0'B ), /* CC */
       27       27    1        2 LINE BIT(1) UNAL INIT( '1'B,     /* GMAP */
       28       28    1                                 '1'B,     /* PL6 */
       29       29    1                                 '1'B,     /* FORTRAN */
       30       30    1                                 '1'B,     /* COBOL */
       31       31    1                                 '1'B,     /* PL1 */
       32       32    1                                 '1'B,     /* RPG */
       33       33    1                                 '1'B,     /* PASCAL */
       34       34    1                                 '1'B,     /* MOMUS */
       35       35    1                                 '1'B,     /* FPL */
       36       36    1                                 '1'B,     /* PARTRGE */
       37       37    1                                 '1'B,     /* IDL */
PL6.E3A0      #001=DD_REPORT_D File=DD_REPORT_D.:E05TSI                          TUE 07/29/97 14:28 Page:2
       38       38    1                                 '1'B,     /* ELSIE */
       39       39    1                                 '1'B,     /* CALF */
       40       40    1                                 '1'B ),   /* CC */
       41       41    1        2 TYPE BIT(1) UNAL INIT( '0'B,     /* GMAP */
       42       42    1                                 '1'B,     /* PL6 */
       43       43    1                                 '1'B,     /* FORTRAN */
       44       44    1                                 '1'B,     /* COBOL */
       45       45    1                                 '1'B,     /* PL1 */
       46       46    1                                 '1'B,     /* RPG */
       47       47    1                                 '1'B,     /* PASCAL */
       48       48    1                                 '1'B,     /* MOMUS */
       49       49    1                                 '1'B,     /* FPL */
       50       50    1                                 '1'B,     /* PARTRGE */
       51       51    1                                 '1'B,     /* IDL */
       52       52    1                                 '1'B,     /* ELSIE */
       53       53    1                                 '1'B,     /* CALF */
       54       54    1                                 '1'B ),   /* CC */
       55       55    1        2 * BIT(33) UNAL;
       56       56
       57       57    1   END DD_REPORT_D;

PL6.E3A0      #001=DD_REPORT_D File=DD_REPORT_D.:E05TSI                          TUE 07/29/97 14:28 Page:3
--  Include file information  --

   B$JIT_C.:E05TOU  was found in the system file and is never referenced.
   CP_6_C.:E05TOU  was found in the system file and is never referenced.
      No diagnostics issued in procedure DD_REPORT_D.

   No code generated for procedure DD_REPORT_D .
   Procedure DD_REPORT_D requires 4 words of local(AUTO) storage.

    No errors detected in file DD_REPORT_D.:E05TSI    .

PL6.E3A0      #001=DD_REPORT_D File=DD_REPORT_D.:E05TSI                          TUE 07/29/97 14:28 Page:4

 Object Unit name= DD_REPORT_D                                File name= DD_REPORT_D.:E05TOU
 UTS= JUL 29 '97 14:28:18.28 TUE                              Compiler= PL-6/E31         Sev=      00
 SharedLib= :SHARED_SYSTEM                                    Alt SharedLib=


    ****  Control sections  ****

 Sect   Type Bound  Init  Size OctSiz  Section name(segment info)
    0  RoData even  UTS     14     16  DD_REPORT_D
    1   Proc  even  none     0      0  DD_REPORT_D

    ****  Entry defs  ****

                              Check   Calling
                             calling  sequence
  Sect OctLoc Primary Altret sequence   type   Parms  Name
     1      0   yes            yes     ~proc       0  DD_REPORT_D

  ****  Data defs  ****

 Sect OctLoc  Name                           Sect OctLoc  Name
    0      0  DD_REPORT_FLAGS
PL6.E3A0      #001=DD_REPORT_D File=DD_REPORT_D.:E05TSI                          TUE 07/29/97 14:28 Page:5


(unnamed)
 Sect OctLoc
   0     000   60**** ******   30**** ******   30**** ******   30**** ******    ................
   0     004   30**** ******   30**** ******   30**** ******   30**** ******    ................
   0     014*  30**** ******   30**** ******                                    ........
        1        1        /*M* DD_REPORT_D - Default report flags */
        2        2        /*T***********************************************************/
        3        3        /*T*                                                         */
        4        4        /*T* Copyright (c) Bull HN Information Systems Inc., 1997    */
        5        5        /*T*                                                         */
        6        6        /*T***********************************************************/
        7        7        /*X* DMC,DFC */
        8        8
        9        9        DD_REPORT_D: PROC;
       10       10
       11       11        /* ! R ! */
       12       12    1   DCL 1 DD_REPORT_FLAGS(0:13) CONSTANT SYMDEF,
       13       13    1        2 OFFSET BIT(1) UNAL INIT( '1'B,   /* GMAP */
       14       14    1                                   '0'B,   /* PL6 */
       15       15    1                                   '0'B,   /* FORTRAN */
       16       16    1                                   '0'B,   /* COBOL */
       17       17    1                                   '0'B,   /* PL1 */
       18       18    1                                   '0'B,   /* RPG */
       19       19    1                                   '0'B,   /* PASCAL */
       20       20    1                                   '0'B,   /* MOMUS */
       21       21    1                                   '0'B,   /* FPL */
       22       22    1                                   '0'B,   /* PARTRGE */
       23       23    1                                   '0'B,   /* IDL */
       24       24    1                                   '0'B,   /* ELSIE */
       25       25    1                                   '0'B,   /* CALF */
       26       26    1                                   '0'B ), /* CC */
       27       27    1        2 LINE BIT(1) UNAL INIT( '1'B,     /* GMAP */
       28       28    1                                 '1'B,     /* PL6 */
       29       29    1                                 '1'B,     /* FORTRAN */
       30       30    1                                 '1'B,     /* COBOL */
       31       31    1                                 '1'B,     /* PL1 */
PL6.E3A0      #001=DD_REPORT_D File=DD_REPORT_D.:E05TSI                          TUE 07/29/97 14:28 Page:6
       32       32    1                                 '1'B,     /* RPG */
       33       33    1                                 '1'B,     /* PASCAL */
       34       34    1                                 '1'B,     /* MOMUS */
       35       35    1                                 '1'B,     /* FPL */
       36       36    1                                 '1'B,     /* PARTRGE */
       37       37    1                                 '1'B,     /* IDL */
       38       38    1                                 '1'B,     /* ELSIE */
       39       39    1                                 '1'B,     /* CALF */
       40       40    1                                 '1'B ),   /* CC */
       41       41    1        2 TYPE BIT(1) UNAL INIT( '0'B,     /* GMAP */
       42       42    1                                 '1'B,     /* PL6 */
       43       43    1                                 '1'B,     /* FORTRAN */
       44       44    1                                 '1'B,     /* COBOL */
       45       45    1                                 '1'B,     /* PL1 */
       46       46    1                                 '1'B,     /* RPG */
       47       47    1                                 '1'B,     /* PASCAL */
       48       48    1                                 '1'B,     /* MOMUS */
       49       49    1                                 '1'B,     /* FPL */
       50       50    1                                 '1'B,     /* PARTRGE */
       51       51    1                                 '1'B,     /* IDL */
       52       52    1                                 '1'B,     /* ELSIE */
       53       53    1                                 '1'B,     /* CALF */
       54       54    1                                 '1'B ),   /* CC */
       55       55    1        2 * BIT(33) UNAL;
       56       56
       57       57    1   END DD_REPORT_D;

PL6.E3A0      #001=DD_REPORT_D File=DD_REPORT_D.:E05TSI                          TUE 07/29/97 14:28 Page:7
--  Include file information  --

   B$JIT_C.:E05TOU  was found in the system file and is never referenced.
   CP_6_C.:E05TOU  was found in the system file and is never referenced.
      No diagnostics issued in procedure DD_REPORT_D.

   No code generated for procedure DD_REPORT_D .
   Procedure DD_REPORT_D requires 4 words of local(AUTO) storage.

    No errors detected in file DD_REPORT_D.:E05TSI    .
PL6.E3A0      #001=DD_REPORT_D File=DD_REPORT_D.:E05TSI                          TUE 07/29/97 14:28 Page:8
          *** CROSS REFERENCE LISTING ***
**     DENOTES     IDENTIFIER DEFINITION
<<                 IDENTIFIER'S VALUE SET
>>                 IDENTIFIER'S VALUE USED
<>                 IDENTIFIER SET AND/OR USED
--                 IDENTIFIER REFERENCED
PL6.E3A0      #001=DD_REPORT_D File=DD_REPORT_D.:E05TSI                          TUE 07/29/97 14:28 Page:9
          MINI XREF LISTING

PL6.E3A0      #001=DD_REPORT_D File=DD_REPORT_D.:E05TSI                          TUE 07/29/97 14:28 Page:10
          *** CROSS REFERENCE LISTING ***
**     DENOTES     IDENTIFIER DEFINITION
<<                 IDENTIFIER'S VALUE SET
>>                 IDENTIFIER'S VALUE USED
<>                 IDENTIFIER SET AND/OR USED
--                 IDENTIFIER REFERENCED
PL6.E3A0      #001=DD_REPORT_D File=DD_REPORT_D.:E05TSI                          TUE 07/29/97 14:28 Page:11
          MINI UREF LISTING

DD_REPORT_D       9**PROC
DD_REPORT_FLAGS      12**DCL
