VERSION E05

PL6.E3A0      #001=DD_SPEC_D File=DD_SPEC_D.:E05TSI                              TUE 07/29/97 14:28 Page:1
        1        1        /*M* DD_SPEC_D Special symbol definitions */
        2        2        /*T***********************************************************/
        3        3        /*T*                                                         */
        4        4        /*T* Copyright (c) Bull HN Information Systems Inc., 1997    */
        5        5        /*T*                                                         */
        6        6        /*T***********************************************************/
        7        7        /*X* DMR,PLM=5,IND=5,CSU=3,EXM=0,ECU=3,MOC,DCI=5,CRT=5 */
        8        8        DD_SPEC_D: PROC;
        9        9             %INCLUDE DD$DITEM;
       12+     112             %LIST;
       13+     113    1        DCL SDD$ PTR;
       14+     114    1        DCL ZITEM$ PTR;
       15+     115    1        DCL SDD_L6$ PTR;
       16+     116    1        DCL ZITEM_L6$ PTR;
       10      690                                           /* Constant data for special symbol text */
       11      691             %SUB F_D='010'B;
       12      692             %SUB F_S='001'B;
       13      693             %SUB F_E='0001'B;
       14      694             %SUB F_MD='110'B;
       15      695             %SUB F_DM='110'B;
       16      696             %SUB F_DS='011'B;
       17      697             %SUB F_SD='011'B;
       18      698             %SUB F_MS='101'B;
       19      699             %SUB F_SM='101'B;
       20      700             %SUB F_ME='1001'B;
       21      701             %SUB F_DSE='0111'B;
       22      702             %SUB F_MDE='1101'B;
       23      703              %SUB F_MSE='1011'B;
       24      704             %SUB F_MDS='111'B;
       25      705             %SUB F_DE='0101'B;
       26      706             %SUB F_MDSE='1111'B;
       27      707                                                /**/
       28      708             %MACRO SPNAME(NM=NAME,SZ=5,TXT='$NAME');
       29      709        DCL 1 NM CONSTANT,
       30      710              2 * UBIN(9) INIT(SZ) UNAL,
       31      711              2 * CHAR(SZ) INIT(TXT);
       32      712             %MEND;
PL6.E3A0      #001=DD_SPEC_D File=DD_SPEC_D.:E05TSI                              TUE 07/29/97 14:28 Page:2
       33      713             %SPNAME(NM=IC,SZ=3,TXT='$IC');     /* Host and L6 */
       34      718             %SPNAME(NM=FADR,SZ=5,TXT='$FADR'); /* Not Implemented */
       35      723             %SPNAME(NM=FRANGE,SZ=7,TXT='$FRANGE'); /* Host and L6 */
       36      728             %SPNAME(NM=SA,SZ=3,TXT='$SA');     /* Host and L6 - RUM */
       37      733             %SPNAME(NM=PRIV,SZ=5,TXT='$PRIV'); /* Host and L6 - RUM */
       38      738             %SPNAME(NM=FMASK,SZ=6,TXT='$FMASK'); /* Host and L6 */
       39      743             %SPNAME(NM=TCB,SZ=4,TXT='$TCB');   /* Host */
       40      748             %SPNAME(NM=ENT,SZ=4,TXT='$ENT');   /* Host */
       41      753             %SPNAME(NM=IOBUFSZ,SZ=8,TXT='$IOBUFSZ'); /* Host XDELTA */
       42      758             %SPNAME(NM=ARGS,SZ=5,TXT='$ARGS'); /* Not implemented */
       43      763             %SPNAME(NM=ARG,SZ=4,TXT='$ARG');   /* Not implemented */
       44      768             %SPNAME(NM=WSR,SZ=4,TXT='$WSR');   /* Host */
       45      773             %SPNAME(NM=WSQ,SZ=4,TXT='$WSQ');   /* Host */
       46      778             %SPNAME(NM=PS,SZ=3,TXT='$PS');     /* Host */
       47      783             %SPNAME(NM=AS,SZ=3,TXT='$AS');     /* Host */
       48      788             %SPNAME(NM=LS,SZ=3,TXT='$LS');     /* Host */
       49      793             %SPNAME(NM=REGS,SZ=5,TXT='$REGS'); /* Not implemented */
       50      798             %SPNAME(NM=I,SZ=2,TXT='$I');       /* Host and L6 */
       51      803             %SPNAME(NM=O,SZ=2,TXT='$O');       /* Host and L6 */
       52      808             %SPNAME(NM=L,SZ=2,TXT='$L');       /* Host and L6 */
       53      813             %SPNAME(NM=A,SZ=2,TXT='$A');       /* Host and L6 */
       54      818             %SPNAME(NM=AU,SZ=3,TXT='$AU');     /* Host */
       55      823             %SPNAME(NM=AL,SZ=3,TXT='$AL');     /* Host */
       56      828             %SPNAME(NM=Q,SZ=2,TXT='$Q');       /* Host */
       57      833             %SPNAME(NM=QU,SZ=3,TXT='$QU');     /* Host */
       58      838             %SPNAME(NM=QL,SZ=3,TXT='$QL');     /* Host */
       59      843             %SPNAME(NM=X,SZ=2,TXT='$X');       /* Host */
       60      848             %SPNAME(NM=E,SZ=2,TXT='$E');       /* Host */
       61      853             %SPNAME(NM=IND,SZ=4,TXT='$IND');   /* Host and L6 */
       62      858             %SPNAME(NM=AR,SZ=3,TXT='$AR');     /* Host */
       63      863             %SPNAME(NM=RI,SZ=3,TXT='$RI');     /* Host and L6 */
       64      868             %SPNAME(NM=NA,SZ=3,TXT='$NA');     /* Host and L6 */
       65      873             %SPNAME(NM=S@,SZ=1,TXT='@');       /* Host and L6 */
       66      878             %SPNAME(NM=S@@,SZ=2,TXT='@@');     /* Host and L6 */
       67      883             %SPNAME(NM=S#,SZ=1,TXT='#');       /* Host and L6 */
       68      888             %SPNAME(NM=S##,SZ=2,TXT='##');     /* Host and L6 */
       69      893             %SPNAME(NM=EA,SZ=3,TXT='$EA');     /* Host */
PL6.E3A0      #001=DD_SPEC_D File=DD_SPEC_D.:E05TSI                              TUE 07/29/97 14:28 Page:3
       70      898             %SPNAME(NM=EAQ,SZ=4,TXT='$EAQ');   /* Host */
       71      903             %SPNAME(NM=REM@,SZ=5,TXT='$REM@'); /* Host and L6 */
       72      908             %SPNAME(NM=REM#,SZ=5,TXT='$REM#'); /* Host and L6 */
       73      913             %SPNAME(NM=CI,SZ=3,TXT='$CI');     /* L6 */
       74      918             %SPNAME(NM=P,SZ=2,TXT='$P');       /* L6 */
       75      923             %SPNAME(NM=T,SZ=2,TXT='$T');       /* L6 */
       76      928             %SPNAME(NM=S,SZ=2,TXT='$S');       /* L6 */
       77      933             %SPNAME(NM=IV,SZ=3,TXT='$IV');     /* L6 */
       78      938             %SPNAME(NM=Z,SZ=2,TXT='$Z');       /* L6 */
       79      943             %SPNAME(NM=ASV,SZ=4,TXT='$ASV');   /* L6 */
       80      948             %SPNAME(NM=R,SZ=2,TXT='$R');       /* L6 */
       81      953             %SPNAME(NM=M,SZ=2,TXT='$M');       /* L6 */
       82      958             %SPNAME(NM=N,SZ=2,TXT='$N');       /* L6 */
       83      963                                                /* Special symbols definition table */
       84      964                                                /* Names for desc/ptr specials      */
       85      965             %SPNAME(NM=SSR,SZ=4,TXT='$SSR');   /* Host */
       86      970             %SPNAME(NM=ISR,SZ=4,TXT='$ISR');   /* Host and L6 */
       87      975             %SPNAME(NM=ASR,SZ=4,TXT='$ASR');   /* Host */
       88      980             %SPNAME(NM=LSR,SZ=4,TXT='$LSR');   /* Host */
       89      985             %SPNAME(NM=PSR,SZ=4,TXT='$PSR');   /* Host */
       90      990             %SPNAME(NM=TRUCK,SZ=5,TXT='$AUTO'); /* L6 - $AUTO */
       91      995             %SPNAME(NM=DS,SZ=3,TXT='$DS');     /* Host (1-8) and L6 (1-4) */
       92     1000             %SPNAME(NM=DR,SZ=3,TXT='$DR');     /* Host */
       93     1005             %SPNAME(NM=PR,SZ=3,TXT='$PR');     /* Host */
       94     1010             %SPNAME(NM=IOBUF,SZ=6,TXT='$IOBUF'); /* Host XDELTA */
       95     1015             %SPNAME(NM=REAL,SZ=5,TXT='$REAL'); /* Host XDELTA */
       96     1020             %SPNAME(NM=VIRT,SZ=5,TXT='$VIRT'); /* Host XDELTA */
       97     1025             %SPNAME(NM=JIT,SZ=4,TXT='$JIT');   /* Host and L6 */
       98     1030             %SPNAME(NM=HJIT,SZ=6,TXT='$HJIT'); /* Host */
       99     1035             %SPNAME(NM=PARM,SZ=5,TXT='$PARM'); /* Host */
      100     1040             %SPNAME(NM=DCBN,SZ=4,TXT='$DCB');  /* Host and L6 */
      101     1045             %SPNAME(NM=SAD,SZ=4,TXT='$SAD');   /* Host */
      102     1050             %SPNAME(NM=RVB,SZ=4,TXT='$RVB');   /* Host - ANLZ FILE */
      103     1055             %SPNAME(NM=USD,SZ=4,TXT='$USD');   /* Host - ANLZ FILE */
      104     1060             %SPNAME(NM=ERR,SZ=4,TXT='$ERR');   /* Host - ANLZ FILE */
      105     1065             %SPNAME(NM=HEAD,SZ=5,TXT='$HEAD'); /* Host and L6 - RUM */
      106     1070             %SPNAME(NM=CG,SZ=3,TXT='$CG');     /* Host - ANLZ FILE */
PL6.E3A0      #001=DD_SPEC_D File=DD_SPEC_D.:E05TSI                              TUE 07/29/97 14:28 Page:4
      107     1075             %SPNAME(NM=VS,SZ=3,TXT='$VS');     /* Host */
      108     1080             %SPNAME(NM=B,SZ=2,TXT='$B');       /* L6 */
      109     1085             %SPNAME(NM=ROSEG,SZ=6,TXT='$ROSEG'); /* L6 */
      110     1090             %SPNAME(NM=RDBR,SZ=5,TXT='$RDBR'); /* L6 */
      111     1095             %SPNAME(NM=TSA,SZ=4,TXT='$TSA');   /* L6 */
      112     1100             %SPNAME(NM=IS,SZ=3,TXT='$IS');     /* L6 */
      113     1105             %SPNAME(NM=RES,SZ=4,TXT='$RES');
      114     1110             %MACRO SPEC(NM=NAME,ID=0,SZ=0,F='000'B,FMT=%OCT_FMT);
      115     1111             ,2 * PTR INIT(ADDR(NM)),
      116     1112               2 * UBIN(9) UNAL INIT(ID),
      117     1113               2 * UBIN(9) UNAL INIT(SZ),
      118     1114               2 * UBIN(6) UNAL INIT(0),
      119     1115               2 * BIT(6) UNAL INIT(F),
      120     1116               2 * UBIN(6) UNAL INIT(FMT)
      121     1117               %MEND;
      122     1118                                      /* SYMREF of SPEC is array (0:n) of structures */
      123     1119                                                /* SPEC is value type special symbols */
      124     1120    1   DCL 1 SPEC CONSTANT SYMDEF
      125     1121             %SPEC(NM=ENT,ID=%ENT_RTN,F=F_D,FMT=%UINT_FMT);
      126     1129             %SPEC(NM=IOBUFSZ,ID=%IOBUFSZ_RTN,F=F_MD,FMT=%UINT_FMT);
      127     1137             %SPEC(NM=FADR,ID=%FADR_RTN,F=F_D);
      128     1145             %SPEC(NM=IND,ID=%IND_RTN,F=F_MDS);
      129     1153             %SPEC(NM=ARGS,ID=%ARGS_RTN,F=F_DS);
      130     1161             %SPEC(NM=PS,ID=%PS_RTN,F=F_DS);
      131     1169             %SPEC(NM=AS,ID=%AS_RTN,F=F_DS);
      132     1177             %SPEC(NM=LS,ID=%LS_RTN,F=F_DS);
      133     1185             %SPEC(NM=REGS,ID=%REGS_RTN,F=F_DS);
      134     1193             %SPEC(NM=IC,ID=%IC_RTN,F=F_MDS,FMT=%REL_FMT);
      135     1201             %SPEC(NM=O,ID=%O_RTN,F=F_MDE,FMT=%L$_FMT);
      136     1209             %SPEC(NM=L,ID=%L_RTN,F=F_MDE,FMT=%L$_FMT);
      137     1217             %SPEC(NM=I,ID=%I_RTN,F=F_MDSE,FMT=%INST_FMT);
      138     1225             %SPEC(NM=FMASK,ID=%FMASK_RTN,F=F_MD);
      139     1233             %SPEC(NM=FRANGE,ID=%FRANGE_RTN,F=F_MD);
      140     1241             %SPEC(NM=SA,ID=%SA_RTN,F=F_MD,FMT=%REL_FMT);
      141     1249             %SPEC(NM=PRIV,ID=%PRIV_RTN,F=F_MD);
      142     1257             %SPEC(NM=A,ID=%A_RTN,F=F_MDS);
      143     1265             %SPEC(NM=AU,ID=%AU_RTN,F=F_MDS);
PL6.E3A0      #001=DD_SPEC_D File=DD_SPEC_D.:E05TSI                              TUE 07/29/97 14:28 Page:5
      144     1273             %SPEC(NM=AL,ID=%AL_RTN,F=F_MDS);
      145     1281             %SPEC(NM=Q,ID=%Q_RTN,F=F_MDS);
      146     1289             %SPEC(NM=QU,ID=%QU_RTN,F=F_MDS);
      147     1297             %SPEC(NM=QL,ID=%QL_RTN,F=F_MDS);
      148     1305             %SPEC(NM=E,ID=%E_RTN,F=F_MDS,FMT=%SINT_FMT);
      149     1313             %SPEC(NM=RI,ID=%RI_RTN,F=F_E,FMT=%INST_FMT);
      150     1321             %SPEC(NM=NA,ID=%NA_RTN,F=F_ME,FMT=%INST_FMT);
      151     1329             %SPEC(NM=S@,ID=%@_RTN,F=F_ME,FMT=%INST_FMT);
      152     1337             %SPEC(NM=S@@,ID=%@@_RTN,F=F_ME,FMT=%INST_FMT);
      153     1345             %SPEC(NM=S#,ID=%#_RTN,F=F_ME,FMT=%OCT_FMT);
      154     1353             %SPEC(NM=S##,ID=%##_RTN,F=F_ME,FMT=%OCT_FMT);
      155     1361             %SPEC(NM=EA,ID=%EA_RTN,F=F_DS,FMT=%FLOAT_FMT);
      156     1369             %SPEC(NM=EAQ,ID=%EAQ_RTN,F=F_DS,FMT=%FLOAT_FMT);
      157     1377             %SPEC(NM=REM@,ID=%REM@_RTN,F=F_D,FMT=%UINT_FMT);
      158     1385             %SPEC(NM=REM#,ID=%REM#_RTN,F=F_D,FMT=%UINT_FMT);
      159     1393             %SPEC(NM=CI,ID=%CI_RTN,F=F_MD,FMT=%X_FMT);
      160     1401             %SPEC(NM=P,ID=%IC_RTN,F=F_MDS,FMT=%REL_FMT);
      161     1409             %SPEC(NM=T,ID=%T_RTN,F=F_MD,FMT=%PTR_FMT);
      162     1417             %SPEC(NM=S,ID=%S_RTN,F=F_MD,FMT=%X_FMT); /* Modifyable only if privileged.
      163     1418                                           FD should error if not enough privilege */
      164     1426             %SPEC(NM=IV,ID=%IV_RTN,F=F_D,FMT=%X_FMT);
      165     1434             %SPEC(NM=Z,ID=%Z_RTN,F=F_D,FMT=%X_FMT);
      166     1442             %SPEC(NM=ASV,ID=%ASV_RTN,F=F_MD,FMT=%PTR_FMT);
              1442                 /* Modifyable only if privileged.
      167     1443                                           FD should error if not enough privilege */
      168     1451             %SPEC(NM=N,ID=%N_RTN,F=F_MDE,FMT=%L$_FMT);
      169     1459                                                /* Following have numeric suffix */
      170     1460             %SPEC(NM=X,ID=%X_RTN,F=F_MDS,FMT=%REL_FMT);
      171     1468             %SPEC(NM=WSR,ID=%WSR_RTN,F=F_MD,FMT=%UINT_FMT);
      172     1476             %SPEC(NM=WSQ,ID=%WSQ_RTN,F=F_MD);
      173     1484             %SPEC(NM=ARG,ID=%ARG_RTN,F=F_DS);
      174     1492             %SPEC(NM=AR,ID=%AR_RTN,F=F_MDS,FMT=%AR_FMT);
      175     1500             %SPEC(NM=R,ID=%R_RTN,F=F_MD,FMT=%X_FMT);
      176     1508             %SPEC(NM=M,ID=%M_RTN,F=F_MD,FMT=%BIT_FMT);
      177     1516    1        ;                                  /* End of declaration */
      178     1517                                                /**/
      179     1518                                                /**/
PL6.E3A0      #001=DD_SPEC_D File=DD_SPEC_D.:E05TSI                              TUE 07/29/97 14:28 Page:6
      180     1519             %MACRO DESC(NM=NAME,TYPE=0,ID=0,DISP=0,F='000'B,FMT=%DESC_FMT);
      181     1520             ,2 * PTR INIT(ADDR(NM)),
      182     1521               2 * UBIN(6) UNAL INIT(TYPE),
      183     1522               2 * UBIN(9) UNAL INIT(ID),
      184     1523               2 * UBIN(9) UNAL INIT(DISP),
      185     1524               2 * BIT(6) UNAL INIT(F),
      186     1525               2 * UBIN(6) UNAL INIT(FMT)
      187     1526               %MEND;
      188     1527                                      /* SYMREF of DESC is array (0:27) of structures */
      189     1528                            /* The order of these is reflected in the file DC_DESC_R
      190     1529                               as a set of %EQU's xxx_DESC  */
      191     1530                                           /* DESC is pointer type special symbols */
      192     1531    1   DCL 1 DESC CONSTANT SYMDEF
      193     1532              %DESC(NM=SSR,F=F_DS);
      194     1540             %DESC(NM=JIT,TYPE=0,ID=1);
      195     1548             %DESC(NM=HJIT,TYPE=0,ID=2);
      196     1556             %DESC(NM=ISR,TYPE=1,ID=1,F=F_D);
      197     1564             %DESC(NM=ASR,TYPE=1,ID=2,F=F_DS);
      198     1572             %DESC(NM=LSR,TYPE=1,ID=3,F=F_D);
      199     1580             %DESC(NM=PSR,TYPE=1,ID=0,F=F_DS);
      200     1588             %DESC(NM=TRUCK,TYPE=2,ID=24,DISP=28,F=F_DS,FMT=%PTR_FMT);
      201     1596             %DESC(NM=REAL,TYPE=4,ID=0);
      202     1604             %DESC(NM=VIRT,TYPE=4,ID=1);
      203     1612             %DESC(NM=IOBUF,TYPE=5);
      204     1620             %DESC(NM=TCB,TYPE=0,ID=3);
      205     1628             %DESC(NM=SAD,TYPE=0,ID=4);
      206     1636             %DESC(NM=RVB,TYPE=0,ID=5);
      207     1644             %DESC(NM=USD,TYPE=0,ID=6);
      208     1652             %DESC(NM=ERR,TYPE=0,ID=7);
      209     1660             %DESC(NM=HEAD,TYPE=0,ID=8);
      210     1668             %DESC(NM=ROSEG,TYPE=8,ID=0,DISP=0);
      211     1676             %DESC(NM=RDBR,TYPE=8,ID=1,F=F_MDS,FMT=%PTR_FMT);
      212     1684             %DESC(NM=TSA,TYPE=8,ID=2,F=F_E);
      213     1692             %DESC(NM=RES,TYPE=10,ID=0);
      214     1700                                                /* Following have numeric suffix */
      215     1701             %DESC(NM=LS,TYPE=3,ID=3,DISP=0,F=F_D);
      216     1709             %DESC(NM=AS,TYPE=3,ID=2,DISP=0,F=F_DS);
PL6.E3A0      #001=DD_SPEC_D File=DD_SPEC_D.:E05TSI                              TUE 07/29/97 14:28 Page:7
      217     1717             %DESC(NM=PS,TYPE=3,ID=0,DISP=0,F=F_DS);
      218     1725             %DESC(NM=DS,TYPE=3,ID=3,DISP=6,F=F_D);
      219     1733             %DESC(NM=DR,TYPE=2,ID=0,DISP=24,F=F_DS);
      220     1741             %DESC(NM=PR,TYPE=2,ID=16,DISP=24,F=F_MDS,FMT=%PTR_FMT);
      221     1749             %DESC(NM=PARM,TYPE=6,F=F_S);
      222     1757             %DESC(NM=DCBN,TYPE=7);
      223     1765             %DESC(NM=CG,TYPE=0,ID=9);
      224     1773             %DESC(NM=VS,TYPE=3,ID=3);
      225     1781             %DESC(NM=B,TYPE=9,ID=0,F=F_MDS,FMT=%PTR_FMT);
      226     1789             %DESC(NM=IS,TYPE=8,ID=3,DISP=0);
      227     1797    1        ;                                  /* End of declaration */
      228     1798    1   END DD_SPEC_D;

PL6.E3A0      #001=DD_SPEC_D File=DD_SPEC_D.:E05TSI                              TUE 07/29/97 14:28 Page:8
--  Include file information  --

   DD_SRTN_C.:E05TOU  is referenced.
   DD_ACODE_C.:E05TOU  is referenced.
   DD_ICODE_C.:E05TOU  is referenced.
   DD$DITEM.:E05TOU  cannot be made into a system file and is referenced.
   B$JIT_C.:E05TOU  was found in the system file and is never referenced.
   CP_6_C.:E05TOU  was found in the system file and is never referenced.
      No diagnostics issued in procedure DD_SPEC_D.

   No code generated for procedure DD_SPEC_D .
   Procedure DD_SPEC_D requires 8 words of local(AUTO) storage.

    No errors detected in file DD_SPEC_D.:E05TSI    .

PL6.E3A0      #001=DD_SPEC_D File=DD_SPEC_D.:E05TSI                              TUE 07/29/97 14:28 Page:9

 Object Unit name= DD_SPEC_D                                  File name= DD_SPEC_D.:E05TOU
 UTS= JUL 29 '97 14:28:29.96 TUE                              Compiler= PL-6/E31         Sev=      00
 SharedLib= :SHARED_SYSTEM                                    Alt SharedLib=


    ****  Control sections  ****

 Sect   Type Bound  Init  Size OctSiz  Section name(segment info)
    0  RoData even  UTS    283    433  DD_SPEC_D
    1   Proc  even  none     0      0  DD_SPEC_D

    ****  Entry defs  ****

                              Check   Calling
                             calling  sequence
  Sect OctLoc Primary Altret sequence   type   Parms  Name
     1      0   yes            yes     ~proc       0  DD_SPEC_D

  ****  Data defs  ****

 Sect OctLoc  Name                           Sect OctLoc  Name
    0    167  SPEC                               0    331  DESC

  ****  Segment refs  ****

  Flags:  r = read only, s = secondary
Flgs Name                             Flgs Name                             Flgs Name
     ISSID
PL6.E3A0      #001=DD_SPEC_D File=DD_SPEC_D.:E05TSI                              TUE 07/29/97 14:28 Page:10


IC
 Sect OctLoc
   0     000   003044 111103                                                    .$IC

FADR
 Sect OctLoc
   0     001   005044 106101   104122 ******                                    .$FADR..

FRANGE
 Sect OctLoc
   0     003   007044 106122   101116 107105                                    .$FRANGE

SA
 Sect OctLoc
   0     005   003044 123101                                                    .$SA

PRIV
 Sect OctLoc
   0     006   005044 120122   111126 ******                                    .$PRIV..

FMASK
 Sect OctLoc
   0     010   006044 106115   101123 113***                                    .$FMASK.

TCB
 Sect OctLoc
   0     012   004044 124103   102*** ******                                    .$TCB...

ENT
 Sect OctLoc
   0     014   004044 105116   124*** ******                                    .$ENT...

IOBUFSZ
 Sect OctLoc
   0     016   010044 111117   102125 106123   132*** ******                    .$IOBUFSZ...

PL6.E3A0      #001=DD_SPEC_D File=DD_SPEC_D.:E05TSI                              TUE 07/29/97 14:28 Page:11
ARGS
 Sect OctLoc
   0     021   005044 101122   107123 ******                                    .$ARGS..

ARG
 Sect OctLoc
   0     023   004044 101122   107*** ******                                    .$ARG...

WSR
 Sect OctLoc
   0     025   004044 127123   122*** ******                                    .$WSR...

WSQ
 Sect OctLoc
   0     027   004044 127123   121*** ******                                    .$WSQ...

PS
 Sect OctLoc
   0     031   003044 120123                                                    .$PS

AS
 Sect OctLoc
   0     032   003044 101123                                                    .$AS

LS
 Sect OctLoc
   0     033   003044 114123                                                    .$LS

REGS
 Sect OctLoc
   0     034   005044 122105   107123 ******                                    .$REGS..

I
 Sect OctLoc
   0     036   002044 111***                                                    .$I.

O
PL6.E3A0      #001=DD_SPEC_D File=DD_SPEC_D.:E05TSI                              TUE 07/29/97 14:28 Page:12
 Sect OctLoc
   0     037   002044 117***                                                    .$O.

L
 Sect OctLoc
   0     040   002044 114***                                                    .$L.

A
 Sect OctLoc
   0     041   002044 101***                                                    .$A.

AU
 Sect OctLoc
   0     042   003044 101125                                                    .$AU

AL
 Sect OctLoc
   0     043   003044 101114                                                    .$AL

Q
 Sect OctLoc
   0     044   002044 121***                                                    .$Q.

QU
 Sect OctLoc
   0     045   003044 121125                                                    .$QU

QL
 Sect OctLoc
   0     046   003044 121114                                                    .$QL

X
 Sect OctLoc
   0     047   002044 130***                                                    .$X.

E
 Sect OctLoc
PL6.E3A0      #001=DD_SPEC_D File=DD_SPEC_D.:E05TSI                              TUE 07/29/97 14:28 Page:13
   0     050   002044 105***                                                    .$E.

IND
 Sect OctLoc
   0     051   004044 111116   104*** ******                                    .$IND...

AR
 Sect OctLoc
   0     053   003044 101122                                                    .$AR

RI
 Sect OctLoc
   0     054   003044 122111                                                    .$RI

NA
 Sect OctLoc
   0     055   003044 116101                                                    .$NA

S@
 Sect OctLoc
   0     056   001100 ******                                                    .@..

S@@
 Sect OctLoc
   0     057   002100 100***                                                    .@@.

S#
 Sect OctLoc
   0     060   001043 ******                                                    .#..

S##
 Sect OctLoc
   0     061   002043 043***                                                    .##.

EA
 Sect OctLoc
   0     062   003044 105101                                                    .$EA
PL6.E3A0      #001=DD_SPEC_D File=DD_SPEC_D.:E05TSI                              TUE 07/29/97 14:28 Page:14

EAQ
 Sect OctLoc
   0     063   004044 105101   121*** ******                                    .$EAQ...

REM@
 Sect OctLoc
   0     065   005044 122105   115100 ******                                    .$REM@..

REM#
 Sect OctLoc
   0     067   005044 122105   115043 ******                                    .$REM#..

CI
 Sect OctLoc
   0     071   003044 103111                                                    .$CI

P
 Sect OctLoc
   0     072   002044 120***                                                    .$P.

T
 Sect OctLoc
   0     073   002044 124***                                                    .$T.

S
 Sect OctLoc
   0     074   002044 123***                                                    .$S.

IV
 Sect OctLoc
   0     075   003044 111126                                                    .$IV

Z
 Sect OctLoc
   0     076   002044 132***                                                    .$Z.

PL6.E3A0      #001=DD_SPEC_D File=DD_SPEC_D.:E05TSI                              TUE 07/29/97 14:28 Page:15
ASV
 Sect OctLoc
   0     077   004044 101123   126*** ******                                    .$ASV...

R
 Sect OctLoc
   0     101   002044 122***                                                    .$R.

M
 Sect OctLoc
   0     102   002044 115***                                                    .$M.

N
 Sect OctLoc
   0     103   002044 116***                                                    .$N.

SSR
 Sect OctLoc
   0     104   004044 123123   122*** ******                                    .$SSR...

ISR
 Sect OctLoc
   0     106   004044 111123   122*** ******                                    .$ISR...

ASR
 Sect OctLoc
   0     110   004044 101123   122*** ******                                    .$ASR...

LSR
 Sect OctLoc
   0     112   004044 114123   122*** ******                                    .$LSR...

PSR
 Sect OctLoc
   0     114   004044 120123   122*** ******                                    .$PSR...

TRUCK
PL6.E3A0      #001=DD_SPEC_D File=DD_SPEC_D.:E05TSI                              TUE 07/29/97 14:28 Page:16
 Sect OctLoc
   0     116   005044 101125   124117 ******                                    .$AUTO..

DS
 Sect OctLoc
   0     120   003044 104123                                                    .$DS

DR
 Sect OctLoc
   0     121   003044 104122                                                    .$DR

PR
 Sect OctLoc
   0     122   003044 120122                                                    .$PR

IOBUF
 Sect OctLoc
   0     123   006044 111117   102125 106***                                    .$IOBUF.

REAL
 Sect OctLoc
   0     125   005044 122105   101114 ******                                    .$REAL..

VIRT
 Sect OctLoc
   0     127   005044 126111   122124 ******                                    .$VIRT..

JIT
 Sect OctLoc
   0     131   004044 112111   124*** ******                                    .$JIT...

HJIT
 Sect OctLoc
   0     133   006044 110112   111124 040***                                    .$HJIT .

PARM
 Sect OctLoc
PL6.E3A0      #001=DD_SPEC_D File=DD_SPEC_D.:E05TSI                              TUE 07/29/97 14:28 Page:17
   0     135   005044 120101   122115 ******                                    .$PARM..

DCBN
 Sect OctLoc
   0     137   004044 104103   102*** ******                                    .$DCB...

SAD
 Sect OctLoc
   0     141   004044 123101   104*** ******                                    .$SAD...

RVB
 Sect OctLoc
   0     143   004044 122126   102*** ******                                    .$RVB...

USD
 Sect OctLoc
   0     145   004044 125123   104*** ******                                    .$USD...

ERR
 Sect OctLoc
   0     147   004044 105122   122*** ******                                    .$ERR...

HEAD
 Sect OctLoc
   0     151   005044 110105   101104 ******                                    .$HEAD..

CG
 Sect OctLoc
   0     153   003044 103107                                                    .$CG

VS
 Sect OctLoc
   0     154   003044 126123                                                    .$VS

B
 Sect OctLoc
   0     155   002044 102***                                                    .$B.
PL6.E3A0      #001=DD_SPEC_D File=DD_SPEC_D.:E05TSI                              TUE 07/29/97 14:28 Page:18

ROSEG
 Sect OctLoc
   0     156   006044 122117   123105 107***                                    .$ROSEG.

RDBR
 Sect OctLoc
   0     160   005044 122104   102122 ******                                    .$RDBR..

TSA
 Sect OctLoc
   0     162   004044 124123   101*** ******                                    .$TSA...

IS
 Sect OctLoc
   0     164   003044 111123                                                    .$IS

RES
 Sect OctLoc
   0     165   004044 122105   123*** ******                                    .$RES...

(unnamed)
 Sect OctLoc
   0     167   000014 006000   003000 002002   000016 006000   004000 006002    ................
   0     173   000001 006000   026000 002001   000051 006000   005000 007001    .........)......
   0     177   000021 006000   006000 003001   000031 006000   007000 003001    ................
   0     203   000032 006000   010000 003001   000033 006000   011000 003001    ................
   0     207   000034 006000   015000 003001   000000 006000   016000 007011    ................
   0     213   000037 006000   000000 006417   000040 006000   002000 006417    ......... ......
   0     217   000036 006000   001000 007406   000010 006000   030000 006001    ................
   0     223   000003 006000   027000 006001   000005 006000   050000 006011    ............(...
   0     227   000006 006000   051000 006001   000041 006000   020000 007001    ....)....!......
   0     233   000042 006000   022000 007001   000043 006000   023000 007001    .".......#......
   0     237   000044 006000   021000 007001   000045 006000   024000 007001    .$.......%......
   0     243   000046 006000   025000 007001   000050 006000   017000 007003    .&.......(......
   0     247   000054 006000   036000 000406   000055 006000   037000 004406    .,.......-......
   0     253   000056 006000   040000 004406   000057 006000   041000 004406    .... ..../..!...
PL6.E3A0      #001=DD_SPEC_D File=DD_SPEC_D.:E05TSI                              TUE 07/29/97 14:28 Page:19
   0     257   000060 006000   042000 004401   000061 006000   043000 004401    .0.."....1..#...
   0     263   000062 006000   044000 003020   000063 006000   045000 003020    .2..$....3..%...
   0     267   000065 006000   046000 002002   000067 006000   047000 002002    .5..&....7..'...
   0     273   000071 006000   012000 006015   000072 006000   016000 007011    .9.......:......
   0     277   000073 006000   013000 006007   000074 006000   014000 006015    .;.......<......
   0     303   000075 006000   053000 002015   000076 006000   054000 002015    .=..+....>..,...
   0     307   000077 006000   055000 006007   000103 006000   060000 006417    .?..-....C..0...
   0     313   000047 006000   031000 007011   000025 006000   032000 006002    .'..............
   0     317   000027 006000   033000 006001   000023 006000   034000 003001    ................
   0     323   000053 006000   035000 007013   000101 006000   056000 006015    .+.......A......
   0     327   000102 006000   057000 006005   000104 006000   000000 003010    .B../....D......
   0     333   000131 006000   000010 000010   000133 006000   000020 000010    .Y.......[......
   0     337   000106 006000   010010 002010   000110 006000   010020 003010    .F.......H......
   0     343   000112 006000   010030 002010   000114 006000   010000 003010    .J.......L......
   0     347   000116 006000   020300 343007   000125 006000   040000 000010    .N.......U.. ...
   0     353   000127 006000   040010 000010   000123 006000   050000 000010    .W.. ....S..(...
   0     357   000012 006000   000030 000010   000141 006000   000040 000010    .........a... ..
   0     363   000143 006000   000050 000010   000145 006000   000060 000010    .c...(...e...0..
   0     367   000147 006000   000070 000010   000151 006000   000100 000010    .g...8...i...@..
   0     373   000156 006000   100000 000010   000160 006000   100010 007007    .n..@....p..@...
   0     377   000162 006000   100020 000410   000165 006000   120000 000010    .r..@....u..P...
   0     403   000033 006000   030030 002010   000032 006000   030020 003010    ................
   0     407   000031 006000   030000 003010   000120 006000   030030 062010    .........P....2.
   0     413   000121 006000   020000 303010   000122 006000   020200 307007    .Q.......R......
   0     417   000135 006000   060000 001010   000137 006000   070000 000010    .]..0...._..8...
   0     423   000153 006000   000110 000010   000154 006000   030030 000010    .k...H...l......
   0     427   000155 006000   110000 007007   000164 006000   100030 000010    .m..H....t..@...
        1        1        /*M* DD_SPEC_D Special symbol definitions */
        2        2        /*T***********************************************************/
        3        3        /*T*                                                         */
        4        4        /*T* Copyright (c) Bull HN Information Systems Inc., 1997    */
        5        5        /*T*                                                         */
        6        6        /*T***********************************************************/
        7        7        /*X* DMR,PLM=5,IND=5,CSU=3,EXM=0,ECU=3,MOC,DCI=5,CRT=5 */
        8        8        DD_SPEC_D: PROC;
        9        9             %INCLUDE DD$DITEM;
       12+     112             %LIST;
PL6.E3A0      #001=DD_SPEC_D File=DD_SPEC_D.:E05TSI                              TUE 07/29/97 14:28 Page:20
       13+     113    1        DCL SDD$ PTR;
       14+     114    1        DCL ZITEM$ PTR;
       15+     115    1        DCL SDD_L6$ PTR;
       16+     116    1        DCL ZITEM_L6$ PTR;
       10      690                                           /* Constant data for special symbol text */
       11      691             %SUB F_D='010'B;
       12      692             %SUB F_S='001'B;
       13      693             %SUB F_E='0001'B;
       14      694             %SUB F_MD='110'B;
       15      695             %SUB F_DM='110'B;
       16      696             %SUB F_DS='011'B;
       17      697             %SUB F_SD='011'B;
       18      698             %SUB F_MS='101'B;
       19      699             %SUB F_SM='101'B;
       20      700             %SUB F_ME='1001'B;
       21      701             %SUB F_DSE='0111'B;
       22      702             %SUB F_MDE='1101'B;
       23      703              %SUB F_MSE='1011'B;
       24      704             %SUB F_MDS='111'B;
       25      705             %SUB F_DE='0101'B;
       26      706             %SUB F_MDSE='1111'B;
       27      707                                                /**/
       28      708             %MACRO SPNAME(NM=NAME,SZ=5,TXT='$NAME');
       29      709        DCL 1 NM CONSTANT,
       30      710              2 * UBIN(9) INIT(SZ) UNAL,
       31      711              2 * CHAR(SZ) INIT(TXT);
       32      712             %MEND;
       33      713             %SPNAME(NM=IC,SZ=3,TXT='$IC');     /* Host and L6 */
       34      718             %SPNAME(NM=FADR,SZ=5,TXT='$FADR'); /* Not Implemented */
       35      723             %SPNAME(NM=FRANGE,SZ=7,TXT='$FRANGE'); /* Host and L6 */
       36      728             %SPNAME(NM=SA,SZ=3,TXT='$SA');     /* Host and L6 - RUM */
       37      733             %SPNAME(NM=PRIV,SZ=5,TXT='$PRIV'); /* Host and L6 - RUM */
       38      738             %SPNAME(NM=FMASK,SZ=6,TXT='$FMASK'); /* Host and L6 */
       39      743             %SPNAME(NM=TCB,SZ=4,TXT='$TCB');   /* Host */
       40      748             %SPNAME(NM=ENT,SZ=4,TXT='$ENT');   /* Host */
       41      753             %SPNAME(NM=IOBUFSZ,SZ=8,TXT='$IOBUFSZ'); /* Host XDELTA */
       42      758             %SPNAME(NM=ARGS,SZ=5,TXT='$ARGS'); /* Not implemented */
PL6.E3A0      #001=DD_SPEC_D File=DD_SPEC_D.:E05TSI                              TUE 07/29/97 14:28 Page:21
       43      763             %SPNAME(NM=ARG,SZ=4,TXT='$ARG');   /* Not implemented */
       44      768             %SPNAME(NM=WSR,SZ=4,TXT='$WSR');   /* Host */
       45      773             %SPNAME(NM=WSQ,SZ=4,TXT='$WSQ');   /* Host */
       46      778             %SPNAME(NM=PS,SZ=3,TXT='$PS');     /* Host */
       47      783             %SPNAME(NM=AS,SZ=3,TXT='$AS');     /* Host */
       48      788             %SPNAME(NM=LS,SZ=3,TXT='$LS');     /* Host */
       49      793             %SPNAME(NM=REGS,SZ=5,TXT='$REGS'); /* Not implemented */
       50      798             %SPNAME(NM=I,SZ=2,TXT='$I');       /* Host and L6 */
       51      803             %SPNAME(NM=O,SZ=2,TXT='$O');       /* Host and L6 */
       52      808             %SPNAME(NM=L,SZ=2,TXT='$L');       /* Host and L6 */
       53      813             %SPNAME(NM=A,SZ=2,TXT='$A');       /* Host and L6 */
       54      818             %SPNAME(NM=AU,SZ=3,TXT='$AU');     /* Host */
       55      823             %SPNAME(NM=AL,SZ=3,TXT='$AL');     /* Host */
       56      828             %SPNAME(NM=Q,SZ=2,TXT='$Q');       /* Host */
       57      833             %SPNAME(NM=QU,SZ=3,TXT='$QU');     /* Host */
       58      838             %SPNAME(NM=QL,SZ=3,TXT='$QL');     /* Host */
       59      843             %SPNAME(NM=X,SZ=2,TXT='$X');       /* Host */
       60      848             %SPNAME(NM=E,SZ=2,TXT='$E');       /* Host */
       61      853             %SPNAME(NM=IND,SZ=4,TXT='$IND');   /* Host and L6 */
       62      858             %SPNAME(NM=AR,SZ=3,TXT='$AR');     /* Host */
       63      863             %SPNAME(NM=RI,SZ=3,TXT='$RI');     /* Host and L6 */
       64      868             %SPNAME(NM=NA,SZ=3,TXT='$NA');     /* Host and L6 */
       65      873             %SPNAME(NM=S@,SZ=1,TXT='@');       /* Host and L6 */
       66      878             %SPNAME(NM=S@@,SZ=2,TXT='@@');     /* Host and L6 */
       67      883             %SPNAME(NM=S#,SZ=1,TXT='#');       /* Host and L6 */
       68      888             %SPNAME(NM=S##,SZ=2,TXT='##');     /* Host and L6 */
       69      893             %SPNAME(NM=EA,SZ=3,TXT='$EA');     /* Host */
       70      898             %SPNAME(NM=EAQ,SZ=4,TXT='$EAQ');   /* Host */
       71      903             %SPNAME(NM=REM@,SZ=5,TXT='$REM@'); /* Host and L6 */
       72      908             %SPNAME(NM=REM#,SZ=5,TXT='$REM#'); /* Host and L6 */
       73      913             %SPNAME(NM=CI,SZ=3,TXT='$CI');     /* L6 */
       74      918             %SPNAME(NM=P,SZ=2,TXT='$P');       /* L6 */
       75      923             %SPNAME(NM=T,SZ=2,TXT='$T');       /* L6 */
       76      928             %SPNAME(NM=S,SZ=2,TXT='$S');       /* L6 */
       77      933             %SPNAME(NM=IV,SZ=3,TXT='$IV');     /* L6 */
       78      938             %SPNAME(NM=Z,SZ=2,TXT='$Z');       /* L6 */
       79      943             %SPNAME(NM=ASV,SZ=4,TXT='$ASV');   /* L6 */
PL6.E3A0      #001=DD_SPEC_D File=DD_SPEC_D.:E05TSI                              TUE 07/29/97 14:28 Page:22
       80      948             %SPNAME(NM=R,SZ=2,TXT='$R');       /* L6 */
       81      953             %SPNAME(NM=M,SZ=2,TXT='$M');       /* L6 */
       82      958             %SPNAME(NM=N,SZ=2,TXT='$N');       /* L6 */
       83      963                                                /* Special symbols definition table */
       84      964                                                /* Names for desc/ptr specials      */
       85      965             %SPNAME(NM=SSR,SZ=4,TXT='$SSR');   /* Host */
       86      970             %SPNAME(NM=ISR,SZ=4,TXT='$ISR');   /* Host and L6 */
       87      975             %SPNAME(NM=ASR,SZ=4,TXT='$ASR');   /* Host */
       88      980             %SPNAME(NM=LSR,SZ=4,TXT='$LSR');   /* Host */
       89      985             %SPNAME(NM=PSR,SZ=4,TXT='$PSR');   /* Host */
       90      990             %SPNAME(NM=TRUCK,SZ=5,TXT='$AUTO'); /* L6 - $AUTO */
       91      995             %SPNAME(NM=DS,SZ=3,TXT='$DS');     /* Host (1-8) and L6 (1-4) */
       92     1000             %SPNAME(NM=DR,SZ=3,TXT='$DR');     /* Host */
       93     1005             %SPNAME(NM=PR,SZ=3,TXT='$PR');     /* Host */
       94     1010             %SPNAME(NM=IOBUF,SZ=6,TXT='$IOBUF'); /* Host XDELTA */
       95     1015             %SPNAME(NM=REAL,SZ=5,TXT='$REAL'); /* Host XDELTA */
       96     1020             %SPNAME(NM=VIRT,SZ=5,TXT='$VIRT'); /* Host XDELTA */
       97     1025             %SPNAME(NM=JIT,SZ=4,TXT='$JIT');   /* Host and L6 */
       98     1030             %SPNAME(NM=HJIT,SZ=6,TXT='$HJIT'); /* Host */
       99     1035             %SPNAME(NM=PARM,SZ=5,TXT='$PARM'); /* Host */
      100     1040             %SPNAME(NM=DCBN,SZ=4,TXT='$DCB');  /* Host and L6 */
      101     1045             %SPNAME(NM=SAD,SZ=4,TXT='$SAD');   /* Host */
      102     1050             %SPNAME(NM=RVB,SZ=4,TXT='$RVB');   /* Host - ANLZ FILE */
      103     1055             %SPNAME(NM=USD,SZ=4,TXT='$USD');   /* Host - ANLZ FILE */
      104     1060             %SPNAME(NM=ERR,SZ=4,TXT='$ERR');   /* Host - ANLZ FILE */
      105     1065             %SPNAME(NM=HEAD,SZ=5,TXT='$HEAD'); /* Host and L6 - RUM */
      106     1070             %SPNAME(NM=CG,SZ=3,TXT='$CG');     /* Host - ANLZ FILE */
      107     1075             %SPNAME(NM=VS,SZ=3,TXT='$VS');     /* Host */
      108     1080             %SPNAME(NM=B,SZ=2,TXT='$B');       /* L6 */
      109     1085             %SPNAME(NM=ROSEG,SZ=6,TXT='$ROSEG'); /* L6 */
      110     1090             %SPNAME(NM=RDBR,SZ=5,TXT='$RDBR'); /* L6 */
      111     1095             %SPNAME(NM=TSA,SZ=4,TXT='$TSA');   /* L6 */
      112     1100             %SPNAME(NM=IS,SZ=3,TXT='$IS');     /* L6 */
      113     1105             %SPNAME(NM=RES,SZ=4,TXT='$RES');
      114     1110             %MACRO SPEC(NM=NAME,ID=0,SZ=0,F='000'B,FMT=%OCT_FMT);
      115     1111             ,2 * PTR INIT(ADDR(NM)),
      116     1112               2 * UBIN(9) UNAL INIT(ID),
PL6.E3A0      #001=DD_SPEC_D File=DD_SPEC_D.:E05TSI                              TUE 07/29/97 14:28 Page:23
      117     1113               2 * UBIN(9) UNAL INIT(SZ),
      118     1114               2 * UBIN(6) UNAL INIT(0),
      119     1115               2 * BIT(6) UNAL INIT(F),
      120     1116               2 * UBIN(6) UNAL INIT(FMT)
      121     1117               %MEND;
      122     1118                                      /* SYMREF of SPEC is array (0:n) of structures */
      123     1119                                                /* SPEC is value type special symbols */
      124     1120    1   DCL 1 SPEC CONSTANT SYMDEF
      125     1121             %SPEC(NM=ENT,ID=%ENT_RTN,F=F_D,FMT=%UINT_FMT);
      126     1129             %SPEC(NM=IOBUFSZ,ID=%IOBUFSZ_RTN,F=F_MD,FMT=%UINT_FMT);
      127     1137             %SPEC(NM=FADR,ID=%FADR_RTN,F=F_D);
      128     1145             %SPEC(NM=IND,ID=%IND_RTN,F=F_MDS);
      129     1153             %SPEC(NM=ARGS,ID=%ARGS_RTN,F=F_DS);
      130     1161             %SPEC(NM=PS,ID=%PS_RTN,F=F_DS);
      131     1169             %SPEC(NM=AS,ID=%AS_RTN,F=F_DS);
      132     1177             %SPEC(NM=LS,ID=%LS_RTN,F=F_DS);
      133     1185             %SPEC(NM=REGS,ID=%REGS_RTN,F=F_DS);
      134     1193             %SPEC(NM=IC,ID=%IC_RTN,F=F_MDS,FMT=%REL_FMT);
      135     1201             %SPEC(NM=O,ID=%O_RTN,F=F_MDE,FMT=%L$_FMT);
      136     1209             %SPEC(NM=L,ID=%L_RTN,F=F_MDE,FMT=%L$_FMT);
      137     1217             %SPEC(NM=I,ID=%I_RTN,F=F_MDSE,FMT=%INST_FMT);
      138     1225             %SPEC(NM=FMASK,ID=%FMASK_RTN,F=F_MD);
      139     1233             %SPEC(NM=FRANGE,ID=%FRANGE_RTN,F=F_MD);
      140     1241             %SPEC(NM=SA,ID=%SA_RTN,F=F_MD,FMT=%REL_FMT);
      141     1249             %SPEC(NM=PRIV,ID=%PRIV_RTN,F=F_MD);
      142     1257             %SPEC(NM=A,ID=%A_RTN,F=F_MDS);
      143     1265             %SPEC(NM=AU,ID=%AU_RTN,F=F_MDS);
      144     1273             %SPEC(NM=AL,ID=%AL_RTN,F=F_MDS);
      145     1281             %SPEC(NM=Q,ID=%Q_RTN,F=F_MDS);
      146     1289             %SPEC(NM=QU,ID=%QU_RTN,F=F_MDS);
      147     1297             %SPEC(NM=QL,ID=%QL_RTN,F=F_MDS);
      148     1305             %SPEC(NM=E,ID=%E_RTN,F=F_MDS,FMT=%SINT_FMT);
      149     1313             %SPEC(NM=RI,ID=%RI_RTN,F=F_E,FMT=%INST_FMT);
      150     1321             %SPEC(NM=NA,ID=%NA_RTN,F=F_ME,FMT=%INST_FMT);
      151     1329             %SPEC(NM=S@,ID=%@_RTN,F=F_ME,FMT=%INST_FMT);
      152     1337             %SPEC(NM=S@@,ID=%@@_RTN,F=F_ME,FMT=%INST_FMT);
      153     1345             %SPEC(NM=S#,ID=%#_RTN,F=F_ME,FMT=%OCT_FMT);
PL6.E3A0      #001=DD_SPEC_D File=DD_SPEC_D.:E05TSI                              TUE 07/29/97 14:28 Page:24
      154     1353             %SPEC(NM=S##,ID=%##_RTN,F=F_ME,FMT=%OCT_FMT);
      155     1361             %SPEC(NM=EA,ID=%EA_RTN,F=F_DS,FMT=%FLOAT_FMT);
      156     1369             %SPEC(NM=EAQ,ID=%EAQ_RTN,F=F_DS,FMT=%FLOAT_FMT);
      157     1377             %SPEC(NM=REM@,ID=%REM@_RTN,F=F_D,FMT=%UINT_FMT);
      158     1385             %SPEC(NM=REM#,ID=%REM#_RTN,F=F_D,FMT=%UINT_FMT);
      159     1393             %SPEC(NM=CI,ID=%CI_RTN,F=F_MD,FMT=%X_FMT);
      160     1401             %SPEC(NM=P,ID=%IC_RTN,F=F_MDS,FMT=%REL_FMT);
      161     1409             %SPEC(NM=T,ID=%T_RTN,F=F_MD,FMT=%PTR_FMT);
      162     1417             %SPEC(NM=S,ID=%S_RTN,F=F_MD,FMT=%X_FMT); /* Modifyable only if privileged.
      163     1418                                           FD should error if not enough privilege */
      164     1426             %SPEC(NM=IV,ID=%IV_RTN,F=F_D,FMT=%X_FMT);
      165     1434             %SPEC(NM=Z,ID=%Z_RTN,F=F_D,FMT=%X_FMT);
      166     1442             %SPEC(NM=ASV,ID=%ASV_RTN,F=F_MD,FMT=%PTR_FMT);
              1442                 /* Modifyable only if privileged.
      167     1443                                           FD should error if not enough privilege */
      168     1451             %SPEC(NM=N,ID=%N_RTN,F=F_MDE,FMT=%L$_FMT);
      169     1459                                                /* Following have numeric suffix */
      170     1460             %SPEC(NM=X,ID=%X_RTN,F=F_MDS,FMT=%REL_FMT);
      171     1468             %SPEC(NM=WSR,ID=%WSR_RTN,F=F_MD,FMT=%UINT_FMT);
      172     1476             %SPEC(NM=WSQ,ID=%WSQ_RTN,F=F_MD);
      173     1484             %SPEC(NM=ARG,ID=%ARG_RTN,F=F_DS);
      174     1492             %SPEC(NM=AR,ID=%AR_RTN,F=F_MDS,FMT=%AR_FMT);
      175     1500             %SPEC(NM=R,ID=%R_RTN,F=F_MD,FMT=%X_FMT);
      176     1508             %SPEC(NM=M,ID=%M_RTN,F=F_MD,FMT=%BIT_FMT);
      177     1516    1        ;                                  /* End of declaration */
      178     1517                                                /**/
      179     1518                                                /**/
      180     1519             %MACRO DESC(NM=NAME,TYPE=0,ID=0,DISP=0,F='000'B,FMT=%DESC_FMT);
      181     1520             ,2 * PTR INIT(ADDR(NM)),
      182     1521               2 * UBIN(6) UNAL INIT(TYPE),
      183     1522               2 * UBIN(9) UNAL INIT(ID),
      184     1523               2 * UBIN(9) UNAL INIT(DISP),
      185     1524               2 * BIT(6) UNAL INIT(F),
      186     1525               2 * UBIN(6) UNAL INIT(FMT)
      187     1526               %MEND;
      188     1527                                      /* SYMREF of DESC is array (0:27) of structures */
      189     1528                            /* The order of these is reflected in the file DC_DESC_R
PL6.E3A0      #001=DD_SPEC_D File=DD_SPEC_D.:E05TSI                              TUE 07/29/97 14:28 Page:25
      190     1529                               as a set of %EQU's xxx_DESC  */
      191     1530                                           /* DESC is pointer type special symbols */
      192     1531    1   DCL 1 DESC CONSTANT SYMDEF
      193     1532              %DESC(NM=SSR,F=F_DS);
      194     1540             %DESC(NM=JIT,TYPE=0,ID=1);
      195     1548             %DESC(NM=HJIT,TYPE=0,ID=2);
      196     1556             %DESC(NM=ISR,TYPE=1,ID=1,F=F_D);
      197     1564             %DESC(NM=ASR,TYPE=1,ID=2,F=F_DS);
      198     1572             %DESC(NM=LSR,TYPE=1,ID=3,F=F_D);
      199     1580             %DESC(NM=PSR,TYPE=1,ID=0,F=F_DS);
      200     1588             %DESC(NM=TRUCK,TYPE=2,ID=24,DISP=28,F=F_DS,FMT=%PTR_FMT);
      201     1596             %DESC(NM=REAL,TYPE=4,ID=0);
      202     1604             %DESC(NM=VIRT,TYPE=4,ID=1);
      203     1612             %DESC(NM=IOBUF,TYPE=5);
      204     1620             %DESC(NM=TCB,TYPE=0,ID=3);
      205     1628             %DESC(NM=SAD,TYPE=0,ID=4);
      206     1636             %DESC(NM=RVB,TYPE=0,ID=5);
      207     1644             %DESC(NM=USD,TYPE=0,ID=6);
      208     1652             %DESC(NM=ERR,TYPE=0,ID=7);
      209     1660             %DESC(NM=HEAD,TYPE=0,ID=8);
      210     1668             %DESC(NM=ROSEG,TYPE=8,ID=0,DISP=0);
      211     1676             %DESC(NM=RDBR,TYPE=8,ID=1,F=F_MDS,FMT=%PTR_FMT);
      212     1684             %DESC(NM=TSA,TYPE=8,ID=2,F=F_E);
      213     1692             %DESC(NM=RES,TYPE=10,ID=0);
      214     1700                                                /* Following have numeric suffix */
      215     1701             %DESC(NM=LS,TYPE=3,ID=3,DISP=0,F=F_D);
      216     1709             %DESC(NM=AS,TYPE=3,ID=2,DISP=0,F=F_DS);
      217     1717             %DESC(NM=PS,TYPE=3,ID=0,DISP=0,F=F_DS);
      218     1725             %DESC(NM=DS,TYPE=3,ID=3,DISP=6,F=F_D);
      219     1733             %DESC(NM=DR,TYPE=2,ID=0,DISP=24,F=F_DS);
      220     1741             %DESC(NM=PR,TYPE=2,ID=16,DISP=24,F=F_MDS,FMT=%PTR_FMT);
      221     1749             %DESC(NM=PARM,TYPE=6,F=F_S);
      222     1757             %DESC(NM=DCBN,TYPE=7);
      223     1765             %DESC(NM=CG,TYPE=0,ID=9);
      224     1773             %DESC(NM=VS,TYPE=3,ID=3);
      225     1781             %DESC(NM=B,TYPE=9,ID=0,F=F_MDS,FMT=%PTR_FMT);
      226     1789             %DESC(NM=IS,TYPE=8,ID=3,DISP=0);
PL6.E3A0      #001=DD_SPEC_D File=DD_SPEC_D.:E05TSI                              TUE 07/29/97 14:28 Page:26
      227     1797    1        ;                                  /* End of declaration */
      228     1798    1   END DD_SPEC_D;

PL6.E3A0      #001=DD_SPEC_D File=DD_SPEC_D.:E05TSI                              TUE 07/29/97 14:28 Page:27
--  Include file information  --

   DD_SRTN_C.:E05TOU  is referenced.
   DD_ACODE_C.:E05TOU  is referenced.
   DD_ICODE_C.:E05TOU  is referenced.
   DD$DITEM.:E05TOU  cannot be made into a system file and is referenced.
   B$JIT_C.:E05TOU  was found in the system file and is never referenced.
   CP_6_C.:E05TOU  was found in the system file and is never referenced.
      No diagnostics issued in procedure DD_SPEC_D.

   No code generated for procedure DD_SPEC_D .
   Procedure DD_SPEC_D requires 8 words of local(AUTO) storage.

    No errors detected in file DD_SPEC_D.:E05TSI    .
PL6.E3A0      #001=DD_SPEC_D File=DD_SPEC_D.:E05TSI                              TUE 07/29/97 14:28 Page:28
          *** CROSS REFERENCE LISTING ***
**     DENOTES     IDENTIFIER DEFINITION
<<                 IDENTIFIER'S VALUE SET
>>                 IDENTIFIER'S VALUE USED
<>                 IDENTIFIER SET AND/OR USED
--                 IDENTIFIER REFERENCED
PL6.E3A0      #001=DD_SPEC_D File=DD_SPEC_D.:E05TSI                              TUE 07/29/97 14:28 Page:29
          MINI XREF LISTING

A
       814**DCL      1258--DCLINIT
AL
       824**DCL      1274--DCLINIT
AR
       859**DCL      1493--DCLINIT
ARG
       764**DCL      1485--DCLINIT
ARGS
       759**DCL      1154--DCLINIT
AS
       784**DCL      1170--DCLINIT  1710--DCLINIT
ASR
       976**DCL      1565--DCLINIT
ASV
       944**DCL      1444--DCLINIT
AU
       819**DCL      1266--DCLINIT
B
      1081**DCL      1782--DCLINIT
CG
      1071**DCL      1766--DCLINIT
CI
       914**DCL      1394--DCLINIT
DCBN
      1041**DCL      1758--DCLINIT
DR
      1001**DCL      1734--DCLINIT
DS
       996**DCL      1726--DCLINIT
E
       849**DCL      1306--DCLINIT
PL6.E3A0      #001=DD_SPEC_D File=DD_SPEC_D.:E05TSI                              TUE 07/29/97 14:28 Page:30
EA
       894**DCL      1362--DCLINIT
EAQ
       899**DCL      1370--DCLINIT
ENT
       749**DCL      1122--DCLINIT
ERR
      1061**DCL      1653--DCLINIT
FADR
       719**DCL      1138--DCLINIT
FMASK
       739**DCL      1226--DCLINIT
FRANGE
       724**DCL      1234--DCLINIT
HEAD
      1066**DCL      1661--DCLINIT
HJIT
      1031**DCL      1549--DCLINIT
I
       799**DCL      1218--DCLINIT
IC
       714**DCL      1194--DCLINIT
IND
       854**DCL      1146--DCLINIT
IOBUF
      1011**DCL      1613--DCLINIT
IOBUFSZ
       754**DCL      1130--DCLINIT
IS
      1101**DCL      1790--DCLINIT
ISR
       971**DCL      1557--DCLINIT
IV
       934**DCL      1427--DCLINIT
JIT
      1026**DCL      1541--DCLINIT
PL6.E3A0      #001=DD_SPEC_D File=DD_SPEC_D.:E05TSI                              TUE 07/29/97 14:28 Page:31
L
       809**DCL      1210--DCLINIT
LS
       789**DCL      1178--DCLINIT  1702--DCLINIT
LSR
       981**DCL      1573--DCLINIT
M
       954**DCL      1509--DCLINIT
N
       959**DCL      1452--DCLINIT
NA
       869**DCL      1322--DCLINIT
O
       804**DCL      1202--DCLINIT
P
       919**DCL      1402--DCLINIT
PARM
      1036**DCL      1750--DCLINIT
PR
      1006**DCL      1742--DCLINIT
PRIV
       734**DCL      1250--DCLINIT
PS
       779**DCL      1162--DCLINIT  1718--DCLINIT
PSR
       986**DCL      1581--DCLINIT
Q
       829**DCL      1282--DCLINIT
QL
       839**DCL      1298--DCLINIT
QU
       834**DCL      1290--DCLINIT
R
       949**DCL      1501--DCLINIT
RDBR
      1091**DCL      1677--DCLINIT
PL6.E3A0      #001=DD_SPEC_D File=DD_SPEC_D.:E05TSI                              TUE 07/29/97 14:28 Page:32
REAL
      1016**DCL      1597--DCLINIT
REGS
       794**DCL      1186--DCLINIT
REM#
       909**DCL      1386--DCLINIT
REM@
       904**DCL      1378--DCLINIT
RES
      1106**DCL      1693--DCLINIT
RI
       864**DCL      1314--DCLINIT
ROSEG
      1086**DCL      1669--DCLINIT
RVB
      1051**DCL      1637--DCLINIT
S
       929**DCL      1419--DCLINIT
S#
       884**DCL      1346--DCLINIT
S##
       889**DCL      1354--DCLINIT
S@
       874**DCL      1330--DCLINIT
S@@
       879**DCL      1338--DCLINIT
SA
       729**DCL      1242--DCLINIT
SAD
      1046**DCL      1629--DCLINIT
SSR
       966**DCL      1533--DCLINIT
T
       924**DCL      1410--DCLINIT
TCB
       744**DCL      1621--DCLINIT
PL6.E3A0      #001=DD_SPEC_D File=DD_SPEC_D.:E05TSI                              TUE 07/29/97 14:28 Page:33
TRUCK
       991**DCL      1589--DCLINIT
TSA
      1096**DCL      1685--DCLINIT
USD
      1056**DCL      1645--DCLINIT
VIRT
      1021**DCL      1605--DCLINIT
VS
      1076**DCL      1774--DCLINIT
WSQ
       774**DCL      1477--DCLINIT
WSR
       769**DCL      1469--DCLINIT
X
       844**DCL      1461--DCLINIT
Z
       939**DCL      1435--DCLINIT
PL6.E3A0      #001=DD_SPEC_D File=DD_SPEC_D.:E05TSI                              TUE 07/29/97 14:28 Page:34
              *** CROSS REFERENCE LISTING ***
    **     DENOTES     IDENTIFIER DEFINITION
    <<                 IDENTIFIER'S VALUE SET
    >>                 IDENTIFIER'S VALUE USED
    <>                 IDENTIFIER SET AND/OR USED
    --                 IDENTIFIER REFERENCED
PL6.E3A0      #001=DD_SPEC_D File=DD_SPEC_D.:E05TSI                              TUE 07/29/97 14:28 Page:35
              MINI UREF LISTING

DD_SPEC_D       8**PROC
DESC    1531**DCL
SDD$     113**DCL
SDD_L6$     115**DCL
SPEC    1120**DCL
ZITEM$     114**DCL
ZITEM_L6$     116**DCL
