VERSION E05

PL6.E3A0      #001=DFA$DLCT File=DFA$DLCT.:E05TSI                                TUE 07/29/97 14:29 Page:1
        1        1        /*M* DFA$DLCT  - LCT DO ROUTINES */
        2        2        /*T***********************************************************/
        3        3        /*T*                                                         */
        4        4        /*T* Copyright (c) Bull HN Information Systems Inc., 1997    */
        5        5        /*T*                                                         */
        6        6        /*T***********************************************************/
        7        7        /*X* CCC,DMR,PLM=5,IND=5,CSU=3,EXM=0,ECU=3,MOC,DCI=5,CRT=5 */
        8        8        %SET LISTSUB='1'B;
        9        9        /*P* NAME: DFA$DLCT
       10       10             PURPOSE:  To provide the DISPLAY LCTs command
       11       11        */
       12       12        /*D* NAME: DFA$DLCT
       13       13             DESCRIPTION: This routine is called by DDA$DO to perform the DLCT
       14       14                  directive.
       15       15        */
       16       16        DFA$DLCT:PROC ALTRET;
       17       17
       18       18        /* Local auto */
       19       19    1   DCL I UBIN;
       20       20    1   DCL J UBIN;
       21       21    1   DCL SIZE UBIN;
       22       22    1   DCL CHAR_HOLD CHAR(12);
       23       23    1   DCL CHAR9 CHAR(9) BASED;
       24       24    1   DCL CHAR5 CHAR(5) BASED;
       25       25    1   DCL CHAR2 CHAR(2) BASED;
       26       26    1   DCL OUTPUT$ PTR;
       27       27    1   DCL 1 SAVE_DATA(0:7),
       28       28    1         2 * BIT(20) UNAL,
       29       29    1         2 VAL,
       30       30    1           3 L UBIN(8) UNAL,
       31       31    1           3 R UBIN(8) UNAL;
       32       32    1   DCL FIRST BIT(1) ALIGNED;
       33       33    1   DCL TEMP$ PTR;
       34       34    1   DCL TEMP1 REDEF TEMP$ UBIN(36) ALIGNED;
       35       35    1   DCL 1 TEMP1B REDEF TEMP$ ALIGNED,
       36       36    1         2 * UBIN(4) UNAL,
       37       37    1         2 B1 UBIN(8) UNAL,
PL6.E3A0      #001=DFA$DLCT File=DFA$DLCT.:E05TSI                                TUE 07/29/97 14:29 Page:2
       38       38    1         2 B2 UBIN(8) UNAL,
       39       39    1         2 B3 UBIN(8) UNAL,
       40       40    1         2 B4 UBIN(8) UNAL;
       41       41    1   DCL TEMP2 UBIN(36) ALIGNED;
       42       42    1   DCL 1 TEMP2B REDEF TEMP2 ALIGNED,
       43       43    1         2 * BIT(1) UNAL,
       44       44    1         2 B1 UBIN(8) UNAL,
       45       45    1         2 * BIT(1) UNAL,
       46       46    1         2 B2 UBIN(8) UNAL,
       47       47    1         2 * BIT(1) UNAL,
       48       48    1         2 B3 UBIN(8) UNAL,
       49       49    1         2 * BIT(1) UNAL,
       50       50    1         2 B4 UBIN(8) UNAL;
       51       51        /* Includes and based structures */
       52       52        %INCLUDE CP_6;
       53      133        %INCLUDE DU_SCODE_C;
       54      146        %FPT_SCREECH(FPTN=SNAP_MESSAGE,STCLASS=SYMREF READONLY);
       55      160        %VLP_SCODE(FPTN=SC_MESSAGE, STCLASS=SYMREF READONLY);
       56      221        %INCLUDE XUH_MACRO_C;
       57      305        %INCLUDE DD_SD_M;
       58     1641        %S_D;
       59     2959        %S_D_PTRS;
       60     2996        %INCLUDE DD_ERR_C;
       61     3393        %INCLUDE GD$MSG_M;
       62     3557        %GD$MSG(FPTN=GD$MSG,STCLASS="BASED(S_D_L6_MESSAGE$)",L6=YES,L6PTR="UBIN(32) UNAL");
       63     3713        %GD$MSG(FPTN=GD$MSG_HOST,STCLASS="BASED(S_D_HOST_MESSAGE$)",L6=NO);
       64     3869        %INCLUDE GD_EQUS_E;
       65     4030        %INCLUDE DD$DITEM;
       12+    4133             %LIST;
       13+    4134    1        DCL SDD$ PTR;
       14+    4135    1        DCL ZITEM$ PTR;
       15+    4136    1        DCL SDD_L6$ PTR;
       16+    4137    1        DCL ZITEM_L6$ PTR;
       66     4711        %INCLUDE DD$BASED;
       67     6014        %FPRG$CONTEXT;
       68     6077    1   DCL D_M$DO# UBIN SYMREF;
       69     6078        /* Entry dcls */
PL6.E3A0      #001=DFA$DLCT File=DFA$DLCT.:E05TSI                                TUE 07/29/97 14:29 Page:3
       70     6079    1   DCL DDE$ERROR ENTRY;
       71     6080    1   DCL DDQ$WRITED ENTRY(2);
       72     6081    1   DCL DDR$BINTXT    ENTRY(4);
       73     6082    1   DCL DFQ$READ_FD ENTRY(2) ALTRET;
       74     6083    1   DCL DFQ$WRITE_FD ENTRY(1) ALTRET;
       75     6084    1   DCL DUE$ERRMSG ENTRY;
       76     6085    1   DCL DUE$GERRMSG ENTRY;
       77     6086        /**/
       78     6087    1        S_D.DUMPDCB = D_M$DO#;
       79     6088    1        OUTPUT$ = ADDR(S_D.OUTPUT);
       80     6089    1        FIRST = '1'B;
       81     6090    2        DO I = 0 TO 255 BY 16;
       82     6091    2             GD$MSG = '0'B;
       83     6092    2             GD$MSG.FNC = %GD#RQSDISPLCT;
       84     6093    2             GD$MSG.LCTMSG.FLAGS.DUMP = '1'B;
       85     6094    2             IF S_D.CURRENT_CHANNEL = 0
       86     6095    3             THEN DO;
       87     6096    3                  S_D.ERROR = 339;
       88     6097    3                  GOTO ARET;
       89     6098    3                END;
       90     6099    2             GD$MSG.LCTMSG.CHANNEL = S_D.CURRENT_CHANNEL_R.CHAN;
       91     6100    2             GD$MSG.LCTMSG.LCTNUM = I;
       92     6101    2             CALL DFQ$WRITE_FD (S_D.CURRENT_FPRG_CONTEXT$) ALTRET(ERRMSG);
       93     6102    2             CALL DFQ$READ_FD (S_D.CURRENT_FPRG_CONTEXT$, '0'B) ALTRET(ERRMSG);
       94     6103    3             DO CASE(GD$MSG.FNC);
       95     6104    3               CASE(%GD#RSPDISPLCT);
       96     6105    3                  CALL DUMP_IT;
       97     6106    3               CASE(%GD#RSPBADMLCCALL);
       98     6107    3                  IF FIRST
       99     6108    4                  THEN DO;
      100     6109    4                       IF GD$MSG.LCTMSG.FLAGS.BLN
      101     6110    4                       THEN S_D.ERROR = 83; /* E@BADADDR */
      102     6111    4                       ELSE S_D.ERROR = 336; /* E@LINEDEAD */
      103     6112    4                       GOTO ARET;
      104     6113    4                     END;
      105     6114    3                  GOTO RET;
      106     6115    3               CASE(%GD#RSPBADMSG);
PL6.E3A0      #001=DFA$DLCT File=DFA$DLCT.:E05TSI                                TUE 07/29/97 14:29 Page:4
      107     6116    3                  S_D.ERROR = 330;    /* E@BADMSG */
      108     6117    3                  GOTO ARET;
      109     6118    3               CASE(%GD#RSPNAK);
      110     6119    3                  IF S_D.CURRENT_FPRG_CONTEXT$ -> FPRG$CONTEXT.XDELTA
      111     6120    4                  THEN DO;
      112     6121    4                       TEMP1 = BITBIN(GD$MSG.ERROR_D.ERRCODE);
      113     6122    4                       TEMP2B.B1 = TEMP1B.B1;
      114     6123    4                       TEMP2B.B2 = TEMP1B.B2;
      115     6124    4                       TEMP2B.B3 = TEMP1B.B3;
      116     6125    4                       TEMP2B.B4 = TEMP1B.B4;
      117     6126    4                       S_D.JDE = TEMP2;
      118     6127    4                     END;
      119     6128    3                  ELSE S_D.JDE = BITBIN(GD$MSG_HOST.ERROR_D.ERRCODE);
      120     6129    3                  CALL DUE$GERRMSG;
      121     6130    3                  RETURN;
      122     6131    3               CASE(ELSE);
      123     6132    3                  REMEMBER NEVER IN S_D.SCREECH_IC;
      124     6133    3                  CALL M$SCREECH (SNAP_MESSAGE) ALTRET(NEVER);
      125     6134    3   NEVER:
      126     6135    3                  S_D.ERROR = 524; /* E@BADMESSAGE */
      127     6136    3                  CALL DDE$ERROR;
      128     6137    3                  S_D.ERROR = 502;    /* E@DELBUG */
      129     6138    3                  CALL DDE$ERROR;
      130     6139    3               END;
      131     6140    2             FIRST = '0'B;
      132     6141    2           END;
      133     6142    1   RET: RETURN;
      134     6143
      135     6144    1   ARET: ALTRETURN;
      136     6145
      137     6146    1   ERRMSG:
      138     6147    1        CALL DUE$ERRMSG;
      139     6148    1        RETURN;
      140     6149        %EJECT;
PL6.E3A0      #001=DFA$DLCT File=DFA$DLCT.:E05TSI                                TUE 07/29/97 14:29 Page:5
      141     6150    1   DUMP_IT: PROC;
      142     6151
      143     6152    2        S_D.OUTPUT = ' ';
      144     6153    2        CALL DDR$BINTXT (ADDR(CHAR_HOLD), I, %X_FMT, SIZE);
      145     6154    2        S_D.D$ = PINCRC(OUTPUT$, 9-SIZE);
      146     6155    2        S_D.D$ -> CHAR9 = CHAR_HOLD;
      147     6156    3        DO J = 0 TO 7;
      148     6157    3             SAVE_DATA.VAL.L(J) = GD$MSG.LCTMSG.LCTMEM(J*2);
      149     6158    3             SAVE_DATA.VAL.R(J) = GD$MSG.LCTMSG.LCTMEM((J*2)+1);
      150     6159    3           END;
      151     6160    2        S_D.D$ = PINCRC(S_D.D$,SIZE);
      152     6161    2        S_D.D$ -> CHAR2 = '  ';
      153     6162    2        S_D.D$ = PINCRC(S_D.D$, 2);
      154     6163    3        DO J = 0 TO 7;
      155     6164    3             CALL HEX_9_OUT(SAVE_DATA(J));
      156     6165    3           END;
      157     6166    2        CALL DDQ$WRITED(OUTPUT$, POFFC(S_D.D$, OUTPUT$));
      158     6167    2        RETURN;
      159     6168    2   END DUMP_IT;
      160     6169        %EJECT;
PL6.E3A0      #001=DFA$DLCT File=DFA$DLCT.:E05TSI                                TUE 07/29/97 14:29 Page:6
      161     6170    1   HEX_9_OUT: PROC(VAL);
      162     6171        /* Convert the right 16 bits of a 36-bit ubin into 4 hex digits where
      163     6172           S_D.D$ points.  */
      164     6173
      165     6174    2   DCL VAL UBIN;
      166     6175    2   DCL 1 XVAL REDEF VAL,
      167     6176    2         2 * BIT(20) UNAL,
      168     6177    2         2 H ( 0:3 ) UBIN (4) UNAL;
      169     6178    2   DCL K UBIN;
      170     6179    2   DCL HEXCHARS(0:15) CHAR(1) CONSTANT INIT(
      171     6180    2        '0','1','2','3','4','5','6','7','8','9','A','B','C','D','E','F');
      172     6181    2   DCL CHAR1 CHAR(1) BASED;
      173     6182
      174     6183    3        DO K = 0 TO 3;
      175     6184    3             S_D.D$ -> CHAR1 = HEXCHARS(XVAL.H(K));
      176     6185    3             S_D.D$ = PINCRC(S_D.D$, 1);
      177     6186    3           END;
      178     6187    2        S_D.D$ -> CHAR1 = ' ';
      179     6188    2        S_D.D$ = PINCRC(S_D.D$, 1);
      180     6189    2        RETURN;
      181     6190    2   END HEX_9_OUT;
      182     6191    1   END DFA$DLCT;
      183     6192        %EOD;

PL6.E3A0      #001=DFA$DLCT File=DFA$DLCT.:E05TSI                                TUE 07/29/97 14:29 Page:7
--  Include file information  --

   DD$BASED.:E05TOU  is referenced.
   DD_SRTN_C.:E05TOU  is referenced.
   DD_ACODE_C.:E05TOU  is referenced.
   DD_ICODE_C.:E05TOU  is referenced.
   DD$DITEM.:E05TOU  cannot be made into a system file and is referenced.
   GD_EQUS_E.:E05TOU  is referenced.
   GD$MSG_M.:E05TOU  is referenced.
   DD_ERR_C.:E05TOU  is referenced.
   DD_SD_M.:E05TOU  is referenced.
   XUH_MACRO_C.:E05TOU  is referenced.
   DU_SCODE_C.:E05TOU  is referenced.
   CP_6.:E05TOU  cannot be made into a system file and is referenced.
   B$JIT_C.:E05TOU  was found in the system file and is never referenced.
   CP_6_C.:E05TOU  was found in the system file and is referenced.
      No diagnostics issued in procedure DFA$DLCT.

   Procedure DFA$DLCT requires 292 words for executable code.
   Procedure DFA$DLCT requires 38 words of local(AUTO) storage.

PL6.E3A0      #001=DFA$DLCT File=DFA$DLCT.:E05TSI                                TUE 07/29/97 14:29 Page:8

 Object Unit name= DFA$DLCT                                   File name= DFA$DLCT.:E05TOU
 UTS= JUL 29 '97 14:29:15.48 TUE                              Compiler= PL-6/E31         Sev=      00
 SharedLib= :SHARED_SYSTEM                                    Alt SharedLib=


    ****  Control sections  ****

 Sect   Type Bound  Init  Size OctSiz  Section name(segment info)
    0   DCB   even  none     0      0  M$UC
    1  RoData even  UTS      5      5  DFA$DLCT
    2   Proc  even  none   292    444  DFA$DLCT
    3  RoData even  none     7      7  DFA$DLCT

    ****  Entry defs  ****

                              Check   Calling
                             calling  sequence
  Sect OctLoc Primary Altret sequence   type   Parms  Name
     2      0   yes    yes     yes      Std        0  DFA$DLCT

  ****  Entry refs  ****

         Check        Calling
        calling       sequence
Altret sequence SRef   type   Args  Name
 yes     yes           Std       1 DFQ$WRITE_FD
 yes     yes           Std       2 DFQ$READ_FD
         yes           Std       0 DUE$GERRMSG
         yes           Std       0 DUE$ERRMSG
         yes           Std       0 DDE$ERROR
         yes           Std       4 DDR$BINTXT
         yes           Std       2 DDQ$WRITED
                       nStd      0 X66_AUTO_0
                       Std       0 B_CONSPOOL_D
                       nStd      0 X66_ARET
                       nStd      0 X66_AALT
PL6.E3A0      #001=DFA$DLCT File=DFA$DLCT.:E05TSI                                TUE 07/29/97 14:29 Page:9

  ****  Data refs  ****

  Flags:  r = read only, s = secondary
Flgs Name                             Flgs Name                             Flgs Name
     M$UC                             r    SNAP_MESSAGE                     r    S_D$
r    S_D_HOST_MESSAGE$                r    S_D_L6_MESSAGE$                       D_M$DO#
     B_VECTNIL

  ****  Segment refs  ****

  Flags:  r = read only, s = secondary
Flgs Name                             Flgs Name                             Flgs Name
     ISSID
PL6.E3A0      #001=DFA$DLCT File=DFA$DLCT.:E05TSI                                TUE 07/29/97 14:29 Page:10


        1        1        /*M* DFA$DLCT  - LCT DO ROUTINES */
        2        2        /*T***********************************************************/
        3        3        /*T*                                                         */
        4        4        /*T* Copyright (c) Bull HN Information Systems Inc., 1997    */
        5        5        /*T*                                                         */
        6        6        /*T***********************************************************/
        7        7        /*X* CCC,DMR,PLM=5,IND=5,CSU=3,EXM=0,ECU=3,MOC,DCI=5,CRT=5 */
        8        8        %SET LISTSUB='1'B;
        9        9        /*P* NAME: DFA$DLCT
       10       10             PURPOSE:  To provide the DISPLAY LCTs command
       11       11        */
       12       12        /*D* NAME: DFA$DLCT
       13       13             DESCRIPTION: This routine is called by DDA$DO to perform the DLCT
       14       14                  directive.
       15       15        */
       16       16        DFA$DLCT:PROC ALTRET;

     16  2 000000   000000 700200 xent  DFA$DLCT     TSX0  ! X66_AUTO_0
         2 000001   000046 000000                    ZERO    38,0

       17       17
       18       18        /* Local auto */
       19       19    1   DCL I UBIN;
       20       20    1   DCL J UBIN;
       21       21    1   DCL SIZE UBIN;
       22       22    1   DCL CHAR_HOLD CHAR(12);
       23       23    1   DCL CHAR9 CHAR(9) BASED;
       24       24    1   DCL CHAR5 CHAR(5) BASED;
       25       25    1   DCL CHAR2 CHAR(2) BASED;
       26       26    1   DCL OUTPUT$ PTR;
       27       27    1   DCL 1 SAVE_DATA(0:7),
       28       28    1         2 * BIT(20) UNAL,
       29       29    1         2 VAL,
       30       30    1           3 L UBIN(8) UNAL,
       31       31    1           3 R UBIN(8) UNAL;
       32       32    1   DCL FIRST BIT(1) ALIGNED;
PL6.E3A0      #001=DFA$DLCT File=DFA$DLCT.:E05TSI                                TUE 07/29/97 14:29 Page:11
       33       33    1   DCL TEMP$ PTR;
       34       34    1   DCL TEMP1 REDEF TEMP$ UBIN(36) ALIGNED;
       35       35    1   DCL 1 TEMP1B REDEF TEMP$ ALIGNED,
       36       36    1         2 * UBIN(4) UNAL,
       37       37    1         2 B1 UBIN(8) UNAL,
       38       38    1         2 B2 UBIN(8) UNAL,
       39       39    1         2 B3 UBIN(8) UNAL,
       40       40    1         2 B4 UBIN(8) UNAL;
       41       41    1   DCL TEMP2 UBIN(36) ALIGNED;
       42       42    1   DCL 1 TEMP2B REDEF TEMP2 ALIGNED,
       43       43    1         2 * BIT(1) UNAL,
       44       44    1         2 B1 UBIN(8) UNAL,
       45       45    1         2 * BIT(1) UNAL,
       46       46    1         2 B2 UBIN(8) UNAL,
       47       47    1         2 * BIT(1) UNAL,
       48       48    1         2 B3 UBIN(8) UNAL,
       49       49    1         2 * BIT(1) UNAL,
       50       50    1         2 B4 UBIN(8) UNAL;
       51       51        /* Includes and based structures */
       52       52        %INCLUDE CP_6;
       53      133        %INCLUDE DU_SCODE_C;
       54      146        %FPT_SCREECH(FPTN=SNAP_MESSAGE,STCLASS=SYMREF READONLY);
       55      160        %VLP_SCODE(FPTN=SC_MESSAGE, STCLASS=SYMREF READONLY);
       56      221        %INCLUDE XUH_MACRO_C;
       57      305        %INCLUDE DD_SD_M;
       58     1641        %S_D;
       59     2959        %S_D_PTRS;
       60     2996        %INCLUDE DD_ERR_C;
       61     3393        %INCLUDE GD$MSG_M;
       62     3557        %GD$MSG(FPTN=GD$MSG,STCLASS="BASED(S_D_L6_MESSAGE$)",L6=YES,L6PTR="UBIN(32) UNAL");
       63     3713        %GD$MSG(FPTN=GD$MSG_HOST,STCLASS="BASED(S_D_HOST_MESSAGE$)",L6=NO);
       64     3869        %INCLUDE GD_EQUS_E;
       65     4030        %INCLUDE DD$DITEM;
       12+    4133             %LIST;
       13+    4134    1        DCL SDD$ PTR;
       14+    4135    1        DCL ZITEM$ PTR;
       15+    4136    1        DCL SDD_L6$ PTR;
PL6.E3A0      #001=DFA$DLCT File=DFA$DLCT.:E05TSI                                TUE 07/29/97 14:29 Page:12
       16+    4137    1        DCL ZITEM_L6$ PTR;
       66     4711        %INCLUDE DD$BASED;
       67     6014        %FPRG$CONTEXT;
       68     6077    1   DCL D_M$DO# UBIN SYMREF;
       69     6078        /* Entry dcls */
       70     6079    1   DCL DDE$ERROR ENTRY;
       71     6080    1   DCL DDQ$WRITED ENTRY(2);
       72     6081    1   DCL DDR$BINTXT    ENTRY(4);
       73     6082    1   DCL DFQ$READ_FD ENTRY(2) ALTRET;
       74     6083    1   DCL DFQ$WRITE_FD ENTRY(1) ALTRET;
       75     6084    1   DCL DUE$ERRMSG ENTRY;
       76     6085    1   DCL DUE$GERRMSG ENTRY;
       77     6086        /**/
       78     6087    1        S_D.DUMPDCB = D_M$DO#;

   6087  2 000002   000000 470400 xsym               LDP0    S_D$
         2 000003   000000 235000 xsym               LDA     D_M$DO#
         2 000004   005135 755100                    STA     2653,,PR0

       79     6088    1        OUTPUT$ = ADDR(S_D.OUTPUT);

   6088  2 000005   000000 236000 xsym               LDQ     S_D$
         2 000006   005335 036003                    ADLQ    2781,DU
         2 000007   200011 756100                    STQ     OUTPUT$,,AUTO

       80     6089    1        FIRST = '1'B;

   6089  2 000010   400000 236003                    LDQ     -131072,DU
         2 000011   200022 756100                    STQ     FIRST,,AUTO

       81     6090    2        DO I = 0 TO 255 BY 16;

   6090  2 000012   200003 450100                    STZ     I,,AUTO

       82     6091    2             GD$MSG = '0'B;

   6091  2 000013   000000 470400 xsym               LDP0    S_D_L6_MESSAGE$
PL6.E3A0      #001=DFA$DLCT File=DFA$DLCT.:E05TSI                                TUE 07/29/97 14:29 Page:13
         2 000014   003100 060400                    CSL     bolr='003'O
         2 000015   000002 000001 xsym               BDSC    B_VECTNIL+2              by=0,bit=0,n=1
         2 000016   000000 004720                    BDSC    0,,PR0                   by=0,bit=0,n=2512

       83     6092    2             GD$MSG.FNC = %GD#RQSDISPLCT;

   6092  2 000017   000000 236100                    LDQ     0,,PR0
         2 000020   000000 376000 3                  ANQ     0
         2 000021   030000 276003                    ORQ     12288,DU
         2 000022   000000 756100                    STQ     0,,PR0

       84     6093    2             GD$MSG.LCTMSG.FLAGS.DUMP = '1'B;

   6093  2 000023   000400 236007                    LDQ     256,DL
         2 000024   000001 256100                    ORSQ    1,,PR0

       85     6094    2             IF S_D.CURRENT_CHANNEL = 0

   6094  2 000025   000000 471400 xsym               LDP1    S_D$
         2 000026   105321 235100                    LDA     2769,,PR1
         2 000027   000033 601000 2                  TNZ     s:6099

       86     6095    3             THEN DO;

       87     6096    3                  S_D.ERROR = 339;

   6096  2 000030   000523 235007                    LDA     339,DL
         2 000031   100013 755100                    STA     11,,PR1

       88     6097    3                  GOTO ARET;

   6097  2 000032   000245 710000 2                  TRA     ARET

       89     6098    3                END;
       90     6099    2             GD$MSG.LCTMSG.CHANNEL = S_D.CURRENT_CHANNEL_R.CHAN;

   6099  2 000033   105321 236100                    LDQ     2769,,PR1
PL6.E3A0      #001=DFA$DLCT File=DFA$DLCT.:E05TSI                                TUE 07/29/97 14:29 Page:14
         2 000034   000004 736000                    QLS     4
         2 000035   000000 676100                    ERQ     0,,PR0
         2 000036   000001 376000 3                  ANQ     1
         2 000037   000000 656100                    ERSQ    0,,PR0

       91     6100    2             GD$MSG.LCTMSG.LCTNUM = I;

   6100  2 000040   200003 236100                    LDQ     I,,AUTO
         2 000041   000020 736000                    QLS     16
         2 000042   000001 676100                    ERQ     1,,PR0
         2 000043   000002 376000 3                  ANQ     2
         2 000044   000001 656100                    ERSQ    1,,PR0

       92     6101    2             CALL DFQ$WRITE_FD (S_D.CURRENT_FPRG_CONTEXT$) ALTRET(ERRMSG);

   6101  2 000045   000000 236000 xsym               LDQ     S_D$
         2 000046   000102 036003                    ADLQ    66,DU
         2 000047   200040 756100                    STQ     K+2,,AUTO
         2 000050   200040 630500                    EPPR0   K+2,,AUTO
         2 000051   000017 631400 xsym               EPPR1   B_VECTNIL+15
         2 000052   000000 701000 xent               TSX1    DFQ$WRITE_FD
         2 000053   000246 702000 2                  TSX2    ERRMSG

       93     6102    2             CALL DFQ$READ_FD (S_D.CURRENT_FPRG_CONTEXT$, '0'B) ALTRET(ERRMSG);

   6102  2 000054   000003 236000 3                  LDQ     3
         2 000055   200041 756100                    STQ     K+3,,AUTO
         2 000056   000000 236000 xsym               LDQ     S_D$
         2 000057   000102 036003                    ADLQ    66,DU
         2 000060   200040 756100                    STQ     K+2,,AUTO
         2 000061   200040 630500                    EPPR0   K+2,,AUTO
         2 000062   000020 631400 xsym               EPPR1   B_VECTNIL+16
         2 000063   000000 701000 xent               TSX1    DFQ$READ_FD
         2 000064   000246 702000 2                  TSX2    ERRMSG

       94     6103    3             DO CASE(GD$MSG.FNC);

PL6.E3A0      #001=DFA$DLCT File=DFA$DLCT.:E05TSI                                TUE 07/29/97 14:29 Page:15
   6103  2 000065   000000 470400 xsym               LDP0    S_D_L6_MESSAGE$
         2 000066   000000 236100                    LDQ     0,,PR0
         2 000067   000034 772000                    QRL     28
         2 000070   000046 136007                    SBLQ    38,DL
         2 000071   000020 116007                    CMPQ    16,DL
         2 000072   000074 602006 2                  TNC     s:6103+7,QL
         2 000073   000212 710000 2                  TRA     s:6132
         2 000074   000114 710000 2                  TRA     s:6105
         2 000075   000212 710000 2                  TRA     s:6132
         2 000076   000212 710000 2                  TRA     s:6132
         2 000077   000212 710000 2                  TRA     s:6132
         2 000100   000212 710000 2                  TRA     s:6132
         2 000101   000212 710000 2                  TRA     s:6132
         2 000102   000212 710000 2                  TRA     s:6132
         2 000103   000212 710000 2                  TRA     s:6132
         2 000104   000212 710000 2                  TRA     s:6132
         2 000105   000212 710000 2                  TRA     s:6132
         2 000106   000135 710000 2                  TRA     s:6116
         2 000107   000212 710000 2                  TRA     s:6132
         2 000110   000212 710000 2                  TRA     s:6132
         2 000111   000212 710000 2                  TRA     s:6132
         2 000112   000141 710000 2                  TRA     s:6119
         2 000113   000117 710000 2                  TRA     s:6107

       95     6104    3               CASE(%GD#RSPDISPLCT);

       96     6105    3                  CALL DUMP_IT;

   6105  2 000114   000252 701000 2                  TSX1    DUMP_IT
         2 000115   000000 011000                    NOP     0
         2 000116   000236 710000 2                  TRA     s:6140

       97     6106    3               CASE(%GD#RSPBADMLCCALL);

       98     6107    3                  IF FIRST

   6107  2 000117   200022 234100                    SZN     FIRST,,AUTO
PL6.E3A0      #001=DFA$DLCT File=DFA$DLCT.:E05TSI                                TUE 07/29/97 14:29 Page:16
         2 000120   000134 605000 2                  TPL     s:6114

       99     6108    4                  THEN DO;

      100     6109    4                       IF GD$MSG.LCTMSG.FLAGS.BLN

   6109  2 000121   000001 236100                    LDQ     1,,PR0
         2 000122   020000 316007                    CANQ    8192,DL
         2 000123   000130 600000 2                  TZE     s:6111

      101     6110    4                       THEN S_D.ERROR = 83; /* E@BADADDR */

   6110  2 000124   000123 235007                    LDA     83,DL
         2 000125   000000 471400 xsym               LDP1    S_D$
         2 000126   100013 755100                    STA     11,,PR1
         2 000127   000133 710000 2                  TRA     s:6112

      102     6111    4                       ELSE S_D.ERROR = 336; /* E@LINEDEAD */

   6111  2 000130   000520 235007                    LDA     336,DL
         2 000131   000000 471400 xsym               LDP1    S_D$
         2 000132   100013 755100                    STA     11,,PR1

      103     6112    4                       GOTO ARET;

   6112  2 000133   000245 710000 2                  TRA     ARET

      104     6113    4                     END;
      105     6114    3                  GOTO RET;

   6114  2 000134   000244 710000 2                  TRA     RET

      106     6115    3               CASE(%GD#RSPBADMSG);

      107     6116    3                  S_D.ERROR = 330;    /* E@BADMSG */

   6116  2 000135   000512 235007                    LDA     330,DL
PL6.E3A0      #001=DFA$DLCT File=DFA$DLCT.:E05TSI                                TUE 07/29/97 14:29 Page:17
         2 000136   000000 471400 xsym               LDP1    S_D$
         2 000137   100013 755100                    STA     11,,PR1

      108     6117    3                  GOTO ARET;

   6117  2 000140   000245 710000 2                  TRA     ARET

      109     6118    3               CASE(%GD#RSPNAK);

      110     6119    3                  IF S_D.CURRENT_FPRG_CONTEXT$ -> FPRG$CONTEXT.XDELTA

   6119  2 000141   000000 471400 xsym               LDP1    S_D$
         2 000142   100102 473500                    LDP3    66,,PR1
         2 000143   300001 236100                    LDQ     1,,PR3
         2 000144   002000 316003                    CANQ    1024,DU
         2 000145   000201 600000 2                  TZE     s:6128

      111     6120    4                  THEN DO;

      112     6121    4                       TEMP1 = BITBIN(GD$MSG.ERROR_D.ERRCODE);

   6121  2 000146   000000 235100                    LDA     0,,PR0
         2 000147   000001 236100                    LDQ     1,,PR0
         2 000150   000030 773000                    LRL     24
         2 000151   000004 376000 3                  ANQ     4
         2 000152   200023 756100                    STQ     TEMP$,,AUTO

      113     6122    4                       TEMP2B.B1 = TEMP1B.B1;

   6122  2 000153   200023 236100                    LDQ     TEMP$,,AUTO
         2 000154   000003 736000                    QLS     3
         2 000155   200024 676100                    ERQ     TEMP2,,AUTO
         2 000156   377000 376003                    ANQ     130560,DU
         2 000157   200024 656100                    ERSQ    TEMP2,,AUTO

      114     6123    4                       TEMP2B.B2 = TEMP1B.B2;

PL6.E3A0      #001=DFA$DLCT File=DFA$DLCT.:E05TSI                                TUE 07/29/97 14:29 Page:18
   6123  2 000160   200023 236100                    LDQ     TEMP$,,AUTO
         2 000161   000002 736000                    QLS     2
         2 000162   200024 676100                    ERQ     TEMP2,,AUTO
         2 000163   000377 376003                    ANQ     255,DU
         2 000164   200024 656100                    ERSQ    TEMP2,,AUTO

      115     6124    4                       TEMP2B.B3 = TEMP1B.B3;

   6124  2 000165   200023 236100                    LDQ     TEMP$,,AUTO
         2 000166   000001 736000                    QLS     1
         2 000167   200024 676100                    ERQ     TEMP2,,AUTO
         2 000170   377000 376007                    ANQ     130560,DL
         2 000171   200024 656100                    ERSQ    TEMP2,,AUTO

      116     6125    4                       TEMP2B.B4 = TEMP1B.B4;

   6125  2 000172   200023 236100                    LDQ     TEMP$,,AUTO
         2 000173   200024 676100                    ERQ     TEMP2,,AUTO
         2 000174   000377 376007                    ANQ     255,DL
         2 000175   200024 656100                    ERSQ    TEMP2,,AUTO

      117     6126    4                       S_D.JDE = TEMP2;

   6126  2 000176   200024 235100                    LDA     TEMP2,,AUTO
         2 000177   104733 755100                    STA     2523,,PR1

      118     6127    4                     END;

   6127  2 000200   000206 710000 2                  TRA     s:6129

      119     6128    3                  ELSE S_D.JDE = BITBIN(GD$MSG_HOST.ERROR_D.ERRCODE);

   6128  2 000201   000000 474400 xsym               LDP4    S_D_HOST_MESSAGE$
         2 000202   400000 235100                    LDA     0,,PR4
         2 000203   400001 236100                    LDQ     1,,PR4
         2 000204   000022 773000                    LRL     18
         2 000205   104733 756100                    STQ     2523,,PR1
PL6.E3A0      #001=DFA$DLCT File=DFA$DLCT.:E05TSI                                TUE 07/29/97 14:29 Page:19

      120     6129    3                  CALL DUE$GERRMSG;

   6129  2 000206   000002 631400 xsym               EPPR1   B_VECTNIL+2
         2 000207   000000 701000 xent               TSX1    DUE$GERRMSG
         2 000210   000000 011000                    NOP     0

      121     6130    3                  RETURN;

   6130  2 000211   000000 702200 xent               TSX2  ! X66_ARET

      122     6131    3               CASE(ELSE);

      123     6132    3                  REMEMBER NEVER IN S_D.SCREECH_IC;

   6132  2 000212   000222 635000 2                  EAA     NEVER
         2 000213   000000 471400 xsym               LDP1    S_D$
         2 000214   105250 452500                    STP2    2728,,PR1
         2 000215   105251 755100                    STA     2729,,PR1

      124     6133    3                  CALL M$SCREECH (SNAP_MESSAGE) ALTRET(NEVER);

   6133  2 000216   000000 630400 xsym               EPPR0   SNAP_MESSAGE
         2 000217   400013 713400                    CLIMB   alt,+11
         2 000220   401000 401760                    pmme    nvectors=3
         2 000221   000222 702000 2                  TSX2    NEVER

      125     6134    3   NEVER:
      126     6135    3                  S_D.ERROR = 524; /* E@BADMESSAGE */

   6135  2 000222   001014 235007       NEVER        LDA     524,DL
         2 000223   000000 470400 xsym               LDP0    S_D$
         2 000224   000013 755100                    STA     11,,PR0

      127     6136    3                  CALL DDE$ERROR;

   6136  2 000225   000002 631400 xsym               EPPR1   B_VECTNIL+2
PL6.E3A0      #001=DFA$DLCT File=DFA$DLCT.:E05TSI                                TUE 07/29/97 14:29 Page:20
         2 000226   000000 701000 xent               TSX1    DDE$ERROR
         2 000227   000000 011000                    NOP     0

      128     6137    3                  S_D.ERROR = 502;    /* E@DELBUG */

   6137  2 000230   000766 235007                    LDA     502,DL
         2 000231   000000 470400 xsym               LDP0    S_D$
         2 000232   000013 755100                    STA     11,,PR0

      129     6138    3                  CALL DDE$ERROR;

   6138  2 000233   000002 631400 xsym               EPPR1   B_VECTNIL+2
         2 000234   000000 701000 xent               TSX1    DDE$ERROR
         2 000235   000000 011000                    NOP     0

      130     6139    3               END;

      131     6140    2             FIRST = '0'B;

   6140  2 000236   200022 450100                    STZ     FIRST,,AUTO

      132     6141    2           END;

   6141  2 000237   200003 235100                    LDA     I,,AUTO
         2 000240   000020 035007                    ADLA    16,DL
         2 000241   200003 755100                    STA     I,,AUTO
         2 000242   000400 115007                    CMPA    256,DL
         2 000243   000013 602000 2                  TNC     s:6091

      133     6142    1   RET: RETURN;

   6142  2 000244   000000 702200 xent  RET          TSX2  ! X66_ARET

      134     6143
      135     6144    1   ARET: ALTRETURN;

   6144  2 000245   000000 702200 xent  ARET         TSX2  ! X66_AALT
PL6.E3A0      #001=DFA$DLCT File=DFA$DLCT.:E05TSI                                TUE 07/29/97 14:29 Page:21

      136     6145
      137     6146    1   ERRMSG:
      138     6147    1        CALL DUE$ERRMSG;

   6147  2 000246   000002 631400 xsym  ERRMSG       EPPR1   B_VECTNIL+2
         2 000247   000000 701000 xent               TSX1    DUE$ERRMSG
         2 000250   000000 011000                    NOP     0

      139     6148    1        RETURN;

   6148  2 000251   000000 702200 xent               TSX2  ! X66_ARET

      140     6149        %EJECT;
PL6.E3A0      #001=DFA$DLCT File=DFA$DLCT.:E05TSI                                TUE 07/29/97 14:29 Page:22
      141     6150    1   DUMP_IT: PROC;

   6150  2 000252   200032 741300       DUMP_IT      STX1  ! TEMP2+6,,AUTO

      142     6151
      143     6152    2        S_D.OUTPUT = ' ';

   6152  2 000253   000000 470400 xsym               LDP0    S_D$
         2 000254   040100 100400                    MLR     fill='040'O
         2 000255   000035 000001 xsym               ADSC9   B_VECTNIL+29             cn=0,n=1
         2 000256   005335 004000                    ADSC9   2781,,PR0                cn=0,n=2048

      144     6153    2        CALL DDR$BINTXT (ADDR(CHAR_HOLD), I, %X_FMT, SIZE);

   6153  2 000257   200006 631500                    EPPR1   CHAR_HOLD,,AUTO
         2 000260   200040 451500                    STP1    K+2,,AUTO
         2 000261   200005 633500                    EPPR3   SIZE,,AUTO
         2 000262   200045 453500                    STP3    K+7,,AUTO
         2 000263   000006 236000 3                  LDQ     6
         2 000264   200044 756100                    STQ     K+6,,AUTO
         2 000265   200003 634500                    EPPR4   I,,AUTO
         2 000266   200043 454500                    STP4    K+5,,AUTO
         2 000267   200040 635500                    EPPR5   K+2,,AUTO
         2 000270   200042 455500                    STP5    K+4,,AUTO
         2 000271   200042 630500                    EPPR0   K+4,,AUTO
         2 000272   000022 631400 xsym               EPPR1   B_VECTNIL+18
         2 000273   000000 701000 xent               TSX1    DDR$BINTXT
         2 000274   000000 011000                    NOP     0

      145     6154    2        S_D.D$ = PINCRC(OUTPUT$, 9-SIZE);

   6154  2 000275   000011 236007                    LDQ     9,DL
         2 000276   200005 136100                    SBLQ    SIZE,,AUTO
         2 000277   000020 736000                    QLS     16
         2 000300   200011 036100                    ADLQ    OUTPUT$,,AUTO
         2 000301   000000 470400 xsym               LDP0    S_D$
         2 000302   000044 756100                    STQ     36,,PR0
PL6.E3A0      #001=DFA$DLCT File=DFA$DLCT.:E05TSI                                TUE 07/29/97 14:29 Page:23

      146     6155    2        S_D.D$ -> CHAR9 = CHAR_HOLD;

   6155  2 000303   000044 471500                    LDP1    36,,PR0
         2 000304   040100 100500                    MLR     fill='040'O
         2 000305   200006 000011                    ADSC9   CHAR_HOLD,,AUTO          cn=0,n=9
         2 000306   100000 000011                    ADSC9   0,,PR1                   cn=0,n=9

      147     6156    3        DO J = 0 TO 7;

   6156  2 000307   200004 450100                    STZ     J,,AUTO

      148     6157    3             SAVE_DATA.VAL.L(J) = GD$MSG.LCTMSG.LCTMEM(J*2);

   6157  2 000310   200004 235100                    LDA     J,,AUTO
         2 000311   000004 735000                    ALS     4
         2 000312   200004 236100                    LDQ     J,,AUTO
         2 000313   200040 755100                    STA     K+2,,AUTO
         2 000314   000044 402007                    MPY     36,DL
         2 000315   000000 470400 xsym               LDP0    S_D_L6_MESSAGE$
         2 000316   200040 235100                    LDA     K+2,,AUTO
         2 000317   003106 060505                    CSL     bolr='003'O
         2 000320   000001 610010                    BDSC    1,A,PR0                  by=3,bit=1,n=8
         2 000321   200012 420010                    BDSC    SAVE_DATA,Q,AUTO         by=2,bit=2,n=8

      149     6158    3             SAVE_DATA.VAL.R(J) = GD$MSG.LCTMSG.LCTMEM((J*2)+1);

   6158  2 000322   200004 235100                    LDA     J,,AUTO
         2 000323   000004 735000                    ALS     4
         2 000324   003106 060505                    CSL     bolr='003'O
         2 000325   000002 000010                    BDSC    2,A,PR0                  by=0,bit=0,n=8
         2 000326   200012 610010                    BDSC    SAVE_DATA,Q,AUTO         by=3,bit=1,n=8

      150     6159    3           END;

   6159  2 000327   200004 235100                    LDA     J,,AUTO
         2 000330   000001 035007                    ADLA    1,DL
PL6.E3A0      #001=DFA$DLCT File=DFA$DLCT.:E05TSI                                TUE 07/29/97 14:29 Page:24
         2 000331   200004 755100                    STA     J,,AUTO
         2 000332   000010 115007                    CMPA    8,DL
         2 000333   000310 602000 2                  TNC     s:6157

      151     6160    2        S_D.D$ = PINCRC(S_D.D$,SIZE);

   6160  2 000334   000000 471400 xsym               LDP1    S_D$
         2 000335   100044 473500                    LDP3    36,,PR1
         2 000336   200005 236100                    LDQ     SIZE,,AUTO
         2 000337   000011 402007                    MPY     9,DL
         2 000340   300000 503506                    ABD     0,QL,PR3
         2 000341   100044 453500                    STP3    36,,PR1

      152     6161    2        S_D.D$ -> CHAR2 = '  ';

   6161  2 000342   040100 100400                    MLR     fill='040'O
         2 000343   000004 000002 1                  ADSC9   HEXCHARS+4               cn=0,n=2
         2 000344   300000 000002                    ADSC9   0,,PR3                   cn=0,n=2

      153     6162    2        S_D.D$ = PINCRC(S_D.D$, 2);

   6162  2 000345   100044 236100                    LDQ     36,,PR1
         2 000346   400000 036007                    ADLQ    -131072,DL
         2 000347   100044 756100                    STQ     36,,PR1

      154     6163    3        DO J = 0 TO 7;

   6163  2 000350   200004 450100                    STZ     J,,AUTO

      155     6164    3             CALL HEX_9_OUT(SAVE_DATA(J));

   6164  2 000351   200004 720100                    LXL0    J,,AUTO
         2 000352   200012 630510                    EPPR0   SAVE_DATA,X0,AUTO
         2 000353   200035 450500                    STP0    TEMP2+9,,AUTO
         2 000354   000405 701000 2                  TSX1    HEX_9_OUT
         2 000355   000000 011000                    NOP     0

PL6.E3A0      #001=DFA$DLCT File=DFA$DLCT.:E05TSI                                TUE 07/29/97 14:29 Page:25
      156     6165    3           END;

   6165  2 000356   200004 235100                    LDA     J,,AUTO
         2 000357   000001 035007                    ADLA    1,DL
         2 000360   200004 755100                    STA     J,,AUTO
         2 000361   000010 115007                    CMPA    8,DL
         2 000362   000351 602000 2                  TNC     s:6164

      157     6166    2        CALL DDQ$WRITED(OUTPUT$, POFFC(S_D.D$, OUTPUT$));

   6166  2 000363   200011 236100                    LDQ     OUTPUT$,,AUTO
         2 000364   000020 772000                    QRL     16
         2 000365   200040 756100                    STQ     K+2,,AUTO
         2 000366   000000 470400 xsym               LDP0    S_D$
         2 000367   000044 236100                    LDQ     36,,PR0
         2 000370   000020 772000                    QRL     16
         2 000371   200040 136100                    SBLQ    K+2,,AUTO
         2 000372   200041 756100                    STQ     K+3,,AUTO
         2 000373   200041 631500                    EPPR1   K+3,,AUTO
         2 000374   200043 451500                    STP1    K+5,,AUTO
         2 000375   200011 633500                    EPPR3   OUTPUT$,,AUTO
         2 000376   200042 453500                    STP3    K+4,,AUTO
         2 000377   200042 630500                    EPPR0   K+4,,AUTO
         2 000400   000020 631400 xsym               EPPR1   B_VECTNIL+16
         2 000401   000000 701000 xent               TSX1    DDQ$WRITED
         2 000402   000000 011000                    NOP     0

      158     6167    2        RETURN;

   6167  2 000403   200032 221300                    LDX1  ! TEMP2+6,,AUTO
         2 000404   000001 702211                    TSX2  ! 1,X1

      159     6168    2   END DUMP_IT;
      160     6169        %EJECT;
PL6.E3A0      #001=DFA$DLCT File=DFA$DLCT.:E05TSI                                TUE 07/29/97 14:29 Page:26
      161     6170    1   HEX_9_OUT: PROC(VAL);

   6170  2 000405   200034 741300       HEX_9_OUT    STX1  ! TEMP2+8,,AUTO

      162     6171        /* Convert the right 16 bits of a 36-bit ubin into 4 hex digits where
      163     6172           S_D.D$ points.  */
      164     6173
      165     6174    2   DCL VAL UBIN;
      166     6175    2   DCL 1 XVAL REDEF VAL,
      167     6176    2         2 * BIT(20) UNAL,
      168     6177    2         2 H ( 0:3 ) UBIN (4) UNAL;
      169     6178    2   DCL K UBIN;
      170     6179    2   DCL HEXCHARS(0:15) CHAR(1) CONSTANT INIT(
      171     6180    2        '0','1','2','3','4','5','6','7','8','9','A','B','C','D','E','F');
      172     6181    2   DCL CHAR1 CHAR(1) BASED;
      173     6182
      174     6183    3        DO K = 0 TO 3;

   6183  2 000406   200036 450100                    STZ     K,,AUTO

      175     6184    3             S_D.D$ -> CHAR1 = HEXCHARS(XVAL.H(K));

   6184  2 000407   000000 470400 xsym               LDP0    S_D$
         2 000410   000044 471500                    LDP1    36,,PR0
         2 000411   200036 235100                    LDA     K,,AUTO
         2 000412   000002 735000                    ALS     2
         2 000413   200035 473500                    LDP3    @VAL,,AUTO
         2 000414   003100 061505                    CSR     bolr='003'O
         2 000415   300000 420004                    BDSC    0,A,PR3                  by=2,bit=2,n=4
         2 000416   200040 000044                    BDSC    K+2,,AUTO                by=0,bit=0,n=36
         2 000417   200040 236100                    LDQ     K+2,,AUTO
         2 000420   040100 100406                    MLR     fill='040'O
         2 000421   000000 000001 1                  ADSC9   HEXCHARS,Q               cn=0,n=1
         2 000422   100000 000001                    ADSC9   0,,PR1                   cn=0,n=1

      176     6185    3             S_D.D$ = PINCRC(S_D.D$, 1);

PL6.E3A0      #001=DFA$DLCT File=DFA$DLCT.:E05TSI                                TUE 07/29/97 14:29 Page:27
   6185  2 000423   000044 236100                    LDQ     36,,PR0
         2 000424   200000 036007                    ADLQ    65536,DL
         2 000425   000044 756100                    STQ     36,,PR0

      177     6186    3           END;

   6186  2 000426   200036 235100                    LDA     K,,AUTO
         2 000427   000001 035007                    ADLA    1,DL
         2 000430   200036 755100                    STA     K,,AUTO
         2 000431   000004 115007                    CMPA    4,DL
         2 000432   000407 602000 2                  TNC     s:6184

      178     6187    2        S_D.D$ -> CHAR1 = ' ';

   6187  2 000433   000044 471500                    LDP1    36,,PR0
         2 000434   040100 100400                    MLR     fill='040'O
         2 000435   000035 000001 xsym               ADSC9   B_VECTNIL+29             cn=0,n=1
         2 000436   100000 000001                    ADSC9   0,,PR1                   cn=0,n=1

      179     6188    2        S_D.D$ = PINCRC(S_D.D$, 1);

   6188  2 000437   000044 236100                    LDQ     36,,PR0
         2 000440   200000 036007                    ADLQ    65536,DL
         2 000441   000044 756100                    STQ     36,,PR0

      180     6189    2        RETURN;

   6189  2 000442   200034 221300                    LDX1  ! TEMP2+8,,AUTO
         2 000443   000001 702211                    TSX2  ! 1,X1

HEXCHARS
 Sect OctLoc
   1     000   060061 062063   064065 066067   070071 101102   103104 105106    0123456789ABCDEF

(unnamed)
 Sect OctLoc
   1     004   040040 040040
PL6.E3A0      #001=DFA$DLCT File=DFA$DLCT.:E05TSI                                TUE 07/29/97 14:29 Page:28

(unnamed)
 Sect OctLoc
   3     000   001777 777777   000003 777760   000077 600000   000002 006000    .........?......
   3     004   037777 777777   000000 000015   000005 006000                    ............
      181     6190    2   END HEX_9_OUT;
      182     6191    1   END DFA$DLCT;
      183     6192        %EOD;

PL6.E3A0      #001=DFA$DLCT File=DFA$DLCT.:E05TSI                                TUE 07/29/97 14:29 Page:29
--  Include file information  --

   DD$BASED.:E05TOU  is referenced.
   DD_SRTN_C.:E05TOU  is referenced.
   DD_ACODE_C.:E05TOU  is referenced.
   DD_ICODE_C.:E05TOU  is referenced.
   DD$DITEM.:E05TOU  cannot be made into a system file and is referenced.
   GD_EQUS_E.:E05TOU  is referenced.
   GD$MSG_M.:E05TOU  is referenced.
   DD_ERR_C.:E05TOU  is referenced.
   DD_SD_M.:E05TOU  is referenced.
   XUH_MACRO_C.:E05TOU  is referenced.
   DU_SCODE_C.:E05TOU  is referenced.
   CP_6.:E05TOU  cannot be made into a system file and is referenced.
   B$JIT_C.:E05TOU  was found in the system file and is never referenced.
   CP_6_C.:E05TOU  was found in the system file and is referenced.
      No diagnostics issued in procedure DFA$DLCT.

   Procedure DFA$DLCT requires 292 words for executable code.
   Procedure DFA$DLCT requires 38 words of local(AUTO) storage.
PL6.E3A0      #001=DFA$DLCT File=DFA$DLCT.:E05TSI                                TUE 07/29/97 14:29 Page:30
          *** CROSS REFERENCE LISTING ***
**     DENOTES     IDENTIFIER DEFINITION
<<                 IDENTIFIER'S VALUE SET
>>                 IDENTIFIER'S VALUE USED
<>                 IDENTIFIER SET AND/OR USED
--                 IDENTIFIER REFERENCED
PL6.E3A0      #001=DFA$DLCT File=DFA$DLCT.:E05TSI                                TUE 07/29/97 14:29 Page:31
          MINI XREF LISTING

ARET
      6144**LABEL    6097--GOTO     6112--GOTO     6117--GOTO
CHAR1 IN PROCEDURE HEX_9_OUT
      6181**DCL      6184<<ASSIGN   6187<<ASSIGN
CHAR2
        25**DCL      6161<<ASSIGN
CHAR9
        23**DCL      6155<<ASSIGN
CHAR_HOLD
        22**DCL      6153--CALL     6155>>ASSIGN
DDE$ERROR
      6079**DCL-ENT  6136--CALL     6138--CALL
DDQ$WRITED
      6080**DCL-ENT  6166--CALL
DDR$BINTXT
      6081**DCL-ENT  6153--CALL
DFQ$READ_FD
      6082**DCL-ENT  6102--CALL
DFQ$WRITE_FD
      6083**DCL-ENT  6101--CALL
DUE$ERRMSG
      6084**DCL-ENT  6147--CALL
DUE$GERRMSG
      6085**DCL-ENT  6129--CALL
DUMP_IT
      6150**PROC     6105--CALL
D_M$DO#
      6077**DCL      6087>>ASSIGN
ERRMSG
      6147**LABEL    6101--CALLALT  6102--CALLALT
FIRST
        32**DCL      6089<<ASSIGN   6107>>IF       6140<<ASSIGN
PL6.E3A0      #001=DFA$DLCT File=DFA$DLCT.:E05TSI                                TUE 07/29/97 14:29 Page:32
FPRG$CONTEXT.XDELTA
      6028**DCL      6119>>IF
GD$MSG
      3574**DCL      6091<<ASSIGN
GD$MSG.BRKRQS.IF$CONST.SIZE
      3625**DCL      3625--REDEF
GD$MSG.BRKRQS.IF$CONST.TEXT
      3625**DCL      3626--REDEF    3626--REDEF    3627--REDEF    3628--REDEF
GD$MSG.BRKRSP.BRK#
      3639**DCL      3639--REDEF
GD$MSG.BRKRSP.USER#
      3639**DCL      3639--REDEF
GD$MSG.ERROR_D.ERRCODE
      3580**DCL      6121>>ASSIGN
GD$MSG.FNC
      3574**DCL      6092<<ASSIGN   6103>>DOCASE
GD$MSG.LCTMSG.CHANNEL
      3680**DCL      6099<<ASSIGN
GD$MSG.LCTMSG.FLAGS.BLN
      3686**DCL      6109>>IF
GD$MSG.LCTMSG.FLAGS.DUMP
      3686**DCL      6093<<ASSIGN
GD$MSG.LCTMSG.LCTMEM
      3686**DCL      6157>>ASSIGN   6158>>ASSIGN
GD$MSG.LCTMSG.LCTNUM
      3682**DCL      6100<<ASSIGN
GD$MSG.LETMEM_D.VALUE.SIZE
      3597**DCL      3597--REDEF
GD$MSG.LETMEM_D.VALUE.TEXT
      3598**DCL      3598--REDEF    3598--REDEF    3599--REDEF    3600--REDEF
GD$MSG.MESSAGE
      3579**DCL      3579--REDEF    3580--REDEF    3580--REDEF    3581--REDEF    3592--REDEF    3605--REDEF
      3610--REDEF    3617--REDEF    3633--REDEF    3638--REDEF    3644--REDEF    3645--REDEF    3674--REDEF
      3676--REDEF    3687--REDEF    3694--REDEF    3706--REDEF
GD$MSG.SUBFNC
      3574**DCL      3574--REDEF    3578--REDEF
PL6.E3A0      #001=DFA$DLCT File=DFA$DLCT.:E05TSI                                TUE 07/29/97 14:29 Page:33
GD$MSG.TSA.I
      3646**DCL      3646--REDEF
GD$MSG.TSA.S
      3648**DCL      3648--REDEF
GD$MSG.USERQS.ASDT$
      3674**DCL      3674--REDEF    3675--REDEF
GD$MSG_HOST.BRKRQS.IF$CONST.SIZE
      3781**DCL      3781--REDEF
GD$MSG_HOST.BRKRQS.IF$CONST.TEXT
      3781**DCL      3782--REDEF    3782--REDEF    3783--REDEF    3784--REDEF
GD$MSG_HOST.BRKRSP.BRK#
      3795**DCL      3795--REDEF
GD$MSG_HOST.BRKRSP.USER#
      3795**DCL      3795--REDEF
GD$MSG_HOST.ERROR_D.ERRCODE
      3736**DCL      6128>>ASSIGN
GD$MSG_HOST.LETMEM_D.VALUE.SIZE
      3753**DCL      3753--REDEF
GD$MSG_HOST.LETMEM_D.VALUE.TEXT
      3754**DCL      3754--REDEF    3754--REDEF    3755--REDEF    3756--REDEF
GD$MSG_HOST.MESSAGE
      3735**DCL      3735--REDEF    3736--REDEF    3736--REDEF    3737--REDEF    3748--REDEF    3761--REDEF
      3766--REDEF    3773--REDEF    3789--REDEF    3794--REDEF    3800--REDEF    3801--REDEF    3830--REDEF
      3832--REDEF    3843--REDEF    3850--REDEF    3862--REDEF
GD$MSG_HOST.SUBFNC
      3730**DCL      3730--REDEF    3734--REDEF
GD$MSG_HOST.TSA.I
      3802**DCL      3802--REDEF
GD$MSG_HOST.TSA.S
      3804**DCL      3804--REDEF
GD$MSG_HOST.USERQS.ASDT$
      3830**DCL      3830--REDEF    3831--REDEF
HEXCHARS IN PROCEDURE HEX_9_OUT
      6179**DCL      6184>>ASSIGN
HEX_9_OUT
      6170**PROC     6164--CALL
PL6.E3A0      #001=DFA$DLCT File=DFA$DLCT.:E05TSI                                TUE 07/29/97 14:29 Page:34
I
        19**DCL      6090<<DOINDEX  6100>>ASSIGN   6153<>CALL
J
        20**DCL      6156<<DOINDEX  6157>>ASSIGN   6157>>ASSIGN   6158>>ASSIGN   6158>>ASSIGN   6163<<DOINDEX
      6164>>CALL
K IN PROCEDURE HEX_9_OUT
      6178**DCL      6183<<DOINDEX  6184>>ASSIGN
M$SCREECH
        75**DCL-ENT  6133--CALL
NEVER
      6135**LABEL    6132--REMEMBR  6133--CALLALT
OUTPUT$
        26**DCL      6088<<ASSIGN   6154>>ASSIGN   6166<>CALL     6166>>CALL
RET
      6142**LABEL    6114--GOTO
SAVE_DATA
        27**DCL      6164<>CALL
SAVE_DATA.VAL.L
        30**DCL      6157<<ASSIGN
SAVE_DATA.VAL.R
        31**DCL      6158<<ASSIGN
SIZE
        21**DCL      6153<>CALL     6154>>ASSIGN   6160>>ASSIGN
SNAP_MESSAGE
       157**DCL      6133<>CALL
S_D.CURRENT_CHANNEL
      2593**DCL      2595--REDEF    6094>>IF
S_D.CURRENT_CHANNEL_R.CHAN
      2597**DCL      6099>>ASSIGN
S_D.CURRENT_FPRG_CONTEXT$
      1793**DCL      6101<>CALL     6102<>CALL     6119>>IF
S_D.D$
      1731**DCL      6154<<ASSIGN   6155>>ASSIGN   6160<<ASSIGN   6160>>ASSIGN   6161>>ASSIGN   6162<<ASSIGN
      6162>>ASSIGN   6166>>CALL     6184>>ASSIGN   6185<<ASSIGN   6185>>ASSIGN   6187>>ASSIGN   6188<<ASSIGN
      6188>>ASSIGN
S_D.DEBUGA
PL6.E3A0      #001=DFA$DLCT File=DFA$DLCT.:E05TSI                                TUE 07/29/97 14:29 Page:35
      1745**DCL      1747--REDEF
S_D.DUMPDCB
      2399**DCL      6087<<ASSIGN
S_D.EIS
      2703**DCL      2732--REDEF
S_D.ERROR
      1674**DCL      6096<<ASSIGN   6110<<ASSIGN   6111<<ASSIGN   6116<<ASSIGN   6135<<ASSIGN   6137<<ASSIGN
S_D.HOST_MESSAGE_BUF_REMOTE
      2636**DCL      2637--REDEF    2651--REDEF
S_D.JDE
      2250**DCL      2251--REDEF    6126<<ASSIGN   6128<<ASSIGN
S_D.L$.VALUE
      1803**DCL      1809--REDEF    1817--REDEF    1820--REDEF    1823--REDEF    1826--REDEF
S_D.L$.VALUE.L
      1804**DCL      1805--REDEF    1806--REDEF
S_D.L6_MESSAGE_BUF
      2657**DCL      2659--REDEF
S_D.OUTPUT
      2623**DCL      2625--REDEF    6088--ASSIGN   6152<<ASSIGN
S_D.REMOTE_MSG.FNCC
      2642**DCL      2643--REDEF
S_D.REMOTE_MSG.STXC
      2638**DCL      2639--REDEF
S_D.REMOTE_MSG.SUBFNCC
      2646**DCL      2647--REDEF
S_D.SCREECH_IC
      2494**DCL      6132<<REMEMBR
S_D.SV
      1702**DCL      1723--REDEF
S_D$
      2954**DCL      1650--IMP-PTR  6087>>ASSIGN   6088>>ASSIGN   6094>>IF       6096>>ASSIGN   6099>>ASSIGN
      6101>>CALL     6102>>CALL     6110>>ASSIGN   6111>>ASSIGN   6116>>ASSIGN   6119>>IF       6126>>ASSIGN
      6128>>ASSIGN   6132>>REMEMBR  6135>>ASSIGN   6137>>ASSIGN   6152>>ASSIGN   6154>>ASSIGN   6155>>ASSIGN
      6160>>ASSIGN   6160>>ASSIGN   6161>>ASSIGN   6162>>ASSIGN   6162>>ASSIGN   6166>>CALL     6184>>ASSIGN
      6185>>ASSIGN   6185>>ASSIGN   6187>>ASSIGN   6188>>ASSIGN   6188>>ASSIGN
S_D_HOST_MESSAGE$
PL6.E3A0      #001=DFA$DLCT File=DFA$DLCT.:E05TSI                                TUE 07/29/97 14:29 Page:36
      2990**DCL      3730--IMP-PTR  6128>>ASSIGN
S_D_L6_MESSAGE$
      2991**DCL      3574--IMP-PTR  6091>>ASSIGN   6092>>ASSIGN   6093>>ASSIGN   6099>>ASSIGN   6100>>ASSIGN
      6103>>DOCASE   6109>>IF       6121>>ASSIGN   6157>>ASSIGN   6158>>ASSIGN
TEMP$
        33**DCL        34--REDEF      35--REDEF
TEMP1
        34**DCL      6121<<ASSIGN
TEMP1B.B1
        37**DCL      6122>>ASSIGN
TEMP1B.B2
        38**DCL      6123>>ASSIGN
TEMP1B.B3
        39**DCL      6124>>ASSIGN
TEMP1B.B4
        40**DCL      6125>>ASSIGN
TEMP2
        41**DCL        42--REDEF    6126>>ASSIGN
TEMP2B.B1
        44**DCL      6122<<ASSIGN
TEMP2B.B2
        46**DCL      6123<<ASSIGN
TEMP2B.B3
        48**DCL      6124<<ASSIGN
TEMP2B.B4
        50**DCL      6125<<ASSIGN
VAL IN PROCEDURE HEX_9_OUT
      6174**DCL      6170--PROC     6175--REDEF
XVAL.H IN PROCEDURE HEX_9_OUT
      6177**DCL      6184>>ASSIGN
PL6.E3A0      #001=DFA$DLCT File=DFA$DLCT.:E05TSI                                TUE 07/29/97 14:29 Page:37
              *** CROSS REFERENCE LISTING ***
    **     DENOTES     IDENTIFIER DEFINITION
    <<                 IDENTIFIER'S VALUE SET
    >>                 IDENTIFIER'S VALUE USED
    <>                 IDENTIFIER SET AND/OR USED
    --                 IDENTIFIER REFERENCED
PL6.E3A0      #001=DFA$DLCT File=DFA$DLCT.:E05TSI                                TUE 07/29/97 14:29 Page:38
              MINI UREF LISTING

CHAR5      24**DCL
DFA$DLCT      16**PROC
M$ACCT      78**DCL-ENT
M$ACTIVATE      81**DCL-ENT
M$ALIB      74**DCL-ENT
M$ASUSER      76**DCL-ENT
M$ATTACH      83**DCL-ENT
M$BADPP     101**DCL-ENT
M$CGCTL      82**DCL-ENT
M$CGINFO      82**DCL-ENT
M$CHECK      63**DCL-ENT
M$CHGUNIT     121**DCL-ENT
M$CLOSE      61**DCL-ENT
M$CLRSTK     119**DCL-ENT
M$CMDVAR     130**DCL-ENT
M$CONFIG      91**DCL-ENT
M$CORRES      66**DCL-ENT
M$CPEXIT      75**DCL-ENT
M$CVM      99**DCL-ENT
M$CVOL      64**DCL-ENT
M$DCLFLD      91**DCL-ENT
M$DEACTIVATE      81**DCL-ENT
M$DELREC      63**DCL-ENT
M$DEQ     128**DCL-ENT
M$DETACH      83**DCL-ENT
M$DEVICE      65**DCL-ENT
M$DISPLAY     128**DCL-ENT
M$DISPRES      68**DCL-ENT
M$DLIB      74**DCL-ENT
M$DRIBBLE      91**DCL-ENT
M$DRTN     119**DCL-ENT
M$DSUSER      76**DCL-ENT
PL6.E3A0      #001=DFA$DLCT File=DFA$DLCT.:E05TSI                                TUE 07/29/97 14:29 Page:39
M$ENQ     127**DCL-ENT
M$EOM      86**DCL-ENT
M$ERASE      92**DCL-ENT
M$ERR      73**DCL-ENT
M$ERRMSG     124**DCL-ENT
M$EVENT     116**DCL-ENT
M$EXHUME     125**DCL-ENT
M$EXIT      73**DCL-ENT
M$EXTEND      65**DCL-ENT
M$FDP      97**DCL-ENT
M$FDS      96**DCL-ENT
M$FEBOOT      89**DCL-ENT
M$FECTL      90**DCL-ENT
M$FEDUMP      89**DCL-ENT
M$FID     124**DCL-ENT
M$FINDPROC      78**DCL-ENT
M$FSUSER      76**DCL-ENT
M$FVP      98**DCL-ENT
M$FWCG      82**DCL-ENT
M$GBPL     102**DCL-ENT
M$GDDL      98**DCL-ENT
M$GDP      97**DCL-ENT
M$GDS      96**DCL-ENT
M$GETDCB      67**DCL-ENT
M$GETMOUSE     107**DCL-ENT
M$GETPM     108**DCL-ENT
M$GJOB     126**DCL-ENT
M$GLINEATTR      86**DCL-ENT
M$GOODPP     101**DCL-ENT
M$GPLATEN      94**DCL-ENT
M$GPROMPT      93**DCL-ENT
M$GTRMATTR      87**DCL-ENT
M$GTRMCTL      85**DCL-ENT
M$GTRMTAB      88**DCL-ENT
M$GVP      97**DCL-ENT
M$HELP     124**DCL-ENT
PL6.E3A0      #001=DFA$DLCT File=DFA$DLCT.:E05TSI                                TUE 07/29/97 14:29 Page:40
M$INT     116**DCL-ENT
M$INTRTN      77**DCL-ENT
M$IOQ     112**DCL-ENT
M$JOBSTATS     126**DCL-ENT
M$KEYIN      66**DCL-ENT
M$LDEV      61**DCL-ENT
M$LDTRC      74**DCL-ENT
M$LIMIT      67**DCL-ENT
M$LINES      66**DCL-ENT
M$LINK      73**DCL-ENT
M$MADMUCK      69**DCL-ENT
M$MAKUSER     100**DCL-ENT
M$MBS      68**DCL-ENT
M$MDFFLD      92**DCL-ENT
M$MERC     117**DCL-ENT
M$MERCS     118**DCL-ENT
M$MIRROR     112**DCL-ENT
M$MONINFO     129**DCL-ENT
M$MPL     102**DCL-ENT
M$NODEINFO      93**DCL-ENT
M$NXTUSR     127**DCL-ENT
M$OCMSG     125**DCL-ENT
M$OLAY      73**DCL-ENT
M$OPEN      61**DCL-ENT
M$PAS     102**DCL-ENT
M$PATHCON     125**DCL-ENT
M$PDS      96**DCL-ENT
M$PFIL      63**DCL-ENT
M$PLATEN      87**DCL-ENT
M$PRECORD      65**DCL-ENT
M$PROCNAME      78**DCL-ENT
M$PROFILE      89**DCL-ENT
M$PROMPT      85**DCL-ENT
M$RACST      69**DCL-ENT
M$RDSYSLOG     110**DCL-ENT
M$READ      62**DCL-ENT
PL6.E3A0      #001=DFA$DLCT File=DFA$DLCT.:E05TSI                                TUE 07/29/97 14:29 Page:41
M$RELDCB      67**DCL-ENT
M$RELRES      68**DCL-ENT
M$RELSTARF      70**DCL-ENT
M$REM      70**DCL-ENT
M$RENV     117**DCL-ENT
M$REQUIRE      69**DCL-ENT
M$RETRY     118**DCL-ENT
M$RETRYS     118**DCL-ENT
M$REW      64**DCL-ENT
M$RLSFLD      92**DCL-ENT
M$RPRIV     120**DCL-ENT
M$RSPP      99**DCL-ENT
M$RSWITCH     121**DCL-ENT
M$RUE     127**DCL-ENT
M$SAD     100**DCL-ENT
M$SAVE      76**DCL-ENT
M$SCON      77**DCL-ENT
M$SENV     117**DCL-ENT
M$SETFMA      61**DCL-ENT
M$SETFP      90**DCL-ENT
M$SINPUT      88**DCL-ENT
M$SLCFLD      93**DCL-ENT
M$SMOUSE     107**DCL-ENT
M$SMPRT      99**DCL-ENT
M$SPRIV     120**DCL-ENT
M$SSC     100**DCL-ENT
M$SSWITCH     120**DCL-ENT
M$STATE     129**DCL-ENT
M$STD     101**DCL-ENT
M$STIMER     115**DCL-ENT
M$STLPP      98**DCL-ENT
M$STRAP     115**DCL-ENT
M$STRMATTR      87**DCL-ENT
M$STRMCTL      85**DCL-ENT
M$STRMTAB      88**DCL-ENT
M$SYMBIO     126**DCL-ENT
PL6.E3A0      #001=DFA$DLCT File=DFA$DLCT.:E05TSI                                TUE 07/29/97 14:29 Page:42
M$SYSCON     112**DCL-ENT
M$SYSID     130**DCL-ENT
M$TDCLOSE     111**DCL-ENT
M$TDIO     111**DCL-ENT
M$TDOPEN     110**DCL-ENT
M$TDREQCPU     111**DCL-ENT
M$TEMPWROC     105**DCL-ENT
M$TIME     128**DCL-ENT
M$TRAP     115**DCL-ENT
M$TRMISC      90**DCL-ENT
M$TRMPRG      86**DCL-ENT
M$TRTN     119**DCL-ENT
M$TRUNC      62**DCL-ENT
M$TTIMER     115**DCL-ENT
M$UC      85**DCL
M$UMPL     102**DCL-ENT
M$UNFID     124**DCL-ENT
M$UNLATCH      81**DCL-ENT
M$UNSHARE      78**DCL-ENT
M$USRFIELD     121**DCL-ENT
M$VIRTUAL      96**DCL-ENT
M$WAIT     119**DCL-ENT
M$WEOF      64**DCL-ENT
M$WRITE      62**DCL-ENT
M$WRSYSLOG     110**DCL-ENT
M$XCON     116**DCL-ENT
M$XCONRTN      77**DCL-ENT
M$XEQTIME     129**DCL-ENT
M$XFLUSH      70**DCL-ENT
M$XMOUSE     107**DCL-ENT
M$XXX      73**DCL-ENT
M$YC      75**DCL-ENT
SC_MESSAGE     175**DCL
SDD$    4134**DCL
SDD_L6$    4136**DCL
S_D_ACCESS$    2969**DCL
PL6.E3A0      #001=DFA$DLCT File=DFA$DLCT.:E05TSI                                TUE 07/29/97 14:29 Page:43
S_D_ANLZ$    2971**DCL
S_D_ASTACKOFF$    2970**DCL
S_D_BREAK$    2972**DCL
S_D_DO_SCAN$    2973**DCL
S_D_ERROR$    2974**DCL
S_D_FAULTCMD$$    2975**DCL
S_D_FAULTINS$$    2976**DCL
S_D_GOIC$    2977**DCL
S_D_GO_MODE$    2978**DCL
S_D_HW_PTB_UNITS$    2994**DCL
S_D_HW_RES_MEM$    2992**DCL
S_D_HW_WSQ0PT$    2993**DCL
S_D_IPRFLT$    2980**DCL
S_D_IXFIX$    2979**DCL
S_D_REM_ACCESS$    2981**DCL
S_D_REM_DISKBOOT$    2983**DCL
S_D_REM_DO_SCAN$    2982**DCL
S_D_RETURNN$    2984**DCL
S_D_SAD$    2985**DCL
S_D_SAVEIC$    2986**DCL
S_D_SEG$    2968**DCL
S_D_TCB$$    2987**DCL
S_D_UREG$$    2988**DCL
S_D_USS$$    2989**DCL
ZITEM$    4135**DCL
ZITEM_L6$    4137**DCL

PL6.E3A0      #002=DFA$MLCT File=DFA$DLCT.:E05TSI                                TUE 07/29/97 14:29 Page:44
      184        1        /*T***********************************************************/
      185        2        /*T*                                                         */
      186        3        /*T* Copyright (c) Bull HN Information Systems Inc., 1997    */
      187        4        /*T*                                                         */
      188        5        /*T***********************************************************/
      189        6        /*P* NAME: DFA$MLCT
      190        7             PURPOSE:  To provide the MODIFY LCTs command
      191        8        */
      192        9        /*D* NAME: DFA$MLCT
      193       10             DESCRIPTION: This routine is called by DDA$DO to perform the MLCT
      194       11                  directive.
      195       12        */
      196       13        DFA$MLCT:PROC ALTRET;
      197       14
      198       15        /* Local auto */
      199       16    1   DCL SIZE UBIN;
      200       17    1   DCL CHAR_HOLD CHAR(12);
      201       18    1   DCL CHAR2 CHAR(2) BASED;
      202       19    1   DCL CHAR9 CHAR(9) BASED;
      203       20    1   DCL CHAR3 CHAR(3) BASED;
      204       21    1   DCL CHAR5 CHAR(5) BASED;
      205       22    1   DCL CHAR1 CHAR(1) BASED;
      206       23    1   DCL OUTPUT$ PTR;
      207       24    1   DCL 1 SAVE_VAL,
      208       25    1         2 * BIT(28) UNAL,
      209       26    1         2 V UBIN(8) UNAL;
      210       27    1   DCL TEMP$ PTR;
      211       28    1   DCL TEMP1 REDEF TEMP$ UBIN(36) ALIGNED;
      212       29    1   DCL 1 TEMP1B REDEF TEMP$ ALIGNED,
      213       30    1         2 * UBIN(4) UNAL,
      214       31    1         2 B1 UBIN(8) UNAL,
      215       32    1         2 B2 UBIN(8) UNAL,
      216       33    1         2 B3 UBIN(8) UNAL,
      217       34    1         2 B4 UBIN(8) UNAL;
      218       35    1   DCL TEMP2 UBIN(36) ALIGNED;
      219       36    1   DCL 1 TEMP2B REDEF TEMP2 ALIGNED,
      220       37    1         2 * BIT(1) UNAL,
PL6.E3A0      #002=DFA$MLCT File=DFA$DLCT.:E05TSI                                TUE 07/29/97 14:29 Page:45
      221       38    1         2 B1 UBIN(8) UNAL,
      222       39    1         2 * BIT(1) UNAL,
      223       40    1         2 B2 UBIN(8) UNAL,
      224       41    1         2 * BIT(1) UNAL,
      225       42    1         2 B3 UBIN(8) UNAL,
      226       43    1         2 * BIT(1) UNAL,
      227       44    1         2 B4 UBIN(8) UNAL;
      228       45        /* Includes and based structures */
      229       46        %INCLUDE CP_6;
      230      127        %INCLUDE DU_SCODE_C;
      231      140        %FPT_SCREECH(FPTN=SNAP_MESSAGE,STCLASS=SYMREF READONLY);
      232      154        %VLP_SCODE(FPTN=SC_MESSAGE, STCLASS=SYMREF READONLY);
      233      215        %INCLUDE XUH_MACRO_C;
      234      299        %INCLUDE DD_SD_M;
      235     1635        %S_D;
      236     2953        %S_D_PTRS;
      237     2990        %INCLUDE DD_ERR_C;
      238     3387        %INCLUDE GD$MSG_M;
      239     3551        %GD$MSG(FPTN=GD$MSG,STCLASS="BASED(S_D_L6_MESSAGE$)",L6=YES,L6PTR="UBIN(32) UNAL");
      240     3707        %GD$MSG(FPTN=GD$MSG_HOST,STCLASS="BASED(S_D_HOST_MESSAGE$)",L6=NO);
      241     3863        %INCLUDE GD_EQUS_E;
      242     4024        %INCLUDE DD$DITEM;
       12+    4127             %LIST;
       13+    4128    1        DCL SDD$ PTR;
       14+    4129    1        DCL ZITEM$ PTR;
       15+    4130    1        DCL SDD_L6$ PTR;
       16+    4131    1        DCL ZITEM_L6$ PTR;
      243     4705        %INCLUDE DD$BASED;
      244     6008        %LCT$CMD;
      245     6022        %FPRG$CONTEXT;
      246     6085    1   DCL D_M$DO# UBIN SYMREF;
      247     6086        /* Entry dcls */
      248     6087    1   DCL DDE$ERROR ENTRY;
      249     6088    1   DCL DDQ$WRITED ENTRY(2);
      250     6089    1   DCL DDQ$WRITENU ENTRY(2);
      251     6090    1   DCL DDR$BINTXT    ENTRY(4);
      252     6091    1   DCL DFQ$READ_FD ENTRY(2) ALTRET;
PL6.E3A0      #002=DFA$MLCT File=DFA$DLCT.:E05TSI                                TUE 07/29/97 14:29 Page:46
      253     6092    1   DCL DFQ$WRITE_FD ENTRY(1) ALTRET;
      254     6093    1   DCL DUE$ERRMSG ENTRY;
      255     6094    1   DCL DUE$GERRMSG ENTRY;
      256     6095        /**/
      257     6096    1        S_D.DUMPDCB = D_M$DO#;
      258     6097    1        OUTPUT$ = ADDR(S_D.OUTPUT);
      259     6098    1        GD$MSG = '0'B;
      260     6099    1        GD$MSG.FNC = %GD#RQSDISPLCT;
      261     6100    1        IF S_D.CURRENT_CHANNEL = 0
      262     6101    2        THEN DO;
      263     6102    2             S_D.ERROR = E@NOCHANSELECTED;
      264     6103    2             GOTO ARET;
      265     6104    2           END;
      266     6105    1        GD$MSG.LCTMSG.CHANNEL = S_D.CURRENT_CHANNEL_R.CHAN;
      267     6106    1        GD$MSG.LCTMSG.LCTNUM = S_D.DO$ -> LCT$CMD.LCT#;
      268     6107    1        IF S_D.DO$ -> LCT$CMD.NEW_VALUE
      269     6108    2        THEN DO;
      270     6109    2             GD$MSG.LCTMSG.NEWMEM = S_D.DO$ -> LCT$CMD.LCT_NEW_VALUE;
      271     6110    2             GD$MSG.FNC = %GD#RQSMODLCT;
      272     6111    2           END;
      273     6112    1        CALL DFQ$WRITE_FD (S_D.CURRENT_FPRG_CONTEXT$) ALTRET(ERRMSG);
      274     6113    1        CALL DFQ$READ_FD (S_D.CURRENT_FPRG_CONTEXT$, '0'B) ALTRET(ERRMSG);
      275     6114    2        DO CASE(GD$MSG.FNC);
      276     6115    2          CASE(%GD#RSPMODLCT, %GD#RSPDISPLCT);
      277     6116    2             IF S_D.DO$ -> LCT$CMD.NEW_VALUE AND
      278     6117    2               GD$MSG.LCTMSG.FLAGS.SO = '0'B
      279     6118    3             THEN DO;
      280     6119    3                  S_D.ERROR = E@CANTMODLCT; /* E@CANTMODLCT */
      281     6120    3                  GOTO ARET;
      282     6121    3                END;
      283     6122    2             S_D.D$ = OUTPUT$;
      284     6123    2             S_D.OUTPUT = ' ';
      285     6124    2             S_D.D$ -> CHAR5 = 'MLCT ';
      286     6125    2             S_D.D$ = PINCRC(S_D.D$, 5);
      287     6126    2             CALL DDR$BINTXT (ADDR(CHAR_HOLD), S_D.DO$ -> LCT$CMD.LCT#, %X_FMT, SIZE);
      288     6127    2             S_D.D$ -> CHAR9 = CHAR_HOLD;
      289     6128    2             S_D.D$ = PINCRC(S_D.D$, SIZE);
PL6.E3A0      #002=DFA$MLCT File=DFA$DLCT.:E05TSI                                TUE 07/29/97 14:29 Page:47
      290     6129    2             S_D.D$ -> CHAR2 = ' .';
      291     6130    2             S_D.D$ = PINCRC(S_D.D$, 2);
      292     6131    2             SAVE_VAL.V = GD$MSG.LCTMSG.NEWMEM;
      293     6132    2             CALL HEX_9_OUT (SAVE_VAL);
      294     6133    2             IF S_D.DO$ -> LCT$CMD.NEW_VALUE
      295     6134    3             THEN DO;
      296     6135    3                  SAVE_VAL.V = GD$MSG.LCTMSG.OLDMEM;
      297     6136    3                  S_D.D$ -> CHAR3 = ' (.';
      298     6137    3                  S_D.D$ = PINCRC(S_D.D$, 3);
      299     6138    3                  CALL HEX_9_OUT (SAVE_VAL);
      300     6139    3                  S_D.D$ -> CHAR1 = ')';
      301     6140    3                  S_D.D$ = PINCRC(S_D.D$, 1);
      302     6141    3                  CALL DDQ$WRITED (OUTPUT$, POFFC(S_D.D$, OUTPUT$));
      303     6142    3                END;
      304     6143    3             ELSE DO;
      305     6144    3                  S_D.MACTIVE = '1'B;
      306     6145    3                  S_D.MLCT = '1'B;
      307     6146    3                  S_D.LCTNUM = S_D.DO$ -> LCT$CMD.LCT#;
      308     6147    3                  CALL DDQ$WRITENU (OUTPUT$, POFFC(S_D.D$, OUTPUT$));
      309     6148    3                END;
      310     6149    2          CASE(%GD#RSPBADMLCCALL);
      311     6150    2             IF GD$MSG.LCTMSG.FLAGS.BLN
      312     6151    2             THEN S_D.ERROR = E@BADADDR;   /* E@BADADDR */
      313     6152    2             ELSE S_D.ERROR = E@LINEDEAD;  /* E@LINEDEAD */
      314     6153    2             GOTO ARET;
      315     6154    2          CASE(%GD#RSPBADMSG);
      316     6155    2             S_D.ERROR = E@BADMSG;         /* E@BADMSG */
      317     6156    2             GOTO ARET;
      318     6157    2          CASE(%GD#RSPNAK);
      319     6158    2             IF S_D.CURRENT_FPRG_CONTEXT$ -> FPRG$CONTEXT.XDELTA
      320     6159    3             THEN DO;
      321     6160    3                  TEMP1 = BITBIN(GD$MSG.ERROR_D.ERRCODE);
      322     6161    3                  TEMP2B.B1 = TEMP1B.B1;
      323     6162    3                  TEMP2B.B2 = TEMP1B.B2;
      324     6163    3                  TEMP2B.B3 = TEMP1B.B3;
      325     6164    3                  TEMP2B.B4 = TEMP1B.B4;
      326     6165    3                  S_D.JDE = TEMP2;
PL6.E3A0      #002=DFA$MLCT File=DFA$DLCT.:E05TSI                                TUE 07/29/97 14:29 Page:48
      327     6166    3                END;
      328     6167    2             ELSE S_D.JDE = BITBIN(GD$MSG_HOST.ERROR_D.ERRCODE);
      329     6168    2             CALL DUE$GERRMSG;
      330     6169    2             RETURN;
      331     6170    2          CASE(ELSE);
      332     6171    2             REMEMBER NEVER IN S_D.SCREECH_IC;
      333     6172    2             CALL M$SCREECH (SNAP_MESSAGE) ALTRET(NEVER);
      334     6173    2   NEVER:
      335     6174    2             S_D.ERROR = E@BADMESSAGE;     /* E@BADMESSAGE */
      336     6175    2             CALL DDE$ERROR;
      337     6176    2             S_D.ERROR = E@DELBUG;         /* E@DELBUG */
      338     6177    2             CALL DDE$ERROR;
      339     6178    2          END;
      340     6179
      341     6180    1        RETURN;
      342     6181
      343     6182    1   ARET: ALTRETURN;
      344     6183
      345     6184    1   ERRMSG:
      346     6185    1        CALL DUE$ERRMSG;
      347     6186    1        RETURN;
      348     6187        %EJECT;
PL6.E3A0      #002=DFA$MLCT File=DFA$DLCT.:E05TSI                                TUE 07/29/97 14:29 Page:49
      349     6188    1   HEX_9_OUT: PROC(VAL);
      350     6189        /* Convert the right 16 bits of a 36-bit ubin into 4 hex digits where
      351     6190           S_D.D$ points.  */
      352     6191
      353     6192    2   DCL VAL UBIN;
      354     6193    2   DCL 1 XVAL REDEF VAL,
      355     6194    2         2 * BIT(28) UNAL,
      356     6195    2         2 H ( 0:1 ) UBIN (4) UNAL;
      357     6196    2   DCL K UBIN;
      358     6197    2   DCL HEXCHARS(0:15) CHAR(1) CONSTANT INIT(
      359     6198    2        '0','1','2','3','4','5','6','7','8','9','A','B','C','D','E','F');
      360     6199    2   DCL CHAR1 CHAR(1) BASED;
      361     6200
      362     6201    3        DO K = 0 TO 1;
      363     6202    3             S_D.D$ -> CHAR1 = HEXCHARS(XVAL.H(K));
      364     6203    3             S_D.D$ = PINCRC(S_D.D$, 1);
      365     6204    3           END;
      366     6205    2        RETURN;
      367     6206    2   END HEX_9_OUT;
      368     6207    1   END DFA$MLCT;
      369     6208        %EOD;

PL6.E3A0      #002=DFA$MLCT File=DFA$DLCT.:E05TSI                                TUE 07/29/97 14:29 Page:50
--  Include file information  --

   DD$BASED.:E05TOU  is referenced.
   DD_SRTN_C.:E05TOU  is referenced.
   DD_ACODE_C.:E05TOU  is referenced.
   DD_ICODE_C.:E05TOU  is referenced.
   DD$DITEM.:E05TOU  cannot be made into a system file and is referenced.
   GD_EQUS_E.:E05TOU  is referenced.
   GD$MSG_M.:E05TOU  is referenced.
   DD_ERR_C.:E05TOU  is referenced.
   DD_SD_M.:E05TOU  is referenced.
   XUH_MACRO_C.:E05TOU  is referenced.
   DU_SCODE_C.:E05TOU  is referenced.
   CP_6.:E05TOU  cannot be made into a system file and is referenced.
   B$JIT_C.:E05TOU  was found in the system file and is never referenced.
   CP_6_C.:E05TOU  was found in the system file and is referenced.
      No diagnostics issued in procedure DFA$MLCT.

   Procedure DFA$MLCT requires 321 words for executable code.
   Procedure DFA$MLCT requires 26 words of local(AUTO) storage.

PL6.E3A0      #002=DFA$MLCT File=DFA$DLCT.:E05TSI                                TUE 07/29/97 14:29 Page:51

 Object Unit name= DFA$MLCT                                   File name= DFA$DLCT.:E05TOU
 UTS= JUL 29 '97 14:29:32.76 TUE                              Compiler= PL-6/E31         Sev=      00
 SharedLib= :SHARED_SYSTEM                                    Alt SharedLib=


    ****  Control sections  ****

 Sect   Type Bound  Init  Size OctSiz  Section name(segment info)
    0   DCB   even  none     0      0  M$UC
    1  RoData even  UTS      8     10  DFA$MLCT
    2   Proc  even  none   321    501  DFA$MLCT
    3  RoData even  none     9     11  DFA$MLCT

    ****  Entry defs  ****

                              Check   Calling
                             calling  sequence
  Sect OctLoc Primary Altret sequence   type   Parms  Name
     2      0   yes    yes     yes      Std        0  DFA$MLCT

  ****  Entry refs  ****

         Check        Calling
        calling       sequence
Altret sequence SRef   type   Args  Name
 yes     yes           Std       1 DFQ$WRITE_FD
 yes     yes           Std       2 DFQ$READ_FD
         yes           Std       2 DDQ$WRITED
         yes           Std       2 DDQ$WRITENU
         yes           Std       0 DUE$GERRMSG
         yes           Std       0 DUE$ERRMSG
         yes           Std       4 DDR$BINTXT
         yes           Std       0 DDE$ERROR
                       nStd      0 X66_AUTO_0
                       Std       0 B_CONSPOOL_D
                       nStd      0 X66_ARET
                       nStd      0 X66_AALT
PL6.E3A0      #002=DFA$MLCT File=DFA$DLCT.:E05TSI                                TUE 07/29/97 14:29 Page:52

  ****  Data refs  ****

  Flags:  r = read only, s = secondary
Flgs Name                             Flgs Name                             Flgs Name
     M$UC                             r    SNAP_MESSAGE                     r    S_D$
r    S_D_HOST_MESSAGE$                r    S_D_L6_MESSAGE$                       D_M$DO#
     B_VECTNIL

  ****  Segment refs  ****

  Flags:  r = read only, s = secondary
Flgs Name                             Flgs Name                             Flgs Name
     ISSID
PL6.E3A0      #002=DFA$MLCT File=DFA$DLCT.:E05TSI                                TUE 07/29/97 14:29 Page:53


      184        1        /*T***********************************************************/
      185        2        /*T*                                                         */
      186        3        /*T* Copyright (c) Bull HN Information Systems Inc., 1997    */
      187        4        /*T*                                                         */
      188        5        /*T***********************************************************/
      189        6        /*P* NAME: DFA$MLCT
      190        7             PURPOSE:  To provide the MODIFY LCTs command
      191        8        */
      192        9        /*D* NAME: DFA$MLCT
      193       10             DESCRIPTION: This routine is called by DDA$DO to perform the MLCT
      194       11                  directive.
      195       12        */
      196       13        DFA$MLCT:PROC ALTRET;

     13  2 000000   000000 700200 xent  DFA$MLCT     TSX0  ! X66_AUTO_0
         2 000001   000032 000000                    ZERO    26,0

      197       14
      198       15        /* Local auto */
      199       16    1   DCL SIZE UBIN;
      200       17    1   DCL CHAR_HOLD CHAR(12);
      201       18    1   DCL CHAR2 CHAR(2) BASED;
      202       19    1   DCL CHAR9 CHAR(9) BASED;
      203       20    1   DCL CHAR3 CHAR(3) BASED;
      204       21    1   DCL CHAR5 CHAR(5) BASED;
      205       22    1   DCL CHAR1 CHAR(1) BASED;
      206       23    1   DCL OUTPUT$ PTR;
      207       24    1   DCL 1 SAVE_VAL,
      208       25    1         2 * BIT(28) UNAL,
      209       26    1         2 V UBIN(8) UNAL;
      210       27    1   DCL TEMP$ PTR;
      211       28    1   DCL TEMP1 REDEF TEMP$ UBIN(36) ALIGNED;
      212       29    1   DCL 1 TEMP1B REDEF TEMP$ ALIGNED,
      213       30    1         2 * UBIN(4) UNAL,
      214       31    1         2 B1 UBIN(8) UNAL,
      215       32    1         2 B2 UBIN(8) UNAL,
PL6.E3A0      #002=DFA$MLCT File=DFA$DLCT.:E05TSI                                TUE 07/29/97 14:29 Page:54
      216       33    1         2 B3 UBIN(8) UNAL,
      217       34    1         2 B4 UBIN(8) UNAL;
      218       35    1   DCL TEMP2 UBIN(36) ALIGNED;
      219       36    1   DCL 1 TEMP2B REDEF TEMP2 ALIGNED,
      220       37    1         2 * BIT(1) UNAL,
      221       38    1         2 B1 UBIN(8) UNAL,
      222       39    1         2 * BIT(1) UNAL,
      223       40    1         2 B2 UBIN(8) UNAL,
      224       41    1         2 * BIT(1) UNAL,
      225       42    1         2 B3 UBIN(8) UNAL,
      226       43    1         2 * BIT(1) UNAL,
      227       44    1         2 B4 UBIN(8) UNAL;
      228       45        /* Includes and based structures */
      229       46        %INCLUDE CP_6;
      230      127        %INCLUDE DU_SCODE_C;
      231      140        %FPT_SCREECH(FPTN=SNAP_MESSAGE,STCLASS=SYMREF READONLY);
      232      154        %VLP_SCODE(FPTN=SC_MESSAGE, STCLASS=SYMREF READONLY);
      233      215        %INCLUDE XUH_MACRO_C;
      234      299        %INCLUDE DD_SD_M;
      235     1635        %S_D;
      236     2953        %S_D_PTRS;
      237     2990        %INCLUDE DD_ERR_C;
      238     3387        %INCLUDE GD$MSG_M;
      239     3551        %GD$MSG(FPTN=GD$MSG,STCLASS="BASED(S_D_L6_MESSAGE$)",L6=YES,L6PTR="UBIN(32) UNAL");
      240     3707        %GD$MSG(FPTN=GD$MSG_HOST,STCLASS="BASED(S_D_HOST_MESSAGE$)",L6=NO);
      241     3863        %INCLUDE GD_EQUS_E;
      242     4024        %INCLUDE DD$DITEM;
       12+    4127             %LIST;
       13+    4128    1        DCL SDD$ PTR;
       14+    4129    1        DCL ZITEM$ PTR;
       15+    4130    1        DCL SDD_L6$ PTR;
       16+    4131    1        DCL ZITEM_L6$ PTR;
      243     4705        %INCLUDE DD$BASED;
      244     6008        %LCT$CMD;
      245     6022        %FPRG$CONTEXT;
      246     6085    1   DCL D_M$DO# UBIN SYMREF;
      247     6086        /* Entry dcls */
PL6.E3A0      #002=DFA$MLCT File=DFA$DLCT.:E05TSI                                TUE 07/29/97 14:29 Page:55
      248     6087    1   DCL DDE$ERROR ENTRY;
      249     6088    1   DCL DDQ$WRITED ENTRY(2);
      250     6089    1   DCL DDQ$WRITENU ENTRY(2);
      251     6090    1   DCL DDR$BINTXT    ENTRY(4);
      252     6091    1   DCL DFQ$READ_FD ENTRY(2) ALTRET;
      253     6092    1   DCL DFQ$WRITE_FD ENTRY(1) ALTRET;
      254     6093    1   DCL DUE$ERRMSG ENTRY;
      255     6094    1   DCL DUE$GERRMSG ENTRY;
      256     6095        /**/
      257     6096    1        S_D.DUMPDCB = D_M$DO#;

   6096  2 000002   000000 470400 xsym               LDP0    S_D$
         2 000003   000000 235000 xsym               LDA     D_M$DO#
         2 000004   005135 755100                    STA     2653,,PR0

      258     6097    1        OUTPUT$ = ADDR(S_D.OUTPUT);

   6097  2 000005   000000 236000 xsym               LDQ     S_D$
         2 000006   005335 036003                    ADLQ    2781,DU
         2 000007   200007 756100                    STQ     OUTPUT$,,AUTO

      259     6098    1        GD$MSG = '0'B;

   6098  2 000010   000000 471400 xsym               LDP1    S_D_L6_MESSAGE$
         2 000011   003100 060400                    CSL     bolr='003'O
         2 000012   000002 000001 xsym               BDSC    B_VECTNIL+2              by=0,bit=0,n=1
         2 000013   100000 004720                    BDSC    0,,PR1                   by=0,bit=0,n=2512

      260     6099    1        GD$MSG.FNC = %GD#RQSDISPLCT;

   6099  2 000014   100000 236100                    LDQ     0,,PR1
         2 000015   000000 376000 3                  ANQ     0
         2 000016   030000 276003                    ORQ     12288,DU
         2 000017   100000 756100                    STQ     0,,PR1

      261     6100    1        IF S_D.CURRENT_CHANNEL = 0

PL6.E3A0      #002=DFA$MLCT File=DFA$DLCT.:E05TSI                                TUE 07/29/97 14:29 Page:56
   6100  2 000020   005321 235100                    LDA     2769,,PR0
         2 000021   000025 601000 2                  TNZ     s:6105

      262     6101    2        THEN DO;

      263     6102    2             S_D.ERROR = E@NOCHANSELECTED;

   6102  2 000022   000523 235007                    LDA     339,DL
         2 000023   000013 755100                    STA     11,,PR0

      264     6103    2             GOTO ARET;

   6103  2 000024   000444 710000 2                  TRA     ARET

      265     6104    2           END;
      266     6105    1        GD$MSG.LCTMSG.CHANNEL = S_D.CURRENT_CHANNEL_R.CHAN;

   6105  2 000025   005321 236100                    LDQ     2769,,PR0
         2 000026   000004 736000                    QLS     4
         2 000027   100000 676100                    ERQ     0,,PR1
         2 000030   000001 376000 3                  ANQ     1
         2 000031   100000 656100                    ERSQ    0,,PR1

      267     6106    1        GD$MSG.LCTMSG.LCTNUM = S_D.DO$ -> LCT$CMD.LCT#;

   6106  2 000032   000031 473500                    LDP3    25,,PR0
         2 000033   300002 236100                    LDQ     2,,PR3
         2 000034   000020 736000                    QLS     16
         2 000035   100001 676100                    ERQ     1,,PR1
         2 000036   000002 376000 3                  ANQ     2
         2 000037   100001 656100                    ERSQ    1,,PR1

      268     6107    1        IF S_D.DO$ -> LCT$CMD.NEW_VALUE

   6107  2 000040   000031 473500                    LDP3    25,,PR0
         2 000041   300001 234100                    SZN     1,,PR3
         2 000042   000054 605000 2                  TPL     s:6112
PL6.E3A0      #002=DFA$MLCT File=DFA$DLCT.:E05TSI                                TUE 07/29/97 14:29 Page:57

      269     6108    2        THEN DO;

      270     6109    2             GD$MSG.LCTMSG.NEWMEM = S_D.DO$ -> LCT$CMD.LCT_NEW_VALUE;

   6109  2 000043   300003 236100                    LDQ     3,,PR3
         2 000044   000030 736000                    QLS     24
         2 000045   100001 676100                    ERQ     1,,PR1
         2 000046   037700 376003                    ANQ     16320,DU
         2 000047   100001 656100                    ERSQ    1,,PR1

      271     6110    2             GD$MSG.FNC = %GD#RQSMODLCT;

   6110  2 000050   100000 236100                    LDQ     0,,PR1
         2 000051   000000 376000 3                  ANQ     0
         2 000052   026000 276003                    ORQ     11264,DU
         2 000053   100000 756100                    STQ     0,,PR1

      272     6111    2           END;

      273     6112    1        CALL DFQ$WRITE_FD (S_D.CURRENT_FPRG_CONTEXT$) ALTRET(ERRMSG);

   6112  2 000054   000000 236000 xsym               LDQ     S_D$
         2 000055   000102 036003                    ADLQ    66,DU
         2 000056   200024 756100                    STQ     K+2,,AUTO
         2 000057   200024 630500                    EPPR0   K+2,,AUTO
         2 000060   000017 631400 xsym               EPPR1   B_VECTNIL+15
         2 000061   000000 701000 xent               TSX1    DFQ$WRITE_FD
         2 000062   000445 702000 2                  TSX2    ERRMSG

      274     6113    1        CALL DFQ$READ_FD (S_D.CURRENT_FPRG_CONTEXT$, '0'B) ALTRET(ERRMSG);

   6113  2 000063   000003 236000 3                  LDQ     3
         2 000064   200025 756100                    STQ     K+3,,AUTO
         2 000065   000000 236000 xsym               LDQ     S_D$
         2 000066   000102 036003                    ADLQ    66,DU
         2 000067   200024 756100                    STQ     K+2,,AUTO
PL6.E3A0      #002=DFA$MLCT File=DFA$DLCT.:E05TSI                                TUE 07/29/97 14:29 Page:58
         2 000070   200024 630500                    EPPR0   K+2,,AUTO
         2 000071   000020 631400 xsym               EPPR1   B_VECTNIL+16
         2 000072   000000 701000 xent               TSX1    DFQ$READ_FD
         2 000073   000445 702000 2                  TSX2    ERRMSG

      275     6114    2        DO CASE(GD$MSG.FNC);

   6114  2 000074   000000 470400 xsym               LDP0    S_D_L6_MESSAGE$
         2 000075   000000 236100                    LDQ     0,,PR0
         2 000076   000034 772000                    QRL     28
         2 000077   000045 136007                    SBLQ    37,DL
         2 000100   000021 116007                    CMPQ    17,DL
         2 000101   000103 602006 2                  TNC     s:6114+7,QL
         2 000102   000417 710000 2                  TRA     s:6171
         2 000103   000124 710000 2                  TRA     s:6116
         2 000104   000124 710000 2                  TRA     s:6116
         2 000105   000417 710000 2                  TRA     s:6171
         2 000106   000417 710000 2                  TRA     s:6171
         2 000107   000417 710000 2                  TRA     s:6171
         2 000110   000417 710000 2                  TRA     s:6171
         2 000111   000417 710000 2                  TRA     s:6171
         2 000112   000417 710000 2                  TRA     s:6171
         2 000113   000417 710000 2                  TRA     s:6171
         2 000114   000417 710000 2                  TRA     s:6171
         2 000115   000417 710000 2                  TRA     s:6171
         2 000116   000342 710000 2                  TRA     s:6155
         2 000117   000417 710000 2                  TRA     s:6171
         2 000120   000417 710000 2                  TRA     s:6171
         2 000121   000417 710000 2                  TRA     s:6171
         2 000122   000346 710000 2                  TRA     s:6158
         2 000123   000327 710000 2                  TRA     s:6150

      276     6115    2          CASE(%GD#RSPMODLCT, %GD#RSPDISPLCT);

      277     6116    2             IF S_D.DO$ -> LCT$CMD.NEW_VALUE AND

   6116  2 000124   000000 471400 xsym               LDP1    S_D$
PL6.E3A0      #002=DFA$MLCT File=DFA$DLCT.:E05TSI                                TUE 07/29/97 14:29 Page:59
         2 000125   100031 473500                    LDP3    25,,PR1
         2 000126   300001 234100                    SZN     1,,PR3
         2 000127   000136 605000 2                  TPL     s:6122
         2 000130   000001 236100                    LDQ     1,,PR0
         2 000131   004000 316007                    CANQ    2048,DL
         2 000132   000136 601000 2                  TNZ     s:6122

      278     6117    2               GD$MSG.LCTMSG.FLAGS.SO = '0'B
      279     6118    3             THEN DO;

      280     6119    3                  S_D.ERROR = E@CANTMODLCT; /* E@CANTMODLCT */

   6119  2 000133   000521 235007                    LDA     337,DL
         2 000134   100013 755100                    STA     11,,PR1

      281     6120    3                  GOTO ARET;

   6120  2 000135   000444 710000 2                  TRA     ARET

      282     6121    3                END;
      283     6122    2             S_D.D$ = OUTPUT$;

   6122  2 000136   200007 236100                    LDQ     OUTPUT$,,AUTO
         2 000137   100044 756100                    STQ     36,,PR1

      284     6123    2             S_D.OUTPUT = ' ';

   6123  2 000140   040100 100400                    MLR     fill='040'O
         2 000141   000035 000001 xsym               ADSC9   B_VECTNIL+29             cn=0,n=1
         2 000142   105335 004000                    ADSC9   2781,,PR1                cn=0,n=2048

      285     6124    2             S_D.D$ -> CHAR5 = 'MLCT ';

   6124  2 000143   100044 474500                    LDP4    36,,PR1
         2 000144   040100 100400                    MLR     fill='040'O
         2 000145   000004 000005 1                  ADSC9   HEXCHARS+4               cn=0,n=5
         2 000146   400000 000005                    ADSC9   0,,PR4                   cn=0,n=5
PL6.E3A0      #002=DFA$MLCT File=DFA$DLCT.:E05TSI                                TUE 07/29/97 14:29 Page:60

      286     6125    2             S_D.D$ = PINCRC(S_D.D$, 5);

   6125  2 000147   100044 236100                    LDQ     36,,PR1
         2 000150   000004 036000 3                  ADLQ    4
         2 000151   100044 756100                    STQ     36,,PR1

      287     6126    2             CALL DDR$BINTXT (ADDR(CHAR_HOLD), S_D.DO$ -> LCT$CMD.LCT#, %X_FMT, SIZE);

   6126  2 000152   100031 473500                    LDP3    25,,PR1
         2 000153   200004 634500                    EPPR4   CHAR_HOLD,,AUTO
         2 000154   200024 454500                    STP4    K+2,,AUTO
         2 000155   200003 635500                    EPPR5   SIZE,,AUTO
         2 000156   200031 455500                    STP5    K+7,,AUTO
         2 000157   000006 236000 3                  LDQ     6
         2 000160   200030 756100                    STQ     K+6,,AUTO
         2 000161   300002 636500                    EPPR6   2,,PR3
         2 000162   200027 456500                    STP6    K+5,,AUTO
         2 000163   200024 633500                    EPPR3   K+2,,AUTO
         2 000164   200026 453500                    STP3    K+4,,AUTO
         2 000165   200026 630500                    EPPR0   K+4,,AUTO
         2 000166   000022 631400 xsym               EPPR1   B_VECTNIL+18
         2 000167   000000 701000 xent               TSX1    DDR$BINTXT
         2 000170   000000 011000                    NOP     0

      288     6127    2             S_D.D$ -> CHAR9 = CHAR_HOLD;

   6127  2 000171   000000 470400 xsym               LDP0    S_D$
         2 000172   000044 471500                    LDP1    36,,PR0
         2 000173   040100 100500                    MLR     fill='040'O
         2 000174   200004 000011                    ADSC9   CHAR_HOLD,,AUTO          cn=0,n=9
         2 000175   100000 000011                    ADSC9   0,,PR1                   cn=0,n=9

      289     6128    2             S_D.D$ = PINCRC(S_D.D$, SIZE);

   6128  2 000176   000044 471500                    LDP1    36,,PR0
         2 000177   200003 236100                    LDQ     SIZE,,AUTO
PL6.E3A0      #002=DFA$MLCT File=DFA$DLCT.:E05TSI                                TUE 07/29/97 14:29 Page:61
         2 000200   000011 402007                    MPY     9,DL
         2 000201   100000 503506                    ABD     0,QL,PR1
         2 000202   000044 451500                    STP1    36,,PR0

      290     6129    2             S_D.D$ -> CHAR2 = ' .';

   6129  2 000203   040100 100400                    MLR     fill='040'O
         2 000204   000006 000002 1                  ADSC9   HEXCHARS+6               cn=0,n=2
         2 000205   100000 000002                    ADSC9   0,,PR1                   cn=0,n=2

      291     6130    2             S_D.D$ = PINCRC(S_D.D$, 2);

   6130  2 000206   000044 236100                    LDQ     36,,PR0
         2 000207   400000 036007                    ADLQ    -131072,DL
         2 000210   000044 756100                    STQ     36,,PR0

      292     6131    2             SAVE_VAL.V = GD$MSG.LCTMSG.NEWMEM;

   6131  2 000211   000000 471400 xsym               LDP1    S_D_L6_MESSAGE$
         2 000212   100001 236100                    LDQ     1,,PR1
         2 000213   000030 772000                    QRL     24
         2 000214   200010 676100                    ERQ     SAVE_VAL,,AUTO
         2 000215   000377 376007                    ANQ     255,DL
         2 000216   200010 656100                    ERSQ    SAVE_VAL,,AUTO

      293     6132    2             CALL HEX_9_OUT (SAVE_VAL);

   6132  2 000217   200010 633500                    EPPR3   SAVE_VAL,,AUTO
         2 000220   200021 453500                    STP3    TEMP2+7,,AUTO
         2 000221   000451 701000 2                  TSX1    HEX_9_OUT
         2 000222   000000 011000                    NOP     0

      294     6133    2             IF S_D.DO$ -> LCT$CMD.NEW_VALUE

   6133  2 000223   000000 470400 xsym               LDP0    S_D$
         2 000224   000031 471500                    LDP1    25,,PR0
         2 000225   100001 234100                    SZN     1,,PR1
PL6.E3A0      #002=DFA$MLCT File=DFA$DLCT.:E05TSI                                TUE 07/29/97 14:29 Page:62
         2 000226   000302 605000 2                  TPL     s:6144

      295     6134    3             THEN DO;

      296     6135    3                  SAVE_VAL.V = GD$MSG.LCTMSG.OLDMEM;

   6135  2 000227   000000 473400 xsym               LDP3    S_D_L6_MESSAGE$
         2 000230   300000 235100                    LDA     0,,PR3
         2 000231   300001 236100                    LDQ     1,,PR3
         2 000232   000040 773000                    LRL     32
         2 000233   000377 376007                    ANQ     255,DL
         2 000234   200010 676100                    ERQ     SAVE_VAL,,AUTO
         2 000235   000377 376007                    ANQ     255,DL
         2 000236   200010 656100                    ERSQ    SAVE_VAL,,AUTO

      297     6136    3                  S_D.D$ -> CHAR3 = ' (.';

   6136  2 000237   000044 474500                    LDP4    36,,PR0
         2 000240   040100 100400                    MLR     fill='040'O
         2 000241   000007 000003 1                  ADSC9   HEXCHARS+7               cn=0,n=3
         2 000242   400000 000003                    ADSC9   0,,PR4                   cn=0,n=3

      298     6137    3                  S_D.D$ = PINCRC(S_D.D$, 3);

   6137  2 000243   000044 236100                    LDQ     36,,PR0
         2 000244   600000 036007                    ADLQ    -65536,DL
         2 000245   000044 756100                    STQ     36,,PR0

      299     6138    3                  CALL HEX_9_OUT (SAVE_VAL);

   6138  2 000246   200010 631500                    EPPR1   SAVE_VAL,,AUTO
         2 000247   200021 451500                    STP1    TEMP2+7,,AUTO
         2 000250   000451 701000 2                  TSX1    HEX_9_OUT
         2 000251   000000 011000                    NOP     0

      300     6139    3                  S_D.D$ -> CHAR1 = ')';

PL6.E3A0      #002=DFA$MLCT File=DFA$DLCT.:E05TSI                                TUE 07/29/97 14:29 Page:63
   6139  2 000252   000000 470400 xsym               LDP0    S_D$
         2 000253   000044 471500                    LDP1    36,,PR0
         2 000254   040100 100400                    MLR     fill='040'O
         2 000255   000007 000001 3                  ADSC9   7                        cn=0,n=1
         2 000256   100000 000001                    ADSC9   0,,PR1                   cn=0,n=1

      301     6140    3                  S_D.D$ = PINCRC(S_D.D$, 1);

   6140  2 000257   000044 236100                    LDQ     36,,PR0
         2 000260   200000 036007                    ADLQ    65536,DL
         2 000261   000044 756100                    STQ     36,,PR0

      302     6141    3                  CALL DDQ$WRITED (OUTPUT$, POFFC(S_D.D$, OUTPUT$));

   6141  2 000262   200007 236100                    LDQ     OUTPUT$,,AUTO
         2 000263   000020 772000                    QRL     16
         2 000264   200024 756100                    STQ     K+2,,AUTO
         2 000265   000044 236100                    LDQ     36,,PR0
         2 000266   000020 772000                    QRL     16
         2 000267   200024 136100                    SBLQ    K+2,,AUTO
         2 000270   200025 756100                    STQ     K+3,,AUTO
         2 000271   200025 631500                    EPPR1   K+3,,AUTO
         2 000272   200027 451500                    STP1    K+5,,AUTO
         2 000273   200007 633500                    EPPR3   OUTPUT$,,AUTO
         2 000274   200026 453500                    STP3    K+4,,AUTO
         2 000275   200026 630500                    EPPR0   K+4,,AUTO
         2 000276   000020 631400 xsym               EPPR1   B_VECTNIL+16
         2 000277   000000 701000 xent               TSX1    DDQ$WRITED
         2 000300   000000 011000                    NOP     0

      303     6142    3                END;

   6142  2 000301   000443 710000 2                  TRA     s:6180

      304     6143    3             ELSE DO;

      305     6144    3                  S_D.MACTIVE = '1'B;
PL6.E3A0      #002=DFA$MLCT File=DFA$DLCT.:E05TSI                                TUE 07/29/97 14:29 Page:64

   6144  2 000302   400000 236003                    LDQ     -131072,DU
         2 000303   000713 756100                    STQ     459,,PR0

      306     6145    3                  S_D.MLCT = '1'B;

   6145  2 000304   005323 756100                    STQ     2771,,PR0

      307     6146    3                  S_D.LCTNUM = S_D.DO$ -> LCT$CMD.LCT#;

   6146  2 000305   100002 235100                    LDA     2,,PR1
         2 000306   005322 755100                    STA     2770,,PR0

      308     6147    3                  CALL DDQ$WRITENU (OUTPUT$, POFFC(S_D.D$, OUTPUT$));

   6147  2 000307   200007 236100                    LDQ     OUTPUT$,,AUTO
         2 000310   000020 772000                    QRL     16
         2 000311   200024 756100                    STQ     K+2,,AUTO
         2 000312   000044 236100                    LDQ     36,,PR0
         2 000313   000020 772000                    QRL     16
         2 000314   200024 136100                    SBLQ    K+2,,AUTO
         2 000315   200025 756100                    STQ     K+3,,AUTO
         2 000316   200025 633500                    EPPR3   K+3,,AUTO
         2 000317   200027 453500                    STP3    K+5,,AUTO
         2 000320   200007 634500                    EPPR4   OUTPUT$,,AUTO
         2 000321   200026 454500                    STP4    K+4,,AUTO
         2 000322   200026 630500                    EPPR0   K+4,,AUTO
         2 000323   000020 631400 xsym               EPPR1   B_VECTNIL+16
         2 000324   000000 701000 xent               TSX1    DDQ$WRITENU
         2 000325   000000 011000                    NOP     0

      309     6148    3                END;

   6148  2 000326   000443 710000 2                  TRA     s:6180

      310     6149    2          CASE(%GD#RSPBADMLCCALL);

PL6.E3A0      #002=DFA$MLCT File=DFA$DLCT.:E05TSI                                TUE 07/29/97 14:29 Page:65
      311     6150    2             IF GD$MSG.LCTMSG.FLAGS.BLN

   6150  2 000327   000001 236100                    LDQ     1,,PR0
         2 000330   020000 316007                    CANQ    8192,DL
         2 000331   000336 600000 2                  TZE     s:6152

      312     6151    2             THEN S_D.ERROR = E@BADADDR;   /* E@BADADDR */

   6151  2 000332   000123 235007                    LDA     83,DL
         2 000333   000000 471400 xsym               LDP1    S_D$
         2 000334   100013 755100                    STA     11,,PR1
         2 000335   000341 710000 2                  TRA     s:6153

      313     6152    2             ELSE S_D.ERROR = E@LINEDEAD;  /* E@LINEDEAD */

   6152  2 000336   000520 235007                    LDA     336,DL
         2 000337   000000 471400 xsym               LDP1    S_D$
         2 000340   100013 755100                    STA     11,,PR1

      314     6153    2             GOTO ARET;

   6153  2 000341   000444 710000 2                  TRA     ARET

      315     6154    2          CASE(%GD#RSPBADMSG);

      316     6155    2             S_D.ERROR = E@BADMSG;         /* E@BADMSG */

   6155  2 000342   000512 235007                    LDA     330,DL
         2 000343   000000 471400 xsym               LDP1    S_D$
         2 000344   100013 755100                    STA     11,,PR1

      317     6156    2             GOTO ARET;

   6156  2 000345   000444 710000 2                  TRA     ARET

      318     6157    2          CASE(%GD#RSPNAK);

PL6.E3A0      #002=DFA$MLCT File=DFA$DLCT.:E05TSI                                TUE 07/29/97 14:29 Page:66
      319     6158    2             IF S_D.CURRENT_FPRG_CONTEXT$ -> FPRG$CONTEXT.XDELTA

   6158  2 000346   000000 471400 xsym               LDP1    S_D$
         2 000347   100102 473500                    LDP3    66,,PR1
         2 000350   300001 236100                    LDQ     1,,PR3
         2 000351   002000 316003                    CANQ    1024,DU
         2 000352   000406 600000 2                  TZE     s:6167

      320     6159    3             THEN DO;

      321     6160    3                  TEMP1 = BITBIN(GD$MSG.ERROR_D.ERRCODE);

   6160  2 000353   000000 235100                    LDA     0,,PR0
         2 000354   000001 236100                    LDQ     1,,PR0
         2 000355   000030 773000                    LRL     24
         2 000356   000010 376000 3                  ANQ     8
         2 000357   200011 756100                    STQ     TEMP$,,AUTO

      322     6161    3                  TEMP2B.B1 = TEMP1B.B1;

   6161  2 000360   200011 236100                    LDQ     TEMP$,,AUTO
         2 000361   000003 736000                    QLS     3
         2 000362   200012 676100                    ERQ     TEMP2,,AUTO
         2 000363   377000 376003                    ANQ     130560,DU
         2 000364   200012 656100                    ERSQ    TEMP2,,AUTO

      323     6162    3                  TEMP2B.B2 = TEMP1B.B2;

   6162  2 000365   200011 236100                    LDQ     TEMP$,,AUTO
         2 000366   000002 736000                    QLS     2
         2 000367   200012 676100                    ERQ     TEMP2,,AUTO
         2 000370   000377 376003                    ANQ     255,DU
         2 000371   200012 656100                    ERSQ    TEMP2,,AUTO

      324     6163    3                  TEMP2B.B3 = TEMP1B.B3;

   6163  2 000372   200011 236100                    LDQ     TEMP$,,AUTO
PL6.E3A0      #002=DFA$MLCT File=DFA$DLCT.:E05TSI                                TUE 07/29/97 14:29 Page:67
         2 000373   000001 736000                    QLS     1
         2 000374   200012 676100                    ERQ     TEMP2,,AUTO
         2 000375   377000 376007                    ANQ     130560,DL
         2 000376   200012 656100                    ERSQ    TEMP2,,AUTO

      325     6164    3                  TEMP2B.B4 = TEMP1B.B4;

   6164  2 000377   200011 236100                    LDQ     TEMP$,,AUTO
         2 000400   200012 676100                    ERQ     TEMP2,,AUTO
         2 000401   000377 376007                    ANQ     255,DL
         2 000402   200012 656100                    ERSQ    TEMP2,,AUTO

      326     6165    3                  S_D.JDE = TEMP2;

   6165  2 000403   200012 235100                    LDA     TEMP2,,AUTO
         2 000404   104733 755100                    STA     2523,,PR1

      327     6166    3                END;

   6166  2 000405   000413 710000 2                  TRA     s:6168

      328     6167    2             ELSE S_D.JDE = BITBIN(GD$MSG_HOST.ERROR_D.ERRCODE);

   6167  2 000406   000000 474400 xsym               LDP4    S_D_HOST_MESSAGE$
         2 000407   400000 235100                    LDA     0,,PR4
         2 000410   400001 236100                    LDQ     1,,PR4
         2 000411   000022 773000                    LRL     18
         2 000412   104733 756100                    STQ     2523,,PR1

      329     6168    2             CALL DUE$GERRMSG;

   6168  2 000413   000002 631400 xsym               EPPR1   B_VECTNIL+2
         2 000414   000000 701000 xent               TSX1    DUE$GERRMSG
         2 000415   000000 011000                    NOP     0

      330     6169    2             RETURN;

PL6.E3A0      #002=DFA$MLCT File=DFA$DLCT.:E05TSI                                TUE 07/29/97 14:29 Page:68
   6169  2 000416   000000 702200 xent               TSX2  ! X66_ARET

      331     6170    2          CASE(ELSE);

      332     6171    2             REMEMBER NEVER IN S_D.SCREECH_IC;

   6171  2 000417   000427 635000 2                  EAA     NEVER
         2 000420   000000 471400 xsym               LDP1    S_D$
         2 000421   105250 452500                    STP2    2728,,PR1
         2 000422   105251 755100                    STA     2729,,PR1

      333     6172    2             CALL M$SCREECH (SNAP_MESSAGE) ALTRET(NEVER);

   6172  2 000423   000000 630400 xsym               EPPR0   SNAP_MESSAGE
         2 000424   400013 713400                    CLIMB   alt,+11
         2 000425   401000 401760                    pmme    nvectors=3
         2 000426   000427 702000 2                  TSX2    NEVER

      334     6173    2   NEVER:
      335     6174    2             S_D.ERROR = E@BADMESSAGE;     /* E@BADMESSAGE */

   6174  2 000427   001014 235007       NEVER        LDA     524,DL
         2 000430   000000 470400 xsym               LDP0    S_D$
         2 000431   000013 755100                    STA     11,,PR0

      336     6175    2             CALL DDE$ERROR;

   6175  2 000432   000002 631400 xsym               EPPR1   B_VECTNIL+2
         2 000433   000000 701000 xent               TSX1    DDE$ERROR
         2 000434   000000 011000                    NOP     0

      337     6176    2             S_D.ERROR = E@DELBUG;         /* E@DELBUG */

   6176  2 000435   000766 235007                    LDA     502,DL
         2 000436   000000 470400 xsym               LDP0    S_D$
         2 000437   000013 755100                    STA     11,,PR0

PL6.E3A0      #002=DFA$MLCT File=DFA$DLCT.:E05TSI                                TUE 07/29/97 14:29 Page:69
      338     6177    2             CALL DDE$ERROR;

   6177  2 000440   000002 631400 xsym               EPPR1   B_VECTNIL+2
         2 000441   000000 701000 xent               TSX1    DDE$ERROR
         2 000442   000000 011000                    NOP     0

      339     6178    2          END;

      340     6179
      341     6180    1        RETURN;

   6180  2 000443   000000 702200 xent               TSX2  ! X66_ARET

      342     6181
      343     6182    1   ARET: ALTRETURN;

   6182  2 000444   000000 702200 xent  ARET         TSX2  ! X66_AALT

      344     6183
      345     6184    1   ERRMSG:
      346     6185    1        CALL DUE$ERRMSG;

   6185  2 000445   000002 631400 xsym  ERRMSG       EPPR1   B_VECTNIL+2
         2 000446   000000 701000 xent               TSX1    DUE$ERRMSG
         2 000447   000000 011000                    NOP     0

      347     6186    1        RETURN;

   6186  2 000450   000000 702200 xent               TSX2  ! X66_ARET

      348     6187        %EJECT;
PL6.E3A0      #002=DFA$MLCT File=DFA$DLCT.:E05TSI                                TUE 07/29/97 14:29 Page:70
      349     6188    1   HEX_9_OUT: PROC(VAL);

   6188  2 000451   200020 741300       HEX_9_OUT    STX1  ! TEMP2+6,,AUTO

      350     6189        /* Convert the right 16 bits of a 36-bit ubin into 4 hex digits where
      351     6190           S_D.D$ points.  */
      352     6191
      353     6192    2   DCL VAL UBIN;
      354     6193    2   DCL 1 XVAL REDEF VAL,
      355     6194    2         2 * BIT(28) UNAL,
      356     6195    2         2 H ( 0:1 ) UBIN (4) UNAL;
      357     6196    2   DCL K UBIN;
      358     6197    2   DCL HEXCHARS(0:15) CHAR(1) CONSTANT INIT(
      359     6198    2        '0','1','2','3','4','5','6','7','8','9','A','B','C','D','E','F');
      360     6199    2   DCL CHAR1 CHAR(1) BASED;
      361     6200
      362     6201    3        DO K = 0 TO 1;

   6201  2 000452   200022 450100                    STZ     K,,AUTO

      363     6202    3             S_D.D$ -> CHAR1 = HEXCHARS(XVAL.H(K));

   6202  2 000453   000000 470400 xsym               LDP0    S_D$
         2 000454   000044 471500                    LDP1    36,,PR0
         2 000455   200022 235100                    LDA     K,,AUTO
         2 000456   000002 735000                    ALS     2
         2 000457   200021 473500                    LDP3    @VAL,,AUTO
         2 000460   003100 061505                    CSR     bolr='003'O
         2 000461   300000 610004                    BDSC    0,A,PR3                  by=3,bit=1,n=4
         2 000462   200024 000044                    BDSC    K+2,,AUTO                by=0,bit=0,n=36
         2 000463   200024 236100                    LDQ     K+2,,AUTO
         2 000464   040100 100406                    MLR     fill='040'O
         2 000465   000000 000001 1                  ADSC9   HEXCHARS,Q               cn=0,n=1
         2 000466   100000 000001                    ADSC9   0,,PR1                   cn=0,n=1

      364     6203    3             S_D.D$ = PINCRC(S_D.D$, 1);

PL6.E3A0      #002=DFA$MLCT File=DFA$DLCT.:E05TSI                                TUE 07/29/97 14:29 Page:71
   6203  2 000467   000044 236100                    LDQ     36,,PR0
         2 000470   200000 036007                    ADLQ    65536,DL
         2 000471   000044 756100                    STQ     36,,PR0

      365     6204    3           END;

   6204  2 000472   200022 235100                    LDA     K,,AUTO
         2 000473   000001 035007                    ADLA    1,DL
         2 000474   200022 755100                    STA     K,,AUTO
         2 000475   000002 115007                    CMPA    2,DL
         2 000476   000453 602000 2                  TNC     s:6202

      366     6205    2        RETURN;

   6205  2 000477   200020 221300                    LDX1  ! TEMP2+6,,AUTO
         2 000500   000001 702211                    TSX2  ! 1,X1

HEXCHARS
 Sect OctLoc
   1     000   060061 062063   064065 066067   070071 101102   103104 105106    0123456789ABCDEF

(unnamed)
 Sect OctLoc
   1     004   115114 103124   040040 040040   040056 040040   040050 056040    MLCT     .   (.

(unnamed)
 Sect OctLoc
   3     000   001777 777777   000003 777760   000077 600000   000002 006000    .........?......
   3     004   000001 200000   000000 000015   000005 006000   051040 040040    ............)
   3     010   037777 777777                                                    ....
      367     6206    2   END HEX_9_OUT;
      368     6207    1   END DFA$MLCT;
      369     6208        %EOD;

PL6.E3A0      #002=DFA$MLCT File=DFA$DLCT.:E05TSI                                TUE 07/29/97 14:29 Page:72
--  Include file information  --

   DD$BASED.:E05TOU  is referenced.
   DD_SRTN_C.:E05TOU  is referenced.
   DD_ACODE_C.:E05TOU  is referenced.
   DD_ICODE_C.:E05TOU  is referenced.
   DD$DITEM.:E05TOU  cannot be made into a system file and is referenced.
   GD_EQUS_E.:E05TOU  is referenced.
   GD$MSG_M.:E05TOU  is referenced.
   DD_ERR_C.:E05TOU  is referenced.
   DD_SD_M.:E05TOU  is referenced.
   XUH_MACRO_C.:E05TOU  is referenced.
   DU_SCODE_C.:E05TOU  is referenced.
   CP_6.:E05TOU  cannot be made into a system file and is referenced.
   B$JIT_C.:E05TOU  was found in the system file and is never referenced.
   CP_6_C.:E05TOU  was found in the system file and is referenced.
      No diagnostics issued in procedure DFA$MLCT.

   Procedure DFA$MLCT requires 321 words for executable code.
   Procedure DFA$MLCT requires 26 words of local(AUTO) storage.
PL6.E3A0      #002=DFA$MLCT File=DFA$DLCT.:E05TSI                                TUE 07/29/97 14:29 Page:73
          *** CROSS REFERENCE LISTING ***
**     DENOTES     IDENTIFIER DEFINITION
<<                 IDENTIFIER'S VALUE SET
>>                 IDENTIFIER'S VALUE USED
<>                 IDENTIFIER SET AND/OR USED
--                 IDENTIFIER REFERENCED
PL6.E3A0      #002=DFA$MLCT File=DFA$DLCT.:E05TSI                                TUE 07/29/97 14:29 Page:74
          MINI XREF LISTING

ARET
      6182**LABEL    6103--GOTO     6120--GOTO     6153--GOTO     6156--GOTO
CHAR1
        22**DCL      6139<<ASSIGN
CHAR1 IN PROCEDURE HEX_9_OUT
      6199**DCL      6202<<ASSIGN
CHAR2
        18**DCL      6129<<ASSIGN
CHAR3
        20**DCL      6136<<ASSIGN
CHAR5
        21**DCL      6124<<ASSIGN
CHAR9
        19**DCL      6127<<ASSIGN
CHAR_HOLD
        17**DCL      6126--CALL     6127>>ASSIGN
DDE$ERROR
      6087**DCL-ENT  6175--CALL     6177--CALL
DDQ$WRITED
      6088**DCL-ENT  6141--CALL
DDQ$WRITENU
      6089**DCL-ENT  6147--CALL
DDR$BINTXT
      6090**DCL-ENT  6126--CALL
DFQ$READ_FD
      6091**DCL-ENT  6113--CALL
DFQ$WRITE_FD
      6092**DCL-ENT  6112--CALL
DUE$ERRMSG
      6093**DCL-ENT  6185--CALL
DUE$GERRMSG
      6094**DCL-ENT  6168--CALL
PL6.E3A0      #002=DFA$MLCT File=DFA$DLCT.:E05TSI                                TUE 07/29/97 14:29 Page:75
D_M$DO#
      6085**DCL      6096>>ASSIGN
ERRMSG
      6185**LABEL    6112--CALLALT  6113--CALLALT
FPRG$CONTEXT.XDELTA
      6036**DCL      6158>>IF
GD$MSG
      3568**DCL      6098<<ASSIGN
GD$MSG.BRKRQS.IF$CONST.SIZE
      3619**DCL      3619--REDEF
GD$MSG.BRKRQS.IF$CONST.TEXT
      3619**DCL      3620--REDEF    3620--REDEF    3621--REDEF    3622--REDEF
GD$MSG.BRKRSP.BRK#
      3633**DCL      3633--REDEF
GD$MSG.BRKRSP.USER#
      3633**DCL      3633--REDEF
GD$MSG.ERROR_D.ERRCODE
      3574**DCL      6160>>ASSIGN
GD$MSG.FNC
      3568**DCL      6099<<ASSIGN   6110<<ASSIGN   6114>>DOCASE
GD$MSG.LCTMSG.CHANNEL
      3674**DCL      6105<<ASSIGN
GD$MSG.LCTMSG.FLAGS.BLN
      3680**DCL      6150>>IF
GD$MSG.LCTMSG.FLAGS.SO
      3680**DCL      6116>>IF
GD$MSG.LCTMSG.LCTNUM
      3676**DCL      6106<<ASSIGN
GD$MSG.LCTMSG.NEWMEM
      3676**DCL      6109<<ASSIGN   6131>>ASSIGN
GD$MSG.LCTMSG.OLDMEM
      3676**DCL      6135>>ASSIGN
GD$MSG.LETMEM_D.VALUE.SIZE
      3591**DCL      3591--REDEF
GD$MSG.LETMEM_D.VALUE.TEXT
      3592**DCL      3592--REDEF    3592--REDEF    3593--REDEF    3594--REDEF
PL6.E3A0      #002=DFA$MLCT File=DFA$DLCT.:E05TSI                                TUE 07/29/97 14:29 Page:76
GD$MSG.MESSAGE
      3573**DCL      3573--REDEF    3574--REDEF    3574--REDEF    3575--REDEF    3586--REDEF    3599--REDEF
      3604--REDEF    3611--REDEF    3627--REDEF    3632--REDEF    3638--REDEF    3639--REDEF    3668--REDEF
      3670--REDEF    3681--REDEF    3688--REDEF    3700--REDEF
GD$MSG.SUBFNC
      3568**DCL      3568--REDEF    3572--REDEF
GD$MSG.TSA.I
      3640**DCL      3640--REDEF
GD$MSG.TSA.S
      3642**DCL      3642--REDEF
GD$MSG.USERQS.ASDT$
      3668**DCL      3668--REDEF    3669--REDEF
GD$MSG_HOST.BRKRQS.IF$CONST.SIZE
      3775**DCL      3775--REDEF
GD$MSG_HOST.BRKRQS.IF$CONST.TEXT
      3775**DCL      3776--REDEF    3776--REDEF    3777--REDEF    3778--REDEF
GD$MSG_HOST.BRKRSP.BRK#
      3789**DCL      3789--REDEF
GD$MSG_HOST.BRKRSP.USER#
      3789**DCL      3789--REDEF
GD$MSG_HOST.ERROR_D.ERRCODE
      3730**DCL      6167>>ASSIGN
GD$MSG_HOST.LETMEM_D.VALUE.SIZE
      3747**DCL      3747--REDEF
GD$MSG_HOST.LETMEM_D.VALUE.TEXT
      3748**DCL      3748--REDEF    3748--REDEF    3749--REDEF    3750--REDEF
GD$MSG_HOST.MESSAGE
      3729**DCL      3729--REDEF    3730--REDEF    3730--REDEF    3731--REDEF    3742--REDEF    3755--REDEF
      3760--REDEF    3767--REDEF    3783--REDEF    3788--REDEF    3794--REDEF    3795--REDEF    3824--REDEF
      3826--REDEF    3837--REDEF    3844--REDEF    3856--REDEF
GD$MSG_HOST.SUBFNC
      3724**DCL      3724--REDEF    3728--REDEF
GD$MSG_HOST.TSA.I
      3796**DCL      3796--REDEF
GD$MSG_HOST.TSA.S
      3798**DCL      3798--REDEF
PL6.E3A0      #002=DFA$MLCT File=DFA$DLCT.:E05TSI                                TUE 07/29/97 14:29 Page:77
GD$MSG_HOST.USERQS.ASDT$
      3824**DCL      3824--REDEF    3825--REDEF
HEXCHARS IN PROCEDURE HEX_9_OUT
      6197**DCL      6202>>ASSIGN
HEX_9_OUT
      6188**PROC     6132--CALL     6138--CALL
K IN PROCEDURE HEX_9_OUT
      6196**DCL      6201<<DOINDEX  6202>>ASSIGN
LCT$CMD.LCT#
      6018**DCL      6019--REDEF    6106>>ASSIGN   6126<>CALL     6146>>ASSIGN
LCT$CMD.LCT_NEW_VALUE
      6020**DCL      6109>>ASSIGN
LCT$CMD.NEW_VALUE
      6013**DCL      6107>>IF       6116>>IF       6133>>IF
M$SCREECH
        69**DCL-ENT  6172--CALL
NEVER
      6174**LABEL    6171--REMEMBR  6172--CALLALT
OUTPUT$
        23**DCL      6097<<ASSIGN   6122>>ASSIGN   6141<>CALL     6141>>CALL     6147<>CALL     6147>>CALL
SAVE_VAL
        24**DCL      6132<>CALL     6138<>CALL
SAVE_VAL.V
        26**DCL      6131<<ASSIGN   6135<<ASSIGN
SIZE
        16**DCL      6126<>CALL     6128>>ASSIGN
SNAP_MESSAGE
       151**DCL      6172<>CALL
S_D.CURRENT_CHANNEL
      2587**DCL      2589--REDEF    6100>>IF
S_D.CURRENT_CHANNEL_R.CHAN
      2591**DCL      6105>>ASSIGN
S_D.CURRENT_FPRG_CONTEXT$
      1787**DCL      6112<>CALL     6113<>CALL     6158>>IF
S_D.D$
      1725**DCL      6122<<ASSIGN   6124>>ASSIGN   6125<<ASSIGN   6125>>ASSIGN   6127>>ASSIGN   6128<<ASSIGN
PL6.E3A0      #002=DFA$MLCT File=DFA$DLCT.:E05TSI                                TUE 07/29/97 14:29 Page:78
      6128>>ASSIGN   6129>>ASSIGN   6130<<ASSIGN   6130>>ASSIGN   6136>>ASSIGN   6137<<ASSIGN   6137>>ASSIGN
      6139>>ASSIGN   6140<<ASSIGN   6140>>ASSIGN   6141>>CALL     6147>>CALL     6202>>ASSIGN   6203<<ASSIGN
      6203>>ASSIGN
S_D.DEBUGA
      1739**DCL      1741--REDEF
S_D.DO$
      1690**DCL      6106>>ASSIGN   6107>>IF       6109>>ASSIGN   6116>>IF       6126>>CALL     6133>>IF
      6146>>ASSIGN
S_D.DUMPDCB
      2393**DCL      6096<<ASSIGN
S_D.EIS
      2697**DCL      2726--REDEF
S_D.ERROR
      1668**DCL      6102<<ASSIGN   6119<<ASSIGN   6151<<ASSIGN   6152<<ASSIGN   6155<<ASSIGN   6174<<ASSIGN
      6176<<ASSIGN
S_D.HOST_MESSAGE_BUF_REMOTE
      2630**DCL      2631--REDEF    2645--REDEF
S_D.JDE
      2244**DCL      2245--REDEF    6165<<ASSIGN   6167<<ASSIGN
S_D.L$.VALUE
      1797**DCL      1803--REDEF    1811--REDEF    1814--REDEF    1817--REDEF    1820--REDEF
S_D.L$.VALUE.L
      1798**DCL      1799--REDEF    1800--REDEF
S_D.L6_MESSAGE_BUF
      2651**DCL      2653--REDEF
S_D.LCTNUM
      2592**DCL      6146<<ASSIGN
S_D.MACTIVE
      1908**DCL      6144<<ASSIGN
S_D.MLCT
      2594**DCL      6145<<ASSIGN
S_D.OUTPUT
      2617**DCL      2619--REDEF    6097--ASSIGN   6123<<ASSIGN
S_D.REMOTE_MSG.FNCC
      2636**DCL      2637--REDEF
S_D.REMOTE_MSG.STXC
PL6.E3A0      #002=DFA$MLCT File=DFA$DLCT.:E05TSI                                TUE 07/29/97 14:29 Page:79
      2632**DCL      2633--REDEF
S_D.REMOTE_MSG.SUBFNCC
      2640**DCL      2641--REDEF
S_D.SCREECH_IC
      2488**DCL      6171<<REMEMBR
S_D.SV
      1696**DCL      1717--REDEF
S_D$
      2948**DCL      1644--IMP-PTR  6096>>ASSIGN   6097>>ASSIGN   6100>>IF       6102>>ASSIGN   6105>>ASSIGN
      6106>>ASSIGN   6107>>IF       6109>>ASSIGN   6112>>CALL     6113>>CALL     6116>>IF       6119>>ASSIGN
      6122>>ASSIGN   6123>>ASSIGN   6124>>ASSIGN   6125>>ASSIGN   6125>>ASSIGN   6126>>CALL     6127>>ASSIGN
      6128>>ASSIGN   6128>>ASSIGN   6129>>ASSIGN   6130>>ASSIGN   6130>>ASSIGN   6133>>IF       6136>>ASSIGN
      6137>>ASSIGN   6137>>ASSIGN   6139>>ASSIGN   6140>>ASSIGN   6140>>ASSIGN   6141>>CALL     6144>>ASSIGN
      6145>>ASSIGN   6146>>ASSIGN   6146>>ASSIGN   6147>>CALL     6151>>ASSIGN   6152>>ASSIGN   6155>>ASSIGN
      6158>>IF       6165>>ASSIGN   6167>>ASSIGN   6171>>REMEMBR  6174>>ASSIGN   6176>>ASSIGN   6202>>ASSIGN
      6203>>ASSIGN   6203>>ASSIGN
S_D_HOST_MESSAGE$
      2984**DCL      3724--IMP-PTR  6167>>ASSIGN
S_D_L6_MESSAGE$
      2985**DCL      3568--IMP-PTR  6098>>ASSIGN   6099>>ASSIGN   6105>>ASSIGN   6106>>ASSIGN   6109>>ASSIGN
      6110>>ASSIGN   6114>>DOCASE   6116>>IF       6131>>ASSIGN   6135>>ASSIGN   6150>>IF       6160>>ASSIGN
TEMP$
        27**DCL        28--REDEF      29--REDEF
TEMP1
        28**DCL      6160<<ASSIGN
TEMP1B.B1
        31**DCL      6161>>ASSIGN
TEMP1B.B2
        32**DCL      6162>>ASSIGN
TEMP1B.B3
        33**DCL      6163>>ASSIGN
TEMP1B.B4
        34**DCL      6164>>ASSIGN
TEMP2
        35**DCL        36--REDEF    6165>>ASSIGN
TEMP2B.B1
PL6.E3A0      #002=DFA$MLCT File=DFA$DLCT.:E05TSI                                TUE 07/29/97 14:29 Page:80
        38**DCL      6161<<ASSIGN
TEMP2B.B2
        40**DCL      6162<<ASSIGN
TEMP2B.B3
        42**DCL      6163<<ASSIGN
TEMP2B.B4
        44**DCL      6164<<ASSIGN
VAL IN PROCEDURE HEX_9_OUT
      6192**DCL      6188--PROC     6193--REDEF
XVAL.H IN PROCEDURE HEX_9_OUT
      6195**DCL      6202>>ASSIGN
PL6.E3A0      #002=DFA$MLCT File=DFA$DLCT.:E05TSI                                TUE 07/29/97 14:29 Page:81
              *** CROSS REFERENCE LISTING ***
    **     DENOTES     IDENTIFIER DEFINITION
    <<                 IDENTIFIER'S VALUE SET
    >>                 IDENTIFIER'S VALUE USED
    <>                 IDENTIFIER SET AND/OR USED
    --                 IDENTIFIER REFERENCED
PL6.E3A0      #002=DFA$MLCT File=DFA$DLCT.:E05TSI                                TUE 07/29/97 14:29 Page:82
              MINI UREF LISTING

DFA$MLCT      13**PROC
M$ACCT      72**DCL-ENT
M$ACTIVATE      75**DCL-ENT
M$ALIB      68**DCL-ENT
M$ASUSER      70**DCL-ENT
M$ATTACH      77**DCL-ENT
M$BADPP      95**DCL-ENT
M$CGCTL      76**DCL-ENT
M$CGINFO      76**DCL-ENT
M$CHECK      57**DCL-ENT
M$CHGUNIT     115**DCL-ENT
M$CLOSE      55**DCL-ENT
M$CLRSTK     113**DCL-ENT
M$CMDVAR     124**DCL-ENT
M$CONFIG      85**DCL-ENT
M$CORRES      60**DCL-ENT
M$CPEXIT      69**DCL-ENT
M$CVM      93**DCL-ENT
M$CVOL      58**DCL-ENT
M$DCLFLD      85**DCL-ENT
M$DEACTIVATE      75**DCL-ENT
M$DELREC      57**DCL-ENT
M$DEQ     122**DCL-ENT
M$DETACH      77**DCL-ENT
M$DEVICE      59**DCL-ENT
M$DISPLAY     122**DCL-ENT
M$DISPRES      62**DCL-ENT
M$DLIB      68**DCL-ENT
M$DRIBBLE      85**DCL-ENT
M$DRTN     113**DCL-ENT
M$DSUSER      70**DCL-ENT
M$ENQ     121**DCL-ENT
PL6.E3A0      #002=DFA$MLCT File=DFA$DLCT.:E05TSI                                TUE 07/29/97 14:29 Page:83
M$EOM      80**DCL-ENT
M$ERASE      86**DCL-ENT
M$ERR      67**DCL-ENT
M$ERRMSG     118**DCL-ENT
M$EVENT     110**DCL-ENT
M$EXHUME     119**DCL-ENT
M$EXIT      67**DCL-ENT
M$EXTEND      59**DCL-ENT
M$FDP      91**DCL-ENT
M$FDS      90**DCL-ENT
M$FEBOOT      83**DCL-ENT
M$FECTL      84**DCL-ENT
M$FEDUMP      83**DCL-ENT
M$FID     118**DCL-ENT
M$FINDPROC      72**DCL-ENT
M$FSUSER      70**DCL-ENT
M$FVP      92**DCL-ENT
M$FWCG      76**DCL-ENT
M$GBPL      96**DCL-ENT
M$GDDL      92**DCL-ENT
M$GDP      91**DCL-ENT
M$GDS      90**DCL-ENT
M$GETDCB      61**DCL-ENT
M$GETMOUSE     101**DCL-ENT
M$GETPM     102**DCL-ENT
M$GJOB     120**DCL-ENT
M$GLINEATTR      80**DCL-ENT
M$GOODPP      95**DCL-ENT
M$GPLATEN      88**DCL-ENT
M$GPROMPT      87**DCL-ENT
M$GTRMATTR      81**DCL-ENT
M$GTRMCTL      79**DCL-ENT
M$GTRMTAB      82**DCL-ENT
M$GVP      91**DCL-ENT
M$HELP     118**DCL-ENT
M$INT     110**DCL-ENT
PL6.E3A0      #002=DFA$MLCT File=DFA$DLCT.:E05TSI                                TUE 07/29/97 14:29 Page:84
M$INTRTN      71**DCL-ENT
M$IOQ     106**DCL-ENT
M$JOBSTATS     120**DCL-ENT
M$KEYIN      60**DCL-ENT
M$LDEV      55**DCL-ENT
M$LDTRC      68**DCL-ENT
M$LIMIT      61**DCL-ENT
M$LINES      60**DCL-ENT
M$LINK      67**DCL-ENT
M$MADMUCK      63**DCL-ENT
M$MAKUSER      94**DCL-ENT
M$MBS      62**DCL-ENT
M$MDFFLD      86**DCL-ENT
M$MERC     111**DCL-ENT
M$MERCS     112**DCL-ENT
M$MIRROR     106**DCL-ENT
M$MONINFO     123**DCL-ENT
M$MPL      96**DCL-ENT
M$NODEINFO      87**DCL-ENT
M$NXTUSR     121**DCL-ENT
M$OCMSG     119**DCL-ENT
M$OLAY      67**DCL-ENT
M$OPEN      55**DCL-ENT
M$PAS      96**DCL-ENT
M$PATHCON     119**DCL-ENT
M$PDS      90**DCL-ENT
M$PFIL      57**DCL-ENT
M$PLATEN      81**DCL-ENT
M$PRECORD      59**DCL-ENT
M$PROCNAME      72**DCL-ENT
M$PROFILE      83**DCL-ENT
M$PROMPT      79**DCL-ENT
M$RACST      63**DCL-ENT
M$RDSYSLOG     104**DCL-ENT
M$READ      56**DCL-ENT
M$RELDCB      61**DCL-ENT
PL6.E3A0      #002=DFA$MLCT File=DFA$DLCT.:E05TSI                                TUE 07/29/97 14:29 Page:85
M$RELRES      62**DCL-ENT
M$RELSTARF      64**DCL-ENT
M$REM      64**DCL-ENT
M$RENV     111**DCL-ENT
M$REQUIRE      63**DCL-ENT
M$RETRY     112**DCL-ENT
M$RETRYS     112**DCL-ENT
M$REW      58**DCL-ENT
M$RLSFLD      86**DCL-ENT
M$RPRIV     114**DCL-ENT
M$RSPP      93**DCL-ENT
M$RSWITCH     115**DCL-ENT
M$RUE     121**DCL-ENT
M$SAD      94**DCL-ENT
M$SAVE      70**DCL-ENT
M$SCON      71**DCL-ENT
M$SENV     111**DCL-ENT
M$SETFMA      55**DCL-ENT
M$SETFP      84**DCL-ENT
M$SINPUT      82**DCL-ENT
M$SLCFLD      87**DCL-ENT
M$SMOUSE     101**DCL-ENT
M$SMPRT      93**DCL-ENT
M$SPRIV     114**DCL-ENT
M$SSC      94**DCL-ENT
M$SSWITCH     114**DCL-ENT
M$STATE     123**DCL-ENT
M$STD      95**DCL-ENT
M$STIMER     109**DCL-ENT
M$STLPP      92**DCL-ENT
M$STRAP     109**DCL-ENT
M$STRMATTR      81**DCL-ENT
M$STRMCTL      79**DCL-ENT
M$STRMTAB      82**DCL-ENT
M$SYMBIO     120**DCL-ENT
M$SYSCON     106**DCL-ENT
PL6.E3A0      #002=DFA$MLCT File=DFA$DLCT.:E05TSI                                TUE 07/29/97 14:29 Page:86
M$SYSID     124**DCL-ENT
M$TDCLOSE     105**DCL-ENT
M$TDIO     105**DCL-ENT
M$TDOPEN     104**DCL-ENT
M$TDREQCPU     105**DCL-ENT
M$TEMPWROC      99**DCL-ENT
M$TIME     122**DCL-ENT
M$TRAP     109**DCL-ENT
M$TRMISC      84**DCL-ENT
M$TRMPRG      80**DCL-ENT
M$TRTN     113**DCL-ENT
M$TRUNC      56**DCL-ENT
M$TTIMER     109**DCL-ENT
M$UC      79**DCL
M$UMPL      96**DCL-ENT
M$UNFID     118**DCL-ENT
M$UNLATCH      75**DCL-ENT
M$UNSHARE      72**DCL-ENT
M$USRFIELD     115**DCL-ENT
M$VIRTUAL      90**DCL-ENT
M$WAIT     113**DCL-ENT
M$WEOF      58**DCL-ENT
M$WRITE      56**DCL-ENT
M$WRSYSLOG     104**DCL-ENT
M$XCON     110**DCL-ENT
M$XCONRTN      71**DCL-ENT
M$XEQTIME     123**DCL-ENT
M$XFLUSH      64**DCL-ENT
M$XMOUSE     101**DCL-ENT
M$XXX      67**DCL-ENT
M$YC      69**DCL-ENT
SC_MESSAGE     169**DCL
SDD$    4128**DCL
SDD_L6$    4130**DCL
S_D_ACCESS$    2963**DCL
S_D_ANLZ$    2965**DCL
PL6.E3A0      #002=DFA$MLCT File=DFA$DLCT.:E05TSI                                TUE 07/29/97 14:29 Page:87
S_D_ASTACKOFF$    2964**DCL
S_D_BREAK$    2966**DCL
S_D_DO_SCAN$    2967**DCL
S_D_ERROR$    2968**DCL
S_D_FAULTCMD$$    2969**DCL
S_D_FAULTINS$$    2970**DCL
S_D_GOIC$    2971**DCL
S_D_GO_MODE$    2972**DCL
S_D_HW_PTB_UNITS$    2988**DCL
S_D_HW_RES_MEM$    2986**DCL
S_D_HW_WSQ0PT$    2987**DCL
S_D_IPRFLT$    2974**DCL
S_D_IXFIX$    2973**DCL
S_D_REM_ACCESS$    2975**DCL
S_D_REM_DISKBOOT$    2977**DCL
S_D_REM_DO_SCAN$    2976**DCL
S_D_RETURNN$    2978**DCL
S_D_SAD$    2979**DCL
S_D_SAVEIC$    2980**DCL
S_D_SEG$    2962**DCL
S_D_TCB$$    2981**DCL
S_D_UREG$$    2982**DCL
S_D_USS$$    2983**DCL
ZITEM$    4129**DCL
ZITEM_L6$    4131**DCL

PL6.E3A0      #003=DFA$MLCT_ACTIVE File=DFA$DLCT.:E05TSI                         TUE 07/29/97 14:29 Page:88
      370        1        /*T***********************************************************/
      371        2        /*T*                                                         */
      372        3        /*T* Copyright (c) Bull HN Information Systems Inc., 1997    */
      373        4        /*T*                                                         */
      374        5        /*T***********************************************************/
      375        6        /*P* NAME: DFA$MLCT_ACTIVE
      376        7             PURPOSE:  To provide the MODIFY ACTIVE LCTs command
      377        8        */
      378        9        /*D* NAME: DFA$MLCT
      379       10             DESCRIPTION: This routine is called by DDA$DO to perform the MLCT
      380       11                  (active ) directive.
      381       12        */
      382       13        DFA$MLCT_ACTIVE: PROC ALTRET;
      383       14
      384       15        /* Local auto */
      385       16    1   DCL TEMP$ PTR;
      386       17    1   DCL TEMP1 REDEF TEMP$ UBIN(36) ALIGNED;
      387       18    1   DCL 1 TEMP1B REDEF TEMP$ ALIGNED,
      388       19    1         2 * UBIN(4) UNAL,
      389       20    1         2 B1 UBIN(8) UNAL,
      390       21    1         2 B2 UBIN(8) UNAL,
      391       22    1         2 B3 UBIN(8) UNAL,
      392       23    1         2 B4 UBIN(8) UNAL;
      393       24    1   DCL TEMP2 UBIN(36) ALIGNED;
      394       25    1   DCL 1 TEMP2B REDEF TEMP2 ALIGNED,
      395       26    1         2 * BIT(1) UNAL,
      396       27    1         2 B1 UBIN(8) UNAL,
      397       28    1         2 * BIT(1) UNAL,
      398       29    1         2 B2 UBIN(8) UNAL,
      399       30    1         2 * BIT(1) UNAL,
      400       31    1         2 B3 UBIN(8) UNAL,
      401       32    1         2 * BIT(1) UNAL,
      402       33    1         2 B4 UBIN(8) UNAL;
      403       34        /* Includes and based structures */
      404       35        %INCLUDE CP_6;
      405      116        %INCLUDE DU_SCODE_C;
      406      129        %FPT_SCREECH(FPTN=SNAP_MESSAGE,STCLASS=SYMREF READONLY);
PL6.E3A0      #003=DFA$MLCT_ACTIVE File=DFA$DLCT.:E05TSI                         TUE 07/29/97 14:29 Page:89
      407      143        %VLP_SCODE(FPTN=SC_MESSAGE, STCLASS=SYMREF READONLY);
      408      204        %INCLUDE XUH_MACRO_C;
      409      288        %INCLUDE DD_SD_M;
      410     1624        %S_D;
      411     2942        %S_D_PTRS;
      412     2979        %INCLUDE DD_ERR_C;
      413     3376        %INCLUDE GD$MSG_M;
      414     3540        %GD$MSG(FPTN=GD$MSG,STCLASS="BASED(S_D_L6_MESSAGE$)",L6=YES,L6PTR="UBIN(32) UNAL");
      415     3696        %GD$MSG(FPTN=GD$MSG_HOST,STCLASS="BASED(S_D_HOST_MESSAGE$)",L6=NO);
      416     3852        %INCLUDE GD_EQUS_E;
      417     4013        %INCLUDE DD$BASED;
      418     5316        %MACTIVE$CMD;
      419     5335        %FPRG$CONTEXT;
      420     5398        /* Entry dcls */
      421     5399    1   DCL DDE$ERROR ENTRY;
      422     5400    1   DCL DFQ$READ_FD ENTRY(2) ALTRET;
      423     5401    1   DCL DFQ$WRITE_FD ENTRY(1) ALTRET;
      424     5402    1   DCL DUE$ERRMSG ENTRY;
      425     5403    1   DCL DUE$GERRMSG ENTRY;
      426     5404        /**/
      427     5405    1        S_D.MACTIVE = '0'B;
      428     5406    1        S_D.MLCT = '0'B;
      429     5407    1        GD$MSG = '0'B;
      430     5408    1        GD$MSG.FNC = %GD#RQSMODLCT;
      431     5409    1        IF S_D.CURRENT_CHANNEL = 0
      432     5410    2        THEN DO;
      433     5411    2             S_D.ERROR = E@NOCHANSELECTED;
      434     5412    2             GOTO ARET;
      435     5413    2           END;
      436     5414    1        GD$MSG.LCTMSG.CHANNEL = S_D.CURRENT_CHANNEL_R.CHAN;
      437     5415    1        GD$MSG.LCTMSG.LCTNUM = S_D.LCTNUM;
      438     5416    1        GD$MSG.LCTMSG.NEWMEM = S_D.DO$ -> MACTIVE$CMD.LCT_NEW_VALUE;
      439     5417    1        CALL DFQ$WRITE_FD (S_D.CURRENT_FPRG_CONTEXT$) ALTRET(ERRMSG);
      440     5418    1        CALL DFQ$READ_FD (S_D.CURRENT_FPRG_CONTEXT$, '0'B) ALTRET(ERRMSG);
      441     5419    2        DO CASE(GD$MSG.FNC);
      442     5420    2          CASE(%GD#RSPMODLCT);
      443     5421    2             IF GD$MSG.LCTMSG.FLAGS.SO = '0'B
PL6.E3A0      #003=DFA$MLCT_ACTIVE File=DFA$DLCT.:E05TSI                         TUE 07/29/97 14:29 Page:90
      444     5422    3             THEN DO;
      445     5423    3                  S_D.ERROR = E@CANTMODLCT; /* E@CANTMODLCT */
      446     5424    3                  GOTO ARET;
      447     5425    3                END;
      448     5426    2          CASE(%GD#RSPBADMLCCALL);
      449     5427    2             IF GD$MSG.LCTMSG.FLAGS.BLN
      450     5428    2             THEN S_D.ERROR = E@BADADDR;   /* E@BADADDR */
      451     5429    2             ELSE S_D.ERROR = E@LINEDEAD;  /* E@LINEDEAD */
      452     5430    2             GOTO ARET;
      453     5431    2          CASE(%GD#RSPBADMSG);
      454     5432    2             S_D.ERROR = E@BADMSG;         /* E@BADMSG */
      455     5433    2             GOTO ARET;
      456     5434    2          CASE(%GD#RSPNAK);
      457     5435    2             IF S_D.CURRENT_FPRG_CONTEXT$ -> FPRG$CONTEXT.XDELTA
      458     5436    3             THEN DO;
      459     5437    3                  TEMP1 = BITBIN(GD$MSG.ERROR_D.ERRCODE);
      460     5438    3                  TEMP2B.B1 = TEMP1B.B1;
      461     5439    3                  TEMP2B.B2 = TEMP1B.B2;
      462     5440    3                  TEMP2B.B3 = TEMP1B.B3;
      463     5441    3                  TEMP2B.B4 = TEMP1B.B4;
      464     5442    3                  S_D.JDE = TEMP2;
      465     5443    3                END;
      466     5444    2             ELSE S_D.JDE = BITBIN(GD$MSG_HOST.ERROR_D.ERRCODE);
      467     5445    2             CALL DUE$GERRMSG;
      468     5446    2             RETURN;
      469     5447    2          CASE(ELSE);
      470     5448    2             REMEMBER NEVER IN S_D.SCREECH_IC;
      471     5449    2             CALL M$SCREECH (SNAP_MESSAGE) ALTRET(NEVER);
      472     5450    2   NEVER:
      473     5451    2             S_D.ERROR = E@BADMESSAGE;     /* E@BADMESSAGE */
      474     5452    2             CALL DDE$ERROR;
      475     5453    2             S_D.ERROR = E@DELBUG;         /* E@DELBUG */
      476     5454    2             CALL DDE$ERROR;
      477     5455    2          END;
      478     5456
      479     5457    1        RETURN;
      480     5458
PL6.E3A0      #003=DFA$MLCT_ACTIVE File=DFA$DLCT.:E05TSI                         TUE 07/29/97 14:29 Page:91
      481     5459    1   ARET: ALTRETURN;
      482     5460
      483     5461    1   ERRMSG:
      484     5462    1        CALL DUE$ERRMSG;
      485     5463    1        RETURN;
      486     5464    1   END DFA$MLCT_ACTIVE;

PL6.E3A0      #003=DFA$MLCT_ACTIVE File=DFA$DLCT.:E05TSI                         TUE 07/29/97 14:29 Page:92
--  Include file information  --

   DD$BASED.:E05TOU  is referenced.
   GD_EQUS_E.:E05TOU  is referenced.
   GD$MSG_M.:E05TOU  is referenced.
   DD_ERR_C.:E05TOU  is referenced.
   DD_SD_M.:E05TOU  is referenced.
   XUH_MACRO_C.:E05TOU  is referenced.
   DU_SCODE_C.:E05TOU  is referenced.
   CP_6.:E05TOU  cannot be made into a system file and is referenced.
   B$JIT_C.:E05TOU  was found in the system file and is never referenced.
   CP_6_C.:E05TOU  was found in the system file and is referenced.
      No diagnostics issued in procedure DFA$MLCT_ACTIVE.

   Procedure DFA$MLCT_ACTIVE requires 163 words for executable code.
   Procedure DFA$MLCT_ACTIVE requires 8 words of local(AUTO) storage.

    No errors detected in file DFA$DLCT.:E05TSI    .

PL6.E3A0      #003=DFA$MLCT_ACTIVE File=DFA$DLCT.:E05TSI                         TUE 07/29/97 14:29 Page:93

 Object Unit name= DFA$MLCT_ACTIVE                            File name= DFA$DLCT.:E05TOU
 UTS= JUL 29 '97 14:29:50.24 TUE                              Compiler= PL-6/E31         Sev=      00
 SharedLib= :SHARED_SYSTEM                                    Alt SharedLib=


    ****  Control sections  ****

 Sect   Type Bound  Init  Size OctSiz  Section name(segment info)
    0   DCB   even  none     0      0  M$UC
    1   Proc  even  none   163    243  DFA$MLCT_ACTIVE
    2  RoData even  none     5      5  DFA$MLCT_ACTIVE

    ****  Entry defs  ****

                              Check   Calling
                             calling  sequence
  Sect OctLoc Primary Altret sequence   type   Parms  Name
     1      0   yes    yes     yes      Std        0  DFA$MLCT_ACTIVE

  ****  Entry refs  ****

         Check        Calling
        calling       sequence
Altret sequence SRef   type   Args  Name
 yes     yes           Std       1 DFQ$WRITE_FD
 yes     yes           Std       2 DFQ$READ_FD
         yes           Std       0 DUE$GERRMSG
         yes           Std       0 DUE$ERRMSG
         yes           Std       0 DDE$ERROR
                       nStd      0 X66_AUTO_0
                       Std       0 B_CONSPOOL_D
                       nStd      0 X66_ARET
                       nStd      0 X66_AALT
PL6.E3A0      #003=DFA$MLCT_ACTIVE File=DFA$DLCT.:E05TSI                         TUE 07/29/97 14:29 Page:94

  ****  Data refs  ****

  Flags:  r = read only, s = secondary
Flgs Name                             Flgs Name                             Flgs Name
     M$UC                             r    SNAP_MESSAGE                     r    S_D$
r    S_D_HOST_MESSAGE$                r    S_D_L6_MESSAGE$                       B_VECTNIL

  ****  Segment refs  ****

  Flags:  r = read only, s = secondary
Flgs Name                             Flgs Name                             Flgs Name
     ISSID
PL6.E3A0      #003=DFA$MLCT_ACTIVE File=DFA$DLCT.:E05TSI                         TUE 07/29/97 14:29 Page:95


      370        1        /*T***********************************************************/
      371        2        /*T*                                                         */
      372        3        /*T* Copyright (c) Bull HN Information Systems Inc., 1997    */
      373        4        /*T*                                                         */
      374        5        /*T***********************************************************/
      375        6        /*P* NAME: DFA$MLCT_ACTIVE
      376        7             PURPOSE:  To provide the MODIFY ACTIVE LCTs command
      377        8        */
      378        9        /*D* NAME: DFA$MLCT
      379       10             DESCRIPTION: This routine is called by DDA$DO to perform the MLCT
      380       11                  (active ) directive.
      381       12        */
      382       13        DFA$MLCT_ACTIVE: PROC ALTRET;

     13  1 000000   000000 700200 xent  DFA$MLCT_AC* TSX0  ! X66_AUTO_0
         1 000001   000010 000000                    ZERO    8,0

      383       14
      384       15        /* Local auto */
      385       16    1   DCL TEMP$ PTR;
      386       17    1   DCL TEMP1 REDEF TEMP$ UBIN(36) ALIGNED;
      387       18    1   DCL 1 TEMP1B REDEF TEMP$ ALIGNED,
      388       19    1         2 * UBIN(4) UNAL,
      389       20    1         2 B1 UBIN(8) UNAL,
      390       21    1         2 B2 UBIN(8) UNAL,
      391       22    1         2 B3 UBIN(8) UNAL,
      392       23    1         2 B4 UBIN(8) UNAL;
      393       24    1   DCL TEMP2 UBIN(36) ALIGNED;
      394       25    1   DCL 1 TEMP2B REDEF TEMP2 ALIGNED,
      395       26    1         2 * BIT(1) UNAL,
      396       27    1         2 B1 UBIN(8) UNAL,
      397       28    1         2 * BIT(1) UNAL,
      398       29    1         2 B2 UBIN(8) UNAL,
      399       30    1         2 * BIT(1) UNAL,
      400       31    1         2 B3 UBIN(8) UNAL,
      401       32    1         2 * BIT(1) UNAL,
PL6.E3A0      #003=DFA$MLCT_ACTIVE File=DFA$DLCT.:E05TSI                         TUE 07/29/97 14:29 Page:96
      402       33    1         2 B4 UBIN(8) UNAL;
      403       34        /* Includes and based structures */
      404       35        %INCLUDE CP_6;
      405      116        %INCLUDE DU_SCODE_C;
      406      129        %FPT_SCREECH(FPTN=SNAP_MESSAGE,STCLASS=SYMREF READONLY);
      407      143        %VLP_SCODE(FPTN=SC_MESSAGE, STCLASS=SYMREF READONLY);
      408      204        %INCLUDE XUH_MACRO_C;
      409      288        %INCLUDE DD_SD_M;
      410     1624        %S_D;
      411     2942        %S_D_PTRS;
      412     2979        %INCLUDE DD_ERR_C;
      413     3376        %INCLUDE GD$MSG_M;
      414     3540        %GD$MSG(FPTN=GD$MSG,STCLASS="BASED(S_D_L6_MESSAGE$)",L6=YES,L6PTR="UBIN(32) UNAL");
      415     3696        %GD$MSG(FPTN=GD$MSG_HOST,STCLASS="BASED(S_D_HOST_MESSAGE$)",L6=NO);
      416     3852        %INCLUDE GD_EQUS_E;
      417     4013        %INCLUDE DD$BASED;
      418     5316        %MACTIVE$CMD;
      419     5335        %FPRG$CONTEXT;
      420     5398        /* Entry dcls */
      421     5399    1   DCL DDE$ERROR ENTRY;
      422     5400    1   DCL DFQ$READ_FD ENTRY(2) ALTRET;
      423     5401    1   DCL DFQ$WRITE_FD ENTRY(1) ALTRET;
      424     5402    1   DCL DUE$ERRMSG ENTRY;
      425     5403    1   DCL DUE$GERRMSG ENTRY;
      426     5404        /**/
      427     5405    1        S_D.MACTIVE = '0'B;

   5405  1 000002   000000 470400 xsym               LDP0    S_D$
         1 000003   000713 450100                    STZ     459,,PR0

      428     5406    1        S_D.MLCT = '0'B;

   5406  1 000004   005323 450100                    STZ     2771,,PR0

      429     5407    1        GD$MSG = '0'B;

   5407  1 000005   000000 471400 xsym               LDP1    S_D_L6_MESSAGE$
PL6.E3A0      #003=DFA$MLCT_ACTIVE File=DFA$DLCT.:E05TSI                         TUE 07/29/97 14:29 Page:97
         1 000006   003100 060400                    CSL     bolr='003'O
         1 000007   000002 000001 xsym               BDSC    B_VECTNIL+2              by=0,bit=0,n=1
         1 000010   100000 004720                    BDSC    0,,PR1                   by=0,bit=0,n=2512

      430     5408    1        GD$MSG.FNC = %GD#RQSMODLCT;

   5408  1 000011   100000 236100                    LDQ     0,,PR1
         1 000012   000000 376000 2                  ANQ     0
         1 000013   026000 276003                    ORQ     11264,DU
         1 000014   100000 756100                    STQ     0,,PR1

      431     5409    1        IF S_D.CURRENT_CHANNEL = 0

   5409  1 000015   005321 235100                    LDA     2769,,PR0
         1 000016   000022 601000 1                  TNZ     s:5414

      432     5410    2        THEN DO;

      433     5411    2             S_D.ERROR = E@NOCHANSELECTED;

   5411  1 000017   000523 235007                    LDA     339,DL
         1 000020   000013 755100                    STA     11,,PR0

      434     5412    2             GOTO ARET;

   5412  1 000021   000236 710000 1                  TRA     ARET

      435     5413    2           END;
      436     5414    1        GD$MSG.LCTMSG.CHANNEL = S_D.CURRENT_CHANNEL_R.CHAN;

   5414  1 000022   005321 236100                    LDQ     2769,,PR0
         1 000023   000004 736000                    QLS     4
         1 000024   100000 676100                    ERQ     0,,PR1
         1 000025   000001 376000 2                  ANQ     1
         1 000026   100000 656100                    ERSQ    0,,PR1

      437     5415    1        GD$MSG.LCTMSG.LCTNUM = S_D.LCTNUM;
PL6.E3A0      #003=DFA$MLCT_ACTIVE File=DFA$DLCT.:E05TSI                         TUE 07/29/97 14:29 Page:98

   5415  1 000027   005322 236100                    LDQ     2770,,PR0
         1 000030   000020 736000                    QLS     16
         1 000031   100001 676100                    ERQ     1,,PR1
         1 000032   000002 376000 2                  ANQ     2
         1 000033   100001 656100                    ERSQ    1,,PR1

      438     5416    1        GD$MSG.LCTMSG.NEWMEM = S_D.DO$ -> MACTIVE$CMD.LCT_NEW_VALUE;

   5416  1 000034   000031 473500                    LDP3    25,,PR0
         1 000035   300002 236100                    LDQ     2,,PR3
         1 000036   000003 772000                    QRL     3
         1 000037   100001 676100                    ERQ     1,,PR1
         1 000040   037700 376003                    ANQ     16320,DU
         1 000041   100001 656100                    ERSQ    1,,PR1

      439     5417    1        CALL DFQ$WRITE_FD (S_D.CURRENT_FPRG_CONTEXT$) ALTRET(ERRMSG);

   5417  1 000042   000000 236000 xsym               LDQ     S_D$
         1 000043   000102 036003                    ADLQ    66,DU
         1 000044   200006 756100                    STQ     TEMP2+2,,AUTO
         1 000045   200006 630500                    EPPR0   TEMP2+2,,AUTO
         1 000046   000017 631400 xsym               EPPR1   B_VECTNIL+15
         1 000047   000000 701000 xent               TSX1    DFQ$WRITE_FD
         1 000050   000237 702000 1                  TSX2    ERRMSG

      440     5418    1        CALL DFQ$READ_FD (S_D.CURRENT_FPRG_CONTEXT$, '0'B) ALTRET(ERRMSG);

   5418  1 000051   000003 236000 2                  LDQ     3
         1 000052   200007 756100                    STQ     TEMP2+3,,AUTO
         1 000053   000000 236000 xsym               LDQ     S_D$
         1 000054   000102 036003                    ADLQ    66,DU
         1 000055   200006 756100                    STQ     TEMP2+2,,AUTO
         1 000056   200006 630500                    EPPR0   TEMP2+2,,AUTO
         1 000057   000020 631400 xsym               EPPR1   B_VECTNIL+16
         1 000060   000000 701000 xent               TSX1    DFQ$READ_FD
         1 000061   000237 702000 1                  TSX2    ERRMSG
PL6.E3A0      #003=DFA$MLCT_ACTIVE File=DFA$DLCT.:E05TSI                         TUE 07/29/97 14:29 Page:99

      441     5419    2        DO CASE(GD$MSG.FNC);

   5419  1 000062   000000 470400 xsym               LDP0    S_D_L6_MESSAGE$
         1 000063   000000 236100                    LDQ     0,,PR0
         1 000064   000034 772000                    QRL     28
         1 000065   000045 136007                    SBLQ    37,DL
         1 000066   000021 116007                    CMPQ    17,DL
         1 000067   000071 602006 1                  TNC     s:5419+7,QL
         1 000070   000211 710000 1                  TRA     s:5448
         1 000071   000112 710000 1                  TRA     s:5421
         1 000072   000211 710000 1                  TRA     s:5448
         1 000073   000211 710000 1                  TRA     s:5448
         1 000074   000211 710000 1                  TRA     s:5448
         1 000075   000211 710000 1                  TRA     s:5448
         1 000076   000211 710000 1                  TRA     s:5448
         1 000077   000211 710000 1                  TRA     s:5448
         1 000100   000211 710000 1                  TRA     s:5448
         1 000101   000211 710000 1                  TRA     s:5448
         1 000102   000211 710000 1                  TRA     s:5448
         1 000103   000211 710000 1                  TRA     s:5448
         1 000104   000134 710000 1                  TRA     s:5432
         1 000105   000211 710000 1                  TRA     s:5448
         1 000106   000211 710000 1                  TRA     s:5448
         1 000107   000211 710000 1                  TRA     s:5448
         1 000110   000140 710000 1                  TRA     s:5435
         1 000111   000121 710000 1                  TRA     s:5427

      442     5420    2          CASE(%GD#RSPMODLCT);

      443     5421    2             IF GD$MSG.LCTMSG.FLAGS.SO = '0'B

   5421  1 000112   000001 236100                    LDQ     1,,PR0
         1 000113   004000 316007                    CANQ    2048,DL
         1 000114   000235 601000 1                  TNZ     s:5457

      444     5422    3             THEN DO;
PL6.E3A0      #003=DFA$MLCT_ACTIVE File=DFA$DLCT.:E05TSI                         TUE 07/29/97 14:29 Page:100

      445     5423    3                  S_D.ERROR = E@CANTMODLCT; /* E@CANTMODLCT */

   5423  1 000115   000521 235007                    LDA     337,DL
         1 000116   000000 471400 xsym               LDP1    S_D$
         1 000117   100013 755100                    STA     11,,PR1

      446     5424    3                  GOTO ARET;

   5424  1 000120   000236 710000 1                  TRA     ARET

      447     5425    3                END;
      448     5426    2          CASE(%GD#RSPBADMLCCALL);

      449     5427    2             IF GD$MSG.LCTMSG.FLAGS.BLN

   5427  1 000121   000001 236100                    LDQ     1,,PR0
         1 000122   020000 316007                    CANQ    8192,DL
         1 000123   000130 600000 1                  TZE     s:5429

      450     5428    2             THEN S_D.ERROR = E@BADADDR;   /* E@BADADDR */

   5428  1 000124   000123 235007                    LDA     83,DL
         1 000125   000000 471400 xsym               LDP1    S_D$
         1 000126   100013 755100                    STA     11,,PR1
         1 000127   000133 710000 1                  TRA     s:5430

      451     5429    2             ELSE S_D.ERROR = E@LINEDEAD;  /* E@LINEDEAD */

   5429  1 000130   000520 235007                    LDA     336,DL
         1 000131   000000 471400 xsym               LDP1    S_D$
         1 000132   100013 755100                    STA     11,,PR1

      452     5430    2             GOTO ARET;

   5430  1 000133   000236 710000 1                  TRA     ARET

PL6.E3A0      #003=DFA$MLCT_ACTIVE File=DFA$DLCT.:E05TSI                         TUE 07/29/97 14:29 Page:101
      453     5431    2          CASE(%GD#RSPBADMSG);

      454     5432    2             S_D.ERROR = E@BADMSG;         /* E@BADMSG */

   5432  1 000134   000512 235007                    LDA     330,DL
         1 000135   000000 471400 xsym               LDP1    S_D$
         1 000136   100013 755100                    STA     11,,PR1

      455     5433    2             GOTO ARET;

   5433  1 000137   000236 710000 1                  TRA     ARET

      456     5434    2          CASE(%GD#RSPNAK);

      457     5435    2             IF S_D.CURRENT_FPRG_CONTEXT$ -> FPRG$CONTEXT.XDELTA

   5435  1 000140   000000 471400 xsym               LDP1    S_D$
         1 000141   100102 473500                    LDP3    66,,PR1
         1 000142   300001 236100                    LDQ     1,,PR3
         1 000143   002000 316003                    CANQ    1024,DU
         1 000144   000200 600000 1                  TZE     s:5444

      458     5436    3             THEN DO;

      459     5437    3                  TEMP1 = BITBIN(GD$MSG.ERROR_D.ERRCODE);

   5437  1 000145   000000 235100                    LDA     0,,PR0
         1 000146   000001 236100                    LDQ     1,,PR0
         1 000147   000030 773000                    LRL     24
         1 000150   000004 376000 2                  ANQ     4
         1 000151   200003 756100                    STQ     TEMP$,,AUTO

      460     5438    3                  TEMP2B.B1 = TEMP1B.B1;

   5438  1 000152   200003 236100                    LDQ     TEMP$,,AUTO
         1 000153   000003 736000                    QLS     3
         1 000154   200004 676100                    ERQ     TEMP2,,AUTO
PL6.E3A0      #003=DFA$MLCT_ACTIVE File=DFA$DLCT.:E05TSI                         TUE 07/29/97 14:29 Page:102
         1 000155   377000 376003                    ANQ     130560,DU
         1 000156   200004 656100                    ERSQ    TEMP2,,AUTO

      461     5439    3                  TEMP2B.B2 = TEMP1B.B2;

   5439  1 000157   200003 236100                    LDQ     TEMP$,,AUTO
         1 000160   000002 736000                    QLS     2
         1 000161   200004 676100                    ERQ     TEMP2,,AUTO
         1 000162   000377 376003                    ANQ     255,DU
         1 000163   200004 656100                    ERSQ    TEMP2,,AUTO

      462     5440    3                  TEMP2B.B3 = TEMP1B.B3;

   5440  1 000164   200003 236100                    LDQ     TEMP$,,AUTO
         1 000165   000001 736000                    QLS     1
         1 000166   200004 676100                    ERQ     TEMP2,,AUTO
         1 000167   377000 376007                    ANQ     130560,DL
         1 000170   200004 656100                    ERSQ    TEMP2,,AUTO

      463     5441    3                  TEMP2B.B4 = TEMP1B.B4;

   5441  1 000171   200003 236100                    LDQ     TEMP$,,AUTO
         1 000172   200004 676100                    ERQ     TEMP2,,AUTO
         1 000173   000377 376007                    ANQ     255,DL
         1 000174   200004 656100                    ERSQ    TEMP2,,AUTO

      464     5442    3                  S_D.JDE = TEMP2;

   5442  1 000175   200004 235100                    LDA     TEMP2,,AUTO
         1 000176   104733 755100                    STA     2523,,PR1

      465     5443    3                END;

   5443  1 000177   000205 710000 1                  TRA     s:5445

      466     5444    2             ELSE S_D.JDE = BITBIN(GD$MSG_HOST.ERROR_D.ERRCODE);

PL6.E3A0      #003=DFA$MLCT_ACTIVE File=DFA$DLCT.:E05TSI                         TUE 07/29/97 14:29 Page:103
   5444  1 000200   000000 474400 xsym               LDP4    S_D_HOST_MESSAGE$
         1 000201   400000 235100                    LDA     0,,PR4
         1 000202   400001 236100                    LDQ     1,,PR4
         1 000203   000022 773000                    LRL     18
         1 000204   104733 756100                    STQ     2523,,PR1

      467     5445    2             CALL DUE$GERRMSG;

   5445  1 000205   000002 631400 xsym               EPPR1   B_VECTNIL+2
         1 000206   000000 701000 xent               TSX1    DUE$GERRMSG
         1 000207   000000 011000                    NOP     0

      468     5446    2             RETURN;

   5446  1 000210   000000 702200 xent               TSX2  ! X66_ARET

      469     5447    2          CASE(ELSE);

      470     5448    2             REMEMBER NEVER IN S_D.SCREECH_IC;

   5448  1 000211   000221 635000 1                  EAA     NEVER
         1 000212   000000 471400 xsym               LDP1    S_D$
         1 000213   105250 452500                    STP2    2728,,PR1
         1 000214   105251 755100                    STA     2729,,PR1

      471     5449    2             CALL M$SCREECH (SNAP_MESSAGE) ALTRET(NEVER);

   5449  1 000215   000000 630400 xsym               EPPR0   SNAP_MESSAGE
         1 000216   400013 713400                    CLIMB   alt,+11
         1 000217   401000 401760                    pmme    nvectors=3
         1 000220   000221 702000 1                  TSX2    NEVER

      472     5450    2   NEVER:
      473     5451    2             S_D.ERROR = E@BADMESSAGE;     /* E@BADMESSAGE */

   5451  1 000221   001014 235007       NEVER        LDA     524,DL
         1 000222   000000 470400 xsym               LDP0    S_D$
PL6.E3A0      #003=DFA$MLCT_ACTIVE File=DFA$DLCT.:E05TSI                         TUE 07/29/97 14:29 Page:104
         1 000223   000013 755100                    STA     11,,PR0

      474     5452    2             CALL DDE$ERROR;

   5452  1 000224   000002 631400 xsym               EPPR1   B_VECTNIL+2
         1 000225   000000 701000 xent               TSX1    DDE$ERROR
         1 000226   000000 011000                    NOP     0

      475     5453    2             S_D.ERROR = E@DELBUG;         /* E@DELBUG */

   5453  1 000227   000766 235007                    LDA     502,DL
         1 000230   000000 470400 xsym               LDP0    S_D$
         1 000231   000013 755100                    STA     11,,PR0

      476     5454    2             CALL DDE$ERROR;

   5454  1 000232   000002 631400 xsym               EPPR1   B_VECTNIL+2
         1 000233   000000 701000 xent               TSX1    DDE$ERROR
         1 000234   000000 011000                    NOP     0

      477     5455    2          END;

      478     5456
      479     5457    1        RETURN;

   5457  1 000235   000000 702200 xent               TSX2  ! X66_ARET

      480     5458
      481     5459    1   ARET: ALTRETURN;

   5459  1 000236   000000 702200 xent  ARET         TSX2  ! X66_AALT

      482     5460
      483     5461    1   ERRMSG:
      484     5462    1        CALL DUE$ERRMSG;

   5462  1 000237   000002 631400 xsym  ERRMSG       EPPR1   B_VECTNIL+2
PL6.E3A0      #003=DFA$MLCT_ACTIVE File=DFA$DLCT.:E05TSI                         TUE 07/29/97 14:29 Page:105
         1 000240   000000 701000 xent               TSX1    DUE$ERRMSG
         1 000241   000000 011000                    NOP     0

      485     5463    1        RETURN;

   5463  1 000242   000000 702200 xent               TSX2  ! X66_ARET

(unnamed)
 Sect OctLoc
   2     000   001777 777777   000003 777760   000077 600000   000002 006000    .........?......
   2     004   037777 777777                                                    ....
      486     5464    1   END DFA$MLCT_ACTIVE;

PL6.E3A0      #003=DFA$MLCT_ACTIVE File=DFA$DLCT.:E05TSI                         TUE 07/29/97 14:29 Page:106
--  Include file information  --

   DD$BASED.:E05TOU  is referenced.
   GD_EQUS_E.:E05TOU  is referenced.
   GD$MSG_M.:E05TOU  is referenced.
   DD_ERR_C.:E05TOU  is referenced.
   DD_SD_M.:E05TOU  is referenced.
   XUH_MACRO_C.:E05TOU  is referenced.
   DU_SCODE_C.:E05TOU  is referenced.
   CP_6.:E05TOU  cannot be made into a system file and is referenced.
   B$JIT_C.:E05TOU  was found in the system file and is never referenced.
   CP_6_C.:E05TOU  was found in the system file and is referenced.
      No diagnostics issued in procedure DFA$MLCT_ACTIVE.

   Procedure DFA$MLCT_ACTIVE requires 163 words for executable code.
   Procedure DFA$MLCT_ACTIVE requires 8 words of local(AUTO) storage.

    No errors detected in file DFA$DLCT.:E05TSI    .
PL6.E3A0      #003=DFA$MLCT_ACTIVE File=DFA$DLCT.:E05TSI                         TUE 07/29/97 14:29 Page:107
          *** CROSS REFERENCE LISTING ***
**     DENOTES     IDENTIFIER DEFINITION
<<                 IDENTIFIER'S VALUE SET
>>                 IDENTIFIER'S VALUE USED
<>                 IDENTIFIER SET AND/OR USED
--                 IDENTIFIER REFERENCED
PL6.E3A0      #003=DFA$MLCT_ACTIVE File=DFA$DLCT.:E05TSI                         TUE 07/29/97 14:29 Page:108
          MINI XREF LISTING

ARET
      5459**LABEL    5412--GOTO     5424--GOTO     5430--GOTO     5433--GOTO
DDE$ERROR
      5399**DCL-ENT  5452--CALL     5454--CALL
DFQ$READ_FD
      5400**DCL-ENT  5418--CALL
DFQ$WRITE_FD
      5401**DCL-ENT  5417--CALL
DUE$ERRMSG
      5402**DCL-ENT  5462--CALL
DUE$GERRMSG
      5403**DCL-ENT  5445--CALL
ERRMSG
      5462**LABEL    5417--CALLALT  5418--CALLALT
FPRG$CONTEXT.XDELTA
      5349**DCL      5435>>IF
GD$MSG
      3557**DCL      5407<<ASSIGN
GD$MSG.BRKRQS.IF$CONST.SIZE
      3608**DCL      3608--REDEF
GD$MSG.BRKRQS.IF$CONST.TEXT
      3608**DCL      3609--REDEF    3609--REDEF    3610--REDEF    3611--REDEF
GD$MSG.BRKRSP.BRK#
      3622**DCL      3622--REDEF
GD$MSG.BRKRSP.USER#
      3622**DCL      3622--REDEF
GD$MSG.ERROR_D.ERRCODE
      3563**DCL      5437>>ASSIGN
GD$MSG.FNC
      3557**DCL      5408<<ASSIGN   5419>>DOCASE
GD$MSG.LCTMSG.CHANNEL
      3663**DCL      5414<<ASSIGN
PL6.E3A0      #003=DFA$MLCT_ACTIVE File=DFA$DLCT.:E05TSI                         TUE 07/29/97 14:29 Page:109
GD$MSG.LCTMSG.FLAGS.BLN
      3669**DCL      5427>>IF
GD$MSG.LCTMSG.FLAGS.SO
      3669**DCL      5421>>IF
GD$MSG.LCTMSG.LCTNUM
      3665**DCL      5415<<ASSIGN
GD$MSG.LCTMSG.NEWMEM
      3665**DCL      5416<<ASSIGN
GD$MSG.LETMEM_D.VALUE.SIZE
      3580**DCL      3580--REDEF
GD$MSG.LETMEM_D.VALUE.TEXT
      3581**DCL      3581--REDEF    3581--REDEF    3582--REDEF    3583--REDEF
GD$MSG.MESSAGE
      3562**DCL      3562--REDEF    3563--REDEF    3563--REDEF    3564--REDEF    3575--REDEF    3588--REDEF
      3593--REDEF    3600--REDEF    3616--REDEF    3621--REDEF    3627--REDEF    3628--REDEF    3657--REDEF
      3659--REDEF    3670--REDEF    3677--REDEF    3689--REDEF
GD$MSG.SUBFNC
      3557**DCL      3557--REDEF    3561--REDEF
GD$MSG.TSA.I
      3629**DCL      3629--REDEF
GD$MSG.TSA.S
      3631**DCL      3631--REDEF
GD$MSG.USERQS.ASDT$
      3657**DCL      3657--REDEF    3658--REDEF
GD$MSG_HOST.BRKRQS.IF$CONST.SIZE
      3764**DCL      3764--REDEF
GD$MSG_HOST.BRKRQS.IF$CONST.TEXT
      3764**DCL      3765--REDEF    3765--REDEF    3766--REDEF    3767--REDEF
GD$MSG_HOST.BRKRSP.BRK#
      3778**DCL      3778--REDEF
GD$MSG_HOST.BRKRSP.USER#
      3778**DCL      3778--REDEF
GD$MSG_HOST.ERROR_D.ERRCODE
      3719**DCL      5444>>ASSIGN
GD$MSG_HOST.LETMEM_D.VALUE.SIZE
      3736**DCL      3736--REDEF
PL6.E3A0      #003=DFA$MLCT_ACTIVE File=DFA$DLCT.:E05TSI                         TUE 07/29/97 14:29 Page:110
GD$MSG_HOST.LETMEM_D.VALUE.TEXT
      3737**DCL      3737--REDEF    3737--REDEF    3738--REDEF    3739--REDEF
GD$MSG_HOST.MESSAGE
      3718**DCL      3718--REDEF    3719--REDEF    3719--REDEF    3720--REDEF    3731--REDEF    3744--REDEF
      3749--REDEF    3756--REDEF    3772--REDEF    3777--REDEF    3783--REDEF    3784--REDEF    3813--REDEF
      3815--REDEF    3826--REDEF    3833--REDEF    3845--REDEF
GD$MSG_HOST.SUBFNC
      3713**DCL      3713--REDEF    3717--REDEF
GD$MSG_HOST.TSA.I
      3785**DCL      3785--REDEF
GD$MSG_HOST.TSA.S
      3787**DCL      3787--REDEF
GD$MSG_HOST.USERQS.ASDT$
      3813**DCL      3813--REDEF    3814--REDEF
M$SCREECH
        58**DCL-ENT  5449--CALL
MACTIVE$CMD.FORMAT
      5330**DCL      5331--REDEF
MACTIVE$CMD.LCT_NEW_VALUE
      5331**DCL      5416>>ASSIGN
NEVER
      5451**LABEL    5448--REMEMBR  5449--CALLALT
SNAP_MESSAGE
       140**DCL      5449<>CALL
S_D.CURRENT_CHANNEL
      2576**DCL      2578--REDEF    5409>>IF
S_D.CURRENT_CHANNEL_R.CHAN
      2580**DCL      5414>>ASSIGN
S_D.CURRENT_FPRG_CONTEXT$
      1776**DCL      5417<>CALL     5418<>CALL     5435>>IF
S_D.DEBUGA
      1728**DCL      1730--REDEF
S_D.DO$
      1679**DCL      5416>>ASSIGN
S_D.EIS
      2686**DCL      2715--REDEF
PL6.E3A0      #003=DFA$MLCT_ACTIVE File=DFA$DLCT.:E05TSI                         TUE 07/29/97 14:29 Page:111
S_D.ERROR
      1657**DCL      5411<<ASSIGN   5423<<ASSIGN   5428<<ASSIGN   5429<<ASSIGN   5432<<ASSIGN   5451<<ASSIGN
      5453<<ASSIGN
S_D.HOST_MESSAGE_BUF_REMOTE
      2619**DCL      2620--REDEF    2634--REDEF
S_D.JDE
      2233**DCL      2234--REDEF    5442<<ASSIGN   5444<<ASSIGN
S_D.L$.VALUE
      1786**DCL      1792--REDEF    1800--REDEF    1803--REDEF    1806--REDEF    1809--REDEF
S_D.L$.VALUE.L
      1787**DCL      1788--REDEF    1789--REDEF
S_D.L6_MESSAGE_BUF
      2640**DCL      2642--REDEF
S_D.LCTNUM
      2581**DCL      5415>>ASSIGN
S_D.MACTIVE
      1897**DCL      5405<<ASSIGN
S_D.MLCT
      2583**DCL      5406<<ASSIGN
S_D.OUTPUT
      2606**DCL      2608--REDEF
S_D.REMOTE_MSG.FNCC
      2625**DCL      2626--REDEF
S_D.REMOTE_MSG.STXC
      2621**DCL      2622--REDEF
S_D.REMOTE_MSG.SUBFNCC
      2629**DCL      2630--REDEF
S_D.SCREECH_IC
      2477**DCL      5448<<REMEMBR
S_D.SV
      1685**DCL      1706--REDEF
S_D$
      2937**DCL      1633--IMP-PTR  5405>>ASSIGN   5406>>ASSIGN   5409>>IF       5411>>ASSIGN   5414>>ASSIGN
      5415>>ASSIGN   5416>>ASSIGN   5417>>CALL     5418>>CALL     5423>>ASSIGN   5428>>ASSIGN   5429>>ASSIGN
      5432>>ASSIGN   5435>>IF       5442>>ASSIGN   5444>>ASSIGN   5448>>REMEMBR  5451>>ASSIGN   5453>>ASSIGN
S_D_HOST_MESSAGE$
PL6.E3A0      #003=DFA$MLCT_ACTIVE File=DFA$DLCT.:E05TSI                         TUE 07/29/97 14:29 Page:112
      2973**DCL      3713--IMP-PTR  5444>>ASSIGN
S_D_L6_MESSAGE$
      2974**DCL      3557--IMP-PTR  5407>>ASSIGN   5408>>ASSIGN   5414>>ASSIGN   5415>>ASSIGN   5416>>ASSIGN
      5419>>DOCASE   5421>>IF       5427>>IF       5437>>ASSIGN
TEMP$
        16**DCL        17--REDEF      18--REDEF
TEMP1
        17**DCL      5437<<ASSIGN
TEMP1B.B1
        20**DCL      5438>>ASSIGN
TEMP1B.B2
        21**DCL      5439>>ASSIGN
TEMP1B.B3
        22**DCL      5440>>ASSIGN
TEMP1B.B4
        23**DCL      5441>>ASSIGN
TEMP2
        24**DCL        25--REDEF    5442>>ASSIGN
TEMP2B.B1
        27**DCL      5438<<ASSIGN
TEMP2B.B2
        29**DCL      5439<<ASSIGN
TEMP2B.B3
        31**DCL      5440<<ASSIGN
TEMP2B.B4
        33**DCL      5441<<ASSIGN
PL6.E3A0      #003=DFA$MLCT_ACTIVE File=DFA$DLCT.:E05TSI                         TUE 07/29/97 14:29 Page:113
              *** CROSS REFERENCE LISTING ***
    **     DENOTES     IDENTIFIER DEFINITION
    <<                 IDENTIFIER'S VALUE SET
    >>                 IDENTIFIER'S VALUE USED
    <>                 IDENTIFIER SET AND/OR USED
    --                 IDENTIFIER REFERENCED
PL6.E3A0      #003=DFA$MLCT_ACTIVE File=DFA$DLCT.:E05TSI                         TUE 07/29/97 14:29 Page:114
              MINI UREF LISTING

DFA$MLCT_ACTIVE      13**PROC
M$ACCT      61**DCL-ENT
M$ACTIVATE      64**DCL-ENT
M$ALIB      57**DCL-ENT
M$ASUSER      59**DCL-ENT
M$ATTACH      66**DCL-ENT
M$BADPP      84**DCL-ENT
M$CGCTL      65**DCL-ENT
M$CGINFO      65**DCL-ENT
M$CHECK      46**DCL-ENT
M$CHGUNIT     104**DCL-ENT
M$CLOSE      44**DCL-ENT
M$CLRSTK     102**DCL-ENT
M$CMDVAR     113**DCL-ENT
M$CONFIG      74**DCL-ENT
M$CORRES      49**DCL-ENT
M$CPEXIT      58**DCL-ENT
M$CVM      82**DCL-ENT
M$CVOL      47**DCL-ENT
M$DCLFLD      74**DCL-ENT
M$DEACTIVATE      64**DCL-ENT
M$DELREC      46**DCL-ENT
M$DEQ     111**DCL-ENT
M$DETACH      66**DCL-ENT
M$DEVICE      48**DCL-ENT
M$DISPLAY     111**DCL-ENT
M$DISPRES      51**DCL-ENT
M$DLIB      57**DCL-ENT
M$DRIBBLE      74**DCL-ENT
M$DRTN     102**DCL-ENT
M$DSUSER      59**DCL-ENT
M$ENQ     110**DCL-ENT
PL6.E3A0      #003=DFA$MLCT_ACTIVE File=DFA$DLCT.:E05TSI                         TUE 07/29/97 14:29 Page:115
M$EOM      69**DCL-ENT
M$ERASE      75**DCL-ENT
M$ERR      56**DCL-ENT
M$ERRMSG     107**DCL-ENT
M$EVENT      99**DCL-ENT
M$EXHUME     108**DCL-ENT
M$EXIT      56**DCL-ENT
M$EXTEND      48**DCL-ENT
M$FDP      80**DCL-ENT
M$FDS      79**DCL-ENT
M$FEBOOT      72**DCL-ENT
M$FECTL      73**DCL-ENT
M$FEDUMP      72**DCL-ENT
M$FID     107**DCL-ENT
M$FINDPROC      61**DCL-ENT
M$FSUSER      59**DCL-ENT
M$FVP      81**DCL-ENT
M$FWCG      65**DCL-ENT
M$GBPL      85**DCL-ENT
M$GDDL      81**DCL-ENT
M$GDP      80**DCL-ENT
M$GDS      79**DCL-ENT
M$GETDCB      50**DCL-ENT
M$GETMOUSE      90**DCL-ENT
M$GETPM      91**DCL-ENT
M$GJOB     109**DCL-ENT
M$GLINEATTR      69**DCL-ENT
M$GOODPP      84**DCL-ENT
M$GPLATEN      77**DCL-ENT
M$GPROMPT      76**DCL-ENT
M$GTRMATTR      70**DCL-ENT
M$GTRMCTL      68**DCL-ENT
M$GTRMTAB      71**DCL-ENT
M$GVP      80**DCL-ENT
M$HELP     107**DCL-ENT
M$INT      99**DCL-ENT
PL6.E3A0      #003=DFA$MLCT_ACTIVE File=DFA$DLCT.:E05TSI                         TUE 07/29/97 14:29 Page:116
M$INTRTN      60**DCL-ENT
M$IOQ      95**DCL-ENT
M$JOBSTATS     109**DCL-ENT
M$KEYIN      49**DCL-ENT
M$LDEV      44**DCL-ENT
M$LDTRC      57**DCL-ENT
M$LIMIT      50**DCL-ENT
M$LINES      49**DCL-ENT
M$LINK      56**DCL-ENT
M$MADMUCK      52**DCL-ENT
M$MAKUSER      83**DCL-ENT
M$MBS      51**DCL-ENT
M$MDFFLD      75**DCL-ENT
M$MERC     100**DCL-ENT
M$MERCS     101**DCL-ENT
M$MIRROR      95**DCL-ENT
M$MONINFO     112**DCL-ENT
M$MPL      85**DCL-ENT
M$NODEINFO      76**DCL-ENT
M$NXTUSR     110**DCL-ENT
M$OCMSG     108**DCL-ENT
M$OLAY      56**DCL-ENT
M$OPEN      44**DCL-ENT
M$PAS      85**DCL-ENT
M$PATHCON     108**DCL-ENT
M$PDS      79**DCL-ENT
M$PFIL      46**DCL-ENT
M$PLATEN      70**DCL-ENT
M$PRECORD      48**DCL-ENT
M$PROCNAME      61**DCL-ENT
M$PROFILE      72**DCL-ENT
M$PROMPT      68**DCL-ENT
M$RACST      52**DCL-ENT
M$RDSYSLOG      93**DCL-ENT
M$READ      45**DCL-ENT
M$RELDCB      50**DCL-ENT
PL6.E3A0      #003=DFA$MLCT_ACTIVE File=DFA$DLCT.:E05TSI                         TUE 07/29/97 14:29 Page:117
M$RELRES      51**DCL-ENT
M$RELSTARF      53**DCL-ENT
M$REM      53**DCL-ENT
M$RENV     100**DCL-ENT
M$REQUIRE      52**DCL-ENT
M$RETRY     101**DCL-ENT
M$RETRYS     101**DCL-ENT
M$REW      47**DCL-ENT
M$RLSFLD      75**DCL-ENT
M$RPRIV     103**DCL-ENT
M$RSPP      82**DCL-ENT
M$RSWITCH     104**DCL-ENT
M$RUE     110**DCL-ENT
M$SAD      83**DCL-ENT
M$SAVE      59**DCL-ENT
M$SCON      60**DCL-ENT
M$SENV     100**DCL-ENT
M$SETFMA      44**DCL-ENT
M$SETFP      73**DCL-ENT
M$SINPUT      71**DCL-ENT
M$SLCFLD      76**DCL-ENT
M$SMOUSE      90**DCL-ENT
M$SMPRT      82**DCL-ENT
M$SPRIV     103**DCL-ENT
M$SSC      83**DCL-ENT
M$SSWITCH     103**DCL-ENT
M$STATE     112**DCL-ENT
M$STD      84**DCL-ENT
M$STIMER      98**DCL-ENT
M$STLPP      81**DCL-ENT
M$STRAP      98**DCL-ENT
M$STRMATTR      70**DCL-ENT
M$STRMCTL      68**DCL-ENT
M$STRMTAB      71**DCL-ENT
M$SYMBIO     109**DCL-ENT
M$SYSCON      95**DCL-ENT
PL6.E3A0      #003=DFA$MLCT_ACTIVE File=DFA$DLCT.:E05TSI                         TUE 07/29/97 14:29 Page:118
M$SYSID     113**DCL-ENT
M$TDCLOSE      94**DCL-ENT
M$TDIO      94**DCL-ENT
M$TDOPEN      93**DCL-ENT
M$TDREQCPU      94**DCL-ENT
M$TEMPWROC      88**DCL-ENT
M$TIME     111**DCL-ENT
M$TRAP      98**DCL-ENT
M$TRMISC      73**DCL-ENT
M$TRMPRG      69**DCL-ENT
M$TRTN     102**DCL-ENT
M$TRUNC      45**DCL-ENT
M$TTIMER      98**DCL-ENT
M$UC      68**DCL
M$UMPL      85**DCL-ENT
M$UNFID     107**DCL-ENT
M$UNLATCH      64**DCL-ENT
M$UNSHARE      61**DCL-ENT
M$USRFIELD     104**DCL-ENT
M$VIRTUAL      79**DCL-ENT
M$WAIT     102**DCL-ENT
M$WEOF      47**DCL-ENT
M$WRITE      45**DCL-ENT
M$WRSYSLOG      93**DCL-ENT
M$XCON      99**DCL-ENT
M$XCONRTN      60**DCL-ENT
M$XEQTIME     112**DCL-ENT
M$XFLUSH      53**DCL-ENT
M$XMOUSE      90**DCL-ENT
M$XXX      56**DCL-ENT
M$YC      58**DCL-ENT
SC_MESSAGE     158**DCL
S_D_ACCESS$    2952**DCL
S_D_ANLZ$    2954**DCL
S_D_ASTACKOFF$    2953**DCL
S_D_BREAK$    2955**DCL
PL6.E3A0      #003=DFA$MLCT_ACTIVE File=DFA$DLCT.:E05TSI                         TUE 07/29/97 14:29 Page:119
S_D_DO_SCAN$    2956**DCL
S_D_ERROR$    2957**DCL
S_D_FAULTCMD$$    2958**DCL
S_D_FAULTINS$$    2959**DCL
S_D_GOIC$    2960**DCL
S_D_GO_MODE$    2961**DCL
S_D_HW_PTB_UNITS$    2977**DCL
S_D_HW_RES_MEM$    2975**DCL
S_D_HW_WSQ0PT$    2976**DCL
S_D_IPRFLT$    2963**DCL
S_D_IXFIX$    2962**DCL
S_D_REM_ACCESS$    2964**DCL
S_D_REM_DISKBOOT$    2966**DCL
S_D_REM_DO_SCAN$    2965**DCL
S_D_RETURNN$    2967**DCL
S_D_SAD$    2968**DCL
S_D_SAVEIC$    2969**DCL
S_D_SEG$    2951**DCL
S_D_TCB$$    2970**DCL
S_D_UREG$$    2971**DCL
S_D_USS$$    2972**DCL
