VERSION E05

PL6.E3A0      #001=DFA$FPRG File=DFA$FPRG.:E05TSI                                TUE 07/29/97 14:31 Page:1
        1        1        /*M*  DFA$FPRG - Set up access to FPRG RU */
        2        2        /*T***********************************************************/
        3        3        /*T*                                                         */
        4        4        /*T* Copyright (c) Bull HN Information Systems Inc., 1997    */
        5        5        /*T*                                                         */
        6        6        /*T***********************************************************/
        7        7        /*X* DMR,PLM=5,IND=5,CSU=3,EXM=0,ECU=3,MOC,DCI=5,CRT=5 */
        8        8        /*P*  NAME: DFA$FPRG
        9        9              PURPOSE:
       10       10                    Set up access to FPRG RU       */
       11       11        /**/
       12       12        DFA$FPRG: PROC(IC);
       13       13        /**/
       14       14    1   DCL IC UBIN;                            /* Current IC */
       15       15        /**/
       16       16        %INCLUDE CP_6;
       17       97        %F$DCB;
       18      154        %INCLUDE XUH_MACRO_C;
       19      238        %INCLUDE DD_SD_M;
       20     1574        %S_D;
       21     2892        %S_D_PTRS;
       22     2929        %INCLUDE DD$BASED;
       23     4232        %FPRG$CONTEXT;
       24     4295        %RUM$CMD;
       25     4319        %INCLUDE DD_PSUBS_C;
       26     4794        %INCLUDE DD_ERR_C;
       27     5191        %INCLUDE DD_SUBS_C;
       28     5462        /* Symref */
       29     5463    1   DCL D_M$LM# UBIN SYMREF;
       30     5464        /* Constant */
       31     5465        %FPT_OPEN(FPTN=FPT_OPEN,
       32     5466                  STCLASS=CONSTANT,
       33     5467                  FUN=IN,
       34     5468                  XONLY=YES,
       35     5469                  ASN=FILE,
       36     5470                  SCRUB=YES);
       37     5579        %FPT_RELDCB(FPTN=FPT_RELDCB,
PL6.E3A0      #001=DFA$FPRG File=DFA$FPRG.:E05TSI                                TUE 07/29/97 14:31 Page:2
       38     5580                    STCLASS=SYMREF);
       39     5594        %FPT_CLOSE(FPTN=FPT_CLOSE,
       40     5595                   STCLASS=SYMREF);
       41     5637        /* Auto */
       42     5638        %FPT_OPEN(FPTN=FPTOPEN,
       43     5639                  STCLASS=);
       44     5748        %VLP_SN(FPTN=VLP_SN,
       45     5749                STCLASS=,
       46     5750                N=1);
       47     5763        %VLP_NAME(FPTN=VLP_NAME,
       48     5764                  STCLASS=,
       49     5765                  LEN=31);
       50     5792        %VLP_ACCT(FPTN=VLP_ACCT,
       51     5793                  STCLASS=);
       52     5806        %VLP_PASS(FPTN=VLP_PASS,
       53     5807                  STCLASS=);
       54     5820        %FPT_RELDCB(FPTN=FPTRELDCB,
       55     5821                    STCLASS=);
       56     5835    1   DCL DCBNO UBIN;
       57     5836        %FPT_CLOSE(FPTN=FPTCLOSE,
       58     5837                   STCLASS=);
       59     5879        /* Entrys */
       60     5880    1   DCL DDA$TRACEON ENTRY;
       61     5881    1   DCL DDA$RESET_PATCH_SPACE ENTRY;
       62     5882    1   DCL DDE$ERROR ENTRY;
       63     5883    1   DCL DDM$PUTMEM ENTRY(3) ALTRET;
       64     5884    1   DCL DDS$ES_INQ ENTRY(1) ALTRET;
       65     5885    1   DCL DDS$SET_Q2C ENTRY ALTRET;
       66     5886    1   DCL DDT$TRACEOFF ENTRY;
       67     5887    1   DCL DFA$GET_FPRG_DCB ENTRY(1);
       68     5888    1   DCL DUA$KILL_ANLZ ENTRY ALTRET;
       69     5889    1   DCL DUA$KILL_RUM ENTRY;
       70     5890    1   DCL DUE$ERRMSG ENTRY;
       71     5891    1   DCL DUI$INIT_HOST ENTRY;
       72     5892    1   DCL DUI$INIT_L6 ENTRY;
       73     5893    1   DCL DUI$RU_ACCESS ENTRY ALTRET;
       74     5894        /**/
PL6.E3A0      #001=DFA$FPRG File=DFA$FPRG.:E05TSI                                TUE 07/29/97 14:31 Page:3
       75     5895                                                /* Cleanup current RU access */
       76     5896    1        IF S_D.ANLZ
       77     5897    1        THEN CALL DUA$KILL_ANLZ;
       78     5898    1        IF S_D.TR$INFO.ACTIVE
       79     5899    2        THEN DO;
       80     5900    2             S_D.TRACE_STATE = '1'B;
       81     5901    2             CALL DDT$TRACEOFF;
       82     5902    2           END;
       83     5903    1        ELSE S_D.TRACE_STATE = '0'B;
       84     5904    1        IF S_D.RUM
       85     5905    1        THEN CALL DUA$KILL_RUM;
       86     5906    1        CALL KILL_FPRG ALTRET(REPORT_XXX);
       87     5907    1        CALL DUI$INIT_L6;
       88     5908    1        S_D.FPRG = '1'B;
       89     5909    1        FPTOPEN = FPT_OPEN;
       90     5910    1        FPTOPEN.V_ = VECTOR(FPTOPEN.V);
       91     5911    1        FPTOPEN.SN_ = VECTOR(VLP_SN);
       92     5912    1        FPTOPEN.NAME_ = VECTOR(VLP_NAME);
       93     5913    1        FPTOPEN.ACCT_ = VECTOR(VLP_ACCT);
       94     5914    1        FPTOPEN.PASS_ = VECTOR(VLP_PASS);
       95     5915    1        VLP_SN.SN#(0) = S_D.CURRENT_FPRG_CONTEXT$ -> FPRG$CONTEXT.RUFID.PSN;
       96     5916    1        VLP_NAME.L# = S_D.CURRENT_FPRG_CONTEXT$ -> FPRG$CONTEXT.RUFID.FNAME.SIZE;
       97     5917    1        VLP_NAME.NAME# = S_D.CURRENT_FPRG_CONTEXT$ -> FPRG$CONTEXT.RUFID.FNAME.TEXT;
       98     5918    1        VLP_ACCT.ACCT# = S_D.CURRENT_FPRG_CONTEXT$ -> FPRG$CONTEXT.RUFID.ACCT;
       99     5919    1        VLP_PASS.PASS# = S_D.CURRENT_FPRG_CONTEXT$ -> FPRG$CONTEXT.RUFID.PASS;
      100     5920                                                /* May need a DCB */
      101     5921    1        IF S_D.FPRGDCB = 0
      102     5922    2        THEN DO;
      103     5923    2             CALL DFA$GET_FPRG_DCB (DCBNO);
      104     5924    2             S_D.FPRGDCB = DCBNO;
      105     5925    2             S_D.LMDCB = DCBNO;
      106     5926    2           END;
      107     5927    1        ELSE S_D.LMDCB = S_D.FPRGDCB;
      108     5928    1        FPTOPEN.V.DCB# = S_D.LMDCB;
      109     5929                                                /* We are now debugging an FPRG */
      110     5930    1        S_D.SAVEIC_SAVE = S_D.SAVEIC;
      111     5931                                                /* Open file for schema */
PL6.E3A0      #001=DFA$FPRG File=DFA$FPRG.:E05TSI                                TUE 07/29/97 14:31 Page:4
      112     5932    1        CALL M$OPEN (FPTOPEN) ALTRET(NOOPN);
      113     5933                                                /* Set up schema */
      114     5934    1   SCHEMA:
      115     5935    1        CALL DUI$RU_ACCESS
      116     5936    2        WHENALTRETURN DO;
      117     5937    2             CALL DDE$ERROR;
      118     5938    2             GOTO KILL_IT1;
      119     5939    2           END;
      120     5940    1   SETUP:
      121     5941    1        S_D.SAVEIC = IC;
      122     5942    1        CALL DDS$ES_INQ(S_D.SAVEIC) ALTRET(GO1);
      123     5943    1        CALL DDS$SET_Q2C;
      124     5944    1   GO1: ;
      125     5945    1        RETURN;
      126     5946        /**/
      127     5947    1   NOOPN: ;
      128     5948    1        CALL DUE$ERRMSG;
      129     5949    1        GOTO KILL_IT1;
      130     5950    1   REPORT_XXX: ;
      131     5951    1        CALL DDE$ERROR;
      132     5952    1        CALL M$XXX;
      133     5953        %EJECT;
PL6.E3A0      #001=DFA$FPRG File=DFA$FPRG.:E05TSI                                TUE 07/29/97 14:31 Page:5
      134     5954        /*F* NAME: DFA$KILL_FPRG
      135     5955             PURPOSE: To kill the currently active FPRG */
      136     5956    1   DFA$KILL_FPRG: ENTRY(IC);
      137     5957        /**/
      138     5958                                                /* Kill current FPRG */
      139     5959    1   KILL_IT1: ;
      140     5960    1        CALL KILL_FPRG ALTRET(REPORT_XXX);
      141     5961                                                /* Release FPRG DCB */
      142     5962    1        IF S_D.FPRGDCB ~= 0
      143     5963    2        THEN DO;
      144     5964    2             IF DCBADDR(S_D.FPRGDCB) ~= ADDR(NIL)
      145     5965    3             THEN DO;
      146     5966    3                  FPTRELDCB = FPT_RELDCB;
      147     5967    3                  FPTRELDCB.V_ = VECTOR(FPTRELDCB.V);
      148     5968    3                  FPTRELDCB.V.DCB# = S_D.FPRGDCB;
      149     5969    3                  CALL M$RELDCB (FPTRELDCB) ALTRET(NORELFPRG);
      150     5970    3                END;
      151     5971    2             S_D.FPRGDCB = 0;
      152     5972    2           END;
      153     5973    1        S_D.LMDCB = D_M$LM#;
      154     5974                                                /* Reestablish HOST mode */
      155     5975    1        S_D.FPRG = '0'B;
      156     5976    1        S_D.CURRENT_FPRG_CONTEXT$ = ADDR(NIL);
      157     5977    1        CALL DUI$INIT_HOST;
      158     5978    1        CALL DDA$RESET_PATCH_SPACE;
      159     5979    1        S_D.FIRST_TIME = '1'B;
      160     5980    1        CALL DUI$RU_ACCESS
      161     5981    2        WHENALTRETURN DO;
      162     5982    2             CALL DDE$ERROR;
      163     5983    2             CALL M$XXX;
      164     5984    2           END;
      165     5985    1        CALL DDS$ES_INQ(S_D.SAVEIC) ALTRET(KILL1);
      166     5986    1        CALL DDS$SET_Q2C;
      167     5987    1   KILL1: ;
      168     5988    1        IF S_D.TRACE_STATE
      169     5989    2        THEN DO;
      170     5990    2             S_D.TRACE_STATE = '0'B;
PL6.E3A0      #001=DFA$FPRG File=DFA$FPRG.:E05TSI                                TUE 07/29/97 14:31 Page:6
      171     5991    2             CALL DDA$TRACEON;
      172     5992    2           END;
      173     5993    1        RETURN;
      174     5994        /**/
      175     5995    1   NORELFPRG: ;
      176     5996    1        S_D.ERROR = E@RELFPRG;             /* E@RELFPRG */
      177     5997    1        CALL DUE$ERRMSG;
      178     5998    1        CALL DDE$ERROR;
      179     5999    1        CALL M$XXX;
      180     6000        %EJECT;
PL6.E3A0      #001=DFA$FPRG File=DFA$FPRG.:E05TSI                                TUE 07/29/97 14:31 Page:7
      181     6001    1   KILL_FPRG: PROC ALTRET;
      182     6002        /**/
      183     6003    2   DCL TOBREL UBIN;
      184     6004        /**/
      185     6005                                                /* Release schema memory */
      186     6006    2        TOBREL = POFFW(S_D.SCHSEG$, S_D.SCHSEG_BEGIN$);
      187     6007    2        IF TOBREL > 0
      188     6008    2        THEN CALL DDM$PUTMEM (S_D_SEG$, TOBREL) ALTRET(NORELS_D);
      189     6009    2        S_D.SCHSEG$ = S_D.SCHSEG_BEGIN$;
      190     6010    2        IF S_D.FPRG THEN S_D.SAVEIC = S_D.SAVEIC_SAVE;
      191     6011    2        IF  S_D.FPRGDCB ~= 0
      192     6012    2          AND DCBADDR(S_D.FPRGDCB) ~= ADDR(NIL)
      193     6013    2          AND DCBADDR(S_D.FPRGDCB) -> F$DCB.FCD#
      194     6014    3        THEN DO;
      195     6015    3             FPTCLOSE = FPT_CLOSE;
      196     6016    3             FPTCLOSE.V_ = VECTOR(FPTCLOSE.V);
      197     6017    3             FPTCLOSE.V.DCB# = S_D.FPRGDCB;
      198     6018    3             CALL M$CLOSE (FPTCLOSE) ALTRET(NOCLSFPRG);
      199     6019    3           END;
      200     6020    2        RETURN;
      201     6021        /**/
      202     6022    2   NORELS_D: ;
      203     6023    2        S_D.ERROR = E@RELS_D;              /* E@RELS_D */
      204     6024    2        ALTRETURN;
      205     6025    2   NOCLSFPRG: ;
      206     6026    2        CALL DUE$ERRMSG;
      207     6027    2        S_D.ERROR = E@CLSFPRG;             /* E@CLSFPRG */
      208     6028    2        ALTRETURN;
      209     6029    2   END KILL_FPRG;
      210     6030
      211     6031    1   END DFA$FPRG;
      212     6032        %EOD;

PL6.E3A0      #001=DFA$FPRG File=DFA$FPRG.:E05TSI                                TUE 07/29/97 14:31 Page:8
--  Include file information  --

   DD_SUBS_C.:E05TOU  is referenced.
   DD_ERR_C.:E05TOU  is referenced.
   DD_PSUBS_C.:E05TOU  is referenced.
   DD$BASED.:E05TOU  is referenced.
   DD_SD_M.:E05TOU  is referenced.
   XUH_MACRO_C.:E05TOU  is referenced.
   CP_6.:E05TOU  cannot be made into a system file and is referenced.
   B$JIT_C.:E05TOU  was found in the system file and is never referenced.
   CP_6_C.:E05TOU  was found in the system file and is referenced.
      No diagnostics issued in procedure DFA$FPRG.

   Procedure DFA$FPRG requires 283 words for executable code.
   Procedure DFA$FPRG requires 118 words of local(AUTO) storage.

PL6.E3A0      #001=DFA$FPRG File=DFA$FPRG.:E05TSI                                TUE 07/29/97 14:31 Page:9

 Object Unit name= DFA$FPRG                                   File name= DFA$FPRG.:E05TOU
 UTS= JUL 29 '97 14:31:48.20 TUE                              Compiler= PL-6/E31         Sev=      00
 SharedLib= :SHARED_SYSTEM                                    Alt SharedLib=


    ****  Control sections  ****

 Sect   Type Bound  Init  Size OctSiz  Section name(segment info)
    0   DCB   even  none     0      0  M$UC
    1  RoData even  UTS     58     72  DFA$FPRG
    2   Proc  even  none   283    433  DFA$FPRG
    3  RoData even  none     6      6  DFA$FPRG

    ****  Entry defs  ****

                              Check   Calling
                             calling  sequence
  Sect OctLoc Primary Altret sequence   type   Parms  Name
     2      0   yes            yes      Std        1  DFA$FPRG
     2    206                  yes      Std        1  DFA$KILL_FPRG
PL6.E3A0      #001=DFA$FPRG File=DFA$FPRG.:E05TSI                                TUE 07/29/97 14:31 Page:10

  ****  Entry refs  ****

         Check        Calling
        calling       sequence
Altret sequence SRef   type   Args  Name
 yes     yes           Std       0 DUA$KILL_ANLZ
         yes           Std       0 DUA$KILL_RUM
         yes           Std       0 DDT$TRACEOFF
         yes           Std       1 DFA$GET_FPRG_DCB
 yes     yes           Std       0 DDS$SET_Q2C
         yes           Std       0 DDA$TRACEON
         yes           Std       0 DUE$ERRMSG
         yes           Std       0 DDA$RESET_PATCH_SPACE
 yes     yes           Std       1 DDS$ES_INQ
         yes           Std       0 DUI$INIT_HOST
         yes           Std       0 DUI$INIT_L6
 yes     yes           Std       0 DUI$RU_ACCESS
         yes           Std       0 DDE$ERROR
 yes     yes           Std       3 DDM$PUTMEM
                       nStd      0 X66_AUTO_1
                       Std       0 B_CONSPOOL_D
                       nStd      0 X66_ARET

  ****  Data refs  ****

  Flags:  r = read only, s = secondary
Flgs Name                             Flgs Name                             Flgs Name
     M$UC                             r    S_D$                             r    S_D_SEG$
     D_M$LM#                               FPT_RELDCB                            FPT_CLOSE
     B_VECTNIL

  ****  Segment refs  ****

  Flags:  r = read only, s = secondary
Flgs Name                             Flgs Name                             Flgs Name
     ISSID                                 NULLSID                               ROSID
PL6.E3A0      #001=DFA$FPRG File=DFA$FPRG.:E05TSI                                TUE 07/29/97 14:31 Page:11


        1        1        /*M*  DFA$FPRG - Set up access to FPRG RU */
        2        2        /*T***********************************************************/
        3        3        /*T*                                                         */
        4        4        /*T* Copyright (c) Bull HN Information Systems Inc., 1997    */
        5        5        /*T*                                                         */
        6        6        /*T***********************************************************/
        7        7        /*X* DMR,PLM=5,IND=5,CSU=3,EXM=0,ECU=3,MOC,DCI=5,CRT=5 */
        8        8        /*P*  NAME: DFA$FPRG
        9        9              PURPOSE:
       10       10                    Set up access to FPRG RU       */
       11       11        /**/
       12       12        DFA$FPRG: PROC(IC);

     12  2 000000   000000 700200 xent  DFA$FPRG     TSX0  ! X66_AUTO_1
         2 000001   000166 000001                    ZERO    118,1

       13       13        /**/
       14       14    1   DCL IC UBIN;                            /* Current IC */
       15       15        /**/
       16       16        %INCLUDE CP_6;
       17       97        %F$DCB;
       18      154        %INCLUDE XUH_MACRO_C;
       19      238        %INCLUDE DD_SD_M;
       20     1574        %S_D;
       21     2892        %S_D_PTRS;
       22     2929        %INCLUDE DD$BASED;
       23     4232        %FPRG$CONTEXT;
       24     4295        %RUM$CMD;
       25     4319        %INCLUDE DD_PSUBS_C;
       26     4794        %INCLUDE DD_ERR_C;
       27     5191        %INCLUDE DD_SUBS_C;
       28     5462        /* Symref */
       29     5463    1   DCL D_M$LM# UBIN SYMREF;
       30     5464        /* Constant */
       31     5465        %FPT_OPEN(FPTN=FPT_OPEN,
       32     5466                  STCLASS=CONSTANT,
PL6.E3A0      #001=DFA$FPRG File=DFA$FPRG.:E05TSI                                TUE 07/29/97 14:31 Page:12
       33     5467                  FUN=IN,
       34     5468                  XONLY=YES,
       35     5469                  ASN=FILE,
       36     5470                  SCRUB=YES);
       37     5579        %FPT_RELDCB(FPTN=FPT_RELDCB,
       38     5580                    STCLASS=SYMREF);
       39     5594        %FPT_CLOSE(FPTN=FPT_CLOSE,
       40     5595                   STCLASS=SYMREF);
       41     5637        /* Auto */
       42     5638        %FPT_OPEN(FPTN=FPTOPEN,
       43     5639                  STCLASS=);
       44     5748        %VLP_SN(FPTN=VLP_SN,
       45     5749                STCLASS=,
       46     5750                N=1);
       47     5763        %VLP_NAME(FPTN=VLP_NAME,
       48     5764                  STCLASS=,
       49     5765                  LEN=31);
       50     5792        %VLP_ACCT(FPTN=VLP_ACCT,
       51     5793                  STCLASS=);
       52     5806        %VLP_PASS(FPTN=VLP_PASS,
       53     5807                  STCLASS=);
       54     5820        %FPT_RELDCB(FPTN=FPTRELDCB,
       55     5821                    STCLASS=);
       56     5835    1   DCL DCBNO UBIN;
       57     5836        %FPT_CLOSE(FPTN=FPTCLOSE,
       58     5837                   STCLASS=);
       59     5879        /* Entrys */
       60     5880    1   DCL DDA$TRACEON ENTRY;
       61     5881    1   DCL DDA$RESET_PATCH_SPACE ENTRY;
       62     5882    1   DCL DDE$ERROR ENTRY;
       63     5883    1   DCL DDM$PUTMEM ENTRY(3) ALTRET;
       64     5884    1   DCL DDS$ES_INQ ENTRY(1) ALTRET;
       65     5885    1   DCL DDS$SET_Q2C ENTRY ALTRET;
       66     5886    1   DCL DDT$TRACEOFF ENTRY;
       67     5887    1   DCL DFA$GET_FPRG_DCB ENTRY(1);
       68     5888    1   DCL DUA$KILL_ANLZ ENTRY ALTRET;
       69     5889    1   DCL DUA$KILL_RUM ENTRY;
PL6.E3A0      #001=DFA$FPRG File=DFA$FPRG.:E05TSI                                TUE 07/29/97 14:31 Page:13
       70     5890    1   DCL DUE$ERRMSG ENTRY;
       71     5891    1   DCL DUI$INIT_HOST ENTRY;
       72     5892    1   DCL DUI$INIT_L6 ENTRY;
       73     5893    1   DCL DUI$RU_ACCESS ENTRY ALTRET;
       74     5894        /**/
       75     5895                                                /* Cleanup current RU access */
       76     5896    1        IF S_D.ANLZ

   5896  2 000002   000000 470400 xsym               LDP0    S_D$
         2 000003   004756 234100                    SZN     2542,,PR0
         2 000004   000010 605000 2                  TPL     s:5898

       77     5897    1        THEN CALL DUA$KILL_ANLZ;

   5897  2 000005   000002 631400 xsym               EPPR1   B_VECTNIL+2
         2 000006   000000 701000 xent               TSX1    DUA$KILL_ANLZ
         2 000007   000000 011000                    NOP     0

       78     5898    1        IF S_D.TR$INFO.ACTIVE

   5898  2 000010   000000 470400 xsym               LDP0    S_D$
         2 000011   004630 234100                    SZN     2456,,PR0
         2 000012   000021 605000 2                  TPL     s:5903

       79     5899    2        THEN DO;

       80     5900    2             S_D.TRACE_STATE = '1'B;

   5900  2 000013   400000 236003                    LDQ     -131072,DU
         2 000014   005143 756100                    STQ     2659,,PR0

       81     5901    2             CALL DDT$TRACEOFF;

   5901  2 000015   000002 631400 xsym               EPPR1   B_VECTNIL+2
         2 000016   000000 701000 xent               TSX1    DDT$TRACEOFF
         2 000017   000000 011000                    NOP     0

PL6.E3A0      #001=DFA$FPRG File=DFA$FPRG.:E05TSI                                TUE 07/29/97 14:31 Page:14
       82     5902    2           END;

   5902  2 000020   000022 710000 2                  TRA     s:5904

       83     5903    1        ELSE S_D.TRACE_STATE = '0'B;

   5903  2 000021   005143 450100                    STZ     2659,,PR0

       84     5904    1        IF S_D.RUM

   5904  2 000022   000000 470400 xsym               LDP0    S_D$
         2 000023   004755 234100                    SZN     2541,,PR0
         2 000024   000030 605000 2                  TPL     s:5906

       85     5905    1        THEN CALL DUA$KILL_RUM;

   5905  2 000025   000002 631400 xsym               EPPR1   B_VECTNIL+2
         2 000026   000000 701000 xent               TSX1    DUA$KILL_RUM
         2 000027   000000 011000                    NOP     0

       86     5906    1        CALL KILL_FPRG ALTRET(REPORT_XXX);

   5906  2 000030   000330 701000 2                  TSX1    KILL_FPRG
         2 000031   000200 702000 2                  TSX2    REPORT_XXX

       87     5907    1        CALL DUI$INIT_L6;

   5907  2 000032   000002 631400 xsym               EPPR1   B_VECTNIL+2
         2 000033   000000 701000 xent               TSX1    DUI$INIT_L6
         2 000034   000000 011000                    NOP     0

       88     5908    1        S_D.FPRG = '1'B;

   5908  2 000035   400000 236003                    LDQ     -131072,DU
         2 000036   000000 470400 xsym               LDP0    S_D$
         2 000037   000101 756100                    STQ     65,,PR0

PL6.E3A0      #001=DFA$FPRG File=DFA$FPRG.:E05TSI                                TUE 07/29/97 14:31 Page:15
       89     5909    1        FPTOPEN = FPT_OPEN;

   5909  2 000040   000100 100400                    MLR     fill='000'O
         2 000041   000000 000350 1                  ADSC9   FPT_OPEN                 cn=0,n=232
         2 000042   200004 000350                    ADSC9   FPTOPEN,,AUTO            cn=0,n=232

       90     5910    1        FPTOPEN.V_ = VECTOR(FPTOPEN.V);

   5910  2 000043   000000 235000 3                  LDA     0
         2 000044   200164 452500                    STP2    TOBREL+1,,AUTO
         2 000045   200164 236100                    LDQ     TOBREL+1,,AUTO
         2 000046   000050 036003                    ADLQ    40,DU
         2 000047   200004 757100                    STAQ    FPTOPEN,,AUTO

       91     5911    1        FPTOPEN.SN_ = VECTOR(VLP_SN);

   5911  2 000050   000001 235000 3                  LDA     1
         2 000051   200164 452500                    STP2    TOBREL+1,,AUTO
         2 000052   200164 236100                    LDQ     TOBREL+1,,AUTO
         2 000053   000076 036003                    ADLQ    62,DU
         2 000054   200006 757100                    STAQ    FPTOPEN+2,,AUTO

       92     5912    1        FPTOPEN.NAME_ = VECTOR(VLP_NAME);

   5912  2 000055   000002 235000 3                  LDA     2
         2 000056   200164 452500                    STP2    TOBREL+1,,AUTO
         2 000057   200164 236100                    LDQ     TOBREL+1,,AUTO
         2 000060   000102 036003                    ADLQ    66,DU
         2 000061   200012 757100                    STAQ    FPTOPEN+6,,AUTO

       93     5913    1        FPTOPEN.ACCT_ = VECTOR(VLP_ACCT);

   5913  2 000062   000003 235000 3                  LDA     3
         2 000063   200164 452500                    STP2    TOBREL+1,,AUTO
         2 000064   200164 236100                    LDQ     TOBREL+1,,AUTO
         2 000065   000112 036003                    ADLQ    74,DU
         2 000066   200030 757100                    STAQ    FPTOPEN+20,,AUTO
PL6.E3A0      #001=DFA$FPRG File=DFA$FPRG.:E05TSI                                TUE 07/29/97 14:31 Page:16

       94     5914    1        FPTOPEN.PASS_ = VECTOR(VLP_PASS);

   5914  2 000067   000003 235000 3                  LDA     3
         2 000070   200164 452500                    STP2    TOBREL+1,,AUTO
         2 000071   200164 236100                    LDQ     TOBREL+1,,AUTO
         2 000072   000114 036003                    ADLQ    76,DU
         2 000073   200014 757100                    STAQ    FPTOPEN+8,,AUTO

       95     5915    1        VLP_SN.SN#(0) = S_D.CURRENT_FPRG_CONTEXT$ -> FPRG$CONTEXT.RUFID.PSN;

   5915  2 000074   000102 471500                    LDP1    66,,PR0
         2 000075   040100 100500                    MLR     fill='040'O
         2 000076   100031 000006                    ADSC9   25,,PR1                  cn=0,n=6
         2 000077   200077 000006                    ADSC9   VLP_SN+1,,AUTO           cn=0,n=6

       96     5916    1        VLP_NAME.L# = S_D.CURRENT_FPRG_CONTEXT$ -> FPRG$CONTEXT.RUFID.FNAME.SIZE;

   5916  2 000100   100015 236100                    LDQ     13,,PR1
         2 000101   200102 552140                    STBQ    VLP_NAME,'40'O,AUTO

       97     5917    1        VLP_NAME.NAME# = S_D.CURRENT_FPRG_CONTEXT$ -> FPRG$CONTEXT.RUFID.FNAME.TEXT;

   5917  2 000102   000102 471500                    LDP1    66,,PR0
         2 000103   040100 100500                    MLR     fill='040'O
         2 000104   100015 200037                    ADSC9   13,,PR1                  cn=1,n=31
         2 000105   200102 200037                    ADSC9   VLP_NAME,,AUTO           cn=1,n=31

       98     5918    1        VLP_ACCT.ACCT# = S_D.CURRENT_FPRG_CONTEXT$ -> FPRG$CONTEXT.RUFID.ACCT;

   5918  2 000106   000102 471500                    LDP1    66,,PR0
         2 000107   040100 100500                    MLR     fill='040'O
         2 000110   100025 000010                    ADSC9   21,,PR1                  cn=0,n=8
         2 000111   200112 000010                    ADSC9   VLP_ACCT,,AUTO           cn=0,n=8

       99     5919    1        VLP_PASS.PASS# = S_D.CURRENT_FPRG_CONTEXT$ -> FPRG$CONTEXT.RUFID.PASS;

PL6.E3A0      #001=DFA$FPRG File=DFA$FPRG.:E05TSI                                TUE 07/29/97 14:31 Page:17
   5919  2 000112   000102 471500                    LDP1    66,,PR0
         2 000113   040100 100500                    MLR     fill='040'O
         2 000114   100027 000010                    ADSC9   23,,PR1                  cn=0,n=8
         2 000115   200114 000010                    ADSC9   VLP_PASS,,AUTO           cn=0,n=8

      100     5920                                                /* May need a DCB */
      101     5921    1        IF S_D.FPRGDCB = 0

   5921  2 000116   000100 235100                    LDA     64,,PR0
         2 000117   000134 601000 2                  TNZ     s:5927

      102     5922    2        THEN DO;

      103     5923    2             CALL DFA$GET_FPRG_DCB (DCBNO);

   5923  2 000120   200122 631500                    EPPR1   DCBNO,,AUTO
         2 000121   200164 451500                    STP1    TOBREL+1,,AUTO
         2 000122   200164 630500                    EPPR0   TOBREL+1,,AUTO
         2 000123   000017 631400 xsym               EPPR1   B_VECTNIL+15
         2 000124   000000 701000 xent               TSX1    DFA$GET_FPRG_DCB
         2 000125   000000 011000                    NOP     0

      104     5924    2             S_D.FPRGDCB = DCBNO;

   5924  2 000126   000000 470400 xsym               LDP0    S_D$
         2 000127   200122 235100                    LDA     DCBNO,,AUTO
         2 000130   000100 755100                    STA     64,,PR0

      105     5925    2             S_D.LMDCB = DCBNO;

   5925  2 000131   200122 236100                    LDQ     DCBNO,,AUTO
         2 000132   004774 756100                    STQ     2556,,PR0

      106     5926    2           END;

   5926  2 000133   000135 710000 2                  TRA     s:5928

PL6.E3A0      #001=DFA$FPRG File=DFA$FPRG.:E05TSI                                TUE 07/29/97 14:31 Page:18
      107     5927    1        ELSE S_D.LMDCB = S_D.FPRGDCB;

   5927  2 000134   004774 755100                    STA     2556,,PR0

      108     5928    1        FPTOPEN.V.DCB# = S_D.LMDCB;

   5928  2 000135   004774 720100                    LXL0    2556,,PR0
         2 000136   200050 740100                    STX0    FPTOPEN+36,,AUTO

      109     5929                                                /* We are now debugging an FPRG */
      110     5930    1        S_D.SAVEIC_SAVE = S_D.SAVEIC;

   5930  2 000137   000002 235100                    LDA     2,,PR0
         2 000140   005051 755100                    STA     2601,,PR0

      111     5931                                                /* Open file for schema */
      112     5932    1        CALL M$OPEN (FPTOPEN) ALTRET(NOOPN);

   5932  2 000141   200004 630500                    EPPR0   FPTOPEN,,AUTO
         2 000142   450000 713400                    CLIMB   alt,open
         2 000143   410400 401760                    pmme    nvectors=18
         2 000144   000174 702000 2                  TSX2    NOOPN

      113     5933                                                /* Set up schema */
      114     5934    1   SCHEMA:
      115     5935    1        CALL DUI$RU_ACCESS

   5935  2 000145   000002 631400 xsym  SCHEMA       EPPR1   B_VECTNIL+2
         2 000146   000000 701000 xent               TSX1    DUI$RU_ACCESS
         2 000147   000151 702000 2                  TSX2    s:5937
         2 000150   000155 710000 2                  TRA     SETUP

      116     5936    2        WHENALTRETURN DO;

      117     5937    2             CALL DDE$ERROR;

   5937  2 000151   000002 631400 xsym               EPPR1   B_VECTNIL+2
PL6.E3A0      #001=DFA$FPRG File=DFA$FPRG.:E05TSI                                TUE 07/29/97 14:31 Page:19
         2 000152   000000 701000 xent               TSX1    DDE$ERROR
         2 000153   000000 011000                    NOP     0

      118     5938    2             GOTO KILL_IT1;

   5938  2 000154   000210 710000 2                  TRA     KILL_IT1

      119     5939    2           END;
      120     5940    1   SETUP:
      121     5941    1        S_D.SAVEIC = IC;

   5941  2 000155   200003 470500       SETUP        LDP0    @IC,,AUTO
         2 000156   000000 471400 xsym               LDP1    S_D$
         2 000157   000000 235100                    LDA     0,,PR0
         2 000160   100002 755100                    STA     2,,PR1

      122     5942    1        CALL DDS$ES_INQ(S_D.SAVEIC) ALTRET(GO1);

   5942  2 000161   000000 236000 xsym               LDQ     S_D$
         2 000162   000002 036003                    ADLQ    2,DU
         2 000163   200164 756100                    STQ     TOBREL+1,,AUTO
         2 000164   200164 630500                    EPPR0   TOBREL+1,,AUTO
         2 000165   000017 631400 xsym               EPPR1   B_VECTNIL+15
         2 000166   000000 701000 xent               TSX1    DDS$ES_INQ
         2 000167   000173 702000 2                  TSX2    GO1

      123     5943    1        CALL DDS$SET_Q2C;

   5943  2 000170   000002 631400 xsym               EPPR1   B_VECTNIL+2
         2 000171   000000 701000 xent               TSX1    DDS$SET_Q2C
         2 000172   000000 011000                    NOP     0

   5943  2 000173                       GO1          null
      124     5944    1   GO1: ;
      125     5945    1        RETURN;

   5945  2 000173   000000 702200 xent               TSX2  ! X66_ARET
PL6.E3A0      #001=DFA$FPRG File=DFA$FPRG.:E05TSI                                TUE 07/29/97 14:31 Page:20

   5943  2 000174                       NOOPN        null
      126     5946        /**/
      127     5947    1   NOOPN: ;
      128     5948    1        CALL DUE$ERRMSG;

   5948  2 000174   000002 631400 xsym               EPPR1   B_VECTNIL+2
         2 000175   000000 701000 xent               TSX1    DUE$ERRMSG
         2 000176   000000 011000                    NOP     0

      129     5949    1        GOTO KILL_IT1;

   5949  2 000177   000210 710000 2                  TRA     KILL_IT1

   5943  2 000200                       REPORT_XXX   null
      130     5950    1   REPORT_XXX: ;
      131     5951    1        CALL DDE$ERROR;

   5951  2 000200   000002 631400 xsym               EPPR1   B_VECTNIL+2
         2 000201   000000 701000 xent               TSX1    DDE$ERROR
         2 000202   000000 011000                    NOP     0

      132     5952    1        CALL M$XXX;

   5952  2 000203   000003 713400                    CLIMB   3
         2 000204   000000 401760                    pmme    nvectors=0
         2 000205   000210 710000 2                  TRA     KILL_IT1

      133     5953        %EJECT;
PL6.E3A0      #001=DFA$FPRG File=DFA$FPRG.:E05TSI                                TUE 07/29/97 14:31 Page:21
      134     5954        /*F* NAME: DFA$KILL_FPRG
      135     5955             PURPOSE: To kill the currently active FPRG */
      136     5956    1   DFA$KILL_FPRG: ENTRY(IC);

   5956  2 000206   000000 700200 xent  DFA$KILL_FP* TSX0  ! X66_AUTO_1
         2 000207   000166 000001                    ZERO    118,1

   5943  2 000210                       KILL_IT1     null
      137     5957        /**/
      138     5958                                                /* Kill current FPRG */
      139     5959    1   KILL_IT1: ;
      140     5960    1        CALL KILL_FPRG ALTRET(REPORT_XXX);

   5960  2 000210   000330 701000 2                  TSX1    KILL_FPRG
         2 000211   000200 702000 2                  TSX2    REPORT_XXX

      141     5961                                                /* Release FPRG DCB */
      142     5962    1        IF S_D.FPRGDCB ~= 0

   5962  2 000212   000000 470400 xsym               LDP0    S_D$
         2 000213   000100 235100                    LDA     64,,PR0
         2 000214   000243 600000 2                  TZE     s:5973

      143     5963    2        THEN DO;

      144     5964    2             IF DCBADDR(S_D.FPRGDCB) ~= ADDR(NIL)

   5964  2 000215   000004 471400 3                  LDP1    4
         2 000216   100000 473500                    LDP3    0,,PR1
         2 000217   000100 720100                    LXL0    64,,PR0
         2 000220   300000 236110                    LDQ     0,X0,PR3
         2 000221   000001 116000 xsym               CMPQ    B_VECTNIL+1
         2 000222   000241 600000 2                  TZE     s:5971

      145     5965    3             THEN DO;

      146     5966    3                  FPTRELDCB = FPT_RELDCB;
PL6.E3A0      #001=DFA$FPRG File=DFA$FPRG.:E05TSI                                TUE 07/29/97 14:31 Page:22

   5966  2 000223   000100 100400                    MLR     fill='000'O
         2 000224   000000 000020 xsym               ADSC9   FPT_RELDCB               cn=0,n=16
         2 000225   200116 000020                    ADSC9   FPTRELDCB,,AUTO          cn=0,n=16

      147     5967    3                  FPTRELDCB.V_ = VECTOR(FPTRELDCB.V);

   5967  2 000226   000003 235000 3                  LDA     3
         2 000227   200164 452500                    STP2    TOBREL+1,,AUTO
         2 000230   200164 236100                    LDQ     TOBREL+1,,AUTO
         2 000231   000120 036003                    ADLQ    80,DU
         2 000232   200116 757100                    STAQ    FPTRELDCB,,AUTO

      148     5968    3                  FPTRELDCB.V.DCB# = S_D.FPRGDCB;

   5968  2 000233   000100 720100                    LXL0    64,,PR0
         2 000234   200120 740100                    STX0    FPTRELDCB+2,,AUTO

      149     5969    3                  CALL M$RELDCB (FPTRELDCB) ALTRET(NORELFPRG);

   5969  2 000235   200116 630500                    EPPR0   FPTRELDCB,,AUTO
         2 000236   460003 713400                    CLIMB   alt,+24579
         2 000237   400000 401760                    pmme    nvectors=1
         2 000240   000314 702000 2                  TSX2    NORELFPRG

      150     5970    3                END;

      151     5971    2             S_D.FPRGDCB = 0;

   5971  2 000241   000000 470400 xsym               LDP0    S_D$
         2 000242   000100 450100                    STZ     64,,PR0

      152     5972    2           END;

      153     5973    1        S_D.LMDCB = D_M$LM#;

   5973  2 000243   000000 235000 xsym               LDA     D_M$LM#
PL6.E3A0      #001=DFA$FPRG File=DFA$FPRG.:E05TSI                                TUE 07/29/97 14:31 Page:23
         2 000244   004774 755100                    STA     2556,,PR0

      154     5974                                                /* Reestablish HOST mode */
      155     5975    1        S_D.FPRG = '0'B;

   5975  2 000245   000101 450100                    STZ     65,,PR0

      156     5976    1        S_D.CURRENT_FPRG_CONTEXT$ = ADDR(NIL);

   5976  2 000246   000001 236000 xsym               LDQ     B_VECTNIL+1
         2 000247   000102 756100                    STQ     66,,PR0

      157     5977    1        CALL DUI$INIT_HOST;

   5977  2 000250   000002 631400 xsym               EPPR1   B_VECTNIL+2
         2 000251   000000 701000 xent               TSX1    DUI$INIT_HOST
         2 000252   000000 011000                    NOP     0

      158     5978    1        CALL DDA$RESET_PATCH_SPACE;

   5978  2 000253   000002 631400 xsym               EPPR1   B_VECTNIL+2
         2 000254   000000 701000 xent               TSX1    DDA$RESET_PATCH_SPACE
         2 000255   000000 011000                    NOP     0

      159     5979    1        S_D.FIRST_TIME = '1'B;

   5979  2 000256   400000 236003                    LDQ     -131072,DU
         2 000257   000000 470400 xsym               LDP0    S_D$
         2 000260   006725 756100                    STQ     3541,,PR0

      160     5980    1        CALL DUI$RU_ACCESS

   5980  2 000261   000002 631400 xsym               EPPR1   B_VECTNIL+2
         2 000262   000000 701000 xent               TSX1    DUI$RU_ACCESS
         2 000263   000265 702000 2                  TSX2    s:5982
         2 000264   000272 710000 2                  TRA     s:5985

PL6.E3A0      #001=DFA$FPRG File=DFA$FPRG.:E05TSI                                TUE 07/29/97 14:31 Page:24
      161     5981    2        WHENALTRETURN DO;

      162     5982    2             CALL DDE$ERROR;

   5982  2 000265   000002 631400 xsym               EPPR1   B_VECTNIL+2
         2 000266   000000 701000 xent               TSX1    DDE$ERROR
         2 000267   000000 011000                    NOP     0

      163     5983    2             CALL M$XXX;

   5983  2 000270   000003 713400                    CLIMB   3
         2 000271   000000 401760                    pmme    nvectors=0

      164     5984    2           END;

      165     5985    1        CALL DDS$ES_INQ(S_D.SAVEIC) ALTRET(KILL1);

   5985  2 000272   000000 236000 xsym               LDQ     S_D$
         2 000273   000002 036003                    ADLQ    2,DU
         2 000274   200164 756100                    STQ     TOBREL+1,,AUTO
         2 000275   200164 630500                    EPPR0   TOBREL+1,,AUTO
         2 000276   000017 631400 xsym               EPPR1   B_VECTNIL+15
         2 000277   000000 701000 xent               TSX1    DDS$ES_INQ
         2 000300   000304 702000 2                  TSX2    KILL1

      166     5986    1        CALL DDS$SET_Q2C;

   5986  2 000301   000002 631400 xsym               EPPR1   B_VECTNIL+2
         2 000302   000000 701000 xent               TSX1    DDS$SET_Q2C
         2 000303   000000 011000                    NOP     0

   5979  2 000304                       KILL1        null
      167     5987    1   KILL1: ;
      168     5988    1        IF S_D.TRACE_STATE

   5988  2 000304   000000 470400 xsym               LDP0    S_D$
         2 000305   005143 234100                    SZN     2659,,PR0
PL6.E3A0      #001=DFA$FPRG File=DFA$FPRG.:E05TSI                                TUE 07/29/97 14:31 Page:25
         2 000306   000313 605000 2                  TPL     s:5993

      169     5989    2        THEN DO;

      170     5990    2             S_D.TRACE_STATE = '0'B;

   5990  2 000307   005143 450100                    STZ     2659,,PR0

      171     5991    2             CALL DDA$TRACEON;

   5991  2 000310   000002 631400 xsym               EPPR1   B_VECTNIL+2
         2 000311   000000 701000 xent               TSX1    DDA$TRACEON
         2 000312   000000 011000                    NOP     0

      172     5992    2           END;

      173     5993    1        RETURN;

   5993  2 000313   000000 702200 xent               TSX2  ! X66_ARET

   5988  2 000314                       NORELFPRG    null
      174     5994        /**/
      175     5995    1   NORELFPRG: ;
      176     5996    1        S_D.ERROR = E@RELFPRG;             /* E@RELFPRG */

   5996  2 000314   001013 235007                    LDA     523,DL
         2 000315   000000 470400 xsym               LDP0    S_D$
         2 000316   000013 755100                    STA     11,,PR0

      177     5997    1        CALL DUE$ERRMSG;

   5997  2 000317   000002 631400 xsym               EPPR1   B_VECTNIL+2
         2 000320   000000 701000 xent               TSX1    DUE$ERRMSG
         2 000321   000000 011000                    NOP     0

      178     5998    1        CALL DDE$ERROR;

PL6.E3A0      #001=DFA$FPRG File=DFA$FPRG.:E05TSI                                TUE 07/29/97 14:31 Page:26
   5998  2 000322   000002 631400 xsym               EPPR1   B_VECTNIL+2
         2 000323   000000 701000 xent               TSX1    DDE$ERROR
         2 000324   000000 011000                    NOP     0

      179     5999    1        CALL M$XXX;

   5999  2 000325   000003 713400                    CLIMB   3
         2 000326   000000 401760                    pmme    nvectors=0
         2 000327   000432 710000 2                  TRA     s:6031

      180     6000        %EJECT;
PL6.E3A0      #001=DFA$FPRG File=DFA$FPRG.:E05TSI                                TUE 07/29/97 14:31 Page:27
      181     6001    1   KILL_FPRG: PROC ALTRET;

   6001  2 000330   200162 741300       KILL_FPRG    STX1  ! FPTCLOSE+30,,AUTO

      182     6002        /**/
      183     6003    2   DCL TOBREL UBIN;
      184     6004        /**/
      185     6005                                                /* Release schema memory */
      186     6006    2        TOBREL = POFFW(S_D.SCHSEG$, S_D.SCHSEG_BEGIN$);

   6006  2 000331   000000 470400 xsym               LDP0    S_D$
         2 000332   000043 236100                    LDQ     35,,PR0
         2 000333   000022 772000                    QRL     18
         2 000334   200164 756100                    STQ     TOBREL+1,,AUTO
         2 000335   001034 236100                    LDQ     540,,PR0
         2 000336   000022 772000                    QRL     18
         2 000337   200164 136100                    SBLQ    TOBREL+1,,AUTO
         2 000340   200163 756100                    STQ     TOBREL,,AUTO

      187     6007    2        IF TOBREL > 0

   6007  2 000341   000352 600000 2                  TZE     s:6009

      188     6008    2        THEN CALL DDM$PUTMEM (S_D_SEG$, TOBREL) ALTRET(NORELS_D);

   6008  2 000342   200163 631500                    EPPR1   TOBREL,,AUTO
         2 000343   200165 451500                    STP1    TOBREL+2,,AUTO
         2 000344   000005 236000 3                  LDQ     5
         2 000345   200164 756100                    STQ     TOBREL+1,,AUTO
         2 000346   200164 630500                    EPPR0   TOBREL+1,,AUTO
         2 000347   000020 631400 xsym               EPPR1   B_VECTNIL+16
         2 000350   000000 701000 xent               TSX1    DDM$PUTMEM
         2 000351   000415 702000 2                  TSX2    NORELS_D

      189     6009    2        S_D.SCHSEG$ = S_D.SCHSEG_BEGIN$;

   6009  2 000352   000000 470400 xsym               LDP0    S_D$
PL6.E3A0      #001=DFA$FPRG File=DFA$FPRG.:E05TSI                                TUE 07/29/97 14:31 Page:28
         2 000353   000043 236100                    LDQ     35,,PR0
         2 000354   001034 756100                    STQ     540,,PR0

      190     6010    2        IF S_D.FPRG THEN S_D.SAVEIC = S_D.SAVEIC_SAVE;

   6010  2 000355   000101 234100                    SZN     65,,PR0
         2 000356   000361 605000 2                  TPL     s:6011

   6010  2 000357   005051 235100                    LDA     2601,,PR0
         2 000360   000002 755100                    STA     2,,PR0

      191     6011    2        IF  S_D.FPRGDCB ~= 0

   6011  2 000361   000100 235100                    LDA     64,,PR0
         2 000362   000413 600000 2                  TZE     s:6020
         2 000363   000004 471400 3                  LDP1    4
         2 000364   100000 473500                    LDP3    0,,PR1
         2 000365   000100 720100                    LXL0    64,,PR0
         2 000366   300000 236110                    LDQ     0,X0,PR3
         2 000367   000001 116000 xsym               CMPQ    B_VECTNIL+1
         2 000370   000413 600000 2                  TZE     s:6020
         2 000371   300000 474510                    LDP4    0,X0,PR3
         2 000372   400031 236100                    LDQ     25,,PR4
         2 000373   020000 316007                    CANQ    8192,DL
         2 000374   000413 600000 2                  TZE     s:6020

      192     6012    2          AND DCBADDR(S_D.FPRGDCB) ~= ADDR(NIL)
      193     6013    2          AND DCBADDR(S_D.FPRGDCB) -> F$DCB.FCD#
      194     6014    3        THEN DO;

      195     6015    3             FPTCLOSE = FPT_CLOSE;

   6015  2 000375   000100 100400                    MLR     fill='000'O
         2 000376   000000 000170 xsym               ADSC9   FPT_CLOSE                cn=0,n=120
         2 000377   200124 000170                    ADSC9   FPTCLOSE,,AUTO           cn=0,n=120

      196     6016    3             FPTCLOSE.V_ = VECTOR(FPTCLOSE.V);
PL6.E3A0      #001=DFA$FPRG File=DFA$FPRG.:E05TSI                                TUE 07/29/97 14:31 Page:29

   6016  2 000400   000001 235000 3                  LDA     1
         2 000401   200164 452500                    STP2    TOBREL+1,,AUTO
         2 000402   200164 236100                    LDQ     TOBREL+1,,AUTO
         2 000403   000156 036003                    ADLQ    110,DU
         2 000404   200124 757100                    STAQ    FPTCLOSE,,AUTO

      197     6017    3             FPTCLOSE.V.DCB# = S_D.FPRGDCB;

   6017  2 000405   000100 720100                    LXL0    64,,PR0
         2 000406   200156 740100                    STX0    FPTCLOSE+26,,AUTO

      198     6018    3             CALL M$CLOSE (FPTCLOSE) ALTRET(NOCLSFPRG);

   6018  2 000407   200124 630500                    EPPR0   FPTCLOSE,,AUTO
         2 000410   450001 713400                    CLIMB   alt,close
         2 000411   406000 401760                    pmme    nvectors=13
         2 000412   000422 702000 2                  TSX2    NOCLSFPRG

      199     6019    3           END;

      200     6020    2        RETURN;

   6020  2 000413   200162 221300                    LDX1  ! FPTCLOSE+30,,AUTO
         2 000414   000001 702211                    TSX2  ! 1,X1

   6017  2 000415                       NORELS_D     null
      201     6021        /**/
      202     6022    2   NORELS_D: ;
      203     6023    2        S_D.ERROR = E@RELS_D;              /* E@RELS_D */

   6023  2 000415   001004 235007                    LDA     516,DL
         2 000416   000000 470400 xsym               LDP0    S_D$
         2 000417   000013 755100                    STA     11,,PR0

      204     6024    2        ALTRETURN;

PL6.E3A0      #001=DFA$FPRG File=DFA$FPRG.:E05TSI                                TUE 07/29/97 14:31 Page:30
   6024  2 000420   200162 221300                    LDX1  ! FPTCLOSE+30,,AUTO
         2 000421   000000 702211                    TSX2  ! 0,X1

   6023  2 000422                       NOCLSFPRG    null
      205     6025    2   NOCLSFPRG: ;
      206     6026    2        CALL DUE$ERRMSG;

   6026  2 000422   000002 631400 xsym               EPPR1   B_VECTNIL+2
         2 000423   000000 701000 xent               TSX1    DUE$ERRMSG
         2 000424   000000 011000                    NOP     0

      207     6027    2        S_D.ERROR = E@CLSFPRG;             /* E@CLSFPRG */

   6027  2 000425   001012 235007                    LDA     522,DL
         2 000426   000000 470400 xsym               LDP0    S_D$
         2 000427   000013 755100                    STA     11,,PR0

      208     6028    2        ALTRETURN;

   6028  2 000430   200162 221300                    LDX1  ! FPTCLOSE+30,,AUTO
         2 000431   000000 702211                    TSX2  ! 0,X1

      209     6029    2   END KILL_FPRG;
      210     6030
      211     6031    1   END DFA$FPRG;

   6031  2 000432   000000 702200 xent               TSX2  ! X66_ARET

FPT_OPEN
 Sect OctLoc
   1     000   000025 777640   000044 006000   000000 177640   000000 006014    .....$..........
   1     004   000000 177640   000000 006014   000000 177640   000000 006014    ................
   1     044*  000000 400042   000000 002001   252525 000000   000040 252520    ..."......... ..
   1     050   000040 040040   000000 000000   000000 777777   000000 000000    .   ............
   1     054   000000 000000   000000 000000   000000 000000   000000 000000    ................
   1     060   255000 622000   000000 000000   000000 000000   111250 000000    ............I...
   1     064   040040 040040   000000 000000   000000 000000   000000 000000        ............
PL6.E3A0      #001=DFA$FPRG File=DFA$FPRG.:E05TSI                                TUE 07/29/97 14:31 Page:31
   1     070   000000 000000   ****** ******                                    ........

(unnamed)
 Sect OctLoc
   3     000   000025 777640   000003 777640   000007 777640   000001 777640    ................
   3     004   000000 006003   000000 006000                                    ........
      212     6032        %EOD;

PL6.E3A0      #001=DFA$FPRG File=DFA$FPRG.:E05TSI                                TUE 07/29/97 14:31 Page:32
--  Include file information  --

   DD_SUBS_C.:E05TOU  is referenced.
   DD_ERR_C.:E05TOU  is referenced.
   DD_PSUBS_C.:E05TOU  is referenced.
   DD$BASED.:E05TOU  is referenced.
   DD_SD_M.:E05TOU  is referenced.
   XUH_MACRO_C.:E05TOU  is referenced.
   CP_6.:E05TOU  cannot be made into a system file and is referenced.
   B$JIT_C.:E05TOU  was found in the system file and is never referenced.
   CP_6_C.:E05TOU  was found in the system file and is referenced.
      No diagnostics issued in procedure DFA$FPRG.

   Procedure DFA$FPRG requires 283 words for executable code.
   Procedure DFA$FPRG requires 118 words of local(AUTO) storage.
PL6.E3A0      #001=DFA$FPRG File=DFA$FPRG.:E05TSI                                TUE 07/29/97 14:31 Page:33
          *** CROSS REFERENCE LISTING ***
**     DENOTES     IDENTIFIER DEFINITION
<<                 IDENTIFIER'S VALUE SET
>>                 IDENTIFIER'S VALUE USED
<>                 IDENTIFIER SET AND/OR USED
--                 IDENTIFIER REFERENCED
PL6.E3A0      #001=DFA$FPRG File=DFA$FPRG.:E05TSI                                TUE 07/29/97 14:31 Page:34
          MINI XREF LISTING

DCBNO
      5835**DCL      5923<>CALL     5924>>ASSIGN   5925>>ASSIGN
DDA$RESET_PATCH_SPACE
      5881**DCL-ENT  5978--CALL
DDA$TRACEON
      5880**DCL-ENT  5991--CALL
DDE$ERROR
      5882**DCL-ENT  5937--CALL     5951--CALL     5982--CALL     5998--CALL
DDM$PUTMEM
      5883**DCL-ENT  6008--CALL
DDS$ES_INQ
      5884**DCL-ENT  5942--CALL     5985--CALL
DDS$SET_Q2C
      5885**DCL-ENT  5943--CALL     5986--CALL
DDT$TRACEOFF
      5886**DCL-ENT  5901--CALL
DFA$GET_FPRG_DCB
      5887**DCL-ENT  5923--CALL
DUA$KILL_ANLZ
      5888**DCL-ENT  5897--CALL
DUA$KILL_RUM
      5889**DCL-ENT  5905--CALL
DUE$ERRMSG
      5890**DCL-ENT  5948--CALL     5997--CALL     6026--CALL
DUI$INIT_HOST
      5891**DCL-ENT  5977--CALL
DUI$INIT_L6
      5892**DCL-ENT  5907--CALL
DUI$RU_ACCESS
      5893**DCL-ENT  5935--CALL     5980--CALL
D_M$LM#
      5463**DCL      5973>>ASSIGN
PL6.E3A0      #001=DFA$FPRG File=DFA$FPRG.:E05TSI                                TUE 07/29/97 14:31 Page:35
F$DCB.ACTPOS
       130**DCL       130--REDEF
F$DCB.ARS#
       104**DCL       104--REDEF
F$DCB.ATTR
       123**DCL       124--REDEF
F$DCB.BORROW
       138**DCL       138--REDEF     138--REDEF     138--REDEF
F$DCB.DCBNAME.L
       152**DCL       152--IMP-SIZ
F$DCB.EOMCHAR#
       108**DCL       108--REDEF
F$DCB.FCD#
       117**DCL      6011>>IF
F$DCB.FLDID
       133**DCL       133--REDEF
F$DCB.FORM$
       127**DCL       127--REDEF
F$DCB.FSECT
       143**DCL       143--REDEF
F$DCB.FSN#
       120**DCL       120--REDEF     120--REDEF     121--REDEF
F$DCB.HEADER$
       126**DCL       126--REDEF
F$DCB.IXTNSIZE#
       124**DCL       124--REDEF
F$DCB.LASTSTA$
       113**DCL       113--REDEF
F$DCB.LVL
       139**DCL       139--REDEF
F$DCB.NAME#.C
       114**DCL       114--REDEF
F$DCB.NOEOF
       136**DCL       136--REDEF
F$DCB.NRECS#
       125**DCL       125--REDEF
PL6.E3A0      #001=DFA$FPRG File=DFA$FPRG.:E05TSI                                TUE 07/29/97 14:31 Page:36
F$DCB.NRECX
       144**DCL       144--REDEF
F$DCB.OHDR
       136**DCL       136--REDEF
F$DCB.ORG#
       119**DCL       119--REDEF
F$DCB.PRECNO
       142**DCL       142--REDEF
F$DCB.RCSZ
       148**DCL       148--REDEF
F$DCB.RES#
       115**DCL       115--REDEF
F$DCB.SETX
       127**DCL       127--REDEF
F$DCB.TAB$
       127**DCL       127--REDEF
F$DCB.TDA
       141**DCL       142--REDEF
F$DCB.WSN#
       115**DCL       115--REDEF
FPRG$CONTEXT.RUFID.ACCT
      4268**DCL      5918>>ASSIGN
FPRG$CONTEXT.RUFID.FNAME.SIZE
      4266**DCL      5916>>ASSIGN
FPRG$CONTEXT.RUFID.FNAME.TEXT
      4267**DCL      5917>>ASSIGN
FPRG$CONTEXT.RUFID.PASS
      4269**DCL      5919>>ASSIGN
FPRG$CONTEXT.RUFID.PSN
      4270**DCL      5915>>ASSIGN
FPTCLOSE
      5860**DCL      6015<<ASSIGN   6018<>CALL
FPTCLOSE.SN_
      5860**DCL      5860--REDEF
FPTCLOSE.UTL_
      5861**DCL      5861--REDEF
PL6.E3A0      #001=DFA$FPRG File=DFA$FPRG.:E05TSI                                TUE 07/29/97 14:31 Page:37
FPTCLOSE.V
      5865**DCL      6016--ASSIGN
FPTCLOSE.V.DCB#
      5866**DCL      6017<<ASSIGN
FPTCLOSE.V.EXPIRE#
      5875**DCL      5875--REDEF
FPTCLOSE.V.TYPE#
      5873**DCL      5873--REDEF
FPTCLOSE.V.XTNSIZE#
      5870**DCL      5870--REDEF    5872--REDEF
FPTCLOSE.V_
      5860**DCL      6016<<ASSIGN
FPTOPEN
      5704**DCL      5909<<ASSIGN   5932<>CALL
FPTOPEN.ACCT_
      5708**DCL      5913<<ASSIGN
FPTOPEN.ACSVEH_
      5706**DCL      5707--REDEF
FPTOPEN.ALTKEYS_
      5712**DCL      5713--REDEF    5713--REDEF
FPTOPEN.HDR_
      5711**DCL      5712--REDEF
FPTOPEN.NAME_
      5705**DCL      5912<<ASSIGN
FPTOPEN.PASS_
      5706**DCL      5914<<ASSIGN
FPTOPEN.SN_
      5704**DCL      5911<<ASSIGN
FPTOPEN.TAB_
      5710**DCL      5711--REDEF
FPTOPEN.UHL_
      5704**DCL      5705--REDEF    5705--REDEF
FPTOPEN.V
      5713**DCL      5910--ASSIGN
FPTOPEN.V.DCB#
      5713**DCL      5928<<ASSIGN
PL6.E3A0      #001=DFA$FPRG File=DFA$FPRG.:E05TSI                                TUE 07/29/97 14:31 Page:38
FPTOPEN.V.FSN#
      5744**DCL      5744--REDEF    5744--REDEF
FPTOPEN.V_
      5704**DCL      5910<<ASSIGN
FPTOPEN.WSN_
      5710**DCL      5710--REDEF
FPTRELDCB
      5832**DCL      5966<<ASSIGN   5969<>CALL
FPTRELDCB.V
      5832**DCL      5967--ASSIGN
FPTRELDCB.V.DCB#
      5832**DCL      5968<<ASSIGN
FPTRELDCB.V_
      5832**DCL      5967<<ASSIGN
FPT_CLOSE
      5618**DCL      6015>>ASSIGN
FPT_CLOSE.SN_
      5618**DCL      5618--REDEF
FPT_CLOSE.UTL_
      5619**DCL      5619--REDEF
FPT_CLOSE.V.EXPIRE#
      5633**DCL      5633--REDEF
FPT_CLOSE.V.TYPE#
      5631**DCL      5631--REDEF
FPT_CLOSE.V.XTNSIZE#
      5628**DCL      5628--REDEF    5630--REDEF
FPT_OPEN
      5535**DCL      5909>>ASSIGN
FPT_OPEN.ACSVEH_
      5537**DCL      5538--REDEF
FPT_OPEN.ALTKEYS_
      5543**DCL      5544--REDEF    5544--REDEF
FPT_OPEN.HDR_
      5542**DCL      5543--REDEF
FPT_OPEN.TAB_
      5541**DCL      5542--REDEF
PL6.E3A0      #001=DFA$FPRG File=DFA$FPRG.:E05TSI                                TUE 07/29/97 14:31 Page:39
FPT_OPEN.UHL_
      5535**DCL      5536--REDEF    5536--REDEF
FPT_OPEN.V
      5544**DCL      5535--DCLINIT
FPT_OPEN.V.FSN#
      5575**DCL      5575--REDEF    5575--REDEF
FPT_OPEN.WSN_
      5541**DCL      5541--REDEF
FPT_RELDCB
      5591**DCL      5966>>ASSIGN
GO1
      5943**LABEL    5942--CALLALT
IC
        14**DCL        12--PROC     5941>>ASSIGN   5956--ENTRY
KILL1
      5979**LABEL    5985--CALLALT
KILL_FPRG
      6001**PROC     5906--CALL     5960--CALL
KILL_IT1
      5943**LABEL    5938--GOTO     5949--GOTO
M$CLOSE
        25**DCL-ENT  6018--CALL
M$OPEN
        25**DCL-ENT  5932--CALL
M$RELDCB
        31**DCL-ENT  5969--CALL
M$XXX
        37**DCL-ENT  5952--CALL     5983--CALL     5999--CALL
NOCLSFPRG IN PROCEDURE KILL_FPRG
      6023**LABEL    6018--CALLALT
NOOPN
      5943**LABEL    5932--CALLALT
NORELFPRG
      5988**LABEL    5969--CALLALT
NORELS_D IN PROCEDURE KILL_FPRG
      6017**LABEL    6008--CALLALT
PL6.E3A0      #001=DFA$FPRG File=DFA$FPRG.:E05TSI                                TUE 07/29/97 14:31 Page:40
REPORT_XXX
      5943**LABEL    5906--CALLALT  5960--CALLALT
RUM$CMD.GOTUTS
      4300**DCL      4301--REDEF
RUM$CMD.UTS
      4309**DCL      4310--REDEF
S_D.ANLZ
      2226**DCL      5896>>IF
S_D.CURRENT_CHANNEL
      2526**DCL      2528--REDEF
S_D.CURRENT_FPRG_CONTEXT$
      1726**DCL      5915>>ASSIGN   5916>>ASSIGN   5917>>ASSIGN   5918>>ASSIGN   5919>>ASSIGN   5976<<ASSIGN
S_D.DEBUGA
      1678**DCL      1680--REDEF
S_D.EIS
      2636**DCL      2665--REDEF
S_D.ERROR
      1607**DCL      5996<<ASSIGN   6023<<ASSIGN   6027<<ASSIGN
S_D.FIRST_TIME
      2619**DCL      5979<<ASSIGN
S_D.FPRG
      1724**DCL      5908<<ASSIGN   5975<<ASSIGN   6010>>IF
S_D.FPRGDCB
      1722**DCL      5921>>IF       5924<<ASSIGN   5927>>ASSIGN   5962>>IF       5964--IF       5968>>ASSIGN
      5971<<ASSIGN   6011>>IF       6011--IF       6011--IF       6017>>ASSIGN
S_D.HOST_MESSAGE_BUF_REMOTE
      2569**DCL      2570--REDEF    2584--REDEF
S_D.JDE
      2183**DCL      2184--REDEF
S_D.L$.VALUE
      1736**DCL      1742--REDEF    1750--REDEF    1753--REDEF    1756--REDEF    1759--REDEF
S_D.L$.VALUE.L
      1737**DCL      1738--REDEF    1739--REDEF
S_D.L6_MESSAGE_BUF
      2590**DCL      2592--REDEF
S_D.LMDCB
PL6.E3A0      #001=DFA$FPRG File=DFA$FPRG.:E05TSI                                TUE 07/29/97 14:31 Page:41
      2256**DCL      5925<<ASSIGN   5927<<ASSIGN   5928>>ASSIGN   5973<<ASSIGN
S_D.OUTPUT
      2556**DCL      2558--REDEF
S_D.REMOTE_MSG.FNCC
      2575**DCL      2576--REDEF
S_D.REMOTE_MSG.STXC
      2571**DCL      2572--REDEF
S_D.REMOTE_MSG.SUBFNCC
      2579**DCL      2580--REDEF
S_D.RUM
      2224**DCL      5904>>IF
S_D.SAVEIC
      1589**DCL      5930>>ASSIGN   5941<<ASSIGN   5942<>CALL     5985<>CALL     6010<<ASSIGN
S_D.SAVEIC_SAVE
      2288**DCL      5930<<ASSIGN   6010>>ASSIGN
S_D.SCHSEG$
      2010**DCL      6006>>ASSIGN   6009<<ASSIGN
S_D.SCHSEG_BEGIN$
      1662**DCL      6006>>ASSIGN   6009>>ASSIGN
S_D.SV
      1635**DCL      1656--REDEF
S_D.TR$INFO.ACTIVE
      2062**DCL      5898>>IF
S_D.TRACE_STATE
      2344**DCL      5900<<ASSIGN   5903<<ASSIGN   5988>>IF       5990<<ASSIGN
S_D$
      2887**DCL      1583--IMP-PTR  5896>>IF       5898>>IF       5900>>ASSIGN   5903>>ASSIGN   5904>>IF
      5908>>ASSIGN   5915>>ASSIGN   5916>>ASSIGN   5917>>ASSIGN   5918>>ASSIGN   5919>>ASSIGN   5921>>IF
      5924>>ASSIGN   5925>>ASSIGN   5927>>ASSIGN   5927>>ASSIGN   5928>>ASSIGN   5930>>ASSIGN   5930>>ASSIGN
      5941>>ASSIGN   5942>>CALL     5962>>IF       5964>>IF       5968>>ASSIGN   5971>>ASSIGN   5973>>ASSIGN
      5975>>ASSIGN   5976>>ASSIGN   5979>>ASSIGN   5985>>CALL     5988>>IF       5990>>ASSIGN   5996>>ASSIGN
      6006>>ASSIGN   6006>>ASSIGN   6009>>ASSIGN   6009>>ASSIGN   6010>>IF       6010>>ASSIGN   6010>>ASSIGN
      6011>>IF       6011>>IF       6011>>IF       6017>>ASSIGN   6023>>ASSIGN   6027>>ASSIGN
S_D_SEG$
      2901**DCL      6008<>CALL
TOBREL IN PROCEDURE KILL_FPRG
PL6.E3A0      #001=DFA$FPRG File=DFA$FPRG.:E05TSI                                TUE 07/29/97 14:31 Page:42
      6003**DCL      6006<<ASSIGN   6007>>IF       6008<>CALL
VLP_ACCT
      5804**DCL      5913--ASSIGN
VLP_ACCT.ACCT#
      5804**DCL      5918<<ASSIGN
VLP_NAME
      5790**DCL      5912--ASSIGN
VLP_NAME.L#
      5790**DCL      5916<<ASSIGN
VLP_NAME.NAME#
      5790**DCL      5917<<ASSIGN
VLP_PASS
      5818**DCL      5914--ASSIGN
VLP_PASS.PASS#
      5818**DCL      5919<<ASSIGN
VLP_SN
      5761**DCL      5911--ASSIGN
VLP_SN.SN#
      5761**DCL      5915<<ASSIGN
PL6.E3A0      #001=DFA$FPRG File=DFA$FPRG.:E05TSI                                TUE 07/29/97 14:31 Page:43
              *** CROSS REFERENCE LISTING ***
    **     DENOTES     IDENTIFIER DEFINITION
    <<                 IDENTIFIER'S VALUE SET
    >>                 IDENTIFIER'S VALUE USED
    <>                 IDENTIFIER SET AND/OR USED
    --                 IDENTIFIER REFERENCED
PL6.E3A0      #001=DFA$FPRG File=DFA$FPRG.:E05TSI                                TUE 07/29/97 14:31 Page:44
              MINI UREF LISTING

DFA$FPRG      12**PROC
DFA$KILL_FPRG    5956**ENTRY
M$ACCT      42**DCL-ENT
M$ACTIVATE      45**DCL-ENT
M$ALIB      38**DCL-ENT
M$ASUSER      40**DCL-ENT
M$ATTACH      47**DCL-ENT
M$BADPP      65**DCL-ENT
M$CGCTL      46**DCL-ENT
M$CGINFO      46**DCL-ENT
M$CHECK      27**DCL-ENT
M$CHGUNIT      85**DCL-ENT
M$CLRSTK      83**DCL-ENT
M$CMDVAR      94**DCL-ENT
M$CONFIG      55**DCL-ENT
M$CORRES      30**DCL-ENT
M$CPEXIT      39**DCL-ENT
M$CVM      63**DCL-ENT
M$CVOL      28**DCL-ENT
M$DCLFLD      55**DCL-ENT
M$DEACTIVATE      45**DCL-ENT
M$DELREC      27**DCL-ENT
M$DEQ      92**DCL-ENT
M$DETACH      47**DCL-ENT
M$DEVICE      29**DCL-ENT
M$DISPLAY      92**DCL-ENT
M$DISPRES      32**DCL-ENT
M$DLIB      38**DCL-ENT
M$DRIBBLE      55**DCL-ENT
M$DRTN      83**DCL-ENT
M$DSUSER      40**DCL-ENT
M$ENQ      91**DCL-ENT
PL6.E3A0      #001=DFA$FPRG File=DFA$FPRG.:E05TSI                                TUE 07/29/97 14:31 Page:45
M$EOM      50**DCL-ENT
M$ERASE      56**DCL-ENT
M$ERR      37**DCL-ENT
M$ERRMSG      88**DCL-ENT
M$EVENT      80**DCL-ENT
M$EXHUME      89**DCL-ENT
M$EXIT      37**DCL-ENT
M$EXTEND      29**DCL-ENT
M$FDP      61**DCL-ENT
M$FDS      60**DCL-ENT
M$FEBOOT      53**DCL-ENT
M$FECTL      54**DCL-ENT
M$FEDUMP      53**DCL-ENT
M$FID      88**DCL-ENT
M$FINDPROC      42**DCL-ENT
M$FSUSER      40**DCL-ENT
M$FVP      62**DCL-ENT
M$FWCG      46**DCL-ENT
M$GBPL      66**DCL-ENT
M$GDDL      62**DCL-ENT
M$GDP      61**DCL-ENT
M$GDS      60**DCL-ENT
M$GETDCB      31**DCL-ENT
M$GETMOUSE      71**DCL-ENT
M$GETPM      72**DCL-ENT
M$GJOB      90**DCL-ENT
M$GLINEATTR      50**DCL-ENT
M$GOODPP      65**DCL-ENT
M$GPLATEN      58**DCL-ENT
M$GPROMPT      57**DCL-ENT
M$GTRMATTR      51**DCL-ENT
M$GTRMCTL      49**DCL-ENT
M$GTRMTAB      52**DCL-ENT
M$GVP      61**DCL-ENT
M$HELP      88**DCL-ENT
M$INT      80**DCL-ENT
PL6.E3A0      #001=DFA$FPRG File=DFA$FPRG.:E05TSI                                TUE 07/29/97 14:31 Page:46
M$INTRTN      41**DCL-ENT
M$IOQ      76**DCL-ENT
M$JOBSTATS      90**DCL-ENT
M$KEYIN      30**DCL-ENT
M$LDEV      25**DCL-ENT
M$LDTRC      38**DCL-ENT
M$LIMIT      31**DCL-ENT
M$LINES      30**DCL-ENT
M$LINK      37**DCL-ENT
M$MADMUCK      33**DCL-ENT
M$MAKUSER      64**DCL-ENT
M$MBS      32**DCL-ENT
M$MDFFLD      56**DCL-ENT
M$MERC      81**DCL-ENT
M$MERCS      82**DCL-ENT
M$MIRROR      76**DCL-ENT
M$MONINFO      93**DCL-ENT
M$MPL      66**DCL-ENT
M$NODEINFO      57**DCL-ENT
M$NXTUSR      91**DCL-ENT
M$OCMSG      89**DCL-ENT
M$OLAY      37**DCL-ENT
M$PAS      66**DCL-ENT
M$PATHCON      89**DCL-ENT
M$PDS      60**DCL-ENT
M$PFIL      27**DCL-ENT
M$PLATEN      51**DCL-ENT
M$PRECORD      29**DCL-ENT
M$PROCNAME      42**DCL-ENT
M$PROFILE      53**DCL-ENT
M$PROMPT      49**DCL-ENT
M$RACST      33**DCL-ENT
M$RDSYSLOG      74**DCL-ENT
M$READ      26**DCL-ENT
M$RELRES      32**DCL-ENT
M$RELSTARF      34**DCL-ENT
PL6.E3A0      #001=DFA$FPRG File=DFA$FPRG.:E05TSI                                TUE 07/29/97 14:31 Page:47
M$REM      34**DCL-ENT
M$RENV      81**DCL-ENT
M$REQUIRE      33**DCL-ENT
M$RETRY      82**DCL-ENT
M$RETRYS      82**DCL-ENT
M$REW      28**DCL-ENT
M$RLSFLD      56**DCL-ENT
M$RPRIV      84**DCL-ENT
M$RSPP      63**DCL-ENT
M$RSWITCH      85**DCL-ENT
M$RUE      91**DCL-ENT
M$SAD      64**DCL-ENT
M$SAVE      40**DCL-ENT
M$SCON      41**DCL-ENT
M$SCREECH      39**DCL-ENT
M$SENV      81**DCL-ENT
M$SETFMA      25**DCL-ENT
M$SETFP      54**DCL-ENT
M$SINPUT      52**DCL-ENT
M$SLCFLD      57**DCL-ENT
M$SMOUSE      71**DCL-ENT
M$SMPRT      63**DCL-ENT
M$SPRIV      84**DCL-ENT
M$SSC      64**DCL-ENT
M$SSWITCH      84**DCL-ENT
M$STATE      93**DCL-ENT
M$STD      65**DCL-ENT
M$STIMER      79**DCL-ENT
M$STLPP      62**DCL-ENT
M$STRAP      79**DCL-ENT
M$STRMATTR      51**DCL-ENT
M$STRMCTL      49**DCL-ENT
M$STRMTAB      52**DCL-ENT
M$SYMBIO      90**DCL-ENT
M$SYSCON      76**DCL-ENT
M$SYSID      94**DCL-ENT
PL6.E3A0      #001=DFA$FPRG File=DFA$FPRG.:E05TSI                                TUE 07/29/97 14:31 Page:48
M$TDCLOSE      75**DCL-ENT
M$TDIO      75**DCL-ENT
M$TDOPEN      74**DCL-ENT
M$TDREQCPU      75**DCL-ENT
M$TEMPWROC      69**DCL-ENT
M$TIME      92**DCL-ENT
M$TRAP      79**DCL-ENT
M$TRMISC      54**DCL-ENT
M$TRMPRG      50**DCL-ENT
M$TRTN      83**DCL-ENT
M$TRUNC      26**DCL-ENT
M$TTIMER      79**DCL-ENT
M$UC      49**DCL
M$UMPL      66**DCL-ENT
M$UNFID      88**DCL-ENT
M$UNLATCH      45**DCL-ENT
M$UNSHARE      42**DCL-ENT
M$USRFIELD      85**DCL-ENT
M$VIRTUAL      60**DCL-ENT
M$WAIT      83**DCL-ENT
M$WEOF      28**DCL-ENT
M$WRITE      26**DCL-ENT
M$WRSYSLOG      74**DCL-ENT
M$XCON      80**DCL-ENT
M$XCONRTN      41**DCL-ENT
M$XEQTIME      93**DCL-ENT
M$XFLUSH      34**DCL-ENT
M$XMOUSE      71**DCL-ENT
M$YC      39**DCL-ENT
SCHEMA    5935**LABEL
SETUP    5941**LABEL
S_D_ACCESS$    2902**DCL
S_D_ANLZ$    2904**DCL
S_D_ASTACKOFF$    2903**DCL
S_D_BREAK$    2905**DCL
S_D_DO_SCAN$    2906**DCL
PL6.E3A0      #001=DFA$FPRG File=DFA$FPRG.:E05TSI                                TUE 07/29/97 14:31 Page:49
S_D_ERROR$    2907**DCL
S_D_FAULTCMD$$    2908**DCL
S_D_FAULTINS$$    2909**DCL
S_D_GOIC$    2910**DCL
S_D_GO_MODE$    2911**DCL
S_D_HOST_MESSAGE$    2923**DCL
S_D_HW_PTB_UNITS$    2927**DCL
S_D_HW_RES_MEM$    2925**DCL
S_D_HW_WSQ0PT$    2926**DCL
S_D_IPRFLT$    2913**DCL
S_D_IXFIX$    2912**DCL
S_D_L6_MESSAGE$    2924**DCL
S_D_REM_ACCESS$    2914**DCL
S_D_REM_DISKBOOT$    2916**DCL
S_D_REM_DO_SCAN$    2915**DCL
S_D_RETURNN$    2917**DCL
S_D_SAD$    2918**DCL
S_D_SAVEIC$    2919**DCL
S_D_TCB$$    2920**DCL
S_D_UREG$$    2921**DCL
S_D_USS$$    2922**DCL

PL6.E3A0      #002=DFA$SETUP_FPRG File=DFA$FPRG.:E05TSI                          TUE 07/29/97 14:32 Page:50
      213        1        /*T***********************************************************/
      214        2        /*T*                                                         */
      215        3        /*T* Copyright (c) Bull HN Information Systems Inc., 1997    */
      216        4        /*T*                                                         */
      217        5        /*T***********************************************************/
      218        6
      219        7        DFA$SETUP_FPRG: PROC(DCBNO, PRES, PRES_SIZE, PXDELTA) ALTRET;
      220        8
      221        9    1   DCL DCBNO UBIN;
      222       10    1   DCL PRES CHAR(8) CALIGNED;
      223       11    1   DCL PRES_SIZE UBIN;
      224       12    1   DCL PXDELTA BIT(1) ALIGNED;
      225       13                                                /* Auto */
      226       14    1   DCL FPRG$ PTR;
      227       15    1   DCL DCB$ PTR;
      228       16    1   DCL RES CHAR(8) CALIGNED;
      229       17    1   DCL RES_SIZE UBIN;
      230       18    1   DCL FPRG_IC UBIN;
      231       19    1   DCL TFPRG$ PTR;
      232       20    1   DCL OPDCBNO UBIN;
      233       21    1   DCL I UBIN;
      234       22    1   DCL XDELTA BIT(1) ALIGNED;
      235       23        /* Includes */
      236       24        %INCLUDE DU_SCODE_C;
      237       37        %INCLUDE CP_6;
      238      118        %FPT_DRTN (FPTN=FPT$DRTN, STCLASS=BASED);
      239      142        %VLR_FPRG_FID(FPTN=VLR_FPRG_FID, STCLASS=AUTO);
      240      150        %FPT_SCREECH(FPTN=SNAP_MESSAGE,STCLASS=SYMREF READONLY);
      241      164        %VLP_SCODE(FPTN=SC_MESSAGE, STCLASS=SYMREF READONLY);
      242      225        %F$DCB;
      243      282        %B$FPRG;
      244      315        %INCLUDE XUH_MACRO_C;
      245      399        %INCLUDE DD_SD_M;
      246     1735        %S_D;
      247     3053        %S_D_PTRS;
      248     3090        %INCLUDE DD$BASED;
      249     4393        %FPRG$CONTEXT;
PL6.E3A0      #002=DFA$SETUP_FPRG File=DFA$FPRG.:E05TSI                          TUE 07/29/97 14:32 Page:51
      250     4456        %INCLUDE DD_ERR_C;
      251     4853        %INCLUDE GD$MSG_M;
      252     5017        %GD$MSG(FPTN=GD$MSG_HOST, STCLASS="BASED(S_D_HOST_MESSAGE$)", L6=NO);
      253     5173        %GD$MSG(FPTN=GD$MSG, STCLASS="BASED(S_D_L6_MESSAGE$)",L6=YES,L6PTR="UBIN(32) UNAL");
      254     5329        %INCLUDE DD_DEBUG_C;
      255     5350        %INCLUDE DF_EQUS_E;
      256     5363        %INCLUDE GD_EQUS_E;
      257     5524        %INCLUDE G_LCP6_E;
      258     5782        %INCLUDE DD_SUBS_C;
      259     6053        %INCLUDE DD_PSUBS_C;
      260     6528        %INCLUDE GM_VIRTUAL_E;
      261     6738        /* Entry DCLs */
      262     6739    1   DCL DDE$ERROR ENTRY;
      263     6740    1   DCL DDM$GETMEM ENTRY(3) ALTRET;
      264     6741    1   DCL DDR$REPORT ENTRY(1);
      265     6742    1   DCL DFA$FPRG ENTRY(1);
      266     6743    1   DCL DFQ$READ_FD ENTRY(2) ALTRET;
      267     6744    1   DCL DFQ$WRITE_FD ENTRY(1) ALTRET;
      268     6745    1   DCL DFR$EVENTRPT ENTRY(1);
      269     6746    1   DCL DFR$REPORT ENTRY(1);
      270     6747    1   DCL DUD$MINI ENTRY(1);
      271     6748    1   DCL DUE$ERRMSG ENTRY;
      272     6749        /* Symref */
      273     6750    1   DCL DD_FPRGSEG$ PTR SYMREF;
      274     6751    1        IF ADDR(PXDELTA) = ADDR(NIL)
      275     6752    1        THEN XDELTA = '0'B;
      276     6753    1        ELSE XDELTA = PXDELTA;
      277     6754    1        IF ADDR(DCBNO) = ADDR(NIL)
      278     6755    2        THEN DO;
      279     6756    2             FPRG$ = S_D.CURRENT_FPRG_CONTEXT$;
      280     6757    2             GOTO SET_SCHEMA;
      281     6758    2           END;
      282     6759    1        IF S_D.FPRG_CONTEXT_END$ = ADDR(NIL)
      283     6760    2        THEN DO;
      284     6761    2             S_D.FPRG_CONTEXT_END$ = DD_FPRGSEG$;
      285     6762    2           END;
      286     6763    1        IF S_D.FPRG_CONTEXT_AVAIL$ ~= ADDR(NIL)
PL6.E3A0      #002=DFA$SETUP_FPRG File=DFA$FPRG.:E05TSI                          TUE 07/29/97 14:32 Page:52
      287     6764    2        THEN DO;
      288     6765    2             FPRG$ = S_D.FPRG_CONTEXT_AVAIL$;
      289     6766    2             S_D.FPRG_CONTEXT_AVAIL$ = FPRG$ -> FPRG$CONTEXT.NEXT$;
      290     6767    2           END;
      291     6768    2        ELSE DO;
      292     6769    2             CALL DDM$GETMEM(DD_FPRGSEG$, SIZEW(FPRG$CONTEXT))
      293     6770    3             WHENALTRETURN DO;
      294     6771    3                  ALTRETURN;
      295     6772    3                END;
      296     6773    2             FPRG$ = S_D.FPRG_CONTEXT_END$;
      297     6774    2             S_D.FPRG_CONTEXT_END$ = PINCRW(FPRG$, SIZEW(FPRG$CONTEXT));
      298     6775    2           END;
      299     6776    1        IF ADDR(PRES) = ADDR(NIL)
      300     6777    2        THEN DO;
      301     6778    2             OPDCBNO = S_D.OPDCBNO;
      302     6779    2             RES = DCBADDR(OPDCBNO) -> F$DCB.RES#;
      303     6780    2             RES_SIZE = 4;
      304     6781    2           END;
      305     6782    2        ELSE DO;
      306     6783    2             RES = PRES;
      307     6784    2             RES_SIZE = PRES_SIZE;
      308     6785    2           END;
      309     6786    1        S_D.CURRENT_FPRG_CONTEXT$ = FPRG$;
      310     6787    1        FPRG$ -> FPRG$CONTEXT = '0'B;
      311     6788    1        S_D.NODEFS4 = '0'B;
      312     6789    1        IF NOT XDELTA
      313     6790    2        THEN DO;
      314     6791    2             FPRG$ -> FPRG$CONTEXT.USER = '1'B;
      315     6792    2             FPRG$ -> FPRG$CONTEXT.KEEP = '111111'B;
      316     6793    2           END;
      317     6794    2        ELSE DO;
      318     6795    2             FPRG$ -> FPRG$CONTEXT.XDELTA = '1'B;
      319     6796    2             FPRG$ -> FPRG$CONTEXT.KEEP = '100000'B;
      320     6797    2           END;
      321     6798    1        FPRG$ -> FPRG$CONTEXT.SHARED = '1'B;
      322     6799    1        FPRG$ -> FPRG$CONTEXT.NEXT$ = ADDR(NIL);
      323     6800    1        FPRG$ -> FPRG$CONTEXT.STEP_MODE = C@STATEMENTS; /* C@STATEMENTS */
PL6.E3A0      #002=DFA$SETUP_FPRG File=DFA$FPRG.:E05TSI                          TUE 07/29/97 14:32 Page:53
      324     6801    1        FPRG$ -> FPRG$CONTEXT.DCBNO = DCBNO;
      325     6802    1        FPRG$ -> FPRG$CONTEXT.RES = RES;
      326     6803    1        FPRG$ -> FPRG$CONTEXT.RES_SIZE = RES_SIZE;
      327     6804    1        FPRG$ -> FPRG$CONTEXT.PROMPT = RES;
      328     6805    1        FPRG$ -> FPRG$CONTEXT.PROMPT_SIZE = RES_SIZE;
      329     6806    1        FPRG$ -> FPRG$CONTEXT.NEXT$ = S_D.FPRG_CONTEXT$;
      330     6807    1        S_D.FPRG_CONTEXT$ = FPRG$;
      331     6808                                      /* Tell monitor to associate FD with this FPRG */
      332     6809    1        IF XDELTA
      333     6810    2        THEN DO;
      334     6811    2   SET_SCHEMA: DCB$ = DCBADDR(S_D.LMDCB);
      335     6812    2             FPRG$ -> FPRG$CONTEXT.RUFID.FNAME = DCB$ -> F$DCB.NAME#;
      336     6813    2             FPRG$ -> FPRG$CONTEXT.RUFID.ACCT = DCB$ -> F$DCB.ACCT#;
      337     6814    2             FPRG$ -> FPRG$CONTEXT.RUFID.PASS = DCB$ -> F$DCB.PASS#;
      338     6815    2             FPRG$ -> FPRG$CONTEXT.RUFID.PSN = DCB$ -> F$DCB.PSN#;
      339     6816    2             RETURN;
      340     6817    2           END;
      341     6818    1        S_D.DRTN$ -> FPT$DRTN.V.ALIB_FD# = '1'B;
      342     6819    1        S_D.DRTN$ -> FPT$DRTN.FPRG_FID_ = VECTOR(VLR_FPRG_FID);
      343     6820    1        S_D.DRTN$ -> FPT$DRTN.V.FPRG_DCB# = DCBNO;
      344     6821    1        CALL M$DRTN (S_D.DRTN$ -> FPT$DRTN)
      345     6822    2        WHENALTRETURN DO;
      346     6823    2             CALL DUE$ERRMSG;
      347     6824    2             FPRG$ -> FPRG$CONTEXT.NEXT$ = S_D.FPRG_CONTEXT_AVAIL$;
      348     6825    2             S_D.FPRG_CONTEXT_AVAIL$ = FPRG$;
      349     6826    2             S_D.DRTN$ -> FPT$DRTN.V.ALIB_FD# = '0'B;
      350     6827    2             S_D.DRTN$ -> FPT$DRTN.V.FPRG_DCB# = 0;
      351     6828    2             S_D.DRTN$ -> FPT$DRTN.FPRG_FID_ = VECTOR(NIL);
      352     6829    2             ALTRETURN;
      353     6830    2           END;
      354     6831    1        S_D.DRTN$ -> FPT$DRTN.V.ALIB_FD# = '0'B;
      355     6832    1        S_D.DRTN$ -> FPT$DRTN.V.FPRG_DCB# = 0;
      356     6833    1        S_D.DRTN$ -> FPT$DRTN.FPRG_FID_ = VECTOR(NIL);
      357     6834                                                /* Pick up run unit name for schema */
      358     6835    1        FPRG$ -> FPRG$CONTEXT.RUFID.FNAME.SIZE = VLR_FPRG_FID.NAME.L;
      359     6836    1        FPRG$ -> FPRG$CONTEXT.RUFID.FNAME.TEXT = VLR_FPRG_FID.NAME.TEXT;
      360     6837    1        FPRG$ -> FPRG$CONTEXT.RUFID.ACCT = VLR_FPRG_FID.ACCT;
PL6.E3A0      #002=DFA$SETUP_FPRG File=DFA$FPRG.:E05TSI                          TUE 07/29/97 14:32 Page:54
      361     6838    1        FPRG$ -> FPRG$CONTEXT.RUFID.PASS = VLR_FPRG_FID.PASS;
      362     6839    1        FPRG$ -> FPRG$CONTEXT.RUFID.PSN = VLR_FPRG_FID.PSN;
      363     6840    1        FPRG$ -> FPRG$CONTEXT.RUFID.MODTIME = VLR_FPRG_FID.MODTIME;
      364     6841                                                /* Read program start message from FD */
      365     6842    1        FPRG$ -> FPRG$CONTEXT.STATE = %STOPPED;
      366     6843    1        FPRG$ -> FPRG$CONTEXT.READ_FD = '0'B;
      367     6844    1   READ:
      368     6845    1        CALL DFQ$READ_FD(S_D.CURRENT_FPRG_CONTEXT$, '0'B)
      369     6846    2        WHENALTRETURN DO;
      370     6847    2             CALL DUE$ERRMSG;
      371     6848    2             ALTRETURN;
      372     6849    2           END;
      373     6850    1        IF S_D.DEBUGA(%DB@ECC)
      374     6851    2        THEN DO;
      375     6852    2             CALL DFR$EVENTRPT(%DB@ECC);
      376     6853    2             IF S_D.DEBUG
      377     6854    3             THEN DO;
      378     6855    3                  CALL DUD$MINI;
      379     6856    3                  S_D.PROMPT_SIZE = 0;
      380     6857    3                END;
      381     6858    2           END;
      382     6859                                      /* Make sure just read a program start message */
      383     6860    1        FPRG$ -> FPRG$CONTEXT.SHARED_PRINT = GD$MSG.BRKRSP.SHARED;
      384     6861    1        IF GD$MSG.FNC ~= %FPRG_BRKRSP# AND
      385     6862    1          GD$MSG.BRKRSP.BRK# < (%GD#MAXBRKNUM + 1) AND
      386     6863    1          GD$MSG.BRKRSP.ADR$ < %GM_ISR6_BASE
      387     6864    2        THEN DO;
      388     6865    2             IF GD$MSG.FNC = %GD#RSPBADXBREAK
      389     6866    3             THEN DO;
      390     6867    3                  S_D.ERROR = E@BADXBREAK; /* E@BADXBREAK */
      391     6868    3                  CALL DDE$ERROR;
      392     6869    3                  ALTRETURN;
      393     6870    3                END;
      394     6871    2   TAKE_SNAP: ;
      395     6872    2             REMEMBER NEVER IN S_D.SCREECH_IC;
      396     6873    2             CALL M$SCREECH (SNAP_MESSAGE) ALTRET(NEVER);
      397     6874    2   NEVER:    ;
PL6.E3A0      #002=DFA$SETUP_FPRG File=DFA$FPRG.:E05TSI                          TUE 07/29/97 14:32 Page:55
      398     6875    2             S_D.ERROR = E@BADMESSAGE;     /* E@BADMESSAGE */
      399     6876    2             CALL DDE$ERROR;
      400     6877    2             S_D.ERROR = E@DELBUG;         /* E@DELBUG */
      401     6878    2             CALL DDE$ERROR;
      402     6879    2             ALTRETURN;
      403     6880    2           END;
      404     6881    1        FPRG_IC = GD$MSG.BRKRSP.ADR$;
      405     6882    1        S_D.MOD_L6.ADDRESS = FPRG_IC;
      406     6883    1        S_D.MOD_L6.SEG = 3;
      407     6884    1        S_D.MOD_L6.DESC# = 0;
      408     6885    1        S_D.MOD_L6.NOT_IS = '0'B;
      409     6886    1        S_D.MOD_L6.VALUE.SIZE = GD$MSG.BRKRSP.DATA_SIZE;
      410     6887    2        DO I = 0 TO GD$MSG.BRKRSP.DATA_SIZE - 1;
      411     6888    2             S_D.MOD_L6.VALUE.OPS(I) = GD$MSG.BRKRSP.DATA(I);
      412     6889    2           END;
      413     6890    1        S_D.FAULT = GD$MSG.BRKRSP.BRK# - (%GD#MAXBRKNUM + 1);
      414     6891    1        IF S_D.FAULT = %G_FPRG_EXIT#
      415     6892    1        THEN FPRG$ -> FPRG$CONTEXT.STATE = %ATEXIT;
      416     6893    1        S_D.BRKRSP_ERRCODE = BITBIN(GD$MSG_HOST.BRKRSP.ERRCODE);
      417     6894    1        S_D.USERNO = GD$MSG.BRKRSP.USER#;
      418     6895    1        S_D.MBU = GD$MSG.BRKRSP.MBU;
      419     6896    1        S_D.FAULT = GD$MSG.BRKRSP.BRK# - (%GD#MAXBRKNUM + 1);
      420     6897    1        FPRG$ -> FPRG$CONTEXT.ADDRESS = FPRG_IC;
      421     6898                                                /* Report Host program stopped */
      422     6899    1        IF NOT S_D.DEBUG_CMD
      423     6900    1        THEN CALL DDR$REPORT(R_STOP);
      424     6901                                                /* Set up access to FPRG RU */
      425     6902    1        S_D.FIRST_TIME = '1'B;
      426     6903    1        CALL DFA$FPRG (FPRG_IC);
      427     6904    1        IF FPRG$ -> FPRG$CONTEXT.INTERPRETIVE AND
      428     6905    1          GD$MSG.BRKRSP.ADR$ >= %GM_ISR6_BASE
      429     6906    2        THEN DO;
      430     6907    2             IF S_D.INTERPRETIVE AND GD$MSG.BRKRSP.BRK# < %GD#MAXBRKNUM
      431     6908    3             THEN DO;
      432     6909    3                  GD$MSG = '0'B;
      433     6910    3                  GD$MSG.FNC = %GD#RQSGO;
      434     6911    3                  GD$MSG.SUBFB.GOTRAP = '1'B;
PL6.E3A0      #002=DFA$SETUP_FPRG File=DFA$FPRG.:E05TSI                          TUE 07/29/97 14:32 Page:56
      435     6912    3                  IF S_D.POST_ASSOC
      436     6913    4                  THEN DO;
      437     6914    4                       S_D.POST_ASSOC = '0'B;
      438     6915    4                       GD$MSG.SUBFB.POSTASSOC = '1'B;
      439     6916    4                     END;
      440     6917    3                  CALL DFQ$WRITE_FD(S_D.CURRENT_FPRG_CONTEXT$) ALTRET(ERRMSG);
      441     6918    3                  GOTO READ;
      442     6919    3                END;
      443     6920    2           END;
      444     6921    1        IF GD$MSG.BRKRSP.BRK# + %GD#MAXBRKNUM = %G_FPRG_EXIT#
      445     6922    1        THEN FPRG$->FPRG$CONTEXT.STATE = %ATEXIT;
      446     6923    1        CALL DFR$REPORT(%R_FPRG_TRAP);
      447     6924    1        RETURN;
      448     6925
      449     6926    1   ERRMSG:
      450     6927    1        CALL DUE$ERRMSG;
      451     6928    1        ALTRETURN;
      452     6929    1   END DFA$SETUP_FPRG;
      453     6930        %EOD;

PL6.E3A0      #002=DFA$SETUP_FPRG File=DFA$FPRG.:E05TSI                          TUE 07/29/97 14:32 Page:57
--  Include file information  --

   GM_VIRTUAL_E.:E05TOU  is referenced.
   DD_PSUBS_C.:E05TOU  is referenced.
   DD_SUBS_C.:E05TOU  is referenced.
   G_LCP6_E.:E05TOU  is referenced.
   GD_EQUS_E.:E05TOU  is referenced.
   DF_EQUS_E.:E05TOU  is referenced.
   DD_DEBUG_C.:E05TOU  is referenced.
   GD$MSG_M.:E05TOU  is referenced.
   DD_ERR_C.:E05TOU  is referenced.
   DD$BASED.:E05TOU  is referenced.
   DD_SD_M.:E05TOU  is referenced.
   XUH_MACRO_C.:E05TOU  is referenced.
   CP_6.:E05TOU  cannot be made into a system file and is referenced.
   DU_SCODE_C.:E05TOU  is referenced.
   B$JIT_C.:E05TOU  was found in the system file and is never referenced.
   CP_6_C.:E05TOU  was found in the system file and is referenced.
      No diagnostics issued in procedure DFA$SETUP_FPRG.

   Procedure DFA$SETUP_FPRG requires 416 words for executable code.
   Procedure DFA$SETUP_FPRG requires 36 words of local(AUTO) storage.

PL6.E3A0      #002=DFA$SETUP_FPRG File=DFA$FPRG.:E05TSI                          TUE 07/29/97 14:32 Page:58

 Object Unit name= DFA$SETUP_FPRG                             File name= DFA$FPRG.:E05TOU
 UTS= JUL 29 '97 14:32:16.60 TUE                              Compiler= PL-6/E31         Sev=      00
 SharedLib= :SHARED_SYSTEM                                    Alt SharedLib=


    ****  Control sections  ****

 Sect   Type Bound  Init  Size OctSiz  Section name(segment info)
    0   DCB   even  none     0      0  M$UC
    1   Proc  even  none   416    640  DFA$SETUP_FPRG
    2  RoData even  none    18     22  DFA$SETUP_FPRG

    ****  Entry defs  ****

                              Check   Calling
                             calling  sequence
  Sect OctLoc Primary Altret sequence   type   Parms  Name
     1      0   yes    yes     yes      Std        4  DFA$SETUP_FPRG
PL6.E3A0      #002=DFA$SETUP_FPRG File=DFA$FPRG.:E05TSI                          TUE 07/29/97 14:32 Page:59

  ****  Entry refs  ****

         Check        Calling
        calling       sequence
Altret sequence SRef   type   Args  Name
 yes     yes           Std       3 DDM$GETMEM
         yes           Std       0 DUE$ERRMSG
 yes     yes           Std       2 DFQ$READ_FD
         yes           Std       1 DFR$EVENTRPT
         yes           Std       1 DFR$REPORT
         yes           Std       1 DDR$REPORT
 yes     yes           Std       1 DFQ$WRITE_FD
         yes           Std       1 DUD$MINI
         yes           Std       0 DDE$ERROR
         yes           Std       1 DFA$FPRG
                       nStd      0 X66_AUTO_4
                       Std       0 B_CONSPOOL_D
                       nStd      0 X66_AALT
                       nStd      0 X66_ARET

  ****  Data refs  ****

  Flags:  r = read only, s = secondary
Flgs Name                             Flgs Name                             Flgs Name
     M$UC                             r    SNAP_MESSAGE                     r    S_D$
r    S_D_HOST_MESSAGE$                r    S_D_L6_MESSAGE$                       DD_FPRGSEG$
     B_VECTNIL

  ****  Segment refs  ****

  Flags:  r = read only, s = secondary
Flgs Name                             Flgs Name                             Flgs Name
     ROSID                                 NULLSID                               ISSID
PL6.E3A0      #002=DFA$SETUP_FPRG File=DFA$FPRG.:E05TSI                          TUE 07/29/97 14:32 Page:60


      213        1        /*T***********************************************************/
      214        2        /*T*                                                         */
      215        3        /*T* Copyright (c) Bull HN Information Systems Inc., 1997    */
      216        4        /*T*                                                         */
      217        5        /*T***********************************************************/
      218        6
      219        7        DFA$SETUP_FPRG: PROC(DCBNO, PRES, PRES_SIZE, PXDELTA) ALTRET;

      7  1 000000   000000 700200 xent  DFA$SETUP_F* TSX0  ! X66_AUTO_4
         1 000001   000044 000004                    ZERO    36,4

      220        8
      221        9    1   DCL DCBNO UBIN;
      222       10    1   DCL PRES CHAR(8) CALIGNED;
      223       11    1   DCL PRES_SIZE UBIN;
      224       12    1   DCL PXDELTA BIT(1) ALIGNED;
      225       13                                                /* Auto */
      226       14    1   DCL FPRG$ PTR;
      227       15    1   DCL DCB$ PTR;
      228       16    1   DCL RES CHAR(8) CALIGNED;
      229       17    1   DCL RES_SIZE UBIN;
      230       18    1   DCL FPRG_IC UBIN;
      231       19    1   DCL TFPRG$ PTR;
      232       20    1   DCL OPDCBNO UBIN;
      233       21    1   DCL I UBIN;
      234       22    1   DCL XDELTA BIT(1) ALIGNED;
      235       23        /* Includes */
      236       24        %INCLUDE DU_SCODE_C;
      237       37        %INCLUDE CP_6;
      238      118        %FPT_DRTN (FPTN=FPT$DRTN, STCLASS=BASED);
      239      142        %VLR_FPRG_FID(FPTN=VLR_FPRG_FID, STCLASS=AUTO);
      240      150        %FPT_SCREECH(FPTN=SNAP_MESSAGE,STCLASS=SYMREF READONLY);
      241      164        %VLP_SCODE(FPTN=SC_MESSAGE, STCLASS=SYMREF READONLY);
      242      225        %F$DCB;
      243      282        %B$FPRG;
      244      315        %INCLUDE XUH_MACRO_C;
PL6.E3A0      #002=DFA$SETUP_FPRG File=DFA$FPRG.:E05TSI                          TUE 07/29/97 14:32 Page:61
      245      399        %INCLUDE DD_SD_M;
      246     1735        %S_D;
      247     3053        %S_D_PTRS;
      248     3090        %INCLUDE DD$BASED;
      249     4393        %FPRG$CONTEXT;
      250     4456        %INCLUDE DD_ERR_C;
      251     4853        %INCLUDE GD$MSG_M;
      252     5017        %GD$MSG(FPTN=GD$MSG_HOST, STCLASS="BASED(S_D_HOST_MESSAGE$)", L6=NO);
      253     5173       %GD$MSG(FPTN=GD$MSG, STCLASS="BASED(S_D_L6_MESSAGE$)",L6=YES,L6PTR="UBIN(32) UNAL");
      254     5329        %INCLUDE DD_DEBUG_C;
      255     5350        %INCLUDE DF_EQUS_E;
      256     5363        %INCLUDE GD_EQUS_E;
      257     5524        %INCLUDE G_LCP6_E;
      258     5782        %INCLUDE DD_SUBS_C;
      259     6053        %INCLUDE DD_PSUBS_C;
      260     6528        %INCLUDE GM_VIRTUAL_E;
      261     6738        /* Entry DCLs */
      262     6739    1   DCL DDE$ERROR ENTRY;
      263     6740    1   DCL DDM$GETMEM ENTRY(3) ALTRET;
      264     6741    1   DCL DDR$REPORT ENTRY(1);
      265     6742    1   DCL DFA$FPRG ENTRY(1);
      266     6743    1   DCL DFQ$READ_FD ENTRY(2) ALTRET;
      267     6744    1   DCL DFQ$WRITE_FD ENTRY(1) ALTRET;
      268     6745    1   DCL DFR$EVENTRPT ENTRY(1);
      269     6746    1   DCL DFR$REPORT ENTRY(1);
      270     6747    1   DCL DUD$MINI ENTRY(1);
      271     6748    1   DCL DUE$ERRMSG ENTRY;
      272     6749        /* Symref */
      273     6750    1   DCL DD_FPRGSEG$ PTR SYMREF;
      274     6751    1        IF ADDR(PXDELTA) = ADDR(NIL)

   6751  1 000002   200006 236100                    LDQ     @PXDELTA,,AUTO
         1 000003   000001 116000 xsym               CMPQ    B_VECTNIL+1
         1 000004   000007 601000 1                  TNZ     s:6753

      275     6752    1        THEN XDELTA = '0'B;

PL6.E3A0      #002=DFA$SETUP_FPRG File=DFA$FPRG.:E05TSI                          TUE 07/29/97 14:32 Page:62
   6752  1 000005   200020 450100                    STZ     XDELTA,,AUTO
         1 000006   000013 710000 1                  TRA     s:6754

      276     6753    1        ELSE XDELTA = PXDELTA;

   6753  1 000007   200006 470500                    LDP0    @PXDELTA,,AUTO
         1 000010   000000 236100                    LDQ     0,,PR0
         1 000011   400000 376003                    ANQ     -131072,DU
         1 000012   200020 756100                    STQ     XDELTA,,AUTO

      277     6754    1        IF ADDR(DCBNO) = ADDR(NIL)

   6754  1 000013   200003 236100                    LDQ     @DCBNO,,AUTO
         1 000014   000001 116000 xsym               CMPQ    B_VECTNIL+1
         1 000015   000022 601000 1                  TNZ     s:6759

      278     6755    2        THEN DO;

      279     6756    2             FPRG$ = S_D.CURRENT_FPRG_CONTEXT$;

   6756  1 000016   000000 470400 xsym               LDP0    S_D$
         1 000017   000102 236100                    LDQ     66,,PR0
         1 000020   200007 756100                    STQ     FPRG$,,AUTO

      280     6757    2             GOTO SET_SCHEMA;

   6757  1 000021   000151 710000 1                  TRA     SET_SCHEMA

      281     6758    2           END;
      282     6759    1        IF S_D.FPRG_CONTEXT_END$ = ADDR(NIL)

   6759  1 000022   000000 470400 xsym               LDP0    S_D$
         1 000023   000077 236100                    LDQ     63,,PR0
         1 000024   000001 116000 xsym               CMPQ    B_VECTNIL+1
         1 000025   000030 601000 1                  TNZ     s:6763

      283     6760    2        THEN DO;
PL6.E3A0      #002=DFA$SETUP_FPRG File=DFA$FPRG.:E05TSI                          TUE 07/29/97 14:32 Page:63

      284     6761    2             S_D.FPRG_CONTEXT_END$ = DD_FPRGSEG$;

   6761  1 000026   000000 236000 xsym               LDQ     DD_FPRGSEG$
         1 000027   000077 756100                    STQ     63,,PR0

      285     6762    2           END;

      286     6763    1        IF S_D.FPRG_CONTEXT_AVAIL$ ~= ADDR(NIL)

   6763  1 000030   000103 236100                    LDQ     67,,PR0
         1 000031   000001 116000 xsym               CMPQ    B_VECTNIL+1
         1 000032   000040 600000 1                  TZE     s:6769

      287     6764    2        THEN DO;

      288     6765    2             FPRG$ = S_D.FPRG_CONTEXT_AVAIL$;

   6765  1 000033   200007 756100                    STQ     FPRG$,,AUTO

      289     6766    2             S_D.FPRG_CONTEXT_AVAIL$ = FPRG$ -> FPRG$CONTEXT.NEXT$;

   6766  1 000034   200007 471500                    LDP1    FPRG$,,AUTO
         1 000035   100000 236100                    LDQ     0,,PR1
         1 000036   000103 756100                    STQ     67,,PR0

      290     6767    2           END;

   6767  1 000037   000053 710000 1                  TRA     s:6776

      291     6768    2        ELSE DO;

      292     6769    2             CALL DDM$GETMEM(DD_FPRGSEG$, SIZEW(FPRG$CONTEXT))

   6769  1 000040   000001 630400 2                  EPPR0   1
         1 000041   000020 631400 xsym               EPPR1   B_VECTNIL+16
         1 000042   000000 701000 xent               TSX1    DDM$GETMEM
PL6.E3A0      #002=DFA$SETUP_FPRG File=DFA$FPRG.:E05TSI                          TUE 07/29/97 14:32 Page:64
         1 000043   000045 702000 1                  TSX2    s:6771
         1 000044   000046 710000 1                  TRA     s:6773

      293     6770    3             WHENALTRETURN DO;

      294     6771    3                  ALTRETURN;

   6771  1 000045   000000 702200 xent               TSX2  ! X66_AALT

      295     6772    3                END;
      296     6773    2             FPRG$ = S_D.FPRG_CONTEXT_END$;

   6773  1 000046   000000 470400 xsym               LDP0    S_D$
         1 000047   000077 236100                    LDQ     63,,PR0
         1 000050   200007 756100                    STQ     FPRG$,,AUTO

      297     6774    2             S_D.FPRG_CONTEXT_END$ = PINCRW(FPRG$, SIZEW(FPRG$CONTEXT));

   6774  1 000051   000071 036003                    ADLQ    57,DU
         1 000052   000077 756100                    STQ     63,,PR0

      298     6775    2           END;

      299     6776    1        IF ADDR(PRES) = ADDR(NIL)

   6776  1 000053   200004 236100                    LDQ     @PRES,,AUTO
         1 000054   000001 116000 xsym               CMPQ    B_VECTNIL+1
         1 000055   000071 601000 1                  TNZ     s:6783

      300     6777    2        THEN DO;

      301     6778    2             OPDCBNO = S_D.OPDCBNO;

   6778  1 000056   006720 235100                    LDA     3536,,PR0
         1 000057   200016 755100                    STA     OPDCBNO,,AUTO

      302     6779    2             RES = DCBADDR(OPDCBNO) -> F$DCB.RES#;
PL6.E3A0      #002=DFA$SETUP_FPRG File=DFA$FPRG.:E05TSI                          TUE 07/29/97 14:32 Page:65

   6779  1 000060   000003 471400 2                  LDP1    3
         1 000061   100000 473500                    LDP3    0,,PR1
         1 000062   300000 474505                    LDP4    0,AL,PR3
         1 000063   040100 100500                    MLR     fill='040'O
         1 000064   400026 000004                    ADSC9   22,,PR4                  cn=0,n=4
         1 000065   200011 000010                    ADSC9   RES,,AUTO                cn=0,n=8

      303     6780    2             RES_SIZE = 4;

   6780  1 000066   000004 235007                    LDA     4,DL
         1 000067   200013 755100                    STA     RES_SIZE,,AUTO

      304     6781    2           END;

   6781  1 000070   000100 710000 1                  TRA     s:6786

      305     6782    2        ELSE DO;

      306     6783    2             RES = PRES;

   6783  1 000071   200004 471500                    LDP1    @PRES,,AUTO
         1 000072   040100 100500                    MLR     fill='040'O
         1 000073   100000 000010                    ADSC9   0,,PR1                   cn=0,n=8
         1 000074   200011 000010                    ADSC9   RES,,AUTO                cn=0,n=8

      307     6784    2             RES_SIZE = PRES_SIZE;

   6784  1 000075   200005 473500                    LDP3    @PRES_SIZE,,AUTO
         1 000076   300000 235100                    LDA     0,,PR3
         1 000077   200013 755100                    STA     RES_SIZE,,AUTO

      308     6785    2           END;

      309     6786    1        S_D.CURRENT_FPRG_CONTEXT$ = FPRG$;

   6786  1 000100   200007 236100                    LDQ     FPRG$,,AUTO
PL6.E3A0      #002=DFA$SETUP_FPRG File=DFA$FPRG.:E05TSI                          TUE 07/29/97 14:32 Page:66
         1 000101   000102 756100                    STQ     66,,PR0

      310     6787    1        FPRG$ -> FPRG$CONTEXT = '0'B;

   6787  1 000102   200007 471500                    LDP1    FPRG$,,AUTO
         1 000103   000100 100400                    MLR     fill='000'O
         1 000104   000002 000001 xsym               ADSC9   B_VECTNIL+2              cn=0,n=1
         1 000105   100000 000344                    ADSC9   0,,PR1                   cn=0,n=228

      311     6788    1        S_D.NODEFS4 = '0'B;

   6788  1 000106   006744 450100                    STZ     3556,,PR0

      312     6789    1        IF NOT XDELTA

   6789  1 000107   200020 234100                    SZN     XDELTA,,AUTO
         1 000110   000116 604000 1                  TMI     s:6795

      313     6790    2        THEN DO;

      314     6791    2             FPRG$ -> FPRG$CONTEXT.USER = '1'B;

   6791  1 000111   004000 236003                    LDQ     2048,DU
         1 000112   100001 256100                    ORSQ    1,,PR1

      315     6792    2             FPRG$ -> FPRG$CONTEXT.KEEP = '111111'B;

   6792  1 000113   770000 236003                    LDQ     -4096,DU
         1 000114   100061 752140                    STCQ    49,'40'O,PR1

      316     6793    2           END;

   6793  1 000115   000122 710000 1                  TRA     s:6798

      317     6794    2        ELSE DO;

      318     6795    2             FPRG$ -> FPRG$CONTEXT.XDELTA = '1'B;
PL6.E3A0      #002=DFA$SETUP_FPRG File=DFA$FPRG.:E05TSI                          TUE 07/29/97 14:32 Page:67

   6795  1 000116   002000 236003                    LDQ     1024,DU
         1 000117   100001 256100                    ORSQ    1,,PR1

      319     6796    2             FPRG$ -> FPRG$CONTEXT.KEEP = '100000'B;

   6796  1 000120   400000 236003                    LDQ     -131072,DU
         1 000121   100061 752140                    STCQ    49,'40'O,PR1

      320     6797    2           END;

      321     6798    1        FPRG$ -> FPRG$CONTEXT.SHARED = '1'B;

   6798  1 000122   010000 236003                    LDQ     4096,DU
         1 000123   100001 256100                    ORSQ    1,,PR1

      322     6799    1        FPRG$ -> FPRG$CONTEXT.NEXT$ = ADDR(NIL);

   6799  1 000124   000001 236000 xsym               LDQ     B_VECTNIL+1
         1 000125   100000 756100                    STQ     0,,PR1

      323     6800    1        FPRG$ -> FPRG$CONTEXT.STEP_MODE = C@STATEMENTS; /* C@STATEMENTS */

   6800  1 000126   001107 220003                    LDX0    583,DU
         1 000127   100033 440100                    SXL0    27,,PR1

      324     6801    1        FPRG$ -> FPRG$CONTEXT.DCBNO = DCBNO;

   6801  1 000130   200003 473500                    LDP3    @DCBNO,,AUTO
         1 000131   300000 721100                    LXL1    0,,PR3
         1 000132   100001 441100                    SXL1    1,,PR1

      325     6802    1        FPRG$ -> FPRG$CONTEXT.RES = RES;

   6802  1 000133   040100 100500                    MLR     fill='040'O
         1 000134   200011 000010                    ADSC9   RES,,AUTO                cn=0,n=8
         1 000135   100002 000010                    ADSC9   2,,PR1                   cn=0,n=8
PL6.E3A0      #002=DFA$SETUP_FPRG File=DFA$FPRG.:E05TSI                          TUE 07/29/97 14:32 Page:68

      326     6803    1        FPRG$ -> FPRG$CONTEXT.RES_SIZE = RES_SIZE;

   6803  1 000136   100004 755100                    STA     4,,PR1

      327     6804    1        FPRG$ -> FPRG$CONTEXT.PROMPT = RES;

   6804  1 000137   040100 100500                    MLR     fill='040'O
         1 000140   200011 000010                    ADSC9   RES,,AUTO                cn=0,n=8
         1 000141   100006 000030                    ADSC9   6,,PR1                   cn=0,n=24

      328     6805    1        FPRG$ -> FPRG$CONTEXT.PROMPT_SIZE = RES_SIZE;

   6805  1 000142   100014 755100                    STA     12,,PR1

      329     6806    1        FPRG$ -> FPRG$CONTEXT.NEXT$ = S_D.FPRG_CONTEXT$;

   6806  1 000143   000076 236100                    LDQ     62,,PR0
         1 000144   100000 756100                    STQ     0,,PR1

      330     6807    1        S_D.FPRG_CONTEXT$ = FPRG$;

   6807  1 000145   200007 236100                    LDQ     FPRG$,,AUTO
         1 000146   000076 756100                    STQ     62,,PR0

      331     6808                                      /* Tell monitor to associate FD with this FPRG */
      332     6809    1        IF XDELTA

   6809  1 000147   200020 234100                    SZN     XDELTA,,AUTO
         1 000150   000175 605000 1                  TPL     s:6818

      333     6810    2        THEN DO;

      334     6811    2   SET_SCHEMA: DCB$ = DCBADDR(S_D.LMDCB);

   6811  1 000151   000003 471400 2     SET_SCHEMA   LDP1    3
         1 000152   100000 473500                    LDP3    0,,PR1
PL6.E3A0      #002=DFA$SETUP_FPRG File=DFA$FPRG.:E05TSI                          TUE 07/29/97 14:32 Page:69
         1 000153   004774 720100                    LXL0    2556,,PR0
         1 000154   300000 236110                    LDQ     0,X0,PR3
         1 000155   200010 756100                    STQ     DCB$,,AUTO

      335     6812    2             FPRG$ -> FPRG$CONTEXT.RUFID.FNAME = DCB$ -> F$DCB.NAME#;

   6812  1 000156   200010 474500                    LDP4    DCB$,,AUTO
         1 000157   200007 475500                    LDP5    FPRG$,,AUTO
         1 000160   000100 100500                    MLR     fill='000'O
         1 000161   400010 000040                    ADSC9   8,,PR4                   cn=0,n=32
         1 000162   500015 000040                    ADSC9   13,,PR5                  cn=0,n=32

      336     6813    2             FPRG$ -> FPRG$CONTEXT.RUFID.ACCT = DCB$ -> F$DCB.ACCT#;

   6813  1 000163   400020 237100                    LDAQ    16,,PR4
         1 000164   500025 755100                    STA     21,,PR5
         1 000165   500026 756100                    STQ     22,,PR5

      337     6814    2             FPRG$ -> FPRG$CONTEXT.RUFID.PASS = DCB$ -> F$DCB.PASS#;

   6814  1 000166   400022 237100                    LDAQ    18,,PR4
         1 000167   500027 755100                    STA     23,,PR5
         1 000170   500030 756100                    STQ     24,,PR5

      338     6815    2             FPRG$ -> FPRG$CONTEXT.RUFID.PSN = DCB$ -> F$DCB.PSN#;

   6815  1 000171   040100 100500                    MLR     fill='040'O
         1 000172   400024 000006                    ADSC9   20,,PR4                  cn=0,n=6
         1 000173   500031 000006                    ADSC9   25,,PR5                  cn=0,n=6

      339     6816    2             RETURN;

   6816  1 000174   000000 702200 xent               TSX2  ! X66_ARET

      340     6817    2           END;
      341     6818    1        S_D.DRTN$ -> FPT$DRTN.V.ALIB_FD# = '1'B;

PL6.E3A0      #002=DFA$SETUP_FPRG File=DFA$FPRG.:E05TSI                          TUE 07/29/97 14:32 Page:70
   6818  1 000175   004704 474500                    LDP4    2500,,PR0
         1 000176   000040 236003                    LDQ     32,DU
         1 000177   400013 256100                    ORSQ    11,,PR4

      342     6819    1        S_D.DRTN$ -> FPT$DRTN.FPRG_FID_ = VECTOR(VLR_FPRG_FID);

   6819  1 000200   004704 474500                    LDP4    2500,,PR0
         1 000201   000004 235000 2                  LDA     4
         1 000202   200042 452500                    STP2    VLR_FPRG_FID+16,,AUTO
         1 000203   200042 236100                    LDQ     VLR_FPRG_FID+16,,AUTO
         1 000204   000022 036003                    ADLQ    18,DU
         1 000205   400010 757100                    STAQ    8,,PR4

      343     6820    1        S_D.DRTN$ -> FPT$DRTN.V.FPRG_DCB# = DCBNO;

   6820  1 000206   004704 474500                    LDP4    2500,,PR0
         1 000207   300000 721100                    LXL1    0,,PR3
         1 000210   400014 441100                    SXL1    12,,PR4

      344     6821    1        CALL M$DRTN (S_D.DRTN$ -> FPT$DRTN)

   6821  1 000211   004704 474500                    LDP4    2500,,PR0
         1 000212   400000 630500                    EPPR0   0,,PR4
         1 000213   410017 713400                    CLIMB   alt,+4111
         1 000214   402000 401760                    pmme    nvectors=5
         1 000215   000217 702000 1                  TSX2    s:6823
         1 000216   000242 710000 1                  TRA     s:6831

      345     6822    2        WHENALTRETURN DO;

      346     6823    2             CALL DUE$ERRMSG;

   6823  1 000217   000002 631400 xsym               EPPR1   B_VECTNIL+2
         1 000220   000000 701000 xent               TSX1    DUE$ERRMSG
         1 000221   000000 011000                    NOP     0

      347     6824    2             FPRG$ -> FPRG$CONTEXT.NEXT$ = S_D.FPRG_CONTEXT_AVAIL$;
PL6.E3A0      #002=DFA$SETUP_FPRG File=DFA$FPRG.:E05TSI                          TUE 07/29/97 14:32 Page:71

   6824  1 000222   000000 470400 xsym               LDP0    S_D$
         1 000223   000103 236100                    LDQ     67,,PR0
         1 000224   200007 471500                    LDP1    FPRG$,,AUTO
         1 000225   100000 756100                    STQ     0,,PR1

      348     6825    2             S_D.FPRG_CONTEXT_AVAIL$ = FPRG$;

   6825  1 000226   200007 236100                    LDQ     FPRG$,,AUTO
         1 000227   000103 756100                    STQ     67,,PR0

      349     6826    2             S_D.DRTN$ -> FPT$DRTN.V.ALIB_FD# = '0'B;

   6826  1 000230   004704 473500                    LDP3    2500,,PR0
         1 000231   000005 236000 2                  LDQ     5
         1 000232   300013 356100                    ANSQ    11,,PR3

      350     6827    2             S_D.DRTN$ -> FPT$DRTN.V.FPRG_DCB# = 0;

   6827  1 000233   004704 473500                    LDP3    2500,,PR0
         1 000234   000000 220003                    LDX0    0,DU
         1 000235   300014 440100                    SXL0    12,,PR3

      351     6828    2             S_D.DRTN$ -> FPT$DRTN.FPRG_FID_ = VECTOR(NIL);

   6828  1 000236   004704 473500                    LDP3    2500,,PR0
         1 000237   000006 237000 2                  LDAQ    6
         1 000240   300010 757100                    STAQ    8,,PR3

      352     6829    2             ALTRETURN;

   6829  1 000241   000000 702200 xent               TSX2  ! X66_AALT

      353     6830    2           END;
      354     6831    1        S_D.DRTN$ -> FPT$DRTN.V.ALIB_FD# = '0'B;

   6831  1 000242   000000 470400 xsym               LDP0    S_D$
PL6.E3A0      #002=DFA$SETUP_FPRG File=DFA$FPRG.:E05TSI                          TUE 07/29/97 14:32 Page:72
         1 000243   004704 471500                    LDP1    2500,,PR0
         1 000244   000005 236000 2                  LDQ     5
         1 000245   100013 356100                    ANSQ    11,,PR1

      355     6832    1        S_D.DRTN$ -> FPT$DRTN.V.FPRG_DCB# = 0;

   6832  1 000246   004704 471500                    LDP1    2500,,PR0
         1 000247   000000 220003                    LDX0    0,DU
         1 000250   100014 440100                    SXL0    12,,PR1

      356     6833    1        S_D.DRTN$ -> FPT$DRTN.FPRG_FID_ = VECTOR(NIL);

   6833  1 000251   004704 471500                    LDP1    2500,,PR0
         1 000252   000006 237000 2                  LDAQ    6
         1 000253   100010 757100                    STAQ    8,,PR1

      357     6834                                                /* Pick up run unit name for schema */
      358     6835    1        FPRG$ -> FPRG$CONTEXT.RUFID.FNAME.SIZE = VLR_FPRG_FID.NAME.L;

   6835  1 000254   200007 471500                    LDP1    FPRG$,,AUTO
         1 000255   200022 236100                    LDQ     VLR_FPRG_FID,,AUTO
         1 000256   100015 552140                    STBQ    13,'40'O,PR1

      359     6836    1        FPRG$ -> FPRG$CONTEXT.RUFID.FNAME.TEXT = VLR_FPRG_FID.NAME.TEXT;

   6836  1 000257   040100 100500                    MLR     fill='040'O
         1 000260   200022 200037                    ADSC9   VLR_FPRG_FID,,AUTO       cn=1,n=31
         1 000261   100015 200037                    ADSC9   13,,PR1                  cn=1,n=31

      360     6837    1        FPRG$ -> FPRG$CONTEXT.RUFID.ACCT = VLR_FPRG_FID.ACCT;

   6837  1 000262   200032 237100                    LDAQ    VLR_FPRG_FID+8,,AUTO
         1 000263   100025 755100                    STA     21,,PR1
         1 000264   100026 756100                    STQ     22,,PR1

      361     6838    1        FPRG$ -> FPRG$CONTEXT.RUFID.PASS = VLR_FPRG_FID.PASS;

PL6.E3A0      #002=DFA$SETUP_FPRG File=DFA$FPRG.:E05TSI                          TUE 07/29/97 14:32 Page:73
   6838  1 000265   200034 237100                    LDAQ    VLR_FPRG_FID+10,,AUTO
         1 000266   100027 755100                    STA     23,,PR1
         1 000267   100030 756100                    STQ     24,,PR1

      362     6839    1        FPRG$ -> FPRG$CONTEXT.RUFID.PSN = VLR_FPRG_FID.PSN;

   6839  1 000270   040100 100500                    MLR     fill='040'O
         1 000271   200036 000006                    ADSC9   VLR_FPRG_FID+12,,AUTO    cn=0,n=6
         1 000272   100031 000006                    ADSC9   25,,PR1                  cn=0,n=6

      363     6840    1        FPRG$ -> FPRG$CONTEXT.RUFID.MODTIME = VLR_FPRG_FID.MODTIME;

   6840  1 000273   000100 100500                    MLR     fill='000'O
         1 000274   200040 000004                    ADSC9   VLR_FPRG_FID+14,,AUTO    cn=0,n=4
         1 000275   100032 400004                    ADSC9   26,,PR1                  cn=2,n=4

      364     6841                                                /* Read program start message from FD */
      365     6842    1        FPRG$ -> FPRG$CONTEXT.STATE = %STOPPED;

   6842  1 000276   000002 236003                    LDQ     2,DU
         1 000277   100001 552120                    STBQ    1,'20'O,PR1

      366     6843    1        FPRG$ -> FPRG$CONTEXT.READ_FD = '0'B;

   6843  1 000300   000031 236000 xsym               LDQ     B_VECTNIL+25
         1 000301   100001 356100                    ANSQ    1,,PR1

      367     6844    1   READ:
      368     6845    1        CALL DFQ$READ_FD(S_D.CURRENT_FPRG_CONTEXT$, '0'B)

   6845  1 000302   000010 236000 2     READ         LDQ     8
         1 000303   200043 756100                    STQ     VLR_FPRG_FID+17,,AUTO
         1 000304   000000 236000 xsym               LDQ     S_D$
         1 000305   000102 036003                    ADLQ    66,DU
         1 000306   200042 756100                    STQ     VLR_FPRG_FID+16,,AUTO
         1 000307   200042 630500                    EPPR0   VLR_FPRG_FID+16,,AUTO
         1 000310   000020 631400 xsym               EPPR1   B_VECTNIL+16
PL6.E3A0      #002=DFA$SETUP_FPRG File=DFA$FPRG.:E05TSI                          TUE 07/29/97 14:32 Page:74
         1 000311   000000 701000 xent               TSX1    DFQ$READ_FD
         1 000312   000314 702000 1                  TSX2    s:6847
         1 000313   000320 710000 1                  TRA     s:6850

      369     6846    2        WHENALTRETURN DO;

      370     6847    2             CALL DUE$ERRMSG;

   6847  1 000314   000002 631400 xsym               EPPR1   B_VECTNIL+2
         1 000315   000000 701000 xent               TSX1    DUE$ERRMSG
         1 000316   000000 011000                    NOP     0

      371     6848    2             ALTRETURN;

   6848  1 000317   000000 702200 xent               TSX2  ! X66_AALT

      372     6849    2           END;
      373     6850    1        IF S_D.DEBUGA(%DB@ECC)

   6850  1 000320   000000 470400 xsym               LDP0    S_D$
         1 000321   000053 236100                    LDQ     43,,PR0
         1 000322   000040 316007                    CANQ    32,DL
         1 000323   000340 600000 1                  TZE     s:6860

      374     6851    2        THEN DO;

      375     6852    2             CALL DFR$EVENTRPT(%DB@ECC);

   6852  1 000324   000012 630400 2                  EPPR0   10
         1 000325   000017 631400 xsym               EPPR1   B_VECTNIL+15
         1 000326   000000 701000 xent               TSX1    DFR$EVENTRPT
         1 000327   000000 011000                    NOP     0

      376     6853    2             IF S_D.DEBUG

   6853  1 000330   000000 470400 xsym               LDP0    S_D$
         1 000331   004732 234100                    SZN     2522,,PR0
PL6.E3A0      #002=DFA$SETUP_FPRG File=DFA$FPRG.:E05TSI                          TUE 07/29/97 14:32 Page:75
         1 000332   000340 605000 1                  TPL     s:6860

      377     6854    3             THEN DO;

      378     6855    3                  CALL DUD$MINI;

   6855  1 000333   000002 631400 xsym               EPPR1   B_VECTNIL+2
         1 000334   000000 701000 xent               TSX1    DUD$MINI
         1 000335   000000 011000                    NOP     0

      379     6856    3                  S_D.PROMPT_SIZE = 0;

   6856  1 000336   000000 470400 xsym               LDP0    S_D$
         1 000337   005147 450100                    STZ     2663,,PR0

      380     6857    3                END;

      381     6858    2           END;

      382     6859                                      /* Make sure just read a program start message */
      383     6860    1        FPRG$ -> FPRG$CONTEXT.SHARED_PRINT = GD$MSG.BRKRSP.SHARED;

   6860  1 000340   200007 471500                    LDP1    FPRG$,,AUTO
         1 000341   000000 473400 xsym               LDP3    S_D_L6_MESSAGE$
         1 000342   300013 236100                    LDQ     11,,PR3
         1 000343   000011 736000                    QLS     9
         1 000344   100001 676100                    ERQ     1,,PR1
         1 000345   020000 376003                    ANQ     8192,DU
         1 000346   100001 656100                    ERSQ    1,,PR1

      384     6861    1        IF GD$MSG.FNC ~= %FPRG_BRKRSP# AND

   6861  1 000347   300000 236100                    LDQ     0,,PR3
         1 000350   776000 376003                    ANQ     -1024,DU
         1 000351   132000 116003                    CMPQ    46080,DU
         1 000352   000423 600000 1                  TZE     s:6881
         1 000353   300002 236100                    LDQ     2,,PR3
PL6.E3A0      #002=DFA$SETUP_FPRG File=DFA$FPRG.:E05TSI                          TUE 07/29/97 14:32 Page:76
         1 000354   000013 376000 2                  ANQ     11
         1 000355   250000 116007                    CMPQ    86016,DL
         1 000356   000423 603000 1                  TRC     s:6881
         1 000357   300000 235100                    LDA     0,,PR3
         1 000360   300001 236100                    LDQ     1,,PR3
         1 000361   000030 773000                    LRL     24
         1 000362   000015 376000 2                  ANQ     13
         1 000363   000014 116000 2                  CMPQ    12
         1 000364   000423 605000 1                  TPL     s:6881

      385     6862    1          GD$MSG.BRKRSP.BRK# < (%GD#MAXBRKNUM + 1) AND
      386     6863    1          GD$MSG.BRKRSP.ADR$ < %GM_ISR6_BASE
      387     6864    2        THEN DO;

      388     6865    2             IF GD$MSG.FNC = %GD#RSPBADXBREAK

   6865  1 000365   300000 236100                    LDQ     0,,PR3
         1 000366   776000 376003                    ANQ     -1024,DU
         1 000367   166000 116003                    CMPQ    60416,DU
         1 000370   000377 601000 1                  TNZ     TAKE_SNAP

      389     6866    3             THEN DO;

      390     6867    3                  S_D.ERROR = E@BADXBREAK; /* E@BADXBREAK */

   6867  1 000371   000516 235007                    LDA     334,DL
         1 000372   000013 755100                    STA     11,,PR0

      391     6868    3                  CALL DDE$ERROR;

   6868  1 000373   000002 631400 xsym               EPPR1   B_VECTNIL+2
         1 000374   000000 701000 xent               TSX1    DDE$ERROR
         1 000375   000000 011000                    NOP     0

      392     6869    3                  ALTRETURN;

   6869  1 000376   000000 702200 xent               TSX2  ! X66_AALT
PL6.E3A0      #002=DFA$SETUP_FPRG File=DFA$FPRG.:E05TSI                          TUE 07/29/97 14:32 Page:77

   6866  1 000377                       TAKE_SNAP    null
      393     6870    3                END;
      394     6871    2   TAKE_SNAP: ;
      395     6872    2             REMEMBER NEVER IN S_D.SCREECH_IC;

   6872  1 000377   000406 635000 1                  EAA     NEVER
         1 000400   005250 452500                    STP2    2728,,PR0
         1 000401   005251 755100                    STA     2729,,PR0

      396     6873    2             CALL M$SCREECH (SNAP_MESSAGE) ALTRET(NEVER);

   6873  1 000402   000000 630400 xsym               EPPR0   SNAP_MESSAGE
         1 000403   400013 713400                    CLIMB   alt,+11
         1 000404   401000 401760                    pmme    nvectors=3
         1 000405   000406 702000 1                  TSX2    NEVER

   6866  1 000406                       NEVER        null
      397     6874    2   NEVER:    ;
      398     6875    2             S_D.ERROR = E@BADMESSAGE;     /* E@BADMESSAGE */

   6875  1 000406   001014 235007                    LDA     524,DL
         1 000407   000000 470400 xsym               LDP0    S_D$
         1 000410   000013 755100                    STA     11,,PR0

      399     6876    2             CALL DDE$ERROR;

   6876  1 000411   000002 631400 xsym               EPPR1   B_VECTNIL+2
         1 000412   000000 701000 xent               TSX1    DDE$ERROR
         1 000413   000000 011000                    NOP     0

      400     6877    2             S_D.ERROR = E@DELBUG;         /* E@DELBUG */

   6877  1 000414   000766 235007                    LDA     502,DL
         1 000415   000000 470400 xsym               LDP0    S_D$
         1 000416   000013 755100                    STA     11,,PR0

PL6.E3A0      #002=DFA$SETUP_FPRG File=DFA$FPRG.:E05TSI                          TUE 07/29/97 14:32 Page:78
      401     6878    2             CALL DDE$ERROR;

   6878  1 000417   000002 631400 xsym               EPPR1   B_VECTNIL+2
         1 000420   000000 701000 xent               TSX1    DDE$ERROR
         1 000421   000000 011000                    NOP     0

      402     6879    2             ALTRETURN;

   6879  1 000422   000000 702200 xent               TSX2  ! X66_AALT

      403     6880    2           END;
      404     6881    1        FPRG_IC = GD$MSG.BRKRSP.ADR$;

   6881  1 000423   300000 235100                    LDA     0,,PR3
         1 000424   300001 236100                    LDQ     1,,PR3
         1 000425   000030 773000                    LRL     24
         1 000426   000015 376000 2                  ANQ     13
         1 000427   200014 756100                    STQ     FPRG_IC,,AUTO

      405     6882    1        S_D.MOD_L6.ADDRESS = FPRG_IC;

   6882  1 000430   006772 756100                    STQ     3578,,PR0

      406     6883    1        S_D.MOD_L6.SEG = 3;

   6883  1 000431   000003 235007                    LDA     3,DL
         1 000432   006773 755100                    STA     3579,,PR0

      407     6884    1        S_D.MOD_L6.DESC# = 0;

   6884  1 000433   006774 450100                    STZ     3580,,PR0

      408     6885    1        S_D.MOD_L6.NOT_IS = '0'B;

   6885  1 000434   006775 450100                    STZ     3581,,PR0

      409     6886    1        S_D.MOD_L6.VALUE.SIZE = GD$MSG.BRKRSP.DATA_SIZE;
PL6.E3A0      #002=DFA$SETUP_FPRG File=DFA$FPRG.:E05TSI                          TUE 07/29/97 14:32 Page:79

   6886  1 000435   300013 236100                    LDQ     11,,PR3
         1 000436   000030 772000                    QRL     24
         1 000437   000377 376007                    ANQ     255,DL
         1 000440   006776 756100                    STQ     3582,,PR0

      410     6887    2        DO I = 0 TO GD$MSG.BRKRSP.DATA_SIZE - 1;

   6887  1 000441   200017 450100                    STZ     I,,AUTO
         1 000442   000461 710000 1                  TRA     s:6889+3

      411     6888    2             S_D.MOD_L6.VALUE.OPS(I) = GD$MSG.BRKRSP.DATA(I);

   6888  1 000443   200017 235100                    LDA     I,,AUTO
         1 000444   000004 735000                    ALS     4
         1 000445   200017 236100                    LDQ     I,,AUTO
         1 000446   200042 755100                    STA     VLR_FPRG_FID+16,,AUTO
         1 000447   000044 402007                    MPY     36,DL
         1 000450   000000 470400 xsym               LDP0    S_D_L6_MESSAGE$
         1 000451   200042 235100                    LDA     VLR_FPRG_FID+16,,AUTO
         1 000452   000000 471400 xsym               LDP1    S_D$
         1 000453   003106 061505                    CSR     bolr='003'O
         1 000454   000004 000020                    BDSC    4,A,PR0                  by=0,bit=0,n=16
         1 000455   106777 000044                    BDSC    3583,Q,PR1               by=0,bit=0,n=36

      412     6889    2           END;

   6889  1 000456   200017 235100                    LDA     I,,AUTO
         1 000457   000001 035007                    ADLA    1,DL
         1 000460   200017 755100                    STA     I,,AUTO
         1 000461   000000 470400 xsym               LDP0    S_D_L6_MESSAGE$
         1 000462   000013 236100                    LDQ     11,,PR0
         1 000463   000030 772000                    QRL     24
         1 000464   000377 376007                    ANQ     255,DL
         1 000465   200017 116100                    CMPQ    I,,AUTO
         1 000466   000470 600000 1                  TZE     s:6890
         1 000467   000443 603000 1                  TRC     s:6888
PL6.E3A0      #002=DFA$SETUP_FPRG File=DFA$FPRG.:E05TSI                          TUE 07/29/97 14:32 Page:80

      413     6890    1        S_D.FAULT = GD$MSG.BRKRSP.BRK# - (%GD#MAXBRKNUM + 1);

   6890  1 000470   000002 236100                    LDQ     2,,PR0
         1 000471   000014 772000                    QRL     12
         1 000472   177777 376007                    ANQ     65535,DL
         1 000473   000025 136007                    SBLQ    21,DL
         1 000474   000000 471400 xsym               LDP1    S_D$
         1 000475   100030 756100                    STQ     24,,PR1

      414     6891    1        IF S_D.FAULT = %G_FPRG_EXIT#

   6891  1 000476   000057 116007                    CMPQ    47,DL
         1 000477   000503 601000 1                  TNZ     s:6893

      415     6892    1        THEN FPRG$ -> FPRG$CONTEXT.STATE = %ATEXIT;

   6892  1 000500   200007 473500                    LDP3    FPRG$,,AUTO
         1 000501   000004 236003                    LDQ     4,DU
         1 000502   300001 552120                    STBQ    1,'20'O,PR3

      416     6893    1        S_D.BRKRSP_ERRCODE = BITBIN(GD$MSG_HOST.BRKRSP.ERRCODE);

   6893  1 000503   000000 473400 xsym               LDP3    S_D_HOST_MESSAGE$
         1 000504   300003 235100                    LDA     3,,PR3
         1 000505   300004 236100                    LDQ     4,,PR3
         1 000506   000022 773000                    LRL     18
         1 000507   105240 756100                    STQ     2720,,PR1

      417     6894    1        S_D.USERNO = GD$MSG.BRKRSP.USER#;

   6894  1 000510   000002 235100                    LDA     2,,PR0
         1 000511   000003 236100                    LDQ     3,,PR0
         1 000512   000040 773000                    LRL     32
         1 000513   177777 376007                    ANQ     65535,DL
         1 000514   105241 756100                    STQ     2721,,PR1

PL6.E3A0      #002=DFA$SETUP_FPRG File=DFA$FPRG.:E05TSI                          TUE 07/29/97 14:32 Page:81
      418     6895    1        S_D.MBU = GD$MSG.BRKRSP.MBU;

   6895  1 000515   000013 236100                    LDQ     11,,PR0
         1 000516   000014 736000                    QLS     12
         1 000517   400000 376003                    ANQ     -131072,DU
         1 000520   105244 756100                    STQ     2724,,PR1

      419     6896    1        S_D.FAULT = GD$MSG.BRKRSP.BRK# - (%GD#MAXBRKNUM + 1);

   6896  1 000521   000002 236100                    LDQ     2,,PR0
         1 000522   000014 772000                    QRL     12
         1 000523   177777 376007                    ANQ     65535,DL
         1 000524   000025 136007                    SBLQ    21,DL
         1 000525   100030 756100                    STQ     24,,PR1

      420     6897    1        FPRG$ -> FPRG$CONTEXT.ADDRESS = FPRG_IC;

   6897  1 000526   200007 474500                    LDP4    FPRG$,,AUTO
         1 000527   200014 235100                    LDA     FPRG_IC,,AUTO
         1 000530   400005 755100                    STA     5,,PR4

      421     6898                                                /* Report Host program stopped */
      422     6899    1        IF NOT S_D.DEBUG_CMD

   6899  1 000531   104665 234100                    SZN     2485,,PR1
         1 000532   000537 604000 1                  TMI     s:6902

      423     6900    1        THEN CALL DDR$REPORT(R_STOP);

   6900  1 000533   000017 630400 2                  EPPR0   15
         1 000534   000017 631400 xsym               EPPR1   B_VECTNIL+15
         1 000535   000000 701000 xent               TSX1    DDR$REPORT
         1 000536   000000 011000                    NOP     0

      424     6901                                                /* Set up access to FPRG RU */
      425     6902    1        S_D.FIRST_TIME = '1'B;

PL6.E3A0      #002=DFA$SETUP_FPRG File=DFA$FPRG.:E05TSI                          TUE 07/29/97 14:32 Page:82
   6902  1 000537   400000 236003                    LDQ     -131072,DU
         1 000540   000000 470400 xsym               LDP0    S_D$
         1 000541   006725 756100                    STQ     3541,,PR0

      426     6903    1        CALL DFA$FPRG (FPRG_IC);

   6903  1 000542   200014 631500                    EPPR1   FPRG_IC,,AUTO
         1 000543   200042 451500                    STP1    VLR_FPRG_FID+16,,AUTO
         1 000544   200042 630500                    EPPR0   VLR_FPRG_FID+16,,AUTO
         1 000545   000017 631400 xsym               EPPR1   B_VECTNIL+15
         1 000546   000000 701000 xent               TSX1    DFA$FPRG
         1 000547   000000 011000                    NOP     0

      427     6904    1        IF FPRG$ -> FPRG$CONTEXT.INTERPRETIVE AND

   6904  1 000550   200007 470500                    LDP0    FPRG$,,AUTO
         1 000551   000001 236100                    LDQ     1,,PR0
         1 000552   200000 316003                    CANQ    65536,DU
         1 000553   000620 600000 1                  TZE     s:6921
         1 000554   000000 471400 xsym               LDP1    S_D_L6_MESSAGE$
         1 000555   100000 235100                    LDA     0,,PR1
         1 000556   100001 236100                    LDQ     1,,PR1
         1 000557   000030 773000                    LRL     24
         1 000560   000015 376000 2                  ANQ     13
         1 000561   000014 116000 2                  CMPQ    12
         1 000562   000620 604000 1                  TMI     s:6921

      428     6905    1          GD$MSG.BRKRSP.ADR$ >= %GM_ISR6_BASE
      429     6906    2        THEN DO;

      430     6907    2             IF S_D.INTERPRETIVE AND GD$MSG.BRKRSP.BRK# < %GD#MAXBRKNUM

   6907  1 000563   000000 473400 xsym               LDP3    S_D$
         1 000564   305246 234100                    SZN     2726,,PR3
         1 000565   000620 605000 1                  TPL     s:6921
         1 000566   100002 236100                    LDQ     2,,PR1
         1 000567   000013 376000 2                  ANQ     11
PL6.E3A0      #002=DFA$SETUP_FPRG File=DFA$FPRG.:E05TSI                          TUE 07/29/97 14:32 Page:83
         1 000570   240000 116007                    CMPQ    81920,DL
         1 000571   000620 603000 1                  TRC     s:6921

      431     6908    3             THEN DO;

      432     6909    3                  GD$MSG = '0'B;

   6909  1 000572   003100 060400                    CSL     bolr='003'O
         1 000573   000002 000001 xsym               BDSC    B_VECTNIL+2              by=0,bit=0,n=1
         1 000574   100000 004720                    BDSC    0,,PR1                   by=0,bit=0,n=2512

      433     6910    3                  GD$MSG.FNC = %GD#RQSGO;

   6910  1 000575   100000 236100                    LDQ     0,,PR1
         1 000576   000020 376000 2                  ANQ     16
         1 000577   010000 276003                    ORQ     4096,DU
         1 000600   100000 756100                    STQ     0,,PR1

      434     6911    3                  GD$MSG.SUBFB.GOTRAP = '1'B;

   6911  1 000601   000040 236003                    LDQ     32,DU
         1 000602   100000 256100                    ORSQ    0,,PR1

      435     6912    3                  IF S_D.POST_ASSOC

   6912  1 000603   306737 234100                    SZN     3551,,PR3
         1 000604   000610 605000 1                  TPL     s:6917

      436     6913    4                  THEN DO;

      437     6914    4                       S_D.POST_ASSOC = '0'B;

   6914  1 000605   306737 450100                    STZ     3551,,PR3

      438     6915    4                       GD$MSG.SUBFB.POSTASSOC = '1'B;

   6915  1 000606   001000 236003                    LDQ     512,DU
PL6.E3A0      #002=DFA$SETUP_FPRG File=DFA$FPRG.:E05TSI                          TUE 07/29/97 14:32 Page:84
         1 000607   100000 256100                    ORSQ    0,,PR1

      439     6916    4                     END;

      440     6917    3                  CALL DFQ$WRITE_FD(S_D.CURRENT_FPRG_CONTEXT$) ALTRET(ERRMSG);

   6917  1 000610   000000 236000 xsym               LDQ     S_D$
         1 000611   000102 036003                    ADLQ    66,DU
         1 000612   200042 756100                    STQ     VLR_FPRG_FID+16,,AUTO
         1 000613   200042 630500                    EPPR0   VLR_FPRG_FID+16,,AUTO
         1 000614   000017 631400 xsym               EPPR1   B_VECTNIL+15
         1 000615   000000 701000 xent               TSX1    DFQ$WRITE_FD
         1 000616   000634 702000 1                  TSX2    ERRMSG

      441     6918    3                  GOTO READ;

   6918  1 000617   000302 710000 1                  TRA     READ

      442     6919    3                END;
      443     6920    2           END;
      444     6921    1        IF GD$MSG.BRKRSP.BRK# + %GD#MAXBRKNUM = %G_FPRG_EXIT#

   6921  1 000620   000000 471400 xsym               LDP1    S_D_L6_MESSAGE$
         1 000621   100002 236100                    LDQ     2,,PR1
         1 000622   000013 376000 2                  ANQ     11
         1 000623   330000 116007                    CMPQ    110592,DL
         1 000624   000627 601000 1                  TNZ     s:6923

      445     6922    1        THEN FPRG$->FPRG$CONTEXT.STATE = %ATEXIT;

   6922  1 000625   000004 236003                    LDQ     4,DU
         1 000626   000001 552120                    STBQ    1,'20'O,PR0

      446     6923    1        CALL DFR$REPORT(%R_FPRG_TRAP);

   6923  1 000627   000021 630400 2                  EPPR0   17
         1 000630   000017 631400 xsym               EPPR1   B_VECTNIL+15
PL6.E3A0      #002=DFA$SETUP_FPRG File=DFA$FPRG.:E05TSI                          TUE 07/29/97 14:32 Page:85
         1 000631   000000 701000 xent               TSX1    DFR$REPORT
         1 000632   000000 011000                    NOP     0

      447     6924    1        RETURN;

   6924  1 000633   000000 702200 xent               TSX2  ! X66_ARET

      448     6925
      449     6926    1   ERRMSG:
      450     6927    1        CALL DUE$ERRMSG;

   6927  1 000634   000002 631400 xsym  ERRMSG       EPPR1   B_VECTNIL+2
         1 000635   000000 701000 xent               TSX1    DUE$ERRMSG
         1 000636   000000 011000                    NOP     0

      451     6928    1        ALTRETURN;

   6928  1 000637   000000 702200 xent               TSX2  ! X66_AALT

(unnamed)
 Sect OctLoc
   2     000   000000 000071   000000 006000   000000 006000   000000 006003    ...9............
   2     004   000017 777640   777737 777777   000000 177640   000000 006014    ................
   2     010   000002 006000   000000 000036   000011 006000   001777 770000    ................
   2     014   000001 400000   037777 777777   000000 000034   000016 006000    ................
   2     020   001777 777777   000004 006000                                    ........
      452     6929    1   END DFA$SETUP_FPRG;
      453     6930        %EOD;

PL6.E3A0      #002=DFA$SETUP_FPRG File=DFA$FPRG.:E05TSI                          TUE 07/29/97 14:32 Page:86
--  Include file information  --

   GM_VIRTUAL_E.:E05TOU  is referenced.
   DD_PSUBS_C.:E05TOU  is referenced.
   DD_SUBS_C.:E05TOU  is referenced.
   G_LCP6_E.:E05TOU  is referenced.
   GD_EQUS_E.:E05TOU  is referenced.
   DF_EQUS_E.:E05TOU  is referenced.
   DD_DEBUG_C.:E05TOU  is referenced.
   GD$MSG_M.:E05TOU  is referenced.
   DD_ERR_C.:E05TOU  is referenced.
   DD$BASED.:E05TOU  is referenced.
   DD_SD_M.:E05TOU  is referenced.
   XUH_MACRO_C.:E05TOU  is referenced.
   CP_6.:E05TOU  cannot be made into a system file and is referenced.
   DU_SCODE_C.:E05TOU  is referenced.
   B$JIT_C.:E05TOU  was found in the system file and is never referenced.
   CP_6_C.:E05TOU  was found in the system file and is referenced.
      No diagnostics issued in procedure DFA$SETUP_FPRG.

   Procedure DFA$SETUP_FPRG requires 416 words for executable code.
   Procedure DFA$SETUP_FPRG requires 36 words of local(AUTO) storage.
PL6.E3A0      #002=DFA$SETUP_FPRG File=DFA$FPRG.:E05TSI                          TUE 07/29/97 14:32 Page:87
          *** CROSS REFERENCE LISTING ***
**     DENOTES     IDENTIFIER DEFINITION
<<                 IDENTIFIER'S VALUE SET
>>                 IDENTIFIER'S VALUE USED
<>                 IDENTIFIER SET AND/OR USED
--                 IDENTIFIER REFERENCED
PL6.E3A0      #002=DFA$SETUP_FPRG File=DFA$FPRG.:E05TSI                          TUE 07/29/97 14:32 Page:88
          MINI XREF LISTING

B$FPRG.CODE
       285**DCL       285--REDEF     286--REDEF     286--REDEF
B$FPRG.ERR.ERR#
       287**DCL       287--REDEF
B$FPRG.EVID
       286**DCL       286--REDEF     286--REDEF
DCB$
        15**DCL      6811<<ASSIGN   6812>>ASSIGN   6813>>ASSIGN   6814>>ASSIGN   6815>>ASSIGN
DCBNO
         9**DCL         7--PROC     6754--IF       6801>>ASSIGN   6820>>ASSIGN
DDE$ERROR
      6739**DCL-ENT  6868--CALL     6876--CALL     6878--CALL
DDM$GETMEM
      6740**DCL-ENT  6769--CALL
DDR$REPORT
      6741**DCL-ENT  6900--CALL
DD_FPRGSEG$
      6750**DCL      6761>>ASSIGN   6769<>CALL
DFA$FPRG
      6742**DCL-ENT  6903--CALL
DFQ$READ_FD
      6743**DCL-ENT  6845--CALL
DFQ$WRITE_FD
      6744**DCL-ENT  6917--CALL
DFR$EVENTRPT
      6745**DCL-ENT  6852--CALL
DFR$REPORT
      6746**DCL-ENT  6923--CALL
DUD$MINI
      6747**DCL-ENT  6855--CALL
DUE$ERRMSG
      6748**DCL-ENT  6823--CALL     6847--CALL     6927--CALL
PL6.E3A0      #002=DFA$SETUP_FPRG File=DFA$FPRG.:E05TSI                          TUE 07/29/97 14:32 Page:89
ERRMSG
      6927**LABEL    6917--CALLALT
F$DCB.ACCT#
       242**DCL      6813>>ASSIGN
F$DCB.ACTPOS
       258**DCL       258--REDEF
F$DCB.ARS#
       232**DCL       232--REDEF
F$DCB.ATTR
       251**DCL       252--REDEF
F$DCB.BORROW
       266**DCL       266--REDEF     266--REDEF     266--REDEF
F$DCB.DCBNAME.L
       280**DCL       280--IMP-SIZ
F$DCB.EOMCHAR#
       236**DCL       236--REDEF
F$DCB.FLDID
       261**DCL       261--REDEF
F$DCB.FORM$
       255**DCL       255--REDEF
F$DCB.FSECT
       271**DCL       271--REDEF
F$DCB.FSN#
       248**DCL       248--REDEF     248--REDEF     249--REDEF
F$DCB.HEADER$
       254**DCL       254--REDEF
F$DCB.IXTNSIZE#
       252**DCL       252--REDEF
F$DCB.LASTSTA$
       241**DCL       241--REDEF
F$DCB.LVL
       267**DCL       267--REDEF
F$DCB.NAME#
       242**DCL      6812>>ASSIGN
F$DCB.NAME#.C
       242**DCL       242--REDEF
PL6.E3A0      #002=DFA$SETUP_FPRG File=DFA$FPRG.:E05TSI                          TUE 07/29/97 14:32 Page:90
F$DCB.NOEOF
       264**DCL       264--REDEF
F$DCB.NRECS#
       253**DCL       253--REDEF
F$DCB.NRECX
       272**DCL       272--REDEF
F$DCB.OHDR
       264**DCL       264--REDEF
F$DCB.ORG#
       247**DCL       247--REDEF
F$DCB.PASS#
       242**DCL      6814>>ASSIGN
F$DCB.PRECNO
       270**DCL       270--REDEF
F$DCB.PSN#
       242**DCL      6815>>ASSIGN
F$DCB.RCSZ
       276**DCL       276--REDEF
F$DCB.RES#
       243**DCL       243--REDEF    6779>>ASSIGN
F$DCB.SETX
       255**DCL       255--REDEF
F$DCB.TAB$
       255**DCL       255--REDEF
F$DCB.TDA
       269**DCL       270--REDEF
F$DCB.WSN#
       243**DCL       243--REDEF
FPRG$
        14**DCL      6756<<ASSIGN   6765<<ASSIGN   6766>>ASSIGN   6773<<ASSIGN   6774>>ASSIGN   6786>>ASSIGN
      6787>>ASSIGN   6791>>ASSIGN   6792>>ASSIGN   6795>>ASSIGN   6796>>ASSIGN   6798>>ASSIGN   6799>>ASSIGN
      6800>>ASSIGN   6801>>ASSIGN   6802>>ASSIGN   6803>>ASSIGN   6804>>ASSIGN   6805>>ASSIGN   6806>>ASSIGN
      6807>>ASSIGN   6812>>ASSIGN   6813>>ASSIGN   6814>>ASSIGN   6815>>ASSIGN   6824>>ASSIGN   6825>>ASSIGN
      6835>>ASSIGN   6836>>ASSIGN   6837>>ASSIGN   6838>>ASSIGN   6839>>ASSIGN   6840>>ASSIGN   6842>>ASSIGN
      6843>>ASSIGN   6860>>ASSIGN   6892>>ASSIGN   6897>>ASSIGN   6904>>IF       6922>>ASSIGN
FPRG$CONTEXT
PL6.E3A0      #002=DFA$SETUP_FPRG File=DFA$FPRG.:E05TSI                          TUE 07/29/97 14:32 Page:91
      4394**DCL      6769--CALL     6774--ASSIGN   6787<<ASSIGN
FPRG$CONTEXT.ADDRESS
      4418**DCL      6897<<ASSIGN
FPRG$CONTEXT.DCBNO
      4411**DCL      6801<<ASSIGN
FPRG$CONTEXT.INTERPRETIVE
      4399**DCL      6904>>IF
FPRG$CONTEXT.KEEP
      4437**DCL      6792<<ASSIGN   6796<<ASSIGN
FPRG$CONTEXT.NEXT$
      4395**DCL      6766>>ASSIGN   6799<<ASSIGN   6806<<ASSIGN   6824<<ASSIGN
FPRG$CONTEXT.PROMPT
      4420**DCL      6804<<ASSIGN
FPRG$CONTEXT.PROMPT_SIZE
      4422**DCL      6805<<ASSIGN
FPRG$CONTEXT.READ_FD
      4397**DCL      6843<<ASSIGN
FPRG$CONTEXT.RES
      4414**DCL      6802<<ASSIGN
FPRG$CONTEXT.RES_SIZE
      4416**DCL      6803<<ASSIGN
FPRG$CONTEXT.RUFID.ACCT
      4429**DCL      6813<<ASSIGN   6837<<ASSIGN
FPRG$CONTEXT.RUFID.FNAME
      4426**DCL      6812<<ASSIGN
FPRG$CONTEXT.RUFID.FNAME.SIZE
      4427**DCL      6835<<ASSIGN
FPRG$CONTEXT.RUFID.FNAME.TEXT
      4428**DCL      6836<<ASSIGN
FPRG$CONTEXT.RUFID.MODTIME
      4432**DCL      6840<<ASSIGN
FPRG$CONTEXT.RUFID.PASS
      4430**DCL      6814<<ASSIGN   6838<<ASSIGN
FPRG$CONTEXT.RUFID.PSN
      4431**DCL      6815<<ASSIGN   6839<<ASSIGN
FPRG$CONTEXT.SHARED
PL6.E3A0      #002=DFA$SETUP_FPRG File=DFA$FPRG.:E05TSI                          TUE 07/29/97 14:32 Page:92
      4405**DCL      6798<<ASSIGN
FPRG$CONTEXT.SHARED_PRINT
      4404**DCL      6860<<ASSIGN
FPRG$CONTEXT.STATE
      4409**DCL      6842<<ASSIGN   6892<<ASSIGN   6922<<ASSIGN
FPRG$CONTEXT.STEP_MODE
      4433**DCL      6800<<ASSIGN
FPRG$CONTEXT.USER
      4406**DCL      6791<<ASSIGN
FPRG$CONTEXT.XDELTA
      4407**DCL      6795<<ASSIGN
FPRG_IC
        18**DCL      6881<<ASSIGN   6882>>ASSIGN   6897>>ASSIGN   6903<>CALL
FPT$DRTN
       129**DCL      6821<>CALL
FPT$DRTN.FPRG_FID_
       130**DCL      6819<<ASSIGN   6828<<ASSIGN   6833<<ASSIGN
FPT$DRTN.V.ALIB_FD#
       137**DCL      6818<<ASSIGN   6826<<ASSIGN   6831<<ASSIGN
FPT$DRTN.V.FPRG_DCB#
       140**DCL      6820<<ASSIGN   6827<<ASSIGN   6832<<ASSIGN
FPT$DRTN.V.IR#
       131**DCL       131--REDEF
GD$MSG
      5190**DCL      6909<<ASSIGN
GD$MSG.BRKRQS.IF$CONST.SIZE
      5241**DCL      5241--REDEF
GD$MSG.BRKRQS.IF$CONST.TEXT
      5241**DCL      5242--REDEF    5242--REDEF    5243--REDEF    5244--REDEF
GD$MSG.BRKRSP.ADR$
      5254**DCL      6861>>IF       6881>>ASSIGN   6904>>IF
GD$MSG.BRKRSP.BRK#
      5255**DCL      5255--REDEF    6861>>IF       6890>>ASSIGN   6896>>ASSIGN   6907>>IF       6921>>IF
GD$MSG.BRKRSP.DATA
      5256**DCL      6888>>ASSIGN
GD$MSG.BRKRSP.DATA_SIZE
PL6.E3A0      #002=DFA$SETUP_FPRG File=DFA$FPRG.:E05TSI                          TUE 07/29/97 14:32 Page:93
      5256**DCL      6886>>ASSIGN   6887>>DOINDEX
GD$MSG.BRKRSP.MBU
      5260**DCL      6895>>ASSIGN
GD$MSG.BRKRSP.SHARED
      5260**DCL      6860>>ASSIGN
GD$MSG.BRKRSP.USER#
      5255**DCL      5255--REDEF    6894>>ASSIGN
GD$MSG.FNC
      5190**DCL      6861>>IF       6865>>IF       6910<<ASSIGN
GD$MSG.LETMEM_D.VALUE.SIZE
      5213**DCL      5213--REDEF
GD$MSG.LETMEM_D.VALUE.TEXT
      5214**DCL      5214--REDEF    5214--REDEF    5215--REDEF    5216--REDEF
GD$MSG.MESSAGE
      5195**DCL      5195--REDEF    5196--REDEF    5196--REDEF    5197--REDEF    5208--REDEF    5221--REDEF
      5226--REDEF    5233--REDEF    5249--REDEF    5254--REDEF    5260--REDEF    5261--REDEF    5290--REDEF
      5292--REDEF    5303--REDEF    5310--REDEF    5322--REDEF
GD$MSG.SUBFB.GOTRAP
      5194**DCL      6911<<ASSIGN
GD$MSG.SUBFB.POSTASSOC
      5194**DCL      6915<<ASSIGN
GD$MSG.SUBFNC
      5190**DCL      5190--REDEF    5194--REDEF
GD$MSG.TSA.I
      5262**DCL      5262--REDEF
GD$MSG.TSA.S
      5264**DCL      5264--REDEF
GD$MSG.USERQS.ASDT$
      5290**DCL      5290--REDEF    5291--REDEF
GD$MSG_HOST.BRKRQS.IF$CONST.SIZE
      5085**DCL      5085--REDEF
GD$MSG_HOST.BRKRQS.IF$CONST.TEXT
      5085**DCL      5086--REDEF    5086--REDEF    5087--REDEF    5088--REDEF
GD$MSG_HOST.BRKRSP.BRK#
      5099**DCL      5099--REDEF
GD$MSG_HOST.BRKRSP.ERRCODE
PL6.E3A0      #002=DFA$SETUP_FPRG File=DFA$FPRG.:E05TSI                          TUE 07/29/97 14:32 Page:94
      5100**DCL      6893>>ASSIGN
GD$MSG_HOST.BRKRSP.USER#
      5099**DCL      5099--REDEF
GD$MSG_HOST.LETMEM_D.VALUE.SIZE
      5057**DCL      5057--REDEF
GD$MSG_HOST.LETMEM_D.VALUE.TEXT
      5058**DCL      5058--REDEF    5058--REDEF    5059--REDEF    5060--REDEF
GD$MSG_HOST.MESSAGE
      5039**DCL      5039--REDEF    5040--REDEF    5040--REDEF    5041--REDEF    5052--REDEF    5065--REDEF
      5070--REDEF    5077--REDEF    5093--REDEF    5098--REDEF    5104--REDEF    5105--REDEF    5134--REDEF
      5136--REDEF    5147--REDEF    5154--REDEF    5166--REDEF
GD$MSG_HOST.SUBFNC
      5034**DCL      5034--REDEF    5038--REDEF
GD$MSG_HOST.TSA.I
      5106**DCL      5106--REDEF
GD$MSG_HOST.TSA.S
      5108**DCL      5108--REDEF
GD$MSG_HOST.USERQS.ASDT$
      5134**DCL      5134--REDEF    5135--REDEF
I
        21**DCL      6887<<DOINDEX  6888>>ASSIGN   6888>>ASSIGN
M$DRTN
       104**DCL-ENT  6821--CALL
M$SCREECH
        60**DCL-ENT  6873--CALL
NEVER
      6866**LABEL    6872--REMEMBR  6873--CALLALT
OPDCBNO
        20**DCL      6778<<ASSIGN   6779--ASSIGN
PRES
        10**DCL         7--PROC     6776--IF       6783>>ASSIGN
PRES_SIZE
        11**DCL         7--PROC     6784>>ASSIGN
PXDELTA
        12**DCL         7--PROC     6751--IF       6753>>ASSIGN
READ
PL6.E3A0      #002=DFA$SETUP_FPRG File=DFA$FPRG.:E05TSI                          TUE 07/29/97 14:32 Page:95
      6845**LABEL    6918--GOTO
RES
        16**DCL      6779<<ASSIGN   6783<<ASSIGN   6802>>ASSIGN   6804>>ASSIGN
RES_SIZE
        17**DCL      6780<<ASSIGN   6784<<ASSIGN   6803>>ASSIGN   6805>>ASSIGN
SET_SCHEMA
      6811**LABEL    6757--GOTO
SNAP_MESSAGE
       161**DCL      6873<>CALL
S_D.BRKRSP_ERRCODE
      2574**DCL      6893<<ASSIGN
S_D.CURRENT_CHANNEL
      2687**DCL      2689--REDEF
S_D.CURRENT_FPRG_CONTEXT$
      1887**DCL      6756>>ASSIGN   6786<<ASSIGN   6845<>CALL     6917<>CALL
S_D.DEBUG
      2342**DCL      6853>>IF
S_D.DEBUGA
      1839**DCL      1841--REDEF    6850>>IF
S_D.DEBUG_CMD
      2259**DCL      6899>>IF
S_D.DRTN$
      2292**DCL      6818>>ASSIGN   6819>>ASSIGN   6820>>ASSIGN   6821>>CALL     6826>>ASSIGN   6827>>ASSIGN
      6828>>ASSIGN   6831>>ASSIGN   6832>>ASSIGN   6833>>ASSIGN
S_D.EIS
      2797**DCL      2826--REDEF
S_D.ERROR
      1768**DCL      6867<<ASSIGN   6875<<ASSIGN   6877<<ASSIGN
S_D.FAULT
      1788**DCL      6890<<ASSIGN   6891>>IF       6896<<ASSIGN
S_D.FIRST_TIME
      2780**DCL      6902<<ASSIGN
S_D.FPRG_CONTEXT$
      1879**DCL      6806>>ASSIGN   6807<<ASSIGN
S_D.FPRG_CONTEXT_AVAIL$
      1889**DCL      6763>>IF       6765>>ASSIGN   6766<<ASSIGN   6824>>ASSIGN   6825<<ASSIGN
PL6.E3A0      #002=DFA$SETUP_FPRG File=DFA$FPRG.:E05TSI                          TUE 07/29/97 14:32 Page:96
S_D.FPRG_CONTEXT_END$
      1881**DCL      6759>>IF       6761<<ASSIGN   6773>>ASSIGN   6774<<ASSIGN
S_D.HOST_MESSAGE_BUF_REMOTE
      2730**DCL      2731--REDEF    2745--REDEF
S_D.INTERPRETIVE
      2584**DCL      6907>>IF
S_D.JDE
      2344**DCL      2345--REDEF
S_D.L$.VALUE
      1897**DCL      1903--REDEF    1911--REDEF    1914--REDEF    1917--REDEF    1920--REDEF
S_D.L$.VALUE.L
      1898**DCL      1899--REDEF    1900--REDEF
S_D.L6_MESSAGE_BUF
      2751**DCL      2753--REDEF
S_D.LMDCB
      2417**DCL      6811--ASSIGN
S_D.MBU
      2580**DCL      6895<<ASSIGN
S_D.MOD_L6.ADDRESS
      2860**DCL      6882<<ASSIGN
S_D.MOD_L6.DESC#
      2862**DCL      6884<<ASSIGN
S_D.MOD_L6.NOT_IS
      2863**DCL      6885<<ASSIGN
S_D.MOD_L6.SEG
      2861**DCL      6883<<ASSIGN
S_D.MOD_L6.VALUE.OPS
      2866**DCL      6888<<ASSIGN
S_D.MOD_L6.VALUE.SIZE
      2865**DCL      6886<<ASSIGN
S_D.NODEFS4
      2835**DCL      6788<<ASSIGN
S_D.OPDCBNO
      2770**DCL      6778>>ASSIGN
S_D.OUTPUT
      2717**DCL      2719--REDEF
PL6.E3A0      #002=DFA$SETUP_FPRG File=DFA$FPRG.:E05TSI                          TUE 07/29/97 14:32 Page:97
S_D.POST_ASSOC
      2795**DCL      6912>>IF       6914<<ASSIGN
S_D.PROMPT_SIZE
      2513**DCL      6856<<ASSIGN
S_D.REMOTE_MSG.FNCC
      2736**DCL      2737--REDEF
S_D.REMOTE_MSG.STXC
      2732**DCL      2733--REDEF
S_D.REMOTE_MSG.SUBFNCC
      2740**DCL      2741--REDEF
S_D.SCREECH_IC
      2588**DCL      6872<<REMEMBR
S_D.SV
      1796**DCL      1817--REDEF
S_D.USERNO
      2576**DCL      6894<<ASSIGN
S_D$
      3048**DCL      1744--IMP-PTR  6756>>ASSIGN   6759>>IF       6761>>ASSIGN   6763>>IF       6765>>ASSIGN
      6766>>ASSIGN   6773>>ASSIGN   6774>>ASSIGN   6778>>ASSIGN   6786>>ASSIGN   6788>>ASSIGN   6806>>ASSIGN
      6807>>ASSIGN   6811>>ASSIGN   6818>>ASSIGN   6819>>ASSIGN   6820>>ASSIGN   6821>>CALL     6824>>ASSIGN
      6825>>ASSIGN   6826>>ASSIGN   6827>>ASSIGN   6828>>ASSIGN   6831>>ASSIGN   6832>>ASSIGN   6833>>ASSIGN
      6845>>CALL     6850>>IF       6853>>IF       6856>>ASSIGN   6867>>ASSIGN   6872>>REMEMBR  6875>>ASSIGN
      6877>>ASSIGN   6882>>ASSIGN   6883>>ASSIGN   6884>>ASSIGN   6885>>ASSIGN   6886>>ASSIGN   6888>>ASSIGN
      6890>>ASSIGN   6891>>IF       6893>>ASSIGN   6894>>ASSIGN   6895>>ASSIGN   6896>>ASSIGN   6899>>IF
      6902>>ASSIGN   6907>>IF       6912>>IF       6914>>ASSIGN   6917>>CALL
S_D_HOST_MESSAGE$
      3084**DCL      5034--IMP-PTR  6893>>ASSIGN
S_D_L6_MESSAGE$
      3085**DCL      5190--IMP-PTR  6860>>ASSIGN   6861>>IF       6861>>IF       6861>>IF       6865>>IF
      6881>>ASSIGN   6886>>ASSIGN   6887>>DOINDEX  6888>>ASSIGN   6890>>ASSIGN   6894>>ASSIGN   6895>>ASSIGN
      6896>>ASSIGN   6904>>IF       6907>>IF       6909>>ASSIGN   6910>>ASSIGN   6911>>ASSIGN   6915>>ASSIGN
      6921>>IF
VLR_FPRG_FID
       147**DCL      6819--ASSIGN
VLR_FPRG_FID.ACCT
       147**DCL      6837>>ASSIGN
PL6.E3A0      #002=DFA$SETUP_FPRG File=DFA$FPRG.:E05TSI                          TUE 07/29/97 14:32 Page:98
VLR_FPRG_FID.MODTIME
       147**DCL      6840>>ASSIGN
VLR_FPRG_FID.NAME.L
       147**DCL      6835>>ASSIGN
VLR_FPRG_FID.NAME.TEXT
       147**DCL      6836>>ASSIGN
VLR_FPRG_FID.PASS
       147**DCL      6838>>ASSIGN
VLR_FPRG_FID.PSN
       147**DCL      6839>>ASSIGN
XDELTA
        22**DCL      6752<<ASSIGN   6753<<ASSIGN   6789>>IF       6809>>IF
PL6.E3A0      #002=DFA$SETUP_FPRG File=DFA$FPRG.:E05TSI                          TUE 07/29/97 14:32 Page:99
              *** CROSS REFERENCE LISTING ***
    **     DENOTES     IDENTIFIER DEFINITION
    <<                 IDENTIFIER'S VALUE SET
    >>                 IDENTIFIER'S VALUE USED
    <>                 IDENTIFIER SET AND/OR USED
    --                 IDENTIFIER REFERENCED
PL6.E3A0      #002=DFA$SETUP_FPRG File=DFA$FPRG.:E05TSI                          TUE 07/29/97 14:32 Page:100
              MINI UREF LISTING

DFA$SETUP_FPRG       7**PROC
M$ACCT      63**DCL-ENT
M$ACTIVATE      66**DCL-ENT
M$ALIB      59**DCL-ENT
M$ASUSER      61**DCL-ENT
M$ATTACH      68**DCL-ENT
M$BADPP      86**DCL-ENT
M$CGCTL      67**DCL-ENT
M$CGINFO      67**DCL-ENT
M$CHECK      48**DCL-ENT
M$CHGUNIT     106**DCL-ENT
M$CLOSE      46**DCL-ENT
M$CLRSTK     104**DCL-ENT
M$CMDVAR     115**DCL-ENT
M$CONFIG      76**DCL-ENT
M$CORRES      51**DCL-ENT
M$CPEXIT      60**DCL-ENT
M$CVM      84**DCL-ENT
M$CVOL      49**DCL-ENT
M$DCLFLD      76**DCL-ENT
M$DEACTIVATE      66**DCL-ENT
M$DELREC      48**DCL-ENT
M$DEQ     113**DCL-ENT
M$DETACH      68**DCL-ENT
M$DEVICE      50**DCL-ENT
M$DISPLAY     113**DCL-ENT
M$DISPRES      53**DCL-ENT
M$DLIB      59**DCL-ENT
M$DRIBBLE      76**DCL-ENT
M$DSUSER      61**DCL-ENT
M$ENQ     112**DCL-ENT
M$EOM      71**DCL-ENT
PL6.E3A0      #002=DFA$SETUP_FPRG File=DFA$FPRG.:E05TSI                          TUE 07/29/97 14:32 Page:101
M$ERASE      77**DCL-ENT
M$ERR      58**DCL-ENT
M$ERRMSG     109**DCL-ENT
M$EVENT     101**DCL-ENT
M$EXHUME     110**DCL-ENT
M$EXIT      58**DCL-ENT
M$EXTEND      50**DCL-ENT
M$FDP      82**DCL-ENT
M$FDS      81**DCL-ENT
M$FEBOOT      74**DCL-ENT
M$FECTL      75**DCL-ENT
M$FEDUMP      74**DCL-ENT
M$FID     109**DCL-ENT
M$FINDPROC      63**DCL-ENT
M$FSUSER      61**DCL-ENT
M$FVP      83**DCL-ENT
M$FWCG      67**DCL-ENT
M$GBPL      87**DCL-ENT
M$GDDL      83**DCL-ENT
M$GDP      82**DCL-ENT
M$GDS      81**DCL-ENT
M$GETDCB      52**DCL-ENT
M$GETMOUSE      92**DCL-ENT
M$GETPM      93**DCL-ENT
M$GJOB     111**DCL-ENT
M$GLINEATTR      71**DCL-ENT
M$GOODPP      86**DCL-ENT
M$GPLATEN      79**DCL-ENT
M$GPROMPT      78**DCL-ENT
M$GTRMATTR      72**DCL-ENT
M$GTRMCTL      70**DCL-ENT
M$GTRMTAB      73**DCL-ENT
M$GVP      82**DCL-ENT
M$HELP     109**DCL-ENT
M$INT     101**DCL-ENT
M$INTRTN      62**DCL-ENT
PL6.E3A0      #002=DFA$SETUP_FPRG File=DFA$FPRG.:E05TSI                          TUE 07/29/97 14:32 Page:102
M$IOQ      97**DCL-ENT
M$JOBSTATS     111**DCL-ENT
M$KEYIN      51**DCL-ENT
M$LDEV      46**DCL-ENT
M$LDTRC      59**DCL-ENT
M$LIMIT      52**DCL-ENT
M$LINES      51**DCL-ENT
M$LINK      58**DCL-ENT
M$MADMUCK      54**DCL-ENT
M$MAKUSER      85**DCL-ENT
M$MBS      53**DCL-ENT
M$MDFFLD      77**DCL-ENT
M$MERC     102**DCL-ENT
M$MERCS     103**DCL-ENT
M$MIRROR      97**DCL-ENT
M$MONINFO     114**DCL-ENT
M$MPL      87**DCL-ENT
M$NODEINFO      78**DCL-ENT
M$NXTUSR     112**DCL-ENT
M$OCMSG     110**DCL-ENT
M$OLAY      58**DCL-ENT
M$OPEN      46**DCL-ENT
M$PAS      87**DCL-ENT
M$PATHCON     110**DCL-ENT
M$PDS      81**DCL-ENT
M$PFIL      48**DCL-ENT
M$PLATEN      72**DCL-ENT
M$PRECORD      50**DCL-ENT
M$PROCNAME      63**DCL-ENT
M$PROFILE      74**DCL-ENT
M$PROMPT      70**DCL-ENT
M$RACST      54**DCL-ENT
M$RDSYSLOG      95**DCL-ENT
M$READ      47**DCL-ENT
M$RELDCB      52**DCL-ENT
M$RELRES      53**DCL-ENT
PL6.E3A0      #002=DFA$SETUP_FPRG File=DFA$FPRG.:E05TSI                          TUE 07/29/97 14:32 Page:103
M$RELSTARF      55**DCL-ENT
M$REM      55**DCL-ENT
M$RENV     102**DCL-ENT
M$REQUIRE      54**DCL-ENT
M$RETRY     103**DCL-ENT
M$RETRYS     103**DCL-ENT
M$REW      49**DCL-ENT
M$RLSFLD      77**DCL-ENT
M$RPRIV     105**DCL-ENT
M$RSPP      84**DCL-ENT
M$RSWITCH     106**DCL-ENT
M$RUE     112**DCL-ENT
M$SAD      85**DCL-ENT
M$SAVE      61**DCL-ENT
M$SCON      62**DCL-ENT
M$SENV     102**DCL-ENT
M$SETFMA      46**DCL-ENT
M$SETFP      75**DCL-ENT
M$SINPUT      73**DCL-ENT
M$SLCFLD      78**DCL-ENT
M$SMOUSE      92**DCL-ENT
M$SMPRT      84**DCL-ENT
M$SPRIV     105**DCL-ENT
M$SSC      85**DCL-ENT
M$SSWITCH     105**DCL-ENT
M$STATE     114**DCL-ENT
M$STD      86**DCL-ENT
M$STIMER     100**DCL-ENT
M$STLPP      83**DCL-ENT
M$STRAP     100**DCL-ENT
M$STRMATTR      72**DCL-ENT
M$STRMCTL      70**DCL-ENT
M$STRMTAB      73**DCL-ENT
M$SYMBIO     111**DCL-ENT
M$SYSCON      97**DCL-ENT
M$SYSID     115**DCL-ENT
PL6.E3A0      #002=DFA$SETUP_FPRG File=DFA$FPRG.:E05TSI                          TUE 07/29/97 14:32 Page:104
M$TDCLOSE      96**DCL-ENT
M$TDIO      96**DCL-ENT
M$TDOPEN      95**DCL-ENT
M$TDREQCPU      96**DCL-ENT
M$TEMPWROC      90**DCL-ENT
M$TIME     113**DCL-ENT
M$TRAP     100**DCL-ENT
M$TRMISC      75**DCL-ENT
M$TRMPRG      71**DCL-ENT
M$TRTN     104**DCL-ENT
M$TRUNC      47**DCL-ENT
M$TTIMER     100**DCL-ENT
M$UC      70**DCL
M$UMPL      87**DCL-ENT
M$UNFID     109**DCL-ENT
M$UNLATCH      66**DCL-ENT
M$UNSHARE      63**DCL-ENT
M$USRFIELD     106**DCL-ENT
M$VIRTUAL      81**DCL-ENT
M$WAIT     104**DCL-ENT
M$WEOF      49**DCL-ENT
M$WRITE      47**DCL-ENT
M$WRSYSLOG      95**DCL-ENT
M$XCON     101**DCL-ENT
M$XCONRTN      62**DCL-ENT
M$XEQTIME     114**DCL-ENT
M$XFLUSH      55**DCL-ENT
M$XMOUSE      92**DCL-ENT
M$XXX      58**DCL-ENT
M$YC      60**DCL-ENT
SC_MESSAGE     179**DCL
S_D_ACCESS$    3063**DCL
S_D_ANLZ$    3065**DCL
S_D_ASTACKOFF$    3064**DCL
S_D_BREAK$    3066**DCL
S_D_DO_SCAN$    3067**DCL
PL6.E3A0      #002=DFA$SETUP_FPRG File=DFA$FPRG.:E05TSI                          TUE 07/29/97 14:32 Page:105
S_D_ERROR$    3068**DCL
S_D_FAULTCMD$$    3069**DCL
S_D_FAULTINS$$    3070**DCL
S_D_GOIC$    3071**DCL
S_D_GO_MODE$    3072**DCL
S_D_HW_PTB_UNITS$    3088**DCL
S_D_HW_RES_MEM$    3086**DCL
S_D_HW_WSQ0PT$    3087**DCL
S_D_IPRFLT$    3074**DCL
S_D_IXFIX$    3073**DCL
S_D_REM_ACCESS$    3075**DCL
S_D_REM_DISKBOOT$    3077**DCL
S_D_REM_DO_SCAN$    3076**DCL
S_D_RETURNN$    3078**DCL
S_D_SAD$    3079**DCL
S_D_SAVEIC$    3080**DCL
S_D_SEG$    3062**DCL
S_D_TCB$$    3081**DCL
S_D_UREG$$    3082**DCL
S_D_USS$$    3083**DCL
TAKE_SNAP    6866**LABEL
TFPRG$      19**DCL

PL6.E3A0      #003=DFA$GET_FPRG_DCB File=DFA$FPRG.:E05TSI                        TUE 07/29/97 14:32 Page:106
      454        1        /*T***********************************************************/
      455        2        /*T*                                                         */
      456        3        /*T* Copyright (c) Bull HN Information Systems Inc., 1997    */
      457        4        /*T*                                                         */
      458        5        /*T***********************************************************/
      459        6        DFA$GET_FPRG_DCB: PROC(DCBNO);
      460        7        /**/
      461        8    1   DCL DCBNO UBIN;
      462        9        /* Includes */
      463       10        %INCLUDE CP_6;
      464       91        %FPT_GETDCB(FPTN=FPT_GETDCB,STCLASS=SYMREF);
      465      106        %FPT_GETDCB(FPTN=FPTGETDCB,
      466      107                    STCLASS=);
      467      122        %INCLUDE XUH_MACRO_C;
      468      206        %INCLUDE DD_SD_M;
      469     1542        %S_D;
      470     2860        %INCLUDE DD_ERR_C;
      471     3257        /* Entry DCLs */
      472     3258    1   DCL DDE$ERROR ENTRY;
      473     3259    1   DCL DUA$EXITDELTA ENTRY;
      474     3260                                                /* Get a DCB */
      475     3261    1        FPTGETDCB = FPT_GETDCB;
      476     3262    1        FPTGETDCB.V_ = VECTOR(FPTGETDCB.V);
      477     3263    1        FPTGETDCB.DCBNUM_ = VECTOR(DCBNO);
      478     3264    1        CALL M$GETDCB (FPTGETDCB)
      479     3265    2        WHENALTRETURN DO;
      480     3266    2             S_D.ERROR = E@NODBGDCB;       /* E@NODBGDCB */
      481     3267    2             CALL DDE$ERROR;
      482     3268    2             CALL DUA$EXITDELTA;
      483     3269    2           END;
      484     3270    1        RETURN;
      485     3271    1   END DFA$GET_FPRG_DCB;
      486     3272        %EOD;

PL6.E3A0      #003=DFA$GET_FPRG_DCB File=DFA$FPRG.:E05TSI                        TUE 07/29/97 14:32 Page:107
--  Include file information  --

   DD_ERR_C.:E05TOU  is referenced.
   DD_SD_M.:E05TOU  is referenced.
   XUH_MACRO_C.:E05TOU  is referenced.
   CP_6.:E05TOU  cannot be made into a system file and is referenced.
   B$JIT_C.:E05TOU  was found in the system file and is never referenced.
   CP_6_C.:E05TOU  was found in the system file and is referenced.
      No diagnostics issued in procedure DFA$GET_FPRG_DCB.

   Procedure DFA$GET_FPRG_DCB requires 28 words for executable code.
   Procedure DFA$GET_FPRG_DCB requires 14 words of local(AUTO) storage.

PL6.E3A0      #003=DFA$GET_FPRG_DCB File=DFA$FPRG.:E05TSI                        TUE 07/29/97 14:32 Page:108

 Object Unit name= DFA$GET_FPRG_DCB                           File name= DFA$FPRG.:E05TOU
 UTS= JUL 29 '97 14:32:38.84 TUE                              Compiler= PL-6/E31         Sev=      00
 SharedLib= :SHARED_SYSTEM                                    Alt SharedLib=


    ****  Control sections  ****

 Sect   Type Bound  Init  Size OctSiz  Section name(segment info)
    0   DCB   even  none     0      0  M$UC
    1   Proc  even  none    28     34  DFA$GET_FPRG_DCB
    2  RoData even  none     1      1  DFA$GET_FPRG_DCB

    ****  Entry defs  ****

                              Check   Calling
                             calling  sequence
  Sect OctLoc Primary Altret sequence   type   Parms  Name
     1      0   yes            yes      Std        1  DFA$GET_FPRG_DCB

  ****  Entry refs  ****

         Check        Calling
        calling       sequence
Altret sequence SRef   type   Args  Name
         yes           Std       0 DDE$ERROR
         yes           Std       0 DUA$EXITDELTA
                       nStd      0 X66_AUTO_1
                       Std       0 B_CONSPOOL_D
                       nStd      0 X66_ARET

  ****  Data refs  ****

  Flags:  r = read only, s = secondary
Flgs Name                             Flgs Name                             Flgs Name
     M$UC                                  FPT_GETDCB                       r    S_D$
     B_VECTNIL
PL6.E3A0      #003=DFA$GET_FPRG_DCB File=DFA$FPRG.:E05TSI                        TUE 07/29/97 14:32 Page:109


      454        1        /*T***********************************************************/
      455        2        /*T*                                                         */
      456        3        /*T* Copyright (c) Bull HN Information Systems Inc., 1997    */
      457        4        /*T*                                                         */
      458        5        /*T***********************************************************/
      459        6        DFA$GET_FPRG_DCB: PROC(DCBNO);

      6  1 000000   000000 700200 xent  DFA$GET_FPR* TSX0  ! X66_AUTO_1
         1 000001   000016 000001                    ZERO    14,1

      460        7        /**/
      461        8    1   DCL DCBNO UBIN;
      462        9        /* Includes */
      463       10        %INCLUDE CP_6;
      464       91        %FPT_GETDCB(FPTN=FPT_GETDCB,STCLASS=SYMREF);
      465      106        %FPT_GETDCB(FPTN=FPTGETDCB,
      466      107                    STCLASS=);
      467      122        %INCLUDE XUH_MACRO_C;
      468      206        %INCLUDE DD_SD_M;
      469     1542        %S_D;
      470     2860        %INCLUDE DD_ERR_C;
      471     3257        /* Entry DCLs */
      472     3258    1   DCL DDE$ERROR ENTRY;
      473     3259    1   DCL DUA$EXITDELTA ENTRY;
      474     3260                                                /* Get a DCB */
      475     3261    1        FPTGETDCB = FPT_GETDCB;

   3261  1 000002   000100 100400                    MLR     fill='000'O
         1 000003   000000 000040 xsym               ADSC9   FPT_GETDCB               cn=0,n=32
         1 000004   200004 000040                    ADSC9   FPTGETDCB,,AUTO          cn=0,n=32

      476     3262    1        FPTGETDCB.V_ = VECTOR(FPTGETDCB.V);

   3262  1 000005   000000 235000 2                  LDA     0
         1 000006   200014 452500                    STP2    FPTGETDCB+8,,AUTO
         1 000007   200014 236100                    LDQ     FPTGETDCB+8,,AUTO
PL6.E3A0      #003=DFA$GET_FPRG_DCB File=DFA$FPRG.:E05TSI                        TUE 07/29/97 14:32 Page:110
         1 000010   000012 036003                    ADLQ    10,DU
         1 000011   200004 757100                    STAQ    FPTGETDCB,,AUTO

      477     3263    1        FPTGETDCB.DCBNUM_ = VECTOR(DCBNO);

   3263  1 000012   777640 235007                    LDA     -96,DL
         1 000013   200003 236100                    LDQ     @DCBNO,,AUTO
         1 000014   200010 757100                    STAQ    FPTGETDCB+4,,AUTO

      478     3264    1        CALL M$GETDCB (FPTGETDCB)

   3264  1 000015   200004 630500                    EPPR0   FPTGETDCB,,AUTO
         1 000016   460002 713400                    CLIMB   alt,+24578
         1 000017   401000 401760                    pmme    nvectors=3
         1 000020   000022 702000 1                  TSX2    s:3266
         1 000021   000033 710000 1                  TRA     s:3270

      479     3265    2        WHENALTRETURN DO;

      480     3266    2             S_D.ERROR = E@NODBGDCB;       /* E@NODBGDCB */

   3266  1 000022   000424 235007                    LDA     276,DL
         1 000023   000000 470400 xsym               LDP0    S_D$
         1 000024   000013 755100                    STA     11,,PR0

      481     3267    2             CALL DDE$ERROR;

   3267  1 000025   000002 631400 xsym               EPPR1   B_VECTNIL+2
         1 000026   000000 701000 xent               TSX1    DDE$ERROR
         1 000027   000000 011000                    NOP     0

      482     3268    2             CALL DUA$EXITDELTA;

   3268  1 000030   000002 631400 xsym               EPPR1   B_VECTNIL+2
         1 000031   000000 701000 xent               TSX1    DUA$EXITDELTA
         1 000032   000000 011000                    NOP     0

PL6.E3A0      #003=DFA$GET_FPRG_DCB File=DFA$FPRG.:E05TSI                        TUE 07/29/97 14:32 Page:111
      483     3269    2           END;

      484     3270    1        RETURN;

   3270  1 000033   000000 702200 xent               TSX2  ! X66_ARET

(unnamed)
 Sect OctLoc
   2     000   000001 777640                                                    ....
      485     3271    1   END DFA$GET_FPRG_DCB;
      486     3272        %EOD;

PL6.E3A0      #003=DFA$GET_FPRG_DCB File=DFA$FPRG.:E05TSI                        TUE 07/29/97 14:32 Page:112
--  Include file information  --

   DD_ERR_C.:E05TOU  is referenced.
   DD_SD_M.:E05TOU  is referenced.
   XUH_MACRO_C.:E05TOU  is referenced.
   CP_6.:E05TOU  cannot be made into a system file and is referenced.
   B$JIT_C.:E05TOU  was found in the system file and is never referenced.
   CP_6_C.:E05TOU  was found in the system file and is referenced.
      No diagnostics issued in procedure DFA$GET_FPRG_DCB.

   Procedure DFA$GET_FPRG_DCB requires 28 words for executable code.
   Procedure DFA$GET_FPRG_DCB requires 14 words of local(AUTO) storage.
PL6.E3A0      #003=DFA$GET_FPRG_DCB File=DFA$FPRG.:E05TSI                        TUE 07/29/97 14:32 Page:113
          *** CROSS REFERENCE LISTING ***
**     DENOTES     IDENTIFIER DEFINITION
<<                 IDENTIFIER'S VALUE SET
>>                 IDENTIFIER'S VALUE USED
<>                 IDENTIFIER SET AND/OR USED
--                 IDENTIFIER REFERENCED
PL6.E3A0      #003=DFA$GET_FPRG_DCB File=DFA$FPRG.:E05TSI                        TUE 07/29/97 14:32 Page:114
          MINI XREF LISTING

DCBNO
         8**DCL         6--PROC     3263--ASSIGN
DDE$ERROR
      3258**DCL-ENT  3267--CALL
DUA$EXITDELTA
      3259**DCL-ENT  3268--CALL
FPTGETDCB
       118**DCL      3261<<ASSIGN   3264<>CALL
FPTGETDCB.DCBNUM_
       118**DCL      3263<<ASSIGN
FPTGETDCB.V
       119**DCL      3262--ASSIGN
FPTGETDCB.V_
       118**DCL      3262<<ASSIGN
FPT_GETDCB
       102**DCL      3261>>ASSIGN
M$GETDCB
        25**DCL-ENT  3264--CALL
S_D.CURRENT_CHANNEL
      2494**DCL      2496--REDEF
S_D.DEBUGA
      1646**DCL      1648--REDEF
S_D.EIS
      2604**DCL      2633--REDEF
S_D.ERROR
      1575**DCL      3266<<ASSIGN
S_D.HOST_MESSAGE_BUF_REMOTE
      2537**DCL      2538--REDEF    2552--REDEF
S_D.JDE
      2151**DCL      2152--REDEF
S_D.L$.VALUE
      1704**DCL      1710--REDEF    1718--REDEF    1721--REDEF    1724--REDEF    1727--REDEF
PL6.E3A0      #003=DFA$GET_FPRG_DCB File=DFA$FPRG.:E05TSI                        TUE 07/29/97 14:32 Page:115
S_D.L$.VALUE.L
      1705**DCL      1706--REDEF    1707--REDEF
S_D.L6_MESSAGE_BUF
      2558**DCL      2560--REDEF
S_D.OUTPUT
      2524**DCL      2526--REDEF
S_D.REMOTE_MSG.FNCC
      2543**DCL      2544--REDEF
S_D.REMOTE_MSG.STXC
      2539**DCL      2540--REDEF
S_D.REMOTE_MSG.SUBFNCC
      2547**DCL      2548--REDEF
S_D.SV
      1603**DCL      1624--REDEF
S_D$
      2855**DCL      1551--IMP-PTR  3266>>ASSIGN
PL6.E3A0      #003=DFA$GET_FPRG_DCB File=DFA$FPRG.:E05TSI                        TUE 07/29/97 14:32 Page:116
              *** CROSS REFERENCE LISTING ***
    **     DENOTES     IDENTIFIER DEFINITION
    <<                 IDENTIFIER'S VALUE SET
    >>                 IDENTIFIER'S VALUE USED
    <>                 IDENTIFIER SET AND/OR USED
    --                 IDENTIFIER REFERENCED
PL6.E3A0      #003=DFA$GET_FPRG_DCB File=DFA$FPRG.:E05TSI                        TUE 07/29/97 14:32 Page:117
              MINI UREF LISTING

DFA$GET_FPRG_DCB       6**PROC
M$ACCT      36**DCL-ENT
M$ACTIVATE      39**DCL-ENT
M$ALIB      32**DCL-ENT
M$ASUSER      34**DCL-ENT
M$ATTACH      41**DCL-ENT
M$BADPP      59**DCL-ENT
M$CGCTL      40**DCL-ENT
M$CGINFO      40**DCL-ENT
M$CHECK      21**DCL-ENT
M$CHGUNIT      79**DCL-ENT
M$CLOSE      19**DCL-ENT
M$CLRSTK      77**DCL-ENT
M$CMDVAR      88**DCL-ENT
M$CONFIG      49**DCL-ENT
M$CORRES      24**DCL-ENT
M$CPEXIT      33**DCL-ENT
M$CVM      57**DCL-ENT
M$CVOL      22**DCL-ENT
M$DCLFLD      49**DCL-ENT
M$DEACTIVATE      39**DCL-ENT
M$DELREC      21**DCL-ENT
M$DEQ      86**DCL-ENT
M$DETACH      41**DCL-ENT
M$DEVICE      23**DCL-ENT
M$DISPLAY      86**DCL-ENT
M$DISPRES      26**DCL-ENT
M$DLIB      32**DCL-ENT
M$DRIBBLE      49**DCL-ENT
M$DRTN      77**DCL-ENT
M$DSUSER      34**DCL-ENT
M$ENQ      85**DCL-ENT
PL6.E3A0      #003=DFA$GET_FPRG_DCB File=DFA$FPRG.:E05TSI                        TUE 07/29/97 14:32 Page:118
M$EOM      44**DCL-ENT
M$ERASE      50**DCL-ENT
M$ERR      31**DCL-ENT
M$ERRMSG      82**DCL-ENT
M$EVENT      74**DCL-ENT
M$EXHUME      83**DCL-ENT
M$EXIT      31**DCL-ENT
M$EXTEND      23**DCL-ENT
M$FDP      55**DCL-ENT
M$FDS      54**DCL-ENT
M$FEBOOT      47**DCL-ENT
M$FECTL      48**DCL-ENT
M$FEDUMP      47**DCL-ENT
M$FID      82**DCL-ENT
M$FINDPROC      36**DCL-ENT
M$FSUSER      34**DCL-ENT
M$FVP      56**DCL-ENT
M$FWCG      40**DCL-ENT
M$GBPL      60**DCL-ENT
M$GDDL      56**DCL-ENT
M$GDP      55**DCL-ENT
M$GDS      54**DCL-ENT
M$GETMOUSE      65**DCL-ENT
M$GETPM      66**DCL-ENT
M$GJOB      84**DCL-ENT
M$GLINEATTR      44**DCL-ENT
M$GOODPP      59**DCL-ENT
M$GPLATEN      52**DCL-ENT
M$GPROMPT      51**DCL-ENT
M$GTRMATTR      45**DCL-ENT
M$GTRMCTL      43**DCL-ENT
M$GTRMTAB      46**DCL-ENT
M$GVP      55**DCL-ENT
M$HELP      82**DCL-ENT
M$INT      74**DCL-ENT
M$INTRTN      35**DCL-ENT
PL6.E3A0      #003=DFA$GET_FPRG_DCB File=DFA$FPRG.:E05TSI                        TUE 07/29/97 14:32 Page:119
M$IOQ      70**DCL-ENT
M$JOBSTATS      84**DCL-ENT
M$KEYIN      24**DCL-ENT
M$LDEV      19**DCL-ENT
M$LDTRC      32**DCL-ENT
M$LIMIT      25**DCL-ENT
M$LINES      24**DCL-ENT
M$LINK      31**DCL-ENT
M$MADMUCK      27**DCL-ENT
M$MAKUSER      58**DCL-ENT
M$MBS      26**DCL-ENT
M$MDFFLD      50**DCL-ENT
M$MERC      75**DCL-ENT
M$MERCS      76**DCL-ENT
M$MIRROR      70**DCL-ENT
M$MONINFO      87**DCL-ENT
M$MPL      60**DCL-ENT
M$NODEINFO      51**DCL-ENT
M$NXTUSR      85**DCL-ENT
M$OCMSG      83**DCL-ENT
M$OLAY      31**DCL-ENT
M$OPEN      19**DCL-ENT
M$PAS      60**DCL-ENT
M$PATHCON      83**DCL-ENT
M$PDS      54**DCL-ENT
M$PFIL      21**DCL-ENT
M$PLATEN      45**DCL-ENT
M$PRECORD      23**DCL-ENT
M$PROCNAME      36**DCL-ENT
M$PROFILE      47**DCL-ENT
M$PROMPT      43**DCL-ENT
M$RACST      27**DCL-ENT
M$RDSYSLOG      68**DCL-ENT
M$READ      20**DCL-ENT
M$RELDCB      25**DCL-ENT
M$RELRES      26**DCL-ENT
PL6.E3A0      #003=DFA$GET_FPRG_DCB File=DFA$FPRG.:E05TSI                        TUE 07/29/97 14:32 Page:120
M$RELSTARF      28**DCL-ENT
M$REM      28**DCL-ENT
M$RENV      75**DCL-ENT
M$REQUIRE      27**DCL-ENT
M$RETRY      76**DCL-ENT
M$RETRYS      76**DCL-ENT
M$REW      22**DCL-ENT
M$RLSFLD      50**DCL-ENT
M$RPRIV      78**DCL-ENT
M$RSPP      57**DCL-ENT
M$RSWITCH      79**DCL-ENT
M$RUE      85**DCL-ENT
M$SAD      58**DCL-ENT
M$SAVE      34**DCL-ENT
M$SCON      35**DCL-ENT
M$SCREECH      33**DCL-ENT
M$SENV      75**DCL-ENT
M$SETFMA      19**DCL-ENT
M$SETFP      48**DCL-ENT
M$SINPUT      46**DCL-ENT
M$SLCFLD      51**DCL-ENT
M$SMOUSE      65**DCL-ENT
M$SMPRT      57**DCL-ENT
M$SPRIV      78**DCL-ENT
M$SSC      58**DCL-ENT
M$SSWITCH      78**DCL-ENT
M$STATE      87**DCL-ENT
M$STD      59**DCL-ENT
M$STIMER      73**DCL-ENT
M$STLPP      56**DCL-ENT
M$STRAP      73**DCL-ENT
M$STRMATTR      45**DCL-ENT
M$STRMCTL      43**DCL-ENT
M$STRMTAB      46**DCL-ENT
M$SYMBIO      84**DCL-ENT
M$SYSCON      70**DCL-ENT
PL6.E3A0      #003=DFA$GET_FPRG_DCB File=DFA$FPRG.:E05TSI                        TUE 07/29/97 14:32 Page:121
M$SYSID      88**DCL-ENT
M$TDCLOSE      69**DCL-ENT
M$TDIO      69**DCL-ENT
M$TDOPEN      68**DCL-ENT
M$TDREQCPU      69**DCL-ENT
M$TEMPWROC      63**DCL-ENT
M$TIME      86**DCL-ENT
M$TRAP      73**DCL-ENT
M$TRMISC      48**DCL-ENT
M$TRMPRG      44**DCL-ENT
M$TRTN      77**DCL-ENT
M$TRUNC      20**DCL-ENT
M$TTIMER      73**DCL-ENT
M$UC      43**DCL
M$UMPL      60**DCL-ENT
M$UNFID      82**DCL-ENT
M$UNLATCH      39**DCL-ENT
M$UNSHARE      36**DCL-ENT
M$USRFIELD      79**DCL-ENT
M$VIRTUAL      54**DCL-ENT
M$WAIT      77**DCL-ENT
M$WEOF      22**DCL-ENT
M$WRITE      20**DCL-ENT
M$WRSYSLOG      68**DCL-ENT
M$XCON      74**DCL-ENT
M$XCONRTN      35**DCL-ENT
M$XEQTIME      87**DCL-ENT
M$XFLUSH      28**DCL-ENT
M$XMOUSE      65**DCL-ENT
M$XXX      31**DCL-ENT
M$YC      33**DCL-ENT

PL6.E3A0      #004=DFA$STOP_FPRGS File=DFA$FPRG.:E05TSI                          TUE 07/29/97 14:32 Page:122
      487        1        /*T***********************************************************/
      488        2        /*T*                                                         */
      489        3        /*T* Copyright (c) Bull HN Information Systems Inc., 1997    */
      490        4        /*T*                                                         */
      491        5        /*T***********************************************************/
      492        6        DFA$STOP_FPRGS: PROC(PNOOUTPUT,P$) ALTRET;
      493        7        /*F* NAME: DFA$STOP_FPRGS
      494        8             PURPOSE: Stop all FPRGS */
      495        9        /* Parameters */
      496       10    1   DCL PNOOUTPUT BIT(1) ALIGNED;
      497       11    1   DCL P$ PTR;
      498       12        /* Local Auto */
      499       13    1   DCL NOOUTPUT BIT(1) ALIGNED;
      500       14    1   DCL FIRST_READ BIT(1) ALIGNED;
      501       15    1   DCL TFPRG$ PTR;
      502       16    1   DCL FPRG_IC UBIN;
      503       17    1   DCL FAULT UBIN;
      504       18    1   DCL TEMP$ PTR;
      505       19    1   DCL TEMP1 REDEF TEMP$ UBIN(36) ALIGNED;
      506       20    1   DCL 1 TEMP1B REDEF TEMP$ ALIGNED,
      507       21    1         2 * UBIN(4) UNAL,
      508       22    1         2 B1 UBIN(8) UNAL,
      509       23    1         2 B2 UBIN(8) UNAL,
      510       24    1         2 B3 UBIN(8) UNAL,
      511       25    1         2 B4 UBIN(8) UNAL;
      512       26    1   DCL TEMP2 UBIN(36) ALIGNED;
      513       27    1   DCL 1 TEMP2B REDEF TEMP2 ALIGNED,
      514       28    1         2 * BIT(1) UNAL,
      515       29    1         2 B1 UBIN(8) UNAL,
      516       30    1         2 * BIT(1) UNAL,
      517       31    1         2 B2 UBIN(8) UNAL,
      518       32    1         2 * BIT(1) UNAL,
      519       33    1         2 B3 UBIN(8) UNAL,
      520       34    1         2 * BIT(1) UNAL,
      521       35    1         2 B4 UBIN(8) UNAL;
      522       36        /* Includes and Based Structures */
      523       37        %INCLUDE XUH_MACRO_C;
PL6.E3A0      #004=DFA$STOP_FPRGS File=DFA$FPRG.:E05TSI                          TUE 07/29/97 14:32 Page:123
      524      121        %INCLUDE DD_SD_M;
      525     1457        %S_D;
      526     2775        %S_D_PTRS;
      527     2812        %INCLUDE GD$MSG_M;
      528     2976        %GD$MSG(FPTN=GD$MSG,STCLASS="BASED(S_D_L6_MESSAGE$)",L6=YES,L6PTR="UBIN(32) UNAL");
      529     3132        %GD$MSG(FPTN=GD$MSG_HOST,STCLASS="BASED(S_D_HOST_MESSAGE$)",L6=NO);
      530     3288        %INCLUDE GD_EQUS_E;
      531     3449        %INCLUDE CP_6;
      532     3530        %INCLUDE DU_SCODE_C;
      533     3543        %FPT_SCREECH(FPTN=SNAP_MESSAGE,STCLASS=SYMREF READONLY);
      534     3557        %VLP_SCODE(FPTN=SC_MESSAGE, STCLASS=SYMREF READONLY);
      535     3618        %FPT_DRTN(FPTN=FPT$DRTN, STCLASS=BASED);
      536     3642        %INCLUDE DD$BASED;
      537     4945        %FPRG$CONTEXT;
      538     5008        %INCLUDE DD_SUBS_C;
      539     5279        %INCLUDE DD_ERR_C;
      540     5676        %INCLUDE DF_EQUS_E;
      541     5689        %INCLUDE G_LCP6_E;
      542     5947        /* Entry DCLs */
      543     5948    1   DCL DDE$ERROR ENTRY;
      544     5949    1   DCL DFA$FPRG ENTRY(1);
      545     5950    1   DCL DFA$KILL_FPRG ENTRY(1);
      546     5951    1   DCL DFQ$READ_FD ENTRY(2) ALTRET;
      547     5952    1   DCL DFQ$WRITE_FD ENTRY(1) ALTRET;
      548     5953    1   DCL DFR$REPORT ENTRY(1);
      549     5954    1   DCL DUE$ERRMSG ENTRY;
      550     5955        /**/
      551     5956    1        IF ADDR(PNOOUTPUT) = ADDR(NIL)
      552     5957    1        THEN NOOUTPUT = '0'B;
      553     5958    1        ELSE NOOUTPUT = PNOOUTPUT;
      554     5959    1        FIRST_READ = '1'B;
      555     5960    1        IF ADDR(P$) = ADDR(NIL) THEN
      556     5961    1             TFPRG$ = S_D.FPRG_CONTEXT$;
      557     5962    1        ELSE
      558     5963    1             TFPRG$ = P$;
      559     5964    1        S_D.DRTN$ -> FPT$DRTN.V.WAKE_FD# = '1'B;
      560     5965    2        DO WHILE (TFPRG$ ~= ADDR(NIL));
PL6.E3A0      #004=DFA$STOP_FPRGS File=DFA$FPRG.:E05TSI                          TUE 07/29/97 14:32 Page:124
      561     5966    2             GD$MSG = '0'B;
      562     5967    2             GD$MSG.FNC = %GD#RQSCONTROL;
      563     5968    2             IF TFPRG$ -> FPRG$CONTEXT.STATE = %RUNNING OR
      564     5969    2               TFPRG$ -> FPRG$CONTEXT.XDELTA
      565     5970    3             THEN DO;
      566     5971    3                  IF TFPRG$ -> FPRG$CONTEXT.XDELTA
      567     5972    3                  THEN CALL DFQ$WRITE_FD (TFPRG$) ALTRET(ERR);
      568     5973    4                  ELSE DO;
      569     5974    4                       S_D.DRTN$ -> FPT$DRTN.V.FPRG_DCB# = TFPRG$ -> FPRG$CONTEXT.DCBNO
              5974                                ;
      570     5975    4                       CALL M$DRTN (S_D.DRTN$ -> FPT$DRTN) ALTRET(ERR);
      571     5976    4                     END;
      572     5977    3   REREAD:
      573     5978    3                  TFPRG$ -> FPRG$CONTEXT.STATE = %STOPPED;
      574     5979    3                  IF TFPRG$ -> FPRG$CONTEXT.READ_FD = '1'B
      575     5980    3                  THEN TFPRG$ -> FPRG$CONTEXT.READ_FD = '0'B;
      576     5981    3                  CALL DFQ$READ_FD(TFPRG$, '0'B) ALTRET(ERR);
      577     5982    3                  IF NOOUTPUT THEN GOTO NEXT_ONE;
      578     5983    3                  IF GD$MSG.FNC ~= %FPRG_BRKRSP# AND
      579     5984    3                    GD$MSG.BRKRSP.BRK# ~= (%G_HOST_INT# + (%GD#MAXBRKNUM + 1))
      580     5985    4                  THEN DO;
      581     5986    4                       S_D.DRTN$ -> FPT$DRTN.V.WAKE_FD# = '0'B;
      582     5987    4                       S_D.DRTN$ -> FPT$DRTN.V.FPRG_DCB# = 0;
      583     5988    4                       IF TFPRG$ -> FPRG$CONTEXT.XDELTA AND
      584     5989    4                         GD$MSG.FNC = %GD#RSPBADMSG
      585     5990    5                       THEN DO;
      586     5991    5                            S_D.ERROR = E@BADMSG; /* E@BADMSG */
      587     5992    5                            CALL DDE$ERROR;
      588     5993    5                            ALTRETURN;
      589     5994    5                          END;
      590     5995    4                       IF FIRST_READ
      591     5996    5                       THEN DO;
      592     5997    5                            FIRST_READ = '0'B;
      593     5998    5                            GOTO REREAD;
      594     5999    5                          END;
      595     6000    4                       REMEMBER NEVER IN S_D.SCREECH_IC;
      596     6001    4                       CALL M$SCREECH (SNAP_MESSAGE) ALTRET(NEVER);
PL6.E3A0      #004=DFA$STOP_FPRGS File=DFA$FPRG.:E05TSI                          TUE 07/29/97 14:32 Page:125
      597     6002    4   NEVER:              ;
      598     6003    4                       S_D.ERROR = E@BADMESSAGE; /* E@BADMESSAGE */
      599     6004    4                       CALL DDE$ERROR;
      600     6005    4                       S_D.ERROR = E@DELBUG; /* E@DELBUG */
      601     6006    4                       CALL DDE$ERROR;
      602     6007    4                       ALTRETURN;
      603     6008    4                     END;
      604     6009    3                  IF TFPRG$ -> FPRG$CONTEXT.XDELTA
      605     6010    4                  THEN DO;
      606     6011    4                       TEMP1 = BITBIN(GD$MSG.BRKRSP.ERRCODE);
      607     6012    4                       TEMP2B.B1 = TEMP1B.B1;
      608     6013    4                       TEMP2B.B2 = TEMP1B.B2;
      609     6014    4                       TEMP2B.B3 = TEMP1B.B3;
      610     6015    4                       TEMP2B.B4 = TEMP1B.B4;
      611     6016    4                       S_D.BRKRSP_ERRCODE = TEMP2;
      612     6017    4                     END;
      613     6018    3                  ELSE S_D.BRKRSP_ERRCODE = BITBIN(GD$MSG_HOST.BRKRSP.ERRCODE);
      614     6019    3                  S_D.USERNO = GD$MSG.BRKRSP.USER#;
      615     6020    3                  S_D.MBU = GD$MSG.BRKRSP.MBU;
      616     6021    3                  FPRG_IC = GD$MSG.BRKRSP.ADR$;
      617     6022    3                  S_D.FAULT = GD$MSG.BRKRSP.BRK# - (%GD#MAXBRKNUM + 1);
      618     6023    3                  IF S_D.FAULT = %G_FPRG_EXIT#
      619     6024    3                  THEN TFPRG$ -> FPRG$CONTEXT.STATE = %ATEXIT;
      620     6025    3                  TFPRG$ -> FPRG$CONTEXT.ADDRESS = FPRG_IC;
      621     6026    3                END;
      622     6027    2             IF NOOUTPUT THEN GOTO NEXT_ONE;
      623     6028    2             S_D.CURRENT_FPRG_CONTEXT$ = TFPRG$;
      624     6029    2             FAULT = GD$MSG.BRKRSP.BRK#;
      625     6030    2             CALL DFA$FPRG (TFPRG$ -> FPRG$CONTEXT.ADDRESS);
      626     6031    2             IF TFPRG$ -> FPRG$CONTEXT.XDELTA
      627     6032    3             THEN DO;
      628     6033    3                  IF FAULT = 0
      629     6034    3                  THEN CALL DFR$REPORT(%R_XDELTA_BREAK);
      630     6035    4                  ELSE DO;
      631     6036    4                       IF S_D.FAULT = 0
      632     6037    4                       THEN CALL DFR$REPORT(%R_XDELTA_SCREECH);
      633     6038    4                       ELSE CALL DFR$REPORT(%R_FPRG_TRAP);
PL6.E3A0      #004=DFA$STOP_FPRGS File=DFA$FPRG.:E05TSI                          TUE 07/29/97 14:32 Page:126
      634     6039    4                     END;
      635     6040    3                  GOTO RETN;
      636     6041    3                END;
      637     6042    2             CALL DFR$REPORT(%R_FPRG_STOP);
      638     6043    2             IF NOT S_D.DEBUG_CMD
      639     6044    2             THEN CALL DFA$KILL_FPRG;
      640     6045    2   NEXT_ONE:
      641     6046    2             IF ADDR(P$) ~= ADDR(NIL) THEN GOTO RETN;
      642     6047    2             FIRST_READ = '1'B;
      643     6048    2             TFPRG$ = TFPRG$ -> FPRG$CONTEXT.NEXT$;
      644     6049    2           END;
      645     6050    1   RETN:
      646     6051    1        S_D.DRTN$ -> FPT$DRTN.V.WAKE_FD# = '0'B;
      647     6052    1        S_D.DRTN$ -> FPT$DRTN.V.FPRG_DCB# = 0;
      648     6053    1        RETURN;
      649     6054    1   ERR:
      650     6055    1        S_D.DRTN$ -> FPT$DRTN.V.WAKE_FD# = '0'B;
      651     6056    1        S_D.DRTN$ -> FPT$DRTN.V.FPRG_DCB# = 0;
      652     6057    1        CALL DUE$ERRMSG;
      653     6058    1        ALTRETURN;
      654     6059    1   END DFA$STOP_FPRGS;

PL6.E3A0      #004=DFA$STOP_FPRGS File=DFA$FPRG.:E05TSI                          TUE 07/29/97 14:32 Page:127
--  Include file information  --

   G_LCP6_E.:E05TOU  is referenced.
   DF_EQUS_E.:E05TOU  is referenced.
   DD_ERR_C.:E05TOU  is referenced.
   DD_SUBS_C.:E05TOU  is referenced.
   DD$BASED.:E05TOU  is referenced.
   DU_SCODE_C.:E05TOU  is referenced.
   CP_6.:E05TOU  cannot be made into a system file and is referenced.
   GD_EQUS_E.:E05TOU  is referenced.
   GD$MSG_M.:E05TOU  is referenced.
   DD_SD_M.:E05TOU  is referenced.
   XUH_MACRO_C.:E05TOU  is referenced.
   B$JIT_C.:E05TOU  was found in the system file and is never referenced.
   CP_6_C.:E05TOU  was found in the system file and is referenced.
      No diagnostics issued in procedure DFA$STOP_FPRGS.

   Procedure DFA$STOP_FPRGS requires 278 words for executable code.
   Procedure DFA$STOP_FPRGS requires 14 words of local(AUTO) storage.

    No errors detected in file DFA$FPRG.:E05TSI    .

PL6.E3A0      #004=DFA$STOP_FPRGS File=DFA$FPRG.:E05TSI                          TUE 07/29/97 14:32 Page:128

 Object Unit name= DFA$STOP_FPRGS                             File name= DFA$FPRG.:E05TOU
 UTS= JUL 29 '97 14:32:46.72 TUE                              Compiler= PL-6/E31         Sev=      00
 SharedLib= :SHARED_SYSTEM                                    Alt SharedLib=


    ****  Control sections  ****

 Sect   Type Bound  Init  Size OctSiz  Section name(segment info)
    0   DCB   even  none     0      0  M$UC
    1   Proc  even  none   278    426  DFA$STOP_FPRGS
    2  RoData even  none    10     12  DFA$STOP_FPRGS

    ****  Entry defs  ****

                              Check   Calling
                             calling  sequence
  Sect OctLoc Primary Altret sequence   type   Parms  Name
     1      0   yes    yes     yes      Std        2  DFA$STOP_FPRGS

  ****  Entry refs  ****

         Check        Calling
        calling       sequence
Altret sequence SRef   type   Args  Name
 yes     yes           Std       1 DFQ$WRITE_FD
 yes     yes           Std       2 DFQ$READ_FD
         yes           Std       1 DFR$REPORT
         yes           Std       0 DUE$ERRMSG
         yes           Std       0 DDE$ERROR
         yes           Std       1 DFA$KILL_FPRG
         yes           Std       1 DFA$FPRG
                       nStd      0 X66_AUTO_2
                       Std       0 B_CONSPOOL_D
                       nStd      0 X66_AALT
                       nStd      0 X66_ARET
PL6.E3A0      #004=DFA$STOP_FPRGS File=DFA$FPRG.:E05TSI                          TUE 07/29/97 14:32 Page:129

  ****  Data refs  ****

  Flags:  r = read only, s = secondary
Flgs Name                             Flgs Name                             Flgs Name
r    S_D$                             r    S_D_HOST_MESSAGE$                r    S_D_L6_MESSAGE$
     M$UC                             r    SNAP_MESSAGE                          B_VECTNIL

  ****  Segment refs  ****

  Flags:  r = read only, s = secondary
Flgs Name                             Flgs Name                             Flgs Name
     ISSID
PL6.E3A0      #004=DFA$STOP_FPRGS File=DFA$FPRG.:E05TSI                          TUE 07/29/97 14:32 Page:130


      487        1        /*T***********************************************************/
      488        2        /*T*                                                         */
      489        3        /*T* Copyright (c) Bull HN Information Systems Inc., 1997    */
      490        4        /*T*                                                         */
      491        5        /*T***********************************************************/
      492        6        DFA$STOP_FPRGS: PROC(PNOOUTPUT,P$) ALTRET;

      6  1 000000   000000 700200 xent  DFA$STOP_FP* TSX0  ! X66_AUTO_2
         1 000001   000016 000002                    ZERO    14,2

      493        7        /*F* NAME: DFA$STOP_FPRGS
      494        8             PURPOSE: Stop all FPRGS */
      495        9        /* Parameters */
      496       10    1   DCL PNOOUTPUT BIT(1) ALIGNED;
      497       11    1   DCL P$ PTR;
      498       12        /* Local Auto */
      499       13    1   DCL NOOUTPUT BIT(1) ALIGNED;
      500       14    1   DCL FIRST_READ BIT(1) ALIGNED;
      501       15    1   DCL TFPRG$ PTR;
      502       16    1   DCL FPRG_IC UBIN;
      503       17    1   DCL FAULT UBIN;
      504       18    1   DCL TEMP$ PTR;
      505       19    1   DCL TEMP1 REDEF TEMP$ UBIN(36) ALIGNED;
      506       20    1   DCL 1 TEMP1B REDEF TEMP$ ALIGNED,
      507       21    1         2 * UBIN(4) UNAL,
      508       22    1         2 B1 UBIN(8) UNAL,
      509       23    1         2 B2 UBIN(8) UNAL,
      510       24    1         2 B3 UBIN(8) UNAL,
      511       25    1         2 B4 UBIN(8) UNAL;
      512       26    1   DCL TEMP2 UBIN(36) ALIGNED;
      513       27    1   DCL 1 TEMP2B REDEF TEMP2 ALIGNED,
      514       28    1         2 * BIT(1) UNAL,
      515       29    1         2 B1 UBIN(8) UNAL,
      516       30    1         2 * BIT(1) UNAL,
      517       31    1         2 B2 UBIN(8) UNAL,
      518       32    1         2 * BIT(1) UNAL,
PL6.E3A0      #004=DFA$STOP_FPRGS File=DFA$FPRG.:E05TSI                          TUE 07/29/97 14:32 Page:131
      519       33    1         2 B3 UBIN(8) UNAL,
      520       34    1         2 * BIT(1) UNAL,
      521       35    1         2 B4 UBIN(8) UNAL;
      522       36        /* Includes and Based Structures */
      523       37        %INCLUDE XUH_MACRO_C;
      524      121        %INCLUDE DD_SD_M;
      525     1457        %S_D;
      526     2775        %S_D_PTRS;
      527     2812        %INCLUDE GD$MSG_M;
      528     2976        %GD$MSG(FPTN=GD$MSG,STCLASS="BASED(S_D_L6_MESSAGE$)",L6=YES,L6PTR="UBIN(32) UNAL");
      529     3132        %GD$MSG(FPTN=GD$MSG_HOST,STCLASS="BASED(S_D_HOST_MESSAGE$)",L6=NO);
      530     3288        %INCLUDE GD_EQUS_E;
      531     3449        %INCLUDE CP_6;
      532     3530        %INCLUDE DU_SCODE_C;
      533     3543        %FPT_SCREECH(FPTN=SNAP_MESSAGE,STCLASS=SYMREF READONLY);
      534     3557        %VLP_SCODE(FPTN=SC_MESSAGE, STCLASS=SYMREF READONLY);
      535     3618        %FPT_DRTN(FPTN=FPT$DRTN, STCLASS=BASED);
      536     3642        %INCLUDE DD$BASED;
      537     4945        %FPRG$CONTEXT;
      538     5008        %INCLUDE DD_SUBS_C;
      539     5279        %INCLUDE DD_ERR_C;
      540     5676        %INCLUDE DF_EQUS_E;
      541     5689        %INCLUDE G_LCP6_E;
      542     5947        /* Entry DCLs */
      543     5948    1   DCL DDE$ERROR ENTRY;
      544     5949    1   DCL DFA$FPRG ENTRY(1);
      545     5950    1   DCL DFA$KILL_FPRG ENTRY(1);
      546     5951    1   DCL DFQ$READ_FD ENTRY(2) ALTRET;
      547     5952    1   DCL DFQ$WRITE_FD ENTRY(1) ALTRET;
      548     5953    1   DCL DFR$REPORT ENTRY(1);
      549     5954    1   DCL DUE$ERRMSG ENTRY;
      550     5955        /**/
      551     5956    1        IF ADDR(PNOOUTPUT) = ADDR(NIL)

   5956  1 000002   200003 236100                    LDQ     @PNOOUTPUT,,AUTO
         1 000003   000001 116000 xsym               CMPQ    B_VECTNIL+1
         1 000004   000007 601000 1                  TNZ     s:5958
PL6.E3A0      #004=DFA$STOP_FPRGS File=DFA$FPRG.:E05TSI                          TUE 07/29/97 14:32 Page:132

      552     5957    1        THEN NOOUTPUT = '0'B;

   5957  1 000005   200005 450100                    STZ     NOOUTPUT,,AUTO
         1 000006   000013 710000 1                  TRA     s:5959

      553     5958    1        ELSE NOOUTPUT = PNOOUTPUT;

   5958  1 000007   200003 470500                    LDP0    @PNOOUTPUT,,AUTO
         1 000010   000000 236100                    LDQ     0,,PR0
         1 000011   400000 376003                    ANQ     -131072,DU
         1 000012   200005 756100                    STQ     NOOUTPUT,,AUTO

      554     5959    1        FIRST_READ = '1'B;

   5959  1 000013   400000 236003                    LDQ     -131072,DU
         1 000014   200006 756100                    STQ     FIRST_READ,,AUTO

      555     5960    1        IF ADDR(P$) = ADDR(NIL) THEN

   5960  1 000015   200004 236100                    LDQ     @P$,,AUTO
         1 000016   000001 116000 xsym               CMPQ    B_VECTNIL+1
         1 000017   000024 601000 1                  TNZ     s:5963

      556     5961    1             TFPRG$ = S_D.FPRG_CONTEXT$;

   5961  1 000020   000000 470400 xsym               LDP0    S_D$
         1 000021   000076 236100                    LDQ     62,,PR0
         1 000022   200007 756100                    STQ     TFPRG$,,AUTO
         1 000023   000027 710000 1                  TRA     s:5964

      557     5962    1        ELSE
      558     5963    1             TFPRG$ = P$;

   5963  1 000024   200004 470500                    LDP0    @P$,,AUTO
         1 000025   000000 236100                    LDQ     0,,PR0
         1 000026   200007 756100                    STQ     TFPRG$,,AUTO
PL6.E3A0      #004=DFA$STOP_FPRGS File=DFA$FPRG.:E05TSI                          TUE 07/29/97 14:32 Page:133

      559     5964    1        S_D.DRTN$ -> FPT$DRTN.V.WAKE_FD# = '1'B;

   5964  1 000027   000000 470400 xsym               LDP0    S_D$
         1 000030   004704 471500                    LDP1    2500,,PR0
         1 000031   000020 236003                    LDQ     16,DU
         1 000032   100013 256100                    ORSQ    11,,PR1

      560     5965    2        DO WHILE (TFPRG$ ~= ADDR(NIL));

   5965  1 000033   000400 710000 1                  TRA     s:6049

      561     5966    2             GD$MSG = '0'B;

   5966  1 000034   000000 470400 xsym               LDP0    S_D_L6_MESSAGE$
         1 000035   003100 060400                    CSL     bolr='003'O
         1 000036   000002 000001 xsym               BDSC    B_VECTNIL+2              by=0,bit=0,n=1
         1 000037   000000 004720                    BDSC    0,,PR0                   by=0,bit=0,n=2512

      562     5967    2             GD$MSG.FNC = %GD#RQSCONTROL;

   5967  1 000040   000000 236100                    LDQ     0,,PR0
         1 000041   000000 376000 2                  ANQ     0
         1 000042   032000 276003                    ORQ     13312,DU
         1 000043   000000 756100                    STQ     0,,PR0

      563     5968    2             IF TFPRG$ -> FPRG$CONTEXT.STATE = %RUNNING OR

   5968  1 000044   200007 471500                    LDP1    TFPRG$,,AUTO
         1 000045   100001 236100                    LDQ     1,,PR1
         1 000046   000777 376003                    ANQ     511,DU
         1 000047   000001 116003                    CMPQ    1,DU
         1 000050   000054 600000 1                  TZE     s:5971
         1 000051   100001 236100                    LDQ     1,,PR1
         1 000052   002000 316003                    CANQ    1024,DU
         1 000053   000306 600000 1                  TZE     s:6027

PL6.E3A0      #004=DFA$STOP_FPRGS File=DFA$FPRG.:E05TSI                          TUE 07/29/97 14:32 Page:134
      564     5969    2               TFPRG$ -> FPRG$CONTEXT.XDELTA
      565     5970    3             THEN DO;

      566     5971    3                  IF TFPRG$ -> FPRG$CONTEXT.XDELTA

   5971  1 000054   100001 236100                    LDQ     1,,PR1
         1 000055   002000 316003                    CANQ    1024,DU
         1 000056   000066 600000 1                  TZE     s:5974

      567     5972    3                  THEN CALL DFQ$WRITE_FD (TFPRG$) ALTRET(ERR);

   5972  1 000057   200007 633500                    EPPR3   TFPRG$,,AUTO
         1 000060   200014 453500                    STP3    TEMP2+1,,AUTO
         1 000061   200014 630500                    EPPR0   TEMP2+1,,AUTO
         1 000062   000017 631400 xsym               EPPR1   B_VECTNIL+15
         1 000063   000000 701000 xent               TSX1    DFQ$WRITE_FD
         1 000064   000413 702000 1                  TSX2    ERR
         1 000065   000077 710000 1                  TRA     REREAD

      568     5973    4                  ELSE DO;

      569     5974    4                      S_D.DRTN$ -> FPT$DRTN.V.FPRG_DCB# = TFPRG$ -> FPRG$CONTEXT.DCBNO
              5974                                ;

   5974  1 000066   000000 473400 xsym               LDP3    S_D$
         1 000067   304704 474500                    LDP4    2500,,PR3
         1 000070   100001 720100                    LXL0    1,,PR1
         1 000071   400014 440100                    SXL0    12,,PR4

      570     5975    4                       CALL M$DRTN (S_D.DRTN$ -> FPT$DRTN) ALTRET(ERR);

   5975  1 000072   304704 474500                    LDP4    2500,,PR3
         1 000073   400000 630500                    EPPR0   0,,PR4
         1 000074   410017 713400                    CLIMB   alt,+4111
         1 000075   402000 401760                    pmme    nvectors=5
         1 000076   000413 702000 1                  TSX2    ERR

PL6.E3A0      #004=DFA$STOP_FPRGS File=DFA$FPRG.:E05TSI                          TUE 07/29/97 14:32 Page:135
      571     5976    4                     END;

      572     5977    3   REREAD:
      573     5978    3                  TFPRG$ -> FPRG$CONTEXT.STATE = %STOPPED;

   5978  1 000077   200007 470500       REREAD       LDP0    TFPRG$,,AUTO
         1 000100   000002 236003                    LDQ     2,DU
         1 000101   000001 552120                    STBQ    1,'20'O,PR0

      574     5979    3                  IF TFPRG$ -> FPRG$CONTEXT.READ_FD = '1'B

   5979  1 000102   200007 470500                    LDP0    TFPRG$,,AUTO
         1 000103   000001 234100                    SZN     1,,PR0
         1 000104   000107 605000 1                  TPL     s:5981

      575     5980    3                  THEN TFPRG$ -> FPRG$CONTEXT.READ_FD = '0'B;

   5980  1 000105   000031 236000 xsym               LDQ     B_VECTNIL+25
         1 000106   000001 356100                    ANSQ    1,,PR0

      576     5981    3                  CALL DFQ$READ_FD(TFPRG$, '0'B) ALTRET(ERR);

   5981  1 000107   000001 236000 2                  LDQ     1
         1 000110   200015 756100                    STQ     TEMP2+2,,AUTO
         1 000111   200007 630500                    EPPR0   TFPRG$,,AUTO
         1 000112   200014 450500                    STP0    TEMP2+1,,AUTO
         1 000113   200014 630500                    EPPR0   TEMP2+1,,AUTO
         1 000114   000020 631400 xsym               EPPR1   B_VECTNIL+16
         1 000115   000000 701000 xent               TSX1    DFQ$READ_FD
         1 000116   000413 702000 1                  TSX2    ERR

      577     5982    3                  IF NOOUTPUT THEN GOTO NEXT_ONE;

   5982  1 000117   200005 234100                    SZN     NOOUTPUT,,AUTO
         1 000120   000370 604000 1                  TMI     NEXT_ONE

      578     5983    3                  IF GD$MSG.FNC ~= %FPRG_BRKRSP# AND
PL6.E3A0      #004=DFA$STOP_FPRGS File=DFA$FPRG.:E05TSI                          TUE 07/29/97 14:32 Page:136

   5983  1 000121   000000 470400 xsym               LDP0    S_D_L6_MESSAGE$
         1 000122   000000 236100                    LDQ     0,,PR0
         1 000123   776000 376003                    ANQ     -1024,DU
         1 000124   132000 116003                    CMPQ    46080,DU
         1 000125   000207 600000 1                  TZE     s:6009
         1 000126   000002 236100                    LDQ     2,,PR0
         1 000127   000002 376000 2                  ANQ     2
         1 000130   000003 116000 2                  CMPQ    3
         1 000131   000207 600000 1                  TZE     s:6009

      579     5984    3                    GD$MSG.BRKRSP.BRK# ~= (%G_HOST_INT# + (%GD#MAXBRKNUM + 1))
      580     5985    4                  THEN DO;

      581     5986    4                       S_D.DRTN$ -> FPT$DRTN.V.WAKE_FD# = '0'B;

   5986  1 000132   000000 471400 xsym               LDP1    S_D$
         1 000133   104704 473500                    LDP3    2500,,PR1
         1 000134   000004 236000 2                  LDQ     4
         1 000135   300013 356100                    ANSQ    11,,PR3

      582     5987    4                       S_D.DRTN$ -> FPT$DRTN.V.FPRG_DCB# = 0;

   5987  1 000136   104704 473500                    LDP3    2500,,PR1
         1 000137   000000 220003                    LDX0    0,DU
         1 000140   300014 440100                    SXL0    12,,PR3

      583     5988    4                       IF TFPRG$ -> FPRG$CONTEXT.XDELTA AND

   5988  1 000141   200007 473500                    LDP3    TFPRG$,,AUTO
         1 000142   300001 236100                    LDQ     1,,PR3
         1 000143   002000 316003                    CANQ    1024,DU
         1 000144   000157 600000 1                  TZE     s:5995
         1 000145   000000 236100                    LDQ     0,,PR0
         1 000146   776000 376003                    ANQ     -1024,DU
         1 000147   140000 116003                    CMPQ    49152,DU
         1 000150   000157 601000 1                  TNZ     s:5995
PL6.E3A0      #004=DFA$STOP_FPRGS File=DFA$FPRG.:E05TSI                          TUE 07/29/97 14:32 Page:137

      584     5989    4                         GD$MSG.FNC = %GD#RSPBADMSG
      585     5990    5                       THEN DO;

      586     5991    5                            S_D.ERROR = E@BADMSG; /* E@BADMSG */

   5991  1 000151   000512 235007                    LDA     330,DL
         1 000152   100013 755100                    STA     11,,PR1

      587     5992    5                            CALL DDE$ERROR;

   5992  1 000153   000002 631400 xsym               EPPR1   B_VECTNIL+2
         1 000154   000000 701000 xent               TSX1    DDE$ERROR
         1 000155   000000 011000                    NOP     0

      588     5993    5                            ALTRETURN;

   5993  1 000156   000000 702200 xent               TSX2  ! X66_AALT

      589     5994    5                          END;
      590     5995    4                       IF FIRST_READ

   5995  1 000157   200006 234100                    SZN     FIRST_READ,,AUTO
         1 000160   000163 605000 1                  TPL     s:6000

      591     5996    5                       THEN DO;

      592     5997    5                            FIRST_READ = '0'B;

   5997  1 000161   200006 450100                    STZ     FIRST_READ,,AUTO

      593     5998    5                            GOTO REREAD;

   5998  1 000162   000077 710000 1                  TRA     REREAD

      594     5999    5                          END;
      595     6000    4                       REMEMBER NEVER IN S_D.SCREECH_IC;
PL6.E3A0      #004=DFA$STOP_FPRGS File=DFA$FPRG.:E05TSI                          TUE 07/29/97 14:32 Page:138

   6000  1 000163   000172 635000 1                  EAA     NEVER
         1 000164   105250 452500                    STP2    2728,,PR1
         1 000165   105251 755100                    STA     2729,,PR1

      596     6001    4                       CALL M$SCREECH (SNAP_MESSAGE) ALTRET(NEVER);

   6001  1 000166   000000 630400 xsym               EPPR0   SNAP_MESSAGE
         1 000167   400013 713400                    CLIMB   alt,+11
         1 000170   401000 401760                    pmme    nvectors=3
         1 000171   000172 702000 1                  TSX2    NEVER

   5995  1 000172                       NEVER        null
      597     6002    4   NEVER:              ;
      598     6003    4                       S_D.ERROR = E@BADMESSAGE; /* E@BADMESSAGE */

   6003  1 000172   001014 235007                    LDA     524,DL
         1 000173   000000 470400 xsym               LDP0    S_D$
         1 000174   000013 755100                    STA     11,,PR0

      599     6004    4                       CALL DDE$ERROR;

   6004  1 000175   000002 631400 xsym               EPPR1   B_VECTNIL+2
         1 000176   000000 701000 xent               TSX1    DDE$ERROR
         1 000177   000000 011000                    NOP     0

      600     6005    4                       S_D.ERROR = E@DELBUG; /* E@DELBUG */

   6005  1 000200   000766 235007                    LDA     502,DL
         1 000201   000000 470400 xsym               LDP0    S_D$
         1 000202   000013 755100                    STA     11,,PR0

      601     6006    4                       CALL DDE$ERROR;

   6006  1 000203   000002 631400 xsym               EPPR1   B_VECTNIL+2
         1 000204   000000 701000 xent               TSX1    DDE$ERROR
         1 000205   000000 011000                    NOP     0
PL6.E3A0      #004=DFA$STOP_FPRGS File=DFA$FPRG.:E05TSI                          TUE 07/29/97 14:32 Page:139

      602     6007    4                       ALTRETURN;

   6007  1 000206   000000 702200 xent               TSX2  ! X66_AALT

      603     6008    4                     END;
      604     6009    3                  IF TFPRG$ -> FPRG$CONTEXT.XDELTA

   6009  1 000207   200007 471500                    LDP1    TFPRG$,,AUTO
         1 000210   100001 236100                    LDQ     1,,PR1
         1 000211   002000 316003                    CANQ    1024,DU
         1 000212   000245 600000 1                  TZE     s:6018

      605     6010    4                  THEN DO;

      606     6011    4                       TEMP1 = BITBIN(GD$MSG.BRKRSP.ERRCODE);

   6011  1 000213   000003 236100                    LDQ     3,,PR0
         1 000214   000005 376000 2                  ANQ     5
         1 000215   200012 756100                    STQ     TEMP$,,AUTO

      607     6012    4                       TEMP2B.B1 = TEMP1B.B1;

   6012  1 000216   200012 236100                    LDQ     TEMP$,,AUTO
         1 000217   000003 736000                    QLS     3
         1 000220   200013 676100                    ERQ     TEMP2,,AUTO
         1 000221   377000 376003                    ANQ     130560,DU
         1 000222   200013 656100                    ERSQ    TEMP2,,AUTO

      608     6013    4                       TEMP2B.B2 = TEMP1B.B2;

   6013  1 000223   200012 236100                    LDQ     TEMP$,,AUTO
         1 000224   000002 736000                    QLS     2
         1 000225   200013 676100                    ERQ     TEMP2,,AUTO
         1 000226   000377 376003                    ANQ     255,DU
         1 000227   200013 656100                    ERSQ    TEMP2,,AUTO

PL6.E3A0      #004=DFA$STOP_FPRGS File=DFA$FPRG.:E05TSI                          TUE 07/29/97 14:32 Page:140
      609     6014    4                       TEMP2B.B3 = TEMP1B.B3;

   6014  1 000230   200012 236100                    LDQ     TEMP$,,AUTO
         1 000231   000001 736000                    QLS     1
         1 000232   200013 676100                    ERQ     TEMP2,,AUTO
         1 000233   377000 376007                    ANQ     130560,DL
         1 000234   200013 656100                    ERSQ    TEMP2,,AUTO

      610     6015    4                       TEMP2B.B4 = TEMP1B.B4;

   6015  1 000235   200012 236100                    LDQ     TEMP$,,AUTO
         1 000236   200013 676100                    ERQ     TEMP2,,AUTO
         1 000237   000377 376007                    ANQ     255,DL
         1 000240   200013 656100                    ERSQ    TEMP2,,AUTO

      611     6016    4                       S_D.BRKRSP_ERRCODE = TEMP2;

   6016  1 000241   000000 473400 xsym               LDP3    S_D$
         1 000242   200013 235100                    LDA     TEMP2,,AUTO
         1 000243   305240 755100                    STA     2720,,PR3

      612     6017    4                     END;

   6017  1 000244   000253 710000 1                  TRA     s:6019

      613     6018    3                  ELSE S_D.BRKRSP_ERRCODE = BITBIN(GD$MSG_HOST.BRKRSP.ERRCODE);

   6018  1 000245   000000 473400 xsym               LDP3    S_D_HOST_MESSAGE$
         1 000246   300003 235100                    LDA     3,,PR3
         1 000247   300004 236100                    LDQ     4,,PR3
         1 000250   000022 773000                    LRL     18
         1 000251   000000 474400 xsym               LDP4    S_D$
         1 000252   405240 756100                    STQ     2720,,PR4

      614     6019    3                  S_D.USERNO = GD$MSG.BRKRSP.USER#;

   6019  1 000253   000000 473400 xsym               LDP3    S_D$
PL6.E3A0      #004=DFA$STOP_FPRGS File=DFA$FPRG.:E05TSI                          TUE 07/29/97 14:32 Page:141
         1 000254   000002 235100                    LDA     2,,PR0
         1 000255   000003 236100                    LDQ     3,,PR0
         1 000256   000040 773000                    LRL     32
         1 000257   177777 376007                    ANQ     65535,DL
         1 000260   305241 756100                    STQ     2721,,PR3

      615     6020    3                  S_D.MBU = GD$MSG.BRKRSP.MBU;

   6020  1 000261   000013 236100                    LDQ     11,,PR0
         1 000262   000014 736000                    QLS     12
         1 000263   400000 376003                    ANQ     -131072,DU
         1 000264   305244 756100                    STQ     2724,,PR3

      616     6021    3                  FPRG_IC = GD$MSG.BRKRSP.ADR$;

   6021  1 000265   000000 235100                    LDA     0,,PR0
         1 000266   000001 236100                    LDQ     1,,PR0
         1 000267   000030 773000                    LRL     24
         1 000270   000005 376000 2                  ANQ     5
         1 000271   200010 756100                    STQ     FPRG_IC,,AUTO

      617     6022    3                  S_D.FAULT = GD$MSG.BRKRSP.BRK# - (%GD#MAXBRKNUM + 1);

   6022  1 000272   000002 236100                    LDQ     2,,PR0
         1 000273   000014 772000                    QRL     12
         1 000274   177777 376007                    ANQ     65535,DL
         1 000275   000025 136007                    SBLQ    21,DL
         1 000276   300030 756100                    STQ     24,,PR3

      618     6023    3                  IF S_D.FAULT = %G_FPRG_EXIT#

   6023  1 000277   000057 116007                    CMPQ    47,DL
         1 000300   000303 601000 1                  TNZ     s:6025

      619     6024    3                  THEN TFPRG$ -> FPRG$CONTEXT.STATE = %ATEXIT;

   6024  1 000301   000004 236003                    LDQ     4,DU
PL6.E3A0      #004=DFA$STOP_FPRGS File=DFA$FPRG.:E05TSI                          TUE 07/29/97 14:32 Page:142
         1 000302   100001 552120                    STBQ    1,'20'O,PR1

      620     6025    3                  TFPRG$ -> FPRG$CONTEXT.ADDRESS = FPRG_IC;

   6025  1 000303   200007 471500                    LDP1    TFPRG$,,AUTO
         1 000304   200010 235100                    LDA     FPRG_IC,,AUTO
         1 000305   100005 755100                    STA     5,,PR1

      621     6026    3                END;

      622     6027    2             IF NOOUTPUT THEN GOTO NEXT_ONE;

   6027  1 000306   200005 234100                    SZN     NOOUTPUT,,AUTO
         1 000307   000370 604000 1                  TMI     NEXT_ONE

      623     6028    2             S_D.CURRENT_FPRG_CONTEXT$ = TFPRG$;

   6028  1 000310   200007 236100                    LDQ     TFPRG$,,AUTO
         1 000311   000000 471400 xsym               LDP1    S_D$
         1 000312   100102 756100                    STQ     66,,PR1

      624     6029    2             FAULT = GD$MSG.BRKRSP.BRK#;

   6029  1 000313   000002 236100                    LDQ     2,,PR0
         1 000314   000014 772000                    QRL     12
         1 000315   177777 376007                    ANQ     65535,DL
         1 000316   200011 756100                    STQ     FAULT,,AUTO

      625     6030    2             CALL DFA$FPRG (TFPRG$ -> FPRG$CONTEXT.ADDRESS);

   6030  1 000317   200007 236100                    LDQ     TFPRG$,,AUTO
         1 000320   000005 036003                    ADLQ    5,DU
         1 000321   200014 756100                    STQ     TEMP2+1,,AUTO
         1 000322   200014 630500                    EPPR0   TEMP2+1,,AUTO
         1 000323   000017 631400 xsym               EPPR1   B_VECTNIL+15
         1 000324   000000 701000 xent               TSX1    DFA$FPRG
         1 000325   000000 011000                    NOP     0
PL6.E3A0      #004=DFA$STOP_FPRGS File=DFA$FPRG.:E05TSI                          TUE 07/29/97 14:32 Page:143

      626     6031    2             IF TFPRG$ -> FPRG$CONTEXT.XDELTA

   6031  1 000326   200007 470500                    LDP0    TFPRG$,,AUTO
         1 000327   000001 236100                    LDQ     1,,PR0
         1 000330   002000 316003                    CANQ    1024,DU
         1 000331   000356 600000 1                  TZE     s:6042

      627     6032    3             THEN DO;

      628     6033    3                  IF FAULT = 0

   6033  1 000332   200011 235100                    LDA     FAULT,,AUTO
         1 000333   000341 601000 1                  TNZ     s:6036

      629     6034    3                  THEN CALL DFR$REPORT(%R_XDELTA_BREAK);

   6034  1 000334   000006 630400 2                  EPPR0   6
         1 000335   000017 631400 xsym               EPPR1   B_VECTNIL+15
         1 000336   000000 701000 xent               TSX1    DFR$REPORT
         1 000337   000000 011000                    NOP     0
         1 000340   000355 710000 1                  TRA     s:6040

      630     6035    4                  ELSE DO;

      631     6036    4                       IF S_D.FAULT = 0

   6036  1 000341   000000 471400 xsym               LDP1    S_D$
         1 000342   100030 235100                    LDA     24,,PR1
         1 000343   000351 601000 1                  TNZ     s:6038

      632     6037    4                       THEN CALL DFR$REPORT(%R_XDELTA_SCREECH);

   6037  1 000344   000007 630400 2                  EPPR0   7
         1 000345   000017 631400 xsym               EPPR1   B_VECTNIL+15
         1 000346   000000 701000 xent               TSX1    DFR$REPORT
         1 000347   000000 011000                    NOP     0
PL6.E3A0      #004=DFA$STOP_FPRGS File=DFA$FPRG.:E05TSI                          TUE 07/29/97 14:32 Page:144
         1 000350   000355 710000 1                  TRA     s:6040

      633     6038    4                       ELSE CALL DFR$REPORT(%R_FPRG_TRAP);

   6038  1 000351   000010 630400 2                  EPPR0   8
         1 000352   000017 631400 xsym               EPPR1   B_VECTNIL+15
         1 000353   000000 701000 xent               TSX1    DFR$REPORT
         1 000354   000000 011000                    NOP     0

      634     6039    4                     END;

      635     6040    3                  GOTO RETN;

   6040  1 000355   000403 710000 1                  TRA     RETN

      636     6041    3                END;
      637     6042    2             CALL DFR$REPORT(%R_FPRG_STOP);

   6042  1 000356   000011 630400 2                  EPPR0   9
         1 000357   000017 631400 xsym               EPPR1   B_VECTNIL+15
         1 000360   000000 701000 xent               TSX1    DFR$REPORT
         1 000361   000000 011000                    NOP     0

      638     6043    2             IF NOT S_D.DEBUG_CMD

   6043  1 000362   000000 470400 xsym               LDP0    S_D$
         1 000363   004665 234100                    SZN     2485,,PR0
         1 000364   000370 604000 1                  TMI     NEXT_ONE

      639     6044    2             THEN CALL DFA$KILL_FPRG;

   6044  1 000365   000002 631400 xsym               EPPR1   B_VECTNIL+2
         1 000366   000000 701000 xent               TSX1    DFA$KILL_FPRG
         1 000367   000000 011000                    NOP     0

      640     6045    2   NEXT_ONE:
      641     6046    2             IF ADDR(P$) ~= ADDR(NIL) THEN GOTO RETN;
PL6.E3A0      #004=DFA$STOP_FPRGS File=DFA$FPRG.:E05TSI                          TUE 07/29/97 14:32 Page:145

   6046  1 000370   200004 236100       NEXT_ONE     LDQ     @P$,,AUTO
         1 000371   000001 116000 xsym               CMPQ    B_VECTNIL+1
         1 000372   000403 601000 1                  TNZ     RETN

      642     6047    2             FIRST_READ = '1'B;

   6047  1 000373   400000 236003                    LDQ     -131072,DU
         1 000374   200006 756100                    STQ     FIRST_READ,,AUTO

      643     6048    2             TFPRG$ = TFPRG$ -> FPRG$CONTEXT.NEXT$;

   6048  1 000375   200007 470500                    LDP0    TFPRG$,,AUTO
         1 000376   000000 236100                    LDQ     0,,PR0
         1 000377   200007 756100                    STQ     TFPRG$,,AUTO

      644     6049    2           END;

   6049  1 000400   200007 236100                    LDQ     TFPRG$,,AUTO
         1 000401   000001 116000 xsym               CMPQ    B_VECTNIL+1
         1 000402   000034 601000 1                  TNZ     s:5966

      645     6050    1   RETN:
      646     6051    1        S_D.DRTN$ -> FPT$DRTN.V.WAKE_FD# = '0'B;

   6051  1 000403   000000 470400 xsym  RETN         LDP0    S_D$
         1 000404   004704 471500                    LDP1    2500,,PR0
         1 000405   000004 236000 2                  LDQ     4
         1 000406   100013 356100                    ANSQ    11,,PR1

      647     6052    1        S_D.DRTN$ -> FPT$DRTN.V.FPRG_DCB# = 0;

   6052  1 000407   004704 471500                    LDP1    2500,,PR0
         1 000410   000000 220003                    LDX0    0,DU
         1 000411   100014 440100                    SXL0    12,,PR1

      648     6053    1        RETURN;
PL6.E3A0      #004=DFA$STOP_FPRGS File=DFA$FPRG.:E05TSI                          TUE 07/29/97 14:32 Page:146

   6053  1 000412   000000 702200 xent               TSX2  ! X66_ARET

      649     6054    1   ERR:
      650     6055    1        S_D.DRTN$ -> FPT$DRTN.V.WAKE_FD# = '0'B;

   6055  1 000413   000000 470400 xsym  ERR          LDP0    S_D$
         1 000414   004704 471500                    LDP1    2500,,PR0
         1 000415   000004 236000 2                  LDQ     4
         1 000416   100013 356100                    ANSQ    11,,PR1

      651     6056    1        S_D.DRTN$ -> FPT$DRTN.V.FPRG_DCB# = 0;

   6056  1 000417   004704 471500                    LDP1    2500,,PR0
         1 000420   000000 220003                    LDX0    0,DU
         1 000421   100014 440100                    SXL0    12,,PR1

      652     6057    1        CALL DUE$ERRMSG;

   6057  1 000422   000002 631400 xsym               EPPR1   B_VECTNIL+2
         1 000423   000000 701000 xent               TSX1    DUE$ERRMSG
         1 000424   000000 011000                    NOP     0

      653     6058    1        ALTRETURN;

   6058  1 000425   000000 702200 xent               TSX2  ! X66_AALT

(unnamed)
 Sect OctLoc
   2     000   001777 777777   000002 006000   001777 770000   000001 140000    ..............`.
   2     004   777757 777777   037777 777777   000012 006000   000013 006000    ................
   2     010   000004 006000   000005 006000                                    ........
      654     6059    1   END DFA$STOP_FPRGS;

PL6.E3A0      #004=DFA$STOP_FPRGS File=DFA$FPRG.:E05TSI                          TUE 07/29/97 14:32 Page:147
--  Include file information  --

   G_LCP6_E.:E05TOU  is referenced.
   DF_EQUS_E.:E05TOU  is referenced.
   DD_ERR_C.:E05TOU  is referenced.
   DD_SUBS_C.:E05TOU  is referenced.
   DD$BASED.:E05TOU  is referenced.
   DU_SCODE_C.:E05TOU  is referenced.
   CP_6.:E05TOU  cannot be made into a system file and is referenced.
   GD_EQUS_E.:E05TOU  is referenced.
   GD$MSG_M.:E05TOU  is referenced.
   DD_SD_M.:E05TOU  is referenced.
   XUH_MACRO_C.:E05TOU  is referenced.
   B$JIT_C.:E05TOU  was found in the system file and is never referenced.
   CP_6_C.:E05TOU  was found in the system file and is referenced.
      No diagnostics issued in procedure DFA$STOP_FPRGS.

   Procedure DFA$STOP_FPRGS requires 278 words for executable code.
   Procedure DFA$STOP_FPRGS requires 14 words of local(AUTO) storage.

    No errors detected in file DFA$FPRG.:E05TSI    .
PL6.E3A0      #004=DFA$STOP_FPRGS File=DFA$FPRG.:E05TSI                          TUE 07/29/97 14:32 Page:148
          *** CROSS REFERENCE LISTING ***
**     DENOTES     IDENTIFIER DEFINITION
<<                 IDENTIFIER'S VALUE SET
>>                 IDENTIFIER'S VALUE USED
<>                 IDENTIFIER SET AND/OR USED
--                 IDENTIFIER REFERENCED
PL6.E3A0      #004=DFA$STOP_FPRGS File=DFA$FPRG.:E05TSI                          TUE 07/29/97 14:32 Page:149
          MINI XREF LISTING

DDE$ERROR
      5948**DCL-ENT  5992--CALL     6004--CALL     6006--CALL
DFA$FPRG
      5949**DCL-ENT  6030--CALL
DFA$KILL_FPRG
      5950**DCL-ENT  6044--CALL
DFQ$READ_FD
      5951**DCL-ENT  5981--CALL
DFQ$WRITE_FD
      5952**DCL-ENT  5972--CALL
DFR$REPORT
      5953**DCL-ENT  6034--CALL     6037--CALL     6038--CALL     6042--CALL
DUE$ERRMSG
      5954**DCL-ENT  6057--CALL
ERR
      6055**LABEL    5972--CALLALT  5975--CALLALT  5981--CALLALT
FAULT
        17**DCL      6029<<ASSIGN   6033>>IF
FIRST_READ
        14**DCL      5959<<ASSIGN   5995>>IF       5997<<ASSIGN   6047<<ASSIGN
FPRG$CONTEXT.ADDRESS
      4970**DCL      6025<<ASSIGN   6030<>CALL
FPRG$CONTEXT.DCBNO
      4963**DCL      5974>>ASSIGN
FPRG$CONTEXT.NEXT$
      4947**DCL      6048>>ASSIGN
FPRG$CONTEXT.READ_FD
      4949**DCL      5979>>IF       5980<<ASSIGN
FPRG$CONTEXT.STATE
      4961**DCL      5968>>IF       5978<<ASSIGN   6024<<ASSIGN
FPRG$CONTEXT.XDELTA
      4959**DCL      5968>>IF       5971>>IF       5988>>IF       6009>>IF       6031>>IF
PL6.E3A0      #004=DFA$STOP_FPRGS File=DFA$FPRG.:E05TSI                          TUE 07/29/97 14:32 Page:150
FPRG_IC
        16**DCL      6021<<ASSIGN   6025>>ASSIGN
FPT$DRTN
      3629**DCL      5975<>CALL
FPT$DRTN.V.FPRG_DCB#
      3640**DCL      5974<<ASSIGN   5987<<ASSIGN   6052<<ASSIGN   6056<<ASSIGN
FPT$DRTN.V.IR#
      3631**DCL      3631--REDEF
FPT$DRTN.V.WAKE_FD#
      3638**DCL      5964<<ASSIGN   5986<<ASSIGN   6051<<ASSIGN   6055<<ASSIGN
GD$MSG
      2993**DCL      5966<<ASSIGN
GD$MSG.BRKRQS.IF$CONST.SIZE
      3044**DCL      3044--REDEF
GD$MSG.BRKRQS.IF$CONST.TEXT
      3044**DCL      3045--REDEF    3045--REDEF    3046--REDEF    3047--REDEF
GD$MSG.BRKRSP.ADR$
      3057**DCL      6021>>ASSIGN
GD$MSG.BRKRSP.BRK#
      3058**DCL      3058--REDEF    5983>>IF       6022>>ASSIGN   6029>>ASSIGN
GD$MSG.BRKRSP.ERRCODE
      3059**DCL      6011>>ASSIGN
GD$MSG.BRKRSP.MBU
      3063**DCL      6020>>ASSIGN
GD$MSG.BRKRSP.USER#
      3058**DCL      3058--REDEF    6019>>ASSIGN
GD$MSG.FNC
      2993**DCL      5967<<ASSIGN   5983>>IF       5988>>IF
GD$MSG.LETMEM_D.VALUE.SIZE
      3016**DCL      3016--REDEF
GD$MSG.LETMEM_D.VALUE.TEXT
      3017**DCL      3017--REDEF    3017--REDEF    3018--REDEF    3019--REDEF
GD$MSG.MESSAGE
      2998**DCL      2998--REDEF    2999--REDEF    2999--REDEF    3000--REDEF    3011--REDEF    3024--REDEF
      3029--REDEF    3036--REDEF    3052--REDEF    3057--REDEF    3063--REDEF    3064--REDEF    3093--REDEF
      3095--REDEF    3106--REDEF    3113--REDEF    3125--REDEF
PL6.E3A0      #004=DFA$STOP_FPRGS File=DFA$FPRG.:E05TSI                          TUE 07/29/97 14:32 Page:151
GD$MSG.SUBFNC
      2993**DCL      2993--REDEF    2997--REDEF
GD$MSG.TSA.I
      3065**DCL      3065--REDEF
GD$MSG.TSA.S
      3067**DCL      3067--REDEF
GD$MSG.USERQS.ASDT$
      3093**DCL      3093--REDEF    3094--REDEF
GD$MSG_HOST.BRKRQS.IF$CONST.SIZE
      3200**DCL      3200--REDEF
GD$MSG_HOST.BRKRQS.IF$CONST.TEXT
      3200**DCL      3201--REDEF    3201--REDEF    3202--REDEF    3203--REDEF
GD$MSG_HOST.BRKRSP.BRK#
      3214**DCL      3214--REDEF
GD$MSG_HOST.BRKRSP.ERRCODE
      3215**DCL      6018>>ASSIGN
GD$MSG_HOST.BRKRSP.USER#
      3214**DCL      3214--REDEF
GD$MSG_HOST.LETMEM_D.VALUE.SIZE
      3172**DCL      3172--REDEF
GD$MSG_HOST.LETMEM_D.VALUE.TEXT
      3173**DCL      3173--REDEF    3173--REDEF    3174--REDEF    3175--REDEF
GD$MSG_HOST.MESSAGE
      3154**DCL      3154--REDEF    3155--REDEF    3155--REDEF    3156--REDEF    3167--REDEF    3180--REDEF
      3185--REDEF    3192--REDEF    3208--REDEF    3213--REDEF    3219--REDEF    3220--REDEF    3249--REDEF
      3251--REDEF    3262--REDEF    3269--REDEF    3281--REDEF
GD$MSG_HOST.SUBFNC
      3149**DCL      3149--REDEF    3153--REDEF
GD$MSG_HOST.TSA.I
      3221**DCL      3221--REDEF
GD$MSG_HOST.TSA.S
      3223**DCL      3223--REDEF
GD$MSG_HOST.USERQS.ASDT$
      3249**DCL      3249--REDEF    3250--REDEF
M$DRTN
      3516**DCL-ENT  5975--CALL
PL6.E3A0      #004=DFA$STOP_FPRGS File=DFA$FPRG.:E05TSI                          TUE 07/29/97 14:32 Page:152
M$SCREECH
      3472**DCL-ENT  6001--CALL
NEVER
      5995**LABEL    6000--REMEMBR  6001--CALLALT
NEXT_ONE
      6046**LABEL    5982--GOTO     6027--GOTO
NOOUTPUT
        13**DCL      5957<<ASSIGN   5958<<ASSIGN   5982>>IF       6027>>IF
P$
        11**DCL         6--PROC     5960--IF       5963>>ASSIGN   6046--IF
PNOOUTPUT
        10**DCL         6--PROC     5956--IF       5958>>ASSIGN
REREAD
      5978**LABEL    5998--GOTO
RETN
      6051**LABEL    6040--GOTO     6046--GOTO
SNAP_MESSAGE
      3554**DCL      6001<>CALL
S_D.BRKRSP_ERRCODE
      2296**DCL      6016<<ASSIGN   6018<<ASSIGN
S_D.CURRENT_CHANNEL
      2409**DCL      2411--REDEF
S_D.CURRENT_FPRG_CONTEXT$
      1609**DCL      6028<<ASSIGN
S_D.DEBUGA
      1561**DCL      1563--REDEF
S_D.DEBUG_CMD
      1981**DCL      6043>>IF
S_D.DRTN$
      2014**DCL      5964>>ASSIGN   5974>>ASSIGN   5975>>CALL     5986>>ASSIGN   5987>>ASSIGN   6051>>ASSIGN
      6052>>ASSIGN   6055>>ASSIGN   6056>>ASSIGN
S_D.EIS
      2519**DCL      2548--REDEF
S_D.ERROR
      1490**DCL      5991<<ASSIGN   6003<<ASSIGN   6005<<ASSIGN
S_D.FAULT
PL6.E3A0      #004=DFA$STOP_FPRGS File=DFA$FPRG.:E05TSI                          TUE 07/29/97 14:32 Page:153
      1510**DCL      6022<<ASSIGN   6023>>IF       6036>>IF
S_D.FPRG_CONTEXT$
      1601**DCL      5961>>ASSIGN
S_D.HOST_MESSAGE_BUF_REMOTE
      2452**DCL      2453--REDEF    2467--REDEF
S_D.JDE
      2066**DCL      2067--REDEF
S_D.L$.VALUE
      1619**DCL      1625--REDEF    1633--REDEF    1636--REDEF    1639--REDEF    1642--REDEF
S_D.L$.VALUE.L
      1620**DCL      1621--REDEF    1622--REDEF
S_D.L6_MESSAGE_BUF
      2473**DCL      2475--REDEF
S_D.MBU
      2302**DCL      6020<<ASSIGN
S_D.OUTPUT
      2439**DCL      2441--REDEF
S_D.REMOTE_MSG.FNCC
      2458**DCL      2459--REDEF
S_D.REMOTE_MSG.STXC
      2454**DCL      2455--REDEF
S_D.REMOTE_MSG.SUBFNCC
      2462**DCL      2463--REDEF
S_D.SCREECH_IC
      2310**DCL      6000<<REMEMBR
S_D.SV
      1518**DCL      1539--REDEF
S_D.USERNO
      2298**DCL      6019<<ASSIGN
S_D$
      2770**DCL      1466--IMP-PTR  5961>>ASSIGN   5964>>ASSIGN   5974>>ASSIGN   5975>>CALL     5986>>ASSIGN
      5987>>ASSIGN   5991>>ASSIGN   6000>>REMEMBR  6003>>ASSIGN   6005>>ASSIGN   6016>>ASSIGN   6018>>ASSIGN
      6019>>ASSIGN   6020>>ASSIGN   6022>>ASSIGN   6023>>IF       6028>>ASSIGN   6036>>IF       6043>>IF
      6051>>ASSIGN   6052>>ASSIGN   6055>>ASSIGN   6056>>ASSIGN
S_D_HOST_MESSAGE$
      2806**DCL      3149--IMP-PTR  6018>>ASSIGN
PL6.E3A0      #004=DFA$STOP_FPRGS File=DFA$FPRG.:E05TSI                          TUE 07/29/97 14:32 Page:154
S_D_L6_MESSAGE$
      2807**DCL      2993--IMP-PTR  5966>>ASSIGN   5967>>ASSIGN   5983>>IF       5983>>IF       5988>>IF
      6011>>ASSIGN   6019>>ASSIGN   6020>>ASSIGN   6021>>ASSIGN   6022>>ASSIGN   6029>>ASSIGN
TEMP$
        18**DCL        19--REDEF      20--REDEF
TEMP1
        19**DCL      6011<<ASSIGN
TEMP1B.B1
        22**DCL      6012>>ASSIGN
TEMP1B.B2
        23**DCL      6013>>ASSIGN
TEMP1B.B3
        24**DCL      6014>>ASSIGN
TEMP1B.B4
        25**DCL      6015>>ASSIGN
TEMP2
        26**DCL        27--REDEF    6016>>ASSIGN
TEMP2B.B1
        29**DCL      6012<<ASSIGN
TEMP2B.B2
        31**DCL      6013<<ASSIGN
TEMP2B.B3
        33**DCL      6014<<ASSIGN
TEMP2B.B4
        35**DCL      6015<<ASSIGN
TFPRG$
        15**DCL      5961<<ASSIGN   5963<<ASSIGN   5965>>DOWHILE  5968>>IF       5968>>IF       5971>>IF
      5972<>CALL     5974>>ASSIGN   5978>>ASSIGN   5979>>IF       5980>>ASSIGN   5981<>CALL     5988>>IF
      6009>>IF       6024>>ASSIGN   6025>>ASSIGN   6028>>ASSIGN   6030>>CALL     6031>>IF       6048<<ASSIGN
      6048>>ASSIGN
PL6.E3A0      #004=DFA$STOP_FPRGS File=DFA$FPRG.:E05TSI                          TUE 07/29/97 14:32 Page:155
              *** CROSS REFERENCE LISTING ***
    **     DENOTES     IDENTIFIER DEFINITION
    <<                 IDENTIFIER'S VALUE SET
    >>                 IDENTIFIER'S VALUE USED
    <>                 IDENTIFIER SET AND/OR USED
    --                 IDENTIFIER REFERENCED
PL6.E3A0      #004=DFA$STOP_FPRGS File=DFA$FPRG.:E05TSI                          TUE 07/29/97 14:32 Page:156
              MINI UREF LISTING

DFA$STOP_FPRGS       6**PROC
M$ACCT    3475**DCL-ENT
M$ACTIVATE    3478**DCL-ENT
M$ALIB    3471**DCL-ENT
M$ASUSER    3473**DCL-ENT
M$ATTACH    3480**DCL-ENT
M$BADPP    3498**DCL-ENT
M$CGCTL    3479**DCL-ENT
M$CGINFO    3479**DCL-ENT
M$CHECK    3460**DCL-ENT
M$CHGUNIT    3518**DCL-ENT
M$CLOSE    3458**DCL-ENT
M$CLRSTK    3516**DCL-ENT
M$CMDVAR    3527**DCL-ENT
M$CONFIG    3488**DCL-ENT
M$CORRES    3463**DCL-ENT
M$CPEXIT    3472**DCL-ENT
M$CVM    3496**DCL-ENT
M$CVOL    3461**DCL-ENT
M$DCLFLD    3488**DCL-ENT
M$DEACTIVATE    3478**DCL-ENT
M$DELREC    3460**DCL-ENT
M$DEQ    3525**DCL-ENT
M$DETACH    3480**DCL-ENT
M$DEVICE    3462**DCL-ENT
M$DISPLAY    3525**DCL-ENT
M$DISPRES    3465**DCL-ENT
M$DLIB    3471**DCL-ENT
M$DRIBBLE    3488**DCL-ENT
M$DSUSER    3473**DCL-ENT
M$ENQ    3524**DCL-ENT
M$EOM    3483**DCL-ENT
PL6.E3A0      #004=DFA$STOP_FPRGS File=DFA$FPRG.:E05TSI                          TUE 07/29/97 14:32 Page:157
M$ERASE    3489**DCL-ENT
M$ERR    3470**DCL-ENT
M$ERRMSG    3521**DCL-ENT
M$EVENT    3513**DCL-ENT
M$EXHUME    3522**DCL-ENT
M$EXIT    3470**DCL-ENT
M$EXTEND    3462**DCL-ENT
M$FDP    3494**DCL-ENT
M$FDS    3493**DCL-ENT
M$FEBOOT    3486**DCL-ENT
M$FECTL    3487**DCL-ENT
M$FEDUMP    3486**DCL-ENT
M$FID    3521**DCL-ENT
M$FINDPROC    3475**DCL-ENT
M$FSUSER    3473**DCL-ENT
M$FVP    3495**DCL-ENT
M$FWCG    3479**DCL-ENT
M$GBPL    3499**DCL-ENT
M$GDDL    3495**DCL-ENT
M$GDP    3494**DCL-ENT
M$GDS    3493**DCL-ENT
M$GETDCB    3464**DCL-ENT
M$GETMOUSE    3504**DCL-ENT
M$GETPM    3505**DCL-ENT
M$GJOB    3523**DCL-ENT
M$GLINEATTR    3483**DCL-ENT
M$GOODPP    3498**DCL-ENT
M$GPLATEN    3491**DCL-ENT
M$GPROMPT    3490**DCL-ENT
M$GTRMATTR    3484**DCL-ENT
M$GTRMCTL    3482**DCL-ENT
M$GTRMTAB    3485**DCL-ENT
M$GVP    3494**DCL-ENT
M$HELP    3521**DCL-ENT
M$INT    3513**DCL-ENT
M$INTRTN    3474**DCL-ENT
PL6.E3A0      #004=DFA$STOP_FPRGS File=DFA$FPRG.:E05TSI                          TUE 07/29/97 14:32 Page:158
M$IOQ    3509**DCL-ENT
M$JOBSTATS    3523**DCL-ENT
M$KEYIN    3463**DCL-ENT
M$LDEV    3458**DCL-ENT
M$LDTRC    3471**DCL-ENT
M$LIMIT    3464**DCL-ENT
M$LINES    3463**DCL-ENT
M$LINK    3470**DCL-ENT
M$MADMUCK    3466**DCL-ENT
M$MAKUSER    3497**DCL-ENT
M$MBS    3465**DCL-ENT
M$MDFFLD    3489**DCL-ENT
M$MERC    3514**DCL-ENT
M$MERCS    3515**DCL-ENT
M$MIRROR    3509**DCL-ENT
M$MONINFO    3526**DCL-ENT
M$MPL    3499**DCL-ENT
M$NODEINFO    3490**DCL-ENT
M$NXTUSR    3524**DCL-ENT
M$OCMSG    3522**DCL-ENT
M$OLAY    3470**DCL-ENT
M$OPEN    3458**DCL-ENT
M$PAS    3499**DCL-ENT
M$PATHCON    3522**DCL-ENT
M$PDS    3493**DCL-ENT
M$PFIL    3460**DCL-ENT
M$PLATEN    3484**DCL-ENT
M$PRECORD    3462**DCL-ENT
M$PROCNAME    3475**DCL-ENT
M$PROFILE    3486**DCL-ENT
M$PROMPT    3482**DCL-ENT
M$RACST    3466**DCL-ENT
M$RDSYSLOG    3507**DCL-ENT
M$READ    3459**DCL-ENT
M$RELDCB    3464**DCL-ENT
M$RELRES    3465**DCL-ENT
PL6.E3A0      #004=DFA$STOP_FPRGS File=DFA$FPRG.:E05TSI                          TUE 07/29/97 14:32 Page:159
M$RELSTARF    3467**DCL-ENT
M$REM    3467**DCL-ENT
M$RENV    3514**DCL-ENT
M$REQUIRE    3466**DCL-ENT
M$RETRY    3515**DCL-ENT
M$RETRYS    3515**DCL-ENT
M$REW    3461**DCL-ENT
M$RLSFLD    3489**DCL-ENT
M$RPRIV    3517**DCL-ENT
M$RSPP    3496**DCL-ENT
M$RSWITCH    3518**DCL-ENT
M$RUE    3524**DCL-ENT
M$SAD    3497**DCL-ENT
M$SAVE    3473**DCL-ENT
M$SCON    3474**DCL-ENT
M$SENV    3514**DCL-ENT
M$SETFMA    3458**DCL-ENT
M$SETFP    3487**DCL-ENT
M$SINPUT    3485**DCL-ENT
M$SLCFLD    3490**DCL-ENT
M$SMOUSE    3504**DCL-ENT
M$SMPRT    3496**DCL-ENT
M$SPRIV    3517**DCL-ENT
M$SSC    3497**DCL-ENT
M$SSWITCH    3517**DCL-ENT
M$STATE    3526**DCL-ENT
M$STD    3498**DCL-ENT
M$STIMER    3512**DCL-ENT
M$STLPP    3495**DCL-ENT
M$STRAP    3512**DCL-ENT
M$STRMATTR    3484**DCL-ENT
M$STRMCTL    3482**DCL-ENT
M$STRMTAB    3485**DCL-ENT
M$SYMBIO    3523**DCL-ENT
M$SYSCON    3509**DCL-ENT
M$SYSID    3527**DCL-ENT
PL6.E3A0      #004=DFA$STOP_FPRGS File=DFA$FPRG.:E05TSI                          TUE 07/29/97 14:32 Page:160
M$TDCLOSE    3508**DCL-ENT
M$TDIO    3508**DCL-ENT
M$TDOPEN    3507**DCL-ENT
M$TDREQCPU    3508**DCL-ENT
M$TEMPWROC    3502**DCL-ENT
M$TIME    3525**DCL-ENT
M$TRAP    3512**DCL-ENT
M$TRMISC    3487**DCL-ENT
M$TRMPRG    3483**DCL-ENT
M$TRTN    3516**DCL-ENT
M$TRUNC    3459**DCL-ENT
M$TTIMER    3512**DCL-ENT
M$UC    3482**DCL
M$UMPL    3499**DCL-ENT
M$UNFID    3521**DCL-ENT
M$UNLATCH    3478**DCL-ENT
M$UNSHARE    3475**DCL-ENT
M$USRFIELD    3518**DCL-ENT
M$VIRTUAL    3493**DCL-ENT
M$WAIT    3516**DCL-ENT
M$WEOF    3461**DCL-ENT
M$WRITE    3459**DCL-ENT
M$WRSYSLOG    3507**DCL-ENT
M$XCON    3513**DCL-ENT
M$XCONRTN    3474**DCL-ENT
M$XEQTIME    3526**DCL-ENT
M$XFLUSH    3467**DCL-ENT
M$XMOUSE    3504**DCL-ENT
M$XXX    3470**DCL-ENT
M$YC    3472**DCL-ENT
SC_MESSAGE    3572**DCL
S_D_ACCESS$    2785**DCL
S_D_ANLZ$    2787**DCL
S_D_ASTACKOFF$    2786**DCL
S_D_BREAK$    2788**DCL
S_D_DO_SCAN$    2789**DCL
PL6.E3A0      #004=DFA$STOP_FPRGS File=DFA$FPRG.:E05TSI                          TUE 07/29/97 14:32 Page:161
S_D_ERROR$    2790**DCL
S_D_FAULTCMD$$    2791**DCL
S_D_FAULTINS$$    2792**DCL
S_D_GOIC$    2793**DCL
S_D_GO_MODE$    2794**DCL
S_D_HW_PTB_UNITS$    2810**DCL
S_D_HW_RES_MEM$    2808**DCL
S_D_HW_WSQ0PT$    2809**DCL
S_D_IPRFLT$    2796**DCL
S_D_IXFIX$    2795**DCL
S_D_REM_ACCESS$    2797**DCL
S_D_REM_DISKBOOT$    2799**DCL
S_D_REM_DO_SCAN$    2798**DCL
S_D_RETURNN$    2800**DCL
S_D_SAD$    2801**DCL
S_D_SAVEIC$    2802**DCL
S_D_SEG$    2784**DCL
S_D_TCB$$    2803**DCL
S_D_UREG$$    2804**DCL
S_D_USS$$    2805**DCL
