VERSION E05

PL6.E3A0      #001=DFA$KEEP File=DFA$KEEP.:E05TSI                                TUE 07/29/97 14:33 Page:1
        1        1        /*M* DFA$KEEP  -  PROCESS KEEP/TRAP/IGNORE for FEP programs */
        2        2        /*T***********************************************************/
        3        3        /*T*                                                         */
        4        4        /*T* Copyright (c) Bull HN Information Systems Inc., 1997    */
        5        5        /*T*                                                         */
        6        6        /*T***********************************************************/
        7        7        /*X* CCC,DMR,PLM=5,IND=5,CSU=3,EXM=0,ECU=3,MOC,DCI=5,CRT=5 */
        8        8        /*P* NAME: DFA$KEEP.
        9        9             DESCRIPTION. SET OPTIONS IN S_D.TRAP/KEEP/IGNORE OR THE
       10       10                  IN THE CONTEXT FOR A SPECIFIED FPRG FROM
       11       11                  THE OPTIONS GIVEN IN THE COMMAND FRAME. ANY OPTION CAN
       12       12                  APPEAR IN ONLY ONE TYPE, ANY NOT MENTIONED IN TRAP OR IGNORE
       13       13                  ARE PUT IN KEEP. */
       14       14                                                /**/
       15       15        DFA$KEEP: PROC ALTRET;
       16       16        %INCLUDE DD_ERR_C;
       17      413        %INCLUDE DD$BASED;
       18     1716        %KEEP$CMD;
       19     1735        %FPRG$CONTEXT;
       20     1798        %INCLUDE XUH_MACRO_C;
       21     1882        %INCLUDE DD_SD_M;
       22     3218        %S_D;
       23     4536        %S_D_PTRS;
       24     4573        %INCLUDE GD$MSG_M;
       25     4737        %GD$MSG(FPTN=GD$MSG,STCLASS="BASED(S_D_L6_MESSAGE$)",L6=YES,L6PTR="UBIN(32) UNAL");
       26     4893        %INCLUDE GD_EQUS_E;
       27     5054        %INCLUDE DD_SUBS_C;
       28     5325        %INCLUDE CP_6;
       29     5406        %INCLUDE DU_SCODE_C;
       30     5419        %FPT_SCREECH(FPTN=SNAP_MESSAGE,STCLASS=CONSTANT,SCODE=SC_MESSAGE);
       31     5433        %VLP_SCODE(FPTN=SC_MESSAGE, STCLASS=CONSTANT, FCG=DU, MID=X, MON=NO,
       32     5434                   CODE=%S$DUMESSAGE, SEV=SEV_SNAP, CUSR=YES, ROSEG=YES,
       33     5435                   ISEG=YES, DDSEG=YES, DBSEG=YES, ASLSEG=YES);
       34     5496        /* Local auto */
       35     5497    1   DCL TFPRG$ PTR;
       36     5498    1   DCL DDE$ERROR ENTRY;
       37     5499    1   DCL DFQ$WRITE_FD ENTRY(1) ALTRET;
PL6.E3A0      #001=DFA$KEEP File=DFA$KEEP.:E05TSI                                TUE 07/29/97 14:33 Page:2
       38     5500    1   DCL DFQ$READ_FD ENTRY(2) ALTRET;
       39     5501    1   DCL DUE$ERRMSG   ENTRY;
       40     5502                                                /**/
       41     5503    1        REMEMBER ERR IN S_D.SCREECH_IC;
       42     5504    1        IF S_D.DO$ -> KEEP$CMD.HOST
       43     5505    1        THEN CALL DO_HOST;
       44     5506    1        ELSE IF S_D.DO$ -> KEEP$CMD.FPRG
       45     5507    2             THEN DO;
       46     5508    2                  TFPRG$ = S_D.FPRG_CONTEXT$;
       47     5509    2                  IF TFPRG$ = ADDR(NIL)
       48     5510    3                  THEN DO;
       49     5511    3                       S_D.ERROR = E@NOFPRG; /* E@NOFPRG */
       50     5512    3                       GOTO ERR;
       51     5513    3                     END;
       52     5514    3                  DO WHILE (TFPRG$ -> FPRG$CONTEXT.RES ~= S_D.DO$ -> KEEP$CMD.FPRG_RES)
              5514                           ;
       53     5515    3                       TFPRG$ = TFPRG$ -> FPRG$CONTEXT.NEXT$;
       54     5516    3                       IF TFPRG$ = ADDR(NIL)
       55     5517    4                       THEN DO;
       56     5518    4                            S_D.ERROR = E@NOFPRG; /* E@NOFPRG */
       57     5519    4                            GOTO ERR;
       58     5520    4                          END;
       59     5521    3                     END;
       60     5522    2                  CALL DO_FPRG;
       61     5523    2                END;
       62     5524    2             ELSE DO;
       63     5525    2                  CALL DO_HOST;
       64     5526    2                  IF S_D.FPRG_CONTEXT$ = ADDR(NIL)
       65     5527    3                  THEN DO;
       66     5528    3                       S_D.ERROR = E@NOFPRG; /* E@NOFPRG */
       67     5529    3                       GOTO ERR;
       68     5530    3                     END;
       69     5531    2                  TFPRG$ = S_D.FPRG_CONTEXT$;
       70     5532    3                  DO WHILE(TFPRG$ ~= ADDR(NIL));
       71     5533    3                       CALL DO_FPRG;
       72     5534    3                       TFPRG$ = TFPRG$ -> FPRG$CONTEXT.NEXT$;
       73     5535    3                     END;
PL6.E3A0      #001=DFA$KEEP File=DFA$KEEP.:E05TSI                                TUE 07/29/97 14:33 Page:3
       74     5536    2                END;
       75     5537    1        RETURN;
       76     5538    1   ERR: ;
       77     5539    1        ALTRETURN;
       78     5540        %EJECT;
PL6.E3A0      #001=DFA$KEEP File=DFA$KEEP.:E05TSI                                TUE 07/29/97 14:33 Page:4
       79     5541    1   DO_HOST:PROC;
       80     5542    2        IF S_D.DO$->KEEP$CMD.CMD= C_KEEP   /* C_KEEP */
       81     5543    3        THEN DO;
       82     5544    3             S_D.TRAP = S_D.TRAP & ~S_D.DO$->KEEP$CMD.OPTIONS;
       83     5545    3             S_D.IGNORE = S_D.IGNORE & ~S_D.DO$->KEEP$CMD.OPTIONS;
       84     5546    3           END;
       85     5547    2        ELSE IF S_D.DO$->KEEP$CMD.CMD= C_TRAP /* C_TRAP */
       86     5548    3             THEN DO;
       87     5549    3                  S_D.TRAP = S_D.DO$->KEEP$CMD.OPTIONS;
       88     5550    3                  S_D.IGNORE = S_D.IGNORE & ~S_D.DO$->KEEP$CMD.OPTIONS;
       89     5551    3                END;
       90     5552    2             ELSE IF S_D.DO$->KEEP$CMD.CMD= C_IGNORE /* C_IGNORE */
       91     5553    3                  THEN DO;
       92     5554    3                       S_D.IGNORE = S_D.DO$->KEEP$CMD.OPTIONS;
       93     5555    3                       S_D.TRAP = S_D.TRAP & ~S_D.DO$->KEEP$CMD.OPTIONS;
       94     5556    3                     END;
       95     5557    3                  ELSE DO;
       96     5558    3                       S_D.ERROR = E@DELBUG; /* E@DELBUG */
       97     5559    3                       CALL DDE$ERROR;
       98     5560    3                       RETURN;
       99     5561    3                     END;
      100     5562    2        S_D.KEEP = ~(S_D.TRAP | S_D.IGNORE); /* Put all else in keep */
      101     5563    2        RETURN;
      102     5564    2   END;
      103     5565        %EJECT;
PL6.E3A0      #001=DFA$KEEP File=DFA$KEEP.:E05TSI                                TUE 07/29/97 14:33 Page:5
      104     5566    1   DO_FPRG: PROC;
      105     5567    2        GD$MSG = '0'B;
      106     5568    2        GD$MSG.FNC = %GD#RQSKTI;
      107     5569    2        IF S_D.DO$->KEEP$CMD.CMD= C_KEEP   /* C_KEEP */
      108     5570    3        THEN DO;
      109     5571    3             TFPRG$ -> FPRG$CONTEXT.TRAP = TFPRG$ -> FPRG$CONTEXT.TRAP & ~S_D.DO$->
              5571                      KEEP$CMD.L6_OPTIONS;
      110     5572    3             TFPRG$ -> FPRG$CONTEXT.IGNORE = TFPRG$ -> FPRG$CONTEXT.IGNORE & ~S_D.DO$->
              5572                      KEEP$CMD.L6_OPTIONS;
      111     5573    3             GD$MSG.KTI.CMD_TYPE = %GD#KEEP_CMD;
      112     5574    3           END;
      113     5575    2        ELSE IF S_D.DO$->KEEP$CMD.CMD= C_TRAP /* C_TRAP */
      114     5576    3             THEN DO;
      115     5577    3                  TFPRG$ -> FPRG$CONTEXT.TRAP = S_D.DO$->KEEP$CMD.L6_OPTIONS;
      116     5578    3                  TFPRG$ -> FPRG$CONTEXT.IGNORE = TFPRG$ -> FPRG$CONTEXT.IGNORE & ~S_D.
              5578                           DO$->KEEP$CMD.L6_OPTIONS;
      117     5579    3                  GD$MSG.KTI.CMD_TYPE = %GD#TRAP_CMD;
      118     5580    3                END;
      119     5581    2             ELSE IF S_D.DO$->KEEP$CMD.CMD= C_IGNORE /* C_IGNORE */
      120     5582    3                  THEN DO;
      121     5583    3                       TFPRG$ -> FPRG$CONTEXT.IGNORE = S_D.DO$->KEEP$CMD.L6_OPTIONS;
      122     5584    3                       TFPRG$ -> FPRG$CONTEXT.TRAP = TFPRG$ -> FPRG$CONTEXT.TRAP & ~S_D
              5584                                .DO$->KEEP$CMD.L6_OPTIONS;
      123     5585    3                       GD$MSG.KTI.CMD_TYPE = %GD#IGNORE_CMD;
      124     5586    3                     END;
      125     5587    3                  ELSE DO;
      126     5588    3                       S_D.ERROR = E@DELBUG; /* E@DELBUG */
      127     5589    3                       CALL DDE$ERROR;
      128     5590    3                       RETURN;
      129     5591    3                     END;
      130     5592    2        TFPRG$ -> FPRG$CONTEXT.KEEP = ~(TFPRG$ -> FPRG$CONTEXT.TRAP | TFPRG$ ->
              5592                 FPRG$CONTEXT.IGNORE); /* Put all else in keep */
      131     5593    2        GD$MSG.KTI.TRAP = TFPRG$ -> FPRG$CONTEXT.TRAP;
      132     5594    2        GD$MSG.KTI.KEEP = TFPRG$ -> FPRG$CONTEXT.KEEP;
      133     5595    2        GD$MSG.KTI.IGNORE = TFPRG$ -> FPRG$CONTEXT.IGNORE;
      134     5596    2        CALL DFQ$WRITE_FD (TFPRG$) ALTRET(ERRMSG);
      135     5597    2        CALL DFQ$READ_FD (TFPRG$, '0'B) ALTRET(ERRMSG);
PL6.E3A0      #001=DFA$KEEP File=DFA$KEEP.:E05TSI                                TUE 07/29/97 14:33 Page:6
      136     5598    2        IF GD$MSG.FNC ~= %GD#RSPACK
      137     5599    3        THEN DO;
      138     5600    3             CALL M$SCREECH (SNAP_MESSAGE) ALTRET(NEVER);
      139     5601    3   NEVER:
      140     5602    3             S_D.ERROR = E@BADMESSAGE;     /* E@BADMESSAGE */
      141     5603    3             CALL DDE$ERROR;
      142     5604    3             S_D.ERROR = E@DELBUG;         /* E@DELBUG */
      143     5605    3             CALL DDE$ERROR;
      144     5606    3           END;
      145     5607    2        RETURN;
      146     5608    2   ERRMSG: ;
      147     5609    2        CALL DUE$ERRMSG;
      148     5610    2        RETURN;
      149     5611    2   END;
      150     5612    1   END DFA$KEEP;

PL6.E3A0      #001=DFA$KEEP File=DFA$KEEP.:E05TSI                                TUE 07/29/97 14:33 Page:7
--  Include file information  --

   DU_SCODE_C.:E05TOU  is referenced.
   CP_6.:E05TOU  cannot be made into a system file and is referenced.
   DD_SUBS_C.:E05TOU  is referenced.
   GD_EQUS_E.:E05TOU  is referenced.
   GD$MSG_M.:E05TOU  is referenced.
   DD_SD_M.:E05TOU  is referenced.
   XUH_MACRO_C.:E05TOU  is referenced.
   DD$BASED.:E05TOU  is referenced.
   DD_ERR_C.:E05TOU  is referenced.
   B$JIT_C.:E05TOU  was found in the system file and is never referenced.
   CP_6_C.:E05TOU  was found in the system file and is referenced.
      No diagnostics issued in procedure DFA$KEEP.

   Procedure DFA$KEEP requires 275 words for executable code.
   Procedure DFA$KEEP requires 8 words of local(AUTO) storage.

    No errors detected in file DFA$KEEP.:E05TSI    .

PL6.E3A0      #001=DFA$KEEP File=DFA$KEEP.:E05TSI                                TUE 07/29/97 14:33 Page:8

 Object Unit name= DFA$KEEP                                   File name= DFA$KEEP.:E05TOU
 UTS= JUL 29 '97 14:33:45.40 TUE                              Compiler= PL-6/E31         Sev=      00
 SharedLib= :SHARED_SYSTEM                                    Alt SharedLib=


    ****  Control sections  ****

 Sect   Type Bound  Init  Size OctSiz  Section name(segment info)
    0   DCB   even  none     0      0  M$UC
    1  RoData even  UTS      8     10  DFA$KEEP
    2   Proc  even  none   275    423  DFA$KEEP
    3  RoData even  none     4      4  DFA$KEEP

    ****  Entry defs  ****

                              Check   Calling
                             calling  sequence
  Sect OctLoc Primary Altret sequence   type   Parms  Name
     2      0   yes    yes     yes      Std        0  DFA$KEEP

  ****  Entry refs  ****

         Check        Calling
        calling       sequence
Altret sequence SRef   type   Args  Name
         yes           Std       0 DDE$ERROR
 yes     yes           Std       1 DFQ$WRITE_FD
 yes     yes           Std       2 DFQ$READ_FD
         yes           Std       0 DUE$ERRMSG
                       nStd      0 X66_AUTO_0
                       Std       0 B_CONSPOOL_D
                       nStd      0 X66_ARET
                       nStd      0 X66_AALT
PL6.E3A0      #001=DFA$KEEP File=DFA$KEEP.:E05TSI                                TUE 07/29/97 14:33 Page:9

  ****  Data refs  ****

  Flags:  r = read only, s = secondary
Flgs Name                             Flgs Name                             Flgs Name
r    S_D$                             r    S_D_L6_MESSAGE$                       M$UC
     B_VECTNIL

  ****  Segment refs  ****

  Flags:  r = read only, s = secondary
Flgs Name                             Flgs Name                             Flgs Name
     ISSID                                 NULLSID
PL6.E3A0      #001=DFA$KEEP File=DFA$KEEP.:E05TSI                                TUE 07/29/97 14:33 Page:10


        1        1        /*M* DFA$KEEP  -  PROCESS KEEP/TRAP/IGNORE for FEP programs */
        2        2        /*T***********************************************************/
        3        3        /*T*                                                         */
        4        4        /*T* Copyright (c) Bull HN Information Systems Inc., 1997    */
        5        5        /*T*                                                         */
        6        6        /*T***********************************************************/
        7        7        /*X* CCC,DMR,PLM=5,IND=5,CSU=3,EXM=0,ECU=3,MOC,DCI=5,CRT=5 */
        8        8        /*P* NAME: DFA$KEEP.
        9        9             DESCRIPTION. SET OPTIONS IN S_D.TRAP/KEEP/IGNORE OR THE
       10       10                  IN THE CONTEXT FOR A SPECIFIED FPRG FROM
       11       11                  THE OPTIONS GIVEN IN THE COMMAND FRAME. ANY OPTION CAN
       12       12                  APPEAR IN ONLY ONE TYPE, ANY NOT MENTIONED IN TRAP OR IGNORE
       13       13                  ARE PUT IN KEEP. */
       14       14                                                /**/
       15       15        DFA$KEEP: PROC ALTRET;

     15  2 000000   000000 700200 xent  DFA$KEEP     TSX0  ! X66_AUTO_0
         2 000001   000010 000000                    ZERO    8,0

       16       16        %INCLUDE DD_ERR_C;
       17      413        %INCLUDE DD$BASED;
       18     1716        %KEEP$CMD;
       19     1735        %FPRG$CONTEXT;
       20     1798        %INCLUDE XUH_MACRO_C;
       21     1882        %INCLUDE DD_SD_M;
       22     3218        %S_D;
       23     4536        %S_D_PTRS;
       24     4573        %INCLUDE GD$MSG_M;
       25     4737        %GD$MSG(FPTN=GD$MSG,STCLASS="BASED(S_D_L6_MESSAGE$)",L6=YES,L6PTR="UBIN(32) UNAL");
       26     4893        %INCLUDE GD_EQUS_E;
       27     5054        %INCLUDE DD_SUBS_C;
       28     5325        %INCLUDE CP_6;
       29     5406        %INCLUDE DU_SCODE_C;
       30     5419        %FPT_SCREECH(FPTN=SNAP_MESSAGE,STCLASS=CONSTANT,SCODE=SC_MESSAGE);
       31     5433        %VLP_SCODE(FPTN=SC_MESSAGE, STCLASS=CONSTANT, FCG=DU, MID=X, MON=NO,
       32     5434                   CODE=%S$DUMESSAGE, SEV=SEV_SNAP, CUSR=YES, ROSEG=YES,
PL6.E3A0      #001=DFA$KEEP File=DFA$KEEP.:E05TSI                                TUE 07/29/97 14:33 Page:11
       33     5435                   ISEG=YES, DDSEG=YES, DBSEG=YES, ASLSEG=YES);
       34     5496        /* Local auto */
       35     5497    1   DCL TFPRG$ PTR;
       36     5498    1   DCL DDE$ERROR ENTRY;
       37     5499    1   DCL DFQ$WRITE_FD ENTRY(1) ALTRET;
       38     5500    1   DCL DFQ$READ_FD ENTRY(2) ALTRET;
       39     5501    1   DCL DUE$ERRMSG   ENTRY;
       40     5502                                                /**/
       41     5503    1        REMEMBER ERR IN S_D.SCREECH_IC;

   5503  2 000002   000101 635000 2                  EAA     ERR
         2 000003   000000 470400 xsym               LDP0    S_D$
         2 000004   005250 452500                    STP2    2728,,PR0
         2 000005   005251 755100                    STA     2729,,PR0

       42     5504    1        IF S_D.DO$ -> KEEP$CMD.HOST

   5504  2 000006   000031 471500                    LDP1    25,,PR0
         2 000007   100001 236100                    LDQ     1,,PR1
         2 000010   200000 316003                    CANQ    65536,DU
         2 000011   000015 600000 2                  TZE     s:5506

       43     5505    1        THEN CALL DO_HOST;

   5505  2 000012   000102 701000 2                  TSX1    DO_HOST
         2 000013   000000 011000                    NOP     0
         2 000014   000100 710000 2                  TRA     s:5537

       44     5506    1        ELSE IF S_D.DO$ -> KEEP$CMD.FPRG

   5506  2 000015   100000 316003                    CANQ    32768,DU
         2 000016   000056 600000 2                  TZE     s:5525

       45     5507    2             THEN DO;

       46     5508    2                  TFPRG$ = S_D.FPRG_CONTEXT$;

PL6.E3A0      #001=DFA$KEEP File=DFA$KEEP.:E05TSI                                TUE 07/29/97 14:33 Page:12
   5508  2 000017   000076 236100                    LDQ     62,,PR0
         2 000020   200003 756100                    STQ     TFPRG$,,AUTO

       47     5509    2                  IF TFPRG$ = ADDR(NIL)

   5509  2 000021   000001 116000 xsym               CMPQ    B_VECTNIL+1
         2 000022   000026 601000 2                  TNZ     s:5514

       48     5510    3                  THEN DO;

       49     5511    3                       S_D.ERROR = E@NOFPRG; /* E@NOFPRG */

   5511  2 000023   000426 235007                    LDA     278,DL
         2 000024   000013 755100                    STA     11,,PR0

       50     5512    3                       GOTO ERR;

   5512  2 000025   000101 710000 2                  TRA     ERR

       51     5513    3                     END;
       52     5514    3                 DO WHILE (TFPRG$ -> FPRG$CONTEXT.RES ~= S_D.DO$ -> KEEP$CMD.FPRG_RES)
              5514                           ;

   5514  2 000026   200003 473500                    LDP3    TFPRG$,,AUTO
         2 000027   040100 106500                    CMPC    fill='040'O
         2 000030   300002 000010                    ADSC9   2,,PR3                   cn=0,n=8
         2 000031   100003 000010                    ADSC9   3,,PR1                   cn=0,n=8
         2 000032   000053 600000 2                  TZE     s:5522

       53     5515    3                       TFPRG$ = TFPRG$ -> FPRG$CONTEXT.NEXT$;

   5515  2 000033   200003 470500                    LDP0    TFPRG$,,AUTO
         2 000034   000000 236100                    LDQ     0,,PR0
         2 000035   200003 756100                    STQ     TFPRG$,,AUTO

       54     5516    3                       IF TFPRG$ = ADDR(NIL)

PL6.E3A0      #001=DFA$KEEP File=DFA$KEEP.:E05TSI                                TUE 07/29/97 14:33 Page:13
   5516  2 000036   000001 116000 xsym               CMPQ    B_VECTNIL+1
         2 000037   000044 601000 2                  TNZ     s:5521

       55     5517    4                       THEN DO;

       56     5518    4                            S_D.ERROR = E@NOFPRG; /* E@NOFPRG */

   5518  2 000040   000426 235007                    LDA     278,DL
         2 000041   000000 470400 xsym               LDP0    S_D$
         2 000042   000013 755100                    STA     11,,PR0

       57     5519    4                            GOTO ERR;

   5519  2 000043   000101 710000 2                  TRA     ERR

       58     5520    4                          END;
       59     5521    3                     END;

   5521  2 000044   000000 470400 xsym               LDP0    S_D$
         2 000045   000031 471500                    LDP1    25,,PR0
         2 000046   200003 473500                    LDP3    TFPRG$,,AUTO
         2 000047   040100 106500                    CMPC    fill='040'O
         2 000050   300002 000010                    ADSC9   2,,PR3                   cn=0,n=8
         2 000051   100003 000010                    ADSC9   3,,PR1                   cn=0,n=8
         2 000052   000033 601000 2                  TNZ     s:5515

       60     5522    2                  CALL DO_FPRG;

   5522  2 000053   000160 701000 2                  TSX1    DO_FPRG
         2 000054   000000 011000                    NOP     0

       61     5523    2                END;

   5523  2 000055   000100 710000 2                  TRA     s:5537

       62     5524    2             ELSE DO;

PL6.E3A0      #001=DFA$KEEP File=DFA$KEEP.:E05TSI                                TUE 07/29/97 14:33 Page:14
       63     5525    2                  CALL DO_HOST;

   5525  2 000056   000102 701000 2                  TSX1    DO_HOST
         2 000057   000000 011000                    NOP     0

       64     5526    2                  IF S_D.FPRG_CONTEXT$ = ADDR(NIL)

   5526  2 000060   000000 470400 xsym               LDP0    S_D$
         2 000061   000076 236100                    LDQ     62,,PR0
         2 000062   000001 116000 xsym               CMPQ    B_VECTNIL+1
         2 000063   000067 601000 2                  TNZ     s:5531

       65     5527    3                  THEN DO;

       66     5528    3                       S_D.ERROR = E@NOFPRG; /* E@NOFPRG */

   5528  2 000064   000426 235007                    LDA     278,DL
         2 000065   000013 755100                    STA     11,,PR0

       67     5529    3                       GOTO ERR;

   5529  2 000066   000101 710000 2                  TRA     ERR

       68     5530    3                     END;
       69     5531    2                  TFPRG$ = S_D.FPRG_CONTEXT$;

   5531  2 000067   200003 756100                    STQ     TFPRG$,,AUTO

       70     5532    3                  DO WHILE(TFPRG$ ~= ADDR(NIL));

   5532  2 000070   000076 710000 2                  TRA     s:5535

       71     5533    3                       CALL DO_FPRG;

   5533  2 000071   000160 701000 2                  TSX1    DO_FPRG
         2 000072   000000 011000                    NOP     0

PL6.E3A0      #001=DFA$KEEP File=DFA$KEEP.:E05TSI                                TUE 07/29/97 14:33 Page:15
       72     5534    3                       TFPRG$ = TFPRG$ -> FPRG$CONTEXT.NEXT$;

   5534  2 000073   200003 470500                    LDP0    TFPRG$,,AUTO
         2 000074   000000 236100                    LDQ     0,,PR0
         2 000075   200003 756100                    STQ     TFPRG$,,AUTO

       73     5535    3                     END;

   5535  2 000076   000001 116000 xsym               CMPQ    B_VECTNIL+1
         2 000077   000071 601000 2                  TNZ     s:5533

       74     5536    2                END;

       75     5537    1        RETURN;

   5537  2 000100   000000 702200 xent               TSX2  ! X66_ARET

   5534  2 000101                       ERR          null
       76     5538    1   ERR: ;
       77     5539    1        ALTRETURN;

   5539  2 000101   000000 702200 xent               TSX2  ! X66_AALT

       78     5540        %EJECT;
PL6.E3A0      #001=DFA$KEEP File=DFA$KEEP.:E05TSI                                TUE 07/29/97 14:33 Page:16
       79     5541    1   DO_HOST:PROC;

   5541  2 000102   200004 741300       DO_HOST      STX1  ! TFPRG$+1,,AUTO

       80     5542    2        IF S_D.DO$->KEEP$CMD.CMD= C_KEEP   /* C_KEEP */

   5542  2 000103   000000 470400 xsym               LDP0    S_D$
         2 000104   000031 471500                    LDP1    25,,PR0
         2 000105   100000 236100                    LDQ     0,,PR1
         2 000106   777000 376003                    ANQ     -512,DU
         2 000107   026000 116003                    CMPQ    11264,DU
         2 000110   000122 601000 2                  TNZ     s:5547

       81     5543    3        THEN DO;

       82     5544    3             S_D.TRAP = S_D.TRAP & ~S_D.DO$->KEEP$CMD.OPTIONS;

   5544  2 000111   100002 236100                    LDQ     2,,PR1
         2 000112   000027 676000 xsym               ERQ     B_VECTNIL+23
         2 000113   004730 376100                    ANQ     2520,,PR0
         2 000114   004730 756100                    STQ     2520,,PR0

       83     5545    3             S_D.IGNORE = S_D.IGNORE & ~S_D.DO$->KEEP$CMD.OPTIONS;

   5545  2 000115   100002 236100                    LDQ     2,,PR1
         2 000116   000027 676000 xsym               ERQ     B_VECTNIL+23
         2 000117   004731 376100                    ANQ     2521,,PR0
         2 000120   004731 756100                    STQ     2521,,PR0

       84     5546    3           END;

   5546  2 000121   000153 710000 2                  TRA     s:5562

       85     5547    2        ELSE IF S_D.DO$->KEEP$CMD.CMD= C_TRAP /* C_TRAP */

   5547  2 000122   107000 116003                    CMPQ    36352,DU
         2 000123   000133 601000 2                  TNZ     s:5552
PL6.E3A0      #001=DFA$KEEP File=DFA$KEEP.:E05TSI                                TUE 07/29/97 14:33 Page:17

       86     5548    3             THEN DO;

       87     5549    3                  S_D.TRAP = S_D.DO$->KEEP$CMD.OPTIONS;

   5549  2 000124   100002 236100                    LDQ     2,,PR1
         2 000125   004730 756100                    STQ     2520,,PR0

       88     5550    3                  S_D.IGNORE = S_D.IGNORE & ~S_D.DO$->KEEP$CMD.OPTIONS;

   5550  2 000126   100002 236100                    LDQ     2,,PR1
         2 000127   000027 676000 xsym               ERQ     B_VECTNIL+23
         2 000130   004731 376100                    ANQ     2521,,PR0
         2 000131   004731 756100                    STQ     2521,,PR0

       89     5551    3                END;

   5551  2 000132   000153 710000 2                  TRA     s:5562

       90     5552    2             ELSE IF S_D.DO$->KEEP$CMD.CMD= C_IGNORE /* C_IGNORE */

   5552  2 000133   021000 116003                    CMPQ    8704,DU
         2 000134   000144 601000 2                  TNZ     s:5558

       91     5553    3                  THEN DO;

       92     5554    3                       S_D.IGNORE = S_D.DO$->KEEP$CMD.OPTIONS;

   5554  2 000135   100002 236100                    LDQ     2,,PR1
         2 000136   004731 756100                    STQ     2521,,PR0

       93     5555    3                       S_D.TRAP = S_D.TRAP & ~S_D.DO$->KEEP$CMD.OPTIONS;

   5555  2 000137   100002 236100                    LDQ     2,,PR1
         2 000140   000027 676000 xsym               ERQ     B_VECTNIL+23
         2 000141   004730 376100                    ANQ     2520,,PR0
         2 000142   004730 756100                    STQ     2520,,PR0
PL6.E3A0      #001=DFA$KEEP File=DFA$KEEP.:E05TSI                                TUE 07/29/97 14:33 Page:18

       94     5556    3                     END;

   5556  2 000143   000153 710000 2                  TRA     s:5562

       95     5557    3                  ELSE DO;

       96     5558    3                       S_D.ERROR = E@DELBUG; /* E@DELBUG */

   5558  2 000144   000766 235007                    LDA     502,DL
         2 000145   000013 755100                    STA     11,,PR0

       97     5559    3                       CALL DDE$ERROR;

   5559  2 000146   000002 631400 xsym               EPPR1   B_VECTNIL+2
         2 000147   000000 701000 xent               TSX1    DDE$ERROR
         2 000150   000000 011000                    NOP     0

       98     5560    3                       RETURN;

   5560  2 000151   200004 221300                    LDX1  ! TFPRG$+1,,AUTO
         2 000152   000001 702211                    TSX2  ! 1,X1

       99     5561    3                     END;
      100     5562    2        S_D.KEEP = ~(S_D.TRAP | S_D.IGNORE); /* Put all else in keep */

   5562  2 000153   004730 236100                    LDQ     2520,,PR0
         2 000154   004731 276100                    ORQ     2521,,PR0
         2 000155   000027 676000 xsym               ERQ     B_VECTNIL+23
         2 000156   004727 756100                    STQ     2519,,PR0

      101     5563    2        RETURN;

   5563  2 000157   000001 702211                    TSX2  ! 1,X1

      102     5564    2   END;
      103     5565        %EJECT;
PL6.E3A0      #001=DFA$KEEP File=DFA$KEEP.:E05TSI                                TUE 07/29/97 14:33 Page:19
      104     5566    1   DO_FPRG: PROC;

   5566  2 000160   200004 741300       DO_FPRG      STX1  ! TFPRG$+1,,AUTO

      105     5567    2        GD$MSG = '0'B;

   5567  2 000161   000000 470400 xsym               LDP0    S_D_L6_MESSAGE$
         2 000162   003100 060400                    CSL     bolr='003'O
         2 000163   000002 000001 xsym               BDSC    B_VECTNIL+2              by=0,bit=0,n=1
         2 000164   000000 004720                    BDSC    0,,PR0                   by=0,bit=0,n=2512

      106     5568    2        GD$MSG.FNC = %GD#RQSKTI;

   5568  2 000165   000000 236100                    LDQ     0,,PR0
         2 000166   000000 376000 3                  ANQ     0
         2 000167   060000 276003                    ORQ     24576,DU
         2 000170   000000 756100                    STQ     0,,PR0

      107     5569    2        IF S_D.DO$->KEEP$CMD.CMD= C_KEEP   /* C_KEEP */

   5569  2 000171   000000 471400 xsym               LDP1    S_D$
         2 000172   100031 473500                    LDP3    25,,PR1
         2 000173   300000 236100                    LDQ     0,,PR3
         2 000174   777000 376003                    ANQ     -512,DU
         2 000175   026000 116003                    CMPQ    11264,DU
         2 000176   000234 601000 2                  TNZ     s:5575

      108     5570    3        THEN DO;

      109     5571    3             TFPRG$ -> FPRG$CONTEXT.TRAP = TFPRG$ -> FPRG$CONTEXT.TRAP & ~S_D.DO$->
              5571                      KEEP$CMD.L6_OPTIONS;

   5571  2 000177   300001 236100                    LDQ     1,,PR3
         2 000200   000003 736000                    QLS     3
         2 000201   770000 376003                    ANQ     -4096,DU
         2 000202   770000 676003                    ERQ     -4096,DU
         2 000203   200006 756100                    STQ     TFPRG$+3,,AUTO
PL6.E3A0      #001=DFA$KEEP File=DFA$KEEP.:E05TSI                                TUE 07/29/97 14:33 Page:20
         2 000204   200003 474500                    LDP4    TFPRG$,,AUTO
         2 000205   400061 236100                    LDQ     49,,PR4
         2 000206   000006 736000                    QLS     6
         2 000207   770000 376003                    ANQ     -4096,DU
         2 000210   200006 376100                    ANQ     TFPRG$+3,,AUTO
         2 000211   000006 772000                    QRL     6
         2 000212   400061 752120                    STCQ    49,'20'O,PR4

      110     5572    3            TFPRG$ -> FPRG$CONTEXT.IGNORE = TFPRG$ -> FPRG$CONTEXT.IGNORE & ~S_D.DO$->
              5572                      KEEP$CMD.L6_OPTIONS;

   5572  2 000213   100031 473500                    LDP3    25,,PR1
         2 000214   300001 236100                    LDQ     1,,PR3
         2 000215   000003 736000                    QLS     3
         2 000216   770000 376003                    ANQ     -4096,DU
         2 000217   770000 676003                    ERQ     -4096,DU
         2 000220   200006 756100                    STQ     TFPRG$+3,,AUTO
         2 000221   400061 236100                    LDQ     49,,PR4
         2 000222   000014 736000                    QLS     12
         2 000223   770000 376003                    ANQ     -4096,DU
         2 000224   200006 376100                    ANQ     TFPRG$+3,,AUTO
         2 000225   000014 772000                    QRL     12
         2 000226   400061 752110                    STCQ    49,'10'O,PR4

      111     5573    3             GD$MSG.KTI.CMD_TYPE = %GD#KEEP_CMD;

   5573  2 000227   000001 236100                    LDQ     1,,PR0
         2 000230   000001 376000 3                  ANQ     1
         2 000231   000100 276003                    ORQ     64,DU
         2 000232   000001 756100                    STQ     1,,PR0

      112     5574    3           END;

   5574  2 000233   000321 710000 2                  TRA     s:5592

      113     5575    2        ELSE IF S_D.DO$->KEEP$CMD.CMD= C_TRAP /* C_TRAP */

PL6.E3A0      #001=DFA$KEEP File=DFA$KEEP.:E05TSI                                TUE 07/29/97 14:33 Page:21
   5575  2 000234   107000 116003                    CMPQ    36352,DU
         2 000235   000263 601000 2                  TNZ     s:5581

      114     5576    3             THEN DO;

      115     5577    3                  TFPRG$ -> FPRG$CONTEXT.TRAP = S_D.DO$->KEEP$CMD.L6_OPTIONS;

   5577  2 000236   200003 474500                    LDP4    TFPRG$,,AUTO
         2 000237   300001 236100                    LDQ     1,,PR3
         2 000240   000003 772000                    QRL     3
         2 000241   400061 752120                    STCQ    49,'20'O,PR4

      116     5578    3                 TFPRG$ -> FPRG$CONTEXT.IGNORE = TFPRG$ -> FPRG$CONTEXT.IGNORE & ~S_D.
              5578                           DO$->KEEP$CMD.L6_OPTIONS;

   5578  2 000242   100031 473500                    LDP3    25,,PR1
         2 000243   300001 236100                    LDQ     1,,PR3
         2 000244   000003 736000                    QLS     3
         2 000245   770000 376003                    ANQ     -4096,DU
         2 000246   770000 676003                    ERQ     -4096,DU
         2 000247   200006 756100                    STQ     TFPRG$+3,,AUTO
         2 000250   400061 236100                    LDQ     49,,PR4
         2 000251   000014 736000                    QLS     12
         2 000252   770000 376003                    ANQ     -4096,DU
         2 000253   200006 376100                    ANQ     TFPRG$+3,,AUTO
         2 000254   000014 772000                    QRL     12
         2 000255   400061 752110                    STCQ    49,'10'O,PR4

      117     5579    3                  GD$MSG.KTI.CMD_TYPE = %GD#TRAP_CMD;

   5579  2 000256   000001 236100                    LDQ     1,,PR0
         2 000257   000001 376000 3                  ANQ     1
         2 000260   000200 276003                    ORQ     128,DU
         2 000261   000001 756100                    STQ     1,,PR0

      118     5580    3                END;

PL6.E3A0      #001=DFA$KEEP File=DFA$KEEP.:E05TSI                                TUE 07/29/97 14:33 Page:22
   5580  2 000262   000321 710000 2                  TRA     s:5592

      119     5581    2             ELSE IF S_D.DO$->KEEP$CMD.CMD= C_IGNORE /* C_IGNORE */

   5581  2 000263   021000 116003                    CMPQ    8704,DU
         2 000264   000312 601000 2                  TNZ     s:5588

      120     5582    3                  THEN DO;

      121     5583    3                       TFPRG$ -> FPRG$CONTEXT.IGNORE = S_D.DO$->KEEP$CMD.L6_OPTIONS;

   5583  2 000265   200003 474500                    LDP4    TFPRG$,,AUTO
         2 000266   300001 236100                    LDQ     1,,PR3
         2 000267   000011 772000                    QRL     9
         2 000270   400061 752110                    STCQ    49,'10'O,PR4

      122     5584    3                      TFPRG$ -> FPRG$CONTEXT.TRAP = TFPRG$ -> FPRG$CONTEXT.TRAP & ~S_D
              5584                                .DO$->KEEP$CMD.L6_OPTIONS;

   5584  2 000271   100031 473500                    LDP3    25,,PR1
         2 000272   300001 236100                    LDQ     1,,PR3
         2 000273   000003 736000                    QLS     3
         2 000274   770000 376003                    ANQ     -4096,DU
         2 000275   770000 676003                    ERQ     -4096,DU
         2 000276   200006 756100                    STQ     TFPRG$+3,,AUTO
         2 000277   400061 236100                    LDQ     49,,PR4
         2 000300   000006 736000                    QLS     6
         2 000301   770000 376003                    ANQ     -4096,DU
         2 000302   200006 376100                    ANQ     TFPRG$+3,,AUTO
         2 000303   000006 772000                    QRL     6
         2 000304   400061 752120                    STCQ    49,'20'O,PR4

      123     5585    3                       GD$MSG.KTI.CMD_TYPE = %GD#IGNORE_CMD;

   5585  2 000305   000001 236100                    LDQ     1,,PR0
         2 000306   000001 376000 3                  ANQ     1
         2 000307   000300 276003                    ORQ     192,DU
PL6.E3A0      #001=DFA$KEEP File=DFA$KEEP.:E05TSI                                TUE 07/29/97 14:33 Page:23
         2 000310   000001 756100                    STQ     1,,PR0

      124     5586    3                     END;

   5586  2 000311   000321 710000 2                  TRA     s:5592

      125     5587    3                  ELSE DO;

      126     5588    3                       S_D.ERROR = E@DELBUG; /* E@DELBUG */

   5588  2 000312   000766 235007                    LDA     502,DL
         2 000313   100013 755100                    STA     11,,PR1

      127     5589    3                       CALL DDE$ERROR;

   5589  2 000314   000002 631400 xsym               EPPR1   B_VECTNIL+2
         2 000315   000000 701000 xent               TSX1    DDE$ERROR
         2 000316   000000 011000                    NOP     0

      128     5590    3                       RETURN;

   5590  2 000317   200004 221300                    LDX1  ! TFPRG$+1,,AUTO
         2 000320   000001 702211                    TSX2  ! 1,X1

      129     5591    3                     END;
      130     5592    2        TFPRG$ -> FPRG$CONTEXT.KEEP = ~(TFPRG$ -> FPRG$CONTEXT.TRAP | TFPRG$ ->
              5592                 FPRG$CONTEXT.IGNORE); /* Put all else in keep */

   5592  2 000321   200003 473500                    LDP3    TFPRG$,,AUTO
         2 000322   300061 236100                    LDQ     49,,PR3
         2 000323   000014 736000                    QLS     12
         2 000324   770000 376003                    ANQ     -4096,DU
         2 000325   200006 756100                    STQ     TFPRG$+3,,AUTO
         2 000326   300061 236100                    LDQ     49,,PR3
         2 000327   000006 736000                    QLS     6
         2 000330   770000 376003                    ANQ     -4096,DU
         2 000331   200006 276100                    ORQ     TFPRG$+3,,AUTO
PL6.E3A0      #001=DFA$KEEP File=DFA$KEEP.:E05TSI                                TUE 07/29/97 14:33 Page:24
         2 000332   770000 676003                    ERQ     -4096,DU
         2 000333   300061 752140                    STCQ    49,'40'O,PR3

      131     5593    2        GD$MSG.KTI.TRAP = TFPRG$ -> FPRG$CONTEXT.TRAP;

   5593  2 000334   300061 236100                    LDQ     49,,PR3
         2 000335   000022 772000                    QRL     18
         2 000336   000000 752102                    STCQ    0,'02'O,PR0

      132     5594    2        GD$MSG.KTI.KEEP = TFPRG$ -> FPRG$CONTEXT.KEEP;

   5594  2 000337   200003 473500                    LDP3    TFPRG$,,AUTO
         2 000340   300061 236100                    LDQ     49,,PR3
         2 000341   000020 772000                    QRL     16
         2 000342   000000 676100                    ERQ     0,,PR0
         2 000343   000002 376000 3                  ANQ     2
         2 000344   000000 656100                    ERSQ    0,,PR0

      133     5595    2        GD$MSG.KTI.IGNORE = TFPRG$ -> FPRG$CONTEXT.IGNORE;

   5595  2 000345   200003 473500                    LDP3    TFPRG$,,AUTO
         2 000346   003100 060500                    CSL     bolr='003'O
         2 000347   300061 230006                    BDSC    49,,PR3                  by=1,bit=3,n=6
         2 000350   000000 650006                    BDSC    0,,PR0                   by=3,bit=5,n=6

      134     5596    2        CALL DFQ$WRITE_FD (TFPRG$) ALTRET(ERRMSG);

   5596  2 000351   200003 633500                    EPPR3   TFPRG$,,AUTO
         2 000352   200006 453500                    STP3    TFPRG$+3,,AUTO
         2 000353   200006 630500                    EPPR0   TFPRG$+3,,AUTO
         2 000354   000017 631400 xsym               EPPR1   B_VECTNIL+15
         2 000355   000000 701000 xent               TSX1    DFQ$WRITE_FD
         2 000356   000416 702000 2                  TSX2    ERRMSG

      135     5597    2        CALL DFQ$READ_FD (TFPRG$, '0'B) ALTRET(ERRMSG);

   5597  2 000357   000003 236000 3                  LDQ     3
PL6.E3A0      #001=DFA$KEEP File=DFA$KEEP.:E05TSI                                TUE 07/29/97 14:33 Page:25
         2 000360   200007 756100                    STQ     TFPRG$+4,,AUTO
         2 000361   200003 630500                    EPPR0   TFPRG$,,AUTO
         2 000362   200006 450500                    STP0    TFPRG$+3,,AUTO
         2 000363   200006 630500                    EPPR0   TFPRG$+3,,AUTO
         2 000364   000020 631400 xsym               EPPR1   B_VECTNIL+16
         2 000365   000000 701000 xent               TSX1    DFQ$READ_FD
         2 000366   000416 702000 2                  TSX2    ERRMSG

      136     5598    2        IF GD$MSG.FNC ~= %GD#RSPACK

   5598  2 000367   000000 470400 xsym               LDP0    S_D_L6_MESSAGE$
         2 000370   000000 236100                    LDQ     0,,PR0
         2 000371   776000 376003                    ANQ     -1024,DU
         2 000372   106000 116003                    CMPQ    35840,DU
         2 000373   000414 600000 2                  TZE     s:5607

      137     5599    3        THEN DO;

      138     5600    3             CALL M$SCREECH (SNAP_MESSAGE) ALTRET(NEVER);

   5600  2 000374   000000 630400 1                  EPPR0   SNAP_MESSAGE
         2 000375   400013 713400                    CLIMB   alt,+11
         2 000376   401000 401760                    pmme    nvectors=3
         2 000377   000400 702000 2                  TSX2    NEVER

      139     5601    3   NEVER:
      140     5602    3             S_D.ERROR = E@BADMESSAGE;     /* E@BADMESSAGE */

   5602  2 000400   001014 235007       NEVER        LDA     524,DL
         2 000401   000000 470400 xsym               LDP0    S_D$
         2 000402   000013 755100                    STA     11,,PR0

      141     5603    3             CALL DDE$ERROR;

   5603  2 000403   000002 631400 xsym               EPPR1   B_VECTNIL+2
         2 000404   000000 701000 xent               TSX1    DDE$ERROR
         2 000405   000000 011000                    NOP     0
PL6.E3A0      #001=DFA$KEEP File=DFA$KEEP.:E05TSI                                TUE 07/29/97 14:33 Page:26

      142     5604    3             S_D.ERROR = E@DELBUG;         /* E@DELBUG */

   5604  2 000406   000766 235007                    LDA     502,DL
         2 000407   000000 470400 xsym               LDP0    S_D$
         2 000410   000013 755100                    STA     11,,PR0

      143     5605    3             CALL DDE$ERROR;

   5605  2 000411   000002 631400 xsym               EPPR1   B_VECTNIL+2
         2 000412   000000 701000 xent               TSX1    DDE$ERROR
         2 000413   000000 011000                    NOP     0

      144     5606    3           END;

      145     5607    2        RETURN;

   5607  2 000414   200004 221300                    LDX1  ! TFPRG$+1,,AUTO
         2 000415   000001 702211                    TSX2  ! 1,X1

   5598  2 000416                       ERRMSG       null
      146     5608    2   ERRMSG: ;
      147     5609    2        CALL DUE$ERRMSG;

   5609  2 000416   000002 631400 xsym               EPPR1   B_VECTNIL+2
         2 000417   000000 701000 xent               TSX1    DUE$ERRMSG
         2 000420   000000 011000                    NOP     0

      148     5610    2        RETURN;

   5610  2 000421   200004 221300                    LDX1  ! TFPRG$+1,,AUTO
         2 000422   000001 702211                    TSX2  ! 1,X1

SNAP_MESSAGE
 Sect OctLoc
   1     000   000001 777640   000006 006000   000000 177640   000000 006014    ................
   1     004   000000 177640   000000 006014                                    ........
PL6.E3A0      #001=DFA$KEEP File=DFA$KEEP.:E05TSI                                TUE 07/29/97 14:33 Page:27

SC_MESSAGE
 Sect OctLoc
   1     006   042530 013325   000000 101740                                    ".....A.

(unnamed)
 Sect OctLoc
   3     000   001777 777777   740077 777777   000003 740000   000002 006000    .....?..........
      149     5611    2   END;
      150     5612    1   END DFA$KEEP;

PL6.E3A0      #001=DFA$KEEP File=DFA$KEEP.:E05TSI                                TUE 07/29/97 14:33 Page:28
--  Include file information  --

   DU_SCODE_C.:E05TOU  is referenced.
   CP_6.:E05TOU  cannot be made into a system file and is referenced.
   DD_SUBS_C.:E05TOU  is referenced.
   GD_EQUS_E.:E05TOU  is referenced.
   GD$MSG_M.:E05TOU  is referenced.
   DD_SD_M.:E05TOU  is referenced.
   XUH_MACRO_C.:E05TOU  is referenced.
   DD$BASED.:E05TOU  is referenced.
   DD_ERR_C.:E05TOU  is referenced.
   B$JIT_C.:E05TOU  was found in the system file and is never referenced.
   CP_6_C.:E05TOU  was found in the system file and is referenced.
      No diagnostics issued in procedure DFA$KEEP.

   Procedure DFA$KEEP requires 275 words for executable code.
   Procedure DFA$KEEP requires 8 words of local(AUTO) storage.

    No errors detected in file DFA$KEEP.:E05TSI    .
PL6.E3A0      #001=DFA$KEEP File=DFA$KEEP.:E05TSI                                TUE 07/29/97 14:33 Page:29
          *** CROSS REFERENCE LISTING ***
**     DENOTES     IDENTIFIER DEFINITION
<<                 IDENTIFIER'S VALUE SET
>>                 IDENTIFIER'S VALUE USED
<>                 IDENTIFIER SET AND/OR USED
--                 IDENTIFIER REFERENCED
PL6.E3A0      #001=DFA$KEEP File=DFA$KEEP.:E05TSI                                TUE 07/29/97 14:33 Page:30
          MINI XREF LISTING

DDE$ERROR
      5498**DCL-ENT  5559--CALL     5589--CALL     5603--CALL     5605--CALL
DFQ$READ_FD
      5500**DCL-ENT  5597--CALL
DFQ$WRITE_FD
      5499**DCL-ENT  5596--CALL
DO_FPRG
      5566**PROC     5522--CALL     5533--CALL
DO_HOST
      5541**PROC     5505--CALL     5525--CALL
DUE$ERRMSG
      5501**DCL-ENT  5609--CALL
ERR
      5534**LABEL    5503--REMEMBR  5512--GOTO     5519--GOTO     5529--GOTO
ERRMSG IN PROCEDURE DO_FPRG
      5598**LABEL    5596--CALLALT  5597--CALLALT
FPRG$CONTEXT.IGNORE
      1781**DCL      5572<<ASSIGN   5572>>ASSIGN   5578<<ASSIGN   5578>>ASSIGN   5583<<ASSIGN   5592>>ASSIGN
      5595>>ASSIGN
FPRG$CONTEXT.KEEP
      1779**DCL      5592<<ASSIGN   5594>>ASSIGN
FPRG$CONTEXT.NEXT$
      1737**DCL      5515>>ASSIGN   5534>>ASSIGN
FPRG$CONTEXT.RES
      1756**DCL      5514>>DOWHILE
FPRG$CONTEXT.TRAP
      1780**DCL      5571<<ASSIGN   5571>>ASSIGN   5577<<ASSIGN   5584<<ASSIGN   5584>>ASSIGN   5592>>ASSIGN
      5593>>ASSIGN
GD$MSG
      4754**DCL      5567<<ASSIGN
GD$MSG.BRKRQS.IF$CONST.SIZE
      4805**DCL      4805--REDEF
PL6.E3A0      #001=DFA$KEEP File=DFA$KEEP.:E05TSI                                TUE 07/29/97 14:33 Page:31
GD$MSG.BRKRQS.IF$CONST.TEXT
      4805**DCL      4806--REDEF    4806--REDEF    4807--REDEF    4808--REDEF
GD$MSG.BRKRSP.BRK#
      4819**DCL      4819--REDEF
GD$MSG.BRKRSP.USER#
      4819**DCL      4819--REDEF
GD$MSG.FNC
      4754**DCL      5568<<ASSIGN   5598>>IF
GD$MSG.KTI.CMD_TYPE
      4886**DCL      5573<<ASSIGN   5579<<ASSIGN   5585<<ASSIGN
GD$MSG.KTI.IGNORE
      4886**DCL      5595<<ASSIGN
GD$MSG.KTI.KEEP
      4878**DCL      5594<<ASSIGN
GD$MSG.KTI.TRAP
      4882**DCL      5593<<ASSIGN
GD$MSG.LETMEM_D.VALUE.SIZE
      4777**DCL      4777--REDEF
GD$MSG.LETMEM_D.VALUE.TEXT
      4778**DCL      4778--REDEF    4778--REDEF    4779--REDEF    4780--REDEF
GD$MSG.MESSAGE
      4759**DCL      4759--REDEF    4760--REDEF    4760--REDEF    4761--REDEF    4772--REDEF    4785--REDEF
      4790--REDEF    4797--REDEF    4813--REDEF    4818--REDEF    4824--REDEF    4825--REDEF    4854--REDEF
      4856--REDEF    4867--REDEF    4874--REDEF    4886--REDEF
GD$MSG.SUBFNC
      4754**DCL      4754--REDEF    4758--REDEF
GD$MSG.TSA.I
      4826**DCL      4826--REDEF
GD$MSG.TSA.S
      4828**DCL      4828--REDEF
GD$MSG.USERQS.ASDT$
      4854**DCL      4854--REDEF    4855--REDEF
KEEP$CMD.CMD
      1718**DCL      5542>>IF       5547>>IF       5552>>IF       5569>>IF       5575>>IF       5581>>IF
KEEP$CMD.FPRG
      1723**DCL      5506>>IF
PL6.E3A0      #001=DFA$KEEP File=DFA$KEEP.:E05TSI                                TUE 07/29/97 14:33 Page:32
KEEP$CMD.FPRG_RES
      1733**DCL      5514>>DOWHILE
KEEP$CMD.HOST
      1722**DCL      5504>>IF
KEEP$CMD.L6_OPTIONS
      1724**DCL      1725--REDEF    5571>>ASSIGN   5572>>ASSIGN   5577>>ASSIGN   5578>>ASSIGN   5583>>ASSIGN
      5584>>ASSIGN
KEEP$CMD.OPTARRY
      1731**DCL      1732--REDEF
KEEP$CMD.OPTIONS
      1732**DCL      5544>>ASSIGN   5545>>ASSIGN   5549>>ASSIGN   5550>>ASSIGN   5554>>ASSIGN   5555>>ASSIGN
M$SCREECH
      5348**DCL-ENT  5600--CALL
NEVER IN PROCEDURE DO_FPRG
      5602**LABEL    5600--CALLALT
SC_MESSAGE
      5450**DCL      5430--DCLINIT
SNAP_MESSAGE
      5430**DCL      5600<>CALL
S_D.CURRENT_CHANNEL
      4170**DCL      4172--REDEF
S_D.DEBUGA
      3322**DCL      3324--REDEF
S_D.DO$
      3273**DCL      5504>>IF       5506>>IF       5514>>DOWHILE  5542>>IF       5544>>ASSIGN   5545>>ASSIGN
      5547>>IF       5549>>ASSIGN   5550>>ASSIGN   5552>>IF       5554>>ASSIGN   5555>>ASSIGN   5569>>IF
      5571>>ASSIGN   5572>>ASSIGN   5575>>IF       5577>>ASSIGN   5578>>ASSIGN   5581>>IF       5583>>ASSIGN
      5584>>ASSIGN
S_D.EIS
      4280**DCL      4309--REDEF
S_D.ERROR
      3251**DCL      5511<<ASSIGN   5518<<ASSIGN   5528<<ASSIGN   5558<<ASSIGN   5588<<ASSIGN   5602<<ASSIGN
      5604<<ASSIGN
S_D.FPRG_CONTEXT$
      3362**DCL      5508>>ASSIGN   5526>>IF       5531>>ASSIGN
S_D.HOST_MESSAGE_BUF_REMOTE
PL6.E3A0      #001=DFA$KEEP File=DFA$KEEP.:E05TSI                                TUE 07/29/97 14:33 Page:33
      4213**DCL      4214--REDEF    4228--REDEF
S_D.IGNORE
      3823**DCL      5545<<ASSIGN   5545>>ASSIGN   5550<<ASSIGN   5550>>ASSIGN   5554<<ASSIGN   5562>>ASSIGN
S_D.JDE
      3827**DCL      3828--REDEF
S_D.KEEP
      3819**DCL      5562<<ASSIGN
S_D.L$.VALUE
      3380**DCL      3386--REDEF    3394--REDEF    3397--REDEF    3400--REDEF    3403--REDEF
S_D.L$.VALUE.L
      3381**DCL      3382--REDEF    3383--REDEF
S_D.L6_MESSAGE_BUF
      4234**DCL      4236--REDEF
S_D.OUTPUT
      4200**DCL      4202--REDEF
S_D.REMOTE_MSG.FNCC
      4219**DCL      4220--REDEF
S_D.REMOTE_MSG.STXC
      4215**DCL      4216--REDEF
S_D.REMOTE_MSG.SUBFNCC
      4223**DCL      4224--REDEF
S_D.SCREECH_IC
      4071**DCL      5503<<REMEMBR
S_D.SV
      3279**DCL      3300--REDEF
S_D.TRAP
      3821**DCL      5544<<ASSIGN   5544>>ASSIGN   5549<<ASSIGN   5555<<ASSIGN   5555>>ASSIGN   5562>>ASSIGN
S_D$
      4531**DCL      3227--IMP-PTR  5503>>REMEMBR  5504>>IF       5506>>IF       5508>>ASSIGN   5511>>ASSIGN
      5514>>DOWHILE  5518>>ASSIGN   5526>>IF       5528>>ASSIGN   5531>>ASSIGN   5542>>IF       5544>>ASSIGN
      5544>>ASSIGN   5544>>ASSIGN   5545>>ASSIGN   5545>>ASSIGN   5545>>ASSIGN   5547>>IF       5549>>ASSIGN
      5549>>ASSIGN   5550>>ASSIGN   5550>>ASSIGN   5550>>ASSIGN   5552>>IF       5554>>ASSIGN   5554>>ASSIGN
      5555>>ASSIGN   5555>>ASSIGN   5555>>ASSIGN   5558>>ASSIGN   5562>>ASSIGN   5562>>ASSIGN   5562>>ASSIGN
      5569>>IF       5571>>ASSIGN   5572>>ASSIGN   5575>>IF       5577>>ASSIGN   5578>>ASSIGN   5581>>IF
      5583>>ASSIGN   5584>>ASSIGN   5588>>ASSIGN   5602>>ASSIGN   5604>>ASSIGN
S_D_L6_MESSAGE$
PL6.E3A0      #001=DFA$KEEP File=DFA$KEEP.:E05TSI                                TUE 07/29/97 14:33 Page:34
      4568**DCL      4754--IMP-PTR  5567>>ASSIGN   5568>>ASSIGN   5573>>ASSIGN   5579>>ASSIGN   5585>>ASSIGN
      5593>>ASSIGN   5594>>ASSIGN   5595>>ASSIGN   5598>>IF
TFPRG$
      5497**DCL      5508<<ASSIGN   5509>>IF       5514>>DOWHILE  5515<<ASSIGN   5515>>ASSIGN   5516>>IF
      5531<<ASSIGN   5532>>DOWHILE  5534<<ASSIGN   5534>>ASSIGN   5571>>ASSIGN   5571>>ASSIGN   5572>>ASSIGN
      5572>>ASSIGN   5577>>ASSIGN   5578>>ASSIGN   5578>>ASSIGN   5583>>ASSIGN   5584>>ASSIGN   5584>>ASSIGN
      5592>>ASSIGN   5592>>ASSIGN   5592>>ASSIGN   5593>>ASSIGN   5594>>ASSIGN   5595>>ASSIGN   5596<>CALL
      5597<>CALL
PL6.E3A0      #001=DFA$KEEP File=DFA$KEEP.:E05TSI                                TUE 07/29/97 14:33 Page:35
              *** CROSS REFERENCE LISTING ***
    **     DENOTES     IDENTIFIER DEFINITION
    <<                 IDENTIFIER'S VALUE SET
    >>                 IDENTIFIER'S VALUE USED
    <>                 IDENTIFIER SET AND/OR USED
    --                 IDENTIFIER REFERENCED
PL6.E3A0      #001=DFA$KEEP File=DFA$KEEP.:E05TSI                                TUE 07/29/97 14:33 Page:36
              MINI UREF LISTING

DFA$KEEP      15**PROC
M$ACCT    5351**DCL-ENT
M$ACTIVATE    5354**DCL-ENT
M$ALIB    5347**DCL-ENT
M$ASUSER    5349**DCL-ENT
M$ATTACH    5356**DCL-ENT
M$BADPP    5374**DCL-ENT
M$CGCTL    5355**DCL-ENT
M$CGINFO    5355**DCL-ENT
M$CHECK    5336**DCL-ENT
M$CHGUNIT    5394**DCL-ENT
M$CLOSE    5334**DCL-ENT
M$CLRSTK    5392**DCL-ENT
M$CMDVAR    5403**DCL-ENT
M$CONFIG    5364**DCL-ENT
M$CORRES    5339**DCL-ENT
M$CPEXIT    5348**DCL-ENT
M$CVM    5372**DCL-ENT
M$CVOL    5337**DCL-ENT
M$DCLFLD    5364**DCL-ENT
M$DEACTIVATE    5354**DCL-ENT
M$DELREC    5336**DCL-ENT
M$DEQ    5401**DCL-ENT
M$DETACH    5356**DCL-ENT
M$DEVICE    5338**DCL-ENT
M$DISPLAY    5401**DCL-ENT
M$DISPRES    5341**DCL-ENT
M$DLIB    5347**DCL-ENT
M$DRIBBLE    5364**DCL-ENT
M$DRTN    5392**DCL-ENT
M$DSUSER    5349**DCL-ENT
M$ENQ    5400**DCL-ENT
PL6.E3A0      #001=DFA$KEEP File=DFA$KEEP.:E05TSI                                TUE 07/29/97 14:33 Page:37
M$EOM    5359**DCL-ENT
M$ERASE    5365**DCL-ENT
M$ERR    5346**DCL-ENT
M$ERRMSG    5397**DCL-ENT
M$EVENT    5389**DCL-ENT
M$EXHUME    5398**DCL-ENT
M$EXIT    5346**DCL-ENT
M$EXTEND    5338**DCL-ENT
M$FDP    5370**DCL-ENT
M$FDS    5369**DCL-ENT
M$FEBOOT    5362**DCL-ENT
M$FECTL    5363**DCL-ENT
M$FEDUMP    5362**DCL-ENT
M$FID    5397**DCL-ENT
M$FINDPROC    5351**DCL-ENT
M$FSUSER    5349**DCL-ENT
M$FVP    5371**DCL-ENT
M$FWCG    5355**DCL-ENT
M$GBPL    5375**DCL-ENT
M$GDDL    5371**DCL-ENT
M$GDP    5370**DCL-ENT
M$GDS    5369**DCL-ENT
M$GETDCB    5340**DCL-ENT
M$GETMOUSE    5380**DCL-ENT
M$GETPM    5381**DCL-ENT
M$GJOB    5399**DCL-ENT
M$GLINEATTR    5359**DCL-ENT
M$GOODPP    5374**DCL-ENT
M$GPLATEN    5367**DCL-ENT
M$GPROMPT    5366**DCL-ENT
M$GTRMATTR    5360**DCL-ENT
M$GTRMCTL    5358**DCL-ENT
M$GTRMTAB    5361**DCL-ENT
M$GVP    5370**DCL-ENT
M$HELP    5397**DCL-ENT
M$INT    5389**DCL-ENT
PL6.E3A0      #001=DFA$KEEP File=DFA$KEEP.:E05TSI                                TUE 07/29/97 14:33 Page:38
M$INTRTN    5350**DCL-ENT
M$IOQ    5385**DCL-ENT
M$JOBSTATS    5399**DCL-ENT
M$KEYIN    5339**DCL-ENT
M$LDEV    5334**DCL-ENT
M$LDTRC    5347**DCL-ENT
M$LIMIT    5340**DCL-ENT
M$LINES    5339**DCL-ENT
M$LINK    5346**DCL-ENT
M$MADMUCK    5342**DCL-ENT
M$MAKUSER    5373**DCL-ENT
M$MBS    5341**DCL-ENT
M$MDFFLD    5365**DCL-ENT
M$MERC    5390**DCL-ENT
M$MERCS    5391**DCL-ENT
M$MIRROR    5385**DCL-ENT
M$MONINFO    5402**DCL-ENT
M$MPL    5375**DCL-ENT
M$NODEINFO    5366**DCL-ENT
M$NXTUSR    5400**DCL-ENT
M$OCMSG    5398**DCL-ENT
M$OLAY    5346**DCL-ENT
M$OPEN    5334**DCL-ENT
M$PAS    5375**DCL-ENT
M$PATHCON    5398**DCL-ENT
M$PDS    5369**DCL-ENT
M$PFIL    5336**DCL-ENT
M$PLATEN    5360**DCL-ENT
M$PRECORD    5338**DCL-ENT
M$PROCNAME    5351**DCL-ENT
M$PROFILE    5362**DCL-ENT
M$PROMPT    5358**DCL-ENT
M$RACST    5342**DCL-ENT
M$RDSYSLOG    5383**DCL-ENT
M$READ    5335**DCL-ENT
M$RELDCB    5340**DCL-ENT
PL6.E3A0      #001=DFA$KEEP File=DFA$KEEP.:E05TSI                                TUE 07/29/97 14:33 Page:39
M$RELRES    5341**DCL-ENT
M$RELSTARF    5343**DCL-ENT
M$REM    5343**DCL-ENT
M$RENV    5390**DCL-ENT
M$REQUIRE    5342**DCL-ENT
M$RETRY    5391**DCL-ENT
M$RETRYS    5391**DCL-ENT
M$REW    5337**DCL-ENT
M$RLSFLD    5365**DCL-ENT
M$RPRIV    5393**DCL-ENT
M$RSPP    5372**DCL-ENT
M$RSWITCH    5394**DCL-ENT
M$RUE    5400**DCL-ENT
M$SAD    5373**DCL-ENT
M$SAVE    5349**DCL-ENT
M$SCON    5350**DCL-ENT
M$SENV    5390**DCL-ENT
M$SETFMA    5334**DCL-ENT
M$SETFP    5363**DCL-ENT
M$SINPUT    5361**DCL-ENT
M$SLCFLD    5366**DCL-ENT
M$SMOUSE    5380**DCL-ENT
M$SMPRT    5372**DCL-ENT
M$SPRIV    5393**DCL-ENT
M$SSC    5373**DCL-ENT
M$SSWITCH    5393**DCL-ENT
M$STATE    5402**DCL-ENT
M$STD    5374**DCL-ENT
M$STIMER    5388**DCL-ENT
M$STLPP    5371**DCL-ENT
M$STRAP    5388**DCL-ENT
M$STRMATTR    5360**DCL-ENT
M$STRMCTL    5358**DCL-ENT
M$STRMTAB    5361**DCL-ENT
M$SYMBIO    5399**DCL-ENT
M$SYSCON    5385**DCL-ENT
PL6.E3A0      #001=DFA$KEEP File=DFA$KEEP.:E05TSI                                TUE 07/29/97 14:33 Page:40
M$SYSID    5403**DCL-ENT
M$TDCLOSE    5384**DCL-ENT
M$TDIO    5384**DCL-ENT
M$TDOPEN    5383**DCL-ENT
M$TDREQCPU    5384**DCL-ENT
M$TEMPWROC    5378**DCL-ENT
M$TIME    5401**DCL-ENT
M$TRAP    5388**DCL-ENT
M$TRMISC    5363**DCL-ENT
M$TRMPRG    5359**DCL-ENT
M$TRTN    5392**DCL-ENT
M$TRUNC    5335**DCL-ENT
M$TTIMER    5388**DCL-ENT
M$UC    5358**DCL
M$UMPL    5375**DCL-ENT
M$UNFID    5397**DCL-ENT
M$UNLATCH    5354**DCL-ENT
M$UNSHARE    5351**DCL-ENT
M$USRFIELD    5394**DCL-ENT
M$VIRTUAL    5369**DCL-ENT
M$WAIT    5392**DCL-ENT
M$WEOF    5337**DCL-ENT
M$WRITE    5335**DCL-ENT
M$WRSYSLOG    5383**DCL-ENT
M$XCON    5389**DCL-ENT
M$XCONRTN    5350**DCL-ENT
M$XEQTIME    5402**DCL-ENT
M$XFLUSH    5343**DCL-ENT
M$XMOUSE    5380**DCL-ENT
M$XXX    5346**DCL-ENT
M$YC    5348**DCL-ENT
S_D_ACCESS$    4546**DCL
S_D_ANLZ$    4548**DCL
S_D_ASTACKOFF$    4547**DCL
S_D_BREAK$    4549**DCL
S_D_DO_SCAN$    4550**DCL
PL6.E3A0      #001=DFA$KEEP File=DFA$KEEP.:E05TSI                                TUE 07/29/97 14:33 Page:41
S_D_ERROR$    4551**DCL
S_D_FAULTCMD$$    4552**DCL
S_D_FAULTINS$$    4553**DCL
S_D_GOIC$    4554**DCL
S_D_GO_MODE$    4555**DCL
S_D_HOST_MESSAGE$    4567**DCL
S_D_HW_PTB_UNITS$    4571**DCL
S_D_HW_RES_MEM$    4569**DCL
S_D_HW_WSQ0PT$    4570**DCL
S_D_IPRFLT$    4557**DCL
S_D_IXFIX$    4556**DCL
S_D_REM_ACCESS$    4558**DCL
S_D_REM_DISKBOOT$    4560**DCL
S_D_REM_DO_SCAN$    4559**DCL
S_D_RETURNN$    4561**DCL
S_D_SAD$    4562**DCL
S_D_SAVEIC$    4563**DCL
S_D_SEG$    4545**DCL
S_D_TCB$$    4564**DCL
S_D_UREG$$    4565**DCL
S_D_USS$$    4566**DCL
