VERSION E05

PL6.E3A0      #001=DFA$KILL1 File=DFA$KILL1.:E05TSI                              TUE 07/29/97 14:34 Page:1
        1        1        /*M* DFA$KILL1 - Remove stored command from FIXCOM & VARCOM */
        2        2        /*T***********************************************************/
        3        3        /*T*                                                         */
        4        4        /*T* Copyright (c) Bull HN Information Systems Inc., 1997    */
        5        5        /*T*                                                         */
        6        6        /*T***********************************************************/
        7        7        /*X* DMR,PLM=5,IND=5,CSU=3,EXM=0,ECU=3,MOC,DCI=5,CRT=5 */
        8        8        /*F* NAME: DFA$KILL1
        9        9             PURPOSE: To delete the specified stored command from an FPRG
       10       10             DESCRIPTION: The stored command to be deleted is passed
       11       11                          in "S_D.KILL1". The command's size is determined.
       12       12                          All stored commands that follow the one to be deleted
       13       13                          are packed over the command to be deleted.  The first
       14       14                          attachment index (FAI) of each command that followed
       15       15                          the deleted command is updated to reflect the prior
       16       16                          packing. The deleted command's entry in FIXCOM is
       17       17                          cleared.  The pointer to the next available free space
       18       18                          in VARCOM is updated to reflect the space just obtained.
       19       19                          S_D.FIXLAST is set to reflect the new last command.
       20       20                          A KILL BREAKPOINT message is built in S_D.L6_MESSAGE_BUF
       21       21                          and DFQ$WRITE_FD is called to write the message to FD.  */
       22       22        /*D* NAME: DFA$KILL1
       23       23             CALL: CALL DFA$KILL1
       24       24             INTERFACE:
       25       25             ENVIRONMENT:
       26       26             INPUT: S_D.KILL1 - ID OF COMMAND TO BE DELETED.
       27       27             OUTPUT:
       28       28             SCRATCH:
       29       29             DESCRIPTION: THE STORED COMMAND TO BE DELETED IS PASSED
       30       30             IN "S_D.KILL1". THE COMMAND'S SIZE IS DETERMINED.
       31       31             ALL STORED COMMANDS THAT FOLLOW THE ONE TO BE DELETED ARE PACKED
       32       32             OVER THE COMMAND TO BE DELETED. THE FIRST ATTACHMENT INDEX (FAI) OF
       33       33             EACH COMMAND THAT FOLLOWED THE DELETED COMMAND IS UPDATED TO REFLECT
       34       34             THE PRIOR PACKING. THE DELETED COMMAND'S ENTRY IN FIXCOM IS CLEARED.
       35       35             THE POINTER TO THE NEXT AVAILABLE FREE SPACE IN VARCOM IS
       36       36             UPDATED TO REFLECT THE SPACE JUST OBTAINED. S_D.FIXLAST IS
       37       37             SET TO REFLECT THE NEW LAST COMMAND. Builds a KILL BREAKPOINT
PL6.E3A0      #001=DFA$KILL1 File=DFA$KILL1.:E05TSI                              TUE 07/29/97 14:34 Page:2
       38       38             Message in S_D.L6_MESSAGE_BUF and calls DFQ$WRITE_FD to write
       39       39             the message to FD.  */
       40       40                                                /**/
       41       41        DFA$KILL1: PROC(WRITE, CCMD, KILL);
       42       42        /**/
       43       43    1   DCL WRITE BIT(1) ALIGNED;
       44       44    1   DCL CCMD UBIN;
       45       45    1   DCL KILL BIT(1) ALIGNED;
       46       46        /* Auto */
       47       47    1   DCL KILL$ PTR;                          /* ADDR OF KILLED FIXCOM ENTRY */
       48       48    1   DCL DELFAI UBIN;                        /* KILLED .FAI */
       49       49    1   DCL DELTAL UBIN;                        /* KILLED .TAL */
       50       50    1   DCL ST$ PTR;                            /* TEMP ENTRY IN FIXCOM */
       51       51    1   DCL EN$ PTR;                            /* TEMP ENTRY IN FIXCOM */
       52       52    1   DCL CHARVAR CHAR(CVSIZE) BASED ALIGNED; /* FOR GARBAGE COLLECTION MOVE */
       53       53    1   DCL CVSIZE UBIN;                        /* FOR GARBAGE COLLECTION MOVE */
       54       54    1   DCL CHAR18 CHAR(18) BASED;
       55       55    1   DCL BB$ PTR;
       56       56    1   DCL SIZE UBIN;
       57       57    1   DCL I UBIN;
       58       58    1   DCL TFPRG$ PTR;
       59       59    1   DCL RES CHAR(8) CALIGNED;
       60       60    1   DCL RES_SIZE UBIN;
       61       61    1   DCL TEMP$ PTR;
       62       62    1   DCL TEMP1 REDEF TEMP$ UBIN(36) ALIGNED;
       63       63    1   DCL 1 TEMP1B REDEF TEMP$ ALIGNED,
       64       64    1         2 * UBIN(4) UNAL,
       65       65    1         2 B1 UBIN(8) UNAL,
       66       66    1         2 B2 UBIN(8) UNAL,
       67       67    1         2 B3 UBIN(8) UNAL,
       68       68    1         2 B4 UBIN(8) UNAL;
       69       69    1   DCL TEMP2 UBIN(36) ALIGNED;
       70       70    1   DCL 1 TEMP2B REDEF TEMP2 ALIGNED,
       71       71    1         2 * BIT(1) UNAL,
       72       72    1         2 B1 UBIN(8) UNAL,
       73       73    1         2 * BIT(1) UNAL,
       74       74    1         2 B2 UBIN(8) UNAL,
PL6.E3A0      #001=DFA$KILL1 File=DFA$KILL1.:E05TSI                              TUE 07/29/97 14:34 Page:3
       75       75    1         2 * BIT(1) UNAL,
       76       76    1         2 B3 UBIN(8) UNAL,
       77       77    1         2 * BIT(1) UNAL,
       78       78    1         2 B4 UBIN(8) UNAL;
       79       79        /* Includes and Based structures */
       80       80        %INCLUDE DD$BASED;
       81     1383        %FIXCOM (NAME=FXCM);
       82     1399        %FPRG$CONTEXT;
       83     1462        %SHOW$CMD(NAME=K$ILL);
       84     1484        %INCLUDE DD_SUBS_C;
       85     1755        %INCLUDE DD_PSUBS_C;
       86     2230        %INCLUDE XUH_MACRO_C;
       87     2314        %INCLUDE DD_SD_M;
       88     3650        %S_D;
       89     4968        %S_D_PTRS;
       90     5005        %INCLUDE GD$MSG_M;
       91     5169        %GD$MSG(FPTN=GD$MSG,STCLASS="BASED(S_D_L6_MESSAGE$)",L6=YES,L6PTR="UBIN(32) UNAL");
       92     5325        %GD$MSG(FPTN=GD$MSG_HOST,STCLASS="BASED(S_D_HOST_MESSAGE$)",L6=NO);
       93     5481        %INCLUDE GD_EQUS_E;
       94     5642        %INCLUDE DD_ERR_C;
       95     6039        %INCLUDE DD$DITEM;
       12+    6142             %LIST;
       13+    6143    1        DCL SDD$ PTR;
       14+    6144    1        DCL ZITEM$ PTR;
       15+    6145    1        DCL SDD_L6$ PTR;
       16+    6146    1        DCL ZITEM_L6$ PTR;
       96     6720        /* Entry DCLs */
       97     6721    1   DCL DDE$ERROR ENTRY;
       98     6722    1   DCL DDQ$WRITE ENTRY(2);
       99     6723    1   DCL DDR$BINTXT ENTRY(4);
      100     6724    1   DCL DFQ$READ_FD ENTRY(2) ALTRET;
      101     6725    1   DCL DFQ$WRITE_FD ENTRY(1) ALTRET;
      102     6726    1   DCL DUE$ERRMSG   ENTRY;
      103     6727    1   DCL DUE$GERRMSG   ENTRY;
      104     6728        /**/
      105     6729                                                /* Initialization */
      106     6730    1        KILL$ = ADDR(S_D.FIXCOM(S_D.KILL1));
PL6.E3A0      #001=DFA$KILL1 File=DFA$KILL1.:E05TSI                              TUE 07/29/97 14:34 Page:4
      107     6731    1        DELFAI = KILL$ -> FXCM.FAI;
      108     6732    1        DELTAL = KILL$ -> FXCM.TAL;
      109     6733    1        ST$ = ADDR(S_D.FIXCOM(1));
      110     6734    1        EN$ = ADDR(S_D.FIXCOM(S_D.FIXLAST));
      111     6735                  /* Find the correct FPRG context and zero out the breakpoint entry */
      112     6736    1        TFPRG$ = S_D.FPRG_CONTEXT$;
      113     6737    1        IF TFPRG$ = ADDR(NIL)
      114     6738    1        THEN GOTO FPRG_ERR;
      115     6739    1        RES = S_D.FIXCOM.FPRG_RES(S_D.KILL1);
      116     6740    1        RES_SIZE = S_D.FIXCOM.FPRG_RES_SIZE(S_D.KILL1);
      117     6741    2        DO WHILE (SUBSTR(RES, 0, RES_SIZE) ~= SUBSTR(TFPRG$->FPRG$CONTEXT.RES,
      118     6742    2          0, TFPRG$->FPRG$CONTEXT.RES_SIZE));
      119     6743    2             TFPRG$ = TFPRG$ -> FPRG$CONTEXT.NEXT$;
      120     6744    2             IF TFPRG$ = ADDR(NIL)
      121     6745    2             THEN GOTO FPRG_ERR;
      122     6746    2           END;
      123     6747    1        IF TFPRG$ -> FPRG$CONTEXT.STATE ~= %STOPPED AND
      124     6748    1          TFPRG$ -> FPRG$CONTEXT.STATE ~= %ATEXIT
      125     6749    2        THEN DO;
      126     6750    2             S_D.ERROR = E@FPRGNOTSTOPPED; /* E@FPRGNOTSTOPPED */
      127     6751    2             CALL DDE$ERROR;
      128     6752    2             S_D.OUTPUT = 'Breakpoint ';
      129     6753    2             BB$ = PINCRC(ADDR(S_D.OUTPUT), SIZEC('Breakpoint '));
      130     6754    2             CALL DDR$BINTXT(BB$, S_D.KILL1, %UINT_FMT, SIZE);
      131     6755    2             BB$ = PINCRC(BB$, SIZE);
      132     6756    2             BB$ -> CHAR18 = ' can not be killed';
      133     6757    2             CALL DDQ$WRITE(ADDR(S_D.OUTPUT), SIZEC('Breakpoint ')+18+SIZE);
      134     6758    2             GOTO RETN;
      135     6759    2           END;
      136     6760    1        IF S_D.FIXCOM.INACTIVE(S_D.KILL1)
      137     6761    1        THEN GOTO ENDREST;
      138     6762    1        I = 1;
      139     6763    2        DO WHILE (S_D.KILL1 ~= TFPRG$ -> FPRG$CONTEXT.FIXCOM_INDEX(I));
      140     6764    2             I = I + 1;
      141     6765    2             IF I > 20
      142     6766    2             THEN GOTO NO_MATCH;
      143     6767    2           END;
PL6.E3A0      #001=DFA$KILL1 File=DFA$KILL1.:E05TSI                              TUE 07/29/97 14:34 Page:5
      144     6768    1        TFPRG$ -> FPRG$CONTEXT.FIXCOM_INDEX(I) = 0;
      145     6769    1        IF CCMD = C_OE                     /* C_OE */
      146     6770    1        THEN TFPRG$ -> FPRG$CONTEXT.ONEXIT = 0;
      147     6771    1        IF CCMD = C_ONCALLS                /* C_ONCALLS */
      148     6772    1        THEN TFPRG$ -> FPRG$CONTEXT.ONCALLS = 0;
      149     6773    1        IF WRITE
      150     6774    2        THEN DO;
      151     6775                                           /* Write a KILL BREAKPOINT message to FD */
      152     6776    2             GD$MSG = '0'B;
      153     6777    2             GD$MSG.FNC = %GD#RQSKILLATN;
      154     6778    2             GD$MSG.KILLRQS.BRK# = I;
      155     6779    2             CALL DFQ$WRITE_FD (TFPRG$) ALTRET(ERR);
      156     6780    2             CALL DFQ$READ_FD (TFPRG$, '0'B) ALTRET(ERR);
      157     6781    2             IF GD$MSG.FNC = %GD#RSPNAK
      158     6782    3             THEN DO;
      159     6783    3                  IF TFPRG$ -> FPRG$CONTEXT.XDELTA
      160     6784    4                  THEN DO;
      161     6785    4                       TEMP1 = BITBIN(GD$MSG.ERROR_D.ERRCODE);
      162     6786    4                       TEMP2B.B1 = TEMP1B.B1;
      163     6787    4                       TEMP2B.B2 = TEMP1B.B2;
      164     6788    4                       TEMP2B.B3 = TEMP1B.B3;
      165     6789    4                       TEMP2B.B4 = TEMP1B.B4;
      166     6790    4                       S_D.JDE = TEMP2;
      167     6791    4                     END;
      168     6792    3                  ELSE S_D.JDE = BITBIN(GD$MSG_HOST.ERROR_D.ERRCODE);
      169     6793    3                  CALL DUE$GERRMSG;
      170     6794    3                  GOTO RETN;
      171     6795    3                END;
      172     6796    2             IF GD$MSG.FNC ~= %GD#RSPACK
      173     6797    3             THEN DO;
      174     6798    3                  IF TFPRG$ -> FPRG$CONTEXT.XDELTA AND
      175     6799    3                    GD$MSG.FNC = %GD#RSPBADMSG
      176     6800    3                  THEN S_D.ERROR = E@BADMSG; /* E@BADMSG */
      177     6801    3                  ELSE S_D.ERROR = E@DELBUG; /* E@DELBUG */
      178     6802    3                  CALL DDE$ERROR;
      179     6803    3                END;
      180     6804    2           END;
PL6.E3A0      #001=DFA$KILL1 File=DFA$KILL1.:E05TSI                              TUE 07/29/97 14:34 Page:6
      181     6805                                                /* MOVE THE WHOLE MAGILLA UP */
      182     6806    1   ENDREST:
      183     6807    1        IF KILL
      184     6808    2        THEN DO;
      185     6809    3             DO WHILE ( ST$ <= EN$ );
      186     6810    3                  IF ( ST$ -> FXCM.CMD ~= 0 )
      187     6811    4                  THEN DO;
      188     6812    4                       S_D.FIXLAST = POFFW( ST$, ADDR( S_D.FIXCOM ) ) / SIZEW( FXCM );
      189     6813    4                       IF ( ST$ -> FXCM.FAI > DELFAI )
      190     6814    4                       THEN ST$ -> FXCM.FAI = ST$ -> FXCM.FAI - DELTAL;
      191     6815    4                     END;
      192     6816    3                  ST$ = PINCRW( ST$, SIZEW( FXCM ) );
      193     6817    3                END;
      194     6818    2             CVSIZE = POFFC( S_D.VARNEXT$, PINCRW( S_D.VARCOM$, DELFAI + DELTAL ) );
      195     6819    2             PINCRW( S_D.VARCOM$, DELFAI ) -> CHARVAR = PINCRW( S_D.VARCOM$, DELFAI +
              6819                      DELTAL ) -> CHARVAR;
      196     6820                                                /* FINAL CLEANUP */
      197     6821    2             KILL$ -> FXCM = '0'B;
      198     6822    2             S_D.VARNEXT$ = PINCRW( S_D.VARNEXT$, -DELTAL );
      199     6823                                                /* Check for suicide kill */
      200     6824    2             IF S_D.IXFIX = S_D.KILL1
      201     6825    3             THEN DO;
      202     6826    3                  S_D.FAULTCMD$ = ADDR(NIL);
      203     6827    3                  S_D.ENTRYCMD$ = ADDR(NIL);
      204     6828    3                END;
      205     6829    2           END;
      206     6830                                                /**/
      207     6831    1   RETN: ;
      208     6832    1        RETURN;
      209     6833    1   FPRG_ERR: ;
      210     6834    1        S_D.ERROR = E@DELBUG;              /* E@DELBUG */
      211     6835    1        CALL DDE$ERROR;
      212     6836    1        GOTO RETN;
      213     6837    1   NO_MATCH: ;
      214     6838    1        IF S_D.DO$ ~= ADDR(NIL)
      215     6839    1          AND S_D.DO$ -> K$ILL.TYPE = S@ALL /* KILL ALL */
      216     6840    1        THEN GOTO RETN;
PL6.E3A0      #001=DFA$KILL1 File=DFA$KILL1.:E05TSI                              TUE 07/29/97 14:34 Page:7
      217     6841    1        S_D.ERROR = E@DELBUG;              /* E@DELBUG */
      218     6842    1        CALL DDE$ERROR;
      219     6843    1        GOTO RETN;
      220     6844    1   ERR: ;
      221     6845    1        CALL DUE$ERRMSG;
      222     6846    1        GOTO RETN;
      223     6847    1   END DFA$KILL1;
      224     6848        %EOD;

PL6.E3A0      #001=DFA$KILL1 File=DFA$KILL1.:E05TSI                              TUE 07/29/97 14:34 Page:8
--  Include file information  --

   DD_SRTN_C.:E05TOU  is referenced.
   DD_ACODE_C.:E05TOU  is referenced.
   DD_ICODE_C.:E05TOU  is referenced.
   DD$DITEM.:E05TOU  cannot be made into a system file and is referenced.
   DD_ERR_C.:E05TOU  is referenced.
   GD_EQUS_E.:E05TOU  is referenced.
   GD$MSG_M.:E05TOU  is referenced.
   DD_SD_M.:E05TOU  is referenced.
   XUH_MACRO_C.:E05TOU  is referenced.
   DD_PSUBS_C.:E05TOU  is referenced.
   DD_SUBS_C.:E05TOU  is referenced.
   DD$BASED.:E05TOU  is referenced.
   B$JIT_C.:E05TOU  was found in the system file and is never referenced.
   CP_6_C.:E05TOU  was found in the system file and is never referenced.
      No diagnostics issued in procedure DFA$KILL1.

   Procedure DFA$KILL1 requires 345 words for executable code.
   Procedure DFA$KILL1 requires 30 words of local(AUTO) storage.

PL6.E3A0      #001=DFA$KILL1 File=DFA$KILL1.:E05TSI                              TUE 07/29/97 14:34 Page:9

 Object Unit name= DFA$KILL1                                  File name= DFA$KILL1.:E05TOU
 UTS= JUL 29 '97 14:34:12.84 TUE                              Compiler= PL-6/E31         Sev=      00
 SharedLib= :SHARED_SYSTEM                                    Alt SharedLib=


    ****  Control sections  ****

 Sect   Type Bound  Init  Size OctSiz  Section name(segment info)
    0  RoData even  UTS      8     10  DFA$KILL1
    1   Proc  even  none   345    531  DFA$KILL1
    2  RoData even  none     7      7  DFA$KILL1

    ****  Entry defs  ****

                              Check   Calling
                             calling  sequence
  Sect OctLoc Primary Altret sequence   type   Parms  Name
     1      0   yes            yes      Std        3  DFA$KILL1

  ****  Entry refs  ****

         Check        Calling
        calling       sequence
Altret sequence SRef   type   Args  Name
         yes           Std       0 DDE$ERROR
         yes           Std       4 DDR$BINTXT
         yes           Std       2 DDQ$WRITE
 yes     yes           Std       2 DFQ$READ_FD
         yes           Std       0 DUE$GERRMSG
 yes     yes           Std       1 DFQ$WRITE_FD
         yes           Std       0 DUE$ERRMSG
                       nStd      0 X66_AUTO_3
                       Std       0 B_CONSPOOL_D
                       nStd      0 X66_ARET
PL6.E3A0      #001=DFA$KILL1 File=DFA$KILL1.:E05TSI                              TUE 07/29/97 14:34 Page:10

  ****  Data refs  ****

  Flags:  r = read only, s = secondary
Flgs Name                             Flgs Name                             Flgs Name
r    S_D$                             r    S_D_HOST_MESSAGE$                r    S_D_L6_MESSAGE$
     B_VECTNIL

  ****  Segment refs  ****

  Flags:  r = read only, s = secondary
Flgs Name                             Flgs Name                             Flgs Name
     ISSID
PL6.E3A0      #001=DFA$KILL1 File=DFA$KILL1.:E05TSI                              TUE 07/29/97 14:34 Page:11


        1        1        /*M* DFA$KILL1 - Remove stored command from FIXCOM & VARCOM */
        2        2        /*T***********************************************************/
        3        3        /*T*                                                         */
        4        4        /*T* Copyright (c) Bull HN Information Systems Inc., 1997    */
        5        5        /*T*                                                         */
        6        6        /*T***********************************************************/
        7        7        /*X* DMR,PLM=5,IND=5,CSU=3,EXM=0,ECU=3,MOC,DCI=5,CRT=5 */
        8        8        /*F* NAME: DFA$KILL1
        9        9             PURPOSE: To delete the specified stored command from an FPRG
       10       10             DESCRIPTION: The stored command to be deleted is passed
       11       11                          in "S_D.KILL1". The command's size is determined.
       12       12                          All stored commands that follow the one to be deleted
       13       13                          are packed over the command to be deleted.  The first
       14       14                          attachment index (FAI) of each command that followed
       15       15                          the deleted command is updated to reflect the prior
       16       16                          packing. The deleted command's entry in FIXCOM is
       17       17                          cleared.  The pointer to the next available free space
       18       18                          in VARCOM is updated to reflect the space just obtained.
       19       19                          S_D.FIXLAST is set to reflect the new last command.
       20       20                          A KILL BREAKPOINT message is built in S_D.L6_MESSAGE_BUF
       21       21                          and DFQ$WRITE_FD is called to write the message to FD.  */
       22       22        /*D* NAME: DFA$KILL1
       23       23             CALL: CALL DFA$KILL1
       24       24             INTERFACE:
       25       25             ENVIRONMENT:
       26       26             INPUT: S_D.KILL1 - ID OF COMMAND TO BE DELETED.
       27       27             OUTPUT:
       28       28             SCRATCH:
       29       29             DESCRIPTION: THE STORED COMMAND TO BE DELETED IS PASSED
       30       30             IN "S_D.KILL1". THE COMMAND'S SIZE IS DETERMINED.
       31       31             ALL STORED COMMANDS THAT FOLLOW THE ONE TO BE DELETED ARE PACKED
       32       32             OVER THE COMMAND TO BE DELETED. THE FIRST ATTACHMENT INDEX (FAI) OF
       33       33             EACH COMMAND THAT FOLLOWED THE DELETED COMMAND IS UPDATED TO REFLECT
       34       34             THE PRIOR PACKING. THE DELETED COMMAND'S ENTRY IN FIXCOM IS CLEARED.
       35       35             THE POINTER TO THE NEXT AVAILABLE FREE SPACE IN VARCOM IS
       36       36             UPDATED TO REFLECT THE SPACE JUST OBTAINED. S_D.FIXLAST IS
PL6.E3A0      #001=DFA$KILL1 File=DFA$KILL1.:E05TSI                              TUE 07/29/97 14:34 Page:12
       37       37             SET TO REFLECT THE NEW LAST COMMAND. Builds a KILL BREAKPOINT
       38       38             Message in S_D.L6_MESSAGE_BUF and calls DFQ$WRITE_FD to write
       39       39             the message to FD.  */
       40       40                                                /**/
       41       41        DFA$KILL1: PROC(WRITE, CCMD, KILL);

     41  1 000000   000000 700200 xent  DFA$KILL1    TSX0  ! X66_AUTO_3
         1 000001   000036 000003                    ZERO    30,3

       42       42        /**/
       43       43    1   DCL WRITE BIT(1) ALIGNED;
       44       44    1   DCL CCMD UBIN;
       45       45    1   DCL KILL BIT(1) ALIGNED;
       46       46        /* Auto */
       47       47    1   DCL KILL$ PTR;                          /* ADDR OF KILLED FIXCOM ENTRY */
       48       48    1   DCL DELFAI UBIN;                        /* KILLED .FAI */
       49       49    1   DCL DELTAL UBIN;                        /* KILLED .TAL */
       50       50    1   DCL ST$ PTR;                            /* TEMP ENTRY IN FIXCOM */
       51       51    1   DCL EN$ PTR;                            /* TEMP ENTRY IN FIXCOM */
       52       52    1   DCL CHARVAR CHAR(CVSIZE) BASED ALIGNED; /* FOR GARBAGE COLLECTION MOVE */
       53       53    1   DCL CVSIZE UBIN;                        /* FOR GARBAGE COLLECTION MOVE */
       54       54    1   DCL CHAR18 CHAR(18) BASED;
       55       55    1   DCL BB$ PTR;
       56       56    1   DCL SIZE UBIN;
       57       57    1   DCL I UBIN;
       58       58    1   DCL TFPRG$ PTR;
       59       59    1   DCL RES CHAR(8) CALIGNED;
       60       60    1   DCL RES_SIZE UBIN;
       61       61    1   DCL TEMP$ PTR;
       62       62    1   DCL TEMP1 REDEF TEMP$ UBIN(36) ALIGNED;
       63       63    1   DCL 1 TEMP1B REDEF TEMP$ ALIGNED,
       64       64    1         2 * UBIN(4) UNAL,
       65       65    1         2 B1 UBIN(8) UNAL,
       66       66    1         2 B2 UBIN(8) UNAL,
       67       67    1         2 B3 UBIN(8) UNAL,
       68       68    1         2 B4 UBIN(8) UNAL;
       69       69    1   DCL TEMP2 UBIN(36) ALIGNED;
PL6.E3A0      #001=DFA$KILL1 File=DFA$KILL1.:E05TSI                              TUE 07/29/97 14:34 Page:13
       70       70    1   DCL 1 TEMP2B REDEF TEMP2 ALIGNED,
       71       71    1         2 * BIT(1) UNAL,
       72       72    1         2 B1 UBIN(8) UNAL,
       73       73    1         2 * BIT(1) UNAL,
       74       74    1         2 B2 UBIN(8) UNAL,
       75       75    1         2 * BIT(1) UNAL,
       76       76    1         2 B3 UBIN(8) UNAL,
       77       77    1         2 * BIT(1) UNAL,
       78       78    1         2 B4 UBIN(8) UNAL;
       79       79        /* Includes and Based structures */
       80       80        %INCLUDE DD$BASED;
       81     1383        %FIXCOM (NAME=FXCM);
       82     1399        %FPRG$CONTEXT;
       83     1462        %SHOW$CMD(NAME=K$ILL);
       84     1484        %INCLUDE DD_SUBS_C;
       85     1755        %INCLUDE DD_PSUBS_C;
       86     2230        %INCLUDE XUH_MACRO_C;
       87     2314        %INCLUDE DD_SD_M;
       88     3650        %S_D;
       89     4968        %S_D_PTRS;
       90     5005        %INCLUDE GD$MSG_M;
       91     5169        %GD$MSG(FPTN=GD$MSG,STCLASS="BASED(S_D_L6_MESSAGE$)",L6=YES,L6PTR="UBIN(32) UNAL");
       92     5325        %GD$MSG(FPTN=GD$MSG_HOST,STCLASS="BASED(S_D_HOST_MESSAGE$)",L6=NO);
       93     5481        %INCLUDE GD_EQUS_E;
       94     5642        %INCLUDE DD_ERR_C;
       95     6039        %INCLUDE DD$DITEM;
       12+    6142             %LIST;
       13+    6143    1        DCL SDD$ PTR;
       14+    6144    1        DCL ZITEM$ PTR;
       15+    6145    1        DCL SDD_L6$ PTR;
       16+    6146    1        DCL ZITEM_L6$ PTR;
       96     6720        /* Entry DCLs */
       97     6721    1   DCL DDE$ERROR ENTRY;
       98     6722    1   DCL DDQ$WRITE ENTRY(2);
       99     6723    1   DCL DDR$BINTXT ENTRY(4);
      100     6724    1   DCL DFQ$READ_FD ENTRY(2) ALTRET;
      101     6725    1   DCL DFQ$WRITE_FD ENTRY(1) ALTRET;
PL6.E3A0      #001=DFA$KILL1 File=DFA$KILL1.:E05TSI                              TUE 07/29/97 14:34 Page:14
      102     6726    1   DCL DUE$ERRMSG   ENTRY;
      103     6727    1   DCL DUE$GERRMSG   ENTRY;
      104     6728        /**/
      105     6729                                                /* Initialization */
      106     6730    1        KILL$ = ADDR(S_D.FIXCOM(S_D.KILL1));

   6730  1 000002   000000 470400 xsym               LDP0    S_D$
         1 000003   000063 236100                    LDQ     51,,PR0
         1 000004   000003 402007                    MPY     3,DL
         1 000005   000023 736000                    QLS     19
         1 000006   001212 036003                    ADLQ    650,DU
         1 000007   000000 036000 xsym               ADLQ    S_D$
         1 000010   200006 756100                    STQ     KILL$,,AUTO

      107     6731    1        DELFAI = KILL$ -> FXCM.FAI;

   6731  1 000011   200006 471500                    LDP1    KILL$,,AUTO
         1 000012   100002 236100                    LDQ     2,,PR1
         1 000013   777777 376007                    ANQ     -1,DL
         1 000014   200007 756100                    STQ     DELFAI,,AUTO

      108     6732    1        DELTAL = KILL$ -> FXCM.TAL;

   6732  1 000015   100000 236100                    LDQ     0,,PR1
         1 000016   777777 376007                    ANQ     -1,DL
         1 000017   200010 756100                    STQ     DELTAL,,AUTO

      109     6733    1        ST$ = ADDR(S_D.FIXCOM(1));

   6733  1 000020   000000 236000 xsym               LDQ     S_D$
         1 000021   001220 036003                    ADLQ    656,DU
         1 000022   200011 756100                    STQ     ST$,,AUTO

      110     6734    1        EN$ = ADDR(S_D.FIXCOM(S_D.FIXLAST));

   6734  1 000023   000047 236100                    LDQ     39,,PR0
         1 000024   000003 402007                    MPY     3,DL
PL6.E3A0      #001=DFA$KILL1 File=DFA$KILL1.:E05TSI                              TUE 07/29/97 14:34 Page:15
         1 000025   000023 736000                    QLS     19
         1 000026   001212 036003                    ADLQ    650,DU
         1 000027   000000 036000 xsym               ADLQ    S_D$
         1 000030   200012 756100                    STQ     EN$,,AUTO

      111     6735                  /* Find the correct FPRG context and zero out the breakpoint entry */
      112     6736    1        TFPRG$ = S_D.FPRG_CONTEXT$;

   6736  1 000031   000076 236100                    LDQ     62,,PR0
         1 000032   200017 756100                    STQ     TFPRG$,,AUTO

      113     6737    1        IF TFPRG$ = ADDR(NIL)

   6737  1 000033   000001 116000 xsym               CMPQ    B_VECTNIL+1
         1 000034   000477 600000 1                  TZE     FPRG_ERR

      114     6738    1        THEN GOTO FPRG_ERR;
      115     6739    1        RES = S_D.FIXCOM.FPRG_RES(S_D.KILL1);

   6739  1 000035   000063 236100                    LDQ     51,,PR0
         1 000036   000003 402007                    MPY     3,DL
         1 000037   000003 736000                    QLS     3
         1 000040   040100 100506                    MLR     fill='040'O
         1 000041   001215 000010                    ADSC9   653,Q,PR0                cn=0,n=8
         1 000042   200020 000010                    ADSC9   RES,,AUTO                cn=0,n=8

      116     6740    1        RES_SIZE = S_D.FIXCOM.FPRG_RES_SIZE(S_D.KILL1);

   6740  1 000043   000063 236100                    LDQ     51,,PR0
         1 000044   000003 402007                    MPY     3,DL
         1 000045   000001 736000                    QLS     1
         1 000046   001217 235106                    LDA     655,QL,PR0
         1 000047   200022 755100                    STA     RES_SIZE,,AUTO

      117     6741    2        DO WHILE (SUBSTR(RES, 0, RES_SIZE) ~= SUBSTR(TFPRG$->FPRG$CONTEXT.RES,

   6741  1 000050   000056 710000 1                  TRA     s:6746
PL6.E3A0      #001=DFA$KILL1 File=DFA$KILL1.:E05TSI                              TUE 07/29/97 14:34 Page:16

      118     6742    2          0, TFPRG$->FPRG$CONTEXT.RES_SIZE));
      119     6743    2             TFPRG$ = TFPRG$ -> FPRG$CONTEXT.NEXT$;

   6743  1 000051   200017 470500                    LDP0    TFPRG$,,AUTO
         1 000052   000000 236100                    LDQ     0,,PR0
         1 000053   200017 756100                    STQ     TFPRG$,,AUTO

      120     6744    2             IF TFPRG$ = ADDR(NIL)

   6744  1 000054   000001 116000 xsym               CMPQ    B_VECTNIL+1
         1 000055   000477 600000 1                  TZE     FPRG_ERR

      121     6745    2             THEN GOTO FPRG_ERR;
      122     6746    2           END;

   6746  1 000056   200017 470500                    LDP0    TFPRG$,,AUTO
         1 000057   000004 720100                    LXL0    4,,PR0
         1 000060   200022 721100                    LXL1    RES_SIZE,,AUTO
         1 000061   040140 106540                    CMPC    fill='040'O
         1 000062   200020 000011                    ADSC9   RES,,AUTO                cn=0,n=*X1
         1 000063   000002 000010                    ADSC9   2,,PR0                   cn=0,n=*X0
         1 000064   000051 601000 1                  TNZ     s:6743

      123     6747    1        IF TFPRG$ -> FPRG$CONTEXT.STATE ~= %STOPPED AND

   6747  1 000065   000001 236100                    LDQ     1,,PR0
         1 000066   000777 376003                    ANQ     511,DU
         1 000067   000002 116003                    CMPQ    2,DU
         1 000070   000154 600000 1                  TZE     s:6760
         1 000071   000004 116003                    CMPQ    4,DU
         1 000072   000154 600000 1                  TZE     s:6760

      124     6748    1          TFPRG$ -> FPRG$CONTEXT.STATE ~= %ATEXIT
      125     6749    2        THEN DO;

      126     6750    2             S_D.ERROR = E@FPRGNOTSTOPPED; /* E@FPRGNOTSTOPPED */
PL6.E3A0      #001=DFA$KILL1 File=DFA$KILL1.:E05TSI                              TUE 07/29/97 14:34 Page:17

   6750  1 000073   000432 235007                    LDA     282,DL
         1 000074   000000 471400 xsym               LDP1    S_D$
         1 000075   100013 755100                    STA     11,,PR1

      127     6751    2             CALL DDE$ERROR;

   6751  1 000076   000002 631400 xsym               EPPR1   B_VECTNIL+2
         1 000077   000000 701000 xent               TSX1    DDE$ERROR
         1 000100   000000 011000                    NOP     0

      128     6752    2             S_D.OUTPUT = 'Breakpoint ';

   6752  1 000101   000000 470400 xsym               LDP0    S_D$
         1 000102   040100 100400                    MLR     fill='040'O
         1 000103   000000 000013 0                  ADSC9   0                        cn=0,n=11
         1 000104   005335 004000                    ADSC9   2781,,PR0                cn=0,n=2048

      129     6753    2             BB$ = PINCRC(ADDR(S_D.OUTPUT), SIZEC('Breakpoint '));

   6753  1 000105   000000 236000 xsym               LDQ     S_D$
         1 000106   000000 036000 2                  ADLQ    0
         1 000107   200014 756100                    STQ     BB$,,AUTO

      130     6754    2             CALL DDR$BINTXT(BB$, S_D.KILL1, %UINT_FMT, SIZE);

   6754  1 000110   200015 631500                    EPPR1   SIZE,,AUTO
         1 000111   200035 451500                    STP1    TEMP2+9,,AUTO
         1 000112   000001 236000 2                  LDQ     1
         1 000113   200034 756100                    STQ     TEMP2+8,,AUTO
         1 000114   000000 236000 xsym               LDQ     S_D$
         1 000115   000063 036003                    ADLQ    51,DU
         1 000116   200033 756100                    STQ     TEMP2+7,,AUTO
         1 000117   200014 633500                    EPPR3   BB$,,AUTO
         1 000120   200032 453500                    STP3    TEMP2+6,,AUTO
         1 000121   200032 630500                    EPPR0   TEMP2+6,,AUTO
         1 000122   000022 631400 xsym               EPPR1   B_VECTNIL+18
PL6.E3A0      #001=DFA$KILL1 File=DFA$KILL1.:E05TSI                              TUE 07/29/97 14:34 Page:18
         1 000123   000000 701000 xent               TSX1    DDR$BINTXT
         1 000124   000000 011000                    NOP     0

      131     6755    2             BB$ = PINCRC(BB$, SIZE);

   6755  1 000125   200015 236100                    LDQ     SIZE,,AUTO
         1 000126   000020 736000                    QLS     16
         1 000127   200014 036100                    ADLQ    BB$,,AUTO
         1 000130   200014 756100                    STQ     BB$,,AUTO

      132     6756    2             BB$ -> CHAR18 = ' can not be killed';

   6756  1 000131   200014 470500                    LDP0    BB$,,AUTO
         1 000132   040100 100400                    MLR     fill='040'O
         1 000133   000003 000022 0                  ADSC9   3                        cn=0,n=18
         1 000134   000000 000022                    ADSC9   0,,PR0                   cn=0,n=18

      133     6757    2             CALL DDQ$WRITE(ADDR(S_D.OUTPUT), SIZEC('Breakpoint ')+18+SIZE);

   6757  1 000135   000000 236000 xsym               LDQ     S_D$
         1 000136   005335 036003                    ADLQ    2781,DU
         1 000137   200032 756100                    STQ     TEMP2+6,,AUTO
         1 000140   200015 235100                    LDA     SIZE,,AUTO
         1 000141   000035 035007                    ADLA    29,DL
         1 000142   200033 755100                    STA     TEMP2+7,,AUTO
         1 000143   200033 630500                    EPPR0   TEMP2+7,,AUTO
         1 000144   200035 450500                    STP0    TEMP2+9,,AUTO
         1 000145   200032 631500                    EPPR1   TEMP2+6,,AUTO
         1 000146   200034 451500                    STP1    TEMP2+8,,AUTO
         1 000147   200034 630500                    EPPR0   TEMP2+8,,AUTO
         1 000150   000020 631400 xsym               EPPR1   B_VECTNIL+16
         1 000151   000000 701000 xent               TSX1    DDQ$WRITE
         1 000152   000000 011000                    NOP     0

      134     6758    2             GOTO RETN;

   6758  1 000153   000476 710000 1                  TRA     RETN
PL6.E3A0      #001=DFA$KILL1 File=DFA$KILL1.:E05TSI                              TUE 07/29/97 14:34 Page:19

      135     6759    2           END;
      136     6760    1        IF S_D.FIXCOM.INACTIVE(S_D.KILL1)

   6760  1 000154   000000 471400 xsym               LDP1    S_D$
         1 000155   100063 236100                    LDQ     51,,PR1
         1 000156   000003 402007                    MPY     3,DL
         1 000157   000001 736000                    QLS     1
         1 000160   101212 236106                    LDQ     650,QL,PR1
         1 000161   000400 316003                    CANQ    256,DU
         1 000162   000366 601000 1                  TNZ     ENDREST

      137     6761    1        THEN GOTO ENDREST;
      138     6762    1        I = 1;

   6762  1 000163   000001 235007                    LDA     1,DL
         1 000164   200016 755100                    STA     I,,AUTO

      139     6763    2        DO WHILE (S_D.KILL1 ~= TFPRG$ -> FPRG$CONTEXT.FIXCOM_INDEX(I));

   6763  1 000165   100063 236100                    LDQ     51,,PR1
         1 000166   000171 604000 1                  TMI     s:6764
         1 000167   000034 116105                    CMPQ    28,AL,PR0
         1 000170   000204 600000 1                  TZE     s:6768

      140     6764    2             I = I + 1;

   6764  1 000171   200016 235100                    LDA     I,,AUTO
         1 000172   000001 035007                    ADLA    1,DL
         1 000173   200016 755100                    STA     I,,AUTO

      141     6765    2             IF I > 20

   6765  1 000174   000025 115007                    CMPA    21,DL
         1 000175   000506 603000 1                  TRC     NO_MATCH

      142     6766    2             THEN GOTO NO_MATCH;
PL6.E3A0      #001=DFA$KILL1 File=DFA$KILL1.:E05TSI                              TUE 07/29/97 14:34 Page:20
      143     6767    2           END;

   6767  1 000176   000000 470400 xsym               LDP0    S_D$
         1 000177   200017 471500                    LDP1    TFPRG$,,AUTO
         1 000200   000063 236100                    LDQ     51,,PR0
         1 000201   000171 604000 1                  TMI     s:6764
         1 000202   100034 116105                    CMPQ    28,AL,PR1
         1 000203   000171 601000 1                  TNZ     s:6764

      144     6768    1        TFPRG$ -> FPRG$CONTEXT.FIXCOM_INDEX(I) = 0;

   6768  1 000204   200017 470500                    LDP0    TFPRG$,,AUTO
         1 000205   200016 720100                    LXL0    I,,AUTO
         1 000206   000034 450110                    STZ     28,X0,PR0

      145     6769    1        IF CCMD = C_OE                     /* C_OE */

   6769  1 000207   200004 470500                    LDP0    @CCMD,,AUTO
         1 000210   000000 235100                    LDA     0,,PR0
         1 000211   000040 115007                    CMPA    32,DL
         1 000212   000217 601000 1                  TNZ     s:6771

      146     6770    1        THEN TFPRG$ -> FPRG$CONTEXT.ONEXIT = 0;

   6770  1 000213   200017 471500                    LDP1    TFPRG$,,AUTO
         1 000214   003100 061400                    CSR     bolr='003'O
         1 000215   000002 000044 xsym               BDSC    B_VECTNIL+2              by=0,bit=0,n=36
         1 000216   100061 700011                    BDSC    49,,PR1                  by=3,bit=8,n=9

      147     6771    1        IF CCMD = C_ONCALLS                /* C_ONCALLS */

   6771  1 000217   000000 235100                    LDA     0,,PR0
         1 000220   000065 115007                    CMPA    53,DL
         1 000221   000225 601000 1                  TNZ     s:6773

      148     6772    1        THEN TFPRG$ -> FPRG$CONTEXT.ONCALLS = 0;

PL6.E3A0      #001=DFA$KILL1 File=DFA$KILL1.:E05TSI                              TUE 07/29/97 14:34 Page:21
   6772  1 000222   200017 471500                    LDP1    TFPRG$,,AUTO
         1 000223   000002 236000 2                  LDQ     2
         1 000224   100062 356100                    ANSQ    50,,PR1

      149     6773    1        IF WRITE

   6773  1 000225   200003 471500                    LDP1    @WRITE,,AUTO
         1 000226   100000 234100                    SZN     0,,PR1
         1 000227   000366 605000 1                  TPL     ENDREST

      150     6774    2        THEN DO;

      151     6775                                           /* Write a KILL BREAKPOINT message to FD */
      152     6776    2             GD$MSG = '0'B;

   6776  1 000230   000000 473400 xsym               LDP3    S_D_L6_MESSAGE$
         1 000231   003100 060400                    CSL     bolr='003'O
         1 000232   000002 000001 xsym               BDSC    B_VECTNIL+2              by=0,bit=0,n=1
         1 000233   300000 004720                    BDSC    0,,PR3                   by=0,bit=0,n=2512

      153     6777    2             GD$MSG.FNC = %GD#RQSKILLATN;

   6777  1 000234   300000 236100                    LDQ     0,,PR3
         1 000235   000003 376000 2                  ANQ     3
         1 000236   020000 276003                    ORQ     8192,DU
         1 000237   300000 756100                    STQ     0,,PR3

      154     6778    2             GD$MSG.KILLRQS.BRK# = I;

   6778  1 000240   200016 236100                    LDQ     I,,AUTO
         1 000241   000014 736000                    QLS     12
         1 000242   300000 676100                    ERQ     0,,PR3
         1 000243   000004 376000 2                  ANQ     4
         1 000244   300000 656100                    ERSQ    0,,PR3

      155     6779    2             CALL DFQ$WRITE_FD (TFPRG$) ALTRET(ERR);

PL6.E3A0      #001=DFA$KILL1 File=DFA$KILL1.:E05TSI                              TUE 07/29/97 14:34 Page:22
   6779  1 000245   200017 634500                    EPPR4   TFPRG$,,AUTO
         1 000246   200032 454500                    STP4    TEMP2+6,,AUTO
         1 000247   200032 630500                    EPPR0   TEMP2+6,,AUTO
         1 000250   000017 631400 xsym               EPPR1   B_VECTNIL+15
         1 000251   000000 701000 xent               TSX1    DFQ$WRITE_FD
         1 000252   000525 702000 1                  TSX2    ERR

      156     6780    2             CALL DFQ$READ_FD (TFPRG$, '0'B) ALTRET(ERR);

   6780  1 000253   000005 236000 2                  LDQ     5
         1 000254   200033 756100                    STQ     TEMP2+7,,AUTO
         1 000255   200017 630500                    EPPR0   TFPRG$,,AUTO
         1 000256   200032 450500                    STP0    TEMP2+6,,AUTO
         1 000257   200032 630500                    EPPR0   TEMP2+6,,AUTO
         1 000260   000020 631400 xsym               EPPR1   B_VECTNIL+16
         1 000261   000000 701000 xent               TSX1    DFQ$READ_FD
         1 000262   000525 702000 1                  TSX2    ERR

      157     6781    2             IF GD$MSG.FNC = %GD#RSPNAK

   6781  1 000263   000000 470400 xsym               LDP0    S_D_L6_MESSAGE$
         1 000264   000000 236100                    LDQ     0,,PR0
         1 000265   776000 376003                    ANQ     -1024,DU
         1 000266   150000 116003                    CMPQ    53248,DU
         1 000267   000342 601000 1                  TNZ     s:6796

      158     6782    3             THEN DO;

      159     6783    3                  IF TFPRG$ -> FPRG$CONTEXT.XDELTA

   6783  1 000270   200017 471500                    LDP1    TFPRG$,,AUTO
         1 000271   100001 236100                    LDQ     1,,PR1
         1 000272   002000 316003                    CANQ    1024,DU
         1 000273   000330 600000 1                  TZE     s:6792

      160     6784    4                  THEN DO;

PL6.E3A0      #001=DFA$KILL1 File=DFA$KILL1.:E05TSI                              TUE 07/29/97 14:34 Page:23
      161     6785    4                       TEMP1 = BITBIN(GD$MSG.ERROR_D.ERRCODE);

   6785  1 000274   000000 235100                    LDA     0,,PR0
         1 000275   000001 236100                    LDQ     1,,PR0
         1 000276   000030 773000                    LRL     24
         1 000277   000006 376000 2                  ANQ     6
         1 000300   200023 756100                    STQ     TEMP$,,AUTO

      162     6786    4                       TEMP2B.B1 = TEMP1B.B1;

   6786  1 000301   200023 236100                    LDQ     TEMP$,,AUTO
         1 000302   000003 736000                    QLS     3
         1 000303   200024 676100                    ERQ     TEMP2,,AUTO
         1 000304   377000 376003                    ANQ     130560,DU
         1 000305   200024 656100                    ERSQ    TEMP2,,AUTO

      163     6787    4                       TEMP2B.B2 = TEMP1B.B2;

   6787  1 000306   200023 236100                    LDQ     TEMP$,,AUTO
         1 000307   000002 736000                    QLS     2
         1 000310   200024 676100                    ERQ     TEMP2,,AUTO
         1 000311   000377 376003                    ANQ     255,DU
         1 000312   200024 656100                    ERSQ    TEMP2,,AUTO

      164     6788    4                       TEMP2B.B3 = TEMP1B.B3;

   6788  1 000313   200023 236100                    LDQ     TEMP$,,AUTO
         1 000314   000001 736000                    QLS     1
         1 000315   200024 676100                    ERQ     TEMP2,,AUTO
         1 000316   377000 376007                    ANQ     130560,DL
         1 000317   200024 656100                    ERSQ    TEMP2,,AUTO

      165     6789    4                       TEMP2B.B4 = TEMP1B.B4;

   6789  1 000320   200023 236100                    LDQ     TEMP$,,AUTO
         1 000321   200024 676100                    ERQ     TEMP2,,AUTO
         1 000322   000377 376007                    ANQ     255,DL
PL6.E3A0      #001=DFA$KILL1 File=DFA$KILL1.:E05TSI                              TUE 07/29/97 14:34 Page:24
         1 000323   200024 656100                    ERSQ    TEMP2,,AUTO

      166     6790    4                       S_D.JDE = TEMP2;

   6790  1 000324   000000 473400 xsym               LDP3    S_D$
         1 000325   200024 235100                    LDA     TEMP2,,AUTO
         1 000326   304733 755100                    STA     2523,,PR3

      167     6791    4                     END;

   6791  1 000327   000336 710000 1                  TRA     s:6793

      168     6792    3                  ELSE S_D.JDE = BITBIN(GD$MSG_HOST.ERROR_D.ERRCODE);

   6792  1 000330   000000 473400 xsym               LDP3    S_D_HOST_MESSAGE$
         1 000331   300000 235100                    LDA     0,,PR3
         1 000332   300001 236100                    LDQ     1,,PR3
         1 000333   000022 773000                    LRL     18
         1 000334   000000 474400 xsym               LDP4    S_D$
         1 000335   404733 756100                    STQ     2523,,PR4

      169     6793    3                  CALL DUE$GERRMSG;

   6793  1 000336   000002 631400 xsym               EPPR1   B_VECTNIL+2
         1 000337   000000 701000 xent               TSX1    DUE$GERRMSG
         1 000340   000000 011000                    NOP     0

      170     6794    3                  GOTO RETN;

   6794  1 000341   000476 710000 1                  TRA     RETN

      171     6795    3                END;
      172     6796    2             IF GD$MSG.FNC ~= %GD#RSPACK

   6796  1 000342   106000 116003                    CMPQ    35840,DU
         1 000343   000366 600000 1                  TZE     ENDREST

PL6.E3A0      #001=DFA$KILL1 File=DFA$KILL1.:E05TSI                              TUE 07/29/97 14:34 Page:25
      173     6797    3             THEN DO;

      174     6798    3                  IF TFPRG$ -> FPRG$CONTEXT.XDELTA AND

   6798  1 000344   200017 471500                    LDP1    TFPRG$,,AUTO
         1 000345   100001 236100                    LDQ     1,,PR1
         1 000346   002000 316003                    CANQ    1024,DU
         1 000347   000360 600000 1                  TZE     s:6801
         1 000350   000000 236100                    LDQ     0,,PR0
         1 000351   776000 376003                    ANQ     -1024,DU
         1 000352   140000 116003                    CMPQ    49152,DU
         1 000353   000360 601000 1                  TNZ     s:6801

      175     6799    3                    GD$MSG.FNC = %GD#RSPBADMSG
      176     6800    3                  THEN S_D.ERROR = E@BADMSG; /* E@BADMSG */

   6800  1 000354   000512 235007                    LDA     330,DL
         1 000355   000000 473400 xsym               LDP3    S_D$
         1 000356   300013 755100                    STA     11,,PR3
         1 000357   000363 710000 1                  TRA     s:6802

      177     6801    3                  ELSE S_D.ERROR = E@DELBUG; /* E@DELBUG */

   6801  1 000360   000766 235007                    LDA     502,DL
         1 000361   000000 473400 xsym               LDP3    S_D$
         1 000362   300013 755100                    STA     11,,PR3

      178     6802    3                  CALL DDE$ERROR;

   6802  1 000363   000002 631400 xsym               EPPR1   B_VECTNIL+2
         1 000364   000000 701000 xent               TSX1    DDE$ERROR
         1 000365   000000 011000                    NOP     0

      179     6803    3                END;

      180     6804    2           END;

PL6.E3A0      #001=DFA$KILL1 File=DFA$KILL1.:E05TSI                              TUE 07/29/97 14:34 Page:26
      181     6805                                                /* MOVE THE WHOLE MAGILLA UP */
      182     6806    1   ENDREST:
      183     6807    1        IF KILL

   6807  1 000366   200005 470500       ENDREST      LDP0    @KILL,,AUTO
         1 000367   000000 234100                    SZN     0,,PR0
         1 000370   000476 605000 1                  TPL     RETN

      184     6808    2        THEN DO;

      185     6809    3             DO WHILE ( ST$ <= EN$ );

   6809  1 000371   200012 236100                    LDQ     EN$,,AUTO
         1 000372   200011 116100                    CMPQ    ST$,,AUTO
         1 000373   000430 602000 1                  TNC     s:6818

      186     6810    3                  IF ( ST$ -> FXCM.CMD ~= 0 )

   6810  1 000374   200011 470500                    LDP0    ST$,,AUTO
         1 000375   000000 236100                    LDQ     0,,PR0
         1 000376   777000 316003                    CANQ    -512,DU
         1 000377   000422 600000 1                  TZE     s:6816

      187     6811    4                  THEN DO;

      188     6812    4                       S_D.FIXLAST = POFFW( ST$, ADDR( S_D.FIXCOM ) ) / SIZEW( FXCM );

   6812  1 000400   000000 236000 xsym               LDQ     S_D$
         1 000401   001212 036003                    ADLQ    650,DU
         1 000402   000022 772000                    QRL     18
         1 000403   200032 756100                    STQ     TEMP2+6,,AUTO
         1 000404   200011 236100                    LDQ     ST$,,AUTO
         1 000405   000022 772000                    QRL     18
         1 000406   200032 136100                    SBLQ    TEMP2+6,,AUTO
         1 000407   000006 506007                    DIV     6,DL
         1 000410   000000 471400 xsym               LDP1    S_D$
         1 000411   100047 756100                    STQ     39,,PR1
PL6.E3A0      #001=DFA$KILL1 File=DFA$KILL1.:E05TSI                              TUE 07/29/97 14:34 Page:27

      189     6813    4                       IF ( ST$ -> FXCM.FAI > DELFAI )

   6813  1 000412   000002 236100                    LDQ     2,,PR0
         1 000413   777777 376007                    ANQ     -1,DL
         1 000414   200007 116100                    CMPQ    DELFAI,,AUTO
         1 000415   000422 602000 1                  TNC     s:6816
         1 000416   000422 600000 1                  TZE     s:6816

      190     6814    4                       THEN ST$ -> FXCM.FAI = ST$ -> FXCM.FAI - DELTAL;

   6814  1 000417   200010 136100                    SBLQ    DELTAL,,AUTO
         1 000420   000000 620006                    EAX0    0,QL
         1 000421   000002 440100                    SXL0    2,,PR0

      191     6815    4                     END;

      192     6816    3                  ST$ = PINCRW( ST$, SIZEW( FXCM ) );

   6816  1 000422   200011 236100                    LDQ     ST$,,AUTO
         1 000423   000006 036003                    ADLQ    6,DU
         1 000424   200011 756100                    STQ     ST$,,AUTO

      193     6817    3                END;

   6817  1 000425   200012 116100                    CMPQ    EN$,,AUTO
         1 000426   000374 602000 1                  TNC     s:6810
         1 000427   000374 600000 1                  TZE     s:6810

      194     6818    2             CVSIZE = POFFC( S_D.VARNEXT$, PINCRW( S_D.VARCOM$, DELFAI + DELTAL ) );

   6818  1 000430   200007 236100                    LDQ     DELFAI,,AUTO
         1 000431   200010 036100                    ADLQ    DELTAL,,AUTO
         1 000432   000000 470400 xsym               LDP0    S_D$
         1 000433   004622 471500                    LDP1    2450,,PR0
         1 000434   100000 633506                    EPPR3   0,QL,PR1
         1 000435   200032 453500                    STP3    TEMP2+6,,AUTO
PL6.E3A0      #001=DFA$KILL1 File=DFA$KILL1.:E05TSI                              TUE 07/29/97 14:34 Page:28
         1 000436   200032 236100                    LDQ     TEMP2+6,,AUTO
         1 000437   000020 772000                    QRL     16
         1 000440   200033 756100                    STQ     TEMP2+7,,AUTO
         1 000441   000033 236100                    LDQ     27,,PR0
         1 000442   000020 772000                    QRL     16
         1 000443   200033 136100                    SBLQ    TEMP2+7,,AUTO
         1 000444   200013 756100                    STQ     CVSIZE,,AUTO

      195     6819    2             PINCRW( S_D.VARCOM$, DELFAI ) -> CHARVAR = PINCRW( S_D.VARCOM$, DELFAI +
              6819                      DELTAL ) -> CHARVAR;

   6819  1 000445   200007 236100                    LDQ     DELFAI,,AUTO
         1 000446   200010 036100                    ADLQ    DELTAL,,AUTO
         1 000447   000002 736000                    QLS     2
         1 000450   200007 235100                    LDA     DELFAI,,AUTO
         1 000451   000002 735000                    ALS     2
         1 000452   200013 720100                    LXL0    CVSIZE,,AUTO
         1 000453   040145 100546                    MLR     fill='040'O
         1 000454   100000 000010                    ADSC9   0,Q,PR1                  cn=0,n=*X0
         1 000455   100000 000010                    ADSC9   0,A,PR1                  cn=0,n=*X0

      196     6820                                                /* FINAL CLEANUP */
      197     6821    2             KILL$ -> FXCM = '0'B;

   6821  1 000456   200006 471500                    LDP1    KILL$,,AUTO
         1 000457   000100 100400                    MLR     fill='000'O
         1 000460   000002 000001 xsym               ADSC9   B_VECTNIL+2              cn=0,n=1
         1 000461   100000 000030                    ADSC9   0,,PR1                   cn=0,n=24

      198     6822    2             S_D.VARNEXT$ = PINCRW( S_D.VARNEXT$, -DELTAL );

   6822  1 000462   000033 473500                    LDP3    27,,PR0
         1 000463   200010 721100                    LXL1    DELTAL,,AUTO
         1 000464   777777 621011                    EAX1    -1,X1
         1 000465   777777 661003                    ERX1    -1,DU
         1 000466   300000 634511                    EPPR4   0,X1,PR3
         1 000467   000033 454500                    STP4    27,,PR0
PL6.E3A0      #001=DFA$KILL1 File=DFA$KILL1.:E05TSI                              TUE 07/29/97 14:34 Page:29

      199     6823                                                /* Check for suicide kill */
      200     6824    2             IF S_D.IXFIX = S_D.KILL1

   6824  1 000470   000015 236100                    LDQ     13,,PR0
         1 000471   000063 116100                    CMPQ    51,,PR0
         1 000472   000476 601000 1                  TNZ     RETN

      201     6825    3             THEN DO;

      202     6826    3                  S_D.FAULTCMD$ = ADDR(NIL);

   6826  1 000473   000001 236000 xsym               LDQ     B_VECTNIL+1
         1 000474   000004 756100                    STQ     4,,PR0

      203     6827    3                  S_D.ENTRYCMD$ = ADDR(NIL);

   6827  1 000475   005203 756100                    STQ     2691,,PR0

      204     6828    3                END;

      205     6829    2           END;

   6824  1 000476                       RETN         null
      206     6830                                                /**/
      207     6831    1   RETN: ;
      208     6832    1        RETURN;

   6832  1 000476   000000 702200 xent               TSX2  ! X66_ARET

   6824  1 000477                       FPRG_ERR     null
      209     6833    1   FPRG_ERR: ;
      210     6834    1        S_D.ERROR = E@DELBUG;              /* E@DELBUG */

   6834  1 000477   000766 235007                    LDA     502,DL
         1 000500   000000 470400 xsym               LDP0    S_D$
         1 000501   000013 755100                    STA     11,,PR0
PL6.E3A0      #001=DFA$KILL1 File=DFA$KILL1.:E05TSI                              TUE 07/29/97 14:34 Page:30

      211     6835    1        CALL DDE$ERROR;

   6835  1 000502   000002 631400 xsym               EPPR1   B_VECTNIL+2
         1 000503   000000 701000 xent               TSX1    DDE$ERROR
         1 000504   000000 011000                    NOP     0

      212     6836    1        GOTO RETN;

   6836  1 000505   000476 710000 1                  TRA     RETN

   6834  1 000506                       NO_MATCH     null
      213     6837    1   NO_MATCH: ;
      214     6838    1        IF S_D.DO$ ~= ADDR(NIL)

   6838  1 000506   000000 470400 xsym               LDP0    S_D$
         1 000507   000031 236100                    LDQ     25,,PR0
         1 000510   000001 116000 xsym               CMPQ    B_VECTNIL+1
         1 000511   000517 600000 1                  TZE     s:6841
         1 000512   000031 471500                    LDP1    25,,PR0
         1 000513   100001 236100                    LDQ     1,,PR1
         1 000514   777000 376003                    ANQ     -512,DU
         1 000515   430000 116003                    CMPQ    -118784,DU
         1 000516   000476 600000 1                  TZE     RETN

      215     6839    1          AND S_D.DO$ -> K$ILL.TYPE = S@ALL /* KILL ALL */
      216     6840    1        THEN GOTO RETN;
      217     6841    1        S_D.ERROR = E@DELBUG;              /* E@DELBUG */

   6841  1 000517   000766 236007                    LDQ     502,DL
         1 000520   000013 756100                    STQ     11,,PR0

      218     6842    1        CALL DDE$ERROR;

   6842  1 000521   000002 631400 xsym               EPPR1   B_VECTNIL+2
         1 000522   000000 701000 xent               TSX1    DDE$ERROR
         1 000523   000000 011000                    NOP     0
PL6.E3A0      #001=DFA$KILL1 File=DFA$KILL1.:E05TSI                              TUE 07/29/97 14:34 Page:31

      219     6843    1        GOTO RETN;

   6843  1 000524   000476 710000 1                  TRA     RETN

   6841  1 000525                       ERR          null
      220     6844    1   ERR: ;
      221     6845    1        CALL DUE$ERRMSG;

   6845  1 000525   000002 631400 xsym               EPPR1   B_VECTNIL+2
         1 000526   000000 701000 xent               TSX1    DUE$ERRMSG
         1 000527   000000 011000                    NOP     0

      222     6846    1        GOTO RETN;

   6846  1 000530   000476 710000 1                  TRA     RETN

(unnamed)
 Sect OctLoc
   0     000   102162 145141   153160 157151   156164 040040   040143 141156    Breakpoint   can
   0     004   040156 157164   040142 145040   153151 154154   145144 040040     not be killed

(unnamed)
 Sect OctLoc
   2     000   005337 600000   000004 006000   776001 777777   001777 777777    ................
   2     004   000003 770000   000002 006000   037777 777777                    ............
      223     6847    1   END DFA$KILL1;
      224     6848        %EOD;

PL6.E3A0      #001=DFA$KILL1 File=DFA$KILL1.:E05TSI                              TUE 07/29/97 14:34 Page:32
--  Include file information  --

   DD_SRTN_C.:E05TOU  is referenced.
   DD_ACODE_C.:E05TOU  is referenced.
   DD_ICODE_C.:E05TOU  is referenced.
   DD$DITEM.:E05TOU  cannot be made into a system file and is referenced.
   DD_ERR_C.:E05TOU  is referenced.
   GD_EQUS_E.:E05TOU  is referenced.
   GD$MSG_M.:E05TOU  is referenced.
   DD_SD_M.:E05TOU  is referenced.
   XUH_MACRO_C.:E05TOU  is referenced.
   DD_PSUBS_C.:E05TOU  is referenced.
   DD_SUBS_C.:E05TOU  is referenced.
   DD$BASED.:E05TOU  is referenced.
   B$JIT_C.:E05TOU  was found in the system file and is never referenced.
   CP_6_C.:E05TOU  was found in the system file and is never referenced.
      No diagnostics issued in procedure DFA$KILL1.

   Procedure DFA$KILL1 requires 345 words for executable code.
   Procedure DFA$KILL1 requires 30 words of local(AUTO) storage.
PL6.E3A0      #001=DFA$KILL1 File=DFA$KILL1.:E05TSI                              TUE 07/29/97 14:34 Page:33
          *** CROSS REFERENCE LISTING ***
**     DENOTES     IDENTIFIER DEFINITION
<<                 IDENTIFIER'S VALUE SET
>>                 IDENTIFIER'S VALUE USED
<>                 IDENTIFIER SET AND/OR USED
--                 IDENTIFIER REFERENCED
PL6.E3A0      #001=DFA$KILL1 File=DFA$KILL1.:E05TSI                              TUE 07/29/97 14:34 Page:34
          MINI XREF LISTING

BB$
        55**DCL      6753<<ASSIGN   6754<>CALL     6755<<ASSIGN   6755>>ASSIGN   6756>>ASSIGN
CCMD
        44**DCL        41--PROC     6769>>IF       6771>>IF
CHAR18
        54**DCL      6756<<ASSIGN
CHARVAR
        52**DCL      6819<<ASSIGN   6819>>ASSIGN
CVSIZE
        53**DCL        52--IMP-SIZ  6818<<ASSIGN   6819>>ASSIGN   6819>>ASSIGN
DDE$ERROR
      6721**DCL-ENT  6751--CALL     6802--CALL     6835--CALL     6842--CALL
DDQ$WRITE
      6722**DCL-ENT  6757--CALL
DDR$BINTXT
      6723**DCL-ENT  6754--CALL
DELFAI
        48**DCL      6731<<ASSIGN   6813>>IF       6818>>ASSIGN   6819>>ASSIGN   6819>>ASSIGN
DELTAL
        49**DCL      6732<<ASSIGN   6814>>ASSIGN   6818>>ASSIGN   6819>>ASSIGN   6822>>ASSIGN
DFQ$READ_FD
      6724**DCL-ENT  6780--CALL
DFQ$WRITE_FD
      6725**DCL-ENT  6779--CALL
DUE$ERRMSG
      6726**DCL-ENT  6845--CALL
DUE$GERRMSG
      6727**DCL-ENT  6793--CALL
EN$
        51**DCL      6734<<ASSIGN   6809>>DOWHILE
ENDREST
      6807**LABEL    6761--GOTO
PL6.E3A0      #001=DFA$KILL1 File=DFA$KILL1.:E05TSI                              TUE 07/29/97 14:34 Page:35
ERR
      6841**LABEL    6779--CALLALT  6780--CALLALT
FPRG$CONTEXT.FIXCOM_INDEX
      1440**DCL      6763>>DOWHILE  6768<<ASSIGN
FPRG$CONTEXT.NEXT$
      1401**DCL      6743>>ASSIGN
FPRG$CONTEXT.ONCALLS
      1449**DCL      6772<<ASSIGN
FPRG$CONTEXT.ONEXIT
      1448**DCL      6770<<ASSIGN
FPRG$CONTEXT.RES
      1420**DCL      6741>>DOWHILE
FPRG$CONTEXT.RES_SIZE
      1422**DCL      6741>>DOWHILE
FPRG$CONTEXT.STATE
      1415**DCL      6747>>IF       6747>>IF
FPRG$CONTEXT.XDELTA
      1413**DCL      6783>>IF       6798>>IF
FPRG_ERR
      6824**LABEL    6738--GOTO     6745--GOTO
FXCM
      1384**DCL      6812--ASSIGN   6816--ASSIGN   6821<<ASSIGN
FXCM.CMD
      1385**DCL      6810>>IF
FXCM.FAI
      1395**DCL      6731>>ASSIGN   6813>>IF       6814<<ASSIGN   6814>>ASSIGN
FXCM.TAL
      1392**DCL      6732>>ASSIGN
GD$MSG
      5186**DCL      6776<<ASSIGN
GD$MSG.BRKRQS.IF$CONST.SIZE
      5237**DCL      5237--REDEF
GD$MSG.BRKRQS.IF$CONST.TEXT
      5237**DCL      5238--REDEF    5238--REDEF    5239--REDEF    5240--REDEF
GD$MSG.BRKRSP.BRK#
      5251**DCL      5251--REDEF
PL6.E3A0      #001=DFA$KILL1 File=DFA$KILL1.:E05TSI                              TUE 07/29/97 14:34 Page:36
GD$MSG.BRKRSP.USER#
      5251**DCL      5251--REDEF
GD$MSG.ERROR_D.ERRCODE
      5192**DCL      6785>>ASSIGN
GD$MSG.FNC
      5186**DCL      6777<<ASSIGN   6781>>IF       6796>>IF       6798>>IF
GD$MSG.KILLRQS.BRK#
      5256**DCL      6778<<ASSIGN
GD$MSG.LETMEM_D.VALUE.SIZE
      5209**DCL      5209--REDEF
GD$MSG.LETMEM_D.VALUE.TEXT
      5210**DCL      5210--REDEF    5210--REDEF    5211--REDEF    5212--REDEF
GD$MSG.MESSAGE
      5191**DCL      5191--REDEF    5192--REDEF    5192--REDEF    5193--REDEF    5204--REDEF    5217--REDEF
      5222--REDEF    5229--REDEF    5245--REDEF    5250--REDEF    5256--REDEF    5257--REDEF    5286--REDEF
      5288--REDEF    5299--REDEF    5306--REDEF    5318--REDEF
GD$MSG.SUBFNC
      5186**DCL      5186--REDEF    5190--REDEF
GD$MSG.TSA.I
      5258**DCL      5258--REDEF
GD$MSG.TSA.S
      5260**DCL      5260--REDEF
GD$MSG.USERQS.ASDT$
      5286**DCL      5286--REDEF    5287--REDEF
GD$MSG_HOST.BRKRQS.IF$CONST.SIZE
      5393**DCL      5393--REDEF
GD$MSG_HOST.BRKRQS.IF$CONST.TEXT
      5393**DCL      5394--REDEF    5394--REDEF    5395--REDEF    5396--REDEF
GD$MSG_HOST.BRKRSP.BRK#
      5407**DCL      5407--REDEF
GD$MSG_HOST.BRKRSP.USER#
      5407**DCL      5407--REDEF
GD$MSG_HOST.ERROR_D.ERRCODE
      5348**DCL      6792>>ASSIGN
GD$MSG_HOST.LETMEM_D.VALUE.SIZE
      5365**DCL      5365--REDEF
PL6.E3A0      #001=DFA$KILL1 File=DFA$KILL1.:E05TSI                              TUE 07/29/97 14:34 Page:37
GD$MSG_HOST.LETMEM_D.VALUE.TEXT
      5366**DCL      5366--REDEF    5366--REDEF    5367--REDEF    5368--REDEF
GD$MSG_HOST.MESSAGE
      5347**DCL      5347--REDEF    5348--REDEF    5348--REDEF    5349--REDEF    5360--REDEF    5373--REDEF
      5378--REDEF    5385--REDEF    5401--REDEF    5406--REDEF    5412--REDEF    5413--REDEF    5442--REDEF
      5444--REDEF    5455--REDEF    5462--REDEF    5474--REDEF
GD$MSG_HOST.SUBFNC
      5342**DCL      5342--REDEF    5346--REDEF
GD$MSG_HOST.TSA.I
      5414**DCL      5414--REDEF
GD$MSG_HOST.TSA.S
      5416**DCL      5416--REDEF
GD$MSG_HOST.USERQS.ASDT$
      5442**DCL      5442--REDEF    5443--REDEF
I
        57**DCL      6762<<ASSIGN   6763>>DOWHILE  6764<<ASSIGN   6764>>ASSIGN   6765>>IF       6768>>ASSIGN
      6778>>ASSIGN
K$ILL.TYPE
      1467**DCL      6838>>IF
KILL
        45**DCL        41--PROC     6807>>IF
KILL$
        47**DCL      6730<<ASSIGN   6731>>ASSIGN   6732>>ASSIGN   6821>>ASSIGN
NO_MATCH
      6834**LABEL    6766--GOTO
RES
        59**DCL      6739<<ASSIGN   6741>>DOWHILE
RES_SIZE
        60**DCL      6740<<ASSIGN   6741>>DOWHILE
RETN
      6824**LABEL    6758--GOTO     6794--GOTO     6836--GOTO     6840--GOTO     6843--GOTO     6846--GOTO
SIZE
        56**DCL      6754<>CALL     6755>>ASSIGN   6757>>CALL
ST$
        50**DCL      6733<<ASSIGN   6809>>DOWHILE  6810>>IF       6812>>ASSIGN   6813>>IF       6814>>ASSIGN
      6814>>ASSIGN   6816<<ASSIGN   6816>>ASSIGN
PL6.E3A0      #001=DFA$KILL1 File=DFA$KILL1.:E05TSI                              TUE 07/29/97 14:34 Page:38
S_D.CURRENT_CHANNEL
      4602**DCL      4604--REDEF
S_D.DEBUGA
      3754**DCL      3756--REDEF
S_D.DO$
      3705**DCL      6838>>IF       6838>>IF
S_D.EIS
      4712**DCL      4741--REDEF
S_D.ENTRYCMD$
      4454**DCL      6827<<ASSIGN
S_D.ERROR
      3683**DCL      6750<<ASSIGN   6800<<ASSIGN   6801<<ASSIGN   6834<<ASSIGN   6841<<ASSIGN
S_D.FAULTCMD$
      3669**DCL      6826<<ASSIGN
S_D.FIXCOM
      4108**DCL      6730--ASSIGN   6733--ASSIGN   6734--ASSIGN   6812--ASSIGN
S_D.FIXCOM.FPRG_RES
      4121**DCL      6739>>ASSIGN
S_D.FIXCOM.FPRG_RES_SIZE
      4122**DCL      6740>>ASSIGN
S_D.FIXCOM.INACTIVE
      4111**DCL      6760>>IF
S_D.FIXLAST
      3746**DCL      6734>>ASSIGN   6812<<ASSIGN
S_D.FPRG_CONTEXT$
      3794**DCL      6736>>ASSIGN
S_D.HOST_MESSAGE_BUF_REMOTE
      4645**DCL      4646--REDEF    4660--REDEF
S_D.IXFIX
      3687**DCL      6824>>IF
S_D.JDE
      4259**DCL      4260--REDEF    6790<<ASSIGN   6792<<ASSIGN
S_D.KILL1
      3772**DCL      6730>>ASSIGN   6739>>ASSIGN   6740>>ASSIGN   6754<>CALL     6760>>IF       6763>>DOWHILE
      6824>>IF
S_D.L$.VALUE
PL6.E3A0      #001=DFA$KILL1 File=DFA$KILL1.:E05TSI                              TUE 07/29/97 14:34 Page:39
      3812**DCL      3818--REDEF    3826--REDEF    3829--REDEF    3832--REDEF    3835--REDEF
S_D.L$.VALUE.L
      3813**DCL      3814--REDEF    3815--REDEF
S_D.L6_MESSAGE_BUF
      4666**DCL      4668--REDEF
S_D.OUTPUT
      4632**DCL      4634--REDEF    6752<<ASSIGN   6753--ASSIGN   6757--CALL
S_D.REMOTE_MSG.FNCC
      4651**DCL      4652--REDEF
S_D.REMOTE_MSG.STXC
      4647**DCL      4648--REDEF
S_D.REMOTE_MSG.SUBFNCC
      4655**DCL      4656--REDEF
S_D.SV
      3711**DCL      3732--REDEF
S_D.VARCOM$
      4123**DCL      6818>>ASSIGN   6819>>ASSIGN   6819>>ASSIGN
S_D.VARNEXT$
      3709**DCL      6818>>ASSIGN   6822<<ASSIGN   6822>>ASSIGN
S_D$
      4963**DCL      3659--IMP-PTR  6730>>ASSIGN   6730>>ASSIGN   6733>>ASSIGN   6734>>ASSIGN   6734>>ASSIGN
      6736>>ASSIGN   6739>>ASSIGN   6739>>ASSIGN   6740>>ASSIGN   6740>>ASSIGN   6750>>ASSIGN   6752>>ASSIGN
      6753>>ASSIGN   6754>>CALL     6757>>CALL     6760>>IF       6760>>IF       6763>>DOWHILE  6790>>ASSIGN
      6792>>ASSIGN   6800>>ASSIGN   6801>>ASSIGN   6812>>ASSIGN   6812>>ASSIGN   6818>>ASSIGN   6818>>ASSIGN
      6819>>ASSIGN   6819>>ASSIGN   6822>>ASSIGN   6822>>ASSIGN   6824>>IF       6824>>IF       6826>>ASSIGN
      6827>>ASSIGN   6834>>ASSIGN   6838>>IF       6838>>IF       6841>>ASSIGN
S_D_HOST_MESSAGE$
      4999**DCL      5342--IMP-PTR  6792>>ASSIGN
S_D_L6_MESSAGE$
      5000**DCL      5186--IMP-PTR  6776>>ASSIGN   6777>>ASSIGN   6778>>ASSIGN   6781>>IF       6785>>ASSIGN
      6796>>IF       6798>>IF
TEMP$
        61**DCL        62--REDEF      63--REDEF
TEMP1
        62**DCL      6785<<ASSIGN
TEMP1B.B1
PL6.E3A0      #001=DFA$KILL1 File=DFA$KILL1.:E05TSI                              TUE 07/29/97 14:34 Page:40
        65**DCL      6786>>ASSIGN
TEMP1B.B2
        66**DCL      6787>>ASSIGN
TEMP1B.B3
        67**DCL      6788>>ASSIGN
TEMP1B.B4
        68**DCL      6789>>ASSIGN
TEMP2
        69**DCL        70--REDEF    6790>>ASSIGN
TEMP2B.B1
        72**DCL      6786<<ASSIGN
TEMP2B.B2
        74**DCL      6787<<ASSIGN
TEMP2B.B3
        76**DCL      6788<<ASSIGN
TEMP2B.B4
        78**DCL      6789<<ASSIGN
TFPRG$
        58**DCL      6736<<ASSIGN   6737>>IF       6741>>DOWHILE  6741>>DOWHILE  6743<<ASSIGN   6743>>ASSIGN
      6744>>IF       6747>>IF       6747>>IF       6763>>DOWHILE  6768>>ASSIGN   6770>>ASSIGN   6772>>ASSIGN
      6779<>CALL     6780<>CALL     6783>>IF       6798>>IF
WRITE
        43**DCL        41--PROC     6773>>IF
PL6.E3A0      #001=DFA$KILL1 File=DFA$KILL1.:E05TSI                              TUE 07/29/97 14:34 Page:41
              *** CROSS REFERENCE LISTING ***
    **     DENOTES     IDENTIFIER DEFINITION
    <<                 IDENTIFIER'S VALUE SET
    >>                 IDENTIFIER'S VALUE USED
    <>                 IDENTIFIER SET AND/OR USED
    --                 IDENTIFIER REFERENCED
PL6.E3A0      #001=DFA$KILL1 File=DFA$KILL1.:E05TSI                              TUE 07/29/97 14:34 Page:42
              MINI UREF LISTING

DFA$KILL1      41**PROC
SDD$    6143**DCL
SDD_L6$    6145**DCL
S_D_ACCESS$    4978**DCL
S_D_ANLZ$    4980**DCL
S_D_ASTACKOFF$    4979**DCL
S_D_BREAK$    4981**DCL
S_D_DO_SCAN$    4982**DCL
S_D_ERROR$    4983**DCL
S_D_FAULTCMD$$    4984**DCL
S_D_FAULTINS$$    4985**DCL
S_D_GOIC$    4986**DCL
S_D_GO_MODE$    4987**DCL
S_D_HW_PTB_UNITS$    5003**DCL
S_D_HW_RES_MEM$    5001**DCL
S_D_HW_WSQ0PT$    5002**DCL
S_D_IPRFLT$    4989**DCL
S_D_IXFIX$    4988**DCL
S_D_REM_ACCESS$    4990**DCL
S_D_REM_DISKBOOT$    4992**DCL
S_D_REM_DO_SCAN$    4991**DCL
S_D_RETURNN$    4993**DCL
S_D_SAD$    4994**DCL
S_D_SAVEIC$    4995**DCL
S_D_SEG$    4977**DCL
S_D_TCB$$    4996**DCL
S_D_UREG$$    4997**DCL
S_D_USS$$    4998**DCL
ZITEM$    6144**DCL
ZITEM_L6$    6146**DCL

PL6.E3A0      #002=DFA$KILL_DELTA File=DFA$KILL1.:E05TSI                         TUE 07/29/97 14:34 Page:43
      225        1        /*T***********************************************************/
      226        2        /*T*                                                         */
      227        3        /*T* Copyright (c) Bull HN Information Systems Inc., 1997    */
      228        4        /*T*                                                         */
      229        5        /*T***********************************************************/
      230        6        /*F* NAME: DFA$KILL_DELTA
      231        7             PURPOSE: Disassociate DELTA from the specified FPRG
      232        8             DESCRIPTION:
      233        9             A KILL DELTA message is build in S_D.L6_MESSAGE_BUF and
      234       10             DFQ$WRITE_FD is called to write the message to FD for the
      235       11             specified FPRG */
      236       12
      237       13        DFA$KILL_DELTA: PROC;
      238       14        /* Inludes and Based Structures */
      239       15        %INCLUDE DD$BASED;
      240     1318        %FPRG$CONTEXT;
      241     1381        %INCLUDE DD_ERR_C;
      242     1778        %INCLUDE XUH_MACRO_C;
      243     1862        %INCLUDE DD_SD_M;
      244     3198        %S_D;
      245     4516        %S_D_PTRS;
      246     4553        %INCLUDE GD$MSG_M;
      247     4717        %GD$MSG(FPTN=GD$MSG,STCLASS="BASED(S_D_L6_MESSAGE$)",L6=YES,L6PTR="UBIN(32) UNAL");
      248     4873        %INCLUDE CP_6;
      249     4954        %F$DCB;
      250     5011        %INCLUDE GD_EQUS_E;
      251     5172        /* Entry DCLs */
      252     5173    1   DCL DFA$KILL1 ENTRY(3);
      253     5174    1   DCL DFA$KILL_FPRG ENTRY(1);
      254     5175    1   DCL DFQ$WRITE_FD ENTRY(1) ALTRET;
      255     5176    1   DCL DUE$ERRMSG ENTRY;
      256     5177    1   DCL FPRG$ PTR;
      257     5178    1   DCL PFPRG$ PTR;
      258     5179    1   DCL RES CHAR(8);
      259     5180    1   DCL I SBIN;
      260     5181        %FPT_CLOSE (STCLASS=SYMREF);
      261     5223        %FPT_CLOSE (FPTN=FPT$CLOSE, STCLASS=AUTO);
PL6.E3A0      #002=DFA$KILL_DELTA File=DFA$KILL1.:E05TSI                         TUE 07/29/97 14:34 Page:44
      262     5265        %FPT_RELDCB (STCLASS=SYMREF);
      263     5279        %FPT_RELDCB (FPTN=FPTRELDCB, STCLASS=AUTO);
      264     5293
      265     5294
      266     5295    1        GD$MSG = '0'B;
      267     5296    1        GD$MSG.FNC = %GD#RQSKILLFD;
      268     5297    1        FPRG$ = S_D.CURRENT_FPRG_CONTEXT$;
      269     5298    1        IF FPRG$->FPRG$CONTEXT.XDELTA
      270     5299    1        THEN GD$MSG.FNC = %GD#RQSQUIT;
      271     5300    1        IF NOT FPRG$->FPRG$CONTEXT.FANLZ
      272     5301    1        THEN CALL DFQ$WRITE_FD(FPRG$)
      273     5302    2             WHENALTRETURN DO;
      274     5303    2                  CALL DUE$ERRMSG;
      275     5304    2                END;
      276     5305    1        RES = SUBSTR(FPRG$->FPRG$CONTEXT.RES,0,FPRG$->FPRG$CONTEXT.RES_SIZE);
      277     5306                            /* Get rid of breakpoints associated with QUITed FPRG */
      278     5307    2        DO I = 1 TO S_D.FIXLAST;
      279     5308    2             IF RES = SUBSTR(S_D.FIXCOM.FPRG_RES(I),0, S_D.FIXCOM.FPRG_RES_SIZE(I))
      280     5309    3             THEN DO;
      281     5310    3                  S_D.KILL1 = I;
      282     5311    3                  CALL DFA$KILL1('0'B, S_D.FIXCOM.CMD(I), '1'B);
      283     5312    3                END;
      284     5313    2           END;
      285     5314    1        FPT$CLOSE = FPT_CLOSE;
      286     5315    1        FPT$CLOSE.V_ = VECTOR(FPT$CLOSE.V);
      287     5316    1        FPT$CLOSE.V.DCB# = FPRG$ -> FPRG$CONTEXT.DCBNO;
      288     5317    1        IF DCBADDR(FPT$CLOSE.V.DCB#)->F$DCB.FCD#
      289     5318    1        THEN CALL M$CLOSE (FPT$CLOSE)
      290     5319    2             WHENALTRETURN DO;
      291     5320    2                  S_D.ERROR = E@RELFPRG;   /* E@RELFPRG */
      292     5321    2                  CALL DUE$ERRMSG;
      293     5322    2                END;
      294     5323    1        FPTRELDCB = FPT_RELDCB;
      295     5324    1        FPTRELDCB.V_ = VECTOR(FPTRELDCB.V);
      296     5325    1        FPTRELDCB.V.DCB# = FPRG$ -> FPRG$CONTEXT.DCBNO;
      297     5326    1        CALL M$RELDCB (FPTRELDCB)
      298     5327    2        WHENALTRETURN DO;
PL6.E3A0      #002=DFA$KILL_DELTA File=DFA$KILL1.:E05TSI                         TUE 07/29/97 14:34 Page:45
      299     5328    2             S_D.ERROR = E@RELFPRG;        /* E@RELFPRG */
      300     5329    2             CALL DUE$ERRMSG;
      301     5330    2           END;
      302     5331    1        IF FPTRELDCB.V.DCB# = S_D.DBGFEPDCB
      303     5332    1        THEN S_D.DBGFEPDCB = 0;
      304     5333    1        IF S_D.FPRG
      305     5334    1        THEN CALL DFA$KILL_FPRG;
      306     5335                                                /* Return slot to AVAIL list */
      307     5336    1        PFPRG$ = S_D.FPRG_CONTEXT$;
      308     5337    1        IF PFPRG$ = FPRG$
      309     5338    1        THEN S_D.FPRG_CONTEXT$ = FPRG$ -> FPRG$CONTEXT.NEXT$;
      310     5339    2        ELSE DO WHILE PFPRG$ ~= ADDR(NIL);
      311     5340    2             IF PFPRG$->FPRG$CONTEXT.NEXT$ = FPRG$
      312     5341    2             THEN PFPRG$->FPRG$CONTEXT.NEXT$ = FPRG$->FPRG$CONTEXT.NEXT$;
      313     5342    2             PFPRG$ = PFPRG$->FPRG$CONTEXT.NEXT$;
      314     5343    2           END;
      315     5344    1        FPRG$->FPRG$CONTEXT.NEXT$ = S_D.FPRG_CONTEXT_AVAIL$;
      316     5345    1        S_D.FPRG_CONTEXT_AVAIL$ = FPRG$;
      317     5346    1        IF FPRG$ = S_D.DEBUG_CMD_CONTEXT$
      318     5347    2        THEN DO;
      319     5348    2             S_D.DEBUG_CMD_CONTEXT$ = ADDR(NIL);
      320     5349    2             S_D.DEBUG_CMD = '0'B;
      321     5350    2           END;
      322     5351    1        RETURN;
      323     5352    1   END DFA$KILL_DELTA;

PL6.E3A0      #002=DFA$KILL_DELTA File=DFA$KILL1.:E05TSI                         TUE 07/29/97 14:34 Page:46
--  Include file information  --

   GD_EQUS_E.:E05TOU  is referenced.
   CP_6.:E05TOU  cannot be made into a system file and is referenced.
   GD$MSG_M.:E05TOU  is referenced.
   DD_SD_M.:E05TOU  is referenced.
   XUH_MACRO_C.:E05TOU  is referenced.
   DD_ERR_C.:E05TOU  is referenced.
   DD$BASED.:E05TOU  is referenced.
   B$JIT_C.:E05TOU  was found in the system file and is never referenced.
   CP_6_C.:E05TOU  was found in the system file and is referenced.
      No diagnostics issued in procedure DFA$KILL_DELTA.

   Procedure DFA$KILL_DELTA requires 164 words for executable code.
   Procedure DFA$KILL_DELTA requires 46 words of local(AUTO) storage.

    No errors detected in file DFA$KILL1.:E05TSI    .

PL6.E3A0      #002=DFA$KILL_DELTA File=DFA$KILL1.:E05TSI                         TUE 07/29/97 14:34 Page:47

 Object Unit name= DFA$KILL_DELTA                             File name= DFA$KILL1.:E05TOU
 UTS= JUL 29 '97 14:34:29.96 TUE                              Compiler= PL-6/E31         Sev=      00
 SharedLib= :SHARED_SYSTEM                                    Alt SharedLib=


    ****  Control sections  ****

 Sect   Type Bound  Init  Size OctSiz  Section name(segment info)
    0   DCB   even  none     0      0  M$UC
    1   Proc  even  none   164    244  DFA$KILL_DELTA
    2  RoData even  none     6      6  DFA$KILL_DELTA

    ****  Entry defs  ****

                              Check   Calling
                             calling  sequence
  Sect OctLoc Primary Altret sequence   type   Parms  Name
     1      0   yes            yes      Std        0  DFA$KILL_DELTA

  ****  Entry refs  ****

         Check        Calling
        calling       sequence
Altret sequence SRef   type   Args  Name
 yes     yes           Std       1 DFQ$WRITE_FD
         yes           Std       0 DUE$ERRMSG
         yes           Std       3 DFA$KILL1
         yes           Std       1 DFA$KILL_FPRG
                       nStd      0 X66_AUTO_0
                       Std       0 B_CONSPOOL_D
                       nStd      0 X66_ARET
PL6.E3A0      #002=DFA$KILL_DELTA File=DFA$KILL1.:E05TSI                         TUE 07/29/97 14:34 Page:48

  ****  Data refs  ****

  Flags:  r = read only, s = secondary
Flgs Name                             Flgs Name                             Flgs Name
r    S_D$                             r    S_D_L6_MESSAGE$                       M$UC
     FPT_CLOSE                             FPT_RELDCB                            B_VECTNIL

  ****  Segment refs  ****

  Flags:  r = read only, s = secondary
Flgs Name                             Flgs Name                             Flgs Name
     ROSID                                 ISSID
PL6.E3A0      #002=DFA$KILL_DELTA File=DFA$KILL1.:E05TSI                         TUE 07/29/97 14:34 Page:49


      225        1        /*T***********************************************************/
      226        2        /*T*                                                         */
      227        3        /*T* Copyright (c) Bull HN Information Systems Inc., 1997    */
      228        4        /*T*                                                         */
      229        5        /*T***********************************************************/
      230        6        /*F* NAME: DFA$KILL_DELTA
      231        7             PURPOSE: Disassociate DELTA from the specified FPRG
      232        8             DESCRIPTION:
      233        9             A KILL DELTA message is build in S_D.L6_MESSAGE_BUF and
      234       10             DFQ$WRITE_FD is called to write the message to FD for the
      235       11             specified FPRG */
      236       12
      237       13        DFA$KILL_DELTA: PROC;

     13  1 000000   000000 700200 xent  DFA$KILL_DE* TSX0  ! X66_AUTO_0
         1 000001   000056 000000                    ZERO    46,0

      238       14        /* Inludes and Based Structures */
      239       15        %INCLUDE DD$BASED;
      240     1318        %FPRG$CONTEXT;
      241     1381        %INCLUDE DD_ERR_C;
      242     1778        %INCLUDE XUH_MACRO_C;
      243     1862        %INCLUDE DD_SD_M;
      244     3198        %S_D;
      245     4516        %S_D_PTRS;
      246     4553        %INCLUDE GD$MSG_M;
      247     4717        %GD$MSG(FPTN=GD$MSG,STCLASS="BASED(S_D_L6_MESSAGE$)",L6=YES,L6PTR="UBIN(32) UNAL");
      248     4873        %INCLUDE CP_6;
      249     4954        %F$DCB;
      250     5011        %INCLUDE GD_EQUS_E;
      251     5172        /* Entry DCLs */
      252     5173    1   DCL DFA$KILL1 ENTRY(3);
      253     5174    1   DCL DFA$KILL_FPRG ENTRY(1);
      254     5175    1   DCL DFQ$WRITE_FD ENTRY(1) ALTRET;
      255     5176    1   DCL DUE$ERRMSG ENTRY;
      256     5177    1   DCL FPRG$ PTR;
PL6.E3A0      #002=DFA$KILL_DELTA File=DFA$KILL1.:E05TSI                         TUE 07/29/97 14:34 Page:50
      257     5178    1   DCL PFPRG$ PTR;
      258     5179    1   DCL RES CHAR(8);
      259     5180    1   DCL I SBIN;
      260     5181        %FPT_CLOSE (STCLASS=SYMREF);
      261     5223        %FPT_CLOSE (FPTN=FPT$CLOSE, STCLASS=AUTO);
      262     5265        %FPT_RELDCB (STCLASS=SYMREF);
      263     5279        %FPT_RELDCB (FPTN=FPTRELDCB, STCLASS=AUTO);
      264     5293
      265     5294
      266     5295    1        GD$MSG = '0'B;

   5295  1 000002   000000 470400 xsym               LDP0    S_D_L6_MESSAGE$
         1 000003   003100 060400                    CSL     bolr='003'O
         1 000004   000002 000001 xsym               BDSC    B_VECTNIL+2              by=0,bit=0,n=1
         1 000005   000000 004720                    BDSC    0,,PR0                   by=0,bit=0,n=2512

      267     5296    1        GD$MSG.FNC = %GD#RQSKILLFD;

   5296  1 000006   000000 236100                    LDQ     0,,PR0
         1 000007   000000 376000 2                  ANQ     0
         1 000010   056000 276003                    ORQ     23552,DU
         1 000011   000000 756100                    STQ     0,,PR0

      268     5297    1        FPRG$ = S_D.CURRENT_FPRG_CONTEXT$;

   5297  1 000012   000000 471400 xsym               LDP1    S_D$
         1 000013   100102 236100                    LDQ     66,,PR1
         1 000014   200003 756100                    STQ     FPRG$,,AUTO

      269     5298    1        IF FPRG$->FPRG$CONTEXT.XDELTA

   5298  1 000015   200003 473500                    LDP3    FPRG$,,AUTO
         1 000016   300001 236100                    LDQ     1,,PR3
         1 000017   002000 316003                    CANQ    1024,DU
         1 000020   000025 600000 1                  TZE     s:5300

      270     5299    1        THEN GD$MSG.FNC = %GD#RQSQUIT;
PL6.E3A0      #002=DFA$KILL_DELTA File=DFA$KILL1.:E05TSI                         TUE 07/29/97 14:34 Page:51

   5299  1 000021   000000 236100                    LDQ     0,,PR0
         1 000022   000000 376000 2                  ANQ     0
         1 000023   054000 276003                    ORQ     22528,DU
         1 000024   000000 756100                    STQ     0,,PR0

      271     5300    1        IF NOT FPRG$->FPRG$CONTEXT.FANLZ

   5300  1 000025   200003 473500                    LDP3    FPRG$,,AUTO
         1 000026   300001 430100                    FSZN    1,,PR3
         1 000027   000042 604000 1                  TMI     s:5305

      272     5301    1        THEN CALL DFQ$WRITE_FD(FPRG$)

   5301  1 000030   200003 634500                    EPPR4   FPRG$,,AUTO
         1 000031   200052 454500                    STP4    FPTRELDCB+4,,AUTO
         1 000032   200052 630500                    EPPR0   FPTRELDCB+4,,AUTO
         1 000033   000017 631400 xsym               EPPR1   B_VECTNIL+15
         1 000034   000000 701000 xent               TSX1    DFQ$WRITE_FD
         1 000035   000037 702000 1                  TSX2    s:5303
         1 000036   000042 710000 1                  TRA     s:5305

      273     5302    2             WHENALTRETURN DO;

      274     5303    2                  CALL DUE$ERRMSG;

   5303  1 000037   000002 631400 xsym               EPPR1   B_VECTNIL+2
         1 000040   000000 701000 xent               TSX1    DUE$ERRMSG
         1 000041   000000 011000                    NOP     0

      275     5304    2                END;

      276     5305    1        RES = SUBSTR(FPRG$->FPRG$CONTEXT.RES,0,FPRG$->FPRG$CONTEXT.RES_SIZE);

   5305  1 000042   200003 470500                    LDP0    FPRG$,,AUTO
         1 000043   000004 720100                    LXL0    4,,PR0
         1 000044   040100 100540                    MLR     fill='040'O
PL6.E3A0      #002=DFA$KILL_DELTA File=DFA$KILL1.:E05TSI                         TUE 07/29/97 14:34 Page:52
         1 000045   000002 000010                    ADSC9   2,,PR0                   cn=0,n=*X0
         1 000046   200005 000010                    ADSC9   RES,,AUTO                cn=0,n=8

      277     5306                            /* Get rid of breakpoints associated with QUITed FPRG */
      278     5307    2        DO I = 1 TO S_D.FIXLAST;

   5307  1 000047   000001 235007                    LDA     1,DL
         1 000050   200007 755100                    STA     I,,AUTO
         1 000051   000103 710000 1                  TRA     s:5313+1

      279     5308    2             IF RES = SUBSTR(S_D.FIXCOM.FPRG_RES(I),0, S_D.FIXCOM.FPRG_RES_SIZE(I))

   5308  1 000052   200007 236100                    LDQ     I,,AUTO
         1 000053   000006 402007                    MPY     6,DL
         1 000054   000000 470400 xsym               LDP0    S_D$
         1 000055   001217 720106                    LXL0    655,QL,PR0
         1 000056   200007 236100                    LDQ     I,,AUTO
         1 000057   000030 402007                    MPY     24,DL
         1 000060   040146 106500                    CMPC    fill='040'O
         1 000061   200005 000010                    ADSC9   RES,,AUTO                cn=0,n=8
         1 000062   001215 000010                    ADSC9   653,Q,PR0                cn=0,n=*X0
         1 000063   000102 601000 1                  TNZ     s:5313

      280     5309    3             THEN DO;

      281     5310    3                  S_D.KILL1 = I;

   5310  1 000064   200007 235100                    LDA     I,,AUTO
         1 000065   000063 755100                    STA     51,,PR0

      282     5311    3                  CALL DFA$KILL1('0'B, S_D.FIXCOM.CMD(I), '1'B);

   5311  1 000066   000001 236000 2                  LDQ     1
         1 000067   200054 756100                    STQ     FPTRELDCB+6,,AUTO
         1 000070   200007 236100                    LDQ     I,,AUTO
         1 000071   000006 402003                    MPY     6,DU
         1 000072   001212 036003                    ADLQ    650,DU
PL6.E3A0      #002=DFA$KILL_DELTA File=DFA$KILL1.:E05TSI                         TUE 07/29/97 14:34 Page:53
         1 000073   000000 036000 xsym               ADLQ    S_D$
         1 000074   000002 235000 2                  LDA     2
         1 000075   200052 757100                    STAQ    FPTRELDCB+4,,AUTO
         1 000076   200052 630500                    EPPR0   FPTRELDCB+4,,AUTO
         1 000077   000021 631400 xsym               EPPR1   B_VECTNIL+17
         1 000100   000000 701000 xent               TSX1    DFA$KILL1
         1 000101   000000 011000                    NOP     0

      283     5312    3                END;

      284     5313    2           END;

   5313  1 000102   200007 054100                    AOS     I,,AUTO
         1 000103   000000 470400 xsym               LDP0    S_D$
         1 000104   200007 236100                    LDQ     I,,AUTO
         1 000105   000047 116100                    CMPQ    39,,PR0
         1 000106   000052 604400 1                  TMOZ    s:5308

      285     5314    1        FPT$CLOSE = FPT_CLOSE;

   5314  1 000107   000100 100400                    MLR     fill='000'O
         1 000110   000000 000170 xsym               ADSC9   FPT_CLOSE                cn=0,n=120
         1 000111   200010 000170                    ADSC9   FPT$CLOSE,,AUTO          cn=0,n=120

      286     5315    1        FPT$CLOSE.V_ = VECTOR(FPT$CLOSE.V);

   5315  1 000112   000003 235000 2                  LDA     3
         1 000113   200052 452500                    STP2    FPTRELDCB+4,,AUTO
         1 000114   200052 236100                    LDQ     FPTRELDCB+4,,AUTO
         1 000115   000042 036003                    ADLQ    34,DU
         1 000116   200010 757100                    STAQ    FPT$CLOSE,,AUTO

      287     5316    1        FPT$CLOSE.V.DCB# = FPRG$ -> FPRG$CONTEXT.DCBNO;

   5316  1 000117   200003 471500                    LDP1    FPRG$,,AUTO
         1 000120   100001 720100                    LXL0    1,,PR1
         1 000121   200042 740100                    STX0    FPT$CLOSE+26,,AUTO
PL6.E3A0      #002=DFA$KILL_DELTA File=DFA$KILL1.:E05TSI                         TUE 07/29/97 14:34 Page:54

      288     5317    1        IF DCBADDR(FPT$CLOSE.V.DCB#)->F$DCB.FCD#

   5317  1 000122   000004 473400 2                  LDP3    4
         1 000123   300000 474500                    LDP4    0,,PR3
         1 000124   400000 475510                    LDP5    0,X0,PR4
         1 000125   500031 236100                    LDQ     25,,PR5
         1 000126   020000 316007                    CANQ    8192,DL
         1 000127   000143 600000 1                  TZE     s:5323

      289     5318    1        THEN CALL M$CLOSE (FPT$CLOSE)

   5318  1 000130   200010 630500                    EPPR0   FPT$CLOSE,,AUTO
         1 000131   450001 713400                    CLIMB   alt,close
         1 000132   406000 401760                    pmme    nvectors=13
         1 000133   000135 702000 1                  TSX2    s:5320
         1 000134   000143 710000 1                  TRA     s:5323

      290     5319    2             WHENALTRETURN DO;

      291     5320    2                  S_D.ERROR = E@RELFPRG;   /* E@RELFPRG */

   5320  1 000135   001013 235007                    LDA     523,DL
         1 000136   000000 470400 xsym               LDP0    S_D$
         1 000137   000013 755100                    STA     11,,PR0

      292     5321    2                  CALL DUE$ERRMSG;

   5321  1 000140   000002 631400 xsym               EPPR1   B_VECTNIL+2
         1 000141   000000 701000 xent               TSX1    DUE$ERRMSG
         1 000142   000000 011000                    NOP     0

      293     5322    2                END;

      294     5323    1        FPTRELDCB = FPT_RELDCB;

   5323  1 000143   000100 100400                    MLR     fill='000'O
PL6.E3A0      #002=DFA$KILL_DELTA File=DFA$KILL1.:E05TSI                         TUE 07/29/97 14:34 Page:55
         1 000144   000000 000020 xsym               ADSC9   FPT_RELDCB               cn=0,n=16
         1 000145   200046 000020                    ADSC9   FPTRELDCB,,AUTO          cn=0,n=16

      295     5324    1        FPTRELDCB.V_ = VECTOR(FPTRELDCB.V);

   5324  1 000146   000005 235000 2                  LDA     5
         1 000147   200052 452500                    STP2    FPTRELDCB+4,,AUTO
         1 000150   200052 236100                    LDQ     FPTRELDCB+4,,AUTO
         1 000151   000050 036003                    ADLQ    40,DU
         1 000152   200046 757100                    STAQ    FPTRELDCB,,AUTO

      296     5325    1        FPTRELDCB.V.DCB# = FPRG$ -> FPRG$CONTEXT.DCBNO;

   5325  1 000153   200003 470500                    LDP0    FPRG$,,AUTO
         1 000154   000001 720100                    LXL0    1,,PR0
         1 000155   200050 740100                    STX0    FPTRELDCB+2,,AUTO

      297     5326    1        CALL M$RELDCB (FPTRELDCB)

   5326  1 000156   200046 630500                    EPPR0   FPTRELDCB,,AUTO
         1 000157   460003 713400                    CLIMB   alt,+24579
         1 000160   400000 401760                    pmme    nvectors=1
         1 000161   000163 702000 1                  TSX2    s:5328
         1 000162   000171 710000 1                  TRA     s:5331

      298     5327    2        WHENALTRETURN DO;

      299     5328    2             S_D.ERROR = E@RELFPRG;        /* E@RELFPRG */

   5328  1 000163   001013 235007                    LDA     523,DL
         1 000164   000000 470400 xsym               LDP0    S_D$
         1 000165   000013 755100                    STA     11,,PR0

      300     5329    2             CALL DUE$ERRMSG;

   5329  1 000166   000002 631400 xsym               EPPR1   B_VECTNIL+2
         1 000167   000000 701000 xent               TSX1    DUE$ERRMSG
PL6.E3A0      #002=DFA$KILL_DELTA File=DFA$KILL1.:E05TSI                         TUE 07/29/97 14:34 Page:56
         1 000170   000000 011000                    NOP     0

      301     5330    2           END;

      302     5331    1        IF FPTRELDCB.V.DCB# = S_D.DBGFEPDCB

   5331  1 000171   000000 470400 xsym               LDP0    S_D$
         1 000172   200050 236100                    LDQ     FPTRELDCB+2,,AUTO
         1 000173   000022 772000                    QRL     18
         1 000174   005007 116100                    CMPQ    2567,,PR0
         1 000175   000177 601000 1                  TNZ     s:5333

      303     5332    1        THEN S_D.DBGFEPDCB = 0;

   5332  1 000176   005007 450100                    STZ     2567,,PR0

      304     5333    1        IF S_D.FPRG

   5333  1 000177   000101 234100                    SZN     65,,PR0
         1 000200   000204 605000 1                  TPL     s:5336

      305     5334    1        THEN CALL DFA$KILL_FPRG;

   5334  1 000201   000002 631400 xsym               EPPR1   B_VECTNIL+2
         1 000202   000000 701000 xent               TSX1    DFA$KILL_FPRG
         1 000203   000000 011000                    NOP     0

      306     5335                                                /* Return slot to AVAIL list */
      307     5336    1        PFPRG$ = S_D.FPRG_CONTEXT$;

   5336  1 000204   000000 470400 xsym               LDP0    S_D$
         1 000205   000076 236100                    LDQ     62,,PR0
         1 000206   200004 756100                    STQ     PFPRG$,,AUTO

      308     5337    1        IF PFPRG$ = FPRG$

   5337  1 000207   200003 116100                    CMPQ    FPRG$,,AUTO
PL6.E3A0      #002=DFA$KILL_DELTA File=DFA$KILL1.:E05TSI                         TUE 07/29/97 14:34 Page:57
         1 000210   000215 601000 1                  TNZ     s:5339

      309     5338    1        THEN S_D.FPRG_CONTEXT$ = FPRG$ -> FPRG$CONTEXT.NEXT$;

   5338  1 000211   200003 471500                    LDP1    FPRG$,,AUTO
         1 000212   100000 236100                    LDQ     0,,PR1
         1 000213   000076 756100                    STQ     62,,PR0
         1 000214   000230 710000 1                  TRA     s:5344

      310     5339    2        ELSE DO WHILE PFPRG$ ~= ADDR(NIL);

   5339  1 000215   000226 710000 1                  TRA     s:5343

      311     5340    2             IF PFPRG$->FPRG$CONTEXT.NEXT$ = FPRG$

   5340  1 000216   200004 470500                    LDP0    PFPRG$,,AUTO
         1 000217   000000 236100                    LDQ     0,,PR0
         1 000220   200003 116100                    CMPQ    FPRG$,,AUTO
         1 000221   000225 601000 1                  TNZ     s:5342

      312     5341    2             THEN PFPRG$->FPRG$CONTEXT.NEXT$ = FPRG$->FPRG$CONTEXT.NEXT$;

   5341  1 000222   200003 471500                    LDP1    FPRG$,,AUTO
         1 000223   100000 236100                    LDQ     0,,PR1
         1 000224   000000 756100                    STQ     0,,PR0

      313     5342    2             PFPRG$ = PFPRG$->FPRG$CONTEXT.NEXT$;

   5342  1 000225   200004 756100                    STQ     PFPRG$,,AUTO

      314     5343    2           END;

   5343  1 000226   000001 116000 xsym               CMPQ    B_VECTNIL+1
         1 000227   000216 601000 1                  TNZ     s:5340

      315     5344    1        FPRG$->FPRG$CONTEXT.NEXT$ = S_D.FPRG_CONTEXT_AVAIL$;

PL6.E3A0      #002=DFA$KILL_DELTA File=DFA$KILL1.:E05TSI                         TUE 07/29/97 14:34 Page:58
   5344  1 000230   000000 470400 xsym               LDP0    S_D$
         1 000231   000103 236100                    LDQ     67,,PR0
         1 000232   200003 471500                    LDP1    FPRG$,,AUTO
         1 000233   100000 756100                    STQ     0,,PR1

      316     5345    1        S_D.FPRG_CONTEXT_AVAIL$ = FPRG$;

   5345  1 000234   200003 236100                    LDQ     FPRG$,,AUTO
         1 000235   000103 756100                    STQ     67,,PR0

      317     5346    1        IF FPRG$ = S_D.DEBUG_CMD_CONTEXT$

   5346  1 000236   004666 116100                    CMPQ    2486,,PR0
         1 000237   000243 601000 1                  TNZ     s:5351

      318     5347    2        THEN DO;

      319     5348    2             S_D.DEBUG_CMD_CONTEXT$ = ADDR(NIL);

   5348  1 000240   000001 236000 xsym               LDQ     B_VECTNIL+1
         1 000241   004666 756100                    STQ     2486,,PR0

      320     5349    2             S_D.DEBUG_CMD = '0'B;

   5349  1 000242   004665 450100                    STZ     2485,,PR0

      321     5350    2           END;

      322     5351    1        RETURN;

   5351  1 000243   000000 702200 xent               TSX2  ! X66_ARET

(unnamed)
 Sect OctLoc
   2     000   001777 777777   000030 006000   000002 006000   000003 777640    ................
   2     004   000000 006003   000001 777640                                    ........
      323     5352    1   END DFA$KILL_DELTA;
PL6.E3A0      #002=DFA$KILL_DELTA File=DFA$KILL1.:E05TSI                         TUE 07/29/97 14:34 Page:59

PL6.E3A0      #002=DFA$KILL_DELTA File=DFA$KILL1.:E05TSI                         TUE 07/29/97 14:34 Page:60
--  Include file information  --

   GD_EQUS_E.:E05TOU  is referenced.
   CP_6.:E05TOU  cannot be made into a system file and is referenced.
   GD$MSG_M.:E05TOU  is referenced.
   DD_SD_M.:E05TOU  is referenced.
   XUH_MACRO_C.:E05TOU  is referenced.
   DD_ERR_C.:E05TOU  is referenced.
   DD$BASED.:E05TOU  is referenced.
   B$JIT_C.:E05TOU  was found in the system file and is never referenced.
   CP_6_C.:E05TOU  was found in the system file and is referenced.
      No diagnostics issued in procedure DFA$KILL_DELTA.

   Procedure DFA$KILL_DELTA requires 164 words for executable code.
   Procedure DFA$KILL_DELTA requires 46 words of local(AUTO) storage.

    No errors detected in file DFA$KILL1.:E05TSI    .
PL6.E3A0      #002=DFA$KILL_DELTA File=DFA$KILL1.:E05TSI                         TUE 07/29/97 14:34 Page:61
          *** CROSS REFERENCE LISTING ***
**     DENOTES     IDENTIFIER DEFINITION
<<                 IDENTIFIER'S VALUE SET
>>                 IDENTIFIER'S VALUE USED
<>                 IDENTIFIER SET AND/OR USED
--                 IDENTIFIER REFERENCED
PL6.E3A0      #002=DFA$KILL_DELTA File=DFA$KILL1.:E05TSI                         TUE 07/29/97 14:34 Page:62
          MINI XREF LISTING

DFA$KILL1
      5173**DCL-ENT  5311--CALL
DFA$KILL_FPRG
      5174**DCL-ENT  5334--CALL
DFQ$WRITE_FD
      5175**DCL-ENT  5301--CALL
DUE$ERRMSG
      5176**DCL-ENT  5303--CALL     5321--CALL     5329--CALL
F$DCB.ACTPOS
      4987**DCL      4987--REDEF
F$DCB.ARS#
      4961**DCL      4961--REDEF
F$DCB.ATTR
      4980**DCL      4981--REDEF
F$DCB.BORROW
      4995**DCL      4995--REDEF    4995--REDEF    4995--REDEF
F$DCB.DCBNAME.L
      5009**DCL      5009--IMP-SIZ
F$DCB.EOMCHAR#
      4965**DCL      4965--REDEF
F$DCB.FCD#
      4974**DCL      5317>>IF
F$DCB.FLDID
      4990**DCL      4990--REDEF
F$DCB.FORM$
      4984**DCL      4984--REDEF
F$DCB.FSECT
      5000**DCL      5000--REDEF
F$DCB.FSN#
      4977**DCL      4977--REDEF    4977--REDEF    4978--REDEF
F$DCB.HEADER$
      4983**DCL      4983--REDEF
PL6.E3A0      #002=DFA$KILL_DELTA File=DFA$KILL1.:E05TSI                         TUE 07/29/97 14:34 Page:63
F$DCB.IXTNSIZE#
      4981**DCL      4981--REDEF
F$DCB.LASTSTA$
      4970**DCL      4970--REDEF
F$DCB.LVL
      4996**DCL      4996--REDEF
F$DCB.NAME#.C
      4971**DCL      4971--REDEF
F$DCB.NOEOF
      4993**DCL      4993--REDEF
F$DCB.NRECS#
      4982**DCL      4982--REDEF
F$DCB.NRECX
      5001**DCL      5001--REDEF
F$DCB.OHDR
      4993**DCL      4993--REDEF
F$DCB.ORG#
      4976**DCL      4976--REDEF
F$DCB.PRECNO
      4999**DCL      4999--REDEF
F$DCB.RCSZ
      5005**DCL      5005--REDEF
F$DCB.RES#
      4972**DCL      4972--REDEF
F$DCB.SETX
      4984**DCL      4984--REDEF
F$DCB.TAB$
      4984**DCL      4984--REDEF
F$DCB.TDA
      4998**DCL      4999--REDEF
F$DCB.WSN#
      4972**DCL      4972--REDEF
FPRG$
      5177**DCL      5297<<ASSIGN   5298>>IF       5300>>IF       5301<>CALL     5305>>ASSIGN   5305>>ASSIGN
      5316>>ASSIGN   5325>>ASSIGN   5337>>IF       5338>>ASSIGN   5340>>IF       5341>>ASSIGN   5344>>ASSIGN
      5345>>ASSIGN   5346>>IF
PL6.E3A0      #002=DFA$KILL_DELTA File=DFA$KILL1.:E05TSI                         TUE 07/29/97 14:34 Page:64
FPRG$CONTEXT.DCBNO
      1336**DCL      5316>>ASSIGN   5325>>ASSIGN
FPRG$CONTEXT.FANLZ
      1333**DCL      5300>>IF
FPRG$CONTEXT.NEXT$
      1320**DCL      5338>>ASSIGN   5340>>IF       5341<<ASSIGN   5341>>ASSIGN   5342>>ASSIGN   5344<<ASSIGN
FPRG$CONTEXT.RES
      1339**DCL      5305>>ASSIGN
FPRG$CONTEXT.RES_SIZE
      1341**DCL      5305>>ASSIGN
FPRG$CONTEXT.XDELTA
      1332**DCL      5298>>IF
FPT$CLOSE
      5246**DCL      5314<<ASSIGN   5318<>CALL
FPT$CLOSE.SN_
      5246**DCL      5246--REDEF
FPT$CLOSE.UTL_
      5247**DCL      5247--REDEF
FPT$CLOSE.V
      5251**DCL      5315--ASSIGN
FPT$CLOSE.V.DCB#
      5252**DCL      5316<<ASSIGN   5317--IF
FPT$CLOSE.V.EXPIRE#
      5261**DCL      5261--REDEF
FPT$CLOSE.V.TYPE#
      5259**DCL      5259--REDEF
FPT$CLOSE.V.XTNSIZE#
      5256**DCL      5256--REDEF    5258--REDEF
FPT$CLOSE.V_
      5246**DCL      5315<<ASSIGN
FPTRELDCB
      5290**DCL      5323<<ASSIGN   5326<>CALL
FPTRELDCB.V
      5290**DCL      5324--ASSIGN
FPTRELDCB.V.DCB#
      5290**DCL      5325<<ASSIGN   5331>>IF
PL6.E3A0      #002=DFA$KILL_DELTA File=DFA$KILL1.:E05TSI                         TUE 07/29/97 14:34 Page:65
FPTRELDCB.V_
      5290**DCL      5324<<ASSIGN
FPT_CLOSE
      5204**DCL      5314>>ASSIGN
FPT_CLOSE.SN_
      5204**DCL      5204--REDEF
FPT_CLOSE.UTL_
      5205**DCL      5205--REDEF
FPT_CLOSE.V.EXPIRE#
      5219**DCL      5219--REDEF
FPT_CLOSE.V.TYPE#
      5217**DCL      5217--REDEF
FPT_CLOSE.V.XTNSIZE#
      5214**DCL      5214--REDEF    5216--REDEF
FPT_RELDCB
      5276**DCL      5323>>ASSIGN
GD$MSG
      4734**DCL      5295<<ASSIGN
GD$MSG.BRKRQS.IF$CONST.SIZE
      4785**DCL      4785--REDEF
GD$MSG.BRKRQS.IF$CONST.TEXT
      4785**DCL      4786--REDEF    4786--REDEF    4787--REDEF    4788--REDEF
GD$MSG.BRKRSP.BRK#
      4799**DCL      4799--REDEF
GD$MSG.BRKRSP.USER#
      4799**DCL      4799--REDEF
GD$MSG.FNC
      4734**DCL      5296<<ASSIGN   5299<<ASSIGN
GD$MSG.LETMEM_D.VALUE.SIZE
      4757**DCL      4757--REDEF
GD$MSG.LETMEM_D.VALUE.TEXT
      4758**DCL      4758--REDEF    4758--REDEF    4759--REDEF    4760--REDEF
GD$MSG.MESSAGE
      4739**DCL      4739--REDEF    4740--REDEF    4740--REDEF    4741--REDEF    4752--REDEF    4765--REDEF
      4770--REDEF    4777--REDEF    4793--REDEF    4798--REDEF    4804--REDEF    4805--REDEF    4834--REDEF
      4836--REDEF    4847--REDEF    4854--REDEF    4866--REDEF
PL6.E3A0      #002=DFA$KILL_DELTA File=DFA$KILL1.:E05TSI                         TUE 07/29/97 14:34 Page:66
GD$MSG.SUBFNC
      4734**DCL      4734--REDEF    4738--REDEF
GD$MSG.TSA.I
      4806**DCL      4806--REDEF
GD$MSG.TSA.S
      4808**DCL      4808--REDEF
GD$MSG.USERQS.ASDT$
      4834**DCL      4834--REDEF    4835--REDEF
I
      5180**DCL      5307<<DOINDEX  5308>>IF       5308>>IF       5310>>ASSIGN   5311>>CALL
M$CLOSE
      4882**DCL-ENT  5318--CALL
M$RELDCB
      4888**DCL-ENT  5326--CALL
PFPRG$
      5178**DCL      5336<<ASSIGN   5337>>IF       5339>>DOWHILE  5340>>IF       5341>>ASSIGN   5342<<ASSIGN
      5342>>ASSIGN
RES
      5179**DCL      5305<<ASSIGN   5308>>IF
S_D.CURRENT_CHANNEL
      4150**DCL      4152--REDEF
S_D.CURRENT_FPRG_CONTEXT$
      3350**DCL      5297>>ASSIGN
S_D.DBGFEPDCB
      3902**DCL      5331>>IF       5332<<ASSIGN
S_D.DEBUGA
      3302**DCL      3304--REDEF
S_D.DEBUG_CMD
      3722**DCL      5349<<ASSIGN
S_D.DEBUG_CMD_CONTEXT$
      3724**DCL      5346>>IF       5348<<ASSIGN
S_D.EIS
      4260**DCL      4289--REDEF
S_D.ERROR
      3231**DCL      5320<<ASSIGN   5328<<ASSIGN
S_D.FIXCOM.CMD
PL6.E3A0      #002=DFA$KILL_DELTA File=DFA$KILL1.:E05TSI                         TUE 07/29/97 14:34 Page:67
      3658**DCL      5311<>CALL
S_D.FIXCOM.FPRG_RES
      3669**DCL      5308>>IF
S_D.FIXCOM.FPRG_RES_SIZE
      3670**DCL      5308>>IF
S_D.FIXLAST
      3294**DCL      5307>>DOINDEX
S_D.FPRG
      3348**DCL      5333>>IF
S_D.FPRG_CONTEXT$
      3342**DCL      5336>>ASSIGN   5338<<ASSIGN
S_D.FPRG_CONTEXT_AVAIL$
      3352**DCL      5344>>ASSIGN   5345<<ASSIGN
S_D.HOST_MESSAGE_BUF_REMOTE
      4193**DCL      4194--REDEF    4208--REDEF
S_D.JDE
      3807**DCL      3808--REDEF
S_D.KILL1
      3320**DCL      5310<<ASSIGN
S_D.L$.VALUE
      3360**DCL      3366--REDEF    3374--REDEF    3377--REDEF    3380--REDEF    3383--REDEF
S_D.L$.VALUE.L
      3361**DCL      3362--REDEF    3363--REDEF
S_D.L6_MESSAGE_BUF
      4214**DCL      4216--REDEF
S_D.OUTPUT
      4180**DCL      4182--REDEF
S_D.REMOTE_MSG.FNCC
      4199**DCL      4200--REDEF
S_D.REMOTE_MSG.STXC
      4195**DCL      4196--REDEF
S_D.REMOTE_MSG.SUBFNCC
      4203**DCL      4204--REDEF
S_D.SV
      3259**DCL      3280--REDEF
S_D$
PL6.E3A0      #002=DFA$KILL_DELTA File=DFA$KILL1.:E05TSI                         TUE 07/29/97 14:34 Page:68
      4511**DCL      3207--IMP-PTR  5297>>ASSIGN   5307>>DOINDEX  5308>>IF       5308>>IF       5310>>ASSIGN
      5311>>CALL     5320>>ASSIGN   5328>>ASSIGN   5331>>IF       5332>>ASSIGN   5333>>IF       5336>>ASSIGN
      5338>>ASSIGN   5344>>ASSIGN   5345>>ASSIGN   5346>>IF       5348>>ASSIGN   5349>>ASSIGN
S_D_L6_MESSAGE$
      4548**DCL      4734--IMP-PTR  5295>>ASSIGN   5296>>ASSIGN   5299>>ASSIGN
PL6.E3A0      #002=DFA$KILL_DELTA File=DFA$KILL1.:E05TSI                         TUE 07/29/97 14:34 Page:69
              *** CROSS REFERENCE LISTING ***
    **     DENOTES     IDENTIFIER DEFINITION
    <<                 IDENTIFIER'S VALUE SET
    >>                 IDENTIFIER'S VALUE USED
    <>                 IDENTIFIER SET AND/OR USED
    --                 IDENTIFIER REFERENCED
PL6.E3A0      #002=DFA$KILL_DELTA File=DFA$KILL1.:E05TSI                         TUE 07/29/97 14:34 Page:70
              MINI UREF LISTING

DFA$KILL_DELTA      13**PROC
M$ACCT    4899**DCL-ENT
M$ACTIVATE    4902**DCL-ENT
M$ALIB    4895**DCL-ENT
M$ASUSER    4897**DCL-ENT
M$ATTACH    4904**DCL-ENT
M$BADPP    4922**DCL-ENT
M$CGCTL    4903**DCL-ENT
M$CGINFO    4903**DCL-ENT
M$CHECK    4884**DCL-ENT
M$CHGUNIT    4942**DCL-ENT
M$CLRSTK    4940**DCL-ENT
M$CMDVAR    4951**DCL-ENT
M$CONFIG    4912**DCL-ENT
M$CORRES    4887**DCL-ENT
M$CPEXIT    4896**DCL-ENT
M$CVM    4920**DCL-ENT
M$CVOL    4885**DCL-ENT
M$DCLFLD    4912**DCL-ENT
M$DEACTIVATE    4902**DCL-ENT
M$DELREC    4884**DCL-ENT
M$DEQ    4949**DCL-ENT
M$DETACH    4904**DCL-ENT
M$DEVICE    4886**DCL-ENT
M$DISPLAY    4949**DCL-ENT
M$DISPRES    4889**DCL-ENT
M$DLIB    4895**DCL-ENT
M$DRIBBLE    4912**DCL-ENT
M$DRTN    4940**DCL-ENT
M$DSUSER    4897**DCL-ENT
M$ENQ    4948**DCL-ENT
M$EOM    4907**DCL-ENT
PL6.E3A0      #002=DFA$KILL_DELTA File=DFA$KILL1.:E05TSI                         TUE 07/29/97 14:34 Page:71
M$ERASE    4913**DCL-ENT
M$ERR    4894**DCL-ENT
M$ERRMSG    4945**DCL-ENT
M$EVENT    4937**DCL-ENT
M$EXHUME    4946**DCL-ENT
M$EXIT    4894**DCL-ENT
M$EXTEND    4886**DCL-ENT
M$FDP    4918**DCL-ENT
M$FDS    4917**DCL-ENT
M$FEBOOT    4910**DCL-ENT
M$FECTL    4911**DCL-ENT
M$FEDUMP    4910**DCL-ENT
M$FID    4945**DCL-ENT
M$FINDPROC    4899**DCL-ENT
M$FSUSER    4897**DCL-ENT
M$FVP    4919**DCL-ENT
M$FWCG    4903**DCL-ENT
M$GBPL    4923**DCL-ENT
M$GDDL    4919**DCL-ENT
M$GDP    4918**DCL-ENT
M$GDS    4917**DCL-ENT
M$GETDCB    4888**DCL-ENT
M$GETMOUSE    4928**DCL-ENT
M$GETPM    4929**DCL-ENT
M$GJOB    4947**DCL-ENT
M$GLINEATTR    4907**DCL-ENT
M$GOODPP    4922**DCL-ENT
M$GPLATEN    4915**DCL-ENT
M$GPROMPT    4914**DCL-ENT
M$GTRMATTR    4908**DCL-ENT
M$GTRMCTL    4906**DCL-ENT
M$GTRMTAB    4909**DCL-ENT
M$GVP    4918**DCL-ENT
M$HELP    4945**DCL-ENT
M$INT    4937**DCL-ENT
M$INTRTN    4898**DCL-ENT
PL6.E3A0      #002=DFA$KILL_DELTA File=DFA$KILL1.:E05TSI                         TUE 07/29/97 14:34 Page:72
M$IOQ    4933**DCL-ENT
M$JOBSTATS    4947**DCL-ENT
M$KEYIN    4887**DCL-ENT
M$LDEV    4882**DCL-ENT
M$LDTRC    4895**DCL-ENT
M$LIMIT    4888**DCL-ENT
M$LINES    4887**DCL-ENT
M$LINK    4894**DCL-ENT
M$MADMUCK    4890**DCL-ENT
M$MAKUSER    4921**DCL-ENT
M$MBS    4889**DCL-ENT
M$MDFFLD    4913**DCL-ENT
M$MERC    4938**DCL-ENT
M$MERCS    4939**DCL-ENT
M$MIRROR    4933**DCL-ENT
M$MONINFO    4950**DCL-ENT
M$MPL    4923**DCL-ENT
M$NODEINFO    4914**DCL-ENT
M$NXTUSR    4948**DCL-ENT
M$OCMSG    4946**DCL-ENT
M$OLAY    4894**DCL-ENT
M$OPEN    4882**DCL-ENT
M$PAS    4923**DCL-ENT
M$PATHCON    4946**DCL-ENT
M$PDS    4917**DCL-ENT
M$PFIL    4884**DCL-ENT
M$PLATEN    4908**DCL-ENT
M$PRECORD    4886**DCL-ENT
M$PROCNAME    4899**DCL-ENT
M$PROFILE    4910**DCL-ENT
M$PROMPT    4906**DCL-ENT
M$RACST    4890**DCL-ENT
M$RDSYSLOG    4931**DCL-ENT
M$READ    4883**DCL-ENT
M$RELRES    4889**DCL-ENT
M$RELSTARF    4891**DCL-ENT
PL6.E3A0      #002=DFA$KILL_DELTA File=DFA$KILL1.:E05TSI                         TUE 07/29/97 14:34 Page:73
M$REM    4891**DCL-ENT
M$RENV    4938**DCL-ENT
M$REQUIRE    4890**DCL-ENT
M$RETRY    4939**DCL-ENT
M$RETRYS    4939**DCL-ENT
M$REW    4885**DCL-ENT
M$RLSFLD    4913**DCL-ENT
M$RPRIV    4941**DCL-ENT
M$RSPP    4920**DCL-ENT
M$RSWITCH    4942**DCL-ENT
M$RUE    4948**DCL-ENT
M$SAD    4921**DCL-ENT
M$SAVE    4897**DCL-ENT
M$SCON    4898**DCL-ENT
M$SCREECH    4896**DCL-ENT
M$SENV    4938**DCL-ENT
M$SETFMA    4882**DCL-ENT
M$SETFP    4911**DCL-ENT
M$SINPUT    4909**DCL-ENT
M$SLCFLD    4914**DCL-ENT
M$SMOUSE    4928**DCL-ENT
M$SMPRT    4920**DCL-ENT
M$SPRIV    4941**DCL-ENT
M$SSC    4921**DCL-ENT
M$SSWITCH    4941**DCL-ENT
M$STATE    4950**DCL-ENT
M$STD    4922**DCL-ENT
M$STIMER    4936**DCL-ENT
M$STLPP    4919**DCL-ENT
M$STRAP    4936**DCL-ENT
M$STRMATTR    4908**DCL-ENT
M$STRMCTL    4906**DCL-ENT
M$STRMTAB    4909**DCL-ENT
M$SYMBIO    4947**DCL-ENT
M$SYSCON    4933**DCL-ENT
M$SYSID    4951**DCL-ENT
PL6.E3A0      #002=DFA$KILL_DELTA File=DFA$KILL1.:E05TSI                         TUE 07/29/97 14:34 Page:74
M$TDCLOSE    4932**DCL-ENT
M$TDIO    4932**DCL-ENT
M$TDOPEN    4931**DCL-ENT
M$TDREQCPU    4932**DCL-ENT
M$TEMPWROC    4926**DCL-ENT
M$TIME    4949**DCL-ENT
M$TRAP    4936**DCL-ENT
M$TRMISC    4911**DCL-ENT
M$TRMPRG    4907**DCL-ENT
M$TRTN    4940**DCL-ENT
M$TRUNC    4883**DCL-ENT
M$TTIMER    4936**DCL-ENT
M$UC    4906**DCL
M$UMPL    4923**DCL-ENT
M$UNFID    4945**DCL-ENT
M$UNLATCH    4902**DCL-ENT
M$UNSHARE    4899**DCL-ENT
M$USRFIELD    4942**DCL-ENT
M$VIRTUAL    4917**DCL-ENT
M$WAIT    4940**DCL-ENT
M$WEOF    4885**DCL-ENT
M$WRITE    4883**DCL-ENT
M$WRSYSLOG    4931**DCL-ENT
M$XCON    4937**DCL-ENT
M$XCONRTN    4898**DCL-ENT
M$XEQTIME    4950**DCL-ENT
M$XFLUSH    4891**DCL-ENT
M$XMOUSE    4928**DCL-ENT
M$XXX    4894**DCL-ENT
M$YC    4896**DCL-ENT
S_D_ACCESS$    4526**DCL
S_D_ANLZ$    4528**DCL
S_D_ASTACKOFF$    4527**DCL
S_D_BREAK$    4529**DCL
S_D_DO_SCAN$    4530**DCL
S_D_ERROR$    4531**DCL
PL6.E3A0      #002=DFA$KILL_DELTA File=DFA$KILL1.:E05TSI                         TUE 07/29/97 14:34 Page:75
S_D_FAULTCMD$$    4532**DCL
S_D_FAULTINS$$    4533**DCL
S_D_GOIC$    4534**DCL
S_D_GO_MODE$    4535**DCL
S_D_HOST_MESSAGE$    4547**DCL
S_D_HW_PTB_UNITS$    4551**DCL
S_D_HW_RES_MEM$    4549**DCL
S_D_HW_WSQ0PT$    4550**DCL
S_D_IPRFLT$    4537**DCL
S_D_IXFIX$    4536**DCL
S_D_REM_ACCESS$    4538**DCL
S_D_REM_DISKBOOT$    4540**DCL
S_D_REM_DO_SCAN$    4539**DCL
S_D_RETURNN$    4541**DCL
S_D_SAD$    4542**DCL
S_D_SAVEIC$    4543**DCL
S_D_SEG$    4525**DCL
S_D_TCB$$    4544**DCL
S_D_UREG$$    4545**DCL
S_D_USS$$    4546**DCL
