VERSION E05

PL6.E3A0      #001=DFA$LET File=DFA$LET.:E05TSI                                  TUE 07/29/97 14:34 Page:1
        1        1        /*M*  DFA$LET - LET command do routine for FEP programs */
        2        2        /*T***********************************************************/
        3        3        /*T*                                                         */
        4        4        /*T* Copyright (c) Bull HN Information Systems Inc., 1997    */
        5        5        /*T*                                                         */
        6        6        /*T***********************************************************/
        7        7        /*X* DMR,PLM=5,IND=5,CSU=3,EXM=0,ECU=3,MOC,DCI=5,CRT=5 */
        8        8        %SET LISTSUB='1'B;
        9        9        /*F*  NAME: DFA$LET
       10       10              PURPOSE:  The LET command allows the user to assign
       11       11                       constant values to variables and some special symbols.
       12       12                                                     */
       13       13        DFA$LET: PROC ALTRET;
       14       14        /* Local Auto */
       15       15    1   DCL DO$  PTR;
       16       16    1   DCL DESC$ PTR;
       17       17    1   DCL I UBIN;
       18       18    1   DCL EXPR_OP BIT(1) ALIGNED;
       19       19    1   DCL TEMP$ PTR;
       20       20    1   DCL TEMP1 REDEF TEMP$ UBIN(36) ALIGNED;
       21       21    1   DCL 1 TEMP1B REDEF TEMP$ ALIGNED,
       22       22    1         2 * UBIN(4) UNAL,
       23       23    1         2 B1 UBIN(8) UNAL,
       24       24    1         2 B2 UBIN(8) UNAL,
       25       25    1         2 B3 UBIN(8) UNAL,
       26       26    1         2 B4 UBIN(8) UNAL;
       27       27    1   DCL TEMP2 UBIN(36) ALIGNED;
       28       28    1   DCL 1 TEMP2B REDEF TEMP2 ALIGNED,
       29       29    1         2 * BIT(1) UNAL,
       30       30    1         2 B1 UBIN(8) UNAL,
       31       31    1         2 * BIT(1) UNAL,
       32       32    1         2 B2 UBIN(8) UNAL,
       33       33    1         2 * BIT(1) UNAL,
       34       34    1         2 B3 UBIN(8) UNAL,
       35       35    1         2 * BIT(1) UNAL,
       36       36    1         2 B4 UBIN(8) UNAL;
       37       37        /* Includes and Based structures */
PL6.E3A0      #001=DFA$LET File=DFA$LET.:E05TSI                                  TUE 07/29/97 14:34 Page:2
       38       38        %INCLUDE XUH_MACRO_C;
       39      122        %INCLUDE DD_SD_M;
       40     1458        %S_D;
       41     2776        %S_D_PTRS;
       42     2813        %INCLUDE DD_ERR_C;
       43     3210        %INCLUDE GD$MSG_M;
       44     3374        %GD$MSG(FPTN=GD$MSG,STCLASS="BASED(S_D_L6_MESSAGE$)",L6=YES,L6PTR="UBIN(32) UNAL");
       45     3530        %GD$MSG(FPTN=GD$MSG_HOST,STCLASS="BASED(S_D_HOST_MESSAGE$)",L6=NO);
       46     3686        %INCLUDE GD_EQUS_E;
       47     3847        %INCLUDE DD$BASED;
       48     5150        %FPRG$CONTEXT;
       49     5213        %LET$CMD(STCLASS="BASED(DO$)");
       50     5263        %INCLUDE DD$DITEM;
       12+    5366             %LIST;
       13+    5367    1        DCL SDD$ PTR;
       14+    5368    1        DCL ZITEM$ PTR;
       15+    5369    1        DCL SDD_L6$ PTR;
       16+    5370    1        DCL ZITEM_L6$ PTR;
       51     5944        %INCLUDE CP_6;
       52     6025        %INCLUDE DU_SCODE_C;
       53     6038        %FPT_SCREECH(FPTN=SNAP_MESSAGE,STCLASS=SYMREF READONLY);
       54     6052        %VLP_SCODE(FPTN=SC_MESSAGE, STCLASS=SYMREF READONLY);
       55     6113        /* Entry DCLs */
       56     6114    1   DCL DDE$ERROR ENTRY;
       57     6115    1   DCL DFD$CONVERT_DD ENTRY(4) ALTRET;
       58     6116    1   DCL DFQ$READ_FD ENTRY(2) ALTRET;
       59     6117    1   DCL DFQ$WRITE_FD ENTRY(1) ALTRET;
       60     6118    1   DCL DUE$ERRMSG ENTRY;
       61     6119    1   DCL DUE$GERRMSG ENTRY;
       62     6120        /**/
       63     6121    1        IF S_D.RUM
       64     6122    2        THEN DO;
       65     6123    2             S_D.ERROR = 212;     /* E@BADCMD_RUM */
       66     6124    2             ALTRETURN;
       67     6125    2           END;
       68     6126    1        DO$ = S_D.DO$;
       69     6127    1        DESC$ = S_D.D$;
PL6.E3A0      #001=DFA$LET File=DFA$LET.:E05TSI                                  TUE 07/29/97 14:34 Page:3
       70     6128    1        ZITEM$ = S_D.D$;
       71     6129    1        GD$MSG = '0'B;
       72     6130    1        CALL DFD$CONVERT_DD(ADDR(GD$MSG.LETMEM_D.DATA_DESC), ZITEM$, EXPR_OP)
       73     6131    1          ALTRET(ARET);
       74     6132    1        IF EXPR_OP
       75     6133    2        THEN DO;
       76     6134    2             S_D.ERROR = 2;        /* E@ADDREXP */
       77     6135    2             ALTRETURN;
       78     6136    2           END;
       79     6137    1        GD$MSG.FNC = %GD#RQSLETMEM_D;
       80     6138    1        GD$MSG.LETMEM_D.TYPE = LET$CMD.TYPE;
       81     6139    2        DO CASE(LET$CMD.TYPE);
       82     6140    2          CASE(%LOGFORT_FMT, %FLOAT_FMT, %CMPXFORT_FMT);
       83     6141    2             S_D.ERROR = 315;     /* E@NOTIMPFPRG */
       84     6142    2             ALTRETURN;
       85     6143    2          CASE(%PUP_FMT);
       86     6144    2             IF LET$CMD.TEXTC.SIZE > 31
       87     6145    3             THEN DO;
       88     6146    3                  S_D.ERROR = 64; /* E@CONSTOOBIG */
       89     6147    3                  GOTO ARET;
       90     6148    3                END;
       91     6149    2             GD$MSG.LETMEM_D.VALUE.TEXTB(0) = BINBIT(LET$CMD.TEXTC.TEXTA8.BYT(0), 8);
       92     6150    3             DO I = 1 TO 31;
       93     6151    3                  GD$MSG.LETMEM_D.VALUE.TEXTB(I) = BINBIT(LET$CMD.TEXTC.TEXTA8.BYT(I +
              6151                           32), 8);
       94     6152    3                END;
       95     6153    2             GD$MSG.LETMEM_D.VALUE.SIZE = LET$CMD.TEXTC.SIZE;
       96     6154    2          CASE(%CHAR_FMT);
       97     6155    3             DO I = 0 TO 62;
       98     6156    3                  GD$MSG.LETMEM_D.VALUE.TEXTB(I) = BINBIT(LET$CMD.TEXTC.TEXTA8.BYT(I),
              6156                           8);
       99     6157    3                END;
      100     6158    2             GD$MSG.LETMEM_D.VALUE.SIZE = LET$CMD.TEXTC.SIZE;
      101     6159    2          CASE(%BIT_FMT, %OBIT_FMT, %X_FMT);
      102     6160    2             IF BITBIN(LET$CMD.BITS.TRING &
      103     6161    2               '775000000000000000000000'O) > 0
      104     6162    3             THEN DO;
PL6.E3A0      #001=DFA$LET File=DFA$LET.:E05TSI                                  TUE 07/29/97 14:34 Page:4
      105     6163    3                  S_D.ERROR = 64; /* E@CONSTOOBIG */
      106     6164    3                  GOTO ARET;
      107     6165    3                END;
      108     6166    2             GD$MSG.LETMEM_D.VALUE.BITS.TRING = LET$CMD.BITS.TRING;
      109     6167    2             GD$MSG.LETMEM_D.VALUE.SIZE = LET$CMD.BITS.SIZE;
      110     6168    2          CASE(%PTR_FMT);
      111     6169    2             GD$MSG.LETMEM_D.VALUE.P.W = LET$CMD.P.ADR6.W;
      112     6170    2             GD$MSG.LETMEM_D.VALUE.P.C = LET$CMD.P.ADR6.C;
      113     6171    2             GD$MSG.LETMEM_D.VALUE.SIZE = LET$CMD.P.SIZE;
      114     6172    2          CASE(ELSE);
      115     6173    2             IF BITBIN(LET$CMD.CONS.TANTB &
      116     6174    2               '740000000000'O) > 0
      117     6175    3             THEN DO;
      118     6176    3                  S_D.ERROR = 64; /* E@CONSTOOBIG */
      119     6177    3                  GOTO ARET;
      120     6178    3                END;
      121     6179    2             GD$MSG.LETMEM_D.VALUE.CONS.TANT = LET$CMD.CONS.TANT;
      122     6180    2             GD$MSG.LETMEM_D.VALUE.SIZE = LET$CMD.CONS.SIZE;
      123     6181    2          END;
      124     6182    1        CALL DFQ$WRITE_FD(S_D.CURRENT_FPRG_CONTEXT$) ALTRET(ERR);
      125     6183    1        CALL DFQ$READ_FD(S_D.CURRENT_FPRG_CONTEXT$, '0'B) ALTRET(ERR);
      126     6184    1        IF GD$MSG.FNC ~= %GD#RSPLETMEM
      127     6185    2        THEN DO;
      128     6186    3             DO CASE(GD$MSG.FNC);
      129     6187    3               CASE(%GD#RSPBADADR);
      130     6188    3                  S_D.ERROR = 83;   /* E@BADADDR */
      131     6189    3               CASE(%GD#RSPNOWRITE);
      132     6190    3                  S_D.ERROR = 72; /* E@CANTWRITESEG */
      133     6191    3               CASE(%GD#RSPDD2CPLX);
      134     6192    3                  S_D.ERROR = 37; /* E@EXPR2CMPLX */
      135     6193    3               CASE(%GD#RSPDDNOTL6);
      136     6194    3                  S_D.ERROR = 527;  /* E@DDNOTFEP */
      137     6195    3               CASE(%GD#RSPUNSUPRT);
      138     6196    3                  S_D.ERROR = 348;   /* E@CANTLET */
      139     6197    3               CASE(%GD#RSPNOACCESS);
      140     6198    3                  S_D.ERROR = 78; /* E@ACCESS_FAULT */
      141     6199    3               CASE(%GD#RSPTYPMISMATCH);
PL6.E3A0      #001=DFA$LET File=DFA$LET.:E05TSI                                  TUE 07/29/97 14:34 Page:5
      142     6200    3                  S_D.ERROR = 90; /* E@SIZE_TYPE */
      143     6201    3               CASE(ELSE);
      144     6202    3                  IF S_D.CURRENT_FPRG_CONTEXT$ -> FPRG$CONTEXT.XDELTA AND
      145     6203    3                    GD$MSG.FNC = %GD#RSPBADMSG
      146     6204    4                  THEN DO;
      147     6205    4                       S_D.ERROR = 330; /* E@BADMSG */
      148     6206    4                       GOTO ARET;
      149     6207    4                     END;
      150     6208    3                  IF GD$MSG.FNC = %GD#RSPNAK
      151     6209    4                  THEN DO;
      152     6210    4                       IF S_D.CURRENT_FPRG_CONTEXT$ -> FPRG$CONTEXT.XDELTA
      153     6211    5                       THEN DO;
      154     6212    5                            TEMP1 = BITBIN(GD$MSG.ERROR_D.ERRCODE);
      155     6213    5                            TEMP2B.B1 = TEMP1B.B1;
      156     6214    5                            TEMP2B.B2 = TEMP1B.B2;
      157     6215    5                            TEMP2B.B3 = TEMP1B.B3;
      158     6216    5                            TEMP2B.B4 = TEMP1B.B4;
      159     6217    5                            S_D.JDE = TEMP2;
      160     6218    5                          END;
      161     6219    4                       ELSE S_D.JDE = BITBIN(GD$MSG_HOST.ERROR_D.ERRCODE);
      162     6220    4                       CALL DUE$GERRMSG;
      163     6221    4                       RETURN;
      164     6222    4                     END;
      165     6223    3                  REMEMBER NEVER IN S_D.SCREECH_IC;
      166     6224    3                  CALL M$SCREECH (SNAP_MESSAGE) ALTRET(NEVER);
      167     6225    3   NEVER:
      168     6226    3                  S_D.ERROR = 524; /* E@BADMESSAGE */
      169     6227    3                  CALL DDE$ERROR;
      170     6228    3                  S_D.ERROR = 502;    /* E@DELBUG */
      171     6229    3                  CALL DDE$ERROR;
      172     6230    3               END;
      173     6231    2             GOTO ARET;
      174     6232    2           END;
      175     6233    1        RETURN;
      176     6234    1   ARET: ;
      177     6235    1        ALTRETURN;
      178     6236    1   ERR: ;
PL6.E3A0      #001=DFA$LET File=DFA$LET.:E05TSI                                  TUE 07/29/97 14:34 Page:6
      179     6237    1        CALL DUE$ERRMSG;
      180     6238    1        RETURN;
      181     6239    1   END DFA$LET;

PL6.E3A0      #001=DFA$LET File=DFA$LET.:E05TSI                                  TUE 07/29/97 14:34 Page:7
--  Include file information  --

   DU_SCODE_C.:E05TOU  is referenced.
   CP_6.:E05TOU  cannot be made into a system file and is referenced.
   DD_SRTN_C.:E05TOU  is referenced.
   DD_ACODE_C.:E05TOU  is referenced.
   DD_ICODE_C.:E05TOU  is referenced.
   DD$DITEM.:E05TOU  cannot be made into a system file and is referenced.
   DD$BASED.:E05TOU  is referenced.
   GD_EQUS_E.:E05TOU  is referenced.
   GD$MSG_M.:E05TOU  is referenced.
   DD_ERR_C.:E05TOU  is referenced.
   DD_SD_M.:E05TOU  is referenced.
   XUH_MACRO_C.:E05TOU  is referenced.
   B$JIT_C.:E05TOU  was found in the system file and is never referenced.
   CP_6_C.:E05TOU  was found in the system file and is referenced.
      No diagnostics issued in procedure DFA$LET.

   Procedure DFA$LET requires 360 words for executable code.
   Procedure DFA$LET requires 18 words of local(AUTO) storage.

    No errors detected in file DFA$LET.:E05TSI    .

PL6.E3A0      #001=DFA$LET File=DFA$LET.:E05TSI                                  TUE 07/29/97 14:34 Page:8

 Object Unit name= DFA$LET                                    File name= DFA$LET.:E05TOU
 UTS= JUL 29 '97 14:34:53.60 TUE                              Compiler= PL-6/E31         Sev=      00
 SharedLib= :SHARED_SYSTEM                                    Alt SharedLib=


    ****  Control sections  ****

 Sect   Type Bound  Init  Size OctSiz  Section name(segment info)
    0   DCB   even  none     0      0  M$UC
    1  RoData even  UTS      3      3  DFA$LET
    2   Proc  even  none   360    550  DFA$LET
    3  RoData even  none     5      5  DFA$LET

    ****  Entry defs  ****

                              Check   Calling
                             calling  sequence
  Sect OctLoc Primary Altret sequence   type   Parms  Name
     2      0   yes    yes     yes      Std        0  DFA$LET

  ****  Entry refs  ****

         Check        Calling
        calling       sequence
Altret sequence SRef   type   Args  Name
 yes     yes           Std       4 DFD$CONVERT_DD
 yes     yes           Std       2 DFQ$READ_FD
         yes           Std       0 DUE$GERRMSG
         yes           Std       0 DUE$ERRMSG
 yes     yes           Std       1 DFQ$WRITE_FD
         yes           Std       0 DDE$ERROR
                       nStd      0 X66_AUTO_0
                       nStd      0 X66_AALT
                       Std       0 B_CONSPOOL_D
                       nStd      0 X66_ARET
PL6.E3A0      #001=DFA$LET File=DFA$LET.:E05TSI                                  TUE 07/29/97 14:34 Page:9

  ****  Data refs  ****

  Flags:  r = read only, s = secondary
Flgs Name                             Flgs Name                             Flgs Name
r    S_D$                             r    S_D_HOST_MESSAGE$                r    S_D_L6_MESSAGE$
     M$UC                             r    SNAP_MESSAGE                          B_VECTNIL

  ****  Segment refs  ****

  Flags:  r = read only, s = secondary
Flgs Name                             Flgs Name                             Flgs Name
     ISSID
PL6.E3A0      #001=DFA$LET File=DFA$LET.:E05TSI                                  TUE 07/29/97 14:34 Page:10


        1        1        /*M*  DFA$LET - LET command do routine for FEP programs */
        2        2        /*T***********************************************************/
        3        3        /*T*                                                         */
        4        4        /*T* Copyright (c) Bull HN Information Systems Inc., 1997    */
        5        5        /*T*                                                         */
        6        6        /*T***********************************************************/
        7        7        /*X* DMR,PLM=5,IND=5,CSU=3,EXM=0,ECU=3,MOC,DCI=5,CRT=5 */
        8        8        %SET LISTSUB='1'B;
        9        9        /*F*  NAME: DFA$LET
       10       10              PURPOSE:  The LET command allows the user to assign
       11       11                       constant values to variables and some special symbols.
       12       12                                                     */
       13       13        DFA$LET: PROC ALTRET;

     13  2 000000   000000 700200 xent  DFA$LET      TSX0  ! X66_AUTO_0
         2 000001   000022 000000                    ZERO    18,0

       14       14        /* Local Auto */
       15       15    1   DCL DO$  PTR;
       16       16    1   DCL DESC$ PTR;
       17       17    1   DCL I UBIN;
       18       18    1   DCL EXPR_OP BIT(1) ALIGNED;
       19       19    1   DCL TEMP$ PTR;
       20       20    1   DCL TEMP1 REDEF TEMP$ UBIN(36) ALIGNED;
       21       21    1   DCL 1 TEMP1B REDEF TEMP$ ALIGNED,
       22       22    1         2 * UBIN(4) UNAL,
       23       23    1         2 B1 UBIN(8) UNAL,
       24       24    1         2 B2 UBIN(8) UNAL,
       25       25    1         2 B3 UBIN(8) UNAL,
       26       26    1         2 B4 UBIN(8) UNAL;
       27       27    1   DCL TEMP2 UBIN(36) ALIGNED;
       28       28    1   DCL 1 TEMP2B REDEF TEMP2 ALIGNED,
       29       29    1         2 * BIT(1) UNAL,
       30       30    1         2 B1 UBIN(8) UNAL,
       31       31    1         2 * BIT(1) UNAL,
       32       32    1         2 B2 UBIN(8) UNAL,
PL6.E3A0      #001=DFA$LET File=DFA$LET.:E05TSI                                  TUE 07/29/97 14:34 Page:11
       33       33    1         2 * BIT(1) UNAL,
       34       34    1         2 B3 UBIN(8) UNAL,
       35       35    1         2 * BIT(1) UNAL,
       36       36    1         2 B4 UBIN(8) UNAL;
       37       37        /* Includes and Based structures */
       38       38        %INCLUDE XUH_MACRO_C;
       39      122        %INCLUDE DD_SD_M;
       40     1458        %S_D;
       41     2776        %S_D_PTRS;
       42     2813        %INCLUDE DD_ERR_C;
       43     3210        %INCLUDE GD$MSG_M;
       44     3374        %GD$MSG(FPTN=GD$MSG,STCLASS="BASED(S_D_L6_MESSAGE$)",L6=YES,L6PTR="UBIN(32) UNAL");
       45     3530        %GD$MSG(FPTN=GD$MSG_HOST,STCLASS="BASED(S_D_HOST_MESSAGE$)",L6=NO);
       46     3686        %INCLUDE GD_EQUS_E;
       47     3847        %INCLUDE DD$BASED;
       48     5150        %FPRG$CONTEXT;
       49     5213        %LET$CMD(STCLASS="BASED(DO$)");
       50     5263        %INCLUDE DD$DITEM;
       12+    5366             %LIST;
       13+    5367    1        DCL SDD$ PTR;
       14+    5368    1        DCL ZITEM$ PTR;
       15+    5369    1        DCL SDD_L6$ PTR;
       16+    5370    1        DCL ZITEM_L6$ PTR;
       51     5944        %INCLUDE CP_6;
       52     6025        %INCLUDE DU_SCODE_C;
       53     6038        %FPT_SCREECH(FPTN=SNAP_MESSAGE,STCLASS=SYMREF READONLY);
       54     6052        %VLP_SCODE(FPTN=SC_MESSAGE, STCLASS=SYMREF READONLY);
       55     6113        /* Entry DCLs */
       56     6114    1   DCL DDE$ERROR ENTRY;
       57     6115    1   DCL DFD$CONVERT_DD ENTRY(4) ALTRET;
       58     6116    1   DCL DFQ$READ_FD ENTRY(2) ALTRET;
       59     6117    1   DCL DFQ$WRITE_FD ENTRY(1) ALTRET;
       60     6118    1   DCL DUE$ERRMSG ENTRY;
       61     6119    1   DCL DUE$GERRMSG ENTRY;
       62     6120        /**/
       63     6121    1        IF S_D.RUM

PL6.E3A0      #001=DFA$LET File=DFA$LET.:E05TSI                                  TUE 07/29/97 14:34 Page:12
   6121  2 000002   000000 470400 xsym               LDP0    S_D$
         2 000003   004755 234100                    SZN     2541,,PR0
         2 000004   000010 605000 2                  TPL     s:6126

       64     6122    2        THEN DO;

       65     6123    2             S_D.ERROR = 212;     /* E@BADCMD_RUM */

   6123  2 000005   000324 235007                    LDA     212,DL
         2 000006   000013 755100                    STA     11,,PR0

       66     6124    2             ALTRETURN;

   6124  2 000007   000000 702200 xent               TSX2  ! X66_AALT

       67     6125    2           END;
       68     6126    1        DO$ = S_D.DO$;

   6126  2 000010   000031 236100                    LDQ     25,,PR0
         2 000011   200003 756100                    STQ     DO$,,AUTO

       69     6127    1        DESC$ = S_D.D$;

   6127  2 000012   000044 236100                    LDQ     36,,PR0
         2 000013   200004 756100                    STQ     DESC$,,AUTO

       70     6128    1        ZITEM$ = S_D.D$;

   6128  2 000014   200012 756100                    STQ     ZITEM$,,AUTO

       71     6129    1        GD$MSG = '0'B;

   6129  2 000015   000000 471400 xsym               LDP1    S_D_L6_MESSAGE$
         2 000016   003100 060400                    CSL     bolr='003'O
         2 000017   000002 000001 xsym               BDSC    B_VECTNIL+2              by=0,bit=0,n=1
         2 000020   100000 004720                    BDSC    0,,PR1                   by=0,bit=0,n=2512

PL6.E3A0      #001=DFA$LET File=DFA$LET.:E05TSI                                  TUE 07/29/97 14:34 Page:13
       72     6130    1        CALL DFD$CONVERT_DD(ADDR(GD$MSG.LETMEM_D.DATA_DESC), ZITEM$, EXPR_OP)

   6130  2 000021   000000 236000 xsym               LDQ     S_D_L6_MESSAGE$
         2 000022   000000 036000 3                  ADLQ    0
         2 000023   200016 756100                    STQ     ZITEM$+4,,AUTO
         2 000024   200006 633500                    EPPR3   EXPR_OP,,AUTO
         2 000025   200021 453500                    STP3    ZITEM$+7,,AUTO
         2 000026   200012 634500                    EPPR4   ZITEM$,,AUTO
         2 000027   200020 454500                    STP4    ZITEM$+6,,AUTO
         2 000030   200016 635500                    EPPR5   ZITEM$+4,,AUTO
         2 000031   200017 455500                    STP5    ZITEM$+5,,AUTO
         2 000032   200017 630500                    EPPR0   ZITEM$+5,,AUTO
         2 000033   000021 631400 xsym               EPPR1   B_VECTNIL+17
         2 000034   000000 701000 xent               TSX1    DFD$CONVERT_DD
         2 000035   000543 702000 2                  TSX2    ARET

       73     6131    1          ALTRET(ARET);
       74     6132    1        IF EXPR_OP

   6132  2 000036   200006 234100                    SZN     EXPR_OP,,AUTO
         2 000037   000044 605000 2                  TPL     s:6137

       75     6133    2        THEN DO;

       76     6134    2             S_D.ERROR = 2;        /* E@ADDREXP */

   6134  2 000040   000002 235007                    LDA     2,DL
         2 000041   000000 470400 xsym               LDP0    S_D$
         2 000042   000013 755100                    STA     11,,PR0

       77     6135    2             ALTRETURN;

   6135  2 000043   000000 702200 xent               TSX2  ! X66_AALT

       78     6136    2           END;
       79     6137    1        GD$MSG.FNC = %GD#RQSLETMEM_D;

PL6.E3A0      #001=DFA$LET File=DFA$LET.:E05TSI                                  TUE 07/29/97 14:34 Page:14
   6137  2 000044   000000 470400 xsym               LDP0    S_D_L6_MESSAGE$
         2 000045   000000 236100                    LDQ     0,,PR0
         2 000046   000001 376000 3                  ANQ     1
         2 000047   100000 276003                    ORQ     32768,DU
         2 000050   000000 756100                    STQ     0,,PR0

       80     6138    1        GD$MSG.LETMEM_D.TYPE = LET$CMD.TYPE;

   6138  2 000051   200003 471500                    LDP1    DO$,,AUTO
         2 000052   003100 061500                    CSR     bolr='003'O
         2 000053   100001 400011                    BDSC    1,,PR1                   by=2,bit=0,n=9
         2 000054   000002 460020                    BDSC    2,,PR0                   by=2,bit=6,n=16

       81     6139    2        DO CASE(LET$CMD.TYPE);

   6139  2 000055   100001 236100                    LDQ     1,,PR1
         2 000056   000011 772000                    QRL     9
         2 000057   000777 376007                    ANQ     511,DL
         2 000060   000004 136007                    SBLQ    4,DL
         2 000061   000032 116007                    CMPQ    26,DL
         2 000062   000064 602006 2                  TNC     s:6139+7,QL
         2 000063   000274 710000 2                  TRA     s:6173
         2 000064   000176 710000 2                  TRA     s:6155
         2 000065   000231 710000 2                  TRA     s:6160
         2 000066   000274 710000 2                  TRA     s:6173
         2 000067   000256 710000 2                  TRA     s:6169
         2 000070   000274 710000 2                  TRA     s:6173
         2 000071   000274 710000 2                  TRA     s:6173
         2 000072   000274 710000 2                  TRA     s:6173
         2 000073   000274 710000 2                  TRA     s:6173
         2 000074   000274 710000 2                  TRA     s:6173
         2 000075   000231 710000 2                  TRA     s:6160
         2 000076   000231 710000 2                  TRA     s:6160
         2 000077   000274 710000 2                  TRA     s:6173
         2 000100   000116 710000 2                  TRA     s:6141
         2 000101   000274 710000 2                  TRA     s:6173
         2 000102   000274 710000 2                  TRA     s:6173
PL6.E3A0      #001=DFA$LET File=DFA$LET.:E05TSI                                  TUE 07/29/97 14:34 Page:15
         2 000103   000274 710000 2                  TRA     s:6173
         2 000104   000274 710000 2                  TRA     s:6173
         2 000105   000274 710000 2                  TRA     s:6173
         2 000106   000274 710000 2                  TRA     s:6173
         2 000107   000274 710000 2                  TRA     s:6173
         2 000110   000274 710000 2                  TRA     s:6173
         2 000111   000116 710000 2                  TRA     s:6141
         2 000112   000116 710000 2                  TRA     s:6141
         2 000113   000274 710000 2                  TRA     s:6173
         2 000114   000274 710000 2                  TRA     s:6173
         2 000115   000122 710000 2                  TRA     s:6144

       82     6140    2          CASE(%LOGFORT_FMT, %FLOAT_FMT, %CMPXFORT_FMT);

       83     6141    2             S_D.ERROR = 315;     /* E@NOTIMPFPRG */

   6141  2 000116   000473 235007                    LDA     315,DL
         2 000117   000000 473400 xsym               LDP3    S_D$
         2 000120   300013 755100                    STA     11,,PR3

       84     6142    2             ALTRETURN;

   6142  2 000121   000000 702200 xent               TSX2  ! X66_AALT

       85     6143    2          CASE(%PUP_FMT);

       86     6144    2             IF LET$CMD.TEXTC.SIZE > 31

   6144  2 000122   100002 236100                    LDQ     2,,PR1
         2 000123   777000 376003                    ANQ     -512,DU
         2 000124   040000 116003                    CMPQ    16384,DU
         2 000125   000132 602000 2                  TNC     s:6149

       87     6145    3             THEN DO;

       88     6146    3                  S_D.ERROR = 64; /* E@CONSTOOBIG */

PL6.E3A0      #001=DFA$LET File=DFA$LET.:E05TSI                                  TUE 07/29/97 14:34 Page:16
   6146  2 000126   000100 235007                    LDA     64,DL
         2 000127   000000 473400 xsym               LDP3    S_D$
         2 000130   300013 755100                    STA     11,,PR3

       89     6147    3                  GOTO ARET;

   6147  2 000131   000543 710000 2                  TRA     ARET

       90     6148    3                END;
       91     6149    2             GD$MSG.LETMEM_D.VALUE.TEXTB(0) = BINBIT(LET$CMD.TEXTC.TEXTA8.BYT(0), 8);

   6149  2 000132   100002 236100                    LDQ     2,,PR1
         2 000133   000022 772000                    QRL     18
         2 000134   000377 376007                    ANQ     255,DL
         2 000135   000034 736000                    QLS     28
         2 000136   000014 772000                    QRL     12
         2 000137   000003 676100                    ERQ     3,,PR0
         2 000140   000002 376000 3                  ANQ     2
         2 000141   000003 656100                    ERSQ    3,,PR0

       92     6150    3             DO I = 1 TO 31;

   6150  2 000142   000001 235007                    LDA     1,DL
         2 000143   200005 755100                    STA     I,,AUTO

       93     6151    3                  GD$MSG.LETMEM_D.VALUE.TEXTB(I) = BINBIT(LET$CMD.TEXTC.TEXTA8.BYT(I +
              6151                           32), 8);

   6151  2 000144   200005 236100                    LDQ     I,,AUTO
         2 000145   000011 402007                    MPY     9,DL
         2 000146   200003 470500                    LDP0    DO$,,AUTO
         2 000147   003100 061506                    CSR     bolr='003'O
         2 000150   000012 210010                    BDSC    10,Q,PR0                 by=1,bit=1,n=8
         2 000151   200016 000044                    BDSC    ZITEM$+4,,AUTO           by=0,bit=0,n=36
         2 000152   200016 236100                    LDQ     ZITEM$+4,,AUTO
         2 000153   000034 736000                    QLS     28
         2 000154   200017 756100                    STQ     ZITEM$+5,,AUTO
PL6.E3A0      #001=DFA$LET File=DFA$LET.:E05TSI                                  TUE 07/29/97 14:34 Page:17
         2 000155   200005 235100                    LDA     I,,AUTO
         2 000156   000003 735000                    ALS     3
         2 000157   000000 471400 xsym               LDP1    S_D_L6_MESSAGE$
         2 000160   003105 060500                    CSL     bolr='003'O
         2 000161   200017 000044                    BDSC    ZITEM$+5,,AUTO           by=0,bit=0,n=36
         2 000162   100003 230010                    BDSC    3,A,PR1                  by=1,bit=3,n=8

       94     6152    3                END;

   6152  2 000163   200005 236100                    LDQ     I,,AUTO
         2 000164   000001 036007                    ADLQ    1,DL
         2 000165   200005 756100                    STQ     I,,AUTO
         2 000166   000040 116007                    CMPQ    32,DL
         2 000167   000144 602000 2                  TNC     s:6151

       95     6153    2             GD$MSG.LETMEM_D.VALUE.SIZE = LET$CMD.TEXTC.SIZE;

   6153  2 000170   000002 236100                    LDQ     2,,PR0
         2 000171   000003 772000                    QRL     3
         2 000172   100003 676100                    ERQ     3,,PR1
         2 000173   037700 376003                    ANQ     16320,DU
         2 000174   100003 656100                    ERSQ    3,,PR1
         2 000175   000313 710000 2                  TRA     s:6182

       96     6154    2          CASE(%CHAR_FMT);

       97     6155    3             DO I = 0 TO 62;

   6155  2 000176   200005 450100                    STZ     I,,AUTO

       98     6156    3                  GD$MSG.LETMEM_D.VALUE.TEXTB(I) = BINBIT(LET$CMD.TEXTC.TEXTA8.BYT(I),
              6156                           8);

   6156  2 000177   200005 236100                    LDQ     I,,AUTO
         2 000200   000011 402007                    MPY     9,DL
         2 000201   200003 470500                    LDP0    DO$,,AUTO
         2 000202   003100 061506                    CSR     bolr='003'O
PL6.E3A0      #001=DFA$LET File=DFA$LET.:E05TSI                                  TUE 07/29/97 14:34 Page:18
         2 000203   000002 210010                    BDSC    2,Q,PR0                  by=1,bit=1,n=8
         2 000204   200016 000044                    BDSC    ZITEM$+4,,AUTO           by=0,bit=0,n=36
         2 000205   200016 236100                    LDQ     ZITEM$+4,,AUTO
         2 000206   000034 736000                    QLS     28
         2 000207   200017 756100                    STQ     ZITEM$+5,,AUTO
         2 000210   200005 235100                    LDA     I,,AUTO
         2 000211   000003 735000                    ALS     3
         2 000212   000000 471400 xsym               LDP1    S_D_L6_MESSAGE$
         2 000213   003105 060500                    CSL     bolr='003'O
         2 000214   200017 000044                    BDSC    ZITEM$+5,,AUTO           by=0,bit=0,n=36
         2 000215   100003 230010                    BDSC    3,A,PR1                  by=1,bit=3,n=8

       99     6157    3                END;

   6157  2 000216   200005 236100                    LDQ     I,,AUTO
         2 000217   000001 036007                    ADLQ    1,DL
         2 000220   200005 756100                    STQ     I,,AUTO
         2 000221   000077 116007                    CMPQ    63,DL
         2 000222   000177 602000 2                  TNC     s:6156

      100     6158    2             GD$MSG.LETMEM_D.VALUE.SIZE = LET$CMD.TEXTC.SIZE;

   6158  2 000223   000002 236100                    LDQ     2,,PR0
         2 000224   000003 772000                    QRL     3
         2 000225   100003 676100                    ERQ     3,,PR1
         2 000226   037700 376003                    ANQ     16320,DU
         2 000227   100003 656100                    ERSQ    3,,PR1
         2 000230   000313 710000 2                  TRA     s:6182

      101     6159    2          CASE(%BIT_FMT, %OBIT_FMT, %X_FMT);

      102     6160    2             IF BITBIN(LET$CMD.BITS.TRING &

   6160  2 000231   000100 100500                    MLR     fill='000'O
         2 000232   100003 000010                    ADSC9   3,,PR1                   cn=0,n=8
         2 000233   200016 000010                    ADSC9   ZITEM$+4,,AUTO           cn=0,n=8
         2 000234   200016 237100                    LDAQ    ZITEM$+4,,AUTO
PL6.E3A0      #001=DFA$LET File=DFA$LET.:E05TSI                                  TUE 07/29/97 14:34 Page:19
         2 000235   000000 377000 1                  ANAQ    0
         2 000236   000000 773000                    LRL     0
         2 000237   000000 116003                    CMPQ    0,DU
         2 000240   000245 600000 2                  TZE     s:6166

      103     6161    2               '775000000000000000000000'O) > 0
      104     6162    3             THEN DO;

      105     6163    3                  S_D.ERROR = 64; /* E@CONSTOOBIG */

   6163  2 000241   000100 235007                    LDA     64,DL
         2 000242   000000 473400 xsym               LDP3    S_D$
         2 000243   300013 755100                    STA     11,,PR3

      106     6164    3                  GOTO ARET;

   6164  2 000244   000543 710000 2                  TRA     ARET

      107     6165    3                END;
      108     6166    2             GD$MSG.LETMEM_D.VALUE.BITS.TRING = LET$CMD.BITS.TRING;

   6166  2 000245   003100 060500                    CSL     bolr='003'O
         2 000246   100003 000100                    BDSC    3,,PR1                   by=0,bit=0,n=64
         2 000247   000003 420100                    BDSC    3,,PR0                   by=2,bit=2,n=64

      109     6167    2             GD$MSG.LETMEM_D.VALUE.SIZE = LET$CMD.BITS.SIZE;

   6167  2 000250   100002 236100                    LDQ     2,,PR1
         2 000251   000003 772000                    QRL     3
         2 000252   000003 676100                    ERQ     3,,PR0
         2 000253   037700 376003                    ANQ     16320,DU
         2 000254   000003 656100                    ERSQ    3,,PR0
         2 000255   000313 710000 2                  TRA     s:6182

      110     6168    2          CASE(%PTR_FMT);

      111     6169    2             GD$MSG.LETMEM_D.VALUE.P.W = LET$CMD.P.ADR6.W;
PL6.E3A0      #001=DFA$LET File=DFA$LET.:E05TSI                                  TUE 07/29/97 14:34 Page:20

   6169  2 000256   003100 060500                    CSL     bolr='003'O
         2 000257   100003 000024                    BDSC    3,,PR1                   by=0,bit=0,n=20
         2 000260   000003 640024                    BDSC    3,,PR0                   by=3,bit=4,n=20

      112     6170    2             GD$MSG.LETMEM_D.VALUE.P.C = LET$CMD.P.ADR6.C;

   6170  2 000261   100003 236100                    LDQ     3,,PR1
         2 000262   000005 736000                    QLS     5
         2 000263   000004 676100                    ERQ     4,,PR0
         2 000264   000004 376003                    ANQ     4,DU
         2 000265   000004 656100                    ERSQ    4,,PR0

      113     6171    2             GD$MSG.LETMEM_D.VALUE.SIZE = LET$CMD.P.SIZE;

   6171  2 000266   100002 236100                    LDQ     2,,PR1
         2 000267   000003 772000                    QRL     3
         2 000270   000003 676100                    ERQ     3,,PR0
         2 000271   037700 376003                    ANQ     16320,DU
         2 000272   000003 656100                    ERSQ    3,,PR0
         2 000273   000313 710000 2                  TRA     s:6182

      114     6172    2          CASE(ELSE);

      115     6173    2             IF BITBIN(LET$CMD.CONS.TANTB &

   6173  2 000274   100003 236100                    LDQ     3,,PR1
         2 000275   000002 376000 1                  ANQ     2
         2 000276   000303 600000 2                  TZE     s:6179

      116     6174    2               '740000000000'O) > 0
      117     6175    3             THEN DO;

      118     6176    3                  S_D.ERROR = 64; /* E@CONSTOOBIG */

   6176  2 000277   000100 235007                    LDA     64,DL
         2 000300   000000 473400 xsym               LDP3    S_D$
PL6.E3A0      #001=DFA$LET File=DFA$LET.:E05TSI                                  TUE 07/29/97 14:34 Page:21
         2 000301   300013 755100                    STA     11,,PR3

      119     6177    3                  GOTO ARET;

   6177  2 000302   000543 710000 2                  TRA     ARET

      120     6178    3                END;
      121     6179    2             GD$MSG.LETMEM_D.VALUE.CONS.TANT = LET$CMD.CONS.TANT;

   6179  2 000303   003100 061500                    CSR     bolr='003'O
         2 000304   100003 000044                    BDSC    3,,PR1                   by=0,bit=0,n=36
         2 000305   000003 420040                    BDSC    3,,PR0                   by=2,bit=2,n=32

      122     6180    2             GD$MSG.LETMEM_D.VALUE.SIZE = LET$CMD.CONS.SIZE;

   6180  2 000306   100002 236100                    LDQ     2,,PR1
         2 000307   000003 772000                    QRL     3
         2 000310   000003 676100                    ERQ     3,,PR0
         2 000311   037700 376003                    ANQ     16320,DU
         2 000312   000003 656100                    ERSQ    3,,PR0

      123     6181    2          END;

      124     6182    1        CALL DFQ$WRITE_FD(S_D.CURRENT_FPRG_CONTEXT$) ALTRET(ERR);

   6182  2 000313   000000 236000 xsym               LDQ     S_D$
         2 000314   000102 036003                    ADLQ    66,DU
         2 000315   200016 756100                    STQ     ZITEM$+4,,AUTO
         2 000316   200016 630500                    EPPR0   ZITEM$+4,,AUTO
         2 000317   000017 631400 xsym               EPPR1   B_VECTNIL+15
         2 000320   000000 701000 xent               TSX1    DFQ$WRITE_FD
         2 000321   000544 702000 2                  TSX2    ERR

      125     6183    1        CALL DFQ$READ_FD(S_D.CURRENT_FPRG_CONTEXT$, '0'B) ALTRET(ERR);

   6183  2 000322   000003 236000 3                  LDQ     3
         2 000323   200017 756100                    STQ     ZITEM$+5,,AUTO
PL6.E3A0      #001=DFA$LET File=DFA$LET.:E05TSI                                  TUE 07/29/97 14:34 Page:22
         2 000324   000000 236000 xsym               LDQ     S_D$
         2 000325   000102 036003                    ADLQ    66,DU
         2 000326   200016 756100                    STQ     ZITEM$+4,,AUTO
         2 000327   200016 630500                    EPPR0   ZITEM$+4,,AUTO
         2 000330   000020 631400 xsym               EPPR1   B_VECTNIL+16
         2 000331   000000 701000 xent               TSX1    DFQ$READ_FD
         2 000332   000544 702000 2                  TSX2    ERR

      126     6184    1        IF GD$MSG.FNC ~= %GD#RSPLETMEM

   6184  2 000333   000000 470400 xsym               LDP0    S_D_L6_MESSAGE$
         2 000334   000000 236100                    LDQ     0,,PR0
         2 000335   776000 376003                    ANQ     -1024,DU
         2 000336   134000 116003                    CMPQ    47104,DU
         2 000337   000542 600000 2                  TZE     s:6233

      127     6185    2        THEN DO;

      128     6186    3             DO CASE(GD$MSG.FNC);

   6186  2 000340   000000 236100                    LDQ     0,,PR0
         2 000341   000034 772000                    QRL     28
         2 000342   000051 136007                    SBLQ    41,DL
         2 000343   000025 116007                    CMPQ    21,DL
         2 000344   000346 602006 2                  TNC     s:6186+6,QL
         2 000345   000427 710000 2                  TRA     s:6202
         2 000346   000417 710000 2                  TRA     s:6198
         2 000347   000427 710000 2                  TRA     s:6202
         2 000350   000427 710000 2                  TRA     s:6202
         2 000351   000427 710000 2                  TRA     s:6202
         2 000352   000427 710000 2                  TRA     s:6202
         2 000353   000427 710000 2                  TRA     s:6202
         2 000354   000423 710000 2                  TRA     s:6200
         2 000355   000427 710000 2                  TRA     s:6202
         2 000356   000427 710000 2                  TRA     s:6202
         2 000357   000427 710000 2                  TRA     s:6202
         2 000360   000427 710000 2                  TRA     s:6202
PL6.E3A0      #001=DFA$LET File=DFA$LET.:E05TSI                                  TUE 07/29/97 14:34 Page:23
         2 000361   000427 710000 2                  TRA     s:6202
         2 000362   000427 710000 2                  TRA     s:6202
         2 000363   000427 710000 2                  TRA     s:6202
         2 000364   000373 710000 2                  TRA     s:6188
         2 000365   000413 710000 2                  TRA     s:6196
         2 000366   000403 710000 2                  TRA     s:6192
         2 000367   000407 710000 2                  TRA     s:6194
         2 000370   000427 710000 2                  TRA     s:6202
         2 000371   000427 710000 2                  TRA     s:6202
         2 000372   000377 710000 2                  TRA     s:6190

      129     6187    3               CASE(%GD#RSPBADADR);

      130     6188    3                  S_D.ERROR = 83;   /* E@BADADDR */

   6188  2 000373   000123 235007                    LDA     83,DL
         2 000374   000000 471400 xsym               LDP1    S_D$
         2 000375   100013 755100                    STA     11,,PR1
         2 000376   000541 710000 2                  TRA     s:6231

      131     6189    3               CASE(%GD#RSPNOWRITE);

      132     6190    3                  S_D.ERROR = 72; /* E@CANTWRITESEG */

   6190  2 000377   000110 235007                    LDA     72,DL
         2 000400   000000 471400 xsym               LDP1    S_D$
         2 000401   100013 755100                    STA     11,,PR1
         2 000402   000541 710000 2                  TRA     s:6231

      133     6191    3               CASE(%GD#RSPDD2CPLX);

      134     6192    3                  S_D.ERROR = 37; /* E@EXPR2CMPLX */

   6192  2 000403   000045 235007                    LDA     37,DL
         2 000404   000000 471400 xsym               LDP1    S_D$
         2 000405   100013 755100                    STA     11,,PR1
         2 000406   000541 710000 2                  TRA     s:6231
PL6.E3A0      #001=DFA$LET File=DFA$LET.:E05TSI                                  TUE 07/29/97 14:34 Page:24

      135     6193    3               CASE(%GD#RSPDDNOTL6);

      136     6194    3                  S_D.ERROR = 527;  /* E@DDNOTFEP */

   6194  2 000407   001017 235007                    LDA     527,DL
         2 000410   000000 471400 xsym               LDP1    S_D$
         2 000411   100013 755100                    STA     11,,PR1
         2 000412   000541 710000 2                  TRA     s:6231

      137     6195    3               CASE(%GD#RSPUNSUPRT);

      138     6196    3                  S_D.ERROR = 348;   /* E@CANTLET */

   6196  2 000413   000534 235007                    LDA     348,DL
         2 000414   000000 471400 xsym               LDP1    S_D$
         2 000415   100013 755100                    STA     11,,PR1
         2 000416   000541 710000 2                  TRA     s:6231

      139     6197    3               CASE(%GD#RSPNOACCESS);

      140     6198    3                  S_D.ERROR = 78; /* E@ACCESS_FAULT */

   6198  2 000417   000116 235007                    LDA     78,DL
         2 000420   000000 471400 xsym               LDP1    S_D$
         2 000421   100013 755100                    STA     11,,PR1
         2 000422   000541 710000 2                  TRA     s:6231

      141     6199    3               CASE(%GD#RSPTYPMISMATCH);

      142     6200    3                  S_D.ERROR = 90; /* E@SIZE_TYPE */

   6200  2 000423   000132 235007                    LDA     90,DL
         2 000424   000000 471400 xsym               LDP1    S_D$
         2 000425   100013 755100                    STA     11,,PR1
         2 000426   000541 710000 2                  TRA     s:6231

PL6.E3A0      #001=DFA$LET File=DFA$LET.:E05TSI                                  TUE 07/29/97 14:34 Page:25
      143     6201    3               CASE(ELSE);

      144     6202    3                  IF S_D.CURRENT_FPRG_CONTEXT$ -> FPRG$CONTEXT.XDELTA AND

   6202  2 000427   000000 471400 xsym               LDP1    S_D$
         2 000430   100102 473500                    LDP3    66,,PR1
         2 000431   300001 236100                    LDQ     1,,PR3
         2 000432   002000 316003                    CANQ    1024,DU
         2 000433   000443 600000 2                  TZE     s:6208
         2 000434   000000 236100                    LDQ     0,,PR0
         2 000435   776000 376003                    ANQ     -1024,DU
         2 000436   140000 116003                    CMPQ    49152,DU
         2 000437   000443 601000 2                  TNZ     s:6208

      145     6203    3                    GD$MSG.FNC = %GD#RSPBADMSG
      146     6204    4                  THEN DO;

      147     6205    4                       S_D.ERROR = 330; /* E@BADMSG */

   6205  2 000440   000512 235007                    LDA     330,DL
         2 000441   100013 755100                    STA     11,,PR1

      148     6206    4                       GOTO ARET;

   6206  2 000442   000543 710000 2                  TRA     ARET

      149     6207    4                     END;
      150     6208    3                  IF GD$MSG.FNC = %GD#RSPNAK

   6208  2 000443   000000 236100                    LDQ     0,,PR0
         2 000444   776000 376003                    ANQ     -1024,DU
         2 000445   150000 116003                    CMPQ    53248,DU
         2 000446   000516 601000 2                  TNZ     s:6223

      151     6209    4                  THEN DO;

      152     6210    4                       IF S_D.CURRENT_FPRG_CONTEXT$ -> FPRG$CONTEXT.XDELTA
PL6.E3A0      #001=DFA$LET File=DFA$LET.:E05TSI                                  TUE 07/29/97 14:34 Page:26

   6210  2 000447   300001 236100                    LDQ     1,,PR3
         2 000450   002000 316003                    CANQ    1024,DU
         2 000451   000505 600000 2                  TZE     s:6219

      153     6211    5                       THEN DO;

      154     6212    5                            TEMP1 = BITBIN(GD$MSG.ERROR_D.ERRCODE);

   6212  2 000452   000000 235100                    LDA     0,,PR0
         2 000453   000001 236100                    LDQ     1,,PR0
         2 000454   000030 773000                    LRL     24
         2 000455   000004 376000 3                  ANQ     4
         2 000456   200007 756100                    STQ     TEMP$,,AUTO

      155     6213    5                            TEMP2B.B1 = TEMP1B.B1;

   6213  2 000457   200007 236100                    LDQ     TEMP$,,AUTO
         2 000460   000003 736000                    QLS     3
         2 000461   200010 676100                    ERQ     TEMP2,,AUTO
         2 000462   377000 376003                    ANQ     130560,DU
         2 000463   200010 656100                    ERSQ    TEMP2,,AUTO

      156     6214    5                            TEMP2B.B2 = TEMP1B.B2;

   6214  2 000464   200007 236100                    LDQ     TEMP$,,AUTO
         2 000465   000002 736000                    QLS     2
         2 000466   200010 676100                    ERQ     TEMP2,,AUTO
         2 000467   000377 376003                    ANQ     255,DU
         2 000470   200010 656100                    ERSQ    TEMP2,,AUTO

      157     6215    5                            TEMP2B.B3 = TEMP1B.B3;

   6215  2 000471   200007 236100                    LDQ     TEMP$,,AUTO
         2 000472   000001 736000                    QLS     1
         2 000473   200010 676100                    ERQ     TEMP2,,AUTO
         2 000474   377000 376007                    ANQ     130560,DL
PL6.E3A0      #001=DFA$LET File=DFA$LET.:E05TSI                                  TUE 07/29/97 14:34 Page:27
         2 000475   200010 656100                    ERSQ    TEMP2,,AUTO

      158     6216    5                            TEMP2B.B4 = TEMP1B.B4;

   6216  2 000476   200007 236100                    LDQ     TEMP$,,AUTO
         2 000477   200010 676100                    ERQ     TEMP2,,AUTO
         2 000500   000377 376007                    ANQ     255,DL
         2 000501   200010 656100                    ERSQ    TEMP2,,AUTO

      159     6217    5                            S_D.JDE = TEMP2;

   6217  2 000502   200010 235100                    LDA     TEMP2,,AUTO
         2 000503   104733 755100                    STA     2523,,PR1

      160     6218    5                          END;

   6218  2 000504   000512 710000 2                  TRA     s:6220

      161     6219    4                       ELSE S_D.JDE = BITBIN(GD$MSG_HOST.ERROR_D.ERRCODE);

   6219  2 000505   000000 474400 xsym               LDP4    S_D_HOST_MESSAGE$
         2 000506   400000 235100                    LDA     0,,PR4
         2 000507   400001 236100                    LDQ     1,,PR4
         2 000510   000022 773000                    LRL     18
         2 000511   104733 756100                    STQ     2523,,PR1

      162     6220    4                       CALL DUE$GERRMSG;

   6220  2 000512   000002 631400 xsym               EPPR1   B_VECTNIL+2
         2 000513   000000 701000 xent               TSX1    DUE$GERRMSG
         2 000514   000000 011000                    NOP     0

      163     6221    4                       RETURN;

   6221  2 000515   000000 702200 xent               TSX2  ! X66_ARET

      164     6222    4                     END;
PL6.E3A0      #001=DFA$LET File=DFA$LET.:E05TSI                                  TUE 07/29/97 14:34 Page:28
      165     6223    3                  REMEMBER NEVER IN S_D.SCREECH_IC;

   6223  2 000516   000525 635000 2                  EAA     NEVER
         2 000517   105250 452500                    STP2    2728,,PR1
         2 000520   105251 755100                    STA     2729,,PR1

      166     6224    3                  CALL M$SCREECH (SNAP_MESSAGE) ALTRET(NEVER);

   6224  2 000521   000000 630400 xsym               EPPR0   SNAP_MESSAGE
         2 000522   400013 713400                    CLIMB   alt,+11
         2 000523   401000 401760                    pmme    nvectors=3
         2 000524   000525 702000 2                  TSX2    NEVER

      167     6225    3   NEVER:
      168     6226    3                  S_D.ERROR = 524; /* E@BADMESSAGE */

   6226  2 000525   001014 235007       NEVER        LDA     524,DL
         2 000526   000000 470400 xsym               LDP0    S_D$
         2 000527   000013 755100                    STA     11,,PR0

      169     6227    3                  CALL DDE$ERROR;

   6227  2 000530   000002 631400 xsym               EPPR1   B_VECTNIL+2
         2 000531   000000 701000 xent               TSX1    DDE$ERROR
         2 000532   000000 011000                    NOP     0

      170     6228    3                  S_D.ERROR = 502;    /* E@DELBUG */

   6228  2 000533   000766 235007                    LDA     502,DL
         2 000534   000000 470400 xsym               LDP0    S_D$
         2 000535   000013 755100                    STA     11,,PR0

      171     6229    3                  CALL DDE$ERROR;

   6229  2 000536   000002 631400 xsym               EPPR1   B_VECTNIL+2
         2 000537   000000 701000 xent               TSX1    DDE$ERROR
         2 000540   000000 011000                    NOP     0
PL6.E3A0      #001=DFA$LET File=DFA$LET.:E05TSI                                  TUE 07/29/97 14:34 Page:29

      172     6230    3               END;

      173     6231    2             GOTO ARET;

   6231  2 000541   000543 710000 2                  TRA     ARET

      174     6232    2           END;
      175     6233    1        RETURN;

   6233  2 000542   000000 702200 xent               TSX2  ! X66_ARET

   6230  2 000543                       ARET         null
      176     6234    1   ARET: ;
      177     6235    1        ALTRETURN;

   6235  2 000543   000000 702200 xent               TSX2  ! X66_AALT

   6230  2 000544                       ERR          null
      178     6236    1   ERR: ;
      179     6237    1        CALL DUE$ERRMSG;

   6237  2 000544   000002 631400 xsym               EPPR1   B_VECTNIL+2
         2 000545   000000 701000 xent               TSX1    DUE$ERRMSG
         2 000546   000000 011000                    NOP     0

      180     6238    1        RETURN;

   6238  2 000547   000000 702200 xent               TSX2  ! X66_ARET

(unnamed)
 Sect OctLoc
   1     000   775000 000000   000000 000000   740000 000000                    ............

(unnamed)
 Sect OctLoc
   3     000   000021 230000   001777 777777   000077 600000   000002 006000    .........?......
PL6.E3A0      #001=DFA$LET File=DFA$LET.:E05TSI                                  TUE 07/29/97 14:34 Page:30
   3     004   037777 777777                                                    ....
      181     6239    1   END DFA$LET;

PL6.E3A0      #001=DFA$LET File=DFA$LET.:E05TSI                                  TUE 07/29/97 14:34 Page:31
--  Include file information  --

   DU_SCODE_C.:E05TOU  is referenced.
   CP_6.:E05TOU  cannot be made into a system file and is referenced.
   DD_SRTN_C.:E05TOU  is referenced.
   DD_ACODE_C.:E05TOU  is referenced.
   DD_ICODE_C.:E05TOU  is referenced.
   DD$DITEM.:E05TOU  cannot be made into a system file and is referenced.
   DD$BASED.:E05TOU  is referenced.
   GD_EQUS_E.:E05TOU  is referenced.
   GD$MSG_M.:E05TOU  is referenced.
   DD_ERR_C.:E05TOU  is referenced.
   DD_SD_M.:E05TOU  is referenced.
   XUH_MACRO_C.:E05TOU  is referenced.
   B$JIT_C.:E05TOU  was found in the system file and is never referenced.
   CP_6_C.:E05TOU  was found in the system file and is referenced.
      No diagnostics issued in procedure DFA$LET.

   Procedure DFA$LET requires 360 words for executable code.
   Procedure DFA$LET requires 18 words of local(AUTO) storage.

    No errors detected in file DFA$LET.:E05TSI    .
PL6.E3A0      #001=DFA$LET File=DFA$LET.:E05TSI                                  TUE 07/29/97 14:34 Page:32
          *** CROSS REFERENCE LISTING ***
**     DENOTES     IDENTIFIER DEFINITION
<<                 IDENTIFIER'S VALUE SET
>>                 IDENTIFIER'S VALUE USED
<>                 IDENTIFIER SET AND/OR USED
--                 IDENTIFIER REFERENCED
PL6.E3A0      #001=DFA$LET File=DFA$LET.:E05TSI                                  TUE 07/29/97 14:34 Page:33
          MINI XREF LISTING

ARET
      6230**LABEL    6130--CALLALT  6147--GOTO     6164--GOTO     6177--GOTO     6206--GOTO     6231--GOTO
DDE$ERROR
      6114**DCL-ENT  6227--CALL     6229--CALL
DESC$
        16**DCL      6127<<ASSIGN
DFD$CONVERT_DD
      6115**DCL-ENT  6130--CALL
DFQ$READ_FD
      6116**DCL-ENT  6183--CALL
DFQ$WRITE_FD
      6117**DCL-ENT  6182--CALL
DO$
        15**DCL      5214--IMP-PTR  6126<<ASSIGN   6138>>ASSIGN   6139>>DOCASE   6144>>IF       6149>>ASSIGN
      6151>>ASSIGN   6153>>ASSIGN   6156>>ASSIGN   6158>>ASSIGN   6160>>IF       6166>>ASSIGN   6167>>ASSIGN
      6169>>ASSIGN   6170>>ASSIGN   6171>>ASSIGN   6173>>IF       6179>>ASSIGN   6180>>ASSIGN
DUE$ERRMSG
      6118**DCL-ENT  6237--CALL
DUE$GERRMSG
      6119**DCL-ENT  6220--CALL
ERR
      6230**LABEL    6182--CALLALT  6183--CALLALT
EXPR_OP
        18**DCL      6130<>CALL     6132>>IF
FPRG$CONTEXT.XDELTA
      5164**DCL      6202>>IF       6210>>IF
GD$MSG
      3391**DCL      6129<<ASSIGN
GD$MSG.BRKRQS.IF$CONST.SIZE
      3442**DCL      3442--REDEF
GD$MSG.BRKRQS.IF$CONST.TEXT
      3442**DCL      3443--REDEF    3443--REDEF    3444--REDEF    3445--REDEF
PL6.E3A0      #001=DFA$LET File=DFA$LET.:E05TSI                                  TUE 07/29/97 14:34 Page:34
GD$MSG.BRKRSP.BRK#
      3456**DCL      3456--REDEF
GD$MSG.BRKRSP.USER#
      3456**DCL      3456--REDEF
GD$MSG.ERROR_D.ERRCODE
      3397**DCL      6212>>ASSIGN
GD$MSG.FNC
      3391**DCL      6137<<ASSIGN   6184>>IF       6186>>DOCASE   6202>>IF       6208>>IF
GD$MSG.LETMEM_D.DATA_DESC
      3421**DCL      6130--CALL
GD$MSG.LETMEM_D.TYPE
      3414**DCL      6138<<ASSIGN
GD$MSG.LETMEM_D.VALUE.BITS.TRING
      3416**DCL      6166<<ASSIGN
GD$MSG.LETMEM_D.VALUE.CONS.TANT
      3416**DCL      6179<<ASSIGN
GD$MSG.LETMEM_D.VALUE.P.C
      3421**DCL      6170<<ASSIGN
GD$MSG.LETMEM_D.VALUE.P.W
      3421**DCL      6169<<ASSIGN
GD$MSG.LETMEM_D.VALUE.SIZE
      3414**DCL      3414--REDEF    6153<<ASSIGN   6158<<ASSIGN   6167<<ASSIGN   6171<<ASSIGN   6180<<ASSIGN
GD$MSG.LETMEM_D.VALUE.TEXT
      3415**DCL      3415--REDEF    3415--REDEF    3416--REDEF    3417--REDEF
GD$MSG.LETMEM_D.VALUE.TEXTB
      3415**DCL      6149<<ASSIGN   6151<<ASSIGN   6156<<ASSIGN
GD$MSG.MESSAGE
      3396**DCL      3396--REDEF    3397--REDEF    3397--REDEF    3398--REDEF    3409--REDEF    3422--REDEF
      3427--REDEF    3434--REDEF    3450--REDEF    3455--REDEF    3461--REDEF    3462--REDEF    3491--REDEF
      3493--REDEF    3504--REDEF    3511--REDEF    3523--REDEF
GD$MSG.SUBFNC
      3391**DCL      3391--REDEF    3395--REDEF
GD$MSG.TSA.I
      3463**DCL      3463--REDEF
GD$MSG.TSA.S
      3465**DCL      3465--REDEF
PL6.E3A0      #001=DFA$LET File=DFA$LET.:E05TSI                                  TUE 07/29/97 14:34 Page:35
GD$MSG.USERQS.ASDT$
      3491**DCL      3491--REDEF    3492--REDEF
GD$MSG_HOST.BRKRQS.IF$CONST.SIZE
      3598**DCL      3598--REDEF
GD$MSG_HOST.BRKRQS.IF$CONST.TEXT
      3598**DCL      3599--REDEF    3599--REDEF    3600--REDEF    3601--REDEF
GD$MSG_HOST.BRKRSP.BRK#
      3612**DCL      3612--REDEF
GD$MSG_HOST.BRKRSP.USER#
      3612**DCL      3612--REDEF
GD$MSG_HOST.ERROR_D.ERRCODE
      3553**DCL      6219>>ASSIGN
GD$MSG_HOST.LETMEM_D.VALUE.SIZE
      3570**DCL      3570--REDEF
GD$MSG_HOST.LETMEM_D.VALUE.TEXT
      3571**DCL      3571--REDEF    3571--REDEF    3572--REDEF    3573--REDEF
GD$MSG_HOST.MESSAGE
      3552**DCL      3552--REDEF    3553--REDEF    3553--REDEF    3554--REDEF    3565--REDEF    3578--REDEF
      3583--REDEF    3590--REDEF    3606--REDEF    3611--REDEF    3617--REDEF    3618--REDEF    3647--REDEF
      3649--REDEF    3660--REDEF    3667--REDEF    3679--REDEF
GD$MSG_HOST.SUBFNC
      3547**DCL      3547--REDEF    3551--REDEF
GD$MSG_HOST.TSA.I
      3619**DCL      3619--REDEF
GD$MSG_HOST.TSA.S
      3621**DCL      3621--REDEF
GD$MSG_HOST.USERQS.ASDT$
      3647**DCL      3647--REDEF    3648--REDEF
I
        17**DCL      6150<<DOINDEX  6151>>ASSIGN   6151>>ASSIGN   6155<<DOINDEX  6156>>ASSIGN   6156>>ASSIGN
LET$CMD.BITS.SIZE
      5238**DCL      6167>>ASSIGN
LET$CMD.BITS.TRING
      5240**DCL      6160>>IF       6166>>ASSIGN
LET$CMD.CONS.SIZE
      5232**DCL      6180>>ASSIGN
PL6.E3A0      #001=DFA$LET File=DFA$LET.:E05TSI                                  TUE 07/29/97 14:34 Page:36
LET$CMD.CONS.TANT
      5234**DCL      5235--REDEF    6179>>ASSIGN
LET$CMD.CONS.TANTB
      5235**DCL      6173>>IF
LET$CMD.P.ADR
      5245**DCL      5249--REDEF
LET$CMD.P.ADR6.C
      5251**DCL      6170>>ASSIGN
LET$CMD.P.ADR6.W
      5250**DCL      6169>>ASSIGN
LET$CMD.P.SIZE
      5243**DCL      6171>>ASSIGN
LET$CMD.TEXTC
      5223**DCL      5231--REDEF    5237--REDEF    5242--REDEF    5256--REDEF
LET$CMD.TEXTC.SIZE
      5224**DCL      5225--REDEF    6144>>IF       6153>>ASSIGN   6158>>ASSIGN
LET$CMD.TEXTC.TEXT
      5226**DCL      5227--REDEF    5228--REDEF
LET$CMD.TEXTC.TEXTA8.BYT
      5230**DCL      6149>>ASSIGN   6151>>ASSIGN   6156>>ASSIGN
LET$CMD.TYPE
      5219**DCL      6138>>ASSIGN   6139>>DOCASE
M$SCREECH
      5967**DCL-ENT  6224--CALL
NEVER
      6226**LABEL    6223--REMEMBR  6224--CALLALT
SNAP_MESSAGE
      6049**DCL      6224<>CALL
S_D.CURRENT_CHANNEL
      2410**DCL      2412--REDEF
S_D.CURRENT_FPRG_CONTEXT$
      1610**DCL      6182<>CALL     6183<>CALL     6202>>IF       6210>>IF
S_D.D$
      1548**DCL      6127>>ASSIGN   6128>>ASSIGN
S_D.DEBUGA
      1562**DCL      1564--REDEF
PL6.E3A0      #001=DFA$LET File=DFA$LET.:E05TSI                                  TUE 07/29/97 14:34 Page:37
S_D.DO$
      1513**DCL      6126>>ASSIGN
S_D.EIS
      2520**DCL      2549--REDEF
S_D.ERROR
      1491**DCL      6123<<ASSIGN   6134<<ASSIGN   6141<<ASSIGN   6146<<ASSIGN   6163<<ASSIGN   6176<<ASSIGN
      6188<<ASSIGN   6190<<ASSIGN   6192<<ASSIGN   6194<<ASSIGN   6196<<ASSIGN   6198<<ASSIGN   6200<<ASSIGN
      6205<<ASSIGN   6226<<ASSIGN   6228<<ASSIGN
S_D.HOST_MESSAGE_BUF_REMOTE
      2453**DCL      2454--REDEF    2468--REDEF
S_D.JDE
      2067**DCL      2068--REDEF    6217<<ASSIGN   6219<<ASSIGN
S_D.L$.VALUE
      1620**DCL      1626--REDEF    1634--REDEF    1637--REDEF    1640--REDEF    1643--REDEF
S_D.L$.VALUE.L
      1621**DCL      1622--REDEF    1623--REDEF
S_D.L6_MESSAGE_BUF
      2474**DCL      2476--REDEF
S_D.OUTPUT
      2440**DCL      2442--REDEF
S_D.REMOTE_MSG.FNCC
      2459**DCL      2460--REDEF
S_D.REMOTE_MSG.STXC
      2455**DCL      2456--REDEF
S_D.REMOTE_MSG.SUBFNCC
      2463**DCL      2464--REDEF
S_D.RUM
      2108**DCL      6121>>IF
S_D.SCREECH_IC
      2311**DCL      6223<<REMEMBR
S_D.SV
      1519**DCL      1540--REDEF
S_D$
      2771**DCL      1467--IMP-PTR  6121>>IF       6123>>ASSIGN   6126>>ASSIGN   6127>>ASSIGN   6128>>ASSIGN
      6134>>ASSIGN   6141>>ASSIGN   6146>>ASSIGN   6163>>ASSIGN   6176>>ASSIGN   6182>>CALL     6183>>CALL
      6188>>ASSIGN   6190>>ASSIGN   6192>>ASSIGN   6194>>ASSIGN   6196>>ASSIGN   6198>>ASSIGN   6200>>ASSIGN
PL6.E3A0      #001=DFA$LET File=DFA$LET.:E05TSI                                  TUE 07/29/97 14:34 Page:38
      6202>>IF       6205>>ASSIGN   6210>>IF       6217>>ASSIGN   6219>>ASSIGN   6223>>REMEMBR  6226>>ASSIGN
      6228>>ASSIGN
S_D_HOST_MESSAGE$
      2807**DCL      3547--IMP-PTR  6219>>ASSIGN
S_D_L6_MESSAGE$
      2808**DCL      3391--IMP-PTR  6129>>ASSIGN   6130>>CALL     6137>>ASSIGN   6138>>ASSIGN   6149>>ASSIGN
      6151>>ASSIGN   6153>>ASSIGN   6156>>ASSIGN   6158>>ASSIGN   6166>>ASSIGN   6167>>ASSIGN   6169>>ASSIGN
      6170>>ASSIGN   6171>>ASSIGN   6179>>ASSIGN   6180>>ASSIGN   6184>>IF       6186>>DOCASE   6202>>IF
      6208>>IF       6212>>ASSIGN
TEMP$
        19**DCL        20--REDEF      21--REDEF
TEMP1
        20**DCL      6212<<ASSIGN
TEMP1B.B1
        23**DCL      6213>>ASSIGN
TEMP1B.B2
        24**DCL      6214>>ASSIGN
TEMP1B.B3
        25**DCL      6215>>ASSIGN
TEMP1B.B4
        26**DCL      6216>>ASSIGN
TEMP2
        27**DCL        28--REDEF    6217>>ASSIGN
TEMP2B.B1
        30**DCL      6213<<ASSIGN
TEMP2B.B2
        32**DCL      6214<<ASSIGN
TEMP2B.B3
        34**DCL      6215<<ASSIGN
TEMP2B.B4
        36**DCL      6216<<ASSIGN
ZITEM$
      5368**DCL      6128<<ASSIGN   6130<>CALL
PL6.E3A0      #001=DFA$LET File=DFA$LET.:E05TSI                                  TUE 07/29/97 14:34 Page:39
              *** CROSS REFERENCE LISTING ***
    **     DENOTES     IDENTIFIER DEFINITION
    <<                 IDENTIFIER'S VALUE SET
    >>                 IDENTIFIER'S VALUE USED
    <>                 IDENTIFIER SET AND/OR USED
    --                 IDENTIFIER REFERENCED
PL6.E3A0      #001=DFA$LET File=DFA$LET.:E05TSI                                  TUE 07/29/97 14:34 Page:40
              MINI UREF LISTING

DFA$LET      13**PROC
M$ACCT    5970**DCL-ENT
M$ACTIVATE    5973**DCL-ENT
M$ALIB    5966**DCL-ENT
M$ASUSER    5968**DCL-ENT
M$ATTACH    5975**DCL-ENT
M$BADPP    5993**DCL-ENT
M$CGCTL    5974**DCL-ENT
M$CGINFO    5974**DCL-ENT
M$CHECK    5955**DCL-ENT
M$CHGUNIT    6013**DCL-ENT
M$CLOSE    5953**DCL-ENT
M$CLRSTK    6011**DCL-ENT
M$CMDVAR    6022**DCL-ENT
M$CONFIG    5983**DCL-ENT
M$CORRES    5958**DCL-ENT
M$CPEXIT    5967**DCL-ENT
M$CVM    5991**DCL-ENT
M$CVOL    5956**DCL-ENT
M$DCLFLD    5983**DCL-ENT
M$DEACTIVATE    5973**DCL-ENT
M$DELREC    5955**DCL-ENT
M$DEQ    6020**DCL-ENT
M$DETACH    5975**DCL-ENT
M$DEVICE    5957**DCL-ENT
M$DISPLAY    6020**DCL-ENT
M$DISPRES    5960**DCL-ENT
M$DLIB    5966**DCL-ENT
M$DRIBBLE    5983**DCL-ENT
M$DRTN    6011**DCL-ENT
M$DSUSER    5968**DCL-ENT
M$ENQ    6019**DCL-ENT
PL6.E3A0      #001=DFA$LET File=DFA$LET.:E05TSI                                  TUE 07/29/97 14:34 Page:41
M$EOM    5978**DCL-ENT
M$ERASE    5984**DCL-ENT
M$ERR    5965**DCL-ENT
M$ERRMSG    6016**DCL-ENT
M$EVENT    6008**DCL-ENT
M$EXHUME    6017**DCL-ENT
M$EXIT    5965**DCL-ENT
M$EXTEND    5957**DCL-ENT
M$FDP    5989**DCL-ENT
M$FDS    5988**DCL-ENT
M$FEBOOT    5981**DCL-ENT
M$FECTL    5982**DCL-ENT
M$FEDUMP    5981**DCL-ENT
M$FID    6016**DCL-ENT
M$FINDPROC    5970**DCL-ENT
M$FSUSER    5968**DCL-ENT
M$FVP    5990**DCL-ENT
M$FWCG    5974**DCL-ENT
M$GBPL    5994**DCL-ENT
M$GDDL    5990**DCL-ENT
M$GDP    5989**DCL-ENT
M$GDS    5988**DCL-ENT
M$GETDCB    5959**DCL-ENT
M$GETMOUSE    5999**DCL-ENT
M$GETPM    6000**DCL-ENT
M$GJOB    6018**DCL-ENT
M$GLINEATTR    5978**DCL-ENT
M$GOODPP    5993**DCL-ENT
M$GPLATEN    5986**DCL-ENT
M$GPROMPT    5985**DCL-ENT
M$GTRMATTR    5979**DCL-ENT
M$GTRMCTL    5977**DCL-ENT
M$GTRMTAB    5980**DCL-ENT
M$GVP    5989**DCL-ENT
M$HELP    6016**DCL-ENT
M$INT    6008**DCL-ENT
PL6.E3A0      #001=DFA$LET File=DFA$LET.:E05TSI                                  TUE 07/29/97 14:34 Page:42
M$INTRTN    5969**DCL-ENT
M$IOQ    6004**DCL-ENT
M$JOBSTATS    6018**DCL-ENT
M$KEYIN    5958**DCL-ENT
M$LDEV    5953**DCL-ENT
M$LDTRC    5966**DCL-ENT
M$LIMIT    5959**DCL-ENT
M$LINES    5958**DCL-ENT
M$LINK    5965**DCL-ENT
M$MADMUCK    5961**DCL-ENT
M$MAKUSER    5992**DCL-ENT
M$MBS    5960**DCL-ENT
M$MDFFLD    5984**DCL-ENT
M$MERC    6009**DCL-ENT
M$MERCS    6010**DCL-ENT
M$MIRROR    6004**DCL-ENT
M$MONINFO    6021**DCL-ENT
M$MPL    5994**DCL-ENT
M$NODEINFO    5985**DCL-ENT
M$NXTUSR    6019**DCL-ENT
M$OCMSG    6017**DCL-ENT
M$OLAY    5965**DCL-ENT
M$OPEN    5953**DCL-ENT
M$PAS    5994**DCL-ENT
M$PATHCON    6017**DCL-ENT
M$PDS    5988**DCL-ENT
M$PFIL    5955**DCL-ENT
M$PLATEN    5979**DCL-ENT
M$PRECORD    5957**DCL-ENT
M$PROCNAME    5970**DCL-ENT
M$PROFILE    5981**DCL-ENT
M$PROMPT    5977**DCL-ENT
M$RACST    5961**DCL-ENT
M$RDSYSLOG    6002**DCL-ENT
M$READ    5954**DCL-ENT
M$RELDCB    5959**DCL-ENT
PL6.E3A0      #001=DFA$LET File=DFA$LET.:E05TSI                                  TUE 07/29/97 14:34 Page:43
M$RELRES    5960**DCL-ENT
M$RELSTARF    5962**DCL-ENT
M$REM    5962**DCL-ENT
M$RENV    6009**DCL-ENT
M$REQUIRE    5961**DCL-ENT
M$RETRY    6010**DCL-ENT
M$RETRYS    6010**DCL-ENT
M$REW    5956**DCL-ENT
M$RLSFLD    5984**DCL-ENT
M$RPRIV    6012**DCL-ENT
M$RSPP    5991**DCL-ENT
M$RSWITCH    6013**DCL-ENT
M$RUE    6019**DCL-ENT
M$SAD    5992**DCL-ENT
M$SAVE    5968**DCL-ENT
M$SCON    5969**DCL-ENT
M$SENV    6009**DCL-ENT
M$SETFMA    5953**DCL-ENT
M$SETFP    5982**DCL-ENT
M$SINPUT    5980**DCL-ENT
M$SLCFLD    5985**DCL-ENT
M$SMOUSE    5999**DCL-ENT
M$SMPRT    5991**DCL-ENT
M$SPRIV    6012**DCL-ENT
M$SSC    5992**DCL-ENT
M$SSWITCH    6012**DCL-ENT
M$STATE    6021**DCL-ENT
M$STD    5993**DCL-ENT
M$STIMER    6007**DCL-ENT
M$STLPP    5990**DCL-ENT
M$STRAP    6007**DCL-ENT
M$STRMATTR    5979**DCL-ENT
M$STRMCTL    5977**DCL-ENT
M$STRMTAB    5980**DCL-ENT
M$SYMBIO    6018**DCL-ENT
M$SYSCON    6004**DCL-ENT
PL6.E3A0      #001=DFA$LET File=DFA$LET.:E05TSI                                  TUE 07/29/97 14:34 Page:44
M$SYSID    6022**DCL-ENT
M$TDCLOSE    6003**DCL-ENT
M$TDIO    6003**DCL-ENT
M$TDOPEN    6002**DCL-ENT
M$TDREQCPU    6003**DCL-ENT
M$TEMPWROC    5997**DCL-ENT
M$TIME    6020**DCL-ENT
M$TRAP    6007**DCL-ENT
M$TRMISC    5982**DCL-ENT
M$TRMPRG    5978**DCL-ENT
M$TRTN    6011**DCL-ENT
M$TRUNC    5954**DCL-ENT
M$TTIMER    6007**DCL-ENT
M$UC    5977**DCL
M$UMPL    5994**DCL-ENT
M$UNFID    6016**DCL-ENT
M$UNLATCH    5973**DCL-ENT
M$UNSHARE    5970**DCL-ENT
M$USRFIELD    6013**DCL-ENT
M$VIRTUAL    5988**DCL-ENT
M$WAIT    6011**DCL-ENT
M$WEOF    5956**DCL-ENT
M$WRITE    5954**DCL-ENT
M$WRSYSLOG    6002**DCL-ENT
M$XCON    6008**DCL-ENT
M$XCONRTN    5969**DCL-ENT
M$XEQTIME    6021**DCL-ENT
M$XFLUSH    5962**DCL-ENT
M$XMOUSE    5999**DCL-ENT
M$XXX    5965**DCL-ENT
M$YC    5967**DCL-ENT
SC_MESSAGE    6067**DCL
SDD$    5367**DCL
SDD_L6$    5369**DCL
S_D_ACCESS$    2786**DCL
S_D_ANLZ$    2788**DCL
PL6.E3A0      #001=DFA$LET File=DFA$LET.:E05TSI                                  TUE 07/29/97 14:34 Page:45
S_D_ASTACKOFF$    2787**DCL
S_D_BREAK$    2789**DCL
S_D_DO_SCAN$    2790**DCL
S_D_ERROR$    2791**DCL
S_D_FAULTCMD$$    2792**DCL
S_D_FAULTINS$$    2793**DCL
S_D_GOIC$    2794**DCL
S_D_GO_MODE$    2795**DCL
S_D_HW_PTB_UNITS$    2811**DCL
S_D_HW_RES_MEM$    2809**DCL
S_D_HW_WSQ0PT$    2810**DCL
S_D_IPRFLT$    2797**DCL
S_D_IXFIX$    2796**DCL
S_D_REM_ACCESS$    2798**DCL
S_D_REM_DISKBOOT$    2800**DCL
S_D_REM_DO_SCAN$    2799**DCL
S_D_RETURNN$    2801**DCL
S_D_SAD$    2802**DCL
S_D_SAVEIC$    2803**DCL
S_D_SEG$    2785**DCL
S_D_TCB$$    2804**DCL
S_D_UREG$$    2805**DCL
S_D_USS$$    2806**DCL
ZITEM_L6$    5370**DCL
