VERSION E05

PL6.E3A0      #001=DFA$QUIT File=DFA$QUIT.:E05TSI                                TUE 07/29/97 14:35 Page:1
        1        1        /*M* DFA$QUIT - Quit to an FPRG in the FEP.  */
        2        2        /*T***********************************************************/
        3        3        /*T*                                                         */
        4        4        /*T* Copyright (c) Bull HN Information Systems Inc., 1997    */
        5        5        /*T*                                                         */
        6        6        /*T***********************************************************/
        7        7        /*X* DMR,PLM=5,IND=5,CSU=3,EXM=0,ECU=3,MOC,DCI=5,CRT=5 */
        8        8        /**/
        9        9        /*P* NAME:  DFA$QUIT
       10       10             PURPOSE:
       11       11                    Do QUIT to an FPRG    */
       12       12        /*D* NAME:  DFA$QUIT
       13       13             PURPOSE:
       14       14                    Do a QUIT to an FPRG
       15       15             CALL:  DFA$QUIT (FPRG$) ALTRET(NOGO)
       16       16                    Alternate return if something goes wrong writing a
       17       17                    message to FD.
       18       18             INPUT: FPRG$ points to the context for the FPRG to QUIT
       19       19             DESCRIPTION:
       20       20                    Builds a QUIT message in S_D.L6_MESSAGE_BUF and calls
       21       21                    DFQ$WRITE_FD to write the message to FD.              */
       22       22        /**/
       23       23        DFA$QUIT: PROC(FPRG$) ALTRET;
       24       24        /**/
       25       25    1   DCL FPRG$ PTR;
       26       26    1   DCL TFPRG$ PTR;
       27       27        /* Includes and based structures */
       28       28        %INCLUDE GD$MSG_M;
       29      192        %GD$MSG(FPTN=GD$MSG,STCLASS="BASED(S_D_L6_MESSAGE$)",L6=YES,L6PTR="UBIN(32) UNAL");
       30      348        %INCLUDE DD$BASED;
       31     1651        %FPRG$CONTEXT(NAME=FPRG$CONTEXT,STCLASS="BASED(TFPRG$)");
       32     1714        %INCLUDE XUH_MACRO_C;
       33     1798        %INCLUDE DD_SD_M;
       34     3134        %S_D_PTRS;
       35     3171        %INCLUDE GD_EQUS_E;
       36     3332        /* Entry DCLs */
       37     3333    1   DCL DFQ$WRITE_FD ENTRY(1) ALTRET;
PL6.E3A0      #001=DFA$QUIT File=DFA$QUIT.:E05TSI                                TUE 07/29/97 14:35 Page:2
       38     3334        /**/
       39     3335    1        TFPRG$ = FPRG$;
       40     3336                                           /* Build a QUIT message to send to the FD */
       41     3337    1        GD$MSG = '0'B;
       42     3338    1        GD$MSG.FNC = %GD#RQSQUIT;
       43     3339    1        CALL DFQ$WRITE_FD (TFPRG$) ALTRET(ERR);
       44     3340    1        RETURN;
       45     3341    1   ERR: ;
       46     3342    1        ALTRETURN;
       47     3343    1   END DFA$QUIT;

PL6.E3A0      #001=DFA$QUIT File=DFA$QUIT.:E05TSI                                TUE 07/29/97 14:35 Page:3
--  Include file information  --

   GD_EQUS_E.:E05TOU  is referenced.
   DD_SD_M.:E05TOU  is referenced.
   XUH_MACRO_C.:E05TOU  is referenced.
   DD$BASED.:E05TOU  is referenced.
   GD$MSG_M.:E05TOU  is referenced.
   B$JIT_C.:E05TOU  was found in the system file and is never referenced.
   CP_6_C.:E05TOU  was found in the system file and is never referenced.
      No diagnostics issued in procedure DFA$QUIT.

   Procedure DFA$QUIT requires 21 words for executable code.
   Procedure DFA$QUIT requires 8 words of local(AUTO) storage.

    No errors detected in file DFA$QUIT.:E05TSI    .

PL6.E3A0      #001=DFA$QUIT File=DFA$QUIT.:E05TSI                                TUE 07/29/97 14:35 Page:4

 Object Unit name= DFA$QUIT                                   File name= DFA$QUIT.:E05TOU
 UTS= JUL 29 '97 14:35:40.84 TUE                              Compiler= PL-6/E31         Sev=      00
 SharedLib= :SHARED_SYSTEM                                    Alt SharedLib=


    ****  Control sections  ****

 Sect   Type Bound  Init  Size OctSiz  Section name(segment info)
    0   Proc  even  none    21     25  DFA$QUIT
    1  RoData even  none     1      1  DFA$QUIT

    ****  Entry defs  ****

                              Check   Calling
                             calling  sequence
  Sect OctLoc Primary Altret sequence   type   Parms  Name
     0      0   yes    yes     yes      Std        1  DFA$QUIT

  ****  Entry refs  ****

         Check        Calling
        calling       sequence
Altret sequence SRef   type   Args  Name
 yes     yes           Std       1 DFQ$WRITE_FD
                       nStd      0 X66_AUTO_1
                       Std       0 B_CONSPOOL_D
                       nStd      0 X66_ARET
                       nStd      0 X66_AALT

  ****  Data refs  ****

  Flags:  r = read only, s = secondary
Flgs Name                             Flgs Name                             Flgs Name
r    S_D_L6_MESSAGE$                       B_VECTNIL
PL6.E3A0      #001=DFA$QUIT File=DFA$QUIT.:E05TSI                                TUE 07/29/97 14:35 Page:5


        1        1        /*M* DFA$QUIT - Quit to an FPRG in the FEP.  */
        2        2        /*T***********************************************************/
        3        3        /*T*                                                         */
        4        4        /*T* Copyright (c) Bull HN Information Systems Inc., 1997    */
        5        5        /*T*                                                         */
        6        6        /*T***********************************************************/
        7        7        /*X* DMR,PLM=5,IND=5,CSU=3,EXM=0,ECU=3,MOC,DCI=5,CRT=5 */
        8        8        /**/
        9        9        /*P* NAME:  DFA$QUIT
       10       10             PURPOSE:
       11       11                    Do QUIT to an FPRG    */
       12       12        /*D* NAME:  DFA$QUIT
       13       13             PURPOSE:
       14       14                    Do a QUIT to an FPRG
       15       15             CALL:  DFA$QUIT (FPRG$) ALTRET(NOGO)
       16       16                    Alternate return if something goes wrong writing a
       17       17                    message to FD.
       18       18             INPUT: FPRG$ points to the context for the FPRG to QUIT
       19       19             DESCRIPTION:
       20       20                    Builds a QUIT message in S_D.L6_MESSAGE_BUF and calls
       21       21                    DFQ$WRITE_FD to write the message to FD.              */
       22       22        /**/
       23       23        DFA$QUIT: PROC(FPRG$) ALTRET;

     23  0 000000   000000 700200 xent  DFA$QUIT     TSX0  ! X66_AUTO_1
         0 000001   000010 000001                    ZERO    8,1

       24       24        /**/
       25       25    1   DCL FPRG$ PTR;
       26       26    1   DCL TFPRG$ PTR;
       27       27        /* Includes and based structures */
       28       28        %INCLUDE GD$MSG_M;
       29      192        %GD$MSG(FPTN=GD$MSG,STCLASS="BASED(S_D_L6_MESSAGE$)",L6=YES,L6PTR="UBIN(32) UNAL");
       30      348        %INCLUDE DD$BASED;
       31     1651        %FPRG$CONTEXT(NAME=FPRG$CONTEXT,STCLASS="BASED(TFPRG$)");
       32     1714        %INCLUDE XUH_MACRO_C;
PL6.E3A0      #001=DFA$QUIT File=DFA$QUIT.:E05TSI                                TUE 07/29/97 14:35 Page:6
       33     1798        %INCLUDE DD_SD_M;
       34     3134        %S_D_PTRS;
       35     3171        %INCLUDE GD_EQUS_E;
       36     3332        /* Entry DCLs */
       37     3333    1   DCL DFQ$WRITE_FD ENTRY(1) ALTRET;
       38     3334        /**/
       39     3335    1        TFPRG$ = FPRG$;

   3335  0 000002   200003 470500                    LDP0    @FPRG$,,AUTO
         0 000003   000000 236100                    LDQ     0,,PR0
         0 000004   200004 756100                    STQ     TFPRG$,,AUTO

       40     3336                                           /* Build a QUIT message to send to the FD */
       41     3337    1        GD$MSG = '0'B;

   3337  0 000005   000000 471400 xsym               LDP1    S_D_L6_MESSAGE$
         0 000006   003100 060400                    CSL     bolr='003'O
         0 000007   000002 000001 xsym               BDSC    B_VECTNIL+2              by=0,bit=0,n=1
         0 000010   100000 004720                    BDSC    0,,PR1                   by=0,bit=0,n=2512

       42     3338    1        GD$MSG.FNC = %GD#RQSQUIT;

   3338  0 000011   100000 236100                    LDQ     0,,PR1
         0 000012   000000 376000 1                  ANQ     0
         0 000013   054000 276003                    ORQ     22528,DU
         0 000014   100000 756100                    STQ     0,,PR1

       43     3339    1        CALL DFQ$WRITE_FD (TFPRG$) ALTRET(ERR);

   3339  0 000015   200004 633500                    EPPR3   TFPRG$,,AUTO
         0 000016   200006 453500                    STP3    TFPRG$+2,,AUTO
         0 000017   200006 630500                    EPPR0   TFPRG$+2,,AUTO
         0 000020   000017 631400 xsym               EPPR1   B_VECTNIL+15
         0 000021   000000 701000 xent               TSX1    DFQ$WRITE_FD
         0 000022   000024 702000 0                  TSX2    ERR

       44     3340    1        RETURN;
PL6.E3A0      #001=DFA$QUIT File=DFA$QUIT.:E05TSI                                TUE 07/29/97 14:35 Page:7

   3340  0 000023   000000 702200 xent               TSX2  ! X66_ARET

   3338  0 000024                       ERR          null
       45     3341    1   ERR: ;
       46     3342    1        ALTRETURN;

   3342  0 000024   000000 702200 xent               TSX2  ! X66_AALT

(unnamed)
 Sect OctLoc
   1     000   001777 777777                                                    ....
       47     3343    1   END DFA$QUIT;

PL6.E3A0      #001=DFA$QUIT File=DFA$QUIT.:E05TSI                                TUE 07/29/97 14:35 Page:8
--  Include file information  --

   GD_EQUS_E.:E05TOU  is referenced.
   DD_SD_M.:E05TOU  is referenced.
   XUH_MACRO_C.:E05TOU  is referenced.
   DD$BASED.:E05TOU  is referenced.
   GD$MSG_M.:E05TOU  is referenced.
   B$JIT_C.:E05TOU  was found in the system file and is never referenced.
   CP_6_C.:E05TOU  was found in the system file and is never referenced.
      No diagnostics issued in procedure DFA$QUIT.

   Procedure DFA$QUIT requires 21 words for executable code.
   Procedure DFA$QUIT requires 8 words of local(AUTO) storage.

    No errors detected in file DFA$QUIT.:E05TSI    .
PL6.E3A0      #001=DFA$QUIT File=DFA$QUIT.:E05TSI                                TUE 07/29/97 14:35 Page:9
          *** CROSS REFERENCE LISTING ***
**     DENOTES     IDENTIFIER DEFINITION
<<                 IDENTIFIER'S VALUE SET
>>                 IDENTIFIER'S VALUE USED
<>                 IDENTIFIER SET AND/OR USED
--                 IDENTIFIER REFERENCED
PL6.E3A0      #001=DFA$QUIT File=DFA$QUIT.:E05TSI                                TUE 07/29/97 14:35 Page:10
          MINI XREF LISTING

DFQ$WRITE_FD
      3333**DCL-ENT  3339--CALL
ERR
      3338**LABEL    3339--CALLALT
FPRG$
        25**DCL        23--PROC     3335>>ASSIGN
GD$MSG
       209**DCL      3337<<ASSIGN
GD$MSG.BRKRQS.IF$CONST.SIZE
       260**DCL       260--REDEF
GD$MSG.BRKRQS.IF$CONST.TEXT
       260**DCL       261--REDEF     261--REDEF     262--REDEF     263--REDEF
GD$MSG.BRKRSP.BRK#
       274**DCL       274--REDEF
GD$MSG.BRKRSP.USER#
       274**DCL       274--REDEF
GD$MSG.FNC
       209**DCL      3338<<ASSIGN
GD$MSG.LETMEM_D.VALUE.SIZE
       232**DCL       232--REDEF
GD$MSG.LETMEM_D.VALUE.TEXT
       233**DCL       233--REDEF     233--REDEF     234--REDEF     235--REDEF
GD$MSG.MESSAGE
       214**DCL       214--REDEF     215--REDEF     215--REDEF     216--REDEF     227--REDEF     240--REDEF
       245--REDEF     252--REDEF     268--REDEF     273--REDEF     279--REDEF     280--REDEF     309--REDEF
       311--REDEF     322--REDEF     329--REDEF     341--REDEF
GD$MSG.SUBFNC
       209**DCL       209--REDEF     213--REDEF
GD$MSG.TSA.I
       281**DCL       281--REDEF
GD$MSG.TSA.S
       283**DCL       283--REDEF
PL6.E3A0      #001=DFA$QUIT File=DFA$QUIT.:E05TSI                                TUE 07/29/97 14:35 Page:11
GD$MSG.USERQS.ASDT$
       309**DCL       309--REDEF     310--REDEF
S_D_L6_MESSAGE$
      3166**DCL       209--IMP-PTR  3337>>ASSIGN   3338>>ASSIGN
TFPRG$
        26**DCL      1652--IMP-PTR  3335<<ASSIGN   3339<>CALL
PL6.E3A0      #001=DFA$QUIT File=DFA$QUIT.:E05TSI                                TUE 07/29/97 14:35 Page:12
              *** CROSS REFERENCE LISTING ***
    **     DENOTES     IDENTIFIER DEFINITION
    <<                 IDENTIFIER'S VALUE SET
    >>                 IDENTIFIER'S VALUE USED
    <>                 IDENTIFIER SET AND/OR USED
    --                 IDENTIFIER REFERENCED
PL6.E3A0      #001=DFA$QUIT File=DFA$QUIT.:E05TSI                                TUE 07/29/97 14:35 Page:13
              MINI UREF LISTING

DFA$QUIT      23**PROC
FPRG$CONTEXT    1652**DCL
S_D_ACCESS$    3144**DCL
S_D_ANLZ$    3146**DCL
S_D_ASTACKOFF$    3145**DCL
S_D_BREAK$    3147**DCL
S_D_DO_SCAN$    3148**DCL
S_D_ERROR$    3149**DCL
S_D_FAULTCMD$$    3150**DCL
S_D_FAULTINS$$    3151**DCL
S_D_GOIC$    3152**DCL
S_D_GO_MODE$    3153**DCL
S_D_HOST_MESSAGE$    3165**DCL
S_D_HW_PTB_UNITS$    3169**DCL
S_D_HW_RES_MEM$    3167**DCL
S_D_HW_WSQ0PT$    3168**DCL
S_D_IPRFLT$    3155**DCL
S_D_IXFIX$    3154**DCL
S_D_REM_ACCESS$    3156**DCL
S_D_REM_DISKBOOT$    3158**DCL
S_D_REM_DO_SCAN$    3157**DCL
S_D_RETURNN$    3159**DCL
S_D_SAD$    3160**DCL
S_D_SAVEIC$    3161**DCL
S_D_SEG$    3143**DCL
S_D_TCB$$    3162**DCL
S_D_UREG$$    3163**DCL
S_D_USS$$    3164**DCL
