VERSION E05

PL6.E3A0      #001=DFA$UNFID File=DFA$UNFID.:E05TSI                              TUE 07/29/97 14:38 Page:1
        1        1        /*M* DFA$UNFID - UNFID module for FEP programs */
        2        2        /*T***********************************************************/
        3        3        /*T*                                                         */
        4        4        /*T* Copyright (c) Bull HN Information Systems Inc., 1997    */
        5        5        /*T*                                                         */
        6        6        /*T***********************************************************/
        7        7        /*X* DMR,PLM=5,IND=5,CSU=3,EXM=0,ECU=3,MOC,DCI=5,CRT=5 */
        8        8        %SET LISTSUB='1'B;
        9        9        /*F* NAME: DFA$UNFID
       10       10             PURPOSE:
       11       11                   This module converts the data descriptor for the UNFID
       12       12                   command into L6 format
       13       13                   and writes a message to FD containing the data descriptor.
       14       14                   The data descriptor is evaluated in FD and get back
       15       15                   DCB#, DCBNAME, ORG and FUN.
       16       16             DESCRIPTION:
       17       17                   Input is data descriptor @ S.D.DESC$ */
       18       18
       19       19        DFA$UNFID: PROC ALTRET;
       20       20        /* Local Auto */
       21       21    1   DCL DCB# UBIN;
       22       22    1   DCL TEMP UBIN;
       23       23    1   DCL I UBIN;
       24       24    1   DCL HIGX UBIN;
       25       25    1   DCL LOWX UBIN;
       26       26    1   DCL DUM1 BIT(1) ALIGNED;
       27       27    1   DCL BB$ PTR;
       28       28    1   DCL REM UBIN;
       29       29    1   DCL CHAR120 CHAR(120) BASED;
       30       30    1   DCL CHAR1 CHAR(1) BASED;
       31       31    1   DCL CHAR2 CHAR(2) BASED;
       32       32    1   DCL CHAR8 CHAR(8) BASED;
       33       33    1   DCL CHAR32 CHAR(32) BASED;
       34       34    1   DCL NAME (0:30) UBIN BYTE CALIGNED;
       35       35    1   DCL NAMEC REDEF NAME CHAR(31) CALIGNED;
       36       36    1   DCL ACCT (0:7) UBIN BYTE CALIGNED;
       37       37    1   DCL ACCTC REDEF ACCT CHAR(8) CALIGNED;
PL6.E3A0      #001=DFA$UNFID File=DFA$UNFID.:E05TSI                              TUE 07/29/97 14:38 Page:2
       38       38    1   DCL RES (0:3) UBIN BYTE CALIGNED;
       39       39    1   DCL RESC REDEF RES CHAR(4) CALIGNED;
       40       40    1   DCL COMMA BIT(1) ALIGNED;
       41       41    1   DCL TEMP$ PTR;
       42       42    1   DCL TEMP1 REDEF TEMP$ UBIN(36) ALIGNED;
       43       43    1   DCL 1 TEMP1B REDEF TEMP$ ALIGNED,
       44       44    1         2 * UBIN(4) UNAL,
       45       45    1         2 B1 UBIN(8) UNAL,
       46       46    1         2 B2 UBIN(8) UNAL,
       47       47    1         2 B3 UBIN(8) UNAL,
       48       48    1         2 B4 UBIN(8) UNAL;
       49       49    1   DCL TEMP2 UBIN(36) ALIGNED;
       50       50    1   DCL 1 TEMP2B REDEF TEMP2 ALIGNED,
       51       51    1         2 * BIT(1) UNAL,
       52       52    1         2 B1 UBIN(8) UNAL,
       53       53    1         2 * BIT(1) UNAL,
       54       54    1         2 B2 UBIN(8) UNAL,
       55       55    1         2 * BIT(1) UNAL,
       56       56    1         2 B3 UBIN(8) UNAL,
       57       57    1         2 * BIT(1) UNAL,
       58       58    1         2 B4 UBIN(8) UNAL;
       59       59        /* Includes and Based structures */
       60       60        %INCLUDE XUH_MACRO_C;
       61      144        %INCLUDE DD_SD_M;
       62     1480        %S_D;
       63     2798        %S_D_PTRS;
       64     2835        %INCLUDE GD$MSG_M;
       65     2999        %GD$MSG(FPTN=GD$MSG,STCLASS="BASED(S_D_L6_MESSAGE$)",L6=YES,L6PTR="UBIN(32) UNAL");
       66     3155        %GD$MSG(FPTN=HOST_GD$MSG,STCLASS="BASED(S_D_HOST_MESSAGE$)",L6=NO);
       67     3311        %INCLUDE GD_EQUS_E;
       68     3472        %INCLUDE DD$BASED;
       69     4775        %FPRG$CONTEXT;
       70     4838        %UNFID$CMD;
       71     4856        %INCLUDE CP_6_SUBS;
       72     5396        %INCLUDE G_LCP6_E;
       73     5654        %INCLUDE DD_ERR_C;
       74     6051        %INCLUDE CP_6;
PL6.E3A0      #001=DFA$UNFID File=DFA$UNFID.:E05TSI                              TUE 07/29/97 14:38 Page:3
       75     6132        %FPT_WAIT (UNITS=1, STCLASS=CONSTANT);
       76     6146        %INCLUDE DU_SCODE_C;
       77     6159        %FPT_SCREECH(FPTN=SNAP_MESSAGE,STCLASS=CONSTANT,SCODE=SC_MESSAGE);
       78     6173        %VLP_SCODE(FPTN=SC_MESSAGE, STCLASS=CONSTANT, FCG=DU, MID=X, MON=NO,
       79     6174                   CODE=%S$DUMESSAGE, SEV=SEV_SNAP, CUSR=YES, ROSEG=YES,
       80     6175                   ISEG=YES, DDSEG=YES, DBSEG=YES, ASLSEG=YES);
       81     6236        /* Entry DCLs */
       82     6237    1   DCL DDE$ERROR ENTRY;
       83     6238    1   DCL DDR$MOVE ENTRY(4) ALTRET;
       84     6239    1   DCL DDQ$WRITE ENTRY(2);
       85     6240    1   DCL DFD$CONVERT_DD ENTRY(4) ALTRET;
       86     6241    1   DCL DFQ$READ_FD ENTRY(2) ALTRET;
       87     6242    1   DCL DFQ$WRITE_FD ENTRY(1) ALTRET;
       88     6243    1   DCL DUE$ERRMSG ENTRY;
       89     6244    1   DCL DUE$GERRMSG ENTRY;
       90     6245        /**/
       91     6246    1        IF S_D.RUM OR S_D.ANLZ
       92     6247    2        THEN DO;
       93     6248    2             S_D.ERROR = 34;         /* E@NOTYET */
       94     6249    2             GOTO ARET;
       95     6250    2           END;
       96     6251    1        LOWX = S_D.DO$->UNFID$CMD.ID_FROM;
       97     6252    1        HIGX = S_D.DO$->UNFID$CMD.ID_TO;
       98     6253    1        GD$MSG = '0'B;
       99     6254    1        GD$MSG.UNFID.K13 = S_D.DO$->UNFID$CMD.K13;
      100     6255    1        GD$MSG.UNFID.DCBNAME.L = S_D.DO$->UNFID$CMD.DCBN.L;
      101     6256    2        DO I = 0 TO 30;
      102     6257    2             GD$MSG.UNFID.DCBNAME.NAME(I) = ASCBIN(SUBSTR(S_D.DO$->UNFID$CMD.DCBN.C,I,1
              6257                      ));
      103     6258    2           END;
      104     6259    2        DO I = LOWX TO HIGX;
      105     6260    2             CALL M$WAIT (FPT_WAIT);
      106     6261    2             GD$MSG.UNFID.DCB# = I;
      107     6262    2             GD$MSG.FNC = %GD#RQSUNFID;
      108     6263                                                /* Write message to FD */
      109     6264    2             CALL DFQ$WRITE_FD (S_D.CURRENT_FPRG_CONTEXT$) ALTRET(ERR);
      110     6265                                                /* Read response from FD */
PL6.E3A0      #001=DFA$UNFID File=DFA$UNFID.:E05TSI                              TUE 07/29/97 14:38 Page:4
      111     6266    2             CALL DFQ$READ_FD (S_D.CURRENT_FPRG_CONTEXT$, '0'B) ALTRET(ERR);
      112     6267    2             IF GD$MSG.FNC ~= %GD#RSPUNFID
      113     6268    3             THEN DO;
      114     6269    4                  DO CASE(GD$MSG.FNC);
      115     6270    4                    CASE(%GD#RSPNOSUCHDCB);
      116     6271    4                       IF GD$MSG.UNFID.K13 AND S_D.DO$->UNFID$CMD.ID_TO ~= I THEN GOTO
              6271                                NEXT;
      117     6272    4                       S_D.ERROR = 183; /* E@NODCB */
      118     6273    4                       CALL DDE$ERROR;
      119     6274    4                    CASE(%GD#RSPDCBEMPTY);
      120     6275    4                       IF GD$MSG.UNFID.K13 AND S_D.DO$->UNFID$CMD.ID_TO ~= I THEN GOTO
              6275                                NEXT;
      121     6276    4                       S_D.ERROR = 184; /* E@DCBNIL */
      122     6277    4                       CALL DDE$ERROR;
      123     6278    4                    CASE(ELSE);
      124     6279    4                       IF S_D.CURRENT_FPRG_CONTEXT$ -> FPRG$CONTEXT.XDELTA AND
      125     6280    4                         GD$MSG.FNC = %GD#RSPBADMSG
      126     6281    4                       THEN S_D.ERROR = 330; /* E@BADMSG */
      127     6282    5                       ELSE DO;
      128     6283    5                            IF GD$MSG.FNC = %GD#RSPNAK
      129     6284    6                            THEN DO;
      130     6285    6                                 IF S_D.CURRENT_FPRG_CONTEXT$ -> FPRG$CONTEXT.XDELTA
      131     6286    7                                 THEN DO;
      132     6287    7                                      TEMP1 = BITBIN(GD$MSG.ERROR_D.ERRCODE);
      133     6288    7                                      TEMP2B.B1 = TEMP1B.B1;
      134     6289    7                                      TEMP2B.B2 = TEMP1B.B2;
      135     6290    7                                      TEMP2B.B3 = TEMP1B.B3;
      136     6291    7                                      TEMP2B.B4 = TEMP1B.B4;
      137     6292    7                                      S_D.JDE = TEMP2;
      138     6293    7                                    END;
      139     6294    6                                 ELSE S_D.JDE = BITBIN(HOST_GD$MSG.ERROR_D.ERRCODE);
      140     6295    6                                 CALL DUE$GERRMSG;
      141     6296    6                                 RETURN;
      142     6297    6                               END;
      143     6298    5                            REMEMBER NEVER IN S_D.SCREECH_IC;
      144     6299    5                            CALL M$SCREECH (SNAP_MESSAGE) ALTRET(NEVER);
      145     6300    5   NEVER:
PL6.E3A0      #001=DFA$UNFID File=DFA$UNFID.:E05TSI                              TUE 07/29/97 14:38 Page:5
      146     6301    5                            S_D.ERROR = 524; /* E@BADMESSAGE */
      147     6302    5                            CALL DDE$ERROR;
      148     6303    5                            S_D.ERROR = 502; /* E@DELBUG */
      149     6304    5                            CALL DDE$ERROR;
      150     6305    5                            RETURN;
      151     6306    5                          END;
      152     6307    4                    END;
      153     6308    3                  GOTO NEXT;
      154     6309    3                END;
      155     6310    3             IF S_D.DO$->UNFID$CMD.K13 THEN DO;
      156     6311    3                  IF (NOT S_D.DO$->UNFID$CMD.OPEN) AND (GD$MSG.UNFID.OPEN) THEN GOTO
              6311                           NEXT;
      157     6312    3                  IF (NOT S_D.DO$->UNFID$CMD.CLOSED) AND (NOT GD$MSG.UNFID.OPEN) THEN
              6312                           GOTO NEXT;
      158     6313    3                END;
      159     6314    2             S_D.OUTPUT = 'DCB #';
      160     6315    2             BB$ = PINCRC(ADDR(S_D.OUTPUT), 5);
      161     6316    2             DCB# = GD$MSG.UNFID.DCB#;
      162     6317    2             IF DCB# < 10
      163     6318    3             THEN DO;
      164     6319    3                  CALL BINCHAR(BB$->CHAR1, DCB#);
      165     6320    3                  BB$ = PINCRC(BB$, 2);
      166     6321    3                END;
      167     6322    3             ELSE DO;
      168     6323    3                  CALL BINCHAR(BB$->CHAR2, DCB#);
      169     6324    3                  BB$ = PINCRC(BB$, 3);
      170     6325    3                END;
      171     6326    2             NAME = HOST_GD$MSG.UNFID.DCBNAME.NAME;
      172     6327    2             BB$ -> CHAR32 = NAMEC;
      173     6328    2             BB$ = PINCRC(BB$, GD$MSG.UNFID.DCBNAME.L);
      174     6329    2             IF GD$MSG.UNFID.DCBNAME.L > 0
      175     6330    3             THEN DO;
      176     6331    3                  BB$->CHAR1 = ' ';
      177     6332    3                  BB$ = PINCRC(BB$, 1);
      178     6333    3                END;
      179     6334    2             COMMA = '0'B;
      180     6335    2             IF GD$MSG.UNFID.NAME.L ~= 0
PL6.E3A0      #001=DFA$UNFID File=DFA$UNFID.:E05TSI                              TUE 07/29/97 14:38 Page:6
      181     6336    3             THEN DO;
      182     6337    3                  NAME = HOST_GD$MSG.UNFID.NAME.C;
      183     6338    3                  BB$ -> CHAR32 = NAMEC;
      184     6339    3                  BB$ = PINCRC(BB$,GD$MSG.UNFID.NAME.L);
      185     6340    3                  BB$ -> CHAR1 = '.';
      186     6341    3                  BB$ = PINCRC(BB$, 1);
      187     6342    3                  ACCT = HOST_GD$MSG.UNFID.ACCT;
      188     6343    3                  BB$ -> CHAR8 = ACCTC;
      189     6344    3                  BB$ = PINCRC(BB$, 8);
      190     6345    3                  COMMA = '1'B;
      191     6346    3                END;
      192     6347    2             CALL INDEX(TEMP, '  ', S_D.OUTPUT);
      193     6348    2             BB$ = PINCRC(ADDR(S_D.OUTPUT), TEMP+1);
      194     6349    2             REM = 120;
      195     6350    2             IF COMMA
      196     6351    2             THEN CALL DDR$MOVE(',RES=', LENGTHC(',RES='), BB$, REM);
      197     6352    2             ELSE CALL DDR$MOVE(' RES=', LENGTHC(' RES='), BB$, REM);
      198     6353    2             RES = HOST_GD$MSG.UNFID.RES;
      199     6354    2             CALL DDR$MOVE (RESC, 4, BB$, REM);
      200     6355    2             CALL DDR$MOVE (' ', 1, BB$, REM);
      201     6356    2             IF GD$MSG.UNFID.OPEN
      202     6357    3             THEN DO;
      203     6358    3                  CALL DDR$MOVE('(OPEN, ', 7, BB$, REM);
      204     6359    3                END;
      205     6360    3             ELSE DO;
      206     6361    3                  CALL DDR$MOVE('(CLOSED, ', 9, BB$, REM);
      207     6362    3                  IF GD$MSG.UNFID.WAS_OPEN
      208     6363    3                  THEN CALL DDR$MOVE('WAS OPEN, ', SIZEC('WAS OPEN, '), BB$, REM);
      209     6364    3                  ELSE CALL DDR$MOVE('NEVER OPEN, ', SIZEC('NEVER OPEN, '), BB$, REM);
      210     6365    3                END;
      211     6366    3             DO CASE(GD$MSG.UNFID.FUN#);
      212     6367    3               CASE(%UPDATE#);
      213     6368    3                  CALL DDR$MOVE('UPDATE, ', 8, BB$, REM);
      214     6369    3               CASE(%IN#);
      215     6370    3                  CALL DDR$MOVE('IN, ', 4, BB$, REM);
      216     6371    3               CASE(%CREATE#);
      217     6372    3                  CALL DDR$MOVE('CREATE, ', 8, BB$, REM);
PL6.E3A0      #001=DFA$UNFID File=DFA$UNFID.:E05TSI                              TUE 07/29/97 14:38 Page:7
      218     6373    3               CASE(ELSE);
      219     6374    3                  CALL DDR$MOVE('?, ', 3, BB$, REM);
      220     6375    3               END;
      221     6376    3             DO CASE(GD$MSG.UNFID.ORG#);
      222     6377    3               CASE(%G_ORG_CONSEC#);
      223     6378    3                  CALL DDR$MOVE('CONSEC)', LENGTHC('CONSEC)'), BB$, REM);
      224     6379    3               CASE(%G_ORG_FORM#);
      225     6380    3                  CALL DDR$MOVE('FORM)', LENGTHC('FORM)'), BB$, REM);
      226     6381    3               CASE(%G_ORG_TERMINAL#);
      227     6382    3                  CALL DDR$MOVE('TERMINAL)', LENGTHC('TERMINAL)'), BB$, REM);
      228     6383    3               CASE(%G_ORG_UR#);
      229     6384    3                  CALL DDR$MOVE('UR)', LENGTHC('UR)'), BB$, REM);
      230     6385    3               CASE(%G_ORG_CQ#);
      231     6386    3                  CALL DDR$MOVE('CQ)', LENGTHC('CQ)'), BB$, REM);
      232     6387    3               CASE(%G_ORG_SE#);
      233     6388    3                  CALL DDR$MOVE('SE)', LENGTHC('SE)'), BB$, REM);
      234     6389    3               CASE(%G_ORG_X364#);
      235     6390    3                  CALL DDR$MOVE('X364)', LENGTHC('X364)'), BB$, REM);
      236     6391    3               CASE(ELSE);
      237     6392    3                  CALL DDR$MOVE('?)', LENGTHC('?)'), BB$, REM);
      238     6393    3               END;
      239     6394    2             CALL DDQ$WRITE(ADDR(S_D.OUTPUT), POFFC(BB$, ADDR(S_D.OUTPUT)));
      240     6395    2   NEXT:
      241     6396    2             IF NOT S_D.DO$->UNFID$CMD.K13 THEN GOTO RET;
      242     6397    2           END;                            /* DO DCB# */
      243     6398    1   RET:
      244     6399    1        RETURN;
      245     6400
      246     6401    1   ERR: ;
      247     6402    1        CALL DUE$ERRMSG;
      248     6403    1        RETURN;
      249     6404    1   ARET: ALTRETURN;
      250     6405    1   END DFA$UNFID;

PL6.E3A0      #001=DFA$UNFID File=DFA$UNFID.:E05TSI                              TUE 07/29/97 14:38 Page:8
--  Include file information  --

   DU_SCODE_C.:E05TOU  is referenced.
   CP_6.:E05TOU  cannot be made into a system file and is referenced.
   DD_ERR_C.:E05TOU  is referenced.
   G_LCP6_E.:E05TOU  is referenced.
   CP_6_SUBS.:E05TOU  is referenced.
   DD$BASED.:E05TOU  is referenced.
   GD_EQUS_E.:E05TOU  is referenced.
   GD$MSG_M.:E05TOU  is referenced.
   DD_SD_M.:E05TOU  is referenced.
   XUH_MACRO_C.:E05TOU  is referenced.
   B$JIT_C.:E05TOU  was found in the system file and is never referenced.
   CP_6_C.:E05TOU  was found in the system file and is referenced.
      No diagnostics issued in procedure DFA$UNFID.

   Procedure DFA$UNFID requires 623 words for executable code.
   Procedure DFA$UNFID requires 32 words of local(AUTO) storage.

    No errors detected in file DFA$UNFID.:E05TSI    .

PL6.E3A0      #001=DFA$UNFID File=DFA$UNFID.:E05TSI                              TUE 07/29/97 14:38 Page:9

 Object Unit name= DFA$UNFID                                  File name= DFA$UNFID.:E05TOU
 UTS= JUL 29 '97 14:38:22.64 TUE                              Compiler= PL-6/E31         Sev=      00
 SharedLib= :SHARED_SYSTEM                                    Alt SharedLib=


    ****  Control sections  ****

 Sect   Type Bound  Init  Size OctSiz  Section name(segment info)
    0   DCB   even  none     0      0  M$UC
    1  RoData even  UTS     51     63  DFA$UNFID
    2   Proc  even  none   623   1157  DFA$UNFID
    3  RoData even  none    48     60  DFA$UNFID

    ****  Entry defs  ****

                              Check   Calling
                             calling  sequence
  Sect OctLoc Primary Altret sequence   type   Parms  Name
     2      0   yes    yes     yes      Std        0  DFA$UNFID

  ****  Entry refs  ****

         Check        Calling
        calling       sequence
Altret sequence SRef   type   Args  Name
 yes     yes           Std       1 DFQ$WRITE_FD
 yes     yes           Std       2 DFQ$READ_FD
         yes           Std       0 DUE$GERRMSG
 yes     yes           Std       4 DDR$MOVE
         yes           Std       2 DDQ$WRITE
         yes           Std       0 DUE$ERRMSG
         yes           Std       0 DDE$ERROR
                       nStd      0 X66_AUTO_0
                       Std       0 B_CONSPOOL_D
                       nStd      0 X66_ARET
                       nStd      0 X66_AALT
PL6.E3A0      #001=DFA$UNFID File=DFA$UNFID.:E05TSI                              TUE 07/29/97 14:38 Page:10

  ****  Data refs  ****

  Flags:  r = read only, s = secondary
Flgs Name                             Flgs Name                             Flgs Name
r    S_D$                             r    S_D_HOST_MESSAGE$                r    S_D_L6_MESSAGE$
     M$UC                                  B_VECTNIL

  ****  Segment refs  ****

  Flags:  r = read only, s = secondary
Flgs Name                             Flgs Name                             Flgs Name
     ISSID                                 NULLSID
PL6.E3A0      #001=DFA$UNFID File=DFA$UNFID.:E05TSI                              TUE 07/29/97 14:38 Page:11


        1        1        /*M* DFA$UNFID - UNFID module for FEP programs */
        2        2        /*T***********************************************************/
        3        3        /*T*                                                         */
        4        4        /*T* Copyright (c) Bull HN Information Systems Inc., 1997    */
        5        5        /*T*                                                         */
        6        6        /*T***********************************************************/
        7        7        /*X* DMR,PLM=5,IND=5,CSU=3,EXM=0,ECU=3,MOC,DCI=5,CRT=5 */
        8        8        %SET LISTSUB='1'B;
        9        9        /*F* NAME: DFA$UNFID
       10       10             PURPOSE:
       11       11                   This module converts the data descriptor for the UNFID
       12       12                   command into L6 format
       13       13                   and writes a message to FD containing the data descriptor.
       14       14                   The data descriptor is evaluated in FD and get back
       15       15                   DCB#, DCBNAME, ORG and FUN.
       16       16             DESCRIPTION:
       17       17                   Input is data descriptor @ S.D.DESC$ */
       18       18
       19       19        DFA$UNFID: PROC ALTRET;

     19  2 000000   000000 700200 xent  DFA$UNFID    TSX0  ! X66_AUTO_0
         2 000001   000040 000000                    ZERO    32,0

       20       20        /* Local Auto */
       21       21    1   DCL DCB# UBIN;
       22       22    1   DCL TEMP UBIN;
       23       23    1   DCL I UBIN;
       24       24    1   DCL HIGX UBIN;
       25       25    1   DCL LOWX UBIN;
       26       26    1   DCL DUM1 BIT(1) ALIGNED;
       27       27    1   DCL BB$ PTR;
       28       28    1   DCL REM UBIN;
       29       29    1   DCL CHAR120 CHAR(120) BASED;
       30       30    1   DCL CHAR1 CHAR(1) BASED;
       31       31    1   DCL CHAR2 CHAR(2) BASED;
       32       32    1   DCL CHAR8 CHAR(8) BASED;
PL6.E3A0      #001=DFA$UNFID File=DFA$UNFID.:E05TSI                              TUE 07/29/97 14:38 Page:12
       33       33    1   DCL CHAR32 CHAR(32) BASED;
       34       34    1   DCL NAME (0:30) UBIN BYTE CALIGNED;
       35       35    1   DCL NAMEC REDEF NAME CHAR(31) CALIGNED;
       36       36    1   DCL ACCT (0:7) UBIN BYTE CALIGNED;
       37       37    1   DCL ACCTC REDEF ACCT CHAR(8) CALIGNED;
       38       38    1   DCL RES (0:3) UBIN BYTE CALIGNED;
       39       39    1   DCL RESC REDEF RES CHAR(4) CALIGNED;
       40       40    1   DCL COMMA BIT(1) ALIGNED;
       41       41    1   DCL TEMP$ PTR;
       42       42    1   DCL TEMP1 REDEF TEMP$ UBIN(36) ALIGNED;
       43       43    1   DCL 1 TEMP1B REDEF TEMP$ ALIGNED,
       44       44    1         2 * UBIN(4) UNAL,
       45       45    1         2 B1 UBIN(8) UNAL,
       46       46    1         2 B2 UBIN(8) UNAL,
       47       47    1         2 B3 UBIN(8) UNAL,
       48       48    1         2 B4 UBIN(8) UNAL;
       49       49    1   DCL TEMP2 UBIN(36) ALIGNED;
       50       50    1   DCL 1 TEMP2B REDEF TEMP2 ALIGNED,
       51       51    1         2 * BIT(1) UNAL,
       52       52    1         2 B1 UBIN(8) UNAL,
       53       53    1         2 * BIT(1) UNAL,
       54       54    1         2 B2 UBIN(8) UNAL,
       55       55    1         2 * BIT(1) UNAL,
       56       56    1         2 B3 UBIN(8) UNAL,
       57       57    1         2 * BIT(1) UNAL,
       58       58    1         2 B4 UBIN(8) UNAL;
       59       59        /* Includes and Based structures */
       60       60        %INCLUDE XUH_MACRO_C;
       61      144        %INCLUDE DD_SD_M;
       62     1480        %S_D;
       63     2798        %S_D_PTRS;
       64     2835        %INCLUDE GD$MSG_M;
       65     2999        %GD$MSG(FPTN=GD$MSG,STCLASS="BASED(S_D_L6_MESSAGE$)",L6=YES,L6PTR="UBIN(32) UNAL");
       66     3155        %GD$MSG(FPTN=HOST_GD$MSG,STCLASS="BASED(S_D_HOST_MESSAGE$)",L6=NO);
       67     3311        %INCLUDE GD_EQUS_E;
       68     3472        %INCLUDE DD$BASED;
       69     4775        %FPRG$CONTEXT;
PL6.E3A0      #001=DFA$UNFID File=DFA$UNFID.:E05TSI                              TUE 07/29/97 14:38 Page:13
       70     4838        %UNFID$CMD;
       71     4856        %INCLUDE CP_6_SUBS;
       72     5396        %INCLUDE G_LCP6_E;
       73     5654        %INCLUDE DD_ERR_C;
       74     6051        %INCLUDE CP_6;
       75     6132        %FPT_WAIT (UNITS=1, STCLASS=CONSTANT);
       76     6146        %INCLUDE DU_SCODE_C;
       77     6159        %FPT_SCREECH(FPTN=SNAP_MESSAGE,STCLASS=CONSTANT,SCODE=SC_MESSAGE);
       78     6173        %VLP_SCODE(FPTN=SC_MESSAGE, STCLASS=CONSTANT, FCG=DU, MID=X, MON=NO,
       79     6174                   CODE=%S$DUMESSAGE, SEV=SEV_SNAP, CUSR=YES, ROSEG=YES,
       80     6175                   ISEG=YES, DDSEG=YES, DBSEG=YES, ASLSEG=YES);
       81     6236        /* Entry DCLs */
       82     6237    1   DCL DDE$ERROR ENTRY;
       83     6238    1   DCL DDR$MOVE ENTRY(4) ALTRET;
       84     6239    1   DCL DDQ$WRITE ENTRY(2);
       85     6240    1   DCL DFD$CONVERT_DD ENTRY(4) ALTRET;
       86     6241    1   DCL DFQ$READ_FD ENTRY(2) ALTRET;
       87     6242    1   DCL DFQ$WRITE_FD ENTRY(1) ALTRET;
       88     6243    1   DCL DUE$ERRMSG ENTRY;
       89     6244    1   DCL DUE$GERRMSG ENTRY;
       90     6245        /**/
       91     6246    1        IF S_D.RUM OR S_D.ANLZ

   6246  2 000002   000000 470400 xsym               LDP0    S_D$
         2 000003   004755 234100                    SZN     2541,,PR0
         2 000004   000007 604000 2                  TMI     s:6248
         2 000005   004756 234100                    SZN     2542,,PR0
         2 000006   000012 605000 2                  TPL     s:6251

       92     6247    2        THEN DO;

       93     6248    2             S_D.ERROR = 34;         /* E@NOTYET */

   6248  2 000007   000042 235007                    LDA     34,DL
         2 000010   000013 755100                    STA     11,,PR0

       94     6249    2             GOTO ARET;
PL6.E3A0      #001=DFA$UNFID File=DFA$UNFID.:E05TSI                              TUE 07/29/97 14:38 Page:14

   6249  2 000011   001156 710000 2                  TRA     ARET

       95     6250    2           END;
       96     6251    1        LOWX = S_D.DO$->UNFID$CMD.ID_FROM;

   6251  2 000012   000031 471500                    LDP1    25,,PR0
         2 000013   100001 236100                    LDQ     1,,PR1
         2 000014   000033 772000                    QRL     27
         2 000015   200007 756100                    STQ     LOWX,,AUTO

       97     6252    1        HIGX = S_D.DO$->UNFID$CMD.ID_TO;

   6252  2 000016   100001 236100                    LDQ     1,,PR1
         2 000017   000022 772000                    QRL     18
         2 000020   000777 376007                    ANQ     511,DL
         2 000021   200006 756100                    STQ     HIGX,,AUTO

       98     6253    1        GD$MSG = '0'B;

   6253  2 000022   000000 473400 xsym               LDP3    S_D_L6_MESSAGE$
         2 000023   003100 060400                    CSL     bolr='003'O
         2 000024   000002 000001 xsym               BDSC    B_VECTNIL+2              by=0,bit=0,n=1
         2 000025   300000 004720                    BDSC    0,,PR3                   by=0,bit=0,n=2512

       99     6254    1        GD$MSG.UNFID.K13 = S_D.DO$->UNFID$CMD.K13;

   6254  2 000026   000031 471500                    LDP1    25,,PR0
         2 000027   100001 236100                    LDQ     1,,PR1
         2 000030   000006 772000                    QRL     6
         2 000031   300000 676100                    ERQ     0,,PR3
         2 000032   004000 376007                    ANQ     2048,DL
         2 000033   300000 656100                    ERSQ    0,,PR3

      100     6255    1        GD$MSG.UNFID.DCBNAME.L = S_D.DO$->UNFID$CMD.DCBN.L;

   6255  2 000034   000031 471500                    LDP1    25,,PR0
PL6.E3A0      #001=DFA$UNFID File=DFA$UNFID.:E05TSI                              TUE 07/29/97 14:38 Page:15
         2 000035   100002 236100                    LDQ     2,,PR1
         2 000036   000023 772000                    QRL     19
         2 000037   300001 676100                    ERQ     1,,PR3
         2 000040   177400 376007                    ANQ     65280,DL
         2 000041   300001 656100                    ERSQ    1,,PR3

      101     6256    2        DO I = 0 TO 30;

   6256  2 000042   200005 450100                    STZ     I,,AUTO

      102     6257    2            GD$MSG.UNFID.DCBNAME.NAME(I) = ASCBIN(SUBSTR(S_D.DO$->UNFID$CMD.DCBN.C,I,1
              6257                      ));

   6257  2 000043   000000 470400 xsym               LDP0    S_D$
         2 000044   000031 471500                    LDP1    25,,PR0
         2 000045   200005 235100                    LDA     I,,AUTO
         2 000046   000100 101505                    MRL     fill='000'O
         2 000047   100002 200001                    ADSC9   2,A,PR1                  cn=1,n=1
         2 000050   200032 000004                    ADSC9   TEMP2+2,,AUTO            cn=0,n=4
         2 000051   200032 236100                    LDQ     TEMP2+2,,AUTO
         2 000052   200033 756100                    STQ     TEMP2+3,,AUTO
         2 000053   000003 735000                    ALS     3
         2 000054   000000 471400 xsym               LDP1    S_D_L6_MESSAGE$
         2 000055   003105 061500                    CSR     bolr='003'O
         2 000056   200033 000044                    BDSC    TEMP2+3,,AUTO            by=0,bit=0,n=36
         2 000057   100001 610010                    BDSC    1,A,PR1                  by=3,bit=1,n=8

      103     6258    2           END;

   6258  2 000060   200005 236100                    LDQ     I,,AUTO
         2 000061   000001 036007                    ADLQ    1,DL
         2 000062   200005 756100                    STQ     I,,AUTO
         2 000063   000037 116007                    CMPQ    31,DL
         2 000064   000043 602000 2                  TNC     s:6257

      104     6259    2        DO I = LOWX TO HIGX;

PL6.E3A0      #001=DFA$UNFID File=DFA$UNFID.:E05TSI                              TUE 07/29/97 14:38 Page:16
   6259  2 000065   200007 235100                    LDA     LOWX,,AUTO
         2 000066   200005 755100                    STA     I,,AUTO
         2 000067   001146 710000 2                  TRA     s:6397+3

      105     6260    2             CALL M$WAIT (FPT_WAIT);

   6260  2 000070   000000 630400 1                  EPPR0   FPT_WAIT
         2 000071   020006 713400                    CLIMB   8198
         2 000072   400400 401760                    pmme    nvectors=2

      106     6261    2             GD$MSG.UNFID.DCB# = I;

   6261  2 000073   000000 470400 xsym               LDP0    S_D_L6_MESSAGE$
         2 000074   200005 236100                    LDQ     I,,AUTO
         2 000075   000014 736000                    QLS     12
         2 000076   000000 676100                    ERQ     0,,PR0
         2 000077   000000 376000 3                  ANQ     0
         2 000100   000000 656100                    ERSQ    0,,PR0

      107     6262    2             GD$MSG.FNC = %GD#RQSUNFID;

   6262  2 000101   000000 236100                    LDQ     0,,PR0
         2 000102   000001 376000 3                  ANQ     1
         2 000103   042000 276003                    ORQ     17408,DU
         2 000104   000000 756100                    STQ     0,,PR0

      108     6263                                                /* Write message to FD */
      109     6264    2             CALL DFQ$WRITE_FD (S_D.CURRENT_FPRG_CONTEXT$) ALTRET(ERR);

   6264  2 000105   000000 236000 xsym               LDQ     S_D$
         2 000106   000102 036003                    ADLQ    66,DU
         2 000107   200032 756100                    STQ     TEMP2+2,,AUTO
         2 000110   200032 630500                    EPPR0   TEMP2+2,,AUTO
         2 000111   000017 631400 xsym               EPPR1   B_VECTNIL+15
         2 000112   000000 701000 xent               TSX1    DFQ$WRITE_FD
         2 000113   001152 702000 2                  TSX2    ERR

PL6.E3A0      #001=DFA$UNFID File=DFA$UNFID.:E05TSI                              TUE 07/29/97 14:38 Page:17
      110     6265                                                /* Read response from FD */
      111     6266    2             CALL DFQ$READ_FD (S_D.CURRENT_FPRG_CONTEXT$, '0'B) ALTRET(ERR);

   6266  2 000114   000002 236000 3                  LDQ     2
         2 000115   200033 756100                    STQ     TEMP2+3,,AUTO
         2 000116   000000 236000 xsym               LDQ     S_D$
         2 000117   000102 036003                    ADLQ    66,DU
         2 000120   200032 756100                    STQ     TEMP2+2,,AUTO
         2 000121   200032 630500                    EPPR0   TEMP2+2,,AUTO
         2 000122   000020 631400 xsym               EPPR1   B_VECTNIL+16
         2 000123   000000 701000 xent               TSX1    DFQ$READ_FD
         2 000124   001152 702000 2                  TSX2    ERR

      112     6267    2             IF GD$MSG.FNC ~= %GD#RSPUNFID

   6267  2 000125   000000 470400 xsym               LDP0    S_D_L6_MESSAGE$
         2 000126   000000 236100                    LDQ     0,,PR0
         2 000127   776000 376003                    ANQ     -1024,DU
         2 000130   124000 116003                    CMPQ    43008,DU
         2 000131   000320 600000 2                  TZE     s:6310

      113     6268    3             THEN DO;

      114     6269    4                  DO CASE(GD$MSG.FNC);

   6269  2 000132   000000 236100                    LDQ     0,,PR0
         2 000133   000034 772000                    QRL     28
         2 000134   000053 136007                    SBLQ    43,DL
         2 000135   000002 116007                    CMPQ    2,DL
         2 000136   000140 602006 2                  TNC     s:6269+6,QL
         2 000137   000204 710000 2                  TRA     s:6279
         2 000140   000142 710000 2                  TRA     s:6271
         2 000141   000163 710000 2                  TRA     s:6275

      115     6270    4                    CASE(%GD#RSPNOSUCHDCB);

      116     6271    4                       IF GD$MSG.UNFID.K13 AND S_D.DO$->UNFID$CMD.ID_TO ~= I THEN GOTO
PL6.E3A0      #001=DFA$UNFID File=DFA$UNFID.:E05TSI                              TUE 07/29/97 14:38 Page:18
              6271                                NEXT;

   6271  2 000142   000000 236100                    LDQ     0,,PR0
         2 000143   004000 316007                    CANQ    2048,DL
         2 000144   000154 600000 2                  TZE     s:6272
         2 000145   000000 471400 xsym               LDP1    S_D$
         2 000146   100031 473500                    LDP3    25,,PR1
         2 000147   300001 236100                    LDQ     1,,PR3
         2 000150   000022 772000                    QRL     18
         2 000151   000777 376007                    ANQ     511,DL
         2 000152   200005 116100                    CMPQ    I,,AUTO
         2 000153   001136 601000 2                  TNZ     NEXT

      117     6272    4                       S_D.ERROR = 183; /* E@NODCB */

   6272  2 000154   000267 235007                    LDA     183,DL
         2 000155   000000 471400 xsym               LDP1    S_D$
         2 000156   100013 755100                    STA     11,,PR1

      118     6273    4                       CALL DDE$ERROR;

   6273  2 000157   000002 631400 xsym               EPPR1   B_VECTNIL+2
         2 000160   000000 701000 xent               TSX1    DDE$ERROR
         2 000161   000000 011000                    NOP     0
         2 000162   000317 710000 2                  TRA     s:6308

      119     6274    4                    CASE(%GD#RSPDCBEMPTY);

      120     6275    4                       IF GD$MSG.UNFID.K13 AND S_D.DO$->UNFID$CMD.ID_TO ~= I THEN GOTO
              6275                                NEXT;

   6275  2 000163   000000 236100                    LDQ     0,,PR0
         2 000164   004000 316007                    CANQ    2048,DL
         2 000165   000175 600000 2                  TZE     s:6276
         2 000166   000000 471400 xsym               LDP1    S_D$
         2 000167   100031 473500                    LDP3    25,,PR1
         2 000170   300001 236100                    LDQ     1,,PR3
PL6.E3A0      #001=DFA$UNFID File=DFA$UNFID.:E05TSI                              TUE 07/29/97 14:38 Page:19
         2 000171   000022 772000                    QRL     18
         2 000172   000777 376007                    ANQ     511,DL
         2 000173   200005 116100                    CMPQ    I,,AUTO
         2 000174   001136 601000 2                  TNZ     NEXT

      121     6276    4                       S_D.ERROR = 184; /* E@DCBNIL */

   6276  2 000175   000270 235007                    LDA     184,DL
         2 000176   000000 471400 xsym               LDP1    S_D$
         2 000177   100013 755100                    STA     11,,PR1

      122     6277    4                       CALL DDE$ERROR;

   6277  2 000200   000002 631400 xsym               EPPR1   B_VECTNIL+2
         2 000201   000000 701000 xent               TSX1    DDE$ERROR
         2 000202   000000 011000                    NOP     0
         2 000203   000317 710000 2                  TRA     s:6308

      123     6278    4                    CASE(ELSE);

      124     6279    4                       IF S_D.CURRENT_FPRG_CONTEXT$ -> FPRG$CONTEXT.XDELTA AND

   6279  2 000204   000000 471400 xsym               LDP1    S_D$
         2 000205   100102 473500                    LDP3    66,,PR1
         2 000206   300001 236100                    LDQ     1,,PR3
         2 000207   002000 316003                    CANQ    1024,DU
         2 000210   000220 600000 2                  TZE     s:6283
         2 000211   000000 236100                    LDQ     0,,PR0
         2 000212   776000 376003                    ANQ     -1024,DU
         2 000213   140000 116003                    CMPQ    49152,DU
         2 000214   000220 601000 2                  TNZ     s:6283

      125     6280    4                         GD$MSG.FNC = %GD#RSPBADMSG
      126     6281    4                       THEN S_D.ERROR = 330; /* E@BADMSG */

   6281  2 000215   000512 235007                    LDA     330,DL
         2 000216   100013 755100                    STA     11,,PR1
PL6.E3A0      #001=DFA$UNFID File=DFA$UNFID.:E05TSI                              TUE 07/29/97 14:38 Page:20
         2 000217   000317 710000 2                  TRA     s:6308

      127     6282    5                       ELSE DO;

      128     6283    5                            IF GD$MSG.FNC = %GD#RSPNAK

   6283  2 000220   000000 236100                    LDQ     0,,PR0
         2 000221   776000 376003                    ANQ     -1024,DU
         2 000222   150000 116003                    CMPQ    53248,DU
         2 000223   000273 601000 2                  TNZ     s:6298

      129     6284    6                            THEN DO;

      130     6285    6                                 IF S_D.CURRENT_FPRG_CONTEXT$ -> FPRG$CONTEXT.XDELTA

   6285  2 000224   300001 236100                    LDQ     1,,PR3
         2 000225   002000 316003                    CANQ    1024,DU
         2 000226   000262 600000 2                  TZE     s:6294

      131     6286    7                                 THEN DO;

      132     6287    7                                      TEMP1 = BITBIN(GD$MSG.ERROR_D.ERRCODE);

   6287  2 000227   000000 235100                    LDA     0,,PR0
         2 000230   000001 236100                    LDQ     1,,PR0
         2 000231   000030 773000                    LRL     24
         2 000232   000003 376000 3                  ANQ     3
         2 000233   200027 756100                    STQ     TEMP$,,AUTO

      133     6288    7                                      TEMP2B.B1 = TEMP1B.B1;

   6288  2 000234   200027 236100                    LDQ     TEMP$,,AUTO
         2 000235   000003 736000                    QLS     3
         2 000236   200030 676100                    ERQ     TEMP2,,AUTO
         2 000237   377000 376003                    ANQ     130560,DU
         2 000240   200030 656100                    ERSQ    TEMP2,,AUTO

PL6.E3A0      #001=DFA$UNFID File=DFA$UNFID.:E05TSI                              TUE 07/29/97 14:38 Page:21
      134     6289    7                                      TEMP2B.B2 = TEMP1B.B2;

   6289  2 000241   200027 236100                    LDQ     TEMP$,,AUTO
         2 000242   000002 736000                    QLS     2
         2 000243   200030 676100                    ERQ     TEMP2,,AUTO
         2 000244   000377 376003                    ANQ     255,DU
         2 000245   200030 656100                    ERSQ    TEMP2,,AUTO

      135     6290    7                                      TEMP2B.B3 = TEMP1B.B3;

   6290  2 000246   200027 236100                    LDQ     TEMP$,,AUTO
         2 000247   000001 736000                    QLS     1
         2 000250   200030 676100                    ERQ     TEMP2,,AUTO
         2 000251   377000 376007                    ANQ     130560,DL
         2 000252   200030 656100                    ERSQ    TEMP2,,AUTO

      136     6291    7                                      TEMP2B.B4 = TEMP1B.B4;

   6291  2 000253   200027 236100                    LDQ     TEMP$,,AUTO
         2 000254   200030 676100                    ERQ     TEMP2,,AUTO
         2 000255   000377 376007                    ANQ     255,DL
         2 000256   200030 656100                    ERSQ    TEMP2,,AUTO

      137     6292    7                                      S_D.JDE = TEMP2;

   6292  2 000257   200030 235100                    LDA     TEMP2,,AUTO
         2 000260   104733 755100                    STA     2523,,PR1

      138     6293    7                                    END;

   6293  2 000261   000267 710000 2                  TRA     s:6295

      139     6294    6                                 ELSE S_D.JDE = BITBIN(HOST_GD$MSG.ERROR_D.ERRCODE);

   6294  2 000262   000000 474400 xsym               LDP4    S_D_HOST_MESSAGE$
         2 000263   400000 235100                    LDA     0,,PR4
         2 000264   400001 236100                    LDQ     1,,PR4
PL6.E3A0      #001=DFA$UNFID File=DFA$UNFID.:E05TSI                              TUE 07/29/97 14:38 Page:22
         2 000265   000022 773000                    LRL     18
         2 000266   104733 756100                    STQ     2523,,PR1

      140     6295    6                                 CALL DUE$GERRMSG;

   6295  2 000267   000002 631400 xsym               EPPR1   B_VECTNIL+2
         2 000270   000000 701000 xent               TSX1    DUE$GERRMSG
         2 000271   000000 011000                    NOP     0

      141     6296    6                                 RETURN;

   6296  2 000272   000000 702200 xent               TSX2  ! X66_ARET

      142     6297    6                               END;
      143     6298    5                            REMEMBER NEVER IN S_D.SCREECH_IC;

   6298  2 000273   000302 635000 2                  EAA     NEVER
         2 000274   105250 452500                    STP2    2728,,PR1
         2 000275   105251 755100                    STA     2729,,PR1

      144     6299    5                            CALL M$SCREECH (SNAP_MESSAGE) ALTRET(NEVER);

   6299  2 000276   000006 630400 1                  EPPR0   SNAP_MESSAGE
         2 000277   400013 713400                    CLIMB   alt,+11
         2 000300   401000 401760                    pmme    nvectors=3
         2 000301   000302 702000 2                  TSX2    NEVER

      145     6300    5   NEVER:
      146     6301    5                            S_D.ERROR = 524; /* E@BADMESSAGE */

   6301  2 000302   001014 235007       NEVER        LDA     524,DL
         2 000303   000000 470400 xsym               LDP0    S_D$
         2 000304   000013 755100                    STA     11,,PR0

      147     6302    5                            CALL DDE$ERROR;

   6302  2 000305   000002 631400 xsym               EPPR1   B_VECTNIL+2
PL6.E3A0      #001=DFA$UNFID File=DFA$UNFID.:E05TSI                              TUE 07/29/97 14:38 Page:23
         2 000306   000000 701000 xent               TSX1    DDE$ERROR
         2 000307   000000 011000                    NOP     0

      148     6303    5                            S_D.ERROR = 502; /* E@DELBUG */

   6303  2 000310   000766 235007                    LDA     502,DL
         2 000311   000000 470400 xsym               LDP0    S_D$
         2 000312   000013 755100                    STA     11,,PR0

      149     6304    5                            CALL DDE$ERROR;

   6304  2 000313   000002 631400 xsym               EPPR1   B_VECTNIL+2
         2 000314   000000 701000 xent               TSX1    DDE$ERROR
         2 000315   000000 011000                    NOP     0

      150     6305    5                            RETURN;

   6305  2 000316   000000 702200 xent               TSX2  ! X66_ARET

      151     6306    5                          END;
      152     6307    4                    END;

      153     6308    3                  GOTO NEXT;

   6308  2 000317   001136 710000 2                  TRA     NEXT

      154     6309    3                END;
      155     6310    3             IF S_D.DO$->UNFID$CMD.K13 THEN DO;

   6310  2 000320   000000 471400 xsym               LDP1    S_D$
         2 000321   100031 473500                    LDP3    25,,PR1
         2 000322   300001 236100                    LDQ     1,,PR3
         2 000323   400000 316007                    CANQ    -131072,DL
         2 000324   000340 600000 2                  TZE     s:6314

      156     6311    3                  IF (NOT S_D.DO$->UNFID$CMD.OPEN) AND (GD$MSG.UNFID.OPEN) THEN GOTO
              6311                           NEXT;
PL6.E3A0      #001=DFA$UNFID File=DFA$UNFID.:E05TSI                              TUE 07/29/97 14:38 Page:24

   6311  2 000325   100000 316007                    CANQ    32768,DL
         2 000326   000332 601000 2                  TNZ     s:6312
         2 000327   000000 236100                    LDQ     0,,PR0
         2 000330   002000 316007                    CANQ    1024,DL
         2 000331   001136 601000 2                  TNZ     NEXT

      157     6312    3                  IF (NOT S_D.DO$->UNFID$CMD.CLOSED) AND (NOT GD$MSG.UNFID.OPEN) THEN
              6312                           GOTO NEXT;

   6312  2 000332   300001 236100                    LDQ     1,,PR3
         2 000333   200000 316007                    CANQ    65536,DL
         2 000334   000340 601000 2                  TNZ     s:6314
         2 000335   000000 236100                    LDQ     0,,PR0
         2 000336   002000 316007                    CANQ    1024,DL
         2 000337   001136 600000 2                  TZE     NEXT

      158     6313    3                END;

      159     6314    2             S_D.OUTPUT = 'DCB #';

   6314  2 000340   040100 100400                    MLR     fill='040'O
         2 000341   000016 000005 1                  ADSC9   SC_MESSAGE+2             cn=0,n=5
         2 000342   105335 004000                    ADSC9   2781,,PR1                cn=0,n=2048

      160     6315    2             BB$ = PINCRC(ADDR(S_D.OUTPUT), 5);

   6315  2 000343   000000 236000 xsym               LDQ     S_D$
         2 000344   000004 036000 3                  ADLQ    4
         2 000345   200011 756100                    STQ     BB$,,AUTO

      161     6316    2             DCB# = GD$MSG.UNFID.DCB#;

   6316  2 000346   000000 236100                    LDQ     0,,PR0
         2 000347   000014 772000                    QRL     12
         2 000350   000377 376007                    ANQ     255,DL
         2 000351   200003 756100                    STQ     DCB#,,AUTO
PL6.E3A0      #001=DFA$UNFID File=DFA$UNFID.:E05TSI                              TUE 07/29/97 14:38 Page:25

      162     6317    2             IF DCB# < 10

   6317  2 000352   000012 116007                    CMPQ    10,DL
         2 000353   000366 603000 2                  TRC     s:6323

      163     6318    3             THEN DO;

      164     6319    3                  CALL BINCHAR(BB$->CHAR1, DCB#);

   6319  2 000354   000000 235003                    LDA     0,DU
         2 000355   200032 757100                    STAQ    TEMP2+2,,AUTO
         2 000356   200011 473500                    LDP3    BB$,,AUTO
         2 000357   000100 301500                    BTD
         2 000360   200032 000010                    NDSC9   TEMP2+2,,AUTO            cn=0,s=lsgnf,sf=0,n=8
         2 000361   300000 030001                    NDSC9   0,,PR3                   cn=0,s=nosgn,sf=0,n=1

      165     6320    3                  BB$ = PINCRC(BB$, 2);

   6320  2 000362   200011 236100                    LDQ     BB$,,AUTO
         2 000363   400000 036007                    ADLQ    -131072,DL
         2 000364   200011 756100                    STQ     BB$,,AUTO

      166     6321    3                END;

   6321  2 000365   000377 710000 2                  TRA     s:6326

      167     6322    3             ELSE DO;

      168     6323    3                  CALL BINCHAR(BB$->CHAR2, DCB#);

   6323  2 000366   000000 235003                    LDA     0,DU
         2 000367   200032 757100                    STAQ    TEMP2+2,,AUTO
         2 000370   200011 473500                    LDP3    BB$,,AUTO
         2 000371   000100 301500                    BTD
         2 000372   200032 000010                    NDSC9   TEMP2+2,,AUTO            cn=0,s=lsgnf,sf=0,n=8
         2 000373   300000 030002                    NDSC9   0,,PR3                   cn=0,s=nosgn,sf=0,n=2
PL6.E3A0      #001=DFA$UNFID File=DFA$UNFID.:E05TSI                              TUE 07/29/97 14:38 Page:26

      169     6324    3                  BB$ = PINCRC(BB$, 3);

   6324  2 000374   200011 236100                    LDQ     BB$,,AUTO
         2 000375   600000 036007                    ADLQ    -65536,DL
         2 000376   200011 756100                    STQ     BB$,,AUTO

      170     6325    3                END;

      171     6326    2             NAME = HOST_GD$MSG.UNFID.DCBNAME.NAME;

   6326  2 000377   000000 473400 xsym               LDP3    S_D_HOST_MESSAGE$
         2 000400   000100 100500                    MLR     fill='000'O
         2 000401   300002 000037                    ADSC9   2,,PR3                   cn=0,n=31
         2 000402   200013 000037                    ADSC9   NAME,,AUTO               cn=0,n=31

      172     6327    2             BB$ -> CHAR32 = NAMEC;

   6327  2 000403   200011 474500                    LDP4    BB$,,AUTO
         2 000404   040100 100500                    MLR     fill='040'O
         2 000405   200013 000037                    ADSC9   NAME,,AUTO               cn=0,n=31
         2 000406   400000 000040                    ADSC9   0,,PR4                   cn=0,n=32

      173     6328    2             BB$ = PINCRC(BB$, GD$MSG.UNFID.DCBNAME.L);

   6328  2 000407   000001 236100                    LDQ     1,,PR0
         2 000410   000010 772000                    QRL     8
         2 000411   000377 376007                    ANQ     255,DL
         2 000412   000020 736000                    QLS     16
         2 000413   200011 036100                    ADLQ    BB$,,AUTO
         2 000414   200011 756100                    STQ     BB$,,AUTO

      174     6329    2             IF GD$MSG.UNFID.DCBNAME.L > 0

   6329  2 000415   000001 236100                    LDQ     1,,PR0
         2 000416   177400 316007                    CANQ    65280,DL
         2 000417   000427 600000 2                  TZE     s:6334
PL6.E3A0      #001=DFA$UNFID File=DFA$UNFID.:E05TSI                              TUE 07/29/97 14:38 Page:27

      175     6330    3             THEN DO;

      176     6331    3                  BB$->CHAR1 = ' ';

   6331  2 000420   200011 474500                    LDP4    BB$,,AUTO
         2 000421   040100 100400                    MLR     fill='040'O
         2 000422   000035 000001 xsym               ADSC9   B_VECTNIL+29             cn=0,n=1
         2 000423   400000 000001                    ADSC9   0,,PR4                   cn=0,n=1

      177     6332    3                  BB$ = PINCRC(BB$, 1);

   6332  2 000424   200011 236100                    LDQ     BB$,,AUTO
         2 000425   200000 036007                    ADLQ    65536,DL
         2 000426   200011 756100                    STQ     BB$,,AUTO

      178     6333    3                END;

      179     6334    2             COMMA = '0'B;

   6334  2 000427   200026 450100                    STZ     COMMA,,AUTO

      180     6335    2             IF GD$MSG.UNFID.NAME.L ~= 0

   6335  2 000430   000011 236100                    LDQ     9,,PR0
         2 000431   177400 316007                    CANQ    65280,DL
         2 000432   000473 600000 2                  TZE     s:6347

      181     6336    3             THEN DO;

      182     6337    3                  NAME = HOST_GD$MSG.UNFID.NAME.C;

   6337  2 000433   000100 100500                    MLR     fill='000'O
         2 000434   300013 000037                    ADSC9   11,,PR3                  cn=0,n=31
         2 000435   200013 000037                    ADSC9   NAME,,AUTO               cn=0,n=31

      183     6338    3                  BB$ -> CHAR32 = NAMEC;
PL6.E3A0      #001=DFA$UNFID File=DFA$UNFID.:E05TSI                              TUE 07/29/97 14:38 Page:28

   6338  2 000436   200011 474500                    LDP4    BB$,,AUTO
         2 000437   040100 100500                    MLR     fill='040'O
         2 000440   200013 000037                    ADSC9   NAME,,AUTO               cn=0,n=31
         2 000441   400000 000040                    ADSC9   0,,PR4                   cn=0,n=32

      184     6339    3                  BB$ = PINCRC(BB$,GD$MSG.UNFID.NAME.L);

   6339  2 000442   000011 236100                    LDQ     9,,PR0
         2 000443   000010 772000                    QRL     8
         2 000444   000377 376007                    ANQ     255,DL
         2 000445   000020 736000                    QLS     16
         2 000446   200011 036100                    ADLQ    BB$,,AUTO
         2 000447   200011 756100                    STQ     BB$,,AUTO

      185     6340    3                  BB$ -> CHAR1 = '.';

   6340  2 000450   200011 474500                    LDP4    BB$,,AUTO
         2 000451   040100 100400                    MLR     fill='040'O
         2 000452   000005 000001 3                  ADSC9   5                        cn=0,n=1
         2 000453   400000 000001                    ADSC9   0,,PR4                   cn=0,n=1

      186     6341    3                  BB$ = PINCRC(BB$, 1);

   6341  2 000454   200011 236100                    LDQ     BB$,,AUTO
         2 000455   200000 036007                    ADLQ    65536,DL
         2 000456   200011 756100                    STQ     BB$,,AUTO

      187     6342    3                  ACCT = HOST_GD$MSG.UNFID.ACCT;

   6342  2 000457   000100 100500                    MLR     fill='000'O
         2 000460   300022 600010                    ADSC9   18,,PR3                  cn=3,n=8
         2 000461   200023 000010                    ADSC9   ACCT,,AUTO               cn=0,n=8

      188     6343    3                  BB$ -> CHAR8 = ACCTC;

   6343  2 000462   200011 474500                    LDP4    BB$,,AUTO
PL6.E3A0      #001=DFA$UNFID File=DFA$UNFID.:E05TSI                              TUE 07/29/97 14:38 Page:29
         2 000463   040100 100500                    MLR     fill='040'O
         2 000464   200023 000010                    ADSC9   ACCT,,AUTO               cn=0,n=8
         2 000465   400000 000010                    ADSC9   0,,PR4                   cn=0,n=8

      189     6344    3                  BB$ = PINCRC(BB$, 8);

   6344  2 000466   200011 236100                    LDQ     BB$,,AUTO
         2 000467   000002 036003                    ADLQ    2,DU
         2 000470   200011 756100                    STQ     BB$,,AUTO

      190     6345    3                  COMMA = '1'B;

   6345  2 000471   400000 236003                    LDQ     -131072,DU
         2 000472   200026 756100                    STQ     COMMA,,AUTO

      191     6346    3                END;

      192     6347    2             CALL INDEX(TEMP, '  ', S_D.OUTPUT);

   6347  2 000473   000000 120500                    SCD
         2 000474   105335 004000                    ADSC9   2781,,PR1                cn=0,n=2048
         2 000475   000020 000002 1                  ADSC9   SC_MESSAGE+4             cn=0,n=2
         2 000476   200004 000100                    ARG     TEMP,,AUTO
         2 000477   000501 607000 2                  TTF     s:6348
         2 000500   200004 054100                    AOS     TEMP,,AUTO

      193     6348    2             BB$ = PINCRC(ADDR(S_D.OUTPUT), TEMP+1);

   6348  2 000501   200004 236100                    LDQ     TEMP,,AUTO
         2 000502   000020 736000                    QLS     16
         2 000503   000006 036000 3                  ADLQ    6
         2 000504   000000 036000 xsym               ADLQ    S_D$
         2 000505   200011 756100                    STQ     BB$,,AUTO

      194     6349    2             REM = 120;

   6349  2 000506   000170 235007                    LDA     120,DL
PL6.E3A0      #001=DFA$UNFID File=DFA$UNFID.:E05TSI                              TUE 07/29/97 14:38 Page:30
         2 000507   200012 755100                    STA     REM,,AUTO

      195     6350    2             IF COMMA

   6350  2 000510   200026 234100                    SZN     COMMA,,AUTO
         2 000511   000525 605000 2                  TPL     s:6352

      196     6351    2             THEN CALL DDR$MOVE(',RES=', LENGTHC(',RES='), BB$, REM);

   6351  2 000512   200012 634500                    EPPR4   REM,,AUTO
         2 000513   200035 454500                    STP4    TEMP2+5,,AUTO
         2 000514   200011 635500                    EPPR5   BB$,,AUTO
         2 000515   200034 455500                    STP5    TEMP2+4,,AUTO
         2 000516   000010 237000 3                  LDAQ    8
         2 000517   200032 757100                    STAQ    TEMP2+2,,AUTO
         2 000520   200032 630500                    EPPR0   TEMP2+2,,AUTO
         2 000521   000022 631400 xsym               EPPR1   B_VECTNIL+18
         2 000522   000000 701000 xent               TSX1    DDR$MOVE
         2 000523   000000 011000                    NOP     0
         2 000524   000537 710000 2                  TRA     s:6353

      197     6352    2             ELSE CALL DDR$MOVE(' RES=', LENGTHC(' RES='), BB$, REM);

   6352  2 000525   200012 634500                    EPPR4   REM,,AUTO
         2 000526   200035 454500                    STP4    TEMP2+5,,AUTO
         2 000527   200011 635500                    EPPR5   BB$,,AUTO
         2 000530   200034 455500                    STP5    TEMP2+4,,AUTO
         2 000531   000012 237000 3                  LDAQ    10
         2 000532   200032 757100                    STAQ    TEMP2+2,,AUTO
         2 000533   200032 630500                    EPPR0   TEMP2+2,,AUTO
         2 000534   000022 631400 xsym               EPPR1   B_VECTNIL+18
         2 000535   000000 701000 xent               TSX1    DDR$MOVE
         2 000536   000000 011000                    NOP     0

      198     6353    2             RES = HOST_GD$MSG.UNFID.RES;

   6353  2 000537   000000 470400 xsym               LDP0    S_D_HOST_MESSAGE$
PL6.E3A0      #001=DFA$UNFID File=DFA$UNFID.:E05TSI                              TUE 07/29/97 14:38 Page:31
         2 000540   000011 235100                    LDA     9,,PR0
         2 000541   000012 236100                    LDQ     10,,PR0
         2 000542   000011 773000                    LRL     9
         2 000543   000027 376000 xsym               ANQ     B_VECTNIL+23
         2 000544   200025 756100                    STQ     RES,,AUTO

      199     6354    2             CALL DDR$MOVE (RESC, 4, BB$, REM);

   6354  2 000545   200012 631500                    EPPR1   REM,,AUTO
         2 000546   200035 451500                    STP1    TEMP2+5,,AUTO
         2 000547   200011 633500                    EPPR3   BB$,,AUTO
         2 000550   200034 453500                    STP3    TEMP2+4,,AUTO
         2 000551   000007 236000 3                  LDQ     7
         2 000552   200033 756100                    STQ     TEMP2+3,,AUTO
         2 000553   200025 634500                    EPPR4   RES,,AUTO
         2 000554   200032 454500                    STP4    TEMP2+2,,AUTO
         2 000555   200032 630500                    EPPR0   TEMP2+2,,AUTO
         2 000556   000022 631400 xsym               EPPR1   B_VECTNIL+18
         2 000557   000000 701000 xent               TSX1    DDR$MOVE
         2 000560   000000 011000                    NOP     0

      200     6355    2             CALL DDR$MOVE (' ', 1, BB$, REM);

   6355  2 000561   200012 630500                    EPPR0   REM,,AUTO
         2 000562   200035 450500                    STP0    TEMP2+5,,AUTO
         2 000563   200011 631500                    EPPR1   BB$,,AUTO
         2 000564   200034 451500                    STP1    TEMP2+4,,AUTO
         2 000565   000014 237000 3                  LDAQ    12
         2 000566   200032 757100                    STAQ    TEMP2+2,,AUTO
         2 000567   200032 630500                    EPPR0   TEMP2+2,,AUTO
         2 000570   000022 631400 xsym               EPPR1   B_VECTNIL+18
         2 000571   000000 701000 xent               TSX1    DDR$MOVE
         2 000572   000000 011000                    NOP     0

      201     6356    2             IF GD$MSG.UNFID.OPEN

   6356  2 000573   000000 470400 xsym               LDP0    S_D_L6_MESSAGE$
PL6.E3A0      #001=DFA$UNFID File=DFA$UNFID.:E05TSI                              TUE 07/29/97 14:38 Page:32
         2 000574   000000 236100                    LDQ     0,,PR0
         2 000575   002000 316007                    CANQ    1024,DL
         2 000576   000612 600000 2                  TZE     s:6361

      202     6357    3             THEN DO;

      203     6358    3                  CALL DDR$MOVE('(OPEN, ', 7, BB$, REM);

   6358  2 000577   200012 631500                    EPPR1   REM,,AUTO
         2 000600   200035 451500                    STP1    TEMP2+5,,AUTO
         2 000601   200011 633500                    EPPR3   BB$,,AUTO
         2 000602   200034 453500                    STP3    TEMP2+4,,AUTO
         2 000603   000016 237000 3                  LDAQ    14
         2 000604   200032 757100                    STAQ    TEMP2+2,,AUTO
         2 000605   200032 630500                    EPPR0   TEMP2+2,,AUTO
         2 000606   000022 631400 xsym               EPPR1   B_VECTNIL+18
         2 000607   000000 701000 xent               TSX1    DDR$MOVE
         2 000610   000000 011000                    NOP     0

      204     6359    3                END;

   6359  2 000611   000655 710000 2                  TRA     s:6366

      205     6360    3             ELSE DO;

      206     6361    3                  CALL DDR$MOVE('(CLOSED, ', 9, BB$, REM);

   6361  2 000612   200012 631500                    EPPR1   REM,,AUTO
         2 000613   200035 451500                    STP1    TEMP2+5,,AUTO
         2 000614   200011 633500                    EPPR3   BB$,,AUTO
         2 000615   200034 453500                    STP3    TEMP2+4,,AUTO
         2 000616   000020 237000 3                  LDAQ    16
         2 000617   200032 757100                    STAQ    TEMP2+2,,AUTO
         2 000620   200032 630500                    EPPR0   TEMP2+2,,AUTO
         2 000621   000022 631400 xsym               EPPR1   B_VECTNIL+18
         2 000622   000000 701000 xent               TSX1    DDR$MOVE
         2 000623   000000 011000                    NOP     0
PL6.E3A0      #001=DFA$UNFID File=DFA$UNFID.:E05TSI                              TUE 07/29/97 14:38 Page:33

      207     6362    3                  IF GD$MSG.UNFID.WAS_OPEN

   6362  2 000624   000000 470400 xsym               LDP0    S_D_L6_MESSAGE$
         2 000625   000000 236100                    LDQ     0,,PR0
         2 000626   001000 316007                    CANQ    512,DL
         2 000627   000643 600000 2                  TZE     s:6364

      208     6363    3                  THEN CALL DDR$MOVE('WAS OPEN, ', SIZEC('WAS OPEN, '), BB$, REM);

   6363  2 000630   200012 631500                    EPPR1   REM,,AUTO
         2 000631   200035 451500                    STP1    TEMP2+5,,AUTO
         2 000632   200011 633500                    EPPR3   BB$,,AUTO
         2 000633   200034 453500                    STP3    TEMP2+4,,AUTO
         2 000634   000022 237000 3                  LDAQ    18
         2 000635   200032 757100                    STAQ    TEMP2+2,,AUTO
         2 000636   200032 630500                    EPPR0   TEMP2+2,,AUTO
         2 000637   000022 631400 xsym               EPPR1   B_VECTNIL+18
         2 000640   000000 701000 xent               TSX1    DDR$MOVE
         2 000641   000000 011000                    NOP     0
         2 000642   000655 710000 2                  TRA     s:6366

      209     6364    3                  ELSE CALL DDR$MOVE('NEVER OPEN, ', SIZEC('NEVER OPEN, '), BB$, REM);

   6364  2 000643   200012 631500                    EPPR1   REM,,AUTO
         2 000644   200035 451500                    STP1    TEMP2+5,,AUTO
         2 000645   200011 633500                    EPPR3   BB$,,AUTO
         2 000646   200034 453500                    STP3    TEMP2+4,,AUTO
         2 000647   000026 237000 3                  LDAQ    22
         2 000650   200032 757100                    STAQ    TEMP2+2,,AUTO
         2 000651   200032 630500                    EPPR0   TEMP2+2,,AUTO
         2 000652   000022 631400 xsym               EPPR1   B_VECTNIL+18
         2 000653   000000 701000 xent               TSX1    DDR$MOVE
         2 000654   000000 011000                    NOP     0

      210     6365    3                END;

PL6.E3A0      #001=DFA$UNFID File=DFA$UNFID.:E05TSI                              TUE 07/29/97 14:38 Page:34
      211     6366    3             DO CASE(GD$MSG.UNFID.FUN#);

   6366  2 000655   000000 470400 xsym               LDP0    S_D_L6_MESSAGE$
         2 000656   000001 236100                    LDQ     1,,PR0
         2 000657   000030 772000                    QRL     24
         2 000660   000377 376007                    ANQ     255,DL
         2 000661   000004 116007                    CMPQ    4,DL
         2 000662   000664 602006 2                  TNC     s:6366+7,QL
         2 000663   000731 710000 2                  TRA     s:6374
         2 000664   000731 710000 2                  TRA     s:6374
         2 000665   000670 710000 2                  TRA     s:6368
         2 000666   000703 710000 2                  TRA     s:6370
         2 000667   000716 710000 2                  TRA     s:6372

      212     6367    3               CASE(%UPDATE#);

      213     6368    3                  CALL DDR$MOVE('UPDATE, ', 8, BB$, REM);

   6368  2 000670   200012 631500                    EPPR1   REM,,AUTO
         2 000671   200035 451500                    STP1    TEMP2+5,,AUTO
         2 000672   200011 633500                    EPPR3   BB$,,AUTO
         2 000673   200034 453500                    STP3    TEMP2+4,,AUTO
         2 000674   000030 237000 3                  LDAQ    24
         2 000675   200032 757100                    STAQ    TEMP2+2,,AUTO
         2 000676   200032 630500                    EPPR0   TEMP2+2,,AUTO
         2 000677   000022 631400 xsym               EPPR1   B_VECTNIL+18
         2 000700   000000 701000 xent               TSX1    DDR$MOVE
         2 000701   000000 011000                    NOP     0
         2 000702   000743 710000 2                  TRA     s:6376

      214     6369    3               CASE(%IN#);

      215     6370    3                  CALL DDR$MOVE('IN, ', 4, BB$, REM);

   6370  2 000703   200012 631500                    EPPR1   REM,,AUTO
         2 000704   200035 451500                    STP1    TEMP2+5,,AUTO
         2 000705   200011 633500                    EPPR3   BB$,,AUTO
PL6.E3A0      #001=DFA$UNFID File=DFA$UNFID.:E05TSI                              TUE 07/29/97 14:38 Page:35
         2 000706   200034 453500                    STP3    TEMP2+4,,AUTO
         2 000707   000032 237000 3                  LDAQ    26
         2 000710   200032 757100                    STAQ    TEMP2+2,,AUTO
         2 000711   200032 630500                    EPPR0   TEMP2+2,,AUTO
         2 000712   000022 631400 xsym               EPPR1   B_VECTNIL+18
         2 000713   000000 701000 xent               TSX1    DDR$MOVE
         2 000714   000000 011000                    NOP     0
         2 000715   000743 710000 2                  TRA     s:6376

      216     6371    3               CASE(%CREATE#);

      217     6372    3                  CALL DDR$MOVE('CREATE, ', 8, BB$, REM);

   6372  2 000716   200012 631500                    EPPR1   REM,,AUTO
         2 000717   200035 451500                    STP1    TEMP2+5,,AUTO
         2 000720   200011 633500                    EPPR3   BB$,,AUTO
         2 000721   200034 453500                    STP3    TEMP2+4,,AUTO
         2 000722   000034 237000 3                  LDAQ    28
         2 000723   200032 757100                    STAQ    TEMP2+2,,AUTO
         2 000724   200032 630500                    EPPR0   TEMP2+2,,AUTO
         2 000725   000022 631400 xsym               EPPR1   B_VECTNIL+18
         2 000726   000000 701000 xent               TSX1    DDR$MOVE
         2 000727   000000 011000                    NOP     0
         2 000730   000743 710000 2                  TRA     s:6376

      218     6373    3               CASE(ELSE);

      219     6374    3                  CALL DDR$MOVE('?, ', 3, BB$, REM);

   6374  2 000731   200012 631500                    EPPR1   REM,,AUTO
         2 000732   200035 451500                    STP1    TEMP2+5,,AUTO
         2 000733   200011 633500                    EPPR3   BB$,,AUTO
         2 000734   200034 453500                    STP3    TEMP2+4,,AUTO
         2 000735   000036 237000 3                  LDAQ    30
         2 000736   200032 757100                    STAQ    TEMP2+2,,AUTO
         2 000737   200032 630500                    EPPR0   TEMP2+2,,AUTO
         2 000740   000022 631400 xsym               EPPR1   B_VECTNIL+18
PL6.E3A0      #001=DFA$UNFID File=DFA$UNFID.:E05TSI                              TUE 07/29/97 14:38 Page:36
         2 000741   000000 701000 xent               TSX1    DDR$MOVE
         2 000742   000000 011000                    NOP     0

      220     6375    3               END;

      221     6376    3             DO CASE(GD$MSG.UNFID.ORG#);

   6376  2 000743   000000 470400 xsym               LDP0    S_D_L6_MESSAGE$
         2 000744   000001 236100                    LDQ     1,,PR0
         2 000745   000020 772000                    QRL     16
         2 000746   000377 376007                    ANQ     255,DL
         2 000747   000010 116007                    CMPQ    8,DL
         2 000750   000752 602006 2                  TNC     s:6376+7,QL
         2 000751   001077 710000 2                  TRA     s:6392
         2 000752   001077 710000 2                  TRA     s:6392
         2 000753   000762 710000 2                  TRA     s:6378
         2 000754   000775 710000 2                  TRA     s:6380
         2 000755   001010 710000 2                  TRA     s:6382
         2 000756   001023 710000 2                  TRA     s:6384
         2 000757   001036 710000 2                  TRA     s:6386
         2 000760   001051 710000 2                  TRA     s:6388
         2 000761   001064 710000 2                  TRA     s:6390

      222     6377    3               CASE(%G_ORG_CONSEC#);

      223     6378    3                  CALL DDR$MOVE('CONSEC)', LENGTHC('CONSEC)'), BB$, REM);

   6378  2 000762   200012 631500                    EPPR1   REM,,AUTO
         2 000763   200035 451500                    STP1    TEMP2+5,,AUTO
         2 000764   200011 633500                    EPPR3   BB$,,AUTO
         2 000765   200034 453500                    STP3    TEMP2+4,,AUTO
         2 000766   000040 237000 3                  LDAQ    32
         2 000767   200032 757100                    STAQ    TEMP2+2,,AUTO
         2 000770   200032 630500                    EPPR0   TEMP2+2,,AUTO
         2 000771   000022 631400 xsym               EPPR1   B_VECTNIL+18
         2 000772   000000 701000 xent               TSX1    DDR$MOVE
         2 000773   000000 011000                    NOP     0
PL6.E3A0      #001=DFA$UNFID File=DFA$UNFID.:E05TSI                              TUE 07/29/97 14:38 Page:37
         2 000774   001111 710000 2                  TRA     s:6394

      224     6379    3               CASE(%G_ORG_FORM#);

      225     6380    3                  CALL DDR$MOVE('FORM)', LENGTHC('FORM)'), BB$, REM);

   6380  2 000775   200012 631500                    EPPR1   REM,,AUTO
         2 000776   200035 451500                    STP1    TEMP2+5,,AUTO
         2 000777   200011 633500                    EPPR3   BB$,,AUTO
         2 001000   200034 453500                    STP3    TEMP2+4,,AUTO
         2 001001   000042 237000 3                  LDAQ    34
         2 001002   200032 757100                    STAQ    TEMP2+2,,AUTO
         2 001003   200032 630500                    EPPR0   TEMP2+2,,AUTO
         2 001004   000022 631400 xsym               EPPR1   B_VECTNIL+18
         2 001005   000000 701000 xent               TSX1    DDR$MOVE
         2 001006   000000 011000                    NOP     0
         2 001007   001111 710000 2                  TRA     s:6394

      226     6381    3               CASE(%G_ORG_TERMINAL#);

      227     6382    3                  CALL DDR$MOVE('TERMINAL)', LENGTHC('TERMINAL)'), BB$, REM);

   6382  2 001010   200012 631500                    EPPR1   REM,,AUTO
         2 001011   200035 451500                    STP1    TEMP2+5,,AUTO
         2 001012   200011 633500                    EPPR3   BB$,,AUTO
         2 001013   200034 453500                    STP3    TEMP2+4,,AUTO
         2 001014   000044 237000 3                  LDAQ    36
         2 001015   200032 757100                    STAQ    TEMP2+2,,AUTO
         2 001016   200032 630500                    EPPR0   TEMP2+2,,AUTO
         2 001017   000022 631400 xsym               EPPR1   B_VECTNIL+18
         2 001020   000000 701000 xent               TSX1    DDR$MOVE
         2 001021   000000 011000                    NOP     0
         2 001022   001111 710000 2                  TRA     s:6394

      228     6383    3               CASE(%G_ORG_UR#);

      229     6384    3                  CALL DDR$MOVE('UR)', LENGTHC('UR)'), BB$, REM);
PL6.E3A0      #001=DFA$UNFID File=DFA$UNFID.:E05TSI                              TUE 07/29/97 14:38 Page:38

   6384  2 001023   200012 631500                    EPPR1   REM,,AUTO
         2 001024   200035 451500                    STP1    TEMP2+5,,AUTO
         2 001025   200011 633500                    EPPR3   BB$,,AUTO
         2 001026   200034 453500                    STP3    TEMP2+4,,AUTO
         2 001027   000046 237000 3                  LDAQ    38
         2 001030   200032 757100                    STAQ    TEMP2+2,,AUTO
         2 001031   200032 630500                    EPPR0   TEMP2+2,,AUTO
         2 001032   000022 631400 xsym               EPPR1   B_VECTNIL+18
         2 001033   000000 701000 xent               TSX1    DDR$MOVE
         2 001034   000000 011000                    NOP     0
         2 001035   001111 710000 2                  TRA     s:6394

      230     6385    3               CASE(%G_ORG_CQ#);

      231     6386    3                  CALL DDR$MOVE('CQ)', LENGTHC('CQ)'), BB$, REM);

   6386  2 001036   200012 631500                    EPPR1   REM,,AUTO
         2 001037   200035 451500                    STP1    TEMP2+5,,AUTO
         2 001040   200011 633500                    EPPR3   BB$,,AUTO
         2 001041   200034 453500                    STP3    TEMP2+4,,AUTO
         2 001042   000050 237000 3                  LDAQ    40
         2 001043   200032 757100                    STAQ    TEMP2+2,,AUTO
         2 001044   200032 630500                    EPPR0   TEMP2+2,,AUTO
         2 001045   000022 631400 xsym               EPPR1   B_VECTNIL+18
         2 001046   000000 701000 xent               TSX1    DDR$MOVE
         2 001047   000000 011000                    NOP     0
         2 001050   001111 710000 2                  TRA     s:6394

      232     6387    3               CASE(%G_ORG_SE#);

      233     6388    3                  CALL DDR$MOVE('SE)', LENGTHC('SE)'), BB$, REM);

   6388  2 001051   200012 631500                    EPPR1   REM,,AUTO
         2 001052   200035 451500                    STP1    TEMP2+5,,AUTO
         2 001053   200011 633500                    EPPR3   BB$,,AUTO
         2 001054   200034 453500                    STP3    TEMP2+4,,AUTO
PL6.E3A0      #001=DFA$UNFID File=DFA$UNFID.:E05TSI                              TUE 07/29/97 14:38 Page:39
         2 001055   000052 237000 3                  LDAQ    42
         2 001056   200032 757100                    STAQ    TEMP2+2,,AUTO
         2 001057   200032 630500                    EPPR0   TEMP2+2,,AUTO
         2 001060   000022 631400 xsym               EPPR1   B_VECTNIL+18
         2 001061   000000 701000 xent               TSX1    DDR$MOVE
         2 001062   000000 011000                    NOP     0
         2 001063   001111 710000 2                  TRA     s:6394

      234     6389    3               CASE(%G_ORG_X364#);

      235     6390    3                  CALL DDR$MOVE('X364)', LENGTHC('X364)'), BB$, REM);

   6390  2 001064   200012 631500                    EPPR1   REM,,AUTO
         2 001065   200035 451500                    STP1    TEMP2+5,,AUTO
         2 001066   200011 633500                    EPPR3   BB$,,AUTO
         2 001067   200034 453500                    STP3    TEMP2+4,,AUTO
         2 001070   000054 237000 3                  LDAQ    44
         2 001071   200032 757100                    STAQ    TEMP2+2,,AUTO
         2 001072   200032 630500                    EPPR0   TEMP2+2,,AUTO
         2 001073   000022 631400 xsym               EPPR1   B_VECTNIL+18
         2 001074   000000 701000 xent               TSX1    DDR$MOVE
         2 001075   000000 011000                    NOP     0
         2 001076   001111 710000 2                  TRA     s:6394

      236     6391    3               CASE(ELSE);

      237     6392    3                  CALL DDR$MOVE('?)', LENGTHC('?)'), BB$, REM);

   6392  2 001077   200012 631500                    EPPR1   REM,,AUTO
         2 001100   200035 451500                    STP1    TEMP2+5,,AUTO
         2 001101   200011 633500                    EPPR3   BB$,,AUTO
         2 001102   200034 453500                    STP3    TEMP2+4,,AUTO
         2 001103   000056 237000 3                  LDAQ    46
         2 001104   200032 757100                    STAQ    TEMP2+2,,AUTO
         2 001105   200032 630500                    EPPR0   TEMP2+2,,AUTO
         2 001106   000022 631400 xsym               EPPR1   B_VECTNIL+18
         2 001107   000000 701000 xent               TSX1    DDR$MOVE
PL6.E3A0      #001=DFA$UNFID File=DFA$UNFID.:E05TSI                              TUE 07/29/97 14:38 Page:40
         2 001110   000000 011000                    NOP     0

      238     6393    3               END;

      239     6394    2             CALL DDQ$WRITE(ADDR(S_D.OUTPUT), POFFC(BB$, ADDR(S_D.OUTPUT)));

   6394  2 001111   000000 236000 xsym               LDQ     S_D$
         2 001112   005335 036003                    ADLQ    2781,DU
         2 001113   000020 772000                    QRL     16
         2 001114   200032 756100                    STQ     TEMP2+2,,AUTO
         2 001115   200011 236100                    LDQ     BB$,,AUTO
         2 001116   000020 772000                    QRL     16
         2 001117   200032 136100                    SBLQ    TEMP2+2,,AUTO
         2 001120   200034 756100                    STQ     TEMP2+4,,AUTO
         2 001121   000000 236000 xsym               LDQ     S_D$
         2 001122   005335 036003                    ADLQ    2781,DU
         2 001123   200033 756100                    STQ     TEMP2+3,,AUTO
         2 001124   200034 235100                    LDA     TEMP2+4,,AUTO
         2 001125   200035 755100                    STA     TEMP2+5,,AUTO
         2 001126   200035 630500                    EPPR0   TEMP2+5,,AUTO
         2 001127   200037 450500                    STP0    TEMP2+7,,AUTO
         2 001130   200033 631500                    EPPR1   TEMP2+3,,AUTO
         2 001131   200036 451500                    STP1    TEMP2+6,,AUTO
         2 001132   200036 630500                    EPPR0   TEMP2+6,,AUTO
         2 001133   000020 631400 xsym               EPPR1   B_VECTNIL+16
         2 001134   000000 701000 xent               TSX1    DDQ$WRITE
         2 001135   000000 011000                    NOP     0

      240     6395    2   NEXT:
      241     6396    2             IF NOT S_D.DO$->UNFID$CMD.K13 THEN GOTO RET;

   6396  2 001136   000000 470400 xsym  NEXT         LDP0    S_D$
         2 001137   000031 471500                    LDP1    25,,PR0
         2 001140   100001 236100                    LDQ     1,,PR1
         2 001141   400000 316007                    CANQ    -131072,DL
         2 001142   001151 600000 2                  TZE     RET

PL6.E3A0      #001=DFA$UNFID File=DFA$UNFID.:E05TSI                              TUE 07/29/97 14:38 Page:41
      242     6397    2           END;                            /* DO DCB# */

   6397  2 001143   200005 235100                    LDA     I,,AUTO
         2 001144   000001 035007                    ADLA    1,DL
         2 001145   200005 755100                    STA     I,,AUTO
         2 001146   200006 236100                    LDQ     HIGX,,AUTO
         2 001147   200005 116100                    CMPQ    I,,AUTO
         2 001150   000070 603000 2                  TRC     s:6260

      243     6398    1   RET:
      244     6399    1        RETURN;

   6399  2 001151   000000 702200 xent  RET          TSX2  ! X66_ARET

   6393  2 001152                       ERR          null
      245     6400
      246     6401    1   ERR: ;
      247     6402    1        CALL DUE$ERRMSG;

   6402  2 001152   000002 631400 xsym               EPPR1   B_VECTNIL+2
         2 001153   000000 701000 xent               TSX1    DUE$ERRMSG
         2 001154   000000 011000                    NOP     0

      248     6403    1        RETURN;

   6403  2 001155   000000 702200 xent               TSX2  ! X66_ARET

      249     6404    1   ARET: ALTRETURN;

   6404  2 001156   000000 702200 xent  ARET         TSX2  ! X66_AALT

FPT_WAIT
 Sect OctLoc
   1     000   000001 777640   000004 006000   000000 177640   000000 006014    ................
   1     004   000000 000001   000000 000001                                    ........

SNAP_MESSAGE
PL6.E3A0      #001=DFA$UNFID File=DFA$UNFID.:E05TSI                              TUE 07/29/97 14:38 Page:42
 Sect OctLoc
   1     006   000001 777640   000014 006000   000000 177640   000000 006014    ................
   1     012   000000 177640   000000 006014                                    ........

SC_MESSAGE
 Sect OctLoc
   1     014   042530 013325   000000 101740                                    ".....A.

(unnamed)
 Sect OctLoc
   1     016   104103 102040   043040 040040   040040 040040   054122 105123    DCB #       ,RES
   1     022   075040 040040   040122 105123   075040 040040   050117 120105    =    RES=   (OPE
   1     026   116054 040040   050103 114117   123105 104054   040040 040040    N,  (CLOSED,
   1     032   127101 123040   117120 105116   054040 040040   116105 126105    WAS OPEN,   NEVE
   1     036   122040 117120   105116 054040   125120 104101   124105 054040    R OPEN, UPDATE,
   1     042   111116 054040   103122 105101   124105 054040   077054 040040    IN, CREATE, ?,
   1     046   103117 116123   105103 051040   106117 122115   051040 040040    CONSEC) FORM)
   1     052   124105 122115   111116 101114   051040 040040   125122 051040    TERMINAL)   UR)
   1     056   103121 051040   123105 051040   130063 066064   051040 040040    CQ) SE) X364)
   1     062   077051 040040                                                    ?)

(unnamed)
 Sect OctLoc
   3     000   000003 770000   001777 777777   000002 006000   037777 777777    ................
   3     004   005336 200000   056040 040040   005335 200000   000006 006000    .....   ........
   3     010   000021 006000   000007 006000   000023 006000   000007 006000    ................
   3     014   000035 006000   000003 006000   000025 006000   000011 006000    ................
   3     020   000027 006000   000013 006000   000032 006000   000014 006000    ................
   3     024   000000 000014   000000 000000   000035 006000   000024 006000    ................
   3     030   000040 006000   000012 006000   000042 006000   000006 006000    . ......."......
   3     034   000043 006000   000012 006000   000045 006000   000005 006000    .#.......%......
   3     040   000046 006000   000011 006000   000050 006000   000007 006000    .&.......(......
   3     044   000052 006000   000013 006000   000055 006000   000005 006000    .*.......-......
   3     050   000056 006000   000005 006000   000057 006000   000005 006000    ........./......
   3     054   000060 006000   000007 006000   000062 006000   000004 006000    .0.......2......
      250     6405    1   END DFA$UNFID;

PL6.E3A0      #001=DFA$UNFID File=DFA$UNFID.:E05TSI                              TUE 07/29/97 14:38 Page:43
--  Include file information  --

   DU_SCODE_C.:E05TOU  is referenced.
   CP_6.:E05TOU  cannot be made into a system file and is referenced.
   DD_ERR_C.:E05TOU  is referenced.
   G_LCP6_E.:E05TOU  is referenced.
   CP_6_SUBS.:E05TOU  is referenced.
   DD$BASED.:E05TOU  is referenced.
   GD_EQUS_E.:E05TOU  is referenced.
   GD$MSG_M.:E05TOU  is referenced.
   DD_SD_M.:E05TOU  is referenced.
   XUH_MACRO_C.:E05TOU  is referenced.
   B$JIT_C.:E05TOU  was found in the system file and is never referenced.
   CP_6_C.:E05TOU  was found in the system file and is referenced.
      No diagnostics issued in procedure DFA$UNFID.

   Procedure DFA$UNFID requires 623 words for executable code.
   Procedure DFA$UNFID requires 32 words of local(AUTO) storage.

    No errors detected in file DFA$UNFID.:E05TSI    .
PL6.E3A0      #001=DFA$UNFID File=DFA$UNFID.:E05TSI                              TUE 07/29/97 14:38 Page:44
          *** CROSS REFERENCE LISTING ***
**     DENOTES     IDENTIFIER DEFINITION
<<                 IDENTIFIER'S VALUE SET
>>                 IDENTIFIER'S VALUE USED
<>                 IDENTIFIER SET AND/OR USED
--                 IDENTIFIER REFERENCED
PL6.E3A0      #001=DFA$UNFID File=DFA$UNFID.:E05TSI                              TUE 07/29/97 14:38 Page:45
          MINI XREF LISTING

ACCT
        36**DCL        37--REDEF    6342<<ASSIGN
ACCTC
        37**DCL      6343>>ASSIGN
ARET
      6404**LABEL    6249--GOTO
BB$
        27**DCL      6315<<ASSIGN   6319>>CALLBLT  6320<<ASSIGN   6320>>ASSIGN   6323>>CALLBLT  6324<<ASSIGN
      6324>>ASSIGN   6327>>ASSIGN   6328<<ASSIGN   6328>>ASSIGN   6331>>ASSIGN   6332<<ASSIGN   6332>>ASSIGN
      6338>>ASSIGN   6339<<ASSIGN   6339>>ASSIGN   6340>>ASSIGN   6341<<ASSIGN   6341>>ASSIGN   6343>>ASSIGN
      6344<<ASSIGN   6344>>ASSIGN   6348<<ASSIGN   6351<>CALL     6352<>CALL     6354<>CALL     6355<>CALL
      6358<>CALL     6361<>CALL     6363<>CALL     6364<>CALL     6368<>CALL     6370<>CALL     6372<>CALL
      6374<>CALL     6378<>CALL     6380<>CALL     6382<>CALL     6384<>CALL     6386<>CALL     6388<>CALL
      6390<>CALL     6392<>CALL     6394>>CALL
CHAR1
        30**DCL      6319<<CALLBLT  6331<<ASSIGN   6340<<ASSIGN
CHAR2
        31**DCL      6323<<CALLBLT
CHAR32
        33**DCL      6327<<ASSIGN   6338<<ASSIGN
CHAR8
        32**DCL      6343<<ASSIGN
COMMA
        40**DCL      6334<<ASSIGN   6345<<ASSIGN   6350>>IF
DCB#
        21**DCL      6316<<ASSIGN   6317>>IF       6319>>CALLBLT  6323>>CALLBLT
DDE$ERROR
      6237**DCL-ENT  6273--CALL     6277--CALL     6302--CALL     6304--CALL
DDQ$WRITE
      6239**DCL-ENT  6394--CALL
DDR$MOVE
      6238**DCL-ENT  6351--CALL     6352--CALL     6354--CALL     6355--CALL     6358--CALL     6361--CALL
PL6.E3A0      #001=DFA$UNFID File=DFA$UNFID.:E05TSI                              TUE 07/29/97 14:38 Page:46
      6363--CALL     6364--CALL     6368--CALL     6370--CALL     6372--CALL     6374--CALL     6378--CALL
      6380--CALL     6382--CALL     6384--CALL     6386--CALL     6388--CALL     6390--CALL     6392--CALL
DFQ$READ_FD
      6241**DCL-ENT  6266--CALL
DFQ$WRITE_FD
      6242**DCL-ENT  6264--CALL
DUE$ERRMSG
      6243**DCL-ENT  6402--CALL
DUE$GERRMSG
      6244**DCL-ENT  6295--CALL
ERR
      6393**LABEL    6264--CALLALT  6266--CALLALT
FPRG$CONTEXT.XDELTA
      4789**DCL      6279>>IF       6285>>IF
FPT_WAIT
      6143**DCL      6260<>CALL
FPT_WAIT.V
      6144**DCL      6143--DCLINIT
GD$MSG
      3016**DCL      6253<<ASSIGN
GD$MSG.BRKRQS.IF$CONST.SIZE
      3067**DCL      3067--REDEF
GD$MSG.BRKRQS.IF$CONST.TEXT
      3067**DCL      3068--REDEF    3068--REDEF    3069--REDEF    3070--REDEF
GD$MSG.BRKRSP.BRK#
      3081**DCL      3081--REDEF
GD$MSG.BRKRSP.USER#
      3081**DCL      3081--REDEF
GD$MSG.ERROR_D.ERRCODE
      3022**DCL      6287>>ASSIGN
GD$MSG.FNC
      3016**DCL      6262<<ASSIGN   6267>>IF       6269>>DOCASE   6279>>IF       6283>>IF
GD$MSG.LETMEM_D.VALUE.SIZE
      3039**DCL      3039--REDEF
GD$MSG.LETMEM_D.VALUE.TEXT
      3040**DCL      3040--REDEF    3040--REDEF    3041--REDEF    3042--REDEF
PL6.E3A0      #001=DFA$UNFID File=DFA$UNFID.:E05TSI                              TUE 07/29/97 14:38 Page:47
GD$MSG.MESSAGE
      3021**DCL      3021--REDEF    3022--REDEF    3022--REDEF    3023--REDEF    3034--REDEF    3047--REDEF
      3052--REDEF    3059--REDEF    3075--REDEF    3080--REDEF    3086--REDEF    3087--REDEF    3116--REDEF
      3118--REDEF    3129--REDEF    3136--REDEF    3148--REDEF
GD$MSG.SUBFNC
      3016**DCL      3016--REDEF    3020--REDEF
GD$MSG.TSA.I
      3088**DCL      3088--REDEF
GD$MSG.TSA.S
      3090**DCL      3090--REDEF
GD$MSG.UNFID.DCB#
      3129**DCL      6261<<ASSIGN   6316>>ASSIGN
GD$MSG.UNFID.DCBNAME.L
      3134**DCL      6255<<ASSIGN   6328>>ASSIGN   6329>>IF
GD$MSG.UNFID.DCBNAME.NAME
      3134**DCL      6257<<ASSIGN
GD$MSG.UNFID.FUN#
      3133**DCL      6366>>DOCASE
GD$MSG.UNFID.K13
      3133**DCL      6254<<ASSIGN   6271>>IF       6275>>IF
GD$MSG.UNFID.NAME.L
      3135**DCL      6335>>IF       6339>>ASSIGN
GD$MSG.UNFID.OPEN
      3133**DCL      6311>>IF       6312>>IF       6356>>IF
GD$MSG.UNFID.ORG#
      3134**DCL      6376>>DOCASE
GD$MSG.UNFID.WAS_OPEN
      3133**DCL      6362>>IF
GD$MSG.USERQS.ASDT$
      3116**DCL      3116--REDEF    3117--REDEF
HIGX
        24**DCL      6252<<ASSIGN   6259>>DOINDEX
HOST_GD$MSG.BRKRQS.IF$CONST.SIZE
      3223**DCL      3223--REDEF
HOST_GD$MSG.BRKRQS.IF$CONST.TEXT
      3223**DCL      3224--REDEF    3224--REDEF    3225--REDEF    3226--REDEF
PL6.E3A0      #001=DFA$UNFID File=DFA$UNFID.:E05TSI                              TUE 07/29/97 14:38 Page:48
HOST_GD$MSG.BRKRSP.BRK#
      3237**DCL      3237--REDEF
HOST_GD$MSG.BRKRSP.USER#
      3237**DCL      3237--REDEF
HOST_GD$MSG.ERROR_D.ERRCODE
      3178**DCL      6294>>ASSIGN
HOST_GD$MSG.LETMEM_D.VALUE.SIZE
      3195**DCL      3195--REDEF
HOST_GD$MSG.LETMEM_D.VALUE.TEXT
      3196**DCL      3196--REDEF    3196--REDEF    3197--REDEF    3198--REDEF
HOST_GD$MSG.MESSAGE
      3177**DCL      3177--REDEF    3178--REDEF    3178--REDEF    3179--REDEF    3190--REDEF    3203--REDEF
      3208--REDEF    3215--REDEF    3231--REDEF    3236--REDEF    3242--REDEF    3243--REDEF    3272--REDEF
      3274--REDEF    3285--REDEF    3292--REDEF    3304--REDEF
HOST_GD$MSG.SUBFNC
      3172**DCL      3172--REDEF    3176--REDEF
HOST_GD$MSG.TSA.I
      3244**DCL      3244--REDEF
HOST_GD$MSG.TSA.S
      3246**DCL      3246--REDEF
HOST_GD$MSG.UNFID.ACCT
      3291**DCL      6342>>ASSIGN
HOST_GD$MSG.UNFID.DCBNAME.NAME
      3290**DCL      6326>>ASSIGN
HOST_GD$MSG.UNFID.NAME.C
      3291**DCL      6337>>ASSIGN
HOST_GD$MSG.UNFID.RES
      3290**DCL      6353>>ASSIGN
HOST_GD$MSG.USERQS.ASDT$
      3272**DCL      3272--REDEF    3273--REDEF
I
        23**DCL      6256<<DOINDEX  6257>>ASSIGN   6257>>ASSIGN   6259<<DOINDEX  6261>>ASSIGN   6271>>IF
      6275>>IF
LOWX
        25**DCL      6251<<ASSIGN   6259>>DOINDEX
M$SCREECH
PL6.E3A0      #001=DFA$UNFID File=DFA$UNFID.:E05TSI                              TUE 07/29/97 14:38 Page:49
      6074**DCL-ENT  6299--CALL
M$WAIT
      6118**DCL-ENT  6260--CALL
NAME
        34**DCL        35--REDEF    6326<<ASSIGN   6337<<ASSIGN
NAMEC
        35**DCL      6327>>ASSIGN   6338>>ASSIGN
NEVER
      6301**LABEL    6298--REMEMBR  6299--CALLALT
NEXT
      6396**LABEL    6271--GOTO     6275--GOTO     6308--GOTO     6311--GOTO     6312--GOTO
REM
        28**DCL      6349<<ASSIGN   6351<>CALL     6352<>CALL     6354<>CALL     6355<>CALL     6358<>CALL
      6361<>CALL     6363<>CALL     6364<>CALL     6368<>CALL     6370<>CALL     6372<>CALL     6374<>CALL
      6378<>CALL     6380<>CALL     6382<>CALL     6384<>CALL     6386<>CALL     6388<>CALL     6390<>CALL
      6392<>CALL
RES
        38**DCL        39--REDEF    6353<<ASSIGN
RESC
        39**DCL      6354<>CALL
RET
      6399**LABEL    6396--GOTO
SC_MESSAGE
      6190**DCL      6170--DCLINIT
SNAP_MESSAGE
      6170**DCL      6299<>CALL
S_D.ANLZ
      2132**DCL      6246>>IF
S_D.CURRENT_CHANNEL
      2432**DCL      2434--REDEF
S_D.CURRENT_FPRG_CONTEXT$
      1632**DCL      6264<>CALL     6266<>CALL     6279>>IF       6285>>IF
S_D.DEBUGA
      1584**DCL      1586--REDEF
S_D.DO$
      1535**DCL      6251>>ASSIGN   6252>>ASSIGN   6254>>ASSIGN   6255>>ASSIGN   6257>>ASSIGN   6271>>IF
PL6.E3A0      #001=DFA$UNFID File=DFA$UNFID.:E05TSI                              TUE 07/29/97 14:38 Page:50
      6275>>IF       6310>>IF       6311>>IF       6312>>IF       6396>>IF
S_D.EIS
      2542**DCL      2571--REDEF
S_D.ERROR
      1513**DCL      6248<<ASSIGN   6272<<ASSIGN   6276<<ASSIGN   6281<<ASSIGN   6301<<ASSIGN   6303<<ASSIGN
S_D.HOST_MESSAGE_BUF_REMOTE
      2475**DCL      2476--REDEF    2490--REDEF
S_D.JDE
      2089**DCL      2090--REDEF    6292<<ASSIGN   6294<<ASSIGN
S_D.L$.VALUE
      1642**DCL      1648--REDEF    1656--REDEF    1659--REDEF    1662--REDEF    1665--REDEF
S_D.L$.VALUE.L
      1643**DCL      1644--REDEF    1645--REDEF
S_D.L6_MESSAGE_BUF
      2496**DCL      2498--REDEF
S_D.OUTPUT
      2462**DCL      2464--REDEF    6314<<ASSIGN   6315--ASSIGN   6347>>CALLBLT  6348--ASSIGN   6394--CALL
      6394--CALL
S_D.REMOTE_MSG.FNCC
      2481**DCL      2482--REDEF
S_D.REMOTE_MSG.STXC
      2477**DCL      2478--REDEF
S_D.REMOTE_MSG.SUBFNCC
      2485**DCL      2486--REDEF
S_D.RUM
      2130**DCL      6246>>IF
S_D.SCREECH_IC
      2333**DCL      6298<<REMEMBR
S_D.SV
      1541**DCL      1562--REDEF
S_D$
      2793**DCL      1489--IMP-PTR  6246>>IF       6246>>IF       6248>>ASSIGN   6251>>ASSIGN   6252>>ASSIGN
      6254>>ASSIGN   6255>>ASSIGN   6257>>ASSIGN   6264>>CALL     6266>>CALL     6271>>IF       6272>>ASSIGN
      6275>>IF       6276>>ASSIGN   6279>>IF       6281>>ASSIGN   6285>>IF       6292>>ASSIGN   6294>>ASSIGN
      6298>>REMEMBR  6301>>ASSIGN   6303>>ASSIGN   6310>>IF       6311>>IF       6312>>IF       6314>>ASSIGN
      6315>>ASSIGN   6347>>CALLBLT  6348>>ASSIGN   6394>>CALL     6394>>CALL     6396>>IF
PL6.E3A0      #001=DFA$UNFID File=DFA$UNFID.:E05TSI                              TUE 07/29/97 14:38 Page:51
S_D_HOST_MESSAGE$
      2829**DCL      3172--IMP-PTR  6294>>ASSIGN   6326>>ASSIGN   6337>>ASSIGN   6342>>ASSIGN   6353>>ASSIGN
S_D_L6_MESSAGE$
      2830**DCL      3016--IMP-PTR  6253>>ASSIGN   6254>>ASSIGN   6255>>ASSIGN   6257>>ASSIGN   6261>>ASSIGN
      6262>>ASSIGN   6267>>IF       6269>>DOCASE   6271>>IF       6275>>IF       6279>>IF       6283>>IF
      6287>>ASSIGN   6311>>IF       6312>>IF       6316>>ASSIGN   6328>>ASSIGN   6329>>IF       6335>>IF
      6339>>ASSIGN   6356>>IF       6362>>IF       6366>>DOCASE   6376>>DOCASE
TEMP
        22**DCL      6347<<CALLBLT  6348>>ASSIGN
TEMP$
        41**DCL        42--REDEF      43--REDEF
TEMP1
        42**DCL      6287<<ASSIGN
TEMP1B.B1
        45**DCL      6288>>ASSIGN
TEMP1B.B2
        46**DCL      6289>>ASSIGN
TEMP1B.B3
        47**DCL      6290>>ASSIGN
TEMP1B.B4
        48**DCL      6291>>ASSIGN
TEMP2
        49**DCL        50--REDEF    6292>>ASSIGN
TEMP2B.B1
        52**DCL      6288<<ASSIGN
TEMP2B.B2
        54**DCL      6289<<ASSIGN
TEMP2B.B3
        56**DCL      6290<<ASSIGN
TEMP2B.B4
        58**DCL      6291<<ASSIGN
UNFID$CMD.CLOSED
      4846**DCL      6312>>IF
UNFID$CMD.DCBN.C
      4854**DCL      6257>>ASSIGN
UNFID$CMD.DCBN.L
PL6.E3A0      #001=DFA$UNFID File=DFA$UNFID.:E05TSI                              TUE 07/29/97 14:38 Page:52
      4853**DCL      6255>>ASSIGN
UNFID$CMD.ID_FROM
      4843**DCL      6251>>ASSIGN
UNFID$CMD.ID_TO
      4844**DCL      6252>>ASSIGN   6271>>IF       6275>>IF
UNFID$CMD.K13
      4845**DCL      6254>>ASSIGN   6310>>IF       6396>>IF
UNFID$CMD.OPEN
      4847**DCL      6311>>IF
PL6.E3A0      #001=DFA$UNFID File=DFA$UNFID.:E05TSI                              TUE 07/29/97 14:38 Page:53
              *** CROSS REFERENCE LISTING ***
    **     DENOTES     IDENTIFIER DEFINITION
    <<                 IDENTIFIER'S VALUE SET
    >>                 IDENTIFIER'S VALUE USED
    <>                 IDENTIFIER SET AND/OR USED
    --                 IDENTIFIER REFERENCED
PL6.E3A0      #001=DFA$UNFID File=DFA$UNFID.:E05TSI                              TUE 07/29/97 14:38 Page:54
              MINI UREF LISTING

CHAR120      29**DCL
DFA$UNFID      19**PROC
DFD$CONVERT_DD    6240**DCL-ENT
DUM1      26**DCL
M$ACCT    6077**DCL-ENT
M$ACTIVATE    6080**DCL-ENT
M$ALIB    6073**DCL-ENT
M$ASUSER    6075**DCL-ENT
M$ATTACH    6082**DCL-ENT
M$BADPP    6100**DCL-ENT
M$CGCTL    6081**DCL-ENT
M$CGINFO    6081**DCL-ENT
M$CHECK    6062**DCL-ENT
M$CHGUNIT    6120**DCL-ENT
M$CLOSE    6060**DCL-ENT
M$CLRSTK    6118**DCL-ENT
M$CMDVAR    6129**DCL-ENT
M$CONFIG    6090**DCL-ENT
M$CORRES    6065**DCL-ENT
M$CPEXIT    6074**DCL-ENT
M$CVM    6098**DCL-ENT
M$CVOL    6063**DCL-ENT
M$DCLFLD    6090**DCL-ENT
M$DEACTIVATE    6080**DCL-ENT
M$DELREC    6062**DCL-ENT
M$DEQ    6127**DCL-ENT
M$DETACH    6082**DCL-ENT
M$DEVICE    6064**DCL-ENT
M$DISPLAY    6127**DCL-ENT
M$DISPRES    6067**DCL-ENT
M$DLIB    6073**DCL-ENT
M$DRIBBLE    6090**DCL-ENT
PL6.E3A0      #001=DFA$UNFID File=DFA$UNFID.:E05TSI                              TUE 07/29/97 14:38 Page:55
M$DRTN    6118**DCL-ENT
M$DSUSER    6075**DCL-ENT
M$ENQ    6126**DCL-ENT
M$EOM    6085**DCL-ENT
M$ERASE    6091**DCL-ENT
M$ERR    6072**DCL-ENT
M$ERRMSG    6123**DCL-ENT
M$EVENT    6115**DCL-ENT
M$EXHUME    6124**DCL-ENT
M$EXIT    6072**DCL-ENT
M$EXTEND    6064**DCL-ENT
M$FDP    6096**DCL-ENT
M$FDS    6095**DCL-ENT
M$FEBOOT    6088**DCL-ENT
M$FECTL    6089**DCL-ENT
M$FEDUMP    6088**DCL-ENT
M$FID    6123**DCL-ENT
M$FINDPROC    6077**DCL-ENT
M$FSUSER    6075**DCL-ENT
M$FVP    6097**DCL-ENT
M$FWCG    6081**DCL-ENT
M$GBPL    6101**DCL-ENT
M$GDDL    6097**DCL-ENT
M$GDP    6096**DCL-ENT
M$GDS    6095**DCL-ENT
M$GETDCB    6066**DCL-ENT
M$GETMOUSE    6106**DCL-ENT
M$GETPM    6107**DCL-ENT
M$GJOB    6125**DCL-ENT
M$GLINEATTR    6085**DCL-ENT
M$GOODPP    6100**DCL-ENT
M$GPLATEN    6093**DCL-ENT
M$GPROMPT    6092**DCL-ENT
M$GTRMATTR    6086**DCL-ENT
M$GTRMCTL    6084**DCL-ENT
M$GTRMTAB    6087**DCL-ENT
PL6.E3A0      #001=DFA$UNFID File=DFA$UNFID.:E05TSI                              TUE 07/29/97 14:38 Page:56
M$GVP    6096**DCL-ENT
M$HELP    6123**DCL-ENT
M$INT    6115**DCL-ENT
M$INTRTN    6076**DCL-ENT
M$IOQ    6111**DCL-ENT
M$JOBSTATS    6125**DCL-ENT
M$KEYIN    6065**DCL-ENT
M$LDEV    6060**DCL-ENT
M$LDTRC    6073**DCL-ENT
M$LIMIT    6066**DCL-ENT
M$LINES    6065**DCL-ENT
M$LINK    6072**DCL-ENT
M$MADMUCK    6068**DCL-ENT
M$MAKUSER    6099**DCL-ENT
M$MBS    6067**DCL-ENT
M$MDFFLD    6091**DCL-ENT
M$MERC    6116**DCL-ENT
M$MERCS    6117**DCL-ENT
M$MIRROR    6111**DCL-ENT
M$MONINFO    6128**DCL-ENT
M$MPL    6101**DCL-ENT
M$NODEINFO    6092**DCL-ENT
M$NXTUSR    6126**DCL-ENT
M$OCMSG    6124**DCL-ENT
M$OLAY    6072**DCL-ENT
M$OPEN    6060**DCL-ENT
M$PAS    6101**DCL-ENT
M$PATHCON    6124**DCL-ENT
M$PDS    6095**DCL-ENT
M$PFIL    6062**DCL-ENT
M$PLATEN    6086**DCL-ENT
M$PRECORD    6064**DCL-ENT
M$PROCNAME    6077**DCL-ENT
M$PROFILE    6088**DCL-ENT
M$PROMPT    6084**DCL-ENT
M$RACST    6068**DCL-ENT
PL6.E3A0      #001=DFA$UNFID File=DFA$UNFID.:E05TSI                              TUE 07/29/97 14:38 Page:57
M$RDSYSLOG    6109**DCL-ENT
M$READ    6061**DCL-ENT
M$RELDCB    6066**DCL-ENT
M$RELRES    6067**DCL-ENT
M$RELSTARF    6069**DCL-ENT
M$REM    6069**DCL-ENT
M$RENV    6116**DCL-ENT
M$REQUIRE    6068**DCL-ENT
M$RETRY    6117**DCL-ENT
M$RETRYS    6117**DCL-ENT
M$REW    6063**DCL-ENT
M$RLSFLD    6091**DCL-ENT
M$RPRIV    6119**DCL-ENT
M$RSPP    6098**DCL-ENT
M$RSWITCH    6120**DCL-ENT
M$RUE    6126**DCL-ENT
M$SAD    6099**DCL-ENT
M$SAVE    6075**DCL-ENT
M$SCON    6076**DCL-ENT
M$SENV    6116**DCL-ENT
M$SETFMA    6060**DCL-ENT
M$SETFP    6089**DCL-ENT
M$SINPUT    6087**DCL-ENT
M$SLCFLD    6092**DCL-ENT
M$SMOUSE    6106**DCL-ENT
M$SMPRT    6098**DCL-ENT
M$SPRIV    6119**DCL-ENT
M$SSC    6099**DCL-ENT
M$SSWITCH    6119**DCL-ENT
M$STATE    6128**DCL-ENT
M$STD    6100**DCL-ENT
M$STIMER    6114**DCL-ENT
M$STLPP    6097**DCL-ENT
M$STRAP    6114**DCL-ENT
M$STRMATTR    6086**DCL-ENT
M$STRMCTL    6084**DCL-ENT
PL6.E3A0      #001=DFA$UNFID File=DFA$UNFID.:E05TSI                              TUE 07/29/97 14:38 Page:58
M$STRMTAB    6087**DCL-ENT
M$SYMBIO    6125**DCL-ENT
M$SYSCON    6111**DCL-ENT
M$SYSID    6129**DCL-ENT
M$TDCLOSE    6110**DCL-ENT
M$TDIO    6110**DCL-ENT
M$TDOPEN    6109**DCL-ENT
M$TDREQCPU    6110**DCL-ENT
M$TEMPWROC    6104**DCL-ENT
M$TIME    6127**DCL-ENT
M$TRAP    6114**DCL-ENT
M$TRMISC    6089**DCL-ENT
M$TRMPRG    6085**DCL-ENT
M$TRTN    6118**DCL-ENT
M$TRUNC    6061**DCL-ENT
M$TTIMER    6114**DCL-ENT
M$UC    6084**DCL
M$UMPL    6101**DCL-ENT
M$UNFID    6123**DCL-ENT
M$UNLATCH    6080**DCL-ENT
M$UNSHARE    6077**DCL-ENT
M$USRFIELD    6120**DCL-ENT
M$VIRTUAL    6095**DCL-ENT
M$WEOF    6063**DCL-ENT
M$WRITE    6061**DCL-ENT
M$WRSYSLOG    6109**DCL-ENT
M$XCON    6115**DCL-ENT
M$XCONRTN    6076**DCL-ENT
M$XEQTIME    6128**DCL-ENT
M$XFLUSH    6069**DCL-ENT
M$XMOUSE    6106**DCL-ENT
M$XXX    6072**DCL-ENT
M$YC    6074**DCL-ENT
S_D_ACCESS$    2808**DCL
S_D_ANLZ$    2810**DCL
S_D_ASTACKOFF$    2809**DCL
PL6.E3A0      #001=DFA$UNFID File=DFA$UNFID.:E05TSI                              TUE 07/29/97 14:38 Page:59
S_D_BREAK$    2811**DCL
S_D_DO_SCAN$    2812**DCL
S_D_ERROR$    2813**DCL
S_D_FAULTCMD$$    2814**DCL
S_D_FAULTINS$$    2815**DCL
S_D_GOIC$    2816**DCL
S_D_GO_MODE$    2817**DCL
S_D_HW_PTB_UNITS$    2833**DCL
S_D_HW_RES_MEM$    2831**DCL
S_D_HW_WSQ0PT$    2832**DCL
S_D_IPRFLT$    2819**DCL
S_D_IXFIX$    2818**DCL
S_D_REM_ACCESS$    2820**DCL
S_D_REM_DISKBOOT$    2822**DCL
S_D_REM_DO_SCAN$    2821**DCL
S_D_RETURNN$    2823**DCL
S_D_SAD$    2824**DCL
S_D_SAVEIC$    2825**DCL
S_D_SEG$    2807**DCL
S_D_TCB$$    2826**DCL
S_D_UREG$$    2827**DCL
S_D_USS$$    2828**DCL
