VERSION E05

PL6.E3A0      #001=DFA$USE File=DFA$USE.:E05TSI                                  TUE 07/29/97 14:38 Page:1
        1        1        /*M* DFA$USE - USE for L6 XDELTA.  */
        2        2        /*T***********************************************************/
        3        3        /*T*                                                         */
        4        4        /*T* Copyright (c) Bull HN Information Systems Inc., 1997    */
        5        5        /*T*                                                         */
        6        6        /*T***********************************************************/
        7        7        /*X* DMR,PLM=5,IND=5,CSU=3,EXM=0,ECU=3,MOC,DCI=5,CRT=5 */
        8        8        /**/
        9        9        /*P* NAME:  DFA$USE
       10       10             PURPOSE:
       11       11                    Do USE for L6 XDELTA */
       12       12        /*D* NAME:  DFA$USE
       13       13             PURPOSE:
       14       14                    Do USE for L6 XDELTA
       15       15             CALL:  DFA$USE
       16       16             INPUT: S_D.CURRENT_FPRG_CONTEXT$ points to the context for L6
       17       17                    XDELTA
       18       18             DESCRIPTION:
       19       19                    Builds a USE message in S_D.L6_MESSAGE_BUF and calls
       20       20                    DFQ$WRITE_FD to write the message to FD.              */
       21       21        /**/
       22       22        DFA$USE: PROC;
       23       23        /* Local Auto */
       24       24    1   DCL SUBFNC UBIN;
       25       25    1   DCL TEMP$ PTR;
       26       26    1   DCL TEMP1 REDEF TEMP$ UBIN(36) ALIGNED;
       27       27    1   DCL 1 TEMP1B REDEF TEMP$ ALIGNED,
       28       28    1         2 * UBIN(4) UNAL,
       29       29    1         2 B1 UBIN(8) UNAL,
       30       30    1         2 B2 UBIN(8) UNAL,
       31       31    1         2 B3 UBIN(8) UNAL,
       32       32    1         2 B4 UBIN(8) UNAL;
       33       33    1   DCL TEMP2 UBIN(36) ALIGNED;
       34       34    1   DCL 1 TEMP2B REDEF TEMP2 ALIGNED,
       35       35    1         2 * BIT(1) UNAL,
       36       36    1         2 B1 UBIN(8) UNAL,
       37       37    1         2 * BIT(1) UNAL,
PL6.E3A0      #001=DFA$USE File=DFA$USE.:E05TSI                                  TUE 07/29/97 14:38 Page:2
       38       38    1         2 B2 UBIN(8) UNAL,
       39       39    1         2 * BIT(1) UNAL,
       40       40    1         2 B3 UBIN(8) UNAL,
       41       41    1         2 * BIT(1) UNAL,
       42       42    1         2 B4 UBIN(8) UNAL;
       43       43        /* Includes and based structures */
       44       44        %INCLUDE XUH_MACRO_C;
       45      128        %INCLUDE DD_SD_M;
       46     1464        %S_D;
       47     2782        %S_D_PTRS;
       48     2819        %INCLUDE DD_SUBS_C;
       49     3090        %INCLUDE DD_ERR_C;
       50     3487        %INCLUDE GD$MSG_M;
       51     3651        %GD$MSG(FPTN=GD$MSG,STCLASS="BASED(S_D_L6_MESSAGE$)",L6=YES,L6PTR="UBIN(32) UNAL");
       52     3807        %GD$MSG(FPTN=GD$MSG_HOST,STCLASS="BASED(S_D_HOST_MESSAGE$)",L6=NO);
       53     3963        %INCLUDE DD$BASED;
       54     5266        %FPRG$CONTEXT;
       55     5329        %USE$CMD;
       56     5352        %INCLUDE GD_EQUS_E;
       57     5513        %INCLUDE CP_6;
       58     5594        %INCLUDE DU_SCODE_C;
       59     5607        %FPT_SCREECH(FPTN=SNAP_MESSAGE,STCLASS=SYMREF READONLY);
       60     5621        %VLP_SCODE(FPTN=SC_MESSAGE, STCLASS=SYMREF READONLY);
       61     5682        /* Entry DCLs */
       62     5683    1   DCL DDA$RESET_PATCH_SPACE ENTRY;
       63     5684    1   DCL DDE$ERROR ENTRY;
       64     5685    1   DCL DFQ$READ_FD ENTRY(2) ALTRET;
       65     5686    1   DCL DFQ$WRITE_FD ENTRY(1) ALTRET;
       66     5687    1   DCL DUE$ERRMSG   ENTRY;
       67     5688    1   DCL DUE$GERRMSG   ENTRY;
       68     5689        /**/
       69     5690                                           /* Build a USE message to send to the FD */
       70     5691    1        GD$MSG = '0'B;
       71     5692    1        GD$MSG.FNC = %GD#RQSUSE;
       72     5693    1        S_D.USERNO = 0;
       73     5694    2        DO CASE(S_D.DO$ -> USE$CMD.TYPE);
       74     5695    2          CASE(USE_MON);                   /* USE_MON */
PL6.E3A0      #001=DFA$USE File=DFA$USE.:E05TSI                                  TUE 07/29/97 14:38 Page:3
       75     5696    3             DO CASE(S_D.DO$ -> USE$CMD.SUBTYPE);
       76     5697    3               CASE(USE_MON);              /* USE_MON */
       77     5698    3                  SUBFNC = %GD#USE_TYPE_MON;
       78     5699    3               CASE(USE_USER#);            /* USE_USER# */
       79     5700    3                  SUBFNC = %GD#USE_TYPE_USER#_MON;
       80     5701    3                  GD$MSG.USERQS.USERNUM.USER# = S_D.DO$ -> USE$CMD.USERNO;
       81     5702    3                  S_D.USERNO = S_D.DO$ -> USE$CMD.USERNO;
       82     5703    3                  S_D.MBU = '1'B;
       83     5704    3               END;                        /* DO CASE S_D.DO$ -> USE$CMD.SUBTYPE */
       84     5705    2          CASE(USE_REAL);                  /* USE_REAL */
       85     5706    2             SUBFNC = %GD#USE_TYPE_REAL;
       86     5707    2          CASE(USE_USER#);                 /* USE_USER# */
       87     5708    2             SUBFNC = %GD#USE_TYPE_USER#;
       88     5709    2             GD$MSG.USERQS.USERNUM.USER# = S_D.DO$ -> USE$CMD.USERNO;
       89     5710    2             S_D.USERNO = S_D.DO$ -> USE$CMD.USERNO;
       90     5711    2          CASE(USE_CURRENT);               /* USE_CURRENT */
       91     5712    2             SUBFNC = %GD#USE_TYPE_USE;
       92     5713    2          CASE(USE_ASDT);                  /* USE_ASDT */
       93     5714    2             SUBFNC = %GD#USE_TYPE_ASDT;
       94     5715    2             GD$MSG.USERQS.ASDT$ = S_D.DO$ -> USE$CMD.POSITION;
       95     5716    2          CASE(USE_LVL);                   /* USE_LVL */
       96     5717    2             SUBFNC = %GD#USE_TYPE_LVL;
       97     5718    2             GD$MSG.USERQS.IL.IL# = S_D.DO$ -> USE$CMD.LEVEL;
       98     5719    2          END;                             /* DO CASE S_D.DO$ -> USE$CMD.TYPE */
       99     5720    1        GD$MSG.SUBFNC = SUBFNC;
      100     5721    1        CALL DFQ$WRITE_FD(S_D.CURRENT_FPRG_CONTEXT$) ALTRET(ERR);
      101     5722    1        CALL DFQ$READ_FD(S_D.CURRENT_FPRG_CONTEXT$, '0'B) ALTRET(ERR);
      102     5723    1        IF GD$MSG.FNC ~= %GD#RSPACK
      103     5724    2        THEN DO;
      104     5725    3             DO CASE(GD$MSG.FNC);
      105     5726    3               CASE(%GD#RSPBADADR);
      106     5727    3                  S_D.ERROR = E@BADADDR;   /* E@BADADDR */
      107     5728    3                  CALL DDE$ERROR;
      108     5729    3               CASE(ELSE);
      109     5730    3                  IF S_D.CURRENT_FPRG_CONTEXT$ -> FPRG$CONTEXT.XDELTA AND
      110     5731    3                    GD$MSG.FNC = %GD#RSPBADMSG
      111     5732    4                  THEN DO;
PL6.E3A0      #001=DFA$USE File=DFA$USE.:E05TSI                                  TUE 07/29/97 14:38 Page:4
      112     5733    4                       S_D.ERROR = E@BADMSG; /* E@BADMSG */
      113     5734    4                       CALL DDE$ERROR;
      114     5735    4                     END;
      115     5736    3                  IF GD$MSG.FNC = %GD#RSPNAK
      116     5737    4                  THEN DO;
      117     5738    4                       IF S_D.CURRENT_FPRG_CONTEXT$ -> FPRG$CONTEXT.XDELTA
      118     5739    5                       THEN DO;
      119     5740    5                            TEMP1 = BITBIN(GD$MSG.ERROR_D.ERRCODE);
      120     5741    5                            TEMP2B.B1 = TEMP1B.B1;
      121     5742    5                            TEMP2B.B2 = TEMP1B.B2;
      122     5743    5                            TEMP2B.B3 = TEMP1B.B3;
      123     5744    5                            TEMP2B.B4 = TEMP1B.B4;
      124     5745    5                            S_D.JDE = TEMP2;
      125     5746    5                          END;
      126     5747    4                       ELSE S_D.JDE = BITBIN(GD$MSG_HOST.ERROR_D.ERRCODE);
      127     5748    4                       CALL DUE$GERRMSG;
      128     5749    4                       RETURN;
      129     5750    4                     END;
      130     5751    3                  IF GD$MSG.FNC = %GD#RSPBRK
      131     5752    3                  THEN UNWIND TO S_D.DO_MESSAGE;
      132     5753    3                  REMEMBER NEVER IN S_D.SCREECH_IC;
      133     5754    3                  CALL M$SCREECH (SNAP_MESSAGE) ALTRET(NEVER);
      134     5755    3   NEVER:
      135     5756    3                  S_D.ERROR = E@BADMESSAGE; /* E@BADMESSAGE */
      136     5757    3                  CALL DDE$ERROR;
      137     5758    3                  S_D.ERROR = E@DELBUG;    /* E@DELBUG */
      138     5759    3                  CALL DDE$ERROR;
      139     5760    3               END;
      140     5761    2           END;
      141     5762    1        S_D.MOD_L6.ADDRESS = 0;
      142     5763    1        S_D.MOD_L6.SEG = 0;
      143     5764    1        S_D.MOD_L6.DESC# = 0;
      144     5765    1        CALL DDA$RESET_PATCH_SPACE;
      145     5766    1        S_D.RUM_FEP_USE = 0;
      146     5767    1        RETURN;
      147     5768        /**/
      148     5769    1   ERR: ;
PL6.E3A0      #001=DFA$USE File=DFA$USE.:E05TSI                                  TUE 07/29/97 14:38 Page:5
      149     5770    1        CALL DUE$ERRMSG;
      150     5771    1        RETURN;
      151     5772    1   END DFA$USE;

PL6.E3A0      #001=DFA$USE File=DFA$USE.:E05TSI                                  TUE 07/29/97 14:38 Page:6
--  Include file information  --

   DU_SCODE_C.:E05TOU  is referenced.
   CP_6.:E05TOU  cannot be made into a system file and is referenced.
   GD_EQUS_E.:E05TOU  is referenced.
   DD$BASED.:E05TOU  is referenced.
   GD$MSG_M.:E05TOU  is referenced.
   DD_ERR_C.:E05TOU  is referenced.
   DD_SUBS_C.:E05TOU  is referenced.
   DD_SD_M.:E05TOU  is referenced.
   XUH_MACRO_C.:E05TOU  is referenced.
   B$JIT_C.:E05TOU  was found in the system file and is never referenced.
   CP_6_C.:E05TOU  was found in the system file and is referenced.
      No diagnostics issued in procedure DFA$USE.

   Procedure DFA$USE requires 219 words for executable code.
   Procedure DFA$USE requires 8 words of local(AUTO) storage.

    No errors detected in file DFA$USE.:E05TSI    .

PL6.E3A0      #001=DFA$USE File=DFA$USE.:E05TSI                                  TUE 07/29/97 14:38 Page:7

 Object Unit name= DFA$USE                                    File name= DFA$USE.:E05TOU
 UTS= JUL 29 '97 14:38:52.24 TUE                              Compiler= PL-6/E31         Sev=      00
 SharedLib= :SHARED_SYSTEM                                    Alt SharedLib=


    ****  Control sections  ****

 Sect   Type Bound  Init  Size OctSiz  Section name(segment info)
    0   DCB   even  none     0      0  M$UC
    1   Proc  even  none   219    333  DFA$USE
    2  RoData even  none     3      3  DFA$USE

    ****  Entry defs  ****

                              Check   Calling
                             calling  sequence
  Sect OctLoc Primary Altret sequence   type   Parms  Name
     1      0   yes            yes      Std        0  DFA$USE

  ****  Entry refs  ****

         Check        Calling
        calling       sequence
Altret sequence SRef   type   Args  Name
 yes     yes           Std       1 DFQ$WRITE_FD
 yes     yes           Std       2 DFQ$READ_FD
         yes           Std       0 DUE$GERRMSG
         yes           Std       0 DDA$RESET_PATCH_SPACE
         yes           Std       0 DUE$ERRMSG
         yes           Std       0 DDE$ERROR
                       nStd      0 X66_AUTO_0
                       Std       0 B_CONSPOOL_D
                       nStd      0 X66_ARET
                       nStd      0 X66_AUNWIND
PL6.E3A0      #001=DFA$USE File=DFA$USE.:E05TSI                                  TUE 07/29/97 14:38 Page:8

  ****  Data refs  ****

  Flags:  r = read only, s = secondary
Flgs Name                             Flgs Name                             Flgs Name
r    S_D$                             r    S_D_HOST_MESSAGE$                r    S_D_L6_MESSAGE$
     M$UC                             r    SNAP_MESSAGE                          B_VECTNIL

  ****  Segment refs  ****

  Flags:  r = read only, s = secondary
Flgs Name                             Flgs Name                             Flgs Name
     ISSID
PL6.E3A0      #001=DFA$USE File=DFA$USE.:E05TSI                                  TUE 07/29/97 14:38 Page:9


        1        1        /*M* DFA$USE - USE for L6 XDELTA.  */
        2        2        /*T***********************************************************/
        3        3        /*T*                                                         */
        4        4        /*T* Copyright (c) Bull HN Information Systems Inc., 1997    */
        5        5        /*T*                                                         */
        6        6        /*T***********************************************************/
        7        7        /*X* DMR,PLM=5,IND=5,CSU=3,EXM=0,ECU=3,MOC,DCI=5,CRT=5 */
        8        8        /**/
        9        9        /*P* NAME:  DFA$USE
       10       10             PURPOSE:
       11       11                    Do USE for L6 XDELTA */
       12       12        /*D* NAME:  DFA$USE
       13       13             PURPOSE:
       14       14                    Do USE for L6 XDELTA
       15       15             CALL:  DFA$USE
       16       16             INPUT: S_D.CURRENT_FPRG_CONTEXT$ points to the context for L6
       17       17                    XDELTA
       18       18             DESCRIPTION:
       19       19                    Builds a USE message in S_D.L6_MESSAGE_BUF and calls
       20       20                    DFQ$WRITE_FD to write the message to FD.              */
       21       21        /**/
       22       22        DFA$USE: PROC;

     22  1 000000   000000 700200 xent  DFA$USE      TSX0  ! X66_AUTO_0
         1 000001   000010 000000                    ZERO    8,0

       23       23        /* Local Auto */
       24       24    1   DCL SUBFNC UBIN;
       25       25    1   DCL TEMP$ PTR;
       26       26    1   DCL TEMP1 REDEF TEMP$ UBIN(36) ALIGNED;
       27       27    1   DCL 1 TEMP1B REDEF TEMP$ ALIGNED,
       28       28    1         2 * UBIN(4) UNAL,
       29       29    1         2 B1 UBIN(8) UNAL,
       30       30    1         2 B2 UBIN(8) UNAL,
       31       31    1         2 B3 UBIN(8) UNAL,
       32       32    1         2 B4 UBIN(8) UNAL;
PL6.E3A0      #001=DFA$USE File=DFA$USE.:E05TSI                                  TUE 07/29/97 14:38 Page:10
       33       33    1   DCL TEMP2 UBIN(36) ALIGNED;
       34       34    1   DCL 1 TEMP2B REDEF TEMP2 ALIGNED,
       35       35    1         2 * BIT(1) UNAL,
       36       36    1         2 B1 UBIN(8) UNAL,
       37       37    1         2 * BIT(1) UNAL,
       38       38    1         2 B2 UBIN(8) UNAL,
       39       39    1         2 * BIT(1) UNAL,
       40       40    1         2 B3 UBIN(8) UNAL,
       41       41    1         2 * BIT(1) UNAL,
       42       42    1         2 B4 UBIN(8) UNAL;
       43       43        /* Includes and based structures */
       44       44        %INCLUDE XUH_MACRO_C;
       45      128        %INCLUDE DD_SD_M;
       46     1464        %S_D;
       47     2782        %S_D_PTRS;
       48     2819        %INCLUDE DD_SUBS_C;
       49     3090        %INCLUDE DD_ERR_C;
       50     3487        %INCLUDE GD$MSG_M;
       51     3651        %GD$MSG(FPTN=GD$MSG,STCLASS="BASED(S_D_L6_MESSAGE$)",L6=YES,L6PTR="UBIN(32) UNAL");
       52     3807        %GD$MSG(FPTN=GD$MSG_HOST,STCLASS="BASED(S_D_HOST_MESSAGE$)",L6=NO);
       53     3963        %INCLUDE DD$BASED;
       54     5266        %FPRG$CONTEXT;
       55     5329        %USE$CMD;
       56     5352        %INCLUDE GD_EQUS_E;
       57     5513        %INCLUDE CP_6;
       58     5594        %INCLUDE DU_SCODE_C;
       59     5607        %FPT_SCREECH(FPTN=SNAP_MESSAGE,STCLASS=SYMREF READONLY);
       60     5621        %VLP_SCODE(FPTN=SC_MESSAGE, STCLASS=SYMREF READONLY);
       61     5682        /* Entry DCLs */
       62     5683    1   DCL DDA$RESET_PATCH_SPACE ENTRY;
       63     5684    1   DCL DDE$ERROR ENTRY;
       64     5685    1   DCL DFQ$READ_FD ENTRY(2) ALTRET;
       65     5686    1   DCL DFQ$WRITE_FD ENTRY(1) ALTRET;
       66     5687    1   DCL DUE$ERRMSG   ENTRY;
       67     5688    1   DCL DUE$GERRMSG   ENTRY;
       68     5689        /**/
       69     5690                                           /* Build a USE message to send to the FD */
PL6.E3A0      #001=DFA$USE File=DFA$USE.:E05TSI                                  TUE 07/29/97 14:38 Page:11
       70     5691    1        GD$MSG = '0'B;

   5691  1 000002   000000 470400 xsym               LDP0    S_D_L6_MESSAGE$
         1 000003   003100 060400                    CSL     bolr='003'O
         1 000004   000002 000001 xsym               BDSC    B_VECTNIL+2              by=0,bit=0,n=1
         1 000005   000000 004720                    BDSC    0,,PR0                   by=0,bit=0,n=2512

       71     5692    1        GD$MSG.FNC = %GD#RQSUSE;

   5692  1 000006   000000 236100                    LDQ     0,,PR0
         1 000007   000000 376000 2                  ANQ     0
         1 000010   052000 276003                    ORQ     21504,DU
         1 000011   000000 756100                    STQ     0,,PR0

       72     5693    1        S_D.USERNO = 0;

   5693  1 000012   000000 471400 xsym               LDP1    S_D$
         1 000013   105241 450100                    STZ     2721,,PR1

       73     5694    2        DO CASE(S_D.DO$ -> USE$CMD.TYPE);

   5694  1 000014   100031 473500                    LDP3    25,,PR1
         1 000015   300001 220100                    LDX0    1,,PR3
         1 000016   000014 100003                    CMPX0   12,DU
         1 000017   000021 602010 1                  TNC     s:5694+5,X0
         1 000020   000117 710000 1                  TRA     s:5720
         1 000021   000035 710000 1                  TRA     s:5696
         1 000022   000066 710000 1                  TRA     s:5706
         1 000023   000117 710000 1                  TRA     s:5720
         1 000024   000117 710000 1                  TRA     s:5720
         1 000025   000071 710000 1                  TRA     s:5708
         1 000026   000102 710000 1                  TRA     s:5712
         1 000027   000117 710000 1                  TRA     s:5720
         1 000030   000117 710000 1                  TRA     s:5720
         1 000031   000117 710000 1                  TRA     s:5720
         1 000032   000117 710000 1                  TRA     s:5720
         1 000033   000104 710000 1                  TRA     s:5714
PL6.E3A0      #001=DFA$USE File=DFA$USE.:E05TSI                                  TUE 07/29/97 14:38 Page:12
         1 000034   000112 710000 1                  TRA     s:5717

       74     5695    2          CASE(USE_MON);                   /* USE_MON */

       75     5696    3             DO CASE(S_D.DO$ -> USE$CMD.SUBTYPE);

   5696  1 000035   300001 236100                    LDQ     1,,PR3
         1 000036   000011 772000                    QRL     9
         1 000037   000777 376007                    ANQ     511,DL
         1 000040   000005 116007                    CMPQ    5,DL
         1 000041   000043 602006 1                  TNC     s:5696+6,QL
         1 000042   000117 710000 1                  TRA     s:5720
         1 000043   000050 710000 1                  TRA     s:5698
         1 000044   000065 710000 1                  TRA     s:5704
         1 000045   000065 710000 1                  TRA     s:5704
         1 000046   000065 710000 1                  TRA     s:5704
         1 000047   000053 710000 1                  TRA     s:5700

       76     5697    3               CASE(USE_MON);              /* USE_MON */

       77     5698    3                  SUBFNC = %GD#USE_TYPE_MON;

   5698  1 000050   000004 235007                    LDA     4,DL
         1 000051   200003 755100                    STA     SUBFNC,,AUTO
         1 000052   000117 710000 1                  TRA     s:5720

       78     5699    3               CASE(USE_USER#);            /* USE_USER# */

       79     5700    3                  SUBFNC = %GD#USE_TYPE_USER#_MON;

   5700  1 000053   000003 235007                    LDA     3,DL
         1 000054   200003 755100                    STA     SUBFNC,,AUTO

       80     5701    3                  GD$MSG.USERQS.USERNUM.USER# = S_D.DO$ -> USE$CMD.USERNO;

   5701  1 000055   003100 061500                    CSR     bolr='003'O
         1 000056   300002 000044                    BDSC    2,,PR3                   by=0,bit=0,n=36
PL6.E3A0      #001=DFA$USE File=DFA$USE.:E05TSI                                  TUE 07/29/97 14:38 Page:13
         1 000057   000000 650020                    BDSC    0,,PR0                   by=3,bit=5,n=16

       81     5702    3                  S_D.USERNO = S_D.DO$ -> USE$CMD.USERNO;

   5702  1 000060   100031 473500                    LDP3    25,,PR1
         1 000061   300002 235100                    LDA     2,,PR3
         1 000062   105241 755100                    STA     2721,,PR1

       82     5703    3                  S_D.MBU = '1'B;

   5703  1 000063   400000 236003                    LDQ     -131072,DU
         1 000064   105244 756100                    STQ     2724,,PR1

       83     5704    3               END;                        /* DO CASE S_D.DO$ -> USE$CMD.SUBTYPE */

   5704  1 000065   000117 710000 1                  TRA     s:5720

       84     5705    2          CASE(USE_REAL);                  /* USE_REAL */

       85     5706    2             SUBFNC = %GD#USE_TYPE_REAL;

   5706  1 000066   000001 235007                    LDA     1,DL
         1 000067   200003 755100                    STA     SUBFNC,,AUTO
         1 000070   000117 710000 1                  TRA     s:5720

       86     5707    2          CASE(USE_USER#);                 /* USE_USER# */

       87     5708    2             SUBFNC = %GD#USE_TYPE_USER#;

   5708  1 000071   000002 235007                    LDA     2,DL
         1 000072   200003 755100                    STA     SUBFNC,,AUTO

       88     5709    2             GD$MSG.USERQS.USERNUM.USER# = S_D.DO$ -> USE$CMD.USERNO;

   5709  1 000073   003100 061500                    CSR     bolr='003'O
         1 000074   300002 000044                    BDSC    2,,PR3                   by=0,bit=0,n=36
         1 000075   000000 650020                    BDSC    0,,PR0                   by=3,bit=5,n=16
PL6.E3A0      #001=DFA$USE File=DFA$USE.:E05TSI                                  TUE 07/29/97 14:38 Page:14

       89     5710    2             S_D.USERNO = S_D.DO$ -> USE$CMD.USERNO;

   5710  1 000076   100031 473500                    LDP3    25,,PR1
         1 000077   300002 235100                    LDA     2,,PR3
         1 000100   105241 755100                    STA     2721,,PR1
         1 000101   000117 710000 1                  TRA     s:5720

       90     5711    2          CASE(USE_CURRENT);               /* USE_CURRENT */

       91     5712    2             SUBFNC = %GD#USE_TYPE_USE;

   5712  1 000102   200003 450100                    STZ     SUBFNC,,AUTO
         1 000103   000117 710000 1                  TRA     s:5720

       92     5713    2          CASE(USE_ASDT);                  /* USE_ASDT */

       93     5714    2             SUBFNC = %GD#USE_TYPE_ASDT;

   5714  1 000104   000005 235007                    LDA     5,DL
         1 000105   200003 755100                    STA     SUBFNC,,AUTO

       94     5715    2             GD$MSG.USERQS.ASDT$ = S_D.DO$ -> USE$CMD.POSITION;

   5715  1 000106   003100 061500                    CSR     bolr='003'O
         1 000107   300002 000044                    BDSC    2,,PR3                   by=0,bit=0,n=36
         1 000110   000000 270040                    BDSC    0,,PR0                   by=1,bit=7,n=32
         1 000111   000117 710000 1                  TRA     s:5720

       95     5716    2          CASE(USE_LVL);                   /* USE_LVL */

       96     5717    2             SUBFNC = %GD#USE_TYPE_LVL;

   5717  1 000112   000006 235007                    LDA     6,DL
         1 000113   200003 755100                    STA     SUBFNC,,AUTO

       97     5718    2             GD$MSG.USERQS.IL.IL# = S_D.DO$ -> USE$CMD.LEVEL;
PL6.E3A0      #001=DFA$USE File=DFA$USE.:E05TSI                                  TUE 07/29/97 14:38 Page:15

   5718  1 000114   003100 061500                    CSR     bolr='003'O
         1 000115   300002 000044                    BDSC    2,,PR3                   by=0,bit=0,n=36
         1 000116   000000 650020                    BDSC    0,,PR0                   by=3,bit=5,n=16

       98     5719    2          END;                             /* DO CASE S_D.DO$ -> USE$CMD.TYPE */

       99     5720    1        GD$MSG.SUBFNC = SUBFNC;

   5720  1 000117   200003 236100                    LDQ     SUBFNC,,AUTO
         1 000120   000024 736000                    QLS     20
         1 000121   000000 676100                    ERQ     0,,PR0
         1 000122   001774 376003                    ANQ     1020,DU
         1 000123   000000 656100                    ERSQ    0,,PR0

      100     5721    1        CALL DFQ$WRITE_FD(S_D.CURRENT_FPRG_CONTEXT$) ALTRET(ERR);

   5721  1 000124   000000 236000 xsym               LDQ     S_D$
         1 000125   000102 036003                    ADLQ    66,DU
         1 000126   200006 756100                    STQ     TEMP2+1,,AUTO
         1 000127   200006 630500                    EPPR0   TEMP2+1,,AUTO
         1 000130   000017 631400 xsym               EPPR1   B_VECTNIL+15
         1 000131   000000 701000 xent               TSX1    DFQ$WRITE_FD
         1 000132   000327 702000 1                  TSX2    ERR

      101     5722    1        CALL DFQ$READ_FD(S_D.CURRENT_FPRG_CONTEXT$, '0'B) ALTRET(ERR);

   5722  1 000133   000001 236000 2                  LDQ     1
         1 000134   200007 756100                    STQ     TEMP2+2,,AUTO
         1 000135   000000 236000 xsym               LDQ     S_D$
         1 000136   000102 036003                    ADLQ    66,DU
         1 000137   200006 756100                    STQ     TEMP2+1,,AUTO
         1 000140   200006 630500                    EPPR0   TEMP2+1,,AUTO
         1 000141   000020 631400 xsym               EPPR1   B_VECTNIL+16
         1 000142   000000 701000 xent               TSX1    DFQ$READ_FD
         1 000143   000327 702000 1                  TSX2    ERR

PL6.E3A0      #001=DFA$USE File=DFA$USE.:E05TSI                                  TUE 07/29/97 14:38 Page:16
      102     5723    1        IF GD$MSG.FNC ~= %GD#RSPACK

   5723  1 000144   000000 470400 xsym               LDP0    S_D_L6_MESSAGE$
         1 000145   000000 236100                    LDQ     0,,PR0
         1 000146   776000 376003                    ANQ     -1024,DU
         1 000147   106000 116003                    CMPQ    35840,DU
         1 000150   000315 600000 1                  TZE     s:5762

      103     5724    2        THEN DO;

      104     5725    3             DO CASE(GD$MSG.FNC);

   5725  1 000151   000000 236100                    LDQ     0,,PR0
         1 000152   000034 772000                    QRL     28
         1 000153   000067 136007                    SBLQ    55,DL
         1 000154   000001 116007                    CMPQ    1,DL
         1 000155   000157 602006 1                  TNC     s:5725+6,QL
         1 000156   000167 710000 1                  TRA     s:5730
         1 000157   000160 710000 1                  TRA     s:5727

      105     5726    3               CASE(%GD#RSPBADADR);

      106     5727    3                  S_D.ERROR = E@BADADDR;   /* E@BADADDR */

   5727  1 000160   000123 235007                    LDA     83,DL
         1 000161   000000 471400 xsym               LDP1    S_D$
         1 000162   100013 755100                    STA     11,,PR1

      107     5728    3                  CALL DDE$ERROR;

   5728  1 000163   000002 631400 xsym               EPPR1   B_VECTNIL+2
         1 000164   000000 701000 xent               TSX1    DDE$ERROR
         1 000165   000000 011000                    NOP     0
         1 000166   000315 710000 1                  TRA     s:5762

      108     5729    3               CASE(ELSE);

PL6.E3A0      #001=DFA$USE File=DFA$USE.:E05TSI                                  TUE 07/29/97 14:38 Page:17
      109     5730    3                  IF S_D.CURRENT_FPRG_CONTEXT$ -> FPRG$CONTEXT.XDELTA AND

   5730  1 000167   000000 471400 xsym               LDP1    S_D$
         1 000170   100102 473500                    LDP3    66,,PR1
         1 000171   300001 236100                    LDQ     1,,PR3
         1 000172   002000 316003                    CANQ    1024,DU
         1 000173   000205 600000 1                  TZE     s:5736
         1 000174   000000 236100                    LDQ     0,,PR0
         1 000175   776000 376003                    ANQ     -1024,DU
         1 000176   140000 116003                    CMPQ    49152,DU
         1 000177   000205 601000 1                  TNZ     s:5736

      110     5731    3                    GD$MSG.FNC = %GD#RSPBADMSG
      111     5732    4                  THEN DO;

      112     5733    4                       S_D.ERROR = E@BADMSG; /* E@BADMSG */

   5733  1 000200   000512 235007                    LDA     330,DL
         1 000201   100013 755100                    STA     11,,PR1

      113     5734    4                       CALL DDE$ERROR;

   5734  1 000202   000002 631400 xsym               EPPR1   B_VECTNIL+2
         1 000203   000000 701000 xent               TSX1    DDE$ERROR
         1 000204   000000 011000                    NOP     0

      114     5735    4                     END;

      115     5736    3                  IF GD$MSG.FNC = %GD#RSPNAK

   5736  1 000205   000000 470400 xsym               LDP0    S_D_L6_MESSAGE$
         1 000206   000000 236100                    LDQ     0,,PR0
         1 000207   776000 376003                    ANQ     -1024,DU
         1 000210   150000 116003                    CMPQ    53248,DU
         1 000211   000263 601000 1                  TNZ     s:5751

      116     5737    4                  THEN DO;
PL6.E3A0      #001=DFA$USE File=DFA$USE.:E05TSI                                  TUE 07/29/97 14:38 Page:18

      117     5738    4                       IF S_D.CURRENT_FPRG_CONTEXT$ -> FPRG$CONTEXT.XDELTA

   5738  1 000212   000000 471400 xsym               LDP1    S_D$
         1 000213   100102 473500                    LDP3    66,,PR1
         1 000214   300001 236100                    LDQ     1,,PR3
         1 000215   002000 316003                    CANQ    1024,DU
         1 000216   000252 600000 1                  TZE     s:5747

      118     5739    5                       THEN DO;

      119     5740    5                            TEMP1 = BITBIN(GD$MSG.ERROR_D.ERRCODE);

   5740  1 000217   000000 235100                    LDA     0,,PR0
         1 000220   000001 236100                    LDQ     1,,PR0
         1 000221   000030 773000                    LRL     24
         1 000222   000002 376000 2                  ANQ     2
         1 000223   200004 756100                    STQ     TEMP$,,AUTO

      120     5741    5                            TEMP2B.B1 = TEMP1B.B1;

   5741  1 000224   200004 236100                    LDQ     TEMP$,,AUTO
         1 000225   000003 736000                    QLS     3
         1 000226   200005 676100                    ERQ     TEMP2,,AUTO
         1 000227   377000 376003                    ANQ     130560,DU
         1 000230   200005 656100                    ERSQ    TEMP2,,AUTO

      121     5742    5                            TEMP2B.B2 = TEMP1B.B2;

   5742  1 000231   200004 236100                    LDQ     TEMP$,,AUTO
         1 000232   000002 736000                    QLS     2
         1 000233   200005 676100                    ERQ     TEMP2,,AUTO
         1 000234   000377 376003                    ANQ     255,DU
         1 000235   200005 656100                    ERSQ    TEMP2,,AUTO

      122     5743    5                            TEMP2B.B3 = TEMP1B.B3;

PL6.E3A0      #001=DFA$USE File=DFA$USE.:E05TSI                                  TUE 07/29/97 14:38 Page:19
   5743  1 000236   200004 236100                    LDQ     TEMP$,,AUTO
         1 000237   000001 736000                    QLS     1
         1 000240   200005 676100                    ERQ     TEMP2,,AUTO
         1 000241   377000 376007                    ANQ     130560,DL
         1 000242   200005 656100                    ERSQ    TEMP2,,AUTO

      123     5744    5                            TEMP2B.B4 = TEMP1B.B4;

   5744  1 000243   200004 236100                    LDQ     TEMP$,,AUTO
         1 000244   200005 676100                    ERQ     TEMP2,,AUTO
         1 000245   000377 376007                    ANQ     255,DL
         1 000246   200005 656100                    ERSQ    TEMP2,,AUTO

      124     5745    5                            S_D.JDE = TEMP2;

   5745  1 000247   200005 235100                    LDA     TEMP2,,AUTO
         1 000250   104733 755100                    STA     2523,,PR1

      125     5746    5                          END;

   5746  1 000251   000257 710000 1                  TRA     s:5748

      126     5747    4                       ELSE S_D.JDE = BITBIN(GD$MSG_HOST.ERROR_D.ERRCODE);

   5747  1 000252   000000 474400 xsym               LDP4    S_D_HOST_MESSAGE$
         1 000253   400000 235100                    LDA     0,,PR4
         1 000254   400001 236100                    LDQ     1,,PR4
         1 000255   000022 773000                    LRL     18
         1 000256   104733 756100                    STQ     2523,,PR1

      127     5748    4                       CALL DUE$GERRMSG;

   5748  1 000257   000002 631400 xsym               EPPR1   B_VECTNIL+2
         1 000260   000000 701000 xent               TSX1    DUE$GERRMSG
         1 000261   000000 011000                    NOP     0

      128     5749    4                       RETURN;
PL6.E3A0      #001=DFA$USE File=DFA$USE.:E05TSI                                  TUE 07/29/97 14:38 Page:20

   5749  1 000262   000000 702200 xent               TSX2  ! X66_ARET

      129     5750    4                     END;
      130     5751    3                  IF GD$MSG.FNC = %GD#RSPBRK

   5751  1 000263   132000 116003                    CMPQ    46080,DU
         1 000264   000271 601000 1                  TNZ     s:5753

      131     5752    3                  THEN UNWIND TO S_D.DO_MESSAGE;

   5752  1 000265   000000 471600 xsym               LDP1  ! S_D$
         1 000266   106770 237300                    LDAQ  ! 3576,,PR1
         1 000267   000000 700200 xent               TSX0  ! X66_AUNWIND
         1 000270   000000 000200                    ZERO    0,128

      132     5753    3                  REMEMBER NEVER IN S_D.SCREECH_IC;

   5753  1 000271   000301 635000 1                  EAA     NEVER
         1 000272   000000 471400 xsym               LDP1    S_D$
         1 000273   105250 452500                    STP2    2728,,PR1
         1 000274   105251 755100                    STA     2729,,PR1

      133     5754    3                  CALL M$SCREECH (SNAP_MESSAGE) ALTRET(NEVER);

   5754  1 000275   000000 630400 xsym               EPPR0   SNAP_MESSAGE
         1 000276   400013 713400                    CLIMB   alt,+11
         1 000277   401000 401760                    pmme    nvectors=3
         1 000300   000301 702000 1                  TSX2    NEVER

      134     5755    3   NEVER:
      135     5756    3                  S_D.ERROR = E@BADMESSAGE; /* E@BADMESSAGE */

   5756  1 000301   001014 235007       NEVER        LDA     524,DL
         1 000302   000000 470400 xsym               LDP0    S_D$
         1 000303   000013 755100                    STA     11,,PR0

PL6.E3A0      #001=DFA$USE File=DFA$USE.:E05TSI                                  TUE 07/29/97 14:38 Page:21
      136     5757    3                  CALL DDE$ERROR;

   5757  1 000304   000002 631400 xsym               EPPR1   B_VECTNIL+2
         1 000305   000000 701000 xent               TSX1    DDE$ERROR
         1 000306   000000 011000                    NOP     0

      137     5758    3                  S_D.ERROR = E@DELBUG;    /* E@DELBUG */

   5758  1 000307   000766 235007                    LDA     502,DL
         1 000310   000000 470400 xsym               LDP0    S_D$
         1 000311   000013 755100                    STA     11,,PR0

      138     5759    3                  CALL DDE$ERROR;

   5759  1 000312   000002 631400 xsym               EPPR1   B_VECTNIL+2
         1 000313   000000 701000 xent               TSX1    DDE$ERROR
         1 000314   000000 011000                    NOP     0

      139     5760    3               END;

      140     5761    2           END;

      141     5762    1        S_D.MOD_L6.ADDRESS = 0;

   5762  1 000315   000000 470400 xsym               LDP0    S_D$
         1 000316   006772 450100                    STZ     3578,,PR0

      142     5763    1        S_D.MOD_L6.SEG = 0;

   5763  1 000317   006773 450100                    STZ     3579,,PR0

      143     5764    1        S_D.MOD_L6.DESC# = 0;

   5764  1 000320   006774 450100                    STZ     3580,,PR0

      144     5765    1        CALL DDA$RESET_PATCH_SPACE;

PL6.E3A0      #001=DFA$USE File=DFA$USE.:E05TSI                                  TUE 07/29/97 14:38 Page:22
   5765  1 000321   000002 631400 xsym               EPPR1   B_VECTNIL+2
         1 000322   000000 701000 xent               TSX1    DDA$RESET_PATCH_SPACE
         1 000323   000000 011000                    NOP     0

      145     5766    1        S_D.RUM_FEP_USE = 0;

   5766  1 000324   000000 470400 xsym               LDP0    S_D$
         1 000325   005275 450100                    STZ     2749,,PR0

      146     5767    1        RETURN;

   5767  1 000326   000000 702200 xent               TSX2  ! X66_ARET

   5766  1 000327                       ERR          null
      147     5768        /**/
      148     5769    1   ERR: ;
      149     5770    1        CALL DUE$ERRMSG;

   5770  1 000327   000002 631400 xsym               EPPR1   B_VECTNIL+2
         1 000330   000000 701000 xent               TSX1    DUE$ERRMSG
         1 000331   000000 011000                    NOP     0

      150     5771    1        RETURN;

   5771  1 000332   000000 702200 xent               TSX2  ! X66_ARET

(unnamed)
 Sect OctLoc
   2     000   001777 777777   000002 006000   037777 777777                    ............
      151     5772    1   END DFA$USE;

PL6.E3A0      #001=DFA$USE File=DFA$USE.:E05TSI                                  TUE 07/29/97 14:38 Page:23
--  Include file information  --

   DU_SCODE_C.:E05TOU  is referenced.
   CP_6.:E05TOU  cannot be made into a system file and is referenced.
   GD_EQUS_E.:E05TOU  is referenced.
   DD$BASED.:E05TOU  is referenced.
   GD$MSG_M.:E05TOU  is referenced.
   DD_ERR_C.:E05TOU  is referenced.
   DD_SUBS_C.:E05TOU  is referenced.
   DD_SD_M.:E05TOU  is referenced.
   XUH_MACRO_C.:E05TOU  is referenced.
   B$JIT_C.:E05TOU  was found in the system file and is never referenced.
   CP_6_C.:E05TOU  was found in the system file and is referenced.
      No diagnostics issued in procedure DFA$USE.

   Procedure DFA$USE requires 219 words for executable code.
   Procedure DFA$USE requires 8 words of local(AUTO) storage.

    No errors detected in file DFA$USE.:E05TSI    .
PL6.E3A0      #001=DFA$USE File=DFA$USE.:E05TSI                                  TUE 07/29/97 14:38 Page:24
          *** CROSS REFERENCE LISTING ***
**     DENOTES     IDENTIFIER DEFINITION
<<                 IDENTIFIER'S VALUE SET
>>                 IDENTIFIER'S VALUE USED
<>                 IDENTIFIER SET AND/OR USED
--                 IDENTIFIER REFERENCED
PL6.E3A0      #001=DFA$USE File=DFA$USE.:E05TSI                                  TUE 07/29/97 14:38 Page:25
          MINI XREF LISTING

DDA$RESET_PATCH_SPACE
      5683**DCL-ENT  5765--CALL
DDE$ERROR
      5684**DCL-ENT  5728--CALL     5734--CALL     5757--CALL     5759--CALL
DFQ$READ_FD
      5685**DCL-ENT  5722--CALL
DFQ$WRITE_FD
      5686**DCL-ENT  5721--CALL
DUE$ERRMSG
      5687**DCL-ENT  5770--CALL
DUE$GERRMSG
      5688**DCL-ENT  5748--CALL
ERR
      5766**LABEL    5721--CALLALT  5722--CALLALT
FPRG$CONTEXT.XDELTA
      5280**DCL      5730>>IF       5738>>IF
GD$MSG
      3668**DCL      5691<<ASSIGN
GD$MSG.BRKRQS.IF$CONST.SIZE
      3719**DCL      3719--REDEF
GD$MSG.BRKRQS.IF$CONST.TEXT
      3719**DCL      3720--REDEF    3720--REDEF    3721--REDEF    3722--REDEF
GD$MSG.BRKRSP.BRK#
      3733**DCL      3733--REDEF
GD$MSG.BRKRSP.USER#
      3733**DCL      3733--REDEF
GD$MSG.ERROR_D.ERRCODE
      3674**DCL      5740>>ASSIGN
GD$MSG.FNC
      3668**DCL      5692<<ASSIGN   5723>>IF       5725>>DOCASE   5730>>IF       5736>>IF       5751>>IF
GD$MSG.LETMEM_D.VALUE.SIZE
      3691**DCL      3691--REDEF
PL6.E3A0      #001=DFA$USE File=DFA$USE.:E05TSI                                  TUE 07/29/97 14:38 Page:26
GD$MSG.LETMEM_D.VALUE.TEXT
      3692**DCL      3692--REDEF    3692--REDEF    3693--REDEF    3694--REDEF
GD$MSG.MESSAGE
      3673**DCL      3673--REDEF    3674--REDEF    3674--REDEF    3675--REDEF    3686--REDEF    3699--REDEF
      3704--REDEF    3711--REDEF    3727--REDEF    3732--REDEF    3738--REDEF    3739--REDEF    3768--REDEF
      3770--REDEF    3781--REDEF    3788--REDEF    3800--REDEF
GD$MSG.SUBFNC
      3668**DCL      3668--REDEF    3672--REDEF    5720<<ASSIGN
GD$MSG.TSA.I
      3740**DCL      3740--REDEF
GD$MSG.TSA.S
      3742**DCL      3742--REDEF
GD$MSG.USERQS.ASDT$
      3768**DCL      3768--REDEF    3769--REDEF    5715<<ASSIGN
GD$MSG.USERQS.IL.IL#
      3769**DCL      5718<<ASSIGN
GD$MSG.USERQS.USERNUM.USER#
      3769**DCL      5701<<ASSIGN   5709<<ASSIGN
GD$MSG_HOST.BRKRQS.IF$CONST.SIZE
      3875**DCL      3875--REDEF
GD$MSG_HOST.BRKRQS.IF$CONST.TEXT
      3875**DCL      3876--REDEF    3876--REDEF    3877--REDEF    3878--REDEF
GD$MSG_HOST.BRKRSP.BRK#
      3889**DCL      3889--REDEF
GD$MSG_HOST.BRKRSP.USER#
      3889**DCL      3889--REDEF
GD$MSG_HOST.ERROR_D.ERRCODE
      3830**DCL      5747>>ASSIGN
GD$MSG_HOST.LETMEM_D.VALUE.SIZE
      3847**DCL      3847--REDEF
GD$MSG_HOST.LETMEM_D.VALUE.TEXT
      3848**DCL      3848--REDEF    3848--REDEF    3849--REDEF    3850--REDEF
GD$MSG_HOST.MESSAGE
      3829**DCL      3829--REDEF    3830--REDEF    3830--REDEF    3831--REDEF    3842--REDEF    3855--REDEF
      3860--REDEF    3867--REDEF    3883--REDEF    3888--REDEF    3894--REDEF    3895--REDEF    3924--REDEF
      3926--REDEF    3937--REDEF    3944--REDEF    3956--REDEF
PL6.E3A0      #001=DFA$USE File=DFA$USE.:E05TSI                                  TUE 07/29/97 14:38 Page:27
GD$MSG_HOST.SUBFNC
      3824**DCL      3824--REDEF    3828--REDEF
GD$MSG_HOST.TSA.I
      3896**DCL      3896--REDEF
GD$MSG_HOST.TSA.S
      3898**DCL      3898--REDEF
GD$MSG_HOST.USERQS.ASDT$
      3924**DCL      3924--REDEF    3925--REDEF
M$SCREECH
      5536**DCL-ENT  5754--CALL
NEVER
      5756**LABEL    5753--REMEMBR  5754--CALLALT
SNAP_MESSAGE
      5618**DCL      5754<>CALL
SUBFNC
        24**DCL      5698<<ASSIGN   5700<<ASSIGN   5706<<ASSIGN   5708<<ASSIGN   5712<<ASSIGN   5714<<ASSIGN
      5717<<ASSIGN   5720>>ASSIGN
S_D.CURRENT_CHANNEL
      2416**DCL      2418--REDEF
S_D.CURRENT_FPRG_CONTEXT$
      1616**DCL      5721<>CALL     5722<>CALL     5730>>IF       5738>>IF
S_D.DEBUGA
      1568**DCL      1570--REDEF
S_D.DO$
      1519**DCL      5694>>DOCASE   5696>>DOCASE   5701>>ASSIGN   5702>>ASSIGN   5709>>ASSIGN   5710>>ASSIGN
      5715>>ASSIGN   5718>>ASSIGN
S_D.DO_MESSAGE
      2585**DCL      5752>>UNWIND
S_D.EIS
      2526**DCL      2555--REDEF
S_D.ERROR
      1497**DCL      5727<<ASSIGN   5733<<ASSIGN   5756<<ASSIGN   5758<<ASSIGN
S_D.HOST_MESSAGE_BUF_REMOTE
      2459**DCL      2460--REDEF    2474--REDEF
S_D.JDE
      2073**DCL      2074--REDEF    5745<<ASSIGN   5747<<ASSIGN
PL6.E3A0      #001=DFA$USE File=DFA$USE.:E05TSI                                  TUE 07/29/97 14:38 Page:28
S_D.L$.VALUE
      1626**DCL      1632--REDEF    1640--REDEF    1643--REDEF    1646--REDEF    1649--REDEF
S_D.L$.VALUE.L
      1627**DCL      1628--REDEF    1629--REDEF
S_D.L6_MESSAGE_BUF
      2480**DCL      2482--REDEF
S_D.MBU
      2309**DCL      5703<<ASSIGN
S_D.MOD_L6.ADDRESS
      2589**DCL      5762<<ASSIGN
S_D.MOD_L6.DESC#
      2591**DCL      5764<<ASSIGN
S_D.MOD_L6.SEG
      2590**DCL      5763<<ASSIGN
S_D.OUTPUT
      2446**DCL      2448--REDEF
S_D.REMOTE_MSG.FNCC
      2465**DCL      2466--REDEF
S_D.REMOTE_MSG.STXC
      2461**DCL      2462--REDEF
S_D.REMOTE_MSG.SUBFNCC
      2469**DCL      2470--REDEF
S_D.RUM_FEP_USE
      2364**DCL      5766<<ASSIGN
S_D.SCREECH_IC
      2317**DCL      5753<<REMEMBR
S_D.SV
      1525**DCL      1546--REDEF
S_D.USERNO
      2305**DCL      5693<<ASSIGN   5702<<ASSIGN   5710<<ASSIGN
S_D$
      2777**DCL      1473--IMP-PTR  5693>>ASSIGN   5694>>DOCASE   5696>>DOCASE   5701>>ASSIGN   5702>>ASSIGN
      5702>>ASSIGN   5703>>ASSIGN   5709>>ASSIGN   5710>>ASSIGN   5710>>ASSIGN   5715>>ASSIGN   5718>>ASSIGN
      5721>>CALL     5722>>CALL     5727>>ASSIGN   5730>>IF       5733>>ASSIGN   5738>>IF       5745>>ASSIGN
      5747>>ASSIGN   5752>>UNWIND   5753>>REMEMBR  5756>>ASSIGN   5758>>ASSIGN   5762>>ASSIGN   5763>>ASSIGN
      5764>>ASSIGN   5766>>ASSIGN
PL6.E3A0      #001=DFA$USE File=DFA$USE.:E05TSI                                  TUE 07/29/97 14:38 Page:29
S_D_HOST_MESSAGE$
      2813**DCL      3824--IMP-PTR  5747>>ASSIGN
S_D_L6_MESSAGE$
      2814**DCL      3668--IMP-PTR  5691>>ASSIGN   5692>>ASSIGN   5701>>ASSIGN   5709>>ASSIGN   5715>>ASSIGN
      5718>>ASSIGN   5720>>ASSIGN   5723>>IF       5725>>DOCASE   5730>>IF       5736>>IF       5740>>ASSIGN
      5751>>IF
TEMP$
        25**DCL        26--REDEF      27--REDEF
TEMP1
        26**DCL      5740<<ASSIGN
TEMP1B.B1
        29**DCL      5741>>ASSIGN
TEMP1B.B2
        30**DCL      5742>>ASSIGN
TEMP1B.B3
        31**DCL      5743>>ASSIGN
TEMP1B.B4
        32**DCL      5744>>ASSIGN
TEMP2
        33**DCL        34--REDEF    5745>>ASSIGN
TEMP2B.B1
        36**DCL      5741<<ASSIGN
TEMP2B.B2
        38**DCL      5742<<ASSIGN
TEMP2B.B3
        40**DCL      5743<<ASSIGN
TEMP2B.B4
        42**DCL      5744<<ASSIGN
USE$CMD.BASE
      5340**DCL      5341--REDEF    5342--REDEF    5343--REDEF    5344--REDEF    5345--REDEF    5346--REDEF
USE$CMD.LEVEL
      5346**DCL      5718>>ASSIGN
USE$CMD.POSITION
      5345**DCL      5715>>ASSIGN
USE$CMD.SUBTYPE
      5335**DCL      5336--REDEF    5696>>DOCASE
PL6.E3A0      #001=DFA$USE File=DFA$USE.:E05TSI                                  TUE 07/29/97 14:38 Page:30
USE$CMD.TYPE
      5334**DCL      5694>>DOCASE
USE$CMD.USERNO
      5341**DCL      5701>>ASSIGN   5702>>ASSIGN   5709>>ASSIGN   5710>>ASSIGN
PL6.E3A0      #001=DFA$USE File=DFA$USE.:E05TSI                                  TUE 07/29/97 14:38 Page:31
              *** CROSS REFERENCE LISTING ***
    **     DENOTES     IDENTIFIER DEFINITION
    <<                 IDENTIFIER'S VALUE SET
    >>                 IDENTIFIER'S VALUE USED
    <>                 IDENTIFIER SET AND/OR USED
    --                 IDENTIFIER REFERENCED
PL6.E3A0      #001=DFA$USE File=DFA$USE.:E05TSI                                  TUE 07/29/97 14:38 Page:32
              MINI UREF LISTING

DFA$USE      22**PROC
M$ACCT    5539**DCL-ENT
M$ACTIVATE    5542**DCL-ENT
M$ALIB    5535**DCL-ENT
M$ASUSER    5537**DCL-ENT
M$ATTACH    5544**DCL-ENT
M$BADPP    5562**DCL-ENT
M$CGCTL    5543**DCL-ENT
M$CGINFO    5543**DCL-ENT
M$CHECK    5524**DCL-ENT
M$CHGUNIT    5582**DCL-ENT
M$CLOSE    5522**DCL-ENT
M$CLRSTK    5580**DCL-ENT
M$CMDVAR    5591**DCL-ENT
M$CONFIG    5552**DCL-ENT
M$CORRES    5527**DCL-ENT
M$CPEXIT    5536**DCL-ENT
M$CVM    5560**DCL-ENT
M$CVOL    5525**DCL-ENT
M$DCLFLD    5552**DCL-ENT
M$DEACTIVATE    5542**DCL-ENT
M$DELREC    5524**DCL-ENT
M$DEQ    5589**DCL-ENT
M$DETACH    5544**DCL-ENT
M$DEVICE    5526**DCL-ENT
M$DISPLAY    5589**DCL-ENT
M$DISPRES    5529**DCL-ENT
M$DLIB    5535**DCL-ENT
M$DRIBBLE    5552**DCL-ENT
M$DRTN    5580**DCL-ENT
M$DSUSER    5537**DCL-ENT
M$ENQ    5588**DCL-ENT
PL6.E3A0      #001=DFA$USE File=DFA$USE.:E05TSI                                  TUE 07/29/97 14:38 Page:33
M$EOM    5547**DCL-ENT
M$ERASE    5553**DCL-ENT
M$ERR    5534**DCL-ENT
M$ERRMSG    5585**DCL-ENT
M$EVENT    5577**DCL-ENT
M$EXHUME    5586**DCL-ENT
M$EXIT    5534**DCL-ENT
M$EXTEND    5526**DCL-ENT
M$FDP    5558**DCL-ENT
M$FDS    5557**DCL-ENT
M$FEBOOT    5550**DCL-ENT
M$FECTL    5551**DCL-ENT
M$FEDUMP    5550**DCL-ENT
M$FID    5585**DCL-ENT
M$FINDPROC    5539**DCL-ENT
M$FSUSER    5537**DCL-ENT
M$FVP    5559**DCL-ENT
M$FWCG    5543**DCL-ENT
M$GBPL    5563**DCL-ENT
M$GDDL    5559**DCL-ENT
M$GDP    5558**DCL-ENT
M$GDS    5557**DCL-ENT
M$GETDCB    5528**DCL-ENT
M$GETMOUSE    5568**DCL-ENT
M$GETPM    5569**DCL-ENT
M$GJOB    5587**DCL-ENT
M$GLINEATTR    5547**DCL-ENT
M$GOODPP    5562**DCL-ENT
M$GPLATEN    5555**DCL-ENT
M$GPROMPT    5554**DCL-ENT
M$GTRMATTR    5548**DCL-ENT
M$GTRMCTL    5546**DCL-ENT
M$GTRMTAB    5549**DCL-ENT
M$GVP    5558**DCL-ENT
M$HELP    5585**DCL-ENT
M$INT    5577**DCL-ENT
PL6.E3A0      #001=DFA$USE File=DFA$USE.:E05TSI                                  TUE 07/29/97 14:38 Page:34
M$INTRTN    5538**DCL-ENT
M$IOQ    5573**DCL-ENT
M$JOBSTATS    5587**DCL-ENT
M$KEYIN    5527**DCL-ENT
M$LDEV    5522**DCL-ENT
M$LDTRC    5535**DCL-ENT
M$LIMIT    5528**DCL-ENT
M$LINES    5527**DCL-ENT
M$LINK    5534**DCL-ENT
M$MADMUCK    5530**DCL-ENT
M$MAKUSER    5561**DCL-ENT
M$MBS    5529**DCL-ENT
M$MDFFLD    5553**DCL-ENT
M$MERC    5578**DCL-ENT
M$MERCS    5579**DCL-ENT
M$MIRROR    5573**DCL-ENT
M$MONINFO    5590**DCL-ENT
M$MPL    5563**DCL-ENT
M$NODEINFO    5554**DCL-ENT
M$NXTUSR    5588**DCL-ENT
M$OCMSG    5586**DCL-ENT
M$OLAY    5534**DCL-ENT
M$OPEN    5522**DCL-ENT
M$PAS    5563**DCL-ENT
M$PATHCON    5586**DCL-ENT
M$PDS    5557**DCL-ENT
M$PFIL    5524**DCL-ENT
M$PLATEN    5548**DCL-ENT
M$PRECORD    5526**DCL-ENT
M$PROCNAME    5539**DCL-ENT
M$PROFILE    5550**DCL-ENT
M$PROMPT    5546**DCL-ENT
M$RACST    5530**DCL-ENT
M$RDSYSLOG    5571**DCL-ENT
M$READ    5523**DCL-ENT
M$RELDCB    5528**DCL-ENT
PL6.E3A0      #001=DFA$USE File=DFA$USE.:E05TSI                                  TUE 07/29/97 14:38 Page:35
M$RELRES    5529**DCL-ENT
M$RELSTARF    5531**DCL-ENT
M$REM    5531**DCL-ENT
M$RENV    5578**DCL-ENT
M$REQUIRE    5530**DCL-ENT
M$RETRY    5579**DCL-ENT
M$RETRYS    5579**DCL-ENT
M$REW    5525**DCL-ENT
M$RLSFLD    5553**DCL-ENT
M$RPRIV    5581**DCL-ENT
M$RSPP    5560**DCL-ENT
M$RSWITCH    5582**DCL-ENT
M$RUE    5588**DCL-ENT
M$SAD    5561**DCL-ENT
M$SAVE    5537**DCL-ENT
M$SCON    5538**DCL-ENT
M$SENV    5578**DCL-ENT
M$SETFMA    5522**DCL-ENT
M$SETFP    5551**DCL-ENT
M$SINPUT    5549**DCL-ENT
M$SLCFLD    5554**DCL-ENT
M$SMOUSE    5568**DCL-ENT
M$SMPRT    5560**DCL-ENT
M$SPRIV    5581**DCL-ENT
M$SSC    5561**DCL-ENT
M$SSWITCH    5581**DCL-ENT
M$STATE    5590**DCL-ENT
M$STD    5562**DCL-ENT
M$STIMER    5576**DCL-ENT
M$STLPP    5559**DCL-ENT
M$STRAP    5576**DCL-ENT
M$STRMATTR    5548**DCL-ENT
M$STRMCTL    5546**DCL-ENT
M$STRMTAB    5549**DCL-ENT
M$SYMBIO    5587**DCL-ENT
M$SYSCON    5573**DCL-ENT
PL6.E3A0      #001=DFA$USE File=DFA$USE.:E05TSI                                  TUE 07/29/97 14:38 Page:36
M$SYSID    5591**DCL-ENT
M$TDCLOSE    5572**DCL-ENT
M$TDIO    5572**DCL-ENT
M$TDOPEN    5571**DCL-ENT
M$TDREQCPU    5572**DCL-ENT
M$TEMPWROC    5566**DCL-ENT
M$TIME    5589**DCL-ENT
M$TRAP    5576**DCL-ENT
M$TRMISC    5551**DCL-ENT
M$TRMPRG    5547**DCL-ENT
M$TRTN    5580**DCL-ENT
M$TRUNC    5523**DCL-ENT
M$TTIMER    5576**DCL-ENT
M$UC    5546**DCL
M$UMPL    5563**DCL-ENT
M$UNFID    5585**DCL-ENT
M$UNLATCH    5542**DCL-ENT
M$UNSHARE    5539**DCL-ENT
M$USRFIELD    5582**DCL-ENT
M$VIRTUAL    5557**DCL-ENT
M$WAIT    5580**DCL-ENT
M$WEOF    5525**DCL-ENT
M$WRITE    5523**DCL-ENT
M$WRSYSLOG    5571**DCL-ENT
M$XCON    5577**DCL-ENT
M$XCONRTN    5538**DCL-ENT
M$XEQTIME    5590**DCL-ENT
M$XFLUSH    5531**DCL-ENT
M$XMOUSE    5568**DCL-ENT
M$XXX    5534**DCL-ENT
M$YC    5536**DCL-ENT
SC_MESSAGE    5636**DCL
S_D_ACCESS$    2792**DCL
S_D_ANLZ$    2794**DCL
S_D_ASTACKOFF$    2793**DCL
S_D_BREAK$    2795**DCL
PL6.E3A0      #001=DFA$USE File=DFA$USE.:E05TSI                                  TUE 07/29/97 14:38 Page:37
S_D_DO_SCAN$    2796**DCL
S_D_ERROR$    2797**DCL
S_D_FAULTCMD$$    2798**DCL
S_D_FAULTINS$$    2799**DCL
S_D_GOIC$    2800**DCL
S_D_GO_MODE$    2801**DCL
S_D_HW_PTB_UNITS$    2817**DCL
S_D_HW_RES_MEM$    2815**DCL
S_D_HW_WSQ0PT$    2816**DCL
S_D_IPRFLT$    2803**DCL
S_D_IXFIX$    2802**DCL
S_D_REM_ACCESS$    2804**DCL
S_D_REM_DISKBOOT$    2806**DCL
S_D_REM_DO_SCAN$    2805**DCL
S_D_RETURNN$    2807**DCL
S_D_SAD$    2808**DCL
S_D_SAVEIC$    2809**DCL
S_D_SEG$    2791**DCL
S_D_TCB$$    2810**DCL
S_D_UREG$$    2811**DCL
S_D_USS$$    2812**DCL
