VERSION E05

PL6.E3A0      #001=DFD$CONVERT_DD File=DFD$CONVERT_DD.:E05TSI                    TUE 07/29/97 14:39 Page:1
        1        1        /*M* DFD$CONVERT_DD - Convert DD to form to send to FD */
        2        2        /*T***********************************************************/
        3        3        /*T*                                                         */
        4        4        /*T* Copyright (c) Bull HN Information Systems Inc., 1997    */
        5        5        /*T*                                                         */
        6        6        /*T***********************************************************/
        7        7        /*X* DMR,PLM=5,IND=5,CSU=3,EXM=0,ECU=3,MOC,DCI=5,CRT=5 */
        8        8        %SET LISTSUB='1'B;
        9        9        /*P*  NAME: DFD$CONVERT_DD
       10       10              PURPOSE: Converts the data descriptor to an L6 form to
       11       11                       ship to the FD for evaluation.
       12       12              DESCRIPTION: Converts the data descriptor built to an L6
       13       13                       form to be sent to the FD for evaluation.
       14       14                                                               */
       15       15        DFD$CONVERT_DD: PROC(L6_DD$, HOST_DD$, EXPR_OP, DD_SIZE) ALTRET;
       16       16        /* Parms */
       17       17    1   DCL L6_DD$ PTR;
       18       18    1   DCL HOST_DD$ PTR;
       19       19    1   DCL EXPR_OP BIT(1) ALIGNED;
       20       20    1   DCL DD_SIZE UBIN;
       21       21        /* Includes and Based structures */
       22       22        %INCLUDE DD$DITEM;
       12+     125             %LIST;
       13+     126    1        DCL SDD$ PTR;
       14+     127    1        DCL ZITEM$ PTR;
       15+     128    1        DCL SDD_L6$ PTR;
       16+     129    1        DCL ZITEM_L6$ PTR;
       23      703        %ZITEM;
       24      775        %DITEM;
       25      855        %MITEM;
       26      903        %ZITEM_L6;
       27      945        %DITEM_L6(STCLASS="BASED(NEXT_L6$)");
       28      988        %MITEM_L6(STCLASS="BASED(NEXT_L6$)");
       29     1026        %INCLUDE DD_ERR_C;
       30     1423        %INCLUDE XUH_MACRO_C;
       31     1507        %INCLUDE DD_SD_M;
       32     2843        %S_D;
PL6.E3A0      #001=DFD$CONVERT_DD File=DFD$CONVERT_DD.:E05TSI                    TUE 07/29/97 14:39 Page:2
       33     4161        %S_D_PTRS;
       34     4198        %INCLUDE GD$MSG_M;
       35     4362        %GD$MSG(FPTN=GD$MSG, STCLASS="BASED(S_D_L6_MESSAGE$)",L6=YES,L6PTR="UBIN(32) UNAL");
       36     4518        /* Auto */
       37     4519    1   DCL ZITEM_L6_END$ PTR;
       38     4520    1   DCL NEXT_L6$ PTR;
       39     4521    1   DCL ITEM$ PTR;
       40     4522    1   DCL DITEM$ PTR;
       41     4523    1   DCL MULT$ PTR;
       42     4524    1   DCL NEXT$ PTR;
       43     4525    1   DCL TYPE_CODE UBIN;
       44     4526    1   DCL SIZE UBIN;
       45     4527        /**/
       46     4528    1        SIZE = 0;
       47     4529    1        ZITEM$ = HOST_DD$;
       48     4530    1        ZITEM_L6$ = L6_DD$;
       49     4531    1        ZITEM_L6_END$ = PINCRC(S_D_L6_MESSAGE$, SIZEC(S_D.L6_MESSAGE_BUF));
       50     4532    1        ITEM$ = PINCRW(HOST_DD$, SIZEW(ZITEM));
       51     4533    1        NEXT_L6$ = PINCRB(ZITEM_L6$, LENGTHB(ZITEM_L6));
       52     4534    1        SIZE = SIZE + LENGTHB(ZITEM_L6);
       53     4535    1        IF NEXT_L6$ > ZITEM_L6_END$
       54     4536    1        THEN GOTO TOOLONG;
       55     4537    1        CALL CONVERT_ZITEM;
       56     4538    1        TYPE_CODE = %SIZE_ICODE + 1;
       57     4539    2        DO WHILE (TYPE_CODE ~= %SIZE_ICODE);
       58     4540    2             DITEM$ = ITEM$;
       59     4541    2             CALL CONVERT_DITEM;
       60     4542    2             NEXT$ = PINCRW(ITEM$, SIZEW(DITEM));
       61     4543    2             NEXT_L6$ = PINCRB(NEXT_L6$, LENGTHB(DITEM_L6));
       62     4544    2             SIZE = SIZE + LENGTHB(DITEM_L6);
       63     4545    2             IF NEXT_L6$ > ZITEM_L6_END$
       64     4546    2             THEN GOTO TOOLONG;
       65     4547    2             TYPE_CODE = ITEM$ -> DITEM.TYPE_CODE;
       66     4548    3             DO CASE(TYPE_CODE);
       67     4549    3               CASE(%SIDX_ICODE,%LIDX_ICODE);
       68     4550    3                  MULT$ = NEXT$;
       69     4551    3                  CALL CONVERT_MITEM;
PL6.E3A0      #001=DFD$CONVERT_DD File=DFD$CONVERT_DD.:E05TSI                    TUE 07/29/97 14:39 Page:3
       70     4552    3                  NEXT$ = PINCRW(NEXT$, SIZEW(MITEM));
       71     4553    3                  NEXT_L6$ = PINCRB(NEXT_L6$, LENGTHB(MITEM_L6));
       72     4554    3                  SIZE = SIZE + LENGTHB(MITEM_L6);
       73     4555    3                  IF NEXT_L6$ > ZITEM_L6_END$
       74     4556    3                  THEN GOTO TOOLONG;
       75     4557    3               CASE(%UIDX_ICODE, %PTR_ICODE, %EXP_ICODE);
       76     4558    3                  ;
       77     4559    3               CASE(%SIZE_ICODE);
       78     4560    3                  IF ITEM$ -> DITEM.FLAGS.EXPOP ~= 0
       79     4561    3                  THEN EXPR_OP = '1'B;
       80     4562    3                  ELSE EXPR_OP = '0'B;
       81     4563    3                  IF ITEM$ -> DITEM.ADDR_TYPE = %PARM_ACODE
       82     4564    4                  THEN DO;
       83     4565    4                       ITEM$ = NEXT$;
       84     4566    4                       CALL CONVERT_DITEM;
       85     4567    4                       NEXT$ = PINCRW(NEXT$, SIZEW(DITEM));
       86     4568    4                       NEXT_L6$ = PINCRB(NEXT_L6$, LENGTHB(DITEM_L6));
       87     4569    4                       SIZE = SIZE + LENGTHB(DITEM_L6);
       88     4570    4                       IF NEXT_L6$ > ZITEM_L6_END$
       89     4571    4                       THEN GOTO TOOLONG;
       90     4572    4                     END;
       91     4573    3               END;                        /* DO CASE */
       92     4574    2             ITEM$ = NEXT$;
       93     4575    2           END;                            /* DO WHILE */
       94     4576    1        IF ADDR(DD_SIZE) ~= ADDR(NIL)
       95     4577    1        THEN DD_SIZE = SIZE / 16;
       96     4578    1        RETURN;
       97     4579    1   TOOLONG: ;
       98     4580    1        S_D.ERROR = 307;         /* E@VREFTOOLONG */
       99     4581    1        ALTRETURN;
      100     4582        %EJECT;
PL6.E3A0      #001=DFD$CONVERT_DD File=DFD$CONVERT_DD.:E05TSI                    TUE 07/29/97 14:39 Page:4
      101     4583    1   CONVERT_ZITEM: PROC;
      102     4584        /**/
      103     4585    2        ZITEM_L6.FLAGS.ADDREXP = ZITEM.FLAGS.ADDREXP;
      104     4586    2        ZITEM_L6.DTYP = ZITEM.DTYP;
      105     4587    2        ZITEM_L6.ADDR_TYPE = ZITEM.ADDR_TYPE;
      106     4588    2        ZITEM_L6.DATA_TYPE = BITBIN(ZITEM.PUP.BITS);
      107     4589    2        ZITEM_L6.SIZE = ZITEM.PUP.SIZE;
      108     4590    2        ZITEM_L6.SCALE = ZITEM.PUP.SCALE;
      109     4591    3        DO CASE(ZITEM.ADDR_TYPE);
      110     4592    3          CASE(%SPEC_ACODE);
      111     4593    3             ZITEM_L6.VS.ID = ZITEM.SP.VS.ID;
      112     4594    3             ZITEM_L6.VS.SZ = ZITEM.SP.VS.SZ;
      113     4595    3          CASE(%DESC_ACODE);
      114     4596    3             ZITEM_L6.VD.TYPE = ZITEM.SP.VD.TYPE;
      115     4597    3             ZITEM_L6.VD.ID = ZITEM.SP.VD.ID;
      116     4598    3             ZITEM_L6.VD.DISP = ZITEM.SP.VD.DISP;
      117     4599    3          CASE(%BIGBASED_ACODE, %BIGSTATIC_ACODE);
      118     4600    3             ZITEM_L6.VALUE.V = ZITEM.VALUE;
      119     4601    3          CASE(ELSE);
      120     4602    3             ZITEM_L6.ADDRESS.C = ZITEM.ADDRESS.C;
      121     4603    3             ZITEM_L6.ADDRESS.B = ZITEM.ADDRESS.B;
      122     4604    3             ZITEM_L6.ADDRESS.W = ZITEM.ADDRESS.W;
      123     4605    3          END;
      124     4606    2   END CONVERT_ZITEM;
      125     4607        %EJECT;
PL6.E3A0      #001=DFD$CONVERT_DD File=DFD$CONVERT_DD.:E05TSI                    TUE 07/29/97 14:39 Page:5
      126     4608    1   CONVERT_DITEM: PROC;
      127     4609        /**/
      128     4610    2        DITEM_L6.SMULT = ITEM$ -> DITEM.SMULT;
      129     4611    2        DITEM_L6.FLAGS.AFLAG = ITEM$ -> DITEM.FLAGS.AFLAG;
      130     4612    2        DITEM_L6.FLAGS.LFLAG = ITEM$ -> DITEM.FLAGS.LFLAG;
      131     4613    2        DITEM_L6.OPER.EXPR = ITEM$ -> DITEM.FLAGS.EXPOP;
      132     4614    2        DITEM_L6.ADDR_TYPE = ITEM$ -> DITEM.ADDR_TYPE;
      133     4615    2        DITEM_L6.TYPE_CODE = ITEM$ -> DITEM.TYPE_CODE;
      134     4616    2        DITEM_L6.SIZE = ITEM$ -> DITEM.PUP.SIZE;
      135     4617    2        DITEM_L6.DATA_TYPE = BITBIN(ITEM$ -> DITEM.PUP.BITS);
      136     4618    3        DO CASE(ITEM$ -> DITEM.ADDR_TYPE);
      137     4619    3          CASE(%SPEC_ACODE);
      138     4620    3             DITEM_L6.VS.ID = ITEM$ -> DITEM.SP.VS.ID;
      139     4621    3             DITEM_L6.VS.SZ = ITEM$ -> DITEM.SP.VS.SZ;
      140     4622    3          CASE(%DESC_ACODE);
      141     4623    3             DITEM_L6.VD.TYPE = ITEM$ -> DITEM.SP.VD.TYPE;
      142     4624    3             IF ITEM$ -> DITEM.SP.VD.TYPE = 6
      143     4625    3             THEN DITEM_L6.VP.N = ITEM$ -> DITEM.SP.VP.N;
      144     4626    4             ELSE DO;
      145     4627    4                  DITEM_L6.VD.ID = ITEM$ -> DITEM.SP.VD.ID;
      146     4628    4                  DITEM_L6.VD.DISP = ITEM$ -> DITEM.SP.VD.DISP;
      147     4629    4                END;
      148     4630    3          CASE(%BIGBASED_ACODE, %BIGSTATIC_ACODE, %CONST_ACODE);
      149     4631    3             DITEM_L6.VALUE.V = ITEM$ -> DITEM.VALUE;
      150     4632    3          CASE(ELSE);
      151     4633    3             DITEM_L6.ADDRESS.C = ITEM$ -> DITEM.ADDRESS.C;
      152     4634    3             DITEM_L6.ADDRESS.B = ITEM$ -> DITEM.ADDRESS.B;
      153     4635    3             DITEM_L6.ADDRESS.W = ITEM$ -> DITEM.ADDRESS.W;
      154     4636    3          END;
      155     4637    2   END CONVERT_DITEM;
      156     4638        %EJECT;
PL6.E3A0      #001=DFD$CONVERT_DD File=DFD$CONVERT_DD.:E05TSI                    TUE 07/29/97 14:39 Page:6
      157     4639    1   CONVERT_MITEM: PROC;
      158     4640        /**/
      159     4641    2        MITEM_L6.IMULT = MULT$ -> MITEM.IMULT;
      160     4642    2        MITEM_L6.IOFF = MULT$ -> MITEM.IOFF;
      161     4643    2        MITEM_L6.NEWOFF = MULT$ -> MITEM.NEWOFF;
      162     4644    2        MITEM_L6.CONT = MULT$ -> MITEM.CONT;
      163     4645    2        MITEM_L6.MULT = MULT$ -> MITEM.MULT;
      164     4646    2        MITEM_L6.OFS = MULT$ -> MITEM.OFS;
      165     4647    2        MITEM_L6.ELMNTSIZ = MULT$ -> MITEM.ELMNTSIZ;
      166     4648    2   END CONVERT_MITEM;
      167     4649
      168     4650    1   END DFD$CONVERT_DD;

PL6.E3A0      #001=DFD$CONVERT_DD File=DFD$CONVERT_DD.:E05TSI                    TUE 07/29/97 14:39 Page:7
--  Include file information  --

   GD$MSG_M.:E05TOU  is referenced.
   DD_SD_M.:E05TOU  is referenced.
   XUH_MACRO_C.:E05TOU  is referenced.
   DD_ERR_C.:E05TOU  is referenced.
   DD_SRTN_C.:E05TOU  is referenced.
   DD_ACODE_C.:E05TOU  is referenced.
   DD_ICODE_C.:E05TOU  is referenced.
   DD$DITEM.:E05TOU  cannot be made into a system file and is referenced.
   B$JIT_C.:E05TOU  was found in the system file and is never referenced.
   CP_6_C.:E05TOU  was found in the system file and is never referenced.
      No diagnostics issued in procedure DFD$CONVERT_DD.

   Procedure DFD$CONVERT_DD requires 306 words for executable code.
   Procedure DFD$CONVERT_DD requires 24 words of local(AUTO) storage.

    No errors detected in file DFD$CONVERT_DD.:E05TSI    .

PL6.E3A0      #001=DFD$CONVERT_DD File=DFD$CONVERT_DD.:E05TSI                    TUE 07/29/97 14:39 Page:8

 Object Unit name= DFD$CONVERT_DD                             File name= DFD$CONVERT_DD.:E05TOU
 UTS= JUL 29 '97 14:39:16.64 TUE                              Compiler= PL-6/E31         Sev=      00
 SharedLib= :SHARED_SYSTEM                                    Alt SharedLib=


    ****  Control sections  ****

 Sect   Type Bound  Init  Size OctSiz  Section name(segment info)
    0   Proc  even  none   306    462  DFD$CONVERT_DD

    ****  Entry defs  ****

                              Check   Calling
                             calling  sequence
  Sect OctLoc Primary Altret sequence   type   Parms  Name
     0      0   yes    yes     yes      Std        4  DFD$CONVERT_DD

  ****  Entry refs  ****

         Check        Calling
        calling       sequence
Altret sequence SRef   type   Args  Name
                       nStd      0 X66_AUTO_4
                       Std       0 B_CONSPOOL_D
                       nStd      0 X66_ARET
                       nStd      0 X66_AALT

  ****  Data refs  ****

  Flags:  r = read only, s = secondary
Flgs Name                             Flgs Name                             Flgs Name
r    S_D$                             r    S_D_L6_MESSAGE$                       B_VECTNIL
PL6.E3A0      #001=DFD$CONVERT_DD File=DFD$CONVERT_DD.:E05TSI                    TUE 07/29/97 14:39 Page:9


        1        1        /*M* DFD$CONVERT_DD - Convert DD to form to send to FD */
        2        2        /*T***********************************************************/
        3        3        /*T*                                                         */
        4        4        /*T* Copyright (c) Bull HN Information Systems Inc., 1997    */
        5        5        /*T*                                                         */
        6        6        /*T***********************************************************/
        7        7        /*X* DMR,PLM=5,IND=5,CSU=3,EXM=0,ECU=3,MOC,DCI=5,CRT=5 */
        8        8        %SET LISTSUB='1'B;
        9        9        /*P*  NAME: DFD$CONVERT_DD
       10       10              PURPOSE: Converts the data descriptor to an L6 form to
       11       11                       ship to the FD for evaluation.
       12       12              DESCRIPTION: Converts the data descriptor built to an L6
       13       13                       form to be sent to the FD for evaluation.
       14       14                                                               */
       15       15        DFD$CONVERT_DD: PROC(L6_DD$, HOST_DD$, EXPR_OP, DD_SIZE) ALTRET;

     15  0 000000   000000 700200 xent  DFD$CONVERT* TSX0  ! X66_AUTO_4
         0 000001   000030 000004                    ZERO    24,4

       16       16        /* Parms */
       17       17    1   DCL L6_DD$ PTR;
       18       18    1   DCL HOST_DD$ PTR;
       19       19    1   DCL EXPR_OP BIT(1) ALIGNED;
       20       20    1   DCL DD_SIZE UBIN;
       21       21        /* Includes and Based structures */
       22       22        %INCLUDE DD$DITEM;
       12+     125             %LIST;
       13+     126    1        DCL SDD$ PTR;
       14+     127    1        DCL ZITEM$ PTR;
       15+     128    1        DCL SDD_L6$ PTR;
       16+     129    1        DCL ZITEM_L6$ PTR;
       23      703        %ZITEM;
       24      775        %DITEM;
       25      855        %MITEM;
       26      903        %ZITEM_L6;
       27      945        %DITEM_L6(STCLASS="BASED(NEXT_L6$)");
PL6.E3A0      #001=DFD$CONVERT_DD File=DFD$CONVERT_DD.:E05TSI                    TUE 07/29/97 14:39 Page:10
       28      988        %MITEM_L6(STCLASS="BASED(NEXT_L6$)");
       29     1026        %INCLUDE DD_ERR_C;
       30     1423        %INCLUDE XUH_MACRO_C;
       31     1507        %INCLUDE DD_SD_M;
       32     2843        %S_D;
       33     4161        %S_D_PTRS;
       34     4198        %INCLUDE GD$MSG_M;
       35     4362       %GD$MSG(FPTN=GD$MSG, STCLASS="BASED(S_D_L6_MESSAGE$)",L6=YES,L6PTR="UBIN(32) UNAL");
       36     4518        /* Auto */
       37     4519    1   DCL ZITEM_L6_END$ PTR;
       38     4520    1   DCL NEXT_L6$ PTR;
       39     4521    1   DCL ITEM$ PTR;
       40     4522    1   DCL DITEM$ PTR;
       41     4523    1   DCL MULT$ PTR;
       42     4524    1   DCL NEXT$ PTR;
       43     4525    1   DCL TYPE_CODE UBIN;
       44     4526    1   DCL SIZE UBIN;
       45     4527        /**/
       46     4528    1        SIZE = 0;

   4528  0 000002   200022 450100                    STZ     SIZE,,AUTO

       47     4529    1        ZITEM$ = HOST_DD$;

   4529  0 000003   200004 470500                    LDP0    @HOST_DD$,,AUTO
         0 000004   000000 236100                    LDQ     0,,PR0
         0 000005   200010 756100                    STQ     ZITEM$,,AUTO

       48     4530    1        ZITEM_L6$ = L6_DD$;

   4530  0 000006   200003 471500                    LDP1    @L6_DD$,,AUTO
         0 000007   100000 236100                    LDQ     0,,PR1
         0 000010   200012 756100                    STQ     ZITEM_L6$,,AUTO

       49     4531    1        ZITEM_L6_END$ = PINCRC(S_D_L6_MESSAGE$, SIZEC(S_D.L6_MESSAGE_BUF));

   4531  0 000011   000000 236000 xsym               LDQ     S_D_L6_MESSAGE$
PL6.E3A0      #001=DFD$CONVERT_DD File=DFD$CONVERT_DD.:E05TSI                    TUE 07/29/97 14:39 Page:11
         0 000012   000106 036003                    ADLQ    70,DU
         0 000013   200013 756100                    STQ     ZITEM_L6_END$,,AUTO

       50     4532    1        ITEM$ = PINCRW(HOST_DD$, SIZEW(ZITEM));

   4532  0 000014   000000 236100                    LDQ     0,,PR0
         0 000015   000015 036003                    ADLQ    13,DU
         0 000016   200015 756100                    STQ     ITEM$,,AUTO

       51     4533    1        NEXT_L6$ = PINCRB(ZITEM_L6$, LENGTHB(ZITEM_L6));

   4533  0 000017   200012 473500                    LDP3    ZITEM_L6$,,AUTO
         0 000020   000100 220003                    LDX0    64,DU
         0 000021   300000 503510                    ABD     0,X0,PR3
         0 000022   200014 453500                    STP3    NEXT_L6$,,AUTO

       52     4534    1        SIZE = SIZE + LENGTHB(ZITEM_L6);

   4534  0 000023   200022 235100                    LDA     SIZE,,AUTO
         0 000024   000100 035007                    ADLA    64,DL
         0 000025   200022 755100                    STA     SIZE,,AUTO

       53     4535    1        IF NEXT_L6$ > ZITEM_L6_END$

   4535  0 000026   200013 236100                    LDQ     ZITEM_L6_END$,,AUTO
         0 000027   200014 116100                    CMPQ    NEXT_L6$,,AUTO
         0 000030   000176 602000 0                  TNC     TOOLONG

       54     4536    1        THEN GOTO TOOLONG;
       55     4537    1        CALL CONVERT_ZITEM;

   4537  0 000031   000202 701000 0                  TSX1    CONVERT_ZITEM
         0 000032   000000 011000                    NOP     0

       56     4538    1        TYPE_CODE = %SIZE_ICODE + 1;

   4538  0 000033   000012 235007                    LDA     10,DL
PL6.E3A0      #001=DFD$CONVERT_DD File=DFD$CONVERT_DD.:E05TSI                    TUE 07/29/97 14:39 Page:12
         0 000034   200021 755100                    STA     TYPE_CODE,,AUTO

       57     4539    2        DO WHILE (TYPE_CODE ~= %SIZE_ICODE);

   4539  0 000035   000011 115007                    CMPA    9,DL
         0 000036   000166 600000 0                  TZE     s:4576

       58     4540    2             DITEM$ = ITEM$;

   4540  0 000037   200015 236100                    LDQ     ITEM$,,AUTO
         0 000040   200016 756100                    STQ     DITEM$,,AUTO

       59     4541    2             CALL CONVERT_DITEM;

   4541  0 000041   000306 701000 0                  TSX1    CONVERT_DITEM
         0 000042   000000 011000                    NOP     0

       60     4542    2             NEXT$ = PINCRW(ITEM$, SIZEW(DITEM));

   4542  0 000043   200015 236100                    LDQ     ITEM$,,AUTO
         0 000044   000003 036003                    ADLQ    3,DU
         0 000045   200020 756100                    STQ     NEXT$,,AUTO

       61     4543    2             NEXT_L6$ = PINCRB(NEXT_L6$, LENGTHB(DITEM_L6));

   4543  0 000046   200014 470500                    LDP0    NEXT_L6$,,AUTO
         0 000047   000100 220003                    LDX0    64,DU
         0 000050   000000 503510                    ABD     0,X0,PR0
         0 000051   200014 450500                    STP0    NEXT_L6$,,AUTO

       62     4544    2             SIZE = SIZE + LENGTHB(DITEM_L6);

   4544  0 000052   200022 235100                    LDA     SIZE,,AUTO
         0 000053   000100 035007                    ADLA    64,DL
         0 000054   200022 755100                    STA     SIZE,,AUTO

       63     4545    2             IF NEXT_L6$ > ZITEM_L6_END$
PL6.E3A0      #001=DFD$CONVERT_DD File=DFD$CONVERT_DD.:E05TSI                    TUE 07/29/97 14:39 Page:13

   4545  0 000055   200013 236100                    LDQ     ZITEM_L6_END$,,AUTO
         0 000056   200014 116100                    CMPQ    NEXT_L6$,,AUTO
         0 000057   000176 602000 0                  TNC     TOOLONG

       64     4546    2             THEN GOTO TOOLONG;
       65     4547    2             TYPE_CODE = ITEM$ -> DITEM.TYPE_CODE;

   4547  0 000060   200015 471500                    LDP1    ITEM$,,AUTO
         0 000061   100000 236100                    LDQ     0,,PR1
         0 000062   000777 376007                    ANQ     511,DL
         0 000063   200021 756100                    STQ     TYPE_CODE,,AUTO

       66     4548    3             DO CASE(TYPE_CODE);

   4548  0 000064   000012 116007                    CMPQ    10,DL
         0 000065   000067 602006 0                  TNC     s:4548+3,QL
         0 000066   000161 710000 0                  TRA     s:4574
         0 000067   000161 710000 0                  TRA     s:4574
         0 000070   000161 710000 0                  TRA     s:4574
         0 000071   000101 710000 0                  TRA     s:4550
         0 000072   000101 710000 0                  TRA     s:4550
         0 000073   000161 710000 0                  TRA     s:4574
         0 000074   000161 710000 0                  TRA     s:4574
         0 000075   000161 710000 0                  TRA     s:4574
         0 000076   000161 710000 0                  TRA     s:4574
         0 000077   000161 710000 0                  TRA     s:4574
         0 000100   000123 710000 0                  TRA     s:4560

       67     4549    3               CASE(%SIDX_ICODE,%LIDX_ICODE);

       68     4550    3                  MULT$ = NEXT$;

   4550  0 000101   200020 236100                    LDQ     NEXT$,,AUTO
         0 000102   200017 756100                    STQ     MULT$,,AUTO

       69     4551    3                  CALL CONVERT_MITEM;
PL6.E3A0      #001=DFD$CONVERT_DD File=DFD$CONVERT_DD.:E05TSI                    TUE 07/29/97 14:39 Page:14

   4551  0 000103   000430 701000 0                  TSX1    CONVERT_MITEM
         0 000104   000000 011000                    NOP     0

       70     4552    3                  NEXT$ = PINCRW(NEXT$, SIZEW(MITEM));

   4552  0 000105   200020 236100                    LDQ     NEXT$,,AUTO
         0 000106   000004 036003                    ADLQ    4,DU
         0 000107   200020 756100                    STQ     NEXT$,,AUTO

       71     4553    3                  NEXT_L6$ = PINCRB(NEXT_L6$, LENGTHB(MITEM_L6));

   4553  0 000110   200014 470500                    LDP0    NEXT_L6$,,AUTO
         0 000111   000140 220003                    LDX0    96,DU
         0 000112   000000 503510                    ABD     0,X0,PR0
         0 000113   200014 450500                    STP0    NEXT_L6$,,AUTO

       72     4554    3                  SIZE = SIZE + LENGTHB(MITEM_L6);

   4554  0 000114   200022 235100                    LDA     SIZE,,AUTO
         0 000115   000140 035007                    ADLA    96,DL
         0 000116   200022 755100                    STA     SIZE,,AUTO

       73     4555    3                  IF NEXT_L6$ > ZITEM_L6_END$

   4555  0 000117   200013 236100                    LDQ     ZITEM_L6_END$,,AUTO
         0 000120   200014 116100                    CMPQ    NEXT_L6$,,AUTO
         0 000121   000176 602000 0                  TNC     TOOLONG
         0 000122   000161 710000 0                  TRA     s:4574

       74     4556    3                  THEN GOTO TOOLONG;
       75     4557    3               CASE(%UIDX_ICODE, %PTR_ICODE, %EXP_ICODE);

       76     4558    3                  ;
       77     4559    3               CASE(%SIZE_ICODE);

       78     4560    3                  IF ITEM$ -> DITEM.FLAGS.EXPOP ~= 0
PL6.E3A0      #001=DFD$CONVERT_DD File=DFD$CONVERT_DD.:E05TSI                    TUE 07/29/97 14:39 Page:15

   4560  0 000123   100000 236100                    LDQ     0,,PR1
         0 000124   000017 316003                    CANQ    15,DU
         0 000125   000132 600000 0                  TZE     s:4562

       79     4561    3                  THEN EXPR_OP = '1'B;

   4561  0 000126   400000 236003                    LDQ     -131072,DU
         0 000127   200005 473500                    LDP3    @EXPR_OP,,AUTO
         0 000130   300000 756100                    STQ     0,,PR3
         0 000131   000134 710000 0                  TRA     s:4563

       80     4562    3                  ELSE EXPR_OP = '0'B;

   4562  0 000132   200005 473500                    LDP3    @EXPR_OP,,AUTO
         0 000133   300000 450100                    STZ     0,,PR3

       81     4563    3                  IF ITEM$ -> DITEM.ADDR_TYPE = %PARM_ACODE

   4563  0 000134   100000 236100                    LDQ     0,,PR1
         0 000135   777000 376007                    ANQ     -512,DL
         0 000136   004000 116007                    CMPQ    2048,DL
         0 000137   000161 601000 0                  TNZ     s:4574

       82     4564    4                  THEN DO;

       83     4565    4                       ITEM$ = NEXT$;

   4565  0 000140   200020 236100                    LDQ     NEXT$,,AUTO
         0 000141   200015 756100                    STQ     ITEM$,,AUTO

       84     4566    4                       CALL CONVERT_DITEM;

   4566  0 000142   000306 701000 0                  TSX1    CONVERT_DITEM
         0 000143   000000 011000                    NOP     0

       85     4567    4                       NEXT$ = PINCRW(NEXT$, SIZEW(DITEM));
PL6.E3A0      #001=DFD$CONVERT_DD File=DFD$CONVERT_DD.:E05TSI                    TUE 07/29/97 14:39 Page:16

   4567  0 000144   200020 236100                    LDQ     NEXT$,,AUTO
         0 000145   000003 036003                    ADLQ    3,DU
         0 000146   200020 756100                    STQ     NEXT$,,AUTO

       86     4568    4                       NEXT_L6$ = PINCRB(NEXT_L6$, LENGTHB(DITEM_L6));

   4568  0 000147   200014 470500                    LDP0    NEXT_L6$,,AUTO
         0 000150   000100 220003                    LDX0    64,DU
         0 000151   000000 503510                    ABD     0,X0,PR0
         0 000152   200014 450500                    STP0    NEXT_L6$,,AUTO

       87     4569    4                       SIZE = SIZE + LENGTHB(DITEM_L6);

   4569  0 000153   200022 235100                    LDA     SIZE,,AUTO
         0 000154   000100 035007                    ADLA    64,DL
         0 000155   200022 755100                    STA     SIZE,,AUTO

       88     4570    4                       IF NEXT_L6$ > ZITEM_L6_END$

   4570  0 000156   200013 236100                    LDQ     ZITEM_L6_END$,,AUTO
         0 000157   200014 116100                    CMPQ    NEXT_L6$,,AUTO
         0 000160   000176 602000 0                  TNC     TOOLONG

       89     4571    4                       THEN GOTO TOOLONG;
       90     4572    4                     END;

       91     4573    3               END;                        /* DO CASE */

       92     4574    2             ITEM$ = NEXT$;

   4574  0 000161   200020 236100                    LDQ     NEXT$,,AUTO
         0 000162   200015 756100                    STQ     ITEM$,,AUTO

       93     4575    2           END;                            /* DO WHILE */

   4575  0 000163   200021 235100                    LDA     TYPE_CODE,,AUTO
PL6.E3A0      #001=DFD$CONVERT_DD File=DFD$CONVERT_DD.:E05TSI                    TUE 07/29/97 14:39 Page:17
         0 000164   000011 115007                    CMPA    9,DL
         0 000165   000037 601000 0                  TNZ     s:4540

       94     4576    1        IF ADDR(DD_SIZE) ~= ADDR(NIL)

   4576  0 000166   200006 236100                    LDQ     @DD_SIZE,,AUTO
         0 000167   000001 116000 xsym               CMPQ    B_VECTNIL+1
         0 000170   000175 600000 0                  TZE     s:4578

       95     4577    1        THEN DD_SIZE = SIZE / 16;

   4577  0 000171   200022 236100                    LDQ     SIZE,,AUTO
         0 000172   000004 772000                    QRL     4
         0 000173   200006 470500                    LDP0    @DD_SIZE,,AUTO
         0 000174   000000 756100                    STQ     0,,PR0

       96     4578    1        RETURN;

   4578  0 000175   000000 702200 xent               TSX2  ! X66_ARET

   4576  0 000176                       TOOLONG      null
       97     4579    1   TOOLONG: ;
       98     4580    1        S_D.ERROR = 307;         /* E@VREFTOOLONG */

   4580  0 000176   000463 235007                    LDA     307,DL
         0 000177   000000 470400 xsym               LDP0    S_D$
         0 000200   000013 755100                    STA     11,,PR0

       99     4581    1        ALTRETURN;

   4581  0 000201   000000 702200 xent               TSX2  ! X66_AALT

      100     4582        %EJECT;
PL6.E3A0      #001=DFD$CONVERT_DD File=DFD$CONVERT_DD.:E05TSI                    TUE 07/29/97 14:39 Page:18
      101     4583    1   CONVERT_ZITEM: PROC;

   4583  0 000202   200024 741300       CONVERT_ZIT* STX1  ! SIZE+2,,AUTO

      102     4584        /**/
      103     4585    2        ZITEM_L6.FLAGS.ADDREXP = ZITEM.FLAGS.ADDREXP;

   4585  0 000203   200010 470500                    LDP0    ZITEM$,,AUTO
         0 000204   200012 471500                    LDP1    ZITEM_L6$,,AUTO
         0 000205   003100 060500                    CSL     bolr='003'O
         0 000206   000001 040001                    BDSC    1,,PR0                   by=0,bit=4,n=1
         0 000207   100001 000001                    BDSC    1,,PR1                   by=0,bit=0,n=1

      104     4586    2        ZITEM_L6.DTYP = ZITEM.DTYP;

   4586  0 000210   003100 061500                    CSR     bolr='003'O
         0 000211   000001 200011                    BDSC    1,,PR0                   by=1,bit=0,n=9
         0 000212   100000 100010                    BDSC    0,,PR1                   by=0,bit=8,n=8

      105     4587    2        ZITEM_L6.ADDR_TYPE = ZITEM.ADDR_TYPE;

   4587  0 000213   003100 061500                    CSR     bolr='003'O
         0 000214   000006 200011                    BDSC    6,,PR0                   by=1,bit=0,n=9
         0 000215   100000 000010                    BDSC    0,,PR1                   by=0,bit=0,n=8

      106     4588    2        ZITEM_L6.DATA_TYPE = BITBIN(ZITEM.PUP.BITS);

   4588  0 000216   000010 236100                    LDQ     8,,PR0
         0 000217   000077 376007                    ANQ     63,DL
         0 000220   200026 756100                    STQ     SIZE+4,,AUTO
         0 000221   003100 061500                    CSR     bolr='003'O
         0 000222   200026 000044                    BDSC    SIZE+4,,AUTO             by=0,bit=0,n=36
         0 000223   100000 270006                    BDSC    0,,PR1                   by=1,bit=7,n=6

      107     4589    2        ZITEM_L6.SIZE = ZITEM.PUP.SIZE;

   4589  0 000224   003100 061500                    CSR     bolr='003'O
PL6.E3A0      #001=DFD$CONVERT_DD File=DFD$CONVERT_DD.:E05TSI                    TUE 07/29/97 14:39 Page:19
         0 000225   000010 000026                    BDSC    8,,PR0                   by=0,bit=0,n=22
         0 000226   100000 440005                    BDSC    0,,PR1                   by=2,bit=4,n=5

      108     4590    2        ZITEM_L6.SCALE = ZITEM.PUP.SCALE;

   4590  0 000227   003100 061500                    CSR     bolr='003'O
         0 000230   000010 440010                    BDSC    8,,PR0                   by=2,bit=4,n=8
         0 000231   100000 600005                    BDSC    0,,PR1                   by=3,bit=0,n=5

      109     4591    3        DO CASE(ZITEM.ADDR_TYPE);

   4591  0 000232   000006 236100                    LDQ     6,,PR0
         0 000233   000022 772000                    QRL     18
         0 000234   000777 376007                    ANQ     511,DL
         0 000235   000100 136007                    SBLQ    64,DL
         0 000236   000005 116007                    CMPQ    5,DL
         0 000237   000241 602006 0                  TNC     s:4591+7,QL
         0 000240   000273 710000 0                  TRA     s:4602
         0 000241   000255 710000 0                  TRA     s:4596
         0 000242   000246 710000 0                  TRA     s:4593
         0 000243   000273 710000 0                  TRA     s:4602
         0 000244   000267 710000 0                  TRA     s:4600
         0 000245   000267 710000 0                  TRA     s:4600

      110     4592    3          CASE(%SPEC_ACODE);

      111     4593    3             ZITEM_L6.VS.ID = ZITEM.SP.VS.ID;

   4593  0 000246   003100 061500                    CSR     bolr='003'O
         0 000247   000007 000011                    BDSC    7,,PR0                   by=0,bit=0,n=9
         0 000250   100001 230010                    BDSC    1,,PR1                   by=1,bit=3,n=8

      112     4594    3             ZITEM_L6.VS.SZ = ZITEM.SP.VS.SZ;

   4594  0 000251   003100 061500                    CSR     bolr='003'O
         0 000252   000007 200011                    BDSC    7,,PR0                   by=1,bit=0,n=9
         0 000253   100001 420010                    BDSC    1,,PR1                   by=2,bit=2,n=8
PL6.E3A0      #001=DFD$CONVERT_DD File=DFD$CONVERT_DD.:E05TSI                    TUE 07/29/97 14:39 Page:20
         0 000254   000304 710000 0                  TRA     s:4606

      113     4595    3          CASE(%DESC_ACODE);

      114     4596    3             ZITEM_L6.VD.TYPE = ZITEM.SP.VD.TYPE;

   4596  0 000255   003100 061500                    CSR     bolr='003'O
         0 000256   000007 000006                    BDSC    7,,PR0                   by=0,bit=0,n=6
         0 000257   100001 040010                    BDSC    1,,PR1                   by=0,bit=4,n=8

      115     4597    3             ZITEM_L6.VD.ID = ZITEM.SP.VD.ID;

   4597  0 000260   003100 061500                    CSR     bolr='003'O
         0 000261   000007 060011                    BDSC    7,,PR0                   by=0,bit=6,n=9
         0 000262   100001 230010                    BDSC    1,,PR1                   by=1,bit=3,n=8

      116     4598    3             ZITEM_L6.VD.DISP = ZITEM.SP.VD.DISP;

   4598  0 000263   003100 061500                    CSR     bolr='003'O
         0 000264   000007 260011                    BDSC    7,,PR0                   by=1,bit=6,n=9
         0 000265   100001 420010                    BDSC    1,,PR1                   by=2,bit=2,n=8
         0 000266   000304 710000 0                  TRA     s:4606

      117     4599    3          CASE(%BIGBASED_ACODE, %BIGSTATIC_ACODE);

      118     4600    3             ZITEM_L6.VALUE.V = ZITEM.VALUE;

   4600  0 000267   003100 061500                    CSR     bolr='003'O
         0 000270   000007 000044                    BDSC    7,,PR0                   by=0,bit=0,n=36
         0 000271   100000 650040                    BDSC    0,,PR1                   by=3,bit=5,n=32
         0 000272   000304 710000 0                  TRA     s:4606

      119     4601    3          CASE(ELSE);

      120     4602    3             ZITEM_L6.ADDRESS.C = ZITEM.ADDRESS.C;

   4602  0 000273   003100 061500                    CSR     bolr='003'O
PL6.E3A0      #001=DFD$CONVERT_DD File=DFD$CONVERT_DD.:E05TSI                    TUE 07/29/97 14:39 Page:21
         0 000274   000007 460006                    BDSC    7,,PR0                   by=2,bit=6,n=6
         0 000275   100000 650001                    BDSC    0,,PR1                   by=3,bit=5,n=1

      121     4603    3             ZITEM_L6.ADDRESS.B = ZITEM.ADDRESS.B;

   4603  0 000276   003100 061500                    CSR     bolr='003'O
         0 000277   000007 630006                    BDSC    7,,PR0                   by=3,bit=3,n=6
         0 000300   100000 660003                    BDSC    0,,PR1                   by=3,bit=6,n=3

      122     4604    3             ZITEM_L6.ADDRESS.W = ZITEM.ADDRESS.W;

   4604  0 000301   003100 061500                    CSR     bolr='003'O
         0 000302   000007 000030                    BDSC    7,,PR0                   by=0,bit=0,n=24
         0 000303   100001 100024                    BDSC    1,,PR1                   by=0,bit=8,n=20

      123     4605    3          END;

      124     4606    2   END CONVERT_ZITEM;

   4606  0 000304   200024 221300                    LDX1  ! SIZE+2,,AUTO
         0 000305   000001 702211                    TSX2  ! 1,X1

      125     4607        %EJECT;
PL6.E3A0      #001=DFD$CONVERT_DD File=DFD$CONVERT_DD.:E05TSI                    TUE 07/29/97 14:39 Page:22
      126     4608    1   CONVERT_DITEM: PROC;

   4608  0 000306   200024 741300       CONVERT_DIT* STX1  ! SIZE+2,,AUTO

      127     4609        /**/
      128     4610    2        DITEM_L6.SMULT = ITEM$ -> DITEM.SMULT;

   4610  0 000307   200015 470500                    LDP0    ITEM$,,AUTO
         0 000310   200014 471500                    LDP1    NEXT_L6$,,AUTO
         0 000311   003100 061500                    CSR     bolr='003'O
         0 000312   000000 000011                    BDSC    0,,PR0                   by=0,bit=0,n=9
         0 000313   100000 220007                    BDSC    0,,PR1                   by=1,bit=2,n=7

      129     4611    2        DITEM_L6.FLAGS.AFLAG = ITEM$ -> DITEM.FLAGS.AFLAG;

   4611  0 000314   003100 060500                    CSL     bolr='003'O
         0 000315   000000 210001                    BDSC    0,,PR0                   by=1,bit=1,n=1
         0 000316   100001 010001                    BDSC    1,,PR1                   by=0,bit=1,n=1

      130     4612    2        DITEM_L6.FLAGS.LFLAG = ITEM$ -> DITEM.FLAGS.LFLAG;

   4612  0 000317   003100 060500                    CSL     bolr='003'O
         0 000320   000000 220001                    BDSC    0,,PR0                   by=1,bit=2,n=1
         0 000321   100001 000001                    BDSC    1,,PR1                   by=0,bit=0,n=1

      131     4613    2        DITEM_L6.OPER.EXPR = ITEM$ -> DITEM.FLAGS.EXPOP;

   4613  0 000322   003100 060500                    CSL     bolr='003'O
         0 000323   000000 250004                    BDSC    0,,PR0                   by=1,bit=5,n=4
         0 000324   100001 020004                    BDSC    1,,PR1                   by=0,bit=2,n=4

      132     4614    2        DITEM_L6.ADDR_TYPE = ITEM$ -> DITEM.ADDR_TYPE;

   4614  0 000325   003100 061500                    CSR     bolr='003'O
         0 000326   000000 400011                    BDSC    0,,PR0                   by=2,bit=0,n=9
         0 000327   100000 040007                    BDSC    0,,PR1                   by=0,bit=4,n=7

PL6.E3A0      #001=DFD$CONVERT_DD File=DFD$CONVERT_DD.:E05TSI                    TUE 07/29/97 14:39 Page:23
      133     4615    2        DITEM_L6.TYPE_CODE = ITEM$ -> DITEM.TYPE_CODE;

   4615  0 000330   003100 061500                    CSR     bolr='003'O
         0 000331   000000 600011                    BDSC    0,,PR0                   by=3,bit=0,n=9
         0 000332   100000 000004                    BDSC    0,,PR1                   by=0,bit=0,n=4

      134     4616    2        DITEM_L6.SIZE = ITEM$ -> DITEM.PUP.SIZE;

   4616  0 000333   003100 061500                    CSR     bolr='003'O
         0 000334   000002 000026                    BDSC    2,,PR0                   by=0,bit=0,n=22
         0 000335   100000 460010                    BDSC    0,,PR1                   by=2,bit=6,n=8

      135     4617    2        DITEM_L6.DATA_TYPE = BITBIN(ITEM$ -> DITEM.PUP.BITS);

   4617  0 000336   000002 236100                    LDQ     2,,PR0
         0 000337   000077 376007                    ANQ     63,DL
         0 000340   200026 756100                    STQ     SIZE+4,,AUTO
         0 000341   003100 061500                    CSR     bolr='003'O
         0 000342   200026 000044                    BDSC    SIZE+4,,AUTO             by=0,bit=0,n=36
         0 000343   100000 400006                    BDSC    0,,PR1                   by=2,bit=0,n=6

      136     4618    3        DO CASE(ITEM$ -> DITEM.ADDR_TYPE);

   4618  0 000344   000000 236100                    LDQ     0,,PR0
         0 000345   000011 772000                    QRL     9
         0 000346   000777 376007                    ANQ     511,DL
         0 000347   000100 136007                    SBLQ    64,DL
         0 000350   000005 116007                    CMPQ    5,DL
         0 000351   000353 602006 0                  TNC     s:4618+7,QL
         0 000352   000415 710000 0                  TRA     s:4633
         0 000353   000367 710000 0                  TRA     s:4623
         0 000354   000360 710000 0                  TRA     s:4620
         0 000355   000411 710000 0                  TRA     s:4631
         0 000356   000411 710000 0                  TRA     s:4631
         0 000357   000411 710000 0                  TRA     s:4631

      137     4619    3          CASE(%SPEC_ACODE);
PL6.E3A0      #001=DFD$CONVERT_DD File=DFD$CONVERT_DD.:E05TSI                    TUE 07/29/97 14:39 Page:24

      138     4620    3             DITEM_L6.VS.ID = ITEM$ -> DITEM.SP.VS.ID;

   4620  0 000360   003100 061500                    CSR     bolr='003'O
         0 000361   000001 000011                    BDSC    1,,PR0                   by=0,bit=0,n=9
         0 000362   100001 230010                    BDSC    1,,PR1                   by=1,bit=3,n=8

      139     4621    3             DITEM_L6.VS.SZ = ITEM$ -> DITEM.SP.VS.SZ;

   4621  0 000363   003100 061500                    CSR     bolr='003'O
         0 000364   000001 200011                    BDSC    1,,PR0                   by=1,bit=0,n=9
         0 000365   100001 420010                    BDSC    1,,PR1                   by=2,bit=2,n=8
         0 000366   000426 710000 0                  TRA     s:4637

      140     4622    3          CASE(%DESC_ACODE);

      141     4623    3             DITEM_L6.VD.TYPE = ITEM$ -> DITEM.SP.VD.TYPE;

   4623  0 000367   003100 061500                    CSR     bolr='003'O
         0 000370   000001 000006                    BDSC    1,,PR0                   by=0,bit=0,n=6
         0 000371   100001 040010                    BDSC    1,,PR1                   by=0,bit=4,n=8

      142     4624    3             IF ITEM$ -> DITEM.SP.VD.TYPE = 6

   4624  0 000372   000001 236100                    LDQ     1,,PR0
         0 000373   770000 376003                    ANQ     -4096,DU
         0 000374   060000 116003                    CMPQ    24576,DU
         0 000375   000402 601000 0                  TNZ     s:4627

      143     4625    3             THEN DITEM_L6.VP.N = ITEM$ -> DITEM.SP.VP.N;

   4625  0 000376   003100 061500                    CSR     bolr='003'O
         0 000377   000001 060022                    BDSC    1,,PR0                   by=0,bit=6,n=18
         0 000400   100001 230020                    BDSC    1,,PR1                   by=1,bit=3,n=16
         0 000401   000426 710000 0                  TRA     s:4637

      144     4626    4             ELSE DO;
PL6.E3A0      #001=DFD$CONVERT_DD File=DFD$CONVERT_DD.:E05TSI                    TUE 07/29/97 14:39 Page:25

      145     4627    4                  DITEM_L6.VD.ID = ITEM$ -> DITEM.SP.VD.ID;

   4627  0 000402   003100 061500                    CSR     bolr='003'O
         0 000403   000001 060011                    BDSC    1,,PR0                   by=0,bit=6,n=9
         0 000404   100001 230010                    BDSC    1,,PR1                   by=1,bit=3,n=8

      146     4628    4                  DITEM_L6.VD.DISP = ITEM$ -> DITEM.SP.VD.DISP;

   4628  0 000405   003100 061500                    CSR     bolr='003'O
         0 000406   000001 260011                    BDSC    1,,PR0                   by=1,bit=6,n=9
         0 000407   100001 420010                    BDSC    1,,PR1                   by=2,bit=2,n=8

      147     4629    4                END;

   4629  0 000410   000426 710000 0                  TRA     s:4637

      148     4630    3          CASE(%BIGBASED_ACODE, %BIGSTATIC_ACODE, %CONST_ACODE);

      149     4631    3             DITEM_L6.VALUE.V = ITEM$ -> DITEM.VALUE;

   4631  0 000411   003100 061500                    CSR     bolr='003'O
         0 000412   000001 000044                    BDSC    1,,PR0                   by=0,bit=0,n=36
         0 000413   100001 100024                    BDSC    1,,PR1                   by=0,bit=8,n=20
         0 000414   000426 710000 0                  TRA     s:4637

      150     4632    3          CASE(ELSE);

      151     4633    3             DITEM_L6.ADDRESS.C = ITEM$ -> DITEM.ADDRESS.C;

   4633  0 000415   003100 061500                    CSR     bolr='003'O
         0 000416   000001 460006                    BDSC    1,,PR0                   by=2,bit=6,n=6
         0 000417   100000 650001                    BDSC    0,,PR1                   by=3,bit=5,n=1

      152     4634    3             DITEM_L6.ADDRESS.B = ITEM$ -> DITEM.ADDRESS.B;

   4634  0 000420   003100 061500                    CSR     bolr='003'O
PL6.E3A0      #001=DFD$CONVERT_DD File=DFD$CONVERT_DD.:E05TSI                    TUE 07/29/97 14:39 Page:26
         0 000421   000001 630006                    BDSC    1,,PR0                   by=3,bit=3,n=6
         0 000422   100000 660003                    BDSC    0,,PR1                   by=3,bit=6,n=3

      153     4635    3             DITEM_L6.ADDRESS.W = ITEM$ -> DITEM.ADDRESS.W;

   4635  0 000423   003100 061500                    CSR     bolr='003'O
         0 000424   000001 000030                    BDSC    1,,PR0                   by=0,bit=0,n=24
         0 000425   100001 100024                    BDSC    1,,PR1                   by=0,bit=8,n=20

      154     4636    3          END;

      155     4637    2   END CONVERT_DITEM;

   4637  0 000426   200024 221300                    LDX1  ! SIZE+2,,AUTO
         0 000427   000001 702211                    TSX2  ! 1,X1

      156     4638        %EJECT;
PL6.E3A0      #001=DFD$CONVERT_DD File=DFD$CONVERT_DD.:E05TSI                    TUE 07/29/97 14:39 Page:27
      157     4639    1   CONVERT_MITEM: PROC;

   4639  0 000430   200024 741300       CONVERT_MIT* STX1  ! SIZE+2,,AUTO

      158     4640        /**/
      159     4641    2        MITEM_L6.IMULT = MULT$ -> MITEM.IMULT;

   4641  0 000431   200017 470500                    LDP0    MULT$,,AUTO
         0 000432   200014 471500                    LDP1    NEXT_L6$,,AUTO
         0 000433   003100 060500                    CSL     bolr='003'O
         0 000434   000000 000001                    BDSC    0,,PR0                   by=0,bit=0,n=1
         0 000435   100000 000001                    BDSC    0,,PR1                   by=0,bit=0,n=1

      160     4642    2        MITEM_L6.IOFF = MULT$ -> MITEM.IOFF;

   4642  0 000436   003100 060500                    CSL     bolr='003'O
         0 000437   000000 010001                    BDSC    0,,PR0                   by=0,bit=1,n=1
         0 000440   100000 010001                    BDSC    0,,PR1                   by=0,bit=1,n=1

      161     4643    2        MITEM_L6.NEWOFF = MULT$ -> MITEM.NEWOFF;

   4643  0 000441   003100 060500                    CSL     bolr='003'O
         0 000442   000000 020001                    BDSC    0,,PR0                   by=0,bit=2,n=1
         0 000443   100000 020001                    BDSC    0,,PR1                   by=0,bit=2,n=1

      162     4644    2        MITEM_L6.CONT = MULT$ -> MITEM.CONT;

   4644  0 000444   003100 060500                    CSL     bolr='003'O
         0 000445   000000 030001                    BDSC    0,,PR0                   by=0,bit=3,n=1
         0 000446   100000 030001                    BDSC    0,,PR1                   by=0,bit=3,n=1

      163     4645    2        MITEM_L6.MULT = MULT$ -> MITEM.MULT;

   4645  0 000447   003100 061500                    CSR     bolr='003'O
         0 000450   000001 000044                    BDSC    1,,PR0                   by=0,bit=0,n=36
         0 000451   100000 650040                    BDSC    0,,PR1                   by=3,bit=5,n=32

PL6.E3A0      #001=DFD$CONVERT_DD File=DFD$CONVERT_DD.:E05TSI                    TUE 07/29/97 14:39 Page:28
      164     4646    2        MITEM_L6.OFS = MULT$ -> MITEM.OFS;

   4646  0 000452   003100 061500                    CSR     bolr='003'O
         0 000453   000002 000044                    BDSC    2,,PR0                   by=0,bit=0,n=36
         0 000454   100001 610040                    BDSC    1,,PR1                   by=3,bit=1,n=32

      165     4647    2        MITEM_L6.ELMNTSIZ = MULT$ -> MITEM.ELMNTSIZ;

   4647  0 000455   003100 061500                    CSR     bolr='003'O
         0 000456   000003 000044                    BDSC    3,,PR0                   by=0,bit=0,n=36
         0 000457   100000 040034                    BDSC    0,,PR1                   by=0,bit=4,n=28

      166     4648    2   END CONVERT_MITEM;

   4648  0 000460   200024 221300                    LDX1  ! SIZE+2,,AUTO
         0 000461   000001 702211                    TSX2  ! 1,X1
      167     4649
      168     4650    1   END DFD$CONVERT_DD;

PL6.E3A0      #001=DFD$CONVERT_DD File=DFD$CONVERT_DD.:E05TSI                    TUE 07/29/97 14:39 Page:29
--  Include file information  --

   GD$MSG_M.:E05TOU  is referenced.
   DD_SD_M.:E05TOU  is referenced.
   XUH_MACRO_C.:E05TOU  is referenced.
   DD_ERR_C.:E05TOU  is referenced.
   DD_SRTN_C.:E05TOU  is referenced.
   DD_ACODE_C.:E05TOU  is referenced.
   DD_ICODE_C.:E05TOU  is referenced.
   DD$DITEM.:E05TOU  cannot be made into a system file and is referenced.
   B$JIT_C.:E05TOU  was found in the system file and is never referenced.
   CP_6_C.:E05TOU  was found in the system file and is never referenced.
      No diagnostics issued in procedure DFD$CONVERT_DD.

   Procedure DFD$CONVERT_DD requires 306 words for executable code.
   Procedure DFD$CONVERT_DD requires 24 words of local(AUTO) storage.

    No errors detected in file DFD$CONVERT_DD.:E05TSI    .
PL6.E3A0      #001=DFD$CONVERT_DD File=DFD$CONVERT_DD.:E05TSI                    TUE 07/29/97 14:39 Page:30
          *** CROSS REFERENCE LISTING ***
**     DENOTES     IDENTIFIER DEFINITION
<<                 IDENTIFIER'S VALUE SET
>>                 IDENTIFIER'S VALUE USED
<>                 IDENTIFIER SET AND/OR USED
--                 IDENTIFIER REFERENCED
PL6.E3A0      #001=DFD$CONVERT_DD File=DFD$CONVERT_DD.:E05TSI                    TUE 07/29/97 14:39 Page:31
          MINI XREF LISTING

CONVERT_DITEM
      4608**PROC     4541--CALL     4566--CALL
CONVERT_MITEM
      4639**PROC     4551--CALL
CONVERT_ZITEM
      4583**PROC     4537--CALL
DD_SIZE
        20**DCL        15--PROC     4576--IF       4577<<ASSIGN
DITEM
       776**DCL      4542--ASSIGN   4567--ASSIGN
DITEM.ADDRESS
       797**DCL       802--REDEF     803--REDEF     804--REDEF
DITEM.ADDRESS.B
       801**DCL      4634>>ASSIGN
DITEM.ADDRESS.C
       800**DCL      4633>>ASSIGN
DITEM.ADDRESS.W
       799**DCL      4635>>ASSIGN
DITEM.ADDR_TYPE
       792**DCL      4563>>IF       4614>>ASSIGN   4618>>DOCASE
DITEM.FLAGS.AFLAG
       782**DCL      4611>>ASSIGN
DITEM.FLAGS.EXPOP
       791**DCL      4560>>IF       4613>>ASSIGN
DITEM.FLAGS.LFLAG
       787**DCL      4612>>ASSIGN
DITEM.PUP.BITS
       834**DCL      4617>>ASSIGN
DITEM.PUP.SIZE
       830**DCL      4616>>ASSIGN
DITEM.SMULT
       777**DCL      4610>>ASSIGN
PL6.E3A0      #001=DFD$CONVERT_DD File=DFD$CONVERT_DD.:E05TSI                    TUE 07/29/97 14:39 Page:32
DITEM.SP.VD
       805**DCL       809--REDEF     812--REDEF
DITEM.SP.VD.DISP
       808**DCL      4628>>ASSIGN
DITEM.SP.VD.ID
       807**DCL      4627>>ASSIGN
DITEM.SP.VD.TYPE
       806**DCL      4623>>ASSIGN   4624>>IF
DITEM.SP.VP.N
       811**DCL      4625>>ASSIGN
DITEM.SP.VS.ID
       813**DCL      4620>>ASSIGN
DITEM.SP.VS.SZ
       814**DCL      4621>>ASSIGN
DITEM.TYPE_CODE
       795**DCL      4547>>ASSIGN   4615>>ASSIGN
DITEM.VALUE
       802**DCL      4631>>ASSIGN
DITEM$
      4522**DCL      4540<<ASSIGN
DITEM_L6
       949**DCL      4543--ASSIGN   4544--ASSIGN   4568--ASSIGN   4569--ASSIGN
DITEM_L6.ADDRESS
       956**DCL       961--REDEF     964--REDEF     970--REDEF     974--REDEF     979--REDEF     983--REDEF
DITEM_L6.ADDRESS.B
       958**DCL      4634<<ASSIGN
DITEM_L6.ADDRESS.C
       957**DCL      4633<<ASSIGN
DITEM_L6.ADDRESS.W
       960**DCL      4635<<ASSIGN
DITEM_L6.ADDR_TYPE
       952**DCL      4614<<ASSIGN
DITEM_L6.DATA_TYPE
       954**DCL      4617<<ASSIGN
DITEM_L6.FLAGS.AFLAG
       967**DCL      4611<<ASSIGN
PL6.E3A0      #001=DFD$CONVERT_DD File=DFD$CONVERT_DD.:E05TSI                    TUE 07/29/97 14:39 Page:33
DITEM_L6.FLAGS.LFLAG
       966**DCL      4612<<ASSIGN
DITEM_L6.OPER.EXPR
       972**DCL      4613<<ASSIGN
DITEM_L6.SIZE
       955**DCL      4616<<ASSIGN
DITEM_L6.SMULT
       953**DCL      4610<<ASSIGN
DITEM_L6.TYPE_CODE
       951**DCL      4615<<ASSIGN
DITEM_L6.VALUE.V
       963**DCL      4631<<ASSIGN
DITEM_L6.VD.DISP
       978**DCL      4628<<ASSIGN
DITEM_L6.VD.ID
       977**DCL      4627<<ASSIGN
DITEM_L6.VD.TYPE
       976**DCL      4623<<ASSIGN
DITEM_L6.VP.N
       982**DCL      4625<<ASSIGN
DITEM_L6.VS.ID
       985**DCL      4620<<ASSIGN
DITEM_L6.VS.SZ
       986**DCL      4621<<ASSIGN
EXPR_OP
        19**DCL        15--PROC     4561<<ASSIGN   4562<<ASSIGN
GD$MSG.BRKRQS.IF$CONST.SIZE
      4430**DCL      4430--REDEF
GD$MSG.BRKRQS.IF$CONST.TEXT
      4430**DCL      4431--REDEF    4431--REDEF    4432--REDEF    4433--REDEF
GD$MSG.BRKRSP.BRK#
      4444**DCL      4444--REDEF
GD$MSG.BRKRSP.USER#
      4444**DCL      4444--REDEF
GD$MSG.LETMEM_D.VALUE.SIZE
      4402**DCL      4402--REDEF
PL6.E3A0      #001=DFD$CONVERT_DD File=DFD$CONVERT_DD.:E05TSI                    TUE 07/29/97 14:39 Page:34
GD$MSG.LETMEM_D.VALUE.TEXT
      4403**DCL      4403--REDEF    4403--REDEF    4404--REDEF    4405--REDEF
GD$MSG.MESSAGE
      4384**DCL      4384--REDEF    4385--REDEF    4385--REDEF    4386--REDEF    4397--REDEF    4410--REDEF
      4415--REDEF    4422--REDEF    4438--REDEF    4443--REDEF    4449--REDEF    4450--REDEF    4479--REDEF
      4481--REDEF    4492--REDEF    4499--REDEF    4511--REDEF
GD$MSG.SUBFNC
      4379**DCL      4379--REDEF    4383--REDEF
GD$MSG.TSA.I
      4451**DCL      4451--REDEF
GD$MSG.TSA.S
      4453**DCL      4453--REDEF
GD$MSG.USERQS.ASDT$
      4479**DCL      4479--REDEF    4480--REDEF
HOST_DD$
        18**DCL        15--PROC     4529>>ASSIGN   4532>>ASSIGN
ITEM$
      4521**DCL      4532<<ASSIGN   4540>>ASSIGN   4542>>ASSIGN   4547>>ASSIGN   4560>>IF       4563>>IF
      4565<<ASSIGN   4574<<ASSIGN   4610>>ASSIGN   4611>>ASSIGN   4612>>ASSIGN   4613>>ASSIGN   4614>>ASSIGN
      4615>>ASSIGN   4616>>ASSIGN   4617>>ASSIGN   4618>>DOCASE   4620>>ASSIGN   4621>>ASSIGN   4623>>ASSIGN
      4624>>IF       4625>>ASSIGN   4627>>ASSIGN   4628>>ASSIGN   4631>>ASSIGN   4633>>ASSIGN   4634>>ASSIGN
      4635>>ASSIGN
L6_DD$
        17**DCL        15--PROC     4530>>ASSIGN
MITEM
       856**DCL      4552--ASSIGN
MITEM.AMULT.ADR
       874**DCL       878--REDEF
MITEM.AOFS.ADR
       889**DCL       893--REDEF
MITEM.CONT
       866**DCL      4644>>ASSIGN
MITEM.ELMNTSIZ
       900**DCL      4647>>ASSIGN
MITEM.IMULT
       857**DCL      4641>>ASSIGN
PL6.E3A0      #001=DFD$CONVERT_DD File=DFD$CONVERT_DD.:E05TSI                    TUE 07/29/97 14:39 Page:35
MITEM.IOFF
       860**DCL      4642>>ASSIGN
MITEM.MULT
       870**DCL       872--REDEF    4645>>ASSIGN
MITEM.NEWOFF
       863**DCL      4643>>ASSIGN
MITEM.OFS
       885**DCL       887--REDEF    4646>>ASSIGN
MITEM_L6
       992**DCL      4553--ASSIGN   4554--ASSIGN
MITEM_L6.CONT
      1003**DCL      4644<<ASSIGN
MITEM_L6.ELMNTSIZ
      1006**DCL      4647<<ASSIGN
MITEM_L6.IMULT
       994**DCL      4641<<ASSIGN
MITEM_L6.IOFF
       997**DCL      4642<<ASSIGN
MITEM_L6.MULT
      1007**DCL      1009--REDEF    4645<<ASSIGN
MITEM_L6.NEWOFF
      1000**DCL      4643<<ASSIGN
MITEM_L6.OFS
      1016**DCL      1018--REDEF    4646<<ASSIGN
MULT$
      4523**DCL      4550<<ASSIGN   4641>>ASSIGN   4642>>ASSIGN   4643>>ASSIGN   4644>>ASSIGN   4645>>ASSIGN
      4646>>ASSIGN   4647>>ASSIGN
NEXT$
      4524**DCL      4542<<ASSIGN   4550>>ASSIGN   4552<<ASSIGN   4552>>ASSIGN   4565>>ASSIGN   4567<<ASSIGN
      4567>>ASSIGN   4574>>ASSIGN
NEXT_L6$
      4520**DCL       949--IMP-PTR   992--IMP-PTR  4533<<ASSIGN   4535>>IF       4543<<ASSIGN   4543>>ASSIGN
      4545>>IF       4553<<ASSIGN   4553>>ASSIGN   4555>>IF       4568<<ASSIGN   4568>>ASSIGN   4570>>IF
      4610>>ASSIGN   4611>>ASSIGN   4612>>ASSIGN   4613>>ASSIGN   4614>>ASSIGN   4615>>ASSIGN   4616>>ASSIGN
      4617>>ASSIGN   4620>>ASSIGN   4621>>ASSIGN   4623>>ASSIGN   4625>>ASSIGN   4627>>ASSIGN   4628>>ASSIGN
      4631>>ASSIGN   4633>>ASSIGN   4634>>ASSIGN   4635>>ASSIGN   4641>>ASSIGN   4642>>ASSIGN   4643>>ASSIGN
PL6.E3A0      #001=DFD$CONVERT_DD File=DFD$CONVERT_DD.:E05TSI                    TUE 07/29/97 14:39 Page:36
      4644>>ASSIGN   4645>>ASSIGN   4646>>ASSIGN   4647>>ASSIGN
SDD$
       126**DCL       776--IMP-PTR
SIZE
      4526**DCL      4528<<ASSIGN   4534<<ASSIGN   4534>>ASSIGN   4544<<ASSIGN   4544>>ASSIGN   4554<<ASSIGN
      4554>>ASSIGN   4569<<ASSIGN   4569>>ASSIGN   4577>>ASSIGN
S_D.CURRENT_CHANNEL
      3795**DCL      3797--REDEF
S_D.DEBUGA
      2947**DCL      2949--REDEF
S_D.EIS
      3905**DCL      3934--REDEF
S_D.ERROR
      2876**DCL      4580<<ASSIGN
S_D.HOST_MESSAGE_BUF_REMOTE
      3838**DCL      3839--REDEF    3853--REDEF
S_D.JDE
      3452**DCL      3453--REDEF
S_D.L$.VALUE
      3005**DCL      3011--REDEF    3019--REDEF    3022--REDEF    3025--REDEF    3028--REDEF
S_D.L$.VALUE.L
      3006**DCL      3007--REDEF    3008--REDEF
S_D.L6_MESSAGE_BUF
      3859**DCL      3861--REDEF    4531--ASSIGN
S_D.OUTPUT
      3825**DCL      3827--REDEF
S_D.REMOTE_MSG.FNCC
      3844**DCL      3845--REDEF
S_D.REMOTE_MSG.STXC
      3840**DCL      3841--REDEF
S_D.REMOTE_MSG.SUBFNCC
      3848**DCL      3849--REDEF
S_D.SV
      2904**DCL      2925--REDEF
S_D$
      4156**DCL      2852--IMP-PTR  4580>>ASSIGN
PL6.E3A0      #001=DFD$CONVERT_DD File=DFD$CONVERT_DD.:E05TSI                    TUE 07/29/97 14:39 Page:37
S_D_L6_MESSAGE$
      4193**DCL      4379--IMP-PTR  4531>>ASSIGN
TOOLONG
      4576**LABEL    4536--GOTO     4546--GOTO     4556--GOTO     4571--GOTO
TYPE_CODE
      4525**DCL      4538<<ASSIGN   4539>>DOWHILE  4547<<ASSIGN   4548>>DOCASE
ZITEM
       704**DCL      4532--ASSIGN
ZITEM.ADDRESS
       738**DCL       743--REDEF     744--REDEF     745--REDEF
ZITEM.ADDRESS.B
       742**DCL      4603>>ASSIGN
ZITEM.ADDRESS.C
       741**DCL      4602>>ASSIGN
ZITEM.ADDRESS.W
       740**DCL      4604>>ASSIGN
ZITEM.ADDR_TYPE
       732**DCL      4587>>ASSIGN   4591>>DOCASE
ZITEM.DTYP
       720**DCL      4586>>ASSIGN
ZITEM.FLAGS.ADDREXP
       717**DCL      4585>>ASSIGN
ZITEM.PUP.BITS
       762**DCL      4588>>ASSIGN
ZITEM.PUP.SCALE
       761**DCL      4590>>ASSIGN
ZITEM.PUP.SIZE
       760**DCL      4589>>ASSIGN
ZITEM.SP.VD
       746**DCL       750--REDEF     753--REDEF
ZITEM.SP.VD.DISP
       749**DCL      4598>>ASSIGN
ZITEM.SP.VD.ID
       748**DCL      4597>>ASSIGN
ZITEM.SP.VD.TYPE
       747**DCL      4596>>ASSIGN
PL6.E3A0      #001=DFD$CONVERT_DD File=DFD$CONVERT_DD.:E05TSI                    TUE 07/29/97 14:39 Page:38
ZITEM.SP.VS.ID
       754**DCL      4593>>ASSIGN
ZITEM.SP.VS.SZ
       755**DCL      4594>>ASSIGN
ZITEM.VALUE
       743**DCL      4600>>ASSIGN
ZITEM$
       127**DCL       704--IMP-PTR  4529<<ASSIGN   4585>>ASSIGN   4586>>ASSIGN   4587>>ASSIGN   4588>>ASSIGN
      4589>>ASSIGN   4590>>ASSIGN   4591>>DOCASE   4593>>ASSIGN   4594>>ASSIGN   4596>>ASSIGN   4597>>ASSIGN
      4598>>ASSIGN   4600>>ASSIGN   4602>>ASSIGN   4603>>ASSIGN   4604>>ASSIGN
ZITEM_L6
       907**DCL      4533--ASSIGN   4534--ASSIGN
ZITEM_L6.ADDRESS
       919**DCL       924--REDEF     926--REDEF     931--REDEF     936--REDEF     940--REDEF
ZITEM_L6.ADDRESS.B
       921**DCL      4603<<ASSIGN
ZITEM_L6.ADDRESS.C
       920**DCL      4602<<ASSIGN
ZITEM_L6.ADDRESS.W
       923**DCL      4604<<ASSIGN
ZITEM_L6.ADDR_TYPE
       909**DCL      4587<<ASSIGN
ZITEM_L6.DATA_TYPE
       911**DCL       912--REDEF    4588<<ASSIGN
ZITEM_L6.DTYP
       910**DCL      4586<<ASSIGN
ZITEM_L6.FLAGS.ADDREXP
       928**DCL      4585<<ASSIGN
ZITEM_L6.SCALE
       918**DCL      4590<<ASSIGN
ZITEM_L6.SIZE
       917**DCL      4589<<ASSIGN
ZITEM_L6.VALUE.V
       925**DCL      4600<<ASSIGN
ZITEM_L6.VD.DISP
       935**DCL      4598<<ASSIGN
PL6.E3A0      #001=DFD$CONVERT_DD File=DFD$CONVERT_DD.:E05TSI                    TUE 07/29/97 14:39 Page:39
ZITEM_L6.VD.ID
       934**DCL      4597<<ASSIGN
ZITEM_L6.VD.TYPE
       933**DCL      4596<<ASSIGN
ZITEM_L6.VS.ID
       942**DCL      4593<<ASSIGN
ZITEM_L6.VS.SZ
       943**DCL      4594<<ASSIGN
ZITEM_L6$
       129**DCL       907--IMP-PTR  4530<<ASSIGN   4533>>ASSIGN   4585>>ASSIGN   4586>>ASSIGN   4587>>ASSIGN
      4588>>ASSIGN   4589>>ASSIGN   4590>>ASSIGN   4593>>ASSIGN   4594>>ASSIGN   4596>>ASSIGN   4597>>ASSIGN
      4598>>ASSIGN   4600>>ASSIGN   4602>>ASSIGN   4603>>ASSIGN   4604>>ASSIGN
ZITEM_L6_END$
      4519**DCL      4531<<ASSIGN   4535>>IF       4545>>IF       4555>>IF       4570>>IF
PL6.E3A0      #001=DFD$CONVERT_DD File=DFD$CONVERT_DD.:E05TSI                    TUE 07/29/97 14:39 Page:40
              *** CROSS REFERENCE LISTING ***
    **     DENOTES     IDENTIFIER DEFINITION
    <<                 IDENTIFIER'S VALUE SET
    >>                 IDENTIFIER'S VALUE USED
    <>                 IDENTIFIER SET AND/OR USED
    --                 IDENTIFIER REFERENCED
PL6.E3A0      #001=DFD$CONVERT_DD File=DFD$CONVERT_DD.:E05TSI                    TUE 07/29/97 14:39 Page:41
              MINI UREF LISTING

DFD$CONVERT_DD      15**PROC
SDD_L6$     128**DCL
S_D_ACCESS$    4171**DCL
S_D_ANLZ$    4173**DCL
S_D_ASTACKOFF$    4172**DCL
S_D_BREAK$    4174**DCL
S_D_DO_SCAN$    4175**DCL
S_D_ERROR$    4176**DCL
S_D_FAULTCMD$$    4177**DCL
S_D_FAULTINS$$    4178**DCL
S_D_GOIC$    4179**DCL
S_D_GO_MODE$    4180**DCL
S_D_HOST_MESSAGE$    4192**DCL
S_D_HW_PTB_UNITS$    4196**DCL
S_D_HW_RES_MEM$    4194**DCL
S_D_HW_WSQ0PT$    4195**DCL
S_D_IPRFLT$    4182**DCL
S_D_IXFIX$    4181**DCL
S_D_REM_ACCESS$    4183**DCL
S_D_REM_DISKBOOT$    4185**DCL
S_D_REM_DO_SCAN$    4184**DCL
S_D_RETURNN$    4186**DCL
S_D_SAD$    4187**DCL
S_D_SAVEIC$    4188**DCL
S_D_SEG$    4170**DCL
S_D_TCB$$    4189**DCL
S_D_UREG$$    4190**DCL
S_D_USS$$    4191**DCL
