VERSION E05

PL6.E3A0      #001=DFK$EVAL File=DFK$EVAL.:E05TSI                                TUE 07/29/97 14:39 Page:1
        1        1        /*M* DFK$EVAL - Interface module to FD EVAL/GETADDR routines */
        2        2        /*T***********************************************************/
        3        3        /*T*                                                         */
        4        4        /*T* Copyright (c) Bull HN Information Systems Inc., 1997    */
        5        5        /*T*                                                         */
        6        6        /*T***********************************************************/
        7        7        /*X* DMR,PLM=5,IND=5,CSU=3,EXM=0,ECU=3,MOC,DCI=5,CRT=5 */
        8        8        %SET LISTSUB='1'B;
        9        9        /*F* NAME: DFK$EVAL
       10       10             PURPOSE:
       11       11                   This module converts the data descriptor into L6 format
       12       12                   and writes a message to FD containing the data descriptor.
       13       13                   The data descriptor is evaluated in FD and get back
       14       14                   ADDRESS, SEG, DESC#, NOT_IS, SIZE, and EXPR_OP values.
       15       15             DESCRIPTION:
       16       16                   Input is data descriptor @ S.D.DESC$
       17       17                   Output is ADDRESS, SEG, DESC#, NOT_IS, EXPR_OP, SIZE -
       18       18                   meanings of which can be found in commentary in DDK$EVAL */
       19       19
       20       20        DFK$EVAL: PROC(VALUE, ADDRESS, SEG, DESC#, NOT_IS, SIZE, EXPR_OP, CACHE) ALTRET;
       21       21        /* Parms */
       22       22    1   DCL 1 VALUE ALIGNED,
       23       23    1         2 SIZE UBIN WORD,
       24       24    1         2 OPS(0:15) UBIN WORD;
       25       25    1   DCL ADDRESS SBIN;
       26       26    1   DCL SEG UBIN(36);
       27       27    1   DCL DESC# UBIN(36);
       28       28    1   DCL NOT_IS BIT(1) ALIGNED;
       29       29    1   DCL SIZE UBIN;
       30       30    1   DCL EXPR_OP BIT(1) ALIGNED;
       31       31    1   DCL CACHE BIT(1) ALIGNED;
       32       32    1   DCL DISP BIT(1) ALIGNED;
       33       33    1   DCL TEMP$ PTR;
       34       34    1   DCL TEMP1 REDEF TEMP$ UBIN(36) ALIGNED;
       35       35    1   DCL 1 TEMP1B REDEF TEMP$ ALIGNED,
       36       36    1         2 * UBIN(4) UNAL,
       37       37    1         2 B1 UBIN(8) UNAL,
PL6.E3A0      #001=DFK$EVAL File=DFK$EVAL.:E05TSI                                TUE 07/29/97 14:39 Page:2
       38       38    1         2 B2 UBIN(8) UNAL,
       39       39    1         2 B3 UBIN(8) UNAL,
       40       40    1         2 B4 UBIN(8) UNAL;
       41       41    1   DCL TEMP2 UBIN(36) ALIGNED;
       42       42    1   DCL 1 TEMP2B REDEF TEMP2 ALIGNED,
       43       43    1         2 * BIT(1) UNAL,
       44       44    1         2 B1 UBIN(8) UNAL,
       45       45    1         2 * BIT(1) UNAL,
       46       46    1         2 B2 UBIN(8) UNAL,
       47       47    1         2 * BIT(1) UNAL,
       48       48    1         2 B3 UBIN(8) UNAL,
       49       49    1         2 * BIT(1) UNAL,
       50       50    1         2 B4 UBIN(8) UNAL;
       51       51        /* Local Auto */
       52       52    1   DCL I UBIN;
       53       53    1   DCL EXPROP BIT(1) ALIGNED;
       54       54        /* Includes and Based structures */
       55       55        %INCLUDE CP_6;
       56      136        %INCLUDE DU_SCODE_C;
       57      149        %FPT_SCREECH(FPTN=SNAP_MESSAGE,STCLASS=SYMREF READONLY);
       58      163        %VLP_SCODE(FPTN=SC_MESSAGE, STCLASS=SYMREF READONLY);
       59      224        %INCLUDE DD$DITEM;
       12+     327             %LIST;
       13+     328    1        DCL SDD$ PTR;
       14+     329    1        DCL ZITEM$ PTR;
       15+     330    1        DCL SDD_L6$ PTR;
       16+     331    1        DCL ZITEM_L6$ PTR;
       60      905        %ZITEM;
       61      977        %INCLUDE XUH_MACRO_C;
       62     1061        %INCLUDE DD_SD_M;
       63     2397        %S_D;
       64     3715        %S_D_PTRS;
       65     3752        %INCLUDE GD$MSG_M;
       66     3916        %GD$MSG(FPTN=GD$MSG,STCLASS="BASED(S_D_L6_MESSAGE$)",L6=YES,L6PTR="UBIN(32) UNAL");
       67     4072        %GD$MSG(FPTN=GD$MSG_HOST,STCLASS="BASED(S_D_HOST_MESSAGE$)",L6=NO);
       68     4228        %INCLUDE GD_EQUS_E;
       69     4389        %INCLUDE DD$BASED;
PL6.E3A0      #001=DFK$EVAL File=DFK$EVAL.:E05TSI                                TUE 07/29/97 14:39 Page:3
       70     5692        %FPRG$CONTEXT;
       71     5755        %ALL_ATTACH;
       72     5770        %INCLUDE DD_SUBS_C;
       73     6041        %INCLUDE DD_ERR_C;
       74     6438        /* Entry DCLs */
       75     6439    1   DCL DDE$ERROR ENTRY;
       76     6440    1   DCL DFD$CONVERT_DD ENTRY(4) ALTRET;
       77     6441    1   DCL DFQ$READ_FD ENTRY(2) ALTRET;
       78     6442    1   DCL DFQ$WRITE_FD ENTRY(1) ALTRET;
       79     6443    1   DCL DUE$ERRMSG ENTRY;
       80     6444    1   DCL DUE$GERRMSG ENTRY;
       81     6445        /**/
       82     6446    1        DISP = '0'B;
       83     6447    1        GOTO COMMON;
       84     6448
       85     6449    1   DFK$EVAL_DISP: ENTRY(VALUE, ADDRESS, SEG, DESC#, NOT_IS, SIZE, EXPR_OP, CACHE)
              6449            ALTRET;
       86     6450
       87     6451    1        DISP = '1'B;
       88     6452
       89     6453    1   COMMON: ;
       90     6454    1        GD$MSG = '0'B;
       91     6455                                           /* Convert data descriptor to L6 format */
       92     6456    1        CALL DFD$CONVERT_DD(ADDR(GD$MSG.DISPMEM_D.DATA_DESC), S_D.DESC$, EXPROP) ALTRET
              6456                 (ARET);
       93     6457    1        IF EXPROP
       94     6458    2        THEN DO;
       95     6459    2             GD$MSG.DISPMEM_D.EXPR_OP = '1'B;
       96     6460    2             EXPR_OP = '1'B;
       97     6461    2           END;
       98     6462    1        ELSE EXPR_OP = '0'B;
       99     6463    1        ZITEM$ = S_D.DESC$;
      100     6464    1        S_D.DESC$ = PINCRW(S_D.DESC$, ZITEM.SIZE);
      101     6465                                                /* Set up message to send to FD */
      102     6466    1        GD$MSG.FNC = %GD#RQSDISPMEM_D;
      103     6467    1        GD$MSG.DISPMEM_D.DD_EXISTS = '1'B;
      104     6468    1        IF S_D.DO$ ~= ADDR(NIL) AND
PL6.E3A0      #001=DFK$EVAL File=DFK$EVAL.:E05TSI                                TUE 07/29/97 14:39 Page:4
      105     6469    1          (S_D.DO$ -> ALL_ATTACH.CMD = 7 /* C_DUMP */ OR
      106     6470    1          S_D.DO$ -> ALL_ATTACH.CMD = 28 /* C_MODIFY */ OR
      107     6471    1          S_D.DO$ -> ALL_ATTACH.CMD = 38) /* C_MODIFYDW */
      108     6472    1        THEN GD$MSG.DISPMEM_D.DUMPCMD = '1'B;
      109     6473    1        IF S_D.DO$ -> ALL_ATTACH.CMD = 8 /* C_EVAL */
      110     6474    1        THEN GD$MSG.DISPMEM_D.EVALCMD = '1'B;
      111     6475    1        IF DISP
      112     6476    2        THEN DO;
      113     6477    2             GD$MSG.DISPMEM_D.REAL_SIZE = '1'B;
      114     6478    2             GD$MSG.DISPMEM_D.ARRAY_FIRST = S_D.ARRAY.FIRST;
      115     6479    2             GD$MSG.DISPMEM_D.ARRAY_CUR = S_D.ARRAY.CUR;
      116     6480    2             GD$MSG.DISPMEM_D.ARRAY_HIGH = S_D.ARRAY.HIGH;
      117     6481    2           END;
      118     6482
      119     6483                                                /* Write message to FD */
      120     6484    1        CALL DFQ$WRITE_FD (S_D.CURRENT_FPRG_CONTEXT$) ALTRET(ERR);
      121     6485                                                /* Read response from FD */
      122     6486    1        CALL DFQ$READ_FD (S_D.CURRENT_FPRG_CONTEXT$, '0'B) ALTRET(ERR);
      123     6487    1        IF GD$MSG.FNC ~= %GD#RSPDISPMEM
      124     6488    2        THEN DO;
      125     6489    3             DO CASE(GD$MSG.FNC);
      126     6490    3               CASE(%GD#RSPBADADR);
      127     6491    3                  S_D.ERROR = 83;   /* E@BADADDR */
      128     6492    3               CASE(%GD#RSPDD2CPLX);
      129     6493    3                  S_D.ERROR = 37; /* E@EXPR2CMPLX */
      130     6494    3               CASE(%GD#RSPDDNOTL6);
      131     6495    3                  S_D.ERROR = 527;  /* E@DDNOTFEP */
      132     6496    3               CASE(%GD#RSPUNSUPRT);
      133     6497    3                  S_D.ERROR = 503;    /* E@NOTIMP */
      134     6498    3               CASE(%GD#RSPBADPTR);
      135     6499    3                  S_D.ERROR = 104;    /* E@BADPTR */
      136     6500    3               CASE(%GD#RSPNOACCESS);
      137     6501    3                  S_D.ERROR = 78; /* E@ACCESS_FAULT */
      138     6502    3               CASE(ELSE);
      139     6503    3                  IF S_D.CURRENT_FPRG_CONTEXT$ -> FPRG$CONTEXT.XDELTA AND
      140     6504    3                    GD$MSG.FNC = %GD#RSPBADMSG
      141     6505    4                  THEN DO;
PL6.E3A0      #001=DFK$EVAL File=DFK$EVAL.:E05TSI                                TUE 07/29/97 14:39 Page:5
      142     6506    4                       S_D.ERROR = 330; /* E@BADMSG */
      143     6507    4                       GOTO ARET;
      144     6508    4                     END;
      145     6509    3                  IF GD$MSG.FNC = %GD#RSPNAK
      146     6510    4                  THEN DO;
      147     6511    4                       IF S_D.CURRENT_FPRG_CONTEXT$ -> FPRG$CONTEXT.XDELTA
      148     6512    5                       THEN DO;
      149     6513    5                            TEMP1 = BITBIN(GD$MSG.ERROR_D.ERRCODE);
      150     6514    5                            TEMP2B.B1 = TEMP1B.B1;
      151     6515    5                            TEMP2B.B2 = TEMP1B.B2;
      152     6516    5                            TEMP2B.B3 = TEMP1B.B3;
      153     6517    5                            TEMP2B.B4 = TEMP1B.B4;
      154     6518    5                            S_D.JDE = TEMP2;
      155     6519    5                          END;
      156     6520    4                       ELSE S_D.JDE = BITBIN(GD$MSG_HOST.ERROR_D.ERRCODE);
      157     6521    4                       CALL DUE$GERRMSG;
      158     6522    4                       RETURN;
      159     6523    4                     END;
      160     6524    3                  REMEMBER NEVER IN S_D.SCREECH_IC;
      161     6525    3                  CALL M$SCREECH (SNAP_MESSAGE) ALTRET(NEVER);
      162     6526    3   NEVER:
      163     6527    3                  S_D.ERROR = 524; /* E@BADMESSAGE */
      164     6528    3                  CALL DDE$ERROR;
      165     6529    3                  S_D.ERROR = 502;    /* E@DELBUG */
      166     6530    3                  CALL DDE$ERROR;
      167     6531    3               END;
      168     6532    2             GOTO ARET;
      169     6533    2           END;
      170     6534    1        ADDRESS = GD$MSG.DISPMEM_D.ADDRESS;
      171     6535    1        SEG = GD$MSG.DISPMEM_D.SEG;
      172     6536    1        DESC# = GD$MSG.DISPMEM_D.DESC#;
      173     6537    1        NOT_IS = GD$MSG.DISPMEM_D.NOT_IS;
      174     6538    1        SIZE = GD$MSG.DISPMEM_D.SIZE;
      175     6539    1        IF ZITEM.PUP.BITS.PUB = 1          /* PACKED */
      176     6540    1        THEN SIZE = SIZE * 4;
      177     6541    1        S_D.IS_PTR = GD$MSG.DISPMEM_D.IS_PTR;
      178     6542    1        IF DISP
PL6.E3A0      #001=DFK$EVAL File=DFK$EVAL.:E05TSI                                TUE 07/29/97 14:39 Page:6
      179     6543    1        THEN VALUE.SIZE = (SIZE + 15) / 16;
      180     6544    1        ELSE VALUE.SIZE = GD$MSG.DISPMEM_D.DATA_SIZE;
      181     6545    2        DO I = 0 TO VALUE.SIZE - 1;
      182     6546    2             VALUE.OPS(I) = GD$MSG.DISPMEM_D.DATA(I);
      183     6547    2           END;
      184     6548    1        IF DISP
      185     6549    2        THEN DO;
      186     6550    2             S_D.ARRAY.FIRST = '0'B;
      187     6551    2             S_D.ARRAY.CUR = GD$MSG.DISPMEM_D.ARRAY_CUR;
      188     6552    2             S_D.ARRAY.HIGH = GD$MSG.DISPMEM_D.ARRAY_HIGH;
      189     6553    2           END;
      190     6554                  /* Save 16 words, ADDRESS, SEG, DESC#, NOT_IS is S_D for L6 Cache */
      191     6555    1        IF CACHE
      192     6556    2        THEN DO;
      193     6557    2             S_D.MOD_L6.ADDRESS = ADDRESS;
      194     6558    2             S_D.MOD_L6.SEG = SEG;
      195     6559    2             S_D.MOD_L6.DESC# = DESC#;
      196     6560    2             S_D.MOD_L6.NOT_IS = NOT_IS;
      197     6561    2             S_D.MOD_L6.VALUE.SIZE = 16;
      198     6562    3             DO I = 0 TO 15;
      199     6563    3                  S_D.MOD_L6.VALUE.OPS(I) = VALUE.OPS(I);
      200     6564    3                END;
      201     6565    2           END;
      202     6566    1        RETURN;
      203     6567
      204     6568    1   ERR: ;
      205     6569    1        CALL DUE$ERRMSG;
      206     6570    1        S_D.ERROR = 318;          /* E@EVAL_ERROR */
      207     6571    1   ARET: ALTRETURN;
      208     6572    1   END DFK$EVAL;

PL6.E3A0      #001=DFK$EVAL File=DFK$EVAL.:E05TSI                                TUE 07/29/97 14:39 Page:7
--  Include file information  --

   DD_ERR_C.:E05TOU  is referenced.
   DD_SUBS_C.:E05TOU  is referenced.
   DD$BASED.:E05TOU  is referenced.
   GD_EQUS_E.:E05TOU  is referenced.
   GD$MSG_M.:E05TOU  is referenced.
   DD_SD_M.:E05TOU  is referenced.
   XUH_MACRO_C.:E05TOU  is referenced.
   DD_SRTN_C.:E05TOU  is referenced.
   DD_ACODE_C.:E05TOU  is referenced.
   DD_ICODE_C.:E05TOU  is referenced.
   DD$DITEM.:E05TOU  cannot be made into a system file and is referenced.
   DU_SCODE_C.:E05TOU  is referenced.
   CP_6.:E05TOU  cannot be made into a system file and is referenced.
   B$JIT_C.:E05TOU  was found in the system file and is never referenced.
   CP_6_C.:E05TOU  was found in the system file and is referenced.
      No diagnostics issued in procedure DFK$EVAL.

   Procedure DFK$EVAL requires 361 words for executable code.
   Procedure DFK$EVAL requires 24 words of local(AUTO) storage.

    No errors detected in file DFK$EVAL.:E05TSI    .

PL6.E3A0      #001=DFK$EVAL File=DFK$EVAL.:E05TSI                                TUE 07/29/97 14:39 Page:8

 Object Unit name= DFK$EVAL                                   File name= DFK$EVAL.:E05TOU
 UTS= JUL 29 '97 14:39:39.20 TUE                              Compiler= PL-6/E31         Sev=      00
 SharedLib= :SHARED_SYSTEM                                    Alt SharedLib=


    ****  Control sections  ****

 Sect   Type Bound  Init  Size OctSiz  Section name(segment info)
    0   DCB   even  none     0      0  M$UC
    1   Proc  even  none   361    551  DFK$EVAL
    2  RoData even  none     5      5  DFK$EVAL

    ****  Entry defs  ****

                              Check   Calling
                             calling  sequence
  Sect OctLoc Primary Altret sequence   type   Parms  Name
     1      0   yes    yes     yes      Std        8  DFK$EVAL
     1      4          yes     yes      Std        8  DFK$EVAL_DISP

  ****  Entry refs  ****

         Check        Calling
        calling       sequence
Altret sequence SRef   type   Args  Name
 yes     yes           Std       4 DFD$CONVERT_DD
 yes     yes           Std       2 DFQ$READ_FD
         yes           Std       0 DUE$GERRMSG
         yes           Std       0 DUE$ERRMSG
 yes     yes           Std       1 DFQ$WRITE_FD
         yes           Std       0 DDE$ERROR
                       nStd      0 X66_AUTO_N
                       Std       0 B_CONSPOOL_D
                       nStd      0 X66_ARET
                       nStd      0 X66_AALT
PL6.E3A0      #001=DFK$EVAL File=DFK$EVAL.:E05TSI                                TUE 07/29/97 14:39 Page:9

  ****  Data refs  ****

  Flags:  r = read only, s = secondary
Flgs Name                             Flgs Name                             Flgs Name
     M$UC                             r    SNAP_MESSAGE                     r    S_D$
r    S_D_HOST_MESSAGE$                r    S_D_L6_MESSAGE$                       B_VECTNIL

  ****  Segment refs  ****

  Flags:  r = read only, s = secondary
Flgs Name                             Flgs Name                             Flgs Name
     ISSID
PL6.E3A0      #001=DFK$EVAL File=DFK$EVAL.:E05TSI                                TUE 07/29/97 14:39 Page:10


        1        1        /*M* DFK$EVAL - Interface module to FD EVAL/GETADDR routines */
        2        2        /*T***********************************************************/
        3        3        /*T*                                                         */
        4        4        /*T* Copyright (c) Bull HN Information Systems Inc., 1997    */
        5        5        /*T*                                                         */
        6        6        /*T***********************************************************/
        7        7        /*X* DMR,PLM=5,IND=5,CSU=3,EXM=0,ECU=3,MOC,DCI=5,CRT=5 */
        8        8        %SET LISTSUB='1'B;
        9        9        /*F* NAME: DFK$EVAL
       10       10             PURPOSE:
       11       11                   This module converts the data descriptor into L6 format
       12       12                   and writes a message to FD containing the data descriptor.
       13       13                   The data descriptor is evaluated in FD and get back
       14       14                   ADDRESS, SEG, DESC#, NOT_IS, SIZE, and EXPR_OP values.
       15       15             DESCRIPTION:
       16       16                   Input is data descriptor @ S.D.DESC$
       17       17                   Output is ADDRESS, SEG, DESC#, NOT_IS, EXPR_OP, SIZE -
       18       18                   meanings of which can be found in commentary in DDK$EVAL */
       19       19
       20       20        DFK$EVAL: PROC(VALUE, ADDRESS, SEG, DESC#, NOT_IS, SIZE, EXPR_OP, CACHE) ALTRET;

     20  1 000000   000000 700200 xent  DFK$EVAL     TSX0  ! X66_AUTO_N
         1 000001   000030 000010                    ZERO    24,8

       21       21        /* Parms */
       22       22    1   DCL 1 VALUE ALIGNED,
       23       23    1         2 SIZE UBIN WORD,
       24       24    1         2 OPS(0:15) UBIN WORD;
       25       25    1   DCL ADDRESS SBIN;
       26       26    1   DCL SEG UBIN(36);
       27       27    1   DCL DESC# UBIN(36);
       28       28    1   DCL NOT_IS BIT(1) ALIGNED;
       29       29    1   DCL SIZE UBIN;
       30       30    1   DCL EXPR_OP BIT(1) ALIGNED;
       31       31    1   DCL CACHE BIT(1) ALIGNED;
       32       32    1   DCL DISP BIT(1) ALIGNED;
PL6.E3A0      #001=DFK$EVAL File=DFK$EVAL.:E05TSI                                TUE 07/29/97 14:39 Page:11
       33       33    1   DCL TEMP$ PTR;
       34       34    1   DCL TEMP1 REDEF TEMP$ UBIN(36) ALIGNED;
       35       35    1   DCL 1 TEMP1B REDEF TEMP$ ALIGNED,
       36       36    1         2 * UBIN(4) UNAL,
       37       37    1         2 B1 UBIN(8) UNAL,
       38       38    1         2 B2 UBIN(8) UNAL,
       39       39    1         2 B3 UBIN(8) UNAL,
       40       40    1         2 B4 UBIN(8) UNAL;
       41       41    1   DCL TEMP2 UBIN(36) ALIGNED;
       42       42    1   DCL 1 TEMP2B REDEF TEMP2 ALIGNED,
       43       43    1         2 * BIT(1) UNAL,
       44       44    1         2 B1 UBIN(8) UNAL,
       45       45    1         2 * BIT(1) UNAL,
       46       46    1         2 B2 UBIN(8) UNAL,
       47       47    1         2 * BIT(1) UNAL,
       48       48    1         2 B3 UBIN(8) UNAL,
       49       49    1         2 * BIT(1) UNAL,
       50       50    1         2 B4 UBIN(8) UNAL;
       51       51        /* Local Auto */
       52       52    1   DCL I UBIN;
       53       53    1   DCL EXPROP BIT(1) ALIGNED;
       54       54        /* Includes and Based structures */
       55       55        %INCLUDE CP_6;
       56      136        %INCLUDE DU_SCODE_C;
       57      149        %FPT_SCREECH(FPTN=SNAP_MESSAGE,STCLASS=SYMREF READONLY);
       58      163        %VLP_SCODE(FPTN=SC_MESSAGE, STCLASS=SYMREF READONLY);
       59      224        %INCLUDE DD$DITEM;
       12+     327             %LIST;
       13+     328    1        DCL SDD$ PTR;
       14+     329    1        DCL ZITEM$ PTR;
       15+     330    1        DCL SDD_L6$ PTR;
       16+     331    1        DCL ZITEM_L6$ PTR;
       60      905        %ZITEM;
       61      977        %INCLUDE XUH_MACRO_C;
       62     1061        %INCLUDE DD_SD_M;
       63     2397        %S_D;
       64     3715        %S_D_PTRS;
PL6.E3A0      #001=DFK$EVAL File=DFK$EVAL.:E05TSI                                TUE 07/29/97 14:39 Page:12
       65     3752        %INCLUDE GD$MSG_M;
       66     3916        %GD$MSG(FPTN=GD$MSG,STCLASS="BASED(S_D_L6_MESSAGE$)",L6=YES,L6PTR="UBIN(32) UNAL");
       67     4072        %GD$MSG(FPTN=GD$MSG_HOST,STCLASS="BASED(S_D_HOST_MESSAGE$)",L6=NO);
       68     4228        %INCLUDE GD_EQUS_E;
       69     4389        %INCLUDE DD$BASED;
       70     5692        %FPRG$CONTEXT;
       71     5755        %ALL_ATTACH;
       72     5770        %INCLUDE DD_SUBS_C;
       73     6041        %INCLUDE DD_ERR_C;
       74     6438        /* Entry DCLs */
       75     6439    1   DCL DDE$ERROR ENTRY;
       76     6440    1   DCL DFD$CONVERT_DD ENTRY(4) ALTRET;
       77     6441    1   DCL DFQ$READ_FD ENTRY(2) ALTRET;
       78     6442    1   DCL DFQ$WRITE_FD ENTRY(1) ALTRET;
       79     6443    1   DCL DUE$ERRMSG ENTRY;
       80     6444    1   DCL DUE$GERRMSG ENTRY;
       81     6445        /**/
       82     6446    1        DISP = '0'B;

   6446  1 000002   200013 450100                    STZ     DISP,,AUTO

       83     6447    1        GOTO COMMON;

   6447  1 000003   000010 710000 1                  TRA     COMMON

       84     6448
       85     6449    1   DFK$EVAL_DISP: ENTRY(VALUE, ADDRESS, SEG, DESC#, NOT_IS, SIZE, EXPR_OP, CACHE)
              6449            ALTRET;

   6449  1 000004   000000 700200 xent  DFK$EVAL_DI* TSX0  ! X66_AUTO_N
         1 000005   000030 000010                    ZERO    24,8

       86     6450
       87     6451    1        DISP = '1'B;

   6451  1 000006   400000 236003                    LDQ     -131072,DU
         1 000007   200013 756100                    STQ     DISP,,AUTO
PL6.E3A0      #001=DFK$EVAL File=DFK$EVAL.:E05TSI                                TUE 07/29/97 14:39 Page:13

   6451  1 000010                       COMMON       null
       88     6452
       89     6453    1   COMMON: ;
       90     6454    1        GD$MSG = '0'B;

   6454  1 000010   000000 470400 xsym               LDP0    S_D_L6_MESSAGE$
         1 000011   003100 060400                    CSL     bolr='003'O
         1 000012   000002 000001 xsym               BDSC    B_VECTNIL+2              by=0,bit=0,n=1
         1 000013   000000 004720                    BDSC    0,,PR0                   by=0,bit=0,n=2512

       91     6455                                           /* Convert data descriptor to L6 format */
       92     6456    1       CALL DFD$CONVERT_DD(ADDR(GD$MSG.DISPMEM_D.DATA_DESC), S_D.DESC$, EXPROP) ALTRET
              6456                 (ARET);

   6456  1 000014   000000 236000 xsym               LDQ     S_D_L6_MESSAGE$
         1 000015   000000 036000 2                  ADLQ    0
         1 000016   200024 756100                    STQ     ZITEM$+3,,AUTO
         1 000017   200017 631500                    EPPR1   EXPROP,,AUTO
         1 000020   200027 451500                    STP1    ZITEM$+6,,AUTO
         1 000021   000000 236000 xsym               LDQ     S_D$
         1 000022   000041 036003                    ADLQ    33,DU
         1 000023   200026 756100                    STQ     ZITEM$+5,,AUTO
         1 000024   200024 633500                    EPPR3   ZITEM$+3,,AUTO
         1 000025   200025 453500                    STP3    ZITEM$+4,,AUTO
         1 000026   200025 630500                    EPPR0   ZITEM$+4,,AUTO
         1 000027   000021 631400 xsym               EPPR1   B_VECTNIL+17
         1 000030   000000 701000 xent               TSX1    DFD$CONVERT_DD
         1 000031   000550 702000 1                  TSX2    ARET

       93     6457    1        IF EXPROP

   6457  1 000032   200017 234100                    SZN     EXPROP,,AUTO
         1 000033   000043 605000 1                  TPL     s:6462

       94     6458    2        THEN DO;

PL6.E3A0      #001=DFK$EVAL File=DFK$EVAL.:E05TSI                                TUE 07/29/97 14:39 Page:14
       95     6459    2             GD$MSG.DISPMEM_D.EXPR_OP = '1'B;

   6459  1 000034   000000 470400 xsym               LDP0    S_D_L6_MESSAGE$
         1 000035   000001 236003                    LDQ     1,DU
         1 000036   000000 256100                    ORSQ    0,,PR0

       96     6460    2             EXPR_OP = '1'B;

   6460  1 000037   400000 236003                    LDQ     -131072,DU
         1 000040   200011 471500                    LDP1    @EXPR_OP,,AUTO
         1 000041   100000 756100                    STQ     0,,PR1

       97     6461    2           END;

   6461  1 000042   000045 710000 1                  TRA     s:6463

       98     6462    1        ELSE EXPR_OP = '0'B;

   6462  1 000043   200011 470500                    LDP0    @EXPR_OP,,AUTO
         1 000044   000000 450100                    STZ     0,,PR0

       99     6463    1        ZITEM$ = S_D.DESC$;

   6463  1 000045   000000 470400 xsym               LDP0    S_D$
         1 000046   000041 236100                    LDQ     33,,PR0
         1 000047   200021 756100                    STQ     ZITEM$,,AUTO

      100     6464    1        S_D.DESC$ = PINCRW(S_D.DESC$, ZITEM.SIZE);

   6464  1 000050   200021 471500                    LDP1    ZITEM$,,AUTO
         1 000051   100000 720100                    LXL0    0,,PR1
         1 000052   000041 473500                    LDP3    33,,PR0
         1 000053   300000 634510                    EPPR4   0,X0,PR3
         1 000054   000041 454500                    STP4    33,,PR0

      101     6465                                                /* Set up message to send to FD */
      102     6466    1        GD$MSG.FNC = %GD#RQSDISPMEM_D;
PL6.E3A0      #001=DFK$EVAL File=DFK$EVAL.:E05TSI                                TUE 07/29/97 14:39 Page:15

   6466  1 000055   000000 473400 xsym               LDP3    S_D_L6_MESSAGE$
         1 000056   300000 236100                    LDQ     0,,PR3
         1 000057   000001 376000 2                  ANQ     1
         1 000060   036000 276003                    ORQ     15360,DU
         1 000061   300000 756100                    STQ     0,,PR3

      103     6467    1        GD$MSG.DISPMEM_D.DD_EXISTS = '1'B;

   6467  1 000062   000002 236003                    LDQ     2,DU
         1 000063   300000 256100                    ORSQ    0,,PR3

      104     6468    1        IF S_D.DO$ ~= ADDR(NIL) AND

   6468  1 000064   000031 236100                    LDQ     25,,PR0
         1 000065   000001 116000 xsym               CMPQ    B_VECTNIL+1
         1 000066   000102 600000 1                  TZE     s:6473
         1 000067   000031 474500                    LDP4    25,,PR0
         1 000070   400000 236100                    LDQ     0,,PR4
         1 000071   777000 376003                    ANQ     -512,DU
         1 000072   007000 116003                    CMPQ    3584,DU
         1 000073   000100 600000 1                  TZE     s:6472
         1 000074   034000 116003                    CMPQ    14336,DU
         1 000075   000100 600000 1                  TZE     s:6472
         1 000076   046000 116003                    CMPQ    19456,DU
         1 000077   000102 601000 1                  TNZ     s:6473

      105     6469    1          (S_D.DO$ -> ALL_ATTACH.CMD = 7 /* C_DUMP */ OR
      106     6470    1          S_D.DO$ -> ALL_ATTACH.CMD = 28 /* C_MODIFY */ OR
      107     6471    1          S_D.DO$ -> ALL_ATTACH.CMD = 38) /* C_MODIFYDW */
      108     6472    1        THEN GD$MSG.DISPMEM_D.DUMPCMD = '1'B;

   6472  1 000100   010000 236007                    LDQ     4096,DL
         1 000101   300000 256100                    ORSQ    0,,PR3

      109     6473    1        IF S_D.DO$ -> ALL_ATTACH.CMD = 8 /* C_EVAL */

PL6.E3A0      #001=DFK$EVAL File=DFK$EVAL.:E05TSI                                TUE 07/29/97 14:39 Page:16
   6473  1 000102   000031 474500                    LDP4    25,,PR0
         1 000103   400000 236100                    LDQ     0,,PR4
         1 000104   777000 376003                    ANQ     -512,DU
         1 000105   010000 116003                    CMPQ    4096,DU
         1 000106   000111 601000 1                  TNZ     s:6475

      110     6474    1        THEN GD$MSG.DISPMEM_D.EVALCMD = '1'B;

   6474  1 000107   004000 236007                    LDQ     2048,DL
         1 000110   300002 256100                    ORSQ    2,,PR3

      111     6475    1        IF DISP

   6475  1 000111   200013 234100                    SZN     DISP,,AUTO
         1 000112   000132 605000 1                  TPL     s:6484

      112     6476    2        THEN DO;

      113     6477    2             GD$MSG.DISPMEM_D.REAL_SIZE = '1'B;

   6477  1 000113   100000 236007                    LDQ     32768,DL
         1 000114   300000 256100                    ORSQ    0,,PR3

      114     6478    2             GD$MSG.DISPMEM_D.ARRAY_FIRST = S_D.ARRAY.FIRST;

   6478  1 000115   000715 236100                    LDQ     461,,PR0
         1 000116   000025 772000                    QRL     21
         1 000117   300000 676100                    ERQ     0,,PR3
         1 000120   040000 376007                    ANQ     16384,DL
         1 000121   300000 656100                    ERSQ    0,,PR3

      115     6479    2             GD$MSG.DISPMEM_D.ARRAY_CUR = S_D.ARRAY.CUR;

   6479  1 000122   003100 061500                    CSR     bolr='003'O
         1 000123   000716 000044                    BDSC    462,,PR0                 by=0,bit=0,n=36
         1 000124   300000 650020                    BDSC    0,,PR3                   by=3,bit=5,n=16

PL6.E3A0      #001=DFK$EVAL File=DFK$EVAL.:E05TSI                                TUE 07/29/97 14:39 Page:17
      116     6480    2             GD$MSG.DISPMEM_D.ARRAY_HIGH = S_D.ARRAY.HIGH;

   6480  1 000125   000717 236100                    LDQ     463,,PR0
         1 000126   000010 736000                    QLS     8
         1 000127   300001 676100                    ERQ     1,,PR3
         1 000130   000002 376000 2                  ANQ     2
         1 000131   300001 656100                    ERSQ    1,,PR3

      117     6481    2           END;

      118     6482
      119     6483                                                /* Write message to FD */
      120     6484    1        CALL DFQ$WRITE_FD (S_D.CURRENT_FPRG_CONTEXT$) ALTRET(ERR);

   6484  1 000132   000000 236000 xsym               LDQ     S_D$
         1 000133   000102 036003                    ADLQ    66,DU
         1 000134   200024 756100                    STQ     ZITEM$+3,,AUTO
         1 000135   200024 630500                    EPPR0   ZITEM$+3,,AUTO
         1 000136   000017 631400 xsym               EPPR1   B_VECTNIL+15
         1 000137   000000 701000 xent               TSX1    DFQ$WRITE_FD
         1 000140   000542 702000 1                  TSX2    ERR

      121     6485                                                /* Read response from FD */
      122     6486    1        CALL DFQ$READ_FD (S_D.CURRENT_FPRG_CONTEXT$, '0'B) ALTRET(ERR);

   6486  1 000141   000003 236000 2                  LDQ     3
         1 000142   200025 756100                    STQ     ZITEM$+4,,AUTO
         1 000143   000000 236000 xsym               LDQ     S_D$
         1 000144   000102 036003                    ADLQ    66,DU
         1 000145   200024 756100                    STQ     ZITEM$+3,,AUTO
         1 000146   200024 630500                    EPPR0   ZITEM$+3,,AUTO
         1 000147   000020 631400 xsym               EPPR1   B_VECTNIL+16
         1 000150   000000 701000 xent               TSX1    DFQ$READ_FD
         1 000151   000542 702000 1                  TSX2    ERR

      123     6487    1        IF GD$MSG.FNC ~= %GD#RSPDISPMEM

PL6.E3A0      #001=DFK$EVAL File=DFK$EVAL.:E05TSI                                TUE 07/29/97 14:39 Page:18
   6487  1 000152   000000 470400 xsym               LDP0    S_D_L6_MESSAGE$
         1 000153   000000 236100                    LDQ     0,,PR0
         1 000154   776000 376003                    ANQ     -1024,DU
         1 000155   102000 116003                    CMPQ    33792,DU
         1 000156   000353 600000 1                  TZE     s:6534

      124     6488    2        THEN DO;

      125     6489    3             DO CASE(GD$MSG.FNC);

   6489  1 000157   000000 236100                    LDQ     0,,PR0
         1 000160   000034 772000                    QRL     28
         1 000161   000050 136007                    SBLQ    40,DL
         1 000162   000023 116007                    CMPQ    19,DL
         1 000163   000165 602006 1                  TNC     s:6489+6,QL
         1 000164   000240 710000 1                  TRA     s:6503
         1 000165   000230 710000 1                  TRA     s:6499
         1 000166   000234 710000 1                  TRA     s:6501
         1 000167   000240 710000 1                  TRA     s:6503
         1 000170   000240 710000 1                  TRA     s:6503
         1 000171   000240 710000 1                  TRA     s:6503
         1 000172   000240 710000 1                  TRA     s:6503
         1 000173   000240 710000 1                  TRA     s:6503
         1 000174   000240 710000 1                  TRA     s:6503
         1 000175   000240 710000 1                  TRA     s:6503
         1 000176   000240 710000 1                  TRA     s:6503
         1 000177   000240 710000 1                  TRA     s:6503
         1 000200   000240 710000 1                  TRA     s:6503
         1 000201   000240 710000 1                  TRA     s:6503
         1 000202   000240 710000 1                  TRA     s:6503
         1 000203   000240 710000 1                  TRA     s:6503
         1 000204   000210 710000 1                  TRA     s:6491
         1 000205   000224 710000 1                  TRA     s:6497
         1 000206   000214 710000 1                  TRA     s:6493
         1 000207   000220 710000 1                  TRA     s:6495

      126     6490    3               CASE(%GD#RSPBADADR);
PL6.E3A0      #001=DFK$EVAL File=DFK$EVAL.:E05TSI                                TUE 07/29/97 14:39 Page:19

      127     6491    3                  S_D.ERROR = 83;   /* E@BADADDR */

   6491  1 000210   000123 235007                    LDA     83,DL
         1 000211   000000 471400 xsym               LDP1    S_D$
         1 000212   100013 755100                    STA     11,,PR1
         1 000213   000352 710000 1                  TRA     s:6532

      128     6492    3               CASE(%GD#RSPDD2CPLX);

      129     6493    3                  S_D.ERROR = 37; /* E@EXPR2CMPLX */

   6493  1 000214   000045 235007                    LDA     37,DL
         1 000215   000000 471400 xsym               LDP1    S_D$
         1 000216   100013 755100                    STA     11,,PR1
         1 000217   000352 710000 1                  TRA     s:6532

      130     6494    3               CASE(%GD#RSPDDNOTL6);

      131     6495    3                  S_D.ERROR = 527;  /* E@DDNOTFEP */

   6495  1 000220   001017 235007                    LDA     527,DL
         1 000221   000000 471400 xsym               LDP1    S_D$
         1 000222   100013 755100                    STA     11,,PR1
         1 000223   000352 710000 1                  TRA     s:6532

      132     6496    3               CASE(%GD#RSPUNSUPRT);

      133     6497    3                  S_D.ERROR = 503;    /* E@NOTIMP */

   6497  1 000224   000767 235007                    LDA     503,DL
         1 000225   000000 471400 xsym               LDP1    S_D$
         1 000226   100013 755100                    STA     11,,PR1
         1 000227   000352 710000 1                  TRA     s:6532

      134     6498    3               CASE(%GD#RSPBADPTR);

PL6.E3A0      #001=DFK$EVAL File=DFK$EVAL.:E05TSI                                TUE 07/29/97 14:39 Page:20
      135     6499    3                  S_D.ERROR = 104;    /* E@BADPTR */

   6499  1 000230   000150 235007                    LDA     104,DL
         1 000231   000000 471400 xsym               LDP1    S_D$
         1 000232   100013 755100                    STA     11,,PR1
         1 000233   000352 710000 1                  TRA     s:6532

      136     6500    3               CASE(%GD#RSPNOACCESS);

      137     6501    3                  S_D.ERROR = 78; /* E@ACCESS_FAULT */

   6501  1 000234   000116 235007                    LDA     78,DL
         1 000235   000000 471400 xsym               LDP1    S_D$
         1 000236   100013 755100                    STA     11,,PR1
         1 000237   000352 710000 1                  TRA     s:6532

      138     6502    3               CASE(ELSE);

      139     6503    3                  IF S_D.CURRENT_FPRG_CONTEXT$ -> FPRG$CONTEXT.XDELTA AND

   6503  1 000240   000000 471400 xsym               LDP1    S_D$
         1 000241   100102 473500                    LDP3    66,,PR1
         1 000242   300001 236100                    LDQ     1,,PR3
         1 000243   002000 316003                    CANQ    1024,DU
         1 000244   000254 600000 1                  TZE     s:6509
         1 000245   000000 236100                    LDQ     0,,PR0
         1 000246   776000 376003                    ANQ     -1024,DU
         1 000247   140000 116003                    CMPQ    49152,DU
         1 000250   000254 601000 1                  TNZ     s:6509

      140     6504    3                    GD$MSG.FNC = %GD#RSPBADMSG
      141     6505    4                  THEN DO;

      142     6506    4                       S_D.ERROR = 330; /* E@BADMSG */

   6506  1 000251   000512 235007                    LDA     330,DL
         1 000252   100013 755100                    STA     11,,PR1
PL6.E3A0      #001=DFK$EVAL File=DFK$EVAL.:E05TSI                                TUE 07/29/97 14:39 Page:21

      143     6507    4                       GOTO ARET;

   6507  1 000253   000550 710000 1                  TRA     ARET

      144     6508    4                     END;
      145     6509    3                  IF GD$MSG.FNC = %GD#RSPNAK

   6509  1 000254   000000 236100                    LDQ     0,,PR0
         1 000255   776000 376003                    ANQ     -1024,DU
         1 000256   150000 116003                    CMPQ    53248,DU
         1 000257   000327 601000 1                  TNZ     s:6524

      146     6510    4                  THEN DO;

      147     6511    4                       IF S_D.CURRENT_FPRG_CONTEXT$ -> FPRG$CONTEXT.XDELTA

   6511  1 000260   300001 236100                    LDQ     1,,PR3
         1 000261   002000 316003                    CANQ    1024,DU
         1 000262   000316 600000 1                  TZE     s:6520

      148     6512    5                       THEN DO;

      149     6513    5                            TEMP1 = BITBIN(GD$MSG.ERROR_D.ERRCODE);

   6513  1 000263   000000 235100                    LDA     0,,PR0
         1 000264   000001 236100                    LDQ     1,,PR0
         1 000265   000030 773000                    LRL     24
         1 000266   000004 376000 2                  ANQ     4
         1 000267   200014 756100                    STQ     TEMP$,,AUTO

      150     6514    5                            TEMP2B.B1 = TEMP1B.B1;

   6514  1 000270   200014 236100                    LDQ     TEMP$,,AUTO
         1 000271   000003 736000                    QLS     3
         1 000272   200015 676100                    ERQ     TEMP2,,AUTO
         1 000273   377000 376003                    ANQ     130560,DU
PL6.E3A0      #001=DFK$EVAL File=DFK$EVAL.:E05TSI                                TUE 07/29/97 14:39 Page:22
         1 000274   200015 656100                    ERSQ    TEMP2,,AUTO

      151     6515    5                            TEMP2B.B2 = TEMP1B.B2;

   6515  1 000275   200014 236100                    LDQ     TEMP$,,AUTO
         1 000276   000002 736000                    QLS     2
         1 000277   200015 676100                    ERQ     TEMP2,,AUTO
         1 000300   000377 376003                    ANQ     255,DU
         1 000301   200015 656100                    ERSQ    TEMP2,,AUTO

      152     6516    5                            TEMP2B.B3 = TEMP1B.B3;

   6516  1 000302   200014 236100                    LDQ     TEMP$,,AUTO
         1 000303   000001 736000                    QLS     1
         1 000304   200015 676100                    ERQ     TEMP2,,AUTO
         1 000305   377000 376007                    ANQ     130560,DL
         1 000306   200015 656100                    ERSQ    TEMP2,,AUTO

      153     6517    5                            TEMP2B.B4 = TEMP1B.B4;

   6517  1 000307   200014 236100                    LDQ     TEMP$,,AUTO
         1 000310   200015 676100                    ERQ     TEMP2,,AUTO
         1 000311   000377 376007                    ANQ     255,DL
         1 000312   200015 656100                    ERSQ    TEMP2,,AUTO

      154     6518    5                            S_D.JDE = TEMP2;

   6518  1 000313   200015 235100                    LDA     TEMP2,,AUTO
         1 000314   104733 755100                    STA     2523,,PR1

      155     6519    5                          END;

   6519  1 000315   000323 710000 1                  TRA     s:6521

      156     6520    4                       ELSE S_D.JDE = BITBIN(GD$MSG_HOST.ERROR_D.ERRCODE);

   6520  1 000316   000000 474400 xsym               LDP4    S_D_HOST_MESSAGE$
PL6.E3A0      #001=DFK$EVAL File=DFK$EVAL.:E05TSI                                TUE 07/29/97 14:39 Page:23
         1 000317   400000 235100                    LDA     0,,PR4
         1 000320   400001 236100                    LDQ     1,,PR4
         1 000321   000022 773000                    LRL     18
         1 000322   104733 756100                    STQ     2523,,PR1

      157     6521    4                       CALL DUE$GERRMSG;

   6521  1 000323   000002 631400 xsym               EPPR1   B_VECTNIL+2
         1 000324   000000 701000 xent               TSX1    DUE$GERRMSG
         1 000325   000000 011000                    NOP     0

      158     6522    4                       RETURN;

   6522  1 000326   000000 702200 xent               TSX2  ! X66_ARET

      159     6523    4                     END;
      160     6524    3                  REMEMBER NEVER IN S_D.SCREECH_IC;

   6524  1 000327   000336 635000 1                  EAA     NEVER
         1 000330   105250 452500                    STP2    2728,,PR1
         1 000331   105251 755100                    STA     2729,,PR1

      161     6525    3                  CALL M$SCREECH (SNAP_MESSAGE) ALTRET(NEVER);

   6525  1 000332   000000 630400 xsym               EPPR0   SNAP_MESSAGE
         1 000333   400013 713400                    CLIMB   alt,+11
         1 000334   401000 401760                    pmme    nvectors=3
         1 000335   000336 702000 1                  TSX2    NEVER

      162     6526    3   NEVER:
      163     6527    3                  S_D.ERROR = 524; /* E@BADMESSAGE */

   6527  1 000336   001014 235007       NEVER        LDA     524,DL
         1 000337   000000 470400 xsym               LDP0    S_D$
         1 000340   000013 755100                    STA     11,,PR0

      164     6528    3                  CALL DDE$ERROR;
PL6.E3A0      #001=DFK$EVAL File=DFK$EVAL.:E05TSI                                TUE 07/29/97 14:39 Page:24

   6528  1 000341   000002 631400 xsym               EPPR1   B_VECTNIL+2
         1 000342   000000 701000 xent               TSX1    DDE$ERROR
         1 000343   000000 011000                    NOP     0

      165     6529    3                  S_D.ERROR = 502;    /* E@DELBUG */

   6529  1 000344   000766 235007                    LDA     502,DL
         1 000345   000000 470400 xsym               LDP0    S_D$
         1 000346   000013 755100                    STA     11,,PR0

      166     6530    3                  CALL DDE$ERROR;

   6530  1 000347   000002 631400 xsym               EPPR1   B_VECTNIL+2
         1 000350   000000 701000 xent               TSX1    DDE$ERROR
         1 000351   000000 011000                    NOP     0

      167     6531    3               END;

      168     6532    2             GOTO ARET;

   6532  1 000352   000550 710000 1                  TRA     ARET

      169     6533    2           END;
      170     6534    1        ADDRESS = GD$MSG.DISPMEM_D.ADDRESS;

   6534  1 000353   000001 235100                    LDA     1,,PR0
         1 000354   000002 236100                    LDQ     2,,PR0
         1 000355   000014 773000                    LRL     12
         1 000356   000004 376000 2                  ANQ     4
         1 000357   200004 471500                    LDP1    @ADDRESS,,AUTO
         1 000360   100000 756100                    STQ     0,,PR1

      171     6535    1        SEG = GD$MSG.DISPMEM_D.SEG;

   6535  1 000361   200005 473500                    LDP3    @SEG,,AUTO
         1 000362   000002 236100                    LDQ     2,,PR0
PL6.E3A0      #001=DFK$EVAL File=DFK$EVAL.:E05TSI                                TUE 07/29/97 14:39 Page:25
         1 000363   000004 772000                    QRL     4
         1 000364   000177 376007                    ANQ     127,DL
         1 000365   300000 756100                    STQ     0,,PR3

      172     6536    1        DESC# = GD$MSG.DISPMEM_D.DESC#;

   6536  1 000366   200006 474500                    LDP4    @DESC#,,AUTO
         1 000367   000002 235100                    LDA     2,,PR0
         1 000370   000003 236100                    LDQ     3,,PR0
         1 000371   000040 773000                    LRL     32
         1 000372   000377 376007                    ANQ     255,DL
         1 000373   400000 756100                    STQ     0,,PR4

      173     6537    1        NOT_IS = GD$MSG.DISPMEM_D.NOT_IS;

   6537  1 000374   000000 236100                    LDQ     0,,PR0
         1 000375   000022 736000                    QLS     18
         1 000376   400000 376003                    ANQ     -131072,DU
         1 000377   200007 475500                    LDP5    @NOT_IS,,AUTO
         1 000400   500000 756100                    STQ     0,,PR5

      174     6538    1        SIZE = GD$MSG.DISPMEM_D.SIZE;

   6538  1 000401   200010 476500                    LDP6    @SIZE,,AUTO
         1 000402   000003 236100                    LDQ     3,,PR0
         1 000403   000020 772000                    QRL     16
         1 000404   177777 376007                    ANQ     65535,DL
         1 000405   600000 756100                    STQ     0,,PR6

      175     6539    1        IF ZITEM.PUP.BITS.PUB = 1          /* PACKED */

   6539  1 000406   200021 477500                    LDP7    ZITEM$,,AUTO
         1 000407   700010 236100                    LDQ     8,,PR7
         1 000410   000060 376007                    ANQ     48,DL
         1 000411   000020 116007                    CMPQ    16,DL
         1 000412   000416 601000 1                  TNZ     s:6541

PL6.E3A0      #001=DFK$EVAL File=DFK$EVAL.:E05TSI                                TUE 07/29/97 14:39 Page:26
      176     6540    1        THEN SIZE = SIZE * 4;

   6540  1 000413   600000 235100                    LDA     0,,PR6
         1 000414   000002 735000                    ALS     2
         1 000415   600000 755100                    STA     0,,PR6

      177     6541    1        S_D.IS_PTR = GD$MSG.DISPMEM_D.IS_PTR;

   6541  1 000416   000000 236100                    LDQ     0,,PR0
         1 000417   000023 736000                    QLS     19
         1 000420   400000 376003                    ANQ     -131072,DU
         1 000421   000000 470400 xsym               LDP0    S_D$
         1 000422   005237 756100                    STQ     2719,,PR0

      178     6542    1        IF DISP

   6542  1 000423   200013 234100                    SZN     DISP,,AUTO
         1 000424   000433 605000 1                  TPL     s:6544

      179     6543    1        THEN VALUE.SIZE = (SIZE + 15) / 16;

   6543  1 000425   600000 236100                    LDQ     0,,PR6
         1 000426   000017 036007                    ADLQ    15,DL
         1 000427   000004 772000                    QRL     4
         1 000430   200003 470500                    LDP0    @VALUE,,AUTO
         1 000431   000000 756100                    STQ     0,,PR0
         1 000432   000441 710000 1                  TRA     s:6545

      180     6544    1        ELSE VALUE.SIZE = GD$MSG.DISPMEM_D.DATA_SIZE;

   6544  1 000433   000000 470400 xsym               LDP0    S_D_L6_MESSAGE$
         1 000434   200003 471500                    LDP1    @VALUE,,AUTO
         1 000435   000000 236100                    LDQ     0,,PR0
         1 000436   000004 772000                    QRL     4
         1 000437   000377 376007                    ANQ     255,DL
         1 000440   100000 756100                    STQ     0,,PR1

PL6.E3A0      #001=DFK$EVAL File=DFK$EVAL.:E05TSI                                TUE 07/29/97 14:39 Page:27
      181     6545    2        DO I = 0 TO VALUE.SIZE - 1;

   6545  1 000441   200016 450100                    STZ     I,,AUTO
         1 000442   000461 710000 1                  TRA     s:6547+3

      182     6546    2             VALUE.OPS(I) = GD$MSG.DISPMEM_D.DATA(I);

   6546  1 000443   200016 235100                    LDA     I,,AUTO
         1 000444   000004 735000                    ALS     4
         1 000445   200016 236100                    LDQ     I,,AUTO
         1 000446   200024 755100                    STA     ZITEM$+3,,AUTO
         1 000447   000044 402007                    MPY     36,DL
         1 000450   000000 470400 xsym               LDP0    S_D_L6_MESSAGE$
         1 000451   200024 235100                    LDA     ZITEM$+3,,AUTO
         1 000452   200003 471500                    LDP1    @VALUE,,AUTO
         1 000453   003106 061505                    CSR     bolr='003'O
         1 000454   000003 420020                    BDSC    3,A,PR0                  by=2,bit=2,n=16
         1 000455   100001 000044                    BDSC    1,Q,PR1                  by=0,bit=0,n=36

      183     6547    2           END;

   6547  1 000456   200016 235100                    LDA     I,,AUTO
         1 000457   000001 035007                    ADLA    1,DL
         1 000460   200016 755100                    STA     I,,AUTO
         1 000461   200003 470500                    LDP0    @VALUE,,AUTO
         1 000462   200016 236100                    LDQ     I,,AUTO
         1 000463   000000 116100                    CMPQ    0,,PR0
         1 000464   000443 602000 1                  TNC     s:6546

      184     6548    1        IF DISP

   6548  1 000465   200013 234100                    SZN     DISP,,AUTO
         1 000466   000503 605000 1                  TPL     s:6555

      185     6549    2        THEN DO;

      186     6550    2             S_D.ARRAY.FIRST = '0'B;
PL6.E3A0      #001=DFK$EVAL File=DFK$EVAL.:E05TSI                                TUE 07/29/97 14:39 Page:28

   6550  1 000467   000000 471400 xsym               LDP1    S_D$
         1 000470   100715 450100                    STZ     461,,PR1

      187     6551    2             S_D.ARRAY.CUR = GD$MSG.DISPMEM_D.ARRAY_CUR;

   6551  1 000471   000000 473400 xsym               LDP3    S_D_L6_MESSAGE$
         1 000472   300000 235100                    LDA     0,,PR3
         1 000473   300001 236100                    LDQ     1,,PR3
         1 000474   000030 773000                    LRL     24
         1 000475   177777 376007                    ANQ     65535,DL
         1 000476   100716 756100                    STQ     462,,PR1

      188     6552    2             S_D.ARRAY.HIGH = GD$MSG.DISPMEM_D.ARRAY_HIGH;

   6552  1 000477   300001 236100                    LDQ     1,,PR3
         1 000500   000010 772000                    QRL     8
         1 000501   177777 376007                    ANQ     65535,DL
         1 000502   100717 756100                    STQ     463,,PR1

      189     6553    2           END;

      190     6554                  /* Save 16 words, ADDRESS, SEG, DESC#, NOT_IS is S_D for L6 Cache */
      191     6555    1        IF CACHE

   6555  1 000503   200012 471500                    LDP1    @CACHE,,AUTO
         1 000504   100000 234100                    SZN     0,,PR1
         1 000505   000541 605000 1                  TPL     s:6566

      192     6556    2        THEN DO;

      193     6557    2             S_D.MOD_L6.ADDRESS = ADDRESS;

   6557  1 000506   200004 473500                    LDP3    @ADDRESS,,AUTO
         1 000507   000000 474400 xsym               LDP4    S_D$
         1 000510   300000 235100                    LDA     0,,PR3
         1 000511   406772 755100                    STA     3578,,PR4
PL6.E3A0      #001=DFK$EVAL File=DFK$EVAL.:E05TSI                                TUE 07/29/97 14:39 Page:29

      194     6558    2             S_D.MOD_L6.SEG = SEG;

   6558  1 000512   200005 475500                    LDP5    @SEG,,AUTO
         1 000513   500000 235100                    LDA     0,,PR5
         1 000514   406773 755100                    STA     3579,,PR4

      195     6559    2             S_D.MOD_L6.DESC# = DESC#;

   6559  1 000515   200006 476500                    LDP6    @DESC#,,AUTO
         1 000516   600000 235100                    LDA     0,,PR6
         1 000517   406774 755100                    STA     3580,,PR4

      196     6560    2             S_D.MOD_L6.NOT_IS = NOT_IS;

   6560  1 000520   200007 477500                    LDP7    @NOT_IS,,AUTO
         1 000521   700000 236100                    LDQ     0,,PR7
         1 000522   400000 376003                    ANQ     -131072,DU
         1 000523   406775 756100                    STQ     3581,,PR4

      197     6561    2             S_D.MOD_L6.VALUE.SIZE = 16;

   6561  1 000524   000020 235007                    LDA     16,DL
         1 000525   406776 755100                    STA     3582,,PR4

      198     6562    3             DO I = 0 TO 15;

   6562  1 000526   200016 450100                    STZ     I,,AUTO

      199     6563    3                  S_D.MOD_L6.VALUE.OPS(I) = VALUE.OPS(I);

   6563  1 000527   200003 470500                    LDP0    @VALUE,,AUTO
         1 000530   200016 720100                    LXL0    I,,AUTO
         1 000531   000000 471400 xsym               LDP1    S_D$
         1 000532   000001 235110                    LDA     1,X0,PR0
         1 000533   106777 755110                    STA     3583,X0,PR1

PL6.E3A0      #001=DFK$EVAL File=DFK$EVAL.:E05TSI                                TUE 07/29/97 14:39 Page:30
      200     6564    3                END;

   6564  1 000534   200016 236100                    LDQ     I,,AUTO
         1 000535   000001 036007                    ADLQ    1,DL
         1 000536   200016 756100                    STQ     I,,AUTO
         1 000537   000020 116007                    CMPQ    16,DL
         1 000540   000527 602000 1                  TNC     s:6563

      201     6565    2           END;

      202     6566    1        RETURN;

   6566  1 000541   000000 702200 xent               TSX2  ! X66_ARET

   6562  1 000542                       ERR          null
      203     6567
      204     6568    1   ERR: ;
      205     6569    1        CALL DUE$ERRMSG;

   6569  1 000542   000002 631400 xsym               EPPR1   B_VECTNIL+2
         1 000543   000000 701000 xent               TSX1    DUE$ERRMSG
         1 000544   000000 011000                    NOP     0

      206     6570    1        S_D.ERROR = 318;          /* E@EVAL_ERROR */

   6570  1 000545   000476 235007                    LDA     318,DL
         1 000546   000000 470400 xsym               LDP0    S_D$
         1 000547   000013 755100                    STA     11,,PR0

      207     6571    1   ARET: ALTRETURN;

   6571  1 000550   000000 702200 xent  ARET         TSX2  ! X66_AALT

(unnamed)
 Sect OctLoc
   2     000   000012 460000   001777 777777   000077 777400   000002 006000    .........?......
   2     004   037777 777777                                                    ....
PL6.E3A0      #001=DFK$EVAL File=DFK$EVAL.:E05TSI                                TUE 07/29/97 14:39 Page:31
      208     6572    1   END DFK$EVAL;

PL6.E3A0      #001=DFK$EVAL File=DFK$EVAL.:E05TSI                                TUE 07/29/97 14:39 Page:32
--  Include file information  --

   DD_ERR_C.:E05TOU  is referenced.
   DD_SUBS_C.:E05TOU  is referenced.
   DD$BASED.:E05TOU  is referenced.
   GD_EQUS_E.:E05TOU  is referenced.
   GD$MSG_M.:E05TOU  is referenced.
   DD_SD_M.:E05TOU  is referenced.
   XUH_MACRO_C.:E05TOU  is referenced.
   DD_SRTN_C.:E05TOU  is referenced.
   DD_ACODE_C.:E05TOU  is referenced.
   DD_ICODE_C.:E05TOU  is referenced.
   DD$DITEM.:E05TOU  cannot be made into a system file and is referenced.
   DU_SCODE_C.:E05TOU  is referenced.
   CP_6.:E05TOU  cannot be made into a system file and is referenced.
   B$JIT_C.:E05TOU  was found in the system file and is never referenced.
   CP_6_C.:E05TOU  was found in the system file and is referenced.
      No diagnostics issued in procedure DFK$EVAL.

   Procedure DFK$EVAL requires 361 words for executable code.
   Procedure DFK$EVAL requires 24 words of local(AUTO) storage.

    No errors detected in file DFK$EVAL.:E05TSI    .
PL6.E3A0      #001=DFK$EVAL File=DFK$EVAL.:E05TSI                                TUE 07/29/97 14:39 Page:33
          *** CROSS REFERENCE LISTING ***
**     DENOTES     IDENTIFIER DEFINITION
<<                 IDENTIFIER'S VALUE SET
>>                 IDENTIFIER'S VALUE USED
<>                 IDENTIFIER SET AND/OR USED
--                 IDENTIFIER REFERENCED
PL6.E3A0      #001=DFK$EVAL File=DFK$EVAL.:E05TSI                                TUE 07/29/97 14:39 Page:34
          MINI XREF LISTING

ADDRESS
        25**DCL        20--PROC     6449--ENTRY    6534<<ASSIGN   6557>>ASSIGN
ALL_ATTACH.CMD
      5757**DCL      6468>>IF       6468>>IF       6468>>IF       6473>>IF
ALL_ATTACH.UNUSED
      5760**DCL      5761--REDEF    5765--REDEF
ARET
      6571**LABEL    6456--CALLALT  6507--GOTO     6532--GOTO
CACHE
        31**DCL        20--PROC     6449--ENTRY    6555>>IF
COMMON
      6451**LABEL    6447--GOTO
DDE$ERROR
      6439**DCL-ENT  6528--CALL     6530--CALL
DESC#
        27**DCL        20--PROC     6449--ENTRY    6536<<ASSIGN   6559>>ASSIGN
DFD$CONVERT_DD
      6440**DCL-ENT  6456--CALL
DFQ$READ_FD
      6441**DCL-ENT  6486--CALL
DFQ$WRITE_FD
      6442**DCL-ENT  6484--CALL
DISP
        32**DCL      6446<<ASSIGN   6451<<ASSIGN   6475>>IF       6542>>IF       6548>>IF
DUE$ERRMSG
      6443**DCL-ENT  6569--CALL
DUE$GERRMSG
      6444**DCL-ENT  6521--CALL
ERR
      6562**LABEL    6484--CALLALT  6486--CALLALT
EXPROP
        53**DCL      6456<>CALL     6457>>IF
PL6.E3A0      #001=DFK$EVAL File=DFK$EVAL.:E05TSI                                TUE 07/29/97 14:39 Page:35
EXPR_OP
        30**DCL        20--PROC     6449--ENTRY    6460<<ASSIGN   6462<<ASSIGN
FPRG$CONTEXT.XDELTA
      5706**DCL      6503>>IF       6511>>IF
GD$MSG
      3933**DCL      6454<<ASSIGN
GD$MSG.BRKRQS.IF$CONST.SIZE
      3984**DCL      3984--REDEF
GD$MSG.BRKRQS.IF$CONST.TEXT
      3984**DCL      3985--REDEF    3985--REDEF    3986--REDEF    3987--REDEF
GD$MSG.BRKRSP.BRK#
      3998**DCL      3998--REDEF
GD$MSG.BRKRSP.USER#
      3998**DCL      3998--REDEF
GD$MSG.DISPMEM_D.ADDRESS
      3945**DCL      6534>>ASSIGN
GD$MSG.DISPMEM_D.ARRAY_CUR
      3945**DCL      6479<<ASSIGN   6551>>ASSIGN
GD$MSG.DISPMEM_D.ARRAY_FIRST
      3944**DCL      6478<<ASSIGN
GD$MSG.DISPMEM_D.ARRAY_HIGH
      3945**DCL      6480<<ASSIGN   6552>>ASSIGN
GD$MSG.DISPMEM_D.DATA
      3950**DCL      6546>>ASSIGN
GD$MSG.DISPMEM_D.DATA_DESC
      3950**DCL      6456--CALL
GD$MSG.DISPMEM_D.DATA_SIZE
      3945**DCL      6544>>ASSIGN
GD$MSG.DISPMEM_D.DD_EXISTS
      3944**DCL      6467<<ASSIGN
GD$MSG.DISPMEM_D.DESC#
      3950**DCL      6536>>ASSIGN
GD$MSG.DISPMEM_D.DUMPCMD
      3944**DCL      6472<<ASSIGN
GD$MSG.DISPMEM_D.EVALCMD
      3950**DCL      6474<<ASSIGN
PL6.E3A0      #001=DFK$EVAL File=DFK$EVAL.:E05TSI                                TUE 07/29/97 14:39 Page:36
GD$MSG.DISPMEM_D.EXPR_OP
      3944**DCL      6459<<ASSIGN
GD$MSG.DISPMEM_D.IS_PTR
      3944**DCL      6541>>ASSIGN
GD$MSG.DISPMEM_D.NOT_IS
      3944**DCL      6537>>ASSIGN
GD$MSG.DISPMEM_D.REAL_SIZE
      3944**DCL      6477<<ASSIGN
GD$MSG.DISPMEM_D.SEG
      3950**DCL      6535>>ASSIGN
GD$MSG.DISPMEM_D.SIZE
      3950**DCL      6538>>ASSIGN
GD$MSG.ERROR_D.ERRCODE
      3939**DCL      6513>>ASSIGN
GD$MSG.FNC
      3933**DCL      6466<<ASSIGN   6487>>IF       6489>>DOCASE   6503>>IF       6509>>IF
GD$MSG.LETMEM_D.VALUE.SIZE
      3956**DCL      3956--REDEF
GD$MSG.LETMEM_D.VALUE.TEXT
      3957**DCL      3957--REDEF    3957--REDEF    3958--REDEF    3959--REDEF
GD$MSG.MESSAGE
      3938**DCL      3938--REDEF    3939--REDEF    3939--REDEF    3940--REDEF    3951--REDEF    3964--REDEF
      3969--REDEF    3976--REDEF    3992--REDEF    3997--REDEF    4003--REDEF    4004--REDEF    4033--REDEF
      4035--REDEF    4046--REDEF    4053--REDEF    4065--REDEF
GD$MSG.SUBFNC
      3933**DCL      3933--REDEF    3937--REDEF
GD$MSG.TSA.I
      4005**DCL      4005--REDEF
GD$MSG.TSA.S
      4007**DCL      4007--REDEF
GD$MSG.USERQS.ASDT$
      4033**DCL      4033--REDEF    4034--REDEF
GD$MSG_HOST.BRKRQS.IF$CONST.SIZE
      4140**DCL      4140--REDEF
GD$MSG_HOST.BRKRQS.IF$CONST.TEXT
      4140**DCL      4141--REDEF    4141--REDEF    4142--REDEF    4143--REDEF
PL6.E3A0      #001=DFK$EVAL File=DFK$EVAL.:E05TSI                                TUE 07/29/97 14:39 Page:37
GD$MSG_HOST.BRKRSP.BRK#
      4154**DCL      4154--REDEF
GD$MSG_HOST.BRKRSP.USER#
      4154**DCL      4154--REDEF
GD$MSG_HOST.ERROR_D.ERRCODE
      4095**DCL      6520>>ASSIGN
GD$MSG_HOST.LETMEM_D.VALUE.SIZE
      4112**DCL      4112--REDEF
GD$MSG_HOST.LETMEM_D.VALUE.TEXT
      4113**DCL      4113--REDEF    4113--REDEF    4114--REDEF    4115--REDEF
GD$MSG_HOST.MESSAGE
      4094**DCL      4094--REDEF    4095--REDEF    4095--REDEF    4096--REDEF    4107--REDEF    4120--REDEF
      4125--REDEF    4132--REDEF    4148--REDEF    4153--REDEF    4159--REDEF    4160--REDEF    4189--REDEF
      4191--REDEF    4202--REDEF    4209--REDEF    4221--REDEF
GD$MSG_HOST.SUBFNC
      4089**DCL      4089--REDEF    4093--REDEF
GD$MSG_HOST.TSA.I
      4161**DCL      4161--REDEF
GD$MSG_HOST.TSA.S
      4163**DCL      4163--REDEF
GD$MSG_HOST.USERQS.ASDT$
      4189**DCL      4189--REDEF    4190--REDEF
I
        52**DCL      6545<<DOINDEX  6546>>ASSIGN   6546>>ASSIGN   6562<<DOINDEX  6563>>ASSIGN   6563>>ASSIGN
M$SCREECH
        78**DCL-ENT  6525--CALL
NEVER
      6527**LABEL    6524--REMEMBR  6525--CALLALT
NOT_IS
        28**DCL        20--PROC     6449--ENTRY    6537<<ASSIGN   6560>>ASSIGN
SEG
        26**DCL        20--PROC     6449--ENTRY    6535<<ASSIGN   6558>>ASSIGN
SIZE
        29**DCL        20--PROC     6449--ENTRY    6538<<ASSIGN   6540<<ASSIGN   6540>>ASSIGN   6543>>ASSIGN
SNAP_MESSAGE
       160**DCL      6525<>CALL
PL6.E3A0      #001=DFK$EVAL File=DFK$EVAL.:E05TSI                                TUE 07/29/97 14:39 Page:38
S_D.ARRAY.CUR
      2677**DCL      6479>>ASSIGN   6551<<ASSIGN
S_D.ARRAY.FIRST
      2676**DCL      6478>>ASSIGN   6550<<ASSIGN
S_D.ARRAY.HIGH
      2678**DCL      6480>>ASSIGN   6552<<ASSIGN
S_D.CURRENT_CHANNEL
      3349**DCL      3351--REDEF
S_D.CURRENT_FPRG_CONTEXT$
      2549**DCL      6484<>CALL     6486<>CALL     6503>>IF       6511>>IF
S_D.DEBUGA
      2501**DCL      2503--REDEF
S_D.DESC$
      2481**DCL      6456<>CALL     6463>>ASSIGN   6464<<ASSIGN   6464>>ASSIGN
S_D.DO$
      2452**DCL      6468>>IF       6468>>IF       6468>>IF       6468>>IF       6473>>IF
S_D.EIS
      3459**DCL      3488--REDEF
S_D.ERROR
      2430**DCL      6491<<ASSIGN   6493<<ASSIGN   6495<<ASSIGN   6497<<ASSIGN   6499<<ASSIGN   6501<<ASSIGN
      6506<<ASSIGN   6527<<ASSIGN   6529<<ASSIGN   6570<<ASSIGN
S_D.HOST_MESSAGE_BUF_REMOTE
      3392**DCL      3393--REDEF    3407--REDEF
S_D.IS_PTR
      3234**DCL      6541<<ASSIGN
S_D.JDE
      3006**DCL      3007--REDEF    6518<<ASSIGN   6520<<ASSIGN
S_D.L$.VALUE
      2559**DCL      2565--REDEF    2573--REDEF    2576--REDEF    2579--REDEF    2582--REDEF
S_D.L$.VALUE.L
      2560**DCL      2561--REDEF    2562--REDEF
S_D.L6_MESSAGE_BUF
      3413**DCL      3415--REDEF
S_D.MOD_L6.ADDRESS
      3522**DCL      6557<<ASSIGN
S_D.MOD_L6.DESC#
PL6.E3A0      #001=DFK$EVAL File=DFK$EVAL.:E05TSI                                TUE 07/29/97 14:39 Page:39
      3524**DCL      6559<<ASSIGN
S_D.MOD_L6.NOT_IS
      3525**DCL      6560<<ASSIGN
S_D.MOD_L6.SEG
      3523**DCL      6558<<ASSIGN
S_D.MOD_L6.VALUE.OPS
      3528**DCL      6563<<ASSIGN
S_D.MOD_L6.VALUE.SIZE
      3527**DCL      6561<<ASSIGN
S_D.OUTPUT
      3379**DCL      3381--REDEF
S_D.REMOTE_MSG.FNCC
      3398**DCL      3399--REDEF
S_D.REMOTE_MSG.STXC
      3394**DCL      3395--REDEF
S_D.REMOTE_MSG.SUBFNCC
      3402**DCL      3403--REDEF
S_D.SCREECH_IC
      3250**DCL      6524<<REMEMBR
S_D.SV
      2458**DCL      2479--REDEF
S_D$
      3710**DCL      2406--IMP-PTR  6456>>CALL     6463>>ASSIGN   6464>>ASSIGN   6464>>ASSIGN   6468>>IF
      6468>>IF       6468>>IF       6468>>IF       6473>>IF       6478>>ASSIGN   6479>>ASSIGN   6480>>ASSIGN
      6484>>CALL     6486>>CALL     6491>>ASSIGN   6493>>ASSIGN   6495>>ASSIGN   6497>>ASSIGN   6499>>ASSIGN
      6501>>ASSIGN   6503>>IF       6506>>ASSIGN   6511>>IF       6518>>ASSIGN   6520>>ASSIGN   6524>>REMEMBR
      6527>>ASSIGN   6529>>ASSIGN   6541>>ASSIGN   6550>>ASSIGN   6551>>ASSIGN   6552>>ASSIGN   6557>>ASSIGN
      6558>>ASSIGN   6559>>ASSIGN   6560>>ASSIGN   6561>>ASSIGN   6563>>ASSIGN   6570>>ASSIGN
S_D_HOST_MESSAGE$
      3746**DCL      4089--IMP-PTR  6520>>ASSIGN
S_D_L6_MESSAGE$
      3747**DCL      3933--IMP-PTR  6454>>ASSIGN   6456>>CALL     6459>>ASSIGN   6466>>ASSIGN   6467>>ASSIGN
      6472>>ASSIGN   6474>>ASSIGN   6477>>ASSIGN   6478>>ASSIGN   6479>>ASSIGN   6480>>ASSIGN   6487>>IF
      6489>>DOCASE   6503>>IF       6509>>IF       6513>>ASSIGN   6534>>ASSIGN   6535>>ASSIGN   6536>>ASSIGN
      6537>>ASSIGN   6538>>ASSIGN   6541>>ASSIGN   6544>>ASSIGN   6546>>ASSIGN   6551>>ASSIGN   6552>>ASSIGN
TEMP$
PL6.E3A0      #001=DFK$EVAL File=DFK$EVAL.:E05TSI                                TUE 07/29/97 14:39 Page:40
        33**DCL        34--REDEF      35--REDEF
TEMP1
        34**DCL      6513<<ASSIGN
TEMP1B.B1
        37**DCL      6514>>ASSIGN
TEMP1B.B2
        38**DCL      6515>>ASSIGN
TEMP1B.B3
        39**DCL      6516>>ASSIGN
TEMP1B.B4
        40**DCL      6517>>ASSIGN
TEMP2
        41**DCL        42--REDEF    6518>>ASSIGN
TEMP2B.B1
        44**DCL      6514<<ASSIGN
TEMP2B.B2
        46**DCL      6515<<ASSIGN
TEMP2B.B3
        48**DCL      6516<<ASSIGN
TEMP2B.B4
        50**DCL      6517<<ASSIGN
VALUE
        22**DCL        20--PROC     6449--ENTRY
VALUE.OPS
        24**DCL      6546<<ASSIGN   6563>>ASSIGN
VALUE.SIZE
        23**DCL      6543<<ASSIGN   6544<<ASSIGN   6545>>DOINDEX
ZITEM.ADDRESS
       940**DCL       945--REDEF     946--REDEF     947--REDEF
ZITEM.PUP.BITS.PUB
       965**DCL      6539>>IF
ZITEM.SIZE
       907**DCL      6464>>ASSIGN
ZITEM.SP.VD
       948**DCL       952--REDEF     955--REDEF
ZITEM$
PL6.E3A0      #001=DFK$EVAL File=DFK$EVAL.:E05TSI                                TUE 07/29/97 14:39 Page:41
       329**DCL       906--IMP-PTR  6463<<ASSIGN   6464>>ASSIGN   6539>>IF
PL6.E3A0      #001=DFK$EVAL File=DFK$EVAL.:E05TSI                                TUE 07/29/97 14:39 Page:42
              *** CROSS REFERENCE LISTING ***
    **     DENOTES     IDENTIFIER DEFINITION
    <<                 IDENTIFIER'S VALUE SET
    >>                 IDENTIFIER'S VALUE USED
    <>                 IDENTIFIER SET AND/OR USED
    --                 IDENTIFIER REFERENCED
PL6.E3A0      #001=DFK$EVAL File=DFK$EVAL.:E05TSI                                TUE 07/29/97 14:39 Page:43
              MINI UREF LISTING

DFK$EVAL      20**PROC
DFK$EVAL_DISP    6449**ENTRY
M$ACCT      81**DCL-ENT
M$ACTIVATE      84**DCL-ENT
M$ALIB      77**DCL-ENT
M$ASUSER      79**DCL-ENT
M$ATTACH      86**DCL-ENT
M$BADPP     104**DCL-ENT
M$CGCTL      85**DCL-ENT
M$CGINFO      85**DCL-ENT
M$CHECK      66**DCL-ENT
M$CHGUNIT     124**DCL-ENT
M$CLOSE      64**DCL-ENT
M$CLRSTK     122**DCL-ENT
M$CMDVAR     133**DCL-ENT
M$CONFIG      94**DCL-ENT
M$CORRES      69**DCL-ENT
M$CPEXIT      78**DCL-ENT
M$CVM     102**DCL-ENT
M$CVOL      67**DCL-ENT
M$DCLFLD      94**DCL-ENT
M$DEACTIVATE      84**DCL-ENT
M$DELREC      66**DCL-ENT
M$DEQ     131**DCL-ENT
M$DETACH      86**DCL-ENT
M$DEVICE      68**DCL-ENT
M$DISPLAY     131**DCL-ENT
M$DISPRES      71**DCL-ENT
M$DLIB      77**DCL-ENT
M$DRIBBLE      94**DCL-ENT
M$DRTN     122**DCL-ENT
M$DSUSER      79**DCL-ENT
PL6.E3A0      #001=DFK$EVAL File=DFK$EVAL.:E05TSI                                TUE 07/29/97 14:39 Page:44
M$ENQ     130**DCL-ENT
M$EOM      89**DCL-ENT
M$ERASE      95**DCL-ENT
M$ERR      76**DCL-ENT
M$ERRMSG     127**DCL-ENT
M$EVENT     119**DCL-ENT
M$EXHUME     128**DCL-ENT
M$EXIT      76**DCL-ENT
M$EXTEND      68**DCL-ENT
M$FDP     100**DCL-ENT
M$FDS      99**DCL-ENT
M$FEBOOT      92**DCL-ENT
M$FECTL      93**DCL-ENT
M$FEDUMP      92**DCL-ENT
M$FID     127**DCL-ENT
M$FINDPROC      81**DCL-ENT
M$FSUSER      79**DCL-ENT
M$FVP     101**DCL-ENT
M$FWCG      85**DCL-ENT
M$GBPL     105**DCL-ENT
M$GDDL     101**DCL-ENT
M$GDP     100**DCL-ENT
M$GDS      99**DCL-ENT
M$GETDCB      70**DCL-ENT
M$GETMOUSE     110**DCL-ENT
M$GETPM     111**DCL-ENT
M$GJOB     129**DCL-ENT
M$GLINEATTR      89**DCL-ENT
M$GOODPP     104**DCL-ENT
M$GPLATEN      97**DCL-ENT
M$GPROMPT      96**DCL-ENT
M$GTRMATTR      90**DCL-ENT
M$GTRMCTL      88**DCL-ENT
M$GTRMTAB      91**DCL-ENT
M$GVP     100**DCL-ENT
M$HELP     127**DCL-ENT
PL6.E3A0      #001=DFK$EVAL File=DFK$EVAL.:E05TSI                                TUE 07/29/97 14:39 Page:45
M$INT     119**DCL-ENT
M$INTRTN      80**DCL-ENT
M$IOQ     115**DCL-ENT
M$JOBSTATS     129**DCL-ENT
M$KEYIN      69**DCL-ENT
M$LDEV      64**DCL-ENT
M$LDTRC      77**DCL-ENT
M$LIMIT      70**DCL-ENT
M$LINES      69**DCL-ENT
M$LINK      76**DCL-ENT
M$MADMUCK      72**DCL-ENT
M$MAKUSER     103**DCL-ENT
M$MBS      71**DCL-ENT
M$MDFFLD      95**DCL-ENT
M$MERC     120**DCL-ENT
M$MERCS     121**DCL-ENT
M$MIRROR     115**DCL-ENT
M$MONINFO     132**DCL-ENT
M$MPL     105**DCL-ENT
M$NODEINFO      96**DCL-ENT
M$NXTUSR     130**DCL-ENT
M$OCMSG     128**DCL-ENT
M$OLAY      76**DCL-ENT
M$OPEN      64**DCL-ENT
M$PAS     105**DCL-ENT
M$PATHCON     128**DCL-ENT
M$PDS      99**DCL-ENT
M$PFIL      66**DCL-ENT
M$PLATEN      90**DCL-ENT
M$PRECORD      68**DCL-ENT
M$PROCNAME      81**DCL-ENT
M$PROFILE      92**DCL-ENT
M$PROMPT      88**DCL-ENT
M$RACST      72**DCL-ENT
M$RDSYSLOG     113**DCL-ENT
M$READ      65**DCL-ENT
PL6.E3A0      #001=DFK$EVAL File=DFK$EVAL.:E05TSI                                TUE 07/29/97 14:39 Page:46
M$RELDCB      70**DCL-ENT
M$RELRES      71**DCL-ENT
M$RELSTARF      73**DCL-ENT
M$REM      73**DCL-ENT
M$RENV     120**DCL-ENT
M$REQUIRE      72**DCL-ENT
M$RETRY     121**DCL-ENT
M$RETRYS     121**DCL-ENT
M$REW      67**DCL-ENT
M$RLSFLD      95**DCL-ENT
M$RPRIV     123**DCL-ENT
M$RSPP     102**DCL-ENT
M$RSWITCH     124**DCL-ENT
M$RUE     130**DCL-ENT
M$SAD     103**DCL-ENT
M$SAVE      79**DCL-ENT
M$SCON      80**DCL-ENT
M$SENV     120**DCL-ENT
M$SETFMA      64**DCL-ENT
M$SETFP      93**DCL-ENT
M$SINPUT      91**DCL-ENT
M$SLCFLD      96**DCL-ENT
M$SMOUSE     110**DCL-ENT
M$SMPRT     102**DCL-ENT
M$SPRIV     123**DCL-ENT
M$SSC     103**DCL-ENT
M$SSWITCH     123**DCL-ENT
M$STATE     132**DCL-ENT
M$STD     104**DCL-ENT
M$STIMER     118**DCL-ENT
M$STLPP     101**DCL-ENT
M$STRAP     118**DCL-ENT
M$STRMATTR      90**DCL-ENT
M$STRMCTL      88**DCL-ENT
M$STRMTAB      91**DCL-ENT
M$SYMBIO     129**DCL-ENT
PL6.E3A0      #001=DFK$EVAL File=DFK$EVAL.:E05TSI                                TUE 07/29/97 14:39 Page:47
M$SYSCON     115**DCL-ENT
M$SYSID     133**DCL-ENT
M$TDCLOSE     114**DCL-ENT
M$TDIO     114**DCL-ENT
M$TDOPEN     113**DCL-ENT
M$TDREQCPU     114**DCL-ENT
M$TEMPWROC     108**DCL-ENT
M$TIME     131**DCL-ENT
M$TRAP     118**DCL-ENT
M$TRMISC      93**DCL-ENT
M$TRMPRG      89**DCL-ENT
M$TRTN     122**DCL-ENT
M$TRUNC      65**DCL-ENT
M$TTIMER     118**DCL-ENT
M$UC      88**DCL
M$UMPL     105**DCL-ENT
M$UNFID     127**DCL-ENT
M$UNLATCH      84**DCL-ENT
M$UNSHARE      81**DCL-ENT
M$USRFIELD     124**DCL-ENT
M$VIRTUAL      99**DCL-ENT
M$WAIT     122**DCL-ENT
M$WEOF      67**DCL-ENT
M$WRITE      65**DCL-ENT
M$WRSYSLOG     113**DCL-ENT
M$XCON     119**DCL-ENT
M$XCONRTN      80**DCL-ENT
M$XEQTIME     132**DCL-ENT
M$XFLUSH      73**DCL-ENT
M$XMOUSE     110**DCL-ENT
M$XXX      76**DCL-ENT
M$YC      78**DCL-ENT
SC_MESSAGE     178**DCL
SDD$     328**DCL
SDD_L6$     330**DCL
S_D_ACCESS$    3725**DCL
PL6.E3A0      #001=DFK$EVAL File=DFK$EVAL.:E05TSI                                TUE 07/29/97 14:39 Page:48
S_D_ANLZ$    3727**DCL
S_D_ASTACKOFF$    3726**DCL
S_D_BREAK$    3728**DCL
S_D_DO_SCAN$    3729**DCL
S_D_ERROR$    3730**DCL
S_D_FAULTCMD$$    3731**DCL
S_D_FAULTINS$$    3732**DCL
S_D_GOIC$    3733**DCL
S_D_GO_MODE$    3734**DCL
S_D_HW_PTB_UNITS$    3750**DCL
S_D_HW_RES_MEM$    3748**DCL
S_D_HW_WSQ0PT$    3749**DCL
S_D_IPRFLT$    3736**DCL
S_D_IXFIX$    3735**DCL
S_D_REM_ACCESS$    3737**DCL
S_D_REM_DISKBOOT$    3739**DCL
S_D_REM_DO_SCAN$    3738**DCL
S_D_RETURNN$    3740**DCL
S_D_SAD$    3741**DCL
S_D_SAVEIC$    3742**DCL
S_D_SEG$    3724**DCL
S_D_TCB$$    3743**DCL
S_D_UREG$$    3744**DCL
S_D_USS$$    3745**DCL
ZITEM_L6$     331**DCL
