VERSION E05

PL6.E3A0      #001=DFK$GETMVAL File=DFK$GETMVAL.:E05TSI                          TUE 07/29/97 14:40 Page:1
        1        1        /*M*  DFK$GETMVAL - Fetch data from an evaluated addres in L6 */
        2        2        /*T***********************************************************/
        3        3        /*T*                                                         */
        4        4        /*T* Copyright (c) Bull HN Information Systems Inc., 1997    */
        5        5        /*T*                                                         */
        6        6        /*T***********************************************************/
        7        7        /*X* DMR,PLM=5,IND=5,CSU=3,EXM=0,ECU=3,MOC,DCI=5,CRT=5 */
        8        8        /*F* NAME: DFK$GETMVAL
        9        9             PURPOSE:
       10       10                   This module writes a message to FD containing the
       11       11                   information about the evaluated address and gets back
       12       12                   16 words of memory at the evaluated address.
       13       13             DESCRIPTION:
       14       14                   Input is ADDRESS, SEG, DESC#, NOT_IS
       15       15                   Output is 16 words from FD at the evaluated address.  */
       16       16
       17       17        DFK$GETMVAL: PROC(NVALUE, ADDRESS, SEG, DESC#, NOT_IS, CACHE) ALTRET;
       18       18
       19       19        /* Parms */
       20       20    1   DCL 1 NVALUE ALIGNED,
       21       21    1         2 SIZE UBIN,
       22       22    1         2 OPS(0:15) UBIN,
       23       23    1         2 OPSB(0:15) REDEF OPS,
       24       24    1           3 * BIT(20) UNAL,
       25       25    1           3 UH UBIN(8) UNAL,
       26       26    1           3 LH UBIN(8) UNAL;
       27       27    1   DCL ADDRESS SBIN;
       28       28    1   DCL SEG UBIN;
       29       29    1   DCL DESC# UBIN;
       30       30    1   DCL NOT_IS BIT(1) ALIGNED;
       31       31    1   DCL CACHE BIT(1) ALIGNED;
       32       32        /* Local Auto */
       33       33    1   DCL I UBIN;
       34       34    1   DCL OFFSET UBIN;
       35       35    1   DCL TEMP$ PTR;
       36       36    1   DCL TEMP1 REDEF TEMP$ UBIN(36) ALIGNED;
       37       37    1   DCL 1 TEMP1B REDEF TEMP$ ALIGNED,
PL6.E3A0      #001=DFK$GETMVAL File=DFK$GETMVAL.:E05TSI                          TUE 07/29/97 14:40 Page:2
       38       38    1         2 * UBIN(4) UNAL,
       39       39    1         2 B1 UBIN(8) UNAL,
       40       40    1         2 B2 UBIN(8) UNAL,
       41       41    1         2 B3 UBIN(8) UNAL,
       42       42    1         2 B4 UBIN(8) UNAL;
       43       43    1   DCL TEMP2 UBIN(36) ALIGNED;
       44       44    1   DCL 1 TEMP2B REDEF TEMP2 ALIGNED,
       45       45    1         2 * BIT(1) UNAL,
       46       46    1         2 B1 UBIN(8) UNAL,
       47       47    1         2 * BIT(1) UNAL,
       48       48    1         2 B2 UBIN(8) UNAL,
       49       49    1         2 * BIT(1) UNAL,
       50       50    1         2 B3 UBIN(8) UNAL,
       51       51    1         2 * BIT(1) UNAL,
       52       52    1         2 B4 UBIN(8) UNAL;
       53       53        /* Includes and Based Structures */
       54       54        %INCLUDE CP_6;
       55      135        %INCLUDE DU_SCODE_C;
       56      148        %FPT_SCREECH(FPTN=SNAP_MESSAGE,STCLASS=SYMREF READONLY);
       57      162        %VLP_SCODE(FPTN=SC_MESSAGE, STCLASS=SYMREF READONLY);
       58      223        %INCLUDE XUH_MACRO_C;
       59      307        %INCLUDE DD_SD_M;
       60     1643        %S_D;
       61     2961        %S_D_PTRS;
       62     2998        %INCLUDE GD$MSG_M;
       63     3162        %GD$MSG(FPTN=GD$MSG, STCLASS="BASED(S_D_L6_MESSAGE$)", L6=YES, L6PTR="UBIN(32) UNAL"
              3162            );
       64     3318        %GD$MSG(FPTN=GD$MSG_HOST, STCLASS="BASED(S_D_HOST_MESSAGE$)", L6=NO);
       65     3474        %INCLUDE GD_EQUS_E;
       66     3635        %INCLUDE DD$BASED;
       67     4938        %FPRG$CONTEXT;
       68     5001        %ALL_ATTACH;
       69     5016        %INCLUDE DD_SUBS_C;
       70     5287        %INCLUDE DD_ERR_C;
       71     5684        /* Entry DCLs */
       72     5685    1   DCL DDE$ERROR ENTRY;
       73     5686    1   DCL DFQ$READ_FD  ENTRY(2) ALTRET;
PL6.E3A0      #001=DFK$GETMVAL File=DFK$GETMVAL.:E05TSI                          TUE 07/29/97 14:40 Page:3
       74     5687    1   DCL DFQ$WRITE_FD ENTRY(1) ALTRET;
       75     5688    1   DCL DUE$ERRMSG   ENTRY;
       76     5689    1   DCL DUE$GERRMSG   ENTRY;
       77     5690
       78     5691    1        IF SEG = 6
       79     5692    2        THEN DO;
       80     5693    2             IF DESC# ~= 0 OR ADDRESS ~= 12
       81     5694    2             THEN
       82     5695    2                  GOTO NOTFEP;
       83     5696    2             NVALUE.SIZE = 2;
       84     5697    2             NVALUE.OPS(0) = S_D.SAVEIC/65536;
       85     5698    2             NVALUE.OPS(1) = MOD (S_D.SAVEIC,65536);
       86     5699    2             RETURN;
       87     5700    2           END;
       88     5701         /* Check to see if contents of evaluated address are already in cache in S_D. */
       89     5702    1        IF S_D.L6_CACHE
       90     5703    2        THEN DO;
       91     5704    2             IF SEG = S_D.MOD_L6.SEG AND
       92     5705    2               DESC# = S_D.MOD_L6.DESC# AND
       93     5706    2               NOT_IS = S_D.MOD_L6.NOT_IS AND
       94     5707    2               ADDRESS >= S_D.MOD_L6.ADDRESS AND
       95     5708    2               ADDRESS < (S_D.MOD_L6.ADDRESS + S_D.MOD_L6.VALUE.SIZE -6 )
       96     5709    3             THEN DO;
       97     5710    3                  OFFSET = ADDRESS - S_D.MOD_L6.ADDRESS;
       98     5711    4                  DO I = OFFSET TO 15;
       99     5712    4                       NVALUE.OPS(I - OFFSET) = S_D.MOD_L6.VALUE.OPS(I);
      100     5713    4                     END;
      101     5714    3                  NVALUE.SIZE = 16 - OFFSET;
      102     5715    3                  RETURN;
      103     5716    3                END;
      104     5717    2           END;
      105     5718                                                /* Set up message for FD */
      106     5719    1        GD$MSG = '0'B;
      107     5720    1        GD$MSG.FNC = %GD#RQSDISPMEM_D;
      108     5721    1        GD$MSG.DISPMEM_D.ADDRESS = ADDRESS;
      109     5722    1        GD$MSG.DISPMEM_D.SEG = SEG;
      110     5723    1        GD$MSG.DISPMEM_D.DESC# = DESC#;
PL6.E3A0      #001=DFK$GETMVAL File=DFK$GETMVAL.:E05TSI                          TUE 07/29/97 14:40 Page:4
      111     5724    1        GD$MSG.DISPMEM_D.NOT_IS = NOT_IS;
      112     5725    1        IF S_D.DO$ ~= ADDR(NIL) AND SEG = 3 AND
      113     5726    1          (S_D.DO$ -> ALL_ATTACH.CMD = C_DUMP /* C_DUMP */ OR
      114     5727    1          S_D.DO$ -> ALL_ATTACH.CMD = C_MODIFY /* C_MODIFY */ OR
      115     5728    1          S_D.DO$ -> ALL_ATTACH.CMD = C_MODIFYDW /* C_MODIFYDW */ OR
      116     5729    1          S_D.DO$ -> ALL_ATTACH.CMD = C_EVAL) /* C_EVAL */
      117     5730    1        THEN GD$MSG.DISPMEM_D.DUMPCMD = '1'B;
      118     5731    1        CALL DFQ$WRITE_FD(S_D.CURRENT_FPRG_CONTEXT$) ALTRET(ERR);
      119     5732    1        CALL DFQ$READ_FD(S_D.CURRENT_FPRG_CONTEXT$, '0'B) ALTRET(ERR);
      120     5733    1        IF GD$MSG.FNC ~= %GD#RSPDISPMEM
      121     5734    2        THEN DO;
      122     5735    3             DO CASE(GD$MSG.FNC);
      123     5736    3               CASE(%GD#RSPBADADR);
      124     5737    3                  S_D.ERROR = E@BADADDR;   /* E@BADADDR */
      125     5738    3               CASE(%GD#RSPDD2CPLX);
      126     5739    3                  S_D.ERROR = E@EXPR2CMPLX; /* E@EXPR2CMPLX */
      127     5740    3               CASE(%GD#RSPDDNOTL6);
      128     5741    3   NOTFEP:        S_D.ERROR = E@DDNOTFEP;  /* E@DDNOTFEP */
      129     5742    3               CASE(%GD#RSPUNSUPRT);
      130     5743    3                  S_D.ERROR = E@NOTIMP;    /* E@NOTIMP */
      131     5744    3               CASE(%GD#RSPBADPTR);
      132     5745    3                  S_D.ERROR = E@BADPTR;    /* E@BADPTR */
      133     5746    3               CASE(ELSE);
      134     5747    3                  IF S_D.CURRENT_FPRG_CONTEXT$ -> FPRG$CONTEXT.XDELTA AND
      135     5748    3                    GD$MSG.FNC = %GD#RSPBADMSG
      136     5749    4                  THEN DO;
      137     5750    4                       S_D.ERROR = E@BADMSG; /* E@BADMSG */
      138     5751    4                       GOTO ARET;
      139     5752    4                     END;
      140     5753    3                  IF GD$MSG.FNC = %GD#RSPNAK
      141     5754    4                  THEN DO;
      142     5755    4                       IF S_D.CURRENT_FPRG_CONTEXT$ -> FPRG$CONTEXT.XDELTA
      143     5756    5                       THEN DO;
      144     5757    5                            TEMP1 = BITBIN(GD$MSG.ERROR_D.ERRCODE);
      145     5758    5                            TEMP2B.B1 = TEMP1B.B1;
      146     5759    5                            TEMP2B.B2 = TEMP1B.B2;
      147     5760    5                            TEMP2B.B3 = TEMP1B.B3;
PL6.E3A0      #001=DFK$GETMVAL File=DFK$GETMVAL.:E05TSI                          TUE 07/29/97 14:40 Page:5
      148     5761    5                            TEMP2B.B4 = TEMP1B.B4;
      149     5762    5                            S_D.JDE = TEMP2;
      150     5763    5                          END;
      151     5764    4                       ELSE S_D.JDE = BITBIN(GD$MSG_HOST.ERROR_D.ERRCODE);
      152     5765    4                       CALL DUE$ERRMSG;
      153     5766    4                       ALTRETURN;
      154     5767    4                     END;
      155     5768    3                  REMEMBER NEVER IN S_D.SCREECH_IC;
      156     5769    3                  CALL M$SCREECH (SNAP_MESSAGE) ALTRET(NEVER);
      157     5770    3   NEVER:
      158     5771    3                  S_D.ERROR = E@BADMESSAGE; /* E@BADMESSAGE */
      159     5772    3                  CALL DDE$ERROR;
      160     5773    3                  S_D.ERROR = E@DELBUG;    /* E@DELBUG */
      161     5774    3                  CALL DDE$ERROR;
      162     5775    3               END;
      163     5776    2             GOTO ARET;
      164     5777    2           END;
      165     5778    1        NVALUE.SIZE = GD$MSG.DISPMEM_D.DATA_SIZE;
      166     5779    2        DO I = 0 TO NVALUE.SIZE - 1;
      167     5780    2             NVALUE.OPS(I) = GD$MSG.DISPMEM_D.DATA(I);
      168     5781    2           END;
      169     5782                                                /* Save in cache in S_D */
      170     5783    1        IF CACHE AND SEG = 3
      171     5784    2        THEN DO;
      172     5785    2             S_D.MOD_L6.ADDRESS = ADDRESS;
      173     5786    2             S_D.MOD_L6.SEG = SEG;
      174     5787    2             S_D.MOD_L6.DESC# = DESC#;
      175     5788    2             S_D.MOD_L6.NOT_IS = NOT_IS;
      176     5789    2             S_D.MOD_L6.VALUE.SIZE = NVALUE.SIZE;
      177     5790    3             DO I = 0 TO 15;
      178     5791    3                  S_D.MOD_L6.VALUE.OPS(I) = NVALUE.OPS(I);
      179     5792    3                END;
      180     5793    2           END;
      181     5794    1   RETN:
      182     5795    1        RETURN;
      183     5796
      184     5797    1   ERR: ;
PL6.E3A0      #001=DFK$GETMVAL File=DFK$GETMVAL.:E05TSI                          TUE 07/29/97 14:40 Page:6
      185     5798    1        CALL DUE$ERRMSG;
      186     5799    1        S_D.ERROR = E@EVAL_ERROR;          /* E@EVAL_ERROR */
      187     5800    1   ARET: ;
      188     5801    1        ALTRETURN;
      189     5802    1   END DFK$GETMVAL;
      190     5803        %EOD;

PL6.E3A0      #001=DFK$GETMVAL File=DFK$GETMVAL.:E05TSI                          TUE 07/29/97 14:40 Page:7
--  Include file information  --

   DD_ERR_C.:E05TOU  is referenced.
   DD_SUBS_C.:E05TOU  is referenced.
   DD$BASED.:E05TOU  is referenced.
   GD_EQUS_E.:E05TOU  is referenced.
   GD$MSG_M.:E05TOU  is referenced.
   DD_SD_M.:E05TOU  is referenced.
   XUH_MACRO_C.:E05TOU  is referenced.
   DU_SCODE_C.:E05TOU  is referenced.
   CP_6.:E05TOU  cannot be made into a system file and is referenced.
   B$JIT_C.:E05TOU  was found in the system file and is never referenced.
   CP_6_C.:E05TOU  was found in the system file and is referenced.
      No diagnostics issued in procedure DFK$GETMVAL.

   Procedure DFK$GETMVAL requires 323 words for executable code.
   Procedure DFK$GETMVAL requires 16 words of local(AUTO) storage.

PL6.E3A0      #001=DFK$GETMVAL File=DFK$GETMVAL.:E05TSI                          TUE 07/29/97 14:40 Page:8

 Object Unit name= DFK$GETMVAL                                File name= DFK$GETMVAL.:E05TOU
 UTS= JUL 29 '97 14:40:06.52 TUE                              Compiler= PL-6/E31         Sev=      00
 SharedLib= :SHARED_SYSTEM                                    Alt SharedLib=


    ****  Control sections  ****

 Sect   Type Bound  Init  Size OctSiz  Section name(segment info)
    0   DCB   even  none     0      0  M$UC
    1   Proc  even  none   323    503  DFK$GETMVAL
    2  RoData even  none     3      3  DFK$GETMVAL

    ****  Entry defs  ****

                              Check   Calling
                             calling  sequence
  Sect OctLoc Primary Altret sequence   type   Parms  Name
     1      0   yes    yes     yes      Std        6  DFK$GETMVAL

  ****  Entry refs  ****

         Check        Calling
        calling       sequence
Altret sequence SRef   type   Args  Name
 yes     yes           Std       1 DFQ$WRITE_FD
 yes     yes           Std       2 DFQ$READ_FD
         yes           Std       0 DUE$ERRMSG
         yes           Std       0 DDE$ERROR
                       nStd      0 X66_AUTO_N
                       nStd      0 X66_ARET
                       Std       0 B_CONSPOOL_D
                       nStd      0 X66_AALT
PL6.E3A0      #001=DFK$GETMVAL File=DFK$GETMVAL.:E05TSI                          TUE 07/29/97 14:40 Page:9

  ****  Data refs  ****

  Flags:  r = read only, s = secondary
Flgs Name                             Flgs Name                             Flgs Name
     M$UC                             r    SNAP_MESSAGE                     r    S_D$
r    S_D_HOST_MESSAGE$                r    S_D_L6_MESSAGE$                       B_VECTNIL

  ****  Segment refs  ****

  Flags:  r = read only, s = secondary
Flgs Name                             Flgs Name                             Flgs Name
     ISSID
PL6.E3A0      #001=DFK$GETMVAL File=DFK$GETMVAL.:E05TSI                          TUE 07/29/97 14:40 Page:10


        1        1        /*M*  DFK$GETMVAL - Fetch data from an evaluated addres in L6 */
        2        2        /*T***********************************************************/
        3        3        /*T*                                                         */
        4        4        /*T* Copyright (c) Bull HN Information Systems Inc., 1997    */
        5        5        /*T*                                                         */
        6        6        /*T***********************************************************/
        7        7        /*X* DMR,PLM=5,IND=5,CSU=3,EXM=0,ECU=3,MOC,DCI=5,CRT=5 */
        8        8        /*F* NAME: DFK$GETMVAL
        9        9             PURPOSE:
       10       10                   This module writes a message to FD containing the
       11       11                   information about the evaluated address and gets back
       12       12                   16 words of memory at the evaluated address.
       13       13             DESCRIPTION:
       14       14                   Input is ADDRESS, SEG, DESC#, NOT_IS
       15       15                   Output is 16 words from FD at the evaluated address.  */
       16       16
       17       17        DFK$GETMVAL: PROC(NVALUE, ADDRESS, SEG, DESC#, NOT_IS, CACHE) ALTRET;

     17  1 000000   000000 700200 xent  DFK$GETMVAL  TSX0  ! X66_AUTO_N
         1 000001   000020 000006                    ZERO    16,6

       18       18
       19       19        /* Parms */
       20       20    1   DCL 1 NVALUE ALIGNED,
       21       21    1         2 SIZE UBIN,
       22       22    1         2 OPS(0:15) UBIN,
       23       23    1         2 OPSB(0:15) REDEF OPS,
       24       24    1           3 * BIT(20) UNAL,
       25       25    1           3 UH UBIN(8) UNAL,
       26       26    1           3 LH UBIN(8) UNAL;
       27       27    1   DCL ADDRESS SBIN;
       28       28    1   DCL SEG UBIN;
       29       29    1   DCL DESC# UBIN;
       30       30    1   DCL NOT_IS BIT(1) ALIGNED;
       31       31    1   DCL CACHE BIT(1) ALIGNED;
       32       32        /* Local Auto */
PL6.E3A0      #001=DFK$GETMVAL File=DFK$GETMVAL.:E05TSI                          TUE 07/29/97 14:40 Page:11
       33       33    1   DCL I UBIN;
       34       34    1   DCL OFFSET UBIN;
       35       35    1   DCL TEMP$ PTR;
       36       36    1   DCL TEMP1 REDEF TEMP$ UBIN(36) ALIGNED;
       37       37    1   DCL 1 TEMP1B REDEF TEMP$ ALIGNED,
       38       38    1         2 * UBIN(4) UNAL,
       39       39    1         2 B1 UBIN(8) UNAL,
       40       40    1         2 B2 UBIN(8) UNAL,
       41       41    1         2 B3 UBIN(8) UNAL,
       42       42    1         2 B4 UBIN(8) UNAL;
       43       43    1   DCL TEMP2 UBIN(36) ALIGNED;
       44       44    1   DCL 1 TEMP2B REDEF TEMP2 ALIGNED,
       45       45    1         2 * BIT(1) UNAL,
       46       46    1         2 B1 UBIN(8) UNAL,
       47       47    1         2 * BIT(1) UNAL,
       48       48    1         2 B2 UBIN(8) UNAL,
       49       49    1         2 * BIT(1) UNAL,
       50       50    1         2 B3 UBIN(8) UNAL,
       51       51    1         2 * BIT(1) UNAL,
       52       52    1         2 B4 UBIN(8) UNAL;
       53       53        /* Includes and Based Structures */
       54       54        %INCLUDE CP_6;
       55      135        %INCLUDE DU_SCODE_C;
       56      148        %FPT_SCREECH(FPTN=SNAP_MESSAGE,STCLASS=SYMREF READONLY);
       57      162        %VLP_SCODE(FPTN=SC_MESSAGE, STCLASS=SYMREF READONLY);
       58      223        %INCLUDE XUH_MACRO_C;
       59      307        %INCLUDE DD_SD_M;
       60     1643        %S_D;
       61     2961        %S_D_PTRS;
       62     2998        %INCLUDE GD$MSG_M;
       63     3162       %GD$MSG(FPTN=GD$MSG, STCLASS="BASED(S_D_L6_MESSAGE$)", L6=YES, L6PTR="UBIN(32) UNAL"
              3162            );
       64     3318        %GD$MSG(FPTN=GD$MSG_HOST, STCLASS="BASED(S_D_HOST_MESSAGE$)", L6=NO);
       65     3474        %INCLUDE GD_EQUS_E;
       66     3635        %INCLUDE DD$BASED;
       67     4938        %FPRG$CONTEXT;
       68     5001        %ALL_ATTACH;
PL6.E3A0      #001=DFK$GETMVAL File=DFK$GETMVAL.:E05TSI                          TUE 07/29/97 14:40 Page:12
       69     5016        %INCLUDE DD_SUBS_C;
       70     5287        %INCLUDE DD_ERR_C;
       71     5684        /* Entry DCLs */
       72     5685    1   DCL DDE$ERROR ENTRY;
       73     5686    1   DCL DFQ$READ_FD  ENTRY(2) ALTRET;
       74     5687    1   DCL DFQ$WRITE_FD ENTRY(1) ALTRET;
       75     5688    1   DCL DUE$ERRMSG   ENTRY;
       76     5689    1   DCL DUE$GERRMSG   ENTRY;
       77     5690
       78     5691    1        IF SEG = 6

   5691  1 000002   200005 470500                    LDP0    @SEG,,AUTO
         1 000003   000000 235100                    LDA     0,,PR0
         1 000004   000006 115007                    CMPA    6,DL
         1 000005   000030 601000 1                  TNZ     s:5702

       79     5692    2        THEN DO;

       80     5693    2             IF DESC# ~= 0 OR ADDRESS ~= 12

   5693  1 000006   200006 471500                    LDP1    @DESC#,,AUTO
         1 000007   100000 235100                    LDA     0,,PR1
         1 000010   000253 601000 1                  TNZ     NOTFEP
         1 000011   200004 473500                    LDP3    @ADDRESS,,AUTO
         1 000012   300000 235100                    LDA     0,,PR3
         1 000013   000014 115007                    CMPA    12,DL
         1 000014   000253 601000 1                  TNZ     NOTFEP

       81     5694    2             THEN
       82     5695    2                  GOTO NOTFEP;
       83     5696    2             NVALUE.SIZE = 2;

   5696  1 000015   000002 236007                    LDQ     2,DL
         1 000016   200003 474500                    LDP4    @NVALUE,,AUTO
         1 000017   400000 756100                    STQ     0,,PR4

       84     5697    2             NVALUE.OPS(0) = S_D.SAVEIC/65536;
PL6.E3A0      #001=DFK$GETMVAL File=DFK$GETMVAL.:E05TSI                          TUE 07/29/97 14:40 Page:13

   5697  1 000020   000000 475400 xsym               LDP5    S_D$
         1 000021   500002 236100                    LDQ     2,,PR5
         1 000022   000020 772000                    QRL     16
         1 000023   400001 756100                    STQ     1,,PR4

       85     5698    2             NVALUE.OPS(1) = MOD (S_D.SAVEIC,65536);

   5698  1 000024   500002 236100                    LDQ     2,,PR5
         1 000025   177777 376007                    ANQ     65535,DL
         1 000026   400002 756100                    STQ     2,,PR4

       86     5699    2             RETURN;

   5699  1 000027   000000 702200 xent               TSX2  ! X66_ARET

       87     5700    2           END;
       88     5701         /* Check to see if contents of evaluated address are already in cache in S_D. */
       89     5702    1        IF S_D.L6_CACHE

   5702  1 000030   000000 471400 xsym               LDP1    S_D$
         1 000031   105245 234100                    SZN     2725,,PR1
         1 000032   000107 605000 1                  TPL     s:5719

       90     5703    2        THEN DO;

       91     5704    2             IF SEG = S_D.MOD_L6.SEG AND

   5704  1 000033   000000 236100                    LDQ     0,,PR0
         1 000034   106773 116100                    CMPQ    3579,,PR1
         1 000035   000107 601000 1                  TNZ     s:5719
         1 000036   200006 473500                    LDP3    @DESC#,,AUTO
         1 000037   300000 236100                    LDQ     0,,PR3
         1 000040   106774 116100                    CMPQ    3580,,PR1
         1 000041   000107 601000 1                  TNZ     s:5719
         1 000042   200007 474500                    LDP4    @NOT_IS,,AUTO
         1 000043   400000 236100                    LDQ     0,,PR4
PL6.E3A0      #001=DFK$GETMVAL File=DFK$GETMVAL.:E05TSI                          TUE 07/29/97 14:40 Page:14
         1 000044   106775 676100                    ERQ     3581,,PR1
         1 000045   400000 376003                    ANQ     -131072,DU
         1 000046   000107 601000 1                  TNZ     s:5719
         1 000047   200004 475500                    LDP5    @ADDRESS,,AUTO
         1 000050   500000 236100                    LDQ     0,,PR5
         1 000051   106772 116100                    CMPQ    3578,,PR1
         1 000052   000107 604000 1                  TMI     s:5719
         1 000053   106772 236100                    LDQ     3578,,PR1
         1 000054   106776 036100                    ADLQ    3582,,PR1
         1 000055   000006 136007                    SBLQ    6,DL
         1 000056   500000 116100                    CMPQ    0,,PR5
         1 000057   000107 604400 1                  TMOZ    s:5719

       92     5705    2               DESC# = S_D.MOD_L6.DESC# AND
       93     5706    2               NOT_IS = S_D.MOD_L6.NOT_IS AND
       94     5707    2               ADDRESS >= S_D.MOD_L6.ADDRESS AND
       95     5708    2               ADDRESS < (S_D.MOD_L6.ADDRESS + S_D.MOD_L6.VALUE.SIZE -6 )
       96     5709    3             THEN DO;

       97     5710    3                  OFFSET = ADDRESS - S_D.MOD_L6.ADDRESS;

   5710  1 000060   500000 236100                    LDQ     0,,PR5
         1 000061   106772 136100                    SBLQ    3578,,PR1
         1 000062   200012 756100                    STQ     OFFSET,,AUTO

       98     5711    4                  DO I = OFFSET TO 15;

   5711  1 000063   200011 756100                    STQ     I,,AUTO
         1 000064   000077 710000 1                  TRA     s:5713+3

       99     5712    4                       NVALUE.OPS(I - OFFSET) = S_D.MOD_L6.VALUE.OPS(I);

   5712  1 000065   200011 236100                    LDQ     I,,AUTO
         1 000066   200012 136100                    SBLQ    OFFSET,,AUTO
         1 000067   000000 470400 xsym               LDP0    S_D$
         1 000070   200011 720100                    LXL0    I,,AUTO
         1 000071   200003 471500                    LDP1    @NVALUE,,AUTO
PL6.E3A0      #001=DFK$GETMVAL File=DFK$GETMVAL.:E05TSI                          TUE 07/29/97 14:40 Page:15
         1 000072   006777 235110                    LDA     3583,X0,PR0
         1 000073   100001 755106                    STA     1,QL,PR1

      100     5713    4                     END;

   5713  1 000074   200011 235100                    LDA     I,,AUTO
         1 000075   000001 035007                    ADLA    1,DL
         1 000076   200011 755100                    STA     I,,AUTO
         1 000077   200011 235100                    LDA     I,,AUTO
         1 000100   000020 115007                    CMPA    16,DL
         1 000101   000065 602000 1                  TNC     s:5712

      101     5714    3                  NVALUE.SIZE = 16 - OFFSET;

   5714  1 000102   200003 470500                    LDP0    @NVALUE,,AUTO
         1 000103   000020 236007                    LDQ     16,DL
         1 000104   200012 136100                    SBLQ    OFFSET,,AUTO
         1 000105   000000 756100                    STQ     0,,PR0

      102     5715    3                  RETURN;

   5715  1 000106   000000 702200 xent               TSX2  ! X66_ARET

      103     5716    3                END;
      104     5717    2           END;
      105     5718                                                /* Set up message for FD */
      106     5719    1        GD$MSG = '0'B;

   5719  1 000107   000000 473400 xsym               LDP3    S_D_L6_MESSAGE$
         1 000110   003100 060400                    CSL     bolr='003'O
         1 000111   000002 000001 xsym               BDSC    B_VECTNIL+2              by=0,bit=0,n=1
         1 000112   300000 004720                    BDSC    0,,PR3                   by=0,bit=0,n=2512

      107     5720    1        GD$MSG.FNC = %GD#RQSDISPMEM_D;

   5720  1 000113   300000 236100                    LDQ     0,,PR3
         1 000114   000000 376000 2                  ANQ     0
PL6.E3A0      #001=DFK$GETMVAL File=DFK$GETMVAL.:E05TSI                          TUE 07/29/97 14:40 Page:16
         1 000115   036000 276003                    ORQ     15360,DU
         1 000116   300000 756100                    STQ     0,,PR3

      108     5721    1        GD$MSG.DISPMEM_D.ADDRESS = ADDRESS;

   5721  1 000117   200004 474500                    LDP4    @ADDRESS,,AUTO
         1 000120   003100 061500                    CSR     bolr='003'O
         1 000121   400000 000044                    BDSC    0,,PR4                   by=0,bit=0,n=36
         1 000122   300001 610040                    BDSC    1,,PR3                   by=3,bit=1,n=32

      109     5722    1        GD$MSG.DISPMEM_D.SEG = SEG;

   5722  1 000123   000000 236100                    LDQ     0,,PR0
         1 000124   000004 736000                    QLS     4
         1 000125   300002 676100                    ERQ     2,,PR3
         1 000126   003760 376007                    ANQ     2032,DL
         1 000127   300002 656100                    ERSQ    2,,PR3

      110     5723    1        GD$MSG.DISPMEM_D.DESC# = DESC#;

   5723  1 000130   200006 475500                    LDP5    @DESC#,,AUTO
         1 000131   003100 061500                    CSR     bolr='003'O
         1 000132   500000 000044                    BDSC    0,,PR5                   by=0,bit=0,n=36
         1 000133   300002 650010                    BDSC    2,,PR3                   by=3,bit=5,n=8

      111     5724    1        GD$MSG.DISPMEM_D.NOT_IS = NOT_IS;

   5724  1 000134   200007 476500                    LDP6    @NOT_IS,,AUTO
         1 000135   600000 236100                    LDQ     0,,PR6
         1 000136   000022 772000                    QRL     18
         1 000137   300000 676100                    ERQ     0,,PR3
         1 000140   400000 376007                    ANQ     -131072,DL
         1 000141   300000 656100                    ERSQ    0,,PR3

      112     5725    1        IF S_D.DO$ ~= ADDR(NIL) AND SEG = 3 AND

   5725  1 000142   100031 236100                    LDQ     25,,PR1
PL6.E3A0      #001=DFK$GETMVAL File=DFK$GETMVAL.:E05TSI                          TUE 07/29/97 14:40 Page:17
         1 000143   000001 116000 xsym               CMPQ    B_VECTNIL+1
         1 000144   000165 600000 1                  TZE     s:5731
         1 000145   000000 235100                    LDA     0,,PR0
         1 000146   000003 115007                    CMPA    3,DL
         1 000147   000165 601000 1                  TNZ     s:5731
         1 000150   100031 477500                    LDP7    25,,PR1
         1 000151   700000 236100                    LDQ     0,,PR7
         1 000152   777000 376003                    ANQ     -512,DU
         1 000153   007000 116003                    CMPQ    3584,DU
         1 000154   000163 600000 1                  TZE     s:5730
         1 000155   034000 116003                    CMPQ    14336,DU
         1 000156   000163 600000 1                  TZE     s:5730
         1 000157   046000 116003                    CMPQ    19456,DU
         1 000160   000163 600000 1                  TZE     s:5730
         1 000161   010000 116003                    CMPQ    4096,DU
         1 000162   000165 601000 1                  TNZ     s:5731

      113     5726    1          (S_D.DO$ -> ALL_ATTACH.CMD = C_DUMP /* C_DUMP */ OR
      114     5727    1          S_D.DO$ -> ALL_ATTACH.CMD = C_MODIFY /* C_MODIFY */ OR
      115     5728    1          S_D.DO$ -> ALL_ATTACH.CMD = C_MODIFYDW /* C_MODIFYDW */ OR
      116     5729    1          S_D.DO$ -> ALL_ATTACH.CMD = C_EVAL) /* C_EVAL */
      117     5730    1        THEN GD$MSG.DISPMEM_D.DUMPCMD = '1'B;

   5730  1 000163   010000 236007                    LDQ     4096,DL
         1 000164   300000 256100                    ORSQ    0,,PR3

      118     5731    1        CALL DFQ$WRITE_FD(S_D.CURRENT_FPRG_CONTEXT$) ALTRET(ERR);

   5731  1 000165   000000 236000 xsym               LDQ     S_D$
         1 000166   000102 036003                    ADLQ    66,DU
         1 000167   200016 756100                    STQ     TEMP2+2,,AUTO
         1 000170   200016 630500                    EPPR0   TEMP2+2,,AUTO
         1 000171   000017 631400 xsym               EPPR1   B_VECTNIL+15
         1 000172   000000 701000 xent               TSX1    DFQ$WRITE_FD
         1 000173   000474 702000 1                  TSX2    ERR

      119     5732    1        CALL DFQ$READ_FD(S_D.CURRENT_FPRG_CONTEXT$, '0'B) ALTRET(ERR);
PL6.E3A0      #001=DFK$GETMVAL File=DFK$GETMVAL.:E05TSI                          TUE 07/29/97 14:40 Page:18

   5732  1 000174   000001 236000 2                  LDQ     1
         1 000175   200017 756100                    STQ     TEMP2+3,,AUTO
         1 000176   000000 236000 xsym               LDQ     S_D$
         1 000177   000102 036003                    ADLQ    66,DU
         1 000200   200016 756100                    STQ     TEMP2+2,,AUTO
         1 000201   200016 630500                    EPPR0   TEMP2+2,,AUTO
         1 000202   000020 631400 xsym               EPPR1   B_VECTNIL+16
         1 000203   000000 701000 xent               TSX1    DFQ$READ_FD
         1 000204   000474 702000 1                  TSX2    ERR

      120     5733    1        IF GD$MSG.FNC ~= %GD#RSPDISPMEM

   5733  1 000205   000000 470400 xsym               LDP0    S_D_L6_MESSAGE$
         1 000206   000000 236100                    LDQ     0,,PR0
         1 000207   776000 376003                    ANQ     -1024,DU
         1 000210   102000 116003                    CMPQ    33792,DU
         1 000211   000402 600000 1                  TZE     s:5778

      121     5734    2        THEN DO;

      122     5735    3             DO CASE(GD$MSG.FNC);

   5735  1 000212   000000 236100                    LDQ     0,,PR0
         1 000213   000034 772000                    QRL     28
         1 000214   000050 136007                    SBLQ    40,DL
         1 000215   000023 116007                    CMPQ    19,DL
         1 000216   000220 602006 1                  TNC     s:5735+6,QL
         1 000217   000267 710000 1                  TRA     s:5747
         1 000220   000263 710000 1                  TRA     s:5745
         1 000221   000267 710000 1                  TRA     s:5747
         1 000222   000267 710000 1                  TRA     s:5747
         1 000223   000267 710000 1                  TRA     s:5747
         1 000224   000267 710000 1                  TRA     s:5747
         1 000225   000267 710000 1                  TRA     s:5747
         1 000226   000267 710000 1                  TRA     s:5747
         1 000227   000267 710000 1                  TRA     s:5747
PL6.E3A0      #001=DFK$GETMVAL File=DFK$GETMVAL.:E05TSI                          TUE 07/29/97 14:40 Page:19
         1 000230   000267 710000 1                  TRA     s:5747
         1 000231   000267 710000 1                  TRA     s:5747
         1 000232   000267 710000 1                  TRA     s:5747
         1 000233   000267 710000 1                  TRA     s:5747
         1 000234   000267 710000 1                  TRA     s:5747
         1 000235   000267 710000 1                  TRA     s:5747
         1 000236   000267 710000 1                  TRA     s:5747
         1 000237   000243 710000 1                  TRA     s:5737
         1 000240   000257 710000 1                  TRA     s:5743
         1 000241   000247 710000 1                  TRA     s:5739
         1 000242   000253 710000 1                  TRA     NOTFEP

      123     5736    3               CASE(%GD#RSPBADADR);

      124     5737    3                  S_D.ERROR = E@BADADDR;   /* E@BADADDR */

   5737  1 000243   000123 235007                    LDA     83,DL
         1 000244   000000 471400 xsym               LDP1    S_D$
         1 000245   100013 755100                    STA     11,,PR1
         1 000246   000401 710000 1                  TRA     s:5776

      125     5738    3               CASE(%GD#RSPDD2CPLX);

      126     5739    3                  S_D.ERROR = E@EXPR2CMPLX; /* E@EXPR2CMPLX */

   5739  1 000247   000045 235007                    LDA     37,DL
         1 000250   000000 471400 xsym               LDP1    S_D$
         1 000251   100013 755100                    STA     11,,PR1
         1 000252   000401 710000 1                  TRA     s:5776

      127     5740    3               CASE(%GD#RSPDDNOTL6);

      128     5741    3   NOTFEP:        S_D.ERROR = E@DDNOTFEP;  /* E@DDNOTFEP */

   5741  1 000253   001017 235007       NOTFEP       LDA     527,DL
         1 000254   000000 470400 xsym               LDP0    S_D$
         1 000255   000013 755100                    STA     11,,PR0
PL6.E3A0      #001=DFK$GETMVAL File=DFK$GETMVAL.:E05TSI                          TUE 07/29/97 14:40 Page:20
         1 000256   000401 710000 1                  TRA     s:5776

      129     5742    3               CASE(%GD#RSPUNSUPRT);

      130     5743    3                  S_D.ERROR = E@NOTIMP;    /* E@NOTIMP */

   5743  1 000257   000767 235007                    LDA     503,DL
         1 000260   000000 471400 xsym               LDP1    S_D$
         1 000261   100013 755100                    STA     11,,PR1
         1 000262   000401 710000 1                  TRA     s:5776

      131     5744    3               CASE(%GD#RSPBADPTR);

      132     5745    3                  S_D.ERROR = E@BADPTR;    /* E@BADPTR */

   5745  1 000263   000150 235007                    LDA     104,DL
         1 000264   000000 471400 xsym               LDP1    S_D$
         1 000265   100013 755100                    STA     11,,PR1
         1 000266   000401 710000 1                  TRA     s:5776

      133     5746    3               CASE(ELSE);

      134     5747    3                  IF S_D.CURRENT_FPRG_CONTEXT$ -> FPRG$CONTEXT.XDELTA AND

   5747  1 000267   000000 471400 xsym               LDP1    S_D$
         1 000270   100102 473500                    LDP3    66,,PR1
         1 000271   300001 236100                    LDQ     1,,PR3
         1 000272   002000 316003                    CANQ    1024,DU
         1 000273   000303 600000 1                  TZE     s:5753
         1 000274   000000 236100                    LDQ     0,,PR0
         1 000275   776000 376003                    ANQ     -1024,DU
         1 000276   140000 116003                    CMPQ    49152,DU
         1 000277   000303 601000 1                  TNZ     s:5753

      135     5748    3                    GD$MSG.FNC = %GD#RSPBADMSG
      136     5749    4                  THEN DO;

PL6.E3A0      #001=DFK$GETMVAL File=DFK$GETMVAL.:E05TSI                          TUE 07/29/97 14:40 Page:21
      137     5750    4                       S_D.ERROR = E@BADMSG; /* E@BADMSG */

   5750  1 000300   000512 235007                    LDA     330,DL
         1 000301   100013 755100                    STA     11,,PR1

      138     5751    4                       GOTO ARET;

   5751  1 000302   000502 710000 1                  TRA     ARET

      139     5752    4                     END;
      140     5753    3                  IF GD$MSG.FNC = %GD#RSPNAK

   5753  1 000303   000000 236100                    LDQ     0,,PR0
         1 000304   776000 376003                    ANQ     -1024,DU
         1 000305   150000 116003                    CMPQ    53248,DU
         1 000306   000356 601000 1                  TNZ     s:5768

      141     5754    4                  THEN DO;

      142     5755    4                       IF S_D.CURRENT_FPRG_CONTEXT$ -> FPRG$CONTEXT.XDELTA

   5755  1 000307   300001 236100                    LDQ     1,,PR3
         1 000310   002000 316003                    CANQ    1024,DU
         1 000311   000345 600000 1                  TZE     s:5764

      143     5756    5                       THEN DO;

      144     5757    5                            TEMP1 = BITBIN(GD$MSG.ERROR_D.ERRCODE);

   5757  1 000312   000000 235100                    LDA     0,,PR0
         1 000313   000001 236100                    LDQ     1,,PR0
         1 000314   000030 773000                    LRL     24
         1 000315   000002 376000 2                  ANQ     2
         1 000316   200013 756100                    STQ     TEMP$,,AUTO

      145     5758    5                            TEMP2B.B1 = TEMP1B.B1;

PL6.E3A0      #001=DFK$GETMVAL File=DFK$GETMVAL.:E05TSI                          TUE 07/29/97 14:40 Page:22
   5758  1 000317   200013 236100                    LDQ     TEMP$,,AUTO
         1 000320   000003 736000                    QLS     3
         1 000321   200014 676100                    ERQ     TEMP2,,AUTO
         1 000322   377000 376003                    ANQ     130560,DU
         1 000323   200014 656100                    ERSQ    TEMP2,,AUTO

      146     5759    5                            TEMP2B.B2 = TEMP1B.B2;

   5759  1 000324   200013 236100                    LDQ     TEMP$,,AUTO
         1 000325   000002 736000                    QLS     2
         1 000326   200014 676100                    ERQ     TEMP2,,AUTO
         1 000327   000377 376003                    ANQ     255,DU
         1 000330   200014 656100                    ERSQ    TEMP2,,AUTO

      147     5760    5                            TEMP2B.B3 = TEMP1B.B3;

   5760  1 000331   200013 236100                    LDQ     TEMP$,,AUTO
         1 000332   000001 736000                    QLS     1
         1 000333   200014 676100                    ERQ     TEMP2,,AUTO
         1 000334   377000 376007                    ANQ     130560,DL
         1 000335   200014 656100                    ERSQ    TEMP2,,AUTO

      148     5761    5                            TEMP2B.B4 = TEMP1B.B4;

   5761  1 000336   200013 236100                    LDQ     TEMP$,,AUTO
         1 000337   200014 676100                    ERQ     TEMP2,,AUTO
         1 000340   000377 376007                    ANQ     255,DL
         1 000341   200014 656100                    ERSQ    TEMP2,,AUTO

      149     5762    5                            S_D.JDE = TEMP2;

   5762  1 000342   200014 235100                    LDA     TEMP2,,AUTO
         1 000343   104733 755100                    STA     2523,,PR1

      150     5763    5                          END;

   5763  1 000344   000352 710000 1                  TRA     s:5765
PL6.E3A0      #001=DFK$GETMVAL File=DFK$GETMVAL.:E05TSI                          TUE 07/29/97 14:40 Page:23

      151     5764    4                       ELSE S_D.JDE = BITBIN(GD$MSG_HOST.ERROR_D.ERRCODE);

   5764  1 000345   000000 474400 xsym               LDP4    S_D_HOST_MESSAGE$
         1 000346   400000 235100                    LDA     0,,PR4
         1 000347   400001 236100                    LDQ     1,,PR4
         1 000350   000022 773000                    LRL     18
         1 000351   104733 756100                    STQ     2523,,PR1

      152     5765    4                       CALL DUE$ERRMSG;

   5765  1 000352   000002 631400 xsym               EPPR1   B_VECTNIL+2
         1 000353   000000 701000 xent               TSX1    DUE$ERRMSG
         1 000354   000000 011000                    NOP     0

      153     5766    4                       ALTRETURN;

   5766  1 000355   000000 702200 xent               TSX2  ! X66_AALT

      154     5767    4                     END;
      155     5768    3                  REMEMBER NEVER IN S_D.SCREECH_IC;

   5768  1 000356   000365 635000 1                  EAA     NEVER
         1 000357   105250 452500                    STP2    2728,,PR1
         1 000360   105251 755100                    STA     2729,,PR1

      156     5769    3                  CALL M$SCREECH (SNAP_MESSAGE) ALTRET(NEVER);

   5769  1 000361   000000 630400 xsym               EPPR0   SNAP_MESSAGE
         1 000362   400013 713400                    CLIMB   alt,+11
         1 000363   401000 401760                    pmme    nvectors=3
         1 000364   000365 702000 1                  TSX2    NEVER

      157     5770    3   NEVER:
      158     5771    3                  S_D.ERROR = E@BADMESSAGE; /* E@BADMESSAGE */

   5771  1 000365   001014 235007       NEVER        LDA     524,DL
PL6.E3A0      #001=DFK$GETMVAL File=DFK$GETMVAL.:E05TSI                          TUE 07/29/97 14:40 Page:24
         1 000366   000000 470400 xsym               LDP0    S_D$
         1 000367   000013 755100                    STA     11,,PR0

      159     5772    3                  CALL DDE$ERROR;

   5772  1 000370   000002 631400 xsym               EPPR1   B_VECTNIL+2
         1 000371   000000 701000 xent               TSX1    DDE$ERROR
         1 000372   000000 011000                    NOP     0

      160     5773    3                  S_D.ERROR = E@DELBUG;    /* E@DELBUG */

   5773  1 000373   000766 235007                    LDA     502,DL
         1 000374   000000 470400 xsym               LDP0    S_D$
         1 000375   000013 755100                    STA     11,,PR0

      161     5774    3                  CALL DDE$ERROR;

   5774  1 000376   000002 631400 xsym               EPPR1   B_VECTNIL+2
         1 000377   000000 701000 xent               TSX1    DDE$ERROR
         1 000400   000000 011000                    NOP     0

      162     5775    3               END;

      163     5776    2             GOTO ARET;

   5776  1 000401   000502 710000 1                  TRA     ARET

      164     5777    2           END;
      165     5778    1        NVALUE.SIZE = GD$MSG.DISPMEM_D.DATA_SIZE;

   5778  1 000402   200003 471500                    LDP1    @NVALUE,,AUTO
         1 000403   000000 236100                    LDQ     0,,PR0
         1 000404   000004 772000                    QRL     4
         1 000405   000377 376007                    ANQ     255,DL
         1 000406   100000 756100                    STQ     0,,PR1

      166     5779    2        DO I = 0 TO NVALUE.SIZE - 1;
PL6.E3A0      #001=DFK$GETMVAL File=DFK$GETMVAL.:E05TSI                          TUE 07/29/97 14:40 Page:25

   5779  1 000407   200011 450100                    STZ     I,,AUTO
         1 000410   000427 710000 1                  TRA     s:5781+3

      167     5780    2             NVALUE.OPS(I) = GD$MSG.DISPMEM_D.DATA(I);

   5780  1 000411   200011 235100                    LDA     I,,AUTO
         1 000412   000004 735000                    ALS     4
         1 000413   200011 236100                    LDQ     I,,AUTO
         1 000414   200016 755100                    STA     TEMP2+2,,AUTO
         1 000415   000044 402007                    MPY     36,DL
         1 000416   000000 470400 xsym               LDP0    S_D_L6_MESSAGE$
         1 000417   200016 235100                    LDA     TEMP2+2,,AUTO
         1 000420   200003 471500                    LDP1    @NVALUE,,AUTO
         1 000421   003106 061505                    CSR     bolr='003'O
         1 000422   000003 420020                    BDSC    3,A,PR0                  by=2,bit=2,n=16
         1 000423   100001 000044                    BDSC    1,Q,PR1                  by=0,bit=0,n=36

      168     5781    2           END;

   5781  1 000424   200011 235100                    LDA     I,,AUTO
         1 000425   000001 035007                    ADLA    1,DL
         1 000426   200011 755100                    STA     I,,AUTO
         1 000427   200011 236100                    LDQ     I,,AUTO
         1 000430   100000 116100                    CMPQ    0,,PR1
         1 000431   000411 602000 1                  TNC     s:5780

      169     5782                                                /* Save in cache in S_D */
      170     5783    1        IF CACHE AND SEG = 3

   5783  1 000432   200010 473500                    LDP3    @CACHE,,AUTO
         1 000433   300000 234100                    SZN     0,,PR3
         1 000434   000473 605000 1                  TPL     RETN
         1 000435   200005 474500                    LDP4    @SEG,,AUTO
         1 000436   400000 235100                    LDA     0,,PR4
         1 000437   000003 115007                    CMPA    3,DL
         1 000440   000473 601000 1                  TNZ     RETN
PL6.E3A0      #001=DFK$GETMVAL File=DFK$GETMVAL.:E05TSI                          TUE 07/29/97 14:40 Page:26

      171     5784    2        THEN DO;

      172     5785    2             S_D.MOD_L6.ADDRESS = ADDRESS;

   5785  1 000441   200004 475500                    LDP5    @ADDRESS,,AUTO
         1 000442   000000 476400 xsym               LDP6    S_D$
         1 000443   500000 235100                    LDA     0,,PR5
         1 000444   606772 755100                    STA     3578,,PR6

      173     5786    2             S_D.MOD_L6.SEG = SEG;

   5786  1 000445   400000 235100                    LDA     0,,PR4
         1 000446   606773 755100                    STA     3579,,PR6

      174     5787    2             S_D.MOD_L6.DESC# = DESC#;

   5787  1 000447   200006 477500                    LDP7    @DESC#,,AUTO
         1 000450   700000 235100                    LDA     0,,PR7
         1 000451   606774 755100                    STA     3580,,PR6

      175     5788    2             S_D.MOD_L6.NOT_IS = NOT_IS;

   5788  1 000452   200007 470500                    LDP0    @NOT_IS,,AUTO
         1 000453   000000 236100                    LDQ     0,,PR0
         1 000454   400000 376003                    ANQ     -131072,DU
         1 000455   606775 756100                    STQ     3581,,PR6

      176     5789    2             S_D.MOD_L6.VALUE.SIZE = NVALUE.SIZE;

   5789  1 000456   100000 235100                    LDA     0,,PR1
         1 000457   606776 755100                    STA     3582,,PR6

      177     5790    3             DO I = 0 TO 15;

   5790  1 000460   200011 450100                    STZ     I,,AUTO

PL6.E3A0      #001=DFK$GETMVAL File=DFK$GETMVAL.:E05TSI                          TUE 07/29/97 14:40 Page:27
      178     5791    3                  S_D.MOD_L6.VALUE.OPS(I) = NVALUE.OPS(I);

   5791  1 000461   200003 470500                    LDP0    @NVALUE,,AUTO
         1 000462   200011 720100                    LXL0    I,,AUTO
         1 000463   000000 471400 xsym               LDP1    S_D$
         1 000464   000001 235110                    LDA     1,X0,PR0
         1 000465   106777 755110                    STA     3583,X0,PR1

      179     5792    3                END;

   5792  1 000466   200011 236100                    LDQ     I,,AUTO
         1 000467   000001 036007                    ADLQ    1,DL
         1 000470   200011 756100                    STQ     I,,AUTO
         1 000471   000020 116007                    CMPQ    16,DL
         1 000472   000461 602000 1                  TNC     s:5791

      180     5793    2           END;

      181     5794    1   RETN:
      182     5795    1        RETURN;

   5795  1 000473   000000 702200 xent  RETN         TSX2  ! X66_ARET

   5789  1 000474                       ERR          null
      183     5796
      184     5797    1   ERR: ;
      185     5798    1        CALL DUE$ERRMSG;

   5798  1 000474   000002 631400 xsym               EPPR1   B_VECTNIL+2
         1 000475   000000 701000 xent               TSX1    DUE$ERRMSG
         1 000476   000000 011000                    NOP     0

      186     5799    1        S_D.ERROR = E@EVAL_ERROR;          /* E@EVAL_ERROR */

   5799  1 000477   000476 235007                    LDA     318,DL
         1 000500   000000 470400 xsym               LDP0    S_D$
         1 000501   000013 755100                    STA     11,,PR0
PL6.E3A0      #001=DFK$GETMVAL File=DFK$GETMVAL.:E05TSI                          TUE 07/29/97 14:40 Page:28

   5799  1 000502                       ARET         null
      187     5800    1   ARET: ;
      188     5801    1        ALTRETURN;

   5801  1 000502   000000 702200 xent               TSX2  ! X66_AALT

(unnamed)
 Sect OctLoc
   2     000   001777 777777   000002 006000   037777 777777                    ............
      189     5802    1   END DFK$GETMVAL;
      190     5803        %EOD;

PL6.E3A0      #001=DFK$GETMVAL File=DFK$GETMVAL.:E05TSI                          TUE 07/29/97 14:40 Page:29
--  Include file information  --

   DD_ERR_C.:E05TOU  is referenced.
   DD_SUBS_C.:E05TOU  is referenced.
   DD$BASED.:E05TOU  is referenced.
   GD_EQUS_E.:E05TOU  is referenced.
   GD$MSG_M.:E05TOU  is referenced.
   DD_SD_M.:E05TOU  is referenced.
   XUH_MACRO_C.:E05TOU  is referenced.
   DU_SCODE_C.:E05TOU  is referenced.
   CP_6.:E05TOU  cannot be made into a system file and is referenced.
   B$JIT_C.:E05TOU  was found in the system file and is never referenced.
   CP_6_C.:E05TOU  was found in the system file and is referenced.
      No diagnostics issued in procedure DFK$GETMVAL.

   Procedure DFK$GETMVAL requires 323 words for executable code.
   Procedure DFK$GETMVAL requires 16 words of local(AUTO) storage.
PL6.E3A0      #001=DFK$GETMVAL File=DFK$GETMVAL.:E05TSI                          TUE 07/29/97 14:40 Page:30
          *** CROSS REFERENCE LISTING ***
**     DENOTES     IDENTIFIER DEFINITION
<<                 IDENTIFIER'S VALUE SET
>>                 IDENTIFIER'S VALUE USED
<>                 IDENTIFIER SET AND/OR USED
--                 IDENTIFIER REFERENCED
PL6.E3A0      #001=DFK$GETMVAL File=DFK$GETMVAL.:E05TSI                          TUE 07/29/97 14:40 Page:31
          MINI XREF LISTING

ADDRESS
        27**DCL        17--PROC     5693>>IF       5704>>IF       5704>>IF       5710>>ASSIGN   5721>>ASSIGN
      5785>>ASSIGN
ALL_ATTACH.CMD
      5003**DCL      5725>>IF       5725>>IF       5725>>IF       5725>>IF
ALL_ATTACH.UNUSED
      5006**DCL      5007--REDEF    5011--REDEF
ARET
      5799**LABEL    5751--GOTO     5776--GOTO
CACHE
        31**DCL        17--PROC     5783>>IF
DDE$ERROR
      5685**DCL-ENT  5772--CALL     5774--CALL
DESC#
        29**DCL        17--PROC     5693>>IF       5704>>IF       5723>>ASSIGN   5787>>ASSIGN
DFQ$READ_FD
      5686**DCL-ENT  5732--CALL
DFQ$WRITE_FD
      5687**DCL-ENT  5731--CALL
DUE$ERRMSG
      5688**DCL-ENT  5765--CALL     5798--CALL
ERR
      5789**LABEL    5731--CALLALT  5732--CALLALT
FPRG$CONTEXT.XDELTA
      4952**DCL      5747>>IF       5755>>IF
GD$MSG
      3179**DCL      5719<<ASSIGN
GD$MSG.BRKRQS.IF$CONST.SIZE
      3230**DCL      3230--REDEF
GD$MSG.BRKRQS.IF$CONST.TEXT
      3230**DCL      3231--REDEF    3231--REDEF    3232--REDEF    3233--REDEF
GD$MSG.BRKRSP.BRK#
PL6.E3A0      #001=DFK$GETMVAL File=DFK$GETMVAL.:E05TSI                          TUE 07/29/97 14:40 Page:32
      3244**DCL      3244--REDEF
GD$MSG.BRKRSP.USER#
      3244**DCL      3244--REDEF
GD$MSG.DISPMEM_D.ADDRESS
      3191**DCL      5721<<ASSIGN
GD$MSG.DISPMEM_D.DATA
      3196**DCL      5780>>ASSIGN
GD$MSG.DISPMEM_D.DATA_SIZE
      3191**DCL      5778>>ASSIGN
GD$MSG.DISPMEM_D.DESC#
      3196**DCL      5723<<ASSIGN
GD$MSG.DISPMEM_D.DUMPCMD
      3190**DCL      5730<<ASSIGN
GD$MSG.DISPMEM_D.NOT_IS
      3190**DCL      5724<<ASSIGN
GD$MSG.DISPMEM_D.SEG
      3196**DCL      5722<<ASSIGN
GD$MSG.ERROR_D.ERRCODE
      3185**DCL      5757>>ASSIGN
GD$MSG.FNC
      3179**DCL      5720<<ASSIGN   5733>>IF       5735>>DOCASE   5747>>IF       5753>>IF
GD$MSG.LETMEM_D.VALUE.SIZE
      3202**DCL      3202--REDEF
GD$MSG.LETMEM_D.VALUE.TEXT
      3203**DCL      3203--REDEF    3203--REDEF    3204--REDEF    3205--REDEF
GD$MSG.MESSAGE
      3184**DCL      3184--REDEF    3185--REDEF    3185--REDEF    3186--REDEF    3197--REDEF    3210--REDEF
      3215--REDEF    3222--REDEF    3238--REDEF    3243--REDEF    3249--REDEF    3250--REDEF    3279--REDEF
      3281--REDEF    3292--REDEF    3299--REDEF    3311--REDEF
GD$MSG.SUBFNC
      3179**DCL      3179--REDEF    3183--REDEF
GD$MSG.TSA.I
      3251**DCL      3251--REDEF
GD$MSG.TSA.S
      3253**DCL      3253--REDEF
GD$MSG.USERQS.ASDT$
PL6.E3A0      #001=DFK$GETMVAL File=DFK$GETMVAL.:E05TSI                          TUE 07/29/97 14:40 Page:33
      3279**DCL      3279--REDEF    3280--REDEF
GD$MSG_HOST.BRKRQS.IF$CONST.SIZE
      3386**DCL      3386--REDEF
GD$MSG_HOST.BRKRQS.IF$CONST.TEXT
      3386**DCL      3387--REDEF    3387--REDEF    3388--REDEF    3389--REDEF
GD$MSG_HOST.BRKRSP.BRK#
      3400**DCL      3400--REDEF
GD$MSG_HOST.BRKRSP.USER#
      3400**DCL      3400--REDEF
GD$MSG_HOST.ERROR_D.ERRCODE
      3341**DCL      5764>>ASSIGN
GD$MSG_HOST.LETMEM_D.VALUE.SIZE
      3358**DCL      3358--REDEF
GD$MSG_HOST.LETMEM_D.VALUE.TEXT
      3359**DCL      3359--REDEF    3359--REDEF    3360--REDEF    3361--REDEF
GD$MSG_HOST.MESSAGE
      3340**DCL      3340--REDEF    3341--REDEF    3341--REDEF    3342--REDEF    3353--REDEF    3366--REDEF
      3371--REDEF    3378--REDEF    3394--REDEF    3399--REDEF    3405--REDEF    3406--REDEF    3435--REDEF
      3437--REDEF    3448--REDEF    3455--REDEF    3467--REDEF
GD$MSG_HOST.SUBFNC
      3335**DCL      3335--REDEF    3339--REDEF
GD$MSG_HOST.TSA.I
      3407**DCL      3407--REDEF
GD$MSG_HOST.TSA.S
      3409**DCL      3409--REDEF
GD$MSG_HOST.USERQS.ASDT$
      3435**DCL      3435--REDEF    3436--REDEF
I
        33**DCL      5711<<DOINDEX  5712>>ASSIGN   5712>>ASSIGN   5779<<DOINDEX  5780>>ASSIGN   5780>>ASSIGN
      5790<<DOINDEX  5791>>ASSIGN   5791>>ASSIGN
M$SCREECH
        77**DCL-ENT  5769--CALL
NEVER
      5771**LABEL    5768--REMEMBR  5769--CALLALT
NOTFEP
      5741**LABEL    5695--GOTO
PL6.E3A0      #001=DFK$GETMVAL File=DFK$GETMVAL.:E05TSI                          TUE 07/29/97 14:40 Page:34
NOT_IS
        30**DCL        17--PROC     5704>>IF       5724>>ASSIGN   5788>>ASSIGN
NVALUE
        20**DCL        17--PROC
NVALUE.OPS
        22**DCL        23--REDEF    5697<<ASSIGN   5698<<ASSIGN   5712<<ASSIGN   5780<<ASSIGN   5791>>ASSIGN
NVALUE.SIZE
        21**DCL      5696<<ASSIGN   5714<<ASSIGN   5778<<ASSIGN   5779>>DOINDEX  5789>>ASSIGN
OFFSET
        34**DCL      5710<<ASSIGN   5711>>DOINDEX  5712>>ASSIGN   5714>>ASSIGN
SEG
        28**DCL        17--PROC     5691>>IF       5704>>IF       5722>>ASSIGN   5725>>IF       5783>>IF
      5786>>ASSIGN
SNAP_MESSAGE
       159**DCL      5769<>CALL
S_D.CURRENT_CHANNEL
      2595**DCL      2597--REDEF
S_D.CURRENT_FPRG_CONTEXT$
      1795**DCL      5731<>CALL     5732<>CALL     5747>>IF       5755>>IF
S_D.DEBUGA
      1747**DCL      1749--REDEF
S_D.DO$
      1698**DCL      5725>>IF       5725>>IF       5725>>IF       5725>>IF       5725>>IF
S_D.EIS
      2705**DCL      2734--REDEF
S_D.ERROR
      1676**DCL      5737<<ASSIGN   5739<<ASSIGN   5741<<ASSIGN   5743<<ASSIGN   5745<<ASSIGN   5750<<ASSIGN
      5771<<ASSIGN   5773<<ASSIGN   5799<<ASSIGN
S_D.HOST_MESSAGE_BUF_REMOTE
      2638**DCL      2639--REDEF    2653--REDEF
S_D.JDE
      2252**DCL      2253--REDEF    5762<<ASSIGN   5764<<ASSIGN
S_D.L$.VALUE
      1805**DCL      1811--REDEF    1819--REDEF    1822--REDEF    1825--REDEF    1828--REDEF
S_D.L$.VALUE.L
      1806**DCL      1807--REDEF    1808--REDEF
PL6.E3A0      #001=DFK$GETMVAL File=DFK$GETMVAL.:E05TSI                          TUE 07/29/97 14:40 Page:35
S_D.L6_CACHE
      2490**DCL      5702>>IF
S_D.L6_MESSAGE_BUF
      2659**DCL      2661--REDEF
S_D.MOD_L6.ADDRESS
      2768**DCL      5704>>IF       5704>>IF       5710>>ASSIGN   5785<<ASSIGN
S_D.MOD_L6.DESC#
      2770**DCL      5704>>IF       5787<<ASSIGN
S_D.MOD_L6.NOT_IS
      2771**DCL      5704>>IF       5788<<ASSIGN
S_D.MOD_L6.SEG
      2769**DCL      5704>>IF       5786<<ASSIGN
S_D.MOD_L6.VALUE.OPS
      2774**DCL      5712>>ASSIGN   5791<<ASSIGN
S_D.MOD_L6.VALUE.SIZE
      2773**DCL      5704>>IF       5789<<ASSIGN
S_D.OUTPUT
      2625**DCL      2627--REDEF
S_D.REMOTE_MSG.FNCC
      2644**DCL      2645--REDEF
S_D.REMOTE_MSG.STXC
      2640**DCL      2641--REDEF
S_D.REMOTE_MSG.SUBFNCC
      2648**DCL      2649--REDEF
S_D.SAVEIC
      1658**DCL      5697>>ASSIGN   5698>>ASSIGN
S_D.SCREECH_IC
      2496**DCL      5768<<REMEMBR
S_D.SV
      1704**DCL      1725--REDEF
S_D$
      2956**DCL      1652--IMP-PTR  5697>>ASSIGN   5698>>ASSIGN   5702>>IF       5704>>IF       5704>>IF
      5704>>IF       5704>>IF       5704>>IF       5704>>IF       5710>>ASSIGN   5712>>ASSIGN   5725>>IF
      5725>>IF       5725>>IF       5725>>IF       5725>>IF       5731>>CALL     5732>>CALL     5737>>ASSIGN
      5739>>ASSIGN   5741>>ASSIGN   5743>>ASSIGN   5745>>ASSIGN   5747>>IF       5750>>ASSIGN   5755>>IF
      5762>>ASSIGN   5764>>ASSIGN   5768>>REMEMBR  5771>>ASSIGN   5773>>ASSIGN   5785>>ASSIGN   5786>>ASSIGN
PL6.E3A0      #001=DFK$GETMVAL File=DFK$GETMVAL.:E05TSI                          TUE 07/29/97 14:40 Page:36
      5787>>ASSIGN   5788>>ASSIGN   5789>>ASSIGN   5791>>ASSIGN   5799>>ASSIGN
S_D_HOST_MESSAGE$
      2992**DCL      3335--IMP-PTR  5764>>ASSIGN
S_D_L6_MESSAGE$
      2993**DCL      3179--IMP-PTR  5719>>ASSIGN   5720>>ASSIGN   5721>>ASSIGN   5722>>ASSIGN   5723>>ASSIGN
      5724>>ASSIGN   5730>>ASSIGN   5733>>IF       5735>>DOCASE   5747>>IF       5753>>IF       5757>>ASSIGN
      5778>>ASSIGN   5780>>ASSIGN
TEMP$
        35**DCL        36--REDEF      37--REDEF
TEMP1
        36**DCL      5757<<ASSIGN
TEMP1B.B1
        39**DCL      5758>>ASSIGN
TEMP1B.B2
        40**DCL      5759>>ASSIGN
TEMP1B.B3
        41**DCL      5760>>ASSIGN
TEMP1B.B4
        42**DCL      5761>>ASSIGN
TEMP2
        43**DCL        44--REDEF    5762>>ASSIGN
TEMP2B.B1
        46**DCL      5758<<ASSIGN
TEMP2B.B2
        48**DCL      5759<<ASSIGN
TEMP2B.B3
        50**DCL      5760<<ASSIGN
TEMP2B.B4
        52**DCL      5761<<ASSIGN
PL6.E3A0      #001=DFK$GETMVAL File=DFK$GETMVAL.:E05TSI                          TUE 07/29/97 14:40 Page:37
              *** CROSS REFERENCE LISTING ***
    **     DENOTES     IDENTIFIER DEFINITION
    <<                 IDENTIFIER'S VALUE SET
    >>                 IDENTIFIER'S VALUE USED
    <>                 IDENTIFIER SET AND/OR USED
    --                 IDENTIFIER REFERENCED
PL6.E3A0      #001=DFK$GETMVAL File=DFK$GETMVAL.:E05TSI                          TUE 07/29/97 14:40 Page:38
              MINI UREF LISTING

DFK$GETMVAL      17**PROC
DUE$GERRMSG    5689**DCL-ENT
M$ACCT      80**DCL-ENT
M$ACTIVATE      83**DCL-ENT
M$ALIB      76**DCL-ENT
M$ASUSER      78**DCL-ENT
M$ATTACH      85**DCL-ENT
M$BADPP     103**DCL-ENT
M$CGCTL      84**DCL-ENT
M$CGINFO      84**DCL-ENT
M$CHECK      65**DCL-ENT
M$CHGUNIT     123**DCL-ENT
M$CLOSE      63**DCL-ENT
M$CLRSTK     121**DCL-ENT
M$CMDVAR     132**DCL-ENT
M$CONFIG      93**DCL-ENT
M$CORRES      68**DCL-ENT
M$CPEXIT      77**DCL-ENT
M$CVM     101**DCL-ENT
M$CVOL      66**DCL-ENT
M$DCLFLD      93**DCL-ENT
M$DEACTIVATE      83**DCL-ENT
M$DELREC      65**DCL-ENT
M$DEQ     130**DCL-ENT
M$DETACH      85**DCL-ENT
M$DEVICE      67**DCL-ENT
M$DISPLAY     130**DCL-ENT
M$DISPRES      70**DCL-ENT
M$DLIB      76**DCL-ENT
M$DRIBBLE      93**DCL-ENT
M$DRTN     121**DCL-ENT
M$DSUSER      78**DCL-ENT
PL6.E3A0      #001=DFK$GETMVAL File=DFK$GETMVAL.:E05TSI                          TUE 07/29/97 14:40 Page:39
M$ENQ     129**DCL-ENT
M$EOM      88**DCL-ENT
M$ERASE      94**DCL-ENT
M$ERR      75**DCL-ENT
M$ERRMSG     126**DCL-ENT
M$EVENT     118**DCL-ENT
M$EXHUME     127**DCL-ENT
M$EXIT      75**DCL-ENT
M$EXTEND      67**DCL-ENT
M$FDP      99**DCL-ENT
M$FDS      98**DCL-ENT
M$FEBOOT      91**DCL-ENT
M$FECTL      92**DCL-ENT
M$FEDUMP      91**DCL-ENT
M$FID     126**DCL-ENT
M$FINDPROC      80**DCL-ENT
M$FSUSER      78**DCL-ENT
M$FVP     100**DCL-ENT
M$FWCG      84**DCL-ENT
M$GBPL     104**DCL-ENT
M$GDDL     100**DCL-ENT
M$GDP      99**DCL-ENT
M$GDS      98**DCL-ENT
M$GETDCB      69**DCL-ENT
M$GETMOUSE     109**DCL-ENT
M$GETPM     110**DCL-ENT
M$GJOB     128**DCL-ENT
M$GLINEATTR      88**DCL-ENT
M$GOODPP     103**DCL-ENT
M$GPLATEN      96**DCL-ENT
M$GPROMPT      95**DCL-ENT
M$GTRMATTR      89**DCL-ENT
M$GTRMCTL      87**DCL-ENT
M$GTRMTAB      90**DCL-ENT
M$GVP      99**DCL-ENT
M$HELP     126**DCL-ENT
PL6.E3A0      #001=DFK$GETMVAL File=DFK$GETMVAL.:E05TSI                          TUE 07/29/97 14:40 Page:40
M$INT     118**DCL-ENT
M$INTRTN      79**DCL-ENT
M$IOQ     114**DCL-ENT
M$JOBSTATS     128**DCL-ENT
M$KEYIN      68**DCL-ENT
M$LDEV      63**DCL-ENT
M$LDTRC      76**DCL-ENT
M$LIMIT      69**DCL-ENT
M$LINES      68**DCL-ENT
M$LINK      75**DCL-ENT
M$MADMUCK      71**DCL-ENT
M$MAKUSER     102**DCL-ENT
M$MBS      70**DCL-ENT
M$MDFFLD      94**DCL-ENT
M$MERC     119**DCL-ENT
M$MERCS     120**DCL-ENT
M$MIRROR     114**DCL-ENT
M$MONINFO     131**DCL-ENT
M$MPL     104**DCL-ENT
M$NODEINFO      95**DCL-ENT
M$NXTUSR     129**DCL-ENT
M$OCMSG     127**DCL-ENT
M$OLAY      75**DCL-ENT
M$OPEN      63**DCL-ENT
M$PAS     104**DCL-ENT
M$PATHCON     127**DCL-ENT
M$PDS      98**DCL-ENT
M$PFIL      65**DCL-ENT
M$PLATEN      89**DCL-ENT
M$PRECORD      67**DCL-ENT
M$PROCNAME      80**DCL-ENT
M$PROFILE      91**DCL-ENT
M$PROMPT      87**DCL-ENT
M$RACST      71**DCL-ENT
M$RDSYSLOG     112**DCL-ENT
M$READ      64**DCL-ENT
PL6.E3A0      #001=DFK$GETMVAL File=DFK$GETMVAL.:E05TSI                          TUE 07/29/97 14:40 Page:41
M$RELDCB      69**DCL-ENT
M$RELRES      70**DCL-ENT
M$RELSTARF      72**DCL-ENT
M$REM      72**DCL-ENT
M$RENV     119**DCL-ENT
M$REQUIRE      71**DCL-ENT
M$RETRY     120**DCL-ENT
M$RETRYS     120**DCL-ENT
M$REW      66**DCL-ENT
M$RLSFLD      94**DCL-ENT
M$RPRIV     122**DCL-ENT
M$RSPP     101**DCL-ENT
M$RSWITCH     123**DCL-ENT
M$RUE     129**DCL-ENT
M$SAD     102**DCL-ENT
M$SAVE      78**DCL-ENT
M$SCON      79**DCL-ENT
M$SENV     119**DCL-ENT
M$SETFMA      63**DCL-ENT
M$SETFP      92**DCL-ENT
M$SINPUT      90**DCL-ENT
M$SLCFLD      95**DCL-ENT
M$SMOUSE     109**DCL-ENT
M$SMPRT     101**DCL-ENT
M$SPRIV     122**DCL-ENT
M$SSC     102**DCL-ENT
M$SSWITCH     122**DCL-ENT
M$STATE     131**DCL-ENT
M$STD     103**DCL-ENT
M$STIMER     117**DCL-ENT
M$STLPP     100**DCL-ENT
M$STRAP     117**DCL-ENT
M$STRMATTR      89**DCL-ENT
M$STRMCTL      87**DCL-ENT
M$STRMTAB      90**DCL-ENT
M$SYMBIO     128**DCL-ENT
PL6.E3A0      #001=DFK$GETMVAL File=DFK$GETMVAL.:E05TSI                          TUE 07/29/97 14:40 Page:42
M$SYSCON     114**DCL-ENT
M$SYSID     132**DCL-ENT
M$TDCLOSE     113**DCL-ENT
M$TDIO     113**DCL-ENT
M$TDOPEN     112**DCL-ENT
M$TDREQCPU     113**DCL-ENT
M$TEMPWROC     107**DCL-ENT
M$TIME     130**DCL-ENT
M$TRAP     117**DCL-ENT
M$TRMISC      92**DCL-ENT
M$TRMPRG      88**DCL-ENT
M$TRTN     121**DCL-ENT
M$TRUNC      64**DCL-ENT
M$TTIMER     117**DCL-ENT
M$UC      87**DCL
M$UMPL     104**DCL-ENT
M$UNFID     126**DCL-ENT
M$UNLATCH      83**DCL-ENT
M$UNSHARE      80**DCL-ENT
M$USRFIELD     123**DCL-ENT
M$VIRTUAL      98**DCL-ENT
M$WAIT     121**DCL-ENT
M$WEOF      66**DCL-ENT
M$WRITE      64**DCL-ENT
M$WRSYSLOG     112**DCL-ENT
M$XCON     118**DCL-ENT
M$XCONRTN      79**DCL-ENT
M$XEQTIME     131**DCL-ENT
M$XFLUSH      72**DCL-ENT
M$XMOUSE     109**DCL-ENT
M$XXX      75**DCL-ENT
M$YC      77**DCL-ENT
RETN    5795**LABEL
SC_MESSAGE     177**DCL
S_D_ACCESS$    2971**DCL
S_D_ANLZ$    2973**DCL
PL6.E3A0      #001=DFK$GETMVAL File=DFK$GETMVAL.:E05TSI                          TUE 07/29/97 14:40 Page:43
S_D_ASTACKOFF$    2972**DCL
S_D_BREAK$    2974**DCL
S_D_DO_SCAN$    2975**DCL
S_D_ERROR$    2976**DCL
S_D_FAULTCMD$$    2977**DCL
S_D_FAULTINS$$    2978**DCL
S_D_GOIC$    2979**DCL
S_D_GO_MODE$    2980**DCL
S_D_HW_PTB_UNITS$    2996**DCL
S_D_HW_RES_MEM$    2994**DCL
S_D_HW_WSQ0PT$    2995**DCL
S_D_IPRFLT$    2982**DCL
S_D_IXFIX$    2981**DCL
S_D_REM_ACCESS$    2983**DCL
S_D_REM_DISKBOOT$    2985**DCL
S_D_REM_DO_SCAN$    2984**DCL
S_D_RETURNN$    2986**DCL
S_D_SAD$    2987**DCL
S_D_SAVEIC$    2988**DCL
S_D_SEG$    2970**DCL
S_D_TCB$$    2989**DCL
S_D_UREG$$    2990**DCL
S_D_USS$$    2991**DCL

PL6.E3A0      #002=DFK$PUTMVAL File=DFK$GETMVAL.:E05TSI                          TUE 07/29/97 14:40 Page:44
      191        1        /*T***********************************************************/
      192        2        /*T*                                                         */
      193        3        /*T* Copyright (c) Bull HN Information Systems Inc., 1997    */
      194        4        /*T*                                                         */
      195        5        /*T***********************************************************/
      196        6        /*F* NAME: DFK$PUTMVAL
      197        7             PURPOSE:
      198        8                   This module writes a message to FD containing the
      199        9                   information about the evaluated address and the new
      200       10                   contents for the evaluated address.
      201       11             DESCRIPTION:
      202       12                   Input is ADDRESS, SEG, DESC#, NOT_IS, and contents for the
      203       13                   evaluated address.  */
      204       14
      205       15        DFK$PUTMVAL: PROC(NVALUE, OVALUE, ADDRESS, SEG, DESC#, NOT_IS) ALTRET;
      206       16
      207       17        /* Parms */
      208       18    1   DCL 1 NVALUE ALIGNED,
      209       19    1         2 SIZE UBIN,
      210       20    1         2 OPS(0:15) UBIN;
      211       21    1   DCL 1 OVALUE ALIGNED,
      212       22    1         2 SIZE UBIN,
      213       23    1         2 OPS(0:15) UBIN;
      214       24    1   DCL ADDRESS SBIN;
      215       25    1   DCL SEG UBIN;
      216       26    1   DCL DESC# UBIN;
      217       27    1   DCL NOT_IS BIT(1) ALIGNED;
      218       28        /* Local Auto */
      219       29    1   DCL I UBIN;
      220       30    1   DCL TEMP$ PTR;
      221       31    1   DCL TEMP1 REDEF TEMP$ UBIN(36) ALIGNED;
      222       32    1   DCL 1 TEMP1B REDEF TEMP$ ALIGNED,
      223       33    1         2 * UBIN(4) UNAL,
      224       34    1         2 B1 UBIN(8) UNAL,
      225       35    1         2 B2 UBIN(8) UNAL,
      226       36    1         2 B3 UBIN(8) UNAL,
      227       37    1         2 B4 UBIN(8) UNAL;
PL6.E3A0      #002=DFK$PUTMVAL File=DFK$GETMVAL.:E05TSI                          TUE 07/29/97 14:40 Page:45
      228       38    1   DCL TEMP2 UBIN(36) ALIGNED;
      229       39    1   DCL 1 TEMP2B REDEF TEMP2 ALIGNED,
      230       40    1         2 * BIT(1) UNAL,
      231       41    1         2 B1 UBIN(8) UNAL,
      232       42    1         2 * BIT(1) UNAL,
      233       43    1         2 B2 UBIN(8) UNAL,
      234       44    1         2 * BIT(1) UNAL,
      235       45    1         2 B3 UBIN(8) UNAL,
      236       46    1         2 * BIT(1) UNAL,
      237       47    1         2 B4 UBIN(8) UNAL;
      238       48        /* Includes and Based Structures */
      239       49        %INCLUDE CP_6;
      240      130        %INCLUDE DU_SCODE_C;
      241      143        %FPT_SCREECH(FPTN=SNAP_MESSAGE,STCLASS=SYMREF READONLY);
      242      157        %VLP_SCODE(FPTN=SC_MESSAGE, STCLASS=SYMREF READONLY);
      243      218        %INCLUDE XUH_MACRO_C;
      244      302        %INCLUDE DD_SD_M;
      245     1638        %S_D;
      246     2956        %S_D_PTRS;
      247     2993        %INCLUDE GD$MSG_M;
      248     3157        %GD$MSG(FPTN=GD$MSG, STCLASS="BASED(S_D_L6_MESSAGE$)", L6=YES, L6PTR="UBIN(32) UNAL"
              3157            );
      249     3313        %GD$MSG(FPTN=GD$MSG_HOST, STCLASS="BASED(S_D_HOST_MESSAGE$)", L6=NO);
      250     3469        %INCLUDE GD_EQUS_E;
      251     3630        %INCLUDE DD$BASED;
      252     4933        %FPRG$CONTEXT;
      253     4996        %MODIFY$CMD(NAME=MOD$CMD,STCLASS=BASED);
      254     5012        %INCLUDE DD_ERR_C;
      255     5409        /* Entry DCLs */
      256     5410    1   DCL DDE$ERROR ENTRY;
      257     5411    1   DCL DFQ$READ_FD  ENTRY(2) ALTRET;
      258     5412    1   DCL DFQ$WRITE_FD ENTRY(1) ALTRET;
      259     5413    1   DCL DUE$ERRMSG   ENTRY;
      260     5414    1   DCL DUE$GERRMSG   ENTRY;
      261     5415
      262     5416    1        IF SEG = 6
      263     5417    2        THEN DO;
PL6.E3A0      #002=DFK$PUTMVAL File=DFK$GETMVAL.:E05TSI                          TUE 07/29/97 14:40 Page:46
      264     5418    2             IF DESC# ~= 0 OR ADDRESS ~= 12
      265     5419    2             THEN GOTO NOTFEP;
      266     5420    2             S_D.SAVEIC = NVALUE.OPS(0);
      267     5421    2             IF NVALUE.SIZE > 16
      268     5422    2             THEN
      269     5423    2                  S_D.SAVEIC = S_D.SAVEIC*65536 + NVALUE.OPS(1);
      270     5424    2             RETURN;
      271     5425    2           END;
      272     5426                                                /* Set up message for FD */
      273     5427    1        GD$MSG = '0'B;
      274     5428    1        GD$MSG.FNC = %GD#RQSMODMEM_D;
      275     5429    1        GD$MSG.MODMEM_D.ADDRESS = ADDRESS;
      276     5430    1        GD$MSG.MODMEM_D.SEG = SEG;
      277     5431    1        GD$MSG.MODMEM_D.DESC# = DESC#;
      278     5432    1        GD$MSG.MODMEM_D.NOT_IS = NOT_IS;
      279     5433    1        GD$MSG.MODMEM_D.MODCNT = NVALUE.SIZE;
      280     5434    2        DO I = 0 TO NVALUE.SIZE - 1;
      281     5435    2             GD$MSG.MODMEM_D.MODS.NEW(I) = NVALUE.OPS(I);
      282     5436    2           END;
      283     5437    1        IF NOT(S_D.MACTIVE) AND S_D.DO$ -> MOD$CMD.DDESC(1) AND (ADDR(OVALUE) ~= ADDR(
              5437                 NIL))
      284     5438    2        THEN DO;
      285     5439    3             DO I = 0 TO OVALUE.SIZE - 1;
      286     5440    3                  GD$MSG.MODMEM_D.MODS.OLD(I) = OVALUE.OPS(I);
      287     5441    3                  GD$MSG.MODMEM_D.MM.FLGS(I) = '1'B;
      288     5442    3                END;
      289     5443    2           END;
      290     5444    1        CALL DFQ$WRITE_FD(S_D.CURRENT_FPRG_CONTEXT$) ALTRET(ERR);
      291     5445    1        CALL DFQ$READ_FD(S_D.CURRENT_FPRG_CONTEXT$, '0'B) ALTRET(ERR);
      292     5446    1        IF GD$MSG.FNC ~= %GD#RSPMODMEM
      293     5447    2        THEN DO;
      294     5448    3             DO CASE(GD$MSG.FNC);
      295     5449    3               CASE(%GD#RSPBADADR);
      296     5450    3                  S_D.ERROR = E@BADADDR;   /* E@BADADDR */
      297     5451    3               CASE(%GD#RSPNOWRITE);
      298     5452    3                  S_D.ERROR = E@CANTWRITESEG; /* E@CANTWRITESEG */
      299     5453    3               CASE(%GD#RSPDD2CPLX);
PL6.E3A0      #002=DFK$PUTMVAL File=DFK$GETMVAL.:E05TSI                          TUE 07/29/97 14:40 Page:47
      300     5454    3                  S_D.ERROR = E@EXPR2CMPLX; /* E@EXPR2CMPLX */
      301     5455    3               CASE(%GD#RSPDDNOTL6);
      302     5456    3   NOTFEP:        S_D.ERROR = E@DDNOTFEP;  /* E@DDNOTFEP */
      303     5457    3               CASE(%GD#RSPUNSUPRT);
      304     5458    3                  S_D.ERROR = E@NOTIMP;    /* E@NOTIMP */
      305     5459    3               CASE(%GD#RSPNOACCESS);
      306     5460    3                  S_D.ERROR = E@ACCESS_FAULT; /* E@ACCESS_FAULT */
      307     5461    3               CASE(ELSE);
      308     5462    3                  IF S_D.CURRENT_FPRG_CONTEXT$ -> FPRG$CONTEXT.XDELTA AND
      309     5463    3                    GD$MSG.FNC = %GD#RSPBADMSG
      310     5464    4                  THEN DO;
      311     5465    4                       S_D.ERROR = E@BADMSG; /* E@BADMSG */
      312     5466    4                       GOTO ARET;
      313     5467    4                     END;
      314     5468    3                  IF GD$MSG.FNC = %GD#RSPNAK
      315     5469    4                  THEN DO;
      316     5470    4                       IF S_D.CURRENT_FPRG_CONTEXT$ -> FPRG$CONTEXT.XDELTA
      317     5471    5                       THEN DO;
      318     5472    5                            TEMP1 = BITBIN(GD$MSG.ERROR_D.ERRCODE);
      319     5473    5                            TEMP2B.B1 = TEMP1B.B1;
      320     5474    5                            TEMP2B.B2 = TEMP1B.B2;
      321     5475    5                            TEMP2B.B3 = TEMP1B.B3;
      322     5476    5                            TEMP2B.B4 = TEMP1B.B4;
      323     5477    5                            S_D.JDE = TEMP2;
      324     5478    5                          END;
      325     5479    4                       ELSE S_D.JDE = BITBIN(GD$MSG_HOST.ERROR_D.ERRCODE);
      326     5480    4                       CALL DUE$ERRMSG;
      327     5481    4                       ALTRETURN;
      328     5482    4                     END;
      329     5483    3                  REMEMBER NEVER IN S_D.SCREECH_IC;
      330     5484    3                  CALL M$SCREECH (SNAP_MESSAGE) ALTRET(NEVER);
      331     5485    3   NEVER:
      332     5486    3                  S_D.ERROR = E@BADMESSAGE; /* E@BADMESSAGE */
      333     5487    3                  CALL DDE$ERROR;
      334     5488    3                  S_D.ERROR = E@DELBUG;    /* E@DELBUG */
      335     5489    3                  CALL DDE$ERROR;
      336     5490    3               END;
PL6.E3A0      #002=DFK$PUTMVAL File=DFK$GETMVAL.:E05TSI                          TUE 07/29/97 14:40 Page:48
      337     5491    2             GOTO ARET;
      338     5492    2           END;
      339     5493    1        IF NOT GD$MSG.MODMEM_D.SO
      340     5494    2        THEN DO;
      341     5495    2             S_D.ERROR = E@OLDNOTOLD;      /* E@OLDNOTOLD */
      342     5496    2             ALTRETURN;
      343     5497    2           END;
      344     5498                                                /* Save in cache in S_D */
      345     5499    1        IF SEG ~= 3
      346     5500    1        THEN
      347     5501    1             RETURN;
      348     5502    1        S_D.MOD_L6.ADDRESS = ADDRESS;
      349     5503    1        S_D.MOD_L6.SEG = SEG;
      350     5504    1        S_D.MOD_L6.DESC# = DESC#;
      351     5505    1        S_D.MOD_L6.NOT_IS = NOT_IS;
      352     5506    1        S_D.MOD_L6.VALUE.SIZE = GD$MSG.MODMEM_D.MODCNT;
      353     5507    2        DO I = 0 TO GD$MSG.MODMEM_D.MODCNT - 1;
      354     5508    2             S_D.MOD_L6.VALUE.OPS(I) = GD$MSG.MODMEM_D.MODS.NEW(I);
      355     5509    2           END;
      356     5510    1        RETURN;
      357     5511
      358     5512    1   ERR: ;
      359     5513    1        CALL DUE$ERRMSG;
      360     5514    1        ALTRETURN;
      361     5515    1   ARET: ;
      362     5516    1        ALTRETURN;
      363     5517    1   END DFK$PUTMVAL;

PL6.E3A0      #002=DFK$PUTMVAL File=DFK$GETMVAL.:E05TSI                          TUE 07/29/97 14:40 Page:49
--  Include file information  --

   DD_ERR_C.:E05TOU  is referenced.
   DD$BASED.:E05TOU  is referenced.
   GD_EQUS_E.:E05TOU  is referenced.
   GD$MSG_M.:E05TOU  is referenced.
   DD_SD_M.:E05TOU  is referenced.
   XUH_MACRO_C.:E05TOU  is referenced.
   DU_SCODE_C.:E05TOU  is referenced.
   CP_6.:E05TOU  cannot be made into a system file and is referenced.
   B$JIT_C.:E05TOU  was found in the system file and is never referenced.
   CP_6_C.:E05TOU  was found in the system file and is referenced.
      No diagnostics issued in procedure DFK$PUTMVAL.

   Procedure DFK$PUTMVAL requires 313 words for executable code.
   Procedure DFK$PUTMVAL requires 14 words of local(AUTO) storage.

    No errors detected in file DFK$GETMVAL.:E05TSI    .

PL6.E3A0      #002=DFK$PUTMVAL File=DFK$GETMVAL.:E05TSI                          TUE 07/29/97 14:40 Page:50

 Object Unit name= DFK$PUTMVAL                                File name= DFK$GETMVAL.:E05TOU
 UTS= JUL 29 '97 14:40:23.44 TUE                              Compiler= PL-6/E31         Sev=      00
 SharedLib= :SHARED_SYSTEM                                    Alt SharedLib=


    ****  Control sections  ****

 Sect   Type Bound  Init  Size OctSiz  Section name(segment info)
    0   DCB   even  none     0      0  M$UC
    1   Proc  even  none   313    471  DFK$PUTMVAL
    2  RoData even  none     4      4  DFK$PUTMVAL

    ****  Entry defs  ****

                              Check   Calling
                             calling  sequence
  Sect OctLoc Primary Altret sequence   type   Parms  Name
     1      0   yes    yes     yes      Std        6  DFK$PUTMVAL

  ****  Entry refs  ****

         Check        Calling
        calling       sequence
Altret sequence SRef   type   Args  Name
 yes     yes           Std       1 DFQ$WRITE_FD
 yes     yes           Std       2 DFQ$READ_FD
         yes           Std       0 DUE$ERRMSG
         yes           Std       0 DDE$ERROR
                       nStd      0 X66_AUTO_N
                       nStd      0 X66_ARET
                       Std       0 B_CONSPOOL_D
                       nStd      0 X66_AALT
PL6.E3A0      #002=DFK$PUTMVAL File=DFK$GETMVAL.:E05TSI                          TUE 07/29/97 14:40 Page:51

  ****  Data refs  ****

  Flags:  r = read only, s = secondary
Flgs Name                             Flgs Name                             Flgs Name
     M$UC                             r    SNAP_MESSAGE                     r    S_D$
r    S_D_HOST_MESSAGE$                r    S_D_L6_MESSAGE$                       B_VECTNIL

  ****  Segment refs  ****

  Flags:  r = read only, s = secondary
Flgs Name                             Flgs Name                             Flgs Name
     ISSID
PL6.E3A0      #002=DFK$PUTMVAL File=DFK$GETMVAL.:E05TSI                          TUE 07/29/97 14:40 Page:52


      191        1        /*T***********************************************************/
      192        2        /*T*                                                         */
      193        3        /*T* Copyright (c) Bull HN Information Systems Inc., 1997    */
      194        4        /*T*                                                         */
      195        5        /*T***********************************************************/
      196        6        /*F* NAME: DFK$PUTMVAL
      197        7             PURPOSE:
      198        8                   This module writes a message to FD containing the
      199        9                   information about the evaluated address and the new
      200       10                   contents for the evaluated address.
      201       11             DESCRIPTION:
      202       12                   Input is ADDRESS, SEG, DESC#, NOT_IS, and contents for the
      203       13                   evaluated address.  */
      204       14
      205       15        DFK$PUTMVAL: PROC(NVALUE, OVALUE, ADDRESS, SEG, DESC#, NOT_IS) ALTRET;

     15  1 000000   000000 700200 xent  DFK$PUTMVAL  TSX0  ! X66_AUTO_N
         1 000001   000016 000006                    ZERO    14,6

      206       16
      207       17        /* Parms */
      208       18    1   DCL 1 NVALUE ALIGNED,
      209       19    1         2 SIZE UBIN,
      210       20    1         2 OPS(0:15) UBIN;
      211       21    1   DCL 1 OVALUE ALIGNED,
      212       22    1         2 SIZE UBIN,
      213       23    1         2 OPS(0:15) UBIN;
      214       24    1   DCL ADDRESS SBIN;
      215       25    1   DCL SEG UBIN;
      216       26    1   DCL DESC# UBIN;
      217       27    1   DCL NOT_IS BIT(1) ALIGNED;
      218       28        /* Local Auto */
      219       29    1   DCL I UBIN;
      220       30    1   DCL TEMP$ PTR;
      221       31    1   DCL TEMP1 REDEF TEMP$ UBIN(36) ALIGNED;
      222       32    1   DCL 1 TEMP1B REDEF TEMP$ ALIGNED,
PL6.E3A0      #002=DFK$PUTMVAL File=DFK$GETMVAL.:E05TSI                          TUE 07/29/97 14:40 Page:53
      223       33    1         2 * UBIN(4) UNAL,
      224       34    1         2 B1 UBIN(8) UNAL,
      225       35    1         2 B2 UBIN(8) UNAL,
      226       36    1         2 B3 UBIN(8) UNAL,
      227       37    1         2 B4 UBIN(8) UNAL;
      228       38    1   DCL TEMP2 UBIN(36) ALIGNED;
      229       39    1   DCL 1 TEMP2B REDEF TEMP2 ALIGNED,
      230       40    1         2 * BIT(1) UNAL,
      231       41    1         2 B1 UBIN(8) UNAL,
      232       42    1         2 * BIT(1) UNAL,
      233       43    1         2 B2 UBIN(8) UNAL,
      234       44    1         2 * BIT(1) UNAL,
      235       45    1         2 B3 UBIN(8) UNAL,
      236       46    1         2 * BIT(1) UNAL,
      237       47    1         2 B4 UBIN(8) UNAL;
      238       48        /* Includes and Based Structures */
      239       49        %INCLUDE CP_6;
      240      130        %INCLUDE DU_SCODE_C;
      241      143        %FPT_SCREECH(FPTN=SNAP_MESSAGE,STCLASS=SYMREF READONLY);
      242      157        %VLP_SCODE(FPTN=SC_MESSAGE, STCLASS=SYMREF READONLY);
      243      218        %INCLUDE XUH_MACRO_C;
      244      302        %INCLUDE DD_SD_M;
      245     1638        %S_D;
      246     2956        %S_D_PTRS;
      247     2993        %INCLUDE GD$MSG_M;
      248     3157       %GD$MSG(FPTN=GD$MSG, STCLASS="BASED(S_D_L6_MESSAGE$)", L6=YES, L6PTR="UBIN(32) UNAL"
              3157            );
      249     3313        %GD$MSG(FPTN=GD$MSG_HOST, STCLASS="BASED(S_D_HOST_MESSAGE$)", L6=NO);
      250     3469        %INCLUDE GD_EQUS_E;
      251     3630        %INCLUDE DD$BASED;
      252     4933        %FPRG$CONTEXT;
      253     4996        %MODIFY$CMD(NAME=MOD$CMD,STCLASS=BASED);
      254     5012        %INCLUDE DD_ERR_C;
      255     5409        /* Entry DCLs */
      256     5410    1   DCL DDE$ERROR ENTRY;
      257     5411    1   DCL DFQ$READ_FD  ENTRY(2) ALTRET;
      258     5412    1   DCL DFQ$WRITE_FD ENTRY(1) ALTRET;
PL6.E3A0      #002=DFK$PUTMVAL File=DFK$GETMVAL.:E05TSI                          TUE 07/29/97 14:40 Page:54
      259     5413    1   DCL DUE$ERRMSG   ENTRY;
      260     5414    1   DCL DUE$GERRMSG   ENTRY;
      261     5415
      262     5416    1        IF SEG = 6

   5416  1 000002   200006 470500                    LDP0    @SEG,,AUTO
         1 000003   000000 235100                    LDA     0,,PR0
         1 000004   000006 115007                    CMPA    6,DL
         1 000005   000031 601000 1                  TNZ     s:5427

      263     5417    2        THEN DO;

      264     5418    2             IF DESC# ~= 0 OR ADDRESS ~= 12

   5418  1 000006   200007 471500                    LDP1    @DESC#,,AUTO
         1 000007   100000 235100                    LDA     0,,PR1
         1 000010   000251 601000 1                  TNZ     NOTFEP
         1 000011   200005 473500                    LDP3    @ADDRESS,,AUTO
         1 000012   300000 235100                    LDA     0,,PR3
         1 000013   000014 115007                    CMPA    12,DL
         1 000014   000251 601000 1                  TNZ     NOTFEP

      265     5419    2             THEN GOTO NOTFEP;
      266     5420    2             S_D.SAVEIC = NVALUE.OPS(0);

   5420  1 000015   200003 474500                    LDP4    @NVALUE,,AUTO
         1 000016   000000 475400 xsym               LDP5    S_D$
         1 000017   400001 235100                    LDA     1,,PR4
         1 000020   500002 755100                    STA     2,,PR5

      267     5421    2             IF NVALUE.SIZE > 16

   5421  1 000021   400000 235100                    LDA     0,,PR4
         1 000022   000021 115007                    CMPA    17,DL
         1 000023   000030 602000 1                  TNC     s:5424

      268     5422    2             THEN
PL6.E3A0      #002=DFK$PUTMVAL File=DFK$GETMVAL.:E05TSI                          TUE 07/29/97 14:40 Page:55
      269     5423    2                  S_D.SAVEIC = S_D.SAVEIC*65536 + NVALUE.OPS(1);

   5423  1 000024   500002 236100                    LDQ     2,,PR5
         1 000025   000020 736000                    QLS     16
         1 000026   400002 036100                    ADLQ    2,,PR4
         1 000027   500002 756100                    STQ     2,,PR5

      270     5424    2             RETURN;

   5424  1 000030   000000 702200 xent               TSX2  ! X66_ARET

      271     5425    2           END;
      272     5426                                                /* Set up message for FD */
      273     5427    1        GD$MSG = '0'B;

   5427  1 000031   000000 471400 xsym               LDP1    S_D_L6_MESSAGE$
         1 000032   003100 060400                    CSL     bolr='003'O
         1 000033   000002 000001 xsym               BDSC    B_VECTNIL+2              by=0,bit=0,n=1
         1 000034   100000 004720                    BDSC    0,,PR1                   by=0,bit=0,n=2512

      274     5428    1        GD$MSG.FNC = %GD#RQSMODMEM_D;

   5428  1 000035   100000 236100                    LDQ     0,,PR1
         1 000036   000000 376000 2                  ANQ     0
         1 000037   040000 276003                    ORQ     16384,DU
         1 000040   100000 756100                    STQ     0,,PR1

      275     5429    1        GD$MSG.MODMEM_D.ADDRESS = ADDRESS;

   5429  1 000041   200005 473500                    LDP3    @ADDRESS,,AUTO
         1 000042   003100 061500                    CSR     bolr='003'O
         1 000043   300000 000044                    BDSC    0,,PR3                   by=0,bit=0,n=36
         1 000044   100002 100040                    BDSC    2,,PR1                   by=0,bit=8,n=32

      276     5430    1        GD$MSG.MODMEM_D.SEG = SEG;

   5430  1 000045   000000 236100                    LDQ     0,,PR0
PL6.E3A0      #002=DFK$PUTMVAL File=DFK$GETMVAL.:E05TSI                          TUE 07/29/97 14:40 Page:56
         1 000046   000030 736000                    QLS     24
         1 000047   100003 676100                    ERQ     3,,PR1
         1 000050   037700 376003                    ANQ     16320,DU
         1 000051   100003 656100                    ERSQ    3,,PR1

      277     5431    1        GD$MSG.MODMEM_D.DESC# = DESC#;

   5431  1 000052   200007 474500                    LDP4    @DESC#,,AUTO
         1 000053   400000 236100                    LDQ     0,,PR4
         1 000054   000020 736000                    QLS     16
         1 000055   100003 676100                    ERQ     3,,PR1
         1 000056   000001 376000 2                  ANQ     1
         1 000057   100003 656100                    ERSQ    3,,PR1

      278     5432    1        GD$MSG.MODMEM_D.NOT_IS = NOT_IS;

   5432  1 000060   200010 475500                    LDP5    @NOT_IS,,AUTO
         1 000061   500000 236100                    LDQ     0,,PR5
         1 000062   000015 772000                    QRL     13
         1 000063   100001 676100                    ERQ     1,,PR1
         1 000064   000020 376003                    ANQ     16,DU
         1 000065   100001 656100                    ERSQ    1,,PR1

      279     5433    1        GD$MSG.MODMEM_D.MODCNT = NVALUE.SIZE;

   5433  1 000066   200003 476500                    LDP6    @NVALUE,,AUTO
         1 000067   600000 236100                    LDQ     0,,PR6
         1 000070   000010 736000                    QLS     8
         1 000071   100001 676100                    ERQ     1,,PR1
         1 000072   177400 376007                    ANQ     65280,DL
         1 000073   100001 656100                    ERSQ    1,,PR1

      280     5434    2        DO I = 0 TO NVALUE.SIZE - 1;

   5434  1 000074   200011 450100                    STZ     I,,AUTO
         1 000075   000112 710000 1                  TRA     s:5436+3

PL6.E3A0      #002=DFK$PUTMVAL File=DFK$GETMVAL.:E05TSI                          TUE 07/29/97 14:40 Page:57
      281     5435    2             GD$MSG.MODMEM_D.MODS.NEW(I) = NVALUE.OPS(I);

   5435  1 000076   200011 236100                    LDQ     I,,AUTO
         1 000077   000044 402007                    MPY     36,DL
         1 000100   200011 235100                    LDA     I,,AUTO
         1 000101   000005 735000                    ALS     5
         1 000102   200003 470500                    LDP0    @NVALUE,,AUTO
         1 000103   000000 471400 xsym               LDP1    S_D_L6_MESSAGE$
         1 000104   003105 061506                    CSR     bolr='003'O
         1 000105   000001 000044                    BDSC    1,Q,PR0                  by=0,bit=0,n=36
         1 000106   100004 000020                    BDSC    4,A,PR1                  by=0,bit=0,n=16

      282     5436    2           END;

   5436  1 000107   200011 235100                    LDA     I,,AUTO
         1 000110   000001 035007                    ADLA    1,DL
         1 000111   200011 755100                    STA     I,,AUTO
         1 000112   200003 470500                    LDP0    @NVALUE,,AUTO
         1 000113   200011 236100                    LDQ     I,,AUTO
         1 000114   000000 116100                    CMPQ    0,,PR0
         1 000115   000076 602000 1                  TNC     s:5435

      283     5437    1        IF NOT(S_D.MACTIVE) AND S_D.DO$ -> MOD$CMD.DDESC(1) AND (ADDR(OVALUE) ~= ADDR(
              5437                 NIL))

   5437  1 000116   000000 473400 xsym               LDP3    S_D$
         1 000117   300713 234100                    SZN     459,,PR3
         1 000120   000155 604000 1                  TMI     s:5444
         1 000121   300031 474500                    LDP4    25,,PR3
         1 000122   400001 236100                    LDQ     1,,PR4
         1 000123   200000 316003                    CANQ    65536,DU
         1 000124   000155 600000 1                  TZE     s:5444
         1 000125   200004 236100                    LDQ     @OVALUE,,AUTO
         1 000126   000001 116000 xsym               CMPQ    B_VECTNIL+1
         1 000127   000155 600000 1                  TZE     s:5444

      284     5438    2        THEN DO;
PL6.E3A0      #002=DFK$PUTMVAL File=DFK$GETMVAL.:E05TSI                          TUE 07/29/97 14:40 Page:58

      285     5439    3             DO I = 0 TO OVALUE.SIZE - 1;

   5439  1 000130   200011 450100                    STZ     I,,AUTO
         1 000131   000151 710000 1                  TRA     s:5442+2

      286     5440    3                  GD$MSG.MODMEM_D.MODS.OLD(I) = OVALUE.OPS(I);

   5440  1 000132   200011 236100                    LDQ     I,,AUTO
         1 000133   000044 402007                    MPY     36,DL
         1 000134   200011 235100                    LDA     I,,AUTO
         1 000135   000005 735000                    ALS     5
         1 000136   200004 470500                    LDP0    @OVALUE,,AUTO
         1 000137   000000 471400 xsym               LDP1    S_D_L6_MESSAGE$
         1 000140   003105 061506                    CSR     bolr='003'O
         1 000141   000001 000044                    BDSC    1,Q,PR0                  by=0,bit=0,n=36
         1 000142   100003 420020                    BDSC    3,A,PR1                  by=2,bit=2,n=16

      287     5441    3                  GD$MSG.MODMEM_D.MM.FLGS(I) = '1'B;

   5441  1 000143   200011 235100                    LDA     I,,AUTO
         1 000144   003105 060400                    CSL     bolr='003'O
         1 000145   000030 000001 xsym               BDSC    B_VECTNIL+24             by=0,bit=0,n=1
         1 000146   100000 270001                    BDSC    0,A,PR1                  by=1,bit=7,n=1

      288     5442    3                END;

   5442  1 000147   000001 035007                    ADLA    1,DL
         1 000150   200011 755100                    STA     I,,AUTO
         1 000151   200004 470500                    LDP0    @OVALUE,,AUTO
         1 000152   200011 236100                    LDQ     I,,AUTO
         1 000153   000000 116100                    CMPQ    0,,PR0
         1 000154   000132 602000 1                  TNC     s:5440

      289     5443    2           END;

      290     5444    1        CALL DFQ$WRITE_FD(S_D.CURRENT_FPRG_CONTEXT$) ALTRET(ERR);
PL6.E3A0      #002=DFK$PUTMVAL File=DFK$GETMVAL.:E05TSI                          TUE 07/29/97 14:40 Page:59

   5444  1 000155   000000 236000 xsym               LDQ     S_D$
         1 000156   000102 036003                    ADLQ    66,DU
         1 000157   200014 756100                    STQ     TEMP2+1,,AUTO
         1 000160   200014 630500                    EPPR0   TEMP2+1,,AUTO
         1 000161   000017 631400 xsym               EPPR1   B_VECTNIL+15
         1 000162   000000 701000 xent               TSX1    DFQ$WRITE_FD
         1 000163   000464 702000 1                  TSX2    ERR

      291     5445    1        CALL DFQ$READ_FD(S_D.CURRENT_FPRG_CONTEXT$, '0'B) ALTRET(ERR);

   5445  1 000164   000002 236000 2                  LDQ     2
         1 000165   200015 756100                    STQ     TEMP2+2,,AUTO
         1 000166   000000 236000 xsym               LDQ     S_D$
         1 000167   000102 036003                    ADLQ    66,DU
         1 000170   200014 756100                    STQ     TEMP2+1,,AUTO
         1 000171   200014 630500                    EPPR0   TEMP2+1,,AUTO
         1 000172   000020 631400 xsym               EPPR1   B_VECTNIL+16
         1 000173   000000 701000 xent               TSX1    DFQ$READ_FD
         1 000174   000464 702000 1                  TSX2    ERR

      292     5446    1        IF GD$MSG.FNC ~= %GD#RSPMODMEM

   5446  1 000175   000000 470400 xsym               LDP0    S_D_L6_MESSAGE$
         1 000176   000000 236100                    LDQ     0,,PR0
         1 000177   776000 376003                    ANQ     -1024,DU
         1 000200   104000 116003                    CMPQ    34816,DU
         1 000201   000400 600000 1                  TZE     s:5493

      293     5447    2        THEN DO;

      294     5448    3             DO CASE(GD$MSG.FNC);

   5448  1 000202   000000 236100                    LDQ     0,,PR0
         1 000203   000034 772000                    QRL     28
         1 000204   000051 136007                    SBLQ    41,DL
         1 000205   000025 116007                    CMPQ    21,DL
PL6.E3A0      #002=DFK$PUTMVAL File=DFK$GETMVAL.:E05TSI                          TUE 07/29/97 14:40 Page:60
         1 000206   000210 602006 1                  TNC     s:5448+6,QL
         1 000207   000265 710000 1                  TRA     s:5462
         1 000210   000261 710000 1                  TRA     s:5460
         1 000211   000265 710000 1                  TRA     s:5462
         1 000212   000265 710000 1                  TRA     s:5462
         1 000213   000265 710000 1                  TRA     s:5462
         1 000214   000265 710000 1                  TRA     s:5462
         1 000215   000265 710000 1                  TRA     s:5462
         1 000216   000265 710000 1                  TRA     s:5462
         1 000217   000265 710000 1                  TRA     s:5462
         1 000220   000265 710000 1                  TRA     s:5462
         1 000221   000265 710000 1                  TRA     s:5462
         1 000222   000265 710000 1                  TRA     s:5462
         1 000223   000265 710000 1                  TRA     s:5462
         1 000224   000265 710000 1                  TRA     s:5462
         1 000225   000265 710000 1                  TRA     s:5462
         1 000226   000235 710000 1                  TRA     s:5450
         1 000227   000255 710000 1                  TRA     s:5458
         1 000230   000245 710000 1                  TRA     s:5454
         1 000231   000251 710000 1                  TRA     NOTFEP
         1 000232   000265 710000 1                  TRA     s:5462
         1 000233   000265 710000 1                  TRA     s:5462
         1 000234   000241 710000 1                  TRA     s:5452

      295     5449    3               CASE(%GD#RSPBADADR);

      296     5450    3                  S_D.ERROR = E@BADADDR;   /* E@BADADDR */

   5450  1 000235   000123 235007                    LDA     83,DL
         1 000236   000000 471400 xsym               LDP1    S_D$
         1 000237   100013 755100                    STA     11,,PR1
         1 000240   000377 710000 1                  TRA     s:5491

      297     5451    3               CASE(%GD#RSPNOWRITE);

      298     5452    3                  S_D.ERROR = E@CANTWRITESEG; /* E@CANTWRITESEG */

PL6.E3A0      #002=DFK$PUTMVAL File=DFK$GETMVAL.:E05TSI                          TUE 07/29/97 14:40 Page:61
   5452  1 000241   000110 235007                    LDA     72,DL
         1 000242   000000 471400 xsym               LDP1    S_D$
         1 000243   100013 755100                    STA     11,,PR1
         1 000244   000377 710000 1                  TRA     s:5491

      299     5453    3               CASE(%GD#RSPDD2CPLX);

      300     5454    3                  S_D.ERROR = E@EXPR2CMPLX; /* E@EXPR2CMPLX */

   5454  1 000245   000045 235007                    LDA     37,DL
         1 000246   000000 471400 xsym               LDP1    S_D$
         1 000247   100013 755100                    STA     11,,PR1
         1 000250   000377 710000 1                  TRA     s:5491

      301     5455    3               CASE(%GD#RSPDDNOTL6);

      302     5456    3   NOTFEP:        S_D.ERROR = E@DDNOTFEP;  /* E@DDNOTFEP */

   5456  1 000251   001017 235007       NOTFEP       LDA     527,DL
         1 000252   000000 470400 xsym               LDP0    S_D$
         1 000253   000013 755100                    STA     11,,PR0
         1 000254   000377 710000 1                  TRA     s:5491

      303     5457    3               CASE(%GD#RSPUNSUPRT);

      304     5458    3                  S_D.ERROR = E@NOTIMP;    /* E@NOTIMP */

   5458  1 000255   000767 235007                    LDA     503,DL
         1 000256   000000 471400 xsym               LDP1    S_D$
         1 000257   100013 755100                    STA     11,,PR1
         1 000260   000377 710000 1                  TRA     s:5491

      305     5459    3               CASE(%GD#RSPNOACCESS);

      306     5460    3                  S_D.ERROR = E@ACCESS_FAULT; /* E@ACCESS_FAULT */

   5460  1 000261   000116 235007                    LDA     78,DL
PL6.E3A0      #002=DFK$PUTMVAL File=DFK$GETMVAL.:E05TSI                          TUE 07/29/97 14:40 Page:62
         1 000262   000000 471400 xsym               LDP1    S_D$
         1 000263   100013 755100                    STA     11,,PR1
         1 000264   000377 710000 1                  TRA     s:5491

      307     5461    3               CASE(ELSE);

      308     5462    3                  IF S_D.CURRENT_FPRG_CONTEXT$ -> FPRG$CONTEXT.XDELTA AND

   5462  1 000265   000000 471400 xsym               LDP1    S_D$
         1 000266   100102 473500                    LDP3    66,,PR1
         1 000267   300001 236100                    LDQ     1,,PR3
         1 000270   002000 316003                    CANQ    1024,DU
         1 000271   000301 600000 1                  TZE     s:5468
         1 000272   000000 236100                    LDQ     0,,PR0
         1 000273   776000 376003                    ANQ     -1024,DU
         1 000274   140000 116003                    CMPQ    49152,DU
         1 000275   000301 601000 1                  TNZ     s:5468

      309     5463    3                    GD$MSG.FNC = %GD#RSPBADMSG
      310     5464    4                  THEN DO;

      311     5465    4                       S_D.ERROR = E@BADMSG; /* E@BADMSG */

   5465  1 000276   000512 235007                    LDA     330,DL
         1 000277   100013 755100                    STA     11,,PR1

      312     5466    4                       GOTO ARET;

   5466  1 000300   000470 710000 1                  TRA     ARET

      313     5467    4                     END;
      314     5468    3                  IF GD$MSG.FNC = %GD#RSPNAK

   5468  1 000301   000000 236100                    LDQ     0,,PR0
         1 000302   776000 376003                    ANQ     -1024,DU
         1 000303   150000 116003                    CMPQ    53248,DU
         1 000304   000354 601000 1                  TNZ     s:5483
PL6.E3A0      #002=DFK$PUTMVAL File=DFK$GETMVAL.:E05TSI                          TUE 07/29/97 14:40 Page:63

      315     5469    4                  THEN DO;

      316     5470    4                       IF S_D.CURRENT_FPRG_CONTEXT$ -> FPRG$CONTEXT.XDELTA

   5470  1 000305   300001 236100                    LDQ     1,,PR3
         1 000306   002000 316003                    CANQ    1024,DU
         1 000307   000343 600000 1                  TZE     s:5479

      317     5471    5                       THEN DO;

      318     5472    5                            TEMP1 = BITBIN(GD$MSG.ERROR_D.ERRCODE);

   5472  1 000310   000000 235100                    LDA     0,,PR0
         1 000311   000001 236100                    LDQ     1,,PR0
         1 000312   000030 773000                    LRL     24
         1 000313   000003 376000 2                  ANQ     3
         1 000314   200012 756100                    STQ     TEMP$,,AUTO

      319     5473    5                            TEMP2B.B1 = TEMP1B.B1;

   5473  1 000315   200012 236100                    LDQ     TEMP$,,AUTO
         1 000316   000003 736000                    QLS     3
         1 000317   200013 676100                    ERQ     TEMP2,,AUTO
         1 000320   377000 376003                    ANQ     130560,DU
         1 000321   200013 656100                    ERSQ    TEMP2,,AUTO

      320     5474    5                            TEMP2B.B2 = TEMP1B.B2;

   5474  1 000322   200012 236100                    LDQ     TEMP$,,AUTO
         1 000323   000002 736000                    QLS     2
         1 000324   200013 676100                    ERQ     TEMP2,,AUTO
         1 000325   000377 376003                    ANQ     255,DU
         1 000326   200013 656100                    ERSQ    TEMP2,,AUTO

      321     5475    5                            TEMP2B.B3 = TEMP1B.B3;

PL6.E3A0      #002=DFK$PUTMVAL File=DFK$GETMVAL.:E05TSI                          TUE 07/29/97 14:40 Page:64
   5475  1 000327   200012 236100                    LDQ     TEMP$,,AUTO
         1 000330   000001 736000                    QLS     1
         1 000331   200013 676100                    ERQ     TEMP2,,AUTO
         1 000332   377000 376007                    ANQ     130560,DL
         1 000333   200013 656100                    ERSQ    TEMP2,,AUTO

      322     5476    5                            TEMP2B.B4 = TEMP1B.B4;

   5476  1 000334   200012 236100                    LDQ     TEMP$,,AUTO
         1 000335   200013 676100                    ERQ     TEMP2,,AUTO
         1 000336   000377 376007                    ANQ     255,DL
         1 000337   200013 656100                    ERSQ    TEMP2,,AUTO

      323     5477    5                            S_D.JDE = TEMP2;

   5477  1 000340   200013 235100                    LDA     TEMP2,,AUTO
         1 000341   104733 755100                    STA     2523,,PR1

      324     5478    5                          END;

   5478  1 000342   000350 710000 1                  TRA     s:5480

      325     5479    4                       ELSE S_D.JDE = BITBIN(GD$MSG_HOST.ERROR_D.ERRCODE);

   5479  1 000343   000000 474400 xsym               LDP4    S_D_HOST_MESSAGE$
         1 000344   400000 235100                    LDA     0,,PR4
         1 000345   400001 236100                    LDQ     1,,PR4
         1 000346   000022 773000                    LRL     18
         1 000347   104733 756100                    STQ     2523,,PR1

      326     5480    4                       CALL DUE$ERRMSG;

   5480  1 000350   000002 631400 xsym               EPPR1   B_VECTNIL+2
         1 000351   000000 701000 xent               TSX1    DUE$ERRMSG
         1 000352   000000 011000                    NOP     0

      327     5481    4                       ALTRETURN;
PL6.E3A0      #002=DFK$PUTMVAL File=DFK$GETMVAL.:E05TSI                          TUE 07/29/97 14:40 Page:65

   5481  1 000353   000000 702200 xent               TSX2  ! X66_AALT

      328     5482    4                     END;
      329     5483    3                  REMEMBER NEVER IN S_D.SCREECH_IC;

   5483  1 000354   000363 635000 1                  EAA     NEVER
         1 000355   105250 452500                    STP2    2728,,PR1
         1 000356   105251 755100                    STA     2729,,PR1

      330     5484    3                  CALL M$SCREECH (SNAP_MESSAGE) ALTRET(NEVER);

   5484  1 000357   000000 630400 xsym               EPPR0   SNAP_MESSAGE
         1 000360   400013 713400                    CLIMB   alt,+11
         1 000361   401000 401760                    pmme    nvectors=3
         1 000362   000363 702000 1                  TSX2    NEVER

      331     5485    3   NEVER:
      332     5486    3                  S_D.ERROR = E@BADMESSAGE; /* E@BADMESSAGE */

   5486  1 000363   001014 235007       NEVER        LDA     524,DL
         1 000364   000000 470400 xsym               LDP0    S_D$
         1 000365   000013 755100                    STA     11,,PR0

      333     5487    3                  CALL DDE$ERROR;

   5487  1 000366   000002 631400 xsym               EPPR1   B_VECTNIL+2
         1 000367   000000 701000 xent               TSX1    DDE$ERROR
         1 000370   000000 011000                    NOP     0

      334     5488    3                  S_D.ERROR = E@DELBUG;    /* E@DELBUG */

   5488  1 000371   000766 235007                    LDA     502,DL
         1 000372   000000 470400 xsym               LDP0    S_D$
         1 000373   000013 755100                    STA     11,,PR0

      335     5489    3                  CALL DDE$ERROR;
PL6.E3A0      #002=DFK$PUTMVAL File=DFK$GETMVAL.:E05TSI                          TUE 07/29/97 14:40 Page:66

   5489  1 000374   000002 631400 xsym               EPPR1   B_VECTNIL+2
         1 000375   000000 701000 xent               TSX1    DDE$ERROR
         1 000376   000000 011000                    NOP     0

      336     5490    3               END;

      337     5491    2             GOTO ARET;

   5491  1 000377   000470 710000 1                  TRA     ARET

      338     5492    2           END;
      339     5493    1        IF NOT GD$MSG.MODMEM_D.SO

   5493  1 000400   000001 236100                    LDQ     1,,PR0
         1 000401   000040 316003                    CANQ    32,DU
         1 000402   000407 601000 1                  TNZ     s:5499

      340     5494    2        THEN DO;

      341     5495    2             S_D.ERROR = E@OLDNOTOLD;      /* E@OLDNOTOLD */

   5495  1 000403   000122 235007                    LDA     82,DL
         1 000404   000000 471400 xsym               LDP1    S_D$
         1 000405   100013 755100                    STA     11,,PR1

      342     5496    2             ALTRETURN;

   5496  1 000406   000000 702200 xent               TSX2  ! X66_AALT

      343     5497    2           END;
      344     5498                                                /* Save in cache in S_D */
      345     5499    1        IF SEG ~= 3

   5499  1 000407   200006 471500                    LDP1    @SEG,,AUTO
         1 000410   100000 235100                    LDA     0,,PR1
         1 000411   000003 115007                    CMPA    3,DL
PL6.E3A0      #002=DFK$PUTMVAL File=DFK$GETMVAL.:E05TSI                          TUE 07/29/97 14:40 Page:67
         1 000412   000414 600000 1                  TZE     s:5502

      346     5500    1        THEN
      347     5501    1             RETURN;

   5501  1 000413   000000 702200 xent               TSX2  ! X66_ARET

      348     5502    1        S_D.MOD_L6.ADDRESS = ADDRESS;

   5502  1 000414   200005 473500                    LDP3    @ADDRESS,,AUTO
         1 000415   000000 474400 xsym               LDP4    S_D$
         1 000416   300000 235100                    LDA     0,,PR3
         1 000417   406772 755100                    STA     3578,,PR4

      349     5503    1        S_D.MOD_L6.SEG = SEG;

   5503  1 000420   100000 235100                    LDA     0,,PR1
         1 000421   406773 755100                    STA     3579,,PR4

      350     5504    1        S_D.MOD_L6.DESC# = DESC#;

   5504  1 000422   200007 475500                    LDP5    @DESC#,,AUTO
         1 000423   500000 235100                    LDA     0,,PR5
         1 000424   406774 755100                    STA     3580,,PR4

      351     5505    1        S_D.MOD_L6.NOT_IS = NOT_IS;

   5505  1 000425   200010 476500                    LDP6    @NOT_IS,,AUTO
         1 000426   600000 236100                    LDQ     0,,PR6
         1 000427   400000 376003                    ANQ     -131072,DU
         1 000430   406775 756100                    STQ     3581,,PR4

      352     5506    1        S_D.MOD_L6.VALUE.SIZE = GD$MSG.MODMEM_D.MODCNT;

   5506  1 000431   000001 236100                    LDQ     1,,PR0
         1 000432   000010 772000                    QRL     8
         1 000433   000377 376007                    ANQ     255,DL
PL6.E3A0      #002=DFK$PUTMVAL File=DFK$GETMVAL.:E05TSI                          TUE 07/29/97 14:40 Page:68
         1 000434   406776 756100                    STQ     3582,,PR4

      353     5507    2        DO I = 0 TO GD$MSG.MODMEM_D.MODCNT - 1;

   5507  1 000435   200011 450100                    STZ     I,,AUTO
         1 000436   000455 710000 1                  TRA     s:5509+3

      354     5508    2             S_D.MOD_L6.VALUE.OPS(I) = GD$MSG.MODMEM_D.MODS.NEW(I);

   5508  1 000437   200011 235100                    LDA     I,,AUTO
         1 000440   000005 735000                    ALS     5
         1 000441   200011 236100                    LDQ     I,,AUTO
         1 000442   200014 755100                    STA     TEMP2+1,,AUTO
         1 000443   000044 402007                    MPY     36,DL
         1 000444   000000 470400 xsym               LDP0    S_D_L6_MESSAGE$
         1 000445   200014 235100                    LDA     TEMP2+1,,AUTO
         1 000446   000000 471400 xsym               LDP1    S_D$
         1 000447   003106 061505                    CSR     bolr='003'O
         1 000450   000004 000020                    BDSC    4,A,PR0                  by=0,bit=0,n=16
         1 000451   106777 000044                    BDSC    3583,Q,PR1               by=0,bit=0,n=36

      355     5509    2           END;

   5509  1 000452   200011 235100                    LDA     I,,AUTO
         1 000453   000001 035007                    ADLA    1,DL
         1 000454   200011 755100                    STA     I,,AUTO
         1 000455   000001 236100                    LDQ     1,,PR0
         1 000456   000010 772000                    QRL     8
         1 000457   000377 376007                    ANQ     255,DL
         1 000460   200011 116100                    CMPQ    I,,AUTO
         1 000461   000463 600000 1                  TZE     s:5510
         1 000462   000437 603000 1                  TRC     s:5508

      356     5510    1        RETURN;

   5510  1 000463   000000 702200 xent               TSX2  ! X66_ARET

PL6.E3A0      #002=DFK$PUTMVAL File=DFK$GETMVAL.:E05TSI                          TUE 07/29/97 14:40 Page:69
   5508  1 000464                       ERR          null
      357     5511
      358     5512    1   ERR: ;
      359     5513    1        CALL DUE$ERRMSG;

   5513  1 000464   000002 631400 xsym               EPPR1   B_VECTNIL+2
         1 000465   000000 701000 xent               TSX1    DUE$ERRMSG
         1 000466   000000 011000                    NOP     0

      360     5514    1        ALTRETURN;

   5514  1 000467   000000 702200 xent               TSX2  ! X66_AALT

   5508  1 000470                       ARET         null
      361     5515    1   ARET: ;
      362     5516    1        ALTRETURN;

   5516  1 000470   000000 702200 xent               TSX2  ! X66_AALT

(unnamed)
 Sect OctLoc
   2     000   001777 777777   000077 600000   000002 006000   037777 777777    .....?..........
      363     5517    1   END DFK$PUTMVAL;

PL6.E3A0      #002=DFK$PUTMVAL File=DFK$GETMVAL.:E05TSI                          TUE 07/29/97 14:40 Page:70
--  Include file information  --

   DD_ERR_C.:E05TOU  is referenced.
   DD$BASED.:E05TOU  is referenced.
   GD_EQUS_E.:E05TOU  is referenced.
   GD$MSG_M.:E05TOU  is referenced.
   DD_SD_M.:E05TOU  is referenced.
   XUH_MACRO_C.:E05TOU  is referenced.
   DU_SCODE_C.:E05TOU  is referenced.
   CP_6.:E05TOU  cannot be made into a system file and is referenced.
   B$JIT_C.:E05TOU  was found in the system file and is never referenced.
   CP_6_C.:E05TOU  was found in the system file and is referenced.
      No diagnostics issued in procedure DFK$PUTMVAL.

   Procedure DFK$PUTMVAL requires 313 words for executable code.
   Procedure DFK$PUTMVAL requires 14 words of local(AUTO) storage.

    No errors detected in file DFK$GETMVAL.:E05TSI    .
PL6.E3A0      #002=DFK$PUTMVAL File=DFK$GETMVAL.:E05TSI                          TUE 07/29/97 14:40 Page:71
          *** CROSS REFERENCE LISTING ***
**     DENOTES     IDENTIFIER DEFINITION
<<                 IDENTIFIER'S VALUE SET
>>                 IDENTIFIER'S VALUE USED
<>                 IDENTIFIER SET AND/OR USED
--                 IDENTIFIER REFERENCED
PL6.E3A0      #002=DFK$PUTMVAL File=DFK$GETMVAL.:E05TSI                          TUE 07/29/97 14:40 Page:72
          MINI XREF LISTING

ADDRESS
        24**DCL        15--PROC     5418>>IF       5429>>ASSIGN   5502>>ASSIGN
ARET
      5508**LABEL    5466--GOTO     5491--GOTO
DDE$ERROR
      5410**DCL-ENT  5487--CALL     5489--CALL
DESC#
        26**DCL        15--PROC     5418>>IF       5431>>ASSIGN   5504>>ASSIGN
DFQ$READ_FD
      5411**DCL-ENT  5445--CALL
DFQ$WRITE_FD
      5412**DCL-ENT  5444--CALL
DUE$ERRMSG
      5413**DCL-ENT  5480--CALL     5513--CALL
ERR
      5508**LABEL    5444--CALLALT  5445--CALLALT
FPRG$CONTEXT.XDELTA
      4947**DCL      5462>>IF       5470>>IF
GD$MSG
      3174**DCL      5427<<ASSIGN
GD$MSG.BRKRQS.IF$CONST.SIZE
      3225**DCL      3225--REDEF
GD$MSG.BRKRQS.IF$CONST.TEXT
      3225**DCL      3226--REDEF    3226--REDEF    3227--REDEF    3228--REDEF
GD$MSG.BRKRSP.BRK#
      3239**DCL      3239--REDEF
GD$MSG.BRKRSP.USER#
      3239**DCL      3239--REDEF
GD$MSG.ERROR_D.ERRCODE
      3180**DCL      5472>>ASSIGN
GD$MSG.FNC
      3174**DCL      5428<<ASSIGN   5446>>IF       5448>>DOCASE   5462>>IF       5468>>IF
PL6.E3A0      #002=DFK$PUTMVAL File=DFK$GETMVAL.:E05TSI                          TUE 07/29/97 14:40 Page:73
GD$MSG.LETMEM_D.VALUE.SIZE
      3197**DCL      3197--REDEF
GD$MSG.LETMEM_D.VALUE.TEXT
      3198**DCL      3198--REDEF    3198--REDEF    3199--REDEF    3200--REDEF
GD$MSG.MESSAGE
      3179**DCL      3179--REDEF    3180--REDEF    3180--REDEF    3181--REDEF    3192--REDEF    3205--REDEF
      3210--REDEF    3217--REDEF    3233--REDEF    3238--REDEF    3244--REDEF    3245--REDEF    3274--REDEF
      3276--REDEF    3287--REDEF    3294--REDEF    3306--REDEF
GD$MSG.MODMEM_D.ADDRESS
      3215**DCL      5429<<ASSIGN
GD$MSG.MODMEM_D.DESC#
      3216**DCL      5431<<ASSIGN
GD$MSG.MODMEM_D.MM.FLGS
      3210**DCL      5441<<ASSIGN
GD$MSG.MODMEM_D.MODCNT
      3215**DCL      5433<<ASSIGN   5506>>ASSIGN   5507>>DOINDEX
GD$MSG.MODMEM_D.MODS.NEW
      3216**DCL      5435<<ASSIGN   5508>>ASSIGN
GD$MSG.MODMEM_D.MODS.OLD
      3216**DCL      5440<<ASSIGN
GD$MSG.MODMEM_D.NOT_IS
      3215**DCL      5432<<ASSIGN
GD$MSG.MODMEM_D.SEG
      3215**DCL      5430<<ASSIGN
GD$MSG.MODMEM_D.SO
      3215**DCL      5493>>IF
GD$MSG.SUBFNC
      3174**DCL      3174--REDEF    3178--REDEF
GD$MSG.TSA.I
      3246**DCL      3246--REDEF
GD$MSG.TSA.S
      3248**DCL      3248--REDEF
GD$MSG.USERQS.ASDT$
      3274**DCL      3274--REDEF    3275--REDEF
GD$MSG_HOST.BRKRQS.IF$CONST.SIZE
      3381**DCL      3381--REDEF
PL6.E3A0      #002=DFK$PUTMVAL File=DFK$GETMVAL.:E05TSI                          TUE 07/29/97 14:40 Page:74
GD$MSG_HOST.BRKRQS.IF$CONST.TEXT
      3381**DCL      3382--REDEF    3382--REDEF    3383--REDEF    3384--REDEF
GD$MSG_HOST.BRKRSP.BRK#
      3395**DCL      3395--REDEF
GD$MSG_HOST.BRKRSP.USER#
      3395**DCL      3395--REDEF
GD$MSG_HOST.ERROR_D.ERRCODE
      3336**DCL      5479>>ASSIGN
GD$MSG_HOST.LETMEM_D.VALUE.SIZE
      3353**DCL      3353--REDEF
GD$MSG_HOST.LETMEM_D.VALUE.TEXT
      3354**DCL      3354--REDEF    3354--REDEF    3355--REDEF    3356--REDEF
GD$MSG_HOST.MESSAGE
      3335**DCL      3335--REDEF    3336--REDEF    3336--REDEF    3337--REDEF    3348--REDEF    3361--REDEF
      3366--REDEF    3373--REDEF    3389--REDEF    3394--REDEF    3400--REDEF    3401--REDEF    3430--REDEF
      3432--REDEF    3443--REDEF    3450--REDEF    3462--REDEF
GD$MSG_HOST.SUBFNC
      3330**DCL      3330--REDEF    3334--REDEF
GD$MSG_HOST.TSA.I
      3402**DCL      3402--REDEF
GD$MSG_HOST.TSA.S
      3404**DCL      3404--REDEF
GD$MSG_HOST.USERQS.ASDT$
      3430**DCL      3430--REDEF    3431--REDEF
I
        29**DCL      5434<<DOINDEX  5435>>ASSIGN   5435>>ASSIGN   5439<<DOINDEX  5440>>ASSIGN   5440>>ASSIGN
      5441>>ASSIGN   5507<<DOINDEX  5508>>ASSIGN   5508>>ASSIGN
M$SCREECH
        72**DCL-ENT  5484--CALL
MOD$CMD.DDESC
      5001**DCL      5437>>IF
NEVER
      5486**LABEL    5483--REMEMBR  5484--CALLALT
NOTFEP
      5456**LABEL    5419--GOTO
NOT_IS
PL6.E3A0      #002=DFK$PUTMVAL File=DFK$GETMVAL.:E05TSI                          TUE 07/29/97 14:40 Page:75
        27**DCL        15--PROC     5432>>ASSIGN   5505>>ASSIGN
NVALUE
        18**DCL        15--PROC
NVALUE.OPS
        20**DCL      5420>>ASSIGN   5423>>ASSIGN   5435>>ASSIGN
NVALUE.SIZE
        19**DCL      5421>>IF       5433>>ASSIGN   5434>>DOINDEX
OVALUE
        21**DCL        15--PROC     5437--IF
OVALUE.OPS
        23**DCL      5440>>ASSIGN
OVALUE.SIZE
        22**DCL      5439>>DOINDEX
SEG
        25**DCL        15--PROC     5416>>IF       5430>>ASSIGN   5499>>IF       5503>>ASSIGN
SNAP_MESSAGE
       154**DCL      5484<>CALL
S_D.CURRENT_CHANNEL
      2590**DCL      2592--REDEF
S_D.CURRENT_FPRG_CONTEXT$
      1790**DCL      5444<>CALL     5445<>CALL     5462>>IF       5470>>IF
S_D.DEBUGA
      1742**DCL      1744--REDEF
S_D.DO$
      1693**DCL      5437>>IF
S_D.EIS
      2700**DCL      2729--REDEF
S_D.ERROR
      1671**DCL      5450<<ASSIGN   5452<<ASSIGN   5454<<ASSIGN   5456<<ASSIGN   5458<<ASSIGN   5460<<ASSIGN
      5465<<ASSIGN   5486<<ASSIGN   5488<<ASSIGN   5495<<ASSIGN
S_D.HOST_MESSAGE_BUF_REMOTE
      2633**DCL      2634--REDEF    2648--REDEF
S_D.JDE
      2247**DCL      2248--REDEF    5477<<ASSIGN   5479<<ASSIGN
S_D.L$.VALUE
      1800**DCL      1806--REDEF    1814--REDEF    1817--REDEF    1820--REDEF    1823--REDEF
PL6.E3A0      #002=DFK$PUTMVAL File=DFK$GETMVAL.:E05TSI                          TUE 07/29/97 14:40 Page:76
S_D.L$.VALUE.L
      1801**DCL      1802--REDEF    1803--REDEF
S_D.L6_MESSAGE_BUF
      2654**DCL      2656--REDEF
S_D.MACTIVE
      1911**DCL      5437>>IF
S_D.MOD_L6.ADDRESS
      2763**DCL      5502<<ASSIGN
S_D.MOD_L6.DESC#
      2765**DCL      5504<<ASSIGN
S_D.MOD_L6.NOT_IS
      2766**DCL      5505<<ASSIGN
S_D.MOD_L6.SEG
      2764**DCL      5503<<ASSIGN
S_D.MOD_L6.VALUE.OPS
      2769**DCL      5508<<ASSIGN
S_D.MOD_L6.VALUE.SIZE
      2768**DCL      5506<<ASSIGN
S_D.OUTPUT
      2620**DCL      2622--REDEF
S_D.REMOTE_MSG.FNCC
      2639**DCL      2640--REDEF
S_D.REMOTE_MSG.STXC
      2635**DCL      2636--REDEF
S_D.REMOTE_MSG.SUBFNCC
      2643**DCL      2644--REDEF
S_D.SAVEIC
      1653**DCL      5420<<ASSIGN   5423<<ASSIGN   5423>>ASSIGN
S_D.SCREECH_IC
      2491**DCL      5483<<REMEMBR
S_D.SV
      1699**DCL      1720--REDEF
S_D$
      2951**DCL      1647--IMP-PTR  5420>>ASSIGN   5423>>ASSIGN   5423>>ASSIGN   5437>>IF       5437>>IF
      5444>>CALL     5445>>CALL     5450>>ASSIGN   5452>>ASSIGN   5454>>ASSIGN   5456>>ASSIGN   5458>>ASSIGN
      5460>>ASSIGN   5462>>IF       5465>>ASSIGN   5470>>IF       5477>>ASSIGN   5479>>ASSIGN   5483>>REMEMBR
PL6.E3A0      #002=DFK$PUTMVAL File=DFK$GETMVAL.:E05TSI                          TUE 07/29/97 14:40 Page:77
      5486>>ASSIGN   5488>>ASSIGN   5495>>ASSIGN   5502>>ASSIGN   5503>>ASSIGN   5504>>ASSIGN   5505>>ASSIGN
      5506>>ASSIGN   5508>>ASSIGN
S_D_HOST_MESSAGE$
      2987**DCL      3330--IMP-PTR  5479>>ASSIGN
S_D_L6_MESSAGE$
      2988**DCL      3174--IMP-PTR  5427>>ASSIGN   5428>>ASSIGN   5429>>ASSIGN   5430>>ASSIGN   5431>>ASSIGN
      5432>>ASSIGN   5433>>ASSIGN   5435>>ASSIGN   5440>>ASSIGN   5441>>ASSIGN   5446>>IF       5448>>DOCASE
      5462>>IF       5468>>IF       5472>>ASSIGN   5493>>IF       5506>>ASSIGN   5507>>DOINDEX  5508>>ASSIGN
TEMP$
        30**DCL        31--REDEF      32--REDEF
TEMP1
        31**DCL      5472<<ASSIGN
TEMP1B.B1
        34**DCL      5473>>ASSIGN
TEMP1B.B2
        35**DCL      5474>>ASSIGN
TEMP1B.B3
        36**DCL      5475>>ASSIGN
TEMP1B.B4
        37**DCL      5476>>ASSIGN
TEMP2
        38**DCL        39--REDEF    5477>>ASSIGN
TEMP2B.B1
        41**DCL      5473<<ASSIGN
TEMP2B.B2
        43**DCL      5474<<ASSIGN
TEMP2B.B3
        45**DCL      5475<<ASSIGN
TEMP2B.B4
        47**DCL      5476<<ASSIGN
PL6.E3A0      #002=DFK$PUTMVAL File=DFK$GETMVAL.:E05TSI                          TUE 07/29/97 14:40 Page:78
              *** CROSS REFERENCE LISTING ***
    **     DENOTES     IDENTIFIER DEFINITION
    <<                 IDENTIFIER'S VALUE SET
    >>                 IDENTIFIER'S VALUE USED
    <>                 IDENTIFIER SET AND/OR USED
    --                 IDENTIFIER REFERENCED
PL6.E3A0      #002=DFK$PUTMVAL File=DFK$GETMVAL.:E05TSI                          TUE 07/29/97 14:40 Page:79
              MINI UREF LISTING

DFK$PUTMVAL      15**PROC
DUE$GERRMSG    5414**DCL-ENT
M$ACCT      75**DCL-ENT
M$ACTIVATE      78**DCL-ENT
M$ALIB      71**DCL-ENT
M$ASUSER      73**DCL-ENT
M$ATTACH      80**DCL-ENT
M$BADPP      98**DCL-ENT
M$CGCTL      79**DCL-ENT
M$CGINFO      79**DCL-ENT
M$CHECK      60**DCL-ENT
M$CHGUNIT     118**DCL-ENT
M$CLOSE      58**DCL-ENT
M$CLRSTK     116**DCL-ENT
M$CMDVAR     127**DCL-ENT
M$CONFIG      88**DCL-ENT
M$CORRES      63**DCL-ENT
M$CPEXIT      72**DCL-ENT
M$CVM      96**DCL-ENT
M$CVOL      61**DCL-ENT
M$DCLFLD      88**DCL-ENT
M$DEACTIVATE      78**DCL-ENT
M$DELREC      60**DCL-ENT
M$DEQ     125**DCL-ENT
M$DETACH      80**DCL-ENT
M$DEVICE      62**DCL-ENT
M$DISPLAY     125**DCL-ENT
M$DISPRES      65**DCL-ENT
M$DLIB      71**DCL-ENT
M$DRIBBLE      88**DCL-ENT
M$DRTN     116**DCL-ENT
M$DSUSER      73**DCL-ENT
PL6.E3A0      #002=DFK$PUTMVAL File=DFK$GETMVAL.:E05TSI                          TUE 07/29/97 14:40 Page:80
M$ENQ     124**DCL-ENT
M$EOM      83**DCL-ENT
M$ERASE      89**DCL-ENT
M$ERR      70**DCL-ENT
M$ERRMSG     121**DCL-ENT
M$EVENT     113**DCL-ENT
M$EXHUME     122**DCL-ENT
M$EXIT      70**DCL-ENT
M$EXTEND      62**DCL-ENT
M$FDP      94**DCL-ENT
M$FDS      93**DCL-ENT
M$FEBOOT      86**DCL-ENT
M$FECTL      87**DCL-ENT
M$FEDUMP      86**DCL-ENT
M$FID     121**DCL-ENT
M$FINDPROC      75**DCL-ENT
M$FSUSER      73**DCL-ENT
M$FVP      95**DCL-ENT
M$FWCG      79**DCL-ENT
M$GBPL      99**DCL-ENT
M$GDDL      95**DCL-ENT
M$GDP      94**DCL-ENT
M$GDS      93**DCL-ENT
M$GETDCB      64**DCL-ENT
M$GETMOUSE     104**DCL-ENT
M$GETPM     105**DCL-ENT
M$GJOB     123**DCL-ENT
M$GLINEATTR      83**DCL-ENT
M$GOODPP      98**DCL-ENT
M$GPLATEN      91**DCL-ENT
M$GPROMPT      90**DCL-ENT
M$GTRMATTR      84**DCL-ENT
M$GTRMCTL      82**DCL-ENT
M$GTRMTAB      85**DCL-ENT
M$GVP      94**DCL-ENT
M$HELP     121**DCL-ENT
PL6.E3A0      #002=DFK$PUTMVAL File=DFK$GETMVAL.:E05TSI                          TUE 07/29/97 14:40 Page:81
M$INT     113**DCL-ENT
M$INTRTN      74**DCL-ENT
M$IOQ     109**DCL-ENT
M$JOBSTATS     123**DCL-ENT
M$KEYIN      63**DCL-ENT
M$LDEV      58**DCL-ENT
M$LDTRC      71**DCL-ENT
M$LIMIT      64**DCL-ENT
M$LINES      63**DCL-ENT
M$LINK      70**DCL-ENT
M$MADMUCK      66**DCL-ENT
M$MAKUSER      97**DCL-ENT
M$MBS      65**DCL-ENT
M$MDFFLD      89**DCL-ENT
M$MERC     114**DCL-ENT
M$MERCS     115**DCL-ENT
M$MIRROR     109**DCL-ENT
M$MONINFO     126**DCL-ENT
M$MPL      99**DCL-ENT
M$NODEINFO      90**DCL-ENT
M$NXTUSR     124**DCL-ENT
M$OCMSG     122**DCL-ENT
M$OLAY      70**DCL-ENT
M$OPEN      58**DCL-ENT
M$PAS      99**DCL-ENT
M$PATHCON     122**DCL-ENT
M$PDS      93**DCL-ENT
M$PFIL      60**DCL-ENT
M$PLATEN      84**DCL-ENT
M$PRECORD      62**DCL-ENT
M$PROCNAME      75**DCL-ENT
M$PROFILE      86**DCL-ENT
M$PROMPT      82**DCL-ENT
M$RACST      66**DCL-ENT
M$RDSYSLOG     107**DCL-ENT
M$READ      59**DCL-ENT
PL6.E3A0      #002=DFK$PUTMVAL File=DFK$GETMVAL.:E05TSI                          TUE 07/29/97 14:40 Page:82
M$RELDCB      64**DCL-ENT
M$RELRES      65**DCL-ENT
M$RELSTARF      67**DCL-ENT
M$REM      67**DCL-ENT
M$RENV     114**DCL-ENT
M$REQUIRE      66**DCL-ENT
M$RETRY     115**DCL-ENT
M$RETRYS     115**DCL-ENT
M$REW      61**DCL-ENT
M$RLSFLD      89**DCL-ENT
M$RPRIV     117**DCL-ENT
M$RSPP      96**DCL-ENT
M$RSWITCH     118**DCL-ENT
M$RUE     124**DCL-ENT
M$SAD      97**DCL-ENT
M$SAVE      73**DCL-ENT
M$SCON      74**DCL-ENT
M$SENV     114**DCL-ENT
M$SETFMA      58**DCL-ENT
M$SETFP      87**DCL-ENT
M$SINPUT      85**DCL-ENT
M$SLCFLD      90**DCL-ENT
M$SMOUSE     104**DCL-ENT
M$SMPRT      96**DCL-ENT
M$SPRIV     117**DCL-ENT
M$SSC      97**DCL-ENT
M$SSWITCH     117**DCL-ENT
M$STATE     126**DCL-ENT
M$STD      98**DCL-ENT
M$STIMER     112**DCL-ENT
M$STLPP      95**DCL-ENT
M$STRAP     112**DCL-ENT
M$STRMATTR      84**DCL-ENT
M$STRMCTL      82**DCL-ENT
M$STRMTAB      85**DCL-ENT
M$SYMBIO     123**DCL-ENT
PL6.E3A0      #002=DFK$PUTMVAL File=DFK$GETMVAL.:E05TSI                          TUE 07/29/97 14:40 Page:83
M$SYSCON     109**DCL-ENT
M$SYSID     127**DCL-ENT
M$TDCLOSE     108**DCL-ENT
M$TDIO     108**DCL-ENT
M$TDOPEN     107**DCL-ENT
M$TDREQCPU     108**DCL-ENT
M$TEMPWROC     102**DCL-ENT
M$TIME     125**DCL-ENT
M$TRAP     112**DCL-ENT
M$TRMISC      87**DCL-ENT
M$TRMPRG      83**DCL-ENT
M$TRTN     116**DCL-ENT
M$TRUNC      59**DCL-ENT
M$TTIMER     112**DCL-ENT
M$UC      82**DCL
M$UMPL      99**DCL-ENT
M$UNFID     121**DCL-ENT
M$UNLATCH      78**DCL-ENT
M$UNSHARE      75**DCL-ENT
M$USRFIELD     118**DCL-ENT
M$VIRTUAL      93**DCL-ENT
M$WAIT     116**DCL-ENT
M$WEOF      61**DCL-ENT
M$WRITE      59**DCL-ENT
M$WRSYSLOG     107**DCL-ENT
M$XCON     113**DCL-ENT
M$XCONRTN      74**DCL-ENT
M$XEQTIME     126**DCL-ENT
M$XFLUSH      67**DCL-ENT
M$XMOUSE     104**DCL-ENT
M$XXX      70**DCL-ENT
M$YC      72**DCL-ENT
SC_MESSAGE     172**DCL
S_D_ACCESS$    2966**DCL
S_D_ANLZ$    2968**DCL
S_D_ASTACKOFF$    2967**DCL
PL6.E3A0      #002=DFK$PUTMVAL File=DFK$GETMVAL.:E05TSI                          TUE 07/29/97 14:40 Page:84
S_D_BREAK$    2969**DCL
S_D_DO_SCAN$    2970**DCL
S_D_ERROR$    2971**DCL
S_D_FAULTCMD$$    2972**DCL
S_D_FAULTINS$$    2973**DCL
S_D_GOIC$    2974**DCL
S_D_GO_MODE$    2975**DCL
S_D_HW_PTB_UNITS$    2991**DCL
S_D_HW_RES_MEM$    2989**DCL
S_D_HW_WSQ0PT$    2990**DCL
S_D_IPRFLT$    2977**DCL
S_D_IXFIX$    2976**DCL
S_D_REM_ACCESS$    2978**DCL
S_D_REM_DISKBOOT$    2980**DCL
S_D_REM_DO_SCAN$    2979**DCL
S_D_RETURNN$    2981**DCL
S_D_SAD$    2982**DCL
S_D_SAVEIC$    2983**DCL
S_D_SEG$    2965**DCL
S_D_TCB$$    2984**DCL
S_D_UREG$$    2985**DCL
S_D_USS$$    2986**DCL
