VERSION E05

PL6.E3A0      #001=DFQ$READ_FD File=DFQ$READ.:E05TSI                             TUE 07/29/97 14:40 Page:1
        1        1        /*M* DFQ$READ - Read/Write routines to communicate with FED */
        2        2        /*T***********************************************************/
        3        3        /*T*                                                         */
        4        4        /*T* Copyright (c) Bull HN Information Systems Inc., 1997    */
        5        5        /*T*                                                         */
        6        6        /*T***********************************************************/
        7        7        /*X* DMR,PLM=5,IND=5,CSU=3,EXM=0,ECU=3,MOC,DCI=5,CRT=5 */
        8        8        /**/
        9        9        DFQ$READ_FD: PROC (CONTEXT$, NODAT) ALTRET;
       10       10
       11       11    1   DCL CONTEXT$ PTR;
       12       12    1   DCL NODAT BIT(1) ALIGNED;
       13       13        /**/
       14       14        %INCLUDE CP_6;
       15       95        %INCLUDE B_ERRORS_C;
       16     1222        %FPT_READ(FPTN=FPT_READ,
       17     1223                  STCLASS=CONSTANT);
       18     1262        %FPT_READ(FPTN=FPT_READFED,
       19     1263                  STCLASS=);
       20     1302        %VLP_STATION(FPTN=VLP_STATION,STCLASS=CONSTANT);
       21     1329        %VLP_STATION(FPTN=VLPSTATION,STCLASS=AUTO);
       22     1356    1   DCL B$TCB$ PTR SYMREF;
       23     1357        %B$TCB;
       24     1360        %B$ALT;
       25     1368        %INCLUDE XUH_MACRO_C;
       26     1452        %INCLUDE DD_SD_M;
       27     2788        %S_D;
       28     4106        %S_D_PTRS;
       29     4143        %INCLUDE DD$BASED;
       30     5446        %FPRG$CONTEXT;
       31     5509        %INCLUDE GD_EQUS_E;
       32     5670        %INCLUDE GD$MSG_M;
       33     5834        %GD$MSG(FPTN=GD$MSG,STCLASS="BASED(S_D_L6_MESSAGE$)",L6=YES,L6PTR="UBIN(32) UNAL");
       34     5990        /**/
       35     5991    1   DCL DDR$PACK ENTRY(4);
       36     5992    1   DCL DFQ$WRITE_FD ENTRY(1) ALTRET;
       37     5993
PL6.E3A0      #001=DFQ$READ_FD File=DFQ$READ.:E05TSI                             TUE 07/29/97 14:40 Page:2
       38     5994    1        FPT_READFED = FPT_READ;
       39     5995    1        FPT_READFED.V_ = VECTOR(FPT_READFED.V);
       40     5996    1        FPT_READFED.V.DCB# = CONTEXT$ -> FPRG$CONTEXT.DCBNO;
       41     5997    1        IF NODAT
       42     5998    1        THEN FPT_READFED.V.DVBYTE.NODAT# = '1'B;
       43     5999    1        FPT_READFED.V.DVBYTE.TRANS# = '1'B;
       44     6000    1        FPT_READFED.BUF_ = VECTOR( S_D.HOST_MESSAGE_BUF.C);
       45     6001    1        IF CONTEXT$ -> FPRG$CONTEXT.XDELTA
       46     6002    2        THEN DO;
       47     6003    2             VLPSTATION = VLP_STATION;
       48     6004    2             VLPSTATION.STATION# = CONTEXT$ -> FPRG$CONTEXT.RES;
       49     6005    2             FPT_READFED.STATION_ = VECTOR( VLPSTATION );
       50     6006    2             FPT_READFED.BUF_ = VECTOR( S_D.REMOTE_MSG );
       51     6007    2           END;
       52     6008    1   READ_IT:
       53     6009    2        CALL M$READ (FPT_READFED) WHENALTRETURN DO;
       54     6010    2             IF B$TCB$->B$TCB.ALT$->B$ALT.ERR.ERR# ~= %E$DI
       55     6011    2               OR (NOT CONTEXT$->FPRG$CONTEXT.XDELTA) THEN GOTO ARET;
       56     6012    2             GD$MSG = '0'B;
       57     6013    2             GD$MSG.FNC = %GD#RQSREXMIT#;
       58     6014    2             CALL DFQ$WRITE_FD (CONTEXT$) ALTRET (ARET);
       59     6015    2             GOTO READ_IT;
       60     6016    2           END;
       61     6017    1        IF CONTEXT$->FPRG$CONTEXT.XDELTA AND S_D.REMOTE_MSG.STXC~=BINASC(66) THEN GOTO
              6017                 READ_IT;
       62     6018    1        CONTEXT$ -> FPRG$CONTEXT.READ_FD = '0'B;
       63     6019    1        CALL DDR$PACK(LENGTHC(S_D.HOST_MESSAGE_BUF.C), S_D_L6_MESSAGE$,
              6019                 S_D_HOST_MESSAGE$, CONTEXT$);
       64     6020    1        RETURN;
       65     6021
       66     6022    1   ARET: ;
       67     6023    1        ALTRETURN;
       68     6024
       69     6025    1   END DFQ$READ_FD;
       70     6026        %EOD;

PL6.E3A0      #001=DFQ$READ_FD File=DFQ$READ.:E05TSI                             TUE 07/29/97 14:40 Page:3
--  Include file information  --

   GD$MSG_M.:E05TOU  is referenced.
   GD_EQUS_E.:E05TOU  is referenced.
   DD$BASED.:E05TOU  is referenced.
   DD_SD_M.:E05TOU  is referenced.
   XUH_MACRO_C.:E05TOU  is referenced.
   B_ERRORS_C.:E05TOU  is referenced.
   CP_6.:E05TOU  cannot be made into a system file and is referenced.
   B$JIT_C.:E05TOU  was found in the system file and is never referenced.
   CP_6_C.:E05TOU  was found in the system file and is referenced.
      No diagnostics issued in procedure DFQ$READ_FD.

   Procedure DFQ$READ_FD requires 97 words for executable code.
   Procedure DFQ$READ_FD requires 32 words of local(AUTO) storage.

PL6.E3A0      #001=DFQ$READ_FD File=DFQ$READ.:E05TSI                             TUE 07/29/97 14:40 Page:4

 Object Unit name= DFQ$READ_FD                                File name= DFQ$READ.:E05TOU
 UTS= JUL 29 '97 14:40:48.20 TUE                              Compiler= PL-6/E31         Sev=      00
 SharedLib= :SHARED_SYSTEM                                    Alt SharedLib=


    ****  Control sections  ****

 Sect   Type Bound  Init  Size OctSiz  Section name(segment info)
    0   DCB   even  none     0      0  M$UC
    1  RoData even  UTS     22     26  DFQ$READ_FD
    2   Proc  even  none    97    141  DFQ$READ_FD
    3  RoData even  none    10     12  DFQ$READ_FD

    ****  Entry defs  ****

                              Check   Calling
                             calling  sequence
  Sect OctLoc Primary Altret sequence   type   Parms  Name
     2      0   yes    yes     yes      Std        2  DFQ$READ_FD

  ****  Entry refs  ****

         Check        Calling
        calling       sequence
Altret sequence SRef   type   Args  Name
 yes     yes           Std       1 DFQ$WRITE_FD
         yes           Std       4 DDR$PACK
                       nStd      0 X66_AUTO_2
                       Std       0 B_CONSPOOL_D
                       nStd      0 X66_ARET
                       nStd      0 X66_AALT
PL6.E3A0      #001=DFQ$READ_FD File=DFQ$READ.:E05TSI                             TUE 07/29/97 14:40 Page:5

  ****  Data refs  ****

  Flags:  r = read only, s = secondary
Flgs Name                             Flgs Name                             Flgs Name
     M$UC                                  B$TCB$                           r    S_D$
r    S_D_HOST_MESSAGE$                r    S_D_L6_MESSAGE$                       B_VECTNIL

  ****  Segment refs  ****

  Flags:  r = read only, s = secondary
Flgs Name                             Flgs Name                             Flgs Name
     ISSID                                 NULLSID
PL6.E3A0      #001=DFQ$READ_FD File=DFQ$READ.:E05TSI                             TUE 07/29/97 14:40 Page:6


        1        1        /*M* DFQ$READ - Read/Write routines to communicate with FED */
        2        2        /*T***********************************************************/
        3        3        /*T*                                                         */
        4        4        /*T* Copyright (c) Bull HN Information Systems Inc., 1997    */
        5        5        /*T*                                                         */
        6        6        /*T***********************************************************/
        7        7        /*X* DMR,PLM=5,IND=5,CSU=3,EXM=0,ECU=3,MOC,DCI=5,CRT=5 */
        8        8        /**/
        9        9        DFQ$READ_FD: PROC (CONTEXT$, NODAT) ALTRET;

      9  2 000000   000000 700200 xent  DFQ$READ_FD  TSX0  ! X66_AUTO_2
         2 000001   000040 000002                    ZERO    32,2

       10       10
       11       11    1   DCL CONTEXT$ PTR;
       12       12    1   DCL NODAT BIT(1) ALIGNED;
       13       13        /**/
       14       14        %INCLUDE CP_6;
       15       95        %INCLUDE B_ERRORS_C;
       16     1222        %FPT_READ(FPTN=FPT_READ,
       17     1223                  STCLASS=CONSTANT);
       18     1262        %FPT_READ(FPTN=FPT_READFED,
       19     1263                  STCLASS=);
       20     1302        %VLP_STATION(FPTN=VLP_STATION,STCLASS=CONSTANT);
       21     1329        %VLP_STATION(FPTN=VLPSTATION,STCLASS=AUTO);
       22     1356    1   DCL B$TCB$ PTR SYMREF;
       23     1357        %B$TCB;
       24     1360        %B$ALT;
       25     1368        %INCLUDE XUH_MACRO_C;
       26     1452        %INCLUDE DD_SD_M;
       27     2788        %S_D;
       28     4106        %S_D_PTRS;
       29     4143        %INCLUDE DD$BASED;
       30     5446        %FPRG$CONTEXT;
       31     5509        %INCLUDE GD_EQUS_E;
       32     5670        %INCLUDE GD$MSG_M;
PL6.E3A0      #001=DFQ$READ_FD File=DFQ$READ.:E05TSI                             TUE 07/29/97 14:40 Page:7
       33     5834        %GD$MSG(FPTN=GD$MSG,STCLASS="BASED(S_D_L6_MESSAGE$)",L6=YES,L6PTR="UBIN(32) UNAL");
       34     5990        /**/
       35     5991    1   DCL DDR$PACK ENTRY(4);
       36     5992    1   DCL DFQ$WRITE_FD ENTRY(1) ALTRET;
       37     5993
       38     5994    1        FPT_READFED = FPT_READ;

   5994  2 000002   000100 100400                    MLR     fill='000'O
         2 000003   000000 000070 1                  ADSC9   FPT_READ                 cn=0,n=56
         2 000004   200006 000070                    ADSC9   FPT_READFED,,AUTO        cn=0,n=56

       39     5995    1        FPT_READFED.V_ = VECTOR(FPT_READFED.V);

   5995  2 000005   000000 235000 3                  LDA     0
         2 000006   200034 452500                    STP2    VLPSTATION+8,,AUTO
         2 000007   200034 236100                    LDQ     VLPSTATION+8,,AUTO
         2 000010   000016 036003                    ADLQ    14,DU
         2 000011   200006 757100                    STAQ    FPT_READFED,,AUTO

       40     5996    1        FPT_READFED.V.DCB# = CONTEXT$ -> FPRG$CONTEXT.DCBNO;

   5996  2 000012   200003 470500                    LDP0    @CONTEXT$,,AUTO
         2 000013   000000 471500                    LDP1    0,,PR0
         2 000014   100001 720100                    LXL0    1,,PR1
         2 000015   200016 740100                    STX0    FPT_READFED+8,,AUTO

       41     5997    1        IF NODAT

   5997  2 000016   200004 471500                    LDP1    @NODAT,,AUTO
         2 000017   100000 234100                    SZN     0,,PR1
         2 000020   000023 605000 2                  TPL     s:5999

       42     5998    1        THEN FPT_READFED.V.DVBYTE.NODAT# = '1'B;

   5998  2 000021   004000 236003                    LDQ     2048,DU
         2 000022   200021 256100                    ORSQ    FPT_READFED+11,,AUTO

PL6.E3A0      #001=DFQ$READ_FD File=DFQ$READ.:E05TSI                             TUE 07/29/97 14:40 Page:8
       43     5999    1        FPT_READFED.V.DVBYTE.TRANS# = '1'B;

   5999  2 000023   020000 236003                    LDQ     8192,DU
         2 000024   200021 256100                    ORSQ    FPT_READFED+11,,AUTO

       44     6000    1        FPT_READFED.BUF_ = VECTOR( S_D.HOST_MESSAGE_BUF.C);

   6000  2 000025   000001 235000 3                  LDA     1
         2 000026   000000 236000 xsym               LDQ     S_D$
         2 000027   006435 036003                    ADLQ    3357,DU
         2 000030   200012 757100                    STAQ    FPT_READFED+4,,AUTO

       45     6001    1        IF CONTEXT$ -> FPRG$CONTEXT.XDELTA

   6001  2 000031   000000 473500                    LDP3    0,,PR0
         2 000032   300001 236100                    LDQ     1,,PR3
         2 000033   002000 316003                    CANQ    1024,DU
         2 000034   000055 600000 2                  TZE     READ_IT

       46     6002    2        THEN DO;

       47     6003    2             VLPSTATION = VLP_STATION;

   6003  2 000035   000100 100400                    MLR     fill='000'O
         2 000036   000016 000040 1                  ADSC9   VLP_STATION              cn=0,n=32
         2 000037   200024 000040                    ADSC9   VLPSTATION,,AUTO         cn=0,n=32

       48     6004    2             VLPSTATION.STATION# = CONTEXT$ -> FPRG$CONTEXT.RES;

   6004  2 000040   000000 473500                    LDP3    0,,PR0
         2 000041   040100 100500                    MLR     fill='040'O
         2 000042   300002 000010                    ADSC9   2,,PR3                   cn=0,n=8
         2 000043   200024 000010                    ADSC9   VLPSTATION,,AUTO         cn=0,n=8

       49     6005    2             FPT_READFED.STATION_ = VECTOR( VLPSTATION );

   6005  2 000044   000002 235000 3                  LDA     2
PL6.E3A0      #001=DFQ$READ_FD File=DFQ$READ.:E05TSI                             TUE 07/29/97 14:40 Page:9
         2 000045   200034 452500                    STP2    VLPSTATION+8,,AUTO
         2 000046   200034 236100                    LDQ     VLPSTATION+8,,AUTO
         2 000047   000024 036003                    ADLQ    20,DU
         2 000050   200014 757100                    STAQ    FPT_READFED+6,,AUTO

       50     6006    2             FPT_READFED.BUF_ = VECTOR( S_D.REMOTE_MSG );

   6006  2 000051   000003 235000 3                  LDA     3
         2 000052   000000 236000 xsym               LDQ     S_D$
         2 000053   006435 036003                    ADLQ    3357,DU
         2 000054   200012 757100                    STAQ    FPT_READFED+4,,AUTO

       51     6007    2           END;

       52     6008    1   READ_IT:
       53     6009    2        CALL M$READ (FPT_READFED) WHENALTRETURN DO;

   6009  2 000055   200006 630500       READ_IT      EPPR0   FPT_READFED,,AUTO
         2 000056   440000 713400                    CLIMB   alt,read
         2 000057   401400 401760                    pmme    nvectors=4
         2 000060   000062 702000 2                  TSX2    s:6010
         2 000061   000112 710000 2                  TRA     s:6017

       54     6010    2             IF B$TCB$->B$TCB.ALT$->B$ALT.ERR.ERR# ~= %E$DI

   6010  2 000062   000000 470400 xsym               LDP0    B$TCB$
         2 000063   000000 471500                    LDP1    0,,PR0
         2 000064   100102 236100                    LDQ     66,,PR1
         2 000065   377770 376007                    ANQ     131064,DL
         2 000066   000110 116007                    CMPQ    72,DL
         2 000067   000140 601000 2                  TNZ     ARET
         2 000070   200003 473500                    LDP3    @CONTEXT$,,AUTO
         2 000071   300000 474500                    LDP4    0,,PR3
         2 000072   400001 236100                    LDQ     1,,PR4
         2 000073   002000 316003                    CANQ    1024,DU
         2 000074   000140 600000 2                  TZE     ARET

PL6.E3A0      #001=DFQ$READ_FD File=DFQ$READ.:E05TSI                             TUE 07/29/97 14:40 Page:10
       55     6011    2               OR (NOT CONTEXT$->FPRG$CONTEXT.XDELTA) THEN GOTO ARET;
       56     6012    2             GD$MSG = '0'B;

   6012  2 000075   000000 475400 xsym               LDP5    S_D_L6_MESSAGE$
         2 000076   003100 060400                    CSL     bolr='003'O
         2 000077   000002 000001 xsym               BDSC    B_VECTNIL+2              by=0,bit=0,n=1
         2 000100   500000 004720                    BDSC    0,,PR5                   by=0,bit=0,n=2512

       57     6013    2             GD$MSG.FNC = %GD#RQSREXMIT#;

   6013  2 000101   500000 236100                    LDQ     0,,PR5
         2 000102   000004 376000 3                  ANQ     4
         2 000103   046000 276003                    ORQ     19456,DU
         2 000104   500000 756100                    STQ     0,,PR5

       58     6014    2             CALL DFQ$WRITE_FD (CONTEXT$) ALTRET (ARET);

   6014  2 000105   200003 630500                    EPPR0   @CONTEXT$,,AUTO
         2 000106   000017 631400 xsym               EPPR1   B_VECTNIL+15
         2 000107   000000 701000 xent               TSX1    DFQ$WRITE_FD
         2 000110   000140 702000 2                  TSX2    ARET

       59     6015    2             GOTO READ_IT;

   6015  2 000111   000055 710000 2                  TRA     READ_IT

       60     6016    2           END;
       61     6017    1        IF CONTEXT$->FPRG$CONTEXT.XDELTA AND S_D.REMOTE_MSG.STXC~=BINASC(66) THEN GOTO
              6017                 READ_IT;

   6017  2 000112   200003 470500                    LDP0    @CONTEXT$,,AUTO
         2 000113   000000 471500                    LDP1    0,,PR0
         2 000114   100001 236100                    LDQ     1,,PR1
         2 000115   002000 316003                    CANQ    1024,DU
         2 000116   000124 600000 2                  TZE     s:6018
         2 000117   000000 473400 xsym               LDP3    S_D$
         2 000120   306435 236100                    LDQ     3357,,PR3
PL6.E3A0      #001=DFQ$READ_FD File=DFQ$READ.:E05TSI                             TUE 07/29/97 14:40 Page:11
         2 000121   777000 376003                    ANQ     -512,DU
         2 000122   102000 116003                    CMPQ    33792,DU
         2 000123   000055 601000 2                  TNZ     READ_IT

       62     6018    1        CONTEXT$ -> FPRG$CONTEXT.READ_FD = '0'B;

   6018  2 000124   000031 236000 xsym               LDQ     B_VECTNIL+25
         2 000125   100001 356100                    ANSQ    1,,PR1

       63     6019    1        CALL DDR$PACK(LENGTHC(S_D.HOST_MESSAGE_BUF.C), S_D_L6_MESSAGE$,
              6019                 S_D_HOST_MESSAGE$, CONTEXT$);

   6019  2 000126   200003 236100                    LDQ     @CONTEXT$,,AUTO
         2 000127   000006 235000 3                  LDA     6
         2 000130   200036 757100                    STAQ    VLPSTATION+10,,AUTO
         2 000131   000010 237000 3                  LDAQ    8
         2 000132   200034 757100                    STAQ    VLPSTATION+8,,AUTO
         2 000133   200034 630500                    EPPR0   VLPSTATION+8,,AUTO
         2 000134   000022 631400 xsym               EPPR1   B_VECTNIL+18
         2 000135   000000 701000 xent               TSX1    DDR$PACK
         2 000136   000000 011000                    NOP     0

       64     6020    1        RETURN;

   6020  2 000137   000000 702200 xent               TSX2  ! X66_ARET

   6018  2 000140                       ARET         null
       65     6021
       66     6022    1   ARET: ;
       67     6023    1        ALTRETURN;

   6023  2 000140   000000 702200 xent               TSX2  ! X66_AALT

FPT_READ
 Sect OctLoc
   1     000   000005 777640   000010 006000   000000 177640   000000 006014    ................
   1     004   000000 177640   000000 006014   000000 177640   000000 006014    ................
PL6.E3A0      #001=DFQ$READ_FD File=DFQ$READ.:E05TSI                             TUE 07/29/97 14:40 Page:12
   1     010   000000 400000   000000 000000   000000 000000   000000 000000    ................
   1     014   000000 000000   000000 000000                                    ........

VLP_STATION
 Sect OctLoc
   1     016   040040 040040   040040 040040   040040 040040   040040 040040
   1     022   001000 000000   000000 000000   000000 000000   000000 000000    ................

(unnamed)
 Sect OctLoc
   3     000   000005 777640   000116 377640   000007 777640   000147 577640    .....N.......g..
   3     004   001777 777777   000000 000472   000000 006000   000000 000000    ................
   3     010   000005 006000   000000 006000                                    ........
       68     6024
       69     6025    1   END DFQ$READ_FD;
       70     6026        %EOD;

PL6.E3A0      #001=DFQ$READ_FD File=DFQ$READ.:E05TSI                             TUE 07/29/97 14:40 Page:13
--  Include file information  --

   GD$MSG_M.:E05TOU  is referenced.
   GD_EQUS_E.:E05TOU  is referenced.
   DD$BASED.:E05TOU  is referenced.
   DD_SD_M.:E05TOU  is referenced.
   XUH_MACRO_C.:E05TOU  is referenced.
   B_ERRORS_C.:E05TOU  is referenced.
   CP_6.:E05TOU  cannot be made into a system file and is referenced.
   B$JIT_C.:E05TOU  was found in the system file and is never referenced.
   CP_6_C.:E05TOU  was found in the system file and is referenced.
      No diagnostics issued in procedure DFQ$READ_FD.

   Procedure DFQ$READ_FD requires 97 words for executable code.
   Procedure DFQ$READ_FD requires 32 words of local(AUTO) storage.
PL6.E3A0      #001=DFQ$READ_FD File=DFQ$READ.:E05TSI                             TUE 07/29/97 14:40 Page:14
          *** CROSS REFERENCE LISTING ***
**     DENOTES     IDENTIFIER DEFINITION
<<                 IDENTIFIER'S VALUE SET
>>                 IDENTIFIER'S VALUE USED
<>                 IDENTIFIER SET AND/OR USED
--                 IDENTIFIER REFERENCED
PL6.E3A0      #001=DFQ$READ_FD File=DFQ$READ.:E05TSI                             TUE 07/29/97 14:40 Page:15
          MINI XREF LISTING

ARET
      6018**LABEL    6011--GOTO     6014--CALLALT
B$ALT.CODE
      1362**DCL      1362--REDEF    1363--REDEF    1363--REDEF
B$ALT.ERR.ERR#
      1364**DCL      1364--REDEF    6010>>IF
B$ALT.EVID
      1363**DCL      1363--REDEF    1363--REDEF
B$TCB.ALT$
      1358**DCL      6010>>IF
B$TCB$
      1356**DCL      6010>>IF
CONTEXT$
        11**DCL         9--PROC     5996>>ASSIGN   6001>>IF       6004>>ASSIGN   6010>>IF       6014<>CALL
      6017>>IF       6018>>ASSIGN   6019<>CALL
DDR$PACK
      5991**DCL-ENT  6019--CALL
DFQ$WRITE_FD
      5992**DCL-ENT  6014--CALL
FPRG$CONTEXT.DCBNO
      5464**DCL      5996>>ASSIGN
FPRG$CONTEXT.READ_FD
      5450**DCL      6018<<ASSIGN
FPRG$CONTEXT.RES
      5467**DCL      6004>>ASSIGN
FPRG$CONTEXT.XDELTA
      5460**DCL      6001>>IF       6010>>IF       6017>>IF
FPT_READ
      1240**DCL      5994>>ASSIGN
FPT_READ.STATION_
      1243**DCL      1244--REDEF
FPT_READ.V
PL6.E3A0      #001=DFQ$READ_FD File=DFQ$READ.:E05TSI                             TUE 07/29/97 14:40 Page:16
      1244**DCL      1240--DCLINIT
FPT_READ.V.DVBYTE.REREAD#
      1255**DCL      1255--REDEF
FPT_READ.V.INDX#
      1253**DCL      1253--REDEF
FPT_READFED
      1280**DCL      5994<<ASSIGN   6009<>CALL
FPT_READFED.BUF_
      1282**DCL      6000<<ASSIGN   6006<<ASSIGN
FPT_READFED.STATION_
      1283**DCL      1284--REDEF    6005<<ASSIGN
FPT_READFED.V
      1284**DCL      5995--ASSIGN
FPT_READFED.V.DCB#
      1284**DCL      5996<<ASSIGN
FPT_READFED.V.DVBYTE.NODAT#
      1296**DCL      5998<<ASSIGN
FPT_READFED.V.DVBYTE.REREAD#
      1295**DCL      1295--REDEF
FPT_READFED.V.DVBYTE.TRANS#
      1296**DCL      5999<<ASSIGN
FPT_READFED.V.INDX#
      1293**DCL      1293--REDEF
FPT_READFED.V_
      1280**DCL      5995<<ASSIGN
GD$MSG
      5851**DCL      6012<<ASSIGN
GD$MSG.BRKRQS.IF$CONST.SIZE
      5902**DCL      5902--REDEF
GD$MSG.BRKRQS.IF$CONST.TEXT
      5902**DCL      5903--REDEF    5903--REDEF    5904--REDEF    5905--REDEF
GD$MSG.BRKRSP.BRK#
      5916**DCL      5916--REDEF
GD$MSG.BRKRSP.USER#
      5916**DCL      5916--REDEF
GD$MSG.FNC
PL6.E3A0      #001=DFQ$READ_FD File=DFQ$READ.:E05TSI                             TUE 07/29/97 14:40 Page:17
      5851**DCL      6013<<ASSIGN
GD$MSG.LETMEM_D.VALUE.SIZE
      5874**DCL      5874--REDEF
GD$MSG.LETMEM_D.VALUE.TEXT
      5875**DCL      5875--REDEF    5875--REDEF    5876--REDEF    5877--REDEF
GD$MSG.MESSAGE
      5856**DCL      5856--REDEF    5857--REDEF    5857--REDEF    5858--REDEF    5869--REDEF    5882--REDEF
      5887--REDEF    5894--REDEF    5910--REDEF    5915--REDEF    5921--REDEF    5922--REDEF    5951--REDEF
      5953--REDEF    5964--REDEF    5971--REDEF    5983--REDEF
GD$MSG.SUBFNC
      5851**DCL      5851--REDEF    5855--REDEF
GD$MSG.TSA.I
      5923**DCL      5923--REDEF
GD$MSG.TSA.S
      5925**DCL      5925--REDEF
GD$MSG.USERQS.ASDT$
      5951**DCL      5951--REDEF    5952--REDEF
M$READ
        24**DCL-ENT  6009--CALL
NODAT
        12**DCL         9--PROC     5997>>IF
READ_IT
      6009**LABEL    6015--GOTO     6017--GOTO
S_D.CURRENT_CHANNEL
      3740**DCL      3742--REDEF
S_D.DEBUGA
      2892**DCL      2894--REDEF
S_D.EIS
      3850**DCL      3879--REDEF
S_D.HOST_MESSAGE_BUF.C
      3800**DCL      6000--ASSIGN   6019--CALL
S_D.HOST_MESSAGE_BUF_REMOTE
      3783**DCL      3784--REDEF    3798--REDEF
S_D.JDE
      3397**DCL      3398--REDEF
S_D.L$.VALUE
PL6.E3A0      #001=DFQ$READ_FD File=DFQ$READ.:E05TSI                             TUE 07/29/97 14:40 Page:18
      2950**DCL      2956--REDEF    2964--REDEF    2967--REDEF    2970--REDEF    2973--REDEF
S_D.L$.VALUE.L
      2951**DCL      2952--REDEF    2953--REDEF
S_D.L6_MESSAGE_BUF
      3804**DCL      3806--REDEF
S_D.OUTPUT
      3770**DCL      3772--REDEF
S_D.REMOTE_MSG
      3784**DCL      6006--ASSIGN
S_D.REMOTE_MSG.FNCC
      3789**DCL      3790--REDEF
S_D.REMOTE_MSG.STXC
      3785**DCL      3786--REDEF    6017>>IF
S_D.REMOTE_MSG.SUBFNCC
      3793**DCL      3794--REDEF
S_D.SV
      2849**DCL      2870--REDEF
S_D$
      4101**DCL      2797--IMP-PTR  6000>>ASSIGN   6006>>ASSIGN   6017>>IF
S_D_HOST_MESSAGE$
      4137**DCL      6019<>CALL
S_D_L6_MESSAGE$
      4138**DCL      5851--IMP-PTR  6012>>ASSIGN   6013>>ASSIGN   6019<>CALL
VLPSTATION
      1341**DCL      6003<<ASSIGN   6005--ASSIGN
VLPSTATION.MSGIDXT
      1351**DCL      1354--REDEF
VLPSTATION.STATION#
      1345**DCL      6004<<ASSIGN
VLP_STATION
      1314**DCL      6003>>ASSIGN
VLP_STATION.MSGIDXT
      1324**DCL      1327--REDEF
PL6.E3A0      #001=DFQ$READ_FD File=DFQ$READ.:E05TSI                             TUE 07/29/97 14:40 Page:19
              *** CROSS REFERENCE LISTING ***
    **     DENOTES     IDENTIFIER DEFINITION
    <<                 IDENTIFIER'S VALUE SET
    >>                 IDENTIFIER'S VALUE USED
    <>                 IDENTIFIER SET AND/OR USED
    --                 IDENTIFIER REFERENCED
PL6.E3A0      #001=DFQ$READ_FD File=DFQ$READ.:E05TSI                             TUE 07/29/97 14:40 Page:20
              MINI UREF LISTING

DFQ$READ_FD       9**PROC
M$ACCT      40**DCL-ENT
M$ACTIVATE      43**DCL-ENT
M$ALIB      36**DCL-ENT
M$ASUSER      38**DCL-ENT
M$ATTACH      45**DCL-ENT
M$BADPP      63**DCL-ENT
M$CGCTL      44**DCL-ENT
M$CGINFO      44**DCL-ENT
M$CHECK      25**DCL-ENT
M$CHGUNIT      83**DCL-ENT
M$CLOSE      23**DCL-ENT
M$CLRSTK      81**DCL-ENT
M$CMDVAR      92**DCL-ENT
M$CONFIG      53**DCL-ENT
M$CORRES      28**DCL-ENT
M$CPEXIT      37**DCL-ENT
M$CVM      61**DCL-ENT
M$CVOL      26**DCL-ENT
M$DCLFLD      53**DCL-ENT
M$DEACTIVATE      43**DCL-ENT
M$DELREC      25**DCL-ENT
M$DEQ      90**DCL-ENT
M$DETACH      45**DCL-ENT
M$DEVICE      27**DCL-ENT
M$DISPLAY      90**DCL-ENT
M$DISPRES      30**DCL-ENT
M$DLIB      36**DCL-ENT
M$DRIBBLE      53**DCL-ENT
M$DRTN      81**DCL-ENT
M$DSUSER      38**DCL-ENT
M$ENQ      89**DCL-ENT
PL6.E3A0      #001=DFQ$READ_FD File=DFQ$READ.:E05TSI                             TUE 07/29/97 14:40 Page:21
M$EOM      48**DCL-ENT
M$ERASE      54**DCL-ENT
M$ERR      35**DCL-ENT
M$ERRMSG      86**DCL-ENT
M$EVENT      78**DCL-ENT
M$EXHUME      87**DCL-ENT
M$EXIT      35**DCL-ENT
M$EXTEND      27**DCL-ENT
M$FDP      59**DCL-ENT
M$FDS      58**DCL-ENT
M$FEBOOT      51**DCL-ENT
M$FECTL      52**DCL-ENT
M$FEDUMP      51**DCL-ENT
M$FID      86**DCL-ENT
M$FINDPROC      40**DCL-ENT
M$FSUSER      38**DCL-ENT
M$FVP      60**DCL-ENT
M$FWCG      44**DCL-ENT
M$GBPL      64**DCL-ENT
M$GDDL      60**DCL-ENT
M$GDP      59**DCL-ENT
M$GDS      58**DCL-ENT
M$GETDCB      29**DCL-ENT
M$GETMOUSE      69**DCL-ENT
M$GETPM      70**DCL-ENT
M$GJOB      88**DCL-ENT
M$GLINEATTR      48**DCL-ENT
M$GOODPP      63**DCL-ENT
M$GPLATEN      56**DCL-ENT
M$GPROMPT      55**DCL-ENT
M$GTRMATTR      49**DCL-ENT
M$GTRMCTL      47**DCL-ENT
M$GTRMTAB      50**DCL-ENT
M$GVP      59**DCL-ENT
M$HELP      86**DCL-ENT
M$INT      78**DCL-ENT
PL6.E3A0      #001=DFQ$READ_FD File=DFQ$READ.:E05TSI                             TUE 07/29/97 14:40 Page:22
M$INTRTN      39**DCL-ENT
M$IOQ      74**DCL-ENT
M$JOBSTATS      88**DCL-ENT
M$KEYIN      28**DCL-ENT
M$LDEV      23**DCL-ENT
M$LDTRC      36**DCL-ENT
M$LIMIT      29**DCL-ENT
M$LINES      28**DCL-ENT
M$LINK      35**DCL-ENT
M$MADMUCK      31**DCL-ENT
M$MAKUSER      62**DCL-ENT
M$MBS      30**DCL-ENT
M$MDFFLD      54**DCL-ENT
M$MERC      79**DCL-ENT
M$MERCS      80**DCL-ENT
M$MIRROR      74**DCL-ENT
M$MONINFO      91**DCL-ENT
M$MPL      64**DCL-ENT
M$NODEINFO      55**DCL-ENT
M$NXTUSR      89**DCL-ENT
M$OCMSG      87**DCL-ENT
M$OLAY      35**DCL-ENT
M$OPEN      23**DCL-ENT
M$PAS      64**DCL-ENT
M$PATHCON      87**DCL-ENT
M$PDS      58**DCL-ENT
M$PFIL      25**DCL-ENT
M$PLATEN      49**DCL-ENT
M$PRECORD      27**DCL-ENT
M$PROCNAME      40**DCL-ENT
M$PROFILE      51**DCL-ENT
M$PROMPT      47**DCL-ENT
M$RACST      31**DCL-ENT
M$RDSYSLOG      72**DCL-ENT
M$RELDCB      29**DCL-ENT
M$RELRES      30**DCL-ENT
PL6.E3A0      #001=DFQ$READ_FD File=DFQ$READ.:E05TSI                             TUE 07/29/97 14:40 Page:23
M$RELSTARF      32**DCL-ENT
M$REM      32**DCL-ENT
M$RENV      79**DCL-ENT
M$REQUIRE      31**DCL-ENT
M$RETRY      80**DCL-ENT
M$RETRYS      80**DCL-ENT
M$REW      26**DCL-ENT
M$RLSFLD      54**DCL-ENT
M$RPRIV      82**DCL-ENT
M$RSPP      61**DCL-ENT
M$RSWITCH      83**DCL-ENT
M$RUE      89**DCL-ENT
M$SAD      62**DCL-ENT
M$SAVE      38**DCL-ENT
M$SCON      39**DCL-ENT
M$SCREECH      37**DCL-ENT
M$SENV      79**DCL-ENT
M$SETFMA      23**DCL-ENT
M$SETFP      52**DCL-ENT
M$SINPUT      50**DCL-ENT
M$SLCFLD      55**DCL-ENT
M$SMOUSE      69**DCL-ENT
M$SMPRT      61**DCL-ENT
M$SPRIV      82**DCL-ENT
M$SSC      62**DCL-ENT
M$SSWITCH      82**DCL-ENT
M$STATE      91**DCL-ENT
M$STD      63**DCL-ENT
M$STIMER      77**DCL-ENT
M$STLPP      60**DCL-ENT
M$STRAP      77**DCL-ENT
M$STRMATTR      49**DCL-ENT
M$STRMCTL      47**DCL-ENT
M$STRMTAB      50**DCL-ENT
M$SYMBIO      88**DCL-ENT
M$SYSCON      74**DCL-ENT
PL6.E3A0      #001=DFQ$READ_FD File=DFQ$READ.:E05TSI                             TUE 07/29/97 14:40 Page:24
M$SYSID      92**DCL-ENT
M$TDCLOSE      73**DCL-ENT
M$TDIO      73**DCL-ENT
M$TDOPEN      72**DCL-ENT
M$TDREQCPU      73**DCL-ENT
M$TEMPWROC      67**DCL-ENT
M$TIME      90**DCL-ENT
M$TRAP      77**DCL-ENT
M$TRMISC      52**DCL-ENT
M$TRMPRG      48**DCL-ENT
M$TRTN      81**DCL-ENT
M$TRUNC      24**DCL-ENT
M$TTIMER      77**DCL-ENT
M$UC      47**DCL
M$UMPL      64**DCL-ENT
M$UNFID      86**DCL-ENT
M$UNLATCH      43**DCL-ENT
M$UNSHARE      40**DCL-ENT
M$USRFIELD      83**DCL-ENT
M$VIRTUAL      58**DCL-ENT
M$WAIT      81**DCL-ENT
M$WEOF      26**DCL-ENT
M$WRITE      24**DCL-ENT
M$WRSYSLOG      72**DCL-ENT
M$XCON      78**DCL-ENT
M$XCONRTN      39**DCL-ENT
M$XEQTIME      91**DCL-ENT
M$XFLUSH      32**DCL-ENT
M$XMOUSE      69**DCL-ENT
M$XXX      35**DCL-ENT
M$YC      37**DCL-ENT
S_D_ACCESS$    4116**DCL
S_D_ANLZ$    4118**DCL
S_D_ASTACKOFF$    4117**DCL
S_D_BREAK$    4119**DCL
S_D_DO_SCAN$    4120**DCL
PL6.E3A0      #001=DFQ$READ_FD File=DFQ$READ.:E05TSI                             TUE 07/29/97 14:40 Page:25
S_D_ERROR$    4121**DCL
S_D_FAULTCMD$$    4122**DCL
S_D_FAULTINS$$    4123**DCL
S_D_GOIC$    4124**DCL
S_D_GO_MODE$    4125**DCL
S_D_HW_PTB_UNITS$    4141**DCL
S_D_HW_RES_MEM$    4139**DCL
S_D_HW_WSQ0PT$    4140**DCL
S_D_IPRFLT$    4127**DCL
S_D_IXFIX$    4126**DCL
S_D_REM_ACCESS$    4128**DCL
S_D_REM_DISKBOOT$    4130**DCL
S_D_REM_DO_SCAN$    4129**DCL
S_D_RETURNN$    4131**DCL
S_D_SAD$    4132**DCL
S_D_SAVEIC$    4133**DCL
S_D_SEG$    4115**DCL
S_D_TCB$$    4134**DCL
S_D_UREG$$    4135**DCL
S_D_USS$$    4136**DCL

PL6.E3A0      #002=DFQ$WRITE_FD File=DFQ$READ.:E05TSI                            TUE 07/29/97 14:41 Page:26
       71        1        /*T***********************************************************/
       72        2        /*T*                                                         */
       73        3        /*T* Copyright (c) Bull HN Information Systems Inc., 1997    */
       74        4        /*T*                                                         */
       75        5        /*T***********************************************************/
       76        6        DFQ$WRITE_FD: PROC (CONTEXT$) ALTRET;
       77        7
       78        8    1   DCL CONTEXT$ PTR;
       79        9        /**/
       80       10        %INCLUDE CP_6;
       81       91        %FPT_WRITE(FPTN=FPT_WRITE,
       82       92                   RRR=YES,
       83       93                  STCLASS=CONSTANT);
       84      124        %FPT_WRITE(FPTN=FPT_WRITEFED,
       85      125                  STCLASS=);
       86      156        %VLP_STATION(FPTN=VLP_STATION,STCLASS=CONSTANT);
       87      183        %VLP_STATION(FPTN=VLPSTATION,STCLASS=AUTO);
       88      210    1   DCL SIZE UBIN;
       89      211    1   DCL MSG_SIZE (0:32) UBIN CONSTANT SYMDEF ALIGNED INIT(414,414,414,31,31,15,15,15,15,
               211            15,15,
       90      212    1           55,55,15,414,414,167,90,15,15,15,15,15,15,15,15,27,414,414,15,15,15,414);
       91      213        %INCLUDE XUH_MACRO_C;
       92      297        %INCLUDE DD_SD_M;
       93     1633        %S_D;
       94     2951        %S_D_PTRS;
       95     2988        %INCLUDE DD$BASED;
       96     4291        %FPRG$CONTEXT;
       97     4354        %INCLUDE GD$MSG_M;
       98     4518        %GD$MSG(FPTN=GD$MSG,STCLASS="BASED(S_D_L6_MESSAGE$)",L6=YES,L6PTR="UBIN(32) UNAL");
       99     4674        /**/
      100     4675    1   DCL DDR$UNPACK ENTRY(4);
      101     4676
      102     4677    1        IF CONTEXT$ -> FPRG$CONTEXT.INTERPRETIVE
      103     4678    1        THEN GD$MSG.SUBFB.INTERPRETIVE = '1'B;
      104     4679    1        CALL DDR$UNPACK(LENGTHC(S_D.L6_MESSAGE_BUF), S_D_L6_MESSAGE$, S_D_HOST_MESSAGE$
              4679                 , CONTEXT$);
      105     4680    1        FPT_WRITEFED = FPT_WRITE;
PL6.E3A0      #002=DFQ$WRITE_FD File=DFQ$READ.:E05TSI                            TUE 07/29/97 14:41 Page:27
      106     4681    1        FPT_WRITEFED.V_ = VECTOR(FPT_WRITEFED.V);
      107     4682    1        FPT_WRITEFED.V.DCB# = CONTEXT$ -> FPRG$CONTEXT.DCBNO;
      108     4683    1        FPT_WRITEFED.V.DVBYTE.TRANS# = '1'B;
      109     4684    1        FPT_WRITEFED.BUF_ = VECTOR( S_D.HOST_MESSAGE_BUF.C);
      110     4685    1        IF CONTEXT$ -> FPRG$CONTEXT.XDELTA
      111     4686    2        THEN DO;
      112     4687    2             VLPSTATION = VLP_STATION;
      113     4688    2             VLPSTATION.STATION# = CONTEXT$ -> FPRG$CONTEXT.RES;
      114     4689    2             FPT_WRITEFED.STATION_ = VECTOR( VLPSTATION );
      115     4690    2             FPT_WRITEFED.BUF_ = VECTOR( S_D.REMOTE_MSG );
      116     4691    2           END;
      117     4692    1        IF GD$MSG.FNC > 32
      118     4693    1        THEN SIZE = 411;
      119     4694    1        ELSE SIZE = MSG_SIZE(GD$MSG.FNC);
      120     4695    1        FPT_WRITEFED.BUF_.BOUND = SIZE;
      121     4696    1        CALL M$WRITE (FPT_WRITEFED) ALTRET(ARET);
      122     4697    1        RETURN;
      123     4698
      124     4699    1   ARET: ;
      125     4700    1        ALTRETURN;
      126     4701
      127     4702    1   END DFQ$WRITE_FD;

PL6.E3A0      #002=DFQ$WRITE_FD File=DFQ$READ.:E05TSI                            TUE 07/29/97 14:41 Page:28
--  Include file information  --

   GD$MSG_M.:E05TOU  is referenced.
   DD$BASED.:E05TOU  is referenced.
   DD_SD_M.:E05TOU  is referenced.
   XUH_MACRO_C.:E05TOU  is referenced.
   CP_6.:E05TOU  cannot be made into a system file and is referenced.
   B$JIT_C.:E05TOU  was found in the system file and is never referenced.
   CP_6_C.:E05TOU  was found in the system file and is referenced.
      No diagnostics issued in procedure DFQ$WRITE_FD.

   Procedure DFQ$WRITE_FD requires 80 words for executable code.
   Procedure DFQ$WRITE_FD requires 30 words of local(AUTO) storage.

    No errors detected in file DFQ$READ.:E05TSI    .

PL6.E3A0      #002=DFQ$WRITE_FD File=DFQ$READ.:E05TSI                            TUE 07/29/97 14:41 Page:29

 Object Unit name= DFQ$WRITE_FD                               File name= DFQ$READ.:E05TOU
 UTS= JUL 29 '97 14:41:02.84 TUE                              Compiler= PL-6/E31         Sev=      00
 SharedLib= :SHARED_SYSTEM                                    Alt SharedLib=


    ****  Control sections  ****

 Sect   Type Bound  Init  Size OctSiz  Section name(segment info)
    0   DCB   even  none     0      0  M$UC
    1  RoData even  UTS     53     65  DFQ$WRITE_FD
    2   Proc  even  none    80    120  DFQ$WRITE_FD
    3  RoData even  none     8     10  DFQ$WRITE_FD

    ****  Entry defs  ****

                              Check   Calling
                             calling  sequence
  Sect OctLoc Primary Altret sequence   type   Parms  Name
     2      0   yes    yes     yes      Std        1  DFQ$WRITE_FD

  ****  Data defs  ****

 Sect OctLoc  Name                           Sect OctLoc  Name
    1     24  MSG_SIZE

  ****  Entry refs  ****

         Check        Calling
        calling       sequence
Altret sequence SRef   type   Args  Name
         yes           Std       4 DDR$UNPACK
                       nStd      0 X66_AUTO_1
                       Std       0 B_CONSPOOL_D
                       nStd      0 X66_ARET
                       nStd      0 X66_AALT
PL6.E3A0      #002=DFQ$WRITE_FD File=DFQ$READ.:E05TSI                            TUE 07/29/97 14:41 Page:30

  ****  Data refs  ****

  Flags:  r = read only, s = secondary
Flgs Name                             Flgs Name                             Flgs Name
     M$UC                             r    S_D$                             r    S_D_HOST_MESSAGE$
r    S_D_L6_MESSAGE$                       B_VECTNIL

  ****  Segment refs  ****

  Flags:  r = read only, s = secondary
Flgs Name                             Flgs Name                             Flgs Name
     ISSID                                 NULLSID
PL6.E3A0      #002=DFQ$WRITE_FD File=DFQ$READ.:E05TSI                            TUE 07/29/97 14:41 Page:31


       71        1        /*T***********************************************************/
       72        2        /*T*                                                         */
       73        3        /*T* Copyright (c) Bull HN Information Systems Inc., 1997    */
       74        4        /*T*                                                         */
       75        5        /*T***********************************************************/
       76        6        DFQ$WRITE_FD: PROC (CONTEXT$) ALTRET;

      6  2 000000   000000 700200 xent  DFQ$WRITE_FD TSX0  ! X66_AUTO_1
         2 000001   000036 000001                    ZERO    30,1

       77        7
       78        8    1   DCL CONTEXT$ PTR;
       79        9        /**/
       80       10        %INCLUDE CP_6;
       81       91        %FPT_WRITE(FPTN=FPT_WRITE,
       82       92                   RRR=YES,
       83       93                  STCLASS=CONSTANT);
       84      124        %FPT_WRITE(FPTN=FPT_WRITEFED,
       85      125                  STCLASS=);
       86      156        %VLP_STATION(FPTN=VLP_STATION,STCLASS=CONSTANT);
       87      183        %VLP_STATION(FPTN=VLPSTATION,STCLASS=AUTO);
       88      210    1   DCL SIZE UBIN;
       89      211    1  DCL MSG_SIZE (0:32) UBIN CONSTANT SYMDEF ALIGNED INIT(414,414,414,31,31,15,15,15,15,
               211            15,15,
       90      212    1           55,55,15,414,414,167,90,15,15,15,15,15,15,15,15,27,414,414,15,15,15,414);
       91      213        %INCLUDE XUH_MACRO_C;
       92      297        %INCLUDE DD_SD_M;
       93     1633        %S_D;
       94     2951        %S_D_PTRS;
       95     2988        %INCLUDE DD$BASED;
       96     4291        %FPRG$CONTEXT;
       97     4354        %INCLUDE GD$MSG_M;
       98     4518        %GD$MSG(FPTN=GD$MSG,STCLASS="BASED(S_D_L6_MESSAGE$)",L6=YES,L6PTR="UBIN(32) UNAL");
       99     4674        /**/
      100     4675    1   DCL DDR$UNPACK ENTRY(4);
      101     4676
PL6.E3A0      #002=DFQ$WRITE_FD File=DFQ$READ.:E05TSI                            TUE 07/29/97 14:41 Page:32
      102     4677    1        IF CONTEXT$ -> FPRG$CONTEXT.INTERPRETIVE

   4677  2 000002   200003 470500                    LDP0    @CONTEXT$,,AUTO
         2 000003   000000 471500                    LDP1    0,,PR0
         2 000004   100001 236100                    LDQ     1,,PR1
         2 000005   200000 316003                    CANQ    65536,DU
         2 000006   000012 600000 2                  TZE     s:4679

      103     4678    1        THEN GD$MSG.SUBFB.INTERPRETIVE = '1'B;

   4678  2 000007   000000 473400 xsym               LDP3    S_D_L6_MESSAGE$
         2 000010   000020 236003                    LDQ     16,DU
         2 000011   300000 256100                    ORSQ    0,,PR3

      104     4679    1       CALL DDR$UNPACK(LENGTHC(S_D.L6_MESSAGE_BUF), S_D_L6_MESSAGE$, S_D_HOST_MESSAGE$
              4679                 , CONTEXT$);

   4679  2 000012   200003 236100                    LDQ     @CONTEXT$,,AUTO
         2 000013   000001 235000 3                  LDA     1
         2 000014   200034 757100                    STAQ    SIZE+4,,AUTO
         2 000015   000002 237000 3                  LDAQ    2
         2 000016   200032 757100                    STAQ    SIZE+2,,AUTO
         2 000017   200032 630500                    EPPR0   SIZE+2,,AUTO
         2 000020   000022 631400 xsym               EPPR1   B_VECTNIL+18
         2 000021   000000 701000 xent               TSX1    DDR$UNPACK
         2 000022   000000 011000                    NOP     0

      105     4680    1        FPT_WRITEFED = FPT_WRITE;

   4680  2 000023   000100 100400                    MLR     fill='000'O
         2 000024   000000 000060 1                  ADSC9   FPT_WRITE                cn=0,n=48
         2 000025   200004 000060                    ADSC9   FPT_WRITEFED,,AUTO       cn=0,n=48

      106     4681    1        FPT_WRITEFED.V_ = VECTOR(FPT_WRITEFED.V);

   4681  2 000026   000004 235000 3                  LDA     4
         2 000027   200032 452500                    STP2    SIZE+2,,AUTO
PL6.E3A0      #002=DFQ$WRITE_FD File=DFQ$READ.:E05TSI                            TUE 07/29/97 14:41 Page:33
         2 000030   200032 236100                    LDQ     SIZE+2,,AUTO
         2 000031   000014 036003                    ADLQ    12,DU
         2 000032   200004 757100                    STAQ    FPT_WRITEFED,,AUTO

      107     4682    1        FPT_WRITEFED.V.DCB# = CONTEXT$ -> FPRG$CONTEXT.DCBNO;

   4682  2 000033   200003 470500                    LDP0    @CONTEXT$,,AUTO
         2 000034   000000 471500                    LDP1    0,,PR0
         2 000035   100001 720100                    LXL0    1,,PR1
         2 000036   200014 740100                    STX0    FPT_WRITEFED+8,,AUTO

      108     4683    1        FPT_WRITEFED.V.DVBYTE.TRANS# = '1'B;

   4683  2 000037   020000 236003                    LDQ     8192,DU
         2 000040   200017 256100                    ORSQ    FPT_WRITEFED+11,,AUTO

      109     4684    1        FPT_WRITEFED.BUF_ = VECTOR( S_D.HOST_MESSAGE_BUF.C);

   4684  2 000041   000005 235000 3                  LDA     5
         2 000042   000000 236000 xsym               LDQ     S_D$
         2 000043   006435 036003                    ADLQ    3357,DU
         2 000044   200010 757100                    STAQ    FPT_WRITEFED+4,,AUTO

      110     4685    1        IF CONTEXT$ -> FPRG$CONTEXT.XDELTA

   4685  2 000045   000000 471500                    LDP1    0,,PR0
         2 000046   100001 236100                    LDQ     1,,PR1
         2 000047   002000 316003                    CANQ    1024,DU
         2 000050   000071 600000 2                  TZE     s:4692

      111     4686    2        THEN DO;

      112     4687    2             VLPSTATION = VLP_STATION;

   4687  2 000051   000100 100400                    MLR     fill='000'O
         2 000052   000014 000040 1                  ADSC9   VLP_STATION              cn=0,n=32
         2 000053   200020 000040                    ADSC9   VLPSTATION,,AUTO         cn=0,n=32
PL6.E3A0      #002=DFQ$WRITE_FD File=DFQ$READ.:E05TSI                            TUE 07/29/97 14:41 Page:34

      113     4688    2             VLPSTATION.STATION# = CONTEXT$ -> FPRG$CONTEXT.RES;

   4688  2 000054   000000 471500                    LDP1    0,,PR0
         2 000055   040100 100500                    MLR     fill='040'O
         2 000056   100002 000010                    ADSC9   2,,PR1                   cn=0,n=8
         2 000057   200020 000010                    ADSC9   VLPSTATION,,AUTO         cn=0,n=8

      114     4689    2             FPT_WRITEFED.STATION_ = VECTOR( VLPSTATION );

   4689  2 000060   000006 235000 3                  LDA     6
         2 000061   200032 452500                    STP2    SIZE+2,,AUTO
         2 000062   200032 236100                    LDQ     SIZE+2,,AUTO
         2 000063   000020 036003                    ADLQ    16,DU
         2 000064   200012 757100                    STAQ    FPT_WRITEFED+6,,AUTO

      115     4690    2             FPT_WRITEFED.BUF_ = VECTOR( S_D.REMOTE_MSG );

   4690  2 000065   000007 235000 3                  LDA     7
         2 000066   000000 236000 xsym               LDQ     S_D$
         2 000067   006435 036003                    ADLQ    3357,DU
         2 000070   200010 757100                    STAQ    FPT_WRITEFED+4,,AUTO

      116     4691    2           END;

      117     4692    1        IF GD$MSG.FNC > 32

   4692  2 000071   000000 471400 xsym               LDP1    S_D_L6_MESSAGE$
         2 000072   100000 236100                    LDQ     0,,PR1
         2 000073   776000 376003                    ANQ     -1024,DU
         2 000074   102000 116003                    CMPQ    33792,DU
         2 000075   000101 602000 2                  TNC     s:4694

      118     4693    1        THEN SIZE = 411;

   4693  2 000076   000633 235007                    LDA     411,DL
         2 000077   200030 755100                    STA     SIZE,,AUTO
PL6.E3A0      #002=DFQ$WRITE_FD File=DFQ$READ.:E05TSI                            TUE 07/29/97 14:41 Page:35
         2 000100   000105 710000 2                  TRA     s:4695

      119     4694    1        ELSE SIZE = MSG_SIZE(GD$MSG.FNC);

   4694  2 000101   100000 236100                    LDQ     0,,PR1
         2 000102   000034 772000                    QRL     28
         2 000103   000024 235006 1                  LDA     MSG_SIZE,QL
         2 000104   200030 755100                    STA     SIZE,,AUTO

      120     4695    1        FPT_WRITEFED.BUF_.BOUND = SIZE;

   4695  2 000105   200030 236100                    LDQ     SIZE,,AUTO
         2 000106   000020 736000                    QLS     16
         2 000107   200010 676100                    ERQ     FPT_WRITEFED+4,,AUTO
         2 000110   000034 376000 xsym               ANQ     B_VECTNIL+28
         2 000111   200010 656100                    ERSQ    FPT_WRITEFED+4,,AUTO

      121     4696    1        CALL M$WRITE (FPT_WRITEFED) ALTRET(ARET);

   4696  2 000112   200004 630500                    EPPR0   FPT_WRITEFED,,AUTO
         2 000113   440001 713400                    CLIMB   alt,write
         2 000114   401400 401760                    pmme    nvectors=4
         2 000115   000117 702000 2                  TSX2    ARET

      122     4697    1        RETURN;

   4697  2 000116   000000 702200 xent               TSX2  ! X66_ARET

   4695  2 000117                       ARET         null
      123     4698
      124     4699    1   ARET: ;
      125     4700    1        ALTRETURN;

   4700  2 000117   000000 702200 xent               TSX2  ! X66_AALT

FPT_WRITE
 Sect OctLoc
PL6.E3A0      #002=DFQ$WRITE_FD File=DFQ$READ.:E05TSI                            TUE 07/29/97 14:41 Page:36
   1     000   000003 777640   000010 006000   000000 177640   000000 006014    ................
   1     004   000000 177640   000000 006014   000000 177640   000000 006014    ................
   1     010   000000 400400   000000 000000   000000 000000   010000 000000    ................

VLP_STATION
 Sect OctLoc
   1     014   040040 040040   040040 040040   040040 040040   040040 040040
   1     020   001000 000000   000000 000000   000000 000000   000000 000000    ................

MSG_SIZE
 Sect OctLoc
   1     024   000000 000636   000000 000636   000000 000636   000000 000037    ................
   1     030   000000 000037   000000 000017   000000 000017   000000 000017    ................
   1     034   000000 000017   000000 000017   000000 000017   000000 000067    ...............7
   1     040   000000 000067   000000 000017   000000 000636   000000 000636    ...7............
   1     044   000000 000247   000000 000132   000000 000017   000000 000017    .......Z........
   1     050   000000 000017   000000 000017   000000 000017   000000 000017    ................
   1     054   000000 000017   000000 000017   000000 000033   000000 000636    ................
   1     060   000000 000636   000000 000017   000000 000017   000000 000017    ................
   1     064   000000 000636                                                    ....

(unnamed)
 Sect OctLoc
   3     000   000000 000430   000000 006000   000000 006000   000000 006000    ................
   3     004   000003 777640   000116 377640   000007 777640   000147 577640    .....N.......g..
      126     4701
      127     4702    1   END DFQ$WRITE_FD;

PL6.E3A0      #002=DFQ$WRITE_FD File=DFQ$READ.:E05TSI                            TUE 07/29/97 14:41 Page:37
--  Include file information  --

   GD$MSG_M.:E05TOU  is referenced.
   DD$BASED.:E05TOU  is referenced.
   DD_SD_M.:E05TOU  is referenced.
   XUH_MACRO_C.:E05TOU  is referenced.
   CP_6.:E05TOU  cannot be made into a system file and is referenced.
   B$JIT_C.:E05TOU  was found in the system file and is never referenced.
   CP_6_C.:E05TOU  was found in the system file and is referenced.
      No diagnostics issued in procedure DFQ$WRITE_FD.

   Procedure DFQ$WRITE_FD requires 80 words for executable code.
   Procedure DFQ$WRITE_FD requires 30 words of local(AUTO) storage.

    No errors detected in file DFQ$READ.:E05TSI    .
PL6.E3A0      #002=DFQ$WRITE_FD File=DFQ$READ.:E05TSI                            TUE 07/29/97 14:41 Page:38
          *** CROSS REFERENCE LISTING ***
**     DENOTES     IDENTIFIER DEFINITION
<<                 IDENTIFIER'S VALUE SET
>>                 IDENTIFIER'S VALUE USED
<>                 IDENTIFIER SET AND/OR USED
--                 IDENTIFIER REFERENCED
PL6.E3A0      #002=DFQ$WRITE_FD File=DFQ$READ.:E05TSI                            TUE 07/29/97 14:41 Page:39
          MINI XREF LISTING

ARET
      4695**LABEL    4696--CALLALT
CONTEXT$
         8**DCL         6--PROC     4677>>IF       4679<>CALL     4682>>ASSIGN   4685>>IF       4688>>ASSIGN
DDR$UNPACK
      4675**DCL-ENT  4679--CALL
FPRG$CONTEXT.DCBNO
      4309**DCL      4682>>ASSIGN
FPRG$CONTEXT.INTERPRETIVE
      4297**DCL      4677>>IF
FPRG$CONTEXT.RES
      4312**DCL      4688>>ASSIGN
FPRG$CONTEXT.XDELTA
      4305**DCL      4685>>IF
FPT_WRITE
       110**DCL      4680>>ASSIGN
FPT_WRITE.STATION_
       112**DCL       112--REDEF
FPT_WRITE.V
       113**DCL       110--DCLINIT
FPT_WRITE.V.DVBYTE.VFC#
       119**DCL       119--REDEF
FPT_WRITEFED
       142**DCL      4680<<ASSIGN   4696<>CALL
FPT_WRITEFED.BUF_
       142**DCL      4684<<ASSIGN   4690<<ASSIGN
FPT_WRITEFED.BUF_.BOUND
       142**DCL      4695<<ASSIGN
FPT_WRITEFED.STATION_
       144**DCL       144--REDEF    4689<<ASSIGN
FPT_WRITEFED.V
       145**DCL      4681--ASSIGN
PL6.E3A0      #002=DFQ$WRITE_FD File=DFQ$READ.:E05TSI                            TUE 07/29/97 14:41 Page:40
FPT_WRITEFED.V.DCB#
       145**DCL      4682<<ASSIGN
FPT_WRITEFED.V.DVBYTE.TRANS#
       152**DCL      4683<<ASSIGN
FPT_WRITEFED.V.DVBYTE.VFC#
       151**DCL       151--REDEF
FPT_WRITEFED.V_
       142**DCL      4681<<ASSIGN
GD$MSG.BRKRQS.IF$CONST.SIZE
      4586**DCL      4586--REDEF
GD$MSG.BRKRQS.IF$CONST.TEXT
      4586**DCL      4587--REDEF    4587--REDEF    4588--REDEF    4589--REDEF
GD$MSG.BRKRSP.BRK#
      4600**DCL      4600--REDEF
GD$MSG.BRKRSP.USER#
      4600**DCL      4600--REDEF
GD$MSG.FNC
      4535**DCL      4692>>IF       4694>>ASSIGN
GD$MSG.LETMEM_D.VALUE.SIZE
      4558**DCL      4558--REDEF
GD$MSG.LETMEM_D.VALUE.TEXT
      4559**DCL      4559--REDEF    4559--REDEF    4560--REDEF    4561--REDEF
GD$MSG.MESSAGE
      4540**DCL      4540--REDEF    4541--REDEF    4541--REDEF    4542--REDEF    4553--REDEF    4566--REDEF
      4571--REDEF    4578--REDEF    4594--REDEF    4599--REDEF    4605--REDEF    4606--REDEF    4635--REDEF
      4637--REDEF    4648--REDEF    4655--REDEF    4667--REDEF
GD$MSG.SUBFB.INTERPRETIVE
      4539**DCL      4678<<ASSIGN
GD$MSG.SUBFNC
      4535**DCL      4535--REDEF    4539--REDEF
GD$MSG.TSA.I
      4607**DCL      4607--REDEF
GD$MSG.TSA.S
      4609**DCL      4609--REDEF
GD$MSG.USERQS.ASDT$
      4635**DCL      4635--REDEF    4636--REDEF
PL6.E3A0      #002=DFQ$WRITE_FD File=DFQ$READ.:E05TSI                            TUE 07/29/97 14:41 Page:41
M$WRITE
        20**DCL-ENT  4696--CALL
MSG_SIZE
       211**DCL      4694>>ASSIGN
SIZE
       210**DCL      4693<<ASSIGN   4694<<ASSIGN   4695>>ASSIGN
S_D.CURRENT_CHANNEL
      2585**DCL      2587--REDEF
S_D.DEBUGA
      1737**DCL      1739--REDEF
S_D.EIS
      2695**DCL      2724--REDEF
S_D.HOST_MESSAGE_BUF.C
      2645**DCL      4684--ASSIGN
S_D.HOST_MESSAGE_BUF_REMOTE
      2628**DCL      2629--REDEF    2643--REDEF
S_D.JDE
      2242**DCL      2243--REDEF
S_D.L$.VALUE
      1795**DCL      1801--REDEF    1809--REDEF    1812--REDEF    1815--REDEF    1818--REDEF
S_D.L$.VALUE.L
      1796**DCL      1797--REDEF    1798--REDEF
S_D.L6_MESSAGE_BUF
      2649**DCL      2651--REDEF    4679--CALL
S_D.OUTPUT
      2615**DCL      2617--REDEF
S_D.REMOTE_MSG
      2629**DCL      4690--ASSIGN
S_D.REMOTE_MSG.FNCC
      2634**DCL      2635--REDEF
S_D.REMOTE_MSG.STXC
      2630**DCL      2631--REDEF
S_D.REMOTE_MSG.SUBFNCC
      2638**DCL      2639--REDEF
S_D.SV
      1694**DCL      1715--REDEF
PL6.E3A0      #002=DFQ$WRITE_FD File=DFQ$READ.:E05TSI                            TUE 07/29/97 14:41 Page:42
S_D$
      2946**DCL      1642--IMP-PTR  4684>>ASSIGN   4690>>ASSIGN
S_D_HOST_MESSAGE$
      2982**DCL      4679<>CALL
S_D_L6_MESSAGE$
      2983**DCL      4535--IMP-PTR  4678>>ASSIGN   4679<>CALL     4692>>IF       4694>>ASSIGN
VLPSTATION
       195**DCL      4687<<ASSIGN   4689--ASSIGN
VLPSTATION.MSGIDXT
       205**DCL       208--REDEF
VLPSTATION.STATION#
       199**DCL      4688<<ASSIGN
VLP_STATION
       168**DCL      4687>>ASSIGN
VLP_STATION.MSGIDXT
       178**DCL       181--REDEF
PL6.E3A0      #002=DFQ$WRITE_FD File=DFQ$READ.:E05TSI                            TUE 07/29/97 14:41 Page:43
              *** CROSS REFERENCE LISTING ***
    **     DENOTES     IDENTIFIER DEFINITION
    <<                 IDENTIFIER'S VALUE SET
    >>                 IDENTIFIER'S VALUE USED
    <>                 IDENTIFIER SET AND/OR USED
    --                 IDENTIFIER REFERENCED
PL6.E3A0      #002=DFQ$WRITE_FD File=DFQ$READ.:E05TSI                            TUE 07/29/97 14:41 Page:44
              MINI UREF LISTING

DFQ$WRITE_FD       6**PROC
M$ACCT      36**DCL-ENT
M$ACTIVATE      39**DCL-ENT
M$ALIB      32**DCL-ENT
M$ASUSER      34**DCL-ENT
M$ATTACH      41**DCL-ENT
M$BADPP      59**DCL-ENT
M$CGCTL      40**DCL-ENT
M$CGINFO      40**DCL-ENT
M$CHECK      21**DCL-ENT
M$CHGUNIT      79**DCL-ENT
M$CLOSE      19**DCL-ENT
M$CLRSTK      77**DCL-ENT
M$CMDVAR      88**DCL-ENT
M$CONFIG      49**DCL-ENT
M$CORRES      24**DCL-ENT
M$CPEXIT      33**DCL-ENT
M$CVM      57**DCL-ENT
M$CVOL      22**DCL-ENT
M$DCLFLD      49**DCL-ENT
M$DEACTIVATE      39**DCL-ENT
M$DELREC      21**DCL-ENT
M$DEQ      86**DCL-ENT
M$DETACH      41**DCL-ENT
M$DEVICE      23**DCL-ENT
M$DISPLAY      86**DCL-ENT
M$DISPRES      26**DCL-ENT
M$DLIB      32**DCL-ENT
M$DRIBBLE      49**DCL-ENT
M$DRTN      77**DCL-ENT
M$DSUSER      34**DCL-ENT
M$ENQ      85**DCL-ENT
PL6.E3A0      #002=DFQ$WRITE_FD File=DFQ$READ.:E05TSI                            TUE 07/29/97 14:41 Page:45
M$EOM      44**DCL-ENT
M$ERASE      50**DCL-ENT
M$ERR      31**DCL-ENT
M$ERRMSG      82**DCL-ENT
M$EVENT      74**DCL-ENT
M$EXHUME      83**DCL-ENT
M$EXIT      31**DCL-ENT
M$EXTEND      23**DCL-ENT
M$FDP      55**DCL-ENT
M$FDS      54**DCL-ENT
M$FEBOOT      47**DCL-ENT
M$FECTL      48**DCL-ENT
M$FEDUMP      47**DCL-ENT
M$FID      82**DCL-ENT
M$FINDPROC      36**DCL-ENT
M$FSUSER      34**DCL-ENT
M$FVP      56**DCL-ENT
M$FWCG      40**DCL-ENT
M$GBPL      60**DCL-ENT
M$GDDL      56**DCL-ENT
M$GDP      55**DCL-ENT
M$GDS      54**DCL-ENT
M$GETDCB      25**DCL-ENT
M$GETMOUSE      65**DCL-ENT
M$GETPM      66**DCL-ENT
M$GJOB      84**DCL-ENT
M$GLINEATTR      44**DCL-ENT
M$GOODPP      59**DCL-ENT
M$GPLATEN      52**DCL-ENT
M$GPROMPT      51**DCL-ENT
M$GTRMATTR      45**DCL-ENT
M$GTRMCTL      43**DCL-ENT
M$GTRMTAB      46**DCL-ENT
M$GVP      55**DCL-ENT
M$HELP      82**DCL-ENT
M$INT      74**DCL-ENT
PL6.E3A0      #002=DFQ$WRITE_FD File=DFQ$READ.:E05TSI                            TUE 07/29/97 14:41 Page:46
M$INTRTN      35**DCL-ENT
M$IOQ      70**DCL-ENT
M$JOBSTATS      84**DCL-ENT
M$KEYIN      24**DCL-ENT
M$LDEV      19**DCL-ENT
M$LDTRC      32**DCL-ENT
M$LIMIT      25**DCL-ENT
M$LINES      24**DCL-ENT
M$LINK      31**DCL-ENT
M$MADMUCK      27**DCL-ENT
M$MAKUSER      58**DCL-ENT
M$MBS      26**DCL-ENT
M$MDFFLD      50**DCL-ENT
M$MERC      75**DCL-ENT
M$MERCS      76**DCL-ENT
M$MIRROR      70**DCL-ENT
M$MONINFO      87**DCL-ENT
M$MPL      60**DCL-ENT
M$NODEINFO      51**DCL-ENT
M$NXTUSR      85**DCL-ENT
M$OCMSG      83**DCL-ENT
M$OLAY      31**DCL-ENT
M$OPEN      19**DCL-ENT
M$PAS      60**DCL-ENT
M$PATHCON      83**DCL-ENT
M$PDS      54**DCL-ENT
M$PFIL      21**DCL-ENT
M$PLATEN      45**DCL-ENT
M$PRECORD      23**DCL-ENT
M$PROCNAME      36**DCL-ENT
M$PROFILE      47**DCL-ENT
M$PROMPT      43**DCL-ENT
M$RACST      27**DCL-ENT
M$RDSYSLOG      68**DCL-ENT
M$READ      20**DCL-ENT
M$RELDCB      25**DCL-ENT
PL6.E3A0      #002=DFQ$WRITE_FD File=DFQ$READ.:E05TSI                            TUE 07/29/97 14:41 Page:47
M$RELRES      26**DCL-ENT
M$RELSTARF      28**DCL-ENT
M$REM      28**DCL-ENT
M$RENV      75**DCL-ENT
M$REQUIRE      27**DCL-ENT
M$RETRY      76**DCL-ENT
M$RETRYS      76**DCL-ENT
M$REW      22**DCL-ENT
M$RLSFLD      50**DCL-ENT
M$RPRIV      78**DCL-ENT
M$RSPP      57**DCL-ENT
M$RSWITCH      79**DCL-ENT
M$RUE      85**DCL-ENT
M$SAD      58**DCL-ENT
M$SAVE      34**DCL-ENT
M$SCON      35**DCL-ENT
M$SCREECH      33**DCL-ENT
M$SENV      75**DCL-ENT
M$SETFMA      19**DCL-ENT
M$SETFP      48**DCL-ENT
M$SINPUT      46**DCL-ENT
M$SLCFLD      51**DCL-ENT
M$SMOUSE      65**DCL-ENT
M$SMPRT      57**DCL-ENT
M$SPRIV      78**DCL-ENT
M$SSC      58**DCL-ENT
M$SSWITCH      78**DCL-ENT
M$STATE      87**DCL-ENT
M$STD      59**DCL-ENT
M$STIMER      73**DCL-ENT
M$STLPP      56**DCL-ENT
M$STRAP      73**DCL-ENT
M$STRMATTR      45**DCL-ENT
M$STRMCTL      43**DCL-ENT
M$STRMTAB      46**DCL-ENT
M$SYMBIO      84**DCL-ENT
PL6.E3A0      #002=DFQ$WRITE_FD File=DFQ$READ.:E05TSI                            TUE 07/29/97 14:41 Page:48
M$SYSCON      70**DCL-ENT
M$SYSID      88**DCL-ENT
M$TDCLOSE      69**DCL-ENT
M$TDIO      69**DCL-ENT
M$TDOPEN      68**DCL-ENT
M$TDREQCPU      69**DCL-ENT
M$TEMPWROC      63**DCL-ENT
M$TIME      86**DCL-ENT
M$TRAP      73**DCL-ENT
M$TRMISC      48**DCL-ENT
M$TRMPRG      44**DCL-ENT
M$TRTN      77**DCL-ENT
M$TRUNC      20**DCL-ENT
M$TTIMER      73**DCL-ENT
M$UC      43**DCL
M$UMPL      60**DCL-ENT
M$UNFID      82**DCL-ENT
M$UNLATCH      39**DCL-ENT
M$UNSHARE      36**DCL-ENT
M$USRFIELD      79**DCL-ENT
M$VIRTUAL      54**DCL-ENT
M$WAIT      77**DCL-ENT
M$WEOF      22**DCL-ENT
M$WRSYSLOG      68**DCL-ENT
M$XCON      74**DCL-ENT
M$XCONRTN      35**DCL-ENT
M$XEQTIME      87**DCL-ENT
M$XFLUSH      28**DCL-ENT
M$XMOUSE      65**DCL-ENT
M$XXX      31**DCL-ENT
M$YC      33**DCL-ENT
S_D_ACCESS$    2961**DCL
S_D_ANLZ$    2963**DCL
S_D_ASTACKOFF$    2962**DCL
S_D_BREAK$    2964**DCL
S_D_DO_SCAN$    2965**DCL
PL6.E3A0      #002=DFQ$WRITE_FD File=DFQ$READ.:E05TSI                            TUE 07/29/97 14:41 Page:49
S_D_ERROR$    2966**DCL
S_D_FAULTCMD$$    2967**DCL
S_D_FAULTINS$$    2968**DCL
S_D_GOIC$    2969**DCL
S_D_GO_MODE$    2970**DCL
S_D_HW_PTB_UNITS$    2986**DCL
S_D_HW_RES_MEM$    2984**DCL
S_D_HW_WSQ0PT$    2985**DCL
S_D_IPRFLT$    2972**DCL
S_D_IXFIX$    2971**DCL
S_D_REM_ACCESS$    2973**DCL
S_D_REM_DISKBOOT$    2975**DCL
S_D_REM_DO_SCAN$    2974**DCL
S_D_RETURNN$    2976**DCL
S_D_SAD$    2977**DCL
S_D_SAVEIC$    2978**DCL
S_D_SEG$    2960**DCL
S_D_TCB$$    2979**DCL
S_D_UREG$$    2980**DCL
S_D_USS$$    2981**DCL
