VERSION E05

PL6.E3A0      #001=DFR$EVENTRPT File=DFR$EVENTRPT.:E05TSI                        TUE 07/29/97 14:41 Page:1
        1        1        /*M* DFR$EVENTRPT - Write message for event from FD */
        2        2        /*T***********************************************************/
        3        3        /*T*                                                         */
        4        4        /*T* Copyright (c) Bull HN Information Systems Inc., 1997    */
        5        5        /*T*                                                         */
        6        6        /*T***********************************************************/
        7        7        /*X* DMR,PLM=5,IND=5,CSU=3,EXM=0,ECU=3,MOC,DCI=5,CRT=5 */
        8        8        DFR$EVENTRPT: PROC(I);
        9        9        /**/
       10       10    1   DCL I UBIN;
       11       11        /* Auto */
       12       12    1   DCL REM UBIN;
       13       13    1   DCL BB$ PTR;
       14       14    1   DCL CHAR2 CHAR(2) BASED;
       15       15    1   DCL DCBNO UBIN;
       16       16    1   DCL RES CHAR(4);
       17       17    1   DCL NCARS UBIN;
       18       18        /* Symref */
       19       19    1   DCL B$TCB$ PTR SYMREF READONLY;
       20       20        /* Includes */
       21       21        %INCLUDE CP_6;
       22      102        %B$TCB;
       23      105        %B$COMIO;
       24      118        %F$DCB;
       25      175        %INCLUDE DD$BASED;
       26     1478        %FPRG$CONTEXT;
       27     1541        %INCLUDE DD_ERR_C;
       28     1938        %INCLUDE XUH_MACRO_C;
       29     2022        %INCLUDE DD_SD_M;
       30     3358        %S_D;
       31     4676        %S_D_PTRS;
       32     4713        %INCLUDE DD_DEBUG_C;
       33     4734        %INCLUDE GD$MSG_M;
       34     4898        %GD$MSG(FPTN=GD$MSG, STCLASS="BASED(S_D_L6_MESSAGE$)", L6=YES, L6PTR="UBIN(32) UNAL"
              4898            );
       35     5054        /* Entry DCLs */
       36     5055    1   DCL DDE$ERROR ENTRY;
PL6.E3A0      #001=DFR$EVENTRPT File=DFR$EVENTRPT.:E05TSI                        TUE 07/29/97 14:41 Page:2
       37     5056    1   DCL DDQ$WRITE ENTRY(2);
       38     5057    1   DCL DDR$MOVE ENTRY(4) ALTRET;
       39     5058    1   DCL DDR$POSIT ENTRY(5) ALTRET;
       40     5059        /**/
       41     5060    1        REM = SIZEC(S_D.OUTPUT);
       42     5061    1        BB$ = ADDR(S_D.OUTPUT);
       43     5062    1        S_D.OUTPUT = ' ';
       44     5063    2        DO CASE(I);
       45     5064
       46     5065    2          CASE(%DB@ECC);
       47     5066    2             CALL DDR$MOVE('FPRG(', LENGTHC('FPRG('), BB$, REM) ALTRET(TOO_BIG);
       48     5067    2             CALL DDR$MOVE(SUBSTR(S_D.CURRENT_FPRG_CONTEXT$ -> FPRG$CONTEXT.RES, 0, S_D
              5067                      .CURRENT_FPRG_CONTEXT$ -> FPRG$CONTEXT.RES_SIZE-1),
       49     5068    2               S_D.CURRENT_FPRG_CONTEXT$ -> FPRG$CONTEXT.RES_SIZE, BB$, REM) ALTRET(
              5068                        TOO_BIG);
       50     5069    2             CALL DDR$MOVE(') TRAPPED @ ', LENGTHC(') TRAPPED @ '), BB$, REM) ALTRET(
              5069                      TOO_BIG);
       51     5070    2             CALL DDR$POSIT(GD$MSG.BRKRSP.ADR$, BB$, REM, NCARS) ALTRET(TOO_BIG);
       52     5071    2             BB$ = PINCRC(BB$, NCARS);
       53     5072    2             REM = REM - NCARS;
       54     5073    2             CALL DDR$MOVE(' TRAP# = ', LENGTHC(' TRAP# = '), BB$, NCARS) ALTRET(
              5073                      TOO_BIG);
       55     5074    2             CALL BINCHAR(BB$ -> CHAR2, GD$MSG.BRKRSP.BRK#);
       56     5075    2             REM = REM - 2;
       57     5076    2             BB$ = PINCRC(BB$, 2);
       58     5077
       59     5078    2          CASE(%DB@EVENT);
       60     5079    2             DCBNO = B$TCB$->B$TCB.STK$->B$COMIO.EVID;
       61     5080    2             RES = DCBADDR(DCBNO) -> F$DCB.RES#;
       62     5081    2             CALL DDR$MOVE('EVENT FOR FPRG(', LENGTHC('EVENT FOR FPRG('), BB$, REM)
              5081                      ALTRET(TOO_BIG);
       63     5082    2             CALL DDR$MOVE(RES, 4, BB$, REM) ALTRET(TOO_BIG);
       64     5083    2             CALL DDR$MOVE(') DCB# = ', LENGTHC(') DCB# = '), BB$, REM) ALTRET(TOO_BIG)
              5083                      ;
       65     5084    2             CALL BINCHAR(BB$ -> CHAR2, DCBNO);
       66     5085    2             REM = REM - 2;
       67     5086    2             BB$ = PINCRC(BB$, 2);
PL6.E3A0      #001=DFR$EVENTRPT File=DFR$EVENTRPT.:E05TSI                        TUE 07/29/97 14:41 Page:3
       68     5087    2          END;                             /* DO CASE(I) */
       69     5088        /**/
       70     5089    1   WRITE_IT: ;
       71     5090    1        CALL DDQ$WRITE(ADDR(S_D.OUTPUT), POFFC(BB$, ADDR(S_D.OUTPUT)));
       72     5091    1        IF S_D.ERROR ~= 0
       73     5092    1        THEN CALL DDE$ERROR;
       74     5093    1        RETURN;
       75     5094        /**/
       76     5095    1   TOO_BIG: ;
       77     5096    1        S_D.ERROR = E@BUFFULL;             /* E@BUFFULL */
       78     5097    1        GOTO WRITE_IT;
       79     5098    1   END DFR$EVENTRPT;

PL6.E3A0      #001=DFR$EVENTRPT File=DFR$EVENTRPT.:E05TSI                        TUE 07/29/97 14:41 Page:4
--  Include file information  --

   GD$MSG_M.:E05TOU  is referenced.
   DD_DEBUG_C.:E05TOU  is referenced.
   DD_SD_M.:E05TOU  is referenced.
   XUH_MACRO_C.:E05TOU  is referenced.
   DD_ERR_C.:E05TOU  is referenced.
   DD$BASED.:E05TOU  is referenced.
   CP_6.:E05TOU  cannot be made into a system file and is referenced.
   B$JIT_C.:E05TOU  was found in the system file and is never referenced.
   CP_6_C.:E05TOU  was found in the system file and is referenced.
      No diagnostics issued in procedure DFR$EVENTRPT.

   Procedure DFR$EVENTRPT requires 192 words for executable code.
   Procedure DFR$EVENTRPT requires 16 words of local(AUTO) storage.

    No errors detected in file DFR$EVENTRPT.:E05TSI    .

PL6.E3A0      #001=DFR$EVENTRPT File=DFR$EVENTRPT.:E05TSI                        TUE 07/29/97 14:41 Page:5

 Object Unit name= DFR$EVENTRPT                               File name= DFR$EVENTRPT.:E05TOU
 UTS= JUL 29 '97 14:41:23.40 TUE                              Compiler= PL-6/E31         Sev=      00
 SharedLib= :SHARED_SYSTEM                                    Alt SharedLib=


    ****  Control sections  ****

 Sect   Type Bound  Init  Size OctSiz  Section name(segment info)
    0   DCB   even  none     0      0  M$UC
    1  RoData even  UTS     15     17  DFR$EVENTRPT
    2   Proc  even  none   192    300  DFR$EVENTRPT
    3  RoData even  none    14     16  DFR$EVENTRPT

    ****  Entry defs  ****

                              Check   Calling
                             calling  sequence
  Sect OctLoc Primary Altret sequence   type   Parms  Name
     2      0   yes            yes      Std        1  DFR$EVENTRPT

  ****  Entry refs  ****

         Check        Calling
        calling       sequence
Altret sequence SRef   type   Args  Name
 yes     yes           Std       4 DDR$MOVE
 yes     yes           Std       5 DDR$POSIT
         yes           Std       2 DDQ$WRITE
         yes           Std       0 DDE$ERROR
                       nStd      0 X66_AUTO_1
                       Std       0 B_CONSPOOL_D
                       nStd      0 X66_ARET
PL6.E3A0      #001=DFR$EVENTRPT File=DFR$EVENTRPT.:E05TSI                        TUE 07/29/97 14:41 Page:6

  ****  Data refs  ****

  Flags:  r = read only, s = secondary
Flgs Name                             Flgs Name                             Flgs Name
r    B$TCB$                                M$UC                             r    S_D$
r    S_D_L6_MESSAGE$                       B_VECTNIL

  ****  Segment refs  ****

  Flags:  r = read only, s = secondary
Flgs Name                             Flgs Name                             Flgs Name
     ROSID                                 ISSID
PL6.E3A0      #001=DFR$EVENTRPT File=DFR$EVENTRPT.:E05TSI                        TUE 07/29/97 14:41 Page:7


        1        1        /*M* DFR$EVENTRPT - Write message for event from FD */
        2        2        /*T***********************************************************/
        3        3        /*T*                                                         */
        4        4        /*T* Copyright (c) Bull HN Information Systems Inc., 1997    */
        5        5        /*T*                                                         */
        6        6        /*T***********************************************************/
        7        7        /*X* DMR,PLM=5,IND=5,CSU=3,EXM=0,ECU=3,MOC,DCI=5,CRT=5 */
        8        8        DFR$EVENTRPT: PROC(I);

      8  2 000000   000000 700200 xent  DFR$EVENTRPT TSX0  ! X66_AUTO_1
         2 000001   000020 000001                    ZERO    16,1

        9        9        /**/
       10       10    1   DCL I UBIN;
       11       11        /* Auto */
       12       12    1   DCL REM UBIN;
       13       13    1   DCL BB$ PTR;
       14       14    1   DCL CHAR2 CHAR(2) BASED;
       15       15    1   DCL DCBNO UBIN;
       16       16    1   DCL RES CHAR(4);
       17       17    1   DCL NCARS UBIN;
       18       18        /* Symref */
       19       19    1   DCL B$TCB$ PTR SYMREF READONLY;
       20       20        /* Includes */
       21       21        %INCLUDE CP_6;
       22      102        %B$TCB;
       23      105        %B$COMIO;
       24      118        %F$DCB;
       25      175        %INCLUDE DD$BASED;
       26     1478        %FPRG$CONTEXT;
       27     1541        %INCLUDE DD_ERR_C;
       28     1938        %INCLUDE XUH_MACRO_C;
       29     2022        %INCLUDE DD_SD_M;
       30     3358        %S_D;
       31     4676        %S_D_PTRS;
       32     4713        %INCLUDE DD_DEBUG_C;
PL6.E3A0      #001=DFR$EVENTRPT File=DFR$EVENTRPT.:E05TSI                        TUE 07/29/97 14:41 Page:8
       33     4734        %INCLUDE GD$MSG_M;
       34     4898       %GD$MSG(FPTN=GD$MSG, STCLASS="BASED(S_D_L6_MESSAGE$)", L6=YES, L6PTR="UBIN(32) UNAL"
              4898            );
       35     5054        /* Entry DCLs */
       36     5055    1   DCL DDE$ERROR ENTRY;
       37     5056    1   DCL DDQ$WRITE ENTRY(2);
       38     5057    1   DCL DDR$MOVE ENTRY(4) ALTRET;
       39     5058    1   DCL DDR$POSIT ENTRY(5) ALTRET;
       40     5059        /**/
       41     5060    1        REM = SIZEC(S_D.OUTPUT);

   5060  2 000002   004000 235007                    LDA     2048,DL
         2 000003   200004 755100                    STA     REM,,AUTO

       42     5061    1        BB$ = ADDR(S_D.OUTPUT);

   5061  2 000004   000000 236000 xsym               LDQ     S_D$
         2 000005   005335 036003                    ADLQ    2781,DU
         2 000006   200005 756100                    STQ     BB$,,AUTO

       43     5062    1        S_D.OUTPUT = ' ';

   5062  2 000007   000000 470400 xsym               LDP0    S_D$
         2 000010   040100 100400                    MLR     fill='040'O
         2 000011   000035 000001 xsym               ADSC9   B_VECTNIL+29             cn=0,n=1
         2 000012   005335 004000                    ADSC9   2781,,PR0                cn=0,n=2048

       44     5063    2        DO CASE(I);

   5063  2 000013   200003 471500                    LDP1    @I,,AUTO
         2 000014   100000 235100                    LDA     0,,PR1
         2 000015   000031 135007                    SBLA    25,DL
         2 000016   000006 115007                    CMPA    6,DL
         2 000017   000021 602005 2                  TNC     s:5063+6,AL
         2 000020   000240 710000 2                  TRA     WRITE_IT
         2 000021   000152 710000 2                  TRA     s:5079
         2 000022   000240 710000 2                  TRA     WRITE_IT
PL6.E3A0      #001=DFR$EVENTRPT File=DFR$EVENTRPT.:E05TSI                        TUE 07/29/97 14:41 Page:9
         2 000023   000240 710000 2                  TRA     WRITE_IT
         2 000024   000240 710000 2                  TRA     WRITE_IT
         2 000025   000240 710000 2                  TRA     WRITE_IT
         2 000026   000027 710000 2                  TRA     s:5066

       45     5064
       46     5065    2          CASE(%DB@ECC);

       47     5066    2             CALL DDR$MOVE('FPRG(', LENGTHC('FPRG('), BB$, REM) ALTRET(TOO_BIG);

   5066  2 000027   200004 633500                    EPPR3   REM,,AUTO
         2 000030   200015 453500                    STP3    NCARS+5,,AUTO
         2 000031   200005 634500                    EPPR4   BB$,,AUTO
         2 000032   200014 454500                    STP4    NCARS+4,,AUTO
         2 000033   000000 237000 3                  LDAQ    0
         2 000034   200012 757100                    STAQ    NCARS+2,,AUTO
         2 000035   200012 630500                    EPPR0   NCARS+2,,AUTO
         2 000036   000022 631400 xsym               EPPR1   B_VECTNIL+18
         2 000037   000000 701000 xent               TSX1    DDR$MOVE
         2 000040   000274 702000 2                  TSX2    TOO_BIG

       48     5067    2            CALL DDR$MOVE(SUBSTR(S_D.CURRENT_FPRG_CONTEXT$ -> FPRG$CONTEXT.RES, 0, S_D
              5067                      .CURRENT_FPRG_CONTEXT$ -> FPRG$CONTEXT.RES_SIZE-1),

   5067  2 000041   000000 470400 xsym               LDP0    S_D$
         2 000042   000102 471500                    LDP1    66,,PR0
         2 000043   100004 720100                    LXL0    4,,PR1
         2 000044   777777 621010                    EAX1    -1,X0
         2 000045   200004 633500                    EPPR3   REM,,AUTO
         2 000046   200015 453500                    STP3    NCARS+5,,AUTO
         2 000047   200005 634500                    EPPR4   BB$,,AUTO
         2 000050   200014 454500                    STP4    NCARS+4,,AUTO
         2 000051   100004 635500                    EPPR5   4,,PR1
         2 000052   200013 455500                    STP5    NCARS+3,,AUTO
         2 000053   100002 636500                    EPPR6   2,,PR1
         2 000054   200012 456500                    STP6    NCARS+2,,AUTO
         2 000055   200012 630500                    EPPR0   NCARS+2,,AUTO
PL6.E3A0      #001=DFR$EVENTRPT File=DFR$EVENTRPT.:E05TSI                        TUE 07/29/97 14:41 Page:10
         2 000056   000022 631400 xsym               EPPR1   B_VECTNIL+18
         2 000057   000000 701000 xent               TSX1    DDR$MOVE
         2 000060   000274 702000 2                  TSX2    TOO_BIG

       49     5068    2               S_D.CURRENT_FPRG_CONTEXT$ -> FPRG$CONTEXT.RES_SIZE, BB$, REM) ALTRET(
              5068                        TOO_BIG);
       50     5069    2             CALL DDR$MOVE(') TRAPPED @ ', LENGTHC(') TRAPPED @ '), BB$, REM) ALTRET(
              5069                      TOO_BIG);

   5069  2 000061   200004 630500                    EPPR0   REM,,AUTO
         2 000062   200015 450500                    STP0    NCARS+5,,AUTO
         2 000063   200005 631500                    EPPR1   BB$,,AUTO
         2 000064   200014 451500                    STP1    NCARS+4,,AUTO
         2 000065   000004 237000 3                  LDAQ    4
         2 000066   200012 757100                    STAQ    NCARS+2,,AUTO
         2 000067   200012 630500                    EPPR0   NCARS+2,,AUTO
         2 000070   000022 631400 xsym               EPPR1   B_VECTNIL+18
         2 000071   000000 701000 xent               TSX1    DDR$MOVE
         2 000072   000274 702000 2                  TSX2    TOO_BIG

       51     5070    2             CALL DDR$POSIT(GD$MSG.BRKRSP.ADR$, BB$, REM, NCARS) ALTRET(TOO_BIG);

   5070  2 000073   200010 630500                    EPPR0   NCARS,,AUTO
         2 000074   200015 450500                    STP0    NCARS+5,,AUTO
         2 000075   200004 631500                    EPPR1   REM,,AUTO
         2 000076   200014 451500                    STP1    NCARS+4,,AUTO
         2 000077   200005 633500                    EPPR3   BB$,,AUTO
         2 000100   200013 453500                    STP3    NCARS+3,,AUTO
         2 000101   000000 236000 xsym               LDQ     S_D_L6_MESSAGE$
         2 000102   270000 036007                    ADLQ    94208,DL
         2 000103   200012 756100                    STQ     NCARS+2,,AUTO
         2 000104   200012 630500                    EPPR0   NCARS+2,,AUTO
         2 000105   000022 631400 xsym               EPPR1   B_VECTNIL+18
         2 000106   000000 701000 xent               TSX1    DDR$POSIT
         2 000107   000274 702000 2                  TSX2    TOO_BIG

       52     5071    2             BB$ = PINCRC(BB$, NCARS);
PL6.E3A0      #001=DFR$EVENTRPT File=DFR$EVENTRPT.:E05TSI                        TUE 07/29/97 14:41 Page:11

   5071  2 000110   200010 236100                    LDQ     NCARS,,AUTO
         2 000111   000020 736000                    QLS     16
         2 000112   200005 036100                    ADLQ    BB$,,AUTO
         2 000113   200005 756100                    STQ     BB$,,AUTO

       53     5072    2             REM = REM - NCARS;

   5072  2 000114   200004 236100                    LDQ     REM,,AUTO
         2 000115   200010 136100                    SBLQ    NCARS,,AUTO
         2 000116   200004 756100                    STQ     REM,,AUTO

       54     5073    2             CALL DDR$MOVE(' TRAP# = ', LENGTHC(' TRAP# = '), BB$, NCARS) ALTRET(
              5073                      TOO_BIG);

   5073  2 000117   200010 630500                    EPPR0   NCARS,,AUTO
         2 000120   200015 450500                    STP0    NCARS+5,,AUTO
         2 000121   200005 631500                    EPPR1   BB$,,AUTO
         2 000122   200014 451500                    STP1    NCARS+4,,AUTO
         2 000123   000006 237000 3                  LDAQ    6
         2 000124   200012 757100                    STAQ    NCARS+2,,AUTO
         2 000125   200012 630500                    EPPR0   NCARS+2,,AUTO
         2 000126   000022 631400 xsym               EPPR1   B_VECTNIL+18
         2 000127   000000 701000 xent               TSX1    DDR$MOVE
         2 000130   000274 702000 2                  TSX2    TOO_BIG

       55     5074    2             CALL BINCHAR(BB$ -> CHAR2, GD$MSG.BRKRSP.BRK#);

   5074  2 000131   000000 470400 xsym               LDP0    S_D_L6_MESSAGE$
         2 000132   000002 236100                    LDQ     2,,PR0
         2 000133   000014 772000                    QRL     12
         2 000134   177777 376007                    ANQ     65535,DL
         2 000135   000000 235003                    LDA     0,DU
         2 000136   200012 757100                    STAQ    NCARS+2,,AUTO
         2 000137   200005 471500                    LDP1    BB$,,AUTO
         2 000140   000100 301500                    BTD
         2 000141   200012 000010                    NDSC9   NCARS+2,,AUTO            cn=0,s=lsgnf,sf=0,n=8
PL6.E3A0      #001=DFR$EVENTRPT File=DFR$EVENTRPT.:E05TSI                        TUE 07/29/97 14:41 Page:12
         2 000142   100000 030002                    NDSC9   0,,PR1                   cn=0,s=nosgn,sf=0,n=2

       56     5075    2             REM = REM - 2;

   5075  2 000143   200004 236100                    LDQ     REM,,AUTO
         2 000144   000002 136007                    SBLQ    2,DL
         2 000145   200004 756100                    STQ     REM,,AUTO

       57     5076    2             BB$ = PINCRC(BB$, 2);

   5076  2 000146   200005 236100                    LDQ     BB$,,AUTO
         2 000147   400000 036007                    ADLQ    -131072,DL
         2 000150   200005 756100                    STQ     BB$,,AUTO
         2 000151   000240 710000 2                  TRA     WRITE_IT

       58     5077
       59     5078    2          CASE(%DB@EVENT);

       60     5079    2             DCBNO = B$TCB$->B$TCB.STK$->B$COMIO.EVID;

   5079  2 000152   000000 473400 xsym               LDP3    B$TCB$
         2 000153   300001 474500                    LDP4    1,,PR3
         2 000154   400101 235100                    LDA     65,,PR4
         2 000155   200006 755100                    STA     DCBNO,,AUTO

       61     5080    2             RES = DCBADDR(DCBNO) -> F$DCB.RES#;

   5080  2 000156   000003 475400 3                  LDP5    3
         2 000157   500000 476500                    LDP6    0,,PR5
         2 000160   600000 477505                    LDP7    0,AL,PR6
         2 000161   700026 236100                    LDQ     22,,PR7
         2 000162   200007 756100                    STQ     RES,,AUTO

       62     5081    2             CALL DDR$MOVE('EVENT FOR FPRG(', LENGTHC('EVENT FOR FPRG('), BB$, REM)
              5081                      ALTRET(TOO_BIG);

   5081  2 000163   200004 634500                    EPPR4   REM,,AUTO
PL6.E3A0      #001=DFR$EVENTRPT File=DFR$EVENTRPT.:E05TSI                        TUE 07/29/97 14:41 Page:13
         2 000164   200015 454500                    STP4    NCARS+5,,AUTO
         2 000165   200005 637500                    EPPR7   BB$,,AUTO
         2 000166   200014 457500                    STP7    NCARS+4,,AUTO
         2 000167   000012 237000 3                  LDAQ    10
         2 000170   200012 757100                    STAQ    NCARS+2,,AUTO
         2 000171   200012 630500                    EPPR0   NCARS+2,,AUTO
         2 000172   000022 631400 xsym               EPPR1   B_VECTNIL+18
         2 000173   000000 701000 xent               TSX1    DDR$MOVE
         2 000174   000274 702000 2                  TSX2    TOO_BIG

       63     5082    2             CALL DDR$MOVE(RES, 4, BB$, REM) ALTRET(TOO_BIG);

   5082  2 000175   200004 630500                    EPPR0   REM,,AUTO
         2 000176   200015 450500                    STP0    NCARS+5,,AUTO
         2 000177   200005 631500                    EPPR1   BB$,,AUTO
         2 000200   200014 451500                    STP1    NCARS+4,,AUTO
         2 000201   000011 236000 3                  LDQ     9
         2 000202   200013 756100                    STQ     NCARS+3,,AUTO
         2 000203   200007 633500                    EPPR3   RES,,AUTO
         2 000204   200012 453500                    STP3    NCARS+2,,AUTO
         2 000205   200012 630500                    EPPR0   NCARS+2,,AUTO
         2 000206   000022 631400 xsym               EPPR1   B_VECTNIL+18
         2 000207   000000 701000 xent               TSX1    DDR$MOVE
         2 000210   000274 702000 2                  TSX2    TOO_BIG

       64     5083    2            CALL DDR$MOVE(') DCB# = ', LENGTHC(') DCB# = '), BB$, REM) ALTRET(TOO_BIG)
              5083                      ;

   5083  2 000211   200004 630500                    EPPR0   REM,,AUTO
         2 000212   200015 450500                    STP0    NCARS+5,,AUTO
         2 000213   200005 631500                    EPPR1   BB$,,AUTO
         2 000214   200014 451500                    STP1    NCARS+4,,AUTO
         2 000215   000014 237000 3                  LDAQ    12
         2 000216   200012 757100                    STAQ    NCARS+2,,AUTO
         2 000217   200012 630500                    EPPR0   NCARS+2,,AUTO
         2 000220   000022 631400 xsym               EPPR1   B_VECTNIL+18
         2 000221   000000 701000 xent               TSX1    DDR$MOVE
PL6.E3A0      #001=DFR$EVENTRPT File=DFR$EVENTRPT.:E05TSI                        TUE 07/29/97 14:41 Page:14
         2 000222   000274 702000 2                  TSX2    TOO_BIG

       65     5084    2             CALL BINCHAR(BB$ -> CHAR2, DCBNO);

   5084  2 000223   200006 235100                    LDA     DCBNO,,AUTO
         2 000224   000044 773000                    LRL     36
         2 000225   200012 757100                    STAQ    NCARS+2,,AUTO
         2 000226   200005 470500                    LDP0    BB$,,AUTO
         2 000227   000100 301500                    BTD
         2 000230   200012 000010                    NDSC9   NCARS+2,,AUTO            cn=0,s=lsgnf,sf=0,n=8
         2 000231   000000 030002                    NDSC9   0,,PR0                   cn=0,s=nosgn,sf=0,n=2

       66     5085    2             REM = REM - 2;

   5085  2 000232   200004 235100                    LDA     REM,,AUTO
         2 000233   000002 135007                    SBLA    2,DL
         2 000234   200004 755100                    STA     REM,,AUTO

       67     5086    2             BB$ = PINCRC(BB$, 2);

   5086  2 000235   200005 236100                    LDQ     BB$,,AUTO
         2 000236   400000 036007                    ADLQ    -131072,DL
         2 000237   200005 756100                    STQ     BB$,,AUTO

       68     5087    2          END;                             /* DO CASE(I) */

   5083  2 000240                       WRITE_IT     null
       69     5088        /**/
       70     5089    1   WRITE_IT: ;
       71     5090    1        CALL DDQ$WRITE(ADDR(S_D.OUTPUT), POFFC(BB$, ADDR(S_D.OUTPUT)));

   5090  2 000240   000000 236000 xsym               LDQ     S_D$
         2 000241   005335 036003                    ADLQ    2781,DU
         2 000242   000020 772000                    QRL     16
         2 000243   200012 756100                    STQ     NCARS+2,,AUTO
         2 000244   200005 236100                    LDQ     BB$,,AUTO
         2 000245   000020 772000                    QRL     16
PL6.E3A0      #001=DFR$EVENTRPT File=DFR$EVENTRPT.:E05TSI                        TUE 07/29/97 14:41 Page:15
         2 000246   200012 136100                    SBLQ    NCARS+2,,AUTO
         2 000247   200014 756100                    STQ     NCARS+4,,AUTO
         2 000250   000000 236000 xsym               LDQ     S_D$
         2 000251   005335 036003                    ADLQ    2781,DU
         2 000252   200013 756100                    STQ     NCARS+3,,AUTO
         2 000253   200014 235100                    LDA     NCARS+4,,AUTO
         2 000254   200015 755100                    STA     NCARS+5,,AUTO
         2 000255   200015 630500                    EPPR0   NCARS+5,,AUTO
         2 000256   200017 450500                    STP0    NCARS+7,,AUTO
         2 000257   200013 631500                    EPPR1   NCARS+3,,AUTO
         2 000260   200016 451500                    STP1    NCARS+6,,AUTO
         2 000261   200016 630500                    EPPR0   NCARS+6,,AUTO
         2 000262   000020 631400 xsym               EPPR1   B_VECTNIL+16
         2 000263   000000 701000 xent               TSX1    DDQ$WRITE
         2 000264   000000 011000                    NOP     0

       72     5091    1        IF S_D.ERROR ~= 0

   5091  2 000265   000000 470400 xsym               LDP0    S_D$
         2 000266   000013 235100                    LDA     11,,PR0
         2 000267   000273 600000 2                  TZE     s:5093

       73     5092    1        THEN CALL DDE$ERROR;

   5092  2 000270   000002 631400 xsym               EPPR1   B_VECTNIL+2
         2 000271   000000 701000 xent               TSX1    DDE$ERROR
         2 000272   000000 011000                    NOP     0

       74     5093    1        RETURN;

   5093  2 000273   000000 702200 xent               TSX2  ! X66_ARET

   5091  2 000274                       TOO_BIG      null
       75     5094        /**/
       76     5095    1   TOO_BIG: ;
       77     5096    1        S_D.ERROR = E@BUFFULL;             /* E@BUFFULL */

PL6.E3A0      #001=DFR$EVENTRPT File=DFR$EVENTRPT.:E05TSI                        TUE 07/29/97 14:41 Page:16
   5096  2 000274   000130 235007                    LDA     88,DL
         2 000275   000000 470400 xsym               LDP0    S_D$
         2 000276   000013 755100                    STA     11,,PR0

       78     5097    1        GOTO WRITE_IT;

   5097  2 000277   000240 710000 2                  TRA     WRITE_IT

(unnamed)
 Sect OctLoc
   1     000   106120 122107   050040 040040   051040 124122   101120 120105    FPRG(   ) TRAPPE
   1     004   104040 100040   040124 122101   120043 040075   040040 040040    D @  TRAP# =
   1     010   105126 105116   124040 106117   122040 106120   122107 050040    EVENT FOR FPRG(
   1     014   051040 104103   102043 040075   040040 040040                    ) DCB# =

(unnamed)
 Sect OctLoc
   3     000   000000 006000   000007 006000   000000 000014   000000 006003    ................
   3     004   000002 006000   000002 006000   000005 006000   000013 006000    ................
   3     010   000000 000017   000006 006000   000010 006000   000010 006000    ................
   3     014   000014 006000   000013 006000                                    ........
       79     5098    1   END DFR$EVENTRPT;

PL6.E3A0      #001=DFR$EVENTRPT File=DFR$EVENTRPT.:E05TSI                        TUE 07/29/97 14:41 Page:17
--  Include file information  --

   GD$MSG_M.:E05TOU  is referenced.
   DD_DEBUG_C.:E05TOU  is referenced.
   DD_SD_M.:E05TOU  is referenced.
   XUH_MACRO_C.:E05TOU  is referenced.
   DD_ERR_C.:E05TOU  is referenced.
   DD$BASED.:E05TOU  is referenced.
   CP_6.:E05TOU  cannot be made into a system file and is referenced.
   B$JIT_C.:E05TOU  was found in the system file and is never referenced.
   CP_6_C.:E05TOU  was found in the system file and is referenced.
      No diagnostics issued in procedure DFR$EVENTRPT.

   Procedure DFR$EVENTRPT requires 192 words for executable code.
   Procedure DFR$EVENTRPT requires 16 words of local(AUTO) storage.

    No errors detected in file DFR$EVENTRPT.:E05TSI    .
PL6.E3A0      #001=DFR$EVENTRPT File=DFR$EVENTRPT.:E05TSI                        TUE 07/29/97 14:41 Page:18
          *** CROSS REFERENCE LISTING ***
**     DENOTES     IDENTIFIER DEFINITION
<<                 IDENTIFIER'S VALUE SET
>>                 IDENTIFIER'S VALUE USED
<>                 IDENTIFIER SET AND/OR USED
--                 IDENTIFIER REFERENCED
PL6.E3A0      #001=DFR$EVENTRPT File=DFR$EVENTRPT.:E05TSI                        TUE 07/29/97 14:41 Page:19
          MINI XREF LISTING

B$COMIO.ARS
       115**DCL       115--REDEF
B$COMIO.CODE
       108**DCL       108--REDEF     109--REDEF     109--REDEF
B$COMIO.ERR.ERR#
       110**DCL       110--REDEF
B$COMIO.EVID
       109**DCL       109--REDEF     109--REDEF    5079>>ASSIGN
B$TCB.STK$
       103**DCL      5079>>ASSIGN
B$TCB$
        19**DCL      5079>>ASSIGN
BB$
        13**DCL      5061<<ASSIGN   5066<>CALL     5067<>CALL     5069<>CALL     5070<>CALL     5071<<ASSIGN
      5071>>ASSIGN   5073<>CALL     5074>>CALLBLT  5076<<ASSIGN   5076>>ASSIGN   5081<>CALL     5082<>CALL
      5083<>CALL     5084>>CALLBLT  5086<<ASSIGN   5086>>ASSIGN   5090>>CALL
CHAR2
        14**DCL      5074<<CALLBLT  5084<<CALLBLT
DCBNO
        15**DCL      5079<<ASSIGN   5080--ASSIGN   5084>>CALLBLT
DDE$ERROR
      5055**DCL-ENT  5092--CALL
DDQ$WRITE
      5056**DCL-ENT  5090--CALL
DDR$MOVE
      5057**DCL-ENT  5066--CALL     5067--CALL     5069--CALL     5073--CALL     5081--CALL     5082--CALL
      5083--CALL
DDR$POSIT
      5058**DCL-ENT  5070--CALL
F$DCB.ACTPOS
       151**DCL       151--REDEF
F$DCB.ARS#
PL6.E3A0      #001=DFR$EVENTRPT File=DFR$EVENTRPT.:E05TSI                        TUE 07/29/97 14:41 Page:20
       125**DCL       125--REDEF
F$DCB.ATTR
       144**DCL       145--REDEF
F$DCB.BORROW
       159**DCL       159--REDEF     159--REDEF     159--REDEF
F$DCB.DCBNAME.L
       173**DCL       173--IMP-SIZ
F$DCB.EOMCHAR#
       129**DCL       129--REDEF
F$DCB.FLDID
       154**DCL       154--REDEF
F$DCB.FORM$
       148**DCL       148--REDEF
F$DCB.FSECT
       164**DCL       164--REDEF
F$DCB.FSN#
       141**DCL       141--REDEF     141--REDEF     142--REDEF
F$DCB.HEADER$
       147**DCL       147--REDEF
F$DCB.IXTNSIZE#
       145**DCL       145--REDEF
F$DCB.LASTSTA$
       134**DCL       134--REDEF
F$DCB.LVL
       160**DCL       160--REDEF
F$DCB.NAME#.C
       135**DCL       135--REDEF
F$DCB.NOEOF
       157**DCL       157--REDEF
F$DCB.NRECS#
       146**DCL       146--REDEF
F$DCB.NRECX
       165**DCL       165--REDEF
F$DCB.OHDR
       157**DCL       157--REDEF
F$DCB.ORG#
PL6.E3A0      #001=DFR$EVENTRPT File=DFR$EVENTRPT.:E05TSI                        TUE 07/29/97 14:41 Page:21
       140**DCL       140--REDEF
F$DCB.PRECNO
       163**DCL       163--REDEF
F$DCB.RCSZ
       169**DCL       169--REDEF
F$DCB.RES#
       136**DCL       136--REDEF    5080>>ASSIGN
F$DCB.SETX
       148**DCL       148--REDEF
F$DCB.TAB$
       148**DCL       148--REDEF
F$DCB.TDA
       162**DCL       163--REDEF
F$DCB.WSN#
       136**DCL       136--REDEF
FPRG$CONTEXT.RES
      1499**DCL      5067<>CALL
FPRG$CONTEXT.RES_SIZE
      1501**DCL      5067>>CALL     5067<>CALL
GD$MSG.BRKRQS.IF$CONST.SIZE
      4966**DCL      4966--REDEF
GD$MSG.BRKRQS.IF$CONST.TEXT
      4966**DCL      4967--REDEF    4967--REDEF    4968--REDEF    4969--REDEF
GD$MSG.BRKRSP.ADR$
      4979**DCL      5070<>CALL
GD$MSG.BRKRSP.BRK#
      4980**DCL      4980--REDEF    5074>>CALLBLT
GD$MSG.BRKRSP.USER#
      4980**DCL      4980--REDEF
GD$MSG.LETMEM_D.VALUE.SIZE
      4938**DCL      4938--REDEF
GD$MSG.LETMEM_D.VALUE.TEXT
      4939**DCL      4939--REDEF    4939--REDEF    4940--REDEF    4941--REDEF
GD$MSG.MESSAGE
      4920**DCL      4920--REDEF    4921--REDEF    4921--REDEF    4922--REDEF    4933--REDEF    4946--REDEF
      4951--REDEF    4958--REDEF    4974--REDEF    4979--REDEF    4985--REDEF    4986--REDEF    5015--REDEF
PL6.E3A0      #001=DFR$EVENTRPT File=DFR$EVENTRPT.:E05TSI                        TUE 07/29/97 14:41 Page:22
      5017--REDEF    5028--REDEF    5035--REDEF    5047--REDEF
GD$MSG.SUBFNC
      4915**DCL      4915--REDEF    4919--REDEF
GD$MSG.TSA.I
      4987**DCL      4987--REDEF
GD$MSG.TSA.S
      4989**DCL      4989--REDEF
GD$MSG.USERQS.ASDT$
      5015**DCL      5015--REDEF    5016--REDEF
I
        10**DCL         8--PROC     5063>>DOCASE
NCARS
        17**DCL      5070<>CALL     5071>>ASSIGN   5072>>ASSIGN   5073<>CALL
REM
        12**DCL      5060<<ASSIGN   5066<>CALL     5067<>CALL     5069<>CALL     5070<>CALL     5072<<ASSIGN
      5072>>ASSIGN   5075<<ASSIGN   5075>>ASSIGN   5081<>CALL     5082<>CALL     5083<>CALL     5085<<ASSIGN
      5085>>ASSIGN
RES
        16**DCL      5080<<ASSIGN   5082<>CALL
S_D.CURRENT_CHANNEL
      4310**DCL      4312--REDEF
S_D.CURRENT_FPRG_CONTEXT$
      3510**DCL      5067>>CALL     5067>>CALL     5067>>CALL
S_D.DEBUGA
      3462**DCL      3464--REDEF
S_D.EIS
      4420**DCL      4449--REDEF
S_D.ERROR
      3391**DCL      5091>>IF       5096<<ASSIGN
S_D.HOST_MESSAGE_BUF_REMOTE
      4353**DCL      4354--REDEF    4368--REDEF
S_D.JDE
      3967**DCL      3968--REDEF
S_D.L$.VALUE
      3520**DCL      3526--REDEF    3534--REDEF    3537--REDEF    3540--REDEF    3543--REDEF
S_D.L$.VALUE.L
PL6.E3A0      #001=DFR$EVENTRPT File=DFR$EVENTRPT.:E05TSI                        TUE 07/29/97 14:41 Page:23
      3521**DCL      3522--REDEF    3523--REDEF
S_D.L6_MESSAGE_BUF
      4374**DCL      4376--REDEF
S_D.OUTPUT
      4340**DCL      4342--REDEF    5060--ASSIGN   5061--ASSIGN   5062<<ASSIGN   5090--CALL     5090--CALL
S_D.REMOTE_MSG.FNCC
      4359**DCL      4360--REDEF
S_D.REMOTE_MSG.STXC
      4355**DCL      4356--REDEF
S_D.REMOTE_MSG.SUBFNCC
      4363**DCL      4364--REDEF
S_D.SV
      3419**DCL      3440--REDEF
S_D$
      4671**DCL      3367--IMP-PTR  5061>>ASSIGN   5062>>ASSIGN   5067>>CALL     5067>>CALL     5067>>CALL
      5090>>CALL     5090>>CALL     5091>>IF       5096>>ASSIGN
S_D_L6_MESSAGE$
      4708**DCL      4915--IMP-PTR  5070>>CALL     5074>>CALLBLT
TOO_BIG
      5091**LABEL    5066--CALLALT  5067--CALLALT  5069--CALLALT  5070--CALLALT  5073--CALLALT  5081--CALLALT
      5082--CALLALT  5083--CALLALT
WRITE_IT
      5083**LABEL    5097--GOTO
PL6.E3A0      #001=DFR$EVENTRPT File=DFR$EVENTRPT.:E05TSI                        TUE 07/29/97 14:41 Page:24
              *** CROSS REFERENCE LISTING ***
    **     DENOTES     IDENTIFIER DEFINITION
    <<                 IDENTIFIER'S VALUE SET
    >>                 IDENTIFIER'S VALUE USED
    <>                 IDENTIFIER SET AND/OR USED
    --                 IDENTIFIER REFERENCED
PL6.E3A0      #001=DFR$EVENTRPT File=DFR$EVENTRPT.:E05TSI                        TUE 07/29/97 14:41 Page:25
              MINI UREF LISTING

DFR$EVENTRPT       8**PROC
M$ACCT      47**DCL-ENT
M$ACTIVATE      50**DCL-ENT
M$ALIB      43**DCL-ENT
M$ASUSER      45**DCL-ENT
M$ATTACH      52**DCL-ENT
M$BADPP      70**DCL-ENT
M$CGCTL      51**DCL-ENT
M$CGINFO      51**DCL-ENT
M$CHECK      32**DCL-ENT
M$CHGUNIT      90**DCL-ENT
M$CLOSE      30**DCL-ENT
M$CLRSTK      88**DCL-ENT
M$CMDVAR      99**DCL-ENT
M$CONFIG      60**DCL-ENT
M$CORRES      35**DCL-ENT
M$CPEXIT      44**DCL-ENT
M$CVM      68**DCL-ENT
M$CVOL      33**DCL-ENT
M$DCLFLD      60**DCL-ENT
M$DEACTIVATE      50**DCL-ENT
M$DELREC      32**DCL-ENT
M$DEQ      97**DCL-ENT
M$DETACH      52**DCL-ENT
M$DEVICE      34**DCL-ENT
M$DISPLAY      97**DCL-ENT
M$DISPRES      37**DCL-ENT
M$DLIB      43**DCL-ENT
M$DRIBBLE      60**DCL-ENT
M$DRTN      88**DCL-ENT
M$DSUSER      45**DCL-ENT
M$ENQ      96**DCL-ENT
PL6.E3A0      #001=DFR$EVENTRPT File=DFR$EVENTRPT.:E05TSI                        TUE 07/29/97 14:41 Page:26
M$EOM      55**DCL-ENT
M$ERASE      61**DCL-ENT
M$ERR      42**DCL-ENT
M$ERRMSG      93**DCL-ENT
M$EVENT      85**DCL-ENT
M$EXHUME      94**DCL-ENT
M$EXIT      42**DCL-ENT
M$EXTEND      34**DCL-ENT
M$FDP      66**DCL-ENT
M$FDS      65**DCL-ENT
M$FEBOOT      58**DCL-ENT
M$FECTL      59**DCL-ENT
M$FEDUMP      58**DCL-ENT
M$FID      93**DCL-ENT
M$FINDPROC      47**DCL-ENT
M$FSUSER      45**DCL-ENT
M$FVP      67**DCL-ENT
M$FWCG      51**DCL-ENT
M$GBPL      71**DCL-ENT
M$GDDL      67**DCL-ENT
M$GDP      66**DCL-ENT
M$GDS      65**DCL-ENT
M$GETDCB      36**DCL-ENT
M$GETMOUSE      76**DCL-ENT
M$GETPM      77**DCL-ENT
M$GJOB      95**DCL-ENT
M$GLINEATTR      55**DCL-ENT
M$GOODPP      70**DCL-ENT
M$GPLATEN      63**DCL-ENT
M$GPROMPT      62**DCL-ENT
M$GTRMATTR      56**DCL-ENT
M$GTRMCTL      54**DCL-ENT
M$GTRMTAB      57**DCL-ENT
M$GVP      66**DCL-ENT
M$HELP      93**DCL-ENT
M$INT      85**DCL-ENT
PL6.E3A0      #001=DFR$EVENTRPT File=DFR$EVENTRPT.:E05TSI                        TUE 07/29/97 14:41 Page:27
M$INTRTN      46**DCL-ENT
M$IOQ      81**DCL-ENT
M$JOBSTATS      95**DCL-ENT
M$KEYIN      35**DCL-ENT
M$LDEV      30**DCL-ENT
M$LDTRC      43**DCL-ENT
M$LIMIT      36**DCL-ENT
M$LINES      35**DCL-ENT
M$LINK      42**DCL-ENT
M$MADMUCK      38**DCL-ENT
M$MAKUSER      69**DCL-ENT
M$MBS      37**DCL-ENT
M$MDFFLD      61**DCL-ENT
M$MERC      86**DCL-ENT
M$MERCS      87**DCL-ENT
M$MIRROR      81**DCL-ENT
M$MONINFO      98**DCL-ENT
M$MPL      71**DCL-ENT
M$NODEINFO      62**DCL-ENT
M$NXTUSR      96**DCL-ENT
M$OCMSG      94**DCL-ENT
M$OLAY      42**DCL-ENT
M$OPEN      30**DCL-ENT
M$PAS      71**DCL-ENT
M$PATHCON      94**DCL-ENT
M$PDS      65**DCL-ENT
M$PFIL      32**DCL-ENT
M$PLATEN      56**DCL-ENT
M$PRECORD      34**DCL-ENT
M$PROCNAME      47**DCL-ENT
M$PROFILE      58**DCL-ENT
M$PROMPT      54**DCL-ENT
M$RACST      38**DCL-ENT
M$RDSYSLOG      79**DCL-ENT
M$READ      31**DCL-ENT
M$RELDCB      36**DCL-ENT
PL6.E3A0      #001=DFR$EVENTRPT File=DFR$EVENTRPT.:E05TSI                        TUE 07/29/97 14:41 Page:28
M$RELRES      37**DCL-ENT
M$RELSTARF      39**DCL-ENT
M$REM      39**DCL-ENT
M$RENV      86**DCL-ENT
M$REQUIRE      38**DCL-ENT
M$RETRY      87**DCL-ENT
M$RETRYS      87**DCL-ENT
M$REW      33**DCL-ENT
M$RLSFLD      61**DCL-ENT
M$RPRIV      89**DCL-ENT
M$RSPP      68**DCL-ENT
M$RSWITCH      90**DCL-ENT
M$RUE      96**DCL-ENT
M$SAD      69**DCL-ENT
M$SAVE      45**DCL-ENT
M$SCON      46**DCL-ENT
M$SCREECH      44**DCL-ENT
M$SENV      86**DCL-ENT
M$SETFMA      30**DCL-ENT
M$SETFP      59**DCL-ENT
M$SINPUT      57**DCL-ENT
M$SLCFLD      62**DCL-ENT
M$SMOUSE      76**DCL-ENT
M$SMPRT      68**DCL-ENT
M$SPRIV      89**DCL-ENT
M$SSC      69**DCL-ENT
M$SSWITCH      89**DCL-ENT
M$STATE      98**DCL-ENT
M$STD      70**DCL-ENT
M$STIMER      84**DCL-ENT
M$STLPP      67**DCL-ENT
M$STRAP      84**DCL-ENT
M$STRMATTR      56**DCL-ENT
M$STRMCTL      54**DCL-ENT
M$STRMTAB      57**DCL-ENT
M$SYMBIO      95**DCL-ENT
PL6.E3A0      #001=DFR$EVENTRPT File=DFR$EVENTRPT.:E05TSI                        TUE 07/29/97 14:41 Page:29
M$SYSCON      81**DCL-ENT
M$SYSID      99**DCL-ENT
M$TDCLOSE      80**DCL-ENT
M$TDIO      80**DCL-ENT
M$TDOPEN      79**DCL-ENT
M$TDREQCPU      80**DCL-ENT
M$TEMPWROC      74**DCL-ENT
M$TIME      97**DCL-ENT
M$TRAP      84**DCL-ENT
M$TRMISC      59**DCL-ENT
M$TRMPRG      55**DCL-ENT
M$TRTN      88**DCL-ENT
M$TRUNC      31**DCL-ENT
M$TTIMER      84**DCL-ENT
M$UC      54**DCL
M$UMPL      71**DCL-ENT
M$UNFID      93**DCL-ENT
M$UNLATCH      50**DCL-ENT
M$UNSHARE      47**DCL-ENT
M$USRFIELD      90**DCL-ENT
M$VIRTUAL      65**DCL-ENT
M$WAIT      88**DCL-ENT
M$WEOF      33**DCL-ENT
M$WRITE      31**DCL-ENT
M$WRSYSLOG      79**DCL-ENT
M$XCON      85**DCL-ENT
M$XCONRTN      46**DCL-ENT
M$XEQTIME      98**DCL-ENT
M$XFLUSH      39**DCL-ENT
M$XMOUSE      76**DCL-ENT
M$XXX      42**DCL-ENT
M$YC      44**DCL-ENT
S_D_ACCESS$    4686**DCL
S_D_ANLZ$    4688**DCL
S_D_ASTACKOFF$    4687**DCL
S_D_BREAK$    4689**DCL
PL6.E3A0      #001=DFR$EVENTRPT File=DFR$EVENTRPT.:E05TSI                        TUE 07/29/97 14:41 Page:30
S_D_DO_SCAN$    4690**DCL
S_D_ERROR$    4691**DCL
S_D_FAULTCMD$$    4692**DCL
S_D_FAULTINS$$    4693**DCL
S_D_GOIC$    4694**DCL
S_D_GO_MODE$    4695**DCL
S_D_HOST_MESSAGE$    4707**DCL
S_D_HW_PTB_UNITS$    4711**DCL
S_D_HW_RES_MEM$    4709**DCL
S_D_HW_WSQ0PT$    4710**DCL
S_D_IPRFLT$    4697**DCL
S_D_IXFIX$    4696**DCL
S_D_REM_ACCESS$    4698**DCL
S_D_REM_DISKBOOT$    4700**DCL
S_D_REM_DO_SCAN$    4699**DCL
S_D_RETURNN$    4701**DCL
S_D_SAD$    4702**DCL
S_D_SAVEIC$    4703**DCL
S_D_SEG$    4685**DCL
S_D_TCB$$    4704**DCL
S_D_UREG$$    4705**DCL
S_D_USS$$    4706**DCL
