PL6.E3A0      #001=DFR$INSTR File=DFR$INSTR.:E05TSI                              TUE 07/29/97 14:41 Page:1
        1        1        /*M*     INITIALIZED DATA REQUIRED FOR L6 INSTRUCTION BREAK-OUT*/
        2        2        /*T***********************************************************/
        3        3        /*T*                                                         */
        4        4        /*T* Copyright (c) Bull HN Information Systems Inc., 1997    */
        5        5        /*T*                                                         */
        6        6        /*T***********************************************************/
        7        7        /*F* NAME: DFR$INSTR
        8        8             PURPOSE: To convert machine codes into corresponding mnemonics */
        9        9
       10       10        /*D* NAME: DFR$INSTR
       11       11             INPUT: INSTRUCT     16 words, each word contains 16 bits of L6
       12       12                                 machine codes right justified.
       13       13                    OUT          Tells this routine whether the instruction mnemonics
       14       14                                 should be inserted where S_D.D$ points at.
       15       15             OUTPUT: INSTR_SIZE  Number of words of the instruction
       16       16                                 If the user let OUT='1'B, the instructin mnemonics
       17       17                                 will be put in where S_D.D$ points at for future
       18       18                                 display */
       19       19
       20       20
       21       21        DFR$INSTR: PROC (INSTRUCT, INSTR_SIZE, OUT, PTAB) ALTRET;
       22       22
       23       23
       24       24        /*M*     INITIALIZED DATA REQUIRED FOR L6 INSTRUCTION BREAK-OUT*/
       25       25
       26       26
       27       27        %INCLUDE XUH_MACRO_C;
       28      111        %INCLUDE DD_ERR_C;
       29      508        %INCLUDE DD_SD_M;
       30     1844        %S_D;
       31     3162        %INCLUDE DD$BASED;
       32     4465        %FPRG$CONTEXT;
       33     4528
       34     4529
       35     4530    1   DCL INSTRUCTIONS(0:511) CHAR(8) SYMREF READONLY;
       36     4531    1   DCL INSTRUCTION_TYPE(0:511) UBIN SYMREF READONLY;
       37     4532    1   DCL GENERIC_INSTRUCTIONS(0:127) CHAR(7) SYMREF READONLY;
PL6.E3A0      #001=DFR$INSTR File=DFR$INSTR.:E05TSI                              TUE 07/29/97 14:41 Page:2
       38     4533    1   DCL GENERIC_TYPE(0:127) UBIN SYMREF READONLY;
       39     4534    1   DCL SHIFT_INSTRUCTIONS(0:55) CHAR(6) SYMREF READONLY;
       40     4535    1   DCL SHIFT_D_INSTRUCTIONS(0:55) CHAR(6) SYMREF READONLY;
       41     4536    1   DCL 1 CMML(0:15) CONSTANT,
       42     4537    1         2 DDCNT UBIN(18)UNAL INIT(
       43     4538    1            3,2,2,3,3,2,3,2,3,2,2,3,2,2,1,2),
       44     4539    1         2 TYPE UBIN(18)UNAL INIT(
       45     4540    1   /*0A,1N,2E*/ 0,0,0,0,2,1,2,1,0,1,1,1,1,1,1,1);
       46     4541    1   DCL 1 RASSED_INSTR ,
       47     4542    1         2 COUNT UBIN,
       48     4543    1         2 BUFFER CHAR(80),
       49     4544    1         2 WORDS_USED UBIN;
       50     4545    1   DCL BUF_L UBIN;
       51     4546    1   DCL BUF_T CHAR(BUF_L) BASED;
       52     4547    1   DCL INSTRUCT(0:15) UBIN WORD;
       53     4548    1   DCL 1 INSTRUCT2(0:15) REDEF INSTRUCT,
       54     4549    1         2 * BIT(20) UNAL,
       55     4550    1         2 RIGHT16 BIT(16) UNAL;
       56     4551    1   DCL INSTR_IN(0:15) BIT(16);
       57     4552    1   DCL INSTR_ARRAY(0:15) UBIN(16) UNAL;
       58     4553    1   DCL PREL CHAR(6) CONSTANT INIT(',PREL^');
       59     4554    1   DCL R_REGISTERS(0:7) CHAR(3) CONSTANT INIT(
       60     4555    1       'X', ',R1', ',R2', ',R3', ',R4', ',R5', ',R6', ',R7');
       61     4556    1   DCL B_REGISTERS(0:7) CHAR(3) CONSTANT INIT(
       62     4557    1       'X', ',B1', ',B2', ',B3', ',B4', ',B5', ',B6', ',B7');
       63     4558    1   DCL OP_R_REGS(0:7) CHAR(2) CONSTANT INIT(
       64     4559    1       'X', 'R1', 'R2', 'R3', 'R4', 'R5', 'R6', 'R7');
       65     4560    1   DCL OP_B_REGS(0:7) CHAR(2) CONSTANT INIT(
       66     4561    1       'X', 'B1', 'B2', 'B3', 'B4', 'B5', 'B6', 'B7');
       67     4562    1   DCL SCI_REGS(0:3) CHAR(2) CONSTANT INIT(
       68     4563    1       'X', 'S1', 'S2', 'S3');
       69     4564    1   DCL INSTR UBIN(16) UNAL;
       70     4565    1   DCL 1 INSTRUCTION REDEF INSTR,
       71     4566    1         2 INDEXX UBIN(9) UNAL,            /* opcode register etc.               */
       72     4567    1         2 FUNCTION UBIN(7) UNAL;          /* function for generics              */
       73     4568    1   DCL 1 SV REDEF INSTR,                   /* short value instrctions            */
       74     4569    1         2 * UBIN(8) UNAL,                 /* short value opcode                 */
PL6.E3A0      #001=DFR$INSTR File=DFR$INSTR.:E05TSI                              TUE 07/29/97 14:41 Page:3
       75     4570    1         2 VALUE SBIN(8) UNAL;             /* immediate value                    */
       76     4571    1   DCL 1 ADDR_SYL REDEF INSTR,             /* address syllable                   */
       77     4572    1         2 * UBIN(9) UNAL,
       78     4573    1         2 PHRASE UBIN(7) UNAL,            /* address sysllable                  */
       79     4574    1         2 FRAME REDEF PHRASE UNAL,
       80     4575    1           3 M_FIELD UBIN(3) UNAL,         /* M field in addr syl                */
       81     4576    1           3 INDIRECT_FIELD UBIN(1) UNAL,  /* @ field in addr syl                */
       82     4577    1           3 N_FIELD UBIN(3) UNAL;         /* N field in addr syl                */
       83     4578    1   DCL 1 SHIFT_SINGLE REDEF INSTR,         /* single word shift                  */
       84     4579    1         2 * UBIN(12) UNAL,
       85     4580    1         2 VALUE UBIN(4) UNAL;             /* shift count & direction            */
       86     4581    1   DCL 1 SHIFT_DOUBLE REDEF INSTR,         /* double word shift                  */
       87     4582    1         2 * UBIN(11) UNAL,
       88     4583    1         2 VALUE UBIN(5) UNAL;             /* shift count and direction          */
       89     4584    1   DCL 1 BRANCH_FRAME REDEF INSTR,         /* branch instruction                 */
       90     4585    1         2 * UBIN(9) UNAL,
       91     4586    1         2 VALUE SBIN(7) UNAL;             /* displacement                       */
       92     4587    1   DCL 1 FORM REDEF INSTR,
       93     4588    1         2 HEX1 UBIN(4) UNAL,         /* structure useful for shift and others   */
       94     4589    1         2 HEX2 UBIN(4) UNAL,
       95     4590    1         2 HEX3 UBIN(4) UNAL,
       96     4591    1         2 HEX3R REDEF HEX3 UNAL,
       97     4592    1           3 B1 UBIN(1) UNAL,
       98     4593    1           3 * UBIN(3) UNAL,
       99     4594    1         2 HEX3S REDEF HEX3 UNAL,
      100     4595    1           3 TYPE UBIN(3) UNAL,            /* shift type                         */
      101     4596    1           3 * UBIN(1) UNAL,
      102     4597    1         2 HEX4 UBIN(4) UNAL;
      103     4598    1   DCL 1 RLQ_INSTR REDEF INSTR,
      104     4599    1         2 RLQ_INDICATOR UBIN(13) UNAL,    /* Rlq indicator must = 0             */
      105     4600    1         2 REGISTER UBIN(3) UNAL;          /* B reg rlq affects                  */
      106     4601    1   DCL 1 LDT_INSTR REDEF INSTR,
      107     4602    1         2 LDT_INDICATOR1 UBIN(9) UNAL,    /* Ldt INDICATOR1 must = 0            */
      108     4603    1         2 REGISTER UBIN(3) UNAL,          /* B reg ldt affects                  */
      109     4604    1         2 LDT_INDICATOR2 UBIN(4) UNAL;    /* Also must = 0                      */
      110     4605    1   DCL 1 ACQ_INSTR REDEF INSTR,
      111     4606    1         2 ACQ_INDICATOR1 UBIN(9) UNAL,    /* Must = 0                           */
PL6.E3A0      #001=DFR$INSTR File=DFR$INSTR.:E05TSI                              TUE 07/29/97 14:41 Page:4
      112     4607    1         2 ACQ_R_REG UBIN(3) UNAL,         /* R reg acq affects                  */
      113     4608    1         2 ACQ_INDICATOR2 UBIN(1) UNAL,    /* Also must = 0                      */
      114     4609    1         2 ACQ_B_REG UBIN(3) UNAL;         /* B reg acq affects                  */
      115     4610    1   DCL INDEX_FLAG BIT(1);
      116     4611    1   DCL DECODED_TEXT CHAR(64);
      117     4612    1   DCL I_O_INSTR_FLAG BIT(1);
      118     4613    1   DCL IOLD_INSTR_FLAG BIT(1);
      119     4614    1   DCL TEXT_HEX CHAR(16);
      120     4615    1   DCL L_ZEROS UBIN HALF;
      121     4616    1   DCL HEX_SIZE UBIN WORD;
      122     4617    1   DCL I UBIN WORD;
      123     4618    1   DCL INSTR_SIZE UBIN WORD;
      124     4619    1   DCL OUT BIT(1) ALIGNED;
      125     4620    1   DCL PTAB BIT(1) ALIGNED;
      126     4621    1   DCL TAB BIT(1) ALIGNED;
      127     4622
      128     4623    1   DCL DFR$BINHEX ENTRY(4);
      129     4624                                                                                    /**/
      130     4625    2           DO I = 0 TO 15; /* Converting input */
      131     4626    2              INSTR_IN(I) = INSTRUCT2.RIGHT16(I);
      132     4627    2           END;
      133     4628    1           INSTR_ARRAY = INSTR_IN;
      134     4629    1           INSTR = INSTR_ARRAY(0);
      135     4630    1           RASSED_INSTR.COUNT = 0;
      136     4631    1           RASSED_INSTR.BUFFER = ' ';
      137     4632    1           RASSED_INSTR.WORDS_USED = 0;
      138     4633    1           I_O_INSTR_FLAG = '0'B;
      139     4634    1           IF ADDR(PTAB) ~= ADDR(NIL)
      140     4635    1           THEN TAB = PTAB;
      141     4636    1           ELSE TAB = '0'B;
      142     4637    1           IF TAB
      143     4638    2           THEN DO;
      144     4639    2                S_D.L6_TAB = '0'B;
      145     4640    2                S_D.L6_TAB_VALUE = 0;
      146     4641    2              END;
      147     4642                                                                                    /**/
      148     4643    2   TYPE_DECODE: DO CASE ( INSTRUCTION_TYPE(INSTRUCTION.INDEXX) );
PL6.E3A0      #001=DFR$INSTR File=DFR$INSTR.:E05TSI                              TUE 07/29/97 14:41 Page:5
      149     4644                                                                                    /**/
      150     4645    2            CASE(0);                       /* unknown instruction                */
      151     4646    3              DO;
      152     4647    3                 END;                      /* end case 0                         */
      153     4648    2            CASE(1);                       /* generic or commercial instruction  */
      154     4649                                                                                    /**/
      155     4650    3   GENERIC_DECODE: DO CASE( GENERIC_TYPE(INSTRUCTION.FUNCTION) );
      156     4651                                                                                    /**/
      157     4652    3               CASE(0);                    /* unknown generic                    */
      158     4653    4                 DO;
      159     4654    4                    END;                   /* case 0                             */
      160     4655    3               CASE(1);                    /* generics                           */
      161     4656    3                 RASSED_INSTR.BUFFER = GENERIC_INSTRUCTIONS(INSTRUCTION.FUNCTION);
      162     4657    3                 RASSED_INSTR.WORDS_USED = 1; /* end case 1                      */
      163     4658    3                 CALL INDEX( RASSED_INSTR.COUNT, '^', RASSED_INSTR.BUFFER );
      164     4659                                                                                    /**/
      165     4660    3               CASE(2);                    /* second word determines function    */
      166     4661    3                 INSTR = INSTR_ARRAY(1);
      167     4662    4                 IF INSTR = 0 THEN DO;     /* It's a stt instruction             */
      168     4663    4   STT:             RASSED_INSTR.BUFFER = 'STT';
      169     4664    4                    RASSED_INSTR.WORDS_USED = 2;
      170     4665    4                    RASSED_INSTR.COUNT = 3;
      171     4666    4                    END;
      172     4667    4                 ELSE DO;
      173     4668                                                                                    /**/
      174     4669    5                    IF RLQ_INSTR.RLQ_INDICATOR = 0 THEN DO; /* It's an rlq instr */
      175     4670    5   RLQ:                CALL INSERT( RASSED_INSTR.BUFFER, 0,, 'RLQ ', OP_B_REGS(
              4670            RLQ_INSTR.REGISTER) );
      176     4671    5                       RASSED_INSTR.WORDS_USED = 2;
      177     4672    5                       RASSED_INSTR.COUNT = 6;
      178     4673    5                       END;
      179     4674    5                    ELSE DO;
      180     4675                                                                                    /**/
      181     4676    6                       IF LDT_INSTR.LDT_INDICATOR1 = 0 AND LDT_INSTR.LDT_INDICATOR2 =0
              4676                                THEN DO; /* It's a ldt instr */
      182     4677    6   LDT:                   CALL INSERT( RASSED_INSTR.BUFFER, 0,, 'LDT ', OP_B_REGS(
              4677            LDT_INSTR.REGISTER) );
PL6.E3A0      #001=DFR$INSTR File=DFR$INSTR.:E05TSI                              TUE 07/29/97 14:41 Page:6
      183     4678    6                          RASSED_INSTR.WORDS_USED = 2;
      184     4679    6                          RASSED_INSTR.COUNT = 6;
      185     4680    6                          END;
      186     4681    6                       ELSE DO;
      187     4682                                                                                    /**/
      188     4683    6                          IF ACQ_INSTR.ACQ_INDICATOR1 = 0 AND
      189     4684    6                             ACQ_INSTR.ACQ_INDICATOR2 =0
      190     4685    7                          THEN DO; /* It's an acq instr */
      191     4686    7   ACQ:                     CALL INSERT( RASSED_INSTR.BUFFER, 0,, 'ACQ ',
      192     4687    7                               B_REGISTERS(ACQ_INSTR.ACQ_B_REG), R_REGISTERS(ACQ_INSTR.
              4687                                        ACQ_R_REG) );
      193     4688    7                             RASSED_INSTR.WORDS_USED = 2;
      194     4689    7                             RASSED_INSTR.COUNT = 10;
      195     4690    7                             END;
      196     4691    6                          END;
      197     4692    5                       END;
      198     4693    4                    END;
      199     4694                                                                                    /**/
      200     4695    3               CASE(3);                    /* commercial instructions            */
      201     4696    3                 RASSED_INSTR.BUFFER = GENERIC_INSTRUCTIONS(INSTRUCTION.FUNCTION);
      202     4697    3                 RASSED_INSTR.WORDS_USED = 1;
      203     4698    3                 RASSED_INSTR.COUNT = 4;
      204     4699    3                 CALL DECODE_DD ALTRET(BAD_ADDR_SYL);
      205     4700    3                 IF CMML.DDCNT(FORM.HEX4)>1 THEN
      206     4701    3                 CALL DECODE_DD ALTRET(BAD_ADDR_SYL);
      207     4702    3                 IF CMML.DDCNT(FORM.HEX4)>2 THEN
      208     4703    3                 CALL DECODE_DD ALTRET(BAD_ADDR_SYL);
      209     4704    3                 IF FORM.HEX4 = 14 THEN
      210     4705    3                 CALL DECODE_SCW ALTRET(BAD_ADDR_SYL); /* SHIFT CTL WD */
      211     4706    3               END GENERIC_DECODE;
      212     4707                                                                                    /**/
      213     4708    2            CASE(2,                        /* branch on indicators except  b     */
      214     4709    2                3,                         /* B instruction                      */
      215     4710    2                4,                         /* branch on register                 */
      216     4711    2                6,                         /* commercial set branch              */
      217     4712    2                7,                         /* branch on scientific register      */
      218     4713    2                22);                       /* scientific branch on indicators    */
PL6.E3A0      #001=DFR$INSTR File=DFR$INSTR.:E05TSI                              TUE 07/29/97 14:41 Page:7
      219     4714    2              CALL BRANCH;
      220     4715                                                                                    /**/
      221     4716    2            CASE(5);                       /* short value immediate              */
      222     4717    2              CALL SHORT_VALUE_IMMEDIATE;
      223     4718                                                                                    /**/
      224     4719    2            CASE(8, 10, 12, 14, 16, 18, 20); /* shift R1-R7                      */
      225     4720    2              CALL SHIFT_SINGLE_REG;
      226     4721                                                                                    /**/
      227     4722    2            CASE(9, 11, 13, 15, 17, 19, 21); /* double shift R1-R7               */
      228     4723    2              CALL SHIFT_DOUBLE_REG;
      229     4724                                                                                    /**/
      230     4725    2            CASE(23);                      /* Io or ioh                          */
      231     4726    2              I_O_INSTR_FLAG = '1'B;
      232     4727    2              CALL I_O_INSTR;
      233     4728    2              I_O_INSTR_FLAG = '0'B;
      234     4729                                                                                    /**/
      235     4730    2            CASE(24);                      /* Iold                               */
      236     4731    2              IOLD_INSTR_FLAG = '1'B;
      237     4732    2              I_O_INSTR_FLAG = '1'B;
      238     4733    2              CALL I_O_INSTR;
      239     4734    2              IOLD_INSTR_FLAG = '0'B;
      240     4735    2              I_O_INSTR_FLAG = '0'B;
      241     4736                                                                                    /**/
      242     4737    2            CASE(25, 26 ,37);         /* standard single operand instruction     */
      243     4738    2              RASSED_INSTR.BUFFER = INSTRUCTIONS(INSTRUCTION.INDEXX);
      244     4739    2              CALL DECODE_ADDR_SYL ALTRET(BAD_ADDR_SYL);
      245     4740    2              CALL DFR$MERGE( RASSED_INSTR.BUFFER, DECODED_TEXT, RASSED_INSTR.COUNT );
      246     4741                                                                                    /**/
      247     4742    2            CASE(27);                      /* 32 bit imo single operand          */
      248     4743    2              RASSED_INSTR.BUFFER = INSTRUCTIONS(INSTRUCTION.INDEXX);
      249     4744    2              CALL DECODE_ADDR_SYL ALTRET(BAD_ADDR_SYL);
      250     4745    2              CALL DFR$MERGE( RASSED_INSTR.BUFFER, DECODED_TEXT, RASSED_INSTR.COUNT );
      251     4746                                                                                    /**/
      252     4747    2            CASE(28);                      /* bit type operation                 */
      253     4748    2              RASSED_INSTR.BUFFER = INSTRUCTIONS(INSTRUCTION.INDEXX);
      254     4749    2              CALL DECODE_ADDR_SYL ALTRET(BAD_ADDR_SYL);
      255     4750    3              IF INDEX_FLAG THEN DO;       /* check to see if mask present       */
PL6.E3A0      #001=DFR$INSTR File=DFR$INSTR.:E05TSI                              TUE 07/29/97 14:41 Page:8
      256     4751    3                 CALL MASK_PRESENT;        /* mask there                         */
      257     4752    3                 END;
      258     4753    3              ELSE DO;
      259     4754    3                 END;                      /* no mask                            */
      260     4755    2              CALL DFR$MERGE( RASSED_INSTR.BUFFER, DECODED_TEXT, RASSED_INSTR.COUNT );
      261     4756                                                                                    /**/
      262     4757    2            CASE(29);                      /* save and restore, mask required    */
      263     4758    2              RASSED_INSTR.BUFFER = INSTRUCTIONS(INSTRUCTION.INDEXX);
      264     4759    2              CALL DECODE_ADDR_SYL ALTRET(BAD_ADDR_SYL);
      265     4760    2              CALL MASK_PRESENT;
      266     4761    2              CALL DFR$MERGE( RASSED_INSTR.BUFFER, DECODED_TEXT, RASSED_INSTR.COUNT );
      267     4762                                                                                    /**/
      268     4763    2            CASE(30);                      /* M register double operand          */
      269     4764    2              RASSED_INSTR.BUFFER = INSTRUCTIONS(INSTRUCTION.INDEXX);
      270     4765    2              CALL DECODE_ADDR_SYL ALTRET(BAD_ADDR_SYL);
      271     4766    2              CALL DFR$MERGE( RASSED_INSTR.BUFFER, DECODED_TEXT, RASSED_INSTR.COUNT );
      272     4767                                                                                    /**/
      273     4768    2            CASE(31);                      /* standard double operand            */
      274     4769    2              RASSED_INSTR.BUFFER = INSTRUCTIONS(INSTRUCTION.INDEXX);
      275     4770    2              CALL DECODE_ADDR_SYL ALTRET(BAD_ADDR_SYL);
      276     4771    2              CALL DFR$MERGE( RASSED_INSTR.BUFFER, DECODED_TEXT, RASSED_INSTR.COUNT );
      277     4772                                                                                    /**/
      278     4773    2            CASE(32);                      /* Lnj instruction                    */
      279     4774    2              RASSED_INSTR.BUFFER = INSTRUCTIONS( INSTRUCTION.INDEXX );
      280     4775    2              CALL DECODE_ADDR_SYL ALTRET(BAD_ADDR_SYL);
      281     4776    2              CALL DFR$MERGE( RASSED_INSTR.BUFFER, DECODED_TEXT, RASSED_INSTR.COUNT );
      282     4777                                                                                    /**/
      283     4778    2            CASE(33);                      /* base register double operand       */
      284     4779    2              RASSED_INSTR.BUFFER = INSTRUCTIONS(INSTRUCTION.INDEXX);
      285     4780    2              CALL DECODE_ADDR_SYL ALTRET(BAD_ADDR_SYL);
      286     4781    2              CALL DFR$MERGE( RASSED_INSTR.BUFFER, DECODED_TEXT, RASSED_INSTR.COUNT );
      287     4782                                                                                    /**/
      288     4783    2            CASE(34);                      /* scientific double operand          */
      289     4784    2              RASSED_INSTR.BUFFER = INSTRUCTIONS(INSTRUCTION.INDEXX);
      290     4785    2              CALL DECODE_ADDR_SYL ALTRET(BAD_ADDR_SYL);
      291     4786    2              CALL DFR$MERGE( RASSED_INSTR.BUFFER, DECODED_TEXT, RASSED_INSTR.COUNT );
      292     4787                                                                                    /**/
PL6.E3A0      #001=DFR$INSTR File=DFR$INSTR.:E05TSI                              TUE 07/29/97 14:41 Page:9
      293     4788    2            CASE(35);                      /* scientific double operand          */
      294     4789    2              RASSED_INSTR.BUFFER = INSTRUCTIONS(INSTRUCTION.INDEXX);
      295     4790    2              CALL DECODE_ADDR_SYL ALTRET(BAD_ADDR_SYL);
      296     4791    2              CALL DFR$MERGE( RASSED_INSTR.BUFFER, DECODED_TEXT, RASSED_INSTR.COUNT );
      297     4792                                                                                    /**/
      298     4793    2            CASE(36);                      /* double operand with required mask  */
      299     4794    2              RASSED_INSTR.BUFFER = INSTRUCTIONS(INSTRUCTION.INDEXX);
      300     4795    2              CALL DECODE_ADDR_SYL ALTRET(BAD_ADDR_SYL);
      301     4796    2              CALL MASK_PRESENT;
      302     4797    2              CALL DFR$MERGE( RASSED_INSTR.BUFFER, DECODED_TEXT, RASSED_INSTR.COUNT );
      303     4798    2            END TYPE_DECODE;
      304     4799    1   A_OK:   GOTO CHECK;
      305     4800                                                                                    /**/
      306     4801    1   BAD_ADDR_SYL: RASSED_INSTR.COUNT = 0;
      307     4802    1           RASSED_INSTR.BUFFER = ' ';
      308     4803    1           RASSED_INSTR.WORDS_USED = 0;
      309     4804    1   CHECK:
      310     4805                /* If we can't format the 16 words into an instruction, then
      311     4806                   format the 1st word into a hexadecimal number */
      312     4807
      313     4808    1           IF RASSED_INSTR.WORDS_USED = 0 THEN
      314     4809    2           DO;
      315     4810    2              CALL DFR$BINHEX ( INSTRUCT(0), TEXT_HEX, L_ZEROS, HEX_SIZE );
      316     4811    2              RASSED_INSTR.COUNT = HEX_SIZE + 1;
      317     4812    2              TEXT_HEX = SUBSTR ( TEXT_HEX, L_ZEROS, HEX_SIZE );
      318     4813    2              CALL INSERT ( RASSED_INSTR.BUFFER, 0, RASSED_INSTR.COUNT, '.', TEXT_HEX )
              4813                       ;
      319     4814    2              RASSED_INSTR.WORDS_USED = 1;
      320     4815    2           END;
      321     4816
      322     4817    1           INSTR_SIZE = RASSED_INSTR.WORDS_USED;
      323     4818
      324     4819
      325     4820                /* Check if mnemonics output is desired and if the output buffer
      326     4821
      327     4822                   is big enough */
      328     4823    1           IF OUT = '0'B THEN RETURN;
PL6.E3A0      #001=DFR$INSTR File=DFR$INSTR.:E05TSI                              TUE 07/29/97 14:41 Page:10
      329     4824    1           IF S_D.D$ >= S_D.DESCL$ THEN GOTO BUFULL;
      330     4825    1           BUF_L = POFFC ( S_D.DESCL$, S_D.D$ );
      331     4826    1           SUBSTR ( S_D.D$ -> BUF_T, 0, BUF_L ) =
      332     4827    1              SUBSTR ( RASSED_INSTR.BUFFER, 0, RASSED_INSTR.COUNT );
      333     4828    1           S_D.D$ = PINCRC ( S_D.D$, RASSED_INSTR.COUNT );
      334     4829    1           IF S_D.D$ > S_D.DESCL$ THEN GOTO BUFULL;
      335     4830    1           RETURN;
      336     4831
      337     4832    1   BUFULL: S_D.ERROR = E@BUFFULL;                        /* E@BUFFULL */
      338     4833    1           ALTRETURN;
      339     4834        %EJECT;
PL6.E3A0      #001=DFR$INSTR File=DFR$INSTR.:E05TSI                              TUE 07/29/97 14:41 Page:11
      340     4835    1   BRANCH: PROC;
      341     4836    2   DCL VALUE_TEXT CHAR(10);           /* Text string for decimal value of string */
      342     4837    2   DCL PREL_DISPLACEMENT SBIN(20) UNAL;
      343     4838    2   DCL DISPLACEMENT UBIN WORD;
      344     4839    2   DCL 1 R_DISPLACEMENT REDEF DISPLACEMENT,
      345     4840    2         2 * UBIN(16) UNAL,
      346     4841    2         2 HIGH_ORDER_BITS UBIN(4) UNAL,
      347     4842    2         2 LOW_ORDER_BITS UBIN(16) UNAL;
      348     4843    2   DCL POSITION UBIN WORD;
      349     4844    2   DCL SPREL CHAR(7) CONSTANT INIT(',SPREL^');
      350     4845    2   DCL VALUE SBIN WORD;
      351     4846    2   DCL DDR$POSIT ENTRY(5) ALTRET;
      352     4847    2   DCL SYM_BUF$ PTR;
      353     4848    2   DCL SYM_TEXT CHAR(64);
      354     4849    2   DCL SYM_LEN UBIN WORD;
      355     4850    2   DCL OFFSET SBIN WORD;                   /* Offset to that symbol              */
      356     4851    2   DCL SYMBOL_ADDR UBIN  WORD;             /* Addr of the symbol to be found     */
      357     4852    2   DCL T_SIGNED_16BITS SBIN(16) UNAL;
      358     4853    2   DCL SIGNED_16BITS SBIN(16) UNAL;
      359     4854    2   DCL SIGN UBIN WORD;
      360     4855                                                                                    /**/
      361     4856    2           SYM_BUF$ = ADDR (SYM_TEXT);
      362     4857    2           DISPLACEMENT = 0;
      363     4858    2           RASSED_INSTR.BUFFER = INSTRUCTIONS( INSTRUCTION.INDEXX );
      364     4859    3   DECODE_BRANCH: DO CASE( BRANCH_FRAME.VALUE );
      365     4860                                                                                    /**/
      366     4861    3            CASE( 0 );                /* Branch to address ( 20 bits worth )     */
      367     4862    3              R_DISPLACEMENT.HIGH_ORDER_BITS = INSTR_ARRAY(1);
      368     4863    3              R_DISPLACEMENT.LOW_ORDER_BITS = INSTR_ARRAY(2);
      369     4864    3              SYMBOL_ADDR = DISPLACEMENT;
      370     4865    3              CALL DDR$POSIT( SYMBOL_ADDR, SYM_BUF$, 64, SYM_LEN );
      371     4866    3              IF TAB
      372     4867    4              THEN DO;
      373     4868    4                   S_D.L6_TAB = '1'B;
      374     4869    4                   S_D.L6_TAB_VALUE = SYMBOL_ADDR;
      375     4870    4                 END;
      376     4871    4              IF SYM_LEN = 0 THEN DO ;  /* DDR$POSIT didn't find a match     */
PL6.E3A0      #001=DFR$INSTR File=DFR$INSTR.:E05TSI                              TUE 07/29/97 14:41 Page:12
      377     4872    4                 CALL DFR$BINHEX( DISPLACEMENT, TEXT_HEX, L_ZEROS );
      378     4873    4              IF TAB
      379     4874    5              THEN DO;
      380     4875    5                      S_D.L6_TAB = '1'B;
      381     4876    5                      S_D.L6_TAB_VALUE = DISPLACEMENT;
      382     4877    5                   END;
      383     4878    4                 CALL INDEX( POSITION, ' ', RASSED_INSTR.BUFFER );
      384     4879    4                 POSITION = POSITION + 1;
      385     4880    4                 IF L_ZEROS = 8 THEN CALL INSERT( RASSED_INSTR.BUFFER, POSITION,, '.0^'
              4880                          );
      386     4881    4                 ELSE
      387     4882    4                    CALL INSERT( RASSED_INSTR.BUFFER, POSITION,, '.', SUBSTR( TEXT_HEX,
              4882                             L_ZEROS, 8-L_ZEROS ), '^' );
      388     4883    4                 CALL INDEX( RASSED_INSTR.COUNT, '^', RASSED_INSTR.BUFFER );
      389     4884    4                 END;
      390     4885    4              ELSE DO;
      391     4886    4                 CALL INDEX( POSITION, ' ', RASSED_INSTR.BUFFER );
      392     4887    4                 POSITION = POSITION + 1;
      393     4888    4                 CALL INSERT( RASSED_INSTR.BUFFER, POSITION,, SUBSTR( SYM_TEXT, 0,
              4888                          SYM_LEN ) );
      394     4889    4                 RASSED_INSTR.COUNT = POSITION + SYM_LEN;
      395     4890    4                 END;
      396     4891    3              RASSED_INSTR.WORDS_USED = 3;
      397     4892                                                                                    /**/
      398     4893    3            CASE( 1 );                     /* Prel branch                        */
      399     4894    3              SIGNED_16BITS = INSTR_ARRAY(1);
      400     4895    3              DISPLACEMENT = SIGNED_16BITS;
      401     4896    4              IF SIGNED_16BITS < 0 THEN DO;
      402     4897    4                 T_SIGNED_16BITS = SIGNED_16BITS;
      403     4898    4                 T_SIGNED_16BITS = -T_SIGNED_16BITS;
      404     4899    4                 DISPLACEMENT = T_SIGNED_16BITS;
      405     4900    4                 END;
      406     4901    3              IF SIGNED_16BITS >= 0 THEN DISPLACEMENT = DISPLACEMENT + 1 ;
      407     4902    3              ELSE
      408     4903    3                 DISPLACEMENT = DISPLACEMENT - 1;
      409     4904    3              CALL DFR$BINHEX( DISPLACEMENT, TEXT_HEX, L_ZEROS );
      410     4905    3              IF TAB
PL6.E3A0      #001=DFR$INSTR File=DFR$INSTR.:E05TSI                              TUE 07/29/97 14:41 Page:13
      411     4906    4              THEN DO;
      412     4907    4                   S_D.L6_TAB = '1'B;
      413     4908    4                   IF SIGNED_16BITS < 0
      414     4909    4                   THEN S_D.L6_TAB_VALUE = S_D.O$.ADDRESS - DISPLACEMENT;
      415     4910    4                   ELSE S_D.L6_TAB_VALUE = S_D.O$.ADDRESS + DISPLACEMENT;
      416     4911    4                END;
      417     4912    3              CALL INDEX( POSITION, ' ', RASSED_INSTR.BUFFER );
      418     4913    3              POSITION = POSITION + 1;
      419     4914    3              IF SIGNED_16BITS < -1 THEN CALL INSERT( RASSED_INSTR.BUFFER, POSITION,,
              4914                       '$O-.', SUBSTR( TEXT_HEX, L_ZEROS, 8-L_ZEROS ), PREL );
      420     4915    3              ELSE IF SIGNED_16BITS = -1 THEN CALL INSERT( RASSED_INSTR.BUFFER,
              4915                       POSITION,, '$O', PREL );
      421     4916    3                   ELSE CALL INSERT( RASSED_INSTR.BUFFER, POSITION,, '$O+.', SUBSTR(
              4916                            TEXT_HEX, L_ZEROS, 8-L_ZEROS ), PREL );
      422     4917    3              CALL INDEX( RASSED_INSTR.COUNT, '^', RASSED_INSTR.BUFFER );
      423     4918    3              RASSED_INSTR.WORDS_USED = 2;
      424     4919                                                                                    /**/
      425     4920    3            CASE ( ELSE );            /* Sprel branch values from -64 to +63     */
      426     4921    3              VALUE = BRANCH_FRAME.VALUE;
      427     4922    3              IF VALUE < 0 THEN VALUE = -VALUE;
      428     4923                                                                                    /**/
      429     4924    3              CALL DFR$BINHEX( VALUE, TEXT_HEX, L_ZEROS );
      430     4925    3              IF TAB
      431     4926    4              THEN DO;
      432     4927    4                   S_D.L6_TAB = '1'B;
      433     4928    4                   IF BRANCH_FRAME.VALUE < 0
      434     4929    4                   THEN S_D.L6_TAB_VALUE = S_D.O$.ADDRESS - VALUE;
      435     4930    4                   ELSE S_D.L6_TAB_VALUE = S_D.O$.ADDRESS + VALUE;
      436     4931    4                 END;
      437     4932    3              CALL INDEX( POSITION, ' ', RASSED_INSTR.BUFFER );
      438     4933    3              POSITION = POSITION + 1;
      439     4934    3              IF BRANCH_FRAME.VALUE < 0 THEN CALL INSERT( RASSED_INSTR.BUFFER, POSITION
              4934                       ,, '$O-.',
      440     4935    3                   SUBSTR( TEXT_HEX, L_ZEROS, 8-L_ZEROS ), SPREL );
      441     4936    3                   ELSE CALL INSERT( RASSED_INSTR.BUFFER, POSITION,, '$O+.', SUBSTR(
              4936                            TEXT_HEX, L_ZEROS, 8-L_ZEROS ), SPREL );
      442     4937    3              CALL INDEX( RASSED_INSTR.COUNT, '^', RASSED_INSTR.BUFFER );
PL6.E3A0      #001=DFR$INSTR File=DFR$INSTR.:E05TSI                              TUE 07/29/97 14:41 Page:14
      443     4938    3              RASSED_INSTR.WORDS_USED = 1;
      444     4939    3            END DECODE_BRANCH;
      445     4940    2           RETURN;
      446     4941    2   END BRANCH;
      447     4942        %EJECT;
PL6.E3A0      #001=DFR$INSTR File=DFR$INSTR.:E05TSI                              TUE 07/29/97 14:41 Page:15
      448     4943    1   SHORT_VALUE_IMMEDIATE: PROC;
      449     4944    2   DCL VALUE_TEXT CHAR(10);
      450     4945    2   DCL VALUE SBIN WORD;
      451     4946    2   DCL POSITION UBIN WORD;
      452     4947                                                                                    /**/
      453     4948    2           RASSED_INSTR.BUFFER = INSTRUCTIONS( INSTRUCTION.INDEXX );
      454     4949    2           VALUE = SV.VALUE;
      455     4950    2           CALL CONVERT_BIN_TO_DEC( VALUE_TEXT, VALUE );
      456     4951    2           CALL INDEX( POSITION, ' ', RASSED_INSTR.BUFFER );
      457     4952    2           POSITION = POSITION + 1;
      458     4953    2           CALL INSERT( RASSED_INSTR.BUFFER, POSITION,, VALUE_TEXT );
      459     4954    2           RASSED_INSTR.WORDS_USED = 1;
      460     4955    2           CALL INDEX( RASSED_INSTR.COUNT, '^', RASSED_INSTR.BUFFER );
      461     4956    2           RETURN;
      462     4957    2   END SHORT_VALUE_IMMEDIATE;
      463     4958        %EJECT;
PL6.E3A0      #001=DFR$INSTR File=DFR$INSTR.:E05TSI                              TUE 07/29/97 14:41 Page:16
      464     4959    1   SHIFT_SINGLE_REG: PROC;
      465     4960    2   DCL VALUE SBIN WORD;
      466     4961    2   DCL VALUE_TEXT CHAR(10);
      467     4962    2   DCL REGISTER SBIN WORD;
      468     4963    2   DCL POSITION UBIN WORD;
      469     4964                                                                                    /**/
      470     4965    2           REGISTER = INSTRUCTION_TYPE(INSTRUCTION.INDEXX)/2-3;
      471     4966    2           RASSED_INSTR.BUFFER = SHIFT_INSTRUCTIONS( (REGISTER-1)*8+FORM.HEX3 );
      472     4967    2           VALUE = SHIFT_SINGLE.VALUE;
      473     4968    2           GOTO PROCESS_VALUE;
      474     4969        %EJECT;
PL6.E3A0      #001=DFR$INSTR File=DFR$INSTR.:E05TSI                              TUE 07/29/97 14:41 Page:17
      475     4970    2   SHIFT_DOUBLE_REG: ENTRY;
      476     4971                                                                                    /**/
      477     4972    2           REGISTER = ( INSTRUCTION_TYPE(INSTRUCTION.INDEXX)-1 )/2-3;
      478     4973    2           RASSED_INSTR.BUFFER = SHIFT_D_INSTRUCTIONS( (REGISTER-1)*4 + (FORM.HEX3S.
              4973                    TYPE-4) + 28 );
      479     4974    2           VALUE = SHIFT_DOUBLE.VALUE;
      480     4975                                          /* Index into shift_d_instructions
      481     4976                                             as if it were a two dimensioned
      482     4977                                            array with register as row and type as column */
      483     4978    2   PROCESS_VALUE: ;   /* At this point, we turn a binary number into
      484     4979                              a printable string of its decimal equ. */
      485     4980    2           VALUE_TEXT = ' ';
      486     4981    2           CALL CONVERT_BIN_TO_DEC( VALUE_TEXT, VALUE );
      487     4982    2           CALL INDEX( POSITION, ' ', RASSED_INSTR.BUFFER );
      488     4983    2           POSITION = POSITION+2;
      489     4984    2           CALL INSERT( RASSED_INSTR.BUFFER, POSITION,, VALUE_TEXT );
      490     4985    2           CALL INDEX( RASSED_INSTR.COUNT, '^', RASSED_INSTR.BUFFER );
      491     4986    2           RASSED_INSTR.WORDS_USED = 1;
      492     4987    2           RETURN;
      493     4988    2   END SHIFT_SINGLE_REG;
      494     4989        %EJECT;
PL6.E3A0      #001=DFR$INSTR File=DFR$INSTR.:E05TSI                              TUE 07/29/97 14:41 Page:18
      495     4990    1   I_O_INSTR: PROC ALTRET;
      496     4991    2   DCL END_POINT1 UBIN WORD;               /* End of DECODED_TEXT                */
      497     4992    2   DCL END_POINT2 UBIN WORD;               /* End of RASSED_INSTR.BUFFER         */
      498     4993    2   DCL WORDS_USED UBIN WORD;               /* Temp for words used                */
      499     4994    2   DCL WORDS_USED_2ND UBIN WORD;      /* # words used in second addr syl decode  */
      500     4995    2   DCL I UBIN WORD;
      501     4996                                                                                    /**/
      502     4997    2           RASSED_INSTR.BUFFER = INSTRUCTIONS(INSTRUCTION.INDEXX);
      503     4998    2           CALL DECODE_ADDR_SYL ALTRET( BAD_IO_SYL );
      504     4999    2           CALL INDEX( END_POINT1, ' ', DECODED_TEXT );
      505     5000    2           CALL INSERT( DECODED_TEXT, END_POINT1,, '), ^' );
      506     5001    2           CALL INDEX( END_POINT2, ' ', RASSED_INSTR.BUFFER );
      507     5002    2           END_POINT2 = END_POINT2 + 1;
      508     5003    2           CALL INSERT( RASSED_INSTR.BUFFER, END_POINT2,, '(', DECODED_TEXT );
      509     5004    2           CALL INDEX( END_POINT2, '^', RASSED_INSTR.BUFFER );
      510     5005    2           WORDS_USED = RASSED_INSTR.WORDS_USED;
      511     5006                                                                                    /**/
      512     5007    3           DO I = RASSED_INSTR.WORDS_USED TO 15;
      513     5008    3              INSTR_ARRAY(I - RASSED_INSTR.WORDS_USED) = INSTR_ARRAY(I);
      514     5009    3              END;
      515     5010                                                                                    /**/
      516     5011    2           INSTR = INSTR_ARRAY(0);
      517     5012    2           CALL DECODE_ADDR_SYL ALTRET( BAD_IO_SYL );
      518     5013    2           CALL INDEX( END_POINT1, ' ', DECODED_TEXT );
      519     5014    2           CALL INSERT( DECODED_TEXT, END_POINT1,, ')^' );
      520     5015    2           CALL INSERT( RASSED_INSTR.BUFFER, END_POINT2,, '(', DECODED_TEXT );
      521     5016    2           WORDS_USED_2ND = RASSED_INSTR.WORDS_USED;
      522     5017    2           RASSED_INSTR.WORDS_USED = WORDS_USED + RASSED_INSTR.WORDS_USED;
      523     5018    2           CALL INDEX( RASSED_INSTR.COUNT, '^', RASSED_INSTR.BUFFER );
      524     5019                                                                                    /**/
      525     5020    3           IF IOLD_INSTR_FLAG THEN DO;     /* Special case for .I.O.L.D. Instr   */
      526     5021    4              DO I = WORDS_USED_2ND TO 15;
      527     5022    4                 INSTR_ARRAY(I - WORDS_USED_2ND) = INSTR_ARRAY(I);
      528     5023    4                 END;
      529     5024    3              WORDS_USED = RASSED_INSTR.WORDS_USED;
      530     5025    3              INSTR = INSTR_ARRAY(0);
      531     5026    3              CALL DECODE_ADDR_SYL ALTRET( BAD_IO_SYL );
PL6.E3A0      #001=DFR$INSTR File=DFR$INSTR.:E05TSI                              TUE 07/29/97 14:41 Page:19
      532     5027    3              CALL INDEX( END_POINT1, ' ', DECODED_TEXT );
      533     5028    3              CALL INSERT( DECODED_TEXT, END_POINT1,, ')^' );
      534     5029    3              CALL INSERT( RASSED_INSTR.BUFFER, RASSED_INSTR.COUNT,, ', (',
              5029                       DECODED_TEXT );
      535     5030    3              CALL INDEX( RASSED_INSTR.COUNT, '^', RASSED_INSTR.BUFFER );
      536     5031    3              RASSED_INSTR.WORDS_USED = RASSED_INSTR.WORDS_USED + WORDS_USED;
      537     5032    3              END;
      538     5033                                                                                    /**/
      539     5034    2   GOOD_IO: RETURN;
      540     5035                                                                                    /**/
      541     5036    2   BAD_IO_SYL: RASSED_INSTR.COUNT = 0;
      542     5037    2           RASSED_INSTR.BUFFER = ' ';
      543     5038    2           RASSED_INSTR.WORDS_USED = 0;
      544     5039    2           RETURN;
      545     5040    2   END I_O_INSTR;
      546     5041        %EJECT;
PL6.E3A0      #001=DFR$INSTR File=DFR$INSTR.:E05TSI                              TUE 07/29/97 14:41 Page:20
      547     5042    1   DECODE_DD: PROC ALTRET;
      548     5043    2   DCL DDW1 UBIN;
      549     5044    2   DCL 1 DDW REDEF DDW1,
      550     5045    2         2 * BIT(20),
      551     5046    2         2 C UBIN(3)UNAL,
      552     5047    2         2 L UBIN(5)UNAL,
      553     5048    2         2 T BIT(1),
      554     5049    2         2 M UBIN(3)UNAL,
      555     5050    2         2 AN UBIN(4)UNAL;
      556     5051    2   DCL DDW2 SBIN;
      557     5052    2   DCL 1 DDW2U REDEF DDW2,
      558     5053    2         2 * BIT(20),
      559     5054    2         2 S SBIN(16)UNAL;
      560     5055    2   DCL 1 SCW REDEF DDW2,
      561     5056    2         2 * BIT(20),
      562     5057    2         2 DIR BIT(1),
      563     5058    2         2 * BIT(2),
      564     5059    2         2 C UBIN(5)UNAL,
      565     5060    2         2 RND BIT(1),
      566     5061    2         2 * BIT(7);
      567     5062    2   DCL INDX SBIN;
      568     5063    2           DDW1 = INSTR_ARRAY(RASSED_INSTR.WORDS_USED);
      569     5064    2           DDW2U.S = INSTR_ARRAY(RASSED_INSTR.WORDS_USED+1);
      570     5065    2           DDW2 = DDW2U.S;
      571     5066    2           INDX = RASSED_INSTR.COUNT;
      572     5067    3           IF INDX ~= 4 THEN DO;
      573     5068    3              CALL INSERT(RASSED_INSTR.BUFFER,INDX,2,',(');
      574     5069    3              INDX = INDX+1;
      575     5070    3              END;
      576     5071    2           ELSE CALL INSERT(RASSED_INSTR.BUFFER,4,1,'(');
      577     5072    2           INDX = INDX+1;
      578     5073    3           IF DDW.AN = 0 THEN DO;
      579     5074    3              CALL INSERT(RASSED_INSTR.BUFFER,INDX,8,'RDD0000)');
      580     5075    3              CALL BINCHAR(SUBSTR(RASSED_INSTR.BUFFER,INDX+3,4),DDW1/16);
      581     5076    3              RASSED_INSTR.WORDS_USED = RASSED_INSTR.WORDS_USED+1;
      582     5077    3              RASSED_INSTR.COUNT = INDX+8;
      583     5078    3              RETURN;
PL6.E3A0      #001=DFR$INSTR File=DFR$INSTR.:E05TSI                              TUE 07/29/97 14:41 Page:21
      584     5079    3              END;
      585     5080    2           RASSED_INSTR.WORDS_USED = RASSED_INSTR.WORDS_USED+2;
      586     5081    2           CALL INSERT(RASSED_INSTR.BUFFER,INDX,7,'C',BINASC(DDW.C+48),',L00,');
      587     5082    2           CALL BINCHAR(SUBSTR(RASSED_INSTR.BUFFER,INDX+4,2),DDW.L);
      588     5083    2           INDX = INDX+7;
      589     5084    3            IF DDW.T THEN DO;
      590     5085    3               CALL INSERT(RASSED_INSTR.BUFFER,INDX,2,'T,');
      591     5086    3               INDX = INDX+2;
      592     5087    3               END;
      593     5088    3            IF DDW.AN = 8 THEN DO CASE(DDW.M);
      594     5089    3               CASE(0,1,2,3);
      595     5090    3                  CALL INSERT(RASSED_INSTR.BUFFER,INDX,1,'$O');
      596     5091    3                  INDX = INDX+1;
      597     5092    3                  GOTO DSP_RM;
      598     5093    3               CASE(4);
      599     5094    3                  CALL INSERT(RASSED_INSTR.BUFFER,INDX,2,'*$O');
      600     5095    3                  INDX = INDX+2;
      601     5096    3                  DDW.M = 0; /* NO POST INDEX */
      602     5097    3                  GOTO DSP_RM;
      603     5098    3               CASE(7);
      604     5099    3                  CALL CONVERT_BIN_TO_DEC(SUBSTR(RASSED_INSTR.BUFFER,INDX,1),DDW2);
      605     5100    3                  CALL INDEX(INDX,'^',RASSED_INSTR.BUFFER);
      606     5101    3                  CALL INSERT(RASSED_INSTR.BUFFER,INDX,5,',IMO)');
      607     5102    3                  RASSED_INSTR.COUNT = INDX+5;
      608     5103    3                  RETURN;
      609     5104    3               CASE(ELSE);
      610     5105    3                  ALTRETURN;
      611     5106    3               END;
      612     5107    3            IF DDW.AN>8 THEN DO;
      613     5108    3               CALL INSERT(RASSED_INSTR.BUFFER,INDX,1,'*');
      614     5109    3               INDX = INDX+1;
      615     5110    3               END;
      616     5111    2            CALL INSERT(RASSED_INSTR.BUFFER,INDX,2,'B',BINASC(MOD(DDW.AN,8)+48));
      617     5112    2            INDX = INDX+2;
      618     5113    2   DSP_RM:;
      619     5114    3            IF DDW2 ~= 0 THEN DO;
      620     5115    3               CALL INSERT(RASSED_INSTR.BUFFER,INDX,1,'+');
PL6.E3A0      #001=DFR$INSTR File=DFR$INSTR.:E05TSI                              TUE 07/29/97 14:41 Page:22
      621     5116    3               IF DDW2>0 THEN INDX = INDX+1;
      622     5117    3               CALL CONVERT_BIN_TO_DEC(SUBSTR(RASSED_INSTR.BUFFER,INDX,1),DDW2);
      623     5118    3               CALL INDEX(INDX,'^',RASSED_INSTR.BUFFER);
      624     5119    3               END;
      625     5120    3            IF DDW.M ~= 0 THEN DO;
      626     5121    3               CALL INSERT(RASSED_INSTR.BUFFER,INDX,3,',R',BINASC(DDW.M+48));
      627     5122    3               INDX = INDX+3;
      628     5123    3               END;
      629     5124    2            CALL INSERT(RASSED_INSTR.BUFFER,INDX,1,')');
      630     5125    2            RASSED_INSTR.COUNT = INDX+1;
      631     5126    2            RETURN;
      632     5127        /**/
      633     5128    2   DECODE_SCW: ENTRY ALTRET;
      634     5129    2            DDW1 = INSTR_ARRAY(RASSED_INSTR.WORDS_USED);
      635     5130    2            DDW2 = INSTR_ARRAY(RASSED_INSTR.WORDS_USED+1);
      636     5131    2            RASSED_INSTR.WORDS_USED = RASSED_INSTR.WORDS_USED+2;
      637     5132    2            INDX = RASSED_INSTR.COUNT;
      638     5133    3            IF DDW1 = 120 THEN DO;
      639     5134    3               CALL INSERT(RASSED_INSTR.BUFFER,INDX,3,',R5');
      640     5135    3               RASSED_INSTR.COUNT = INDX+3;
      641     5136    3               RETURN;
      642     5137    3               END;
      643     5138    2            IF DDW1 ~= 376 THEN ALTRETURN;
      644     5139    2            IF SCW.DIR THEN CALL INSERT(RASSED_INSTR.BUFFER,0,3,'DRS');
      645     5140    2            ELSE CALL INSERT(RASSED_INSTR.BUFFER,0,3,'DFS');
      646     5141    2            CALL BINCHAR(SUBSTR(RASSED_INSTR.BUFFER,INDX+1,2),SCW.C);
      647     5142    3            IF SCW.RND THEN DO;
      648     5143    3               CALL INSERT(RASSED_INSTR.BUFFER,INDX+3,4,',RND');
      649     5144    3               INDX = INDX+4;
      650     5145    3               END;
      651     5146    2            RASSED_INSTR.COUNT = INDX+3;
      652     5147    2            RETURN;
      653     5148    2   END DECODE_DD;
      654     5149        %EJECT;
PL6.E3A0      #001=DFR$INSTR File=DFR$INSTR.:E05TSI                              TUE 07/29/97 14:41 Page:23
      655     5150    1   DECODE_ADDR_SYL: PROC ALTRET;
      656     5151    2   DCL ADDRESS UBIN WORD;
      657     5152    2   DCL 1 R_ADDRESS REDEF ADDRESS,
      658     5153    2         2 * UBIN(16) UNAL,
      659     5154    2         2 HIGH_ORDER_BITS UBIN(4) UNAL,
      660     5155    2         2 LOW_ORDER_BITS UBIN(16) UNAL;
      661     5156    2   DCL 1 R_ADDRESS_32BITS REDEF ADDRESS,
      662     5157    2         2 * UBIN(4) UNAL,
      663     5158    2         2 HIGH_ORDER_BITS UBIN(16) UNAL,
      664     5159    2         2 LOW_ORDER_BITS UBIN(16) UNAL;
      665     5160    2   DCL DISPLACEMENT UBIN WORD;
      666     5161    2   DCL SYM_BUF$ PTR;
      667     5162    2   DCL SYM_TEXT CHAR(64);
      668     5163    2   DCL SYM_LEN UBIN WORD;
      669     5164    2   DCL OFFSET SBIN WORD;
      670     5165    2   DCL SIGNED_VALUE SBIN(16) UNAL;
      671     5166    2   DCL SIGNED_16BITS SBIN(16) UNAL;
      672     5167    2   DCL T_SIGNED_16BITS SBIN(16) UNAL;
      673     5168    2   DCL T_SIGNED_VALUE SBIN(16);
      674     5169    2   DCL UNSIGNED_VALUE UBIN(16) UNAL;
      675     5170    2   DCL UNSIGNED_VALUE_20BITS UBIN(20) UNAL;
      676     5171    2   DCL SIGNED_VALUE_32BITS SBIN(32) ;
      677     5172    2   DCL T_SIGNED_VALUE_32BITS SBIN(32) UNAL;
      678     5173    2   DCL SIGN SBIN WORD;
      679     5174    2   DCL TEXTX CHAR(5);
      680     5175    2   DCL POSITION UBIN WORD;
      681     5176    2   DCL START UBIN WORD;
      682     5177    2   DCL LEN UBIN WORD;
      683     5178    2   DCL B_INDEXED BIT(1) ALIGNED;
      684     5179    2   DCL N UBIN;
      685     5180    2   DCL 1 V,
      686     5181    2         2 * UBIN,
      687     5182    2         2 X(0:1) UBIN,
      688     5183    2         2 *(0:13) UBIN;
      689     5184                                                                                    /**/
      690     5185    2   DCL DDR$POSIT ENTRY(5) ALTRET;
      691     5186    2   DCL DFK$GETMVAL ENTRY(6) ALTRET;
PL6.E3A0      #001=DFR$INSTR File=DFR$INSTR.:E05TSI                              TUE 07/29/97 14:41 Page:24
      692     5187    2   DCL DDE$ERROR ENTRY;
      693     5188                                                                                    /**/
      694     5189    2           SYM_BUF$ = ADDR (SYM_TEXT);
      695     5190    2           DECODED_TEXT = ' ';
      696     5191    2           ADDRESS = 0;
      697     5192    2           INDEX_FLAG = '0'B;
      698     5193    2           B_INDEXED = '0'B;
      699     5194    3   DECODE : DO CASE( ADDR_SYL.PHRASE );
      700     5195                                                                                    /**/
      701     5196    3            CASE ( 80,                     /* M=5, @=0, N=0                      */
      702     5197    3                88,                        /* M=5, @=0, N=0                      */
      703     5198    3                92,                        /* M=5, @=1, N=4                      */
      704     5199    3                96,                        /* M=6, @=0, N=0    r. F. U.          */
      705     5200    3                104,                       /* M=6, @=1, N=4                      */
      706     5201    3                108,                       /* M=6, @=1, N=4                      */
      707     5202    3                124);                      /* M=7, @=1, N=4                      */
      708     5203                                                                                    /**/
      709     5204    3              ALTRETURN;
      710     5205                                                                                    /**/
      711     5206    3            CASE ( 97,                     /* M=6, @=0, N=1                      */
      712     5207    3                98,                        /* M=6, @=0, N=2                      */
      713     5208    3                99,                        /* M=6, @=0, N=3                      */
      714     5209    3                100,                       /* M=6, @=0, N=4   push on b register */
      715     5210    3                101,                       /* M=6, @=0, N=5                      */
      716     5211    3                102,                       /* M=6, @=0, N=6                      */
      717     5212    3                103);                      /* M=6, @=0, N=7                      */
      718     5213                                                                                    /**/
      719     5214    3              CALL INSERT( DECODED_TEXT, 0,, B_REGISTERS(ADDR_SYL.FRAME.N_FIELD),
              5214                       ',PUSH' );
      720     5215    3              RASSED_INSTR.WORDS_USED = 1;
      721     5216    3              INDEX_FLAG = '1'B;
      722     5217                                                                                    /**/
      723     5218    3            CASE ( 113,                    /* M=7, @=0, N=1                      */
      724     5219    3                114,                       /* M=7, @=0, N=2                      */
      725     5220    3                115,                       /* M=7, @=0, N=3                      */
      726     5221    3                116,                       /* M=7, @=0, N=4   pop on b register  */
      727     5222    3                117,                       /* M=7, @=0, N=5                      */
PL6.E3A0      #001=DFR$INSTR File=DFR$INSTR.:E05TSI                              TUE 07/29/97 14:41 Page:25
      728     5223    3                118,                       /* M=7, @=0, N=6                      */
      729     5224    3                119);                      /* M=7, @=0, N=7                      */
      730     5225    3              CALL INSERT( DECODED_TEXT, 0,, B_REGISTERS(ADDR_SYL.FRAME.N_FIELD),
              5225                       ',POP' );
      731     5226    3              RASSED_INSTR.WORDS_USED = 1;
      732     5227    3              INDEX_FLAG = '1'B;
      733     5228                                                                                    /**/
      734     5229    3            CASE ( 0 );                    /* M=0, @=0, N=0  direct address      */
      735     5230    3              R_ADDRESS.HIGH_ORDER_BITS = INSTR_ARRAY(1);
      736     5231    3              R_ADDRESS.LOW_ORDER_BITS = INSTR_ARRAY(2);
      737     5232    3              CALL DDR$POSIT( ADDRESS, SYM_BUF$, 64, SYM_LEN  );
      738     5233    3              IF TAB
      739     5234    4              THEN DO;
      740     5235    4                   S_D.L6_TAB = '1'B;
      741     5236    4                   S_D.L6_TAB_VALUE = ADDRESS;
      742     5237    4                 END;
      743     5238    4              IF SYM_LEN = 0 THEN DO;
      744     5239    4                 CALL DFR$BINHEX( ADDRESS, TEXT_HEX, L_ZEROS );
      745     5240    4                 IF L_ZEROS = 8 THEN SYM_TEXT = '.0';
      746     5241    4                 ELSE
      747     5242    4                    CALL INSERT( SYM_TEXT, 0,, '.', SUBSTR( TEXT_HEX, L_ZEROS, 8-
              5242                             L_ZEROS ) );
      748     5243    4                 END;
      749     5244    3              ELSE SYM_TEXT = SUBSTR( SYM_TEXT, 0, SYM_LEN );
      750     5245    3              DECODED_TEXT = SYM_TEXT;
      751     5246    3              RASSED_INSTR.WORDS_USED = 3;
      752     5247    3              INDEX_FLAG = '1'B;
      753     5248                                                                                    /**/
      754     5249    3            CASE ( 8 );                    /* M=0, @=1, N=0  indirect address    */
      755     5250    3              R_ADDRESS.HIGH_ORDER_BITS = INSTR_ARRAY(1);
      756     5251    3              R_ADDRESS.LOW_ORDER_BITS = INSTR_ARRAY(2);
      757     5252    3              CALL DDR$POSIT( ADDRESS, SYM_BUF$, 64, SYM_LEN );
      758     5253    3              IF TAB
      759     5254    4              THEN DO;
      760     5255    4                   S_D.L6_TAB = '1'B;
      761     5256    4                   S_D.L6_TAB_VALUE = ADDRESS;
      762     5257    4                 END;
PL6.E3A0      #001=DFR$INSTR File=DFR$INSTR.:E05TSI                              TUE 07/29/97 14:41 Page:26
      763     5258    4              IF SYM_LEN  = 0 THEN DO;
      764     5259    4                 CALL DFR$BINHEX( ADDRESS, TEXT_HEX, L_ZEROS );
      765     5260    4                 IF L_ZEROS = 8 THEN SYM_TEXT = '.0';
      766     5261    4                 ELSE
      767     5262    4                    CALL INSERT( SYM_TEXT, 0,, '.', SUBSTR( TEXT_HEX, L_ZEROS, 8-
              5262                             L_ZEROS ) );
      768     5263    4                 END;
      769     5264                                                                                    /**/
      770     5265    3              ELSE SYM_TEXT = SUBSTR( SYM_TEXT, 0, SYM_LEN );
      771     5266    3              CALL CONCAT( DECODED_TEXT, '*', SYM_TEXT );
      772     5267    3              RASSED_INSTR.WORDS_USED = 3;
      773     5268    3              INDEX_FLAG = '1'B;
      774     5269                                                                                    /**/
      775     5270    3            CASE ( 112 );                  /* M=3, @=0, N=0  imo value           */
      776     5271    4              DO CASE ( INSTRUCTION_TYPE(INSTRUCTION.INDEXX) );
      777     5272                                                                                    /**/
      778     5273    4               CASE (27);                  /* 32 bit imo value                   */
      779     5274    4                 R_ADDRESS_32BITS.HIGH_ORDER_BITS = INSTR_ARRAY(1);
      780     5275    4                 R_ADDRESS_32BITS.LOW_ORDER_BITS  = INSTR_ARRAY(2);
      781     5276    4                 START = 0;
      782     5277    4                 LEN = 8;
      783     5278    4                 RASSED_INSTR.WORDS_USED = 3;
      784     5279    4               CASE (33);                  /* 20 bit unsigned imo                */
      785     5280    4                 IF INSTRUCTION.INDEXX = 311 OR INSTRUCTION.INDEXX = 343 OR
      786     5281    4                    INSTRUCTION.INDEXX = 375 OR INSTRUCTION.INDEXX = 407 OR
      787     5282    4                    INSTRUCTION.INDEXX = 439 OR INSTRUCTION.INDEXX = 471 OR
      788     5283    4                    INSTRUCTION.INDEXX = 503
      789     5284    4                 THEN GOTO SINGLE_OPERAND;  /* LAB,Bn hex,IMO - single operand */
      790     5285    4                 R_ADDRESS.HIGH_ORDER_BITS = INSTR_ARRAY(1);
      791     5286    4                 R_ADDRESS.LOW_ORDER_BITS  = INSTR_ARRAY(2);
      792     5287    4                 RASSED_INSTR.WORDS_USED = 3;
      793     5288    4                 START = 3;
      794     5289    4                 LEN = 5;
      795     5290                                                                                    /**/
      796     5291    4               CASE (ELSE);                /* 16 bit signed value                */
      797     5292    4   SINGLE_OPERAND:
      798     5293    4                 R_ADDRESS.LOW_ORDER_BITS = INSTR_ARRAY(1);
PL6.E3A0      #001=DFR$INSTR File=DFR$INSTR.:E05TSI                              TUE 07/29/97 14:41 Page:27
      799     5294    4                 RASSED_INSTR.WORDS_USED = 2;
      800     5295    4                 START = 4;
      801     5296    4                 LEN = 4;
      802     5297    4               END;
      803     5298    3              CALL DFR$BINHEX( ADDRESS, TEXT_HEX, L_ZEROS );
      804     5299    3              IF TAB
      805     5300    4              THEN DO;
      806     5301    4                   S_D.L6_TAB = '1'B;
      807     5302    4                   S_D.L6_TAB_VALUE = ADDRESS;
      808     5303    4                 END;
      809     5304    3              CALL INSERT( DECODED_TEXT, 0,, '.', SUBSTR( TEXT_HEX, START, LEN ) ,
              5304                       ',IMO' );
      810     5305                                                                                    /**/
      811     5306    3              INDEX_FLAG = '1'B;
      812     5307    4              IF I_O_INSTR_FLAG THEN DO;   /* Special case for I_O instr.        */
      813     5308    4                 CALL INDEX( POSITION, ',', DECODED_TEXT ); /* Extract 'IMO' off */
      814     5309    4                 DECODED_TEXT = SUBSTR( DECODED_TEXT, 0, POSITION );
      815     5310    4                 END;
      816     5311                                                                                    /**/
      817     5312    3            CASE ( 120 );                  /* M=7, @=1, N=0  interrupt vector    */
      818     5313    3              R_ADDRESS.LOW_ORDER_BITS = INSTR_ARRAY(1);
      819     5314    3             CALL DFR$BINHEX( ADDRESS, TEXT_HEX, L_ZEROS );
      820     5315    3              IF TAB
      821     5316    4              THEN DO;
      822     5317    4                   S_D.L6_TAB = '1'B;
      823     5318    4                   S_D.L6_TAB_VALUE = ADDRESS;
      824     5319    4                 END;
      825     5320    3             CALL INSERT( SYM_TEXT, 0,, '.', SUBSTR( TEXT_HEX, L_ZEROS, 8-L_ZEROS ),
              5320                      ',$IV' );
      826     5321                                                                                    /**/
      827     5322    3              DECODED_TEXT = SYM_TEXT;
      828     5323    3              RASSED_INSTR.WORDS_USED = 2;
      829     5324    3              INDEX_FLAG = '1'B;
      830     5325                                                                                    /**/
      831     5326    3            CASE ( 64 );                   /* M=4, @=0, N=0  relative direct     */
      832     5327    3              SIGNED_16BITS = INSTR_ARRAY(1);
      833     5328    3              DISPLACEMENT = SIGNED_16BITS;
PL6.E3A0      #001=DFR$INSTR File=DFR$INSTR.:E05TSI                              TUE 07/29/97 14:41 Page:28
      834     5329    4              IF SIGNED_16BITS < 0 THEN DO;
      835     5330    4                 T_SIGNED_16BITS = SIGNED_16BITS;
      836     5331    4                 T_SIGNED_16BITS = -T_SIGNED_16BITS;
      837     5332    4                 DISPLACEMENT = T_SIGNED_16BITS;
      838     5333    4                 END;
      839     5334    3              IF SIGNED_16BITS > 0 THEN DISPLACEMENT = DISPLACEMENT + 1 ;
      840     5335    3              ELSE
      841     5336    3                 DISPLACEMENT = DISPLACEMENT - 1;
      842     5337    3              CALL DFR$BINHEX( DISPLACEMENT, TEXT_HEX, L_ZEROS );
      843     5338    3              IF TAB
      844     5339    4              THEN DO;
      845     5340    4                   S_D.L6_TAB = '1'B;
      846     5341    4                   IF SIGNED_16BITS < 0
      847     5342    4                   THEN S_D.L6_TAB_VALUE = S_D.O$.ADDRESS - DISPLACEMENT;
      848     5343    4                   ELSE S_D.L6_TAB_VALUE = S_D.O$.ADDRESS + DISPLACEMENT;
      849     5344    4                 END;
      850     5345    3              CALL INDEX( POSITION, ' ', DECODED_TEXT );
      851     5346    3              IF SIGNED_16BITS < -1 THEN CALL INSERT( DECODED_TEXT, POSITION,, '$O-.',
              5346                       SUBSTR( TEXT_HEX, L_ZEROS, 8-L_ZEROS ), PREL );
      852     5347    3              ELSE IF SIGNED_16BITS = -1 THEN CALL INSERT( DECODED_TEXT, POSITION,,
              5347                       '$O', PREL );
      853     5348    3                   ELSE CALL INSERT( DECODED_TEXT, POSITION,, '$O+.', SUBSTR( TEXT_HEX,
              5348                            L_ZEROS, 8-L_ZEROS ), PREL );
      854     5349    3              CALL INDEX( RASSED_INSTR.COUNT, '^', DECODED_TEXT );
      855     5350    3              RASSED_INSTR.WORDS_USED = 2;
      856     5351    3              INDEX_FLAG = '1'B;
      857     5352                                                                                    /**/
      858     5353    3            CASE ( 72 );                   /* M=4, @=1, N=0  relative indirect   */
      859     5354    3              R_ADDRESS.LOW_ORDER_BITS = INSTR_ARRAY(1);
      860     5355    3              SIGNED_VALUE = ADDRESS;
      861     5356    4              IF SIGNED_VALUE < 0 THEN DO;
      862     5357    4                 T_SIGNED_VALUE = SIGNED_VALUE;
      863     5358    4                 T_SIGNED_VALUE = -T_SIGNED_VALUE;
      864     5359    4                 ADDRESS = T_SIGNED_VALUE;
      865     5360    4                 END;
      866     5361    3              IF SIGNED_VALUE > 0 THEN ADDRESS = ADDRESS + 1 ;
      867     5362    3              ELSE
PL6.E3A0      #001=DFR$INSTR File=DFR$INSTR.:E05TSI                              TUE 07/29/97 14:41 Page:29
      868     5363    3                 ADDRESS = ADDRESS - 1;
      869     5364    3              CALL DFR$BINHEX( ADDRESS, TEXT_HEX, L_ZEROS );
      870     5365    3              IF TAB
      871     5366    4              THEN DO;
      872     5367    4                   S_D.L6_TAB = '1'B;
      873     5368    4                   IF SIGNED_VALUE < 0
      874     5369    4                   THEN S_D.L6_TAB_VALUE = S_D.O$.ADDRESS - ADDRESS;
      875     5370    4                   ELSE S_D.L6_TAB_VALUE = S_D.O$.ADDRESS + ADDRESS;
      876     5371    4                 END;
      877     5372    3              CALL INDEX( POSITION, ' ', DECODED_TEXT );
      878     5373    3              IF SIGNED_VALUE < -1 THEN CALL INSERT( DECODED_TEXT, POSITION,, '$O-.',
              5373                       SUBSTR( TEXT_HEX, L_ZEROS, 8-L_ZEROS ), PREL );
      879     5374    3              ELSE IF SIGNED_VALUE = -1 THEN CALL INSERT( DECODED_TEXT, POSITION,, '$O'
              5374                       , PREL );
      880     5375    3                   ELSE CALL INSERT( DECODED_TEXT, POSITION,, '$O+.', SUBSTR( TEXT_HEX,
              5375                            L_ZEROS, 8-L_ZEROS ), PREL );
      881     5376    3              CALL INDEX( RASSED_INSTR.COUNT, '^', DECODED_TEXT );
      882     5377    3              RASSED_INSTR.WORDS_USED = 2;
      883     5378    3              INDEX_FLAG = '1'B;
      884     5379                                                                                    /**/
      885     5380    3            CASE ( 81,                     /* M=5, @=0, N=1                      */
      886     5381    3                82,                        /* M=5, @=0, N=2                      */
      887     5382    3                83,                        /* M=5, @=0, N=3                      */
      888     5383    3                84,                        /* M=5, @=0, N=4 b, r, or s register  */
      889     5384    3                85,                        /* M=5, @=0, N=5                      */
      890     5385    3                86,                        /* M=5, @=0, N=6                      */
      891     5386    3                87 );                      /* M=5, @=0, N=7                      */
      892     5387    4   REGISTER:  DO CASE ( INSTRUCTION_TYPE(INSTRUCTION.INDEXX) );
      893     5388                                                                                    /**/
      894     5389    4               CASE ( 33 );
      895     5390    4                 DECODED_TEXT = OP_B_REGS(ADDR_SYL.FRAME.N_FIELD);
      896     5391                                                                                    /**/
      897     5392    4               CASE ( 34 );
      898     5393    4                 IF ADDR_SYL.FRAME.N_FIELD > 4 THEN ALTRETURN;
      899     5394    4                 ELSE DECODED_TEXT = SCI_REGS(ADDR_SYL.FRAME.N_FIELD);
      900     5395                                                                                    /**/
      901     5396    4               CASE ( 37 );
PL6.E3A0      #001=DFR$INSTR File=DFR$INSTR.:E05TSI                              TUE 07/29/97 14:41 Page:30
      902     5397    4                 DECODED_TEXT = OP_B_REGS(ADDR_SYL.FRAME.N_FIELD);
      903     5398    4               CASE ( ELSE );
      904     5399    4                 DECODED_TEXT = OP_R_REGS(ADDR_SYL.FRAME.N_FIELD);
      905     5400                                                                                    /**/
      906     5401    4               END REGISTER;
      907     5402    3              RASSED_INSTR.WORDS_USED = 1;
      908     5403    3              INDEX_FLAG = '1'B;
      909     5404                                                                                    /**/
      910     5405    3            CASE ( 1,                      /* M=0, @=0, N=1                      */
      911     5406    3                2,                         /* M=0, @=0, N=2                      */
      912     5407    3                3,                         /* M=0, @=0, N=3                      */
      913     5408    3                4,                    /* M=0, @=0, N=4 direct off b register     */
      914     5409    3                5,                         /* M=0, @=0, N=5                      */
      915     5410    3                6,                         /* M=0, @=0, N=6                      */
      916     5411    3                7 );                       /* M=0, @=0, N=7                      */
      917     5412    3              DECODED_TEXT = B_REGISTERS(ADDR_SYL.FRAME.N_FIELD);
      918     5413    3              RASSED_INSTR.WORDS_USED = 1;
      919     5414    3              INDEX_FLAG = '1'B;
      920     5415    4            IF TAB THEN DO;
      921     5416    4               S_D.L6_TAB = '1'B;
      922     5417    4               S_D.L6_TAB_VALUE = 0;
      923     5418    4               END;
      924     5419    3              B_INDEXED = '1'B;
      925     5420                                                                                    /**/
      926     5421    3            CASE ( 9,                      /* M=0, @=1, N=1                      */
      927     5422    3                10,                        /* M=0, @=1, N=2                      */
      928     5423    3                11,                        /* M=0, @=1, N=3                      */
      929     5424    3                12,                   /* M=0, @=1, N=4 indirect off b register   */
      930     5425    3                13,                        /* M=0, @=1, N=5                      */
      931     5426    3                14,                        /* M=0, @=1, N=6                      */
      932     5427    3                15 );                      /* M=0, @=1, N=7                      */
      933     5428    3              CALL INSERT( DECODED_TEXT, 0,, '*', B_REGISTERS(ADDR_SYL.FRAME.N_FIELD) )
              5428                       ;
      934     5429    3              RASSED_INSTR.WORDS_USED = 1;
      935     5430    3              INDEX_FLAG = '1'B;
      936     5431                                                                                    /**/
      937     5432    3            CASE ( 16,                     /* M=1, @=0, N=0                      */
PL6.E3A0      #001=DFR$INSTR File=DFR$INSTR.:E05TSI                              TUE 07/29/97 14:41 Page:31
      938     5433    3                32,                        /* M=2, @=0, N=0                      */
      939     5434    3                48 );                      /* M=4, @=0, N=0  direct indexed by r */
      940     5435    3              R_ADDRESS.HIGH_ORDER_BITS = INSTR_ARRAY(1);
      941     5436    3              R_ADDRESS.LOW_ORDER_BITS = INSTR_ARRAY(2);
      942     5437    3              CALL DDR$POSIT( ADDRESS, SYM_BUF$, 64, SYM_LEN );
      943     5438    3              IF TAB
      944     5439    4              THEN DO;
      945     5440    4                   S_D.L6_TAB = '1'B;
      946     5441    4                   S_D.L6_TAB_VALUE = ADDRESS;
      947     5442    4                 END;
      948     5443    3              IF SYM_LEN > 0 THEN
      949     5444    3                 CALL INSERT( SYM_TEXT, SYM_LEN,, R_REGISTERS(ADDR_SYL.FRAME.M_FIELD) )
              5444                          ;
      950     5445    4              ELSE DO;                     /* DDR$POSIT did' nt find a match    */
      951     5446    4                 CALL DFR$BINHEX( ADDRESS, TEXT_HEX, L_ZEROS );
      952     5447    4                  IF TAB
      953     5448    5                  THEN DO;
      954     5449    5                      S_D.L6_TAB = '1'B;
      955     5450    5                      S_D.L6_TAB_VALUE = ADDRESS;
      956     5451    5                    END;
      957     5452    4                 IF L_ZEROS = 8 THEN CALL INSERT( SYM_TEXT,,, '.0', R_REGISTERS(
              5452                          ADDR_SYL.FRAME.M_FIELD) );
      958     5453    4                 ELSE
      959     5454    4                    CALL INSERT( SYM_TEXT, 0,, '.', SUBSTR( TEXT_HEX, L_ZEROS, 8-
              5454                             L_ZEROS ), R_REGISTERS(ADDR_SYL.FRAME.M_FIELD) );
      960     5455    4                 END;
      961     5456                                                                                    /**/
      962     5457    3              DECODED_TEXT = SYM_TEXT;
      963     5458    3              RASSED_INSTR.WORDS_USED = 3;
      964     5459                                                                                    /**/
      965     5460    3            CASE ( 24,                     /* M=1, @=1, N=0                      */
      966     5461    3                40,                   /* M=2, @=1, N=0 indirect indexed by r     */
      967     5462    3                56 );                      /* M=4, @=1, N=0                      */
      968     5463    3              R_ADDRESS.HIGH_ORDER_BITS = INSTR_ARRAY(1);
      969     5464    3              R_ADDRESS.LOW_ORDER_BITS = INSTR_ARRAY(2);
      970     5465    3              CALL DDR$POSIT( ADDRESS, SYM_BUF$, 64, SYM_LEN );
      971     5466    3              IF SYM_LEN > 0 THEN
PL6.E3A0      #001=DFR$INSTR File=DFR$INSTR.:E05TSI                              TUE 07/29/97 14:41 Page:32
      972     5467    3                 CALL INSERT( SYM_TEXT, SYM_LEN,, R_REGISTERS(ADDR_SYL.FRAME.M_FIELD) )
              5467                          ;
      973     5468    4              ELSE DO;
      974     5469    4                 CALL DFR$BINHEX( ADDRESS, TEXT_HEX, L_ZEROS );
      975     5470    4                 IF L_ZEROS = 8 THEN CALL INSERT( SYM_TEXT,,, '.0', R_REGISTERS(
              5470                          ADDR_SYL.FRAME.M_FIELD) );
      976     5471    4                 ELSE
      977     5472    4                    CALL INSERT( SYM_TEXT, 0,, '.', SUBSTR( TEXT_HEX, L_ZEROS, 8-
              5472                             L_ZEROS ), R_REGISTERS(ADDR_SYL.FRAME.M_FIELD) );
      978     5473    4                 END;
      979     5474                                                                                    /**/
      980     5475    3              CALL CONCAT( DECODED_TEXT, '*', SYM_TEXT );
      981     5476    3              RASSED_INSTR.WORDS_USED = 3;
      982     5477                                                                                    /**/
      983     5478    3            CASE ( 17,                     /* M=1, @=0, N=1                      */
      984     5479    3                18,                        /* M=1, @=0, N=2                      */
      985     5480    3                19,                        /* M=1, @=0, N=3                      */
      986     5481    3                20,                        /* M=1, @=0, N=4                      */
      987     5482    3                21,                        /* M=1, @=0, N=5                      */
      988     5483    3                22,                        /* M=1, @=0, N=6                      */
      989     5484    3                23,                        /* M=1, @=0, N=7                      */
      990     5485    3                33,                        /* M=2, @=0, N=1                      */
      991     5486    3                34,                        /* M=2, @=0, N=2                      */
      992     5487    3                35,                        /* M=2, @=0, N=3                      */
      993     5488    3                36,                        /* M=2, @=0, N=4 direct based indexed */
      994     5489    3                37,                        /* M=2, @=0, N=5                      */
      995     5490    3                38,                        /* M=2, @=0, N=6                      */
      996     5491    3                39,                        /* M=2, @=0, N=7                      */
      997     5492    3                49,                        /* M=4, @=0, N=1                      */
      998     5493    3                50,                        /* M=4, @=0, N=2                      */
      999     5494    3                51,                        /* M=4, @=0, N=3                      */
     1000     5495    3                52,                        /* M=4, @=0, N=4                      */
     1001     5496    3                53,                        /* M=4, @=0, N=5                      */
     1002     5497    3                54,                        /* M=4, @=0, N=6                      */
     1003     5498    3                55 );                      /* M=4, @=0, N=7                      */
     1004     5499    3              CALL INSERT( DECODED_TEXT, 0,, B_REGISTERS(ADDR_SYL.FRAME.N_FIELD),
              5499                       R_REGISTERS(ADDR_SYL.FRAME.M_FIELD) );
PL6.E3A0      #001=DFR$INSTR File=DFR$INSTR.:E05TSI                              TUE 07/29/97 14:41 Page:33
     1005     5500    3              RASSED_INSTR.WORDS_USED = 1;
     1006     5501                                                                                    /**/
     1007     5502    3            CASE ( 25,                     /* M=1, @=1, N=1                      */
     1008     5503    3                26,                        /* M=1, @=1, N=2                      */
     1009     5504    3                27,                        /* M=1, @=1, N=3                      */
     1010     5505    3                28,                        /* M=1, @=1, N=4                      */
     1011     5506    3                29,                        /* M=1, @=1, N=5                      */
     1012     5507    3                30,                        /* M=1, @=1, N=6                      */
     1013     5508    3                31,                        /* M=1, @=1, N=7                      */
     1014     5509    3                41,                        /* M=2, @=1, N=1                      */
     1015     5510    3                42,                        /* M=2, @=1, N=2                      */
     1016     5511    3                43,                        /* M=2, @=1, N=3                      */
     1017     5512    3                44,                   /* M=2, @=1, N=4 indirect based indexed    */
     1018     5513    3                45,                        /* M=2, @=1, N=5                      */
     1019     5514    3                46,                        /* M=2, @=1, N=6                      */
     1020     5515    3                47,                        /* M=2, @=1, N=7                      */
     1021     5516    3                57,                        /* M=4, @=1, N=1                      */
     1022     5517    3                58,                        /* M=4, @=1, N=2                      */
     1023     5518    3                59,                        /* M=4, @=1, N=3                      */
     1024     5519    3                60,                        /* M=4, @=1, N=4                      */
     1025     5520    3                61,                        /* M=4, @=1, N=5                      */
     1026     5521    3                62,                        /* M=4, @=1, N=6                      */
     1027     5522    3                63 );                      /* M=4, @=1, N=7                      */
     1028     5523    3              CALL INSERT( DECODED_TEXT, 0,, '*', B_REGISTERS(ADDR_SYL.FRAME.N_FIELD),
              5523                       R_REGISTERS(ADDR_SYL.FRAME.M_FIELD) );
     1029     5524    3              RASSED_INSTR.WORDS_USED = 1;
     1030     5525                                                                                    /**/
     1031     5526    3            CASE ( 65,                     /* M=4, @=0, N=1                      */
     1032     5527    3                66,                        /* M=4, @=0, N=2                      */
     1033     5528    3                67,                        /* M=4, @=0, N=3                      */
     1034     5529    3                68,                        /* M=4, @=0, N=4 base relative direct */
     1035     5530    3                69,                        /* M=4, @=0, N=5                      */
     1036     5531    3                70,                        /* M=4, @=0, N=6                      */
     1037     5532    3                71 );                      /* M=4, @=0, N=7                      */
     1038     5533    3              R_ADDRESS.LOW_ORDER_BITS = INSTR_ARRAY(1);
     1039     5534    3              SIGNED_VALUE = ADDRESS;
     1040     5535    4              IF SIGNED_VALUE < 0 THEN DO;
PL6.E3A0      #001=DFR$INSTR File=DFR$INSTR.:E05TSI                              TUE 07/29/97 14:41 Page:34
     1041     5536    4                 T_SIGNED_VALUE = SIGNED_VALUE;
     1042     5537    4                 T_SIGNED_VALUE = -T_SIGNED_VALUE;
     1043     5538    4                 ADDRESS = T_SIGNED_VALUE;
     1044     5539    4                 END;
     1045     5540    3              CALL DFR$BINHEX( ADDRESS, TEXT_HEX, L_ZEROS );
     1046     5541    3              IF TAB
     1047     5542    4              THEN DO;
     1048     5543    4                   S_D.L6_TAB = '1'B;
     1049     5544    4                   S_D.L6_TAB_VALUE = ADDRESS;
     1050     5545    4                 END;
     1051     5546    4   BASE_REL_DIRECT: DO CASE( SIGNED_VALUE );
     1052     5547    4               CASE( 0 );                  /* SIGNED_VALUE = 0                   */
     1053     5548    4                 CALL INSERT( DECODED_TEXT, 0,, '.0', B_REGISTERS(ADDR_SYL.FRAME.
              5548                          N_FIELD) );
     1054     5549                                                                                    /**/
     1055     5550    4               CASE ( ELSE );              /* SIGNED_VALUE is non zero )*/
     1056     5551    4                 IF SIGNED_VALUE > 0 THEN CALL INSERT( DECODED_TEXT, 0,, '.', SUBSTR(
              5551                          TEXT_HEX, L_ZEROS, 8-L_ZEROS ),
     1057     5552    4                      B_REGISTERS(ADDR_SYL.FRAME.N_FIELD) );
     1058     5553                                                                                    /**/
     1059     5554    4                 ELSE CALL INSERT( DECODED_TEXT, 0,, '-.', SUBSTR( TEXT_HEX, L_ZEROS, 8
              5554                          -L_ZEROS ) , B_REGISTERS(ADDR_SYL.FRAME.N_FIELD) );
     1060     5555                                                                                    /**/
     1061     5556    4               END BASE_REL_DIRECT;
     1062     5557    3              RASSED_INSTR.WORDS_USED = 2;
     1063     5558    3              INDEX_FLAG = '1'B;
     1064     5559    3              B_INDEXED = '1'B;
     1065     5560    3            CASE ( 73,                     /* M=4, @=1, N=1                      */
     1066     5561    3                74,                        /* M=4, @=1, N=2                      */
     1067     5562    3                75,                        /* M=4, @=1, N=3                      */
     1068     5563    3                76,                   /* M=4, @=1, N=4  base relative indirect   */
     1069     5564    3                77,                        /* M=4, @=1, N=5                      */
     1070     5565    3                78,                        /* M=4, @=1, N=6                      */
     1071     5566    3                79 );                      /* M=4, @=1, N=7                      */
     1072     5567    3              R_ADDRESS.LOW_ORDER_BITS = INSTR_ARRAY(1);
     1073     5568    3              SIGNED_VALUE = ADDRESS;
     1074     5569    4              IF SIGNED_VALUE < 0 THEN DO;
PL6.E3A0      #001=DFR$INSTR File=DFR$INSTR.:E05TSI                              TUE 07/29/97 14:41 Page:35
     1075     5570    4                 T_SIGNED_VALUE = SIGNED_VALUE;
     1076     5571    4                 T_SIGNED_VALUE = -T_SIGNED_VALUE;
     1077     5572    4                 ADDRESS = T_SIGNED_VALUE;
     1078     5573    4                 END;
     1079     5574    3              CALL DFR$BINHEX( ADDRESS, TEXT_HEX, L_ZEROS );
     1080     5575    3              IF TAB
     1081     5576    4              THEN DO;
     1082     5577    4                   S_D.L6_TAB = '1'B;
     1083     5578    4                   IF SIGNED_VALUE < 0
     1084     5579    4                   THEN S_D.L6_TAB_VALUE = S_D.O$.ADDRESS - ADDRESS;
     1085     5580    4                   ELSE S_D.L6_TAB_VALUE = S_D.O$.ADDRESS + ADDRESS;
     1086     5581    4                 END;
     1087     5582    4   BASE_REL_INDIRECT: DO CASE( SIGNED_VALUE );
     1088     5583    4               CASE( 0 );                  /* SIGNED_VALUE = 0                   */
     1089     5584    4                 CALL INSERT( DECODED_TEXT, 0,, '*.0', B_REGISTERS(ADDR_SYL.FRAME.
              5584                          N_FIELD) );
     1090     5585                                                                                    /**/
     1091     5586    4               CASE ( ELSE );              /* SIGNED_VALUE is non zero )*/
     1092     5587    4                   IF SIGNED_VALUE < 0 THEN CALL INSERT( DECODED_TEXT, 0,, '*-.',
     1093     5588    4                         SUBSTR( TEXT_HEX, L_ZEROS, 8-L_ZEROS ), B_REGISTERS(ADDR_SYL.
              5588                                  FRAME.N_FIELD) );
     1094     5589    4                   ELSE CALL INSERT( DECODED_TEXT, 0,, '*.',
     1095     5590    4                             SUBSTR( TEXT_HEX, L_ZEROS, 8-L_ZEROS ), B_REGISTERS(
              5590                                      ADDR_SYL.FRAME.N_FIELD) );
     1096     5591                                                                                    /**/
     1097     5592    4               END BASE_REL_INDIRECT;
     1098     5593    3              RASSED_INSTR.WORDS_USED = 2;
     1099     5594    3              INDEX_FLAG = '1'B;
     1100     5595                                                                                    /**/
     1101     5596    3            CASE ( 89,                     /* M=5, @=1, N=1                      */
     1102     5597    3                90,                        /* M=5, @=1, N=2                      */
     1103     5598    3                91,                        /* M=5, @=1, N=3                      */
     1104     5599    3                105,                       /* M=6, @=1, N=1                      */
     1105     5600    3                106,                  /* M=6, @=1, N=2 based indexed auto dec    */
     1106     5601    3                107,                       /* M=6, @=1, N=3                      */
     1107     5602    3                121,                       /* M=7, @=1, N=1                      */
     1108     5603    3                122,                       /* M=7, @=1, N=2                      */
PL6.E3A0      #001=DFR$INSTR File=DFR$INSTR.:E05TSI                              TUE 07/29/97 14:41 Page:36
     1109     5604    3                123 );                     /* M=7, @=1, N=3                      */
     1110     5605    3              CALL INSERT( DECODED_TEXT, 0,, B_REGISTERS(ADDR_SYL.FRAME.N_FIELD),
              5605                       R_REGISTERS(ADDR_SYL.FRAME.M_FIELD - 4), ',PUSH' );
     1111     5606    3              RASSED_INSTR.WORDS_USED = 1;
     1112     5607                                                                                    /**/
     1113     5608    3            CASE ( 93,                     /* M=5, @=1, N=5                      */
     1114     5609    3                94,                        /* M=5, @=1, N=6                      */
     1115     5610    3                95,                        /* M=5, @=1, N=7                      */
     1116     5611    3                109,                       /* M=6, @=1, N=5                      */
     1117     5612    3                110,                  /* M=6, @=1, N=6 based indexed auto inc*/
     1118     5613    3                111,                       /* M=6, @=1, N=7                      */
     1119     5614    3                125,                       /* M=7, @=1, N=5                      */
     1120     5615    3                126,                       /* M=7, @=1, N=6                      */
     1121     5616    3                127 );                     /* M=7, @=1, N=7                      */
     1122     5617    3              CALL INSERT( DECODED_TEXT, 0,, B_REGISTERS(ADDR_SYL.FRAME.N_FIELD - 4),
              5617                       R_REGISTERS(ADDR_SYL.FRAME.M_FIELD - 4), ',POP' );
     1123     5618    3              RASSED_INSTR.WORDS_USED = 1;
     1124     5619                                                                                    /**/
     1125     5620    3              RETURN;
     1126     5621    3            END DECODE;
     1127     5622    3            IF B_INDEXED AND TAB AND ADDR_SYL.FRAME.N_FIELD > 0 AND S_D.
              5622                     CURRENT_FPRG_CONTEXT$~=ADDR(NIL) THEN DO;
     1128     5623    3               IF S_D.CURRENT_FPRG_CONTEXT$->FPRG$CONTEXT.FANLZ THEN GOTO KEEP_GOING;
     1129     5624    3               N = ADDR_SYL.FRAME.N_FIELD;
     1130     5625    4               CALL DFK$GETMVAL (V, 0, 10, N, '1'B, '0'B) WHENALTRETURN DO;
     1131     5626    4                  CALL DDE$ERROR;
     1132     5627    4                  GOTO KEEP_GOING;
     1133     5628    4                  END;
     1134     5629    3               N = V.X(0)*65536 + V.X(1);
     1135     5630    3               S_D.L6_TAB_VALUE = S_D.L6_TAB_VALUE + N;
     1136     5631    3   KEEP_GOING: END;
     1137     5632    2           RETURN;
     1138     5633    2   END  DECODE_ADDR_SYL;
     1139     5634        %EJECT;
PL6.E3A0      #001=DFR$INSTR File=DFR$INSTR.:E05TSI                              TUE 07/29/97 14:41 Page:37
     1140     5635    1   MASK_PRESENT: PROC;
     1141     5636    2   DCL POSITION UBIN WORD;
     1142     5637    2   DCL MASK UBIN WORD;
     1143     5638                                                                                    /**/
     1144     5639    2           MASK = 0;
     1145     5640    2           MASK = INSTR_ARRAY(RASSED_INSTR.WORDS_USED);
     1146     5641    2           CALL DFR$BINHEX( MASK, TEXT_HEX, L_ZEROS );
     1147     5642    2           CALL INDEX( POSITION, ' ', RASSED_INSTR.BUFFER );
     1148     5643    2           CALL INSERT( RASSED_INSTR.BUFFER, POSITION,, ',X''', SUBSTR( TEXT_HEX, 4, 4
              5643                    ), '''' );
     1149     5644    2           RASSED_INSTR.WORDS_USED = RASSED_INSTR.WORDS_USED+1;
     1150     5645    2           RETURN;
     1151     5646    2   END MASK_PRESENT;
     1152     5647        %EJECT;
PL6.E3A0      #001=DFR$INSTR File=DFR$INSTR.:E05TSI                              TUE 07/29/97 14:41 Page:38
     1153     5648        %EJECT;
PL6.E3A0      #001=DFR$INSTR File=DFR$INSTR.:E05TSI                              TUE 07/29/97 14:41 Page:39
     1154     5649    1   CONVERT_BIN_TO_DEC: PROC( TEXT, VALUE );
     1155     5650    2   DCL TEXT CHAR(10);
     1156     5651    2   DCL R_TEXT(0:9)  REDEF TEXT CHAR(1) ;
     1157     5652    2   DCL VALUE SBIN WORD;
     1158     5653    2   DCL TEMP_TEXT(0:9) CHAR(1);
     1159     5654    2   DCL R_TEMP_TEXT REDEF TEMP_TEXT CHAR(10);
     1160     5655    2   DCL I UBIN WORD;
     1161     5656    2   DCL J UBIN WORD;
     1162     5657                                                                                    /**/
     1163     5658    3           IF VALUE = 0 THEN ZERO_VALUE: TEXT = '0^'; ELSE NON_ZERO_VALUE: DO;
     1164     5659    3              R_TEMP_TEXT = ' ';
     1165     5660    3              TEXT = ' ';
     1166     5661    3              CALL BINXCHAR( TEXT, VALUE );
     1167     5662    4              IF R_TEXT(0) = '-' THEN DO;
     1168     5663    4                 TEMP_TEXT(0) = '-';
     1169     5664    4                 J = 1;
     1170     5665    4                 END;
     1171     5666    3              ELSE J=0;
     1172     5667    3              I = 1;
     1173     5668    4   ZERO_REMOVE: DO WHILE ( R_TEXT(I) = '0' );
     1174     5669    4                 I = I+1;
     1175     5670    4                 END ZERO_REMOVE;
     1176     5671    4   FILL_BUFFER: DO WHILE ( I <= 9 );
     1177     5672    4                 TEMP_TEXT(J) = R_TEXT(I);
     1178     5673    4                 I = I+1;
     1179     5674    4                 J = J+1;
     1180     5675    4                 END FILL_BUFFER;
     1181     5676    3              TEMP_TEXT(J) = '^';
     1182     5677    3              R_TEXT = TEMP_TEXT;
     1183     5678    3              END NON_ZERO_VALUE;
     1184     5679    2           RETURN;
     1185     5680    2   END CONVERT_BIN_TO_DEC;
     1186     5681        %EJECT;
PL6.E3A0      #001=DFR$INSTR File=DFR$INSTR.:E05TSI                              TUE 07/29/97 14:41 Page:40
     1187     5682    1   DFR$SIGN: PROC( SIGN, VALUE );
     1188     5683    2   DCL SIGN SBIN WORD;
     1189     5684    2   DCL VALUE SBIN WORD;
     1190     5685        /**/
     1191     5686    2           IF VALUE < 0 THEN SIGN = 0;
     1192     5687    2           IF VALUE = 0 THEN SIGN = 1;
     1193     5688    2           IF VALUE > 0 THEN SIGN = 2;
     1194     5689    2   END DFR$SIGN;
     1195     5690        %EJECT;
PL6.E3A0      #001=DFR$INSTR File=DFR$INSTR.:E05TSI                              TUE 07/29/97 14:41 Page:41
     1196     5691    1   DFR$MERGE: PROC( DESTINATION, INPUT, POSITION );
     1197     5692    2   DCL DESTINATION CHAR(80);
     1198     5693    2   DCL INPUT CHAR(64);
     1199     5694    2   DCL POSITION UBIN WORD;
     1200     5695    2   DCL I SBIN WORD;
     1201     5696                                                                                    /**/
     1202     5697    3           DO I = 63 DOWNTO 0 BY -1;
     1203     5698    3              IF SUBSTR(INPUT, I, 1) ~= ' '
     1204     5699    4              THEN DO;
     1205     5700    4                   POSITION = I + 1;
     1206     5701    4                   GOTO FD_NONBLK;
     1207     5702    4                 END;
     1208     5703    3              END;
     1209     5704    2   FD_NONBLK: CALL INSERT( INPUT, POSITION,, '^' );
     1210     5705    2           CALL INDEX( POSITION, ' ', DESTINATION );
     1211     5706    2           POSITION = POSITION+1;
     1212     5707    2           CALL INSERT( DESTINATION, POSITION,, INPUT );
     1213     5708    2           CALL INDEX( POSITION, '^', DESTINATION );
     1214     5709    2           RETURN;
     1215     5710    2   END DFR$MERGE;
     1216     5711    1   END DFR$INSTR;

PL6.E3A0      #001=DFR$INSTR File=DFR$INSTR.:E05TSI                              TUE 07/29/97 14:41 Page:42
--  Include file information  --

   DD$BASED.:E05TOU  is referenced.
   DD_SD_M.:E05TOU  is referenced.
   DD_ERR_C.:E05TOU  is referenced.
   XUH_MACRO_C.:E05TOU  is referenced.
   B$JIT_C.:E05TOU  was found in the system file and is never referenced.
   CP_6_C.:E05TOU  was found in the system file and is never referenced.
      No diagnostics issued in procedure DFR$INSTR.

   Procedure DFR$INSTR requires 3187 words for executable code.
   Procedure DFR$INSTR requires 142 words of local(AUTO) storage.

    No errors detected in file DFR$INSTR.:E05TSI    .

PL6.E3A0      #001=DFR$INSTR File=DFR$INSTR.:E05TSI                              TUE 07/29/97 14:41 Page:43

 Object Unit name= DFR$INSTR                                  File name= DFR$INSTR.:E05TOU
 UTS= JUL 29 '97 14:41:47.68 TUE                              Compiler= PL-6/E31         Sev=      00
 SharedLib= :SHARED_SYSTEM                                    Alt SharedLib=


    ****  Control sections  ****

 Sect   Type Bound  Init  Size OctSiz  Section name(segment info)
    0  RoData even  UTS     75    113  DFR$INSTR
    1   Proc  even  none  3187   6163  DFR$INSTR
    2  RoData even  none    26     32  DFR$INSTR

    ****  Entry defs  ****

                              Check   Calling
                             calling  sequence
  Sect OctLoc Primary Altret sequence   type   Parms  Name
     1      0   yes    yes     yes      Std        4  DFR$INSTR

  ****  Entry refs  ****

         Check        Calling
        calling       sequence
Altret sequence SRef   type   Args  Name
         yes           Std       4 DFR$BINHEX
 yes     yes           Std       5 DDR$POSIT
 yes     yes           Std       5 DDR$POSIT
 yes     yes           Std       6 DFK$GETMVAL
         yes           Std       0 DDE$ERROR
                       nStd      0 X66_AUTO_4
                       Std       0 B_CONSPOOL_D
                       nStd      0 X66_ARET
                       nStd      0 X66_AALT
PL6.E3A0      #001=DFR$INSTR File=DFR$INSTR.:E05TSI                              TUE 07/29/97 14:41 Page:44

  ****  Data refs  ****

  Flags:  r = read only, s = secondary
Flgs Name                             Flgs Name                             Flgs Name
r    S_D$                             r    INSTRUCTIONS                     r    INSTRUCTION_TYPE
r    GENERIC_INSTRUCTIONS             r    GENERIC_TYPE                     r    SHIFT_INSTRUCTIONS
r    SHIFT_D_INSTRUCTIONS                  B_VECTNIL

  ****  Segment refs  ****

  Flags:  r = read only, s = secondary
Flgs Name                             Flgs Name                             Flgs Name
     ISSID
PL6.E3A0      #001=DFR$INSTR File=DFR$INSTR.:E05TSI                              TUE 07/29/97 14:41 Page:45


        1        1        /*M*     INITIALIZED DATA REQUIRED FOR L6 INSTRUCTION BREAK-OUT*/
        2        2        /*T***********************************************************/
        3        3        /*T*                                                         */
        4        4        /*T* Copyright (c) Bull HN Information Systems Inc., 1997    */
        5        5        /*T*                                                         */
        6        6        /*T***********************************************************/
        7        7        /*F* NAME: DFR$INSTR
        8        8             PURPOSE: To convert machine codes into corresponding mnemonics */
        9        9
       10       10        /*D* NAME: DFR$INSTR
       11       11             INPUT: INSTRUCT     16 words, each word contains 16 bits of L6
       12       12                                 machine codes right justified.
       13       13                    OUT          Tells this routine whether the instruction mnemonics
       14       14                                 should be inserted where S_D.D$ points at.
       15       15             OUTPUT: INSTR_SIZE  Number of words of the instruction
       16       16                                 If the user let OUT='1'B, the instructin mnemonics
       17       17                                 will be put in where S_D.D$ points at for future
       18       18                                 display */
       19       19
       20       20
       21       21        DFR$INSTR: PROC (INSTRUCT, INSTR_SIZE, OUT, PTAB) ALTRET;

     21  1 000000   000000 700200 xent  DFR$INSTR    TSX0  ! X66_AUTO_4
         1 000001   000216 000004                    ZERO    142,4

       22       22
       23       23
       24       24        /*M*     INITIALIZED DATA REQUIRED FOR L6 INSTRUCTION BREAK-OUT*/
       25       25
       26       26
       27       27        %INCLUDE XUH_MACRO_C;
       28      111        %INCLUDE DD_ERR_C;
       29      508        %INCLUDE DD_SD_M;
       30     1844        %S_D;
       31     3162        %INCLUDE DD$BASED;
       32     4465        %FPRG$CONTEXT;
PL6.E3A0      #001=DFR$INSTR File=DFR$INSTR.:E05TSI                              TUE 07/29/97 14:41 Page:46
       33     4528
       34     4529
       35     4530    1   DCL INSTRUCTIONS(0:511) CHAR(8) SYMREF READONLY;
       36     4531    1   DCL INSTRUCTION_TYPE(0:511) UBIN SYMREF READONLY;
       37     4532    1   DCL GENERIC_INSTRUCTIONS(0:127) CHAR(7) SYMREF READONLY;
       38     4533    1   DCL GENERIC_TYPE(0:127) UBIN SYMREF READONLY;
       39     4534    1   DCL SHIFT_INSTRUCTIONS(0:55) CHAR(6) SYMREF READONLY;
       40     4535    1   DCL SHIFT_D_INSTRUCTIONS(0:55) CHAR(6) SYMREF READONLY;
       41     4536    1   DCL 1 CMML(0:15) CONSTANT,
       42     4537    1         2 DDCNT UBIN(18)UNAL INIT(
       43     4538    1            3,2,2,3,3,2,3,2,3,2,2,3,2,2,1,2),
       44     4539    1         2 TYPE UBIN(18)UNAL INIT(
       45     4540    1   /*0A,1N,2E*/ 0,0,0,0,2,1,2,1,0,1,1,1,1,1,1,1);
       46     4541    1   DCL 1 RASSED_INSTR ,
       47     4542    1         2 COUNT UBIN,
       48     4543    1         2 BUFFER CHAR(80),
       49     4544    1         2 WORDS_USED UBIN;
       50     4545    1   DCL BUF_L UBIN;
       51     4546    1   DCL BUF_T CHAR(BUF_L) BASED;
       52     4547    1   DCL INSTRUCT(0:15) UBIN WORD;
       53     4548    1   DCL 1 INSTRUCT2(0:15) REDEF INSTRUCT,
       54     4549    1         2 * BIT(20) UNAL,
       55     4550    1         2 RIGHT16 BIT(16) UNAL;
       56     4551    1   DCL INSTR_IN(0:15) BIT(16);
       57     4552    1   DCL INSTR_ARRAY(0:15) UBIN(16) UNAL;
       58     4553    1   DCL PREL CHAR(6) CONSTANT INIT(',PREL^');
       59     4554    1   DCL R_REGISTERS(0:7) CHAR(3) CONSTANT INIT(
       60     4555    1       'X', ',R1', ',R2', ',R3', ',R4', ',R5', ',R6', ',R7');
       61     4556    1   DCL B_REGISTERS(0:7) CHAR(3) CONSTANT INIT(
       62     4557    1       'X', ',B1', ',B2', ',B3', ',B4', ',B5', ',B6', ',B7');
       63     4558    1   DCL OP_R_REGS(0:7) CHAR(2) CONSTANT INIT(
       64     4559    1       'X', 'R1', 'R2', 'R3', 'R4', 'R5', 'R6', 'R7');
       65     4560    1   DCL OP_B_REGS(0:7) CHAR(2) CONSTANT INIT(
       66     4561    1       'X', 'B1', 'B2', 'B3', 'B4', 'B5', 'B6', 'B7');
       67     4562    1   DCL SCI_REGS(0:3) CHAR(2) CONSTANT INIT(
       68     4563    1       'X', 'S1', 'S2', 'S3');
       69     4564    1   DCL INSTR UBIN(16) UNAL;
PL6.E3A0      #001=DFR$INSTR File=DFR$INSTR.:E05TSI                              TUE 07/29/97 14:41 Page:47
       70     4565    1   DCL 1 INSTRUCTION REDEF INSTR,
       71     4566    1         2 INDEXX UBIN(9) UNAL,            /* opcode register etc.               */
       72     4567    1         2 FUNCTION UBIN(7) UNAL;          /* function for generics              */
       73     4568    1   DCL 1 SV REDEF INSTR,                   /* short value instrctions            */
       74     4569    1         2 * UBIN(8) UNAL,                 /* short value opcode                 */
       75     4570    1         2 VALUE SBIN(8) UNAL;             /* immediate value                    */
       76     4571    1   DCL 1 ADDR_SYL REDEF INSTR,             /* address syllable                   */
       77     4572    1         2 * UBIN(9) UNAL,
       78     4573    1         2 PHRASE UBIN(7) UNAL,            /* address sysllable                  */
       79     4574    1         2 FRAME REDEF PHRASE UNAL,
       80     4575    1           3 M_FIELD UBIN(3) UNAL,         /* M field in addr syl                */
       81     4576    1           3 INDIRECT_FIELD UBIN(1) UNAL,  /* @ field in addr syl                */
       82     4577    1           3 N_FIELD UBIN(3) UNAL;         /* N field in addr syl                */
       83     4578    1   DCL 1 SHIFT_SINGLE REDEF INSTR,         /* single word shift                  */
       84     4579    1         2 * UBIN(12) UNAL,
       85     4580    1         2 VALUE UBIN(4) UNAL;             /* shift count & direction            */
       86     4581    1   DCL 1 SHIFT_DOUBLE REDEF INSTR,         /* double word shift                  */
       87     4582    1         2 * UBIN(11) UNAL,
       88     4583    1         2 VALUE UBIN(5) UNAL;             /* shift count and direction          */
       89     4584    1   DCL 1 BRANCH_FRAME REDEF INSTR,         /* branch instruction                 */
       90     4585    1         2 * UBIN(9) UNAL,
       91     4586    1         2 VALUE SBIN(7) UNAL;             /* displacement                       */
       92     4587    1   DCL 1 FORM REDEF INSTR,
       93     4588    1         2 HEX1 UBIN(4) UNAL,         /* structure useful for shift and others   */
       94     4589    1         2 HEX2 UBIN(4) UNAL,
       95     4590    1         2 HEX3 UBIN(4) UNAL,
       96     4591    1         2 HEX3R REDEF HEX3 UNAL,
       97     4592    1           3 B1 UBIN(1) UNAL,
       98     4593    1           3 * UBIN(3) UNAL,
       99     4594    1         2 HEX3S REDEF HEX3 UNAL,
      100     4595    1           3 TYPE UBIN(3) UNAL,            /* shift type                         */
      101     4596    1           3 * UBIN(1) UNAL,
      102     4597    1         2 HEX4 UBIN(4) UNAL;
      103     4598    1   DCL 1 RLQ_INSTR REDEF INSTR,
      104     4599    1         2 RLQ_INDICATOR UBIN(13) UNAL,    /* Rlq indicator must = 0             */
      105     4600    1         2 REGISTER UBIN(3) UNAL;          /* B reg rlq affects                  */
      106     4601    1   DCL 1 LDT_INSTR REDEF INSTR,
PL6.E3A0      #001=DFR$INSTR File=DFR$INSTR.:E05TSI                              TUE 07/29/97 14:41 Page:48
      107     4602    1         2 LDT_INDICATOR1 UBIN(9) UNAL,    /* Ldt INDICATOR1 must = 0            */
      108     4603    1         2 REGISTER UBIN(3) UNAL,          /* B reg ldt affects                  */
      109     4604    1         2 LDT_INDICATOR2 UBIN(4) UNAL;    /* Also must = 0                      */
      110     4605    1   DCL 1 ACQ_INSTR REDEF INSTR,
      111     4606    1         2 ACQ_INDICATOR1 UBIN(9) UNAL,    /* Must = 0                           */
      112     4607    1         2 ACQ_R_REG UBIN(3) UNAL,         /* R reg acq affects                  */
      113     4608    1         2 ACQ_INDICATOR2 UBIN(1) UNAL,    /* Also must = 0                      */
      114     4609    1         2 ACQ_B_REG UBIN(3) UNAL;         /* B reg acq affects                  */
      115     4610    1   DCL INDEX_FLAG BIT(1);
      116     4611    1   DCL DECODED_TEXT CHAR(64);
      117     4612    1   DCL I_O_INSTR_FLAG BIT(1);
      118     4613    1   DCL IOLD_INSTR_FLAG BIT(1);
      119     4614    1   DCL TEXT_HEX CHAR(16);
      120     4615    1   DCL L_ZEROS UBIN HALF;
      121     4616    1   DCL HEX_SIZE UBIN WORD;
      122     4617    1   DCL I UBIN WORD;
      123     4618    1   DCL INSTR_SIZE UBIN WORD;
      124     4619    1   DCL OUT BIT(1) ALIGNED;
      125     4620    1   DCL PTAB BIT(1) ALIGNED;
      126     4621    1   DCL TAB BIT(1) ALIGNED;
      127     4622
      128     4623    1   DCL DFR$BINHEX ENTRY(4);
      129     4624                                                                                    /**/
      130     4625    2           DO I = 0 TO 15; /* Converting input */

   4625  1 000002   200110 450100                    STZ     I,,AUTO

      131     4626    2              INSTR_IN(I) = INSTRUCT2.RIGHT16(I);

   4626  1 000003   200110 236100                    LDQ     I,,AUTO
         1 000004   000044 402007                    MPY     36,DL
         1 000005   200110 235100                    LDA     I,,AUTO
         1 000006   000004 735000                    ALS     4
         1 000007   200003 470500                    LDP0    @INSTRUCT,,AUTO
         1 000010   003105 060506                    CSL     bolr='003'O
         1 000011   000000 420020                    BDSC    0,Q,PR0                  by=2,bit=2,n=16
         1 000012   200036 000020                    BDSC    INSTR_IN,A,AUTO          by=0,bit=0,n=16
PL6.E3A0      #001=DFR$INSTR File=DFR$INSTR.:E05TSI                              TUE 07/29/97 14:41 Page:49

      132     4627    2           END;

   4627  1 000013   200110 235100                    LDA     I,,AUTO
         1 000014   000001 035007                    ADLA    1,DL
         1 000015   200110 755100                    STA     I,,AUTO
         1 000016   000020 115007                    CMPA    16,DL
         1 000017   000003 602000 1                  TNC     s:4626

      133     4628    1           INSTR_ARRAY = INSTR_IN;

   4628  1 000020   003100 060500                    CSL     bolr='003'O
         1 000021   200036 000400                    BDSC    INSTR_IN,,AUTO           by=0,bit=0,n=256
         1 000022   200046 000400                    BDSC    INSTR_ARRAY,,AUTO        by=0,bit=0,n=256

      134     4629    1           INSTR = INSTR_ARRAY(0);

   4629  1 000023   200046 236100                    LDQ     INSTR_ARRAY,,AUTO
         1 000024   200056 676100                    ERQ     INSTR,,AUTO
         1 000025   777774 376003                    ANQ     -4,DU
         1 000026   200056 656100                    ERSQ    INSTR,,AUTO

      135     4630    1           RASSED_INSTR.COUNT = 0;

   4630  1 000027   200007 450100                    STZ     RASSED_INSTR,,AUTO

      136     4631    1           RASSED_INSTR.BUFFER = ' ';

   4631  1 000030   040100 100400                    MLR     fill='040'O
         1 000031   000035 000001 xsym               ADSC9   B_VECTNIL+29             cn=0,n=1
         1 000032   200010 000120                    ADSC9   RASSED_INSTR+1,,AUTO     cn=0,n=80

      137     4632    1           RASSED_INSTR.WORDS_USED = 0;

   4632  1 000033   200034 450100                    STZ     RASSED_INSTR+21,,AUTO

      138     4633    1           I_O_INSTR_FLAG = '0'B;
PL6.E3A0      #001=DFR$INSTR File=DFR$INSTR.:E05TSI                              TUE 07/29/97 14:41 Page:50

   4633  1 000034   200100 450100                    STZ     I_O_INSTR_FLAG,,AUTO

      139     4634    1           IF ADDR(PTAB) ~= ADDR(NIL)

   4634  1 000035   200006 236100                    LDQ     @PTAB,,AUTO
         1 000036   000001 116000 xsym               CMPQ    B_VECTNIL+1
         1 000037   000045 600000 1                  TZE     s:4636

      140     4635    1           THEN TAB = PTAB;

   4635  1 000040   200006 471500                    LDP1    @PTAB,,AUTO
         1 000041   100000 236100                    LDQ     0,,PR1
         1 000042   400000 376003                    ANQ     -131072,DU
         1 000043   200111 756100                    STQ     TAB,,AUTO
         1 000044   000046 710000 1                  TRA     s:4637

      141     4636    1           ELSE TAB = '0'B;

   4636  1 000045   200111 450100                    STZ     TAB,,AUTO

      142     4637    1           IF TAB

   4637  1 000046   200111 234100                    SZN     TAB,,AUTO
         1 000047   000053 605000 1                  TPL     TYPE_DECODE

      143     4638    2           THEN DO;

      144     4639    2                S_D.L6_TAB = '0'B;

   4639  1 000050   000000 471400 xsym               LDP1    S_D$
         1 000051   106734 450100                    STZ     3548,,PR1

      145     4640    2                S_D.L6_TAB_VALUE = 0;

   4640  1 000052   106735 450100                    STZ     3549,,PR1

PL6.E3A0      #001=DFR$INSTR File=DFR$INSTR.:E05TSI                              TUE 07/29/97 14:41 Page:51
      146     4641    2              END;

      147     4642                                                                                    /**/
      148     4643    2   TYPE_DECODE: DO CASE ( INSTRUCTION_TYPE(INSTRUCTION.INDEXX) );

   4643  1 000053   200056 236100       TYPE_DECODE  LDQ     INSTR,,AUTO
         1 000054   000033 772000                    QRL     27
         1 000055   000000 235006 xsym               LDA     INSTRUCTION_TYPE,QL
         1 000056   000046 115007                    CMPA    38,DL
         1 000057   000061 602005 1                  TNC     TYPE_DECODE+6,AL
         1 000060   000665 710000 1                  TRA     A_OK
         1 000061   000127 710000 1                  TRA     s:4647
         1 000062   000130 710000 1                  TRA     GENERIC_DECODE
         1 000063   000343 710000 1                  TRA     s:4714
         1 000064   000343 710000 1                  TRA     s:4714
         1 000065   000343 710000 1                  TRA     s:4714
         1 000066   000346 710000 1                  TRA     s:4717
         1 000067   000343 710000 1                  TRA     s:4714
         1 000070   000343 710000 1                  TRA     s:4714
         1 000071   000351 710000 1                  TRA     s:4720
         1 000072   000354 710000 1                  TRA     s:4723
         1 000073   000351 710000 1                  TRA     s:4720
         1 000074   000354 710000 1                  TRA     s:4723
         1 000075   000351 710000 1                  TRA     s:4720
         1 000076   000354 710000 1                  TRA     s:4723
         1 000077   000351 710000 1                  TRA     s:4720
         1 000100   000354 710000 1                  TRA     s:4723
         1 000101   000351 710000 1                  TRA     s:4720
         1 000102   000354 710000 1                  TRA     s:4723
         1 000103   000351 710000 1                  TRA     s:4720
         1 000104   000354 710000 1                  TRA     s:4723
         1 000105   000351 710000 1                  TRA     s:4720
         1 000106   000354 710000 1                  TRA     s:4723
         1 000107   000343 710000 1                  TRA     s:4714
         1 000110   000357 710000 1                  TRA     s:4726
         1 000111   000365 710000 1                  TRA     s:4731
         1 000112   000375 710000 1                  TRA     s:4738
PL6.E3A0      #001=DFR$INSTR File=DFR$INSTR.:E05TSI                              TUE 07/29/97 14:41 Page:52
         1 000113   000375 710000 1                  TRA     s:4738
         1 000114   000415 710000 1                  TRA     s:4743
         1 000115   000435 710000 1                  TRA     s:4748
         1 000116   000462 710000 1                  TRA     s:4758
         1 000117   000504 710000 1                  TRA     s:4764
         1 000120   000524 710000 1                  TRA     s:4769
         1 000121   000544 710000 1                  TRA     s:4774
         1 000122   000564 710000 1                  TRA     s:4779
         1 000123   000604 710000 1                  TRA     s:4784
         1 000124   000624 710000 1                  TRA     s:4789
         1 000125   000644 710000 1                  TRA     s:4794
         1 000126   000375 710000 1                  TRA     s:4738

      149     4644                                                                                    /**/
      150     4645    2            CASE(0);                       /* unknown instruction                */

      151     4646    3              DO;

      152     4647    3                 END;                      /* end case 0                         */

   4647  1 000127   000665 710000 1                  TRA     A_OK

      153     4648    2            CASE(1);                       /* generic or commercial instruction  */

      154     4649                                                                                    /**/
      155     4650    3   GENERIC_DECODE: DO CASE( GENERIC_TYPE(INSTRUCTION.FUNCTION) );

   4650  1 000130   200056 236100       GENERIC_DEC* LDQ     INSTR,,AUTO
         1 000131   000024 772000                    QRL     20
         1 000132   000177 376007                    ANQ     127,DL
         1 000133   000000 235006 xsym               LDA     GENERIC_TYPE,QL
         1 000134   000004 115007                    CMPA    4,DL
         1 000135   000137 602005 1                  TNC     GENERIC_DECODE+7,AL
         1 000136   000665 710000 1                  TRA     A_OK
         1 000137   000143 710000 1                  TRA     s:4654
         1 000140   000144 710000 1                  TRA     s:4656
         1 000141   000157 710000 1                  TRA     s:4661
PL6.E3A0      #001=DFR$INSTR File=DFR$INSTR.:E05TSI                              TUE 07/29/97 14:41 Page:53
         1 000142   000302 710000 1                  TRA     s:4696

      156     4651                                                                                    /**/
      157     4652    3               CASE(0);                    /* unknown generic                    */

      158     4653    4                 DO;

      159     4654    4                    END;                   /* case 0                             */

   4654  1 000143   000665 710000 1                  TRA     A_OK

      160     4655    3               CASE(1);                    /* generics                           */

      161     4656    3                 RASSED_INSTR.BUFFER = GENERIC_INSTRUCTIONS(INSTRUCTION.FUNCTION);

   4656  1 000144   000007 402007                    MPY     7,DL
         1 000145   040100 100406                    MLR     fill='040'O
         1 000146   000000 000007 xsym               ADSC9   GENERIC_INSTRUCTIONS,Q   cn=0,n=7
         1 000147   200010 000120                    ADSC9   RASSED_INSTR+1,,AUTO     cn=0,n=80

      162     4657    3                 RASSED_INSTR.WORDS_USED = 1; /* end case 1                      */

   4657  1 000150   000001 235007                    LDA     1,DL
         1 000151   200034 755100                    STA     RASSED_INSTR+21,,AUTO

      163     4658    3                 CALL INDEX( RASSED_INSTR.COUNT, '^', RASSED_INSTR.BUFFER );

   4658  1 000152   000000 124500                    SCM     mask='000'O
         1 000153   200010 000120                    ADSC9   RASSED_INSTR+1,,AUTO     cn=0,n=80
         1 000154   000000 000001 2                  ADSC9   0                        cn=0,n=1
         1 000155   200007 000100                    ARG     RASSED_INSTR,,AUTO
         1 000156   000665 710000 1                  TRA     A_OK

      164     4659                                                                                    /**/
      165     4660    3               CASE(2);                    /* second word determines function    */

      166     4661    3                 INSTR = INSTR_ARRAY(1);
PL6.E3A0      #001=DFR$INSTR File=DFR$INSTR.:E05TSI                              TUE 07/29/97 14:41 Page:54

   4661  1 000157   200046 236100                    LDQ     INSTR_ARRAY,,AUTO
         1 000160   000020 736000                    QLS     16
         1 000161   200056 676100                    ERQ     INSTR,,AUTO
         1 000162   777774 376003                    ANQ     -4,DU
         1 000163   200056 656100                    ERSQ    INSTR,,AUTO

      167     4662    4                 IF INSTR = 0 THEN DO;     /* It's a stt instruction             */

   4662  1 000164   200056 236100                    LDQ     INSTR,,AUTO
         1 000165   777774 316003                    CANQ    -4,DU
         1 000166   000177 601000 1                  TNZ     s:4669

      168     4663    4   STT:             RASSED_INSTR.BUFFER = 'STT';

   4663  1 000167   040100 100400       STT          MLR     fill='040'O
         1 000170   000052 000003 0                  ADSC9   SPREL+2                  cn=0,n=3
         1 000171   200010 000120                    ADSC9   RASSED_INSTR+1,,AUTO     cn=0,n=80

      169     4664    4                    RASSED_INSTR.WORDS_USED = 2;

   4664  1 000172   000002 235007                    LDA     2,DL
         1 000173   200034 755100                    STA     RASSED_INSTR+21,,AUTO

      170     4665    4                    RASSED_INSTR.COUNT = 3;

   4665  1 000174   000003 235007                    LDA     3,DL
         1 000175   200007 755100                    STA     RASSED_INSTR,,AUTO

      171     4666    4                    END;

   4666  1 000176   000665 710000 1                  TRA     A_OK

      172     4667    4                 ELSE DO;

      173     4668                                                                                    /**/
      174     4669    5                    IF RLQ_INSTR.RLQ_INDICATOR = 0 THEN DO; /* It's an rlq instr */
PL6.E3A0      #001=DFR$INSTR File=DFR$INSTR.:E05TSI                              TUE 07/29/97 14:41 Page:55

   4669  1 000177   777740 316003                    CANQ    -32,DU
         1 000200   000221 601000 1                  TNZ     s:4676

      175     4670    5   RLQ:                CALL INSERT( RASSED_INSTR.BUFFER, 0,, 'RLQ ', OP_B_REGS(
              4670            RLQ_INSTR.REGISTER) );

   4670  1 000201   200056 236100       RLQ          LDQ     INSTR,,AUTO
         1 000202   000024 772000                    QRL     20
         1 000203   000007 376007                    ANQ     7,DL
         1 000204   200210 756100                    STQ     V+18,,AUTO
         1 000205   000053 236000 0                  LDQ     SPREL+3
         1 000206   200010 756100                    STQ     RASSED_INSTR+1,,AUTO
         1 000207   200210 235100                    LDA     V+18,,AUTO
         1 000210   000001 735000                    ALS     1
         1 000211   040100 100405                    MLR     fill='040'O
         1 000212   000042 000002 0                  ADSC9   OP_B_REGS,A              cn=0,n=2
         1 000213   200011 000114                    ADSC9   RASSED_INSTR+2,,AUTO     cn=0,n=76

      176     4671    5                       RASSED_INSTR.WORDS_USED = 2;

   4671  1 000214   000002 235007                    LDA     2,DL
         1 000215   200034 755100                    STA     RASSED_INSTR+21,,AUTO

      177     4672    5                       RASSED_INSTR.COUNT = 6;

   4672  1 000216   000006 236007                    LDQ     6,DL
         1 000217   200007 756100                    STQ     RASSED_INSTR,,AUTO

      178     4673    5                       END;

   4673  1 000220   000665 710000 1                  TRA     A_OK

      179     4674    5                    ELSE DO;

      180     4675                                                                                    /**/
      181     4676    6                       IF LDT_INSTR.LDT_INDICATOR1 = 0 AND LDT_INSTR.LDT_INDICATOR2 =0
PL6.E3A0      #001=DFR$INSTR File=DFR$INSTR.:E05TSI                              TUE 07/29/97 14:41 Page:56
              4676                                THEN DO; /* It's a ldt instr */

   4676  1 000221   777000 316003                    CANQ    -512,DU
         1 000222   000245 601000 1                  TNZ     s:4683
         1 000223   000074 316003                    CANQ    60,DU
         1 000224   000245 601000 1                  TNZ     s:4683

      182     4677    6   LDT:                   CALL INSERT( RASSED_INSTR.BUFFER, 0,, 'LDT ', OP_B_REGS(
              4677            LDT_INSTR.REGISTER) );

   4677  1 000225   200056 236100       LDT          LDQ     INSTR,,AUTO
         1 000226   000030 772000                    QRL     24
         1 000227   000007 376007                    ANQ     7,DL
         1 000230   200210 756100                    STQ     V+18,,AUTO
         1 000231   000054 236000 0                  LDQ     SPREL+4
         1 000232   200010 756100                    STQ     RASSED_INSTR+1,,AUTO
         1 000233   200210 235100                    LDA     V+18,,AUTO
         1 000234   000001 735000                    ALS     1
         1 000235   040100 100405                    MLR     fill='040'O
         1 000236   000042 000002 0                  ADSC9   OP_B_REGS,A              cn=0,n=2
         1 000237   200011 000114                    ADSC9   RASSED_INSTR+2,,AUTO     cn=0,n=76

      183     4678    6                          RASSED_INSTR.WORDS_USED = 2;

   4678  1 000240   000002 235007                    LDA     2,DL
         1 000241   200034 755100                    STA     RASSED_INSTR+21,,AUTO

      184     4679    6                          RASSED_INSTR.COUNT = 6;

   4679  1 000242   000006 236007                    LDQ     6,DL
         1 000243   200007 756100                    STQ     RASSED_INSTR,,AUTO

      185     4680    6                          END;

   4680  1 000244   000665 710000 1                  TRA     A_OK

      186     4681    6                       ELSE DO;
PL6.E3A0      #001=DFR$INSTR File=DFR$INSTR.:E05TSI                              TUE 07/29/97 14:41 Page:57

      187     4682                                                                                    /**/
      188     4683    6                          IF ACQ_INSTR.ACQ_INDICATOR1 = 0 AND

   4683  1 000245   777000 316003                    CANQ    -512,DU
         1 000246   000665 601000 1                  TNZ     A_OK
         1 000247   000040 316003                    CANQ    32,DU
         1 000250   000665 601000 1                  TNZ     A_OK

      189     4684    6                             ACQ_INSTR.ACQ_INDICATOR2 =0
      190     4685    7                          THEN DO; /* It's an acq instr */

      191     4686    7   ACQ:                     CALL INSERT( RASSED_INSTR.BUFFER, 0,, 'ACQ ',

   4686  1 000251   200056 236100       ACQ          LDQ     INSTR,,AUTO
         1 000252   000024 772000                    QRL     20
         1 000253   000007 376007                    ANQ     7,DL
         1 000254   000003 402007                    MPY     3,DL
         1 000255   200210 756100                    STQ     V+18,,AUTO
         1 000256   200056 236100                    LDQ     INSTR,,AUTO
         1 000257   000030 772000                    QRL     24
         1 000260   000007 376007                    ANQ     7,DL
         1 000261   000003 402007                    MPY     3,DL
         1 000262   200211 756100                    STQ     V+19,,AUTO
         1 000263   000055 236000 0                  LDQ     SPREL+5
         1 000264   200010 756100                    STQ     RASSED_INSTR+1,,AUTO
         1 000265   200210 235100                    LDA     V+18,,AUTO
         1 000266   040100 100405                    MLR     fill='040'O
         1 000267   000030 000003 0                  ADSC9   B_REGISTERS,A            cn=0,n=3
         1 000270   200011 000003                    ADSC9   RASSED_INSTR+2,,AUTO     cn=0,n=3
         1 000271   200211 235100                    LDA     V+19,,AUTO
         1 000272   040100 100405                    MLR     fill='040'O
         1 000273   000022 000003 0                  ADSC9   R_REGISTERS,A            cn=0,n=3
         1 000274   200011 600111                    ADSC9   RASSED_INSTR+2,,AUTO     cn=3,n=73

      192     4687    7                              B_REGISTERS(ACQ_INSTR.ACQ_B_REG), R_REGISTERS(ACQ_INSTR.
              4687                                        ACQ_R_REG) );
PL6.E3A0      #001=DFR$INSTR File=DFR$INSTR.:E05TSI                              TUE 07/29/97 14:41 Page:58
      193     4688    7                             RASSED_INSTR.WORDS_USED = 2;

   4688  1 000275   000002 235007                    LDA     2,DL
         1 000276   200034 755100                    STA     RASSED_INSTR+21,,AUTO

      194     4689    7                             RASSED_INSTR.COUNT = 10;

   4689  1 000277   000012 236007                    LDQ     10,DL
         1 000300   200007 756100                    STQ     RASSED_INSTR,,AUTO

      195     4690    7                             END;

      196     4691    6                          END;

      197     4692    5                       END;

      198     4693    4                    END;

   4693  1 000301   000665 710000 1                  TRA     A_OK

      199     4694                                                                                    /**/
      200     4695    3               CASE(3);                    /* commercial instructions            */

      201     4696    3                 RASSED_INSTR.BUFFER = GENERIC_INSTRUCTIONS(INSTRUCTION.FUNCTION);

   4696  1 000302   000007 402007                    MPY     7,DL
         1 000303   040100 100406                    MLR     fill='040'O
         1 000304   000000 000007 xsym               ADSC9   GENERIC_INSTRUCTIONS,Q   cn=0,n=7
         1 000305   200010 000120                    ADSC9   RASSED_INSTR+1,,AUTO     cn=0,n=80

      202     4697    3                 RASSED_INSTR.WORDS_USED = 1;

   4697  1 000306   000001 235007                    LDA     1,DL
         1 000307   200034 755100                    STA     RASSED_INSTR+21,,AUTO

      203     4698    3                 RASSED_INSTR.COUNT = 4;

PL6.E3A0      #001=DFR$INSTR File=DFR$INSTR.:E05TSI                              TUE 07/29/97 14:41 Page:59
   4698  1 000310   000004 235007                    LDA     4,DL
         1 000311   200007 755100                    STA     RASSED_INSTR,,AUTO

      204     4699    3                 CALL DECODE_DD ALTRET(BAD_ADDR_SYL);

   4699  1 000312   002313 701000 1                  TSX1    DECODE_DD
         1 000313   000666 702000 1                  TSX2    BAD_ADDR_SYL

      205     4700    3                 IF CMML.DDCNT(FORM.HEX4)>1 THEN

   4700  1 000314   200056 236100                    LDQ     INSTR,,AUTO
         1 000315   000024 772000                    QRL     20
         1 000316   000017 376007                    ANQ     15,DL
         1 000317   000000 220006 0                  LDX0    CMML,QL
         1 000320   000002 100003                    CMPX0   2,DU
         1 000321   000324 602000 1                  TNC     s:4702

      206     4701    3                 CALL DECODE_DD ALTRET(BAD_ADDR_SYL);

   4701  1 000322   002313 701000 1                  TSX1    DECODE_DD
         1 000323   000666 702000 1                  TSX2    BAD_ADDR_SYL

      207     4702    3                 IF CMML.DDCNT(FORM.HEX4)>2 THEN

   4702  1 000324   200056 236100                    LDQ     INSTR,,AUTO
         1 000325   000024 772000                    QRL     20
         1 000326   000017 376007                    ANQ     15,DL
         1 000327   000000 220006 0                  LDX0    CMML,QL
         1 000330   000003 100003                    CMPX0   3,DU
         1 000331   000334 602000 1                  TNC     s:4704

      208     4703    3                 CALL DECODE_DD ALTRET(BAD_ADDR_SYL);

   4703  1 000332   002313 701000 1                  TSX1    DECODE_DD
         1 000333   000666 702000 1                  TSX2    BAD_ADDR_SYL

      209     4704    3                 IF FORM.HEX4 = 14 THEN
PL6.E3A0      #001=DFR$INSTR File=DFR$INSTR.:E05TSI                              TUE 07/29/97 14:41 Page:60

   4704  1 000334   200056 236100                    LDQ     INSTR,,AUTO
         1 000335   000074 376003                    ANQ     60,DU
         1 000336   000070 116003                    CMPQ    56,DU
         1 000337   000665 601000 1                  TNZ     A_OK

      210     4705    3                 CALL DECODE_SCW ALTRET(BAD_ADDR_SYL); /* SHIFT CTL WD */

   4705  1 000340   002642 701000 1                  TSX1    DECODE_SCW
         1 000341   000666 702000 1                  TSX2    BAD_ADDR_SYL

      211     4706    3               END GENERIC_DECODE;

   4706  1 000342   000665 710000 1                  TRA     A_OK

      212     4707                                                                                    /**/
      213     4708    2            CASE(2,                        /* branch on indicators except  b     */

      214     4709    2                3,                         /* B instruction                      */
      215     4710    2                4,                         /* branch on register                 */
      216     4711    2                6,                         /* commercial set branch              */
      217     4712    2                7,                         /* branch on scientific register      */
      218     4713    2                22);                       /* scientific branch on indicators    */
      219     4714    2              CALL BRANCH;

   4714  1 000343   001002 701000 1                  TSX1    BRANCH
         1 000344   000000 011000                    NOP     0
         1 000345   000665 710000 1                  TRA     A_OK

      220     4715                                                                                    /**/
      221     4716    2            CASE(5);                       /* short value immediate              */

      222     4717    2              CALL SHORT_VALUE_IMMEDIATE;

   4717  1 000346   001655 701000 1                  TSX1    SHORT_VALUE_IMMEDIATE
         1 000347   000000 011000                    NOP     0
         1 000350   000665 710000 1                  TRA     A_OK
PL6.E3A0      #001=DFR$INSTR File=DFR$INSTR.:E05TSI                              TUE 07/29/97 14:41 Page:61

      223     4718                                                                                    /**/
      224     4719    2            CASE(8, 10, 12, 14, 16, 18, 20); /* shift R1-R7                      */

      225     4720    2              CALL SHIFT_SINGLE_REG;

   4720  1 000351   001723 701000 1                  TSX1    SHIFT_SINGLE_REG
         1 000352   000000 011000                    NOP     0
         1 000353   000665 710000 1                  TRA     A_OK

      226     4721                                                                                    /**/
      227     4722    2            CASE(9, 11, 13, 15, 17, 19, 21); /* double shift R1-R7               */

      228     4723    2              CALL SHIFT_DOUBLE_REG;

   4723  1 000354   001752 701000 1                  TSX1    SHIFT_DOUBLE_REG
         1 000355   000000 011000                    NOP     0
         1 000356   000665 710000 1                  TRA     A_OK

      229     4724                                                                                    /**/
      230     4725    2            CASE(23);                      /* Io or ioh                          */

      231     4726    2              I_O_INSTR_FLAG = '1'B;

   4726  1 000357   400000 236003                    LDQ     -131072,DU
         1 000360   200100 756100                    STQ     I_O_INSTR_FLAG,,AUTO

      232     4727    2              CALL I_O_INSTR;

   4727  1 000361   002036 701000 1                  TSX1    I_O_INSTR
         1 000362   000000 011000                    NOP     0

      233     4728    2              I_O_INSTR_FLAG = '0'B;

   4728  1 000363   200100 450100                    STZ     I_O_INSTR_FLAG,,AUTO
         1 000364   000665 710000 1                  TRA     A_OK

PL6.E3A0      #001=DFR$INSTR File=DFR$INSTR.:E05TSI                              TUE 07/29/97 14:41 Page:62
      234     4729                                                                                    /**/
      235     4730    2            CASE(24);                      /* Iold                               */

      236     4731    2              IOLD_INSTR_FLAG = '1'B;

   4731  1 000365   400000 236003                    LDQ     -131072,DU
         1 000366   200101 756100                    STQ     IOLD_INSTR_FLAG,,AUTO

      237     4732    2              I_O_INSTR_FLAG = '1'B;

   4732  1 000367   200100 756100                    STQ     I_O_INSTR_FLAG,,AUTO

      238     4733    2              CALL I_O_INSTR;

   4733  1 000370   002036 701000 1                  TSX1    I_O_INSTR
         1 000371   000000 011000                    NOP     0

      239     4734    2              IOLD_INSTR_FLAG = '0'B;

   4734  1 000372   200101 450100                    STZ     IOLD_INSTR_FLAG,,AUTO

      240     4735    2              I_O_INSTR_FLAG = '0'B;

   4735  1 000373   200100 450100                    STZ     I_O_INSTR_FLAG,,AUTO
         1 000374   000665 710000 1                  TRA     A_OK

      241     4736                                                                                    /**/
      242     4737    2            CASE(25, 26 ,37);         /* standard single operand instruction     */

      243     4738    2              RASSED_INSTR.BUFFER = INSTRUCTIONS(INSTRUCTION.INDEXX);

   4738  1 000375   000001 736000                    QLS     1
         1 000376   000002 736000                    QLS     2
         1 000377   040100 100406                    MLR     fill='040'O
         1 000400   000000 000010 xsym               ADSC9   INSTRUCTIONS,Q           cn=0,n=8
         1 000401   200010 000120                    ADSC9   RASSED_INSTR+1,,AUTO     cn=0,n=80

PL6.E3A0      #001=DFR$INSTR File=DFR$INSTR.:E05TSI                              TUE 07/29/97 14:41 Page:63
      244     4739    2              CALL DECODE_ADDR_SYL ALTRET(BAD_ADDR_SYL);

   4739  1 000402   002734 701000 1                  TSX1    DECODE_ADDR_SYL
         1 000403   000666 702000 1                  TSX2    BAD_ADDR_SYL

      245     4740    2              CALL DFR$MERGE( RASSED_INSTR.BUFFER, DECODED_TEXT, RASSED_INSTR.COUNT );

   4740  1 000404   200007 630500                    EPPR0   RASSED_INSTR,,AUTO
         1 000405   200115 450500                    STP0    @INPUT+1,,AUTO
         1 000406   200060 631500                    EPPR1   DECODED_TEXT,,AUTO
         1 000407   200114 451500                    STP1    @DESTINATION+1,,AUTO
         1 000410   200010 633500                    EPPR3   RASSED_INSTR+1,,AUTO
         1 000411   200113 453500                    STP3    TAB+2,,AUTO
         1 000412   006101 701000 1                  TSX1    DFR$MERGE
         1 000413   000000 011000                    NOP     0
         1 000414   000665 710000 1                  TRA     A_OK

      246     4741                                                                                    /**/
      247     4742    2            CASE(27);                      /* 32 bit imo single operand          */

      248     4743    2              RASSED_INSTR.BUFFER = INSTRUCTIONS(INSTRUCTION.INDEXX);

   4743  1 000415   000001 736000                    QLS     1
         1 000416   000002 736000                    QLS     2
         1 000417   040100 100406                    MLR     fill='040'O
         1 000420   000000 000010 xsym               ADSC9   INSTRUCTIONS,Q           cn=0,n=8
         1 000421   200010 000120                    ADSC9   RASSED_INSTR+1,,AUTO     cn=0,n=80

      249     4744    2              CALL DECODE_ADDR_SYL ALTRET(BAD_ADDR_SYL);

   4744  1 000422   002734 701000 1                  TSX1    DECODE_ADDR_SYL
         1 000423   000666 702000 1                  TSX2    BAD_ADDR_SYL

      250     4745    2              CALL DFR$MERGE( RASSED_INSTR.BUFFER, DECODED_TEXT, RASSED_INSTR.COUNT );

   4745  1 000424   200007 630500                    EPPR0   RASSED_INSTR,,AUTO
         1 000425   200115 450500                    STP0    @INPUT+1,,AUTO
PL6.E3A0      #001=DFR$INSTR File=DFR$INSTR.:E05TSI                              TUE 07/29/97 14:41 Page:64
         1 000426   200060 631500                    EPPR1   DECODED_TEXT,,AUTO
         1 000427   200114 451500                    STP1    @DESTINATION+1,,AUTO
         1 000430   200010 633500                    EPPR3   RASSED_INSTR+1,,AUTO
         1 000431   200113 453500                    STP3    TAB+2,,AUTO
         1 000432   006101 701000 1                  TSX1    DFR$MERGE
         1 000433   000000 011000                    NOP     0
         1 000434   000665 710000 1                  TRA     A_OK

      251     4746                                                                                    /**/
      252     4747    2            CASE(28);                      /* bit type operation                 */

      253     4748    2              RASSED_INSTR.BUFFER = INSTRUCTIONS(INSTRUCTION.INDEXX);

   4748  1 000435   000001 736000                    QLS     1
         1 000436   000002 736000                    QLS     2
         1 000437   040100 100406                    MLR     fill='040'O
         1 000440   000000 000010 xsym               ADSC9   INSTRUCTIONS,Q           cn=0,n=8
         1 000441   200010 000120                    ADSC9   RASSED_INSTR+1,,AUTO     cn=0,n=80

      254     4749    2              CALL DECODE_ADDR_SYL ALTRET(BAD_ADDR_SYL);

   4749  1 000442   002734 701000 1                  TSX1    DECODE_ADDR_SYL
         1 000443   000666 702000 1                  TSX2    BAD_ADDR_SYL

      255     4750    3              IF INDEX_FLAG THEN DO;       /* check to see if mask present       */

   4750  1 000444   200057 234100                    SZN     INDEX_FLAG,,AUTO
         1 000445   000451 605000 1                  TPL     s:4755

      256     4751    3                 CALL MASK_PRESENT;        /* mask there                         */

   4751  1 000446   005674 701000 1                  TSX1    MASK_PRESENT
         1 000447   000000 011000                    NOP     0

      257     4752    3                 END;

   4752  1 000450   000451 710000 1                  TRA     s:4755
PL6.E3A0      #001=DFR$INSTR File=DFR$INSTR.:E05TSI                              TUE 07/29/97 14:41 Page:65

      258     4753    3              ELSE DO;

      259     4754    3                 END;                      /* no mask                            */

      260     4755    2              CALL DFR$MERGE( RASSED_INSTR.BUFFER, DECODED_TEXT, RASSED_INSTR.COUNT );

   4755  1 000451   200007 630500                    EPPR0   RASSED_INSTR,,AUTO
         1 000452   200115 450500                    STP0    @INPUT+1,,AUTO
         1 000453   200060 631500                    EPPR1   DECODED_TEXT,,AUTO
         1 000454   200114 451500                    STP1    @DESTINATION+1,,AUTO
         1 000455   200010 633500                    EPPR3   RASSED_INSTR+1,,AUTO
         1 000456   200113 453500                    STP3    TAB+2,,AUTO
         1 000457   006101 701000 1                  TSX1    DFR$MERGE
         1 000460   000000 011000                    NOP     0
         1 000461   000665 710000 1                  TRA     A_OK

      261     4756                                                                                    /**/
      262     4757    2            CASE(29);                      /* save and restore, mask required    */

      263     4758    2              RASSED_INSTR.BUFFER = INSTRUCTIONS(INSTRUCTION.INDEXX);

   4758  1 000462   000001 736000                    QLS     1
         1 000463   000002 736000                    QLS     2
         1 000464   040100 100406                    MLR     fill='040'O
         1 000465   000000 000010 xsym               ADSC9   INSTRUCTIONS,Q           cn=0,n=8
         1 000466   200010 000120                    ADSC9   RASSED_INSTR+1,,AUTO     cn=0,n=80

      264     4759    2              CALL DECODE_ADDR_SYL ALTRET(BAD_ADDR_SYL);

   4759  1 000467   002734 701000 1                  TSX1    DECODE_ADDR_SYL
         1 000470   000666 702000 1                  TSX2    BAD_ADDR_SYL

      265     4760    2              CALL MASK_PRESENT;

   4760  1 000471   005674 701000 1                  TSX1    MASK_PRESENT
         1 000472   000000 011000                    NOP     0
PL6.E3A0      #001=DFR$INSTR File=DFR$INSTR.:E05TSI                              TUE 07/29/97 14:41 Page:66

      266     4761    2              CALL DFR$MERGE( RASSED_INSTR.BUFFER, DECODED_TEXT, RASSED_INSTR.COUNT );

   4761  1 000473   200007 630500                    EPPR0   RASSED_INSTR,,AUTO
         1 000474   200115 450500                    STP0    @INPUT+1,,AUTO
         1 000475   200060 631500                    EPPR1   DECODED_TEXT,,AUTO
         1 000476   200114 451500                    STP1    @DESTINATION+1,,AUTO
         1 000477   200010 633500                    EPPR3   RASSED_INSTR+1,,AUTO
         1 000500   200113 453500                    STP3    TAB+2,,AUTO
         1 000501   006101 701000 1                  TSX1    DFR$MERGE
         1 000502   000000 011000                    NOP     0
         1 000503   000665 710000 1                  TRA     A_OK

      267     4762                                                                                    /**/
      268     4763    2            CASE(30);                      /* M register double operand          */

      269     4764    2              RASSED_INSTR.BUFFER = INSTRUCTIONS(INSTRUCTION.INDEXX);

   4764  1 000504   000001 736000                    QLS     1
         1 000505   000002 736000                    QLS     2
         1 000506   040100 100406                    MLR     fill='040'O
         1 000507   000000 000010 xsym               ADSC9   INSTRUCTIONS,Q           cn=0,n=8
         1 000510   200010 000120                    ADSC9   RASSED_INSTR+1,,AUTO     cn=0,n=80

      270     4765    2              CALL DECODE_ADDR_SYL ALTRET(BAD_ADDR_SYL);

   4765  1 000511   002734 701000 1                  TSX1    DECODE_ADDR_SYL
         1 000512   000666 702000 1                  TSX2    BAD_ADDR_SYL

      271     4766    2              CALL DFR$MERGE( RASSED_INSTR.BUFFER, DECODED_TEXT, RASSED_INSTR.COUNT );

   4766  1 000513   200007 630500                    EPPR0   RASSED_INSTR,,AUTO
         1 000514   200115 450500                    STP0    @INPUT+1,,AUTO
         1 000515   200060 631500                    EPPR1   DECODED_TEXT,,AUTO
         1 000516   200114 451500                    STP1    @DESTINATION+1,,AUTO
         1 000517   200010 633500                    EPPR3   RASSED_INSTR+1,,AUTO
         1 000520   200113 453500                    STP3    TAB+2,,AUTO
PL6.E3A0      #001=DFR$INSTR File=DFR$INSTR.:E05TSI                              TUE 07/29/97 14:41 Page:67
         1 000521   006101 701000 1                  TSX1    DFR$MERGE
         1 000522   000000 011000                    NOP     0
         1 000523   000665 710000 1                  TRA     A_OK

      272     4767                                                                                    /**/
      273     4768    2            CASE(31);                      /* standard double operand            */

      274     4769    2              RASSED_INSTR.BUFFER = INSTRUCTIONS(INSTRUCTION.INDEXX);

   4769  1 000524   000001 736000                    QLS     1
         1 000525   000002 736000                    QLS     2
         1 000526   040100 100406                    MLR     fill='040'O
         1 000527   000000 000010 xsym               ADSC9   INSTRUCTIONS,Q           cn=0,n=8
         1 000530   200010 000120                    ADSC9   RASSED_INSTR+1,,AUTO     cn=0,n=80

      275     4770    2              CALL DECODE_ADDR_SYL ALTRET(BAD_ADDR_SYL);

   4770  1 000531   002734 701000 1                  TSX1    DECODE_ADDR_SYL
         1 000532   000666 702000 1                  TSX2    BAD_ADDR_SYL

      276     4771    2              CALL DFR$MERGE( RASSED_INSTR.BUFFER, DECODED_TEXT, RASSED_INSTR.COUNT );

   4771  1 000533   200007 630500                    EPPR0   RASSED_INSTR,,AUTO
         1 000534   200115 450500                    STP0    @INPUT+1,,AUTO
         1 000535   200060 631500                    EPPR1   DECODED_TEXT,,AUTO
         1 000536   200114 451500                    STP1    @DESTINATION+1,,AUTO
         1 000537   200010 633500                    EPPR3   RASSED_INSTR+1,,AUTO
         1 000540   200113 453500                    STP3    TAB+2,,AUTO
         1 000541   006101 701000 1                  TSX1    DFR$MERGE
         1 000542   000000 011000                    NOP     0
         1 000543   000665 710000 1                  TRA     A_OK

      277     4772                                                                                    /**/
      278     4773    2            CASE(32);                      /* Lnj instruction                    */

      279     4774    2              RASSED_INSTR.BUFFER = INSTRUCTIONS( INSTRUCTION.INDEXX );

PL6.E3A0      #001=DFR$INSTR File=DFR$INSTR.:E05TSI                              TUE 07/29/97 14:41 Page:68
   4774  1 000544   000001 736000                    QLS     1
         1 000545   000002 736000                    QLS     2
         1 000546   040100 100406                    MLR     fill='040'O
         1 000547   000000 000010 xsym               ADSC9   INSTRUCTIONS,Q           cn=0,n=8
         1 000550   200010 000120                    ADSC9   RASSED_INSTR+1,,AUTO     cn=0,n=80

      280     4775    2              CALL DECODE_ADDR_SYL ALTRET(BAD_ADDR_SYL);

   4775  1 000551   002734 701000 1                  TSX1    DECODE_ADDR_SYL
         1 000552   000666 702000 1                  TSX2    BAD_ADDR_SYL

      281     4776    2              CALL DFR$MERGE( RASSED_INSTR.BUFFER, DECODED_TEXT, RASSED_INSTR.COUNT );

   4776  1 000553   200007 630500                    EPPR0   RASSED_INSTR,,AUTO
         1 000554   200115 450500                    STP0    @INPUT+1,,AUTO
         1 000555   200060 631500                    EPPR1   DECODED_TEXT,,AUTO
         1 000556   200114 451500                    STP1    @DESTINATION+1,,AUTO
         1 000557   200010 633500                    EPPR3   RASSED_INSTR+1,,AUTO
         1 000560   200113 453500                    STP3    TAB+2,,AUTO
         1 000561   006101 701000 1                  TSX1    DFR$MERGE
         1 000562   000000 011000                    NOP     0
         1 000563   000665 710000 1                  TRA     A_OK

      282     4777                                                                                    /**/
      283     4778    2            CASE(33);                      /* base register double operand       */

      284     4779    2              RASSED_INSTR.BUFFER = INSTRUCTIONS(INSTRUCTION.INDEXX);

   4779  1 000564   000001 736000                    QLS     1
         1 000565   000002 736000                    QLS     2
         1 000566   040100 100406                    MLR     fill='040'O
         1 000567   000000 000010 xsym               ADSC9   INSTRUCTIONS,Q           cn=0,n=8
         1 000570   200010 000120                    ADSC9   RASSED_INSTR+1,,AUTO     cn=0,n=80

      285     4780    2              CALL DECODE_ADDR_SYL ALTRET(BAD_ADDR_SYL);

   4780  1 000571   002734 701000 1                  TSX1    DECODE_ADDR_SYL
PL6.E3A0      #001=DFR$INSTR File=DFR$INSTR.:E05TSI                              TUE 07/29/97 14:41 Page:69
         1 000572   000666 702000 1                  TSX2    BAD_ADDR_SYL

      286     4781    2              CALL DFR$MERGE( RASSED_INSTR.BUFFER, DECODED_TEXT, RASSED_INSTR.COUNT );

   4781  1 000573   200007 630500                    EPPR0   RASSED_INSTR,,AUTO
         1 000574   200115 450500                    STP0    @INPUT+1,,AUTO
         1 000575   200060 631500                    EPPR1   DECODED_TEXT,,AUTO
         1 000576   200114 451500                    STP1    @DESTINATION+1,,AUTO
         1 000577   200010 633500                    EPPR3   RASSED_INSTR+1,,AUTO
         1 000600   200113 453500                    STP3    TAB+2,,AUTO
         1 000601   006101 701000 1                  TSX1    DFR$MERGE
         1 000602   000000 011000                    NOP     0
         1 000603   000665 710000 1                  TRA     A_OK

      287     4782                                                                                    /**/
      288     4783    2            CASE(34);                      /* scientific double operand          */

      289     4784    2              RASSED_INSTR.BUFFER = INSTRUCTIONS(INSTRUCTION.INDEXX);

   4784  1 000604   000001 736000                    QLS     1
         1 000605   000002 736000                    QLS     2
         1 000606   040100 100406                    MLR     fill='040'O
         1 000607   000000 000010 xsym               ADSC9   INSTRUCTIONS,Q           cn=0,n=8
         1 000610   200010 000120                    ADSC9   RASSED_INSTR+1,,AUTO     cn=0,n=80

      290     4785    2              CALL DECODE_ADDR_SYL ALTRET(BAD_ADDR_SYL);

   4785  1 000611   002734 701000 1                  TSX1    DECODE_ADDR_SYL
         1 000612   000666 702000 1                  TSX2    BAD_ADDR_SYL

      291     4786    2              CALL DFR$MERGE( RASSED_INSTR.BUFFER, DECODED_TEXT, RASSED_INSTR.COUNT );

   4786  1 000613   200007 630500                    EPPR0   RASSED_INSTR,,AUTO
         1 000614   200115 450500                    STP0    @INPUT+1,,AUTO
         1 000615   200060 631500                    EPPR1   DECODED_TEXT,,AUTO
         1 000616   200114 451500                    STP1    @DESTINATION+1,,AUTO
         1 000617   200010 633500                    EPPR3   RASSED_INSTR+1,,AUTO
PL6.E3A0      #001=DFR$INSTR File=DFR$INSTR.:E05TSI                              TUE 07/29/97 14:41 Page:70
         1 000620   200113 453500                    STP3    TAB+2,,AUTO
         1 000621   006101 701000 1                  TSX1    DFR$MERGE
         1 000622   000000 011000                    NOP     0
         1 000623   000665 710000 1                  TRA     A_OK

      292     4787                                                                                    /**/
      293     4788    2            CASE(35);                      /* scientific double operand          */

      294     4789    2              RASSED_INSTR.BUFFER = INSTRUCTIONS(INSTRUCTION.INDEXX);

   4789  1 000624   000001 736000                    QLS     1
         1 000625   000002 736000                    QLS     2
         1 000626   040100 100406                    MLR     fill='040'O
         1 000627   000000 000010 xsym               ADSC9   INSTRUCTIONS,Q           cn=0,n=8
         1 000630   200010 000120                    ADSC9   RASSED_INSTR+1,,AUTO     cn=0,n=80

      295     4790    2              CALL DECODE_ADDR_SYL ALTRET(BAD_ADDR_SYL);

   4790  1 000631   002734 701000 1                  TSX1    DECODE_ADDR_SYL
         1 000632   000666 702000 1                  TSX2    BAD_ADDR_SYL

      296     4791    2              CALL DFR$MERGE( RASSED_INSTR.BUFFER, DECODED_TEXT, RASSED_INSTR.COUNT );

   4791  1 000633   200007 630500                    EPPR0   RASSED_INSTR,,AUTO
         1 000634   200115 450500                    STP0    @INPUT+1,,AUTO
         1 000635   200060 631500                    EPPR1   DECODED_TEXT,,AUTO
         1 000636   200114 451500                    STP1    @DESTINATION+1,,AUTO
         1 000637   200010 633500                    EPPR3   RASSED_INSTR+1,,AUTO
         1 000640   200113 453500                    STP3    TAB+2,,AUTO
         1 000641   006101 701000 1                  TSX1    DFR$MERGE
         1 000642   000000 011000                    NOP     0
         1 000643   000665 710000 1                  TRA     A_OK

      297     4792                                                                                    /**/
      298     4793    2            CASE(36);                      /* double operand with required mask  */

      299     4794    2              RASSED_INSTR.BUFFER = INSTRUCTIONS(INSTRUCTION.INDEXX);
PL6.E3A0      #001=DFR$INSTR File=DFR$INSTR.:E05TSI                              TUE 07/29/97 14:41 Page:71

   4794  1 000644   000001 736000                    QLS     1
         1 000645   000002 736000                    QLS     2
         1 000646   040100 100406                    MLR     fill='040'O
         1 000647   000000 000010 xsym               ADSC9   INSTRUCTIONS,Q           cn=0,n=8
         1 000650   200010 000120                    ADSC9   RASSED_INSTR+1,,AUTO     cn=0,n=80

      300     4795    2              CALL DECODE_ADDR_SYL ALTRET(BAD_ADDR_SYL);

   4795  1 000651   002734 701000 1                  TSX1    DECODE_ADDR_SYL
         1 000652   000666 702000 1                  TSX2    BAD_ADDR_SYL

      301     4796    2              CALL MASK_PRESENT;

   4796  1 000653   005674 701000 1                  TSX1    MASK_PRESENT
         1 000654   000000 011000                    NOP     0

      302     4797    2              CALL DFR$MERGE( RASSED_INSTR.BUFFER, DECODED_TEXT, RASSED_INSTR.COUNT );

   4797  1 000655   200007 630500                    EPPR0   RASSED_INSTR,,AUTO
         1 000656   200115 450500                    STP0    @INPUT+1,,AUTO
         1 000657   200060 631500                    EPPR1   DECODED_TEXT,,AUTO
         1 000660   200114 451500                    STP1    @DESTINATION+1,,AUTO
         1 000661   200010 633500                    EPPR3   RASSED_INSTR+1,,AUTO
         1 000662   200113 453500                    STP3    TAB+2,,AUTO
         1 000663   006101 701000 1                  TSX1    DFR$MERGE
         1 000664   000000 011000                    NOP     0

      303     4798    2            END TYPE_DECODE;

      304     4799    1   A_OK:   GOTO CHECK;

   4799  1 000665   000673 710000 1     A_OK         TRA     CHECK

      305     4800                                                                                    /**/
      306     4801    1   BAD_ADDR_SYL: RASSED_INSTR.COUNT = 0;

PL6.E3A0      #001=DFR$INSTR File=DFR$INSTR.:E05TSI                              TUE 07/29/97 14:41 Page:72
   4801  1 000666   200007 450100       BAD_ADDR_SYL STZ     RASSED_INSTR,,AUTO

      307     4802    1           RASSED_INSTR.BUFFER = ' ';

   4802  1 000667   040100 100400                    MLR     fill='040'O
         1 000670   000035 000001 xsym               ADSC9   B_VECTNIL+29             cn=0,n=1
         1 000671   200010 000120                    ADSC9   RASSED_INSTR+1,,AUTO     cn=0,n=80

      308     4803    1           RASSED_INSTR.WORDS_USED = 0;

   4803  1 000672   200034 450100                    STZ     RASSED_INSTR+21,,AUTO

      309     4804    1   CHECK:
      310     4805                /* If we can't format the 16 words into an instruction, then
      311     4806                   format the 1st word into a hexadecimal number */
      312     4807
      313     4808    1           IF RASSED_INSTR.WORDS_USED = 0 THEN

   4808  1 000673   200034 235100       CHECK        LDA     RASSED_INSTR+21,,AUTO
         1 000674   000737 601000 1                  TNZ     s:4817

      314     4809    2           DO;

      315     4810    2              CALL DFR$BINHEX ( INSTRUCT(0), TEXT_HEX, L_ZEROS, HEX_SIZE );

   4810  1 000675   200107 630500                    EPPR0   HEX_SIZE,,AUTO
         1 000676   200213 450500                    STP0    V+21,,AUTO
         1 000677   200106 631500                    EPPR1   L_ZEROS,,AUTO
         1 000700   200212 451500                    STP1    V+20,,AUTO
         1 000701   200102 633500                    EPPR3   TEXT_HEX,,AUTO
         1 000702   200211 453500                    STP3    V+19,,AUTO
         1 000703   200003 236100                    LDQ     @INSTRUCT,,AUTO
         1 000704   200210 756100                    STQ     V+18,,AUTO
         1 000705   200210 630500                    EPPR0   V+18,,AUTO
         1 000706   000022 631400 xsym               EPPR1   B_VECTNIL+18
         1 000707   000000 701000 xent               TSX1    DFR$BINHEX
         1 000710   000000 011000                    NOP     0
PL6.E3A0      #001=DFR$INSTR File=DFR$INSTR.:E05TSI                              TUE 07/29/97 14:41 Page:73

      316     4811    2              RASSED_INSTR.COUNT = HEX_SIZE + 1;

   4811  1 000711   200107 235100                    LDA     HEX_SIZE,,AUTO
         1 000712   000001 035007                    ADLA    1,DL
         1 000713   200007 755100                    STA     RASSED_INSTR,,AUTO

      317     4812    2              TEXT_HEX = SUBSTR ( TEXT_HEX, L_ZEROS, HEX_SIZE );

   4812  1 000714   200107 720100                    LXL0    HEX_SIZE,,AUTO
         1 000715   200106 236100                    LDQ     L_ZEROS,,AUTO
         1 000716   000022 772000                    QRL     18
         1 000717   040100 100546                    MLR     fill='040'O
         1 000720   200102 000010                    ADSC9   TEXT_HEX,Q,AUTO          cn=0,n=*X0
         1 000721   200102 000020                    ADSC9   TEXT_HEX,,AUTO           cn=0,n=16

      318     4813    2             CALL INSERT ( RASSED_INSTR.BUFFER, 0, RASSED_INSTR.COUNT, '.', TEXT_HEX )
              4813                       ;

   4813  1 000722   000000 621005                    EAX1    0,AL
         1 000723   040140 100400                    MLR     fill='040'O
         1 000724   000001 000001 2                  ADSC9   1                        cn=0,n=1
         1 000725   200010 000011                    ADSC9   RASSED_INSTR+1,,AUTO     cn=0,n=*X1
         1 000726   200007 236100                    LDQ     RASSED_INSTR,,AUTO
         1 000727   000002 116007                    CMPQ    2,DL
         1 000730   000735 602000 1                  TNC     s:4814
         1 000731   777777 620006                    EAX0    -1,QL
         1 000732   040140 100500                    MLR     fill='040'O
         1 000733   200102 000020                    ADSC9   TEXT_HEX,,AUTO           cn=0,n=16
         1 000734   200010 200010                    ADSC9   RASSED_INSTR+1,,AUTO     cn=1,n=*X0

      319     4814    2              RASSED_INSTR.WORDS_USED = 1;

   4814  1 000735   000001 235007                    LDA     1,DL
         1 000736   200034 755100                    STA     RASSED_INSTR+21,,AUTO

      320     4815    2           END;
PL6.E3A0      #001=DFR$INSTR File=DFR$INSTR.:E05TSI                              TUE 07/29/97 14:41 Page:74

      321     4816
      322     4817    1           INSTR_SIZE = RASSED_INSTR.WORDS_USED;

   4817  1 000737   200004 470500                    LDP0    @INSTR_SIZE,,AUTO
         1 000740   000000 755100                    STA     0,,PR0

      323     4818
      324     4819
      325     4820                /* Check if mnemonics output is desired and if the output buffer
      326     4821
      327     4822                   is big enough */
      328     4823    1           IF OUT = '0'B THEN RETURN;

   4823  1 000741   200005 471500                    LDP1    @OUT,,AUTO
         1 000742   100000 234100                    SZN     0,,PR1
         1 000743   000745 604000 1                  TMI     s:4824

   4823  1 000744   000000 702200 xent               TSX2  ! X66_ARET

      329     4824    1           IF S_D.D$ >= S_D.DESCL$ THEN GOTO BUFULL;

   4824  1 000745   000000 473400 xsym               LDP3    S_D$
         1 000746   300044 236100                    LDQ     36,,PR3
         1 000747   300042 116100                    CMPQ    34,,PR3
         1 000750   000777 603000 1                  TRC     BUFULL

      330     4825    1           BUF_L = POFFC ( S_D.DESCL$, S_D.D$ );

   4825  1 000751   300044 236100                    LDQ     36,,PR3
         1 000752   000020 772000                    QRL     16
         1 000753   200210 756100                    STQ     V+18,,AUTO
         1 000754   300042 236100                    LDQ     34,,PR3
         1 000755   000020 772000                    QRL     16
         1 000756   200210 136100                    SBLQ    V+18,,AUTO
         1 000757   200035 756100                    STQ     BUF_L,,AUTO

PL6.E3A0      #001=DFR$INSTR File=DFR$INSTR.:E05TSI                              TUE 07/29/97 14:41 Page:75
      331     4826    1           SUBSTR ( S_D.D$ -> BUF_T, 0, BUF_L ) =

   4826  1 000760   300044 474500                    LDP4    36,,PR3
         1 000761   200007 720100                    LXL0    RASSED_INSTR,,AUTO
         1 000762   000000 621006                    EAX1    0,QL
         1 000763   040140 100540                    MLR     fill='040'O
         1 000764   200010 000010                    ADSC9   RASSED_INSTR+1,,AUTO     cn=0,n=*X0
         1 000765   400000 000011                    ADSC9   0,,PR4                   cn=0,n=*X1

      332     4827    1              SUBSTR ( RASSED_INSTR.BUFFER, 0, RASSED_INSTR.COUNT );
      333     4828    1           S_D.D$ = PINCRC ( S_D.D$, RASSED_INSTR.COUNT );

   4828  1 000766   300044 474500                    LDP4    36,,PR3
         1 000767   200007 236100                    LDQ     RASSED_INSTR,,AUTO
         1 000770   000011 402007                    MPY     9,DL
         1 000771   400000 503506                    ABD     0,QL,PR4
         1 000772   300044 454500                    STP4    36,,PR3

      334     4829    1           IF S_D.D$ > S_D.DESCL$ THEN GOTO BUFULL;

   4829  1 000773   300042 236100                    LDQ     34,,PR3
         1 000774   300044 116100                    CMPQ    36,,PR3
         1 000775   000777 602000 1                  TNC     BUFULL

      335     4830    1           RETURN;

   4830  1 000776   000000 702200 xent               TSX2  ! X66_ARET

      336     4831
      337     4832    1   BUFULL: S_D.ERROR = E@BUFFULL;                        /* E@BUFFULL */

   4832  1 000777   000130 235007       BUFULL       LDA     88,DL
         1 001000   300013 755100                    STA     11,,PR3

      338     4833    1           ALTRETURN;

   4833  1 001001   000000 702200 xent               TSX2  ! X66_AALT
PL6.E3A0      #001=DFR$INSTR File=DFR$INSTR.:E05TSI                              TUE 07/29/97 14:41 Page:76

      339     4834        %EJECT;
PL6.E3A0      #001=DFR$INSTR File=DFR$INSTR.:E05TSI                              TUE 07/29/97 14:41 Page:77
      340     4835    1   BRANCH: PROC;

   4835  1 001002   200112 741300       BRANCH       STX1  ! TAB+1,,AUTO

      341     4836    2   DCL VALUE_TEXT CHAR(10);           /* Text string for decimal value of string */
      342     4837    2   DCL PREL_DISPLACEMENT SBIN(20) UNAL;
      343     4838    2   DCL DISPLACEMENT UBIN WORD;
      344     4839    2   DCL 1 R_DISPLACEMENT REDEF DISPLACEMENT,
      345     4840    2         2 * UBIN(16) UNAL,
      346     4841    2         2 HIGH_ORDER_BITS UBIN(4) UNAL,
      347     4842    2         2 LOW_ORDER_BITS UBIN(16) UNAL;
      348     4843    2   DCL POSITION UBIN WORD;
      349     4844    2   DCL SPREL CHAR(7) CONSTANT INIT(',SPREL^');
      350     4845    2   DCL VALUE SBIN WORD;
      351     4846    2   DCL DDR$POSIT ENTRY(5) ALTRET;
      352     4847    2   DCL SYM_BUF$ PTR;
      353     4848    2   DCL SYM_TEXT CHAR(64);
      354     4849    2   DCL SYM_LEN UBIN WORD;
      355     4850    2   DCL OFFSET SBIN WORD;                   /* Offset to that symbol              */
      356     4851    2   DCL SYMBOL_ADDR UBIN  WORD;             /* Addr of the symbol to be found     */
      357     4852    2   DCL T_SIGNED_16BITS SBIN(16) UNAL;
      358     4853    2   DCL SIGNED_16BITS SBIN(16) UNAL;
      359     4854    2   DCL SIGN UBIN WORD;
      360     4855                                                                                    /**/
      361     4856    2           SYM_BUF$ = ADDR (SYM_TEXT);

   4856  1 001003   200123 630500                    EPPR0   SYM_TEXT,,AUTO
         1 001004   200122 450500                    STP0    SYM_BUF$,,AUTO

      362     4857    2           DISPLACEMENT = 0;

   4857  1 001005   200117 450100                    STZ     DISPLACEMENT,,AUTO

      363     4858    2           RASSED_INSTR.BUFFER = INSTRUCTIONS( INSTRUCTION.INDEXX );

   4858  1 001006   200056 236100                    LDQ     INSTR,,AUTO
         1 001007   000032 772000                    QRL     26
PL6.E3A0      #001=DFR$INSTR File=DFR$INSTR.:E05TSI                              TUE 07/29/97 14:41 Page:78
         1 001010   001776 376007                    ANQ     1022,DL
         1 001011   000002 736000                    QLS     2
         1 001012   040100 100406                    MLR     fill='040'O
         1 001013   000000 000010 xsym               ADSC9   INSTRUCTIONS,Q           cn=0,n=8
         1 001014   200010 000120                    ADSC9   RASSED_INSTR+1,,AUTO     cn=0,n=80

      364     4859    3   DECODE_BRANCH: DO CASE( BRANCH_FRAME.VALUE );

   4859  1 001015   200056 236100       DECODE_BRAN* LDQ     INSTR,,AUTO
         1 001016   000011 736000                    QLS     9
         1 001017   000035 732000                    QRS     29
         1 001020   000002 116007                    CMPQ    2,DL
         1 001021   001023 602006 1                  TNC     DECODE_BRANCH+6,QL
         1 001022   001466 710000 1                  TRA     s:4921
         1 001023   001025 710000 1                  TRA     s:4862
         1 001024   001221 710000 1                  TRA     s:4894

      365     4860                                                                                    /**/
      366     4861    3            CASE( 0 );                /* Branch to address ( 20 bits worth )     */

      367     4862    3              R_DISPLACEMENT.HIGH_ORDER_BITS = INSTR_ARRAY(1);

   4862  1 001025   200046 236100                    LDQ     INSTR_ARRAY,,AUTO
         1 001026   000014 736000                    QLS     12
         1 001027   200117 676100                    ERQ     DISPLACEMENT,,AUTO
         1 001030   000002 376000 2                  ANQ     2
         1 001031   200117 656100                    ERSQ    DISPLACEMENT,,AUTO

      368     4863    3              R_DISPLACEMENT.LOW_ORDER_BITS = INSTR_ARRAY(2);

   4863  1 001032   200046 235100                    LDA     INSTR_ARRAY,,AUTO
         1 001033   200047 236100                    LDQ     INSTR_ARRAY+1,,AUTO
         1 001034   000030 773000                    LRL     24
         1 001035   177777 376007                    ANQ     65535,DL
         1 001036   200117 676100                    ERQ     DISPLACEMENT,,AUTO
         1 001037   177777 376007                    ANQ     65535,DL
         1 001040   200117 656100                    ERSQ    DISPLACEMENT,,AUTO
PL6.E3A0      #001=DFR$INSTR File=DFR$INSTR.:E05TSI                              TUE 07/29/97 14:41 Page:79

      369     4864    3              SYMBOL_ADDR = DISPLACEMENT;

   4864  1 001041   200117 235100                    LDA     DISPLACEMENT,,AUTO
         1 001042   200145 755100                    STA     SYMBOL_ADDR,,AUTO

      370     4865    3              CALL DDR$POSIT( SYMBOL_ADDR, SYM_BUF$, 64, SYM_LEN );

   4865  1 001043   200143 631500                    EPPR1   SYM_LEN,,AUTO
         1 001044   200213 451500                    STP1    V+21,,AUTO
         1 001045   000004 236000 2                  LDQ     4
         1 001046   200212 756100                    STQ     V+20,,AUTO
         1 001047   200122 633500                    EPPR3   SYM_BUF$,,AUTO
         1 001050   200211 453500                    STP3    V+19,,AUTO
         1 001051   200145 634500                    EPPR4   SYMBOL_ADDR,,AUTO
         1 001052   200210 454500                    STP4    V+18,,AUTO
         1 001053   200210 630500                    EPPR0   V+18,,AUTO
         1 001054   000022 631400 xsym               EPPR1   B_VECTNIL+18
         1 001055   000000 701000 xent               TSX1    DDR$POSIT
         1 001056   000000 011000                    NOP     0

      371     4866    3              IF TAB

   4866  1 001057   200111 234100                    SZN     TAB,,AUTO
         1 001060   001066 605000 1                  TPL     s:4871

      372     4867    4              THEN DO;

      373     4868    4                   S_D.L6_TAB = '1'B;

   4868  1 001061   400000 236003                    LDQ     -131072,DU
         1 001062   000000 470400 xsym               LDP0    S_D$
         1 001063   006734 756100                    STQ     3548,,PR0

      374     4869    4                   S_D.L6_TAB_VALUE = SYMBOL_ADDR;

   4869  1 001064   200145 235100                    LDA     SYMBOL_ADDR,,AUTO
PL6.E3A0      #001=DFR$INSTR File=DFR$INSTR.:E05TSI                              TUE 07/29/97 14:41 Page:80
         1 001065   006735 755100                    STA     3549,,PR0

      375     4870    4                 END;

      376     4871    4              IF SYM_LEN = 0 THEN DO ;  /* DDR$POSIT didn't find a match     */

   4871  1 001066   200143 235100                    LDA     SYM_LEN,,AUTO
         1 001067   001177 601000 1                  TNZ     s:4886

      377     4872    4                 CALL DFR$BINHEX( DISPLACEMENT, TEXT_HEX, L_ZEROS );

   4872  1 001070   200106 630500                    EPPR0   L_ZEROS,,AUTO
         1 001071   200212 450500                    STP0    V+20,,AUTO
         1 001072   200102 631500                    EPPR1   TEXT_HEX,,AUTO
         1 001073   200211 451500                    STP1    V+19,,AUTO
         1 001074   200117 633500                    EPPR3   DISPLACEMENT,,AUTO
         1 001075   200210 453500                    STP3    V+18,,AUTO
         1 001076   200210 630500                    EPPR0   V+18,,AUTO
         1 001077   000021 631400 xsym               EPPR1   B_VECTNIL+17
         1 001100   000000 701000 xent               TSX1    DFR$BINHEX
         1 001101   000000 011000                    NOP     0

      378     4873    4              IF TAB

   4873  1 001102   200111 234100                    SZN     TAB,,AUTO
         1 001103   001111 605000 1                  TPL     s:4878

      379     4874    5              THEN DO;

      380     4875    5                      S_D.L6_TAB = '1'B;

   4875  1 001104   400000 236003                    LDQ     -131072,DU
         1 001105   000000 470400 xsym               LDP0    S_D$
         1 001106   006734 756100                    STQ     3548,,PR0

      381     4876    5                      S_D.L6_TAB_VALUE = DISPLACEMENT;

PL6.E3A0      #001=DFR$INSTR File=DFR$INSTR.:E05TSI                              TUE 07/29/97 14:41 Page:81
   4876  1 001107   200117 235100                    LDA     DISPLACEMENT,,AUTO
         1 001110   006735 755100                    STA     3549,,PR0

      382     4877    5                   END;

      383     4878    4                 CALL INDEX( POSITION, ' ', RASSED_INSTR.BUFFER );

   4878  1 001111   000000 124500                    SCM     mask='000'O
         1 001112   200010 000120                    ADSC9   RASSED_INSTR+1,,AUTO     cn=0,n=80
         1 001113   000035 000001 xsym               ADSC9   B_VECTNIL+29             cn=0,n=1
         1 001114   200120 000100                    ARG     POSITION,,AUTO

      384     4879    4                 POSITION = POSITION + 1;

   4879  1 001115   200120 235100                    LDA     POSITION,,AUTO
         1 001116   000001 035007                    ADLA    1,DL
         1 001117   200120 755100                    STA     POSITION,,AUTO

      385     4880    4                IF L_ZEROS = 8 THEN CALL INSERT( RASSED_INSTR.BUFFER, POSITION,, '.0^'
              4880                          );

   4880  1 001120   200106 220100                    LDX0    L_ZEROS,,AUTO
         1 001121   000010 100003                    CMPX0   8,DU
         1 001122   001131 601000 1                  TNZ     s:4882

   4880  1 001123   777657 621005                    EAX1    -81,AL
         1 001124   777777 661003                    ERX1    -1,DU
         1 001125   040145 100400                    MLR     fill='040'O
         1 001126   000056 000003 0                  ADSC9   SPREL+6                  cn=0,n=3
         1 001127   200010 000011                    ADSC9   RASSED_INSTR+1,A,AUTO    cn=0,n=*X1
         1 001130   001172 710000 1                  TRA     s:4883

      386     4881    4                 ELSE
      387     4882    4                   CALL INSERT( RASSED_INSTR.BUFFER, POSITION,, '.', SUBSTR( TEXT_HEX,
              4882                             L_ZEROS, 8-L_ZEROS ), '^' );

   4882  1 001131   777657 621005                    EAX1    -81,AL
PL6.E3A0      #001=DFR$INSTR File=DFR$INSTR.:E05TSI                              TUE 07/29/97 14:41 Page:82
         1 001132   777777 661003                    ERX1    -1,DU
         1 001133   040145 100400                    MLR     fill='040'O
         1 001134   000001 000001 2                  ADSC9   1                        cn=0,n=1
         1 001135   200010 000011                    ADSC9   RASSED_INSTR+1,A,AUTO    cn=0,n=*X1
         1 001136   200120 236100                    LDQ     POSITION,,AUTO
         1 001137   000117 116007                    CMPQ    79,DL
         1 001140   001172 603000 1                  TRC     s:4883
         1 001141   000010 220003                    LDX0    8,DU
         1 001142   200106 120100                    SBLX0   L_ZEROS,,AUTO
         1 001143   777660 622006                    EAX2    -80,QL
         1 001144   777777 662003                    ERX2    -1,DU
         1 001145   200106 235100                    LDA     L_ZEROS,,AUTO
         1 001146   000022 771000                    ARL     18
         1 001147   040146 100545                    MLR     fill='040'O
         1 001150   200102 000010                    ADSC9   TEXT_HEX,A,AUTO          cn=0,n=*X0
         1 001151   200010 200012                    ADSC9   RASSED_INSTR+1,Q,AUTO    cn=1,n=*X2
         1 001152   200106 236100                    LDQ     L_ZEROS,,AUTO
         1 001153   000022 772000                    QRL     18
         1 001154   200120 136100                    SBLQ    POSITION,,AUTO
         1 001155   000005 116000 2                  CMPQ    5
         1 001156   001172 604400 1                  TMOZ    s:4883
         1 001157   200106 235100                    LDA     L_ZEROS,,AUTO
         1 001160   000022 771000                    ARL     18
         1 001161   200210 755100                    STA     V+18,,AUTO
         1 001162   200211 756100                    STQ     V+19,,AUTO
         1 001163   200120 236100                    LDQ     POSITION,,AUTO
         1 001164   200210 136100                    SBLQ    V+18,,AUTO
         1 001165   200211 720100                    LXL0    V+19,,AUTO
         1 001166   000107 623010                    EAX3    71,X0
         1 001167   040146 100400                    MLR     fill='040'O
         1 001170   000000 000001 2                  ADSC9   0                        cn=0,n=1
         1 001171   200012 200013                    ADSC9   RASSED_INSTR+3,Q,AUTO    cn=1,n=*X3

      388     4883    4                 CALL INDEX( RASSED_INSTR.COUNT, '^', RASSED_INSTR.BUFFER );

   4883  1 001172   000000 124500                    SCM     mask='000'O
         1 001173   200010 000120                    ADSC9   RASSED_INSTR+1,,AUTO     cn=0,n=80
PL6.E3A0      #001=DFR$INSTR File=DFR$INSTR.:E05TSI                              TUE 07/29/97 14:41 Page:83
         1 001174   000000 000001 2                  ADSC9   0                        cn=0,n=1
         1 001175   200007 000100                    ARG     RASSED_INSTR,,AUTO

      389     4884    4                 END;

   4884  1 001176   001216 710000 1                  TRA     s:4891

      390     4885    4              ELSE DO;

      391     4886    4                 CALL INDEX( POSITION, ' ', RASSED_INSTR.BUFFER );

   4886  1 001177   000000 124500                    SCM     mask='000'O
         1 001200   200010 000120                    ADSC9   RASSED_INSTR+1,,AUTO     cn=0,n=80
         1 001201   000035 000001 xsym               ADSC9   B_VECTNIL+29             cn=0,n=1
         1 001202   200120 000100                    ARG     POSITION,,AUTO

      392     4887    4                 POSITION = POSITION + 1;

   4887  1 001203   200120 236100                    LDQ     POSITION,,AUTO
         1 001204   000001 036007                    ADLQ    1,DL
         1 001205   200120 756100                    STQ     POSITION,,AUTO

      393     4888    4                 CALL INSERT( RASSED_INSTR.BUFFER, POSITION,, SUBSTR( SYM_TEXT, 0,
              4888                          SYM_LEN ) );

   4888  1 001206   777657 620006                    EAX0    -81,QL
         1 001207   777777 660003                    ERX0    -1,DU
         1 001210   000000 621005                    EAX1    0,AL
         1 001211   040146 100540                    MLR     fill='040'O
         1 001212   200123 000011                    ADSC9   SYM_TEXT,,AUTO           cn=0,n=*X1
         1 001213   200010 000010                    ADSC9   RASSED_INSTR+1,Q,AUTO    cn=0,n=*X0

      394     4889    4                 RASSED_INSTR.COUNT = POSITION + SYM_LEN;

   4889  1 001214   200143 036100                    ADLQ    SYM_LEN,,AUTO
         1 001215   200007 756100                    STQ     RASSED_INSTR,,AUTO

PL6.E3A0      #001=DFR$INSTR File=DFR$INSTR.:E05TSI                              TUE 07/29/97 14:41 Page:84
      395     4890    4                 END;

      396     4891    3              RASSED_INSTR.WORDS_USED = 3;

   4891  1 001216   000003 235007                    LDA     3,DL
         1 001217   200034 755100                    STA     RASSED_INSTR+21,,AUTO
         1 001220   001653 710000 1                  TRA     s:4940

      397     4892                                                                                    /**/
      398     4893    3            CASE( 1 );                     /* Prel branch                        */

      399     4894    3              SIGNED_16BITS = INSTR_ARRAY(1);

   4894  1 001221   200046 236100                    LDQ     INSTR_ARRAY,,AUTO
         1 001222   000004 772000                    QRL     4
         1 001223   177777 376007                    ANQ     65535,DL
         1 001224   000024 736000                    QLS     20
         1 001225   200147 756100                    STQ     SIGNED_16BITS,,AUTO

      400     4895    3              DISPLACEMENT = SIGNED_16BITS;

   4895  1 001226   200147 236100                    LDQ     SIGNED_16BITS,,AUTO
         1 001227   000024 732000                    QRS     20
         1 001230   200117 756100                    STQ     DISPLACEMENT,,AUTO

      401     4896    4              IF SIGNED_16BITS < 0 THEN DO;

   4896  1 001231   200147 236100                    LDQ     SIGNED_16BITS,,AUTO
         1 001232   777774 376003                    ANQ     -4,DU
         1 001233   000000 116003                    CMPQ    0,DU
         1 001234   001252 605000 1                  TPL     s:4901

      402     4897    4                 T_SIGNED_16BITS = SIGNED_16BITS;

   4897  1 001235   200147 236100                    LDQ     SIGNED_16BITS,,AUTO
         1 001236   000024 732000                    QRS     20
         1 001237   000024 736000                    QLS     20
PL6.E3A0      #001=DFR$INSTR File=DFR$INSTR.:E05TSI                              TUE 07/29/97 14:41 Page:85
         1 001240   200146 756100                    STQ     T_SIGNED_16BITS,,AUTO

      403     4898    4                 T_SIGNED_16BITS = -T_SIGNED_16BITS;

   4898  1 001241   200146 236100                    LDQ     T_SIGNED_16BITS,,AUTO
         1 001242   000024 732000                    QRS     20
         1 001243   000027 676000 xsym               ERQ     B_VECTNIL+23
         1 001244   000001 036007                    ADLQ    1,DL
         1 001245   000024 736000                    QLS     20
         1 001246   200146 756100                    STQ     T_SIGNED_16BITS,,AUTO

      404     4899    4                 DISPLACEMENT = T_SIGNED_16BITS;

   4899  1 001247   200146 236100                    LDQ     T_SIGNED_16BITS,,AUTO
         1 001250   000024 732000                    QRS     20
         1 001251   200117 756100                    STQ     DISPLACEMENT,,AUTO

      405     4900    4                 END;

      406     4901    3              IF SIGNED_16BITS >= 0 THEN DISPLACEMENT = DISPLACEMENT + 1 ;

   4901  1 001252   200147 236100                    LDQ     SIGNED_16BITS,,AUTO
         1 001253   777774 376003                    ANQ     -4,DU
         1 001254   000000 116003                    CMPQ    0,DU
         1 001255   001262 604000 1                  TMI     s:4903

   4901  1 001256   200117 235100                    LDA     DISPLACEMENT,,AUTO
         1 001257   000001 035007                    ADLA    1,DL
         1 001260   200117 755100                    STA     DISPLACEMENT,,AUTO
         1 001261   001265 710000 1                  TRA     s:4904

      407     4902    3              ELSE
      408     4903    3                 DISPLACEMENT = DISPLACEMENT - 1;

   4903  1 001262   200117 235100                    LDA     DISPLACEMENT,,AUTO
         1 001263   000001 135007                    SBLA    1,DL
         1 001264   200117 755100                    STA     DISPLACEMENT,,AUTO
PL6.E3A0      #001=DFR$INSTR File=DFR$INSTR.:E05TSI                              TUE 07/29/97 14:41 Page:86

      409     4904    3              CALL DFR$BINHEX( DISPLACEMENT, TEXT_HEX, L_ZEROS );

   4904  1 001265   200106 631500                    EPPR1   L_ZEROS,,AUTO
         1 001266   200212 451500                    STP1    V+20,,AUTO
         1 001267   200102 633500                    EPPR3   TEXT_HEX,,AUTO
         1 001270   200211 453500                    STP3    V+19,,AUTO
         1 001271   200117 634500                    EPPR4   DISPLACEMENT,,AUTO
         1 001272   200210 454500                    STP4    V+18,,AUTO
         1 001273   200210 630500                    EPPR0   V+18,,AUTO
         1 001274   000021 631400 xsym               EPPR1   B_VECTNIL+17
         1 001275   000000 701000 xent               TSX1    DFR$BINHEX
         1 001276   000000 011000                    NOP     0

      410     4905    3              IF TAB

   4905  1 001277   200111 234100                    SZN     TAB,,AUTO
         1 001300   001317 605000 1                  TPL     s:4912

      411     4906    4              THEN DO;

      412     4907    4                   S_D.L6_TAB = '1'B;

   4907  1 001301   400000 236003                    LDQ     -131072,DU
         1 001302   000000 470400 xsym               LDP0    S_D$
         1 001303   006734 756100                    STQ     3548,,PR0

      413     4908    4                   IF SIGNED_16BITS < 0

   4908  1 001304   200147 236100                    LDQ     SIGNED_16BITS,,AUTO
         1 001305   777774 376003                    ANQ     -4,DU
         1 001306   000000 116003                    CMPQ    0,DU
         1 001307   001314 605000 1                  TPL     s:4910

      414     4909    4                   THEN S_D.L6_TAB_VALUE = S_D.O$.ADDRESS - DISPLACEMENT;

   4909  1 001310   000132 236100                    LDQ     90,,PR0
PL6.E3A0      #001=DFR$INSTR File=DFR$INSTR.:E05TSI                              TUE 07/29/97 14:41 Page:87
         1 001311   200117 136100                    SBLQ    DISPLACEMENT,,AUTO
         1 001312   006735 756100                    STQ     3549,,PR0
         1 001313   001317 710000 1                  TRA     s:4912

      415     4910    4                   ELSE S_D.L6_TAB_VALUE = S_D.O$.ADDRESS + DISPLACEMENT;

   4910  1 001314   000132 236100                    LDQ     90,,PR0
         1 001315   200117 036100                    ADLQ    DISPLACEMENT,,AUTO
         1 001316   006735 756100                    STQ     3549,,PR0

      416     4911    4                END;

      417     4912    3              CALL INDEX( POSITION, ' ', RASSED_INSTR.BUFFER );

   4912  1 001317   000000 124500                    SCM     mask='000'O
         1 001320   200010 000120                    ADSC9   RASSED_INSTR+1,,AUTO     cn=0,n=80
         1 001321   000035 000001 xsym               ADSC9   B_VECTNIL+29             cn=0,n=1
         1 001322   200120 000100                    ARG     POSITION,,AUTO

      418     4913    3              POSITION = POSITION + 1;

   4913  1 001323   200120 235100                    LDA     POSITION,,AUTO
         1 001324   000001 035007                    ADLA    1,DL
         1 001325   200120 755100                    STA     POSITION,,AUTO

      419     4914    3              IF SIGNED_16BITS < -1 THEN CALL INSERT( RASSED_INSTR.BUFFER, POSITION,,
              4914                       '$O-.', SUBSTR( TEXT_HEX, L_ZEROS, 8-L_ZEROS ), PREL );

   4914  1 001326   200147 236100                    LDQ     SIGNED_16BITS,,AUTO
         1 001327   777774 376003                    ANQ     -4,DU
         1 001330   777774 116003                    CMPQ    -4,DU
         1 001331   001374 605000 1                  TPL     s:4915

   4914  1 001332   777657 620005                    EAX0    -81,AL
         1 001333   777777 660003                    ERX0    -1,DU
         1 001334   040145 100400                    MLR     fill='040'O
         1 001335   000057 000004 0                  ADSC9   SPREL+7                  cn=0,n=4
PL6.E3A0      #001=DFR$INSTR File=DFR$INSTR.:E05TSI                              TUE 07/29/97 14:41 Page:88
         1 001336   200010 000010                    ADSC9   RASSED_INSTR+1,A,AUTO    cn=0,n=*X0
         1 001337   200120 236100                    LDQ     POSITION,,AUTO
         1 001340   000114 116007                    CMPQ    76,DL
         1 001341   001373 603000 1                  TRC     s:4914+37
         1 001342   000010 221003                    LDX1    8,DU
         1 001343   200106 121100                    SBLX1   L_ZEROS,,AUTO
         1 001344   777663 622006                    EAX2    -77,QL
         1 001345   777777 662003                    ERX2    -1,DU
         1 001346   200106 235100                    LDA     L_ZEROS,,AUTO
         1 001347   000022 771000                    ARL     18
         1 001350   040146 100545                    MLR     fill='040'O
         1 001351   200102 000011                    ADSC9   TEXT_HEX,A,AUTO          cn=0,n=*X1
         1 001352   200011 000012                    ADSC9   RASSED_INSTR+2,Q,AUTO    cn=0,n=*X2
         1 001353   200106 236100                    LDQ     L_ZEROS,,AUTO
         1 001354   000022 772000                    QRL     18
         1 001355   200120 136100                    SBLQ    POSITION,,AUTO
         1 001356   000006 116000 2                  CMPQ    6
         1 001357   001373 604400 1                  TMOZ    s:4914+37
         1 001360   200106 235100                    LDA     L_ZEROS,,AUTO
         1 001361   000022 771000                    ARL     18
         1 001362   200210 755100                    STA     V+18,,AUTO
         1 001363   200211 756100                    STQ     V+19,,AUTO
         1 001364   200120 236100                    LDQ     POSITION,,AUTO
         1 001365   200210 136100                    SBLQ    V+18,,AUTO
         1 001366   200211 721100                    LXL1    V+19,,AUTO
         1 001367   000104 623011                    EAX3    68,X1
         1 001370   040146 100400                    MLR     fill='040'O
         1 001371   000020 000006 0                  ADSC9   PREL                     cn=0,n=6
         1 001372   200013 000013                    ADSC9   RASSED_INSTR+4,Q,AUTO    cn=0,n=*X3
         1 001373   001457 710000 1                  TRA     s:4917

      420     4915    3              ELSE IF SIGNED_16BITS = -1 THEN CALL INSERT( RASSED_INSTR.BUFFER,
              4915                       POSITION,, '$O', PREL );

   4915  1 001374   200147 236100                    LDQ     SIGNED_16BITS,,AUTO
         1 001375   777774 376003                    ANQ     -4,DU
         1 001376   777774 116003                    CMPQ    -4,DU
PL6.E3A0      #001=DFR$INSTR File=DFR$INSTR.:E05TSI                              TUE 07/29/97 14:41 Page:89
         1 001377   001416 601000 1                  TNZ     s:4916

   4915  1 001400   777657 620005                    EAX0    -81,AL
         1 001401   777777 660003                    ERX0    -1,DU
         1 001402   040145 100400                    MLR     fill='040'O
         1 001403   000057 000002 0                  ADSC9   SPREL+7                  cn=0,n=2
         1 001404   200010 000010                    ADSC9   RASSED_INSTR+1,A,AUTO    cn=0,n=*X0
         1 001405   200120 236100                    LDQ     POSITION,,AUTO
         1 001406   000116 116007                    CMPQ    78,DL
         1 001407   001415 603000 1                  TRC     s:4915+17
         1 001410   777661 621006                    EAX1    -79,QL
         1 001411   777777 661003                    ERX1    -1,DU
         1 001412   040146 100400                    MLR     fill='040'O
         1 001413   000020 000006 0                  ADSC9   PREL                     cn=0,n=6
         1 001414   200010 400011                    ADSC9   RASSED_INSTR+1,Q,AUTO    cn=2,n=*X1
         1 001415   001457 710000 1                  TRA     s:4917

      421     4916    3                   ELSE CALL INSERT( RASSED_INSTR.BUFFER, POSITION,, '$O+.', SUBSTR(
              4916                            TEXT_HEX, L_ZEROS, 8-L_ZEROS ), PREL );

   4916  1 001416   777657 620005                    EAX0    -81,AL
         1 001417   777777 660003                    ERX0    -1,DU
         1 001420   040145 100400                    MLR     fill='040'O
         1 001421   000060 000004 0                  ADSC9   SPREL+8                  cn=0,n=4
         1 001422   200010 000010                    ADSC9   RASSED_INSTR+1,A,AUTO    cn=0,n=*X0
         1 001423   200120 236100                    LDQ     POSITION,,AUTO
         1 001424   000114 116007                    CMPQ    76,DL
         1 001425   001457 603000 1                  TRC     s:4917
         1 001426   000010 221003                    LDX1    8,DU
         1 001427   200106 121100                    SBLX1   L_ZEROS,,AUTO
         1 001430   777663 622006                    EAX2    -77,QL
         1 001431   777777 662003                    ERX2    -1,DU
         1 001432   200106 235100                    LDA     L_ZEROS,,AUTO
         1 001433   000022 771000                    ARL     18
         1 001434   040146 100545                    MLR     fill='040'O
         1 001435   200102 000011                    ADSC9   TEXT_HEX,A,AUTO          cn=0,n=*X1
         1 001436   200011 000012                    ADSC9   RASSED_INSTR+2,Q,AUTO    cn=0,n=*X2
PL6.E3A0      #001=DFR$INSTR File=DFR$INSTR.:E05TSI                              TUE 07/29/97 14:41 Page:90
         1 001437   200106 236100                    LDQ     L_ZEROS,,AUTO
         1 001440   000022 772000                    QRL     18
         1 001441   200120 136100                    SBLQ    POSITION,,AUTO
         1 001442   000006 116000 2                  CMPQ    6
         1 001443   001457 604400 1                  TMOZ    s:4917
         1 001444   200106 235100                    LDA     L_ZEROS,,AUTO
         1 001445   000022 771000                    ARL     18
         1 001446   200210 755100                    STA     V+18,,AUTO
         1 001447   200211 756100                    STQ     V+19,,AUTO
         1 001450   200120 236100                    LDQ     POSITION,,AUTO
         1 001451   200210 136100                    SBLQ    V+18,,AUTO
         1 001452   200211 721100                    LXL1    V+19,,AUTO
         1 001453   000104 623011                    EAX3    68,X1
         1 001454   040146 100400                    MLR     fill='040'O
         1 001455   000020 000006 0                  ADSC9   PREL                     cn=0,n=6
         1 001456   200013 000013                    ADSC9   RASSED_INSTR+4,Q,AUTO    cn=0,n=*X3

      422     4917    3              CALL INDEX( RASSED_INSTR.COUNT, '^', RASSED_INSTR.BUFFER );

   4917  1 001457   000000 124500                    SCM     mask='000'O
         1 001460   200010 000120                    ADSC9   RASSED_INSTR+1,,AUTO     cn=0,n=80
         1 001461   000000 000001 2                  ADSC9   0                        cn=0,n=1
         1 001462   200007 000100                    ARG     RASSED_INSTR,,AUTO

      423     4918    3              RASSED_INSTR.WORDS_USED = 2;

   4918  1 001463   000002 235007                    LDA     2,DL
         1 001464   200034 755100                    STA     RASSED_INSTR+21,,AUTO
         1 001465   001653 710000 1                  TRA     s:4940

      424     4919                                                                                    /**/
      425     4920    3            CASE ( ELSE );            /* Sprel branch values from -64 to +63     */

      426     4921    3              VALUE = BRANCH_FRAME.VALUE;

   4921  1 001466   200121 756100                    STQ     VALUE,,AUTO

PL6.E3A0      #001=DFR$INSTR File=DFR$INSTR.:E05TSI                              TUE 07/29/97 14:41 Page:91
      427     4922    3              IF VALUE < 0 THEN VALUE = -VALUE;

   4922  1 001467   000000 116003                    CMPQ    0,DU
         1 001470   001473 605000 1                  TPL     s:4924

   4922  1 001471   200121 335100                    LCA     VALUE,,AUTO
         1 001472   200121 755100                    STA     VALUE,,AUTO

      428     4923                                                                                    /**/
      429     4924    3              CALL DFR$BINHEX( VALUE, TEXT_HEX, L_ZEROS );

   4924  1 001473   200106 631500                    EPPR1   L_ZEROS,,AUTO
         1 001474   200212 451500                    STP1    V+20,,AUTO
         1 001475   200102 633500                    EPPR3   TEXT_HEX,,AUTO
         1 001476   200211 453500                    STP3    V+19,,AUTO
         1 001477   200121 634500                    EPPR4   VALUE,,AUTO
         1 001500   200210 454500                    STP4    V+18,,AUTO
         1 001501   200210 630500                    EPPR0   V+18,,AUTO
         1 001502   000021 631400 xsym               EPPR1   B_VECTNIL+17
         1 001503   000000 701000 xent               TSX1    DFR$BINHEX
         1 001504   000000 011000                    NOP     0

      430     4925    3              IF TAB

   4925  1 001505   200111 234100                    SZN     TAB,,AUTO
         1 001506   001526 605000 1                  TPL     s:4932

      431     4926    4              THEN DO;

      432     4927    4                   S_D.L6_TAB = '1'B;

   4927  1 001507   400000 236003                    LDQ     -131072,DU
         1 001510   000000 470400 xsym               LDP0    S_D$
         1 001511   006734 756100                    STQ     3548,,PR0

      433     4928    4                   IF BRANCH_FRAME.VALUE < 0

PL6.E3A0      #001=DFR$INSTR File=DFR$INSTR.:E05TSI                              TUE 07/29/97 14:41 Page:92
   4928  1 001512   200056 236100                    LDQ     INSTR,,AUTO
         1 001513   000011 736000                    QLS     9
         1 001514   000035 732000                    QRS     29
         1 001515   000000 116003                    CMPQ    0,DU
         1 001516   001523 605000 1                  TPL     s:4930

      434     4929    4                   THEN S_D.L6_TAB_VALUE = S_D.O$.ADDRESS - VALUE;

   4929  1 001517   000132 236100                    LDQ     90,,PR0
         1 001520   200121 136100                    SBLQ    VALUE,,AUTO
         1 001521   006735 756100                    STQ     3549,,PR0
         1 001522   001526 710000 1                  TRA     s:4932

      435     4930    4                   ELSE S_D.L6_TAB_VALUE = S_D.O$.ADDRESS + VALUE;

   4930  1 001523   000132 236100                    LDQ     90,,PR0
         1 001524   200121 036100                    ADLQ    VALUE,,AUTO
         1 001525   006735 756100                    STQ     3549,,PR0

      436     4931    4                 END;

      437     4932    3              CALL INDEX( POSITION, ' ', RASSED_INSTR.BUFFER );

   4932  1 001526   000000 124500                    SCM     mask='000'O
         1 001527   200010 000120                    ADSC9   RASSED_INSTR+1,,AUTO     cn=0,n=80
         1 001530   000035 000001 xsym               ADSC9   B_VECTNIL+29             cn=0,n=1
         1 001531   200120 000100                    ARG     POSITION,,AUTO

      438     4933    3              POSITION = POSITION + 1;

   4933  1 001532   200120 235100                    LDA     POSITION,,AUTO
         1 001533   000001 035007                    ADLA    1,DL
         1 001534   200120 755100                    STA     POSITION,,AUTO

      439     4934    3             IF BRANCH_FRAME.VALUE < 0 THEN CALL INSERT( RASSED_INSTR.BUFFER, POSITION
              4934                       ,, '$O-.',

PL6.E3A0      #001=DFR$INSTR File=DFR$INSTR.:E05TSI                              TUE 07/29/97 14:41 Page:93
   4934  1 001535   200056 236100                    LDQ     INSTR,,AUTO
         1 001536   000011 736000                    QLS     9
         1 001537   000035 732000                    QRS     29
         1 001540   000000 116003                    CMPQ    0,DU
         1 001541   001604 605000 1                  TPL     s:4936

   4934  1 001542   777657 620005                    EAX0    -81,AL
         1 001543   777777 660003                    ERX0    -1,DU
         1 001544   040145 100400                    MLR     fill='040'O
         1 001545   000057 000004 0                  ADSC9   SPREL+7                  cn=0,n=4
         1 001546   200010 000010                    ADSC9   RASSED_INSTR+1,A,AUTO    cn=0,n=*X0
         1 001547   200120 236100                    LDQ     POSITION,,AUTO
         1 001550   000114 116007                    CMPQ    76,DL
         1 001551   001603 603000 1                  TRC     s:4934+38
         1 001552   000010 221003                    LDX1    8,DU
         1 001553   200106 121100                    SBLX1   L_ZEROS,,AUTO
         1 001554   777663 622006                    EAX2    -77,QL
         1 001555   777777 662003                    ERX2    -1,DU
         1 001556   200106 235100                    LDA     L_ZEROS,,AUTO
         1 001557   000022 771000                    ARL     18
         1 001560   040146 100545                    MLR     fill='040'O
         1 001561   200102 000011                    ADSC9   TEXT_HEX,A,AUTO          cn=0,n=*X1
         1 001562   200011 000012                    ADSC9   RASSED_INSTR+2,Q,AUTO    cn=0,n=*X2
         1 001563   200106 236100                    LDQ     L_ZEROS,,AUTO
         1 001564   000022 772000                    QRL     18
         1 001565   200120 136100                    SBLQ    POSITION,,AUTO
         1 001566   000006 116000 2                  CMPQ    6
         1 001567   001603 604400 1                  TMOZ    s:4934+38
         1 001570   200106 235100                    LDA     L_ZEROS,,AUTO
         1 001571   000022 771000                    ARL     18
         1 001572   200210 755100                    STA     V+18,,AUTO
         1 001573   200211 756100                    STQ     V+19,,AUTO
         1 001574   200120 236100                    LDQ     POSITION,,AUTO
         1 001575   200210 136100                    SBLQ    V+18,,AUTO
         1 001576   200211 721100                    LXL1    V+19,,AUTO
         1 001577   000104 623011                    EAX3    68,X1
         1 001600   040146 100400                    MLR     fill='040'O
PL6.E3A0      #001=DFR$INSTR File=DFR$INSTR.:E05TSI                              TUE 07/29/97 14:41 Page:94
         1 001601   000050 000007 0                  ADSC9   SPREL                    cn=0,n=7
         1 001602   200013 000013                    ADSC9   RASSED_INSTR+4,Q,AUTO    cn=0,n=*X3
         1 001603   001645 710000 1                  TRA     s:4937

      440     4935    3                   SUBSTR( TEXT_HEX, L_ZEROS, 8-L_ZEROS ), SPREL );
      441     4936    3                   ELSE CALL INSERT( RASSED_INSTR.BUFFER, POSITION,, '$O+.', SUBSTR(
              4936                            TEXT_HEX, L_ZEROS, 8-L_ZEROS ), SPREL );

   4936  1 001604   777657 620005                    EAX0    -81,AL
         1 001605   777777 660003                    ERX0    -1,DU
         1 001606   040145 100400                    MLR     fill='040'O
         1 001607   000060 000004 0                  ADSC9   SPREL+8                  cn=0,n=4
         1 001610   200010 000010                    ADSC9   RASSED_INSTR+1,A,AUTO    cn=0,n=*X0
         1 001611   200120 236100                    LDQ     POSITION,,AUTO
         1 001612   000114 116007                    CMPQ    76,DL
         1 001613   001645 603000 1                  TRC     s:4937
         1 001614   000010 221003                    LDX1    8,DU
         1 001615   200106 121100                    SBLX1   L_ZEROS,,AUTO
         1 001616   777663 622006                    EAX2    -77,QL
         1 001617   777777 662003                    ERX2    -1,DU
         1 001620   200106 235100                    LDA     L_ZEROS,,AUTO
         1 001621   000022 771000                    ARL     18
         1 001622   040146 100545                    MLR     fill='040'O
         1 001623   200102 000011                    ADSC9   TEXT_HEX,A,AUTO          cn=0,n=*X1
         1 001624   200011 000012                    ADSC9   RASSED_INSTR+2,Q,AUTO    cn=0,n=*X2
         1 001625   200106 236100                    LDQ     L_ZEROS,,AUTO
         1 001626   000022 772000                    QRL     18
         1 001627   200120 136100                    SBLQ    POSITION,,AUTO
         1 001630   000006 116000 2                  CMPQ    6
         1 001631   001645 604400 1                  TMOZ    s:4937
         1 001632   200106 235100                    LDA     L_ZEROS,,AUTO
         1 001633   000022 771000                    ARL     18
         1 001634   200210 755100                    STA     V+18,,AUTO
         1 001635   200211 756100                    STQ     V+19,,AUTO
         1 001636   200120 236100                    LDQ     POSITION,,AUTO
         1 001637   200210 136100                    SBLQ    V+18,,AUTO
         1 001640   200211 721100                    LXL1    V+19,,AUTO
PL6.E3A0      #001=DFR$INSTR File=DFR$INSTR.:E05TSI                              TUE 07/29/97 14:41 Page:95
         1 001641   000104 623011                    EAX3    68,X1
         1 001642   040146 100400                    MLR     fill='040'O
         1 001643   000050 000007 0                  ADSC9   SPREL                    cn=0,n=7
         1 001644   200013 000013                    ADSC9   RASSED_INSTR+4,Q,AUTO    cn=0,n=*X3

      442     4937    3              CALL INDEX( RASSED_INSTR.COUNT, '^', RASSED_INSTR.BUFFER );

   4937  1 001645   000000 124500                    SCM     mask='000'O
         1 001646   200010 000120                    ADSC9   RASSED_INSTR+1,,AUTO     cn=0,n=80
         1 001647   000000 000001 2                  ADSC9   0                        cn=0,n=1
         1 001650   200007 000100                    ARG     RASSED_INSTR,,AUTO

      443     4938    3              RASSED_INSTR.WORDS_USED = 1;

   4938  1 001651   000001 235007                    LDA     1,DL
         1 001652   200034 755100                    STA     RASSED_INSTR+21,,AUTO

      444     4939    3            END DECODE_BRANCH;

      445     4940    2           RETURN;

   4940  1 001653   200112 221300                    LDX1  ! TAB+1,,AUTO
         1 001654   000001 702211                    TSX2  ! 1,X1

      446     4941    2   END BRANCH;
      447     4942        %EJECT;
PL6.E3A0      #001=DFR$INSTR File=DFR$INSTR.:E05TSI                              TUE 07/29/97 14:41 Page:96
      448     4943    1   SHORT_VALUE_IMMEDIATE: PROC;

   4943  1 001655   200112 741300       SHORT_VALUE* STX1  ! TAB+1,,AUTO

      449     4944    2   DCL VALUE_TEXT CHAR(10);
      450     4945    2   DCL VALUE SBIN WORD;
      451     4946    2   DCL POSITION UBIN WORD;
      452     4947                                                                                    /**/
      453     4948    2           RASSED_INSTR.BUFFER = INSTRUCTIONS( INSTRUCTION.INDEXX );

   4948  1 001656   200056 236100                    LDQ     INSTR,,AUTO
         1 001657   000032 772000                    QRL     26
         1 001660   001776 376007                    ANQ     1022,DL
         1 001661   000002 736000                    QLS     2
         1 001662   040100 100406                    MLR     fill='040'O
         1 001663   000000 000010 xsym               ADSC9   INSTRUCTIONS,Q           cn=0,n=8
         1 001664   200010 000120                    ADSC9   RASSED_INSTR+1,,AUTO     cn=0,n=80

      454     4949    2           VALUE = SV.VALUE;

   4949  1 001665   200056 236100                    LDQ     INSTR,,AUTO
         1 001666   000010 736000                    QLS     8
         1 001667   000034 732000                    QRS     28
         1 001670   200116 756100                    STQ     VALUE,,AUTO

      455     4950    2           CALL CONVERT_BIN_TO_DEC( VALUE_TEXT, VALUE );

   4950  1 001671   200116 630500                    EPPR0   VALUE,,AUTO
         1 001672   200124 450500                    STP0    @TEXT+1,,AUTO
         1 001673   200113 631500                    EPPR1   VALUE_TEXT,,AUTO
         1 001674   200123 451500                    STP1    SYM_TEXT,,AUTO
         1 001675   005754 701000 1                  TSX1    CONVERT_BIN_TO_DEC
         1 001676   000000 011000                    NOP     0

      456     4951    2           CALL INDEX( POSITION, ' ', RASSED_INSTR.BUFFER );

   4951  1 001677   000000 124500                    SCM     mask='000'O
PL6.E3A0      #001=DFR$INSTR File=DFR$INSTR.:E05TSI                              TUE 07/29/97 14:41 Page:97
         1 001700   200010 000120                    ADSC9   RASSED_INSTR+1,,AUTO     cn=0,n=80
         1 001701   000035 000001 xsym               ADSC9   B_VECTNIL+29             cn=0,n=1
         1 001702   200117 000100                    ARG     POSITION,,AUTO

      457     4952    2           POSITION = POSITION + 1;

   4952  1 001703   200117 235100                    LDA     POSITION,,AUTO
         1 001704   000001 035007                    ADLA    1,DL
         1 001705   200117 755100                    STA     POSITION,,AUTO

      458     4953    2           CALL INSERT( RASSED_INSTR.BUFFER, POSITION,, VALUE_TEXT );

   4953  1 001706   777657 620005                    EAX0    -81,AL
         1 001707   777777 660003                    ERX0    -1,DU
         1 001710   040145 100500                    MLR     fill='040'O
         1 001711   200113 000012                    ADSC9   VALUE_TEXT,,AUTO         cn=0,n=10
         1 001712   200010 000010                    ADSC9   RASSED_INSTR+1,A,AUTO    cn=0,n=*X0

      459     4954    2           RASSED_INSTR.WORDS_USED = 1;

   4954  1 001713   000001 236007                    LDQ     1,DL
         1 001714   200034 756100                    STQ     RASSED_INSTR+21,,AUTO

      460     4955    2           CALL INDEX( RASSED_INSTR.COUNT, '^', RASSED_INSTR.BUFFER );

   4955  1 001715   000000 124500                    SCM     mask='000'O
         1 001716   200010 000120                    ADSC9   RASSED_INSTR+1,,AUTO     cn=0,n=80
         1 001717   000000 000001 2                  ADSC9   0                        cn=0,n=1
         1 001720   200007 000100                    ARG     RASSED_INSTR,,AUTO

      461     4956    2           RETURN;

   4956  1 001721   200112 221300                    LDX1  ! TAB+1,,AUTO
         1 001722   000001 702211                    TSX2  ! 1,X1

      462     4957    2   END SHORT_VALUE_IMMEDIATE;
      463     4958        %EJECT;
PL6.E3A0      #001=DFR$INSTR File=DFR$INSTR.:E05TSI                              TUE 07/29/97 14:41 Page:98
      464     4959    1   SHIFT_SINGLE_REG: PROC;

   4959  1 001723   200112 741300       SHIFT_SINGL* STX1  ! TAB+1,,AUTO

      465     4960    2   DCL VALUE SBIN WORD;
      466     4961    2   DCL VALUE_TEXT CHAR(10);
      467     4962    2   DCL REGISTER SBIN WORD;
      468     4963    2   DCL POSITION UBIN WORD;
      469     4964                                                                                    /**/
      470     4965    2           REGISTER = INSTRUCTION_TYPE(INSTRUCTION.INDEXX)/2-3;

   4965  1 001724   200056 236100                    LDQ     INSTR,,AUTO
         1 001725   000033 772000                    QRL     27
         1 001726   000000 236006 xsym               LDQ     INSTRUCTION_TYPE,QL
         1 001727   000001 772000                    QRL     1
         1 001730   000003 136007                    SBLQ    3,DL
         1 001731   200117 756100                    STQ     REGISTER,,AUTO

      471     4966    2           RASSED_INSTR.BUFFER = SHIFT_INSTRUCTIONS( (REGISTER-1)*8+FORM.HEX3 );

   4966  1 001732   200056 236100                    LDQ     INSTR,,AUTO
         1 001733   000030 772000                    QRL     24
         1 001734   000017 376007                    ANQ     15,DL
         1 001735   200210 756100                    STQ     V+18,,AUTO
         1 001736   200117 236100                    LDQ     REGISTER,,AUTO
         1 001737   000003 736000                    QLS     3
         1 001740   200210 036100                    ADLQ    V+18,,AUTO
         1 001741   000006 402007                    MPY     6,DL
         1 001742   040100 100406                    MLR     fill='040'O
         1 001743   777764 000006 xsym               ADSC9   SHIFT_INSTRUCTIONS-12,Q  cn=0,n=6
         1 001744   200010 000120                    ADSC9   RASSED_INSTR+1,,AUTO     cn=0,n=80

      472     4967    2           VALUE = SHIFT_SINGLE.VALUE;

   4967  1 001745   200056 236100                    LDQ     INSTR,,AUTO
         1 001746   000024 772000                    QRL     20
         1 001747   000017 376007                    ANQ     15,DL
PL6.E3A0      #001=DFR$INSTR File=DFR$INSTR.:E05TSI                              TUE 07/29/97 14:41 Page:99
         1 001750   200113 756100                    STQ     VALUE,,AUTO

      473     4968    2           GOTO PROCESS_VALUE;

   4968  1 001751   002001 710000 1                  TRA     PROCESS_VALUE

      474     4969        %EJECT;
PL6.E3A0      #001=DFR$INSTR File=DFR$INSTR.:E05TSI                              TUE 07/29/97 14:41 Page:100
      475     4970    2   SHIFT_DOUBLE_REG: ENTRY;

   4970  1 001752   200112 741300       SHIFT_DOUBL* STX1  ! TAB+1,,AUTO

      476     4971                                                                                    /**/
      477     4972    2           REGISTER = ( INSTRUCTION_TYPE(INSTRUCTION.INDEXX)-1 )/2-3;

   4972  1 001753   200056 236100                    LDQ     INSTR,,AUTO
         1 001754   000033 772000                    QRL     27
         1 001755   000000 236006 xsym               LDQ     INSTRUCTION_TYPE,QL
         1 001756   000001 136007                    SBLQ    1,DL
         1 001757   000002 506007                    DIV     2,DL
         1 001760   000003 136007                    SBLQ    3,DL
         1 001761   200117 756100                    STQ     REGISTER,,AUTO

      478     4973    2           RASSED_INSTR.BUFFER = SHIFT_D_INSTRUCTIONS( (REGISTER-1)*4 + (FORM.HEX3S.
              4973                    TYPE-4) + 28 );

   4973  1 001762   200056 236100                    LDQ     INSTR,,AUTO
         1 001763   000031 772000                    QRL     25
         1 001764   000007 376007                    ANQ     7,DL
         1 001765   200210 756100                    STQ     V+18,,AUTO
         1 001766   200117 236100                    LDQ     REGISTER,,AUTO
         1 001767   000002 736000                    QLS     2
         1 001770   200210 036100                    ADLQ    V+18,,AUTO
         1 001771   000006 402007                    MPY     6,DL
         1 001772   040100 100406                    MLR     fill='040'O
         1 001773   000036 000006 xsym               ADSC9   SHIFT_D_INSTRUCTIONS+30,Q cn=0,n=6
         1 001774   200010 000120                    ADSC9   RASSED_INSTR+1,,AUTO     cn=0,n=80

      479     4974    2           VALUE = SHIFT_DOUBLE.VALUE;

   4974  1 001775   200056 236100                    LDQ     INSTR,,AUTO
         1 001776   000024 772000                    QRL     20
         1 001777   000037 376007                    ANQ     31,DL
         1 002000   200113 756100                    STQ     VALUE,,AUTO

PL6.E3A0      #001=DFR$INSTR File=DFR$INSTR.:E05TSI                              TUE 07/29/97 14:41 Page:101
   4974  1 002001                       PROCESS_VAL* null
      480     4975                                          /* Index into shift_d_instructions
      481     4976                                             as if it were a two dimensioned
      482     4977                                           array with register as row and type as column */
      483     4978    2   PROCESS_VALUE: ;   /* At this point, we turn a binary number into
      484     4979                              a printable string of its decimal equ. */
      485     4980    2           VALUE_TEXT = ' ';

   4980  1 002001   040100 100400                    MLR     fill='040'O
         1 002002   000035 000001 xsym               ADSC9   B_VECTNIL+29             cn=0,n=1
         1 002003   200114 000012                    ADSC9   VALUE_TEXT,,AUTO         cn=0,n=10

      486     4981    2           CALL CONVERT_BIN_TO_DEC( VALUE_TEXT, VALUE );

   4981  1 002004   200113 630500                    EPPR0   VALUE,,AUTO
         1 002005   200124 450500                    STP0    @TEXT+1,,AUTO
         1 002006   200114 631500                    EPPR1   VALUE_TEXT,,AUTO
         1 002007   200123 451500                    STP1    SYM_TEXT,,AUTO
         1 002010   005754 701000 1                  TSX1    CONVERT_BIN_TO_DEC
         1 002011   000000 011000                    NOP     0

      487     4982    2           CALL INDEX( POSITION, ' ', RASSED_INSTR.BUFFER );

   4982  1 002012   000000 124500                    SCM     mask='000'O
         1 002013   200010 000120                    ADSC9   RASSED_INSTR+1,,AUTO     cn=0,n=80
         1 002014   000035 000001 xsym               ADSC9   B_VECTNIL+29             cn=0,n=1
         1 002015   200120 000100                    ARG     POSITION,,AUTO

      488     4983    2           POSITION = POSITION+2;

   4983  1 002016   200120 235100                    LDA     POSITION,,AUTO
         1 002017   000002 035007                    ADLA    2,DL
         1 002020   200120 755100                    STA     POSITION,,AUTO

      489     4984    2           CALL INSERT( RASSED_INSTR.BUFFER, POSITION,, VALUE_TEXT );

   4984  1 002021   777657 620005                    EAX0    -81,AL
PL6.E3A0      #001=DFR$INSTR File=DFR$INSTR.:E05TSI                              TUE 07/29/97 14:41 Page:102
         1 002022   777777 660003                    ERX0    -1,DU
         1 002023   040145 100500                    MLR     fill='040'O
         1 002024   200114 000012                    ADSC9   VALUE_TEXT,,AUTO         cn=0,n=10
         1 002025   200010 000010                    ADSC9   RASSED_INSTR+1,A,AUTO    cn=0,n=*X0

      490     4985    2           CALL INDEX( RASSED_INSTR.COUNT, '^', RASSED_INSTR.BUFFER );

   4985  1 002026   000000 124500                    SCM     mask='000'O
         1 002027   200010 000120                    ADSC9   RASSED_INSTR+1,,AUTO     cn=0,n=80
         1 002030   000000 000001 2                  ADSC9   0                        cn=0,n=1
         1 002031   200007 000100                    ARG     RASSED_INSTR,,AUTO

      491     4986    2           RASSED_INSTR.WORDS_USED = 1;

   4986  1 002032   000001 236007                    LDQ     1,DL
         1 002033   200034 756100                    STQ     RASSED_INSTR+21,,AUTO

      492     4987    2           RETURN;

   4987  1 002034   200112 221300                    LDX1  ! TAB+1,,AUTO
         1 002035   000001 702211                    TSX2  ! 1,X1

      493     4988    2   END SHIFT_SINGLE_REG;
      494     4989        %EJECT;
PL6.E3A0      #001=DFR$INSTR File=DFR$INSTR.:E05TSI                              TUE 07/29/97 14:41 Page:103
      495     4990    1   I_O_INSTR: PROC ALTRET;

   4990  1 002036   200112 741300       I_O_INSTR    STX1  ! TAB+1,,AUTO

      496     4991    2   DCL END_POINT1 UBIN WORD;               /* End of DECODED_TEXT                */
      497     4992    2   DCL END_POINT2 UBIN WORD;               /* End of RASSED_INSTR.BUFFER         */
      498     4993    2   DCL WORDS_USED UBIN WORD;               /* Temp for words used                */
      499     4994    2   DCL WORDS_USED_2ND UBIN WORD;      /* # words used in second addr syl decode  */
      500     4995    2   DCL I UBIN WORD;
      501     4996                                                                                    /**/
      502     4997    2           RASSED_INSTR.BUFFER = INSTRUCTIONS(INSTRUCTION.INDEXX);

   4997  1 002037   200056 236100                    LDQ     INSTR,,AUTO
         1 002040   000032 772000                    QRL     26
         1 002041   001776 376007                    ANQ     1022,DL
         1 002042   000002 736000                    QLS     2
         1 002043   040100 100406                    MLR     fill='040'O
         1 002044   000000 000010 xsym               ADSC9   INSTRUCTIONS,Q           cn=0,n=8
         1 002045   200010 000120                    ADSC9   RASSED_INSTR+1,,AUTO     cn=0,n=80

      503     4998    2           CALL DECODE_ADDR_SYL ALTRET( BAD_IO_SYL );

   4998  1 002046   002734 701000 1                  TSX1    DECODE_ADDR_SYL
         1 002047   002304 702000 1                  TSX2    BAD_IO_SYL

      504     4999    2           CALL INDEX( END_POINT1, ' ', DECODED_TEXT );

   4999  1 002050   000000 124500                    SCM     mask='000'O
         1 002051   200060 000100                    ADSC9   DECODED_TEXT,,AUTO       cn=0,n=64
         1 002052   000035 000001 xsym               ADSC9   B_VECTNIL+29             cn=0,n=1
         1 002053   200113 000100                    ARG     END_POINT1,,AUTO

      505     5000    2           CALL INSERT( DECODED_TEXT, END_POINT1,, '), ^' );

   5000  1 002054   200113 720100                    LXL0    END_POINT1,,AUTO
         1 002055   777677 620010                    EAX0    -65,X0
         1 002056   777777 660003                    ERX0    -1,DU
PL6.E3A0      #001=DFR$INSTR File=DFR$INSTR.:E05TSI                              TUE 07/29/97 14:41 Page:104
         1 002057   200113 235100                    LDA     END_POINT1,,AUTO
         1 002060   040145 100400                    MLR     fill='040'O
         1 002061   000061 000004 0                  ADSC9   SPREL+9                  cn=0,n=4
         1 002062   200060 000010                    ADSC9   DECODED_TEXT,A,AUTO      cn=0,n=*X0

      506     5001    2           CALL INDEX( END_POINT2, ' ', RASSED_INSTR.BUFFER );

   5001  1 002063   000000 124500                    SCM     mask='000'O
         1 002064   200010 000120                    ADSC9   RASSED_INSTR+1,,AUTO     cn=0,n=80
         1 002065   000035 000001 xsym               ADSC9   B_VECTNIL+29             cn=0,n=1
         1 002066   200114 000100                    ARG     END_POINT2,,AUTO

      507     5002    2           END_POINT2 = END_POINT2 + 1;

   5002  1 002067   200114 236100                    LDQ     END_POINT2,,AUTO
         1 002070   000001 036007                    ADLQ    1,DL
         1 002071   200114 756100                    STQ     END_POINT2,,AUTO

      508     5003    2           CALL INSERT( RASSED_INSTR.BUFFER, END_POINT2,, '(', DECODED_TEXT );

   5003  1 002072   777657 621006                    EAX1    -81,QL
         1 002073   777777 661003                    ERX1    -1,DU
         1 002074   040146 100400                    MLR     fill='040'O
         1 002075   000007 000001 2                  ADSC9   7                        cn=0,n=1
         1 002076   200010 000011                    ADSC9   RASSED_INSTR+1,Q,AUTO    cn=0,n=*X1
         1 002077   000117 116007                    CMPQ    79,DL
         1 002100   002106 603000 1                  TRC     s:5004
         1 002101   777660 622006                    EAX2    -80,QL
         1 002102   777777 662003                    ERX2    -1,DU
         1 002103   040146 100500                    MLR     fill='040'O
         1 002104   200060 000100                    ADSC9   DECODED_TEXT,,AUTO       cn=0,n=64
         1 002105   200010 200012                    ADSC9   RASSED_INSTR+1,Q,AUTO    cn=1,n=*X2

      509     5004    2           CALL INDEX( END_POINT2, '^', RASSED_INSTR.BUFFER );

   5004  1 002106   000000 124500                    SCM     mask='000'O
         1 002107   200010 000120                    ADSC9   RASSED_INSTR+1,,AUTO     cn=0,n=80
PL6.E3A0      #001=DFR$INSTR File=DFR$INSTR.:E05TSI                              TUE 07/29/97 14:41 Page:105
         1 002110   000000 000001 2                  ADSC9   0                        cn=0,n=1
         1 002111   200114 000100                    ARG     END_POINT2,,AUTO

      510     5005    2           WORDS_USED = RASSED_INSTR.WORDS_USED;

   5005  1 002112   200034 236100                    LDQ     RASSED_INSTR+21,,AUTO
         1 002113   200115 756100                    STQ     WORDS_USED,,AUTO

      511     5006                                                                                    /**/
      512     5007    3           DO I = RASSED_INSTR.WORDS_USED TO 15;

   5007  1 002114   200117 756100                    STQ     I,,AUTO
         1 002115   002133 710000 1                  TRA     s:5009+3

      513     5008    3              INSTR_ARRAY(I - RASSED_INSTR.WORDS_USED) = INSTR_ARRAY(I);

   5008  1 002116   200117 236100                    LDQ     I,,AUTO
         1 002117   200034 136100                    SBLQ    RASSED_INSTR+21,,AUTO
         1 002120   200117 235100                    LDA     I,,AUTO
         1 002121   000004 735000                    ALS     4
         1 002122   000004 736000                    QLS     4
         1 002123   002125 605000 1                  TPL     s:5008+7
         1 002124   000044 036003                    ADLQ    36,DU
         1 002125   003106 060505                    CSL     bolr='003'O
         1 002126   200046 000020                    BDSC    INSTR_ARRAY,A,AUTO       by=0,bit=0,n=16
         1 002127   200046 000020                    BDSC    INSTR_ARRAY,Q,AUTO       by=0,bit=0,n=16

      514     5009    3              END;

   5009  1 002130   200117 236100                    LDQ     I,,AUTO
         1 002131   000001 036007                    ADLQ    1,DL
         1 002132   200117 756100                    STQ     I,,AUTO
         1 002133   000020 116007                    CMPQ    16,DL
         1 002134   002116 602000 1                  TNC     s:5008

      515     5010                                                                                    /**/
      516     5011    2           INSTR = INSTR_ARRAY(0);
PL6.E3A0      #001=DFR$INSTR File=DFR$INSTR.:E05TSI                              TUE 07/29/97 14:41 Page:106

   5011  1 002135   200046 236100                    LDQ     INSTR_ARRAY,,AUTO
         1 002136   200056 676100                    ERQ     INSTR,,AUTO
         1 002137   777774 376003                    ANQ     -4,DU
         1 002140   200056 656100                    ERSQ    INSTR,,AUTO

      517     5012    2           CALL DECODE_ADDR_SYL ALTRET( BAD_IO_SYL );

   5012  1 002141   002734 701000 1                  TSX1    DECODE_ADDR_SYL
         1 002142   002304 702000 1                  TSX2    BAD_IO_SYL

      518     5013    2           CALL INDEX( END_POINT1, ' ', DECODED_TEXT );

   5013  1 002143   000000 124500                    SCM     mask='000'O
         1 002144   200060 000100                    ADSC9   DECODED_TEXT,,AUTO       cn=0,n=64
         1 002145   000035 000001 xsym               ADSC9   B_VECTNIL+29             cn=0,n=1
         1 002146   200113 000100                    ARG     END_POINT1,,AUTO

      519     5014    2           CALL INSERT( DECODED_TEXT, END_POINT1,, ')^' );

   5014  1 002147   200113 720100                    LXL0    END_POINT1,,AUTO
         1 002150   777677 620010                    EAX0    -65,X0
         1 002151   777777 660003                    ERX0    -1,DU
         1 002152   200113 235100                    LDA     END_POINT1,,AUTO
         1 002153   040145 100400                    MLR     fill='040'O
         1 002154   000062 000002 0                  ADSC9   SPREL+10                 cn=0,n=2
         1 002155   200060 000010                    ADSC9   DECODED_TEXT,A,AUTO      cn=0,n=*X0

      520     5015    2           CALL INSERT( RASSED_INSTR.BUFFER, END_POINT2,, '(', DECODED_TEXT );

   5015  1 002156   200114 721100                    LXL1    END_POINT2,,AUTO
         1 002157   777657 621011                    EAX1    -81,X1
         1 002160   777777 661003                    ERX1    -1,DU
         1 002161   200114 236100                    LDQ     END_POINT2,,AUTO
         1 002162   040146 100400                    MLR     fill='040'O
         1 002163   000007 000001 2                  ADSC9   7                        cn=0,n=1
         1 002164   200010 000011                    ADSC9   RASSED_INSTR+1,Q,AUTO    cn=0,n=*X1
PL6.E3A0      #001=DFR$INSTR File=DFR$INSTR.:E05TSI                              TUE 07/29/97 14:41 Page:107
         1 002165   000117 116007                    CMPQ    79,DL
         1 002166   002174 603000 1                  TRC     s:5016
         1 002167   777660 622006                    EAX2    -80,QL
         1 002170   777777 662003                    ERX2    -1,DU
         1 002171   040146 100500                    MLR     fill='040'O
         1 002172   200060 000100                    ADSC9   DECODED_TEXT,,AUTO       cn=0,n=64
         1 002173   200010 200012                    ADSC9   RASSED_INSTR+1,Q,AUTO    cn=1,n=*X2

      521     5016    2           WORDS_USED_2ND = RASSED_INSTR.WORDS_USED;

   5016  1 002174   200034 235100                    LDA     RASSED_INSTR+21,,AUTO
         1 002175   200116 755100                    STA     WORDS_USED_2ND,,AUTO

      522     5017    2           RASSED_INSTR.WORDS_USED = WORDS_USED + RASSED_INSTR.WORDS_USED;

   5017  1 002176   200115 236100                    LDQ     WORDS_USED,,AUTO
         1 002177   200034 036100                    ADLQ    RASSED_INSTR+21,,AUTO
         1 002200   200034 756100                    STQ     RASSED_INSTR+21,,AUTO

      523     5018    2           CALL INDEX( RASSED_INSTR.COUNT, '^', RASSED_INSTR.BUFFER );

   5018  1 002201   000000 124500                    SCM     mask='000'O
         1 002202   200010 000120                    ADSC9   RASSED_INSTR+1,,AUTO     cn=0,n=80
         1 002203   000000 000001 2                  ADSC9   0                        cn=0,n=1
         1 002204   200007 000100                    ARG     RASSED_INSTR,,AUTO

      524     5019                                                                                    /**/
      525     5020    3           IF IOLD_INSTR_FLAG THEN DO;     /* Special case for .I.O.L.D. Instr   */

   5020  1 002205   200101 234100                    SZN     IOLD_INSTR_FLAG,,AUTO
         1 002206   002302 605000 1                  TPL     GOOD_IO

      526     5021    4              DO I = WORDS_USED_2ND TO 15;

   5021  1 002207   200117 755100                    STA     I,,AUTO
         1 002210   002226 710000 1                  TRA     s:5023+3

PL6.E3A0      #001=DFR$INSTR File=DFR$INSTR.:E05TSI                              TUE 07/29/97 14:41 Page:108
      527     5022    4                 INSTR_ARRAY(I - WORDS_USED_2ND) = INSTR_ARRAY(I);

   5022  1 002211   200117 236100                    LDQ     I,,AUTO
         1 002212   200116 136100                    SBLQ    WORDS_USED_2ND,,AUTO
         1 002213   200117 235100                    LDA     I,,AUTO
         1 002214   000004 735000                    ALS     4
         1 002215   000004 736000                    QLS     4
         1 002216   002220 605000 1                  TPL     s:5022+7
         1 002217   000044 036003                    ADLQ    36,DU
         1 002220   003106 060505                    CSL     bolr='003'O
         1 002221   200046 000020                    BDSC    INSTR_ARRAY,A,AUTO       by=0,bit=0,n=16
         1 002222   200046 000020                    BDSC    INSTR_ARRAY,Q,AUTO       by=0,bit=0,n=16

      528     5023    4                 END;

   5023  1 002223   200117 236100                    LDQ     I,,AUTO
         1 002224   000001 036007                    ADLQ    1,DL
         1 002225   200117 756100                    STQ     I,,AUTO
         1 002226   200117 235100                    LDA     I,,AUTO
         1 002227   000020 115007                    CMPA    16,DL
         1 002230   002211 602000 1                  TNC     s:5022

      529     5024    3              WORDS_USED = RASSED_INSTR.WORDS_USED;

   5024  1 002231   200034 236100                    LDQ     RASSED_INSTR+21,,AUTO
         1 002232   200115 756100                    STQ     WORDS_USED,,AUTO

      530     5025    3              INSTR = INSTR_ARRAY(0);

   5025  1 002233   200046 236100                    LDQ     INSTR_ARRAY,,AUTO
         1 002234   200056 676100                    ERQ     INSTR,,AUTO
         1 002235   777774 376003                    ANQ     -4,DU
         1 002236   200056 656100                    ERSQ    INSTR,,AUTO

      531     5026    3              CALL DECODE_ADDR_SYL ALTRET( BAD_IO_SYL );

   5026  1 002237   002734 701000 1                  TSX1    DECODE_ADDR_SYL
PL6.E3A0      #001=DFR$INSTR File=DFR$INSTR.:E05TSI                              TUE 07/29/97 14:41 Page:109
         1 002240   002304 702000 1                  TSX2    BAD_IO_SYL

      532     5027    3              CALL INDEX( END_POINT1, ' ', DECODED_TEXT );

   5027  1 002241   000000 124500                    SCM     mask='000'O
         1 002242   200060 000100                    ADSC9   DECODED_TEXT,,AUTO       cn=0,n=64
         1 002243   000035 000001 xsym               ADSC9   B_VECTNIL+29             cn=0,n=1
         1 002244   200113 000100                    ARG     END_POINT1,,AUTO

      533     5028    3              CALL INSERT( DECODED_TEXT, END_POINT1,, ')^' );

   5028  1 002245   200113 720100                    LXL0    END_POINT1,,AUTO
         1 002246   777677 620010                    EAX0    -65,X0
         1 002247   777777 660003                    ERX0    -1,DU
         1 002250   200113 235100                    LDA     END_POINT1,,AUTO
         1 002251   040145 100400                    MLR     fill='040'O
         1 002252   000062 000002 0                  ADSC9   SPREL+10                 cn=0,n=2
         1 002253   200060 000010                    ADSC9   DECODED_TEXT,A,AUTO      cn=0,n=*X0

      534     5029    3              CALL INSERT( RASSED_INSTR.BUFFER, RASSED_INSTR.COUNT,, ', (',
              5029                       DECODED_TEXT );

   5029  1 002254   200007 721100                    LXL1    RASSED_INSTR,,AUTO
         1 002255   777657 621011                    EAX1    -81,X1
         1 002256   777777 661003                    ERX1    -1,DU
         1 002257   200007 236100                    LDQ     RASSED_INSTR,,AUTO
         1 002260   040146 100400                    MLR     fill='040'O
         1 002261   000063 000003 0                  ADSC9   SPREL+11                 cn=0,n=3
         1 002262   200010 000011                    ADSC9   RASSED_INSTR+1,Q,AUTO    cn=0,n=*X1
         1 002263   200007 236100                    LDQ     RASSED_INSTR,,AUTO
         1 002264   000115 116007                    CMPQ    77,DL
         1 002265   002273 603000 1                  TRC     s:5030
         1 002266   777662 621006                    EAX1    -78,QL
         1 002267   777777 661003                    ERX1    -1,DU
         1 002270   040146 100500                    MLR     fill='040'O
         1 002271   200060 000100                    ADSC9   DECODED_TEXT,,AUTO       cn=0,n=64
         1 002272   200010 600011                    ADSC9   RASSED_INSTR+1,Q,AUTO    cn=3,n=*X1
PL6.E3A0      #001=DFR$INSTR File=DFR$INSTR.:E05TSI                              TUE 07/29/97 14:41 Page:110

      535     5030    3              CALL INDEX( RASSED_INSTR.COUNT, '^', RASSED_INSTR.BUFFER );

   5030  1 002273   000000 124500                    SCM     mask='000'O
         1 002274   200010 000120                    ADSC9   RASSED_INSTR+1,,AUTO     cn=0,n=80
         1 002275   000000 000001 2                  ADSC9   0                        cn=0,n=1
         1 002276   200007 000100                    ARG     RASSED_INSTR,,AUTO

      536     5031    3              RASSED_INSTR.WORDS_USED = RASSED_INSTR.WORDS_USED + WORDS_USED;

   5031  1 002277   200034 236100                    LDQ     RASSED_INSTR+21,,AUTO
         1 002300   200115 036100                    ADLQ    WORDS_USED,,AUTO
         1 002301   200034 756100                    STQ     RASSED_INSTR+21,,AUTO

      537     5032    3              END;

      538     5033                                                                                    /**/
      539     5034    2   GOOD_IO: RETURN;

   5034  1 002302   200112 221300       GOOD_IO      LDX1  ! TAB+1,,AUTO
         1 002303   000001 702211                    TSX2  ! 1,X1

      540     5035                                                                                    /**/
      541     5036    2   BAD_IO_SYL: RASSED_INSTR.COUNT = 0;

   5036  1 002304   200007 450100       BAD_IO_SYL   STZ     RASSED_INSTR,,AUTO

      542     5037    2           RASSED_INSTR.BUFFER = ' ';

   5037  1 002305   040100 100400                    MLR     fill='040'O
         1 002306   000035 000001 xsym               ADSC9   B_VECTNIL+29             cn=0,n=1
         1 002307   200010 000120                    ADSC9   RASSED_INSTR+1,,AUTO     cn=0,n=80

      543     5038    2           RASSED_INSTR.WORDS_USED = 0;

   5038  1 002310   200034 450100                    STZ     RASSED_INSTR+21,,AUTO

PL6.E3A0      #001=DFR$INSTR File=DFR$INSTR.:E05TSI                              TUE 07/29/97 14:41 Page:111
      544     5039    2           RETURN;

   5039  1 002311   200112 221300                    LDX1  ! TAB+1,,AUTO
         1 002312   000001 702211                    TSX2  ! 1,X1

      545     5040    2   END I_O_INSTR;
      546     5041        %EJECT;
PL6.E3A0      #001=DFR$INSTR File=DFR$INSTR.:E05TSI                              TUE 07/29/97 14:41 Page:112
      547     5042    1   DECODE_DD: PROC ALTRET;

   5042  1 002313   200112 741300       DECODE_DD    STX1  ! TAB+1,,AUTO

      548     5043    2   DCL DDW1 UBIN;
      549     5044    2   DCL 1 DDW REDEF DDW1,
      550     5045    2         2 * BIT(20),
      551     5046    2         2 C UBIN(3)UNAL,
      552     5047    2         2 L UBIN(5)UNAL,
      553     5048    2         2 T BIT(1),
      554     5049    2         2 M UBIN(3)UNAL,
      555     5050    2         2 AN UBIN(4)UNAL;
      556     5051    2   DCL DDW2 SBIN;
      557     5052    2   DCL 1 DDW2U REDEF DDW2,
      558     5053    2         2 * BIT(20),
      559     5054    2         2 S SBIN(16)UNAL;
      560     5055    2   DCL 1 SCW REDEF DDW2,
      561     5056    2         2 * BIT(20),
      562     5057    2         2 DIR BIT(1),
      563     5058    2         2 * BIT(2),
      564     5059    2         2 C UBIN(5)UNAL,
      565     5060    2         2 RND BIT(1),
      566     5061    2         2 * BIT(7);
      567     5062    2   DCL INDX SBIN;
      568     5063    2           DDW1 = INSTR_ARRAY(RASSED_INSTR.WORDS_USED);

   5063  1 002314   200034 235100                    LDA     RASSED_INSTR+21,,AUTO
         1 002315   000004 735000                    ALS     4
         1 002316   003100 061505                    CSR     bolr='003'O
         1 002317   200046 000020                    BDSC    INSTR_ARRAY,A,AUTO       by=0,bit=0,n=16
         1 002320   200113 000044                    BDSC    DDW1,,AUTO               by=0,bit=0,n=36

      569     5064    2           DDW2U.S = INSTR_ARRAY(RASSED_INSTR.WORDS_USED+1);

   5064  1 002321   003100 060505                    CSL     bolr='003'O
         1 002322   200046 270020                    BDSC    INSTR_ARRAY,A,AUTO       by=1,bit=7,n=16
         1 002323   200114 420020                    BDSC    DDW2,,AUTO               by=2,bit=2,n=16
PL6.E3A0      #001=DFR$INSTR File=DFR$INSTR.:E05TSI                              TUE 07/29/97 14:41 Page:113

      570     5065    2           DDW2 = DDW2U.S;

   5065  1 002324   200114 236100                    LDQ     DDW2,,AUTO
         1 002325   000024 736000                    QLS     20
         1 002326   000024 732000                    QRS     20
         1 002327   200114 756100                    STQ     DDW2,,AUTO

      571     5066    2           INDX = RASSED_INSTR.COUNT;

   5066  1 002330   200007 235100                    LDA     RASSED_INSTR,,AUTO
         1 002331   200115 755100                    STA     INDX,,AUTO

      572     5067    3           IF INDX ~= 4 THEN DO;

   5067  1 002332   000004 115007                    CMPA    4,DL
         1 002333   002341 600000 1                  TZE     s:5071

      573     5068    3              CALL INSERT(RASSED_INSTR.BUFFER,INDX,2,',(');

   5068  1 002334   040105 100400                    MLR     fill='040'O
         1 002335   000064 000002 0                  ADSC9   SPREL+12                 cn=0,n=2
         1 002336   200010 000002                    ADSC9   RASSED_INSTR+1,A,AUTO    cn=0,n=2

      574     5069    3              INDX = INDX+1;

   5069  1 002337   200115 054100                    AOS     INDX,,AUTO

      575     5070    3              END;

   5070  1 002340   002343 710000 1                  TRA     s:5072

      576     5071    2           ELSE CALL INSERT(RASSED_INSTR.BUFFER,4,1,'(');

   5071  1 002341   050000 236003                    LDQ     20480,DU
         1 002342   200011 552140                    STBQ    RASSED_INSTR+2,'40'O,AUTO

PL6.E3A0      #001=DFR$INSTR File=DFR$INSTR.:E05TSI                              TUE 07/29/97 14:41 Page:114
      577     5072    2           INDX = INDX+1;

   5072  1 002343   200115 054100                    AOS     INDX,,AUTO

      578     5073    3           IF DDW.AN = 0 THEN DO;

   5073  1 002344   200113 236100                    LDQ     DDW1,,AUTO
         1 002345   000017 316007                    CANQ    15,DL
         1 002346   002372 601000 1                  TNZ     s:5080

      579     5074    3              CALL INSERT(RASSED_INSTR.BUFFER,INDX,8,'RDD0000)');

   5074  1 002347   200115 235100                    LDA     INDX,,AUTO
         1 002350   040105 100400                    MLR     fill='040'O
         1 002351   000065 000010 0                  ADSC9   SPREL+13                 cn=0,n=8
         1 002352   200010 000010                    ADSC9   RASSED_INSTR+1,A,AUTO    cn=0,n=8

      580     5075    3              CALL BINCHAR(SUBSTR(RASSED_INSTR.BUFFER,INDX+3,4),DDW1/16);

   5075  1 002353   200113 236100                    LDQ     DDW1,,AUTO
         1 002354   000004 772000                    QRL     4
         1 002355   000000 235003                    LDA     0,DU
         1 002356   200210 757100                    STAQ    V+18,,AUTO
         1 002357   200115 235100                    LDA     INDX,,AUTO
         1 002360   000105 301500                    BTD
         1 002361   200210 000010                    NDSC9   V+18,,AUTO               cn=0,s=lsgnf,sf=0,n=8
         1 002362   200010 630004                    NDSC9   RASSED_INSTR+1,A,AUTO    cn=3,s=nosgn,sf=0,n=4

      581     5076    3              RASSED_INSTR.WORDS_USED = RASSED_INSTR.WORDS_USED+1;

   5076  1 002363   200034 236100                    LDQ     RASSED_INSTR+21,,AUTO
         1 002364   000001 036007                    ADLQ    1,DL
         1 002365   200034 756100                    STQ     RASSED_INSTR+21,,AUTO

      582     5077    3              RASSED_INSTR.COUNT = INDX+8;

   5077  1 002366   000010 035007                    ADLA    8,DL
PL6.E3A0      #001=DFR$INSTR File=DFR$INSTR.:E05TSI                              TUE 07/29/97 14:41 Page:115
         1 002367   200007 755100                    STA     RASSED_INSTR,,AUTO

      583     5078    3              RETURN;

   5078  1 002370   200112 221300                    LDX1  ! TAB+1,,AUTO
         1 002371   000001 702211                    TSX2  ! 1,X1

      584     5079    3              END;
      585     5080    2           RASSED_INSTR.WORDS_USED = RASSED_INSTR.WORDS_USED+2;

   5080  1 002372   200034 235100                    LDA     RASSED_INSTR+21,,AUTO
         1 002373   000002 035007                    ADLA    2,DL
         1 002374   200034 755100                    STA     RASSED_INSTR+21,,AUTO

      586     5081    2           CALL INSERT(RASSED_INSTR.BUFFER,INDX,7,'C',BINASC(DDW.C+48),',L00,');

   5081  1 002375   200113 236100                    LDQ     DDW1,,AUTO
         1 002376   000015 772000                    QRL     13
         1 002377   000007 376007                    ANQ     7,DL
         1 002400   000060 036007                    ADLQ    48,DL
         1 002401   000033 736000                    QLS     27
         1 002402   000010 276000 2                  ORQ     8
         1 002403   200115 235100                    LDA     INDX,,AUTO
         1 002404   040105 100400                    MLR     fill='040'O
         1 002405   000011 000001 2                  ADSC9   9                        cn=0,n=1
         1 002406   200010 000001                    ADSC9   RASSED_INSTR+1,A,AUTO    cn=0,n=1
         1 002407   200210 756100                    STQ     V+18,,AUTO
         1 002410   040105 100500                    MLR     fill='040'O
         1 002411   200210 000004                    ADSC9   V+18,,AUTO               cn=0,n=4
         1 002412   200010 200001                    ADSC9   RASSED_INSTR+1,A,AUTO    cn=1,n=1
         1 002413   040105 100400                    MLR     fill='040'O
         1 002414   000067 000005 0                  ADSC9   SPREL+15                 cn=0,n=5
         1 002415   200010 400005                    ADSC9   RASSED_INSTR+1,A,AUTO    cn=2,n=5

      587     5082    2           CALL BINCHAR(SUBSTR(RASSED_INSTR.BUFFER,INDX+4,2),DDW.L);

   5082  1 002416   200113 236100                    LDQ     DDW1,,AUTO
PL6.E3A0      #001=DFR$INSTR File=DFR$INSTR.:E05TSI                              TUE 07/29/97 14:41 Page:116
         1 002417   000010 772000                    QRL     8
         1 002420   000037 376007                    ANQ     31,DL
         1 002421   000000 235003                    LDA     0,DU
         1 002422   200210 757100                    STAQ    V+18,,AUTO
         1 002423   200115 235100                    LDA     INDX,,AUTO
         1 002424   000105 301500                    BTD
         1 002425   200210 000010                    NDSC9   V+18,,AUTO               cn=0,s=lsgnf,sf=0,n=8
         1 002426   200011 030002                    NDSC9   RASSED_INSTR+2,A,AUTO    cn=0,s=nosgn,sf=0,n=2

      588     5083    2           INDX = INDX+7;

   5083  1 002427   000007 236007                    LDQ     7,DL
         1 002430   200115 056100                    ASQ     INDX,,AUTO

      589     5084    3            IF DDW.T THEN DO;

   5084  1 002431   200113 236100                    LDQ     DDW1,,AUTO
         1 002432   000200 316007                    CANQ    128,DL
         1 002433   002442 600000 1                  TZE     s:5088

      590     5085    3               CALL INSERT(RASSED_INSTR.BUFFER,INDX,2,'T,');

   5085  1 002434   200115 235100                    LDA     INDX,,AUTO
         1 002435   040105 100400                    MLR     fill='040'O
         1 002436   000071 000002 0                  ADSC9   SPREL+17                 cn=0,n=2
         1 002437   200010 000002                    ADSC9   RASSED_INSTR+1,A,AUTO    cn=0,n=2

      591     5086    3               INDX = INDX+2;

   5086  1 002440   000002 236007                    LDQ     2,DL
         1 002441   200115 056100                    ASQ     INDX,,AUTO

      592     5087    3               END;

      593     5088    3            IF DDW.AN = 8 THEN DO CASE(DDW.M);

   5088  1 002442   200113 236100                    LDQ     DDW1,,AUTO
PL6.E3A0      #001=DFR$INSTR File=DFR$INSTR.:E05TSI                              TUE 07/29/97 14:41 Page:117
         1 002443   000017 376007                    ANQ     15,DL
         1 002444   000010 116007                    CMPQ    8,DL
         1 002445   002533 601000 1                  TNZ     s:5107

   5088  1 002446   200113 236100                    LDQ     DDW1,,AUTO
         1 002447   000004 772000                    QRL     4
         1 002450   000007 376007                    ANQ     7,DL
         1 002451   000010 116007                    CMPQ    8,DL
         1 002452   002454 602006 1                  TNC     s:5088+10,QL
         1 002453   002531 710000 1                  TRA     s:5105
         1 002454   002464 710000 1                  TRA     s:5090
         1 002455   002464 710000 1                  TRA     s:5090
         1 002456   002464 710000 1                  TRA     s:5090
         1 002457   002464 710000 1                  TRA     s:5090
         1 002460   002472 710000 1                  TRA     s:5094
         1 002461   002531 710000 1                  TRA     s:5105
         1 002462   002531 710000 1                  TRA     s:5105
         1 002463   002503 710000 1                  TRA     s:5099

      594     5089    3               CASE(0,1,2,3);

      595     5090    3                  CALL INSERT(RASSED_INSTR.BUFFER,INDX,1,'$O');

   5090  1 002464   200115 235100                    LDA     INDX,,AUTO
         1 002465   040105 100400                    MLR     fill='040'O
         1 002466   000057 000001 0                  ADSC9   SPREL+7                  cn=0,n=1
         1 002467   200010 000001                    ADSC9   RASSED_INSTR+1,A,AUTO    cn=0,n=1

      596     5091    3                  INDX = INDX+1;

   5091  1 002470   200115 054100                    AOS     INDX,,AUTO

      597     5092    3                  GOTO DSP_RM;

   5092  1 002471   002560 710000 1                  TRA     DSP_RM

      598     5093    3               CASE(4);
PL6.E3A0      #001=DFR$INSTR File=DFR$INSTR.:E05TSI                              TUE 07/29/97 14:41 Page:118

      599     5094    3                  CALL INSERT(RASSED_INSTR.BUFFER,INDX,2,'*$O');

   5094  1 002472   200115 235100                    LDA     INDX,,AUTO
         1 002473   040105 100400                    MLR     fill='040'O
         1 002474   000072 000002 0                  ADSC9   SPREL+18                 cn=0,n=2
         1 002475   200010 000002                    ADSC9   RASSED_INSTR+1,A,AUTO    cn=0,n=2

      600     5095    3                  INDX = INDX+2;

   5095  1 002476   000002 236007                    LDQ     2,DL
         1 002477   200115 056100                    ASQ     INDX,,AUTO

      601     5096    3                  DDW.M = 0; /* NO POST INDEX */

   5096  1 002500   000012 236000 2                  LDQ     10
         1 002501   200113 356100                    ANSQ    DDW1,,AUTO

      602     5097    3                  GOTO DSP_RM;

   5097  1 002502   002560 710000 1                  TRA     DSP_RM

      603     5098    3               CASE(7);

      604     5099    3                  CALL CONVERT_BIN_TO_DEC(SUBSTR(RASSED_INSTR.BUFFER,INDX,1),DDW2);

   5099  1 002503   200114 630500                    EPPR0   DDW2,,AUTO
         1 002504   200124 450500                    STP0    @TEXT+1,,AUTO
         1 002505   200210 452500                    STP2    V+18,,AUTO
         1 002506   200115 236100                    LDQ     INDX,,AUTO
         1 002507   000020 736000                    QLS     16
         1 002510   000010 036003                    ADLQ    8,DU
         1 002511   200210 036100                    ADLQ    V+18,,AUTO
         1 002512   200123 756100                    STQ     SYM_TEXT,,AUTO
         1 002513   005754 701000 1                  TSX1    CONVERT_BIN_TO_DEC
         1 002514   000000 011000                    NOP     0

PL6.E3A0      #001=DFR$INSTR File=DFR$INSTR.:E05TSI                              TUE 07/29/97 14:41 Page:119
      605     5100    3                  CALL INDEX(INDX,'^',RASSED_INSTR.BUFFER);

   5100  1 002515   000000 124500                    SCM     mask='000'O
         1 002516   200010 000120                    ADSC9   RASSED_INSTR+1,,AUTO     cn=0,n=80
         1 002517   000000 000001 2                  ADSC9   0                        cn=0,n=1
         1 002520   200115 000100                    ARG     INDX,,AUTO

      606     5101    3                  CALL INSERT(RASSED_INSTR.BUFFER,INDX,5,',IMO)');

   5101  1 002521   200115 235100                    LDA     INDX,,AUTO
         1 002522   040105 100400                    MLR     fill='040'O
         1 002523   000073 000005 0                  ADSC9   SPREL+19                 cn=0,n=5
         1 002524   200010 000005                    ADSC9   RASSED_INSTR+1,A,AUTO    cn=0,n=5

      607     5102    3                  RASSED_INSTR.COUNT = INDX+5;

   5102  1 002525   000005 035007                    ADLA    5,DL
         1 002526   200007 755100                    STA     RASSED_INSTR,,AUTO

      608     5103    3                  RETURN;

   5103  1 002527   200112 221300                    LDX1  ! TAB+1,,AUTO
         1 002530   000001 702211                    TSX2  ! 1,X1

      609     5104    3               CASE(ELSE);

      610     5105    3                  ALTRETURN;

   5105  1 002531   200112 221300                    LDX1  ! TAB+1,,AUTO
         1 002532   000000 702211                    TSX2  ! 0,X1

      611     5106    3               END;

      612     5107    3            IF DDW.AN>8 THEN DO;

   5107  1 002533   000011 116007                    CMPQ    9,DL
         1 002534   002542 602000 1                  TNC     s:5111
PL6.E3A0      #001=DFR$INSTR File=DFR$INSTR.:E05TSI                              TUE 07/29/97 14:41 Page:120

      613     5108    3               CALL INSERT(RASSED_INSTR.BUFFER,INDX,1,'*');

   5108  1 002535   200115 235100                    LDA     INDX,,AUTO
         1 002536   040105 100400                    MLR     fill='040'O
         1 002537   000013 000001 2                  ADSC9   11                       cn=0,n=1
         1 002540   200010 000001                    ADSC9   RASSED_INSTR+1,A,AUTO    cn=0,n=1

      614     5109    3               INDX = INDX+1;

   5109  1 002541   200115 054100                    AOS     INDX,,AUTO

      615     5110    3               END;

      616     5111    2            CALL INSERT(RASSED_INSTR.BUFFER,INDX,2,'B',BINASC(MOD(DDW.AN,8)+48));

   5111  1 002542   000007 376007                    ANQ     7,DL
         1 002543   000060 036007                    ADLQ    48,DL
         1 002544   000033 736000                    QLS     27
         1 002545   000010 276000 2                  ORQ     8
         1 002546   200115 235100                    LDA     INDX,,AUTO
         1 002547   040105 100400                    MLR     fill='040'O
         1 002550   000014 000001 2                  ADSC9   12                       cn=0,n=1
         1 002551   200010 000001                    ADSC9   RASSED_INSTR+1,A,AUTO    cn=0,n=1
         1 002552   200210 756100                    STQ     V+18,,AUTO
         1 002553   040105 100500                    MLR     fill='040'O
         1 002554   200210 000004                    ADSC9   V+18,,AUTO               cn=0,n=4
         1 002555   200010 200001                    ADSC9   RASSED_INSTR+1,A,AUTO    cn=1,n=1

      617     5112    2            INDX = INDX+2;

   5112  1 002556   000002 236007                    LDQ     2,DL
         1 002557   200115 056100                    ASQ     INDX,,AUTO

   5112  1 002560                       DSP_RM       null
      618     5113    2   DSP_RM:;
      619     5114    3            IF DDW2 ~= 0 THEN DO;
PL6.E3A0      #001=DFR$INSTR File=DFR$INSTR.:E05TSI                              TUE 07/29/97 14:41 Page:121

   5114  1 002560   200114 235100                    LDA     DDW2,,AUTO
         1 002561   002607 600000 1                  TZE     s:5120

      620     5115    3               CALL INSERT(RASSED_INSTR.BUFFER,INDX,1,'+');

   5115  1 002562   200115 236100                    LDQ     INDX,,AUTO
         1 002563   040106 100400                    MLR     fill='040'O
         1 002564   000015 000001 2                  ADSC9   13                       cn=0,n=1
         1 002565   200010 000001                    ADSC9   RASSED_INSTR+1,Q,AUTO    cn=0,n=1

      621     5116    3               IF DDW2>0 THEN INDX = INDX+1;

   5116  1 002566   200114 235100                    LDA     DDW2,,AUTO
         1 002567   002571 604400 1                  TMOZ    s:5117

   5116  1 002570   200115 054100                    AOS     INDX,,AUTO

      622     5117    3               CALL CONVERT_BIN_TO_DEC(SUBSTR(RASSED_INSTR.BUFFER,INDX,1),DDW2);

   5117  1 002571   200114 630500                    EPPR0   DDW2,,AUTO
         1 002572   200124 450500                    STP0    @TEXT+1,,AUTO
         1 002573   200210 452500                    STP2    V+18,,AUTO
         1 002574   200115 236100                    LDQ     INDX,,AUTO
         1 002575   000020 736000                    QLS     16
         1 002576   000010 036003                    ADLQ    8,DU
         1 002577   200210 036100                    ADLQ    V+18,,AUTO
         1 002600   200123 756100                    STQ     SYM_TEXT,,AUTO
         1 002601   005754 701000 1                  TSX1    CONVERT_BIN_TO_DEC
         1 002602   000000 011000                    NOP     0

      623     5118    3               CALL INDEX(INDX,'^',RASSED_INSTR.BUFFER);

   5118  1 002603   000000 124500                    SCM     mask='000'O
         1 002604   200010 000120                    ADSC9   RASSED_INSTR+1,,AUTO     cn=0,n=80
         1 002605   000000 000001 2                  ADSC9   0                        cn=0,n=1
         1 002606   200115 000100                    ARG     INDX,,AUTO
PL6.E3A0      #001=DFR$INSTR File=DFR$INSTR.:E05TSI                              TUE 07/29/97 14:41 Page:122

      624     5119    3               END;

      625     5120    3            IF DDW.M ~= 0 THEN DO;

   5120  1 002607   200113 236100                    LDQ     DDW1,,AUTO
         1 002610   000160 316007                    CANQ    112,DL
         1 002611   002632 600000 1                  TZE     s:5124

      626     5121    3               CALL INSERT(RASSED_INSTR.BUFFER,INDX,3,',R',BINASC(DDW.M+48));

   5121  1 002612   200113 236100                    LDQ     DDW1,,AUTO
         1 002613   000004 772000                    QRL     4
         1 002614   000007 376007                    ANQ     7,DL
         1 002615   000060 036007                    ADLQ    48,DL
         1 002616   000033 736000                    QLS     27
         1 002617   000010 276000 2                  ORQ     8
         1 002620   200115 235100                    LDA     INDX,,AUTO
         1 002621   040105 100400                    MLR     fill='040'O
         1 002622   000075 000002 0                  ADSC9   SPREL+21                 cn=0,n=2
         1 002623   200010 000002                    ADSC9   RASSED_INSTR+1,A,AUTO    cn=0,n=2
         1 002624   200210 756100                    STQ     V+18,,AUTO
         1 002625   040105 100500                    MLR     fill='040'O
         1 002626   200210 000004                    ADSC9   V+18,,AUTO               cn=0,n=4
         1 002627   200010 400001                    ADSC9   RASSED_INSTR+1,A,AUTO    cn=2,n=1

      627     5122    3               INDX = INDX+3;

   5122  1 002630   000003 236007                    LDQ     3,DL
         1 002631   200115 056100                    ASQ     INDX,,AUTO

      628     5123    3               END;

      629     5124    2            CALL INSERT(RASSED_INSTR.BUFFER,INDX,1,')');

   5124  1 002632   200115 235100                    LDA     INDX,,AUTO
         1 002633   040105 100400                    MLR     fill='040'O
PL6.E3A0      #001=DFR$INSTR File=DFR$INSTR.:E05TSI                              TUE 07/29/97 14:41 Page:123
         1 002634   000016 000001 2                  ADSC9   14                       cn=0,n=1
         1 002635   200010 000001                    ADSC9   RASSED_INSTR+1,A,AUTO    cn=0,n=1

      630     5125    2            RASSED_INSTR.COUNT = INDX+1;

   5125  1 002636   000001 035007                    ADLA    1,DL
         1 002637   200007 755100                    STA     RASSED_INSTR,,AUTO

      631     5126    2            RETURN;

   5126  1 002640   200112 221300                    LDX1  ! TAB+1,,AUTO
         1 002641   000001 702211                    TSX2  ! 1,X1

      632     5127        /**/
      633     5128    2   DECODE_SCW: ENTRY ALTRET;

   5128  1 002642   200112 741300       DECODE_SCW   STX1  ! TAB+1,,AUTO

      634     5129    2            DDW1 = INSTR_ARRAY(RASSED_INSTR.WORDS_USED);

   5129  1 002643   200034 235100                    LDA     RASSED_INSTR+21,,AUTO
         1 002644   000004 735000                    ALS     4
         1 002645   003100 061505                    CSR     bolr='003'O
         1 002646   200046 000020                    BDSC    INSTR_ARRAY,A,AUTO       by=0,bit=0,n=16
         1 002647   200113 000044                    BDSC    DDW1,,AUTO               by=0,bit=0,n=36

      635     5130    2            DDW2 = INSTR_ARRAY(RASSED_INSTR.WORDS_USED+1);

   5130  1 002650   003100 061505                    CSR     bolr='003'O
         1 002651   200046 270020                    BDSC    INSTR_ARRAY,A,AUTO       by=1,bit=7,n=16
         1 002652   200114 000044                    BDSC    DDW2,,AUTO               by=0,bit=0,n=36

      636     5131    2            RASSED_INSTR.WORDS_USED = RASSED_INSTR.WORDS_USED+2;

   5131  1 002653   200034 236100                    LDQ     RASSED_INSTR+21,,AUTO
         1 002654   000002 036007                    ADLQ    2,DL
         1 002655   200034 756100                    STQ     RASSED_INSTR+21,,AUTO
PL6.E3A0      #001=DFR$INSTR File=DFR$INSTR.:E05TSI                              TUE 07/29/97 14:41 Page:124

      637     5132    2            INDX = RASSED_INSTR.COUNT;

   5132  1 002656   200007 235100                    LDA     RASSED_INSTR,,AUTO
         1 002657   200115 755100                    STA     INDX,,AUTO

      638     5133    3            IF DDW1 = 120 THEN DO;

   5133  1 002660   200113 235100                    LDA     DDW1,,AUTO
         1 002661   000170 115007                    CMPA    120,DL
         1 002662   002673 601000 1                  TNZ     s:5138

      639     5134    3               CALL INSERT(RASSED_INSTR.BUFFER,INDX,3,',R5');

   5134  1 002663   200115 235100                    LDA     INDX,,AUTO
         1 002664   040105 100400                    MLR     fill='040'O
         1 002665   000076 000003 0                  ADSC9   SPREL+22                 cn=0,n=3
         1 002666   200010 000003                    ADSC9   RASSED_INSTR+1,A,AUTO    cn=0,n=3

      640     5135    3               RASSED_INSTR.COUNT = INDX+3;

   5135  1 002667   000003 035007                    ADLA    3,DL
         1 002670   200007 755100                    STA     RASSED_INSTR,,AUTO

      641     5136    3               RETURN;

   5136  1 002671   200112 221300                    LDX1  ! TAB+1,,AUTO
         1 002672   000001 702211                    TSX2  ! 1,X1

      642     5137    3               END;
      643     5138    2            IF DDW1 ~= 376 THEN ALTRETURN;

   5138  1 002673   000570 115007                    CMPA    376,DL
         1 002674   002676 600000 1                  TZE     s:5139

   5138  1 002675   000000 702211                    TSX2  ! 0,X1

PL6.E3A0      #001=DFR$INSTR File=DFR$INSTR.:E05TSI                              TUE 07/29/97 14:41 Page:125
      644     5139    2            IF SCW.DIR THEN CALL INSERT(RASSED_INSTR.BUFFER,0,3,'DRS');

   5139  1 002676   200114 236100                    LDQ     DDW2,,AUTO
         1 002677   100000 316007                    CANQ    32768,DL
         1 002700   002704 600000 1                  TZE     s:5140

   5139  1 002701   000077 236000 0                  LDQ     SPREL+23
         1 002702   200010 552170                    STBQ    RASSED_INSTR+1,'70'O,AUTO
         1 002703   002706 710000 1                  TRA     s:5141

      645     5140    2            ELSE CALL INSERT(RASSED_INSTR.BUFFER,0,3,'DFS');

   5140  1 002704   000100 236000 0                  LDQ     SPREL+24
         1 002705   200010 552170                    STBQ    RASSED_INSTR+1,'70'O,AUTO

      646     5141    2            CALL BINCHAR(SUBSTR(RASSED_INSTR.BUFFER,INDX+1,2),SCW.C);

   5141  1 002706   200114 236100                    LDQ     DDW2,,AUTO
         1 002707   000010 772000                    QRL     8
         1 002710   000037 376007                    ANQ     31,DL
         1 002711   000000 235003                    LDA     0,DU
         1 002712   200210 757100                    STAQ    V+18,,AUTO
         1 002713   200115 235100                    LDA     INDX,,AUTO
         1 002714   000105 301500                    BTD
         1 002715   200210 000010                    NDSC9   V+18,,AUTO               cn=0,s=lsgnf,sf=0,n=8
         1 002716   200010 230002                    NDSC9   RASSED_INSTR+1,A,AUTO    cn=1,s=nosgn,sf=0,n=2

      647     5142    3            IF SCW.RND THEN DO;

   5142  1 002717   200114 236100                    LDQ     DDW2,,AUTO
         1 002720   000200 316007                    CANQ    128,DL
         1 002721   002727 600000 1                  TZE     s:5146

      648     5143    3               CALL INSERT(RASSED_INSTR.BUFFER,INDX+3,4,',RND');

   5143  1 002722   040105 100400                    MLR     fill='040'O
         1 002723   000101 000004 0                  ADSC9   SPREL+25                 cn=0,n=4
PL6.E3A0      #001=DFR$INSTR File=DFR$INSTR.:E05TSI                              TUE 07/29/97 14:41 Page:126
         1 002724   200010 600004                    ADSC9   RASSED_INSTR+1,A,AUTO    cn=3,n=4

      649     5144    3               INDX = INDX+4;

   5144  1 002725   000004 236007                    LDQ     4,DL
         1 002726   200115 056100                    ASQ     INDX,,AUTO

      650     5145    3               END;

      651     5146    2            RASSED_INSTR.COUNT = INDX+3;

   5146  1 002727   200115 235100                    LDA     INDX,,AUTO
         1 002730   000003 035007                    ADLA    3,DL
         1 002731   200007 755100                    STA     RASSED_INSTR,,AUTO

      652     5147    2            RETURN;

   5147  1 002732   200112 221300                    LDX1  ! TAB+1,,AUTO
         1 002733   000001 702211                    TSX2  ! 1,X1

      653     5148    2   END DECODE_DD;
      654     5149        %EJECT;
PL6.E3A0      #001=DFR$INSTR File=DFR$INSTR.:E05TSI                              TUE 07/29/97 14:41 Page:127
      655     5150    1   DECODE_ADDR_SYL: PROC ALTRET;

   5150  1 002734   200120 741300       DECODE_ADDR* STX1  ! POSITION,,AUTO

      656     5151    2   DCL ADDRESS UBIN WORD;
      657     5152    2   DCL 1 R_ADDRESS REDEF ADDRESS,
      658     5153    2         2 * UBIN(16) UNAL,
      659     5154    2         2 HIGH_ORDER_BITS UBIN(4) UNAL,
      660     5155    2         2 LOW_ORDER_BITS UBIN(16) UNAL;
      661     5156    2   DCL 1 R_ADDRESS_32BITS REDEF ADDRESS,
      662     5157    2         2 * UBIN(4) UNAL,
      663     5158    2         2 HIGH_ORDER_BITS UBIN(16) UNAL,
      664     5159    2         2 LOW_ORDER_BITS UBIN(16) UNAL;
      665     5160    2   DCL DISPLACEMENT UBIN WORD;
      666     5161    2   DCL SYM_BUF$ PTR;
      667     5162    2   DCL SYM_TEXT CHAR(64);
      668     5163    2   DCL SYM_LEN UBIN WORD;
      669     5164    2   DCL OFFSET SBIN WORD;
      670     5165    2   DCL SIGNED_VALUE SBIN(16) UNAL;
      671     5166    2   DCL SIGNED_16BITS SBIN(16) UNAL;
      672     5167    2   DCL T_SIGNED_16BITS SBIN(16) UNAL;
      673     5168    2   DCL T_SIGNED_VALUE SBIN(16);
      674     5169    2   DCL UNSIGNED_VALUE UBIN(16) UNAL;
      675     5170    2   DCL UNSIGNED_VALUE_20BITS UBIN(20) UNAL;
      676     5171    2   DCL SIGNED_VALUE_32BITS SBIN(32) ;
      677     5172    2   DCL T_SIGNED_VALUE_32BITS SBIN(32) UNAL;
      678     5173    2   DCL SIGN SBIN WORD;
      679     5174    2   DCL TEXTX CHAR(5);
      680     5175    2   DCL POSITION UBIN WORD;
      681     5176    2   DCL START UBIN WORD;
      682     5177    2   DCL LEN UBIN WORD;
      683     5178    2   DCL B_INDEXED BIT(1) ALIGNED;
      684     5179    2   DCL N UBIN;
      685     5180    2   DCL 1 V,
      686     5181    2         2 * UBIN,
      687     5182    2         2 X(0:1) UBIN,
      688     5183    2         2 *(0:13) UBIN;
PL6.E3A0      #001=DFR$INSTR File=DFR$INSTR.:E05TSI                              TUE 07/29/97 14:41 Page:128
      689     5184                                                                                    /**/
      690     5185    2   DCL DDR$POSIT ENTRY(5) ALTRET;
      691     5186    2   DCL DFK$GETMVAL ENTRY(6) ALTRET;
      692     5187    2   DCL DDE$ERROR ENTRY;
      693     5188                                                                                    /**/
      694     5189    2           SYM_BUF$ = ADDR (SYM_TEXT);

   5189  1 002735   200124 630500                    EPPR0   SYM_TEXT,,AUTO
         1 002736   200123 450500                    STP0    SYM_BUF$,,AUTO

      695     5190    2           DECODED_TEXT = ' ';

   5190  1 002737   040100 100400                    MLR     fill='040'O
         1 002740   000035 000001 xsym               ADSC9   B_VECTNIL+29             cn=0,n=1
         1 002741   200060 000100                    ADSC9   DECODED_TEXT,,AUTO       cn=0,n=64

      696     5191    2           ADDRESS = 0;

   5191  1 002742   200121 450100                    STZ     ADDRESS,,AUTO

      697     5192    2           INDEX_FLAG = '0'B;

   5192  1 002743   200057 450100                    STZ     INDEX_FLAG,,AUTO

      698     5193    2           B_INDEXED = '0'B;

   5193  1 002744   200164 450100                    STZ     B_INDEXED,,AUTO

      699     5194    3   DECODE : DO CASE( ADDR_SYL.PHRASE );

   5194  1 002745   200056 236100       DECODE       LDQ     INSTR,,AUTO
         1 002746   000024 772000                    QRL     20
         1 002747   000177 376007                    ANQ     127,DL
         1 002750   000200 116007                    CMPQ    128,DL
         1 002751   002753 602006 1                  TNC     DECODE+6,QL
         1 002752   005616 710000 1                  TRA     s:5622
         1 002753   003212 710000 1                  TRA     s:5230
PL6.E3A0      #001=DFR$INSTR File=DFR$INSTR.:E05TSI                              TUE 07/29/97 14:41 Page:129
         1 002754   004517 710000 1                  TRA     s:5412
         1 002755   004517 710000 1                  TRA     s:5412
         1 002756   004517 710000 1                  TRA     s:5412
         1 002757   004517 710000 1                  TRA     s:5412
         1 002760   004517 710000 1                  TRA     s:5412
         1 002761   004517 710000 1                  TRA     s:5412
         1 002762   004517 710000 1                  TRA     s:5412
         1 002763   003322 710000 1                  TRA     s:5250
         1 002764   004541 710000 1                  TRA     s:5428
         1 002765   004541 710000 1                  TRA     s:5428
         1 002766   004541 710000 1                  TRA     s:5428
         1 002767   004541 710000 1                  TRA     s:5428
         1 002770   004541 710000 1                  TRA     s:5428
         1 002771   004541 710000 1                  TRA     s:5428
         1 002772   004541 710000 1                  TRA     s:5428
         1 002773   004561 710000 1                  TRA     s:5435
         1 002774   005073 710000 1                  TRA     s:5499
         1 002775   005073 710000 1                  TRA     s:5499
         1 002776   005073 710000 1                  TRA     s:5499
         1 002777   005073 710000 1                  TRA     s:5499
         1 003000   005073 710000 1                  TRA     s:5499
         1 003001   005073 710000 1                  TRA     s:5499
         1 003002   005073 710000 1                  TRA     s:5499
         1 003003   004734 710000 1                  TRA     s:5463
         1 003004   005116 710000 1                  TRA     s:5523
         1 003005   005116 710000 1                  TRA     s:5523
         1 003006   005116 710000 1                  TRA     s:5523
         1 003007   005116 710000 1                  TRA     s:5523
         1 003010   005116 710000 1                  TRA     s:5523
         1 003011   005116 710000 1                  TRA     s:5523
         1 003012   005116 710000 1                  TRA     s:5523
         1 003013   004561 710000 1                  TRA     s:5435
         1 003014   005073 710000 1                  TRA     s:5499
         1 003015   005073 710000 1                  TRA     s:5499
         1 003016   005073 710000 1                  TRA     s:5499
         1 003017   005073 710000 1                  TRA     s:5499
         1 003020   005073 710000 1                  TRA     s:5499
PL6.E3A0      #001=DFR$INSTR File=DFR$INSTR.:E05TSI                              TUE 07/29/97 14:41 Page:130
         1 003021   005073 710000 1                  TRA     s:5499
         1 003022   005073 710000 1                  TRA     s:5499
         1 003023   004734 710000 1                  TRA     s:5463
         1 003024   005116 710000 1                  TRA     s:5523
         1 003025   005116 710000 1                  TRA     s:5523
         1 003026   005116 710000 1                  TRA     s:5523
         1 003027   005116 710000 1                  TRA     s:5523
         1 003030   005116 710000 1                  TRA     s:5523
         1 003031   005116 710000 1                  TRA     s:5523
         1 003032   005116 710000 1                  TRA     s:5523
         1 003033   004561 710000 1                  TRA     s:5435
         1 003034   005073 710000 1                  TRA     s:5499
         1 003035   005073 710000 1                  TRA     s:5499
         1 003036   005073 710000 1                  TRA     s:5499
         1 003037   005073 710000 1                  TRA     s:5499
         1 003040   005073 710000 1                  TRA     s:5499
         1 003041   005073 710000 1                  TRA     s:5499
         1 003042   005073 710000 1                  TRA     s:5499
         1 003043   004734 710000 1                  TRA     s:5463
         1 003044   005116 710000 1                  TRA     s:5523
         1 003045   005116 710000 1                  TRA     s:5523
         1 003046   005116 710000 1                  TRA     s:5523
         1 003047   005116 710000 1                  TRA     s:5523
         1 003050   005116 710000 1                  TRA     s:5523
         1 003051   005116 710000 1                  TRA     s:5523
         1 003052   005116 710000 1                  TRA     s:5523
         1 003053   003706 710000 1                  TRA     s:5327
         1 003054   005145 710000 1                  TRA     s:5533
         1 003055   005145 710000 1                  TRA     s:5533
         1 003056   005145 710000 1                  TRA     s:5533
         1 003057   005145 710000 1                  TRA     s:5533
         1 003060   005145 710000 1                  TRA     s:5533
         1 003061   005145 710000 1                  TRA     s:5533
         1 003062   005145 710000 1                  TRA     s:5533
         1 003063   004160 710000 1                  TRA     s:5354
         1 003064   005336 710000 1                  TRA     s:5567
         1 003065   005336 710000 1                  TRA     s:5567
PL6.E3A0      #001=DFR$INSTR File=DFR$INSTR.:E05TSI                              TUE 07/29/97 14:41 Page:131
         1 003066   005336 710000 1                  TRA     s:5567
         1 003067   005336 710000 1                  TRA     s:5567
         1 003070   005336 710000 1                  TRA     s:5567
         1 003071   005336 710000 1                  TRA     s:5567
         1 003072   005336 710000 1                  TRA     s:5567
         1 003073   003153 710000 1                  TRA     s:5204
         1 003074   004432 710000 1                  TRA     REGISTER
         1 003075   004432 710000 1                  TRA     REGISTER
         1 003076   004432 710000 1                  TRA     REGISTER
         1 003077   004432 710000 1                  TRA     REGISTER
         1 003100   004432 710000 1                  TRA     REGISTER
         1 003101   004432 710000 1                  TRA     REGISTER
         1 003102   004432 710000 1                  TRA     REGISTER
         1 003103   003153 710000 1                  TRA     s:5204
         1 003104   005541 710000 1                  TRA     s:5605
         1 003105   005541 710000 1                  TRA     s:5605
         1 003106   005541 710000 1                  TRA     s:5605
         1 003107   003153 710000 1                  TRA     s:5204
         1 003110   005567 710000 1                  TRA     s:5617
         1 003111   005567 710000 1                  TRA     s:5617
         1 003112   005567 710000 1                  TRA     s:5617
         1 003113   003153 710000 1                  TRA     s:5204
         1 003114   003154 710000 1                  TRA     s:5214
         1 003115   003154 710000 1                  TRA     s:5214
         1 003116   003154 710000 1                  TRA     s:5214
         1 003117   003154 710000 1                  TRA     s:5214
         1 003120   003154 710000 1                  TRA     s:5214
         1 003121   003154 710000 1                  TRA     s:5214
         1 003122   003154 710000 1                  TRA     s:5214
         1 003123   003153 710000 1                  TRA     s:5204
         1 003124   005541 710000 1                  TRA     s:5605
         1 003125   005541 710000 1                  TRA     s:5605
         1 003126   005541 710000 1                  TRA     s:5605
         1 003127   003153 710000 1                  TRA     s:5204
         1 003130   005567 710000 1                  TRA     s:5617
         1 003131   005567 710000 1                  TRA     s:5617
         1 003132   005567 710000 1                  TRA     s:5617
PL6.E3A0      #001=DFR$INSTR File=DFR$INSTR.:E05TSI                              TUE 07/29/97 14:41 Page:132
         1 003133   003434 710000 1                  TRA     s:5271
         1 003134   003173 710000 1                  TRA     s:5225
         1 003135   003173 710000 1                  TRA     s:5225
         1 003136   003173 710000 1                  TRA     s:5225
         1 003137   003173 710000 1                  TRA     s:5225
         1 003140   003173 710000 1                  TRA     s:5225
         1 003141   003173 710000 1                  TRA     s:5225
         1 003142   003173 710000 1                  TRA     s:5225
         1 003143   003624 710000 1                  TRA     s:5313
         1 003144   005541 710000 1                  TRA     s:5605
         1 003145   005541 710000 1                  TRA     s:5605
         1 003146   005541 710000 1                  TRA     s:5605
         1 003147   003153 710000 1                  TRA     s:5204
         1 003150   005567 710000 1                  TRA     s:5617
         1 003151   005567 710000 1                  TRA     s:5617
         1 003152   005567 710000 1                  TRA     s:5617

      700     5195                                                                                    /**/
      701     5196    3            CASE ( 80,                     /* M=5, @=0, N=0                      */

      702     5197    3                88,                        /* M=5, @=0, N=0                      */
      703     5198    3                92,                        /* M=5, @=1, N=4                      */
      704     5199    3                96,                        /* M=6, @=0, N=0    r. F. U.          */
      705     5200    3                104,                       /* M=6, @=1, N=4                      */
      706     5201    3                108,                       /* M=6, @=1, N=4                      */
      707     5202    3                124);                      /* M=7, @=1, N=4                      */
      708     5203                                                                                    /**/
      709     5204    3              ALTRETURN;

   5204  1 003153   000000 702211                    TSX2  ! 0,X1

      710     5205                                                                                    /**/
      711     5206    3            CASE ( 97,                     /* M=6, @=0, N=1                      */

      712     5207    3                98,                        /* M=6, @=0, N=2                      */
      713     5208    3                99,                        /* M=6, @=0, N=3                      */
      714     5209    3                100,                       /* M=6, @=0, N=4   push on b register */
PL6.E3A0      #001=DFR$INSTR File=DFR$INSTR.:E05TSI                              TUE 07/29/97 14:41 Page:133
      715     5210    3                101,                       /* M=6, @=0, N=5                      */
      716     5211    3                102,                       /* M=6, @=0, N=6                      */
      717     5212    3                103);                      /* M=6, @=0, N=7                      */
      718     5213                                                                                    /**/
      719     5214    3              CALL INSERT( DECODED_TEXT, 0,, B_REGISTERS(ADDR_SYL.FRAME.N_FIELD),
              5214                       ',PUSH' );

   5214  1 003154   200056 236100                    LDQ     INSTR,,AUTO
         1 003155   000024 772000                    QRL     20
         1 003156   000007 376007                    ANQ     7,DL
         1 003157   000003 402007                    MPY     3,DL
         1 003160   040100 100406                    MLR     fill='040'O
         1 003161   000030 000003 0                  ADSC9   B_REGISTERS,Q            cn=0,n=3
         1 003162   200060 000003                    ADSC9   DECODED_TEXT,,AUTO       cn=0,n=3
         1 003163   040100 100400                    MLR     fill='040'O
         1 003164   000102 000005 0                  ADSC9   SPREL+26                 cn=0,n=5
         1 003165   200060 600075                    ADSC9   DECODED_TEXT,,AUTO       cn=3,n=61

      720     5215    3              RASSED_INSTR.WORDS_USED = 1;

   5215  1 003166   000001 235007                    LDA     1,DL
         1 003167   200034 755100                    STA     RASSED_INSTR+21,,AUTO

      721     5216    3              INDEX_FLAG = '1'B;

   5216  1 003170   400000 236003                    LDQ     -131072,DU
         1 003171   200057 756100                    STQ     INDEX_FLAG,,AUTO
         1 003172   005616 710000 1                  TRA     s:5622

      722     5217                                                                                    /**/
      723     5218    3            CASE ( 113,                    /* M=7, @=0, N=1                      */

      724     5219    3                114,                       /* M=7, @=0, N=2                      */
      725     5220    3                115,                       /* M=7, @=0, N=3                      */
      726     5221    3                116,                       /* M=7, @=0, N=4   pop on b register  */
      727     5222    3                117,                       /* M=7, @=0, N=5                      */
      728     5223    3                118,                       /* M=7, @=0, N=6                      */
PL6.E3A0      #001=DFR$INSTR File=DFR$INSTR.:E05TSI                              TUE 07/29/97 14:41 Page:134
      729     5224    3                119);                      /* M=7, @=0, N=7                      */
      730     5225    3              CALL INSERT( DECODED_TEXT, 0,, B_REGISTERS(ADDR_SYL.FRAME.N_FIELD),
              5225                       ',POP' );

   5225  1 003173   200056 236100                    LDQ     INSTR,,AUTO
         1 003174   000024 772000                    QRL     20
         1 003175   000007 376007                    ANQ     7,DL
         1 003176   000003 402007                    MPY     3,DL
         1 003177   040100 100406                    MLR     fill='040'O
         1 003200   000030 000003 0                  ADSC9   B_REGISTERS,Q            cn=0,n=3
         1 003201   200060 000003                    ADSC9   DECODED_TEXT,,AUTO       cn=0,n=3
         1 003202   040100 100400                    MLR     fill='040'O
         1 003203   000104 000004 0                  ADSC9   SPREL+28                 cn=0,n=4
         1 003204   200060 600075                    ADSC9   DECODED_TEXT,,AUTO       cn=3,n=61

      731     5226    3              RASSED_INSTR.WORDS_USED = 1;

   5226  1 003205   000001 235007                    LDA     1,DL
         1 003206   200034 755100                    STA     RASSED_INSTR+21,,AUTO

      732     5227    3              INDEX_FLAG = '1'B;

   5227  1 003207   400000 236003                    LDQ     -131072,DU
         1 003210   200057 756100                    STQ     INDEX_FLAG,,AUTO
         1 003211   005616 710000 1                  TRA     s:5622

      733     5228                                                                                    /**/
      734     5229    3            CASE ( 0 );                    /* M=0, @=0, N=0  direct address      */

      735     5230    3              R_ADDRESS.HIGH_ORDER_BITS = INSTR_ARRAY(1);

   5230  1 003212   200046 236100                    LDQ     INSTR_ARRAY,,AUTO
         1 003213   000014 736000                    QLS     12
         1 003214   200121 676100                    ERQ     ADDRESS,,AUTO
         1 003215   000002 376000 2                  ANQ     2
         1 003216   200121 656100                    ERSQ    ADDRESS,,AUTO

PL6.E3A0      #001=DFR$INSTR File=DFR$INSTR.:E05TSI                              TUE 07/29/97 14:41 Page:135
      736     5231    3              R_ADDRESS.LOW_ORDER_BITS = INSTR_ARRAY(2);

   5231  1 003217   200046 235100                    LDA     INSTR_ARRAY,,AUTO
         1 003220   200047 236100                    LDQ     INSTR_ARRAY+1,,AUTO
         1 003221   000030 773000                    LRL     24
         1 003222   177777 376007                    ANQ     65535,DL
         1 003223   200121 676100                    ERQ     ADDRESS,,AUTO
         1 003224   177777 376007                    ANQ     65535,DL
         1 003225   200121 656100                    ERSQ    ADDRESS,,AUTO

      737     5232    3              CALL DDR$POSIT( ADDRESS, SYM_BUF$, 64, SYM_LEN  );

   5232  1 003226   200144 631500                    EPPR1   SYM_LEN,,AUTO
         1 003227   200213 451500                    STP1    V+21,,AUTO
         1 003230   000004 236000 2                  LDQ     4
         1 003231   200212 756100                    STQ     V+20,,AUTO
         1 003232   200123 633500                    EPPR3   SYM_BUF$,,AUTO
         1 003233   200211 453500                    STP3    V+19,,AUTO
         1 003234   200121 634500                    EPPR4   ADDRESS,,AUTO
         1 003235   200210 454500                    STP4    V+18,,AUTO
         1 003236   200210 630500                    EPPR0   V+18,,AUTO
         1 003237   000022 631400 xsym               EPPR1   B_VECTNIL+18
         1 003240   000000 701000 xent               TSX1    DDR$POSIT
         1 003241   000000 011000                    NOP     0

      738     5233    3              IF TAB

   5233  1 003242   200111 234100                    SZN     TAB,,AUTO
         1 003243   003251 605000 1                  TPL     s:5238

      739     5234    4              THEN DO;

      740     5235    4                   S_D.L6_TAB = '1'B;

   5235  1 003244   400000 236003                    LDQ     -131072,DU
         1 003245   000000 470400 xsym               LDP0    S_D$
         1 003246   006734 756100                    STQ     3548,,PR0
PL6.E3A0      #001=DFR$INSTR File=DFR$INSTR.:E05TSI                              TUE 07/29/97 14:41 Page:136

      741     5236    4                   S_D.L6_TAB_VALUE = ADDRESS;

   5236  1 003247   200121 235100                    LDA     ADDRESS,,AUTO
         1 003250   006735 755100                    STA     3549,,PR0

      742     5237    4                 END;

      743     5238    4              IF SYM_LEN = 0 THEN DO;

   5238  1 003251   200144 235100                    LDA     SYM_LEN,,AUTO
         1 003252   003306 601000 1                  TNZ     s:5244

      744     5239    4                 CALL DFR$BINHEX( ADDRESS, TEXT_HEX, L_ZEROS );

   5239  1 003253   200106 630500                    EPPR0   L_ZEROS,,AUTO
         1 003254   200212 450500                    STP0    V+20,,AUTO
         1 003255   200102 631500                    EPPR1   TEXT_HEX,,AUTO
         1 003256   200211 451500                    STP1    V+19,,AUTO
         1 003257   200121 633500                    EPPR3   ADDRESS,,AUTO
         1 003260   200210 453500                    STP3    V+18,,AUTO
         1 003261   200210 630500                    EPPR0   V+18,,AUTO
         1 003262   000021 631400 xsym               EPPR1   B_VECTNIL+17
         1 003263   000000 701000 xent               TSX1    DFR$BINHEX
         1 003264   000000 011000                    NOP     0

      745     5240    4                 IF L_ZEROS = 8 THEN SYM_TEXT = '.0';

   5240  1 003265   200106 220100                    LDX0    L_ZEROS,,AUTO
         1 003266   000010 100003                    CMPX0   8,DU
         1 003267   003274 601000 1                  TNZ     s:5242

   5240  1 003270   040100 100400                    MLR     fill='040'O
         1 003271   000056 000002 0                  ADSC9   SPREL+6                  cn=0,n=2
         1 003272   200124 000100                    ADSC9   SYM_TEXT,,AUTO           cn=0,n=64
         1 003273   003312 710000 1                  TRA     s:5245

PL6.E3A0      #001=DFR$INSTR File=DFR$INSTR.:E05TSI                              TUE 07/29/97 14:41 Page:137
      746     5241    4                 ELSE
      747     5242    4                    CALL INSERT( SYM_TEXT, 0,, '.', SUBSTR( TEXT_HEX, L_ZEROS, 8-
              5242                             L_ZEROS ) );

   5242  1 003274   056000 236003                    LDQ     23552,DU
         1 003275   200124 552140                    STBQ    SYM_TEXT,'40'O,AUTO
         1 003276   777767 620010                    EAX0    -9,X0
         1 003277   777777 660003                    ERX0    -1,DU
         1 003300   200106 235100                    LDA     L_ZEROS,,AUTO
         1 003301   000022 771000                    ARL     18
         1 003302   040100 100545                    MLR     fill='040'O
         1 003303   200102 000010                    ADSC9   TEXT_HEX,A,AUTO          cn=0,n=*X0
         1 003304   200124 200077                    ADSC9   SYM_TEXT,,AUTO           cn=1,n=63

      748     5243    4                 END;

   5243  1 003305   003312 710000 1                  TRA     s:5245

      749     5244    3              ELSE SYM_TEXT = SUBSTR( SYM_TEXT, 0, SYM_LEN );

   5244  1 003306   000000 620005                    EAX0    0,AL
         1 003307   040100 100540                    MLR     fill='040'O
         1 003310   200124 000010                    ADSC9   SYM_TEXT,,AUTO           cn=0,n=*X0
         1 003311   200124 000100                    ADSC9   SYM_TEXT,,AUTO           cn=0,n=64

      750     5245    3              DECODED_TEXT = SYM_TEXT;

   5245  1 003312   040100 100500                    MLR     fill='040'O
         1 003313   200124 000100                    ADSC9   SYM_TEXT,,AUTO           cn=0,n=64
         1 003314   200060 000100                    ADSC9   DECODED_TEXT,,AUTO       cn=0,n=64

      751     5246    3              RASSED_INSTR.WORDS_USED = 3;

   5246  1 003315   000003 235007                    LDA     3,DL
         1 003316   200034 755100                    STA     RASSED_INSTR+21,,AUTO

      752     5247    3              INDEX_FLAG = '1'B;
PL6.E3A0      #001=DFR$INSTR File=DFR$INSTR.:E05TSI                              TUE 07/29/97 14:41 Page:138

   5247  1 003317   400000 236003                    LDQ     -131072,DU
         1 003320   200057 756100                    STQ     INDEX_FLAG,,AUTO
         1 003321   005616 710000 1                  TRA     s:5622

      753     5248                                                                                    /**/
      754     5249    3            CASE ( 8 );                    /* M=0, @=1, N=0  indirect address    */

      755     5250    3              R_ADDRESS.HIGH_ORDER_BITS = INSTR_ARRAY(1);

   5250  1 003322   200046 236100                    LDQ     INSTR_ARRAY,,AUTO
         1 003323   000014 736000                    QLS     12
         1 003324   200121 676100                    ERQ     ADDRESS,,AUTO
         1 003325   000002 376000 2                  ANQ     2
         1 003326   200121 656100                    ERSQ    ADDRESS,,AUTO

      756     5251    3              R_ADDRESS.LOW_ORDER_BITS = INSTR_ARRAY(2);

   5251  1 003327   200046 235100                    LDA     INSTR_ARRAY,,AUTO
         1 003330   200047 236100                    LDQ     INSTR_ARRAY+1,,AUTO
         1 003331   000030 773000                    LRL     24
         1 003332   177777 376007                    ANQ     65535,DL
         1 003333   200121 676100                    ERQ     ADDRESS,,AUTO
         1 003334   177777 376007                    ANQ     65535,DL
         1 003335   200121 656100                    ERSQ    ADDRESS,,AUTO

      757     5252    3              CALL DDR$POSIT( ADDRESS, SYM_BUF$, 64, SYM_LEN );

   5252  1 003336   200144 631500                    EPPR1   SYM_LEN,,AUTO
         1 003337   200213 451500                    STP1    V+21,,AUTO
         1 003340   000004 236000 2                  LDQ     4
         1 003341   200212 756100                    STQ     V+20,,AUTO
         1 003342   200123 633500                    EPPR3   SYM_BUF$,,AUTO
         1 003343   200211 453500                    STP3    V+19,,AUTO
         1 003344   200121 634500                    EPPR4   ADDRESS,,AUTO
         1 003345   200210 454500                    STP4    V+18,,AUTO
         1 003346   200210 630500                    EPPR0   V+18,,AUTO
PL6.E3A0      #001=DFR$INSTR File=DFR$INSTR.:E05TSI                              TUE 07/29/97 14:41 Page:139
         1 003347   000022 631400 xsym               EPPR1   B_VECTNIL+18
         1 003350   000000 701000 xent               TSX1    DDR$POSIT
         1 003351   000000 011000                    NOP     0

      758     5253    3              IF TAB

   5253  1 003352   200111 234100                    SZN     TAB,,AUTO
         1 003353   003361 605000 1                  TPL     s:5258

      759     5254    4              THEN DO;

      760     5255    4                   S_D.L6_TAB = '1'B;

   5255  1 003354   400000 236003                    LDQ     -131072,DU
         1 003355   000000 470400 xsym               LDP0    S_D$
         1 003356   006734 756100                    STQ     3548,,PR0

      761     5256    4                   S_D.L6_TAB_VALUE = ADDRESS;

   5256  1 003357   200121 235100                    LDA     ADDRESS,,AUTO
         1 003360   006735 755100                    STA     3549,,PR0

      762     5257    4                 END;

      763     5258    4              IF SYM_LEN  = 0 THEN DO;

   5258  1 003361   200144 235100                    LDA     SYM_LEN,,AUTO
         1 003362   003416 601000 1                  TNZ     s:5265

      764     5259    4                 CALL DFR$BINHEX( ADDRESS, TEXT_HEX, L_ZEROS );

   5259  1 003363   200106 630500                    EPPR0   L_ZEROS,,AUTO
         1 003364   200212 450500                    STP0    V+20,,AUTO
         1 003365   200102 631500                    EPPR1   TEXT_HEX,,AUTO
         1 003366   200211 451500                    STP1    V+19,,AUTO
         1 003367   200121 633500                    EPPR3   ADDRESS,,AUTO
         1 003370   200210 453500                    STP3    V+18,,AUTO
PL6.E3A0      #001=DFR$INSTR File=DFR$INSTR.:E05TSI                              TUE 07/29/97 14:41 Page:140
         1 003371   200210 630500                    EPPR0   V+18,,AUTO
         1 003372   000021 631400 xsym               EPPR1   B_VECTNIL+17
         1 003373   000000 701000 xent               TSX1    DFR$BINHEX
         1 003374   000000 011000                    NOP     0

      765     5260    4                 IF L_ZEROS = 8 THEN SYM_TEXT = '.0';

   5260  1 003375   200106 220100                    LDX0    L_ZEROS,,AUTO
         1 003376   000010 100003                    CMPX0   8,DU
         1 003377   003404 601000 1                  TNZ     s:5262

   5260  1 003400   040100 100400                    MLR     fill='040'O
         1 003401   000056 000002 0                  ADSC9   SPREL+6                  cn=0,n=2
         1 003402   200124 000100                    ADSC9   SYM_TEXT,,AUTO           cn=0,n=64
         1 003403   003422 710000 1                  TRA     s:5266

      766     5261    4                 ELSE
      767     5262    4                    CALL INSERT( SYM_TEXT, 0,, '.', SUBSTR( TEXT_HEX, L_ZEROS, 8-
              5262                             L_ZEROS ) );

   5262  1 003404   056000 236003                    LDQ     23552,DU
         1 003405   200124 552140                    STBQ    SYM_TEXT,'40'O,AUTO
         1 003406   777767 620010                    EAX0    -9,X0
         1 003407   777777 660003                    ERX0    -1,DU
         1 003410   200106 235100                    LDA     L_ZEROS,,AUTO
         1 003411   000022 771000                    ARL     18
         1 003412   040100 100545                    MLR     fill='040'O
         1 003413   200102 000010                    ADSC9   TEXT_HEX,A,AUTO          cn=0,n=*X0
         1 003414   200124 200077                    ADSC9   SYM_TEXT,,AUTO           cn=1,n=63

      768     5263    4                 END;

   5263  1 003415   003422 710000 1                  TRA     s:5266

      769     5264                                                                                    /**/
      770     5265    3              ELSE SYM_TEXT = SUBSTR( SYM_TEXT, 0, SYM_LEN );

PL6.E3A0      #001=DFR$INSTR File=DFR$INSTR.:E05TSI                              TUE 07/29/97 14:41 Page:141
   5265  1 003416   000000 620005                    EAX0    0,AL
         1 003417   040100 100540                    MLR     fill='040'O
         1 003420   200124 000010                    ADSC9   SYM_TEXT,,AUTO           cn=0,n=*X0
         1 003421   200124 000100                    ADSC9   SYM_TEXT,,AUTO           cn=0,n=64

      771     5266    3              CALL CONCAT( DECODED_TEXT, '*', SYM_TEXT );

   5266  1 003422   052000 236003                    LDQ     21504,DU
         1 003423   200060 756100                    STQ     DECODED_TEXT,,AUTO
         1 003424   040100 100500                    MLR     fill='040'O
         1 003425   200124 000077                    ADSC9   SYM_TEXT,,AUTO           cn=0,n=63
         1 003426   200060 200077                    ADSC9   DECODED_TEXT,,AUTO       cn=1,n=63

      772     5267    3              RASSED_INSTR.WORDS_USED = 3;

   5267  1 003427   000003 235007                    LDA     3,DL
         1 003430   200034 755100                    STA     RASSED_INSTR+21,,AUTO

      773     5268    3              INDEX_FLAG = '1'B;

   5268  1 003431   400000 236003                    LDQ     -131072,DU
         1 003432   200057 756100                    STQ     INDEX_FLAG,,AUTO
         1 003433   005616 710000 1                  TRA     s:5622

      774     5269                                                                                    /**/
      775     5270    3            CASE ( 112 );                  /* M=3, @=0, N=0  imo value           */

      776     5271    4              DO CASE ( INSTRUCTION_TYPE(INSTRUCTION.INDEXX) );

   5271  1 003434   200056 236100                    LDQ     INSTR,,AUTO
         1 003435   000033 772000                    QRL     27
         1 003436   000000 235006 xsym               LDA     INSTRUCTION_TYPE,QL
         1 003437   000033 135007                    SBLA    27,DL
         1 003440   000007 115007                    CMPA    7,DL
         1 003441   003443 602005 1                  TNC     s:5271+7,AL
         1 003442   003535 710000 1                  TRA     SINGLE_OPERAND
         1 003443   003452 710000 1                  TRA     s:5274
PL6.E3A0      #001=DFR$INSTR File=DFR$INSTR.:E05TSI                              TUE 07/29/97 14:41 Page:142
         1 003444   003535 710000 1                  TRA     SINGLE_OPERAND
         1 003445   003535 710000 1                  TRA     SINGLE_OPERAND
         1 003446   003535 710000 1                  TRA     SINGLE_OPERAND
         1 003447   003535 710000 1                  TRA     SINGLE_OPERAND
         1 003450   003535 710000 1                  TRA     SINGLE_OPERAND
         1 003451   003474 710000 1                  TRA     s:5280

      777     5272                                                                                    /**/
      778     5273    4               CASE (27);                  /* 32 bit imo value                   */

      779     5274    4                 R_ADDRESS_32BITS.HIGH_ORDER_BITS = INSTR_ARRAY(1);

   5274  1 003452   200046 236100                    LDQ     INSTR_ARRAY,,AUTO
         1 003453   000014 736000                    QLS     12
         1 003454   200121 676100                    ERQ     ADDRESS,,AUTO
         1 003455   000017 376000 2                  ANQ     15
         1 003456   200121 656100                    ERSQ    ADDRESS,,AUTO

      780     5275    4                 R_ADDRESS_32BITS.LOW_ORDER_BITS  = INSTR_ARRAY(2);

   5275  1 003457   200046 235100                    LDA     INSTR_ARRAY,,AUTO
         1 003460   200047 236100                    LDQ     INSTR_ARRAY+1,,AUTO
         1 003461   000030 773000                    LRL     24
         1 003462   177777 376007                    ANQ     65535,DL
         1 003463   200121 676100                    ERQ     ADDRESS,,AUTO
         1 003464   177777 376007                    ANQ     65535,DL
         1 003465   200121 656100                    ERSQ    ADDRESS,,AUTO

      781     5276    4                 START = 0;

   5276  1 003466   200162 450100                    STZ     START,,AUTO

      782     5277    4                 LEN = 8;

   5277  1 003467   000010 235007                    LDA     8,DL
         1 003470   200163 755100                    STA     LEN,,AUTO

PL6.E3A0      #001=DFR$INSTR File=DFR$INSTR.:E05TSI                              TUE 07/29/97 14:41 Page:143
      783     5278    4                 RASSED_INSTR.WORDS_USED = 3;

   5278  1 003471   000003 236007                    LDQ     3,DL
         1 003472   200034 756100                    STQ     RASSED_INSTR+21,,AUTO
         1 003473   003547 710000 1                  TRA     s:5298

      784     5279    4               CASE (33);                  /* 20 bit unsigned imo                */

      785     5280    4                 IF INSTRUCTION.INDEXX = 311 OR INSTRUCTION.INDEXX = 343 OR

   5280  1 003474   000033 736000                    QLS     27
         1 003475   467000 116003                    CMPQ    -102912,DU
         1 003476   003535 600000 1                  TZE     SINGLE_OPERAND
         1 003477   527000 116003                    CMPQ    -86528,DU
         1 003500   003535 600000 1                  TZE     SINGLE_OPERAND
         1 003501   567000 116003                    CMPQ    -70144,DU
         1 003502   003535 600000 1                  TZE     SINGLE_OPERAND
         1 003503   627000 116003                    CMPQ    -53760,DU
         1 003504   003535 600000 1                  TZE     SINGLE_OPERAND
         1 003505   667000 116003                    CMPQ    -37376,DU
         1 003506   003535 600000 1                  TZE     SINGLE_OPERAND
         1 003507   727000 116003                    CMPQ    -20992,DU
         1 003510   003535 600000 1                  TZE     SINGLE_OPERAND
         1 003511   767000 116003                    CMPQ    -4608,DU
         1 003512   003535 600000 1                  TZE     SINGLE_OPERAND

      786     5281    4                    INSTRUCTION.INDEXX = 375 OR INSTRUCTION.INDEXX = 407 OR
      787     5282    4                    INSTRUCTION.INDEXX = 439 OR INSTRUCTION.INDEXX = 471 OR
      788     5283    4                    INSTRUCTION.INDEXX = 503
      789     5284    4                 THEN GOTO SINGLE_OPERAND;  /* LAB,Bn hex,IMO - single operand */
      790     5285    4                 R_ADDRESS.HIGH_ORDER_BITS = INSTR_ARRAY(1);

   5285  1 003513   200046 236100                    LDQ     INSTR_ARRAY,,AUTO
         1 003514   000014 736000                    QLS     12
         1 003515   200121 676100                    ERQ     ADDRESS,,AUTO
         1 003516   000002 376000 2                  ANQ     2
         1 003517   200121 656100                    ERSQ    ADDRESS,,AUTO
PL6.E3A0      #001=DFR$INSTR File=DFR$INSTR.:E05TSI                              TUE 07/29/97 14:41 Page:144

      791     5286    4                 R_ADDRESS.LOW_ORDER_BITS  = INSTR_ARRAY(2);

   5286  1 003520   200046 235100                    LDA     INSTR_ARRAY,,AUTO
         1 003521   200047 236100                    LDQ     INSTR_ARRAY+1,,AUTO
         1 003522   000030 773000                    LRL     24
         1 003523   177777 376007                    ANQ     65535,DL
         1 003524   200121 676100                    ERQ     ADDRESS,,AUTO
         1 003525   177777 376007                    ANQ     65535,DL
         1 003526   200121 656100                    ERSQ    ADDRESS,,AUTO

      792     5287    4                 RASSED_INSTR.WORDS_USED = 3;

   5287  1 003527   000003 235007                    LDA     3,DL
         1 003530   200034 755100                    STA     RASSED_INSTR+21,,AUTO

      793     5288    4                 START = 3;

   5288  1 003531   200162 755100                    STA     START,,AUTO

      794     5289    4                 LEN = 5;

   5289  1 003532   000005 236007                    LDQ     5,DL
         1 003533   200163 756100                    STQ     LEN,,AUTO
         1 003534   003547 710000 1                  TRA     s:5298

      795     5290                                                                                    /**/
      796     5291    4               CASE (ELSE);                /* 16 bit signed value                */

      797     5292    4   SINGLE_OPERAND:
      798     5293    4                 R_ADDRESS.LOW_ORDER_BITS = INSTR_ARRAY(1);

   5293  1 003535   200046 236100       SINGLE_OPER* LDQ     INSTR_ARRAY,,AUTO
         1 003536   000004 772000                    QRL     4
         1 003537   200121 676100                    ERQ     ADDRESS,,AUTO
         1 003540   177777 376007                    ANQ     65535,DL
         1 003541   200121 656100                    ERSQ    ADDRESS,,AUTO
PL6.E3A0      #001=DFR$INSTR File=DFR$INSTR.:E05TSI                              TUE 07/29/97 14:41 Page:145

      799     5294    4                 RASSED_INSTR.WORDS_USED = 2;

   5294  1 003542   000002 235007                    LDA     2,DL
         1 003543   200034 755100                    STA     RASSED_INSTR+21,,AUTO

      800     5295    4                 START = 4;

   5295  1 003544   000004 236007                    LDQ     4,DL
         1 003545   200162 756100                    STQ     START,,AUTO

      801     5296    4                 LEN = 4;

   5296  1 003546   200163 756100                    STQ     LEN,,AUTO

      802     5297    4               END;

      803     5298    3              CALL DFR$BINHEX( ADDRESS, TEXT_HEX, L_ZEROS );

   5298  1 003547   200106 631500                    EPPR1   L_ZEROS,,AUTO
         1 003550   200212 451500                    STP1    V+20,,AUTO
         1 003551   200102 633500                    EPPR3   TEXT_HEX,,AUTO
         1 003552   200211 453500                    STP3    V+19,,AUTO
         1 003553   200121 634500                    EPPR4   ADDRESS,,AUTO
         1 003554   200210 454500                    STP4    V+18,,AUTO
         1 003555   200210 630500                    EPPR0   V+18,,AUTO
         1 003556   000021 631400 xsym               EPPR1   B_VECTNIL+17
         1 003557   000000 701000 xent               TSX1    DFR$BINHEX
         1 003560   000000 011000                    NOP     0

      804     5299    3              IF TAB

   5299  1 003561   200111 234100                    SZN     TAB,,AUTO
         1 003562   003570 605000 1                  TPL     s:5304

      805     5300    4              THEN DO;

PL6.E3A0      #001=DFR$INSTR File=DFR$INSTR.:E05TSI                              TUE 07/29/97 14:41 Page:146
      806     5301    4                   S_D.L6_TAB = '1'B;

   5301  1 003563   400000 236003                    LDQ     -131072,DU
         1 003564   000000 470400 xsym               LDP0    S_D$
         1 003565   006734 756100                    STQ     3548,,PR0

      807     5302    4                   S_D.L6_TAB_VALUE = ADDRESS;

   5302  1 003566   200121 235100                    LDA     ADDRESS,,AUTO
         1 003567   006735 755100                    STA     3549,,PR0

      808     5303    4                 END;

      809     5304    3              CALL INSERT( DECODED_TEXT, 0,, '.', SUBSTR( TEXT_HEX, START, LEN ) ,
              5304                       ',IMO' );

   5304  1 003570   056000 236003                    LDQ     23552,DU
         1 003571   200060 552140                    STBQ    DECODED_TEXT,'40'O,AUTO
         1 003572   200163 720100                    LXL0    LEN,,AUTO
         1 003573   200162 235100                    LDA     START,,AUTO
         1 003574   040100 100545                    MLR     fill='040'O
         1 003575   200102 000010                    ADSC9   TEXT_HEX,A,AUTO          cn=0,n=*X0
         1 003576   200060 200077                    ADSC9   DECODED_TEXT,,AUTO       cn=1,n=63
         1 003577   200163 236100                    LDQ     LEN,,AUTO
         1 003600   000077 116007                    CMPQ    63,DL
         1 003601   003607 603000 1                  TRC     s:5306
         1 003602   777700 621006                    EAX1    -64,QL
         1 003603   777777 661003                    ERX1    -1,DU
         1 003604   040146 100400                    MLR     fill='040'O
         1 003605   000073 000004 0                  ADSC9   SPREL+19                 cn=0,n=4
         1 003606   200060 200011                    ADSC9   DECODED_TEXT,Q,AUTO      cn=1,n=*X1

      810     5305                                                                                    /**/
      811     5306    3              INDEX_FLAG = '1'B;

   5306  1 003607   400000 236003                    LDQ     -131072,DU
         1 003610   200057 756100                    STQ     INDEX_FLAG,,AUTO
PL6.E3A0      #001=DFR$INSTR File=DFR$INSTR.:E05TSI                              TUE 07/29/97 14:41 Page:147

      812     5307    4              IF I_O_INSTR_FLAG THEN DO;   /* Special case for I_O instr.        */

   5307  1 003611   200100 234100                    SZN     I_O_INSTR_FLAG,,AUTO
         1 003612   005616 605000 1                  TPL     s:5622

      813     5308    4                 CALL INDEX( POSITION, ',', DECODED_TEXT ); /* Extract 'IMO' off */

   5308  1 003613   000000 124500                    SCM     mask='000'O
         1 003614   200060 000100                    ADSC9   DECODED_TEXT,,AUTO       cn=0,n=64
         1 003615   000020 000001 2                  ADSC9   16                       cn=0,n=1
         1 003616   200161 000100                    ARG     POSITION,,AUTO

      814     5309    4                 DECODED_TEXT = SUBSTR( DECODED_TEXT, 0, POSITION );

   5309  1 003617   200161 721100                    LXL1    POSITION,,AUTO
         1 003620   040100 100540                    MLR     fill='040'O
         1 003621   200060 000011                    ADSC9   DECODED_TEXT,,AUTO       cn=0,n=*X1
         1 003622   200060 000100                    ADSC9   DECODED_TEXT,,AUTO       cn=0,n=64

      815     5310    4                 END;

   5310  1 003623   005616 710000 1                  TRA     s:5622

      816     5311                                                                                    /**/
      817     5312    3            CASE ( 120 );                  /* M=7, @=1, N=0  interrupt vector    */

      818     5313    3              R_ADDRESS.LOW_ORDER_BITS = INSTR_ARRAY(1);

   5313  1 003624   200046 236100                    LDQ     INSTR_ARRAY,,AUTO
         1 003625   000004 772000                    QRL     4
         1 003626   200121 676100                    ERQ     ADDRESS,,AUTO
         1 003627   177777 376007                    ANQ     65535,DL
         1 003630   200121 656100                    ERSQ    ADDRESS,,AUTO

      819     5314    3             CALL DFR$BINHEX( ADDRESS, TEXT_HEX, L_ZEROS );

PL6.E3A0      #001=DFR$INSTR File=DFR$INSTR.:E05TSI                              TUE 07/29/97 14:41 Page:148
   5314  1 003631   200106 631500                    EPPR1   L_ZEROS,,AUTO
         1 003632   200212 451500                    STP1    V+20,,AUTO
         1 003633   200102 633500                    EPPR3   TEXT_HEX,,AUTO
         1 003634   200211 453500                    STP3    V+19,,AUTO
         1 003635   200121 634500                    EPPR4   ADDRESS,,AUTO
         1 003636   200210 454500                    STP4    V+18,,AUTO
         1 003637   200210 630500                    EPPR0   V+18,,AUTO
         1 003640   000021 631400 xsym               EPPR1   B_VECTNIL+17
         1 003641   000000 701000 xent               TSX1    DFR$BINHEX
         1 003642   000000 011000                    NOP     0

      820     5315    3              IF TAB

   5315  1 003643   200111 234100                    SZN     TAB,,AUTO
         1 003644   003652 605000 1                  TPL     s:5320

      821     5316    4              THEN DO;

      822     5317    4                   S_D.L6_TAB = '1'B;

   5317  1 003645   400000 236003                    LDQ     -131072,DU
         1 003646   000000 470400 xsym               LDP0    S_D$
         1 003647   006734 756100                    STQ     3548,,PR0

      823     5318    4                   S_D.L6_TAB_VALUE = ADDRESS;

   5318  1 003650   200121 235100                    LDA     ADDRESS,,AUTO
         1 003651   006735 755100                    STA     3549,,PR0

      824     5319    4                 END;

      825     5320    3             CALL INSERT( SYM_TEXT, 0,, '.', SUBSTR( TEXT_HEX, L_ZEROS, 8-L_ZEROS ),
              5320                      ',$IV' );

   5320  1 003652   056000 236003                    LDQ     23552,DU
         1 003653   200124 552140                    STBQ    SYM_TEXT,'40'O,AUTO
         1 003654   000010 220003                    LDX0    8,DU
PL6.E3A0      #001=DFR$INSTR File=DFR$INSTR.:E05TSI                              TUE 07/29/97 14:41 Page:149
         1 003655   200106 120100                    SBLX0   L_ZEROS,,AUTO
         1 003656   200106 235100                    LDA     L_ZEROS,,AUTO
         1 003657   000022 771000                    ARL     18
         1 003660   040100 100545                    MLR     fill='040'O
         1 003661   200102 000010                    ADSC9   TEXT_HEX,A,AUTO          cn=0,n=*X0
         1 003662   200124 200077                    ADSC9   SYM_TEXT,,AUTO           cn=1,n=63
         1 003663   200106 236100                    LDQ     L_ZEROS,,AUTO
         1 003664   000022 772000                    QRL     18
         1 003665   003670 604000 1                  TMI     s:5320+14
         1 003666   000021 116000 2                  CMPQ    17
         1 003667   003676 604000 1                  TMI     s:5322
         1 003670   000067 621006                    EAX1    55,QL
         1 003671   000027 675000 xsym               ERA     B_VECTNIL+23
         1 003672   000001 035007                    ADLA    1,DL
         1 003673   040145 100400                    MLR     fill='040'O
         1 003674   000105 000004 0                  ADSC9   SPREL+29                 cn=0,n=4
         1 003675   200126 200011                    ADSC9   TEMP_TEXT+1,A,AUTO       cn=1,n=*X1

      826     5321                                                                                    /**/
      827     5322    3              DECODED_TEXT = SYM_TEXT;

   5322  1 003676   040100 100500                    MLR     fill='040'O
         1 003677   200124 000100                    ADSC9   SYM_TEXT,,AUTO           cn=0,n=64
         1 003700   200060 000100                    ADSC9   DECODED_TEXT,,AUTO       cn=0,n=64

      828     5323    3              RASSED_INSTR.WORDS_USED = 2;

   5323  1 003701   000002 235007                    LDA     2,DL
         1 003702   200034 755100                    STA     RASSED_INSTR+21,,AUTO

      829     5324    3              INDEX_FLAG = '1'B;

   5324  1 003703   400000 236003                    LDQ     -131072,DU
         1 003704   200057 756100                    STQ     INDEX_FLAG,,AUTO
         1 003705   005616 710000 1                  TRA     s:5622

      830     5325                                                                                    /**/
PL6.E3A0      #001=DFR$INSTR File=DFR$INSTR.:E05TSI                              TUE 07/29/97 14:41 Page:150
      831     5326    3            CASE ( 64 );                   /* M=4, @=0, N=0  relative direct     */

      832     5327    3              SIGNED_16BITS = INSTR_ARRAY(1);

   5327  1 003706   200046 236100                    LDQ     INSTR_ARRAY,,AUTO
         1 003707   000004 772000                    QRL     4
         1 003710   177777 376007                    ANQ     65535,DL
         1 003711   000024 736000                    QLS     20
         1 003712   200147 756100                    STQ     SIGNED_16BITS,,AUTO

      833     5328    3              DISPLACEMENT = SIGNED_16BITS;

   5328  1 003713   200147 236100                    LDQ     SIGNED_16BITS,,AUTO
         1 003714   000024 732000                    QRS     20
         1 003715   200122 756100                    STQ     DISPLACEMENT,,AUTO

      834     5329    4              IF SIGNED_16BITS < 0 THEN DO;

   5329  1 003716   200147 236100                    LDQ     SIGNED_16BITS,,AUTO
         1 003717   777774 376003                    ANQ     -4,DU
         1 003720   000000 116003                    CMPQ    0,DU
         1 003721   003737 605000 1                  TPL     s:5334

      835     5330    4                 T_SIGNED_16BITS = SIGNED_16BITS;

   5330  1 003722   200147 236100                    LDQ     SIGNED_16BITS,,AUTO
         1 003723   000024 732000                    QRS     20
         1 003724   000024 736000                    QLS     20
         1 003725   200150 756100                    STQ     T_SIGNED_16BITS,,AUTO

      836     5331    4                 T_SIGNED_16BITS = -T_SIGNED_16BITS;

   5331  1 003726   200150 236100                    LDQ     T_SIGNED_16BITS,,AUTO
         1 003727   000024 732000                    QRS     20
         1 003730   000027 676000 xsym               ERQ     B_VECTNIL+23
         1 003731   000001 036007                    ADLQ    1,DL
         1 003732   000024 736000                    QLS     20
PL6.E3A0      #001=DFR$INSTR File=DFR$INSTR.:E05TSI                              TUE 07/29/97 14:41 Page:151
         1 003733   200150 756100                    STQ     T_SIGNED_16BITS,,AUTO

      837     5332    4                 DISPLACEMENT = T_SIGNED_16BITS;

   5332  1 003734   200150 236100                    LDQ     T_SIGNED_16BITS,,AUTO
         1 003735   000024 732000                    QRS     20
         1 003736   200122 756100                    STQ     DISPLACEMENT,,AUTO

      838     5333    4                 END;

      839     5334    3              IF SIGNED_16BITS > 0 THEN DISPLACEMENT = DISPLACEMENT + 1 ;

   5334  1 003737   200147 236100                    LDQ     SIGNED_16BITS,,AUTO
         1 003740   777774 376003                    ANQ     -4,DU
         1 003741   000000 116003                    CMPQ    0,DU
         1 003742   003747 604400 1                  TMOZ    s:5336

   5334  1 003743   200122 235100                    LDA     DISPLACEMENT,,AUTO
         1 003744   000001 035007                    ADLA    1,DL
         1 003745   200122 755100                    STA     DISPLACEMENT,,AUTO
         1 003746   003752 710000 1                  TRA     s:5337

      840     5335    3              ELSE
      841     5336    3                 DISPLACEMENT = DISPLACEMENT - 1;

   5336  1 003747   200122 235100                    LDA     DISPLACEMENT,,AUTO
         1 003750   000001 135007                    SBLA    1,DL
         1 003751   200122 755100                    STA     DISPLACEMENT,,AUTO

      842     5337    3              CALL DFR$BINHEX( DISPLACEMENT, TEXT_HEX, L_ZEROS );

   5337  1 003752   200106 631500                    EPPR1   L_ZEROS,,AUTO
         1 003753   200212 451500                    STP1    V+20,,AUTO
         1 003754   200102 633500                    EPPR3   TEXT_HEX,,AUTO
         1 003755   200211 453500                    STP3    V+19,,AUTO
         1 003756   200122 634500                    EPPR4   DISPLACEMENT,,AUTO
         1 003757   200210 454500                    STP4    V+18,,AUTO
PL6.E3A0      #001=DFR$INSTR File=DFR$INSTR.:E05TSI                              TUE 07/29/97 14:41 Page:152
         1 003760   200210 630500                    EPPR0   V+18,,AUTO
         1 003761   000021 631400 xsym               EPPR1   B_VECTNIL+17
         1 003762   000000 701000 xent               TSX1    DFR$BINHEX
         1 003763   000000 011000                    NOP     0

      843     5338    3              IF TAB

   5338  1 003764   200111 234100                    SZN     TAB,,AUTO
         1 003765   004004 605000 1                  TPL     s:5345

      844     5339    4              THEN DO;

      845     5340    4                   S_D.L6_TAB = '1'B;

   5340  1 003766   400000 236003                    LDQ     -131072,DU
         1 003767   000000 470400 xsym               LDP0    S_D$
         1 003770   006734 756100                    STQ     3548,,PR0

      846     5341    4                   IF SIGNED_16BITS < 0

   5341  1 003771   200147 236100                    LDQ     SIGNED_16BITS,,AUTO
         1 003772   777774 376003                    ANQ     -4,DU
         1 003773   000000 116003                    CMPQ    0,DU
         1 003774   004001 605000 1                  TPL     s:5343

      847     5342    4                   THEN S_D.L6_TAB_VALUE = S_D.O$.ADDRESS - DISPLACEMENT;

   5342  1 003775   000132 236100                    LDQ     90,,PR0
         1 003776   200122 136100                    SBLQ    DISPLACEMENT,,AUTO
         1 003777   006735 756100                    STQ     3549,,PR0
         1 004000   004004 710000 1                  TRA     s:5345

      848     5343    4                   ELSE S_D.L6_TAB_VALUE = S_D.O$.ADDRESS + DISPLACEMENT;

   5343  1 004001   000132 236100                    LDQ     90,,PR0
         1 004002   200122 036100                    ADLQ    DISPLACEMENT,,AUTO
         1 004003   006735 756100                    STQ     3549,,PR0
PL6.E3A0      #001=DFR$INSTR File=DFR$INSTR.:E05TSI                              TUE 07/29/97 14:41 Page:153

      849     5344    4                 END;

      850     5345    3              CALL INDEX( POSITION, ' ', DECODED_TEXT );

   5345  1 004004   000000 124500                    SCM     mask='000'O
         1 004005   200060 000100                    ADSC9   DECODED_TEXT,,AUTO       cn=0,n=64
         1 004006   000035 000001 xsym               ADSC9   B_VECTNIL+29             cn=0,n=1
         1 004007   200161 000100                    ARG     POSITION,,AUTO

      851     5346    3              IF SIGNED_16BITS < -1 THEN CALL INSERT( DECODED_TEXT, POSITION,, '$O-.',
              5346                       SUBSTR( TEXT_HEX, L_ZEROS, 8-L_ZEROS ), PREL );

   5346  1 004010   200147 236100                    LDQ     SIGNED_16BITS,,AUTO
         1 004011   777774 376003                    ANQ     -4,DU
         1 004012   777774 116003                    CMPQ    -4,DU
         1 004013   004060 605000 1                  TPL     s:5347

   5346  1 004014   200161 720100                    LXL0    POSITION,,AUTO
         1 004015   777677 620010                    EAX0    -65,X0
         1 004016   777777 660003                    ERX0    -1,DU
         1 004017   200161 235100                    LDA     POSITION,,AUTO
         1 004020   040145 100400                    MLR     fill='040'O
         1 004021   000057 000004 0                  ADSC9   SPREL+7                  cn=0,n=4
         1 004022   200060 000010                    ADSC9   DECODED_TEXT,A,AUTO      cn=0,n=*X0
         1 004023   200161 236100                    LDQ     POSITION,,AUTO
         1 004024   000074 116007                    CMPQ    60,DL
         1 004025   004057 603000 1                  TRC     s:5346+39
         1 004026   000010 221003                    LDX1    8,DU
         1 004027   200106 121100                    SBLX1   L_ZEROS,,AUTO
         1 004030   777703 622006                    EAX2    -61,QL
         1 004031   777777 662003                    ERX2    -1,DU
         1 004032   200106 235100                    LDA     L_ZEROS,,AUTO
         1 004033   000022 771000                    ARL     18
         1 004034   040146 100545                    MLR     fill='040'O
         1 004035   200102 000011                    ADSC9   TEXT_HEX,A,AUTO          cn=0,n=*X1
         1 004036   200061 000012                    ADSC9   DECODED_TEXT+1,Q,AUTO    cn=0,n=*X2
PL6.E3A0      #001=DFR$INSTR File=DFR$INSTR.:E05TSI                              TUE 07/29/97 14:41 Page:154
         1 004037   200106 236100                    LDQ     L_ZEROS,,AUTO
         1 004040   000022 772000                    QRL     18
         1 004041   200161 136100                    SBLQ    POSITION,,AUTO
         1 004042   000022 116000 2                  CMPQ    18
         1 004043   004057 604400 1                  TMOZ    s:5346+39
         1 004044   200106 235100                    LDA     L_ZEROS,,AUTO
         1 004045   000022 771000                    ARL     18
         1 004046   200210 755100                    STA     V+18,,AUTO
         1 004047   200211 756100                    STQ     V+19,,AUTO
         1 004050   200161 236100                    LDQ     POSITION,,AUTO
         1 004051   200210 136100                    SBLQ    V+18,,AUTO
         1 004052   200211 721100                    LXL1    V+19,,AUTO
         1 004053   000064 623011                    EAX3    52,X1
         1 004054   040146 100400                    MLR     fill='040'O
         1 004055   000020 000006 0                  ADSC9   PREL                     cn=0,n=6
         1 004056   200063 000013                    ADSC9   DECODED_TEXT+3,Q,AUTO    cn=0,n=*X3
         1 004057   004147 710000 1                  TRA     s:5349

      852     5347    3              ELSE IF SIGNED_16BITS = -1 THEN CALL INSERT( DECODED_TEXT, POSITION,,
              5347                       '$O', PREL );

   5347  1 004060   200147 236100                    LDQ     SIGNED_16BITS,,AUTO
         1 004061   777774 376003                    ANQ     -4,DU
         1 004062   777774 116003                    CMPQ    -4,DU
         1 004063   004104 601000 1                  TNZ     s:5348

   5347  1 004064   200161 720100                    LXL0    POSITION,,AUTO
         1 004065   777677 620010                    EAX0    -65,X0
         1 004066   777777 660003                    ERX0    -1,DU
         1 004067   200161 235100                    LDA     POSITION,,AUTO
         1 004070   040145 100400                    MLR     fill='040'O
         1 004071   000057 000002 0                  ADSC9   SPREL+7                  cn=0,n=2
         1 004072   200060 000010                    ADSC9   DECODED_TEXT,A,AUTO      cn=0,n=*X0
         1 004073   200161 236100                    LDQ     POSITION,,AUTO
         1 004074   000076 116007                    CMPQ    62,DL
         1 004075   004103 603000 1                  TRC     s:5347+19
         1 004076   777701 621006                    EAX1    -63,QL
PL6.E3A0      #001=DFR$INSTR File=DFR$INSTR.:E05TSI                              TUE 07/29/97 14:41 Page:155
         1 004077   777777 661003                    ERX1    -1,DU
         1 004100   040146 100400                    MLR     fill='040'O
         1 004101   000020 000006 0                  ADSC9   PREL                     cn=0,n=6
         1 004102   200060 400011                    ADSC9   DECODED_TEXT,Q,AUTO      cn=2,n=*X1
         1 004103   004147 710000 1                  TRA     s:5349

      853     5348    3                  ELSE CALL INSERT( DECODED_TEXT, POSITION,, '$O+.', SUBSTR( TEXT_HEX,
              5348                            L_ZEROS, 8-L_ZEROS ), PREL );

   5348  1 004104   200161 720100                    LXL0    POSITION,,AUTO
         1 004105   777677 620010                    EAX0    -65,X0
         1 004106   777777 660003                    ERX0    -1,DU
         1 004107   200161 235100                    LDA     POSITION,,AUTO
         1 004110   040145 100400                    MLR     fill='040'O
         1 004111   000060 000004 0                  ADSC9   SPREL+8                  cn=0,n=4
         1 004112   200060 000010                    ADSC9   DECODED_TEXT,A,AUTO      cn=0,n=*X0
         1 004113   200161 236100                    LDQ     POSITION,,AUTO
         1 004114   000074 116007                    CMPQ    60,DL
         1 004115   004147 603000 1                  TRC     s:5349
         1 004116   000010 221003                    LDX1    8,DU
         1 004117   200106 121100                    SBLX1   L_ZEROS,,AUTO
         1 004120   777703 622006                    EAX2    -61,QL
         1 004121   777777 662003                    ERX2    -1,DU
         1 004122   200106 235100                    LDA     L_ZEROS,,AUTO
         1 004123   000022 771000                    ARL     18
         1 004124   040146 100545                    MLR     fill='040'O
         1 004125   200102 000011                    ADSC9   TEXT_HEX,A,AUTO          cn=0,n=*X1
         1 004126   200061 000012                    ADSC9   DECODED_TEXT+1,Q,AUTO    cn=0,n=*X2
         1 004127   200106 236100                    LDQ     L_ZEROS,,AUTO
         1 004130   000022 772000                    QRL     18
         1 004131   200161 136100                    SBLQ    POSITION,,AUTO
         1 004132   000022 116000 2                  CMPQ    18
         1 004133   004147 604400 1                  TMOZ    s:5349
         1 004134   200106 235100                    LDA     L_ZEROS,,AUTO
         1 004135   000022 771000                    ARL     18
         1 004136   200210 755100                    STA     V+18,,AUTO
         1 004137   200211 756100                    STQ     V+19,,AUTO
PL6.E3A0      #001=DFR$INSTR File=DFR$INSTR.:E05TSI                              TUE 07/29/97 14:41 Page:156
         1 004140   200161 236100                    LDQ     POSITION,,AUTO
         1 004141   200210 136100                    SBLQ    V+18,,AUTO
         1 004142   200211 721100                    LXL1    V+19,,AUTO
         1 004143   000064 623011                    EAX3    52,X1
         1 004144   040146 100400                    MLR     fill='040'O
         1 004145   000020 000006 0                  ADSC9   PREL                     cn=0,n=6
         1 004146   200063 000013                    ADSC9   DECODED_TEXT+3,Q,AUTO    cn=0,n=*X3

      854     5349    3              CALL INDEX( RASSED_INSTR.COUNT, '^', DECODED_TEXT );

   5349  1 004147   000000 124500                    SCM     mask='000'O
         1 004150   200060 000100                    ADSC9   DECODED_TEXT,,AUTO       cn=0,n=64
         1 004151   000000 000001 2                  ADSC9   0                        cn=0,n=1
         1 004152   200007 000100                    ARG     RASSED_INSTR,,AUTO

      855     5350    3              RASSED_INSTR.WORDS_USED = 2;

   5350  1 004153   000002 235007                    LDA     2,DL
         1 004154   200034 755100                    STA     RASSED_INSTR+21,,AUTO

      856     5351    3              INDEX_FLAG = '1'B;

   5351  1 004155   400000 236003                    LDQ     -131072,DU
         1 004156   200057 756100                    STQ     INDEX_FLAG,,AUTO
         1 004157   005616 710000 1                  TRA     s:5622

      857     5352                                                                                    /**/
      858     5353    3            CASE ( 72 );                   /* M=4, @=1, N=0  relative indirect   */

      859     5354    3              R_ADDRESS.LOW_ORDER_BITS = INSTR_ARRAY(1);

   5354  1 004160   200046 236100                    LDQ     INSTR_ARRAY,,AUTO
         1 004161   000004 772000                    QRL     4
         1 004162   200121 676100                    ERQ     ADDRESS,,AUTO
         1 004163   177777 376007                    ANQ     65535,DL
         1 004164   200121 656100                    ERSQ    ADDRESS,,AUTO

PL6.E3A0      #001=DFR$INSTR File=DFR$INSTR.:E05TSI                              TUE 07/29/97 14:41 Page:157
      860     5355    3              SIGNED_VALUE = ADDRESS;

   5355  1 004165   200121 235100                    LDA     ADDRESS,,AUTO
         1 004166   000024 735000                    ALS     20
         1 004167   200146 755100                    STA     SIGNED_VALUE,,AUTO

      861     5356    4              IF SIGNED_VALUE < 0 THEN DO;

   5356  1 004170   200146 236100                    LDQ     SIGNED_VALUE,,AUTO
         1 004171   777774 376003                    ANQ     -4,DU
         1 004172   000000 116003                    CMPQ    0,DU
         1 004173   004211 605000 1                  TPL     s:5361

      862     5357    4                 T_SIGNED_VALUE = SIGNED_VALUE;

   5357  1 004174   200146 236100                    LDQ     SIGNED_VALUE,,AUTO
         1 004175   000024 732000                    QRS     20
         1 004176   000024 736000                    QLS     20
         1 004177   200151 756100                    STQ     T_SIGNED_VALUE,,AUTO

      863     5358    4                 T_SIGNED_VALUE = -T_SIGNED_VALUE;

   5358  1 004200   200151 236100                    LDQ     T_SIGNED_VALUE,,AUTO
         1 004201   000024 732000                    QRS     20
         1 004202   000027 676000 xsym               ERQ     B_VECTNIL+23
         1 004203   000001 036007                    ADLQ    1,DL
         1 004204   000024 736000                    QLS     20
         1 004205   200151 756100                    STQ     T_SIGNED_VALUE,,AUTO

      864     5359    4                 ADDRESS = T_SIGNED_VALUE;

   5359  1 004206   200151 236100                    LDQ     T_SIGNED_VALUE,,AUTO
         1 004207   000024 732000                    QRS     20
         1 004210   200121 756100                    STQ     ADDRESS,,AUTO

      865     5360    4                 END;

PL6.E3A0      #001=DFR$INSTR File=DFR$INSTR.:E05TSI                              TUE 07/29/97 14:41 Page:158
      866     5361    3              IF SIGNED_VALUE > 0 THEN ADDRESS = ADDRESS + 1 ;

   5361  1 004211   200146 236100                    LDQ     SIGNED_VALUE,,AUTO
         1 004212   777774 376003                    ANQ     -4,DU
         1 004213   000000 116003                    CMPQ    0,DU
         1 004214   004221 604400 1                  TMOZ    s:5363

   5361  1 004215   200121 236100                    LDQ     ADDRESS,,AUTO
         1 004216   000001 036007                    ADLQ    1,DL
         1 004217   200121 756100                    STQ     ADDRESS,,AUTO
         1 004220   004224 710000 1                  TRA     s:5364

      867     5362    3              ELSE
      868     5363    3                 ADDRESS = ADDRESS - 1;

   5363  1 004221   200121 236100                    LDQ     ADDRESS,,AUTO
         1 004222   000001 136007                    SBLQ    1,DL
         1 004223   200121 756100                    STQ     ADDRESS,,AUTO

      869     5364    3              CALL DFR$BINHEX( ADDRESS, TEXT_HEX, L_ZEROS );

   5364  1 004224   200106 631500                    EPPR1   L_ZEROS,,AUTO
         1 004225   200212 451500                    STP1    V+20,,AUTO
         1 004226   200102 633500                    EPPR3   TEXT_HEX,,AUTO
         1 004227   200211 453500                    STP3    V+19,,AUTO
         1 004230   200121 634500                    EPPR4   ADDRESS,,AUTO
         1 004231   200210 454500                    STP4    V+18,,AUTO
         1 004232   200210 630500                    EPPR0   V+18,,AUTO
         1 004233   000021 631400 xsym               EPPR1   B_VECTNIL+17
         1 004234   000000 701000 xent               TSX1    DFR$BINHEX
         1 004235   000000 011000                    NOP     0

      870     5365    3              IF TAB

   5365  1 004236   200111 234100                    SZN     TAB,,AUTO
         1 004237   004256 605000 1                  TPL     s:5372

PL6.E3A0      #001=DFR$INSTR File=DFR$INSTR.:E05TSI                              TUE 07/29/97 14:41 Page:159
      871     5366    4              THEN DO;

      872     5367    4                   S_D.L6_TAB = '1'B;

   5367  1 004240   400000 236003                    LDQ     -131072,DU
         1 004241   000000 470400 xsym               LDP0    S_D$
         1 004242   006734 756100                    STQ     3548,,PR0

      873     5368    4                   IF SIGNED_VALUE < 0

   5368  1 004243   200146 236100                    LDQ     SIGNED_VALUE,,AUTO
         1 004244   777774 376003                    ANQ     -4,DU
         1 004245   000000 116003                    CMPQ    0,DU
         1 004246   004253 605000 1                  TPL     s:5370

      874     5369    4                   THEN S_D.L6_TAB_VALUE = S_D.O$.ADDRESS - ADDRESS;

   5369  1 004247   000132 236100                    LDQ     90,,PR0
         1 004250   200121 136100                    SBLQ    ADDRESS,,AUTO
         1 004251   006735 756100                    STQ     3549,,PR0
         1 004252   004256 710000 1                  TRA     s:5372

      875     5370    4                   ELSE S_D.L6_TAB_VALUE = S_D.O$.ADDRESS + ADDRESS;

   5370  1 004253   000132 236100                    LDQ     90,,PR0
         1 004254   200121 036100                    ADLQ    ADDRESS,,AUTO
         1 004255   006735 756100                    STQ     3549,,PR0

      876     5371    4                 END;

      877     5372    3              CALL INDEX( POSITION, ' ', DECODED_TEXT );

   5372  1 004256   000000 124500                    SCM     mask='000'O
         1 004257   200060 000100                    ADSC9   DECODED_TEXT,,AUTO       cn=0,n=64
         1 004260   000035 000001 xsym               ADSC9   B_VECTNIL+29             cn=0,n=1
         1 004261   200161 000100                    ARG     POSITION,,AUTO

PL6.E3A0      #001=DFR$INSTR File=DFR$INSTR.:E05TSI                              TUE 07/29/97 14:41 Page:160
      878     5373    3              IF SIGNED_VALUE < -1 THEN CALL INSERT( DECODED_TEXT, POSITION,, '$O-.',
              5373                       SUBSTR( TEXT_HEX, L_ZEROS, 8-L_ZEROS ), PREL );

   5373  1 004262   200146 236100                    LDQ     SIGNED_VALUE,,AUTO
         1 004263   777774 376003                    ANQ     -4,DU
         1 004264   777774 116003                    CMPQ    -4,DU
         1 004265   004332 605000 1                  TPL     s:5374

   5373  1 004266   200161 720100                    LXL0    POSITION,,AUTO
         1 004267   777677 620010                    EAX0    -65,X0
         1 004270   777777 660003                    ERX0    -1,DU
         1 004271   200161 235100                    LDA     POSITION,,AUTO
         1 004272   040145 100400                    MLR     fill='040'O
         1 004273   000057 000004 0                  ADSC9   SPREL+7                  cn=0,n=4
         1 004274   200060 000010                    ADSC9   DECODED_TEXT,A,AUTO      cn=0,n=*X0
         1 004275   200161 236100                    LDQ     POSITION,,AUTO
         1 004276   000074 116007                    CMPQ    60,DL
         1 004277   004331 603000 1                  TRC     s:5373+39
         1 004300   000010 221003                    LDX1    8,DU
         1 004301   200106 121100                    SBLX1   L_ZEROS,,AUTO
         1 004302   777703 622006                    EAX2    -61,QL
         1 004303   777777 662003                    ERX2    -1,DU
         1 004304   200106 235100                    LDA     L_ZEROS,,AUTO
         1 004305   000022 771000                    ARL     18
         1 004306   040146 100545                    MLR     fill='040'O
         1 004307   200102 000011                    ADSC9   TEXT_HEX,A,AUTO          cn=0,n=*X1
         1 004310   200061 000012                    ADSC9   DECODED_TEXT+1,Q,AUTO    cn=0,n=*X2
         1 004311   200106 236100                    LDQ     L_ZEROS,,AUTO
         1 004312   000022 772000                    QRL     18
         1 004313   200161 136100                    SBLQ    POSITION,,AUTO
         1 004314   000022 116000 2                  CMPQ    18
         1 004315   004331 604400 1                  TMOZ    s:5373+39
         1 004316   200106 235100                    LDA     L_ZEROS,,AUTO
         1 004317   000022 771000                    ARL     18
         1 004320   200210 755100                    STA     V+18,,AUTO
         1 004321   200211 756100                    STQ     V+19,,AUTO
         1 004322   200161 236100                    LDQ     POSITION,,AUTO
PL6.E3A0      #001=DFR$INSTR File=DFR$INSTR.:E05TSI                              TUE 07/29/97 14:41 Page:161
         1 004323   200210 136100                    SBLQ    V+18,,AUTO
         1 004324   200211 721100                    LXL1    V+19,,AUTO
         1 004325   000064 623011                    EAX3    52,X1
         1 004326   040146 100400                    MLR     fill='040'O
         1 004327   000020 000006 0                  ADSC9   PREL                     cn=0,n=6
         1 004330   200063 000013                    ADSC9   DECODED_TEXT+3,Q,AUTO    cn=0,n=*X3
         1 004331   004421 710000 1                  TRA     s:5376

      879     5374    3             ELSE IF SIGNED_VALUE = -1 THEN CALL INSERT( DECODED_TEXT, POSITION,, '$O'
              5374                       , PREL );

   5374  1 004332   200146 236100                    LDQ     SIGNED_VALUE,,AUTO
         1 004333   777774 376003                    ANQ     -4,DU
         1 004334   777774 116003                    CMPQ    -4,DU
         1 004335   004356 601000 1                  TNZ     s:5375

   5374  1 004336   200161 720100                    LXL0    POSITION,,AUTO
         1 004337   777677 620010                    EAX0    -65,X0
         1 004340   777777 660003                    ERX0    -1,DU
         1 004341   200161 235100                    LDA     POSITION,,AUTO
         1 004342   040145 100400                    MLR     fill='040'O
         1 004343   000057 000002 0                  ADSC9   SPREL+7                  cn=0,n=2
         1 004344   200060 000010                    ADSC9   DECODED_TEXT,A,AUTO      cn=0,n=*X0
         1 004345   200161 236100                    LDQ     POSITION,,AUTO
         1 004346   000076 116007                    CMPQ    62,DL
         1 004347   004355 603000 1                  TRC     s:5374+19
         1 004350   777701 621006                    EAX1    -63,QL
         1 004351   777777 661003                    ERX1    -1,DU
         1 004352   040146 100400                    MLR     fill='040'O
         1 004353   000020 000006 0                  ADSC9   PREL                     cn=0,n=6
         1 004354   200060 400011                    ADSC9   DECODED_TEXT,Q,AUTO      cn=2,n=*X1
         1 004355   004421 710000 1                  TRA     s:5376

      880     5375    3                  ELSE CALL INSERT( DECODED_TEXT, POSITION,, '$O+.', SUBSTR( TEXT_HEX,
              5375                            L_ZEROS, 8-L_ZEROS ), PREL );

   5375  1 004356   200161 720100                    LXL0    POSITION,,AUTO
PL6.E3A0      #001=DFR$INSTR File=DFR$INSTR.:E05TSI                              TUE 07/29/97 14:41 Page:162
         1 004357   777677 620010                    EAX0    -65,X0
         1 004360   777777 660003                    ERX0    -1,DU
         1 004361   200161 235100                    LDA     POSITION,,AUTO
         1 004362   040145 100400                    MLR     fill='040'O
         1 004363   000060 000004 0                  ADSC9   SPREL+8                  cn=0,n=4
         1 004364   200060 000010                    ADSC9   DECODED_TEXT,A,AUTO      cn=0,n=*X0
         1 004365   200161 236100                    LDQ     POSITION,,AUTO
         1 004366   000074 116007                    CMPQ    60,DL
         1 004367   004421 603000 1                  TRC     s:5376
         1 004370   000010 221003                    LDX1    8,DU
         1 004371   200106 121100                    SBLX1   L_ZEROS,,AUTO
         1 004372   777703 622006                    EAX2    -61,QL
         1 004373   777777 662003                    ERX2    -1,DU
         1 004374   200106 235100                    LDA     L_ZEROS,,AUTO
         1 004375   000022 771000                    ARL     18
         1 004376   040146 100545                    MLR     fill='040'O
         1 004377   200102 000011                    ADSC9   TEXT_HEX,A,AUTO          cn=0,n=*X1
         1 004400   200061 000012                    ADSC9   DECODED_TEXT+1,Q,AUTO    cn=0,n=*X2
         1 004401   200106 236100                    LDQ     L_ZEROS,,AUTO
         1 004402   000022 772000                    QRL     18
         1 004403   200161 136100                    SBLQ    POSITION,,AUTO
         1 004404   000022 116000 2                  CMPQ    18
         1 004405   004421 604400 1                  TMOZ    s:5376
         1 004406   200106 235100                    LDA     L_ZEROS,,AUTO
         1 004407   000022 771000                    ARL     18
         1 004410   200210 755100                    STA     V+18,,AUTO
         1 004411   200211 756100                    STQ     V+19,,AUTO
         1 004412   200161 236100                    LDQ     POSITION,,AUTO
         1 004413   200210 136100                    SBLQ    V+18,,AUTO
         1 004414   200211 721100                    LXL1    V+19,,AUTO
         1 004415   000064 623011                    EAX3    52,X1
         1 004416   040146 100400                    MLR     fill='040'O
         1 004417   000020 000006 0                  ADSC9   PREL                     cn=0,n=6
         1 004420   200063 000013                    ADSC9   DECODED_TEXT+3,Q,AUTO    cn=0,n=*X3

      881     5376    3              CALL INDEX( RASSED_INSTR.COUNT, '^', DECODED_TEXT );

PL6.E3A0      #001=DFR$INSTR File=DFR$INSTR.:E05TSI                              TUE 07/29/97 14:41 Page:163
   5376  1 004421   000000 124500                    SCM     mask='000'O
         1 004422   200060 000100                    ADSC9   DECODED_TEXT,,AUTO       cn=0,n=64
         1 004423   000000 000001 2                  ADSC9   0                        cn=0,n=1
         1 004424   200007 000100                    ARG     RASSED_INSTR,,AUTO

      882     5377    3              RASSED_INSTR.WORDS_USED = 2;

   5377  1 004425   000002 235007                    LDA     2,DL
         1 004426   200034 755100                    STA     RASSED_INSTR+21,,AUTO

      883     5378    3              INDEX_FLAG = '1'B;

   5378  1 004427   400000 236003                    LDQ     -131072,DU
         1 004430   200057 756100                    STQ     INDEX_FLAG,,AUTO
         1 004431   005616 710000 1                  TRA     s:5622

      884     5379                                                                                    /**/
      885     5380    3            CASE ( 81,                     /* M=5, @=0, N=1                      */

      886     5381    3                82,                        /* M=5, @=0, N=2                      */
      887     5382    3                83,                        /* M=5, @=0, N=3                      */
      888     5383    3                84,                        /* M=5, @=0, N=4 b, r, or s register  */
      889     5384    3                85,                        /* M=5, @=0, N=5                      */
      890     5385    3                86,                        /* M=5, @=0, N=6                      */
      891     5386    3                87 );                      /* M=5, @=0, N=7                      */
      892     5387    4   REGISTER:  DO CASE ( INSTRUCTION_TYPE(INSTRUCTION.INDEXX) );

   5387  1 004432   200056 236100       REGISTER     LDQ     INSTR,,AUTO
         1 004433   000033 772000                    QRL     27
         1 004434   000000 235006 xsym               LDA     INSTRUCTION_TYPE,QL
         1 004435   000041 135007                    SBLA    33,DL
         1 004436   000005 115007                    CMPA    5,DL
         1 004437   004441 602005 1                  TNC     REGISTER+7,AL
         1 004440   004503 710000 1                  TRA     s:5399
         1 004441   004446 710000 1                  TRA     s:5390
         1 004442   004456 710000 1                  TRA     s:5393
         1 004443   004503 710000 1                  TRA     s:5399
PL6.E3A0      #001=DFR$INSTR File=DFR$INSTR.:E05TSI                              TUE 07/29/97 14:41 Page:164
         1 004444   004503 710000 1                  TRA     s:5399
         1 004445   004473 710000 1                  TRA     s:5397

      893     5388                                                                                    /**/
      894     5389    4               CASE ( 33 );

      895     5390    4                 DECODED_TEXT = OP_B_REGS(ADDR_SYL.FRAME.N_FIELD);

   5390  1 004446   200056 236100                    LDQ     INSTR,,AUTO
         1 004447   000024 772000                    QRL     20
         1 004450   000007 376007                    ANQ     7,DL
         1 004451   000001 736000                    QLS     1
         1 004452   040100 100406                    MLR     fill='040'O
         1 004453   000042 000002 0                  ADSC9   OP_B_REGS,Q              cn=0,n=2
         1 004454   200060 000100                    ADSC9   DECODED_TEXT,,AUTO       cn=0,n=64
         1 004455   004512 710000 1                  TRA     s:5402

      896     5391                                                                                    /**/
      897     5392    4               CASE ( 34 );

      898     5393    4                 IF ADDR_SYL.FRAME.N_FIELD > 4 THEN ALTRETURN;

   5393  1 004456   200056 236100                    LDQ     INSTR,,AUTO
         1 004457   000034 376003                    ANQ     28,DU
         1 004460   000024 116003                    CMPQ    20,DU
         1 004461   004463 602000 1                  TNC     s:5394

   5393  1 004462   000000 702211                    TSX2  ! 0,X1

      899     5394    4                 ELSE DECODED_TEXT = SCI_REGS(ADDR_SYL.FRAME.N_FIELD);

   5394  1 004463   200056 236100                    LDQ     INSTR,,AUTO
         1 004464   000024 772000                    QRL     20
         1 004465   000007 376007                    ANQ     7,DL
         1 004466   000001 736000                    QLS     1
         1 004467   040100 100406                    MLR     fill='040'O
         1 004470   000046 000002 0                  ADSC9   SCI_REGS,Q               cn=0,n=2
PL6.E3A0      #001=DFR$INSTR File=DFR$INSTR.:E05TSI                              TUE 07/29/97 14:41 Page:165
         1 004471   200060 000100                    ADSC9   DECODED_TEXT,,AUTO       cn=0,n=64
         1 004472   004512 710000 1                  TRA     s:5402

      900     5395                                                                                    /**/
      901     5396    4               CASE ( 37 );

      902     5397    4                 DECODED_TEXT = OP_B_REGS(ADDR_SYL.FRAME.N_FIELD);

   5397  1 004473   200056 236100                    LDQ     INSTR,,AUTO
         1 004474   000024 772000                    QRL     20
         1 004475   000007 376007                    ANQ     7,DL
         1 004476   000001 736000                    QLS     1
         1 004477   040100 100406                    MLR     fill='040'O
         1 004500   000042 000002 0                  ADSC9   OP_B_REGS,Q              cn=0,n=2
         1 004501   200060 000100                    ADSC9   DECODED_TEXT,,AUTO       cn=0,n=64
         1 004502   004512 710000 1                  TRA     s:5402

      903     5398    4               CASE ( ELSE );

      904     5399    4                 DECODED_TEXT = OP_R_REGS(ADDR_SYL.FRAME.N_FIELD);

   5399  1 004503   200056 236100                    LDQ     INSTR,,AUTO
         1 004504   000024 772000                    QRL     20
         1 004505   000007 376007                    ANQ     7,DL
         1 004506   000001 736000                    QLS     1
         1 004507   040100 100406                    MLR     fill='040'O
         1 004510   000036 000002 0                  ADSC9   OP_R_REGS,Q              cn=0,n=2
         1 004511   200060 000100                    ADSC9   DECODED_TEXT,,AUTO       cn=0,n=64

      905     5400                                                                                    /**/
      906     5401    4               END REGISTER;

      907     5402    3              RASSED_INSTR.WORDS_USED = 1;

   5402  1 004512   000001 235007                    LDA     1,DL
         1 004513   200034 755100                    STA     RASSED_INSTR+21,,AUTO

PL6.E3A0      #001=DFR$INSTR File=DFR$INSTR.:E05TSI                              TUE 07/29/97 14:41 Page:166
      908     5403    3              INDEX_FLAG = '1'B;

   5403  1 004514   400000 236003                    LDQ     -131072,DU
         1 004515   200057 756100                    STQ     INDEX_FLAG,,AUTO
         1 004516   005616 710000 1                  TRA     s:5622

      909     5404                                                                                    /**/
      910     5405    3            CASE ( 1,                      /* M=0, @=0, N=1                      */

      911     5406    3                2,                         /* M=0, @=0, N=2                      */
      912     5407    3                3,                         /* M=0, @=0, N=3                      */
      913     5408    3                4,                    /* M=0, @=0, N=4 direct off b register     */
      914     5409    3                5,                         /* M=0, @=0, N=5                      */
      915     5410    3                6,                         /* M=0, @=0, N=6                      */
      916     5411    3                7 );                       /* M=0, @=0, N=7                      */
      917     5412    3              DECODED_TEXT = B_REGISTERS(ADDR_SYL.FRAME.N_FIELD);

   5412  1 004517   200056 236100                    LDQ     INSTR,,AUTO
         1 004520   000024 772000                    QRL     20
         1 004521   000007 376007                    ANQ     7,DL
         1 004522   000003 402007                    MPY     3,DL
         1 004523   040100 100406                    MLR     fill='040'O
         1 004524   000030 000003 0                  ADSC9   B_REGISTERS,Q            cn=0,n=3
         1 004525   200060 000100                    ADSC9   DECODED_TEXT,,AUTO       cn=0,n=64

      918     5413    3              RASSED_INSTR.WORDS_USED = 1;

   5413  1 004526   000001 235007                    LDA     1,DL
         1 004527   200034 755100                    STA     RASSED_INSTR+21,,AUTO

      919     5414    3              INDEX_FLAG = '1'B;

   5414  1 004530   400000 236003                    LDQ     -131072,DU
         1 004531   200057 756100                    STQ     INDEX_FLAG,,AUTO

      920     5415    4            IF TAB THEN DO;

PL6.E3A0      #001=DFR$INSTR File=DFR$INSTR.:E05TSI                              TUE 07/29/97 14:41 Page:167
   5415  1 004532   200111 234100                    SZN     TAB,,AUTO
         1 004533   004537 605000 1                  TPL     s:5419

      921     5416    4               S_D.L6_TAB = '1'B;

   5416  1 004534   000000 471400 xsym               LDP1    S_D$
         1 004535   106734 756100                    STQ     3548,,PR1

      922     5417    4               S_D.L6_TAB_VALUE = 0;

   5417  1 004536   106735 450100                    STZ     3549,,PR1

      923     5418    4               END;

      924     5419    3              B_INDEXED = '1'B;

   5419  1 004537   200164 756100                    STQ     B_INDEXED,,AUTO
         1 004540   005616 710000 1                  TRA     s:5622

      925     5420                                                                                    /**/
      926     5421    3            CASE ( 9,                      /* M=0, @=1, N=1                      */

      927     5422    3                10,                        /* M=0, @=1, N=2                      */
      928     5423    3                11,                        /* M=0, @=1, N=3                      */
      929     5424    3                12,                   /* M=0, @=1, N=4 indirect off b register   */
      930     5425    3                13,                        /* M=0, @=1, N=5                      */
      931     5426    3                14,                        /* M=0, @=1, N=6                      */
      932     5427    3                15 );                      /* M=0, @=1, N=7                      */
      933     5428    3             CALL INSERT( DECODED_TEXT, 0,, '*', B_REGISTERS(ADDR_SYL.FRAME.N_FIELD) )
              5428                       ;

   5428  1 004541   200056 236100                    LDQ     INSTR,,AUTO
         1 004542   000024 772000                    QRL     20
         1 004543   000007 376007                    ANQ     7,DL
         1 004544   000003 402007                    MPY     3,DL
         1 004545   200210 756100                    STQ     V+18,,AUTO
         1 004546   052000 236003                    LDQ     21504,DU
PL6.E3A0      #001=DFR$INSTR File=DFR$INSTR.:E05TSI                              TUE 07/29/97 14:41 Page:168
         1 004547   200060 552140                    STBQ    DECODED_TEXT,'40'O,AUTO
         1 004550   200210 235100                    LDA     V+18,,AUTO
         1 004551   040100 100405                    MLR     fill='040'O
         1 004552   000030 000003 0                  ADSC9   B_REGISTERS,A            cn=0,n=3
         1 004553   200060 200077                    ADSC9   DECODED_TEXT,,AUTO       cn=1,n=63

      934     5429    3              RASSED_INSTR.WORDS_USED = 1;

   5429  1 004554   000001 235007                    LDA     1,DL
         1 004555   200034 755100                    STA     RASSED_INSTR+21,,AUTO

      935     5430    3              INDEX_FLAG = '1'B;

   5430  1 004556   400000 236003                    LDQ     -131072,DU
         1 004557   200057 756100                    STQ     INDEX_FLAG,,AUTO
         1 004560   005616 710000 1                  TRA     s:5622

      936     5431                                                                                    /**/
      937     5432    3            CASE ( 16,                     /* M=1, @=0, N=0                      */

      938     5433    3                32,                        /* M=2, @=0, N=0                      */
      939     5434    3                48 );                      /* M=4, @=0, N=0  direct indexed by r */
      940     5435    3              R_ADDRESS.HIGH_ORDER_BITS = INSTR_ARRAY(1);

   5435  1 004561   200046 236100                    LDQ     INSTR_ARRAY,,AUTO
         1 004562   000014 736000                    QLS     12
         1 004563   200121 676100                    ERQ     ADDRESS,,AUTO
         1 004564   000002 376000 2                  ANQ     2
         1 004565   200121 656100                    ERSQ    ADDRESS,,AUTO

      941     5436    3              R_ADDRESS.LOW_ORDER_BITS = INSTR_ARRAY(2);

   5436  1 004566   200046 235100                    LDA     INSTR_ARRAY,,AUTO
         1 004567   200047 236100                    LDQ     INSTR_ARRAY+1,,AUTO
         1 004570   000030 773000                    LRL     24
         1 004571   177777 376007                    ANQ     65535,DL
         1 004572   200121 676100                    ERQ     ADDRESS,,AUTO
PL6.E3A0      #001=DFR$INSTR File=DFR$INSTR.:E05TSI                              TUE 07/29/97 14:41 Page:169
         1 004573   177777 376007                    ANQ     65535,DL
         1 004574   200121 656100                    ERSQ    ADDRESS,,AUTO

      942     5437    3              CALL DDR$POSIT( ADDRESS, SYM_BUF$, 64, SYM_LEN );

   5437  1 004575   200144 631500                    EPPR1   SYM_LEN,,AUTO
         1 004576   200213 451500                    STP1    V+21,,AUTO
         1 004577   000004 236000 2                  LDQ     4
         1 004600   200212 756100                    STQ     V+20,,AUTO
         1 004601   200123 633500                    EPPR3   SYM_BUF$,,AUTO
         1 004602   200211 453500                    STP3    V+19,,AUTO
         1 004603   200121 634500                    EPPR4   ADDRESS,,AUTO
         1 004604   200210 454500                    STP4    V+18,,AUTO
         1 004605   200210 630500                    EPPR0   V+18,,AUTO
         1 004606   000022 631400 xsym               EPPR1   B_VECTNIL+18
         1 004607   000000 701000 xent               TSX1    DDR$POSIT
         1 004610   000000 011000                    NOP     0

      943     5438    3              IF TAB

   5438  1 004611   200111 234100                    SZN     TAB,,AUTO
         1 004612   004620 605000 1                  TPL     s:5443

      944     5439    4              THEN DO;

      945     5440    4                   S_D.L6_TAB = '1'B;

   5440  1 004613   400000 236003                    LDQ     -131072,DU
         1 004614   000000 470400 xsym               LDP0    S_D$
         1 004615   006734 756100                    STQ     3548,,PR0

      946     5441    4                   S_D.L6_TAB_VALUE = ADDRESS;

   5441  1 004616   200121 235100                    LDA     ADDRESS,,AUTO
         1 004617   006735 755100                    STA     3549,,PR0

      947     5442    4                 END;
PL6.E3A0      #001=DFR$INSTR File=DFR$INSTR.:E05TSI                              TUE 07/29/97 14:41 Page:170

      948     5443    3              IF SYM_LEN > 0 THEN

   5443  1 004620   200144 235100                    LDA     SYM_LEN,,AUTO
         1 004621   004636 600000 1                  TZE     s:5446

      949     5444    3                CALL INSERT( SYM_TEXT, SYM_LEN,, R_REGISTERS(ADDR_SYL.FRAME.M_FIELD) )
              5444                          ;

   5444  1 004622   200056 236100                    LDQ     INSTR,,AUTO
         1 004623   000030 772000                    QRL     24
         1 004624   000007 376007                    ANQ     7,DL
         1 004625   000003 402007                    MPY     3,DL
         1 004626   200144 720100                    LXL0    SYM_LEN,,AUTO
         1 004627   777677 620010                    EAX0    -65,X0
         1 004630   777777 660003                    ERX0    -1,DU
         1 004631   200144 235100                    LDA     SYM_LEN,,AUTO
         1 004632   040145 100406                    MLR     fill='040'O
         1 004633   000022 000003 0                  ADSC9   R_REGISTERS,Q            cn=0,n=3
         1 004634   200124 000010                    ADSC9   SYM_TEXT,A,AUTO          cn=0,n=*X0
         1 004635   004726 710000 1                  TRA     s:5457

      950     5445    4              ELSE DO;                     /* DDR$POSIT did' nt find a match    */

      951     5446    4                 CALL DFR$BINHEX( ADDRESS, TEXT_HEX, L_ZEROS );

   5446  1 004636   200106 630500                    EPPR0   L_ZEROS,,AUTO
         1 004637   200212 450500                    STP0    V+20,,AUTO
         1 004640   200102 631500                    EPPR1   TEXT_HEX,,AUTO
         1 004641   200211 451500                    STP1    V+19,,AUTO
         1 004642   200121 633500                    EPPR3   ADDRESS,,AUTO
         1 004643   200210 453500                    STP3    V+18,,AUTO
         1 004644   200210 630500                    EPPR0   V+18,,AUTO
         1 004645   000021 631400 xsym               EPPR1   B_VECTNIL+17
         1 004646   000000 701000 xent               TSX1    DFR$BINHEX
         1 004647   000000 011000                    NOP     0

PL6.E3A0      #001=DFR$INSTR File=DFR$INSTR.:E05TSI                              TUE 07/29/97 14:41 Page:171
      952     5447    4                  IF TAB

   5447  1 004650   200111 234100                    SZN     TAB,,AUTO
         1 004651   004657 605000 1                  TPL     s:5452

      953     5448    5                  THEN DO;

      954     5449    5                      S_D.L6_TAB = '1'B;

   5449  1 004652   400000 236003                    LDQ     -131072,DU
         1 004653   000000 470400 xsym               LDP0    S_D$
         1 004654   006734 756100                    STQ     3548,,PR0

      955     5450    5                      S_D.L6_TAB_VALUE = ADDRESS;

   5450  1 004655   200121 235100                    LDA     ADDRESS,,AUTO
         1 004656   006735 755100                    STA     3549,,PR0

      956     5451    5                    END;

      957     5452    4                 IF L_ZEROS = 8 THEN CALL INSERT( SYM_TEXT,,, '.0', R_REGISTERS(
              5452                          ADDR_SYL.FRAME.M_FIELD) );

   5452  1 004657   200106 220100                    LDX0    L_ZEROS,,AUTO
         1 004660   000010 100003                    CMPX0   8,DU
         1 004661   004674 601000 1                  TNZ     s:5454

   5452  1 004662   200056 236100                    LDQ     INSTR,,AUTO
         1 004663   000030 772000                    QRL     24
         1 004664   000007 376007                    ANQ     7,DL
         1 004665   000003 402007                    MPY     3,DL
         1 004666   000056 221000 0                  LDX1    SPREL+6
         1 004667   200124 741100                    STX1    SYM_TEXT,,AUTO
         1 004670   040100 100406                    MLR     fill='040'O
         1 004671   000022 000003 0                  ADSC9   R_REGISTERS,Q            cn=0,n=3
         1 004672   200124 400076                    ADSC9   SYM_TEXT,,AUTO           cn=2,n=62
         1 004673   004726 710000 1                  TRA     s:5457
PL6.E3A0      #001=DFR$INSTR File=DFR$INSTR.:E05TSI                              TUE 07/29/97 14:41 Page:172

      958     5453    4                 ELSE
      959     5454    4                    CALL INSERT( SYM_TEXT, 0,, '.', SUBSTR( TEXT_HEX, L_ZEROS, 8-
              5454                             L_ZEROS ), R_REGISTERS(ADDR_SYL.FRAME.M_FIELD) );

   5454  1 004674   200056 236100                    LDQ     INSTR,,AUTO
         1 004675   000030 772000                    QRL     24
         1 004676   000007 376007                    ANQ     7,DL
         1 004677   000003 402007                    MPY     3,DL
         1 004700   200210 756100                    STQ     V+18,,AUTO
         1 004701   056000 236003                    LDQ     23552,DU
         1 004702   200124 552140                    STBQ    SYM_TEXT,'40'O,AUTO
         1 004703   777767 620010                    EAX0    -9,X0
         1 004704   777777 660003                    ERX0    -1,DU
         1 004705   200106 235100                    LDA     L_ZEROS,,AUTO
         1 004706   000022 771000                    ARL     18
         1 004707   040100 100545                    MLR     fill='040'O
         1 004710   200102 000010                    ADSC9   TEXT_HEX,A,AUTO          cn=0,n=*X0
         1 004711   200124 200077                    ADSC9   SYM_TEXT,,AUTO           cn=1,n=63
         1 004712   200106 236100                    LDQ     L_ZEROS,,AUTO
         1 004713   000022 772000                    QRL     18
         1 004714   004717 604000 1                  TMI     s:5454+19
         1 004715   000021 116000 2                  CMPQ    17
         1 004716   004726 604000 1                  TMI     s:5457
         1 004717   000067 621006                    EAX1    55,QL
         1 004720   000027 675000 xsym               ERA     B_VECTNIL+23
         1 004721   000001 035007                    ADLA    1,DL
         1 004722   200210 236100                    LDQ     V+18,,AUTO
         1 004723   040145 100406                    MLR     fill='040'O
         1 004724   000022 000003 0                  ADSC9   R_REGISTERS,Q            cn=0,n=3
         1 004725   200126 200011                    ADSC9   TEMP_TEXT+1,A,AUTO       cn=1,n=*X1

      960     5455    4                 END;

      961     5456                                                                                    /**/
      962     5457    3              DECODED_TEXT = SYM_TEXT;

PL6.E3A0      #001=DFR$INSTR File=DFR$INSTR.:E05TSI                              TUE 07/29/97 14:41 Page:173
   5457  1 004726   040100 100500                    MLR     fill='040'O
         1 004727   200124 000100                    ADSC9   SYM_TEXT,,AUTO           cn=0,n=64
         1 004730   200060 000100                    ADSC9   DECODED_TEXT,,AUTO       cn=0,n=64

      963     5458    3              RASSED_INSTR.WORDS_USED = 3;

   5458  1 004731   000003 235007                    LDA     3,DL
         1 004732   200034 755100                    STA     RASSED_INSTR+21,,AUTO
         1 004733   005616 710000 1                  TRA     s:5622

      964     5459                                                                                    /**/
      965     5460    3            CASE ( 24,                     /* M=1, @=1, N=0                      */

      966     5461    3                40,                   /* M=2, @=1, N=0 indirect indexed by r     */
      967     5462    3                56 );                      /* M=4, @=1, N=0                      */
      968     5463    3              R_ADDRESS.HIGH_ORDER_BITS = INSTR_ARRAY(1);

   5463  1 004734   200046 236100                    LDQ     INSTR_ARRAY,,AUTO
         1 004735   000014 736000                    QLS     12
         1 004736   200121 676100                    ERQ     ADDRESS,,AUTO
         1 004737   000002 376000 2                  ANQ     2
         1 004740   200121 656100                    ERSQ    ADDRESS,,AUTO

      969     5464    3              R_ADDRESS.LOW_ORDER_BITS = INSTR_ARRAY(2);

   5464  1 004741   200046 235100                    LDA     INSTR_ARRAY,,AUTO
         1 004742   200047 236100                    LDQ     INSTR_ARRAY+1,,AUTO
         1 004743   000030 773000                    LRL     24
         1 004744   177777 376007                    ANQ     65535,DL
         1 004745   200121 676100                    ERQ     ADDRESS,,AUTO
         1 004746   177777 376007                    ANQ     65535,DL
         1 004747   200121 656100                    ERSQ    ADDRESS,,AUTO

      970     5465    3              CALL DDR$POSIT( ADDRESS, SYM_BUF$, 64, SYM_LEN );

   5465  1 004750   200144 631500                    EPPR1   SYM_LEN,,AUTO
         1 004751   200213 451500                    STP1    V+21,,AUTO
PL6.E3A0      #001=DFR$INSTR File=DFR$INSTR.:E05TSI                              TUE 07/29/97 14:41 Page:174
         1 004752   000004 236000 2                  LDQ     4
         1 004753   200212 756100                    STQ     V+20,,AUTO
         1 004754   200123 633500                    EPPR3   SYM_BUF$,,AUTO
         1 004755   200211 453500                    STP3    V+19,,AUTO
         1 004756   200121 634500                    EPPR4   ADDRESS,,AUTO
         1 004757   200210 454500                    STP4    V+18,,AUTO
         1 004760   200210 630500                    EPPR0   V+18,,AUTO
         1 004761   000022 631400 xsym               EPPR1   B_VECTNIL+18
         1 004762   000000 701000 xent               TSX1    DDR$POSIT
         1 004763   000000 011000                    NOP     0

      971     5466    3              IF SYM_LEN > 0 THEN

   5466  1 004764   200144 235100                    LDA     SYM_LEN,,AUTO
         1 004765   005002 600000 1                  TZE     s:5469

      972     5467    3                CALL INSERT( SYM_TEXT, SYM_LEN,, R_REGISTERS(ADDR_SYL.FRAME.M_FIELD) )
              5467                          ;

   5467  1 004766   200056 236100                    LDQ     INSTR,,AUTO
         1 004767   000030 772000                    QRL     24
         1 004770   000007 376007                    ANQ     7,DL
         1 004771   000003 402007                    MPY     3,DL
         1 004772   200144 720100                    LXL0    SYM_LEN,,AUTO
         1 004773   777677 620010                    EAX0    -65,X0
         1 004774   777777 660003                    ERX0    -1,DU
         1 004775   200144 235100                    LDA     SYM_LEN,,AUTO
         1 004776   040145 100406                    MLR     fill='040'O
         1 004777   000022 000003 0                  ADSC9   R_REGISTERS,Q            cn=0,n=3
         1 005000   200124 000010                    ADSC9   SYM_TEXT,A,AUTO          cn=0,n=*X0
         1 005001   005063 710000 1                  TRA     s:5475

      973     5468    4              ELSE DO;

      974     5469    4                 CALL DFR$BINHEX( ADDRESS, TEXT_HEX, L_ZEROS );

   5469  1 005002   200106 630500                    EPPR0   L_ZEROS,,AUTO
PL6.E3A0      #001=DFR$INSTR File=DFR$INSTR.:E05TSI                              TUE 07/29/97 14:41 Page:175
         1 005003   200212 450500                    STP0    V+20,,AUTO
         1 005004   200102 631500                    EPPR1   TEXT_HEX,,AUTO
         1 005005   200211 451500                    STP1    V+19,,AUTO
         1 005006   200121 633500                    EPPR3   ADDRESS,,AUTO
         1 005007   200210 453500                    STP3    V+18,,AUTO
         1 005010   200210 630500                    EPPR0   V+18,,AUTO
         1 005011   000021 631400 xsym               EPPR1   B_VECTNIL+17
         1 005012   000000 701000 xent               TSX1    DFR$BINHEX
         1 005013   000000 011000                    NOP     0

      975     5470    4                 IF L_ZEROS = 8 THEN CALL INSERT( SYM_TEXT,,, '.0', R_REGISTERS(
              5470                          ADDR_SYL.FRAME.M_FIELD) );

   5470  1 005014   200106 220100                    LDX0    L_ZEROS,,AUTO
         1 005015   000010 100003                    CMPX0   8,DU
         1 005016   005031 601000 1                  TNZ     s:5472

   5470  1 005017   200056 236100                    LDQ     INSTR,,AUTO
         1 005020   000030 772000                    QRL     24
         1 005021   000007 376007                    ANQ     7,DL
         1 005022   000003 402007                    MPY     3,DL
         1 005023   000056 221000 0                  LDX1    SPREL+6
         1 005024   200124 741100                    STX1    SYM_TEXT,,AUTO
         1 005025   040100 100406                    MLR     fill='040'O
         1 005026   000022 000003 0                  ADSC9   R_REGISTERS,Q            cn=0,n=3
         1 005027   200124 400076                    ADSC9   SYM_TEXT,,AUTO           cn=2,n=62
         1 005030   005063 710000 1                  TRA     s:5475

      976     5471    4                 ELSE
      977     5472    4                    CALL INSERT( SYM_TEXT, 0,, '.', SUBSTR( TEXT_HEX, L_ZEROS, 8-
              5472                             L_ZEROS ), R_REGISTERS(ADDR_SYL.FRAME.M_FIELD) );

   5472  1 005031   200056 236100                    LDQ     INSTR,,AUTO
         1 005032   000030 772000                    QRL     24
         1 005033   000007 376007                    ANQ     7,DL
         1 005034   000003 402007                    MPY     3,DL
         1 005035   200210 756100                    STQ     V+18,,AUTO
PL6.E3A0      #001=DFR$INSTR File=DFR$INSTR.:E05TSI                              TUE 07/29/97 14:41 Page:176
         1 005036   056000 236003                    LDQ     23552,DU
         1 005037   200124 552140                    STBQ    SYM_TEXT,'40'O,AUTO
         1 005040   777767 620010                    EAX0    -9,X0
         1 005041   777777 660003                    ERX0    -1,DU
         1 005042   200106 235100                    LDA     L_ZEROS,,AUTO
         1 005043   000022 771000                    ARL     18
         1 005044   040100 100545                    MLR     fill='040'O
         1 005045   200102 000010                    ADSC9   TEXT_HEX,A,AUTO          cn=0,n=*X0
         1 005046   200124 200077                    ADSC9   SYM_TEXT,,AUTO           cn=1,n=63
         1 005047   200106 236100                    LDQ     L_ZEROS,,AUTO
         1 005050   000022 772000                    QRL     18
         1 005051   005054 604000 1                  TMI     s:5472+19
         1 005052   000021 116000 2                  CMPQ    17
         1 005053   005063 604000 1                  TMI     s:5475
         1 005054   000067 621006                    EAX1    55,QL
         1 005055   000027 675000 xsym               ERA     B_VECTNIL+23
         1 005056   000001 035007                    ADLA    1,DL
         1 005057   200210 236100                    LDQ     V+18,,AUTO
         1 005060   040145 100406                    MLR     fill='040'O
         1 005061   000022 000003 0                  ADSC9   R_REGISTERS,Q            cn=0,n=3
         1 005062   200126 200011                    ADSC9   TEMP_TEXT+1,A,AUTO       cn=1,n=*X1

      978     5473    4                 END;

      979     5474                                                                                    /**/
      980     5475    3              CALL CONCAT( DECODED_TEXT, '*', SYM_TEXT );

   5475  1 005063   052000 236003                    LDQ     21504,DU
         1 005064   200060 756100                    STQ     DECODED_TEXT,,AUTO
         1 005065   040100 100500                    MLR     fill='040'O
         1 005066   200124 000077                    ADSC9   SYM_TEXT,,AUTO           cn=0,n=63
         1 005067   200060 200077                    ADSC9   DECODED_TEXT,,AUTO       cn=1,n=63

      981     5476    3              RASSED_INSTR.WORDS_USED = 3;

   5476  1 005070   000003 235007                    LDA     3,DL
         1 005071   200034 755100                    STA     RASSED_INSTR+21,,AUTO
PL6.E3A0      #001=DFR$INSTR File=DFR$INSTR.:E05TSI                              TUE 07/29/97 14:41 Page:177
         1 005072   005616 710000 1                  TRA     s:5622

      982     5477                                                                                    /**/
      983     5478    3            CASE ( 17,                     /* M=1, @=0, N=1                      */

      984     5479    3                18,                        /* M=1, @=0, N=2                      */
      985     5480    3                19,                        /* M=1, @=0, N=3                      */
      986     5481    3                20,                        /* M=1, @=0, N=4                      */
      987     5482    3                21,                        /* M=1, @=0, N=5                      */
      988     5483    3                22,                        /* M=1, @=0, N=6                      */
      989     5484    3                23,                        /* M=1, @=0, N=7                      */
      990     5485    3                33,                        /* M=2, @=0, N=1                      */
      991     5486    3                34,                        /* M=2, @=0, N=2                      */
      992     5487    3                35,                        /* M=2, @=0, N=3                      */
      993     5488    3                36,                        /* M=2, @=0, N=4 direct based indexed */
      994     5489    3                37,                        /* M=2, @=0, N=5                      */
      995     5490    3                38,                        /* M=2, @=0, N=6                      */
      996     5491    3                39,                        /* M=2, @=0, N=7                      */
      997     5492    3                49,                        /* M=4, @=0, N=1                      */
      998     5493    3                50,                        /* M=4, @=0, N=2                      */
      999     5494    3                51,                        /* M=4, @=0, N=3                      */
     1000     5495    3                52,                        /* M=4, @=0, N=4                      */
     1001     5496    3                53,                        /* M=4, @=0, N=5                      */
     1002     5497    3                54,                        /* M=4, @=0, N=6                      */
     1003     5498    3                55 );                      /* M=4, @=0, N=7                      */
     1004     5499    3              CALL INSERT( DECODED_TEXT, 0,, B_REGISTERS(ADDR_SYL.FRAME.N_FIELD),
              5499                       R_REGISTERS(ADDR_SYL.FRAME.M_FIELD) );

   5499  1 005073   200056 236100                    LDQ     INSTR,,AUTO
         1 005074   000024 772000                    QRL     20
         1 005075   000007 376007                    ANQ     7,DL
         1 005076   000003 402007                    MPY     3,DL
         1 005077   200210 756100                    STQ     V+18,,AUTO
         1 005100   200056 236100                    LDQ     INSTR,,AUTO
         1 005101   000030 772000                    QRL     24
         1 005102   000007 376007                    ANQ     7,DL
         1 005103   000003 402007                    MPY     3,DL
PL6.E3A0      #001=DFR$INSTR File=DFR$INSTR.:E05TSI                              TUE 07/29/97 14:41 Page:178
         1 005104   200210 235100                    LDA     V+18,,AUTO
         1 005105   040100 100405                    MLR     fill='040'O
         1 005106   000030 000003 0                  ADSC9   B_REGISTERS,A            cn=0,n=3
         1 005107   200060 000003                    ADSC9   DECODED_TEXT,,AUTO       cn=0,n=3
         1 005110   040100 100406                    MLR     fill='040'O
         1 005111   000022 000003 0                  ADSC9   R_REGISTERS,Q            cn=0,n=3
         1 005112   200060 600075                    ADSC9   DECODED_TEXT,,AUTO       cn=3,n=61

     1005     5500    3              RASSED_INSTR.WORDS_USED = 1;

   5500  1 005113   000001 235007                    LDA     1,DL
         1 005114   200034 755100                    STA     RASSED_INSTR+21,,AUTO
         1 005115   005616 710000 1                  TRA     s:5622

     1006     5501                                                                                    /**/
     1007     5502    3            CASE ( 25,                     /* M=1, @=1, N=1                      */

     1008     5503    3                26,                        /* M=1, @=1, N=2                      */
     1009     5504    3                27,                        /* M=1, @=1, N=3                      */
     1010     5505    3                28,                        /* M=1, @=1, N=4                      */
     1011     5506    3                29,                        /* M=1, @=1, N=5                      */
     1012     5507    3                30,                        /* M=1, @=1, N=6                      */
     1013     5508    3                31,                        /* M=1, @=1, N=7                      */
     1014     5509    3                41,                        /* M=2, @=1, N=1                      */
     1015     5510    3                42,                        /* M=2, @=1, N=2                      */
     1016     5511    3                43,                        /* M=2, @=1, N=3                      */
     1017     5512    3                44,                   /* M=2, @=1, N=4 indirect based indexed    */
     1018     5513    3                45,                        /* M=2, @=1, N=5                      */
     1019     5514    3                46,                        /* M=2, @=1, N=6                      */
     1020     5515    3                47,                        /* M=2, @=1, N=7                      */
     1021     5516    3                57,                        /* M=4, @=1, N=1                      */
     1022     5517    3                58,                        /* M=4, @=1, N=2                      */
     1023     5518    3                59,                        /* M=4, @=1, N=3                      */
     1024     5519    3                60,                        /* M=4, @=1, N=4                      */
     1025     5520    3                61,                        /* M=4, @=1, N=5                      */
     1026     5521    3                62,                        /* M=4, @=1, N=6                      */
     1027     5522    3                63 );                      /* M=4, @=1, N=7                      */
PL6.E3A0      #001=DFR$INSTR File=DFR$INSTR.:E05TSI                              TUE 07/29/97 14:41 Page:179
     1028     5523    3              CALL INSERT( DECODED_TEXT, 0,, '*', B_REGISTERS(ADDR_SYL.FRAME.N_FIELD),
              5523                       R_REGISTERS(ADDR_SYL.FRAME.M_FIELD) );

   5523  1 005116   200056 236100                    LDQ     INSTR,,AUTO
         1 005117   000024 772000                    QRL     20
         1 005120   000007 376007                    ANQ     7,DL
         1 005121   000003 402007                    MPY     3,DL
         1 005122   200210 756100                    STQ     V+18,,AUTO
         1 005123   200056 236100                    LDQ     INSTR,,AUTO
         1 005124   000030 772000                    QRL     24
         1 005125   000007 376007                    ANQ     7,DL
         1 005126   000003 402007                    MPY     3,DL
         1 005127   200211 756100                    STQ     V+19,,AUTO
         1 005130   052000 236003                    LDQ     21504,DU
         1 005131   200060 552140                    STBQ    DECODED_TEXT,'40'O,AUTO
         1 005132   200210 235100                    LDA     V+18,,AUTO
         1 005133   040100 100405                    MLR     fill='040'O
         1 005134   000030 000003 0                  ADSC9   B_REGISTERS,A            cn=0,n=3
         1 005135   200060 200003                    ADSC9   DECODED_TEXT,,AUTO       cn=1,n=3
         1 005136   200211 235100                    LDA     V+19,,AUTO
         1 005137   040100 100405                    MLR     fill='040'O
         1 005140   000022 000003 0                  ADSC9   R_REGISTERS,A            cn=0,n=3
         1 005141   200061 000074                    ADSC9   DECODED_TEXT+1,,AUTO     cn=0,n=60

     1029     5524    3              RASSED_INSTR.WORDS_USED = 1;

   5524  1 005142   000001 235007                    LDA     1,DL
         1 005143   200034 755100                    STA     RASSED_INSTR+21,,AUTO
         1 005144   005616 710000 1                  TRA     s:5622

     1030     5525                                                                                    /**/
     1031     5526    3            CASE ( 65,                     /* M=4, @=0, N=1                      */

     1032     5527    3                66,                        /* M=4, @=0, N=2                      */
     1033     5528    3                67,                        /* M=4, @=0, N=3                      */
     1034     5529    3                68,                        /* M=4, @=0, N=4 base relative direct */
     1035     5530    3                69,                        /* M=4, @=0, N=5                      */
PL6.E3A0      #001=DFR$INSTR File=DFR$INSTR.:E05TSI                              TUE 07/29/97 14:41 Page:180
     1036     5531    3                70,                        /* M=4, @=0, N=6                      */
     1037     5532    3                71 );                      /* M=4, @=0, N=7                      */
     1038     5533    3              R_ADDRESS.LOW_ORDER_BITS = INSTR_ARRAY(1);

   5533  1 005145   200046 236100                    LDQ     INSTR_ARRAY,,AUTO
         1 005146   000004 772000                    QRL     4
         1 005147   200121 676100                    ERQ     ADDRESS,,AUTO
         1 005150   177777 376007                    ANQ     65535,DL
         1 005151   200121 656100                    ERSQ    ADDRESS,,AUTO

     1039     5534    3              SIGNED_VALUE = ADDRESS;

   5534  1 005152   200121 235100                    LDA     ADDRESS,,AUTO
         1 005153   000024 735000                    ALS     20
         1 005154   200146 755100                    STA     SIGNED_VALUE,,AUTO

     1040     5535    4              IF SIGNED_VALUE < 0 THEN DO;

   5535  1 005155   200146 236100                    LDQ     SIGNED_VALUE,,AUTO
         1 005156   777774 376003                    ANQ     -4,DU
         1 005157   000000 116003                    CMPQ    0,DU
         1 005160   005176 605000 1                  TPL     s:5540

     1041     5536    4                 T_SIGNED_VALUE = SIGNED_VALUE;

   5536  1 005161   200146 236100                    LDQ     SIGNED_VALUE,,AUTO
         1 005162   000024 732000                    QRS     20
         1 005163   000024 736000                    QLS     20
         1 005164   200151 756100                    STQ     T_SIGNED_VALUE,,AUTO

     1042     5537    4                 T_SIGNED_VALUE = -T_SIGNED_VALUE;

   5537  1 005165   200151 236100                    LDQ     T_SIGNED_VALUE,,AUTO
         1 005166   000024 732000                    QRS     20
         1 005167   000027 676000 xsym               ERQ     B_VECTNIL+23
         1 005170   000001 036007                    ADLQ    1,DL
         1 005171   000024 736000                    QLS     20
PL6.E3A0      #001=DFR$INSTR File=DFR$INSTR.:E05TSI                              TUE 07/29/97 14:41 Page:181
         1 005172   200151 756100                    STQ     T_SIGNED_VALUE,,AUTO

     1043     5538    4                 ADDRESS = T_SIGNED_VALUE;

   5538  1 005173   200151 236100                    LDQ     T_SIGNED_VALUE,,AUTO
         1 005174   000024 732000                    QRS     20
         1 005175   200121 756100                    STQ     ADDRESS,,AUTO

     1044     5539    4                 END;

     1045     5540    3              CALL DFR$BINHEX( ADDRESS, TEXT_HEX, L_ZEROS );

   5540  1 005176   200106 631500                    EPPR1   L_ZEROS,,AUTO
         1 005177   200212 451500                    STP1    V+20,,AUTO
         1 005200   200102 633500                    EPPR3   TEXT_HEX,,AUTO
         1 005201   200211 453500                    STP3    V+19,,AUTO
         1 005202   200121 634500                    EPPR4   ADDRESS,,AUTO
         1 005203   200210 454500                    STP4    V+18,,AUTO
         1 005204   200210 630500                    EPPR0   V+18,,AUTO
         1 005205   000021 631400 xsym               EPPR1   B_VECTNIL+17
         1 005206   000000 701000 xent               TSX1    DFR$BINHEX
         1 005207   000000 011000                    NOP     0

     1046     5541    3              IF TAB

   5541  1 005210   200111 234100                    SZN     TAB,,AUTO
         1 005211   005217 605000 1                  TPL     BASE_REL_DIRECT

     1047     5542    4              THEN DO;

     1048     5543    4                   S_D.L6_TAB = '1'B;

   5543  1 005212   400000 236003                    LDQ     -131072,DU
         1 005213   000000 470400 xsym               LDP0    S_D$
         1 005214   006734 756100                    STQ     3548,,PR0

     1049     5544    4                   S_D.L6_TAB_VALUE = ADDRESS;
PL6.E3A0      #001=DFR$INSTR File=DFR$INSTR.:E05TSI                              TUE 07/29/97 14:41 Page:182

   5544  1 005215   200121 235100                    LDA     ADDRESS,,AUTO
         1 005216   006735 755100                    STA     3549,,PR0

     1050     5545    4                 END;

     1051     5546    4   BASE_REL_DIRECT: DO CASE( SIGNED_VALUE );

   5546  1 005217   200146 236100       BASE_REL_DI* LDQ     SIGNED_VALUE,,AUTO
         1 005220   000024 732000                    QRS     20
         1 005221   000001 116007                    CMPQ    1,DL
         1 005222   005224 602006 1                  TNC     BASE_REL_DIRECT+5,QL
         1 005223   005237 710000 1                  TRA     s:5551
         1 005224   005225 710000 1                  TRA     s:5548

     1052     5547    4               CASE( 0 );                  /* SIGNED_VALUE = 0                   */

     1053     5548    4                 CALL INSERT( DECODED_TEXT, 0,, '.0', B_REGISTERS(ADDR_SYL.FRAME.
              5548                          N_FIELD) );

   5548  1 005225   200056 236100                    LDQ     INSTR,,AUTO
         1 005226   000024 772000                    QRL     20
         1 005227   000007 376007                    ANQ     7,DL
         1 005230   000003 402007                    MPY     3,DL
         1 005231   000056 220000 0                  LDX0    SPREL+6
         1 005232   200060 740100                    STX0    DECODED_TEXT,,AUTO
         1 005233   040100 100406                    MLR     fill='040'O
         1 005234   000030 000003 0                  ADSC9   B_REGISTERS,Q            cn=0,n=3
         1 005235   200060 400076                    ADSC9   DECODED_TEXT,,AUTO       cn=2,n=62
         1 005236   005330 710000 1                  TRA     s:5557

     1054     5549                                                                                    /**/
     1055     5550    4               CASE ( ELSE );              /* SIGNED_VALUE is non zero )*/

     1056     5551    4                 IF SIGNED_VALUE > 0 THEN CALL INSERT( DECODED_TEXT, 0,, '.', SUBSTR(
              5551                          TEXT_HEX, L_ZEROS, 8-L_ZEROS ),

PL6.E3A0      #001=DFR$INSTR File=DFR$INSTR.:E05TSI                              TUE 07/29/97 14:41 Page:183
   5551  1 005237   200146 236100                    LDQ     SIGNED_VALUE,,AUTO
         1 005240   777774 376003                    ANQ     -4,DU
         1 005241   000000 116003                    CMPQ    0,DU
         1 005242   005276 604400 1                  TMOZ    s:5554

   5551  1 005243   200056 236100                    LDQ     INSTR,,AUTO
         1 005244   000024 772000                    QRL     20
         1 005245   000007 376007                    ANQ     7,DL
         1 005246   000003 402007                    MPY     3,DL
         1 005247   200210 756100                    STQ     V+18,,AUTO
         1 005250   056000 236003                    LDQ     23552,DU
         1 005251   200060 552140                    STBQ    DECODED_TEXT,'40'O,AUTO
         1 005252   000010 220003                    LDX0    8,DU
         1 005253   200106 120100                    SBLX0   L_ZEROS,,AUTO
         1 005254   200106 235100                    LDA     L_ZEROS,,AUTO
         1 005255   000022 771000                    ARL     18
         1 005256   040100 100545                    MLR     fill='040'O
         1 005257   200102 000010                    ADSC9   TEXT_HEX,A,AUTO          cn=0,n=*X0
         1 005260   200060 200077                    ADSC9   DECODED_TEXT,,AUTO       cn=1,n=63
         1 005261   200106 236100                    LDQ     L_ZEROS,,AUTO
         1 005262   000022 772000                    QRL     18
         1 005263   005266 604000 1                  TMI     s:5551+23
         1 005264   000021 116000 2                  CMPQ    17
         1 005265   005275 604000 1                  TMI     s:5551+30
         1 005266   000067 621006                    EAX1    55,QL
         1 005267   000027 675000 xsym               ERA     B_VECTNIL+23
         1 005270   000001 035007                    ADLA    1,DL
         1 005271   200210 236100                    LDQ     V+18,,AUTO
         1 005272   040145 100406                    MLR     fill='040'O
         1 005273   000030 000003 0                  ADSC9   B_REGISTERS,Q            cn=0,n=3
         1 005274   200062 200011                    ADSC9   DECODED_TEXT+2,A,AUTO    cn=1,n=*X1
         1 005275   005330 710000 1                  TRA     s:5557

     1057     5552    4                      B_REGISTERS(ADDR_SYL.FRAME.N_FIELD) );
     1058     5553                                                                                    /**/
     1059     5554    4                ELSE CALL INSERT( DECODED_TEXT, 0,, '-.', SUBSTR( TEXT_HEX, L_ZEROS, 8
              5554                          -L_ZEROS ) , B_REGISTERS(ADDR_SYL.FRAME.N_FIELD) );
PL6.E3A0      #001=DFR$INSTR File=DFR$INSTR.:E05TSI                              TUE 07/29/97 14:41 Page:184

   5554  1 005276   200056 236100                    LDQ     INSTR,,AUTO
         1 005277   000024 772000                    QRL     20
         1 005300   000007 376007                    ANQ     7,DL
         1 005301   000003 402007                    MPY     3,DL
         1 005302   000106 220000 0                  LDX0    SPREL+30
         1 005303   200060 740100                    STX0    DECODED_TEXT,,AUTO
         1 005304   000010 221003                    LDX1    8,DU
         1 005305   200106 121100                    SBLX1   L_ZEROS,,AUTO
         1 005306   200106 235100                    LDA     L_ZEROS,,AUTO
         1 005307   000022 771000                    ARL     18
         1 005310   040100 100545                    MLR     fill='040'O
         1 005311   200102 000011                    ADSC9   TEXT_HEX,A,AUTO          cn=0,n=*X1
         1 005312   200060 400076                    ADSC9   DECODED_TEXT,,AUTO       cn=2,n=62
         1 005313   200210 756100                    STQ     V+18,,AUTO
         1 005314   200106 236100                    LDQ     L_ZEROS,,AUTO
         1 005315   000022 772000                    QRL     18
         1 005316   005321 604000 1                  TMI     s:5554+19
         1 005317   000023 116000 2                  CMPQ    19
         1 005320   005330 604000 1                  TMI     s:5557
         1 005321   000066 622006                    EAX2    54,QL
         1 005322   000027 675000 xsym               ERA     B_VECTNIL+23
         1 005323   000001 035007                    ADLA    1,DL
         1 005324   200210 236100                    LDQ     V+18,,AUTO
         1 005325   040145 100406                    MLR     fill='040'O
         1 005326   000030 000003 0                  ADSC9   B_REGISTERS,Q            cn=0,n=3
         1 005327   200062 400012                    ADSC9   DECODED_TEXT+2,A,AUTO    cn=2,n=*X2

     1060     5555                                                                                    /**/
     1061     5556    4               END BASE_REL_DIRECT;

     1062     5557    3              RASSED_INSTR.WORDS_USED = 2;

   5557  1 005330   000002 235007                    LDA     2,DL
         1 005331   200034 755100                    STA     RASSED_INSTR+21,,AUTO

     1063     5558    3              INDEX_FLAG = '1'B;
PL6.E3A0      #001=DFR$INSTR File=DFR$INSTR.:E05TSI                              TUE 07/29/97 14:41 Page:185

   5558  1 005332   400000 236003                    LDQ     -131072,DU
         1 005333   200057 756100                    STQ     INDEX_FLAG,,AUTO

     1064     5559    3              B_INDEXED = '1'B;

   5559  1 005334   200164 756100                    STQ     B_INDEXED,,AUTO
         1 005335   005616 710000 1                  TRA     s:5622

     1065     5560    3            CASE ( 73,                     /* M=4, @=1, N=1                      */

     1066     5561    3                74,                        /* M=4, @=1, N=2                      */
     1067     5562    3                75,                        /* M=4, @=1, N=3                      */
     1068     5563    3                76,                   /* M=4, @=1, N=4  base relative indirect   */
     1069     5564    3                77,                        /* M=4, @=1, N=5                      */
     1070     5565    3                78,                        /* M=4, @=1, N=6                      */
     1071     5566    3                79 );                      /* M=4, @=1, N=7                      */
     1072     5567    3              R_ADDRESS.LOW_ORDER_BITS = INSTR_ARRAY(1);

   5567  1 005336   200046 236100                    LDQ     INSTR_ARRAY,,AUTO
         1 005337   000004 772000                    QRL     4
         1 005340   200121 676100                    ERQ     ADDRESS,,AUTO
         1 005341   177777 376007                    ANQ     65535,DL
         1 005342   200121 656100                    ERSQ    ADDRESS,,AUTO

     1073     5568    3              SIGNED_VALUE = ADDRESS;

   5568  1 005343   200121 235100                    LDA     ADDRESS,,AUTO
         1 005344   000024 735000                    ALS     20
         1 005345   200146 755100                    STA     SIGNED_VALUE,,AUTO

     1074     5569    4              IF SIGNED_VALUE < 0 THEN DO;

   5569  1 005346   200146 236100                    LDQ     SIGNED_VALUE,,AUTO
         1 005347   777774 376003                    ANQ     -4,DU
         1 005350   000000 116003                    CMPQ    0,DU
         1 005351   005367 605000 1                  TPL     s:5574
PL6.E3A0      #001=DFR$INSTR File=DFR$INSTR.:E05TSI                              TUE 07/29/97 14:41 Page:186

     1075     5570    4                 T_SIGNED_VALUE = SIGNED_VALUE;

   5570  1 005352   200146 236100                    LDQ     SIGNED_VALUE,,AUTO
         1 005353   000024 732000                    QRS     20
         1 005354   000024 736000                    QLS     20
         1 005355   200151 756100                    STQ     T_SIGNED_VALUE,,AUTO

     1076     5571    4                 T_SIGNED_VALUE = -T_SIGNED_VALUE;

   5571  1 005356   200151 236100                    LDQ     T_SIGNED_VALUE,,AUTO
         1 005357   000024 732000                    QRS     20
         1 005360   000027 676000 xsym               ERQ     B_VECTNIL+23
         1 005361   000001 036007                    ADLQ    1,DL
         1 005362   000024 736000                    QLS     20
         1 005363   200151 756100                    STQ     T_SIGNED_VALUE,,AUTO

     1077     5572    4                 ADDRESS = T_SIGNED_VALUE;

   5572  1 005364   200151 236100                    LDQ     T_SIGNED_VALUE,,AUTO
         1 005365   000024 732000                    QRS     20
         1 005366   200121 756100                    STQ     ADDRESS,,AUTO

     1078     5573    4                 END;

     1079     5574    3              CALL DFR$BINHEX( ADDRESS, TEXT_HEX, L_ZEROS );

   5574  1 005367   200106 631500                    EPPR1   L_ZEROS,,AUTO
         1 005370   200212 451500                    STP1    V+20,,AUTO
         1 005371   200102 633500                    EPPR3   TEXT_HEX,,AUTO
         1 005372   200211 453500                    STP3    V+19,,AUTO
         1 005373   200121 634500                    EPPR4   ADDRESS,,AUTO
         1 005374   200210 454500                    STP4    V+18,,AUTO
         1 005375   200210 630500                    EPPR0   V+18,,AUTO
         1 005376   000021 631400 xsym               EPPR1   B_VECTNIL+17
         1 005377   000000 701000 xent               TSX1    DFR$BINHEX
         1 005400   000000 011000                    NOP     0
PL6.E3A0      #001=DFR$INSTR File=DFR$INSTR.:E05TSI                              TUE 07/29/97 14:41 Page:187

     1080     5575    3              IF TAB

   5575  1 005401   200111 234100                    SZN     TAB,,AUTO
         1 005402   005421 605000 1                  TPL     BASE_REL_INDIRECT

     1081     5576    4              THEN DO;

     1082     5577    4                   S_D.L6_TAB = '1'B;

   5577  1 005403   400000 236003                    LDQ     -131072,DU
         1 005404   000000 470400 xsym               LDP0    S_D$
         1 005405   006734 756100                    STQ     3548,,PR0

     1083     5578    4                   IF SIGNED_VALUE < 0

   5578  1 005406   200146 236100                    LDQ     SIGNED_VALUE,,AUTO
         1 005407   777774 376003                    ANQ     -4,DU
         1 005410   000000 116003                    CMPQ    0,DU
         1 005411   005416 605000 1                  TPL     s:5580

     1084     5579    4                   THEN S_D.L6_TAB_VALUE = S_D.O$.ADDRESS - ADDRESS;

   5579  1 005412   000132 236100                    LDQ     90,,PR0
         1 005413   200121 136100                    SBLQ    ADDRESS,,AUTO
         1 005414   006735 756100                    STQ     3549,,PR0
         1 005415   005421 710000 1                  TRA     BASE_REL_INDIRECT

     1085     5580    4                   ELSE S_D.L6_TAB_VALUE = S_D.O$.ADDRESS + ADDRESS;

   5580  1 005416   000132 236100                    LDQ     90,,PR0
         1 005417   200121 036100                    ADLQ    ADDRESS,,AUTO
         1 005420   006735 756100                    STQ     3549,,PR0

     1086     5581    4                 END;

     1087     5582    4   BASE_REL_INDIRECT: DO CASE( SIGNED_VALUE );
PL6.E3A0      #001=DFR$INSTR File=DFR$INSTR.:E05TSI                              TUE 07/29/97 14:41 Page:188

   5582  1 005421   200146 236100       BASE_REL_IN* LDQ     SIGNED_VALUE,,AUTO
         1 005422   000024 732000                    QRS     20
         1 005423   000001 116007                    CMPQ    1,DL
         1 005424   005426 602006 1                  TNC     BASE_REL_INDIRECT+5,QL
         1 005425   005443 710000 1                  TRA     s:5587
         1 005426   005427 710000 1                  TRA     s:5584

     1088     5583    4               CASE( 0 );                  /* SIGNED_VALUE = 0                   */

     1089     5584    4                 CALL INSERT( DECODED_TEXT, 0,, '*.0', B_REGISTERS(ADDR_SYL.FRAME.
              5584                          N_FIELD) );

   5584  1 005427   200056 236100                    LDQ     INSTR,,AUTO
         1 005430   000024 772000                    QRL     20
         1 005431   000007 376007                    ANQ     7,DL
         1 005432   000003 402007                    MPY     3,DL
         1 005433   200210 756100                    STQ     V+18,,AUTO
         1 005434   000107 236000 0                  LDQ     SPREL+31
         1 005435   200060 552170                    STBQ    DECODED_TEXT,'70'O,AUTO
         1 005436   200210 235100                    LDA     V+18,,AUTO
         1 005437   040100 100405                    MLR     fill='040'O
         1 005440   000030 000003 0                  ADSC9   B_REGISTERS,A            cn=0,n=3
         1 005441   200060 600075                    ADSC9   DECODED_TEXT,,AUTO       cn=3,n=61
         1 005442   005534 710000 1                  TRA     s:5593

     1090     5585                                                                                    /**/
     1091     5586    4               CASE ( ELSE );              /* SIGNED_VALUE is non zero )*/

     1092     5587    4                   IF SIGNED_VALUE < 0 THEN CALL INSERT( DECODED_TEXT, 0,, '*-.',

   5587  1 005443   200146 236100                    LDQ     SIGNED_VALUE,,AUTO
         1 005444   777774 376003                    ANQ     -4,DU
         1 005445   000000 116003                    CMPQ    0,DU
         1 005446   005502 605000 1                  TPL     s:5589

   5587  1 005447   200056 236100                    LDQ     INSTR,,AUTO
PL6.E3A0      #001=DFR$INSTR File=DFR$INSTR.:E05TSI                              TUE 07/29/97 14:41 Page:189
         1 005450   000024 772000                    QRL     20
         1 005451   000007 376007                    ANQ     7,DL
         1 005452   000003 402007                    MPY     3,DL
         1 005453   200210 756100                    STQ     V+18,,AUTO
         1 005454   000110 236000 0                  LDQ     SPREL+32
         1 005455   200060 552170                    STBQ    DECODED_TEXT,'70'O,AUTO
         1 005456   000010 220003                    LDX0    8,DU
         1 005457   200106 120100                    SBLX0   L_ZEROS,,AUTO
         1 005460   200106 235100                    LDA     L_ZEROS,,AUTO
         1 005461   000022 771000                    ARL     18
         1 005462   040100 100545                    MLR     fill='040'O
         1 005463   200102 000010                    ADSC9   TEXT_HEX,A,AUTO          cn=0,n=*X0
         1 005464   200060 600075                    ADSC9   DECODED_TEXT,,AUTO       cn=3,n=61
         1 005465   200106 236100                    LDQ     L_ZEROS,,AUTO
         1 005466   000022 772000                    QRL     18
         1 005467   005472 604000 1                  TMI     s:5587+23
         1 005470   000022 116000 2                  CMPQ    18
         1 005471   005501 604000 1                  TMI     s:5587+30
         1 005472   000065 621006                    EAX1    53,QL
         1 005473   000027 675000 xsym               ERA     B_VECTNIL+23
         1 005474   000001 035007                    ADLA    1,DL
         1 005475   200210 236100                    LDQ     V+18,,AUTO
         1 005476   040145 100406                    MLR     fill='040'O
         1 005477   000030 000003 0                  ADSC9   B_REGISTERS,Q            cn=0,n=3
         1 005500   200062 600011                    ADSC9   DECODED_TEXT+2,A,AUTO    cn=3,n=*X1
         1 005501   005534 710000 1                  TRA     s:5593

     1093     5588    4                         SUBSTR( TEXT_HEX, L_ZEROS, 8-L_ZEROS ), B_REGISTERS(ADDR_SYL.
              5588                                  FRAME.N_FIELD) );
     1094     5589    4                   ELSE CALL INSERT( DECODED_TEXT, 0,, '*.',

   5589  1 005502   200056 236100                    LDQ     INSTR,,AUTO
         1 005503   000024 772000                    QRL     20
         1 005504   000007 376007                    ANQ     7,DL
         1 005505   000003 402007                    MPY     3,DL
         1 005506   000107 220000 0                  LDX0    SPREL+31
         1 005507   200060 740100                    STX0    DECODED_TEXT,,AUTO
PL6.E3A0      #001=DFR$INSTR File=DFR$INSTR.:E05TSI                              TUE 07/29/97 14:41 Page:190
         1 005510   000010 221003                    LDX1    8,DU
         1 005511   200106 121100                    SBLX1   L_ZEROS,,AUTO
         1 005512   200106 235100                    LDA     L_ZEROS,,AUTO
         1 005513   000022 771000                    ARL     18
         1 005514   040100 100545                    MLR     fill='040'O
         1 005515   200102 000011                    ADSC9   TEXT_HEX,A,AUTO          cn=0,n=*X1
         1 005516   200060 400076                    ADSC9   DECODED_TEXT,,AUTO       cn=2,n=62
         1 005517   200210 756100                    STQ     V+18,,AUTO
         1 005520   200106 236100                    LDQ     L_ZEROS,,AUTO
         1 005521   000022 772000                    QRL     18
         1 005522   005525 604000 1                  TMI     s:5589+19
         1 005523   000023 116000 2                  CMPQ    19
         1 005524   005534 604000 1                  TMI     s:5593
         1 005525   000066 622006                    EAX2    54,QL
         1 005526   000027 675000 xsym               ERA     B_VECTNIL+23
         1 005527   000001 035007                    ADLA    1,DL
         1 005530   200210 236100                    LDQ     V+18,,AUTO
         1 005531   040145 100406                    MLR     fill='040'O
         1 005532   000030 000003 0                  ADSC9   B_REGISTERS,Q            cn=0,n=3
         1 005533   200062 400012                    ADSC9   DECODED_TEXT+2,A,AUTO    cn=2,n=*X2

     1095     5590    4                             SUBSTR( TEXT_HEX, L_ZEROS, 8-L_ZEROS ), B_REGISTERS(
              5590                                      ADDR_SYL.FRAME.N_FIELD) );
     1096     5591                                                                                    /**/
     1097     5592    4               END BASE_REL_INDIRECT;

     1098     5593    3              RASSED_INSTR.WORDS_USED = 2;

   5593  1 005534   000002 235007                    LDA     2,DL
         1 005535   200034 755100                    STA     RASSED_INSTR+21,,AUTO

     1099     5594    3              INDEX_FLAG = '1'B;

   5594  1 005536   400000 236003                    LDQ     -131072,DU
         1 005537   200057 756100                    STQ     INDEX_FLAG,,AUTO
         1 005540   005616 710000 1                  TRA     s:5622

PL6.E3A0      #001=DFR$INSTR File=DFR$INSTR.:E05TSI                              TUE 07/29/97 14:41 Page:191
     1100     5595                                                                                    /**/
     1101     5596    3            CASE ( 89,                     /* M=5, @=1, N=1                      */

     1102     5597    3                90,                        /* M=5, @=1, N=2                      */
     1103     5598    3                91,                        /* M=5, @=1, N=3                      */
     1104     5599    3                105,                       /* M=6, @=1, N=1                      */
     1105     5600    3                106,                  /* M=6, @=1, N=2 based indexed auto dec    */
     1106     5601    3                107,                       /* M=6, @=1, N=3                      */
     1107     5602    3                121,                       /* M=7, @=1, N=1                      */
     1108     5603    3                122,                       /* M=7, @=1, N=2                      */
     1109     5604    3                123 );                     /* M=7, @=1, N=3                      */
     1110     5605    3              CALL INSERT( DECODED_TEXT, 0,, B_REGISTERS(ADDR_SYL.FRAME.N_FIELD),
              5605                       R_REGISTERS(ADDR_SYL.FRAME.M_FIELD - 4), ',PUSH' );

   5605  1 005541   200056 236100                    LDQ     INSTR,,AUTO
         1 005542   000024 772000                    QRL     20
         1 005543   000007 376007                    ANQ     7,DL
         1 005544   000003 402007                    MPY     3,DL
         1 005545   200210 756100                    STQ     V+18,,AUTO
         1 005546   200056 236100                    LDQ     INSTR,,AUTO
         1 005547   000030 772000                    QRL     24
         1 005550   000007 376007                    ANQ     7,DL
         1 005551   000003 402007                    MPY     3,DL
         1 005552   200210 235100                    LDA     V+18,,AUTO
         1 005553   040100 100405                    MLR     fill='040'O
         1 005554   000030 000003 0                  ADSC9   B_REGISTERS,A            cn=0,n=3
         1 005555   200060 000003                    ADSC9   DECODED_TEXT,,AUTO       cn=0,n=3
         1 005556   040100 100406                    MLR     fill='040'O
         1 005557   000017 000003 0                  ADSC9   CMML+15,Q                cn=0,n=3
         1 005560   200060 600003                    ADSC9   DECODED_TEXT,,AUTO       cn=3,n=3
         1 005561   040100 100400                    MLR     fill='040'O
         1 005562   000102 000005 0                  ADSC9   SPREL+26                 cn=0,n=5
         1 005563   200061 400072                    ADSC9   DECODED_TEXT+1,,AUTO     cn=2,n=58

     1111     5606    3              RASSED_INSTR.WORDS_USED = 1;

   5606  1 005564   000001 235007                    LDA     1,DL
PL6.E3A0      #001=DFR$INSTR File=DFR$INSTR.:E05TSI                              TUE 07/29/97 14:41 Page:192
         1 005565   200034 755100                    STA     RASSED_INSTR+21,,AUTO
         1 005566   005616 710000 1                  TRA     s:5622

     1112     5607                                                                                    /**/
     1113     5608    3            CASE ( 93,                     /* M=5, @=1, N=5                      */

     1114     5609    3                94,                        /* M=5, @=1, N=6                      */
     1115     5610    3                95,                        /* M=5, @=1, N=7                      */
     1116     5611    3                109,                       /* M=6, @=1, N=5                      */
     1117     5612    3                110,                  /* M=6, @=1, N=6 based indexed auto inc*/
     1118     5613    3                111,                       /* M=6, @=1, N=7                      */
     1119     5614    3                125,                       /* M=7, @=1, N=5                      */
     1120     5615    3                126,                       /* M=7, @=1, N=6                      */
     1121     5616    3                127 );                     /* M=7, @=1, N=7                      */
     1122     5617    3              CALL INSERT( DECODED_TEXT, 0,, B_REGISTERS(ADDR_SYL.FRAME.N_FIELD - 4),
              5617                       R_REGISTERS(ADDR_SYL.FRAME.M_FIELD - 4), ',POP' );

   5617  1 005567   200056 236100                    LDQ     INSTR,,AUTO
         1 005570   000024 772000                    QRL     20
         1 005571   000007 376007                    ANQ     7,DL
         1 005572   000003 402007                    MPY     3,DL
         1 005573   200210 756100                    STQ     V+18,,AUTO
         1 005574   200056 236100                    LDQ     INSTR,,AUTO
         1 005575   000030 772000                    QRL     24
         1 005576   000007 376007                    ANQ     7,DL
         1 005577   000003 402007                    MPY     3,DL
         1 005600   200210 235100                    LDA     V+18,,AUTO
         1 005601   040100 100405                    MLR     fill='040'O
         1 005602   000025 000003 0                  ADSC9   R_REGISTERS+3,A          cn=0,n=3
         1 005603   200060 000003                    ADSC9   DECODED_TEXT,,AUTO       cn=0,n=3
         1 005604   040100 100406                    MLR     fill='040'O
         1 005605   000017 000003 0                  ADSC9   CMML+15,Q                cn=0,n=3
         1 005606   200060 600003                    ADSC9   DECODED_TEXT,,AUTO       cn=3,n=3
         1 005607   040100 100400                    MLR     fill='040'O
         1 005610   000104 000004 0                  ADSC9   SPREL+28                 cn=0,n=4
         1 005611   200061 400072                    ADSC9   DECODED_TEXT+1,,AUTO     cn=2,n=58

PL6.E3A0      #001=DFR$INSTR File=DFR$INSTR.:E05TSI                              TUE 07/29/97 14:41 Page:193
     1123     5618    3              RASSED_INSTR.WORDS_USED = 1;

   5618  1 005612   000001 235007                    LDA     1,DL
         1 005613   200034 755100                    STA     RASSED_INSTR+21,,AUTO

     1124     5619                                                                                    /**/
     1125     5620    3              RETURN;

   5620  1 005614   200120 221300                    LDX1  ! POSITION,,AUTO
         1 005615   000001 702211                    TSX2  ! 1,X1

     1126     5621    3            END DECODE;

     1127     5622    3            IF B_INDEXED AND TAB AND ADDR_SYL.FRAME.N_FIELD > 0 AND S_D.
              5622                     CURRENT_FPRG_CONTEXT$~=ADDR(NIL) THEN DO;

   5622  1 005616   200164 234100                    SZN     B_INDEXED,,AUTO
         1 005617   005672 605000 1                  TPL     KEEP_GOING
         1 005620   200111 234100                    SZN     TAB,,AUTO
         1 005621   005672 605000 1                  TPL     KEEP_GOING
         1 005622   200056 236100                    LDQ     INSTR,,AUTO
         1 005623   000034 316003                    CANQ    28,DU
         1 005624   005672 600000 1                  TZE     KEEP_GOING
         1 005625   000000 470400 xsym               LDP0    S_D$
         1 005626   000102 236100                    LDQ     66,,PR0
         1 005627   000001 116000 xsym               CMPQ    B_VECTNIL+1
         1 005630   005672 600000 1                  TZE     KEEP_GOING

     1128     5623    3               IF S_D.CURRENT_FPRG_CONTEXT$->FPRG$CONTEXT.FANLZ THEN GOTO KEEP_GOING;

   5623  1 005631   000102 471500                    LDP1    66,,PR0
         1 005632   100001 430100                    FSZN    1,,PR1
         1 005633   005672 604000 1                  TMI     KEEP_GOING

     1129     5624    3               N = ADDR_SYL.FRAME.N_FIELD;

   5624  1 005634   200056 236100                    LDQ     INSTR,,AUTO
PL6.E3A0      #001=DFR$INSTR File=DFR$INSTR.:E05TSI                              TUE 07/29/97 14:41 Page:194
         1 005635   000024 772000                    QRL     20
         1 005636   000007 376007                    ANQ     7,DL
         1 005637   200165 756100                    STQ     N,,AUTO

     1130     5625    4               CALL DFK$GETMVAL (V, 0, 10, N, '1'B, '0'B) WHENALTRETURN DO;

   5625  1 005640   000024 237000 2                  LDAQ    20
         1 005641   200214 757100                    STAQ    V+22,,AUTO
         1 005642   200165 631500                    EPPR1   N,,AUTO
         1 005643   200213 451500                    STP1    V+21,,AUTO
         1 005644   000026 236000 2                  LDQ     22
         1 005645   200212 756100                    STQ     V+20,,AUTO
         1 005646   000025 236000 2                  LDQ     21
         1 005647   200211 756100                    STQ     V+19,,AUTO
         1 005650   200166 633500                    EPPR3   V,,AUTO
         1 005651   200210 453500                    STP3    V+18,,AUTO
         1 005652   200210 630500                    EPPR0   V+18,,AUTO
         1 005653   000024 631400 xsym               EPPR1   B_VECTNIL+20
         1 005654   000000 701000 xent               TSX1    DFK$GETMVAL
         1 005655   005657 702000 1                  TSX2    s:5626
         1 005656   005663 710000 1                  TRA     s:5629

     1131     5626    4                  CALL DDE$ERROR;

   5626  1 005657   000002 631400 xsym               EPPR1   B_VECTNIL+2
         1 005660   000000 701000 xent               TSX1    DDE$ERROR
         1 005661   000000 011000                    NOP     0

     1132     5627    4                  GOTO KEEP_GOING;

   5627  1 005662   005672 710000 1                  TRA     KEEP_GOING

     1133     5628    4                  END;
     1134     5629    3               N = V.X(0)*65536 + V.X(1);

   5629  1 005663   200167 236100                    LDQ     V+1,,AUTO
         1 005664   000020 736000                    QLS     16
PL6.E3A0      #001=DFR$INSTR File=DFR$INSTR.:E05TSI                              TUE 07/29/97 14:41 Page:195
         1 005665   200170 036100                    ADLQ    V+2,,AUTO
         1 005666   200165 756100                    STQ     N,,AUTO

     1135     5630    3               S_D.L6_TAB_VALUE = S_D.L6_TAB_VALUE + N;

   5630  1 005667   000000 470400 xsym               LDP0    S_D$
         1 005670   006735 036100                    ADLQ    3549,,PR0
         1 005671   006735 756100                    STQ     3549,,PR0

     1136     5631    3   KEEP_GOING: END;

   5631  1 005672                       KEEP_GOING   null
     1137     5632    2           RETURN;

   5632  1 005672   200120 221300                    LDX1  ! POSITION,,AUTO
         1 005673   000001 702211                    TSX2  ! 1,X1

     1138     5633    2   END  DECODE_ADDR_SYL;
     1139     5634        %EJECT;
PL6.E3A0      #001=DFR$INSTR File=DFR$INSTR.:E05TSI                              TUE 07/29/97 14:41 Page:196
     1140     5635    1   MASK_PRESENT: PROC;

   5635  1 005674   200112 741300       MASK_PRESENT STX1  ! TAB+1,,AUTO

     1141     5636    2   DCL POSITION UBIN WORD;
     1142     5637    2   DCL MASK UBIN WORD;
     1143     5638                                                                                    /**/
     1144     5639    2           MASK = 0;

   5639  1 005675   200114 450100                    STZ     MASK,,AUTO

     1145     5640    2           MASK = INSTR_ARRAY(RASSED_INSTR.WORDS_USED);

   5640  1 005676   200034 235100                    LDA     RASSED_INSTR+21,,AUTO
         1 005677   000004 735000                    ALS     4
         1 005700   003100 061505                    CSR     bolr='003'O
         1 005701   200046 000020                    BDSC    INSTR_ARRAY,A,AUTO       by=0,bit=0,n=16
         1 005702   200114 000044                    BDSC    MASK,,AUTO               by=0,bit=0,n=36

     1146     5641    2           CALL DFR$BINHEX( MASK, TEXT_HEX, L_ZEROS );

   5641  1 005703   200106 630500                    EPPR0   L_ZEROS,,AUTO
         1 005704   200212 450500                    STP0    V+20,,AUTO
         1 005705   200102 631500                    EPPR1   TEXT_HEX,,AUTO
         1 005706   200211 451500                    STP1    V+19,,AUTO
         1 005707   200114 633500                    EPPR3   MASK,,AUTO
         1 005710   200210 453500                    STP3    V+18,,AUTO
         1 005711   200210 630500                    EPPR0   V+18,,AUTO
         1 005712   000021 631400 xsym               EPPR1   B_VECTNIL+17
         1 005713   000000 701000 xent               TSX1    DFR$BINHEX
         1 005714   000000 011000                    NOP     0

     1147     5642    2           CALL INDEX( POSITION, ' ', RASSED_INSTR.BUFFER );

   5642  1 005715   000000 124500                    SCM     mask='000'O
         1 005716   200010 000120                    ADSC9   RASSED_INSTR+1,,AUTO     cn=0,n=80
         1 005717   000035 000001 xsym               ADSC9   B_VECTNIL+29             cn=0,n=1
PL6.E3A0      #001=DFR$INSTR File=DFR$INSTR.:E05TSI                              TUE 07/29/97 14:41 Page:197
         1 005720   200113 000100                    ARG     POSITION,,AUTO

     1148     5643    2           CALL INSERT( RASSED_INSTR.BUFFER, POSITION,, ',X''', SUBSTR( TEXT_HEX, 4, 4
              5643                    ), '''' );

   5643  1 005721   200113 720100                    LXL0    POSITION,,AUTO
         1 005722   777657 620010                    EAX0    -81,X0
         1 005723   777777 660003                    ERX0    -1,DU
         1 005724   200113 235100                    LDA     POSITION,,AUTO
         1 005725   040145 100400                    MLR     fill='040'O
         1 005726   000111 000003 0                  ADSC9   SPREL+33                 cn=0,n=3
         1 005727   200010 000010                    ADSC9   RASSED_INSTR+1,A,AUTO    cn=0,n=*X0
         1 005730   200113 236100                    LDQ     POSITION,,AUTO
         1 005731   000115 116007                    CMPQ    77,DL
         1 005732   005747 603000 1                  TRC     s:5644
         1 005733   777662 621006                    EAX1    -78,QL
         1 005734   777777 661003                    ERX1    -1,DU
         1 005735   040146 100500                    MLR     fill='040'O
         1 005736   200103 000004                    ADSC9   TEXT_HEX+1,,AUTO         cn=0,n=4
         1 005737   200010 600011                    ADSC9   RASSED_INSTR+1,Q,AUTO    cn=3,n=*X1
         1 005740   000111 116007                    CMPQ    73,DL
         1 005741   005747 603000 1                  TRC     s:5644
         1 005742   777666 622006                    EAX2    -74,QL
         1 005743   777777 662003                    ERX2    -1,DU
         1 005744   040146 100400                    MLR     fill='040'O
         1 005745   000027 000001 2                  ADSC9   23                       cn=0,n=1
         1 005746   200011 600012                    ADSC9   RASSED_INSTR+2,Q,AUTO    cn=3,n=*X2

     1149     5644    2           RASSED_INSTR.WORDS_USED = RASSED_INSTR.WORDS_USED+1;

   5644  1 005747   200034 235100                    LDA     RASSED_INSTR+21,,AUTO
         1 005750   000001 035007                    ADLA    1,DL
         1 005751   200034 755100                    STA     RASSED_INSTR+21,,AUTO

     1150     5645    2           RETURN;

   5645  1 005752   200112 221300                    LDX1  ! TAB+1,,AUTO
PL6.E3A0      #001=DFR$INSTR File=DFR$INSTR.:E05TSI                              TUE 07/29/97 14:41 Page:198
         1 005753   000001 702211                    TSX2  ! 1,X1

     1151     5646    2   END MASK_PRESENT;
     1152     5647        %EJECT;
PL6.E3A0      #001=DFR$INSTR File=DFR$INSTR.:E05TSI                              TUE 07/29/97 14:41 Page:199
     1153     5648        %EJECT;
PL6.E3A0      #001=DFR$INSTR File=DFR$INSTR.:E05TSI                              TUE 07/29/97 14:41 Page:200
     1154     5649    1   CONVERT_BIN_TO_DEC: PROC( TEXT, VALUE );

   5649  1 005754   200122 741300       CONVERT_BIN* STX1  ! DISPLACEMENT,,AUTO

     1155     5650    2   DCL TEXT CHAR(10);
     1156     5651    2   DCL R_TEXT(0:9)  REDEF TEXT CHAR(1) ;
     1157     5652    2   DCL VALUE SBIN WORD;
     1158     5653    2   DCL TEMP_TEXT(0:9) CHAR(1);
     1159     5654    2   DCL R_TEMP_TEXT REDEF TEMP_TEXT CHAR(10);
     1160     5655    2   DCL I UBIN WORD;
     1161     5656    2   DCL J UBIN WORD;
     1162     5657                                                                                    /**/
     1163     5658    3           IF VALUE = 0 THEN ZERO_VALUE: TEXT = '0^'; ELSE NON_ZERO_VALUE: DO;

   5658  1 005755   200124 470500                    LDP0    @VALUE,,AUTO
         1 005756   000000 235100                    LDA     0,,PR0
         1 005757   005765 601000 1                  TNZ     NON_ZERO_VALUE

   5658  1 005760   200123 471500       ZERO_VALUE   LDP1    @TEXT,,AUTO
         1 005761   040100 100400                    MLR     fill='040'O
         1 005762   000112 000002 0                  ADSC9   SPREL+34                 cn=0,n=2
         1 005763   100000 000012                    ADSC9   0,,PR1                   cn=0,n=10
         1 005764   006055 710000 1                  TRA     s:5679

   5658  1 005765                       NON_ZERO_VA* null
     1164     5659    3              R_TEMP_TEXT = ' ';

   5659  1 005765   040100 100400                    MLR     fill='040'O
         1 005766   000035 000001 xsym               ADSC9   B_VECTNIL+29             cn=0,n=1
         1 005767   200125 000012                    ADSC9   TEMP_TEXT,,AUTO          cn=0,n=10

     1165     5660    3              TEXT = ' ';

   5660  1 005770   200123 471500                    LDP1    @TEXT,,AUTO
         1 005771   040100 100400                    MLR     fill='040'O
         1 005772   000035 000001 xsym               ADSC9   B_VECTNIL+29             cn=0,n=1
         1 005773   100000 000012                    ADSC9   0,,PR1                   cn=0,n=10
PL6.E3A0      #001=DFR$INSTR File=DFR$INSTR.:E05TSI                              TUE 07/29/97 14:41 Page:201

     1166     5661    3              CALL BINXCHAR( TEXT, VALUE );

   5661  1 005774   000100 301500                    BTD
         1 005775   000000 000004                    NDSC9   0,,PR0                   cn=0,s=lsgnf,sf=0,n=4
         1 005776   100000 010012                    NDSC9   0,,PR1                   cn=0,s=lsgns,sf=0,n=10

     1167     5662    4              IF R_TEXT(0) = '-' THEN DO;

   5662  1 005777   040000 106500                    CMPC    fill='040'O
         1 006000   100000 000001                    ADSC9   0,,PR1                   cn=0,n=1
         1 006001   000030 000001 2                  ADSC9   24                       cn=0,n=1
         1 006002   006010 601000 1                  TNZ     s:5666

     1168     5663    4                 TEMP_TEXT(0) = '-';

   5663  1 006003   055000 236003                    LDQ     23040,DU
         1 006004   200125 552140                    STBQ    TEMP_TEXT,'40'O,AUTO

     1169     5664    4                 J = 1;

   5664  1 006005   000001 235007                    LDA     1,DL
         1 006006   200131 755100                    STA     J,,AUTO

     1170     5665    4                 END;

   5665  1 006007   006011 710000 1                  TRA     s:5667

     1171     5666    3              ELSE J=0;

   5666  1 006010   200131 450100                    STZ     J,,AUTO

     1172     5667    3              I = 1;

   5667  1 006011   000001 235007                    LDA     1,DL
         1 006012   200130 755100                    STA     I,,AUTO

PL6.E3A0      #001=DFR$INSTR File=DFR$INSTR.:E05TSI                              TUE 07/29/97 14:41 Page:202
     1173     5668    4   ZERO_REMOVE: DO WHILE ( R_TEXT(I) = '0' );

   5668  1 006013   040000 106505       ZERO_REMOVE  CMPC    fill='040'O
         1 006014   100000 000001                    ADSC9   0,A,PR1                  cn=0,n=1
         1 006015   000031 000001 2                  ADSC9   25                       cn=0,n=1
         1 006016   006027 601000 1                  TNZ     FILL_BUFFER

     1174     5669    4                 I = I+1;

   5669  1 006017   200130 235100                    LDA     I,,AUTO
         1 006020   000001 035007                    ADLA    1,DL
         1 006021   200130 755100                    STA     I,,AUTO

     1175     5670    4                 END ZERO_REMOVE;

   5670  1 006022   200123 470500                    LDP0    @TEXT,,AUTO
         1 006023   040000 106505                    CMPC    fill='040'O
         1 006024   000000 000001                    ADSC9   0,A,PR0                  cn=0,n=1
         1 006025   000031 000001 2                  ADSC9   25                       cn=0,n=1
         1 006026   006017 600000 1                  TZE     s:5669

     1176     5671    4   FILL_BUFFER: DO WHILE ( I <= 9 );

   5671  1 006027   000012 115007       FILL_BUFFER  CMPA    10,DL
         1 006030   006045 603000 1                  TRC     s:5676

     1177     5672    4                 TEMP_TEXT(J) = R_TEXT(I);

   5672  1 006031   200123 470500                    LDP0    @TEXT,,AUTO
         1 006032   200130 235100                    LDA     I,,AUTO
         1 006033   200131 236100                    LDQ     J,,AUTO
         1 006034   040106 100505                    MLR     fill='040'O
         1 006035   000000 000001                    ADSC9   0,A,PR0                  cn=0,n=1
         1 006036   200125 000001                    ADSC9   TEMP_TEXT,Q,AUTO         cn=0,n=1

     1178     5673    4                 I = I+1;

PL6.E3A0      #001=DFR$INSTR File=DFR$INSTR.:E05TSI                              TUE 07/29/97 14:41 Page:203
   5673  1 006037   000001 035007                    ADLA    1,DL
         1 006040   200130 755100                    STA     I,,AUTO

     1179     5674    4                 J = J+1;

   5674  1 006041   000001 036007                    ADLQ    1,DL
         1 006042   200131 756100                    STQ     J,,AUTO

     1180     5675    4                 END FILL_BUFFER;

   5675  1 006043   000012 115007                    CMPA    10,DL
         1 006044   006031 602000 1                  TNC     s:5672

     1181     5676    3              TEMP_TEXT(J) = '^';

   5676  1 006045   200131 236100                    LDQ     J,,AUTO
         1 006046   040106 100400                    MLR     fill='040'O
         1 006047   000000 000001 2                  ADSC9   0                        cn=0,n=1
         1 006050   200125 000001                    ADSC9   TEMP_TEXT,Q,AUTO         cn=0,n=1

     1182     5677    3              R_TEXT = TEMP_TEXT;

   5677  1 006051   200123 470500                    LDP0    @TEXT,,AUTO
         1 006052   000100 100500                    MLR     fill='000'O
         1 006053   200125 000012                    ADSC9   TEMP_TEXT,,AUTO          cn=0,n=10
         1 006054   000000 000012                    ADSC9   0,,PR0                   cn=0,n=10

     1183     5678    3              END NON_ZERO_VALUE;

     1184     5679    2           RETURN;

   5679  1 006055   200122 221300                    LDX1  ! DISPLACEMENT,,AUTO
         1 006056   000001 702211                    TSX2  ! 1,X1

     1185     5680    2   END CONVERT_BIN_TO_DEC;
     1186     5681        %EJECT;
PL6.E3A0      #001=DFR$INSTR File=DFR$INSTR.:E05TSI                              TUE 07/29/97 14:41 Page:204
     1187     5682    1   DFR$SIGN: PROC( SIGN, VALUE );

   5682  1 006057   200112 741300       DFR$SIGN     STX1  ! TAB+1,,AUTO

     1188     5683    2   DCL SIGN SBIN WORD;
     1189     5684    2   DCL VALUE SBIN WORD;
     1190     5685        /**/
     1191     5686    2           IF VALUE < 0 THEN SIGN = 0;

   5686  1 006060   200114 470500                    LDP0    @VALUE,,AUTO
         1 006061   000000 235100                    LDA     0,,PR0
         1 006062   006065 605000 1                  TPL     s:5687

   5686  1 006063   200113 471500                    LDP1    @SIGN,,AUTO
         1 006064   100000 450100                    STZ     0,,PR1

     1192     5687    2           IF VALUE = 0 THEN SIGN = 1;

   5687  1 006065   000000 235100                    LDA     0,,PR0
         1 006066   006072 601000 1                  TNZ     s:5688

   5687  1 006067   000001 236007                    LDQ     1,DL
         1 006070   200113 471500                    LDP1    @SIGN,,AUTO
         1 006071   100000 756100                    STQ     0,,PR1

     1193     5688    2           IF VALUE > 0 THEN SIGN = 2;

   5688  1 006072   000000 235100                    LDA     0,,PR0
         1 006073   006077 604400 1                  TMOZ    s:5689

   5688  1 006074   000002 236007                    LDQ     2,DL
         1 006075   200113 471500                    LDP1    @SIGN,,AUTO
         1 006076   100000 756100                    STQ     0,,PR1

     1194     5689    2   END DFR$SIGN;

   5689  1 006077   200112 221300                    LDX1  ! TAB+1,,AUTO
PL6.E3A0      #001=DFR$INSTR File=DFR$INSTR.:E05TSI                              TUE 07/29/97 14:41 Page:205
         1 006100   000001 702211                    TSX2  ! 1,X1

     1195     5690        %EJECT;
PL6.E3A0      #001=DFR$INSTR File=DFR$INSTR.:E05TSI                              TUE 07/29/97 14:41 Page:206
     1196     5691    1   DFR$MERGE: PROC( DESTINATION, INPUT, POSITION );

   5691  1 006101   200112 741300       DFR$MERGE    STX1  ! TAB+1,,AUTO

     1197     5692    2   DCL DESTINATION CHAR(80);
     1198     5693    2   DCL INPUT CHAR(64);
     1199     5694    2   DCL POSITION UBIN WORD;
     1200     5695    2   DCL I SBIN WORD;
     1201     5696                                                                                    /**/
     1202     5697    3           DO I = 63 DOWNTO 0 BY -1;

   5697  1 006102   000077 235007                    LDA     63,DL
         1 006103   200116 755100                    STA     I,,AUTO

     1203     5698    3              IF SUBSTR(INPUT, I, 1) ~= ' '

   5698  1 006104   200114 470500                    LDP0    @INPUT,,AUTO
         1 006105   200116 235100                    LDA     I,,AUTO
         1 006106   040000 106505                    CMPC    fill='040'O
         1 006107   000000 000001                    ADSC9   0,A,PR0                  cn=0,n=1
         1 006110   000035 000001 xsym               ADSC9   B_VECTNIL+29             cn=0,n=1
         1 006111   006116 600000 1                  TZE     s:5703

     1204     5699    4              THEN DO;

     1205     5700    4                   POSITION = I + 1;

   5700  1 006112   000001 035007                    ADLA    1,DL
         1 006113   200115 471500                    LDP1    @POSITION,,AUTO
         1 006114   100000 755100                    STA     0,,PR1

     1206     5701    4                   GOTO FD_NONBLK;

   5701  1 006115   006121 710000 1                  TRA     FD_NONBLK

     1207     5702    4                 END;
     1208     5703    3              END;
PL6.E3A0      #001=DFR$INSTR File=DFR$INSTR.:E05TSI                              TUE 07/29/97 14:41 Page:207

   5703  1 006116   000001 336007                    LCQ     1,DL
         1 006117   200116 056100                    ASQ     I,,AUTO
         1 006120   006104 605000 1                  TPL     s:5698

     1209     5704    2   FD_NONBLK: CALL INSERT( INPUT, POSITION,, '^' );

   5704  1 006121   200115 471500       FD_NONBLK    LDP1    @POSITION,,AUTO
         1 006122   100000 235100                    LDA     0,,PR1
         1 006123   200210 755100                    STA     V+18,,AUTO
         1 006124   100000 235100                    LDA     0,,PR1
         1 006125   000027 675000 xsym               ERA     B_VECTNIL+23
         1 006126   000101 035007                    ADLA    65,DL
         1 006127   000000 620005                    EAX0    0,AL
         1 006130   200210 235100                    LDA     V+18,,AUTO
         1 006131   040145 100400                    MLR     fill='040'O
         1 006132   000000 000001 2                  ADSC9   0                        cn=0,n=1
         1 006133   000000 000010                    ADSC9   0,A,PR0                  cn=0,n=*X0

     1210     5705    2           CALL INDEX( POSITION, ' ', DESTINATION );

   5705  1 006134   200113 473500                    LDP3    @DESTINATION,,AUTO
         1 006135   000000 124500                    SCM     mask='000'O
         1 006136   300000 000120                    ADSC9   0,,PR3                   cn=0,n=80
         1 006137   000035 000001 xsym               ADSC9   B_VECTNIL+29             cn=0,n=1
         1 006140   100000 000100                    ARG     0,,PR1

     1211     5706    2           POSITION = POSITION+1;

   5706  1 006141   100000 235100                    LDA     0,,PR1
         1 006142   000001 035007                    ADLA    1,DL
         1 006143   100000 755100                    STA     0,,PR1

     1212     5707    2           CALL INSERT( DESTINATION, POSITION,, INPUT );

   5707  1 006144   200210 755100                    STA     V+18,,AUTO
         1 006145   100000 235100                    LDA     0,,PR1
PL6.E3A0      #001=DFR$INSTR File=DFR$INSTR.:E05TSI                              TUE 07/29/97 14:41 Page:208
         1 006146   000027 675000 xsym               ERA     B_VECTNIL+23
         1 006147   000121 035007                    ADLA    81,DL
         1 006150   000000 620005                    EAX0    0,AL
         1 006151   200210 235100                    LDA     V+18,,AUTO
         1 006152   040145 100500                    MLR     fill='040'O
         1 006153   000000 000100                    ADSC9   0,,PR0                   cn=0,n=64
         1 006154   300000 000010                    ADSC9   0,A,PR3                  cn=0,n=*X0

     1213     5708    2           CALL INDEX( POSITION, '^', DESTINATION );

   5708  1 006155   000000 124500                    SCM     mask='000'O
         1 006156   300000 000120                    ADSC9   0,,PR3                   cn=0,n=80
         1 006157   000000 000001 2                  ADSC9   0                        cn=0,n=1
         1 006160   100000 000100                    ARG     0,,PR1

     1214     5709    2           RETURN;

   5709  1 006161   200112 221300                    LDX1  ! TAB+1,,AUTO
         1 006162   000001 702211                    TSX2  ! 1,X1

CMML
 Sect OctLoc
   0     000   000003 000000   000002 000000   000002 000000   000003 000000    ................
   0     004   000003 000002   000002 000001   000003 000002   000002 000001    ................
   0     010   000003 000000   000002 000001   000002 000001   000003 000001    ................
   0     014   000002 000001   000002 000001   000001 000001   000002 000001    ................

PREL
 Sect OctLoc
   0     020   054120 122105   114136 ******                                    ,PREL^..

R_REGISTERS
 Sect OctLoc
   0     022   130040 040054   122061 054122   062054 122063   054122 064054    X  ,R1,R2,R3,R4,
   0     026   122065 054122   066054 122067                                    R5,R6,R7

B_REGISTERS
PL6.E3A0      #001=DFR$INSTR File=DFR$INSTR.:E05TSI                              TUE 07/29/97 14:41 Page:209
 Sect OctLoc
   0     030   130040 040054   102061 054102   062054 102063   054102 064054    X  ,B1,B2,B3,B4,
   0     034   102065 054102   066054 102067                                    B5,B6,B7

OP_R_REGS
 Sect OctLoc
   0     036   130040 122061   122062 122063   122064 122065   122066 122067    X R1R2R3R4R5R6R7

OP_B_REGS
 Sect OctLoc
   0     042   130040 102061   102062 102063   102064 102065   102066 102067    X B1B2B3B4B5B6B7

SCI_REGS
 Sect OctLoc
   0     046   130040 123061   123062 123063                                    X S1S2S3

SPREL
 Sect OctLoc
   0     050   054123 120122   105114 136***                                    ,SPREL^.

(unnamed)
 Sect OctLoc
   0     052   123124 124040   122114 121040   114104 124040   101103 121040    STT RLQ LDT ACQ
   0     056   056060 136040   044117 055056   044117 053056   051054 040136    .0^ $O-.$O+.), ^
   0     062   051136 040040   054040 050040   054050 040040   122104 104060    )^  , ( ,(  RDD0
   0     066   060060 060051   054114 060060   054040 040040   124054 040040    000),L00,   T,
   0     072   052044 117040   054111 115117   051040 040040   054122 040040    *$O ,IMO)   ,R
   0     076   054122 065040   104122 123040   104106 123040   054122 116104    ,R5 DRS DFS ,RND
   0     102   054120 125123   110040 040040   054120 117120   054044 111126    ,PUSH   ,POP,$IV
   0     106   055056 040040   052056 060040   052055 056040   054130 047040    -.  *.0 *-. ,X'
   0     112   060136 040040                                                    0^

(unnamed)
 Sect OctLoc
   2     000   136040 040040   056040 040040   000003 600000   000000 000100    ^   .   .......@
   2     004   000003 006000   777777 777671   777777 777674   050040 040040    ............(
   2     010   000040 040040   103040 040040   777777 777617   052040 040040    .   C   ....*
PL6.E3A0      #001=DFR$INSTR File=DFR$INSTR.:E05TSI                              TUE 07/29/97 14:41 Page:210
   2     014   102040 040040   053040 040040   051040 040040   037777 600000    B   +   )   ....
   2     020   054040 040040   777777 777712   777777 777714   777777 777713    ,   ............
   2     024   000030 006000   000002 006000   000014 006000   047040 040040    ............'
   2     030   055040 040040   060040 040040                                    -   0
     1215     5710    2   END DFR$MERGE;
     1216     5711    1   END DFR$INSTR;

PL6.E3A0      #001=DFR$INSTR File=DFR$INSTR.:E05TSI                              TUE 07/29/97 14:41 Page:211
--  Include file information  --

   DD$BASED.:E05TOU  is referenced.
   DD_SD_M.:E05TOU  is referenced.
   DD_ERR_C.:E05TOU  is referenced.
   XUH_MACRO_C.:E05TOU  is referenced.
   B$JIT_C.:E05TOU  was found in the system file and is never referenced.
   CP_6_C.:E05TOU  was found in the system file and is never referenced.
      No diagnostics issued in procedure DFR$INSTR.

   Procedure DFR$INSTR requires 3187 words for executable code.
   Procedure DFR$INSTR requires 142 words of local(AUTO) storage.

    No errors detected in file DFR$INSTR.:E05TSI    .
PL6.E3A0      #001=DFR$INSTR File=DFR$INSTR.:E05TSI                              TUE 07/29/97 14:41 Page:212
          *** CROSS REFERENCE LISTING ***
**     DENOTES     IDENTIFIER DEFINITION
<<                 IDENTIFIER'S VALUE SET
>>                 IDENTIFIER'S VALUE USED
<>                 IDENTIFIER SET AND/OR USED
--                 IDENTIFIER REFERENCED
PL6.E3A0      #001=DFR$INSTR File=DFR$INSTR.:E05TSI                              TUE 07/29/97 14:41 Page:213
          MINI XREF LISTING

ACQ_INSTR.ACQ_B_REG
      4609**DCL      4686>>CALLBLT
ACQ_INSTR.ACQ_INDICATOR1
      4606**DCL      4683>>IF
ACQ_INSTR.ACQ_INDICATOR2
      4608**DCL      4683>>IF
ACQ_INSTR.ACQ_R_REG
      4607**DCL      4686>>CALLBLT
ADDRESS IN PROCEDURE DECODE_ADDR_SYL
      5151**DCL      5152--REDEF    5156--REDEF    5191<<ASSIGN   5232<>CALL     5236>>ASSIGN   5239<>CALL
      5252<>CALL     5256>>ASSIGN   5259<>CALL     5298<>CALL     5302>>ASSIGN   5314<>CALL     5318>>ASSIGN
      5355>>ASSIGN   5359<<ASSIGN   5361<<ASSIGN   5361>>ASSIGN   5363<<ASSIGN   5363>>ASSIGN   5364<>CALL
      5369>>ASSIGN   5370>>ASSIGN   5437<>CALL     5441>>ASSIGN   5446<>CALL     5450>>ASSIGN   5465<>CALL
      5469<>CALL     5534>>ASSIGN   5538<<ASSIGN   5540<>CALL     5544>>ASSIGN   5568>>ASSIGN   5572<<ASSIGN
      5574<>CALL     5579>>ASSIGN   5580>>ASSIGN
ADDR_SYL.FRAME.M_FIELD
      4575**DCL      5444>>CALLBLT  5452>>CALLBLT  5454>>CALLBLT  5467>>CALLBLT  5470>>CALLBLT  5472>>CALLBLT
      5499>>CALLBLT  5523>>CALLBLT  5605>>CALLBLT  5617>>CALLBLT
ADDR_SYL.FRAME.N_FIELD
      4577**DCL      5214>>CALLBLT  5225>>CALLBLT  5390>>ASSIGN   5393>>IF       5394>>ASSIGN   5397>>ASSIGN
      5399>>ASSIGN   5412>>ASSIGN   5428>>CALLBLT  5499>>CALLBLT  5523>>CALLBLT  5548>>CALLBLT  5551>>CALLBLT
      5554>>CALLBLT  5584>>CALLBLT  5587>>CALLBLT  5589>>CALLBLT  5605>>CALLBLT  5617>>CALLBLT  5622>>IF
      5624>>ASSIGN
ADDR_SYL.PHRASE
      4573**DCL      4574--REDEF    5194>>DOCASE
BAD_ADDR_SYL
      4801**LABEL    4699--CALLALT  4701--CALLALT  4703--CALLALT  4705--CALLALT  4739--CALLALT  4744--CALLALT
      4749--CALLALT  4759--CALLALT  4765--CALLALT  4770--CALLALT  4775--CALLALT  4780--CALLALT  4785--CALLALT
      4790--CALLALT  4795--CALLALT
BAD_IO_SYL IN PROCEDURE I_O_INSTR
      5036**LABEL    4998--CALLALT  5012--CALLALT  5026--CALLALT
BRANCH
PL6.E3A0      #001=DFR$INSTR File=DFR$INSTR.:E05TSI                              TUE 07/29/97 14:41 Page:214
      4835**PROC     4714--CALL
BRANCH_FRAME.VALUE
      4586**DCL      4859>>DOCASE   4921>>ASSIGN   4928>>IF       4934>>IF
BUFULL
      4832**LABEL    4824--GOTO     4829--GOTO
BUF_L
      4545**DCL      4546--IMP-SIZ  4825<<ASSIGN   4826>>ASSIGN   4826>>ASSIGN
BUF_T
      4546**DCL      4826<<ASSIGN
B_INDEXED IN PROCEDURE DECODE_ADDR_SYL
      5178**DCL      5193<<ASSIGN   5419<<ASSIGN   5559<<ASSIGN   5622>>IF
B_REGISTERS
      4556**DCL      4686>>CALLBLT  5214>>CALLBLT  5225>>CALLBLT  5412>>ASSIGN   5428>>CALLBLT  5499>>CALLBLT
      5523>>CALLBLT  5548>>CALLBLT  5551>>CALLBLT  5554>>CALLBLT  5584>>CALLBLT  5587>>CALLBLT  5589>>CALLBLT
      5605>>CALLBLT  5617>>CALLBLT
CHECK
      4808**LABEL    4799--GOTO
CMML.DDCNT
      4537**DCL      4700>>IF       4702>>IF
CONVERT_BIN_TO_DEC
      5649**PROC     4950--CALL     4981--CALL     5099--CALL     5117--CALL
DDE$ERROR IN PROCEDURE DECODE_ADDR_SYL
      5187**DCL-ENT  5626--CALL
DDR$POSIT IN PROCEDURE BRANCH
      4846**DCL-ENT  4865--CALL
DDR$POSIT IN PROCEDURE DECODE_ADDR_SYL
      5185**DCL-ENT  5232--CALL     5252--CALL     5437--CALL     5465--CALL
DDW.AN IN PROCEDURE DECODE_DD
      5050**DCL      5073>>IF       5088>>IF       5107>>IF       5111>>CALLBLT
DDW.C IN PROCEDURE DECODE_DD
      5046**DCL      5081>>CALLBLT
DDW.L IN PROCEDURE DECODE_DD
      5047**DCL      5082>>CALLBLT
DDW.M IN PROCEDURE DECODE_DD
      5049**DCL      5088>>DOCASE   5096<<ASSIGN   5120>>IF       5121>>CALLBLT
DDW.T IN PROCEDURE DECODE_DD
PL6.E3A0      #001=DFR$INSTR File=DFR$INSTR.:E05TSI                              TUE 07/29/97 14:41 Page:215
      5048**DCL      5084>>IF
DDW1 IN PROCEDURE DECODE_DD
      5043**DCL      5044--REDEF    5063<<ASSIGN   5075>>CALLBLT  5129<<ASSIGN   5133>>IF       5138>>IF
DDW2 IN PROCEDURE DECODE_DD
      5051**DCL      5052--REDEF    5055--REDEF    5065<<ASSIGN   5099<>CALL     5114>>IF       5116>>IF
      5117<>CALL     5130<<ASSIGN
DDW2U.S IN PROCEDURE DECODE_DD
      5054**DCL      5064<<ASSIGN   5065>>ASSIGN
DECODED_TEXT
      4611**DCL      4740<>CALL     4745<>CALL     4755<>CALL     4761<>CALL     4766<>CALL     4771<>CALL
      4776<>CALL     4781<>CALL     4786<>CALL     4791<>CALL     4797<>CALL     4999>>CALLBLT  5000<<CALLBLT
      5003>>CALLBLT  5013>>CALLBLT  5014<<CALLBLT  5015>>CALLBLT  5027>>CALLBLT  5028<<CALLBLT  5029>>CALLBLT
      5190<<ASSIGN   5214<<CALLBLT  5225<<CALLBLT  5245<<ASSIGN   5266<<CALLBLT  5304<<CALLBLT  5308>>CALLBLT
      5309<<ASSIGN   5309>>ASSIGN   5322<<ASSIGN   5345>>CALLBLT  5346<<CALLBLT  5347<<CALLBLT  5348<<CALLBLT
      5349>>CALLBLT  5372>>CALLBLT  5373<<CALLBLT  5374<<CALLBLT  5375<<CALLBLT  5376>>CALLBLT  5390<<ASSIGN
      5394<<ASSIGN   5397<<ASSIGN   5399<<ASSIGN   5412<<ASSIGN   5428<<CALLBLT  5457<<ASSIGN   5475<<CALLBLT
      5499<<CALLBLT  5523<<CALLBLT  5548<<CALLBLT  5551<<CALLBLT  5554<<CALLBLT  5584<<CALLBLT  5587<<CALLBLT
      5589<<CALLBLT  5605<<CALLBLT  5617<<CALLBLT
DECODE_ADDR_SYL
      5150**PROC     4739--CALL     4744--CALL     4749--CALL     4759--CALL     4765--CALL     4770--CALL
      4775--CALL     4780--CALL     4785--CALL     4790--CALL     4795--CALL     4998--CALL     5012--CALL
      5026--CALL
DECODE_DD
      5042**PROC     4699--CALL     4701--CALL     4703--CALL
DECODE_SCW IN PROCEDURE DECODE_DD
      5128**ENTRY    4705--CALL
DESTINATION IN PROCEDURE DFR$MERGE
      5692**DCL      5691--PROC     5705>>CALLBLT  5707<<CALLBLT  5708>>CALLBLT
DFK$GETMVAL IN PROCEDURE DECODE_ADDR_SYL
      5186**DCL-ENT  5625--CALL
DFR$BINHEX
      4623**DCL-ENT  4810--CALL     4872--CALL     4904--CALL     4924--CALL     5239--CALL     5259--CALL
      5298--CALL     5314--CALL     5337--CALL     5364--CALL     5446--CALL     5469--CALL     5540--CALL
      5574--CALL     5641--CALL
DFR$MERGE
      5691**PROC     4740--CALL     4745--CALL     4755--CALL     4761--CALL     4766--CALL     4771--CALL
PL6.E3A0      #001=DFR$INSTR File=DFR$INSTR.:E05TSI                              TUE 07/29/97 14:41 Page:216
      4776--CALL     4781--CALL     4786--CALL     4791--CALL     4797--CALL
DISPLACEMENT IN PROCEDURE BRANCH
      4838**DCL      4839--REDEF    4857<<ASSIGN   4864>>ASSIGN   4872<>CALL     4876>>ASSIGN   4895<<ASSIGN
      4899<<ASSIGN   4901<<ASSIGN   4901>>ASSIGN   4903<<ASSIGN   4903>>ASSIGN   4904<>CALL     4909>>ASSIGN
      4910>>ASSIGN
DISPLACEMENT IN PROCEDURE DECODE_ADDR_SYL
      5160**DCL      5328<<ASSIGN   5332<<ASSIGN   5334<<ASSIGN   5334>>ASSIGN   5336<<ASSIGN   5336>>ASSIGN
      5337<>CALL     5342>>ASSIGN   5343>>ASSIGN
DSP_RM IN PROCEDURE DECODE_DD
      5112**LABEL    5092--GOTO     5097--GOTO
END_POINT1 IN PROCEDURE I_O_INSTR
      4991**DCL      4999<<CALLBLT  5000>>CALLBLT  5013<<CALLBLT  5014>>CALLBLT  5027<<CALLBLT  5028>>CALLBLT
END_POINT2 IN PROCEDURE I_O_INSTR
      4992**DCL      5001<<CALLBLT  5002<<ASSIGN   5002>>ASSIGN   5003>>CALLBLT  5004<<CALLBLT  5015>>CALLBLT
FD_NONBLK IN PROCEDURE DFR$MERGE
      5704**LABEL    5701--GOTO
FORM.HEX3
      4590**DCL      4591--REDEF    4594--REDEF    4966>>ASSIGN
FORM.HEX3S.TYPE
      4595**DCL      4973>>ASSIGN
FORM.HEX4
      4597**DCL      4700>>IF       4702>>IF       4704>>IF
FPRG$CONTEXT.FANLZ
      4480**DCL      5623>>IF
GENERIC_INSTRUCTIONS
      4532**DCL      4656>>ASSIGN   4696>>ASSIGN
GENERIC_TYPE
      4533**DCL      4650>>DOCASE
HEX_SIZE
      4616**DCL      4810<>CALL     4811>>ASSIGN   4812>>ASSIGN
I
      4617**DCL      4625<<DOINDEX  4626>>ASSIGN   4626>>ASSIGN
I IN PROCEDURE CONVERT_BIN_TO_DEC
      5655**DCL      5667<<ASSIGN   5668>>DOWHILE  5669<<ASSIGN   5669>>ASSIGN   5671>>DOWHILE  5672>>ASSIGN
      5673<<ASSIGN   5673>>ASSIGN
I IN PROCEDURE DFR$MERGE
PL6.E3A0      #001=DFR$INSTR File=DFR$INSTR.:E05TSI                              TUE 07/29/97 14:41 Page:217
      5695**DCL      5697<<DOINDEX  5698>>IF       5700>>ASSIGN
I IN PROCEDURE I_O_INSTR
      4995**DCL      5007<<DOINDEX  5008>>ASSIGN   5008>>ASSIGN   5021<<DOINDEX  5022>>ASSIGN   5022>>ASSIGN
INDEX_FLAG
      4610**DCL      4750>>IF       5192<<ASSIGN   5216<<ASSIGN   5227<<ASSIGN   5247<<ASSIGN   5268<<ASSIGN
      5306<<ASSIGN   5324<<ASSIGN   5351<<ASSIGN   5378<<ASSIGN   5403<<ASSIGN   5414<<ASSIGN   5430<<ASSIGN
      5558<<ASSIGN   5594<<ASSIGN
INDX IN PROCEDURE DECODE_DD
      5062**DCL      5066<<ASSIGN   5067>>IF       5068>>CALLBLT  5069<<ASSIGN   5069>>ASSIGN   5072<<ASSIGN
      5072>>ASSIGN   5074>>CALLBLT  5075>>CALLBLT  5077>>ASSIGN   5081>>CALLBLT  5082>>CALLBLT  5083<<ASSIGN
      5083>>ASSIGN   5085>>CALLBLT  5086<<ASSIGN   5086>>ASSIGN   5090>>CALLBLT  5091<<ASSIGN   5091>>ASSIGN
      5094>>CALLBLT  5095<<ASSIGN   5095>>ASSIGN   5099>>CALL     5100<<CALLBLT  5101>>CALLBLT  5102>>ASSIGN
      5108>>CALLBLT  5109<<ASSIGN   5109>>ASSIGN   5111>>CALLBLT  5112<<ASSIGN   5112>>ASSIGN   5115>>CALLBLT
      5116<<ASSIGN   5116>>ASSIGN   5117>>CALL     5118<<CALLBLT  5121>>CALLBLT  5122<<ASSIGN   5122>>ASSIGN
      5124>>CALLBLT  5125>>ASSIGN   5132<<ASSIGN   5134>>CALLBLT  5135>>ASSIGN   5141>>CALLBLT  5143>>CALLBLT
      5144<<ASSIGN   5144>>ASSIGN   5146>>ASSIGN
INPUT IN PROCEDURE DFR$MERGE
      5693**DCL      5691--PROC     5698>>IF       5704<<CALLBLT  5707>>CALLBLT
INSTR
      4564**DCL      4565--REDEF    4568--REDEF    4571--REDEF    4578--REDEF    4581--REDEF    4584--REDEF
      4587--REDEF    4598--REDEF    4601--REDEF    4605--REDEF    4629<<ASSIGN   4661<<ASSIGN   4662>>IF
      5011<<ASSIGN   5025<<ASSIGN
INSTRUCT
      4547**DCL        21--PROC     4548--REDEF    4810<>CALL
INSTRUCT2.RIGHT16
      4550**DCL      4626>>ASSIGN
INSTRUCTION.FUNCTION
      4567**DCL      4650>>DOCASE   4656>>ASSIGN   4696>>ASSIGN
INSTRUCTION.INDEXX
      4566**DCL      4643>>DOCASE   4738>>ASSIGN   4743>>ASSIGN   4748>>ASSIGN   4758>>ASSIGN   4764>>ASSIGN
      4769>>ASSIGN   4774>>ASSIGN   4779>>ASSIGN   4784>>ASSIGN   4789>>ASSIGN   4794>>ASSIGN   4858>>ASSIGN
      4948>>ASSIGN   4965>>ASSIGN   4972>>ASSIGN   4997>>ASSIGN   5271>>DOCASE   5280>>IF       5280>>IF
      5280>>IF       5280>>IF       5280>>IF       5280>>IF       5280>>IF       5387>>DOCASE
INSTRUCTIONS
      4530**DCL      4738>>ASSIGN   4743>>ASSIGN   4748>>ASSIGN   4758>>ASSIGN   4764>>ASSIGN   4769>>ASSIGN
      4774>>ASSIGN   4779>>ASSIGN   4784>>ASSIGN   4789>>ASSIGN   4794>>ASSIGN   4858>>ASSIGN   4948>>ASSIGN
PL6.E3A0      #001=DFR$INSTR File=DFR$INSTR.:E05TSI                              TUE 07/29/97 14:41 Page:218
      4997>>ASSIGN
INSTRUCTION_TYPE
      4531**DCL      4643>>DOCASE   4965>>ASSIGN   4972>>ASSIGN   5271>>DOCASE   5387>>DOCASE
INSTR_ARRAY
      4552**DCL      4628<<ASSIGN   4629>>ASSIGN   4661>>ASSIGN   4862>>ASSIGN   4863>>ASSIGN   4894>>ASSIGN
      5008<<ASSIGN   5008>>ASSIGN   5011>>ASSIGN   5022<<ASSIGN   5022>>ASSIGN   5025>>ASSIGN   5063>>ASSIGN
      5064>>ASSIGN   5129>>ASSIGN   5130>>ASSIGN   5230>>ASSIGN   5231>>ASSIGN   5250>>ASSIGN   5251>>ASSIGN
      5274>>ASSIGN   5275>>ASSIGN   5285>>ASSIGN   5286>>ASSIGN   5293>>ASSIGN   5313>>ASSIGN   5327>>ASSIGN
      5354>>ASSIGN   5435>>ASSIGN   5436>>ASSIGN   5463>>ASSIGN   5464>>ASSIGN   5533>>ASSIGN   5567>>ASSIGN
      5640>>ASSIGN
INSTR_IN
      4551**DCL      4626<<ASSIGN   4628>>ASSIGN
INSTR_SIZE
      4618**DCL        21--PROC     4817<<ASSIGN
IOLD_INSTR_FLAG
      4613**DCL      4731<<ASSIGN   4734<<ASSIGN   5020>>IF
I_O_INSTR
      4990**PROC     4727--CALL     4733--CALL
I_O_INSTR_FLAG
      4612**DCL      4633<<ASSIGN   4726<<ASSIGN   4728<<ASSIGN   4732<<ASSIGN   4735<<ASSIGN   5307>>IF
J IN PROCEDURE CONVERT_BIN_TO_DEC
      5656**DCL      5664<<ASSIGN   5666<<ASSIGN   5672>>ASSIGN   5674<<ASSIGN   5674>>ASSIGN   5676>>ASSIGN
KEEP_GOING IN PROCEDURE DECODE_ADDR_SYL
      5631**LABEL    5623--GOTO     5627--GOTO
LDT_INSTR.LDT_INDICATOR1
      4602**DCL      4676>>IF
LDT_INSTR.LDT_INDICATOR2
      4604**DCL      4676>>IF
LDT_INSTR.REGISTER
      4603**DCL      4677>>CALLBLT
LEN IN PROCEDURE DECODE_ADDR_SYL
      5177**DCL      5277<<ASSIGN   5289<<ASSIGN   5296<<ASSIGN   5304>>CALLBLT
L_ZEROS
      4615**DCL      4810<>CALL     4812>>ASSIGN   4872<>CALL     4880>>IF       4882>>CALLBLT  4882>>CALLBLT
      4904<>CALL     4914>>CALLBLT  4914>>CALLBLT  4916>>CALLBLT  4916>>CALLBLT  4924<>CALL     4934>>CALLBLT
      4934>>CALLBLT  4936>>CALLBLT  4936>>CALLBLT  5239<>CALL     5240>>IF       5242>>CALLBLT  5242>>CALLBLT
PL6.E3A0      #001=DFR$INSTR File=DFR$INSTR.:E05TSI                              TUE 07/29/97 14:41 Page:219
      5259<>CALL     5260>>IF       5262>>CALLBLT  5262>>CALLBLT  5298<>CALL     5314<>CALL     5320>>CALLBLT
      5320>>CALLBLT  5337<>CALL     5346>>CALLBLT  5346>>CALLBLT  5348>>CALLBLT  5348>>CALLBLT  5364<>CALL
      5373>>CALLBLT  5373>>CALLBLT  5375>>CALLBLT  5375>>CALLBLT  5446<>CALL     5452>>IF       5454>>CALLBLT
      5454>>CALLBLT  5469<>CALL     5470>>IF       5472>>CALLBLT  5472>>CALLBLT  5540<>CALL     5551>>CALLBLT
      5551>>CALLBLT  5554>>CALLBLT  5554>>CALLBLT  5574<>CALL     5587>>CALLBLT  5587>>CALLBLT  5589>>CALLBLT
      5589>>CALLBLT  5641<>CALL
MASK IN PROCEDURE MASK_PRESENT
      5637**DCL      5639<<ASSIGN   5640<<ASSIGN   5641<>CALL
MASK_PRESENT
      5635**PROC     4751--CALL     4760--CALL     4796--CALL
N IN PROCEDURE DECODE_ADDR_SYL
      5179**DCL      5624<<ASSIGN   5625<>CALL     5629<<ASSIGN   5630>>ASSIGN
OP_B_REGS
      4560**DCL      4670>>CALLBLT  4677>>CALLBLT  5390>>ASSIGN   5397>>ASSIGN
OP_R_REGS
      4558**DCL      5399>>ASSIGN
OUT
      4619**DCL        21--PROC     4823>>IF
POSITION IN PROCEDURE BRANCH
      4843**DCL      4878<<CALLBLT  4879<<ASSIGN   4879>>ASSIGN   4880>>CALLBLT  4882>>CALLBLT  4886<<CALLBLT
      4887<<ASSIGN   4887>>ASSIGN   4888>>CALLBLT  4889>>ASSIGN   4912<<CALLBLT  4913<<ASSIGN   4913>>ASSIGN
      4914>>CALLBLT  4915>>CALLBLT  4916>>CALLBLT  4932<<CALLBLT  4933<<ASSIGN   4933>>ASSIGN   4934>>CALLBLT
      4936>>CALLBLT
POSITION IN PROCEDURE DECODE_ADDR_SYL
      5175**DCL      5308<<CALLBLT  5309>>ASSIGN   5345<<CALLBLT  5346>>CALLBLT  5347>>CALLBLT  5348>>CALLBLT
      5372<<CALLBLT  5373>>CALLBLT  5374>>CALLBLT  5375>>CALLBLT
POSITION IN PROCEDURE DFR$MERGE
      5694**DCL      5691--PROC     5700<<ASSIGN   5704>>CALLBLT  5705<<CALLBLT  5706<<ASSIGN   5706>>ASSIGN
      5707>>CALLBLT  5708<<CALLBLT
POSITION IN PROCEDURE MASK_PRESENT
      5636**DCL      5642<<CALLBLT  5643>>CALLBLT
POSITION IN PROCEDURE SHIFT_SINGLE_REG
      4963**DCL      4982<<CALLBLT  4983<<ASSIGN   4983>>ASSIGN   4984>>CALLBLT
POSITION IN PROCEDURE SHORT_VALUE_IMMEDIATE
      4946**DCL      4951<<CALLBLT  4952<<ASSIGN   4952>>ASSIGN   4953>>CALLBLT
PREL
PL6.E3A0      #001=DFR$INSTR File=DFR$INSTR.:E05TSI                              TUE 07/29/97 14:41 Page:220
      4553**DCL      4914>>CALLBLT  4915>>CALLBLT  4916>>CALLBLT  5346>>CALLBLT  5347>>CALLBLT  5348>>CALLBLT
      5373>>CALLBLT  5374>>CALLBLT  5375>>CALLBLT
PROCESS_VALUE IN PROCEDURE SHIFT_SINGLE_REG
      4974**LABEL    4968--GOTO
PTAB
      4620**DCL        21--PROC     4634--IF       4635>>ASSIGN
RASSED_INSTR.BUFFER
      4543**DCL      4631<<ASSIGN   4656<<ASSIGN   4658>>CALLBLT  4663<<ASSIGN   4670<<CALLBLT  4677<<CALLBLT
      4686<<CALLBLT  4696<<ASSIGN   4738<<ASSIGN   4740<>CALL     4743<<ASSIGN   4745<>CALL     4748<<ASSIGN
      4755<>CALL     4758<<ASSIGN   4761<>CALL     4764<<ASSIGN   4766<>CALL     4769<<ASSIGN   4771<>CALL
      4774<<ASSIGN   4776<>CALL     4779<<ASSIGN   4781<>CALL     4784<<ASSIGN   4786<>CALL     4789<<ASSIGN
      4791<>CALL     4794<<ASSIGN   4797<>CALL     4802<<ASSIGN   4813<<CALLBLT  4826>>ASSIGN   4858<<ASSIGN
      4878>>CALLBLT  4880<<CALLBLT  4882<<CALLBLT  4883>>CALLBLT  4886>>CALLBLT  4888<<CALLBLT  4912>>CALLBLT
      4914<<CALLBLT  4915<<CALLBLT  4916<<CALLBLT  4917>>CALLBLT  4932>>CALLBLT  4934<<CALLBLT  4936<<CALLBLT
      4937>>CALLBLT  4948<<ASSIGN   4951>>CALLBLT  4953<<CALLBLT  4955>>CALLBLT  4966<<ASSIGN   4973<<ASSIGN
      4982>>CALLBLT  4984<<CALLBLT  4985>>CALLBLT  4997<<ASSIGN   5001>>CALLBLT  5003<<CALLBLT  5004>>CALLBLT
      5015<<CALLBLT  5018>>CALLBLT  5029<<CALLBLT  5030>>CALLBLT  5037<<ASSIGN   5068<<CALLBLT  5071<<CALLBLT
      5074<<CALLBLT  5075<<CALLBLT  5081<<CALLBLT  5082<<CALLBLT  5085<<CALLBLT  5090<<CALLBLT  5094<<CALLBLT
      5099<>CALL     5100>>CALLBLT  5101<<CALLBLT  5108<<CALLBLT  5111<<CALLBLT  5115<<CALLBLT  5117<>CALL
      5118>>CALLBLT  5121<<CALLBLT  5124<<CALLBLT  5134<<CALLBLT  5139<<CALLBLT  5140<<CALLBLT  5141<<CALLBLT
      5143<<CALLBLT  5642>>CALLBLT  5643<<CALLBLT
RASSED_INSTR.COUNT
      4542**DCL      4630<<ASSIGN   4658<<CALLBLT  4665<<ASSIGN   4672<<ASSIGN   4679<<ASSIGN   4689<<ASSIGN
      4698<<ASSIGN   4740<>CALL     4745<>CALL     4755<>CALL     4761<>CALL     4766<>CALL     4771<>CALL
      4776<>CALL     4781<>CALL     4786<>CALL     4791<>CALL     4797<>CALL     4801<<ASSIGN   4811<<ASSIGN
      4813>>CALLBLT  4826>>ASSIGN   4828>>ASSIGN   4883<<CALLBLT  4889<<ASSIGN   4917<<CALLBLT  4937<<CALLBLT
      4955<<CALLBLT  4985<<CALLBLT  5018<<CALLBLT  5029>>CALLBLT  5030<<CALLBLT  5036<<ASSIGN   5066>>ASSIGN
      5077<<ASSIGN   5102<<ASSIGN   5125<<ASSIGN   5132>>ASSIGN   5135<<ASSIGN   5146<<ASSIGN   5349<<CALLBLT
      5376<<CALLBLT
RASSED_INSTR.WORDS_USED
      4544**DCL      4632<<ASSIGN   4657<<ASSIGN   4664<<ASSIGN   4671<<ASSIGN   4678<<ASSIGN   4688<<ASSIGN
      4697<<ASSIGN   4803<<ASSIGN   4808>>IF       4814<<ASSIGN   4817>>ASSIGN   4891<<ASSIGN   4918<<ASSIGN
      4938<<ASSIGN   4954<<ASSIGN   4986<<ASSIGN   5005>>ASSIGN   5007>>DOINDEX  5008>>ASSIGN   5016>>ASSIGN
      5017<<ASSIGN   5017>>ASSIGN   5024>>ASSIGN   5031<<ASSIGN   5031>>ASSIGN   5038<<ASSIGN   5063>>ASSIGN
      5064>>ASSIGN   5076<<ASSIGN   5076>>ASSIGN   5080<<ASSIGN   5080>>ASSIGN   5129>>ASSIGN   5130>>ASSIGN
      5131<<ASSIGN   5131>>ASSIGN   5215<<ASSIGN   5226<<ASSIGN   5246<<ASSIGN   5267<<ASSIGN   5278<<ASSIGN
PL6.E3A0      #001=DFR$INSTR File=DFR$INSTR.:E05TSI                              TUE 07/29/97 14:41 Page:221
      5287<<ASSIGN   5294<<ASSIGN   5323<<ASSIGN   5350<<ASSIGN   5377<<ASSIGN   5402<<ASSIGN   5413<<ASSIGN
      5429<<ASSIGN   5458<<ASSIGN   5476<<ASSIGN   5500<<ASSIGN   5524<<ASSIGN   5557<<ASSIGN   5593<<ASSIGN
      5606<<ASSIGN   5618<<ASSIGN   5640>>ASSIGN   5644<<ASSIGN   5644>>ASSIGN
REGISTER IN PROCEDURE SHIFT_SINGLE_REG
      4962**DCL      4965<<ASSIGN   4966>>ASSIGN   4972<<ASSIGN   4973>>ASSIGN
RLQ_INSTR.REGISTER
      4600**DCL      4670>>CALLBLT
RLQ_INSTR.RLQ_INDICATOR
      4599**DCL      4669>>IF
R_ADDRESS.HIGH_ORDER_BITS IN PROCEDURE DECODE_ADDR_SYL
      5154**DCL      5230<<ASSIGN   5250<<ASSIGN   5285<<ASSIGN   5435<<ASSIGN   5463<<ASSIGN
R_ADDRESS.LOW_ORDER_BITS IN PROCEDURE DECODE_ADDR_SYL
      5155**DCL      5231<<ASSIGN   5251<<ASSIGN   5286<<ASSIGN   5293<<ASSIGN   5313<<ASSIGN   5354<<ASSIGN
      5436<<ASSIGN   5464<<ASSIGN   5533<<ASSIGN   5567<<ASSIGN
R_ADDRESS_32BITS.HIGH_ORDER_BITS IN PROCEDURE DECODE_ADDR_SYL
      5158**DCL      5274<<ASSIGN
R_ADDRESS_32BITS.LOW_ORDER_BITS IN PROCEDURE DECODE_ADDR_SYL
      5159**DCL      5275<<ASSIGN
R_DISPLACEMENT.HIGH_ORDER_BITS IN PROCEDURE BRANCH
      4841**DCL      4862<<ASSIGN
R_DISPLACEMENT.LOW_ORDER_BITS IN PROCEDURE BRANCH
      4842**DCL      4863<<ASSIGN
R_REGISTERS
      4554**DCL      4686>>CALLBLT  5444>>CALLBLT  5452>>CALLBLT  5454>>CALLBLT  5467>>CALLBLT  5470>>CALLBLT
      5472>>CALLBLT  5499>>CALLBLT  5523>>CALLBLT  5605>>CALLBLT  5617>>CALLBLT
R_TEMP_TEXT IN PROCEDURE CONVERT_BIN_TO_DEC
      5654**DCL      5659<<ASSIGN
R_TEXT IN PROCEDURE CONVERT_BIN_TO_DEC
      5651**DCL      5662>>IF       5668>>DOWHILE  5672>>ASSIGN   5677<<ASSIGN
SCI_REGS
      4562**DCL      5394>>ASSIGN
SCW.C IN PROCEDURE DECODE_DD
      5059**DCL      5141>>CALLBLT
SCW.DIR IN PROCEDURE DECODE_DD
      5057**DCL      5139>>IF
SCW.RND IN PROCEDURE DECODE_DD
PL6.E3A0      #001=DFR$INSTR File=DFR$INSTR.:E05TSI                              TUE 07/29/97 14:41 Page:222
      5060**DCL      5142>>IF
SHIFT_DOUBLE.VALUE
      4583**DCL      4974>>ASSIGN
SHIFT_DOUBLE_REG IN PROCEDURE SHIFT_SINGLE_REG
      4970**ENTRY    4723--CALL
SHIFT_D_INSTRUCTIONS
      4535**DCL      4973>>ASSIGN
SHIFT_INSTRUCTIONS
      4534**DCL      4966>>ASSIGN
SHIFT_SINGLE.VALUE
      4580**DCL      4967>>ASSIGN
SHIFT_SINGLE_REG
      4959**PROC     4720--CALL
SHORT_VALUE_IMMEDIATE
      4943**PROC     4717--CALL
SIGN IN PROCEDURE DFR$SIGN
      5683**DCL      5682--PROC     5686<<ASSIGN   5687<<ASSIGN   5688<<ASSIGN
SIGNED_16BITS IN PROCEDURE BRANCH
      4853**DCL      4894<<ASSIGN   4895>>ASSIGN   4896>>IF       4897>>ASSIGN   4901>>IF       4908>>IF
      4914>>IF       4915>>IF
SIGNED_16BITS IN PROCEDURE DECODE_ADDR_SYL
      5166**DCL      5327<<ASSIGN   5328>>ASSIGN   5329>>IF       5330>>ASSIGN   5334>>IF       5341>>IF
      5346>>IF       5347>>IF
SIGNED_VALUE IN PROCEDURE DECODE_ADDR_SYL
      5165**DCL      5355<<ASSIGN   5356>>IF       5357>>ASSIGN   5361>>IF       5368>>IF       5373>>IF
      5374>>IF       5534<<ASSIGN   5535>>IF       5536>>ASSIGN   5546>>DOCASE   5551>>IF       5568<<ASSIGN
      5569>>IF       5570>>ASSIGN   5578>>IF       5582>>DOCASE   5587>>IF
SINGLE_OPERAND IN PROCEDURE DECODE_ADDR_SYL
      5293**LABEL    5284--GOTO
SPREL IN PROCEDURE BRANCH
      4844**DCL      4934>>CALLBLT  4936>>CALLBLT
START IN PROCEDURE DECODE_ADDR_SYL
      5176**DCL      5276<<ASSIGN   5288<<ASSIGN   5295<<ASSIGN   5304>>CALLBLT
SV.VALUE
      4570**DCL      4949>>ASSIGN
SYMBOL_ADDR IN PROCEDURE BRANCH
PL6.E3A0      #001=DFR$INSTR File=DFR$INSTR.:E05TSI                              TUE 07/29/97 14:41 Page:223
      4851**DCL      4864<<ASSIGN   4865<>CALL     4869>>ASSIGN
SYM_BUF$ IN PROCEDURE BRANCH
      4847**DCL      4856<<ASSIGN   4865<>CALL
SYM_BUF$ IN PROCEDURE DECODE_ADDR_SYL
      5161**DCL      5189<<ASSIGN   5232<>CALL     5252<>CALL     5437<>CALL     5465<>CALL
SYM_LEN IN PROCEDURE BRANCH
      4849**DCL      4865<>CALL     4871>>IF       4888>>CALLBLT  4889>>ASSIGN
SYM_LEN IN PROCEDURE DECODE_ADDR_SYL
      5163**DCL      5232<>CALL     5238>>IF       5244>>ASSIGN   5252<>CALL     5258>>IF       5265>>ASSIGN
      5437<>CALL     5443>>IF       5444>>CALLBLT  5465<>CALL     5466>>IF       5467>>CALLBLT
SYM_TEXT IN PROCEDURE BRANCH
      4848**DCL      4856--ASSIGN   4888>>CALLBLT
SYM_TEXT IN PROCEDURE DECODE_ADDR_SYL
      5162**DCL      5189--ASSIGN   5240<<ASSIGN   5242<<CALLBLT  5244<<ASSIGN   5244>>ASSIGN   5245>>ASSIGN
      5260<<ASSIGN   5262<<CALLBLT  5265<<ASSIGN   5265>>ASSIGN   5266>>CALLBLT  5320<<CALLBLT  5322>>ASSIGN
      5444<<CALLBLT  5452<<CALLBLT  5454<<CALLBLT  5457>>ASSIGN   5467<<CALLBLT  5470<<CALLBLT  5472<<CALLBLT
      5475>>CALLBLT
S_D.CURRENT_CHANNEL
      2796**DCL      2798--REDEF
S_D.CURRENT_FPRG_CONTEXT$
      1996**DCL      5622>>IF       5623>>IF
S_D.D$
      1934**DCL      4824>>IF       4825>>ASSIGN   4826>>ASSIGN   4828<<ASSIGN   4828>>ASSIGN   4829>>IF
S_D.DEBUGA
      1948**DCL      1950--REDEF
S_D.DESCL$
      1930**DCL      4824>>IF       4825>>ASSIGN   4829>>IF
S_D.EIS
      2906**DCL      2935--REDEF
S_D.ERROR
      1877**DCL      4832<<ASSIGN
S_D.HOST_MESSAGE_BUF_REMOTE
      2839**DCL      2840--REDEF    2854--REDEF
S_D.JDE
      2453**DCL      2454--REDEF
S_D.L$.VALUE
PL6.E3A0      #001=DFR$INSTR File=DFR$INSTR.:E05TSI                              TUE 07/29/97 14:41 Page:224
      2006**DCL      2012--REDEF    2020--REDEF    2023--REDEF    2026--REDEF    2029--REDEF
S_D.L$.VALUE.L
      2007**DCL      2008--REDEF    2009--REDEF
S_D.L6_MESSAGE_BUF
      2860**DCL      2862--REDEF
S_D.L6_TAB
      2898**DCL      4639<<ASSIGN   4868<<ASSIGN   4875<<ASSIGN   4907<<ASSIGN   4927<<ASSIGN   5235<<ASSIGN
      5255<<ASSIGN   5301<<ASSIGN   5317<<ASSIGN   5340<<ASSIGN   5367<<ASSIGN   5416<<ASSIGN   5440<<ASSIGN
      5449<<ASSIGN   5543<<ASSIGN   5577<<ASSIGN
S_D.L6_TAB_VALUE
      2900**DCL      4640<<ASSIGN   4869<<ASSIGN   4876<<ASSIGN   4909<<ASSIGN   4910<<ASSIGN   4929<<ASSIGN
      4930<<ASSIGN   5236<<ASSIGN   5256<<ASSIGN   5302<<ASSIGN   5318<<ASSIGN   5342<<ASSIGN   5343<<ASSIGN
      5369<<ASSIGN   5370<<ASSIGN   5417<<ASSIGN   5441<<ASSIGN   5450<<ASSIGN   5544<<ASSIGN   5579<<ASSIGN
      5580<<ASSIGN   5630<<ASSIGN   5630>>ASSIGN
S_D.O$.ADDRESS
      2037**DCL      4909>>ASSIGN   4910>>ASSIGN   4929>>ASSIGN   4930>>ASSIGN   5342>>ASSIGN   5343>>ASSIGN
      5369>>ASSIGN   5370>>ASSIGN   5579>>ASSIGN   5580>>ASSIGN
S_D.OUTPUT
      2826**DCL      2828--REDEF
S_D.REMOTE_MSG.FNCC
      2845**DCL      2846--REDEF
S_D.REMOTE_MSG.STXC
      2841**DCL      2842--REDEF
S_D.REMOTE_MSG.SUBFNCC
      2849**DCL      2850--REDEF
S_D.SV
      1905**DCL      1926--REDEF
S_D$
      3157**DCL      1853--IMP-PTR  4639>>ASSIGN   4640>>ASSIGN   4824>>IF       4824>>IF       4825>>ASSIGN
      4825>>ASSIGN   4826>>ASSIGN   4828>>ASSIGN   4828>>ASSIGN   4829>>IF       4829>>IF       4832>>ASSIGN
      4868>>ASSIGN   4869>>ASSIGN   4875>>ASSIGN   4876>>ASSIGN   4907>>ASSIGN   4909>>ASSIGN   4909>>ASSIGN
      4910>>ASSIGN   4910>>ASSIGN   4927>>ASSIGN   4929>>ASSIGN   4929>>ASSIGN   4930>>ASSIGN   4930>>ASSIGN
      5235>>ASSIGN   5236>>ASSIGN   5255>>ASSIGN   5256>>ASSIGN   5301>>ASSIGN   5302>>ASSIGN   5317>>ASSIGN
      5318>>ASSIGN   5340>>ASSIGN   5342>>ASSIGN   5342>>ASSIGN   5343>>ASSIGN   5343>>ASSIGN   5367>>ASSIGN
      5369>>ASSIGN   5369>>ASSIGN   5370>>ASSIGN   5370>>ASSIGN   5416>>ASSIGN   5417>>ASSIGN   5440>>ASSIGN
      5441>>ASSIGN   5449>>ASSIGN   5450>>ASSIGN   5543>>ASSIGN   5544>>ASSIGN   5577>>ASSIGN   5579>>ASSIGN
PL6.E3A0      #001=DFR$INSTR File=DFR$INSTR.:E05TSI                              TUE 07/29/97 14:41 Page:225
      5579>>ASSIGN   5580>>ASSIGN   5580>>ASSIGN   5622>>IF       5623>>IF       5630>>ASSIGN   5630>>ASSIGN
TAB
      4621**DCL      4635<<ASSIGN   4636<<ASSIGN   4637>>IF       4866>>IF       4873>>IF       4905>>IF
      4925>>IF       5233>>IF       5253>>IF       5299>>IF       5315>>IF       5338>>IF       5365>>IF
      5415>>IF       5438>>IF       5447>>IF       5541>>IF       5575>>IF       5622>>IF
TEMP_TEXT IN PROCEDURE CONVERT_BIN_TO_DEC
      5653**DCL      5654--REDEF    5663<<ASSIGN   5672<<ASSIGN   5676<<ASSIGN   5677>>ASSIGN
TEXT IN PROCEDURE CONVERT_BIN_TO_DEC
      5650**DCL      5649--PROC     5651--REDEF    5658<<ASSIGN   5660<<ASSIGN   5661<<CALLBLT
TEXT_HEX
      4614**DCL      4810<>CALL     4812<<ASSIGN   4812>>ASSIGN   4813>>CALLBLT  4872<>CALL     4882>>CALLBLT
      4904<>CALL     4914>>CALLBLT  4916>>CALLBLT  4924<>CALL     4934>>CALLBLT  4936>>CALLBLT  5239<>CALL
      5242>>CALLBLT  5259<>CALL     5262>>CALLBLT  5298<>CALL     5304>>CALLBLT  5314<>CALL     5320>>CALLBLT
      5337<>CALL     5346>>CALLBLT  5348>>CALLBLT  5364<>CALL     5373>>CALLBLT  5375>>CALLBLT  5446<>CALL
      5454>>CALLBLT  5469<>CALL     5472>>CALLBLT  5540<>CALL     5551>>CALLBLT  5554>>CALLBLT  5574<>CALL
      5587>>CALLBLT  5589>>CALLBLT  5641<>CALL     5643>>CALLBLT
T_SIGNED_16BITS IN PROCEDURE BRANCH
      4852**DCL      4897<<ASSIGN   4898<<ASSIGN   4898>>ASSIGN   4899>>ASSIGN
T_SIGNED_16BITS IN PROCEDURE DECODE_ADDR_SYL
      5167**DCL      5330<<ASSIGN   5331<<ASSIGN   5331>>ASSIGN   5332>>ASSIGN
T_SIGNED_VALUE IN PROCEDURE DECODE_ADDR_SYL
      5168**DCL      5357<<ASSIGN   5358<<ASSIGN   5358>>ASSIGN   5359>>ASSIGN   5536<<ASSIGN   5537<<ASSIGN
      5537>>ASSIGN   5538>>ASSIGN   5570<<ASSIGN   5571<<ASSIGN   5571>>ASSIGN   5572>>ASSIGN
V IN PROCEDURE DECODE_ADDR_SYL
      5180**DCL      5625<>CALL
V.X IN PROCEDURE DECODE_ADDR_SYL
      5182**DCL      5629>>ASSIGN   5629>>ASSIGN
VALUE IN PROCEDURE BRANCH
      4845**DCL      4921<<ASSIGN   4922>>IF       4922<<ASSIGN   4922>>ASSIGN   4924<>CALL     4929>>ASSIGN
      4930>>ASSIGN
VALUE IN PROCEDURE CONVERT_BIN_TO_DEC
      5652**DCL      5649--PROC     5658>>IF       5661>>CALLBLT
VALUE IN PROCEDURE DFR$SIGN
      5684**DCL      5682--PROC     5686>>IF       5687>>IF       5688>>IF
VALUE IN PROCEDURE SHIFT_SINGLE_REG
      4960**DCL      4967<<ASSIGN   4974<<ASSIGN   4981<>CALL
PL6.E3A0      #001=DFR$INSTR File=DFR$INSTR.:E05TSI                              TUE 07/29/97 14:41 Page:226
VALUE IN PROCEDURE SHORT_VALUE_IMMEDIATE
      4945**DCL      4949<<ASSIGN   4950<>CALL
VALUE_TEXT IN PROCEDURE SHIFT_SINGLE_REG
      4961**DCL      4980<<ASSIGN   4981<>CALL     4984>>CALLBLT
VALUE_TEXT IN PROCEDURE SHORT_VALUE_IMMEDIATE
      4944**DCL      4950<>CALL     4953>>CALLBLT
WORDS_USED IN PROCEDURE I_O_INSTR
      4993**DCL      5005<<ASSIGN   5017>>ASSIGN   5024<<ASSIGN   5031>>ASSIGN
WORDS_USED_2ND IN PROCEDURE I_O_INSTR
      4994**DCL      5016<<ASSIGN   5021>>DOINDEX  5022>>ASSIGN
PL6.E3A0      #001=DFR$INSTR File=DFR$INSTR.:E05TSI                              TUE 07/29/97 14:41 Page:227
              *** CROSS REFERENCE LISTING ***
    **     DENOTES     IDENTIFIER DEFINITION
    <<                 IDENTIFIER'S VALUE SET
    >>                 IDENTIFIER'S VALUE USED
    <>                 IDENTIFIER SET AND/OR USED
    --                 IDENTIFIER REFERENCED
PL6.E3A0      #001=DFR$INSTR File=DFR$INSTR.:E05TSI                              TUE 07/29/97 14:41 Page:228
              MINI UREF LISTING

ACQ    4686**LABEL
A_OK    4799**LABEL
BASE_REL_DIRECT IN PROCEDURE DECODE_ADDR_SYL   5546**LABEL
BASE_REL_INDIRECT IN PROCEDURE DECODE_ADDR_SYL   5582**LABEL
DECODE IN PROCEDURE DECODE_ADDR_SYL   5194**LABEL
DECODE_BRANCH IN PROCEDURE BRANCH   4859**LABEL
DFR$INSTR      21**PROC
DFR$SIGN    5682**PROC
FILL_BUFFER IN PROCEDURE CONVERT_BIN_TO_DEC   5671**LABEL
GENERIC_DECODE    4650**LABEL
GOOD_IO IN PROCEDURE I_O_INSTR   5034**LABEL
LDT    4677**LABEL
NON_ZERO_VALUE IN PROCEDURE CONVERT_BIN_TO_DEC   5658**LABEL
OFFSET IN PROCEDURE BRANCH   4850**DCL
OFFSET IN PROCEDURE DECODE_ADDR_SYL   5164**DCL
PREL_DISPLACEMENT IN PROCEDURE BRANCH   4837**DCL
REGISTER IN PROCEDURE DECODE_ADDR_SYL   5387**LABEL
RLQ    4670**LABEL
SIGN IN PROCEDURE BRANCH   4854**DCL
SIGN IN PROCEDURE DECODE_ADDR_SYL   5173**DCL
SIGNED_VALUE_32BITS IN PROCEDURE DECODE_ADDR_SYL   5171**DCL
STT    4663**LABEL
TEXTX IN PROCEDURE DECODE_ADDR_SYL   5174**DCL
TYPE_DECODE    4643**LABEL
T_SIGNED_VALUE_32BITS IN PROCEDURE DECODE_ADDR_SYL   5172**DCL
UNSIGNED_VALUE IN PROCEDURE DECODE_ADDR_SYL   5169**DCL
UNSIGNED_VALUE_20BITS IN PROCEDURE DECODE_ADDR_SYL   5170**DCL
VALUE_TEXT IN PROCEDURE BRANCH   4836**DCL
ZERO_REMOVE IN PROCEDURE CONVERT_BIN_TO_DEC   5668**LABEL
ZERO_VALUE IN PROCEDURE CONVERT_BIN_TO_DEC   5658**LABEL
