VERSION E05

PL6.E3A0      #001=DFR$REPORT File=DFR$REPORT.:E05TSI                            TUE 07/29/97 14:43 Page:1
        1        1        /*M*  DFR$REPORT  */
        2        2        /*T***********************************************************/
        3        3        /*T*                                                         */
        4        4        /*T* Copyright (c) Bull HN Information Systems Inc., 1997    */
        5        5        /*T*                                                         */
        6        6        /*T***********************************************************/
        7        7        /*X* DMR,PLM=5,IND=5,CSU=3,EXM=0,ECU=3,MOC,DCI=5,CRT=5 */
        8        8        /*P*  NAME: DFR$REPORT
        9        9              PURPOSE: to report breaks, faults, and traces to the user. */
       10       10        /*D* NAME: DFR$REPORT
       11       11             CALL: CALL DFR$REPORT( EVENT );
       12       12             DESCRIPTION: TYPE IS THE CODE OF THE EVENT TO BE REPORTED.  */
       13       13                                                /**/
       14       14        DFR$REPORT: PROC( EVENT );
       15       15                                                /**/
       16       16    1   DCL EVENT UBIN;
       17       17        /**/
       18       18        /* Auto */
       19       19    1   DCL BB$ PTR;
       20       20    1   DCL REM UBIN;
       21       21    1   DCL FAULT UBIN;
       22       22    1   DCL NCARS UBIN;
       23       23    1   DCL CHAR2 CHAR(2) BASED;
       24       24    1   DCL TEMP UBIN;
       25       25    1   DCL MSG_LENGTH UBIN;
       26       26    1   DCL ERROR UBIN;
       27       27    1   DCL SAVEIC UBIN;
       28       28    1   DCL SAVE_D$ PTR;
       29       29    1   DCL SAVE_DESCL$ PTR;
       30       30    1   DCL X1 UBIN;
       31       31        /* Includes */
       32       32        %INCLUDE XUH_MACRO_C;
       33      116        %INCLUDE DD_SD_M;
       34     1452        %S_D;
       35     2770        %S_D_PTRS;
       36     2807        %INCLUDE DD_SUBS_C;
       37     3078        %INCLUDE DD$BASED;
PL6.E3A0      #001=DFR$REPORT File=DFR$REPORT.:E05TSI                            TUE 07/29/97 14:43 Page:2
       38     4381        %INCLUDE DD$DITEM;
       12+    4484             %LIST;
       13+    4485    1        DCL SDD$ PTR;
       14+    4486    1        DCL ZITEM$ PTR;
       15+    4487    1        DCL SDD_L6$ PTR;
       16+    4488    1        DCL ZITEM_L6$ PTR;
       39     5062        %FPRG$CONTEXT;
       40     5125        %INCLUDE GD$MSG_M;
       41     5289        %GD$MSG(FPTN=GD$MSG_HOST, STCLASS="BASED(S_D_HOST_MESSAGE$)", L6=NO);
       42     5445        %GD$MSG(FPTN=GD$MSG, STCLASS="BASED(S_D_L6_MESSAGE$)", L6=YES, L6PTR="UBIN(32) UNAL"
              5445            );
       43     5601        %INCLUDE DD_ERR_C;
       44     5998        %INCLUDE DD_PSUBS_C;
       45     6473        %INCLUDE B$OBJECT_C;
       46     9903        %B$LBNTRY0;
       47     9939        %INCLUDE GM_VIRTUAL_E;
       48    10149        %INCLUDE G_LCP6_E;
       49    10407        /* Entry DCLs */
       50    10408    1   DCL DDE$ERROR ENTRY;
       51    10409    1   DCL DDR$MOVE ENTRY(4) ALTRET;
       52    10410    1   DCL DDR$BINTXT ENTRY(4);
       53    10411    1   DCL DDR$POSIT ENTRY(5) ALTRET;
       54    10412    1   DCL DDQ$WRITE ENTRY(2);
       55    10413    1   DCL DDQ$WRITENU ENTRY(2);
       56    10414    1   DCL DDS$ES_INQ ENTRY(1) ALTRET;
       57    10415    1   DCL DFR$INSTR ENTRY(4) ALTRET;
       58    10416    1   DCL DUE$GERRMSG ENTRY;
       59    10417    1        ERROR = 0;
       60    10418    1        SAVEIC = S_D.SAVEIC;               /* Convert to UBIN */
       61    10419    1        REM = LENGTHC( S_D.OUTPUT );
       62    10420    1        BB$ = ADDR( S_D.OUTPUT );          /* Initialize the buffer pointer */
       63    10421                                                /* Blank the buffer */
       64    10422    1        S_D.OUTPUT = ' ';
       65    10423    1        IF S_D.CURRENT_FPRG_CONTEXT$ -> FPRG$CONTEXT.USER OR S_D.CURRENT_FPRG_CONTEXT$
             10423                 -> FPRG$CONTEXT.FANLZ
       66    10424    2        THEN DO;
       67    10425    2             CALL DDR$MOVE('(', LENGTHC('('), BB$, REM) ALTRET(TOO_BIG);
PL6.E3A0      #001=DFR$REPORT File=DFR$REPORT.:E05TSI                            TUE 07/29/97 14:43 Page:3
       68    10426    2             CALL DDR$MOVE(S_D.CURRENT_FPRG_CONTEXT$ -> FPRG$CONTEXT.RES,
       69    10427    2               S_D.CURRENT_FPRG_CONTEXT$ -> FPRG$CONTEXT.RES_SIZE, BB$, REM) ALTRET(
             10427                        TOO_BIG);
       70    10428    2             CALL DDR$MOVE(') ', LENGTHC(') '), BB$, REM) ALTRET(TOO_BIG);
       71    10429    2           END;
       72    10430    1        IF S_D.CURRENT_FPRG_CONTEXT$ -> FPRG$CONTEXT.FANLZ
       73    10431    1        THEN CALL DDR$MOVE('ANLZing running Fep ', 20, BB$, REM);
       74    10432    1        IF S_D.CURRENT_FPRG_CONTEXT$ -> FPRG$CONTEXT.XDELTA
       75    10433    1          OR S_D.CURRENT_FPRG_CONTEXT$ -> FPRG$CONTEXT.FANLZ
       76    10434    2        THEN DO;
       77    10435    2             IF S_D.USERNO = 0
       78    10436    2             THEN CALL DDR$MOVE('(Monitor) ',LENGTHC('(Monitor) '), BB$, REM)
       79    10437    2                    ALTRET(TOO_BIG);
       80    10438    3             ELSE DO;
       81    10439    3                  IF S_D.MBU
       82    10440    3                  THEN CALL DDR$MOVE('(Monitor for User# ', LENGTHC(
             10440                           '(Monitor for User# '), BB$, REM) ALTRET(TOO_BIG);
       83    10441    3                  ELSE CALL DDR$MOVE('(User# ', LENGTHC('(User# '), BB$, REM) ALTRET(
             10441                           TOO_BIG);
       84    10442    3                  TEMP = S_D.USERNO;
       85    10443    3                  CALL DDR$BINTXT(BB$, TEMP, %X_FMT, NCARS);
       86    10444    3                  CALL UPDTBP;
       87    10445    3                  CALL DDR$MOVE(') ', LENGTHC(') '), BB$, REM) ALTRET(TOO_BIG);
       88    10446    3                END;
       89    10447    2             IF S_D.CURRENT_FPRG_CONTEXT$ -> FPRG$CONTEXT.FANLZ
       90    10448    2             THEN GOTO REPORT;
       91    10449    2           END;
       92    10450    2        DO CASE(EVENT);
       93    10451    2          CASE(%R_FPRG_AT);
       94    10452    2             CALL BINCHAR(BB$ -> CHAR2, S_D.IXFIX);
       95    10453    2             NCARS = 2;
       96    10454    2             CALL UPDTBP;
       97    10455    2             CALL DDR$MOVE(' A_BRK@ ', LENGTHC(' A_BRK@ '), BB$, REM) ALTRET(TOO_BIG);
       98    10456    2             CALL DDR$POSIT(SAVEIC, BB$, REM, NCARS) ALTRET(TOO_BIG);
       99    10457    2             CALL UPDTBP;
      100    10458    2             GOTO REPORT;
      101    10459
PL6.E3A0      #001=DFR$REPORT File=DFR$REPORT.:E05TSI                            TUE 07/29/97 14:43 Page:4
      102    10460    2          CASE(%R_FPRG_ONCALL);
      103    10461    2             CALL BINCHAR(BB$ -> CHAR2, S_D.IXFIX);
      104    10462    2             NCARS = 2;
      105    10463    2             CALL UPDTBP;
      106    10464    2             CALL DDR$MOVE(' ON CALL_BRK@ ', LENGTHC(' ON CALL_BRK@ '), BB$, REM)
             10464                      ALTRET(TOO_BIG);
      107    10465    2             CALL DDR$POSIT(SAVEIC, BB$, REM, NCARS) ALTRET(TOO_BIG);
      108    10466    2             CALL UPDTBP;
      109    10467    2             X1 = GD$MSG.BRKRSP.ADR_FROM$;
      110    10468    2             CALL DDR$MOVE( ' from ', 6, BB$, REM) ALTRET(TOO_BIG);
      111    10469    2             CALL DDR$POSIT (X1, BB$, REM, NCARS) ALTRET(TOO_BIG);
      112    10470    2             CALL UPDTBP;
      113    10471    2             GOTO REPORT;
      114    10472    2          CASE(%R_FPRG_TRAP);
      115    10473    2             IF S_D.CURRENT_FPRG_CONTEXT$ -> FPRG$CONTEXT.INTERPRETIVE AND
      116    10474    2               S_D.INTERPRETIVE AND
      117    10475    2               SAVEIC > %GM_ISR6_BASE
      118    10476
      119    10477    3             THEN DO;
      120    10478    3                  IF S_D.FAULT = %G_FPRG_EXIT#
      121    10479    3                  THEN CALL DDR$MOVE(' FPL EXIT @ ', LENGTHC(' FPL EXIT @ '), BB$, REM)
             10479                           ALTRET(TOO_BIG);
      122    10480    3                  ELSE CALL DDR$MOVE(' Interpreter Trapped @ ', LENGTHC(
             10480                           ' Interpreter Trapped @ '), BB$, REM) ALTRET(TOO_BIG);
      123    10481    3                END;
      124    10482    2             ELSE CALL DDR$MOVE(' IC = ', LENGTHC(' IC = '), BB$, REM) ALTRET(TOO_BIG);
      125    10483    2             CALL DDR$POSIT(SAVEIC, BB$, REM, NCARS) ALTRET(TOO_BIG);
      126    10484    2             CALL UPDTBP;
      127    10485    2             MSG_LENGTH = POFFC(BB$, ADDR(S_D.OUTPUT));
      128    10486    2             CALL DDQ$WRITE(ADDR(S_D.OUTPUT), MSG_LENGTH);
      129    10487                                                /* Call M$ERRMSG to report trap */
      130    10488    2             S_D.JDE = S_D.BRKRSP_ERRCODE;
      131    10489    2             IF S_D.JDE ~= 0
      132    10490    2             THEN CALL DUE$GERRMSG;
      133    10491    2             GOTO RETN;
      134    10492    2          CASE(%R_FPRG_STOP);
      135    10493    2             CALL DDR$MOVE('Stopped at IC = ', LENGTHC('Stopped at IC = '),
PL6.E3A0      #001=DFR$REPORT File=DFR$REPORT.:E05TSI                            TUE 07/29/97 14:43 Page:5
      136    10494    2               BB$, REM) ALTRET(TOO_BIG);
      137    10495    2             CALL DDR$POSIT(SAVEIC, BB$, REM, NCARS) ALTRET(TOO_BIG);
      138    10496    2             CALL UPDTBP;
      139    10497    2             GOTO REPORT;
      140    10498    2          CASE(%R_FPRG_RUN);
      141    10499    2             CALL DDR$MOVE('Running', LENGTHC('Running'), BB$, REM) ALTRET(TOO_BIG);
      142    10500    2             GOTO REPORT;
      143    10501    2          CASE(%R_FPRG_DISASSOC);
      144    10502    2             CALL DDR$MOVE('Running - DELTA Disassociated',
      145    10503    2               LENGTHC('Running - DELTA Disassociated'), BB$, REM) ALTRET(TOO_BIG);
      146    10504    2             GOTO REPORT;
      147    10505    2          CASE(%R_FPRG_ATEXIT);
      148    10506    2             CALL DDR$MOVE('Exitted at IC = ', LENGTHC('Exitted at IC = '),
      149    10507    2               BB$, REM) ALTRET(TOO_BIG);
      150    10508    2             CALL DDR$POSIT(SAVEIC, BB$, REM, NCARS) ALTRET(TOO_BIG);
      151    10509    2             CALL UPDTBP;
      152    10510    2             GOTO REPORT;
      153    10511    2          CASE(%R_FPRG_STEP);
      154    10512    2             CALL DDR$POSIT(SAVEIC, BB$, REM, NCARS) ALTRET(TOO_BIG);
      155    10513    2             CALL UPDTBP;
      156    10514    2             CALL DDS$ES_INQ(SAVEIC) ALTRET(STEP0);
      157    10515    2             IF S_D.CURRENT_FPRG_CONTEXT$ -> FPRG$CONTEXT.STEP_MODE = C@INSTRUCTIONS
             10515                      /* C@INSTRUCTIONS */
      158    10516    2             THEN GOTO STEP0;
      159    10517    2             IF S_D.QSCH.OK AND S_D.SCHEMA
      160    10518    2             THEN IF S_D.REPORT_FLAGS.OFFSET( S_D.LB0$ -> B$LBNTRY0.COMPILER )
      161    10519    2                  THEN GOTO STEP0;         /* Report instruction */
      162    10520    2                  ELSE ;                   /* Don't report instruction */
      163    10521    2             ELSE GOTO STEP0;
      164    10522    3             DO WHILE ( '0'B );
      165    10523    3   STEP0:         ;
      166    10524    3                  CALL DDR$MOVE( '/ ', 2, BB$, REM ) ALTRET( TOO_BIG );
      167    10525    3                  SAVE_D$ = S_D.D$;        /* DDR$INSTR uses S_D.D$, S_D.DESCL$ */
      168    10526    3                  SAVE_DESCL$ = S_D.DESCL$;
      169    10527    3                  S_D.D$ = BB$;
      170    10528    3                  S_D.DESCL$ = PINCRC( S_D.D$, REM );
      171    10529    3                  S_D.KILLEDEF = '1'B;
PL6.E3A0      #001=DFR$REPORT File=DFR$REPORT.:E05TSI                            TUE 07/29/97 14:43 Page:6
      172    10530    3                  CALL DFR$INSTR(S_D.MOD_L6.VALUE.OPS, NCARS, '1'B) ALTRET(TOO_BIG_1);
      173    10531    3                  REM = REM - POFFC( S_D.D$, BB$ );
      174    10532    3                  BB$ = S_D.D$;
      175    10533    3                END;
      176    10534    2             BB$->CHAR2 = '  ';
      177    10535    2             BB$ = PINCRC(BB$,2);          /* LEAVE SOME SPACE BEFORE THE PROMPT */
      178    10536    2   RESTORE:
      179    10537    2             S_D.D$ = SAVE_D$;
      180    10538    2             S_D.DESCL$ = SAVE_DESCL$;
      181    10539    2             GOTO REPORT;
      182    10540    2   TOO_BIG_1:
      183    10541    2             ERROR = E@BUFFULL;            /* E@BUFFULL */
      184    10542    2             GOTO RESTORE;
      185    10543    2          CASE(%R_XDELTA_BREAK);
      186    10544    2             CALL DDR$MOVE('Break@ ', LENGTHC('Break@ '), BB$, REM) ALTRET(TOO_BIG);
      187    10545    2             CALL DDR$POSIT(SAVEIC, BB$, REM, NCARS) ALTRET(TOO_BIG);
      188    10546    2             CALL UPDTBP;
      189    10547    2             GOTO REPORT;
      190    10548    2          CASE(%R_XDELTA_SCREECH);
      191    10549    2             CALL DDR$MOVE('Screech@ ', LENGTHC('Screech@ '), BB$, REM) ALTRET(TOO_BIG)
             10549                      ;
      192    10550    2             CALL DDR$POSIT(SAVEIC, BB$, REM, NCARS) ALTRET(TOO_BIG);
      193    10551    2             CALL UPDTBP;
      194    10552    2             GOTO REPORT;
      195    10553
      196    10554    2          END;                             /* DO CASE(EVENT)  */
      197    10555
      198    10556    1   TOO_BIG: ;
      199    10557    1        ERROR = E@BUFFULL;                 /* E@BUFFULL */
      200    10558    1   REPORT: ;
      201    10559    1        MSG_LENGTH = POFFC(BB$, ADDR(S_D.OUTPUT));
      202    10560    1        IF EVENT = %R_FPRG_STEP
      203    10561    1        THEN CALL DDQ$WRITENU(ADDR(S_D.OUTPUT), MSG_LENGTH);
      204    10562    1        ELSE CALL DDQ$WRITE(ADDR(S_D.OUTPUT), MSG_LENGTH);
      205    10563    1   RETN: ;
      206    10564    1        IF S_D.CURRENT_FPRG_CONTEXT$ -> FPRG$CONTEXT.SHARED_PRINT AND
      207    10565    1          S_D.STAND_ALONE
PL6.E3A0      #001=DFR$REPORT File=DFR$REPORT.:E05TSI                            TUE 07/29/97 14:43 Page:7
      208    10566    2        THEN DO;
      209    10567    2             S_D.CURRENT_FPRG_CONTEXT$ -> FPRG$CONTEXT.SHARED_PRINT = '0'B;
      210    10568    2             CALL DDR$MOVE( ' (Auto shared RU associated -for modification of procedure
             10568         (including brkpoints) use UNSHARE)',
      211    10569    2               LENGTHC( ' (Auto shared RU associated -for modification of procedure (in
             10569        cluding brkpoints) use UNSHARE)' ),
      212    10570    2               BB$, REM ) ALTRET( TOO_BIG );
      213    10571    2             MSG_LENGTH = POFFC(BB$, ADDR(S_D.OUTPUT));
      214    10572    2             CALL DDQ$WRITE(ADDR(S_D.OUTPUT), MSG_LENGTH);
      215    10573    2           END;
      216    10574    1        IF ERROR ~= 0
      217    10575    2        THEN DO;
      218    10576    2             S_D.ERROR = ERROR;
      219    10577    2             CALL DDE$ERROR;
      220    10578    2           END;
      221    10579    1        RETURN;
      222    10580        %EJECT;
PL6.E3A0      #001=DFR$REPORT File=DFR$REPORT.:E05TSI                            TUE 07/29/97 14:43 Page:8
      223    10581                                                /**/
      224    10582    1   UPDTBP: PROC;
      225    10583                                                /**/
      226    10584    2        BB$ = PINCRC( BB$, NCARS );
      227    10585    2        REM = REM - NCARS;
      228    10586                                                /**/
      229    10587    2        RETURN;
      230    10588                                                /**/
      231    10589    2   END UPDTBP;
      232    10590        /**/
      233    10591    1   END DFR$REPORT;

PL6.E3A0      #001=DFR$REPORT File=DFR$REPORT.:E05TSI                            TUE 07/29/97 14:43 Page:9
--  Include file information  --

   G_LCP6_E.:E05TOU  is referenced.
   GM_VIRTUAL_E.:E05TOU  is referenced.
   B$OBJECT_C.:E05TOU  is referenced.
   DD_PSUBS_C.:E05TOU  is referenced.
   DD_ERR_C.:E05TOU  is referenced.
   GD$MSG_M.:E05TOU  is referenced.
   DD_SRTN_C.:E05TOU  is referenced.
   DD_ACODE_C.:E05TOU  is referenced.
   DD_ICODE_C.:E05TOU  is referenced.
   DD$DITEM.:E05TOU  cannot be made into a system file and is referenced.
   DD$BASED.:E05TOU  is referenced.
   DD_SUBS_C.:E05TOU  is referenced.
   DD_SD_M.:E05TOU  is referenced.
   XUH_MACRO_C.:E05TOU  is referenced.
   B$JIT_C.:E05TOU  was found in the system file and is never referenced.
   CP_6_C.:E05TOU  was found in the system file and is never referenced.
      No diagnostics issued in procedure DFR$REPORT.

   Procedure DFR$REPORT requires 652 words for executable code.
   Procedure DFR$REPORT requires 26 words of local(AUTO) storage.

    No errors detected in file DFR$REPORT.:E05TSI    .

PL6.E3A0      #001=DFR$REPORT File=DFR$REPORT.:E05TSI                            TUE 07/29/97 14:43 Page:10

 Object Unit name= DFR$REPORT                                 File name= DFR$REPORT.:E05TOU
 UTS= JUL 29 '97 14:43:08.80 TUE                              Compiler= PL-6/E31         Sev=      00
 SharedLib= :SHARED_SYSTEM                                    Alt SharedLib=


    ****  Control sections  ****

 Sect   Type Bound  Init  Size OctSiz  Section name(segment info)
    0  RoData even  UTS     84    124  DFR$REPORT
    1   Proc  even  none   652   1214  DFR$REPORT
    2  RoData even  none    56     70  DFR$REPORT

    ****  Entry defs  ****

                              Check   Calling
                             calling  sequence
  Sect OctLoc Primary Altret sequence   type   Parms  Name
     1      0   yes            yes      Std        1  DFR$REPORT

  ****  Entry refs  ****

         Check        Calling
        calling       sequence
Altret sequence SRef   type   Args  Name
 yes     yes           Std       4 DDR$MOVE
         yes           Std       4 DDR$BINTXT
 yes     yes           Std       5 DDR$POSIT
         yes           Std       2 DDQ$WRITE
         yes           Std       0 DUE$GERRMSG
         yes           Std       2 DDQ$WRITENU
 yes     yes           Std       1 DDS$ES_INQ
 yes     yes           Std       4 DFR$INSTR
         yes           Std       0 DDE$ERROR
                       nStd      0 X66_AUTO_1
                       Std       0 B_CONSPOOL_D
                       nStd      0 X66_ARET
PL6.E3A0      #001=DFR$REPORT File=DFR$REPORT.:E05TSI                            TUE 07/29/97 14:43 Page:11

  ****  Data refs  ****

  Flags:  r = read only, s = secondary
Flgs Name                             Flgs Name                             Flgs Name
r    S_D$                             r    S_D_HOST_MESSAGE$                r    S_D_L6_MESSAGE$
     B_VECTNIL

  ****  Segment refs  ****

  Flags:  r = read only, s = secondary
Flgs Name                             Flgs Name                             Flgs Name
     ISSID
PL6.E3A0      #001=DFR$REPORT File=DFR$REPORT.:E05TSI                            TUE 07/29/97 14:43 Page:12


        1        1        /*M*  DFR$REPORT  */
        2        2        /*T***********************************************************/
        3        3        /*T*                                                         */
        4        4        /*T* Copyright (c) Bull HN Information Systems Inc., 1997    */
        5        5        /*T*                                                         */
        6        6        /*T***********************************************************/
        7        7        /*X* DMR,PLM=5,IND=5,CSU=3,EXM=0,ECU=3,MOC,DCI=5,CRT=5 */
        8        8        /*P*  NAME: DFR$REPORT
        9        9              PURPOSE: to report breaks, faults, and traces to the user. */
       10       10        /*D* NAME: DFR$REPORT
       11       11             CALL: CALL DFR$REPORT( EVENT );
       12       12             DESCRIPTION: TYPE IS THE CODE OF THE EVENT TO BE REPORTED.  */
       13       13                                                /**/
       14       14        DFR$REPORT: PROC( EVENT );

     14  1 000000   000000 700200 xent  DFR$REPORT   TSX0  ! X66_AUTO_1
         1 000001   000032 000001                    ZERO    26,1

       15       15                                                /**/
       16       16    1   DCL EVENT UBIN;
       17       17        /**/
       18       18        /* Auto */
       19       19    1   DCL BB$ PTR;
       20       20    1   DCL REM UBIN;
       21       21    1   DCL FAULT UBIN;
       22       22    1   DCL NCARS UBIN;
       23       23    1   DCL CHAR2 CHAR(2) BASED;
       24       24    1   DCL TEMP UBIN;
       25       25    1   DCL MSG_LENGTH UBIN;
       26       26    1   DCL ERROR UBIN;
       27       27    1   DCL SAVEIC UBIN;
       28       28    1   DCL SAVE_D$ PTR;
       29       29    1   DCL SAVE_DESCL$ PTR;
       30       30    1   DCL X1 UBIN;
       31       31        /* Includes */
       32       32        %INCLUDE XUH_MACRO_C;
PL6.E3A0      #001=DFR$REPORT File=DFR$REPORT.:E05TSI                            TUE 07/29/97 14:43 Page:13
       33      116        %INCLUDE DD_SD_M;
       34     1452        %S_D;
       35     2770        %S_D_PTRS;
       36     2807        %INCLUDE DD_SUBS_C;
       37     3078        %INCLUDE DD$BASED;
       38     4381        %INCLUDE DD$DITEM;
       12+    4484             %LIST;
       13+    4485    1        DCL SDD$ PTR;
       14+    4486    1        DCL ZITEM$ PTR;
       15+    4487    1        DCL SDD_L6$ PTR;
       16+    4488    1        DCL ZITEM_L6$ PTR;
       39     5062        %FPRG$CONTEXT;
       40     5125        %INCLUDE GD$MSG_M;
       41     5289        %GD$MSG(FPTN=GD$MSG_HOST, STCLASS="BASED(S_D_HOST_MESSAGE$)", L6=NO);
       42     5445       %GD$MSG(FPTN=GD$MSG, STCLASS="BASED(S_D_L6_MESSAGE$)", L6=YES, L6PTR="UBIN(32) UNAL"
              5445            );
       43     5601        %INCLUDE DD_ERR_C;
       44     5998        %INCLUDE DD_PSUBS_C;
       45     6473        %INCLUDE B$OBJECT_C;
       46     9903        %B$LBNTRY0;
       47     9939        %INCLUDE GM_VIRTUAL_E;
       48    10149        %INCLUDE G_LCP6_E;
       49    10407        /* Entry DCLs */
       50    10408    1   DCL DDE$ERROR ENTRY;
       51    10409    1   DCL DDR$MOVE ENTRY(4) ALTRET;
       52    10410    1   DCL DDR$BINTXT ENTRY(4);
       53    10411    1   DCL DDR$POSIT ENTRY(5) ALTRET;
       54    10412    1   DCL DDQ$WRITE ENTRY(2);
       55    10413    1   DCL DDQ$WRITENU ENTRY(2);
       56    10414    1   DCL DDS$ES_INQ ENTRY(1) ALTRET;
       57    10415    1   DCL DFR$INSTR ENTRY(4) ALTRET;
       58    10416    1   DCL DUE$GERRMSG ENTRY;
       59    10417    1        ERROR = 0;

  10417  1 000002   200012 450100                    STZ     ERROR,,AUTO

       60    10418    1        SAVEIC = S_D.SAVEIC;               /* Convert to UBIN */
PL6.E3A0      #001=DFR$REPORT File=DFR$REPORT.:E05TSI                            TUE 07/29/97 14:43 Page:14

  10418  1 000003   000000 470400 xsym               LDP0    S_D$
         1 000004   000002 235100                    LDA     2,,PR0
         1 000005   200013 755100                    STA     SAVEIC,,AUTO

       61    10419    1        REM = LENGTHC( S_D.OUTPUT );

  10419  1 000006   004000 236007                    LDQ     2048,DL
         1 000007   200005 756100                    STQ     REM,,AUTO

       62    10420    1        BB$ = ADDR( S_D.OUTPUT );          /* Initialize the buffer pointer */

  10420  1 000010   000000 236000 xsym               LDQ     S_D$
         1 000011   005335 036003                    ADLQ    2781,DU
         1 000012   200004 756100                    STQ     BB$,,AUTO

       63    10421                                                /* Blank the buffer */
       64    10422    1        S_D.OUTPUT = ' ';

  10422  1 000013   040100 100400                    MLR     fill='040'O
         1 000014   000035 000001 xsym               ADSC9   B_VECTNIL+29             cn=0,n=1
         1 000015   005335 004000                    ADSC9   2781,,PR0                cn=0,n=2048

       65    10423    1        IF S_D.CURRENT_FPRG_CONTEXT$ -> FPRG$CONTEXT.USER OR S_D.CURRENT_FPRG_CONTEXT$
             10423                 -> FPRG$CONTEXT.FANLZ

  10423  1 000016   000102 471500                    LDP1    66,,PR0
         1 000017   100001 236100                    LDQ     1,,PR1
         1 000020   004000 316003                    CANQ    2048,DU
         1 000021   000024 601000 1                  TNZ     s:10425
         1 000022   100001 430100                    FSZN    1,,PR1
         1 000023   000066 605000 1                  TPL     s:10430

       66    10424    2        THEN DO;

       67    10425    2             CALL DDR$MOVE('(', LENGTHC('('), BB$, REM) ALTRET(TOO_BIG);

PL6.E3A0      #001=DFR$REPORT File=DFR$REPORT.:E05TSI                            TUE 07/29/97 14:43 Page:15
  10425  1 000024   200005 633500                    EPPR3   REM,,AUTO
         1 000025   200031 453500                    STP3    X1+11,,AUTO
         1 000026   200004 634500                    EPPR4   BB$,,AUTO
         1 000027   200030 454500                    STP4    X1+10,,AUTO
         1 000030   000002 237000 2                  LDAQ    2
         1 000031   200026 757100                    STAQ    X1+8,,AUTO
         1 000032   200026 630500                    EPPR0   X1+8,,AUTO
         1 000033   000022 631400 xsym               EPPR1   B_VECTNIL+18
         1 000034   000000 701000 xent               TSX1    DDR$MOVE
         1 000035   001060 702000 1                  TSX2    TOO_BIG

       68    10426    2             CALL DDR$MOVE(S_D.CURRENT_FPRG_CONTEXT$ -> FPRG$CONTEXT.RES,

  10426  1 000036   000000 470400 xsym               LDP0    S_D$
         1 000037   000102 471500                    LDP1    66,,PR0
         1 000040   200005 633500                    EPPR3   REM,,AUTO
         1 000041   200031 453500                    STP3    X1+11,,AUTO
         1 000042   200004 634500                    EPPR4   BB$,,AUTO
         1 000043   200030 454500                    STP4    X1+10,,AUTO
         1 000044   100004 635500                    EPPR5   4,,PR1
         1 000045   200027 455500                    STP5    X1+9,,AUTO
         1 000046   100002 636500                    EPPR6   2,,PR1
         1 000047   200026 456500                    STP6    X1+8,,AUTO
         1 000050   200026 630500                    EPPR0   X1+8,,AUTO
         1 000051   000022 631400 xsym               EPPR1   B_VECTNIL+18
         1 000052   000000 701000 xent               TSX1    DDR$MOVE
         1 000053   001060 702000 1                  TSX2    TOO_BIG

       69    10427    2               S_D.CURRENT_FPRG_CONTEXT$ -> FPRG$CONTEXT.RES_SIZE, BB$, REM) ALTRET(
             10427                        TOO_BIG);
       70    10428    2             CALL DDR$MOVE(') ', LENGTHC(') '), BB$, REM) ALTRET(TOO_BIG);

  10428  1 000054   200005 630500                    EPPR0   REM,,AUTO
         1 000055   200031 450500                    STP0    X1+11,,AUTO
         1 000056   200004 631500                    EPPR1   BB$,,AUTO
         1 000057   200030 451500                    STP1    X1+10,,AUTO
         1 000060   000004 237000 2                  LDAQ    4
PL6.E3A0      #001=DFR$REPORT File=DFR$REPORT.:E05TSI                            TUE 07/29/97 14:43 Page:16
         1 000061   200026 757100                    STAQ    X1+8,,AUTO
         1 000062   200026 630500                    EPPR0   X1+8,,AUTO
         1 000063   000022 631400 xsym               EPPR1   B_VECTNIL+18
         1 000064   000000 701000 xent               TSX1    DDR$MOVE
         1 000065   001060 702000 1                  TSX2    TOO_BIG

       71    10429    2           END;

       72    10430    1        IF S_D.CURRENT_FPRG_CONTEXT$ -> FPRG$CONTEXT.FANLZ

  10430  1 000066   000000 470400 xsym               LDP0    S_D$
         1 000067   000102 471500                    LDP1    66,,PR0
         1 000070   100001 430100                    FSZN    1,,PR1
         1 000071   000104 605000 1                  TPL     s:10432

       73    10431    1        THEN CALL DDR$MOVE('ANLZing running Fep ', 20, BB$, REM);

  10431  1 000072   200005 633500                    EPPR3   REM,,AUTO
         1 000073   200031 453500                    STP3    X1+11,,AUTO
         1 000074   200004 634500                    EPPR4   BB$,,AUTO
         1 000075   200030 454500                    STP4    X1+10,,AUTO
         1 000076   000006 237000 2                  LDAQ    6
         1 000077   200026 757100                    STAQ    X1+8,,AUTO
         1 000100   200026 630500                    EPPR0   X1+8,,AUTO
         1 000101   000022 631400 xsym               EPPR1   B_VECTNIL+18
         1 000102   000000 701000 xent               TSX1    DDR$MOVE
         1 000103   000000 011000                    NOP     0

       74    10432    1        IF S_D.CURRENT_FPRG_CONTEXT$ -> FPRG$CONTEXT.XDELTA

  10432  1 000104   000000 470400 xsym               LDP0    S_D$
         1 000105   000102 471500                    LDP1    66,,PR0
         1 000106   100001 236100                    LDQ     1,,PR1
         1 000107   002000 316003                    CANQ    1024,DU
         1 000110   000113 601000 1                  TNZ     s:10435
         1 000111   100001 430100                    FSZN    1,,PR1
         1 000112   000216 605000 1                  TPL     s:10450
PL6.E3A0      #001=DFR$REPORT File=DFR$REPORT.:E05TSI                            TUE 07/29/97 14:43 Page:17

       75    10433    1          OR S_D.CURRENT_FPRG_CONTEXT$ -> FPRG$CONTEXT.FANLZ
       76    10434    2        THEN DO;

       77    10435    2             IF S_D.USERNO = 0

  10435  1 000113   005241 235100                    LDA     2721,,PR0
         1 000114   000130 601000 1                  TNZ     s:10439

       78    10436    2             THEN CALL DDR$MOVE('(Monitor) ',LENGTHC('(Monitor) '), BB$, REM)

  10436  1 000115   200005 633500                    EPPR3   REM,,AUTO
         1 000116   200031 453500                    STP3    X1+11,,AUTO
         1 000117   200004 634500                    EPPR4   BB$,,AUTO
         1 000120   200030 454500                    STP4    X1+10,,AUTO
         1 000121   000010 237000 2                  LDAQ    8
         1 000122   200026 757100                    STAQ    X1+8,,AUTO
         1 000123   200026 630500                    EPPR0   X1+8,,AUTO
         1 000124   000022 631400 xsym               EPPR1   B_VECTNIL+18
         1 000125   000000 701000 xent               TSX1    DDR$MOVE
         1 000126   001060 702000 1                  TSX2    TOO_BIG
         1 000127   000212 710000 1                  TRA     s:10447

       79    10437    2                    ALTRET(TOO_BIG);
       80    10438    3             ELSE DO;

       81    10439    3                  IF S_D.MBU

  10439  1 000130   005244 234100                    SZN     2724,,PR0
         1 000131   000145 605000 1                  TPL     s:10441

       82    10440    3                  THEN CALL DDR$MOVE('(Monitor for User# ', LENGTHC(
             10440                           '(Monitor for User# '), BB$, REM) ALTRET(TOO_BIG);

  10440  1 000132   200005 633500                    EPPR3   REM,,AUTO
         1 000133   200031 453500                    STP3    X1+11,,AUTO
         1 000134   200004 634500                    EPPR4   BB$,,AUTO
PL6.E3A0      #001=DFR$REPORT File=DFR$REPORT.:E05TSI                            TUE 07/29/97 14:43 Page:18
         1 000135   200030 454500                    STP4    X1+10,,AUTO
         1 000136   000014 237000 2                  LDAQ    12
         1 000137   200026 757100                    STAQ    X1+8,,AUTO
         1 000140   200026 630500                    EPPR0   X1+8,,AUTO
         1 000141   000022 631400 xsym               EPPR1   B_VECTNIL+18
         1 000142   000000 701000 xent               TSX1    DDR$MOVE
         1 000143   001060 702000 1                  TSX2    TOO_BIG
         1 000144   000157 710000 1                  TRA     s:10442

       83    10441    3                  ELSE CALL DDR$MOVE('(User# ', LENGTHC('(User# '), BB$, REM) ALTRET(
             10441                           TOO_BIG);

  10441  1 000145   200005 633500                    EPPR3   REM,,AUTO
         1 000146   200031 453500                    STP3    X1+11,,AUTO
         1 000147   200004 634500                    EPPR4   BB$,,AUTO
         1 000150   200030 454500                    STP4    X1+10,,AUTO
         1 000151   000016 237000 2                  LDAQ    14
         1 000152   200026 757100                    STAQ    X1+8,,AUTO
         1 000153   200026 630500                    EPPR0   X1+8,,AUTO
         1 000154   000022 631400 xsym               EPPR1   B_VECTNIL+18
         1 000155   000000 701000 xent               TSX1    DDR$MOVE
         1 000156   001060 702000 1                  TSX2    TOO_BIG

       84    10442    3                  TEMP = S_D.USERNO;

  10442  1 000157   000000 470400 xsym               LDP0    S_D$
         1 000160   005241 235100                    LDA     2721,,PR0
         1 000161   200010 755100                    STA     TEMP,,AUTO

       85    10443    3                  CALL DDR$BINTXT(BB$, TEMP, %X_FMT, NCARS);

  10443  1 000162   200007 631500                    EPPR1   NCARS,,AUTO
         1 000163   200031 451500                    STP1    X1+11,,AUTO
         1 000164   000020 236000 2                  LDQ     16
         1 000165   200030 756100                    STQ     X1+10,,AUTO
         1 000166   200010 633500                    EPPR3   TEMP,,AUTO
         1 000167   200027 453500                    STP3    X1+9,,AUTO
PL6.E3A0      #001=DFR$REPORT File=DFR$REPORT.:E05TSI                            TUE 07/29/97 14:43 Page:19
         1 000170   200004 634500                    EPPR4   BB$,,AUTO
         1 000171   200026 454500                    STP4    X1+8,,AUTO
         1 000172   200026 630500                    EPPR0   X1+8,,AUTO
         1 000173   000022 631400 xsym               EPPR1   B_VECTNIL+18
         1 000174   000000 701000 xent               TSX1    DDR$BINTXT
         1 000175   000000 011000                    NOP     0

       86    10444    3                  CALL UPDTBP;

  10444  1 000176   001203 701000 1                  TSX1    UPDTBP
         1 000177   000000 011000                    NOP     0

       87    10445    3                  CALL DDR$MOVE(') ', LENGTHC(') '), BB$, REM) ALTRET(TOO_BIG);

  10445  1 000200   200005 630500                    EPPR0   REM,,AUTO
         1 000201   200031 450500                    STP0    X1+11,,AUTO
         1 000202   200004 631500                    EPPR1   BB$,,AUTO
         1 000203   200030 451500                    STP1    X1+10,,AUTO
         1 000204   000004 237000 2                  LDAQ    4
         1 000205   200026 757100                    STAQ    X1+8,,AUTO
         1 000206   200026 630500                    EPPR0   X1+8,,AUTO
         1 000207   000022 631400 xsym               EPPR1   B_VECTNIL+18
         1 000210   000000 701000 xent               TSX1    DDR$MOVE
         1 000211   001060 702000 1                  TSX2    TOO_BIG

       88    10446    3                END;

       89    10447    2             IF S_D.CURRENT_FPRG_CONTEXT$ -> FPRG$CONTEXT.FANLZ

  10447  1 000212   000000 470400 xsym               LDP0    S_D$
         1 000213   000102 471500                    LDP1    66,,PR0
         1 000214   100001 430100                    FSZN    1,,PR1
         1 000215   001062 604000 1                  TMI     REPORT

       90    10448    2             THEN GOTO REPORT;
       91    10449    2           END;

PL6.E3A0      #001=DFR$REPORT File=DFR$REPORT.:E05TSI                            TUE 07/29/97 14:43 Page:20
       92    10450    2        DO CASE(EVENT);

  10450  1 000216   200003 473500                    LDP3    @EVENT,,AUTO
         1 000217   300000 235100                    LDA     0,,PR3
         1 000220   000013 115007                    CMPA    11,DL
         1 000221   000223 602005 1                  TNC     s:10450+5,AL
         1 000222   001060 710000 1                  TRA     TOO_BIG
         1 000223   001060 710000 1                  TRA     TOO_BIG
         1 000224   000236 710000 1                  TRA     s:10452
         1 000225   000376 710000 1                  TRA     s:10473
         1 000226   000522 710000 1                  TRA     s:10493
         1 000227   000553 710000 1                  TRA     s:10499
         1 000230   000566 710000 1                  TRA     s:10502
         1 000231   000632 710000 1                  TRA     s:10512
         1 000232   000277 710000 1                  TRA     s:10461
         1 000233   000776 710000 1                  TRA     s:10544
         1 000234   001027 710000 1                  TRA     s:10549
         1 000235   000601 710000 1                  TRA     s:10506

       93    10451    2          CASE(%R_FPRG_AT);

       94    10452    2             CALL BINCHAR(BB$ -> CHAR2, S_D.IXFIX);

  10452  1 000236   200004 474500                    LDP4    BB$,,AUTO
         1 000237   000100 301500                    BTD
         1 000240   000015 000004                    NDSC9   13,,PR0                  cn=0,s=lsgnf,sf=0,n=4
         1 000241   400000 030002                    NDSC9   0,,PR4                   cn=0,s=nosgn,sf=0,n=2

       95    10453    2             NCARS = 2;

  10453  1 000242   000002 235007                    LDA     2,DL
         1 000243   200007 755100                    STA     NCARS,,AUTO

       96    10454    2             CALL UPDTBP;

  10454  1 000244   001203 701000 1                  TSX1    UPDTBP
         1 000245   000000 011000                    NOP     0
PL6.E3A0      #001=DFR$REPORT File=DFR$REPORT.:E05TSI                            TUE 07/29/97 14:43 Page:21

       97    10455    2             CALL DDR$MOVE(' A_BRK@ ', LENGTHC(' A_BRK@ '), BB$, REM) ALTRET(TOO_BIG);

  10455  1 000246   200005 630500                    EPPR0   REM,,AUTO
         1 000247   200031 450500                    STP0    X1+11,,AUTO
         1 000250   200004 631500                    EPPR1   BB$,,AUTO
         1 000251   200030 451500                    STP1    X1+10,,AUTO
         1 000252   000022 237000 2                  LDAQ    18
         1 000253   200026 757100                    STAQ    X1+8,,AUTO
         1 000254   200026 630500                    EPPR0   X1+8,,AUTO
         1 000255   000022 631400 xsym               EPPR1   B_VECTNIL+18
         1 000256   000000 701000 xent               TSX1    DDR$MOVE
         1 000257   001060 702000 1                  TSX2    TOO_BIG

       98    10456    2             CALL DDR$POSIT(SAVEIC, BB$, REM, NCARS) ALTRET(TOO_BIG);

  10456  1 000260   200007 630500                    EPPR0   NCARS,,AUTO
         1 000261   200031 450500                    STP0    X1+11,,AUTO
         1 000262   200005 631500                    EPPR1   REM,,AUTO
         1 000263   200030 451500                    STP1    X1+10,,AUTO
         1 000264   200004 633500                    EPPR3   BB$,,AUTO
         1 000265   200027 453500                    STP3    X1+9,,AUTO
         1 000266   200013 634500                    EPPR4   SAVEIC,,AUTO
         1 000267   200026 454500                    STP4    X1+8,,AUTO
         1 000270   200026 630500                    EPPR0   X1+8,,AUTO
         1 000271   000022 631400 xsym               EPPR1   B_VECTNIL+18
         1 000272   000000 701000 xent               TSX1    DDR$POSIT
         1 000273   001060 702000 1                  TSX2    TOO_BIG

       99    10457    2             CALL UPDTBP;

  10457  1 000274   001203 701000 1                  TSX1    UPDTBP
         1 000275   000000 011000                    NOP     0

      100    10458    2             GOTO REPORT;

  10458  1 000276   001062 710000 1                  TRA     REPORT
PL6.E3A0      #001=DFR$REPORT File=DFR$REPORT.:E05TSI                            TUE 07/29/97 14:43 Page:22

      101    10459
      102    10460    2          CASE(%R_FPRG_ONCALL);

      103    10461    2             CALL BINCHAR(BB$ -> CHAR2, S_D.IXFIX);

  10461  1 000277   200004 474500                    LDP4    BB$,,AUTO
         1 000300   000100 301500                    BTD
         1 000301   000015 000004                    NDSC9   13,,PR0                  cn=0,s=lsgnf,sf=0,n=4
         1 000302   400000 030002                    NDSC9   0,,PR4                   cn=0,s=nosgn,sf=0,n=2

      104    10462    2             NCARS = 2;

  10462  1 000303   000002 235007                    LDA     2,DL
         1 000304   200007 755100                    STA     NCARS,,AUTO

      105    10463    2             CALL UPDTBP;

  10463  1 000305   001203 701000 1                  TSX1    UPDTBP
         1 000306   000000 011000                    NOP     0

      106    10464    2             CALL DDR$MOVE(' ON CALL_BRK@ ', LENGTHC(' ON CALL_BRK@ '), BB$, REM)
             10464                      ALTRET(TOO_BIG);

  10464  1 000307   200005 630500                    EPPR0   REM,,AUTO
         1 000310   200031 450500                    STP0    X1+11,,AUTO
         1 000311   200004 631500                    EPPR1   BB$,,AUTO
         1 000312   200030 451500                    STP1    X1+10,,AUTO
         1 000313   000026 237000 2                  LDAQ    22
         1 000314   200026 757100                    STAQ    X1+8,,AUTO
         1 000315   200026 630500                    EPPR0   X1+8,,AUTO
         1 000316   000022 631400 xsym               EPPR1   B_VECTNIL+18
         1 000317   000000 701000 xent               TSX1    DDR$MOVE
         1 000320   001060 702000 1                  TSX2    TOO_BIG

      107    10465    2             CALL DDR$POSIT(SAVEIC, BB$, REM, NCARS) ALTRET(TOO_BIG);

PL6.E3A0      #001=DFR$REPORT File=DFR$REPORT.:E05TSI                            TUE 07/29/97 14:43 Page:23
  10465  1 000321   200007 630500                    EPPR0   NCARS,,AUTO
         1 000322   200031 450500                    STP0    X1+11,,AUTO
         1 000323   200005 631500                    EPPR1   REM,,AUTO
         1 000324   200030 451500                    STP1    X1+10,,AUTO
         1 000325   200004 633500                    EPPR3   BB$,,AUTO
         1 000326   200027 453500                    STP3    X1+9,,AUTO
         1 000327   200013 634500                    EPPR4   SAVEIC,,AUTO
         1 000330   200026 454500                    STP4    X1+8,,AUTO
         1 000331   200026 630500                    EPPR0   X1+8,,AUTO
         1 000332   000022 631400 xsym               EPPR1   B_VECTNIL+18
         1 000333   000000 701000 xent               TSX1    DDR$POSIT
         1 000334   001060 702000 1                  TSX2    TOO_BIG

      108    10466    2             CALL UPDTBP;

  10466  1 000335   001203 701000 1                  TSX1    UPDTBP
         1 000336   000000 011000                    NOP     0

      109    10467    2             X1 = GD$MSG.BRKRSP.ADR_FROM$;

  10467  1 000337   000000 470400 xsym               LDP0    S_D_L6_MESSAGE$
         1 000340   000013 235100                    LDA     11,,PR0
         1 000341   000014 236100                    LDQ     12,,PR0
         1 000342   000024 773000                    LRL     20
         1 000343   000025 376000 2                  ANQ     21
         1 000344   200016 756100                    STQ     X1,,AUTO

      110    10468    2             CALL DDR$MOVE( ' from ', 6, BB$, REM) ALTRET(TOO_BIG);

  10468  1 000345   200005 631500                    EPPR1   REM,,AUTO
         1 000346   200031 451500                    STP1    X1+11,,AUTO
         1 000347   200004 633500                    EPPR3   BB$,,AUTO
         1 000350   200030 453500                    STP3    X1+10,,AUTO
         1 000351   000030 237000 2                  LDAQ    24
         1 000352   200026 757100                    STAQ    X1+8,,AUTO
         1 000353   200026 630500                    EPPR0   X1+8,,AUTO
         1 000354   000022 631400 xsym               EPPR1   B_VECTNIL+18
PL6.E3A0      #001=DFR$REPORT File=DFR$REPORT.:E05TSI                            TUE 07/29/97 14:43 Page:24
         1 000355   000000 701000 xent               TSX1    DDR$MOVE
         1 000356   001060 702000 1                  TSX2    TOO_BIG

      111    10469    2             CALL DDR$POSIT (X1, BB$, REM, NCARS) ALTRET(TOO_BIG);

  10469  1 000357   200007 630500                    EPPR0   NCARS,,AUTO
         1 000360   200031 450500                    STP0    X1+11,,AUTO
         1 000361   200005 631500                    EPPR1   REM,,AUTO
         1 000362   200030 451500                    STP1    X1+10,,AUTO
         1 000363   200004 633500                    EPPR3   BB$,,AUTO
         1 000364   200027 453500                    STP3    X1+9,,AUTO
         1 000365   200016 634500                    EPPR4   X1,,AUTO
         1 000366   200026 454500                    STP4    X1+8,,AUTO
         1 000367   200026 630500                    EPPR0   X1+8,,AUTO
         1 000370   000022 631400 xsym               EPPR1   B_VECTNIL+18
         1 000371   000000 701000 xent               TSX1    DDR$POSIT
         1 000372   001060 702000 1                  TSX2    TOO_BIG

      112    10470    2             CALL UPDTBP;

  10470  1 000373   001203 701000 1                  TSX1    UPDTBP
         1 000374   000000 011000                    NOP     0

      113    10471    2             GOTO REPORT;

  10471  1 000375   001062 710000 1                  TRA     REPORT

      114    10472    2          CASE(%R_FPRG_TRAP);

      115    10473    2             IF S_D.CURRENT_FPRG_CONTEXT$ -> FPRG$CONTEXT.INTERPRETIVE AND

  10473  1 000376   100001 236100                    LDQ     1,,PR1
         1 000377   200000 316003                    CANQ    65536,DU
         1 000400   000437 600000 1                  TZE     s:10482
         1 000401   005246 234100                    SZN     2726,,PR0
         1 000402   000437 605000 1                  TPL     s:10482
         1 000403   200013 235100                    LDA     SAVEIC,,AUTO
PL6.E3A0      #001=DFR$REPORT File=DFR$REPORT.:E05TSI                            TUE 07/29/97 14:43 Page:25
         1 000404   000032 115000 2                  CMPA    26
         1 000405   000437 602000 1                  TNC     s:10482

      116    10474    2               S_D.INTERPRETIVE AND
      117    10475    2               SAVEIC > %GM_ISR6_BASE
      118    10476
      119    10477    3             THEN DO;

      120    10478    3                  IF S_D.FAULT = %G_FPRG_EXIT#

  10478  1 000406   000030 235100                    LDA     24,,PR0
         1 000407   000057 115007                    CMPA    47,DL
         1 000410   000424 601000 1                  TNZ     s:10480

      121    10479    3                 THEN CALL DDR$MOVE(' FPL EXIT @ ', LENGTHC(' FPL EXIT @ '), BB$, REM)
             10479                           ALTRET(TOO_BIG);

  10479  1 000411   200005 634500                    EPPR4   REM,,AUTO
         1 000412   200031 454500                    STP4    X1+11,,AUTO
         1 000413   200004 635500                    EPPR5   BB$,,AUTO
         1 000414   200030 455500                    STP5    X1+10,,AUTO
         1 000415   000034 237000 2                  LDAQ    28
         1 000416   200026 757100                    STAQ    X1+8,,AUTO
         1 000417   200026 630500                    EPPR0   X1+8,,AUTO
         1 000420   000022 631400 xsym               EPPR1   B_VECTNIL+18
         1 000421   000000 701000 xent               TSX1    DDR$MOVE
         1 000422   001060 702000 1                  TSX2    TOO_BIG
         1 000423   000451 710000 1                  TRA     s:10483

      122    10480    3                  ELSE CALL DDR$MOVE(' Interpreter Trapped @ ', LENGTHC(
             10480                           ' Interpreter Trapped @ '), BB$, REM) ALTRET(TOO_BIG);

  10480  1 000424   200005 634500                    EPPR4   REM,,AUTO
         1 000425   200031 454500                    STP4    X1+11,,AUTO
         1 000426   200004 635500                    EPPR5   BB$,,AUTO
         1 000427   200030 455500                    STP5    X1+10,,AUTO
         1 000430   000040 237000 2                  LDAQ    32
PL6.E3A0      #001=DFR$REPORT File=DFR$REPORT.:E05TSI                            TUE 07/29/97 14:43 Page:26
         1 000431   200026 757100                    STAQ    X1+8,,AUTO
         1 000432   200026 630500                    EPPR0   X1+8,,AUTO
         1 000433   000022 631400 xsym               EPPR1   B_VECTNIL+18
         1 000434   000000 701000 xent               TSX1    DDR$MOVE
         1 000435   001060 702000 1                  TSX2    TOO_BIG

      123    10481    3                END;

  10481  1 000436   000451 710000 1                  TRA     s:10483

      124    10482    2            ELSE CALL DDR$MOVE(' IC = ', LENGTHC(' IC = '), BB$, REM) ALTRET(TOO_BIG);

  10482  1 000437   200005 634500                    EPPR4   REM,,AUTO
         1 000440   200031 454500                    STP4    X1+11,,AUTO
         1 000441   200004 635500                    EPPR5   BB$,,AUTO
         1 000442   200030 455500                    STP5    X1+10,,AUTO
         1 000443   000042 237000 2                  LDAQ    34
         1 000444   200026 757100                    STAQ    X1+8,,AUTO
         1 000445   200026 630500                    EPPR0   X1+8,,AUTO
         1 000446   000022 631400 xsym               EPPR1   B_VECTNIL+18
         1 000447   000000 701000 xent               TSX1    DDR$MOVE
         1 000450   001060 702000 1                  TSX2    TOO_BIG

      125    10483    2             CALL DDR$POSIT(SAVEIC, BB$, REM, NCARS) ALTRET(TOO_BIG);

  10483  1 000451   200007 630500                    EPPR0   NCARS,,AUTO
         1 000452   200031 450500                    STP0    X1+11,,AUTO
         1 000453   200005 631500                    EPPR1   REM,,AUTO
         1 000454   200030 451500                    STP1    X1+10,,AUTO
         1 000455   200004 633500                    EPPR3   BB$,,AUTO
         1 000456   200027 453500                    STP3    X1+9,,AUTO
         1 000457   200013 634500                    EPPR4   SAVEIC,,AUTO
         1 000460   200026 454500                    STP4    X1+8,,AUTO
         1 000461   200026 630500                    EPPR0   X1+8,,AUTO
         1 000462   000022 631400 xsym               EPPR1   B_VECTNIL+18
         1 000463   000000 701000 xent               TSX1    DDR$POSIT
         1 000464   001060 702000 1                  TSX2    TOO_BIG
PL6.E3A0      #001=DFR$REPORT File=DFR$REPORT.:E05TSI                            TUE 07/29/97 14:43 Page:27

      126    10484    2             CALL UPDTBP;

  10484  1 000465   001203 701000 1                  TSX1    UPDTBP
         1 000466   000000 011000                    NOP     0

      127    10485    2             MSG_LENGTH = POFFC(BB$, ADDR(S_D.OUTPUT));

  10485  1 000467   000000 236000 xsym               LDQ     S_D$
         1 000470   005335 036003                    ADLQ    2781,DU
         1 000471   000020 772000                    QRL     16
         1 000472   200026 756100                    STQ     X1+8,,AUTO
         1 000473   200004 236100                    LDQ     BB$,,AUTO
         1 000474   000020 772000                    QRL     16
         1 000475   200026 136100                    SBLQ    X1+8,,AUTO
         1 000476   200011 756100                    STQ     MSG_LENGTH,,AUTO

      128    10486    2             CALL DDQ$WRITE(ADDR(S_D.OUTPUT), MSG_LENGTH);

  10486  1 000477   000000 236000 xsym               LDQ     S_D$
         1 000500   005335 036003                    ADLQ    2781,DU
         1 000501   200026 756100                    STQ     X1+8,,AUTO
         1 000502   200011 630500                    EPPR0   MSG_LENGTH,,AUTO
         1 000503   200031 450500                    STP0    X1+11,,AUTO
         1 000504   200026 631500                    EPPR1   X1+8,,AUTO
         1 000505   200030 451500                    STP1    X1+10,,AUTO
         1 000506   200030 630500                    EPPR0   X1+10,,AUTO
         1 000507   000020 631400 xsym               EPPR1   B_VECTNIL+16
         1 000510   000000 701000 xent               TSX1    DDQ$WRITE
         1 000511   000000 011000                    NOP     0

      129    10487                                                /* Call M$ERRMSG to report trap */
      130    10488    2             S_D.JDE = S_D.BRKRSP_ERRCODE;

  10488  1 000512   000000 470400 xsym               LDP0    S_D$
         1 000513   005240 235100                    LDA     2720,,PR0
         1 000514   004733 755100                    STA     2523,,PR0
PL6.E3A0      #001=DFR$REPORT File=DFR$REPORT.:E05TSI                            TUE 07/29/97 14:43 Page:28

      131    10489    2             IF S_D.JDE ~= 0

  10489  1 000515   000521 600000 1                  TZE     s:10491

      132    10490    2             THEN CALL DUE$GERRMSG;

  10490  1 000516   000002 631400 xsym               EPPR1   B_VECTNIL+2
         1 000517   000000 701000 xent               TSX1    DUE$GERRMSG
         1 000520   000000 011000                    NOP     0

      133    10491    2             GOTO RETN;

  10491  1 000521   001125 710000 1                  TRA     RETN

      134    10492    2          CASE(%R_FPRG_STOP);

      135    10493    2             CALL DDR$MOVE('Stopped at IC = ', LENGTHC('Stopped at IC = '),

  10493  1 000522   200005 634500                    EPPR4   REM,,AUTO
         1 000523   200031 454500                    STP4    X1+11,,AUTO
         1 000524   200004 635500                    EPPR5   BB$,,AUTO
         1 000525   200030 455500                    STP5    X1+10,,AUTO
         1 000526   000044 237000 2                  LDAQ    36
         1 000527   200026 757100                    STAQ    X1+8,,AUTO
         1 000530   200026 630500                    EPPR0   X1+8,,AUTO
         1 000531   000022 631400 xsym               EPPR1   B_VECTNIL+18
         1 000532   000000 701000 xent               TSX1    DDR$MOVE
         1 000533   001060 702000 1                  TSX2    TOO_BIG

      136    10494    2               BB$, REM) ALTRET(TOO_BIG);
      137    10495    2             CALL DDR$POSIT(SAVEIC, BB$, REM, NCARS) ALTRET(TOO_BIG);

  10495  1 000534   200007 630500                    EPPR0   NCARS,,AUTO
         1 000535   200031 450500                    STP0    X1+11,,AUTO
         1 000536   200005 631500                    EPPR1   REM,,AUTO
         1 000537   200030 451500                    STP1    X1+10,,AUTO
PL6.E3A0      #001=DFR$REPORT File=DFR$REPORT.:E05TSI                            TUE 07/29/97 14:43 Page:29
         1 000540   200004 633500                    EPPR3   BB$,,AUTO
         1 000541   200027 453500                    STP3    X1+9,,AUTO
         1 000542   200013 634500                    EPPR4   SAVEIC,,AUTO
         1 000543   200026 454500                    STP4    X1+8,,AUTO
         1 000544   200026 630500                    EPPR0   X1+8,,AUTO
         1 000545   000022 631400 xsym               EPPR1   B_VECTNIL+18
         1 000546   000000 701000 xent               TSX1    DDR$POSIT
         1 000547   001060 702000 1                  TSX2    TOO_BIG

      138    10496    2             CALL UPDTBP;

  10496  1 000550   001203 701000 1                  TSX1    UPDTBP
         1 000551   000000 011000                    NOP     0

      139    10497    2             GOTO REPORT;

  10497  1 000552   001062 710000 1                  TRA     REPORT

      140    10498    2          CASE(%R_FPRG_RUN);

      141    10499    2             CALL DDR$MOVE('Running', LENGTHC('Running'), BB$, REM) ALTRET(TOO_BIG);

  10499  1 000553   200005 634500                    EPPR4   REM,,AUTO
         1 000554   200031 454500                    STP4    X1+11,,AUTO
         1 000555   200004 635500                    EPPR5   BB$,,AUTO
         1 000556   200030 455500                    STP5    X1+10,,AUTO
         1 000557   000046 237000 2                  LDAQ    38
         1 000560   200026 757100                    STAQ    X1+8,,AUTO
         1 000561   200026 630500                    EPPR0   X1+8,,AUTO
         1 000562   000022 631400 xsym               EPPR1   B_VECTNIL+18
         1 000563   000000 701000 xent               TSX1    DDR$MOVE
         1 000564   001060 702000 1                  TSX2    TOO_BIG

      142    10500    2             GOTO REPORT;

  10500  1 000565   001062 710000 1                  TRA     REPORT

PL6.E3A0      #001=DFR$REPORT File=DFR$REPORT.:E05TSI                            TUE 07/29/97 14:43 Page:30
      143    10501    2          CASE(%R_FPRG_DISASSOC);

      144    10502    2             CALL DDR$MOVE('Running - DELTA Disassociated',

  10502  1 000566   200005 634500                    EPPR4   REM,,AUTO
         1 000567   200031 454500                    STP4    X1+11,,AUTO
         1 000570   200004 635500                    EPPR5   BB$,,AUTO
         1 000571   200030 455500                    STP5    X1+10,,AUTO
         1 000572   000052 237000 2                  LDAQ    42
         1 000573   200026 757100                    STAQ    X1+8,,AUTO
         1 000574   200026 630500                    EPPR0   X1+8,,AUTO
         1 000575   000022 631400 xsym               EPPR1   B_VECTNIL+18
         1 000576   000000 701000 xent               TSX1    DDR$MOVE
         1 000577   001060 702000 1                  TSX2    TOO_BIG

      145    10503    2               LENGTHC('Running - DELTA Disassociated'), BB$, REM) ALTRET(TOO_BIG);
      146    10504    2             GOTO REPORT;

  10504  1 000600   001062 710000 1                  TRA     REPORT

      147    10505    2          CASE(%R_FPRG_ATEXIT);

      148    10506    2             CALL DDR$MOVE('Exitted at IC = ', LENGTHC('Exitted at IC = '),

  10506  1 000601   200005 634500                    EPPR4   REM,,AUTO
         1 000602   200031 454500                    STP4    X1+11,,AUTO
         1 000603   200004 635500                    EPPR5   BB$,,AUTO
         1 000604   200030 455500                    STP5    X1+10,,AUTO
         1 000605   000054 237000 2                  LDAQ    44
         1 000606   200026 757100                    STAQ    X1+8,,AUTO
         1 000607   200026 630500                    EPPR0   X1+8,,AUTO
         1 000610   000022 631400 xsym               EPPR1   B_VECTNIL+18
         1 000611   000000 701000 xent               TSX1    DDR$MOVE
         1 000612   001060 702000 1                  TSX2    TOO_BIG

      149    10507    2               BB$, REM) ALTRET(TOO_BIG);
      150    10508    2             CALL DDR$POSIT(SAVEIC, BB$, REM, NCARS) ALTRET(TOO_BIG);
PL6.E3A0      #001=DFR$REPORT File=DFR$REPORT.:E05TSI                            TUE 07/29/97 14:43 Page:31

  10508  1 000613   200007 630500                    EPPR0   NCARS,,AUTO
         1 000614   200031 450500                    STP0    X1+11,,AUTO
         1 000615   200005 631500                    EPPR1   REM,,AUTO
         1 000616   200030 451500                    STP1    X1+10,,AUTO
         1 000617   200004 633500                    EPPR3   BB$,,AUTO
         1 000620   200027 453500                    STP3    X1+9,,AUTO
         1 000621   200013 634500                    EPPR4   SAVEIC,,AUTO
         1 000622   200026 454500                    STP4    X1+8,,AUTO
         1 000623   200026 630500                    EPPR0   X1+8,,AUTO
         1 000624   000022 631400 xsym               EPPR1   B_VECTNIL+18
         1 000625   000000 701000 xent               TSX1    DDR$POSIT
         1 000626   001060 702000 1                  TSX2    TOO_BIG

      151    10509    2             CALL UPDTBP;

  10509  1 000627   001203 701000 1                  TSX1    UPDTBP
         1 000630   000000 011000                    NOP     0

      152    10510    2             GOTO REPORT;

  10510  1 000631   001062 710000 1                  TRA     REPORT

      153    10511    2          CASE(%R_FPRG_STEP);

      154    10512    2             CALL DDR$POSIT(SAVEIC, BB$, REM, NCARS) ALTRET(TOO_BIG);

  10512  1 000632   200007 634500                    EPPR4   NCARS,,AUTO
         1 000633   200031 454500                    STP4    X1+11,,AUTO
         1 000634   200005 635500                    EPPR5   REM,,AUTO
         1 000635   200030 455500                    STP5    X1+10,,AUTO
         1 000636   200004 636500                    EPPR6   BB$,,AUTO
         1 000637   200027 456500                    STP6    X1+9,,AUTO
         1 000640   200013 637500                    EPPR7   SAVEIC,,AUTO
         1 000641   200026 457500                    STP7    X1+8,,AUTO
         1 000642   200026 630500                    EPPR0   X1+8,,AUTO
         1 000643   000022 631400 xsym               EPPR1   B_VECTNIL+18
PL6.E3A0      #001=DFR$REPORT File=DFR$REPORT.:E05TSI                            TUE 07/29/97 14:43 Page:32
         1 000644   000000 701000 xent               TSX1    DDR$POSIT
         1 000645   001060 702000 1                  TSX2    TOO_BIG

      155    10513    2             CALL UPDTBP;

  10513  1 000646   001203 701000 1                  TSX1    UPDTBP
         1 000647   000000 011000                    NOP     0

      156    10514    2             CALL DDS$ES_INQ(SAVEIC) ALTRET(STEP0);

  10514  1 000650   200013 630500                    EPPR0   SAVEIC,,AUTO
         1 000651   200026 450500                    STP0    X1+8,,AUTO
         1 000652   200026 630500                    EPPR0   X1+8,,AUTO
         1 000653   000017 631400 xsym               EPPR1   B_VECTNIL+15
         1 000654   000000 701000 xent               TSX1    DDS$ES_INQ
         1 000655   000676 702000 1                  TSX2    STEP0

      157    10515    2             IF S_D.CURRENT_FPRG_CONTEXT$ -> FPRG$CONTEXT.STEP_MODE = C@INSTRUCTIONS
             10515                      /* C@INSTRUCTIONS */

  10515  1 000656   000000 470400 xsym               LDP0    S_D$
         1 000657   000102 471500                    LDP1    66,,PR0
         1 000660   100033 720100                    LXL0    27,,PR1
         1 000661   001105 100003                    CMPX0   581,DU
         1 000662   000676 600000 1                  TZE     STEP0

      158    10516    2             THEN GOTO STEP0;
      159    10517    2             IF S_D.QSCH.OK AND S_D.SCHEMA

  10517  1 000663   000733 234100                    SZN     475,,PR0
         1 000664   000676 605000 1                  TPL     STEP0
         1 000665   000052 234100                    SZN     42,,PR0
         1 000666   000676 605000 1                  TPL     STEP0

      160    10518    2             THEN IF S_D.REPORT_FLAGS.OFFSET( S_D.LB0$ -> B$LBNTRY0.COMPILER )

  10518  1 000667   001035 473500                    LDP3    541,,PR0
PL6.E3A0      #001=DFR$REPORT File=DFR$REPORT.:E05TSI                            TUE 07/29/97 14:43 Page:33
         1 000670   300000 221100                    LDX1    0,,PR3
         1 000671   000777 361003                    ANX1    511,DU
         1 000672   005214 234111                    SZN     2700,X1,PR0
         1 000673   000676 604000 1                  TMI     STEP0
         1 000674   000675 710000 1                  TRA     s:10522

      161    10519    2                  THEN GOTO STEP0;         /* Report instruction */
      162    10520    2                  ELSE ;                   /* Don't report instruction */
      163    10521    2             ELSE GOTO STEP0;
      164    10522    3             DO WHILE ( '0'B );

  10522  1 000675   000756 710000 1                  TRA     s:10534

  10517  1 000676                       STEP0        null
      165    10523    3   STEP0:         ;
      166    10524    3                  CALL DDR$MOVE( '/ ', 2, BB$, REM ) ALTRET( TOO_BIG );

  10524  1 000676   200005 630500                    EPPR0   REM,,AUTO
         1 000677   200031 450500                    STP0    X1+11,,AUTO
         1 000700   200004 631500                    EPPR1   BB$,,AUTO
         1 000701   200030 451500                    STP1    X1+10,,AUTO
         1 000702   000056 237000 2                  LDAQ    46
         1 000703   200026 757100                    STAQ    X1+8,,AUTO
         1 000704   200026 630500                    EPPR0   X1+8,,AUTO
         1 000705   000022 631400 xsym               EPPR1   B_VECTNIL+18
         1 000706   000000 701000 xent               TSX1    DDR$MOVE
         1 000707   001060 702000 1                  TSX2    TOO_BIG

      167    10525    3                  SAVE_D$ = S_D.D$;        /* DDR$INSTR uses S_D.D$, S_D.DESCL$ */

  10525  1 000710   000000 470400 xsym               LDP0    S_D$
         1 000711   000044 236100                    LDQ     36,,PR0
         1 000712   200014 756100                    STQ     SAVE_D$,,AUTO

      168    10526    3                  SAVE_DESCL$ = S_D.DESCL$;

  10526  1 000713   000042 236100                    LDQ     34,,PR0
PL6.E3A0      #001=DFR$REPORT File=DFR$REPORT.:E05TSI                            TUE 07/29/97 14:43 Page:34
         1 000714   200015 756100                    STQ     SAVE_DESCL$,,AUTO

      169    10527    3                  S_D.D$ = BB$;

  10527  1 000715   200004 236100                    LDQ     BB$,,AUTO
         1 000716   000044 756100                    STQ     36,,PR0

      170    10528    3                  S_D.DESCL$ = PINCRC( S_D.D$, REM );

  10528  1 000717   000044 471500                    LDP1    36,,PR0
         1 000720   200005 236100                    LDQ     REM,,AUTO
         1 000721   000011 402007                    MPY     9,DL
         1 000722   100000 503506                    ABD     0,QL,PR1
         1 000723   000042 451500                    STP1    34,,PR0

      171    10529    3                  S_D.KILLEDEF = '1'B;

  10529  1 000724   400000 236003                    LDQ     -131072,DU
         1 000725   000105 756100                    STQ     69,,PR0

      172    10530    3                  CALL DFR$INSTR(S_D.MOD_L6.VALUE.OPS, NCARS, '1'B) ALTRET(TOO_BIG_1);

  10530  1 000726   000051 236000 2                  LDQ     41
         1 000727   200030 756100                    STQ     X1+10,,AUTO
         1 000730   200007 633500                    EPPR3   NCARS,,AUTO
         1 000731   200027 453500                    STP3    X1+9,,AUTO
         1 000732   000000 236000 xsym               LDQ     S_D$
         1 000733   006777 036003                    ADLQ    3583,DU
         1 000734   200026 756100                    STQ     X1+8,,AUTO
         1 000735   200026 630500                    EPPR0   X1+8,,AUTO
         1 000736   000021 631400 xsym               EPPR1   B_VECTNIL+17
         1 000737   000000 701000 xent               TSX1    DFR$INSTR
         1 000740   000773 702000 1                  TSX2    TOO_BIG_1

      173    10531    3                  REM = REM - POFFC( S_D.D$, BB$ );

  10531  1 000741   200004 236100                    LDQ     BB$,,AUTO
PL6.E3A0      #001=DFR$REPORT File=DFR$REPORT.:E05TSI                            TUE 07/29/97 14:43 Page:35
         1 000742   000020 772000                    QRL     16
         1 000743   200026 756100                    STQ     X1+8,,AUTO
         1 000744   000000 470400 xsym               LDP0    S_D$
         1 000745   000044 236100                    LDQ     36,,PR0
         1 000746   000020 772000                    QRL     16
         1 000747   200026 136100                    SBLQ    X1+8,,AUTO
         1 000750   200027 756100                    STQ     X1+9,,AUTO
         1 000751   200005 236100                    LDQ     REM,,AUTO
         1 000752   200027 136100                    SBLQ    X1+9,,AUTO
         1 000753   200005 756100                    STQ     REM,,AUTO

      174    10532    3                  BB$ = S_D.D$;

  10532  1 000754   000044 236100                    LDQ     36,,PR0
         1 000755   200004 756100                    STQ     BB$,,AUTO

      175    10533    3                END;

      176    10534    2             BB$->CHAR2 = '  ';

  10534  1 000756   200004 471500                    LDP1    BB$,,AUTO
         1 000757   040100 100400                    MLR     fill='040'O
         1 000760   000066 000002 0                  ADSC9   54                       cn=0,n=2
         1 000761   100000 000002                    ADSC9   0,,PR1                   cn=0,n=2

      177    10535    2             BB$ = PINCRC(BB$,2);          /* LEAVE SOME SPACE BEFORE THE PROMPT */

  10535  1 000762   200004 236100                    LDQ     BB$,,AUTO
         1 000763   400000 036007                    ADLQ    -131072,DL
         1 000764   200004 756100                    STQ     BB$,,AUTO

      178    10536    2   RESTORE:
      179    10537    2             S_D.D$ = SAVE_D$;

  10537  1 000765   200014 236100       RESTORE      LDQ     SAVE_D$,,AUTO
         1 000766   000000 470400 xsym               LDP0    S_D$
         1 000767   000044 756100                    STQ     36,,PR0
PL6.E3A0      #001=DFR$REPORT File=DFR$REPORT.:E05TSI                            TUE 07/29/97 14:43 Page:36

      180    10538    2             S_D.DESCL$ = SAVE_DESCL$;

  10538  1 000770   200015 236100                    LDQ     SAVE_DESCL$,,AUTO
         1 000771   000042 756100                    STQ     34,,PR0

      181    10539    2             GOTO REPORT;

  10539  1 000772   001062 710000 1                  TRA     REPORT

      182    10540    2   TOO_BIG_1:
      183    10541    2             ERROR = E@BUFFULL;            /* E@BUFFULL */

  10541  1 000773   000130 235007       TOO_BIG_1    LDA     88,DL
         1 000774   200012 755100                    STA     ERROR,,AUTO

      184    10542    2             GOTO RESTORE;

  10542  1 000775   000765 710000 1                  TRA     RESTORE

      185    10543    2          CASE(%R_XDELTA_BREAK);

      186    10544    2             CALL DDR$MOVE('Break@ ', LENGTHC('Break@ '), BB$, REM) ALTRET(TOO_BIG);

  10544  1 000776   200005 634500                    EPPR4   REM,,AUTO
         1 000777   200031 454500                    STP4    X1+11,,AUTO
         1 001000   200004 635500                    EPPR5   BB$,,AUTO
         1 001001   200030 455500                    STP5    X1+10,,AUTO
         1 001002   000060 237000 2                  LDAQ    48
         1 001003   200026 757100                    STAQ    X1+8,,AUTO
         1 001004   200026 630500                    EPPR0   X1+8,,AUTO
         1 001005   000022 631400 xsym               EPPR1   B_VECTNIL+18
         1 001006   000000 701000 xent               TSX1    DDR$MOVE
         1 001007   001060 702000 1                  TSX2    TOO_BIG

      187    10545    2             CALL DDR$POSIT(SAVEIC, BB$, REM, NCARS) ALTRET(TOO_BIG);

PL6.E3A0      #001=DFR$REPORT File=DFR$REPORT.:E05TSI                            TUE 07/29/97 14:43 Page:37
  10545  1 001010   200007 630500                    EPPR0   NCARS,,AUTO
         1 001011   200031 450500                    STP0    X1+11,,AUTO
         1 001012   200005 631500                    EPPR1   REM,,AUTO
         1 001013   200030 451500                    STP1    X1+10,,AUTO
         1 001014   200004 633500                    EPPR3   BB$,,AUTO
         1 001015   200027 453500                    STP3    X1+9,,AUTO
         1 001016   200013 634500                    EPPR4   SAVEIC,,AUTO
         1 001017   200026 454500                    STP4    X1+8,,AUTO
         1 001020   200026 630500                    EPPR0   X1+8,,AUTO
         1 001021   000022 631400 xsym               EPPR1   B_VECTNIL+18
         1 001022   000000 701000 xent               TSX1    DDR$POSIT
         1 001023   001060 702000 1                  TSX2    TOO_BIG

      188    10546    2             CALL UPDTBP;

  10546  1 001024   001203 701000 1                  TSX1    UPDTBP
         1 001025   000000 011000                    NOP     0

      189    10547    2             GOTO REPORT;

  10547  1 001026   001062 710000 1                  TRA     REPORT

      190    10548    2          CASE(%R_XDELTA_SCREECH);

      191    10549    2            CALL DDR$MOVE('Screech@ ', LENGTHC('Screech@ '), BB$, REM) ALTRET(TOO_BIG)
             10549                      ;

  10549  1 001027   200005 634500                    EPPR4   REM,,AUTO
         1 001030   200031 454500                    STP4    X1+11,,AUTO
         1 001031   200004 635500                    EPPR5   BB$,,AUTO
         1 001032   200030 455500                    STP5    X1+10,,AUTO
         1 001033   000062 237000 2                  LDAQ    50
         1 001034   200026 757100                    STAQ    X1+8,,AUTO
         1 001035   200026 630500                    EPPR0   X1+8,,AUTO
         1 001036   000022 631400 xsym               EPPR1   B_VECTNIL+18
         1 001037   000000 701000 xent               TSX1    DDR$MOVE
         1 001040   001060 702000 1                  TSX2    TOO_BIG
PL6.E3A0      #001=DFR$REPORT File=DFR$REPORT.:E05TSI                            TUE 07/29/97 14:43 Page:38

      192    10550    2             CALL DDR$POSIT(SAVEIC, BB$, REM, NCARS) ALTRET(TOO_BIG);

  10550  1 001041   200007 630500                    EPPR0   NCARS,,AUTO
         1 001042   200031 450500                    STP0    X1+11,,AUTO
         1 001043   200005 631500                    EPPR1   REM,,AUTO
         1 001044   200030 451500                    STP1    X1+10,,AUTO
         1 001045   200004 633500                    EPPR3   BB$,,AUTO
         1 001046   200027 453500                    STP3    X1+9,,AUTO
         1 001047   200013 634500                    EPPR4   SAVEIC,,AUTO
         1 001050   200026 454500                    STP4    X1+8,,AUTO
         1 001051   200026 630500                    EPPR0   X1+8,,AUTO
         1 001052   000022 631400 xsym               EPPR1   B_VECTNIL+18
         1 001053   000000 701000 xent               TSX1    DDR$POSIT
         1 001054   001060 702000 1                  TSX2    TOO_BIG

      193    10551    2             CALL UPDTBP;

  10551  1 001055   001203 701000 1                  TSX1    UPDTBP
         1 001056   000000 011000                    NOP     0

      194    10552    2             GOTO REPORT;

  10552  1 001057   001062 710000 1                  TRA     REPORT

      195    10553
      196    10554    2          END;                             /* DO CASE(EVENT)  */

  10549  1 001060                       TOO_BIG      null
      197    10555
      198    10556    1   TOO_BIG: ;
      199    10557    1        ERROR = E@BUFFULL;                 /* E@BUFFULL */

  10557  1 001060   000130 235007                    LDA     88,DL
         1 001061   200012 755100                    STA     ERROR,,AUTO

  10557  1 001062                       REPORT       null
PL6.E3A0      #001=DFR$REPORT File=DFR$REPORT.:E05TSI                            TUE 07/29/97 14:43 Page:39
      200    10558    1   REPORT: ;
      201    10559    1        MSG_LENGTH = POFFC(BB$, ADDR(S_D.OUTPUT));

  10559  1 001062   000000 236000 xsym               LDQ     S_D$
         1 001063   005335 036003                    ADLQ    2781,DU
         1 001064   000020 772000                    QRL     16
         1 001065   200026 756100                    STQ     X1+8,,AUTO
         1 001066   200004 236100                    LDQ     BB$,,AUTO
         1 001067   000020 772000                    QRL     16
         1 001070   200026 136100                    SBLQ    X1+8,,AUTO
         1 001071   200011 756100                    STQ     MSG_LENGTH,,AUTO

      202    10560    1        IF EVENT = %R_FPRG_STEP

  10560  1 001072   200003 470500                    LDP0    @EVENT,,AUTO
         1 001073   000000 235100                    LDA     0,,PR0
         1 001074   000006 115007                    CMPA    6,DL
         1 001075   001112 601000 1                  TNZ     s:10562

      203    10561    1        THEN CALL DDQ$WRITENU(ADDR(S_D.OUTPUT), MSG_LENGTH);

  10561  1 001076   000000 236000 xsym               LDQ     S_D$
         1 001077   005335 036003                    ADLQ    2781,DU
         1 001100   200026 756100                    STQ     X1+8,,AUTO
         1 001101   200011 631500                    EPPR1   MSG_LENGTH,,AUTO
         1 001102   200031 451500                    STP1    X1+11,,AUTO
         1 001103   200026 633500                    EPPR3   X1+8,,AUTO
         1 001104   200030 453500                    STP3    X1+10,,AUTO
         1 001105   200030 630500                    EPPR0   X1+10,,AUTO
         1 001106   000020 631400 xsym               EPPR1   B_VECTNIL+16
         1 001107   000000 701000 xent               TSX1    DDQ$WRITENU
         1 001110   000000 011000                    NOP     0
         1 001111   001125 710000 1                  TRA     RETN

      204    10562    1        ELSE CALL DDQ$WRITE(ADDR(S_D.OUTPUT), MSG_LENGTH);

  10562  1 001112   000000 236000 xsym               LDQ     S_D$
PL6.E3A0      #001=DFR$REPORT File=DFR$REPORT.:E05TSI                            TUE 07/29/97 14:43 Page:40
         1 001113   005335 036003                    ADLQ    2781,DU
         1 001114   200026 756100                    STQ     X1+8,,AUTO
         1 001115   200011 631500                    EPPR1   MSG_LENGTH,,AUTO
         1 001116   200031 451500                    STP1    X1+11,,AUTO
         1 001117   200026 633500                    EPPR3   X1+8,,AUTO
         1 001120   200030 453500                    STP3    X1+10,,AUTO
         1 001121   200030 630500                    EPPR0   X1+10,,AUTO
         1 001122   000020 631400 xsym               EPPR1   B_VECTNIL+16
         1 001123   000000 701000 xent               TSX1    DDQ$WRITE
         1 001124   000000 011000                    NOP     0

  10560  1 001125                       RETN         null
      205    10563    1   RETN: ;
      206    10564    1        IF S_D.CURRENT_FPRG_CONTEXT$ -> FPRG$CONTEXT.SHARED_PRINT AND

  10564  1 001125   000000 470400 xsym               LDP0    S_D$
         1 001126   000102 471500                    LDP1    66,,PR0
         1 001127   100001 236100                    LDQ     1,,PR1
         1 001130   020000 316003                    CANQ    8192,DU
         1 001131   001173 600000 1                  TZE     s:10574
         1 001132   004624 234100                    SZN     2452,,PR0
         1 001133   001173 605000 1                  TPL     s:10574

      207    10565    1          S_D.STAND_ALONE
      208    10566    2        THEN DO;

      209    10567    2             S_D.CURRENT_FPRG_CONTEXT$ -> FPRG$CONTEXT.SHARED_PRINT = '0'B;

  10567  1 001134   000064 236000 2                  LDQ     52
         1 001135   100001 356100                    ANSQ    1,,PR1

      210    10568    2            CALL DDR$MOVE( ' (Auto shared RU associated -for modification of procedure
             10568         (including brkpoints) use UNSHARE)',

  10568  1 001136   200005 631500                    EPPR1   REM,,AUTO
         1 001137   200031 451500                    STP1    X1+11,,AUTO
         1 001140   200004 633500                    EPPR3   BB$,,AUTO
PL6.E3A0      #001=DFR$REPORT File=DFR$REPORT.:E05TSI                            TUE 07/29/97 14:43 Page:41
         1 001141   200030 453500                    STP3    X1+10,,AUTO
         1 001142   000066 237000 2                  LDAQ    54
         1 001143   200026 757100                    STAQ    X1+8,,AUTO
         1 001144   200026 630500                    EPPR0   X1+8,,AUTO
         1 001145   000022 631400 xsym               EPPR1   B_VECTNIL+18
         1 001146   000000 701000 xent               TSX1    DDR$MOVE
         1 001147   001060 702000 1                  TSX2    TOO_BIG

      211    10569    2              LENGTHC( ' (Auto shared RU associated -for modification of procedure (in
             10569        cluding brkpoints) use UNSHARE)' ),
      212    10570    2               BB$, REM ) ALTRET( TOO_BIG );
      213    10571    2             MSG_LENGTH = POFFC(BB$, ADDR(S_D.OUTPUT));

  10571  1 001150   000000 236000 xsym               LDQ     S_D$
         1 001151   005335 036003                    ADLQ    2781,DU
         1 001152   000020 772000                    QRL     16
         1 001153   200026 756100                    STQ     X1+8,,AUTO
         1 001154   200004 236100                    LDQ     BB$,,AUTO
         1 001155   000020 772000                    QRL     16
         1 001156   200026 136100                    SBLQ    X1+8,,AUTO
         1 001157   200011 756100                    STQ     MSG_LENGTH,,AUTO

      214    10572    2             CALL DDQ$WRITE(ADDR(S_D.OUTPUT), MSG_LENGTH);

  10572  1 001160   000000 236000 xsym               LDQ     S_D$
         1 001161   005335 036003                    ADLQ    2781,DU
         1 001162   200026 756100                    STQ     X1+8,,AUTO
         1 001163   200011 630500                    EPPR0   MSG_LENGTH,,AUTO
         1 001164   200031 450500                    STP0    X1+11,,AUTO
         1 001165   200026 631500                    EPPR1   X1+8,,AUTO
         1 001166   200030 451500                    STP1    X1+10,,AUTO
         1 001167   200030 630500                    EPPR0   X1+10,,AUTO
         1 001170   000020 631400 xsym               EPPR1   B_VECTNIL+16
         1 001171   000000 701000 xent               TSX1    DDQ$WRITE
         1 001172   000000 011000                    NOP     0

      215    10573    2           END;
PL6.E3A0      #001=DFR$REPORT File=DFR$REPORT.:E05TSI                            TUE 07/29/97 14:43 Page:42

      216    10574    1        IF ERROR ~= 0

  10574  1 001173   200012 235100                    LDA     ERROR,,AUTO
         1 001174   001202 600000 1                  TZE     s:10579

      217    10575    2        THEN DO;

      218    10576    2             S_D.ERROR = ERROR;

  10576  1 001175   000000 470400 xsym               LDP0    S_D$
         1 001176   000013 755100                    STA     11,,PR0

      219    10577    2             CALL DDE$ERROR;

  10577  1 001177   000002 631400 xsym               EPPR1   B_VECTNIL+2
         1 001200   000000 701000 xent               TSX1    DDE$ERROR
         1 001201   000000 011000                    NOP     0

      220    10578    2           END;

      221    10579    1        RETURN;

  10579  1 001202   000000 702200 xent               TSX2  ! X66_ARET

      222    10580        %EJECT;
PL6.E3A0      #001=DFR$REPORT File=DFR$REPORT.:E05TSI                            TUE 07/29/97 14:43 Page:43
      223    10581                                                /**/
      224    10582    1   UPDTBP: PROC;

  10582  1 001203   200024 741300       UPDTBP       STX1  ! X1+6,,AUTO

      225    10583                                                /**/
      226    10584    2        BB$ = PINCRC( BB$, NCARS );

  10584  1 001204   200007 236100                    LDQ     NCARS,,AUTO
         1 001205   000020 736000                    QLS     16
         1 001206   200004 036100                    ADLQ    BB$,,AUTO
         1 001207   200004 756100                    STQ     BB$,,AUTO

      227    10585    2        REM = REM - NCARS;

  10585  1 001210   200005 236100                    LDQ     REM,,AUTO
         1 001211   200007 136100                    SBLQ    NCARS,,AUTO
         1 001212   200005 756100                    STQ     REM,,AUTO

      228    10586                                                /**/
      229    10587    2        RETURN;

  10587  1 001213   000001 702211                    TSX2  ! 1,X1

(unnamed)
 Sect OctLoc
   0     000   051040 040040   101116 114132   151156 147040   162165 156156    )   ANLZing runn
   0     004   151156 147040   106145 160040   050115 157156   151164 157162    ing Fep (Monitor
   0     010   051040 040040   050115 157156   151164 157162   040146 157162    )   (Monitor for
   0     014   040125 163145   162043 040040   050125 163145   162043 040040     User#  (User#
   0     020   040101 137102   122113 100040   040117 116040   103101 114114     A_BRK@  ON CALL
   0     024   137102 122113   100040 040040   040146 162157   155040 040040    _BRK@    from
   0     030   040106 120114   040105 130111   124040 100040   040111 156164     FPL EXIT @  Int
   0     034   145162 160162   145164 145162   040124 162141   160160 145144    erpreter Trapped
   0     040   040100 040040   040111 103040   075040 040040   123164 157160     @   IC =   Stop
   0     044   160145 144040   141164 040111   103040 075040   122165 156156    ped at IC = Runn
   0     050   151156 147040   122165 156156   151156 147040   055040 104105    ing Running - DE
PL6.E3A0      #001=DFR$REPORT File=DFR$REPORT.:E05TSI                            TUE 07/29/97 14:43 Page:44
   0     054   114124 101040   104151 163141   163163 157143   151141 164145    LTA Disassociate
   0     060   144040 040040   105170 151164   164145 144040   141164 040111    d   Exitted at I
   0     064   103040 075040   057040 040040   040040 040040   102162 145141    C = /       Brea
   0     070   153100 040040   123143 162145   145143 150100   040040 040040    k@  Screech@
   0     074   040050 101165   164157 040163   150141 162145   144040 122125     (Auto shared RU
   0     100   040141 163163   157143 151141   164145 144040   055146 157162     associated -for
   0     104   040155 157144   151146 151143   141164 151157   156040 157146     modification of
   0     110   040160 162157   143145 144165   162145 040050   151156 143154     procedure (incl
   0     114   165144 151156   147040 142162   153160 157151   156164 163051    uding brkpoints)
   0     120   040165 163145   040125 116123   110101 122105   051040 040040     use UNSHARE)

(unnamed)
 Sect OctLoc
   2     000   050040 040040   000000 000024   000000 006000   000003 006000    (   ............
   2     004   000000 006000   000004 006000   000001 006000   000001 006000    ................
   2     010   000006 006000   000014 006000   000000 000023   000000 000015    ................
   2     014   000011 006000   000012 006000   000016 006000   000011 006000    ................
   2     020   000013 006000   000000 000000   000020 006000   000012 006000    ................
   2     024   000000 000016   037777 777777   000022 006000   000024 006000    ................
   2     030   000026 006000   000010 006000   000001 400001   000000 000014    ................
   2     034   000030 006000   000033 006000   000000 000027   000000 000020    ................
   2     040   000033 006000   000036 006000   000041 006000   000010 006000    .........!......
   2     044   000043 006000   000037 006000   000047 006000   000011 006000    .#.......'......
   2     050   000000 000035   000030 006000   000051 006000   000050 006000    .........)...(..
   2     054   000061 006000   000037 006000   000065 006000   000004 006000    .1.......5......
   2     060   000067 006000   000011 006000   000071 006000   000013 006000    .7.......9......
   2     064   757777 777777   000000 000135   000074 006000   000065 006000    .......].<...5..
      230    10588                                                /**/
      231    10589    2   END UPDTBP;
      232    10590        /**/
      233    10591    1   END DFR$REPORT;

PL6.E3A0      #001=DFR$REPORT File=DFR$REPORT.:E05TSI                            TUE 07/29/97 14:43 Page:45
--  Include file information  --

   G_LCP6_E.:E05TOU  is referenced.
   GM_VIRTUAL_E.:E05TOU  is referenced.
   B$OBJECT_C.:E05TOU  is referenced.
   DD_PSUBS_C.:E05TOU  is referenced.
   DD_ERR_C.:E05TOU  is referenced.
   GD$MSG_M.:E05TOU  is referenced.
   DD_SRTN_C.:E05TOU  is referenced.
   DD_ACODE_C.:E05TOU  is referenced.
   DD_ICODE_C.:E05TOU  is referenced.
   DD$DITEM.:E05TOU  cannot be made into a system file and is referenced.
   DD$BASED.:E05TOU  is referenced.
   DD_SUBS_C.:E05TOU  is referenced.
   DD_SD_M.:E05TOU  is referenced.
   XUH_MACRO_C.:E05TOU  is referenced.
   B$JIT_C.:E05TOU  was found in the system file and is never referenced.
   CP_6_C.:E05TOU  was found in the system file and is never referenced.
      No diagnostics issued in procedure DFR$REPORT.

   Procedure DFR$REPORT requires 652 words for executable code.
   Procedure DFR$REPORT requires 26 words of local(AUTO) storage.

    No errors detected in file DFR$REPORT.:E05TSI    .
PL6.E3A0      #001=DFR$REPORT File=DFR$REPORT.:E05TSI                            TUE 07/29/97 14:43 Page:46
          *** CROSS REFERENCE LISTING ***
**     DENOTES     IDENTIFIER DEFINITION
<<                 IDENTIFIER'S VALUE SET
>>                 IDENTIFIER'S VALUE USED
<>                 IDENTIFIER SET AND/OR USED
--                 IDENTIFIER REFERENCED
PL6.E3A0      #001=DFR$REPORT File=DFR$REPORT.:E05TSI                            TUE 07/29/97 14:43 Page:47
          MINI XREF LISTING

B$LBNTRY0.COMPILER
      9907**DCL     10518>>IF
B$LBNTRY0.NO_AUTO
      9930**DCL      9935--REDEF
B$LBNTRY0.VERSION
      9919**DCL      9921--REDEF
BB$
        19**DCL     10420<<ASSIGN  10425<>CALL    10426<>CALL    10428<>CALL    10431<>CALL    10436<>CALL
     10440<>CALL    10441<>CALL    10443<>CALL    10445<>CALL    10452>>CALLBLT 10455<>CALL    10456<>CALL
     10461>>CALLBLT 10464<>CALL    10465<>CALL    10468<>CALL    10469<>CALL    10479<>CALL    10480<>CALL
     10482<>CALL    10483<>CALL    10485>>ASSIGN  10493<>CALL    10495<>CALL    10499<>CALL    10502<>CALL
     10506<>CALL    10508<>CALL    10512<>CALL    10524<>CALL    10527>>ASSIGN  10531>>ASSIGN  10532<<ASSIGN
     10534>>ASSIGN  10535<<ASSIGN  10535>>ASSIGN  10544<>CALL    10545<>CALL    10549<>CALL    10550<>CALL
     10559>>ASSIGN  10568<>CALL    10571>>ASSIGN  10584<<ASSIGN  10584>>ASSIGN
CHAR2
        23**DCL     10452<<CALLBLT 10461<<CALLBLT 10534<<ASSIGN
DDE$ERROR
     10408**DCL-ENT 10577--CALL
DDQ$WRITE
     10412**DCL-ENT 10486--CALL    10562--CALL    10572--CALL
DDQ$WRITENU
     10413**DCL-ENT 10561--CALL
DDR$BINTXT
     10410**DCL-ENT 10443--CALL
DDR$MOVE
     10409**DCL-ENT 10425--CALL    10426--CALL    10428--CALL    10431--CALL    10436--CALL    10440--CALL
     10441--CALL    10445--CALL    10455--CALL    10464--CALL    10468--CALL    10479--CALL    10480--CALL
     10482--CALL    10493--CALL    10499--CALL    10502--CALL    10506--CALL    10524--CALL    10544--CALL
     10549--CALL    10568--CALL
DDR$POSIT
     10411**DCL-ENT 10456--CALL    10465--CALL    10469--CALL    10483--CALL    10495--CALL    10508--CALL
     10512--CALL    10545--CALL    10550--CALL
PL6.E3A0      #001=DFR$REPORT File=DFR$REPORT.:E05TSI                            TUE 07/29/97 14:43 Page:48
DDS$ES_INQ
     10414**DCL-ENT 10514--CALL
DFR$INSTR
     10415**DCL-ENT 10530--CALL
DUE$GERRMSG
     10416**DCL-ENT 10490--CALL
ERROR
        26**DCL     10417<<ASSIGN  10541<<ASSIGN  10557<<ASSIGN  10574>>IF      10576>>ASSIGN
EVENT
        16**DCL        14--PROC    10450>>DOCASE  10560>>IF
FPRG$CONTEXT.FANLZ
      5077**DCL     10423>>IF      10430>>IF      10432>>IF      10447>>IF
FPRG$CONTEXT.INTERPRETIVE
      5068**DCL     10473>>IF
FPRG$CONTEXT.RES
      5083**DCL     10426<>CALL
FPRG$CONTEXT.RES_SIZE
      5085**DCL     10426<>CALL
FPRG$CONTEXT.SHARED_PRINT
      5073**DCL     10564>>IF      10567<<ASSIGN
FPRG$CONTEXT.STEP_MODE
      5102**DCL     10515>>IF
FPRG$CONTEXT.USER
      5075**DCL     10423>>IF
FPRG$CONTEXT.XDELTA
      5076**DCL     10432>>IF
GD$MSG.BRKRQS.IF$CONST.SIZE
      5513**DCL      5513--REDEF
GD$MSG.BRKRQS.IF$CONST.TEXT
      5513**DCL      5514--REDEF    5514--REDEF    5515--REDEF    5516--REDEF
GD$MSG.BRKRSP.ADR_FROM$
      5532**DCL     10467>>ASSIGN
GD$MSG.BRKRSP.BRK#
      5527**DCL      5527--REDEF
GD$MSG.BRKRSP.USER#
      5527**DCL      5527--REDEF
PL6.E3A0      #001=DFR$REPORT File=DFR$REPORT.:E05TSI                            TUE 07/29/97 14:43 Page:49
GD$MSG.LETMEM_D.VALUE.SIZE
      5485**DCL      5485--REDEF
GD$MSG.LETMEM_D.VALUE.TEXT
      5486**DCL      5486--REDEF    5486--REDEF    5487--REDEF    5488--REDEF
GD$MSG.MESSAGE
      5467**DCL      5467--REDEF    5468--REDEF    5468--REDEF    5469--REDEF    5480--REDEF    5493--REDEF
      5498--REDEF    5505--REDEF    5521--REDEF    5526--REDEF    5532--REDEF    5533--REDEF    5562--REDEF
      5564--REDEF    5575--REDEF    5582--REDEF    5594--REDEF
GD$MSG.SUBFNC
      5462**DCL      5462--REDEF    5466--REDEF
GD$MSG.TSA.I
      5534**DCL      5534--REDEF
GD$MSG.TSA.S
      5536**DCL      5536--REDEF
GD$MSG.USERQS.ASDT$
      5562**DCL      5562--REDEF    5563--REDEF
GD$MSG_HOST.BRKRQS.IF$CONST.SIZE
      5357**DCL      5357--REDEF
GD$MSG_HOST.BRKRQS.IF$CONST.TEXT
      5357**DCL      5358--REDEF    5358--REDEF    5359--REDEF    5360--REDEF
GD$MSG_HOST.BRKRSP.BRK#
      5371**DCL      5371--REDEF
GD$MSG_HOST.BRKRSP.USER#
      5371**DCL      5371--REDEF
GD$MSG_HOST.LETMEM_D.VALUE.SIZE
      5329**DCL      5329--REDEF
GD$MSG_HOST.LETMEM_D.VALUE.TEXT
      5330**DCL      5330--REDEF    5330--REDEF    5331--REDEF    5332--REDEF
GD$MSG_HOST.MESSAGE
      5311**DCL      5311--REDEF    5312--REDEF    5312--REDEF    5313--REDEF    5324--REDEF    5337--REDEF
      5342--REDEF    5349--REDEF    5365--REDEF    5370--REDEF    5376--REDEF    5377--REDEF    5406--REDEF
      5408--REDEF    5419--REDEF    5426--REDEF    5438--REDEF
GD$MSG_HOST.SUBFNC
      5306**DCL      5306--REDEF    5310--REDEF
GD$MSG_HOST.TSA.I
      5378**DCL      5378--REDEF
PL6.E3A0      #001=DFR$REPORT File=DFR$REPORT.:E05TSI                            TUE 07/29/97 14:43 Page:50
GD$MSG_HOST.TSA.S
      5380**DCL      5380--REDEF
GD$MSG_HOST.USERQS.ASDT$
      5406**DCL      5406--REDEF    5407--REDEF
MSG_LENGTH
        25**DCL     10485<<ASSIGN  10486<>CALL    10559<<ASSIGN  10561<>CALL    10562<>CALL    10571<<ASSIGN
     10572<>CALL
NCARS
        22**DCL     10443<>CALL    10453<<ASSIGN  10456<>CALL    10462<<ASSIGN  10465<>CALL    10469<>CALL
     10483<>CALL    10495<>CALL    10508<>CALL    10512<>CALL    10530<>CALL    10545<>CALL    10550<>CALL
     10584>>ASSIGN  10585>>ASSIGN
REM
        20**DCL     10419<<ASSIGN  10425<>CALL    10426<>CALL    10428<>CALL    10431<>CALL    10436<>CALL
     10440<>CALL    10441<>CALL    10445<>CALL    10455<>CALL    10456<>CALL    10464<>CALL    10465<>CALL
     10468<>CALL    10469<>CALL    10479<>CALL    10480<>CALL    10482<>CALL    10483<>CALL    10493<>CALL
     10495<>CALL    10499<>CALL    10502<>CALL    10506<>CALL    10508<>CALL    10512<>CALL    10524<>CALL
     10528>>ASSIGN  10531<<ASSIGN  10531>>ASSIGN  10544<>CALL    10545<>CALL    10549<>CALL    10550<>CALL
     10568<>CALL    10585<<ASSIGN  10585>>ASSIGN
REPORT
     10557**LABEL   10448--GOTO    10458--GOTO    10471--GOTO    10497--GOTO    10500--GOTO    10504--GOTO
     10510--GOTO    10539--GOTO    10547--GOTO    10552--GOTO
RESTORE
     10537**LABEL   10542--GOTO
RETN
     10560**LABEL   10491--GOTO
SAVEIC
        27**DCL     10418<<ASSIGN  10456<>CALL    10465<>CALL    10473>>IF      10483<>CALL    10495<>CALL
     10508<>CALL    10512<>CALL    10514<>CALL    10545<>CALL    10550<>CALL
SAVE_D$
        28**DCL     10525<<ASSIGN  10537>>ASSIGN
SAVE_DESCL$
        29**DCL     10526<<ASSIGN  10538>>ASSIGN
STEP0
     10517**LABEL   10514--CALLALT 10516--GOTO    10519--GOTO    10521--GOTO
S_D.BRKRSP_ERRCODE
      2291**DCL     10488>>ASSIGN
PL6.E3A0      #001=DFR$REPORT File=DFR$REPORT.:E05TSI                            TUE 07/29/97 14:43 Page:51
S_D.CURRENT_CHANNEL
      2404**DCL      2406--REDEF
S_D.CURRENT_FPRG_CONTEXT$
      1604**DCL     10423>>IF      10423>>IF      10426>>CALL    10426>>CALL    10430>>IF      10432>>IF
     10432>>IF      10447>>IF      10473>>IF      10515>>IF      10564>>IF      10567>>ASSIGN
S_D.D$
      1542**DCL     10525>>ASSIGN  10527<<ASSIGN  10528>>ASSIGN  10531>>ASSIGN  10532>>ASSIGN  10537<<ASSIGN
S_D.DEBUGA
      1556**DCL      1558--REDEF
S_D.DESCL$
      1538**DCL     10526>>ASSIGN  10528<<ASSIGN  10538<<ASSIGN
S_D.EIS
      2514**DCL      2543--REDEF
S_D.ERROR
      1485**DCL     10576<<ASSIGN
S_D.FAULT
      1505**DCL     10478>>IF
S_D.HOST_MESSAGE_BUF_REMOTE
      2447**DCL      2448--REDEF    2462--REDEF
S_D.INTERPRETIVE
      2301**DCL     10473>>IF
S_D.IXFIX
      1489**DCL     10452>>CALLBLT 10461>>CALLBLT
S_D.JDE
      2061**DCL      2062--REDEF   10488<<ASSIGN  10489>>IF
S_D.KILLEDEF
      1610**DCL     10529<<ASSIGN
S_D.L$.VALUE
      1614**DCL      1620--REDEF    1628--REDEF    1631--REDEF    1634--REDEF    1637--REDEF
S_D.L$.VALUE.L
      1615**DCL      1616--REDEF    1617--REDEF
S_D.L6_MESSAGE_BUF
      2468**DCL      2470--REDEF
S_D.LB0$
      1890**DCL     10518>>IF
S_D.MBU
PL6.E3A0      #001=DFR$REPORT File=DFR$REPORT.:E05TSI                            TUE 07/29/97 14:43 Page:52
      2297**DCL     10439>>IF
S_D.MOD_L6.VALUE.OPS
      2583**DCL     10530<>CALL
S_D.OUTPUT
      2434**DCL      2436--REDEF   10419--ASSIGN  10420--ASSIGN  10422<<ASSIGN  10485--ASSIGN  10486--CALL
     10559--ASSIGN  10561--CALL    10562--CALL    10571--ASSIGN  10572--CALL
S_D.QSCH.OK
      1760**DCL     10517>>IF
S_D.REMOTE_MSG.FNCC
      2453**DCL      2454--REDEF
S_D.REMOTE_MSG.STXC
      2449**DCL      2450--REDEF
S_D.REMOTE_MSG.SUBFNCC
      2457**DCL      2458--REDEF
S_D.REPORT_FLAGS.OFFSET
      2273**DCL     10518>>IF
S_D.SAVEIC
      1467**DCL     10418>>ASSIGN
S_D.SCHEMA
      1554**DCL     10517>>IF
S_D.STAND_ALONE
      1929**DCL     10564>>IF
S_D.SV
      1513**DCL      1534--REDEF
S_D.USERNO
      2293**DCL     10435>>IF      10442>>ASSIGN
S_D$
      2765**DCL      1461--IMP-PTR 10418>>ASSIGN  10420>>ASSIGN  10422>>ASSIGN  10423>>IF      10423>>IF
     10426>>CALL    10426>>CALL    10430>>IF      10432>>IF      10432>>IF      10435>>IF      10439>>IF
     10442>>ASSIGN  10447>>IF      10452>>CALLBLT 10461>>CALLBLT 10473>>IF      10473>>IF      10478>>IF
     10485>>ASSIGN  10486>>CALL    10488>>ASSIGN  10488>>ASSIGN  10489>>IF      10515>>IF      10517>>IF
     10517>>IF      10518>>IF      10518>>IF      10525>>ASSIGN  10526>>ASSIGN  10527>>ASSIGN  10528>>ASSIGN
     10528>>ASSIGN  10529>>ASSIGN  10530>>CALL    10531>>ASSIGN  10532>>ASSIGN  10537>>ASSIGN  10538>>ASSIGN
     10559>>ASSIGN  10561>>CALL    10562>>CALL    10564>>IF      10564>>IF      10567>>ASSIGN  10571>>ASSIGN
     10572>>CALL    10576>>ASSIGN
S_D_HOST_MESSAGE$
PL6.E3A0      #001=DFR$REPORT File=DFR$REPORT.:E05TSI                            TUE 07/29/97 14:43 Page:53
      2801**DCL      5306--IMP-PTR
S_D_L6_MESSAGE$
      2802**DCL      5462--IMP-PTR 10467>>ASSIGN
TEMP
        24**DCL     10442<<ASSIGN  10443<>CALL
TOO_BIG
     10549**LABEL   10425--CALLALT 10426--CALLALT 10428--CALLALT 10436--CALLALT 10440--CALLALT 10441--CALLALT
     10445--CALLALT 10455--CALLALT 10456--CALLALT 10464--CALLALT 10465--CALLALT 10468--CALLALT 10469--CALLALT
     10479--CALLALT 10480--CALLALT 10482--CALLALT 10483--CALLALT 10493--CALLALT 10495--CALLALT 10499--CALLALT
     10502--CALLALT 10506--CALLALT 10508--CALLALT 10512--CALLALT 10524--CALLALT 10544--CALLALT 10545--CALLALT
     10549--CALLALT 10550--CALLALT 10568--CALLALT
TOO_BIG_1
     10541**LABEL   10530--CALLALT
UPDTBP
     10582**PROC    10444--CALL    10454--CALL    10457--CALL    10463--CALL    10466--CALL    10470--CALL
     10484--CALL    10496--CALL    10509--CALL    10513--CALL    10546--CALL    10551--CALL
X1
        30**DCL     10467<<ASSIGN  10469<>CALL
PL6.E3A0      #001=DFR$REPORT File=DFR$REPORT.:E05TSI                            TUE 07/29/97 14:43 Page:54
              *** CROSS REFERENCE LISTING ***
    **     DENOTES     IDENTIFIER DEFINITION
    <<                 IDENTIFIER'S VALUE SET
    >>                 IDENTIFIER'S VALUE USED
    <>                 IDENTIFIER SET AND/OR USED
    --                 IDENTIFIER REFERENCED
PL6.E3A0      #001=DFR$REPORT File=DFR$REPORT.:E05TSI                            TUE 07/29/97 14:43 Page:55
              MINI UREF LISTING

DFR$REPORT      14**PROC
FAULT      21**DCL
SDD$    4485**DCL
SDD_L6$    4487**DCL
S_D_ACCESS$    2780**DCL
S_D_ANLZ$    2782**DCL
S_D_ASTACKOFF$    2781**DCL
S_D_BREAK$    2783**DCL
S_D_DO_SCAN$    2784**DCL
S_D_ERROR$    2785**DCL
S_D_FAULTCMD$$    2786**DCL
S_D_FAULTINS$$    2787**DCL
S_D_GOIC$    2788**DCL
S_D_GO_MODE$    2789**DCL
S_D_HW_PTB_UNITS$    2805**DCL
S_D_HW_RES_MEM$    2803**DCL
S_D_HW_WSQ0PT$    2804**DCL
S_D_IPRFLT$    2791**DCL
S_D_IXFIX$    2790**DCL
S_D_REM_ACCESS$    2792**DCL
S_D_REM_DISKBOOT$    2794**DCL
S_D_REM_DO_SCAN$    2793**DCL
S_D_RETURNN$    2795**DCL
S_D_SAD$    2796**DCL
S_D_SAVEIC$    2797**DCL
S_D_SEG$    2779**DCL
S_D_TCB$$    2798**DCL
S_D_UREG$$    2799**DCL
S_D_USS$$    2800**DCL
ZITEM$    4486**DCL
ZITEM_L6$    4488**DCL
