PL6.E3A0      #002=DPM$PARSE_U$ File=DPM$PLOVER.:E05TSI                          TUE 07/29/97 14:45 Page:227
     1211        1        /*M* DPM$PARSE_U$ - U$ routine used by X$PARSE.    */
     1212        2        /*T***********************************************************/
     1213        3        /*T*                                                         */
     1214        4        /*T* Copyright (c) Bull HN Information Systems Inc., 1997    */
     1215        5        /*T*                                                         */
     1216        6        /*T***********************************************************/
     1217        7        /*P* NAME:        DPM$PARSE_U$
     1218        8             PURPOSE:     U$ routine used by X$PARSE
     1219        9             DESCRIPTION: Right now the only thing that this routine does is
     1220       10                          allow 'PL/OVER' to be the literal for PLOVER and
     1221       11                          'P/REV' to be the literal for the RUM command PREV.
     1222       12        */
     1223       13        DPM$PARSE_U$: PROC( PARSE_PARAM );
     1224       14
     1225       15        %INCLUDE XU_MACRO_C;
     1226     3121        %INCLUDE XU_SUBS_C;
     1227     3213        %INCLUDE DP_SUBS_C;
     1228     3275
     1229     3276        %PARSE$PARAM( NAME=PARSE_PARAM, STCLASS=" " );
     1230     3357
     1231     3358    1   DCL PLOVER_CMD BIT(1) STATIC INIT( '0'B );
     1232     3359
     1233     3360    2         DO CASE( PARSE_PARAM.TYPE );
     1234     3361    2           CASE( %PRE# );
     1235     3362    2             IF PARSE_PARAM.CODE = PREV_VAL THEN
     1236     3363    3                 IF PLOVER_CMD THEN DO;
     1237     3364    3                     PARSE_PARAM.REJECT  = '1'B;
     1238     3365    3                     PARSE_PARAM.CHARPOS = 0;
     1239     3366    3                     END;
     1240     3367    2                 ELSE  PARSE_PARAM.ACCEPT = '1'B;
     1241     3368    3             ELSE DO;
     1242     3369    3                 PLOVER_CMD = '0'B;
     1243     3370    3                 PARSE_PARAM.ACCEPT = '1'B;
     1244     3371    3                 END;
     1245     3372    2           CASE( %SUCC# );
     1246     3373    2             PLOVER_CMD = '1'B;
     1247     3374    2             PARSE_PARAM.ACCEPT = '1'B;
PL6.E3A0      #002=DPM$PARSE_U$ File=DPM$PLOVER.:E05TSI                          TUE 07/29/97 14:45 Page:228
     1248     3375    2           END;
     1249     3376
     1250     3377    1   END DPM$PARSE_U$;

PL6.E3A0      #002=DPM$PARSE_U$ File=DPM$PLOVER.:E05TSI                          TUE 07/29/97 14:45 Page:229
--  Include file information  --

   DP_SUBS_C.:E05TOU  is referenced.
   XU_SUBS_C.:E05TOU  is referenced.
   XU_MACRO_C.:E05TOU  is referenced.
   B$JIT_C.:E05TOU  was found in the system file and is never referenced.
   CP_6_C.:E05TOU  was found in the system file and is never referenced.
      No diagnostics issued in procedure DPM$PARSE_U$.

   Procedure DPM$PARSE_U$ requires 32 words for executable code.
   Procedure DPM$PARSE_U$ requires 4 words of local(AUTO) storage.

    No errors detected in file DPM$PLOVER.:E05TSI    .

PL6.E3A0      #002=DPM$PARSE_U$ File=DPM$PLOVER.:E05TSI                          TUE 07/29/97 14:45 Page:230

 Object Unit name= DPM$PARSE_U$                               File name= DPM$PLOVER.:E05TOU
 UTS= JUL 29 '97 14:45:27.16 TUE                              Compiler= PL-6/E31         Sev=      00
 SharedLib= :SHARED_SYSTEM                                    Alt SharedLib=


    ****  Control sections  ****

 Sect   Type Bound  Init  Size OctSiz  Section name(segment info)
    0   Data  even  none     1      1  DPM$PARSE_U$
    1   Proc  even  none    32     40  DPM$PARSE_U$

    ****  Entry defs  ****

                              Check   Calling
                             calling  sequence
  Sect OctLoc Primary Altret sequence   type   Parms  Name
     1      0   yes            yes      Std        1  DPM$PARSE_U$

  ****  Entry refs  ****

         Check        Calling
        calling       sequence
Altret sequence SRef   type   Args  Name
                       nStd      0 X66_AUTO_1
                       nStd      0 X66_ARET
PL6.E3A0      #002=DPM$PARSE_U$ File=DPM$PLOVER.:E05TSI                          TUE 07/29/97 14:45 Page:231


     1211        1        /*M* DPM$PARSE_U$ - U$ routine used by X$PARSE.    */
     1212        2        /*T***********************************************************/
     1213        3        /*T*                                                         */
     1214        4        /*T* Copyright (c) Bull HN Information Systems Inc., 1997    */
     1215        5        /*T*                                                         */
     1216        6        /*T***********************************************************/
     1217        7        /*P* NAME:        DPM$PARSE_U$
     1218        8             PURPOSE:     U$ routine used by X$PARSE
     1219        9             DESCRIPTION: Right now the only thing that this routine does is
     1220       10                          allow 'PL/OVER' to be the literal for PLOVER and
     1221       11                          'P/REV' to be the literal for the RUM command PREV.
     1222       12        */
     1223       13        DPM$PARSE_U$: PROC( PARSE_PARAM );

     13  1 000000   000000 700200 xent  DPM$PARSE_U$ TSX0  ! X66_AUTO_1
         1 000001   000004 000001                    ZERO    4,1

     1224       14
     1225       15        %INCLUDE XU_MACRO_C;
     1226     3121        %INCLUDE XU_SUBS_C;
     1227     3213        %INCLUDE DP_SUBS_C;
     1228     3275
     1229     3276        %PARSE$PARAM( NAME=PARSE_PARAM, STCLASS=" " );
     1230     3357
     1231     3358    1   DCL PLOVER_CMD BIT(1) STATIC INIT( '0'B );
     1232     3359
     1233     3360    2         DO CASE( PARSE_PARAM.TYPE );

   3360  1 000002   200003 470500                    LDP0    @PARSE_PARAM,,AUTO
         1 000003   000000 236100                    LDQ     0,,PR0
         1 000004   000033 772000                    QRL     27
         1 000005   000003 116007                    CMPQ    3,DL
         1 000006   000010 602006 1                  TNC     s:3360+6,QL
         1 000007   000037 710000 1                  TRA     s:3377
         1 000010   000037 710000 1                  TRA     s:3377
         1 000011   000013 710000 1                  TRA     s:3362
PL6.E3A0      #002=DPM$PARSE_U$ File=DPM$PLOVER.:E05TSI                          TUE 07/29/97 14:45 Page:232
         1 000012   000033 710000 1                  TRA     s:3373

     1234     3361    2           CASE( %PRE# );

     1235     3362    2             IF PARSE_PARAM.CODE = PREV_VAL THEN

   3362  1 000013   000000 720100                    LXL0    0,,PR0
         1 000014   000022 100003                    CMPX0   18,DU
         1 000015   000027 601000 1                  TNZ     s:3369

     1236     3363    3                 IF PLOVER_CMD THEN DO;

   3363  1 000016   000000 234000 0                  SZN     PLOVER_CMD
         1 000017   000024 605000 1                  TPL     s:3367

     1237     3364    3                     PARSE_PARAM.REJECT  = '1'B;

   3364  1 000020   000200 236003                    LDQ     128,DU
         1 000021   000000 256100                    ORSQ    0,,PR0

     1238     3365    3                     PARSE_PARAM.CHARPOS = 0;

   3365  1 000022   000004 450100                    STZ     4,,PR0

     1239     3366    3                     END;

   3366  1 000023   000037 710000 1                  TRA     s:3377

     1240     3367    2                 ELSE  PARSE_PARAM.ACCEPT = '1'B;

   3367  1 000024   000400 236003                    LDQ     256,DU
         1 000025   000000 256100                    ORSQ    0,,PR0
         1 000026   000037 710000 1                  TRA     s:3377

     1241     3368    3             ELSE DO;

     1242     3369    3                 PLOVER_CMD = '0'B;
PL6.E3A0      #002=DPM$PARSE_U$ File=DPM$PLOVER.:E05TSI                          TUE 07/29/97 14:45 Page:233

   3369  1 000027   000000 450000 0                  STZ     PLOVER_CMD

     1243     3370    3                 PARSE_PARAM.ACCEPT = '1'B;

   3370  1 000030   000400 236003                    LDQ     256,DU
         1 000031   000000 256100                    ORSQ    0,,PR0

     1244     3371    3                 END;

   3371  1 000032   000037 710000 1                  TRA     s:3377

     1245     3372    2           CASE( %SUCC# );

     1246     3373    2             PLOVER_CMD = '1'B;

   3373  1 000033   400000 236003                    LDQ     -131072,DU
         1 000034   000000 756000 0                  STQ     PLOVER_CMD

     1247     3374    2             PARSE_PARAM.ACCEPT = '1'B;

   3374  1 000035   000400 236003                    LDQ     256,DU
         1 000036   000000 256100                    ORSQ    0,,PR0

     1248     3375    2           END;

     1249     3376
     1250     3377    1   END DPM$PARSE_U$;

   3377  1 000037   000000 702200 xent               TSX2  ! X66_ARET

PL6.E3A0      #002=DPM$PARSE_U$ File=DPM$PLOVER.:E05TSI                          TUE 07/29/97 14:45 Page:234
--  Include file information  --

   DP_SUBS_C.:E05TOU  is referenced.
   XU_SUBS_C.:E05TOU  is referenced.
   XU_MACRO_C.:E05TOU  is referenced.
   B$JIT_C.:E05TOU  was found in the system file and is never referenced.
   CP_6_C.:E05TOU  was found in the system file and is never referenced.
      No diagnostics issued in procedure DPM$PARSE_U$.
PL6.E3A0      #002=DPM$PARSE_U$ File=DPM$PLOVER.:E05TSI                          TUE 07/29/97 14:45 Page:235

 **** Variables and constants ****

  ****  Section 000  Data  DPM$PARSE_U$

  ****  Scalars and arrays  ****
OctLoc.c.b A Datatyp(siz) R M Lvl/name                 OctLoc.c.b A Datatyp(siz) R M Lvl/name

     0-0-0/b BIT         r     1 PLOVER_CMD

  ****  Auto variables  ****

  ****  Scalars and arrays  ****
OctLoc.c.b A Datatyp(siz) R M Lvl/name                 OctLoc.c.b A Datatyp(siz) R M Lvl/name

     3-0-0/w PTR         r     1 @PARSE_PARAM              *0-0-0/w STRC(270)   r     1 PARSE_PARAM


   Procedure DPM$PARSE_U$ requires 32 words for executable code.
   Procedure DPM$PARSE_U$ requires 4 words of local(AUTO) storage.

    No errors detected in file DPM$PLOVER.:E05TSI    .
PL6.E3A0      #002=DPM$PARSE_U$ File=DPM$PLOVER.:E05TSI                          TUE 07/29/97 14:45 Page:236
          *** CROSS REFERENCE LISTING ***
**     DENOTES     IDENTIFIER DEFINITION
<<                 IDENTIFIER'S VALUE SET
>>                 IDENTIFIER'S VALUE USED
<>                 IDENTIFIER SET AND/OR USED
--                 IDENTIFIER REFERENCED
PL6.E3A0      #002=DPM$PARSE_U$ File=DPM$PLOVER.:E05TSI                          TUE 07/29/97 14:45 Page:237
          MINI XREF LISTING

PARSE_PARAM
      3295**DCL        13--PROC
PARSE_PARAM.ACCEPT
      3302**DCL      3367<<ASSIGN   3370<<ASSIGN   3374<<ASSIGN
PARSE_PARAM.CHARPOS
      3333**DCL      3365<<ASSIGN
PARSE_PARAM.CODE
      3316**DCL      3362>>IF
PARSE_PARAM.REJECT
      3307**DCL      3364<<ASSIGN
PARSE_PARAM.TYPE
      3296**DCL      3360>>DOCASE
PLOVER_CMD
      3358**DCL      3363>>IF       3369<<ASSIGN   3373<<ASSIGN
