VERSION E05

PL6.E3A0      #001=DUA$HELP File=DUA$HELP.:E05TSI                                TUE 07/29/97 14:47 Page:1
        1        1        /*M* DUA$HELP - HELP PROCESSOR FOR USER DELTA */
        2        2        /*T***********************************************************/
        3        3        /*T*                                                         */
        4        4        /*T* Copyright (c) Bull HN Information Systems Inc., 1997    */
        5        5        /*T*                                                         */
        6        6        /*T***********************************************************/
        7        7        /*X* DMR,PLM=5,IND=5,CSU=3,EXM=0,ECU=3,MOC,DCI=5,CRT=5 */
        8        8        %SET LISTSUB='1'B;
        9        9        /*P* NAME: DUA$HELP
       10       10             DESCRIPTION:  This routine processes three commands, HELP,
       11       11                       QMARK1 (?), and QMARK2 (??).
       12       12
       13       13                  HELP.  X$HELP is used to print the requested HELP info.
       14       14                  S_D.HELPING mode is then entered.
       15       15
       16       16                  ?.  One is added to the severity field of S_D.LAST_ERR.
       17       17                  M$ERRMSG is called to print the message, unless S_D.HELPING
       18       18                  mode was set. In that case X$HELP is called with the MORE#
       19       19                  bit set.
       20       20
       21       21                  ??.  All remaining error messages are printed using M$ERRMSG,
       22       22                  unless S_D.HELPING was set. In that case X$HELP is called
       23       23                  with the ALL# bit set.
       24       24
       25       25                  For proper results, DUA$HELP depends on DUE$ERRMSG and DDE$ERROR
       26       26                  to set S_D.LAST_ERROR to the last error code used.
       27       27
       28       28                  DUA$HELP does not ALTRET.  If S_D.ERROR was set,
       29       29                  DDE$ERROR is called before returning. */
       30       30
       31       31        DUA$HELP: PROC;
       32       32
       33       33        %INCLUDE CP_6;
       34      114        %INCLUDE DD$BASED;
       35     1417        %INCLUDE XUH_MACRO_C;
       36     1501        %INCLUDE DD_SD_M;
       37     2837        %S_D;
PL6.E3A0      #001=DUA$HELP File=DUA$HELP.:E05TSI                                TUE 07/29/97 14:47 Page:2
       38     4155        /* Auto */
       39     4156    1   DCL GOT_ONE BIT(1);
       40     4157    1   DCL SEVHI UBIN;
       41     4158        %FPT_ERRMSG (FPTN=FPT$ERRMSG,
       42     4159                     STCLASS=);
       43     4186        /* Based */
       44     4187        %F$DCB;
       45     4244        %HELP$CMD;
       46     4255        /* Constant */
       47     4256        %FPT_ERRMSG (FPTN=FPT_ERRMSG,
       48     4257                     STCLASS=CONSTANT,
       49     4258                     SUBMESS=NO,
       50     4259                     INCLCODE=NO);
       51     4286        /* Symref */
       52     4287    1   DCL D_M$DO# UBIN SYMREF;
       53     4288        /* Entry */
       54     4289    1   DCL DDE$ERROR ENTRY(0);
       55     4290    1   DCL DUE$HERRMSG ENTRY(0);
       56     4291    1   DCL X$HELP ENTRY(1) ALTRET;
       57     4292        /* Misc */
       58     4293        %INCLUDE DD_ERR_C;
       59     4690        %INCLUDE DD_SUBS_C;
       60     4961        %INCLUDE NK_VFC_C;
       61     5035        %INCLUDE XU_PERR_C;
       62     5226
       63     5227    1        IF S_D.DO$ -> HELP$CMD.CMD = 12 /* C_HELP */
       64     5228    2        THEN DO;
       65     5229    2             S_D.XUH_PARAM.HELP$ = S_D.DO$ -> HELP$CMD.ASYM$;
       66     5230    2             S_D.HELPING = '1'B;
       67     5231    2             S_D.XUH_PARAM.TOPICS# = '0'B;
       68     5232    2   HELP_MODE: ;
       69     5233    2             IF NOT DCBADDR( D_M$DO# ) -> F$DCB.DDEV.UCOUT# AND
       70     5234    2               NOT S_D.BATCH AND S_D.COPY
       71     5235    2             THEN S_D.XUH_PARAM.OUTDCB2# = DCBNUM( M$UC );
       72     5236    2             ELSE S_D.XUH_PARAM.OUTDCB2# = 0;
       73     5237    2             IF S_D.USVFC OR S_D.LWEXTEND
       74     5238    3             THEN DO;
PL6.E3A0      #001=DUA$HELP File=DUA$HELP.:E05TSI                                TUE 07/29/97 14:47 Page:3
       75     5239    3                  S_D.USVFC = '0'B;
       76     5240    3                  S_D.LWEXTEND = '0'B;
       77     5241    3                  S_D.XUH_PARAM.VFC# = %VFC_TRANSITION1;
       78     5242    3                END;
       79     5243    2             ELSE S_D.XUH_PARAM.VFC# = %VFC_S1A;
       80     5244    2             CALL X$HELP( S_D.XUH_PARAM ) ALTRET( XHER );
       81     5245    2             RETURN;
       82     5246    2           END;
       83     5247    1        ELSE IF S_D.HELPING
       84     5248    2             THEN DO;
       85     5249    2                  IF S_D.XUH_PARAM.TOPICS# = '0'B
       86     5250    2                  THEN IF S_D.DO$ -> HELP$CMD.CMD = 80 /* C_QMARK1 */
       87     5251    2                       THEN S_D.XUH_PARAM.MORE# = '1'B;
       88     5252    2                       ELSE S_D.XUH_PARAM.ALL# = '1'B;
       89     5253    2                  ELSE S_D.HELPING = '0'B;
       90     5254    2                  GOTO HELP_MODE;
       91     5255    2                END;
       92     5256        /* Neither HELP nor S_D.HELPING, use M$ERRMSG for ?, ?? */
       93     5257    1        IF S_D.LAST_ERROR = '0'B
       94     5258    1        THEN GOTO NO_HELP;
       95     5259    1        IF S_D.LAST_ERROR.SEV = 7
       96     5260    1        THEN GOTO NO_MORE_HELP;
       97     5261    1        FPT$ERRMSG = FPT_ERRMSG;
       98     5262    1        FPT$ERRMSG.V_ = VECTOR( FPT$ERRMSG.V );
       99     5263    1        FPT$ERRMSG.CODE_ = VECTOR( S_D.LAST_ERROR );
      100     5264    1        FPT$ERRMSG.BUF_ = VECTOR( S_D.OUTPUT );
      101     5265    1        FPT$ERRMSG.V.OUTDCB1# = D_M$DO#;
      102     5266    1        IF NOT DCBADDR( D_M$DO# ) -> F$DCB.DDEV.UCOUT# AND
      103     5267    1          NOT S_D.BATCH
      104     5268    1        THEN FPT$ERRMSG.V.OUTDCB2# = DCBNUM( M$UC );
      105     5269    1        IF S_D.USVFC OR S_D.LWEXTEND
      106     5270    2        THEN DO;
      107     5271    2             S_D.USVFC = '0'B;
      108     5272    2             S_D.LWEXTEND = '0'B;
      109     5273    2             FPT$ERRMSG.V.VFC# = %VFC_TRANSITION1;
      110     5274    2           END;
      111     5275    1        ELSE FPT$ERRMSG.V.VFC# = %VFC_S1A;
PL6.E3A0      #001=DUA$HELP File=DUA$HELP.:E05TSI                                TUE 07/29/97 14:47 Page:4
      112     5276    1        IF S_D.DO$ -> HELP$CMD.CMD = 80 /* C_QMARK1 */
      113     5277    1        THEN SEVHI = S_D.LAST_ERROR.SEV + 1;
      114     5278    1        ELSE SEVHI = 7;
      115     5279    1        GOT_ONE = '0'B;
      116     5280    2        DO UNTIL ( S_D.LAST_ERROR.SEV = SEVHI );
      117     5281    2             S_D.LAST_ERROR.SEV = S_D.LAST_ERROR.SEV + 1;
      118     5282    2             CALL M$ERRMSG( FPT$ERRMSG ) ALTRET( ERER );
      119     5283    2             GOT_ONE = '1'B;
      120     5284    2           END;
      121     5285    1   ERER: ;
      122     5286    1        IF NOT GOT_ONE
      123     5287    1        THEN GOTO NO_MORE_HELP;
      124     5288
      125     5289    1        RETURN;
      126     5290
      127     5291    1   XHER: ;
      128     5292    1        IF S_D.XUH_PARAM.ERR.MON
      129     5293    1        THEN
      130     5294    2   XUH_ERR: DO;
      131     5295    2             S_D.HELPING = '0'B;
      132     5296    2             S_D.JITERR = S_D.XUH_PARAM.ERR;
      133     5297    2             S_D.JDCBERR = S_D.XUH_PARAM.ERR_DCB#;
      134     5298    2             CALL DUE$HERRMSG;
      135     5299    2             RETURN;
      136     5300    2           END XUH_ERR;
      137     5301    1        IF S_D.XUH_PARAM.ERR.ERR# = %E$BDTOPIC
      138     5302    2        THEN DO;
      139     5303    2             S_D.XUH_PARAM.TOPICS# = '1'B;
      140     5304    2             S_D.JITERR = S_D.XUH_PARAM.ERR;
      141     5305    2             S_D.JDCBERR = 0;
      142     5306    2             CALL DUE$HERRMSG;
      143     5307    2             RETURN;
      144     5308    2           END;
      145     5309    1        IF S_D.XUH_PARAM.ERR.ERR# = %E$SYNERR
      146     5310    2        THEN DO;
      147     5311    2             S_D.HELPING = '0'B;
      148     5312    2             S_D.ERROR = 11;          /* E@UERR0 */
PL6.E3A0      #001=DUA$HELP File=DUA$HELP.:E05TSI                                TUE 07/29/97 14:47 Page:5
      149     5313    2             S_D.ERROR_HICHAR = S_D.XUH_PARAM.CHARPOS + LENGTHC( 'HELP' );
      150     5314        /*N* ADD S_D.ACMDS_OFF */
      151     5315    2             CALL DDE$ERROR;
      152     5316    2             RETURN;
      153     5317    2           END;
      154     5318    1        IF S_D.XUH_PARAM.ERR.ERR# = %E$NULLKEYWORD
      155     5319    1        THEN
      156     5320    2   NO_MORE_HELP: DO;
      157     5321    2             S_D.HELPING = '0'B;
      158     5322    2             S_D.ERROR = 175;   /* E@NO_MORE_HELP */
      159     5323    2             CALL DDE$ERROR;
      160     5324    2             RETURN;
      161     5325    2           END NO_MORE_HELP;
      162     5326    1        ELSE GOTO XUH_ERR;
      163     5327    1   NO_HELP: ;
      164     5328    1        S_D.ERROR = 174;             /* E@NO_HELP */
      165     5329    1        CALL DDE$ERROR;
      166     5330
      167     5331    1        RETURN;
      168     5332
      169     5333    1   END DUA$HELP;

PL6.E3A0      #001=DUA$HELP File=DUA$HELP.:E05TSI                                TUE 07/29/97 14:47 Page:6
--  Include file information  --

   XU_PERR_C.:E05TOU  is referenced.
   NK_VFC_C.:E05TOU  is referenced.
   DD_SUBS_C.:E05TOU  is referenced.
   DD_ERR_C.:E05TOU  is referenced.
   DD_SD_M.:E05TOU  is referenced.
   XUH_MACRO_C.:E05TOU  is referenced.
   DD$BASED.:E05TOU  is referenced.
   CP_6.:E05TOU  cannot be made into a system file and is referenced.
   B$JIT_C.:E05TOU  was found in the system file and is never referenced.
   CP_6_C.:E05TOU  was found in the system file and is referenced.
      No diagnostics issued in procedure DUA$HELP.

   Procedure DUA$HELP requires 204 words for executable code.
   Procedure DUA$HELP requires 34 words of local(AUTO) storage.

    No errors detected in file DUA$HELP.:E05TSI    .

PL6.E3A0      #001=DUA$HELP File=DUA$HELP.:E05TSI                                TUE 07/29/97 14:47 Page:7

 Object Unit name= DUA$HELP                                   File name= DUA$HELP.:E05TOU
 UTS= JUL 29 '97 14:47:00.80 TUE                              Compiler= PL-6/E31         Sev=      00
 SharedLib= :SHARED_SYSTEM                                    Alt SharedLib=


    ****  Control sections  ****

 Sect   Type Bound  Init  Size OctSiz  Section name(segment info)
    0   DCB   even  none     0      0  M$UC
    1  RoData even  UTS     27     33  DUA$HELP
    2   Proc  even  none   204    314  DUA$HELP
    3  RoData even  none     4      4  DUA$HELP

    ****  Entry defs  ****

                              Check   Calling
                             calling  sequence
  Sect OctLoc Primary Altret sequence   type   Parms  Name
     2      0   yes            yes      Std        0  DUA$HELP

  ****  Entry refs  ****

         Check        Calling
        calling       sequence
Altret sequence SRef   type   Args  Name
 yes     yes           Std       1 X$HELP
         yes           Std       0 DUE$HERRMSG
         yes           Std       0 DDE$ERROR
                       nStd      0 X66_AUTO_0
                       Std       0 B_CONSPOOL_D
                       nStd      0 X66_ARET
PL6.E3A0      #001=DUA$HELP File=DUA$HELP.:E05TSI                                TUE 07/29/97 14:47 Page:8

  ****  Data refs  ****

  Flags:  r = read only, s = secondary
Flgs Name                             Flgs Name                             Flgs Name
     M$UC                             r    S_D$                                  D_M$DO#
     B_VECTNIL

  ****  Segment refs  ****

  Flags:  r = read only, s = secondary
Flgs Name                             Flgs Name                             Flgs Name
     ISSID                                 NULLSID                               ROSID
PL6.E3A0      #001=DUA$HELP File=DUA$HELP.:E05TSI                                TUE 07/29/97 14:47 Page:9


        1        1        /*M* DUA$HELP - HELP PROCESSOR FOR USER DELTA */
        2        2        /*T***********************************************************/
        3        3        /*T*                                                         */
        4        4        /*T* Copyright (c) Bull HN Information Systems Inc., 1997    */
        5        5        /*T*                                                         */
        6        6        /*T***********************************************************/
        7        7        /*X* DMR,PLM=5,IND=5,CSU=3,EXM=0,ECU=3,MOC,DCI=5,CRT=5 */
        8        8        %SET LISTSUB='1'B;
        9        9        /*P* NAME: DUA$HELP
       10       10             DESCRIPTION:  This routine processes three commands, HELP,
       11       11                       QMARK1 (?), and QMARK2 (??).
       12       12
       13       13                  HELP.  X$HELP is used to print the requested HELP info.
       14       14                  S_D.HELPING mode is then entered.
       15       15
       16       16                  ?.  One is added to the severity field of S_D.LAST_ERR.
       17       17                  M$ERRMSG is called to print the message, unless S_D.HELPING
       18       18                  mode was set. In that case X$HELP is called with the MORE#
       19       19                  bit set.
       20       20
       21       21                  ??.  All remaining error messages are printed using M$ERRMSG,
       22       22                  unless S_D.HELPING was set. In that case X$HELP is called
       23       23                  with the ALL# bit set.
       24       24
       25       25                  For proper results, DUA$HELP depends on DUE$ERRMSG and DDE$ERROR
       26       26                  to set S_D.LAST_ERROR to the last error code used.
       27       27
       28       28                  DUA$HELP does not ALTRET.  If S_D.ERROR was set,
       29       29                  DDE$ERROR is called before returning. */
       30       30
       31       31        DUA$HELP: PROC;

     31  2 000000   000000 700200 xent  DUA$HELP     TSX0  ! X66_AUTO_0
         2 000001   000042 000000                    ZERO    34,0

       32       32
PL6.E3A0      #001=DUA$HELP File=DUA$HELP.:E05TSI                                TUE 07/29/97 14:47 Page:10
       33       33        %INCLUDE CP_6;
       34      114        %INCLUDE DD$BASED;
       35     1417        %INCLUDE XUH_MACRO_C;
       36     1501        %INCLUDE DD_SD_M;
       37     2837        %S_D;
       38     4155        /* Auto */
       39     4156    1   DCL GOT_ONE BIT(1);
       40     4157    1   DCL SEVHI UBIN;
       41     4158        %FPT_ERRMSG (FPTN=FPT$ERRMSG,
       42     4159                     STCLASS=);
       43     4186        /* Based */
       44     4187        %F$DCB;
       45     4244        %HELP$CMD;
       46     4255        /* Constant */
       47     4256        %FPT_ERRMSG (FPTN=FPT_ERRMSG,
       48     4257                     STCLASS=CONSTANT,
       49     4258                     SUBMESS=NO,
       50     4259                     INCLCODE=NO);
       51     4286        /* Symref */
       52     4287    1   DCL D_M$DO# UBIN SYMREF;
       53     4288        /* Entry */
       54     4289    1   DCL DDE$ERROR ENTRY(0);
       55     4290    1   DCL DUE$HERRMSG ENTRY(0);
       56     4291    1   DCL X$HELP ENTRY(1) ALTRET;
       57     4292        /* Misc */
       58     4293        %INCLUDE DD_ERR_C;
       59     4690        %INCLUDE DD_SUBS_C;
       60     4961        %INCLUDE NK_VFC_C;
       61     5035        %INCLUDE XU_PERR_C;
       62     5226
       63     5227    1        IF S_D.DO$ -> HELP$CMD.CMD = 12 /* C_HELP */

   5227  2 000002   000000 470400 xsym               LDP0    S_D$
         2 000003   000031 471500                    LDP1    25,,PR0
         2 000004   100000 236100                    LDQ     0,,PR1
         2 000005   777000 376003                    ANQ     -512,DU
         2 000006   014000 116003                    CMPQ    6144,DU
PL6.E3A0      #001=DUA$HELP File=DUA$HELP.:E05TSI                                TUE 07/29/97 14:47 Page:11
         2 000007   000064 601000 2                  TNZ     s:5247

       64     5228    2        THEN DO;

       65     5229    2             S_D.XUH_PARAM.HELP$ = S_D.DO$ -> HELP$CMD.ASYM$;

   5229  2 000010   100002 236100                    LDQ     2,,PR1
         2 000011   007121 756100                    STQ     3665,,PR0

       66     5230    2             S_D.HELPING = '1'B;

   5230  2 000012   400000 236003                    LDQ     -131072,DU
         2 000013   005252 756100                    STQ     2730,,PR0

       67     5231    2             S_D.XUH_PARAM.TOPICS# = '0'B;

   5231  2 000014   000000 236000 3                  LDQ     0
         2 000015   007122 356100                    ANSQ    3666,,PR0

   5231  2 000016                       HELP_MODE    null
       68     5232    2   HELP_MODE: ;
       69     5233    2             IF NOT DCBADDR( D_M$DO# ) -> F$DCB.DDEV.UCOUT# AND

   5233  2 000016   000001 470400 3                  LDP0    1
         2 000017   000000 471500                    LDP1    0,,PR0
         2 000020   000000 720000 xsym               LXL0    D_M$DO#
         2 000021   100000 473510                    LDP3    0,X0,PR1
         2 000022   300004 236100                    LDQ     4,,PR3
         2 000023   020000 316007                    CANQ    8192,DL
         2 000024   000036 601000 2                  TNZ     s:5236
         2 000025   000000 474400 xsym               LDP4    S_D$
         2 000026   404625 234100                    SZN     2453,,PR4
         2 000027   000036 604000 2                  TMI     s:5236
         2 000030   404742 234100                    SZN     2530,,PR4
         2 000031   000036 605000 2                  TPL     s:5236

       70     5234    2               NOT S_D.BATCH AND S_D.COPY
PL6.E3A0      #001=DUA$HELP File=DUA$HELP.:E05TSI                                TUE 07/29/97 14:47 Page:12
       71     5235    2             THEN S_D.XUH_PARAM.OUTDCB2# = DCBNUM( M$UC );

   5235  2 000032   000000 236007 xsym               LDQ     M$UC,DL
         2 000033   000000 621006                    EAX1    0,QL
         2 000034   407120 441100                    SXL1    3664,,PR4
         2 000035   000041 710000 2                  TRA     s:5237

       72     5236    2             ELSE S_D.XUH_PARAM.OUTDCB2# = 0;

   5236  2 000036   000000 221003                    LDX1    0,DU
         2 000037   000000 474400 xsym               LDP4    S_D$
         2 000040   407120 441100                    SXL1    3664,,PR4

       73     5237    2             IF S_D.USVFC OR S_D.LWEXTEND

   5237  2 000041   405144 234100                    SZN     2660,,PR4
         2 000042   000045 604000 2                  TMI     s:5239
         2 000043   405202 234100                    SZN     2690,,PR4
         2 000044   000052 605000 2                  TPL     s:5243

       74     5238    3             THEN DO;

       75     5239    3                  S_D.USVFC = '0'B;

   5239  2 000045   405144 450100                    STZ     2660,,PR4

       76     5240    3                  S_D.LWEXTEND = '0'B;

   5240  2 000046   405202 450100                    STZ     2690,,PR4

       77     5241    3                  S_D.XUH_PARAM.VFC# = %VFC_TRANSITION1;

   5241  2 000047   037000 236003                    LDQ     15872,DU
         2 000050   407122 552140                    STBQ    3666,'40'O,PR4

       78     5242    3                END;

PL6.E3A0      #001=DUA$HELP File=DUA$HELP.:E05TSI                                TUE 07/29/97 14:47 Page:13
   5242  2 000051   000054 710000 2                  TRA     s:5244

       79     5243    2             ELSE S_D.XUH_PARAM.VFC# = %VFC_S1A;

   5243  2 000052   101000 236003                    LDQ     33280,DU
         2 000053   407122 552140                    STBQ    3666,'40'O,PR4

       80     5244    2             CALL X$HELP( S_D.XUH_PARAM ) ALTRET( XHER );

   5244  2 000054   000000 236000 xsym               LDQ     S_D$
         2 000055   007110 036003                    ADLQ    3656,DU
         2 000056   200040 756100                    STQ     FPT$ERRMSG+26,,AUTO
         2 000057   200040 630500                    EPPR0   FPT$ERRMSG+26,,AUTO
         2 000060   000017 631400 xsym               EPPR1   B_VECTNIL+15
         2 000061   000000 701000 xent               TSX1    X$HELP
         2 000062   000225 702000 2                  TSX2    XHER

       81     5245    2             RETURN;

   5245  2 000063   000000 702200 xent               TSX2  ! X66_ARET

       82     5246    2           END;
       83     5247    1        ELSE IF S_D.HELPING

   5247  2 000064   005252 234100                    SZN     2730,,PR0
         2 000065   000105 605000 2                  TPL     s:5257

       84     5248    2             THEN DO;

       85     5249    2                  IF S_D.XUH_PARAM.TOPICS# = '0'B

   5249  2 000066   007122 236100                    LDQ     3666,,PR0
         2 000067   000100 316003                    CANQ    64,DU
         2 000070   000103 601000 2                  TNZ     s:5253

       86     5250    2                  THEN IF S_D.DO$ -> HELP$CMD.CMD = 80 /* C_QMARK1 */

PL6.E3A0      #001=DUA$HELP File=DUA$HELP.:E05TSI                                TUE 07/29/97 14:47 Page:14
   5250  2 000071   100000 236100                    LDQ     0,,PR1
         2 000072   777000 376003                    ANQ     -512,DU
         2 000073   120000 116003                    CMPQ    40960,DU
         2 000074   000100 601000 2                  TNZ     s:5252

       87     5251    2                       THEN S_D.XUH_PARAM.MORE# = '1'B;

   5251  2 000075   000200 236003                    LDQ     128,DU
         2 000076   007122 256100                    ORSQ    3666,,PR0
         2 000077   000104 710000 2                  TRA     s:5254

       88     5252    2                       ELSE S_D.XUH_PARAM.ALL# = '1'B;

   5252  2 000100   000400 236003                    LDQ     256,DU
         2 000101   007122 256100                    ORSQ    3666,,PR0
         2 000102   000104 710000 2                  TRA     s:5254

       89     5253    2                  ELSE S_D.HELPING = '0'B;

   5253  2 000103   005252 450100                    STZ     2730,,PR0

       90     5254    2                  GOTO HELP_MODE;

   5254  2 000104   000016 710000 2                  TRA     HELP_MODE

       91     5255    2                END;
       92     5256        /* Neither HELP nor S_D.HELPING, use M$ERRMSG for ?, ?? */
       93     5257    1        IF S_D.LAST_ERROR = '0'B

   5257  2 000105   005234 235100                    LDA     2716,,PR0
         2 000106   000306 600000 2                  TZE     NO_HELP

       94     5258    1        THEN GOTO NO_HELP;
       95     5259    1        IF S_D.LAST_ERROR.SEV = 7

   5259  2 000107   005234 236100                    LDQ     2716,,PR0
         2 000110   000007 376007                    ANQ     7,DL
PL6.E3A0      #001=DUA$HELP File=DUA$HELP.:E05TSI                                TUE 07/29/97 14:47 Page:15
         2 000111   000007 116007                    CMPQ    7,DL
         2 000112   000276 600000 2                  TZE     NO_MORE_HELP

       96     5260    1        THEN GOTO NO_MORE_HELP;
       97     5261    1        FPT$ERRMSG = FPT_ERRMSG;

   5261  2 000113   000100 100400                    MLR     fill='000'O
         2 000114   000000 000150 1                  ADSC9   FPT_ERRMSG               cn=0,n=104
         2 000115   200006 000150                    ADSC9   FPT$ERRMSG,,AUTO         cn=0,n=104

       98     5262    1        FPT$ERRMSG.V_ = VECTOR( FPT$ERRMSG.V );

   5262  2 000116   000002 235000 3                  LDA     2
         2 000117   200040 452500                    STP2    FPT$ERRMSG+26,,AUTO
         2 000120   200040 236100                    LDQ     FPT$ERRMSG+26,,AUTO
         2 000121   000034 036003                    ADLQ    28,DU
         2 000122   200006 757100                    STAQ    FPT$ERRMSG,,AUTO

       99     5263    1        FPT$ERRMSG.CODE_ = VECTOR( S_D.LAST_ERROR );

   5263  2 000123   777640 235007                    LDA     -96,DL
         2 000124   000000 236000 xsym               LDQ     S_D$
         2 000125   005234 036003                    ADLQ    2716,DU
         2 000126   200010 757100                    STAQ    FPT$ERRMSG+2,,AUTO

      100     5264    1        FPT$ERRMSG.BUF_ = VECTOR( S_D.OUTPUT );

   5264  2 000127   000003 235000 3                  LDA     3
         2 000130   000000 236000 xsym               LDQ     S_D$
         2 000131   005335 036003                    ADLQ    2781,DU
         2 000132   200012 757100                    STAQ    FPT$ERRMSG+4,,AUTO

      101     5265    1        FPT$ERRMSG.V.OUTDCB1# = D_M$DO#;

   5265  2 000133   000000 720000 xsym               LXL0    D_M$DO#
         2 000134   200034 440100                    SXL0    FPT$ERRMSG+22,,AUTO

PL6.E3A0      #001=DUA$HELP File=DUA$HELP.:E05TSI                                TUE 07/29/97 14:47 Page:16
      102     5266    1        IF NOT DCBADDR( D_M$DO# ) -> F$DCB.DDEV.UCOUT# AND

   5266  2 000135   000001 471400 3                  LDP1    1
         2 000136   100000 473500                    LDP3    0,,PR1
         2 000137   300000 474510                    LDP4    0,X0,PR3
         2 000140   400004 236100                    LDQ     4,,PR4
         2 000141   020000 316007                    CANQ    8192,DL
         2 000142   000150 601000 2                  TNZ     s:5269
         2 000143   004625 234100                    SZN     2453,,PR0
         2 000144   000150 604000 2                  TMI     s:5269

      103     5267    1          NOT S_D.BATCH
      104     5268    1        THEN FPT$ERRMSG.V.OUTDCB2# = DCBNUM( M$UC );

   5268  2 000145   000000 236007 xsym               LDQ     M$UC,DL
         2 000146   000000 621006                    EAX1    0,QL
         2 000147   200035 741100                    STX1    FPT$ERRMSG+23,,AUTO

      105     5269    1        IF S_D.USVFC OR S_D.LWEXTEND

   5269  2 000150   005144 234100                    SZN     2660,,PR0
         2 000151   000154 604000 2                  TMI     s:5271
         2 000152   005202 234100                    SZN     2690,,PR0
         2 000153   000161 605000 2                  TPL     s:5275

      106     5270    2        THEN DO;

      107     5271    2             S_D.USVFC = '0'B;

   5271  2 000154   005144 450100                    STZ     2660,,PR0

      108     5272    2             S_D.LWEXTEND = '0'B;

   5272  2 000155   005202 450100                    STZ     2690,,PR0

      109     5273    2             FPT$ERRMSG.V.VFC# = %VFC_TRANSITION1;

PL6.E3A0      #001=DUA$HELP File=DUA$HELP.:E05TSI                                TUE 07/29/97 14:47 Page:17
   5273  2 000156   000037 236007                    LDQ     31,DL
         2 000157   200035 552104                    STBQ    FPT$ERRMSG+23,'04'O,AUTO

      110     5274    2           END;

   5274  2 000160   000163 710000 2                  TRA     s:5276

      111     5275    1        ELSE FPT$ERRMSG.V.VFC# = %VFC_S1A;

   5275  2 000161   000101 236007                    LDQ     65,DL
         2 000162   200035 552104                    STBQ    FPT$ERRMSG+23,'04'O,AUTO

      112     5276    1        IF S_D.DO$ -> HELP$CMD.CMD = 80 /* C_QMARK1 */

   5276  2 000163   000031 475500                    LDP5    25,,PR0
         2 000164   500000 236100                    LDQ     0,,PR5
         2 000165   777000 376003                    ANQ     -512,DU
         2 000166   120000 116003                    CMPQ    40960,DU
         2 000167   000175 601000 2                  TNZ     s:5278

      113     5277    1        THEN SEVHI = S_D.LAST_ERROR.SEV + 1;

   5277  2 000170   005234 236100                    LDQ     2716,,PR0
         2 000171   000007 376007                    ANQ     7,DL
         2 000172   000001 036007                    ADLQ    1,DL
         2 000173   200004 756100                    STQ     SEVHI,,AUTO
         2 000174   000177 710000 2                  TRA     s:5279

      114     5278    1        ELSE SEVHI = 7;

   5278  2 000175   000007 235007                    LDA     7,DL
         2 000176   200004 755100                    STA     SEVHI,,AUTO

      115     5279    1        GOT_ONE = '0'B;

   5279  2 000177   200003 450100                    STZ     GOT_ONE,,AUTO

PL6.E3A0      #001=DUA$HELP File=DUA$HELP.:E05TSI                                TUE 07/29/97 14:47 Page:18
      116     5280    2        DO UNTIL ( S_D.LAST_ERROR.SEV = SEVHI );

      117     5281    2             S_D.LAST_ERROR.SEV = S_D.LAST_ERROR.SEV + 1;

   5281  2 000200   000000 470400 xsym               LDP0    S_D$
         2 000201   005234 236100                    LDQ     2716,,PR0
         2 000202   000007 376007                    ANQ     7,DL
         2 000203   000001 036007                    ADLQ    1,DL
         2 000204   005234 676100                    ERQ     2716,,PR0
         2 000205   000007 376007                    ANQ     7,DL
         2 000206   005234 656100                    ERSQ    2716,,PR0

      118     5282    2             CALL M$ERRMSG( FPT$ERRMSG ) ALTRET( ERER );

   5282  2 000207   200006 630500                    EPPR0   FPT$ERRMSG,,AUTO
         2 000210   420000 713400                    CLIMB   alt,+8192
         2 000211   405000 401760                    pmme    nvectors=11
         2 000212   000222 702000 2                  TSX2    ERER

      119     5283    2             GOT_ONE = '1'B;

   5283  2 000213   400000 236003                    LDQ     -131072,DU
         2 000214   200003 756100                    STQ     GOT_ONE,,AUTO

      120     5284    2           END;

   5284  2 000215   000000 470400 xsym               LDP0    S_D$
         2 000216   005234 236100                    LDQ     2716,,PR0
         2 000217   000007 376007                    ANQ     7,DL
         2 000220   200004 116100                    CMPQ    SEVHI,,AUTO
         2 000221   000200 601000 2                  TNZ     s:5281

   5281  2 000222                       ERER         null
      121     5285    1   ERER: ;
      122     5286    1        IF NOT GOT_ONE

   5286  2 000222   200003 234100                    SZN     GOT_ONE,,AUTO
PL6.E3A0      #001=DUA$HELP File=DUA$HELP.:E05TSI                                TUE 07/29/97 14:47 Page:19
         2 000223   000276 605000 2                  TPL     NO_MORE_HELP

      123     5287    1        THEN GOTO NO_MORE_HELP;
      124     5288
      125     5289    1        RETURN;

   5289  2 000224   000000 702200 xent               TSX2  ! X66_ARET

   5286  2 000225                       XHER         null
      126     5290
      127     5291    1   XHER: ;
      128     5292    1        IF S_D.XUH_PARAM.ERR.MON

   5292  2 000225   000000 470400 xsym               LDP0    S_D$
         2 000226   007123 236100                    LDQ     3667,,PR0
         2 000227   400000 316007                    CANQ    -131072,DL
         2 000230   000243 600000 2                  TZE     s:5301

      129     5293    1        THEN
      130     5294    2   XUH_ERR: DO;

   5294  2 000231                       XUH_ERR      null
      131     5295    2             S_D.HELPING = '0'B;

   5295  2 000231   000000 470400 xsym               LDP0    S_D$
         2 000232   005252 450100                    STZ     2730,,PR0

      132     5296    2             S_D.JITERR = S_D.XUH_PARAM.ERR;

   5296  2 000233   007123 236100                    LDQ     3667,,PR0
         2 000234   004733 756100                    STQ     2523,,PR0

      133     5297    2             S_D.JDCBERR = S_D.XUH_PARAM.ERR_DCB#;

   5297  2 000235   007124 235100                    LDA     3668,,PR0
         2 000236   000604 755100                    STA     388,,PR0

PL6.E3A0      #001=DUA$HELP File=DUA$HELP.:E05TSI                                TUE 07/29/97 14:47 Page:20
      134     5298    2             CALL DUE$HERRMSG;

   5298  2 000237   000002 631400 xsym               EPPR1   B_VECTNIL+2
         2 000240   000000 701000 xent               TSX1    DUE$HERRMSG
         2 000241   000000 011000                    NOP     0

      135     5299    2             RETURN;

   5299  2 000242   000000 702200 xent               TSX2  ! X66_ARET

      136     5300    2           END XUH_ERR;
      137     5301    1        IF S_D.XUH_PARAM.ERR.ERR# = %E$BDTOPIC

   5301  2 000243   007123 236100                    LDQ     3667,,PR0
         2 000244   377770 376007                    ANQ     131064,DL
         2 000245   004550 116007                    CMPQ    2408,DL
         2 000246   000260 601000 2                  TNZ     s:5309

      138     5302    2        THEN DO;

      139     5303    2             S_D.XUH_PARAM.TOPICS# = '1'B;

   5303  2 000247   000100 236003                    LDQ     64,DU
         2 000250   007122 256100                    ORSQ    3666,,PR0

      140     5304    2             S_D.JITERR = S_D.XUH_PARAM.ERR;

   5304  2 000251   007123 236100                    LDQ     3667,,PR0
         2 000252   004733 756100                    STQ     2523,,PR0

      141     5305    2             S_D.JDCBERR = 0;

   5305  2 000253   000604 450100                    STZ     388,,PR0

      142     5306    2             CALL DUE$HERRMSG;

   5306  2 000254   000002 631400 xsym               EPPR1   B_VECTNIL+2
PL6.E3A0      #001=DUA$HELP File=DUA$HELP.:E05TSI                                TUE 07/29/97 14:47 Page:21
         2 000255   000000 701000 xent               TSX1    DUE$HERRMSG
         2 000256   000000 011000                    NOP     0

      143     5307    2             RETURN;

   5307  2 000257   000000 702200 xent               TSX2  ! X66_ARET

      144     5308    2           END;
      145     5309    1        IF S_D.XUH_PARAM.ERR.ERR# = %E$SYNERR

   5309  2 000260   000010 116007                    CMPQ    8,DL
         2 000261   000274 601000 2                  TNZ     s:5318

      146     5310    2        THEN DO;

      147     5311    2             S_D.HELPING = '0'B;

   5311  2 000262   005252 450100                    STZ     2730,,PR0

      148     5312    2             S_D.ERROR = 11;          /* E@UERR0 */

   5312  2 000263   000013 235007                    LDA     11,DL
         2 000264   000013 755100                    STA     11,,PR0

      149     5313    2             S_D.ERROR_HICHAR = S_D.XUH_PARAM.CHARPOS + LENGTHC( 'HELP' );

   5313  2 000265   007125 235100                    LDA     3669,,PR0
         2 000266   000004 035007                    ADLA    4,DL
         2 000267   004753 755100                    STA     2539,,PR0

      150     5314        /*N* ADD S_D.ACMDS_OFF */
      151     5315    2             CALL DDE$ERROR;

   5315  2 000270   000002 631400 xsym               EPPR1   B_VECTNIL+2
         2 000271   000000 701000 xent               TSX1    DDE$ERROR
         2 000272   000000 011000                    NOP     0

PL6.E3A0      #001=DUA$HELP File=DUA$HELP.:E05TSI                                TUE 07/29/97 14:47 Page:22
      152     5316    2             RETURN;

   5316  2 000273   000000 702200 xent               TSX2  ! X66_ARET

      153     5317    2           END;
      154     5318    1        IF S_D.XUH_PARAM.ERR.ERR# = %E$NULLKEYWORD

   5318  2 000274   004570 116007                    CMPQ    2424,DL
         2 000275   000231 601000 2                  TNZ     XUH_ERR

      155     5319    1        THEN
      156     5320    2   NO_MORE_HELP: DO;

   5320  2 000276                       NO_MORE_HELP null
      157     5321    2             S_D.HELPING = '0'B;

   5321  2 000276   000000 470400 xsym               LDP0    S_D$
         2 000277   005252 450100                    STZ     2730,,PR0

      158     5322    2             S_D.ERROR = 175;   /* E@NO_MORE_HELP */

   5322  2 000300   000257 235007                    LDA     175,DL
         2 000301   000013 755100                    STA     11,,PR0

      159     5323    2             CALL DDE$ERROR;

   5323  2 000302   000002 631400 xsym               EPPR1   B_VECTNIL+2
         2 000303   000000 701000 xent               TSX1    DDE$ERROR
         2 000304   000000 011000                    NOP     0

      160     5324    2             RETURN;

   5324  2 000305   000000 702200 xent               TSX2  ! X66_ARET

   5318  2 000306                       NO_HELP      null
      161     5325    2           END NO_MORE_HELP;
      162     5326    1        ELSE GOTO XUH_ERR;
PL6.E3A0      #001=DUA$HELP File=DUA$HELP.:E05TSI                                TUE 07/29/97 14:47 Page:23
      163     5327    1   NO_HELP: ;
      164     5328    1        S_D.ERROR = 174;             /* E@NO_HELP */

   5328  2 000306   000256 235007                    LDA     174,DL
         2 000307   000013 755100                    STA     11,,PR0

      165     5329    1        CALL DDE$ERROR;

   5329  2 000310   000002 631400 xsym               EPPR1   B_VECTNIL+2
         2 000311   000000 701000 xent               TSX1    DDE$ERROR
         2 000312   000000 011000                    NOP     0

      166     5330
      167     5331    1        RETURN;

   5331  2 000313   000000 702200 xent               TSX2  ! X66_ARET

FPT_ERRMSG
 Sect OctLoc
   1     000   000003 777640   000026 006000   000000 177640   000000 006014    ................
   1     004   000000 177640   000000 006014   000000 177640   000000 006014    ................
   1     024*  000000 177640   000000 006014   000000 000000   000000 000000    ................
   1     030   370000 030001   040000 000000                                    .... ...

(unnamed)
 Sect OctLoc
   1     032   110105 114120                                                    HELP

(unnamed)
 Sect OctLoc
   3     000   777677 777777   000000 006003   000003 777640   000777 777640    ................
      168     5332
      169     5333    1   END DUA$HELP;

PL6.E3A0      #001=DUA$HELP File=DUA$HELP.:E05TSI                                TUE 07/29/97 14:47 Page:24
--  Include file information  --

   XU_PERR_C.:E05TOU  is referenced.
   NK_VFC_C.:E05TOU  is referenced.
   DD_SUBS_C.:E05TOU  is referenced.
   DD_ERR_C.:E05TOU  is referenced.
   DD_SD_M.:E05TOU  is referenced.
   XUH_MACRO_C.:E05TOU  is referenced.
   DD$BASED.:E05TOU  is referenced.
   CP_6.:E05TOU  cannot be made into a system file and is referenced.
   B$JIT_C.:E05TOU  was found in the system file and is never referenced.
   CP_6_C.:E05TOU  was found in the system file and is referenced.
      No diagnostics issued in procedure DUA$HELP.

   Procedure DUA$HELP requires 204 words for executable code.
   Procedure DUA$HELP requires 34 words of local(AUTO) storage.

    No errors detected in file DUA$HELP.:E05TSI    .
PL6.E3A0      #001=DUA$HELP File=DUA$HELP.:E05TSI                                TUE 07/29/97 14:47 Page:25
          *** CROSS REFERENCE LISTING ***
**     DENOTES     IDENTIFIER DEFINITION
<<                 IDENTIFIER'S VALUE SET
>>                 IDENTIFIER'S VALUE USED
<>                 IDENTIFIER SET AND/OR USED
--                 IDENTIFIER REFERENCED
PL6.E3A0      #001=DUA$HELP File=DUA$HELP.:E05TSI                                TUE 07/29/97 14:47 Page:26
          MINI XREF LISTING

DDE$ERROR
      4289**DCL-ENT  5315--CALL     5323--CALL     5329--CALL
DUE$HERRMSG
      4290**DCL-ENT  5298--CALL     5306--CALL
D_M$DO#
      4287**DCL      5233--IF       5265>>ASSIGN   5266--IF
ERER
      5281**LABEL    5282--CALLALT
F$DCB.ACTPOS
      4220**DCL      4220--REDEF
F$DCB.ARS#
      4194**DCL      4194--REDEF
F$DCB.ATTR
      4213**DCL      4214--REDEF
F$DCB.BORROW
      4228**DCL      4228--REDEF    4228--REDEF    4228--REDEF
F$DCB.DCBNAME.L
      4242**DCL      4242--IMP-SIZ
F$DCB.DDEV.UCOUT#
      4201**DCL      5233>>IF       5266>>IF
F$DCB.EOMCHAR#
      4198**DCL      4198--REDEF
F$DCB.FLDID
      4223**DCL      4223--REDEF
F$DCB.FORM$
      4217**DCL      4217--REDEF
F$DCB.FSECT
      4233**DCL      4233--REDEF
F$DCB.FSN#
      4210**DCL      4210--REDEF    4210--REDEF    4211--REDEF
F$DCB.HEADER$
      4216**DCL      4216--REDEF
PL6.E3A0      #001=DUA$HELP File=DUA$HELP.:E05TSI                                TUE 07/29/97 14:47 Page:27
F$DCB.IXTNSIZE#
      4214**DCL      4214--REDEF
F$DCB.LASTSTA$
      4203**DCL      4203--REDEF
F$DCB.LVL
      4229**DCL      4229--REDEF
F$DCB.NAME#.C
      4204**DCL      4204--REDEF
F$DCB.NOEOF
      4226**DCL      4226--REDEF
F$DCB.NRECS#
      4215**DCL      4215--REDEF
F$DCB.NRECX
      4234**DCL      4234--REDEF
F$DCB.OHDR
      4226**DCL      4226--REDEF
F$DCB.ORG#
      4209**DCL      4209--REDEF
F$DCB.PRECNO
      4232**DCL      4232--REDEF
F$DCB.RCSZ
      4238**DCL      4238--REDEF
F$DCB.RES#
      4205**DCL      4205--REDEF
F$DCB.SETX
      4217**DCL      4217--REDEF
F$DCB.TAB$
      4217**DCL      4217--REDEF
F$DCB.TDA
      4231**DCL      4232--REDEF
F$DCB.WSN#
      4205**DCL      4205--REDEF
FPT$ERRMSG
      4170**DCL      5261<<ASSIGN   5282<>CALL
FPT$ERRMSG.BUF_
      4170**DCL      5264<<ASSIGN
PL6.E3A0      #001=DUA$HELP File=DUA$HELP.:E05TSI                                TUE 07/29/97 14:47 Page:28
FPT$ERRMSG.CODE_
      4170**DCL      5263<<ASSIGN
FPT$ERRMSG.V
      4174**DCL      5262--ASSIGN
FPT$ERRMSG.V.OUTDCB1#
      4175**DCL      5265<<ASSIGN
FPT$ERRMSG.V.OUTDCB2#
      4175**DCL      5268<<ASSIGN
FPT$ERRMSG.V.VFC#
      4176**DCL      5273<<ASSIGN   5275<<ASSIGN
FPT$ERRMSG.V_
      4170**DCL      5262<<ASSIGN
FPT_ERRMSG
      4270**DCL      5261>>ASSIGN
FPT_ERRMSG.V
      4274**DCL      4270--DCLINIT
GOT_ONE
      4156**DCL      5279<<ASSIGN   5283<<ASSIGN   5286>>IF
HELP$CMD.ASYM$
      4253**DCL      5229>>ASSIGN
HELP$CMD.CMD
      4246**DCL      5227>>IF       5250>>IF       5276>>IF
HELP_MODE
      5231**LABEL    5254--GOTO
M$ERRMSG
       105**DCL-ENT  5282--CALL
M$UC
        66**DCL      5235>>ASSIGN   5268>>ASSIGN
NO_HELP
      5318**LABEL    5258--GOTO
NO_MORE_HELP
      5320**LABEL    5260--GOTO     5287--GOTO
SEVHI
      4157**DCL      5277<<ASSIGN   5278<<ASSIGN   5280>>DOUNTIL
S_D.BATCH
      3316**DCL      5233>>IF       5266>>IF
PL6.E3A0      #001=DUA$HELP File=DUA$HELP.:E05TSI                                TUE 07/29/97 14:47 Page:29
S_D.COPY
      3465**DCL      5233>>IF
S_D.CURRENT_CHANNEL
      3789**DCL      3791--REDEF
S_D.DEBUGA
      2941**DCL      2943--REDEF
S_D.DO$
      2892**DCL      5227>>IF       5229>>ASSIGN   5250>>IF       5276>>IF
S_D.EIS
      3899**DCL      3928--REDEF
S_D.ERROR
      2870**DCL      5312<<ASSIGN   5322<<ASSIGN   5328<<ASSIGN
S_D.ERROR_HICHAR
      3483**DCL      5313<<ASSIGN
S_D.HELPING
      3692**DCL      5230<<ASSIGN   5247>>IF       5253<<ASSIGN   5295<<ASSIGN   5311<<ASSIGN   5321<<ASSIGN
S_D.HOST_MESSAGE_BUF_REMOTE
      3832**DCL      3833--REDEF    3847--REDEF
S_D.JDCBERR
      3094**DCL      5297<<ASSIGN   5305<<ASSIGN
S_D.JDE
      3446**DCL      3447--REDEF
S_D.JITERR
      3447**DCL      5296<<ASSIGN   5304<<ASSIGN
S_D.L$.VALUE
      2999**DCL      3005--REDEF    3013--REDEF    3016--REDEF    3019--REDEF    3022--REDEF
S_D.L$.VALUE.L
      3000**DCL      3001--REDEF    3002--REDEF
S_D.L6_MESSAGE_BUF
      3853**DCL      3855--REDEF
S_D.LAST_ERROR
      3664**DCL      5257>>IF       5263--ASSIGN
S_D.LAST_ERROR.SEV
      3669**DCL      5259>>IF       5277>>ASSIGN   5280>>DOUNTIL  5281<<ASSIGN   5281>>ASSIGN
S_D.LWEXTEND
      3639**DCL      5237>>IF       5240<<ASSIGN   5269>>IF       5272<<ASSIGN
PL6.E3A0      #001=DUA$HELP File=DUA$HELP.:E05TSI                                TUE 07/29/97 14:47 Page:30
S_D.OUTPUT
      3819**DCL      3821--REDEF    5264--ASSIGN
S_D.REMOTE_MSG.FNCC
      3838**DCL      3839--REDEF
S_D.REMOTE_MSG.STXC
      3834**DCL      3835--REDEF
S_D.REMOTE_MSG.SUBFNCC
      3842**DCL      3843--REDEF
S_D.SV
      2898**DCL      2919--REDEF
S_D.USVFC
      3609**DCL      5237>>IF       5239<<ASSIGN   5269>>IF       5271<<ASSIGN
S_D.XUH_PARAM
      4106**DCL      5244<>CALL
S_D.XUH_PARAM.ALL#
      4116**DCL      5252<<ASSIGN
S_D.XUH_PARAM.CHARPOS
      4128**DCL      5313>>ASSIGN
S_D.XUH_PARAM.ERR
      4121**DCL      5296>>ASSIGN   5304>>ASSIGN
S_D.XUH_PARAM.ERR.ERR#
      4125**DCL      5301>>IF       5309>>IF       5318>>IF
S_D.XUH_PARAM.ERR.MON
      4124**DCL      5292>>IF
S_D.XUH_PARAM.ERR_DCB#
      4127**DCL      5297>>ASSIGN
S_D.XUH_PARAM.HELP$
      4114**DCL      5229<<ASSIGN
S_D.XUH_PARAM.MORE#
      4117**DCL      5251<<ASSIGN
S_D.XUH_PARAM.OUTDCB2#
      4113**DCL      5235<<ASSIGN   5236<<ASSIGN
S_D.XUH_PARAM.TOPICS#
      4118**DCL      5231<<ASSIGN   5249>>IF       5303<<ASSIGN
S_D.XUH_PARAM.VFC#
      4115**DCL      5241<<ASSIGN   5243<<ASSIGN
PL6.E3A0      #001=DUA$HELP File=DUA$HELP.:E05TSI                                TUE 07/29/97 14:47 Page:31
S_D$
      4150**DCL      2846--IMP-PTR  5227>>IF       5229>>ASSIGN   5229>>ASSIGN   5230>>ASSIGN   5231>>ASSIGN
      5233>>IF       5233>>IF       5235>>ASSIGN   5236>>ASSIGN   5237>>IF       5237>>IF       5239>>ASSIGN
      5240>>ASSIGN   5241>>ASSIGN   5243>>ASSIGN   5244>>CALL     5247>>IF       5249>>IF       5250>>IF
      5251>>ASSIGN   5252>>ASSIGN   5253>>ASSIGN   5257>>IF       5259>>IF       5263>>ASSIGN   5264>>ASSIGN
      5266>>IF       5269>>IF       5269>>IF       5271>>ASSIGN   5272>>ASSIGN   5276>>IF       5277>>ASSIGN
      5280>>DOUNTIL  5281>>ASSIGN   5281>>ASSIGN   5292>>IF       5295>>ASSIGN   5296>>ASSIGN   5296>>ASSIGN
      5297>>ASSIGN   5297>>ASSIGN   5301>>IF       5303>>ASSIGN   5304>>ASSIGN   5304>>ASSIGN   5305>>ASSIGN
      5309>>IF       5311>>ASSIGN   5312>>ASSIGN   5313>>ASSIGN   5313>>ASSIGN   5318>>IF       5321>>ASSIGN
      5322>>ASSIGN   5328>>ASSIGN
X$HELP
      4291**DCL-ENT  5244--CALL
XHER
      5286**LABEL    5244--CALLALT
XUH_ERR
      5294**LABEL    5326--GOTO
PL6.E3A0      #001=DUA$HELP File=DUA$HELP.:E05TSI                                TUE 07/29/97 14:47 Page:32
              *** CROSS REFERENCE LISTING ***
    **     DENOTES     IDENTIFIER DEFINITION
    <<                 IDENTIFIER'S VALUE SET
    >>                 IDENTIFIER'S VALUE USED
    <>                 IDENTIFIER SET AND/OR USED
    --                 IDENTIFIER REFERENCED
PL6.E3A0      #001=DUA$HELP File=DUA$HELP.:E05TSI                                TUE 07/29/97 14:47 Page:33
              MINI UREF LISTING

DUA$HELP      31**PROC
M$ACCT      59**DCL-ENT
M$ACTIVATE      62**DCL-ENT
M$ALIB      55**DCL-ENT
M$ASUSER      57**DCL-ENT
M$ATTACH      64**DCL-ENT
M$BADPP      82**DCL-ENT
M$CGCTL      63**DCL-ENT
M$CGINFO      63**DCL-ENT
M$CHECK      44**DCL-ENT
M$CHGUNIT     102**DCL-ENT
M$CLOSE      42**DCL-ENT
M$CLRSTK     100**DCL-ENT
M$CMDVAR     111**DCL-ENT
M$CONFIG      72**DCL-ENT
M$CORRES      47**DCL-ENT
M$CPEXIT      56**DCL-ENT
M$CVM      80**DCL-ENT
M$CVOL      45**DCL-ENT
M$DCLFLD      72**DCL-ENT
M$DEACTIVATE      62**DCL-ENT
M$DELREC      44**DCL-ENT
M$DEQ     109**DCL-ENT
M$DETACH      64**DCL-ENT
M$DEVICE      46**DCL-ENT
M$DISPLAY     109**DCL-ENT
M$DISPRES      49**DCL-ENT
M$DLIB      55**DCL-ENT
M$DRIBBLE      72**DCL-ENT
M$DRTN     100**DCL-ENT
M$DSUSER      57**DCL-ENT
M$ENQ     108**DCL-ENT
PL6.E3A0      #001=DUA$HELP File=DUA$HELP.:E05TSI                                TUE 07/29/97 14:47 Page:34
M$EOM      67**DCL-ENT
M$ERASE      73**DCL-ENT
M$ERR      54**DCL-ENT
M$EVENT      97**DCL-ENT
M$EXHUME     106**DCL-ENT
M$EXIT      54**DCL-ENT
M$EXTEND      46**DCL-ENT
M$FDP      78**DCL-ENT
M$FDS      77**DCL-ENT
M$FEBOOT      70**DCL-ENT
M$FECTL      71**DCL-ENT
M$FEDUMP      70**DCL-ENT
M$FID     105**DCL-ENT
M$FINDPROC      59**DCL-ENT
M$FSUSER      57**DCL-ENT
M$FVP      79**DCL-ENT
M$FWCG      63**DCL-ENT
M$GBPL      83**DCL-ENT
M$GDDL      79**DCL-ENT
M$GDP      78**DCL-ENT
M$GDS      77**DCL-ENT
M$GETDCB      48**DCL-ENT
M$GETMOUSE      88**DCL-ENT
M$GETPM      89**DCL-ENT
M$GJOB     107**DCL-ENT
M$GLINEATTR      67**DCL-ENT
M$GOODPP      82**DCL-ENT
M$GPLATEN      75**DCL-ENT
M$GPROMPT      74**DCL-ENT
M$GTRMATTR      68**DCL-ENT
M$GTRMCTL      66**DCL-ENT
M$GTRMTAB      69**DCL-ENT
M$GVP      78**DCL-ENT
M$HELP     105**DCL-ENT
M$INT      97**DCL-ENT
M$INTRTN      58**DCL-ENT
PL6.E3A0      #001=DUA$HELP File=DUA$HELP.:E05TSI                                TUE 07/29/97 14:47 Page:35
M$IOQ      93**DCL-ENT
M$JOBSTATS     107**DCL-ENT
M$KEYIN      47**DCL-ENT
M$LDEV      42**DCL-ENT
M$LDTRC      55**DCL-ENT
M$LIMIT      48**DCL-ENT
M$LINES      47**DCL-ENT
M$LINK      54**DCL-ENT
M$MADMUCK      50**DCL-ENT
M$MAKUSER      81**DCL-ENT
M$MBS      49**DCL-ENT
M$MDFFLD      73**DCL-ENT
M$MERC      98**DCL-ENT
M$MERCS      99**DCL-ENT
M$MIRROR      93**DCL-ENT
M$MONINFO     110**DCL-ENT
M$MPL      83**DCL-ENT
M$NODEINFO      74**DCL-ENT
M$NXTUSR     108**DCL-ENT
M$OCMSG     106**DCL-ENT
M$OLAY      54**DCL-ENT
M$OPEN      42**DCL-ENT
M$PAS      83**DCL-ENT
M$PATHCON     106**DCL-ENT
M$PDS      77**DCL-ENT
M$PFIL      44**DCL-ENT
M$PLATEN      68**DCL-ENT
M$PRECORD      46**DCL-ENT
M$PROCNAME      59**DCL-ENT
M$PROFILE      70**DCL-ENT
M$PROMPT      66**DCL-ENT
M$RACST      50**DCL-ENT
M$RDSYSLOG      91**DCL-ENT
M$READ      43**DCL-ENT
M$RELDCB      48**DCL-ENT
M$RELRES      49**DCL-ENT
PL6.E3A0      #001=DUA$HELP File=DUA$HELP.:E05TSI                                TUE 07/29/97 14:47 Page:36
M$RELSTARF      51**DCL-ENT
M$REM      51**DCL-ENT
M$RENV      98**DCL-ENT
M$REQUIRE      50**DCL-ENT
M$RETRY      99**DCL-ENT
M$RETRYS      99**DCL-ENT
M$REW      45**DCL-ENT
M$RLSFLD      73**DCL-ENT
M$RPRIV     101**DCL-ENT
M$RSPP      80**DCL-ENT
M$RSWITCH     102**DCL-ENT
M$RUE     108**DCL-ENT
M$SAD      81**DCL-ENT
M$SAVE      57**DCL-ENT
M$SCON      58**DCL-ENT
M$SCREECH      56**DCL-ENT
M$SENV      98**DCL-ENT
M$SETFMA      42**DCL-ENT
M$SETFP      71**DCL-ENT
M$SINPUT      69**DCL-ENT
M$SLCFLD      74**DCL-ENT
M$SMOUSE      88**DCL-ENT
M$SMPRT      80**DCL-ENT
M$SPRIV     101**DCL-ENT
M$SSC      81**DCL-ENT
M$SSWITCH     101**DCL-ENT
M$STATE     110**DCL-ENT
M$STD      82**DCL-ENT
M$STIMER      96**DCL-ENT
M$STLPP      79**DCL-ENT
M$STRAP      96**DCL-ENT
M$STRMATTR      68**DCL-ENT
M$STRMCTL      66**DCL-ENT
M$STRMTAB      69**DCL-ENT
M$SYMBIO     107**DCL-ENT
M$SYSCON      93**DCL-ENT
PL6.E3A0      #001=DUA$HELP File=DUA$HELP.:E05TSI                                TUE 07/29/97 14:47 Page:37
M$SYSID     111**DCL-ENT
M$TDCLOSE      92**DCL-ENT
M$TDIO      92**DCL-ENT
M$TDOPEN      91**DCL-ENT
M$TDREQCPU      92**DCL-ENT
M$TEMPWROC      86**DCL-ENT
M$TIME     109**DCL-ENT
M$TRAP      96**DCL-ENT
M$TRMISC      71**DCL-ENT
M$TRMPRG      67**DCL-ENT
M$TRTN     100**DCL-ENT
M$TRUNC      43**DCL-ENT
M$TTIMER      96**DCL-ENT
M$UMPL      83**DCL-ENT
M$UNFID     105**DCL-ENT
M$UNLATCH      62**DCL-ENT
M$UNSHARE      59**DCL-ENT
M$USRFIELD     102**DCL-ENT
M$VIRTUAL      77**DCL-ENT
M$WAIT     100**DCL-ENT
M$WEOF      45**DCL-ENT
M$WRITE      43**DCL-ENT
M$WRSYSLOG      91**DCL-ENT
M$XCON      97**DCL-ENT
M$XCONRTN      58**DCL-ENT
M$XEQTIME     110**DCL-ENT
M$XFLUSH      51**DCL-ENT
M$XMOUSE      88**DCL-ENT
M$XXX      54**DCL-ENT
M$YC      56**DCL-ENT
