VERSION E05

PL6.E3A0      #001=DUA$OUTPUT File=DUA$OUTPUT.:E05TSI                            TUE 07/29/97 14:47 Page:1
        1        1        /*M* DUA$OUTPUT Output & Read DO routines for User DELTA */
        2        2        /*T***********************************************************/
        3        3        /*T*                                                         */
        4        4        /*T* Copyright (c) Bull HN Information Systems Inc., 1997    */
        5        5        /*T*                                                         */
        6        6        /*T***********************************************************/
        7        7        /*X* DMR,PLM=5,IND=5,CSU=3,EXM=0,ECU=3,MOC,DCI=5,CRT=5 */
        8        8        %SET LISTSUB='1'B;
        9        9        /*P* NAME: DUA$OUTPUT
       10       10             PURPOSE: This module contains the DO routines to process the
       11       11                      Output & Read commands for User DELTA.
       12       12             DESCRIPTION: This module contains the DO routines to process the
       13       13                          Output & Read commands for User DELTA. The entry point
       14       14                          DUA$OUTPUT also does the necessary setup for the DUMP
       15       15                          command when processing DUMP to Fid. The entry point
       16       16                          DUA$READ also processes setting the input dcb back to
       17       17                          the command stream. */
       18       18        %EJECT;
PL6.E3A0      #001=DUA$OUTPUT File=DUA$OUTPUT.:E05TSI                            TUE 07/29/97 14:47 Page:2
       19       19        /*F* NAME: DUA$OUTPUT
       20       20             PURPOSE: To setup output processing for Output & Dump commands.
       21       21             DESCRIPTION: This routine opens the specified dcb to the specified
       22       22                          fid in the specified mode. */
       23       23        /*D* NAME: DUA$OUTPUT
       24       24             ENTRY: DUA$OUTPUT
       25       25             CALL: CALL DUA$OUTPUT( FIDTEXTC, CODE, DCBNM ) ALTRET( error );
       26       26             INTERFACE: DUE$ERRMSG
       27       27                        M$CLOSE
       28       28                        M$FID
       29       29                        M$GETDCB
       30       30                        M$OPEN
       31       31                        M$RELDCB
       32       32             INPUT: FIDTEXTC - Textc name of fid to open dcb to.
       33       33                    CODE - Encoded disposition of dcb to be opened.
       34       34             OUTPUT: DCBNM - If present, dcb number of dcb obtained.
       35       35             SCRATCH: Local AUTO only.
       36       36             DESCRIPTION: This routine opens the specified dcb to the specified
       37       37                          fid in the specified mode. If DCBNM is present, then
       38       38                          a dcb is obtained dynamically, else D_M$DO# is the dcb
       39       39                          used. The CODE specifies the disposition with which the
       40       40                          dcb will be opened. Its value is an un-normalized code
       41       41                          from the parse syntax tree output. RETURNs when done,
       42       42                          ALTRETURNs if any error condition was encountered, having
       43       43                          output the error message via DUE$ERRMSG, subsequent to
       44       44                          setting D_M$DO# to the command stream (RES='ME'). */
       45       45                                                /**/
       46       46        DUA$OUTPUT: PROC( FIDTEXTC, CODE, DCBNM, CONSEC ) ALTRET;
       47       47                                                /**/
       48       48        %INCLUDE CP_6;
       49      129        %INCLUDE DD$BASED;
       50     1432        /* Parameters */
       51     1433    1   DCL 1 FIDTEXTC ALIGNED,
       52     1434    1         2 SIZE UBIN BYTE UNAL,
       53     1435    1         2 TEXT CHAR( FIDTEXTC.SIZE ) UNAL;
       54     1436    1   DCL CODE UBIN;
       55     1437    1   DCL DCBNM UBIN;
PL6.E3A0      #001=DUA$OUTPUT File=DUA$OUTPUT.:E05TSI                            TUE 07/29/97 14:47 Page:3
       56     1438    1   DCL CONSEC BIT(1) ALIGNED;
       57     1439        /* Auto */
       58     1440    1   DCL DCBCUR UBIN;
       59     1441    1   DCL DCB$ PTR;
       60     1442    1   DCL READ$ PTR;
       61     1443    1   DCL REC UBIN;
       62     1444    1   DCL 1 EDITKEY REDEF REC,
       63     1445    1         2 SIZE UBIN BYTE UNAL,
       64     1446    1         2 REC UBIN(27) UNAL;
       65     1447    1   DCL ERRENTRY BIT(1) ALIGNED;
       66     1448        %FPT_CLOSE (FPTN=FPTCLOSE,
       67     1449                    STCLASS=);
       68     1491        %FPT_FID (FPTN=FPTFID,
       69     1492                  STCLASS=);
       70     1515        %FPT_GETDCB (FPTN=FPTGETDCB,
       71     1516                     STCLASS=);
       72     1531        %FPT_OPEN (FPTN=FPTOPEN,
       73     1532                   STCLASS=);
       74     1641        %FPT_PRECORD (FPTN=FPTPRECORD,
       75     1642                      STCLASS=);
       76     1663        %FPT_RELDCB (FPTN=FPTRELDCB,
       77     1664                     STCLASS=);
       78     1678        %VLP_NAME (FPTN=VLPFID_NAME,
       79     1679                   STCLASS=,
       80     1680                   LEN=64);
       81     1707        %VLP_ACCT (FPTN=VLPFID_ACCT,
       82     1708                   STCLASS=);
       83     1721        %VLP_PASS (FPTN=VLPFID_PASS,
       84     1722                   STCLASS=);
       85     1735        %VLP_WSN (FPTN=VLPFID_WSN,
       86     1736                  STCLASS=);
       87     1749        %VLP_SN (FPTN=VLPFID_SN,
       88     1750                 STCLASS=,
       89     1751                 N=1);
       90     1764        %VLR_FID (FPTN=VLRFID,
       91     1765                  STCLASS=);
       92     1784        /* Based */
PL6.E3A0      #001=DUA$OUTPUT File=DUA$OUTPUT.:E05TSI                            TUE 07/29/97 14:47 Page:4
       93     1785        %RUM$CMD (NAME=READ$CMD,
       94     1786                  STCLASS="BASED(READ$)");
       95     1810        %TEXT$C;
       96     1815        %B$TCB;
       97     1818        %B$ALT;
       98     1826        %F$DCB;
       99     1883        /* Constant */
      100     1884        %FPT_OPEN (FPTN=FPT_OPEN_ME,
      101     1885                   STCLASS=CONSTANT SYMDEF,
      102     1886                   ASN=DEVICE,
      103     1887                   FUN=CREATE,
      104     1888                   RES='ME',
      105     1889                   SCRUB=YES);
      106     1998        %FPT_OPEN (FPTN=FPT_OPEN_OUTPUT,
      107     1999                   STCLASS=CONSTANT,
      108     2000                   CTG=NO,
      109     2001                   DISP=NAMED,
      110     2002                   EXIST=ERROR,
      111     2003                   FUN=CREATE,
      112     2004                   ORG=UR,
      113     2005                   REASSIGN=NO,
      114     2006                   SCRUB=YES);
      115     2115        %FPT_OPEN (FPTN=FPT_OPEN_READ,
      116     2116                   STCLASS=CONSTANT,
      117     2117                   FUN=IN,
      118     2118                   REASSIGN=NO,
      119     2119                   SCRUB=YES);
      120     2228        %FPT_PRECORD (FPTN=FPT_PRECORD,
      121     2229                      STCLASS=CONSTANT,
      122     2230                      KEYS=NO,
      123     2231                      KEYR=NO);
      124     2252        /* Symref */
      125     2253    1   DCL D_M$DO# UBIN SYMREF;
      126     2254    1   DCL D_M$DELT# UBIN SYMREF;
      127     2255    1   DCL B$TCB$ PTR SYMREF;
      128     2256        %FPT_FID (FPTN=FPT_FID,
      129     2257                  STCLASS=SYMREF);
PL6.E3A0      #001=DUA$OUTPUT File=DUA$OUTPUT.:E05TSI                            TUE 07/29/97 14:47 Page:5
      130     2280        %FPT_GETDCB (FPTN=FPT_GETDCB,
      131     2281                     STCLASS=SYMREF);
      132     2296        %FPT_CLOSE (FPTN=FPT_CLOSE,
      133     2297                    STCLASS=SYMREF);
      134     2339        %FPT_RELDCB (FPTN=FPT_RELDCB,
      135     2340                     STCLASS=SYMREF);
      136     2354        %VLP_SN (FPTN=VLP_FID_SN,
      137     2355                 STCLASS=SYMREF);
      138     2368        /* DELTA static data */
      139     2369        %INCLUDE XUH_MACRO_C;
      140     2453        %INCLUDE DD_SD_M;
      141     3789        %S_D;
      142     5107        /* Entry */
      143     5108    1   DCL DDE$ERROR ENTRY(0);
      144     5109    1   DCL DUE$ERRMSG ENTRY(0);
      145     5110    1   DCL DUE$ERRMSG1 ENTRY;
      146     5111        /* Misc */
      147     5112        %INCLUDE CP_6_SUBS;
      148     5652        %INCLUDE DD_ERR_C;
      149     6049        %INCLUDE DD_PSUBS_C;
      150     6524        %INCLUDE F_ERRORS_C;
      151     6764                                                /**/
      152     6765        /* Process the fid first */
      153     6766    1        FPTFID = FPT_FID;
      154     6767    1        FPTOPEN = FPT_OPEN_OUTPUT;
      155     6768    1        FPTFID.TEXTFID_ = VECTOR( FIDTEXTC.TEXT );
      156     6769    1        CALL PROCESS_FID ALTRET( ARETFO );
      157     6770        /* Setup to access dcb to use */
      158     6771    1        DCBCUR = 0;
      159     6772    1        IF ADDR( DCBNM ) = ADDR( NIL )
      160     6773    2        THEN DO;                           /* Use D_M$DO# */
      161     6774    2             DCBCUR = D_M$DO#;
      162     6775    2           END;
      163     6776    2        ELSE DO;                           /* Gotta get one */
      164     6777    2             FPTGETDCB = FPT_GETDCB;
      165     6778    2             FPTGETDCB.V_ = VECTOR( FPTGETDCB.V );
      166     6779    2             FPTGETDCB.DCBNUM_ = VECTOR( DCBCUR );
PL6.E3A0      #001=DUA$OUTPUT File=DUA$OUTPUT.:E05TSI                            TUE 07/29/97 14:47 Page:6
      167     6780    2             CALL M$GETDCB( FPTGETDCB ) ALTRET( ARETG );
      168     6781    2           END;
      169     6782    1        DCB$ = DCBADDR( DCBCUR );
      170     6783    1        IF DCB$ -> F$DCB.FCD#
      171     6784    2        THEN DO;                           /* Close it first */
      172     6785    2             FPTCLOSE = FPT_CLOSE;
      173     6786    2             FPTCLOSE.V_ = VECTOR( FPTCLOSE.V );
      174     6787    2             FPTCLOSE.V.DCB# = DCBCUR;
      175     6788    2             CALL M$CLOSE( FPTCLOSE ) ALTRET( ARETCO );
      176     6789    2           END;
      177     6790        /* Open as specified by user */
      178     6791    2        DO CASE ( CODE );
      179     6792    2          CASE ( 390 );                   /* ON/TO */
      180     6793        /*********FPTOPEN.V.EXIST# = ERROR#;*********/
      181     6794    2          CASE ( 391 );                 /* OVER */
      182     6795    2             FPTOPEN.V.EXIST# = %NEWFILE#;
      183     6796    2          CASE ( 392 );                 /* INTO */
      184     6797    2             FPTOPEN.V.EXIST# = %OLDFILE#;
      185     6798    2          END;
      186     6799    1        FPTOPEN.V.DCB# = DCBCUR;
      187     6800    1        IF ADDR(CONSEC)~=ADDR(NIL) THEN IF CONSEC='1'B THEN FPTOPEN.V.ORG#=%CONSEC#;
      188     6801    1        CALL M$OPEN( FPTOPEN ) ALTRET( ARETOO );
      189     6802    1        IF ADDR( DCBNM ) ~= ADDR( NIL )
      190     6803    1        THEN DCBNM = DCBCUR;
      191     6804                                                /**/
      192     6805    1        RETURN;
      193     6806                                                /**/
      194     6807        %EJECT;
PL6.E3A0      #001=DUA$OUTPUT File=DUA$OUTPUT.:E05TSI                            TUE 07/29/97 14:47 Page:7
      195     6808                                                /**/
      196     6809    1   ARETFO: ;
      197     6810    1   ARETG: ;
      198     6811    1   ERRMSGO: ;
      199     6812    1        CALL DUE$ERRMSG;
      200     6813    1   ALT: ;
      201     6814    1        ALTRETURN;
      202     6815                                                /**/
      203     6816    1   ARETOO: ;
      204     6817    1        IF ADDR( DCBNM ) ~= ADDR( NIL )
      205     6818    2        THEN DO;
      206     6819    2             CALL DUE$ERRMSG;
      207     6820    2             FPTRELDCB = FPT_RELDCB;
      208     6821    2             FPTRELDCB.V_ = VECTOR( FPTRELDCB.V );
      209     6822    2             FPTRELDCB.V.DCB# = DCBCUR;
      210     6823    2             CALL M$RELDCB( FPTRELDCB ) ALTRET( ARETRE );
      211     6824    3             DO WHILE ( '0'B );
      212     6825    3   ARETRE:        CALL DUE$ERRMSG;
      213     6826    3                END;
      214     6827    2             GOTO ALT;
      215     6828    2           END;
      216     6829    1   ARETCO: ;
      217     6830    1        CALL M$SENV ALTRET( ARETS );
      218     6831    1        FPTOPEN = FPT_OPEN_ME;
      219     6832    1        FPTOPEN.V_ = VECTOR( FPTOPEN.V );
      220     6833    1        FPTOPEN.V.DCB# = D_M$DO#;
      221     6834        /****FPTOPEN.V.FUN# = CREATE#;****/
      222     6835    1        CALL M$OPEN( FPTOPEN ) ALTRET( ARETOO1 );
      223     6836    1        CALL M$RENV ALTRET( ARETR );
      224     6837    1        CALL DUE$ERRMSG1;                  /* NO ERRDCB */
      225     6838    1        ALTRETURN;
      226     6839                                                /**/
      227     6840    1   ARETS: ;
      228     6841    1   ARETOO1: ;
      229     6842    1   ARETR: ;
      230     6843    1        CALL M$XXX;
      231     6844                                                /**/
PL6.E3A0      #001=DUA$OUTPUT File=DUA$OUTPUT.:E05TSI                            TUE 07/29/97 14:47 Page:8
      232     6845        %EJECT;
PL6.E3A0      #001=DUA$OUTPUT File=DUA$OUTPUT.:E05TSI                            TUE 07/29/97 14:47 Page:9
      233     6846        /*F* NAME: DUA$READ
      234     6847             PURPOSE: To setup input processing for Read command.
      235     6848             DESCRIPTION: This routine opens & positions M$DELTA dcb to the specified
      236     6849                          fid. */
      237     6850        /*D* NAME: DUA$READ
      238     6851             ENTRY: DUA$READ
      239     6852             CALL: CALL DUA$READ( READ$CMD ) ALTRET( error );
      240     6853             INTERFACE: DDE$ERROR
      241     6854                        DUE$ERRMSG
      242     6855                        M$CLOSE
      243     6856                        M$FID
      244     6857                        M$OPEN
      245     6858             INPUT: READ$CMD - If present, read command build buffer.
      246     6859             OUTPUT: S_D.READPOS - Current record position in fid.
      247     6860             SCRATCH: Local AUTO only.
      248     6861             DESCRIPTION: This routine opens & positions M$DELTA dcb to the specified
      249     6862                          fid. The sequential position is recorded in S_D.READPOS.
      250     6863                          RETURNs when done. If any error condition occurred, then
      251     6864                          M$DELTA is reset to the command stream (RES='ME'), and
      252     6865                          the appropriate error message is output via DDE$ERROR
      253     6866                          or DUE$ERRMSG, then ALTRETURNs. */
      254     6867                                                /**/
      255     6868    1   DUA$READ: ENTRY( FIDTEXTC ) ALTRET;
      256     6869                                                /**/
      257     6870    1        READ$ = ADDR( FIDTEXTC );
      258     6871    1        DCB$ = DCBADDR( D_M$DELT# );
      259     6872    1        ERRENTRY = '0'B;
      260     6873    1        IF READ$ = ADDR( NIL )
      261     6874    1        THEN GOTO RESET_M$DELTA;
      262     6875        /* Process the fid first */
      263     6876    1        FPTFID = FPT_FID;
      264     6877    1        FPTOPEN = FPT_OPEN_READ;
      265     6878    1        FPTFID.TEXTFID_ = VECTOR( ADDR( READ$CMD.FID ) -> TEXT$C.TXT );
      266     6879    1        CALL PROCESS_FID ALTRET( ARETFR );
      267     6880    1        FPTOPEN.V.DCB# = D_M$DELT#;
      268     6881    1        FPTOPEN.V.XONLY# = '1'B;
      269     6882        /* Close M$DELTA */
PL6.E3A0      #001=DUA$OUTPUT File=DUA$OUTPUT.:E05TSI                            TUE 07/29/97 14:47 Page:10
      270     6883    1        FPTCLOSE = FPT_CLOSE;
      271     6884    1        FPTCLOSE.V_ = VECTOR( FPTCLOSE.V );
      272     6885    1        FPTCLOSE.V.DCB# = D_M$DELT#;
      273     6886    1        CALL M$CLOSE( FPTCLOSE ) ALTRET( ARETCR );
      274     6887        /* Open M$DELTA with user specified fid */
      275     6888    1        CALL M$OPEN( FPTOPEN ) ALTRET( ARETOR );
      276     6889    1        IF NOT S_D.BATCH
      277     6890    1        THEN IF FPTOPEN.V.ASN# = %DEVICE#
      278     6891    1             THEN S_D.M$DELTA_RES = FPTOPEN.V.RES#;
      279     6892        /* Position to user specified record */
      280     6893    1        FPTPRECORD = FPT_PRECORD;
      281     6894    1        FPTPRECORD.V_ = VECTOR( FPTPRECORD.V );
      282     6895    1        FPTPRECORD.V.DCB# = D_M$DELT#;
      283     6896    1        REC = READ$CMD.REC;
      284     6897    1        S_D.READPOS = 1;
      285     6898    1        IF DCB$ -> F$DCB.ASN# ~= %FILE#
      286     6899    1        THEN IF READ$CMD.RECEDIT
      287     6900    1             THEN GOTO ERR0;               /* Not EDIT file */
      288     6901    1             ELSE IF REC ~= 1
      289     6902    1                  THEN GOTO ERR1;          /* Not file */
      290     6903    1                  ELSE ;
      291     6904    1        ELSE IF READ$CMD.RECEDIT
      292     6905    1             THEN IF DCB$ -> F$DCB.ORG# = %KEYED#
      293     6906    2                  THEN DO;
      294     6907    2                       FPTPRECORD.V.KEYS# = %YES#;
      295     6908    2                       FPTPRECORD.KEY_ = VECTOR( REC );
      296     6909    2                       EDITKEY.SIZE = LENGTHC( EDITKEY.REC );
      297     6910    2                       CALL M$PRECORD( FPTPRECORD ) ALTRET( ARETPE );
      298     6911    3                       DO WHILE ( '0'B );
      299     6912    3   ARETPE:                  IF B$TCB$ -> B$TCB.ALT$ -> B$ALT.ERR.CODE ~= %E$NOKEY
      300     6913    3                            THEN GOTO ARETPE1;
      301     6914    3                          END;
      302     6915    2                     END;
      303     6916    1                  ELSE GOTO ERR0;          /* Not EDIT file */
      304     6917    2             ELSE DO;
      305     6918                                                /****FPTPRECORD.V.KEYS# = NO#;****/
      306     6919    2                  S_D.READPOS = REC;
PL6.E3A0      #001=DUA$OUTPUT File=DUA$OUTPUT.:E05TSI                            TUE 07/29/97 14:47 Page:11
      307     6920    2                  FPTPRECORD.V.N# = REC - 1;
      308     6921    2                  CALL M$PRECORD( FPTPRECORD ) ALTRET( ARETPC );
      309     6922    2                END;
      310     6923                                                /**/
      311     6924    1        S_D.PMD_ONLY = '0'B;               /* Stay in DELTA now. */
      312     6925    1        RETURN;
      313     6926                                                /**/
      314     6927        %EJECT;
PL6.E3A0      #001=DUA$OUTPUT File=DUA$OUTPUT.:E05TSI                            TUE 07/29/97 14:47 Page:12
      315     6928                                                /**/
      316     6929    1   ERR0: ;
      317     6930    1        S_D.ERROR = 161;             /* E@NOTEDIT */
      318     6931    1        GOTO ERROR;
      319     6932    1   ERR1: ;
      320     6933    1        S_D.ERROR = 162;             /* E@NOTFILE */
      321     6934    1        GOTO ERROR;
      322     6935                                                /**/
      323     6936    1   ERROR: ;
      324     6937    1        CALL DDE$ERROR;
      325     6938    1        GOTO CLEANUP_READ;
      326     6939                                                /**/
      327     6940    1   ARETFR: ;
      328     6941    1   ARETCR: ;
      329     6942    1   ARETOR: ;
      330     6943    1   ARETPC: ;
      331     6944    1   ARETPE1: ;
      332     6945    1        CALL DUE$ERRMSG;
      333     6946    1        GOTO CLEANUP_READ;
      334     6947                                                /**/
      335     6948    1   CLEANUP_READ: ;
      336     6949                                                /**/
      337     6950    1        ERRENTRY = '1'B;
      338     6951    1        GOTO RESET_M$DELTA;
      339     6952                                                /**/
      340     6953    1   RESET_M$DELTA: ;
      341     6954                                                /**/
      342     6955    1        IF DCB$ -> F$DCB.FCD#
      343     6956    2        THEN DO;
      344     6957    2             FPTCLOSE = FPT_CLOSE;
      345     6958    2             FPTCLOSE.V_ = VECTOR( FPTCLOSE.V );
      346     6959    2             FPTCLOSE.V.DCB# = D_M$DELT#;
      347     6960    2             CALL M$CLOSE( FPTCLOSE ) ALTRET( ARETCR1 );
      348     6961    3             DO WHILE ( '0'B );
      349     6962    3   ARETCR1:       CALL DUE$ERRMSG;
      350     6963    3                END;
      351     6964    2           END;
PL6.E3A0      #001=DUA$OUTPUT File=DUA$OUTPUT.:E05TSI                            TUE 07/29/97 14:47 Page:13
      352     6965    1        FPTOPEN = FPT_OPEN_ME;
      353     6966    1        FPTOPEN.V_ = VECTOR( FPTOPEN.V );
      354     6967    1        FPTOPEN.V.DCB# = D_M$DELT#;
      355     6968    1        FPTOPEN.V.FUN# = %IN#;
      356     6969    1        FPTOPEN.V.RES# = S_D.M$DELTA_RES;
      357     6970    1        CALL M$OPEN( FPTOPEN ) ALTRET( ARETOR1 );
      358     6971    2        DO WHILE ( '0'B );
      359     6972    2   ARETOR1:  CALL DUE$ERRMSG;
      360     6973    2             CALL M$XXX;
      361     6974    2           END;
      362     6975                                                /**/
      363     6976    1        S_D.READPOS = 1;
      364     6977    1        IF ERRENTRY
      365     6978    1        THEN ALTRETURN;
      366     6979    1        ELSE RETURN;
      367     6980                                                /**/
      368     6981        %EJECT;
PL6.E3A0      #001=DUA$OUTPUT File=DUA$OUTPUT.:E05TSI                            TUE 07/29/97 14:47 Page:14
      369     6982                                                /**/
      370     6983    1   PROCESS_FID: PROC ALTRET;
      371     6984                                                /**/
      372     6985    2        FPTFID.V_ = VECTOR( FPTFID.V );
      373     6986    2        FPTFID.NAME_ = VECTOR( VLPFID_NAME );
      374     6987    2        FPTFID.ACCT_ = VECTOR( VLPFID_ACCT );
      375     6988    2        FPTFID.PASS_ = VECTOR( VLPFID_PASS );
      376     6989    2        VLPFID_SN = VLP_FID_SN;
      377     6990    2        FPTFID.SN_ = VECTOR( VLPFID_SN );
      378     6991    2        FPTFID.WSN_ = VECTOR( VLPFID_WSN );
      379     6992    2        FPTFID.ASN_ = VECTOR( FPTOPEN.V.ASN# );
      380     6993    2        FPTFID.RES_ = VECTOR( FPTOPEN.V.RES# );
      381     6994    2        FPTFID.RESULTS_ = VECTOR( VLRFID );
      382     6995    2        CALL M$FID( FPTFID ) ALTRET( ARETF );
      383     6996    2        FPTOPEN.V_ = VECTOR( FPTOPEN.V );
      384     6997    2        FPTOPEN.SN_ = VECTOR( VLPFID_SN );
      385     6998    2        FPTOPEN.NAME_ = VECTOR( VLPFID_NAME );
      386     6999    2        FPTOPEN.PASS_ = VECTOR( VLPFID_PASS );
      387     7000    2        FPTOPEN.ACCT_ = VECTOR( VLPFID_ACCT );
      388     7001    2        FPTOPEN.WSN_ = VECTOR( VLPFID_WSN );
      389     7002                                                /**/
      390     7003    2        RETURN;
      391     7004                                                /**/
      392     7005    2   ARETF: ;
      393     7006    2        ALTRETURN;
      394     7007                                                /**/
      395     7008    2   END PROCESS_FID;
      396     7009                                                /**/
      397     7010        %EJECT;
PL6.E3A0      #001=DUA$OUTPUT File=DUA$OUTPUT.:E05TSI                            TUE 07/29/97 14:47 Page:15
      398     7011        /*F* NAME: DUA$CLOSEDUMP
      399     7012             PURPOSE: To close the dcb given in S_D.DUMPDCB.
      400     7013                                      */
      401     7014        /*D* NAME: DUA$CLOSEDUMP
      402     7015             CALL: CALL DUA$CLOSEDUMP ALTRET (error);
      403     7016             INTERFACE: DUE$ERRMSG
      404     7017                        M$CLOSE
      405     7018                        M$RELDCB
      406     7019             INPUT: S_D.DUMPDCB - DCB to close and release.
      407     7020             DESCRIPTION: This routine closes and releases the DCB obtained
      408     7021                          by DDA$DUMP thru DUA$OUTPUT during a dump on fid.
      409     7022                          If the close or release altret, DUE$ERRMSG is called
      410     7023                          to output the error.  This routine does not ALTRET.
      411     7024                                 */
      412     7025                                                /**/
      413     7026    1   DUA$CLOSEDUMP: ENTRY ALTRET;
      414     7027                                                /**/
      415     7028    1        FPTCLOSE = FPT_CLOSE;
      416     7029    1        FPTCLOSE.V_ = VECTOR(FPTCLOSE.V);
      417     7030    1        FPTCLOSE.V.DCB# = S_D.DUMPDCB;
      418     7031    1        CALL M$CLOSE( FPTCLOSE ) ALTRET (ARETCR2);
      419     7032    2        DO WHILE ('0'B);
      420     7033    2   ARETCR2:  CALL DUE$ERRMSG;
      421     7034    2           END;
      422     7035    1        FPTRELDCB = FPT_RELDCB;
      423     7036    1        FPTRELDCB.V_ = VECTOR( FPTRELDCB.V);
      424     7037    1        FPTRELDCB.V.DCB# = S_D.DUMPDCB;
      425     7038    1        CALL M$RELDCB( FPTRELDCB ) ALTRET(ARETRL1);
      426     7039    2        DO WHILE ('0'B);
      427     7040    2   ARETRL1:  CALL DUE$ERRMSG;
      428     7041    2           END;
      429     7042    1        RETURN;
      430     7043                                                /**/
      431     7044                                                /* END DUA$CLOSEDUMP */
      432     7045                                                /**/
      433     7046    1   END DUA$OUTPUT;

PL6.E3A0      #001=DUA$OUTPUT File=DUA$OUTPUT.:E05TSI                            TUE 07/29/97 14:47 Page:16
--  Include file information  --

   F_ERRORS_C.:E05TOU  is referenced.
   DD_PSUBS_C.:E05TOU  is referenced.
   DD_ERR_C.:E05TOU  is referenced.
   CP_6_SUBS.:E05TOU  is referenced.
   DD_SD_M.:E05TOU  is referenced.
   XUH_MACRO_C.:E05TOU  is referenced.
   DD$BASED.:E05TOU  is referenced.
   CP_6.:E05TOU  cannot be made into a system file and is referenced.
   B$JIT_C.:E05TOU  was found in the system file and is never referenced.
   CP_6_C.:E05TOU  was found in the system file and is referenced.
      No diagnostics issued in procedure DUA$OUTPUT.

   Procedure DUA$OUTPUT requires 478 words for executable code.
   Procedure DUA$OUTPUT requires 188 words of local(AUTO) storage.

    No errors detected in file DUA$OUTPUT.:E05TSI    .

PL6.E3A0      #001=DUA$OUTPUT File=DUA$OUTPUT.:E05TSI                            TUE 07/29/97 14:47 Page:17

 Object Unit name= DUA$OUTPUT                                 File name= DUA$OUTPUT.:E05TOU
 UTS= JUL 29 '97 14:47:24.16 TUE                              Compiler= PL-6/E31         Sev=      00
 SharedLib= :SHARED_SYSTEM                                    Alt SharedLib=


    ****  Control sections  ****

 Sect   Type Bound  Init  Size OctSiz  Section name(segment info)
    0   DCB   even  none     0      0  M$UC
    1  RoData even  UTS    184    270  DUA$OUTPUT
    2   Proc  even  none   478    736  DUA$OUTPUT
    3  RoData even  none     9     11  DUA$OUTPUT

    ****  Entry defs  ****

                              Check   Calling
                             calling  sequence
  Sect OctLoc Primary Altret sequence   type   Parms  Name
     2      0   yes    yes     yes      Std        4  DUA$OUTPUT
     2    234          yes     yes      Std        1  DUA$READ
     2    665          yes     yes      Std        0  DUA$CLOSEDUMP

  ****  Data defs  ****

 Sect OctLoc  Name                           Sect OctLoc  Name
    1      0  FPT_OPEN_ME
PL6.E3A0      #001=DUA$OUTPUT File=DUA$OUTPUT.:E05TSI                            TUE 07/29/97 14:47 Page:18

  ****  Entry refs  ****

         Check        Calling
        calling       sequence
Altret sequence SRef   type   Args  Name
         yes           Std       0 DUE$ERRMSG
         yes           Std       0 DUE$ERRMSG1
         yes           Std       0 DDE$ERROR
                       nStd      0 X66_AUTO_4
                       Std       0 B_CONSPOOL_D
                       nStd      0 X66_ARET
                       nStd      0 X66_AALT

  ****  Data refs  ****

  Flags:  r = read only, s = secondary
Flgs Name                             Flgs Name                             Flgs Name
     M$UC                                  D_M$DO#                               D_M$DELT#
     B$TCB$                                FPT_FID                               FPT_GETDCB
     FPT_CLOSE                             FPT_RELDCB                            VLP_FID_SN
r    S_D$                                  B_VECTNIL

  ****  Segment refs  ****

  Flags:  r = read only, s = secondary
Flgs Name                             Flgs Name                             Flgs Name
     ISSID                                 NULLSID                               ROSID
PL6.E3A0      #001=DUA$OUTPUT File=DUA$OUTPUT.:E05TSI                            TUE 07/29/97 14:47 Page:19


        1        1        /*M* DUA$OUTPUT Output & Read DO routines for User DELTA */
        2        2        /*T***********************************************************/
        3        3        /*T*                                                         */
        4        4        /*T* Copyright (c) Bull HN Information Systems Inc., 1997    */
        5        5        /*T*                                                         */
        6        6        /*T***********************************************************/
        7        7        /*X* DMR,PLM=5,IND=5,CSU=3,EXM=0,ECU=3,MOC,DCI=5,CRT=5 */
        8        8        %SET LISTSUB='1'B;
        9        9        /*P* NAME: DUA$OUTPUT
       10       10             PURPOSE: This module contains the DO routines to process the
       11       11                      Output & Read commands for User DELTA.
       12       12             DESCRIPTION: This module contains the DO routines to process the
       13       13                          Output & Read commands for User DELTA. The entry point
       14       14                          DUA$OUTPUT also does the necessary setup for the DUMP
       15       15                          command when processing DUMP to Fid. The entry point
       16       16                          DUA$READ also processes setting the input dcb back to
       17       17                          the command stream. */
       18       18        %EJECT;
PL6.E3A0      #001=DUA$OUTPUT File=DUA$OUTPUT.:E05TSI                            TUE 07/29/97 14:47 Page:20
       19       19        /*F* NAME: DUA$OUTPUT
       20       20             PURPOSE: To setup output processing for Output & Dump commands.
       21       21             DESCRIPTION: This routine opens the specified dcb to the specified
       22       22                          fid in the specified mode. */
       23       23        /*D* NAME: DUA$OUTPUT
       24       24             ENTRY: DUA$OUTPUT
       25       25             CALL: CALL DUA$OUTPUT( FIDTEXTC, CODE, DCBNM ) ALTRET( error );
       26       26             INTERFACE: DUE$ERRMSG
       27       27                        M$CLOSE
       28       28                        M$FID
       29       29                        M$GETDCB
       30       30                        M$OPEN
       31       31                        M$RELDCB
       32       32             INPUT: FIDTEXTC - Textc name of fid to open dcb to.
       33       33                    CODE - Encoded disposition of dcb to be opened.
       34       34             OUTPUT: DCBNM - If present, dcb number of dcb obtained.
       35       35             SCRATCH: Local AUTO only.
       36       36             DESCRIPTION: This routine opens the specified dcb to the specified
       37       37                          fid in the specified mode. If DCBNM is present, then
       38       38                          a dcb is obtained dynamically, else D_M$DO# is the dcb
       39       39                          used. The CODE specifies the disposition with which the
       40       40                          dcb will be opened. Its value is an un-normalized code
       41       41                          from the parse syntax tree output. RETURNs when done,
       42       42                          ALTRETURNs if any error condition was encountered, having
       43       43                          output the error message via DUE$ERRMSG, subsequent to
       44       44                          setting D_M$DO# to the command stream (RES='ME'). */
       45       45                                                /**/
       46       46        DUA$OUTPUT: PROC( FIDTEXTC, CODE, DCBNM, CONSEC ) ALTRET;

     46  2 000000   000000 700200 xent  DUA$OUTPUT   TSX0  ! X66_AUTO_4
         2 000001   000274 000004                    ZERO    188,4

       47       47                                                /**/
       48       48        %INCLUDE CP_6;
       49      129        %INCLUDE DD$BASED;
       50     1432        /* Parameters */
       51     1433    1   DCL 1 FIDTEXTC ALIGNED,
PL6.E3A0      #001=DUA$OUTPUT File=DUA$OUTPUT.:E05TSI                            TUE 07/29/97 14:47 Page:21
       52     1434    1         2 SIZE UBIN BYTE UNAL,
       53     1435    1         2 TEXT CHAR( FIDTEXTC.SIZE ) UNAL;
       54     1436    1   DCL CODE UBIN;
       55     1437    1   DCL DCBNM UBIN;
       56     1438    1   DCL CONSEC BIT(1) ALIGNED;
       57     1439        /* Auto */
       58     1440    1   DCL DCBCUR UBIN;
       59     1441    1   DCL DCB$ PTR;
       60     1442    1   DCL READ$ PTR;
       61     1443    1   DCL REC UBIN;
       62     1444    1   DCL 1 EDITKEY REDEF REC,
       63     1445    1         2 SIZE UBIN BYTE UNAL,
       64     1446    1         2 REC UBIN(27) UNAL;
       65     1447    1   DCL ERRENTRY BIT(1) ALIGNED;
       66     1448        %FPT_CLOSE (FPTN=FPTCLOSE,
       67     1449                    STCLASS=);
       68     1491        %FPT_FID (FPTN=FPTFID,
       69     1492                  STCLASS=);
       70     1515        %FPT_GETDCB (FPTN=FPTGETDCB,
       71     1516                     STCLASS=);
       72     1531        %FPT_OPEN (FPTN=FPTOPEN,
       73     1532                   STCLASS=);
       74     1641        %FPT_PRECORD (FPTN=FPTPRECORD,
       75     1642                      STCLASS=);
       76     1663        %FPT_RELDCB (FPTN=FPTRELDCB,
       77     1664                     STCLASS=);
       78     1678        %VLP_NAME (FPTN=VLPFID_NAME,
       79     1679                   STCLASS=,
       80     1680                   LEN=64);
       81     1707        %VLP_ACCT (FPTN=VLPFID_ACCT,
       82     1708                   STCLASS=);
       83     1721        %VLP_PASS (FPTN=VLPFID_PASS,
       84     1722                   STCLASS=);
       85     1735        %VLP_WSN (FPTN=VLPFID_WSN,
       86     1736                  STCLASS=);
       87     1749        %VLP_SN (FPTN=VLPFID_SN,
       88     1750                 STCLASS=,
PL6.E3A0      #001=DUA$OUTPUT File=DUA$OUTPUT.:E05TSI                            TUE 07/29/97 14:47 Page:22
       89     1751                 N=1);
       90     1764        %VLR_FID (FPTN=VLRFID,
       91     1765                  STCLASS=);
       92     1784        /* Based */
       93     1785        %RUM$CMD (NAME=READ$CMD,
       94     1786                  STCLASS="BASED(READ$)");
       95     1810        %TEXT$C;
       96     1815        %B$TCB;
       97     1818        %B$ALT;
       98     1826        %F$DCB;
       99     1883        /* Constant */
      100     1884        %FPT_OPEN (FPTN=FPT_OPEN_ME,
      101     1885                   STCLASS=CONSTANT SYMDEF,
      102     1886                   ASN=DEVICE,
      103     1887                   FUN=CREATE,
      104     1888                   RES='ME',
      105     1889                   SCRUB=YES);
      106     1998        %FPT_OPEN (FPTN=FPT_OPEN_OUTPUT,
      107     1999                   STCLASS=CONSTANT,
      108     2000                   CTG=NO,
      109     2001                   DISP=NAMED,
      110     2002                   EXIST=ERROR,
      111     2003                   FUN=CREATE,
      112     2004                   ORG=UR,
      113     2005                   REASSIGN=NO,
      114     2006                   SCRUB=YES);
      115     2115        %FPT_OPEN (FPTN=FPT_OPEN_READ,
      116     2116                   STCLASS=CONSTANT,
      117     2117                   FUN=IN,
      118     2118                   REASSIGN=NO,
      119     2119                   SCRUB=YES);
      120     2228        %FPT_PRECORD (FPTN=FPT_PRECORD,
      121     2229                      STCLASS=CONSTANT,
      122     2230                      KEYS=NO,
      123     2231                      KEYR=NO);
      124     2252        /* Symref */
      125     2253    1   DCL D_M$DO# UBIN SYMREF;
PL6.E3A0      #001=DUA$OUTPUT File=DUA$OUTPUT.:E05TSI                            TUE 07/29/97 14:47 Page:23
      126     2254    1   DCL D_M$DELT# UBIN SYMREF;
      127     2255    1   DCL B$TCB$ PTR SYMREF;
      128     2256        %FPT_FID (FPTN=FPT_FID,
      129     2257                  STCLASS=SYMREF);
      130     2280        %FPT_GETDCB (FPTN=FPT_GETDCB,
      131     2281                     STCLASS=SYMREF);
      132     2296        %FPT_CLOSE (FPTN=FPT_CLOSE,
      133     2297                    STCLASS=SYMREF);
      134     2339        %FPT_RELDCB (FPTN=FPT_RELDCB,
      135     2340                     STCLASS=SYMREF);
      136     2354        %VLP_SN (FPTN=VLP_FID_SN,
      137     2355                 STCLASS=SYMREF);
      138     2368        /* DELTA static data */
      139     2369        %INCLUDE XUH_MACRO_C;
      140     2453        %INCLUDE DD_SD_M;
      141     3789        %S_D;
      142     5107        /* Entry */
      143     5108    1   DCL DDE$ERROR ENTRY(0);
      144     5109    1   DCL DUE$ERRMSG ENTRY(0);
      145     5110    1   DCL DUE$ERRMSG1 ENTRY;
      146     5111        /* Misc */
      147     5112        %INCLUDE CP_6_SUBS;
      148     5652        %INCLUDE DD_ERR_C;
      149     6049        %INCLUDE DD_PSUBS_C;
      150     6524        %INCLUDE F_ERRORS_C;
      151     6764                                                /**/
      152     6765        /* Process the fid first */
      153     6766    1        FPTFID = FPT_FID;

   6766  2 000002   000100 100400                    MLR     fill='000'O
         2 000003   000000 000140 xsym               ADSC9   FPT_FID                  cn=0,n=96
         2 000004   200052 000140                    ADSC9   FPTFID,,AUTO             cn=0,n=96

      154     6767    1        FPTOPEN = FPT_OPEN_OUTPUT;

   6767  2 000005   000100 100400                    MLR     fill='000'O
         2 000006   000072 000350 1                  ADSC9   FPT_OPEN_OUTPUT          cn=0,n=232
PL6.E3A0      #001=DUA$OUTPUT File=DUA$OUTPUT.:E05TSI                            TUE 07/29/97 14:47 Page:24
         2 000007   200112 000350                    ADSC9   FPTOPEN,,AUTO            cn=0,n=232

      155     6768    1        FPTFID.TEXTFID_ = VECTOR( FIDTEXTC.TEXT );

   6768  2 000010   200003 470500                    LDP0    @FIDTEXTC,,AUTO
         2 000011   000000 236100                    LDQ     0,,PR0
         2 000012   000033 772000                    QRL     27
         2 000013   000064 737000                    LLS     52
         2 000014   000140 135007                    SBLA    96,DL
         2 000015   200003 236100                    LDQ     @FIDTEXTC,,AUTO
         2 000016   200000 036007                    ADLQ    65536,DL
         2 000017   200054 757100                    STAQ    FPTFID+2,,AUTO

      156     6769    1        CALL PROCESS_FID ALTRET( ARETFO );

   6769  2 000020   000536 701000 2                  TSX1    PROCESS_FID
         2 000021   000144 702000 2                  TSX2    ARETFO

      157     6770        /* Setup to access dcb to use */
      158     6771    1        DCBCUR = 0;

   6771  2 000022   200007 450100                    STZ     DCBCUR,,AUTO

      159     6772    1        IF ADDR( DCBNM ) = ADDR( NIL )

   6772  2 000023   200005 236100                    LDQ     @DCBNM,,AUTO
         2 000024   000001 116000 xsym               CMPQ    B_VECTNIL+1
         2 000025   000031 601000 2                  TNZ     s:6777

      160     6773    2        THEN DO;                           /* Use D_M$DO# */

      161     6774    2             DCBCUR = D_M$DO#;

   6774  2 000026   000000 235000 xsym               LDA     D_M$DO#
         2 000027   200007 755100                    STA     DCBCUR,,AUTO

      162     6775    2           END;
PL6.E3A0      #001=DUA$OUTPUT File=DUA$OUTPUT.:E05TSI                            TUE 07/29/97 14:47 Page:25

   6775  2 000030   000052 710000 2                  TRA     s:6782

      163     6776    2        ELSE DO;                           /* Gotta get one */

      164     6777    2             FPTGETDCB = FPT_GETDCB;

   6777  2 000031   000100 100400                    MLR     fill='000'O
         2 000032   000000 000040 xsym               ADSC9   FPT_GETDCB               cn=0,n=32
         2 000033   200102 000040                    ADSC9   FPTGETDCB,,AUTO          cn=0,n=32

      165     6778    2             FPTGETDCB.V_ = VECTOR( FPTGETDCB.V );

   6778  2 000034   000000 235000 3                  LDA     0
         2 000035   200272 452500                    STP2    VLRFID+12,,AUTO
         2 000036   200272 236100                    LDQ     VLRFID+12,,AUTO
         2 000037   000110 036003                    ADLQ    72,DU
         2 000040   200102 757100                    STAQ    FPTGETDCB,,AUTO

      166     6779    2             FPTGETDCB.DCBNUM_ = VECTOR( DCBCUR );

   6779  2 000041   777640 235007                    LDA     -96,DL
         2 000042   200272 452500                    STP2    VLRFID+12,,AUTO
         2 000043   200272 236100                    LDQ     VLRFID+12,,AUTO
         2 000044   000007 036003                    ADLQ    7,DU
         2 000045   200106 757100                    STAQ    FPTGETDCB+4,,AUTO

      167     6780    2             CALL M$GETDCB( FPTGETDCB ) ALTRET( ARETG );

   6780  2 000046   200102 630500                    EPPR0   FPTGETDCB,,AUTO
         2 000047   460002 713400                    CLIMB   alt,+24578
         2 000050   401000 401760                    pmme    nvectors=3
         2 000051   000144 702000 2                  TSX2    ARETFO

      168     6781    2           END;

      169     6782    1        DCB$ = DCBADDR( DCBCUR );
PL6.E3A0      #001=DUA$OUTPUT File=DUA$OUTPUT.:E05TSI                            TUE 07/29/97 14:47 Page:26

   6782  2 000052   000001 470400 3                  LDP0    1
         2 000053   000000 471500                    LDP1    0,,PR0
         2 000054   200007 720100                    LXL0    DCBCUR,,AUTO
         2 000055   100000 236110                    LDQ     0,X0,PR1
         2 000056   200010 756100                    STQ     DCB$,,AUTO

      170     6783    1        IF DCB$ -> F$DCB.FCD#

   6783  2 000057   200010 473500                    LDP3    DCB$,,AUTO
         2 000060   300031 236100                    LDQ     25,,PR3
         2 000061   020000 316007                    CANQ    8192,DL
         2 000062   000100 600000 2                  TZE     s:6791

      171     6784    2        THEN DO;                           /* Close it first */

      172     6785    2             FPTCLOSE = FPT_CLOSE;

   6785  2 000063   000100 100400                    MLR     fill='000'O
         2 000064   000000 000170 xsym               ADSC9   FPT_CLOSE                cn=0,n=120
         2 000065   200014 000170                    ADSC9   FPTCLOSE,,AUTO           cn=0,n=120

      173     6786    2             FPTCLOSE.V_ = VECTOR( FPTCLOSE.V );

   6786  2 000066   000002 235000 3                  LDA     2
         2 000067   200272 452500                    STP2    VLRFID+12,,AUTO
         2 000070   200272 236100                    LDQ     VLRFID+12,,AUTO
         2 000071   000046 036003                    ADLQ    38,DU
         2 000072   200014 757100                    STAQ    FPTCLOSE,,AUTO

      174     6787    2             FPTCLOSE.V.DCB# = DCBCUR;

   6787  2 000073   200046 740100                    STX0    FPTCLOSE+26,,AUTO

      175     6788    2             CALL M$CLOSE( FPTCLOSE ) ALTRET( ARETCO );

   6788  2 000074   200014 630500                    EPPR0   FPTCLOSE,,AUTO
PL6.E3A0      #001=DUA$OUTPUT File=DUA$OUTPUT.:E05TSI                            TUE 07/29/97 14:47 Page:27
         2 000075   450001 713400                    CLIMB   alt,close
         2 000076   406000 401760                    pmme    nvectors=13
         2 000077   000201 702000 2                  TSX2    ARETCO

      176     6789    2           END;

      177     6790        /* Open as specified by user */
      178     6791    2        DO CASE ( CODE );

   6791  2 000100   200004 470500                    LDP0    @CODE,,AUTO
         2 000101   000000 235100                    LDA     0,,PR0
         2 000102   000607 135007                    SBLA    391,DL
         2 000103   000002 115007                    CMPA    2,DL
         2 000104   000106 602005 2                  TNC     s:6791+6,AL
         2 000105   000117 710000 2                  TRA     s:6799
         2 000106   000110 710000 2                  TRA     s:6795
         2 000107   000113 710000 2                  TRA     s:6797

      179     6792    2          CASE ( 390 );                   /* ON/TO */

      180     6793        /*********FPTOPEN.V.EXIST# = ERROR#;*********/
      181     6794    2          CASE ( 391 );                 /* OVER */

      182     6795    2             FPTOPEN.V.EXIST# = %NEWFILE#;

   6795  2 000110   000600 236007                    LDQ     384,DL
         2 000111   200156 256100                    ORSQ    FPTOPEN+36,,AUTO
         2 000112   000117 710000 2                  TRA     s:6799

      183     6796    2          CASE ( 392 );                 /* INTO */

      184     6797    2             FPTOPEN.V.EXIST# = %OLDFILE#;

   6797  2 000113   200156 236100                    LDQ     FPTOPEN+36,,AUTO
         2 000114   000003 376000 3                  ANQ     3
         2 000115   000400 276007                    ORQ     256,DL
         2 000116   200156 756100                    STQ     FPTOPEN+36,,AUTO
PL6.E3A0      #001=DUA$OUTPUT File=DUA$OUTPUT.:E05TSI                            TUE 07/29/97 14:47 Page:28

      185     6798    2          END;

      186     6799    1        FPTOPEN.V.DCB# = DCBCUR;

   6799  2 000117   200007 720100                    LXL0    DCBCUR,,AUTO
         2 000120   200156 740100                    STX0    FPTOPEN+36,,AUTO

      187     6800    1        IF ADDR(CONSEC)~=ADDR(NIL) THEN IF CONSEC='1'B THEN FPTOPEN.V.ORG#=%CONSEC#;

   6800  2 000121   200006 236100                    LDQ     @CONSEC,,AUTO
         2 000122   000001 116000 xsym               CMPQ    B_VECTNIL+1
         2 000123   000131 600000 2                  TZE     s:6801

   6800  2 000124   200006 471500                    LDP1    @CONSEC,,AUTO
         2 000125   100000 234100                    SZN     0,,PR1
         2 000126   000131 605000 2                  TPL     s:6801

   6800  2 000127   001000 236007                    LDQ     512,DL
         2 000130   200160 552110                    STBQ    FPTOPEN+38,'10'O,AUTO

      188     6801    1        CALL M$OPEN( FPTOPEN ) ALTRET( ARETOO );

   6801  2 000131   200112 630500                    EPPR0   FPTOPEN,,AUTO
         2 000132   450000 713400                    CLIMB   alt,open
         2 000133   410400 401760                    pmme    nvectors=18
         2 000134   000150 702000 2                  TSX2    ARETOO

      189     6802    1        IF ADDR( DCBNM ) ~= ADDR( NIL )

   6802  2 000135   200005 236100                    LDQ     @DCBNM,,AUTO
         2 000136   000001 116000 xsym               CMPQ    B_VECTNIL+1
         2 000137   000143 600000 2                  TZE     s:6805

      190     6803    1        THEN DCBNM = DCBCUR;

   6803  2 000140   200005 470500                    LDP0    @DCBNM,,AUTO
PL6.E3A0      #001=DUA$OUTPUT File=DUA$OUTPUT.:E05TSI                            TUE 07/29/97 14:47 Page:29
         2 000141   200007 235100                    LDA     DCBCUR,,AUTO
         2 000142   000000 755100                    STA     0,,PR0

      191     6804                                                /**/
      192     6805    1        RETURN;

   6805  2 000143   000000 702200 xent               TSX2  ! X66_ARET

   6802  2 000144                       ARETFO       null
   6802  2 000144                       ARETG        null
   6802  2 000144                       ERRMSGO      null
      193     6806                                                /**/
      194     6807        %EJECT;
PL6.E3A0      #001=DUA$OUTPUT File=DUA$OUTPUT.:E05TSI                            TUE 07/29/97 14:47 Page:30
      195     6808                                                /**/
      196     6809    1   ARETFO: ;
      197     6810    1   ARETG: ;
      198     6811    1   ERRMSGO: ;
      199     6812    1        CALL DUE$ERRMSG;

   6812  2 000144   000002 631400 xsym               EPPR1   B_VECTNIL+2
         2 000145   000000 701000 xent               TSX1    DUE$ERRMSG
         2 000146   000000 011000                    NOP     0

   6802  2 000147                       ALT          null
      200     6813    1   ALT: ;
      201     6814    1        ALTRETURN;

   6814  2 000147   000000 702200 xent               TSX2  ! X66_AALT

   6802  2 000150                       ARETOO       null
      202     6815                                                /**/
      203     6816    1   ARETOO: ;
      204     6817    1        IF ADDR( DCBNM ) ~= ADDR( NIL )

   6817  2 000150   200005 236100                    LDQ     @DCBNM,,AUTO
         2 000151   000001 116000 xsym               CMPQ    B_VECTNIL+1
         2 000152   000201 600000 2                  TZE     ARETCO

      205     6818    2        THEN DO;

      206     6819    2             CALL DUE$ERRMSG;

   6819  2 000153   000002 631400 xsym               EPPR1   B_VECTNIL+2
         2 000154   000000 701000 xent               TSX1    DUE$ERRMSG
         2 000155   000000 011000                    NOP     0

      207     6820    2             FPTRELDCB = FPT_RELDCB;

   6820  2 000156   000100 100400                    MLR     fill='000'O
         2 000157   000000 000020 xsym               ADSC9   FPT_RELDCB               cn=0,n=16
PL6.E3A0      #001=DUA$OUTPUT File=DUA$OUTPUT.:E05TSI                            TUE 07/29/97 14:47 Page:31
         2 000160   200216 000020                    ADSC9   FPTRELDCB,,AUTO          cn=0,n=16

      208     6821    2             FPTRELDCB.V_ = VECTOR( FPTRELDCB.V );

   6821  2 000161   000000 235000 3                  LDA     0
         2 000162   200272 452500                    STP2    VLRFID+12,,AUTO
         2 000163   200272 236100                    LDQ     VLRFID+12,,AUTO
         2 000164   000220 036003                    ADLQ    144,DU
         2 000165   200216 757100                    STAQ    FPTRELDCB,,AUTO

      209     6822    2             FPTRELDCB.V.DCB# = DCBCUR;

   6822  2 000166   200007 720100                    LXL0    DCBCUR,,AUTO
         2 000167   200220 740100                    STX0    FPTRELDCB+2,,AUTO

      210     6823    2             CALL M$RELDCB( FPTRELDCB ) ALTRET( ARETRE );

   6823  2 000170   200216 630500                    EPPR0   FPTRELDCB,,AUTO
         2 000171   460003 713400                    CLIMB   alt,+24579
         2 000172   400000 401760                    pmme    nvectors=1
         2 000173   000175 702000 2                  TSX2    ARETRE

      211     6824    3             DO WHILE ( '0'B );

   6824  2 000174   000200 710000 2                  TRA     s:6827

      212     6825    3   ARETRE:        CALL DUE$ERRMSG;

   6825  2 000175   000002 631400 xsym  ARETRE       EPPR1   B_VECTNIL+2
         2 000176   000000 701000 xent               TSX1    DUE$ERRMSG
         2 000177   000000 011000                    NOP     0

      213     6826    3                END;

      214     6827    2             GOTO ALT;

   6827  2 000200   000147 710000 2                  TRA     ALT
PL6.E3A0      #001=DUA$OUTPUT File=DUA$OUTPUT.:E05TSI                            TUE 07/29/97 14:47 Page:32

   6824  2 000201                       ARETCO       null
      215     6828    2           END;
      216     6829    1   ARETCO: ;
      217     6830    1        CALL M$SENV ALTRET( ARETS );

   6830  2 000201   410011 713400                    CLIMB   alt,+4105
         2 000202   000000 401760                    pmme    nvectors=0
         2 000203   000231 702000 2                  TSX2    ARETS

      218     6831    1        FPTOPEN = FPT_OPEN_ME;

   6831  2 000204   000100 100400                    MLR     fill='000'O
         2 000205   000000 000350 1                  ADSC9   FPT_OPEN_ME              cn=0,n=232
         2 000206   200112 000350                    ADSC9   FPTOPEN,,AUTO            cn=0,n=232

      219     6832    1        FPTOPEN.V_ = VECTOR( FPTOPEN.V );

   6832  2 000207   000004 235000 3                  LDA     4
         2 000210   200272 452500                    STP2    VLRFID+12,,AUTO
         2 000211   200272 236100                    LDQ     VLRFID+12,,AUTO
         2 000212   000156 036003                    ADLQ    110,DU
         2 000213   200112 757100                    STAQ    FPTOPEN,,AUTO

      220     6833    1        FPTOPEN.V.DCB# = D_M$DO#;

   6833  2 000214   000000 720000 xsym               LXL0    D_M$DO#
         2 000215   200156 740100                    STX0    FPTOPEN+36,,AUTO

      221     6834        /****FPTOPEN.V.FUN# = CREATE#;****/
      222     6835    1        CALL M$OPEN( FPTOPEN ) ALTRET( ARETOO1 );

   6835  2 000216   200112 630500                    EPPR0   FPTOPEN,,AUTO
         2 000217   450000 713400                    CLIMB   alt,open
         2 000220   410400 401760                    pmme    nvectors=18
         2 000221   000231 702000 2                  TSX2    ARETS

PL6.E3A0      #001=DUA$OUTPUT File=DUA$OUTPUT.:E05TSI                            TUE 07/29/97 14:47 Page:33
      223     6836    1        CALL M$RENV ALTRET( ARETR );

   6836  2 000222   410016 713400                    CLIMB   alt,+4110
         2 000223   000000 401760                    pmme    nvectors=0
         2 000224   000231 702000 2                  TSX2    ARETS

      224     6837    1        CALL DUE$ERRMSG1;                  /* NO ERRDCB */

   6837  2 000225   000002 631400 xsym               EPPR1   B_VECTNIL+2
         2 000226   000000 701000 xent               TSX1    DUE$ERRMSG1
         2 000227   000000 011000                    NOP     0

      225     6838    1        ALTRETURN;

   6838  2 000230   000000 702200 xent               TSX2  ! X66_AALT

   6833  2 000231                       ARETS        null
   6833  2 000231                       ARETOO1      null
   6833  2 000231                       ARETR        null
      226     6839                                                /**/
      227     6840    1   ARETS: ;
      228     6841    1   ARETOO1: ;
      229     6842    1   ARETR: ;
      230     6843    1        CALL M$XXX;

   6843  2 000231   000003 713400                    CLIMB   3
         2 000232   000000 401760                    pmme    nvectors=0
         2 000233   000236 710000 2                  TRA     s:6870

      231     6844                                                /**/
      232     6845        %EJECT;
PL6.E3A0      #001=DUA$OUTPUT File=DUA$OUTPUT.:E05TSI                            TUE 07/29/97 14:47 Page:34
      233     6846        /*F* NAME: DUA$READ
      234     6847             PURPOSE: To setup input processing for Read command.
      235     6848             DESCRIPTION: This routine opens & positions M$DELTA dcb to the specified
      236     6849                          fid. */
      237     6850        /*D* NAME: DUA$READ
      238     6851             ENTRY: DUA$READ
      239     6852             CALL: CALL DUA$READ( READ$CMD ) ALTRET( error );
      240     6853             INTERFACE: DDE$ERROR
      241     6854                        DUE$ERRMSG
      242     6855                        M$CLOSE
      243     6856                        M$FID
      244     6857                        M$OPEN
      245     6858             INPUT: READ$CMD - If present, read command build buffer.
      246     6859             OUTPUT: S_D.READPOS - Current record position in fid.
      247     6860             SCRATCH: Local AUTO only.
      248     6861             DESCRIPTION: This routine opens & positions M$DELTA dcb to the specified
      249     6862                          fid. The sequential position is recorded in S_D.READPOS.
      250     6863                          RETURNs when done. If any error condition occurred, then
      251     6864                          M$DELTA is reset to the command stream (RES='ME'), and
      252     6865                          the appropriate error message is output via DDE$ERROR
      253     6866                          or DUE$ERRMSG, then ALTRETURNs. */
      254     6867                                                /**/
      255     6868    1   DUA$READ: ENTRY( FIDTEXTC ) ALTRET;

   6868  2 000234   000000 700200 xent  DUA$READ     TSX0  ! X66_AUTO_4
         2 000235   000274 000004                    ZERO    188,4

      256     6869                                                /**/
      257     6870    1        READ$ = ADDR( FIDTEXTC );

   6870  2 000236   200003 236100                    LDQ     @FIDTEXTC,,AUTO
         2 000237   200011 756100                    STQ     READ$,,AUTO

      258     6871    1        DCB$ = DCBADDR( D_M$DELT# );

   6871  2 000240   000001 470400 3                  LDP0    1
         2 000241   000000 471500                    LDP1    0,,PR0
PL6.E3A0      #001=DUA$OUTPUT File=DUA$OUTPUT.:E05TSI                            TUE 07/29/97 14:47 Page:35
         2 000242   000000 720000 xsym               LXL0    D_M$DELT#
         2 000243   100000 236110                    LDQ     0,X0,PR1
         2 000244   200010 756100                    STQ     DCB$,,AUTO

      259     6872    1        ERRENTRY = '0'B;

   6872  2 000245   200013 450100                    STZ     ERRENTRY,,AUTO

      260     6873    1        IF READ$ = ADDR( NIL )

   6873  2 000246   200011 236100                    LDQ     READ$,,AUTO
         2 000247   000001 116000 xsym               CMPQ    B_VECTNIL+1
         2 000250   000450 600000 2                  TZE     RESET_M$DELTA

      261     6874    1        THEN GOTO RESET_M$DELTA;
      262     6875        /* Process the fid first */
      263     6876    1        FPTFID = FPT_FID;

   6876  2 000251   000100 100400                    MLR     fill='000'O
         2 000252   000000 000140 xsym               ADSC9   FPT_FID                  cn=0,n=96
         2 000253   200052 000140                    ADSC9   FPTFID,,AUTO             cn=0,n=96

      264     6877    1        FPTOPEN = FPT_OPEN_READ;

   6877  2 000254   000100 100400                    MLR     fill='000'O
         2 000255   000164 000350 1                  ADSC9   FPT_OPEN_READ            cn=0,n=232
         2 000256   200112 000350                    ADSC9   FPTOPEN,,AUTO            cn=0,n=232

      265     6878    1        FPTFID.TEXTFID_ = VECTOR( ADDR( READ$CMD.FID ) -> TEXT$C.TXT );

   6878  2 000257   200011 473500                    LDP3    READ$,,AUTO
         2 000260   300010 236100                    LDQ     8,,PR3
         2 000261   000033 772000                    QRL     27
         2 000262   000064 737000                    LLS     52
         2 000263   000140 135007                    SBLA    96,DL
         2 000264   200011 236100                    LDQ     READ$,,AUTO
         2 000265   000005 036000 3                  ADLQ    5
PL6.E3A0      #001=DUA$OUTPUT File=DUA$OUTPUT.:E05TSI                            TUE 07/29/97 14:47 Page:36
         2 000266   200054 757100                    STAQ    FPTFID+2,,AUTO

      266     6879    1        CALL PROCESS_FID ALTRET( ARETFR );

   6879  2 000267   000536 701000 2                  TSX1    PROCESS_FID
         2 000270   000441 702000 2                  TSX2    ARETFR

      267     6880    1        FPTOPEN.V.DCB# = D_M$DELT#;

   6880  2 000271   000000 720000 xsym               LXL0    D_M$DELT#
         2 000272   200156 740100                    STX0    FPTOPEN+36,,AUTO

      268     6881    1        FPTOPEN.V.XONLY# = '1'B;

   6881  2 000273   004000 236003                    LDQ     2048,DU
         2 000274   200172 256100                    ORSQ    FPTOPEN+48,,AUTO

      269     6882        /* Close M$DELTA */
      270     6883    1        FPTCLOSE = FPT_CLOSE;

   6883  2 000275   000100 100400                    MLR     fill='000'O
         2 000276   000000 000170 xsym               ADSC9   FPT_CLOSE                cn=0,n=120
         2 000277   200014 000170                    ADSC9   FPTCLOSE,,AUTO           cn=0,n=120

      271     6884    1        FPTCLOSE.V_ = VECTOR( FPTCLOSE.V );

   6884  2 000300   000002 235000 3                  LDA     2
         2 000301   200272 452500                    STP2    VLRFID+12,,AUTO
         2 000302   200272 236100                    LDQ     VLRFID+12,,AUTO
         2 000303   000046 036003                    ADLQ    38,DU
         2 000304   200014 757100                    STAQ    FPTCLOSE,,AUTO

      272     6885    1        FPTCLOSE.V.DCB# = D_M$DELT#;

   6885  2 000305   200046 740100                    STX0    FPTCLOSE+26,,AUTO

      273     6886    1        CALL M$CLOSE( FPTCLOSE ) ALTRET( ARETCR );
PL6.E3A0      #001=DUA$OUTPUT File=DUA$OUTPUT.:E05TSI                            TUE 07/29/97 14:47 Page:37

   6886  2 000306   200014 630500                    EPPR0   FPTCLOSE,,AUTO
         2 000307   450001 713400                    CLIMB   alt,close
         2 000310   406000 401760                    pmme    nvectors=13
         2 000311   000441 702000 2                  TSX2    ARETFR

      274     6887        /* Open M$DELTA with user specified fid */
      275     6888    1        CALL M$OPEN( FPTOPEN ) ALTRET( ARETOR );

   6888  2 000312   200112 630500                    EPPR0   FPTOPEN,,AUTO
         2 000313   450000 713400                    CLIMB   alt,open
         2 000314   410400 401760                    pmme    nvectors=18
         2 000315   000441 702000 2                  TSX2    ARETFR

      276     6889    1        IF NOT S_D.BATCH

   6889  2 000316   000000 470400 xsym               LDP0    S_D$
         2 000317   004625 234100                    SZN     2453,,PR0
         2 000320   000327 604000 2                  TMI     s:6893

      277     6890    1        THEN IF FPTOPEN.V.ASN# = %DEVICE#

   6890  2 000321   200157 236100                    LDQ     FPTOPEN+37,,AUTO
         2 000322   000777 376007                    ANQ     511,DL
         2 000323   000003 116007                    CMPQ    3,DL
         2 000324   000327 601000 2                  TNZ     s:6893

      278     6891    1             THEN S_D.M$DELTA_RES = FPTOPEN.V.RES#;

   6891  2 000325   200162 236100                    LDQ     FPTOPEN+40,,AUTO
         2 000326   000606 756100                    STQ     390,,PR0

      279     6892        /* Position to user specified record */
      280     6893    1        FPTPRECORD = FPT_PRECORD;

   6893  2 000327   000100 100400                    MLR     fill='000'O
         2 000330   000256 000050 1                  ADSC9   FPT_PRECORD              cn=0,n=40
PL6.E3A0      #001=DUA$OUTPUT File=DUA$OUTPUT.:E05TSI                            TUE 07/29/97 14:47 Page:38
         2 000331   200204 000050                    ADSC9   FPTPRECORD,,AUTO         cn=0,n=40

      281     6894    1        FPTPRECORD.V_ = VECTOR( FPTPRECORD.V );

   6894  2 000332   000002 235000 3                  LDA     2
         2 000333   200272 452500                    STP2    VLRFID+12,,AUTO
         2 000334   200272 236100                    LDQ     VLRFID+12,,AUTO
         2 000335   000212 036003                    ADLQ    138,DU
         2 000336   200204 757100                    STAQ    FPTPRECORD,,AUTO

      282     6895    1        FPTPRECORD.V.DCB# = D_M$DELT#;

   6895  2 000337   000000 720000 xsym               LXL0    D_M$DELT#
         2 000340   200212 740100                    STX0    FPTPRECORD+6,,AUTO

      283     6896    1        REC = READ$CMD.REC;

   6896  2 000341   200011 471500                    LDP1    READ$,,AUTO
         2 000342   100007 235100                    LDA     7,,PR1
         2 000343   200012 755100                    STA     REC,,AUTO

      284     6897    1        S_D.READPOS = 1;

   6897  2 000344   000001 235007                    LDA     1,DL
         2 000345   005142 755100                    STA     2658,,PR0

      285     6898    1        IF DCB$ -> F$DCB.ASN# ~= %FILE#

   6898  2 000346   200010 473500                    LDP3    DCB$,,AUTO
         2 000347   300032 236100                    LDQ     26,,PR3
         2 000350   777000 376007                    ANQ     -512,DL
         2 000351   001000 116007                    CMPQ    512,DL
         2 000352   000361 600000 2                  TZE     s:6904

      286     6899    1        THEN IF READ$CMD.RECEDIT

   6899  2 000353   100001 234100                    SZN     1,,PR1
PL6.E3A0      #001=DUA$OUTPUT File=DUA$OUTPUT.:E05TSI                            TUE 07/29/97 14:47 Page:39
         2 000354   000427 604000 2                  TMI     ERR0

      287     6900    1             THEN GOTO ERR0;               /* Not EDIT file */
      288     6901    1             ELSE IF REC ~= 1

   6901  2 000355   200012 235100                    LDA     REC,,AUTO
         2 000356   000001 115007                    CMPA    1,DL
         2 000357   000432 601000 2                  TNZ     ERR1
         2 000360   000424 710000 2                  TRA     s:6924

      289     6902    1                  THEN GOTO ERR1;          /* Not file */
      290     6903    1                  ELSE ;
      291     6904    1        ELSE IF READ$CMD.RECEDIT

   6904  2 000361   100001 234100                    SZN     1,,PR1
         2 000362   000414 605000 2                  TPL     s:6919

      292     6905    1             THEN IF DCB$ -> F$DCB.ORG# = %KEYED#

   6905  2 000363   300032 236100                    LDQ     26,,PR3
         2 000364   777000 376003                    ANQ     -512,DU
         2 000365   002000 116003                    CMPQ    1024,DU
         2 000366   000427 601000 2                  TNZ     ERR0

      293     6906    2                  THEN DO;

      294     6907    2                       FPTPRECORD.V.KEYS# = %YES#;

   6907  2 000367   400000 236007                    LDQ     -131072,DL
         2 000370   200212 256100                    ORSQ    FPTPRECORD+6,,AUTO

      295     6908    2                       FPTPRECORD.KEY_ = VECTOR( REC );

   6908  2 000371   777640 235007                    LDA     -96,DL
         2 000372   200272 452500                    STP2    VLRFID+12,,AUTO
         2 000373   200272 236100                    LDQ     VLRFID+12,,AUTO
         2 000374   000012 036003                    ADLQ    10,DU
PL6.E3A0      #001=DUA$OUTPUT File=DUA$OUTPUT.:E05TSI                            TUE 07/29/97 14:47 Page:40
         2 000375   200206 757100                    STAQ    FPTPRECORD+2,,AUTO

      296     6909    2                       EDITKEY.SIZE = LENGTHC( EDITKEY.REC );

   6909  2 000376   003000 236003                    LDQ     1536,DU
         2 000377   200012 552140                    STBQ    REC,'40'O,AUTO

      297     6910    2                       CALL M$PRECORD( FPTPRECORD ) ALTRET( ARETPE );

   6910  2 000400   200204 630500                    EPPR0   FPTPRECORD,,AUTO
         2 000401   440003 713400                    CLIMB   alt,+16387
         2 000402   401000 401760                    pmme    nvectors=3
         2 000403   000405 702000 2                  TSX2    ARETPE

      298     6911    3                       DO WHILE ( '0'B );

   6911  2 000404   000424 710000 2                  TRA     s:6924

      299     6912    3   ARETPE:                  IF B$TCB$ -> B$TCB.ALT$ -> B$ALT.ERR.CODE ~= %E$NOKEY

   6912  2 000405   000000 470400 xsym  ARETPE       LDP0    B$TCB$
         2 000406   000000 471500                    LDP1    0,,PR0
         2 000407   100102 236100                    LDQ     66,,PR1
         2 000410   377770 376007                    ANQ     131064,DL
         2 000411   001020 116007                    CMPQ    528,DL
         2 000412   000441 601000 2                  TNZ     ARETFR

      300     6913    3                            THEN GOTO ARETPE1;
      301     6914    3                          END;

      302     6915    2                     END;

   6915  2 000413   000424 710000 2                  TRA     s:6924

      303     6916    1                  ELSE GOTO ERR0;          /* Not EDIT file */
      304     6917    2             ELSE DO;

PL6.E3A0      #001=DUA$OUTPUT File=DUA$OUTPUT.:E05TSI                            TUE 07/29/97 14:47 Page:41
      305     6918                                                /****FPTPRECORD.V.KEYS# = NO#;****/
      306     6919    2                  S_D.READPOS = REC;

   6919  2 000414   200012 235100                    LDA     REC,,AUTO
         2 000415   005142 755100                    STA     2658,,PR0

      307     6920    2                  FPTPRECORD.V.N# = REC - 1;

   6920  2 000416   000001 135007                    SBLA    1,DL
         2 000417   200213 755100                    STA     FPTPRECORD+7,,AUTO

      308     6921    2                  CALL M$PRECORD( FPTPRECORD ) ALTRET( ARETPC );

   6921  2 000420   200204 630500                    EPPR0   FPTPRECORD,,AUTO
         2 000421   440003 713400                    CLIMB   alt,+16387
         2 000422   401000 401760                    pmme    nvectors=3
         2 000423   000441 702000 2                  TSX2    ARETFR

      309     6922    2                END;

      310     6923                                                /**/
      311     6924    1        S_D.PMD_ONLY = '0'B;               /* Stay in DELTA now. */

   6924  2 000424   000000 470400 xsym               LDP0    S_D$
         2 000425   005146 450100                    STZ     2662,,PR0

      312     6925    1        RETURN;

   6925  2 000426   000000 702200 xent               TSX2  ! X66_ARET

   6924  2 000427                       ERR0         null
      313     6926                                                /**/
      314     6927        %EJECT;
PL6.E3A0      #001=DUA$OUTPUT File=DUA$OUTPUT.:E05TSI                            TUE 07/29/97 14:47 Page:42
      315     6928                                                /**/
      316     6929    1   ERR0: ;
      317     6930    1        S_D.ERROR = 161;             /* E@NOTEDIT */

   6930  2 000427   000241 236007                    LDQ     161,DL
         2 000430   000013 756100                    STQ     11,,PR0

      318     6931    1        GOTO ERROR;

   6931  2 000431   000435 710000 2                  TRA     ERROR

   6930  2 000432                       ERR1         null
      319     6932    1   ERR1: ;
      320     6933    1        S_D.ERROR = 162;             /* E@NOTFILE */

   6933  2 000432   000242 235007                    LDA     162,DL
         2 000433   000013 755100                    STA     11,,PR0

      321     6934    1        GOTO ERROR;

   6934  2 000434   000435 710000 2                  TRA     ERROR

   6933  2 000435                       ERROR        null
      322     6935                                                /**/
      323     6936    1   ERROR: ;
      324     6937    1        CALL DDE$ERROR;

   6937  2 000435   000002 631400 xsym               EPPR1   B_VECTNIL+2
         2 000436   000000 701000 xent               TSX1    DDE$ERROR
         2 000437   000000 011000                    NOP     0

      325     6938    1        GOTO CLEANUP_READ;

   6938  2 000440   000445 710000 2                  TRA     CLEANUP_READ

   6933  2 000441                       ARETFR       null
   6933  2 000441                       ARETCR       null
PL6.E3A0      #001=DUA$OUTPUT File=DUA$OUTPUT.:E05TSI                            TUE 07/29/97 14:47 Page:43
   6933  2 000441                       ARETOR       null
   6933  2 000441                       ARETPC       null
   6933  2 000441                       ARETPE1      null
      326     6939                                                /**/
      327     6940    1   ARETFR: ;
      328     6941    1   ARETCR: ;
      329     6942    1   ARETOR: ;
      330     6943    1   ARETPC: ;
      331     6944    1   ARETPE1: ;
      332     6945    1        CALL DUE$ERRMSG;

   6945  2 000441   000002 631400 xsym               EPPR1   B_VECTNIL+2
         2 000442   000000 701000 xent               TSX1    DUE$ERRMSG
         2 000443   000000 011000                    NOP     0

      333     6946    1        GOTO CLEANUP_READ;

   6946  2 000444   000445 710000 2                  TRA     CLEANUP_READ

   6933  2 000445                       CLEANUP_READ null
      334     6947                                                /**/
      335     6948    1   CLEANUP_READ: ;
      336     6949                                                /**/
      337     6950    1        ERRENTRY = '1'B;

   6950  2 000445   400000 236003                    LDQ     -131072,DU
         2 000446   200013 756100                    STQ     ERRENTRY,,AUTO

      338     6951    1        GOTO RESET_M$DELTA;

   6951  2 000447   000450 710000 2                  TRA     RESET_M$DELTA

   6950  2 000450                       RESET_M$DEL* null
      339     6952                                                /**/
      340     6953    1   RESET_M$DELTA: ;
      341     6954                                                /**/
      342     6955    1        IF DCB$ -> F$DCB.FCD#
PL6.E3A0      #001=DUA$OUTPUT File=DUA$OUTPUT.:E05TSI                            TUE 07/29/97 14:47 Page:44

   6955  2 000450   200010 470500                    LDP0    DCB$,,AUTO
         2 000451   000031 236100                    LDQ     25,,PR0
         2 000452   020000 316007                    CANQ    8192,DL
         2 000453   000476 600000 2                  TZE     s:6965

      343     6956    2        THEN DO;

      344     6957    2             FPTCLOSE = FPT_CLOSE;

   6957  2 000454   000100 100400                    MLR     fill='000'O
         2 000455   000000 000170 xsym               ADSC9   FPT_CLOSE                cn=0,n=120
         2 000456   200014 000170                    ADSC9   FPTCLOSE,,AUTO           cn=0,n=120

      345     6958    2             FPTCLOSE.V_ = VECTOR( FPTCLOSE.V );

   6958  2 000457   000002 235000 3                  LDA     2
         2 000460   200272 452500                    STP2    VLRFID+12,,AUTO
         2 000461   200272 236100                    LDQ     VLRFID+12,,AUTO
         2 000462   000046 036003                    ADLQ    38,DU
         2 000463   200014 757100                    STAQ    FPTCLOSE,,AUTO

      346     6959    2             FPTCLOSE.V.DCB# = D_M$DELT#;

   6959  2 000464   000000 720000 xsym               LXL0    D_M$DELT#
         2 000465   200046 740100                    STX0    FPTCLOSE+26,,AUTO

      347     6960    2             CALL M$CLOSE( FPTCLOSE ) ALTRET( ARETCR1 );

   6960  2 000466   200014 630500                    EPPR0   FPTCLOSE,,AUTO
         2 000467   450001 713400                    CLIMB   alt,close
         2 000470   406000 401760                    pmme    nvectors=13
         2 000471   000473 702000 2                  TSX2    ARETCR1

      348     6961    3             DO WHILE ( '0'B );

   6961  2 000472   000476 710000 2                  TRA     s:6965
PL6.E3A0      #001=DUA$OUTPUT File=DUA$OUTPUT.:E05TSI                            TUE 07/29/97 14:47 Page:45

      349     6962    3   ARETCR1:       CALL DUE$ERRMSG;

   6962  2 000473   000002 631400 xsym  ARETCR1      EPPR1   B_VECTNIL+2
         2 000474   000000 701000 xent               TSX1    DUE$ERRMSG
         2 000475   000000 011000                    NOP     0

      350     6963    3                END;

      351     6964    2           END;

      352     6965    1        FPTOPEN = FPT_OPEN_ME;

   6965  2 000476   000100 100400                    MLR     fill='000'O
         2 000477   000000 000350 1                  ADSC9   FPT_OPEN_ME              cn=0,n=232
         2 000500   200112 000350                    ADSC9   FPTOPEN,,AUTO            cn=0,n=232

      353     6966    1        FPTOPEN.V_ = VECTOR( FPTOPEN.V );

   6966  2 000501   000004 235000 3                  LDA     4
         2 000502   200272 452500                    STP2    VLRFID+12,,AUTO
         2 000503   200272 236100                    LDQ     VLRFID+12,,AUTO
         2 000504   000156 036003                    ADLQ    110,DU
         2 000505   200112 757100                    STAQ    FPTOPEN,,AUTO

      354     6967    1        FPTOPEN.V.DCB# = D_M$DELT#;

   6967  2 000506   000000 720000 xsym               LXL0    D_M$DELT#
         2 000507   200156 740100                    STX0    FPTOPEN+36,,AUTO

      355     6968    1        FPTOPEN.V.FUN# = %IN#;

   6968  2 000510   002000 236007                    LDQ     1024,DL
         2 000511   200157 552110                    STBQ    FPTOPEN+37,'10'O,AUTO

      356     6969    1        FPTOPEN.V.RES# = S_D.M$DELTA_RES;

PL6.E3A0      #001=DUA$OUTPUT File=DUA$OUTPUT.:E05TSI                            TUE 07/29/97 14:47 Page:46
   6969  2 000512   000000 470400 xsym               LDP0    S_D$
         2 000513   000606 236100                    LDQ     390,,PR0
         2 000514   200162 756100                    STQ     FPTOPEN+40,,AUTO

      357     6970    1        CALL M$OPEN( FPTOPEN ) ALTRET( ARETOR1 );

   6970  2 000515   200112 630500                    EPPR0   FPTOPEN,,AUTO
         2 000516   450000 713400                    CLIMB   alt,open
         2 000517   410400 401760                    pmme    nvectors=18
         2 000520   000522 702000 2                  TSX2    ARETOR1

      358     6971    2        DO WHILE ( '0'B );

   6971  2 000521   000527 710000 2                  TRA     s:6976

      359     6972    2   ARETOR1:  CALL DUE$ERRMSG;

   6972  2 000522   000002 631400 xsym  ARETOR1      EPPR1   B_VECTNIL+2
         2 000523   000000 701000 xent               TSX1    DUE$ERRMSG
         2 000524   000000 011000                    NOP     0

      360     6973    2             CALL M$XXX;

   6973  2 000525   000003 713400                    CLIMB   3
         2 000526   000000 401760                    pmme    nvectors=0

      361     6974    2           END;

      362     6975                                                /**/
      363     6976    1        S_D.READPOS = 1;

   6976  2 000527   000001 235007                    LDA     1,DL
         2 000530   000000 470400 xsym               LDP0    S_D$
         2 000531   005142 755100                    STA     2658,,PR0

      364     6977    1        IF ERRENTRY

PL6.E3A0      #001=DUA$OUTPUT File=DUA$OUTPUT.:E05TSI                            TUE 07/29/97 14:47 Page:47
   6977  2 000532   200013 234100                    SZN     ERRENTRY,,AUTO
         2 000533   000535 605000 2                  TPL     s:6979

      365     6978    1        THEN ALTRETURN;

   6978  2 000534   000000 702200 xent               TSX2  ! X66_AALT

      366     6979    1        ELSE RETURN;

   6979  2 000535   000000 702200 xent               TSX2  ! X66_ARET

      367     6980                                                /**/
      368     6981        %EJECT;
PL6.E3A0      #001=DUA$OUTPUT File=DUA$OUTPUT.:E05TSI                            TUE 07/29/97 14:47 Page:48
      369     6982                                                /**/
      370     6983    1   PROCESS_FID: PROC ALTRET;

   6983  2 000536   200270 741300       PROCESS_FID  STX1  ! VLRFID+10,,AUTO

      371     6984                                                /**/
      372     6985    2        FPTFID.V_ = VECTOR( FPTFID.V );

   6985  2 000537   000002 235000 3                  LDA     2
         2 000540   200272 452500                    STP2    VLRFID+12,,AUTO
         2 000541   200272 236100                    LDQ     VLRFID+12,,AUTO
         2 000542   000076 036003                    ADLQ    62,DU
         2 000543   200052 757100                    STAQ    FPTFID,,AUTO

      373     6986    2        FPTFID.NAME_ = VECTOR( VLPFID_NAME );

   6986  2 000544   000006 235000 3                  LDA     6
         2 000545   200272 452500                    STP2    VLRFID+12,,AUTO
         2 000546   200272 236100                    LDQ     VLRFID+12,,AUTO
         2 000547   000222 036003                    ADLQ    146,DU
         2 000550   200056 757100                    STAQ    FPTFID+4,,AUTO

      374     6987    2        FPTFID.ACCT_ = VECTOR( VLPFID_ACCT );

   6987  2 000551   000000 235000 3                  LDA     0
         2 000552   200272 452500                    STP2    VLRFID+12,,AUTO
         2 000553   200272 236100                    LDQ     VLRFID+12,,AUTO
         2 000554   000243 036003                    ADLQ    163,DU
         2 000555   200060 757100                    STAQ    FPTFID+6,,AUTO

      375     6988    2        FPTFID.PASS_ = VECTOR( VLPFID_PASS );

   6988  2 000556   000000 235000 3                  LDA     0
         2 000557   200272 452500                    STP2    VLRFID+12,,AUTO
         2 000560   200272 236100                    LDQ     VLRFID+12,,AUTO
         2 000561   000245 036003                    ADLQ    165,DU
         2 000562   200062 757100                    STAQ    FPTFID+8,,AUTO
PL6.E3A0      #001=DUA$OUTPUT File=DUA$OUTPUT.:E05TSI                            TUE 07/29/97 14:47 Page:49

      376     6989    2        VLPFID_SN = VLP_FID_SN;

   6989  2 000563   000100 100400                    MLR     fill='000'O
         2 000564   000000 000012 xsym               ADSC9   VLP_FID_SN               cn=0,n=10
         2 000565   200252 000012                    ADSC9   VLPFID_SN,,AUTO          cn=0,n=10

      377     6990    2        FPTFID.SN_ = VECTOR( VLPFID_SN );

   6990  2 000566   000002 235000 3                  LDA     2
         2 000567   200272 452500                    STP2    VLRFID+12,,AUTO
         2 000570   200272 236100                    LDQ     VLRFID+12,,AUTO
         2 000571   000252 036003                    ADLQ    170,DU
         2 000572   200064 757100                    STAQ    FPTFID+10,,AUTO

      378     6991    2        FPTFID.WSN_ = VECTOR( VLPFID_WSN );

   6991  2 000573   000000 235000 3                  LDA     0
         2 000574   200272 452500                    STP2    VLRFID+12,,AUTO
         2 000575   200272 236100                    LDQ     VLRFID+12,,AUTO
         2 000576   000247 036003                    ADLQ    167,DU
         2 000577   200066 757100                    STAQ    FPTFID+12,,AUTO

      379     6992    2        FPTFID.ASN_ = VECTOR( FPTOPEN.V.ASN# );

   6992  2 000600   177640 235007                    LDA     65440,DL
         2 000601   200272 452500                    STP2    VLRFID+12,,AUTO
         2 000602   200272 236100                    LDQ     VLRFID+12,,AUTO
         2 000603   000007 036000 3                  ADLQ    7
         2 000604   200070 757100                    STAQ    FPTFID+14,,AUTO

      380     6993    2        FPTFID.RES_ = VECTOR( FPTOPEN.V.RES# );

   6993  2 000605   777640 235007                    LDA     -96,DL
         2 000606   200272 452500                    STP2    VLRFID+12,,AUTO
         2 000607   200272 236100                    LDQ     VLRFID+12,,AUTO
         2 000610   000162 036003                    ADLQ    114,DU
PL6.E3A0      #001=DUA$OUTPUT File=DUA$OUTPUT.:E05TSI                            TUE 07/29/97 14:47 Page:50
         2 000611   200072 757100                    STAQ    FPTFID+16,,AUTO

      381     6994    2        FPTFID.RESULTS_ = VECTOR( VLRFID );

   6994  2 000612   000010 235000 3                  LDA     8
         2 000613   200272 452500                    STP2    VLRFID+12,,AUTO
         2 000614   200272 236100                    LDQ     VLRFID+12,,AUTO
         2 000615   000256 036003                    ADLQ    174,DU
         2 000616   200074 757100                    STAQ    FPTFID+18,,AUTO

      382     6995    2        CALL M$FID( FPTFID ) ALTRET( ARETF );

   6995  2 000617   200052 630500                    EPPR0   FPTFID,,AUTO
         2 000620   420001 713400                    CLIMB   alt,+8193
         2 000621   404400 401760                    pmme    nvectors=10
         2 000622   000663 702000 2                  TSX2    ARETF

      383     6996    2        FPTOPEN.V_ = VECTOR( FPTOPEN.V );

   6996  2 000623   000004 235000 3                  LDA     4
         2 000624   200272 452500                    STP2    VLRFID+12,,AUTO
         2 000625   200272 236100                    LDQ     VLRFID+12,,AUTO
         2 000626   000156 036003                    ADLQ    110,DU
         2 000627   200112 757100                    STAQ    FPTOPEN,,AUTO

      384     6997    2        FPTOPEN.SN_ = VECTOR( VLPFID_SN );

   6997  2 000630   000002 235000 3                  LDA     2
         2 000631   200272 452500                    STP2    VLRFID+12,,AUTO
         2 000632   200272 236100                    LDQ     VLRFID+12,,AUTO
         2 000633   000252 036003                    ADLQ    170,DU
         2 000634   200114 757100                    STAQ    FPTOPEN+2,,AUTO

      385     6998    2        FPTOPEN.NAME_ = VECTOR( VLPFID_NAME );

   6998  2 000635   000006 235000 3                  LDA     6
         2 000636   200272 452500                    STP2    VLRFID+12,,AUTO
PL6.E3A0      #001=DUA$OUTPUT File=DUA$OUTPUT.:E05TSI                            TUE 07/29/97 14:47 Page:51
         2 000637   200272 236100                    LDQ     VLRFID+12,,AUTO
         2 000640   000222 036003                    ADLQ    146,DU
         2 000641   200120 757100                    STAQ    FPTOPEN+6,,AUTO

      386     6999    2        FPTOPEN.PASS_ = VECTOR( VLPFID_PASS );

   6999  2 000642   000000 235000 3                  LDA     0
         2 000643   200272 452500                    STP2    VLRFID+12,,AUTO
         2 000644   200272 236100                    LDQ     VLRFID+12,,AUTO
         2 000645   000245 036003                    ADLQ    165,DU
         2 000646   200122 757100                    STAQ    FPTOPEN+8,,AUTO

      387     7000    2        FPTOPEN.ACCT_ = VECTOR( VLPFID_ACCT );

   7000  2 000647   000000 235000 3                  LDA     0
         2 000650   200272 452500                    STP2    VLRFID+12,,AUTO
         2 000651   200272 236100                    LDQ     VLRFID+12,,AUTO
         2 000652   000243 036003                    ADLQ    163,DU
         2 000653   200136 757100                    STAQ    FPTOPEN+20,,AUTO

      388     7001    2        FPTOPEN.WSN_ = VECTOR( VLPFID_WSN );

   7001  2 000654   000000 235000 3                  LDA     0
         2 000655   200272 452500                    STP2    VLRFID+12,,AUTO
         2 000656   200272 236100                    LDQ     VLRFID+12,,AUTO
         2 000657   000247 036003                    ADLQ    167,DU
         2 000660   200144 757100                    STAQ    FPTOPEN+26,,AUTO

      389     7002                                                /**/
      390     7003    2        RETURN;

   7003  2 000661   200270 221300                    LDX1  ! VLRFID+10,,AUTO
         2 000662   000001 702211                    TSX2  ! 1,X1

   7001  2 000663                       ARETF        null
      391     7004                                                /**/
      392     7005    2   ARETF: ;
PL6.E3A0      #001=DUA$OUTPUT File=DUA$OUTPUT.:E05TSI                            TUE 07/29/97 14:47 Page:52
      393     7006    2        ALTRETURN;

   7006  2 000663   200270 221300                    LDX1  ! VLRFID+10,,AUTO
         2 000664   000000 702211                    TSX2  ! 0,X1

      394     7007                                                /**/
      395     7008    2   END PROCESS_FID;
      396     7009                                                /**/
      397     7010        %EJECT;
PL6.E3A0      #001=DUA$OUTPUT File=DUA$OUTPUT.:E05TSI                            TUE 07/29/97 14:47 Page:53
      398     7011        /*F* NAME: DUA$CLOSEDUMP
      399     7012             PURPOSE: To close the dcb given in S_D.DUMPDCB.
      400     7013                                      */
      401     7014        /*D* NAME: DUA$CLOSEDUMP
      402     7015             CALL: CALL DUA$CLOSEDUMP ALTRET (error);
      403     7016             INTERFACE: DUE$ERRMSG
      404     7017                        M$CLOSE
      405     7018                        M$RELDCB
      406     7019             INPUT: S_D.DUMPDCB - DCB to close and release.
      407     7020             DESCRIPTION: This routine closes and releases the DCB obtained
      408     7021                          by DDA$DUMP thru DUA$OUTPUT during a dump on fid.
      409     7022                          If the close or release altret, DUE$ERRMSG is called
      410     7023                          to output the error.  This routine does not ALTRET.
      411     7024                                 */
      412     7025                                                /**/
      413     7026    1   DUA$CLOSEDUMP: ENTRY ALTRET;

   7026  2 000665   000000 700200 xent  DUA$CLOSEDU* TSX0  ! X66_AUTO_4
         2 000666   000274 000004                    ZERO    188,4

      414     7027                                                /**/
      415     7028    1        FPTCLOSE = FPT_CLOSE;

   7028  2 000667   000100 100400                    MLR     fill='000'O
         2 000670   000000 000170 xsym               ADSC9   FPT_CLOSE                cn=0,n=120
         2 000671   200014 000170                    ADSC9   FPTCLOSE,,AUTO           cn=0,n=120

      416     7029    1        FPTCLOSE.V_ = VECTOR(FPTCLOSE.V);

   7029  2 000672   000002 235000 3                  LDA     2
         2 000673   200272 452500                    STP2    VLRFID+12,,AUTO
         2 000674   200272 236100                    LDQ     VLRFID+12,,AUTO
         2 000675   000046 036003                    ADLQ    38,DU
         2 000676   200014 757100                    STAQ    FPTCLOSE,,AUTO

      417     7030    1        FPTCLOSE.V.DCB# = S_D.DUMPDCB;

PL6.E3A0      #001=DUA$OUTPUT File=DUA$OUTPUT.:E05TSI                            TUE 07/29/97 14:47 Page:54
   7030  2 000677   000000 470400 xsym               LDP0    S_D$
         2 000700   005135 720100                    LXL0    2653,,PR0
         2 000701   200046 740100                    STX0    FPTCLOSE+26,,AUTO

      418     7031    1        CALL M$CLOSE( FPTCLOSE ) ALTRET (ARETCR2);

   7031  2 000702   200014 630500                    EPPR0   FPTCLOSE,,AUTO
         2 000703   450001 713400                    CLIMB   alt,close
         2 000704   406000 401760                    pmme    nvectors=13
         2 000705   000707 702000 2                  TSX2    ARETCR2

      419     7032    2        DO WHILE ('0'B);

   7032  2 000706   000712 710000 2                  TRA     s:7035

      420     7033    2   ARETCR2:  CALL DUE$ERRMSG;

   7033  2 000707   000002 631400 xsym  ARETCR2      EPPR1   B_VECTNIL+2
         2 000710   000000 701000 xent               TSX1    DUE$ERRMSG
         2 000711   000000 011000                    NOP     0

      421     7034    2           END;

      422     7035    1        FPTRELDCB = FPT_RELDCB;

   7035  2 000712   000100 100400                    MLR     fill='000'O
         2 000713   000000 000020 xsym               ADSC9   FPT_RELDCB               cn=0,n=16
         2 000714   200216 000020                    ADSC9   FPTRELDCB,,AUTO          cn=0,n=16

      423     7036    1        FPTRELDCB.V_ = VECTOR( FPTRELDCB.V);

   7036  2 000715   000000 235000 3                  LDA     0
         2 000716   200272 452500                    STP2    VLRFID+12,,AUTO
         2 000717   200272 236100                    LDQ     VLRFID+12,,AUTO
         2 000720   000220 036003                    ADLQ    144,DU
         2 000721   200216 757100                    STAQ    FPTRELDCB,,AUTO

PL6.E3A0      #001=DUA$OUTPUT File=DUA$OUTPUT.:E05TSI                            TUE 07/29/97 14:47 Page:55
      424     7037    1        FPTRELDCB.V.DCB# = S_D.DUMPDCB;

   7037  2 000722   000000 470400 xsym               LDP0    S_D$
         2 000723   005135 720100                    LXL0    2653,,PR0
         2 000724   200220 740100                    STX0    FPTRELDCB+2,,AUTO

      425     7038    1        CALL M$RELDCB( FPTRELDCB ) ALTRET(ARETRL1);

   7038  2 000725   200216 630500                    EPPR0   FPTRELDCB,,AUTO
         2 000726   460003 713400                    CLIMB   alt,+24579
         2 000727   400000 401760                    pmme    nvectors=1
         2 000730   000732 702000 2                  TSX2    ARETRL1

      426     7039    2        DO WHILE ('0'B);

   7039  2 000731   000735 710000 2                  TRA     s:7042

      427     7040    2   ARETRL1:  CALL DUE$ERRMSG;

   7040  2 000732   000002 631400 xsym  ARETRL1      EPPR1   B_VECTNIL+2
         2 000733   000000 701000 xent               TSX1    DUE$ERRMSG
         2 000734   000000 011000                    NOP     0

      428     7041    2           END;

      429     7042    1        RETURN;

   7042  2 000735   000000 702200 xent               TSX2  ! X66_ARET

FPT_OPEN_ME
 Sect OctLoc
   1     000   000025 777640   000044 006000   000000 177640   000000 006014    .....$..........
   1     004   000000 177640   000000 006014   000000 177640   000000 006014    ................
   1     044*  000000 400042   000000 003003   252525 000000   000040 252520    ..."......... ..
   1     050   115105 040040   000000 000000   000000 777777   000000 000000    ME  ............
   1     054   000000 000000   000000 000000   000000 000000   000000 000000    ................
   1     060   251000 622000   000000 000000   000000 000000   111250 000000    ............I...
PL6.E3A0      #001=DUA$OUTPUT File=DUA$OUTPUT.:E05TSI                            TUE 07/29/97 14:47 Page:56
   1     064   040040 040040   000000 000000   000000 000000   000000 000000        ............
   1     070   000000 000000   ****** ******                                    ........

FPT_OPEN_OUTPUT
 Sect OctLoc
   1     072   000025 777640   000136 006000   000000 177640   000000 006014    .....^..........
   1     076   000000 177640   000000 006014   000000 177640   000000 006014    ................
   1     136*  000000 400202   000000 003000   252525 004000   000040 252520    ............. ..
   1     142   000040 040040   000000 000002   000000 777777   000000 000000    .   ............
   1     146   000000 000000   000000 000000   000000 000000   000000 000000    ................
   1     152   251000 622000   000000 000000   000000 000000   111250 000000    ............I...
   1     156   040040 040040   000000 000000   000000 000000   000000 000000        ............
   1     162   000000 000000   ****** ******                                    ........

FPT_OPEN_READ
 Sect OctLoc
   1     164   000025 777640   000230 006000   000000 177640   000000 006014    ................
   1     170   000000 177640   000000 006014   000000 177640   000000 006014    ................
   1     230*  000000 400042   000000 002000   252525 000000   000040 252520    ..."......... ..
   1     234   000040 040040   000000 000000   000000 777777   000000 000000    .   ............
   1     240   000000 000000   000000 000000   000000 000000   000000 000000    ................
   1     244   251000 622000   000000 000000   000000 000000   111250 000000    ............I...
   1     250   040040 040040   000000 000000   000000 000000   000000 000000        ............
   1     254   000000 000000   ****** ******                                    ........

FPT_PRECORD
 Sect OctLoc
   1     256   000003 777640   000264 006000   000000 177640   000000 006014    ................
   1     262   000000 177640   000000 006014   000000 000000   000000 000000    ................
   1     266   000000 000000   0***** ******                                    ........

(unnamed)
 Sect OctLoc
   3     000   000001 777640   000000 006003   000003 777640   777777 777177    ................
   3     004   000025 777640   000010 200000   000020 177640   000157 600000    .............o..
   3     010   000011 777640                                                    ....
      430     7043                                                /**/
PL6.E3A0      #001=DUA$OUTPUT File=DUA$OUTPUT.:E05TSI                            TUE 07/29/97 14:47 Page:57
      431     7044                                                /* END DUA$CLOSEDUMP */
      432     7045                                                /**/
      433     7046    1   END DUA$OUTPUT;

PL6.E3A0      #001=DUA$OUTPUT File=DUA$OUTPUT.:E05TSI                            TUE 07/29/97 14:47 Page:58
--  Include file information  --

   F_ERRORS_C.:E05TOU  is referenced.
   DD_PSUBS_C.:E05TOU  is referenced.
   DD_ERR_C.:E05TOU  is referenced.
   CP_6_SUBS.:E05TOU  is referenced.
   DD_SD_M.:E05TOU  is referenced.
   XUH_MACRO_C.:E05TOU  is referenced.
   DD$BASED.:E05TOU  is referenced.
   CP_6.:E05TOU  cannot be made into a system file and is referenced.
   B$JIT_C.:E05TOU  was found in the system file and is never referenced.
   CP_6_C.:E05TOU  was found in the system file and is referenced.
      No diagnostics issued in procedure DUA$OUTPUT.

   Procedure DUA$OUTPUT requires 478 words for executable code.
   Procedure DUA$OUTPUT requires 188 words of local(AUTO) storage.

    No errors detected in file DUA$OUTPUT.:E05TSI    .
PL6.E3A0      #001=DUA$OUTPUT File=DUA$OUTPUT.:E05TSI                            TUE 07/29/97 14:47 Page:59
          *** CROSS REFERENCE LISTING ***
**     DENOTES     IDENTIFIER DEFINITION
<<                 IDENTIFIER'S VALUE SET
>>                 IDENTIFIER'S VALUE USED
<>                 IDENTIFIER SET AND/OR USED
--                 IDENTIFIER REFERENCED
PL6.E3A0      #001=DUA$OUTPUT File=DUA$OUTPUT.:E05TSI                            TUE 07/29/97 14:47 Page:60
          MINI XREF LISTING

ALT
      6802**LABEL    6827--GOTO
ARETCO
      6824**LABEL    6788--CALLALT
ARETCR
      6933**LABEL    6886--CALLALT
ARETCR1
      6962**LABEL    6960--CALLALT
ARETCR2
      7033**LABEL    7031--CALLALT
ARETF IN PROCEDURE PROCESS_FID
      7001**LABEL    6995--CALLALT
ARETFO
      6802**LABEL    6769--CALLALT
ARETFR
      6933**LABEL    6879--CALLALT
ARETG
      6802**LABEL    6780--CALLALT
ARETOO
      6802**LABEL    6801--CALLALT
ARETOO1
      6833**LABEL    6835--CALLALT
ARETOR
      6933**LABEL    6888--CALLALT
ARETOR1
      6972**LABEL    6970--CALLALT
ARETPC
      6933**LABEL    6921--CALLALT
ARETPE
      6912**LABEL    6910--CALLALT
ARETPE1
      6933**LABEL    6913--GOTO
PL6.E3A0      #001=DUA$OUTPUT File=DUA$OUTPUT.:E05TSI                            TUE 07/29/97 14:47 Page:61
ARETR
      6833**LABEL    6836--CALLALT
ARETRE
      6825**LABEL    6823--CALLALT
ARETRL1
      7040**LABEL    7038--CALLALT
ARETS
      6833**LABEL    6830--CALLALT
B$ALT.CODE
      1820**DCL      1820--REDEF    1821--REDEF    1821--REDEF
B$ALT.ERR.CODE
      1822**DCL      6912>>IF
B$ALT.ERR.ERR#
      1822**DCL      1822--REDEF
B$ALT.EVID
      1821**DCL      1821--REDEF    1821--REDEF
B$TCB.ALT$
      1816**DCL      6912>>IF
B$TCB$
      2255**DCL      6912>>IF
CLEANUP_READ
      6933**LABEL    6938--GOTO     6946--GOTO
CODE
      1436**DCL        46--PROC     6791>>DOCASE
CONSEC
      1438**DCL        46--PROC     6800--IF       6800>>IF
DCB$
      1441**DCL      6782<<ASSIGN   6783>>IF       6871<<ASSIGN   6898>>IF       6905>>IF       6955>>IF
DCBCUR
      1440**DCL      6771<<ASSIGN   6774<<ASSIGN   6779--ASSIGN   6782--ASSIGN   6787>>ASSIGN   6799>>ASSIGN
      6803>>ASSIGN   6822>>ASSIGN
DCBNM
      1437**DCL        46--PROC     6772--IF       6802--IF       6803<<ASSIGN   6817--IF
DDE$ERROR
      5108**DCL-ENT  6937--CALL
DUE$ERRMSG
PL6.E3A0      #001=DUA$OUTPUT File=DUA$OUTPUT.:E05TSI                            TUE 07/29/97 14:47 Page:62
      5109**DCL-ENT  6812--CALL     6819--CALL     6825--CALL     6945--CALL     6962--CALL     6972--CALL
      7033--CALL     7040--CALL
DUE$ERRMSG1
      5110**DCL-ENT  6837--CALL
D_M$DELT#
      2254**DCL      6871--ASSIGN   6880>>ASSIGN   6885>>ASSIGN   6895>>ASSIGN   6959>>ASSIGN   6967>>ASSIGN
D_M$DO#
      2253**DCL      6774>>ASSIGN   6833>>ASSIGN
EDITKEY.REC
      1446**DCL      6909--ASSIGN
EDITKEY.SIZE
      1445**DCL      6909<<ASSIGN
ERR0
      6924**LABEL    6900--GOTO     6916--GOTO
ERR1
      6930**LABEL    6902--GOTO
ERRENTRY
      1447**DCL      6872<<ASSIGN   6950<<ASSIGN   6977>>IF
ERROR
      6933**LABEL    6931--GOTO     6934--GOTO
F$DCB.ACTPOS
      1859**DCL      1859--REDEF
F$DCB.ARS#
      1833**DCL      1833--REDEF
F$DCB.ASN#
      1848**DCL      6898>>IF
F$DCB.ATTR
      1852**DCL      1853--REDEF
F$DCB.BORROW
      1867**DCL      1867--REDEF    1867--REDEF    1867--REDEF
F$DCB.DCBNAME.L
      1881**DCL      1881--IMP-SIZ
F$DCB.EOMCHAR#
      1837**DCL      1837--REDEF
F$DCB.FCD#
      1846**DCL      6783>>IF       6955>>IF
PL6.E3A0      #001=DUA$OUTPUT File=DUA$OUTPUT.:E05TSI                            TUE 07/29/97 14:47 Page:63
F$DCB.FLDID
      1862**DCL      1862--REDEF
F$DCB.FORM$
      1856**DCL      1856--REDEF
F$DCB.FSECT
      1872**DCL      1872--REDEF
F$DCB.FSN#
      1849**DCL      1849--REDEF    1849--REDEF    1850--REDEF
F$DCB.HEADER$
      1855**DCL      1855--REDEF
F$DCB.IXTNSIZE#
      1853**DCL      1853--REDEF
F$DCB.LASTSTA$
      1842**DCL      1842--REDEF
F$DCB.LVL
      1868**DCL      1868--REDEF
F$DCB.NAME#.C
      1843**DCL      1843--REDEF
F$DCB.NOEOF
      1865**DCL      1865--REDEF
F$DCB.NRECS#
      1854**DCL      1854--REDEF
F$DCB.NRECX
      1873**DCL      1873--REDEF
F$DCB.OHDR
      1865**DCL      1865--REDEF
F$DCB.ORG#
      1848**DCL      1848--REDEF    6905>>IF
F$DCB.PRECNO
      1871**DCL      1871--REDEF
F$DCB.RCSZ
      1877**DCL      1877--REDEF
F$DCB.RES#
      1844**DCL      1844--REDEF
F$DCB.SETX
      1856**DCL      1856--REDEF
PL6.E3A0      #001=DUA$OUTPUT File=DUA$OUTPUT.:E05TSI                            TUE 07/29/97 14:47 Page:64
F$DCB.TAB$
      1856**DCL      1856--REDEF
F$DCB.TDA
      1870**DCL      1871--REDEF
F$DCB.WSN#
      1844**DCL      1844--REDEF
FIDTEXTC
      1433**DCL        46--PROC     6868--ENTRY    6870--ASSIGN
FIDTEXTC.SIZE
      1434**DCL      1435--IMP-SIZ  6768>>ASSIGN
FIDTEXTC.TEXT
      1435**DCL      6768--ASSIGN
FPTCLOSE
      1472**DCL      6785<<ASSIGN   6788<>CALL     6883<<ASSIGN   6886<>CALL     6957<<ASSIGN   6960<>CALL
      7028<<ASSIGN   7031<>CALL
FPTCLOSE.SN_
      1472**DCL      1472--REDEF
FPTCLOSE.UTL_
      1473**DCL      1473--REDEF
FPTCLOSE.V
      1477**DCL      6786--ASSIGN   6884--ASSIGN   6958--ASSIGN   7029--ASSIGN
FPTCLOSE.V.DCB#
      1478**DCL      6787<<ASSIGN   6885<<ASSIGN   6959<<ASSIGN   7030<<ASSIGN
FPTCLOSE.V.EXPIRE#
      1487**DCL      1487--REDEF
FPTCLOSE.V.TYPE#
      1485**DCL      1485--REDEF
FPTCLOSE.V.XTNSIZE#
      1482**DCL      1482--REDEF    1484--REDEF
FPTCLOSE.V_
      1472**DCL      6786<<ASSIGN   6884<<ASSIGN   6958<<ASSIGN   7029<<ASSIGN
FPTFID
      1503**DCL      6766<<ASSIGN   6876<<ASSIGN   6995<>CALL
FPTFID.ACCT_
      1504**DCL      6987<<ASSIGN
FPTFID.ASN_
PL6.E3A0      #001=DUA$OUTPUT File=DUA$OUTPUT.:E05TSI                            TUE 07/29/97 14:47 Page:65
      1506**DCL      6992<<ASSIGN
FPTFID.NAME_
      1504**DCL      6986<<ASSIGN
FPTFID.PASS_
      1504**DCL      6988<<ASSIGN
FPTFID.RESULTS_
      1506**DCL      6994<<ASSIGN
FPTFID.RES_
      1506**DCL      6993<<ASSIGN
FPTFID.SN_
      1505**DCL      6990<<ASSIGN
FPTFID.TEXTFID_
      1503**DCL      6768<<ASSIGN   6878<<ASSIGN
FPTFID.V
      1507**DCL      6985--ASSIGN
FPTFID.V_
      1503**DCL      6985<<ASSIGN
FPTFID.WSN_
      1505**DCL      6991<<ASSIGN
FPTGETDCB
      1527**DCL      6777<<ASSIGN   6780<>CALL
FPTGETDCB.DCBNUM_
      1527**DCL      6779<<ASSIGN
FPTGETDCB.V
      1528**DCL      6778--ASSIGN
FPTGETDCB.V_
      1527**DCL      6778<<ASSIGN
FPTOPEN
      1597**DCL      6767<<ASSIGN   6801<>CALL     6831<<ASSIGN   6835<>CALL     6877<<ASSIGN   6888<>CALL
      6965<<ASSIGN   6970<>CALL
FPTOPEN.ACCT_
      1601**DCL      7000<<ASSIGN
FPTOPEN.ACSVEH_
      1599**DCL      1600--REDEF
FPTOPEN.ALTKEYS_
      1605**DCL      1606--REDEF    1606--REDEF
PL6.E3A0      #001=DUA$OUTPUT File=DUA$OUTPUT.:E05TSI                            TUE 07/29/97 14:47 Page:66
FPTOPEN.HDR_
      1604**DCL      1605--REDEF
FPTOPEN.NAME_
      1598**DCL      6998<<ASSIGN
FPTOPEN.PASS_
      1599**DCL      6999<<ASSIGN
FPTOPEN.SN_
      1597**DCL      6997<<ASSIGN
FPTOPEN.TAB_
      1603**DCL      1604--REDEF
FPTOPEN.UHL_
      1597**DCL      1598--REDEF    1598--REDEF
FPTOPEN.V
      1606**DCL      6832--ASSIGN   6966--ASSIGN   6996--ASSIGN
FPTOPEN.V.ASN#
      1616**DCL      6890>>IF       6992--ASSIGN
FPTOPEN.V.DCB#
      1606**DCL      6799<<ASSIGN   6833<<ASSIGN   6880<<ASSIGN   6967<<ASSIGN
FPTOPEN.V.EXIST#
      1610**DCL      6795<<ASSIGN   6797<<ASSIGN
FPTOPEN.V.FSN#
      1637**DCL      1637--REDEF    1637--REDEF
FPTOPEN.V.FUN#
      1616**DCL      6968<<ASSIGN
FPTOPEN.V.ORG#
      1617**DCL      6800<<ASSIGN
FPTOPEN.V.RES#
      1621**DCL      6891>>ASSIGN   6969<<ASSIGN   6993--ASSIGN
FPTOPEN.V.XONLY#
      1627**DCL      6881<<ASSIGN
FPTOPEN.V_
      1597**DCL      6832<<ASSIGN   6966<<ASSIGN   6996<<ASSIGN
FPTOPEN.WSN_
      1603**DCL      1603--REDEF    7001<<ASSIGN
FPTPRECORD
      1653**DCL      6893<<ASSIGN   6910<>CALL     6921<>CALL
PL6.E3A0      #001=DUA$OUTPUT File=DUA$OUTPUT.:E05TSI                            TUE 07/29/97 14:47 Page:67
FPTPRECORD.KEY_
      1653**DCL      6908<<ASSIGN
FPTPRECORD.V
      1655**DCL      6894--ASSIGN
FPTPRECORD.V.DCB#
      1655**DCL      6895<<ASSIGN
FPTPRECORD.V.KEYS#
      1656**DCL      6907<<ASSIGN
FPTPRECORD.V.N#
      1659**DCL      6920<<ASSIGN
FPTPRECORD.V_
      1653**DCL      6894<<ASSIGN
FPTRELDCB
      1675**DCL      6820<<ASSIGN   6823<>CALL     7035<<ASSIGN   7038<>CALL
FPTRELDCB.V
      1675**DCL      6821--ASSIGN   7036--ASSIGN
FPTRELDCB.V.DCB#
      1675**DCL      6822<<ASSIGN   7037<<ASSIGN
FPTRELDCB.V_
      1675**DCL      6821<<ASSIGN   7036<<ASSIGN
FPT_CLOSE
      2320**DCL      6785>>ASSIGN   6883>>ASSIGN   6957>>ASSIGN   7028>>ASSIGN
FPT_CLOSE.SN_
      2320**DCL      2320--REDEF
FPT_CLOSE.UTL_
      2321**DCL      2321--REDEF
FPT_CLOSE.V.EXPIRE#
      2335**DCL      2335--REDEF
FPT_CLOSE.V.TYPE#
      2333**DCL      2333--REDEF
FPT_CLOSE.V.XTNSIZE#
      2330**DCL      2330--REDEF    2332--REDEF
FPT_FID
      2268**DCL      6766>>ASSIGN   6876>>ASSIGN
FPT_GETDCB
      2292**DCL      6777>>ASSIGN
PL6.E3A0      #001=DUA$OUTPUT File=DUA$OUTPUT.:E05TSI                            TUE 07/29/97 14:47 Page:68
FPT_OPEN_ME
      1954**DCL      6831>>ASSIGN   6965>>ASSIGN
FPT_OPEN_ME.ACSVEH_
      1956**DCL      1957--REDEF
FPT_OPEN_ME.ALTKEYS_
      1962**DCL      1963--REDEF    1963--REDEF
FPT_OPEN_ME.HDR_
      1961**DCL      1962--REDEF
FPT_OPEN_ME.TAB_
      1960**DCL      1961--REDEF
FPT_OPEN_ME.UHL_
      1954**DCL      1955--REDEF    1955--REDEF
FPT_OPEN_ME.V
      1963**DCL      1954--DCLINIT
FPT_OPEN_ME.V.FSN#
      1994**DCL      1994--REDEF    1994--REDEF
FPT_OPEN_ME.WSN_
      1960**DCL      1960--REDEF
FPT_OPEN_OUTPUT
      2071**DCL      6767>>ASSIGN
FPT_OPEN_OUTPUT.ACSVEH_
      2073**DCL      2074--REDEF
FPT_OPEN_OUTPUT.ALTKEYS_
      2079**DCL      2080--REDEF    2080--REDEF
FPT_OPEN_OUTPUT.HDR_
      2078**DCL      2079--REDEF
FPT_OPEN_OUTPUT.TAB_
      2077**DCL      2078--REDEF
FPT_OPEN_OUTPUT.UHL_
      2071**DCL      2072--REDEF    2072--REDEF
FPT_OPEN_OUTPUT.V
      2080**DCL      2071--DCLINIT
FPT_OPEN_OUTPUT.V.FSN#
      2111**DCL      2111--REDEF    2111--REDEF
FPT_OPEN_OUTPUT.WSN_
      2077**DCL      2077--REDEF
PL6.E3A0      #001=DUA$OUTPUT File=DUA$OUTPUT.:E05TSI                            TUE 07/29/97 14:47 Page:69
FPT_OPEN_READ
      2184**DCL      6877>>ASSIGN
FPT_OPEN_READ.ACSVEH_
      2186**DCL      2187--REDEF
FPT_OPEN_READ.ALTKEYS_
      2192**DCL      2193--REDEF    2193--REDEF
FPT_OPEN_READ.HDR_
      2191**DCL      2192--REDEF
FPT_OPEN_READ.TAB_
      2190**DCL      2191--REDEF
FPT_OPEN_READ.UHL_
      2184**DCL      2185--REDEF    2185--REDEF
FPT_OPEN_READ.V
      2193**DCL      2184--DCLINIT
FPT_OPEN_READ.V.FSN#
      2224**DCL      2224--REDEF    2224--REDEF
FPT_OPEN_READ.WSN_
      2190**DCL      2190--REDEF
FPT_PRECORD
      2242**DCL      6893>>ASSIGN
FPT_PRECORD.V
      2244**DCL      2242--DCLINIT
FPT_RELDCB
      2351**DCL      6820>>ASSIGN   7035>>ASSIGN
M$CLOSE
        57**DCL-ENT  6788--CALL     6886--CALL     6960--CALL     7031--CALL
M$FID
       120**DCL-ENT  6995--CALL
M$GETDCB
        63**DCL-ENT  6780--CALL
M$OPEN
        57**DCL-ENT  6801--CALL     6835--CALL     6888--CALL     6970--CALL
M$PRECORD
        61**DCL-ENT  6910--CALL     6921--CALL
M$RELDCB
        63**DCL-ENT  6823--CALL     7038--CALL
PL6.E3A0      #001=DUA$OUTPUT File=DUA$OUTPUT.:E05TSI                            TUE 07/29/97 14:47 Page:70
M$RENV
       113**DCL-ENT  6836--CALL
M$SENV
       113**DCL-ENT  6830--CALL
M$XXX
        69**DCL-ENT  6843--CALL     6973--CALL
PROCESS_FID
      6983**PROC     6769--CALL     6879--CALL
READ$
      1442**DCL      1787--IMP-PTR  6870<<ASSIGN   6873>>IF       6878>>ASSIGN   6878>>ASSIGN   6896>>ASSIGN
      6899>>IF       6904>>IF
READ$CMD.FID
      1806**DCL      6878--ASSIGN   6878--ASSIGN
READ$CMD.GOTUTS
      1791**DCL      1792--REDEF
READ$CMD.REC
      1805**DCL      6896>>ASSIGN
READ$CMD.RECEDIT
      1792**DCL      6899>>IF       6904>>IF
READ$CMD.UTS
      1800**DCL      1801--REDEF
REC
      1443**DCL      1444--REDEF    6896<<ASSIGN   6901>>IF       6908--ASSIGN   6919>>ASSIGN   6920>>ASSIGN
RESET_M$DELTA
      6950**LABEL    6874--GOTO     6951--GOTO
S_D.BATCH
      4268**DCL      6889>>IF
S_D.CURRENT_CHANNEL
      4741**DCL      4743--REDEF
S_D.DEBUGA
      3893**DCL      3895--REDEF
S_D.DUMPDCB
      4547**DCL      7030>>ASSIGN   7037>>ASSIGN
S_D.EIS
      4851**DCL      4880--REDEF
S_D.ERROR
PL6.E3A0      #001=DUA$OUTPUT File=DUA$OUTPUT.:E05TSI                            TUE 07/29/97 14:47 Page:71
      3822**DCL      6930<<ASSIGN   6933<<ASSIGN
S_D.HOST_MESSAGE_BUF_REMOTE
      4784**DCL      4785--REDEF    4799--REDEF
S_D.JDE
      4398**DCL      4399--REDEF
S_D.L$.VALUE
      3951**DCL      3957--REDEF    3965--REDEF    3968--REDEF    3971--REDEF    3974--REDEF
S_D.L$.VALUE.L
      3952**DCL      3953--REDEF    3954--REDEF
S_D.L6_MESSAGE_BUF
      4805**DCL      4807--REDEF
S_D.M$DELTA_RES
      4050**DCL      6891<<ASSIGN   6969>>ASSIGN
S_D.OUTPUT
      4771**DCL      4773--REDEF
S_D.PMD_ONLY
      4565**DCL      6924<<ASSIGN
S_D.READPOS
      4557**DCL      6897<<ASSIGN   6919<<ASSIGN   6976<<ASSIGN
S_D.REMOTE_MSG.FNCC
      4790**DCL      4791--REDEF
S_D.REMOTE_MSG.STXC
      4786**DCL      4787--REDEF
S_D.REMOTE_MSG.SUBFNCC
      4794**DCL      4795--REDEF
S_D.SV
      3850**DCL      3871--REDEF
S_D$
      5102**DCL      3798--IMP-PTR  6889>>IF       6891>>ASSIGN   6897>>ASSIGN   6919>>ASSIGN   6924>>ASSIGN
      6930>>ASSIGN   6933>>ASSIGN   6969>>ASSIGN   6976>>ASSIGN   7030>>ASSIGN   7037>>ASSIGN
TEXT$C.SIZE
      1812**DCL      1813--IMP-SIZ  6878>>ASSIGN
TEXT$C.TXT
      1813**DCL      6878--ASSIGN
VLPFID_ACCT
      1719**DCL      6987--ASSIGN   7000--ASSIGN
PL6.E3A0      #001=DUA$OUTPUT File=DUA$OUTPUT.:E05TSI                            TUE 07/29/97 14:47 Page:72
VLPFID_NAME
      1705**DCL      6986--ASSIGN   6998--ASSIGN
VLPFID_PASS
      1733**DCL      6988--ASSIGN   6999--ASSIGN
VLPFID_SN
      1762**DCL      6989<<ASSIGN   6990--ASSIGN   6997--ASSIGN
VLPFID_WSN
      1747**DCL      6991--ASSIGN   7001--ASSIGN
VLP_FID_SN
      2366**DCL      6989>>ASSIGN
VLRFID
      1776**DCL      6994--ASSIGN
PL6.E3A0      #001=DUA$OUTPUT File=DUA$OUTPUT.:E05TSI                            TUE 07/29/97 14:47 Page:73
              *** CROSS REFERENCE LISTING ***
    **     DENOTES     IDENTIFIER DEFINITION
    <<                 IDENTIFIER'S VALUE SET
    >>                 IDENTIFIER'S VALUE USED
    <>                 IDENTIFIER SET AND/OR USED
    --                 IDENTIFIER REFERENCED
PL6.E3A0      #001=DUA$OUTPUT File=DUA$OUTPUT.:E05TSI                            TUE 07/29/97 14:47 Page:74
              MINI UREF LISTING

DUA$CLOSEDUMP    7026**ENTRY
DUA$OUTPUT      46**PROC
DUA$READ    6868**ENTRY
ERRMSGO    6802**LABEL
M$ACCT      74**DCL-ENT
M$ACTIVATE      77**DCL-ENT
M$ALIB      70**DCL-ENT
M$ASUSER      72**DCL-ENT
M$ATTACH      79**DCL-ENT
M$BADPP      97**DCL-ENT
M$CGCTL      78**DCL-ENT
M$CGINFO      78**DCL-ENT
M$CHECK      59**DCL-ENT
M$CHGUNIT     117**DCL-ENT
M$CLRSTK     115**DCL-ENT
M$CMDVAR     126**DCL-ENT
M$CONFIG      87**DCL-ENT
M$CORRES      62**DCL-ENT
M$CPEXIT      71**DCL-ENT
M$CVM      95**DCL-ENT
M$CVOL      60**DCL-ENT
M$DCLFLD      87**DCL-ENT
M$DEACTIVATE      77**DCL-ENT
M$DELREC      59**DCL-ENT
M$DEQ     124**DCL-ENT
M$DETACH      79**DCL-ENT
M$DEVICE      61**DCL-ENT
M$DISPLAY     124**DCL-ENT
M$DISPRES      64**DCL-ENT
M$DLIB      70**DCL-ENT
M$DRIBBLE      87**DCL-ENT
M$DRTN     115**DCL-ENT
PL6.E3A0      #001=DUA$OUTPUT File=DUA$OUTPUT.:E05TSI                            TUE 07/29/97 14:47 Page:75
M$DSUSER      72**DCL-ENT
M$ENQ     123**DCL-ENT
M$EOM      82**DCL-ENT
M$ERASE      88**DCL-ENT
M$ERR      69**DCL-ENT
M$ERRMSG     120**DCL-ENT
M$EVENT     112**DCL-ENT
M$EXHUME     121**DCL-ENT
M$EXIT      69**DCL-ENT
M$EXTEND      61**DCL-ENT
M$FDP      93**DCL-ENT
M$FDS      92**DCL-ENT
M$FEBOOT      85**DCL-ENT
M$FECTL      86**DCL-ENT
M$FEDUMP      85**DCL-ENT
M$FINDPROC      74**DCL-ENT
M$FSUSER      72**DCL-ENT
M$FVP      94**DCL-ENT
M$FWCG      78**DCL-ENT
M$GBPL      98**DCL-ENT
M$GDDL      94**DCL-ENT
M$GDP      93**DCL-ENT
M$GDS      92**DCL-ENT
M$GETMOUSE     103**DCL-ENT
M$GETPM     104**DCL-ENT
M$GJOB     122**DCL-ENT
M$GLINEATTR      82**DCL-ENT
M$GOODPP      97**DCL-ENT
M$GPLATEN      90**DCL-ENT
M$GPROMPT      89**DCL-ENT
M$GTRMATTR      83**DCL-ENT
M$GTRMCTL      81**DCL-ENT
M$GTRMTAB      84**DCL-ENT
M$GVP      93**DCL-ENT
M$HELP     120**DCL-ENT
M$INT     112**DCL-ENT
PL6.E3A0      #001=DUA$OUTPUT File=DUA$OUTPUT.:E05TSI                            TUE 07/29/97 14:47 Page:76
M$INTRTN      73**DCL-ENT
M$IOQ     108**DCL-ENT
M$JOBSTATS     122**DCL-ENT
M$KEYIN      62**DCL-ENT
M$LDEV      57**DCL-ENT
M$LDTRC      70**DCL-ENT
M$LIMIT      63**DCL-ENT
M$LINES      62**DCL-ENT
M$LINK      69**DCL-ENT
M$MADMUCK      65**DCL-ENT
M$MAKUSER      96**DCL-ENT
M$MBS      64**DCL-ENT
M$MDFFLD      88**DCL-ENT
M$MERC     113**DCL-ENT
M$MERCS     114**DCL-ENT
M$MIRROR     108**DCL-ENT
M$MONINFO     125**DCL-ENT
M$MPL      98**DCL-ENT
M$NODEINFO      89**DCL-ENT
M$NXTUSR     123**DCL-ENT
M$OCMSG     121**DCL-ENT
M$OLAY      69**DCL-ENT
M$PAS      98**DCL-ENT
M$PATHCON     121**DCL-ENT
M$PDS      92**DCL-ENT
M$PFIL      59**DCL-ENT
M$PLATEN      83**DCL-ENT
M$PROCNAME      74**DCL-ENT
M$PROFILE      85**DCL-ENT
M$PROMPT      81**DCL-ENT
M$RACST      65**DCL-ENT
M$RDSYSLOG     106**DCL-ENT
M$READ      58**DCL-ENT
M$RELRES      64**DCL-ENT
M$RELSTARF      66**DCL-ENT
M$REM      66**DCL-ENT
PL6.E3A0      #001=DUA$OUTPUT File=DUA$OUTPUT.:E05TSI                            TUE 07/29/97 14:47 Page:77
M$REQUIRE      65**DCL-ENT
M$RETRY     114**DCL-ENT
M$RETRYS     114**DCL-ENT
M$REW      60**DCL-ENT
M$RLSFLD      88**DCL-ENT
M$RPRIV     116**DCL-ENT
M$RSPP      95**DCL-ENT
M$RSWITCH     117**DCL-ENT
M$RUE     123**DCL-ENT
M$SAD      96**DCL-ENT
M$SAVE      72**DCL-ENT
M$SCON      73**DCL-ENT
M$SCREECH      71**DCL-ENT
M$SETFMA      57**DCL-ENT
M$SETFP      86**DCL-ENT
M$SINPUT      84**DCL-ENT
M$SLCFLD      89**DCL-ENT
M$SMOUSE     103**DCL-ENT
M$SMPRT      95**DCL-ENT
M$SPRIV     116**DCL-ENT
M$SSC      96**DCL-ENT
M$SSWITCH     116**DCL-ENT
M$STATE     125**DCL-ENT
M$STD      97**DCL-ENT
M$STIMER     111**DCL-ENT
M$STLPP      94**DCL-ENT
M$STRAP     111**DCL-ENT
M$STRMATTR      83**DCL-ENT
M$STRMCTL      81**DCL-ENT
M$STRMTAB      84**DCL-ENT
M$SYMBIO     122**DCL-ENT
M$SYSCON     108**DCL-ENT
M$SYSID     126**DCL-ENT
M$TDCLOSE     107**DCL-ENT
M$TDIO     107**DCL-ENT
M$TDOPEN     106**DCL-ENT
PL6.E3A0      #001=DUA$OUTPUT File=DUA$OUTPUT.:E05TSI                            TUE 07/29/97 14:47 Page:78
M$TDREQCPU     107**DCL-ENT
M$TEMPWROC     101**DCL-ENT
M$TIME     124**DCL-ENT
M$TRAP     111**DCL-ENT
M$TRMISC      86**DCL-ENT
M$TRMPRG      82**DCL-ENT
M$TRTN     115**DCL-ENT
M$TRUNC      58**DCL-ENT
M$TTIMER     111**DCL-ENT
M$UC      81**DCL
M$UMPL      98**DCL-ENT
M$UNFID     120**DCL-ENT
M$UNLATCH      77**DCL-ENT
M$UNSHARE      74**DCL-ENT
M$USRFIELD     117**DCL-ENT
M$VIRTUAL      92**DCL-ENT
M$WAIT     115**DCL-ENT
M$WEOF      60**DCL-ENT
M$WRITE      58**DCL-ENT
M$WRSYSLOG     106**DCL-ENT
M$XCON     112**DCL-ENT
M$XCONRTN      73**DCL-ENT
M$XEQTIME     125**DCL-ENT
M$XFLUSH      66**DCL-ENT
M$XMOUSE     103**DCL-ENT
M$YC      71**DCL-ENT
