VERSION E05

PL6.E3A0      #001=DUA$PMD File=DUA$PMD.:E05TSI                                  TUE 07/29/97 14:48 Page:1
        1        1        /*M* DUA$PMD - THE PMD COMMAND */
        2        2        /*T***********************************************************/
        3        3        /*T*                                                         */
        4        4        /*T* Copyright (c) Bull HN Information Systems Inc., 1997    */
        5        5        /*T*                                                         */
        6        6        /*T***********************************************************/
        7        7        /*X* CCC,DMR,PLM=5,IND=5,CSU=3,EXM=0,ECU=3,MOC,DCI=5,CRT=5 */
        8        8        %SET LISTSUB='1'B;
        9        9        /*P* NAME: DUA$PMD
       10       10             PURPOSE: HANDLES THE PMD FUNCTION FOR DELTA.
       11       11        */
       12       12        DUA$PMD: PROC;
       13       13    1   DCL I UBIN;
       14       14                                                /**/
       15       15        %INCLUDE XUH_MACRO_C;
       16       99        %INCLUDE DD_SD_M;
       17     1435        %S_D;
       18     2753        %INCLUDE DD_SUBS_C;
       19     3024        %INCLUDE DD_PSUBS_C;
       20     3499        %INCLUDE DD_ERR_C;
       21     3896        %INCLUDE DD$BASED;
       22     5199        %KEEP$CMD (NAME=PMD$CMD);
       23     5218    1   DCL DDA$PLUGH_PMD ENTRY(0);
       24     5219                                                /**/
       25     5220    1        IF S_D.DO$->PMD$CMD.OPTARRY(0)
       26     5221    2        THEN DO;                           /* Stand back, he wants it all! */
       27     5222    3             DO I = (490 + 1) TO 514; /*P@FIRSTSUB+1-P@LASTSUB*/
       28     5223    3                  CALL PMD_DOIT(I) ALTRET(BREAK_HIT);
       29     5224    3                END;
       30     5225    2             RETURN;
       31     5226    2           END;
       32     5227    1        IF S_D.DO$->PMD$CMD.OPTARRY(499 - 490) /*P@DS - P@ALL*/
       33     5228    2        THEN DO;
       34     5229    3             DO I = 491 TO 498;       /*P@AUTO to P@DS8*/
       35     5230    3                  CALL PMD_DOIT(I) ALTRET(BREAK_HIT);
       36     5231    3                END;
       37     5232    2           END;
PL6.E3A0      #001=DUA$PMD File=DUA$PMD.:E05TSI                                  TUE 07/29/97 14:48 Page:2
       38     5233    1        IF S_D.DO$->PMD$CMD.OPTARRY(503 - 490)
       39     5234    2        THEN DO;
       40     5235    2             CALL PMD_DOIT (505) ALTRET(BREAK_HIT);
       41     5236    2             CALL PMD_DOIT (500) ALTRET(BREAK_HIT);
       42     5237    2             CALL PMD_DOIT (502) ALTRET(BREAK_HIT);
       43     5238    2           END;
       44     5239    2        DO I = (490 + 1) TO 514; /*P@FIRSTSUB-P@LASTSUB*/
       45     5240    2             IF S_D.DO$->PMD$CMD.OPTARRY(I - 490) THEN CALL PMD_DOIT(I) ALTRET(
              5240                      BREAK_HIT);
       46     5241    2           END;
       47     5242    1   BREAK_HIT:
       48     5243    1        RETURN;
       49     5244                                                /**/
       50     5245        /*D* NAME: PMD_DOIT
       51     5246             DESCRIPTION: Called by DUA$PMD to format the sections of the
       52     5247                  PMD report.  Formats headers and calls DDA$DUMP to output
       53     5248                  data.
       54     5249        */
       55     5250    1   PMD_DOIT: PROC(I) ALTRET;
       56     5251    2   DCL TEMP UBIN;
       57     5252    2   DCL J UBIN;
       58     5253    2   DCL DCB$ PTR;
       59     5254    2   DCL 1 DCBADR REDEF DCB$,
       60     5255    2         2 ADR UBIN(18) UNAL,
       61     5256    2         2 * UBIN(18) UNAL;
       62     5257    2   DCL I UBIN;
       63     5258    2   DCL OUT$ PTR;
       64     5259        %INCLUDE CP_6;
       65     5340        %F$DCB;
       66     5397        %INCLUDE B$ROSEG;
       67     5460        %INCLUDE B$JIT;
       68     5750    2   DCL B$ROS$ PTR SYMREF;
       69     5751    2   DCL B$JIT$ PTR SYMREF;
       70     5752    2   DCL DDB$BREAK ENTRY ALTRET;
       71     5753    2   DCL DDQ$WRITE ENTRY(2);
       72     5754    2   DCL DDQ$WRTOF ENTRY;
       73     5755    2   DCL DUA$UNFID ENTRY(3) ALTRET;
PL6.E3A0      #001=DUA$PMD File=DUA$PMD.:E05TSI                                  TUE 07/29/97 14:48 Page:3
       74     5756    2   DCL DDA$DUMP ENTRY(6) ALTRET;
       75     5757    2   DCL DDE$ERROR ENTRY;
       76     5758                                                /**/
       77     5759    2        OUT$ = ADDR(S_D.OUTPUT);
       78     5760    2        CALL DDQ$WRTOF;
       79     5761    3        DO CASE(I);
       80     5762    3          CASE(491);                    /*P@AUTO*/
       81     5763    3             S_D.OUTPUT = 'AUTO (DS1)';
       82     5764    3             CALL DDQ$WRITE (OUT$, SIZEC('AUTO (DS1)'));
       83     5765    3             GOTO DUMP_DS;
       84     5766    3          CASE(492);                  /*P@COMMON*/
       85     5767    3             S_D.OUTPUT = 'COMMON (DS2)';
       86     5768    3             CALL DDQ$WRITE(OUT$, SIZEC('COMMON (DS2)'));
       87     5769    3             GOTO DUMP_DS;
       88     5770    3          CASE(493,                      /*P@DS3*/
       89     5771    3               494,                      /*P@DS4*/
       90     5772    3               495,                      /*P@DS5*/
       91     5773    3               496,                      /*P@DS6*/
       92     5774    3               497,                      /*P@DS7*/
       93     5775    3               498);                     /*P@DS8*/
       94     5776    3             CALL CONCAT (S_D.OUTPUT, 'DATA SEGMENT ',BINASC(I-493+3+48));
       95     5777    3             CALL DDQ$WRITE(OUT$, SIZEC('DATA SEGMENT 8'));
       96     5778    3   DUMP_DS:  CALL DDA$DUMP(0, 3, I-493+6, '1'B, '1'B, 17000000/*DD_BIGNUM*/) ALTRET(ERR
              5778            );
       97     5779    3          CASE(499);                      /*P@DS*/
       98     5780                                                /* Ignore this one */
       99     5781    3          CASE(500);                    /*P@DATA*/
      100     5782    3             IF B$JIT.PCD = 0
      101     5783    4             THEN DO;
      102     5784    4                  S_D.OUTPUT = 'No DATA present.';
      103     5785    4                  CALL DDQ$WRITE(OUT$, SIZEC('NO DATA PRESENT.'));
      104     5786    4                END;
      105     5787    4             ELSE DO;
      106     5788    4                  S_D.OUTPUT = 'DATA';
      107     5789    4                  CALL DDQ$WRITE(OUT$, SIZEC('DATA'));
      108     5790    4                  CALL DDA$DUMP((B$JIT.DLL-64)*1024, 3, 0, '0'B, '1'B, B$JIT.PCD*1024)
              5790                           ALTRET(ERR);
PL6.E3A0      #001=DUA$PMD File=DUA$PMD.:E05TSI                                  TUE 07/29/97 14:48 Page:4
      109     5791    4                END;
      110     5792    3          CASE(502);                      /*P@DD*/
      111     5793    3             IF B$JIT.PCDD = 0
      112     5794    4             THEN DO;
      113     5795    4                  S_D.OUTPUT = 'No DYNAMIC DATA present.';
      114     5796    4                  CALL DDQ$WRITE(OUT$, SIZEC('NO DYNAMIC DATA PRESENT.'));
      115     5797    4                END;
      116     5798    4             ELSE DO;
      117     5799    4                  S_D.OUTPUT = 'DYNAMIC DATA';
      118     5800    4                  CALL DDQ$WRITE(OUT$, SIZEC('DYNAMIC DATA'));
      119     5801    4                  CALL DDA$DUMP((B$JIT.DDLL-64)*1024, 3, 0, '0'B, '1'B, B$JIT.PCDD*1024
              5801                           ) ALTRET(ERR);
      120     5802    4                END;
      121     5803    3          CASE(501);                    /*P@DCBS*/
      122     5804    4             DO J = 1 TO B$ROS$->B$ROSEG.NUMDCBS;
      123     5805    4                  DCB$ = B$ROS$->B$ROSEG.DCBPTR$->B$RODCB$(J);
      124     5806    4                  IF DCB$ ~= ADDR(NIL)
      125     5807    5                  THEN DO;
      126     5808    5                       IF J>1 THEN CALL DDQ$WRTOF;
      127     5809    5                       CALL DUA$UNFID(J);
      128     5810    5                       S_D.OUTPUT = ' ';
      129     5811    5                       CALL DDQ$WRITE (OUT$, 1);
      130     5812    5                       TEMP = DCBADR.ADR;
      131     5813    5                       CALL DDA$DUMP(TEMP, 3, 3, '1'B, '1'B, SIZEW(DCB$->F$DCB)) ALTRET
              5813                                (ARET);
      132     5814    6                       DO WHILE('0'B);
      133     5815    6   ARET:                    CALL DDE$ERROR;
      134     5816    6                          END;
      135     5817    5                       CALL DDB$BREAK ALTRET(ALT);
      136     5818    5                     END;
      137     5819    4                END;
      138     5820    3          CASE(503);                     /*P@IISR*/
      139     5821                                                /* Ignore this one */
      140     5822    3          CASE(504);                     /*P@JIT*/
      141     5823    3             S_D.OUTPUT = 'JIT';
      142     5824    3             CALL DDQ$WRITE(OUT$, SIZEC('JIT'));
      143     5825    3             CALL DDA$DUMP(0, 3, 1, '1'B, '1'B, 17000000/*DD_BIGNUM*/) ALTRET(ERR);
PL6.E3A0      #001=DUA$PMD File=DUA$PMD.:E05TSI                                  TUE 07/29/97 14:48 Page:5
      144     5826    3          CASE(505);               /*P@PROCEDURE*/
      145     5827    3             IF B$JIT.PCP = 0
      146     5828    4             THEN DO;
      147     5829    4                  S_D.OUTPUT = 'No PROCEDURE present.';
      148     5830    4                  CALL DDQ$WRITE(OUT$, SIZEC('NO PROCEDURE PRESENT.'));
      149     5831    4                END;
      150     5832    4             ELSE DO;
      151     5833    4                  S_D.OUTPUT = 'PROCEDURE';
      152     5834    4                  CALL DDQ$WRITE(OUT$, SIZEC('PROCEDURE'));
      153     5835    4                  CALL DDA$DUMP((B$JIT.PLL-64)*1024, 3, 0, '0'B, '0'B, B$JIT.PCP*1024)
              5835                           ALTRET(ERR);
      154     5836    4                END;
      155     5837    3          CASE(506);                   /*P@ROSEG*/
      156     5838    3             S_D.OUTPUT = 'READ ONLY SEGMENT';
      157     5839    3             CALL DDQ$WRITE(OUT$, SIZEC('READ ONLY SEGMENT'));
      158     5840    3             CALL DDA$DUMP(0, 3, 3, '1'B, '1'B, 17000000/*DD_BIGNUM*/) ALTRET(ERR);
      159     5841    3          CASE(507);                     /*P@TCB*/
      160     5842    3             S_D.OUTPUT = 'TCB';
      161     5843    3             CALL DDQ$WRITE(OUT$, SIZEC('TCB'));
      162     5844    3             CALL DDA$DUMP(0, 3, 15, '1'B, '0'B, 17000000/*DD_BIGNUM*/) ALTRET(ERR);
      163     5845    3          CASE(508);                   /*P@PLUGH*/
      164     5846    3             S_D.OUTPUT = 'PLUGH';
      165     5847    3             CALL DDQ$WRITE(OUT$, LENGTHC('PLUGH'));
      166     5848    3             CALL DDA$PLUGH_PMD;
      167     5849    3          CASE(ELSE);
      168     5850                                           /* Do nothing if option as yet undefined */
      169     5851    3          END;                             /* Do case */
      170     5852    2        CALL DDB$BREAK ALTRET(ALT);
      171     5853    2        RETURN;
      172     5854    2   ERR: CALL DDE$ERROR;
      173     5855    2        RETURN;
      174     5856    2   ALT: ALTRETURN;
      175     5857    2   END PMD_DOIT;
      176     5858    1   END DUA$PMD;

PL6.E3A0      #001=DUA$PMD File=DUA$PMD.:E05TSI                                  TUE 07/29/97 14:48 Page:6
--  Include file information  --

   B$JIT.:E05TOU  cannot be made into a system file and is referenced.
   B$ROSEG.:E05TOU  cannot be made into a system file and is referenced.
   CP_6.:E05TOU  cannot be made into a system file and is referenced.
   DD$BASED.:E05TOU  is referenced.
   DD_ERR_C.:E05TOU  is referenced.
   DD_PSUBS_C.:E05TOU  is referenced.
   DD_SUBS_C.:E05TOU  is referenced.
   DD_SD_M.:E05TOU  is referenced.
   XUH_MACRO_C.:E05TOU  is referenced.
   B$JIT_C.:E05TOU  was found in the system file and is referenced.
   CP_6_C.:E05TOU  was found in the system file and is referenced.
      No diagnostics issued in procedure DUA$PMD.

   Procedure DUA$PMD requires 480 words for executable code.
   Procedure DUA$PMD requires 18 words of local(AUTO) storage.

    No errors detected in file DUA$PMD.:E05TSI    .

PL6.E3A0      #001=DUA$PMD File=DUA$PMD.:E05TSI                                  TUE 07/29/97 14:48 Page:7

 Object Unit name= DUA$PMD                                    File name= DUA$PMD.:E05TOU
 UTS= JUL 29 '97 14:48:01.64 TUE                              Compiler= PL-6/E31         Sev=      00
 SharedLib= :SHARED_SYSTEM                                    Alt SharedLib=


    ****  Control sections  ****

 Sect   Type Bound  Init  Size OctSiz  Section name(segment info)
    0   DCB   even  none     0      0  M$UC
    1  RoData even  UTS     61     75  DUA$PMD
    2   Proc  even  none   480    740  DUA$PMD
    3  RoData even  none    53     65  DUA$PMD

    ****  Entry defs  ****

                              Check   Calling
                             calling  sequence
  Sect OctLoc Primary Altret sequence   type   Parms  Name
     2      0   yes            yes      Std        0  DUA$PMD

  ****  Entry refs  ****

         Check        Calling
        calling       sequence
Altret sequence SRef   type   Args  Name
         yes           Std       0 DDQ$WRTOF
 yes     yes           Std       6 DDA$DUMP
 yes     yes           Std       3 DUA$UNFID
         yes           Std       2 DDQ$WRITE
         yes           Std       0 DDA$PLUGH_PMD
         yes           Std       0 DDE$ERROR
 yes     yes           Std       0 DDB$BREAK
                       nStd      0 X66_AUTO_0
                       nStd      0 X66_ARET
                       Std       0 B_CONSPOOL_D
PL6.E3A0      #001=DUA$PMD File=DUA$PMD.:E05TSI                                  TUE 07/29/97 14:48 Page:8

  ****  Data refs  ****

  Flags:  r = read only, s = secondary
Flgs Name                             Flgs Name                             Flgs Name
r    S_D$                                  M$UC                                  B$ROS$
     B$JIT$                                B_VECTNIL

  ****  Segment refs  ****

  Flags:  r = read only, s = secondary
Flgs Name                             Flgs Name                             Flgs Name
     ISSID
PL6.E3A0      #001=DUA$PMD File=DUA$PMD.:E05TSI                                  TUE 07/29/97 14:48 Page:9


        1        1        /*M* DUA$PMD - THE PMD COMMAND */
        2        2        /*T***********************************************************/
        3        3        /*T*                                                         */
        4        4        /*T* Copyright (c) Bull HN Information Systems Inc., 1997    */
        5        5        /*T*                                                         */
        6        6        /*T***********************************************************/
        7        7        /*X* CCC,DMR,PLM=5,IND=5,CSU=3,EXM=0,ECU=3,MOC,DCI=5,CRT=5 */
        8        8        %SET LISTSUB='1'B;
        9        9        /*P* NAME: DUA$PMD
       10       10             PURPOSE: HANDLES THE PMD FUNCTION FOR DELTA.
       11       11        */
       12       12        DUA$PMD: PROC;

     12  2 000000   000000 700200 xent  DUA$PMD      TSX0  ! X66_AUTO_0
         2 000001   000022 000000                    ZERO    18,0

       13       13    1   DCL I UBIN;
       14       14                                                /**/
       15       15        %INCLUDE XUH_MACRO_C;
       16       99        %INCLUDE DD_SD_M;
       17     1435        %S_D;
       18     2753        %INCLUDE DD_SUBS_C;
       19     3024        %INCLUDE DD_PSUBS_C;
       20     3499        %INCLUDE DD_ERR_C;
       21     3896        %INCLUDE DD$BASED;
       22     5199        %KEEP$CMD (NAME=PMD$CMD);
       23     5218    1   DCL DDA$PLUGH_PMD ENTRY(0);
       24     5219                                                /**/
       25     5220    1        IF S_D.DO$->PMD$CMD.OPTARRY(0)

   5220  2 000002   000000 470400 xsym               LDP0    S_D$
         2 000003   000031 471500                    LDP1    25,,PR0
         2 000004   100002 234100                    SZN     2,,PR1
         2 000005   000023 605000 2                  TPL     s:5227

       26     5221    2        THEN DO;                           /* Stand back, he wants it all! */
PL6.E3A0      #001=DUA$PMD File=DUA$PMD.:E05TSI                                  TUE 07/29/97 14:48 Page:10

       27     5222    3             DO I = (490 + 1) TO 514; /*P@FIRSTSUB+1-P@LASTSUB*/

   5222  2 000006   000753 235007                    LDA     491,DL
         2 000007   200003 755100                    STA     I,,AUTO
         2 000010   000020 710000 2                  TRA     s:5224+3

       28     5223    3                  CALL PMD_DOIT(I) ALTRET(BREAK_HIT);

   5223  2 000011   200003 630500                    EPPR0   I,,AUTO
         2 000012   200005 450500                    STP0    I+2,,AUTO
         2 000013   000106 701000 2                  TSX1    PMD_DOIT
         2 000014   000105 702000 2                  TSX2    BREAK_HIT

       29     5224    3                END;

   5224  2 000015   200003 235100                    LDA     I,,AUTO
         2 000016   000001 035007                    ADLA    1,DL
         2 000017   200003 755100                    STA     I,,AUTO
         2 000020   001003 115007                    CMPA    515,DL
         2 000021   000011 602000 2                  TNC     s:5223

       30     5225    2             RETURN;

   5225  2 000022   000000 702200 xent               TSX2  ! X66_ARET

       31     5226    2           END;
       32     5227    1        IF S_D.DO$->PMD$CMD.OPTARRY(499 - 490) /*P@DS - P@ALL*/

   5227  2 000023   100002 236100                    LDQ     2,,PR1
         2 000024   000400 316003                    CANQ    256,DU
         2 000025   000041 600000 2                  TZE     s:5233

       33     5228    2        THEN DO;

       34     5229    3             DO I = 491 TO 498;       /*P@AUTO to P@DS8*/

PL6.E3A0      #001=DUA$PMD File=DUA$PMD.:E05TSI                                  TUE 07/29/97 14:48 Page:11
   5229  2 000026   000753 235007                    LDA     491,DL
         2 000027   200003 755100                    STA     I,,AUTO

       35     5230    3                  CALL PMD_DOIT(I) ALTRET(BREAK_HIT);

   5230  2 000030   200003 630500                    EPPR0   I,,AUTO
         2 000031   200005 450500                    STP0    I+2,,AUTO
         2 000032   000106 701000 2                  TSX1    PMD_DOIT
         2 000033   000105 702000 2                  TSX2    BREAK_HIT

       36     5231    3                END;

   5231  2 000034   200003 235100                    LDA     I,,AUTO
         2 000035   000001 035007                    ADLA    1,DL
         2 000036   200003 755100                    STA     I,,AUTO
         2 000037   000763 115007                    CMPA    499,DL
         2 000040   000030 602000 2                  TNC     s:5230

       37     5232    2           END;

       38     5233    1        IF S_D.DO$->PMD$CMD.OPTARRY(503 - 490)

   5233  2 000041   000000 470400 xsym               LDP0    S_D$
         2 000042   000031 471500                    LDP1    25,,PR0
         2 000043   100002 236100                    LDQ     2,,PR1
         2 000044   000020 316003                    CANQ    16,DU
         2 000045   000062 600000 2                  TZE     s:5239

       39     5234    2        THEN DO;

       40     5235    2             CALL PMD_DOIT (505) ALTRET(BREAK_HIT);

   5235  2 000046   000001 236000 3                  LDQ     1
         2 000047   200005 756100                    STQ     I+2,,AUTO
         2 000050   000106 701000 2                  TSX1    PMD_DOIT
         2 000051   000105 702000 2                  TSX2    BREAK_HIT

PL6.E3A0      #001=DUA$PMD File=DUA$PMD.:E05TSI                                  TUE 07/29/97 14:48 Page:12
       41     5236    2             CALL PMD_DOIT (500) ALTRET(BREAK_HIT);

   5236  2 000052   000003 236000 3                  LDQ     3
         2 000053   200005 756100                    STQ     I+2,,AUTO
         2 000054   000106 701000 2                  TSX1    PMD_DOIT
         2 000055   000105 702000 2                  TSX2    BREAK_HIT

       42     5237    2             CALL PMD_DOIT (502) ALTRET(BREAK_HIT);

   5237  2 000056   000005 236000 3                  LDQ     5
         2 000057   200005 756100                    STQ     I+2,,AUTO
         2 000060   000106 701000 2                  TSX1    PMD_DOIT
         2 000061   000105 702000 2                  TSX2    BREAK_HIT

       43     5238    2           END;

       44     5239    2        DO I = (490 + 1) TO 514; /*P@FIRSTSUB-P@LASTSUB*/

   5239  2 000062   000753 235007                    LDA     491,DL
         2 000063   200003 755100                    STA     I,,AUTO
         2 000064   000103 710000 2                  TRA     s:5241+3

       45     5240    2             IF S_D.DO$->PMD$CMD.OPTARRY(I - 490) THEN CALL PMD_DOIT(I) ALTRET(
              5240                      BREAK_HIT);

   5240  2 000065   000000 470400 xsym               LDP0    S_D$
         2 000066   000031 471500                    LDP1    25,,PR0
         2 000067   200003 235100                    LDA     I,,AUTO
         2 000070   000000 066505                    CMPB    filb='0'B
         2 000071   177764 250001                    BDSC    -12,A,PR1                by=1,bit=5,n=1
         2 000072   000002 000022 xsym               BDSC    B_VECTNIL+2              by=0,bit=0,n=18
         2 000073   000100 600000 2                  TZE     s:5241

   5240  2 000074   200003 633500                    EPPR3   I,,AUTO
         2 000075   200005 453500                    STP3    I+2,,AUTO
         2 000076   000106 701000 2                  TSX1    PMD_DOIT
         2 000077   000105 702000 2                  TSX2    BREAK_HIT
PL6.E3A0      #001=DUA$PMD File=DUA$PMD.:E05TSI                                  TUE 07/29/97 14:48 Page:13

       46     5241    2           END;

   5241  2 000100   200003 235100                    LDA     I,,AUTO
         2 000101   000001 035007                    ADLA    1,DL
         2 000102   200003 755100                    STA     I,,AUTO
         2 000103   001003 115007                    CMPA    515,DL
         2 000104   000065 602000 2                  TNC     s:5240

       47     5242    1   BREAK_HIT:
       48     5243    1        RETURN;

   5243  2 000105   000000 702200 xent  BREAK_HIT    TSX2  ! X66_ARET

       49     5244                                                /**/
       50     5245        /*D* NAME: PMD_DOIT
       51     5246             DESCRIPTION: Called by DUA$PMD to format the sections of the
       52     5247                  PMD report.  Formats headers and calls DDA$DUMP to output
       53     5248                  data.
       54     5249        */
       55     5250    1   PMD_DOIT: PROC(I) ALTRET;

   5250  2 000106   200004 741300       PMD_DOIT     STX1  ! I+1,,AUTO

       56     5251    2   DCL TEMP UBIN;
       57     5252    2   DCL J UBIN;
       58     5253    2   DCL DCB$ PTR;
       59     5254    2   DCL 1 DCBADR REDEF DCB$,
       60     5255    2         2 ADR UBIN(18) UNAL,
       61     5256    2         2 * UBIN(18) UNAL;
       62     5257    2   DCL I UBIN;
       63     5258    2   DCL OUT$ PTR;
       64     5259        %INCLUDE CP_6;
       65     5340        %F$DCB;
       66     5397        %INCLUDE B$ROSEG;
       67     5460        %INCLUDE B$JIT;
       68     5750    2   DCL B$ROS$ PTR SYMREF;
PL6.E3A0      #001=DUA$PMD File=DUA$PMD.:E05TSI                                  TUE 07/29/97 14:48 Page:14
       69     5751    2   DCL B$JIT$ PTR SYMREF;
       70     5752    2   DCL DDB$BREAK ENTRY ALTRET;
       71     5753    2   DCL DDQ$WRITE ENTRY(2);
       72     5754    2   DCL DDQ$WRTOF ENTRY;
       73     5755    2   DCL DUA$UNFID ENTRY(3) ALTRET;
       74     5756    2   DCL DDA$DUMP ENTRY(6) ALTRET;
       75     5757    2   DCL DDE$ERROR ENTRY;
       76     5758                                                /**/
       77     5759    2        OUT$ = ADDR(S_D.OUTPUT);

   5759  2 000107   000000 236000 xsym               LDQ     S_D$
         2 000110   005335 036003                    ADLQ    2781,DU
         2 000111   200011 756100                    STQ     OUT$,,AUTO

       78     5760    2        CALL DDQ$WRTOF;

   5760  2 000112   000002 631400 xsym               EPPR1   B_VECTNIL+2
         2 000113   000000 701000 xent               TSX1    DDQ$WRTOF
         2 000114   000000 011000                    NOP     0

       79     5761    3        DO CASE(I);

   5761  2 000115   200005 470500                    LDP0    @I,,AUTO
         2 000116   000000 235100                    LDA     0,,PR0
         2 000117   000753 135007                    SBLA    491,DL
         2 000120   000022 115007                    CMPA    18,DL
         2 000121   000123 602005 2                  TNC     s:5761+6,AL
         2 000122   000724 710000 2                  TRA     s:5852
         2 000123   000145 710000 2                  TRA     s:5763
         2 000124   000162 710000 2                  TRA     s:5767
         2 000125   000177 710000 2                  TRA     s:5776
         2 000126   000177 710000 2                  TRA     s:5776
         2 000127   000177 710000 2                  TRA     s:5776
         2 000130   000177 710000 2                  TRA     s:5776
         2 000131   000177 710000 2                  TRA     s:5776
         2 000132   000177 710000 2                  TRA     s:5776
         2 000133   000724 710000 2                  TRA     s:5852
PL6.E3A0      #001=DUA$PMD File=DUA$PMD.:E05TSI                                  TUE 07/29/97 14:48 Page:15
         2 000134   000244 710000 2                  TRA     s:5782
         2 000135   000416 710000 2                  TRA     s:5804
         2 000136   000331 710000 2                  TRA     s:5793
         2 000137   000724 710000 2                  TRA     s:5852
         2 000140   000534 710000 2                  TRA     s:5823
         2 000141   000555 710000 2                  TRA     s:5827
         2 000142   000642 710000 2                  TRA     s:5838
         2 000143   000663 710000 2                  TRA     s:5842
         2 000144   000704 710000 2                  TRA     s:5846

       80     5762    3          CASE(491);                    /*P@AUTO*/

       81     5763    3             S_D.OUTPUT = 'AUTO (DS1)';

   5763  2 000145   000000 471400 xsym               LDP1    S_D$
         2 000146   040100 100400                    MLR     fill='040'O
         2 000147   000000 000012 1                  ADSC9   0                        cn=0,n=10
         2 000150   105335 004000                    ADSC9   2781,,PR1                cn=0,n=2048

       82     5764    3             CALL DDQ$WRITE (OUT$, SIZEC('AUTO (DS1)'));

   5764  2 000151   000006 236000 3                  LDQ     6
         2 000152   200013 756100                    STQ     OUT$+2,,AUTO
         2 000153   200011 633500                    EPPR3   OUT$,,AUTO
         2 000154   200012 453500                    STP3    OUT$+1,,AUTO
         2 000155   200012 630500                    EPPR0   OUT$+1,,AUTO
         2 000156   000020 631400 xsym               EPPR1   B_VECTNIL+16
         2 000157   000000 701000 xent               TSX1    DDQ$WRITE
         2 000160   000000 011000                    NOP     0

       83     5765    3             GOTO DUMP_DS;

   5765  2 000161   000223 710000 2                  TRA     DUMP_DS

       84     5766    3          CASE(492);                  /*P@COMMON*/

       85     5767    3             S_D.OUTPUT = 'COMMON (DS2)';
PL6.E3A0      #001=DUA$PMD File=DUA$PMD.:E05TSI                                  TUE 07/29/97 14:48 Page:16

   5767  2 000162   000000 471400 xsym               LDP1    S_D$
         2 000163   040100 100400                    MLR     fill='040'O
         2 000164   000003 000014 1                  ADSC9   3                        cn=0,n=12
         2 000165   105335 004000                    ADSC9   2781,,PR1                cn=0,n=2048

       86     5768    3             CALL DDQ$WRITE(OUT$, SIZEC('COMMON (DS2)'));

   5768  2 000166   000010 236000 3                  LDQ     8
         2 000167   200013 756100                    STQ     OUT$+2,,AUTO
         2 000170   200011 633500                    EPPR3   OUT$,,AUTO
         2 000171   200012 453500                    STP3    OUT$+1,,AUTO
         2 000172   200012 630500                    EPPR0   OUT$+1,,AUTO
         2 000173   000020 631400 xsym               EPPR1   B_VECTNIL+16
         2 000174   000000 701000 xent               TSX1    DDQ$WRITE
         2 000175   000000 011000                    NOP     0

       87     5769    3             GOTO DUMP_DS;

   5769  2 000176   000223 710000 2                  TRA     DUMP_DS

       88     5770    3          CASE(493,                      /*P@DS3*/

       89     5771    3               494,                      /*P@DS4*/
       90     5772    3               495,                      /*P@DS5*/
       91     5773    3               496,                      /*P@DS6*/
       92     5774    3               497,                      /*P@DS7*/
       93     5775    3               498);                     /*P@DS8*/
       94     5776    3             CALL CONCAT (S_D.OUTPUT, 'DATA SEGMENT ',BINASC(I-493+3+48));

   5776  2 000177   000000 236100                    LDQ     0,,PR0
         2 000200   000672 136007                    SBLQ    442,DL
         2 000201   000033 736000                    QLS     27
         2 000202   000011 276000 3                  ORQ     9
         2 000203   000000 471400 xsym               LDP1    S_D$
         2 000204   040100 100400                    MLR     fill='040'O
         2 000205   000006 000015 1                  ADSC9   6                        cn=0,n=13
PL6.E3A0      #001=DUA$PMD File=DUA$PMD.:E05TSI                                  TUE 07/29/97 14:48 Page:17
         2 000206   105335 000015                    ADSC9   2781,,PR1                cn=0,n=13
         2 000207   200012 756100                    STQ     OUT$+1,,AUTO
         2 000210   040100 100500                    MLR     fill='040'O
         2 000211   200012 000004                    ADSC9   OUT$+1,,AUTO             cn=0,n=4
         2 000212   105340 203763                    ADSC9   2784,,PR1                cn=1,n=2035

       95     5777    3             CALL DDQ$WRITE(OUT$, SIZEC('DATA SEGMENT 8'));

   5777  2 000213   000013 236000 3                  LDQ     11
         2 000214   200013 756100                    STQ     OUT$+2,,AUTO
         2 000215   200011 630500                    EPPR0   OUT$,,AUTO
         2 000216   200012 450500                    STP0    OUT$+1,,AUTO
         2 000217   200012 630500                    EPPR0   OUT$+1,,AUTO
         2 000220   000020 631400 xsym               EPPR1   B_VECTNIL+16
         2 000221   000000 701000 xent               TSX1    DDQ$WRITE
         2 000222   000000 011000                    NOP     0

       96     5778    3   DUMP_DS: CALL DDA$DUMP(0, 3, I-493+6, '1'B, '1'B, 17000000/*DD_BIGNUM*/) ALTRET(ERR
              5778            );

   5778  2 000223   200005 470500       DUMP_DS      LDP0    @I,,AUTO
         2 000224   000000 235100                    LDA     0,,PR0
         2 000225   000747 135007                    SBLA    487,DL
         2 000226   200012 755100                    STA     OUT$+1,,AUTO
         2 000227   000016 237000 3                  LDAQ    14
         2 000230   200020 757100                    STAQ    OUT$+7,,AUTO
         2 000231   000016 236000 3                  LDQ     14
         2 000232   200017 756100                    STQ     OUT$+6,,AUTO
         2 000233   200012 631500                    EPPR1   OUT$+1,,AUTO
         2 000234   200016 451500                    STP1    OUT$+5,,AUTO
         2 000235   000020 237000 3                  LDAQ    16
         2 000236   200014 757100                    STAQ    OUT$+3,,AUTO
         2 000237   200014 630500                    EPPR0   OUT$+3,,AUTO
         2 000240   000024 631400 xsym               EPPR1   B_VECTNIL+20
         2 000241   000000 701000 xent               TSX1    DDA$DUMP
         2 000242   000731 702000 2                  TSX2    ERR
         2 000243   000724 710000 2                  TRA     s:5852
PL6.E3A0      #001=DUA$PMD File=DUA$PMD.:E05TSI                                  TUE 07/29/97 14:48 Page:18

       97     5779    3          CASE(499);                      /*P@DS*/

       98     5780                                                /* Ignore this one */
       99     5781    3          CASE(500);                    /*P@DATA*/

      100     5782    3             IF B$JIT.PCD = 0

   5782  2 000244   000000 471400 xsym               LDP1    B$JIT$
         2 000245   100201 720100                    LXL0    129,,PR1
         2 000246   000264 601000 2                  TNZ     s:5788

      101     5783    4             THEN DO;

      102     5784    4                  S_D.OUTPUT = 'No DATA present.';

   5784  2 000247   000000 473400 xsym               LDP3    S_D$
         2 000250   040100 100400                    MLR     fill='040'O
         2 000251   000016 000020 1                  ADSC9   14                       cn=0,n=16
         2 000252   305335 004000                    ADSC9   2781,,PR3                cn=0,n=2048

      103     5785    4                  CALL DDQ$WRITE(OUT$, SIZEC('NO DATA PRESENT.'));

   5785  2 000253   000022 236000 3                  LDQ     18
         2 000254   200013 756100                    STQ     OUT$+2,,AUTO
         2 000255   200011 634500                    EPPR4   OUT$,,AUTO
         2 000256   200012 454500                    STP4    OUT$+1,,AUTO
         2 000257   200012 630500                    EPPR0   OUT$+1,,AUTO
         2 000260   000020 631400 xsym               EPPR1   B_VECTNIL+16
         2 000261   000000 701000 xent               TSX1    DDQ$WRITE
         2 000262   000000 011000                    NOP     0

      104     5786    4                END;

   5786  2 000263   000724 710000 2                  TRA     s:5852

      105     5787    4             ELSE DO;
PL6.E3A0      #001=DUA$PMD File=DUA$PMD.:E05TSI                                  TUE 07/29/97 14:48 Page:19

      106     5788    4                  S_D.OUTPUT = 'DATA';

   5788  2 000264   000000 473400 xsym               LDP3    S_D$
         2 000265   040100 100400                    MLR     fill='040'O
         2 000266   000006 000004 1                  ADSC9   6                        cn=0,n=4
         2 000267   305335 004000                    ADSC9   2781,,PR3                cn=0,n=2048

      107     5789    4                  CALL DDQ$WRITE(OUT$, SIZEC('DATA'));

   5789  2 000270   000023 236000 3                  LDQ     19
         2 000271   200013 756100                    STQ     OUT$+2,,AUTO
         2 000272   200011 634500                    EPPR4   OUT$,,AUTO
         2 000273   200012 454500                    STP4    OUT$+1,,AUTO
         2 000274   200012 630500                    EPPR0   OUT$+1,,AUTO
         2 000275   000020 631400 xsym               EPPR1   B_VECTNIL+16
         2 000276   000000 701000 xent               TSX1    DDQ$WRITE
         2 000277   000000 011000                    NOP     0

      108     5790    4                  CALL DDA$DUMP((B$JIT.DLL-64)*1024, 3, 0, '0'B, '1'B, B$JIT.PCD*1024)
              5790                           ALTRET(ERR);

   5790  2 000300   000000 470400 xsym               LDP0    B$JIT$
         2 000301   000177 236100                    LDQ     127,,PR0
         2 000302   000010 772000                    QRL     8
         2 000303   000024 376000 3                  ANQ     20
         2 000304   200000 136007                    SBLQ    65536,DL
         2 000305   200012 756100                    STQ     OUT$+1,,AUTO
         2 000306   000201 236100                    LDQ     129,,PR0
         2 000307   000012 736000                    QLS     10
         2 000310   000024 376000 3                  ANQ     20
         2 000311   200013 756100                    STQ     OUT$+2,,AUTO
         2 000312   200013 631500                    EPPR1   OUT$+2,,AUTO
         2 000313   200021 451500                    STP1    OUT$+8,,AUTO
         2 000314   000016 236000 3                  LDQ     14
         2 000315   200020 756100                    STQ     OUT$+7,,AUTO
         2 000316   000026 237000 3                  LDAQ    22
PL6.E3A0      #001=DUA$PMD File=DUA$PMD.:E05TSI                                  TUE 07/29/97 14:48 Page:20
         2 000317   200016 757100                    STAQ    OUT$+5,,AUTO
         2 000320   000021 236000 3                  LDQ     17
         2 000321   200015 756100                    STQ     OUT$+4,,AUTO
         2 000322   200012 633500                    EPPR3   OUT$+1,,AUTO
         2 000323   200014 453500                    STP3    OUT$+3,,AUTO
         2 000324   200014 630500                    EPPR0   OUT$+3,,AUTO
         2 000325   000024 631400 xsym               EPPR1   B_VECTNIL+20
         2 000326   000000 701000 xent               TSX1    DDA$DUMP
         2 000327   000731 702000 2                  TSX2    ERR

      109     5791    4                END;

   5791  2 000330   000724 710000 2                  TRA     s:5852

      110     5792    3          CASE(502);                      /*P@DD*/

      111     5793    3             IF B$JIT.PCDD = 0

   5793  2 000331   000000 471400 xsym               LDP1    B$JIT$
         2 000332   100203 720100                    LXL0    131,,PR1
         2 000333   000351 601000 2                  TNZ     s:5799

      112     5794    4             THEN DO;

      113     5795    4                  S_D.OUTPUT = 'No DYNAMIC DATA present.';

   5795  2 000334   000000 473400 xsym               LDP3    S_D$
         2 000335   040100 100400                    MLR     fill='040'O
         2 000336   000026 000030 1                  ADSC9   22                       cn=0,n=24
         2 000337   305335 004000                    ADSC9   2781,,PR3                cn=0,n=2048

      114     5796    4                  CALL DDQ$WRITE(OUT$, SIZEC('NO DYNAMIC DATA PRESENT.'));

   5796  2 000340   000030 236000 3                  LDQ     24
         2 000341   200013 756100                    STQ     OUT$+2,,AUTO
         2 000342   200011 634500                    EPPR4   OUT$,,AUTO
         2 000343   200012 454500                    STP4    OUT$+1,,AUTO
PL6.E3A0      #001=DUA$PMD File=DUA$PMD.:E05TSI                                  TUE 07/29/97 14:48 Page:21
         2 000344   200012 630500                    EPPR0   OUT$+1,,AUTO
         2 000345   000020 631400 xsym               EPPR1   B_VECTNIL+16
         2 000346   000000 701000 xent               TSX1    DDQ$WRITE
         2 000347   000000 011000                    NOP     0

      115     5797    4                END;

   5797  2 000350   000724 710000 2                  TRA     s:5852

      116     5798    4             ELSE DO;

      117     5799    4                  S_D.OUTPUT = 'DYNAMIC DATA';

   5799  2 000351   000000 473400 xsym               LDP3    S_D$
         2 000352   040100 100400                    MLR     fill='040'O
         2 000353   000042 000014 1                  ADSC9   34                       cn=0,n=12
         2 000354   305335 004000                    ADSC9   2781,,PR3                cn=0,n=2048

      118     5800    4                  CALL DDQ$WRITE(OUT$, SIZEC('DYNAMIC DATA'));

   5800  2 000355   000010 236000 3                  LDQ     8
         2 000356   200013 756100                    STQ     OUT$+2,,AUTO
         2 000357   200011 634500                    EPPR4   OUT$,,AUTO
         2 000360   200012 454500                    STP4    OUT$+1,,AUTO
         2 000361   200012 630500                    EPPR0   OUT$+1,,AUTO
         2 000362   000020 631400 xsym               EPPR1   B_VECTNIL+16
         2 000363   000000 701000 xent               TSX1    DDQ$WRITE
         2 000364   000000 011000                    NOP     0

      119     5801    4                 CALL DDA$DUMP((B$JIT.DDLL-64)*1024, 3, 0, '0'B, '1'B, B$JIT.PCDD*1024
              5801                           ) ALTRET(ERR);

   5801  2 000365   000000 470400 xsym               LDP0    B$JIT$
         2 000366   000200 236100                    LDQ     128,,PR0
         2 000367   000010 772000                    QRL     8
         2 000370   000024 376000 3                  ANQ     20
         2 000371   200000 136007                    SBLQ    65536,DL
PL6.E3A0      #001=DUA$PMD File=DUA$PMD.:E05TSI                                  TUE 07/29/97 14:48 Page:22
         2 000372   200012 756100                    STQ     OUT$+1,,AUTO
         2 000373   000203 236100                    LDQ     131,,PR0
         2 000374   000012 736000                    QLS     10
         2 000375   000024 376000 3                  ANQ     20
         2 000376   200013 756100                    STQ     OUT$+2,,AUTO
         2 000377   200013 631500                    EPPR1   OUT$+2,,AUTO
         2 000400   200021 451500                    STP1    OUT$+8,,AUTO
         2 000401   000016 236000 3                  LDQ     14
         2 000402   200020 756100                    STQ     OUT$+7,,AUTO
         2 000403   000026 237000 3                  LDAQ    22
         2 000404   200016 757100                    STAQ    OUT$+5,,AUTO
         2 000405   000021 236000 3                  LDQ     17
         2 000406   200015 756100                    STQ     OUT$+4,,AUTO
         2 000407   200012 633500                    EPPR3   OUT$+1,,AUTO
         2 000410   200014 453500                    STP3    OUT$+3,,AUTO
         2 000411   200014 630500                    EPPR0   OUT$+3,,AUTO
         2 000412   000024 631400 xsym               EPPR1   B_VECTNIL+20
         2 000413   000000 701000 xent               TSX1    DDA$DUMP
         2 000414   000731 702000 2                  TSX2    ERR

      120     5802    4                END;

   5802  2 000415   000724 710000 2                  TRA     s:5852

      121     5803    3          CASE(501);                    /*P@DCBS*/

      122     5804    4             DO J = 1 TO B$ROS$->B$ROSEG.NUMDCBS;

   5804  2 000416   000001 236007                    LDQ     1,DL
         2 000417   200007 756100                    STQ     J,,AUTO
         2 000420   000526 710000 2                  TRA     s:5819+3

      123     5805    4                  DCB$ = B$ROS$->B$ROSEG.DCBPTR$->B$RODCB$(J);

   5805  2 000421   000000 470400 xsym               LDP0    B$ROS$
         2 000422   000000 471500                    LDP1    0,,PR0
         2 000423   200007 720100                    LXL0    J,,AUTO
PL6.E3A0      #001=DUA$PMD File=DUA$PMD.:E05TSI                                  TUE 07/29/97 14:48 Page:23
         2 000424   100000 236110                    LDQ     0,X0,PR1
         2 000425   200010 756100                    STQ     DCB$,,AUTO

      124     5806    4                  IF DCB$ ~= ADDR(NIL)

   5806  2 000426   000001 116000 xsym               CMPQ    B_VECTNIL+1
         2 000427   000523 600000 2                  TZE     s:5819

      125     5807    5                  THEN DO;

      126     5808    5                       IF J>1 THEN CALL DDQ$WRTOF;

   5808  2 000430   200007 235100                    LDA     J,,AUTO
         2 000431   000002 115007                    CMPA    2,DL
         2 000432   000436 602000 2                  TNC     s:5809

   5808  2 000433   000002 631400 xsym               EPPR1   B_VECTNIL+2
         2 000434   000000 701000 xent               TSX1    DDQ$WRTOF
         2 000435   000000 011000                    NOP     0

      127     5809    5                       CALL DUA$UNFID(J);

   5809  2 000436   200007 630500                    EPPR0   J,,AUTO
         2 000437   200012 450500                    STP0    OUT$+1,,AUTO
         2 000440   200012 630500                    EPPR0   OUT$+1,,AUTO
         2 000441   000017 631400 xsym               EPPR1   B_VECTNIL+15
         2 000442   000000 701000 xent               TSX1    DUA$UNFID
         2 000443   000000 011000                    NOP     0

      128     5810    5                       S_D.OUTPUT = ' ';

   5810  2 000444   000000 470400 xsym               LDP0    S_D$
         2 000445   040100 100400                    MLR     fill='040'O
         2 000446   000035 000001 xsym               ADSC9   B_VECTNIL+29             cn=0,n=1
         2 000447   005335 004000                    ADSC9   2781,,PR0                cn=0,n=2048

      129     5811    5                       CALL DDQ$WRITE (OUT$, 1);
PL6.E3A0      #001=DUA$PMD File=DUA$PMD.:E05TSI                                  TUE 07/29/97 14:48 Page:24

   5811  2 000450   000031 236000 3                  LDQ     25
         2 000451   200013 756100                    STQ     OUT$+2,,AUTO
         2 000452   200011 631500                    EPPR1   OUT$,,AUTO
         2 000453   200012 451500                    STP1    OUT$+1,,AUTO
         2 000454   200012 630500                    EPPR0   OUT$+1,,AUTO
         2 000455   000020 631400 xsym               EPPR1   B_VECTNIL+16
         2 000456   000000 701000 xent               TSX1    DDQ$WRITE
         2 000457   000000 011000                    NOP     0

      130     5812    5                       TEMP = DCBADR.ADR;

   5812  2 000460   200010 235100                    LDA     DCB$,,AUTO
         2 000461   000022 771000                    ARL     18
         2 000462   200006 755100                    STA     TEMP,,AUTO

      131     5813    5                      CALL DDA$DUMP(TEMP, 3, 3, '1'B, '1'B, SIZEW(DCB$->F$DCB)) ALTRET
              5813                                (ARET);

   5813  2 000463   200010 470500                    LDP0    DCB$,,AUTO
         2 000464   000140 236100                    LDQ     96,,PR0
         2 000465   000033 772000                    QRL     27
         2 000466   000037 376007                    ANQ     31,DL
         2 000467   000601 620006                    EAX0    385,QL
         2 000470   000000 636010                    EAQ     0,X0
         2 000471   000022 772000                    QRL     18
         2 000472   000011 402007                    MPY     9,DL
         2 000473   000043 036007                    ADLQ    35,DL
         2 000474   000044 506007                    DIV     36,DL
         2 000475   200012 756100                    STQ     OUT$+1,,AUTO
         2 000476   200012 631500                    EPPR1   OUT$+1,,AUTO
         2 000477   200021 451500                    STP1    OUT$+8,,AUTO
         2 000500   000016 236000 3                  LDQ     14
         2 000501   200020 756100                    STQ     OUT$+7,,AUTO
         2 000502   000032 237000 3                  LDAQ    26
         2 000503   200016 757100                    STAQ    OUT$+5,,AUTO
         2 000504   000021 236000 3                  LDQ     17
PL6.E3A0      #001=DUA$PMD File=DUA$PMD.:E05TSI                                  TUE 07/29/97 14:48 Page:25
         2 000505   200015 756100                    STQ     OUT$+4,,AUTO
         2 000506   200006 633500                    EPPR3   TEMP,,AUTO
         2 000507   200014 453500                    STP3    OUT$+3,,AUTO
         2 000510   200014 630500                    EPPR0   OUT$+3,,AUTO
         2 000511   000024 631400 xsym               EPPR1   B_VECTNIL+20
         2 000512   000000 701000 xent               TSX1    DDA$DUMP
         2 000513   000515 702000 2                  TSX2    ARET

      132     5814    6                       DO WHILE('0'B);

   5814  2 000514   000520 710000 2                  TRA     s:5817

      133     5815    6   ARET:                    CALL DDE$ERROR;

   5815  2 000515   000002 631400 xsym  ARET         EPPR1   B_VECTNIL+2
         2 000516   000000 701000 xent               TSX1    DDE$ERROR
         2 000517   000000 011000                    NOP     0

      134     5816    6                          END;

      135     5817    5                       CALL DDB$BREAK ALTRET(ALT);

   5817  2 000520   000002 631400 xsym               EPPR1   B_VECTNIL+2
         2 000521   000000 701000 xent               TSX1    DDB$BREAK
         2 000522   000736 702000 2                  TSX2    ALT

      136     5818    5                     END;

      137     5819    4                END;

   5819  2 000523   200007 235100                    LDA     J,,AUTO
         2 000524   000001 035007                    ADLA    1,DL
         2 000525   200007 755100                    STA     J,,AUTO
         2 000526   000000 470400 xsym               LDP0    B$ROS$
         2 000527   000002 236100                    LDQ     2,,PR0
         2 000530   000022 772000                    QRL     18
         2 000531   200007 116100                    CMPQ    J,,AUTO
PL6.E3A0      #001=DUA$PMD File=DUA$PMD.:E05TSI                                  TUE 07/29/97 14:48 Page:26
         2 000532   000421 603000 2                  TRC     s:5805
         2 000533   000724 710000 2                  TRA     s:5852

      138     5820    3          CASE(503);                     /*P@IISR*/

      139     5821                                                /* Ignore this one */
      140     5822    3          CASE(504);                     /*P@JIT*/

      141     5823    3             S_D.OUTPUT = 'JIT';

   5823  2 000534   000000 471400 xsym               LDP1    S_D$
         2 000535   040100 100400                    MLR     fill='040'O
         2 000536   000045 000003 1                  ADSC9   37                       cn=0,n=3
         2 000537   105335 004000                    ADSC9   2781,,PR1                cn=0,n=2048

      142     5824    3             CALL DDQ$WRITE(OUT$, SIZEC('JIT'));

   5824  2 000540   000021 236000 3                  LDQ     17
         2 000541   200013 756100                    STQ     OUT$+2,,AUTO
         2 000542   200011 633500                    EPPR3   OUT$,,AUTO
         2 000543   200012 453500                    STP3    OUT$+1,,AUTO
         2 000544   200012 630500                    EPPR0   OUT$+1,,AUTO
         2 000545   000020 631400 xsym               EPPR1   B_VECTNIL+16
         2 000546   000000 701000 xent               TSX1    DDQ$WRITE
         2 000547   000000 011000                    NOP     0

      143     5825    3             CALL DDA$DUMP(0, 3, 1, '1'B, '1'B, 17000000/*DD_BIGNUM*/) ALTRET(ERR);

   5825  2 000550   000034 630400 3                  EPPR0   28
         2 000551   000024 631400 xsym               EPPR1   B_VECTNIL+20
         2 000552   000000 701000 xent               TSX1    DDA$DUMP
         2 000553   000731 702000 2                  TSX2    ERR
         2 000554   000724 710000 2                  TRA     s:5852

      144     5826    3          CASE(505);               /*P@PROCEDURE*/

      145     5827    3             IF B$JIT.PCP = 0
PL6.E3A0      #001=DUA$PMD File=DUA$PMD.:E05TSI                                  TUE 07/29/97 14:48 Page:27

   5827  2 000555   000000 471400 xsym               LDP1    B$JIT$
         2 000556   100201 220100                    LDX0    129,,PR1
         2 000557   000575 601000 2                  TNZ     s:5833

      146     5828    4             THEN DO;

      147     5829    4                  S_D.OUTPUT = 'No PROCEDURE present.';

   5829  2 000560   000000 473400 xsym               LDP3    S_D$
         2 000561   040100 100400                    MLR     fill='040'O
         2 000562   000046 000025 1                  ADSC9   38                       cn=0,n=21
         2 000563   305335 004000                    ADSC9   2781,,PR3                cn=0,n=2048

      148     5830    4                  CALL DDQ$WRITE(OUT$, SIZEC('NO PROCEDURE PRESENT.'));

   5830  2 000564   000043 236000 3                  LDQ     35
         2 000565   200013 756100                    STQ     OUT$+2,,AUTO
         2 000566   200011 634500                    EPPR4   OUT$,,AUTO
         2 000567   200012 454500                    STP4    OUT$+1,,AUTO
         2 000570   200012 630500                    EPPR0   OUT$+1,,AUTO
         2 000571   000020 631400 xsym               EPPR1   B_VECTNIL+16
         2 000572   000000 701000 xent               TSX1    DDQ$WRITE
         2 000573   000000 011000                    NOP     0

      149     5831    4                END;

   5831  2 000574   000724 710000 2                  TRA     s:5852

      150     5832    4             ELSE DO;

      151     5833    4                  S_D.OUTPUT = 'PROCEDURE';

   5833  2 000575   000000 473400 xsym               LDP3    S_D$
         2 000576   040100 100400                    MLR     fill='040'O
         2 000577   000062 000011 1                  ADSC9   50                       cn=0,n=9
         2 000600   305335 004000                    ADSC9   2781,,PR3                cn=0,n=2048
PL6.E3A0      #001=DUA$PMD File=DUA$PMD.:E05TSI                                  TUE 07/29/97 14:48 Page:28

      152     5834    4                  CALL DDQ$WRITE(OUT$, SIZEC('PROCEDURE'));

   5834  2 000601   000044 236000 3                  LDQ     36
         2 000602   200013 756100                    STQ     OUT$+2,,AUTO
         2 000603   200011 634500                    EPPR4   OUT$,,AUTO
         2 000604   200012 454500                    STP4    OUT$+1,,AUTO
         2 000605   200012 630500                    EPPR0   OUT$+1,,AUTO
         2 000606   000020 631400 xsym               EPPR1   B_VECTNIL+16
         2 000607   000000 701000 xent               TSX1    DDQ$WRITE
         2 000610   000000 011000                    NOP     0

      153     5835    4                  CALL DDA$DUMP((B$JIT.PLL-64)*1024, 3, 0, '0'B, '0'B, B$JIT.PCP*1024)
              5835                           ALTRET(ERR);

   5835  2 000611   000000 470400 xsym               LDP0    B$JIT$
         2 000612   000176 236100                    LDQ     126,,PR0
         2 000613   000010 772000                    QRL     8
         2 000614   000024 376000 3                  ANQ     20
         2 000615   200000 136007                    SBLQ    65536,DL
         2 000616   200012 756100                    STQ     OUT$+1,,AUTO
         2 000617   000201 236100                    LDQ     129,,PR0
         2 000620   000010 772000                    QRL     8
         2 000621   000024 376000 3                  ANQ     20
         2 000622   200013 756100                    STQ     OUT$+2,,AUTO
         2 000623   200013 631500                    EPPR1   OUT$+2,,AUTO
         2 000624   200021 451500                    STP1    OUT$+8,,AUTO
         2 000625   000020 236000 3                  LDQ     16
         2 000626   200020 756100                    STQ     OUT$+7,,AUTO
         2 000627   000026 237000 3                  LDAQ    22
         2 000630   200016 757100                    STAQ    OUT$+5,,AUTO
         2 000631   000021 236000 3                  LDQ     17
         2 000632   200015 756100                    STQ     OUT$+4,,AUTO
         2 000633   200012 633500                    EPPR3   OUT$+1,,AUTO
         2 000634   200014 453500                    STP3    OUT$+3,,AUTO
         2 000635   200014 630500                    EPPR0   OUT$+3,,AUTO
         2 000636   000024 631400 xsym               EPPR1   B_VECTNIL+20
PL6.E3A0      #001=DUA$PMD File=DUA$PMD.:E05TSI                                  TUE 07/29/97 14:48 Page:29
         2 000637   000000 701000 xent               TSX1    DDA$DUMP
         2 000640   000731 702000 2                  TSX2    ERR

      154     5836    4                END;

   5836  2 000641   000724 710000 2                  TRA     s:5852

      155     5837    3          CASE(506);                   /*P@ROSEG*/

      156     5838    3             S_D.OUTPUT = 'READ ONLY SEGMENT';

   5838  2 000642   000000 471400 xsym               LDP1    S_D$
         2 000643   040100 100400                    MLR     fill='040'O
         2 000644   000065 000021 1                  ADSC9   53                       cn=0,n=17
         2 000645   105335 004000                    ADSC9   2781,,PR1                cn=0,n=2048

      157     5839    3             CALL DDQ$WRITE(OUT$, SIZEC('READ ONLY SEGMENT'));

   5839  2 000646   000046 236000 3                  LDQ     38
         2 000647   200013 756100                    STQ     OUT$+2,,AUTO
         2 000650   200011 633500                    EPPR3   OUT$,,AUTO
         2 000651   200012 453500                    STP3    OUT$+1,,AUTO
         2 000652   200012 630500                    EPPR0   OUT$+1,,AUTO
         2 000653   000020 631400 xsym               EPPR1   B_VECTNIL+16
         2 000654   000000 701000 xent               TSX1    DDQ$WRITE
         2 000655   000000 011000                    NOP     0

      158     5840    3             CALL DDA$DUMP(0, 3, 3, '1'B, '1'B, 17000000/*DD_BIGNUM*/) ALTRET(ERR);

   5840  2 000656   000047 630400 3                  EPPR0   39
         2 000657   000024 631400 xsym               EPPR1   B_VECTNIL+20
         2 000660   000000 701000 xent               TSX1    DDA$DUMP
         2 000661   000731 702000 2                  TSX2    ERR
         2 000662   000724 710000 2                  TRA     s:5852

      159     5841    3          CASE(507);                     /*P@TCB*/

PL6.E3A0      #001=DUA$PMD File=DUA$PMD.:E05TSI                                  TUE 07/29/97 14:48 Page:30
      160     5842    3             S_D.OUTPUT = 'TCB';

   5842  2 000663   000000 471400 xsym               LDP1    S_D$
         2 000664   040100 100400                    MLR     fill='040'O
         2 000665   000072 000003 1                  ADSC9   58                       cn=0,n=3
         2 000666   105335 004000                    ADSC9   2781,,PR1                cn=0,n=2048

      161     5843    3             CALL DDQ$WRITE(OUT$, SIZEC('TCB'));

   5843  2 000667   000021 236000 3                  LDQ     17
         2 000670   200013 756100                    STQ     OUT$+2,,AUTO
         2 000671   200011 633500                    EPPR3   OUT$,,AUTO
         2 000672   200012 453500                    STP3    OUT$+1,,AUTO
         2 000673   200012 630500                    EPPR0   OUT$+1,,AUTO
         2 000674   000020 631400 xsym               EPPR1   B_VECTNIL+16
         2 000675   000000 701000 xent               TSX1    DDQ$WRITE
         2 000676   000000 011000                    NOP     0

      162     5844    3             CALL DDA$DUMP(0, 3, 15, '1'B, '0'B, 17000000/*DD_BIGNUM*/) ALTRET(ERR);

   5844  2 000677   000056 630400 3                  EPPR0   46
         2 000700   000024 631400 xsym               EPPR1   B_VECTNIL+20
         2 000701   000000 701000 xent               TSX1    DDA$DUMP
         2 000702   000731 702000 2                  TSX2    ERR
         2 000703   000724 710000 2                  TRA     s:5852

      163     5845    3          CASE(508);                   /*P@PLUGH*/

      164     5846    3             S_D.OUTPUT = 'PLUGH';

   5846  2 000704   000000 471400 xsym               LDP1    S_D$
         2 000705   040100 100400                    MLR     fill='040'O
         2 000706   000073 000005 1                  ADSC9   59                       cn=0,n=5
         2 000707   105335 004000                    ADSC9   2781,,PR1                cn=0,n=2048

      165     5847    3             CALL DDQ$WRITE(OUT$, LENGTHC('PLUGH'));

PL6.E3A0      #001=DUA$PMD File=DUA$PMD.:E05TSI                                  TUE 07/29/97 14:48 Page:31
   5847  2 000710   000064 236000 3                  LDQ     52
         2 000711   200013 756100                    STQ     OUT$+2,,AUTO
         2 000712   200011 633500                    EPPR3   OUT$,,AUTO
         2 000713   200012 453500                    STP3    OUT$+1,,AUTO
         2 000714   200012 630500                    EPPR0   OUT$+1,,AUTO
         2 000715   000020 631400 xsym               EPPR1   B_VECTNIL+16
         2 000716   000000 701000 xent               TSX1    DDQ$WRITE
         2 000717   000000 011000                    NOP     0

      166     5848    3             CALL DDA$PLUGH_PMD;

   5848  2 000720   000002 631400 xsym               EPPR1   B_VECTNIL+2
         2 000721   000000 701000 xent               TSX1    DDA$PLUGH_PMD
         2 000722   000000 011000                    NOP     0
         2 000723   000724 710000 2                  TRA     s:5852

      167     5849    3          CASE(ELSE);

      168     5850                                           /* Do nothing if option as yet undefined */
      169     5851    3          END;                             /* Do case */

      170     5852    2        CALL DDB$BREAK ALTRET(ALT);

   5852  2 000724   000002 631400 xsym               EPPR1   B_VECTNIL+2
         2 000725   000000 701000 xent               TSX1    DDB$BREAK
         2 000726   000736 702000 2                  TSX2    ALT

      171     5853    2        RETURN;

   5853  2 000727   200004 221300                    LDX1  ! I+1,,AUTO
         2 000730   000001 702211                    TSX2  ! 1,X1

      172     5854    2   ERR: CALL DDE$ERROR;

   5854  2 000731   000002 631400 xsym  ERR          EPPR1   B_VECTNIL+2
         2 000732   000000 701000 xent               TSX1    DDE$ERROR
         2 000733   000000 011000                    NOP     0
PL6.E3A0      #001=DUA$PMD File=DUA$PMD.:E05TSI                                  TUE 07/29/97 14:48 Page:32

      173     5855    2        RETURN;

   5855  2 000734   200004 221300                    LDX1  ! I+1,,AUTO
         2 000735   000001 702211                    TSX2  ! 1,X1

      174     5856    2   ALT: ALTRETURN;

   5856  2 000736   200004 221300       ALT          LDX1  ! I+1,,AUTO
         2 000737   000000 702211                    TSX2  ! 0,X1

(unnamed)
 Sect OctLoc
   1     000   101125 124117   040050 104123   061051 040040   103117 115115    AUTO (DS1)  COMM
   1     004   117116 040050   104123 062051   104101 124101   040123 105107    ON (DS2)DATA SEG
   1     010   115105 116124   040040 040040   104101 124101   040123 105107    MENT    DATA SEG
   1     014   115105 116124   040070 040040   116157 040104   101124 101040    MENT 8  No DATA
   1     020   160162 145163   145156 164056   116117 040104   101124 101040    present.NO DATA
   1     024   120122 105123   105116 124056   116157 040104   131116 101115    PRESENT.No DYNAM
   1     030   111103 040104   101124 101040   160162 145163   145156 164056    IC DATA present.
   1     034   116117 040104   131116 101115   111103 040104   101124 101040    NO DYNAMIC DATA
   1     040   120122 105123   105116 124056   104131 116101   115111 103040    PRESENT.DYNAMIC
   1     044   104101 124101   112111 124040   116157 040120   122117 103105    DATAJIT No PROCE
   1     050   104125 122105   040160 162145   163145 156164   056040 040040    DURE present.
   1     054   116117 040120   122117 103105   104125 122105   040120 122105    NO PROCEDURE PRE
   1     060   123105 116124   056040 040040   120122 117103   105104 125122    SENT.   PROCEDUR
   1     064   105040 040040   122105 101104   040117 116114   131040 123105    E   READ ONLY SE
   1     070   107115 105116   124040 040040   124103 102040   120114 125107    GMENT   TCB PLUG
   1     074   110040 040040                                                    H

(unnamed)
 Sect OctLoc
   3     000   000000 000771   000000 006000   000000 000764   000002 006000    ................
   3     004   000000 000766   000004 006000   000014 006000   000000 000014    ................
   3     010   000007 006000   000040 040040   000000 000016   000012 006000    .....   ........
   3     014   000100 663100   000000 000020   000030 006000   000014 006000    .@.@............
   3     020   000002 006000   000005 006000   000015 006000   000006 006000    ................
PL6.E3A0      #001=DUA$PMD File=DUA$PMD.:E05TSI                                  TUE 07/29/97 14:48 Page:33
   3     024   001777 776000   000000 000030   000002 006000   000002 006000    ................
   3     030   000025 006000   000003 006000   000005 006000   000030 006000    ................
   3     034   000002 006000   000005 006000   000003 006000   000030 006000    ................
   3     040   000030 006000   000014 006000   000000 000025   000042 006000    ............."..
   3     044   000013 006000   000000 000021   000045 006000   000002 006000    .........%......
   3     050   000005 006000   000005 006000   000030 006000   000030 006000    ................
   3     054   000014 006000   000000 000017   000002 006000   000005 006000    ................
   3     060   000055 006000   000030 006000   000002 006000   000014 006000    .-..............
   3     064   000007 006000                                                    ....
      175     5857    2   END PMD_DOIT;
      176     5858    1   END DUA$PMD;

PL6.E3A0      #001=DUA$PMD File=DUA$PMD.:E05TSI                                  TUE 07/29/97 14:48 Page:34
--  Include file information  --

   B$JIT.:E05TOU  cannot be made into a system file and is referenced.
   B$ROSEG.:E05TOU  cannot be made into a system file and is referenced.
   CP_6.:E05TOU  cannot be made into a system file and is referenced.
   DD$BASED.:E05TOU  is referenced.
   DD_ERR_C.:E05TOU  is referenced.
   DD_PSUBS_C.:E05TOU  is referenced.
   DD_SUBS_C.:E05TOU  is referenced.
   DD_SD_M.:E05TOU  is referenced.
   XUH_MACRO_C.:E05TOU  is referenced.
   B$JIT_C.:E05TOU  was found in the system file and is referenced.
   CP_6_C.:E05TOU  was found in the system file and is referenced.
      No diagnostics issued in procedure DUA$PMD.

   Procedure DUA$PMD requires 480 words for executable code.
   Procedure DUA$PMD requires 18 words of local(AUTO) storage.

    No errors detected in file DUA$PMD.:E05TSI    .
PL6.E3A0      #001=DUA$PMD File=DUA$PMD.:E05TSI                                  TUE 07/29/97 14:48 Page:35
          *** CROSS REFERENCE LISTING ***
**     DENOTES     IDENTIFIER DEFINITION
<<                 IDENTIFIER'S VALUE SET
>>                 IDENTIFIER'S VALUE USED
<>                 IDENTIFIER SET AND/OR USED
--                 IDENTIFIER REFERENCED
PL6.E3A0      #001=DUA$PMD File=DUA$PMD.:E05TSI                                  TUE 07/29/97 14:48 Page:36
          MINI XREF LISTING

ALT IN PROCEDURE PMD_DOIT
      5856**LABEL    5817--CALLALT  5852--CALLALT
ARET IN PROCEDURE PMD_DOIT
      5815**LABEL    5813--CALLALT
B$JIT.CPFLAGS1.SLEAZE IN PROCEDURE PMD_DOIT
      5568**DCL      5568--REDEF
B$JIT.DDLL IN PROCEDURE PMD_DOIT
      5632**DCL      5801>>CALL
B$JIT.DLL IN PROCEDURE PMD_DOIT
      5632**DCL      5790>>CALL
B$JIT.ERR.MID IN PROCEDURE PMD_DOIT
      5475**DCL      5475--REDEF
B$JIT.JRESPEAK IN PROCEDURE PMD_DOIT
      5636**DCL      5637--REDEF
B$JIT.ORIGINATOR_PORT.FROM_CR IN PROCEDURE PMD_DOIT
      5745**DCL      5745--REDEF    5746--REDEF
B$JIT.PCD IN PROCEDURE PMD_DOIT
      5633**DCL      5782>>IF       5790>>CALL
B$JIT.PCDD IN PROCEDURE PMD_DOIT
      5634**DCL      5793>>IF       5801>>CALL
B$JIT.PCP IN PROCEDURE PMD_DOIT
      5633**DCL      5827>>IF       5835>>CALL
B$JIT.PLL IN PROCEDURE PMD_DOIT
      5632**DCL      5835>>CALL
B$JIT.PNR IN PROCEDURE PMD_DOIT
      5649**DCL      5649--REDEF
B$JIT.TSLINE IN PROCEDURE PMD_DOIT
      5743**DCL      5744--REDEF
B$JIT$ IN PROCEDURE PMD_DOIT
      5751**DCL      5469--IMP-PTR  5782>>IF       5790>>CALL     5790>>CALL     5793>>IF       5801>>CALL
      5801>>CALL     5827>>IF       5835>>CALL     5835>>CALL
B$RODCB$ IN PROCEDURE PMD_DOIT
PL6.E3A0      #001=DUA$PMD File=DUA$PMD.:E05TSI                                  TUE 07/29/97 14:48 Page:37
      5444**DCL      5805>>ASSIGN
B$ROS$ IN PROCEDURE PMD_DOIT
      5750**DCL      5804>>DOINDEX  5805>>ASSIGN
B$ROSEG.DCBPTR$ IN PROCEDURE PMD_DOIT
      5408**DCL      5805>>ASSIGN
B$ROSEG.NUMDCBS IN PROCEDURE PMD_DOIT
      5410**DCL      5804>>DOINDEX
BREAK_HIT
      5243**LABEL    5223--CALLALT  5230--CALLALT  5235--CALLALT  5236--CALLALT  5237--CALLALT  5240--CALLALT
DCB$ IN PROCEDURE PMD_DOIT
      5253**DCL      5254--REDEF    5805<<ASSIGN   5806>>IF       5813>>CALL     5813>>CALL
DCBADR.ADR IN PROCEDURE PMD_DOIT
      5255**DCL      5812>>ASSIGN
DDA$DUMP IN PROCEDURE PMD_DOIT
      5756**DCL-ENT  5778--CALL     5790--CALL     5801--CALL     5813--CALL     5825--CALL     5835--CALL
      5840--CALL     5844--CALL
DDA$PLUGH_PMD
      5218**DCL-ENT  5848--CALL
DDB$BREAK IN PROCEDURE PMD_DOIT
      5752**DCL-ENT  5817--CALL     5852--CALL
DDE$ERROR IN PROCEDURE PMD_DOIT
      5757**DCL-ENT  5815--CALL     5854--CALL
DDQ$WRITE IN PROCEDURE PMD_DOIT
      5753**DCL-ENT  5764--CALL     5768--CALL     5777--CALL     5785--CALL     5789--CALL     5796--CALL
      5800--CALL     5811--CALL     5824--CALL     5830--CALL     5834--CALL     5839--CALL     5843--CALL
      5847--CALL
DDQ$WRTOF IN PROCEDURE PMD_DOIT
      5754**DCL-ENT  5760--CALL     5808--CALL
DUA$UNFID IN PROCEDURE PMD_DOIT
      5755**DCL-ENT  5809--CALL
DUMP_DS IN PROCEDURE PMD_DOIT
      5778**LABEL    5765--GOTO     5769--GOTO
ERR IN PROCEDURE PMD_DOIT
      5854**LABEL    5778--CALLALT  5790--CALLALT  5801--CALLALT  5825--CALLALT  5835--CALLALT  5840--CALLALT
      5844--CALLALT
F$DCB IN PROCEDURE PMD_DOIT
PL6.E3A0      #001=DUA$PMD File=DUA$PMD.:E05TSI                                  TUE 07/29/97 14:48 Page:38
      5341**DCL      5813--CALL
F$DCB.ACTPOS IN PROCEDURE PMD_DOIT
      5373**DCL      5373--REDEF
F$DCB.ARS# IN PROCEDURE PMD_DOIT
      5347**DCL      5347--REDEF
F$DCB.ATTR IN PROCEDURE PMD_DOIT
      5366**DCL      5367--REDEF
F$DCB.BORROW IN PROCEDURE PMD_DOIT
      5381**DCL      5381--REDEF    5381--REDEF    5381--REDEF
F$DCB.DCBNAME.L IN PROCEDURE PMD_DOIT
      5395**DCL      5395--IMP-SIZ  5813>>CALL
F$DCB.EOMCHAR# IN PROCEDURE PMD_DOIT
      5351**DCL      5351--REDEF
F$DCB.FLDID IN PROCEDURE PMD_DOIT
      5376**DCL      5376--REDEF
F$DCB.FORM$ IN PROCEDURE PMD_DOIT
      5370**DCL      5370--REDEF
F$DCB.FSECT IN PROCEDURE PMD_DOIT
      5386**DCL      5386--REDEF
F$DCB.FSN# IN PROCEDURE PMD_DOIT
      5363**DCL      5363--REDEF    5363--REDEF    5364--REDEF
F$DCB.HEADER$ IN PROCEDURE PMD_DOIT
      5369**DCL      5369--REDEF
F$DCB.IXTNSIZE# IN PROCEDURE PMD_DOIT
      5367**DCL      5367--REDEF
F$DCB.LASTSTA$ IN PROCEDURE PMD_DOIT
      5356**DCL      5356--REDEF
F$DCB.LVL IN PROCEDURE PMD_DOIT
      5382**DCL      5382--REDEF
F$DCB.NAME#.C IN PROCEDURE PMD_DOIT
      5357**DCL      5357--REDEF
F$DCB.NOEOF IN PROCEDURE PMD_DOIT
      5379**DCL      5379--REDEF
F$DCB.NRECS# IN PROCEDURE PMD_DOIT
      5368**DCL      5368--REDEF
F$DCB.NRECX IN PROCEDURE PMD_DOIT
PL6.E3A0      #001=DUA$PMD File=DUA$PMD.:E05TSI                                  TUE 07/29/97 14:48 Page:39
      5387**DCL      5387--REDEF
F$DCB.OHDR IN PROCEDURE PMD_DOIT
      5379**DCL      5379--REDEF
F$DCB.ORG# IN PROCEDURE PMD_DOIT
      5362**DCL      5362--REDEF
F$DCB.PRECNO IN PROCEDURE PMD_DOIT
      5385**DCL      5385--REDEF
F$DCB.RCSZ IN PROCEDURE PMD_DOIT
      5391**DCL      5391--REDEF
F$DCB.RES# IN PROCEDURE PMD_DOIT
      5358**DCL      5358--REDEF
F$DCB.SETX IN PROCEDURE PMD_DOIT
      5370**DCL      5370--REDEF
F$DCB.TAB$ IN PROCEDURE PMD_DOIT
      5370**DCL      5370--REDEF
F$DCB.TDA IN PROCEDURE PMD_DOIT
      5384**DCL      5385--REDEF
F$DCB.WSN# IN PROCEDURE PMD_DOIT
      5358**DCL      5358--REDEF
I
        13**DCL      5222<<DOINDEX  5223<>CALL     5229<<DOINDEX  5230<>CALL     5239<<DOINDEX  5240>>IF
      5240<>CALL
I IN PROCEDURE PMD_DOIT
      5257**DCL      5250--PROC     5761>>DOCASE   5776>>CALLBLT  5778>>CALL
J IN PROCEDURE PMD_DOIT
      5252**DCL      5804<<DOINDEX  5805>>ASSIGN   5808>>IF       5809<>CALL
OUT$ IN PROCEDURE PMD_DOIT
      5258**DCL      5759<<ASSIGN   5764<>CALL     5768<>CALL     5777<>CALL     5785<>CALL     5789<>CALL
      5796<>CALL     5800<>CALL     5811<>CALL     5824<>CALL     5830<>CALL     5834<>CALL     5839<>CALL
      5843<>CALL     5847<>CALL
PMD$CMD.L6_OPTIONS
      5207**DCL      5208--REDEF
PMD$CMD.OPTARRY
      5214**DCL      5215--REDEF    5220>>IF       5227>>IF       5233>>IF       5240>>IF
PMD_DOIT
      5250**PROC     5223--CALL     5230--CALL     5235--CALL     5236--CALL     5237--CALL     5240--CALL
PL6.E3A0      #001=DUA$PMD File=DUA$PMD.:E05TSI                                  TUE 07/29/97 14:48 Page:40
S_D.CURRENT_CHANNEL
      2387**DCL      2389--REDEF
S_D.DEBUGA
      1539**DCL      1541--REDEF
S_D.DO$
      1490**DCL      5220>>IF       5227>>IF       5233>>IF       5240>>IF
S_D.EIS
      2497**DCL      2526--REDEF
S_D.HOST_MESSAGE_BUF_REMOTE
      2430**DCL      2431--REDEF    2445--REDEF
S_D.JDE
      2044**DCL      2045--REDEF
S_D.L$.VALUE
      1597**DCL      1603--REDEF    1611--REDEF    1614--REDEF    1617--REDEF    1620--REDEF
S_D.L$.VALUE.L
      1598**DCL      1599--REDEF    1600--REDEF
S_D.L6_MESSAGE_BUF
      2451**DCL      2453--REDEF
S_D.OUTPUT
      2417**DCL      2419--REDEF    5759--ASSIGN   5763<<ASSIGN   5767<<ASSIGN   5776<<CALLBLT  5784<<ASSIGN
      5788<<ASSIGN   5795<<ASSIGN   5799<<ASSIGN   5810<<ASSIGN   5823<<ASSIGN   5829<<ASSIGN   5833<<ASSIGN
      5838<<ASSIGN   5842<<ASSIGN   5846<<ASSIGN
S_D.REMOTE_MSG.FNCC
      2436**DCL      2437--REDEF
S_D.REMOTE_MSG.STXC
      2432**DCL      2433--REDEF
S_D.REMOTE_MSG.SUBFNCC
      2440**DCL      2441--REDEF
S_D.SV
      1496**DCL      1517--REDEF
S_D$
      2748**DCL      1444--IMP-PTR  5220>>IF       5227>>IF       5233>>IF       5240>>IF       5759>>ASSIGN
      5763>>ASSIGN   5767>>ASSIGN   5776>>CALLBLT  5784>>ASSIGN   5788>>ASSIGN   5795>>ASSIGN   5799>>ASSIGN
      5810>>ASSIGN   5823>>ASSIGN   5829>>ASSIGN   5833>>ASSIGN   5838>>ASSIGN   5842>>ASSIGN   5846>>ASSIGN
TEMP IN PROCEDURE PMD_DOIT
      5251**DCL      5812<<ASSIGN   5813<>CALL
PL6.E3A0      #001=DUA$PMD File=DUA$PMD.:E05TSI                                  TUE 07/29/97 14:48 Page:41
              *** CROSS REFERENCE LISTING ***
    **     DENOTES     IDENTIFIER DEFINITION
    <<                 IDENTIFIER'S VALUE SET
    >>                 IDENTIFIER'S VALUE USED
    <>                 IDENTIFIER SET AND/OR USED
    --                 IDENTIFIER REFERENCED
PL6.E3A0      #001=DUA$PMD File=DUA$PMD.:E05TSI                                  TUE 07/29/97 14:48 Page:42
              MINI UREF LISTING

B$ROAVAIL IN PROCEDURE PMD_DOIT   5447**DCL
DUA$PMD      12**PROC
M$ACCT IN PROCEDURE PMD_DOIT   5285**DCL-ENT
M$ACTIVATE IN PROCEDURE PMD_DOIT   5288**DCL-ENT
M$ALIB IN PROCEDURE PMD_DOIT   5281**DCL-ENT
M$ASUSER IN PROCEDURE PMD_DOIT   5283**DCL-ENT
M$ATTACH IN PROCEDURE PMD_DOIT   5290**DCL-ENT
M$BADPP IN PROCEDURE PMD_DOIT   5308**DCL-ENT
M$CGCTL IN PROCEDURE PMD_DOIT   5289**DCL-ENT
M$CGINFO IN PROCEDURE PMD_DOIT   5289**DCL-ENT
M$CHECK IN PROCEDURE PMD_DOIT   5270**DCL-ENT
M$CHGUNIT IN PROCEDURE PMD_DOIT   5328**DCL-ENT
M$CLOSE IN PROCEDURE PMD_DOIT   5268**DCL-ENT
M$CLRSTK IN PROCEDURE PMD_DOIT   5326**DCL-ENT
M$CMDVAR IN PROCEDURE PMD_DOIT   5337**DCL-ENT
M$CONFIG IN PROCEDURE PMD_DOIT   5298**DCL-ENT
M$CORRES IN PROCEDURE PMD_DOIT   5273**DCL-ENT
M$CPEXIT IN PROCEDURE PMD_DOIT   5282**DCL-ENT
M$CVM IN PROCEDURE PMD_DOIT   5306**DCL-ENT
M$CVOL IN PROCEDURE PMD_DOIT   5271**DCL-ENT
M$DCLFLD IN PROCEDURE PMD_DOIT   5298**DCL-ENT
M$DEACTIVATE IN PROCEDURE PMD_DOIT   5288**DCL-ENT
M$DELREC IN PROCEDURE PMD_DOIT   5270**DCL-ENT
M$DEQ IN PROCEDURE PMD_DOIT   5335**DCL-ENT
M$DETACH IN PROCEDURE PMD_DOIT   5290**DCL-ENT
M$DEVICE IN PROCEDURE PMD_DOIT   5272**DCL-ENT
M$DISPLAY IN PROCEDURE PMD_DOIT   5335**DCL-ENT
M$DISPRES IN PROCEDURE PMD_DOIT   5275**DCL-ENT
M$DLIB IN PROCEDURE PMD_DOIT   5281**DCL-ENT
M$DRIBBLE IN PROCEDURE PMD_DOIT   5298**DCL-ENT
M$DRTN IN PROCEDURE PMD_DOIT   5326**DCL-ENT
M$DSUSER IN PROCEDURE PMD_DOIT   5283**DCL-ENT
PL6.E3A0      #001=DUA$PMD File=DUA$PMD.:E05TSI                                  TUE 07/29/97 14:48 Page:43
M$ENQ IN PROCEDURE PMD_DOIT   5334**DCL-ENT
M$EOM IN PROCEDURE PMD_DOIT   5293**DCL-ENT
M$ERASE IN PROCEDURE PMD_DOIT   5299**DCL-ENT
M$ERR IN PROCEDURE PMD_DOIT   5280**DCL-ENT
M$ERRMSG IN PROCEDURE PMD_DOIT   5331**DCL-ENT
M$EVENT IN PROCEDURE PMD_DOIT   5323**DCL-ENT
M$EXHUME IN PROCEDURE PMD_DOIT   5332**DCL-ENT
M$EXIT IN PROCEDURE PMD_DOIT   5280**DCL-ENT
M$EXTEND IN PROCEDURE PMD_DOIT   5272**DCL-ENT
M$FDP IN PROCEDURE PMD_DOIT   5304**DCL-ENT
M$FDS IN PROCEDURE PMD_DOIT   5303**DCL-ENT
M$FEBOOT IN PROCEDURE PMD_DOIT   5296**DCL-ENT
M$FECTL IN PROCEDURE PMD_DOIT   5297**DCL-ENT
M$FEDUMP IN PROCEDURE PMD_DOIT   5296**DCL-ENT
M$FID IN PROCEDURE PMD_DOIT   5331**DCL-ENT
M$FINDPROC IN PROCEDURE PMD_DOIT   5285**DCL-ENT
M$FSUSER IN PROCEDURE PMD_DOIT   5283**DCL-ENT
M$FVP IN PROCEDURE PMD_DOIT   5305**DCL-ENT
M$FWCG IN PROCEDURE PMD_DOIT   5289**DCL-ENT
M$GBPL IN PROCEDURE PMD_DOIT   5309**DCL-ENT
M$GDDL IN PROCEDURE PMD_DOIT   5305**DCL-ENT
M$GDP IN PROCEDURE PMD_DOIT   5304**DCL-ENT
M$GDS IN PROCEDURE PMD_DOIT   5303**DCL-ENT
M$GETDCB IN PROCEDURE PMD_DOIT   5274**DCL-ENT
M$GETMOUSE IN PROCEDURE PMD_DOIT   5314**DCL-ENT
M$GETPM IN PROCEDURE PMD_DOIT   5315**DCL-ENT
M$GJOB IN PROCEDURE PMD_DOIT   5333**DCL-ENT
M$GLINEATTR IN PROCEDURE PMD_DOIT   5293**DCL-ENT
M$GOODPP IN PROCEDURE PMD_DOIT   5308**DCL-ENT
M$GPLATEN IN PROCEDURE PMD_DOIT   5301**DCL-ENT
M$GPROMPT IN PROCEDURE PMD_DOIT   5300**DCL-ENT
M$GTRMATTR IN PROCEDURE PMD_DOIT   5294**DCL-ENT
M$GTRMCTL IN PROCEDURE PMD_DOIT   5292**DCL-ENT
M$GTRMTAB IN PROCEDURE PMD_DOIT   5295**DCL-ENT
M$GVP IN PROCEDURE PMD_DOIT   5304**DCL-ENT
M$HELP IN PROCEDURE PMD_DOIT   5331**DCL-ENT
PL6.E3A0      #001=DUA$PMD File=DUA$PMD.:E05TSI                                  TUE 07/29/97 14:48 Page:44
M$INT IN PROCEDURE PMD_DOIT   5323**DCL-ENT
M$INTRTN IN PROCEDURE PMD_DOIT   5284**DCL-ENT
M$IOQ IN PROCEDURE PMD_DOIT   5319**DCL-ENT
M$JOBSTATS IN PROCEDURE PMD_DOIT   5333**DCL-ENT
M$KEYIN IN PROCEDURE PMD_DOIT   5273**DCL-ENT
M$LDEV IN PROCEDURE PMD_DOIT   5268**DCL-ENT
M$LDTRC IN PROCEDURE PMD_DOIT   5281**DCL-ENT
M$LIMIT IN PROCEDURE PMD_DOIT   5274**DCL-ENT
M$LINES IN PROCEDURE PMD_DOIT   5273**DCL-ENT
M$LINK IN PROCEDURE PMD_DOIT   5280**DCL-ENT
M$MADMUCK IN PROCEDURE PMD_DOIT   5276**DCL-ENT
M$MAKUSER IN PROCEDURE PMD_DOIT   5307**DCL-ENT
M$MBS IN PROCEDURE PMD_DOIT   5275**DCL-ENT
M$MDFFLD IN PROCEDURE PMD_DOIT   5299**DCL-ENT
M$MERC IN PROCEDURE PMD_DOIT   5324**DCL-ENT
M$MERCS IN PROCEDURE PMD_DOIT   5325**DCL-ENT
M$MIRROR IN PROCEDURE PMD_DOIT   5319**DCL-ENT
M$MONINFO IN PROCEDURE PMD_DOIT   5336**DCL-ENT
M$MPL IN PROCEDURE PMD_DOIT   5309**DCL-ENT
M$NODEINFO IN PROCEDURE PMD_DOIT   5300**DCL-ENT
M$NXTUSR IN PROCEDURE PMD_DOIT   5334**DCL-ENT
M$OCMSG IN PROCEDURE PMD_DOIT   5332**DCL-ENT
M$OLAY IN PROCEDURE PMD_DOIT   5280**DCL-ENT
M$OPEN IN PROCEDURE PMD_DOIT   5268**DCL-ENT
M$PAS IN PROCEDURE PMD_DOIT   5309**DCL-ENT
M$PATHCON IN PROCEDURE PMD_DOIT   5332**DCL-ENT
M$PDS IN PROCEDURE PMD_DOIT   5303**DCL-ENT
M$PFIL IN PROCEDURE PMD_DOIT   5270**DCL-ENT
M$PLATEN IN PROCEDURE PMD_DOIT   5294**DCL-ENT
M$PRECORD IN PROCEDURE PMD_DOIT   5272**DCL-ENT
M$PROCNAME IN PROCEDURE PMD_DOIT   5285**DCL-ENT
M$PROFILE IN PROCEDURE PMD_DOIT   5296**DCL-ENT
M$PROMPT IN PROCEDURE PMD_DOIT   5292**DCL-ENT
M$RACST IN PROCEDURE PMD_DOIT   5276**DCL-ENT
M$RDSYSLOG IN PROCEDURE PMD_DOIT   5317**DCL-ENT
M$READ IN PROCEDURE PMD_DOIT   5269**DCL-ENT
PL6.E3A0      #001=DUA$PMD File=DUA$PMD.:E05TSI                                  TUE 07/29/97 14:48 Page:45
M$RELDCB IN PROCEDURE PMD_DOIT   5274**DCL-ENT
M$RELRES IN PROCEDURE PMD_DOIT   5275**DCL-ENT
M$RELSTARF IN PROCEDURE PMD_DOIT   5277**DCL-ENT
M$REM IN PROCEDURE PMD_DOIT   5277**DCL-ENT
M$RENV IN PROCEDURE PMD_DOIT   5324**DCL-ENT
M$REQUIRE IN PROCEDURE PMD_DOIT   5276**DCL-ENT
M$RETRY IN PROCEDURE PMD_DOIT   5325**DCL-ENT
M$RETRYS IN PROCEDURE PMD_DOIT   5325**DCL-ENT
M$REW IN PROCEDURE PMD_DOIT   5271**DCL-ENT
M$RLSFLD IN PROCEDURE PMD_DOIT   5299**DCL-ENT
M$RPRIV IN PROCEDURE PMD_DOIT   5327**DCL-ENT
M$RSPP IN PROCEDURE PMD_DOIT   5306**DCL-ENT
M$RSWITCH IN PROCEDURE PMD_DOIT   5328**DCL-ENT
M$RUE IN PROCEDURE PMD_DOIT   5334**DCL-ENT
M$SAD IN PROCEDURE PMD_DOIT   5307**DCL-ENT
M$SAVE IN PROCEDURE PMD_DOIT   5283**DCL-ENT
M$SCON IN PROCEDURE PMD_DOIT   5284**DCL-ENT
M$SCREECH IN PROCEDURE PMD_DOIT   5282**DCL-ENT
M$SENV IN PROCEDURE PMD_DOIT   5324**DCL-ENT
M$SETFMA IN PROCEDURE PMD_DOIT   5268**DCL-ENT
M$SETFP IN PROCEDURE PMD_DOIT   5297**DCL-ENT
M$SINPUT IN PROCEDURE PMD_DOIT   5295**DCL-ENT
M$SLCFLD IN PROCEDURE PMD_DOIT   5300**DCL-ENT
M$SMOUSE IN PROCEDURE PMD_DOIT   5314**DCL-ENT
M$SMPRT IN PROCEDURE PMD_DOIT   5306**DCL-ENT
M$SPRIV IN PROCEDURE PMD_DOIT   5327**DCL-ENT
M$SSC IN PROCEDURE PMD_DOIT   5307**DCL-ENT
M$SSWITCH IN PROCEDURE PMD_DOIT   5327**DCL-ENT
M$STATE IN PROCEDURE PMD_DOIT   5336**DCL-ENT
M$STD IN PROCEDURE PMD_DOIT   5308**DCL-ENT
M$STIMER IN PROCEDURE PMD_DOIT   5322**DCL-ENT
M$STLPP IN PROCEDURE PMD_DOIT   5305**DCL-ENT
M$STRAP IN PROCEDURE PMD_DOIT   5322**DCL-ENT
M$STRMATTR IN PROCEDURE PMD_DOIT   5294**DCL-ENT
M$STRMCTL IN PROCEDURE PMD_DOIT   5292**DCL-ENT
M$STRMTAB IN PROCEDURE PMD_DOIT   5295**DCL-ENT
PL6.E3A0      #001=DUA$PMD File=DUA$PMD.:E05TSI                                  TUE 07/29/97 14:48 Page:46
M$SYMBIO IN PROCEDURE PMD_DOIT   5333**DCL-ENT
M$SYSCON IN PROCEDURE PMD_DOIT   5319**DCL-ENT
M$SYSID IN PROCEDURE PMD_DOIT   5337**DCL-ENT
M$TDCLOSE IN PROCEDURE PMD_DOIT   5318**DCL-ENT
M$TDIO IN PROCEDURE PMD_DOIT   5318**DCL-ENT
M$TDOPEN IN PROCEDURE PMD_DOIT   5317**DCL-ENT
M$TDREQCPU IN PROCEDURE PMD_DOIT   5318**DCL-ENT
M$TEMPWROC IN PROCEDURE PMD_DOIT   5312**DCL-ENT
M$TIME IN PROCEDURE PMD_DOIT   5335**DCL-ENT
M$TRAP IN PROCEDURE PMD_DOIT   5322**DCL-ENT
M$TRMISC IN PROCEDURE PMD_DOIT   5297**DCL-ENT
M$TRMPRG IN PROCEDURE PMD_DOIT   5293**DCL-ENT
M$TRTN IN PROCEDURE PMD_DOIT   5326**DCL-ENT
M$TRUNC IN PROCEDURE PMD_DOIT   5269**DCL-ENT
M$TTIMER IN PROCEDURE PMD_DOIT   5322**DCL-ENT
M$UC IN PROCEDURE PMD_DOIT   5292**DCL
M$UMPL IN PROCEDURE PMD_DOIT   5309**DCL-ENT
M$UNFID IN PROCEDURE PMD_DOIT   5331**DCL-ENT
M$UNLATCH IN PROCEDURE PMD_DOIT   5288**DCL-ENT
M$UNSHARE IN PROCEDURE PMD_DOIT   5285**DCL-ENT
M$USRFIELD IN PROCEDURE PMD_DOIT   5328**DCL-ENT
M$VIRTUAL IN PROCEDURE PMD_DOIT   5303**DCL-ENT
M$WAIT IN PROCEDURE PMD_DOIT   5326**DCL-ENT
M$WEOF IN PROCEDURE PMD_DOIT   5271**DCL-ENT
M$WRITE IN PROCEDURE PMD_DOIT   5269**DCL-ENT
M$WRSYSLOG IN PROCEDURE PMD_DOIT   5317**DCL-ENT
M$XCON IN PROCEDURE PMD_DOIT   5323**DCL-ENT
M$XCONRTN IN PROCEDURE PMD_DOIT   5284**DCL-ENT
M$XEQTIME IN PROCEDURE PMD_DOIT   5336**DCL-ENT
M$XFLUSH IN PROCEDURE PMD_DOIT   5277**DCL-ENT
M$XMOUSE IN PROCEDURE PMD_DOIT   5314**DCL-ENT
M$XXX IN PROCEDURE PMD_DOIT   5280**DCL-ENT
M$YC IN PROCEDURE PMD_DOIT   5282**DCL-ENT
