VERSION E05

PL6.E3A0      #001=DUA$UNFID File=DUA$UNFID.:E05TSI                              TUE 07/29/97 14:49 Page:1
        1        1        /*M* DUA$UNFID - CALLS M$UNFID TO FORMAT DCB NAME AND STATUS */
        2        2        /*T***********************************************************/
        3        3        /*T*                                                         */
        4        4        /*T* Copyright (c) Bull HN Information Systems Inc., 1997    */
        5        5        /*T*                                                         */
        6        6        /*T***********************************************************/
        7        7        /*X* CCC,DMR,PLM=5,IND=5,CSU=3,EXM=0,ECU=3,MOC,DCI=5,CRT=5 */
        8        8        %SET LISTSUB='1'B;
        9        9        /*P* NAME: DUA$UNFID
       10       10             PURPOSE:  FORMATS DCB NAME, ASSIGNMENT, AND STATUS FOR UNFID DIRECTIVE
       11       11                  AND PMD.
       12       12        */
       13       13        DUA$UNFID: PROC(DCB#,OPEN,CLOSED) ALTRET;
       14       14                                                /**/
       15       15    1   DCL DCB# UBIN;
       16       16    1   DCL OPEN BIT(1) ALIGNED;
       17       17    1   DCL CLOSED BIT(1) ALIGNED;
       18       18    1   DCL TEMP UBIN;
       19       19    1   DCL BB$ PTR;
       20       20    1   DCL REM UBIN;
       21       21    1   DCL DCB$ PTR;
       22       22        %INCLUDE CP_6;
       23      103        %INCLUDE B$ROSEG;
       24      166        %FPT_UNFID (FPTN=FPT_UNFID, STCLASS=CONSTANT);
       25      184        %FPT_UNFID (FPTN=FPT$UNFID, STCLASS=AUTO);
       26      202        %F$DCB;
       27      259    1   DCL CHAR2000 CHAR(2000) BASED;
       28      260    1   DCL CHAR1 CHAR(1) BASED;
       29      261    1   DCL CHAR2 CHAR(2) BASED;
       30      262    1   DCL CHAR32 CHAR(32) BASED;
       31      263        %INCLUDE CP_6_SUBS;
       32      803        %INCLUDE DD_ERR_C;
       33     1200        %INCLUDE XUH_MACRO_C;
       34     1284        %INCLUDE DD_SD_M;
       35     2620        %S_D;
       36     3938    1   DCL B$ROS$ PTR SYMREF;
       37     3939    1   DCL DDE$ERROR ENTRY;
PL6.E3A0      #001=DUA$UNFID File=DUA$UNFID.:E05TSI                              TUE 07/29/97 14:49 Page:2
       38     3940    1   DCL DDR$MOVE ENTRY(4) ALTRET;
       39     3941    1   DCL DDQ$WRITE ENTRY(2);
       40     3942    1   DCL DUE$ERRMSG ENTRY;
       41     3943                                                /**/
       42     3944    1        IF S_D.RUM OR S_D.ANLZ
       43     3945    2        THEN DO;
       44     3946    2             S_D.ERROR = 34;         /* E@NOTYET */
       45     3947    2             GOTO ALT;
       46     3948    2           END;
       47     3949    1        DCB$ = B$ROS$->B$ROSEG.DCBPTR$->B$RODCB$(DCB#);
       48     3950    1        IF DCB$ = ADDR(NIL)
       49     3951    2        THEN DO;
       50     3952    2             S_D.ERROR = 502;         /* E@DELBUG */
       51     3953    2             CALL DDE$ERROR;
       52     3954    2             GOTO ALT;
       53     3955    2           END;
       54     3956    1        S_D.OUTPUT = 'DCB #';
       55     3957    1        BB$ = PINCRC(ADDR(S_D.OUTPUT), 5);
       56     3958    1        IF DCB# < 10
       57     3959    2        THEN DO;
       58     3960    2             CALL BINCHAR(BB$->CHAR1, DCB#);
       59     3961    2             BB$ = PINCRC(BB$, 2);
       60     3962    2           END;
       61     3963    2        ELSE DO;
       62     3964    2             CALL BINCHAR(BB$->CHAR2, DCB#);
       63     3965    2             BB$ = PINCRC(BB$, 3);
       64     3966    2           END;
       65     3967    1        BB$->CHAR32 = DCB$->F$DCB.DCBNAME.N;
       66     3968    1        BB$ = PINCRC(BB$, DCB$->F$DCB.DCBNAME.L);
       67     3969    1        IF DCB$->F$DCB.DCBNAME.L > 0
       68     3970    2        THEN DO;
       69     3971    2             BB$->CHAR1 = ' ';
       70     3972    2             BB$ = PINCRC(BB$, 1);
       71     3973    2           END;
       72     3974    1        FPT$UNFID = FPT_UNFID;
       73     3975    1        FPT$UNFID.V_ = VECTOR(FPT$UNFID.V);
       74     3976    1        FPT$UNFID.TEXTFID_ = VECTOR(BB$->CHAR2000);
PL6.E3A0      #001=DUA$UNFID File=DUA$UNFID.:E05TSI                              TUE 07/29/97 14:49 Page:3
       75     3977    1        FPT$UNFID.V.DCB# = DCB#;
       76     3978    1        CALL M$UNFID(FPT$UNFID) ALTRET(EALT);
       77     3979    1        CALL INDEX(TEMP, '  ', S_D.OUTPUT);
       78     3980    1        BB$ = PINCRC(ADDR(S_D.OUTPUT), TEMP+1);
       79     3981    1        REM = 120;
       80     3982    1        IF DCB$->F$DCB.FCD#
       81     3983    2        THEN DO;
       82     3984    2             IF ADDR(OPEN) ~= ADDR(NIL) THEN IF NOT OPEN THEN RETURN;
       83     3985    2             CALL DDR$MOVE('(OPEN, ', 7, BB$, REM);
       84     3986    2           END;
       85     3987    2        ELSE DO;
       86     3988    2             IF ADDR(CLOSED) ~= ADDR(NIL) THEN IF NOT CLOSED THEN RETURN;
       87     3989    2             CALL DDR$MOVE('(CLOSED, ', 9, BB$, REM);
       88     3990    2             IF DCB$->F$DCB.FCI#
       89     3991    2             THEN CALL DDR$MOVE('WAS OPEN, ', LENGTHC('WAS OPEN, '), BB$, REM);
       90     3992    2             ELSE CALL DDR$MOVE('NEVER OPEN, ', LENGTHC('NEVER OPEN, '), BB$, REM);
       91     3993    2           END;
       92     3994    2        DO CASE(DCB$->F$DCB.FUN#);
       93     3995    2          CASE(%UPDATE#);
       94     3996    2             CALL DDR$MOVE('UPDATE, ', 8, BB$, REM);
       95     3997    2          CASE(%IN#);
       96     3998    2             CALL DDR$MOVE('IN, ', 4, BB$, REM);
       97     3999    2          CASE(%CREATE#);
       98     4000    2             CALL DDR$MOVE('CREATE, ', 8, BB$, REM);
       99     4001    2          CASE(ELSE);
      100     4002    2             CALL DDR$MOVE('?, ', 3, BB$, REM);
      101     4003    2          END;
      102     4004    2        DO CASE(DCB$->F$DCB.ORG#);
      103     4005    2          CASE(%CONSEC#);
      104     4006    2             CALL DDR$MOVE('CONSEC)', LENGTHC('CONSEC)'), BB$, REM);
      105     4007    2          CASE(%KEYED#);
      106     4008    2             CALL DDR$MOVE('KEYED)', LENGTHC('KEYED)'), BB$, REM);
      107     4009    2          CASE(%RANDOM#);
      108     4010    2             CALL DDR$MOVE('RANDOM)', LENGTHC('RANDOM)'), BB$, REM);
      109     4011    2          CASE(%UR#);
      110     4012    2             CALL DDR$MOVE('UR)', LENGTHC('UR)'), BB$, REM);
      111     4013    2          CASE(%RELATIVE#);
PL6.E3A0      #001=DUA$UNFID File=DUA$UNFID.:E05TSI                              TUE 07/29/97 14:49 Page:4
      112     4014    2             CALL DDR$MOVE('RELATIVE)', LENGTHC('RELATIVE)'), BB$, REM);
      113     4015    2          CASE(%INDEXED#);
      114     4016    2             CALL DDR$MOVE('INDEXED)', LENGTHC('INDEXED)'), BB$, REM);
      115     4017    2          CASE(%IDS#);
      116     4018    2             CALL DDR$MOVE('IDS)', LENGTHC('IDS)'), BB$, REM);
      117     4019    2          CASE(%FIXED#);
      118     4020    2             CALL DDR$MOVE('FIXED)', LENGTHC('FIXED)'), BB$, REM);
      119     4021    2          CASE(%VARIABLE#);
      120     4022    2             CALL DDR$MOVE('VARIABLE)', LENGTHC('VARIABLE)'), BB$, REM);
      121     4023    2          CASE(%UNDEF#);
      122     4024    2             CALL DDR$MOVE('UNDEF)', LENGTHC('UNDEF)'), BB$, REM);
      123     4025    2          CASE(%RESTRICT#);
      124     4026    2             CALL DDR$MOVE('RESTRICT)', LENGTHC('RESTRICT)'), BB$, REM);
      125     4027    2          CASE(%FREE#);
      126     4028    2             CALL DDR$MOVE('FREE)', LENGTHC('FREE)'), BB$, REM);
      127     4029    2          CASE(%TERMINAL#);
      128     4030    2             CALL DDR$MOVE('TERMINAL)', LENGTHC('TERMINAL)'), BB$, REM);
      129     4031    2          CASE(%SYMB#);
      130     4032    2             CALL DDR$MOVE('SYMBIONT)', LENGTHC('SYMBIONT)'), BB$, REM);
      131     4033    2          CASE(%FPRG#);
      132     4034    2             CALL DDR$MOVE('FORMS PROGRAM)', LENGTHC('FORMS PROGRAM)'), BB$, REM);
      133     4035    2          CASE(%CG#);
      134     4036    2             CALL DDR$MOVE('COMGROUP)', LENGTHC('COMGROUP)'), BB$, REM);
      135     4037    2          CASE(%HANDLER#);
      136     4038    2             CALL DDR$MOVE('HANDLER)', LENGTHC('HANDLER)'), BB$, REM);
      137     4039    2          CASE(%IREL#);
      138     4040    2             CALL DDR$MOVE('IREL)', LENGTHC('IREL)'), BB$, REM);
      139     4041    2          CASE(%DBGDCB#);
      140     4042    2             CALL DDR$MOVE('DBGDCB)', LENGTHC('DBGDCB)'), BB$, REM);
      141     4043    2          CASE(%DBGCG#);
      142     4044    2             CALL DDR$MOVE('DBGCG)', LENGTHC('DBGCG)'), BB$, REM);
      143     4045    2          CASE(%DBGSYSID#);
      144     4046    2             CALL DDR$MOVE('DBGSYSID)', LENGTHC('DBGSYSID)'), BB$, REM);
      145     4047    2          CASE(%SE#);
      146     4048    2             CALL DDR$MOVE('SE)', LENGTHC('SE)'), BB$, REM);
      147     4049    2          CASE(%X364#);
      148     4050    2             CALL DDR$MOVE('X364)', LENGTHC('X364'), BB$, REM);
PL6.E3A0      #001=DUA$UNFID File=DUA$UNFID.:E05TSI                              TUE 07/29/97 14:49 Page:5
      149     4051    2          CASE(%FORM#);
      150     4052    2             CALL DDR$MOVE('FORM)', LENGTHC('FORM)'), BB$, REM);
      151     4053    2          CASE(ELSE);
      152     4054    2             CALL DDR$MOVE('?)', LENGTHC('?)'), BB$, REM);
      153     4055    2          END;
      154     4056    1        CALL DDQ$WRITE(ADDR(S_D.OUTPUT), POFFC(BB$, ADDR(S_D.OUTPUT))+8);
      155     4057    1        RETURN;
      156     4058    1   ALT: ALTRETURN;
      157     4059    1   EALT: CALL DUE$ERRMSG;
      158     4060    1        RETURN;
      159     4061    1   END DUA$UNFID;

PL6.E3A0      #001=DUA$UNFID File=DUA$UNFID.:E05TSI                              TUE 07/29/97 14:49 Page:6
--  Include file information  --

   DD_SD_M.:E05TOU  is referenced.
   XUH_MACRO_C.:E05TOU  is referenced.
   DD_ERR_C.:E05TOU  is referenced.
   CP_6_SUBS.:E05TOU  is referenced.
   B$ROSEG.:E05TOU  cannot be made into a system file and is referenced.
   CP_6.:E05TOU  cannot be made into a system file and is referenced.
   B$JIT_C.:E05TOU  was found in the system file and is never referenced.
   CP_6_C.:E05TOU  was found in the system file and is referenced.
      No diagnostics issued in procedure DUA$UNFID.

   Procedure DUA$UNFID requires 559 words for executable code.
   Procedure DUA$UNFID requires 38 words of local(AUTO) storage.

    No errors detected in file DUA$UNFID.:E05TSI    .

PL6.E3A0      #001=DUA$UNFID File=DUA$UNFID.:E05TSI                              TUE 07/29/97 14:49 Page:7

 Object Unit name= DUA$UNFID                                  File name= DUA$UNFID.:E05TOU
 UTS= JUL 29 '97 14:49:47.84 TUE                              Compiler= PL-6/E31         Sev=      00
 SharedLib= :SHARED_SYSTEM                                    Alt SharedLib=


    ****  Control sections  ****

 Sect   Type Bound  Init  Size OctSiz  Section name(segment info)
    0   DCB   even  none     0      0  M$UC
    1  RoData even  UTS     97    141  DUA$UNFID
    2   Proc  even  none   559   1057  DUA$UNFID
    3  RoData even  none    72    110  DUA$UNFID

    ****  Entry defs  ****

                              Check   Calling
                             calling  sequence
  Sect OctLoc Primary Altret sequence   type   Parms  Name
     2      0   yes    yes     yes      Std        3  DUA$UNFID

  ****  Entry refs  ****

         Check        Calling
        calling       sequence
Altret sequence SRef   type   Args  Name
         yes           Std       0 DDE$ERROR
 yes     yes           Std       4 DDR$MOVE
         yes           Std       2 DDQ$WRITE
         yes           Std       0 DUE$ERRMSG
                       nStd      0 X66_AUTO_3
                       Std       0 B_CONSPOOL_D
                       nStd      0 X66_ARET
                       nStd      0 X66_AALT
PL6.E3A0      #001=DUA$UNFID File=DUA$UNFID.:E05TSI                              TUE 07/29/97 14:49 Page:8

  ****  Data refs  ****

  Flags:  r = read only, s = secondary
Flgs Name                             Flgs Name                             Flgs Name
     M$UC                             r    S_D$                                  B$ROS$
     B_VECTNIL

  ****  Segment refs  ****

  Flags:  r = read only, s = secondary
Flgs Name                             Flgs Name                             Flgs Name
     ISSID                                 NULLSID
PL6.E3A0      #001=DUA$UNFID File=DUA$UNFID.:E05TSI                              TUE 07/29/97 14:49 Page:9


        1        1        /*M* DUA$UNFID - CALLS M$UNFID TO FORMAT DCB NAME AND STATUS */
        2        2        /*T***********************************************************/
        3        3        /*T*                                                         */
        4        4        /*T* Copyright (c) Bull HN Information Systems Inc., 1997    */
        5        5        /*T*                                                         */
        6        6        /*T***********************************************************/
        7        7        /*X* CCC,DMR,PLM=5,IND=5,CSU=3,EXM=0,ECU=3,MOC,DCI=5,CRT=5 */
        8        8        %SET LISTSUB='1'B;
        9        9        /*P* NAME: DUA$UNFID
       10       10             PURPOSE:  FORMATS DCB NAME, ASSIGNMENT, AND STATUS FOR UNFID DIRECTIVE
       11       11                  AND PMD.
       12       12        */
       13       13        DUA$UNFID: PROC(DCB#,OPEN,CLOSED) ALTRET;

     13  2 000000   000000 700200 xent  DUA$UNFID    TSX0  ! X66_AUTO_3
         2 000001   000046 000003                    ZERO    38,3

       14       14                                                /**/
       15       15    1   DCL DCB# UBIN;
       16       16    1   DCL OPEN BIT(1) ALIGNED;
       17       17    1   DCL CLOSED BIT(1) ALIGNED;
       18       18    1   DCL TEMP UBIN;
       19       19    1   DCL BB$ PTR;
       20       20    1   DCL REM UBIN;
       21       21    1   DCL DCB$ PTR;
       22       22        %INCLUDE CP_6;
       23      103        %INCLUDE B$ROSEG;
       24      166        %FPT_UNFID (FPTN=FPT_UNFID, STCLASS=CONSTANT);
       25      184        %FPT_UNFID (FPTN=FPT$UNFID, STCLASS=AUTO);
       26      202        %F$DCB;
       27      259    1   DCL CHAR2000 CHAR(2000) BASED;
       28      260    1   DCL CHAR1 CHAR(1) BASED;
       29      261    1   DCL CHAR2 CHAR(2) BASED;
       30      262    1   DCL CHAR32 CHAR(32) BASED;
       31      263        %INCLUDE CP_6_SUBS;
       32      803        %INCLUDE DD_ERR_C;
PL6.E3A0      #001=DUA$UNFID File=DUA$UNFID.:E05TSI                              TUE 07/29/97 14:49 Page:10
       33     1200        %INCLUDE XUH_MACRO_C;
       34     1284        %INCLUDE DD_SD_M;
       35     2620        %S_D;
       36     3938    1   DCL B$ROS$ PTR SYMREF;
       37     3939    1   DCL DDE$ERROR ENTRY;
       38     3940    1   DCL DDR$MOVE ENTRY(4) ALTRET;
       39     3941    1   DCL DDQ$WRITE ENTRY(2);
       40     3942    1   DCL DUE$ERRMSG ENTRY;
       41     3943                                                /**/
       42     3944    1        IF S_D.RUM OR S_D.ANLZ

   3944  2 000002   000000 470400 xsym               LDP0    S_D$
         2 000003   004755 234100                    SZN     2541,,PR0
         2 000004   000007 604000 2                  TMI     s:3946
         2 000005   004756 234100                    SZN     2542,,PR0
         2 000006   000012 605000 2                  TPL     s:3949

       43     3945    2        THEN DO;

       44     3946    2             S_D.ERROR = 34;         /* E@NOTYET */

   3946  2 000007   000042 235007                    LDA     34,DL
         2 000010   000013 755100                    STA     11,,PR0

       45     3947    2             GOTO ALT;

   3947  2 000011   001052 710000 2                  TRA     ALT

       46     3948    2           END;
       47     3949    1        DCB$ = B$ROS$->B$ROSEG.DCBPTR$->B$RODCB$(DCB#);

   3949  2 000012   000000 471400 xsym               LDP1    B$ROS$
         2 000013   100000 473500                    LDP3    0,,PR1
         2 000014   200003 474500                    LDP4    @DCB#,,AUTO
         2 000015   400000 720100                    LXL0    0,,PR4
         2 000016   300000 236110                    LDQ     0,X0,PR3
         2 000017   200011 756100                    STQ     DCB$,,AUTO
PL6.E3A0      #001=DUA$UNFID File=DUA$UNFID.:E05TSI                              TUE 07/29/97 14:49 Page:11

       48     3950    1        IF DCB$ = ADDR(NIL)

   3950  2 000020   000001 116000 xsym               CMPQ    B_VECTNIL+1
         2 000021   000030 601000 2                  TNZ     s:3956

       49     3951    2        THEN DO;

       50     3952    2             S_D.ERROR = 502;         /* E@DELBUG */

   3952  2 000022   000766 235007                    LDA     502,DL
         2 000023   000013 755100                    STA     11,,PR0

       51     3953    2             CALL DDE$ERROR;

   3953  2 000024   000002 631400 xsym               EPPR1   B_VECTNIL+2
         2 000025   000000 701000 xent               TSX1    DDE$ERROR
         2 000026   000000 011000                    NOP     0

       52     3954    2             GOTO ALT;

   3954  2 000027   001052 710000 2                  TRA     ALT

       53     3955    2           END;
       54     3956    1        S_D.OUTPUT = 'DCB #';

   3956  2 000030   040100 100400                    MLR     fill='040'O
         2 000031   000026 000005 1                  ADSC9   FPT_UNFID+22             cn=0,n=5
         2 000032   005335 004000                    ADSC9   2781,,PR0                cn=0,n=2048

       55     3957    1        BB$ = PINCRC(ADDR(S_D.OUTPUT), 5);

   3957  2 000033   000000 236000 xsym               LDQ     S_D$
         2 000034   000000 036000 3                  ADLQ    0
         2 000035   200007 756100                    STQ     BB$,,AUTO

       56     3958    1        IF DCB# < 10
PL6.E3A0      #001=DUA$UNFID File=DUA$UNFID.:E05TSI                              TUE 07/29/97 14:49 Page:12

   3958  2 000036   400000 235100                    LDA     0,,PR4
         2 000037   000012 115007                    CMPA    10,DL
         2 000040   000053 603000 2                  TRC     s:3964

       57     3959    2        THEN DO;

       58     3960    2             CALL BINCHAR(BB$->CHAR1, DCB#);

   3960  2 000041   000044 773000                    LRL     36
         2 000042   200040 757100                    STAQ    FPT$UNFID+22,,AUTO
         2 000043   200007 473500                    LDP3    BB$,,AUTO
         2 000044   000100 301500                    BTD
         2 000045   200040 000010                    NDSC9   FPT$UNFID+22,,AUTO       cn=0,s=lsgnf,sf=0,n=8
         2 000046   300000 030001                    NDSC9   0,,PR3                   cn=0,s=nosgn,sf=0,n=1

       59     3961    2             BB$ = PINCRC(BB$, 2);

   3961  2 000047   200007 236100                    LDQ     BB$,,AUTO
         2 000050   400000 036007                    ADLQ    -131072,DL
         2 000051   200007 756100                    STQ     BB$,,AUTO

       60     3962    2           END;

   3962  2 000052   000064 710000 2                  TRA     s:3967

       61     3963    2        ELSE DO;

       62     3964    2             CALL BINCHAR(BB$->CHAR2, DCB#);

   3964  2 000053   000044 773000                    LRL     36
         2 000054   200040 757100                    STAQ    FPT$UNFID+22,,AUTO
         2 000055   200007 473500                    LDP3    BB$,,AUTO
         2 000056   000100 301500                    BTD
         2 000057   200040 000010                    NDSC9   FPT$UNFID+22,,AUTO       cn=0,s=lsgnf,sf=0,n=8
         2 000060   300000 030002                    NDSC9   0,,PR3                   cn=0,s=nosgn,sf=0,n=2

PL6.E3A0      #001=DUA$UNFID File=DUA$UNFID.:E05TSI                              TUE 07/29/97 14:49 Page:13
       63     3965    2             BB$ = PINCRC(BB$, 3);

   3965  2 000061   200007 236100                    LDQ     BB$,,AUTO
         2 000062   600000 036007                    ADLQ    -65536,DL
         2 000063   200007 756100                    STQ     BB$,,AUTO

       64     3966    2           END;

       65     3967    1        BB$->CHAR32 = DCB$->F$DCB.DCBNAME.N;

   3967  2 000064   200011 471500                    LDP1    DCB$,,AUTO
         2 000065   100140 236100                    LDQ     96,,PR1
         2 000066   000033 772000                    QRL     27
         2 000067   000037 376007                    ANQ     31,DL
         2 000070   000000 620006                    EAX0    0,QL
         2 000071   200007 473500                    LDP3    BB$,,AUTO
         2 000072   040100 100540                    MLR     fill='040'O
         2 000073   100140 200010                    ADSC9   96,,PR1                  cn=1,n=*X0
         2 000074   300000 000040                    ADSC9   0,,PR3                   cn=0,n=32

       66     3968    1        BB$ = PINCRC(BB$, DCB$->F$DCB.DCBNAME.L);

   3968  2 000075   100140 236100                    LDQ     96,,PR1
         2 000076   000033 772000                    QRL     27
         2 000077   000037 376007                    ANQ     31,DL
         2 000100   000020 736000                    QLS     16
         2 000101   200007 036100                    ADLQ    BB$,,AUTO
         2 000102   200007 756100                    STQ     BB$,,AUTO

       67     3969    1        IF DCB$->F$DCB.DCBNAME.L > 0

   3969  2 000103   100140 236100                    LDQ     96,,PR1
         2 000104   037000 316003                    CANQ    15872,DU
         2 000105   000115 600000 2                  TZE     s:3974

       68     3970    2        THEN DO;

PL6.E3A0      #001=DUA$UNFID File=DUA$UNFID.:E05TSI                              TUE 07/29/97 14:49 Page:14
       69     3971    2             BB$->CHAR1 = ' ';

   3971  2 000106   200007 473500                    LDP3    BB$,,AUTO
         2 000107   040100 100400                    MLR     fill='040'O
         2 000110   000035 000001 xsym               ADSC9   B_VECTNIL+29             cn=0,n=1
         2 000111   300000 000001                    ADSC9   0,,PR3                   cn=0,n=1

       70     3972    2             BB$ = PINCRC(BB$, 1);

   3972  2 000112   200007 236100                    LDQ     BB$,,AUTO
         2 000113   200000 036007                    ADLQ    65536,DL
         2 000114   200007 756100                    STQ     BB$,,AUTO

       71     3973    2           END;

       72     3974    1        FPT$UNFID = FPT_UNFID;

   3974  2 000115   000100 100400                    MLR     fill='000'O
         2 000116   000000 000130 1                  ADSC9   FPT_UNFID                cn=0,n=88
         2 000117   200012 000130                    ADSC9   FPT$UNFID,,AUTO          cn=0,n=88

       73     3975    1        FPT$UNFID.V_ = VECTOR(FPT$UNFID.V);

   3975  2 000120   000001 235000 3                  LDA     1
         2 000121   200040 452500                    STP2    FPT$UNFID+22,,AUTO
         2 000122   200040 236100                    LDQ     FPT$UNFID+22,,AUTO
         2 000123   000036 036003                    ADLQ    30,DU
         2 000124   200012 757100                    STAQ    FPT$UNFID,,AUTO

       74     3976    1        FPT$UNFID.TEXTFID_ = VECTOR(BB$->CHAR2000);

   3976  2 000125   000002 235000 3                  LDA     2
         2 000126   200007 236100                    LDQ     BB$,,AUTO
         2 000127   200014 757100                    STAQ    FPT$UNFID+2,,AUTO

       75     3977    1        FPT$UNFID.V.DCB# = DCB#;

PL6.E3A0      #001=DUA$UNFID File=DUA$UNFID.:E05TSI                              TUE 07/29/97 14:49 Page:15
   3977  2 000130   400000 720100                    LXL0    0,,PR4
         2 000131   200036 740100                    STX0    FPT$UNFID+20,,AUTO

       76     3978    1        CALL M$UNFID(FPT$UNFID) ALTRET(EALT);

   3978  2 000132   200012 630500                    EPPR0   FPT$UNFID,,AUTO
         2 000133   420021 713400                    CLIMB   alt,+8209
         2 000134   404400 401760                    pmme    nvectors=10
         2 000135   001053 702000 2                  TSX2    EALT

       77     3979    1        CALL INDEX(TEMP, '  ', S_D.OUTPUT);

   3979  2 000136   000000 470400 xsym               LDP0    S_D$
         2 000137   000000 120500                    SCD
         2 000140   005335 004000                    ADSC9   2781,,PR0                cn=0,n=2048
         2 000141   000030 000002 1                  ADSC9   FPT_UNFID+24             cn=0,n=2
         2 000142   200006 000100                    ARG     TEMP,,AUTO
         2 000143   000145 607000 2                  TTF     s:3980
         2 000144   200006 054100                    AOS     TEMP,,AUTO

       78     3980    1        BB$ = PINCRC(ADDR(S_D.OUTPUT), TEMP+1);

   3980  2 000145   200006 236100                    LDQ     TEMP,,AUTO
         2 000146   000020 736000                    QLS     16
         2 000147   000003 036000 3                  ADLQ    3
         2 000150   000000 036000 xsym               ADLQ    S_D$
         2 000151   200007 756100                    STQ     BB$,,AUTO

       79     3981    1        REM = 120;

   3981  2 000152   000170 235007                    LDA     120,DL
         2 000153   200010 755100                    STA     REM,,AUTO

       80     3982    1        IF DCB$->F$DCB.FCD#

   3982  2 000154   200011 471500                    LDP1    DCB$,,AUTO
         2 000155   100031 236100                    LDQ     25,,PR1
PL6.E3A0      #001=DUA$UNFID File=DUA$UNFID.:E05TSI                              TUE 07/29/97 14:49 Page:16
         2 000156   020000 316007                    CANQ    8192,DL
         2 000157   000202 600000 2                  TZE     s:3988

       81     3983    2        THEN DO;

       82     3984    2             IF ADDR(OPEN) ~= ADDR(NIL) THEN IF NOT OPEN THEN RETURN;

   3984  2 000160   200004 236100                    LDQ     @OPEN,,AUTO
         2 000161   000001 116000 xsym               CMPQ    B_VECTNIL+1
         2 000162   000167 600000 2                  TZE     s:3985

   3984  2 000163   200004 473500                    LDP3    @OPEN,,AUTO
         2 000164   300000 234100                    SZN     0,,PR3
         2 000165   000167 604000 2                  TMI     s:3985

   3984  2 000166   000000 702200 xent               TSX2  ! X66_ARET

       83     3985    2             CALL DDR$MOVE('(OPEN, ', 7, BB$, REM);

   3985  2 000167   200010 633500                    EPPR3   REM,,AUTO
         2 000170   200043 453500                    STP3    FPT$UNFID+25,,AUTO
         2 000171   200007 634500                    EPPR4   BB$,,AUTO
         2 000172   200042 454500                    STP4    FPT$UNFID+24,,AUTO
         2 000173   000004 237000 3                  LDAQ    4
         2 000174   200040 757100                    STAQ    FPT$UNFID+22,,AUTO
         2 000175   200040 630500                    EPPR0   FPT$UNFID+22,,AUTO
         2 000176   000022 631400 xsym               EPPR1   B_VECTNIL+18
         2 000177   000000 701000 xent               TSX1    DDR$MOVE
         2 000200   000000 011000                    NOP     0

       84     3986    2           END;

   3986  2 000201   000254 710000 2                  TRA     s:3994

       85     3987    2        ELSE DO;

       86     3988    2             IF ADDR(CLOSED) ~= ADDR(NIL) THEN IF NOT CLOSED THEN RETURN;
PL6.E3A0      #001=DUA$UNFID File=DUA$UNFID.:E05TSI                              TUE 07/29/97 14:49 Page:17

   3988  2 000202   200005 236100                    LDQ     @CLOSED,,AUTO
         2 000203   000001 116000 xsym               CMPQ    B_VECTNIL+1
         2 000204   000211 600000 2                  TZE     s:3989

   3988  2 000205   200005 473500                    LDP3    @CLOSED,,AUTO
         2 000206   300000 234100                    SZN     0,,PR3
         2 000207   000211 604000 2                  TMI     s:3989

   3988  2 000210   000000 702200 xent               TSX2  ! X66_ARET

       87     3989    2             CALL DDR$MOVE('(CLOSED, ', 9, BB$, REM);

   3989  2 000211   200010 633500                    EPPR3   REM,,AUTO
         2 000212   200043 453500                    STP3    FPT$UNFID+25,,AUTO
         2 000213   200007 634500                    EPPR4   BB$,,AUTO
         2 000214   200042 454500                    STP4    FPT$UNFID+24,,AUTO
         2 000215   000006 237000 3                  LDAQ    6
         2 000216   200040 757100                    STAQ    FPT$UNFID+22,,AUTO
         2 000217   200040 630500                    EPPR0   FPT$UNFID+22,,AUTO
         2 000220   000022 631400 xsym               EPPR1   B_VECTNIL+18
         2 000221   000000 701000 xent               TSX1    DDR$MOVE
         2 000222   000000 011000                    NOP     0

       88     3990    2             IF DCB$->F$DCB.FCI#

   3990  2 000223   200011 470500                    LDP0    DCB$,,AUTO
         2 000224   000031 236100                    LDQ     25,,PR0
         2 000225   040000 316007                    CANQ    16384,DL
         2 000226   000242 600000 2                  TZE     s:3992

       89     3991    2             THEN CALL DDR$MOVE('WAS OPEN, ', LENGTHC('WAS OPEN, '), BB$, REM);

   3991  2 000227   200010 631500                    EPPR1   REM,,AUTO
         2 000230   200043 451500                    STP1    FPT$UNFID+25,,AUTO
         2 000231   200007 633500                    EPPR3   BB$,,AUTO
         2 000232   200042 453500                    STP3    FPT$UNFID+24,,AUTO
PL6.E3A0      #001=DUA$UNFID File=DUA$UNFID.:E05TSI                              TUE 07/29/97 14:49 Page:18
         2 000233   000010 237000 3                  LDAQ    8
         2 000234   200040 757100                    STAQ    FPT$UNFID+22,,AUTO
         2 000235   200040 630500                    EPPR0   FPT$UNFID+22,,AUTO
         2 000236   000022 631400 xsym               EPPR1   B_VECTNIL+18
         2 000237   000000 701000 xent               TSX1    DDR$MOVE
         2 000240   000000 011000                    NOP     0
         2 000241   000254 710000 2                  TRA     s:3994

       90     3992    2             ELSE CALL DDR$MOVE('NEVER OPEN, ', LENGTHC('NEVER OPEN, '), BB$, REM);

   3992  2 000242   200010 631500                    EPPR1   REM,,AUTO
         2 000243   200043 451500                    STP1    FPT$UNFID+25,,AUTO
         2 000244   200007 633500                    EPPR3   BB$,,AUTO
         2 000245   200042 453500                    STP3    FPT$UNFID+24,,AUTO
         2 000246   000014 237000 3                  LDAQ    12
         2 000247   200040 757100                    STAQ    FPT$UNFID+22,,AUTO
         2 000250   200040 630500                    EPPR0   FPT$UNFID+22,,AUTO
         2 000251   000022 631400 xsym               EPPR1   B_VECTNIL+18
         2 000252   000000 701000 xent               TSX1    DDR$MOVE
         2 000253   000000 011000                    NOP     0

       91     3993    2           END;

       92     3994    2        DO CASE(DCB$->F$DCB.FUN#);

   3994  2 000254   200011 470500                    LDP0    DCB$,,AUTO
         2 000255   000032 220100                    LDX0    26,,PR0
         2 000256   000777 360003                    ANX0    511,DU
         2 000257   000004 100003                    CMPX0   4,DU
         2 000260   000262 602010 2                  TNC     s:3994+6,X0
         2 000261   000327 710000 2                  TRA     s:4002
         2 000262   000327 710000 2                  TRA     s:4002
         2 000263   000266 710000 2                  TRA     s:3996
         2 000264   000301 710000 2                  TRA     s:3998
         2 000265   000314 710000 2                  TRA     s:4000

       93     3995    2          CASE(%UPDATE#);
PL6.E3A0      #001=DUA$UNFID File=DUA$UNFID.:E05TSI                              TUE 07/29/97 14:49 Page:19

       94     3996    2             CALL DDR$MOVE('UPDATE, ', 8, BB$, REM);

   3996  2 000266   200010 631500                    EPPR1   REM,,AUTO
         2 000267   200043 451500                    STP1    FPT$UNFID+25,,AUTO
         2 000270   200007 633500                    EPPR3   BB$,,AUTO
         2 000271   200042 453500                    STP3    FPT$UNFID+24,,AUTO
         2 000272   000016 237000 3                  LDAQ    14
         2 000273   200040 757100                    STAQ    FPT$UNFID+22,,AUTO
         2 000274   200040 630500                    EPPR0   FPT$UNFID+22,,AUTO
         2 000275   000022 631400 xsym               EPPR1   B_VECTNIL+18
         2 000276   000000 701000 xent               TSX1    DDR$MOVE
         2 000277   000000 011000                    NOP     0
         2 000300   000341 710000 2                  TRA     s:4004

       95     3997    2          CASE(%IN#);

       96     3998    2             CALL DDR$MOVE('IN, ', 4, BB$, REM);

   3998  2 000301   200010 631500                    EPPR1   REM,,AUTO
         2 000302   200043 451500                    STP1    FPT$UNFID+25,,AUTO
         2 000303   200007 633500                    EPPR3   BB$,,AUTO
         2 000304   200042 453500                    STP3    FPT$UNFID+24,,AUTO
         2 000305   000020 237000 3                  LDAQ    16
         2 000306   200040 757100                    STAQ    FPT$UNFID+22,,AUTO
         2 000307   200040 630500                    EPPR0   FPT$UNFID+22,,AUTO
         2 000310   000022 631400 xsym               EPPR1   B_VECTNIL+18
         2 000311   000000 701000 xent               TSX1    DDR$MOVE
         2 000312   000000 011000                    NOP     0
         2 000313   000341 710000 2                  TRA     s:4004

       97     3999    2          CASE(%CREATE#);

       98     4000    2             CALL DDR$MOVE('CREATE, ', 8, BB$, REM);

   4000  2 000314   200010 631500                    EPPR1   REM,,AUTO
         2 000315   200043 451500                    STP1    FPT$UNFID+25,,AUTO
PL6.E3A0      #001=DUA$UNFID File=DUA$UNFID.:E05TSI                              TUE 07/29/97 14:49 Page:20
         2 000316   200007 633500                    EPPR3   BB$,,AUTO
         2 000317   200042 453500                    STP3    FPT$UNFID+24,,AUTO
         2 000320   000022 237000 3                  LDAQ    18
         2 000321   200040 757100                    STAQ    FPT$UNFID+22,,AUTO
         2 000322   200040 630500                    EPPR0   FPT$UNFID+22,,AUTO
         2 000323   000022 631400 xsym               EPPR1   B_VECTNIL+18
         2 000324   000000 701000 xent               TSX1    DDR$MOVE
         2 000325   000000 011000                    NOP     0
         2 000326   000341 710000 2                  TRA     s:4004

       99     4001    2          CASE(ELSE);

      100     4002    2             CALL DDR$MOVE('?, ', 3, BB$, REM);

   4002  2 000327   200010 631500                    EPPR1   REM,,AUTO
         2 000330   200043 451500                    STP1    FPT$UNFID+25,,AUTO
         2 000331   200007 633500                    EPPR3   BB$,,AUTO
         2 000332   200042 453500                    STP3    FPT$UNFID+24,,AUTO
         2 000333   000024 237000 3                  LDAQ    20
         2 000334   200040 757100                    STAQ    FPT$UNFID+22,,AUTO
         2 000335   200040 630500                    EPPR0   FPT$UNFID+22,,AUTO
         2 000336   000022 631400 xsym               EPPR1   B_VECTNIL+18
         2 000337   000000 701000 xent               TSX1    DDR$MOVE
         2 000340   000000 011000                    NOP     0

      101     4003    2          END;

      102     4004    2        DO CASE(DCB$->F$DCB.ORG#);

   4004  2 000341   200011 470500                    LDP0    DCB$,,AUTO
         2 000342   000032 236100                    LDQ     26,,PR0
         2 000343   000033 772000                    QRL     27
         2 000344   000032 116007                    CMPQ    26,DL
         2 000345   000347 602006 2                  TNC     s:4004+6,QL
         2 000346   001011 710000 2                  TRA     s:4054
         2 000347   001011 710000 2                  TRA     s:4054
         2 000350   000401 710000 2                  TRA     s:4006
PL6.E3A0      #001=DUA$UNFID File=DUA$UNFID.:E05TSI                              TUE 07/29/97 14:49 Page:21
         2 000351   000414 710000 2                  TRA     s:4008
         2 000352   000427 710000 2                  TRA     s:4010
         2 000353   000442 710000 2                  TRA     s:4012
         2 000354   000455 710000 2                  TRA     s:4014
         2 000355   000470 710000 2                  TRA     s:4016
         2 000356   000503 710000 2                  TRA     s:4018
         2 000357   000605 710000 2                  TRA     s:4030
         2 000360   000620 710000 2                  TRA     s:4032
         2 000361   000633 710000 2                  TRA     s:4034
         2 000362   000646 710000 2                  TRA     s:4036
         2 000363   000661 710000 2                  TRA     s:4038
         2 000364   000674 710000 2                  TRA     s:4040
         2 000365   001011 710000 2                  TRA     s:4054
         2 000366   000516 710000 2                  TRA     s:4020
         2 000367   000531 710000 2                  TRA     s:4022
         2 000370   000544 710000 2                  TRA     s:4024
         2 000371   000557 710000 2                  TRA     s:4026
         2 000372   000572 710000 2                  TRA     s:4028
         2 000373   000707 710000 2                  TRA     s:4042
         2 000374   000722 710000 2                  TRA     s:4044
         2 000375   000735 710000 2                  TRA     s:4046
         2 000376   000750 710000 2                  TRA     s:4048
         2 000377   000763 710000 2                  TRA     s:4050
         2 000400   000776 710000 2                  TRA     s:4052

      103     4005    2          CASE(%CONSEC#);

      104     4006    2             CALL DDR$MOVE('CONSEC)', LENGTHC('CONSEC)'), BB$, REM);

   4006  2 000401   200010 631500                    EPPR1   REM,,AUTO
         2 000402   200043 451500                    STP1    FPT$UNFID+25,,AUTO
         2 000403   200007 633500                    EPPR3   BB$,,AUTO
         2 000404   200042 453500                    STP3    FPT$UNFID+24,,AUTO
         2 000405   000026 237000 3                  LDAQ    22
         2 000406   200040 757100                    STAQ    FPT$UNFID+22,,AUTO
         2 000407   200040 630500                    EPPR0   FPT$UNFID+22,,AUTO
         2 000410   000022 631400 xsym               EPPR1   B_VECTNIL+18
PL6.E3A0      #001=DUA$UNFID File=DUA$UNFID.:E05TSI                              TUE 07/29/97 14:49 Page:22
         2 000411   000000 701000 xent               TSX1    DDR$MOVE
         2 000412   000000 011000                    NOP     0
         2 000413   001023 710000 2                  TRA     s:4056

      105     4007    2          CASE(%KEYED#);

      106     4008    2             CALL DDR$MOVE('KEYED)', LENGTHC('KEYED)'), BB$, REM);

   4008  2 000414   200010 631500                    EPPR1   REM,,AUTO
         2 000415   200043 451500                    STP1    FPT$UNFID+25,,AUTO
         2 000416   200007 633500                    EPPR3   BB$,,AUTO
         2 000417   200042 453500                    STP3    FPT$UNFID+24,,AUTO
         2 000420   000030 237000 3                  LDAQ    24
         2 000421   200040 757100                    STAQ    FPT$UNFID+22,,AUTO
         2 000422   200040 630500                    EPPR0   FPT$UNFID+22,,AUTO
         2 000423   000022 631400 xsym               EPPR1   B_VECTNIL+18
         2 000424   000000 701000 xent               TSX1    DDR$MOVE
         2 000425   000000 011000                    NOP     0
         2 000426   001023 710000 2                  TRA     s:4056

      107     4009    2          CASE(%RANDOM#);

      108     4010    2             CALL DDR$MOVE('RANDOM)', LENGTHC('RANDOM)'), BB$, REM);

   4010  2 000427   200010 631500                    EPPR1   REM,,AUTO
         2 000430   200043 451500                    STP1    FPT$UNFID+25,,AUTO
         2 000431   200007 633500                    EPPR3   BB$,,AUTO
         2 000432   200042 453500                    STP3    FPT$UNFID+24,,AUTO
         2 000433   000032 237000 3                  LDAQ    26
         2 000434   200040 757100                    STAQ    FPT$UNFID+22,,AUTO
         2 000435   200040 630500                    EPPR0   FPT$UNFID+22,,AUTO
         2 000436   000022 631400 xsym               EPPR1   B_VECTNIL+18
         2 000437   000000 701000 xent               TSX1    DDR$MOVE
         2 000440   000000 011000                    NOP     0
         2 000441   001023 710000 2                  TRA     s:4056

      109     4011    2          CASE(%UR#);
PL6.E3A0      #001=DUA$UNFID File=DUA$UNFID.:E05TSI                              TUE 07/29/97 14:49 Page:23

      110     4012    2             CALL DDR$MOVE('UR)', LENGTHC('UR)'), BB$, REM);

   4012  2 000442   200010 631500                    EPPR1   REM,,AUTO
         2 000443   200043 451500                    STP1    FPT$UNFID+25,,AUTO
         2 000444   200007 633500                    EPPR3   BB$,,AUTO
         2 000445   200042 453500                    STP3    FPT$UNFID+24,,AUTO
         2 000446   000034 237000 3                  LDAQ    28
         2 000447   200040 757100                    STAQ    FPT$UNFID+22,,AUTO
         2 000450   200040 630500                    EPPR0   FPT$UNFID+22,,AUTO
         2 000451   000022 631400 xsym               EPPR1   B_VECTNIL+18
         2 000452   000000 701000 xent               TSX1    DDR$MOVE
         2 000453   000000 011000                    NOP     0
         2 000454   001023 710000 2                  TRA     s:4056

      111     4013    2          CASE(%RELATIVE#);

      112     4014    2             CALL DDR$MOVE('RELATIVE)', LENGTHC('RELATIVE)'), BB$, REM);

   4014  2 000455   200010 631500                    EPPR1   REM,,AUTO
         2 000456   200043 451500                    STP1    FPT$UNFID+25,,AUTO
         2 000457   200007 633500                    EPPR3   BB$,,AUTO
         2 000460   200042 453500                    STP3    FPT$UNFID+24,,AUTO
         2 000461   000036 237000 3                  LDAQ    30
         2 000462   200040 757100                    STAQ    FPT$UNFID+22,,AUTO
         2 000463   200040 630500                    EPPR0   FPT$UNFID+22,,AUTO
         2 000464   000022 631400 xsym               EPPR1   B_VECTNIL+18
         2 000465   000000 701000 xent               TSX1    DDR$MOVE
         2 000466   000000 011000                    NOP     0
         2 000467   001023 710000 2                  TRA     s:4056

      113     4015    2          CASE(%INDEXED#);

      114     4016    2             CALL DDR$MOVE('INDEXED)', LENGTHC('INDEXED)'), BB$, REM);

   4016  2 000470   200010 631500                    EPPR1   REM,,AUTO
         2 000471   200043 451500                    STP1    FPT$UNFID+25,,AUTO
PL6.E3A0      #001=DUA$UNFID File=DUA$UNFID.:E05TSI                              TUE 07/29/97 14:49 Page:24
         2 000472   200007 633500                    EPPR3   BB$,,AUTO
         2 000473   200042 453500                    STP3    FPT$UNFID+24,,AUTO
         2 000474   000040 237000 3                  LDAQ    32
         2 000475   200040 757100                    STAQ    FPT$UNFID+22,,AUTO
         2 000476   200040 630500                    EPPR0   FPT$UNFID+22,,AUTO
         2 000477   000022 631400 xsym               EPPR1   B_VECTNIL+18
         2 000500   000000 701000 xent               TSX1    DDR$MOVE
         2 000501   000000 011000                    NOP     0
         2 000502   001023 710000 2                  TRA     s:4056

      115     4017    2          CASE(%IDS#);

      116     4018    2             CALL DDR$MOVE('IDS)', LENGTHC('IDS)'), BB$, REM);

   4018  2 000503   200010 631500                    EPPR1   REM,,AUTO
         2 000504   200043 451500                    STP1    FPT$UNFID+25,,AUTO
         2 000505   200007 633500                    EPPR3   BB$,,AUTO
         2 000506   200042 453500                    STP3    FPT$UNFID+24,,AUTO
         2 000507   000042 237000 3                  LDAQ    34
         2 000510   200040 757100                    STAQ    FPT$UNFID+22,,AUTO
         2 000511   200040 630500                    EPPR0   FPT$UNFID+22,,AUTO
         2 000512   000022 631400 xsym               EPPR1   B_VECTNIL+18
         2 000513   000000 701000 xent               TSX1    DDR$MOVE
         2 000514   000000 011000                    NOP     0
         2 000515   001023 710000 2                  TRA     s:4056

      117     4019    2          CASE(%FIXED#);

      118     4020    2             CALL DDR$MOVE('FIXED)', LENGTHC('FIXED)'), BB$, REM);

   4020  2 000516   200010 631500                    EPPR1   REM,,AUTO
         2 000517   200043 451500                    STP1    FPT$UNFID+25,,AUTO
         2 000520   200007 633500                    EPPR3   BB$,,AUTO
         2 000521   200042 453500                    STP3    FPT$UNFID+24,,AUTO
         2 000522   000044 237000 3                  LDAQ    36
         2 000523   200040 757100                    STAQ    FPT$UNFID+22,,AUTO
         2 000524   200040 630500                    EPPR0   FPT$UNFID+22,,AUTO
PL6.E3A0      #001=DUA$UNFID File=DUA$UNFID.:E05TSI                              TUE 07/29/97 14:49 Page:25
         2 000525   000022 631400 xsym               EPPR1   B_VECTNIL+18
         2 000526   000000 701000 xent               TSX1    DDR$MOVE
         2 000527   000000 011000                    NOP     0
         2 000530   001023 710000 2                  TRA     s:4056

      119     4021    2          CASE(%VARIABLE#);

      120     4022    2             CALL DDR$MOVE('VARIABLE)', LENGTHC('VARIABLE)'), BB$, REM);

   4022  2 000531   200010 631500                    EPPR1   REM,,AUTO
         2 000532   200043 451500                    STP1    FPT$UNFID+25,,AUTO
         2 000533   200007 633500                    EPPR3   BB$,,AUTO
         2 000534   200042 453500                    STP3    FPT$UNFID+24,,AUTO
         2 000535   000046 237000 3                  LDAQ    38
         2 000536   200040 757100                    STAQ    FPT$UNFID+22,,AUTO
         2 000537   200040 630500                    EPPR0   FPT$UNFID+22,,AUTO
         2 000540   000022 631400 xsym               EPPR1   B_VECTNIL+18
         2 000541   000000 701000 xent               TSX1    DDR$MOVE
         2 000542   000000 011000                    NOP     0
         2 000543   001023 710000 2                  TRA     s:4056

      121     4023    2          CASE(%UNDEF#);

      122     4024    2             CALL DDR$MOVE('UNDEF)', LENGTHC('UNDEF)'), BB$, REM);

   4024  2 000544   200010 631500                    EPPR1   REM,,AUTO
         2 000545   200043 451500                    STP1    FPT$UNFID+25,,AUTO
         2 000546   200007 633500                    EPPR3   BB$,,AUTO
         2 000547   200042 453500                    STP3    FPT$UNFID+24,,AUTO
         2 000550   000050 237000 3                  LDAQ    40
         2 000551   200040 757100                    STAQ    FPT$UNFID+22,,AUTO
         2 000552   200040 630500                    EPPR0   FPT$UNFID+22,,AUTO
         2 000553   000022 631400 xsym               EPPR1   B_VECTNIL+18
         2 000554   000000 701000 xent               TSX1    DDR$MOVE
         2 000555   000000 011000                    NOP     0
         2 000556   001023 710000 2                  TRA     s:4056

PL6.E3A0      #001=DUA$UNFID File=DUA$UNFID.:E05TSI                              TUE 07/29/97 14:49 Page:26
      123     4025    2          CASE(%RESTRICT#);

      124     4026    2             CALL DDR$MOVE('RESTRICT)', LENGTHC('RESTRICT)'), BB$, REM);

   4026  2 000557   200010 631500                    EPPR1   REM,,AUTO
         2 000560   200043 451500                    STP1    FPT$UNFID+25,,AUTO
         2 000561   200007 633500                    EPPR3   BB$,,AUTO
         2 000562   200042 453500                    STP3    FPT$UNFID+24,,AUTO
         2 000563   000052 237000 3                  LDAQ    42
         2 000564   200040 757100                    STAQ    FPT$UNFID+22,,AUTO
         2 000565   200040 630500                    EPPR0   FPT$UNFID+22,,AUTO
         2 000566   000022 631400 xsym               EPPR1   B_VECTNIL+18
         2 000567   000000 701000 xent               TSX1    DDR$MOVE
         2 000570   000000 011000                    NOP     0
         2 000571   001023 710000 2                  TRA     s:4056

      125     4027    2          CASE(%FREE#);

      126     4028    2             CALL DDR$MOVE('FREE)', LENGTHC('FREE)'), BB$, REM);

   4028  2 000572   200010 631500                    EPPR1   REM,,AUTO
         2 000573   200043 451500                    STP1    FPT$UNFID+25,,AUTO
         2 000574   200007 633500                    EPPR3   BB$,,AUTO
         2 000575   200042 453500                    STP3    FPT$UNFID+24,,AUTO
         2 000576   000054 237000 3                  LDAQ    44
         2 000577   200040 757100                    STAQ    FPT$UNFID+22,,AUTO
         2 000600   200040 630500                    EPPR0   FPT$UNFID+22,,AUTO
         2 000601   000022 631400 xsym               EPPR1   B_VECTNIL+18
         2 000602   000000 701000 xent               TSX1    DDR$MOVE
         2 000603   000000 011000                    NOP     0
         2 000604   001023 710000 2                  TRA     s:4056

      127     4029    2          CASE(%TERMINAL#);

      128     4030    2             CALL DDR$MOVE('TERMINAL)', LENGTHC('TERMINAL)'), BB$, REM);

   4030  2 000605   200010 631500                    EPPR1   REM,,AUTO
PL6.E3A0      #001=DUA$UNFID File=DUA$UNFID.:E05TSI                              TUE 07/29/97 14:49 Page:27
         2 000606   200043 451500                    STP1    FPT$UNFID+25,,AUTO
         2 000607   200007 633500                    EPPR3   BB$,,AUTO
         2 000610   200042 453500                    STP3    FPT$UNFID+24,,AUTO
         2 000611   000056 237000 3                  LDAQ    46
         2 000612   200040 757100                    STAQ    FPT$UNFID+22,,AUTO
         2 000613   200040 630500                    EPPR0   FPT$UNFID+22,,AUTO
         2 000614   000022 631400 xsym               EPPR1   B_VECTNIL+18
         2 000615   000000 701000 xent               TSX1    DDR$MOVE
         2 000616   000000 011000                    NOP     0
         2 000617   001023 710000 2                  TRA     s:4056

      129     4031    2          CASE(%SYMB#);

      130     4032    2             CALL DDR$MOVE('SYMBIONT)', LENGTHC('SYMBIONT)'), BB$, REM);

   4032  2 000620   200010 631500                    EPPR1   REM,,AUTO
         2 000621   200043 451500                    STP1    FPT$UNFID+25,,AUTO
         2 000622   200007 633500                    EPPR3   BB$,,AUTO
         2 000623   200042 453500                    STP3    FPT$UNFID+24,,AUTO
         2 000624   000060 237000 3                  LDAQ    48
         2 000625   200040 757100                    STAQ    FPT$UNFID+22,,AUTO
         2 000626   200040 630500                    EPPR0   FPT$UNFID+22,,AUTO
         2 000627   000022 631400 xsym               EPPR1   B_VECTNIL+18
         2 000630   000000 701000 xent               TSX1    DDR$MOVE
         2 000631   000000 011000                    NOP     0
         2 000632   001023 710000 2                  TRA     s:4056

      131     4033    2          CASE(%FPRG#);

      132     4034    2             CALL DDR$MOVE('FORMS PROGRAM)', LENGTHC('FORMS PROGRAM)'), BB$, REM);

   4034  2 000633   200010 631500                    EPPR1   REM,,AUTO
         2 000634   200043 451500                    STP1    FPT$UNFID+25,,AUTO
         2 000635   200007 633500                    EPPR3   BB$,,AUTO
         2 000636   200042 453500                    STP3    FPT$UNFID+24,,AUTO
         2 000637   000062 237000 3                  LDAQ    50
         2 000640   200040 757100                    STAQ    FPT$UNFID+22,,AUTO
PL6.E3A0      #001=DUA$UNFID File=DUA$UNFID.:E05TSI                              TUE 07/29/97 14:49 Page:28
         2 000641   200040 630500                    EPPR0   FPT$UNFID+22,,AUTO
         2 000642   000022 631400 xsym               EPPR1   B_VECTNIL+18
         2 000643   000000 701000 xent               TSX1    DDR$MOVE
         2 000644   000000 011000                    NOP     0
         2 000645   001023 710000 2                  TRA     s:4056

      133     4035    2          CASE(%CG#);

      134     4036    2             CALL DDR$MOVE('COMGROUP)', LENGTHC('COMGROUP)'), BB$, REM);

   4036  2 000646   200010 631500                    EPPR1   REM,,AUTO
         2 000647   200043 451500                    STP1    FPT$UNFID+25,,AUTO
         2 000650   200007 633500                    EPPR3   BB$,,AUTO
         2 000651   200042 453500                    STP3    FPT$UNFID+24,,AUTO
         2 000652   000064 237000 3                  LDAQ    52
         2 000653   200040 757100                    STAQ    FPT$UNFID+22,,AUTO
         2 000654   200040 630500                    EPPR0   FPT$UNFID+22,,AUTO
         2 000655   000022 631400 xsym               EPPR1   B_VECTNIL+18
         2 000656   000000 701000 xent               TSX1    DDR$MOVE
         2 000657   000000 011000                    NOP     0
         2 000660   001023 710000 2                  TRA     s:4056

      135     4037    2          CASE(%HANDLER#);

      136     4038    2             CALL DDR$MOVE('HANDLER)', LENGTHC('HANDLER)'), BB$, REM);

   4038  2 000661   200010 631500                    EPPR1   REM,,AUTO
         2 000662   200043 451500                    STP1    FPT$UNFID+25,,AUTO
         2 000663   200007 633500                    EPPR3   BB$,,AUTO
         2 000664   200042 453500                    STP3    FPT$UNFID+24,,AUTO
         2 000665   000066 237000 3                  LDAQ    54
         2 000666   200040 757100                    STAQ    FPT$UNFID+22,,AUTO
         2 000667   200040 630500                    EPPR0   FPT$UNFID+22,,AUTO
         2 000670   000022 631400 xsym               EPPR1   B_VECTNIL+18
         2 000671   000000 701000 xent               TSX1    DDR$MOVE
         2 000672   000000 011000                    NOP     0
         2 000673   001023 710000 2                  TRA     s:4056
PL6.E3A0      #001=DUA$UNFID File=DUA$UNFID.:E05TSI                              TUE 07/29/97 14:49 Page:29

      137     4039    2          CASE(%IREL#);

      138     4040    2             CALL DDR$MOVE('IREL)', LENGTHC('IREL)'), BB$, REM);

   4040  2 000674   200010 631500                    EPPR1   REM,,AUTO
         2 000675   200043 451500                    STP1    FPT$UNFID+25,,AUTO
         2 000676   200007 633500                    EPPR3   BB$,,AUTO
         2 000677   200042 453500                    STP3    FPT$UNFID+24,,AUTO
         2 000700   000070 237000 3                  LDAQ    56
         2 000701   200040 757100                    STAQ    FPT$UNFID+22,,AUTO
         2 000702   200040 630500                    EPPR0   FPT$UNFID+22,,AUTO
         2 000703   000022 631400 xsym               EPPR1   B_VECTNIL+18
         2 000704   000000 701000 xent               TSX1    DDR$MOVE
         2 000705   000000 011000                    NOP     0
         2 000706   001023 710000 2                  TRA     s:4056

      139     4041    2          CASE(%DBGDCB#);

      140     4042    2             CALL DDR$MOVE('DBGDCB)', LENGTHC('DBGDCB)'), BB$, REM);

   4042  2 000707   200010 631500                    EPPR1   REM,,AUTO
         2 000710   200043 451500                    STP1    FPT$UNFID+25,,AUTO
         2 000711   200007 633500                    EPPR3   BB$,,AUTO
         2 000712   200042 453500                    STP3    FPT$UNFID+24,,AUTO
         2 000713   000072 237000 3                  LDAQ    58
         2 000714   200040 757100                    STAQ    FPT$UNFID+22,,AUTO
         2 000715   200040 630500                    EPPR0   FPT$UNFID+22,,AUTO
         2 000716   000022 631400 xsym               EPPR1   B_VECTNIL+18
         2 000717   000000 701000 xent               TSX1    DDR$MOVE
         2 000720   000000 011000                    NOP     0
         2 000721   001023 710000 2                  TRA     s:4056

      141     4043    2          CASE(%DBGCG#);

      142     4044    2             CALL DDR$MOVE('DBGCG)', LENGTHC('DBGCG)'), BB$, REM);

PL6.E3A0      #001=DUA$UNFID File=DUA$UNFID.:E05TSI                              TUE 07/29/97 14:49 Page:30
   4044  2 000722   200010 631500                    EPPR1   REM,,AUTO
         2 000723   200043 451500                    STP1    FPT$UNFID+25,,AUTO
         2 000724   200007 633500                    EPPR3   BB$,,AUTO
         2 000725   200042 453500                    STP3    FPT$UNFID+24,,AUTO
         2 000726   000074 237000 3                  LDAQ    60
         2 000727   200040 757100                    STAQ    FPT$UNFID+22,,AUTO
         2 000730   200040 630500                    EPPR0   FPT$UNFID+22,,AUTO
         2 000731   000022 631400 xsym               EPPR1   B_VECTNIL+18
         2 000732   000000 701000 xent               TSX1    DDR$MOVE
         2 000733   000000 011000                    NOP     0
         2 000734   001023 710000 2                  TRA     s:4056

      143     4045    2          CASE(%DBGSYSID#);

      144     4046    2             CALL DDR$MOVE('DBGSYSID)', LENGTHC('DBGSYSID)'), BB$, REM);

   4046  2 000735   200010 631500                    EPPR1   REM,,AUTO
         2 000736   200043 451500                    STP1    FPT$UNFID+25,,AUTO
         2 000737   200007 633500                    EPPR3   BB$,,AUTO
         2 000740   200042 453500                    STP3    FPT$UNFID+24,,AUTO
         2 000741   000076 237000 3                  LDAQ    62
         2 000742   200040 757100                    STAQ    FPT$UNFID+22,,AUTO
         2 000743   200040 630500                    EPPR0   FPT$UNFID+22,,AUTO
         2 000744   000022 631400 xsym               EPPR1   B_VECTNIL+18
         2 000745   000000 701000 xent               TSX1    DDR$MOVE
         2 000746   000000 011000                    NOP     0
         2 000747   001023 710000 2                  TRA     s:4056

      145     4047    2          CASE(%SE#);

      146     4048    2             CALL DDR$MOVE('SE)', LENGTHC('SE)'), BB$, REM);

   4048  2 000750   200010 631500                    EPPR1   REM,,AUTO
         2 000751   200043 451500                    STP1    FPT$UNFID+25,,AUTO
         2 000752   200007 633500                    EPPR3   BB$,,AUTO
         2 000753   200042 453500                    STP3    FPT$UNFID+24,,AUTO
         2 000754   000100 237000 3                  LDAQ    64
PL6.E3A0      #001=DUA$UNFID File=DUA$UNFID.:E05TSI                              TUE 07/29/97 14:49 Page:31
         2 000755   200040 757100                    STAQ    FPT$UNFID+22,,AUTO
         2 000756   200040 630500                    EPPR0   FPT$UNFID+22,,AUTO
         2 000757   000022 631400 xsym               EPPR1   B_VECTNIL+18
         2 000760   000000 701000 xent               TSX1    DDR$MOVE
         2 000761   000000 011000                    NOP     0
         2 000762   001023 710000 2                  TRA     s:4056

      147     4049    2          CASE(%X364#);

      148     4050    2             CALL DDR$MOVE('X364)', LENGTHC('X364'), BB$, REM);

   4050  2 000763   200010 631500                    EPPR1   REM,,AUTO
         2 000764   200043 451500                    STP1    FPT$UNFID+25,,AUTO
         2 000765   200007 633500                    EPPR3   BB$,,AUTO
         2 000766   200042 453500                    STP3    FPT$UNFID+24,,AUTO
         2 000767   000102 237000 3                  LDAQ    66
         2 000770   200040 757100                    STAQ    FPT$UNFID+22,,AUTO
         2 000771   200040 630500                    EPPR0   FPT$UNFID+22,,AUTO
         2 000772   000022 631400 xsym               EPPR1   B_VECTNIL+18
         2 000773   000000 701000 xent               TSX1    DDR$MOVE
         2 000774   000000 011000                    NOP     0
         2 000775   001023 710000 2                  TRA     s:4056

      149     4051    2          CASE(%FORM#);

      150     4052    2             CALL DDR$MOVE('FORM)', LENGTHC('FORM)'), BB$, REM);

   4052  2 000776   200010 631500                    EPPR1   REM,,AUTO
         2 000777   200043 451500                    STP1    FPT$UNFID+25,,AUTO
         2 001000   200007 633500                    EPPR3   BB$,,AUTO
         2 001001   200042 453500                    STP3    FPT$UNFID+24,,AUTO
         2 001002   000104 237000 3                  LDAQ    68
         2 001003   200040 757100                    STAQ    FPT$UNFID+22,,AUTO
         2 001004   200040 630500                    EPPR0   FPT$UNFID+22,,AUTO
         2 001005   000022 631400 xsym               EPPR1   B_VECTNIL+18
         2 001006   000000 701000 xent               TSX1    DDR$MOVE
         2 001007   000000 011000                    NOP     0
PL6.E3A0      #001=DUA$UNFID File=DUA$UNFID.:E05TSI                              TUE 07/29/97 14:49 Page:32
         2 001010   001023 710000 2                  TRA     s:4056

      151     4053    2          CASE(ELSE);

      152     4054    2             CALL DDR$MOVE('?)', LENGTHC('?)'), BB$, REM);

   4054  2 001011   200010 631500                    EPPR1   REM,,AUTO
         2 001012   200043 451500                    STP1    FPT$UNFID+25,,AUTO
         2 001013   200007 633500                    EPPR3   BB$,,AUTO
         2 001014   200042 453500                    STP3    FPT$UNFID+24,,AUTO
         2 001015   000106 237000 3                  LDAQ    70
         2 001016   200040 757100                    STAQ    FPT$UNFID+22,,AUTO
         2 001017   200040 630500                    EPPR0   FPT$UNFID+22,,AUTO
         2 001020   000022 631400 xsym               EPPR1   B_VECTNIL+18
         2 001021   000000 701000 xent               TSX1    DDR$MOVE
         2 001022   000000 011000                    NOP     0

      153     4055    2          END;

      154     4056    1        CALL DDQ$WRITE(ADDR(S_D.OUTPUT), POFFC(BB$, ADDR(S_D.OUTPUT))+8);

   4056  2 001023   000000 236000 xsym               LDQ     S_D$
         2 001024   005335 036003                    ADLQ    2781,DU
         2 001025   000020 772000                    QRL     16
         2 001026   200040 756100                    STQ     FPT$UNFID+22,,AUTO
         2 001027   200007 236100                    LDQ     BB$,,AUTO
         2 001030   000020 772000                    QRL     16
         2 001031   200040 136100                    SBLQ    FPT$UNFID+22,,AUTO
         2 001032   200042 756100                    STQ     FPT$UNFID+24,,AUTO
         2 001033   000000 236000 xsym               LDQ     S_D$
         2 001034   005335 036003                    ADLQ    2781,DU
         2 001035   200041 756100                    STQ     FPT$UNFID+23,,AUTO
         2 001036   200042 235100                    LDA     FPT$UNFID+24,,AUTO
         2 001037   000010 035007                    ADLA    8,DL
         2 001040   200043 755100                    STA     FPT$UNFID+25,,AUTO
         2 001041   200043 630500                    EPPR0   FPT$UNFID+25,,AUTO
         2 001042   200045 450500                    STP0    FPT$UNFID+27,,AUTO
PL6.E3A0      #001=DUA$UNFID File=DUA$UNFID.:E05TSI                              TUE 07/29/97 14:49 Page:33
         2 001043   200041 631500                    EPPR1   FPT$UNFID+23,,AUTO
         2 001044   200044 451500                    STP1    FPT$UNFID+26,,AUTO
         2 001045   200044 630500                    EPPR0   FPT$UNFID+26,,AUTO
         2 001046   000020 631400 xsym               EPPR1   B_VECTNIL+16
         2 001047   000000 701000 xent               TSX1    DDQ$WRITE
         2 001050   000000 011000                    NOP     0

      155     4057    1        RETURN;

   4057  2 001051   000000 702200 xent               TSX2  ! X66_ARET

      156     4058    1   ALT: ALTRETURN;

   4058  2 001052   000000 702200 xent  ALT          TSX2  ! X66_AALT

      157     4059    1   EALT: CALL DUE$ERRMSG;

   4059  2 001053   000002 631400 xsym  EALT         EPPR1   B_VECTNIL+2
         2 001054   000000 701000 xent               TSX1    DUE$ERRMSG
         2 001055   000000 011000                    NOP     0

      158     4060    1        RETURN;

   4060  2 001056   000000 702200 xent               TSX2  ! X66_ARET

FPT_UNFID
 Sect OctLoc
   1     000   000001 777640   000024 006000   000000 177640   000000 006014    ................
   1     004   000000 177640   000000 006014   000000 177640   000000 006014    ................
   1     024*  000000 000000   0***** ******                                    ........

(unnamed)
 Sect OctLoc
   1     026   104103 102040   043040 040040   040040 040040   050117 120105    DCB #       (OPE
   1     032   116054 040040   050103 114117   123105 104054   040040 040040    N,  (CLOSED,
   1     036   127101 123040   117120 105116   054040 040040   116105 126105    WAS OPEN,   NEVE
   1     042   122040 117120   105116 054040   125120 104101   124105 054040    R OPEN, UPDATE,
PL6.E3A0      #001=DUA$UNFID File=DUA$UNFID.:E05TSI                              TUE 07/29/97 14:49 Page:34
   1     046   111116 054040   103122 105101   124105 054040   077054 040040    IN, CREATE, ?,
   1     052   103117 116123   105103 051040   113105 131105   104051 040040    CONSEC) KEYED)
   1     056   122101 116104   117115 051040   125122 051040   122105 114101    RANDOM) UR) RELA
   1     062   124111 126105   051040 040040   111116 104105   130105 104051    TIVE)   INDEXED)
   1     066   111104 123051   106111 130105   104051 040040   126101 122111    IDS)FIXED)  VARI
   1     072   101102 114105   051040 040040   125116 104105   106051 040040    ABLE)   UNDEF)
   1     076   122105 123124   122111 103124   051040 040040   106122 105105    RESTRICT)   FREE
   1     102   051040 040040   124105 122115   111116 101114   051040 040040    )   TERMINAL)
   1     106   123131 115102   111117 116124   051040 040040   106117 122115    SYMBIONT)   FORM
   1     112   123040 120122   117107 122101   115051 040040   103117 115107    S PROGRAM)  COMG
   1     116   122117 125120   051040 040040   110101 116104   114105 122051    ROUP)   HANDLER)
   1     122   111122 105114   051040 040040   104102 107104   103102 051040    IREL)   DBGDCB)
   1     126   104102 107103   107051 040040   104102 107123   131123 111104    DBGCG)  DBGSYSID
   1     132   051040 040040   123105 051040   130063 066064   051040 040040    )   SE) X364)
   1     136   106117 122115   051040 040040   077051 040040                    FORM)   ?)

(unnamed)
 Sect OctLoc
   3     000   005336 200000   000001 777640   000763 777640   005335 200000    ................
   3     004   000031 006000   000011 006000   000033 006000   000013 006000    ................
   3     010   000036 006000   000014 006000   000000 000014   000000 000016    ................
   3     014   000041 006000   000012 006000   000044 006000   000012 006000    .!.......$......
   3     020   000046 006000   000006 006000   000047 006000   000012 006000    .&.......'......
   3     024   000051 006000   000005 006000   000052 006000   000011 006000    .).......*......
   3     030   000054 006000   000010 006000   000056 006000   000011 006000    .,..............
   3     034   000060 006000   000005 006000   000061 006000   000013 006000    .0.......1......
   3     040   000064 006000   000012 006000   000066 006000   000006 006000    .4.......6......
   3     044   000067 006000   000010 006000   000071 006000   000013 006000    .7.......9......
   3     050   000074 006000   000010 006000   000076 006000   000013 006000    .<.......>......
   3     054   000101 006000   000007 006000   000103 006000   000013 006000    .A.......C......
   3     060   000106 006000   000013 006000   000111 006000   000013 006000    .F.......I......
   3     064   000115 006000   000013 006000   000120 006000   000012 006000    .M.......P......
   3     070   000122 006000   000007 006000   000124 006000   000011 006000    .R.......T......
   3     074   000126 006000   000010 006000   000130 006000   000013 006000    .V.......X......
   3     100   000133 006000   000005 006000   000134 006000   000006 006000    .[.......\......
   3     104   000136 006000   000007 006000   000140 006000   000004 006000    .^.......`......
      159     4061    1   END DUA$UNFID;
PL6.E3A0      #001=DUA$UNFID File=DUA$UNFID.:E05TSI                              TUE 07/29/97 14:49 Page:35

PL6.E3A0      #001=DUA$UNFID File=DUA$UNFID.:E05TSI                              TUE 07/29/97 14:49 Page:36
--  Include file information  --

   DD_SD_M.:E05TOU  is referenced.
   XUH_MACRO_C.:E05TOU  is referenced.
   DD_ERR_C.:E05TOU  is referenced.
   CP_6_SUBS.:E05TOU  is referenced.
   B$ROSEG.:E05TOU  cannot be made into a system file and is referenced.
   CP_6.:E05TOU  cannot be made into a system file and is referenced.
   B$JIT_C.:E05TOU  was found in the system file and is never referenced.
   CP_6_C.:E05TOU  was found in the system file and is referenced.
      No diagnostics issued in procedure DUA$UNFID.

   Procedure DUA$UNFID requires 559 words for executable code.
   Procedure DUA$UNFID requires 38 words of local(AUTO) storage.

    No errors detected in file DUA$UNFID.:E05TSI    .
PL6.E3A0      #001=DUA$UNFID File=DUA$UNFID.:E05TSI                              TUE 07/29/97 14:49 Page:37
          *** CROSS REFERENCE LISTING ***
**     DENOTES     IDENTIFIER DEFINITION
<<                 IDENTIFIER'S VALUE SET
>>                 IDENTIFIER'S VALUE USED
<>                 IDENTIFIER SET AND/OR USED
--                 IDENTIFIER REFERENCED
PL6.E3A0      #001=DUA$UNFID File=DUA$UNFID.:E05TSI                              TUE 07/29/97 14:49 Page:38
          MINI XREF LISTING

ALT
      4058**LABEL    3947--GOTO     3954--GOTO
B$RODCB$
       150**DCL      3949>>ASSIGN
B$ROS$
      3938**DCL      3949>>ASSIGN
B$ROSEG.DCBPTR$
       114**DCL      3949>>ASSIGN
BB$
        19**DCL      3957<<ASSIGN   3960>>CALLBLT  3961<<ASSIGN   3961>>ASSIGN   3964>>CALLBLT  3965<<ASSIGN
      3965>>ASSIGN   3967>>ASSIGN   3968<<ASSIGN   3968>>ASSIGN   3971>>ASSIGN   3972<<ASSIGN   3972>>ASSIGN
      3976>>ASSIGN   3980<<ASSIGN   3985<>CALL     3989<>CALL     3991<>CALL     3992<>CALL     3996<>CALL
      3998<>CALL     4000<>CALL     4002<>CALL     4006<>CALL     4008<>CALL     4010<>CALL     4012<>CALL
      4014<>CALL     4016<>CALL     4018<>CALL     4020<>CALL     4022<>CALL     4024<>CALL     4026<>CALL
      4028<>CALL     4030<>CALL     4032<>CALL     4034<>CALL     4036<>CALL     4038<>CALL     4040<>CALL
      4042<>CALL     4044<>CALL     4046<>CALL     4048<>CALL     4050<>CALL     4052<>CALL     4054<>CALL
      4056>>CALL
CHAR1
       260**DCL      3960<<CALLBLT  3971<<ASSIGN
CHAR2
       261**DCL      3964<<CALLBLT
CHAR2000
       259**DCL      3976--ASSIGN
CHAR32
       262**DCL      3967<<ASSIGN
CLOSED
        17**DCL        13--PROC     3988--IF       3988>>IF
DCB#
        15**DCL        13--PROC     3949>>ASSIGN   3958>>IF       3960>>CALLBLT  3964>>CALLBLT  3977>>ASSIGN
DCB$
        21**DCL      3949<<ASSIGN   3950>>IF       3967>>ASSIGN   3967>>ASSIGN   3968>>ASSIGN   3969>>IF
      3982>>IF       3990>>IF       3994>>DOCASE   4004>>DOCASE
PL6.E3A0      #001=DUA$UNFID File=DUA$UNFID.:E05TSI                              TUE 07/29/97 14:49 Page:39
DDE$ERROR
      3939**DCL-ENT  3953--CALL
DDQ$WRITE
      3941**DCL-ENT  4056--CALL
DDR$MOVE
      3940**DCL-ENT  3985--CALL     3989--CALL     3991--CALL     3992--CALL     3996--CALL     3998--CALL
      4000--CALL     4002--CALL     4006--CALL     4008--CALL     4010--CALL     4012--CALL     4014--CALL
      4016--CALL     4018--CALL     4020--CALL     4022--CALL     4024--CALL     4026--CALL     4028--CALL
      4030--CALL     4032--CALL     4034--CALL     4036--CALL     4038--CALL     4040--CALL     4042--CALL
      4044--CALL     4046--CALL     4048--CALL     4050--CALL     4052--CALL     4054--CALL
DUE$ERRMSG
      3942**DCL-ENT  4059--CALL
EALT
      4059**LABEL    3978--CALLALT
F$DCB.ACTPOS
       235**DCL       235--REDEF
F$DCB.ARS#
       209**DCL       209--REDEF
F$DCB.ATTR
       228**DCL       229--REDEF
F$DCB.BORROW
       243**DCL       243--REDEF     243--REDEF     243--REDEF
F$DCB.DCBNAME.L
       257**DCL       257--IMP-SIZ  3967>>ASSIGN   3968>>ASSIGN   3969>>IF
F$DCB.DCBNAME.N
       257**DCL      3967>>ASSIGN
F$DCB.EOMCHAR#
       213**DCL       213--REDEF
F$DCB.FCD#
       222**DCL      3982>>IF
F$DCB.FCI#
       222**DCL      3990>>IF
F$DCB.FLDID
       238**DCL       238--REDEF
F$DCB.FORM$
       232**DCL       232--REDEF
PL6.E3A0      #001=DUA$UNFID File=DUA$UNFID.:E05TSI                              TUE 07/29/97 14:49 Page:40
F$DCB.FSECT
       248**DCL       248--REDEF
F$DCB.FSN#
       225**DCL       225--REDEF     225--REDEF     226--REDEF
F$DCB.FUN#
       224**DCL      3994>>DOCASE
F$DCB.HEADER$
       231**DCL       231--REDEF
F$DCB.IXTNSIZE#
       229**DCL       229--REDEF
F$DCB.LASTSTA$
       218**DCL       218--REDEF
F$DCB.LVL
       244**DCL       244--REDEF
F$DCB.NAME#.C
       219**DCL       219--REDEF
F$DCB.NOEOF
       241**DCL       241--REDEF
F$DCB.NRECS#
       230**DCL       230--REDEF
F$DCB.NRECX
       249**DCL       249--REDEF
F$DCB.OHDR
       241**DCL       241--REDEF
F$DCB.ORG#
       224**DCL       224--REDEF    4004>>DOCASE
F$DCB.PRECNO
       247**DCL       247--REDEF
F$DCB.RCSZ
       253**DCL       253--REDEF
F$DCB.RES#
       220**DCL       220--REDEF
F$DCB.SETX
       232**DCL       232--REDEF
F$DCB.TAB$
       232**DCL       232--REDEF
PL6.E3A0      #001=DUA$UNFID File=DUA$UNFID.:E05TSI                              TUE 07/29/97 14:49 Page:41
F$DCB.TDA
       246**DCL       247--REDEF
F$DCB.WSN#
       220**DCL       220--REDEF
FPT$UNFID
       195**DCL      3974<<ASSIGN   3978<>CALL
FPT$UNFID.TEXTFID_
       195**DCL      3976<<ASSIGN
FPT$UNFID.V
       199**DCL      3975--ASSIGN
FPT$UNFID.V.DCB#
       199**DCL      3977<<ASSIGN
FPT$UNFID.V_
       195**DCL      3975<<ASSIGN
FPT_UNFID
       177**DCL      3974>>ASSIGN
FPT_UNFID.V
       181**DCL       177--DCLINIT
M$UNFID
        94**DCL-ENT  3978--CALL
OPEN
        16**DCL        13--PROC     3984--IF       3984>>IF
REM
        20**DCL      3981<<ASSIGN   3985<>CALL     3989<>CALL     3991<>CALL     3992<>CALL     3996<>CALL
      3998<>CALL     4000<>CALL     4002<>CALL     4006<>CALL     4008<>CALL     4010<>CALL     4012<>CALL
      4014<>CALL     4016<>CALL     4018<>CALL     4020<>CALL     4022<>CALL     4024<>CALL     4026<>CALL
      4028<>CALL     4030<>CALL     4032<>CALL     4034<>CALL     4036<>CALL     4038<>CALL     4040<>CALL
      4042<>CALL     4044<>CALL     4046<>CALL     4048<>CALL     4050<>CALL     4052<>CALL     4054<>CALL
S_D.ANLZ
      3272**DCL      3944>>IF
S_D.CURRENT_CHANNEL
      3572**DCL      3574--REDEF
S_D.DEBUGA
      2724**DCL      2726--REDEF
S_D.EIS
      3682**DCL      3711--REDEF
PL6.E3A0      #001=DUA$UNFID File=DUA$UNFID.:E05TSI                              TUE 07/29/97 14:49 Page:42
S_D.ERROR
      2653**DCL      3946<<ASSIGN   3952<<ASSIGN
S_D.HOST_MESSAGE_BUF_REMOTE
      3615**DCL      3616--REDEF    3630--REDEF
S_D.JDE
      3229**DCL      3230--REDEF
S_D.L$.VALUE
      2782**DCL      2788--REDEF    2796--REDEF    2799--REDEF    2802--REDEF    2805--REDEF
S_D.L$.VALUE.L
      2783**DCL      2784--REDEF    2785--REDEF
S_D.L6_MESSAGE_BUF
      3636**DCL      3638--REDEF
S_D.OUTPUT
      3602**DCL      3604--REDEF    3956<<ASSIGN   3957--ASSIGN   3979>>CALLBLT  3980--ASSIGN   4056--CALL
      4056--CALL
S_D.REMOTE_MSG.FNCC
      3621**DCL      3622--REDEF
S_D.REMOTE_MSG.STXC
      3617**DCL      3618--REDEF
S_D.REMOTE_MSG.SUBFNCC
      3625**DCL      3626--REDEF
S_D.RUM
      3270**DCL      3944>>IF
S_D.SV
      2681**DCL      2702--REDEF
S_D$
      3933**DCL      2629--IMP-PTR  3944>>IF       3944>>IF       3946>>ASSIGN   3952>>ASSIGN   3956>>ASSIGN
      3957>>ASSIGN   3979>>CALLBLT  3980>>ASSIGN   4056>>CALL     4056>>CALL
TEMP
        18**DCL      3979<<CALLBLT  3980>>ASSIGN
PL6.E3A0      #001=DUA$UNFID File=DUA$UNFID.:E05TSI                              TUE 07/29/97 14:49 Page:43
              *** CROSS REFERENCE LISTING ***
    **     DENOTES     IDENTIFIER DEFINITION
    <<                 IDENTIFIER'S VALUE SET
    >>                 IDENTIFIER'S VALUE USED
    <>                 IDENTIFIER SET AND/OR USED
    --                 IDENTIFIER REFERENCED
PL6.E3A0      #001=DUA$UNFID File=DUA$UNFID.:E05TSI                              TUE 07/29/97 14:49 Page:44
              MINI UREF LISTING

B$ROAVAIL     153**DCL
DUA$UNFID      13**PROC
M$ACCT      48**DCL-ENT
M$ACTIVATE      51**DCL-ENT
M$ALIB      44**DCL-ENT
M$ASUSER      46**DCL-ENT
M$ATTACH      53**DCL-ENT
M$BADPP      71**DCL-ENT
M$CGCTL      52**DCL-ENT
M$CGINFO      52**DCL-ENT
M$CHECK      33**DCL-ENT
M$CHGUNIT      91**DCL-ENT
M$CLOSE      31**DCL-ENT
M$CLRSTK      89**DCL-ENT
M$CMDVAR     100**DCL-ENT
M$CONFIG      61**DCL-ENT
M$CORRES      36**DCL-ENT
M$CPEXIT      45**DCL-ENT
M$CVM      69**DCL-ENT
M$CVOL      34**DCL-ENT
M$DCLFLD      61**DCL-ENT
M$DEACTIVATE      51**DCL-ENT
M$DELREC      33**DCL-ENT
M$DEQ      98**DCL-ENT
M$DETACH      53**DCL-ENT
M$DEVICE      35**DCL-ENT
M$DISPLAY      98**DCL-ENT
M$DISPRES      38**DCL-ENT
M$DLIB      44**DCL-ENT
M$DRIBBLE      61**DCL-ENT
M$DRTN      89**DCL-ENT
M$DSUSER      46**DCL-ENT
PL6.E3A0      #001=DUA$UNFID File=DUA$UNFID.:E05TSI                              TUE 07/29/97 14:49 Page:45
M$ENQ      97**DCL-ENT
M$EOM      56**DCL-ENT
M$ERASE      62**DCL-ENT
M$ERR      43**DCL-ENT
M$ERRMSG      94**DCL-ENT
M$EVENT      86**DCL-ENT
M$EXHUME      95**DCL-ENT
M$EXIT      43**DCL-ENT
M$EXTEND      35**DCL-ENT
M$FDP      67**DCL-ENT
M$FDS      66**DCL-ENT
M$FEBOOT      59**DCL-ENT
M$FECTL      60**DCL-ENT
M$FEDUMP      59**DCL-ENT
M$FID      94**DCL-ENT
M$FINDPROC      48**DCL-ENT
M$FSUSER      46**DCL-ENT
M$FVP      68**DCL-ENT
M$FWCG      52**DCL-ENT
M$GBPL      72**DCL-ENT
M$GDDL      68**DCL-ENT
M$GDP      67**DCL-ENT
M$GDS      66**DCL-ENT
M$GETDCB      37**DCL-ENT
M$GETMOUSE      77**DCL-ENT
M$GETPM      78**DCL-ENT
M$GJOB      96**DCL-ENT
M$GLINEATTR      56**DCL-ENT
M$GOODPP      71**DCL-ENT
M$GPLATEN      64**DCL-ENT
M$GPROMPT      63**DCL-ENT
M$GTRMATTR      57**DCL-ENT
M$GTRMCTL      55**DCL-ENT
M$GTRMTAB      58**DCL-ENT
M$GVP      67**DCL-ENT
M$HELP      94**DCL-ENT
PL6.E3A0      #001=DUA$UNFID File=DUA$UNFID.:E05TSI                              TUE 07/29/97 14:49 Page:46
M$INT      86**DCL-ENT
M$INTRTN      47**DCL-ENT
M$IOQ      82**DCL-ENT
M$JOBSTATS      96**DCL-ENT
M$KEYIN      36**DCL-ENT
M$LDEV      31**DCL-ENT
M$LDTRC      44**DCL-ENT
M$LIMIT      37**DCL-ENT
M$LINES      36**DCL-ENT
M$LINK      43**DCL-ENT
M$MADMUCK      39**DCL-ENT
M$MAKUSER      70**DCL-ENT
M$MBS      38**DCL-ENT
M$MDFFLD      62**DCL-ENT
M$MERC      87**DCL-ENT
M$MERCS      88**DCL-ENT
M$MIRROR      82**DCL-ENT
M$MONINFO      99**DCL-ENT
M$MPL      72**DCL-ENT
M$NODEINFO      63**DCL-ENT
M$NXTUSR      97**DCL-ENT
M$OCMSG      95**DCL-ENT
M$OLAY      43**DCL-ENT
M$OPEN      31**DCL-ENT
M$PAS      72**DCL-ENT
M$PATHCON      95**DCL-ENT
M$PDS      66**DCL-ENT
M$PFIL      33**DCL-ENT
M$PLATEN      57**DCL-ENT
M$PRECORD      35**DCL-ENT
M$PROCNAME      48**DCL-ENT
M$PROFILE      59**DCL-ENT
M$PROMPT      55**DCL-ENT
M$RACST      39**DCL-ENT
M$RDSYSLOG      80**DCL-ENT
M$READ      32**DCL-ENT
PL6.E3A0      #001=DUA$UNFID File=DUA$UNFID.:E05TSI                              TUE 07/29/97 14:49 Page:47
M$RELDCB      37**DCL-ENT
M$RELRES      38**DCL-ENT
M$RELSTARF      40**DCL-ENT
M$REM      40**DCL-ENT
M$RENV      87**DCL-ENT
M$REQUIRE      39**DCL-ENT
M$RETRY      88**DCL-ENT
M$RETRYS      88**DCL-ENT
M$REW      34**DCL-ENT
M$RLSFLD      62**DCL-ENT
M$RPRIV      90**DCL-ENT
M$RSPP      69**DCL-ENT
M$RSWITCH      91**DCL-ENT
M$RUE      97**DCL-ENT
M$SAD      70**DCL-ENT
M$SAVE      46**DCL-ENT
M$SCON      47**DCL-ENT
M$SCREECH      45**DCL-ENT
M$SENV      87**DCL-ENT
M$SETFMA      31**DCL-ENT
M$SETFP      60**DCL-ENT
M$SINPUT      58**DCL-ENT
M$SLCFLD      63**DCL-ENT
M$SMOUSE      77**DCL-ENT
M$SMPRT      69**DCL-ENT
M$SPRIV      90**DCL-ENT
M$SSC      70**DCL-ENT
M$SSWITCH      90**DCL-ENT
M$STATE      99**DCL-ENT
M$STD      71**DCL-ENT
M$STIMER      85**DCL-ENT
M$STLPP      68**DCL-ENT
M$STRAP      85**DCL-ENT
M$STRMATTR      57**DCL-ENT
M$STRMCTL      55**DCL-ENT
M$STRMTAB      58**DCL-ENT
PL6.E3A0      #001=DUA$UNFID File=DUA$UNFID.:E05TSI                              TUE 07/29/97 14:49 Page:48
M$SYMBIO      96**DCL-ENT
M$SYSCON      82**DCL-ENT
M$SYSID     100**DCL-ENT
M$TDCLOSE      81**DCL-ENT
M$TDIO      81**DCL-ENT
M$TDOPEN      80**DCL-ENT
M$TDREQCPU      81**DCL-ENT
M$TEMPWROC      75**DCL-ENT
M$TIME      98**DCL-ENT
M$TRAP      85**DCL-ENT
M$TRMISC      60**DCL-ENT
M$TRMPRG      56**DCL-ENT
M$TRTN      89**DCL-ENT
M$TRUNC      32**DCL-ENT
M$TTIMER      85**DCL-ENT
M$UC      55**DCL
M$UMPL      72**DCL-ENT
M$UNLATCH      51**DCL-ENT
M$UNSHARE      48**DCL-ENT
M$USRFIELD      91**DCL-ENT
M$VIRTUAL      66**DCL-ENT
M$WAIT      89**DCL-ENT
M$WEOF      34**DCL-ENT
M$WRITE      32**DCL-ENT
M$WRSYSLOG      80**DCL-ENT
M$XCON      86**DCL-ENT
M$XCONRTN      47**DCL-ENT
M$XEQTIME      99**DCL-ENT
M$XFLUSH      40**DCL-ENT
M$XMOUSE      77**DCL-ENT
M$XXX      43**DCL-ENT
M$YC      45**DCL-ENT
