VERSION E05

PL6.E3A0      #001=DDC$PUTONE File=DUC$PUTONE.:E05TSI                            TUE 07/29/97 14:51 Page:1
        1        1        /*M* DDC$PUTONE - PUT A DERAIL FOR uDELTA */
        2        2        /*T***********************************************************/
        3        3        /*T*                                                         */
        4        4        /*T* Copyright (c) Bull HN Information Systems Inc., 1997    */
        5        5        /*T*                                                         */
        6        6        /*T***********************************************************/
        7        7        /*X* DMR,PLM=5,IND=5,CSU=3,EXM=0,ECU=3,MOC,DCI=5,CRT=5 */
        8        8        /*P* NAME: DDC$PUTONE.
        9        9             DESCRIPTION: PUT INSTR AT WHERE$ */
       10       10        DDC$PUTONE: PROC (WHERE$, INSTR) ALTRET;
       11       11    1   DCL WHERE$ PTR;
       12       12    1   DCL INSTR UBIN;
       13       13    1   DCL UBIN36 BASED UBIN;
       14       14        %INCLUDE DD_ERR_C;
       15      411        %INCLUDE XUH_MACRO_C;
       16      495        %INCLUDE DD_SD_M;
       17     1831        %S_D;
       18     3149        /**/
       19     3150    1        REMEMBER FAULT IN S_D.REM_ACCESS;
       20     3151    1        S_D.ACCESS = '1'B;                 /* Tell DEX$TRAP to come back here. */
       21     3152    1        WHERE$->UBIN36 = INSTR;
       22     3153    1        S_D.ACCESS = '0'B;
       23     3154    1        RETURN;
       24     3155                                                /**/
       25     3156    1   FAULT: ;                                /* We trapped on the store */
       26     3157    1        S_D.ACCESS = '0'B;
       27     3158    1        S_D.ERROR = E@ACCESS_FAULT;        /*E@ACCESS_FAULT*/
       28     3159    1        ALTRETURN;
       29     3160    1   END DDC$PUTONE;

PL6.E3A0      #001=DDC$PUTONE File=DUC$PUTONE.:E05TSI                            TUE 07/29/97 14:51 Page:2
--  Include file information  --

   DD_SD_M.:E05TOU  is referenced.
   XUH_MACRO_C.:E05TOU  is referenced.
   DD_ERR_C.:E05TOU  is referenced.
   B$JIT_C.:E05TOU  was found in the system file and is never referenced.
   CP_6_C.:E05TOU  was found in the system file and is never referenced.
      No diagnostics issued in procedure DDC$PUTONE.

   Procedure DDC$PUTONE requires 20 words for executable code.
   Procedure DDC$PUTONE requires 6 words of local(AUTO) storage.

    No errors detected in file DUC$PUTONE.:E05TSI    .

PL6.E3A0      #001=DDC$PUTONE File=DUC$PUTONE.:E05TSI                            TUE 07/29/97 14:51 Page:3

 Object Unit name= DDC$PUTONE                                 File name= DUC$PUTONE.:E05TOU
 UTS= JUL 29 '97 14:51:08.64 TUE                              Compiler= PL-6/E31         Sev=      00
 SharedLib= :SHARED_SYSTEM                                    Alt SharedLib=


    ****  Control sections  ****

 Sect   Type Bound  Init  Size OctSiz  Section name(segment info)
    0   Proc  even  none    20     24  DDC$PUTONE

    ****  Entry defs  ****

                              Check   Calling
                             calling  sequence
  Sect OctLoc Primary Altret sequence   type   Parms  Name
     0      0   yes    yes     yes      Std        2  DDC$PUTONE

  ****  Entry refs  ****

         Check        Calling
        calling       sequence
Altret sequence SRef   type   Args  Name
                       nStd      0 X66_AUTO_2
                       nStd      0 X66_ARET
                       nStd      0 X66_AALT

  ****  Data refs  ****

  Flags:  r = read only, s = secondary
Flgs Name                             Flgs Name                             Flgs Name
r    S_D$
PL6.E3A0      #001=DDC$PUTONE File=DUC$PUTONE.:E05TSI                            TUE 07/29/97 14:51 Page:4


        1        1        /*M* DDC$PUTONE - PUT A DERAIL FOR uDELTA */
        2        2        /*T***********************************************************/
        3        3        /*T*                                                         */
        4        4        /*T* Copyright (c) Bull HN Information Systems Inc., 1997    */
        5        5        /*T*                                                         */
        6        6        /*T***********************************************************/
        7        7        /*X* DMR,PLM=5,IND=5,CSU=3,EXM=0,ECU=3,MOC,DCI=5,CRT=5 */
        8        8        /*P* NAME: DDC$PUTONE.
        9        9             DESCRIPTION: PUT INSTR AT WHERE$ */
       10       10        DDC$PUTONE: PROC (WHERE$, INSTR) ALTRET;

     10  0 000000   000000 700200 xent  DDC$PUTONE   TSX0  ! X66_AUTO_2
         0 000001   000006 000002                    ZERO    6,2

       11       11    1   DCL WHERE$ PTR;
       12       12    1   DCL INSTR UBIN;
       13       13    1   DCL UBIN36 BASED UBIN;
       14       14        %INCLUDE DD_ERR_C;
       15      411        %INCLUDE XUH_MACRO_C;
       16      495        %INCLUDE DD_SD_M;
       17     1831        %S_D;
       18     3149        /**/
       19     3150    1        REMEMBER FAULT IN S_D.REM_ACCESS;

   3150  0 000002   000017 635000 0                  EAA     FAULT
         0 000003   000000 470400 xsym               LDP0    S_D$
         0 000004   000024 452500                    STP2    20,,PR0
         0 000005   000025 755100                    STA     21,,PR0

       20     3151    1        S_D.ACCESS = '1'B;                 /* Tell DEX$TRAP to come back here. */

   3151  0 000006   400000 236003                    LDQ     -131072,DU
         0 000007   000016 756100                    STQ     14,,PR0

       21     3152    1        WHERE$->UBIN36 = INSTR;

PL6.E3A0      #001=DDC$PUTONE File=DUC$PUTONE.:E05TSI                            TUE 07/29/97 14:51 Page:5
   3152  0 000010   200003 471500                    LDP1    @WHERE$,,AUTO
         0 000011   100000 473500                    LDP3    0,,PR1
         0 000012   200004 474500                    LDP4    @INSTR,,AUTO
         0 000013   400000 235100                    LDA     0,,PR4
         0 000014   300000 755100                    STA     0,,PR3

       22     3153    1        S_D.ACCESS = '0'B;

   3153  0 000015   000016 450100                    STZ     14,,PR0

       23     3154    1        RETURN;

   3154  0 000016   000000 702200 xent               TSX2  ! X66_ARET

   3153  0 000017                       FAULT        null
       24     3155                                                /**/
       25     3156    1   FAULT: ;                                /* We trapped on the store */
       26     3157    1        S_D.ACCESS = '0'B;

   3157  0 000017   000000 470400 xsym               LDP0    S_D$
         0 000020   000016 450100                    STZ     14,,PR0

       27     3158    1        S_D.ERROR = E@ACCESS_FAULT;        /*E@ACCESS_FAULT*/

   3158  0 000021   000116 235007                    LDA     78,DL
         0 000022   000013 755100                    STA     11,,PR0

       28     3159    1        ALTRETURN;

   3159  0 000023   000000 702200 xent               TSX2  ! X66_AALT
       29     3160    1   END DDC$PUTONE;

PL6.E3A0      #001=DDC$PUTONE File=DUC$PUTONE.:E05TSI                            TUE 07/29/97 14:51 Page:6
--  Include file information  --

   DD_SD_M.:E05TOU  is referenced.
   XUH_MACRO_C.:E05TOU  is referenced.
   DD_ERR_C.:E05TOU  is referenced.
   B$JIT_C.:E05TOU  was found in the system file and is never referenced.
   CP_6_C.:E05TOU  was found in the system file and is never referenced.
      No diagnostics issued in procedure DDC$PUTONE.

   Procedure DDC$PUTONE requires 20 words for executable code.
   Procedure DDC$PUTONE requires 6 words of local(AUTO) storage.

    No errors detected in file DUC$PUTONE.:E05TSI    .
PL6.E3A0      #001=DDC$PUTONE File=DUC$PUTONE.:E05TSI                            TUE 07/29/97 14:51 Page:7
          *** CROSS REFERENCE LISTING ***
**     DENOTES     IDENTIFIER DEFINITION
<<                 IDENTIFIER'S VALUE SET
>>                 IDENTIFIER'S VALUE USED
<>                 IDENTIFIER SET AND/OR USED
--                 IDENTIFIER REFERENCED
PL6.E3A0      #001=DDC$PUTONE File=DUC$PUTONE.:E05TSI                            TUE 07/29/97 14:51 Page:8
          MINI XREF LISTING

FAULT
      3153**LABEL    3150--REMEMBR
INSTR
        12**DCL        10--PROC     3152>>ASSIGN
S_D.ACCESS
      1870**DCL      3151<<ASSIGN   3153<<ASSIGN   3157<<ASSIGN
S_D.CURRENT_CHANNEL
      2783**DCL      2785--REDEF
S_D.DEBUGA
      1935**DCL      1937--REDEF
S_D.EIS
      2893**DCL      2922--REDEF
S_D.ERROR
      1864**DCL      3158<<ASSIGN
S_D.HOST_MESSAGE_BUF_REMOTE
      2826**DCL      2827--REDEF    2841--REDEF
S_D.JDE
      2440**DCL      2441--REDEF
S_D.L$.VALUE
      1993**DCL      1999--REDEF    2007--REDEF    2010--REDEF    2013--REDEF    2016--REDEF
S_D.L$.VALUE.L
      1994**DCL      1995--REDEF    1996--REDEF
S_D.L6_MESSAGE_BUF
      2847**DCL      2849--REDEF
S_D.OUTPUT
      2813**DCL      2815--REDEF
S_D.REMOTE_MSG.FNCC
      2832**DCL      2833--REDEF
S_D.REMOTE_MSG.STXC
      2828**DCL      2829--REDEF
S_D.REMOTE_MSG.SUBFNCC
      2836**DCL      2837--REDEF
PL6.E3A0      #001=DDC$PUTONE File=DUC$PUTONE.:E05TSI                            TUE 07/29/97 14:51 Page:9
S_D.REM_ACCESS
      1878**DCL      3150<<REMEMBR
S_D.SV
      1892**DCL      1913--REDEF
S_D$
      3144**DCL      1840--IMP-PTR  3150>>REMEMBR  3151>>ASSIGN   3153>>ASSIGN   3157>>ASSIGN   3158>>ASSIGN
UBIN36
        13**DCL      3152<<ASSIGN
WHERE$
        11**DCL        10--PROC     3152>>ASSIGN
PL6.E3A0      #001=DDC$PUTONE File=DUC$PUTONE.:E05TSI                            TUE 07/29/97 14:51 Page:10
              *** CROSS REFERENCE LISTING ***
    **     DENOTES     IDENTIFIER DEFINITION
    <<                 IDENTIFIER'S VALUE SET
    >>                 IDENTIFIER'S VALUE USED
    <>                 IDENTIFIER SET AND/OR USED
    --                 IDENTIFIER REFERENCED
PL6.E3A0      #001=DDC$PUTONE File=DUC$PUTONE.:E05TSI                            TUE 07/29/97 14:51 Page:11
              MINI UREF LISTING

DDC$PUTONE      10**PROC
