VERSION E05

PL6.E3A0      #001=DUH$DUMMY File=DUH$DUMMY.:E05TSI                              TUE 07/29/97 14:52 Page:1
        1        1        /*M* DUH$DUMMY - PROVIDES XDELTA DUMMIES FOR USER-DELTA AND PATCH SPACE */
        2        2        /*T***********************************************************/
        3        3        /*T*                                                         */
        4        4        /*T* Copyright (c) Bull HN Information Systems Inc., 1997    */
        5        5        /*T*                                                         */
        6        6        /*T***********************************************************/
        7        7        /*P* NAME: DUH$DUMMY.
        8        8             DESCRIPTION: PROVIDES ENTRIES FOR THOSE XDELTA ONLY ROUTINES
        9        9                   STILL CALLED BY COMMON MODULES. */
       10       10                                                /**/
       11       11        DUH$DUMMY: PROC( D1, D2, D3, D4, D5 );
       12       12                                                /**/
       13       13    1   DCL D1 UBIN;
       14       14    1   DCL D2 UBIN;
       15       15    1   DCL D3 UBIN;
       16       16    1   DCL D4 UBIN;
       17       17    1   DCL D5 UBIN;
       18       18                                                /**/
       19       19    1   DXA$GET_APT1: ENTRY( D1, D2 );
       20       20    1   DXA$DBOOT: ENTRY;
       21       21    1   DXA$TBOOT: ENTRY;
       22       22    1   DXA$USE: ENTRY;
       23       23    1   DXB$CUSE: ENTRY;
       24       24    1   DXB$UNODE: ENTRY(D1);
       25       25    1   DXB$USE: ENTRY;
       26       26    1   DXC$EOP: ENTRY;
       27       27    1   DXC$MINI: ENTRY;
       28       28    1   DXC$USERGO: ENTRY;
       29       29    1   DXI$1STIME: ENTRY;
       30       30    1   DXQ$WRTPI: ENTRY(D1, D2);
       31       31                                                /**/
       32       32    1        RETURN;
       33       33                                                /**/
       34       34    1   END DUH$DUMMY;
       35       35        %EOD;

PL6.E3A0      #001=DUH$DUMMY File=DUH$DUMMY.:E05TSI                              TUE 07/29/97 14:52 Page:2
--  Include file information  --

   B$JIT_C.:E05TOU  was found in the system file and is never referenced.
   CP_6_C.:E05TOU  was found in the system file and is never referenced.
      No diagnostics issued in procedure DUH$DUMMY.

   Procedure DUH$DUMMY requires 39 words for executable code.
   Procedure DUH$DUMMY requires 8 words of local(AUTO) storage.

PL6.E3A0      #001=DUH$DUMMY File=DUH$DUMMY.:E05TSI                              TUE 07/29/97 14:52 Page:3

 Object Unit name= DUH$DUMMY                                  File name= DUH$DUMMY.:E05TOU
 UTS= JUL 29 '97 14:52:46.64 TUE                              Compiler= PL-6/E31         Sev=      00
 SharedLib= :SHARED_SYSTEM                                    Alt SharedLib=


    ****  Control sections  ****

 Sect   Type Bound  Init  Size OctSiz  Section name(segment info)
    0   Proc  even  none    39     47  DUH$DUMMY

    ****  Entry defs  ****

                              Check   Calling
                             calling  sequence
  Sect OctLoc Primary Altret sequence   type   Parms  Name
     0      0   yes            yes      Std        5  DUH$DUMMY
     0      3                  yes      Std        2  DXA$GET_APT1
     0      6                  yes      Std        0  DXA$DBOOT
     0     11                  yes      Std        0  DXA$TBOOT
     0     14                  yes      Std        0  DXA$USE
     0     17                  yes      Std        0  DXB$CUSE
     0     22                  yes      Std        1  DXB$UNODE
     0     25                  yes      Std        0  DXB$USE
     0     30                  yes      Std        0  DXC$EOP
     0     33                  yes      Std        0  DXC$MINI
     0     36                  yes      Std        0  DXC$USERGO
     0     41                  yes      Std        0  DXI$1STIME
     0     44                  yes      Std        2  DXQ$WRTPI

  ****  Entry refs  ****

         Check        Calling
        calling       sequence
Altret sequence SRef   type   Args  Name
                       nStd      0 X66_AUTO_5
                       nStd      0 X66_ARET
PL6.E3A0      #001=DUH$DUMMY File=DUH$DUMMY.:E05TSI                              TUE 07/29/97 14:52 Page:4


        1        1        /*M* DUH$DUMMY - PROVIDES XDELTA DUMMIES FOR USER-DELTA AND PATCH SPACE */
        2        2        /*T***********************************************************/
        3        3        /*T*                                                         */
        4        4        /*T* Copyright (c) Bull HN Information Systems Inc., 1997    */
        5        5        /*T*                                                         */
        6        6        /*T***********************************************************/
        7        7        /*P* NAME: DUH$DUMMY.
        8        8             DESCRIPTION: PROVIDES ENTRIES FOR THOSE XDELTA ONLY ROUTINES
        9        9                   STILL CALLED BY COMMON MODULES. */
       10       10                                                /**/
       11       11        DUH$DUMMY: PROC( D1, D2, D3, D4, D5 );

     11  0 000000   000000 700200 xent  DUH$DUMMY    TSX0  ! X66_AUTO_5
         0 000001   000010 000005                    ZERO    8,5
         0 000002   000005 710000 0                  TRA     s:19+2

       12       12                                                /**/
       13       13    1   DCL D1 UBIN;
       14       14    1   DCL D2 UBIN;
       15       15    1   DCL D3 UBIN;
       16       16    1   DCL D4 UBIN;
       17       17    1   DCL D5 UBIN;
       18       18                                                /**/
       19       19    1   DXA$GET_APT1: ENTRY( D1, D2 );

     19  0 000003   000000 700200 xent  DXA$GET_APT1 TSX0  ! X66_AUTO_5
         0 000004   000010 000005                    ZERO    8,5
         0 000005   000010 710000 0                  TRA     s:20+2

       20       20    1   DXA$DBOOT: ENTRY;

     20  0 000006   000000 700200 xent  DXA$DBOOT    TSX0  ! X66_AUTO_5
         0 000007   000010 000005                    ZERO    8,5
         0 000010   000013 710000 0                  TRA     s:21+2

       21       21    1   DXA$TBOOT: ENTRY;
PL6.E3A0      #001=DUH$DUMMY File=DUH$DUMMY.:E05TSI                              TUE 07/29/97 14:52 Page:5

     21  0 000011   000000 700200 xent  DXA$TBOOT    TSX0  ! X66_AUTO_5
         0 000012   000010 000005                    ZERO    8,5
         0 000013   000016 710000 0                  TRA     s:22+2

       22       22    1   DXA$USE: ENTRY;

     22  0 000014   000000 700200 xent  DXA$USE      TSX0  ! X66_AUTO_5
         0 000015   000010 000005                    ZERO    8,5
         0 000016   000021 710000 0                  TRA     s:23+2

       23       23    1   DXB$CUSE: ENTRY;

     23  0 000017   000000 700200 xent  DXB$CUSE     TSX0  ! X66_AUTO_5
         0 000020   000010 000005                    ZERO    8,5
         0 000021   000024 710000 0                  TRA     s:24+2

       24       24    1   DXB$UNODE: ENTRY(D1);

     24  0 000022   000000 700200 xent  DXB$UNODE    TSX0  ! X66_AUTO_5
         0 000023   000010 000005                    ZERO    8,5
         0 000024   000027 710000 0                  TRA     s:25+2

       25       25    1   DXB$USE: ENTRY;

     25  0 000025   000000 700200 xent  DXB$USE      TSX0  ! X66_AUTO_5
         0 000026   000010 000005                    ZERO    8,5
         0 000027   000032 710000 0                  TRA     s:26+2

       26       26    1   DXC$EOP: ENTRY;

     26  0 000030   000000 700200 xent  DXC$EOP      TSX0  ! X66_AUTO_5
         0 000031   000010 000005                    ZERO    8,5
         0 000032   000035 710000 0                  TRA     s:27+2

       27       27    1   DXC$MINI: ENTRY;

PL6.E3A0      #001=DUH$DUMMY File=DUH$DUMMY.:E05TSI                              TUE 07/29/97 14:52 Page:6
     27  0 000033   000000 700200 xent  DXC$MINI     TSX0  ! X66_AUTO_5
         0 000034   000010 000005                    ZERO    8,5
         0 000035   000040 710000 0                  TRA     s:28+2

       28       28    1   DXC$USERGO: ENTRY;

     28  0 000036   000000 700200 xent  DXC$USERGO   TSX0  ! X66_AUTO_5
         0 000037   000010 000005                    ZERO    8,5
         0 000040   000043 710000 0                  TRA     s:29+2

       29       29    1   DXI$1STIME: ENTRY;

     29  0 000041   000000 700200 xent  DXI$1STIME   TSX0  ! X66_AUTO_5
         0 000042   000010 000005                    ZERO    8,5
         0 000043   000046 710000 0                  TRA     s:32

       30       30    1   DXQ$WRTPI: ENTRY(D1, D2);

     30  0 000044   000000 700200 xent  DXQ$WRTPI    TSX0  ! X66_AUTO_5
         0 000045   000010 000005                    ZERO    8,5

       31       31                                                /**/
       32       32    1        RETURN;

     32  0 000046   000000 702200 xent               TSX2  ! X66_ARET
       33       33                                                /**/
       34       34    1   END DUH$DUMMY;
       35       35        %EOD;

PL6.E3A0      #001=DUH$DUMMY File=DUH$DUMMY.:E05TSI                              TUE 07/29/97 14:52 Page:7
--  Include file information  --

   B$JIT_C.:E05TOU  was found in the system file and is never referenced.
   CP_6_C.:E05TOU  was found in the system file and is never referenced.
      No diagnostics issued in procedure DUH$DUMMY.

   Procedure DUH$DUMMY requires 39 words for executable code.
   Procedure DUH$DUMMY requires 8 words of local(AUTO) storage.
PL6.E3A0      #001=DUH$DUMMY File=DUH$DUMMY.:E05TSI                              TUE 07/29/97 14:52 Page:8
          *** CROSS REFERENCE LISTING ***
**     DENOTES     IDENTIFIER DEFINITION
<<                 IDENTIFIER'S VALUE SET
>>                 IDENTIFIER'S VALUE USED
<>                 IDENTIFIER SET AND/OR USED
--                 IDENTIFIER REFERENCED
PL6.E3A0      #001=DUH$DUMMY File=DUH$DUMMY.:E05TSI                              TUE 07/29/97 14:52 Page:9
          MINI XREF LISTING

D1
        13**DCL        11--PROC       19--ENTRY      24--ENTRY      30--ENTRY
D2
        14**DCL        11--PROC       19--ENTRY      30--ENTRY
D3
        15**DCL        11--PROC
D4
        16**DCL        11--PROC
D5
        17**DCL        11--PROC
PL6.E3A0      #001=DUH$DUMMY File=DUH$DUMMY.:E05TSI                              TUE 07/29/97 14:52 Page:10
              *** CROSS REFERENCE LISTING ***
    **     DENOTES     IDENTIFIER DEFINITION
    <<                 IDENTIFIER'S VALUE SET
    >>                 IDENTIFIER'S VALUE USED
    <>                 IDENTIFIER SET AND/OR USED
    --                 IDENTIFIER REFERENCED
PL6.E3A0      #001=DUH$DUMMY File=DUH$DUMMY.:E05TSI                              TUE 07/29/97 14:52 Page:11
              MINI UREF LISTING

DUH$DUMMY      11**PROC
DXA$DBOOT      20**ENTRY
DXA$GET_APT1      19**ENTRY
DXA$TBOOT      21**ENTRY
DXA$USE      22**ENTRY
DXB$CUSE      23**ENTRY
DXB$UNODE      24**ENTRY
DXB$USE      25**ENTRY
DXC$EOP      26**ENTRY
DXC$MINI      27**ENTRY
DXC$USERGO      28**ENTRY
DXI$1STIME      29**ENTRY
DXQ$WRTPI      30**ENTRY

PL6.E3A0      #002=DUH$DUMMYA File=DUH$DUMMY.:E05TSI                             TUE 07/29/97 14:52 Page:12
       36        1        /*T***********************************************************/
       37        2        /*T*                                                         */
       38        3        /*T* Copyright (c) Bull HN Information Systems Inc., 1997    */
       39        4        /*T*                                                         */
       40        5        /*T***********************************************************/
       41        6                                                /**/
       42        7        DUH$DUMMYA: PROC( D1, D2, D3, D4, D5 ) ALTRET;
       43        8                                                /**/
       44        9    1   DCL D1 UBIN;
       45       10    1   DCL D2 UBIN;
       46       11    1   DCL D3 UBIN;
       47       12    1   DCL D4 UBIN;
       48       13    1   DCL D5 UBIN;
       49       14                                                /**/
       50       15    1   DXA$GET_APT: ENTRY( D1, D2 ) ALTRET;
       51       16    1   DXA$VERIFY_APT: ENTRY( D1 ) ALTRET;
       52       17    1   DXA$SSF: ENTRY ALTRET;
       53       18    1   DXA$QUIT: ENTRY ALTRET;
       54       19    1   DXA$KEEP_FAULTS: ENTRY ALTRET;
       55       20                                                /**/
       56       21    1        RETURN;
       57       22                                                /**/
       58       23    1   END DUH$DUMMYA;

PL6.E3A0      #002=DUH$DUMMYA File=DUH$DUMMY.:E05TSI                             TUE 07/29/97 14:52 Page:13
--  Include file information  --

   B$JIT_C.:E05TOU  was found in the system file and is never referenced.
   CP_6_C.:E05TOU  was found in the system file and is never referenced.
      No diagnostics issued in procedure DUH$DUMMYA.

   Procedure DUH$DUMMYA requires 18 words for executable code.
   Procedure DUH$DUMMYA requires 8 words of local(AUTO) storage.

    No errors detected in file DUH$DUMMY.:E05TSI    .

PL6.E3A0      #002=DUH$DUMMYA File=DUH$DUMMY.:E05TSI                             TUE 07/29/97 14:52 Page:14

 Object Unit name= DUH$DUMMYA                                 File name= DUH$DUMMY.:E05TOU
 UTS= JUL 29 '97 14:52:48.40 TUE                              Compiler= PL-6/E31         Sev=      00
 SharedLib= :SHARED_SYSTEM                                    Alt SharedLib=


    ****  Control sections  ****

 Sect   Type Bound  Init  Size OctSiz  Section name(segment info)
    0   Proc  even  none    18     22  DUH$DUMMYA

    ****  Entry defs  ****

                              Check   Calling
                             calling  sequence
  Sect OctLoc Primary Altret sequence   type   Parms  Name
     0      0   yes    yes     yes      Std        5  DUH$DUMMYA
     0      3          yes     yes      Std        2  DXA$GET_APT
     0      6          yes     yes      Std        1  DXA$VERIFY_APT
     0     11          yes     yes      Std        0  DXA$SSF
     0     14          yes     yes      Std        0  DXA$QUIT
     0     17          yes     yes      Std        0  DXA$KEEP_FAULTS

  ****  Entry refs  ****

         Check        Calling
        calling       sequence
Altret sequence SRef   type   Args  Name
                       nStd      0 X66_AUTO_5
                       nStd      0 X66_ARET
PL6.E3A0      #002=DUH$DUMMYA File=DUH$DUMMY.:E05TSI                             TUE 07/29/97 14:52 Page:15


       36        1        /*T***********************************************************/
       37        2        /*T*                                                         */
       38        3        /*T* Copyright (c) Bull HN Information Systems Inc., 1997    */
       39        4        /*T*                                                         */
       40        5        /*T***********************************************************/
       41        6                                                /**/
       42        7        DUH$DUMMYA: PROC( D1, D2, D3, D4, D5 ) ALTRET;

      7  0 000000   000000 700200 xent  DUH$DUMMYA   TSX0  ! X66_AUTO_5
         0 000001   000010 000005                    ZERO    8,5
         0 000002   000005 710000 0                  TRA     s:15+2

       43        8                                                /**/
       44        9    1   DCL D1 UBIN;
       45       10    1   DCL D2 UBIN;
       46       11    1   DCL D3 UBIN;
       47       12    1   DCL D4 UBIN;
       48       13    1   DCL D5 UBIN;
       49       14                                                /**/
       50       15    1   DXA$GET_APT: ENTRY( D1, D2 ) ALTRET;

     15  0 000003   000000 700200 xent  DXA$GET_APT  TSX0  ! X66_AUTO_5
         0 000004   000010 000005                    ZERO    8,5
         0 000005   000010 710000 0                  TRA     s:16+2

       51       16    1   DXA$VERIFY_APT: ENTRY( D1 ) ALTRET;

     16  0 000006   000000 700200 xent  DXA$VERIFY_* TSX0  ! X66_AUTO_5
         0 000007   000010 000005                    ZERO    8,5
         0 000010   000013 710000 0                  TRA     s:17+2

       52       17    1   DXA$SSF: ENTRY ALTRET;

     17  0 000011   000000 700200 xent  DXA$SSF      TSX0  ! X66_AUTO_5
         0 000012   000010 000005                    ZERO    8,5
         0 000013   000016 710000 0                  TRA     s:18+2
PL6.E3A0      #002=DUH$DUMMYA File=DUH$DUMMY.:E05TSI                             TUE 07/29/97 14:52 Page:16

       53       18    1   DXA$QUIT: ENTRY ALTRET;

     18  0 000014   000000 700200 xent  DXA$QUIT     TSX0  ! X66_AUTO_5
         0 000015   000010 000005                    ZERO    8,5
         0 000016   000021 710000 0                  TRA     s:21

       54       19    1   DXA$KEEP_FAULTS: ENTRY ALTRET;

     19  0 000017   000000 700200 xent  DXA$KEEP_FA* TSX0  ! X66_AUTO_5
         0 000020   000010 000005                    ZERO    8,5

       55       20                                                /**/
       56       21    1        RETURN;

     21  0 000021   000000 702200 xent               TSX2  ! X66_ARET
       57       22                                                /**/
       58       23    1   END DUH$DUMMYA;

PL6.E3A0      #002=DUH$DUMMYA File=DUH$DUMMY.:E05TSI                             TUE 07/29/97 14:52 Page:17
--  Include file information  --

   B$JIT_C.:E05TOU  was found in the system file and is never referenced.
   CP_6_C.:E05TOU  was found in the system file and is never referenced.
      No diagnostics issued in procedure DUH$DUMMYA.

   Procedure DUH$DUMMYA requires 18 words for executable code.
   Procedure DUH$DUMMYA requires 8 words of local(AUTO) storage.

    No errors detected in file DUH$DUMMY.:E05TSI    .
PL6.E3A0      #002=DUH$DUMMYA File=DUH$DUMMY.:E05TSI                             TUE 07/29/97 14:52 Page:18
          *** CROSS REFERENCE LISTING ***
**     DENOTES     IDENTIFIER DEFINITION
<<                 IDENTIFIER'S VALUE SET
>>                 IDENTIFIER'S VALUE USED
<>                 IDENTIFIER SET AND/OR USED
--                 IDENTIFIER REFERENCED
PL6.E3A0      #002=DUH$DUMMYA File=DUH$DUMMY.:E05TSI                             TUE 07/29/97 14:52 Page:19
          MINI XREF LISTING

D1
         9**DCL         7--PROC       15--ENTRY      16--ENTRY
D2
        10**DCL         7--PROC       15--ENTRY
D3
        11**DCL         7--PROC
D4
        12**DCL         7--PROC
D5
        13**DCL         7--PROC
PL6.E3A0      #002=DUH$DUMMYA File=DUH$DUMMY.:E05TSI                             TUE 07/29/97 14:52 Page:20
              *** CROSS REFERENCE LISTING ***
    **     DENOTES     IDENTIFIER DEFINITION
    <<                 IDENTIFIER'S VALUE SET
    >>                 IDENTIFIER'S VALUE USED
    <>                 IDENTIFIER SET AND/OR USED
    --                 IDENTIFIER REFERENCED
PL6.E3A0      #002=DUH$DUMMYA File=DUH$DUMMY.:E05TSI                             TUE 07/29/97 14:52 Page:21
              MINI UREF LISTING

DUH$DUMMYA       7**PROC
DXA$GET_APT      15**ENTRY
DXA$KEEP_FAULTS      19**ENTRY
DXA$QUIT      18**ENTRY
DXA$SSF      17**ENTRY
DXA$VERIFY_APT      16**ENTRY
