PL6.E3A0      #002=DDI$GET_PATCH_SPACE File=DUI$1STIME.:E05TSI                   TUE 07/29/97 14:53 Page:153
      832        1        /*T***********************************************************/
      833        2        /*T*                                                         */
      834        3        /*T* Copyright (c) Bull HN Information Systems Inc., 1997    */
      835        4        /*T*                                                         */
      836        5        /*T***********************************************************/
      837        6        DDI$GET_PATCH_SPACE: PROC;
      838        7        /* Includes and Based structures */
      839        8        %INCLUDE XUH_MACRO_C;
      840       92        %INCLUDE DD_SD_M;
      841     1428        %S_D;
      842     2746        %INCLUDE B$OBJECT_C;
      843     6176        %SUB_LINKFLAGS;
      844     6185        %B$SDEF;
      845     6239        %INCLUDE DD_ERR_C;
      846     6636        %INCLUDE DD_PSUBS_C;
      847     7111        /* Local Auto */
      848     7112    1   DCL TEMP$ PTR;
      849     7113        /* Entry DCLs */
      850     7114    1   DCL DDE$ERROR ENTRY;
      851     7115    1   DCL DDK$GETMVAL ENTRY(5) ALTRET;
      852     7116    1   DCL DDS$SD_SRCH ENTRY(2) ALTRET;
      853     7117    1   DCL DFK$GETMVAL ENTRY(6) ALTRET;
      854     7118    1   DCL DUU$GETMVAL ENTRY(6) ALTRET;
      855     7119    1   DCL 1 B_PATCHIH CONSTANT,
      856     7120    1         2 SIZE UBIN BYTE UNAL INIT(LENGTHC(B_PATCHIH.TEXT)),
      857     7121    1         2 TEXT CHAR(0) INIT('B_PATCHIH');
      858     7122    1   DCL 1 B_PATCHDH CONSTANT,
      859     7123    1         2 SIZE UBIN BYTE UNAL INIT(LENGTHC(B_PATCHDH.TEXT)),
      860     7124    1         2 TEXT CHAR(0) INIT('B_PATCHDH');
      861     7125    1   DCL B_PATCHIH$ PTR CONSTANT INIT(ADDR(B_PATCHIH));
      862     7126    1   DCL B_PATCHDH$ PTR CONSTANT INIT(ADDR(B_PATCHDH));
      863     7127    1   DCL 1 G_PATCHIH CONSTANT,
      864     7128    1         2 SIZE UBIN BYTE UNAL INIT(LENGTHC(G_PATCHIH.TEXT)),
      865     7129    1         2 TEXT CHAR(0) INIT('G_PATCHIH');
      866     7130    1   DCL 1 G_PATCHDH CONSTANT,
      867     7131    1         2 SIZE UBIN BYTE UNAL INIT(LENGTHC(G_PATCHDH.TEXT)),
      868     7132    1         2 TEXT CHAR(0) INIT('G_PATCHDH');
PL6.E3A0      #002=DDI$GET_PATCH_SPACE File=DUI$1STIME.:E05TSI                   TUE 07/29/97 14:53 Page:154
      869     7133    1   DCL G_PATCHIH$ PTR CONSTANT INIT(ADDR(G_PATCHIH));
      870     7134    1   DCL G_PATCHDH$ PTR CONSTANT INIT(ADDR(G_PATCHDH));
      871     7135    1   DCL 1 G_PATCHIH_ME CONSTANT,
      872     7136    1         2 SIZE UBIN BYTE UNAL INIT(LENGTHC(G_PATCHIH_ME.TEXT)),
      873     7137    1         2 TEXT CHAR(0) INIT('G_PATCHIH_ME');
      874     7138    1   DCL 1 G_PATCHDH_ME CONSTANT,
      875     7139    1         2 SIZE UBIN BYTE UNAL INIT(LENGTHC(G_PATCHDH_ME.TEXT)),
      876     7140    1         2 TEXT CHAR(0) INIT('G_PATCHDH_ME');
      877     7141    1   DCL G_PATCHIH_ME$ PTR CONSTANT INIT(ADDR(G_PATCHIH_ME));
      878     7142    1   DCL G_PATCHDH_ME$ PTR CONSTANT INIT(ADDR(G_PATCHDH_ME));
      879     7143    1   DCL 1 G_PATCHIH_IS CONSTANT,
      880     7144    1         2 SIZE UBIN BYTE UNAL INIT(LENGTHC(G_PATCHIH_IS.TEXT)),
      881     7145    1         2 TEXT CHAR(0) INIT('G_PATCHIH_IS');
      882     7146    1   DCL 1 G_PATCHDH_IS CONSTANT,
      883     7147    1         2 SIZE UBIN BYTE UNAL INIT(LENGTHC(G_PATCHDH_IS.TEXT)),
      884     7148    1         2 TEXT CHAR(0) INIT('G_PATCHDH_IS');
      885     7149    1   DCL G_PATCHIH_IS$ PTR CONSTANT INIT(ADDR(G_PATCHIH_IS));
      886     7150    1   DCL G_PATCHDH_IS$ PTR CONSTANT INIT(ADDR(G_PATCHDH_IS));
      887     7151    1   DCL 1 G_PATCHIH_FD CONSTANT,
      888     7152    1         2 SIZE UBIN BYTE UNAL INIT(LENGTHC(G_PATCHIH_FD.TEXT)),
      889     7153    1         2 TEXT CHAR(0) INIT('G_PATCHIH_FD');
      890     7154    1   DCL 1 G_PATCHDH_FD CONSTANT,
      891     7155    1         2 SIZE UBIN BYTE UNAL INIT(LENGTHC(G_PATCHDH_FD.TEXT)),
      892     7156    1         2 TEXT CHAR(0) INIT('G_PATCHDH_FD');
      893     7157    1   DCL G_PATCHIH_FD$ PTR CONSTANT INIT(ADDR(G_PATCHIH_FD));
      894     7158    1   DCL G_PATCHDH_FD$ PTR CONSTANT INIT(ADDR(G_PATCHDH_FD));
      895     7159    1   DCL 1 G_PATCHIH_BF CONSTANT,
      896     7160    1         2 SIZE UBIN BYTE UNAL INIT(LENGTHC(G_PATCHIH_BF.TEXT)),
      897     7161    1         2 TEXT CHAR(0) INIT('G_PATCHIH_BF');
      898     7162    1   DCL 1 G_PATCHDH_BF CONSTANT,
      899     7163    1         2 SIZE UBIN BYTE UNAL INIT(LENGTHC(G_PATCHDH_BF.TEXT)),
      900     7164    1         2 TEXT CHAR(0) INIT('G_PATCHDH_BF');
      901     7165    1   DCL G_PATCHIH_BF$ PTR CONSTANT INIT(ADDR(G_PATCHIH_BF));
      902     7166    1   DCL G_PATCHDH_BF$ PTR CONSTANT INIT(ADDR(G_PATCHDH_BF));
      903     7167    1   DCL 1 NWORD ALIGNED,
      904     7168    1         2 ISADDR UBIN HALF UNAL,
      905     7169    1         2 * UBIN HALF UNAL;
PL6.E3A0      #002=DDI$GET_PATCH_SPACE File=DUI$1STIME.:E05TSI                   TUE 07/29/97 14:53 Page:155
      906     7170    1   DCL NWORD_36 REDEF NWORD UBIN(36);
      907     7171    1   DCL 1 VALUE ALIGNED,
      908     7172    1         2 SIZE UBIN,
      909     7173    1         2 OPS(0:15) UBIN,
      910     7174    1         2 OPS_L61(0:15) REDEF OPS,
      911     7175    1           3 * UBIN(32) UNAL,
      912     7176    1           3 BITS UBIN(4) UNAL,
      913     7177    1         2 OPS_L62(0:15) REDEF OPS,
      914     7178    1           3 * UBIN(20) UNAL,
      915     7179    1           3 BITS UBIN(16) UNAL;
      916     7180    1   DCL 1 NWORD_L6 ALIGNED,
      917     7181    1         2 * UBIN(16) UNAL,
      918     7182    1         2 ADDR1 UBIN(4) UNAL,
      919     7183    1         2 ADDR2 UBIN(16) UNAL;
      920     7184    1   DCL 1 NWORD_L6_PTR REDEF NWORD_L6 ALIGNED,
      921     7185    1         2 * UBIN(16) UNAL,
      922     7186    1         2 PNTR UBIN(20) UNAL;
      923     7187        /* Establish @ and # patch space, if any */
      924     7188    1        IF S_D.RUM_FEP AND (NOT S_D.SHOW)
      925     7189    2        THEN DO;
      926     7190        /* SET UP MONENT PATCH SPACE */
      927     7191    2             REMEMBER NO#ME IN S_D.REM_ACCESS;
      928     7192    2             S_D.ACCESS = '1'B;
      929     7193    2             CALL DDS$SD_SRCH(G_PATCHIH_ME$, TEMP$) ALTRET(GOT@_ME);
      930     7194    3             DO WHILE( '0'B );
      931     7195    3   GOT@_ME:          ;
      932     7196    3                  IF NOT TEMP$ -> B$SDEF.CONSTNT AND
      933     7197    3                    ((TEMP$ -> B$SDEF.AD.LFLAGS.SOURCE = %SOURCE_OBJECT#
      934     7198    3                    OR TEMP$ -> B$SDEF.AD.LFLAGS.SOURCE = %SOURCE_ULIB#)
      935     7199    3                    OR (TEMP$ -> B$SDEF.AD.LFLAGS.SOURCE = %SOURCE_REMOVED#
      936     7200    3                    AND S_D.HEAD_LIB))
      937     7201    4                  THEN DO;
      938     7202    4                       S_D.MONENT.HEAD@ = TEMP$ -> B$SDEF.AD.ISADDR;
      939     7203    4                       IF S_D.RUM
      940     7204    5                       THEN DO;
      941     7205    5                            CALL DUU$GETMVAL(VALUE, 0, S_D.MONENT.HEAD@, 0, 0, '0'B)
              7205                                     ALTRET(NO@ME);
PL6.E3A0      #002=DDI$GET_PATCH_SPACE File=DUI$1STIME.:E05TSI                   TUE 07/29/97 14:53 Page:156
      942     7206    5                            NWORD_L6.ADDR1 = VALUE.OPS_L61.BITS(0);
      943     7207    5                            NWORD_L6.ADDR2 = VALUE.OPS_L62.BITS(1);
      944     7208    5                            CALL DUU$GETMVAL(VALUE, 0, S_D.MONENT.HEAD@ + 2, 0, 0, '0'B
              7208                                     ) ALTRET(NO@ME);
      945     7209    5                            S_D.MONENT.RSPACE@ = VALUE.OPS(0);
      946     7210    5                          END;
      947     7211    5                       ELSE DO;
      948     7212    5                            CALL DFK$GETMVAL(VALUE, S_D.MONENT.HEAD@, 3, 0, '0'B, '0'B)
      949     7213    5                                 ALTRET(NO@ME);
      950     7214    5                            NWORD_L6.ADDR1 = VALUE.OPS_L61.BITS(0);
      951     7215    5                            NWORD_L6.ADDR2 = VALUE.OPS_L62.BITS(1);
      952     7216    5                            S_D.MONENT.RSPACE@ = VALUE.OPS(2);
      953     7217    5                          END;
      954     7218    4                       S_D.MONENT.NEXT@ = NWORD_L6_PTR.PNTR;
      955     7219    4                       S_D.MONENT.HIGH@ = S_D.MONENT.NEXT@ + S_D.MONENT.RSPACE@ - 1;
      956     7220    4                       IF NOT (S_D.MONENT.RSPACE@ <= 0)
      957     7221    5                       THEN DO;
      958     7222    5                            S_D.MONENT.GOT@ = '1'B;
      959     7223    5                            S_D.MONENT.DEFINED@ = '1'B;
      960     7224    5                          END;
      961     7225    5                      IF S_D.RUM_FEP_USE = C@MONENT THEN DO;
      962     7226    5                          S_D.GOT@ = S_D.MONENT.GOT@;
      963     7227    5                          S_D.DEFINED@ = S_D.MONENT.DEFINED@;
      964     7228    5                          S_D.NEXT@ = S_D.MONENT.NEXT@;
      965     7229    5                          S_D.RSPACE@ = S_D.MONENT.RSPACE@;
      966     7230    5                          S_D.HEAD@ = S_D.MONENT.HEAD@;
      967     7231    5                          S_D.HIGH@ = S_D.MONENT.HIGH@;
      968     7232    5                          END;
      969     7233    4                     END;
      970     7234    3                END;                       /* DO WHILE ('0'B)  GOT@_ME */
      971     7235    2   NO@ME:    ;
      972     7236    2             CALL DDS$SD_SRCH(G_PATCHDH_ME$, TEMP$) ALTRET(GOT#_ME);
      973     7237    3             DO WHILE( '0'B );
      974     7238    3   GOT#_ME:          ;
      975     7239    3                  IF NOT TEMP$ -> B$SDEF.CONSTNT AND
      976     7240    3                    ((TEMP$ -> B$SDEF.AD.LFLAGS.SOURCE = %SOURCE_OBJECT#
      977     7241    3                    OR TEMP$ -> B$SDEF.AD.LFLAGS.SOURCE = %SOURCE_ULIB#)
PL6.E3A0      #002=DDI$GET_PATCH_SPACE File=DUI$1STIME.:E05TSI                   TUE 07/29/97 14:53 Page:157
      978     7242    3                    OR (TEMP$ -> B$SDEF.AD.LFLAGS.SOURCE = %SOURCE_REMOVED#
      979     7243    3                    AND S_D.HEAD_LIB))
      980     7244    4                  THEN DO;
      981     7245    4                       S_D.MONENT.HEAD# = TEMP$ -> B$SDEF.AD.ISADDR;
      982     7246    4                       IF S_D.RUM
      983     7247    5                       THEN DO;
      984     7248    5                            CALL DUU$GETMVAL(VALUE, 0, S_D.MONENT.HEAD#, 0, 0, '0'B)
              7248                                     ALTRET(NO#ME);
      985     7249    5                            NWORD_L6.ADDR1 = VALUE.OPS_L61.BITS(0);
      986     7250    5                            NWORD_L6.ADDR2 = VALUE.OPS_L62.BITS(1);
      987     7251    5                            CALL DUU$GETMVAL(VALUE, 0, S_D.MONENT.HEAD# + 2, 0, 0, '0'B
              7251                                     ) ALTRET(NO#ME);
      988     7252    5                            S_D.MONENT.RSPACE# = VALUE.OPS(0);
      989     7253    5                          END;
      990     7254    5                       ELSE DO;
      991     7255    5                            CALL DFK$GETMVAL(VALUE, S_D.MONENT.HEAD#, 3, 0, '0'B, '0'B)
      992     7256    5                                 ALTRET(NO#ME);
      993     7257    5                            NWORD_L6.ADDR1 = VALUE.OPS_L61.BITS(0);
      994     7258    5                            NWORD_L6.ADDR2 = VALUE.OPS_L62.BITS(1);
      995     7259    5                            S_D.MONENT.RSPACE# = VALUE.OPS(2);
      996     7260    5                          END;
      997     7261    4                       S_D.MONENT.NEXT# = NWORD_L6_PTR.PNTR;
      998     7262    4                       S_D.MONENT.HIGH# = S_D.MONENT.NEXT# + S_D.MONENT.RSPACE# - 1;
      999     7263    4                       IF NOT (S_D.MONENT.RSPACE# <= 0)
     1000     7264    5                       THEN DO;
     1001     7265    5                            S_D.MONENT.GOT# = '1'B;
     1002     7266    5                            S_D.MONENT.DEFINED# = '1'B;
     1003     7267    5                          END;
     1004     7268    5                       IF S_D.RUM_FEP_USE = C@MONENT THEN DO;
     1005     7269    5                          S_D.GOT# = S_D.MONENT.GOT#;
     1006     7270    5                          S_D.DEFINED# = S_D.MONENT.DEFINED#;
     1007     7271    5                          S_D.NEXT# = S_D.MONENT.NEXT#;
     1008     7272    5                          S_D.RSPACE# = S_D.MONENT.RSPACE#;
     1009     7273    5                          S_D.HEAD# = S_D.MONENT.HEAD#;
     1010     7274    5                          S_D.HIGH# = S_D.MONENT.HIGH#;
     1011     7275    5                          END;
     1012     7276    4                     END;
PL6.E3A0      #002=DDI$GET_PATCH_SPACE File=DUI$1STIME.:E05TSI                   TUE 07/29/97 14:53 Page:158
     1013     7277    3                END;                       /* DO WHILE ('0'B)  GOT#_ME */
     1014     7278    2   NO#ME:    ;
     1015     7279        /* SET UP MONIS PATCH SPACE */
     1016     7280    2             REMEMBER NO#IS IN S_D.REM_ACCESS;
     1017     7281    2             S_D.ACCESS = '1'B;
     1018     7282    2             CALL DDS$SD_SRCH(G_PATCHIH_IS$, TEMP$) ALTRET(GOT@_IS);
     1019     7283    3             DO WHILE( '0'B );
     1020     7284    3   GOT@_IS:          ;
     1021     7285    3                  IF NOT TEMP$ -> B$SDEF.CONSTNT AND
     1022     7286    3                    ((TEMP$ -> B$SDEF.AD.LFLAGS.SOURCE = %SOURCE_OBJECT#
     1023     7287    3                    OR TEMP$ -> B$SDEF.AD.LFLAGS.SOURCE = %SOURCE_ULIB#)
     1024     7288    3                    OR (TEMP$ -> B$SDEF.AD.LFLAGS.SOURCE = %SOURCE_REMOVED#
     1025     7289    3                    AND S_D.HEAD_LIB))
     1026     7290    4                  THEN DO;
     1027     7291    4                       S_D.MONIS.HEAD@ = TEMP$ -> B$SDEF.AD.ISADDR;
     1028     7292    4                       IF S_D.RUM
     1029     7293    5                       THEN DO;
     1030     7294    5                            CALL DUU$GETMVAL(VALUE, 0, S_D.MONIS.HEAD@, 0, 0, '0'B)
              7294                                     ALTRET(NO@IS);
     1031     7295    5                            NWORD_L6.ADDR1 = VALUE.OPS_L61.BITS(0);
     1032     7296    5                            NWORD_L6.ADDR2 = VALUE.OPS_L62.BITS(1);
     1033     7297    5                            CALL DUU$GETMVAL(VALUE, 0, S_D.MONIS.HEAD@ + 2, 0, 0, '0'B)
              7297                                     ALTRET(NO@IS);
     1034     7298    5                            S_D.MONIS.RSPACE@ = VALUE.OPS(0);
     1035     7299    5                          END;
     1036     7300    5                       ELSE DO;
     1037     7301    5                            CALL DFK$GETMVAL(VALUE, S_D.MONIS.HEAD@, 3, 0, '0'B, '0'B)
     1038     7302    5                                 ALTRET(NO@IS);
     1039     7303    5                            NWORD_L6.ADDR1 = VALUE.OPS_L61.BITS(0);
     1040     7304    5                            NWORD_L6.ADDR2 = VALUE.OPS_L62.BITS(1);
     1041     7305    5                            S_D.MONIS.RSPACE@ = VALUE.OPS(2);
     1042     7306    5                          END;
     1043     7307    4                       S_D.MONIS.NEXT@ = NWORD_L6_PTR.PNTR;
     1044     7308    4                       S_D.MONIS.HIGH@ = S_D.MONIS.NEXT@ + S_D.MONIS.RSPACE@ - 1;
     1045     7309    4                       IF NOT (S_D.MONIS.RSPACE@ <= 0)
     1046     7310    5                       THEN DO;
     1047     7311    5                            S_D.MONIS.GOT@ = '1'B;
PL6.E3A0      #002=DDI$GET_PATCH_SPACE File=DUI$1STIME.:E05TSI                   TUE 07/29/97 14:53 Page:159
     1048     7312    5                            S_D.MONIS.DEFINED@ = '1'B;
     1049     7313    5                          END;
     1050     7314    5                       IF S_D.RUM_FEP_USE = 0 OR S_D.RUM_FEP_USE = C@MONIS THEN DO;
     1051     7315    5                          S_D.GOT@ = S_D.MONIS.GOT@;
     1052     7316    5                          S_D.DEFINED@ = S_D.MONIS.DEFINED@;
     1053     7317    5                          S_D.NEXT@ = S_D.MONIS.NEXT@;
     1054     7318    5                          S_D.RSPACE@ = S_D.MONIS.RSPACE@;
     1055     7319    5                          S_D.HEAD@ = S_D.MONIS.HEAD@;
     1056     7320    5                          S_D.HIGH@ = S_D.MONIS.HIGH@;
     1057     7321    5                          END;
     1058     7322    4                     END;
     1059     7323    3                END;                       /* DO WHILE ('0'B)  GOT@_IS */
     1060     7324    2   NO@IS:    ;
     1061     7325    2             CALL DDS$SD_SRCH(G_PATCHDH_IS$, TEMP$) ALTRET(GOT#_IS);
     1062     7326    3             DO WHILE( '0'B );
     1063     7327    3   GOT#_IS:          ;
     1064     7328    3                  IF NOT TEMP$ -> B$SDEF.CONSTNT AND
     1065     7329    3                    ((TEMP$ -> B$SDEF.AD.LFLAGS.SOURCE = %SOURCE_OBJECT#
     1066     7330    3                    OR TEMP$ -> B$SDEF.AD.LFLAGS.SOURCE = %SOURCE_ULIB#)
     1067     7331    3                    OR (TEMP$ -> B$SDEF.AD.LFLAGS.SOURCE = %SOURCE_REMOVED#
     1068     7332    3                    AND S_D.HEAD_LIB))
     1069     7333    4                  THEN DO;
     1070     7334    4                       S_D.MONIS.HEAD# = TEMP$ -> B$SDEF.AD.ISADDR;
     1071     7335    4                       IF S_D.RUM
     1072     7336    5                       THEN DO;
     1073     7337    5                            CALL DUU$GETMVAL(VALUE, 0, S_D.MONIS.HEAD#, 0, 0, '0'B)
              7337                                     ALTRET(NO#IS);
     1074     7338    5                            NWORD_L6.ADDR1 = VALUE.OPS_L61.BITS(0);
     1075     7339    5                            NWORD_L6.ADDR2 = VALUE.OPS_L62.BITS(1);
     1076     7340    5                            CALL DUU$GETMVAL(VALUE, 0, S_D.MONIS.HEAD# + 2, 0, 0, '0'B)
              7340                                     ALTRET(NO#IS);
     1077     7341    5                            S_D.MONIS.RSPACE# = VALUE.OPS(0);
     1078     7342    5                          END;
     1079     7343    5                       ELSE DO;
     1080     7344    5                            CALL DFK$GETMVAL(VALUE, S_D.MONIS.HEAD#, 3, 0, '0'B, '0'B)
     1081     7345    5                                 ALTRET(NO#IS);
     1082     7346    5                            NWORD_L6.ADDR1 = VALUE.OPS_L61.BITS(0);
PL6.E3A0      #002=DDI$GET_PATCH_SPACE File=DUI$1STIME.:E05TSI                   TUE 07/29/97 14:53 Page:160
     1083     7347    5                            NWORD_L6.ADDR2 = VALUE.OPS_L62.BITS(1);
     1084     7348    5                            S_D.MONIS.RSPACE# = VALUE.OPS(2);
     1085     7349    5                          END;
     1086     7350    4                       S_D.MONIS.NEXT# = NWORD_L6_PTR.PNTR;
     1087     7351    4                       S_D.MONIS.HIGH# = S_D.MONIS.NEXT# + S_D.MONIS.RSPACE# - 1;
     1088     7352    4                       IF NOT (S_D.MONIS.RSPACE# <= 0)
     1089     7353    5                       THEN DO;
     1090     7354    5                            S_D.MONIS.GOT# = '1'B;
     1091     7355    5                            S_D.MONIS.DEFINED# = '1'B;
     1092     7356    5                          END;
     1093     7357    5                       IF S_D.RUM_FEP_USE = 0 OR S_D.RUM_FEP_USE = C@MONIS THEN DO;
     1094     7358    5                          S_D.GOT# = S_D.MONIS.GOT#;
     1095     7359    5                          S_D.DEFINED# = S_D.MONIS.DEFINED#;
     1096     7360    5                          S_D.NEXT# = S_D.MONIS.NEXT#;
     1097     7361    5                          S_D.RSPACE# = S_D.MONIS.RSPACE#;
     1098     7362    5                          S_D.HEAD# = S_D.MONIS.HEAD#;
     1099     7363    5                          S_D.HIGH# = S_D.MONIS.HIGH#;
     1100     7364    5                          END;
     1101     7365    4                     END;
     1102     7366    3                END;                       /* DO WHILE ('0'B)  GOT#_IS */
     1103     7367    2   NO#IS:    ;
     1104     7368        /* SET UP FD PATCH SPACE */
     1105     7369    2             REMEMBER NO#FD IN S_D.REM_ACCESS;
     1106     7370    2             S_D.ACCESS = '1'B;
     1107     7371    2             CALL DDS$SD_SRCH(G_PATCHIH_FD$, TEMP$) ALTRET(GOT@_FD);
     1108     7372    3             DO WHILE( '0'B );
     1109     7373    3   GOT@_FD:          ;
     1110     7374    3                  IF NOT TEMP$ -> B$SDEF.CONSTNT AND
     1111     7375    3                    ((TEMP$ -> B$SDEF.AD.LFLAGS.SOURCE = %SOURCE_OBJECT#
     1112     7376    3                    OR TEMP$ -> B$SDEF.AD.LFLAGS.SOURCE = %SOURCE_ULIB#)
     1113     7377    3                    OR (TEMP$ -> B$SDEF.AD.LFLAGS.SOURCE = %SOURCE_REMOVED#
     1114     7378    3                    AND S_D.HEAD_LIB))
     1115     7379    4                  THEN DO;
     1116     7380    4                       S_D.FD.HEAD@ = TEMP$ -> B$SDEF.AD.ISADDR;
     1117     7381    4                       IF S_D.RUM
     1118     7382    5                       THEN DO;
     1119     7383    5                            CALL DUU$GETMVAL(VALUE, 0, S_D.FD.HEAD@, 0, 0, '0'B) ALTRET
PL6.E3A0      #002=DDI$GET_PATCH_SPACE File=DUI$1STIME.:E05TSI                   TUE 07/29/97 14:53 Page:161
              7383                                     (NO@FD);
     1120     7384    5                            NWORD_L6.ADDR1 = VALUE.OPS_L61.BITS(0);
     1121     7385    5                            NWORD_L6.ADDR2 = VALUE.OPS_L62.BITS(1);
     1122     7386    5                            CALL DUU$GETMVAL(VALUE, 0, S_D.FD.HEAD@ + 2, 0, 0, '0'B)
              7386                                     ALTRET(NO@FD);
     1123     7387    5                            S_D.FD.RSPACE@ = VALUE.OPS(0);
     1124     7388    5                          END;
     1125     7389    5                       ELSE DO;
     1126     7390    5                            CALL DFK$GETMVAL(VALUE, S_D.FD.HEAD@, 3, 0, '0'B, '0'B)
     1127     7391    5                                 ALTRET(NO@FD);
     1128     7392    5                            NWORD_L6.ADDR1 = VALUE.OPS_L61.BITS(0);
     1129     7393    5                            NWORD_L6.ADDR2 = VALUE.OPS_L62.BITS(1);
     1130     7394    5                            S_D.FD.RSPACE@ = VALUE.OPS(2);
     1131     7395    5                          END;
     1132     7396    4                       S_D.FD.NEXT@ = NWORD_L6_PTR.PNTR;
     1133     7397    4                       S_D.FD.HIGH@ = S_D.FD.NEXT@ + S_D.FD.RSPACE@ - 1;
     1134     7398    4                       IF NOT (S_D.FD.RSPACE@ <= 0)
     1135     7399    5                       THEN DO;
     1136     7400    5                            S_D.FD.GOT@ = '1'B;
     1137     7401    5                            S_D.FD.DEFINED@ = '1'B;
     1138     7402    5                          END;
     1139     7403    5                       IF S_D.RUM_FEP_USE = C@FD THEN DO;
     1140     7404    5                          S_D.GOT@ = S_D.FD.GOT@;
     1141     7405    5                          S_D.DEFINED@ = S_D.FD.DEFINED@;
     1142     7406    5                          S_D.NEXT@ = S_D.FD.NEXT@;
     1143     7407    5                          S_D.RSPACE@ = S_D.FD.RSPACE@;
     1144     7408    5                          S_D.HEAD@ = S_D.FD.HEAD@;
     1145     7409    5                          S_D.HIGH@ = S_D.FD.HIGH@;
     1146     7410    5                          END;
     1147     7411    4                     END;
     1148     7412    3                END;                       /* DO WHILE ('0'B)  GOT@_FD */
     1149     7413    2   NO@FD:    ;
     1150     7414    2             CALL DDS$SD_SRCH(G_PATCHDH_FD$, TEMP$) ALTRET(GOT#_FD);
     1151     7415    3             DO WHILE( '0'B );
     1152     7416    3   GOT#_FD:          ;
     1153     7417    3                  IF NOT TEMP$ -> B$SDEF.CONSTNT AND
     1154     7418    3                    ((TEMP$ -> B$SDEF.AD.LFLAGS.SOURCE = %SOURCE_OBJECT#
PL6.E3A0      #002=DDI$GET_PATCH_SPACE File=DUI$1STIME.:E05TSI                   TUE 07/29/97 14:53 Page:162
     1155     7419    3                    OR TEMP$ -> B$SDEF.AD.LFLAGS.SOURCE = %SOURCE_ULIB#)
     1156     7420    3                    OR (TEMP$ -> B$SDEF.AD.LFLAGS.SOURCE = %SOURCE_REMOVED#
     1157     7421    3                    AND S_D.HEAD_LIB))
     1158     7422    4                  THEN DO;
     1159     7423    4                       S_D.FD.HEAD# = TEMP$ -> B$SDEF.AD.ISADDR;
     1160     7424    4                       IF S_D.RUM
     1161     7425    5                       THEN DO;
     1162     7426    5                            CALL DUU$GETMVAL(VALUE, 0, S_D.FD.HEAD#, 0, 0, '0'B) ALTRET
              7426                                     (NO#FD);
     1163     7427    5                            NWORD_L6.ADDR1 = VALUE.OPS_L61.BITS(0);
     1164     7428    5                            NWORD_L6.ADDR2 = VALUE.OPS_L62.BITS(1);
     1165     7429    5                            CALL DUU$GETMVAL(VALUE, 0, S_D.FD.HEAD# + 2, 0, 0, '0'B)
              7429                                     ALTRET(NO#FD);
     1166     7430    5                            S_D.FD.RSPACE# = VALUE.OPS(0);
     1167     7431    5                          END;
     1168     7432    5                       ELSE DO;
     1169     7433    5                            CALL DFK$GETMVAL(VALUE, S_D.FD.HEAD#, 3, 0, '0'B, '0'B)
     1170     7434    5                                 ALTRET(NO#FD);
     1171     7435    5                            NWORD_L6.ADDR1 = VALUE.OPS_L61.BITS(0);
     1172     7436    5                            NWORD_L6.ADDR2 = VALUE.OPS_L62.BITS(1);
     1173     7437    5                            S_D.FD.RSPACE# = VALUE.OPS(2);
     1174     7438    5                          END;
     1175     7439    4                       S_D.FD.NEXT# = NWORD_L6_PTR.PNTR;
     1176     7440    4                       S_D.FD.HIGH# = S_D.FD.NEXT# + S_D.FD.RSPACE# - 1;
     1177     7441    4                       IF NOT (S_D.FD.RSPACE# <= 0)
     1178     7442    5                       THEN DO;
     1179     7443    5                            S_D.FD.GOT# = '1'B;
     1180     7444    5                            S_D.FD.DEFINED# = '1'B;
     1181     7445    5                          END;
     1182     7446    5                       IF S_D.RUM_FEP_USE = C@FD THEN DO;
     1183     7447    5                          S_D.GOT# = S_D.FD.GOT#;
     1184     7448    5                          S_D.DEFINED# = S_D.FD.DEFINED#;
     1185     7449    5                          S_D.NEXT# = S_D.FD.NEXT#;
     1186     7450    5                          S_D.RSPACE# = S_D.FD.RSPACE#;
     1187     7451    5                          S_D.HEAD# = S_D.FD.HEAD#;
     1188     7452    5                          S_D.HIGH# = S_D.FD.HIGH#;
     1189     7453    5                          END;
PL6.E3A0      #002=DDI$GET_PATCH_SPACE File=DUI$1STIME.:E05TSI                   TUE 07/29/97 14:53 Page:163
     1190     7454    4                     END;
     1191     7455    3                END;                       /* DO WHILE ('0'B)  GOT#_FD */
     1192     7456    2   NO#FD:    ;
     1193     7457        /* SET UP BF PATCH SPACE */
     1194     7458    2             REMEMBER NO#BF IN S_D.REM_ACCESS;
     1195     7459    2             S_D.ACCESS = '1'B;
     1196     7460    2             CALL DDS$SD_SRCH(G_PATCHIH_BF$, TEMP$) ALTRET(GOT@_BF);
     1197     7461    3             DO WHILE( '0'B );
     1198     7462    3   GOT@_BF:          ;
     1199     7463    3                  IF NOT TEMP$ -> B$SDEF.CONSTNT AND
     1200     7464    3                    ((TEMP$ -> B$SDEF.AD.LFLAGS.SOURCE = %SOURCE_OBJECT#
     1201     7465    3                    OR TEMP$ -> B$SDEF.AD.LFLAGS.SOURCE = %SOURCE_ULIB#)
     1202     7466    3                    OR (TEMP$ -> B$SDEF.AD.LFLAGS.SOURCE = %SOURCE_REMOVED#
     1203     7467    3                    AND S_D.HEAD_LIB))
     1204     7468    4                  THEN DO;
     1205     7469    4                       S_D.BF.HEAD@ = TEMP$ -> B$SDEF.AD.ISADDR;
     1206     7470    4                       IF S_D.RUM
     1207     7471    5                       THEN DO;
     1208     7472    5                            CALL DUU$GETMVAL(VALUE, 0, S_D.BF.HEAD@, 0, 0, '0'B) ALTRET
              7472                                     (NO@BF);
     1209     7473    5                            NWORD_L6.ADDR1 = VALUE.OPS_L61.BITS(0);
     1210     7474    5                            NWORD_L6.ADDR2 = VALUE.OPS_L62.BITS(1);
     1211     7475    5                            CALL DUU$GETMVAL(VALUE, 0, S_D.BF.HEAD@ + 2, 0, 0, '0'B)
              7475                                     ALTRET(NO@BF);
     1212     7476    5                            S_D.BF.RSPACE@ = VALUE.OPS(0);
     1213     7477    5                          END;
     1214     7478    5                       ELSE DO;
     1215     7479    5                            CALL DFK$GETMVAL(VALUE, S_D.BF.HEAD@, 3, 0, '0'B, '0'B)
     1216     7480    5                                 ALTRET(NO@BF);
     1217     7481    5                            NWORD_L6.ADDR1 = VALUE.OPS_L61.BITS(0);
     1218     7482    5                            NWORD_L6.ADDR2 = VALUE.OPS_L62.BITS(1);
     1219     7483    5                            S_D.BF.RSPACE@ = VALUE.OPS(2);
     1220     7484    5                          END;
     1221     7485    4                       S_D.BF.NEXT@ = NWORD_L6_PTR.PNTR;
     1222     7486    4                       S_D.BF.HIGH@ = S_D.BF.NEXT@ + S_D.BF.RSPACE@ - 1;
     1223     7487    4                       IF NOT (S_D.BF.RSPACE@ <= 0)
     1224     7488    5                       THEN DO;
PL6.E3A0      #002=DDI$GET_PATCH_SPACE File=DUI$1STIME.:E05TSI                   TUE 07/29/97 14:53 Page:164
     1225     7489    5                            S_D.BF.GOT@ = '1'B;
     1226     7490    5                            S_D.BF.DEFINED@ = '1'B;
     1227     7491    5                          END;
     1228     7492    5                       IF S_D.RUM_FEP_USE = C@BF THEN DO;
     1229     7493    5                          S_D.GOT@ = S_D.BF.GOT@;
     1230     7494    5                          S_D.DEFINED@ = S_D.BF.DEFINED@;
     1231     7495    5                          S_D.NEXT@ = S_D.BF.NEXT@;
     1232     7496    5                          S_D.RSPACE@ = S_D.BF.RSPACE@;
     1233     7497    5                          S_D.HEAD@ = S_D.BF.HEAD@;
     1234     7498    5                          S_D.HIGH@ = S_D.BF.HIGH@;
     1235     7499    5                          END;
     1236     7500    4                     END;
     1237     7501    3                END;                       /* DO WHILE ('0'B)  GOT@_BF */
     1238     7502    2   NO@BF:    ;
     1239     7503    2             CALL DDS$SD_SRCH(G_PATCHDH_BF$, TEMP$) ALTRET(GOT#_BF);
     1240     7504    3             DO WHILE( '0'B );
     1241     7505    3   GOT#_BF:          ;
     1242     7506    3                  IF NOT TEMP$ -> B$SDEF.CONSTNT AND
     1243     7507    3                    ((TEMP$ -> B$SDEF.AD.LFLAGS.SOURCE = %SOURCE_OBJECT#
     1244     7508    3                    OR TEMP$ -> B$SDEF.AD.LFLAGS.SOURCE = %SOURCE_ULIB#)
     1245     7509    3                    OR (TEMP$ -> B$SDEF.AD.LFLAGS.SOURCE = %SOURCE_REMOVED#
     1246     7510    3                    AND S_D.HEAD_LIB))
     1247     7511    4                  THEN DO;
     1248     7512    4                       S_D.BF.HEAD# = TEMP$ -> B$SDEF.AD.ISADDR;
     1249     7513    4                       IF S_D.RUM
     1250     7514    5                       THEN DO;
     1251     7515    5                            CALL DUU$GETMVAL(VALUE, 0, S_D.BF.HEAD#, 0, 0, '0'B) ALTRET
              7515                                     (NO#BF);
     1252     7516    5                            NWORD_L6.ADDR1 = VALUE.OPS_L61.BITS(0);
     1253     7517    5                            NWORD_L6.ADDR2 = VALUE.OPS_L62.BITS(1);
     1254     7518    5                            CALL DUU$GETMVAL(VALUE, 0, S_D.BF.HEAD# + 2, 0, 0, '0'B)
              7518                                     ALTRET(NO#BF);
     1255     7519    5                            S_D.BF.RSPACE# = VALUE.OPS(0);
     1256     7520    5                          END;
     1257     7521    5                       ELSE DO;
     1258     7522    5                            CALL DFK$GETMVAL(VALUE, S_D.BF.HEAD#, 3, 0, '0'B, '0'B)
     1259     7523    5                                 ALTRET(NO#BF);
PL6.E3A0      #002=DDI$GET_PATCH_SPACE File=DUI$1STIME.:E05TSI                   TUE 07/29/97 14:53 Page:165
     1260     7524    5                            NWORD_L6.ADDR1 = VALUE.OPS_L61.BITS(0);
     1261     7525    5                            NWORD_L6.ADDR2 = VALUE.OPS_L62.BITS(1);
     1262     7526    5                            S_D.BF.RSPACE# = VALUE.OPS(2);
     1263     7527    5                          END;
     1264     7528    4                       S_D.BF.NEXT# = NWORD_L6_PTR.PNTR;
     1265     7529    4                       S_D.BF.HIGH# = S_D.BF.NEXT# + S_D.BF.RSPACE# - 1;
     1266     7530    4                       IF NOT (S_D.BF.RSPACE# <= 0)
     1267     7531    5                       THEN DO;
     1268     7532    5                            S_D.BF.GOT# = '1'B;
     1269     7533    5                            S_D.BF.DEFINED# = '1'B;
     1270     7534    5                          END;
     1271     7535    5                       IF S_D.RUM_FEP_USE = C@BF THEN DO;
     1272     7536    5                          S_D.GOT# = S_D.BF.GOT#;
     1273     7537    5                          S_D.DEFINED# = S_D.BF.DEFINED#;
     1274     7538    5                          S_D.NEXT# = S_D.BF.NEXT#;
     1275     7539    5                          S_D.RSPACE# = S_D.BF.RSPACE#;
     1276     7540    5                          S_D.HEAD# = S_D.BF.HEAD#;
     1277     7541    5                          S_D.HIGH# = S_D.BF.HIGH#;
     1278     7542    5                          END;
     1279     7543    4                     END;
     1280     7544    3                END;                       /* DO WHILE ('0'B)  GOT#_BF */
     1281     7545    2   NO#BF:    ;
     1282     7546    2             GOTO NO#NO;
     1283     7547    2          END;
     1284     7548    1        IF NOT (S_D.ANLZ_FILE OR S_D.SHOW)
     1285     7549    2        THEN DO;
     1286     7550    2             REMEMBER NO#NO IN S_D.REM_ACCESS;
     1287     7551    2             S_D.ACCESS = '1'B;
     1288     7552    2             IF S_D.ONE_TO_TWO.EXEC_DOMAIN = %HOST
     1289     7553    2             THEN CALL DDS$SD_SRCH(B_PATCHIH$, TEMP$) ALTRET(GOT@);
     1290     7554    2             ELSE IF S_D.ONE_TO_TWO.EXEC_DOMAIN = %L6
     1291     7555    2                  THEN CALL DDS$SD_SRCH(G_PATCHIH$, TEMP$) ALTRET(GOT@);
     1292     7556    3                  ELSE DO;
     1293     7557    3                       S_D.ERROR = E@DELBUG;  /* E@DELBUG */
     1294     7558    3                       CALL DDE$ERROR;
     1295     7559    3                       GOTO NO@NO;
     1296     7560    3                     END;
PL6.E3A0      #002=DDI$GET_PATCH_SPACE File=DUI$1STIME.:E05TSI                   TUE 07/29/97 14:53 Page:166
     1297     7561    3             DO WHILE( '0'B );
     1298     7562    3   GOT@:          ;
     1299     7563    3                  IF NOT TEMP$ -> B$SDEF.CONSTNT AND
     1300     7564    3                    ((TEMP$ -> B$SDEF.AD.LFLAGS.SOURCE = %SOURCE_OBJECT#
     1301     7565    3                    OR TEMP$ -> B$SDEF.AD.LFLAGS.SOURCE = %SOURCE_ULIB#)
     1302     7566    3                    OR (TEMP$ -> B$SDEF.AD.LFLAGS.SOURCE = %SOURCE_REMOVED#
     1303     7567    3                    AND S_D.HEAD_LIB))
     1304     7568    4                  THEN DO;
     1305     7569    4                       S_D.HEAD@ = TEMP$ -> B$SDEF.AD.ISADDR;
     1306     7570    4                       IF S_D.RUM
     1307     7571    5                       THEN DO;
     1308     7572    5                            CALL DUU$GETMVAL(VALUE, 0, S_D.HEAD@, 0, 0, '0'B) ALTRET(
              7572                                     NO@NO);
     1309     7573    5                            IF S_D.ONE_TO_TWO.EXEC_DOMAIN = %HOST
     1310     7574    5                            THEN NWORD_36 = VALUE.OPS(0);
     1311     7575    6                            ELSE DO;
     1312     7576    6                                 NWORD_L6.ADDR1 = VALUE.OPS_L61.BITS(0);
     1313     7577    6                                 NWORD_L6.ADDR2 = VALUE.OPS_L62.BITS(1);
     1314     7578    6                               END;
     1315     7579    5                            IF S_D.ONE_TO_TWO.EXEC_DOMAIN = %HOST
     1316     7580    5                            THEN CALL DUU$GETMVAL(VALUE, 0, S_D.HEAD@ + 1, 0, 0, '0'B)
              7580                                     ALTRET(NO@NO);
     1317     7581    5                            ELSE CALL DUU$GETMVAL(VALUE, 0, S_D.HEAD@ + 2, 0, 0, '0'B)
              7581                                     ALTRET(NO@NO);
     1318     7582    5                            S_D.RSPACE@ = VALUE.OPS(0);
     1319     7583    5                          END;
     1320     7584    5                       ELSE DO;
     1321     7585    5                            IF S_D.ONE_TO_TWO.EXEC_DOMAIN = %HOST
     1322     7586    6                            THEN DO;
     1323     7587    6                                 CALL DDK$GETMVAL(NWORD, S_D.HEAD@, 3, 0, '0'B) ALTRET(
              7587                                          NO@NO);
     1324     7588    6                                 CALL DDK$GETMVAL(S_D.RSPACE@, S_D.HEAD@ + 1, 3, 0,
              7588                                          '0'B) ALTRET(NO@NO);
     1325     7589    6                               END;
     1326     7590    6                            ELSE DO;
     1327     7591    6                                 CALL DFK$GETMVAL(VALUE, S_D.HEAD@, 3, 0, '0'B, '0'B)
     1328     7592    6                                      ALTRET(NO@NO);
PL6.E3A0      #002=DDI$GET_PATCH_SPACE File=DUI$1STIME.:E05TSI                   TUE 07/29/97 14:53 Page:167
     1329     7593    6                                 NWORD_L6.ADDR1 = VALUE.OPS_L61.BITS(0);
     1330     7594    6                                 NWORD_L6.ADDR2 = VALUE.OPS_L62.BITS(1);
     1331     7595    6                                 S_D.RSPACE@ = VALUE.OPS(2);
     1332     7596    6                               END;
     1333     7597    5                          END;
     1334     7598    4                       IF S_D.ONE_TO_TWO.EXEC_DOMAIN = %HOST
     1335     7599
     1336     7600    4                       THEN S_D.NEXT@ = NWORD.ISADDR;
     1337     7601    4                       ELSE S_D.NEXT@ = NWORD_L6_PTR.PNTR;
     1338     7602    4                       S_D.HIGH@ = S_D.NEXT@ + S_D.RSPACE@ - 1;
     1339     7603    4                       IF NOT (S_D.RSPACE@ <= 0)
     1340     7604    5                       THEN DO;
     1341     7605    5                            S_D.GOT@ = '1'B;
     1342     7606    5                            S_D.DEFINED@ = '1'B;
     1343     7607    5                          END;
     1344     7608    4                     END;
     1345     7609    3                END;                       /* DO WHILE ('0'B)  GOT@ */
     1346     7610    2   NO@NO:    ;
     1347     7611    2             IF S_D.ONE_TO_TWO.EXEC_DOMAIN = %HOST
     1348     7612    2             THEN CALL DDS$SD_SRCH(B_PATCHDH$, TEMP$) ALTRET(GOT#);
     1349     7613    2             ELSE IF S_D.ONE_TO_TWO.EXEC_DOMAIN = %L6
     1350     7614    2                  THEN CALL DDS$SD_SRCH(G_PATCHDH$, TEMP$) ALTRET(GOT#);
     1351     7615    3                  ELSE DO;
     1352     7616    3                       S_D.ERROR = E@DELBUG;  /* E@DELBUG */
     1353     7617    3                       CALL DDE$ERROR;
     1354     7618    3                       GOTO NO#NO;
     1355     7619    3                     END;
     1356     7620    3             DO WHILE( '0'B );
     1357     7621    3   GOT#:          ;
     1358     7622    3                  IF NOT TEMP$ -> B$SDEF.CONSTNT AND
     1359     7623    3                    ((TEMP$ -> B$SDEF.AD.LFLAGS.SOURCE = %SOURCE_OBJECT#
     1360     7624    3                    OR TEMP$ -> B$SDEF.AD.LFLAGS.SOURCE = %SOURCE_ULIB#)
     1361     7625    3                    OR (TEMP$ -> B$SDEF.AD.LFLAGS.SOURCE = %SOURCE_REMOVED#
     1362     7626    3                    AND S_D.HEAD_LIB))
     1363     7627    4                  THEN DO;
     1364     7628    4                       S_D.HEAD# = TEMP$ -> B$SDEF.AD.ISADDR;
     1365     7629    4                       IF S_D.RUM
PL6.E3A0      #002=DDI$GET_PATCH_SPACE File=DUI$1STIME.:E05TSI                   TUE 07/29/97 14:53 Page:168
     1366     7630    5                       THEN DO;
     1367     7631    5                            CALL DUU$GETMVAL(VALUE, 0, S_D.HEAD#, 0, 0, '0'B) ALTRET(
              7631                                     NO#NO);
     1368     7632    5                            IF S_D.ONE_TO_TWO.EXEC_DOMAIN = %HOST
     1369     7633    5                            THEN NWORD_36 = VALUE.OPS(0);
     1370     7634    6                            ELSE DO;
     1371     7635    6                                 NWORD_L6.ADDR1 = VALUE.OPS_L61.BITS(0);
     1372     7636    6                                 NWORD_L6.ADDR2 = VALUE.OPS_L62.BITS(1);
     1373     7637    6                               END;
     1374     7638    5                            IF S_D.ONE_TO_TWO.EXEC_DOMAIN = %HOST
     1375     7639    5                            THEN CALL DUU$GETMVAL(VALUE, 0, S_D.HEAD# + 1, 0, 0, '0'B)
              7639                                     ALTRET(NO#NO);
     1376     7640    5                            ELSE CALL DUU$GETMVAL(VALUE, 0, S_D.HEAD# + 2, 0, 0, '0'B)
              7640                                     ALTRET(NO#NO);
     1377     7641    5                            S_D.RSPACE# = VALUE.OPS(0);
     1378     7642    5                          END;
     1379     7643    5                       ELSE DO;
     1380     7644    5                            IF S_D.ONE_TO_TWO.EXEC_DOMAIN = %HOST
     1381     7645    6                            THEN DO;
     1382     7646    6                                 CALL DDK$GETMVAL(NWORD, S_D.HEAD#, 3, 0, '0'B) ALTRET(
              7646                                          NO#NO);
     1383     7647    6                                 CALL DDK$GETMVAL(S_D.RSPACE#, S_D.HEAD# + 1, 3, 0,
              7647                                          '0'B) ALTRET(NO#NO);
     1384     7648    6                               END;
     1385     7649    6                            ELSE DO;
     1386     7650    6                                 CALL DFK$GETMVAL(VALUE, S_D.HEAD#, 3, 0, '0'B, '0'B)
     1387     7651    6                                      ALTRET(NO#NO);
     1388     7652    6                                 NWORD_L6.ADDR1 = VALUE.OPS_L61.BITS(0);
     1389     7653    6                                 NWORD_L6.ADDR2 = VALUE.OPS_L62.BITS(1);
     1390     7654    6                                 S_D.RSPACE# = VALUE.OPS(2);
     1391     7655    6                               END;
     1392     7656    5                          END;
     1393     7657    4                       IF S_D.ONE_TO_TWO.EXEC_DOMAIN = %HOST
     1394     7658
     1395     7659    4                       THEN S_D.NEXT# = NWORD.ISADDR;
     1396     7660    4                       ELSE S_D.NEXT# = NWORD_L6_PTR.PNTR;
     1397     7661    4                       S_D.HIGH# = S_D.NEXT# + S_D.RSPACE# - 1;
PL6.E3A0      #002=DDI$GET_PATCH_SPACE File=DUI$1STIME.:E05TSI                   TUE 07/29/97 14:53 Page:169
     1398     7662    4                       IF NOT (S_D.RSPACE# <= 0)
     1399     7663    5                       THEN DO;
     1400     7664    5                            S_D.GOT# = '1'B;
     1401     7665    5                            S_D.DEFINED# = '1'B;
     1402     7666    5                          END;
     1403     7667    4                     END;
     1404     7668    3                END;                       /* DO WHILE ('0'B)  GOT# */
     1405     7669    2   NO#NO:    ;
     1406     7670    2           END;                            /* Do if not ANLZ_FILE */
     1407     7671    1   END DDI$GET_PATCH_SPACE;
     1408     7672        %EOD;

PL6.E3A0      #002=DDI$GET_PATCH_SPACE File=DUI$1STIME.:E05TSI                   TUE 07/29/97 14:53 Page:170
--  Include file information  --

   DD_PSUBS_C.:E05TOU  is referenced.
   DD_ERR_C.:E05TOU  is referenced.
   B$OBJECT_C.:E05TOU  is referenced.
   DD_SD_M.:E05TOU  is referenced.
   XUH_MACRO_C.:E05TOU  is referenced.
   B$JIT_C.:E05TOU  was found in the system file and is never referenced.
   CP_6_C.:E05TOU  was found in the system file and is never referenced.
      No diagnostics issued in procedure DDI$GET_PATCH_SPACE.

   Procedure DDI$GET_PATCH_SPACE requires 1476 words for executable code.
   Procedure DDI$GET_PATCH_SPACE requires 32 words of local(AUTO) storage.

PL6.E3A0      #002=DDI$GET_PATCH_SPACE File=DUI$1STIME.:E05TSI                   TUE 07/29/97 14:53 Page:171

 Object Unit name= DDI$GET_PATCH_SPACE                        File name= DUI$1STIME.:E05TOU
 UTS= JUL 29 '97 14:53:54.16 TUE                              Compiler= PL-6/E31         Sev=      00
 SharedLib= :SHARED_SYSTEM                                    Alt SharedLib=


    ****  Control sections  ****

 Sect   Type Bound  Init  Size OctSiz  Section name(segment info)
    0  RoData even  UTS     56     70  DDI$GET_PATCH_SPACE
    1   Proc  even  none  1476   2704  DDI$GET_PATCH_SPACE
    2  RoData even  none    19     23  DDI$GET_PATCH_SPACE

    ****  Entry defs  ****

                              Check   Calling
                             calling  sequence
  Sect OctLoc Primary Altret sequence   type   Parms  Name
     1      0   yes            yes      Std        0  DDI$GET_PATCH_SPACE

  ****  Entry refs  ****

         Check        Calling
        calling       sequence
Altret sequence SRef   type   Args  Name
 yes     yes           Std       2 DDS$SD_SRCH
 yes     yes           Std       6 DUU$GETMVAL
 yes     yes           Std       5 DDK$GETMVAL
 yes     yes           Std       6 DFK$GETMVAL
         yes           Std       0 DDE$ERROR
                       nStd      0 X66_AUTO_0
                       Std       0 B_CONSPOOL_D
                       nStd      0 X66_ARET
PL6.E3A0      #002=DDI$GET_PATCH_SPACE File=DUI$1STIME.:E05TSI                   TUE 07/29/97 14:53 Page:172

  ****  Data refs  ****

  Flags:  r = read only, s = secondary
Flgs Name                             Flgs Name                             Flgs Name
r    S_D$                                  B_VECTNIL

  ****  Segment refs  ****

  Flags:  r = read only, s = secondary
Flgs Name                             Flgs Name                             Flgs Name
     ISSID
PL6.E3A0      #002=DDI$GET_PATCH_SPACE File=DUI$1STIME.:E05TSI                   TUE 07/29/97 14:53 Page:173


      832        1        /*T***********************************************************/
      833        2        /*T*                                                         */
      834        3        /*T* Copyright (c) Bull HN Information Systems Inc., 1997    */
      835        4        /*T*                                                         */
      836        5        /*T***********************************************************/
      837        6        DDI$GET_PATCH_SPACE: PROC;

      6  1 000000   000000 700200 xent  DDI$GET_PAT* TSX0  ! X66_AUTO_0
         1 000001   000040 000000                    ZERO    32,0

      838        7        /* Includes and Based structures */
      839        8        %INCLUDE XUH_MACRO_C;
      840       92        %INCLUDE DD_SD_M;
      841     1428        %S_D;
      842     2746        %INCLUDE B$OBJECT_C;
      843     6176        %SUB_LINKFLAGS;
      844     6185        %B$SDEF;
      845     6239        %INCLUDE DD_ERR_C;
      846     6636        %INCLUDE DD_PSUBS_C;
      847     7111        /* Local Auto */
      848     7112    1   DCL TEMP$ PTR;
      849     7113        /* Entry DCLs */
      850     7114    1   DCL DDE$ERROR ENTRY;
      851     7115    1   DCL DDK$GETMVAL ENTRY(5) ALTRET;
      852     7116    1   DCL DDS$SD_SRCH ENTRY(2) ALTRET;
      853     7117    1   DCL DFK$GETMVAL ENTRY(6) ALTRET;
      854     7118    1   DCL DUU$GETMVAL ENTRY(6) ALTRET;
      855     7119    1   DCL 1 B_PATCHIH CONSTANT,
      856     7120    1         2 SIZE UBIN BYTE UNAL INIT(LENGTHC(B_PATCHIH.TEXT)),
      857     7121    1         2 TEXT CHAR(0) INIT('B_PATCHIH');
      858     7122    1   DCL 1 B_PATCHDH CONSTANT,
      859     7123    1         2 SIZE UBIN BYTE UNAL INIT(LENGTHC(B_PATCHDH.TEXT)),
      860     7124    1         2 TEXT CHAR(0) INIT('B_PATCHDH');
      861     7125    1   DCL B_PATCHIH$ PTR CONSTANT INIT(ADDR(B_PATCHIH));
      862     7126    1   DCL B_PATCHDH$ PTR CONSTANT INIT(ADDR(B_PATCHDH));
      863     7127    1   DCL 1 G_PATCHIH CONSTANT,
PL6.E3A0      #002=DDI$GET_PATCH_SPACE File=DUI$1STIME.:E05TSI                   TUE 07/29/97 14:53 Page:174
      864     7128    1         2 SIZE UBIN BYTE UNAL INIT(LENGTHC(G_PATCHIH.TEXT)),
      865     7129    1         2 TEXT CHAR(0) INIT('G_PATCHIH');
      866     7130    1   DCL 1 G_PATCHDH CONSTANT,
      867     7131    1         2 SIZE UBIN BYTE UNAL INIT(LENGTHC(G_PATCHDH.TEXT)),
      868     7132    1         2 TEXT CHAR(0) INIT('G_PATCHDH');
      869     7133    1   DCL G_PATCHIH$ PTR CONSTANT INIT(ADDR(G_PATCHIH));
      870     7134    1   DCL G_PATCHDH$ PTR CONSTANT INIT(ADDR(G_PATCHDH));
      871     7135    1   DCL 1 G_PATCHIH_ME CONSTANT,
      872     7136    1         2 SIZE UBIN BYTE UNAL INIT(LENGTHC(G_PATCHIH_ME.TEXT)),
      873     7137    1         2 TEXT CHAR(0) INIT('G_PATCHIH_ME');
      874     7138    1   DCL 1 G_PATCHDH_ME CONSTANT,
      875     7139    1         2 SIZE UBIN BYTE UNAL INIT(LENGTHC(G_PATCHDH_ME.TEXT)),
      876     7140    1         2 TEXT CHAR(0) INIT('G_PATCHDH_ME');
      877     7141    1   DCL G_PATCHIH_ME$ PTR CONSTANT INIT(ADDR(G_PATCHIH_ME));
      878     7142    1   DCL G_PATCHDH_ME$ PTR CONSTANT INIT(ADDR(G_PATCHDH_ME));
      879     7143    1   DCL 1 G_PATCHIH_IS CONSTANT,
      880     7144    1         2 SIZE UBIN BYTE UNAL INIT(LENGTHC(G_PATCHIH_IS.TEXT)),
      881     7145    1         2 TEXT CHAR(0) INIT('G_PATCHIH_IS');
      882     7146    1   DCL 1 G_PATCHDH_IS CONSTANT,
      883     7147    1         2 SIZE UBIN BYTE UNAL INIT(LENGTHC(G_PATCHDH_IS.TEXT)),
      884     7148    1         2 TEXT CHAR(0) INIT('G_PATCHDH_IS');
      885     7149    1   DCL G_PATCHIH_IS$ PTR CONSTANT INIT(ADDR(G_PATCHIH_IS));
      886     7150    1   DCL G_PATCHDH_IS$ PTR CONSTANT INIT(ADDR(G_PATCHDH_IS));
      887     7151    1   DCL 1 G_PATCHIH_FD CONSTANT,
      888     7152    1         2 SIZE UBIN BYTE UNAL INIT(LENGTHC(G_PATCHIH_FD.TEXT)),
      889     7153    1         2 TEXT CHAR(0) INIT('G_PATCHIH_FD');
      890     7154    1   DCL 1 G_PATCHDH_FD CONSTANT,
      891     7155    1         2 SIZE UBIN BYTE UNAL INIT(LENGTHC(G_PATCHDH_FD.TEXT)),
      892     7156    1         2 TEXT CHAR(0) INIT('G_PATCHDH_FD');
      893     7157    1   DCL G_PATCHIH_FD$ PTR CONSTANT INIT(ADDR(G_PATCHIH_FD));
      894     7158    1   DCL G_PATCHDH_FD$ PTR CONSTANT INIT(ADDR(G_PATCHDH_FD));
      895     7159    1   DCL 1 G_PATCHIH_BF CONSTANT,
      896     7160    1         2 SIZE UBIN BYTE UNAL INIT(LENGTHC(G_PATCHIH_BF.TEXT)),
      897     7161    1         2 TEXT CHAR(0) INIT('G_PATCHIH_BF');
      898     7162    1   DCL 1 G_PATCHDH_BF CONSTANT,
      899     7163    1         2 SIZE UBIN BYTE UNAL INIT(LENGTHC(G_PATCHDH_BF.TEXT)),
      900     7164    1         2 TEXT CHAR(0) INIT('G_PATCHDH_BF');
PL6.E3A0      #002=DDI$GET_PATCH_SPACE File=DUI$1STIME.:E05TSI                   TUE 07/29/97 14:53 Page:175
      901     7165    1   DCL G_PATCHIH_BF$ PTR CONSTANT INIT(ADDR(G_PATCHIH_BF));
      902     7166    1   DCL G_PATCHDH_BF$ PTR CONSTANT INIT(ADDR(G_PATCHDH_BF));
      903     7167    1   DCL 1 NWORD ALIGNED,
      904     7168    1         2 ISADDR UBIN HALF UNAL,
      905     7169    1         2 * UBIN HALF UNAL;
      906     7170    1   DCL NWORD_36 REDEF NWORD UBIN(36);
      907     7171    1   DCL 1 VALUE ALIGNED,
      908     7172    1         2 SIZE UBIN,
      909     7173    1         2 OPS(0:15) UBIN,
      910     7174    1         2 OPS_L61(0:15) REDEF OPS,
      911     7175    1           3 * UBIN(32) UNAL,
      912     7176    1           3 BITS UBIN(4) UNAL,
      913     7177    1         2 OPS_L62(0:15) REDEF OPS,
      914     7178    1           3 * UBIN(20) UNAL,
      915     7179    1           3 BITS UBIN(16) UNAL;
      916     7180    1   DCL 1 NWORD_L6 ALIGNED,
      917     7181    1         2 * UBIN(16) UNAL,
      918     7182    1         2 ADDR1 UBIN(4) UNAL,
      919     7183    1         2 ADDR2 UBIN(16) UNAL;
      920     7184    1   DCL 1 NWORD_L6_PTR REDEF NWORD_L6 ALIGNED,
      921     7185    1         2 * UBIN(16) UNAL,
      922     7186    1         2 PNTR UBIN(20) UNAL;
      923     7187        /* Establish @ and # patch space, if any */
      924     7188    1        IF S_D.RUM_FEP AND (NOT S_D.SHOW)

   7188  1 000002   000000 470400 xsym               LDP0    S_D$
         1 000003   007017 234100                    SZN     3599,,PR0
         1 000004   002051 605000 1                  TPL     s:7548
         1 000005   006715 234100                    SZN     3533,,PR0
         1 000006   002051 604000 1                  TMI     s:7548

      925     7189    2        THEN DO;

      926     7190        /* SET UP MONENT PATCH SPACE */
      927     7191    2             REMEMBER NO#ME IN S_D.REM_ACCESS;

   7191  1 000007   000416 635000 1                  EAA     NO#ME
PL6.E3A0      #002=DDI$GET_PATCH_SPACE File=DUI$1STIME.:E05TSI                   TUE 07/29/97 14:53 Page:176
         1 000010   000024 452500                    STP2    20,,PR0
         1 000011   000025 755100                    STA     21,,PR0

      928     7192    2             S_D.ACCESS = '1'B;

   7192  1 000012   400000 236003                    LDQ     -131072,DU
         1 000013   000016 756100                    STQ     14,,PR0

      929     7193    2             CALL DDS$SD_SRCH(G_PATCHIH_ME$, TEMP$) ALTRET(GOT@_ME);

   7193  1 000014   200003 631500                    EPPR1   TEMP$,,AUTO
         1 000015   200031 451500                    STP1    NWORD_L6+3,,AUTO
         1 000016   000000 236000 2                  LDQ     0
         1 000017   200030 756100                    STQ     NWORD_L6+2,,AUTO
         1 000020   200030 630500                    EPPR0   NWORD_L6+2,,AUTO
         1 000021   000020 631400 xsym               EPPR1   B_VECTNIL+16
         1 000022   000000 701000 xent               TSX1    DDS$SD_SRCH
         1 000023   000025 702000 1                  TSX2    GOT@_ME

      930     7194    3             DO WHILE( '0'B );

   7194  1 000024   000215 710000 1                  TRA     NO@ME

   7193  1 000025                       GOT@_ME      null
      931     7195    3   GOT@_ME:          ;
      932     7196    3                  IF NOT TEMP$ -> B$SDEF.CONSTNT AND

   7196  1 000025   200003 470500                    LDP0    TEMP$,,AUTO
         1 000026   000001 236100                    LDQ     1,,PR0
         1 000027   400000 316007                    CANQ    -131072,DL
         1 000030   000215 601000 1                  TNZ     NO@ME
         1 000031   000000 236100                    LDQ     0,,PR0
         1 000032   700000 316003                    CANQ    -32768,DU
         1 000033   000045 600000 1                  TZE     s:7202
         1 000034   000000 236100                    LDQ     0,,PR0
         1 000035   700000 376003                    ANQ     -32768,DU
         1 000036   300000 116003                    CMPQ    98304,DU
PL6.E3A0      #002=DDI$GET_PATCH_SPACE File=DUI$1STIME.:E05TSI                   TUE 07/29/97 14:53 Page:177
         1 000037   000045 600000 1                  TZE     s:7202
         1 000040   500000 116003                    CMPQ    -98304,DU
         1 000041   000215 601000 1                  TNZ     NO@ME
         1 000042   000000 471400 xsym               LDP1    S_D$
         1 000043   100071 234100                    SZN     57,,PR1
         1 000044   000215 605000 1                  TPL     NO@ME

      933     7197    3                    ((TEMP$ -> B$SDEF.AD.LFLAGS.SOURCE = %SOURCE_OBJECT#
      934     7198    3                    OR TEMP$ -> B$SDEF.AD.LFLAGS.SOURCE = %SOURCE_ULIB#)
      935     7199    3                    OR (TEMP$ -> B$SDEF.AD.LFLAGS.SOURCE = %SOURCE_REMOVED#
      936     7200    3                    AND S_D.HEAD_LIB))
      937     7201    4                  THEN DO;

      938     7202    4                       S_D.MONENT.HEAD@ = TEMP$ -> B$SDEF.AD.ISADDR;

   7202  1 000045   000000 471400 xsym               LDP1    S_D$
         1 000046   000000 236100                    LDQ     0,,PR0
         1 000047   000032 376000 xsym               ANQ     B_VECTNIL+26
         1 000050   107023 756100                    STQ     3603,,PR1

      939     7203    4                       IF S_D.RUM

   7203  1 000051   104755 234100                    SZN     2541,,PR1
         1 000052   000130 605000 1                  TPL     s:7212

      940     7204    5                       THEN DO;

      941     7205    5                            CALL DUU$GETMVAL(VALUE, 0, S_D.MONENT.HEAD@, 0, 0, '0'B)
              7205                                     ALTRET(NO@ME);

   7205  1 000053   000002 237000 2                  LDAQ    2
         1 000054   200034 757100                    STAQ    NWORD_L6+6,,AUTO
         1 000055   000002 236000 2                  LDQ     2
         1 000056   200033 756100                    STQ     NWORD_L6+5,,AUTO
         1 000057   000000 236000 xsym               LDQ     S_D$
         1 000060   007023 036003                    ADLQ    3603,DU
         1 000061   200032 756100                    STQ     NWORD_L6+4,,AUTO
PL6.E3A0      #002=DDI$GET_PATCH_SPACE File=DUI$1STIME.:E05TSI                   TUE 07/29/97 14:53 Page:178
         1 000062   000002 236000 2                  LDQ     2
         1 000063   200031 756100                    STQ     NWORD_L6+3,,AUTO
         1 000064   200005 633500                    EPPR3   VALUE,,AUTO
         1 000065   200030 453500                    STP3    NWORD_L6+2,,AUTO
         1 000066   200030 630500                    EPPR0   NWORD_L6+2,,AUTO
         1 000067   000024 631400 xsym               EPPR1   B_VECTNIL+20
         1 000070   000000 701000 xent               TSX1    DUU$GETMVAL
         1 000071   000215 702000 1                  TSX2    NO@ME

      942     7206    5                            NWORD_L6.ADDR1 = VALUE.OPS_L61.BITS(0);

   7206  1 000072   200006 236100                    LDQ     VALUE+1,,AUTO
         1 000073   000020 736000                    QLS     16
         1 000074   200026 676100                    ERQ     NWORD_L6,,AUTO
         1 000075   000004 376000 2                  ANQ     4
         1 000076   200026 656100                    ERSQ    NWORD_L6,,AUTO

      943     7207    5                            NWORD_L6.ADDR2 = VALUE.OPS_L62.BITS(1);

   7207  1 000077   200007 236100                    LDQ     VALUE+2,,AUTO
         1 000100   200026 676100                    ERQ     NWORD_L6,,AUTO
         1 000101   177777 376007                    ANQ     65535,DL
         1 000102   200026 656100                    ERSQ    NWORD_L6,,AUTO

      944     7208    5                           CALL DUU$GETMVAL(VALUE, 0, S_D.MONENT.HEAD@ + 2, 0, 0, '0'B
              7208                                     ) ALTRET(NO@ME);

   7208  1 000103   000000 470400 xsym               LDP0    S_D$
         1 000104   007023 235100                    LDA     3603,,PR0
         1 000105   000002 035007                    ADLA    2,DL
         1 000106   200030 755100                    STA     NWORD_L6+2,,AUTO
         1 000107   000002 237000 2                  LDAQ    2
         1 000110   200036 757100                    STAQ    NWORD_L6+8,,AUTO
         1 000111   000002 236000 2                  LDQ     2
         1 000112   200035 756100                    STQ     NWORD_L6+7,,AUTO
         1 000113   200030 631500                    EPPR1   NWORD_L6+2,,AUTO
         1 000114   200034 451500                    STP1    NWORD_L6+6,,AUTO
PL6.E3A0      #002=DDI$GET_PATCH_SPACE File=DUI$1STIME.:E05TSI                   TUE 07/29/97 14:53 Page:179
         1 000115   200033 756100                    STQ     NWORD_L6+5,,AUTO
         1 000116   200005 633500                    EPPR3   VALUE,,AUTO
         1 000117   200032 453500                    STP3    NWORD_L6+4,,AUTO
         1 000120   200032 630500                    EPPR0   NWORD_L6+4,,AUTO
         1 000121   000024 631400 xsym               EPPR1   B_VECTNIL+20
         1 000122   000000 701000 xent               TSX1    DUU$GETMVAL
         1 000123   000215 702000 1                  TSX2    NO@ME

      945     7209    5                            S_D.MONENT.RSPACE@ = VALUE.OPS(0);

   7209  1 000124   200006 235100                    LDA     VALUE+1,,AUTO
         1 000125   000000 470400 xsym               LDP0    S_D$
         1 000126   007022 755100                    STA     3602,,PR0

      946     7210    5                          END;

   7210  1 000127   000161 710000 1                  TRA     s:7218

      947     7211    5                       ELSE DO;

      948     7212    5                           CALL DFK$GETMVAL(VALUE, S_D.MONENT.HEAD@, 3, 0, '0'B, '0'B)

   7212  1 000130   000002 237000 2                  LDAQ    2
         1 000131   200034 757100                    STAQ    NWORD_L6+6,,AUTO
         1 000132   000006 237000 2                  LDAQ    6
         1 000133   200032 757100                    STAQ    NWORD_L6+4,,AUTO
         1 000134   000000 236000 xsym               LDQ     S_D$
         1 000135   007023 036003                    ADLQ    3603,DU
         1 000136   200031 756100                    STQ     NWORD_L6+3,,AUTO
         1 000137   200005 633500                    EPPR3   VALUE,,AUTO
         1 000140   200030 453500                    STP3    NWORD_L6+2,,AUTO
         1 000141   200030 630500                    EPPR0   NWORD_L6+2,,AUTO
         1 000142   000024 631400 xsym               EPPR1   B_VECTNIL+20
         1 000143   000000 701000 xent               TSX1    DFK$GETMVAL
         1 000144   000215 702000 1                  TSX2    NO@ME

      949     7213    5                                 ALTRET(NO@ME);
PL6.E3A0      #002=DDI$GET_PATCH_SPACE File=DUI$1STIME.:E05TSI                   TUE 07/29/97 14:53 Page:180
      950     7214    5                            NWORD_L6.ADDR1 = VALUE.OPS_L61.BITS(0);

   7214  1 000145   200006 236100                    LDQ     VALUE+1,,AUTO
         1 000146   000020 736000                    QLS     16
         1 000147   200026 676100                    ERQ     NWORD_L6,,AUTO
         1 000150   000004 376000 2                  ANQ     4
         1 000151   200026 656100                    ERSQ    NWORD_L6,,AUTO

      951     7215    5                            NWORD_L6.ADDR2 = VALUE.OPS_L62.BITS(1);

   7215  1 000152   200007 236100                    LDQ     VALUE+2,,AUTO
         1 000153   200026 676100                    ERQ     NWORD_L6,,AUTO
         1 000154   177777 376007                    ANQ     65535,DL
         1 000155   200026 656100                    ERSQ    NWORD_L6,,AUTO

      952     7216    5                            S_D.MONENT.RSPACE@ = VALUE.OPS(2);

   7216  1 000156   200010 235100                    LDA     VALUE+3,,AUTO
         1 000157   000000 470400 xsym               LDP0    S_D$
         1 000160   007022 755100                    STA     3602,,PR0

      953     7217    5                          END;

      954     7218    4                       S_D.MONENT.NEXT@ = NWORD_L6_PTR.PNTR;

   7218  1 000161   200026 236100                    LDQ     NWORD_L6,,AUTO
         1 000162   000005 376000 2                  ANQ     5
         1 000163   007021 756100                    STQ     3601,,PR0

      955     7219    4                       S_D.MONENT.HIGH@ = S_D.MONENT.NEXT@ + S_D.MONENT.RSPACE@ - 1;

   7219  1 000164   007022 036100                    ADLQ    3602,,PR0
         1 000165   000001 136007                    SBLQ    1,DL
         1 000166   007024 756100                    STQ     3604,,PR0

      956     7220    4                       IF NOT (S_D.MONENT.RSPACE@ <= 0)

PL6.E3A0      #002=DDI$GET_PATCH_SPACE File=DUI$1STIME.:E05TSI                   TUE 07/29/97 14:53 Page:181
   7220  1 000167   000000 115003                    CMPA    0,DU
         1 000170   000174 604400 1                  TMOZ    s:7225

      957     7221    5                       THEN DO;

      958     7222    5                            S_D.MONENT.GOT@ = '1'B;

   7222  1 000171   400000 236003                    LDQ     -131072,DU
         1 000172   007020 756100                    STQ     3600,,PR0

      959     7223    5                            S_D.MONENT.DEFINED@ = '1'B;

   7223  1 000173   007025 756100                    STQ     3605,,PR0

      960     7224    5                          END;

      961     7225    5                      IF S_D.RUM_FEP_USE = C@MONENT THEN DO;

   7225  1 000174   005275 235100                    LDA     2749,,PR0
         1 000175   001166 115007                    CMPA    630,DL
         1 000176   000215 601000 1                  TNZ     NO@ME

      962     7226    5                          S_D.GOT@ = S_D.MONENT.GOT@;

   7226  1 000177   007020 236100                    LDQ     3600,,PR0
         1 000200   400000 376003                    ANQ     -131072,DU
         1 000201   005054 756100                    STQ     2604,,PR0

      963     7227    5                          S_D.DEFINED@ = S_D.MONENT.DEFINED@;

   7227  1 000202   007025 236100                    LDQ     3605,,PR0
         1 000203   400000 376003                    ANQ     -131072,DU
         1 000204   005060 756100                    STQ     2608,,PR0

      964     7228    5                          S_D.NEXT@ = S_D.MONENT.NEXT@;

   7228  1 000205   007021 235100                    LDA     3601,,PR0
PL6.E3A0      #002=DDI$GET_PATCH_SPACE File=DUI$1STIME.:E05TSI                   TUE 07/29/97 14:53 Page:182
         1 000206   005055 755100                    STA     2605,,PR0

      965     7229    5                          S_D.RSPACE@ = S_D.MONENT.RSPACE@;

   7229  1 000207   007022 235100                    LDA     3602,,PR0
         1 000210   005056 755100                    STA     2606,,PR0

      966     7230    5                          S_D.HEAD@ = S_D.MONENT.HEAD@;

   7230  1 000211   007023 235100                    LDA     3603,,PR0
         1 000212   005057 755100                    STA     2607,,PR0

      967     7231    5                          S_D.HIGH@ = S_D.MONENT.HIGH@;

   7231  1 000213   007024 235100                    LDA     3604,,PR0
         1 000214   005133 755100                    STA     2651,,PR0

      968     7232    5                          END;

      969     7233    4                     END;

      970     7234    3                END;                       /* DO WHILE ('0'B)  GOT@_ME */

   7230  1 000215                       NO@ME        null
      971     7235    2   NO@ME:    ;
      972     7236    2             CALL DDS$SD_SRCH(G_PATCHDH_ME$, TEMP$) ALTRET(GOT#_ME);

   7236  1 000215   200003 630500                    EPPR0   TEMP$,,AUTO
         1 000216   200031 450500                    STP0    NWORD_L6+3,,AUTO
         1 000217   000010 236000 2                  LDQ     8
         1 000220   200030 756100                    STQ     NWORD_L6+2,,AUTO
         1 000221   200030 630500                    EPPR0   NWORD_L6+2,,AUTO
         1 000222   000020 631400 xsym               EPPR1   B_VECTNIL+16
         1 000223   000000 701000 xent               TSX1    DDS$SD_SRCH
         1 000224   000226 702000 1                  TSX2    GOT#_ME

      973     7237    3             DO WHILE( '0'B );
PL6.E3A0      #002=DDI$GET_PATCH_SPACE File=DUI$1STIME.:E05TSI                   TUE 07/29/97 14:53 Page:183

   7237  1 000225   000416 710000 1                  TRA     NO#ME

   7236  1 000226                       GOT#_ME      null
      974     7238    3   GOT#_ME:          ;
      975     7239    3                  IF NOT TEMP$ -> B$SDEF.CONSTNT AND

   7239  1 000226   200003 470500                    LDP0    TEMP$,,AUTO
         1 000227   000001 236100                    LDQ     1,,PR0
         1 000230   400000 316007                    CANQ    -131072,DL
         1 000231   000416 601000 1                  TNZ     NO#ME
         1 000232   000000 236100                    LDQ     0,,PR0
         1 000233   700000 316003                    CANQ    -32768,DU
         1 000234   000246 600000 1                  TZE     s:7245
         1 000235   000000 236100                    LDQ     0,,PR0
         1 000236   700000 376003                    ANQ     -32768,DU
         1 000237   300000 116003                    CMPQ    98304,DU
         1 000240   000246 600000 1                  TZE     s:7245
         1 000241   500000 116003                    CMPQ    -98304,DU
         1 000242   000416 601000 1                  TNZ     NO#ME
         1 000243   000000 471400 xsym               LDP1    S_D$
         1 000244   100071 234100                    SZN     57,,PR1
         1 000245   000416 605000 1                  TPL     NO#ME

      976     7240    3                    ((TEMP$ -> B$SDEF.AD.LFLAGS.SOURCE = %SOURCE_OBJECT#
      977     7241    3                    OR TEMP$ -> B$SDEF.AD.LFLAGS.SOURCE = %SOURCE_ULIB#)
      978     7242    3                    OR (TEMP$ -> B$SDEF.AD.LFLAGS.SOURCE = %SOURCE_REMOVED#
      979     7243    3                    AND S_D.HEAD_LIB))
      980     7244    4                  THEN DO;

      981     7245    4                       S_D.MONENT.HEAD# = TEMP$ -> B$SDEF.AD.ISADDR;

   7245  1 000246   000000 471400 xsym               LDP1    S_D$
         1 000247   000000 236100                    LDQ     0,,PR0
         1 000250   000032 376000 xsym               ANQ     B_VECTNIL+26
         1 000251   107031 756100                    STQ     3609,,PR1

PL6.E3A0      #002=DDI$GET_PATCH_SPACE File=DUI$1STIME.:E05TSI                   TUE 07/29/97 14:53 Page:184
      982     7246    4                       IF S_D.RUM

   7246  1 000252   104755 234100                    SZN     2541,,PR1
         1 000253   000331 605000 1                  TPL     s:7255

      983     7247    5                       THEN DO;

      984     7248    5                            CALL DUU$GETMVAL(VALUE, 0, S_D.MONENT.HEAD#, 0, 0, '0'B)
              7248                                     ALTRET(NO#ME);

   7248  1 000254   000002 237000 2                  LDAQ    2
         1 000255   200034 757100                    STAQ    NWORD_L6+6,,AUTO
         1 000256   000002 236000 2                  LDQ     2
         1 000257   200033 756100                    STQ     NWORD_L6+5,,AUTO
         1 000260   000000 236000 xsym               LDQ     S_D$
         1 000261   007031 036003                    ADLQ    3609,DU
         1 000262   200032 756100                    STQ     NWORD_L6+4,,AUTO
         1 000263   000002 236000 2                  LDQ     2
         1 000264   200031 756100                    STQ     NWORD_L6+3,,AUTO
         1 000265   200005 633500                    EPPR3   VALUE,,AUTO
         1 000266   200030 453500                    STP3    NWORD_L6+2,,AUTO
         1 000267   200030 630500                    EPPR0   NWORD_L6+2,,AUTO
         1 000270   000024 631400 xsym               EPPR1   B_VECTNIL+20
         1 000271   000000 701000 xent               TSX1    DUU$GETMVAL
         1 000272   000416 702000 1                  TSX2    NO#ME

      985     7249    5                            NWORD_L6.ADDR1 = VALUE.OPS_L61.BITS(0);

   7249  1 000273   200006 236100                    LDQ     VALUE+1,,AUTO
         1 000274   000020 736000                    QLS     16
         1 000275   200026 676100                    ERQ     NWORD_L6,,AUTO
         1 000276   000004 376000 2                  ANQ     4
         1 000277   200026 656100                    ERSQ    NWORD_L6,,AUTO

      986     7250    5                            NWORD_L6.ADDR2 = VALUE.OPS_L62.BITS(1);

   7250  1 000300   200007 236100                    LDQ     VALUE+2,,AUTO
PL6.E3A0      #002=DDI$GET_PATCH_SPACE File=DUI$1STIME.:E05TSI                   TUE 07/29/97 14:53 Page:185
         1 000301   200026 676100                    ERQ     NWORD_L6,,AUTO
         1 000302   177777 376007                    ANQ     65535,DL
         1 000303   200026 656100                    ERSQ    NWORD_L6,,AUTO

      987     7251    5                           CALL DUU$GETMVAL(VALUE, 0, S_D.MONENT.HEAD# + 2, 0, 0, '0'B
              7251                                     ) ALTRET(NO#ME);

   7251  1 000304   000000 470400 xsym               LDP0    S_D$
         1 000305   007031 235100                    LDA     3609,,PR0
         1 000306   000002 035007                    ADLA    2,DL
         1 000307   200030 755100                    STA     NWORD_L6+2,,AUTO
         1 000310   000002 237000 2                  LDAQ    2
         1 000311   200036 757100                    STAQ    NWORD_L6+8,,AUTO
         1 000312   000002 236000 2                  LDQ     2
         1 000313   200035 756100                    STQ     NWORD_L6+7,,AUTO
         1 000314   200030 631500                    EPPR1   NWORD_L6+2,,AUTO
         1 000315   200034 451500                    STP1    NWORD_L6+6,,AUTO
         1 000316   200033 756100                    STQ     NWORD_L6+5,,AUTO
         1 000317   200005 633500                    EPPR3   VALUE,,AUTO
         1 000320   200032 453500                    STP3    NWORD_L6+4,,AUTO
         1 000321   200032 630500                    EPPR0   NWORD_L6+4,,AUTO
         1 000322   000024 631400 xsym               EPPR1   B_VECTNIL+20
         1 000323   000000 701000 xent               TSX1    DUU$GETMVAL
         1 000324   000416 702000 1                  TSX2    NO#ME

      988     7252    5                            S_D.MONENT.RSPACE# = VALUE.OPS(0);

   7252  1 000325   200006 235100                    LDA     VALUE+1,,AUTO
         1 000326   000000 470400 xsym               LDP0    S_D$
         1 000327   007030 755100                    STA     3608,,PR0

      989     7253    5                          END;

   7253  1 000330   000362 710000 1                  TRA     s:7261

      990     7254    5                       ELSE DO;

PL6.E3A0      #002=DDI$GET_PATCH_SPACE File=DUI$1STIME.:E05TSI                   TUE 07/29/97 14:53 Page:186
      991     7255    5                           CALL DFK$GETMVAL(VALUE, S_D.MONENT.HEAD#, 3, 0, '0'B, '0'B)

   7255  1 000331   000002 237000 2                  LDAQ    2
         1 000332   200034 757100                    STAQ    NWORD_L6+6,,AUTO
         1 000333   000006 237000 2                  LDAQ    6
         1 000334   200032 757100                    STAQ    NWORD_L6+4,,AUTO
         1 000335   000000 236000 xsym               LDQ     S_D$
         1 000336   007031 036003                    ADLQ    3609,DU
         1 000337   200031 756100                    STQ     NWORD_L6+3,,AUTO
         1 000340   200005 633500                    EPPR3   VALUE,,AUTO
         1 000341   200030 453500                    STP3    NWORD_L6+2,,AUTO
         1 000342   200030 630500                    EPPR0   NWORD_L6+2,,AUTO
         1 000343   000024 631400 xsym               EPPR1   B_VECTNIL+20
         1 000344   000000 701000 xent               TSX1    DFK$GETMVAL
         1 000345   000416 702000 1                  TSX2    NO#ME

      992     7256    5                                 ALTRET(NO#ME);
      993     7257    5                            NWORD_L6.ADDR1 = VALUE.OPS_L61.BITS(0);

   7257  1 000346   200006 236100                    LDQ     VALUE+1,,AUTO
         1 000347   000020 736000                    QLS     16
         1 000350   200026 676100                    ERQ     NWORD_L6,,AUTO
         1 000351   000004 376000 2                  ANQ     4
         1 000352   200026 656100                    ERSQ    NWORD_L6,,AUTO

      994     7258    5                            NWORD_L6.ADDR2 = VALUE.OPS_L62.BITS(1);

   7258  1 000353   200007 236100                    LDQ     VALUE+2,,AUTO
         1 000354   200026 676100                    ERQ     NWORD_L6,,AUTO
         1 000355   177777 376007                    ANQ     65535,DL
         1 000356   200026 656100                    ERSQ    NWORD_L6,,AUTO

      995     7259    5                            S_D.MONENT.RSPACE# = VALUE.OPS(2);

   7259  1 000357   200010 235100                    LDA     VALUE+3,,AUTO
         1 000360   000000 470400 xsym               LDP0    S_D$
         1 000361   007030 755100                    STA     3608,,PR0
PL6.E3A0      #002=DDI$GET_PATCH_SPACE File=DUI$1STIME.:E05TSI                   TUE 07/29/97 14:53 Page:187

      996     7260    5                          END;

      997     7261    4                       S_D.MONENT.NEXT# = NWORD_L6_PTR.PNTR;

   7261  1 000362   200026 236100                    LDQ     NWORD_L6,,AUTO
         1 000363   000005 376000 2                  ANQ     5
         1 000364   007027 756100                    STQ     3607,,PR0

      998     7262    4                       S_D.MONENT.HIGH# = S_D.MONENT.NEXT# + S_D.MONENT.RSPACE# - 1;

   7262  1 000365   007030 036100                    ADLQ    3608,,PR0
         1 000366   000001 136007                    SBLQ    1,DL
         1 000367   007032 756100                    STQ     3610,,PR0

      999     7263    4                       IF NOT (S_D.MONENT.RSPACE# <= 0)

   7263  1 000370   000000 115003                    CMPA    0,DU
         1 000371   000375 604400 1                  TMOZ    s:7268

     1000     7264    5                       THEN DO;

     1001     7265    5                            S_D.MONENT.GOT# = '1'B;

   7265  1 000372   400000 236003                    LDQ     -131072,DU
         1 000373   007026 756100                    STQ     3606,,PR0

     1002     7266    5                            S_D.MONENT.DEFINED# = '1'B;

   7266  1 000374   007033 756100                    STQ     3611,,PR0

     1003     7267    5                          END;

     1004     7268    5                       IF S_D.RUM_FEP_USE = C@MONENT THEN DO;

   7268  1 000375   005275 235100                    LDA     2749,,PR0
         1 000376   001166 115007                    CMPA    630,DL
PL6.E3A0      #002=DDI$GET_PATCH_SPACE File=DUI$1STIME.:E05TSI                   TUE 07/29/97 14:53 Page:188
         1 000377   000416 601000 1                  TNZ     NO#ME

     1005     7269    5                          S_D.GOT# = S_D.MONENT.GOT#;

   7269  1 000400   007026 236100                    LDQ     3606,,PR0
         1 000401   400000 376003                    ANQ     -131072,DU
         1 000402   005061 756100                    STQ     2609,,PR0

     1006     7270    5                          S_D.DEFINED# = S_D.MONENT.DEFINED#;

   7270  1 000403   007033 236100                    LDQ     3611,,PR0
         1 000404   400000 376003                    ANQ     -131072,DU
         1 000405   005065 756100                    STQ     2613,,PR0

     1007     7271    5                          S_D.NEXT# = S_D.MONENT.NEXT#;

   7271  1 000406   007027 235100                    LDA     3607,,PR0
         1 000407   005062 755100                    STA     2610,,PR0

     1008     7272    5                          S_D.RSPACE# = S_D.MONENT.RSPACE#;

   7272  1 000410   007030 235100                    LDA     3608,,PR0
         1 000411   005063 755100                    STA     2611,,PR0

     1009     7273    5                          S_D.HEAD# = S_D.MONENT.HEAD#;

   7273  1 000412   007031 235100                    LDA     3609,,PR0
         1 000413   005064 755100                    STA     2612,,PR0

     1010     7274    5                          S_D.HIGH# = S_D.MONENT.HIGH#;

   7274  1 000414   007032 235100                    LDA     3610,,PR0
         1 000415   005136 755100                    STA     2654,,PR0

     1011     7275    5                          END;

     1012     7276    4                     END;
PL6.E3A0      #002=DDI$GET_PATCH_SPACE File=DUI$1STIME.:E05TSI                   TUE 07/29/97 14:53 Page:189

     1013     7277    3                END;                       /* DO WHILE ('0'B)  GOT#_ME */

   7273  1 000416                       NO#ME        null
     1014     7278    2   NO#ME:    ;
     1015     7279        /* SET UP MONIS PATCH SPACE */
     1016     7280    2             REMEMBER NO#IS IN S_D.REM_ACCESS;

   7280  1 000416   001030 635000 1                  EAA     NO#IS
         1 000417   000000 470400 xsym               LDP0    S_D$
         1 000420   000024 452500                    STP2    20,,PR0
         1 000421   000025 755100                    STA     21,,PR0

     1017     7281    2             S_D.ACCESS = '1'B;

   7281  1 000422   400000 236003                    LDQ     -131072,DU
         1 000423   000016 756100                    STQ     14,,PR0

     1018     7282    2             CALL DDS$SD_SRCH(G_PATCHIH_IS$, TEMP$) ALTRET(GOT@_IS);

   7282  1 000424   200003 631500                    EPPR1   TEMP$,,AUTO
         1 000425   200031 451500                    STP1    NWORD_L6+3,,AUTO
         1 000426   000011 236000 2                  LDQ     9
         1 000427   200030 756100                    STQ     NWORD_L6+2,,AUTO
         1 000430   200030 630500                    EPPR0   NWORD_L6+2,,AUTO
         1 000431   000020 631400 xsym               EPPR1   B_VECTNIL+16
         1 000432   000000 701000 xent               TSX1    DDS$SD_SRCH
         1 000433   000435 702000 1                  TSX2    GOT@_IS

     1019     7283    3             DO WHILE( '0'B );

   7283  1 000434   000626 710000 1                  TRA     NO@IS

   7282  1 000435                       GOT@_IS      null
     1020     7284    3   GOT@_IS:          ;
     1021     7285    3                  IF NOT TEMP$ -> B$SDEF.CONSTNT AND

PL6.E3A0      #002=DDI$GET_PATCH_SPACE File=DUI$1STIME.:E05TSI                   TUE 07/29/97 14:53 Page:190
   7285  1 000435   200003 470500                    LDP0    TEMP$,,AUTO
         1 000436   000001 236100                    LDQ     1,,PR0
         1 000437   400000 316007                    CANQ    -131072,DL
         1 000440   000626 601000 1                  TNZ     NO@IS
         1 000441   000000 236100                    LDQ     0,,PR0
         1 000442   700000 316003                    CANQ    -32768,DU
         1 000443   000455 600000 1                  TZE     s:7291
         1 000444   000000 236100                    LDQ     0,,PR0
         1 000445   700000 376003                    ANQ     -32768,DU
         1 000446   300000 116003                    CMPQ    98304,DU
         1 000447   000455 600000 1                  TZE     s:7291
         1 000450   500000 116003                    CMPQ    -98304,DU
         1 000451   000626 601000 1                  TNZ     NO@IS
         1 000452   000000 471400 xsym               LDP1    S_D$
         1 000453   100071 234100                    SZN     57,,PR1
         1 000454   000626 605000 1                  TPL     NO@IS

     1022     7286    3                    ((TEMP$ -> B$SDEF.AD.LFLAGS.SOURCE = %SOURCE_OBJECT#
     1023     7287    3                    OR TEMP$ -> B$SDEF.AD.LFLAGS.SOURCE = %SOURCE_ULIB#)
     1024     7288    3                    OR (TEMP$ -> B$SDEF.AD.LFLAGS.SOURCE = %SOURCE_REMOVED#
     1025     7289    3                    AND S_D.HEAD_LIB))
     1026     7290    4                  THEN DO;

     1027     7291    4                       S_D.MONIS.HEAD@ = TEMP$ -> B$SDEF.AD.ISADDR;

   7291  1 000455   000000 471400 xsym               LDP1    S_D$
         1 000456   000000 236100                    LDQ     0,,PR0
         1 000457   000032 376000 xsym               ANQ     B_VECTNIL+26
         1 000460   107037 756100                    STQ     3615,,PR1

     1028     7292    4                       IF S_D.RUM

   7292  1 000461   104755 234100                    SZN     2541,,PR1
         1 000462   000540 605000 1                  TPL     s:7301

     1029     7293    5                       THEN DO;

PL6.E3A0      #002=DDI$GET_PATCH_SPACE File=DUI$1STIME.:E05TSI                   TUE 07/29/97 14:53 Page:191
     1030     7294    5                            CALL DUU$GETMVAL(VALUE, 0, S_D.MONIS.HEAD@, 0, 0, '0'B)
              7294                                     ALTRET(NO@IS);

   7294  1 000463   000002 237000 2                  LDAQ    2
         1 000464   200034 757100                    STAQ    NWORD_L6+6,,AUTO
         1 000465   000002 236000 2                  LDQ     2
         1 000466   200033 756100                    STQ     NWORD_L6+5,,AUTO
         1 000467   000000 236000 xsym               LDQ     S_D$
         1 000470   007037 036003                    ADLQ    3615,DU
         1 000471   200032 756100                    STQ     NWORD_L6+4,,AUTO
         1 000472   000002 236000 2                  LDQ     2
         1 000473   200031 756100                    STQ     NWORD_L6+3,,AUTO
         1 000474   200005 633500                    EPPR3   VALUE,,AUTO
         1 000475   200030 453500                    STP3    NWORD_L6+2,,AUTO
         1 000476   200030 630500                    EPPR0   NWORD_L6+2,,AUTO
         1 000477   000024 631400 xsym               EPPR1   B_VECTNIL+20
         1 000500   000000 701000 xent               TSX1    DUU$GETMVAL
         1 000501   000626 702000 1                  TSX2    NO@IS

     1031     7295    5                            NWORD_L6.ADDR1 = VALUE.OPS_L61.BITS(0);

   7295  1 000502   200006 236100                    LDQ     VALUE+1,,AUTO
         1 000503   000020 736000                    QLS     16
         1 000504   200026 676100                    ERQ     NWORD_L6,,AUTO
         1 000505   000004 376000 2                  ANQ     4
         1 000506   200026 656100                    ERSQ    NWORD_L6,,AUTO

     1032     7296    5                            NWORD_L6.ADDR2 = VALUE.OPS_L62.BITS(1);

   7296  1 000507   200007 236100                    LDQ     VALUE+2,,AUTO
         1 000510   200026 676100                    ERQ     NWORD_L6,,AUTO
         1 000511   177777 376007                    ANQ     65535,DL
         1 000512   200026 656100                    ERSQ    NWORD_L6,,AUTO

     1033     7297    5                           CALL DUU$GETMVAL(VALUE, 0, S_D.MONIS.HEAD@ + 2, 0, 0, '0'B)
              7297                                     ALTRET(NO@IS);

PL6.E3A0      #002=DDI$GET_PATCH_SPACE File=DUI$1STIME.:E05TSI                   TUE 07/29/97 14:53 Page:192
   7297  1 000513   000000 470400 xsym               LDP0    S_D$
         1 000514   007037 235100                    LDA     3615,,PR0
         1 000515   000002 035007                    ADLA    2,DL
         1 000516   200030 755100                    STA     NWORD_L6+2,,AUTO
         1 000517   000002 237000 2                  LDAQ    2
         1 000520   200036 757100                    STAQ    NWORD_L6+8,,AUTO
         1 000521   000002 236000 2                  LDQ     2
         1 000522   200035 756100                    STQ     NWORD_L6+7,,AUTO
         1 000523   200030 631500                    EPPR1   NWORD_L6+2,,AUTO
         1 000524   200034 451500                    STP1    NWORD_L6+6,,AUTO
         1 000525   200033 756100                    STQ     NWORD_L6+5,,AUTO
         1 000526   200005 633500                    EPPR3   VALUE,,AUTO
         1 000527   200032 453500                    STP3    NWORD_L6+4,,AUTO
         1 000530   200032 630500                    EPPR0   NWORD_L6+4,,AUTO
         1 000531   000024 631400 xsym               EPPR1   B_VECTNIL+20
         1 000532   000000 701000 xent               TSX1    DUU$GETMVAL
         1 000533   000626 702000 1                  TSX2    NO@IS

     1034     7298    5                            S_D.MONIS.RSPACE@ = VALUE.OPS(0);

   7298  1 000534   200006 235100                    LDA     VALUE+1,,AUTO
         1 000535   000000 470400 xsym               LDP0    S_D$
         1 000536   007036 755100                    STA     3614,,PR0

     1035     7299    5                          END;

   7299  1 000537   000571 710000 1                  TRA     s:7307

     1036     7300    5                       ELSE DO;

     1037     7301    5                            CALL DFK$GETMVAL(VALUE, S_D.MONIS.HEAD@, 3, 0, '0'B, '0'B)

   7301  1 000540   000002 237000 2                  LDAQ    2
         1 000541   200034 757100                    STAQ    NWORD_L6+6,,AUTO
         1 000542   000006 237000 2                  LDAQ    6
         1 000543   200032 757100                    STAQ    NWORD_L6+4,,AUTO
         1 000544   000000 236000 xsym               LDQ     S_D$
PL6.E3A0      #002=DDI$GET_PATCH_SPACE File=DUI$1STIME.:E05TSI                   TUE 07/29/97 14:53 Page:193
         1 000545   007037 036003                    ADLQ    3615,DU
         1 000546   200031 756100                    STQ     NWORD_L6+3,,AUTO
         1 000547   200005 633500                    EPPR3   VALUE,,AUTO
         1 000550   200030 453500                    STP3    NWORD_L6+2,,AUTO
         1 000551   200030 630500                    EPPR0   NWORD_L6+2,,AUTO
         1 000552   000024 631400 xsym               EPPR1   B_VECTNIL+20
         1 000553   000000 701000 xent               TSX1    DFK$GETMVAL
         1 000554   000626 702000 1                  TSX2    NO@IS

     1038     7302    5                                 ALTRET(NO@IS);
     1039     7303    5                            NWORD_L6.ADDR1 = VALUE.OPS_L61.BITS(0);

   7303  1 000555   200006 236100                    LDQ     VALUE+1,,AUTO
         1 000556   000020 736000                    QLS     16
         1 000557   200026 676100                    ERQ     NWORD_L6,,AUTO
         1 000560   000004 376000 2                  ANQ     4
         1 000561   200026 656100                    ERSQ    NWORD_L6,,AUTO

     1040     7304    5                            NWORD_L6.ADDR2 = VALUE.OPS_L62.BITS(1);

   7304  1 000562   200007 236100                    LDQ     VALUE+2,,AUTO
         1 000563   200026 676100                    ERQ     NWORD_L6,,AUTO
         1 000564   177777 376007                    ANQ     65535,DL
         1 000565   200026 656100                    ERSQ    NWORD_L6,,AUTO

     1041     7305    5                            S_D.MONIS.RSPACE@ = VALUE.OPS(2);

   7305  1 000566   200010 235100                    LDA     VALUE+3,,AUTO
         1 000567   000000 470400 xsym               LDP0    S_D$
         1 000570   007036 755100                    STA     3614,,PR0

     1042     7306    5                          END;

     1043     7307    4                       S_D.MONIS.NEXT@ = NWORD_L6_PTR.PNTR;

   7307  1 000571   200026 236100                    LDQ     NWORD_L6,,AUTO
         1 000572   000005 376000 2                  ANQ     5
PL6.E3A0      #002=DDI$GET_PATCH_SPACE File=DUI$1STIME.:E05TSI                   TUE 07/29/97 14:53 Page:194
         1 000573   007035 756100                    STQ     3613,,PR0

     1044     7308    4                       S_D.MONIS.HIGH@ = S_D.MONIS.NEXT@ + S_D.MONIS.RSPACE@ - 1;

   7308  1 000574   007036 036100                    ADLQ    3614,,PR0
         1 000575   000001 136007                    SBLQ    1,DL
         1 000576   007040 756100                    STQ     3616,,PR0

     1045     7309    4                       IF NOT (S_D.MONIS.RSPACE@ <= 0)

   7309  1 000577   000000 115003                    CMPA    0,DU
         1 000600   000604 604400 1                  TMOZ    s:7314

     1046     7310    5                       THEN DO;

     1047     7311    5                            S_D.MONIS.GOT@ = '1'B;

   7311  1 000601   400000 236003                    LDQ     -131072,DU
         1 000602   007034 756100                    STQ     3612,,PR0

     1048     7312    5                            S_D.MONIS.DEFINED@ = '1'B;

   7312  1 000603   007041 756100                    STQ     3617,,PR0

     1049     7313    5                          END;

     1050     7314    5                       IF S_D.RUM_FEP_USE = 0 OR S_D.RUM_FEP_USE = C@MONIS THEN DO;

   7314  1 000604   005275 235100                    LDA     2749,,PR0
         1 000605   000610 600000 1                  TZE     s:7315
         1 000606   001167 115007                    CMPA    631,DL
         1 000607   000626 601000 1                  TNZ     NO@IS

     1051     7315    5                          S_D.GOT@ = S_D.MONIS.GOT@;

   7315  1 000610   007034 236100                    LDQ     3612,,PR0
         1 000611   400000 376003                    ANQ     -131072,DU
PL6.E3A0      #002=DDI$GET_PATCH_SPACE File=DUI$1STIME.:E05TSI                   TUE 07/29/97 14:53 Page:195
         1 000612   005054 756100                    STQ     2604,,PR0

     1052     7316    5                          S_D.DEFINED@ = S_D.MONIS.DEFINED@;

   7316  1 000613   007041 236100                    LDQ     3617,,PR0
         1 000614   400000 376003                    ANQ     -131072,DU
         1 000615   005060 756100                    STQ     2608,,PR0

     1053     7317    5                          S_D.NEXT@ = S_D.MONIS.NEXT@;

   7317  1 000616   007035 235100                    LDA     3613,,PR0
         1 000617   005055 755100                    STA     2605,,PR0

     1054     7318    5                          S_D.RSPACE@ = S_D.MONIS.RSPACE@;

   7318  1 000620   007036 235100                    LDA     3614,,PR0
         1 000621   005056 755100                    STA     2606,,PR0

     1055     7319    5                          S_D.HEAD@ = S_D.MONIS.HEAD@;

   7319  1 000622   007037 235100                    LDA     3615,,PR0
         1 000623   005057 755100                    STA     2607,,PR0

     1056     7320    5                          S_D.HIGH@ = S_D.MONIS.HIGH@;

   7320  1 000624   007040 235100                    LDA     3616,,PR0
         1 000625   005133 755100                    STA     2651,,PR0

     1057     7321    5                          END;

     1058     7322    4                     END;

     1059     7323    3                END;                       /* DO WHILE ('0'B)  GOT@_IS */

   7319  1 000626                       NO@IS        null
     1060     7324    2   NO@IS:    ;
     1061     7325    2             CALL DDS$SD_SRCH(G_PATCHDH_IS$, TEMP$) ALTRET(GOT#_IS);
PL6.E3A0      #002=DDI$GET_PATCH_SPACE File=DUI$1STIME.:E05TSI                   TUE 07/29/97 14:53 Page:196

   7325  1 000626   200003 630500                    EPPR0   TEMP$,,AUTO
         1 000627   200031 450500                    STP0    NWORD_L6+3,,AUTO
         1 000630   000012 236000 2                  LDQ     10
         1 000631   200030 756100                    STQ     NWORD_L6+2,,AUTO
         1 000632   200030 630500                    EPPR0   NWORD_L6+2,,AUTO
         1 000633   000020 631400 xsym               EPPR1   B_VECTNIL+16
         1 000634   000000 701000 xent               TSX1    DDS$SD_SRCH
         1 000635   000637 702000 1                  TSX2    GOT#_IS

     1062     7326    3             DO WHILE( '0'B );

   7326  1 000636   001030 710000 1                  TRA     NO#IS

   7325  1 000637                       GOT#_IS      null
     1063     7327    3   GOT#_IS:          ;
     1064     7328    3                  IF NOT TEMP$ -> B$SDEF.CONSTNT AND

   7328  1 000637   200003 470500                    LDP0    TEMP$,,AUTO
         1 000640   000001 236100                    LDQ     1,,PR0
         1 000641   400000 316007                    CANQ    -131072,DL
         1 000642   001030 601000 1                  TNZ     NO#IS
         1 000643   000000 236100                    LDQ     0,,PR0
         1 000644   700000 316003                    CANQ    -32768,DU
         1 000645   000657 600000 1                  TZE     s:7334
         1 000646   000000 236100                    LDQ     0,,PR0
         1 000647   700000 376003                    ANQ     -32768,DU
         1 000650   300000 116003                    CMPQ    98304,DU
         1 000651   000657 600000 1                  TZE     s:7334
         1 000652   500000 116003                    CMPQ    -98304,DU
         1 000653   001030 601000 1                  TNZ     NO#IS
         1 000654   000000 471400 xsym               LDP1    S_D$
         1 000655   100071 234100                    SZN     57,,PR1
         1 000656   001030 605000 1                  TPL     NO#IS

     1065     7329    3                    ((TEMP$ -> B$SDEF.AD.LFLAGS.SOURCE = %SOURCE_OBJECT#
     1066     7330    3                    OR TEMP$ -> B$SDEF.AD.LFLAGS.SOURCE = %SOURCE_ULIB#)
PL6.E3A0      #002=DDI$GET_PATCH_SPACE File=DUI$1STIME.:E05TSI                   TUE 07/29/97 14:53 Page:197
     1067     7331    3                    OR (TEMP$ -> B$SDEF.AD.LFLAGS.SOURCE = %SOURCE_REMOVED#
     1068     7332    3                    AND S_D.HEAD_LIB))
     1069     7333    4                  THEN DO;

     1070     7334    4                       S_D.MONIS.HEAD# = TEMP$ -> B$SDEF.AD.ISADDR;

   7334  1 000657   000000 471400 xsym               LDP1    S_D$
         1 000660   000000 236100                    LDQ     0,,PR0
         1 000661   000032 376000 xsym               ANQ     B_VECTNIL+26
         1 000662   107045 756100                    STQ     3621,,PR1

     1071     7335    4                       IF S_D.RUM

   7335  1 000663   104755 234100                    SZN     2541,,PR1
         1 000664   000742 605000 1                  TPL     s:7344

     1072     7336    5                       THEN DO;

     1073     7337    5                            CALL DUU$GETMVAL(VALUE, 0, S_D.MONIS.HEAD#, 0, 0, '0'B)
              7337                                     ALTRET(NO#IS);

   7337  1 000665   000002 237000 2                  LDAQ    2
         1 000666   200034 757100                    STAQ    NWORD_L6+6,,AUTO
         1 000667   000002 236000 2                  LDQ     2
         1 000670   200033 756100                    STQ     NWORD_L6+5,,AUTO
         1 000671   000000 236000 xsym               LDQ     S_D$
         1 000672   007045 036003                    ADLQ    3621,DU
         1 000673   200032 756100                    STQ     NWORD_L6+4,,AUTO
         1 000674   000002 236000 2                  LDQ     2
         1 000675   200031 756100                    STQ     NWORD_L6+3,,AUTO
         1 000676   200005 633500                    EPPR3   VALUE,,AUTO
         1 000677   200030 453500                    STP3    NWORD_L6+2,,AUTO
         1 000700   200030 630500                    EPPR0   NWORD_L6+2,,AUTO
         1 000701   000024 631400 xsym               EPPR1   B_VECTNIL+20
         1 000702   000000 701000 xent               TSX1    DUU$GETMVAL
         1 000703   001030 702000 1                  TSX2    NO#IS

PL6.E3A0      #002=DDI$GET_PATCH_SPACE File=DUI$1STIME.:E05TSI                   TUE 07/29/97 14:53 Page:198
     1074     7338    5                            NWORD_L6.ADDR1 = VALUE.OPS_L61.BITS(0);

   7338  1 000704   200006 236100                    LDQ     VALUE+1,,AUTO
         1 000705   000020 736000                    QLS     16
         1 000706   200026 676100                    ERQ     NWORD_L6,,AUTO
         1 000707   000004 376000 2                  ANQ     4
         1 000710   200026 656100                    ERSQ    NWORD_L6,,AUTO

     1075     7339    5                            NWORD_L6.ADDR2 = VALUE.OPS_L62.BITS(1);

   7339  1 000711   200007 236100                    LDQ     VALUE+2,,AUTO
         1 000712   200026 676100                    ERQ     NWORD_L6,,AUTO
         1 000713   177777 376007                    ANQ     65535,DL
         1 000714   200026 656100                    ERSQ    NWORD_L6,,AUTO

     1076     7340    5                           CALL DUU$GETMVAL(VALUE, 0, S_D.MONIS.HEAD# + 2, 0, 0, '0'B)
              7340                                     ALTRET(NO#IS);

   7340  1 000715   000000 470400 xsym               LDP0    S_D$
         1 000716   007045 235100                    LDA     3621,,PR0
         1 000717   000002 035007                    ADLA    2,DL
         1 000720   200030 755100                    STA     NWORD_L6+2,,AUTO
         1 000721   000002 237000 2                  LDAQ    2
         1 000722   200036 757100                    STAQ    NWORD_L6+8,,AUTO
         1 000723   000002 236000 2                  LDQ     2
         1 000724   200035 756100                    STQ     NWORD_L6+7,,AUTO
         1 000725   200030 631500                    EPPR1   NWORD_L6+2,,AUTO
         1 000726   200034 451500                    STP1    NWORD_L6+6,,AUTO
         1 000727   200033 756100                    STQ     NWORD_L6+5,,AUTO
         1 000730   200005 633500                    EPPR3   VALUE,,AUTO
         1 000731   200032 453500                    STP3    NWORD_L6+4,,AUTO
         1 000732   200032 630500                    EPPR0   NWORD_L6+4,,AUTO
         1 000733   000024 631400 xsym               EPPR1   B_VECTNIL+20
         1 000734   000000 701000 xent               TSX1    DUU$GETMVAL
         1 000735   001030 702000 1                  TSX2    NO#IS

     1077     7341    5                            S_D.MONIS.RSPACE# = VALUE.OPS(0);
PL6.E3A0      #002=DDI$GET_PATCH_SPACE File=DUI$1STIME.:E05TSI                   TUE 07/29/97 14:53 Page:199

   7341  1 000736   200006 235100                    LDA     VALUE+1,,AUTO
         1 000737   000000 470400 xsym               LDP0    S_D$
         1 000740   007044 755100                    STA     3620,,PR0

     1078     7342    5                          END;

   7342  1 000741   000773 710000 1                  TRA     s:7350

     1079     7343    5                       ELSE DO;

     1080     7344    5                            CALL DFK$GETMVAL(VALUE, S_D.MONIS.HEAD#, 3, 0, '0'B, '0'B)

   7344  1 000742   000002 237000 2                  LDAQ    2
         1 000743   200034 757100                    STAQ    NWORD_L6+6,,AUTO
         1 000744   000006 237000 2                  LDAQ    6
         1 000745   200032 757100                    STAQ    NWORD_L6+4,,AUTO
         1 000746   000000 236000 xsym               LDQ     S_D$
         1 000747   007045 036003                    ADLQ    3621,DU
         1 000750   200031 756100                    STQ     NWORD_L6+3,,AUTO
         1 000751   200005 633500                    EPPR3   VALUE,,AUTO
         1 000752   200030 453500                    STP3    NWORD_L6+2,,AUTO
         1 000753   200030 630500                    EPPR0   NWORD_L6+2,,AUTO
         1 000754   000024 631400 xsym               EPPR1   B_VECTNIL+20
         1 000755   000000 701000 xent               TSX1    DFK$GETMVAL
         1 000756   001030 702000 1                  TSX2    NO#IS

     1081     7345    5                                 ALTRET(NO#IS);
     1082     7346    5                            NWORD_L6.ADDR1 = VALUE.OPS_L61.BITS(0);

   7346  1 000757   200006 236100                    LDQ     VALUE+1,,AUTO
         1 000760   000020 736000                    QLS     16
         1 000761   200026 676100                    ERQ     NWORD_L6,,AUTO
         1 000762   000004 376000 2                  ANQ     4
         1 000763   200026 656100                    ERSQ    NWORD_L6,,AUTO

     1083     7347    5                            NWORD_L6.ADDR2 = VALUE.OPS_L62.BITS(1);
PL6.E3A0      #002=DDI$GET_PATCH_SPACE File=DUI$1STIME.:E05TSI                   TUE 07/29/97 14:53 Page:200

   7347  1 000764   200007 236100                    LDQ     VALUE+2,,AUTO
         1 000765   200026 676100                    ERQ     NWORD_L6,,AUTO
         1 000766   177777 376007                    ANQ     65535,DL
         1 000767   200026 656100                    ERSQ    NWORD_L6,,AUTO

     1084     7348    5                            S_D.MONIS.RSPACE# = VALUE.OPS(2);

   7348  1 000770   200010 235100                    LDA     VALUE+3,,AUTO
         1 000771   000000 470400 xsym               LDP0    S_D$
         1 000772   007044 755100                    STA     3620,,PR0

     1085     7349    5                          END;

     1086     7350    4                       S_D.MONIS.NEXT# = NWORD_L6_PTR.PNTR;

   7350  1 000773   200026 236100                    LDQ     NWORD_L6,,AUTO
         1 000774   000005 376000 2                  ANQ     5
         1 000775   007043 756100                    STQ     3619,,PR0

     1087     7351    4                       S_D.MONIS.HIGH# = S_D.MONIS.NEXT# + S_D.MONIS.RSPACE# - 1;

   7351  1 000776   007044 036100                    ADLQ    3620,,PR0
         1 000777   000001 136007                    SBLQ    1,DL
         1 001000   007046 756100                    STQ     3622,,PR0

     1088     7352    4                       IF NOT (S_D.MONIS.RSPACE# <= 0)

   7352  1 001001   000000 115003                    CMPA    0,DU
         1 001002   001006 604400 1                  TMOZ    s:7357

     1089     7353    5                       THEN DO;

     1090     7354    5                            S_D.MONIS.GOT# = '1'B;

   7354  1 001003   400000 236003                    LDQ     -131072,DU
         1 001004   007042 756100                    STQ     3618,,PR0
PL6.E3A0      #002=DDI$GET_PATCH_SPACE File=DUI$1STIME.:E05TSI                   TUE 07/29/97 14:53 Page:201

     1091     7355    5                            S_D.MONIS.DEFINED# = '1'B;

   7355  1 001005   007047 756100                    STQ     3623,,PR0

     1092     7356    5                          END;

     1093     7357    5                       IF S_D.RUM_FEP_USE = 0 OR S_D.RUM_FEP_USE = C@MONIS THEN DO;

   7357  1 001006   005275 235100                    LDA     2749,,PR0
         1 001007   001012 600000 1                  TZE     s:7358
         1 001010   001167 115007                    CMPA    631,DL
         1 001011   001030 601000 1                  TNZ     NO#IS

     1094     7358    5                          S_D.GOT# = S_D.MONIS.GOT#;

   7358  1 001012   007042 236100                    LDQ     3618,,PR0
         1 001013   400000 376003                    ANQ     -131072,DU
         1 001014   005061 756100                    STQ     2609,,PR0

     1095     7359    5                          S_D.DEFINED# = S_D.MONIS.DEFINED#;

   7359  1 001015   007047 236100                    LDQ     3623,,PR0
         1 001016   400000 376003                    ANQ     -131072,DU
         1 001017   005065 756100                    STQ     2613,,PR0

     1096     7360    5                          S_D.NEXT# = S_D.MONIS.NEXT#;

   7360  1 001020   007043 235100                    LDA     3619,,PR0
         1 001021   005062 755100                    STA     2610,,PR0

     1097     7361    5                          S_D.RSPACE# = S_D.MONIS.RSPACE#;

   7361  1 001022   007044 235100                    LDA     3620,,PR0
         1 001023   005063 755100                    STA     2611,,PR0

     1098     7362    5                          S_D.HEAD# = S_D.MONIS.HEAD#;
PL6.E3A0      #002=DDI$GET_PATCH_SPACE File=DUI$1STIME.:E05TSI                   TUE 07/29/97 14:53 Page:202

   7362  1 001024   007045 235100                    LDA     3621,,PR0
         1 001025   005064 755100                    STA     2612,,PR0

     1099     7363    5                          S_D.HIGH# = S_D.MONIS.HIGH#;

   7363  1 001026   007046 235100                    LDA     3622,,PR0
         1 001027   005136 755100                    STA     2654,,PR0

     1100     7364    5                          END;

     1101     7365    4                     END;

     1102     7366    3                END;                       /* DO WHILE ('0'B)  GOT#_IS */

   7362  1 001030                       NO#IS        null
     1103     7367    2   NO#IS:    ;
     1104     7368        /* SET UP FD PATCH SPACE */
     1105     7369    2             REMEMBER NO#FD IN S_D.REM_ACCESS;

   7369  1 001030   001440 635000 1                  EAA     NO#FD
         1 001031   000000 470400 xsym               LDP0    S_D$
         1 001032   000024 452500                    STP2    20,,PR0
         1 001033   000025 755100                    STA     21,,PR0

     1106     7370    2             S_D.ACCESS = '1'B;

   7370  1 001034   400000 236003                    LDQ     -131072,DU
         1 001035   000016 756100                    STQ     14,,PR0

     1107     7371    2             CALL DDS$SD_SRCH(G_PATCHIH_FD$, TEMP$) ALTRET(GOT@_FD);

   7371  1 001036   200003 631500                    EPPR1   TEMP$,,AUTO
         1 001037   200031 451500                    STP1    NWORD_L6+3,,AUTO
         1 001040   000013 236000 2                  LDQ     11
         1 001041   200030 756100                    STQ     NWORD_L6+2,,AUTO
         1 001042   200030 630500                    EPPR0   NWORD_L6+2,,AUTO
PL6.E3A0      #002=DDI$GET_PATCH_SPACE File=DUI$1STIME.:E05TSI                   TUE 07/29/97 14:53 Page:203
         1 001043   000020 631400 xsym               EPPR1   B_VECTNIL+16
         1 001044   000000 701000 xent               TSX1    DDS$SD_SRCH
         1 001045   001047 702000 1                  TSX2    GOT@_FD

     1108     7372    3             DO WHILE( '0'B );

   7372  1 001046   001237 710000 1                  TRA     NO@FD

   7371  1 001047                       GOT@_FD      null
     1109     7373    3   GOT@_FD:          ;
     1110     7374    3                  IF NOT TEMP$ -> B$SDEF.CONSTNT AND

   7374  1 001047   200003 470500                    LDP0    TEMP$,,AUTO
         1 001050   000001 236100                    LDQ     1,,PR0
         1 001051   400000 316007                    CANQ    -131072,DL
         1 001052   001237 601000 1                  TNZ     NO@FD
         1 001053   000000 236100                    LDQ     0,,PR0
         1 001054   700000 316003                    CANQ    -32768,DU
         1 001055   001067 600000 1                  TZE     s:7380
         1 001056   000000 236100                    LDQ     0,,PR0
         1 001057   700000 376003                    ANQ     -32768,DU
         1 001060   300000 116003                    CMPQ    98304,DU
         1 001061   001067 600000 1                  TZE     s:7380
         1 001062   500000 116003                    CMPQ    -98304,DU
         1 001063   001237 601000 1                  TNZ     NO@FD
         1 001064   000000 471400 xsym               LDP1    S_D$
         1 001065   100071 234100                    SZN     57,,PR1
         1 001066   001237 605000 1                  TPL     NO@FD

     1111     7375    3                    ((TEMP$ -> B$SDEF.AD.LFLAGS.SOURCE = %SOURCE_OBJECT#
     1112     7376    3                    OR TEMP$ -> B$SDEF.AD.LFLAGS.SOURCE = %SOURCE_ULIB#)
     1113     7377    3                    OR (TEMP$ -> B$SDEF.AD.LFLAGS.SOURCE = %SOURCE_REMOVED#
     1114     7378    3                    AND S_D.HEAD_LIB))
     1115     7379    4                  THEN DO;

     1116     7380    4                       S_D.FD.HEAD@ = TEMP$ -> B$SDEF.AD.ISADDR;

PL6.E3A0      #002=DDI$GET_PATCH_SPACE File=DUI$1STIME.:E05TSI                   TUE 07/29/97 14:53 Page:204
   7380  1 001067   000000 471400 xsym               LDP1    S_D$
         1 001070   000000 236100                    LDQ     0,,PR0
         1 001071   000032 376000 xsym               ANQ     B_VECTNIL+26
         1 001072   107053 756100                    STQ     3627,,PR1

     1117     7381    4                       IF S_D.RUM

   7381  1 001073   104755 234100                    SZN     2541,,PR1
         1 001074   001152 605000 1                  TPL     s:7390

     1118     7382    5                       THEN DO;

     1119     7383    5                           CALL DUU$GETMVAL(VALUE, 0, S_D.FD.HEAD@, 0, 0, '0'B) ALTRET
              7383                                     (NO@FD);

   7383  1 001075   000002 237000 2                  LDAQ    2
         1 001076   200034 757100                    STAQ    NWORD_L6+6,,AUTO
         1 001077   000002 236000 2                  LDQ     2
         1 001100   200033 756100                    STQ     NWORD_L6+5,,AUTO
         1 001101   000000 236000 xsym               LDQ     S_D$
         1 001102   007053 036003                    ADLQ    3627,DU
         1 001103   200032 756100                    STQ     NWORD_L6+4,,AUTO
         1 001104   000002 236000 2                  LDQ     2
         1 001105   200031 756100                    STQ     NWORD_L6+3,,AUTO
         1 001106   200005 633500                    EPPR3   VALUE,,AUTO
         1 001107   200030 453500                    STP3    NWORD_L6+2,,AUTO
         1 001110   200030 630500                    EPPR0   NWORD_L6+2,,AUTO
         1 001111   000024 631400 xsym               EPPR1   B_VECTNIL+20
         1 001112   000000 701000 xent               TSX1    DUU$GETMVAL
         1 001113   001237 702000 1                  TSX2    NO@FD

     1120     7384    5                            NWORD_L6.ADDR1 = VALUE.OPS_L61.BITS(0);

   7384  1 001114   200006 236100                    LDQ     VALUE+1,,AUTO
         1 001115   000020 736000                    QLS     16
         1 001116   200026 676100                    ERQ     NWORD_L6,,AUTO
         1 001117   000004 376000 2                  ANQ     4
PL6.E3A0      #002=DDI$GET_PATCH_SPACE File=DUI$1STIME.:E05TSI                   TUE 07/29/97 14:53 Page:205
         1 001120   200026 656100                    ERSQ    NWORD_L6,,AUTO

     1121     7385    5                            NWORD_L6.ADDR2 = VALUE.OPS_L62.BITS(1);

   7385  1 001121   200007 236100                    LDQ     VALUE+2,,AUTO
         1 001122   200026 676100                    ERQ     NWORD_L6,,AUTO
         1 001123   177777 376007                    ANQ     65535,DL
         1 001124   200026 656100                    ERSQ    NWORD_L6,,AUTO

     1122     7386    5                            CALL DUU$GETMVAL(VALUE, 0, S_D.FD.HEAD@ + 2, 0, 0, '0'B)
              7386                                     ALTRET(NO@FD);

   7386  1 001125   000000 470400 xsym               LDP0    S_D$
         1 001126   007053 235100                    LDA     3627,,PR0
         1 001127   000002 035007                    ADLA    2,DL
         1 001130   200030 755100                    STA     NWORD_L6+2,,AUTO
         1 001131   000002 237000 2                  LDAQ    2
         1 001132   200036 757100                    STAQ    NWORD_L6+8,,AUTO
         1 001133   000002 236000 2                  LDQ     2
         1 001134   200035 756100                    STQ     NWORD_L6+7,,AUTO
         1 001135   200030 631500                    EPPR1   NWORD_L6+2,,AUTO
         1 001136   200034 451500                    STP1    NWORD_L6+6,,AUTO
         1 001137   200033 756100                    STQ     NWORD_L6+5,,AUTO
         1 001140   200005 633500                    EPPR3   VALUE,,AUTO
         1 001141   200032 453500                    STP3    NWORD_L6+4,,AUTO
         1 001142   200032 630500                    EPPR0   NWORD_L6+4,,AUTO
         1 001143   000024 631400 xsym               EPPR1   B_VECTNIL+20
         1 001144   000000 701000 xent               TSX1    DUU$GETMVAL
         1 001145   001237 702000 1                  TSX2    NO@FD

     1123     7387    5                            S_D.FD.RSPACE@ = VALUE.OPS(0);

   7387  1 001146   200006 235100                    LDA     VALUE+1,,AUTO
         1 001147   000000 470400 xsym               LDP0    S_D$
         1 001150   007052 755100                    STA     3626,,PR0

     1124     7388    5                          END;
PL6.E3A0      #002=DDI$GET_PATCH_SPACE File=DUI$1STIME.:E05TSI                   TUE 07/29/97 14:53 Page:206

   7388  1 001151   001203 710000 1                  TRA     s:7396

     1125     7389    5                       ELSE DO;

     1126     7390    5                            CALL DFK$GETMVAL(VALUE, S_D.FD.HEAD@, 3, 0, '0'B, '0'B)

   7390  1 001152   000002 237000 2                  LDAQ    2
         1 001153   200034 757100                    STAQ    NWORD_L6+6,,AUTO
         1 001154   000006 237000 2                  LDAQ    6
         1 001155   200032 757100                    STAQ    NWORD_L6+4,,AUTO
         1 001156   000000 236000 xsym               LDQ     S_D$
         1 001157   007053 036003                    ADLQ    3627,DU
         1 001160   200031 756100                    STQ     NWORD_L6+3,,AUTO
         1 001161   200005 633500                    EPPR3   VALUE,,AUTO
         1 001162   200030 453500                    STP3    NWORD_L6+2,,AUTO
         1 001163   200030 630500                    EPPR0   NWORD_L6+2,,AUTO
         1 001164   000024 631400 xsym               EPPR1   B_VECTNIL+20
         1 001165   000000 701000 xent               TSX1    DFK$GETMVAL
         1 001166   001237 702000 1                  TSX2    NO@FD

     1127     7391    5                                 ALTRET(NO@FD);
     1128     7392    5                            NWORD_L6.ADDR1 = VALUE.OPS_L61.BITS(0);

   7392  1 001167   200006 236100                    LDQ     VALUE+1,,AUTO
         1 001170   000020 736000                    QLS     16
         1 001171   200026 676100                    ERQ     NWORD_L6,,AUTO
         1 001172   000004 376000 2                  ANQ     4
         1 001173   200026 656100                    ERSQ    NWORD_L6,,AUTO

     1129     7393    5                            NWORD_L6.ADDR2 = VALUE.OPS_L62.BITS(1);

   7393  1 001174   200007 236100                    LDQ     VALUE+2,,AUTO
         1 001175   200026 676100                    ERQ     NWORD_L6,,AUTO
         1 001176   177777 376007                    ANQ     65535,DL
         1 001177   200026 656100                    ERSQ    NWORD_L6,,AUTO

PL6.E3A0      #002=DDI$GET_PATCH_SPACE File=DUI$1STIME.:E05TSI                   TUE 07/29/97 14:53 Page:207
     1130     7394    5                            S_D.FD.RSPACE@ = VALUE.OPS(2);

   7394  1 001200   200010 235100                    LDA     VALUE+3,,AUTO
         1 001201   000000 470400 xsym               LDP0    S_D$
         1 001202   007052 755100                    STA     3626,,PR0

     1131     7395    5                          END;

     1132     7396    4                       S_D.FD.NEXT@ = NWORD_L6_PTR.PNTR;

   7396  1 001203   200026 236100                    LDQ     NWORD_L6,,AUTO
         1 001204   000005 376000 2                  ANQ     5
         1 001205   007051 756100                    STQ     3625,,PR0

     1133     7397    4                       S_D.FD.HIGH@ = S_D.FD.NEXT@ + S_D.FD.RSPACE@ - 1;

   7397  1 001206   007052 036100                    ADLQ    3626,,PR0
         1 001207   000001 136007                    SBLQ    1,DL
         1 001210   007054 756100                    STQ     3628,,PR0

     1134     7398    4                       IF NOT (S_D.FD.RSPACE@ <= 0)

   7398  1 001211   000000 115003                    CMPA    0,DU
         1 001212   001216 604400 1                  TMOZ    s:7403

     1135     7399    5                       THEN DO;

     1136     7400    5                            S_D.FD.GOT@ = '1'B;

   7400  1 001213   400000 236003                    LDQ     -131072,DU
         1 001214   007050 756100                    STQ     3624,,PR0

     1137     7401    5                            S_D.FD.DEFINED@ = '1'B;

   7401  1 001215   007055 756100                    STQ     3629,,PR0

     1138     7402    5                          END;
PL6.E3A0      #002=DDI$GET_PATCH_SPACE File=DUI$1STIME.:E05TSI                   TUE 07/29/97 14:53 Page:208

     1139     7403    5                       IF S_D.RUM_FEP_USE = C@FD THEN DO;

   7403  1 001216   005275 235100                    LDA     2749,,PR0
         1 001217   001170 115007                    CMPA    632,DL
         1 001220   001237 601000 1                  TNZ     NO@FD

     1140     7404    5                          S_D.GOT@ = S_D.FD.GOT@;

   7404  1 001221   007050 236100                    LDQ     3624,,PR0
         1 001222   400000 376003                    ANQ     -131072,DU
         1 001223   005054 756100                    STQ     2604,,PR0

     1141     7405    5                          S_D.DEFINED@ = S_D.FD.DEFINED@;

   7405  1 001224   007055 236100                    LDQ     3629,,PR0
         1 001225   400000 376003                    ANQ     -131072,DU
         1 001226   005060 756100                    STQ     2608,,PR0

     1142     7406    5                          S_D.NEXT@ = S_D.FD.NEXT@;

   7406  1 001227   007051 235100                    LDA     3625,,PR0
         1 001230   005055 755100                    STA     2605,,PR0

     1143     7407    5                          S_D.RSPACE@ = S_D.FD.RSPACE@;

   7407  1 001231   007052 235100                    LDA     3626,,PR0
         1 001232   005056 755100                    STA     2606,,PR0

     1144     7408    5                          S_D.HEAD@ = S_D.FD.HEAD@;

   7408  1 001233   007053 235100                    LDA     3627,,PR0
         1 001234   005057 755100                    STA     2607,,PR0

     1145     7409    5                          S_D.HIGH@ = S_D.FD.HIGH@;

   7409  1 001235   007054 235100                    LDA     3628,,PR0
PL6.E3A0      #002=DDI$GET_PATCH_SPACE File=DUI$1STIME.:E05TSI                   TUE 07/29/97 14:53 Page:209
         1 001236   005133 755100                    STA     2651,,PR0

     1146     7410    5                          END;

     1147     7411    4                     END;

     1148     7412    3                END;                       /* DO WHILE ('0'B)  GOT@_FD */

   7408  1 001237                       NO@FD        null
     1149     7413    2   NO@FD:    ;
     1150     7414    2             CALL DDS$SD_SRCH(G_PATCHDH_FD$, TEMP$) ALTRET(GOT#_FD);

   7414  1 001237   200003 630500                    EPPR0   TEMP$,,AUTO
         1 001240   200031 450500                    STP0    NWORD_L6+3,,AUTO
         1 001241   000014 236000 2                  LDQ     12
         1 001242   200030 756100                    STQ     NWORD_L6+2,,AUTO
         1 001243   200030 630500                    EPPR0   NWORD_L6+2,,AUTO
         1 001244   000020 631400 xsym               EPPR1   B_VECTNIL+16
         1 001245   000000 701000 xent               TSX1    DDS$SD_SRCH
         1 001246   001250 702000 1                  TSX2    GOT#_FD

     1151     7415    3             DO WHILE( '0'B );

   7415  1 001247   001440 710000 1                  TRA     NO#FD

   7414  1 001250                       GOT#_FD      null
     1152     7416    3   GOT#_FD:          ;
     1153     7417    3                  IF NOT TEMP$ -> B$SDEF.CONSTNT AND

   7417  1 001250   200003 470500                    LDP0    TEMP$,,AUTO
         1 001251   000001 236100                    LDQ     1,,PR0
         1 001252   400000 316007                    CANQ    -131072,DL
         1 001253   001440 601000 1                  TNZ     NO#FD
         1 001254   000000 236100                    LDQ     0,,PR0
         1 001255   700000 316003                    CANQ    -32768,DU
         1 001256   001270 600000 1                  TZE     s:7423
         1 001257   000000 236100                    LDQ     0,,PR0
PL6.E3A0      #002=DDI$GET_PATCH_SPACE File=DUI$1STIME.:E05TSI                   TUE 07/29/97 14:53 Page:210
         1 001260   700000 376003                    ANQ     -32768,DU
         1 001261   300000 116003                    CMPQ    98304,DU
         1 001262   001270 600000 1                  TZE     s:7423
         1 001263   500000 116003                    CMPQ    -98304,DU
         1 001264   001440 601000 1                  TNZ     NO#FD
         1 001265   000000 471400 xsym               LDP1    S_D$
         1 001266   100071 234100                    SZN     57,,PR1
         1 001267   001440 605000 1                  TPL     NO#FD

     1154     7418    3                    ((TEMP$ -> B$SDEF.AD.LFLAGS.SOURCE = %SOURCE_OBJECT#
     1155     7419    3                    OR TEMP$ -> B$SDEF.AD.LFLAGS.SOURCE = %SOURCE_ULIB#)
     1156     7420    3                    OR (TEMP$ -> B$SDEF.AD.LFLAGS.SOURCE = %SOURCE_REMOVED#
     1157     7421    3                    AND S_D.HEAD_LIB))
     1158     7422    4                  THEN DO;

     1159     7423    4                       S_D.FD.HEAD# = TEMP$ -> B$SDEF.AD.ISADDR;

   7423  1 001270   000000 471400 xsym               LDP1    S_D$
         1 001271   000000 236100                    LDQ     0,,PR0
         1 001272   000032 376000 xsym               ANQ     B_VECTNIL+26
         1 001273   107061 756100                    STQ     3633,,PR1

     1160     7424    4                       IF S_D.RUM

   7424  1 001274   104755 234100                    SZN     2541,,PR1
         1 001275   001353 605000 1                  TPL     s:7433

     1161     7425    5                       THEN DO;

     1162     7426    5                           CALL DUU$GETMVAL(VALUE, 0, S_D.FD.HEAD#, 0, 0, '0'B) ALTRET
              7426                                     (NO#FD);

   7426  1 001276   000002 237000 2                  LDAQ    2
         1 001277   200034 757100                    STAQ    NWORD_L6+6,,AUTO
         1 001300   000002 236000 2                  LDQ     2
         1 001301   200033 756100                    STQ     NWORD_L6+5,,AUTO
         1 001302   000000 236000 xsym               LDQ     S_D$
PL6.E3A0      #002=DDI$GET_PATCH_SPACE File=DUI$1STIME.:E05TSI                   TUE 07/29/97 14:53 Page:211
         1 001303   007061 036003                    ADLQ    3633,DU
         1 001304   200032 756100                    STQ     NWORD_L6+4,,AUTO
         1 001305   000002 236000 2                  LDQ     2
         1 001306   200031 756100                    STQ     NWORD_L6+3,,AUTO
         1 001307   200005 633500                    EPPR3   VALUE,,AUTO
         1 001310   200030 453500                    STP3    NWORD_L6+2,,AUTO
         1 001311   200030 630500                    EPPR0   NWORD_L6+2,,AUTO
         1 001312   000024 631400 xsym               EPPR1   B_VECTNIL+20
         1 001313   000000 701000 xent               TSX1    DUU$GETMVAL
         1 001314   001440 702000 1                  TSX2    NO#FD

     1163     7427    5                            NWORD_L6.ADDR1 = VALUE.OPS_L61.BITS(0);

   7427  1 001315   200006 236100                    LDQ     VALUE+1,,AUTO
         1 001316   000020 736000                    QLS     16
         1 001317   200026 676100                    ERQ     NWORD_L6,,AUTO
         1 001320   000004 376000 2                  ANQ     4
         1 001321   200026 656100                    ERSQ    NWORD_L6,,AUTO

     1164     7428    5                            NWORD_L6.ADDR2 = VALUE.OPS_L62.BITS(1);

   7428  1 001322   200007 236100                    LDQ     VALUE+2,,AUTO
         1 001323   200026 676100                    ERQ     NWORD_L6,,AUTO
         1 001324   177777 376007                    ANQ     65535,DL
         1 001325   200026 656100                    ERSQ    NWORD_L6,,AUTO

     1165     7429    5                            CALL DUU$GETMVAL(VALUE, 0, S_D.FD.HEAD# + 2, 0, 0, '0'B)
              7429                                     ALTRET(NO#FD);

   7429  1 001326   000000 470400 xsym               LDP0    S_D$
         1 001327   007061 235100                    LDA     3633,,PR0
         1 001330   000002 035007                    ADLA    2,DL
         1 001331   200030 755100                    STA     NWORD_L6+2,,AUTO
         1 001332   000002 237000 2                  LDAQ    2
         1 001333   200036 757100                    STAQ    NWORD_L6+8,,AUTO
         1 001334   000002 236000 2                  LDQ     2
         1 001335   200035 756100                    STQ     NWORD_L6+7,,AUTO
PL6.E3A0      #002=DDI$GET_PATCH_SPACE File=DUI$1STIME.:E05TSI                   TUE 07/29/97 14:53 Page:212
         1 001336   200030 631500                    EPPR1   NWORD_L6+2,,AUTO
         1 001337   200034 451500                    STP1    NWORD_L6+6,,AUTO
         1 001340   200033 756100                    STQ     NWORD_L6+5,,AUTO
         1 001341   200005 633500                    EPPR3   VALUE,,AUTO
         1 001342   200032 453500                    STP3    NWORD_L6+4,,AUTO
         1 001343   200032 630500                    EPPR0   NWORD_L6+4,,AUTO
         1 001344   000024 631400 xsym               EPPR1   B_VECTNIL+20
         1 001345   000000 701000 xent               TSX1    DUU$GETMVAL
         1 001346   001440 702000 1                  TSX2    NO#FD

     1166     7430    5                            S_D.FD.RSPACE# = VALUE.OPS(0);

   7430  1 001347   200006 235100                    LDA     VALUE+1,,AUTO
         1 001350   000000 470400 xsym               LDP0    S_D$
         1 001351   007060 755100                    STA     3632,,PR0

     1167     7431    5                          END;

   7431  1 001352   001404 710000 1                  TRA     s:7439

     1168     7432    5                       ELSE DO;

     1169     7433    5                            CALL DFK$GETMVAL(VALUE, S_D.FD.HEAD#, 3, 0, '0'B, '0'B)

   7433  1 001353   000002 237000 2                  LDAQ    2
         1 001354   200034 757100                    STAQ    NWORD_L6+6,,AUTO
         1 001355   000006 237000 2                  LDAQ    6
         1 001356   200032 757100                    STAQ    NWORD_L6+4,,AUTO
         1 001357   000000 236000 xsym               LDQ     S_D$
         1 001360   007061 036003                    ADLQ    3633,DU
         1 001361   200031 756100                    STQ     NWORD_L6+3,,AUTO
         1 001362   200005 633500                    EPPR3   VALUE,,AUTO
         1 001363   200030 453500                    STP3    NWORD_L6+2,,AUTO
         1 001364   200030 630500                    EPPR0   NWORD_L6+2,,AUTO
         1 001365   000024 631400 xsym               EPPR1   B_VECTNIL+20
         1 001366   000000 701000 xent               TSX1    DFK$GETMVAL
         1 001367   001440 702000 1                  TSX2    NO#FD
PL6.E3A0      #002=DDI$GET_PATCH_SPACE File=DUI$1STIME.:E05TSI                   TUE 07/29/97 14:53 Page:213

     1170     7434    5                                 ALTRET(NO#FD);
     1171     7435    5                            NWORD_L6.ADDR1 = VALUE.OPS_L61.BITS(0);

   7435  1 001370   200006 236100                    LDQ     VALUE+1,,AUTO
         1 001371   000020 736000                    QLS     16
         1 001372   200026 676100                    ERQ     NWORD_L6,,AUTO
         1 001373   000004 376000 2                  ANQ     4
         1 001374   200026 656100                    ERSQ    NWORD_L6,,AUTO

     1172     7436    5                            NWORD_L6.ADDR2 = VALUE.OPS_L62.BITS(1);

   7436  1 001375   200007 236100                    LDQ     VALUE+2,,AUTO
         1 001376   200026 676100                    ERQ     NWORD_L6,,AUTO
         1 001377   177777 376007                    ANQ     65535,DL
         1 001400   200026 656100                    ERSQ    NWORD_L6,,AUTO

     1173     7437    5                            S_D.FD.RSPACE# = VALUE.OPS(2);

   7437  1 001401   200010 235100                    LDA     VALUE+3,,AUTO
         1 001402   000000 470400 xsym               LDP0    S_D$
         1 001403   007060 755100                    STA     3632,,PR0

     1174     7438    5                          END;

     1175     7439    4                       S_D.FD.NEXT# = NWORD_L6_PTR.PNTR;

   7439  1 001404   200026 236100                    LDQ     NWORD_L6,,AUTO
         1 001405   000005 376000 2                  ANQ     5
         1 001406   007057 756100                    STQ     3631,,PR0

     1176     7440    4                       S_D.FD.HIGH# = S_D.FD.NEXT# + S_D.FD.RSPACE# - 1;

   7440  1 001407   007060 036100                    ADLQ    3632,,PR0
         1 001410   000001 136007                    SBLQ    1,DL
         1 001411   007062 756100                    STQ     3634,,PR0

PL6.E3A0      #002=DDI$GET_PATCH_SPACE File=DUI$1STIME.:E05TSI                   TUE 07/29/97 14:53 Page:214
     1177     7441    4                       IF NOT (S_D.FD.RSPACE# <= 0)

   7441  1 001412   000000 115003                    CMPA    0,DU
         1 001413   001417 604400 1                  TMOZ    s:7446

     1178     7442    5                       THEN DO;

     1179     7443    5                            S_D.FD.GOT# = '1'B;

   7443  1 001414   400000 236003                    LDQ     -131072,DU
         1 001415   007056 756100                    STQ     3630,,PR0

     1180     7444    5                            S_D.FD.DEFINED# = '1'B;

   7444  1 001416   007063 756100                    STQ     3635,,PR0

     1181     7445    5                          END;

     1182     7446    5                       IF S_D.RUM_FEP_USE = C@FD THEN DO;

   7446  1 001417   005275 235100                    LDA     2749,,PR0
         1 001420   001170 115007                    CMPA    632,DL
         1 001421   001440 601000 1                  TNZ     NO#FD

     1183     7447    5                          S_D.GOT# = S_D.FD.GOT#;

   7447  1 001422   007056 236100                    LDQ     3630,,PR0
         1 001423   400000 376003                    ANQ     -131072,DU
         1 001424   005061 756100                    STQ     2609,,PR0

     1184     7448    5                          S_D.DEFINED# = S_D.FD.DEFINED#;

   7448  1 001425   007063 236100                    LDQ     3635,,PR0
         1 001426   400000 376003                    ANQ     -131072,DU
         1 001427   005065 756100                    STQ     2613,,PR0

     1185     7449    5                          S_D.NEXT# = S_D.FD.NEXT#;
PL6.E3A0      #002=DDI$GET_PATCH_SPACE File=DUI$1STIME.:E05TSI                   TUE 07/29/97 14:53 Page:215

   7449  1 001430   007057 235100                    LDA     3631,,PR0
         1 001431   005062 755100                    STA     2610,,PR0

     1186     7450    5                          S_D.RSPACE# = S_D.FD.RSPACE#;

   7450  1 001432   007060 235100                    LDA     3632,,PR0
         1 001433   005063 755100                    STA     2611,,PR0

     1187     7451    5                          S_D.HEAD# = S_D.FD.HEAD#;

   7451  1 001434   007061 235100                    LDA     3633,,PR0
         1 001435   005064 755100                    STA     2612,,PR0

     1188     7452    5                          S_D.HIGH# = S_D.FD.HIGH#;

   7452  1 001436   007062 235100                    LDA     3634,,PR0
         1 001437   005136 755100                    STA     2654,,PR0

     1189     7453    5                          END;

     1190     7454    4                     END;

     1191     7455    3                END;                       /* DO WHILE ('0'B)  GOT#_FD */

   7451  1 001440                       NO#FD        null
     1192     7456    2   NO#FD:    ;
     1193     7457        /* SET UP BF PATCH SPACE */
     1194     7458    2             REMEMBER NO#BF IN S_D.REM_ACCESS;

   7458  1 001440   002050 635000 1                  EAA     NO#BF
         1 001441   000000 470400 xsym               LDP0    S_D$
         1 001442   000024 452500                    STP2    20,,PR0
         1 001443   000025 755100                    STA     21,,PR0

     1195     7459    2             S_D.ACCESS = '1'B;

PL6.E3A0      #002=DDI$GET_PATCH_SPACE File=DUI$1STIME.:E05TSI                   TUE 07/29/97 14:53 Page:216
   7459  1 001444   400000 236003                    LDQ     -131072,DU
         1 001445   000016 756100                    STQ     14,,PR0

     1196     7460    2             CALL DDS$SD_SRCH(G_PATCHIH_BF$, TEMP$) ALTRET(GOT@_BF);

   7460  1 001446   200003 631500                    EPPR1   TEMP$,,AUTO
         1 001447   200031 451500                    STP1    NWORD_L6+3,,AUTO
         1 001450   000015 236000 2                  LDQ     13
         1 001451   200030 756100                    STQ     NWORD_L6+2,,AUTO
         1 001452   200030 630500                    EPPR0   NWORD_L6+2,,AUTO
         1 001453   000020 631400 xsym               EPPR1   B_VECTNIL+16
         1 001454   000000 701000 xent               TSX1    DDS$SD_SRCH
         1 001455   001457 702000 1                  TSX2    GOT@_BF

     1197     7461    3             DO WHILE( '0'B );

   7461  1 001456   001647 710000 1                  TRA     NO@BF

   7460  1 001457                       GOT@_BF      null
     1198     7462    3   GOT@_BF:          ;
     1199     7463    3                  IF NOT TEMP$ -> B$SDEF.CONSTNT AND

   7463  1 001457   200003 470500                    LDP0    TEMP$,,AUTO
         1 001460   000001 236100                    LDQ     1,,PR0
         1 001461   400000 316007                    CANQ    -131072,DL
         1 001462   001647 601000 1                  TNZ     NO@BF
         1 001463   000000 236100                    LDQ     0,,PR0
         1 001464   700000 316003                    CANQ    -32768,DU
         1 001465   001477 600000 1                  TZE     s:7469
         1 001466   000000 236100                    LDQ     0,,PR0
         1 001467   700000 376003                    ANQ     -32768,DU
         1 001470   300000 116003                    CMPQ    98304,DU
         1 001471   001477 600000 1                  TZE     s:7469
         1 001472   500000 116003                    CMPQ    -98304,DU
         1 001473   001647 601000 1                  TNZ     NO@BF
         1 001474   000000 471400 xsym               LDP1    S_D$
         1 001475   100071 234100                    SZN     57,,PR1
PL6.E3A0      #002=DDI$GET_PATCH_SPACE File=DUI$1STIME.:E05TSI                   TUE 07/29/97 14:53 Page:217
         1 001476   001647 605000 1                  TPL     NO@BF

     1200     7464    3                    ((TEMP$ -> B$SDEF.AD.LFLAGS.SOURCE = %SOURCE_OBJECT#
     1201     7465    3                    OR TEMP$ -> B$SDEF.AD.LFLAGS.SOURCE = %SOURCE_ULIB#)
     1202     7466    3                    OR (TEMP$ -> B$SDEF.AD.LFLAGS.SOURCE = %SOURCE_REMOVED#
     1203     7467    3                    AND S_D.HEAD_LIB))
     1204     7468    4                  THEN DO;

     1205     7469    4                       S_D.BF.HEAD@ = TEMP$ -> B$SDEF.AD.ISADDR;

   7469  1 001477   000000 471400 xsym               LDP1    S_D$
         1 001500   000000 236100                    LDQ     0,,PR0
         1 001501   000032 376000 xsym               ANQ     B_VECTNIL+26
         1 001502   107067 756100                    STQ     3639,,PR1

     1206     7470    4                       IF S_D.RUM

   7470  1 001503   104755 234100                    SZN     2541,,PR1
         1 001504   001562 605000 1                  TPL     s:7479

     1207     7471    5                       THEN DO;

     1208     7472    5                           CALL DUU$GETMVAL(VALUE, 0, S_D.BF.HEAD@, 0, 0, '0'B) ALTRET
              7472                                     (NO@BF);

   7472  1 001505   000002 237000 2                  LDAQ    2
         1 001506   200034 757100                    STAQ    NWORD_L6+6,,AUTO
         1 001507   000002 236000 2                  LDQ     2
         1 001510   200033 756100                    STQ     NWORD_L6+5,,AUTO
         1 001511   000000 236000 xsym               LDQ     S_D$
         1 001512   007067 036003                    ADLQ    3639,DU
         1 001513   200032 756100                    STQ     NWORD_L6+4,,AUTO
         1 001514   000002 236000 2                  LDQ     2
         1 001515   200031 756100                    STQ     NWORD_L6+3,,AUTO
         1 001516   200005 633500                    EPPR3   VALUE,,AUTO
         1 001517   200030 453500                    STP3    NWORD_L6+2,,AUTO
         1 001520   200030 630500                    EPPR0   NWORD_L6+2,,AUTO
PL6.E3A0      #002=DDI$GET_PATCH_SPACE File=DUI$1STIME.:E05TSI                   TUE 07/29/97 14:53 Page:218
         1 001521   000024 631400 xsym               EPPR1   B_VECTNIL+20
         1 001522   000000 701000 xent               TSX1    DUU$GETMVAL
         1 001523   001647 702000 1                  TSX2    NO@BF

     1209     7473    5                            NWORD_L6.ADDR1 = VALUE.OPS_L61.BITS(0);

   7473  1 001524   200006 236100                    LDQ     VALUE+1,,AUTO
         1 001525   000020 736000                    QLS     16
         1 001526   200026 676100                    ERQ     NWORD_L6,,AUTO
         1 001527   000004 376000 2                  ANQ     4
         1 001530   200026 656100                    ERSQ    NWORD_L6,,AUTO

     1210     7474    5                            NWORD_L6.ADDR2 = VALUE.OPS_L62.BITS(1);

   7474  1 001531   200007 236100                    LDQ     VALUE+2,,AUTO
         1 001532   200026 676100                    ERQ     NWORD_L6,,AUTO
         1 001533   177777 376007                    ANQ     65535,DL
         1 001534   200026 656100                    ERSQ    NWORD_L6,,AUTO

     1211     7475    5                            CALL DUU$GETMVAL(VALUE, 0, S_D.BF.HEAD@ + 2, 0, 0, '0'B)
              7475                                     ALTRET(NO@BF);

   7475  1 001535   000000 470400 xsym               LDP0    S_D$
         1 001536   007067 235100                    LDA     3639,,PR0
         1 001537   000002 035007                    ADLA    2,DL
         1 001540   200030 755100                    STA     NWORD_L6+2,,AUTO
         1 001541   000002 237000 2                  LDAQ    2
         1 001542   200036 757100                    STAQ    NWORD_L6+8,,AUTO
         1 001543   000002 236000 2                  LDQ     2
         1 001544   200035 756100                    STQ     NWORD_L6+7,,AUTO
         1 001545   200030 631500                    EPPR1   NWORD_L6+2,,AUTO
         1 001546   200034 451500                    STP1    NWORD_L6+6,,AUTO
         1 001547   200033 756100                    STQ     NWORD_L6+5,,AUTO
         1 001550   200005 633500                    EPPR3   VALUE,,AUTO
         1 001551   200032 453500                    STP3    NWORD_L6+4,,AUTO
         1 001552   200032 630500                    EPPR0   NWORD_L6+4,,AUTO
         1 001553   000024 631400 xsym               EPPR1   B_VECTNIL+20
PL6.E3A0      #002=DDI$GET_PATCH_SPACE File=DUI$1STIME.:E05TSI                   TUE 07/29/97 14:53 Page:219
         1 001554   000000 701000 xent               TSX1    DUU$GETMVAL
         1 001555   001647 702000 1                  TSX2    NO@BF

     1212     7476    5                            S_D.BF.RSPACE@ = VALUE.OPS(0);

   7476  1 001556   200006 235100                    LDA     VALUE+1,,AUTO
         1 001557   000000 470400 xsym               LDP0    S_D$
         1 001560   007066 755100                    STA     3638,,PR0

     1213     7477    5                          END;

   7477  1 001561   001613 710000 1                  TRA     s:7485

     1214     7478    5                       ELSE DO;

     1215     7479    5                            CALL DFK$GETMVAL(VALUE, S_D.BF.HEAD@, 3, 0, '0'B, '0'B)

   7479  1 001562   000002 237000 2                  LDAQ    2
         1 001563   200034 757100                    STAQ    NWORD_L6+6,,AUTO
         1 001564   000006 237000 2                  LDAQ    6
         1 001565   200032 757100                    STAQ    NWORD_L6+4,,AUTO
         1 001566   000000 236000 xsym               LDQ     S_D$
         1 001567   007067 036003                    ADLQ    3639,DU
         1 001570   200031 756100                    STQ     NWORD_L6+3,,AUTO
         1 001571   200005 633500                    EPPR3   VALUE,,AUTO
         1 001572   200030 453500                    STP3    NWORD_L6+2,,AUTO
         1 001573   200030 630500                    EPPR0   NWORD_L6+2,,AUTO
         1 001574   000024 631400 xsym               EPPR1   B_VECTNIL+20
         1 001575   000000 701000 xent               TSX1    DFK$GETMVAL
         1 001576   001647 702000 1                  TSX2    NO@BF

     1216     7480    5                                 ALTRET(NO@BF);
     1217     7481    5                            NWORD_L6.ADDR1 = VALUE.OPS_L61.BITS(0);

   7481  1 001577   200006 236100                    LDQ     VALUE+1,,AUTO
         1 001600   000020 736000                    QLS     16
         1 001601   200026 676100                    ERQ     NWORD_L6,,AUTO
PL6.E3A0      #002=DDI$GET_PATCH_SPACE File=DUI$1STIME.:E05TSI                   TUE 07/29/97 14:53 Page:220
         1 001602   000004 376000 2                  ANQ     4
         1 001603   200026 656100                    ERSQ    NWORD_L6,,AUTO

     1218     7482    5                            NWORD_L6.ADDR2 = VALUE.OPS_L62.BITS(1);

   7482  1 001604   200007 236100                    LDQ     VALUE+2,,AUTO
         1 001605   200026 676100                    ERQ     NWORD_L6,,AUTO
         1 001606   177777 376007                    ANQ     65535,DL
         1 001607   200026 656100                    ERSQ    NWORD_L6,,AUTO

     1219     7483    5                            S_D.BF.RSPACE@ = VALUE.OPS(2);

   7483  1 001610   200010 235100                    LDA     VALUE+3,,AUTO
         1 001611   000000 470400 xsym               LDP0    S_D$
         1 001612   007066 755100                    STA     3638,,PR0

     1220     7484    5                          END;

     1221     7485    4                       S_D.BF.NEXT@ = NWORD_L6_PTR.PNTR;

   7485  1 001613   200026 236100                    LDQ     NWORD_L6,,AUTO
         1 001614   000005 376000 2                  ANQ     5
         1 001615   007065 756100                    STQ     3637,,PR0

     1222     7486    4                       S_D.BF.HIGH@ = S_D.BF.NEXT@ + S_D.BF.RSPACE@ - 1;

   7486  1 001616   007066 036100                    ADLQ    3638,,PR0
         1 001617   000001 136007                    SBLQ    1,DL
         1 001620   007070 756100                    STQ     3640,,PR0

     1223     7487    4                       IF NOT (S_D.BF.RSPACE@ <= 0)

   7487  1 001621   000000 115003                    CMPA    0,DU
         1 001622   001626 604400 1                  TMOZ    s:7492

     1224     7488    5                       THEN DO;

PL6.E3A0      #002=DDI$GET_PATCH_SPACE File=DUI$1STIME.:E05TSI                   TUE 07/29/97 14:53 Page:221
     1225     7489    5                            S_D.BF.GOT@ = '1'B;

   7489  1 001623   400000 236003                    LDQ     -131072,DU
         1 001624   007064 756100                    STQ     3636,,PR0

     1226     7490    5                            S_D.BF.DEFINED@ = '1'B;

   7490  1 001625   007071 756100                    STQ     3641,,PR0

     1227     7491    5                          END;

     1228     7492    5                       IF S_D.RUM_FEP_USE = C@BF THEN DO;

   7492  1 001626   005275 235100                    LDA     2749,,PR0
         1 001627   001171 115007                    CMPA    633,DL
         1 001630   001647 601000 1                  TNZ     NO@BF

     1229     7493    5                          S_D.GOT@ = S_D.BF.GOT@;

   7493  1 001631   007064 236100                    LDQ     3636,,PR0
         1 001632   400000 376003                    ANQ     -131072,DU
         1 001633   005054 756100                    STQ     2604,,PR0

     1230     7494    5                          S_D.DEFINED@ = S_D.BF.DEFINED@;

   7494  1 001634   007071 236100                    LDQ     3641,,PR0
         1 001635   400000 376003                    ANQ     -131072,DU
         1 001636   005060 756100                    STQ     2608,,PR0

     1231     7495    5                          S_D.NEXT@ = S_D.BF.NEXT@;

   7495  1 001637   007065 235100                    LDA     3637,,PR0
         1 001640   005055 755100                    STA     2605,,PR0

     1232     7496    5                          S_D.RSPACE@ = S_D.BF.RSPACE@;

   7496  1 001641   007066 235100                    LDA     3638,,PR0
PL6.E3A0      #002=DDI$GET_PATCH_SPACE File=DUI$1STIME.:E05TSI                   TUE 07/29/97 14:53 Page:222
         1 001642   005056 755100                    STA     2606,,PR0

     1233     7497    5                          S_D.HEAD@ = S_D.BF.HEAD@;

   7497  1 001643   007067 235100                    LDA     3639,,PR0
         1 001644   005057 755100                    STA     2607,,PR0

     1234     7498    5                          S_D.HIGH@ = S_D.BF.HIGH@;

   7498  1 001645   007070 235100                    LDA     3640,,PR0
         1 001646   005133 755100                    STA     2651,,PR0

     1235     7499    5                          END;

     1236     7500    4                     END;

     1237     7501    3                END;                       /* DO WHILE ('0'B)  GOT@_BF */

   7497  1 001647                       NO@BF        null
     1238     7502    2   NO@BF:    ;
     1239     7503    2             CALL DDS$SD_SRCH(G_PATCHDH_BF$, TEMP$) ALTRET(GOT#_BF);

   7503  1 001647   200003 630500                    EPPR0   TEMP$,,AUTO
         1 001650   200031 450500                    STP0    NWORD_L6+3,,AUTO
         1 001651   000016 236000 2                  LDQ     14
         1 001652   200030 756100                    STQ     NWORD_L6+2,,AUTO
         1 001653   200030 630500                    EPPR0   NWORD_L6+2,,AUTO
         1 001654   000020 631400 xsym               EPPR1   B_VECTNIL+16
         1 001655   000000 701000 xent               TSX1    DDS$SD_SRCH
         1 001656   001660 702000 1                  TSX2    GOT#_BF

     1240     7504    3             DO WHILE( '0'B );

   7504  1 001657   002050 710000 1                  TRA     NO#BF

   7503  1 001660                       GOT#_BF      null
     1241     7505    3   GOT#_BF:          ;
PL6.E3A0      #002=DDI$GET_PATCH_SPACE File=DUI$1STIME.:E05TSI                   TUE 07/29/97 14:53 Page:223
     1242     7506    3                  IF NOT TEMP$ -> B$SDEF.CONSTNT AND

   7506  1 001660   200003 470500                    LDP0    TEMP$,,AUTO
         1 001661   000001 236100                    LDQ     1,,PR0
         1 001662   400000 316007                    CANQ    -131072,DL
         1 001663   002050 601000 1                  TNZ     NO#BF
         1 001664   000000 236100                    LDQ     0,,PR0
         1 001665   700000 316003                    CANQ    -32768,DU
         1 001666   001700 600000 1                  TZE     s:7512
         1 001667   000000 236100                    LDQ     0,,PR0
         1 001670   700000 376003                    ANQ     -32768,DU
         1 001671   300000 116003                    CMPQ    98304,DU
         1 001672   001700 600000 1                  TZE     s:7512
         1 001673   500000 116003                    CMPQ    -98304,DU
         1 001674   002050 601000 1                  TNZ     NO#BF
         1 001675   000000 471400 xsym               LDP1    S_D$
         1 001676   100071 234100                    SZN     57,,PR1
         1 001677   002050 605000 1                  TPL     NO#BF

     1243     7507    3                    ((TEMP$ -> B$SDEF.AD.LFLAGS.SOURCE = %SOURCE_OBJECT#
     1244     7508    3                    OR TEMP$ -> B$SDEF.AD.LFLAGS.SOURCE = %SOURCE_ULIB#)
     1245     7509    3                    OR (TEMP$ -> B$SDEF.AD.LFLAGS.SOURCE = %SOURCE_REMOVED#
     1246     7510    3                    AND S_D.HEAD_LIB))
     1247     7511    4                  THEN DO;

     1248     7512    4                       S_D.BF.HEAD# = TEMP$ -> B$SDEF.AD.ISADDR;

   7512  1 001700   000000 471400 xsym               LDP1    S_D$
         1 001701   000000 236100                    LDQ     0,,PR0
         1 001702   000032 376000 xsym               ANQ     B_VECTNIL+26
         1 001703   107075 756100                    STQ     3645,,PR1

     1249     7513    4                       IF S_D.RUM

   7513  1 001704   104755 234100                    SZN     2541,,PR1
         1 001705   001763 605000 1                  TPL     s:7522

PL6.E3A0      #002=DDI$GET_PATCH_SPACE File=DUI$1STIME.:E05TSI                   TUE 07/29/97 14:53 Page:224
     1250     7514    5                       THEN DO;

     1251     7515    5                           CALL DUU$GETMVAL(VALUE, 0, S_D.BF.HEAD#, 0, 0, '0'B) ALTRET
              7515                                     (NO#BF);

   7515  1 001706   000002 237000 2                  LDAQ    2
         1 001707   200034 757100                    STAQ    NWORD_L6+6,,AUTO
         1 001710   000002 236000 2                  LDQ     2
         1 001711   200033 756100                    STQ     NWORD_L6+5,,AUTO
         1 001712   000000 236000 xsym               LDQ     S_D$
         1 001713   007075 036003                    ADLQ    3645,DU
         1 001714   200032 756100                    STQ     NWORD_L6+4,,AUTO
         1 001715   000002 236000 2                  LDQ     2
         1 001716   200031 756100                    STQ     NWORD_L6+3,,AUTO
         1 001717   200005 633500                    EPPR3   VALUE,,AUTO
         1 001720   200030 453500                    STP3    NWORD_L6+2,,AUTO
         1 001721   200030 630500                    EPPR0   NWORD_L6+2,,AUTO
         1 001722   000024 631400 xsym               EPPR1   B_VECTNIL+20
         1 001723   000000 701000 xent               TSX1    DUU$GETMVAL
         1 001724   002050 702000 1                  TSX2    NO#BF

     1252     7516    5                            NWORD_L6.ADDR1 = VALUE.OPS_L61.BITS(0);

   7516  1 001725   200006 236100                    LDQ     VALUE+1,,AUTO
         1 001726   000020 736000                    QLS     16
         1 001727   200026 676100                    ERQ     NWORD_L6,,AUTO
         1 001730   000004 376000 2                  ANQ     4
         1 001731   200026 656100                    ERSQ    NWORD_L6,,AUTO

     1253     7517    5                            NWORD_L6.ADDR2 = VALUE.OPS_L62.BITS(1);

   7517  1 001732   200007 236100                    LDQ     VALUE+2,,AUTO
         1 001733   200026 676100                    ERQ     NWORD_L6,,AUTO
         1 001734   177777 376007                    ANQ     65535,DL
         1 001735   200026 656100                    ERSQ    NWORD_L6,,AUTO

     1254     7518    5                            CALL DUU$GETMVAL(VALUE, 0, S_D.BF.HEAD# + 2, 0, 0, '0'B)
PL6.E3A0      #002=DDI$GET_PATCH_SPACE File=DUI$1STIME.:E05TSI                   TUE 07/29/97 14:53 Page:225
              7518                                     ALTRET(NO#BF);

   7518  1 001736   000000 470400 xsym               LDP0    S_D$
         1 001737   007075 235100                    LDA     3645,,PR0
         1 001740   000002 035007                    ADLA    2,DL
         1 001741   200030 755100                    STA     NWORD_L6+2,,AUTO
         1 001742   000002 237000 2                  LDAQ    2
         1 001743   200036 757100                    STAQ    NWORD_L6+8,,AUTO
         1 001744   000002 236000 2                  LDQ     2
         1 001745   200035 756100                    STQ     NWORD_L6+7,,AUTO
         1 001746   200030 631500                    EPPR1   NWORD_L6+2,,AUTO
         1 001747   200034 451500                    STP1    NWORD_L6+6,,AUTO
         1 001750   200033 756100                    STQ     NWORD_L6+5,,AUTO
         1 001751   200005 633500                    EPPR3   VALUE,,AUTO
         1 001752   200032 453500                    STP3    NWORD_L6+4,,AUTO
         1 001753   200032 630500                    EPPR0   NWORD_L6+4,,AUTO
         1 001754   000024 631400 xsym               EPPR1   B_VECTNIL+20
         1 001755   000000 701000 xent               TSX1    DUU$GETMVAL
         1 001756   002050 702000 1                  TSX2    NO#BF

     1255     7519    5                            S_D.BF.RSPACE# = VALUE.OPS(0);

   7519  1 001757   200006 235100                    LDA     VALUE+1,,AUTO
         1 001760   000000 470400 xsym               LDP0    S_D$
         1 001761   007074 755100                    STA     3644,,PR0

     1256     7520    5                          END;

   7520  1 001762   002014 710000 1                  TRA     s:7528

     1257     7521    5                       ELSE DO;

     1258     7522    5                            CALL DFK$GETMVAL(VALUE, S_D.BF.HEAD#, 3, 0, '0'B, '0'B)

   7522  1 001763   000002 237000 2                  LDAQ    2
         1 001764   200034 757100                    STAQ    NWORD_L6+6,,AUTO
         1 001765   000006 237000 2                  LDAQ    6
PL6.E3A0      #002=DDI$GET_PATCH_SPACE File=DUI$1STIME.:E05TSI                   TUE 07/29/97 14:53 Page:226
         1 001766   200032 757100                    STAQ    NWORD_L6+4,,AUTO
         1 001767   000000 236000 xsym               LDQ     S_D$
         1 001770   007075 036003                    ADLQ    3645,DU
         1 001771   200031 756100                    STQ     NWORD_L6+3,,AUTO
         1 001772   200005 633500                    EPPR3   VALUE,,AUTO
         1 001773   200030 453500                    STP3    NWORD_L6+2,,AUTO
         1 001774   200030 630500                    EPPR0   NWORD_L6+2,,AUTO
         1 001775   000024 631400 xsym               EPPR1   B_VECTNIL+20
         1 001776   000000 701000 xent               TSX1    DFK$GETMVAL
         1 001777   002050 702000 1                  TSX2    NO#BF

     1259     7523    5                                 ALTRET(NO#BF);
     1260     7524    5                            NWORD_L6.ADDR1 = VALUE.OPS_L61.BITS(0);

   7524  1 002000   200006 236100                    LDQ     VALUE+1,,AUTO
         1 002001   000020 736000                    QLS     16
         1 002002   200026 676100                    ERQ     NWORD_L6,,AUTO
         1 002003   000004 376000 2                  ANQ     4
         1 002004   200026 656100                    ERSQ    NWORD_L6,,AUTO

     1261     7525    5                            NWORD_L6.ADDR2 = VALUE.OPS_L62.BITS(1);

   7525  1 002005   200007 236100                    LDQ     VALUE+2,,AUTO
         1 002006   200026 676100                    ERQ     NWORD_L6,,AUTO
         1 002007   177777 376007                    ANQ     65535,DL
         1 002010   200026 656100                    ERSQ    NWORD_L6,,AUTO

     1262     7526    5                            S_D.BF.RSPACE# = VALUE.OPS(2);

   7526  1 002011   200010 235100                    LDA     VALUE+3,,AUTO
         1 002012   000000 470400 xsym               LDP0    S_D$
         1 002013   007074 755100                    STA     3644,,PR0

     1263     7527    5                          END;

     1264     7528    4                       S_D.BF.NEXT# = NWORD_L6_PTR.PNTR;

PL6.E3A0      #002=DDI$GET_PATCH_SPACE File=DUI$1STIME.:E05TSI                   TUE 07/29/97 14:53 Page:227
   7528  1 002014   200026 236100                    LDQ     NWORD_L6,,AUTO
         1 002015   000005 376000 2                  ANQ     5
         1 002016   007073 756100                    STQ     3643,,PR0

     1265     7529    4                       S_D.BF.HIGH# = S_D.BF.NEXT# + S_D.BF.RSPACE# - 1;

   7529  1 002017   007074 036100                    ADLQ    3644,,PR0
         1 002020   000001 136007                    SBLQ    1,DL
         1 002021   007076 756100                    STQ     3646,,PR0

     1266     7530    4                       IF NOT (S_D.BF.RSPACE# <= 0)

   7530  1 002022   000000 115003                    CMPA    0,DU
         1 002023   002027 604400 1                  TMOZ    s:7535

     1267     7531    5                       THEN DO;

     1268     7532    5                            S_D.BF.GOT# = '1'B;

   7532  1 002024   400000 236003                    LDQ     -131072,DU
         1 002025   007072 756100                    STQ     3642,,PR0

     1269     7533    5                            S_D.BF.DEFINED# = '1'B;

   7533  1 002026   007077 756100                    STQ     3647,,PR0

     1270     7534    5                          END;

     1271     7535    5                       IF S_D.RUM_FEP_USE = C@BF THEN DO;

   7535  1 002027   005275 235100                    LDA     2749,,PR0
         1 002030   001171 115007                    CMPA    633,DL
         1 002031   002050 601000 1                  TNZ     NO#BF

     1272     7536    5                          S_D.GOT# = S_D.BF.GOT#;

   7536  1 002032   007072 236100                    LDQ     3642,,PR0
PL6.E3A0      #002=DDI$GET_PATCH_SPACE File=DUI$1STIME.:E05TSI                   TUE 07/29/97 14:53 Page:228
         1 002033   400000 376003                    ANQ     -131072,DU
         1 002034   005061 756100                    STQ     2609,,PR0

     1273     7537    5                          S_D.DEFINED# = S_D.BF.DEFINED#;

   7537  1 002035   007077 236100                    LDQ     3647,,PR0
         1 002036   400000 376003                    ANQ     -131072,DU
         1 002037   005065 756100                    STQ     2613,,PR0

     1274     7538    5                          S_D.NEXT# = S_D.BF.NEXT#;

   7538  1 002040   007073 235100                    LDA     3643,,PR0
         1 002041   005062 755100                    STA     2610,,PR0

     1275     7539    5                          S_D.RSPACE# = S_D.BF.RSPACE#;

   7539  1 002042   007074 235100                    LDA     3644,,PR0
         1 002043   005063 755100                    STA     2611,,PR0

     1276     7540    5                          S_D.HEAD# = S_D.BF.HEAD#;

   7540  1 002044   007075 235100                    LDA     3645,,PR0
         1 002045   005064 755100                    STA     2612,,PR0

     1277     7541    5                          S_D.HIGH# = S_D.BF.HIGH#;

   7541  1 002046   007076 235100                    LDA     3646,,PR0
         1 002047   005136 755100                    STA     2654,,PR0

     1278     7542    5                          END;

     1279     7543    4                     END;

     1280     7544    3                END;                       /* DO WHILE ('0'B)  GOT#_BF */

   7540  1 002050                       NO#BF        null
     1281     7545    2   NO#BF:    ;
PL6.E3A0      #002=DDI$GET_PATCH_SPACE File=DUI$1STIME.:E05TSI                   TUE 07/29/97 14:53 Page:229
     1282     7546    2             GOTO NO#NO;

   7546  1 002050   002703 710000 1                  TRA     NO#NO

     1283     7547    2          END;
     1284     7548    1        IF NOT (S_D.ANLZ_FILE OR S_D.SHOW)

   7548  1 002051   005052 234100                    SZN     2602,,PR0
         1 002052   002703 604000 1                  TMI     NO#NO
         1 002053   006715 234100                    SZN     3533,,PR0
         1 002054   002703 604000 1                  TMI     NO#NO

     1285     7549    2        THEN DO;

     1286     7550    2             REMEMBER NO#NO IN S_D.REM_ACCESS;

   7550  1 002055   002703 635000 1                  EAA     NO#NO
         1 002056   000024 452500                    STP2    20,,PR0
         1 002057   000025 755100                    STA     21,,PR0

     1287     7551    2             S_D.ACCESS = '1'B;

   7551  1 002060   400000 236003                    LDQ     -131072,DU
         1 002061   000016 756100                    STQ     14,,PR0

     1288     7552    2             IF S_D.ONE_TO_TWO.EXEC_DOMAIN = %HOST

   7552  1 002062   006714 235100                    LDA     3532,,PR0
         1 002063   000001 115007                    CMPA    1,DL
         1 002064   002076 601000 1                  TNZ     s:7554

     1289     7553    2             THEN CALL DDS$SD_SRCH(B_PATCHIH$, TEMP$) ALTRET(GOT@);

   7553  1 002065   200003 631500                    EPPR1   TEMP$,,AUTO
         1 002066   200031 451500                    STP1    NWORD_L6+3,,AUTO
         1 002067   000017 236000 2                  LDQ     15
         1 002070   200030 756100                    STQ     NWORD_L6+2,,AUTO
PL6.E3A0      #002=DDI$GET_PATCH_SPACE File=DUI$1STIME.:E05TSI                   TUE 07/29/97 14:53 Page:230
         1 002071   200030 630500                    EPPR0   NWORD_L6+2,,AUTO
         1 002072   000020 631400 xsym               EPPR1   B_VECTNIL+16
         1 002073   000000 701000 xent               TSX1    DDS$SD_SRCH
         1 002074   002120 702000 1                  TSX2    GOT@
         1 002075   002117 710000 1                  TRA     s:7561

     1290     7554    2             ELSE IF S_D.ONE_TO_TWO.EXEC_DOMAIN = %L6

   7554  1 002076   000002 115007                    CMPA    2,DL
         1 002077   002111 601000 1                  TNZ     s:7557

     1291     7555    2                  THEN CALL DDS$SD_SRCH(G_PATCHIH$, TEMP$) ALTRET(GOT@);

   7555  1 002100   200003 631500                    EPPR1   TEMP$,,AUTO
         1 002101   200031 451500                    STP1    NWORD_L6+3,,AUTO
         1 002102   000020 236000 2                  LDQ     16
         1 002103   200030 756100                    STQ     NWORD_L6+2,,AUTO
         1 002104   200030 630500                    EPPR0   NWORD_L6+2,,AUTO
         1 002105   000020 631400 xsym               EPPR1   B_VECTNIL+16
         1 002106   000000 701000 xent               TSX1    DDS$SD_SRCH
         1 002107   002120 702000 1                  TSX2    GOT@
         1 002110   002117 710000 1                  TRA     s:7561

     1292     7556    3                  ELSE DO;

     1293     7557    3                       S_D.ERROR = E@DELBUG;  /* E@DELBUG */

   7557  1 002111   000766 235007                    LDA     502,DL
         1 002112   000013 755100                    STA     11,,PR0

     1294     7558    3                       CALL DDE$ERROR;

   7558  1 002113   000002 631400 xsym               EPPR1   B_VECTNIL+2
         1 002114   000000 701000 xent               TSX1    DDE$ERROR
         1 002115   000000 011000                    NOP     0

     1295     7559    3                       GOTO NO@NO;
PL6.E3A0      #002=DDI$GET_PATCH_SPACE File=DUI$1STIME.:E05TSI                   TUE 07/29/97 14:53 Page:231

   7559  1 002116   002372 710000 1                  TRA     NO@NO

     1296     7560    3                     END;
     1297     7561    3             DO WHILE( '0'B );

   7561  1 002117   002372 710000 1                  TRA     NO@NO

   7561  1 002120                       GOT@         null
     1298     7562    3   GOT@:          ;
     1299     7563    3                  IF NOT TEMP$ -> B$SDEF.CONSTNT AND

   7563  1 002120   200003 470500                    LDP0    TEMP$,,AUTO
         1 002121   000001 236100                    LDQ     1,,PR0
         1 002122   400000 316007                    CANQ    -131072,DL
         1 002123   002372 601000 1                  TNZ     NO@NO
         1 002124   000000 236100                    LDQ     0,,PR0
         1 002125   700000 316003                    CANQ    -32768,DU
         1 002126   002140 600000 1                  TZE     s:7569
         1 002127   000000 236100                    LDQ     0,,PR0
         1 002130   700000 376003                    ANQ     -32768,DU
         1 002131   300000 116003                    CMPQ    98304,DU
         1 002132   002140 600000 1                  TZE     s:7569
         1 002133   500000 116003                    CMPQ    -98304,DU
         1 002134   002372 601000 1                  TNZ     NO@NO
         1 002135   000000 471400 xsym               LDP1    S_D$
         1 002136   100071 234100                    SZN     57,,PR1
         1 002137   002372 605000 1                  TPL     NO@NO

     1300     7564    3                    ((TEMP$ -> B$SDEF.AD.LFLAGS.SOURCE = %SOURCE_OBJECT#
     1301     7565    3                    OR TEMP$ -> B$SDEF.AD.LFLAGS.SOURCE = %SOURCE_ULIB#)
     1302     7566    3                    OR (TEMP$ -> B$SDEF.AD.LFLAGS.SOURCE = %SOURCE_REMOVED#
     1303     7567    3                    AND S_D.HEAD_LIB))
     1304     7568    4                  THEN DO;

     1305     7569    4                       S_D.HEAD@ = TEMP$ -> B$SDEF.AD.ISADDR;

PL6.E3A0      #002=DDI$GET_PATCH_SPACE File=DUI$1STIME.:E05TSI                   TUE 07/29/97 14:53 Page:232
   7569  1 002140   000000 471400 xsym               LDP1    S_D$
         1 002141   000000 236100                    LDQ     0,,PR0
         1 002142   000032 376000 xsym               ANQ     B_VECTNIL+26
         1 002143   105057 756100                    STQ     2607,,PR1

     1306     7570    4                       IF S_D.RUM

   7570  1 002144   104755 234100                    SZN     2541,,PR1
         1 002145   002254 605000 1                  TPL     s:7585

     1307     7571    5                       THEN DO;

     1308     7572    5                            CALL DUU$GETMVAL(VALUE, 0, S_D.HEAD@, 0, 0, '0'B) ALTRET(
              7572                                     NO@NO);

   7572  1 002146   000002 237000 2                  LDAQ    2
         1 002147   200034 757100                    STAQ    NWORD_L6+6,,AUTO
         1 002150   000002 236000 2                  LDQ     2
         1 002151   200033 756100                    STQ     NWORD_L6+5,,AUTO
         1 002152   000000 236000 xsym               LDQ     S_D$
         1 002153   005057 036003                    ADLQ    2607,DU
         1 002154   200032 756100                    STQ     NWORD_L6+4,,AUTO
         1 002155   000002 236000 2                  LDQ     2
         1 002156   200031 756100                    STQ     NWORD_L6+3,,AUTO
         1 002157   200005 633500                    EPPR3   VALUE,,AUTO
         1 002160   200030 453500                    STP3    NWORD_L6+2,,AUTO
         1 002161   200030 630500                    EPPR0   NWORD_L6+2,,AUTO
         1 002162   000024 631400 xsym               EPPR1   B_VECTNIL+20
         1 002163   000000 701000 xent               TSX1    DUU$GETMVAL
         1 002164   002372 702000 1                  TSX2    NO@NO

     1309     7573    5                            IF S_D.ONE_TO_TWO.EXEC_DOMAIN = %HOST

   7573  1 002165   000000 470400 xsym               LDP0    S_D$
         1 002166   006714 235100                    LDA     3532,,PR0
         1 002167   000001 115007                    CMPA    1,DL
         1 002170   002174 601000 1                  TNZ     s:7576
PL6.E3A0      #002=DDI$GET_PATCH_SPACE File=DUI$1STIME.:E05TSI                   TUE 07/29/97 14:53 Page:233

     1310     7574    5                            THEN NWORD_36 = VALUE.OPS(0);

   7574  1 002171   200006 236100                    LDQ     VALUE+1,,AUTO
         1 002172   200004 756100                    STQ     NWORD,,AUTO
         1 002173   002205 710000 1                  TRA     s:7579

     1311     7575    6                            ELSE DO;

     1312     7576    6                                 NWORD_L6.ADDR1 = VALUE.OPS_L61.BITS(0);

   7576  1 002174   200006 236100                    LDQ     VALUE+1,,AUTO
         1 002175   000020 736000                    QLS     16
         1 002176   200026 676100                    ERQ     NWORD_L6,,AUTO
         1 002177   000004 376000 2                  ANQ     4
         1 002200   200026 656100                    ERSQ    NWORD_L6,,AUTO

     1313     7577    6                                 NWORD_L6.ADDR2 = VALUE.OPS_L62.BITS(1);

   7577  1 002201   200007 236100                    LDQ     VALUE+2,,AUTO
         1 002202   200026 676100                    ERQ     NWORD_L6,,AUTO
         1 002203   177777 376007                    ANQ     65535,DL
         1 002204   200026 656100                    ERSQ    NWORD_L6,,AUTO

     1314     7578    6                               END;

     1315     7579    5                            IF S_D.ONE_TO_TWO.EXEC_DOMAIN = %HOST

   7579  1 002205   000001 115007                    CMPA    1,DL
         1 002206   002230 601000 1                  TNZ     s:7581

     1316     7580    5                            THEN CALL DUU$GETMVAL(VALUE, 0, S_D.HEAD@ + 1, 0, 0, '0'B)
              7580                                     ALTRET(NO@NO);

   7580  1 002207   005057 235100                    LDA     2607,,PR0
         1 002210   000001 035007                    ADLA    1,DL
         1 002211   200030 755100                    STA     NWORD_L6+2,,AUTO
PL6.E3A0      #002=DDI$GET_PATCH_SPACE File=DUI$1STIME.:E05TSI                   TUE 07/29/97 14:53 Page:234
         1 002212   000002 237000 2                  LDAQ    2
         1 002213   200036 757100                    STAQ    NWORD_L6+8,,AUTO
         1 002214   000002 236000 2                  LDQ     2
         1 002215   200035 756100                    STQ     NWORD_L6+7,,AUTO
         1 002216   200030 631500                    EPPR1   NWORD_L6+2,,AUTO
         1 002217   200034 451500                    STP1    NWORD_L6+6,,AUTO
         1 002220   200033 756100                    STQ     NWORD_L6+5,,AUTO
         1 002221   200005 633500                    EPPR3   VALUE,,AUTO
         1 002222   200032 453500                    STP3    NWORD_L6+4,,AUTO
         1 002223   200032 630500                    EPPR0   NWORD_L6+4,,AUTO
         1 002224   000024 631400 xsym               EPPR1   B_VECTNIL+20
         1 002225   000000 701000 xent               TSX1    DUU$GETMVAL
         1 002226   002372 702000 1                  TSX2    NO@NO
         1 002227   002250 710000 1                  TRA     s:7582

     1317     7581    5                            ELSE CALL DUU$GETMVAL(VALUE, 0, S_D.HEAD@ + 2, 0, 0, '0'B)
              7581                                     ALTRET(NO@NO);

   7581  1 002230   005057 235100                    LDA     2607,,PR0
         1 002231   000002 035007                    ADLA    2,DL
         1 002232   200030 755100                    STA     NWORD_L6+2,,AUTO
         1 002233   000002 237000 2                  LDAQ    2
         1 002234   200036 757100                    STAQ    NWORD_L6+8,,AUTO
         1 002235   000002 236000 2                  LDQ     2
         1 002236   200035 756100                    STQ     NWORD_L6+7,,AUTO
         1 002237   200030 631500                    EPPR1   NWORD_L6+2,,AUTO
         1 002240   200034 451500                    STP1    NWORD_L6+6,,AUTO
         1 002241   200033 756100                    STQ     NWORD_L6+5,,AUTO
         1 002242   200005 633500                    EPPR3   VALUE,,AUTO
         1 002243   200032 453500                    STP3    NWORD_L6+4,,AUTO
         1 002244   200032 630500                    EPPR0   NWORD_L6+4,,AUTO
         1 002245   000024 631400 xsym               EPPR1   B_VECTNIL+20
         1 002246   000000 701000 xent               TSX1    DUU$GETMVAL
         1 002247   002372 702000 1                  TSX2    NO@NO

     1318     7582    5                            S_D.RSPACE@ = VALUE.OPS(0);

PL6.E3A0      #002=DDI$GET_PATCH_SPACE File=DUI$1STIME.:E05TSI                   TUE 07/29/97 14:53 Page:235
   7582  1 002250   200006 235100                    LDA     VALUE+1,,AUTO
         1 002251   000000 470400 xsym               LDP0    S_D$
         1 002252   005056 755100                    STA     2606,,PR0

     1319     7583    5                          END;

   7583  1 002253   002347 710000 1                  TRA     s:7598

     1320     7584    5                       ELSE DO;

     1321     7585    5                            IF S_D.ONE_TO_TWO.EXEC_DOMAIN = %HOST

   7585  1 002254   106714 235100                    LDA     3532,,PR1
         1 002255   000001 115007                    CMPA    1,DL
         1 002256   002316 601000 1                  TNZ     s:7591

     1322     7586    6                            THEN DO;

     1323     7587    6                                CALL DDK$GETMVAL(NWORD, S_D.HEAD@, 3, 0, '0'B) ALTRET(
              7587                                          NO@NO);

   7587  1 002257   000002 236000 2                  LDQ     2
         1 002260   200034 756100                    STQ     NWORD_L6+6,,AUTO
         1 002261   000006 237000 2                  LDAQ    6
         1 002262   200032 757100                    STAQ    NWORD_L6+4,,AUTO
         1 002263   000000 236000 xsym               LDQ     S_D$
         1 002264   005057 036003                    ADLQ    2607,DU
         1 002265   200031 756100                    STQ     NWORD_L6+3,,AUTO
         1 002266   200004 633500                    EPPR3   NWORD,,AUTO
         1 002267   200030 453500                    STP3    NWORD_L6+2,,AUTO
         1 002270   200030 630500                    EPPR0   NWORD_L6+2,,AUTO
         1 002271   000023 631400 xsym               EPPR1   B_VECTNIL+19
         1 002272   000000 701000 xent               TSX1    DDK$GETMVAL
         1 002273   002372 702000 1                  TSX2    NO@NO

     1324     7588    6                                 CALL DDK$GETMVAL(S_D.RSPACE@, S_D.HEAD@ + 1, 3, 0,
              7588                                          '0'B) ALTRET(NO@NO);
PL6.E3A0      #002=DDI$GET_PATCH_SPACE File=DUI$1STIME.:E05TSI                   TUE 07/29/97 14:53 Page:236

   7588  1 002274   000000 470400 xsym               LDP0    S_D$
         1 002275   005057 235100                    LDA     2607,,PR0
         1 002276   000001 035007                    ADLA    1,DL
         1 002277   200030 755100                    STA     NWORD_L6+2,,AUTO
         1 002300   000002 237000 2                  LDAQ    2
         1 002301   200034 757100                    STAQ    NWORD_L6+6,,AUTO
         1 002302   000006 236000 2                  LDQ     6
         1 002303   200033 756100                    STQ     NWORD_L6+5,,AUTO
         1 002304   200030 631500                    EPPR1   NWORD_L6+2,,AUTO
         1 002305   200032 451500                    STP1    NWORD_L6+4,,AUTO
         1 002306   000000 236000 xsym               LDQ     S_D$
         1 002307   005056 036003                    ADLQ    2606,DU
         1 002310   200031 756100                    STQ     NWORD_L6+3,,AUTO
         1 002311   200031 630500                    EPPR0   NWORD_L6+3,,AUTO
         1 002312   000023 631400 xsym               EPPR1   B_VECTNIL+19
         1 002313   000000 701000 xent               TSX1    DDK$GETMVAL
         1 002314   002372 702000 1                  TSX2    NO@NO

     1325     7589    6                               END;

   7589  1 002315   002347 710000 1                  TRA     s:7598

     1326     7590    6                            ELSE DO;

     1327     7591    6                                 CALL DFK$GETMVAL(VALUE, S_D.HEAD@, 3, 0, '0'B, '0'B)

   7591  1 002316   000002 237000 2                  LDAQ    2
         1 002317   200034 757100                    STAQ    NWORD_L6+6,,AUTO
         1 002320   000006 237000 2                  LDAQ    6
         1 002321   200032 757100                    STAQ    NWORD_L6+4,,AUTO
         1 002322   000000 236000 xsym               LDQ     S_D$
         1 002323   005057 036003                    ADLQ    2607,DU
         1 002324   200031 756100                    STQ     NWORD_L6+3,,AUTO
         1 002325   200005 633500                    EPPR3   VALUE,,AUTO
         1 002326   200030 453500                    STP3    NWORD_L6+2,,AUTO
         1 002327   200030 630500                    EPPR0   NWORD_L6+2,,AUTO
PL6.E3A0      #002=DDI$GET_PATCH_SPACE File=DUI$1STIME.:E05TSI                   TUE 07/29/97 14:53 Page:237
         1 002330   000024 631400 xsym               EPPR1   B_VECTNIL+20
         1 002331   000000 701000 xent               TSX1    DFK$GETMVAL
         1 002332   002372 702000 1                  TSX2    NO@NO

     1328     7592    6                                      ALTRET(NO@NO);
     1329     7593    6                                 NWORD_L6.ADDR1 = VALUE.OPS_L61.BITS(0);

   7593  1 002333   200006 236100                    LDQ     VALUE+1,,AUTO
         1 002334   000020 736000                    QLS     16
         1 002335   200026 676100                    ERQ     NWORD_L6,,AUTO
         1 002336   000004 376000 2                  ANQ     4
         1 002337   200026 656100                    ERSQ    NWORD_L6,,AUTO

     1330     7594    6                                 NWORD_L6.ADDR2 = VALUE.OPS_L62.BITS(1);

   7594  1 002340   200007 236100                    LDQ     VALUE+2,,AUTO
         1 002341   200026 676100                    ERQ     NWORD_L6,,AUTO
         1 002342   177777 376007                    ANQ     65535,DL
         1 002343   200026 656100                    ERSQ    NWORD_L6,,AUTO

     1331     7595    6                                 S_D.RSPACE@ = VALUE.OPS(2);

   7595  1 002344   200010 235100                    LDA     VALUE+3,,AUTO
         1 002345   000000 470400 xsym               LDP0    S_D$
         1 002346   005056 755100                    STA     2606,,PR0

     1332     7596    6                               END;

     1333     7597    5                          END;

     1334     7598    4                       IF S_D.ONE_TO_TWO.EXEC_DOMAIN = %HOST

   7598  1 002347   000000 470400 xsym               LDP0    S_D$
         1 002350   006714 235100                    LDA     3532,,PR0
         1 002351   000001 115007                    CMPA    1,DL
         1 002352   002357 601000 1                  TNZ     s:7601

PL6.E3A0      #002=DDI$GET_PATCH_SPACE File=DUI$1STIME.:E05TSI                   TUE 07/29/97 14:53 Page:238
     1335     7599
     1336     7600    4                       THEN S_D.NEXT@ = NWORD.ISADDR;

   7600  1 002353   200004 236100                    LDQ     NWORD,,AUTO
         1 002354   000022 772000                    QRL     18
         1 002355   005055 756100                    STQ     2605,,PR0
         1 002356   002362 710000 1                  TRA     s:7602

     1337     7601    4                       ELSE S_D.NEXT@ = NWORD_L6_PTR.PNTR;

   7601  1 002357   200026 236100                    LDQ     NWORD_L6,,AUTO
         1 002360   000005 376000 2                  ANQ     5
         1 002361   005055 756100                    STQ     2605,,PR0

     1338     7602    4                       S_D.HIGH@ = S_D.NEXT@ + S_D.RSPACE@ - 1;

   7602  1 002362   005056 036100                    ADLQ    2606,,PR0
         1 002363   000001 136007                    SBLQ    1,DL
         1 002364   005133 756100                    STQ     2651,,PR0

     1339     7603    4                       IF NOT (S_D.RSPACE@ <= 0)

   7603  1 002365   005056 235100                    LDA     2606,,PR0
         1 002366   002372 604400 1                  TMOZ    NO@NO

     1340     7604    5                       THEN DO;

     1341     7605    5                            S_D.GOT@ = '1'B;

   7605  1 002367   400000 236003                    LDQ     -131072,DU
         1 002370   005054 756100                    STQ     2604,,PR0

     1342     7606    5                            S_D.DEFINED@ = '1'B;

   7606  1 002371   005060 756100                    STQ     2608,,PR0

     1343     7607    5                          END;
PL6.E3A0      #002=DDI$GET_PATCH_SPACE File=DUI$1STIME.:E05TSI                   TUE 07/29/97 14:53 Page:239

     1344     7608    4                     END;

     1345     7609    3                END;                       /* DO WHILE ('0'B)  GOT@ */

   7606  1 002372                       NO@NO        null
     1346     7610    2   NO@NO:    ;
     1347     7611    2             IF S_D.ONE_TO_TWO.EXEC_DOMAIN = %HOST

   7611  1 002372   000000 470400 xsym               LDP0    S_D$
         1 002373   006714 235100                    LDA     3532,,PR0
         1 002374   000001 115007                    CMPA    1,DL
         1 002375   002407 601000 1                  TNZ     s:7613

     1348     7612    2             THEN CALL DDS$SD_SRCH(B_PATCHDH$, TEMP$) ALTRET(GOT#);

   7612  1 002376   200003 631500                    EPPR1   TEMP$,,AUTO
         1 002377   200031 451500                    STP1    NWORD_L6+3,,AUTO
         1 002400   000021 236000 2                  LDQ     17
         1 002401   200030 756100                    STQ     NWORD_L6+2,,AUTO
         1 002402   200030 630500                    EPPR0   NWORD_L6+2,,AUTO
         1 002403   000020 631400 xsym               EPPR1   B_VECTNIL+16
         1 002404   000000 701000 xent               TSX1    DDS$SD_SRCH
         1 002405   002431 702000 1                  TSX2    GOT#
         1 002406   002430 710000 1                  TRA     s:7620

     1349     7613    2             ELSE IF S_D.ONE_TO_TWO.EXEC_DOMAIN = %L6

   7613  1 002407   000002 115007                    CMPA    2,DL
         1 002410   002422 601000 1                  TNZ     s:7616

     1350     7614    2                  THEN CALL DDS$SD_SRCH(G_PATCHDH$, TEMP$) ALTRET(GOT#);

   7614  1 002411   200003 631500                    EPPR1   TEMP$,,AUTO
         1 002412   200031 451500                    STP1    NWORD_L6+3,,AUTO
         1 002413   000022 236000 2                  LDQ     18
         1 002414   200030 756100                    STQ     NWORD_L6+2,,AUTO
PL6.E3A0      #002=DDI$GET_PATCH_SPACE File=DUI$1STIME.:E05TSI                   TUE 07/29/97 14:53 Page:240
         1 002415   200030 630500                    EPPR0   NWORD_L6+2,,AUTO
         1 002416   000020 631400 xsym               EPPR1   B_VECTNIL+16
         1 002417   000000 701000 xent               TSX1    DDS$SD_SRCH
         1 002420   002431 702000 1                  TSX2    GOT#
         1 002421   002430 710000 1                  TRA     s:7620

     1351     7615    3                  ELSE DO;

     1352     7616    3                       S_D.ERROR = E@DELBUG;  /* E@DELBUG */

   7616  1 002422   000766 236007                    LDQ     502,DL
         1 002423   000013 756100                    STQ     11,,PR0

     1353     7617    3                       CALL DDE$ERROR;

   7617  1 002424   000002 631400 xsym               EPPR1   B_VECTNIL+2
         1 002425   000000 701000 xent               TSX1    DDE$ERROR
         1 002426   000000 011000                    NOP     0

     1354     7618    3                       GOTO NO#NO;

   7618  1 002427   002703 710000 1                  TRA     NO#NO

     1355     7619    3                     END;
     1356     7620    3             DO WHILE( '0'B );

   7620  1 002430   002703 710000 1                  TRA     NO#NO

   7620  1 002431                       GOT#         null
     1357     7621    3   GOT#:          ;
     1358     7622    3                  IF NOT TEMP$ -> B$SDEF.CONSTNT AND

   7622  1 002431   200003 470500                    LDP0    TEMP$,,AUTO
         1 002432   000001 236100                    LDQ     1,,PR0
         1 002433   400000 316007                    CANQ    -131072,DL
         1 002434   002703 601000 1                  TNZ     NO#NO
         1 002435   000000 236100                    LDQ     0,,PR0
PL6.E3A0      #002=DDI$GET_PATCH_SPACE File=DUI$1STIME.:E05TSI                   TUE 07/29/97 14:53 Page:241
         1 002436   700000 316003                    CANQ    -32768,DU
         1 002437   002451 600000 1                  TZE     s:7628
         1 002440   000000 236100                    LDQ     0,,PR0
         1 002441   700000 376003                    ANQ     -32768,DU
         1 002442   300000 116003                    CMPQ    98304,DU
         1 002443   002451 600000 1                  TZE     s:7628
         1 002444   500000 116003                    CMPQ    -98304,DU
         1 002445   002703 601000 1                  TNZ     NO#NO
         1 002446   000000 471400 xsym               LDP1    S_D$
         1 002447   100071 234100                    SZN     57,,PR1
         1 002450   002703 605000 1                  TPL     NO#NO

     1359     7623    3                    ((TEMP$ -> B$SDEF.AD.LFLAGS.SOURCE = %SOURCE_OBJECT#
     1360     7624    3                    OR TEMP$ -> B$SDEF.AD.LFLAGS.SOURCE = %SOURCE_ULIB#)
     1361     7625    3                    OR (TEMP$ -> B$SDEF.AD.LFLAGS.SOURCE = %SOURCE_REMOVED#
     1362     7626    3                    AND S_D.HEAD_LIB))
     1363     7627    4                  THEN DO;

     1364     7628    4                       S_D.HEAD# = TEMP$ -> B$SDEF.AD.ISADDR;

   7628  1 002451   000000 471400 xsym               LDP1    S_D$
         1 002452   000000 236100                    LDQ     0,,PR0
         1 002453   000032 376000 xsym               ANQ     B_VECTNIL+26
         1 002454   105064 756100                    STQ     2612,,PR1

     1365     7629    4                       IF S_D.RUM

   7629  1 002455   104755 234100                    SZN     2541,,PR1
         1 002456   002565 605000 1                  TPL     s:7644

     1366     7630    5                       THEN DO;

     1367     7631    5                            CALL DUU$GETMVAL(VALUE, 0, S_D.HEAD#, 0, 0, '0'B) ALTRET(
              7631                                     NO#NO);

   7631  1 002457   000002 237000 2                  LDAQ    2
         1 002460   200034 757100                    STAQ    NWORD_L6+6,,AUTO
PL6.E3A0      #002=DDI$GET_PATCH_SPACE File=DUI$1STIME.:E05TSI                   TUE 07/29/97 14:53 Page:242
         1 002461   000002 236000 2                  LDQ     2
         1 002462   200033 756100                    STQ     NWORD_L6+5,,AUTO
         1 002463   000000 236000 xsym               LDQ     S_D$
         1 002464   005064 036003                    ADLQ    2612,DU
         1 002465   200032 756100                    STQ     NWORD_L6+4,,AUTO
         1 002466   000002 236000 2                  LDQ     2
         1 002467   200031 756100                    STQ     NWORD_L6+3,,AUTO
         1 002470   200005 633500                    EPPR3   VALUE,,AUTO
         1 002471   200030 453500                    STP3    NWORD_L6+2,,AUTO
         1 002472   200030 630500                    EPPR0   NWORD_L6+2,,AUTO
         1 002473   000024 631400 xsym               EPPR1   B_VECTNIL+20
         1 002474   000000 701000 xent               TSX1    DUU$GETMVAL
         1 002475   002703 702000 1                  TSX2    NO#NO

     1368     7632    5                            IF S_D.ONE_TO_TWO.EXEC_DOMAIN = %HOST

   7632  1 002476   000000 470400 xsym               LDP0    S_D$
         1 002477   006714 235100                    LDA     3532,,PR0
         1 002500   000001 115007                    CMPA    1,DL
         1 002501   002505 601000 1                  TNZ     s:7635

     1369     7633    5                            THEN NWORD_36 = VALUE.OPS(0);

   7633  1 002502   200006 236100                    LDQ     VALUE+1,,AUTO
         1 002503   200004 756100                    STQ     NWORD,,AUTO
         1 002504   002516 710000 1                  TRA     s:7638

     1370     7634    6                            ELSE DO;

     1371     7635    6                                 NWORD_L6.ADDR1 = VALUE.OPS_L61.BITS(0);

   7635  1 002505   200006 236100                    LDQ     VALUE+1,,AUTO
         1 002506   000020 736000                    QLS     16
         1 002507   200026 676100                    ERQ     NWORD_L6,,AUTO
         1 002510   000004 376000 2                  ANQ     4
         1 002511   200026 656100                    ERSQ    NWORD_L6,,AUTO

PL6.E3A0      #002=DDI$GET_PATCH_SPACE File=DUI$1STIME.:E05TSI                   TUE 07/29/97 14:53 Page:243
     1372     7636    6                                 NWORD_L6.ADDR2 = VALUE.OPS_L62.BITS(1);

   7636  1 002512   200007 236100                    LDQ     VALUE+2,,AUTO
         1 002513   200026 676100                    ERQ     NWORD_L6,,AUTO
         1 002514   177777 376007                    ANQ     65535,DL
         1 002515   200026 656100                    ERSQ    NWORD_L6,,AUTO

     1373     7637    6                               END;

     1374     7638    5                            IF S_D.ONE_TO_TWO.EXEC_DOMAIN = %HOST

   7638  1 002516   000001 115007                    CMPA    1,DL
         1 002517   002541 601000 1                  TNZ     s:7640

     1375     7639    5                            THEN CALL DUU$GETMVAL(VALUE, 0, S_D.HEAD# + 1, 0, 0, '0'B)
              7639                                     ALTRET(NO#NO);

   7639  1 002520   005064 235100                    LDA     2612,,PR0
         1 002521   000001 035007                    ADLA    1,DL
         1 002522   200030 755100                    STA     NWORD_L6+2,,AUTO
         1 002523   000002 237000 2                  LDAQ    2
         1 002524   200036 757100                    STAQ    NWORD_L6+8,,AUTO
         1 002525   000002 236000 2                  LDQ     2
         1 002526   200035 756100                    STQ     NWORD_L6+7,,AUTO
         1 002527   200030 631500                    EPPR1   NWORD_L6+2,,AUTO
         1 002530   200034 451500                    STP1    NWORD_L6+6,,AUTO
         1 002531   200033 756100                    STQ     NWORD_L6+5,,AUTO
         1 002532   200005 633500                    EPPR3   VALUE,,AUTO
         1 002533   200032 453500                    STP3    NWORD_L6+4,,AUTO
         1 002534   200032 630500                    EPPR0   NWORD_L6+4,,AUTO
         1 002535   000024 631400 xsym               EPPR1   B_VECTNIL+20
         1 002536   000000 701000 xent               TSX1    DUU$GETMVAL
         1 002537   002703 702000 1                  TSX2    NO#NO
         1 002540   002561 710000 1                  TRA     s:7641

     1376     7640    5                            ELSE CALL DUU$GETMVAL(VALUE, 0, S_D.HEAD# + 2, 0, 0, '0'B)
              7640                                     ALTRET(NO#NO);
PL6.E3A0      #002=DDI$GET_PATCH_SPACE File=DUI$1STIME.:E05TSI                   TUE 07/29/97 14:53 Page:244

   7640  1 002541   005064 235100                    LDA     2612,,PR0
         1 002542   000002 035007                    ADLA    2,DL
         1 002543   200030 755100                    STA     NWORD_L6+2,,AUTO
         1 002544   000002 237000 2                  LDAQ    2
         1 002545   200036 757100                    STAQ    NWORD_L6+8,,AUTO
         1 002546   000002 236000 2                  LDQ     2
         1 002547   200035 756100                    STQ     NWORD_L6+7,,AUTO
         1 002550   200030 631500                    EPPR1   NWORD_L6+2,,AUTO
         1 002551   200034 451500                    STP1    NWORD_L6+6,,AUTO
         1 002552   200033 756100                    STQ     NWORD_L6+5,,AUTO
         1 002553   200005 633500                    EPPR3   VALUE,,AUTO
         1 002554   200032 453500                    STP3    NWORD_L6+4,,AUTO
         1 002555   200032 630500                    EPPR0   NWORD_L6+4,,AUTO
         1 002556   000024 631400 xsym               EPPR1   B_VECTNIL+20
         1 002557   000000 701000 xent               TSX1    DUU$GETMVAL
         1 002560   002703 702000 1                  TSX2    NO#NO

     1377     7641    5                            S_D.RSPACE# = VALUE.OPS(0);

   7641  1 002561   200006 235100                    LDA     VALUE+1,,AUTO
         1 002562   000000 470400 xsym               LDP0    S_D$
         1 002563   005063 755100                    STA     2611,,PR0

     1378     7642    5                          END;

   7642  1 002564   002660 710000 1                  TRA     s:7657

     1379     7643    5                       ELSE DO;

     1380     7644    5                            IF S_D.ONE_TO_TWO.EXEC_DOMAIN = %HOST

   7644  1 002565   106714 235100                    LDA     3532,,PR1
         1 002566   000001 115007                    CMPA    1,DL
         1 002567   002627 601000 1                  TNZ     s:7650

     1381     7645    6                            THEN DO;
PL6.E3A0      #002=DDI$GET_PATCH_SPACE File=DUI$1STIME.:E05TSI                   TUE 07/29/97 14:53 Page:245

     1382     7646    6                                CALL DDK$GETMVAL(NWORD, S_D.HEAD#, 3, 0, '0'B) ALTRET(
              7646                                          NO#NO);

   7646  1 002570   000002 236000 2                  LDQ     2
         1 002571   200034 756100                    STQ     NWORD_L6+6,,AUTO
         1 002572   000006 237000 2                  LDAQ    6
         1 002573   200032 757100                    STAQ    NWORD_L6+4,,AUTO
         1 002574   000000 236000 xsym               LDQ     S_D$
         1 002575   005064 036003                    ADLQ    2612,DU
         1 002576   200031 756100                    STQ     NWORD_L6+3,,AUTO
         1 002577   200004 633500                    EPPR3   NWORD,,AUTO
         1 002600   200030 453500                    STP3    NWORD_L6+2,,AUTO
         1 002601   200030 630500                    EPPR0   NWORD_L6+2,,AUTO
         1 002602   000023 631400 xsym               EPPR1   B_VECTNIL+19
         1 002603   000000 701000 xent               TSX1    DDK$GETMVAL
         1 002604   002703 702000 1                  TSX2    NO#NO

     1383     7647    6                                 CALL DDK$GETMVAL(S_D.RSPACE#, S_D.HEAD# + 1, 3, 0,
              7647                                          '0'B) ALTRET(NO#NO);

   7647  1 002605   000000 470400 xsym               LDP0    S_D$
         1 002606   005064 235100                    LDA     2612,,PR0
         1 002607   000001 035007                    ADLA    1,DL
         1 002610   200030 755100                    STA     NWORD_L6+2,,AUTO
         1 002611   000002 237000 2                  LDAQ    2
         1 002612   200034 757100                    STAQ    NWORD_L6+6,,AUTO
         1 002613   000006 236000 2                  LDQ     6
         1 002614   200033 756100                    STQ     NWORD_L6+5,,AUTO
         1 002615   200030 631500                    EPPR1   NWORD_L6+2,,AUTO
         1 002616   200032 451500                    STP1    NWORD_L6+4,,AUTO
         1 002617   000000 236000 xsym               LDQ     S_D$
         1 002620   005063 036003                    ADLQ    2611,DU
         1 002621   200031 756100                    STQ     NWORD_L6+3,,AUTO
         1 002622   200031 630500                    EPPR0   NWORD_L6+3,,AUTO
         1 002623   000023 631400 xsym               EPPR1   B_VECTNIL+19
         1 002624   000000 701000 xent               TSX1    DDK$GETMVAL
PL6.E3A0      #002=DDI$GET_PATCH_SPACE File=DUI$1STIME.:E05TSI                   TUE 07/29/97 14:53 Page:246
         1 002625   002703 702000 1                  TSX2    NO#NO

     1384     7648    6                               END;

   7648  1 002626   002660 710000 1                  TRA     s:7657

     1385     7649    6                            ELSE DO;

     1386     7650    6                                 CALL DFK$GETMVAL(VALUE, S_D.HEAD#, 3, 0, '0'B, '0'B)

   7650  1 002627   000002 237000 2                  LDAQ    2
         1 002630   200034 757100                    STAQ    NWORD_L6+6,,AUTO
         1 002631   000006 237000 2                  LDAQ    6
         1 002632   200032 757100                    STAQ    NWORD_L6+4,,AUTO
         1 002633   000000 236000 xsym               LDQ     S_D$
         1 002634   005064 036003                    ADLQ    2612,DU
         1 002635   200031 756100                    STQ     NWORD_L6+3,,AUTO
         1 002636   200005 633500                    EPPR3   VALUE,,AUTO
         1 002637   200030 453500                    STP3    NWORD_L6+2,,AUTO
         1 002640   200030 630500                    EPPR0   NWORD_L6+2,,AUTO
         1 002641   000024 631400 xsym               EPPR1   B_VECTNIL+20
         1 002642   000000 701000 xent               TSX1    DFK$GETMVAL
         1 002643   002703 702000 1                  TSX2    NO#NO

     1387     7651    6                                      ALTRET(NO#NO);
     1388     7652    6                                 NWORD_L6.ADDR1 = VALUE.OPS_L61.BITS(0);

   7652  1 002644   200006 236100                    LDQ     VALUE+1,,AUTO
         1 002645   000020 736000                    QLS     16
         1 002646   200026 676100                    ERQ     NWORD_L6,,AUTO
         1 002647   000004 376000 2                  ANQ     4
         1 002650   200026 656100                    ERSQ    NWORD_L6,,AUTO

     1389     7653    6                                 NWORD_L6.ADDR2 = VALUE.OPS_L62.BITS(1);

   7653  1 002651   200007 236100                    LDQ     VALUE+2,,AUTO
         1 002652   200026 676100                    ERQ     NWORD_L6,,AUTO
PL6.E3A0      #002=DDI$GET_PATCH_SPACE File=DUI$1STIME.:E05TSI                   TUE 07/29/97 14:53 Page:247
         1 002653   177777 376007                    ANQ     65535,DL
         1 002654   200026 656100                    ERSQ    NWORD_L6,,AUTO

     1390     7654    6                                 S_D.RSPACE# = VALUE.OPS(2);

   7654  1 002655   200010 235100                    LDA     VALUE+3,,AUTO
         1 002656   000000 470400 xsym               LDP0    S_D$
         1 002657   005063 755100                    STA     2611,,PR0

     1391     7655    6                               END;

     1392     7656    5                          END;

     1393     7657    4                       IF S_D.ONE_TO_TWO.EXEC_DOMAIN = %HOST

   7657  1 002660   000000 470400 xsym               LDP0    S_D$
         1 002661   006714 235100                    LDA     3532,,PR0
         1 002662   000001 115007                    CMPA    1,DL
         1 002663   002670 601000 1                  TNZ     s:7660

     1394     7658
     1395     7659    4                       THEN S_D.NEXT# = NWORD.ISADDR;

   7659  1 002664   200004 236100                    LDQ     NWORD,,AUTO
         1 002665   000022 772000                    QRL     18
         1 002666   005062 756100                    STQ     2610,,PR0
         1 002667   002673 710000 1                  TRA     s:7661

     1396     7660    4                       ELSE S_D.NEXT# = NWORD_L6_PTR.PNTR;

   7660  1 002670   200026 236100                    LDQ     NWORD_L6,,AUTO
         1 002671   000005 376000 2                  ANQ     5
         1 002672   005062 756100                    STQ     2610,,PR0

     1397     7661    4                       S_D.HIGH# = S_D.NEXT# + S_D.RSPACE# - 1;

   7661  1 002673   005063 036100                    ADLQ    2611,,PR0
PL6.E3A0      #002=DDI$GET_PATCH_SPACE File=DUI$1STIME.:E05TSI                   TUE 07/29/97 14:53 Page:248
         1 002674   000001 136007                    SBLQ    1,DL
         1 002675   005136 756100                    STQ     2654,,PR0

     1398     7662    4                       IF NOT (S_D.RSPACE# <= 0)

   7662  1 002676   005063 235100                    LDA     2611,,PR0
         1 002677   002703 604400 1                  TMOZ    NO#NO

     1399     7663    5                       THEN DO;

     1400     7664    5                            S_D.GOT# = '1'B;

   7664  1 002700   400000 236003                    LDQ     -131072,DU
         1 002701   005061 756100                    STQ     2609,,PR0

     1401     7665    5                            S_D.DEFINED# = '1'B;

   7665  1 002702   005065 756100                    STQ     2613,,PR0

     1402     7666    5                          END;

     1403     7667    4                     END;

     1404     7668    3                END;                       /* DO WHILE ('0'B)  GOT# */

   7665  1 002703                       NO#NO        null
     1405     7669    2   NO#NO:    ;
     1406     7670    2           END;                            /* Do if not ANLZ_FILE */

     1407     7671    1   END DDI$GET_PATCH_SPACE;

   7671  1 002703   000000 702200 xent               TSX2  ! X66_ARET
     1408     7672        %EOD;

PL6.E3A0      #002=DDI$GET_PATCH_SPACE File=DUI$1STIME.:E05TSI                   TUE 07/29/97 14:53 Page:249
--  Include file information  --

   DD_PSUBS_C.:E05TOU  is referenced.
   DD_ERR_C.:E05TOU  is referenced.
   B$OBJECT_C.:E05TOU  is referenced.
   DD_SD_M.:E05TOU  is referenced.
   XUH_MACRO_C.:E05TOU  is referenced.
   B$JIT_C.:E05TOU  was found in the system file and is never referenced.
   CP_6_C.:E05TOU  was found in the system file and is never referenced.
      No diagnostics issued in procedure DDI$GET_PATCH_SPACE.

   Procedure DDI$GET_PATCH_SPACE requires 1476 words for executable code.
   Procedure DDI$GET_PATCH_SPACE requires 32 words of local(AUTO) storage.
PL6.E3A0      #002=DDI$GET_PATCH_SPACE File=DUI$1STIME.:E05TSI                   TUE 07/29/97 14:53 Page:250
          *** CROSS REFERENCE LISTING ***
**     DENOTES     IDENTIFIER DEFINITION
<<                 IDENTIFIER'S VALUE SET
>>                 IDENTIFIER'S VALUE USED
<>                 IDENTIFIER SET AND/OR USED
--                 IDENTIFIER REFERENCED
PL6.E3A0      #002=DDI$GET_PATCH_SPACE File=DUI$1STIME.:E05TSI                   TUE 07/29/97 14:53 Page:251
          MINI XREF LISTING

B$SDEF.AD.ISADDR
      6212**DCL      7202>>ASSIGN   7245>>ASSIGN   7291>>ASSIGN   7334>>ASSIGN   7380>>ASSIGN   7423>>ASSIGN
      7469>>ASSIGN   7512>>ASSIGN   7569>>ASSIGN   7628>>ASSIGN
B$SDEF.AD.LFLAGS.SOURCE
      6196**DCL      7196>>IF       7196>>IF       7196>>IF       7239>>IF       7239>>IF       7239>>IF
      7285>>IF       7285>>IF       7285>>IF       7328>>IF       7328>>IF       7328>>IF       7374>>IF
      7374>>IF       7374>>IF       7417>>IF       7417>>IF       7417>>IF       7463>>IF       7463>>IF
      7463>>IF       7506>>IF       7506>>IF       7506>>IF       7563>>IF       7563>>IF       7563>>IF
      7622>>IF       7622>>IF       7622>>IF
B$SDEF.AD.OU
      6206**DCL      6212--REDEF
B$SDEF.CONSTNT
      6217**DCL      7196>>IF       7239>>IF       7285>>IF       7328>>IF       7374>>IF       7417>>IF
      7463>>IF       7506>>IF       7563>>IF       7622>>IF
B$SDEF.VALUE
      6187**DCL      6190--REDEF
B_PATCHDH
      7122**DCL      7126--DCLINIT
B_PATCHDH.TEXT
      7124**DCL      7123--DCLINIT
B_PATCHDH$
      7126**DCL      7612<>CALL
B_PATCHIH
      7119**DCL      7125--DCLINIT
B_PATCHIH.TEXT
      7121**DCL      7120--DCLINIT
B_PATCHIH$
      7125**DCL      7553<>CALL
DDE$ERROR
      7114**DCL-ENT  7558--CALL     7617--CALL
DDK$GETMVAL
      7115**DCL-ENT  7587--CALL     7588--CALL     7646--CALL     7647--CALL
PL6.E3A0      #002=DDI$GET_PATCH_SPACE File=DUI$1STIME.:E05TSI                   TUE 07/29/97 14:53 Page:252
DDS$SD_SRCH
      7116**DCL-ENT  7193--CALL     7236--CALL     7282--CALL     7325--CALL     7371--CALL     7414--CALL
      7460--CALL     7503--CALL     7553--CALL     7555--CALL     7612--CALL     7614--CALL
DFK$GETMVAL
      7117**DCL-ENT  7212--CALL     7255--CALL     7301--CALL     7344--CALL     7390--CALL     7433--CALL
      7479--CALL     7522--CALL     7591--CALL     7650--CALL
DUU$GETMVAL
      7118**DCL-ENT  7205--CALL     7208--CALL     7248--CALL     7251--CALL     7294--CALL     7297--CALL
      7337--CALL     7340--CALL     7383--CALL     7386--CALL     7426--CALL     7429--CALL     7472--CALL
      7475--CALL     7515--CALL     7518--CALL     7572--CALL     7580--CALL     7581--CALL     7631--CALL
      7639--CALL     7640--CALL
GOT#
      7620**LABEL    7612--CALLALT  7614--CALLALT
GOT#_BF
      7503**LABEL    7503--CALLALT
GOT#_FD
      7414**LABEL    7414--CALLALT
GOT#_IS
      7325**LABEL    7325--CALLALT
GOT#_ME
      7236**LABEL    7236--CALLALT
GOT@
      7561**LABEL    7553--CALLALT  7555--CALLALT
GOT@_BF
      7460**LABEL    7460--CALLALT
GOT@_FD
      7371**LABEL    7371--CALLALT
GOT@_IS
      7282**LABEL    7282--CALLALT
GOT@_ME
      7193**LABEL    7193--CALLALT
G_PATCHDH
      7130**DCL      7134--DCLINIT
G_PATCHDH.TEXT
      7132**DCL      7131--DCLINIT
G_PATCHDH$
PL6.E3A0      #002=DDI$GET_PATCH_SPACE File=DUI$1STIME.:E05TSI                   TUE 07/29/97 14:53 Page:253
      7134**DCL      7614<>CALL
G_PATCHDH_BF
      7162**DCL      7166--DCLINIT
G_PATCHDH_BF.TEXT
      7164**DCL      7163--DCLINIT
G_PATCHDH_BF$
      7166**DCL      7503<>CALL
G_PATCHDH_FD
      7154**DCL      7158--DCLINIT
G_PATCHDH_FD.TEXT
      7156**DCL      7155--DCLINIT
G_PATCHDH_FD$
      7158**DCL      7414<>CALL
G_PATCHDH_IS
      7146**DCL      7150--DCLINIT
G_PATCHDH_IS.TEXT
      7148**DCL      7147--DCLINIT
G_PATCHDH_IS$
      7150**DCL      7325<>CALL
G_PATCHDH_ME
      7138**DCL      7142--DCLINIT
G_PATCHDH_ME.TEXT
      7140**DCL      7139--DCLINIT
G_PATCHDH_ME$
      7142**DCL      7236<>CALL
G_PATCHIH
      7127**DCL      7133--DCLINIT
G_PATCHIH.TEXT
      7129**DCL      7128--DCLINIT
G_PATCHIH$
      7133**DCL      7555<>CALL
G_PATCHIH_BF
      7159**DCL      7165--DCLINIT
G_PATCHIH_BF.TEXT
      7161**DCL      7160--DCLINIT
G_PATCHIH_BF$
PL6.E3A0      #002=DDI$GET_PATCH_SPACE File=DUI$1STIME.:E05TSI                   TUE 07/29/97 14:53 Page:254
      7165**DCL      7460<>CALL
G_PATCHIH_FD
      7151**DCL      7157--DCLINIT
G_PATCHIH_FD.TEXT
      7153**DCL      7152--DCLINIT
G_PATCHIH_FD$
      7157**DCL      7371<>CALL
G_PATCHIH_IS
      7143**DCL      7149--DCLINIT
G_PATCHIH_IS.TEXT
      7145**DCL      7144--DCLINIT
G_PATCHIH_IS$
      7149**DCL      7282<>CALL
G_PATCHIH_ME
      7135**DCL      7141--DCLINIT
G_PATCHIH_ME.TEXT
      7137**DCL      7136--DCLINIT
G_PATCHIH_ME$
      7141**DCL      7193<>CALL
NO#BF
      7540**LABEL    7458--REMEMBR  7515--CALLALT  7518--CALLALT  7522--CALLALT
NO#FD
      7451**LABEL    7369--REMEMBR  7426--CALLALT  7429--CALLALT  7433--CALLALT
NO#IS
      7362**LABEL    7280--REMEMBR  7337--CALLALT  7340--CALLALT  7344--CALLALT
NO#ME
      7273**LABEL    7191--REMEMBR  7248--CALLALT  7251--CALLALT  7255--CALLALT
NO#NO
      7665**LABEL    7546--GOTO     7550--REMEMBR  7618--GOTO     7631--CALLALT  7639--CALLALT  7640--CALLALT
      7646--CALLALT  7647--CALLALT  7650--CALLALT
NO@BF
      7497**LABEL    7472--CALLALT  7475--CALLALT  7479--CALLALT
NO@FD
      7408**LABEL    7383--CALLALT  7386--CALLALT  7390--CALLALT
NO@IS
      7319**LABEL    7294--CALLALT  7297--CALLALT  7301--CALLALT
PL6.E3A0      #002=DDI$GET_PATCH_SPACE File=DUI$1STIME.:E05TSI                   TUE 07/29/97 14:53 Page:255
NO@ME
      7230**LABEL    7205--CALLALT  7208--CALLALT  7212--CALLALT
NO@NO
      7606**LABEL    7559--GOTO     7572--CALLALT  7580--CALLALT  7581--CALLALT  7587--CALLALT  7588--CALLALT
      7591--CALLALT
NWORD
      7167**DCL      7170--REDEF    7587<>CALL     7646<>CALL
NWORD.ISADDR
      7168**DCL      7600>>ASSIGN   7659>>ASSIGN
NWORD_36
      7170**DCL      7574<<ASSIGN   7633<<ASSIGN
NWORD_L6
      7180**DCL      7184--REDEF
NWORD_L6.ADDR1
      7182**DCL      7206<<ASSIGN   7214<<ASSIGN   7249<<ASSIGN   7257<<ASSIGN   7295<<ASSIGN   7303<<ASSIGN
      7338<<ASSIGN   7346<<ASSIGN   7384<<ASSIGN   7392<<ASSIGN   7427<<ASSIGN   7435<<ASSIGN   7473<<ASSIGN
      7481<<ASSIGN   7516<<ASSIGN   7524<<ASSIGN   7576<<ASSIGN   7593<<ASSIGN   7635<<ASSIGN   7652<<ASSIGN
NWORD_L6.ADDR2
      7183**DCL      7207<<ASSIGN   7215<<ASSIGN   7250<<ASSIGN   7258<<ASSIGN   7296<<ASSIGN   7304<<ASSIGN
      7339<<ASSIGN   7347<<ASSIGN   7385<<ASSIGN   7393<<ASSIGN   7428<<ASSIGN   7436<<ASSIGN   7474<<ASSIGN
      7482<<ASSIGN   7517<<ASSIGN   7525<<ASSIGN   7577<<ASSIGN   7594<<ASSIGN   7636<<ASSIGN   7653<<ASSIGN
NWORD_L6_PTR.PNTR
      7186**DCL      7218>>ASSIGN   7261>>ASSIGN   7307>>ASSIGN   7350>>ASSIGN   7396>>ASSIGN   7439>>ASSIGN
      7485>>ASSIGN   7528>>ASSIGN   7601>>ASSIGN   7660>>ASSIGN
S_D.ACCESS
      1467**DCL      7192<<ASSIGN   7281<<ASSIGN   7370<<ASSIGN   7459<<ASSIGN   7551<<ASSIGN
S_D.ANLZ_FILE
      2144**DCL      7548>>IF
S_D.BF.DEFINED#
      2659**DCL      7533<<ASSIGN   7537>>ASSIGN
S_D.BF.DEFINED@
      2647**DCL      7490<<ASSIGN   7494>>ASSIGN
S_D.BF.GOT#
      2649**DCL      7532<<ASSIGN   7536>>ASSIGN
S_D.BF.GOT@
      2637**DCL      7489<<ASSIGN   7493>>ASSIGN
PL6.E3A0      #002=DDI$GET_PATCH_SPACE File=DUI$1STIME.:E05TSI                   TUE 07/29/97 14:53 Page:256
S_D.BF.HEAD#
      2655**DCL      7512<<ASSIGN   7515<>CALL     7518>>CALL     7522<>CALL     7540>>ASSIGN
S_D.BF.HEAD@
      2643**DCL      7469<<ASSIGN   7472<>CALL     7475>>CALL     7479<>CALL     7497>>ASSIGN
S_D.BF.HIGH#
      2657**DCL      7529<<ASSIGN   7541>>ASSIGN
S_D.BF.HIGH@
      2645**DCL      7486<<ASSIGN   7498>>ASSIGN
S_D.BF.NEXT#
      2651**DCL      7528<<ASSIGN   7529>>ASSIGN   7538>>ASSIGN
S_D.BF.NEXT@
      2639**DCL      7485<<ASSIGN   7486>>ASSIGN   7495>>ASSIGN
S_D.BF.RSPACE#
      2653**DCL      7519<<ASSIGN   7526<<ASSIGN   7529>>ASSIGN   7530>>IF       7539>>ASSIGN
S_D.BF.RSPACE@
      2641**DCL      7476<<ASSIGN   7483<<ASSIGN   7486>>ASSIGN   7487>>IF       7496>>ASSIGN
S_D.CURRENT_CHANNEL
      2380**DCL      2382--REDEF
S_D.DEBUGA
      1532**DCL      1534--REDEF
S_D.DEFINED#
      2166**DCL      7270<<ASSIGN   7359<<ASSIGN   7448<<ASSIGN   7537<<ASSIGN   7665<<ASSIGN
S_D.DEFINED@
      2156**DCL      7227<<ASSIGN   7316<<ASSIGN   7405<<ASSIGN   7494<<ASSIGN   7606<<ASSIGN
S_D.EIS
      2490**DCL      2519--REDEF
S_D.ERROR
      1461**DCL      7557<<ASSIGN   7616<<ASSIGN
S_D.FD.DEFINED#
      2634**DCL      7444<<ASSIGN   7448>>ASSIGN
S_D.FD.DEFINED@
      2622**DCL      7401<<ASSIGN   7405>>ASSIGN
S_D.FD.GOT#
      2624**DCL      7443<<ASSIGN   7447>>ASSIGN
S_D.FD.GOT@
      2612**DCL      7400<<ASSIGN   7404>>ASSIGN
PL6.E3A0      #002=DDI$GET_PATCH_SPACE File=DUI$1STIME.:E05TSI                   TUE 07/29/97 14:53 Page:257
S_D.FD.HEAD#
      2630**DCL      7423<<ASSIGN   7426<>CALL     7429>>CALL     7433<>CALL     7451>>ASSIGN
S_D.FD.HEAD@
      2618**DCL      7380<<ASSIGN   7383<>CALL     7386>>CALL     7390<>CALL     7408>>ASSIGN
S_D.FD.HIGH#
      2632**DCL      7440<<ASSIGN   7452>>ASSIGN
S_D.FD.HIGH@
      2620**DCL      7397<<ASSIGN   7409>>ASSIGN
S_D.FD.NEXT#
      2626**DCL      7439<<ASSIGN   7440>>ASSIGN   7449>>ASSIGN
S_D.FD.NEXT@
      2614**DCL      7396<<ASSIGN   7397>>ASSIGN   7406>>ASSIGN
S_D.FD.RSPACE#
      2628**DCL      7430<<ASSIGN   7437<<ASSIGN   7440>>ASSIGN   7441>>IF       7450>>ASSIGN
S_D.FD.RSPACE@
      2616**DCL      7387<<ASSIGN   7394<<ASSIGN   7397>>ASSIGN   7398>>IF       7407>>ASSIGN
S_D.GOT#
      2158**DCL      7269<<ASSIGN   7358<<ASSIGN   7447<<ASSIGN   7536<<ASSIGN   7664<<ASSIGN
S_D.GOT@
      2148**DCL      7226<<ASSIGN   7315<<ASSIGN   7404<<ASSIGN   7493<<ASSIGN   7605<<ASSIGN
S_D.HEAD#
      2164**DCL      7273<<ASSIGN   7362<<ASSIGN   7451<<ASSIGN   7540<<ASSIGN   7628<<ASSIGN   7631<>CALL
      7639>>CALL     7640>>CALL     7646<>CALL     7647>>CALL     7650<>CALL
S_D.HEAD@
      2154**DCL      7230<<ASSIGN   7319<<ASSIGN   7408<<ASSIGN   7497<<ASSIGN   7569<<ASSIGN   7572<>CALL
      7580>>CALL     7581>>CALL     7587<>CALL     7588>>CALL     7591<>CALL
S_D.HEAD_LIB
      1562**DCL      7196>>IF       7239>>IF       7285>>IF       7328>>IF       7374>>IF       7417>>IF
      7463>>IF       7506>>IF       7563>>IF       7622>>IF
S_D.HIGH#
      2188**DCL      7274<<ASSIGN   7363<<ASSIGN   7452<<ASSIGN   7541<<ASSIGN   7661<<ASSIGN
S_D.HIGH@
      2182**DCL      7231<<ASSIGN   7320<<ASSIGN   7409<<ASSIGN   7498<<ASSIGN   7602<<ASSIGN
S_D.HOST_MESSAGE_BUF_REMOTE
      2423**DCL      2424--REDEF    2438--REDEF
S_D.JDE
PL6.E3A0      #002=DDI$GET_PATCH_SPACE File=DUI$1STIME.:E05TSI                   TUE 07/29/97 14:53 Page:258
      2037**DCL      2038--REDEF
S_D.L$.VALUE
      1590**DCL      1596--REDEF    1604--REDEF    1607--REDEF    1610--REDEF    1613--REDEF
S_D.L$.VALUE.L
      1591**DCL      1592--REDEF    1593--REDEF
S_D.L6_MESSAGE_BUF
      2444**DCL      2446--REDEF
S_D.MONENT.DEFINED#
      2584**DCL      7266<<ASSIGN   7270>>ASSIGN
S_D.MONENT.DEFINED@
      2572**DCL      7223<<ASSIGN   7227>>ASSIGN
S_D.MONENT.GOT#
      2574**DCL      7265<<ASSIGN   7269>>ASSIGN
S_D.MONENT.GOT@
      2562**DCL      7222<<ASSIGN   7226>>ASSIGN
S_D.MONENT.HEAD#
      2580**DCL      7245<<ASSIGN   7248<>CALL     7251>>CALL     7255<>CALL     7273>>ASSIGN
S_D.MONENT.HEAD@
      2568**DCL      7202<<ASSIGN   7205<>CALL     7208>>CALL     7212<>CALL     7230>>ASSIGN
S_D.MONENT.HIGH#
      2582**DCL      7262<<ASSIGN   7274>>ASSIGN
S_D.MONENT.HIGH@
      2570**DCL      7219<<ASSIGN   7231>>ASSIGN
S_D.MONENT.NEXT#
      2576**DCL      7261<<ASSIGN   7262>>ASSIGN   7271>>ASSIGN
S_D.MONENT.NEXT@
      2564**DCL      7218<<ASSIGN   7219>>ASSIGN   7228>>ASSIGN
S_D.MONENT.RSPACE#
      2578**DCL      7252<<ASSIGN   7259<<ASSIGN   7262>>ASSIGN   7263>>IF       7272>>ASSIGN
S_D.MONENT.RSPACE@
      2566**DCL      7209<<ASSIGN   7216<<ASSIGN   7219>>ASSIGN   7220>>IF       7229>>ASSIGN
S_D.MONIS.DEFINED#
      2609**DCL      7355<<ASSIGN   7359>>ASSIGN
S_D.MONIS.DEFINED@
      2597**DCL      7312<<ASSIGN   7316>>ASSIGN
S_D.MONIS.GOT#
PL6.E3A0      #002=DDI$GET_PATCH_SPACE File=DUI$1STIME.:E05TSI                   TUE 07/29/97 14:53 Page:259
      2599**DCL      7354<<ASSIGN   7358>>ASSIGN
S_D.MONIS.GOT@
      2587**DCL      7311<<ASSIGN   7315>>ASSIGN
S_D.MONIS.HEAD#
      2605**DCL      7334<<ASSIGN   7337<>CALL     7340>>CALL     7344<>CALL     7362>>ASSIGN
S_D.MONIS.HEAD@
      2593**DCL      7291<<ASSIGN   7294<>CALL     7297>>CALL     7301<>CALL     7319>>ASSIGN
S_D.MONIS.HIGH#
      2607**DCL      7351<<ASSIGN   7363>>ASSIGN
S_D.MONIS.HIGH@
      2595**DCL      7308<<ASSIGN   7320>>ASSIGN
S_D.MONIS.NEXT#
      2601**DCL      7350<<ASSIGN   7351>>ASSIGN   7360>>ASSIGN
S_D.MONIS.NEXT@
      2589**DCL      7307<<ASSIGN   7308>>ASSIGN   7317>>ASSIGN
S_D.MONIS.RSPACE#
      2603**DCL      7341<<ASSIGN   7348<<ASSIGN   7351>>ASSIGN   7352>>IF       7361>>ASSIGN
S_D.MONIS.RSPACE@
      2591**DCL      7298<<ASSIGN   7305<<ASSIGN   7308>>ASSIGN   7309>>IF       7318>>ASSIGN
S_D.NEXT#
      2160**DCL      7271<<ASSIGN   7360<<ASSIGN   7449<<ASSIGN   7538<<ASSIGN   7659<<ASSIGN   7660<<ASSIGN
      7661>>ASSIGN
S_D.NEXT@
      2150**DCL      7228<<ASSIGN   7317<<ASSIGN   7406<<ASSIGN   7495<<ASSIGN   7600<<ASSIGN   7601<<ASSIGN
      7602>>ASSIGN
S_D.ONE_TO_TWO.EXEC_DOMAIN
      2455**DCL      7552>>IF       7554>>IF       7573>>IF       7579>>IF       7585>>IF       7598>>IF
      7611>>IF       7613>>IF       7632>>IF       7638>>IF       7644>>IF       7657>>IF
S_D.OUTPUT
      2410**DCL      2412--REDEF
S_D.REMOTE_MSG.FNCC
      2429**DCL      2430--REDEF
S_D.REMOTE_MSG.STXC
      2425**DCL      2426--REDEF
S_D.REMOTE_MSG.SUBFNCC
      2433**DCL      2434--REDEF
PL6.E3A0      #002=DDI$GET_PATCH_SPACE File=DUI$1STIME.:E05TSI                   TUE 07/29/97 14:53 Page:260
S_D.REM_ACCESS
      1475**DCL      7191<<REMEMBR  7280<<REMEMBR  7369<<REMEMBR  7458<<REMEMBR  7550<<REMEMBR
S_D.RSPACE#
      2162**DCL      7272<<ASSIGN   7361<<ASSIGN   7450<<ASSIGN   7539<<ASSIGN   7641<<ASSIGN   7647<>CALL
      7654<<ASSIGN   7661>>ASSIGN   7662>>IF
S_D.RSPACE@
      2152**DCL      7229<<ASSIGN   7318<<ASSIGN   7407<<ASSIGN   7496<<ASSIGN   7582<<ASSIGN   7588<>CALL
      7595<<ASSIGN   7602>>ASSIGN   7603>>IF
S_D.RUM
      2078**DCL      7203>>IF       7246>>IF       7292>>IF       7335>>IF       7381>>IF       7424>>IF
      7470>>IF       7513>>IF       7570>>IF       7629>>IF
S_D.RUM_FEP
      2560**DCL      7188>>IF
S_D.RUM_FEP_USE
      2328**DCL      7225>>IF       7268>>IF       7314>>IF       7314>>IF       7357>>IF       7357>>IF
      7403>>IF       7446>>IF       7492>>IF       7535>>IF
S_D.SHOW
      2457**DCL      7188>>IF       7548>>IF
S_D.SV
      1489**DCL      1510--REDEF
S_D$
      2741**DCL      1437--IMP-PTR  7188>>IF       7188>>IF       7191>>REMEMBR  7192>>ASSIGN   7196>>IF
      7202>>ASSIGN   7203>>IF       7205>>CALL     7208>>CALL     7209>>ASSIGN   7212>>CALL     7216>>ASSIGN
      7218>>ASSIGN   7219>>ASSIGN   7219>>ASSIGN   7219>>ASSIGN   7220>>IF       7222>>ASSIGN   7223>>ASSIGN
      7225>>IF       7226>>ASSIGN   7226>>ASSIGN   7227>>ASSIGN   7227>>ASSIGN   7228>>ASSIGN   7228>>ASSIGN
      7229>>ASSIGN   7229>>ASSIGN   7230>>ASSIGN   7230>>ASSIGN   7231>>ASSIGN   7231>>ASSIGN   7239>>IF
      7245>>ASSIGN   7246>>IF       7248>>CALL     7251>>CALL     7252>>ASSIGN   7255>>CALL     7259>>ASSIGN
      7261>>ASSIGN   7262>>ASSIGN   7262>>ASSIGN   7262>>ASSIGN   7263>>IF       7265>>ASSIGN   7266>>ASSIGN
      7268>>IF       7269>>ASSIGN   7269>>ASSIGN   7270>>ASSIGN   7270>>ASSIGN   7271>>ASSIGN   7271>>ASSIGN
      7272>>ASSIGN   7272>>ASSIGN   7273>>ASSIGN   7273>>ASSIGN   7274>>ASSIGN   7274>>ASSIGN   7280>>REMEMBR
      7281>>ASSIGN   7285>>IF       7291>>ASSIGN   7292>>IF       7294>>CALL     7297>>CALL     7298>>ASSIGN
      7301>>CALL     7305>>ASSIGN   7307>>ASSIGN   7308>>ASSIGN   7308>>ASSIGN   7308>>ASSIGN   7309>>IF
      7311>>ASSIGN   7312>>ASSIGN   7314>>IF       7314>>IF       7315>>ASSIGN   7315>>ASSIGN   7316>>ASSIGN
      7316>>ASSIGN   7317>>ASSIGN   7317>>ASSIGN   7318>>ASSIGN   7318>>ASSIGN   7319>>ASSIGN   7319>>ASSIGN
      7320>>ASSIGN   7320>>ASSIGN   7328>>IF       7334>>ASSIGN   7335>>IF       7337>>CALL     7340>>CALL
      7341>>ASSIGN   7344>>CALL     7348>>ASSIGN   7350>>ASSIGN   7351>>ASSIGN   7351>>ASSIGN   7351>>ASSIGN
PL6.E3A0      #002=DDI$GET_PATCH_SPACE File=DUI$1STIME.:E05TSI                   TUE 07/29/97 14:53 Page:261
      7352>>IF       7354>>ASSIGN   7355>>ASSIGN   7357>>IF       7357>>IF       7358>>ASSIGN   7358>>ASSIGN
      7359>>ASSIGN   7359>>ASSIGN   7360>>ASSIGN   7360>>ASSIGN   7361>>ASSIGN   7361>>ASSIGN   7362>>ASSIGN
      7362>>ASSIGN   7363>>ASSIGN   7363>>ASSIGN   7369>>REMEMBR  7370>>ASSIGN   7374>>IF       7380>>ASSIGN
      7381>>IF       7383>>CALL     7386>>CALL     7387>>ASSIGN   7390>>CALL     7394>>ASSIGN   7396>>ASSIGN
      7397>>ASSIGN   7397>>ASSIGN   7397>>ASSIGN   7398>>IF       7400>>ASSIGN   7401>>ASSIGN   7403>>IF
      7404>>ASSIGN   7404>>ASSIGN   7405>>ASSIGN   7405>>ASSIGN   7406>>ASSIGN   7406>>ASSIGN   7407>>ASSIGN
      7407>>ASSIGN   7408>>ASSIGN   7408>>ASSIGN   7409>>ASSIGN   7409>>ASSIGN   7417>>IF       7423>>ASSIGN
      7424>>IF       7426>>CALL     7429>>CALL     7430>>ASSIGN   7433>>CALL     7437>>ASSIGN   7439>>ASSIGN
      7440>>ASSIGN   7440>>ASSIGN   7440>>ASSIGN   7441>>IF       7443>>ASSIGN   7444>>ASSIGN   7446>>IF
      7447>>ASSIGN   7447>>ASSIGN   7448>>ASSIGN   7448>>ASSIGN   7449>>ASSIGN   7449>>ASSIGN   7450>>ASSIGN
      7450>>ASSIGN   7451>>ASSIGN   7451>>ASSIGN   7452>>ASSIGN   7452>>ASSIGN   7458>>REMEMBR  7459>>ASSIGN
      7463>>IF       7469>>ASSIGN   7470>>IF       7472>>CALL     7475>>CALL     7476>>ASSIGN   7479>>CALL
      7483>>ASSIGN   7485>>ASSIGN   7486>>ASSIGN   7486>>ASSIGN   7486>>ASSIGN   7487>>IF       7489>>ASSIGN
      7490>>ASSIGN   7492>>IF       7493>>ASSIGN   7493>>ASSIGN   7494>>ASSIGN   7494>>ASSIGN   7495>>ASSIGN
      7495>>ASSIGN   7496>>ASSIGN   7496>>ASSIGN   7497>>ASSIGN   7497>>ASSIGN   7498>>ASSIGN   7498>>ASSIGN
      7506>>IF       7512>>ASSIGN   7513>>IF       7515>>CALL     7518>>CALL     7519>>ASSIGN   7522>>CALL
      7526>>ASSIGN   7528>>ASSIGN   7529>>ASSIGN   7529>>ASSIGN   7529>>ASSIGN   7530>>IF       7532>>ASSIGN
      7533>>ASSIGN   7535>>IF       7536>>ASSIGN   7536>>ASSIGN   7537>>ASSIGN   7537>>ASSIGN   7538>>ASSIGN
      7538>>ASSIGN   7539>>ASSIGN   7539>>ASSIGN   7540>>ASSIGN   7540>>ASSIGN   7541>>ASSIGN   7541>>ASSIGN
      7548>>IF       7548>>IF       7550>>REMEMBR  7551>>ASSIGN   7552>>IF       7554>>IF       7557>>ASSIGN
      7563>>IF       7569>>ASSIGN   7570>>IF       7572>>CALL     7573>>IF       7579>>IF       7580>>CALL
      7581>>CALL     7582>>ASSIGN   7585>>IF       7587>>CALL     7588>>CALL     7588>>CALL     7591>>CALL
      7595>>ASSIGN   7598>>IF       7600>>ASSIGN   7601>>ASSIGN   7602>>ASSIGN   7602>>ASSIGN   7602>>ASSIGN
      7603>>IF       7605>>ASSIGN   7606>>ASSIGN   7611>>IF       7613>>IF       7616>>ASSIGN   7622>>IF
      7628>>ASSIGN   7629>>IF       7631>>CALL     7632>>IF       7638>>IF       7639>>CALL     7640>>CALL
      7641>>ASSIGN   7644>>IF       7646>>CALL     7647>>CALL     7647>>CALL     7650>>CALL     7654>>ASSIGN
      7657>>IF       7659>>ASSIGN   7660>>ASSIGN   7661>>ASSIGN   7661>>ASSIGN   7661>>ASSIGN   7662>>IF
      7664>>ASSIGN   7665>>ASSIGN
TEMP$
      7112**DCL      7193<>CALL     7196>>IF       7196>>IF       7196>>IF       7196>>IF       7202>>ASSIGN
      7236<>CALL     7239>>IF       7239>>IF       7239>>IF       7239>>IF       7245>>ASSIGN   7282<>CALL
      7285>>IF       7285>>IF       7285>>IF       7285>>IF       7291>>ASSIGN   7325<>CALL     7328>>IF
      7328>>IF       7328>>IF       7328>>IF       7334>>ASSIGN   7371<>CALL     7374>>IF       7374>>IF
      7374>>IF       7374>>IF       7380>>ASSIGN   7414<>CALL     7417>>IF       7417>>IF       7417>>IF
      7417>>IF       7423>>ASSIGN   7460<>CALL     7463>>IF       7463>>IF       7463>>IF       7463>>IF
      7469>>ASSIGN   7503<>CALL     7506>>IF       7506>>IF       7506>>IF       7506>>IF       7512>>ASSIGN
PL6.E3A0      #002=DDI$GET_PATCH_SPACE File=DUI$1STIME.:E05TSI                   TUE 07/29/97 14:53 Page:262
      7553<>CALL     7555<>CALL     7563>>IF       7563>>IF       7563>>IF       7563>>IF       7569>>ASSIGN
      7612<>CALL     7614<>CALL     7622>>IF       7622>>IF       7622>>IF       7622>>IF       7628>>ASSIGN
VALUE
      7171**DCL      7205<>CALL     7208<>CALL     7212<>CALL     7248<>CALL     7251<>CALL     7255<>CALL
      7294<>CALL     7297<>CALL     7301<>CALL     7337<>CALL     7340<>CALL     7344<>CALL     7383<>CALL
      7386<>CALL     7390<>CALL     7426<>CALL     7429<>CALL     7433<>CALL     7472<>CALL     7475<>CALL
      7479<>CALL     7515<>CALL     7518<>CALL     7522<>CALL     7572<>CALL     7580<>CALL     7581<>CALL
      7591<>CALL     7631<>CALL     7639<>CALL     7640<>CALL     7650<>CALL
VALUE.OPS
      7173**DCL      7174--REDEF    7177--REDEF    7209>>ASSIGN   7216>>ASSIGN   7252>>ASSIGN   7259>>ASSIGN
      7298>>ASSIGN   7305>>ASSIGN   7341>>ASSIGN   7348>>ASSIGN   7387>>ASSIGN   7394>>ASSIGN   7430>>ASSIGN
      7437>>ASSIGN   7476>>ASSIGN   7483>>ASSIGN   7519>>ASSIGN   7526>>ASSIGN   7574>>ASSIGN   7582>>ASSIGN
      7595>>ASSIGN   7633>>ASSIGN   7641>>ASSIGN   7654>>ASSIGN
VALUE.OPS_L61.BITS
      7176**DCL      7206>>ASSIGN   7214>>ASSIGN   7249>>ASSIGN   7257>>ASSIGN   7295>>ASSIGN   7303>>ASSIGN
      7338>>ASSIGN   7346>>ASSIGN   7384>>ASSIGN   7392>>ASSIGN   7427>>ASSIGN   7435>>ASSIGN   7473>>ASSIGN
      7481>>ASSIGN   7516>>ASSIGN   7524>>ASSIGN   7576>>ASSIGN   7593>>ASSIGN   7635>>ASSIGN   7652>>ASSIGN
VALUE.OPS_L62.BITS
      7179**DCL      7207>>ASSIGN   7215>>ASSIGN   7250>>ASSIGN   7258>>ASSIGN   7296>>ASSIGN   7304>>ASSIGN
      7339>>ASSIGN   7347>>ASSIGN   7385>>ASSIGN   7393>>ASSIGN   7428>>ASSIGN   7436>>ASSIGN   7474>>ASSIGN
      7482>>ASSIGN   7517>>ASSIGN   7525>>ASSIGN   7577>>ASSIGN   7594>>ASSIGN   7636>>ASSIGN   7653>>ASSIGN
PL6.E3A0      #002=DDI$GET_PATCH_SPACE File=DUI$1STIME.:E05TSI                   TUE 07/29/97 14:53 Page:263
              *** CROSS REFERENCE LISTING ***
    **     DENOTES     IDENTIFIER DEFINITION
    <<                 IDENTIFIER'S VALUE SET
    >>                 IDENTIFIER'S VALUE USED
    <>                 IDENTIFIER SET AND/OR USED
    --                 IDENTIFIER REFERENCED
PL6.E3A0      #002=DDI$GET_PATCH_SPACE File=DUI$1STIME.:E05TSI                   TUE 07/29/97 14:53 Page:264
              MINI UREF LISTING

DDI$GET_PATCH_SPACE       6**PROC

PL6.E3A0      #003=DUI$INIT_HOST File=DUI$1STIME.:E05TSI                         TUE 07/29/97 14:54 Page:265
     1409        1        /*T***********************************************************/
     1410        2        /*T*                                                         */
     1411        3        /*T* Copyright (c) Bull HN Information Systems Inc., 1997    */
     1412        4        /*T*                                                         */
     1413        5        /*T***********************************************************/
     1414        6        /* Constants */
     1415        7        %EJECT;
PL6.E3A0      #003=DUI$INIT_HOST File=DUI$1STIME.:E05TSI                         TUE 07/29/97 14:54 Page:266
     1416        8        /*P*
     1417        9             NAME: DUI$INIT_HOST
     1418       10             PURPOSE:
     1419       11                   Initialize for HOST mode
     1420       12             DESCRIPTION:
     1421       13                   Initialize 1st to 2nd layer interface for HOST mode
     1422       14                   and set up nodes for HOST.
     1423       15        */
     1424       16        /**/
     1425       17        DUI$INIT_HOST: PROC;
     1426       18        /**/
     1427       19        %INCLUDE NK_VFC_C;
     1428       93        %INCLUDE XUH_MACRO_C;
     1429      177        %INCLUDE DD_SD_M;
     1430     1513        %S_D;
     1431     2831        %INCLUDE XU_MACRO_C;
     1432     5937        %INCLUDE DD_KNODES_D;
     1433     6153        %NODE_DEFS;
     1434     6542    1   DCL DD_PROMPT CHAR(1) SYMREF;
     1435     6543    1   DCL I SBIN;
     1436     6544        %INCLUDE DD$DITEM;
       12+    6647             %LIST;
       13+    6648    1        DCL SDD$ PTR;
       14+    6649    1        DCL ZITEM$ PTR;
       15+    6650    1        DCL SDD_L6$ PTR;
       16+    6651    1        DCL ZITEM_L6$ PTR;
     1437     7225        /**/
     1438     7226        /* Initialize S_D.ONE_TO_TWO - 1st to 2nd layer interface for HOST mode */
     1439     7227    1        S_D.ONE_TO_TWO.EXEC_DOMAIN = %HOST;
     1440     7228        /*N  S_D.ONE_TO_TWO.SPECIAL_SYMBOLS_TABLE =          */
     1441     7229        /* Initialize concatenation nodes for HOST mode */
     1442     7230    2        DO I=0 TO SIZEW(DD_MODE_NODE_PTR$)-1;
     1443     7231    2             DD_MODE_NODE_PTR$(I) -> DD_NODE.SUBNDS$(0) = DD_HOST_NODE_PTR$(I);
     1444     7232    2           END;
     1445     7233    1        S_D.UPROMPT = DD_PROMPT;
     1446     7234    1        S_D.UPROMPT_SIZE = LENGTHC( DD_PROMPT );
     1447     7235    1        S_D.FMT_DEFAULT = %OCT_FMT;
PL6.E3A0      #003=DUI$INIT_HOST File=DUI$1STIME.:E05TSI                         TUE 07/29/97 14:54 Page:267
     1448     7236    1        S_D.EFMT_DEFAULT = %OCT_FMT;
     1449     7237    1        S_D.L$.SIZE = 36;
     1450     7238    1        S_D.L$.FMT = %OCT_FMT;
     1451     7239    1        RETURN;
     1452     7240    1   END DUI$INIT_HOST;
     1453     7241        %EOD;

PL6.E3A0      #003=DUI$INIT_HOST File=DUI$1STIME.:E05TSI                         TUE 07/29/97 14:54 Page:268
--  Include file information  --

   DD_SRTN_C.:E05TOU  is referenced.
   DD_ACODE_C.:E05TOU  is referenced.
   DD_ICODE_C.:E05TOU  is referenced.
   DD$DITEM.:E05TOU  cannot be made into a system file and is referenced.
   DD_KNODES_D.:E05TOU  is referenced.
   XU_MACRO_C.:E05TOU  is referenced.
   DD_SD_M.:E05TOU  is referenced.
   XUH_MACRO_C.:E05TOU  is referenced.
   NK_VFC_C.:E05TOU  is referenced.
   B$JIT_C.:E05TOU  was found in the system file and is never referenced.
   CP_6_C.:E05TOU  was found in the system file and is never referenced.
      No diagnostics issued in procedure DUI$INIT_HOST.

   Procedure DUI$INIT_HOST requires 27 words for executable code.
   Procedure DUI$INIT_HOST requires 8 words of local(AUTO) storage.

PL6.E3A0      #003=DUI$INIT_HOST File=DUI$1STIME.:E05TSI                         TUE 07/29/97 14:54 Page:269

 Object Unit name= DUI$INIT_HOST                              File name= DUI$1STIME.:E05TOU
 UTS= JUL 29 '97 14:54:23.00 TUE                              Compiler= PL-6/E31         Sev=      00
 SharedLib= :SHARED_SYSTEM                                    Alt SharedLib=


    ****  Control sections  ****

 Sect   Type Bound  Init  Size OctSiz  Section name(segment info)
    0   Proc  even  none    27     33  DUI$INIT_HOST

    ****  Entry defs  ****

                              Check   Calling
                             calling  sequence
  Sect OctLoc Primary Altret sequence   type   Parms  Name
     0      0   yes            yes      Std        0  DUI$INIT_HOST

  ****  Entry refs  ****

         Check        Calling
        calling       sequence
Altret sequence SRef   type   Args  Name
                       nStd      0 X66_AUTO_0
                       nStd      0 X66_ARET

  ****  Data refs  ****

  Flags:  r = read only, s = secondary
Flgs Name                             Flgs Name                             Flgs Name
r    S_D$                             r    DD_MODE_NODE_PTR$                r    DD_HOST_NODE_PTR$
     DD_PROMPT
PL6.E3A0      #003=DUI$INIT_HOST File=DUI$1STIME.:E05TSI                         TUE 07/29/97 14:54 Page:270


     1409        1        /*T***********************************************************/
     1410        2        /*T*                                                         */
     1411        3        /*T* Copyright (c) Bull HN Information Systems Inc., 1997    */
     1412        4        /*T*                                                         */
     1413        5        /*T***********************************************************/
     1414        6        /* Constants */
     1415        7        %EJECT;
PL6.E3A0      #003=DUI$INIT_HOST File=DUI$1STIME.:E05TSI                         TUE 07/29/97 14:54 Page:271
     1416        8        /*P*
     1417        9             NAME: DUI$INIT_HOST
     1418       10             PURPOSE:
     1419       11                   Initialize for HOST mode
     1420       12             DESCRIPTION:
     1421       13                   Initialize 1st to 2nd layer interface for HOST mode
     1422       14                   and set up nodes for HOST.
     1423       15        */
     1424       16        /**/
     1425       17        DUI$INIT_HOST: PROC;

     17  0 000000   000000 700200 xent  DUI$INIT_HO* TSX0  ! X66_AUTO_0
         0 000001   000010 000000                    ZERO    8,0

     1426       18        /**/
     1427       19        %INCLUDE NK_VFC_C;
     1428       93        %INCLUDE XUH_MACRO_C;
     1429      177        %INCLUDE DD_SD_M;
     1430     1513        %S_D;
     1431     2831        %INCLUDE XU_MACRO_C;
     1432     5937        %INCLUDE DD_KNODES_D;
     1433     6153        %NODE_DEFS;
     1434     6542    1   DCL DD_PROMPT CHAR(1) SYMREF;
     1435     6543    1   DCL I SBIN;
     1436     6544        %INCLUDE DD$DITEM;
       12+    6647             %LIST;
       13+    6648    1        DCL SDD$ PTR;
       14+    6649    1        DCL ZITEM$ PTR;
       15+    6650    1        DCL SDD_L6$ PTR;
       16+    6651    1        DCL ZITEM_L6$ PTR;
     1437     7225        /**/
     1438     7226        /* Initialize S_D.ONE_TO_TWO - 1st to 2nd layer interface for HOST mode */
     1439     7227    1        S_D.ONE_TO_TWO.EXEC_DOMAIN = %HOST;

   7227  0 000002   000001 235007                    LDA     1,DL
         0 000003   000000 470400 xsym               LDP0    S_D$
         0 000004   006714 755100                    STA     3532,,PR0
PL6.E3A0      #003=DUI$INIT_HOST File=DUI$1STIME.:E05TSI                         TUE 07/29/97 14:54 Page:272

     1440     7228        /*N  S_D.ONE_TO_TWO.SPECIAL_SYMBOLS_TABLE =          */
     1441     7229        /* Initialize concatenation nodes for HOST mode */
     1442     7230    2        DO I=0 TO SIZEW(DD_MODE_NODE_PTR$)-1;

   7230  0 000005   200003 450100                    STZ     I,,AUTO
         0 000006   000014 710000 0                  TRA     s:7232+1

     1443     7231    2             DD_MODE_NODE_PTR$(I) -> DD_NODE.SUBNDS$(0) = DD_HOST_NODE_PTR$(I);

   7231  0 000007   200003 720100                    LXL0    I,,AUTO
         0 000010   000000 470410 xsym               LDP0    DD_MODE_NODE_PTR$,X0
         0 000011   000000 236010 xsym               LDQ     DD_HOST_NODE_PTR$,X0
         0 000012   000001 756100                    STQ     1,,PR0

     1444     7232    2           END;

   7232  0 000013   200003 054100                    AOS     I,,AUTO
         0 000014   200003 235100                    LDA     I,,AUTO
         0 000015   000010 115007                    CMPA    8,DL
         0 000016   000007 604400 0                  TMOZ    s:7231

     1445     7233    1        S_D.UPROMPT = DD_PROMPT;

   7233  0 000017   000000 470400 xsym               LDP0    S_D$
         0 000020   040100 100400                    MLR     fill='040'O
         0 000021   000000 000001 xsym               ADSC9   DD_PROMPT                cn=0,n=1
         0 000022   005160 000030                    ADSC9   2672,,PR0                cn=0,n=24

     1446     7234    1        S_D.UPROMPT_SIZE = LENGTHC( DD_PROMPT );

   7234  0 000023   000001 236007                    LDQ     1,DL
         0 000024   005166 756100                    STQ     2678,,PR0

     1447     7235    1        S_D.FMT_DEFAULT = %OCT_FMT;

   7235  0 000025   000723 756100                    STQ     467,,PR0
PL6.E3A0      #003=DUI$INIT_HOST File=DUI$1STIME.:E05TSI                         TUE 07/29/97 14:54 Page:273

     1448     7236    1        S_D.EFMT_DEFAULT = %OCT_FMT;

   7236  0 000026   004736 756100                    STQ     2526,,PR0

     1449     7237    1        S_D.L$.SIZE = 36;

   7237  0 000027   000044 235007                    LDA     36,DL
         0 000030   000126 755100                    STA     86,,PR0

     1450     7238    1        S_D.L$.FMT = %OCT_FMT;

   7238  0 000031   000127 756100                    STQ     87,,PR0

     1451     7239    1        RETURN;

   7239  0 000032   000000 702200 xent               TSX2  ! X66_ARET
     1452     7240    1   END DUI$INIT_HOST;
     1453     7241        %EOD;

PL6.E3A0      #003=DUI$INIT_HOST File=DUI$1STIME.:E05TSI                         TUE 07/29/97 14:54 Page:274
--  Include file information  --

   DD_SRTN_C.:E05TOU  is referenced.
   DD_ACODE_C.:E05TOU  is referenced.
   DD_ICODE_C.:E05TOU  is referenced.
   DD$DITEM.:E05TOU  cannot be made into a system file and is referenced.
   DD_KNODES_D.:E05TOU  is referenced.
   XU_MACRO_C.:E05TOU  is referenced.
   DD_SD_M.:E05TOU  is referenced.
   XUH_MACRO_C.:E05TOU  is referenced.
   NK_VFC_C.:E05TOU  is referenced.
   B$JIT_C.:E05TOU  was found in the system file and is never referenced.
   CP_6_C.:E05TOU  was found in the system file and is never referenced.
      No diagnostics issued in procedure DUI$INIT_HOST.

   Procedure DUI$INIT_HOST requires 27 words for executable code.
   Procedure DUI$INIT_HOST requires 8 words of local(AUTO) storage.
PL6.E3A0      #003=DUI$INIT_HOST File=DUI$1STIME.:E05TSI                         TUE 07/29/97 14:54 Page:275
          *** CROSS REFERENCE LISTING ***
**     DENOTES     IDENTIFIER DEFINITION
<<                 IDENTIFIER'S VALUE SET
>>                 IDENTIFIER'S VALUE USED
<>                 IDENTIFIER SET AND/OR USED
--                 IDENTIFIER REFERENCED
PL6.E3A0      #003=DUI$INIT_HOST File=DUI$1STIME.:E05TSI                         TUE 07/29/97 14:54 Page:276
          MINI XREF LISTING

DD_HOST_NODE_PTR$
      6157**DCL      7231>>ASSIGN
DD_MODE_NODE_PTR$
      6156**DCL      7230--DOINDEX  7231>>ASSIGN
DD_NODE.SUBNDS$
      6341**DCL      7231<<ASSIGN
DD_PROMPT
      6542**DCL      7233>>ASSIGN   7234--ASSIGN
I
      6543**DCL      7230<<DOINDEX  7231>>ASSIGN   7231>>ASSIGN
S_D.CURRENT_CHANNEL
      2465**DCL      2467--REDEF
S_D.DEBUGA
      1617**DCL      1619--REDEF
S_D.EFMT_DEFAULT
      2133**DCL      7236<<ASSIGN
S_D.EIS
      2575**DCL      2604--REDEF
S_D.FMT_DEFAULT
      1801**DCL      7235<<ASSIGN
S_D.HOST_MESSAGE_BUF_REMOTE
      2508**DCL      2509--REDEF    2523--REDEF
S_D.JDE
      2122**DCL      2123--REDEF
S_D.L$.FMT
      1701**DCL      7238<<ASSIGN
S_D.L$.SIZE
      1700**DCL      7237<<ASSIGN
S_D.L$.VALUE
      1675**DCL      1681--REDEF    1689--REDEF    1692--REDEF    1695--REDEF    1698--REDEF
S_D.L$.VALUE.L
      1676**DCL      1677--REDEF    1678--REDEF
PL6.E3A0      #003=DUI$INIT_HOST File=DUI$1STIME.:E05TSI                         TUE 07/29/97 14:54 Page:277
S_D.L6_MESSAGE_BUF
      2529**DCL      2531--REDEF
S_D.ONE_TO_TWO.EXEC_DOMAIN
      2540**DCL      7227<<ASSIGN
S_D.OUTPUT
      2495**DCL      2497--REDEF
S_D.REMOTE_MSG.FNCC
      2514**DCL      2515--REDEF
S_D.REMOTE_MSG.STXC
      2510**DCL      2511--REDEF
S_D.REMOTE_MSG.SUBFNCC
      2518**DCL      2519--REDEF
S_D.SV
      1574**DCL      1595--REDEF
S_D.UPROMPT
      2301**DCL      7233<<ASSIGN
S_D.UPROMPT_SIZE
      2303**DCL      7234<<ASSIGN
S_D$
      2826**DCL      1522--IMP-PTR  7227>>ASSIGN   7233>>ASSIGN   7234>>ASSIGN   7235>>ASSIGN   7236>>ASSIGN
      7237>>ASSIGN   7238>>ASSIGN
PL6.E3A0      #003=DUI$INIT_HOST File=DUI$1STIME.:E05TSI                         TUE 07/29/97 14:54 Page:278
              *** CROSS REFERENCE LISTING ***
    **     DENOTES     IDENTIFIER DEFINITION
    <<                 IDENTIFIER'S VALUE SET
    >>                 IDENTIFIER'S VALUE USED
    <>                 IDENTIFIER SET AND/OR USED
    --                 IDENTIFIER REFERENCED
PL6.E3A0      #003=DUI$INIT_HOST File=DUI$1STIME.:E05TSI                         TUE 07/29/97 14:54 Page:279
              MINI UREF LISTING

DD$COMP_NODE_PTR$    6162**DCL
DD_COMPNODE$    6160**DCL
DD_COMP_NODE_PTR$    6161**DCL
DD_INSTR_CONT    6181**DCL
DD_L6X_NODE_PTR$    6159**DCL
DD_L6_NODE_PTR$    6158**DCL
DUI$INIT_HOST      17**PROC
SDD$    6648**DCL
SDD_L6$    6650**DCL
ZITEM$    6649**DCL
ZITEM_L6$    6651**DCL

PL6.E3A0      #004=DUI$INIT_L6 File=DUI$1STIME.:E05TSI                           TUE 07/29/97 14:54 Page:280
     1454        1        /*T***********************************************************/
     1455        2        /*T*                                                         */
     1456        3        /*T* Copyright (c) Bull HN Information Systems Inc., 1997    */
     1457        4        /*T*                                                         */
     1458        5        /*T***********************************************************/
     1459        6        %EJECT;
PL6.E3A0      #004=DUI$INIT_L6 File=DUI$1STIME.:E05TSI                           TUE 07/29/97 14:54 Page:281
     1460        7        /*P*
     1461        8             NAME: DUI$INIT_L6
     1462        9             PURPOSE:
     1463       10                   Initialize for L6 mode
     1464       11             DESCRIPTION:
     1465       12                   Initialize 1st to 2nd layer interface for L6 mode
     1466       13                   and set up nodes for L6.
     1467       14        */
     1468       15        /**/
     1469       16        DUI$INIT_L6: PROC;
     1470       17        /**/
     1471       18        %INCLUDE XUH_MACRO_C;
     1472      102        %INCLUDE DD_SD_M;
     1473     1438        %S_D;
     1474     2756        %INCLUDE XU_MACRO_C;
     1475     5862        %INCLUDE DD_KNODES_D;
     1476     6078        %NODE_DEFS;
     1477     6467        %INCLUDE DD$DITEM;
       12+    6570             %LIST;
       13+    6571    1        DCL SDD$ PTR;
       14+    6572    1        DCL ZITEM$ PTR;
       15+    6573    1        DCL SDD_L6$ PTR;
       16+    6574    1        DCL ZITEM_L6$ PTR;
     1478     7148        %INCLUDE DD$BASED;
     1479     8451        %FPRG$CONTEXT;
     1480     8514    1   DCL I SBIN;
     1481     8515        /**/
     1482     8516        /* Initialize S_D.ONE_TO_TWO - 1st to 2nd layer interface for L6 mode */
     1483     8517    1        S_D.ONE_TO_TWO.EXEC_DOMAIN = %L6;
     1484     8518        /*N  S_D.ONE_TO_TWO.SPECIAL_SYMBOLS_TABLE =          */
     1485     8519        /* Initialize concatenation nodes for L6 mode */
     1486     8520    2        DO I=0 TO SIZEW(DD_MODE_NODE_PTR$)-1;
     1487     8521    2             DD_MODE_NODE_PTR$(I) -> DD_NODE.SUBNDS$(0) = DD_L6_NODE_PTR$(I);
     1488     8522    2           END;
     1489     8523    1        IF S_D.CURRENT_FPRG_CONTEXT$ ~= ADDR(NIL)
     1490     8524    1        THEN IF S_D.CURRENT_FPRG_CONTEXT$ -> FPRG$CONTEXT.XDELTA
     1491     8525    1        THEN DD_MODE_NODE_PTR$(0) -> DD_NODE.SUBNDS$(0) = DD_L6X_NODE_PTR$(0);
PL6.E3A0      #004=DUI$INIT_L6 File=DUI$1STIME.:E05TSI                           TUE 07/29/97 14:54 Page:282
     1492     8526    1        S_D.FMT_DEFAULT = %X_FMT;
     1493     8527    1        S_D.EFMT_DEFAULT = %X_FMT;
     1494     8528    1        S_D.L$.SIZE = 16;
     1495     8529    1        S_D.L$.FMT = %X_FMT;
     1496     8530    1        RETURN;
     1497     8531    1   END DUI$INIT_L6;

PL6.E3A0      #004=DUI$INIT_L6 File=DUI$1STIME.:E05TSI                           TUE 07/29/97 14:54 Page:283
--  Include file information  --

   DD$BASED.:E05TOU  is referenced.
   DD_SRTN_C.:E05TOU  is referenced.
   DD_ACODE_C.:E05TOU  is referenced.
   DD_ICODE_C.:E05TOU  is referenced.
   DD$DITEM.:E05TOU  cannot be made into a system file and is referenced.
   DD_KNODES_D.:E05TOU  is referenced.
   XU_MACRO_C.:E05TOU  is referenced.
   DD_SD_M.:E05TOU  is referenced.
   XUH_MACRO_C.:E05TOU  is referenced.
   B$JIT_C.:E05TOU  was found in the system file and is never referenced.
   CP_6_C.:E05TOU  was found in the system file and is never referenced.
      No diagnostics issued in procedure DUI$INIT_L6.

   Procedure DUI$INIT_L6 requires 33 words for executable code.
   Procedure DUI$INIT_L6 requires 8 words of local(AUTO) storage.

    No errors detected in file DUI$1STIME.:E05TSI    .

PL6.E3A0      #004=DUI$INIT_L6 File=DUI$1STIME.:E05TSI                           TUE 07/29/97 14:54 Page:284

 Object Unit name= DUI$INIT_L6                                File name= DUI$1STIME.:E05TOU
 UTS= JUL 29 '97 14:54:32.20 TUE                              Compiler= PL-6/E31         Sev=      00
 SharedLib= :SHARED_SYSTEM                                    Alt SharedLib=


    ****  Control sections  ****

 Sect   Type Bound  Init  Size OctSiz  Section name(segment info)
    0   Proc  even  none    33     41  DUI$INIT_L6

    ****  Entry defs  ****

                              Check   Calling
                             calling  sequence
  Sect OctLoc Primary Altret sequence   type   Parms  Name
     0      0   yes            yes      Std        0  DUI$INIT_L6

  ****  Entry refs  ****

         Check        Calling
        calling       sequence
Altret sequence SRef   type   Args  Name
                       nStd      0 X66_AUTO_0
                       Std       0 B_CONSPOOL_D
                       nStd      0 X66_ARET

  ****  Data refs  ****

  Flags:  r = read only, s = secondary
Flgs Name                             Flgs Name                             Flgs Name
r    S_D$                             r    DD_MODE_NODE_PTR$                r    DD_L6_NODE_PTR$
r    DD_L6X_NODE_PTR$                      B_VECTNIL
PL6.E3A0      #004=DUI$INIT_L6 File=DUI$1STIME.:E05TSI                           TUE 07/29/97 14:54 Page:285


     1454        1        /*T***********************************************************/
     1455        2        /*T*                                                         */
     1456        3        /*T* Copyright (c) Bull HN Information Systems Inc., 1997    */
     1457        4        /*T*                                                         */
     1458        5        /*T***********************************************************/
     1459        6        %EJECT;
PL6.E3A0      #004=DUI$INIT_L6 File=DUI$1STIME.:E05TSI                           TUE 07/29/97 14:54 Page:286
     1460        7        /*P*
     1461        8             NAME: DUI$INIT_L6
     1462        9             PURPOSE:
     1463       10                   Initialize for L6 mode
     1464       11             DESCRIPTION:
     1465       12                   Initialize 1st to 2nd layer interface for L6 mode
     1466       13                   and set up nodes for L6.
     1467       14        */
     1468       15        /**/
     1469       16        DUI$INIT_L6: PROC;

     16  0 000000   000000 700200 xent  DUI$INIT_L6  TSX0  ! X66_AUTO_0
         0 000001   000010 000000                    ZERO    8,0

     1470       17        /**/
     1471       18        %INCLUDE XUH_MACRO_C;
     1472      102        %INCLUDE DD_SD_M;
     1473     1438        %S_D;
     1474     2756        %INCLUDE XU_MACRO_C;
     1475     5862        %INCLUDE DD_KNODES_D;
     1476     6078        %NODE_DEFS;
     1477     6467        %INCLUDE DD$DITEM;
       12+    6570             %LIST;
       13+    6571    1        DCL SDD$ PTR;
       14+    6572    1        DCL ZITEM$ PTR;
       15+    6573    1        DCL SDD_L6$ PTR;
       16+    6574    1        DCL ZITEM_L6$ PTR;
     1478     7148        %INCLUDE DD$BASED;
     1479     8451        %FPRG$CONTEXT;
     1480     8514    1   DCL I SBIN;
     1481     8515        /**/
     1482     8516        /* Initialize S_D.ONE_TO_TWO - 1st to 2nd layer interface for L6 mode */
     1483     8517    1        S_D.ONE_TO_TWO.EXEC_DOMAIN = %L6;

   8517  0 000002   000002 235007                    LDA     2,DL
         0 000003   000000 470400 xsym               LDP0    S_D$
         0 000004   006714 755100                    STA     3532,,PR0
PL6.E3A0      #004=DUI$INIT_L6 File=DUI$1STIME.:E05TSI                           TUE 07/29/97 14:54 Page:287

     1484     8518        /*N  S_D.ONE_TO_TWO.SPECIAL_SYMBOLS_TABLE =          */
     1485     8519        /* Initialize concatenation nodes for L6 mode */
     1486     8520    2        DO I=0 TO SIZEW(DD_MODE_NODE_PTR$)-1;

   8520  0 000005   200007 450100                    STZ     I,,AUTO
         0 000006   000014 710000 0                  TRA     s:8522+1

     1487     8521    2             DD_MODE_NODE_PTR$(I) -> DD_NODE.SUBNDS$(0) = DD_L6_NODE_PTR$(I);

   8521  0 000007   200007 720100                    LXL0    I,,AUTO
         0 000010   000000 470410 xsym               LDP0    DD_MODE_NODE_PTR$,X0
         0 000011   000000 236010 xsym               LDQ     DD_L6_NODE_PTR$,X0
         0 000012   000001 756100                    STQ     1,,PR0

     1488     8522    2           END;

   8522  0 000013   200007 054100                    AOS     I,,AUTO
         0 000014   200007 235100                    LDA     I,,AUTO
         0 000015   000010 115007                    CMPA    8,DL
         0 000016   000007 604400 0                  TMOZ    s:8521

     1489     8523    1        IF S_D.CURRENT_FPRG_CONTEXT$ ~= ADDR(NIL)

   8523  0 000017   000000 470400 xsym               LDP0    S_D$
         0 000020   000102 236100                    LDQ     66,,PR0
         0 000021   000001 116000 xsym               CMPQ    B_VECTNIL+1
         0 000022   000032 600000 0                  TZE     s:8526

     1490     8524    1        THEN IF S_D.CURRENT_FPRG_CONTEXT$ -> FPRG$CONTEXT.XDELTA

   8524  0 000023   000102 471500                    LDP1    66,,PR0
         0 000024   100001 236100                    LDQ     1,,PR1
         0 000025   002000 316003                    CANQ    1024,DU
         0 000026   000032 600000 0                  TZE     s:8526

     1491     8525    1        THEN DD_MODE_NODE_PTR$(0) -> DD_NODE.SUBNDS$(0) = DD_L6X_NODE_PTR$(0);
PL6.E3A0      #004=DUI$INIT_L6 File=DUI$1STIME.:E05TSI                           TUE 07/29/97 14:54 Page:288

   8525  0 000027   000000 236000 xsym               LDQ     DD_L6X_NODE_PTR$
         0 000030   000000 473400 xsym               LDP3    DD_MODE_NODE_PTR$
         0 000031   300001 756100                    STQ     1,,PR3

     1492     8526    1        S_D.FMT_DEFAULT = %X_FMT;

   8526  0 000032   000015 236007                    LDQ     13,DL
         0 000033   000723 756100                    STQ     467,,PR0

     1493     8527    1        S_D.EFMT_DEFAULT = %X_FMT;

   8527  0 000034   004736 756100                    STQ     2526,,PR0

     1494     8528    1        S_D.L$.SIZE = 16;

   8528  0 000035   000020 235007                    LDA     16,DL
         0 000036   000126 755100                    STA     86,,PR0

     1495     8529    1        S_D.L$.FMT = %X_FMT;

   8529  0 000037   000127 756100                    STQ     87,,PR0

     1496     8530    1        RETURN;

   8530  0 000040   000000 702200 xent               TSX2  ! X66_ARET
     1497     8531    1   END DUI$INIT_L6;

PL6.E3A0      #004=DUI$INIT_L6 File=DUI$1STIME.:E05TSI                           TUE 07/29/97 14:54 Page:289
--  Include file information  --

   DD$BASED.:E05TOU  is referenced.
   DD_SRTN_C.:E05TOU  is referenced.
   DD_ACODE_C.:E05TOU  is referenced.
   DD_ICODE_C.:E05TOU  is referenced.
   DD$DITEM.:E05TOU  cannot be made into a system file and is referenced.
   DD_KNODES_D.:E05TOU  is referenced.
   XU_MACRO_C.:E05TOU  is referenced.
   DD_SD_M.:E05TOU  is referenced.
   XUH_MACRO_C.:E05TOU  is referenced.
   B$JIT_C.:E05TOU  was found in the system file and is never referenced.
   CP_6_C.:E05TOU  was found in the system file and is never referenced.
      No diagnostics issued in procedure DUI$INIT_L6.

   Procedure DUI$INIT_L6 requires 33 words for executable code.
   Procedure DUI$INIT_L6 requires 8 words of local(AUTO) storage.

    No errors detected in file DUI$1STIME.:E05TSI    .
PL6.E3A0      #004=DUI$INIT_L6 File=DUI$1STIME.:E05TSI                           TUE 07/29/97 14:54 Page:290
          *** CROSS REFERENCE LISTING ***
**     DENOTES     IDENTIFIER DEFINITION
<<                 IDENTIFIER'S VALUE SET
>>                 IDENTIFIER'S VALUE USED
<>                 IDENTIFIER SET AND/OR USED
--                 IDENTIFIER REFERENCED
PL6.E3A0      #004=DUI$INIT_L6 File=DUI$1STIME.:E05TSI                           TUE 07/29/97 14:54 Page:291
          MINI XREF LISTING

DD_L6X_NODE_PTR$
      6084**DCL      8525>>ASSIGN
DD_L6_NODE_PTR$
      6083**DCL      8521>>ASSIGN
DD_MODE_NODE_PTR$
      6081**DCL      8520--DOINDEX  8521>>ASSIGN   8525>>ASSIGN
DD_NODE.SUBNDS$
      6266**DCL      8521<<ASSIGN   8525<<ASSIGN
FPRG$CONTEXT.XDELTA
      8465**DCL      8524>>IF
I
      8514**DCL      8520<<DOINDEX  8521>>ASSIGN   8521>>ASSIGN
S_D.CURRENT_CHANNEL
      2390**DCL      2392--REDEF
S_D.CURRENT_FPRG_CONTEXT$
      1590**DCL      8523>>IF       8524>>IF
S_D.DEBUGA
      1542**DCL      1544--REDEF
S_D.EFMT_DEFAULT
      2058**DCL      8527<<ASSIGN
S_D.EIS
      2500**DCL      2529--REDEF
S_D.FMT_DEFAULT
      1726**DCL      8526<<ASSIGN
S_D.HOST_MESSAGE_BUF_REMOTE
      2433**DCL      2434--REDEF    2448--REDEF
S_D.JDE
      2047**DCL      2048--REDEF
S_D.L$.FMT
      1626**DCL      8529<<ASSIGN
S_D.L$.SIZE
      1625**DCL      8528<<ASSIGN
PL6.E3A0      #004=DUI$INIT_L6 File=DUI$1STIME.:E05TSI                           TUE 07/29/97 14:54 Page:292
S_D.L$.VALUE
      1600**DCL      1606--REDEF    1614--REDEF    1617--REDEF    1620--REDEF    1623--REDEF
S_D.L$.VALUE.L
      1601**DCL      1602--REDEF    1603--REDEF
S_D.L6_MESSAGE_BUF
      2454**DCL      2456--REDEF
S_D.ONE_TO_TWO.EXEC_DOMAIN
      2465**DCL      8517<<ASSIGN
S_D.OUTPUT
      2420**DCL      2422--REDEF
S_D.REMOTE_MSG.FNCC
      2439**DCL      2440--REDEF
S_D.REMOTE_MSG.STXC
      2435**DCL      2436--REDEF
S_D.REMOTE_MSG.SUBFNCC
      2443**DCL      2444--REDEF
S_D.SV
      1499**DCL      1520--REDEF
S_D$
      2751**DCL      1447--IMP-PTR  8517>>ASSIGN   8523>>IF       8524>>IF       8526>>ASSIGN   8527>>ASSIGN
      8528>>ASSIGN   8529>>ASSIGN
PL6.E3A0      #004=DUI$INIT_L6 File=DUI$1STIME.:E05TSI                           TUE 07/29/97 14:54 Page:293
              *** CROSS REFERENCE LISTING ***
    **     DENOTES     IDENTIFIER DEFINITION
    <<                 IDENTIFIER'S VALUE SET
    >>                 IDENTIFIER'S VALUE USED
    <>                 IDENTIFIER SET AND/OR USED
    --                 IDENTIFIER REFERENCED
PL6.E3A0      #004=DUI$INIT_L6 File=DUI$1STIME.:E05TSI                           TUE 07/29/97 14:54 Page:294
              MINI UREF LISTING

DD$COMP_NODE_PTR$    6087**DCL
DD_COMPNODE$    6085**DCL
DD_COMP_NODE_PTR$    6086**DCL
DD_HOST_NODE_PTR$    6082**DCL
DD_INSTR_CONT    6106**DCL
DUI$INIT_L6      16**PROC
SDD$    6571**DCL
SDD_L6$    6573**DCL
ZITEM$    6572**DCL
ZITEM_L6$    6574**DCL
