VERSION E05

PL6.E3A0      #001=DUI$1STIME File=DUI$1STIME.:E05TSI                            TUE 07/29/97 14:53 Page:1
        1        1        /*T***********************************************************/
        2        2        /*T*                                                         */
        3        3        /*T* Copyright (c) Bull HN Information Systems Inc., 1997    */
        4        4        /*T*                                                         */
        5        5        /*T***********************************************************/
        6        6        /*P*
        7        7             NAME: FIRST_TIME Module
        8        8             PURPOSE:
        9        9                   To initialize everything upon the initial entry to DELTA.
       10       10             DESCRIPTION:
       11       11                   The DDS Allocate Module is called to get memory for the
       12       12                   context structure, the program DEF records, and a work buffer
       13       13                   for X$PARSE.  Initialize the context structure.  Open the M$DO
       14       14                   DCB.  Get the M$DELTA DCB and set up the defaults for it.  Set
       15       15                   up the prompt and activation character set.  Establish DELTA's
       16       16                   special location, if any.  Read the HEAD record and make sure
       17       17                   it is the correct FLAVOR run unit.  Read the program DEF records
       18       18                   into memory and establish the default schema.  Establish the
       19       19                   default syntax, @ and # patch space, if any, and access to
       20       20                   overlaid program, if necessary.
       21       21        */
       22       22        /*D* NAME: DUI$1STIME
       23       23             ENTRY: DUI$1STIME
       24       24             CALL: CALL DUI$1STIME;
       25       25             INTERFACE: M$GDS
       26       26                        M$GETDCB
       27       27                        M$XXX
       28       28                        DDM$GETMEM
       29       29                        DDQ$READLM
       30       30             ENVIRONMENT: User Delta.
       31       31             INPUT: None.
       32       32             OUTPUT: S_D initialized. M$DELT# Dcb set up.
       33       33             SCRATCH: Local AUTO only.
       34       34             DESCRIPTION: Gets Delta's reserved DCB, sets 'ME' as resource
       35       35                          type, then opens it with assigns merged. Gets memory
       36       36                          for "static data" area and X$PARSE work buffer.
       37       37                          Reads Run Unit HEAD record. Computes & obtains memory for
PL6.E3A0      #001=DUI$1STIME File=DUI$1STIME.:E05TSI                            TUE 07/29/97 14:53 Page:2
       38       38                          ENTDEF, SYMDEF, & DEFNAMES records, and reads them into
       39       39                          memory. ABORTs if "static data" cannot be obtained. Remembers
       40       40                          if memory for program DEFs cannot be obtained. RETURNs
       41       41                          when done. */
       42       42                                                /**/
       43       43        DUI$1STIME: PROC ALTRET;
       44       44                                                /**/
       45       45        %INCLUDE CP_6;
       46      126        %INCLUDE CP_6_SUBS;
       47      666        %INCLUDE B$OBJECT_C;
       48     4096        %INCLUDE B_SEGIDS_C;
       49     4635        %INCLUDE NK_VFC_C;
       50     4709        %B$RECORDSUBS;
       51     4737        %RU_FLAVORS;
       52     4743        %COMPILERIDSUBS;
       53     4759        %SUB @PAGE= 0 /* @PAGE */;
       54     4760        %SUB @PARS= 2048 /* @PARS */;
       55     4761        %SUB @HBUS= 768 /* @HBUS */;
       56     4762        %SUB @PSIZ= 1024 /* @PSIZ */;
       57     4763        %INCLUDE DD$DITEM;
       12+    4866             %LIST;
       13+    4867    1        DCL SDD$ PTR;
       14+    4868    1        DCL ZITEM$ PTR;
       15+    4869    1        DCL SDD_L6$ PTR;
       16+    4870    1        DCL ZITEM_L6$ PTR;
       58     5444        %INCLUDE IR_DATA_M;
       59     5608        %INCLUDE DD$DA;
       60     5689                                                /**/
       61     5690    1   DCL DNAME$ PTR;
       62     5691    1   DCL EDEF$ PTR;
       63     5692    1   DCL SDEF$ PTR;
       64     5693    1   DCL TEMP$ PTR;
       65     5694    1   DCL ARS SBIN;
       66     5695    1   DCL TSIZE UBIN;
       67     5696    1   DCL I UBIN;
       68     5697    1   DCL J UBIN;
       69     5698    1   DCL K UBIN;
PL6.E3A0      #001=DUI$1STIME File=DUI$1STIME.:E05TSI                            TUE 07/29/97 14:53 Page:3
       70     5699    1   DCL T1 UBIN;
       71     5700    1   DCL T2 UBIN;
       72     5701    1   DCL ECC UBIN;
       73     5702    1   DCL SUBC UBIN;
       74     5703    1   DCL NRECSIZE UBIN;
       75     5704    1   DCL EPRECSIZE UBIN;
       76     5705    1   DCL EDRECSIZE UBIN;
       77     5706    1   DCL UPLL UBIN;
       78     5707    1   DCL 1 UPLLP REDEF UPLL,
       79     5708    1         2 PLL UBIN(26) UNAL,
       80     5709    1         2 WIRD UBIN(10) UNAL;
       81     5710    1   DCL WHERE$ PTR;
       82     5711    1   DCL 1 USLPTR,
       83     5712    1         2 ADR UBIN(18) UNAL,
       84     5713    1         2 * UBIN(6) UNAL,
       85     5714    1         2 SEGID UBIN(12) UNAL;
       86     5715    1   DCL GOTHEAD BIT(1) ALIGNED;
       87     5716    1   DCL CHR2 CHAR(2);
       88     5717    1   DCL DCBPTR$  PTR;
       89     5718    1   DCL ROSIZE   UBIN;
       90     5719    1   DCL TEMP1$   PTR;
       91     5720    1   DCL PAGE     UBIN;
       92     5721    1   DCL INITED_TEMP BIT(1) ALIGNED;
       93     5722    1   DCL NEED SBIN;
       94     5723    1   DCL NODESEG$ PTR;
       95     5724    1   DCL TOGET  SBIN;
       96     5725    1   DCL NEEDSIZE SBIN;
       97     5726    1   DCL DCB$PTR$  PTR BASED ALIGNED;
       98     5727    1   DCL IX  UBIN;
       99     5728    1   DCL DCBRES  UBIN;
      100     5729    1   DCL 1 PTR$WORD BASED ALIGNED,
      101     5730    1         2 LH  UBIN HALF UNAL,
      102     5731    1         2 *   UBIN HALF UNAL;
      103     5732    1   DCL OPENDOOK BIT(1) ALIGNED;
      104     5733    1   DCL PROMPTSIZE UBIN;
      105     5734    1   DCL OPTARRY(0:35) BIT(1) UNAL;      /* Options bits */
      106     5735    1   DCL OPTIONS REDEF OPTARRY BIT(36);  /* Options word */
PL6.E3A0      #001=DUI$1STIME File=DUI$1STIME.:E05TSI                            TUE 07/29/97 14:53 Page:4
      107     5736    1   DCL DSIZE UBIN;
      108     5737    1   DCL 1 UREGS DALIGNED,
      109     5738    1         2 *(0:6) UBIN;                    /* 7 word block for regs in FPT$DRTN  */
      110     5739        %B$HEAD (NAME=BHEAD,
      111     5740                 STCLASS=);
      112     5940        %FPT_PROMPT (FPTN=FPTPROMPT,
      113     5941                     STCLASS=);
      114     5969        %FPT_GETDCB (FPTN=FPTGETDCB,
      115     5970                     STCLASS=);
      116     5985        %FPT_OPEN (FPTN=FPTOPEN,
      117     5986                   STCLASS=);
      118     6095        %FPT_MONINFO (STCLASS=CONSTANT);
      119     6110        %FPT_MONINFO (FPTN=FPT$MONINFO, STCLASS=);
      120     6125        /* Based */
      121     6126    1   DCL 1 PROM$PT BASED UNAL,
      122     6127    1         2 * CHAR( PROMPTSIZE );
      123     6128    1   DCL BITS BIT(36) BASED ALIGNED;
      124     6129        %B$EDEF;
      125     6199        %B$SDEF;
      126     6253        %B$DNAME;
      127     6272        %B$LBNTRY0;
      128     6308        %INCLUDE B$JIT;
      129     6598        %F$DCB;
      130     6655        %INCLUDE DD$BASED;
      131     7958        %HIST_BUF;
      132     7967        %FPRG$CONTEXT;
      133     8030        %INCLUDE XUH_MACRO_C;
      134     8114        %INCLUDE DD_SD_M;
      135     9450        %S_D(STCLASS="AREAREF");
      136    10768        %S_D_PTRS;
      137    10805        %B$ALT;
      138    10813        %B$TCB;
      139    10816        %SUB_ECCDELTA;
      140    10853        %B$EXCFR;
      141    10871        %SUB B$EXCFR=B$TCB$->B$TCB.STK$->B$EXCFR;
      142    10872        %INCLUDE B$ROSEG;
      143    10935        %B$TREE_TABLE (HDR_NAME=B$TREEHDR,NODE_NAME="B$NODE(0:0)");
PL6.E3A0      #001=DUI$1STIME File=DUI$1STIME.:E05TSI                            TUE 07/29/97 14:53 Page:5
      144    10993        %DU$TREE;
      145    10999        %DU$NODE (NAME="DU$NODE(0:0)",STCLASS="BASED(NODESEG$)");
      146    11009    1   DCL DD_PROMPT CHAR(0) CONSTANT SYMDEF INIT( '>' );
      147    11010    1   DCL UIS$ PTR SYMREF;
      148    11011    1   DCL UJIT$ PTR SYMREF;
      149    11012    1   DCL B$JIT$ PTR SYMREF;
      150    11013    1   DCL B$TCB$ PTR SYMREF;
      151    11014    1   DCL B$ROS$ PTR SYMREF;
      152    11015    1   DCL DD_RUMNODE$ PTR SYMREF;
      153    11016    1   DCL DD_VARCOM$ PTR SYMREF;
      154    11017    1   DCL PARSE$ PTR SYMREF;
      155    11018        /* Symrefs for SYNTAX command */
      156    11019        %INCLUDE XU_MACRO_C;
      157    14125        %INCLUDE DD_KNODES_D;
      158    14341        %NODE_DEFS;
      159    14730        %XUH_PARAM (NAME=XUH_PARAM,
      160    14731                    STCLASS=CONSTANT,
      161    14732                    PROCACCT=DD_DELTA_ACCOUNT,
      162    14733                    PROCNAME=DD_DELTA_NAME);
      163    14794        %VLP_NAME (FPTN=DD_DELTA_NAME,
      164    14795                   STCLASS=CONSTANT,
      165    14796                   NAME='DELTA');
      166    14823        %VLP_ACCT (FPTN=DD_DELTA_ACCOUNT,
      167    14824                   STCLASS=CONSTANT,
      168    14825                   ACCT=':SYS');
      169    14838        %FPT_OPEN (FPTN=FPT_OPEN_DO,
      170    14839                   STCLASS=CONSTANT,
      171    14840                   FUN=CREATE,
      172    14841                   ORG=UR);
      173    14950        %FPT_EOM (FPTN=FPT_EOM,
      174    14951                  STCLASS=CONSTANT SYMDEF,
      175    14952                  EOMTABLE=VLP_EOMTABLE_DELTA);
      176    14982        %FPT_GETDCB (FPTN=FPT_GETDCB,
      177    14983                     STCLASS=CONSTANT,
      178    14984                     DCBNAME=VLP_NAME_M$DELTA,
      179    14985                     MERGE=YES);
      180    15000        %FPT_OPEN (FPTN=FPT_OPEN_M$DELTA,
PL6.E3A0      #001=DUI$1STIME File=DUI$1STIME.:E05TSI                            TUE 07/29/97 14:53 Page:6
      181    15001                   STCLASS=CONSTANT,
      182    15002                   XONLY=YES,
      183    15003                   FUN=IN);
      184    15112        %VLP_EOMTABLE (FPTN=VLP_EOMTABLE_DELTA,
      185    15113                       STCLASS=CONSTANT,
      186    15114                       VALUES=DELTA);
      187    15133        %VLP_NAME (FPTN=VLP_NAME_M$DELTA,
      188    15134                   STCLASS=CONSTANT,
      189    15135                   NAME='M$DELTA');
      190    15162        %VLR_SITEINFO (FPTN=VLR$SITEINFO,STCLASS=);
      191    15181        %FPT_OPEN (FPTN=FPT_OPEN_ME,
      192    15182                   STCLASS=SYMREF);
      193    15291        %FPT_PROMPT (FPTN=FPT_PROMPT,
      194    15292                     STCLASS=SYMREF);
      195    15320    1   DCL 1 MESSAGE_BUF CONSTANT,
      196    15321    1         2 VFC CHAR(1) INIT(%VFC_TRANSITION1),
      197    15322    1         2 TEXT CHAR(0) INIT('Unable to obtain minimum memory to run DELTA.');
      198    15323        %FPT_WRITE(FPTN=FPT_WRITE,
      199    15324                   STCLASS=CONSTANT,
      200    15325                   BUF=MESSAGE_BUF,
      201    15326                   VFC=YES);
      202    15357        %FPT_WRITE(FPTN=FPT$WRITE,
      203    15358                   STCLASS=AUTO);
      204    15389        %FPT_DRTN (STCLASS=CONSTANT);
      205    15413        %FPT_DRTN (FPTN=FPT$DRTN, STCLASS=AUTO);
      206    15437        %INCLUDE DD_REPORT_R;
      207    15446    1   DCL D_PARSIZE UBIN CONSTANT SYMDEF INIT( @PARS );
      208    15447    1   DCL DD_DEBUG UBIN SYMREF;
      209    15448    1   DCL D_HBUSIZE UBIN CONSTANT SYMDEF INIT( @HBUS );
      210    15449    1   DCL D_M$DELT# UBIN CONSTANT SYMDEF INIT( %M$DELT# );
      211    15450    1   DCL D_M$LM# UBIN CONSTANT SYMDEF INIT( %M$LM# );
      212    15451    1   DCL D_M$DO# UBIN CONSTANT SYMDEF INIT( %M$DO# );
      213    15452    1   DCL 1 DD_XOU CONSTANT SYMDEF,
      214    15453    1         2 SIZE UBIN BYTE UNAL INIT( LENGTHC( DD_XOU.TEXT ) ),
      215    15454    1         2 TEXT CHAR(0) UNAL INIT( 'B_DELTA_D' );
      216    15455    1   DCL DD_XOU$ PTR CONSTANT SYMDEF INIT( ADDR( DD_XOU ) );
      217    15456        /* Entrys */
PL6.E3A0      #001=DUI$1STIME File=DUI$1STIME.:E05TSI                            TUE 07/29/97 14:53 Page:7
      218    15457    1   DCL DDE$ERROR ENTRY(0);
      219    15458    1   DCL DDI$GET_PATCH_SPACE ENTRY;
      220    15459    1   DCL DDM$GETMEM ENTRY(3) ALTRET;
      221    15460    1   DCL DDM$GETMEM1 ENTRY(3) ALTRET;
      222    15461    1   DCL DDQ$READLM ENTRY(7) ALTRET;
      223    15462    1   DCL DDS$EMTREE ENTRY(0) ALTRET;
      224    15463    1   DCL DDS$EQCS# ENTRY(1) ALTRET;
      225    15464    1   DCL DDS$ES_INQ ENTRY(1) ALTRET;
      226    15465    1   DCL DDS$PD_SRCH ENTRY(2) ALTRET;
      227    15466    1   DCL DDS$SET_Q2X ENTRY(0) ALTRET;
      228    15467    1   DCL DUA$READ ENTRY(1) ALTRET;
      229    15468    1   DCL DUE$ERRMSG ENTRY(0);
      230    15469    1   DCL DUI$INIT_HOST ENTRY;
      231    15470    1   DCL DUQ$WRERRLOGDO ENTRY(1);
      232    15471    1   DCL DUX$XCON1_REL ENTRY(0);
      233    15472        /* Misc */
      234    15473        %INCLUDE B_STRINGS_C;
      235    15602        %INCLUDE DD_SUBS_C;
      236    15873        %INCLUDE DD_PSUBS_C;
      237    16348        %INCLUDE DD_ERR_C;
      238    16745        %INCLUDE M_INFO_C;
      239    16885        %INCLUDE XU_SUBS_C;
      240    16977
      241    16978                                                /**/
      242    16979    1        FPT$DRTN=FPT_DRTN;                 /* Initialize our return fpt          */
      243    16980    1        FPT$DRTN.V_ = VECTOR(FPT$DRTN.V);
      244    16981    1        FPT$DRTN.REGS_ = VECTOR(UREGS);
      245    16982        /* Open D_M$DO# Dcb */
      246    16983    1        OPENDOOK = '1'B;
      247    16984    1        IF NOT DCBADDR( D_M$DO# ) -> F$DCB.FCD#
      248    16985    2        THEN DO;
      249    16986    2             FPTOPEN = FPT_OPEN_DO;
      250    16987    2             FPTOPEN.V_ = VECTOR( FPTOPEN.V );
      251    16988    2             FPTOPEN.V.DCB# = D_M$DO#;
      252    16989    2             CALL M$OPEN( FPTOPEN ) ALTRET( NOPNDO );
      253    16990    3             DO WHILE ( '0'B );
      254    16991    3   NOPNDO:        OPENDOOK = '0'B;
PL6.E3A0      #001=DUI$1STIME File=DUI$1STIME.:E05TSI                            TUE 07/29/97 14:53 Page:8
      255    16992    3                  FPTOPEN = FPT_OPEN_ME;
      256    16993    3                  FPTOPEN.V_ = VECTOR( FPTOPEN.V );
      257    16994    3                  FPTOPEN.V.DCB# = D_M$DO#;
      258    16995    3                  CALL M$OPEN( FPTOPEN ) ALTRET( NOPNME );
      259    16996    3                END;
      260    16997    2           END;
      261    16998        /* Initialize S_D */
      262    16999    1        INITED_TEMP = S_D.INITED;
      263    17000    1        S_D = '0'B;
      264    17001    1        S_D.INITED = INITED_TEMP;
      265    17002    1        S_D.XUH_PARAM = XUH_PARAM;
      266    17003    1        S_D.XUH_PARAM.OUTDCB1# = D_M$DO#;
      267    17004    1        IF B$JIT.USER = 1
      268    17005    1        THEN S_D.GHOST1 = '1'B;
      269    17006    1        IF B$JIT.MODE ~= %M_INT#
      270    17007    1        THEN S_D.BATCH = '1'B;
      271    17008    1        S_D.B$ROS$ = B$ROS$;
      272    17009    1        S_D.NODESEG$ = DD_RUMNODE$;
      273    17010    1        S_D.NODESEG_USED$ = DD_RUMNODE$;
      274    17011             /* Establish VARCOM area */
      275    17012    1        CALL DDM$GETMEM(DD_VARCOM$, 0, DSIZE);
      276    17013    1        IF DSIZE = 0
      277    17014    1        THEN S_D.VARCOM$ = DD_VARCOM$;
      278    17015    1        ELSE S_D.VARCOM$ = PINCRW(DD_VARCOM$, DSIZE+1);
      279    17016    1        CALL DDM$GETMEM(DD_VARCOM$, @PSIZ) ALTRET(NOROOMATS);
      280    17017    1        S_D.VARCOM_HIGH$ = PINCRW(S_D.VARCOM$, @PSIZ);
      281    17018    1        S_D.VARNEXT$ = S_D.VARCOM$;
      282    17019    1        S_D.LMDCB = D_M$LM#;
      283    17020    1        S_D.ERROR_SYM$ = ADDR(NIL);
      284    17021    1        S_D.WHEN_HIGH$ = ADDR(NIL);
      285    17022    1        S_D.FPRG_CONTEXT$ = ADDR(NIL);
      286    17023    1        S_D.FPRG_CONTEXT_END$ = ADDR(NIL);
      287    17024    1        S_D.FPRG_CONTEXT_AVAIL$ = ADDR(NIL);
      288    17025    1        S_D.FPRG_CONTEXT_AVAIL_END$ = ADDR(NIL);
      289    17026    1        S_D.CURRENT_FPRG_CONTEXT$ = ADDR(NIL);
      290    17027    1        S_D.DRTN$ = ADDR(NIL);
      291    17028    1        S_D.DEBUG_CMD_CONTEXT$ = ADDR(NIL);
PL6.E3A0      #001=DUI$1STIME File=DUI$1STIME.:E05TSI                            TUE 07/29/97 14:53 Page:9
      292    17029    1        S_D.DO$ = ADDR(NIL);
      293    17030    1        S_D.DEBUGF = DD_DEBUG;
      294    17031    1        S_D.SCHEMA = '1'B;
      295    17032    1        S_D.BYPASS = '1'B;
      296    17033    1        S_D.STATUS = '1'B;
      297    17034    1        S_D.CAN_I_DO_BREAK = '1'B;
      298    17035    1        S_D.BYPASS_SAVE = '1'B;
      299    17036    1        S_D.KEEP = '777777777777'O;
      300    17037    1        S_D.FIND.NUM = DD_BIGNUM;
      301    17038    1        S_D.FIND.MASK_F = -1;
      302    17039    1        S_D.RANGE = BITBIN( '777777'O );
      303    17040    1        S_D.EWSQ# = %MONWSQ;               /* %MONWSQ */
      304    17041    1        S_D.PROMPT.VFC = %VFC_EXT;
      305    17042    1        S_D.PROMPT.TEXT = DD_PROMPT;
      306    17043    1        S_D.UPROMPT = DD_PROMPT;
      307    17044    1        S_D.PROMPT_SIZE = LENGTHC( DD_PROMPT ) + LENGTHC( S_D.PROMPT.VFC );
      308    17045    1        S_D.UPROMPT_SIZE = LENGTHC( DD_PROMPT );
      309    17046    1        S_D.FMT_DEFAULT = %OCT_FMT;
      310    17047    1        S_D.EFMT_DEFAULT = %OCT_FMT;
      311    17048    1        S_D.L$.SIZE = 36;
      312    17049    1        S_D.L$.FMT = %OCT_FMT;
      313    17050    1        S_D.OUT_WIDTH = 132;
      314    17051    1        S_D.FAULTCMD$ = ADDR( NIL );
      315    17052    1        S_D.SAD = -1;                      /* None yet */
      316    17053    1        S_D.S$TEP.MODE = C@STATEMENTS;     /*C@STATEMENTS*/
      317    17054    1        S_D.READPOS = 1;
      318    17055    1        S_D.ECHO = '1'B;
      319    17056    1        S_D.L6_CACHE = '1'B;;
      320    17057    1        S_D.INTERPRETIVE = '1'B;
      321    17058    1        S_D.FIRST_TIME = '1'B;
      322    17059
      323    17060        /* Setup default compiler print flags */
      324    17061    1        S_D.REPORT_FLAGS = DD_REPORT_FLAGS;
      325    17062        /* Setup concatenation nodes */
      326    17063
      327    17064    1        FPT$MONINFO = FPT_MONINFO;
      328    17065    1        FPT$MONINFO.SITEINFO_ = VECTOR(VLR$SITEINFO);
PL6.E3A0      #001=DUI$1STIME File=DUI$1STIME.:E05TSI                            TUE 07/29/97 14:53 Page:10
      329    17066    1        CALL M$MONINFO (FPT$MONINFO);
      330    17067    1         S_D.HW_TYPE = VLR$SITEINFO.CPU_TYPE#;
      331    17068    2         DO CASE (S_D.HW_TYPE);
      332    17069    2            CASE (%L66);
      333    17070    2               S_D.HW_PTB_UNITS = 64;
      334    17071    2               S_D.HW_RES_MEM = '0'B;
      335    17072    2               S_D.HW_WSQ0PT = '0'B;
      336    17073    2               S_D.HW_FLTIC_OK = '0'B;
      337    17074    2            CASE (%DPS90);
      338    17075    2               S_D.HW_PTB_UNITS = 64;
      339    17076    2               S_D.HW_RES_MEM = '1'B;
      340    17077    2               S_D.HW_WSQ0PT = '1'B;
      341    17078    2               S_D.HW_FLTIC_OK = '1'B;
      342    17079    2            CASE (%DPS90XA);
      343    17080    2               S_D.HW_PTB_UNITS = 1024;
      344    17081    2               S_D.HW_RES_MEM = '1'B;
      345    17082    2               S_D.HW_WSQ0PT = '1'B;
      346    17083    2               S_D.HW_FLTIC_OK = '1'B;
      347    17084    2            CASE (%DPS8000);
      348    17085    2               S_D.HW_PTB_UNITS = 1024;
      349    17086    2               S_D.HW_RES_MEM = '0'B;
      350    17087    2               S_D.HW_WSQ0PT = '0'B;
      351    17088    2               S_D.HW_FLTIC_OK = '0'B;/*?*/
      352    17089    2            END;
      353    17090    1        IF SUBSTR(VLR$SITEINFO.SITE_NAME#.C,0,5) = 'LADC ' THEN S_D.LADC = '1'B;
      354    17091    1        CALL DUI$INIT_HOST;
      355    17092        /* Determine if BATCH or not */
      356    17093    1        FPTPROMPT = FPT_PROMPT;
      357    17094    1        FPTPROMPT.V_ = VECTOR( FPTPROMPT.V );
      358    17095    1        PROMPTSIZE = S_D.PROMPT_SIZE;
      359    17096    1        FPTPROMPT.PROMPT_ = VECTOR( ADDR( S_D.PROMPT ) -> PROM$PT );
      360    17097    1        CALL M$PROMPT( FPTPROMPT ) ALTRET( DONTCARE );
      361    17098    1   DONTCARE: ;
      362    17099    1        IF NOT OPENDOOK
      363    17100    2        THEN DO;
      364    17101    2             S_D.ERROR = E@NOPNDO;         /* E@NOPNDO */
      365    17102    2             CALL DDE$ERROR;
PL6.E3A0      #001=DUI$1STIME File=DUI$1STIME.:E05TSI                            TUE 07/29/97 14:53 Page:11
      366    17103    2           END;
      367    17104        /* Get M$DELT# Dcb */
      368    17105    1        IF D_M$DELT# = %M$DELT#
      369    17106    2        THEN DO;                           /* Don't get dcb if running as user */
      370    17107    2             CALL DUX$XCON1_REL;           /* Release it if we got it */
      371    17108    2             FPTGETDCB = FPT_GETDCB;
      372    17109    2             FPTGETDCB.V_ = VECTOR( FPTGETDCB.V );
      373    17110    2             FPTGETDCB.V.DCB# = D_M$DELT#;
      374    17111    2             CALL M$GETDCB( FPTGETDCB ) ALTRET( NODCB );
      375    17112    2           END;
      376    17113    1        ECC = B$EXCFR.ECC;
      377    17114    1        SUBC = B$EXCFR.SUBC;
      378    17115    1        IF S_D.BATCH                       /* Setup default defaults */
      379    17116    1        THEN S_D.M$DELTA_RES = 'ME';
      380    17117    1        ELSE IF (ECC = %ECC_DELTA# AND SUBC = %SC_YC#)
      381    17118    1             THEN S_D.M$DELTA_RES = 'UC';
      382    17119    1             ELSE IF B$JIT.NEXTCC = %CC_FROMXEQ#
      383    17120    1                  THEN S_D.M$DELTA_RES = 'ME';
      384    17121    1                  ELSE S_D.M$DELTA_RES = 'UC';
      385    17122    1        FPTOPEN = FPT_OPEN_M$DELTA;
      386    17123    1        FPTOPEN.V_ = VECTOR( FPTOPEN.V );
      387    17124    1        FPTOPEN.V.DCB# = D_M$DELT#;
      388    17125    1        FPTOPEN.V.XONLY# = '1'B;
      389    17126    1        IF NOT( DCBADDR( D_M$DELT# ) -> F$DCB.AMR# )
      390    17127    2        THEN DO;
      391    17128    2             FPTOPEN.V.RES# = S_D.M$DELTA_RES;
      392    17129    2             FPTOPEN.V.ASN# = %DEVICE#;
      393    17130    2           END;
      394    17131    1        CALL M$OPEN( FPTOPEN ) ALTRET( NOPN#9 );
      395    17132    1        IF NOT S_D.BATCH
      396    17133    1        THEN IF DCBADDR( D_M$DELT# ) -> F$DCB.ASN# = %DEVICE#
      397    17134    1             THEN S_D.M$DELTA_RES = DCBADDR( D_M$DELT# ) -> F$DCB.RES#;
      398    17135    2        DO WHILE ( '0'B );
      399    17136    2   NOPN#9:   CALL DUE$ERRMSG;
      400    17137    2             CALL DUA$READ;                /* Doesn't ALTRET */
      401    17138    2           END;
      402    17139        /* Get a page for X$PARSE work buffer */
PL6.E3A0      #001=DUI$1STIME File=DUI$1STIME.:E05TSI                            TUE 07/29/97 14:53 Page:12
      403    17140    1        CALL DDM$GETMEM( PARSE$, D_PARSIZE ) ALTRET(NOPARS);
      404    17141    1        S_D.PARSIZE = D_PARSIZE;
      405    17142    1        CALL DDM$GETMEM( PARSE$, D_HBUSIZE ) ALTRET(NOPARS);
      406    17143    1        S_D.HIST.START$ = PINCRW(PARSE$, D_PARSIZE);
      407    17144    1        S_D.HIST.CURR$ = S_D.HIST.START$;
      408    17145    1        S_D.HIST.END$ = PINCRW(S_D.HIST.START$, D_HBUSIZE - SIZEW(HIST_BUF));
      409    17146                                 /* PINCRW START, AVAILWRDS/WORDS-PER-ENTRY, -1 ENTRY */
      410    17147    1        S_D.HIST.EMPTY = '1'B;
      411    17148    1        S_D.HIST.ACTIVE = '1'B;
      412    17149        /* Establish DELTA special location */
      413    17150    1        S_D.SL$ = ADDR( NIL );
      414    17151    1        S_D.SLP1$ = ADDR( NIL );
      415    17152    1        IF B$EXCFR.ECC = %ECC_ALIB# AND
      416    17153    1           B$EXCFR.SUBC = %SC_AASL#
      417    17154    1        THEN GOTO SKIPSL;
      418    17155    1        IF B$EXCFR.ECC=%ECC_DELTA# AND B$EXCFR.SUBC=%SC_JOBSTEP#
      419    17156    2        THEN DO;
      420    17157    2             S_D.STAND_ALONE = '1'B;
      421    17158    2             S_D.SL$ = PINCRW(UIS$, 2);    /* Make it 2 */
      422    17159    2             S_D.SLP1$ = PINCRW(UIS$, 3);
      423    17160    2             S_D.SL = 2;
      424    17161    2             S_D.BYPASS = '0'B;            /* KILL BYPASS, give him a break */
      425    17162    2             S_D.BYPASS_SAVE = '0'B;       /* Reset this save bit too */
      426    17163    2           END;
      427    17164    2        ELSE DO;
      428    17165    2             IF UJIT$ -> B$JIT.PCP ~= 0
      429    17166    3             THEN DO;
      430    17167    3                  UPLL = 1;
      431    17168    3                  UPLLP.PLL = UJIT$ -> B$JIT.PLL - %ISEGLO; /* Page # in IS */
      432    17169    3                  S_D.PADDR = UPLL - 1;
      433    17170    3                  WHERE$ = PINCRW( UIS$, UPLL );
      434    17171    3                  USLPTR = WHERE$ -> BITS;
      435    17172    3                  IF USLPTR.SEGID ~= BITBIN( %ISSID )
      436    17173    4                  THEN DO;
      437    17174    4                       USLPTR = PINCRW( WHERE$, -1 ) -> BITS;
      438    17175    4                       IF USLPTR.SEGID ~= BITBIN( %ISSID )
      439    17176    4                       THEN GOTO NOSL;
PL6.E3A0      #001=DUI$1STIME File=DUI$1STIME.:E05TSI                            TUE 07/29/97 14:53 Page:13
      440    17177    4                     END;
      441    17178    3                  S_D.SL$ = PINCRW( UIS$, USLPTR.ADR );
      442    17179    3                  S_D.SLP1$ = PINCRW( S_D.SL$, 1 );
      443    17180    3                  S_D.SL = POFFW( S_D.SL$, UIS$ );
      444    17181    3                END;
      445    17182    2           END;
      446    17183    1   SKIPSL:
      447    17184    2        DO WHILE( '0'B );
      448    17185    2   NOSL:
      449    17186    2             S_D.ERROR = E@NOSL$;          /* E@NOSL$ */
      450    17187    2             CALL DDE$ERROR;
      451    17188    2           END;
      452    17189    1        S_D.PADDR_SAVE = S_D.PADDR;
      453    17190        /* Set activation character set */
      454    17191    1        IF (NOT S_D.BATCH) AND (NOT S_D.STAND_ALONE)
      455    17192    2        THEN DO;
      456    17193    2             CALL M$EOM( FPT_EOM ) ALTRET( NOEOM );
      457    17194    2             S_D.EOM = '1'B;
      458    17195    3             DO WHILE ( '0'B );
      459    17196    3   NOEOM:
      460    17197    3                  IF B$TCB$ -> B$TCB.ALT$ -> B$ALT.ERR.SEV ~= 0
      461    17198    4                  THEN DO;
      462    17199    4                       CALL DUE$ERRMSG;
      463    17200    4                       CALL M$XXX;
      464    17201    4                     END;
      465    17202    3                END;
      466    17203    2           END;
      467    17204        %EJECT;
PL6.E3A0      #001=DUI$1STIME File=DUI$1STIME.:E05TSI                            TUE 07/29/97 14:53 Page:14
      468    17205                                                /**/
      469    17206    1   DUI$RU_ACCESS: ENTRY ALTRET;
      470    17207                                                /**/
      471    17208        /* Get program DEFs records */
      472    17209    1        S_D.DNAME$ = ADDR( NIL );
      473    17210    1        S_D.EDEF$ = ADDR( NIL );
      474    17211    1        S_D.SDEF$ = ADDR( NIL );
      475    17212    1        S_D.SCH = '0'B;
      476    17213    1        S_D.QSCH = '0'B;
      477    17214    1        S_D.DSCH = '0'B;
      478    17215    1        S_D.XSCH = '0'B;
      479    17216    1        S_D.TSCH = '0'B;
      480    17217    1        S_D.LB0$ = ADDR( NIL );
      481    17218    1        S_D.OVERLAID = '0'B;
      482    17219    1        S_D.TREE$ = ADDR( NIL );
      483    17220    1        S_D.MTREE$ = ADDR( NIL );
      484    17221    1        S_D.UTREE$ = ADDR( NIL );
      485    17222    1        S_D.NODE = 0;
      486    17223    1        S_D.UNODE = '0'B;
      487    17224    1        S_D.LASTPD.RANGE = 0;
      488    17225    1        S_D.ANYSD.RANGE = 0;
      489    17226    1        S_D.NCNSD.RANGE = 0;
      490    17227        /*D* Setup defaults here while we have the chance to do so */
      491    17228    1        S_D.GOT# = '0'B;
      492    17229    1        S_D.GOT@ = '0'B;
      493    17230    1        S_D.DEFINED# = '0'B;
      494    17231    1        S_D.DEFINED@ = '0'B;
      495    17232    1        S_D.XOU_NAME.SIZE = 0;
      496    17233    1        S_D.SYNTAX_DEFAULT = %PL6ID;
      497    17234    1        S_D.SYNTAX = %PL6ID;
      498    17235    2        DO I = 0 TO SIZEW(DD_COMP_NODE_PTR$)-1;
      499    17236    2             DD_COMP_NODE_PTR$(I) -> DD_NODE.SUBNDS$(0) =
      500    17237    2               DD_COMPNODE$(%PL6ID) -> DD$COMP_NODE_PTR$(I);
      501    17238    2           END;
      502    17239    1        IF ( NOT S_D.RUM ) AND ( NOT S_D.ANLZ )
      503    17240    1        THEN IF S_D.STAND_ALONE AND (NOT S_D.FPRG)
      504    17241    1             THEN GOTO RETN;
PL6.E3A0      #001=DUI$1STIME File=DUI$1STIME.:E05TSI                            TUE 07/29/97 14:53 Page:15
      505    17242    1             ELSE S_D.PADDR = S_D.PADDR_SAVE;
      506    17243    1        GOTHEAD = '0'B;
      507    17244    1        ARS = 0;
      508    17245    1        IF ( S_D.GHOST1 ) AND ( NOT S_D.RUM )
      509    17246    1        THEN GOTO RETN;
      510    17247    1        CALL DDQ$READLM( %TYPHEAD, @PAGE, S_D.NODE, ADDR( BHEAD ), LENGTHC( BHEAD ),
             17247                 ARS ) ALTRET( NODEFS1 );
      511    17248    2        DO CASE( BHEAD.FLAVOR );
      512    17249    2          CASE( %HOST_RU );
      513    17250    2             IF S_D.ONE_TO_TWO.EXEC_DOMAIN ~= %HOST
      514    17251    3             THEN DO;
      515    17252    3                  S_D.ERROR = E@NOTFEPRU;  /* E@NOTL6RU */
      516    17253    3                  GOTO ARET;
      517    17254    3                END;
      518    17255    2          CASE( %FEP_RU );
      519    17256    2             IF S_D.ONE_TO_TWO.EXEC_DOMAIN ~= %L6
      520    17257    3             THEN DO;
      521    17258    3                  S_D.ERROR = E@NOTHOSTRU;  /* E@NOTHOSTRU */
      522    17259    3                  GOTO ARET;
      523    17260    3                END;
      524    17261    2             IF BHEAD.RDATA = 0
      525    17262    2             THEN S_D.FEP_PADDR = BHEAD.BIAS;
      526    17263    2             ELSE S_D.FEP_PADDR = (((BHEAD.RDATA + BITBIN('277777'O))
      527    17264    2                         / BITBIN('200000'O)) * BITBIN('200000'O)) + BITBIN('200000'O);
      528    17265    2             S_D.FEP_PSIZE = BHEAD.RPROC;
      529    17266    2          CASE( ELSE );
      530    17267    2             S_D.ERROR = E@BADHEADRECORD;  /* E@BADHEADRECORD */
      531    17268    2             GOTO ARET;
      532    17269    2          END;
      533    17270    1        GOTHEAD = '1'B;
      534    17271    1        S_D.HEAD_LIB = BHEAD.LIB;
      535    17272    1        NRECSIZE = BHEAD.NRECSIZE;
      536    17273    1        EPRECSIZE = BHEAD.EPRECSIZE;
      537    17274    1        EDRECSIZE = BHEAD.EDRECSIZE;
      538    17275    1        ROSIZE = BHEAD.ROSIZE;
      539    17276    1        TSIZE = NRECSIZE + EPRECSIZE + EDRECSIZE;
      540    17277    1        IF NRECSIZE = 0
PL6.E3A0      #001=DUI$1STIME File=DUI$1STIME.:E05TSI                            TUE 07/29/97 14:53 Page:16
      541    17278    1        THEN GOTO NODEFS3;                 /* No DEF NAMEs record */
      542    17279    1        CALL DDM$GETMEM( S_D_SEG$, 0, DSIZE );
      543    17280    1        S_D.SCHSEG_BEGIN$ = PINCRW(S_D_SEG$, DSIZE+1);
      544    17281    1        S_D.SCHSEG$ = S_D.SCHSEG_BEGIN$;
      545    17282    1        DNAME$ = S_D.SCHSEG_BEGIN$;
      546    17283    1        CALL DDM$GETMEM( S_D_SEG$, TSIZE ) ALTRET( NODEFS2 );
      547    17284    1        S_D.SCHSEG$ = PINCRW( DNAME$, TSIZE );
      548    17285    1        NRECSIZE = 4 * NRECSIZE;
      549    17286    1        EPRECSIZE = 4 * EPRECSIZE;
      550    17287    1        EDRECSIZE = 4 * EDRECSIZE;
      551    17288    1        ARS = 0;                           /* Positive */
      552    17289    1        CALL DDQ$READLM( %TYPDNAM, @PAGE, S_D.NODE, DNAME$, NRECSIZE, ARS ) ALTRET(
             17289                 NODEFS3 );
      553    17290    1        EDEF$ = PINCRW( DNAME$, ( ARS + LENGTHC( ARS ) -1 ) / LENGTHC( ARS ) );
      554    17291    1        S_D.DNAME$ = DNAME$;
      555    17292    1        ARS = 0;
      556    17293    1        IF EPRECSIZE = 0
      557    17294    1        THEN GOTO NODEFS4;                 /* No ENTDEFs record */
      558    17295    1        CALL DDQ$READLM( %TYPEDEF, @PAGE, S_D.NODE, EDEF$, EPRECSIZE, ARS ) ALTRET(
             17295                 NODEFS4 );
      559    17296    1        S_D.EDEF$ = EDEF$;
      560    17297    2        DO WHILE( '0'B );
      561    17298    2   NODEFS4:  IF S_D.NODEFS4 THEN EXIT;
      562    17299    2             S_D.NODEFS4 = '1'B;
      563    17300    2             S_D.ERROR = E@NODEFS4;        /* E@NODEFS4 */
      564    17301    2             CALL DDE$ERROR;
      565    17302    2           END;
      566    17303    1        SDEF$ = PINCRW( EDEF$, ARS / 4 );
      567    17304    1        S_D.EDEF_END$ = PINCRW( SDEF$, -SIZEW( B$EDEF ) );
      568    17305    1        TEMP$ = S_D.EDEF$;
      569    17306    1        IF TEMP$ ~= ADDR( NIL )
      570    17307    2        THEN DO WHILE ( TEMP$ <= S_D.EDEF_END$ );
      571    17308    2             TEMP$ -> B$EDEF.LFLAGS.FAULTAGS = '0'B; /* For TRACE */
      572    17309    2             TEMP$ = PINCRW( TEMP$, SIZEW( B$EDEF ) );
      573    17310    2           END;
      574    17311    1        ARS = 0;
      575    17312    1        IF EDRECSIZE = 0
PL6.E3A0      #001=DUI$1STIME File=DUI$1STIME.:E05TSI                            TUE 07/29/97 14:53 Page:17
      576    17313    1        THEN GOTO NODEFS5;                 /* No SYMDEFs record */
      577    17314    1        CALL DDQ$READLM( %TYPSDEF, @PAGE, S_D.NODE, SDEF$, EDRECSIZE, ARS ) ALTRET(
             17314                 NODEFS5 );
      578    17315    1        S_D.SDEF$ = SDEF$;
      579    17316    2        DO WHILE( '0'B );
      580    17317    2   NODEFS5:
      581    17318    2             S_D.ERROR = E@NODEFS5;        /* E@NODEFS5 */
      582    17319    2             CALL DDE$ERROR;
      583    17320    2           END;
      584    17321    1        S_D.LB0$ = PINCRW( SDEF$, ARS / 4 );
      585    17322    1        S_D.SDEF_END$ = PINCRW( S_D.LB0$, -SIZEW( B$SDEF ) );
      586    17323                                                /**/
      587    17324    1   GETXOU:
      588    17325        /* Establish default schema access */
      589    17326    1        S_D.XOU_NAME = DD_XOU;
      590    17327    1        CALL DDS$PD_SRCH( DD_XOU$, TEMP$ ) ALTRET( GOTXOU );
      591    17328    2        DO WHILE ( '0'B );
      592    17329    2   GOTXOU:
      593    17330    2             CALL DDS$EQCS#( POFFW( TEMP$, S_D.EDEF$ ) / SIZEW( B$EDEF ) ) ALTRET(
             17330                      NOXOU );
      594    17331    2             CALL DDS$SET_Q2X ALTRET( NOXOU );
      595    17332    2           END;
      596    17333    1   NOXOU:
      597    17334        /* Establish default SYNTAX */
      598    17335    1        IF GOTHEAD
      599    17336    2        THEN DO;
      600    17337    2             TSIZE = BHEAD.START;
      601    17338    3             CALL DDS$ES_INQ( TSIZE ) WHENRETURN DO;
      602    17339    3                  S_D.SYNTAX_DEFAULT = S_D.LB0$ -> B$LBNTRY0.COMPILER;
      603    17340    3                END;
      604    17341    3               WHENALTRETURN DO;
      605    17342    3                  CHR2 = SUBSTR(BHEAD.LIBNAME.TXT,8,2);
      606    17343    3                  IF S_D.HEAD_LIB THEN
      607    17344    3                       CHR2 = SUBSTR(DCBADDR(S_D.LMDCB) -> F$DCB.NAME#.C,8,2);
      608    17345    3                  IF CHR2 ~= 'CO' AND SUBSTR(CHR2,0,1) = 'C' THEN
      609    17346    3                       S_D.SYNTAX_DEFAULT = %CID;
      610    17347    3                END;
PL6.E3A0      #001=DUI$1STIME File=DUI$1STIME.:E05TSI                            TUE 07/29/97 14:53 Page:18
      611    17348    2             S_D.SYNTAX = S_D.SYNTAX_DEFAULT;
      612    17349    2             IF S_D.FPRG AND
      613    17350    2                S_D.SYNTAX = %FPLID
      614    17351    2             THEN S_D.CURRENT_FPRG_CONTEXT$ -> FPRG$CONTEXT.INTERPRETIVE = '1'B;
      615    17352    2             IF S_D.SYNTAX = %COBOLID
      616    17353    2                OR S_D.SYNTAX = %PASCALID
      617    17354    2               OR S_D.SYNTAX = %FORTRANID
      618    17355    3             THEN DO;            /* Make the main porgram the ALT VAR schema */
      619    17356    3                  CALL DDS$SET_Q2X ALTRET( SYXDEF );
      620    17357    3                  S_D.XOU_NAME.SIZE = PINCRW(S_D.DNAME$, S_D.XSCH.NPOINTER) -> B$DNAME.
             17357                           COUNT;
      621    17358    3                  S_D.XOU_NAME.TEXT = PINCRW(S_D.DNAME$, S_D.XSCH.NPOINTER) -> B$DNAME.
             17358                           TEXT;
      622    17359                       /* Set up TRAP defaults - DIVIDE_CHECK and OVERFLOW */
      623    17360    3                  OPTARRY = '0'B;
      624    17361    3                  OPTARRY(5) = '1'B;   /* OVERFLOW */
      625    17362    3                  OPTARRY(6) = '1'B;   /* DIVIDE_CHECK */
      626    17363    3                  S_D.TRAP = OPTIONS;
      627    17364    3                  S_D.IGNORE = S_D.IGNORE & ~OPTIONS;
      628    17365    3                  S_D.KEEP = ~(S_D.TRAP | S_D.IGNORE);
      629    17366    3                END;
      630    17367    2             ELSE IF S_D.SYNTAX = %GMAPID AND NOT S_D.ANLZ
      631    17368    3                  THEN DO;
      632    17369    3                       S_D.S$TEP.MODE = C@INSTRUCTIONS; /*C@INSTRUCTIONS*/
      633    17370    3                       S_D.BYPASS = '0'B;
      634    17371    3                       S_D.BYPASS_SAVE = '0'B;
      635    17372    3                     END;
      636    17373    2             TEMP$ = DD_COMPNODE$(S_D.SYNTAX);
      637    17374    3             DO I = 0 TO SIZEW(DD_COMP_NODE_PTR$)-1;
      638    17375    3                  DD_COMP_NODE_PTR$(I) -> DD_NODE.SUBNDS$(0) =
      639    17376    3                    TEMP$ -> DD$COMP_NODE_PTR$(I);
      640    17377    3                END;
      641    17378    2           END;
      642    17379    1   SYXDEF: ;
      643    17380    1        S_D.ACCESS = '0'B;
      644    17381        /* Establish access to overlaid programs */
      645    17382    1        IF S_D.B$ROS$ = ADDR( NIL )
PL6.E3A0      #001=DUI$1STIME File=DUI$1STIME.:E05TSI                            TUE 07/29/97 14:53 Page:19
      646    17383    1        THEN GOTO RETN;
      647    17384    1              IF S_D.ANLZ AND S_D.ANLZ_FILE THEN
      648    17385    2                 DO;
      649    17386
      650    17387    2                  DCBPTR$ = PINCRW( S_D.B$ROS$, SIZEW( B$ROSEG ) );
      651    17388    2                  S_D.B$ROS$ -> B$ROSEG.DCBPTR$ = DCBPTR$;
      652    17389    3                  DO IX = 1 TO %M$1STDCB#;
      653    17390    3                       DCBPTR$ -> DCB$PTR$ = ADDR( NIL );
      654    17391    3                       DCBPTR$ = PINCRW( DCBPTR$, SIZEW( DCB$PTR$ ) );
      655    17392    3                     END;
      656    17393                                      /* Read read-only-segment from RU into memory */
      657    17394    2                  TOGET = ROSIZE * SIZEC( ROSIZE );
      658    17395    2                  IF S_D.NODESEG_USED$ < PINCRW(DCBPTR$, ROSIZE) THEN
      659    17396    3                    DO;
      660    17397    3                       NEEDSIZE =  ((POFFW(PINCRW(DCBPTR$, ROSIZE), S_D.NODESEG_USED$)
             17397                                +3)/4 )*4;
      661    17398    3                       CALL DDM$GETMEM( DD_ANLZSEG$, NEEDSIZE) ALTRET(NODEFS4);
      662    17399    3                       S_D.NODESEG_USED$ = PINCRW(S_D.NODESEG_USED$, NEEDSIZE);
      663    17400    3                    END;
      664    17401    2                  PAGE = 0;
      665    17402    2                  ARS = 0;
      666    17403    2                  TEMP$ = DCBPTR$;
      667    17404    3                  DO WHILE ( TOGET > 0 );
      668    17405    3                       CALL DDQ$READLM( %TYPROS, PAGE, S_D.NODE, TEMP$, TOGET, ARS )
             17405                                ALTRET( NODEFS4 );
      669    17406    3                       PAGE = PAGE + BHEAD.PRECSIZE;
      670    17407    3                       TOGET = TOGET - ARS;
      671    17408    3                       TEMP$ = PINCRC( TEMP$, ARS );
      672    17409    3                     END;
      673    17410                                           /* Setup pointers to user defined dcbs */
      674    17411    2                  TOGET = BHEAD.UDCBNUM;
      675    17412    2                  DCBRES = BHEAD.DCBRES;
      676    17413    2                  S_D.B$ROS$ -> B$ROSEG.NUMDCBS = %M$1STDCB# - 1 + TOGET + DCBRES;
      677    17414    2                  TEMP$ = DCBPTR$;
      678    17415    3                  DO IX = 1 TO TOGET;
      679    17416    3                       DCBPTR$ -> DCB$PTR$ = PINCRW( TEMP$, DCBPTR$ -> PTR$WORD.LH );
      680    17417    3                       DCBPTR$ = PINCRW( DCBPTR$, SIZEW( DCB$PTR$ ) );
PL6.E3A0      #001=DUI$1STIME File=DUI$1STIME.:E05TSI                            TUE 07/29/97 14:53 Page:20
      681    17418    3                     END;
      682    17419    3                  DO IX = 1 TO DCBRES;
      683    17420    3                       DCBPTR$ -> DCB$PTR$ = ADDR( NIL );
      684    17421    3                       DCBPTR$ = PINCRW( DCBPTR$, SIZEW( DCBPTR$ ) );
      685    17422    3                     END;
      686    17423                                                /* Setup tree table pointers */
      687    17424    2                  IF BHEAD.OVRL
      688    17425    3                    THEN DO;              /* program is overlayed */
      689    17426    3                       TEMP$ = PINCRW( TEMP$, BHEAD.TREEDISP );
      690    17427    3                       S_D.B$ROS$ -> B$ROSEG.TREE$ = TEMP$;
      691    17428    3                       TEMP1$ = PINCRW( TEMP$, SIZEW( B$TREEHDR ) );
      692    17429    3                       TEMP1$ -> B$NODE.FLGS.NOW_IN( 0 ) = '1'B; /* Root as in */
      693    17430    3                       S_D.PADDR = TEMP1$ -> B$NODE.PADDR( 0 );
      694    17431    4                       DO IX = 0 TO TEMP$ -> B$TREEHDR.NODES - 1;
      695    17432    4                            TEMP1$ -> B$NODE.NAME$( 0 ) = PINCRW( TEMP$, TEMP1$ ->
             17432                                     PTR$WORD.LH );
      696    17433    4                            TEMP1$ = PINCRW( TEMP1$, SIZEW( B$NODE ) );
      697    17434    4                          END;
      698    17435    3                    END;
      699    17436    3                    ELSE DO;              /* program isn't overlayed */
      700    17437    3                       S_D.B$ROS$ -> B$ROSEG.TREE$ = ADDR( NIL );
      701    17438    3                       S_D.PADDR = BHEAD.START;
      702    17439    3                    END;
      703    17440    2                END;
      704    17441    1        TEMP$ = S_D.B$ROS$ -> B$ROSEG.TREE$;
      705    17442    1        IF GOTHEAD AND BHEAD.OVRL AND
      706    17443    1           NOT (S_D.ANLZ AND NOT(S_D.ANLZ_FILE)) AND
      707    17444    1           NOT S_D.ANLZ_KLUDGE
      708    17445    2        THEN DO;
      709    17446    2             S_D.B$TREEHDR$ = TEMP$;
      710    17447    2             TSIZE = TEMP$ -> B$TREEHDR.NODES;
      711    17448    2             TEMP$ = PINCRW( TEMP$, SIZEW( B$TREEHDR ) );
      712    17449    2             S_D.B$TREE$ = TEMP$;
      713    17450    2             S_D.NODE#M1 = TSIZE - 1;
      714    17451    2             ARS = 2 * (TSIZE+1) * SIZEW(DU$TREE) + TSIZE * SIZEW(DU$NODE);
      715    17452    2             NEED = POFFW( S_D.NODESEG_USED$, S_D.NODESEG$ ) - ARS;
      716    17453    2             IF NEED < 0
PL6.E3A0      #001=DUI$1STIME File=DUI$1STIME.:E05TSI                            TUE 07/29/97 14:53 Page:21
      717    17454    3             THEN DO;
      718    17455    3                  ARS = ( ( -NEED + @PSIZ - 1 ) / @PSIZ ) * @PSIZ;
      719    17456    3                  CALL DDM$GETMEM( S_D.NODESEG$, ARS ) ALTRET( NOOV1 );
      720    17457    3                  S_D.NODESEG_USED$ = PINCRW( S_D.NODESEG_USED$, ARS );
      721    17458    3                END;
      722    17459    2             S_D.OVERLAID = '1'B;
      723    17460    2             S_D.MTREE$ = PINCRW( S_D.NODESEG$, SIZEW( DU$NODE ) * TSIZE );
      724    17461    2             S_D.UTREE$ = PINCRW( S_D.MTREE$, SIZEW( DU$TREE ) * (TSIZE+1) );
      725    17462    2             S_D.NODESEG_NEXT$ = PINCRW( S_D.UTREE$, SIZEW( DU$TREE ) * (TSIZE+1) );
      726    17463    2             NODESEG$ = S_D.NODESEG$;
      727    17464        /* Init USE NODE tree */
      728    17465    2             TEMP$ = S_D.UTREE$;
      729    17466    3             DO I = 0 TO TSIZE;
      730    17467    3                  TEMP$ -> DU$TREE.NEXT# = -1;
      731    17468    3                  TEMP$ -> DU$TREE.NOW_IN = '0'B;
      732    17469    3                  TEMP$ = PINCRW( TEMP$, SIZEW( DU$TREE ) );
      733    17470    3                END;
      734    17471        /* Sort the tree backwards by load address */
      735    17472    3             DO I = 0 TO S_D.NODE#M1;
      736    17473    3                  DU$NODE.INDX#( I ) = I;  /* Init sort keys */
      737    17474    3                  DU$NODE.GOTDEFS( I ) = '0'B;
      738    17475    3                  DU$NODE.EDEF$( I ) = ADDR( NIL );
      739    17476    3                  DU$NODE.EDEF_END$( I ) = ADDR( NIL );
      740    17477    3                  DU$NODE.SDEF$( I ) = ADDR( NIL );
      741    17478    3                  DU$NODE.SDEF_END$( I ) = ADDR( NIL );
      742    17479    3                  DU$NODE.DNAME$( I ) = ADDR( NIL );
      743    17480    3                END;
      744    17481    2             K = S_D.NODE#M1;
      745    17482    3             DO WHILE ( K > 0 );
      746    17483    3                  J = K - 1;
      747    17484    3                  K = 0;
      748    17485    4                  DO I = 0 TO J;
      749    17486    4                       T1 = DU$NODE.INDX#( I );
      750    17487    4                       T2 = DU$NODE.INDX#( I+1 );
      751    17488    4                       IF S_D.B$TREE$ -> B$NODE.PADDR( T1 ) < S_D.B$TREE$ -> B$NODE.
             17488                                PADDR( T2 )
      752    17489    5                       THEN DO;
PL6.E3A0      #001=DUI$1STIME File=DUI$1STIME.:E05TSI                            TUE 07/29/97 14:53 Page:22
      753    17490    5                            DU$NODE.INDX#( I ) = T2;
      754    17491    5                            DU$NODE.INDX#( I+1 ) = T1;
      755    17492    5                            K = I;
      756    17493    5                          END;
      757    17494    4                     END;
      758    17495    3                END;
      759    17496    2             IF DU$NODE.INDX#( S_D.NODE#M1 ) ~= 0
      760    17497    3             THEN DO;
      761    17498    3                  S_D.ERROR = E@DELBUG;    /* E@DELBUG - Root should be last */
      762    17499    3                  CALL DDE$ERROR;
      763    17500    3                END;
      764    17501    3             ELSE DO;
      765    17502    3                  DU$NODE.EDEF$( 0 ) = S_D.EDEF$;
      766    17503    3                  DU$NODE.EDEF_END$( 0 ) = S_D.EDEF_END$;
      767    17504    3                  DU$NODE.SDEF$( 0 ) = S_D.SDEF$;
      768    17505    3                  DU$NODE.SDEF_END$( 0 ) = S_D.SDEF_END$;
      769    17506    3                  DU$NODE.DNAME$( 0 ) = S_D.DNAME$;
      770    17507    3                  DU$NODE.GOTDEFS( 0 ) = '1'B;
      771    17508    3                  CALL DDS$EMTREE;         /* Init in memory tree */
      772    17509    3                  S_D.TREE$ = S_D.MTREE$;  /* Use current */
      773    17510    3                END;
      774    17511    3             DO WHILE ( '0'B );
      775    17512    3   NOOV1:
      776    17513    3                  S_D.ERROR = E@OVTABLES;  /* E@OVTABLES */
      777    17514    3                  CALL DDE$ERROR;
      778    17515    3                END;
      779    17516    2           END;
      780    17517                                                /**/
      781    17518    1   RETN:
      782    17519    1        RETURN;
      783    17520                                                /**/
      784    17521    1   ARET: ALTRETURN;
      785    17522    1   NODCB: ;
      786    17523    1   NOPNME: ;
      787    17524    1        CALL DUE$ERRMSG;
      788    17525    1        CALL DUQ$WRERRLOGDO;
      789    17526    1        S_D.SNAP_TAKEN = '1'B;
PL6.E3A0      #001=DUI$1STIME File=DUI$1STIME.:E05TSI                            TUE 07/29/97 14:53 Page:23
      790    17527    1        CALL M$EXIT;
      791    17528    1   NOPARS: ;
      792    17529    1        FPT$WRITE = FPT_WRITE;
      793    17530    1        FPT$WRITE.V_ = VECTOR(FPT$WRITE.V);
      794    17531    1        FPT$WRITE.V.DCB# = D_M$DO#;
      795    17532    1        CALL M$WRITE (FPT$WRITE) ALTRET (OKAY);
      796    17533    1   OKAY: ;
      797    17534    1        IF (NOT DCBADDR(D_M$DO#)->F$DCB.DDEV.UCOUT#) AND (B$JIT.MODE = %M_INT#)
      798    17535    2        THEN DO;
      799    17536    2             FPT$WRITE.V.DCB# = DCBNUM(M$UC);
      800    17537    2             CALL M$WRITE (FPT$WRITE) ALTRET (GIVE_UP);
      801    17538    2           END;
      802    17539    1   GIVE_UP: ;
      803    17540    1        ECC = B$EXCFR.ECC;
      804    17541    1        IF ECC = %ECC_ALIB#
      805    17542    2        THEN DO;
      806    17543    2             FPT$DRTN.V.DLIB# = '1'B;
      807    17544    2             FPT$DRTN.V.ALTRTN# = '1'B;
      808    17545    2             CALL M$DRTN (FPT$DRTN) ALTRET(XXX);
      809    17546    2           END;
      810    17547    1   XXX: ;
      811    17548    1        S_D.SNAP_TAKEN = '1'B;
      812    17549    1        CALL M$EXIT;
      813    17550    1   NODEFS1:
      814    17551    1        S_D.ERROR = E@NODEFS1;             /* E@NODEFS1 */
      815    17552    1        CALL DDE$ERROR;
      816    17553    1        GOTO GETXOU;
      817    17554    1   NODEFS2:
      818    17555    1        S_D.ERROR = E@NODEFS2;             /* E@NODEFS2 */
      819    17556    1        CALL DDE$ERROR;
      820    17557    1        GOTO GETXOU;
      821    17558    1   NODEFS3:
      822    17559    1        S_D.ERROR = E@NODEFS3;             /* E@NODEFS3 */
      823    17560    1        CALL DDE$ERROR;
      824    17561    1        GOTO GETXOU;
      825    17562    1   NOROOMATS:
      826    17563    1        S_D.ERROR = E@NOROOMATS;           /* E@NOROOMATS */
PL6.E3A0      #001=DUI$1STIME File=DUI$1STIME.:E05TSI                            TUE 07/29/97 14:53 Page:24
      827    17564    1        CALL DDE$ERROR;
      828    17565    1        GOTO XXX;
      829    17566                                                /**/
      830    17567    1   END DUI$1STIME;
      831    17568        %EOD;

PL6.E3A0      #001=DUI$1STIME File=DUI$1STIME.:E05TSI                            TUE 07/29/97 14:53 Page:25
--  Include file information  --

   XU_SUBS_C.:E05TOU  is referenced.
   M_INFO_C.:E05TOU  is referenced.
   DD_ERR_C.:E05TOU  is referenced.
   DD_PSUBS_C.:E05TOU  is referenced.
   DD_SUBS_C.:E05TOU  is referenced.
   B_STRINGS_C.:E05TOU  is referenced.
   DD_REPORT_R.:E05TOU  cannot be made into a system file and is referenced.
   DD_KNODES_D.:E05TOU  is referenced.
   XU_MACRO_C.:E05TOU  is referenced.
   B$ROSEG.:E05TOU  cannot be made into a system file and is referenced.
   DD_SD_M.:E05TOU  is referenced.
   XUH_MACRO_C.:E05TOU  is referenced.
   DD$BASED.:E05TOU  is referenced.
   B$JIT.:E05TOU  cannot be made into a system file and is referenced.
   DD$DA.:E05TOU  cannot be made into a system file and is referenced.
   IR_DATA_M.:E05TOU  is referenced.
   DD_SRTN_C.:E05TOU  is referenced.
   DD_ACODE_C.:E05TOU  is referenced.
   DD_ICODE_C.:E05TOU  is referenced.
   DD$DITEM.:E05TOU  cannot be made into a system file and is referenced.
   NK_VFC_C.:E05TOU  is referenced.
   B_SEGIDS_C.:E05TOU  is referenced.
   B$OBJECT_C.:E05TOU  is referenced.
   CP_6_SUBS.:E05TOU  is referenced.
   CP_6.:E05TOU  cannot be made into a system file and is referenced.
   B$JIT_C.:E05TOU  was found in the system file and is referenced.
   CP_6_C.:E05TOU  was found in the system file and is referenced.
      No diagnostics issued in procedure DUI$1STIME.

   Procedure DUI$1STIME requires 1444 words for executable code.
   Procedure DUI$1STIME requires 276 words of local(AUTO) storage.

PL6.E3A0      #001=DUI$1STIME File=DUI$1STIME.:E05TSI                            TUE 07/29/97 14:53 Page:26

 Object Unit name= DUI$1STIME                                 File name= DUI$1STIME.:E05TOU
 UTS= JUL 29 '97 14:53:00.44 TUE                              Compiler= PL-6/E31         Sev=      00
 SharedLib= :SHARED_SYSTEM                                    Alt SharedLib=


    ****  Control sections  ****

 Sect   Type Bound  Init  Size OctSiz  Section name(segment info)
    0   DCB   even  none     0      0  M$UC
    1  RoData even  UTS    272    420  DUI$1STIME
    2   Proc  even  none  1444   2644  DUI$1STIME
    3  RoData even  none    41     51  DUI$1STIME

    ****  Entry defs  ****

                              Check   Calling
                             calling  sequence
  Sect OctLoc Primary Altret sequence   type   Parms  Name
     2      0   yes    yes     yes      Std        0  DUI$1STIME
     2    774          yes     yes      Std        0  DUI$RU_ACCESS

  ****  Data defs  ****

 Sect OctLoc  Name                           Sect OctLoc  Name
    1     14  DD_PROMPT                          1    206  FPT_EOM
    1    402  D_PARSIZE                          1    403  D_HBUSIZE
    1    404  D_M$DELT#                          1    405  D_M$LM#
    1    406  D_M$DO#                            1    407  DD_XOU
    1    412  DD_XOU$
PL6.E3A0      #001=DUI$1STIME File=DUI$1STIME.:E05TSI                            TUE 07/29/97 14:53 Page:27

  ****  Entry refs  ****

         Check        Calling
        calling       sequence
Altret sequence SRef   type   Args  Name
 yes     yes           Std       3 DDM$GETMEM
         yes           Std       0 DUE$ERRMSG
 yes     yes           Std       1 DUA$READ
 yes     yes           Std       7 DDQ$READLM
 yes     yes           Std       2 DDS$PD_SRCH
 yes     yes           Std       0 DDS$EMTREE
         yes           Std       1 DUQ$WRERRLOGDO
         yes           Std       0 DUI$INIT_HOST
         yes           Std       0 DUX$XCON1_REL
 yes     yes           Std       0 DDS$SET_Q2X
 yes     yes           Std       1 DDS$ES_INQ
 yes     yes           Std       1 DDS$EQCS#
         yes           Std       0 DDE$ERROR
                       Std       0 B_CONSPOOL_D
                       nStd      0 X66_AUTO_0
                       nStd      0 X66_ARET
                       nStd      0 X66_AALT

  ****  Data refs  ****

  Flags:  r = read only, s = secondary
Flgs Name                             Flgs Name                             Flgs Name
     M$UC                                  DD_ANLZSEG$                      r    S_D_SEG$
     UIS$                                  UJIT$                                 B$JIT$
     B$TCB$                                B$ROS$                                DD_RUMNODE$
     DD_VARCOM$                            PARSE$                           r    DD_COMPNODE$
r    DD_COMP_NODE_PTR$                     FPT_OPEN_ME                           FPT_PROMPT
r    DD_REPORT_FLAGS                       DD_DEBUG                              B_VECTNIL
PL6.E3A0      #001=DUI$1STIME File=DUI$1STIME.:E05TSI                            TUE 07/29/97 14:53 Page:28

  ****  Segment refs  ****

  Flags:  r = read only, s = secondary
Flgs Name                             Flgs Name                             Flgs Name
     S_D                                   NULLSID                               ISSID
     ROSID
PL6.E3A0      #001=DUI$1STIME File=DUI$1STIME.:E05TSI                            TUE 07/29/97 14:53 Page:29


        1        1        /*T***********************************************************/
        2        2        /*T*                                                         */
        3        3        /*T* Copyright (c) Bull HN Information Systems Inc., 1997    */
        4        4        /*T*                                                         */
        5        5        /*T***********************************************************/
        6        6        /*P*
        7        7             NAME: FIRST_TIME Module
        8        8             PURPOSE:
        9        9                   To initialize everything upon the initial entry to DELTA.
       10       10             DESCRIPTION:
       11       11                   The DDS Allocate Module is called to get memory for the
       12       12                   context structure, the program DEF records, and a work buffer
       13       13                   for X$PARSE.  Initialize the context structure.  Open the M$DO
       14       14                   DCB.  Get the M$DELTA DCB and set up the defaults for it.  Set
       15       15                   up the prompt and activation character set.  Establish DELTA's
       16       16                   special location, if any.  Read the HEAD record and make sure
       17       17                   it is the correct FLAVOR run unit.  Read the program DEF records
       18       18                   into memory and establish the default schema.  Establish the
       19       19                   default syntax, @ and # patch space, if any, and access to
       20       20                   overlaid program, if necessary.
       21       21        */
       22       22        /*D* NAME: DUI$1STIME
       23       23             ENTRY: DUI$1STIME
       24       24             CALL: CALL DUI$1STIME;
       25       25             INTERFACE: M$GDS
       26       26                        M$GETDCB
       27       27                        M$XXX
       28       28                        DDM$GETMEM
       29       29                        DDQ$READLM
       30       30             ENVIRONMENT: User Delta.
       31       31             INPUT: None.
       32       32             OUTPUT: S_D initialized. M$DELT# Dcb set up.
       33       33             SCRATCH: Local AUTO only.
       34       34             DESCRIPTION: Gets Delta's reserved DCB, sets 'ME' as resource
       35       35                          type, then opens it with assigns merged. Gets memory
       36       36                          for "static data" area and X$PARSE work buffer.
PL6.E3A0      #001=DUI$1STIME File=DUI$1STIME.:E05TSI                            TUE 07/29/97 14:53 Page:30
       37       37                          Reads Run Unit HEAD record. Computes & obtains memory for
       38       38                          ENTDEF, SYMDEF, & DEFNAMES records, and reads them into
       39       39                          memory. ABORTs if "static data" cannot be obtained. Remembers
       40       40                          if memory for program DEFs cannot be obtained. RETURNs
       41       41                          when done. */
       42       42                                                /**/
       43       43        DUI$1STIME: PROC ALTRET;

     43  2 000000   000000 700200 xent  DUI$1STIME   TSX0  ! X66_AUTO_0
         2 000001   000424 000000                    ZERO    276,0

       44       44                                                /**/
       45       45        %INCLUDE CP_6;
       46      126        %INCLUDE CP_6_SUBS;
       47      666        %INCLUDE B$OBJECT_C;
       48     4096        %INCLUDE B_SEGIDS_C;
       49     4635        %INCLUDE NK_VFC_C;
       50     4709        %B$RECORDSUBS;
       51     4737        %RU_FLAVORS;
       52     4743        %COMPILERIDSUBS;
       53     4759        %SUB @PAGE= 0 /* @PAGE */;
       54     4760        %SUB @PARS= 2048 /* @PARS */;
       55     4761        %SUB @HBUS= 768 /* @HBUS */;
       56     4762        %SUB @PSIZ= 1024 /* @PSIZ */;
       57     4763        %INCLUDE DD$DITEM;
       12+    4866             %LIST;
       13+    4867    1        DCL SDD$ PTR;
       14+    4868    1        DCL ZITEM$ PTR;
       15+    4869    1        DCL SDD_L6$ PTR;
       16+    4870    1        DCL ZITEM_L6$ PTR;
       58     5444        %INCLUDE IR_DATA_M;
       59     5608        %INCLUDE DD$DA;
       60     5689                                                /**/
       61     5690    1   DCL DNAME$ PTR;
       62     5691    1   DCL EDEF$ PTR;
       63     5692    1   DCL SDEF$ PTR;
       64     5693    1   DCL TEMP$ PTR;
PL6.E3A0      #001=DUI$1STIME File=DUI$1STIME.:E05TSI                            TUE 07/29/97 14:53 Page:31
       65     5694    1   DCL ARS SBIN;
       66     5695    1   DCL TSIZE UBIN;
       67     5696    1   DCL I UBIN;
       68     5697    1   DCL J UBIN;
       69     5698    1   DCL K UBIN;
       70     5699    1   DCL T1 UBIN;
       71     5700    1   DCL T2 UBIN;
       72     5701    1   DCL ECC UBIN;
       73     5702    1   DCL SUBC UBIN;
       74     5703    1   DCL NRECSIZE UBIN;
       75     5704    1   DCL EPRECSIZE UBIN;
       76     5705    1   DCL EDRECSIZE UBIN;
       77     5706    1   DCL UPLL UBIN;
       78     5707    1   DCL 1 UPLLP REDEF UPLL,
       79     5708    1         2 PLL UBIN(26) UNAL,
       80     5709    1         2 WIRD UBIN(10) UNAL;
       81     5710    1   DCL WHERE$ PTR;
       82     5711    1   DCL 1 USLPTR,
       83     5712    1         2 ADR UBIN(18) UNAL,
       84     5713    1         2 * UBIN(6) UNAL,
       85     5714    1         2 SEGID UBIN(12) UNAL;
       86     5715    1   DCL GOTHEAD BIT(1) ALIGNED;
       87     5716    1   DCL CHR2 CHAR(2);
       88     5717    1   DCL DCBPTR$  PTR;
       89     5718    1   DCL ROSIZE   UBIN;
       90     5719    1   DCL TEMP1$   PTR;
       91     5720    1   DCL PAGE     UBIN;
       92     5721    1   DCL INITED_TEMP BIT(1) ALIGNED;
       93     5722    1   DCL NEED SBIN;
       94     5723    1   DCL NODESEG$ PTR;
       95     5724    1   DCL TOGET  SBIN;
       96     5725    1   DCL NEEDSIZE SBIN;
       97     5726    1   DCL DCB$PTR$  PTR BASED ALIGNED;
       98     5727    1   DCL IX  UBIN;
       99     5728    1   DCL DCBRES  UBIN;
      100     5729    1   DCL 1 PTR$WORD BASED ALIGNED,
      101     5730    1         2 LH  UBIN HALF UNAL,
PL6.E3A0      #001=DUI$1STIME File=DUI$1STIME.:E05TSI                            TUE 07/29/97 14:53 Page:32
      102     5731    1         2 *   UBIN HALF UNAL;
      103     5732    1   DCL OPENDOOK BIT(1) ALIGNED;
      104     5733    1   DCL PROMPTSIZE UBIN;
      105     5734    1   DCL OPTARRY(0:35) BIT(1) UNAL;      /* Options bits */
      106     5735    1   DCL OPTIONS REDEF OPTARRY BIT(36);  /* Options word */
      107     5736    1   DCL DSIZE UBIN;
      108     5737    1   DCL 1 UREGS DALIGNED,
      109     5738    1         2 *(0:6) UBIN;                    /* 7 word block for regs in FPT$DRTN  */
      110     5739        %B$HEAD (NAME=BHEAD,
      111     5740                 STCLASS=);
      112     5940        %FPT_PROMPT (FPTN=FPTPROMPT,
      113     5941                     STCLASS=);
      114     5969        %FPT_GETDCB (FPTN=FPTGETDCB,
      115     5970                     STCLASS=);
      116     5985        %FPT_OPEN (FPTN=FPTOPEN,
      117     5986                   STCLASS=);
      118     6095        %FPT_MONINFO (STCLASS=CONSTANT);
      119     6110        %FPT_MONINFO (FPTN=FPT$MONINFO, STCLASS=);
      120     6125        /* Based */
      121     6126    1   DCL 1 PROM$PT BASED UNAL,
      122     6127    1         2 * CHAR( PROMPTSIZE );
      123     6128    1   DCL BITS BIT(36) BASED ALIGNED;
      124     6129        %B$EDEF;
      125     6199        %B$SDEF;
      126     6253        %B$DNAME;
      127     6272        %B$LBNTRY0;
      128     6308        %INCLUDE B$JIT;
      129     6598        %F$DCB;
      130     6655        %INCLUDE DD$BASED;
      131     7958        %HIST_BUF;
      132     7967        %FPRG$CONTEXT;
      133     8030        %INCLUDE XUH_MACRO_C;
      134     8114        %INCLUDE DD_SD_M;
      135     9450        %S_D(STCLASS="AREAREF");
      136    10768        %S_D_PTRS;
      137    10805        %B$ALT;
      138    10813        %B$TCB;
PL6.E3A0      #001=DUI$1STIME File=DUI$1STIME.:E05TSI                            TUE 07/29/97 14:53 Page:33
      139    10816        %SUB_ECCDELTA;
      140    10853        %B$EXCFR;
      141    10871        %SUB B$EXCFR=B$TCB$->B$TCB.STK$->B$EXCFR;
      142    10872        %INCLUDE B$ROSEG;
      143    10935        %B$TREE_TABLE (HDR_NAME=B$TREEHDR,NODE_NAME="B$NODE(0:0)");
      144    10993        %DU$TREE;
      145    10999        %DU$NODE (NAME="DU$NODE(0:0)",STCLASS="BASED(NODESEG$)");
      146    11009    1   DCL DD_PROMPT CHAR(0) CONSTANT SYMDEF INIT( '>' );
      147    11010    1   DCL UIS$ PTR SYMREF;
      148    11011    1   DCL UJIT$ PTR SYMREF;
      149    11012    1   DCL B$JIT$ PTR SYMREF;
      150    11013    1   DCL B$TCB$ PTR SYMREF;
      151    11014    1   DCL B$ROS$ PTR SYMREF;
      152    11015    1   DCL DD_RUMNODE$ PTR SYMREF;
      153    11016    1   DCL DD_VARCOM$ PTR SYMREF;
      154    11017    1   DCL PARSE$ PTR SYMREF;
      155    11018        /* Symrefs for SYNTAX command */
      156    11019        %INCLUDE XU_MACRO_C;
      157    14125        %INCLUDE DD_KNODES_D;
      158    14341        %NODE_DEFS;
      159    14730        %XUH_PARAM (NAME=XUH_PARAM,
      160    14731                    STCLASS=CONSTANT,
      161    14732                    PROCACCT=DD_DELTA_ACCOUNT,
      162    14733                    PROCNAME=DD_DELTA_NAME);
      163    14794        %VLP_NAME (FPTN=DD_DELTA_NAME,
      164    14795                   STCLASS=CONSTANT,
      165    14796                   NAME='DELTA');
      166    14823        %VLP_ACCT (FPTN=DD_DELTA_ACCOUNT,
      167    14824                   STCLASS=CONSTANT,
      168    14825                   ACCT=':SYS');
      169    14838        %FPT_OPEN (FPTN=FPT_OPEN_DO,
      170    14839                   STCLASS=CONSTANT,
      171    14840                   FUN=CREATE,
      172    14841                   ORG=UR);
      173    14950        %FPT_EOM (FPTN=FPT_EOM,
      174    14951                  STCLASS=CONSTANT SYMDEF,
      175    14952                  EOMTABLE=VLP_EOMTABLE_DELTA);
PL6.E3A0      #001=DUI$1STIME File=DUI$1STIME.:E05TSI                            TUE 07/29/97 14:53 Page:34
      176    14982        %FPT_GETDCB (FPTN=FPT_GETDCB,
      177    14983                     STCLASS=CONSTANT,
      178    14984                     DCBNAME=VLP_NAME_M$DELTA,
      179    14985                     MERGE=YES);
      180    15000        %FPT_OPEN (FPTN=FPT_OPEN_M$DELTA,
      181    15001                   STCLASS=CONSTANT,
      182    15002                   XONLY=YES,
      183    15003                   FUN=IN);
      184    15112        %VLP_EOMTABLE (FPTN=VLP_EOMTABLE_DELTA,
      185    15113                       STCLASS=CONSTANT,
      186    15114                       VALUES=DELTA);
      187    15133        %VLP_NAME (FPTN=VLP_NAME_M$DELTA,
      188    15134                   STCLASS=CONSTANT,
      189    15135                   NAME='M$DELTA');
      190    15162        %VLR_SITEINFO (FPTN=VLR$SITEINFO,STCLASS=);
      191    15181        %FPT_OPEN (FPTN=FPT_OPEN_ME,
      192    15182                   STCLASS=SYMREF);
      193    15291        %FPT_PROMPT (FPTN=FPT_PROMPT,
      194    15292                     STCLASS=SYMREF);
      195    15320    1   DCL 1 MESSAGE_BUF CONSTANT,
      196    15321    1         2 VFC CHAR(1) INIT(%VFC_TRANSITION1),
      197    15322    1         2 TEXT CHAR(0) INIT('Unable to obtain minimum memory to run DELTA.');
      198    15323        %FPT_WRITE(FPTN=FPT_WRITE,
      199    15324                   STCLASS=CONSTANT,
      200    15325                   BUF=MESSAGE_BUF,
      201    15326                   VFC=YES);
      202    15357        %FPT_WRITE(FPTN=FPT$WRITE,
      203    15358                   STCLASS=AUTO);
      204    15389        %FPT_DRTN (STCLASS=CONSTANT);
      205    15413        %FPT_DRTN (FPTN=FPT$DRTN, STCLASS=AUTO);
      206    15437        %INCLUDE DD_REPORT_R;
      207    15446    1   DCL D_PARSIZE UBIN CONSTANT SYMDEF INIT( @PARS );
      208    15447    1   DCL DD_DEBUG UBIN SYMREF;
      209    15448    1   DCL D_HBUSIZE UBIN CONSTANT SYMDEF INIT( @HBUS );
      210    15449    1   DCL D_M$DELT# UBIN CONSTANT SYMDEF INIT( %M$DELT# );
      211    15450    1   DCL D_M$LM# UBIN CONSTANT SYMDEF INIT( %M$LM# );
      212    15451    1   DCL D_M$DO# UBIN CONSTANT SYMDEF INIT( %M$DO# );
PL6.E3A0      #001=DUI$1STIME File=DUI$1STIME.:E05TSI                            TUE 07/29/97 14:53 Page:35
      213    15452    1   DCL 1 DD_XOU CONSTANT SYMDEF,
      214    15453    1         2 SIZE UBIN BYTE UNAL INIT( LENGTHC( DD_XOU.TEXT ) ),
      215    15454    1         2 TEXT CHAR(0) UNAL INIT( 'B_DELTA_D' );
      216    15455    1   DCL DD_XOU$ PTR CONSTANT SYMDEF INIT( ADDR( DD_XOU ) );
      217    15456        /* Entrys */
      218    15457    1   DCL DDE$ERROR ENTRY(0);
      219    15458    1   DCL DDI$GET_PATCH_SPACE ENTRY;
      220    15459    1   DCL DDM$GETMEM ENTRY(3) ALTRET;
      221    15460    1   DCL DDM$GETMEM1 ENTRY(3) ALTRET;
      222    15461    1   DCL DDQ$READLM ENTRY(7) ALTRET;
      223    15462    1   DCL DDS$EMTREE ENTRY(0) ALTRET;
      224    15463    1   DCL DDS$EQCS# ENTRY(1) ALTRET;
      225    15464    1   DCL DDS$ES_INQ ENTRY(1) ALTRET;
      226    15465    1   DCL DDS$PD_SRCH ENTRY(2) ALTRET;
      227    15466    1   DCL DDS$SET_Q2X ENTRY(0) ALTRET;
      228    15467    1   DCL DUA$READ ENTRY(1) ALTRET;
      229    15468    1   DCL DUE$ERRMSG ENTRY(0);
      230    15469    1   DCL DUI$INIT_HOST ENTRY;
      231    15470    1   DCL DUQ$WRERRLOGDO ENTRY(1);
      232    15471    1   DCL DUX$XCON1_REL ENTRY(0);
      233    15472        /* Misc */
      234    15473        %INCLUDE B_STRINGS_C;
      235    15602        %INCLUDE DD_SUBS_C;
      236    15873        %INCLUDE DD_PSUBS_C;
      237    16348        %INCLUDE DD_ERR_C;
      238    16745        %INCLUDE M_INFO_C;
      239    16885        %INCLUDE XU_SUBS_C;
      240    16977
      241    16978                                                /**/
      242    16979    1        FPT$DRTN=FPT_DRTN;                 /* Initialize our return fpt          */

  16979  2 000002   000100 100400                    MLR     fill='000'O
         2 000003   000364 000070 1                  ADSC9   FPT_DRTN                 cn=0,n=56
         2 000004   200376 000070                    ADSC9   FPT$DRTN,,AUTO           cn=0,n=56

      243    16980    1        FPT$DRTN.V_ = VECTOR(FPT$DRTN.V);

PL6.E3A0      #001=DUI$1STIME File=DUI$1STIME.:E05TSI                            TUE 07/29/97 14:53 Page:36
  16980  2 000005   000000 235000 3                  LDA     0
         2 000006   200414 452500                    STP2    FPT$DRTN+14,,AUTO
         2 000007   200414 236100                    LDQ     FPT$DRTN+14,,AUTO
         2 000010   000410 036003                    ADLQ    264,DU
         2 000011   200402 757100                    STAQ    FPT$DRTN+4,,AUTO

      244    16981    1        FPT$DRTN.REGS_ = VECTOR(UREGS);

  16981  2 000012   000001 235000 3                  LDA     1
         2 000013   200414 452500                    STP2    FPT$DRTN+14,,AUTO
         2 000014   200414 236100                    LDQ     FPT$DRTN+14,,AUTO
         2 000015   000054 036003                    ADLQ    44,DU
         2 000016   200376 757100                    STAQ    FPT$DRTN,,AUTO

      245    16982        /* Open D_M$DO# Dcb */
      246    16983    1        OPENDOOK = '1'B;

  16983  2 000017   400000 236003                    LDQ     -131072,DU
         2 000020   200047 756100                    STQ     OPENDOOK,,AUTO

      247    16984    1        IF NOT DCBADDR( D_M$DO# ) -> F$DCB.FCD#

  16984  2 000021   000002 470400 3                  LDP0    2
         2 000022   000000 471500                    LDP1    0,,PR0
         2 000023   000406 720000 1                  LXL0    D_M$DO#
         2 000024   100000 473510                    LDP3    0,X0,PR1
         2 000025   300031 236100                    LDQ     25,,PR3
         2 000026   020000 316007                    CANQ    8192,DL
         2 000027   000065 601000 2                  TNZ     s:16999

      248    16985    2        THEN DO;

      249    16986    2             FPTOPEN = FPT_OPEN_DO;

  16986  2 000030   000100 100400                    MLR     fill='000'O
         2 000031   000114 000350 1                  ADSC9   FPT_OPEN_DO              cn=0,n=232
         2 000032   200156 000350                    ADSC9   FPTOPEN,,AUTO            cn=0,n=232
PL6.E3A0      #001=DUI$1STIME File=DUI$1STIME.:E05TSI                            TUE 07/29/97 14:53 Page:37

      250    16987    2             FPTOPEN.V_ = VECTOR( FPTOPEN.V );

  16987  2 000033   000003 235000 3                  LDA     3
         2 000034   200414 452500                    STP2    FPT$DRTN+14,,AUTO
         2 000035   200414 236100                    LDQ     FPT$DRTN+14,,AUTO
         2 000036   000222 036003                    ADLQ    146,DU
         2 000037   200156 757100                    STAQ    FPTOPEN,,AUTO

      251    16988    2             FPTOPEN.V.DCB# = D_M$DO#;

  16988  2 000040   200222 740100                    STX0    FPTOPEN+36,,AUTO

      252    16989    2             CALL M$OPEN( FPTOPEN ) ALTRET( NOPNDO );

  16989  2 000041   200156 630500                    EPPR0   FPTOPEN,,AUTO
         2 000042   450000 713400                    CLIMB   alt,open
         2 000043   410400 401760                    pmme    nvectors=18
         2 000044   000046 702000 2                  TSX2    NOPNDO

      253    16990    3             DO WHILE ( '0'B );

  16990  2 000045   000065 710000 2                  TRA     s:16999

      254    16991    3   NOPNDO:        OPENDOOK = '0'B;

  16991  2 000046   200047 450100       NOPNDO       STZ     OPENDOOK,,AUTO

      255    16992    3                  FPTOPEN = FPT_OPEN_ME;

  16992  2 000047   000100 100400                    MLR     fill='000'O
         2 000050   000000 000350 xsym               ADSC9   FPT_OPEN_ME              cn=0,n=232
         2 000051   200156 000350                    ADSC9   FPTOPEN,,AUTO            cn=0,n=232

      256    16993    3                  FPTOPEN.V_ = VECTOR( FPTOPEN.V );

  16993  2 000052   000003 235000 3                  LDA     3
PL6.E3A0      #001=DUI$1STIME File=DUI$1STIME.:E05TSI                            TUE 07/29/97 14:53 Page:38
         2 000053   200414 452500                    STP2    FPT$DRTN+14,,AUTO
         2 000054   200414 236100                    LDQ     FPT$DRTN+14,,AUTO
         2 000055   000222 036003                    ADLQ    146,DU
         2 000056   200156 757100                    STAQ    FPTOPEN,,AUTO

      257    16994    3                  FPTOPEN.V.DCB# = D_M$DO#;

  16994  2 000057   000406 720000 1                  LXL0    D_M$DO#
         2 000060   200222 740100                    STX0    FPTOPEN+36,,AUTO

      258    16995    3                  CALL M$OPEN( FPTOPEN ) ALTRET( NOPNME );

  16995  2 000061   200156 630500                    EPPR0   FPTOPEN,,AUTO
         2 000062   450000 713400                    CLIMB   alt,open
         2 000063   410400 401760                    pmme    nvectors=18
         2 000064   002510 702000 2                  TSX2    NODCB

      259    16996    3                END;

      260    16997    2           END;

      261    16998        /* Initialize S_D */
      262    16999    1        INITED_TEMP = S_D.INITED;

  16999  2 000065   000004 470400 3                  LDP0    4
         2 000066   000000 236100                    LDQ     0,,PR0
         2 000067   400000 376003                    ANQ     -131072,DU
         2 000070   200040 756100                    STQ     INITED_TEMP,,AUTO

      263    17000    1        S_D = '0'B;

  17000  2 000071   035020 220003                    LDX0    14864,DU
         2 000072   000140 100400                    MLR     fill='000'O
         2 000073   000002 000001 xsym               ADSC9   B_VECTNIL+2              cn=0,n=1
         2 000074   000000 000010                    ADSC9   0,,PR0                   cn=0,n=*X0

      264    17001    1        S_D.INITED = INITED_TEMP;
PL6.E3A0      #001=DUI$1STIME File=DUI$1STIME.:E05TSI                            TUE 07/29/97 14:53 Page:39

  17001  2 000075   200040 236100                    LDQ     INITED_TEMP,,AUTO
         2 000076   000000 676100                    ERQ     0,,PR0
         2 000077   400000 376003                    ANQ     -131072,DU
         2 000100   000000 656100                    ERSQ    0,,PR0

      265    17002    1        S_D.XUH_PARAM = XUH_PARAM;

  17002  2 000101   000100 100400                    MLR     fill='000'O
         2 000102   000016 000344 1                  ADSC9   XUH_PARAM                cn=0,n=228
         2 000103   007110 000344                    ADSC9   3656,,PR0                cn=0,n=228

      266    17003    1        S_D.XUH_PARAM.OUTDCB1# = D_M$DO#;

  17003  2 000104   000406 721000 1                  LXL1    D_M$DO#
         2 000105   007120 741100                    STX1    3664,,PR0

      267    17004    1        IF B$JIT.USER = 1

  17004  2 000106   000000 471400 xsym               LDP1    B$JIT$
         2 000107   100000 236100                    LDQ     0,,PR1
         2 000110   000777 376003                    ANQ     511,DU
         2 000111   000001 116003                    CMPQ    1,DU
         2 000112   000115 601000 2                  TNZ     s:17006

      268    17005    1        THEN S_D.GHOST1 = '1'B;

  17005  2 000113   400000 236003                    LDQ     -131072,DU
         2 000114   000605 756100                    STQ     389,,PR0

      269    17006    1        IF B$JIT.MODE ~= %M_INT#

  17006  2 000115   100000 236100                    LDQ     0,,PR1
         2 000116   740000 376003                    ANQ     -16384,DU
         2 000117   140000 116003                    CMPQ    49152,DU
         2 000120   000123 600000 2                  TZE     s:17008

PL6.E3A0      #001=DUI$1STIME File=DUI$1STIME.:E05TSI                            TUE 07/29/97 14:53 Page:40
      270    17007    1        THEN S_D.BATCH = '1'B;

  17007  2 000121   400000 236003                    LDQ     -131072,DU
         2 000122   004625 756100                    STQ     2453,,PR0

      271    17008    1        S_D.B$ROS$ = B$ROS$;

  17008  2 000123   000000 236000 xsym               LDQ     B$ROS$
         2 000124   004775 756100                    STQ     2557,,PR0

      272    17009    1        S_D.NODESEG$ = DD_RUMNODE$;

  17009  2 000125   000000 236000 xsym               LDQ     DD_RUMNODE$
         2 000126   005003 756100                    STQ     2563,,PR0

      273    17010    1        S_D.NODESEG_USED$ = DD_RUMNODE$;

  17010  2 000127   004771 756100                    STQ     2553,,PR0

      274    17011             /* Establish VARCOM area */
      275    17012    1        CALL DDM$GETMEM(DD_VARCOM$, 0, DSIZE);

  17012  2 000130   200052 633500                    EPPR3   DSIZE,,AUTO
         2 000131   200416 453500                    STP3    FPT$DRTN+16,,AUTO
         2 000132   000006 237000 3                  LDAQ    6
         2 000133   200414 757100                    STAQ    FPT$DRTN+14,,AUTO
         2 000134   200414 630500                    EPPR0   FPT$DRTN+14,,AUTO
         2 000135   000021 631400 xsym               EPPR1   B_VECTNIL+17
         2 000136   000000 701000 xent               TSX1    DDM$GETMEM
         2 000137   000000 011000                    NOP     0

      276    17013    1        IF DSIZE = 0

  17013  2 000140   200052 235100                    LDA     DSIZE,,AUTO
         2 000141   000146 601000 2                  TNZ     s:17015

      277    17014    1        THEN S_D.VARCOM$ = DD_VARCOM$;
PL6.E3A0      #001=DUI$1STIME File=DUI$1STIME.:E05TSI                            TUE 07/29/97 14:53 Page:41

  17014  2 000142   000000 236000 xsym               LDQ     DD_VARCOM$
         2 000143   000004 470400 3                  LDP0    4
         2 000144   004622 756100                    STQ     2450,,PR0
         2 000145   000154 710000 2                  TRA     s:17016

      278    17015    1        ELSE S_D.VARCOM$ = PINCRW(DD_VARCOM$, DSIZE+1);

  17015  2 000146   200052 236100                    LDQ     DSIZE,,AUTO
         2 000147   000022 736000                    QLS     18
         2 000150   000001 036003                    ADLQ    1,DU
         2 000151   000000 036000 xsym               ADLQ    DD_VARCOM$
         2 000152   000004 470400 3                  LDP0    4
         2 000153   004622 756100                    STQ     2450,,PR0

      279    17016    1        CALL DDM$GETMEM(DD_VARCOM$, @PSIZ) ALTRET(NOROOMATS);

  17016  2 000154   000011 630400 3                  EPPR0   9
         2 000155   000020 631400 xsym               EPPR1   B_VECTNIL+16
         2 000156   000000 701000 xent               TSX1    DDM$GETMEM
         2 000157   002635 702000 2                  TSX2    NOROOMATS

      280    17017    1        S_D.VARCOM_HIGH$ = PINCRW(S_D.VARCOM$, @PSIZ);

  17017  2 000160   000004 470400 3                  LDP0    4
         2 000161   004622 236100                    LDQ     2450,,PR0
         2 000162   002000 036003                    ADLQ    1024,DU
         2 000163   004623 756100                    STQ     2451,,PR0

      281    17018    1        S_D.VARNEXT$ = S_D.VARCOM$;

  17018  2 000164   004622 236100                    LDQ     2450,,PR0
         2 000165   000033 756100                    STQ     27,,PR0

      282    17019    1        S_D.LMDCB = D_M$LM#;

  17019  2 000166   000405 235000 1                  LDA     D_M$LM#
PL6.E3A0      #001=DUI$1STIME File=DUI$1STIME.:E05TSI                            TUE 07/29/97 14:53 Page:42
         2 000167   004774 755100                    STA     2556,,PR0

      283    17020    1        S_D.ERROR_SYM$ = ADDR(NIL);

  17020  2 000170   000001 236000 xsym               LDQ     B_VECTNIL+1
         2 000171   000032 756100                    STQ     26,,PR0

      284    17021    1        S_D.WHEN_HIGH$ = ADDR(NIL);

  17021  2 000172   005312 756100                    STQ     2762,,PR0

      285    17022    1        S_D.FPRG_CONTEXT$ = ADDR(NIL);

  17022  2 000173   000076 756100                    STQ     62,,PR0

      286    17023    1        S_D.FPRG_CONTEXT_END$ = ADDR(NIL);

  17023  2 000174   000077 756100                    STQ     63,,PR0

      287    17024    1        S_D.FPRG_CONTEXT_AVAIL$ = ADDR(NIL);

  17024  2 000175   000103 756100                    STQ     67,,PR0

      288    17025    1        S_D.FPRG_CONTEXT_AVAIL_END$ = ADDR(NIL);

  17025  2 000176   000104 756100                    STQ     68,,PR0

      289    17026    1        S_D.CURRENT_FPRG_CONTEXT$ = ADDR(NIL);

  17026  2 000177   000102 756100                    STQ     66,,PR0

      290    17027    1        S_D.DRTN$ = ADDR(NIL);

  17027  2 000200   004704 756100                    STQ     2500,,PR0

      291    17028    1        S_D.DEBUG_CMD_CONTEXT$ = ADDR(NIL);

PL6.E3A0      #001=DUI$1STIME File=DUI$1STIME.:E05TSI                            TUE 07/29/97 14:53 Page:43
  17028  2 000201   004666 756100                    STQ     2486,,PR0

      292    17029    1        S_D.DO$ = ADDR(NIL);

  17029  2 000202   000031 756100                    STQ     25,,PR0

      293    17030    1        S_D.DEBUGF = DD_DEBUG;

  17030  2 000203   000000 235000 xsym               LDA     DD_DEBUG
         2 000204   000053 755100                    STA     43,,PR0

      294    17031    1        S_D.SCHEMA = '1'B;

  17031  2 000205   400000 236003                    LDQ     -131072,DU
         2 000206   000052 756100                    STQ     42,,PR0

      295    17032    1        S_D.BYPASS = '1'B;

  17032  2 000207   001032 756100                    STQ     538,,PR0

      296    17033    1        S_D.STATUS = '1'B;

  17033  2 000210   006746 756100                    STQ     3558,,PR0

      297    17034    1        S_D.CAN_I_DO_BREAK = '1'B;

  17034  2 000211   006736 756100                    STQ     3550,,PR0

      298    17035    1        S_D.BYPASS_SAVE = '1'B;

  17035  2 000212   000074 756100                    STQ     60,,PR0

      299    17036    1        S_D.KEEP = '777777777777'O;

  17036  2 000213   000027 236000 xsym               LDQ     B_VECTNIL+23
         2 000214   004727 756100                    STQ     2519,,PR0

PL6.E3A0      #001=DUI$1STIME File=DUI$1STIME.:E05TSI                            TUE 07/29/97 14:53 Page:44
      300    17037    1        S_D.FIND.NUM = DD_BIGNUM;

  17037  2 000215   000013 235000 3                  LDA     11
         2 000216   005207 755100                    STA     2695,,PR0

      301    17038    1        S_D.FIND.MASK_F = -1;

  17038  2 000217   000001 335007                    LCA     1,DL
         2 000220   005211 755100                    STA     2697,,PR0

      302    17039    1        S_D.RANGE = BITBIN( '777777'O );

  17039  2 000221   777777 235007                    LDA     -1,DL
         2 000222   001031 755100                    STA     537,,PR0

      303    17040    1        S_D.EWSQ# = %MONWSQ;               /* %MONWSQ */

  17040  2 000223   000001 235007                    LDA     1,DL
         2 000224   000011 755100                    STA     9,,PR0

      304    17041    1        S_D.PROMPT.VFC = %VFC_EXT;

  17041  2 000225   100000 236003                    LDQ     32768,DU
         2 000226   005150 552140                    STBQ    2664,'40'O,PR0

      305    17042    1        S_D.PROMPT.TEXT = DD_PROMPT;

  17042  2 000227   040100 100400                    MLR     fill='040'O
         2 000230   000014 000001 1                  ADSC9   DD_PROMPT                cn=0,n=1
         2 000231   005150 200036                    ADSC9   2664,,PR0                cn=1,n=30

      306    17043    1        S_D.UPROMPT = DD_PROMPT;

  17043  2 000232   040100 100400                    MLR     fill='040'O
         2 000233   000014 000001 1                  ADSC9   DD_PROMPT                cn=0,n=1
         2 000234   005160 000030                    ADSC9   2672,,PR0                cn=0,n=24

PL6.E3A0      #001=DUI$1STIME File=DUI$1STIME.:E05TSI                            TUE 07/29/97 14:53 Page:45
      307    17044    1        S_D.PROMPT_SIZE = LENGTHC( DD_PROMPT ) + LENGTHC( S_D.PROMPT.VFC );

  17044  2 000235   000002 235007                    LDA     2,DL
         2 000236   005147 755100                    STA     2663,,PR0

      308    17045    1        S_D.UPROMPT_SIZE = LENGTHC( DD_PROMPT );

  17045  2 000237   000001 235007                    LDA     1,DL
         2 000240   005166 755100                    STA     2678,,PR0

      309    17046    1        S_D.FMT_DEFAULT = %OCT_FMT;

  17046  2 000241   000723 755100                    STA     467,,PR0

      310    17047    1        S_D.EFMT_DEFAULT = %OCT_FMT;

  17047  2 000242   004736 755100                    STA     2526,,PR0

      311    17048    1        S_D.L$.SIZE = 36;

  17048  2 000243   000044 235007                    LDA     36,DL
         2 000244   000126 755100                    STA     86,,PR0

      312    17049    1        S_D.L$.FMT = %OCT_FMT;

  17049  2 000245   000001 235007                    LDA     1,DL
         2 000246   000127 755100                    STA     87,,PR0

      313    17050    1        S_D.OUT_WIDTH = 132;

  17050  2 000247   000204 235007                    LDA     132,DL
         2 000250   000014 755100                    STA     12,,PR0

      314    17051    1        S_D.FAULTCMD$ = ADDR( NIL );

  17051  2 000251   000001 236000 xsym               LDQ     B_VECTNIL+1
         2 000252   000004 756100                    STQ     4,,PR0
PL6.E3A0      #001=DUI$1STIME File=DUI$1STIME.:E05TSI                            TUE 07/29/97 14:53 Page:46

      315    17052    1        S_D.SAD = -1;                      /* None yet */

  17052  2 000253   000001 335007                    LCA     1,DL
         2 000254   005255 755100                    STA     2733,,PR0

      316    17053    1        S_D.S$TEP.MODE = C@STATEMENTS;     /*C@STATEMENTS*/

  17053  2 000255   001107 235007                    LDA     583,DL
         2 000256   005310 755100                    STA     2760,,PR0

      317    17054    1        S_D.READPOS = 1;

  17054  2 000257   000001 235007                    LDA     1,DL
         2 000260   005142 755100                    STA     2658,,PR0

      318    17055    1        S_D.ECHO = '1'B;

  17055  2 000261   400000 236003                    LDQ     -131072,DU
         2 000262   004743 756100                    STQ     2531,,PR0

      319    17056    1        S_D.L6_CACHE = '1'B;;

  17056  2 000263   005245 756100                    STQ     2725,,PR0

      320    17057    1        S_D.INTERPRETIVE = '1'B;

  17057  2 000264   005246 756100                    STQ     2726,,PR0

      321    17058    1        S_D.FIRST_TIME = '1'B;

  17058  2 000265   006725 756100                    STQ     3541,,PR0

      322    17059
      323    17060        /* Setup default compiler print flags */
      324    17061    1        S_D.REPORT_FLAGS = DD_REPORT_FLAGS;

PL6.E3A0      #001=DUI$1STIME File=DUI$1STIME.:E05TSI                            TUE 07/29/97 14:53 Page:47
  17061  2 000266   000100 100400                    MLR     fill='000'O
         2 000267   000000 000070 xsym               ADSC9   DD_REPORT_FLAGS          cn=0,n=56
         2 000270   005214 000070                    ADSC9   2700,,PR0                cn=0,n=56

      325    17062        /* Setup concatenation nodes */
      326    17063
      327    17064    1        FPT$MONINFO = FPT_MONINFO;

  17064  2 000271   000100 100400                    MLR     fill='000'O
         2 000272   000000 000060 1                  ADSC9   FPT_MONINFO              cn=0,n=48
         2 000273   200250 000060                    ADSC9   FPT$MONINFO,,AUTO        cn=0,n=48

      328    17065    1        FPT$MONINFO.SITEINFO_ = VECTOR(VLR$SITEINFO);

  17065  2 000274   000014 235000 3                  LDA     12
         2 000275   200414 452500                    STP2    FPT$DRTN+14,,AUTO
         2 000276   200414 236100                    LDQ     FPT$DRTN+14,,AUTO
         2 000277   000264 036003                    ADLQ    180,DU
         2 000300   200250 757100                    STAQ    FPT$MONINFO,,AUTO

      329    17066    1        CALL M$MONINFO (FPT$MONINFO);

  17066  2 000301   200250 630500                    EPPR0   FPT$MONINFO,,AUTO
         2 000302   020023 713400                    CLIMB   8211
         2 000303   402400 401760                    pmme    nvectors=6

      330    17067    1         S_D.HW_TYPE = VLR$SITEINFO.CPU_TYPE#;

  17067  2 000304   000004 470400 3                  LDP0    4
         2 000305   200353 236100                    LDQ     VLR$SITEINFO+55,,AUTO
         2 000306   000011 772000                    QRL     9
         2 000307   000777 376007                    ANQ     511,DL
         2 000310   007100 756100                    STQ     3648,,PR0

      331    17068    2         DO CASE (S_D.HW_TYPE);

  17068  2 000311   000007 116007                    CMPQ    7,DL
PL6.E3A0      #001=DUI$1STIME File=DUI$1STIME.:E05TSI                            TUE 07/29/97 14:53 Page:48
         2 000312   000314 602006 2                  TNC     s:17068+3,QL
         2 000313   000354 710000 2                  TRA     s:17090
         2 000314   000323 710000 2                  TRA     s:17070
         2 000315   000354 710000 2                  TRA     s:17090
         2 000316   000354 710000 2                  TRA     s:17090
         2 000317   000354 710000 2                  TRA     s:17090
         2 000320   000331 710000 2                  TRA     s:17075
         2 000321   000340 710000 2                  TRA     s:17080
         2 000322   000347 710000 2                  TRA     s:17085

      332    17069    2            CASE (%L66);

      333    17070    2               S_D.HW_PTB_UNITS = 64;

  17070  2 000323   000100 235007                    LDA     64,DL
         2 000324   007103 755100                    STA     3651,,PR0

      334    17071    2               S_D.HW_RES_MEM = '0'B;

  17071  2 000325   007102 450100                    STZ     3650,,PR0

      335    17072    2               S_D.HW_WSQ0PT = '0'B;

  17072  2 000326   007104 450100                    STZ     3652,,PR0

      336    17073    2               S_D.HW_FLTIC_OK = '0'B;

  17073  2 000327   007101 450100                    STZ     3649,,PR0
         2 000330   000354 710000 2                  TRA     s:17090

      337    17074    2            CASE (%DPS90);

      338    17075    2               S_D.HW_PTB_UNITS = 64;

  17075  2 000331   000100 235007                    LDA     64,DL
         2 000332   007103 755100                    STA     3651,,PR0

PL6.E3A0      #001=DUI$1STIME File=DUI$1STIME.:E05TSI                            TUE 07/29/97 14:53 Page:49
      339    17076    2               S_D.HW_RES_MEM = '1'B;

  17076  2 000333   400000 236003                    LDQ     -131072,DU
         2 000334   007102 756100                    STQ     3650,,PR0

      340    17077    2               S_D.HW_WSQ0PT = '1'B;

  17077  2 000335   007104 756100                    STQ     3652,,PR0

      341    17078    2               S_D.HW_FLTIC_OK = '1'B;

  17078  2 000336   007101 756100                    STQ     3649,,PR0
         2 000337   000354 710000 2                  TRA     s:17090

      342    17079    2            CASE (%DPS90XA);

      343    17080    2               S_D.HW_PTB_UNITS = 1024;

  17080  2 000340   002000 235007                    LDA     1024,DL
         2 000341   007103 755100                    STA     3651,,PR0

      344    17081    2               S_D.HW_RES_MEM = '1'B;

  17081  2 000342   400000 236003                    LDQ     -131072,DU
         2 000343   007102 756100                    STQ     3650,,PR0

      345    17082    2               S_D.HW_WSQ0PT = '1'B;

  17082  2 000344   007104 756100                    STQ     3652,,PR0

      346    17083    2               S_D.HW_FLTIC_OK = '1'B;

  17083  2 000345   007101 756100                    STQ     3649,,PR0
         2 000346   000354 710000 2                  TRA     s:17090

      347    17084    2            CASE (%DPS8000);

PL6.E3A0      #001=DUI$1STIME File=DUI$1STIME.:E05TSI                            TUE 07/29/97 14:53 Page:50
      348    17085    2               S_D.HW_PTB_UNITS = 1024;

  17085  2 000347   002000 235007                    LDA     1024,DL
         2 000350   007103 755100                    STA     3651,,PR0

      349    17086    2               S_D.HW_RES_MEM = '0'B;

  17086  2 000351   007102 450100                    STZ     3650,,PR0

      350    17087    2               S_D.HW_WSQ0PT = '0'B;

  17087  2 000352   007104 450100                    STZ     3652,,PR0

      351    17088    2               S_D.HW_FLTIC_OK = '0'B;/*?*/

  17088  2 000353   007101 450100                    STZ     3649,,PR0

      352    17089    2            END;

      353    17090    1        IF SUBSTR(VLR$SITEINFO.SITE_NAME#.C,0,5) = 'LADC ' THEN S_D.LADC = '1'B;

  17090  2 000354   040000 106500                    CMPC    fill='040'O
         2 000355   200265 200005                    ADSC9   VLR$SITEINFO+1,,AUTO     cn=1,n=5
         2 000356   000413 000005 1                  ADSC9   DD_XOU$+1                cn=0,n=5
         2 000357   000362 601000 2                  TNZ     s:17091

  17090  2 000360   400000 236003                    LDQ     -131072,DU
         2 000361   006745 756100                    STQ     3557,,PR0

      354    17091    1        CALL DUI$INIT_HOST;

  17091  2 000362   000002 631400 xsym               EPPR1   B_VECTNIL+2
         2 000363   000000 701000 xent               TSX1    DUI$INIT_HOST
         2 000364   000000 011000                    NOP     0

      355    17092        /* Determine if BATCH or not */
      356    17093    1        FPTPROMPT = FPT_PROMPT;
PL6.E3A0      #001=DUI$1STIME File=DUI$1STIME.:E05TSI                            TUE 07/29/97 14:53 Page:51

  17093  2 000365   000100 100400                    MLR     fill='000'O
         2 000366   000000 000050 xsym               ADSC9   FPT_PROMPT               cn=0,n=40
         2 000367   200134 000050                    ADSC9   FPTPROMPT,,AUTO          cn=0,n=40

      357    17094    1        FPTPROMPT.V_ = VECTOR( FPTPROMPT.V );

  17094  2 000370   000000 235000 3                  LDA     0
         2 000371   200414 452500                    STP2    FPT$DRTN+14,,AUTO
         2 000372   200414 236100                    LDQ     FPT$DRTN+14,,AUTO
         2 000373   000142 036003                    ADLQ    98,DU
         2 000374   200134 757100                    STAQ    FPTPROMPT,,AUTO

      358    17095    1        PROMPTSIZE = S_D.PROMPT_SIZE;

  17095  2 000375   000004 470400 3                  LDP0    4
         2 000376   005147 235100                    LDA     2663,,PR0
         2 000377   200050 755100                    STA     PROMPTSIZE,,AUTO

      359    17096    1        FPTPROMPT.PROMPT_ = VECTOR( ADDR( S_D.PROMPT ) -> PROM$PT );

  17096  2 000400   000020 735000                    ALS     16
         2 000401   000140 135007                    SBLA    96,DL
         2 000402   000015 236000 3                  LDQ     13
         2 000403   200140 757100                    STAQ    FPTPROMPT+4,,AUTO

      360    17097    1        CALL M$PROMPT( FPTPROMPT ) ALTRET( DONTCARE );

  17097  2 000404   200134 630500                    EPPR0   FPTPROMPT,,AUTO
         2 000405   560002 713400                    CLIMB   alt,+57346
         2 000406   401000 401760                    pmme    nvectors=3
         2 000407   000410 702000 2                  TSX2    DONTCARE

  17096  2 000410                       DONTCARE     null
      361    17098    1   DONTCARE: ;
      362    17099    1        IF NOT OPENDOOK

PL6.E3A0      #001=DUI$1STIME File=DUI$1STIME.:E05TSI                            TUE 07/29/97 14:53 Page:52
  17099  2 000410   200047 234100                    SZN     OPENDOOK,,AUTO
         2 000411   000420 604000 2                  TMI     s:17105

      363    17100    2        THEN DO;

      364    17101    2             S_D.ERROR = E@NOPNDO;         /* E@NOPNDO */

  17101  2 000412   000243 235007                    LDA     163,DL
         2 000413   000004 470400 3                  LDP0    4
         2 000414   000013 755100                    STA     11,,PR0

      365    17102    2             CALL DDE$ERROR;

  17102  2 000415   000002 631400 xsym               EPPR1   B_VECTNIL+2
         2 000416   000000 701000 xent               TSX1    DDE$ERROR
         2 000417   000000 011000                    NOP     0

      366    17103    2           END;

      367    17104        /* Get M$DELT# Dcb */
      368    17105    1        IF D_M$DELT# = %M$DELT#

  17105  2 000420   000404 235000 1                  LDA     D_M$DELT#
         2 000421   000011 115007                    CMPA    9,DL
         2 000422   000444 601000 2                  TNZ     s:17113

      369    17106    2        THEN DO;                           /* Don't get dcb if running as user */

      370    17107    2             CALL DUX$XCON1_REL;           /* Release it if we got it */

  17107  2 000423   000002 631400 xsym               EPPR1   B_VECTNIL+2
         2 000424   000000 701000 xent               TSX1    DUX$XCON1_REL
         2 000425   000000 011000                    NOP     0

      371    17108    2             FPTGETDCB = FPT_GETDCB;

  17108  2 000426   000100 100400                    MLR     fill='000'O
PL6.E3A0      #001=DUI$1STIME File=DUI$1STIME.:E05TSI                            TUE 07/29/97 14:53 Page:53
         2 000427   000220 000040 1                  ADSC9   FPT_GETDCB               cn=0,n=32
         2 000430   200146 000040                    ADSC9   FPTGETDCB,,AUTO          cn=0,n=32

      372    17109    2             FPTGETDCB.V_ = VECTOR( FPTGETDCB.V );

  17109  2 000431   000016 235000 3                  LDA     14
         2 000432   200414 452500                    STP2    FPT$DRTN+14,,AUTO
         2 000433   200414 236100                    LDQ     FPT$DRTN+14,,AUTO
         2 000434   000154 036003                    ADLQ    108,DU
         2 000435   200146 757100                    STAQ    FPTGETDCB,,AUTO

      373    17110    2             FPTGETDCB.V.DCB# = D_M$DELT#;

  17110  2 000436   000404 720000 1                  LXL0    D_M$DELT#
         2 000437   200154 740100                    STX0    FPTGETDCB+6,,AUTO

      374    17111    2             CALL M$GETDCB( FPTGETDCB ) ALTRET( NODCB );

  17111  2 000440   200146 630500                    EPPR0   FPTGETDCB,,AUTO
         2 000441   460002 713400                    CLIMB   alt,+24578
         2 000442   401000 401760                    pmme    nvectors=3
         2 000443   002510 702000 2                  TSX2    NODCB

      375    17112    2           END;

      376    17113    1        ECC = B$EXCFR.ECC;

  17113  2 000444   000000 470400 xsym               LDP0    B$TCB$
         2 000445   000001 471500                    LDP1    1,,PR0
         2 000446   100000 236100                    LDQ     0,,PR1
         2 000447   777777 376007                    ANQ     -1,DL
         2 000450   200022 756100                    STQ     ECC,,AUTO

      377    17114    1        SUBC = B$EXCFR.SUBC;

  17114  2 000451   100100 236100                    LDQ     64,,PR1
         2 000452   777777 376007                    ANQ     -1,DL
PL6.E3A0      #001=DUI$1STIME File=DUI$1STIME.:E05TSI                            TUE 07/29/97 14:53 Page:54
         2 000453   200023 756100                    STQ     SUBC,,AUTO

      378    17115    1        IF S_D.BATCH                       /* Setup default defaults */

  17115  2 000454   000004 473400 3                  LDP3    4
         2 000455   304625 234100                    SZN     2453,,PR3
         2 000456   000464 605000 2                  TPL     s:17117

      379    17116    1        THEN S_D.M$DELTA_RES = 'ME';

  17116  2 000457   000415 236000 1                  LDQ     DD_XOU$+3
         2 000460   777777 376003                    ANQ     -1,DU
         2 000461   040040 276007                    ORQ     16416,DL
         2 000462   300606 756100                    STQ     390,,PR3
         2 000463   000514 710000 2                  TRA     s:17122

      380    17117    1        ELSE IF (ECC = %ECC_DELTA# AND SUBC = %SC_YC#)

  17117  2 000464   200022 235100                    LDA     ECC,,AUTO
         2 000465   000132 115007                    CMPA    90,DL
         2 000466   000476 601000 2                  TNZ     s:17119
         2 000467   000002 116007                    CMPQ    2,DL
         2 000470   000476 601000 2                  TNZ     s:17119

      381    17118    1             THEN S_D.M$DELTA_RES = 'UC';

  17118  2 000471   000416 236000 1                  LDQ     DD_XOU$+4
         2 000472   777777 376003                    ANQ     -1,DU
         2 000473   040040 276007                    ORQ     16416,DL
         2 000474   300606 756100                    STQ     390,,PR3
         2 000475   000514 710000 2                  TRA     s:17122

      382    17119    1             ELSE IF B$JIT.NEXTCC = %CC_FROMXEQ#

  17119  2 000476   000000 474400 xsym               LDP4    B$JIT$
         2 000477   400151 236100                    LDQ     105,,PR4
         2 000500   000777 376003                    ANQ     511,DU
PL6.E3A0      #001=DUI$1STIME File=DUI$1STIME.:E05TSI                            TUE 07/29/97 14:53 Page:55
         2 000501   000002 116003                    CMPQ    2,DU
         2 000502   000510 601000 2                  TNZ     s:17121

      383    17120    1                  THEN S_D.M$DELTA_RES = 'ME';

  17120  2 000503   000415 236000 1                  LDQ     DD_XOU$+3
         2 000504   777777 376003                    ANQ     -1,DU
         2 000505   040040 276007                    ORQ     16416,DL
         2 000506   300606 756100                    STQ     390,,PR3
         2 000507   000514 710000 2                  TRA     s:17122

      384    17121    1                  ELSE S_D.M$DELTA_RES = 'UC';

  17121  2 000510   000416 236000 1                  LDQ     DD_XOU$+4
         2 000511   777777 376003                    ANQ     -1,DU
         2 000512   040040 276007                    ORQ     16416,DL
         2 000513   300606 756100                    STQ     390,,PR3

      385    17122    1        FPTOPEN = FPT_OPEN_M$DELTA;

  17122  2 000514   000100 100400                    MLR     fill='000'O
         2 000515   000230 000350 1                  ADSC9   FPT_OPEN_M$DELTA         cn=0,n=232
         2 000516   200156 000350                    ADSC9   FPTOPEN,,AUTO            cn=0,n=232

      386    17123    1        FPTOPEN.V_ = VECTOR( FPTOPEN.V );

  17123  2 000517   000003 235000 3                  LDA     3
         2 000520   200414 452500                    STP2    FPT$DRTN+14,,AUTO
         2 000521   200414 236100                    LDQ     FPT$DRTN+14,,AUTO
         2 000522   000222 036003                    ADLQ    146,DU
         2 000523   200156 757100                    STAQ    FPTOPEN,,AUTO

      387    17124    1        FPTOPEN.V.DCB# = D_M$DELT#;

  17124  2 000524   000404 720000 1                  LXL0    D_M$DELT#
         2 000525   200222 740100                    STX0    FPTOPEN+36,,AUTO

PL6.E3A0      #001=DUI$1STIME File=DUI$1STIME.:E05TSI                            TUE 07/29/97 14:53 Page:56
      388    17125    1        FPTOPEN.V.XONLY# = '1'B;

  17125  2 000526   004000 236003                    LDQ     2048,DU
         2 000527   200236 256100                    ORSQ    FPTOPEN+48,,AUTO

      389    17126    1        IF NOT( DCBADDR( D_M$DELT# ) -> F$DCB.AMR# )

  17126  2 000530   000002 471400 3                  LDP1    2
         2 000531   100000 474500                    LDP4    0,,PR1
         2 000532   400000 475510                    LDP5    0,X0,PR4
         2 000533   500031 236100                    LDQ     25,,PR5
         2 000534   010000 316007                    CANQ    4096,DL
         2 000535   000542 601000 2                  TNZ     s:17131

      390    17127    2        THEN DO;

      391    17128    2             FPTOPEN.V.RES# = S_D.M$DELTA_RES;

  17128  2 000536   300606 236100                    LDQ     390,,PR3
         2 000537   200226 756100                    STQ     FPTOPEN+40,,AUTO

      392    17129    2             FPTOPEN.V.ASN# = %DEVICE#;

  17129  2 000540   000003 236007                    LDQ     3,DL
         2 000541   200223 552104                    STBQ    FPTOPEN+37,'04'O,AUTO

      393    17130    2           END;

      394    17131    1        CALL M$OPEN( FPTOPEN ) ALTRET( NOPN#9 );

  17131  2 000542   200156 630500                    EPPR0   FPTOPEN,,AUTO
         2 000543   450000 713400                    CLIMB   alt,open
         2 000544   410400 401760                    pmme    nvectors=18
         2 000545   000564 702000 2                  TSX2    NOPN#9

      395    17132    1        IF NOT S_D.BATCH

PL6.E3A0      #001=DUI$1STIME File=DUI$1STIME.:E05TSI                            TUE 07/29/97 14:53 Page:57
  17132  2 000546   000004 470400 3                  LDP0    4
         2 000547   004625 234100                    SZN     2453,,PR0
         2 000550   000563 604000 2                  TMI     s:17135

      396    17133    1        THEN IF DCBADDR( D_M$DELT# ) -> F$DCB.ASN# = %DEVICE#

  17133  2 000551   000002 471400 3                  LDP1    2
         2 000552   100000 473500                    LDP3    0,,PR1
         2 000553   000404 720000 1                  LXL0    D_M$DELT#
         2 000554   300000 474510                    LDP4    0,X0,PR3
         2 000555   400032 236100                    LDQ     26,,PR4
         2 000556   777000 376007                    ANQ     -512,DL
         2 000557   003000 116007                    CMPQ    1536,DL
         2 000560   000563 601000 2                  TNZ     s:17135

      397    17134    1             THEN S_D.M$DELTA_RES = DCBADDR( D_M$DELT# ) -> F$DCB.RES#;

  17134  2 000561   400026 236100                    LDQ     22,,PR4
         2 000562   000606 756100                    STQ     390,,PR0

      398    17135    2        DO WHILE ( '0'B );

  17135  2 000563   000572 710000 2                  TRA     s:17140

      399    17136    2   NOPN#9:   CALL DUE$ERRMSG;

  17136  2 000564   000002 631400 xsym  NOPN#9       EPPR1   B_VECTNIL+2
         2 000565   000000 701000 xent               TSX1    DUE$ERRMSG
         2 000566   000000 011000                    NOP     0

      400    17137    2             CALL DUA$READ;                /* Doesn't ALTRET */

  17137  2 000567   000002 631400 xsym               EPPR1   B_VECTNIL+2
         2 000570   000000 701000 xent               TSX1    DUA$READ
         2 000571   000000 011000                    NOP     0

      401    17138    2           END;
PL6.E3A0      #001=DUI$1STIME File=DUI$1STIME.:E05TSI                            TUE 07/29/97 14:53 Page:58

      402    17139        /* Get a page for X$PARSE work buffer */
      403    17140    1        CALL DDM$GETMEM( PARSE$, D_PARSIZE ) ALTRET(NOPARS);

  17140  2 000572   000017 630400 3                  EPPR0   15
         2 000573   000020 631400 xsym               EPPR1   B_VECTNIL+16
         2 000574   000000 701000 xent               TSX1    DDM$GETMEM
         2 000575   002523 702000 2                  TSX2    NOPARS

      404    17141    1        S_D.PARSIZE = D_PARSIZE;

  17141  2 000576   000004 470400 3                  LDP0    4
         2 000577   000402 235000 1                  LDA     D_PARSIZE
         2 000600   001033 755100                    STA     539,,PR0

      405    17142    1        CALL DDM$GETMEM( PARSE$, D_HBUSIZE ) ALTRET(NOPARS);

  17142  2 000601   000021 630400 3                  EPPR0   17
         2 000602   000020 631400 xsym               EPPR1   B_VECTNIL+16
         2 000603   000000 701000 xent               TSX1    DDM$GETMEM
         2 000604   002523 702000 2                  TSX2    NOPARS

      406    17143    1        S_D.HIST.START$ = PINCRW(PARSE$, D_PARSIZE);

  17143  2 000605   000402 236000 1                  LDQ     D_PARSIZE
         2 000606   000022 736000                    QLS     18
         2 000607   000000 036000 xsym               ADLQ    PARSE$
         2 000610   000004 470400 3                  LDP0    4
         2 000611   004717 756100                    STQ     2511,,PR0

      407    17144    1        S_D.HIST.CURR$ = S_D.HIST.START$;

  17144  2 000612   004721 756100                    STQ     2513,,PR0

      408    17145    1        S_D.HIST.END$ = PINCRW(S_D.HIST.START$, D_HBUSIZE - SIZEW(HIST_BUF));

  17145  2 000613   004717 471500                    LDP1    2511,,PR0
PL6.E3A0      #001=DUI$1STIME File=DUI$1STIME.:E05TSI                            TUE 07/29/97 14:53 Page:59
         2 000614   000403 720000 1                  LXL0    D_HBUSIZE
         2 000615   177775 633510                    EPPR3   -3,X0,PR1
         2 000616   004720 453500                    STP3    2512,,PR0

      409    17146                                 /* PINCRW START, AVAILWRDS/WORDS-PER-ENTRY, -1 ENTRY */
      410    17147    1        S_D.HIST.EMPTY = '1'B;

  17147  2 000617   400000 236003                    LDQ     -131072,DU
         2 000620   004726 756100                    STQ     2518,,PR0

      411    17148    1        S_D.HIST.ACTIVE = '1'B;

  17148  2 000621   004725 756100                    STQ     2517,,PR0

      412    17149        /* Establish DELTA special location */
      413    17150    1        S_D.SL$ = ADDR( NIL );

  17150  2 000622   000001 236000 xsym               LDQ     B_VECTNIL+1
         2 000623   000006 756100                    STQ     6,,PR0

      414    17151    1        S_D.SLP1$ = ADDR( NIL );

  17151  2 000624   000007 756100                    STQ     7,,PR0

      415    17152    1        IF B$EXCFR.ECC = %ECC_ALIB# AND

  17152  2 000625   000000 474400 xsym               LDP4    B$TCB$
         2 000626   400001 475500                    LDP5    1,,PR4
         2 000627   500000 721100                    LXL1    0,,PR5
         2 000630   000137 101003                    CMPX1   95,DU
         2 000631   000635 601000 2                  TNZ     s:17155
         2 000632   500100 722100                    LXL2    64,,PR5
         2 000633   000001 102003                    CMPX2   1,DU
         2 000634   000734 600000 2                  TZE     SKIPSL

      416    17153    1           B$EXCFR.SUBC = %SC_AASL#
      417    17154    1        THEN GOTO SKIPSL;
PL6.E3A0      #001=DUI$1STIME File=DUI$1STIME.:E05TSI                            TUE 07/29/97 14:53 Page:60
      418    17155    1        IF B$EXCFR.ECC=%ECC_DELTA# AND B$EXCFR.SUBC=%SC_JOBSTEP#

  17155  2 000635   000132 101003                    CMPX1   90,DU
         2 000636   000657 601000 2                  TNZ     s:17165
         2 000637   500100 722100                    LXL2    64,,PR5
         2 000640   000001 102003                    CMPX2   1,DU
         2 000641   000657 601000 2                  TNZ     s:17165

      419    17156    2        THEN DO;

      420    17157    2             S_D.STAND_ALONE = '1'B;

  17157  2 000642   400000 236003                    LDQ     -131072,DU
         2 000643   004624 756100                    STQ     2452,,PR0

      421    17158    2             S_D.SL$ = PINCRW(UIS$, 2);    /* Make it 2 */

  17158  2 000644   000000 236000 xsym               LDQ     UIS$
         2 000645   000002 036003                    ADLQ    2,DU
         2 000646   000006 756100                    STQ     6,,PR0

      422    17159    2             S_D.SLP1$ = PINCRW(UIS$, 3);

  17159  2 000647   000000 236000 xsym               LDQ     UIS$
         2 000650   000003 036003                    ADLQ    3,DU
         2 000651   000007 756100                    STQ     7,,PR0

      423    17160    2             S_D.SL = 2;

  17160  2 000652   000002 235007                    LDA     2,DL
         2 000653   000010 755100                    STA     8,,PR0

      424    17161    2             S_D.BYPASS = '0'B;            /* KILL BYPASS, give him a break */

  17161  2 000654   001032 450100                    STZ     538,,PR0

      425    17162    2             S_D.BYPASS_SAVE = '0'B;       /* Reset this save bit too */
PL6.E3A0      #001=DUI$1STIME File=DUI$1STIME.:E05TSI                            TUE 07/29/97 14:53 Page:61

  17162  2 000655   000074 450100                    STZ     60,,PR0

      426    17163    2           END;

  17163  2 000656   000734 710000 2                  TRA     SKIPSL

      427    17164    2        ELSE DO;

      428    17165    2             IF UJIT$ -> B$JIT.PCP ~= 0

  17165  2 000657   000000 476400 xsym               LDP6    UJIT$
         2 000660   600201 222100                    LDX2    129,,PR6
         2 000661   000734 600000 2                  TZE     SKIPSL

      429    17166    3             THEN DO;

      430    17167    3                  UPLL = 1;

  17167  2 000662   000001 235007                    LDA     1,DL
         2 000663   200027 755100                    STA     UPLL,,AUTO

      431    17168    3                  UPLLP.PLL = UJIT$ -> B$JIT.PLL - %ISEGLO; /* Page # in IS */

  17168  2 000664   600176 236100                    LDQ     126,,PR6
         2 000665   000022 772000                    QRL     18
         2 000666   000100 136007                    SBLQ    64,DL
         2 000667   000012 736000                    QLS     10
         2 000670   200027 676100                    ERQ     UPLL,,AUTO
         2 000671   000023 376000 3                  ANQ     19
         2 000672   200027 656100                    ERSQ    UPLL,,AUTO

      432    17169    3                  S_D.PADDR = UPLL - 1;

  17169  2 000673   200027 236100                    LDQ     UPLL,,AUTO
         2 000674   000001 136007                    SBLQ    1,DL
         2 000675   004765 756100                    STQ     2549,,PR0
PL6.E3A0      #001=DUI$1STIME File=DUI$1STIME.:E05TSI                            TUE 07/29/97 14:53 Page:62

      433    17170    3                  WHERE$ = PINCRW( UIS$, UPLL );

  17170  2 000676   200027 236100                    LDQ     UPLL,,AUTO
         2 000677   000022 736000                    QLS     18
         2 000700   000000 036000 xsym               ADLQ    UIS$
         2 000701   200030 756100                    STQ     WHERE$,,AUTO

      434    17171    3                  USLPTR = WHERE$ -> BITS;

  17171  2 000702   200030 475500                    LDP5    WHERE$,,AUTO
         2 000703   500000 236100                    LDQ     0,,PR5
         2 000704   200031 756100                    STQ     USLPTR,,AUTO

      435    17172    3                  IF USLPTR.SEGID ~= BITBIN( %ISSID )

  17172  2 000705   200031 236100                    LDQ     USLPTR,,AUTO
         2 000706   007777 376007                    ANQ     4095,DL
         2 000707   006000 116007                    CMPQ    3072,DL
         2 000710   000717 600000 2                  TZE     s:17178

      436    17173    4                  THEN DO;

      437    17174    4                       USLPTR = PINCRW( WHERE$, -1 ) -> BITS;

  17174  2 000711   577777 236100                    LDQ     -1,,PR5
         2 000712   200031 756100                    STQ     USLPTR,,AUTO

      438    17175    4                       IF USLPTR.SEGID ~= BITBIN( %ISSID )

  17175  2 000713   200031 236100                    LDQ     USLPTR,,AUTO
         2 000714   007777 376007                    ANQ     4095,DL
         2 000715   006000 116007                    CMPQ    3072,DL
         2 000716   000735 601000 2                  TNZ     NOSL

      439    17176    4                       THEN GOTO NOSL;
      440    17177    4                     END;
PL6.E3A0      #001=DUI$1STIME File=DUI$1STIME.:E05TSI                            TUE 07/29/97 14:53 Page:63

      441    17178    3                  S_D.SL$ = PINCRW( UIS$, USLPTR.ADR );

  17178  2 000717   200031 236100                    LDQ     USLPTR,,AUTO
         2 000720   777777 376003                    ANQ     -1,DU
         2 000721   000000 036000 xsym               ADLQ    UIS$
         2 000722   000006 756100                    STQ     6,,PR0

      442    17179    3                  S_D.SLP1$ = PINCRW( S_D.SL$, 1 );

  17179  2 000723   000001 036003                    ADLQ    1,DU
         2 000724   000007 756100                    STQ     7,,PR0

      443    17180    3                  S_D.SL = POFFW( S_D.SL$, UIS$ );

  17180  2 000725   000000 235000 xsym               LDA     UIS$
         2 000726   000022 771000                    ARL     18
         2 000727   200414 755100                    STA     FPT$DRTN+14,,AUTO
         2 000730   000006 236100                    LDQ     6,,PR0
         2 000731   000022 772000                    QRL     18
         2 000732   200414 136100                    SBLQ    FPT$DRTN+14,,AUTO
         2 000733   000010 756100                    STQ     8,,PR0

      444    17181    3                END;

      445    17182    2           END;

      446    17183    1   SKIPSL:
      447    17184    2        DO WHILE( '0'B );

  17184  2 000734   000742 710000 2     SKIPSL       TRA     s:17189

      448    17185    2   NOSL:
      449    17186    2             S_D.ERROR = E@NOSL$;          /* E@NOSL$ */

  17186  2 000735   000153 235007       NOSL         LDA     107,DL
         2 000736   000013 755100                    STA     11,,PR0
PL6.E3A0      #001=DUI$1STIME File=DUI$1STIME.:E05TSI                            TUE 07/29/97 14:53 Page:64

      450    17187    2             CALL DDE$ERROR;

  17187  2 000737   000002 631400 xsym               EPPR1   B_VECTNIL+2
         2 000740   000000 701000 xent               TSX1    DDE$ERROR
         2 000741   000000 011000                    NOP     0

      451    17188    2           END;

      452    17189    1        S_D.PADDR_SAVE = S_D.PADDR;

  17189  2 000742   000004 470400 3                  LDP0    4
         2 000743   004765 235100                    LDA     2549,,PR0
         2 000744   005050 755100                    STA     2600,,PR0

      453    17190        /* Set activation character set */
      454    17191    1        IF (NOT S_D.BATCH) AND (NOT S_D.STAND_ALONE)

  17191  2 000745   004625 234100                    SZN     2453,,PR0
         2 000746   000773 604000 2                  TMI     s:17203
         2 000747   004624 234100                    SZN     2452,,PR0
         2 000750   000773 604000 2                  TMI     s:17203

      455    17192    2        THEN DO;

      456    17193    2             CALL M$EOM( FPT_EOM ) ALTRET( NOEOM );

  17193  2 000751   000206 630400 1                  EPPR0   FPT_EOM
         2 000752   560003 713400                    CLIMB   alt,+57347
         2 000753   401000 401760                    pmme    nvectors=3
         2 000754   000761 702000 2                  TSX2    NOEOM

      457    17194    2             S_D.EOM = '1'B;

  17194  2 000755   400000 236003                    LDQ     -131072,DU
         2 000756   000004 470400 3                  LDP0    4
         2 000757   004752 756100                    STQ     2538,,PR0
PL6.E3A0      #001=DUI$1STIME File=DUI$1STIME.:E05TSI                            TUE 07/29/97 14:53 Page:65

      458    17195    3             DO WHILE ( '0'B );

  17195  2 000760   000773 710000 2                  TRA     s:17203

      459    17196    3   NOEOM:
      460    17197    3                  IF B$TCB$ -> B$TCB.ALT$ -> B$ALT.ERR.SEV ~= 0

  17197  2 000761   000000 470400 xsym  NOEOM        LDP0    B$TCB$
         2 000762   000000 471500                    LDP1    0,,PR0
         2 000763   100102 236100                    LDQ     66,,PR1
         2 000764   000007 316007                    CANQ    7,DL
         2 000765   000773 600000 2                  TZE     s:17203

      461    17198    4                  THEN DO;

      462    17199    4                       CALL DUE$ERRMSG;

  17199  2 000766   000002 631400 xsym               EPPR1   B_VECTNIL+2
         2 000767   000000 701000 xent               TSX1    DUE$ERRMSG
         2 000770   000000 011000                    NOP     0

      463    17200    4                       CALL M$XXX;

  17200  2 000771   000003 713400                    CLIMB   3
         2 000772   000000 401760                    pmme    nvectors=0

      464    17201    4                     END;

      465    17202    3                END;

      466    17203    2           END;

  17203  2 000773   000776 710000 2                  TRA     s:17209

      467    17204        %EJECT;
PL6.E3A0      #001=DUI$1STIME File=DUI$1STIME.:E05TSI                            TUE 07/29/97 14:53 Page:66
      468    17205                                                /**/
      469    17206    1   DUI$RU_ACCESS: ENTRY ALTRET;

  17206  2 000774   000000 700200 xent  DUI$RU_ACCE* TSX0  ! X66_AUTO_0
         2 000775   000424 000000                    ZERO    276,0

      470    17207                                                /**/
      471    17208        /* Get program DEFs records */
      472    17209    1        S_D.DNAME$ = ADDR( NIL );

  17209  2 000776   000001 236000 xsym               LDQ     B_VECTNIL+1
         2 000777   000004 470400 3                  LDP0    4
         2 001000   001041 756100                    STQ     545,,PR0

      473    17210    1        S_D.EDEF$ = ADDR( NIL );

  17210  2 001001   001042 756100                    STQ     546,,PR0

      474    17211    1        S_D.SDEF$ = ADDR( NIL );

  17211  2 001002   001043 756100                    STQ     547,,PR0

      475    17212    1        S_D.SCH = '0'B;

  17212  2 001003   000100 100400                    MLR     fill='000'O
         2 001004   000002 000001 xsym               ADSC9   B_VECTNIL+2              cn=0,n=1
         2 001005   000724 000034                    ADSC9   468,,PR0                 cn=0,n=28

      476    17213    1        S_D.QSCH = '0'B;

  17213  2 001006   000100 100400                    MLR     fill='000'O
         2 001007   000002 000001 xsym               ADSC9   B_VECTNIL+2              cn=0,n=1
         2 001010   000733 000034                    ADSC9   475,,PR0                 cn=0,n=28

      477    17214    1        S_D.DSCH = '0'B;

  17214  2 001011   000100 100400                    MLR     fill='000'O
PL6.E3A0      #001=DUI$1STIME File=DUI$1STIME.:E05TSI                            TUE 07/29/97 14:53 Page:67
         2 001012   000002 000001 xsym               ADSC9   B_VECTNIL+2              cn=0,n=1
         2 001013   000742 000034                    ADSC9   482,,PR0                 cn=0,n=28

      478    17215    1        S_D.XSCH = '0'B;

  17215  2 001014   000100 100400                    MLR     fill='000'O
         2 001015   000002 000001 xsym               ADSC9   B_VECTNIL+2              cn=0,n=1
         2 001016   000751 000034                    ADSC9   489,,PR0                 cn=0,n=28

      479    17216    1        S_D.TSCH = '0'B;

  17216  2 001017   000100 100400                    MLR     fill='000'O
         2 001020   000002 000001 xsym               ADSC9   B_VECTNIL+2              cn=0,n=1
         2 001021   000760 000034                    ADSC9   496,,PR0                 cn=0,n=28

      480    17217    1        S_D.LB0$ = ADDR( NIL );

  17217  2 001022   001035 756100                    STQ     541,,PR0

      481    17218    1        S_D.OVERLAID = '0'B;

  17218  2 001023   004764 450100                    STZ     2548,,PR0

      482    17219    1        S_D.TREE$ = ADDR( NIL );

  17219  2 001024   004761 756100                    STQ     2545,,PR0

      483    17220    1        S_D.MTREE$ = ADDR( NIL );

  17220  2 001025   004762 756100                    STQ     2546,,PR0

      484    17221    1        S_D.UTREE$ = ADDR( NIL );

  17221  2 001026   004763 756100                    STQ     2547,,PR0

      485    17222    1        S_D.NODE = 0;

PL6.E3A0      #001=DUI$1STIME File=DUI$1STIME.:E05TSI                            TUE 07/29/97 14:53 Page:68
  17222  2 001027   004706 450100                    STZ     2502,,PR0

      486    17223    1        S_D.UNODE = '0'B;

  17223  2 001030   004757 450100                    STZ     2543,,PR0
         2 001031   004760 450100                    STZ     2544,,PR0

      487    17224    1        S_D.LASTPD.RANGE = 0;

  17224  2 001032   005257 450100                    STZ     2735,,PR0

      488    17225    1        S_D.ANYSD.RANGE = 0;

  17225  2 001033   005263 450100                    STZ     2739,,PR0

      489    17226    1        S_D.NCNSD.RANGE = 0;

  17226  2 001034   005267 450100                    STZ     2743,,PR0

      490    17227        /*D* Setup defaults here while we have the chance to do so */
      491    17228    1        S_D.GOT# = '0'B;

  17228  2 001035   005061 450100                    STZ     2609,,PR0

      492    17229    1        S_D.GOT@ = '0'B;

  17229  2 001036   005054 450100                    STZ     2604,,PR0

      493    17230    1        S_D.DEFINED# = '0'B;

  17230  2 001037   005065 450100                    STZ     2613,,PR0

      494    17231    1        S_D.DEFINED@ = '0'B;

  17231  2 001040   005060 450100                    STZ     2608,,PR0

      495    17232    1        S_D.XOU_NAME.SIZE = 0;
PL6.E3A0      #001=DUI$1STIME File=DUI$1STIME.:E05TSI                            TUE 07/29/97 14:53 Page:69

  17232  2 001041   000000 236003                    LDQ     0,DU
         2 001042   001021 552140                    STBQ    529,'40'O,PR0

      496    17233    1        S_D.SYNTAX_DEFAULT = %PL6ID;

  17233  2 001043   000001 235007                    LDA     1,DL
         2 001044   005253 755100                    STA     2731,,PR0

      497    17234    1        S_D.SYNTAX = %PL6ID;

  17234  2 001045   005235 755100                    STA     2717,,PR0

      498    17235    2        DO I = 0 TO SIZEW(DD_COMP_NODE_PTR$)-1;

  17235  2 001046   200015 450100                    STZ     I,,AUTO
         2 001047   001060 710000 2                  TRA     s:17238+3

      499    17236    2             DD_COMP_NODE_PTR$(I) -> DD_NODE.SUBNDS$(0) =

  17236  2 001050   200015 720100                    LXL0    I,,AUTO
         2 001051   000000 470410 xsym               LDP0    DD_COMP_NODE_PTR$,X0
         2 001052   000001 471400 xsym               LDP1    DD_COMPNODE$+1
         2 001053   100000 236110                    LDQ     0,X0,PR1
         2 001054   000001 756100                    STQ     1,,PR0

      500    17237    2               DD_COMPNODE$(%PL6ID) -> DD$COMP_NODE_PTR$(I);
      501    17238    2           END;

  17238  2 001055   200015 235100                    LDA     I,,AUTO
         2 001056   000001 035007                    ADLA    1,DL
         2 001057   200015 755100                    STA     I,,AUTO
         2 001060   200015 235100                    LDA     I,,AUTO
         2 001061   000014 115007                    CMPA    12,DL
         2 001062   001050 602000 2                  TNC     s:17236

      502    17239    1        IF ( NOT S_D.RUM ) AND ( NOT S_D.ANLZ )
PL6.E3A0      #001=DUI$1STIME File=DUI$1STIME.:E05TSI                            TUE 07/29/97 14:53 Page:70

  17239  2 001063   000004 470400 3                  LDP0    4
         2 001064   004755 234100                    SZN     2541,,PR0
         2 001065   001076 604000 2                  TMI     s:17243
         2 001066   004756 234100                    SZN     2542,,PR0
         2 001067   001076 604000 2                  TMI     s:17243

      503    17240    1        THEN IF S_D.STAND_ALONE AND (NOT S_D.FPRG)

  17240  2 001070   004624 234100                    SZN     2452,,PR0
         2 001071   001074 605000 2                  TPL     s:17242
         2 001072   000101 234100                    SZN     65,,PR0
         2 001073   002506 605000 2                  TPL     RETN

      504    17241    1             THEN GOTO RETN;
      505    17242    1             ELSE S_D.PADDR = S_D.PADDR_SAVE;

  17242  2 001074   005050 235100                    LDA     2600,,PR0
         2 001075   004765 755100                    STA     2549,,PR0

      506    17243    1        GOTHEAD = '0'B;

  17243  2 001076   200032 450100                    STZ     GOTHEAD,,AUTO

      507    17244    1        ARS = 0;

  17244  2 001077   200013 450100                    STZ     ARS,,AUTO

      508    17245    1        IF ( S_D.GHOST1 ) AND ( NOT S_D.RUM )

  17245  2 001100   000605 234100                    SZN     389,,PR0
         2 001101   001104 605000 2                  TPL     s:17247
         2 001102   004755 234100                    SZN     2541,,PR0
         2 001103   002506 605000 2                  TPL     RETN

      509    17246    1        THEN GOTO RETN;
      510    17247    1        CALL DDQ$READLM( %TYPHEAD, @PAGE, S_D.NODE, ADDR( BHEAD ), LENGTHC( BHEAD ),
PL6.E3A0      #001=DUI$1STIME File=DUI$1STIME.:E05TSI                            TUE 07/29/97 14:53 Page:71
             17247                 ARS ) ALTRET( NODEFS1 );

  17247  2 001104   200064 631500                    EPPR1   BHEAD,,AUTO
         2 001105   200414 451500                    STP1    FPT$DRTN+14,,AUTO
         2 001106   200013 633500                    EPPR3   ARS,,AUTO
         2 001107   200423 453500                    STP3    FPT$DRTN+21,,AUTO
         2 001110   000025 236000 3                  LDQ     21
         2 001111   200422 756100                    STQ     FPT$DRTN+20,,AUTO
         2 001112   200414 634500                    EPPR4   FPT$DRTN+14,,AUTO
         2 001113   200421 454500                    STP4    FPT$DRTN+19,,AUTO
         2 001114   000026 236000 3                  LDQ     22
         2 001115   200420 756100                    STQ     FPT$DRTN+18,,AUTO
         2 001116   000030 237000 3                  LDAQ    24
         2 001117   200416 757100                    STAQ    FPT$DRTN+16,,AUTO
         2 001120   200416 630500                    EPPR0   FPT$DRTN+16,,AUTO
         2 001121   000024 631400 xsym               EPPR1   B_VECTNIL+20
         2 001122   000000 701000 xent               TSX1    DDQ$READLM
         2 001123   002610 702000 2                  TSX2    NODEFS1

      511    17248    2        DO CASE( BHEAD.FLAVOR );

  17248  2 001124   200106 236100                    LDQ     BHEAD+18,,AUTO
         2 001125   000033 772000                    QRL     27
         2 001126   000003 116007                    CMPQ    3,DL
         2 001127   001131 602006 2                  TNC     s:17248+5,QL
         2 001130   001174 710000 2                  TRA     s:17267
         2 001131   001174 710000 2                  TRA     s:17267
         2 001132   001134 710000 2                  TRA     s:17250
         2 001133   001143 710000 2                  TRA     s:17256

      512    17249    2          CASE( %HOST_RU );

      513    17250    2             IF S_D.ONE_TO_TWO.EXEC_DOMAIN ~= %HOST

  17250  2 001134   000004 470400 3                  LDP0    4
         2 001135   006714 235100                    LDA     3532,,PR0
         2 001136   000001 115007                    CMPA    1,DL
PL6.E3A0      #001=DUI$1STIME File=DUI$1STIME.:E05TSI                            TUE 07/29/97 14:53 Page:72
         2 001137   001200 600000 2                  TZE     s:17270

      514    17251    3             THEN DO;

      515    17252    3                  S_D.ERROR = E@NOTFEPRU;  /* E@NOTL6RU */

  17252  2 001140   000420 235007                    LDA     272,DL
         2 001141   000013 755100                    STA     11,,PR0

      516    17253    3                  GOTO ARET;

  17253  2 001142   002507 710000 2                  TRA     ARET

      517    17254    3                END;
      518    17255    2          CASE( %FEP_RU );

      519    17256    2             IF S_D.ONE_TO_TWO.EXEC_DOMAIN ~= %L6

  17256  2 001143   000004 470400 3                  LDP0    4
         2 001144   006714 235100                    LDA     3532,,PR0
         2 001145   000002 115007                    CMPA    2,DL
         2 001146   001152 600000 2                  TZE     s:17261

      520    17257    3             THEN DO;

      521    17258    3                  S_D.ERROR = E@NOTHOSTRU;  /* E@NOTHOSTRU */

  17258  2 001147   000417 235007                    LDA     271,DL
         2 001150   000013 755100                    STA     11,,PR0

      522    17259    3                  GOTO ARET;

  17259  2 001151   002507 710000 2                  TRA     ARET

      523    17260    3                END;
      524    17261    2             IF BHEAD.RDATA = 0

PL6.E3A0      #001=DUI$1STIME File=DUI$1STIME.:E05TSI                            TUE 07/29/97 14:53 Page:73
  17261  2 001152   200066 236100                    LDQ     BHEAD+2,,AUTO
         2 001153   000032 316000 3                  CANQ    26
         2 001154   001161 601000 2                  TNZ     s:17263

      525    17262    2             THEN S_D.FEP_PADDR = BHEAD.BIAS;

  17262  2 001155   200107 236100                    LDQ     BHEAD+19,,AUTO
         2 001156   000032 376000 3                  ANQ     26
         2 001157   005176 756100                    STQ     2686,,PR0
         2 001160   001170 710000 2                  TRA     s:17265

      526    17263    2             ELSE S_D.FEP_PADDR = (((BHEAD.RDATA + BITBIN('277777'O))

  17263  2 001161   200066 236100                    LDQ     BHEAD+2,,AUTO
         2 001162   000032 376000 3                  ANQ     26
         2 001163   277777 036007                    ADLQ    98303,DL
         2 001164   000020 772000                    QRL     16
         2 001165   000020 736000                    QLS     16
         2 001166   200000 036007                    ADLQ    65536,DL
         2 001167   005176 756100                    STQ     2686,,PR0

      527    17264    2                        / BITBIN('200000'O)) * BITBIN('200000'O)) + BITBIN('200000'O);
      528    17265    2             S_D.FEP_PSIZE = BHEAD.RPROC;

  17265  2 001170   200065 236100                    LDQ     BHEAD+1,,AUTO
         2 001171   000032 376000 3                  ANQ     26
         2 001172   005177 756100                    STQ     2687,,PR0
         2 001173   001200 710000 2                  TRA     s:17270

      529    17266    2          CASE( ELSE );

      530    17267    2             S_D.ERROR = E@BADHEADRECORD;  /* E@BADHEADRECORD */

  17267  2 001174   000421 235007                    LDA     273,DL
         2 001175   000004 470400 3                  LDP0    4
         2 001176   000013 755100                    STA     11,,PR0

PL6.E3A0      #001=DUI$1STIME File=DUI$1STIME.:E05TSI                            TUE 07/29/97 14:53 Page:74
      531    17268    2             GOTO ARET;

  17268  2 001177   002507 710000 2                  TRA     ARET

      532    17269    2          END;

      533    17270    1        GOTHEAD = '1'B;

  17270  2 001200   400000 236003                    LDQ     -131072,DU
         2 001201   200032 756100                    STQ     GOTHEAD,,AUTO

      534    17271    1        S_D.HEAD_LIB = BHEAD.LIB;

  17271  2 001202   200106 236100                    LDQ     BHEAD+18,,AUTO
         2 001203   000012 736000                    QLS     10
         2 001204   400000 376003                    ANQ     -131072,DU
         2 001205   000071 756100                    STQ     57,,PR0

      535    17272    1        NRECSIZE = BHEAD.NRECSIZE;

  17272  2 001206   200072 236100                    LDQ     BHEAD+6,,AUTO
         2 001207   777777 376007                    ANQ     -1,DL
         2 001210   200024 756100                    STQ     NRECSIZE,,AUTO

      536    17273    1        EPRECSIZE = BHEAD.EPRECSIZE;

  17273  2 001211   200073 235100                    LDA     BHEAD+7,,AUTO
         2 001212   000022 771000                    ARL     18
         2 001213   200025 755100                    STA     EPRECSIZE,,AUTO

      537    17274    1        EDRECSIZE = BHEAD.EDRECSIZE;

  17274  2 001214   200073 236100                    LDQ     BHEAD+7,,AUTO
         2 001215   777777 376007                    ANQ     -1,DL
         2 001216   200026 756100                    STQ     EDRECSIZE,,AUTO

      538    17275    1        ROSIZE = BHEAD.ROSIZE;
PL6.E3A0      #001=DUI$1STIME File=DUI$1STIME.:E05TSI                            TUE 07/29/97 14:53 Page:75

  17275  2 001217   200074 236100                    LDQ     BHEAD+8,,AUTO
         2 001220   777777 376007                    ANQ     -1,DL
         2 001221   200035 756100                    STQ     ROSIZE,,AUTO

      539    17276    1        TSIZE = NRECSIZE + EPRECSIZE + EDRECSIZE;

  17276  2 001222   200024 236100                    LDQ     NRECSIZE,,AUTO
         2 001223   200025 036100                    ADLQ    EPRECSIZE,,AUTO
         2 001224   200026 036100                    ADLQ    EDRECSIZE,,AUTO
         2 001225   200014 756100                    STQ     TSIZE,,AUTO

      540    17277    1        IF NRECSIZE = 0

  17277  2 001226   200024 235100                    LDA     NRECSIZE,,AUTO
         2 001227   002626 600000 2                  TZE     NODEFS3

      541    17278    1        THEN GOTO NODEFS3;                 /* No DEF NAMEs record */
      542    17279    1        CALL DDM$GETMEM( S_D_SEG$, 0, DSIZE );

  17279  2 001230   200052 631500                    EPPR1   DSIZE,,AUTO
         2 001231   200416 451500                    STP1    FPT$DRTN+16,,AUTO
         2 001232   000034 237000 3                  LDAQ    28
         2 001233   200414 757100                    STAQ    FPT$DRTN+14,,AUTO
         2 001234   200414 630500                    EPPR0   FPT$DRTN+14,,AUTO
         2 001235   000021 631400 xsym               EPPR1   B_VECTNIL+17
         2 001236   000000 701000 xent               TSX1    DDM$GETMEM
         2 001237   000000 011000                    NOP     0

      543    17280    1        S_D.SCHSEG_BEGIN$ = PINCRW(S_D_SEG$, DSIZE+1);

  17280  2 001240   200052 236100                    LDQ     DSIZE,,AUTO
         2 001241   000022 736000                    QLS     18
         2 001242   000001 036003                    ADLQ    1,DU
         2 001243   000000 036000 xsym               ADLQ    S_D_SEG$
         2 001244   000004 470400 3                  LDP0    4
         2 001245   000043 756100                    STQ     35,,PR0
PL6.E3A0      #001=DUI$1STIME File=DUI$1STIME.:E05TSI                            TUE 07/29/97 14:53 Page:76

      544    17281    1        S_D.SCHSEG$ = S_D.SCHSEG_BEGIN$;

  17281  2 001246   001034 756100                    STQ     540,,PR0

      545    17282    1        DNAME$ = S_D.SCHSEG_BEGIN$;

  17282  2 001247   200007 756100                    STQ     DNAME$,,AUTO

      546    17283    1        CALL DDM$GETMEM( S_D_SEG$, TSIZE ) ALTRET( NODEFS2 );

  17283  2 001250   200014 631500                    EPPR1   TSIZE,,AUTO
         2 001251   200415 451500                    STP1    FPT$DRTN+15,,AUTO
         2 001252   000034 236000 3                  LDQ     28
         2 001253   200414 756100                    STQ     FPT$DRTN+14,,AUTO
         2 001254   200414 630500                    EPPR0   FPT$DRTN+14,,AUTO
         2 001255   000020 631400 xsym               EPPR1   B_VECTNIL+16
         2 001256   000000 701000 xent               TSX1    DDM$GETMEM
         2 001257   002617 702000 2                  TSX2    NODEFS2

      547    17284    1        S_D.SCHSEG$ = PINCRW( DNAME$, TSIZE );

  17284  2 001260   200014 236100                    LDQ     TSIZE,,AUTO
         2 001261   000022 736000                    QLS     18
         2 001262   200007 036100                    ADLQ    DNAME$,,AUTO
         2 001263   000004 470400 3                  LDP0    4
         2 001264   001034 756100                    STQ     540,,PR0

      548    17285    1        NRECSIZE = 4 * NRECSIZE;

  17285  2 001265   200024 235100                    LDA     NRECSIZE,,AUTO
         2 001266   000002 735000                    ALS     2
         2 001267   200024 755100                    STA     NRECSIZE,,AUTO

      549    17286    1        EPRECSIZE = 4 * EPRECSIZE;

  17286  2 001270   200025 235100                    LDA     EPRECSIZE,,AUTO
PL6.E3A0      #001=DUI$1STIME File=DUI$1STIME.:E05TSI                            TUE 07/29/97 14:53 Page:77
         2 001271   000002 735000                    ALS     2
         2 001272   200025 755100                    STA     EPRECSIZE,,AUTO

      550    17287    1        EDRECSIZE = 4 * EDRECSIZE;

  17287  2 001273   200026 235100                    LDA     EDRECSIZE,,AUTO
         2 001274   000002 735000                    ALS     2
         2 001275   200026 755100                    STA     EDRECSIZE,,AUTO

      551    17288    1        ARS = 0;                           /* Positive */

  17288  2 001276   200013 450100                    STZ     ARS,,AUTO

      552    17289    1        CALL DDQ$READLM( %TYPDNAM, @PAGE, S_D.NODE, DNAME$, NRECSIZE, ARS ) ALTRET(
             17289                 NODEFS3 );

  17289  2 001277   200013 631500                    EPPR1   ARS,,AUTO
         2 001300   200421 451500                    STP1    FPT$DRTN+19,,AUTO
         2 001301   200024 633500                    EPPR3   NRECSIZE,,AUTO
         2 001302   200420 453500                    STP3    FPT$DRTN+18,,AUTO
         2 001303   200007 634500                    EPPR4   DNAME$,,AUTO
         2 001304   200417 454500                    STP4    FPT$DRTN+17,,AUTO
         2 001305   000026 236000 3                  LDQ     22
         2 001306   200416 756100                    STQ     FPT$DRTN+16,,AUTO
         2 001307   000036 237000 3                  LDAQ    30
         2 001310   200414 757100                    STAQ    FPT$DRTN+14,,AUTO
         2 001311   200414 630500                    EPPR0   FPT$DRTN+14,,AUTO
         2 001312   000024 631400 xsym               EPPR1   B_VECTNIL+20
         2 001313   000000 701000 xent               TSX1    DDQ$READLM
         2 001314   002626 702000 2                  TSX2    NODEFS3

      553    17290    1        EDEF$ = PINCRW( DNAME$, ( ARS + LENGTHC( ARS ) -1 ) / LENGTHC( ARS ) );

  17290  2 001315   200013 236100                    LDQ     ARS,,AUTO
         2 001316   000003 036007                    ADLQ    3,DL
         2 001317   000004 506007                    DIV     4,DL
         2 001320   000022 736000                    QLS     18
PL6.E3A0      #001=DUI$1STIME File=DUI$1STIME.:E05TSI                            TUE 07/29/97 14:53 Page:78
         2 001321   200007 036100                    ADLQ    DNAME$,,AUTO
         2 001322   200010 756100                    STQ     EDEF$,,AUTO

      554    17291    1        S_D.DNAME$ = DNAME$;

  17291  2 001323   200007 236100                    LDQ     DNAME$,,AUTO
         2 001324   000004 470400 3                  LDP0    4
         2 001325   001041 756100                    STQ     545,,PR0

      555    17292    1        ARS = 0;

  17292  2 001326   200013 450100                    STZ     ARS,,AUTO

      556    17293    1        IF EPRECSIZE = 0

  17293  2 001327   200025 235100                    LDA     EPRECSIZE,,AUTO
         2 001330   001353 600000 2                  TZE     NODEFS4

      557    17294    1        THEN GOTO NODEFS4;                 /* No ENTDEFs record */
      558    17295    1        CALL DDQ$READLM( %TYPEDEF, @PAGE, S_D.NODE, EDEF$, EPRECSIZE, ARS ) ALTRET(
             17295                 NODEFS4 );

  17295  2 001331   200013 631500                    EPPR1   ARS,,AUTO
         2 001332   200421 451500                    STP1    FPT$DRTN+19,,AUTO
         2 001333   200025 633500                    EPPR3   EPRECSIZE,,AUTO
         2 001334   200420 453500                    STP3    FPT$DRTN+18,,AUTO
         2 001335   200010 634500                    EPPR4   EDEF$,,AUTO
         2 001336   200417 454500                    STP4    FPT$DRTN+17,,AUTO
         2 001337   000026 236000 3                  LDQ     22
         2 001340   200416 756100                    STQ     FPT$DRTN+16,,AUTO
         2 001341   000040 237000 3                  LDAQ    32
         2 001342   200414 757100                    STAQ    FPT$DRTN+14,,AUTO
         2 001343   200414 630500                    EPPR0   FPT$DRTN+14,,AUTO
         2 001344   000024 631400 xsym               EPPR1   B_VECTNIL+20
         2 001345   000000 701000 xent               TSX1    DDQ$READLM
         2 001346   001353 702000 2                  TSX2    NODEFS4

PL6.E3A0      #001=DUI$1STIME File=DUI$1STIME.:E05TSI                            TUE 07/29/97 14:53 Page:79
      559    17296    1        S_D.EDEF$ = EDEF$;

  17296  2 001347   200010 236100                    LDQ     EDEF$,,AUTO
         2 001350   000004 470400 3                  LDP0    4
         2 001351   001042 756100                    STQ     546,,PR0

      560    17297    2        DO WHILE( '0'B );

  17297  2 001352   001365 710000 2                  TRA     s:17303

      561    17298    2   NODEFS4:  IF S_D.NODEFS4 THEN EXIT;

  17298  2 001353   000004 470400 3     NODEFS4      LDP0    4
         2 001354   006744 234100                    SZN     3556,,PR0
         2 001355   001365 604000 2                  TMI     s:17303

      562    17299    2             S_D.NODEFS4 = '1'B;

  17299  2 001356   400000 236003                    LDQ     -131072,DU
         2 001357   006744 756100                    STQ     3556,,PR0

      563    17300    2             S_D.ERROR = E@NODEFS4;        /* E@NODEFS4 */

  17300  2 001360   000141 235007                    LDA     97,DL
         2 001361   000013 755100                    STA     11,,PR0

      564    17301    2             CALL DDE$ERROR;

  17301  2 001362   000002 631400 xsym               EPPR1   B_VECTNIL+2
         2 001363   000000 701000 xent               TSX1    DDE$ERROR
         2 001364   000000 011000                    NOP     0

      565    17302    2           END;

      566    17303    1        SDEF$ = PINCRW( EDEF$, ARS / 4 );

  17303  2 001365   200013 236100                    LDQ     ARS,,AUTO
PL6.E3A0      #001=DUI$1STIME File=DUI$1STIME.:E05TSI                            TUE 07/29/97 14:53 Page:80
         2 001366   000004 506007                    DIV     4,DL
         2 001367   000022 736000                    QLS     18
         2 001370   200010 036100                    ADLQ    EDEF$,,AUTO
         2 001371   200011 756100                    STQ     SDEF$,,AUTO

      567    17304    1        S_D.EDEF_END$ = PINCRW( SDEF$, -SIZEW( B$EDEF ) );

  17304  2 001372   777776 036003                    ADLQ    -2,DU
         2 001373   000004 470400 3                  LDP0    4
         2 001374   001044 756100                    STQ     548,,PR0

      568    17305    1        TEMP$ = S_D.EDEF$;

  17305  2 001375   001042 236100                    LDQ     546,,PR0
         2 001376   200012 756100                    STQ     TEMP$,,AUTO

      569    17306    1        IF TEMP$ ~= ADDR( NIL )

  17306  2 001377   000001 116000 xsym               CMPQ    B_VECTNIL+1
         2 001400   001416 600000 2                  TZE     s:17311

      570    17307    2        THEN DO WHILE ( TEMP$ <= S_D.EDEF_END$ );

  17307  2 001401   001044 116100                    CMPQ    548,,PR0
         2 001402   001404 600000 2                  TZE     s:17308
         2 001403   001416 603000 2                  TRC     s:17311

      571    17308    2             TEMP$ -> B$EDEF.LFLAGS.FAULTAGS = '0'B; /* For TRACE */

  17308  2 001404   200012 470500                    LDP0    TEMP$,,AUTO
         2 001405   000033 236000 3                  LDQ     27
         2 001406   000000 356100                    ANSQ    0,,PR0

      572    17309    2             TEMP$ = PINCRW( TEMP$, SIZEW( B$EDEF ) );

  17309  2 001407   200012 236100                    LDQ     TEMP$,,AUTO
         2 001410   000002 036003                    ADLQ    2,DU
PL6.E3A0      #001=DUI$1STIME File=DUI$1STIME.:E05TSI                            TUE 07/29/97 14:53 Page:81
         2 001411   200012 756100                    STQ     TEMP$,,AUTO

      573    17310    2           END;

  17310  2 001412   000004 470400 3                  LDP0    4
         2 001413   001044 116100                    CMPQ    548,,PR0
         2 001414   001404 602000 2                  TNC     s:17308
         2 001415   001404 600000 2                  TZE     s:17308

      574    17311    1        ARS = 0;

  17311  2 001416   200013 450100                    STZ     ARS,,AUTO

      575    17312    1        IF EDRECSIZE = 0

  17312  2 001417   200026 235100                    LDA     EDRECSIZE,,AUTO
         2 001420   001443 600000 2                  TZE     NODEFS5

      576    17313    1        THEN GOTO NODEFS5;                 /* No SYMDEFs record */
      577    17314    1        CALL DDQ$READLM( %TYPSDEF, @PAGE, S_D.NODE, SDEF$, EDRECSIZE, ARS ) ALTRET(
             17314                 NODEFS5 );

  17314  2 001421   200013 631500                    EPPR1   ARS,,AUTO
         2 001422   200421 451500                    STP1    FPT$DRTN+19,,AUTO
         2 001423   200026 633500                    EPPR3   EDRECSIZE,,AUTO
         2 001424   200420 453500                    STP3    FPT$DRTN+18,,AUTO
         2 001425   200011 634500                    EPPR4   SDEF$,,AUTO
         2 001426   200417 454500                    STP4    FPT$DRTN+17,,AUTO
         2 001427   000026 236000 3                  LDQ     22
         2 001430   200416 756100                    STQ     FPT$DRTN+16,,AUTO
         2 001431   000042 237000 3                  LDAQ    34
         2 001432   200414 757100                    STAQ    FPT$DRTN+14,,AUTO
         2 001433   200414 630500                    EPPR0   FPT$DRTN+14,,AUTO
         2 001434   000024 631400 xsym               EPPR1   B_VECTNIL+20
         2 001435   000000 701000 xent               TSX1    DDQ$READLM
         2 001436   001443 702000 2                  TSX2    NODEFS5

PL6.E3A0      #001=DUI$1STIME File=DUI$1STIME.:E05TSI                            TUE 07/29/97 14:53 Page:82
      578    17315    1        S_D.SDEF$ = SDEF$;

  17315  2 001437   200011 236100                    LDQ     SDEF$,,AUTO
         2 001440   000004 470400 3                  LDP0    4
         2 001441   001043 756100                    STQ     547,,PR0

      579    17316    2        DO WHILE( '0'B );

  17316  2 001442   001451 710000 2                  TRA     s:17321

      580    17317    2   NODEFS5:
      581    17318    2             S_D.ERROR = E@NODEFS5;        /* E@NODEFS5 */

  17318  2 001443   000142 235007       NODEFS5      LDA     98,DL
         2 001444   000004 470400 3                  LDP0    4
         2 001445   000013 755100                    STA     11,,PR0

      582    17319    2             CALL DDE$ERROR;

  17319  2 001446   000002 631400 xsym               EPPR1   B_VECTNIL+2
         2 001447   000000 701000 xent               TSX1    DDE$ERROR
         2 001450   000000 011000                    NOP     0

      583    17320    2           END;

      584    17321    1        S_D.LB0$ = PINCRW( SDEF$, ARS / 4 );

  17321  2 001451   200013 236100                    LDQ     ARS,,AUTO
         2 001452   000004 506007                    DIV     4,DL
         2 001453   000022 736000                    QLS     18
         2 001454   200011 036100                    ADLQ    SDEF$,,AUTO
         2 001455   000004 470400 3                  LDP0    4
         2 001456   001035 756100                    STQ     541,,PR0

      585    17322    1        S_D.SDEF_END$ = PINCRW( S_D.LB0$, -SIZEW( B$SDEF ) );

  17322  2 001457   777776 036003                    ADLQ    -2,DU
PL6.E3A0      #001=DUI$1STIME File=DUI$1STIME.:E05TSI                            TUE 07/29/97 14:53 Page:83
         2 001460   001045 756100                    STQ     549,,PR0

      586    17323                                                /**/
      587    17324    1   GETXOU:
      588    17325        /* Establish default schema access */
      589    17326    1        S_D.XOU_NAME = DD_XOU;

  17326  2 001461   000004 470400 3     GETXOU       LDP0    4
         2 001462   000100 100400                    MLR     fill='000'O
         2 001463   000407 000012 1                  ADSC9   DD_XOU                   cn=0,n=10
         2 001464   001021 000040                    ADSC9   529,,PR0                 cn=0,n=32

      590    17327    1        CALL DDS$PD_SRCH( DD_XOU$, TEMP$ ) ALTRET( GOTXOU );

  17327  2 001465   200012 631500                    EPPR1   TEMP$,,AUTO
         2 001466   200415 451500                    STP1    FPT$DRTN+15,,AUTO
         2 001467   000044 236000 3                  LDQ     36
         2 001470   200414 756100                    STQ     FPT$DRTN+14,,AUTO
         2 001471   200414 630500                    EPPR0   FPT$DRTN+14,,AUTO
         2 001472   000020 631400 xsym               EPPR1   B_VECTNIL+16
         2 001473   000000 701000 xent               TSX1    DDS$PD_SRCH
         2 001474   001476 702000 2                  TSX2    GOTXOU

      591    17328    2        DO WHILE ( '0'B );

  17328  2 001475   001520 710000 2                  TRA     NOXOU

      592    17329    2   GOTXOU:
      593    17330    2             CALL DDS$EQCS#( POFFW( TEMP$, S_D.EDEF$ ) / SIZEW( B$EDEF ) ) ALTRET(
             17330                      NOXOU );

  17330  2 001476   000004 470400 3     GOTXOU       LDP0    4
         2 001477   001042 236100                    LDQ     546,,PR0
         2 001500   000022 772000                    QRL     18
         2 001501   200414 756100                    STQ     FPT$DRTN+14,,AUTO
         2 001502   200012 236100                    LDQ     TEMP$,,AUTO
         2 001503   000022 772000                    QRL     18
PL6.E3A0      #001=DUI$1STIME File=DUI$1STIME.:E05TSI                            TUE 07/29/97 14:53 Page:84
         2 001504   200414 136100                    SBLQ    FPT$DRTN+14,,AUTO
         2 001505   000002 506007                    DIV     2,DL
         2 001506   200415 756100                    STQ     FPT$DRTN+15,,AUTO
         2 001507   200415 631500                    EPPR1   FPT$DRTN+15,,AUTO
         2 001510   200416 451500                    STP1    FPT$DRTN+16,,AUTO
         2 001511   200416 630500                    EPPR0   FPT$DRTN+16,,AUTO
         2 001512   000017 631400 xsym               EPPR1   B_VECTNIL+15
         2 001513   000000 701000 xent               TSX1    DDS$EQCS#
         2 001514   001520 702000 2                  TSX2    NOXOU

      594    17331    2             CALL DDS$SET_Q2X ALTRET( NOXOU );

  17331  2 001515   000002 631400 xsym               EPPR1   B_VECTNIL+2
         2 001516   000000 701000 xent               TSX1    DDS$SET_Q2X
         2 001517   001520 702000 2                  TSX2    NOXOU

      595    17332    2           END;

      596    17333    1   NOXOU:
      597    17334        /* Establish default SYNTAX */
      598    17335    1        IF GOTHEAD

  17335  2 001520   200032 234100       NOXOU        SZN     GOTHEAD,,AUTO
         2 001521   001701 605000 2                  TPL     SYXDEF

      599    17336    2        THEN DO;

      600    17337    2             TSIZE = BHEAD.START;

  17337  2 001522   200067 236100                    LDQ     BHEAD+3,,AUTO
         2 001523   000032 376000 3                  ANQ     26
         2 001524   200014 756100                    STQ     TSIZE,,AUTO

      601    17338    3             CALL DDS$ES_INQ( TSIZE ) WHENRETURN DO;

  17338  2 001525   200014 630500                    EPPR0   TSIZE,,AUTO
         2 001526   200414 450500                    STP0    FPT$DRTN+14,,AUTO
PL6.E3A0      #001=DUI$1STIME File=DUI$1STIME.:E05TSI                            TUE 07/29/97 14:53 Page:85
         2 001527   200414 630500                    EPPR0   FPT$DRTN+14,,AUTO
         2 001530   000017 631400 xsym               EPPR1   B_VECTNIL+15
         2 001531   000000 701000 xent               TSX1    DDS$ES_INQ
         2 001532   001542 702000 2                  TSX2    s:17342

      602    17339    3                  S_D.SYNTAX_DEFAULT = S_D.LB0$ -> B$LBNTRY0.COMPILER;

  17339  2 001533   000004 470400 3                  LDP0    4
         2 001534   001035 471500                    LDP1    541,,PR0
         2 001535   100000 236100                    LDQ     0,,PR1
         2 001536   000022 772000                    QRL     18
         2 001537   000777 376007                    ANQ     511,DL
         2 001540   005253 756100                    STQ     2731,,PR0

      603    17340    3                END;

  17340  2 001541   001574 710000 2                  TRA     s:17348

      604    17341    3               WHENALTRETURN DO;

      605    17342    3                  CHR2 = SUBSTR(BHEAD.LIBNAME.TXT,8,2);

  17342  2 001542   040100 100500                    MLR     fill='040'O
         2 001543   200116 200002                    ADSC9   BHEAD+26,,AUTO           cn=1,n=2
         2 001544   200414 000004                    ADSC9   FPT$DRTN+14,,AUTO        cn=0,n=4
         2 001545   200414 220100                    LDX0    FPT$DRTN+14,,AUTO
         2 001546   200033 740100                    STX0    CHR2,,AUTO

      606    17343    3                  IF S_D.HEAD_LIB THEN

  17343  2 001547   000004 470400 3                  LDP0    4
         2 001550   000071 234100                    SZN     57,,PR0
         2 001551   001563 605000 2                  TPL     s:17345

      607    17344    3                       CHR2 = SUBSTR(DCBADDR(S_D.LMDCB) -> F$DCB.NAME#.C,8,2);

  17344  2 001552   000002 471400 3                  LDP1    2
PL6.E3A0      #001=DUI$1STIME File=DUI$1STIME.:E05TSI                            TUE 07/29/97 14:53 Page:86
         2 001553   100000 473500                    LDP3    0,,PR1
         2 001554   004774 721100                    LXL1    2556,,PR0
         2 001555   300000 474511                    LDP4    0,X1,PR3
         2 001556   040100 100500                    MLR     fill='040'O
         2 001557   400012 200002                    ADSC9   10,,PR4                  cn=1,n=2
         2 001560   200414 000004                    ADSC9   FPT$DRTN+14,,AUTO        cn=0,n=4
         2 001561   200414 222100                    LDX2    FPT$DRTN+14,,AUTO
         2 001562   200033 742100                    STX2    CHR2,,AUTO

      608    17345    3                  IF CHR2 ~= 'CO' AND SUBSTR(CHR2,0,1) = 'C' THEN

  17345  2 001563   200033 220100                    LDX0    CHR2,,AUTO
         2 001564   000417 100000 1                  CMPX0   DD_XOU$+5
         2 001565   001574 600000 2                  TZE     s:17348
         2 001566   200033 236100                    LDQ     CHR2,,AUTO
         2 001567   777000 376003                    ANQ     -512,DU
         2 001570   103000 116003                    CMPQ    34304,DU
         2 001571   001574 601000 2                  TNZ     s:17348

      609    17346    3                       S_D.SYNTAX_DEFAULT = %CID;

  17346  2 001572   000015 235007                    LDA     13,DL
         2 001573   005253 755100                    STA     2731,,PR0

      610    17347    3                END;

      611    17348    2             S_D.SYNTAX = S_D.SYNTAX_DEFAULT;

  17348  2 001574   005253 235100                    LDA     2731,,PR0
         2 001575   005235 755100                    STA     2717,,PR0

      612    17349    2             IF S_D.FPRG AND

  17349  2 001576   000101 234100                    SZN     65,,PR0
         2 001577   001605 605000 2                  TPL     s:17352
         2 001600   000010 115007                    CMPA    8,DL
         2 001601   001605 601000 2                  TNZ     s:17352
PL6.E3A0      #001=DUI$1STIME File=DUI$1STIME.:E05TSI                            TUE 07/29/97 14:53 Page:87

      613    17350    2                S_D.SYNTAX = %FPLID
      614    17351    2             THEN S_D.CURRENT_FPRG_CONTEXT$ -> FPRG$CONTEXT.INTERPRETIVE = '1'B;

  17351  2 001602   000102 471500                    LDP1    66,,PR0
         2 001603   200000 236003                    LDQ     65536,DU
         2 001604   100001 256100                    ORSQ    1,,PR1

      615    17352    2             IF S_D.SYNTAX = %COBOLID

  17352  2 001605   005235 235100                    LDA     2717,,PR0
         2 001606   000003 115007                    CMPA    3,DL
         2 001607   001614 600000 2                  TZE     s:17356
         2 001610   000006 115007                    CMPA    6,DL
         2 001611   001614 600000 2                  TZE     s:17356
         2 001612   000002 115007                    CMPA    2,DL
         2 001613   001651 601000 2                  TNZ     s:17367

      616    17353    2                OR S_D.SYNTAX = %PASCALID
      617    17354    2               OR S_D.SYNTAX = %FORTRANID
      618    17355    3             THEN DO;            /* Make the main porgram the ALT VAR schema */

      619    17356    3                  CALL DDS$SET_Q2X ALTRET( SYXDEF );

  17356  2 001614   000002 631400 xsym               EPPR1   B_VECTNIL+2
         2 001615   000000 701000 xent               TSX1    DDS$SET_Q2X
         2 001616   001701 702000 2                  TSX2    SYXDEF

      620    17357    3                 S_D.XOU_NAME.SIZE = PINCRW(S_D.DNAME$, S_D.XSCH.NPOINTER) -> B$DNAME.
             17357                           COUNT;

  17357  2 001617   000004 470400 3                  LDP0    4
         2 001620   000754 720100                    LXL0    492,,PR0
         2 001621   001041 471500                    LDP1    545,,PR0
         2 001622   100000 236110                    LDQ     0,X0,PR1
         2 001623   000011 736000                    QLS     9
         2 001624   001021 552140                    STBQ    529,'40'O,PR0
PL6.E3A0      #001=DUI$1STIME File=DUI$1STIME.:E05TSI                            TUE 07/29/97 14:53 Page:88

      621    17358    3                 S_D.XOU_NAME.TEXT = PINCRW(S_D.DNAME$, S_D.XSCH.NPOINTER) -> B$DNAME.
             17358                           TEXT;

  17358  2 001625   100000 221110                    LDX1    0,X0,PR1
         2 001626   000000 635010                    EAA     0,X0
         2 001627   000020 771000                    ARL     16
         2 001630   040100 100545                    MLR     fill='040'O
         2 001631   100000 400011                    ADSC9   0,A,PR1                  cn=2,n=*X1
         2 001632   001021 200037                    ADSC9   529,,PR0                 cn=1,n=31

      622    17359                       /* Set up TRAP defaults - DIVIDE_CHECK and OVERFLOW */
      623    17360    3                  OPTARRY = '0'B;

  17360  2 001633   200051 450100                    STZ     OPTARRY,,AUTO

      624    17361    3                  OPTARRY(5) = '1'B;   /* OVERFLOW */

  17361  2 001634   010000 236003                    LDQ     4096,DU
         2 001635   200051 256100                    ORSQ    OPTARRY,,AUTO

      625    17362    3                  OPTARRY(6) = '1'B;   /* DIVIDE_CHECK */

  17362  2 001636   004000 236003                    LDQ     2048,DU
         2 001637   200051 256100                    ORSQ    OPTARRY,,AUTO

      626    17363    3                  S_D.TRAP = OPTIONS;

  17363  2 001640   200051 236100                    LDQ     OPTARRY,,AUTO
         2 001641   004730 756100                    STQ     2520,,PR0

      627    17364    3                  S_D.IGNORE = S_D.IGNORE & ~OPTIONS;

  17364  2 001642   000027 676000 xsym               ERQ     B_VECTNIL+23
         2 001643   004731 376100                    ANQ     2521,,PR0
         2 001644   004731 756100                    STQ     2521,,PR0

PL6.E3A0      #001=DUI$1STIME File=DUI$1STIME.:E05TSI                            TUE 07/29/97 14:53 Page:89
      628    17365    3                  S_D.KEEP = ~(S_D.TRAP | S_D.IGNORE);

  17365  2 001645   004730 276100                    ORQ     2520,,PR0
         2 001646   000027 676000 xsym               ERQ     B_VECTNIL+23
         2 001647   004727 756100                    STQ     2519,,PR0

      629    17366    3                END;

  17366  2 001650   001661 710000 2                  TRA     s:17373

      630    17367    2             ELSE IF S_D.SYNTAX = %GMAPID AND NOT S_D.ANLZ

  17367  2 001651   000000 115003                    CMPA    0,DU
         2 001652   001661 601000 2                  TNZ     s:17373
         2 001653   004756 234100                    SZN     2542,,PR0
         2 001654   001661 604000 2                  TMI     s:17373

      631    17368    3                  THEN DO;

      632    17369    3                       S_D.S$TEP.MODE = C@INSTRUCTIONS; /*C@INSTRUCTIONS*/

  17369  2 001655   001105 236007                    LDQ     581,DL
         2 001656   005310 756100                    STQ     2760,,PR0

      633    17370    3                       S_D.BYPASS = '0'B;

  17370  2 001657   001032 450100                    STZ     538,,PR0

      634    17371    3                       S_D.BYPASS_SAVE = '0'B;

  17371  2 001660   000074 450100                    STZ     60,,PR0

      635    17372    3                     END;

      636    17373    2             TEMP$ = DD_COMPNODE$(S_D.SYNTAX);

  17373  2 001661   005235 720100                    LXL0    2717,,PR0
PL6.E3A0      #001=DUI$1STIME File=DUI$1STIME.:E05TSI                            TUE 07/29/97 14:53 Page:90
         2 001662   000000 236010 xsym               LDQ     DD_COMPNODE$,X0
         2 001663   200012 756100                    STQ     TEMP$,,AUTO

      637    17374    3             DO I = 0 TO SIZEW(DD_COMP_NODE_PTR$)-1;

  17374  2 001664   200015 450100                    STZ     I,,AUTO
         2 001665   001676 710000 2                  TRA     s:17377+3

      638    17375    3                  DD_COMP_NODE_PTR$(I) -> DD_NODE.SUBNDS$(0) =

  17375  2 001666   200015 720100                    LXL0    I,,AUTO
         2 001667   000000 470410 xsym               LDP0    DD_COMP_NODE_PTR$,X0
         2 001670   200012 471500                    LDP1    TEMP$,,AUTO
         2 001671   100000 236110                    LDQ     0,X0,PR1
         2 001672   000001 756100                    STQ     1,,PR0

      639    17376    3                    TEMP$ -> DD$COMP_NODE_PTR$(I);
      640    17377    3                END;

  17377  2 001673   200015 235100                    LDA     I,,AUTO
         2 001674   000001 035007                    ADLA    1,DL
         2 001675   200015 755100                    STA     I,,AUTO
         2 001676   200015 235100                    LDA     I,,AUTO
         2 001677   000014 115007                    CMPA    12,DL
         2 001700   001666 602000 2                  TNC     s:17375

      641    17378    2           END;

  17374  2 001701                       SYXDEF       null
      642    17379    1   SYXDEF: ;
      643    17380    1        S_D.ACCESS = '0'B;

  17380  2 001701   000004 470400 3                  LDP0    4
         2 001702   000016 450100                    STZ     14,,PR0

      644    17381        /* Establish access to overlaid programs */
      645    17382    1        IF S_D.B$ROS$ = ADDR( NIL )
PL6.E3A0      #001=DUI$1STIME File=DUI$1STIME.:E05TSI                            TUE 07/29/97 14:53 Page:91

  17382  2 001703   004775 236100                    LDQ     2557,,PR0
         2 001704   000001 116000 xsym               CMPQ    B_VECTNIL+1
         2 001705   002506 600000 2                  TZE     RETN

      646    17383    1        THEN GOTO RETN;
      647    17384    1              IF S_D.ANLZ AND S_D.ANLZ_FILE THEN

  17384  2 001706   004756 234100                    SZN     2542,,PR0
         2 001707   002177 605000 2                  TPL     s:17441
         2 001710   005052 234100                    SZN     2602,,PR0
         2 001711   002177 605000 2                  TPL     s:17441

      648    17385    2                 DO;

      649    17386
      650    17387    2                  DCBPTR$ = PINCRW( S_D.B$ROS$, SIZEW( B$ROSEG ) );

  17387  2 001712   000124 036003                    ADLQ    84,DU
         2 001713   200034 756100                    STQ     DCBPTR$,,AUTO

      651    17388    2                  S_D.B$ROS$ -> B$ROSEG.DCBPTR$ = DCBPTR$;

  17388  2 001714   004775 471500                    LDP1    2557,,PR0
         2 001715   100000 756100                    STQ     0,,PR1

      652    17389    3                  DO IX = 1 TO %M$1STDCB#;

  17389  2 001716   000001 235007                    LDA     1,DL
         2 001717   200045 755100                    STA     IX,,AUTO

      653    17390    3                       DCBPTR$ -> DCB$PTR$ = ADDR( NIL );

  17390  2 001720   000001 236000 xsym               LDQ     B_VECTNIL+1
         2 001721   200034 470500                    LDP0    DCBPTR$,,AUTO
         2 001722   000000 756100                    STQ     0,,PR0

PL6.E3A0      #001=DUI$1STIME File=DUI$1STIME.:E05TSI                            TUE 07/29/97 14:53 Page:92
      654    17391    3                       DCBPTR$ = PINCRW( DCBPTR$, SIZEW( DCB$PTR$ ) );

  17391  2 001723   200034 236100                    LDQ     DCBPTR$,,AUTO
         2 001724   000001 036003                    ADLQ    1,DU
         2 001725   200034 756100                    STQ     DCBPTR$,,AUTO

      655    17392    3                     END;

  17392  2 001726   200045 235100                    LDA     IX,,AUTO
         2 001727   000001 035007                    ADLA    1,DL
         2 001730   200045 755100                    STA     IX,,AUTO
         2 001731   000013 115007                    CMPA    11,DL
         2 001732   001720 602000 2                  TNC     s:17390

      656    17393                                      /* Read read-only-segment from RU into memory */
      657    17394    2                  TOGET = ROSIZE * SIZEC( ROSIZE );

  17394  2 001733   200035 235100                    LDA     ROSIZE,,AUTO
         2 001734   000002 735000                    ALS     2
         2 001735   200043 755100                    STA     TOGET,,AUTO

      658    17395    2                  IF S_D.NODESEG_USED$ < PINCRW(DCBPTR$, ROSIZE) THEN

  17395  2 001736   000004 470400 3                  LDP0    4
         2 001737   200035 236100                    LDQ     ROSIZE,,AUTO
         2 001740   000022 736000                    QLS     18
         2 001741   200034 036100                    ADLQ    DCBPTR$,,AUTO
         2 001742   004771 116100                    CMPQ    2553,,PR0
         2 001743   002000 602000 2                  TNC     s:17401
         2 001744   002000 600000 2                  TZE     s:17401

      659    17396    3                    DO;

      660    17397    3                       NEEDSIZE =  ((POFFW(PINCRW(DCBPTR$, ROSIZE), S_D.NODESEG_USED$)
             17397                                +3)/4 )*4;

  17397  2 001745   200035 236100                    LDQ     ROSIZE,,AUTO
PL6.E3A0      #001=DUI$1STIME File=DUI$1STIME.:E05TSI                            TUE 07/29/97 14:53 Page:93
         2 001746   000022 736000                    QLS     18
         2 001747   200034 036100                    ADLQ    DCBPTR$,,AUTO
         2 001750   000022 772000                    QRL     18
         2 001751   200414 756100                    STQ     FPT$DRTN+14,,AUTO
         2 001752   004771 236100                    LDQ     2553,,PR0
         2 001753   000022 772000                    QRL     18
         2 001754   200415 756100                    STQ     FPT$DRTN+15,,AUTO
         2 001755   200414 236100                    LDQ     FPT$DRTN+14,,AUTO
         2 001756   200415 136100                    SBLQ    FPT$DRTN+15,,AUTO
         2 001757   000003 036007                    ADLQ    3,DL
         2 001760   000004 506007                    DIV     4,DL
         2 001761   000002 736000                    QLS     2
         2 001762   200044 756100                    STQ     NEEDSIZE,,AUTO

      661    17398    3                       CALL DDM$GETMEM( DD_ANLZSEG$, NEEDSIZE) ALTRET(NODEFS4);

  17398  2 001763   200044 631500                    EPPR1   NEEDSIZE,,AUTO
         2 001764   200415 451500                    STP1    FPT$DRTN+15,,AUTO
         2 001765   000045 236000 3                  LDQ     37
         2 001766   200414 756100                    STQ     FPT$DRTN+14,,AUTO
         2 001767   200414 630500                    EPPR0   FPT$DRTN+14,,AUTO
         2 001770   000020 631400 xsym               EPPR1   B_VECTNIL+16
         2 001771   000000 701000 xent               TSX1    DDM$GETMEM
         2 001772   001353 702000 2                  TSX2    NODEFS4

      662    17399    3                       S_D.NODESEG_USED$ = PINCRW(S_D.NODESEG_USED$, NEEDSIZE);

  17399  2 001773   000004 470400 3                  LDP0    4
         2 001774   004771 471500                    LDP1    2553,,PR0
         2 001775   200044 720100                    LXL0    NEEDSIZE,,AUTO
         2 001776   100000 633510                    EPPR3   0,X0,PR1
         2 001777   004771 453500                    STP3    2553,,PR0

      663    17400    3                    END;

      664    17401    2                  PAGE = 0;

PL6.E3A0      #001=DUI$1STIME File=DUI$1STIME.:E05TSI                            TUE 07/29/97 14:53 Page:94
  17401  2 002000   200037 450100                    STZ     PAGE,,AUTO

      665    17402    2                  ARS = 0;

  17402  2 002001   200013 450100                    STZ     ARS,,AUTO

      666    17403    2                  TEMP$ = DCBPTR$;

  17403  2 002002   200034 236100                    LDQ     DCBPTR$,,AUTO
         2 002003   200012 756100                    STQ     TEMP$,,AUTO

      667    17404    3                  DO WHILE ( TOGET > 0 );

  17404  2 002004   200043 235100                    LDA     TOGET,,AUTO
         2 002005   002043 604400 2                  TMOZ    s:17411

      668    17405    3                       CALL DDQ$READLM( %TYPROS, PAGE, S_D.NODE, TEMP$, TOGET, ARS )
             17405                                ALTRET( NODEFS4 );

  17405  2 002006   200013 630500                    EPPR0   ARS,,AUTO
         2 002007   200421 450500                    STP0    FPT$DRTN+19,,AUTO
         2 002010   200043 631500                    EPPR1   TOGET,,AUTO
         2 002011   200420 451500                    STP1    FPT$DRTN+18,,AUTO
         2 002012   200012 633500                    EPPR3   TEMP$,,AUTO
         2 002013   200417 453500                    STP3    FPT$DRTN+17,,AUTO
         2 002014   000026 236000 3                  LDQ     22
         2 002015   200416 756100                    STQ     FPT$DRTN+16,,AUTO
         2 002016   200037 634500                    EPPR4   PAGE,,AUTO
         2 002017   200415 454500                    STP4    FPT$DRTN+15,,AUTO
         2 002020   000047 236000 3                  LDQ     39
         2 002021   200414 756100                    STQ     FPT$DRTN+14,,AUTO
         2 002022   200414 630500                    EPPR0   FPT$DRTN+14,,AUTO
         2 002023   000024 631400 xsym               EPPR1   B_VECTNIL+20
         2 002024   000000 701000 xent               TSX1    DDQ$READLM
         2 002025   001353 702000 2                  TSX2    NODEFS4

      669    17406    3                       PAGE = PAGE + BHEAD.PRECSIZE;
PL6.E3A0      #001=DUI$1STIME File=DUI$1STIME.:E05TSI                            TUE 07/29/97 14:53 Page:95

  17406  2 002026   200072 236100                    LDQ     BHEAD+6,,AUTO
         2 002027   000022 772000                    QRL     18
         2 002030   200037 036100                    ADLQ    PAGE,,AUTO
         2 002031   200037 756100                    STQ     PAGE,,AUTO

      670    17407    3                       TOGET = TOGET - ARS;

  17407  2 002032   200043 236100                    LDQ     TOGET,,AUTO
         2 002033   200013 136100                    SBLQ    ARS,,AUTO
         2 002034   200043 756100                    STQ     TOGET,,AUTO

      671    17408    3                       TEMP$ = PINCRC( TEMP$, ARS );

  17408  2 002035   200013 236100                    LDQ     ARS,,AUTO
         2 002036   000020 736000                    QLS     16
         2 002037   200012 036100                    ADLQ    TEMP$,,AUTO
         2 002040   200012 756100                    STQ     TEMP$,,AUTO

      672    17409    3                     END;

  17409  2 002041   200043 235100                    LDA     TOGET,,AUTO
         2 002042   002006 605400 2                  TPNZ    s:17405

      673    17410                                           /* Setup pointers to user defined dcbs */
      674    17411    2                  TOGET = BHEAD.UDCBNUM;

  17411  2 002043   200070 235100                    LDA     BHEAD+4,,AUTO
         2 002044   000022 771000                    ARL     18
         2 002045   200043 755100                    STA     TOGET,,AUTO

      675    17412    2                  DCBRES = BHEAD.DCBRES;

  17412  2 002046   200070 236100                    LDQ     BHEAD+4,,AUTO
         2 002047   777777 376007                    ANQ     -1,DL
         2 002050   200046 756100                    STQ     DCBRES,,AUTO

PL6.E3A0      #001=DUI$1STIME File=DUI$1STIME.:E05TSI                            TUE 07/29/97 14:53 Page:96
      676    17413    2                  S_D.B$ROS$ -> B$ROSEG.NUMDCBS = %M$1STDCB# - 1 + TOGET + DCBRES;

  17413  2 002051   000004 470400 3                  LDP0    4
         2 002052   004775 471500                    LDP1    2557,,PR0
         2 002053   200043 036100                    ADLQ    TOGET,,AUTO
         2 002054   000011 620006                    EAX0    9,QL
         2 002055   100002 740100                    STX0    2,,PR1

      677    17414    2                  TEMP$ = DCBPTR$;

  17414  2 002056   200034 236100                    LDQ     DCBPTR$,,AUTO
         2 002057   200012 756100                    STQ     TEMP$,,AUTO

      678    17415    3                  DO IX = 1 TO TOGET;

  17415  2 002060   000001 235007                    LDA     1,DL
         2 002061   200045 755100                    STA     IX,,AUTO
         2 002062   002076 710000 2                  TRA     s:17418+3

      679    17416    3                       DCBPTR$ -> DCB$PTR$ = PINCRW( TEMP$, DCBPTR$ -> PTR$WORD.LH );

  17416  2 002063   200034 470500                    LDP0    DCBPTR$,,AUTO
         2 002064   000000 220100                    LDX0    0,,PR0
         2 002065   000000 636010                    EAQ     0,X0
         2 002066   200012 036100                    ADLQ    TEMP$,,AUTO
         2 002067   000000 756100                    STQ     0,,PR0

      680    17417    3                       DCBPTR$ = PINCRW( DCBPTR$, SIZEW( DCB$PTR$ ) );

  17417  2 002070   200034 236100                    LDQ     DCBPTR$,,AUTO
         2 002071   000001 036003                    ADLQ    1,DU
         2 002072   200034 756100                    STQ     DCBPTR$,,AUTO

      681    17418    3                     END;

  17418  2 002073   200045 235100                    LDA     IX,,AUTO
         2 002074   000001 035007                    ADLA    1,DL
PL6.E3A0      #001=DUI$1STIME File=DUI$1STIME.:E05TSI                            TUE 07/29/97 14:53 Page:97
         2 002075   200045 755100                    STA     IX,,AUTO
         2 002076   200045 236100                    LDQ     IX,,AUTO
         2 002077   002102 604000 2                  TMI     s:17419
         2 002100   200043 116100                    CMPQ    TOGET,,AUTO
         2 002101   002063 604400 2                  TMOZ    s:17416

      682    17419    3                  DO IX = 1 TO DCBRES;

  17419  2 002102   000001 235007                    LDA     1,DL
         2 002103   200045 755100                    STA     IX,,AUTO
         2 002104   002116 710000 2                  TRA     s:17422+3

      683    17420    3                       DCBPTR$ -> DCB$PTR$ = ADDR( NIL );

  17420  2 002105   000001 236000 xsym               LDQ     B_VECTNIL+1
         2 002106   200034 470500                    LDP0    DCBPTR$,,AUTO
         2 002107   000000 756100                    STQ     0,,PR0

      684    17421    3                       DCBPTR$ = PINCRW( DCBPTR$, SIZEW( DCBPTR$ ) );

  17421  2 002110   200034 236100                    LDQ     DCBPTR$,,AUTO
         2 002111   000001 036003                    ADLQ    1,DU
         2 002112   200034 756100                    STQ     DCBPTR$,,AUTO

      685    17422    3                     END;

  17422  2 002113   200045 235100                    LDA     IX,,AUTO
         2 002114   000001 035007                    ADLA    1,DL
         2 002115   200045 755100                    STA     IX,,AUTO
         2 002116   200046 236100                    LDQ     DCBRES,,AUTO
         2 002117   200045 116100                    CMPQ    IX,,AUTO
         2 002120   002105 603000 2                  TRC     s:17420

      686    17423                                                /* Setup tree table pointers */
      687    17424    2                  IF BHEAD.OVRL

  17424  2 002121   200106 236100                    LDQ     BHEAD+18,,AUTO
PL6.E3A0      #001=DUI$1STIME File=DUI$1STIME.:E05TSI                            TUE 07/29/97 14:53 Page:98
         2 002122   000010 316003                    CANQ    8,DU
         2 002123   002170 600000 2                  TZE     s:17437

      688    17425    3                    THEN DO;              /* program is overlayed */

      689    17426    3                       TEMP$ = PINCRW( TEMP$, BHEAD.TREEDISP );

  17426  2 002124   200071 236100                    LDQ     BHEAD+5,,AUTO
         2 002125   777777 376003                    ANQ     -1,DU
         2 002126   200012 036100                    ADLQ    TEMP$,,AUTO
         2 002127   200012 756100                    STQ     TEMP$,,AUTO

      690    17427    3                       S_D.B$ROS$ -> B$ROSEG.TREE$ = TEMP$;

  17427  2 002130   000004 470400 3                  LDP0    4
         2 002131   004775 471500                    LDP1    2557,,PR0
         2 002132   100001 756100                    STQ     1,,PR1

      691    17428    3                       TEMP1$ = PINCRW( TEMP$, SIZEW( B$TREEHDR ) );

  17428  2 002133   200012 236100                    LDQ     TEMP$,,AUTO
         2 002134   000003 036003                    ADLQ    3,DU
         2 002135   200036 756100                    STQ     TEMP1$,,AUTO

      692    17429    3                       TEMP1$ -> B$NODE.FLGS.NOW_IN( 0 ) = '1'B; /* Root as in */

  17429  2 002136   200036 471500                    LDP1    TEMP1$,,AUTO
         2 002137   400000 236003                    LDQ     -131072,DU
         2 002140   100001 256100                    ORSQ    1,,PR1

      693    17430    3                       S_D.PADDR = TEMP1$ -> B$NODE.PADDR( 0 );

  17430  2 002141   100003 236100                    LDQ     3,,PR1
         2 002142   000022 772000                    QRL     18
         2 002143   004765 756100                    STQ     2549,,PR0

      694    17431    4                       DO IX = 0 TO TEMP$ -> B$TREEHDR.NODES - 1;
PL6.E3A0      #001=DUI$1STIME File=DUI$1STIME.:E05TSI                            TUE 07/29/97 14:53 Page:99

  17431  2 002144   200045 450100                    STZ     IX,,AUTO
         2 002145   002161 710000 2                  TRA     s:17434+3

      695    17432    4                            TEMP1$ -> B$NODE.NAME$( 0 ) = PINCRW( TEMP$, TEMP1$ ->
             17432                                     PTR$WORD.LH );

  17432  2 002146   200036 470500                    LDP0    TEMP1$,,AUTO
         2 002147   000000 220100                    LDX0    0,,PR0
         2 002150   000000 636010                    EAQ     0,X0
         2 002151   200012 036100                    ADLQ    TEMP$,,AUTO
         2 002152   000000 756100                    STQ     0,,PR0

      696    17433    4                            TEMP1$ = PINCRW( TEMP1$, SIZEW( B$NODE ) );

  17433  2 002153   200036 236100                    LDQ     TEMP1$,,AUTO
         2 002154   000006 036003                    ADLQ    6,DU
         2 002155   200036 756100                    STQ     TEMP1$,,AUTO

      697    17434    4                          END;

  17434  2 002156   200045 235100                    LDA     IX,,AUTO
         2 002157   000001 035007                    ADLA    1,DL
         2 002160   200045 755100                    STA     IX,,AUTO
         2 002161   200012 470500                    LDP0    TEMP$,,AUTO
         2 002162   000000 236100                    LDQ     0,,PR0
         2 002163   000022 772000                    QRL     18
         2 002164   200045 116100                    CMPQ    IX,,AUTO
         2 002165   002167 600000 2                  TZE     s:17435
         2 002166   002146 603000 2                  TRC     s:17432

      698    17435    3                    END;

  17435  2 002167   002177 710000 2                  TRA     s:17441

      699    17436    3                    ELSE DO;              /* program isn't overlayed */

PL6.E3A0      #001=DUI$1STIME File=DUI$1STIME.:E05TSI                            TUE 07/29/97 14:53 Page:100
      700    17437    3                       S_D.B$ROS$ -> B$ROSEG.TREE$ = ADDR( NIL );

  17437  2 002170   000004 470400 3                  LDP0    4
         2 002171   004775 471500                    LDP1    2557,,PR0
         2 002172   000001 236000 xsym               LDQ     B_VECTNIL+1
         2 002173   100001 756100                    STQ     1,,PR1

      701    17438    3                       S_D.PADDR = BHEAD.START;

  17438  2 002174   200067 236100                    LDQ     BHEAD+3,,AUTO
         2 002175   000032 376000 3                  ANQ     26
         2 002176   004765 756100                    STQ     2549,,PR0

      702    17439    3                    END;

      703    17440    2                END;

      704    17441    1        TEMP$ = S_D.B$ROS$ -> B$ROSEG.TREE$;

  17441  2 002177   000004 470400 3                  LDP0    4
         2 002200   004775 471500                    LDP1    2557,,PR0
         2 002201   100001 236100                    LDQ     1,,PR1
         2 002202   200012 756100                    STQ     TEMP$,,AUTO

      705    17442    1        IF GOTHEAD AND BHEAD.OVRL AND

  17442  2 002203   200032 234100                    SZN     GOTHEAD,,AUTO
         2 002204   002506 605000 2                  TPL     RETN
         2 002205   200106 236100                    LDQ     BHEAD+18,,AUTO
         2 002206   000010 316003                    CANQ    8,DU
         2 002207   002506 600000 2                  TZE     RETN
         2 002210   004756 234100                    SZN     2542,,PR0
         2 002211   002214 605000 2                  TPL     s:17442+9
         2 002212   005052 234100                    SZN     2602,,PR0
         2 002213   002506 605000 2                  TPL     RETN
         2 002214   005324 234100                    SZN     2772,,PR0
         2 002215   002506 604000 2                  TMI     RETN
PL6.E3A0      #001=DUI$1STIME File=DUI$1STIME.:E05TSI                            TUE 07/29/97 14:53 Page:101

      706    17443    1           NOT (S_D.ANLZ AND NOT(S_D.ANLZ_FILE)) AND
      707    17444    1           NOT S_D.ANLZ_KLUDGE
      708    17445    2        THEN DO;

      709    17446    2             S_D.B$TREEHDR$ = TEMP$;

  17446  2 002216   200012 236100                    LDQ     TEMP$,,AUTO
         2 002217   004770 756100                    STQ     2552,,PR0

      710    17447    2             TSIZE = TEMP$ -> B$TREEHDR.NODES;

  17447  2 002220   200012 473500                    LDP3    TEMP$,,AUTO
         2 002221   300000 236100                    LDQ     0,,PR3
         2 002222   000022 772000                    QRL     18
         2 002223   200014 756100                    STQ     TSIZE,,AUTO

      711    17448    2             TEMP$ = PINCRW( TEMP$, SIZEW( B$TREEHDR ) );

  17448  2 002224   200012 236100                    LDQ     TEMP$,,AUTO
         2 002225   000003 036003                    ADLQ    3,DU
         2 002226   200012 756100                    STQ     TEMP$,,AUTO

      712    17449    2             S_D.B$TREE$ = TEMP$;

  17449  2 002227   004767 756100                    STQ     2551,,PR0

      713    17450    2             S_D.NODE#M1 = TSIZE - 1;

  17450  2 002230   200014 235100                    LDA     TSIZE,,AUTO
         2 002231   000001 135007                    SBLA    1,DL
         2 002232   004766 755100                    STA     2550,,PR0

      714    17451    2             ARS = 2 * (TSIZE+1) * SIZEW(DU$TREE) + TSIZE * SIZEW(DU$NODE);

  17451  2 002233   200014 236100                    LDQ     TSIZE,,AUTO
         2 002234   000007 402007                    MPY     7,DL
PL6.E3A0      #001=DUI$1STIME File=DUI$1STIME.:E05TSI                            TUE 07/29/97 14:53 Page:102
         2 002235   200414 756100                    STQ     FPT$DRTN+14,,AUTO
         2 002236   200014 236100                    LDQ     TSIZE,,AUTO
         2 002237   000006 402007                    MPY     6,DL
         2 002240   200414 036100                    ADLQ    FPT$DRTN+14,,AUTO
         2 002241   000006 036007                    ADLQ    6,DL
         2 002242   200013 756100                    STQ     ARS,,AUTO

      715    17452    2             NEED = POFFW( S_D.NODESEG_USED$, S_D.NODESEG$ ) - ARS;

  17452  2 002243   005003 236100                    LDQ     2563,,PR0
         2 002244   000022 772000                    QRL     18
         2 002245   200414 756100                    STQ     FPT$DRTN+14,,AUTO
         2 002246   004771 236100                    LDQ     2553,,PR0
         2 002247   000022 772000                    QRL     18
         2 002250   200414 136100                    SBLQ    FPT$DRTN+14,,AUTO
         2 002251   200013 136100                    SBLQ    ARS,,AUTO
         2 002252   200041 756100                    STQ     NEED,,AUTO

      716    17453    2             IF NEED < 0

  17453  2 002253   002276 605000 2                  TPL     s:17459

      717    17454    3             THEN DO;

      718    17455    3                  ARS = ( ( -NEED + @PSIZ - 1 ) / @PSIZ ) * @PSIZ;

  17455  2 002254   000027 676000 xsym               ERQ     B_VECTNIL+23
         2 002255   002000 036007                    ADLQ    1024,DL
         2 002256   002000 506007                    DIV     1024,DL
         2 002257   000012 736000                    QLS     10
         2 002260   200013 756100                    STQ     ARS,,AUTO

      719    17456    3                  CALL DDM$GETMEM( S_D.NODESEG$, ARS ) ALTRET( NOOV1 );

  17456  2 002261   200013 633500                    EPPR3   ARS,,AUTO
         2 002262   200415 453500                    STP3    FPT$DRTN+15,,AUTO
         2 002263   000050 236000 3                  LDQ     40
PL6.E3A0      #001=DUI$1STIME File=DUI$1STIME.:E05TSI                            TUE 07/29/97 14:53 Page:103
         2 002264   200414 756100                    STQ     FPT$DRTN+14,,AUTO
         2 002265   200414 630500                    EPPR0   FPT$DRTN+14,,AUTO
         2 002266   000020 631400 xsym               EPPR1   B_VECTNIL+16
         2 002267   000000 701000 xent               TSX1    DDM$GETMEM
         2 002270   002500 702000 2                  TSX2    NOOV1

      720    17457    3                  S_D.NODESEG_USED$ = PINCRW( S_D.NODESEG_USED$, ARS );

  17457  2 002271   000004 470400 3                  LDP0    4
         2 002272   004771 471500                    LDP1    2553,,PR0
         2 002273   200013 720100                    LXL0    ARS,,AUTO
         2 002274   100000 633510                    EPPR3   0,X0,PR1
         2 002275   004771 453500                    STP3    2553,,PR0

      721    17458    3                END;

      722    17459    2             S_D.OVERLAID = '1'B;

  17459  2 002276   400000 236003                    LDQ     -131072,DU
         2 002277   004764 756100                    STQ     2548,,PR0

      723    17460    2             S_D.MTREE$ = PINCRW( S_D.NODESEG$, SIZEW( DU$NODE ) * TSIZE );

  17460  2 002300   005003 471500                    LDP1    2563,,PR0
         2 002301   200014 236100                    LDQ     TSIZE,,AUTO
         2 002302   000007 402007                    MPY     7,DL
         2 002303   100000 633506                    EPPR3   0,QL,PR1
         2 002304   004762 453500                    STP3    2546,,PR0

      724    17461    2             S_D.UTREE$ = PINCRW( S_D.MTREE$, SIZEW( DU$TREE ) * (TSIZE+1) );

  17461  2 002305   200014 236100                    LDQ     TSIZE,,AUTO
         2 002306   000003 402007                    MPY     3,DL
         2 002307   300003 634506                    EPPR4   3,QL,PR3
         2 002310   004763 454500                    STP4    2547,,PR0

      725    17462    2             S_D.NODESEG_NEXT$ = PINCRW( S_D.UTREE$, SIZEW( DU$TREE ) * (TSIZE+1) );
PL6.E3A0      #001=DUI$1STIME File=DUI$1STIME.:E05TSI                            TUE 07/29/97 14:53 Page:104

  17462  2 002311   400003 635506                    EPPR5   3,QL,PR4
         2 002312   004772 455500                    STP5    2554,,PR0

      726    17463    2             NODESEG$ = S_D.NODESEG$;

  17463  2 002313   005003 236100                    LDQ     2563,,PR0
         2 002314   200042 756100                    STQ     NODESEG$,,AUTO

      727    17464        /* Init USE NODE tree */
      728    17465    2             TEMP$ = S_D.UTREE$;

  17465  2 002315   004763 236100                    LDQ     2547,,PR0
         2 002316   200012 756100                    STQ     TEMP$,,AUTO

      729    17466    3             DO I = 0 TO TSIZE;

  17466  2 002317   200015 450100                    STZ     I,,AUTO
         2 002320   002334 710000 2                  TRA     s:17470+3

      730    17467    3                  TEMP$ -> DU$TREE.NEXT# = -1;

  17467  2 002321   000001 335007                    LCA     1,DL
         2 002322   200012 470500                    LDP0    TEMP$,,AUTO
         2 002323   000000 755100                    STA     0,,PR0

      731    17468    3                  TEMP$ -> DU$TREE.NOW_IN = '0'B;

  17468  2 002324   200012 470500                    LDP0    TEMP$,,AUTO
         2 002325   000002 450100                    STZ     2,,PR0

      732    17469    3                  TEMP$ = PINCRW( TEMP$, SIZEW( DU$TREE ) );

  17469  2 002326   200012 236100                    LDQ     TEMP$,,AUTO
         2 002327   000003 036003                    ADLQ    3,DU
         2 002330   200012 756100                    STQ     TEMP$,,AUTO

PL6.E3A0      #001=DUI$1STIME File=DUI$1STIME.:E05TSI                            TUE 07/29/97 14:53 Page:105
      733    17470    3                END;

  17470  2 002331   200015 235100                    LDA     I,,AUTO
         2 002332   000001 035007                    ADLA    1,DL
         2 002333   200015 755100                    STA     I,,AUTO
         2 002334   200014 236100                    LDQ     TSIZE,,AUTO
         2 002335   200015 116100                    CMPQ    I,,AUTO
         2 002336   002321 603000 2                  TRC     s:17467

      734    17471        /* Sort the tree backwards by load address */
      735    17472    3             DO I = 0 TO S_D.NODE#M1;

  17472  2 002337   200015 450100                    STZ     I,,AUTO
         2 002340   002364 710000 2                  TRA     s:17480+2

      736    17473    3                  DU$NODE.INDX#( I ) = I;  /* Init sort keys */

  17473  2 002341   200015 236100                    LDQ     I,,AUTO
         2 002342   000007 402007                    MPY     7,DL
         2 002343   200042 470500                    LDP0    NODESEG$,,AUTO
         2 002344   200015 235100                    LDA     I,,AUTO
         2 002345   000000 755106                    STA     0,QL,PR0

      737    17474    3                  DU$NODE.GOTDEFS( I ) = '0'B;

  17474  2 002346   000001 450106                    STZ     1,QL,PR0

      738    17475    3                  DU$NODE.EDEF$( I ) = ADDR( NIL );

  17475  2 002347   000000 620006                    EAX0    0,QL
         2 002350   000001 236000 xsym               LDQ     B_VECTNIL+1
         2 002351   000002 756110                    STQ     2,X0,PR0

      739    17476    3                  DU$NODE.EDEF_END$( I ) = ADDR( NIL );

  17476  2 002352   000001 236000 xsym               LDQ     B_VECTNIL+1
         2 002353   000003 756110                    STQ     3,X0,PR0
PL6.E3A0      #001=DUI$1STIME File=DUI$1STIME.:E05TSI                            TUE 07/29/97 14:53 Page:106

      740    17477    3                  DU$NODE.SDEF$( I ) = ADDR( NIL );

  17477  2 002354   000001 236000 xsym               LDQ     B_VECTNIL+1
         2 002355   000004 756110                    STQ     4,X0,PR0

      741    17478    3                  DU$NODE.SDEF_END$( I ) = ADDR( NIL );

  17478  2 002356   000001 236000 xsym               LDQ     B_VECTNIL+1
         2 002357   000005 756110                    STQ     5,X0,PR0

      742    17479    3                  DU$NODE.DNAME$( I ) = ADDR( NIL );

  17479  2 002360   000001 236000 xsym               LDQ     B_VECTNIL+1
         2 002361   000006 756110                    STQ     6,X0,PR0

      743    17480    3                END;

  17480  2 002362   000001 035007                    ADLA    1,DL
         2 002363   200015 755100                    STA     I,,AUTO
         2 002364   000004 470400 3                  LDP0    4
         2 002365   004766 236100                    LDQ     2550,,PR0
         2 002366   200015 116100                    CMPQ    I,,AUTO
         2 002367   002341 603000 2                  TRC     s:17473

      744    17481    2             K = S_D.NODE#M1;

  17481  2 002370   200017 756100                    STQ     K,,AUTO

      745    17482    3             DO WHILE ( K > 0 );

  17482  2 002371   000000 116003                    CMPQ    0,DU
         2 002372   002441 600000 2                  TZE     s:17496

      746    17483    3                  J = K - 1;

  17483  2 002373   200017 235100                    LDA     K,,AUTO
PL6.E3A0      #001=DUI$1STIME File=DUI$1STIME.:E05TSI                            TUE 07/29/97 14:53 Page:107
         2 002374   000001 135007                    SBLA    1,DL
         2 002375   200016 755100                    STA     J,,AUTO

      747    17484    3                  K = 0;

  17484  2 002376   200017 450100                    STZ     K,,AUTO

      748    17485    4                  DO I = 0 TO J;

  17485  2 002377   200015 450100                    STZ     I,,AUTO
         2 002400   002434 710000 2                  TRA     s:17494+3

      749    17486    4                       T1 = DU$NODE.INDX#( I );

  17486  2 002401   200015 236100                    LDQ     I,,AUTO
         2 002402   000007 402007                    MPY     7,DL
         2 002403   200042 470500                    LDP0    NODESEG$,,AUTO
         2 002404   000000 235106                    LDA     0,QL,PR0
         2 002405   200020 755100                    STA     T1,,AUTO

      750    17487    4                       T2 = DU$NODE.INDX#( I+1 );

  17487  2 002406   000007 235106                    LDA     7,QL,PR0
         2 002407   200021 755100                    STA     T2,,AUTO

      751    17488    4                       IF S_D.B$TREE$ -> B$NODE.PADDR( T1 ) < S_D.B$TREE$ -> B$NODE.
             17488                                PADDR( T2 )

  17488  2 002410   000004 471400 3                  LDP1    4
         2 002411   104767 473500                    LDP3    2551,,PR1
         2 002412   200020 236100                    LDQ     T1,,AUTO
         2 002413   000006 402007                    MPY     6,DL
         2 002414   300003 220106                    LDX0    3,QL,PR3
         2 002415   200021 236100                    LDQ     T2,,AUTO
         2 002416   000006 402007                    MPY     6,DL
         2 002417   300003 100106                    CMPX0   3,QL,PR3
         2 002420   002431 603000 2                  TRC     s:17494
PL6.E3A0      #001=DUI$1STIME File=DUI$1STIME.:E05TSI                            TUE 07/29/97 14:53 Page:108

      752    17489    5                       THEN DO;

      753    17490    5                            DU$NODE.INDX#( I ) = T2;

  17490  2 002421   200015 236100                    LDQ     I,,AUTO
         2 002422   000007 402007                    MPY     7,DL
         2 002423   200021 235100                    LDA     T2,,AUTO
         2 002424   000000 755106                    STA     0,QL,PR0

      754    17491    5                            DU$NODE.INDX#( I+1 ) = T1;

  17491  2 002425   200020 235100                    LDA     T1,,AUTO
         2 002426   000007 755106                    STA     7,QL,PR0

      755    17492    5                            K = I;

  17492  2 002427   200015 235100                    LDA     I,,AUTO
         2 002430   200017 755100                    STA     K,,AUTO

      756    17493    5                          END;

      757    17494    4                     END;

  17494  2 002431   200015 235100                    LDA     I,,AUTO
         2 002432   000001 035007                    ADLA    1,DL
         2 002433   200015 755100                    STA     I,,AUTO
         2 002434   200016 236100                    LDQ     J,,AUTO
         2 002435   200015 116100                    CMPQ    I,,AUTO
         2 002436   002401 603000 2                  TRC     s:17486

      758    17495    3                END;

  17495  2 002437   200017 235100                    LDA     K,,AUTO
         2 002440   002373 601000 2                  TNZ     s:17483

      759    17496    2             IF DU$NODE.INDX#( S_D.NODE#M1 ) ~= 0
PL6.E3A0      #001=DUI$1STIME File=DUI$1STIME.:E05TSI                            TUE 07/29/97 14:53 Page:109

  17496  2 002441   000004 470400 3                  LDP0    4
         2 002442   004766 236100                    LDQ     2550,,PR0
         2 002443   000007 402007                    MPY     7,DL
         2 002444   200042 471500                    LDP1    NODESEG$,,AUTO
         2 002445   100000 235106                    LDA     0,QL,PR1
         2 002446   002455 600000 2                  TZE     s:17502

      760    17497    3             THEN DO;

      761    17498    3                  S_D.ERROR = E@DELBUG;    /* E@DELBUG - Root should be last */

  17498  2 002447   000766 235007                    LDA     502,DL
         2 002450   000013 755100                    STA     11,,PR0

      762    17499    3                  CALL DDE$ERROR;

  17499  2 002451   000002 631400 xsym               EPPR1   B_VECTNIL+2
         2 002452   000000 701000 xent               TSX1    DDE$ERROR
         2 002453   000000 011000                    NOP     0

      763    17500    3                END;

  17500  2 002454   002477 710000 2                  TRA     s:17511

      764    17501    3             ELSE DO;

      765    17502    3                  DU$NODE.EDEF$( 0 ) = S_D.EDEF$;

  17502  2 002455   001042 236100                    LDQ     546,,PR0
         2 002456   100002 756100                    STQ     2,,PR1

      766    17503    3                  DU$NODE.EDEF_END$( 0 ) = S_D.EDEF_END$;

  17503  2 002457   001044 236100                    LDQ     548,,PR0
         2 002460   100003 756100                    STQ     3,,PR1

PL6.E3A0      #001=DUI$1STIME File=DUI$1STIME.:E05TSI                            TUE 07/29/97 14:53 Page:110
      767    17504    3                  DU$NODE.SDEF$( 0 ) = S_D.SDEF$;

  17504  2 002461   001043 236100                    LDQ     547,,PR0
         2 002462   100004 756100                    STQ     4,,PR1

      768    17505    3                  DU$NODE.SDEF_END$( 0 ) = S_D.SDEF_END$;

  17505  2 002463   001045 236100                    LDQ     549,,PR0
         2 002464   100005 756100                    STQ     5,,PR1

      769    17506    3                  DU$NODE.DNAME$( 0 ) = S_D.DNAME$;

  17506  2 002465   001041 236100                    LDQ     545,,PR0
         2 002466   100006 756100                    STQ     6,,PR1

      770    17507    3                  DU$NODE.GOTDEFS( 0 ) = '1'B;

  17507  2 002467   400000 236003                    LDQ     -131072,DU
         2 002470   100001 756100                    STQ     1,,PR1

      771    17508    3                  CALL DDS$EMTREE;         /* Init in memory tree */

  17508  2 002471   000002 631400 xsym               EPPR1   B_VECTNIL+2
         2 002472   000000 701000 xent               TSX1    DDS$EMTREE
         2 002473   000000 011000                    NOP     0

      772    17509    3                  S_D.TREE$ = S_D.MTREE$;  /* Use current */

  17509  2 002474   000004 470400 3                  LDP0    4
         2 002475   004762 236100                    LDQ     2546,,PR0
         2 002476   004761 756100                    STQ     2545,,PR0

      773    17510    3                END;

      774    17511    3             DO WHILE ( '0'B );

  17511  2 002477   002506 710000 2                  TRA     RETN
PL6.E3A0      #001=DUI$1STIME File=DUI$1STIME.:E05TSI                            TUE 07/29/97 14:53 Page:111

      775    17512    3   NOOV1:
      776    17513    3                  S_D.ERROR = E@OVTABLES;  /* E@OVTABLES */

  17513  2 002500   000166 235007       NOOV1        LDA     118,DL
         2 002501   000004 470400 3                  LDP0    4
         2 002502   000013 755100                    STA     11,,PR0

      777    17514    3                  CALL DDE$ERROR;

  17514  2 002503   000002 631400 xsym               EPPR1   B_VECTNIL+2
         2 002504   000000 701000 xent               TSX1    DDE$ERROR
         2 002505   000000 011000                    NOP     0

      778    17515    3                END;

      779    17516    2           END;

      780    17517                                                /**/
      781    17518    1   RETN:
      782    17519    1        RETURN;

  17519  2 002506   000000 702200 xent  RETN         TSX2  ! X66_ARET

      783    17520                                                /**/
      784    17521    1   ARET: ALTRETURN;

  17521  2 002507   000000 702200 xent  ARET         TSX2  ! X66_AALT

  17507  2 002510                       NODCB        null
  17507  2 002510                       NOPNME       null
      785    17522    1   NODCB: ;
      786    17523    1   NOPNME: ;
      787    17524    1        CALL DUE$ERRMSG;

  17524  2 002510   000002 631400 xsym               EPPR1   B_VECTNIL+2
         2 002511   000000 701000 xent               TSX1    DUE$ERRMSG
PL6.E3A0      #001=DUI$1STIME File=DUI$1STIME.:E05TSI                            TUE 07/29/97 14:53 Page:112
         2 002512   000000 011000                    NOP     0

      788    17525    1        CALL DUQ$WRERRLOGDO;

  17525  2 002513   000002 631400 xsym               EPPR1   B_VECTNIL+2
         2 002514   000000 701000 xent               TSX1    DUQ$WRERRLOGDO
         2 002515   000000 011000                    NOP     0

      789    17526    1        S_D.SNAP_TAKEN = '1'B;

  17526  2 002516   400000 236003                    LDQ     -131072,DU
         2 002517   000004 470400 3                  LDP0    4
         2 002520   004673 756100                    STQ     2491,,PR0

      790    17527    1        CALL M$EXIT;

  17527  2 002521   000001 713400                    CLIMB   exit
         2 002522   000000 401760                    pmme    nvectors=0

  17526  2 002523                       NOPARS       null
      791    17528    1   NOPARS: ;
      792    17529    1        FPT$WRITE = FPT_WRITE;

  17529  2 002523   000100 100400                    MLR     fill='000'O
         2 002524   000350 000060 1                  ADSC9   FPT_WRITE                cn=0,n=48
         2 002525   200362 000060                    ADSC9   FPT$WRITE,,AUTO          cn=0,n=48

      793    17530    1        FPT$WRITE.V_ = VECTOR(FPT$WRITE.V);

  17530  2 002526   000000 235000 3                  LDA     0
         2 002527   200414 452500                    STP2    FPT$DRTN+14,,AUTO
         2 002530   200414 236100                    LDQ     FPT$DRTN+14,,AUTO
         2 002531   000372 036003                    ADLQ    250,DU
         2 002532   200362 757100                    STAQ    FPT$WRITE,,AUTO

      794    17531    1        FPT$WRITE.V.DCB# = D_M$DO#;

PL6.E3A0      #001=DUI$1STIME File=DUI$1STIME.:E05TSI                            TUE 07/29/97 14:53 Page:113
  17531  2 002533   000406 720000 1                  LXL0    D_M$DO#
         2 002534   200372 740100                    STX0    FPT$WRITE+8,,AUTO

      795    17532    1        CALL M$WRITE (FPT$WRITE) ALTRET (OKAY);

  17532  2 002535   200362 630500                    EPPR0   FPT$WRITE,,AUTO
         2 002536   440001 713400                    CLIMB   alt,write
         2 002537   401400 401760                    pmme    nvectors=4
         2 002540   002541 702000 2                  TSX2    OKAY

  17531  2 002541                       OKAY         null
      796    17533    1   OKAY: ;
      797    17534    1        IF (NOT DCBADDR(D_M$DO#)->F$DCB.DDEV.UCOUT#) AND (B$JIT.MODE = %M_INT#)

  17534  2 002541   000002 470400 3                  LDP0    2
         2 002542   000000 471500                    LDP1    0,,PR0
         2 002543   000406 720000 1                  LXL0    D_M$DO#
         2 002544   100000 473510                    LDP3    0,X0,PR1
         2 002545   300004 236100                    LDQ     4,,PR3
         2 002546   020000 316007                    CANQ    8192,DL
         2 002547   002564 601000 2                  TNZ     GIVE_UP
         2 002550   000000 474400 xsym               LDP4    B$JIT$
         2 002551   400000 236100                    LDQ     0,,PR4
         2 002552   740000 376003                    ANQ     -16384,DU
         2 002553   140000 116003                    CMPQ    49152,DU
         2 002554   002564 601000 2                  TNZ     GIVE_UP

      798    17535    2        THEN DO;

      799    17536    2             FPT$WRITE.V.DCB# = DCBNUM(M$UC);

  17536  2 002555   000000 236007 xsym               LDQ     M$UC,DL
         2 002556   000000 621006                    EAX1    0,QL
         2 002557   200372 741100                    STX1    FPT$WRITE+8,,AUTO

      800    17537    2             CALL M$WRITE (FPT$WRITE) ALTRET (GIVE_UP);

PL6.E3A0      #001=DUI$1STIME File=DUI$1STIME.:E05TSI                            TUE 07/29/97 14:53 Page:114
  17537  2 002560   200362 630500                    EPPR0   FPT$WRITE,,AUTO
         2 002561   440001 713400                    CLIMB   alt,write
         2 002562   401400 401760                    pmme    nvectors=4
         2 002563   002564 702000 2                  TSX2    GIVE_UP

      801    17538    2           END;

  17534  2 002564                       GIVE_UP      null
      802    17539    1   GIVE_UP: ;
      803    17540    1        ECC = B$EXCFR.ECC;

  17540  2 002564   000000 470400 xsym               LDP0    B$TCB$
         2 002565   000001 471500                    LDP1    1,,PR0
         2 002566   100000 236100                    LDQ     0,,PR1
         2 002567   777777 376007                    ANQ     -1,DL
         2 002570   200022 756100                    STQ     ECC,,AUTO

      804    17541    1        IF ECC = %ECC_ALIB#

  17541  2 002571   000137 116007                    CMPQ    95,DL
         2 002572   002603 601000 2                  TNZ     XXX

      805    17542    2        THEN DO;

      806    17543    2             FPT$DRTN.V.DLIB# = '1'B;

  17543  2 002573   010000 236003                    LDQ     4096,DU
         2 002574   200411 256100                    ORSQ    FPT$DRTN+11,,AUTO

      807    17544    2             FPT$DRTN.V.ALTRTN# = '1'B;

  17544  2 002575   040000 236003                    LDQ     16384,DU
         2 002576   200411 256100                    ORSQ    FPT$DRTN+11,,AUTO

      808    17545    2             CALL M$DRTN (FPT$DRTN) ALTRET(XXX);

  17545  2 002577   200376 630500                    EPPR0   FPT$DRTN,,AUTO
PL6.E3A0      #001=DUI$1STIME File=DUI$1STIME.:E05TSI                            TUE 07/29/97 14:53 Page:115
         2 002600   410017 713400                    CLIMB   alt,+4111
         2 002601   402000 401760                    pmme    nvectors=5
         2 002602   002603 702000 2                  TSX2    XXX

      809    17546    2           END;

  17541  2 002603                       XXX          null
      810    17547    1   XXX: ;
      811    17548    1        S_D.SNAP_TAKEN = '1'B;

  17548  2 002603   400000 236003                    LDQ     -131072,DU
         2 002604   000004 470400 3                  LDP0    4
         2 002605   004673 756100                    STQ     2491,,PR0

      812    17549    1        CALL M$EXIT;

  17549  2 002606   000001 713400                    CLIMB   exit
         2 002607   000000 401760                    pmme    nvectors=0

      813    17550    1   NODEFS1:
      814    17551    1        S_D.ERROR = E@NODEFS1;             /* E@NODEFS1 */

  17551  2 002610   000136 235007       NODEFS1      LDA     94,DL
         2 002611   000004 470400 3                  LDP0    4
         2 002612   000013 755100                    STA     11,,PR0

      815    17552    1        CALL DDE$ERROR;

  17552  2 002613   000002 631400 xsym               EPPR1   B_VECTNIL+2
         2 002614   000000 701000 xent               TSX1    DDE$ERROR
         2 002615   000000 011000                    NOP     0

      816    17553    1        GOTO GETXOU;

  17553  2 002616   001461 710000 2                  TRA     GETXOU

      817    17554    1   NODEFS2:
PL6.E3A0      #001=DUI$1STIME File=DUI$1STIME.:E05TSI                            TUE 07/29/97 14:53 Page:116
      818    17555    1        S_D.ERROR = E@NODEFS2;             /* E@NODEFS2 */

  17555  2 002617   000137 235007       NODEFS2      LDA     95,DL
         2 002620   000004 470400 3                  LDP0    4
         2 002621   000013 755100                    STA     11,,PR0

      819    17556    1        CALL DDE$ERROR;

  17556  2 002622   000002 631400 xsym               EPPR1   B_VECTNIL+2
         2 002623   000000 701000 xent               TSX1    DDE$ERROR
         2 002624   000000 011000                    NOP     0

      820    17557    1        GOTO GETXOU;

  17557  2 002625   001461 710000 2                  TRA     GETXOU

      821    17558    1   NODEFS3:
      822    17559    1        S_D.ERROR = E@NODEFS3;             /* E@NODEFS3 */

  17559  2 002626   000140 235007       NODEFS3      LDA     96,DL
         2 002627   000004 470400 3                  LDP0    4
         2 002630   000013 755100                    STA     11,,PR0

      823    17560    1        CALL DDE$ERROR;

  17560  2 002631   000002 631400 xsym               EPPR1   B_VECTNIL+2
         2 002632   000000 701000 xent               TSX1    DDE$ERROR
         2 002633   000000 011000                    NOP     0

      824    17561    1        GOTO GETXOU;

  17561  2 002634   001461 710000 2                  TRA     GETXOU

      825    17562    1   NOROOMATS:
      826    17563    1        S_D.ERROR = E@NOROOMATS;           /* E@NOROOMATS */

  17563  2 002635   000437 235007       NOROOMATS    LDA     287,DL
PL6.E3A0      #001=DUI$1STIME File=DUI$1STIME.:E05TSI                            TUE 07/29/97 14:53 Page:117
         2 002636   000004 470400 3                  LDP0    4
         2 002637   000013 755100                    STA     11,,PR0

      827    17564    1        CALL DDE$ERROR;

  17564  2 002640   000002 631400 xsym               EPPR1   B_VECTNIL+2
         2 002641   000000 701000 xent               TSX1    DDE$ERROR
         2 002642   000000 011000                    NOP     0

      828    17565    1        GOTO XXX;

  17565  2 002643   002603 710000 2                  TRA     XXX
      829    17566                                                /**/
      830    17567    1   END DUI$1STIME;
      831    17568        %EOD;

PL6.E3A0      #001=DUI$1STIME File=DUI$1STIME.:E05TSI                            TUE 07/29/97 14:53 Page:118
--  Include file information  --

   XU_SUBS_C.:E05TOU  is referenced.
   M_INFO_C.:E05TOU  is referenced.
   DD_ERR_C.:E05TOU  is referenced.
   DD_PSUBS_C.:E05TOU  is referenced.
   DD_SUBS_C.:E05TOU  is referenced.
   B_STRINGS_C.:E05TOU  is referenced.
   DD_REPORT_R.:E05TOU  cannot be made into a system file and is referenced.
   DD_KNODES_D.:E05TOU  is referenced.
   XU_MACRO_C.:E05TOU  is referenced.
   B$ROSEG.:E05TOU  cannot be made into a system file and is referenced.
   DD_SD_M.:E05TOU  is referenced.
   XUH_MACRO_C.:E05TOU  is referenced.
   DD$BASED.:E05TOU  is referenced.
   B$JIT.:E05TOU  cannot be made into a system file and is referenced.
   DD$DA.:E05TOU  cannot be made into a system file and is referenced.
   IR_DATA_M.:E05TOU  is referenced.
   DD_SRTN_C.:E05TOU  is referenced.
   DD_ACODE_C.:E05TOU  is referenced.
   DD_ICODE_C.:E05TOU  is referenced.
   DD$DITEM.:E05TOU  cannot be made into a system file and is referenced.
   NK_VFC_C.:E05TOU  is referenced.
   B_SEGIDS_C.:E05TOU  is referenced.
   B$OBJECT_C.:E05TOU  is referenced.
   CP_6_SUBS.:E05TOU  is referenced.
   CP_6.:E05TOU  cannot be made into a system file and is referenced.
   B$JIT_C.:E05TOU  was found in the system file and is referenced.
   CP_6_C.:E05TOU  was found in the system file and is referenced.
      No diagnostics issued in procedure DUI$1STIME.

   Procedure DUI$1STIME requires 1444 words for executable code.
   Procedure DUI$1STIME requires 276 words of local(AUTO) storage.
PL6.E3A0      #001=DUI$1STIME File=DUI$1STIME.:E05TSI                            TUE 07/29/97 14:53 Page:119
          *** CROSS REFERENCE LISTING ***
**     DENOTES     IDENTIFIER DEFINITION
<<                 IDENTIFIER'S VALUE SET
>>                 IDENTIFIER'S VALUE USED
<>                 IDENTIFIER SET AND/OR USED
--                 IDENTIFIER REFERENCED
PL6.E3A0      #001=DUI$1STIME File=DUI$1STIME.:E05TSI                            TUE 07/29/97 14:53 Page:120
          MINI XREF LISTING

ARET
     17521**LABEL   17253--GOTO    17259--GOTO    17268--GOTO
ARS
      5694**DCL     17244<<ASSIGN  17247<>CALL    17288<<ASSIGN  17289<>CALL    17290>>ASSIGN  17290--ASSIGN
     17290--ASSIGN  17292<<ASSIGN  17295<>CALL    17303>>ASSIGN  17311<<ASSIGN  17314<>CALL    17321>>ASSIGN
     17402<<ASSIGN  17405<>CALL    17407>>ASSIGN  17408>>ASSIGN  17451<<ASSIGN  17452>>ASSIGN  17455<<ASSIGN
     17456<>CALL    17457>>ASSIGN
B$ALT.CODE
     10807**DCL     10807--REDEF   10808--REDEF   10808--REDEF
B$ALT.ERR.ERR#
     10809**DCL     10809--REDEF
B$ALT.ERR.SEV
     10809**DCL     17197>>IF
B$ALT.EVID
     10808**DCL     10808--REDEF   10808--REDEF
B$DNAME.COUNT
      6262**DCL      6269--IMP-SIZ 17357>>ASSIGN  17358>>ASSIGN
B$DNAME.TEXT
      6269**DCL     17358>>ASSIGN
B$EDEF
      6130**DCL     17304--ASSIGN  17309--ASSIGN  17330--CALL
B$EDEF.LFLAGS.FAULTAGS
      6145**DCL     17308<<ASSIGN
B$EDEF.OU
      6147**DCL      6153--REDEF
B$EXCFR.ASL
     10854**DCL     10854--REDEF
B$EXCFR.ECC
     10854**DCL     17113>>ASSIGN  17152>>IF      17155>>IF      17540>>ASSIGN
B$EXCFR.ERR.ERR#
     10868**DCL     10868--REDEF
B$EXCFR.EVID
PL6.E3A0      #001=DUI$1STIME File=DUI$1STIME.:E05TSI                            TUE 07/29/97 14:53 Page:121
     10867**DCL     10867--REDEF   10868--REDEF
B$EXCFR.IR
     10855**DCL     10855--REDEF
B$EXCFR.PREVSZ
     10854**DCL     10854--REDEF
B$EXCFR.SUBC
     10866**DCL     10866--REDEF   10867--REDEF   10867--REDEF   17114>>ASSIGN  17152>>IF      17155>>IF
B$JIT.CPFLAGS1.SLEAZE
      6416**DCL      6416--REDEF
B$JIT.ERR.MID
      6323**DCL      6323--REDEF
B$JIT.JRESPEAK
      6484**DCL      6485--REDEF
B$JIT.MODE
      6317**DCL     17006>>IF      17534>>IF
B$JIT.NEXTCC
      6464**DCL     17119>>IF
B$JIT.ORIGINATOR_PORT.FROM_CR
      6593**DCL      6593--REDEF    6594--REDEF
B$JIT.PCP
      6481**DCL     17165>>IF
B$JIT.PLL
      6480**DCL     17168>>ASSIGN
B$JIT.PNR
      6497**DCL      6497--REDEF
B$JIT.TSLINE
      6591**DCL      6592--REDEF
B$JIT.USER
      6322**DCL     17004>>IF
B$JIT$
     11012**DCL      6317--IMP-PTR 17004>>IF      17006>>IF      17119>>IF      17534>>IF
B$LBNTRY0.COMPILER
      6276**DCL     17339>>ASSIGN
B$LBNTRY0.NO_AUTO
      6299**DCL      6304--REDEF
B$LBNTRY0.VERSION
PL6.E3A0      #001=DUI$1STIME File=DUI$1STIME.:E05TSI                            TUE 07/29/97 14:53 Page:122
      6288**DCL      6290--REDEF
B$NODE
     10952**DCL     17433--ASSIGN
B$NODE.FLGS.NOW_IN
     10958**DCL     17429<<ASSIGN
B$NODE.NAME$
     10954**DCL     17432<<ASSIGN
B$NODE.PADDR
     10982**DCL     17430>>ASSIGN  17488>>IF      17488>>IF
B$ROS$
     11014**DCL     17008>>ASSIGN
B$ROSEG
     10882**DCL     17387--ASSIGN
B$ROSEG.DCBPTR$
     10883**DCL     17388<<ASSIGN
B$ROSEG.NUMDCBS
     10885**DCL     17413<<ASSIGN
B$ROSEG.TREE$
     10884**DCL     17427<<ASSIGN  17437<<ASSIGN  17441>>ASSIGN
B$SDEF
      6200**DCL     17322--ASSIGN
B$SDEF.AD.OU
      6220**DCL      6226--REDEF
B$SDEF.VALUE
      6201**DCL      6204--REDEF
B$TCB.ALT$
     10814**DCL     17197>>IF
B$TCB.STK$
     10814**DCL     17113>>ASSIGN  17114>>ASSIGN  17152>>IF      17152>>IF      17155>>IF      17155>>IF
     17540>>ASSIGN
B$TCB$
     11013**DCL     17113>>ASSIGN  17114>>ASSIGN  17152>>IF      17152>>IF      17155>>IF      17155>>IF
     17197>>IF      17540>>ASSIGN
B$TREEHDR
     10936**DCL     17428--ASSIGN  17448--ASSIGN
B$TREEHDR.NODES
PL6.E3A0      #001=DUI$1STIME File=DUI$1STIME.:E05TSI                            TUE 07/29/97 14:53 Page:123
     10938**DCL     17431>>DOINDEX 17447>>ASSIGN
BHEAD
      5741**DCL     17247--CALL    17247--CALL
BHEAD.BIAS
      5905**DCL     17262>>ASSIGN
BHEAD.DCBRES
      5792**DCL     17412>>ASSIGN
BHEAD.EDRECSIZE
      5813**DCL     17274>>ASSIGN
BHEAD.EPRECSIZE
      5810**DCL     17273>>ASSIGN
BHEAD.FLAVOR
      5866**DCL     17248>>DOCASE
BHEAD.LIB
      5871**DCL     17271>>ASSIGN
BHEAD.LIBNAME.TXT
      5921**DCL     17342>>ASSIGN
BHEAD.NRECSIZE
      5807**DCL     17272>>ASSIGN
BHEAD.OVRL
      5880**DCL     17424>>IF      17442>>IF
BHEAD.PRECSIZE
      5803**DCL     17406>>ASSIGN
BHEAD.RDATA
      5760**DCL     17261>>IF      17263>>ASSIGN
BHEAD.ROSIZE
      5819**DCL     17275>>ASSIGN
BHEAD.RPROC
      5750**DCL     17265>>ASSIGN
BHEAD.START
      5786**DCL     17337>>ASSIGN  17438>>ASSIGN
BHEAD.TREEDISP
      5795**DCL     17426>>ASSIGN
BHEAD.UDCBNUM
      5789**DCL     17411>>ASSIGN
BITS
PL6.E3A0      #001=DUI$1STIME File=DUI$1STIME.:E05TSI                            TUE 07/29/97 14:53 Page:124
      6128**DCL     17171>>ASSIGN  17174>>ASSIGN
CHR2
      5716**DCL     17342<<ASSIGN  17344<<ASSIGN  17345>>IF      17345>>IF
DCB$PTR$
      5726**DCL     17390<<ASSIGN  17391--ASSIGN  17416<<ASSIGN  17417--ASSIGN  17420<<ASSIGN
DCBPTR$
      5717**DCL     17387<<ASSIGN  17388>>ASSIGN  17390>>ASSIGN  17391<<ASSIGN  17391>>ASSIGN  17395>>IF
     17397>>ASSIGN  17403>>ASSIGN  17414>>ASSIGN  17416>>ASSIGN  17416>>ASSIGN  17417<<ASSIGN  17417>>ASSIGN
     17420>>ASSIGN  17421<<ASSIGN  17421>>ASSIGN  17421--ASSIGN
DCBRES
      5728**DCL     17412<<ASSIGN  17413>>ASSIGN  17419>>DOINDEX
DD$COMP_NODE_PTR$
     14350**DCL     17236>>ASSIGN  17375>>ASSIGN
DDE$ERROR
     15457**DCL-ENT 17102--CALL    17187--CALL    17301--CALL    17319--CALL    17499--CALL    17514--CALL
     17552--CALL    17556--CALL    17560--CALL    17564--CALL
DDM$GETMEM
     15459**DCL-ENT 17012--CALL    17016--CALL    17140--CALL    17142--CALL    17279--CALL    17283--CALL
     17398--CALL    17456--CALL
DDQ$READLM
     15461**DCL-ENT 17247--CALL    17289--CALL    17295--CALL    17314--CALL    17405--CALL
DDS$EMTREE
     15462**DCL-ENT 17508--CALL
DDS$EQCS#
     15463**DCL-ENT 17330--CALL
DDS$ES_INQ
     15464**DCL-ENT 17338--CALL
DDS$PD_SRCH
     15465**DCL-ENT 17327--CALL
DDS$SET_Q2X
     15466**DCL-ENT 17331--CALL    17356--CALL
DD_ANLZSEG$
      5615**DCL      5616--IMP-PTR 17398<>CALL
DD_COMPNODE$
     14348**DCL     17236>>ASSIGN  17373>>ASSIGN
DD_COMP_NODE_PTR$
PL6.E3A0      #001=DUI$1STIME File=DUI$1STIME.:E05TSI                            TUE 07/29/97 14:53 Page:125
     14349**DCL     17235--DOINDEX 17236>>ASSIGN  17374--DOINDEX 17375>>ASSIGN
DD_DEBUG
     15447**DCL     17030>>ASSIGN
DD_DELTA_ACCOUNT
     14836**DCL     14758--DCLINIT
DD_DELTA_NAME
     14821**DCL     14757--DCLINIT
DD_NODE.SUBNDS$
     14529**DCL     17236<<ASSIGN  17375<<ASSIGN
DD_PROMPT
     11009**DCL     17042>>ASSIGN  17043>>ASSIGN  17044--ASSIGN  17045--ASSIGN
DD_REPORT_FLAGS
     15445**DCL     17061>>ASSIGN
DD_RUMNODE$
     11015**DCL     17009>>ASSIGN  17010>>ASSIGN
DD_VARCOM$
     11016**DCL     17012<>CALL    17014>>ASSIGN  17015>>ASSIGN  17016<>CALL
DD_XOU
     15452**DCL     15455--DCLINIT 17326>>ASSIGN
DD_XOU.TEXT
     15454**DCL     15453--DCLINIT
DD_XOU$
     15455**DCL     17327<>CALL
DNAME$
      5690**DCL     17282<<ASSIGN  17284>>ASSIGN  17289<>CALL    17290>>ASSIGN  17291>>ASSIGN
DONTCARE
     17096**LABEL   17097--CALLALT
DSIZE
      5736**DCL     17012<>CALL    17013>>IF      17015>>ASSIGN  17279<>CALL    17280>>ASSIGN
DU$NODE
     11000**DCL     17451--ASSIGN  17460--ASSIGN
DU$NODE.DNAME$
     11007**DCL     17479<<ASSIGN  17506<<ASSIGN
DU$NODE.EDEF$
     11003**DCL     17475<<ASSIGN  17502<<ASSIGN
DU$NODE.EDEF_END$
PL6.E3A0      #001=DUI$1STIME File=DUI$1STIME.:E05TSI                            TUE 07/29/97 14:53 Page:126
     11004**DCL     17476<<ASSIGN  17503<<ASSIGN
DU$NODE.GOTDEFS
     11002**DCL     17474<<ASSIGN  17507<<ASSIGN
DU$NODE.INDX#
     11001**DCL     17473<<ASSIGN  17486>>ASSIGN  17487>>ASSIGN  17490<<ASSIGN  17491<<ASSIGN  17496>>IF
DU$NODE.SDEF$
     11005**DCL     17477<<ASSIGN  17504<<ASSIGN
DU$NODE.SDEF_END$
     11006**DCL     17478<<ASSIGN  17505<<ASSIGN
DU$TREE
     10994**DCL     17451--ASSIGN  17461--ASSIGN  17462--ASSIGN  17469--ASSIGN
DU$TREE.NEXT#
     10995**DCL     17467<<ASSIGN
DU$TREE.NOW_IN
     10997**DCL     17468<<ASSIGN
DUA$READ
     15467**DCL-ENT 17137--CALL
DUE$ERRMSG
     15468**DCL-ENT 17136--CALL    17199--CALL    17524--CALL
DUI$INIT_HOST
     15469**DCL-ENT 17091--CALL
DUQ$WRERRLOGDO
     15470**DCL-ENT 17525--CALL
DUX$XCON1_REL
     15471**DCL-ENT 17107--CALL
D_HBUSIZE
     15448**DCL     17142<>CALL    17145>>ASSIGN
D_M$DELT#
     15449**DCL     17105>>IF      17110>>ASSIGN  17124>>ASSIGN  17126--IF      17133--IF      17134--ASSIGN
D_M$DO#
     15451**DCL     16984--IF      16988>>ASSIGN  16994>>ASSIGN  17003>>ASSIGN  17531>>ASSIGN  17534--IF
D_M$LM#
     15450**DCL     17019>>ASSIGN
D_PARSIZE
     15446**DCL     17140<>CALL    17141>>ASSIGN  17143>>ASSIGN
ECC
PL6.E3A0      #001=DUI$1STIME File=DUI$1STIME.:E05TSI                            TUE 07/29/97 14:53 Page:127
      5701**DCL     17113<<ASSIGN  17117>>IF      17540<<ASSIGN  17541>>IF
EDEF$
      5691**DCL     17290<<ASSIGN  17295<>CALL    17296>>ASSIGN  17303>>ASSIGN
EDRECSIZE
      5705**DCL     17274<<ASSIGN  17276>>ASSIGN  17287<<ASSIGN  17287>>ASSIGN  17312>>IF      17314<>CALL
EPRECSIZE
      5704**DCL     17273<<ASSIGN  17276>>ASSIGN  17286<<ASSIGN  17286>>ASSIGN  17293>>IF      17295<>CALL
F$DCB.ACTPOS
      6631**DCL      6631--REDEF
F$DCB.AMR#
      6618**DCL     17126>>IF
F$DCB.ARS#
      6605**DCL      6605--REDEF
F$DCB.ASN#
      6620**DCL     17133>>IF
F$DCB.ATTR
      6624**DCL      6625--REDEF
F$DCB.BORROW
      6639**DCL      6639--REDEF    6639--REDEF    6639--REDEF
F$DCB.DCBNAME.L
      6653**DCL      6653--IMP-SIZ
F$DCB.DDEV.UCOUT#
      6612**DCL     17534>>IF
F$DCB.EOMCHAR#
      6609**DCL      6609--REDEF
F$DCB.FCD#
      6618**DCL     16984>>IF
F$DCB.FLDID
      6634**DCL      6634--REDEF
F$DCB.FORM$
      6628**DCL      6628--REDEF
F$DCB.FSECT
      6644**DCL      6644--REDEF
F$DCB.FSN#
      6621**DCL      6621--REDEF    6621--REDEF    6622--REDEF
F$DCB.HEADER$
PL6.E3A0      #001=DUI$1STIME File=DUI$1STIME.:E05TSI                            TUE 07/29/97 14:53 Page:128
      6627**DCL      6627--REDEF
F$DCB.IXTNSIZE#
      6625**DCL      6625--REDEF
F$DCB.LASTSTA$
      6614**DCL      6614--REDEF
F$DCB.LVL
      6640**DCL      6640--REDEF
F$DCB.NAME#.C
      6615**DCL      6615--REDEF   17344>>ASSIGN
F$DCB.NOEOF
      6637**DCL      6637--REDEF
F$DCB.NRECS#
      6626**DCL      6626--REDEF
F$DCB.NRECX
      6645**DCL      6645--REDEF
F$DCB.OHDR
      6637**DCL      6637--REDEF
F$DCB.ORG#
      6620**DCL      6620--REDEF
F$DCB.PRECNO
      6643**DCL      6643--REDEF
F$DCB.RCSZ
      6649**DCL      6649--REDEF
F$DCB.RES#
      6616**DCL      6616--REDEF   17134>>ASSIGN
F$DCB.SETX
      6628**DCL      6628--REDEF
F$DCB.TAB$
      6628**DCL      6628--REDEF
F$DCB.TDA
      6642**DCL      6643--REDEF
F$DCB.WSN#
      6616**DCL      6616--REDEF
FPRG$CONTEXT.INTERPRETIVE
      7973**DCL     17351<<ASSIGN
FPT$DRTN
PL6.E3A0      #001=DUI$1STIME File=DUI$1STIME.:E05TSI                            TUE 07/29/97 14:53 Page:129
     15424**DCL     16979<<ASSIGN  17545<>CALL
FPT$DRTN.REGS_
     15424**DCL     16981<<ASSIGN
FPT$DRTN.V
     15426**DCL     16980--ASSIGN
FPT$DRTN.V.ALTRTN#
     15429**DCL     17544<<ASSIGN
FPT$DRTN.V.DLIB#
     15430**DCL     17543<<ASSIGN
FPT$DRTN.V.IR#
     15426**DCL     15426--REDEF
FPT$DRTN.V_
     15424**DCL     16980<<ASSIGN
FPT$MONINFO
      6121**DCL     17064<<ASSIGN  17066<>CALL
FPT$MONINFO.SITEINFO_
      6121**DCL     17065<<ASSIGN
FPT$WRITE
     15375**DCL     17529<<ASSIGN  17532<>CALL    17537<>CALL
FPT$WRITE.STATION_
     15377**DCL     15377--REDEF
FPT$WRITE.V
     15378**DCL     17530--ASSIGN
FPT$WRITE.V.DCB#
     15378**DCL     17531<<ASSIGN  17536<<ASSIGN
FPT$WRITE.V.DVBYTE.VFC#
     15384**DCL     15384--REDEF
FPT$WRITE.V_
     15375**DCL     17530<<ASSIGN
FPTGETDCB
      5981**DCL     17108<<ASSIGN  17111<>CALL
FPTGETDCB.V
      5982**DCL     17109--ASSIGN
FPTGETDCB.V.DCB#
      5982**DCL     17110<<ASSIGN
FPTGETDCB.V_
PL6.E3A0      #001=DUI$1STIME File=DUI$1STIME.:E05TSI                            TUE 07/29/97 14:53 Page:130
      5981**DCL     17109<<ASSIGN
FPTOPEN
      6051**DCL     16986<<ASSIGN  16989<>CALL    16992<<ASSIGN  16995<>CALL    17122<<ASSIGN  17131<>CALL
FPTOPEN.ACSVEH_
      6053**DCL      6054--REDEF
FPTOPEN.ALTKEYS_
      6059**DCL      6060--REDEF    6060--REDEF
FPTOPEN.HDR_
      6058**DCL      6059--REDEF
FPTOPEN.TAB_
      6057**DCL      6058--REDEF
FPTOPEN.UHL_
      6051**DCL      6052--REDEF    6052--REDEF
FPTOPEN.V
      6060**DCL     16987--ASSIGN  16993--ASSIGN  17123--ASSIGN
FPTOPEN.V.ASN#
      6070**DCL     17129<<ASSIGN
FPTOPEN.V.DCB#
      6060**DCL     16988<<ASSIGN  16994<<ASSIGN  17124<<ASSIGN
FPTOPEN.V.FSN#
      6091**DCL      6091--REDEF    6091--REDEF
FPTOPEN.V.RES#
      6075**DCL     17128<<ASSIGN
FPTOPEN.V.XONLY#
      6081**DCL     17125<<ASSIGN
FPTOPEN.V_
      6051**DCL     16987<<ASSIGN  16993<<ASSIGN  17123<<ASSIGN
FPTOPEN.WSN_
      6057**DCL      6057--REDEF
FPTPROMPT
      5957**DCL     17093<<ASSIGN  17097<>CALL
FPTPROMPT.PROMPT_
      5963**DCL     17096<<ASSIGN
FPTPROMPT.V
      5965**DCL     17094--ASSIGN
FPTPROMPT.V_
PL6.E3A0      #001=DUI$1STIME File=DUI$1STIME.:E05TSI                            TUE 07/29/97 14:53 Page:131
      5959**DCL     17094<<ASSIGN
FPT_DRTN
     15400**DCL     16979>>ASSIGN
FPT_DRTN.V
     15402**DCL     15401--DCLINIT
FPT_DRTN.V.IR#
     15402**DCL     15402--REDEF
FPT_EOM
     14970**DCL     17193<>CALL
FPT_EOM.V
     14978**DCL     14972--DCLINIT
FPT_GETDCB
     14996**DCL     17108>>ASSIGN
FPT_GETDCB.V
     14997**DCL     14996--DCLINIT
FPT_MONINFO
      6106**DCL     17064>>ASSIGN
FPT_OPEN_DO
     14906**DCL     16986>>ASSIGN
FPT_OPEN_DO.ACSVEH_
     14908**DCL     14909--REDEF
FPT_OPEN_DO.ALTKEYS_
     14914**DCL     14915--REDEF   14915--REDEF
FPT_OPEN_DO.HDR_
     14913**DCL     14914--REDEF
FPT_OPEN_DO.TAB_
     14912**DCL     14913--REDEF
FPT_OPEN_DO.UHL_
     14906**DCL     14907--REDEF   14907--REDEF
FPT_OPEN_DO.V
     14915**DCL     14906--DCLINIT
FPT_OPEN_DO.V.FSN#
     14946**DCL     14946--REDEF   14946--REDEF
FPT_OPEN_DO.WSN_
     14912**DCL     14912--REDEF
FPT_OPEN_M$DELTA
PL6.E3A0      #001=DUI$1STIME File=DUI$1STIME.:E05TSI                            TUE 07/29/97 14:53 Page:132
     15068**DCL     17122>>ASSIGN
FPT_OPEN_M$DELTA.ACSVEH_
     15070**DCL     15071--REDEF
FPT_OPEN_M$DELTA.ALTKEYS_
     15076**DCL     15077--REDEF   15077--REDEF
FPT_OPEN_M$DELTA.HDR_
     15075**DCL     15076--REDEF
FPT_OPEN_M$DELTA.TAB_
     15074**DCL     15075--REDEF
FPT_OPEN_M$DELTA.UHL_
     15068**DCL     15069--REDEF   15069--REDEF
FPT_OPEN_M$DELTA.V
     15077**DCL     15068--DCLINIT
FPT_OPEN_M$DELTA.V.FSN#
     15108**DCL     15108--REDEF   15108--REDEF
FPT_OPEN_M$DELTA.WSN_
     15074**DCL     15074--REDEF
FPT_OPEN_ME
     15247**DCL     16992>>ASSIGN
FPT_OPEN_ME.ACSVEH_
     15249**DCL     15250--REDEF
FPT_OPEN_ME.ALTKEYS_
     15255**DCL     15256--REDEF   15256--REDEF
FPT_OPEN_ME.HDR_
     15254**DCL     15255--REDEF
FPT_OPEN_ME.TAB_
     15253**DCL     15254--REDEF
FPT_OPEN_ME.UHL_
     15247**DCL     15248--REDEF   15248--REDEF
FPT_OPEN_ME.V.FSN#
     15287**DCL     15287--REDEF   15287--REDEF
FPT_OPEN_ME.WSN_
     15253**DCL     15253--REDEF
FPT_PROMPT
     15308**DCL     17093>>ASSIGN
FPT_WRITE
PL6.E3A0      #001=DUI$1STIME File=DUI$1STIME.:E05TSI                            TUE 07/29/97 14:53 Page:133
     15343**DCL     17529>>ASSIGN
FPT_WRITE.STATION_
     15345**DCL     15345--REDEF
FPT_WRITE.V
     15346**DCL     15343--DCLINIT
FPT_WRITE.V.DVBYTE.VFC#
     15352**DCL     15352--REDEF
GETXOU
     17326**LABEL   17553--GOTO    17557--GOTO    17561--GOTO
GIVE_UP
     17534**LABEL   17537--CALLALT
GOTHEAD
      5715**DCL     17243<<ASSIGN  17270<<ASSIGN  17335>>IF      17442>>IF
GOTXOU
     17330**LABEL   17327--CALLALT
HIST_BUF
      7959**DCL     17145--ASSIGN
I
      5696**DCL     17235<<DOINDEX 17236>>ASSIGN  17236>>ASSIGN  17374<<DOINDEX 17375>>ASSIGN  17375>>ASSIGN
     17466<<DOINDEX 17472<<DOINDEX 17473>>ASSIGN  17473>>ASSIGN  17474>>ASSIGN  17475>>ASSIGN  17476>>ASSIGN
     17477>>ASSIGN  17478>>ASSIGN  17479>>ASSIGN  17485<<DOINDEX 17486>>ASSIGN  17487>>ASSIGN  17490>>ASSIGN
     17491>>ASSIGN  17492>>ASSIGN
INITED_TEMP
      5721**DCL     16999<<ASSIGN  17001>>ASSIGN
IX
      5727**DCL     17389<<DOINDEX 17415<<DOINDEX 17419<<DOINDEX 17431<<DOINDEX
J
      5697**DCL     17483<<ASSIGN  17485>>DOINDEX
K
      5698**DCL     17481<<ASSIGN  17482>>DOWHILE 17483>>ASSIGN  17484<<ASSIGN  17492<<ASSIGN
M$DRTN
       112**DCL-ENT 17545--CALL
M$EOM
        79**DCL-ENT 17193--CALL
M$EXIT
        66**DCL-ENT 17527--CALL    17549--CALL
PL6.E3A0      #001=DUI$1STIME File=DUI$1STIME.:E05TSI                            TUE 07/29/97 14:53 Page:134
M$GETDCB
        60**DCL-ENT 17111--CALL
M$MONINFO
       122**DCL-ENT 17066--CALL
M$OPEN
        54**DCL-ENT 16989--CALL    16995--CALL    17131--CALL
M$PROMPT
        78**DCL-ENT 17097--CALL
M$UC
        78**DCL     17536>>ASSIGN
M$WRITE
        55**DCL-ENT 17532--CALL    17537--CALL
M$XXX
        66**DCL-ENT 17200--CALL
MESSAGE_BUF
     15320**DCL     15344--DCLINIT 15345--DCLINIT
NEED
      5722**DCL     17452<<ASSIGN  17453>>IF      17455>>ASSIGN
NEEDSIZE
      5725**DCL     17397<<ASSIGN  17398<>CALL    17399>>ASSIGN
NODCB
     17507**LABEL   17111--CALLALT
NODEFS1
     17551**LABEL   17247--CALLALT
NODEFS2
     17555**LABEL   17283--CALLALT
NODEFS3
     17559**LABEL   17278--GOTO    17289--CALLALT
NODEFS4
     17298**LABEL   17294--GOTO    17295--CALLALT 17398--CALLALT 17405--CALLALT
NODEFS5
     17318**LABEL   17313--GOTO    17314--CALLALT
NODESEG$
      5723**DCL     11000--IMP-PTR 17463<<ASSIGN  17473>>ASSIGN  17474>>ASSIGN  17475>>ASSIGN  17476>>ASSIGN
     17477>>ASSIGN  17478>>ASSIGN  17479>>ASSIGN  17486>>ASSIGN  17487>>ASSIGN  17490>>ASSIGN  17491>>ASSIGN
     17496>>IF      17502>>ASSIGN  17503>>ASSIGN  17504>>ASSIGN  17505>>ASSIGN  17506>>ASSIGN  17507>>ASSIGN
PL6.E3A0      #001=DUI$1STIME File=DUI$1STIME.:E05TSI                            TUE 07/29/97 14:53 Page:135
NOEOM
     17197**LABEL   17193--CALLALT
NOOV1
     17513**LABEL   17456--CALLALT
NOPARS
     17526**LABEL   17140--CALLALT 17142--CALLALT
NOPN#9
     17136**LABEL   17131--CALLALT
NOPNDO
     16991**LABEL   16989--CALLALT
NOPNME
     17507**LABEL   16995--CALLALT
NOROOMATS
     17563**LABEL   17016--CALLALT
NOSL
     17186**LABEL   17176--GOTO
NOXOU
     17335**LABEL   17330--CALLALT 17331--CALLALT
NRECSIZE
      5703**DCL     17272<<ASSIGN  17276>>ASSIGN  17277>>IF      17285<<ASSIGN  17285>>ASSIGN  17289<>CALL
OKAY
     17531**LABEL   17532--CALLALT
OPENDOOK
      5732**DCL     16983<<ASSIGN  16991<<ASSIGN  17099>>IF
OPTARRY
      5734**DCL      5735--REDEF   17360<<ASSIGN  17361<<ASSIGN  17362<<ASSIGN
OPTIONS
      5735**DCL     17363>>ASSIGN  17364>>ASSIGN
PAGE
      5720**DCL     17401<<ASSIGN  17405<>CALL    17406<<ASSIGN  17406>>ASSIGN
PARSE$
     11017**DCL     17140<>CALL    17142<>CALL    17143>>ASSIGN
PROM$PT
      6126**DCL     17096--ASSIGN
PROMPTSIZE
      5733**DCL      6127--IMP-SIZ 17095<<ASSIGN  17096>>ASSIGN
PL6.E3A0      #001=DUI$1STIME File=DUI$1STIME.:E05TSI                            TUE 07/29/97 14:53 Page:136
PTR$WORD.LH
      5730**DCL     17416>>ASSIGN  17432>>ASSIGN
RETN
     17519**LABEL   17241--GOTO    17246--GOTO    17383--GOTO
ROSIZE
      5718**DCL     17275<<ASSIGN  17394>>ASSIGN  17394--ASSIGN  17395>>IF      17397>>ASSIGN
SDEF$
      5692**DCL     17303<<ASSIGN  17304>>ASSIGN  17314<>CALL    17315>>ASSIGN  17321>>ASSIGN
SKIPSL
     17184**LABEL   17154--GOTO
SUBC
      5702**DCL     17114<<ASSIGN  17117>>IF
SYXDEF
     17374**LABEL   17356--CALLALT
S_D
      9459**DCL     17000<<ASSIGN
S_D.ACCESS
      9489**DCL     17380<<ASSIGN
S_D.ANLZ
     10102**DCL     17239>>IF      17367>>IF      17384>>IF      17442>>IF
S_D.ANLZ_FILE
     10166**DCL     17384>>IF      17442>>IF
S_D.ANLZ_KLUDGE
     10411**DCL     17442>>IF
S_D.ANYSD.RANGE
     10328**DCL     17225<<ASSIGN
S_D.B$ROS$
     10134**DCL     17008<<ASSIGN  17382>>IF      17387>>ASSIGN  17388>>ASSIGN  17413>>ASSIGN  17427>>ASSIGN
     17437>>ASSIGN  17441>>ASSIGN
S_D.B$TREE$
     10122**DCL     17449<<ASSIGN  17488>>IF      17488>>IF
S_D.B$TREEHDR$
     10124**DCL     17446<<ASSIGN
S_D.BATCH
      9929**DCL     17007<<ASSIGN  17115>>IF      17132>>IF      17191>>IF
S_D.BYPASS
PL6.E3A0      #001=DUI$1STIME File=DUI$1STIME.:E05TSI                            TUE 07/29/97 14:53 Page:137
      9882**DCL     17032<<ASSIGN  17161<<ASSIGN  17370<<ASSIGN
S_D.BYPASS_SAVE
      9590**DCL     17035<<ASSIGN  17162<<ASSIGN  17371<<ASSIGN
S_D.CAN_I_DO_BREAK
     10508**DCL     17034<<ASSIGN
S_D.CURRENT_CHANNEL
     10402**DCL     10404--REDEF
S_D.CURRENT_FPRG_CONTEXT$
      9602**DCL     17026<<ASSIGN  17351>>ASSIGN
S_D.DEBUGA
      9554**DCL      9556--REDEF
S_D.DEBUGF
      9556**DCL     17030<<ASSIGN
S_D.DEBUG_CMD_CONTEXT$
      9976**DCL     17028<<ASSIGN
S_D.DEFINED#
     10188**DCL     17230<<ASSIGN
S_D.DEFINED@
     10178**DCL     17231<<ASSIGN
S_D.DNAME$
      9896**DCL     17209<<ASSIGN  17291<<ASSIGN  17357>>ASSIGN  17358>>ASSIGN  17358>>ASSIGN  17506>>ASSIGN
S_D.DO$
      9505**DCL     17029<<ASSIGN
S_D.DRTN$
     10007**DCL     17027<<ASSIGN
S_D.DSCH
      9772**DCL     17214<<ASSIGN
S_D.ECHO
     10080**DCL     17055<<ASSIGN
S_D.EDEF$
      9898**DCL     17210<<ASSIGN  17296<<ASSIGN  17305>>ASSIGN  17330>>CALL    17502>>ASSIGN
S_D.EDEF_END$
      9902**DCL     17304<<ASSIGN  17307>>DOWHILE 17503>>ASSIGN
S_D.EFMT_DEFAULT
     10070**DCL     17047<<ASSIGN
S_D.EIS
PL6.E3A0      #001=DUI$1STIME File=DUI$1STIME.:E05TSI                            TUE 07/29/97 14:53 Page:138
     10512**DCL     10541--REDEF
S_D.EOM
     10094**DCL     17194<<ASSIGN
S_D.ERROR
      9483**DCL     17101<<ASSIGN  17186<<ASSIGN  17252<<ASSIGN  17258<<ASSIGN  17267<<ASSIGN  17300<<ASSIGN
     17318<<ASSIGN  17498<<ASSIGN  17513<<ASSIGN  17551<<ASSIGN  17555<<ASSIGN  17559<<ASSIGN  17563<<ASSIGN
S_D.ERROR_SYM$
      9507**DCL     17020<<ASSIGN
S_D.EWSQ#
      9479**DCL     17040<<ASSIGN
S_D.FAULTCMD$
      9469**DCL     17051<<ASSIGN
S_D.FEP_PADDR
     10246**DCL     17262<<ASSIGN  17263<<ASSIGN
S_D.FEP_PSIZE
     10248**DCL     17265<<ASSIGN
S_D.FIND.MASK_F
     10265**DCL     17038<<ASSIGN
S_D.FIND.NUM
     10263**DCL     17037<<ASSIGN
S_D.FIRST_TIME
     10495**DCL     17058<<ASSIGN
S_D.FMT_DEFAULT
      9738**DCL     17046<<ASSIGN
S_D.FPRG
      9600**DCL     17240>>IF      17349>>IF
S_D.FPRG_CONTEXT$
      9594**DCL     17022<<ASSIGN
S_D.FPRG_CONTEXT_AVAIL$
      9604**DCL     17024<<ASSIGN
S_D.FPRG_CONTEXT_AVAIL_END$
      9606**DCL     17025<<ASSIGN
S_D.FPRG_CONTEXT_END$
      9596**DCL     17023<<ASSIGN
S_D.GHOST1
      9709**DCL     17005<<ASSIGN  17245>>IF
PL6.E3A0      #001=DUI$1STIME File=DUI$1STIME.:E05TSI                            TUE 07/29/97 14:53 Page:139
S_D.GOT#
     10180**DCL     17228<<ASSIGN
S_D.GOT@
     10170**DCL     17229<<ASSIGN
S_D.HEAD_LIB
      9584**DCL     17271<<ASSIGN  17343>>IF
S_D.HIST.ACTIVE
     10047**DCL     17148<<ASSIGN
S_D.HIST.CURR$
     10039**DCL     17144<<ASSIGN
S_D.HIST.EMPTY
     10049**DCL     17147<<ASSIGN
S_D.HIST.END$
     10037**DCL     17145<<ASSIGN
S_D.HIST.START$
     10035**DCL     17143<<ASSIGN  17144>>ASSIGN  17145>>ASSIGN
S_D.HOST_MESSAGE_BUF_REMOTE
     10445**DCL     10446--REDEF   10460--REDEF
S_D.HW_FLTIC_OK
     10685**DCL     17073<<ASSIGN  17078<<ASSIGN  17083<<ASSIGN  17088<<ASSIGN
S_D.HW_PTB_UNITS
     10689**DCL     17070<<ASSIGN  17075<<ASSIGN  17080<<ASSIGN  17085<<ASSIGN
S_D.HW_RES_MEM
     10687**DCL     17071<<ASSIGN  17076<<ASSIGN  17081<<ASSIGN  17086<<ASSIGN
S_D.HW_TYPE
     10683**DCL     17067<<ASSIGN  17068>>DOCASE
S_D.HW_WSQ0PT
     10691**DCL     17072<<ASSIGN  17077<<ASSIGN  17082<<ASSIGN  17087<<ASSIGN
S_D.IGNORE
     10055**DCL     17364<<ASSIGN  17364>>ASSIGN  17365>>ASSIGN
S_D.INITED
      9460**DCL     16999>>ASSIGN  17001<<ASSIGN
S_D.INTERPRETIVE
     10299**DCL     17057<<ASSIGN
S_D.JDE
     10059**DCL     10060--REDEF
PL6.E3A0      #001=DUI$1STIME File=DUI$1STIME.:E05TSI                            TUE 07/29/97 14:53 Page:140
S_D.KEEP
     10051**DCL     17036<<ASSIGN  17365<<ASSIGN
S_D.L$.FMT
      9638**DCL     17049<<ASSIGN
S_D.L$.SIZE
      9637**DCL     17048<<ASSIGN
S_D.L$.VALUE
      9612**DCL      9618--REDEF    9626--REDEF    9629--REDEF    9632--REDEF    9635--REDEF
S_D.L$.VALUE.L
      9613**DCL      9614--REDEF    9615--REDEF
S_D.L6_CACHE
     10297**DCL     17056<<ASSIGN
S_D.L6_MESSAGE_BUF
     10466**DCL     10468--REDEF
S_D.LADC
     10552**DCL     17090<<ASSIGN
S_D.LASTPD.RANGE
     10317**DCL     17224<<ASSIGN
S_D.LB0$
      9888**DCL     17217<<ASSIGN  17321<<ASSIGN  17322>>ASSIGN  17339>>ASSIGN
S_D.LMDCB
     10132**DCL     17019<<ASSIGN  17344--ASSIGN
S_D.M$DELTA_RES
      9711**DCL     17116<<ASSIGN  17118<<ASSIGN  17120<<ASSIGN  17121<<ASSIGN  17128>>ASSIGN  17134<<ASSIGN
S_D.MTREE$
     10112**DCL     17220<<ASSIGN  17460<<ASSIGN  17461>>ASSIGN  17509>>ASSIGN
S_D.NCNSD.RANGE
     10339**DCL     17226<<ASSIGN
S_D.NODE
     10011**DCL     17222<<ASSIGN  17247<>CALL    17289<>CALL    17295<>CALL    17314<>CALL    17405<>CALL
S_D.NODE#M1
     10120**DCL     17450<<ASSIGN  17472>>DOINDEX 17481>>ASSIGN  17496>>IF
S_D.NODEFS4
     10550**DCL     17298>>IF      17299<<ASSIGN
S_D.NODESEG$
     10146**DCL     17009<<ASSIGN  17452>>ASSIGN  17456<>CALL    17460>>ASSIGN  17463>>ASSIGN
PL6.E3A0      #001=DUI$1STIME File=DUI$1STIME.:E05TSI                            TUE 07/29/97 14:53 Page:141
S_D.NODESEG_NEXT$
     10128**DCL     17462<<ASSIGN
S_D.NODESEG_USED$
     10126**DCL     17010<<ASSIGN  17395>>IF      17397>>ASSIGN  17399<<ASSIGN  17399>>ASSIGN  17452>>ASSIGN
     17457<<ASSIGN  17457>>ASSIGN
S_D.ONE_TO_TWO.EXEC_DOMAIN
     10477**DCL     17250>>IF      17256>>IF
S_D.OUTPUT
     10432**DCL     10434--REDEF
S_D.OUT_WIDTH
      9485**DCL     17050<<ASSIGN
S_D.OVERLAID
     10116**DCL     17218<<ASSIGN  17459<<ASSIGN
S_D.PADDR
     10118**DCL     17169<<ASSIGN  17189>>ASSIGN  17242<<ASSIGN  17430<<ASSIGN  17438<<ASSIGN
S_D.PADDR_SAVE
     10162**DCL     17189<<ASSIGN  17242>>ASSIGN
S_D.PARSIZE
      9884**DCL     17141<<ASSIGN
S_D.PROMPT
     10230**DCL     17096--ASSIGN
S_D.PROMPT.TEXT
     10234**DCL     17042<<ASSIGN
S_D.PROMPT.VFC
     10232**DCL     17041<<ASSIGN  17044--ASSIGN
S_D.PROMPT_SIZE
     10228**DCL     17044<<ASSIGN  17095>>ASSIGN
S_D.QSCH
      9756**DCL     17213<<ASSIGN
S_D.RANGE
      9880**DCL     17039<<ASSIGN
S_D.READPOS
     10218**DCL     17054<<ASSIGN
S_D.REMOTE_MSG.FNCC
     10451**DCL     10452--REDEF
S_D.REMOTE_MSG.STXC
PL6.E3A0      #001=DUI$1STIME File=DUI$1STIME.:E05TSI                            TUE 07/29/97 14:53 Page:142
     10447**DCL     10448--REDEF
S_D.REMOTE_MSG.SUBFNCC
     10455**DCL     10456--REDEF
S_D.REPORT_FLAGS
     10269**DCL     17061<<ASSIGN
S_D.RUM
     10100**DCL     17239>>IF      17245>>IF
S_D.S$TEP.MODE
     10380**DCL     17053<<ASSIGN  17369<<ASSIGN
S_D.SAD
     10311**DCL     17052<<ASSIGN
S_D.SCH
      9740**DCL     17212<<ASSIGN
S_D.SCHEMA
      9552**DCL     17031<<ASSIGN
S_D.SCHSEG$
      9886**DCL     17281<<ASSIGN  17284<<ASSIGN
S_D.SCHSEG_BEGIN$
      9538**DCL     17280<<ASSIGN  17281>>ASSIGN  17282>>ASSIGN
S_D.SDEF$
      9900**DCL     17211<<ASSIGN  17315<<ASSIGN  17504>>ASSIGN
S_D.SDEF_END$
      9904**DCL     17322<<ASSIGN  17505>>ASSIGN
S_D.SL
      9477**DCL     17160<<ASSIGN  17180<<ASSIGN
S_D.SL$
      9473**DCL     17150<<ASSIGN  17158<<ASSIGN  17178<<ASSIGN  17179>>ASSIGN  17180>>ASSIGN
S_D.SLP1$
      9475**DCL     17151<<ASSIGN  17159<<ASSIGN  17179<<ASSIGN
S_D.SNAP_TAKEN
      9986**DCL     17526<<ASSIGN  17548<<ASSIGN
S_D.STAND_ALONE
      9927**DCL     17157<<ASSIGN  17191>>IF      17240>>IF
S_D.STATUS
     10554**DCL     17033<<ASSIGN
S_D.SV
PL6.E3A0      #001=DUI$1STIME File=DUI$1STIME.:E05TSI                            TUE 07/29/97 14:53 Page:143
      9511**DCL      9532--REDEF
S_D.SYNTAX
     10283**DCL     17234<<ASSIGN  17348<<ASSIGN  17349>>IF      17352>>IF      17352>>IF      17352>>IF
     17367>>IF      17373>>ASSIGN
S_D.SYNTAX_DEFAULT
     10307**DCL     17233<<ASSIGN  17339<<ASSIGN  17346<<ASSIGN  17348>>ASSIGN
S_D.TRAP
     10053**DCL     17363<<ASSIGN  17365>>ASSIGN
S_D.TREE$
     10110**DCL     17219<<ASSIGN  17509<<ASSIGN
S_D.TSCH
      9804**DCL     17216<<ASSIGN
S_D.UNODE
     10104**DCL     17223<<ASSIGN
S_D.UPROMPT
     10238**DCL     17043<<ASSIGN
S_D.UPROMPT_SIZE
     10240**DCL     17045<<ASSIGN
S_D.UTREE$
     10114**DCL     17221<<ASSIGN  17461<<ASSIGN  17462>>ASSIGN  17465>>ASSIGN
S_D.VARCOM$
      9923**DCL     17014<<ASSIGN  17015<<ASSIGN  17017>>ASSIGN  17018>>ASSIGN
S_D.VARCOM_HIGH$
      9925**DCL     17017<<ASSIGN
S_D.VARNEXT$
      9509**DCL     17018<<ASSIGN
S_D.WHEN_HIGH$
     10385**DCL     17021<<ASSIGN
S_D.XOU_NAME
      9876**DCL     17326<<ASSIGN
S_D.XOU_NAME.SIZE
      9878**DCL     17232<<ASSIGN  17357<<ASSIGN
S_D.XOU_NAME.TEXT
      9879**DCL     17358<<ASSIGN
S_D.XSCH
      9788**DCL     17215<<ASSIGN
PL6.E3A0      #001=DUI$1STIME File=DUI$1STIME.:E05TSI                            TUE 07/29/97 14:53 Page:144
S_D.XSCH.NPOINTER
      9796**DCL     17357>>ASSIGN  17358>>ASSIGN  17358>>ASSIGN
S_D.XUH_PARAM
     10719**DCL     17002<<ASSIGN
S_D.XUH_PARAM.OUTDCB1#
     10725**DCL     17003<<ASSIGN
S_D_SEG$
     10777**DCL     17279<>CALL    17280>>ASSIGN  17283<>CALL
T1
      5699**DCL     17486<<ASSIGN  17488>>IF      17491>>ASSIGN
T2
      5700**DCL     17487<<ASSIGN  17488>>IF      17490>>ASSIGN
TEMP$
      5693**DCL     17305<<ASSIGN  17306>>IF      17307>>DOWHILE 17308>>ASSIGN  17309<<ASSIGN  17309>>ASSIGN
     17327<>CALL    17330>>CALL    17373<<ASSIGN  17375>>ASSIGN  17403<<ASSIGN  17405<>CALL    17408<<ASSIGN
     17408>>ASSIGN  17414<<ASSIGN  17416>>ASSIGN  17426<<ASSIGN  17426>>ASSIGN  17427>>ASSIGN  17428>>ASSIGN
     17431>>DOINDEX 17432>>ASSIGN  17441<<ASSIGN  17446>>ASSIGN  17447>>ASSIGN  17448<<ASSIGN  17448>>ASSIGN
     17449>>ASSIGN  17465<<ASSIGN  17467>>ASSIGN  17468>>ASSIGN  17469<<ASSIGN  17469>>ASSIGN
TEMP1$
      5719**DCL     17428<<ASSIGN  17429>>ASSIGN  17430>>ASSIGN  17432>>ASSIGN  17432>>ASSIGN  17433<<ASSIGN
     17433>>ASSIGN
TOGET
      5724**DCL     17394<<ASSIGN  17404>>DOWHILE 17405<>CALL    17407<<ASSIGN  17407>>ASSIGN  17411<<ASSIGN
     17413>>ASSIGN  17415>>DOINDEX
TSIZE
      5695**DCL     17276<<ASSIGN  17283<>CALL    17284>>ASSIGN  17337<<ASSIGN  17338<>CALL    17447<<ASSIGN
     17450>>ASSIGN  17451>>ASSIGN  17451>>ASSIGN  17460>>ASSIGN  17461>>ASSIGN  17462>>ASSIGN  17466>>DOINDEX
UIS$
     11010**DCL     17158>>ASSIGN  17159>>ASSIGN  17170>>ASSIGN  17178>>ASSIGN  17180>>ASSIGN
UJIT$
     11011**DCL     17165>>IF      17168>>ASSIGN
UPLL
      5706**DCL      5707--REDEF   17167<<ASSIGN  17169>>ASSIGN  17170>>ASSIGN
UPLLP.PLL
      5708**DCL     17168<<ASSIGN
UREGS
PL6.E3A0      #001=DUI$1STIME File=DUI$1STIME.:E05TSI                            TUE 07/29/97 14:53 Page:145
      5737**DCL     16981--ASSIGN
USLPTR
      5711**DCL     17171<<ASSIGN  17174<<ASSIGN
USLPTR.ADR
      5712**DCL     17178>>ASSIGN
USLPTR.SEGID
      5714**DCL     17172>>IF      17175>>IF
VLP_EOMTABLE_DELTA
     15131**DCL     14976--DCLINIT
VLP_NAME_M$DELTA
     15160**DCL     14996--DCLINIT
VLR$SITEINFO
     15173**DCL     17065--ASSIGN
VLR$SITEINFO.CPU_TYPE#
     15177**DCL     17067>>ASSIGN
VLR$SITEINFO.SITE_NAME#.C
     15174**DCL     17090>>IF
WHERE$
      5710**DCL     17170<<ASSIGN  17171>>ASSIGN  17174>>ASSIGN
XUH_PARAM
     14753**DCL     17002>>ASSIGN
XXX
     17541**LABEL   17545--CALLALT 17565--GOTO
PL6.E3A0      #001=DUI$1STIME File=DUI$1STIME.:E05TSI                            TUE 07/29/97 14:53 Page:146
              *** CROSS REFERENCE LISTING ***
    **     DENOTES     IDENTIFIER DEFINITION
    <<                 IDENTIFIER'S VALUE SET
    >>                 IDENTIFIER'S VALUE USED
    <>                 IDENTIFIER SET AND/OR USED
    --                 IDENTIFIER REFERENCED
PL6.E3A0      #001=DUI$1STIME File=DUI$1STIME.:E05TSI                            TUE 07/29/97 14:53 Page:147
              MINI UREF LISTING

B$ROAVAIL   10922**DCL
B$RODCB$   10919**DCL
DA    5616**DCL
DDI$GET_PATCH_SPACE   15458**DCL-ENT
DDM$GETMEM1   15460**DCL-ENT
DD_HOST_NODE_PTR$   14345**DCL
DD_INSTR_CONT   14369**DCL
DD_L6X_NODE_PTR$   14347**DCL
DD_L6_NODE_PTR$   14346**DCL
DD_MODE_NODE_PTR$   14344**DCL
DUI$1STIME      43**PROC
DUI$RU_ACCESS   17206**ENTRY
M$ACCT      71**DCL-ENT
M$ACTIVATE      74**DCL-ENT
M$ALIB      67**DCL-ENT
M$ASUSER      69**DCL-ENT
M$ATTACH      76**DCL-ENT
M$BADPP      94**DCL-ENT
M$CGCTL      75**DCL-ENT
M$CGINFO      75**DCL-ENT
M$CHECK      56**DCL-ENT
M$CHGUNIT     114**DCL-ENT
M$CLOSE      54**DCL-ENT
M$CLRSTK     112**DCL-ENT
M$CMDVAR     123**DCL-ENT
M$CONFIG      84**DCL-ENT
M$CORRES      59**DCL-ENT
M$CPEXIT      68**DCL-ENT
M$CVM      92**DCL-ENT
M$CVOL      57**DCL-ENT
M$DCLFLD      84**DCL-ENT
M$DEACTIVATE      74**DCL-ENT
PL6.E3A0      #001=DUI$1STIME File=DUI$1STIME.:E05TSI                            TUE 07/29/97 14:53 Page:148
M$DELREC      56**DCL-ENT
M$DEQ     121**DCL-ENT
M$DETACH      76**DCL-ENT
M$DEVICE      58**DCL-ENT
M$DISPLAY     121**DCL-ENT
M$DISPRES      61**DCL-ENT
M$DLIB      67**DCL-ENT
M$DRIBBLE      84**DCL-ENT
M$DSUSER      69**DCL-ENT
M$ENQ     120**DCL-ENT
M$ERASE      85**DCL-ENT
M$ERR      66**DCL-ENT
M$ERRMSG     117**DCL-ENT
M$EVENT     109**DCL-ENT
M$EXHUME     118**DCL-ENT
M$EXTEND      58**DCL-ENT
M$FDP      90**DCL-ENT
M$FDS      89**DCL-ENT
M$FEBOOT      82**DCL-ENT
M$FECTL      83**DCL-ENT
M$FEDUMP      82**DCL-ENT
M$FID     117**DCL-ENT
M$FINDPROC      71**DCL-ENT
M$FSUSER      69**DCL-ENT
M$FVP      91**DCL-ENT
M$FWCG      75**DCL-ENT
M$GBPL      95**DCL-ENT
M$GDDL      91**DCL-ENT
M$GDP      90**DCL-ENT
M$GDS      89**DCL-ENT
M$GETMOUSE     100**DCL-ENT
M$GETPM     101**DCL-ENT
M$GJOB     119**DCL-ENT
M$GLINEATTR      79**DCL-ENT
M$GOODPP      94**DCL-ENT
M$GPLATEN      87**DCL-ENT
PL6.E3A0      #001=DUI$1STIME File=DUI$1STIME.:E05TSI                            TUE 07/29/97 14:53 Page:149
M$GPROMPT      86**DCL-ENT
M$GTRMATTR      80**DCL-ENT
M$GTRMCTL      78**DCL-ENT
M$GTRMTAB      81**DCL-ENT
M$GVP      90**DCL-ENT
M$HELP     117**DCL-ENT
M$INT     109**DCL-ENT
M$INTRTN      70**DCL-ENT
M$IOQ     105**DCL-ENT
M$JOBSTATS     119**DCL-ENT
M$KEYIN      59**DCL-ENT
M$LDEV      54**DCL-ENT
M$LDTRC      67**DCL-ENT
M$LIMIT      60**DCL-ENT
M$LINES      59**DCL-ENT
M$LINK      66**DCL-ENT
M$MADMUCK      62**DCL-ENT
M$MAKUSER      93**DCL-ENT
M$MBS      61**DCL-ENT
M$MDFFLD      85**DCL-ENT
M$MERC     110**DCL-ENT
M$MERCS     111**DCL-ENT
M$MIRROR     105**DCL-ENT
M$MPL      95**DCL-ENT
M$NODEINFO      86**DCL-ENT
M$NXTUSR     120**DCL-ENT
M$OCMSG     118**DCL-ENT
M$OLAY      66**DCL-ENT
M$PAS      95**DCL-ENT
M$PATHCON     118**DCL-ENT
M$PDS      89**DCL-ENT
M$PFIL      56**DCL-ENT
M$PLATEN      80**DCL-ENT
M$PRECORD      58**DCL-ENT
M$PROCNAME      71**DCL-ENT
M$PROFILE      82**DCL-ENT
PL6.E3A0      #001=DUI$1STIME File=DUI$1STIME.:E05TSI                            TUE 07/29/97 14:53 Page:150
M$RACST      62**DCL-ENT
M$RDSYSLOG     103**DCL-ENT
M$READ      55**DCL-ENT
M$RELDCB      60**DCL-ENT
M$RELRES      61**DCL-ENT
M$RELSTARF      63**DCL-ENT
M$REM      63**DCL-ENT
M$RENV     110**DCL-ENT
M$REQUIRE      62**DCL-ENT
M$RETRY     111**DCL-ENT
M$RETRYS     111**DCL-ENT
M$REW      57**DCL-ENT
M$RLSFLD      85**DCL-ENT
M$RPRIV     113**DCL-ENT
M$RSPP      92**DCL-ENT
M$RSWITCH     114**DCL-ENT
M$RUE     120**DCL-ENT
M$SAD      93**DCL-ENT
M$SAVE      69**DCL-ENT
M$SCON      70**DCL-ENT
M$SCREECH      68**DCL-ENT
M$SENV     110**DCL-ENT
M$SETFMA      54**DCL-ENT
M$SETFP      83**DCL-ENT
M$SINPUT      81**DCL-ENT
M$SLCFLD      86**DCL-ENT
M$SMOUSE     100**DCL-ENT
M$SMPRT      92**DCL-ENT
M$SPRIV     113**DCL-ENT
M$SSC      93**DCL-ENT
M$SSWITCH     113**DCL-ENT
M$STATE     122**DCL-ENT
M$STD      94**DCL-ENT
M$STIMER     108**DCL-ENT
M$STLPP      91**DCL-ENT
M$STRAP     108**DCL-ENT
PL6.E3A0      #001=DUI$1STIME File=DUI$1STIME.:E05TSI                            TUE 07/29/97 14:53 Page:151
M$STRMATTR      80**DCL-ENT
M$STRMCTL      78**DCL-ENT
M$STRMTAB      81**DCL-ENT
M$SYMBIO     119**DCL-ENT
M$SYSCON     105**DCL-ENT
M$SYSID     123**DCL-ENT
M$TDCLOSE     104**DCL-ENT
M$TDIO     104**DCL-ENT
M$TDOPEN     103**DCL-ENT
M$TDREQCPU     104**DCL-ENT
M$TEMPWROC      98**DCL-ENT
M$TIME     121**DCL-ENT
M$TRAP     108**DCL-ENT
M$TRMISC      83**DCL-ENT
M$TRMPRG      79**DCL-ENT
M$TRTN     112**DCL-ENT
M$TRUNC      55**DCL-ENT
M$TTIMER     108**DCL-ENT
M$UMPL      95**DCL-ENT
M$UNFID     117**DCL-ENT
M$UNLATCH      74**DCL-ENT
M$UNSHARE      71**DCL-ENT
M$USRFIELD     114**DCL-ENT
M$VIRTUAL      89**DCL-ENT
M$WAIT     112**DCL-ENT
M$WEOF      57**DCL-ENT
M$WRSYSLOG     103**DCL-ENT
M$XCON     109**DCL-ENT
M$XCONRTN      70**DCL-ENT
M$XEQTIME     122**DCL-ENT
M$XFLUSH      63**DCL-ENT
M$XMOUSE     100**DCL-ENT
M$YC      68**DCL-ENT
SDD$    4867**DCL
SDD_L6$    4869**DCL
S_D$   10763**DCL
PL6.E3A0      #001=DUI$1STIME File=DUI$1STIME.:E05TSI                            TUE 07/29/97 14:53 Page:152
S_D_ACCESS$   10778**DCL
S_D_ANLZ$   10780**DCL
S_D_ASTACKOFF$   10779**DCL
S_D_BREAK$   10781**DCL
S_D_DO_SCAN$   10782**DCL
S_D_ERROR$   10783**DCL
S_D_FAULTCMD$$   10784**DCL
S_D_FAULTINS$$   10785**DCL
S_D_GOIC$   10786**DCL
S_D_GO_MODE$   10787**DCL
S_D_HOST_MESSAGE$   10799**DCL
S_D_HW_PTB_UNITS$   10803**DCL
S_D_HW_RES_MEM$   10801**DCL
S_D_HW_WSQ0PT$   10802**DCL
S_D_IPRFLT$   10789**DCL
S_D_IXFIX$   10788**DCL
S_D_L6_MESSAGE$   10800**DCL
S_D_REM_ACCESS$   10790**DCL
S_D_REM_DISKBOOT$   10792**DCL
S_D_REM_DO_SCAN$   10791**DCL
S_D_RETURNN$   10793**DCL
S_D_SAD$   10794**DCL
S_D_SAVEIC$   10795**DCL
S_D_TCB$$   10796**DCL
S_D_UREG$$   10797**DCL
S_D_USS$$   10798**DCL
ZITEM$    4868**DCL
ZITEM_L6$    4870**DCL

