VERSION E05

PL6.E3A0      #001=DUL$GETMVAL File=DUL$GETMVAL.:E05TSI                          TUE 07/29/97 14:54 Page:1
        1        1        /*M* DUL$GETMVAL - GET VALUE FROM DUMP FILE */
        2        2        /*T***********************************************************/
        3        3        /*T*                                                         */
        4        4        /*T* Copyright (c) Bull HN Information Systems Inc., 1997    */
        5        5        /*T*                                                         */
        6        6        /*T***********************************************************/
        7        7        /*X* CCC,DMR,PLM=5,IND=5,CSU=3,EXM=0,ECU=3,MOC,DCI=5,CRT=5 */
        8        8        /*P* NAME: DUL$GETMVAL
        9        9             DESCRIPTION: THIS ROUTINE IS USED TO FETCH A WORD FROM
       10       10                  A CRASH DUMP FILE.
       11       11             INPUT: SEG - ENCODED SEGMENT ID
       12       12                    DESC# - ENCODED DESCRIPTOR NUMBER
       13       13                    ADDRESS - WORD OFFSET
       14       14                     NOT_IS - CURRENTLY IGNORED
       15       15                      SEE DDK$EVAL FOR POSSIBLE VALUES FOR SEG AND DESC#
       16       16             OUTPUT: THE VALUE DECRIBED BY SEG, DESC#, AND ADDRESS.
       17       17                                     */
       18       18        DUL$GETMVAL: PROC(VALUE, ADDRESS, ISEG, IDESC#, NOT_IS) ALTRET;
       19       19                                                /**/
       20       20    1   DCL ISEG UBIN;
       21       21    1   DCL IDESC# UBIN;
       22       22    1   DCL SEG UBIN;
       23       23    1   DCL DESC# UBIN;
       24       24    1   DCL ADDRESS UBIN;
       25       25    1   DCL NOT_IS BIT(1) ALIGNED;
       26       26    1   DCL VALUE UBIN;
       27       27    1   DCL BVALUE REDEF VALUE BIT(36);
       28       28    1   DCL VWSTART UBIN;
       29       29    1   DCL PTR$ PTR;
       30       30    1   DCL JUNK BIT(72);
       31       31    1   DCL UBIN36 UBIN BASED;
       32       32    1   DCL BIT72 BIT(72) BASED DALIGNED;
       33       33        %INCLUDE DD_ERR_C;
       34      430        %INCLUDE XUH_MACRO_C;
       35      514        %INCLUDE DD_SD_M;
       36     1850        %S_D;
       37     3168        %INCLUDE DD$BASED;
PL6.E3A0      #001=DUL$GETMVAL File=DUL$GETMVAL.:E05TSI                          TUE 07/29/97 14:54 Page:2
       38     4471        %LS (STCLASS=AUTO);
       39     4482        %INCLUDE IR_DATA_M;
       40     4646        %INCLUDE NI$TABLES;
       41     4862        %INCLUDE DD$DA;
       42     4943        %RV_DFSUBS;
       43     4970        %RV_BUFF (NAME=RV_BUFF, STCLASS=BASED);
       44     5006        %RV_USRDIR (NAME=RV_USRDIR, STCLASS=BASED);
       45     5010        %INCLUDE B$SS;
       46     5189                                                /**/
       47     5190    1   DCL DUL$GETVP ENTRY(2) ALTRET;
       48     5191                                                /**/
       49     5192    1        SEG = ISEG;
       50     5193    1        DESC# = IDESC#;
       51     5194    1        IF NOT NOT_IS
       52     5195    2        THEN DO;
       53     5196    2             SEG=3;
       54     5197    2             DESC#=0;
       55     5198    2           END;
       56     5199    2        DO CASE (SEG);
       57     5200    2          CASE(3);
       58     5201    2   SEG3_ENTRY:
       59     5202    2             IF DA.CURLS$ = ADDR(NIL)
       60     5203    3             THEN DO;
       61     5204    3                  S_D.ERROR = E@NO_USE;    /* E@NO_USE */
       62     5205    3                  ALTRETURN;
       63     5206    3                END;
       64     5207    2             LS = PINCRW(DA.CURLS$, 2*DESC#)->BIT72; /* Get the descriptor */
       65     5208    2             IF NOT LS.FLG.EMPTY
       66     5209    2             THEN GOTO OUTOFSEG;
       67     5210    2             IF LS.TYP ~= 0
       68     5211    3             THEN DO;
       69     5212    3                  S_D.ERROR = E@NOTIMP;    /*E@NOTIMP*/
       70     5213    3                  ALTRETURN;
       71     5214    3                END;
       72     5215    2             IF LS.WSR = 0
       73     5216    3             THEN DO;                      /* Mon wsq */
       74     5217    3                  IF DESC# = 17 THEN GOTO REAL_ENTRY; /* LS17 is mapped to low real */
PL6.E3A0      #001=DUL$GETMVAL File=DUL$GETMVAL.:E05TSI                          TUE 07/29/97 14:54 Page:3
       75     5218    3                  DA.CURPT$ = DA.MONPT$;
       76     5219    3                  DA.CURKEY = DA.MONKEY;
       77     5220    3                END;
       78     5221    2             ELSE IF LS.WSR = 7
       79     5222    3                  THEN DO;
       80     5223    3                       DA.CURPT$ = DA.UPT$;
       81     5224    3                       DA.CURKEY = DA.UKEY;
       82     5225    3                     END;
       83     5226    3                  ELSE DO;
       84     5227    3                       S_D.ERROR = E@NOTIMP; /*E@NOTIMP*/
       85     5228    3                       ALTRETURN;
       86     5229    3                     END;
       87     5230        /*N* ADD DOMAIN CODE */
       88     5231    2             IF ADDRESS*4 + 4 > LS.BOUND + 1 THEN GOTO OUTOFSEG;
       89     5232    2             IF MOD(LS.BASE, 4) ~= 0
       90     5233    3             THEN DO;
       91     5234    3                  S_D.ERROR = E@NOTIMP;    /*E@NOTIMP*/
       92     5235    3                  ALTRETURN;
       93     5236    3                END;
       94     5237    2             VWSTART = (LS.BASE/4 + ADDRESS);
       95     5238         /* Get the page if not in memory already, passing a pointer to the page in PTR$ */
       96     5239    2             CALL DUL$GETVP(VWSTART/1024, PTR$) ALTRET(BAD_VP);
       97     5240    2             VALUE = PINCRW(PTR$, MOD(VWSTART, 1024))->UBIN36;
       98     5241    2          CASE(1);                         /* Special segment */
       99     5242    3             DO CASE (DESC#);
      100     5243    3               CASE(0);                    /* $REAL */
      101     5244    3   REAL_ENTRY:
      102     5245    3                  IF ADDRESS/1024 > 3 THEN GOTO OUTOFSEG;
      103     5246    3                  JUNK = DA.CURKEY;
      104     5247    3                  DA.CURKEY.K.TYP = %R_LRMEM#;
      105     5248    3                  DA.CURKEY.K.STYP = 0;
      106     5249    3                  DA.CURKEY.K.USR# = 0;
      107     5250    3                  DA.CURKEY.K.NODEIDX = DA.NODEIDX;
      108     5251    3                  CALL DUL$GETVP(ADDRESS/1024, PTR$) ALTRET(REAL_ALT);
      109     5252    3                  VALUE = PINCRW(PTR$, MOD(ADDRESS, 1024))->UBIN36;
      110     5253    3                  DA.CURKEY = JUNK;
      111     5254    3               CASE(1);                    /* $VIRT */
PL6.E3A0      #001=DUL$GETMVAL File=DUL$GETMVAL.:E05TSI                          TUE 07/29/97 14:54 Page:4
      112     5255    3                  IF ADDRESS/1024 > 511 THEN GOTO OUTOFSEG;
      113     5256    3                  CALL DUL$GETVP(ADDRESS/1024, PTR$) ALTRET(BAD_VP);
      114     5257    3                  VALUE = PINCRW(PTR$, MOD(ADDRESS, 1024))->UBIN36;
      115     5258    3               CASE(6);                    /* $SSR */
      116     5259    3                  IF ADDRESS > 63 THEN GOTO OUTOFSEG;
      117     5260    3                  ELSE VALUE = PINCRW(ADDR(DA.RVBUFF$->RV_BUFF.SSFRAME), ADDRESS)->
              5260                           UBIN36;
      118     5261    3               CASE(7);                    /*  $JIT */
      119     5262    3                  SEG = 3;
      120     5263    3                  DESC#=1;
      121     5264    3                  GOTO SEG3_ENTRY;
      122     5265    3               CASE(8);                    /* $HJIT */
      123     5266    3                  IF ADDRESS > 1023 THEN GOTO OUTOFSEG;
      124     5267    4                  ELSE DO;
      125     5268    4                       CALL DUL$GETVP(2, PTR$) ALTRET(BAD_VP); /* Hjit page is vp 2 */
      126     5269    4                       VALUE = PINCRW(PTR$, ADDRESS)->UBIN36;
      127     5270    4                     END;
      128     5271    3               CASE(9);                    /* $TCB */
      129     5272    3                  SEG = 3;
      130     5273    3                  DESC# = 15;
      131     5274    3                  GOTO SEG3_ENTRY;
      132     5275    3               CASE(11);                   /* $RVB */
      133     5276    3                  IF ADDRESS > SIZEW(RV_BUFF)-1 THEN GOTO OUTOFSEG;
      134     5277    3                  ELSE VALUE = PINCRW(DA.RVBUFF$, ADDRESS)->UBIN36;
      135     5278    3               CASE(12);                   /* $USD */
      136     5279    3                  IF ADDRESS > SIZEW(RV_USRDIR)-1 THEN GOTO OUTOFSEG;
      137     5280    3                  ELSE VALUE = PINCRW(DA.USRDIR$, ADDRESS)->UBIN36;
      138     5281    3               CASE(ELSE);
      139     5282    3                  S_D.ERROR = E@NOTIMP;    /*E@NOTIMP*/
      140     5283    3                  ALTRETURN;
      141     5284    3               END;                        /* Sub case DESC# */
      142     5285    2          CASE(6);                         /* Host special symbol */
      143     5286    3             DO CASE(DESC#);
      144     5287    3               CASE(0);
      145     5288    4                  DO CASE(ADDRESS);
      146     5289    4                    CASE(0);
      147     5290    4                       VALUE = BITBIN(S_D.USS$->B$SS.E);
PL6.E3A0      #001=DUL$GETMVAL File=DUL$GETMVAL.:E05TSI                          TUE 07/29/97 14:54 Page:5
      148     5291    4                    CASE(1);
      149     5292    4                       VALUE = S_D.USS$->B$SS.A;
      150     5293    4                    CASE(2);
      151     5294    4                       VALUE = S_D.USS$->B$SS.Q;
      152     5295    4                    CASE(3);
      153     5296    4                       VALUE = S_D.USS$->B$SS.X0;
      154     5297    4                    CASE(4);
      155     5298    4                       VALUE = S_D.USS$->B$SS.X1;
      156     5299    4                    CASE(5);
      157     5300    4                       VALUE = S_D.USS$->B$SS.X2;
      158     5301    4                    CASE(6);
      159     5302    4                       VALUE = S_D.USS$->B$SS.X3;
      160     5303    4                    CASE(7);
      161     5304    4                       VALUE = S_D.USS$->B$SS.X4;
      162     5305    4                    CASE(8);
      163     5306    4                       VALUE = S_D.USS$->B$SS.X5;
      164     5307    4                    CASE(9);
      165     5308    4                       VALUE = S_D.USS$->B$SS.X6;
      166     5309    4                    CASE(10);
      167     5310    4                       VALUE = S_D.USS$->B$SS.X7;
      168     5311    4                    CASE(11);
      169     5312    4                       VALUE = BITBIN(S_D.USS$->B$SS.IR);
      170     5313    4                    CASE(12);
      171     5314    4                       VALUE = S_D.SAVEIC;
      172     5315    4                    END;                   /* Do case (address) */
      173     5316    3               CASE (2);
      174     5317    4                  DO CASE(ADDRESS);
      175     5318    4                    CASE(0);
      176     5319    4                       BVALUE = S_D.USS$ -> B$SS.PR0;
      177     5320    4                    CASE(1);
      178     5321    4                       BVALUE = S_D.USS$ -> B$SS.PR1;
      179     5322    4                    CASE(2);
      180     5323    4                       BVALUE = S_D.USS$ -> B$SS.PR2;
      181     5324    4                    CASE(3);
      182     5325    4                       BVALUE = S_D.USS$ -> B$SS.PR3;
      183     5326    4                    CASE(4);
      184     5327    4                       BVALUE = S_D.USS$ -> B$SS.PR4;
PL6.E3A0      #001=DUL$GETMVAL File=DUL$GETMVAL.:E05TSI                          TUE 07/29/97 14:54 Page:6
      185     5328    4                    CASE(5);
      186     5329    4                       BVALUE = S_D.USS$ -> B$SS.PR5;
      187     5330    4                    CASE(6);
      188     5331    4                       BVALUE = S_D.USS$ -> B$SS.PR6;
      189     5332    4                    CASE(7);
      190     5333    4                       BVALUE = S_D.USS$ -> B$SS.PR7;
      191     5334    4                    END;
      192     5335    3               CASE (ELSE);
      193     5336    3                  S_D.ERROR = E@NOTIMP;    /*E@NOTIMP*/
      194     5337    3                  ALTRETURN;
      195     5338    3               END;                        /*Do case (DESC#) */
      196     5339    2          CASE(8);                         /* Sam's comgroup wsqs */
      197     5340    2             IF ADDRESS/1024 > 255 THEN GOTO OUTOFSEG;
      198     5341    2             JUNK = DA.CURKEY;
      199     5342    2             DA.CURKEY.K.TYP = %R_CWSQPGS#;
      200     5343    2             DA.CURKEY.K.STYP = DESC#;
      201     5344    2             DA.CURKEY.K.USR# = 1;
      202     5345    2             DA.CURKEY.K.NODEIDX = DA.NODEIDX;
      203     5346    2             CALL DUL$GETVP(ADDRESS/1024, PTR$) ALTRET(REAL_ALT);
      204     5347    2             VALUE = PINCRW(PTR$, MOD(ADDRESS, 1024))->UBIN36;
      205     5348    2             DA.CURKEY = JUNK;
      206     5349    2          CASE(9);                         /* L6 special symbol */
      207     5350    2             S_D.ERROR = E@FEPSYM_NOTANLZ; /* E@FEPSYM_NOTANLZ */
      208     5351    2             ALTRETURN;
      209     5352    2          CASE (ELSE);
      210     5353    2             S_D.ERROR = E@NOTIMP;         /*E@NOTIMP*/
      211     5354    2             ALTRETURN;
      212     5355    2          END;                             /* Do case (seg) */
      213     5356    1        RETURN;
      214     5357    1   BAD_VP: ALTRETURN;                 /* There's something wrong, pass it on */
      215     5358    1   REAL_ALT:
      216     5359    1        DA.CURKEY = JUNK;             /* Restore curkey when $REAL get altrets */
      217     5360    1        ALTRETURN;
      218     5361    1   OUTOFSEG:
      219     5362    1        S_D.ERROR = E@OUTOFSEG;            /*E@OUTOFSEG*/
      220     5363    1        ALTRETURN;
      221     5364    1   END DUL$GETMVAL;
PL6.E3A0      #001=DUL$GETMVAL File=DUL$GETMVAL.:E05TSI                          TUE 07/29/97 14:54 Page:7

PL6.E3A0      #001=DUL$GETMVAL File=DUL$GETMVAL.:E05TSI                          TUE 07/29/97 14:54 Page:8
--  Include file information  --

   B$SS.:E05TOU  cannot be made into a system file and is referenced.
   DD$DA.:E05TOU  cannot be made into a system file and is referenced.
   NI$TABLES.:E05TOU  is referenced.
   IR_DATA_M.:E05TOU  is referenced.
   DD$BASED.:E05TOU  is referenced.
   DD_SD_M.:E05TOU  is referenced.
   XUH_MACRO_C.:E05TOU  is referenced.
   DD_ERR_C.:E05TOU  is referenced.
   B$JIT_C.:E05TOU  was found in the system file and is never referenced.
   CP_6_C.:E05TOU  was found in the system file and is never referenced.
      No diagnostics issued in procedure DUL$GETMVAL.

   Procedure DUL$GETMVAL requires 489 words for executable code.
   Procedure DUL$GETMVAL requires 20 words of local(AUTO) storage.

    No errors detected in file DUL$GETMVAL.:E05TSI    .

PL6.E3A0      #001=DUL$GETMVAL File=DUL$GETMVAL.:E05TSI                          TUE 07/29/97 14:54 Page:9

 Object Unit name= DUL$GETMVAL                                File name= DUL$GETMVAL.:E05TOU
 UTS= JUL 29 '97 14:54:51.56 TUE                              Compiler= PL-6/E31         Sev=      00
 SharedLib= :SHARED_SYSTEM                                    Alt SharedLib=


    ****  Control sections  ****

 Sect   Type Bound  Init  Size OctSiz  Section name(segment info)
    0   Proc  even  none   489    751  DUL$GETMVAL
    1  RoData even  none     1      1  DUL$GETMVAL

    ****  Entry defs  ****

                              Check   Calling
                             calling  sequence
  Sect OctLoc Primary Altret sequence   type   Parms  Name
     0      0   yes    yes     yes      Std        5  DUL$GETMVAL

  ****  Entry refs  ****

         Check        Calling
        calling       sequence
Altret sequence SRef   type   Args  Name
 yes     yes           Std       2 DUL$GETVP
                       nStd      0 X66_AUTO_5
                       Std       0 B_CONSPOOL_D
                       nStd      0 X66_AALT
                       nStd      0 X66_ARET

  ****  Data refs  ****

  Flags:  r = read only, s = secondary
Flgs Name                             Flgs Name                             Flgs Name
r    S_D$                                  DD_ANLZSEG$                           B_VECTNIL
PL6.E3A0      #001=DUL$GETMVAL File=DUL$GETMVAL.:E05TSI                          TUE 07/29/97 14:54 Page:10

  ****  Segment refs  ****

  Flags:  r = read only, s = secondary
Flgs Name                             Flgs Name                             Flgs Name
     ISSID
PL6.E3A0      #001=DUL$GETMVAL File=DUL$GETMVAL.:E05TSI                          TUE 07/29/97 14:54 Page:11


        1        1        /*M* DUL$GETMVAL - GET VALUE FROM DUMP FILE */
        2        2        /*T***********************************************************/
        3        3        /*T*                                                         */
        4        4        /*T* Copyright (c) Bull HN Information Systems Inc., 1997    */
        5        5        /*T*                                                         */
        6        6        /*T***********************************************************/
        7        7        /*X* CCC,DMR,PLM=5,IND=5,CSU=3,EXM=0,ECU=3,MOC,DCI=5,CRT=5 */
        8        8        /*P* NAME: DUL$GETMVAL
        9        9             DESCRIPTION: THIS ROUTINE IS USED TO FETCH A WORD FROM
       10       10                  A CRASH DUMP FILE.
       11       11             INPUT: SEG - ENCODED SEGMENT ID
       12       12                    DESC# - ENCODED DESCRIPTOR NUMBER
       13       13                    ADDRESS - WORD OFFSET
       14       14                     NOT_IS - CURRENTLY IGNORED
       15       15                      SEE DDK$EVAL FOR POSSIBLE VALUES FOR SEG AND DESC#
       16       16             OUTPUT: THE VALUE DECRIBED BY SEG, DESC#, AND ADDRESS.
       17       17                                     */
       18       18        DUL$GETMVAL: PROC(VALUE, ADDRESS, ISEG, IDESC#, NOT_IS) ALTRET;

     18  0 000000   000000 700200 xent  DUL$GETMVAL  TSX0  ! X66_AUTO_5
         0 000001   000024 000005                    ZERO    20,5

       19       19                                                /**/
       20       20    1   DCL ISEG UBIN;
       21       21    1   DCL IDESC# UBIN;
       22       22    1   DCL SEG UBIN;
       23       23    1   DCL DESC# UBIN;
       24       24    1   DCL ADDRESS UBIN;
       25       25    1   DCL NOT_IS BIT(1) ALIGNED;
       26       26    1   DCL VALUE UBIN;
       27       27    1   DCL BVALUE REDEF VALUE BIT(36);
       28       28    1   DCL VWSTART UBIN;
       29       29    1   DCL PTR$ PTR;
       30       30    1   DCL JUNK BIT(72);
       31       31    1   DCL UBIN36 UBIN BASED;
       32       32    1   DCL BIT72 BIT(72) BASED DALIGNED;
PL6.E3A0      #001=DUL$GETMVAL File=DUL$GETMVAL.:E05TSI                          TUE 07/29/97 14:54 Page:12
       33       33        %INCLUDE DD_ERR_C;
       34      430        %INCLUDE XUH_MACRO_C;
       35      514        %INCLUDE DD_SD_M;
       36     1850        %S_D;
       37     3168        %INCLUDE DD$BASED;
       38     4471        %LS (STCLASS=AUTO);
       39     4482        %INCLUDE IR_DATA_M;
       40     4646        %INCLUDE NI$TABLES;
       41     4862        %INCLUDE DD$DA;
       42     4943        %RV_DFSUBS;
       43     4970        %RV_BUFF (NAME=RV_BUFF, STCLASS=BASED);
       44     5006        %RV_USRDIR (NAME=RV_USRDIR, STCLASS=BASED);
       45     5010        %INCLUDE B$SS;
       46     5189                                                /**/
       47     5190    1   DCL DUL$GETVP ENTRY(2) ALTRET;
       48     5191                                                /**/
       49     5192    1        SEG = ISEG;

   5192  0 000002   200005 470500                    LDP0    @ISEG,,AUTO
         0 000003   000000 235100                    LDA     0,,PR0
         0 000004   200010 755100                    STA     SEG,,AUTO

       50     5193    1        DESC# = IDESC#;

   5193  0 000005   200006 471500                    LDP1    @IDESC#,,AUTO
         0 000006   100000 235100                    LDA     0,,PR1
         0 000007   200011 755100                    STA     DESC#,,AUTO

       51     5194    1        IF NOT NOT_IS

   5194  0 000010   200007 473500                    LDP3    @NOT_IS,,AUTO
         0 000011   300000 234100                    SZN     0,,PR3
         0 000012   000016 604000 0                  TMI     s:5199

       52     5195    2        THEN DO;

       53     5196    2             SEG=3;
PL6.E3A0      #001=DUL$GETMVAL File=DUL$GETMVAL.:E05TSI                          TUE 07/29/97 14:54 Page:13

   5196  0 000013   000003 236007                    LDQ     3,DL
         0 000014   200010 756100                    STQ     SEG,,AUTO

       54     5197    2             DESC#=0;

   5197  0 000015   200011 450100                    STZ     DESC#,,AUTO

       55     5198    2           END;

       56     5199    2        DO CASE (SEG);

   5199  0 000016   200010 236100                    LDQ     SEG,,AUTO
         0 000017   000012 116007                    CMPQ    10,DL
         0 000020   000022 602006 0                  TNC     s:5199+4,QL
         0 000021   000733 710000 0                  TRA     s:5353
         0 000022   000733 710000 0                  TRA     s:5353
         0 000023   000156 710000 0                  TRA     s:5242
         0 000024   000733 710000 0                  TRA     s:5353
         0 000025   000034 710000 0                  TRA     SEG3_ENTRY
         0 000026   000733 710000 0                  TRA     s:5353
         0 000027   000733 710000 0                  TRA     s:5353
         0 000030   000377 710000 0                  TRA     s:5286
         0 000031   000733 710000 0                  TRA     s:5353
         0 000032   000660 710000 0                  TRA     s:5340
         0 000033   000727 710000 0                  TRA     s:5350

       57     5200    2          CASE(3);

       58     5201    2   SEG3_ENTRY:
       59     5202    2             IF DA.CURLS$ = ADDR(NIL)

   5202  0 000034   000000 470400 xsym  SEG3_ENTRY   LDP0    DD_ANLZSEG$
         0 000035   000002 236100                    LDQ     2,,PR0
         0 000036   000001 116000 xsym               CMPQ    B_VECTNIL+1
         0 000037   000044 601000 0                  TNZ     s:5207

PL6.E3A0      #001=DUL$GETMVAL File=DUL$GETMVAL.:E05TSI                          TUE 07/29/97 14:54 Page:14
       60     5203    3             THEN DO;

       61     5204    3                  S_D.ERROR = E@NO_USE;    /* E@NO_USE */

   5204  0 000040   000246 235007                    LDA     166,DL
         0 000041   000000 471400 xsym               LDP1    S_D$
         0 000042   100013 755100                    STA     11,,PR1

       62     5205    3                  ALTRETURN;

   5205  0 000043   000000 702200 xent               TSX2  ! X66_AALT

       63     5206    3                END;
       64     5207    2             LS = PINCRW(DA.CURLS$, 2*DESC#)->BIT72; /* Get the descriptor */

   5207  0 000044   000002 471500                    LDP1    2,,PR0
         0 000045   200011 235100                    LDA     DESC#,,AUTO
         0 000046   000001 735000                    ALS     1
         0 000047   100000 237105                    LDAQ    0,AL,PR1
         0 000050   200016 757100                    STAQ    LS,,AUTO

       65     5208    2             IF NOT LS.FLG.EMPTY

   5208  0 000051   200016 236100                    LDQ     LS,,AUTO
         0 000052   000400 316007                    CANQ    256,DL
         0 000053   000745 600000 0                  TZE     OUTOFSEG

       66     5209    2             THEN GOTO OUTOFSEG;
       67     5210    2             IF LS.TYP ~= 0

   5210  0 000054   000017 316007                    CANQ    15,DL
         0 000055   000062 600000 0                  TZE     s:5215

       68     5211    3             THEN DO;

       69     5212    3                  S_D.ERROR = E@NOTIMP;    /*E@NOTIMP*/

PL6.E3A0      #001=DUL$GETMVAL File=DUL$GETMVAL.:E05TSI                          TUE 07/29/97 14:54 Page:15
   5212  0 000056   000767 235007                    LDA     503,DL
         0 000057   000000 473400 xsym               LDP3    S_D$
         0 000060   300013 755100                    STA     11,,PR3

       70     5213    3                  ALTRETURN;

   5213  0 000061   000000 702200 xent               TSX2  ! X66_AALT

       71     5214    3                END;
       72     5215    2             IF LS.WSR = 0

   5215  0 000062   000160 316007                    CANQ    112,DL
         0 000063   000074 601000 0                  TNZ     s:5221

       73     5216    3             THEN DO;                      /* Mon wsq */

       74     5217    3                  IF DESC# = 17 THEN GOTO REAL_ENTRY; /* LS17 is mapped to low real */

   5217  0 000064   200011 235100                    LDA     DESC#,,AUTO
         0 000065   000021 115007                    CMPA    17,DL
         0 000066   000177 600000 0                  TZE     REAL_ENTRY

       75     5218    3                  DA.CURPT$ = DA.MONPT$;

   5218  0 000067   000003 236100                    LDQ     3,,PR0
         0 000070   000005 756100                    STQ     5,,PR0

       76     5219    3                  DA.CURKEY = DA.MONKEY;

   5219  0 000071   000030 237100                    LDAQ    24,,PR0
         0 000072   000026 757100                    STAQ    22,,PR0

       77     5220    3                END;

   5220  0 000073   000111 710000 0                  TRA     s:5231

       78     5221    2             ELSE IF LS.WSR = 7
PL6.E3A0      #001=DUL$GETMVAL File=DUL$GETMVAL.:E05TSI                          TUE 07/29/97 14:54 Page:16

   5221  0 000074   200016 236100                    LDQ     LS,,AUTO
         0 000075   000160 376007                    ANQ     112,DL
         0 000076   000160 116007                    CMPQ    112,DL
         0 000077   000105 601000 0                  TNZ     s:5227

       79     5222    3                  THEN DO;

       80     5223    3                       DA.CURPT$ = DA.UPT$;

   5223  0 000100   000004 236100                    LDQ     4,,PR0
         0 000101   000005 756100                    STQ     5,,PR0

       81     5224    3                       DA.CURKEY = DA.UKEY;

   5224  0 000102   000032 237100                    LDAQ    26,,PR0
         0 000103   000026 757100                    STAQ    22,,PR0

       82     5225    3                     END;

   5225  0 000104   000111 710000 0                  TRA     s:5231

       83     5226    3                  ELSE DO;

       84     5227    3                       S_D.ERROR = E@NOTIMP; /*E@NOTIMP*/

   5227  0 000105   000767 235007                    LDA     503,DL
         0 000106   000000 473400 xsym               LDP3    S_D$
         0 000107   300013 755100                    STA     11,,PR3

       85     5228    3                       ALTRETURN;

   5228  0 000110   000000 702200 xent               TSX2  ! X66_AALT

       86     5229    3                     END;
       87     5230        /*N* ADD DOMAIN CODE */
       88     5231    2             IF ADDRESS*4 + 4 > LS.BOUND + 1 THEN GOTO OUTOFSEG;
PL6.E3A0      #001=DUL$GETMVAL File=DUL$GETMVAL.:E05TSI                          TUE 07/29/97 14:54 Page:17

   5231  0 000111   200004 473500                    LDP3    @ADDRESS,,AUTO
         0 000112   300000 235100                    LDA     0,,PR3
         0 000113   000002 735000                    ALS     2
         0 000114   000003 035007                    ADLA    3,DL
         0 000115   200020 755100                    STA     LS+2,,AUTO
         0 000116   200016 236100                    LDQ     LS,,AUTO
         0 000117   000020 772000                    QRL     16
         0 000120   200020 116100                    CMPQ    LS+2,,AUTO
         0 000121   000745 602000 0                  TNC     OUTOFSEG

       89     5232    2             IF MOD(LS.BASE, 4) ~= 0

   5232  0 000122   200017 236100                    LDQ     LS+1,,AUTO
         0 000123   000003 376007                    ANQ     3,DL
         0 000124   000131 600000 0                  TZE     s:5237

       90     5233    3             THEN DO;

       91     5234    3                  S_D.ERROR = E@NOTIMP;    /*E@NOTIMP*/

   5234  0 000125   000767 235007                    LDA     503,DL
         0 000126   000000 471400 xsym               LDP1    S_D$
         0 000127   100013 755100                    STA     11,,PR1

       92     5235    3                  ALTRETURN;

   5235  0 000130   000000 702200 xent               TSX2  ! X66_AALT

       93     5236    3                END;
       94     5237    2             VWSTART = (LS.BASE/4 + ADDRESS);

   5237  0 000131   200017 236100                    LDQ     LS+1,,AUTO
         0 000132   000002 772000                    QRL     2
         0 000133   300000 036100                    ADLQ    0,,PR3
         0 000134   200012 756100                    STQ     VWSTART,,AUTO

PL6.E3A0      #001=DUL$GETMVAL File=DUL$GETMVAL.:E05TSI                          TUE 07/29/97 14:54 Page:18
       95     5238         /* Get the page if not in memory already, passing a pointer to the page in PTR$ */
       96     5239    2             CALL DUL$GETVP(VWSTART/1024, PTR$) ALTRET(BAD_VP);

   5239  0 000135   000012 772000                    QRL     10
         0 000136   200020 756100                    STQ     LS+2,,AUTO
         0 000137   200013 631500                    EPPR1   PTR$,,AUTO
         0 000140   200023 451500                    STP1    LS+5,,AUTO
         0 000141   200020 634500                    EPPR4   LS+2,,AUTO
         0 000142   200022 454500                    STP4    LS+4,,AUTO
         0 000143   200022 630500                    EPPR0   LS+4,,AUTO
         0 000144   000020 631400 xsym               EPPR1   B_VECTNIL+16
         0 000145   000000 701000 xent               TSX1    DUL$GETVP
         0 000146   000740 702000 0                  TSX2    BAD_VP

       97     5240    2             VALUE = PINCRW(PTR$, MOD(VWSTART, 1024))->UBIN36;

   5240  0 000147   200012 236100                    LDQ     VWSTART,,AUTO
         0 000150   001777 376007                    ANQ     1023,DL
         0 000151   200013 470500                    LDP0    PTR$,,AUTO
         0 000152   200003 471500                    LDP1    @VALUE,,AUTO
         0 000153   000000 235106                    LDA     0,QL,PR0
         0 000154   100000 755100                    STA     0,,PR1
         0 000155   000737 710000 0                  TRA     s:5356

       98     5241    2          CASE(1);                         /* Special segment */

       99     5242    3             DO CASE (DESC#);

   5242  0 000156   200011 235100                    LDA     DESC#,,AUTO
         0 000157   000015 115007                    CMPA    13,DL
         0 000160   000162 602005 0                  TNC     s:5242+4,AL
         0 000161   000373 710000 0                  TRA     s:5282
         0 000162   000177 710000 0                  TRA     REAL_ENTRY
         0 000163   000245 710000 0                  TRA     s:5255
         0 000164   000373 710000 0                  TRA     s:5282
         0 000165   000373 710000 0                  TRA     s:5282
         0 000166   000373 710000 0                  TRA     s:5282
PL6.E3A0      #001=DUL$GETMVAL File=DUL$GETMVAL.:E05TSI                          TUE 07/29/97 14:54 Page:19
         0 000167   000373 710000 0                  TRA     s:5282
         0 000170   000275 710000 0                  TRA     s:5259
         0 000171   000310 710000 0                  TRA     s:5262
         0 000172   000315 710000 0                  TRA     s:5266
         0 000173   000340 710000 0                  TRA     s:5272
         0 000174   000373 710000 0                  TRA     s:5282
         0 000175   000345 710000 0                  TRA     s:5276
         0 000176   000360 710000 0                  TRA     s:5279

      100     5243    3               CASE(0);                    /* $REAL */

      101     5244    3   REAL_ENTRY:
      102     5245    3                  IF ADDRESS/1024 > 3 THEN GOTO OUTOFSEG;

   5245  0 000177   200004 470500       REAL_ENTRY   LDP0    @ADDRESS,,AUTO
         0 000200   000000 236100                    LDQ     0,,PR0
         0 000201   000012 772000                    QRL     10
         0 000202   000004 116007                    CMPQ    4,DL
         0 000203   000745 603000 0                  TRC     OUTOFSEG

      103     5246    3                  JUNK = DA.CURKEY;

   5246  0 000204   000000 471400 xsym               LDP1    DD_ANLZSEG$
         0 000205   100026 237100                    LDAQ    22,,PR1
         0 000206   200014 757100                    STAQ    JUNK,,AUTO

      104     5247    3                  DA.CURKEY.K.TYP = %R_LRMEM#;

   5247  0 000207   001000 236007                    LDQ     512,DL
         0 000210   100026 552110                    STBQ    22,'10'O,PR1

      105     5248    3                  DA.CURKEY.K.STYP = 0;

   5248  0 000211   000000 236003                    LDQ     0,DU
         0 000212   100026 552104                    STBQ    22,'04'O,PR1

      106     5249    3                  DA.CURKEY.K.USR# = 0;
PL6.E3A0      #001=DUL$GETMVAL File=DUL$GETMVAL.:E05TSI                          TUE 07/29/97 14:54 Page:20

   5249  0 000213   100027 552140                    STBQ    23,'40'O,PR1

      107     5250    3                  DA.CURKEY.K.NODEIDX = DA.NODEIDX;

   5250  0 000214   100024 236100                    LDQ     20,,PR1
         0 000215   000022 736000                    QLS     18
         0 000216   100026 552120                    STBQ    22,'20'O,PR1

      108     5251    3                  CALL DUL$GETVP(ADDRESS/1024, PTR$) ALTRET(REAL_ALT);

   5251  0 000217   000000 236100                    LDQ     0,,PR0
         0 000220   000012 772000                    QRL     10
         0 000221   200020 756100                    STQ     LS+2,,AUTO
         0 000222   200013 633500                    EPPR3   PTR$,,AUTO
         0 000223   200023 453500                    STP3    LS+5,,AUTO
         0 000224   200020 634500                    EPPR4   LS+2,,AUTO
         0 000225   200022 454500                    STP4    LS+4,,AUTO
         0 000226   200022 630500                    EPPR0   LS+4,,AUTO
         0 000227   000020 631400 xsym               EPPR1   B_VECTNIL+16
         0 000230   000000 701000 xent               TSX1    DUL$GETVP
         0 000231   000741 702000 0                  TSX2    REAL_ALT

      109     5252    3                  VALUE = PINCRW(PTR$, MOD(ADDRESS, 1024))->UBIN36;

   5252  0 000232   200004 470500                    LDP0    @ADDRESS,,AUTO
         0 000233   000000 236100                    LDQ     0,,PR0
         0 000234   001777 376007                    ANQ     1023,DL
         0 000235   200013 471500                    LDP1    PTR$,,AUTO
         0 000236   200003 473500                    LDP3    @VALUE,,AUTO
         0 000237   100000 235106                    LDA     0,QL,PR1
         0 000240   300000 755100                    STA     0,,PR3

      110     5253    3                  DA.CURKEY = JUNK;

   5253  0 000241   200014 237100                    LDAQ    JUNK,,AUTO
         0 000242   000000 471400 xsym               LDP1    DD_ANLZSEG$
PL6.E3A0      #001=DUL$GETMVAL File=DUL$GETMVAL.:E05TSI                          TUE 07/29/97 14:54 Page:21
         0 000243   100026 757100                    STAQ    22,,PR1
         0 000244   000737 710000 0                  TRA     s:5356

      111     5254    3               CASE(1);                    /* $VIRT */

      112     5255    3                  IF ADDRESS/1024 > 511 THEN GOTO OUTOFSEG;

   5255  0 000245   200004 474500                    LDP4    @ADDRESS,,AUTO
         0 000246   400000 236100                    LDQ     0,,PR4
         0 000247   000012 772000                    QRL     10
         0 000250   001000 116007                    CMPQ    512,DL
         0 000251   000745 603000 0                  TRC     OUTOFSEG

      113     5256    3                  CALL DUL$GETVP(ADDRESS/1024, PTR$) ALTRET(BAD_VP);

   5256  0 000252   400000 236100                    LDQ     0,,PR4
         0 000253   000012 772000                    QRL     10
         0 000254   200020 756100                    STQ     LS+2,,AUTO
         0 000255   200013 635500                    EPPR5   PTR$,,AUTO
         0 000256   200023 455500                    STP5    LS+5,,AUTO
         0 000257   200020 636500                    EPPR6   LS+2,,AUTO
         0 000260   200022 456500                    STP6    LS+4,,AUTO
         0 000261   200022 630500                    EPPR0   LS+4,,AUTO
         0 000262   000020 631400 xsym               EPPR1   B_VECTNIL+16
         0 000263   000000 701000 xent               TSX1    DUL$GETVP
         0 000264   000740 702000 0                  TSX2    BAD_VP

      114     5257    3                  VALUE = PINCRW(PTR$, MOD(ADDRESS, 1024))->UBIN36;

   5257  0 000265   200004 470500                    LDP0    @ADDRESS,,AUTO
         0 000266   000000 236100                    LDQ     0,,PR0
         0 000267   001777 376007                    ANQ     1023,DL
         0 000270   200013 471500                    LDP1    PTR$,,AUTO
         0 000271   200003 473500                    LDP3    @VALUE,,AUTO
         0 000272   100000 235106                    LDA     0,QL,PR1
         0 000273   300000 755100                    STA     0,,PR3
         0 000274   000737 710000 0                  TRA     s:5356
PL6.E3A0      #001=DUL$GETMVAL File=DUL$GETMVAL.:E05TSI                          TUE 07/29/97 14:54 Page:22

      115     5258    3               CASE(6);                    /* $SSR */

      116     5259    3                  IF ADDRESS > 63 THEN GOTO OUTOFSEG;

   5259  0 000275   200004 474500                    LDP4    @ADDRESS,,AUTO
         0 000276   400000 235100                    LDA     0,,PR4
         0 000277   000100 115007                    CMPA    64,DL
         0 000300   000745 603000 0                  TRC     OUTOFSEG

      117     5260    3                  ELSE VALUE = PINCRW(ADDR(DA.RVBUFF$->RV_BUFF.SSFRAME), ADDRESS)->
              5260                           UBIN36;

   5260  0 000301   000000 475400 xsym               LDP5    DD_ANLZSEG$
         0 000302   500011 476500                    LDP6    9,,PR5
         0 000303   400000 720100                    LXL0    0,,PR4
         0 000304   200003 477500                    LDP7    @VALUE,,AUTO
         0 000305   600040 235110                    LDA     32,X0,PR6
         0 000306   700000 755100                    STA     0,,PR7
         0 000307   000737 710000 0                  TRA     s:5356

      118     5261    3               CASE(7);                    /*  $JIT */

      119     5262    3                  SEG = 3;

   5262  0 000310   000003 235007                    LDA     3,DL
         0 000311   200010 755100                    STA     SEG,,AUTO

      120     5263    3                  DESC#=1;

   5263  0 000312   000001 236007                    LDQ     1,DL
         0 000313   200011 756100                    STQ     DESC#,,AUTO

      121     5264    3                  GOTO SEG3_ENTRY;

   5264  0 000314   000034 710000 0                  TRA     SEG3_ENTRY

PL6.E3A0      #001=DUL$GETMVAL File=DUL$GETMVAL.:E05TSI                          TUE 07/29/97 14:54 Page:23
      122     5265    3               CASE(8);                    /* $HJIT */

      123     5266    3                  IF ADDRESS > 1023 THEN GOTO OUTOFSEG;

   5266  0 000315   200004 474500                    LDP4    @ADDRESS,,AUTO
         0 000316   400000 235100                    LDA     0,,PR4
         0 000317   002000 115007                    CMPA    1024,DL
         0 000320   000745 603000 0                  TRC     OUTOFSEG

      124     5267    4                  ELSE DO;

      125     5268    4                       CALL DUL$GETVP(2, PTR$) ALTRET(BAD_VP); /* Hjit page is vp 2 */

   5268  0 000321   200013 635500                    EPPR5   PTR$,,AUTO
         0 000322   200021 455500                    STP5    LS+3,,AUTO
         0 000323   000000 236000 1                  LDQ     0
         0 000324   200020 756100                    STQ     LS+2,,AUTO
         0 000325   200020 630500                    EPPR0   LS+2,,AUTO
         0 000326   000020 631400 xsym               EPPR1   B_VECTNIL+16
         0 000327   000000 701000 xent               TSX1    DUL$GETVP
         0 000330   000740 702000 0                  TSX2    BAD_VP

      126     5269    4                       VALUE = PINCRW(PTR$, ADDRESS)->UBIN36;

   5269  0 000331   200004 470500                    LDP0    @ADDRESS,,AUTO
         0 000332   000000 720100                    LXL0    0,,PR0
         0 000333   200013 471500                    LDP1    PTR$,,AUTO
         0 000334   200003 473500                    LDP3    @VALUE,,AUTO
         0 000335   100000 235110                    LDA     0,X0,PR1
         0 000336   300000 755100                    STA     0,,PR3

      127     5270    4                     END;

   5270  0 000337   000737 710000 0                  TRA     s:5356

      128     5271    3               CASE(9);                    /* $TCB */

PL6.E3A0      #001=DUL$GETMVAL File=DUL$GETMVAL.:E05TSI                          TUE 07/29/97 14:54 Page:24
      129     5272    3                  SEG = 3;

   5272  0 000340   000003 235007                    LDA     3,DL
         0 000341   200010 755100                    STA     SEG,,AUTO

      130     5273    3                  DESC# = 15;

   5273  0 000342   000017 236007                    LDQ     15,DL
         0 000343   200011 756100                    STQ     DESC#,,AUTO

      131     5274    3                  GOTO SEG3_ENTRY;

   5274  0 000344   000034 710000 0                  TRA     SEG3_ENTRY

      132     5275    3               CASE(11);                   /* $RVB */

      133     5276    3                  IF ADDRESS > SIZEW(RV_BUFF)-1 THEN GOTO OUTOFSEG;

   5276  0 000345   200004 474500                    LDP4    @ADDRESS,,AUTO
         0 000346   400000 235100                    LDA     0,,PR4
         0 000347   002000 115007                    CMPA    1024,DL
         0 000350   000745 603000 0                  TRC     OUTOFSEG

      134     5277    3                  ELSE VALUE = PINCRW(DA.RVBUFF$, ADDRESS)->UBIN36;

   5277  0 000351   400000 720100                    LXL0    0,,PR4
         0 000352   000000 475400 xsym               LDP5    DD_ANLZSEG$
         0 000353   500011 476500                    LDP6    9,,PR5
         0 000354   200003 477500                    LDP7    @VALUE,,AUTO
         0 000355   600000 235110                    LDA     0,X0,PR6
         0 000356   700000 755100                    STA     0,,PR7
         0 000357   000737 710000 0                  TRA     s:5356

      135     5278    3               CASE(12);                   /* $USD */

      136     5279    3                  IF ADDRESS > SIZEW(RV_USRDIR)-1 THEN GOTO OUTOFSEG;

PL6.E3A0      #001=DUL$GETMVAL File=DUL$GETMVAL.:E05TSI                          TUE 07/29/97 14:54 Page:25
   5279  0 000360   200004 474500                    LDP4    @ADDRESS,,AUTO
         0 000361   400000 235100                    LDA     0,,PR4
         0 000362   002000 115007                    CMPA    1024,DL
         0 000363   000745 603000 0                  TRC     OUTOFSEG

      137     5280    3                  ELSE VALUE = PINCRW(DA.USRDIR$, ADDRESS)->UBIN36;

   5280  0 000364   400000 720100                    LXL0    0,,PR4
         0 000365   000000 475400 xsym               LDP5    DD_ANLZSEG$
         0 000366   500012 476500                    LDP6    10,,PR5
         0 000367   200003 477500                    LDP7    @VALUE,,AUTO
         0 000370   600000 235110                    LDA     0,X0,PR6
         0 000371   700000 755100                    STA     0,,PR7
         0 000372   000737 710000 0                  TRA     s:5356

      138     5281    3               CASE(ELSE);

      139     5282    3                  S_D.ERROR = E@NOTIMP;    /*E@NOTIMP*/

   5282  0 000373   000767 235007                    LDA     503,DL
         0 000374   000000 474400 xsym               LDP4    S_D$
         0 000375   400013 755100                    STA     11,,PR4

      140     5283    3                  ALTRETURN;

   5283  0 000376   000000 702200 xent               TSX2  ! X66_AALT

      141     5284    3               END;                        /* Sub case DESC# */

      142     5285    2          CASE(6);                         /* Host special symbol */

      143     5286    3             DO CASE(DESC#);

   5286  0 000377   200011 235100                    LDA     DESC#,,AUTO
         0 000400   000003 115007                    CMPA    3,DL
         0 000401   000403 602005 0                  TNC     s:5286+4,AL
         0 000402   000654 710000 0                  TRA     s:5336
PL6.E3A0      #001=DUL$GETMVAL File=DUL$GETMVAL.:E05TSI                          TUE 07/29/97 14:54 Page:26
         0 000403   000406 710000 0                  TRA     s:5288
         0 000404   000654 710000 0                  TRA     s:5336
         0 000405   000557 710000 0                  TRA     s:5317

      144     5287    3               CASE(0);

      145     5288    4                  DO CASE(ADDRESS);

   5288  0 000406   200004 474500                    LDP4    @ADDRESS,,AUTO
         0 000407   400000 235100                    LDA     0,,PR4
         0 000410   000015 115007                    CMPA    13,DL
         0 000411   000413 602005 0                  TNC     s:5288+5,AL
         0 000412   000737 710000 0                  TRA     s:5356
         0 000413   000430 710000 0                  TRA     s:5290
         0 000414   000437 710000 0                  TRA     s:5292
         0 000415   000445 710000 0                  TRA     s:5294
         0 000416   000453 710000 0                  TRA     s:5296
         0 000417   000462 710000 0                  TRA     s:5298
         0 000420   000471 710000 0                  TRA     s:5300
         0 000421   000500 710000 0                  TRA     s:5302
         0 000422   000507 710000 0                  TRA     s:5304
         0 000423   000516 710000 0                  TRA     s:5306
         0 000424   000525 710000 0                  TRA     s:5308
         0 000425   000534 710000 0                  TRA     s:5310
         0 000426   000543 710000 0                  TRA     s:5312
         0 000427   000552 710000 0                  TRA     s:5314

      146     5289    4                    CASE(0);

      147     5290    4                       VALUE = BITBIN(S_D.USS$->B$SS.E);

   5290  0 000430   000000 475400 xsym               LDP5    S_D$
         0 000431   500005 476500                    LDP6    5,,PR5
         0 000432   600056 236100                    LDQ     46,,PR6
         0 000433   000034 772000                    QRL     28
         0 000434   200003 477500                    LDP7    @VALUE,,AUTO
         0 000435   700000 756100                    STQ     0,,PR7
PL6.E3A0      #001=DUL$GETMVAL File=DUL$GETMVAL.:E05TSI                          TUE 07/29/97 14:54 Page:27
         0 000436   000737 710000 0                  TRA     s:5356

      148     5291    4                    CASE(1);

      149     5292    4                       VALUE = S_D.USS$->B$SS.A;

   5292  0 000437   000000 475400 xsym               LDP5    S_D$
         0 000440   500005 476500                    LDP6    5,,PR5
         0 000441   200003 477500                    LDP7    @VALUE,,AUTO
         0 000442   600054 235100                    LDA     44,,PR6
         0 000443   700000 755100                    STA     0,,PR7
         0 000444   000737 710000 0                  TRA     s:5356

      150     5293    4                    CASE(2);

      151     5294    4                       VALUE = S_D.USS$->B$SS.Q;

   5294  0 000445   000000 475400 xsym               LDP5    S_D$
         0 000446   500005 476500                    LDP6    5,,PR5
         0 000447   200003 477500                    LDP7    @VALUE,,AUTO
         0 000450   600055 235100                    LDA     45,,PR6
         0 000451   700000 755100                    STA     0,,PR7
         0 000452   000737 710000 0                  TRA     s:5356

      152     5295    4                    CASE(3);

      153     5296    4                       VALUE = S_D.USS$->B$SS.X0;

   5296  0 000453   000000 475400 xsym               LDP5    S_D$
         0 000454   500005 476500                    LDP6    5,,PR5
         0 000455   600050 236100                    LDQ     40,,PR6
         0 000456   000022 772000                    QRL     18
         0 000457   200003 477500                    LDP7    @VALUE,,AUTO
         0 000460   700000 756100                    STQ     0,,PR7
         0 000461   000737 710000 0                  TRA     s:5356

      154     5297    4                    CASE(4);
PL6.E3A0      #001=DUL$GETMVAL File=DUL$GETMVAL.:E05TSI                          TUE 07/29/97 14:54 Page:28

      155     5298    4                       VALUE = S_D.USS$->B$SS.X1;

   5298  0 000462   000000 475400 xsym               LDP5    S_D$
         0 000463   500005 476500                    LDP6    5,,PR5
         0 000464   600050 236100                    LDQ     40,,PR6
         0 000465   777777 376007                    ANQ     -1,DL
         0 000466   200003 477500                    LDP7    @VALUE,,AUTO
         0 000467   700000 756100                    STQ     0,,PR7
         0 000470   000737 710000 0                  TRA     s:5356

      156     5299    4                    CASE(5);

      157     5300    4                       VALUE = S_D.USS$->B$SS.X2;

   5300  0 000471   000000 475400 xsym               LDP5    S_D$
         0 000472   500005 476500                    LDP6    5,,PR5
         0 000473   600051 236100                    LDQ     41,,PR6
         0 000474   000022 772000                    QRL     18
         0 000475   200003 477500                    LDP7    @VALUE,,AUTO
         0 000476   700000 756100                    STQ     0,,PR7
         0 000477   000737 710000 0                  TRA     s:5356

      158     5301    4                    CASE(6);

      159     5302    4                       VALUE = S_D.USS$->B$SS.X3;

   5302  0 000500   000000 475400 xsym               LDP5    S_D$
         0 000501   500005 476500                    LDP6    5,,PR5
         0 000502   600051 236100                    LDQ     41,,PR6
         0 000503   777777 376007                    ANQ     -1,DL
         0 000504   200003 477500                    LDP7    @VALUE,,AUTO
         0 000505   700000 756100                    STQ     0,,PR7
         0 000506   000737 710000 0                  TRA     s:5356

      160     5303    4                    CASE(7);

PL6.E3A0      #001=DUL$GETMVAL File=DUL$GETMVAL.:E05TSI                          TUE 07/29/97 14:54 Page:29
      161     5304    4                       VALUE = S_D.USS$->B$SS.X4;

   5304  0 000507   000000 475400 xsym               LDP5    S_D$
         0 000510   500005 476500                    LDP6    5,,PR5
         0 000511   600052 236100                    LDQ     42,,PR6
         0 000512   000022 772000                    QRL     18
         0 000513   200003 477500                    LDP7    @VALUE,,AUTO
         0 000514   700000 756100                    STQ     0,,PR7
         0 000515   000737 710000 0                  TRA     s:5356

      162     5305    4                    CASE(8);

      163     5306    4                       VALUE = S_D.USS$->B$SS.X5;

   5306  0 000516   000000 475400 xsym               LDP5    S_D$
         0 000517   500005 476500                    LDP6    5,,PR5
         0 000520   600052 236100                    LDQ     42,,PR6
         0 000521   777777 376007                    ANQ     -1,DL
         0 000522   200003 477500                    LDP7    @VALUE,,AUTO
         0 000523   700000 756100                    STQ     0,,PR7
         0 000524   000737 710000 0                  TRA     s:5356

      164     5307    4                    CASE(9);

      165     5308    4                       VALUE = S_D.USS$->B$SS.X6;

   5308  0 000525   000000 475400 xsym               LDP5    S_D$
         0 000526   500005 476500                    LDP6    5,,PR5
         0 000527   600053 236100                    LDQ     43,,PR6
         0 000530   000022 772000                    QRL     18
         0 000531   200003 477500                    LDP7    @VALUE,,AUTO
         0 000532   700000 756100                    STQ     0,,PR7
         0 000533   000737 710000 0                  TRA     s:5356

      166     5309    4                    CASE(10);

      167     5310    4                       VALUE = S_D.USS$->B$SS.X7;
PL6.E3A0      #001=DUL$GETMVAL File=DUL$GETMVAL.:E05TSI                          TUE 07/29/97 14:54 Page:30

   5310  0 000534   000000 475400 xsym               LDP5    S_D$
         0 000535   500005 476500                    LDP6    5,,PR5
         0 000536   600053 236100                    LDQ     43,,PR6
         0 000537   777777 376007                    ANQ     -1,DL
         0 000540   200003 477500                    LDP7    @VALUE,,AUTO
         0 000541   700000 756100                    STQ     0,,PR7
         0 000542   000737 710000 0                  TRA     s:5356

      168     5311    4                    CASE(11);

      169     5312    4                       VALUE = BITBIN(S_D.USS$->B$SS.IR);

   5312  0 000543   000000 475400 xsym               LDP5    S_D$
         0 000544   500005 476500                    LDP6    5,,PR5
         0 000545   600004 236100                    LDQ     4,,PR6
         0 000546   777777 376007                    ANQ     -1,DL
         0 000547   200003 477500                    LDP7    @VALUE,,AUTO
         0 000550   700000 756100                    STQ     0,,PR7
         0 000551   000737 710000 0                  TRA     s:5356

      170     5313    4                    CASE(12);

      171     5314    4                       VALUE = S_D.SAVEIC;

   5314  0 000552   000000 475400 xsym               LDP5    S_D$
         0 000553   200003 476500                    LDP6    @VALUE,,AUTO
         0 000554   500002 235100                    LDA     2,,PR5
         0 000555   600000 755100                    STA     0,,PR6

      172     5315    4                    END;                   /* Do case (address) */

   5315  0 000556   000737 710000 0                  TRA     s:5356

      173     5316    3               CASE (2);

      174     5317    4                  DO CASE(ADDRESS);
PL6.E3A0      #001=DUL$GETMVAL File=DUL$GETMVAL.:E05TSI                          TUE 07/29/97 14:54 Page:31

   5317  0 000557   200004 474500                    LDP4    @ADDRESS,,AUTO
         0 000560   400000 235100                    LDA     0,,PR4
         0 000561   000010 115007                    CMPA    8,DL
         0 000562   000564 602005 0                  TNC     s:5317+5,AL
         0 000563   000737 710000 0                  TRA     s:5356
         0 000564   000574 710000 0                  TRA     s:5319
         0 000565   000602 710000 0                  TRA     s:5321
         0 000566   000610 710000 0                  TRA     s:5323
         0 000567   000616 710000 0                  TRA     s:5325
         0 000570   000624 710000 0                  TRA     s:5327
         0 000571   000632 710000 0                  TRA     s:5329
         0 000572   000640 710000 0                  TRA     s:5331
         0 000573   000646 710000 0                  TRA     s:5333

      175     5318    4                    CASE(0);

      176     5319    4                       BVALUE = S_D.USS$ -> B$SS.PR0;

   5319  0 000574   000000 475400 xsym               LDP5    S_D$
         0 000575   500005 476500                    LDP6    5,,PR5
         0 000576   600020 236100                    LDQ     16,,PR6
         0 000577   200003 477500                    LDP7    @VALUE,,AUTO
         0 000600   700000 756100                    STQ     0,,PR7
         0 000601   000737 710000 0                  TRA     s:5356

      177     5320    4                    CASE(1);

      178     5321    4                       BVALUE = S_D.USS$ -> B$SS.PR1;

   5321  0 000602   000000 475400 xsym               LDP5    S_D$
         0 000603   500005 476500                    LDP6    5,,PR5
         0 000604   600021 236100                    LDQ     17,,PR6
         0 000605   200003 477500                    LDP7    @VALUE,,AUTO
         0 000606   700000 756100                    STQ     0,,PR7
         0 000607   000737 710000 0                  TRA     s:5356

PL6.E3A0      #001=DUL$GETMVAL File=DUL$GETMVAL.:E05TSI                          TUE 07/29/97 14:54 Page:32
      179     5322    4                    CASE(2);

      180     5323    4                       BVALUE = S_D.USS$ -> B$SS.PR2;

   5323  0 000610   000000 475400 xsym               LDP5    S_D$
         0 000611   500005 476500                    LDP6    5,,PR5
         0 000612   600022 236100                    LDQ     18,,PR6
         0 000613   200003 477500                    LDP7    @VALUE,,AUTO
         0 000614   700000 756100                    STQ     0,,PR7
         0 000615   000737 710000 0                  TRA     s:5356

      181     5324    4                    CASE(3);

      182     5325    4                       BVALUE = S_D.USS$ -> B$SS.PR3;

   5325  0 000616   000000 475400 xsym               LDP5    S_D$
         0 000617   500005 476500                    LDP6    5,,PR5
         0 000620   600023 236100                    LDQ     19,,PR6
         0 000621   200003 477500                    LDP7    @VALUE,,AUTO
         0 000622   700000 756100                    STQ     0,,PR7
         0 000623   000737 710000 0                  TRA     s:5356

      183     5326    4                    CASE(4);

      184     5327    4                       BVALUE = S_D.USS$ -> B$SS.PR4;

   5327  0 000624   000000 475400 xsym               LDP5    S_D$
         0 000625   500005 476500                    LDP6    5,,PR5
         0 000626   600024 236100                    LDQ     20,,PR6
         0 000627   200003 477500                    LDP7    @VALUE,,AUTO
         0 000630   700000 756100                    STQ     0,,PR7
         0 000631   000737 710000 0                  TRA     s:5356

      185     5328    4                    CASE(5);

      186     5329    4                       BVALUE = S_D.USS$ -> B$SS.PR5;

PL6.E3A0      #001=DUL$GETMVAL File=DUL$GETMVAL.:E05TSI                          TUE 07/29/97 14:54 Page:33
   5329  0 000632   000000 475400 xsym               LDP5    S_D$
         0 000633   500005 476500                    LDP6    5,,PR5
         0 000634   600025 236100                    LDQ     21,,PR6
         0 000635   200003 477500                    LDP7    @VALUE,,AUTO
         0 000636   700000 756100                    STQ     0,,PR7
         0 000637   000737 710000 0                  TRA     s:5356

      187     5330    4                    CASE(6);

      188     5331    4                       BVALUE = S_D.USS$ -> B$SS.PR6;

   5331  0 000640   000000 475400 xsym               LDP5    S_D$
         0 000641   500005 476500                    LDP6    5,,PR5
         0 000642   600026 236100                    LDQ     22,,PR6
         0 000643   200003 477500                    LDP7    @VALUE,,AUTO
         0 000644   700000 756100                    STQ     0,,PR7
         0 000645   000737 710000 0                  TRA     s:5356

      189     5332    4                    CASE(7);

      190     5333    4                       BVALUE = S_D.USS$ -> B$SS.PR7;

   5333  0 000646   000000 475400 xsym               LDP5    S_D$
         0 000647   500005 476500                    LDP6    5,,PR5
         0 000650   600027 236100                    LDQ     23,,PR6
         0 000651   200003 477500                    LDP7    @VALUE,,AUTO
         0 000652   700000 756100                    STQ     0,,PR7

      191     5334    4                    END;

   5334  0 000653   000737 710000 0                  TRA     s:5356

      192     5335    3               CASE (ELSE);

      193     5336    3                  S_D.ERROR = E@NOTIMP;    /*E@NOTIMP*/

   5336  0 000654   000767 235007                    LDA     503,DL
PL6.E3A0      #001=DUL$GETMVAL File=DUL$GETMVAL.:E05TSI                          TUE 07/29/97 14:54 Page:34
         0 000655   000000 474400 xsym               LDP4    S_D$
         0 000656   400013 755100                    STA     11,,PR4

      194     5337    3                  ALTRETURN;

   5337  0 000657   000000 702200 xent               TSX2  ! X66_AALT

      195     5338    3               END;                        /*Do case (DESC#) */

      196     5339    2          CASE(8);                         /* Sam's comgroup wsqs */

      197     5340    2             IF ADDRESS/1024 > 255 THEN GOTO OUTOFSEG;

   5340  0 000660   200004 474500                    LDP4    @ADDRESS,,AUTO
         0 000661   400000 236100                    LDQ     0,,PR4
         0 000662   000012 772000                    QRL     10
         0 000663   000400 116007                    CMPQ    256,DL
         0 000664   000745 603000 0                  TRC     OUTOFSEG

      198     5341    2             JUNK = DA.CURKEY;

   5341  0 000665   000000 475400 xsym               LDP5    DD_ANLZSEG$
         0 000666   500026 237100                    LDAQ    22,,PR5
         0 000667   200014 757100                    STAQ    JUNK,,AUTO

      199     5342    2             DA.CURKEY.K.TYP = %R_CWSQPGS#;

   5342  0 000670   003000 236007                    LDQ     1536,DL
         0 000671   500026 552110                    STBQ    22,'10'O,PR5

      200     5343    2             DA.CURKEY.K.STYP = DESC#;

   5343  0 000672   200011 236100                    LDQ     DESC#,,AUTO
         0 000673   500026 552104                    STBQ    22,'04'O,PR5

      201     5344    2             DA.CURKEY.K.USR# = 1;

PL6.E3A0      #001=DUL$GETMVAL File=DUL$GETMVAL.:E05TSI                          TUE 07/29/97 14:54 Page:35
   5344  0 000674   001000 236003                    LDQ     512,DU
         0 000675   500027 552140                    STBQ    23,'40'O,PR5

      202     5345    2             DA.CURKEY.K.NODEIDX = DA.NODEIDX;

   5345  0 000676   500024 236100                    LDQ     20,,PR5
         0 000677   000022 736000                    QLS     18
         0 000700   500026 552120                    STBQ    22,'20'O,PR5

      203     5346    2             CALL DUL$GETVP(ADDRESS/1024, PTR$) ALTRET(REAL_ALT);

   5346  0 000701   400000 236100                    LDQ     0,,PR4
         0 000702   000012 772000                    QRL     10
         0 000703   200020 756100                    STQ     LS+2,,AUTO
         0 000704   200013 636500                    EPPR6   PTR$,,AUTO
         0 000705   200023 456500                    STP6    LS+5,,AUTO
         0 000706   200020 637500                    EPPR7   LS+2,,AUTO
         0 000707   200022 457500                    STP7    LS+4,,AUTO
         0 000710   200022 630500                    EPPR0   LS+4,,AUTO
         0 000711   000020 631400 xsym               EPPR1   B_VECTNIL+16
         0 000712   000000 701000 xent               TSX1    DUL$GETVP
         0 000713   000741 702000 0                  TSX2    REAL_ALT

      204     5347    2             VALUE = PINCRW(PTR$, MOD(ADDRESS, 1024))->UBIN36;

   5347  0 000714   200004 470500                    LDP0    @ADDRESS,,AUTO
         0 000715   000000 236100                    LDQ     0,,PR0
         0 000716   001777 376007                    ANQ     1023,DL
         0 000717   200013 471500                    LDP1    PTR$,,AUTO
         0 000720   200003 473500                    LDP3    @VALUE,,AUTO
         0 000721   100000 235106                    LDA     0,QL,PR1
         0 000722   300000 755100                    STA     0,,PR3

      205     5348    2             DA.CURKEY = JUNK;

   5348  0 000723   200014 237100                    LDAQ    JUNK,,AUTO
         0 000724   000000 471400 xsym               LDP1    DD_ANLZSEG$
PL6.E3A0      #001=DUL$GETMVAL File=DUL$GETMVAL.:E05TSI                          TUE 07/29/97 14:54 Page:36
         0 000725   100026 757100                    STAQ    22,,PR1
         0 000726   000737 710000 0                  TRA     s:5356

      206     5349    2          CASE(9);                         /* L6 special symbol */

      207     5350    2             S_D.ERROR = E@FEPSYM_NOTANLZ; /* E@FEPSYM_NOTANLZ */

   5350  0 000727   000462 235007                    LDA     306,DL
         0 000730   000000 474400 xsym               LDP4    S_D$
         0 000731   400013 755100                    STA     11,,PR4

      208     5351    2             ALTRETURN;

   5351  0 000732   000000 702200 xent               TSX2  ! X66_AALT

      209     5352    2          CASE (ELSE);

      210     5353    2             S_D.ERROR = E@NOTIMP;         /*E@NOTIMP*/

   5353  0 000733   000767 235007                    LDA     503,DL
         0 000734   000000 474400 xsym               LDP4    S_D$
         0 000735   400013 755100                    STA     11,,PR4

      211     5354    2             ALTRETURN;

   5354  0 000736   000000 702200 xent               TSX2  ! X66_AALT

      212     5355    2          END;                             /* Do case (seg) */

      213     5356    1        RETURN;

   5356  0 000737   000000 702200 xent               TSX2  ! X66_ARET

      214     5357    1   BAD_VP: ALTRETURN;                 /* There's something wrong, pass it on */

   5357  0 000740   000000 702200 xent  BAD_VP       TSX2  ! X66_AALT

PL6.E3A0      #001=DUL$GETMVAL File=DUL$GETMVAL.:E05TSI                          TUE 07/29/97 14:54 Page:37
      215     5358    1   REAL_ALT:
      216     5359    1        DA.CURKEY = JUNK;             /* Restore curkey when $REAL get altrets */

   5359  0 000741   200014 237100       REAL_ALT     LDAQ    JUNK,,AUTO
         0 000742   000000 470400 xsym               LDP0    DD_ANLZSEG$
         0 000743   000026 757100                    STAQ    22,,PR0

      217     5360    1        ALTRETURN;

   5360  0 000744   000000 702200 xent               TSX2  ! X66_AALT

      218     5361    1   OUTOFSEG:
      219     5362    1        S_D.ERROR = E@OUTOFSEG;            /*E@OUTOFSEG*/

   5362  0 000745   000104 235007       OUTOFSEG     LDA     68,DL
         0 000746   000000 470400 xsym               LDP0    S_D$
         0 000747   000013 755100                    STA     11,,PR0

      220     5363    1        ALTRETURN;

   5363  0 000750   000000 702200 xent               TSX2  ! X66_AALT

(unnamed)
 Sect OctLoc
   1     000   000004 006000                                                    ....
      221     5364    1   END DUL$GETMVAL;

PL6.E3A0      #001=DUL$GETMVAL File=DUL$GETMVAL.:E05TSI                          TUE 07/29/97 14:54 Page:38
--  Include file information  --

   B$SS.:E05TOU  cannot be made into a system file and is referenced.
   DD$DA.:E05TOU  cannot be made into a system file and is referenced.
   NI$TABLES.:E05TOU  is referenced.
   IR_DATA_M.:E05TOU  is referenced.
   DD$BASED.:E05TOU  is referenced.
   DD_SD_M.:E05TOU  is referenced.
   XUH_MACRO_C.:E05TOU  is referenced.
   DD_ERR_C.:E05TOU  is referenced.
   B$JIT_C.:E05TOU  was found in the system file and is never referenced.
   CP_6_C.:E05TOU  was found in the system file and is never referenced.
      No diagnostics issued in procedure DUL$GETMVAL.

   Procedure DUL$GETMVAL requires 489 words for executable code.
   Procedure DUL$GETMVAL requires 20 words of local(AUTO) storage.

    No errors detected in file DUL$GETMVAL.:E05TSI    .
PL6.E3A0      #001=DUL$GETMVAL File=DUL$GETMVAL.:E05TSI                          TUE 07/29/97 14:54 Page:39
          *** CROSS REFERENCE LISTING ***
**     DENOTES     IDENTIFIER DEFINITION
<<                 IDENTIFIER'S VALUE SET
>>                 IDENTIFIER'S VALUE USED
<>                 IDENTIFIER SET AND/OR USED
--                 IDENTIFIER REFERENCED
PL6.E3A0      #001=DUL$GETMVAL File=DUL$GETMVAL.:E05TSI                          TUE 07/29/97 14:54 Page:40
          MINI XREF LISTING

ADDRESS
        24**DCL        18--PROC     5231>>IF       5237>>ASSIGN   5245>>IF       5251>>CALL     5252>>ASSIGN
      5255>>IF       5256>>CALL     5257>>ASSIGN   5259>>IF       5260>>ASSIGN   5266>>IF       5269>>ASSIGN
      5276>>IF       5277>>ASSIGN   5279>>IF       5280>>ASSIGN   5288>>DOCASE   5317>>DOCASE   5340>>IF
      5346>>CALL     5347>>ASSIGN
B$SS.A
      5168**DCL      5292>>ASSIGN
B$SS.E
      5170**DCL      5290>>ASSIGN
B$SS.IR
      5030**DCL      5312>>ASSIGN
B$SS.PR0
      5088**DCL      5319>>ASSIGN
B$SS.PR1
      5091**DCL      5321>>ASSIGN
B$SS.PR2
      5094**DCL      5323>>ASSIGN
B$SS.PR3
      5097**DCL      5325>>ASSIGN
B$SS.PR4
      5100**DCL      5327>>ASSIGN
B$SS.PR5
      5103**DCL      5329>>ASSIGN
B$SS.PR6
      5106**DCL      5331>>ASSIGN
B$SS.PR7
      5109**DCL      5333>>ASSIGN
B$SS.Q
      5169**DCL      5294>>ASSIGN
B$SS.RVA
      5062**DCL      5063--REDEF
B$SS.X0
PL6.E3A0      #001=DUL$GETMVAL File=DUL$GETMVAL.:E05TSI                          TUE 07/29/97 14:54 Page:41
      5160**DCL      5296>>ASSIGN
B$SS.X1
      5161**DCL      5298>>ASSIGN
B$SS.X2
      5162**DCL      5300>>ASSIGN
B$SS.X3
      5163**DCL      5302>>ASSIGN
B$SS.X4
      5164**DCL      5304>>ASSIGN
B$SS.X5
      5165**DCL      5306>>ASSIGN
B$SS.X6
      5166**DCL      5308>>ASSIGN
B$SS.X7
      5167**DCL      5310>>ASSIGN
BAD_VP
      5357**LABEL    5239--CALLALT  5256--CALLALT  5268--CALLALT
BIT72
        32**DCL      5207>>ASSIGN
BVALUE
        27**DCL      5319<<ASSIGN   5321<<ASSIGN   5323<<ASSIGN   5325<<ASSIGN   5327<<ASSIGN   5329<<ASSIGN
      5331<<ASSIGN   5333<<ASSIGN
DA.CURKEY
      4899**DCL      5219<<ASSIGN   5224<<ASSIGN   5246>>ASSIGN   5253<<ASSIGN   5341>>ASSIGN   5348<<ASSIGN
      5359<<ASSIGN
DA.CURKEY.K.NODEIDX
      4901**DCL      5250<<ASSIGN   5345<<ASSIGN
DA.CURKEY.K.STYP
      4901**DCL      5248<<ASSIGN   5343<<ASSIGN
DA.CURKEY.K.TYP
      4901**DCL      5247<<ASSIGN   5342<<ASSIGN
DA.CURKEY.K.USR#
      4901**DCL      5249<<ASSIGN   5344<<ASSIGN
DA.CURLS$
      4873**DCL      5202>>IF       5207>>ASSIGN
DA.CURPT$
PL6.E3A0      #001=DUL$GETMVAL File=DUL$GETMVAL.:E05TSI                          TUE 07/29/97 14:54 Page:42
      4876**DCL      5218<<ASSIGN   5223<<ASSIGN
DA.MONKEY
      4917**DCL      5219>>ASSIGN
DA.MONPT$
      4874**DCL      5218>>ASSIGN
DA.NODEIDX
      4885**DCL      5250>>ASSIGN   5345>>ASSIGN
DA.RVBUFF$
      4878**DCL      5260>>ASSIGN   5277>>ASSIGN
DA.UKEY
      4935**DCL      5224>>ASSIGN
DA.UPT$
      4875**DCL      5223>>ASSIGN
DA.USRDIR$
      4879**DCL      5280>>ASSIGN
DD_ANLZSEG$
      4869**DCL      4870--IMP-PTR  5202>>IF       5207>>ASSIGN   5218>>ASSIGN   5218>>ASSIGN   5219>>ASSIGN
      5219>>ASSIGN   5223>>ASSIGN   5223>>ASSIGN   5224>>ASSIGN   5224>>ASSIGN   5246>>ASSIGN   5247>>ASSIGN
      5248>>ASSIGN   5249>>ASSIGN   5250>>ASSIGN   5250>>ASSIGN   5253>>ASSIGN   5260>>ASSIGN   5277>>ASSIGN
      5280>>ASSIGN   5341>>ASSIGN   5342>>ASSIGN   5343>>ASSIGN   5344>>ASSIGN   5345>>ASSIGN   5345>>ASSIGN
      5348>>ASSIGN   5359>>ASSIGN
DESC#
        23**DCL      5193<<ASSIGN   5197<<ASSIGN   5207>>ASSIGN   5217>>IF       5242>>DOCASE   5263<<ASSIGN
      5273<<ASSIGN   5286>>DOCASE   5343>>ASSIGN
DUL$GETVP
      5190**DCL-ENT  5239--CALL     5251--CALL     5256--CALL     5268--CALL     5346--CALL
IDESC#
        21**DCL        18--PROC     5193>>ASSIGN
ISEG
        20**DCL        18--PROC     5192>>ASSIGN
JUNK
        30**DCL      5246<<ASSIGN   5253>>ASSIGN   5341<<ASSIGN   5348>>ASSIGN   5359>>ASSIGN
LS
      4472**DCL      5207<<ASSIGN
LS.BASE
      4480**DCL      5232>>IF       5237>>ASSIGN
PL6.E3A0      #001=DUL$GETMVAL File=DUL$GETMVAL.:E05TSI                          TUE 07/29/97 14:54 Page:43
LS.BOUND
      4473**DCL      5231>>IF
LS.FLG.EMPTY
      4476**DCL      5208>>IF
LS.TYP
      4479**DCL      5210>>IF
LS.WSR
      4478**DCL      5215>>IF       5221>>IF
NOT_IS
        25**DCL        18--PROC     5194>>IF
OUTOFSEG
      5362**LABEL    5209--GOTO     5231--GOTO     5245--GOTO     5255--GOTO     5259--GOTO     5266--GOTO
      5276--GOTO     5279--GOTO     5340--GOTO
PTR$
        29**DCL      5239<>CALL     5240>>ASSIGN   5251<>CALL     5252>>ASSIGN   5256<>CALL     5257>>ASSIGN
      5268<>CALL     5269>>ASSIGN   5346<>CALL     5347>>ASSIGN
REAL_ALT
      5359**LABEL    5251--CALLALT  5346--CALLALT
REAL_ENTRY
      5245**LABEL    5217--GOTO
RV_BUFF
      4971**DCL      5276--IF
RV_BUFF.SSFRAME
      4981**DCL      5260--ASSIGN
RV_USRDIR
      5007**DCL      5279--IF
SEG
        22**DCL      5192<<ASSIGN   5196<<ASSIGN   5199>>DOCASE   5262<<ASSIGN   5272<<ASSIGN
SEG3_ENTRY
      5202**LABEL    5264--GOTO     5274--GOTO
S_D.CURRENT_CHANNEL
      2802**DCL      2804--REDEF
S_D.DEBUGA
      1954**DCL      1956--REDEF
S_D.EIS
      2912**DCL      2941--REDEF
PL6.E3A0      #001=DUL$GETMVAL File=DUL$GETMVAL.:E05TSI                          TUE 07/29/97 14:54 Page:44
S_D.ERROR
      1883**DCL      5204<<ASSIGN   5212<<ASSIGN   5227<<ASSIGN   5234<<ASSIGN   5282<<ASSIGN   5336<<ASSIGN
      5350<<ASSIGN   5353<<ASSIGN   5362<<ASSIGN
S_D.HOST_MESSAGE_BUF_REMOTE
      2845**DCL      2846--REDEF    2860--REDEF
S_D.JDE
      2459**DCL      2460--REDEF
S_D.L$.VALUE
      2012**DCL      2018--REDEF    2026--REDEF    2029--REDEF    2032--REDEF    2035--REDEF
S_D.L$.VALUE.L
      2013**DCL      2014--REDEF    2015--REDEF
S_D.L6_MESSAGE_BUF
      2866**DCL      2868--REDEF
S_D.OUTPUT
      2832**DCL      2834--REDEF
S_D.REMOTE_MSG.FNCC
      2851**DCL      2852--REDEF
S_D.REMOTE_MSG.STXC
      2847**DCL      2848--REDEF
S_D.REMOTE_MSG.SUBFNCC
      2855**DCL      2856--REDEF
S_D.SAVEIC
      1865**DCL      5314>>ASSIGN
S_D.SV
      1911**DCL      1932--REDEF
S_D.USS$
      1871**DCL      5290>>ASSIGN   5292>>ASSIGN   5294>>ASSIGN   5296>>ASSIGN   5298>>ASSIGN   5300>>ASSIGN
      5302>>ASSIGN   5304>>ASSIGN   5306>>ASSIGN   5308>>ASSIGN   5310>>ASSIGN   5312>>ASSIGN   5319>>ASSIGN
      5321>>ASSIGN   5323>>ASSIGN   5325>>ASSIGN   5327>>ASSIGN   5329>>ASSIGN   5331>>ASSIGN   5333>>ASSIGN
S_D$
      3163**DCL      1859--IMP-PTR  5204>>ASSIGN   5212>>ASSIGN   5227>>ASSIGN   5234>>ASSIGN   5282>>ASSIGN
      5290>>ASSIGN   5292>>ASSIGN   5294>>ASSIGN   5296>>ASSIGN   5298>>ASSIGN   5300>>ASSIGN   5302>>ASSIGN
      5304>>ASSIGN   5306>>ASSIGN   5308>>ASSIGN   5310>>ASSIGN   5312>>ASSIGN   5314>>ASSIGN   5319>>ASSIGN
      5321>>ASSIGN   5323>>ASSIGN   5325>>ASSIGN   5327>>ASSIGN   5329>>ASSIGN   5331>>ASSIGN   5333>>ASSIGN
      5336>>ASSIGN   5350>>ASSIGN   5353>>ASSIGN   5362>>ASSIGN
UBIN36
PL6.E3A0      #001=DUL$GETMVAL File=DUL$GETMVAL.:E05TSI                          TUE 07/29/97 14:54 Page:45
        31**DCL      5240>>ASSIGN   5252>>ASSIGN   5257>>ASSIGN   5260>>ASSIGN   5269>>ASSIGN   5277>>ASSIGN
      5280>>ASSIGN   5347>>ASSIGN
VALUE
        26**DCL        18--PROC       27--REDEF    5240<<ASSIGN   5252<<ASSIGN   5257<<ASSIGN   5260<<ASSIGN
      5269<<ASSIGN   5277<<ASSIGN   5280<<ASSIGN   5290<<ASSIGN   5292<<ASSIGN   5294<<ASSIGN   5296<<ASSIGN
      5298<<ASSIGN   5300<<ASSIGN   5302<<ASSIGN   5304<<ASSIGN   5306<<ASSIGN   5308<<ASSIGN   5310<<ASSIGN
      5312<<ASSIGN   5314<<ASSIGN   5347<<ASSIGN
VWSTART
        28**DCL      5237<<ASSIGN   5239>>CALL     5240>>ASSIGN
PL6.E3A0      #001=DUL$GETMVAL File=DUL$GETMVAL.:E05TSI                          TUE 07/29/97 14:54 Page:46
              *** CROSS REFERENCE LISTING ***
    **     DENOTES     IDENTIFIER DEFINITION
    <<                 IDENTIFIER'S VALUE SET
    >>                 IDENTIFIER'S VALUE USED
    <>                 IDENTIFIER SET AND/OR USED
    --                 IDENTIFIER REFERENCED
PL6.E3A0      #001=DUL$GETMVAL File=DUL$GETMVAL.:E05TSI                          TUE 07/29/97 14:54 Page:47
              MINI UREF LISTING

DUL$GETMVAL      18**PROC
