VERSION E05

PL6.E3A0      #001=DUL$INIT File=DUL$INIT.:E05TSI                                TUE 07/29/97 14:55 Page:1
        1        1        /*M* DUL$INIT - SET UP DA FOR ANLZ */
        2        2        /*T***********************************************************/
        3        3        /*T*                                                         */
        4        4        /*T* Copyright (c) Bull HN Information Systems Inc., 1997    */
        5        5        /*T*                                                         */
        6        6        /*T***********************************************************/
        7        7        /*D* NAME: DUL$INIT
        8        8             PURPOSE: TO INIT THE DA SEGMENT FOR ANLZ/DELTA
        9        9             DESCRIPTION: ALLOCATES MEMORY FOR THE LINKAGE SEGMENTS
       10       10                  AND PAGE TABLES.  ALLOCATES MEMORY FOR VIRTUAL PAGES.
       11       11                  CALL DUL$USE TO SET UP THE MON WSQ FOR THE CURRENT CPU,
       12       12                  AND THE CURRENT USER FOR THAT MONITOR.  ALLOCATES
       13       13                  MEMORY FOR THE RECOVERY BUFFER AND USRDIR AND READS THOSE
       14       14                  RECORDS FROM THE DUMP FILE */
       15       15        DUL$INIT: PROC ALTRET;
       16       16        %INCLUDE DD_ERR_C;
       17      413        %INCLUDE IR_DATA_M;
       18      577        %INCLUDE NI$TABLES;
       19      793        %INCLUDE DD$DA;
       20      874        %RV_DFSUBS;
       21      901        %RV_BUFF (NAME=RV_BUFF, STCLASS=BASED);
       22      937        %RV_USRDIR (NAME=RV_USRDIR, STCLASS=BASED);
       23      941        %RV_NODEDIR (FPTN=RV_NODEDIR, STCLASS=BASED);
       24      958    1   DCL DUE$ERRMSG ENTRY;
       25      959        %INCLUDE DD_SUBS_C;
       26     1230        %INCLUDE XUH_MACRO_C;
       27     1314        %INCLUDE DD_SD_M;
       28     2650        %S_D;
       29     3968        %INCLUDE B$SS;
       30     4147        %INCLUDE CP_6;
       31     4228        %INCLUDE CP_6_SUBS;
       32     4768        %F$DCB;
       33     4825        %FPT_CLOSE (FPTN=FPT$CLOSE, STCLASS=AUTO);
       34     4867        %FPT_RELDCB (FPTN=FPT$RELDCB, STCLASS=AUTO);
       35     4881        %FPT_RELDCB (FPTN=FPT_RELDCB, STCLASS=SYMREF);
       36     4895        %FPT_CLOSE (FPTN=FPT_CLOSE,
       37     4896                  STCLASS=SYMREF);
PL6.E3A0      #001=DUL$INIT File=DUL$INIT.:E05TSI                                TUE 07/29/97 14:55 Page:2
       38     4938    1   DCL DUL$USE ENTRY(4) ALTRET;
       39     4939    1   DCL DDM$GETMEM ENTRY(3) ALTRET;
       40     4940    1   DCL DDE$ERROR ENTRY;
       41     4941    1   DCL DUL$READ ENTRY(2) ALTRET;
       42     4942    1   DCL LAST UBIN;
       43     4943    1   DCL I UBIN;
       44     4944                                                /**/
       45     4945                                                /* ALLOCATE MEMORY                    */
       46     4946                                                /**/
       47     4947    1        IF DCBADDR(S_D.ANLZDCB) -> F$DCB.ORG# ~= %KEYED#
       48     4948    1          THEN GOTO BAD_FID_ORG;
       49     4949    1        CALL DDM$GETMEM(DD_ANLZSEG$, SIZEW(DA) + 4*1024 + 2*1024 + SIZEW(RV_BUFF) +
              4949                 SIZEW(RV_USRDIR) + SIZEW(RV_NODEDIR)) ALTRET(NO_MEM);
       50     4950                  /* DA + 2 PAGES FOR LS+PT + 2 PAGE SLOTS + BUFF AND USRDIR + NODEDIR    */
       51     4951    1        DA = '0'B;
       52     4952                                                /**/
       53     4953    1        DA.MONLS$ = PINCRW(DD_ANLZSEG$, SIZEW(DA)); /* INIT POINTERS             */
       54     4954    1        DA.ULS$ = PINCRW(DA.MONLS$, 1024);
       55     4955    1        DA.CURLS$ = ADDR(NIL);
       56     4956    1        DA.MONPT$ = PINCRW(DA.ULS$, 1024);
       57     4957    1        DA.UPT$ = PINCRW(DA.MONPT$, 1024);
       58     4958    1        DA.CURPT$ = ADDR(NIL);
       59     4959    1        DA.VP$(0) = PINCRW(DA.UPT$, 1024);
       60     4960    1        DA.VP$(1) = PINCRW(DA.VP$(0), 1024);
       61     4961    1        DA.RVBUFF$ = PINCRW(DA.VP$(1), 1024);
       62     4962    1        DA.USRDIR$ = PINCRW(DA.RVBUFF$, SIZEW(RV_BUFF));
       63     4963    1        DA.NODEDIR$ = PINCRW(DA.USRDIR$, SIZEW(RV_USRDIR));
       64     4964    1        DA.ANLZSEGEND$ = PINCRW(DA.NODEDIR$, SIZEW(RV_NODEDIR));
       65     4965                                                /* READ IN INFO RECORDS               */
       66     4966    1        DA.CURKEY.L = 7;
       67     4967    1        DA.CURKEY.K.TYP = %R_DINFO#;
       68     4968    1        DA.CURKEY.K.STYP = %R_BUFF#;
       69     4969    1        DA.CURKEY.K.NODEIDX = 0;
       70     4970    1        CALL DUL$READ(DA.NODEDIR$, SIZEC(RV_NODEDIR)) ALTRET(NO_NODEDIR);
       71     4971    1        LAST = DA.NODEDIR$ -> RV_NODEDIR.N;
       72     4972    2        DO I = 0 TO LAST;
       73     4973    2             IF DA.NODEDIR$ -> RV_NODEDIR.NODE.TYPE(I) = %R_HOSTNODE#
PL6.E3A0      #001=DUL$INIT File=DUL$INIT.:E05TSI                                TUE 07/29/97 14:55 Page:3
       74     4974    2             THEN EXIT;
       75     4975    2           END;
       76     4976    1        DA.CURKEY.K.NODEIDX = I;
       77     4977    1        DA.NODEIDX = I;
       78     4978    1        CALL DUL$READ(DA.RVBUFF$, SIZEC(RV_BUFF)) ALTRET(NO_BUFF);
       79     4979    1        DA.CURKEY.K.STYP = %R_USRD#;
       80     4980    1        CALL DUL$READ(DA.USRDIR$, SIZEC(RV_USRDIR)) ALTRET(NO_DIR);
       81     4981                                                /* GET USER AND CPU                   */
       82     4982    1        DA.CURCPU = DA.RVBUFF$->RV_BUFF.S_PNO;
       83     4983    1        DA.CURUSR = DA.RVBUFF$->RV_BUFF.CUN;
       84     4984                                                /* SETUP INITIAL USE ENVIRONMENT      */
       85     4985    1        CALL DUL$USE(USE_MON, DA.CURUSR, DA.CURCPU, 0) ALTRET(ARET); /* USE MON  */
       86     4986    1        S_D.PADDR_SAVE = S_D.PADDR;
       87     4987    1        S_D.SAVEIC = DA.RVBUFF$->RV_BUFF.SSFRAME.IC;
       88     4988    1        RETURN;
       89     4989                                                /* BAD NEWS ROUTINES                  */
       90     4990    1   BAD_FID_ORG:
       91     4991    1        S_D.ERROR = E@ANLZ_NOPAGE;         /*E@ANLZ_NOPAGE*/
       92     4992    1        GOTO KILL_AND_ARET;
       93     4993    1   NO_BUFF:
       94     4994    1        S_D.ERROR = E@ANLZ_NOBUFF;         /*E@ANLZ_NOBUFF*/
       95     4995    1        GOTO ARET;
       96     4996    1   NO_DIR:
       97     4997    1        S_D.ERROR = E@ANLZ_NODIR;          /*E@ANLZ_NODIR*/
       98     4998    1        GOTO ARET;
       99     4999    1   NO_NODEDIR:
      100     5000    1        S_D.ERROR = E@ANLZ_NONODEDIR;  /* E@ANLZ_NONODEDIR */
      101     5001    1        GOTO ARET;
      102     5002    1   NO_MEM:
      103     5003    1        S_D.ERROR = E@ANLZ_NOMEM;     /* E@ANLZ_NOMEM */
      104     5004    1   KILL_AND_ARET:
      105     5005    1        FPT$CLOSE = FPT_CLOSE;
      106     5006    1        FPT$CLOSE.V_ = VECTOR(FPT$CLOSE.V);
      107     5007    1        FPT$CLOSE.V.DCB# = S_D.ANLZDCB;
      108     5008    1        CALL M$CLOSE(FPT$CLOSE);
      109     5009    1        FPT$RELDCB = FPT_RELDCB;
      110     5010    1        FPT$RELDCB.V_ = VECTOR(FPT$RELDCB.V);
PL6.E3A0      #001=DUL$INIT File=DUL$INIT.:E05TSI                                TUE 07/29/97 14:55 Page:4
      111     5011    1        FPT$RELDCB.V.DCB# = S_D.ANLZDCB;
      112     5012    1        S_D.ANLZDCB = 0;
      113     5013    1        CALL M$RELDCB (FPT$RELDCB) ALTRET(ARET);
      114     5014    1        S_D.ANLZ = '0'B;
      115     5015    1        S_D.ANLZ_FILE = '0'B;
      116     5016    1   ARET:
      117     5017    1        ALTRETURN;
      118     5018    1   END DUL$INIT;

PL6.E3A0      #001=DUL$INIT File=DUL$INIT.:E05TSI                                TUE 07/29/97 14:55 Page:5
--  Include file information  --

   CP_6_SUBS.:E05TOU  is referenced.
   CP_6.:E05TOU  cannot be made into a system file and is referenced.
   B$SS.:E05TOU  cannot be made into a system file and is referenced.
   DD_SD_M.:E05TOU  is referenced.
   XUH_MACRO_C.:E05TOU  is referenced.
   DD_SUBS_C.:E05TOU  is referenced.
   DD$DA.:E05TOU  cannot be made into a system file and is referenced.
   NI$TABLES.:E05TOU  is referenced.
   IR_DATA_M.:E05TOU  is referenced.
   DD_ERR_C.:E05TOU  is referenced.
   B$JIT_C.:E05TOU  was found in the system file and is never referenced.
   CP_6_C.:E05TOU  was found in the system file and is referenced.
      No diagnostics issued in procedure DUL$INIT.

   Procedure DUL$INIT requires 190 words for executable code.
   Procedure DUL$INIT requires 44 words of local(AUTO) storage.

    No errors detected in file DUL$INIT.:E05TSI    .

PL6.E3A0      #001=DUL$INIT File=DUL$INIT.:E05TSI                                TUE 07/29/97 14:55 Page:6

 Object Unit name= DUL$INIT                                   File name= DUL$INIT.:E05TOU
 UTS= JUL 29 '97 14:55:42.88 TUE                              Compiler= PL-6/E31         Sev=      00
 SharedLib= :SHARED_SYSTEM                                    Alt SharedLib=


    ****  Control sections  ****

 Sect   Type Bound  Init  Size OctSiz  Section name(segment info)
    0   DCB   even  none     0      0  M$UC
    1   Proc  even  none   190    276  DUL$INIT
    2  RoData even  none    11     13  DUL$INIT

    ****  Entry defs  ****

                              Check   Calling
                             calling  sequence
  Sect OctLoc Primary Altret sequence   type   Parms  Name
     1      0   yes    yes     yes      Std        0  DUL$INIT

  ****  Entry refs  ****

         Check        Calling
        calling       sequence
Altret sequence SRef   type   Args  Name
 yes     yes           Std       3 DDM$GETMEM
 yes     yes           Std       4 DUL$USE
 yes     yes           Std       2 DUL$READ
                       nStd      0 X66_AUTO_0
                       Std       0 B_CONSPOOL_D
                       nStd      0 X66_ARET
                       nStd      0 X66_AALT
PL6.E3A0      #001=DUL$INIT File=DUL$INIT.:E05TSI                                TUE 07/29/97 14:55 Page:7

  ****  Data refs  ****

  Flags:  r = read only, s = secondary
Flgs Name                             Flgs Name                             Flgs Name
     DD_ANLZSEG$                      r    S_D$                                  M$UC
     FPT_RELDCB                            FPT_CLOSE                             B_VECTNIL

  ****  Segment refs  ****

  Flags:  r = read only, s = secondary
Flgs Name                             Flgs Name                             Flgs Name
     ROSID                                 ISSID
PL6.E3A0      #001=DUL$INIT File=DUL$INIT.:E05TSI                                TUE 07/29/97 14:55 Page:8


        1        1        /*M* DUL$INIT - SET UP DA FOR ANLZ */
        2        2        /*T***********************************************************/
        3        3        /*T*                                                         */
        4        4        /*T* Copyright (c) Bull HN Information Systems Inc., 1997    */
        5        5        /*T*                                                         */
        6        6        /*T***********************************************************/
        7        7        /*D* NAME: DUL$INIT
        8        8             PURPOSE: TO INIT THE DA SEGMENT FOR ANLZ/DELTA
        9        9             DESCRIPTION: ALLOCATES MEMORY FOR THE LINKAGE SEGMENTS
       10       10                  AND PAGE TABLES.  ALLOCATES MEMORY FOR VIRTUAL PAGES.
       11       11                  CALL DUL$USE TO SET UP THE MON WSQ FOR THE CURRENT CPU,
       12       12                  AND THE CURRENT USER FOR THAT MONITOR.  ALLOCATES
       13       13                  MEMORY FOR THE RECOVERY BUFFER AND USRDIR AND READS THOSE
       14       14                  RECORDS FROM THE DUMP FILE */
       15       15        DUL$INIT: PROC ALTRET;

     15  1 000000   000000 700200 xent  DUL$INIT     TSX0  ! X66_AUTO_0
         1 000001   000054 000000                    ZERO    44,0

       16       16        %INCLUDE DD_ERR_C;
       17      413        %INCLUDE IR_DATA_M;
       18      577        %INCLUDE NI$TABLES;
       19      793        %INCLUDE DD$DA;
       20      874        %RV_DFSUBS;
       21      901        %RV_BUFF (NAME=RV_BUFF, STCLASS=BASED);
       22      937        %RV_USRDIR (NAME=RV_USRDIR, STCLASS=BASED);
       23      941        %RV_NODEDIR (FPTN=RV_NODEDIR, STCLASS=BASED);
       24      958    1   DCL DUE$ERRMSG ENTRY;
       25      959        %INCLUDE DD_SUBS_C;
       26     1230        %INCLUDE XUH_MACRO_C;
       27     1314        %INCLUDE DD_SD_M;
       28     2650        %S_D;
       29     3968        %INCLUDE B$SS;
       30     4147        %INCLUDE CP_6;
       31     4228        %INCLUDE CP_6_SUBS;
       32     4768        %F$DCB;
PL6.E3A0      #001=DUL$INIT File=DUL$INIT.:E05TSI                                TUE 07/29/97 14:55 Page:9
       33     4825        %FPT_CLOSE (FPTN=FPT$CLOSE, STCLASS=AUTO);
       34     4867        %FPT_RELDCB (FPTN=FPT$RELDCB, STCLASS=AUTO);
       35     4881        %FPT_RELDCB (FPTN=FPT_RELDCB, STCLASS=SYMREF);
       36     4895        %FPT_CLOSE (FPTN=FPT_CLOSE,
       37     4896                  STCLASS=SYMREF);
       38     4938    1   DCL DUL$USE ENTRY(4) ALTRET;
       39     4939    1   DCL DDM$GETMEM ENTRY(3) ALTRET;
       40     4940    1   DCL DDE$ERROR ENTRY;
       41     4941    1   DCL DUL$READ ENTRY(2) ALTRET;
       42     4942    1   DCL LAST UBIN;
       43     4943    1   DCL I UBIN;
       44     4944                                                /**/
       45     4945                                                /* ALLOCATE MEMORY                    */
       46     4946                                                /**/
       47     4947    1        IF DCBADDR(S_D.ANLZDCB) -> F$DCB.ORG# ~= %KEYED#

   4947  1 000002   000000 470400 2                  LDP0    0
         1 000003   000000 471500                    LDP1    0,,PR0
         1 000004   000000 473400 xsym               LDP3    S_D$
         1 000005   305053 720100                    LXL0    2603,,PR3
         1 000006   100000 474510                    LDP4    0,X0,PR1
         1 000007   400032 236100                    LDQ     26,,PR4
         1 000010   777000 376003                    ANQ     -512,DU
         1 000011   002000 116003                    CMPQ    1024,DU
         1 000012   000212 601000 1                  TNZ     BAD_FID_ORG

       48     4948    1          THEN GOTO BAD_FID_ORG;
       49     4949    1        CALL DDM$GETMEM(DD_ANLZSEG$, SIZEW(DA) + 4*1024 + 2*1024 + SIZEW(RV_BUFF) +
              4949                 SIZEW(RV_USRDIR) + SIZEW(RV_NODEDIR)) ALTRET(NO_MEM);

   4949  1 000013   000002 630400 2                  EPPR0   2
         1 000014   000020 631400 xsym               EPPR1   B_VECTNIL+16
         1 000015   000000 701000 xent               TSX1    DDM$GETMEM
         1 000016   000231 702000 1                  TSX2    NO_MEM

       50     4950                  /* DA + 2 PAGES FOR LS+PT + 2 PAGE SLOTS + BUFF AND USRDIR + NODEDIR   */
       51     4951    1        DA = '0'B;
PL6.E3A0      #001=DUL$INIT File=DUL$INIT.:E05TSI                                TUE 07/29/97 14:55 Page:10

   4951  1 000017   000000 470400 xsym               LDP0    DD_ANLZSEG$
         1 000020   000100 100400                    MLR     fill='000'O
         1 000021   000002 000001 xsym               ADSC9   B_VECTNIL+2              cn=0,n=1
         1 000022   000000 000174                    ADSC9   0,,PR0                   cn=0,n=124

       52     4952                                                /**/
       53     4953    1        DA.MONLS$ = PINCRW(DD_ANLZSEG$, SIZEW(DA)); /* INIT POINTERS             */

   4953  1 000023   000000 236000 xsym               LDQ     DD_ANLZSEG$
         1 000024   000040 036003                    ADLQ    32,DU
         1 000025   000000 470400 xsym               LDP0    DD_ANLZSEG$
         1 000026   000000 756100                    STQ     0,,PR0

       54     4954    1        DA.ULS$ = PINCRW(DA.MONLS$, 1024);

   4954  1 000027   000000 470400 xsym               LDP0    DD_ANLZSEG$
         1 000030   000000 236100                    LDQ     0,,PR0
         1 000031   002000 036003                    ADLQ    1024,DU
         1 000032   000001 756100                    STQ     1,,PR0

       55     4955    1        DA.CURLS$ = ADDR(NIL);

   4955  1 000033   000001 236000 xsym               LDQ     B_VECTNIL+1
         1 000034   000002 756100                    STQ     2,,PR0

       56     4956    1        DA.MONPT$ = PINCRW(DA.ULS$, 1024);

   4956  1 000035   000001 236100                    LDQ     1,,PR0
         1 000036   002000 036003                    ADLQ    1024,DU
         1 000037   000003 756100                    STQ     3,,PR0

       57     4957    1        DA.UPT$ = PINCRW(DA.MONPT$, 1024);

   4957  1 000040   002000 036003                    ADLQ    1024,DU
         1 000041   000004 756100                    STQ     4,,PR0

PL6.E3A0      #001=DUL$INIT File=DUL$INIT.:E05TSI                                TUE 07/29/97 14:55 Page:11
       58     4958    1        DA.CURPT$ = ADDR(NIL);

   4958  1 000042   000001 236000 xsym               LDQ     B_VECTNIL+1
         1 000043   000005 756100                    STQ     5,,PR0

       59     4959    1        DA.VP$(0) = PINCRW(DA.UPT$, 1024);

   4959  1 000044   000004 236100                    LDQ     4,,PR0
         1 000045   002000 036003                    ADLQ    1024,DU
         1 000046   000006 756100                    STQ     6,,PR0

       60     4960    1        DA.VP$(1) = PINCRW(DA.VP$(0), 1024);

   4960  1 000047   002000 036003                    ADLQ    1024,DU
         1 000050   000007 756100                    STQ     7,,PR0

       61     4961    1        DA.RVBUFF$ = PINCRW(DA.VP$(1), 1024);

   4961  1 000051   002000 036003                    ADLQ    1024,DU
         1 000052   000011 756100                    STQ     9,,PR0

       62     4962    1        DA.USRDIR$ = PINCRW(DA.RVBUFF$, SIZEW(RV_BUFF));

   4962  1 000053   002000 036003                    ADLQ    1024,DU
         1 000054   000012 756100                    STQ     10,,PR0

       63     4963    1        DA.NODEDIR$ = PINCRW(DA.USRDIR$, SIZEW(RV_USRDIR));

   4963  1 000055   002000 036003                    ADLQ    1024,DU
         1 000056   000013 756100                    STQ     11,,PR0

       64     4964    1        DA.ANLZSEGEND$ = PINCRW(DA.NODEDIR$, SIZEW(RV_NODEDIR));

   4964  1 000057   000042 036003                    ADLQ    34,DU
         1 000060   000014 756100                    STQ     12,,PR0

       65     4965                                                /* READ IN INFO RECORDS               */
PL6.E3A0      #001=DUL$INIT File=DUL$INIT.:E05TSI                                TUE 07/29/97 14:55 Page:12
       66     4966    1        DA.CURKEY.L = 7;

   4966  1 000061   007000 236003                    LDQ     3584,DU
         1 000062   000026 552140                    STBQ    22,'40'O,PR0

       67     4967    1        DA.CURKEY.K.TYP = %R_DINFO#;

   4967  1 000063   000000 236003                    LDQ     0,DU
         1 000064   000026 552110                    STBQ    22,'10'O,PR0

       68     4968    1        DA.CURKEY.K.STYP = %R_BUFF#;

   4968  1 000065   000026 552104                    STBQ    22,'04'O,PR0

       69     4969    1        DA.CURKEY.K.NODEIDX = 0;

   4969  1 000066   000026 552120                    STBQ    22,'20'O,PR0

       70     4970    1        CALL DUL$READ(DA.NODEDIR$, SIZEC(RV_NODEDIR)) ALTRET(NO_NODEDIR);

   4970  1 000067   000005 236000 2                  LDQ     5
         1 000070   200051 756100                    STQ     I+2,,AUTO
         1 000071   000000 236000 xsym               LDQ     DD_ANLZSEG$
         1 000072   000013 036003                    ADLQ    11,DU
         1 000073   200050 756100                    STQ     I+1,,AUTO
         1 000074   200050 630500                    EPPR0   I+1,,AUTO
         1 000075   000020 631400 xsym               EPPR1   B_VECTNIL+16
         1 000076   000000 701000 xent               TSX1    DUL$READ
         1 000077   000225 702000 1                  TSX2    NO_NODEDIR

       71     4971    1        LAST = DA.NODEDIR$ -> RV_NODEDIR.N;

   4971  1 000100   000000 470400 xsym               LDP0    DD_ANLZSEG$
         1 000101   000013 471500                    LDP1    11,,PR0
         1 000102   100000 235100                    LDA     0,,PR1
         1 000103   200046 755100                    STA     LAST,,AUTO

PL6.E3A0      #001=DUL$INIT File=DUL$INIT.:E05TSI                                TUE 07/29/97 14:55 Page:13
       72     4972    2        DO I = 0 TO LAST;

   4972  1 000104   200047 450100                    STZ     I,,AUTO
         1 000105   000121 710000 1                  TRA     s:4975+3

       73     4973    2             IF DA.NODEDIR$ -> RV_NODEDIR.NODE.TYPE(I) = %R_HOSTNODE#

   4973  1 000106   000000 470400 xsym               LDP0    DD_ANLZSEG$
         1 000107   000013 471500                    LDP1    11,,PR0
         1 000110   200047 236100                    LDQ     I,,AUTO
         1 000111   000003 402007                    MPY     3,DL
         1 000112   100003 236106                    LDQ     3,QL,PR1
         1 000113   777000 376003                    ANQ     -512,DU
         1 000114   001000 116003                    CMPQ    512,DU
         1 000115   000124 600000 1                  TZE     s:4976

       74     4974    2             THEN EXIT;
       75     4975    2           END;

   4975  1 000116   200047 235100                    LDA     I,,AUTO
         1 000117   000001 035007                    ADLA    1,DL
         1 000120   200047 755100                    STA     I,,AUTO
         1 000121   200046 236100                    LDQ     LAST,,AUTO
         1 000122   200047 116100                    CMPQ    I,,AUTO
         1 000123   000106 603000 1                  TRC     s:4973

       76     4976    1        DA.CURKEY.K.NODEIDX = I;

   4976  1 000124   200047 236100                    LDQ     I,,AUTO
         1 000125   000022 736000                    QLS     18
         1 000126   000026 552120                    STBQ    22,'20'O,PR0

       77     4977    1        DA.NODEIDX = I;

   4977  1 000127   200047 235100                    LDA     I,,AUTO
         1 000130   000024 755100                    STA     20,,PR0

PL6.E3A0      #001=DUL$INIT File=DUL$INIT.:E05TSI                                TUE 07/29/97 14:55 Page:14
       78     4978    1        CALL DUL$READ(DA.RVBUFF$, SIZEC(RV_BUFF)) ALTRET(NO_BUFF);

   4978  1 000131   000007 236000 2                  LDQ     7
         1 000132   200051 756100                    STQ     I+2,,AUTO
         1 000133   000000 236000 xsym               LDQ     DD_ANLZSEG$
         1 000134   000011 036003                    ADLQ    9,DU
         1 000135   200050 756100                    STQ     I+1,,AUTO
         1 000136   200050 630500                    EPPR0   I+1,,AUTO
         1 000137   000020 631400 xsym               EPPR1   B_VECTNIL+16
         1 000140   000000 701000 xent               TSX1    DUL$READ
         1 000141   000215 702000 1                  TSX2    NO_BUFF

       79     4979    1        DA.CURKEY.K.STYP = %R_USRD#;

   4979  1 000142   000000 470400 xsym               LDP0    DD_ANLZSEG$
         1 000143   000001 236007                    LDQ     1,DL
         1 000144   000026 552104                    STBQ    22,'04'O,PR0

       80     4980    1        CALL DUL$READ(DA.USRDIR$, SIZEC(RV_USRDIR)) ALTRET(NO_DIR);

   4980  1 000145   000007 236000 2                  LDQ     7
         1 000146   200051 756100                    STQ     I+2,,AUTO
         1 000147   000000 236000 xsym               LDQ     DD_ANLZSEG$
         1 000150   000012 036003                    ADLQ    10,DU
         1 000151   200050 756100                    STQ     I+1,,AUTO
         1 000152   200050 630500                    EPPR0   I+1,,AUTO
         1 000153   000020 631400 xsym               EPPR1   B_VECTNIL+16
         1 000154   000000 701000 xent               TSX1    DUL$READ
         1 000155   000221 702000 1                  TSX2    NO_DIR

       81     4981                                                /* GET USER AND CPU                   */
       82     4982    1        DA.CURCPU = DA.RVBUFF$->RV_BUFF.S_PNO;

   4982  1 000156   000000 470400 xsym               LDP0    DD_ANLZSEG$
         1 000157   000011 471500                    LDP1    9,,PR0
         1 000160   100142 235100                    LDA     98,,PR1
         1 000161   000035 755100                    STA     29,,PR0
PL6.E3A0      #001=DUL$INIT File=DUL$INIT.:E05TSI                                TUE 07/29/97 14:55 Page:15

       83     4983    1        DA.CURUSR = DA.RVBUFF$->RV_BUFF.CUN;

   4983  1 000162   100140 235100                    LDA     96,,PR1
         1 000163   000034 755100                    STA     28,,PR0

       84     4984                                                /* SETUP INITIAL USE ENVIRONMENT      */
       85     4985    1        CALL DUL$USE(USE_MON, DA.CURUSR, DA.CURCPU, 0) ALTRET(ARET); /* USE MON  */

   4985  1 000164   000010 236000 2                  LDQ     8
         1 000165   200053 756100                    STQ     I+4,,AUTO
         1 000166   000000 236000 xsym               LDQ     DD_ANLZSEG$
         1 000167   000035 036003                    ADLQ    29,DU
         1 000170   200052 756100                    STQ     I+3,,AUTO
         1 000171   000000 236000 xsym               LDQ     DD_ANLZSEG$
         1 000172   000034 036003                    ADLQ    28,DU
         1 000173   000010 235000 2                  LDA     8
         1 000174   200050 757100                    STAQ    I+1,,AUTO
         1 000175   200050 630500                    EPPR0   I+1,,AUTO
         1 000176   000022 631400 xsym               EPPR1   B_VECTNIL+18
         1 000177   000000 701000 xent               TSX1    DUL$USE
         1 000200   000275 702000 1                  TSX2    ARET

       86     4986    1        S_D.PADDR_SAVE = S_D.PADDR;

   4986  1 000201   000000 470400 xsym               LDP0    S_D$
         1 000202   004765 235100                    LDA     2549,,PR0
         1 000203   005050 755100                    STA     2600,,PR0

       87     4987    1        S_D.SAVEIC = DA.RVBUFF$->RV_BUFF.SSFRAME.IC;

   4987  1 000204   000000 471400 xsym               LDP1    DD_ANLZSEG$
         1 000205   100011 473500                    LDP3    9,,PR1
         1 000206   300044 236100                    LDQ     36,,PR3
         1 000207   000022 772000                    QRL     18
         1 000210   000002 756100                    STQ     2,,PR0

PL6.E3A0      #001=DUL$INIT File=DUL$INIT.:E05TSI                                TUE 07/29/97 14:55 Page:16
       88     4988    1        RETURN;

   4988  1 000211   000000 702200 xent               TSX2  ! X66_ARET

       89     4989                                                /* BAD NEWS ROUTINES                  */
       90     4990    1   BAD_FID_ORG:
       91     4991    1        S_D.ERROR = E@ANLZ_NOPAGE;         /*E@ANLZ_NOPAGE*/

   4991  1 000212   000226 235007       BAD_FID_ORG  LDA     150,DL
         1 000213   300013 755100                    STA     11,,PR3

       92     4992    1        GOTO KILL_AND_ARET;

   4992  1 000214   000234 710000 1                  TRA     KILL_AND_ARET

       93     4993    1   NO_BUFF:
       94     4994    1        S_D.ERROR = E@ANLZ_NOBUFF;         /*E@ANLZ_NOBUFF*/

   4994  1 000215   000216 235007       NO_BUFF      LDA     142,DL
         1 000216   000000 470400 xsym               LDP0    S_D$
         1 000217   000013 755100                    STA     11,,PR0

       95     4995    1        GOTO ARET;

   4995  1 000220   000275 710000 1                  TRA     ARET

       96     4996    1   NO_DIR:
       97     4997    1        S_D.ERROR = E@ANLZ_NODIR;          /*E@ANLZ_NODIR*/

   4997  1 000221   000217 235007       NO_DIR       LDA     143,DL
         1 000222   000000 470400 xsym               LDP0    S_D$
         1 000223   000013 755100                    STA     11,,PR0

       98     4998    1        GOTO ARET;

   4998  1 000224   000275 710000 1                  TRA     ARET

PL6.E3A0      #001=DUL$INIT File=DUL$INIT.:E05TSI                                TUE 07/29/97 14:55 Page:17
       99     4999    1   NO_NODEDIR:
      100     5000    1        S_D.ERROR = E@ANLZ_NONODEDIR;  /* E@ANLZ_NONODEDIR */

   5000  1 000225   000470 235007       NO_NODEDIR   LDA     312,DL
         1 000226   000000 470400 xsym               LDP0    S_D$
         1 000227   000013 755100                    STA     11,,PR0

      101     5001    1        GOTO ARET;

   5001  1 000230   000275 710000 1                  TRA     ARET

      102     5002    1   NO_MEM:
      103     5003    1        S_D.ERROR = E@ANLZ_NOMEM;     /* E@ANLZ_NOMEM */

   5003  1 000231   000225 235007       NO_MEM       LDA     149,DL
         1 000232   000000 470400 xsym               LDP0    S_D$
         1 000233   000013 755100                    STA     11,,PR0

      104     5004    1   KILL_AND_ARET:
      105     5005    1        FPT$CLOSE = FPT_CLOSE;

   5005  1 000234   000100 100400       KILL_AND_AR* MLR     fill='000'O
         1 000235   000000 000170 xsym               ADSC9   FPT_CLOSE                cn=0,n=120
         1 000236   200004 000170                    ADSC9   FPT$CLOSE,,AUTO          cn=0,n=120

      106     5006    1        FPT$CLOSE.V_ = VECTOR(FPT$CLOSE.V);

   5006  1 000237   000011 235000 2                  LDA     9
         1 000240   200050 452500                    STP2    I+1,,AUTO
         1 000241   200050 236100                    LDQ     I+1,,AUTO
         1 000242   000036 036003                    ADLQ    30,DU
         1 000243   200004 757100                    STAQ    FPT$CLOSE,,AUTO

      107     5007    1        FPT$CLOSE.V.DCB# = S_D.ANLZDCB;

   5007  1 000244   000000 470400 xsym               LDP0    S_D$
         1 000245   005053 720100                    LXL0    2603,,PR0
PL6.E3A0      #001=DUL$INIT File=DUL$INIT.:E05TSI                                TUE 07/29/97 14:55 Page:18
         1 000246   200036 740100                    STX0    FPT$CLOSE+26,,AUTO

      108     5008    1        CALL M$CLOSE(FPT$CLOSE);

   5008  1 000247   200004 630500                    EPPR0   FPT$CLOSE,,AUTO
         1 000250   050001 713400                    CLIMB   close
         1 000251   406000 401760                    pmme    nvectors=13

      109     5009    1        FPT$RELDCB = FPT_RELDCB;

   5009  1 000252   000100 100400                    MLR     fill='000'O
         1 000253   000000 000020 xsym               ADSC9   FPT_RELDCB               cn=0,n=16
         1 000254   200042 000020                    ADSC9   FPT$RELDCB,,AUTO         cn=0,n=16

      110     5010    1        FPT$RELDCB.V_ = VECTOR(FPT$RELDCB.V);

   5010  1 000255   000012 235000 2                  LDA     10
         1 000256   200050 452500                    STP2    I+1,,AUTO
         1 000257   200050 236100                    LDQ     I+1,,AUTO
         1 000260   000044 036003                    ADLQ    36,DU
         1 000261   200042 757100                    STAQ    FPT$RELDCB,,AUTO

      111     5011    1        FPT$RELDCB.V.DCB# = S_D.ANLZDCB;

   5011  1 000262   000000 470400 xsym               LDP0    S_D$
         1 000263   005053 720100                    LXL0    2603,,PR0
         1 000264   200044 740100                    STX0    FPT$RELDCB+2,,AUTO

      112     5012    1        S_D.ANLZDCB = 0;

   5012  1 000265   005053 450100                    STZ     2603,,PR0

      113     5013    1        CALL M$RELDCB (FPT$RELDCB) ALTRET(ARET);

   5013  1 000266   200042 630500                    EPPR0   FPT$RELDCB,,AUTO
         1 000267   460003 713400                    CLIMB   alt,+24579
         1 000270   400000 401760                    pmme    nvectors=1
PL6.E3A0      #001=DUL$INIT File=DUL$INIT.:E05TSI                                TUE 07/29/97 14:55 Page:19
         1 000271   000275 702000 1                  TSX2    ARET

      114     5014    1        S_D.ANLZ = '0'B;

   5014  1 000272   000000 470400 xsym               LDP0    S_D$
         1 000273   004756 450100                    STZ     2542,,PR0

      115     5015    1        S_D.ANLZ_FILE = '0'B;

   5015  1 000274   005052 450100                    STZ     2602,,PR0

      116     5016    1   ARET:
      117     5017    1        ALTRETURN;

   5017  1 000275   000000 702200 xent  ARET         TSX2  ! X66_AALT

(unnamed)
 Sect OctLoc
   2     000   000000 006003   000000 020102   000000 006000   000001 006000    .......B........
   2     004   000000 000210   000004 006000   000000 010000   000006 006000    ................
   2     010   000002 006000   000003 777640   000001 777640                    ............
      118     5018    1   END DUL$INIT;

PL6.E3A0      #001=DUL$INIT File=DUL$INIT.:E05TSI                                TUE 07/29/97 14:55 Page:20
--  Include file information  --

   CP_6_SUBS.:E05TOU  is referenced.
   CP_6.:E05TOU  cannot be made into a system file and is referenced.
   B$SS.:E05TOU  cannot be made into a system file and is referenced.
   DD_SD_M.:E05TOU  is referenced.
   XUH_MACRO_C.:E05TOU  is referenced.
   DD_SUBS_C.:E05TOU  is referenced.
   DD$DA.:E05TOU  cannot be made into a system file and is referenced.
   NI$TABLES.:E05TOU  is referenced.
   IR_DATA_M.:E05TOU  is referenced.
   DD_ERR_C.:E05TOU  is referenced.
   B$JIT_C.:E05TOU  was found in the system file and is never referenced.
   CP_6_C.:E05TOU  was found in the system file and is referenced.
      No diagnostics issued in procedure DUL$INIT.

   Procedure DUL$INIT requires 190 words for executable code.
   Procedure DUL$INIT requires 44 words of local(AUTO) storage.

    No errors detected in file DUL$INIT.:E05TSI    .
PL6.E3A0      #001=DUL$INIT File=DUL$INIT.:E05TSI                                TUE 07/29/97 14:55 Page:21
          *** CROSS REFERENCE LISTING ***
**     DENOTES     IDENTIFIER DEFINITION
<<                 IDENTIFIER'S VALUE SET
>>                 IDENTIFIER'S VALUE USED
<>                 IDENTIFIER SET AND/OR USED
--                 IDENTIFIER REFERENCED
PL6.E3A0      #001=DUL$INIT File=DUL$INIT.:E05TSI                                TUE 07/29/97 14:55 Page:22
          MINI XREF LISTING

ARET
      5017**LABEL    4985--CALLALT  4995--GOTO     4998--GOTO     5001--GOTO     5013--CALLALT
B$SS.RVA
      4020**DCL      4021--REDEF
BAD_FID_ORG
      4991**LABEL    4948--GOTO
DA
       801**DCL      4949--CALL     4951<<ASSIGN   4953--ASSIGN
DA.ANLZSEGEND$
       812**DCL      4964<<ASSIGN
DA.CURCPU
       872**DCL      4982<<ASSIGN   4985<>CALL
DA.CURKEY.K.NODEIDX
       832**DCL      4969<<ASSIGN   4976<<ASSIGN
DA.CURKEY.K.STYP
       832**DCL      4968<<ASSIGN   4979<<ASSIGN
DA.CURKEY.K.TYP
       832**DCL      4967<<ASSIGN
DA.CURKEY.L
       832**DCL      4966<<ASSIGN
DA.CURLS$
       804**DCL      4955<<ASSIGN
DA.CURPT$
       807**DCL      4958<<ASSIGN
DA.CURUSR
       871**DCL      4983<<ASSIGN   4985<>CALL
DA.MONLS$
       802**DCL      4953<<ASSIGN   4954>>ASSIGN
DA.MONPT$
       805**DCL      4956<<ASSIGN   4957>>ASSIGN
DA.NODEDIR$
       811**DCL      4963<<ASSIGN   4964>>ASSIGN   4970<>CALL     4971>>ASSIGN   4973>>IF
PL6.E3A0      #001=DUL$INIT File=DUL$INIT.:E05TSI                                TUE 07/29/97 14:55 Page:23
DA.NODEIDX
       816**DCL      4977<<ASSIGN
DA.RVBUFF$
       809**DCL      4961<<ASSIGN   4962>>ASSIGN   4978<>CALL     4982>>ASSIGN   4983>>ASSIGN   4987>>ASSIGN
DA.ULS$
       803**DCL      4954<<ASSIGN   4956>>ASSIGN
DA.UPT$
       806**DCL      4957<<ASSIGN   4959>>ASSIGN
DA.USRDIR$
       810**DCL      4962<<ASSIGN   4963>>ASSIGN   4980<>CALL
DA.VP$
       808**DCL      4959<<ASSIGN   4960<<ASSIGN   4960>>ASSIGN   4961>>ASSIGN
DDM$GETMEM
      4939**DCL-ENT  4949--CALL
DD_ANLZSEG$
       800**DCL       801--IMP-PTR  4949<>CALL     4951>>ASSIGN   4953>>ASSIGN   4953>>ASSIGN   4954>>ASSIGN
      4954>>ASSIGN   4955>>ASSIGN   4956>>ASSIGN   4956>>ASSIGN   4957>>ASSIGN   4957>>ASSIGN   4958>>ASSIGN
      4959>>ASSIGN   4959>>ASSIGN   4960>>ASSIGN   4960>>ASSIGN   4961>>ASSIGN   4961>>ASSIGN   4962>>ASSIGN
      4962>>ASSIGN   4963>>ASSIGN   4963>>ASSIGN   4964>>ASSIGN   4964>>ASSIGN   4966>>ASSIGN   4967>>ASSIGN
      4968>>ASSIGN   4969>>ASSIGN   4970>>CALL     4971>>ASSIGN   4973>>IF       4976>>ASSIGN   4977>>ASSIGN
      4978>>CALL     4979>>ASSIGN   4980>>CALL     4982>>ASSIGN   4982>>ASSIGN   4983>>ASSIGN   4983>>ASSIGN
      4985>>CALL     4985>>CALL     4987>>ASSIGN
DUL$READ
      4941**DCL-ENT  4970--CALL     4978--CALL     4980--CALL
DUL$USE
      4938**DCL-ENT  4985--CALL
F$DCB.ACTPOS
      4801**DCL      4801--REDEF
F$DCB.ARS#
      4775**DCL      4775--REDEF
F$DCB.ATTR
      4794**DCL      4795--REDEF
F$DCB.BORROW
      4809**DCL      4809--REDEF    4809--REDEF    4809--REDEF
F$DCB.DCBNAME.L
      4823**DCL      4823--IMP-SIZ
PL6.E3A0      #001=DUL$INIT File=DUL$INIT.:E05TSI                                TUE 07/29/97 14:55 Page:24
F$DCB.EOMCHAR#
      4779**DCL      4779--REDEF
F$DCB.FLDID
      4804**DCL      4804--REDEF
F$DCB.FORM$
      4798**DCL      4798--REDEF
F$DCB.FSECT
      4814**DCL      4814--REDEF
F$DCB.FSN#
      4791**DCL      4791--REDEF    4791--REDEF    4792--REDEF
F$DCB.HEADER$
      4797**DCL      4797--REDEF
F$DCB.IXTNSIZE#
      4795**DCL      4795--REDEF
F$DCB.LASTSTA$
      4784**DCL      4784--REDEF
F$DCB.LVL
      4810**DCL      4810--REDEF
F$DCB.NAME#.C
      4785**DCL      4785--REDEF
F$DCB.NOEOF
      4807**DCL      4807--REDEF
F$DCB.NRECS#
      4796**DCL      4796--REDEF
F$DCB.NRECX
      4815**DCL      4815--REDEF
F$DCB.OHDR
      4807**DCL      4807--REDEF
F$DCB.ORG#
      4790**DCL      4790--REDEF    4947>>IF
F$DCB.PRECNO
      4813**DCL      4813--REDEF
F$DCB.RCSZ
      4819**DCL      4819--REDEF
F$DCB.RES#
      4786**DCL      4786--REDEF
PL6.E3A0      #001=DUL$INIT File=DUL$INIT.:E05TSI                                TUE 07/29/97 14:55 Page:25
F$DCB.SETX
      4798**DCL      4798--REDEF
F$DCB.TAB$
      4798**DCL      4798--REDEF
F$DCB.TDA
      4812**DCL      4813--REDEF
F$DCB.WSN#
      4786**DCL      4786--REDEF
FPT$CLOSE
      4848**DCL      5005<<ASSIGN   5008<>CALL
FPT$CLOSE.SN_
      4848**DCL      4848--REDEF
FPT$CLOSE.UTL_
      4849**DCL      4849--REDEF
FPT$CLOSE.V
      4853**DCL      5006--ASSIGN
FPT$CLOSE.V.DCB#
      4854**DCL      5007<<ASSIGN
FPT$CLOSE.V.EXPIRE#
      4863**DCL      4863--REDEF
FPT$CLOSE.V.TYPE#
      4861**DCL      4861--REDEF
FPT$CLOSE.V.XTNSIZE#
      4858**DCL      4858--REDEF    4860--REDEF
FPT$CLOSE.V_
      4848**DCL      5006<<ASSIGN
FPT$RELDCB
      4878**DCL      5009<<ASSIGN   5013<>CALL
FPT$RELDCB.V
      4878**DCL      5010--ASSIGN
FPT$RELDCB.V.DCB#
      4878**DCL      5011<<ASSIGN
FPT$RELDCB.V_
      4878**DCL      5010<<ASSIGN
FPT_CLOSE
      4919**DCL      5005>>ASSIGN
PL6.E3A0      #001=DUL$INIT File=DUL$INIT.:E05TSI                                TUE 07/29/97 14:55 Page:26
FPT_CLOSE.SN_
      4919**DCL      4919--REDEF
FPT_CLOSE.UTL_
      4920**DCL      4920--REDEF
FPT_CLOSE.V.EXPIRE#
      4934**DCL      4934--REDEF
FPT_CLOSE.V.TYPE#
      4932**DCL      4932--REDEF
FPT_CLOSE.V.XTNSIZE#
      4929**DCL      4929--REDEF    4931--REDEF
FPT_RELDCB
      4892**DCL      5009>>ASSIGN
I
      4943**DCL      4972<<DOINDEX  4973>>IF       4976>>ASSIGN   4977>>ASSIGN
KILL_AND_ARET
      5005**LABEL    4992--GOTO
LAST
      4942**DCL      4971<<ASSIGN   4972>>DOINDEX
M$CLOSE
      4156**DCL-ENT  5008--CALL
M$RELDCB
      4162**DCL-ENT  5013--CALL
NO_BUFF
      4994**LABEL    4978--CALLALT
NO_DIR
      4997**LABEL    4980--CALLALT
NO_MEM
      5003**LABEL    4949--CALLALT
NO_NODEDIR
      5000**LABEL    4970--CALLALT
RV_BUFF
       902**DCL      4949--CALL     4962--ASSIGN   4978--CALL
RV_BUFF.CUN
       912**DCL      4983>>ASSIGN
RV_BUFF.SSFRAME.IC
       912**DCL      4987>>ASSIGN
PL6.E3A0      #001=DUL$INIT File=DUL$INIT.:E05TSI                                TUE 07/29/97 14:55 Page:27
RV_BUFF.S_PNO
       913**DCL      4982>>ASSIGN
RV_NODEDIR
       954**DCL      4949--CALL     4964--ASSIGN   4970--CALL
RV_NODEDIR.N
       954**DCL      4971>>ASSIGN
RV_NODEDIR.NODE.TYPE
       955**DCL      4973>>IF
RV_USRDIR
       938**DCL      4949--CALL     4963--ASSIGN   4980--CALL
S_D.ANLZ
      3302**DCL      5014<<ASSIGN
S_D.ANLZDCB
      3368**DCL      4947--IF       5007>>ASSIGN   5011>>ASSIGN   5012<<ASSIGN
S_D.ANLZ_FILE
      3366**DCL      5015<<ASSIGN
S_D.CURRENT_CHANNEL
      3602**DCL      3604--REDEF
S_D.DEBUGA
      2754**DCL      2756--REDEF
S_D.EIS
      3712**DCL      3741--REDEF
S_D.ERROR
      2683**DCL      4991<<ASSIGN   4994<<ASSIGN   4997<<ASSIGN   5000<<ASSIGN   5003<<ASSIGN
S_D.HOST_MESSAGE_BUF_REMOTE
      3645**DCL      3646--REDEF    3660--REDEF
S_D.JDE
      3259**DCL      3260--REDEF
S_D.L$.VALUE
      2812**DCL      2818--REDEF    2826--REDEF    2829--REDEF    2832--REDEF    2835--REDEF
S_D.L$.VALUE.L
      2813**DCL      2814--REDEF    2815--REDEF
S_D.L6_MESSAGE_BUF
      3666**DCL      3668--REDEF
S_D.OUTPUT
      3632**DCL      3634--REDEF
PL6.E3A0      #001=DUL$INIT File=DUL$INIT.:E05TSI                                TUE 07/29/97 14:55 Page:28
S_D.PADDR
      3318**DCL      4986>>ASSIGN
S_D.PADDR_SAVE
      3362**DCL      4986<<ASSIGN
S_D.REMOTE_MSG.FNCC
      3651**DCL      3652--REDEF
S_D.REMOTE_MSG.STXC
      3647**DCL      3648--REDEF
S_D.REMOTE_MSG.SUBFNCC
      3655**DCL      3656--REDEF
S_D.SAVEIC
      2665**DCL      4987<<ASSIGN
S_D.SV
      2711**DCL      2732--REDEF
S_D$
      3963**DCL      2659--IMP-PTR  4947>>IF       4986>>ASSIGN   4986>>ASSIGN   4987>>ASSIGN   4991>>ASSIGN
      4994>>ASSIGN   4997>>ASSIGN   5000>>ASSIGN   5003>>ASSIGN   5007>>ASSIGN   5011>>ASSIGN   5012>>ASSIGN
      5014>>ASSIGN   5015>>ASSIGN
PL6.E3A0      #001=DUL$INIT File=DUL$INIT.:E05TSI                                TUE 07/29/97 14:55 Page:29
              *** CROSS REFERENCE LISTING ***
    **     DENOTES     IDENTIFIER DEFINITION
    <<                 IDENTIFIER'S VALUE SET
    >>                 IDENTIFIER'S VALUE USED
    <>                 IDENTIFIER SET AND/OR USED
    --                 IDENTIFIER REFERENCED
PL6.E3A0      #001=DUL$INIT File=DUL$INIT.:E05TSI                                TUE 07/29/97 14:55 Page:30
              MINI UREF LISTING

DDE$ERROR    4940**DCL-ENT
DUE$ERRMSG     958**DCL-ENT
DUL$INIT      15**PROC
M$ACCT    4173**DCL-ENT
M$ACTIVATE    4176**DCL-ENT
M$ALIB    4169**DCL-ENT
M$ASUSER    4171**DCL-ENT
M$ATTACH    4178**DCL-ENT
M$BADPP    4196**DCL-ENT
M$CGCTL    4177**DCL-ENT
M$CGINFO    4177**DCL-ENT
M$CHECK    4158**DCL-ENT
M$CHGUNIT    4216**DCL-ENT
M$CLRSTK    4214**DCL-ENT
M$CMDVAR    4225**DCL-ENT
M$CONFIG    4186**DCL-ENT
M$CORRES    4161**DCL-ENT
M$CPEXIT    4170**DCL-ENT
M$CVM    4194**DCL-ENT
M$CVOL    4159**DCL-ENT
M$DCLFLD    4186**DCL-ENT
M$DEACTIVATE    4176**DCL-ENT
M$DELREC    4158**DCL-ENT
M$DEQ    4223**DCL-ENT
M$DETACH    4178**DCL-ENT
M$DEVICE    4160**DCL-ENT
M$DISPLAY    4223**DCL-ENT
M$DISPRES    4163**DCL-ENT
M$DLIB    4169**DCL-ENT
M$DRIBBLE    4186**DCL-ENT
M$DRTN    4214**DCL-ENT
M$DSUSER    4171**DCL-ENT
PL6.E3A0      #001=DUL$INIT File=DUL$INIT.:E05TSI                                TUE 07/29/97 14:55 Page:31
M$ENQ    4222**DCL-ENT
M$EOM    4181**DCL-ENT
M$ERASE    4187**DCL-ENT
M$ERR    4168**DCL-ENT
M$ERRMSG    4219**DCL-ENT
M$EVENT    4211**DCL-ENT
M$EXHUME    4220**DCL-ENT
M$EXIT    4168**DCL-ENT
M$EXTEND    4160**DCL-ENT
M$FDP    4192**DCL-ENT
M$FDS    4191**DCL-ENT
M$FEBOOT    4184**DCL-ENT
M$FECTL    4185**DCL-ENT
M$FEDUMP    4184**DCL-ENT
M$FID    4219**DCL-ENT
M$FINDPROC    4173**DCL-ENT
M$FSUSER    4171**DCL-ENT
M$FVP    4193**DCL-ENT
M$FWCG    4177**DCL-ENT
M$GBPL    4197**DCL-ENT
M$GDDL    4193**DCL-ENT
M$GDP    4192**DCL-ENT
M$GDS    4191**DCL-ENT
M$GETDCB    4162**DCL-ENT
M$GETMOUSE    4202**DCL-ENT
M$GETPM    4203**DCL-ENT
M$GJOB    4221**DCL-ENT
M$GLINEATTR    4181**DCL-ENT
M$GOODPP    4196**DCL-ENT
M$GPLATEN    4189**DCL-ENT
M$GPROMPT    4188**DCL-ENT
M$GTRMATTR    4182**DCL-ENT
M$GTRMCTL    4180**DCL-ENT
M$GTRMTAB    4183**DCL-ENT
M$GVP    4192**DCL-ENT
M$HELP    4219**DCL-ENT
PL6.E3A0      #001=DUL$INIT File=DUL$INIT.:E05TSI                                TUE 07/29/97 14:55 Page:32
M$INT    4211**DCL-ENT
M$INTRTN    4172**DCL-ENT
M$IOQ    4207**DCL-ENT
M$JOBSTATS    4221**DCL-ENT
M$KEYIN    4161**DCL-ENT
M$LDEV    4156**DCL-ENT
M$LDTRC    4169**DCL-ENT
M$LIMIT    4162**DCL-ENT
M$LINES    4161**DCL-ENT
M$LINK    4168**DCL-ENT
M$MADMUCK    4164**DCL-ENT
M$MAKUSER    4195**DCL-ENT
M$MBS    4163**DCL-ENT
M$MDFFLD    4187**DCL-ENT
M$MERC    4212**DCL-ENT
M$MERCS    4213**DCL-ENT
M$MIRROR    4207**DCL-ENT
M$MONINFO    4224**DCL-ENT
M$MPL    4197**DCL-ENT
M$NODEINFO    4188**DCL-ENT
M$NXTUSR    4222**DCL-ENT
M$OCMSG    4220**DCL-ENT
M$OLAY    4168**DCL-ENT
M$OPEN    4156**DCL-ENT
M$PAS    4197**DCL-ENT
M$PATHCON    4220**DCL-ENT
M$PDS    4191**DCL-ENT
M$PFIL    4158**DCL-ENT
M$PLATEN    4182**DCL-ENT
M$PRECORD    4160**DCL-ENT
M$PROCNAME    4173**DCL-ENT
M$PROFILE    4184**DCL-ENT
M$PROMPT    4180**DCL-ENT
M$RACST    4164**DCL-ENT
M$RDSYSLOG    4205**DCL-ENT
M$READ    4157**DCL-ENT
PL6.E3A0      #001=DUL$INIT File=DUL$INIT.:E05TSI                                TUE 07/29/97 14:55 Page:33
M$RELRES    4163**DCL-ENT
M$RELSTARF    4165**DCL-ENT
M$REM    4165**DCL-ENT
M$RENV    4212**DCL-ENT
M$REQUIRE    4164**DCL-ENT
M$RETRY    4213**DCL-ENT
M$RETRYS    4213**DCL-ENT
M$REW    4159**DCL-ENT
M$RLSFLD    4187**DCL-ENT
M$RPRIV    4215**DCL-ENT
M$RSPP    4194**DCL-ENT
M$RSWITCH    4216**DCL-ENT
M$RUE    4222**DCL-ENT
M$SAD    4195**DCL-ENT
M$SAVE    4171**DCL-ENT
M$SCON    4172**DCL-ENT
M$SCREECH    4170**DCL-ENT
M$SENV    4212**DCL-ENT
M$SETFMA    4156**DCL-ENT
M$SETFP    4185**DCL-ENT
M$SINPUT    4183**DCL-ENT
M$SLCFLD    4188**DCL-ENT
M$SMOUSE    4202**DCL-ENT
M$SMPRT    4194**DCL-ENT
M$SPRIV    4215**DCL-ENT
M$SSC    4195**DCL-ENT
M$SSWITCH    4215**DCL-ENT
M$STATE    4224**DCL-ENT
M$STD    4196**DCL-ENT
M$STIMER    4210**DCL-ENT
M$STLPP    4193**DCL-ENT
M$STRAP    4210**DCL-ENT
M$STRMATTR    4182**DCL-ENT
M$STRMCTL    4180**DCL-ENT
M$STRMTAB    4183**DCL-ENT
M$SYMBIO    4221**DCL-ENT
PL6.E3A0      #001=DUL$INIT File=DUL$INIT.:E05TSI                                TUE 07/29/97 14:55 Page:34
M$SYSCON    4207**DCL-ENT
M$SYSID    4225**DCL-ENT
M$TDCLOSE    4206**DCL-ENT
M$TDIO    4206**DCL-ENT
M$TDOPEN    4205**DCL-ENT
M$TDREQCPU    4206**DCL-ENT
M$TEMPWROC    4200**DCL-ENT
M$TIME    4223**DCL-ENT
M$TRAP    4210**DCL-ENT
M$TRMISC    4185**DCL-ENT
M$TRMPRG    4181**DCL-ENT
M$TRTN    4214**DCL-ENT
M$TRUNC    4157**DCL-ENT
M$TTIMER    4210**DCL-ENT
M$UC    4180**DCL
M$UMPL    4197**DCL-ENT
M$UNFID    4219**DCL-ENT
M$UNLATCH    4176**DCL-ENT
M$UNSHARE    4173**DCL-ENT
M$USRFIELD    4216**DCL-ENT
M$VIRTUAL    4191**DCL-ENT
M$WAIT    4214**DCL-ENT
M$WEOF    4159**DCL-ENT
M$WRITE    4157**DCL-ENT
M$WRSYSLOG    4205**DCL-ENT
M$XCON    4211**DCL-ENT
M$XCONRTN    4172**DCL-ENT
M$XEQTIME    4224**DCL-ENT
M$XFLUSH    4165**DCL-ENT
M$XMOUSE    4202**DCL-ENT
M$XXX    4168**DCL-ENT
M$YC    4170**DCL-ENT
