VERSION E05

PL6.E3A0      #001=DDQ$READLM File=DUQ$READLM.:E05TSI                            TUE 07/29/97 14:57 Page:1
        1        1        /*M* DUQ$READLM Access records from Run Unit for User Delta. */
        2        2        /*T***********************************************************/
        3        3        /*T*                                                         */
        4        4        /*T* Copyright (c) Bull HN Information Systems Inc., 1997    */
        5        5        /*T*                                                         */
        6        6        /*T***********************************************************/
        7        7        /*X* DMR,PLM=5,IND=5,CSU=3,EXM=0,ECU=3,MOC,DCI=5,CRT=5 */
        8        8        %SET LISTSUB='1'B;
        9        9        /*F* NAME: DUQ$READLM
       10       10             PURPOSE: To read the specified record from the Run Unit using
       11       11                      S_D.LMDCB dcb.
       12       12             DESCRIPTION: Reads the specified record into the specified buffer.
       13       13                          The appropriate key is built from the specified record
       14       14                          type, page number, name pointer, and node. The actual
       15       15                          record size read into the buffer is returned. ALTRETURNs
       16       16                          if the specified record doesn't exist, else RETURNS. */
       17       17        /*D* NAME: DUQ$READLM
       18       18             ENTRY: DDQ$READLM
       19       19         CALL: CALL DDQ$READLM( TYPE, PAGE, NODE, BUF$, BUFSIZE, ARS, NP ) ALTRET( no-record
                19         );
       20       20             INTERFACE: M$READ
       21       21                        DUE$ERRMSG
       22       22             ENVIRONMENT: User Delta.
       23       23             INPUT: TYPE - Record type.
       24       24                    PAGE - Record page number.
       25       25                    NODE - Record node number.
       26       26                    BUF$ - Pointer to record buffer.
       27       27                    BUFSIZE - Size of record buffer.
       28       28                    ARS - Negative if lost data condition is not an error.
       29       29                    NP - Primary Entdef name pointer.
       30       30             OUTPUT: ARS - Number of bytes of record read into buffer.
       31       31                     ARS - Will be negative if input ARS was negative & lost data
       32       32                           condition was encountered.
       33       33             SCRATCH - Local AUTO only.
       34       34             DESCRIPTION: Reads the specified record into the specified buffer.
       35       35                          The appropriate key is built from the specified record
       36       36                          type, page number, name pointer, and node. The actual
PL6.E3A0      #001=DDQ$READLM File=DUQ$READLM.:E05TSI                            TUE 07/29/97 14:57 Page:2
       37       37                          record size read into the buffer is returned. ALTRETURNs
       38       38                          if the specified record doesn't exist, else RETURNS. */
       39       39                                                /**/
       40       40        DDQ$READLM: PROC( TYPE, PAGE, NODE, BUF$, BUFSIZE, ARS, NP ) ALTRET;
       41       41                                                /**/
       42       42        %INCLUDE CP_6;
       43      123    1   DCL B$JIT$ PTR SYMREF;
       44      124        %INCLUDE B$JIT;
       45      414        %INCLUDE F_ERRORS_C;
       46      654        %INCLUDE B$OBJECT_C;
       47     4084        %B$RECORDSUBS;
       48     4112        %INCLUDE DD_ERR_C;
       49     4509                                                /**/
       50     4510    1   DCL TYPE UBIN;
       51     4511    1   DCL PAGE UBIN;
       52     4512    1   DCL NODE UBIN;
       53     4513    1   DCL BUF$ PTR;
       54     4514    1   DCL BUFSIZE UBIN;
       55     4515    1   DCL ARS SBIN;
       56     4516    1   DCL NP UBIN;
       57     4517    1   DCL AGAIN BIT(1) ALIGNED;
       58     4518    1   DCL 1 WHOBUF,
       59     4519    1         2 X CHAR(12),
       60     4520    1         2 ACCT CHAR(8),
       61     4521    1         2 Y CHAR(1),
       62     4522    1         2 NAME CHAR(12);
       63     4523    1   DCL M$LM$ PTR;
       64     4524    1   DCL ERRCODE UBIN;
       65     4525        %B$RUKEY (NAME=BRUKEY,
       66     4526                  STCLASS=,
       67     4527                  KEYSIZINIT=,
       68     4528                  TYPEINIT=);
       69     4568        %B$FEP_RUKEY (NAME=BFEPRUKEY,
       70     4569                  STCLASS=,
       71     4570                  KEYL=,
       72     4571                  TYP=);
       73     4595        %B$DBGKEY (NAME=BDBGKEY,
PL6.E3A0      #001=DDQ$READLM File=DUQ$READLM.:E05TSI                            TUE 07/29/97 14:57 Page:3
       74     4596                   STCLASS=,
       75     4597                   KEYSIZINIT=,
       76     4598                   NOTHDINIT=,
       77     4599                   TYPEINIT=);
       78     4626        %B$RUMKEY (NAME=BRUMKEY,
       79     4627                   STCLASS=,
       80     4628                   KEYSIZINIT=,
       81     4629                   NOTHDINIT=,
       82     4630                   TYPEINIT=,
       83     4631                   UTSINIT=,
       84     4632                   SEQINIT=,
       85     4633                   NODEINIT=);
       86     4649        %FPT_READ (FPTN=FPTREADLM,
       87     4650                   STCLASS=);
       88     4689        %FPT_WRITE (FPTN=FPTWRITELM,
       89     4690                   STCLASS=);
       90     4721    1   DCL BUFF$ER CHAR( BUFSIZE ) BASED( BUF$ );
       91     4722        %B$ALT;
       92     4730        %B$TCB;
       93     4733        %F$DCB;
       94     4790        %B$RUHEADKEY (NAME=B_RUHEADKEY,
       95     4791                      STCLASS=CONSTANT);
       96     4798        %B$RUHEADKEY (NAME=B_BIRTHKEY,
       97     4799                      STCLASS=CONSTANT,
       98     4800                      KEYSIZINIT="INIT(5)",
       99     4801                      TEXTINIT="INIT('BIRTH')");
      100     4808        %B$RUKEY (NAME=B_RUKEY,
      101     4809                  STCLASS=CONSTANT);
      102     4849        %B$FEP_RUKEY (NAME=B_FEPRUKEY,
      103     4850                  STCLASS=CONSTANT);
      104     4874        %B$DBGKEY (NAME=B_DBGKEY,
      105     4875                   STCLASS=CONSTANT);
      106     4902        %B$RUMKEY (NAME=B_RUMKEY,
      107     4903                   STCLASS=CONSTANT);
      108     4919        %FPT_READ (FPTN=FPT_READLM,
      109     4920                   STCLASS=CONSTANT,
      110     4921                   KEYS=YES,
PL6.E3A0      #001=DDQ$READLM File=DUQ$READLM.:E05TSI                            TUE 07/29/97 14:57 Page:4
      111     4922                   KEYR=NO);
      112     4961        %FPT_WRITE (FPTN=FPT_WRITELM,
      113     4962                    STCLASS=CONSTANT,
      114     4963                    NEWKEY=NO,
      115     4964                    ONEWKEY=NO);
      116     4995    1   DCL B$TCB$ PTR SYMREF;
      117     4996        %INCLUDE XUH_MACRO_C;
      118     5080        %INCLUDE DD_SD_M;
      119     6416        %S_D;
      120     7734    1   DCL DDE$ERROR ENTRY(0);
      121     7735    1   DCL DUE$ERRMSG ENTRY(0);
      122     7736                                                /**/
      123     7737    1        M$LM$ = DCBADDR( S_D.LMDCB );
      124     7738    1        FPTREADLM = FPT_READLM;
      125     7739    1        FPTREADLM.V_ = VECTOR( FPTREADLM.V );
      126     7740    1        FPTREADLM.V.DCB# = S_D.LMDCB;
      127     7741    1        FPTREADLM.BUF_ = VECTOR( BUFF$ER );
      128     7742        /* Build key */
      129     7743    2        DO CASE( TYPE );
      130     7744    2          CASE( %TYPHEAD );                /* Head */
      131     7745    2             FPTREADLM.KEY_ = VECTOR( B_RUHEADKEY );
      132     7746    2          CASE( %TYPBIRTH );               /* Birth */
      133     7747    2             FPTREADLM.KEY_ = VECTOR( B_BIRTHKEY );
      134     7748    2          CASE( %TYPDNAM, %TYPEDEF, %TYPSDEF, %TYPPROG, %TYPROS );
              7748                   /* Defnames, Entdefs, Symdefs, Program, Ros */
      135     7749    3             DO CASE (S_D.ONE_TO_TWO.EXEC_DOMAIN);
      136     7750    3               CASE(%HOST);
      137     7751    3                  BRUKEY = B_RUKEY;
      138     7752    3                  BRUKEY.TYPE = TYPE;
      139     7753    3                  BRUKEY.NODE = NODE;
      140     7754    3                  BRUKEY.PAGE = PAGE;
      141     7755    3                  FPTREADLM.KEY_ = VECTOR( BRUKEY );
      142     7756    3               CASE(%L6);
      143     7757    3                  BFEPRUKEY = B_FEPRUKEY;
      144     7758    3                  BFEPRUKEY.TYPE = TYPE;
      145     7759    3                  BFEPRUKEY.NODE = NODE;
      146     7760    3                  BFEPRUKEY.PAGE = PAGE;
PL6.E3A0      #001=DDQ$READLM File=DUQ$READLM.:E05TSI                            TUE 07/29/97 14:57 Page:5
      147     7761    3                  FPTREADLM.KEY_ = VECTOR( BFEPRUKEY );
      148     7762    3               CASE(ELSE);
      149     7763    3                  S_D.ERROR = 502;    /* E@DELBUG */
      150     7764    3                  ALTRETURN;
      151     7765    3               END;
      152     7766    2          CASE( %TYPLOGBLK, %TYPINTNTRY, %TYPEXST, %TYPVREBL, %TYPDBGNAM ); /* Debug */
      153     7767    2             BDBGKEY = B_DBGKEY;
      154     7768    2             BDBGKEY.NODE = NODE;
      155     7769    2             BDBGKEY.NPOINTER = NP;
      156     7770    2             BDBGKEY.TYPE = TYPE;
      157     7771    2             BDBGKEY.PAGE = PAGE;
      158     7772    2             FPTREADLM.KEY_ = VECTOR( BDBGKEY );
      159     7773    2          CASE( ELSE );
      160     7774    2             S_D.ERROR = 502;         /* E@DELBUG */
      161     7775    2             CALL DDE$ERROR;
      162     7776    2             ALTRETURN;
      163     7777    2          END;                             /* "DO CASE( TYPE )" */
      164     7778        /* Read record */
      165     7779    1        CALL M$READ( FPTREADLM ) ALTRET( ARET );
      166     7780    1        ARS = M$LM$ -> F$DCB.ARS#;
      167     7781                                                /**/
      168     7782    1        RETURN;
      169     7783                                                /**/
      170     7784    1   ARET:
      171     7785    1        ERRCODE = B$TCB$ -> B$TCB.ALT$ -> B$ALT.ERR.CODE;
      172     7786    1        IF ( ERRCODE = %E$LD ) AND ( ARS < 0 )
      173     7787    2        THEN DO;
      174     7788    2             ARS = -1 * M$LM$ -> F$DCB.ARS#;
      175     7789    2             RETURN;
      176     7790    2           END;
      177     7791    1        IF ( ERRCODE ~= %E$LD ) AND ( ERRCODE ~= %E$NOKEY )
      178     7792    1        THEN
      179     7793    1   ARETW:    CALL DUE$ERRMSG;
      180     7794    1        ALTRETURN;
      181     7795                                                /**/
      182     7796        %EJECT;
PL6.E3A0      #001=DDQ$READLM File=DUQ$READLM.:E05TSI                            TUE 07/29/97 14:57 Page:6
      183     7797        /*F* NAME: DDQ$WRITELM
      184     7798             PURPOSE: To write the specified record into the Run Unit using
      185     7799                      S_D.LMDCB dcb.
      186     7800             DESCRIPTION: Writes the specified record from the specified buffer.
      187     7801                          The appropriate key is built from the specified record
      188     7802                          type, page number, and node. ALTRETURNs if any error
      189     7803                          condition was encountered, else RETURNs. */
      190     7804        /*D* NAME: DUQ$WRITELM
      191     7805             ENTRY: DDQ$WRITELM
      192     7806             CALL: CALL DDQ$WRITELM( TYPE, PAGE, NODE, BUF$, BUFSIZE ) ALTRET( error );
      193     7807             INTERFACE: M$WRITE
      194     7808                        DUE$ERRMSG
      195     7809             ENVIRONMENT: User Delta.
      196     7810             INPUT: TYPE - Record type.
      197     7811                    PAGE - Record page number.
      198     7812                    NODE - Record node number.
      199     7813                    BUF$ - Pointer to record buffer.
      200     7814                    BUFSIZE - Size of record buffer.
      201     7815             OUTPUT: None.
      202     7816             SCRATCH - Local AUTO only.
      203     7817             DESCRIPTION: Writes the specified record from the specified buffer.
      204     7818                          The appropriate key is built from the specified record
      205     7819                          type, page number, and node. ALTRETURNs if any error
      206     7820                          condition was encountered, else RETURNs. */
      207     7821                                                /**/
      208     7822    1   DDQ$WRITELM: ENTRY( TYPE, PAGE, NODE, BUF$, BUFSIZE ) ALTRET;
      209     7823                                                /**/
      210     7824    1        FPTWRITELM = FPT_WRITELM;
      211     7825    1        FPTWRITELM.V_ = VECTOR( FPTWRITELM.V );
      212     7826    1        FPTWRITELM.V.DCB# = S_D.LMDCB;
      213     7827    1        FPTWRITELM.BUF_ = VECTOR( BUFF$ER );
      214     7828    1        AGAIN = '0'B;
      215     7829        /* Build key */
      216     7830    2        DO CASE( TYPE );
      217     7831    2          CASE( %TYPHEAD );                /* Head */
      218     7832    2             FPTWRITELM.KEY_ = VECTOR( B_RUHEADKEY );
      219     7833    2          CASE( %TYPBIRTH );               /* Birth */
PL6.E3A0      #001=DDQ$READLM File=DUQ$READLM.:E05TSI                            TUE 07/29/97 14:57 Page:7
      220     7834    2             FPTWRITELM.KEY_ = VECTOR( B_BIRTHKEY );
      221     7835    2          CASE( %TYPPROG, %TYPROS );       /* Program, Ros */
      222     7836    3             DO CASE(S_D.ONE_TO_TWO.EXEC_DOMAIN);
      223     7837    3               CASE(%HOST);
      224     7838    3                  BRUKEY = B_RUKEY;
      225     7839    3                  BRUKEY.TYPE = TYPE;
      226     7840    3                  BRUKEY.NODE = NODE;
      227     7841    3                  BRUKEY.PAGE = PAGE;
      228     7842    3                  FPTWRITELM.KEY_ = VECTOR( BRUKEY );
      229     7843    3               CASE(%L6);
      230     7844    3                  BFEPRUKEY = B_FEPRUKEY;
      231     7845    3                  BFEPRUKEY.TYPE = TYPE;
      232     7846    3                  BFEPRUKEY.NODE = NODE;
      233     7847    3                  BFEPRUKEY.PAGE = PAGE;
      234     7848    3                  FPTWRITELM.KEY_ = VECTOR( BFEPRUKEY );
      235     7849    3               CASE(ELSE);
      236     7850    3                  S_D.ERROR = 502;    /* E@DELBUG */
      237     7851    3                  ALTRETURN;
      238     7852    3               END;
      239     7853    2          CASE( %TYPRUM );                 /* Rum */
      240     7854    2             BRUMKEY = B_RUMKEY;
      241     7855    2             BRUMKEY.UTS = S_D.RUMUTS;
      242     7856    2   AGAIN_:   S_D.RUMSEQ = S_D.RUMSEQ + 1;
      243     7857    2             BRUMKEY.SEQ = S_D.RUMSEQ;
      244     7858    2             BRUMKEY.NODE = NODE;
      245     7859    2             FPTWRITELM.KEY_ = VECTOR( BRUMKEY );
      246     7860    2             FPTWRITELM.V.NEWKEY# = '1'B;
      247     7861    3             IF BRUMKEY.SEQ = 1 THEN DO;
      248     7862    3                  AGAIN = '1'B;
      249     7863    3                  FPTWRITELM.BUF_ = VECTOR(WHOBUF);
      250     7864    3                  WHOBUF.X = '" RUMmed by ';
      251     7865    3                  WHOBUF.Y = ',';
      252     7866    3                  WHOBUF.ACCT = B$JIT.ACCN;
      253     7867    3                  WHOBUF.NAME = B$JIT.UNAME;
      254     7868    3                END;
      255     7869    2          CASE( ELSE );
      256     7870    2             S_D.ERROR = 502;         /* E@DELBUG */
PL6.E3A0      #001=DDQ$READLM File=DUQ$READLM.:E05TSI                            TUE 07/29/97 14:57 Page:8
      257     7871    2             CALL DDE$ERROR;
      258     7872    2             ALTRETURN;
      259     7873    2          END;                             /* "DO CASE( TYPE )" */
      260     7874        /* Write record */
      261     7875    1        CALL M$WRITE( FPTWRITELM ) ALTRET( ARETW );
      262     7876    2        IF AGAIN THEN DO;
      263     7877    2             AGAIN = '0'B;
      264     7878    2             FPTWRITELM.BUF_ = VECTOR(BUFF$ER);
      265     7879    2             GOTO AGAIN_;
      266     7880    2           END;
      267     7881                                                /**/
      268     7882    1        RETURN;
      269     7883                                                /**/
      270     7884    1   END DDQ$READLM;

PL6.E3A0      #001=DDQ$READLM File=DUQ$READLM.:E05TSI                            TUE 07/29/97 14:57 Page:9
--  Include file information  --

   DD_SD_M.:E05TOU  is referenced.
   XUH_MACRO_C.:E05TOU  is referenced.
   DD_ERR_C.:E05TOU  is referenced.
   B$OBJECT_C.:E05TOU  is referenced.
   F_ERRORS_C.:E05TOU  is referenced.
   B$JIT.:E05TOU  cannot be made into a system file and is referenced.
   CP_6.:E05TOU  cannot be made into a system file and is referenced.
   B$JIT_C.:E05TOU  was found in the system file and is referenced.
   CP_6_C.:E05TOU  was found in the system file and is referenced.
      No diagnostics issued in procedure DDQ$READLM.

   Procedure DDQ$READLM requires 369 words for executable code.
   Procedure DDQ$READLM requires 60 words of local(AUTO) storage.

    No errors detected in file DUQ$READLM.:E05TSI    .

PL6.E3A0      #001=DDQ$READLM File=DUQ$READLM.:E05TSI                            TUE 07/29/97 14:57 Page:10

 Object Unit name= DDQ$READLM                                 File name= DUQ$READLM.:E05TOU
 UTS= JUL 29 '97 14:57:42.32 TUE                              Compiler= PL-6/E31         Sev=      00
 SharedLib= :SHARED_SYSTEM                                    Alt SharedLib=


    ****  Control sections  ****

 Sect   Type Bound  Init  Size OctSiz  Section name(segment info)
    0   DCB   even  none     0      0  M$UC
    1  RoData even  UTS     43     53  DDQ$READLM
    2   Proc  even  none   369    561  DDQ$READLM
    3  RoData even  none     9     11  DDQ$READLM

    ****  Entry defs  ****

                              Check   Calling
                             calling  sequence
  Sect OctLoc Primary Altret sequence   type   Parms  Name
     2      0   yes    yes     yes      Std        7  DDQ$READLM
     2    262          yes     yes      Std        5  DDQ$WRITELM

  ****  Entry refs  ****

         Check        Calling
        calling       sequence
Altret sequence SRef   type   Args  Name
         yes           Std       0 DDE$ERROR
         yes           Std       0 DUE$ERRMSG
                       nStd      0 X66_AUTO_N
                       nStd      0 X66_AALT
                       Std       0 B_CONSPOOL_D
                       nStd      0 X66_ARET
PL6.E3A0      #001=DDQ$READLM File=DUQ$READLM.:E05TSI                            TUE 07/29/97 14:57 Page:11

  ****  Data refs  ****

  Flags:  r = read only, s = secondary
Flgs Name                             Flgs Name                             Flgs Name
     M$UC                                  B$JIT$                                B$TCB$
r    S_D$                                  B_VECTNIL

  ****  Segment refs  ****

  Flags:  r = read only, s = secondary
Flgs Name                             Flgs Name                             Flgs Name
     ISSID                                 NULLSID                               ROSID
PL6.E3A0      #001=DDQ$READLM File=DUQ$READLM.:E05TSI                            TUE 07/29/97 14:57 Page:12


        1        1        /*M* DUQ$READLM Access records from Run Unit for User Delta. */
        2        2        /*T***********************************************************/
        3        3        /*T*                                                         */
        4        4        /*T* Copyright (c) Bull HN Information Systems Inc., 1997    */
        5        5        /*T*                                                         */
        6        6        /*T***********************************************************/
        7        7        /*X* DMR,PLM=5,IND=5,CSU=3,EXM=0,ECU=3,MOC,DCI=5,CRT=5 */
        8        8        %SET LISTSUB='1'B;
        9        9        /*F* NAME: DUQ$READLM
       10       10             PURPOSE: To read the specified record from the Run Unit using
       11       11                      S_D.LMDCB dcb.
       12       12             DESCRIPTION: Reads the specified record into the specified buffer.
       13       13                          The appropriate key is built from the specified record
       14       14                          type, page number, name pointer, and node. The actual
       15       15                          record size read into the buffer is returned. ALTRETURNs
       16       16                          if the specified record doesn't exist, else RETURNS. */
       17       17        /*D* NAME: DUQ$READLM
       18       18             ENTRY: DDQ$READLM
       19       19        CALL: CALL DDQ$READLM( TYPE, PAGE, NODE, BUF$, BUFSIZE, ARS, NP ) ALTRET( no-record
                19         );
       20       20             INTERFACE: M$READ
       21       21                        DUE$ERRMSG
       22       22             ENVIRONMENT: User Delta.
       23       23             INPUT: TYPE - Record type.
       24       24                    PAGE - Record page number.
       25       25                    NODE - Record node number.
       26       26                    BUF$ - Pointer to record buffer.
       27       27                    BUFSIZE - Size of record buffer.
       28       28                    ARS - Negative if lost data condition is not an error.
       29       29                    NP - Primary Entdef name pointer.
       30       30             OUTPUT: ARS - Number of bytes of record read into buffer.
       31       31                     ARS - Will be negative if input ARS was negative & lost data
       32       32                           condition was encountered.
       33       33             SCRATCH - Local AUTO only.
       34       34             DESCRIPTION: Reads the specified record into the specified buffer.
       35       35                          The appropriate key is built from the specified record
PL6.E3A0      #001=DDQ$READLM File=DUQ$READLM.:E05TSI                            TUE 07/29/97 14:57 Page:13
       36       36                          type, page number, name pointer, and node. The actual
       37       37                          record size read into the buffer is returned. ALTRETURNs
       38       38                          if the specified record doesn't exist, else RETURNS. */
       39       39                                                /**/
       40       40        DDQ$READLM: PROC( TYPE, PAGE, NODE, BUF$, BUFSIZE, ARS, NP ) ALTRET;

     40  2 000000   000000 700200 xent  DDQ$READLM   TSX0  ! X66_AUTO_N
         2 000001   000074 000007                    ZERO    60,7

       41       41                                                /**/
       42       42        %INCLUDE CP_6;
       43      123    1   DCL B$JIT$ PTR SYMREF;
       44      124        %INCLUDE B$JIT;
       45      414        %INCLUDE F_ERRORS_C;
       46      654        %INCLUDE B$OBJECT_C;
       47     4084        %B$RECORDSUBS;
       48     4112        %INCLUDE DD_ERR_C;
       49     4509                                                /**/
       50     4510    1   DCL TYPE UBIN;
       51     4511    1   DCL PAGE UBIN;
       52     4512    1   DCL NODE UBIN;
       53     4513    1   DCL BUF$ PTR;
       54     4514    1   DCL BUFSIZE UBIN;
       55     4515    1   DCL ARS SBIN;
       56     4516    1   DCL NP UBIN;
       57     4517    1   DCL AGAIN BIT(1) ALIGNED;
       58     4518    1   DCL 1 WHOBUF,
       59     4519    1         2 X CHAR(12),
       60     4520    1         2 ACCT CHAR(8),
       61     4521    1         2 Y CHAR(1),
       62     4522    1         2 NAME CHAR(12);
       63     4523    1   DCL M$LM$ PTR;
       64     4524    1   DCL ERRCODE UBIN;
       65     4525        %B$RUKEY (NAME=BRUKEY,
       66     4526                  STCLASS=,
       67     4527                  KEYSIZINIT=,
       68     4528                  TYPEINIT=);
PL6.E3A0      #001=DDQ$READLM File=DUQ$READLM.:E05TSI                            TUE 07/29/97 14:57 Page:14
       69     4568        %B$FEP_RUKEY (NAME=BFEPRUKEY,
       70     4569                  STCLASS=,
       71     4570                  KEYL=,
       72     4571                  TYP=);
       73     4595        %B$DBGKEY (NAME=BDBGKEY,
       74     4596                   STCLASS=,
       75     4597                   KEYSIZINIT=,
       76     4598                   NOTHDINIT=,
       77     4599                   TYPEINIT=);
       78     4626        %B$RUMKEY (NAME=BRUMKEY,
       79     4627                   STCLASS=,
       80     4628                   KEYSIZINIT=,
       81     4629                   NOTHDINIT=,
       82     4630                   TYPEINIT=,
       83     4631                   UTSINIT=,
       84     4632                   SEQINIT=,
       85     4633                   NODEINIT=);
       86     4649        %FPT_READ (FPTN=FPTREADLM,
       87     4650                   STCLASS=);
       88     4689        %FPT_WRITE (FPTN=FPTWRITELM,
       89     4690                   STCLASS=);
       90     4721    1   DCL BUFF$ER CHAR( BUFSIZE ) BASED( BUF$ );
       91     4722        %B$ALT;
       92     4730        %B$TCB;
       93     4733        %F$DCB;
       94     4790        %B$RUHEADKEY (NAME=B_RUHEADKEY,
       95     4791                      STCLASS=CONSTANT);
       96     4798        %B$RUHEADKEY (NAME=B_BIRTHKEY,
       97     4799                      STCLASS=CONSTANT,
       98     4800                      KEYSIZINIT="INIT(5)",
       99     4801                      TEXTINIT="INIT('BIRTH')");
      100     4808        %B$RUKEY (NAME=B_RUKEY,
      101     4809                  STCLASS=CONSTANT);
      102     4849        %B$FEP_RUKEY (NAME=B_FEPRUKEY,
      103     4850                  STCLASS=CONSTANT);
      104     4874        %B$DBGKEY (NAME=B_DBGKEY,
      105     4875                   STCLASS=CONSTANT);
PL6.E3A0      #001=DDQ$READLM File=DUQ$READLM.:E05TSI                            TUE 07/29/97 14:57 Page:15
      106     4902        %B$RUMKEY (NAME=B_RUMKEY,
      107     4903                   STCLASS=CONSTANT);
      108     4919        %FPT_READ (FPTN=FPT_READLM,
      109     4920                   STCLASS=CONSTANT,
      110     4921                   KEYS=YES,
      111     4922                   KEYR=NO);
      112     4961        %FPT_WRITE (FPTN=FPT_WRITELM,
      113     4962                    STCLASS=CONSTANT,
      114     4963                    NEWKEY=NO,
      115     4964                    ONEWKEY=NO);
      116     4995    1   DCL B$TCB$ PTR SYMREF;
      117     4996        %INCLUDE XUH_MACRO_C;
      118     5080        %INCLUDE DD_SD_M;
      119     6416        %S_D;
      120     7734    1   DCL DDE$ERROR ENTRY(0);
      121     7735    1   DCL DUE$ERRMSG ENTRY(0);
      122     7736                                                /**/
      123     7737    1        M$LM$ = DCBADDR( S_D.LMDCB );

   7737  2 000002   000000 470400 3                  LDP0    0
         2 000003   000000 471500                    LDP1    0,,PR0
         2 000004   000000 473400 xsym               LDP3    S_D$
         2 000005   304774 720100                    LXL0    2556,,PR3
         2 000006   100000 236110                    LDQ     0,X0,PR1
         2 000007   200024 756100                    STQ     M$LM$,,AUTO

      124     7738    1        FPTREADLM = FPT_READLM;

   7738  2 000010   000100 100400                    MLR     fill='000'O
         2 000011   000016 000070 1                  ADSC9   FPT_READLM               cn=0,n=56
         2 000012   200040 000070                    ADSC9   FPTREADLM,,AUTO          cn=0,n=56

      125     7739    1        FPTREADLM.V_ = VECTOR( FPTREADLM.V );

   7739  2 000013   000001 235000 3                  LDA     1
         2 000014   200072 452500                    STP2    FPTWRITELM+12,,AUTO
         2 000015   200072 236100                    LDQ     FPTWRITELM+12,,AUTO
PL6.E3A0      #001=DDQ$READLM File=DUQ$READLM.:E05TSI                            TUE 07/29/97 14:57 Page:16
         2 000016   000050 036003                    ADLQ    40,DU
         2 000017   200040 757100                    STAQ    FPTREADLM,,AUTO

      126     7740    1        FPTREADLM.V.DCB# = S_D.LMDCB;

   7740  2 000020   200050 740100                    STX0    FPTREADLM+8,,AUTO

      127     7741    1        FPTREADLM.BUF_ = VECTOR( BUFF$ER );

   7741  2 000021   200006 474500                    LDP4    @BUF$,,AUTO
         2 000022   400000 475500                    LDP5    0,,PR4
         2 000023   200007 476500                    LDP6    @BUFSIZE,,AUTO
         2 000024   600000 721100                    LXL1    0,,PR6
         2 000025   000000 635011                    EAA     0,X1
         2 000026   000002 771000                    ARL     2
         2 000027   000140 135007                    SBLA    96,DL
         2 000030   200072 455500                    STP5    FPTWRITELM+12,,AUTO
         2 000031   200072 236100                    LDQ     FPTWRITELM+12,,AUTO
         2 000032   200044 757100                    STAQ    FPTREADLM+4,,AUTO

      128     7742        /* Build key */
      129     7743    2        DO CASE( TYPE );

   7743  2 000033   200003 475500                    LDP5    @TYPE,,AUTO
         2 000034   500000 235100                    LDA     0,,PR5
         2 000035   000037 115007                    CMPA    31,DL
         2 000036   000040 602005 2                  TNC     s:7743+5,AL
         2 000037   000213 710000 2                  TRA     s:7774
         2 000040   000077 710000 2                  TRA     s:7745
         2 000041   000105 710000 2                  TRA     s:7749
         2 000042   000213 710000 2                  TRA     s:7774
         2 000043   000213 710000 2                  TRA     s:7774
         2 000044   000105 710000 2                  TRA     s:7749
         2 000045   000213 710000 2                  TRA     s:7774
         2 000046   000105 710000 2                  TRA     s:7749
         2 000047   000213 710000 2                  TRA     s:7774
         2 000050   000213 710000 2                  TRA     s:7774
PL6.E3A0      #001=DDQ$READLM File=DUQ$READLM.:E05TSI                            TUE 07/29/97 14:57 Page:17
         2 000051   000213 710000 2                  TRA     s:7774
         2 000052   000105 710000 2                  TRA     s:7749
         2 000053   000167 710000 2                  TRA     s:7767
         2 000054   000167 710000 2                  TRA     s:7767
         2 000055   000167 710000 2                  TRA     s:7767
         2 000056   000167 710000 2                  TRA     s:7767
         2 000057   000167 710000 2                  TRA     s:7767
         2 000060   000213 710000 2                  TRA     s:7774
         2 000061   000213 710000 2                  TRA     s:7774
         2 000062   000213 710000 2                  TRA     s:7774
         2 000063   000213 710000 2                  TRA     s:7774
         2 000064   000213 710000 2                  TRA     s:7774
         2 000065   000102 710000 2                  TRA     s:7747
         2 000066   000213 710000 2                  TRA     s:7774
         2 000067   000213 710000 2                  TRA     s:7774
         2 000070   000213 710000 2                  TRA     s:7774
         2 000071   000213 710000 2                  TRA     s:7774
         2 000072   000213 710000 2                  TRA     s:7774
         2 000073   000213 710000 2                  TRA     s:7774
         2 000074   000213 710000 2                  TRA     s:7774
         2 000075   000213 710000 2                  TRA     s:7774
         2 000076   000105 710000 2                  TRA     s:7749

      130     7744    2          CASE( %TYPHEAD );                /* Head */

      131     7745    2             FPTREADLM.KEY_ = VECTOR( B_RUHEADKEY );

   7745  2 000077   000002 237000 3                  LDAQ    2
         2 000100   200042 757100                    STAQ    FPTREADLM+2,,AUTO
         2 000101   000221 710000 2                  TRA     s:7779

      132     7746    2          CASE( %TYPBIRTH );               /* Birth */

      133     7747    2             FPTREADLM.KEY_ = VECTOR( B_BIRTHKEY );

   7747  2 000102   000004 237000 3                  LDAQ    4
         2 000103   200042 757100                    STAQ    FPTREADLM+2,,AUTO
PL6.E3A0      #001=DDQ$READLM File=DUQ$READLM.:E05TSI                            TUE 07/29/97 14:57 Page:18
         2 000104   000221 710000 2                  TRA     s:7779

      134     7748    2          CASE( %TYPDNAM, %TYPEDEF, %TYPSDEF, %TYPPROG, %TYPROS );
              7748                   /* Defnames, Entdefs, Symdefs, Program, Ros */

      135     7749    3             DO CASE (S_D.ONE_TO_TWO.EXEC_DOMAIN);

   7749  2 000105   306714 235100                    LDA     3532,,PR3
         2 000106   000003 115007                    CMPA    3,DL
         2 000107   000111 602005 2                  TNC     s:7749+4,AL
         2 000110   000164 710000 2                  TRA     s:7763
         2 000111   000164 710000 2                  TRA     s:7763
         2 000112   000114 710000 2                  TRA     s:7751
         2 000113   000136 710000 2                  TRA     s:7757

      136     7750    3               CASE(%HOST);

      137     7751    3                  BRUKEY = B_RUKEY;

   7751  2 000114   000100 100400                    MLR     fill='000'O
         2 000115   000004 000006 1                  ADSC9   B_RUKEY                  cn=0,n=6
         2 000116   200026 000006                    ADSC9   BRUKEY,,AUTO             cn=0,n=6

      138     7752    3                  BRUKEY.TYPE = TYPE;

   7752  2 000117   500000 236100                    LDQ     0,,PR5
         2 000120   000022 736000                    QLS     18
         2 000121   200026 552120                    STBQ    BRUKEY,'20'O,AUTO

      139     7753    3                  BRUKEY.NODE = NODE;

   7753  2 000122   200005 477500                    LDP7    @NODE,,AUTO
         2 000123   700000 721100                    LXL1    0,,PR7
         2 000124   200026 441100                    SXL1    BRUKEY,,AUTO

      140     7754    3                  BRUKEY.PAGE = PAGE;

PL6.E3A0      #001=DDQ$READLM File=DUQ$READLM.:E05TSI                            TUE 07/29/97 14:57 Page:19
   7754  2 000125   200004 470500                    LDP0    @PAGE,,AUTO
         2 000126   000000 722100                    LXL2    0,,PR0
         2 000127   200027 742100                    STX2    BRUKEY+1,,AUTO

      141     7755    3                  FPTREADLM.KEY_ = VECTOR( BRUKEY );

   7755  2 000130   000002 235000 3                  LDA     2
         2 000131   200072 452500                    STP2    FPTWRITELM+12,,AUTO
         2 000132   200072 236100                    LDQ     FPTWRITELM+12,,AUTO
         2 000133   000026 036003                    ADLQ    22,DU
         2 000134   200042 757100                    STAQ    FPTREADLM+2,,AUTO
         2 000135   000221 710000 2                  TRA     s:7779

      142     7756    3               CASE(%L6);

      143     7757    3                  BFEPRUKEY = B_FEPRUKEY;

   7757  2 000136   000100 100400                    MLR     fill='000'O
         2 000137   000006 000006 1                  ADSC9   B_FEPRUKEY               cn=0,n=6
         2 000140   200030 000006                    ADSC9   BFEPRUKEY,,AUTO          cn=0,n=6

      144     7758    3                  BFEPRUKEY.TYPE = TYPE;

   7758  2 000141   500000 236100                    LDQ     0,,PR5
         2 000142   000022 736000                    QLS     18
         2 000143   200030 552120                    STBQ    BFEPRUKEY,'20'O,AUTO

      145     7759    3                  BFEPRUKEY.NODE = NODE;

   7759  2 000144   200005 477500                    LDP7    @NODE,,AUTO
         2 000145   700000 236100                    LDQ     0,,PR7
         2 000146   000002 736000                    QLS     2
         2 000147   200030 676100                    ERQ     BFEPRUKEY,,AUTO
         2 000150   777774 376007                    ANQ     -4,DL
         2 000151   200030 656100                    ERSQ    BFEPRUKEY,,AUTO

      146     7760    3                  BFEPRUKEY.PAGE = PAGE;
PL6.E3A0      #001=DDQ$READLM File=DUQ$READLM.:E05TSI                            TUE 07/29/97 14:57 Page:20

   7760  2 000152   200004 470500                    LDP0    @PAGE,,AUTO
         2 000153   003100 061500                    CSR     bolr='003'O
         2 000154   000000 000044                    BDSC    0,,PR0                   by=0,bit=0,n=36
         2 000155   200030 670024                    BDSC    BFEPRUKEY,,AUTO          by=3,bit=7,n=20

      147     7761    3                  FPTREADLM.KEY_ = VECTOR( BFEPRUKEY );

   7761  2 000156   000002 235000 3                  LDA     2
         2 000157   200072 452500                    STP2    FPTWRITELM+12,,AUTO
         2 000160   200072 236100                    LDQ     FPTWRITELM+12,,AUTO
         2 000161   000030 036003                    ADLQ    24,DU
         2 000162   200042 757100                    STAQ    FPTREADLM+2,,AUTO
         2 000163   000221 710000 2                  TRA     s:7779

      148     7762    3               CASE(ELSE);

      149     7763    3                  S_D.ERROR = 502;    /* E@DELBUG */

   7763  2 000164   000766 235007                    LDA     502,DL
         2 000165   300013 755100                    STA     11,,PR3

      150     7764    3                  ALTRETURN;

   7764  2 000166   000000 702200 xent               TSX2  ! X66_AALT

      151     7765    3               END;

      152     7766    2         CASE( %TYPLOGBLK, %TYPINTNTRY, %TYPEXST, %TYPVREBL, %TYPDBGNAM ); /* Debug */

      153     7767    2             BDBGKEY = B_DBGKEY;

   7767  2 000167   000010 237000 1                  LDAQ    B_DBGKEY
         2 000170   200032 757100                    STAQ    BDBGKEY,,AUTO

      154     7768    2             BDBGKEY.NODE = NODE;

PL6.E3A0      #001=DDQ$READLM File=DUQ$READLM.:E05TSI                            TUE 07/29/97 14:57 Page:21
   7768  2 000171   200005 477500                    LDP7    @NODE,,AUTO
         2 000172   700000 721100                    LXL1    0,,PR7
         2 000173   200032 441100                    SXL1    BDBGKEY,,AUTO

      155     7769    2             BDBGKEY.NPOINTER = NP;

   7769  2 000174   200011 470500                    LDP0    @NP,,AUTO
         2 000175   000000 722100                    LXL2    0,,PR0
         2 000176   200033 742100                    STX2    BDBGKEY+1,,AUTO

      156     7770    2             BDBGKEY.TYPE = TYPE;

   7770  2 000177   500000 236100                    LDQ     0,,PR5
         2 000200   000011 736000                    QLS     9
         2 000201   200033 552110                    STBQ    BDBGKEY+1,'10'O,AUTO

      157     7771    2             BDBGKEY.PAGE = PAGE;

   7771  2 000202   200004 471500                    LDP1    @PAGE,,AUTO
         2 000203   100000 236100                    LDQ     0,,PR1
         2 000204   200033 552104                    STBQ    BDBGKEY+1,'04'O,AUTO

      158     7772    2             FPTREADLM.KEY_ = VECTOR( BDBGKEY );

   7772  2 000205   000002 235000 3                  LDA     2
         2 000206   200072 452500                    STP2    FPTWRITELM+12,,AUTO
         2 000207   200072 236100                    LDQ     FPTWRITELM+12,,AUTO
         2 000210   000032 036003                    ADLQ    26,DU
         2 000211   200042 757100                    STAQ    FPTREADLM+2,,AUTO
         2 000212   000221 710000 2                  TRA     s:7779

      159     7773    2          CASE( ELSE );

      160     7774    2             S_D.ERROR = 502;         /* E@DELBUG */

   7774  2 000213   000766 235007                    LDA     502,DL
         2 000214   300013 755100                    STA     11,,PR3
PL6.E3A0      #001=DDQ$READLM File=DUQ$READLM.:E05TSI                            TUE 07/29/97 14:57 Page:22

      161     7775    2             CALL DDE$ERROR;

   7775  2 000215   000002 631400 xsym               EPPR1   B_VECTNIL+2
         2 000216   000000 701000 xent               TSX1    DDE$ERROR
         2 000217   000000 011000                    NOP     0

      162     7776    2             ALTRETURN;

   7776  2 000220   000000 702200 xent               TSX2  ! X66_AALT

      163     7777    2          END;                             /* "DO CASE( TYPE )" */

      164     7778        /* Read record */
      165     7779    1        CALL M$READ( FPTREADLM ) ALTRET( ARET );

   7779  2 000221   200040 630500                    EPPR0   FPTREADLM,,AUTO
         2 000222   440000 713400                    CLIMB   alt,read
         2 000223   401400 401760                    pmme    nvectors=4
         2 000224   000232 702000 2                  TSX2    ARET

      166     7780    1        ARS = M$LM$ -> F$DCB.ARS#;

   7780  2 000225   200024 470500                    LDP0    M$LM$,,AUTO
         2 000226   200010 471500                    LDP1    @ARS,,AUTO
         2 000227   000000 235100                    LDA     0,,PR0
         2 000230   100000 755100                    STA     0,,PR1

      167     7781                                                /**/
      168     7782    1        RETURN;

   7782  2 000231   000000 702200 xent               TSX2  ! X66_ARET

      169     7783                                                /**/
      170     7784    1   ARET:
      171     7785    1        ERRCODE = B$TCB$ -> B$TCB.ALT$ -> B$ALT.ERR.CODE;

PL6.E3A0      #001=DDQ$READLM File=DUQ$READLM.:E05TSI                            TUE 07/29/97 14:57 Page:23
   7785  2 000232   000000 470400 xsym  ARET         LDP0    B$TCB$
         2 000233   000000 471500                    LDP1    0,,PR0
         2 000234   100102 236100                    LDQ     66,,PR1
         2 000235   000003 772000                    QRL     3
         2 000236   037777 376007                    ANQ     16383,DL
         2 000237   200025 756100                    STQ     ERRCODE,,AUTO

      172     7786    1        IF ( ERRCODE = %E$LD ) AND ( ARS < 0 )

   7786  2 000240   000007 116007                    CMPQ    7,DL
         2 000241   000252 601000 2                  TNZ     s:7791
         2 000242   200010 473500                    LDP3    @ARS,,AUTO
         2 000243   300000 235100                    LDA     0,,PR3
         2 000244   000252 605000 2                  TPL     s:7791

      173     7787    2        THEN DO;

      174     7788    2             ARS = -1 * M$LM$ -> F$DCB.ARS#;

   7788  2 000245   200024 474500                    LDP4    M$LM$,,AUTO
         2 000246   400000 235100                    LDA     0,,PR4
         2 000247   000000 531000                    NEG     0
         2 000250   300000 755100                    STA     0,,PR3

      175     7789    2             RETURN;

   7789  2 000251   000000 702200 xent               TSX2  ! X66_ARET

      176     7790    2           END;
      177     7791    1        IF ( ERRCODE ~= %E$LD ) AND ( ERRCODE ~= %E$NOKEY )

   7791  2 000252   000007 116007                    CMPQ    7,DL
         2 000253   000261 600000 2                  TZE     s:7794
         2 000254   000102 116007                    CMPQ    66,DL
         2 000255   000261 600000 2                  TZE     s:7794

      178     7792    1        THEN
PL6.E3A0      #001=DDQ$READLM File=DUQ$READLM.:E05TSI                            TUE 07/29/97 14:57 Page:24
      179     7793    1   ARETW:    CALL DUE$ERRMSG;

   7793  2 000256   000002 631400 xsym  ARETW        EPPR1   B_VECTNIL+2
         2 000257   000000 701000 xent               TSX1    DUE$ERRMSG
         2 000260   000000 011000                    NOP     0

      180     7794    1        ALTRETURN;

   7794  2 000261   000000 702200 xent               TSX2  ! X66_AALT

      181     7795                                                /**/
      182     7796        %EJECT;
PL6.E3A0      #001=DDQ$READLM File=DUQ$READLM.:E05TSI                            TUE 07/29/97 14:57 Page:25
      183     7797        /*F* NAME: DDQ$WRITELM
      184     7798             PURPOSE: To write the specified record into the Run Unit using
      185     7799                      S_D.LMDCB dcb.
      186     7800             DESCRIPTION: Writes the specified record from the specified buffer.
      187     7801                          The appropriate key is built from the specified record
      188     7802                          type, page number, and node. ALTRETURNs if any error
      189     7803                          condition was encountered, else RETURNs. */
      190     7804        /*D* NAME: DUQ$WRITELM
      191     7805             ENTRY: DDQ$WRITELM
      192     7806             CALL: CALL DDQ$WRITELM( TYPE, PAGE, NODE, BUF$, BUFSIZE ) ALTRET( error );
      193     7807             INTERFACE: M$WRITE
      194     7808                        DUE$ERRMSG
      195     7809             ENVIRONMENT: User Delta.
      196     7810             INPUT: TYPE - Record type.
      197     7811                    PAGE - Record page number.
      198     7812                    NODE - Record node number.
      199     7813                    BUF$ - Pointer to record buffer.
      200     7814                    BUFSIZE - Size of record buffer.
      201     7815             OUTPUT: None.
      202     7816             SCRATCH - Local AUTO only.
      203     7817             DESCRIPTION: Writes the specified record from the specified buffer.
      204     7818                          The appropriate key is built from the specified record
      205     7819                          type, page number, and node. ALTRETURNs if any error
      206     7820                          condition was encountered, else RETURNs. */
      207     7821                                                /**/
      208     7822    1   DDQ$WRITELM: ENTRY( TYPE, PAGE, NODE, BUF$, BUFSIZE ) ALTRET;

   7822  2 000262   000000 700200 xent  DDQ$WRITELM  TSX0  ! X66_AUTO_N
         2 000263   000074 000007                    ZERO    60,7

      209     7823                                                /**/
      210     7824    1        FPTWRITELM = FPT_WRITELM;

   7824  2 000264   000100 100400                    MLR     fill='000'O
         2 000265   000034 000060 1                  ADSC9   FPT_WRITELM              cn=0,n=48
         2 000266   200056 000060                    ADSC9   FPTWRITELM,,AUTO         cn=0,n=48

PL6.E3A0      #001=DDQ$READLM File=DUQ$READLM.:E05TSI                            TUE 07/29/97 14:57 Page:26
      211     7825    1        FPTWRITELM.V_ = VECTOR( FPTWRITELM.V );

   7825  2 000267   000006 235000 3                  LDA     6
         2 000270   200072 452500                    STP2    FPTWRITELM+12,,AUTO
         2 000271   200072 236100                    LDQ     FPTWRITELM+12,,AUTO
         2 000272   000066 036003                    ADLQ    54,DU
         2 000273   200056 757100                    STAQ    FPTWRITELM,,AUTO

      212     7826    1        FPTWRITELM.V.DCB# = S_D.LMDCB;

   7826  2 000274   000000 470400 xsym               LDP0    S_D$
         2 000275   004774 720100                    LXL0    2556,,PR0
         2 000276   200066 740100                    STX0    FPTWRITELM+8,,AUTO

      213     7827    1        FPTWRITELM.BUF_ = VECTOR( BUFF$ER );

   7827  2 000277   200006 471500                    LDP1    @BUF$,,AUTO
         2 000300   100000 473500                    LDP3    0,,PR1
         2 000301   200007 474500                    LDP4    @BUFSIZE,,AUTO
         2 000302   400000 721100                    LXL1    0,,PR4
         2 000303   000000 635011                    EAA     0,X1
         2 000304   000002 771000                    ARL     2
         2 000305   000140 135007                    SBLA    96,DL
         2 000306   200072 453500                    STP3    FPTWRITELM+12,,AUTO
         2 000307   200072 236100                    LDQ     FPTWRITELM+12,,AUTO
         2 000310   200062 757100                    STAQ    FPTWRITELM+4,,AUTO

      214     7828    1        AGAIN = '0'B;

   7828  2 000311   200012 450100                    STZ     AGAIN,,AUTO

      215     7829        /* Build key */
      216     7830    2        DO CASE( TYPE );

   7830  2 000312   200003 473500                    LDP3    @TYPE,,AUTO
         2 000313   300000 235100                    LDA     0,,PR3
         2 000314   000037 115007                    CMPA    31,DL
PL6.E3A0      #001=DDQ$READLM File=DUQ$READLM.:E05TSI                            TUE 07/29/97 14:57 Page:27
         2 000315   000317 602005 2                  TNC     s:7830+5,AL
         2 000316   000530 710000 2                  TRA     s:7870
         2 000317   000356 710000 2                  TRA     s:7832
         2 000320   000530 710000 2                  TRA     s:7870
         2 000321   000530 710000 2                  TRA     s:7870
         2 000322   000530 710000 2                  TRA     s:7870
         2 000323   000530 710000 2                  TRA     s:7870
         2 000324   000530 710000 2                  TRA     s:7870
         2 000325   000530 710000 2                  TRA     s:7870
         2 000326   000530 710000 2                  TRA     s:7870
         2 000327   000530 710000 2                  TRA     s:7870
         2 000330   000530 710000 2                  TRA     s:7870
         2 000331   000364 710000 2                  TRA     s:7836
         2 000332   000530 710000 2                  TRA     s:7870
         2 000333   000530 710000 2                  TRA     s:7870
         2 000334   000530 710000 2                  TRA     s:7870
         2 000335   000530 710000 2                  TRA     s:7870
         2 000336   000530 710000 2                  TRA     s:7870
         2 000337   000530 710000 2                  TRA     s:7870
         2 000340   000530 710000 2                  TRA     s:7870
         2 000341   000530 710000 2                  TRA     s:7870
         2 000342   000530 710000 2                  TRA     s:7870
         2 000343   000446 710000 2                  TRA     s:7854
         2 000344   000361 710000 2                  TRA     s:7834
         2 000345   000530 710000 2                  TRA     s:7870
         2 000346   000530 710000 2                  TRA     s:7870
         2 000347   000530 710000 2                  TRA     s:7870
         2 000350   000530 710000 2                  TRA     s:7870
         2 000351   000530 710000 2                  TRA     s:7870
         2 000352   000530 710000 2                  TRA     s:7870
         2 000353   000530 710000 2                  TRA     s:7870
         2 000354   000530 710000 2                  TRA     s:7870
         2 000355   000364 710000 2                  TRA     s:7836

      217     7831    2          CASE( %TYPHEAD );                /* Head */

      218     7832    2             FPTWRITELM.KEY_ = VECTOR( B_RUHEADKEY );
PL6.E3A0      #001=DDQ$READLM File=DUQ$READLM.:E05TSI                            TUE 07/29/97 14:57 Page:28

   7832  2 000356   000002 237000 3                  LDAQ    2
         2 000357   200060 757100                    STAQ    FPTWRITELM+2,,AUTO
         2 000360   000536 710000 2                  TRA     s:7875

      219     7833    2          CASE( %TYPBIRTH );               /* Birth */

      220     7834    2             FPTWRITELM.KEY_ = VECTOR( B_BIRTHKEY );

   7834  2 000361   000004 237000 3                  LDAQ    4
         2 000362   200060 757100                    STAQ    FPTWRITELM+2,,AUTO
         2 000363   000536 710000 2                  TRA     s:7875

      221     7835    2          CASE( %TYPPROG, %TYPROS );       /* Program, Ros */

      222     7836    3             DO CASE(S_D.ONE_TO_TWO.EXEC_DOMAIN);

   7836  2 000364   006714 235100                    LDA     3532,,PR0
         2 000365   000003 115007                    CMPA    3,DL
         2 000366   000370 602005 2                  TNC     s:7836+4,AL
         2 000367   000443 710000 2                  TRA     s:7850
         2 000370   000443 710000 2                  TRA     s:7850
         2 000371   000373 710000 2                  TRA     s:7838
         2 000372   000415 710000 2                  TRA     s:7844

      223     7837    3               CASE(%HOST);

      224     7838    3                  BRUKEY = B_RUKEY;

   7838  2 000373   000100 100400                    MLR     fill='000'O
         2 000374   000004 000006 1                  ADSC9   B_RUKEY                  cn=0,n=6
         2 000375   200026 000006                    ADSC9   BRUKEY,,AUTO             cn=0,n=6

      225     7839    3                  BRUKEY.TYPE = TYPE;

   7839  2 000376   300000 236100                    LDQ     0,,PR3
         2 000377   000022 736000                    QLS     18
PL6.E3A0      #001=DDQ$READLM File=DUQ$READLM.:E05TSI                            TUE 07/29/97 14:57 Page:29
         2 000400   200026 552120                    STBQ    BRUKEY,'20'O,AUTO

      226     7840    3                  BRUKEY.NODE = NODE;

   7840  2 000401   200005 475500                    LDP5    @NODE,,AUTO
         2 000402   500000 721100                    LXL1    0,,PR5
         2 000403   200026 441100                    SXL1    BRUKEY,,AUTO

      227     7841    3                  BRUKEY.PAGE = PAGE;

   7841  2 000404   200004 476500                    LDP6    @PAGE,,AUTO
         2 000405   600000 722100                    LXL2    0,,PR6
         2 000406   200027 742100                    STX2    BRUKEY+1,,AUTO

      228     7842    3                  FPTWRITELM.KEY_ = VECTOR( BRUKEY );

   7842  2 000407   000002 235000 3                  LDA     2
         2 000410   200072 452500                    STP2    FPTWRITELM+12,,AUTO
         2 000411   200072 236100                    LDQ     FPTWRITELM+12,,AUTO
         2 000412   000026 036003                    ADLQ    22,DU
         2 000413   200060 757100                    STAQ    FPTWRITELM+2,,AUTO
         2 000414   000536 710000 2                  TRA     s:7875

      229     7843    3               CASE(%L6);

      230     7844    3                  BFEPRUKEY = B_FEPRUKEY;

   7844  2 000415   000100 100400                    MLR     fill='000'O
         2 000416   000006 000006 1                  ADSC9   B_FEPRUKEY               cn=0,n=6
         2 000417   200030 000006                    ADSC9   BFEPRUKEY,,AUTO          cn=0,n=6

      231     7845    3                  BFEPRUKEY.TYPE = TYPE;

   7845  2 000420   300000 236100                    LDQ     0,,PR3
         2 000421   000022 736000                    QLS     18
         2 000422   200030 552120                    STBQ    BFEPRUKEY,'20'O,AUTO

PL6.E3A0      #001=DDQ$READLM File=DUQ$READLM.:E05TSI                            TUE 07/29/97 14:57 Page:30
      232     7846    3                  BFEPRUKEY.NODE = NODE;

   7846  2 000423   200005 475500                    LDP5    @NODE,,AUTO
         2 000424   500000 236100                    LDQ     0,,PR5
         2 000425   000002 736000                    QLS     2
         2 000426   200030 676100                    ERQ     BFEPRUKEY,,AUTO
         2 000427   777774 376007                    ANQ     -4,DL
         2 000430   200030 656100                    ERSQ    BFEPRUKEY,,AUTO

      233     7847    3                  BFEPRUKEY.PAGE = PAGE;

   7847  2 000431   200004 476500                    LDP6    @PAGE,,AUTO
         2 000432   003100 061500                    CSR     bolr='003'O
         2 000433   600000 000044                    BDSC    0,,PR6                   by=0,bit=0,n=36
         2 000434   200030 670024                    BDSC    BFEPRUKEY,,AUTO          by=3,bit=7,n=20

      234     7848    3                  FPTWRITELM.KEY_ = VECTOR( BFEPRUKEY );

   7848  2 000435   000002 235000 3                  LDA     2
         2 000436   200072 452500                    STP2    FPTWRITELM+12,,AUTO
         2 000437   200072 236100                    LDQ     FPTWRITELM+12,,AUTO
         2 000440   000030 036003                    ADLQ    24,DU
         2 000441   200060 757100                    STAQ    FPTWRITELM+2,,AUTO
         2 000442   000536 710000 2                  TRA     s:7875

      235     7849    3               CASE(ELSE);

      236     7850    3                  S_D.ERROR = 502;    /* E@DELBUG */

   7850  2 000443   000766 235007                    LDA     502,DL
         2 000444   000013 755100                    STA     11,,PR0

      237     7851    3                  ALTRETURN;

   7851  2 000445   000000 702200 xent               TSX2  ! X66_AALT

      238     7852    3               END;
PL6.E3A0      #001=DDQ$READLM File=DUQ$READLM.:E05TSI                            TUE 07/29/97 14:57 Page:31

      239     7853    2          CASE( %TYPRUM );                 /* Rum */

      240     7854    2             BRUMKEY = B_RUMKEY;

   7854  2 000446   000100 100400                    MLR     fill='000'O
         2 000447   000012 000013 1                  ADSC9   B_RUMKEY                 cn=0,n=11
         2 000450   200034 000013                    ADSC9   BRUMKEY,,AUTO            cn=0,n=11

      241     7855    2             BRUMKEY.UTS = S_D.RUMUTS;

   7855  2 000451   000100 100500                    MLR     fill='000'O
         2 000452   004777 000004                    ADSC9   2559,,PR0                cn=0,n=4
         2 000453   200034 600004                    ADSC9   BRUMKEY,,AUTO            cn=3,n=4

      242     7856    2   AGAIN_:   S_D.RUMSEQ = S_D.RUMSEQ + 1;

   7856  2 000454   000000 470400 xsym  AGAIN_       LDP0    S_D$
         2 000455   005000 235100                    LDA     2560,,PR0
         2 000456   000001 035007                    ADLA    1,DL
         2 000457   005000 755100                    STA     2560,,PR0

      243     7857    2             BRUMKEY.SEQ = S_D.RUMSEQ;

   7857  2 000460   000100 101500                    MRL     fill='000'O
         2 000461   005000 000004                    ADSC9   2560,,PR0                cn=0,n=4
         2 000462   200035 600002                    ADSC9   BRUMKEY+1,,AUTO          cn=3,n=2

      244     7858    2             BRUMKEY.NODE = NODE;

   7858  2 000463   200005 471500                    LDP1    @NODE,,AUTO
         2 000464   100000 236100                    LDQ     0,,PR1
         2 000465   000011 736000                    QLS     9
         2 000466   200036 552130                    STBQ    BRUMKEY+2,'30'O,AUTO

      245     7859    2             FPTWRITELM.KEY_ = VECTOR( BRUMKEY );

PL6.E3A0      #001=DDQ$READLM File=DUQ$READLM.:E05TSI                            TUE 07/29/97 14:57 Page:32
   7859  2 000467   000007 235000 3                  LDA     7
         2 000470   200072 452500                    STP2    FPTWRITELM+12,,AUTO
         2 000471   200072 236100                    LDQ     FPTWRITELM+12,,AUTO
         2 000472   000034 036003                    ADLQ    28,DU
         2 000473   200060 757100                    STAQ    FPTWRITELM+2,,AUTO

      246     7860    2             FPTWRITELM.V.NEWKEY# = '1'B;

   7860  2 000474   000200 236007                    LDQ     128,DL
         2 000475   200066 256100                    ORSQ    FPTWRITELM+8,,AUTO

      247     7861    3             IF BRUMKEY.SEQ = 1 THEN DO;

   7861  2 000476   200035 235100                    LDA     BRUMKEY+1,,AUTO
         2 000477   200036 236100                    LDQ     BRUMKEY+2,,AUTO
         2 000500   000033 773000                    LRL     27
         2 000501   777777 376007                    ANQ     -1,DL
         2 000502   000001 116007                    CMPQ    1,DL
         2 000503   000536 601000 2                  TNZ     s:7875

      248     7862    3                  AGAIN = '1'B;

   7862  2 000504   400000 236003                    LDQ     -131072,DU
         2 000505   200012 756100                    STQ     AGAIN,,AUTO

      249     7863    3                  FPTWRITELM.BUF_ = VECTOR(WHOBUF);

   7863  2 000506   000010 235000 3                  LDA     8
         2 000507   200072 452500                    STP2    FPTWRITELM+12,,AUTO
         2 000510   200072 236100                    LDQ     FPTWRITELM+12,,AUTO
         2 000511   000013 036003                    ADLQ    11,DU
         2 000512   200062 757100                    STAQ    FPTWRITELM+4,,AUTO

      250     7864    3                  WHOBUF.X = '" RUMmed by ';

   7864  2 000513   040100 100400                    MLR     fill='040'O
         2 000514   000050 000014 1                  ADSC9   FPT_WRITELM+12           cn=0,n=12
PL6.E3A0      #001=DDQ$READLM File=DUQ$READLM.:E05TSI                            TUE 07/29/97 14:57 Page:33
         2 000515   200013 000014                    ADSC9   WHOBUF,,AUTO             cn=0,n=12

      251     7865    3                  WHOBUF.Y = ',';

   7865  2 000516   054000 236003                    LDQ     22528,DU
         2 000517   200020 552140                    STBQ    WHOBUF+5,'40'O,AUTO

      252     7866    3                  WHOBUF.ACCT = B$JIT.ACCN;

   7866  2 000520   000000 473400 xsym               LDP3    B$JIT$
         2 000521   040100 100500                    MLR     fill='040'O
         2 000522   300001 000010                    ADSC9   1,,PR3                   cn=0,n=8
         2 000523   200016 000010                    ADSC9   WHOBUF+3,,AUTO           cn=0,n=8

      253     7867    3                  WHOBUF.NAME = B$JIT.UNAME;

   7867  2 000524   040100 100500                    MLR     fill='040'O
         2 000525   300003 000014                    ADSC9   3,,PR3                   cn=0,n=12
         2 000526   200020 200014                    ADSC9   WHOBUF+5,,AUTO           cn=1,n=12

      254     7868    3                END;

   7868  2 000527   000536 710000 2                  TRA     s:7875

      255     7869    2          CASE( ELSE );

      256     7870    2             S_D.ERROR = 502;         /* E@DELBUG */

   7870  2 000530   000766 235007                    LDA     502,DL
         2 000531   000013 755100                    STA     11,,PR0

      257     7871    2             CALL DDE$ERROR;

   7871  2 000532   000002 631400 xsym               EPPR1   B_VECTNIL+2
         2 000533   000000 701000 xent               TSX1    DDE$ERROR
         2 000534   000000 011000                    NOP     0

PL6.E3A0      #001=DDQ$READLM File=DUQ$READLM.:E05TSI                            TUE 07/29/97 14:57 Page:34
      258     7872    2             ALTRETURN;

   7872  2 000535   000000 702200 xent               TSX2  ! X66_AALT

      259     7873    2          END;                             /* "DO CASE( TYPE )" */

      260     7874        /* Write record */
      261     7875    1        CALL M$WRITE( FPTWRITELM ) ALTRET( ARETW );

   7875  2 000536   200056 630500                    EPPR0   FPTWRITELM,,AUTO
         2 000537   440001 713400                    CLIMB   alt,write
         2 000540   401400 401760                    pmme    nvectors=4
         2 000541   000256 702000 2                  TSX2    ARETW

      262     7876    2        IF AGAIN THEN DO;

   7876  2 000542   200012 234100                    SZN     AGAIN,,AUTO
         2 000543   000560 605000 2                  TPL     s:7882

      263     7877    2             AGAIN = '0'B;

   7877  2 000544   200012 450100                    STZ     AGAIN,,AUTO

      264     7878    2             FPTWRITELM.BUF_ = VECTOR(BUFF$ER);

   7878  2 000545   200006 470500                    LDP0    @BUF$,,AUTO
         2 000546   000000 471500                    LDP1    0,,PR0
         2 000547   200007 473500                    LDP3    @BUFSIZE,,AUTO
         2 000550   300000 720100                    LXL0    0,,PR3
         2 000551   000000 635010                    EAA     0,X0
         2 000552   000002 771000                    ARL     2
         2 000553   000140 135007                    SBLA    96,DL
         2 000554   200072 451500                    STP1    FPTWRITELM+12,,AUTO
         2 000555   200072 236100                    LDQ     FPTWRITELM+12,,AUTO
         2 000556   200062 757100                    STAQ    FPTWRITELM+4,,AUTO

      265     7879    2             GOTO AGAIN_;
PL6.E3A0      #001=DDQ$READLM File=DUQ$READLM.:E05TSI                            TUE 07/29/97 14:57 Page:35

   7879  2 000557   000454 710000 2                  TRA     AGAIN_

      266     7880    2           END;
      267     7881                                                /**/
      268     7882    1        RETURN;

   7882  2 000560   000000 702200 xent               TSX2  ! X66_ARET

B_RUHEADKEY
 Sect OctLoc
   1     000   004110 105101   104*** ******                                    .HEAD...

B_BIRTHKEY
 Sect OctLoc
   1     002   005102 111122   124110 ******                                    .BIRTH..

B_RUKEY
 Sect OctLoc
   1     004   005012 000000   000000 ******                                    ........

B_FEPRUKEY
 Sect OctLoc
   1     006   005012 000000   000000 0*****                                    ........

B_DBGKEY
 Sect OctLoc
   1     010   007777 ******   ****** 013***                                    ........

B_RUMKEY
 Sect OctLoc
   1     012   012777 024000   000000 000000   000000 000***                    ............

FPT_READLM
 Sect OctLoc
   1     016   000005 777640   000026 006000   000000 177640   000000 006014    ................
   1     022   000000 177640   000000 006014   000000 177640   000000 006014    ................
PL6.E3A0      #001=DDQ$READLM File=DUQ$READLM.:E05TSI                            TUE 07/29/97 14:57 Page:36
   1     026   000000 600000   000000 000000   000000 000000   000000 000000    ................
   1     032   000000 000000   000000 000000                                    ........

FPT_WRITELM
 Sect OctLoc
   1     034   000003 777640   000044 006000   000000 177640   000000 006014    .....$..........
   1     040   000000 177640   000000 006014   000000 177640   000000 006014    ................
   1     044   000000 400000   000000 000000   000000 000000   000000 000000    ................

(unnamed)
 Sect OctLoc
   1     050   042040 122125   115155 145144   040142 171040                    " RUMmed by

(unnamed)
 Sect OctLoc
   3     000   000000 006003   000005 777640   000001 777640   000000 006000    ................
   3     004   000001 777640   000002 006000   000003 777640   000002 777640    ................
   3     010   000010 177640                                                    ....
      269     7883                                                /**/
      270     7884    1   END DDQ$READLM;

PL6.E3A0      #001=DDQ$READLM File=DUQ$READLM.:E05TSI                            TUE 07/29/97 14:57 Page:37
--  Include file information  --

   DD_SD_M.:E05TOU  is referenced.
   XUH_MACRO_C.:E05TOU  is referenced.
   DD_ERR_C.:E05TOU  is referenced.
   B$OBJECT_C.:E05TOU  is referenced.
   F_ERRORS_C.:E05TOU  is referenced.
   B$JIT.:E05TOU  cannot be made into a system file and is referenced.
   CP_6.:E05TOU  cannot be made into a system file and is referenced.
   B$JIT_C.:E05TOU  was found in the system file and is referenced.
   CP_6_C.:E05TOU  was found in the system file and is referenced.
      No diagnostics issued in procedure DDQ$READLM.

   Procedure DDQ$READLM requires 369 words for executable code.
   Procedure DDQ$READLM requires 60 words of local(AUTO) storage.

    No errors detected in file DUQ$READLM.:E05TSI    .
PL6.E3A0      #001=DDQ$READLM File=DUQ$READLM.:E05TSI                            TUE 07/29/97 14:57 Page:38
          *** CROSS REFERENCE LISTING ***
**     DENOTES     IDENTIFIER DEFINITION
<<                 IDENTIFIER'S VALUE SET
>>                 IDENTIFIER'S VALUE USED
<>                 IDENTIFIER SET AND/OR USED
--                 IDENTIFIER REFERENCED
PL6.E3A0      #001=DDQ$READLM File=DUQ$READLM.:E05TSI                            TUE 07/29/97 14:57 Page:39
          MINI XREF LISTING

AGAIN
      4517**DCL      7828<<ASSIGN   7862<<ASSIGN   7876>>IF       7877<<ASSIGN
AGAIN_
      7856**LABEL    7879--GOTO
ARET
      7785**LABEL    7779--CALLALT
ARETW
      7793**LABEL    7875--CALLALT
ARS
      4515**DCL        40--PROC     7780<<ASSIGN   7786>>IF       7788<<ASSIGN
B$ALT.CODE
      4724**DCL      4724--REDEF    4725--REDEF    4725--REDEF
B$ALT.ERR.CODE
      4726**DCL      7785>>ASSIGN
B$ALT.ERR.ERR#
      4726**DCL      4726--REDEF
B$ALT.EVID
      4725**DCL      4725--REDEF    4725--REDEF
B$JIT.ACCN
       138**DCL      7866>>ASSIGN
B$JIT.CPFLAGS1.SLEAZE
       232**DCL       232--REDEF
B$JIT.ERR.MID
       139**DCL       139--REDEF
B$JIT.JRESPEAK
       300**DCL       301--REDEF
B$JIT.ORIGINATOR_PORT.FROM_CR
       409**DCL       409--REDEF     410--REDEF
B$JIT.PNR
       313**DCL       313--REDEF
B$JIT.TSLINE
       407**DCL       408--REDEF
PL6.E3A0      #001=DDQ$READLM File=DUQ$READLM.:E05TSI                            TUE 07/29/97 14:57 Page:40
B$JIT.UNAME
       138**DCL      7867>>ASSIGN
B$JIT$
       123**DCL       133--IMP-PTR  7866>>ASSIGN   7867>>ASSIGN
B$TCB.ALT$
      4731**DCL      7785>>ASSIGN
B$TCB$
      4995**DCL      7785>>ASSIGN
BDBGKEY
      4600**DCL      7767<<ASSIGN   7772--ASSIGN
BDBGKEY.NODE
      4605**DCL      7768<<ASSIGN
BDBGKEY.NPOINTER
      4607**DCL      7769<<ASSIGN
BDBGKEY.PAGE
      4618**DCL      7771<<ASSIGN
BDBGKEY.TYPE
      4611**DCL      7770<<ASSIGN
BFEPRUKEY
      4584**DCL      7757<<ASSIGN   7761--ASSIGN   7844<<ASSIGN   7848--ASSIGN
BFEPRUKEY.NODE
      4589**DCL      7759<<ASSIGN   7846<<ASSIGN
BFEPRUKEY.PAGE
      4591**DCL      4593--REDEF    7760<<ASSIGN   7847<<ASSIGN
BFEPRUKEY.TYPE
      4587**DCL      7758<<ASSIGN   7845<<ASSIGN
BRUKEY
      4539**DCL      7751<<ASSIGN   7755--ASSIGN   7838<<ASSIGN   7842--ASSIGN
BRUKEY.NODE
      4551**DCL      4555--REDEF    7753<<ASSIGN   7840<<ASSIGN
BRUKEY.PAGE
      4558**DCL      4563--REDEF    7754<<ASSIGN   7841<<ASSIGN
BRUKEY.TYPE
      4542**DCL      7752<<ASSIGN   7839<<ASSIGN
BRUMKEY
      4634**DCL      7854<<ASSIGN   7859--ASSIGN
PL6.E3A0      #001=DDQ$READLM File=DUQ$READLM.:E05TSI                            TUE 07/29/97 14:57 Page:41
BRUMKEY.NODE
      4646**DCL      7858<<ASSIGN
BRUMKEY.SEQ
      4644**DCL      7857<<ASSIGN   7861>>IF
BRUMKEY.UTS
      4642**DCL      7855<<ASSIGN
BUF$
      4513**DCL        40--PROC     4721--IMP-PTR  7741>>ASSIGN   7822--ENTRY    7827>>ASSIGN   7878>>ASSIGN
BUFF$ER
      4721**DCL      7741--ASSIGN   7827--ASSIGN   7878--ASSIGN
BUFSIZE
      4514**DCL        40--PROC     4721--IMP-SIZ  7741>>ASSIGN   7822--ENTRY    7827>>ASSIGN   7878>>ASSIGN
B_BIRTHKEY
      4802**DCL      7747--ASSIGN   7834--ASSIGN
B_DBGKEY
      4876**DCL      7767>>ASSIGN
B_FEPRUKEY
      4863**DCL      7757>>ASSIGN   7844>>ASSIGN
B_FEPRUKEY.PAGE
      4870**DCL      4872--REDEF
B_RUHEADKEY
      4792**DCL      7745--ASSIGN   7832--ASSIGN
B_RUKEY
      4820**DCL      7751>>ASSIGN   7838>>ASSIGN
B_RUKEY.NODE
      4832**DCL      4836--REDEF
B_RUKEY.PAGE
      4839**DCL      4844--REDEF
B_RUMKEY
      4904**DCL      7854>>ASSIGN
DDE$ERROR
      7734**DCL-ENT  7775--CALL     7871--CALL
DUE$ERRMSG
      7735**DCL-ENT  7793--CALL
ERRCODE
      4524**DCL      7785<<ASSIGN   7786>>IF       7791>>IF       7791>>IF
PL6.E3A0      #001=DDQ$READLM File=DUQ$READLM.:E05TSI                            TUE 07/29/97 14:57 Page:42
F$DCB.ACTPOS
      4766**DCL      4766--REDEF
F$DCB.ARS#
      4740**DCL      4740--REDEF    7780>>ASSIGN   7788>>ASSIGN
F$DCB.ATTR
      4759**DCL      4760--REDEF
F$DCB.BORROW
      4774**DCL      4774--REDEF    4774--REDEF    4774--REDEF
F$DCB.DCBNAME.L
      4788**DCL      4788--IMP-SIZ
F$DCB.EOMCHAR#
      4744**DCL      4744--REDEF
F$DCB.FLDID
      4769**DCL      4769--REDEF
F$DCB.FORM$
      4763**DCL      4763--REDEF
F$DCB.FSECT
      4779**DCL      4779--REDEF
F$DCB.FSN#
      4756**DCL      4756--REDEF    4756--REDEF    4757--REDEF
F$DCB.HEADER$
      4762**DCL      4762--REDEF
F$DCB.IXTNSIZE#
      4760**DCL      4760--REDEF
F$DCB.LASTSTA$
      4749**DCL      4749--REDEF
F$DCB.LVL
      4775**DCL      4775--REDEF
F$DCB.NAME#.C
      4750**DCL      4750--REDEF
F$DCB.NOEOF
      4772**DCL      4772--REDEF
F$DCB.NRECS#
      4761**DCL      4761--REDEF
F$DCB.NRECX
      4780**DCL      4780--REDEF
PL6.E3A0      #001=DDQ$READLM File=DUQ$READLM.:E05TSI                            TUE 07/29/97 14:57 Page:43
F$DCB.OHDR
      4772**DCL      4772--REDEF
F$DCB.ORG#
      4755**DCL      4755--REDEF
F$DCB.PRECNO
      4778**DCL      4778--REDEF
F$DCB.RCSZ
      4784**DCL      4784--REDEF
F$DCB.RES#
      4751**DCL      4751--REDEF
F$DCB.SETX
      4763**DCL      4763--REDEF
F$DCB.TAB$
      4763**DCL      4763--REDEF
F$DCB.TDA
      4777**DCL      4778--REDEF
F$DCB.WSN#
      4751**DCL      4751--REDEF
FPTREADLM
      4667**DCL      7738<<ASSIGN   7779<>CALL
FPTREADLM.BUF_
      4669**DCL      7741<<ASSIGN
FPTREADLM.KEY_
      4667**DCL      7745<<ASSIGN   7747<<ASSIGN   7755<<ASSIGN   7761<<ASSIGN   7772<<ASSIGN
FPTREADLM.STATION_
      4670**DCL      4671--REDEF
FPTREADLM.V
      4671**DCL      7739--ASSIGN
FPTREADLM.V.DCB#
      4671**DCL      7740<<ASSIGN
FPTREADLM.V.DVBYTE.REREAD#
      4682**DCL      4682--REDEF
FPTREADLM.V.INDX#
      4680**DCL      4680--REDEF
FPTREADLM.V_
      4667**DCL      7739<<ASSIGN
PL6.E3A0      #001=DDQ$READLM File=DUQ$READLM.:E05TSI                            TUE 07/29/97 14:57 Page:44
FPTWRITELM
      4707**DCL      7824<<ASSIGN   7875<>CALL
FPTWRITELM.BUF_
      4707**DCL      7827<<ASSIGN   7863<<ASSIGN   7878<<ASSIGN
FPTWRITELM.KEY_
      4707**DCL      7832<<ASSIGN   7834<<ASSIGN   7842<<ASSIGN   7848<<ASSIGN   7859<<ASSIGN
FPTWRITELM.STATION_
      4709**DCL      4709--REDEF
FPTWRITELM.V
      4710**DCL      7825--ASSIGN
FPTWRITELM.V.DCB#
      4710**DCL      7826<<ASSIGN
FPTWRITELM.V.DVBYTE.VFC#
      4716**DCL      4716--REDEF
FPTWRITELM.V.NEWKEY#
      4713**DCL      7860<<ASSIGN
FPTWRITELM.V_
      4707**DCL      7825<<ASSIGN
FPT_READLM
      4939**DCL      7738>>ASSIGN
FPT_READLM.STATION_
      4942**DCL      4943--REDEF
FPT_READLM.V
      4943**DCL      4939--DCLINIT
FPT_READLM.V.DVBYTE.REREAD#
      4954**DCL      4954--REDEF
FPT_READLM.V.INDX#
      4952**DCL      4952--REDEF
FPT_WRITELM
      4981**DCL      7824>>ASSIGN
FPT_WRITELM.STATION_
      4983**DCL      4983--REDEF
FPT_WRITELM.V
      4984**DCL      4981--DCLINIT
FPT_WRITELM.V.DVBYTE.VFC#
      4990**DCL      4990--REDEF
PL6.E3A0      #001=DDQ$READLM File=DUQ$READLM.:E05TSI                            TUE 07/29/97 14:57 Page:45
M$LM$
      4523**DCL      7737<<ASSIGN   7780>>ASSIGN   7788>>ASSIGN
M$READ
        52**DCL-ENT  7779--CALL
M$WRITE
        52**DCL-ENT  7875--CALL
NODE
      4512**DCL        40--PROC     7753>>ASSIGN   7759>>ASSIGN   7768>>ASSIGN   7822--ENTRY    7840>>ASSIGN
      7846>>ASSIGN   7858>>ASSIGN
NP
      4516**DCL        40--PROC     7769>>ASSIGN
PAGE
      4511**DCL        40--PROC     7754>>ASSIGN   7760>>ASSIGN   7771>>ASSIGN   7822--ENTRY    7841>>ASSIGN
      7847>>ASSIGN
S_D.CURRENT_CHANNEL
      7368**DCL      7370--REDEF
S_D.DEBUGA
      6520**DCL      6522--REDEF
S_D.EIS
      7478**DCL      7507--REDEF
S_D.ERROR
      6449**DCL      7763<<ASSIGN   7774<<ASSIGN   7850<<ASSIGN   7870<<ASSIGN
S_D.HOST_MESSAGE_BUF_REMOTE
      7411**DCL      7412--REDEF    7426--REDEF
S_D.JDE
      7025**DCL      7026--REDEF
S_D.L$.VALUE
      6578**DCL      6584--REDEF    6592--REDEF    6595--REDEF    6598--REDEF    6601--REDEF
S_D.L$.VALUE.L
      6579**DCL      6580--REDEF    6581--REDEF
S_D.L6_MESSAGE_BUF
      7432**DCL      7434--REDEF
S_D.LMDCB
      7098**DCL      7737--ASSIGN   7740>>ASSIGN   7826>>ASSIGN
S_D.ONE_TO_TWO.EXEC_DOMAIN
      7443**DCL      7749>>DOCASE   7836>>DOCASE
PL6.E3A0      #001=DDQ$READLM File=DUQ$READLM.:E05TSI                            TUE 07/29/97 14:57 Page:46
S_D.OUTPUT
      7398**DCL      7400--REDEF
S_D.REMOTE_MSG.FNCC
      7417**DCL      7418--REDEF
S_D.REMOTE_MSG.STXC
      7413**DCL      7414--REDEF
S_D.REMOTE_MSG.SUBFNCC
      7421**DCL      7422--REDEF
S_D.RUMSEQ
      7106**DCL      7856<<ASSIGN   7856>>ASSIGN   7857>>ASSIGN
S_D.RUMUTS
      7104**DCL      7855>>ASSIGN
S_D.SV
      6477**DCL      6498--REDEF
S_D$
      7729**DCL      6425--IMP-PTR  7737>>ASSIGN   7740>>ASSIGN   7749>>DOCASE   7763>>ASSIGN   7774>>ASSIGN
      7826>>ASSIGN   7836>>DOCASE   7850>>ASSIGN   7855>>ASSIGN   7856>>ASSIGN   7856>>ASSIGN   7857>>ASSIGN
      7870>>ASSIGN
TYPE
      4510**DCL        40--PROC     7743>>DOCASE   7752>>ASSIGN   7758>>ASSIGN   7770>>ASSIGN   7822--ENTRY
      7830>>DOCASE   7839>>ASSIGN   7845>>ASSIGN
WHOBUF
      4518**DCL      7863--ASSIGN
WHOBUF.ACCT
      4520**DCL      7866<<ASSIGN
WHOBUF.NAME
      4522**DCL      7867<<ASSIGN
WHOBUF.X
      4519**DCL      7864<<ASSIGN
WHOBUF.Y
      4521**DCL      7865<<ASSIGN
PL6.E3A0      #001=DDQ$READLM File=DUQ$READLM.:E05TSI                            TUE 07/29/97 14:57 Page:47
              *** CROSS REFERENCE LISTING ***
    **     DENOTES     IDENTIFIER DEFINITION
    <<                 IDENTIFIER'S VALUE SET
    >>                 IDENTIFIER'S VALUE USED
    <>                 IDENTIFIER SET AND/OR USED
    --                 IDENTIFIER REFERENCED
PL6.E3A0      #001=DDQ$READLM File=DUQ$READLM.:E05TSI                            TUE 07/29/97 14:57 Page:48
              MINI UREF LISTING

DDQ$READLM      40**PROC
DDQ$WRITELM    7822**ENTRY
M$ACCT      68**DCL-ENT
M$ACTIVATE      71**DCL-ENT
M$ALIB      64**DCL-ENT
M$ASUSER      66**DCL-ENT
M$ATTACH      73**DCL-ENT
M$BADPP      91**DCL-ENT
M$CGCTL      72**DCL-ENT
M$CGINFO      72**DCL-ENT
M$CHECK      53**DCL-ENT
M$CHGUNIT     111**DCL-ENT
M$CLOSE      51**DCL-ENT
M$CLRSTK     109**DCL-ENT
M$CMDVAR     120**DCL-ENT
M$CONFIG      81**DCL-ENT
M$CORRES      56**DCL-ENT
M$CPEXIT      65**DCL-ENT
M$CVM      89**DCL-ENT
M$CVOL      54**DCL-ENT
M$DCLFLD      81**DCL-ENT
M$DEACTIVATE      71**DCL-ENT
M$DELREC      53**DCL-ENT
M$DEQ     118**DCL-ENT
M$DETACH      73**DCL-ENT
M$DEVICE      55**DCL-ENT
M$DISPLAY     118**DCL-ENT
M$DISPRES      58**DCL-ENT
M$DLIB      64**DCL-ENT
M$DRIBBLE      81**DCL-ENT
M$DRTN     109**DCL-ENT
M$DSUSER      66**DCL-ENT
PL6.E3A0      #001=DDQ$READLM File=DUQ$READLM.:E05TSI                            TUE 07/29/97 14:57 Page:49
M$ENQ     117**DCL-ENT
M$EOM      76**DCL-ENT
M$ERASE      82**DCL-ENT
M$ERR      63**DCL-ENT
M$ERRMSG     114**DCL-ENT
M$EVENT     106**DCL-ENT
M$EXHUME     115**DCL-ENT
M$EXIT      63**DCL-ENT
M$EXTEND      55**DCL-ENT
M$FDP      87**DCL-ENT
M$FDS      86**DCL-ENT
M$FEBOOT      79**DCL-ENT
M$FECTL      80**DCL-ENT
M$FEDUMP      79**DCL-ENT
M$FID     114**DCL-ENT
M$FINDPROC      68**DCL-ENT
M$FSUSER      66**DCL-ENT
M$FVP      88**DCL-ENT
M$FWCG      72**DCL-ENT
M$GBPL      92**DCL-ENT
M$GDDL      88**DCL-ENT
M$GDP      87**DCL-ENT
M$GDS      86**DCL-ENT
M$GETDCB      57**DCL-ENT
M$GETMOUSE      97**DCL-ENT
M$GETPM      98**DCL-ENT
M$GJOB     116**DCL-ENT
M$GLINEATTR      76**DCL-ENT
M$GOODPP      91**DCL-ENT
M$GPLATEN      84**DCL-ENT
M$GPROMPT      83**DCL-ENT
M$GTRMATTR      77**DCL-ENT
M$GTRMCTL      75**DCL-ENT
M$GTRMTAB      78**DCL-ENT
M$GVP      87**DCL-ENT
M$HELP     114**DCL-ENT
PL6.E3A0      #001=DDQ$READLM File=DUQ$READLM.:E05TSI                            TUE 07/29/97 14:57 Page:50
M$INT     106**DCL-ENT
M$INTRTN      67**DCL-ENT
M$IOQ     102**DCL-ENT
M$JOBSTATS     116**DCL-ENT
M$KEYIN      56**DCL-ENT
M$LDEV      51**DCL-ENT
M$LDTRC      64**DCL-ENT
M$LIMIT      57**DCL-ENT
M$LINES      56**DCL-ENT
M$LINK      63**DCL-ENT
M$MADMUCK      59**DCL-ENT
M$MAKUSER      90**DCL-ENT
M$MBS      58**DCL-ENT
M$MDFFLD      82**DCL-ENT
M$MERC     107**DCL-ENT
M$MERCS     108**DCL-ENT
M$MIRROR     102**DCL-ENT
M$MONINFO     119**DCL-ENT
M$MPL      92**DCL-ENT
M$NODEINFO      83**DCL-ENT
M$NXTUSR     117**DCL-ENT
M$OCMSG     115**DCL-ENT
M$OLAY      63**DCL-ENT
M$OPEN      51**DCL-ENT
M$PAS      92**DCL-ENT
M$PATHCON     115**DCL-ENT
M$PDS      86**DCL-ENT
M$PFIL      53**DCL-ENT
M$PLATEN      77**DCL-ENT
M$PRECORD      55**DCL-ENT
M$PROCNAME      68**DCL-ENT
M$PROFILE      79**DCL-ENT
M$PROMPT      75**DCL-ENT
M$RACST      59**DCL-ENT
M$RDSYSLOG     100**DCL-ENT
M$RELDCB      57**DCL-ENT
PL6.E3A0      #001=DDQ$READLM File=DUQ$READLM.:E05TSI                            TUE 07/29/97 14:57 Page:51
M$RELRES      58**DCL-ENT
M$RELSTARF      60**DCL-ENT
M$REM      60**DCL-ENT
M$RENV     107**DCL-ENT
M$REQUIRE      59**DCL-ENT
M$RETRY     108**DCL-ENT
M$RETRYS     108**DCL-ENT
M$REW      54**DCL-ENT
M$RLSFLD      82**DCL-ENT
M$RPRIV     110**DCL-ENT
M$RSPP      89**DCL-ENT
M$RSWITCH     111**DCL-ENT
M$RUE     117**DCL-ENT
M$SAD      90**DCL-ENT
M$SAVE      66**DCL-ENT
M$SCON      67**DCL-ENT
M$SCREECH      65**DCL-ENT
M$SENV     107**DCL-ENT
M$SETFMA      51**DCL-ENT
M$SETFP      80**DCL-ENT
M$SINPUT      78**DCL-ENT
M$SLCFLD      83**DCL-ENT
M$SMOUSE      97**DCL-ENT
M$SMPRT      89**DCL-ENT
M$SPRIV     110**DCL-ENT
M$SSC      90**DCL-ENT
M$SSWITCH     110**DCL-ENT
M$STATE     119**DCL-ENT
M$STD      91**DCL-ENT
M$STIMER     105**DCL-ENT
M$STLPP      88**DCL-ENT
M$STRAP     105**DCL-ENT
M$STRMATTR      77**DCL-ENT
M$STRMCTL      75**DCL-ENT
M$STRMTAB      78**DCL-ENT
M$SYMBIO     116**DCL-ENT
PL6.E3A0      #001=DDQ$READLM File=DUQ$READLM.:E05TSI                            TUE 07/29/97 14:57 Page:52
M$SYSCON     102**DCL-ENT
M$SYSID     120**DCL-ENT
M$TDCLOSE     101**DCL-ENT
M$TDIO     101**DCL-ENT
M$TDOPEN     100**DCL-ENT
M$TDREQCPU     101**DCL-ENT
M$TEMPWROC      95**DCL-ENT
M$TIME     118**DCL-ENT
M$TRAP     105**DCL-ENT
M$TRMISC      80**DCL-ENT
M$TRMPRG      76**DCL-ENT
M$TRTN     109**DCL-ENT
M$TRUNC      52**DCL-ENT
M$TTIMER     105**DCL-ENT
M$UC      75**DCL
M$UMPL      92**DCL-ENT
M$UNFID     114**DCL-ENT
M$UNLATCH      71**DCL-ENT
M$UNSHARE      68**DCL-ENT
M$USRFIELD     111**DCL-ENT
M$VIRTUAL      86**DCL-ENT
M$WAIT     109**DCL-ENT
M$WEOF      54**DCL-ENT
M$WRSYSLOG     100**DCL-ENT
M$XCON     106**DCL-ENT
M$XCONRTN      67**DCL-ENT
M$XEQTIME     119**DCL-ENT
M$XFLUSH      60**DCL-ENT
M$XMOUSE      97**DCL-ENT
M$XXX      63**DCL-ENT
M$YC      65**DCL-ENT
