VERSION E05

PL6.E3A0      #001=DUR$ECCRPT File=DUR$ECCRPT.:E05TSI                            TUE 07/29/97 14:58 Page:1
        1        1        /*M* DUR$ECCRPT - WRITE FAULT MESSAGE BASED ON ECC-ECCS CODES IN TCB */
        2        2        /*T***********************************************************/
        3        3        /*T*                                                         */
        4        4        /*T* Copyright (c) Bull HN Information Systems Inc., 1997    */
        5        5        /*T*                                                         */
        6        6        /*T***********************************************************/
        7        7        /*X* DMR,PLM=5,IND=5,CSU=3,EXM=0,ECU=3,MOC,DCI=5,CRT=5 */
        8        8        /*P* NAME: DUR$ECCRPT.
        9        9             DESCRIPTION: WILL PRINT A MESSAGE OF THE FORM:
       10       10               [IN DELTA:] <FAULT_NAME> @ IC/ [OPCODE]
       11       11
       12       12                       */
       13       13        /*D* NAME: DUR$ECCRPT.
       14       14             INPUT: WHOS_FAULT.
       15       15
       16       16                  0 = User Land fault
       17       17                  1 = Fault in DELTA - Prefix with '** IN DELTA:'
       18       18                  2 = Fault on derailed instruction - use S_D>.SAVEIC
       19       19                      instead of ic from TCB, since TCB may point to
       20       20                      the special location.
       21       21                  3 = XEQ fault - Don't use any ic, and prefix with
       22       22                      'DURING XEQ:'.
       23       23                  4 = Entry to DDA$DELTA - Report from TCB, used for
       24       24                      debugging, prefix with '** FOR USER'.
       25       25                  5 = Entry to DUX$XCON1 - Report from TCB, used for
       26       26                      debugging, prefix with '** DELTA XCON'.
       27       27                  6 = ALTRET from the M$DRTN in DDA$DELTA - Report from the
       28       28                      TCB, used for debugging, prefix with '** DRTN ALT'.
       29       29                                     */
       30       30        DUR$ECCRPT: PROC (WHOS_FAULT);
       31       31    1   DCL REM UBIN;
       32       32    1   DCL BB$ PTR;
       33       33    1   DCL NCARS SBIN;
       34       34    1   DCL IC UBIN;
       35       35    1   DCL WHOS_FAULT UBIN;
       36       36    1   DCL ADD_INST BIT(1);
       37       37    1   DCL JITERR BIT(1);
PL6.E3A0      #001=DUR$ECCRPT File=DUR$ECCRPT.:E05TSI                            TUE 07/29/97 14:58 Page:2
       38       38    1   DCL D_XDELTA BIT(1) SYMREF;
       39       39    1   DCL UBIN36 UBIN BASED;
       40       40    1   DCL CHAR2 CHAR(2) BASED;
       41       41    1   DCL 1 IND BASED UNAL,
       42       42    1         2 * BIT(3),
       43       43    1         2 OV BIT(1),
       44       44    1         2 EXPOV BIT(1),
       45       45    1         2 EXPUN BIT(1);
       46       46        %INCLUDE B$SS;
       47      225        %INCLUDE CP_6;
       48      306        %FPT_DRTN(FPTN=FPT$DRTN,STCLASS=BASED);
       49      330        %INCLUDE B$JIT;
       50      620        %INCLUDE M_INFO_C;
       51      760        %B$EXCFR;
       52      778        %B$TCB;
       53      781        %B$XCON;
       54      791        %B$FLT;
       55      843        %B$EXCRTN;
       56      846        %SUB_EXC;
       57      893        %SUB_ECCDELTA;
       58      930        %SUB B$EXCFR= B$TCB$->B$TCB.STK$->B$EXCFR;
       59      931        %SUB B$XCON = B$TCB$->B$TCB.STK$->B$XCON;
       60      932        %INCLUDE DD_ERR_C;
       61     1329        %INCLUDE XUH_MACRO_C;
       62     1413        %INCLUDE DD_SD_M;
       63     2749        %S_D;
       64     4067        %INCLUDE DD_SUBS_C;
       65     4338        %INCLUDE DD_DEBUG_C;
       66     4359        %INCLUDE DD$DITEM;
       12+    4462             %LIST;
       13+    4463    1        DCL SDD$ PTR;
       14+    4464    1        DCL ZITEM$ PTR;
       15+    4465    1        DCL SDD_L6$ PTR;
       16+    4466    1        DCL ZITEM_L6$ PTR;
       67     5040    1   DCL UIS$ PTR SYMREF;
       68     5041    1   DCL B$TCB$ PTR SYMREF;
       69     5042    1   DCL B$JIT$ PTR SYMREF;
PL6.E3A0      #001=DUR$ECCRPT File=DUR$ECCRPT.:E05TSI                            TUE 07/29/97 14:58 Page:3
       70     5043    1   DCL DDR$MOVE ENTRY(4) ALTRET;
       71     5044    1   DCL DDR$BINTXT ENTRY(4);
       72     5045    1   DCL DDR$INSTR  ENTRY(1) ALTRET;
       73     5046    1   DCL DDR$POSIT ENTRY(5) ALTRET;
       74     5047    1   DCL DDQ$WRITE ENTRY(2);
       75     5048    1   DCL DDE$ERROR ENTRY;
       76     5049    1   DCL DUE$UERRMSG ENTRY;
       77     5050                                                /**/
       78     5051    1        ADD_INST = '0'B;
       79     5052    1        JITERR = '0'B;
       80     5053    1        S_D.ERROR = 0;
       81     5054    1        REM = SIZEC(S_D.OUTPUT);
       82     5055    1        BB$ = ADDR(S_D.OUTPUT);
       83     5056    1        S_D.OUTPUT = ' ';
       84     5057    1        IC = B$TCB$->B$TCB.STK$->B$SS.IC + S_D.ISBASE;
       85     5058    2        DO CASE (WHOS_FAULT);
       86     5059    2          CASE (ECCRPT_DELTA);             /* Delta did it */
       87     5060    2             CALL DDR$MOVE('**IN DELTA: ', 12, BB$, REM) ALTRET(TOO_BIG);
       88     5061    2          CASE (ECCRPT_XEQ);
       89     5062    2             CALL DDR$MOVE('DURING XEQ: ', 12, BB$, REM) ALTRET(TOO_BIG);
       90     5063    2          CASE (ECCRPT_FORUSER);
       91     5064    2             CALL DDR$MOVE('** FOR USER: ', 13, BB$, REM) ALTRET(TOO_BIG);
       92     5065    2          CASE (ECCRPT_DELTAXCON);
       93     5066    2             CALL DDR$MOVE('** DELTA XCON: ', 15, BB$, REM) ALTRET(TOO_BIG);
       94     5067    2          CASE (ECCRPT_DRTNALT);
       95     5068    2             CALL DDR$MOVE('** DRTN ALT: ', 13, BB$, REM) ALTRET(TOO_BIG);
       96     5069    2          END;
       97     5070                                                /**/
       98     5071                                                /* Build why */
       99     5072                                                /**/
      100     5073    2        DO CASE(B$EXCFR.ECC);              /* Major case ecc */
      101     5074    2          CASE(%ECC_TIMER#);               /* Timer runout */
      102     5075    2             CALL DDR$MOVE('TIMER RUNOUT',12,BB$,REM) ALTRET(TOO_BIG);
      103     5076    2          CASE(%ECC_EVENT#);               /* Event complete */
      104     5077    2             CALL DDR$MOVE('EVENT ',6,BB$,REM) ALTRET(TOO_BIG);
      105     5078    2             CALL DDR$BINTXT(BB$, B$EXCFR.EVID, %OCT_FMT, NCARS);
      106     5079    2             BB$ = PINCRC(BB$,NCARS);
PL6.E3A0      #001=DUR$ECCRPT File=DUR$ECCRPT.:E05TSI                            TUE 07/29/97 14:58 Page:4
      107     5080    2             CALL DDR$MOVE(' COMPLETE',9,BB$,REM) ALTRET(TOO_BIG);
      108     5081    2          CASE(%ECC_INT#);                 /* Break */
      109     5082    2             CALL DDR$MOVE('BREAK',5,BB$,REM) ALTRET(TOO_BIG);
      110     5083    2             IF B$TCB$->B$TCB.STK$->B$SS.IR.MIR
      111     5084    2             THEN CALL DDR$MOVE(' during multi-word EIS', 22, BB$, REM) ALTRET(TOO_BIG)
              5084                      ;
      112     5085    2             IF IC >= %LIBLO*1024 - %ISEGLO*1024 AND B$JIT.TDP <= %LIBLO
      113     5086    2               AND B$JIT.PCL = 0
      114     5087    2             THEN CALL DDR$MOVE(' in shared library', 18, BB$, REM) ALTRET(TOO_BIG);
      115     5088    2          CASE(%ECC_XCON#);                /* Xcon */
      116     5089    2             IF B$XCON.RNST.ERR THEN
      117     5090    2                  CALL DDR$MOVE('M$ERR',5,BB$,REM) ALTRET(TOO_BIG);
      118     5091    2             ELSE IF B$XCON.RNST.XXX THEN
      119     5092    2                       CALL DDR$MOVE('M$XXX',5,BB$,REM) ALTRET(TOO_BIG);
      120     5093    2                  ELSE IF B$XCON.RNST = '0'B
      121     5094    3                       THEN DO;
      122     5095    3                            IF B$XCON.CECCB.LNK THEN CALL DDR$MOVE('EXIT for M$LDTRC',
              5095                                     16, BB$, REM) ALTRET(TOO_BIG);
      123     5096    3                            ELSE IF B$XCON.CECCB.SAVE THEN CALL DDR$MOVE(
              5096                                     'EXIT for M$SAVE', 15, BB$, REM) ALTRET(TOO_BIG);
      124     5097    3                                 ELSE IF B$XCON.CECCB.CPSAVE THEN CALL DDR$MOVE(
              5097                                          'EXIT for CTRL Y SAVE', 20, BB$, REM) ALTRET(
              5097                                          TOO_BIG);
      125     5098    3                                      ELSE IF B$XCON.CECCB.GET THEN CALL DDR$MOVE(
              5098                                               'EXIT for GET', 12, BB$, REM) ALTRET(TOO_BIG)
              5098                                               ;
      126     5099    3                                           ELSE CALL DDR$MOVE('M$EXIT',6,BB$,REM)
              5099                                                    ALTRET(TOO_BIG);
      127     5100    3                          END;
      128     5101    3                       ELSE IF B$XCON.RNST.MABRT THEN DO;
      129     5102    3                                 JITERR = '1'B;
      130     5103    3                                 CALL DDR$MOVE('The monitor has aborted you',27,BB$,REM
              5103                                          ) ALTRET(TOO_BIG);
      131     5104    3                               END;
      132     5105    2                            ELSE IF B$XCON.RNST.MONXXX THEN CALL DDR$MOVE('MONXXX', 6,
              5105                                     BB$, REM) ALTRET(TOO_BIG);
      133     5106    2                                 ELSE IF B$XCON.RNST.SSPABRT THEN CALL DDR$MOVE(
PL6.E3A0      #001=DUR$ECCRPT File=DUR$ECCRPT.:E05TSI                            TUE 07/29/97 14:58 Page:5
              5106                                          'Special shared proc ABORTed', 27, BB$, REM)
              5106                                          ALTRET(TOO_BIG);
      134     5107    2                                      ELSE IF B$XCON.RNST.OPERR THEN CALL DDR$MOVE(
              5107                                               'Operator !E keyin or !QUIT', 26, BB$, REM)
              5107                                               ALTRET(TOO_BIG);
      135     5108    2                                           ELSE IF B$XCON.RNST.HANGUP THEN CALL
              5108                                                    DDR$MOVE('Line disconnect', 15, BB$, REM
              5108                                                    ) ALTRET(TOO_BIG);
      136     5109    2                                          ELSE IF B$XCON.RNST.OPXXX THEN CALL DDR$MOVE(
              5109                                                   'The operator !X''d you', 21, BB$, REM)
              5109                                                   ALTRET(TOO_BIG);
      137     5110    2                                                     ELSE IF B$XCON.RNST.LIMIT THEN
              5110                                                              CALL LIMIT_PROC ALTRET(TOO_BIG
              5110                                                              );
      138     5111    3                                                          ELSE DO;
      139     5112    3                                                               JITERR = '1'B;
              5112                                                                  /* Output JIT.ERR later */
      140     5113    3                                                               GOTO EH;
      141     5114    3                                                             END;
      142     5115    2          CASE(%ECC_EXCRTN#);
      143     5116    3             DO CASE(B$EXCFR.SUBC);
      144     5117    3               CASE(%SC_TRTN#);
      145     5118    3                  CALL DDR$MOVE('M$TRTN', 6, BB$, REM) ALTRET(TOO_BIG);
      146     5119    3               CASE(%SC_MERC#);
      147     5120    3                  CALL DDR$MOVE('M$MERC', 6, BB$, REM) ALTRET(TOO_BIG);
      148     5121    3               CASE(%SC_MERCS#);
      149     5122    3                  CALL DDR$MOVE('M$MERCS', 7, BB$, REM) ALTRET(TOO_BIG);
      150     5123    3               CASE(%SC_RETRY#);
      151     5124    3                  CALL DDR$MOVE('M$RETRY', 7, BB$, REM) ALTRET(TOO_BIG);
      152     5125    3               CASE(%SC_RETRYS#);
      153     5126    3                  CALL DDR$MOVE('M$RETRYS', 8, BB$, REM) ALTRET(TOO_BIG);
      154     5127    3               CASE(%SC_XCONXIT#);
      155     5128    3                  CALL DDR$MOVE('Final ', 6, BB$, REM) ALTRET(TOO_BIG);
      156     5129    4                  DO CASE(PINCRW(B$TCB$->B$TCB.STK$, SIZEW(B$EXCFR)-4)->B$EXCRTN.TYP);
      157     5130    4                    CASE(%XCON_EXIT#);
      158     5131    4                       CALL DDR$MOVE('M$EXIT', 6, BB$, REM) ALTRET(TOO_BIG);
      159     5132    4                    CASE(%XCON_ERR#);
PL6.E3A0      #001=DUR$ECCRPT File=DUR$ECCRPT.:E05TSI                            TUE 07/29/97 14:58 Page:6
      160     5133    4                       CALL DDR$MOVE('M$ERR', 5, BB$, REM) ALTRET(TOO_BIG);
      161     5134    4                    CASE(%XCON_XXX#);
      162     5135    4                       CALL DDR$MOVE('M$XXX', 5, BB$, REM) ALTRET(TOO_BIG);
      163     5136    4                    CASE(ELSE);
      164     5137    4                       GOTO EH;
      165     5138    4                    END;                   /* Case typ */
      166     5139    3                  CALL DDR$MOVE(' from exit control', 18, BB$, REM) ALTRET(TOO_BIG);
      167     5140    3               CASE(ELSE);
      168     5141    3                  GOTO EH;
      169     5142    3               END;                        /* Case subc */
      170     5143    2          CASE(%ECC_PMME#);                /* Bad pmme, no altret */
      171     5144    2             CALL DDR$MOVE('BAD PMME, NO ALTRET',19,BB$,REM) ALTRET(TOO_BIG);
      172     5145    2             JITERR = '1'B;
      173     5146    2             ADD_INST = '1'B;
      174     5147    2          CASE(%ECC_DELTA#);               /* Must be a PMD command */
      175     5148    2             CALL DDR$MOVE('PMD REQUESTED',13,BB$,REM) ALTRET(TOO_BIG);
      176     5149    2             JITERR = '1'B;
      177     5150    2             ADD_INST = '1'B;
      178     5151    2          CASE(%ECC_ARITH#);               /* Arithmetic fault */
      179     5152    2             ADD_INST = '1'B;
      180     5153    3             DO CASE(B$EXCFR.SUBC);
      181     5154    3               CASE(%SC_OVRF#);            /* Arithmetic overflow */
      182     5155    3                  IF D_XDELTA
      183     5156    4                  THEN DO;
      184     5157    4                       IF ADDR(S_D.USS$->B$SS.IR)->IND.OV
      185     5158    4                       THEN CALL DDR$MOVE('OVERFLOW, ', SIZEC('OVERFLOW, '), BB$, REM)
              5158                                ALTRET(TOO_BIG);
      186     5159    4                       IF ADDR(S_D.USS$->B$SS.IR)->IND.EXPOV
      187     5160    4                       THEN CALL DDR$MOVE('EXP OVERFLOW, ',SIZEC('EXP OVERFLOW, '),BB$,
              5160                                REM) ALTRET(TOO_BIG);
      188     5161    4                       IF ADDR(S_D.USS$->B$SS.IR)->IND.EXPUN
      189     5162    4                       THEN CALL DDR$MOVE('EXP UNDERFLOW, ',SIZEC('EXP UNDERFLOW, '),
              5162                                BB$,REM) ALTRET(TOO_BIG);
      190     5163    4                     END;
      191     5164    4                  ELSE DO;
      192     5165    4                       IF ADDR(S_D.DRTN$->FPT$DRTN.V.IR#)->IND.OV
      193     5166    4                       THEN CALL DDR$MOVE('OVERFLOW, ',SIZEC('OVERFLOW, '),BB$,REM)
PL6.E3A0      #001=DUR$ECCRPT File=DUR$ECCRPT.:E05TSI                            TUE 07/29/97 14:58 Page:7
              5166                                ALTRET(TOO_BIG);
      194     5167    4                       IF ADDR(S_D.DRTN$->FPT$DRTN.V.IR#)->IND.EXPOV
      195     5168    4                       THEN CALL DDR$MOVE('EXP OVERFLOW, ',SIZEC('EXP OVERFLOW, '),BB$,
              5168                                REM) ALTRET (TOO_BIG);
      196     5169    4                       IF ADDR(S_D.DRTN$->FPT$DRTN.V.IR#)->IND.EXPUN
      197     5170    4                       THEN CALL DDR$MOVE('EXP UNDERFLOW, ',SIZEC('EXP UNDERFLOW, '),
              5170                                BB$,REM) ALTRET (TOO_BIG);
      198     5171    4                     END;
      199     5172    3                  BB$ = PINCRC(BB$,-2);
      200     5173    3               CASE(%SC_DVCHK#);           /* Divide check */
      201     5174    3                  CALL DDR$MOVE('DIVIDE CHECK',12,BB$,REM) ALTRET(TOO_BIG);
      202     5175    3               CASE(ELSE);
      203     5176    3                  GOTO EH;
      204     5177    3               END;
      205     5178    2          CASE(%ECC_PROG#);                /* Programed faults */
      206     5179    2             ADD_INST = '1'B;
      207     5180    3             DO CASE(B$EXCFR.SUBC);
      208     5181    3               CASE(%SC_MME#);             /* Mme */
      209     5182    3                  CALL DDR$MOVE('MME',3,BB$,REM) ALTRET(TOO_BIG);
      210     5183    3               CASE(%SC_DRAIL#);           /* Derail, not delta's */
      211     5184    3                  CALL DDR$MOVE('DERAIL',6,BB$,REM) ALTRET(TOO_BIG);
      212     5185    3               CASE(%SC_FLTAG#);           /* FAULT_TAG, not delta's */
      213     5186    3                  CALL DDR$MOVE('FAULT TAG',9,BB$,REM) ALTRET(TOO_BIG);
      214     5187    3               CASE(ELSE);
      215     5188    3                  GOTO EH;
      216     5189    3               END;
      217     5190    2          CASE(%ECC_ERROR#);               /* Error faults */
      218     5191    2             ADD_INST = '1'B;
      219     5192    3             DO CASE(B$EXCFR.SUBC);
      220     5193    3               CASE(%SC_MEMORY#);          /* Memory error */
      221     5194    3                  CALL DDR$MOVE('MEMORY',6,BB$,REM) ALTRET(TOO_BIG);
      222     5195    3               CASE(%SC_CMMD#);            /* Command error */
      223     5196    3                  CALL DDR$MOVE('COMMAND',7,BB$,REM) ALTRET(TOO_BIG);
      224     5197    3               CASE(%SC_LOCKUP#);          /* Lockup error */
      225     5198    3                  CALL DDR$MOVE('LOCKUP',6,BB$,REM) ALTRET(TOO_BIG);
      226     5199    3               CASE(%SC_IPR#);             /* Procedure error */
      227     5200    3                  CALL DDR$MOVE('IPR',3,BB$,REM) ALTRET(TOO_BIG);
PL6.E3A0      #001=DUR$ECCRPT File=DUR$ECCRPT.:E05TSI                            TUE 07/29/97 14:58 Page:8
      228     5201    3               CASE(%SC_MSEG#);            /* Missing segment */
      229     5202    3                  CALL DDR$MOVE('MISSING SEG',11,BB$,REM) ALTRET(TOO_BIG);
      230     5203    3               CASE(%SC_MPAGE#);           /* Missing page */
      231     5204    3                  CALL DDR$MOVE('MISSING PAGE',12,BB$,REM) ALTRET(TOO_BIG);
      232     5205    3               CASE(%SC_SEC2#);            /* Security 2 error */
      233     5206    3                  CALL DDR$MOVE('SECURITY 2',10,BB$,REM) ALTRET(TOO_BIG);
      234     5207    3               CASE(%SC_SEC1#);            /* Security class 1 fault */
      235     5208    3                  CALL DDR$MOVE('SECURITY 1',10,BB$,REM) ALTRET(TOO_BIG);
      236     5209    3               CASE(ELSE);
      237     5210    3                  GOTO EH;
      238     5211    3               END;
      239     5212    2             CALL DDR$MOVE(' FAULT',6,BB$,REM) ALTRET(TOO_BIG);
      240     5213    2          CASE(ELSE);
      241     5214    2             GOTO EH;
      242     5215    2          END;
      243     5216                                                /**/
      244     5217    1        IF S_D.DEBUGA(%DB@ECC) OR WHOS_FAULT = ECCRPT_DELTA
      245     5218    2        THEN DO;
      246     5219    2             CALL DDQ$WRITE(ADDR(S_D.OUTPUT), POFFC(BB$, ADDR(S_D.OUTPUT)));
      247     5220    2             BB$ = ADDR(S_D.OUTPUT);
      248     5221    2             REM = SIZEC(S_D.OUTPUT);
      249     5222    2             GOTO EH;
      250     5223    2           END;
      251     5224                                                /* Add where */
      252     5225                                                /**/
      253     5226    1   ADDRESS: ;
      254     5227    1        CALL DDR$MOVE(' @ ',3,BB$,REM)       ALTRET(TOO_BIG);
      255     5228    2        DO CASE(WHOS_FAULT);
      256     5229    2          CASE (ECCRPT_USER);              /* User land fault */
      257     5230    2             CALL DDR$POSIT(IC, BB$, REM, NCARS);
      258     5231    2          CASE (ECCRPT_DELTA, ECCRPT_FORUSER, ECCRPT_DELTAXCON);
      259     5232    2             CALL DDR$BINTXT (BB$, IC, %OCT_FMT, NCARS);
      260     5233    2          CASE (ECCRPT_DERAIL);            /* Derailed instruction fault */
      261     5234    2             CALL DDR$POSIT(S_D.SAVEIC, BB$, REM, NCARS);
      262     5235    2          CASE (ECCRPT_XEQ);               /* Xeq fault */
      263     5236    2             NCARS = -3;                   /* Back over the ' @ ' */
      264     5237    2          END;
PL6.E3A0      #001=DUR$ECCRPT File=DUR$ECCRPT.:E05TSI                            TUE 07/29/97 14:58 Page:9
      265     5238    1        BB$ = PINCRC(BB$,NCARS);
      266     5239    1        IF ADD_INST AND (WHOS_FAULT = ECCRPT_USER OR WHOS_FAULT = ECCRPT_DERAIL
      267     5240    1          OR WHOS_FAULT = ECCRPT_DRTNALT
      268     5241    1          OR WHOS_FAULT = ECCRPT_XEQ)
      269     5242    2        THEN DO;
      270     5243    2             BB$->CHAR2 = '/ ';
      271     5244    2             S_D.D$ = PINCRC(BB$,2);
      272     5245    2             S_D.DESCL$ = PINCRC(ADDR(S_D.OUTPUT),LENGTHC(S_D.OUTPUT));
      273     5246    2             CALL DDR$INSTR( PINCRW(UIS$,IC) -> UBIN36) ALTRET(ALT);
      274     5247    2             BB$ = S_D.D$;
      275     5248    2           END;
      276     5249    1   WRITE_IT: ;
      277     5250    1        CALL DDQ$WRITE(ADDR(S_D.OUTPUT),POFFC(BB$,ADDR(S_D.OUTPUT)));
      278     5251    1   ALT:
      279     5252    1        IF JITERR THEN CALL DUE$UERRMSG;
      280     5253    1        IF S_D.ERROR ~= 0 THEN CALL DDE$ERROR; /* If we truncated */
      281     5254    1        RETURN;
      282     5255    1   EH:  CALL DDR$MOVE('ECC=',4,BB$,REM)       ALTRET(TOO_BIG);
      283     5256    1        CALL BINCHAR(BB$->CHAR2,B$EXCFR.ECC);
      284     5257    1        REM=REM-2;
      285     5258    1        BB$=PINCRC(BB$,2);
      286     5259    1        CALL DDR$MOVE(', CECCB/TYP/ECCS=', 17, BB$, REM) ALTRET(TOO_BIG);
      287     5260    1        CALL DDR$BINTXT(BB$, PINCRW(B$TCB$->B$TCB.STK$, 64)->UBIN36, %OCT_FMT, NCARS);
      288     5261        /*N* Linda will change the reference to "64" above if the size of the
      289     5262             safe-store frame ever changes (it you can find her). */
      290     5263    1        BB$ = PINCRC(BB$, NCARS);
      291     5264    1        REM = REM - NCARS;
      292     5265    1        CALL DDR$MOVE (', EVID=', 7, BB$, REM) ALTRET(TOO_BIG);
      293     5266    1        CALL DDR$BINTXT(BB$, B$EXCFR.EVID, %OCT_FMT, NCARS);
      294     5267    1        BB$ = PINCRC(BB$, NCARS);
      295     5268    1        REM = REM - NCARS;
      296     5269    1        ADD_INST = '1'B;
      297     5270    1        GOTO ADDRESS;                      /* Add address to the line */
      298     5271    1   TOO_BIG: ;
      299     5272    1        S_D.ERROR = E@BUFFULL;             /*E@BUFFULL*/
      300     5273    1        GOTO WRITE_IT;
      301     5274                                                /**/
PL6.E3A0      #001=DUR$ECCRPT File=DUR$ECCRPT.:E05TSI                            TUE 07/29/97 14:58 Page:10
      302     5275                                           /* The code was getting impossible to read
      303     5276                                              so I stuck this stuff down here.  HEP */
      304     5277    1   LIMIT_PROC: PROC ALTRET;
      305     5278                       /* We were building the message for limit exceeded, remember ? */
      306     5279    2        CALL DDR$MOVE('Limit exceeded ', 15, BB$, REM) ALTRET(ALT);
      307     5280    2        IF B$XCON.LIMIT.PO THEN CALL DDR$MOVE('(PO)', 4, BB$, REM) ALTRET(ALT);
      308     5281    2        ELSE IF B$XCON.LIMIT.PLO THEN CALL DDR$MOVE('(PLO)', 5, BB$, REM) ALTRET(ALT);
      309     5282    2             ELSE IF B$XCON.LIMIT.LO THEN CALL DDR$MOVE('(LO)', 4, BB$, REM) ALTRET(ALT
              5282                      );
      310     5283    2                  ELSE IF B$XCON.LIMIT.DGO THEN CALL DDR$MOVE('(DO)', 4, BB$, REM)
              5283                           ALTRET(ALT);
      311     5284    2                       ELSE IF B$XCON.LIMIT.PDISK THEN CALL DDR$MOVE('(PDIS)', 6, BB$,
              5284                                REM) ALTRET(ALT);
      312     5285    2                            ELSE IF B$XCON.LIMIT.TDISK THEN CALL DDR$MOVE('(TDIS)', 6,
              5285                                     BB$, REM) ALTRET(ALT);
      313     5286    2                                 ELSE IF B$XCON.LIMIT.TAPE THEN CALL DDR$MOVE('(TAPE)',
              5286                                          6, BB$, REM) ALTRET(ALT);
      314     5287    2                                      ELSE IF B$XCON.LIMIT.STACK THEN CALL DDR$MOVE(
              5287                                               '(STACK)', 7, BB$, REM) ALTRET(ALT);
      315     5288    2                                           ELSE IF B$XCON.LIMIT.TIME THEN CALL DDR$MOVE
              5288                                                    ('(TIME)', 6, BB$, REM) ALTRET(ALT);
      316     5289    2                                                ELSE CALL DDR$MOVE('(?)', 3, BB$, REM)
              5289                                                         ALTRET(ALT);
      317     5290    2        RETURN;
      318     5291    2   ALT: ALTRETURN;                         /* TOO_BIG */
      319     5292    2   END LIMIT_PROC;
      320     5293    1   END DUR$ECCRPT;

PL6.E3A0      #001=DUR$ECCRPT File=DUR$ECCRPT.:E05TSI                            TUE 07/29/97 14:58 Page:11
--  Include file information  --

   DD_SRTN_C.:E05TOU  is referenced.
   DD_ACODE_C.:E05TOU  is referenced.
   DD_ICODE_C.:E05TOU  is referenced.
   DD$DITEM.:E05TOU  cannot be made into a system file and is referenced.
   DD_DEBUG_C.:E05TOU  is referenced.
   DD_SUBS_C.:E05TOU  is referenced.
   DD_SD_M.:E05TOU  is referenced.
   XUH_MACRO_C.:E05TOU  is referenced.
   DD_ERR_C.:E05TOU  is referenced.
   M_INFO_C.:E05TOU  is referenced.
   B$JIT.:E05TOU  cannot be made into a system file and is referenced.
   CP_6.:E05TOU  cannot be made into a system file and is referenced.
   B$SS.:E05TOU  cannot be made into a system file and is referenced.
   B$JIT_C.:E05TOU  was found in the system file and is referenced.
   CP_6_C.:E05TOU  was found in the system file and is referenced.
      No diagnostics issued in procedure DUR$ECCRPT.

   Procedure DUR$ECCRPT requires 1311 words for executable code.
   Procedure DUR$ECCRPT requires 22 words of local(AUTO) storage.

    No errors detected in file DUR$ECCRPT.:E05TSI    .

PL6.E3A0      #001=DUR$ECCRPT File=DUR$ECCRPT.:E05TSI                            TUE 07/29/97 14:58 Page:12

 Object Unit name= DUR$ECCRPT                                 File name= DUR$ECCRPT.:E05TOU
 UTS= JUL 29 '97 14:58:12.28 TUE                              Compiler= PL-6/E31         Sev=      00
 SharedLib= :SHARED_SYSTEM                                    Alt SharedLib=


    ****  Control sections  ****

 Sect   Type Bound  Init  Size OctSiz  Section name(segment info)
    0   DCB   even  none     0      0  M$UC
    1  RoData even  UTS    191    277  DUR$ECCRPT
    2   Proc  even  none  1311   2437  DUR$ECCRPT
    3  RoData even  none   144    220  DUR$ECCRPT

    ****  Entry defs  ****

                              Check   Calling
                             calling  sequence
  Sect OctLoc Primary Altret sequence   type   Parms  Name
     2      0   yes            yes      Std        1  DUR$ECCRPT

  ****  Entry refs  ****

         Check        Calling
        calling       sequence
Altret sequence SRef   type   Args  Name
 yes     yes           Std       4 DDR$MOVE
         yes           Std       4 DDR$BINTXT
         yes           Std       2 DDQ$WRITE
 yes     yes           Std       5 DDR$POSIT
 yes     yes           Std       1 DDR$INSTR
         yes           Std       0 DDE$ERROR
         yes           Std       0 DUE$UERRMSG
                       nStd      0 X66_AUTO_1
                       Std       0 B_CONSPOOL_D
                       nStd      0 X66_ARET
PL6.E3A0      #001=DUR$ECCRPT File=DUR$ECCRPT.:E05TSI                            TUE 07/29/97 14:58 Page:13

  ****  Data refs  ****

  Flags:  r = read only, s = secondary
Flgs Name                             Flgs Name                             Flgs Name
     D_XDELTA                              M$UC                             r    S_D$
     UIS$                                  B$TCB$                                B$JIT$
     B_VECTNIL

  ****  Segment refs  ****

  Flags:  r = read only, s = secondary
Flgs Name                             Flgs Name                             Flgs Name
     ISSID
PL6.E3A0      #001=DUR$ECCRPT File=DUR$ECCRPT.:E05TSI                            TUE 07/29/97 14:58 Page:14


        1        1        /*M* DUR$ECCRPT - WRITE FAULT MESSAGE BASED ON ECC-ECCS CODES IN TCB */
        2        2        /*T***********************************************************/
        3        3        /*T*                                                         */
        4        4        /*T* Copyright (c) Bull HN Information Systems Inc., 1997    */
        5        5        /*T*                                                         */
        6        6        /*T***********************************************************/
        7        7        /*X* DMR,PLM=5,IND=5,CSU=3,EXM=0,ECU=3,MOC,DCI=5,CRT=5 */
        8        8        /*P* NAME: DUR$ECCRPT.
        9        9             DESCRIPTION: WILL PRINT A MESSAGE OF THE FORM:
       10       10               [IN DELTA:] <FAULT_NAME> @ IC/ [OPCODE]
       11       11
       12       12                       */
       13       13        /*D* NAME: DUR$ECCRPT.
       14       14             INPUT: WHOS_FAULT.
       15       15
       16       16                  0 = User Land fault
       17       17                  1 = Fault in DELTA - Prefix with '** IN DELTA:'
       18       18                  2 = Fault on derailed instruction - use S_D>.SAVEIC
       19       19                      instead of ic from TCB, since TCB may point to
       20       20                      the special location.
       21       21                  3 = XEQ fault - Don't use any ic, and prefix with
       22       22                      'DURING XEQ:'.
       23       23                  4 = Entry to DDA$DELTA - Report from TCB, used for
       24       24                      debugging, prefix with '** FOR USER'.
       25       25                  5 = Entry to DUX$XCON1 - Report from TCB, used for
       26       26                      debugging, prefix with '** DELTA XCON'.
       27       27                  6 = ALTRET from the M$DRTN in DDA$DELTA - Report from the
       28       28                      TCB, used for debugging, prefix with '** DRTN ALT'.
       29       29                                     */
       30       30        DUR$ECCRPT: PROC (WHOS_FAULT);

     30  2 000000   000000 700200 xent  DUR$ECCRPT   TSX0  ! X66_AUTO_1
         2 000001   000026 000001                    ZERO    22,1

       31       31    1   DCL REM UBIN;
       32       32    1   DCL BB$ PTR;
PL6.E3A0      #001=DUR$ECCRPT File=DUR$ECCRPT.:E05TSI                            TUE 07/29/97 14:58 Page:15
       33       33    1   DCL NCARS SBIN;
       34       34    1   DCL IC UBIN;
       35       35    1   DCL WHOS_FAULT UBIN;
       36       36    1   DCL ADD_INST BIT(1);
       37       37    1   DCL JITERR BIT(1);
       38       38    1   DCL D_XDELTA BIT(1) SYMREF;
       39       39    1   DCL UBIN36 UBIN BASED;
       40       40    1   DCL CHAR2 CHAR(2) BASED;
       41       41    1   DCL 1 IND BASED UNAL,
       42       42    1         2 * BIT(3),
       43       43    1         2 OV BIT(1),
       44       44    1         2 EXPOV BIT(1),
       45       45    1         2 EXPUN BIT(1);
       46       46        %INCLUDE B$SS;
       47      225        %INCLUDE CP_6;
       48      306        %FPT_DRTN(FPTN=FPT$DRTN,STCLASS=BASED);
       49      330        %INCLUDE B$JIT;
       50      620        %INCLUDE M_INFO_C;
       51      760        %B$EXCFR;
       52      778        %B$TCB;
       53      781        %B$XCON;
       54      791        %B$FLT;
       55      843        %B$EXCRTN;
       56      846        %SUB_EXC;
       57      893        %SUB_ECCDELTA;
       58      930        %SUB B$EXCFR= B$TCB$->B$TCB.STK$->B$EXCFR;
       59      931        %SUB B$XCON = B$TCB$->B$TCB.STK$->B$XCON;
       60      932        %INCLUDE DD_ERR_C;
       61     1329        %INCLUDE XUH_MACRO_C;
       62     1413        %INCLUDE DD_SD_M;
       63     2749        %S_D;
       64     4067        %INCLUDE DD_SUBS_C;
       65     4338        %INCLUDE DD_DEBUG_C;
       66     4359        %INCLUDE DD$DITEM;
       12+    4462             %LIST;
       13+    4463    1        DCL SDD$ PTR;
       14+    4464    1        DCL ZITEM$ PTR;
PL6.E3A0      #001=DUR$ECCRPT File=DUR$ECCRPT.:E05TSI                            TUE 07/29/97 14:58 Page:16
       15+    4465    1        DCL SDD_L6$ PTR;
       16+    4466    1        DCL ZITEM_L6$ PTR;
       67     5040    1   DCL UIS$ PTR SYMREF;
       68     5041    1   DCL B$TCB$ PTR SYMREF;
       69     5042    1   DCL B$JIT$ PTR SYMREF;
       70     5043    1   DCL DDR$MOVE ENTRY(4) ALTRET;
       71     5044    1   DCL DDR$BINTXT ENTRY(4);
       72     5045    1   DCL DDR$INSTR  ENTRY(1) ALTRET;
       73     5046    1   DCL DDR$POSIT ENTRY(5) ALTRET;
       74     5047    1   DCL DDQ$WRITE ENTRY(2);
       75     5048    1   DCL DDE$ERROR ENTRY;
       76     5049    1   DCL DUE$UERRMSG ENTRY;
       77     5050                                                /**/
       78     5051    1        ADD_INST = '0'B;

   5051  2 000002   200010 450100                    STZ     ADD_INST,,AUTO

       79     5052    1        JITERR = '0'B;

   5052  2 000003   200011 450100                    STZ     JITERR,,AUTO

       80     5053    1        S_D.ERROR = 0;

   5053  2 000004   000000 470400 xsym               LDP0    S_D$
         2 000005   000013 450100                    STZ     11,,PR0

       81     5054    1        REM = SIZEC(S_D.OUTPUT);

   5054  2 000006   004000 235007                    LDA     2048,DL
         2 000007   200004 755100                    STA     REM,,AUTO

       82     5055    1        BB$ = ADDR(S_D.OUTPUT);

   5055  2 000010   000000 236000 xsym               LDQ     S_D$
         2 000011   005335 036003                    ADLQ    2781,DU
         2 000012   200005 756100                    STQ     BB$,,AUTO

PL6.E3A0      #001=DUR$ECCRPT File=DUR$ECCRPT.:E05TSI                            TUE 07/29/97 14:58 Page:17
       83     5056    1        S_D.OUTPUT = ' ';

   5056  2 000013   040100 100400                    MLR     fill='040'O
         2 000014   000035 000001 xsym               ADSC9   B_VECTNIL+29             cn=0,n=1
         2 000015   005335 004000                    ADSC9   2781,,PR0                cn=0,n=2048

       84     5057    1        IC = B$TCB$->B$TCB.STK$->B$SS.IC + S_D.ISBASE;

   5057  2 000016   000000 471400 xsym               LDP1    B$TCB$
         2 000017   100001 473500                    LDP3    1,,PR1
         2 000020   300004 236100                    LDQ     4,,PR3
         2 000021   000022 772000                    QRL     18
         2 000022   000720 036100                    ADLQ    464,,PR0
         2 000023   200007 756100                    STQ     IC,,AUTO

       85     5058    2        DO CASE (WHOS_FAULT);

   5058  2 000024   200003 473500                    LDP3    @WHOS_FAULT,,AUTO
         2 000025   300000 235100                    LDA     0,,PR3
         2 000026   000007 115007                    CMPA    7,DL
         2 000027   000031 602005 2                  TNC     s:5058+5,AL
         2 000030   000126 710000 2                  TRA     s:5073
         2 000031   000126 710000 2                  TRA     s:5073
         2 000032   000040 710000 2                  TRA     s:5060
         2 000033   000126 710000 2                  TRA     s:5073
         2 000034   000053 710000 2                  TRA     s:5062
         2 000035   000066 710000 2                  TRA     s:5064
         2 000036   000101 710000 2                  TRA     s:5066
         2 000037   000114 710000 2                  TRA     s:5068

       86     5059    2          CASE (ECCRPT_DELTA);             /* Delta did it */

       87     5060    2             CALL DDR$MOVE('**IN DELTA: ', 12, BB$, REM) ALTRET(TOO_BIG);

   5060  2 000040   200004 634500                    EPPR4   REM,,AUTO
         2 000041   200023 454500                    STP4    JITERR+10,,AUTO
         2 000042   200005 635500                    EPPR5   BB$,,AUTO
PL6.E3A0      #001=DUR$ECCRPT File=DUR$ECCRPT.:E05TSI                            TUE 07/29/97 14:58 Page:18
         2 000043   200022 455500                    STP5    JITERR+9,,AUTO
         2 000044   000002 237000 3                  LDAQ    2
         2 000045   200020 757100                    STAQ    JITERR+7,,AUTO
         2 000046   200020 630500                    EPPR0   JITERR+7,,AUTO
         2 000047   000022 631400 xsym               EPPR1   B_VECTNIL+18
         2 000050   000000 701000 xent               TSX1    DDR$MOVE
         2 000051   002212 702000 2                  TSX2    TOO_BIG
         2 000052   000126 710000 2                  TRA     s:5073

       88     5061    2          CASE (ECCRPT_XEQ);

       89     5062    2             CALL DDR$MOVE('DURING XEQ: ', 12, BB$, REM) ALTRET(TOO_BIG);

   5062  2 000053   200004 634500                    EPPR4   REM,,AUTO
         2 000054   200023 454500                    STP4    JITERR+10,,AUTO
         2 000055   200005 635500                    EPPR5   BB$,,AUTO
         2 000056   200022 455500                    STP5    JITERR+9,,AUTO
         2 000057   000004 237000 3                  LDAQ    4
         2 000060   200020 757100                    STAQ    JITERR+7,,AUTO
         2 000061   200020 630500                    EPPR0   JITERR+7,,AUTO
         2 000062   000022 631400 xsym               EPPR1   B_VECTNIL+18
         2 000063   000000 701000 xent               TSX1    DDR$MOVE
         2 000064   002212 702000 2                  TSX2    TOO_BIG
         2 000065   000126 710000 2                  TRA     s:5073

       90     5063    2          CASE (ECCRPT_FORUSER);

       91     5064    2             CALL DDR$MOVE('** FOR USER: ', 13, BB$, REM) ALTRET(TOO_BIG);

   5064  2 000066   200004 634500                    EPPR4   REM,,AUTO
         2 000067   200023 454500                    STP4    JITERR+10,,AUTO
         2 000070   200005 635500                    EPPR5   BB$,,AUTO
         2 000071   200022 455500                    STP5    JITERR+9,,AUTO
         2 000072   000006 237000 3                  LDAQ    6
         2 000073   200020 757100                    STAQ    JITERR+7,,AUTO
         2 000074   200020 630500                    EPPR0   JITERR+7,,AUTO
         2 000075   000022 631400 xsym               EPPR1   B_VECTNIL+18
PL6.E3A0      #001=DUR$ECCRPT File=DUR$ECCRPT.:E05TSI                            TUE 07/29/97 14:58 Page:19
         2 000076   000000 701000 xent               TSX1    DDR$MOVE
         2 000077   002212 702000 2                  TSX2    TOO_BIG
         2 000100   000126 710000 2                  TRA     s:5073

       92     5065    2          CASE (ECCRPT_DELTAXCON);

       93     5066    2             CALL DDR$MOVE('** DELTA XCON: ', 15, BB$, REM) ALTRET(TOO_BIG);

   5066  2 000101   200004 634500                    EPPR4   REM,,AUTO
         2 000102   200023 454500                    STP4    JITERR+10,,AUTO
         2 000103   200005 635500                    EPPR5   BB$,,AUTO
         2 000104   200022 455500                    STP5    JITERR+9,,AUTO
         2 000105   000012 237000 3                  LDAQ    10
         2 000106   200020 757100                    STAQ    JITERR+7,,AUTO
         2 000107   200020 630500                    EPPR0   JITERR+7,,AUTO
         2 000110   000022 631400 xsym               EPPR1   B_VECTNIL+18
         2 000111   000000 701000 xent               TSX1    DDR$MOVE
         2 000112   002212 702000 2                  TSX2    TOO_BIG
         2 000113   000126 710000 2                  TRA     s:5073

       94     5067    2          CASE (ECCRPT_DRTNALT);

       95     5068    2             CALL DDR$MOVE('** DRTN ALT: ', 13, BB$, REM) ALTRET(TOO_BIG);

   5068  2 000114   200004 634500                    EPPR4   REM,,AUTO
         2 000115   200023 454500                    STP4    JITERR+10,,AUTO
         2 000116   200005 635500                    EPPR5   BB$,,AUTO
         2 000117   200022 455500                    STP5    JITERR+9,,AUTO
         2 000120   000014 237000 3                  LDAQ    12
         2 000121   200020 757100                    STAQ    JITERR+7,,AUTO
         2 000122   200020 630500                    EPPR0   JITERR+7,,AUTO
         2 000123   000022 631400 xsym               EPPR1   B_VECTNIL+18
         2 000124   000000 701000 xent               TSX1    DDR$MOVE
         2 000125   002212 702000 2                  TSX2    TOO_BIG

       96     5069    2          END;

PL6.E3A0      #001=DUR$ECCRPT File=DUR$ECCRPT.:E05TSI                            TUE 07/29/97 14:58 Page:20
       97     5070                                                /**/
       98     5071                                                /* Build why */
       99     5072                                                /**/
      100     5073    2        DO CASE(B$EXCFR.ECC);              /* Major case ecc */

   5073  2 000126   000000 470400 xsym               LDP0    B$TCB$
         2 000127   000001 471500                    LDP1    1,,PR0
         2 000130   100000 720100                    LXL0    0,,PR1
         2 000131   000141 100003                    CMPX0   97,DU
         2 000132   000134 602010 2                  TNC     s:5073+6,X0
         2 000133   001606 710000 2                  TRA     s:5214
         2 000134   000275 710000 2                  TRA     s:5075
         2 000135   000310 710000 2                  TRA     s:5077
         2 000136   000357 710000 2                  TRA     s:5082
         2 000137   000434 710000 2                  TRA     s:5089
         2 000140   001126 710000 2                  TRA     s:5144
         2 000141   001162 710000 2                  TRA     s:5152
         2 000142   001347 710000 2                  TRA     s:5179
         2 000143   001422 710000 2                  TRA     s:5191
         2 000144   001606 710000 2                  TRA     s:5214
         2 000145   001606 710000 2                  TRA     s:5214
         2 000146   001606 710000 2                  TRA     s:5214
         2 000147   001606 710000 2                  TRA     s:5214
         2 000150   001606 710000 2                  TRA     s:5214
         2 000151   001606 710000 2                  TRA     s:5214
         2 000152   001606 710000 2                  TRA     s:5214
         2 000153   001606 710000 2                  TRA     s:5214
         2 000154   001606 710000 2                  TRA     s:5214
         2 000155   001606 710000 2                  TRA     s:5214
         2 000156   001606 710000 2                  TRA     s:5214
         2 000157   001606 710000 2                  TRA     s:5214
         2 000160   001606 710000 2                  TRA     s:5214
         2 000161   001606 710000 2                  TRA     s:5214
         2 000162   001606 710000 2                  TRA     s:5214
         2 000163   001606 710000 2                  TRA     s:5214
         2 000164   001606 710000 2                  TRA     s:5214
         2 000165   001606 710000 2                  TRA     s:5214
PL6.E3A0      #001=DUR$ECCRPT File=DUR$ECCRPT.:E05TSI                            TUE 07/29/97 14:58 Page:21
         2 000166   001606 710000 2                  TRA     s:5214
         2 000167   001606 710000 2                  TRA     s:5214
         2 000170   001606 710000 2                  TRA     s:5214
         2 000171   001606 710000 2                  TRA     s:5214
         2 000172   001606 710000 2                  TRA     s:5214
         2 000173   001606 710000 2                  TRA     s:5214
         2 000174   001606 710000 2                  TRA     s:5214
         2 000175   001606 710000 2                  TRA     s:5214
         2 000176   001606 710000 2                  TRA     s:5214
         2 000177   001606 710000 2                  TRA     s:5214
         2 000200   001606 710000 2                  TRA     s:5214
         2 000201   001606 710000 2                  TRA     s:5214
         2 000202   001606 710000 2                  TRA     s:5214
         2 000203   001606 710000 2                  TRA     s:5214
         2 000204   001606 710000 2                  TRA     s:5214
         2 000205   001606 710000 2                  TRA     s:5214
         2 000206   001606 710000 2                  TRA     s:5214
         2 000207   001606 710000 2                  TRA     s:5214
         2 000210   001606 710000 2                  TRA     s:5214
         2 000211   001606 710000 2                  TRA     s:5214
         2 000212   001606 710000 2                  TRA     s:5214
         2 000213   001606 710000 2                  TRA     s:5214
         2 000214   001606 710000 2                  TRA     s:5214
         2 000215   001606 710000 2                  TRA     s:5214
         2 000216   001606 710000 2                  TRA     s:5214
         2 000217   001606 710000 2                  TRA     s:5214
         2 000220   001606 710000 2                  TRA     s:5214
         2 000221   001606 710000 2                  TRA     s:5214
         2 000222   001606 710000 2                  TRA     s:5214
         2 000223   001606 710000 2                  TRA     s:5214
         2 000224   001606 710000 2                  TRA     s:5214
         2 000225   001606 710000 2                  TRA     s:5214
         2 000226   001606 710000 2                  TRA     s:5214
         2 000227   001606 710000 2                  TRA     s:5214
         2 000230   001606 710000 2                  TRA     s:5214
         2 000231   001606 710000 2                  TRA     s:5214
         2 000232   001606 710000 2                  TRA     s:5214
PL6.E3A0      #001=DUR$ECCRPT File=DUR$ECCRPT.:E05TSI                            TUE 07/29/97 14:58 Page:22
         2 000233   001606 710000 2                  TRA     s:5214
         2 000234   001606 710000 2                  TRA     s:5214
         2 000235   001606 710000 2                  TRA     s:5214
         2 000236   001606 710000 2                  TRA     s:5214
         2 000237   001606 710000 2                  TRA     s:5214
         2 000240   001606 710000 2                  TRA     s:5214
         2 000241   001606 710000 2                  TRA     s:5214
         2 000242   001606 710000 2                  TRA     s:5214
         2 000243   001606 710000 2                  TRA     s:5214
         2 000244   001606 710000 2                  TRA     s:5214
         2 000245   001606 710000 2                  TRA     s:5214
         2 000246   001606 710000 2                  TRA     s:5214
         2 000247   001606 710000 2                  TRA     s:5214
         2 000250   001606 710000 2                  TRA     s:5214
         2 000251   001606 710000 2                  TRA     s:5214
         2 000252   001606 710000 2                  TRA     s:5214
         2 000253   001606 710000 2                  TRA     s:5214
         2 000254   001606 710000 2                  TRA     s:5214
         2 000255   001606 710000 2                  TRA     s:5214
         2 000256   001606 710000 2                  TRA     s:5214
         2 000257   001606 710000 2                  TRA     s:5214
         2 000260   001606 710000 2                  TRA     s:5214
         2 000261   001606 710000 2                  TRA     s:5214
         2 000262   001606 710000 2                  TRA     s:5214
         2 000263   001606 710000 2                  TRA     s:5214
         2 000264   001606 710000 2                  TRA     s:5214
         2 000265   001606 710000 2                  TRA     s:5214
         2 000266   001144 710000 2                  TRA     s:5148
         2 000267   001606 710000 2                  TRA     s:5214
         2 000270   001606 710000 2                  TRA     s:5214
         2 000271   001606 710000 2                  TRA     s:5214
         2 000272   001606 710000 2                  TRA     s:5214
         2 000273   001606 710000 2                  TRA     s:5214
         2 000274   000721 710000 2                  TRA     s:5116

      101     5074    2          CASE(%ECC_TIMER#);               /* Timer runout */

PL6.E3A0      #001=DUR$ECCRPT File=DUR$ECCRPT.:E05TSI                            TUE 07/29/97 14:58 Page:23
      102     5075    2             CALL DDR$MOVE('TIMER RUNOUT',12,BB$,REM) ALTRET(TOO_BIG);

   5075  2 000275   200004 633500                    EPPR3   REM,,AUTO
         2 000276   200023 453500                    STP3    JITERR+10,,AUTO
         2 000277   200005 631500                    EPPR1   BB$,,AUTO
         2 000300   200022 451500                    STP1    JITERR+9,,AUTO
         2 000301   000016 237000 3                  LDAQ    14
         2 000302   200020 757100                    STAQ    JITERR+7,,AUTO
         2 000303   200020 630500                    EPPR0   JITERR+7,,AUTO
         2 000304   000022 631400 xsym               EPPR1   B_VECTNIL+18
         2 000305   000000 701000 xent               TSX1    DDR$MOVE
         2 000306   002212 702000 2                  TSX2    TOO_BIG
         2 000307   001607 710000 2                  TRA     s:5217

      103     5076    2          CASE(%ECC_EVENT#);               /* Event complete */

      104     5077    2             CALL DDR$MOVE('EVENT ',6,BB$,REM) ALTRET(TOO_BIG);

   5077  2 000310   200004 633500                    EPPR3   REM,,AUTO
         2 000311   200023 453500                    STP3    JITERR+10,,AUTO
         2 000312   200005 631500                    EPPR1   BB$,,AUTO
         2 000313   200022 451500                    STP1    JITERR+9,,AUTO
         2 000314   000020 237000 3                  LDAQ    16
         2 000315   200020 757100                    STAQ    JITERR+7,,AUTO
         2 000316   200020 630500                    EPPR0   JITERR+7,,AUTO
         2 000317   000022 631400 xsym               EPPR1   B_VECTNIL+18
         2 000320   000000 701000 xent               TSX1    DDR$MOVE
         2 000321   002212 702000 2                  TSX2    TOO_BIG

      105     5078    2             CALL DDR$BINTXT(BB$, B$EXCFR.EVID, %OCT_FMT, NCARS);

   5078  2 000322   000000 470400 xsym               LDP0    B$TCB$
         2 000323   000001 471500                    LDP1    1,,PR0
         2 000324   200006 633500                    EPPR3   NCARS,,AUTO
         2 000325   200023 453500                    STP3    JITERR+10,,AUTO
         2 000326   000011 236000 3                  LDQ     9
         2 000327   200022 756100                    STQ     JITERR+9,,AUTO
PL6.E3A0      #001=DUR$ECCRPT File=DUR$ECCRPT.:E05TSI                            TUE 07/29/97 14:58 Page:24
         2 000330   100101 634500                    EPPR4   65,,PR1
         2 000331   200021 454500                    STP4    JITERR+8,,AUTO
         2 000332   200005 631500                    EPPR1   BB$,,AUTO
         2 000333   200020 451500                    STP1    JITERR+7,,AUTO
         2 000334   200020 630500                    EPPR0   JITERR+7,,AUTO
         2 000335   000022 631400 xsym               EPPR1   B_VECTNIL+18
         2 000336   000000 701000 xent               TSX1    DDR$BINTXT
         2 000337   000000 011000                    NOP     0

      106     5079    2             BB$ = PINCRC(BB$,NCARS);

   5079  2 000340   200006 236100                    LDQ     NCARS,,AUTO
         2 000341   000020 736000                    QLS     16
         2 000342   200005 036100                    ADLQ    BB$,,AUTO
         2 000343   200005 756100                    STQ     BB$,,AUTO

      107     5080    2             CALL DDR$MOVE(' COMPLETE',9,BB$,REM) ALTRET(TOO_BIG);

   5080  2 000344   200004 630500                    EPPR0   REM,,AUTO
         2 000345   200023 450500                    STP0    JITERR+10,,AUTO
         2 000346   200005 631500                    EPPR1   BB$,,AUTO
         2 000347   200022 451500                    STP1    JITERR+9,,AUTO
         2 000350   000022 237000 3                  LDAQ    18
         2 000351   200020 757100                    STAQ    JITERR+7,,AUTO
         2 000352   200020 630500                    EPPR0   JITERR+7,,AUTO
         2 000353   000022 631400 xsym               EPPR1   B_VECTNIL+18
         2 000354   000000 701000 xent               TSX1    DDR$MOVE
         2 000355   002212 702000 2                  TSX2    TOO_BIG
         2 000356   001607 710000 2                  TRA     s:5217

      108     5081    2          CASE(%ECC_INT#);                 /* Break */

      109     5082    2             CALL DDR$MOVE('BREAK',5,BB$,REM) ALTRET(TOO_BIG);

   5082  2 000357   200004 633500                    EPPR3   REM,,AUTO
         2 000360   200023 453500                    STP3    JITERR+10,,AUTO
         2 000361   200005 631500                    EPPR1   BB$,,AUTO
PL6.E3A0      #001=DUR$ECCRPT File=DUR$ECCRPT.:E05TSI                            TUE 07/29/97 14:58 Page:25
         2 000362   200022 451500                    STP1    JITERR+9,,AUTO
         2 000363   000024 237000 3                  LDAQ    20
         2 000364   200020 757100                    STAQ    JITERR+7,,AUTO
         2 000365   200020 630500                    EPPR0   JITERR+7,,AUTO
         2 000366   000022 631400 xsym               EPPR1   B_VECTNIL+18
         2 000367   000000 701000 xent               TSX1    DDR$MOVE
         2 000370   002212 702000 2                  TSX2    TOO_BIG

      110     5083    2             IF B$TCB$->B$TCB.STK$->B$SS.IR.MIR

   5083  2 000371   000000 470400 xsym               LDP0    B$TCB$
         2 000372   000001 471500                    LDP1    1,,PR0
         2 000373   100004 236100                    LDQ     4,,PR1
         2 000374   000040 316007                    CANQ    32,DL
         2 000375   000410 600000 2                  TZE     s:5085

      111     5084    2            THEN CALL DDR$MOVE(' during multi-word EIS', 22, BB$, REM) ALTRET(TOO_BIG)
              5084                      ;

   5084  2 000376   200004 633500                    EPPR3   REM,,AUTO
         2 000377   200023 453500                    STP3    JITERR+10,,AUTO
         2 000400   200005 631500                    EPPR1   BB$,,AUTO
         2 000401   200022 451500                    STP1    JITERR+9,,AUTO
         2 000402   000030 237000 3                  LDAQ    24
         2 000403   200020 757100                    STAQ    JITERR+7,,AUTO
         2 000404   200020 630500                    EPPR0   JITERR+7,,AUTO
         2 000405   000022 631400 xsym               EPPR1   B_VECTNIL+18
         2 000406   000000 701000 xent               TSX1    DDR$MOVE
         2 000407   002212 702000 2                  TSX2    TOO_BIG

      112     5085    2             IF IC >= %LIBLO*1024 - %ISEGLO*1024 AND B$JIT.TDP <= %LIBLO

   5085  2 000410   200007 235100                    LDA     IC,,AUTO
         2 000411   700000 115007                    CMPA    -32768,DL
         2 000412   001607 602000 2                  TNC     s:5217
         2 000413   000000 470400 xsym               LDP0    B$JIT$
         2 000414   000204 220100                    LDX0    132,,PR0
PL6.E3A0      #001=DUR$ECCRPT File=DUR$ECCRPT.:E05TSI                            TUE 07/29/97 14:58 Page:26
         2 000415   000441 100003                    CMPX0   289,DU
         2 000416   001607 603000 2                  TRC     s:5217
         2 000417   000215 721100                    LXL1    141,,PR0
         2 000420   001607 601000 2                  TNZ     s:5217

      113     5086    2               AND B$JIT.PCL = 0
      114     5087    2             THEN CALL DDR$MOVE(' in shared library', 18, BB$, REM) ALTRET(TOO_BIG);

   5087  2 000421   200004 631500                    EPPR1   REM,,AUTO
         2 000422   200023 451500                    STP1    JITERR+10,,AUTO
         2 000423   200005 633500                    EPPR3   BB$,,AUTO
         2 000424   200022 453500                    STP3    JITERR+9,,AUTO
         2 000425   000032 237000 3                  LDAQ    26
         2 000426   200020 757100                    STAQ    JITERR+7,,AUTO
         2 000427   200020 630500                    EPPR0   JITERR+7,,AUTO
         2 000430   000022 631400 xsym               EPPR1   B_VECTNIL+18
         2 000431   000000 701000 xent               TSX1    DDR$MOVE
         2 000432   002212 702000 2                  TSX2    TOO_BIG
         2 000433   001607 710000 2                  TRA     s:5217

      115     5088    2          CASE(%ECC_XCON#);                /* Xcon */

      116     5089    2             IF B$XCON.RNST.ERR THEN

   5089  2 000434   100101 430100                    FSZN    65,,PR1
         2 000435   000451 605000 2                  TPL     s:5091

      117     5090    2                  CALL DDR$MOVE('M$ERR',5,BB$,REM) ALTRET(TOO_BIG);

   5090  2 000436   200004 633500                    EPPR3   REM,,AUTO
         2 000437   200023 453500                    STP3    JITERR+10,,AUTO
         2 000440   200005 631500                    EPPR1   BB$,,AUTO
         2 000441   200022 451500                    STP1    JITERR+9,,AUTO
         2 000442   000034 237000 3                  LDAQ    28
         2 000443   200020 757100                    STAQ    JITERR+7,,AUTO
         2 000444   200020 630500                    EPPR0   JITERR+7,,AUTO
         2 000445   000022 631400 xsym               EPPR1   B_VECTNIL+18
PL6.E3A0      #001=DUR$ECCRPT File=DUR$ECCRPT.:E05TSI                            TUE 07/29/97 14:58 Page:27
         2 000446   000000 701000 xent               TSX1    DDR$MOVE
         2 000447   002212 702000 2                  TSX2    TOO_BIG
         2 000450   001607 710000 2                  TRA     s:5217

      118     5091    2             ELSE IF B$XCON.RNST.XXX THEN

   5091  2 000451   100101 236100                    LDQ     65,,PR1
         2 000452   002000 316003                    CANQ    1024,DU
         2 000453   000467 600000 2                  TZE     s:5093

      119     5092    2                       CALL DDR$MOVE('M$XXX',5,BB$,REM) ALTRET(TOO_BIG);

   5092  2 000454   200004 633500                    EPPR3   REM,,AUTO
         2 000455   200023 453500                    STP3    JITERR+10,,AUTO
         2 000456   200005 631500                    EPPR1   BB$,,AUTO
         2 000457   200022 451500                    STP1    JITERR+9,,AUTO
         2 000460   000036 237000 3                  LDAQ    30
         2 000461   200020 757100                    STAQ    JITERR+7,,AUTO
         2 000462   200020 630500                    EPPR0   JITERR+7,,AUTO
         2 000463   000022 631400 xsym               EPPR1   B_VECTNIL+18
         2 000464   000000 701000 xent               TSX1    DDR$MOVE
         2 000465   002212 702000 2                  TSX2    TOO_BIG
         2 000466   001607 710000 2                  TRA     s:5217

      120     5093    2                  ELSE IF B$XCON.RNST = '0'B

   5093  2 000467   777000 316003                    CANQ    -512,DU
         2 000470   000571 601000 2                  TNZ     s:5101

      121     5094    3                       THEN DO;

      122     5095    3                            IF B$XCON.CECCB.LNK THEN CALL DDR$MOVE('EXIT for M$LDTRC',
              5095                                     16, BB$, REM) ALTRET(TOO_BIG);

   5095  2 000471   100100 236100                    LDQ     64,,PR1
         2 000472   010000 316003                    CANQ    4096,DU
         2 000473   000507 600000 2                  TZE     s:5096
PL6.E3A0      #001=DUR$ECCRPT File=DUR$ECCRPT.:E05TSI                            TUE 07/29/97 14:58 Page:28

   5095  2 000474   200004 633500                    EPPR3   REM,,AUTO
         2 000475   200023 453500                    STP3    JITERR+10,,AUTO
         2 000476   200005 631500                    EPPR1   BB$,,AUTO
         2 000477   200022 451500                    STP1    JITERR+9,,AUTO
         2 000500   000042 237000 3                  LDAQ    34
         2 000501   200020 757100                    STAQ    JITERR+7,,AUTO
         2 000502   200020 630500                    EPPR0   JITERR+7,,AUTO
         2 000503   000022 631400 xsym               EPPR1   B_VECTNIL+18
         2 000504   000000 701000 xent               TSX1    DDR$MOVE
         2 000505   002212 702000 2                  TSX2    TOO_BIG
         2 000506   001607 710000 2                  TRA     s:5217

      123     5096    3                            ELSE IF B$XCON.CECCB.SAVE THEN CALL DDR$MOVE(
              5096                                     'EXIT for M$SAVE', 15, BB$, REM) ALTRET(TOO_BIG);

   5096  2 000507   004000 316003                    CANQ    2048,DU
         2 000510   000524 600000 2                  TZE     s:5097

   5096  2 000511   200004 633500                    EPPR3   REM,,AUTO
         2 000512   200023 453500                    STP3    JITERR+10,,AUTO
         2 000513   200005 631500                    EPPR1   BB$,,AUTO
         2 000514   200022 451500                    STP1    JITERR+9,,AUTO
         2 000515   000044 237000 3                  LDAQ    36
         2 000516   200020 757100                    STAQ    JITERR+7,,AUTO
         2 000517   200020 630500                    EPPR0   JITERR+7,,AUTO
         2 000520   000022 631400 xsym               EPPR1   B_VECTNIL+18
         2 000521   000000 701000 xent               TSX1    DDR$MOVE
         2 000522   002212 702000 2                  TSX2    TOO_BIG
         2 000523   001607 710000 2                  TRA     s:5217

      124     5097    3                                 ELSE IF B$XCON.CECCB.CPSAVE THEN CALL DDR$MOVE(
              5097                                          'EXIT for CTRL Y SAVE', 20, BB$, REM) ALTRET(
              5097                                          TOO_BIG);

   5097  2 000524   002000 316003                    CANQ    1024,DU
         2 000525   000541 600000 2                  TZE     s:5098
PL6.E3A0      #001=DUR$ECCRPT File=DUR$ECCRPT.:E05TSI                            TUE 07/29/97 14:58 Page:29

   5097  2 000526   200004 633500                    EPPR3   REM,,AUTO
         2 000527   200023 453500                    STP3    JITERR+10,,AUTO
         2 000530   200005 631500                    EPPR1   BB$,,AUTO
         2 000531   200022 451500                    STP1    JITERR+9,,AUTO
         2 000532   000046 237000 3                  LDAQ    38
         2 000533   200020 757100                    STAQ    JITERR+7,,AUTO
         2 000534   200020 630500                    EPPR0   JITERR+7,,AUTO
         2 000535   000022 631400 xsym               EPPR1   B_VECTNIL+18
         2 000536   000000 701000 xent               TSX1    DDR$MOVE
         2 000537   002212 702000 2                  TSX2    TOO_BIG
         2 000540   001607 710000 2                  TRA     s:5217

      125     5098    3                                      ELSE IF B$XCON.CECCB.GET THEN CALL DDR$MOVE(
              5098                                              'EXIT for GET', 12, BB$, REM) ALTRET(TOO_BIG)
              5098                                               ;

   5098  2 000541   100100 430100                    FSZN    64,,PR1
         2 000542   000556 605000 2                  TPL     s:5099

   5098  2 000543   200004 633500                    EPPR3   REM,,AUTO
         2 000544   200023 453500                    STP3    JITERR+10,,AUTO
         2 000545   200005 631500                    EPPR1   BB$,,AUTO
         2 000546   200022 451500                    STP1    JITERR+9,,AUTO
         2 000547   000050 237000 3                  LDAQ    40
         2 000550   200020 757100                    STAQ    JITERR+7,,AUTO
         2 000551   200020 630500                    EPPR0   JITERR+7,,AUTO
         2 000552   000022 631400 xsym               EPPR1   B_VECTNIL+18
         2 000553   000000 701000 xent               TSX1    DDR$MOVE
         2 000554   002212 702000 2                  TSX2    TOO_BIG
         2 000555   001607 710000 2                  TRA     s:5217

      126     5099    3                                           ELSE CALL DDR$MOVE('M$EXIT',6,BB$,REM)
              5099                                                    ALTRET(TOO_BIG);

   5099  2 000556   200004 633500                    EPPR3   REM,,AUTO
         2 000557   200023 453500                    STP3    JITERR+10,,AUTO
PL6.E3A0      #001=DUR$ECCRPT File=DUR$ECCRPT.:E05TSI                            TUE 07/29/97 14:58 Page:30
         2 000560   200005 631500                    EPPR1   BB$,,AUTO
         2 000561   200022 451500                    STP1    JITERR+9,,AUTO
         2 000562   000052 237000 3                  LDAQ    42
         2 000563   200020 757100                    STAQ    JITERR+7,,AUTO
         2 000564   200020 630500                    EPPR0   JITERR+7,,AUTO
         2 000565   000022 631400 xsym               EPPR1   B_VECTNIL+18
         2 000566   000000 701000 xent               TSX1    DDR$MOVE
         2 000567   002212 702000 2                  TSX2    TOO_BIG

      127     5100    3                          END;

   5100  2 000570   001607 710000 2                  TRA     s:5217

      128     5101    3                       ELSE IF B$XCON.RNST.MABRT THEN DO;

   5101  2 000571   010000 316003                    CANQ    4096,DU
         2 000572   000610 600000 2                  TZE     s:5105

      129     5102    3                                 JITERR = '1'B;

   5102  2 000573   400000 236003                    LDQ     -131072,DU
         2 000574   200011 756100                    STQ     JITERR,,AUTO

      130     5103    3                                CALL DDR$MOVE('The monitor has aborted you',27,BB$,REM
              5103                                          ) ALTRET(TOO_BIG);

   5103  2 000575   200004 633500                    EPPR3   REM,,AUTO
         2 000576   200023 453500                    STP3    JITERR+10,,AUTO
         2 000577   200005 631500                    EPPR1   BB$,,AUTO
         2 000600   200022 451500                    STP1    JITERR+9,,AUTO
         2 000601   000056 237000 3                  LDAQ    46
         2 000602   200020 757100                    STAQ    JITERR+7,,AUTO
         2 000603   200020 630500                    EPPR0   JITERR+7,,AUTO
         2 000604   000022 631400 xsym               EPPR1   B_VECTNIL+18
         2 000605   000000 701000 xent               TSX1    DDR$MOVE
         2 000606   002212 702000 2                  TSX2    TOO_BIG

PL6.E3A0      #001=DUR$ECCRPT File=DUR$ECCRPT.:E05TSI                            TUE 07/29/97 14:58 Page:31
      131     5104    3                               END;

   5104  2 000607   001607 710000 2                  TRA     s:5217

      132     5105    2                            ELSE IF B$XCON.RNST.MONXXX THEN CALL DDR$MOVE('MONXXX', 6,
              5105                                     BB$, REM) ALTRET(TOO_BIG);

   5105  2 000610   040000 316003                    CANQ    16384,DU
         2 000611   000625 600000 2                  TZE     s:5106

   5105  2 000612   200004 633500                    EPPR3   REM,,AUTO
         2 000613   200023 453500                    STP3    JITERR+10,,AUTO
         2 000614   200005 631500                    EPPR1   BB$,,AUTO
         2 000615   200022 451500                    STP1    JITERR+9,,AUTO
         2 000616   000060 237000 3                  LDAQ    48
         2 000617   200020 757100                    STAQ    JITERR+7,,AUTO
         2 000620   200020 630500                    EPPR0   JITERR+7,,AUTO
         2 000621   000022 631400 xsym               EPPR1   B_VECTNIL+18
         2 000622   000000 701000 xent               TSX1    DDR$MOVE
         2 000623   002212 702000 2                  TSX2    TOO_BIG
         2 000624   001607 710000 2                  TRA     s:5217

      133     5106    2                                 ELSE IF B$XCON.RNST.SSPABRT THEN CALL DDR$MOVE(
              5106                                          'Special shared proc ABORTed', 27, BB$, REM)
              5106                                          ALTRET(TOO_BIG);

   5106  2 000625   004000 316003                    CANQ    2048,DU
         2 000626   000642 600000 2                  TZE     s:5107

   5106  2 000627   200004 633500                    EPPR3   REM,,AUTO
         2 000630   200023 453500                    STP3    JITERR+10,,AUTO
         2 000631   200005 631500                    EPPR1   BB$,,AUTO
         2 000632   200022 451500                    STP1    JITERR+9,,AUTO
         2 000633   000062 237000 3                  LDAQ    50
         2 000634   200020 757100                    STAQ    JITERR+7,,AUTO
         2 000635   200020 630500                    EPPR0   JITERR+7,,AUTO
         2 000636   000022 631400 xsym               EPPR1   B_VECTNIL+18
PL6.E3A0      #001=DUR$ECCRPT File=DUR$ECCRPT.:E05TSI                            TUE 07/29/97 14:58 Page:32
         2 000637   000000 701000 xent               TSX1    DDR$MOVE
         2 000640   002212 702000 2                  TSX2    TOO_BIG
         2 000641   001607 710000 2                  TRA     s:5217

      134     5107    2                                      ELSE IF B$XCON.RNST.OPERR THEN CALL DDR$MOVE(
              5107                                               'Operator !E keyin or !QUIT', 26, BB$, REM)
              5107                                               ALTRET(TOO_BIG);

   5107  2 000642   020000 316003                    CANQ    8192,DU
         2 000643   000657 600000 2                  TZE     s:5108

   5107  2 000644   200004 633500                    EPPR3   REM,,AUTO
         2 000645   200023 453500                    STP3    JITERR+10,,AUTO
         2 000646   200005 631500                    EPPR1   BB$,,AUTO
         2 000647   200022 451500                    STP1    JITERR+9,,AUTO
         2 000650   000064 237000 3                  LDAQ    52
         2 000651   200020 757100                    STAQ    JITERR+7,,AUTO
         2 000652   200020 630500                    EPPR0   JITERR+7,,AUTO
         2 000653   000022 631400 xsym               EPPR1   B_VECTNIL+18
         2 000654   000000 701000 xent               TSX1    DDR$MOVE
         2 000655   002212 702000 2                  TSX2    TOO_BIG
         2 000656   001607 710000 2                  TRA     s:5217

      135     5108    2                                           ELSE IF B$XCON.RNST.HANGUP THEN CALL
              5108                                                   DDR$MOVE('Line disconnect', 15, BB$, REM
              5108                                                    ) ALTRET(TOO_BIG);

   5108  2 000657   200000 316003                    CANQ    65536,DU
         2 000660   000674 600000 2                  TZE     s:5109

   5108  2 000661   200004 633500                    EPPR3   REM,,AUTO
         2 000662   200023 453500                    STP3    JITERR+10,,AUTO
         2 000663   200005 631500                    EPPR1   BB$,,AUTO
         2 000664   200022 451500                    STP1    JITERR+9,,AUTO
         2 000665   000066 237000 3                  LDAQ    54
         2 000666   200020 757100                    STAQ    JITERR+7,,AUTO
         2 000667   200020 630500                    EPPR0   JITERR+7,,AUTO
PL6.E3A0      #001=DUR$ECCRPT File=DUR$ECCRPT.:E05TSI                            TUE 07/29/97 14:58 Page:33
         2 000670   000022 631400 xsym               EPPR1   B_VECTNIL+18
         2 000671   000000 701000 xent               TSX1    DDR$MOVE
         2 000672   002212 702000 2                  TSX2    TOO_BIG
         2 000673   001607 710000 2                  TRA     s:5217

      136     5109    2                                         ELSE IF B$XCON.RNST.OPXXX THEN CALL DDR$MOVE(
              5109                                                   'The operator !X''d you', 21, BB$, REM)
              5109                                                   ALTRET(TOO_BIG);

   5109  2 000674   100101 234100                    SZN     65,,PR1
         2 000675   000711 605000 2                  TPL     s:5110

   5109  2 000676   200004 633500                    EPPR3   REM,,AUTO
         2 000677   200023 453500                    STP3    JITERR+10,,AUTO
         2 000700   200005 631500                    EPPR1   BB$,,AUTO
         2 000701   200022 451500                    STP1    JITERR+9,,AUTO
         2 000702   000072 237000 3                  LDAQ    58
         2 000703   200020 757100                    STAQ    JITERR+7,,AUTO
         2 000704   200020 630500                    EPPR0   JITERR+7,,AUTO
         2 000705   000022 631400 xsym               EPPR1   B_VECTNIL+18
         2 000706   000000 701000 xent               TSX1    DDR$MOVE
         2 000707   002212 702000 2                  TSX2    TOO_BIG
         2 000710   001607 710000 2                  TRA     s:5217

      137     5110    2                                                     ELSE IF B$XCON.RNST.LIMIT THEN
              5110                                                             CALL LIMIT_PROC ALTRET(TOO_BIG
              5110                                                              );

   5110  2 000711   100000 316003                    CANQ    32768,DU
         2 000712   000716 600000 2                  TZE     s:5112

   5110  2 000713   002216 701000 2                  TSX1    LIMIT_PROC
         2 000714   002212 702000 2                  TSX2    TOO_BIG
         2 000715   001607 710000 2                  TRA     s:5217

      138     5111    3                                                          ELSE DO;

PL6.E3A0      #001=DUR$ECCRPT File=DUR$ECCRPT.:E05TSI                            TUE 07/29/97 14:58 Page:34
      139     5112    3                                                               JITERR = '1'B;
              5112                                                                 /* Output JIT.ERR later */

   5112  2 000716   400000 236003                    LDQ     -131072,DU
         2 000717   200011 756100                    STQ     JITERR,,AUTO

      140     5113    3                                                               GOTO EH;

   5113  2 000720   002057 710000 2                  TRA     EH

      141     5114    3                                                             END;
      142     5115    2          CASE(%ECC_EXCRTN#);

      143     5116    3             DO CASE(B$EXCFR.SUBC);

   5116  2 000721   100100 721100                    LXL1    64,,PR1
         2 000722   000007 101003                    CMPX1   7,DU
         2 000723   000725 602011 2                  TNC     s:5116+4,X1
         2 000724   001125 710000 2                  TRA     s:5141
         2 000725   001125 710000 2                  TRA     s:5141
         2 000726   000734 710000 2                  TRA     s:5118
         2 000727   000747 710000 2                  TRA     s:5120
         2 000730   000762 710000 2                  TRA     s:5122
         2 000731   000775 710000 2                  TRA     s:5124
         2 000732   001010 710000 2                  TRA     s:5126
         2 000733   001023 710000 2                  TRA     s:5128

      144     5117    3               CASE(%SC_TRTN#);

      145     5118    3                  CALL DDR$MOVE('M$TRTN', 6, BB$, REM) ALTRET(TOO_BIG);

   5118  2 000734   200004 633500                    EPPR3   REM,,AUTO
         2 000735   200023 453500                    STP3    JITERR+10,,AUTO
         2 000736   200005 631500                    EPPR1   BB$,,AUTO
         2 000737   200022 451500                    STP1    JITERR+9,,AUTO
         2 000740   000074 237000 3                  LDAQ    60
         2 000741   200020 757100                    STAQ    JITERR+7,,AUTO
PL6.E3A0      #001=DUR$ECCRPT File=DUR$ECCRPT.:E05TSI                            TUE 07/29/97 14:58 Page:35
         2 000742   200020 630500                    EPPR0   JITERR+7,,AUTO
         2 000743   000022 631400 xsym               EPPR1   B_VECTNIL+18
         2 000744   000000 701000 xent               TSX1    DDR$MOVE
         2 000745   002212 702000 2                  TSX2    TOO_BIG
         2 000746   001607 710000 2                  TRA     s:5217

      146     5119    3               CASE(%SC_MERC#);

      147     5120    3                  CALL DDR$MOVE('M$MERC', 6, BB$, REM) ALTRET(TOO_BIG);

   5120  2 000747   200004 633500                    EPPR3   REM,,AUTO
         2 000750   200023 453500                    STP3    JITERR+10,,AUTO
         2 000751   200005 631500                    EPPR1   BB$,,AUTO
         2 000752   200022 451500                    STP1    JITERR+9,,AUTO
         2 000753   000076 237000 3                  LDAQ    62
         2 000754   200020 757100                    STAQ    JITERR+7,,AUTO
         2 000755   200020 630500                    EPPR0   JITERR+7,,AUTO
         2 000756   000022 631400 xsym               EPPR1   B_VECTNIL+18
         2 000757   000000 701000 xent               TSX1    DDR$MOVE
         2 000760   002212 702000 2                  TSX2    TOO_BIG
         2 000761   001607 710000 2                  TRA     s:5217

      148     5121    3               CASE(%SC_MERCS#);

      149     5122    3                  CALL DDR$MOVE('M$MERCS', 7, BB$, REM) ALTRET(TOO_BIG);

   5122  2 000762   200004 633500                    EPPR3   REM,,AUTO
         2 000763   200023 453500                    STP3    JITERR+10,,AUTO
         2 000764   200005 631500                    EPPR1   BB$,,AUTO
         2 000765   200022 451500                    STP1    JITERR+9,,AUTO
         2 000766   000100 237000 3                  LDAQ    64
         2 000767   200020 757100                    STAQ    JITERR+7,,AUTO
         2 000770   200020 630500                    EPPR0   JITERR+7,,AUTO
         2 000771   000022 631400 xsym               EPPR1   B_VECTNIL+18
         2 000772   000000 701000 xent               TSX1    DDR$MOVE
         2 000773   002212 702000 2                  TSX2    TOO_BIG
         2 000774   001607 710000 2                  TRA     s:5217
PL6.E3A0      #001=DUR$ECCRPT File=DUR$ECCRPT.:E05TSI                            TUE 07/29/97 14:58 Page:36

      150     5123    3               CASE(%SC_RETRY#);

      151     5124    3                  CALL DDR$MOVE('M$RETRY', 7, BB$, REM) ALTRET(TOO_BIG);

   5124  2 000775   200004 633500                    EPPR3   REM,,AUTO
         2 000776   200023 453500                    STP3    JITERR+10,,AUTO
         2 000777   200005 631500                    EPPR1   BB$,,AUTO
         2 001000   200022 451500                    STP1    JITERR+9,,AUTO
         2 001001   000102 237000 3                  LDAQ    66
         2 001002   200020 757100                    STAQ    JITERR+7,,AUTO
         2 001003   200020 630500                    EPPR0   JITERR+7,,AUTO
         2 001004   000022 631400 xsym               EPPR1   B_VECTNIL+18
         2 001005   000000 701000 xent               TSX1    DDR$MOVE
         2 001006   002212 702000 2                  TSX2    TOO_BIG
         2 001007   001607 710000 2                  TRA     s:5217

      152     5125    3               CASE(%SC_RETRYS#);

      153     5126    3                  CALL DDR$MOVE('M$RETRYS', 8, BB$, REM) ALTRET(TOO_BIG);

   5126  2 001010   200004 633500                    EPPR3   REM,,AUTO
         2 001011   200023 453500                    STP3    JITERR+10,,AUTO
         2 001012   200005 631500                    EPPR1   BB$,,AUTO
         2 001013   200022 451500                    STP1    JITERR+9,,AUTO
         2 001014   000104 237000 3                  LDAQ    68
         2 001015   200020 757100                    STAQ    JITERR+7,,AUTO
         2 001016   200020 630500                    EPPR0   JITERR+7,,AUTO
         2 001017   000022 631400 xsym               EPPR1   B_VECTNIL+18
         2 001020   000000 701000 xent               TSX1    DDR$MOVE
         2 001021   002212 702000 2                  TSX2    TOO_BIG
         2 001022   001607 710000 2                  TRA     s:5217

      154     5127    3               CASE(%SC_XCONXIT#);

      155     5128    3                  CALL DDR$MOVE('Final ', 6, BB$, REM) ALTRET(TOO_BIG);

PL6.E3A0      #001=DUR$ECCRPT File=DUR$ECCRPT.:E05TSI                            TUE 07/29/97 14:58 Page:37
   5128  2 001023   200004 633500                    EPPR3   REM,,AUTO
         2 001024   200023 453500                    STP3    JITERR+10,,AUTO
         2 001025   200005 631500                    EPPR1   BB$,,AUTO
         2 001026   200022 451500                    STP1    JITERR+9,,AUTO
         2 001027   000106 237000 3                  LDAQ    70
         2 001030   200020 757100                    STAQ    JITERR+7,,AUTO
         2 001031   200020 630500                    EPPR0   JITERR+7,,AUTO
         2 001032   000022 631400 xsym               EPPR1   B_VECTNIL+18
         2 001033   000000 701000 xent               TSX1    DDR$MOVE
         2 001034   002212 702000 2                  TSX2    TOO_BIG

      156     5129    4                  DO CASE(PINCRW(B$TCB$->B$TCB.STK$, SIZEW(B$EXCFR)-4)->B$EXCRTN.TYP);

   5129  2 001035   000000 470400 xsym               LDP0    B$TCB$
         2 001036   000001 471500                    LDP1    1,,PR0
         2 001037   100100 220100                    LDX0    64,,PR1
         2 001040   000777 360003                    ANX0    511,DU
         2 001041   000004 100003                    CMPX0   4,DU
         2 001042   001044 602010 2                  TNC     s:5129+7,X0
         2 001043   001111 710000 2                  TRA     s:5137
         2 001044   001111 710000 2                  TRA     s:5137
         2 001045   001050 710000 2                  TRA     s:5131
         2 001046   001063 710000 2                  TRA     s:5133
         2 001047   001076 710000 2                  TRA     s:5135

      157     5130    4                    CASE(%XCON_EXIT#);

      158     5131    4                       CALL DDR$MOVE('M$EXIT', 6, BB$, REM) ALTRET(TOO_BIG);

   5131  2 001050   200004 633500                    EPPR3   REM,,AUTO
         2 001051   200023 453500                    STP3    JITERR+10,,AUTO
         2 001052   200005 631500                    EPPR1   BB$,,AUTO
         2 001053   200022 451500                    STP1    JITERR+9,,AUTO
         2 001054   000052 237000 3                  LDAQ    42
         2 001055   200020 757100                    STAQ    JITERR+7,,AUTO
         2 001056   200020 630500                    EPPR0   JITERR+7,,AUTO
         2 001057   000022 631400 xsym               EPPR1   B_VECTNIL+18
PL6.E3A0      #001=DUR$ECCRPT File=DUR$ECCRPT.:E05TSI                            TUE 07/29/97 14:58 Page:38
         2 001060   000000 701000 xent               TSX1    DDR$MOVE
         2 001061   002212 702000 2                  TSX2    TOO_BIG
         2 001062   001112 710000 2                  TRA     s:5139

      159     5132    4                    CASE(%XCON_ERR#);

      160     5133    4                       CALL DDR$MOVE('M$ERR', 5, BB$, REM) ALTRET(TOO_BIG);

   5133  2 001063   200004 633500                    EPPR3   REM,,AUTO
         2 001064   200023 453500                    STP3    JITERR+10,,AUTO
         2 001065   200005 631500                    EPPR1   BB$,,AUTO
         2 001066   200022 451500                    STP1    JITERR+9,,AUTO
         2 001067   000034 237000 3                  LDAQ    28
         2 001070   200020 757100                    STAQ    JITERR+7,,AUTO
         2 001071   200020 630500                    EPPR0   JITERR+7,,AUTO
         2 001072   000022 631400 xsym               EPPR1   B_VECTNIL+18
         2 001073   000000 701000 xent               TSX1    DDR$MOVE
         2 001074   002212 702000 2                  TSX2    TOO_BIG
         2 001075   001112 710000 2                  TRA     s:5139

      161     5134    4                    CASE(%XCON_XXX#);

      162     5135    4                       CALL DDR$MOVE('M$XXX', 5, BB$, REM) ALTRET(TOO_BIG);

   5135  2 001076   200004 633500                    EPPR3   REM,,AUTO
         2 001077   200023 453500                    STP3    JITERR+10,,AUTO
         2 001100   200005 631500                    EPPR1   BB$,,AUTO
         2 001101   200022 451500                    STP1    JITERR+9,,AUTO
         2 001102   000036 237000 3                  LDAQ    30
         2 001103   200020 757100                    STAQ    JITERR+7,,AUTO
         2 001104   200020 630500                    EPPR0   JITERR+7,,AUTO
         2 001105   000022 631400 xsym               EPPR1   B_VECTNIL+18
         2 001106   000000 701000 xent               TSX1    DDR$MOVE
         2 001107   002212 702000 2                  TSX2    TOO_BIG
         2 001110   001112 710000 2                  TRA     s:5139

      163     5136    4                    CASE(ELSE);
PL6.E3A0      #001=DUR$ECCRPT File=DUR$ECCRPT.:E05TSI                            TUE 07/29/97 14:58 Page:39

      164     5137    4                       GOTO EH;

   5137  2 001111   002057 710000 2                  TRA     EH

      165     5138    4                    END;                   /* Case typ */

      166     5139    3                  CALL DDR$MOVE(' from exit control', 18, BB$, REM) ALTRET(TOO_BIG);

   5139  2 001112   200004 630500                    EPPR0   REM,,AUTO
         2 001113   200023 450500                    STP0    JITERR+10,,AUTO
         2 001114   200005 631500                    EPPR1   BB$,,AUTO
         2 001115   200022 451500                    STP1    JITERR+9,,AUTO
         2 001116   000110 237000 3                  LDAQ    72
         2 001117   200020 757100                    STAQ    JITERR+7,,AUTO
         2 001120   200020 630500                    EPPR0   JITERR+7,,AUTO
         2 001121   000022 631400 xsym               EPPR1   B_VECTNIL+18
         2 001122   000000 701000 xent               TSX1    DDR$MOVE
         2 001123   002212 702000 2                  TSX2    TOO_BIG
         2 001124   001607 710000 2                  TRA     s:5217

      167     5140    3               CASE(ELSE);

      168     5141    3                  GOTO EH;

   5141  2 001125   002057 710000 2                  TRA     EH

      169     5142    3               END;                        /* Case subc */

      170     5143    2          CASE(%ECC_PMME#);                /* Bad pmme, no altret */

      171     5144    2             CALL DDR$MOVE('BAD PMME, NO ALTRET',19,BB$,REM) ALTRET(TOO_BIG);

   5144  2 001126   200004 633500                    EPPR3   REM,,AUTO
         2 001127   200023 453500                    STP3    JITERR+10,,AUTO
         2 001130   200005 631500                    EPPR1   BB$,,AUTO
         2 001131   200022 451500                    STP1    JITERR+9,,AUTO
PL6.E3A0      #001=DUR$ECCRPT File=DUR$ECCRPT.:E05TSI                            TUE 07/29/97 14:58 Page:40
         2 001132   000112 237000 3                  LDAQ    74
         2 001133   200020 757100                    STAQ    JITERR+7,,AUTO
         2 001134   200020 630500                    EPPR0   JITERR+7,,AUTO
         2 001135   000022 631400 xsym               EPPR1   B_VECTNIL+18
         2 001136   000000 701000 xent               TSX1    DDR$MOVE
         2 001137   002212 702000 2                  TSX2    TOO_BIG

      172     5145    2             JITERR = '1'B;

   5145  2 001140   400000 236003                    LDQ     -131072,DU
         2 001141   200011 756100                    STQ     JITERR,,AUTO

      173     5146    2             ADD_INST = '1'B;

   5146  2 001142   200010 756100                    STQ     ADD_INST,,AUTO
         2 001143   001607 710000 2                  TRA     s:5217

      174     5147    2          CASE(%ECC_DELTA#);               /* Must be a PMD command */

      175     5148    2             CALL DDR$MOVE('PMD REQUESTED',13,BB$,REM) ALTRET(TOO_BIG);

   5148  2 001144   200004 633500                    EPPR3   REM,,AUTO
         2 001145   200023 453500                    STP3    JITERR+10,,AUTO
         2 001146   200005 631500                    EPPR1   BB$,,AUTO
         2 001147   200022 451500                    STP1    JITERR+9,,AUTO
         2 001150   000114 237000 3                  LDAQ    76
         2 001151   200020 757100                    STAQ    JITERR+7,,AUTO
         2 001152   200020 630500                    EPPR0   JITERR+7,,AUTO
         2 001153   000022 631400 xsym               EPPR1   B_VECTNIL+18
         2 001154   000000 701000 xent               TSX1    DDR$MOVE
         2 001155   002212 702000 2                  TSX2    TOO_BIG

      176     5149    2             JITERR = '1'B;

   5149  2 001156   400000 236003                    LDQ     -131072,DU
         2 001157   200011 756100                    STQ     JITERR,,AUTO

PL6.E3A0      #001=DUR$ECCRPT File=DUR$ECCRPT.:E05TSI                            TUE 07/29/97 14:58 Page:41
      177     5150    2             ADD_INST = '1'B;

   5150  2 001160   200010 756100                    STQ     ADD_INST,,AUTO
         2 001161   001607 710000 2                  TRA     s:5217

      178     5151    2          CASE(%ECC_ARITH#);               /* Arithmetic fault */

      179     5152    2             ADD_INST = '1'B;

   5152  2 001162   400000 236003                    LDQ     -131072,DU
         2 001163   200010 756100                    STQ     ADD_INST,,AUTO

      180     5153    3             DO CASE(B$EXCFR.SUBC);

   5153  2 001164   100100 721100                    LXL1    64,,PR1
         2 001165   000002 101003                    CMPX1   2,DU
         2 001166   001170 602011 2                  TNC     s:5153+4,X1
         2 001167   001346 710000 2                  TRA     s:5176
         2 001170   001172 710000 2                  TRA     s:5155
         2 001171   001333 710000 2                  TRA     s:5174

      181     5154    3               CASE(%SC_OVRF#);            /* Arithmetic overflow */

      182     5155    3                  IF D_XDELTA

   5155  2 001172   000000 234000 xsym               SZN     D_XDELTA
         2 001173   001252 605000 2                  TPL     s:5165

      183     5156    4                  THEN DO;

      184     5157    4                       IF ADDR(S_D.USS$->B$SS.IR)->IND.OV

   5157  2 001174   000000 473400 xsym               LDP3    S_D$
         2 001175   300005 474500                    LDP4    5,,PR3
         2 001176   400004 236100                    LDQ     4,,PR4
         2 001177   040000 316007                    CANQ    16384,DL
         2 001200   001213 600000 2                  TZE     s:5159
PL6.E3A0      #001=DUR$ECCRPT File=DUR$ECCRPT.:E05TSI                            TUE 07/29/97 14:58 Page:42

      185     5158    4                       THEN CALL DDR$MOVE('OVERFLOW, ', SIZEC('OVERFLOW, '), BB$, REM)
              5158                                ALTRET(TOO_BIG);

   5158  2 001201   200004 635500                    EPPR5   REM,,AUTO
         2 001202   200023 455500                    STP5    JITERR+10,,AUTO
         2 001203   200005 631500                    EPPR1   BB$,,AUTO
         2 001204   200022 451500                    STP1    JITERR+9,,AUTO
         2 001205   000116 237000 3                  LDAQ    78
         2 001206   200020 757100                    STAQ    JITERR+7,,AUTO
         2 001207   200020 630500                    EPPR0   JITERR+7,,AUTO
         2 001210   000022 631400 xsym               EPPR1   B_VECTNIL+18
         2 001211   000000 701000 xent               TSX1    DDR$MOVE
         2 001212   002212 702000 2                  TSX2    TOO_BIG

      186     5159    4                       IF ADDR(S_D.USS$->B$SS.IR)->IND.EXPOV

   5159  2 001213   000000 470400 xsym               LDP0    S_D$
         2 001214   000005 471500                    LDP1    5,,PR0
         2 001215   100004 236100                    LDQ     4,,PR1
         2 001216   020000 316007                    CANQ    8192,DL
         2 001217   001232 600000 2                  TZE     s:5161

      187     5160    4                      THEN CALL DDR$MOVE('EXP OVERFLOW, ',SIZEC('EXP OVERFLOW, '),BB$,
              5160                                REM) ALTRET(TOO_BIG);

   5160  2 001220   200004 633500                    EPPR3   REM,,AUTO
         2 001221   200023 453500                    STP3    JITERR+10,,AUTO
         2 001222   200005 631500                    EPPR1   BB$,,AUTO
         2 001223   200022 451500                    STP1    JITERR+9,,AUTO
         2 001224   000122 237000 3                  LDAQ    82
         2 001225   200020 757100                    STAQ    JITERR+7,,AUTO
         2 001226   200020 630500                    EPPR0   JITERR+7,,AUTO
         2 001227   000022 631400 xsym               EPPR1   B_VECTNIL+18
         2 001230   000000 701000 xent               TSX1    DDR$MOVE
         2 001231   002212 702000 2                  TSX2    TOO_BIG

PL6.E3A0      #001=DUR$ECCRPT File=DUR$ECCRPT.:E05TSI                            TUE 07/29/97 14:58 Page:43
      188     5161    4                       IF ADDR(S_D.USS$->B$SS.IR)->IND.EXPUN

   5161  2 001232   000000 470400 xsym               LDP0    S_D$
         2 001233   000005 471500                    LDP1    5,,PR0
         2 001234   100004 236100                    LDQ     4,,PR1
         2 001235   010000 316007                    CANQ    4096,DL
         2 001236   001327 600000 2                  TZE     s:5172

      189     5162    4                       THEN CALL DDR$MOVE('EXP UNDERFLOW, ',SIZEC('EXP UNDERFLOW, '),
              5162                                BB$,REM) ALTRET(TOO_BIG);

   5162  2 001237   200004 633500                    EPPR3   REM,,AUTO
         2 001240   200023 453500                    STP3    JITERR+10,,AUTO
         2 001241   200005 631500                    EPPR1   BB$,,AUTO
         2 001242   200022 451500                    STP1    JITERR+9,,AUTO
         2 001243   000124 237000 3                  LDAQ    84
         2 001244   200020 757100                    STAQ    JITERR+7,,AUTO
         2 001245   200020 630500                    EPPR0   JITERR+7,,AUTO
         2 001246   000022 631400 xsym               EPPR1   B_VECTNIL+18
         2 001247   000000 701000 xent               TSX1    DDR$MOVE
         2 001250   002212 702000 2                  TSX2    TOO_BIG

      190     5163    4                     END;

   5163  2 001251   001327 710000 2                  TRA     s:5172

      191     5164    4                  ELSE DO;

      192     5165    4                       IF ADDR(S_D.DRTN$->FPT$DRTN.V.IR#)->IND.OV

   5165  2 001252   000000 473400 xsym               LDP3    S_D$
         2 001253   304704 474500                    LDP4    2500,,PR3
         2 001254   400012 236100                    LDQ     10,,PR4
         2 001255   040000 316007                    CANQ    16384,DL
         2 001256   001271 600000 2                  TZE     s:5167

      193     5166    4                       THEN CALL DDR$MOVE('OVERFLOW, ',SIZEC('OVERFLOW, '),BB$,REM)
PL6.E3A0      #001=DUR$ECCRPT File=DUR$ECCRPT.:E05TSI                            TUE 07/29/97 14:58 Page:44
              5166                                ALTRET(TOO_BIG);

   5166  2 001257   200004 635500                    EPPR5   REM,,AUTO
         2 001260   200023 455500                    STP5    JITERR+10,,AUTO
         2 001261   200005 631500                    EPPR1   BB$,,AUTO
         2 001262   200022 451500                    STP1    JITERR+9,,AUTO
         2 001263   000116 237000 3                  LDAQ    78
         2 001264   200020 757100                    STAQ    JITERR+7,,AUTO
         2 001265   200020 630500                    EPPR0   JITERR+7,,AUTO
         2 001266   000022 631400 xsym               EPPR1   B_VECTNIL+18
         2 001267   000000 701000 xent               TSX1    DDR$MOVE
         2 001270   002212 702000 2                  TSX2    TOO_BIG

      194     5167    4                       IF ADDR(S_D.DRTN$->FPT$DRTN.V.IR#)->IND.EXPOV

   5167  2 001271   000000 470400 xsym               LDP0    S_D$
         2 001272   004704 471500                    LDP1    2500,,PR0
         2 001273   100012 236100                    LDQ     10,,PR1
         2 001274   020000 316007                    CANQ    8192,DL
         2 001275   001310 600000 2                  TZE     s:5169

      195     5168    4                      THEN CALL DDR$MOVE('EXP OVERFLOW, ',SIZEC('EXP OVERFLOW, '),BB$,
              5168                                REM) ALTRET (TOO_BIG);

   5168  2 001276   200004 633500                    EPPR3   REM,,AUTO
         2 001277   200023 453500                    STP3    JITERR+10,,AUTO
         2 001300   200005 634500                    EPPR4   BB$,,AUTO
         2 001301   200022 454500                    STP4    JITERR+9,,AUTO
         2 001302   000122 237000 3                  LDAQ    82
         2 001303   200020 757100                    STAQ    JITERR+7,,AUTO
         2 001304   200020 630500                    EPPR0   JITERR+7,,AUTO
         2 001305   000022 631400 xsym               EPPR1   B_VECTNIL+18
         2 001306   000000 701000 xent               TSX1    DDR$MOVE
         2 001307   002212 702000 2                  TSX2    TOO_BIG

      196     5169    4                       IF ADDR(S_D.DRTN$->FPT$DRTN.V.IR#)->IND.EXPUN

PL6.E3A0      #001=DUR$ECCRPT File=DUR$ECCRPT.:E05TSI                            TUE 07/29/97 14:58 Page:45
   5169  2 001310   000000 470400 xsym               LDP0    S_D$
         2 001311   004704 471500                    LDP1    2500,,PR0
         2 001312   100012 236100                    LDQ     10,,PR1
         2 001313   010000 316007                    CANQ    4096,DL
         2 001314   001327 600000 2                  TZE     s:5172

      197     5170    4                       THEN CALL DDR$MOVE('EXP UNDERFLOW, ',SIZEC('EXP UNDERFLOW, '),
              5170                                BB$,REM) ALTRET (TOO_BIG);

   5170  2 001315   200004 633500                    EPPR3   REM,,AUTO
         2 001316   200023 453500                    STP3    JITERR+10,,AUTO
         2 001317   200005 634500                    EPPR4   BB$,,AUTO
         2 001320   200022 454500                    STP4    JITERR+9,,AUTO
         2 001321   000124 237000 3                  LDAQ    84
         2 001322   200020 757100                    STAQ    JITERR+7,,AUTO
         2 001323   200020 630500                    EPPR0   JITERR+7,,AUTO
         2 001324   000022 631400 xsym               EPPR1   B_VECTNIL+18
         2 001325   000000 701000 xent               TSX1    DDR$MOVE
         2 001326   002212 702000 2                  TSX2    TOO_BIG

      198     5171    4                     END;

      199     5172    3                  BB$ = PINCRC(BB$,-2);

   5172  2 001327   200005 236100                    LDQ     BB$,,AUTO
         2 001330   000121 036000 3                  ADLQ    81
         2 001331   200005 756100                    STQ     BB$,,AUTO
         2 001332   001607 710000 2                  TRA     s:5217

      200     5173    3               CASE(%SC_DVCHK#);           /* Divide check */

      201     5174    3                  CALL DDR$MOVE('DIVIDE CHECK',12,BB$,REM) ALTRET(TOO_BIG);

   5174  2 001333   200004 633500                    EPPR3   REM,,AUTO
         2 001334   200023 453500                    STP3    JITERR+10,,AUTO
         2 001335   200005 631500                    EPPR1   BB$,,AUTO
         2 001336   200022 451500                    STP1    JITERR+9,,AUTO
PL6.E3A0      #001=DUR$ECCRPT File=DUR$ECCRPT.:E05TSI                            TUE 07/29/97 14:58 Page:46
         2 001337   000126 237000 3                  LDAQ    86
         2 001340   200020 757100                    STAQ    JITERR+7,,AUTO
         2 001341   200020 630500                    EPPR0   JITERR+7,,AUTO
         2 001342   000022 631400 xsym               EPPR1   B_VECTNIL+18
         2 001343   000000 701000 xent               TSX1    DDR$MOVE
         2 001344   002212 702000 2                  TSX2    TOO_BIG
         2 001345   001607 710000 2                  TRA     s:5217

      202     5175    3               CASE(ELSE);

      203     5176    3                  GOTO EH;

   5176  2 001346   002057 710000 2                  TRA     EH

      204     5177    3               END;

      205     5178    2          CASE(%ECC_PROG#);                /* Programed faults */

      206     5179    2             ADD_INST = '1'B;

   5179  2 001347   400000 236003                    LDQ     -131072,DU
         2 001350   200010 756100                    STQ     ADD_INST,,AUTO

      207     5180    3             DO CASE(B$EXCFR.SUBC);

   5180  2 001351   100100 721100                    LXL1    64,,PR1
         2 001352   000003 101003                    CMPX1   3,DU
         2 001353   001355 602011 2                  TNC     s:5180+4,X1
         2 001354   001421 710000 2                  TRA     s:5188
         2 001355   001360 710000 2                  TRA     s:5182
         2 001356   001373 710000 2                  TRA     s:5184
         2 001357   001406 710000 2                  TRA     s:5186

      208     5181    3               CASE(%SC_MME#);             /* Mme */

      209     5182    3                  CALL DDR$MOVE('MME',3,BB$,REM) ALTRET(TOO_BIG);

PL6.E3A0      #001=DUR$ECCRPT File=DUR$ECCRPT.:E05TSI                            TUE 07/29/97 14:58 Page:47
   5182  2 001360   200004 633500                    EPPR3   REM,,AUTO
         2 001361   200023 453500                    STP3    JITERR+10,,AUTO
         2 001362   200005 631500                    EPPR1   BB$,,AUTO
         2 001363   200022 451500                    STP1    JITERR+9,,AUTO
         2 001364   000130 237000 3                  LDAQ    88
         2 001365   200020 757100                    STAQ    JITERR+7,,AUTO
         2 001366   200020 630500                    EPPR0   JITERR+7,,AUTO
         2 001367   000022 631400 xsym               EPPR1   B_VECTNIL+18
         2 001370   000000 701000 xent               TSX1    DDR$MOVE
         2 001371   002212 702000 2                  TSX2    TOO_BIG
         2 001372   001607 710000 2                  TRA     s:5217

      210     5183    3               CASE(%SC_DRAIL#);           /* Derail, not delta's */

      211     5184    3                  CALL DDR$MOVE('DERAIL',6,BB$,REM) ALTRET(TOO_BIG);

   5184  2 001373   200004 633500                    EPPR3   REM,,AUTO
         2 001374   200023 453500                    STP3    JITERR+10,,AUTO
         2 001375   200005 631500                    EPPR1   BB$,,AUTO
         2 001376   200022 451500                    STP1    JITERR+9,,AUTO
         2 001377   000132 237000 3                  LDAQ    90
         2 001400   200020 757100                    STAQ    JITERR+7,,AUTO
         2 001401   200020 630500                    EPPR0   JITERR+7,,AUTO
         2 001402   000022 631400 xsym               EPPR1   B_VECTNIL+18
         2 001403   000000 701000 xent               TSX1    DDR$MOVE
         2 001404   002212 702000 2                  TSX2    TOO_BIG
         2 001405   001607 710000 2                  TRA     s:5217

      212     5185    3               CASE(%SC_FLTAG#);           /* FAULT_TAG, not delta's */

      213     5186    3                  CALL DDR$MOVE('FAULT TAG',9,BB$,REM) ALTRET(TOO_BIG);

   5186  2 001406   200004 633500                    EPPR3   REM,,AUTO
         2 001407   200023 453500                    STP3    JITERR+10,,AUTO
         2 001410   200005 631500                    EPPR1   BB$,,AUTO
         2 001411   200022 451500                    STP1    JITERR+9,,AUTO
         2 001412   000134 237000 3                  LDAQ    92
PL6.E3A0      #001=DUR$ECCRPT File=DUR$ECCRPT.:E05TSI                            TUE 07/29/97 14:58 Page:48
         2 001413   200020 757100                    STAQ    JITERR+7,,AUTO
         2 001414   200020 630500                    EPPR0   JITERR+7,,AUTO
         2 001415   000022 631400 xsym               EPPR1   B_VECTNIL+18
         2 001416   000000 701000 xent               TSX1    DDR$MOVE
         2 001417   002212 702000 2                  TSX2    TOO_BIG
         2 001420   001607 710000 2                  TRA     s:5217

      214     5187    3               CASE(ELSE);

      215     5188    3                  GOTO EH;

   5188  2 001421   002057 710000 2                  TRA     EH

      216     5189    3               END;

      217     5190    2          CASE(%ECC_ERROR#);               /* Error faults */

      218     5191    2             ADD_INST = '1'B;

   5191  2 001422   400000 236003                    LDQ     -131072,DU
         2 001423   200010 756100                    STQ     ADD_INST,,AUTO

      219     5192    3             DO CASE(B$EXCFR.SUBC);

   5192  2 001424   100100 721100                    LXL1    64,,PR1
         2 001425   000012 101003                    CMPX1   10,DU
         2 001426   001430 602011 2                  TNC     s:5192+4,X1
         2 001427   001572 710000 2                  TRA     s:5210
         2 001430   001442 710000 2                  TRA     s:5194
         2 001431   001455 710000 2                  TRA     s:5196
         2 001432   001470 710000 2                  TRA     s:5198
         2 001433   001503 710000 2                  TRA     s:5200
         2 001434   001516 710000 2                  TRA     s:5202
         2 001435   001531 710000 2                  TRA     s:5204
         2 001436   001544 710000 2                  TRA     s:5206
         2 001437   001572 710000 2                  TRA     s:5210
         2 001440   001572 710000 2                  TRA     s:5210
PL6.E3A0      #001=DUR$ECCRPT File=DUR$ECCRPT.:E05TSI                            TUE 07/29/97 14:58 Page:49
         2 001441   001557 710000 2                  TRA     s:5208

      220     5193    3               CASE(%SC_MEMORY#);          /* Memory error */

      221     5194    3                  CALL DDR$MOVE('MEMORY',6,BB$,REM) ALTRET(TOO_BIG);

   5194  2 001442   200004 633500                    EPPR3   REM,,AUTO
         2 001443   200023 453500                    STP3    JITERR+10,,AUTO
         2 001444   200005 631500                    EPPR1   BB$,,AUTO
         2 001445   200022 451500                    STP1    JITERR+9,,AUTO
         2 001446   000136 237000 3                  LDAQ    94
         2 001447   200020 757100                    STAQ    JITERR+7,,AUTO
         2 001450   200020 630500                    EPPR0   JITERR+7,,AUTO
         2 001451   000022 631400 xsym               EPPR1   B_VECTNIL+18
         2 001452   000000 701000 xent               TSX1    DDR$MOVE
         2 001453   002212 702000 2                  TSX2    TOO_BIG
         2 001454   001573 710000 2                  TRA     s:5212

      222     5195    3               CASE(%SC_CMMD#);            /* Command error */

      223     5196    3                  CALL DDR$MOVE('COMMAND',7,BB$,REM) ALTRET(TOO_BIG);

   5196  2 001455   200004 633500                    EPPR3   REM,,AUTO
         2 001456   200023 453500                    STP3    JITERR+10,,AUTO
         2 001457   200005 631500                    EPPR1   BB$,,AUTO
         2 001460   200022 451500                    STP1    JITERR+9,,AUTO
         2 001461   000140 237000 3                  LDAQ    96
         2 001462   200020 757100                    STAQ    JITERR+7,,AUTO
         2 001463   200020 630500                    EPPR0   JITERR+7,,AUTO
         2 001464   000022 631400 xsym               EPPR1   B_VECTNIL+18
         2 001465   000000 701000 xent               TSX1    DDR$MOVE
         2 001466   002212 702000 2                  TSX2    TOO_BIG
         2 001467   001573 710000 2                  TRA     s:5212

      224     5197    3               CASE(%SC_LOCKUP#);          /* Lockup error */

      225     5198    3                  CALL DDR$MOVE('LOCKUP',6,BB$,REM) ALTRET(TOO_BIG);
PL6.E3A0      #001=DUR$ECCRPT File=DUR$ECCRPT.:E05TSI                            TUE 07/29/97 14:58 Page:50

   5198  2 001470   200004 633500                    EPPR3   REM,,AUTO
         2 001471   200023 453500                    STP3    JITERR+10,,AUTO
         2 001472   200005 631500                    EPPR1   BB$,,AUTO
         2 001473   200022 451500                    STP1    JITERR+9,,AUTO
         2 001474   000142 237000 3                  LDAQ    98
         2 001475   200020 757100                    STAQ    JITERR+7,,AUTO
         2 001476   200020 630500                    EPPR0   JITERR+7,,AUTO
         2 001477   000022 631400 xsym               EPPR1   B_VECTNIL+18
         2 001500   000000 701000 xent               TSX1    DDR$MOVE
         2 001501   002212 702000 2                  TSX2    TOO_BIG
         2 001502   001573 710000 2                  TRA     s:5212

      226     5199    3               CASE(%SC_IPR#);             /* Procedure error */

      227     5200    3                  CALL DDR$MOVE('IPR',3,BB$,REM) ALTRET(TOO_BIG);

   5200  2 001503   200004 633500                    EPPR3   REM,,AUTO
         2 001504   200023 453500                    STP3    JITERR+10,,AUTO
         2 001505   200005 631500                    EPPR1   BB$,,AUTO
         2 001506   200022 451500                    STP1    JITERR+9,,AUTO
         2 001507   000144 237000 3                  LDAQ    100
         2 001510   200020 757100                    STAQ    JITERR+7,,AUTO
         2 001511   200020 630500                    EPPR0   JITERR+7,,AUTO
         2 001512   000022 631400 xsym               EPPR1   B_VECTNIL+18
         2 001513   000000 701000 xent               TSX1    DDR$MOVE
         2 001514   002212 702000 2                  TSX2    TOO_BIG
         2 001515   001573 710000 2                  TRA     s:5212

      228     5201    3               CASE(%SC_MSEG#);            /* Missing segment */

      229     5202    3                  CALL DDR$MOVE('MISSING SEG',11,BB$,REM) ALTRET(TOO_BIG);

   5202  2 001516   200004 633500                    EPPR3   REM,,AUTO
         2 001517   200023 453500                    STP3    JITERR+10,,AUTO
         2 001520   200005 631500                    EPPR1   BB$,,AUTO
         2 001521   200022 451500                    STP1    JITERR+9,,AUTO
PL6.E3A0      #001=DUR$ECCRPT File=DUR$ECCRPT.:E05TSI                            TUE 07/29/97 14:58 Page:51
         2 001522   000146 237000 3                  LDAQ    102
         2 001523   200020 757100                    STAQ    JITERR+7,,AUTO
         2 001524   200020 630500                    EPPR0   JITERR+7,,AUTO
         2 001525   000022 631400 xsym               EPPR1   B_VECTNIL+18
         2 001526   000000 701000 xent               TSX1    DDR$MOVE
         2 001527   002212 702000 2                  TSX2    TOO_BIG
         2 001530   001573 710000 2                  TRA     s:5212

      230     5203    3               CASE(%SC_MPAGE#);           /* Missing page */

      231     5204    3                  CALL DDR$MOVE('MISSING PAGE',12,BB$,REM) ALTRET(TOO_BIG);

   5204  2 001531   200004 633500                    EPPR3   REM,,AUTO
         2 001532   200023 453500                    STP3    JITERR+10,,AUTO
         2 001533   200005 631500                    EPPR1   BB$,,AUTO
         2 001534   200022 451500                    STP1    JITERR+9,,AUTO
         2 001535   000150 237000 3                  LDAQ    104
         2 001536   200020 757100                    STAQ    JITERR+7,,AUTO
         2 001537   200020 630500                    EPPR0   JITERR+7,,AUTO
         2 001540   000022 631400 xsym               EPPR1   B_VECTNIL+18
         2 001541   000000 701000 xent               TSX1    DDR$MOVE
         2 001542   002212 702000 2                  TSX2    TOO_BIG
         2 001543   001573 710000 2                  TRA     s:5212

      232     5205    3               CASE(%SC_SEC2#);            /* Security 2 error */

      233     5206    3                  CALL DDR$MOVE('SECURITY 2',10,BB$,REM) ALTRET(TOO_BIG);

   5206  2 001544   200004 633500                    EPPR3   REM,,AUTO
         2 001545   200023 453500                    STP3    JITERR+10,,AUTO
         2 001546   200005 631500                    EPPR1   BB$,,AUTO
         2 001547   200022 451500                    STP1    JITERR+9,,AUTO
         2 001550   000152 237000 3                  LDAQ    106
         2 001551   200020 757100                    STAQ    JITERR+7,,AUTO
         2 001552   200020 630500                    EPPR0   JITERR+7,,AUTO
         2 001553   000022 631400 xsym               EPPR1   B_VECTNIL+18
         2 001554   000000 701000 xent               TSX1    DDR$MOVE
PL6.E3A0      #001=DUR$ECCRPT File=DUR$ECCRPT.:E05TSI                            TUE 07/29/97 14:58 Page:52
         2 001555   002212 702000 2                  TSX2    TOO_BIG
         2 001556   001573 710000 2                  TRA     s:5212

      234     5207    3               CASE(%SC_SEC1#);            /* Security class 1 fault */

      235     5208    3                  CALL DDR$MOVE('SECURITY 1',10,BB$,REM) ALTRET(TOO_BIG);

   5208  2 001557   200004 633500                    EPPR3   REM,,AUTO
         2 001560   200023 453500                    STP3    JITERR+10,,AUTO
         2 001561   200005 631500                    EPPR1   BB$,,AUTO
         2 001562   200022 451500                    STP1    JITERR+9,,AUTO
         2 001563   000154 237000 3                  LDAQ    108
         2 001564   200020 757100                    STAQ    JITERR+7,,AUTO
         2 001565   200020 630500                    EPPR0   JITERR+7,,AUTO
         2 001566   000022 631400 xsym               EPPR1   B_VECTNIL+18
         2 001567   000000 701000 xent               TSX1    DDR$MOVE
         2 001570   002212 702000 2                  TSX2    TOO_BIG
         2 001571   001573 710000 2                  TRA     s:5212

      236     5209    3               CASE(ELSE);

      237     5210    3                  GOTO EH;

   5210  2 001572   002057 710000 2                  TRA     EH

      238     5211    3               END;

      239     5212    2             CALL DDR$MOVE(' FAULT',6,BB$,REM) ALTRET(TOO_BIG);

   5212  2 001573   200004 630500                    EPPR0   REM,,AUTO
         2 001574   200023 450500                    STP0    JITERR+10,,AUTO
         2 001575   200005 631500                    EPPR1   BB$,,AUTO
         2 001576   200022 451500                    STP1    JITERR+9,,AUTO
         2 001577   000156 237000 3                  LDAQ    110
         2 001600   200020 757100                    STAQ    JITERR+7,,AUTO
         2 001601   200020 630500                    EPPR0   JITERR+7,,AUTO
         2 001602   000022 631400 xsym               EPPR1   B_VECTNIL+18
PL6.E3A0      #001=DUR$ECCRPT File=DUR$ECCRPT.:E05TSI                            TUE 07/29/97 14:58 Page:53
         2 001603   000000 701000 xent               TSX1    DDR$MOVE
         2 001604   002212 702000 2                  TSX2    TOO_BIG
         2 001605   001607 710000 2                  TRA     s:5217

      240     5213    2          CASE(ELSE);

      241     5214    2             GOTO EH;

   5214  2 001606   002057 710000 2                  TRA     EH

      242     5215    2          END;

      243     5216                                                /**/
      244     5217    1        IF S_D.DEBUGA(%DB@ECC) OR WHOS_FAULT = ECCRPT_DELTA

   5217  2 001607   000000 470400 xsym               LDP0    S_D$
         2 001610   000053 236100                    LDQ     43,,PR0
         2 001611   000040 316007                    CANQ    32,DL
         2 001612   001617 601000 2                  TNZ     s:5219
         2 001613   200003 471500                    LDP1    @WHOS_FAULT,,AUTO
         2 001614   100000 235100                    LDA     0,,PR1
         2 001615   000001 115007                    CMPA    1,DL
         2 001616   001652 601000 2                  TNZ     ADDRESS

      245     5218    2        THEN DO;

      246     5219    2             CALL DDQ$WRITE(ADDR(S_D.OUTPUT), POFFC(BB$, ADDR(S_D.OUTPUT)));

   5219  2 001617   000000 236000 xsym               LDQ     S_D$
         2 001620   005335 036003                    ADLQ    2781,DU
         2 001621   000020 772000                    QRL     16
         2 001622   200020 756100                    STQ     JITERR+7,,AUTO
         2 001623   200005 236100                    LDQ     BB$,,AUTO
         2 001624   000020 772000                    QRL     16
         2 001625   200020 136100                    SBLQ    JITERR+7,,AUTO
         2 001626   200022 756100                    STQ     JITERR+9,,AUTO
         2 001627   000000 236000 xsym               LDQ     S_D$
PL6.E3A0      #001=DUR$ECCRPT File=DUR$ECCRPT.:E05TSI                            TUE 07/29/97 14:58 Page:54
         2 001630   005335 036003                    ADLQ    2781,DU
         2 001631   200021 756100                    STQ     JITERR+8,,AUTO
         2 001632   200022 235100                    LDA     JITERR+9,,AUTO
         2 001633   200023 755100                    STA     JITERR+10,,AUTO
         2 001634   200023 631500                    EPPR1   JITERR+10,,AUTO
         2 001635   200025 451500                    STP1    JITERR+12,,AUTO
         2 001636   200021 633500                    EPPR3   JITERR+8,,AUTO
         2 001637   200024 453500                    STP3    JITERR+11,,AUTO
         2 001640   200024 630500                    EPPR0   JITERR+11,,AUTO
         2 001641   000020 631400 xsym               EPPR1   B_VECTNIL+16
         2 001642   000000 701000 xent               TSX1    DDQ$WRITE
         2 001643   000000 011000                    NOP     0

      247     5220    2             BB$ = ADDR(S_D.OUTPUT);

   5220  2 001644   000000 236000 xsym               LDQ     S_D$
         2 001645   005335 036003                    ADLQ    2781,DU
         2 001646   200005 756100                    STQ     BB$,,AUTO

      248     5221    2             REM = SIZEC(S_D.OUTPUT);

   5221  2 001647   004000 235007                    LDA     2048,DL
         2 001650   200004 755100                    STA     REM,,AUTO

      249     5222    2             GOTO EH;

   5222  2 001651   002057 710000 2                  TRA     EH

   5221  2 001652                       ADDRESS      null
      250     5223    2           END;
      251     5224                                                /* Add where */
      252     5225                                                /**/
      253     5226    1   ADDRESS: ;
      254     5227    1        CALL DDR$MOVE(' @ ',3,BB$,REM)       ALTRET(TOO_BIG);

   5227  2 001652   200004 630500                    EPPR0   REM,,AUTO
         2 001653   200023 450500                    STP0    JITERR+10,,AUTO
PL6.E3A0      #001=DUR$ECCRPT File=DUR$ECCRPT.:E05TSI                            TUE 07/29/97 14:58 Page:55
         2 001654   200005 631500                    EPPR1   BB$,,AUTO
         2 001655   200022 451500                    STP1    JITERR+9,,AUTO
         2 001656   000160 237000 3                  LDAQ    112
         2 001657   200020 757100                    STAQ    JITERR+7,,AUTO
         2 001660   200020 630500                    EPPR0   JITERR+7,,AUTO
         2 001661   000022 631400 xsym               EPPR1   B_VECTNIL+18
         2 001662   000000 701000 xent               TSX1    DDR$MOVE
         2 001663   002212 702000 2                  TSX2    TOO_BIG

      255     5228    2        DO CASE(WHOS_FAULT);

   5228  2 001664   200003 470500                    LDP0    @WHOS_FAULT,,AUTO
         2 001665   000000 235100                    LDA     0,,PR0
         2 001666   000006 115007                    CMPA    6,DL
         2 001667   001671 602005 2                  TNC     s:5228+5,AL
         2 001670   001751 710000 2                  TRA     s:5238
         2 001671   001677 710000 2                  TRA     s:5230
         2 001672   001714 710000 2                  TRA     s:5232
         2 001673   001731 710000 2                  TRA     s:5234
         2 001674   001747 710000 2                  TRA     s:5236
         2 001675   001714 710000 2                  TRA     s:5232
         2 001676   001714 710000 2                  TRA     s:5232

      256     5229    2          CASE (ECCRPT_USER);              /* User land fault */

      257     5230    2             CALL DDR$POSIT(IC, BB$, REM, NCARS);

   5230  2 001677   200006 631500                    EPPR1   NCARS,,AUTO
         2 001700   200023 451500                    STP1    JITERR+10,,AUTO
         2 001701   200004 633500                    EPPR3   REM,,AUTO
         2 001702   200022 453500                    STP3    JITERR+9,,AUTO
         2 001703   200005 634500                    EPPR4   BB$,,AUTO
         2 001704   200021 454500                    STP4    JITERR+8,,AUTO
         2 001705   200007 635500                    EPPR5   IC,,AUTO
         2 001706   200020 455500                    STP5    JITERR+7,,AUTO
         2 001707   200020 630500                    EPPR0   JITERR+7,,AUTO
         2 001710   000022 631400 xsym               EPPR1   B_VECTNIL+18
PL6.E3A0      #001=DUR$ECCRPT File=DUR$ECCRPT.:E05TSI                            TUE 07/29/97 14:58 Page:56
         2 001711   000000 701000 xent               TSX1    DDR$POSIT
         2 001712   000000 011000                    NOP     0
         2 001713   001751 710000 2                  TRA     s:5238

      258     5231    2          CASE (ECCRPT_DELTA, ECCRPT_FORUSER, ECCRPT_DELTAXCON);

      259     5232    2             CALL DDR$BINTXT (BB$, IC, %OCT_FMT, NCARS);

   5232  2 001714   200006 631500                    EPPR1   NCARS,,AUTO
         2 001715   200023 451500                    STP1    JITERR+10,,AUTO
         2 001716   000011 236000 3                  LDQ     9
         2 001717   200022 756100                    STQ     JITERR+9,,AUTO
         2 001720   200007 633500                    EPPR3   IC,,AUTO
         2 001721   200021 453500                    STP3    JITERR+8,,AUTO
         2 001722   200005 634500                    EPPR4   BB$,,AUTO
         2 001723   200020 454500                    STP4    JITERR+7,,AUTO
         2 001724   200020 630500                    EPPR0   JITERR+7,,AUTO
         2 001725   000022 631400 xsym               EPPR1   B_VECTNIL+18
         2 001726   000000 701000 xent               TSX1    DDR$BINTXT
         2 001727   000000 011000                    NOP     0
         2 001730   001751 710000 2                  TRA     s:5238

      260     5233    2          CASE (ECCRPT_DERAIL);            /* Derailed instruction fault */

      261     5234    2             CALL DDR$POSIT(S_D.SAVEIC, BB$, REM, NCARS);

   5234  2 001731   200006 631500                    EPPR1   NCARS,,AUTO
         2 001732   200023 451500                    STP1    JITERR+10,,AUTO
         2 001733   200004 633500                    EPPR3   REM,,AUTO
         2 001734   200022 453500                    STP3    JITERR+9,,AUTO
         2 001735   200005 634500                    EPPR4   BB$,,AUTO
         2 001736   200021 454500                    STP4    JITERR+8,,AUTO
         2 001737   000000 236000 xsym               LDQ     S_D$
         2 001740   000002 036003                    ADLQ    2,DU
         2 001741   200020 756100                    STQ     JITERR+7,,AUTO
         2 001742   200020 630500                    EPPR0   JITERR+7,,AUTO
         2 001743   000022 631400 xsym               EPPR1   B_VECTNIL+18
PL6.E3A0      #001=DUR$ECCRPT File=DUR$ECCRPT.:E05TSI                            TUE 07/29/97 14:58 Page:57
         2 001744   000000 701000 xent               TSX1    DDR$POSIT
         2 001745   000000 011000                    NOP     0
         2 001746   001751 710000 2                  TRA     s:5238

      262     5235    2          CASE (ECCRPT_XEQ);               /* Xeq fault */

      263     5236    2             NCARS = -3;                   /* Back over the ' @ ' */

   5236  2 001747   000003 336007                    LCQ     3,DL
         2 001750   200006 756100                    STQ     NCARS,,AUTO

      264     5237    2          END;

      265     5238    1        BB$ = PINCRC(BB$,NCARS);

   5238  2 001751   200006 236100                    LDQ     NCARS,,AUTO
         2 001752   000020 736000                    QLS     16
         2 001753   200005 036100                    ADLQ    BB$,,AUTO
         2 001754   200005 756100                    STQ     BB$,,AUTO

      266     5239    1        IF ADD_INST AND (WHOS_FAULT = ECCRPT_USER OR WHOS_FAULT = ECCRPT_DERAIL

   5239  2 001755   200010 234100                    SZN     ADD_INST,,AUTO
         2 001756   002016 605000 2                  TPL     WRITE_IT
         2 001757   200003 470500                    LDP0    @WHOS_FAULT,,AUTO
         2 001760   000000 235100                    LDA     0,,PR0
         2 001761   001770 600000 2                  TZE     s:5243
         2 001762   000002 115007                    CMPA    2,DL
         2 001763   001770 600000 2                  TZE     s:5243
         2 001764   000006 115007                    CMPA    6,DL
         2 001765   001770 600000 2                  TZE     s:5243
         2 001766   000003 115007                    CMPA    3,DL
         2 001767   002016 601000 2                  TNZ     WRITE_IT

      267     5240    1          OR WHOS_FAULT = ECCRPT_DRTNALT
      268     5241    1          OR WHOS_FAULT = ECCRPT_XEQ)
      269     5242    2        THEN DO;
PL6.E3A0      #001=DUR$ECCRPT File=DUR$ECCRPT.:E05TSI                            TUE 07/29/97 14:58 Page:58

      270     5243    2             BB$->CHAR2 = '/ ';

   5243  2 001770   200005 471500                    LDP1    BB$,,AUTO
         2 001771   040100 100400                    MLR     fill='040'O
         2 001772   000242 000002 1                  ADSC9   162                      cn=0,n=2
         2 001773   100000 000002                    ADSC9   0,,PR1                   cn=0,n=2

      271     5244    2             S_D.D$ = PINCRC(BB$,2);

   5244  2 001774   200005 236100                    LDQ     BB$,,AUTO
         2 001775   400000 036007                    ADLQ    -131072,DL
         2 001776   000000 471400 xsym               LDP1    S_D$
         2 001777   100044 756100                    STQ     36,,PR1

      272     5245    2             S_D.DESCL$ = PINCRC(ADDR(S_D.OUTPUT),LENGTHC(S_D.OUTPUT));

   5245  2 002000   000000 236000 xsym               LDQ     S_D$
         2 002001   006335 036003                    ADLQ    3293,DU
         2 002002   100042 756100                    STQ     34,,PR1

      273     5246    2             CALL DDR$INSTR( PINCRW(UIS$,IC) -> UBIN36) ALTRET(ALT);

   5246  2 002003   200007 236100                    LDQ     IC,,AUTO
         2 002004   000022 736000                    QLS     18
         2 002005   000000 036000 xsym               ADLQ    UIS$
         2 002006   200020 756100                    STQ     JITERR+7,,AUTO
         2 002007   200020 630500                    EPPR0   JITERR+7,,AUTO
         2 002010   000017 631400 xsym               EPPR1   B_VECTNIL+15
         2 002011   000000 701000 xent               TSX1    DDR$INSTR
         2 002012   002043 702000 2                  TSX2    ALT

      274     5247    2             BB$ = S_D.D$;

   5247  2 002013   000000 470400 xsym               LDP0    S_D$
         2 002014   000044 236100                    LDQ     36,,PR0
         2 002015   200005 756100                    STQ     BB$,,AUTO
PL6.E3A0      #001=DUR$ECCRPT File=DUR$ECCRPT.:E05TSI                            TUE 07/29/97 14:58 Page:59

      275     5248    2           END;

   5245  2 002016                       WRITE_IT     null
      276     5249    1   WRITE_IT: ;
      277     5250    1        CALL DDQ$WRITE(ADDR(S_D.OUTPUT),POFFC(BB$,ADDR(S_D.OUTPUT)));

   5250  2 002016   000000 236000 xsym               LDQ     S_D$
         2 002017   005335 036003                    ADLQ    2781,DU
         2 002020   000020 772000                    QRL     16
         2 002021   200020 756100                    STQ     JITERR+7,,AUTO
         2 002022   200005 236100                    LDQ     BB$,,AUTO
         2 002023   000020 772000                    QRL     16
         2 002024   200020 136100                    SBLQ    JITERR+7,,AUTO
         2 002025   200022 756100                    STQ     JITERR+9,,AUTO
         2 002026   000000 236000 xsym               LDQ     S_D$
         2 002027   005335 036003                    ADLQ    2781,DU
         2 002030   200021 756100                    STQ     JITERR+8,,AUTO
         2 002031   200022 235100                    LDA     JITERR+9,,AUTO
         2 002032   200023 755100                    STA     JITERR+10,,AUTO
         2 002033   200023 630500                    EPPR0   JITERR+10,,AUTO
         2 002034   200025 450500                    STP0    JITERR+12,,AUTO
         2 002035   200021 631500                    EPPR1   JITERR+8,,AUTO
         2 002036   200024 451500                    STP1    JITERR+11,,AUTO
         2 002037   200024 630500                    EPPR0   JITERR+11,,AUTO
         2 002040   000020 631400 xsym               EPPR1   B_VECTNIL+16
         2 002041   000000 701000 xent               TSX1    DDQ$WRITE
         2 002042   000000 011000                    NOP     0

      278     5251    1   ALT:
      279     5252    1        IF JITERR THEN CALL DUE$UERRMSG;

   5252  2 002043   200011 234100       ALT          SZN     JITERR,,AUTO
         2 002044   002050 605000 2                  TPL     s:5253

   5252  2 002045   000002 631400 xsym               EPPR1   B_VECTNIL+2
         2 002046   000000 701000 xent               TSX1    DUE$UERRMSG
PL6.E3A0      #001=DUR$ECCRPT File=DUR$ECCRPT.:E05TSI                            TUE 07/29/97 14:58 Page:60
         2 002047   000000 011000                    NOP     0

      280     5253    1        IF S_D.ERROR ~= 0 THEN CALL DDE$ERROR; /* If we truncated */

   5253  2 002050   000000 470400 xsym               LDP0    S_D$
         2 002051   000013 235100                    LDA     11,,PR0
         2 002052   002056 600000 2                  TZE     s:5254

   5253  2 002053   000002 631400 xsym               EPPR1   B_VECTNIL+2
         2 002054   000000 701000 xent               TSX1    DDE$ERROR
         2 002055   000000 011000                    NOP     0

      281     5254    1        RETURN;

   5254  2 002056   000000 702200 xent               TSX2  ! X66_ARET

      282     5255    1   EH:  CALL DDR$MOVE('ECC=',4,BB$,REM)       ALTRET(TOO_BIG);

   5255  2 002057   200004 630500       EH           EPPR0   REM,,AUTO
         2 002060   200023 450500                    STP0    JITERR+10,,AUTO
         2 002061   200005 631500                    EPPR1   BB$,,AUTO
         2 002062   200022 451500                    STP1    JITERR+9,,AUTO
         2 002063   000162 237000 3                  LDAQ    114
         2 002064   200020 757100                    STAQ    JITERR+7,,AUTO
         2 002065   200020 630500                    EPPR0   JITERR+7,,AUTO
         2 002066   000022 631400 xsym               EPPR1   B_VECTNIL+18
         2 002067   000000 701000 xent               TSX1    DDR$MOVE
         2 002070   002212 702000 2                  TSX2    TOO_BIG

      283     5256    1        CALL BINCHAR(BB$->CHAR2,B$EXCFR.ECC);

   5256  2 002071   000000 470400 xsym               LDP0    B$TCB$
         2 002072   000001 471500                    LDP1    1,,PR0
         2 002073   100000 236100                    LDQ     0,,PR1
         2 002074   777777 376007                    ANQ     -1,DL
         2 002075   000000 235003                    LDA     0,DU
         2 002076   200020 757100                    STAQ    JITERR+7,,AUTO
PL6.E3A0      #001=DUR$ECCRPT File=DUR$ECCRPT.:E05TSI                            TUE 07/29/97 14:58 Page:61
         2 002077   200005 471500                    LDP1    BB$,,AUTO
         2 002100   000100 301500                    BTD
         2 002101   200020 000010                    NDSC9   JITERR+7,,AUTO           cn=0,s=lsgnf,sf=0,n=8
         2 002102   100000 030002                    NDSC9   0,,PR1                   cn=0,s=nosgn,sf=0,n=2

      284     5257    1        REM=REM-2;

   5257  2 002103   200004 236100                    LDQ     REM,,AUTO
         2 002104   000002 136007                    SBLQ    2,DL
         2 002105   200004 756100                    STQ     REM,,AUTO

      285     5258    1        BB$=PINCRC(BB$,2);

   5258  2 002106   200005 236100                    LDQ     BB$,,AUTO
         2 002107   400000 036007                    ADLQ    -131072,DL
         2 002110   200005 756100                    STQ     BB$,,AUTO

      286     5259    1        CALL DDR$MOVE(', CECCB/TYP/ECCS=', 17, BB$, REM) ALTRET(TOO_BIG);

   5259  2 002111   200004 630500                    EPPR0   REM,,AUTO
         2 002112   200023 450500                    STP0    JITERR+10,,AUTO
         2 002113   200005 631500                    EPPR1   BB$,,AUTO
         2 002114   200022 451500                    STP1    JITERR+9,,AUTO
         2 002115   000166 237000 3                  LDAQ    118
         2 002116   200020 757100                    STAQ    JITERR+7,,AUTO
         2 002117   200020 630500                    EPPR0   JITERR+7,,AUTO
         2 002120   000022 631400 xsym               EPPR1   B_VECTNIL+18
         2 002121   000000 701000 xent               TSX1    DDR$MOVE
         2 002122   002212 702000 2                  TSX2    TOO_BIG

      287     5260    1        CALL DDR$BINTXT(BB$, PINCRW(B$TCB$->B$TCB.STK$, 64)->UBIN36, %OCT_FMT, NCARS);

   5260  2 002123   000000 470400 xsym               LDP0    B$TCB$
         2 002124   000001 471500                    LDP1    1,,PR0
         2 002125   200006 633500                    EPPR3   NCARS,,AUTO
         2 002126   200023 453500                    STP3    JITERR+10,,AUTO
         2 002127   000011 236000 3                  LDQ     9
PL6.E3A0      #001=DUR$ECCRPT File=DUR$ECCRPT.:E05TSI                            TUE 07/29/97 14:58 Page:62
         2 002130   200022 756100                    STQ     JITERR+9,,AUTO
         2 002131   100100 634500                    EPPR4   64,,PR1
         2 002132   200021 454500                    STP4    JITERR+8,,AUTO
         2 002133   200005 631500                    EPPR1   BB$,,AUTO
         2 002134   200020 451500                    STP1    JITERR+7,,AUTO
         2 002135   200020 630500                    EPPR0   JITERR+7,,AUTO
         2 002136   000022 631400 xsym               EPPR1   B_VECTNIL+18
         2 002137   000000 701000 xent               TSX1    DDR$BINTXT
         2 002140   000000 011000                    NOP     0

      288     5261        /*N* Linda will change the reference to "64" above if the size of the
      289     5262             safe-store frame ever changes (it you can find her). */
      290     5263    1        BB$ = PINCRC(BB$, NCARS);

   5263  2 002141   200006 236100                    LDQ     NCARS,,AUTO
         2 002142   000020 736000                    QLS     16
         2 002143   200005 036100                    ADLQ    BB$,,AUTO
         2 002144   200005 756100                    STQ     BB$,,AUTO

      291     5264    1        REM = REM - NCARS;

   5264  2 002145   200004 236100                    LDQ     REM,,AUTO
         2 002146   200006 136100                    SBLQ    NCARS,,AUTO
         2 002147   200004 756100                    STQ     REM,,AUTO

      292     5265    1        CALL DDR$MOVE (', EVID=', 7, BB$, REM) ALTRET(TOO_BIG);

   5265  2 002150   200004 630500                    EPPR0   REM,,AUTO
         2 002151   200023 450500                    STP0    JITERR+10,,AUTO
         2 002152   200005 631500                    EPPR1   BB$,,AUTO
         2 002153   200022 451500                    STP1    JITERR+9,,AUTO
         2 002154   000170 237000 3                  LDAQ    120
         2 002155   200020 757100                    STAQ    JITERR+7,,AUTO
         2 002156   200020 630500                    EPPR0   JITERR+7,,AUTO
         2 002157   000022 631400 xsym               EPPR1   B_VECTNIL+18
         2 002160   000000 701000 xent               TSX1    DDR$MOVE
         2 002161   002212 702000 2                  TSX2    TOO_BIG
PL6.E3A0      #001=DUR$ECCRPT File=DUR$ECCRPT.:E05TSI                            TUE 07/29/97 14:58 Page:63

      293     5266    1        CALL DDR$BINTXT(BB$, B$EXCFR.EVID, %OCT_FMT, NCARS);

   5266  2 002162   000000 470400 xsym               LDP0    B$TCB$
         2 002163   000001 471500                    LDP1    1,,PR0
         2 002164   200006 633500                    EPPR3   NCARS,,AUTO
         2 002165   200023 453500                    STP3    JITERR+10,,AUTO
         2 002166   000011 236000 3                  LDQ     9
         2 002167   200022 756100                    STQ     JITERR+9,,AUTO
         2 002170   100101 634500                    EPPR4   65,,PR1
         2 002171   200021 454500                    STP4    JITERR+8,,AUTO
         2 002172   200005 631500                    EPPR1   BB$,,AUTO
         2 002173   200020 451500                    STP1    JITERR+7,,AUTO
         2 002174   200020 630500                    EPPR0   JITERR+7,,AUTO
         2 002175   000022 631400 xsym               EPPR1   B_VECTNIL+18
         2 002176   000000 701000 xent               TSX1    DDR$BINTXT
         2 002177   000000 011000                    NOP     0

      294     5267    1        BB$ = PINCRC(BB$, NCARS);

   5267  2 002200   200006 236100                    LDQ     NCARS,,AUTO
         2 002201   000020 736000                    QLS     16
         2 002202   200005 036100                    ADLQ    BB$,,AUTO
         2 002203   200005 756100                    STQ     BB$,,AUTO

      295     5268    1        REM = REM - NCARS;

   5268  2 002204   200004 236100                    LDQ     REM,,AUTO
         2 002205   200006 136100                    SBLQ    NCARS,,AUTO
         2 002206   200004 756100                    STQ     REM,,AUTO

      296     5269    1        ADD_INST = '1'B;

   5269  2 002207   400000 236003                    LDQ     -131072,DU
         2 002210   200010 756100                    STQ     ADD_INST,,AUTO

      297     5270    1        GOTO ADDRESS;                      /* Add address to the line */
PL6.E3A0      #001=DUR$ECCRPT File=DUR$ECCRPT.:E05TSI                            TUE 07/29/97 14:58 Page:64

   5270  2 002211   001652 710000 2                  TRA     ADDRESS

   5269  2 002212                       TOO_BIG      null
      298     5271    1   TOO_BIG: ;
      299     5272    1        S_D.ERROR = E@BUFFULL;             /*E@BUFFULL*/

   5272  2 002212   000130 235007                    LDA     88,DL
         2 002213   000000 470400 xsym               LDP0    S_D$
         2 002214   000013 755100                    STA     11,,PR0

      300     5273    1        GOTO WRITE_IT;

   5273  2 002215   002016 710000 2                  TRA     WRITE_IT

      301     5274                                                /**/
      302     5275                                           /* The code was getting impossible to read
      303     5276                                              so I stuck this stuff down here.  HEP */
      304     5277    1   LIMIT_PROC: PROC ALTRET;

   5277  2 002216   200016 741300       LIMIT_PROC   STX1  ! JITERR+5,,AUTO

      305     5278                       /* We were building the message for limit exceeded, remember ? */
      306     5279    2        CALL DDR$MOVE('Limit exceeded ', 15, BB$, REM) ALTRET(ALT);

   5279  2 002217   200004 630500                    EPPR0   REM,,AUTO
         2 002220   200023 450500                    STP0    JITERR+10,,AUTO
         2 002221   200005 631500                    EPPR1   BB$,,AUTO
         2 002222   200022 451500                    STP1    JITERR+9,,AUTO
         2 002223   000172 237000 3                  LDAQ    122
         2 002224   200020 757100                    STAQ    JITERR+7,,AUTO
         2 002225   200020 630500                    EPPR0   JITERR+7,,AUTO
         2 002226   000022 631400 xsym               EPPR1   B_VECTNIL+18
         2 002227   000000 701000 xent               TSX1    DDR$MOVE
         2 002230   002435 702000 2                  TSX2    ALT

      307     5280    2        IF B$XCON.LIMIT.PO THEN CALL DDR$MOVE('(PO)', 4, BB$, REM) ALTRET(ALT);
PL6.E3A0      #001=DUR$ECCRPT File=DUR$ECCRPT.:E05TSI                            TUE 07/29/97 14:58 Page:65

   5280  2 002231   000000 470400 xsym               LDP0    B$TCB$
         2 002232   000001 471500                    LDP1    1,,PR0
         2 002233   100101 236100                    LDQ     65,,PR1
         2 002234   400000 316007                    CANQ    -131072,DL
         2 002235   002251 600000 2                  TZE     s:5281

   5280  2 002236   200004 633500                    EPPR3   REM,,AUTO
         2 002237   200023 453500                    STP3    JITERR+10,,AUTO
         2 002240   200005 631500                    EPPR1   BB$,,AUTO
         2 002241   200022 451500                    STP1    JITERR+9,,AUTO
         2 002242   000174 237000 3                  LDAQ    124
         2 002243   200020 757100                    STAQ    JITERR+7,,AUTO
         2 002244   200020 630500                    EPPR0   JITERR+7,,AUTO
         2 002245   000022 631400 xsym               EPPR1   B_VECTNIL+18
         2 002246   000000 701000 xent               TSX1    DDR$MOVE
         2 002247   002435 702000 2                  TSX2    ALT
         2 002250   002433 710000 2                  TRA     s:5290

      308     5281    2        ELSE IF B$XCON.LIMIT.PLO THEN CALL DDR$MOVE('(PLO)', 5, BB$, REM) ALTRET(ALT);

   5281  2 002251   200000 316007                    CANQ    65536,DL
         2 002252   002266 600000 2                  TZE     s:5282

   5281  2 002253   200004 633500                    EPPR3   REM,,AUTO
         2 002254   200023 453500                    STP3    JITERR+10,,AUTO
         2 002255   200005 631500                    EPPR1   BB$,,AUTO
         2 002256   200022 451500                    STP1    JITERR+9,,AUTO
         2 002257   000176 237000 3                  LDAQ    126
         2 002260   200020 757100                    STAQ    JITERR+7,,AUTO
         2 002261   200020 630500                    EPPR0   JITERR+7,,AUTO
         2 002262   000022 631400 xsym               EPPR1   B_VECTNIL+18
         2 002263   000000 701000 xent               TSX1    DDR$MOVE
         2 002264   002435 702000 2                  TSX2    ALT
         2 002265   002433 710000 2                  TRA     s:5290

      309     5282    2            ELSE IF B$XCON.LIMIT.LO THEN CALL DDR$MOVE('(LO)', 4, BB$, REM) ALTRET(ALT
PL6.E3A0      #001=DUR$ECCRPT File=DUR$ECCRPT.:E05TSI                            TUE 07/29/97 14:58 Page:66
              5282                      );

   5282  2 002266   100000 316007                    CANQ    32768,DL
         2 002267   002303 600000 2                  TZE     s:5283

   5282  2 002270   200004 633500                    EPPR3   REM,,AUTO
         2 002271   200023 453500                    STP3    JITERR+10,,AUTO
         2 002272   200005 631500                    EPPR1   BB$,,AUTO
         2 002273   200022 451500                    STP1    JITERR+9,,AUTO
         2 002274   000200 237000 3                  LDAQ    128
         2 002275   200020 757100                    STAQ    JITERR+7,,AUTO
         2 002276   200020 630500                    EPPR0   JITERR+7,,AUTO
         2 002277   000022 631400 xsym               EPPR1   B_VECTNIL+18
         2 002300   000000 701000 xent               TSX1    DDR$MOVE
         2 002301   002435 702000 2                  TSX2    ALT
         2 002302   002433 710000 2                  TRA     s:5290

      310     5283    2                  ELSE IF B$XCON.LIMIT.DGO THEN CALL DDR$MOVE('(DO)', 4, BB$, REM)
              5283                           ALTRET(ALT);

   5283  2 002303   040000 316007                    CANQ    16384,DL
         2 002304   002320 600000 2                  TZE     s:5284

   5283  2 002305   200004 633500                    EPPR3   REM,,AUTO
         2 002306   200023 453500                    STP3    JITERR+10,,AUTO
         2 002307   200005 631500                    EPPR1   BB$,,AUTO
         2 002310   200022 451500                    STP1    JITERR+9,,AUTO
         2 002311   000202 237000 3                  LDAQ    130
         2 002312   200020 757100                    STAQ    JITERR+7,,AUTO
         2 002313   200020 630500                    EPPR0   JITERR+7,,AUTO
         2 002314   000022 631400 xsym               EPPR1   B_VECTNIL+18
         2 002315   000000 701000 xent               TSX1    DDR$MOVE
         2 002316   002435 702000 2                  TSX2    ALT
         2 002317   002433 710000 2                  TRA     s:5290

      311     5284    2                       ELSE IF B$XCON.LIMIT.PDISK THEN CALL DDR$MOVE('(PDIS)', 6, BB$,
              5284                                REM) ALTRET(ALT);
PL6.E3A0      #001=DUR$ECCRPT File=DUR$ECCRPT.:E05TSI                            TUE 07/29/97 14:58 Page:67

   5284  2 002320   020000 316007                    CANQ    8192,DL
         2 002321   002335 600000 2                  TZE     s:5285

   5284  2 002322   200004 633500                    EPPR3   REM,,AUTO
         2 002323   200023 453500                    STP3    JITERR+10,,AUTO
         2 002324   200005 631500                    EPPR1   BB$,,AUTO
         2 002325   200022 451500                    STP1    JITERR+9,,AUTO
         2 002326   000204 237000 3                  LDAQ    132
         2 002327   200020 757100                    STAQ    JITERR+7,,AUTO
         2 002330   200020 630500                    EPPR0   JITERR+7,,AUTO
         2 002331   000022 631400 xsym               EPPR1   B_VECTNIL+18
         2 002332   000000 701000 xent               TSX1    DDR$MOVE
         2 002333   002435 702000 2                  TSX2    ALT
         2 002334   002433 710000 2                  TRA     s:5290

      312     5285    2                            ELSE IF B$XCON.LIMIT.TDISK THEN CALL DDR$MOVE('(TDIS)', 6,
              5285                                     BB$, REM) ALTRET(ALT);

   5285  2 002335   010000 316007                    CANQ    4096,DL
         2 002336   002352 600000 2                  TZE     s:5286

   5285  2 002337   200004 633500                    EPPR3   REM,,AUTO
         2 002340   200023 453500                    STP3    JITERR+10,,AUTO
         2 002341   200005 631500                    EPPR1   BB$,,AUTO
         2 002342   200022 451500                    STP1    JITERR+9,,AUTO
         2 002343   000206 237000 3                  LDAQ    134
         2 002344   200020 757100                    STAQ    JITERR+7,,AUTO
         2 002345   200020 630500                    EPPR0   JITERR+7,,AUTO
         2 002346   000022 631400 xsym               EPPR1   B_VECTNIL+18
         2 002347   000000 701000 xent               TSX1    DDR$MOVE
         2 002350   002435 702000 2                  TSX2    ALT
         2 002351   002433 710000 2                  TRA     s:5290

      313     5286    2                                ELSE IF B$XCON.LIMIT.TAPE THEN CALL DDR$MOVE('(TAPE)',
              5286                                          6, BB$, REM) ALTRET(ALT);

PL6.E3A0      #001=DUR$ECCRPT File=DUR$ECCRPT.:E05TSI                            TUE 07/29/97 14:58 Page:68
   5286  2 002352   004000 316007                    CANQ    2048,DL
         2 002353   002367 600000 2                  TZE     s:5287

   5286  2 002354   200004 633500                    EPPR3   REM,,AUTO
         2 002355   200023 453500                    STP3    JITERR+10,,AUTO
         2 002356   200005 631500                    EPPR1   BB$,,AUTO
         2 002357   200022 451500                    STP1    JITERR+9,,AUTO
         2 002360   000210 237000 3                  LDAQ    136
         2 002361   200020 757100                    STAQ    JITERR+7,,AUTO
         2 002362   200020 630500                    EPPR0   JITERR+7,,AUTO
         2 002363   000022 631400 xsym               EPPR1   B_VECTNIL+18
         2 002364   000000 701000 xent               TSX1    DDR$MOVE
         2 002365   002435 702000 2                  TSX2    ALT
         2 002366   002433 710000 2                  TRA     s:5290

      314     5287    2                                      ELSE IF B$XCON.LIMIT.STACK THEN CALL DDR$MOVE(
              5287                                               '(STACK)', 7, BB$, REM) ALTRET(ALT);

   5287  2 002367   002000 316007                    CANQ    1024,DL
         2 002370   002404 600000 2                  TZE     s:5288

   5287  2 002371   200004 633500                    EPPR3   REM,,AUTO
         2 002372   200023 453500                    STP3    JITERR+10,,AUTO
         2 002373   200005 631500                    EPPR1   BB$,,AUTO
         2 002374   200022 451500                    STP1    JITERR+9,,AUTO
         2 002375   000212 237000 3                  LDAQ    138
         2 002376   200020 757100                    STAQ    JITERR+7,,AUTO
         2 002377   200020 630500                    EPPR0   JITERR+7,,AUTO
         2 002400   000022 631400 xsym               EPPR1   B_VECTNIL+18
         2 002401   000000 701000 xent               TSX1    DDR$MOVE
         2 002402   002435 702000 2                  TSX2    ALT
         2 002403   002433 710000 2                  TRA     s:5290

      315     5288    2                                          ELSE IF B$XCON.LIMIT.TIME THEN CALL DDR$MOVE
              5288                                                    ('(TIME)', 6, BB$, REM) ALTRET(ALT);

   5288  2 002404   001000 316007                    CANQ    512,DL
PL6.E3A0      #001=DUR$ECCRPT File=DUR$ECCRPT.:E05TSI                            TUE 07/29/97 14:58 Page:69
         2 002405   002421 600000 2                  TZE     s:5289

   5288  2 002406   200004 633500                    EPPR3   REM,,AUTO
         2 002407   200023 453500                    STP3    JITERR+10,,AUTO
         2 002410   200005 631500                    EPPR1   BB$,,AUTO
         2 002411   200022 451500                    STP1    JITERR+9,,AUTO
         2 002412   000214 237000 3                  LDAQ    140
         2 002413   200020 757100                    STAQ    JITERR+7,,AUTO
         2 002414   200020 630500                    EPPR0   JITERR+7,,AUTO
         2 002415   000022 631400 xsym               EPPR1   B_VECTNIL+18
         2 002416   000000 701000 xent               TSX1    DDR$MOVE
         2 002417   002435 702000 2                  TSX2    ALT
         2 002420   002433 710000 2                  TRA     s:5290

      316     5289    2                                                ELSE CALL DDR$MOVE('(?)', 3, BB$, REM)
              5289                                                         ALTRET(ALT);

   5289  2 002421   200004 633500                    EPPR3   REM,,AUTO
         2 002422   200023 453500                    STP3    JITERR+10,,AUTO
         2 002423   200005 631500                    EPPR1   BB$,,AUTO
         2 002424   200022 451500                    STP1    JITERR+9,,AUTO
         2 002425   000216 237000 3                  LDAQ    142
         2 002426   200020 757100                    STAQ    JITERR+7,,AUTO
         2 002427   200020 630500                    EPPR0   JITERR+7,,AUTO
         2 002430   000022 631400 xsym               EPPR1   B_VECTNIL+18
         2 002431   000000 701000 xent               TSX1    DDR$MOVE
         2 002432   002435 702000 2                  TSX2    ALT

      317     5290    2        RETURN;

   5290  2 002433   200016 221300                    LDX1  ! JITERR+5,,AUTO
         2 002434   000001 702211                    TSX2  ! 1,X1

      318     5291    2   ALT: ALTRETURN;                         /* TOO_BIG */

   5291  2 002435   200016 221300       ALT          LDX1  ! JITERR+5,,AUTO
         2 002436   000000 702211                    TSX2  ! 0,X1
PL6.E3A0      #001=DUR$ECCRPT File=DUR$ECCRPT.:E05TSI                            TUE 07/29/97 14:58 Page:70

(unnamed)
 Sect OctLoc
   1     000   052052 111116   040104 105114   124101 072040   104125 122111    **IN DELTA: DURI
   1     004   116107 040130   105121 072040   052052 040106   117122 040125    NG XEQ: ** FOR U
   1     010   123105 122072   040040 040040   052052 040104   105114 124101    SER:    ** DELTA
   1     014   040130 103117   116072 040040   052052 040104   122124 116040     XCON:  ** DRTN
   1     020   101114 124072   040040 040040   124111 115105   122040 122125    ALT:    TIMER RU
   1     024   116117 125124   105126 105116   124040 040040   040103 117115    NOUTEVENT    COM
   1     030   120114 105124   105040 040040   102122 105101   113040 040040    PLETE   BREAK
   1     034   040144 165162   151156 147040   155165 154164   151055 167157     during multi-wo
   1     040   162144 040105   111123 040040   040151 156040   163150 141162    rd EIS   in shar
   1     044   145144 040154   151142 162141   162171 040040   115044 105122    ed library  M$ER
   1     050   122040 040040   115044 130130   130040 040040   105130 111124    R   M$XXX   EXIT
   1     054   040146 157162   040115 044114   104124 122103   105130 111124     for M$LDTRCEXIT
   1     060   040146 157162   040115 044123   101126 105040   105130 111124     for M$SAVE EXIT
   1     064   040146 157162   040103 124122   114040 131040   123101 126105     for CTRL Y SAVE
   1     070   105130 111124   040146 157162   040107 105124   115044 105130    EXIT for GETM$EX
   1     074   111124 040040   124150 145040   155157 156151   164157 162040    IT  The monitor
   1     100   150141 163040   141142 157162   164145 144040   171157 165040    has aborted you
   1     104   115117 116130   130130 040040   123160 145143   151141 154040    MONXXX  Special
   1     110   163150 141162   145144 040160   162157 143040   101102 117122    shared proc ABOR
   1     114   124145 144040   117160 145162   141164 157162   040041 105040    Ted Operator !E
   1     120   153145 171151   156040 157162   040041 121125   111124 040040    keyin or !QUIT
   1     124   114151 156145   040144 151163   143157 156156   145143 164040    Line disconnect
   1     130   124150 145040   157160 145162   141164 157162   040041 130047    The operator !X'
   1     134   144040 171157   165040 040040   115044 124122   124116 040040    d you   M$TRTN
   1     140   115044 115105   122103 040040   115044 115105   122103 123040    M$MERC  M$MERCS
   1     144   115044 122105   124122 131040   115044 122105   124122 131123    M$RETRY M$RETRYS
   1     150   106151 156141   154040 040040   040146 162157   155040 145170    Final    from ex
   1     154   151164 040143   157156 164162   157154 040040   102101 104040    it control  BAD
   1     160   120115 115105   054040 116117   040101 114124   122105 124040    PMME, NO ALTRET
   1     164   120115 104040   122105 121125   105123 124105   104040 040040    PMD REQUESTED
   1     170   117126 105122   106114 117127   054040 040040   105130 120040    OVERFLOW,   EXP
   1     200*  125116 104105   122106 114117   127054 040040   104111 126111    UNDERFLOW,  DIVI
   1     204   104105 040103   110105 103113   115115 105040   104105 122101    DE CHECKMME DERA
   1     210   111114 040040   106101 125114   124040 124101   107040 040040    IL  FAULT TAG
PL6.E3A0      #001=DUR$ECCRPT File=DUR$ECCRPT.:E05TSI                            TUE 07/29/97 14:58 Page:71
   1     214   115105 115117   122131 040040   103117 115115   101116 104040    MEMORY  COMMAND
   1     220   114117 103113   125120 040040   111120 122040   115111 123123    LOCKUP  IPR MISS
   1     224   111116 107040   123105 107040   115111 123123   111116 107040    ING SEG MISSING
   1     230   120101 107105   123105 103125   122111 124131   040062 040040    PAGESECURITY 2
   1     234   123105 103125   122111 124131   040061 040040   040106 101125    SECURITY 1   FAU
   1     240   114124 040040   040100 040040   057040 040040   105103 103075    LT   @  /   ECC=
   1     244   054040 103105   103103 102057   124131 120057   105103 103123    , CECCB/TYP/ECCS
   1     250   075040 040040   054040 105126   111104 075040   114151 155151    =   , EVID= Limi
   1     254   164040 145170   143145 145144   145144 040040   050120 117051    t exceeded  (PO)
   1     260   050120 114117   051040 040040   050114 117051   050104 117051    (PLO)   (LO)(DO)
   1     264   050120 104111   123051 040040   050124 104111   123051 040040    (PDIS)  (TDIS)
   1     270   050124 101120   105051 040040   050123 124101   103113 051040    (TAPE)  (STACK)
   1     274   050124 111115   105051 040040   050077 051040                    (TIME)  (?)

(unnamed)
 Sect OctLoc
   3     000   000000 000014   000000 000015   000000 006000   000000 006000    ................
   3     004   000003 006000   000000 006000   000006 006000   000001 006000    ................
   3     010   000000 000017   000003 006000   000012 006000   000010 006000    ................
   3     014   000016 006000   000001 006000   000022 006000   000000 006000    ................
   3     020   000025 006000   000010 006000   000027 006000   000013 006000    ................
   3     024   000032 006000   000007 006000   000000 000026   000000 000022    ................
   3     030   000034 006000   000026 006000   000042 006000   000027 006000    ........."......
   3     034   000047 006000   000007 006000   000051 006000   000007 006000    .'.......)......
   3     040   000000 000020   000000 000024   000053 006000   000040 006000    .........+... ..
   3     044   000057 006000   000010 006000   000063 006000   000041 006000    ./.......3...!..
   3     050   000070 006000   000000 006000   000073 006000   000010 006000    .8.......;......
   3     054   000000 000033   000000 000032   000075 006000   000054 006000    .........=...,..
   3     060   000104 006000   000010 006000   000106 006000   000054 006000    .D.......F...,..
   3     064   000115 006000   000055 006000   000124 006000   000010 006000    .M...-...T......
   3     070   000000 000025   000000 000023   000130 006000   000070 006000    .........X...8..
   3     074   000136 006000   000010 006000   000140 006000   000010 006000    .^.......`......
   3     100   000142 006000   000011 006000   000144 006000   000011 006000    .b.......d......
   3     104   000146 006000   000012 006000   000150 006000   000010 006000    .f.......h......
   3     110   000152 006000   000027 006000   000157 006000   000071 006000    .j.......o...9..
   3     114   000164 006000   000001 006000   000170 006000   000014 006000    .t.......x......
   3     120   000000 000016   777777 400000   000173 006000   000120 006000    .........{...P..
PL6.E3A0      #001=DUR$ECCRPT File=DUR$ECCRPT.:E05TSI                            TUE 07/29/97 14:58 Page:72
   3     124   000177 006000   000010 006000   000203 006000   000000 006000    ................
   3     130   000206 006000   000005 006000   000207 006000   000010 006000    ................
   3     134   000211 006000   000013 006000   000214 006000   000010 006000    ................
   3     140   000216 006000   000011 006000   000220 006000   000010 006000    ................
   3     144   000222 006000   000005 006000   000223 006000   000015 006000    ................
   3     150   000226 006000   000000 006000   000231 006000   000014 006000    ................
   3     154   000234 006000   000014 006000   000237 006000   000010 006000    ................
   3     160   000241 006000   000005 006000   000243 006000   000006 006000    ................
   3     164   000000 000021   000000 000000   000244 006000   000164 006000    .............t..
   3     170   000251 006000   000011 006000   000253 006000   000010 006000    ................
   3     174   000257 006000   000006 006000   000260 006000   000007 006000    ................
   3     200   000262 006000   000006 006000   000263 006000   000006 006000    ................
   3     204   000264 006000   000010 006000   000266 006000   000010 006000    ................
   3     210   000270 006000   000010 006000   000272 006000   000011 006000    ................
   3     214   000274 006000   000010 006000   000276 006000   000005 006000    ................
      319     5292    2   END LIMIT_PROC;
      320     5293    1   END DUR$ECCRPT;

PL6.E3A0      #001=DUR$ECCRPT File=DUR$ECCRPT.:E05TSI                            TUE 07/29/97 14:58 Page:73
--  Include file information  --

   DD_SRTN_C.:E05TOU  is referenced.
   DD_ACODE_C.:E05TOU  is referenced.
   DD_ICODE_C.:E05TOU  is referenced.
   DD$DITEM.:E05TOU  cannot be made into a system file and is referenced.
   DD_DEBUG_C.:E05TOU  is referenced.
   DD_SUBS_C.:E05TOU  is referenced.
   DD_SD_M.:E05TOU  is referenced.
   XUH_MACRO_C.:E05TOU  is referenced.
   DD_ERR_C.:E05TOU  is referenced.
   M_INFO_C.:E05TOU  is referenced.
   B$JIT.:E05TOU  cannot be made into a system file and is referenced.
   CP_6.:E05TOU  cannot be made into a system file and is referenced.
   B$SS.:E05TOU  cannot be made into a system file and is referenced.
   B$JIT_C.:E05TOU  was found in the system file and is referenced.
   CP_6_C.:E05TOU  was found in the system file and is referenced.
      No diagnostics issued in procedure DUR$ECCRPT.

   Procedure DUR$ECCRPT requires 1311 words for executable code.
   Procedure DUR$ECCRPT requires 22 words of local(AUTO) storage.

    No errors detected in file DUR$ECCRPT.:E05TSI    .
PL6.E3A0      #001=DUR$ECCRPT File=DUR$ECCRPT.:E05TSI                            TUE 07/29/97 14:58 Page:74
          *** CROSS REFERENCE LISTING ***
**     DENOTES     IDENTIFIER DEFINITION
<<                 IDENTIFIER'S VALUE SET
>>                 IDENTIFIER'S VALUE USED
<>                 IDENTIFIER SET AND/OR USED
--                 IDENTIFIER REFERENCED
PL6.E3A0      #001=DUR$ECCRPT File=DUR$ECCRPT.:E05TSI                            TUE 07/29/97 14:58 Page:75
          MINI XREF LISTING

ADDRESS
      5221**LABEL    5270--GOTO
ADD_INST
        36**DCL      5051<<ASSIGN   5146<<ASSIGN   5150<<ASSIGN   5152<<ASSIGN   5179<<ASSIGN   5191<<ASSIGN
      5239>>IF       5269<<ASSIGN
ALT
      5252**LABEL    5246--CALLALT
ALT IN PROCEDURE LIMIT_PROC
      5291**LABEL    5279--CALLALT  5280--CALLALT  5281--CALLALT  5282--CALLALT  5283--CALLALT  5284--CALLALT
      5285--CALLALT  5286--CALLALT  5287--CALLALT  5288--CALLALT  5289--CALLALT
B$EXCFR
       761**DCL      5129--DOCASE
B$EXCFR.ASL
       761**DCL       761--REDEF
B$EXCFR.ECC
       761**DCL      5073>>DOCASE   5256>>CALLBLT
B$EXCFR.ERR.ERR#
       775**DCL       775--REDEF
B$EXCFR.EVID
       774**DCL       774--REDEF     775--REDEF    5078<>CALL     5266<>CALL
B$EXCFR.IR
       762**DCL       762--REDEF
B$EXCFR.PREVSZ
       761**DCL       761--REDEF
B$EXCFR.SUBC
       773**DCL       773--REDEF     774--REDEF     774--REDEF    5116>>DOCASE   5153>>DOCASE   5180>>DOCASE
      5192>>DOCASE
B$EXCRTN.TYP
       844**DCL      5129>>DOCASE
B$FLT.ERR.ERR#
       801**DCL       802--REDEF
B$JIT.CPFLAGS1.SLEAZE
PL6.E3A0      #001=DUR$ECCRPT File=DUR$ECCRPT.:E05TSI                            TUE 07/29/97 14:58 Page:76
       438**DCL       438--REDEF
B$JIT.ERR.MID
       345**DCL       345--REDEF
B$JIT.JRESPEAK
       506**DCL       507--REDEF
B$JIT.ORIGINATOR_PORT.FROM_CR
       615**DCL       615--REDEF     616--REDEF
B$JIT.PCL
       508**DCL      5085>>IF
B$JIT.PNR
       519**DCL       519--REDEF
B$JIT.TDP
       504**DCL      5085>>IF
B$JIT.TSLINE
       613**DCL       614--REDEF
B$JIT$
      5042**DCL       339--IMP-PTR  5085>>IF       5085>>IF
B$SS.IC
        65**DCL      5057>>ASSIGN
B$SS.IR
        66**DCL      5157--IF       5159--IF       5161--IF
B$SS.IR.MIR
        79**DCL      5083>>IF
B$SS.RVA
        98**DCL        99--REDEF
B$TCB.STK$
       779**DCL      5057>>ASSIGN   5073>>DOCASE   5078>>CALL     5083>>IF       5089>>IF       5091>>IF
      5093>>IF       5095>>IF       5096>>IF       5097>>IF       5098>>IF       5101>>IF       5105>>IF
      5106>>IF       5107>>IF       5108>>IF       5109>>IF       5110>>IF       5116>>DOCASE   5129>>DOCASE
      5129>>DOCASE   5153>>DOCASE   5180>>DOCASE   5192>>DOCASE   5256>>CALLBLT  5260>>CALL     5266>>CALL
      5280>>IF       5281>>IF       5282>>IF       5283>>IF       5284>>IF       5285>>IF       5286>>IF
      5287>>IF       5288>>IF
B$TCB$
      5041**DCL      5057>>ASSIGN   5073>>DOCASE   5078>>CALL     5083>>IF       5089>>IF       5091>>IF
      5093>>IF       5095>>IF       5096>>IF       5097>>IF       5098>>IF       5101>>IF       5105>>IF
      5106>>IF       5107>>IF       5108>>IF       5109>>IF       5110>>IF       5116>>DOCASE   5129>>DOCASE
PL6.E3A0      #001=DUR$ECCRPT File=DUR$ECCRPT.:E05TSI                            TUE 07/29/97 14:58 Page:77
      5129>>DOCASE   5153>>DOCASE   5180>>DOCASE   5192>>DOCASE   5256>>CALLBLT  5260>>CALL     5266>>CALL
      5280>>IF       5281>>IF       5282>>IF       5283>>IF       5284>>IF       5285>>IF       5286>>IF
      5287>>IF       5288>>IF
B$XCON.CECCB.CPSAVE
       783**DCL      5097>>IF
B$XCON.CECCB.GET
       783**DCL      5098>>IF
B$XCON.CECCB.LNK
       782**DCL      5095>>IF
B$XCON.CECCB.SAVE
       783**DCL      5096>>IF
B$XCON.ERR.ERR#
       788**DCL       788--REDEF
B$XCON.LIMIT.DGO
       786**DCL      5283>>IF
B$XCON.LIMIT.LO
       786**DCL      5282>>IF
B$XCON.LIMIT.MEM
       786**DCL       786--REDEF
B$XCON.LIMIT.PDISK
       786**DCL      5284>>IF
B$XCON.LIMIT.PLO
       786**DCL      5281>>IF
B$XCON.LIMIT.PO
       785**DCL      5280>>IF
B$XCON.LIMIT.STACK
       786**DCL      5287>>IF
B$XCON.LIMIT.TAPE
       786**DCL      5286>>IF
B$XCON.LIMIT.TDISK
       786**DCL      5285>>IF
B$XCON.LIMIT.TIME
       786**DCL      5288>>IF
B$XCON.RNST
       783**DCL      5093>>IF
B$XCON.RNST.ERR
PL6.E3A0      #001=DUR$ECCRPT File=DUR$ECCRPT.:E05TSI                            TUE 07/29/97 14:58 Page:78
       784**DCL      5089>>IF
B$XCON.RNST.HANGUP
       783**DCL      5108>>IF
B$XCON.RNST.LIMIT
       783**DCL      5110>>IF
B$XCON.RNST.MABRT
       784**DCL      5101>>IF
B$XCON.RNST.MONXXX
       784**DCL      5105>>IF
B$XCON.RNST.OPERR
       784**DCL      5107>>IF
B$XCON.RNST.OPXXX
       783**DCL      5109>>IF
B$XCON.RNST.SSPABRT
       784**DCL      5106>>IF
B$XCON.RNST.XXX
       784**DCL      5091>>IF
BB$
        32**DCL      5055<<ASSIGN   5060<>CALL     5062<>CALL     5064<>CALL     5066<>CALL     5068<>CALL
      5075<>CALL     5077<>CALL     5078<>CALL     5079<<ASSIGN   5079>>ASSIGN   5080<>CALL     5082<>CALL
      5084<>CALL     5087<>CALL     5090<>CALL     5092<>CALL     5095<>CALL     5096<>CALL     5097<>CALL
      5098<>CALL     5099<>CALL     5103<>CALL     5105<>CALL     5106<>CALL     5107<>CALL     5108<>CALL
      5109<>CALL     5118<>CALL     5120<>CALL     5122<>CALL     5124<>CALL     5126<>CALL     5128<>CALL
      5131<>CALL     5133<>CALL     5135<>CALL     5139<>CALL     5144<>CALL     5148<>CALL     5158<>CALL
      5160<>CALL     5162<>CALL     5166<>CALL     5168<>CALL     5170<>CALL     5172<<ASSIGN   5172>>ASSIGN
      5174<>CALL     5182<>CALL     5184<>CALL     5186<>CALL     5194<>CALL     5196<>CALL     5198<>CALL
      5200<>CALL     5202<>CALL     5204<>CALL     5206<>CALL     5208<>CALL     5212<>CALL     5219>>CALL
      5220<<ASSIGN   5227<>CALL     5230<>CALL     5232<>CALL     5234<>CALL     5238<<ASSIGN   5238>>ASSIGN
      5243>>ASSIGN   5244>>ASSIGN   5247<<ASSIGN   5250>>CALL     5255<>CALL     5256>>CALLBLT  5258<<ASSIGN
      5258>>ASSIGN   5259<>CALL     5260<>CALL     5263<<ASSIGN   5263>>ASSIGN   5265<>CALL     5266<>CALL
      5267<<ASSIGN   5267>>ASSIGN   5279<>CALL     5280<>CALL     5281<>CALL     5282<>CALL     5283<>CALL
      5284<>CALL     5285<>CALL     5286<>CALL     5287<>CALL     5288<>CALL     5289<>CALL
CHAR2
        40**DCL      5243<<ASSIGN   5256<<CALLBLT
DDE$ERROR
      5048**DCL-ENT  5253--CALL
PL6.E3A0      #001=DUR$ECCRPT File=DUR$ECCRPT.:E05TSI                            TUE 07/29/97 14:58 Page:79
DDQ$WRITE
      5047**DCL-ENT  5219--CALL     5250--CALL
DDR$BINTXT
      5044**DCL-ENT  5078--CALL     5232--CALL     5260--CALL     5266--CALL
DDR$INSTR
      5045**DCL-ENT  5246--CALL
DDR$MOVE
      5043**DCL-ENT  5060--CALL     5062--CALL     5064--CALL     5066--CALL     5068--CALL     5075--CALL
      5077--CALL     5080--CALL     5082--CALL     5084--CALL     5087--CALL     5090--CALL     5092--CALL
      5095--CALL     5096--CALL     5097--CALL     5098--CALL     5099--CALL     5103--CALL     5105--CALL
      5106--CALL     5107--CALL     5108--CALL     5109--CALL     5118--CALL     5120--CALL     5122--CALL
      5124--CALL     5126--CALL     5128--CALL     5131--CALL     5133--CALL     5135--CALL     5139--CALL
      5144--CALL     5148--CALL     5158--CALL     5160--CALL     5162--CALL     5166--CALL     5168--CALL
      5170--CALL     5174--CALL     5182--CALL     5184--CALL     5186--CALL     5194--CALL     5196--CALL
      5198--CALL     5200--CALL     5202--CALL     5204--CALL     5206--CALL     5208--CALL     5212--CALL
      5227--CALL     5255--CALL     5259--CALL     5265--CALL     5279--CALL     5280--CALL     5281--CALL
      5282--CALL     5283--CALL     5284--CALL     5285--CALL     5286--CALL     5287--CALL     5288--CALL
      5289--CALL
DDR$POSIT
      5046**DCL-ENT  5230--CALL     5234--CALL
DUE$UERRMSG
      5049**DCL-ENT  5252--CALL
D_XDELTA
        38**DCL      5155>>IF
EH
      5255**LABEL    5113--GOTO     5137--GOTO     5141--GOTO     5176--GOTO     5188--GOTO     5210--GOTO
      5214--GOTO     5222--GOTO
FPT$DRTN.V.IR#
       319**DCL       319--REDEF    5165--IF       5167--IF       5169--IF
IC
        34**DCL      5057<<ASSIGN   5085>>IF       5230<>CALL     5232<>CALL     5246>>CALL
IND.EXPOV
        44**DCL      5159>>IF       5167>>IF
IND.EXPUN
        45**DCL      5161>>IF       5169>>IF
IND.OV
PL6.E3A0      #001=DUR$ECCRPT File=DUR$ECCRPT.:E05TSI                            TUE 07/29/97 14:58 Page:80
        43**DCL      5157>>IF       5165>>IF
JITERR
        37**DCL      5052<<ASSIGN   5102<<ASSIGN   5112<<ASSIGN   5145<<ASSIGN   5149<<ASSIGN   5252>>IF
LIMIT_PROC
      5277**PROC     5110--CALL
NCARS
        33**DCL      5078<>CALL     5079>>ASSIGN   5230<>CALL     5232<>CALL     5234<>CALL     5236<<ASSIGN
      5238>>ASSIGN   5260<>CALL     5263>>ASSIGN   5264>>ASSIGN   5266<>CALL     5267>>ASSIGN   5268>>ASSIGN
REM
        31**DCL      5054<<ASSIGN   5060<>CALL     5062<>CALL     5064<>CALL     5066<>CALL     5068<>CALL
      5075<>CALL     5077<>CALL     5080<>CALL     5082<>CALL     5084<>CALL     5087<>CALL     5090<>CALL
      5092<>CALL     5095<>CALL     5096<>CALL     5097<>CALL     5098<>CALL     5099<>CALL     5103<>CALL
      5105<>CALL     5106<>CALL     5107<>CALL     5108<>CALL     5109<>CALL     5118<>CALL     5120<>CALL
      5122<>CALL     5124<>CALL     5126<>CALL     5128<>CALL     5131<>CALL     5133<>CALL     5135<>CALL
      5139<>CALL     5144<>CALL     5148<>CALL     5158<>CALL     5160<>CALL     5162<>CALL     5166<>CALL
      5168<>CALL     5170<>CALL     5174<>CALL     5182<>CALL     5184<>CALL     5186<>CALL     5194<>CALL
      5196<>CALL     5198<>CALL     5200<>CALL     5202<>CALL     5204<>CALL     5206<>CALL     5208<>CALL
      5212<>CALL     5221<<ASSIGN   5227<>CALL     5230<>CALL     5234<>CALL     5255<>CALL     5257<<ASSIGN
      5257>>ASSIGN   5259<>CALL     5264<<ASSIGN   5264>>ASSIGN   5265<>CALL     5268<<ASSIGN   5268>>ASSIGN
      5279<>CALL     5280<>CALL     5281<>CALL     5282<>CALL     5283<>CALL     5284<>CALL     5285<>CALL
      5286<>CALL     5287<>CALL     5288<>CALL     5289<>CALL
S_D.CURRENT_CHANNEL
      3701**DCL      3703--REDEF
S_D.D$
      2839**DCL      5244<<ASSIGN   5247>>ASSIGN
S_D.DEBUGA
      2853**DCL      2855--REDEF    5217>>IF
S_D.DESCL$
      2835**DCL      5245<<ASSIGN
S_D.DRTN$
      3306**DCL      5165>>IF       5167>>IF       5169>>IF
S_D.EIS
      3811**DCL      3840--REDEF
S_D.ERROR
      2782**DCL      5053<<ASSIGN   5253>>IF       5272<<ASSIGN
S_D.HOST_MESSAGE_BUF_REMOTE
PL6.E3A0      #001=DUR$ECCRPT File=DUR$ECCRPT.:E05TSI                            TUE 07/29/97 14:58 Page:81
      3744**DCL      3745--REDEF    3759--REDEF
S_D.ISBASE
      3031**DCL      5057>>ASSIGN
S_D.JDE
      3358**DCL      3359--REDEF
S_D.L$.VALUE
      2911**DCL      2917--REDEF    2925--REDEF    2928--REDEF    2931--REDEF    2934--REDEF
S_D.L$.VALUE.L
      2912**DCL      2913--REDEF    2914--REDEF
S_D.L6_MESSAGE_BUF
      3765**DCL      3767--REDEF
S_D.OUTPUT
      3731**DCL      3733--REDEF    5054--ASSIGN   5055--ASSIGN   5056<<ASSIGN   5219--CALL     5219--CALL
      5220--ASSIGN   5221--ASSIGN   5245--ASSIGN   5245--ASSIGN   5250--CALL     5250--CALL
S_D.REMOTE_MSG.FNCC
      3750**DCL      3751--REDEF
S_D.REMOTE_MSG.STXC
      3746**DCL      3747--REDEF
S_D.REMOTE_MSG.SUBFNCC
      3754**DCL      3755--REDEF
S_D.SAVEIC
      2764**DCL      5234<>CALL
S_D.SV
      2810**DCL      2831--REDEF
S_D.USS$
      2770**DCL      5157>>IF       5159>>IF       5161>>IF
S_D$
      4062**DCL      2758--IMP-PTR  5053>>ASSIGN   5055>>ASSIGN   5056>>ASSIGN   5057>>ASSIGN   5157>>IF
      5159>>IF       5161>>IF       5165>>IF       5167>>IF       5169>>IF       5217>>IF       5219>>CALL
      5219>>CALL     5220>>ASSIGN   5234>>CALL     5244>>ASSIGN   5245>>ASSIGN   5245>>ASSIGN   5247>>ASSIGN
      5250>>CALL     5250>>CALL     5253>>IF       5272>>ASSIGN
TOO_BIG
      5269**LABEL    5060--CALLALT  5062--CALLALT  5064--CALLALT  5066--CALLALT  5068--CALLALT  5075--CALLALT
      5077--CALLALT  5080--CALLALT  5082--CALLALT  5084--CALLALT  5087--CALLALT  5090--CALLALT  5092--CALLALT
      5095--CALLALT  5096--CALLALT  5097--CALLALT  5098--CALLALT  5099--CALLALT  5103--CALLALT  5105--CALLALT
      5106--CALLALT  5107--CALLALT  5108--CALLALT  5109--CALLALT  5110--CALLALT  5118--CALLALT  5120--CALLALT
PL6.E3A0      #001=DUR$ECCRPT File=DUR$ECCRPT.:E05TSI                            TUE 07/29/97 14:58 Page:82
      5122--CALLALT  5124--CALLALT  5126--CALLALT  5128--CALLALT  5131--CALLALT  5133--CALLALT  5135--CALLALT
      5139--CALLALT  5144--CALLALT  5148--CALLALT  5158--CALLALT  5160--CALLALT  5162--CALLALT  5166--CALLALT
      5168--CALLALT  5170--CALLALT  5174--CALLALT  5182--CALLALT  5184--CALLALT  5186--CALLALT  5194--CALLALT
      5196--CALLALT  5198--CALLALT  5200--CALLALT  5202--CALLALT  5204--CALLALT  5206--CALLALT  5208--CALLALT
      5212--CALLALT  5227--CALLALT  5255--CALLALT  5259--CALLALT  5265--CALLALT
UBIN36
        39**DCL      5246<>CALL     5260<>CALL
UIS$
      5040**DCL      5246>>CALL
WHOS_FAULT
        35**DCL        30--PROC     5058>>DOCASE   5217>>IF       5228>>DOCASE   5239>>IF       5239>>IF
      5239>>IF       5239>>IF
WRITE_IT
      5245**LABEL    5273--GOTO
PL6.E3A0      #001=DUR$ECCRPT File=DUR$ECCRPT.:E05TSI                            TUE 07/29/97 14:58 Page:83
              *** CROSS REFERENCE LISTING ***
    **     DENOTES     IDENTIFIER DEFINITION
    <<                 IDENTIFIER'S VALUE SET
    >>                 IDENTIFIER'S VALUE USED
    <>                 IDENTIFIER SET AND/OR USED
    --                 IDENTIFIER REFERENCED
PL6.E3A0      #001=DUR$ECCRPT File=DUR$ECCRPT.:E05TSI                            TUE 07/29/97 14:58 Page:84
              MINI UREF LISTING

DUR$ECCRPT      30**PROC
M$ACCT     251**DCL-ENT
M$ACTIVATE     254**DCL-ENT
M$ALIB     247**DCL-ENT
M$ASUSER     249**DCL-ENT
M$ATTACH     256**DCL-ENT
M$BADPP     274**DCL-ENT
M$CGCTL     255**DCL-ENT
M$CGINFO     255**DCL-ENT
M$CHECK     236**DCL-ENT
M$CHGUNIT     294**DCL-ENT
M$CLOSE     234**DCL-ENT
M$CLRSTK     292**DCL-ENT
M$CMDVAR     303**DCL-ENT
M$CONFIG     264**DCL-ENT
M$CORRES     239**DCL-ENT
M$CPEXIT     248**DCL-ENT
M$CVM     272**DCL-ENT
M$CVOL     237**DCL-ENT
M$DCLFLD     264**DCL-ENT
M$DEACTIVATE     254**DCL-ENT
M$DELREC     236**DCL-ENT
M$DEQ     301**DCL-ENT
M$DETACH     256**DCL-ENT
M$DEVICE     238**DCL-ENT
M$DISPLAY     301**DCL-ENT
M$DISPRES     241**DCL-ENT
M$DLIB     247**DCL-ENT
M$DRIBBLE     264**DCL-ENT
M$DRTN     292**DCL-ENT
M$DSUSER     249**DCL-ENT
M$ENQ     300**DCL-ENT
PL6.E3A0      #001=DUR$ECCRPT File=DUR$ECCRPT.:E05TSI                            TUE 07/29/97 14:58 Page:85
M$EOM     259**DCL-ENT
M$ERASE     265**DCL-ENT
M$ERR     246**DCL-ENT
M$ERRMSG     297**DCL-ENT
M$EVENT     289**DCL-ENT
M$EXHUME     298**DCL-ENT
M$EXIT     246**DCL-ENT
M$EXTEND     238**DCL-ENT
M$FDP     270**DCL-ENT
M$FDS     269**DCL-ENT
M$FEBOOT     262**DCL-ENT
M$FECTL     263**DCL-ENT
M$FEDUMP     262**DCL-ENT
M$FID     297**DCL-ENT
M$FINDPROC     251**DCL-ENT
M$FSUSER     249**DCL-ENT
M$FVP     271**DCL-ENT
M$FWCG     255**DCL-ENT
M$GBPL     275**DCL-ENT
M$GDDL     271**DCL-ENT
M$GDP     270**DCL-ENT
M$GDS     269**DCL-ENT
M$GETDCB     240**DCL-ENT
M$GETMOUSE     280**DCL-ENT
M$GETPM     281**DCL-ENT
M$GJOB     299**DCL-ENT
M$GLINEATTR     259**DCL-ENT
M$GOODPP     274**DCL-ENT
M$GPLATEN     267**DCL-ENT
M$GPROMPT     266**DCL-ENT
M$GTRMATTR     260**DCL-ENT
M$GTRMCTL     258**DCL-ENT
M$GTRMTAB     261**DCL-ENT
M$GVP     270**DCL-ENT
M$HELP     297**DCL-ENT
M$INT     289**DCL-ENT
PL6.E3A0      #001=DUR$ECCRPT File=DUR$ECCRPT.:E05TSI                            TUE 07/29/97 14:58 Page:86
M$INTRTN     250**DCL-ENT
M$IOQ     285**DCL-ENT
M$JOBSTATS     299**DCL-ENT
M$KEYIN     239**DCL-ENT
M$LDEV     234**DCL-ENT
M$LDTRC     247**DCL-ENT
M$LIMIT     240**DCL-ENT
M$LINES     239**DCL-ENT
M$LINK     246**DCL-ENT
M$MADMUCK     242**DCL-ENT
M$MAKUSER     273**DCL-ENT
M$MBS     241**DCL-ENT
M$MDFFLD     265**DCL-ENT
M$MERC     290**DCL-ENT
M$MERCS     291**DCL-ENT
M$MIRROR     285**DCL-ENT
M$MONINFO     302**DCL-ENT
M$MPL     275**DCL-ENT
M$NODEINFO     266**DCL-ENT
M$NXTUSR     300**DCL-ENT
M$OCMSG     298**DCL-ENT
M$OLAY     246**DCL-ENT
M$OPEN     234**DCL-ENT
M$PAS     275**DCL-ENT
M$PATHCON     298**DCL-ENT
M$PDS     269**DCL-ENT
M$PFIL     236**DCL-ENT
M$PLATEN     260**DCL-ENT
M$PRECORD     238**DCL-ENT
M$PROCNAME     251**DCL-ENT
M$PROFILE     262**DCL-ENT
M$PROMPT     258**DCL-ENT
M$RACST     242**DCL-ENT
M$RDSYSLOG     283**DCL-ENT
M$READ     235**DCL-ENT
M$RELDCB     240**DCL-ENT
PL6.E3A0      #001=DUR$ECCRPT File=DUR$ECCRPT.:E05TSI                            TUE 07/29/97 14:58 Page:87
M$RELRES     241**DCL-ENT
M$RELSTARF     243**DCL-ENT
M$REM     243**DCL-ENT
M$RENV     290**DCL-ENT
M$REQUIRE     242**DCL-ENT
M$RETRY     291**DCL-ENT
M$RETRYS     291**DCL-ENT
M$REW     237**DCL-ENT
M$RLSFLD     265**DCL-ENT
M$RPRIV     293**DCL-ENT
M$RSPP     272**DCL-ENT
M$RSWITCH     294**DCL-ENT
M$RUE     300**DCL-ENT
M$SAD     273**DCL-ENT
M$SAVE     249**DCL-ENT
M$SCON     250**DCL-ENT
M$SCREECH     248**DCL-ENT
M$SENV     290**DCL-ENT
M$SETFMA     234**DCL-ENT
M$SETFP     263**DCL-ENT
M$SINPUT     261**DCL-ENT
M$SLCFLD     266**DCL-ENT
M$SMOUSE     280**DCL-ENT
M$SMPRT     272**DCL-ENT
M$SPRIV     293**DCL-ENT
M$SSC     273**DCL-ENT
M$SSWITCH     293**DCL-ENT
M$STATE     302**DCL-ENT
M$STD     274**DCL-ENT
M$STIMER     288**DCL-ENT
M$STLPP     271**DCL-ENT
M$STRAP     288**DCL-ENT
M$STRMATTR     260**DCL-ENT
M$STRMCTL     258**DCL-ENT
M$STRMTAB     261**DCL-ENT
M$SYMBIO     299**DCL-ENT
PL6.E3A0      #001=DUR$ECCRPT File=DUR$ECCRPT.:E05TSI                            TUE 07/29/97 14:58 Page:88
M$SYSCON     285**DCL-ENT
M$SYSID     303**DCL-ENT
M$TDCLOSE     284**DCL-ENT
M$TDIO     284**DCL-ENT
M$TDOPEN     283**DCL-ENT
M$TDREQCPU     284**DCL-ENT
M$TEMPWROC     278**DCL-ENT
M$TIME     301**DCL-ENT
M$TRAP     288**DCL-ENT
M$TRMISC     263**DCL-ENT
M$TRMPRG     259**DCL-ENT
M$TRTN     292**DCL-ENT
M$TRUNC     235**DCL-ENT
M$TTIMER     288**DCL-ENT
M$UC     258**DCL
M$UMPL     275**DCL-ENT
M$UNFID     297**DCL-ENT
M$UNLATCH     254**DCL-ENT
M$UNSHARE     251**DCL-ENT
M$USRFIELD     294**DCL-ENT
M$VIRTUAL     269**DCL-ENT
M$WAIT     292**DCL-ENT
M$WEOF     237**DCL-ENT
M$WRITE     235**DCL-ENT
M$WRSYSLOG     283**DCL-ENT
M$XCON     289**DCL-ENT
M$XCONRTN     250**DCL-ENT
M$XEQTIME     302**DCL-ENT
M$XFLUSH     243**DCL-ENT
M$XMOUSE     280**DCL-ENT
M$XXX     246**DCL-ENT
M$YC     248**DCL-ENT
SDD$    4463**DCL
SDD_L6$    4465**DCL
ZITEM$    4464**DCL
ZITEM_L6$    4466**DCL
