VERSION E05

PL6.E3A0      #001=DUS$BLD File=DUS$BLD.:E05TSI                                  TUE 07/29/97 14:58 Page:1
        1        1        /*M* DUS$BLD Build routines for User DELTA only commands */
        2        2        /*T***********************************************************/
        3        3        /*T*                                                         */
        4        4        /*T* Copyright (c) Bull HN Information Systems Inc., 1997    */
        5        5        /*T*                                                         */
        6        6        /*T***********************************************************/
        7        7        /*X* DMR,PLM=5,IND=5,CSU=3,EXM=0,ECU=3,MOC,DCI=5,CRT=5 */
        8        8        /*F* NAME: DUS$BLD
        9        9             PURPOSE: To build command frames for User DELTA only commands.
       10       10             DESCRIPTION: This module contains various User DELTA only build routines.
       11       11                          The commands that are built here have different syntax
       12       12                          in User DELTA and Exec DELTA */
       13       13        /*D* NAME: DUS$BLD
       14       14             ENVIRONMENT: User Delta.
       15       15             INPUT: S_D.NCMD$ - Ptr to root of parse output tree for command to
       16       16                                be built.
       17       17                    S_D.LASTBLT$ - Ptr to build frame, where to build command.
       18       18             OUTPUT: The appropriate frame built where specified.
       19       19             DESCRIPTION: This module contains various User DELTA only build routines.
       20       20                          The commands that are built here have different syntax
       21       21                          in User DELTA and Exec DELTA. The routines that reside
       22       22                          in this module are coded just like the build routines
       23       23                          in DDS$SCAN. */
       24       24                                                /**/
       25       25        DUS$BLD: PROC ALTRET;
       26       26                                                /**/
       27       27        %INCLUDE DD$BASED;
       28     1330        %INCLUDE DD_ERR_C;
       29     1727        %INCLUDE DD_PSUBS_C;
       30     2202        %INCLUDE DD_SUBS_C;
       31     2473        %INCLUDE XU_MACRO_C;
       32     5579        %INCLUDE XU_SUBS_C;
       33     5671        /* Auto */
       34     5672    1   DCL NCMD$ PTR;
       35     5673    1   DCL LASTBLT$ PTR;
       36     5674    1   DCL NSB SBIN;
       37     5675    1   DCL IX SBIN;
PL6.E3A0      #001=DUS$BLD File=DUS$BLD.:E05TSI                                  TUE 07/29/97 14:58 Page:2
       38     5676    1   DCL TEMP_FLAG BIT(1) ALIGNED;
       39     5677        /*D* NSB & IX must be SBIN */
       40     5678    1   DCL NC$ PTR;
       41     5679    1   DCL CODE UBIN;
       42     5680    1   DCL V UBIN;
       43     5681    1   DCL L$ PTR;
       44     5682    1   DCL REC SBIN;
       45     5683    1   DCL IXX UBIN;
       46     5684    1   DCL CHAR2 CHAR(2) ALIGNED;
       47     5685        /* Based */
       48     5686        %KEEP$CMD (NAME=KEEP$CMD,STCLASS="BASED(LASTBLT$)");
       49     5705        %DUMP$CMD (NAME=DUMP$CMD,STCLASS="BASED(LASTBLT$)");
       50     5735        %ALL_ATTACH (NAME=ECHO$CMD,STCLASS="BASED(LASTBLT$)");
       51     5750        %RUM$CMD (NAME=OUTPUT$CMD,STCLASS="BASED(LASTBLT$)");
       52     5774        %RUM$CMD (NAME=READ$CMD,STCLASS="BASED(LASTBLT$)");
       53     5798        %FPRG$CONTEXT;
       54     5861        %PARSE$OUT (NAME=POB,STCLASS=BASED,NSUBLKS=NSB);
       55     5906        %PARSE$SYM (NAME=SYM,STCLASS=BASED);
       56     5944        %TEXT$C;
       57     5949    1   DCL 1 TTEXT$C BASED,
       58     5950    1         2 SIZE UBIN(9) UNAL,
       59     5951    1         2 TXT CHAR(V) UNAL;
       60     5952        %INCLUDE DD$DITEM;
       12+    6055             %LIST;
       13+    6056    1        DCL SDD$ PTR;
       14+    6057    1        DCL ZITEM$ PTR;
       15+    6058    1        DCL SDD_L6$ PTR;
       16+    6059    1        DCL ZITEM_L6$ PTR;
       61     6633        %ZITEM;
       62     6705        %INCLUDE XUH_MACRO_C;
       63     6789        %INCLUDE DD_SD_M;
       64     8125        %S_D;
       65     9443        /* Constant */
       66     9444    1   DCL 1 ME CONSTANT,
       67     9445    1         2 SIZE UBIN BYTE UNAL INIT(LENGTHC(ME.TEXT)),
       68     9446    1         2 TEXT CHAR(0) UNAL INIT('ME');
       69     9447    1   DCL 1 UC CONSTANT,
PL6.E3A0      #001=DUS$BLD File=DUS$BLD.:E05TSI                                  TUE 07/29/97 14:58 Page:3
       70     9448    1         2 SIZE UBIN BYTE UNAL INIT(LENGTHC(UC.TEXT)),
       71     9449    1         2 TEXT CHAR(0) UNAL INIT('UC');
       72     9450        /* Entrys */
       73     9451    1   DCL DDD$BUMP_D$ ENTRY(1) ALTRET;
       74     9452    1   DCL DDE$ERROR ENTRY(0);
       75     9453    1   DCL DDS$ATTDIRA ENTRY(2) ALTRET;
       76     9454    1   DCL DDS$DECIMAL ENTRY(2) ALTRET;
       77     9455    1   DCL DDD$SIMEXP ENTRY(3) ALTRET;
       78     9456    1   DCL DDS$VREFCOM ENTRY(2) ALTRET;
       79     9457        %EJECT;
PL6.E3A0      #001=DUS$BLD File=DUS$BLD.:E05TSI                                  TUE 07/29/97 14:58 Page:4
       80     9458        /*F* NAME: DDS$BLD_KEEP
       81     9459             PURPOSE: TO BUILD THE KEEP COMMAND.
       82     9460             DESCRIPTION: BUILDS THE KEEP COMMAND. */
       83     9461        /*D* NAME: DDS$BLD_KEEP
       84     9462             ENTRY: DDS$BLD_KEEP
       85     9463             ENTRY: DDS$BLD_TRAP
       86     9464             ENTRY: DDS$BLD_IGNORE
       87     9465             CALL: CALL DDS$BLD_KEEP ALTRET( ERROR );
       88     9466             INTERFACE: DDS$ATTDIRA
       89     9467             ENVIRONMENT: DDS$SCAN ACTIVE
       90     9468             INPUT: NCMD$ - PTR TO "KEEP" NODE.
       91     9469             OUTPUT: COMMAND BUILT IN BUILD BUFFER.
       92     9470             SCRATCH: LOCAL AUTO ONLY.
       93     9471             DESCRIPTION: */
       94     9472                                                /**/
       95     9473    1   DDS$BLD_KEEP: ENTRY ALTRET;
       96     9474                                                /**/
       97     9475    1        V = C_KEEP;                        /* C_KEEP */
       98     9476    1        GOTO SETUPKEEP;
       99     9477                                                /**/
      100     9478    1   DDS$BLD_TRAP: ENTRY ALTRET;
      101     9479                                                /**/
      102     9480    1        V = C_TRAP;                        /* C_TRAP */
      103     9481    1        GOTO SETUPKEEP;
      104     9482                                                /**/
      105     9483    1   DDS$BLD_IGNORE: ENTRY ALTRET;
      106     9484                                                /**/
      107     9485    1        V = C_IGNORE;                      /* C_IGNORE */
      108     9486        /*   GOTO SETUPKEEP; */
      109     9487    1   SETUPKEEP:
      110     9488    1        NCMD$ = S_D.NCMD$;
      111     9489    1        LASTBLT$ = S_D.LASTBLT$;
      112     9490    1        CALL DDS$ATTDIRA( SIZEW( KEEP$CMD ), V ) ALTRET( ARET );
      113     9491    1        NSB = NCMD$ -> POB.NSB - 1;
      114     9492    2        DO IX = 0 TO NSB;
      115     9493    2             NC$ = NCMD$ -> POB.SUBLK$( IX );
      116     9494    2             CODE = NC$ -> POB.CODE;
PL6.E3A0      #001=DUS$BLD File=DUS$BLD.:E05TSI                                  TUE 07/29/97 14:58 Page:5
      117     9495    3             DO CASE ( CODE );
      118     9496    3               CASE ( I@ALL );             /* ALL */
      119     9497    3                  IF S_D.ONE_TO_TWO.EXEC_DOMAIN = %HOST
      120     9498    4                  THEN DO;
      121     9499    4                       KEEP$CMD.OPTIONS = '777777777777'O;
      122     9500    4                       KEEP$CMD.ALL = '1'B;
      123     9501    4                       IF V = C_IGNORE
      124     9502    4                       THEN KEEP$CMD.OPTARRY( 3 ) = '0'B;
      125     9503    4                     END;
      126     9504    3                  ELSE IF S_D.CURRENT_FPRG_CONTEXT$ -> FPRG$CONTEXT.XDELTA
      127     9505    3                       THEN KEEP$CMD.L6_OPTIONS(0) = '1'B;
      128     9506    3                       ELSE KEEP$CMD.L6_OPTARRAY = '77'O;
      129     9507    3               CASE ( I@ARITHMETIC );      /* ARITHMETIC */
      130     9508    3                  IF S_D.ONE_TO_TWO.EXEC_DOMAIN = %HOST
      131     9509    4                  THEN DO;
      132     9510    4                       KEEP$CMD.OPTARRY( 5 ) = '1'B; /* OVERFLOW */
      133     9511    4                       KEEP$CMD.OPTARRY( 6 ) = '1'B; /* DIVIDE CHECK */
      134     9512    4                     END;
      135     9513    4                  ELSE DO;
      136     9514    4                       KEEP$CMD.L6_OPTIONS(5) = '1'B;
      137     9515    4                       IF S_D.CURRENT_FPRG_CONTEXT$ -> FPRG$CONTEXT.XDELTA
      138     9516    5                       THEN DO;
      139     9517    5                            S_D.ERROR = E@NOTL6XDELTA; /* E@NOTL6XDELTA */
      140     9518    5                            GOTO ARET;
      141     9519    5                          END;
      142     9520    4                     END;
      143     9521    3               CASE ( I@BREAK );           /* BREAK */
      144     9522    3                  IF S_D.ONE_TO_TWO.EXEC_DOMAIN = %HOST
      145     9523    3                  THEN KEEP$CMD.OPTARRY( 2 ) = '1'B;
      146     9524    4                  ELSE DO;
      147     9525    4                       KEEP$CMD.L6_OPTIONS(2) = '1'B;
      148     9526    4                       IF S_D.CURRENT_FPRG_CONTEXT$ -> FPRG$CONTEXT.XDELTA
      149     9527    5                       THEN DO;
      150     9528    5                            S_D.ERROR = E@NOTL6XDELTA; /* E@NOTL6XDELTA */
      151     9529    5                            GOTO ARET;
      152     9530    5                          END;
      153     9531    4                       IF V = C_IGNORE     /* C_IGNORE */
PL6.E3A0      #001=DUS$BLD File=DUS$BLD.:E05TSI                                  TUE 07/29/97 14:58 Page:6
      154     9532    5                       THEN DO;
      155     9533    5                            S_D.ERROR = E@SYNTAX; /* E@SYNTAX */
      156     9534    5                            GOTO ARET;
      157     9535    5                          END;
      158     9536    4                     END;
      159     9537    3               CASE ( I@COMMAND );         /* COMMAND */
      160     9538    3                  KEEP$CMD.OPTARRY( 11 ) = '1'B;
      161     9539    3               CASE ( I@DERAIL );          /* DERAIL */
      162     9540    3                  KEEP$CMD.OPTARRY( 8 ) = '1'B;
      163     9541    3               CASE ( I@DIVIDE_CHECK );    /* DIVIDE CHECK */
      164     9542    3                  KEEP$CMD.OPTARRY( 6 ) = '1'B;
      165     9543    3               CASE ( I@ERROR );           /* ERROR */
      166     9544    3                  KEEP$CMD.OPTARRY( 10 ) = '1'B; /* MEMORY */
      167     9545    3                  KEEP$CMD.OPTARRY( 11 ) = '1'B; /* COMMAND */
      168     9546    3                  KEEP$CMD.OPTARRY( 12 ) = '1'B; /* LOCKUP */
      169     9547    3                  KEEP$CMD.OPTARRY( 13 ) = '1'B; /* IPR */
      170     9548    3                  KEEP$CMD.OPTARRY( 14 ) = '1'B; /* SEG */
      171     9549    3                  KEEP$CMD.OPTARRY( 15 ) = '1'B; /* PAGE */
      172     9550    3                  KEEP$CMD.OPTARRY( 16 ) = '1'B; /* SEC_2 */
      173     9551    3                  KEEP$CMD.OPTARRY( 19 ) = '1'B; /* SEC_1 */
      174     9552    3               CASE ( I@EVENT );           /* EVENT */
      175     9553    3                  IF S_D.ONE_TO_TWO.EXEC_DOMAIN = %HOST
      176     9554    3                  THEN KEEP$CMD.OPTARRY( 1 ) = '1'B;
      177     9555    4                  ELSE DO;
      178     9556    4                       KEEP$CMD.L6_OPTIONS(1) = '1'B;
      179     9557    4                       IF S_D.CURRENT_FPRG_CONTEXT$ -> FPRG$CONTEXT.XDELTA
      180     9558    5                       THEN DO;
      181     9559    5                            S_D.ERROR = E@NOTL6XDELTA; /* E@NOTL6XDELTA */
      182     9560    5                            GOTO ARET;
      183     9561    5                          END;
      184     9562    4                       IF V = C_IGNORE     /* C_IGNORE */
      185     9563    5                       THEN DO;
      186     9564    5                            S_D.ERROR = E@SYNTAX; /* E@SYNTAX */
      187     9565    5                            GOTO ARET;
      188     9566    5                          END;
      189     9567    4                     END;
      190     9568    3               CASE ( I@FAULT_TAG );       /* FAULT_TAG */
PL6.E3A0      #001=DUS$BLD File=DUS$BLD.:E05TSI                                  TUE 07/29/97 14:58 Page:7
      191     9569    3                  KEEP$CMD.OPTARRY( 9 ) = '1'B;
      192     9570    3               CASE ( I@IPR );             /* IPR */
      193     9571    3                  KEEP$CMD.OPTARRY( 13 ) = '1'B;
      194     9572    3               CASE ( I@LOCKUP );          /* LOCKUP */
      195     9573    3                  KEEP$CMD.OPTARRY( 12 ) = '1'B;
      196     9574    3               CASE( I@MCL );              /* MCL - L6 option */
      197     9575    3                  KEEP$CMD.L6_OPTIONS(0) = '1'B;
      198     9576    3                  IF S_D.CURRENT_FPRG_CONTEXT$ -> FPRG$CONTEXT.XDELTA
      199     9577    4                  THEN DO;
      200     9578    4                       S_D.ERROR = E@NOTL6XDELTA; /* E@NOTL6XDELTA */
      201     9579    4                       GOTO ARET;
      202     9580    4                     END;
      203     9581    3                  IF V = C_IGNORE          /* C_IGNORE */
      204     9582    4                  THEN DO;
      205     9583    4                       S_D.ERROR = E@SYNTAX; /* E@SYNTAX */
      206     9584    4                       GOTO ARET;
      207     9585    4                     END;
      208     9586    3               CASE ( I@MEMORY );          /* MEMORY */
      209     9587    3                  KEEP$CMD.OPTARRY( 10 ) = '1'B;
      210     9588    3               CASE ( I@MME );             /* MME */
      211     9589    3                  KEEP$CMD.OPTARRY( 7 ) = '1'B;
      212     9590    3               CASE ( I@MONITOR );         /* MONITOR */
      213     9591    3                  IF S_D.ONE_TO_TWO.EXEC_DOMAIN = %HOST
      214     9592    4                  THEN DO;
      215     9593    4                       KEEP$CMD.OPTARRY( 0 ) = '1'B; /* TIMER */
      216     9594    4                       KEEP$CMD.OPTARRY( 1 ) = '1'B; /* EVENT */
      217     9595    4                       KEEP$CMD.OPTARRY( 2 ) = '1'B; /* BREAK */
      218     9596    4                       KEEP$CMD.OPTARRY( 3 ) = '1'B; /* XCON */
      219     9597    4                       KEEP$CMD.OPTARRY( 4 ) = '1'B; /* PMME */
      220     9598    4                     END;
      221     9599    4                  ELSE DO;
      222     9600    4                       IF NOT S_D.CURRENT_FPRG_CONTEXT$ -> FPRG$CONTEXT.XDELTA
      223     9601    5                       THEN DO;
      224     9602    5                            S_D.ERROR = E@UERR8; /* E@UERR8 */
      225     9603    5                            GOTO ARET;
      226     9604    5                          END;
      227     9605    4                       KEEP$CMD.L6_OPTIONS(2) = '1'B;
PL6.E3A0      #001=DUS$BLD File=DUS$BLD.:E05TSI                                  TUE 07/29/97 14:58 Page:8
      228     9606    4                     END;
      229     9607    3               CASE ( I@NONE );            /* NONE */
      230     9608    3                  IF S_D.ONE_TO_TWO.EXEC_DOMAIN = %L6 AND
      231     9609    3                    S_D.CURRENT_FPRG_CONTEXT$ -> FPRG$CONTEXT.XDELTA
      232     9610    3                  THEN KEEP$CMD.L6_OPTIONS(1) = '1'B;
      233     9611    3               CASE ( I@OVERFLOW );        /* OVERFLOW */
      234     9612    3                  KEEP$CMD.OPTARRY( 5 ) = '1'B;
      235     9613    3               CASE ( I@PAGE );            /* PAGE */
      236     9614    3                  KEEP$CMD.OPTARRY( 15 ) = '1'B;
      237     9615    3               CASE ( I@PMME );            /* PMME */
      238     9616    3                  KEEP$CMD.OPTARRY( 4 ) = '1'B;
      239     9617    3               CASE ( I@PROGRAMMED );      /* PROGRAMMED */
      240     9618    3                  KEEP$CMD.OPTARRY( 7 ) = '1'B; /* MME */
      241     9619    3                  KEEP$CMD.OPTARRY( 8 ) = '1'B; /* DERAIL */
      242     9620    3                  KEEP$CMD.OPTARRY( 9 ) = '1'B; /* FAULT_TAG */
      243     9621    3               CASE ( I@SEC_1 );           /* SEC_1 */
      244     9622    3                  KEEP$CMD.OPTARRY( 19 ) = '1'B; /* SEC_1 */
      245     9623    3               CASE ( I@SEC_2 );           /* SEC_2 */
      246     9624    3                  KEEP$CMD.OPTARRY( 16 ) = '1'B;
      247     9625    3               CASE ( I@SEG );             /* SEG */
      248     9626    3                  KEEP$CMD.OPTARRY( 14 ) = '1'B;
      249     9627    3               CASE ( I@TIMER );           /* TIMER */
      250     9628    3                  KEEP$CMD.OPTARRY( 0 ) = '1'B;
      251     9629    3               CASE( I@TRAP );             /* TRAP - L6 option */
      252     9630    3                  KEEP$CMD.L6_OPTIONS(4) = '1'B;
      253     9631    3                  IF S_D.CURRENT_FPRG_CONTEXT$ -> FPRG$CONTEXT.XDELTA
      254     9632    4                  THEN DO;
      255     9633    4                       S_D.ERROR = E@NOTL6XDELTA; /* E@NOTL6XDELTA */
      256     9634    4                       GOTO ARET;
      257     9635    4                     END;
      258     9636    3                  IF V = C_IGNORE          /* C_IGNORE */
      259     9637    4                  THEN DO;
      260     9638    4                       S_D.ERROR = E@SYNTAX; /* E@SYNTAX */
      261     9639    4                       GOTO ARET;
      262     9640    4                     END;
      263     9641    3               CASE ( I@XCON );            /* XCON */
      264     9642    3                  IF S_D.ONE_TO_TWO.EXEC_DOMAIN = %HOST
PL6.E3A0      #001=DUS$BLD File=DUS$BLD.:E05TSI                                  TUE 07/29/97 14:58 Page:9
      265     9643    3                  THEN KEEP$CMD.OPTARRY( 3 ) = '1'B;
      266     9644    4                  ELSE DO;
      267     9645    4                       KEEP$CMD.L6_OPTIONS(3) = '1'B;
      268     9646    4                       IF S_D.CURRENT_FPRG_CONTEXT$ -> FPRG$CONTEXT.XDELTA
      269     9647    5                       THEN DO;
      270     9648    5                            S_D.ERROR = E@NOTL6XDELTA; /* E@NOTL6XDELTA */
      271     9649    5                            GOTO ARET;
      272     9650    5                          END;
      273     9651    4                       IF V = C_IGNORE     /* C_IGNORE */
      274     9652    5                       THEN DO;
      275     9653    5                            S_D.ERROR = E@SYNTAX; /* E@SYNTAX */
      276     9654    5                            GOTO ARET;
      277     9655    5                          END;
      278     9656    4                     END;
      279     9657    3               CASE( C@HOST );             /* HOST */
      280     9658    3                  KEEP$CMD.HOST = '1'B;
      281     9659    3               CASE( RES_CODE );           /* RES_CODE */
      282     9660    3                  KEEP$CMD.FPRG = '1'B;
      283     9661    3                  KEEP$CMD.FPRG_RES = NC$ -> SYM.TEXT;
      284     9662    3               CASE(KEEP_SCREECH);         /* SCREECH */
      285     9663    3                  IF NOT S_D.CURRENT_FPRG_CONTEXT$ -> FPRG$CONTEXT.XDELTA
      286     9664    4                  THEN DO;
      287     9665    4                       S_D.ERROR = E@UERR8; /* E@UERR8 */
      288     9666    4                       GOTO ARET;
      289     9667    4                     END;
      290     9668    3                  KEEP$CMD.L6_OPTIONS(3) = '1'B;
      291     9669    3               CASE ( ELSE );
      292     9670    3                  S_D.ERROR = E@DELBUG;    /* E@DELBUG */
      293     9671    3                  CALL DDE$ERROR;
      294     9672    3                  GOTO ARET;
      295     9673    3               END;
      296     9674    2           END;
      297     9675                                                /**/
      298     9676    1        RETURN;
      299     9677        %EJECT;
PL6.E3A0      #001=DUS$BLD File=DUS$BLD.:E05TSI                                  TUE 07/29/97 14:58 Page:10
      300     9678        /*F* NAME: DDS$BLD_DUMP
      301     9679             PURPOSE: TO BUILD THE DUMP COMMAND.
      302     9680             DESCRIPTION: BUILDS THE DUMP COMMAND. */
      303     9681        /*D* NAME: DDS$BLD_DUMP
      304     9682             ENTRY: DDS$BLD_DUMP
      305     9683             CALL: CALL DDS$BLD_DUMP ALTRET( ERROR );
      306     9684             INTERFACE: DDS$ATTDIRA
      307     9685             ENVIRONMENT: DDS$SCAN ACTIVE
      308     9686             INPUT: NCMD$ - PTR TO "DUMP" NODE.
      309     9687             OUTPUT: COMMAND BUILT IN BUILD BUFFER.
      310     9688             SCRATCH: LOCAL AUTO ONLY.
      311     9689             DESCRIPTION: */
      312     9690                                                /**/
      313     9691    1   DDS$BLD_DUMP: ENTRY ALTRET;
      314     9692                                                /**/
      315     9693    1        NCMD$ = S_D.NCMD$;
      316     9694    1        LASTBLT$ = S_D.LASTBLT$;
      317     9695    1        CALL DDS$ATTDIRA( SIZEW( DUMP$CMD ), C_DUMP ) ALTRET( ARET ); /* C_DUMP */
      318     9696    1        NSB = NCMD$ -> POB.NSB - 1;
      319     9697    1        DUMP$CMD.NUM = DD_BIGNUM;          /* DEFAULT SIZE > 16 MEGAWORDS */
      320     9698    2        DO IX = 0 TO NSB;
      321     9699    2             L$ = S_D.D$;
      322     9700    2             NC$ = NCMD$ -> POB.SUBLK$ ( IX );
      323     9701    2             CODE = NC$ -> POB.CODE;
      324     9702    2             IF ( CODE = VREF_CODE )       /* VREF_CODE */
      325     9703    3             THEN DO;
      326     9704    3                  CALL DDS$VREFCOM( NC$ ) ALTRET( ARET );
      327     9705    3                  DUMP$CMD.VREF = '1'B;
      328     9706    3                  IF ( NOT L$ -> ZITEM.FLAGS.MDSE.M )
      329     9707    4                  THEN DO;
      330     9708    4                       S_D.ERROR = E@NOMOD; /* E@NOMOD  */
      331     9709    4                       GOTO ARET;
      332     9710    4                     END;
      333     9711    3                END;
      334     9712    2             ELSE IF ( CODE = SIMEXP_CODE ) /* SIMEXP_CODE */
      335     9713    3                  THEN DO;
      336     9714    3                       CALL DDD$SIMEXP( NC$, V,TEMP_FLAG ) ALTRET( ARET );
PL6.E3A0      #001=DUS$BLD File=DUS$BLD.:E05TSI                                  TUE 07/29/97 14:58 Page:11
      337     9715    3                       DUMP$CMD.NUM = V;
      338     9716    3                     END;
      339     9717    2                  ELSE IF ( CODE >= FMTFIRST_CODE ) AND ( CODE <= FMTLAST_CODE )
              9717                           /* FMTFIRST,FMTLAST _CODE */
      340     9718    3                       THEN DO;
      341     9719    3                            DUMP$CMD.FORMAT = '1'B;
      342     9720    3                            DUMP$CMD.FORMATCODE = CODE;
      343     9721    3                          END;
      344     9722    2                       ELSE IF ( CODE >= C@ON ) AND ( CODE <= C@INTO )
              9722                                /* C@ON, C@INTO */
      345     9723    3                            THEN DO;
      346     9724    3                                 DUMP$CMD.DEST = '1'B;
      347     9725    3                                 DUMP$CMD.DESTCODE = CODE;
      348     9726    3                               END;
      349     9727    2                            ELSE IF ( CODE = FID_CODE ) /* FID_CODE */
      350     9728    3                                 THEN DO;
      351     9729    3                                      NC$ = NC$ -> POB.SUBLK$( 0 );
      352     9730    3                                      V = NC$ -> TEXT$C.SIZE;
      353     9731    3                                      IF ( V > LENGTHC( DUMP$CMD.FID.TEXT ) )
      354     9732    4                                      THEN DO;
      355     9733    4                                           S_D.ERROR = E@SYM2LONG; /* E@SYM2LONG */
      356     9734    4                                           GOTO ARET;
      357     9735    4                                         END;
      358     9736    3                                      DUMP$CMD.FID = NC$ -> TEXT$C;
      359     9737    3                                    END;
      360     9738    2                                 ELSE IF CODE = C@ASCII /* C@ASCII */
      361     9739    2                                      THEN DUMP$CMD.ASCII_FLAG = '1'B;
      362     9740    2                                      ELSE IF CODE = C@PAGE_EJECT /* C@PAGE_EJECT */
      363     9741    2                                           THEN DUMP$CMD.PAGE_EJECT = '1'B;
      364     9742    2                                           ELSE IF CODE = C@LONG /* C@LONG */
      365     9743    2                                                THEN DUMP$CMD.LONG = '1'B;
      366     9744    2                                                ELSE IF CODE = C@EBCDIC /* C@EBCDIC */
      367     9745    2                                                     THEN DUMP$CMD.EBCDIC_FLAG = '1'B;
      368     9746    3                                                     ELSE DO; /* "QTSTRINGS" */
      369     9747    3                                                          NC$ = NC$ -> POB.SUBLK$( 0 );
      370     9748    3                                                          V = NC$ -> TEXT$C.SIZE;
      371     9749    3                                                          IF ( V > 31 )
PL6.E3A0      #001=DUS$BLD File=DUS$BLD.:E05TSI                                  TUE 07/29/97 14:58 Page:12
      372     9750    4                                                          THEN DO;
      373     9751    4                                                               V = 31;
      374     9752    4                                                               NC$ -> TEXT$C.SIZE = V;
      375     9753    4                                                             END;
      376     9754    3                                                          CODE = ( V / 4 ) + 1;
      377     9755    3                                                          CALL DDD$BUMP_D$( CODE )
              9755                                                                   ALTRET( ARET );
      378     9756    3                                                          DUMP$CMD.HEADING = '1'B;
      379     9757    3                                                          L$ -> TTEXT$C = NC$ -> TEXT$C
              9757                                                                   ;
      380     9758                                                /* Save text and size of it
      381     9759                                                   right after the dump
      382     9760                                                   address data descriptor */
      383     9761    3                                                        END;
      384     9762    2           END;                            /* "DO IX" */
      385     9763                                                /**/
      386     9764    1        RETURN;
      387     9765        %EJECT;
PL6.E3A0      #001=DUS$BLD File=DUS$BLD.:E05TSI                                  TUE 07/29/97 14:58 Page:13
      388     9766        /*F* NAME: DDS$BLD_ECHO
      389     9767             PURPOSE: TO BUILD THE ECHO COMMAND.
      390     9768             DESCRIPTION: BUILDS THE ECHO COMMAND. */
      391     9769        /*D* NAME: DDS$BLD_ECHO
      392     9770             ENTRY: DDS$BLD_ECHO
      393     9771             CALL: CALL DDS$BLD_ECHO ALTRET( ERROR );
      394     9772             ENVIRONMENT: DDS$SCAN ACTIVE
      395     9773             INPUT: NCMD$ - PTR TO "ECHO" NODE.
      396     9774             OUTPUT: COMMAND BUILT IN BUILD BUFFER.
      397     9775             SCRATCH: LOCAL AUTO ONLY.
      398     9776             DESCRIPTION: */
      399     9777                                                /**/
      400     9778    1   DDS$BLD_ECHO: ENTRY ALTRET;
      401     9779                                                /**/
      402     9780    1        NCMD$ = S_D.NCMD$;
      403     9781    1        LASTBLT$ = S_D.LASTBLT$;
      404     9782    1        CALL DDS$ATTDIRA( SIZEW( ECHO$CMD ), C_ECHO ) ALTRET( ARET ); /* C_ECHO */
      405     9783                                                /**/
      406     9784    1        RETURN;
      407     9785        %EJECT;
PL6.E3A0      #001=DUS$BLD File=DUS$BLD.:E05TSI                                  TUE 07/29/97 14:58 Page:14
      408     9786        /*F* NAME: DDS$BLD_OUTPUT
      409     9787             PURPOSE: TO BUILD THE OUTPUT COMMAND.
      410     9788             DESCRIPTION: BUILDS THE OUTPUT COMMAND. */
      411     9789        /*D* NAME: DDS$BLD_OUTPUT
      412     9790             ENTRY: DDS$BLD_OUTPUT
      413     9791             CALL: CALL DDS$BLD_OUTPUT ALTRET( ERROR );
      414     9792             ENVIRONMENT: DDS$SCAN ACTIVE
      415     9793             INPUT: NCMD$ - PTR TO "OUTPUT" NODE.
      416     9794             OUTPUT: COMMAND BUILT IN BUILD BUFFER.
      417     9795             SCRATCH: LOCAL AUTO ONLY.
      418     9796             DESCRIPTION: */
      419     9797                                                /**/
      420     9798    1   DDS$BLD_OUTPUT: ENTRY ALTRET;
      421     9799                                                /**/
      422     9800    1        NCMD$ = S_D.NCMD$;
      423     9801    1        LASTBLT$ = S_D.LASTBLT$;
      424     9802    1        CALL DDS$ATTDIRA( SIZEW( OUTPUT$CMD ), C_OUTPUT ) ALTRET( ARET );
              9802                 /* C_OUTPUT */
      425     9803        /* Defaults */
      426     9804    1        OUTPUT$CMD.CODE = C@ON;            /* C@ON */
      427     9805    1        OUTPUT$CMD.FID = ME;
      428     9806        /* Specified options */
      429     9807    1        NSB = NCMD$ -> POB.NSB - 1;
      430     9808    2        DO IX = 0 TO NSB;
      431     9809    2             NC$ = NCMD$ -> POB.SUBLK$ ( IX );
      432     9810    2             CODE = NC$ -> POB.CODE;
      433     9811    2             IF ( CODE >= C@ON ) AND ( CODE <= C@INTO ) /* C@ON, C@INTO */
      434     9812    2             THEN OUTPUT$CMD.CODE = CODE;
      435     9813    2             ELSE IF ( CODE = FID_CODE )   /* FID_CODE */
      436     9814    3                  THEN DO;
      437     9815    3                       NC$ = NC$ -> POB.SUBLK$( 0 );
      438     9816    3                       V = NC$ -> TEXT$C.SIZE;
      439     9817    3                       IF ( V > LENGTHC( OUTPUT$CMD.FID.TEXT ) )
      440     9818    4                       THEN DO;
      441     9819    4                            S_D.ERROR = E@SYM2LONG; /* E@SYM2LONG */
      442     9820    4                            GOTO ARET;
      443     9821    4                          END;
PL6.E3A0      #001=DUS$BLD File=DUS$BLD.:E05TSI                                  TUE 07/29/97 14:58 Page:15
      444     9822    3                       OUTPUT$CMD.FID = NC$ -> TEXT$C;
      445     9823    3                     END;
      446     9824    3                  ELSE DO;
      447     9825    3                       S_D.ERROR = E@DELBUG; /* E@DELBUG */
      448     9826    3                       CALL DDE$ERROR;
      449     9827    3                       GOTO ARET;
      450     9828    3                     END;
      451     9829    2           END;
      452     9830                                                /**/
      453     9831    1        RETURN;
      454     9832        %EJECT;
PL6.E3A0      #001=DUS$BLD File=DUS$BLD.:E05TSI                                  TUE 07/29/97 14:58 Page:16
      455     9833        /*F* NAME: DDS$BLD_READ
      456     9834             PURPOSE: TO BUILD THE READ COMMAND.
      457     9835             DESCRIPTION: BUILDS THE READ COMMAND. */
      458     9836        /*D* NAME: DDS$BLD_READ
      459     9837             ENTRY: DDS$BLD_READ
      460     9838             CALL: CALL DDS$BLD_READ ALTRET( ERROR );
      461     9839             ENVIRONMENT: DDS$SCAN ACTIVE
      462     9840             INPUT: NCMD$ - PTR TO "READ" NODE.
      463     9841             OUTPUT: COMMAND BUILT IN BUILD BUFFER.
      464     9842             SCRATCH: LOCAL AUTO ONLY.
      465     9843             DESCRIPTION: */
      466     9844                                                /**/
      467     9845    1   DDS$BLD_READ: ENTRY ALTRET;
      468     9846                                                /**/
      469     9847    1        NCMD$ = S_D.NCMD$;
      470     9848    1        LASTBLT$ = S_D.LASTBLT$;
      471     9849    1        CALL DDS$ATTDIRA( SIZEW( READ$CMD ), C_READ ) ALTRET( ARET ); /* C_READ */
      472     9850        /* Defaults */
      473     9851    1        IF S_D.BATCH
      474     9852    1        THEN READ$CMD.FID = ME;
      475     9853    1        ELSE READ$CMD.FID = UC;
      476     9854    1        REC = -1;
      477     9855        /* Specified options */
      478     9856    1        NSB = NCMD$ -> POB.NSB - 1;
      479     9857    2        DO IX = 0 TO NSB;
      480     9858    2             NC$ = NCMD$ -> POB.SUBLK$ ( IX );
      481     9859    2             CODE = NC$ -> POB.CODE;
      482     9860    2             IF ( CODE = FID_CODE )        /* FID_CODE */
      483     9861    3             THEN DO;
      484     9862    3                  NC$ = NC$ -> POB.SUBLK$( 0 );
      485     9863    3                  V = NC$ -> TEXT$C.SIZE;
      486     9864    3                  IF ( V > LENGTHC( READ$CMD.FID.TEXT ) )
      487     9865    4                  THEN DO;
      488     9866    4                       S_D.ERROR = E@SYM2LONG; /* E@SYM2LONG */
      489     9867    4                       GOTO ARET;
      490     9868    4                     END;
      491     9869    3                  READ$CMD.FID = NC$ -> TEXT$C;
PL6.E3A0      #001=DUS$BLD File=DUS$BLD.:E05TSI                                  TUE 07/29/97 14:58 Page:17
      492     9870    3                END;
      493     9871    2             ELSE IF ( CODE = C@PERIOD )   /* C@PERIOD */
      494     9872    3                  THEN DO;
      495     9873    3                       READ$CMD.RECEDIT = '1'B;
      496     9874    3                       IF REC = -1
      497     9875    3                       THEN REC = 0;
      498     9876    3                       ELSE REC = REC * 1000;
      499     9877    3                     END;
      500     9878    2                  ELSE IF ( CODE = DEC_CODE ) /* DEC_CODE */
      501     9879    3                       THEN DO;
      502     9880    3                            CALL DDS$DECIMAL( NC$, V ) ALTRET( ARET );
      503     9881    3                            IF READ$CMD.RECEDIT
      504     9882    4                            THEN DO;
      505     9883    4                                 REC = REC + V;
      506     9884    4                                 IF ( V > 999 )
      507     9885    5                                 THEN DO;
      508     9886    5                                      S_D.ERROR = E@BADEDITKEY; /* E@BADEDITKEY */
      509     9887    5                                      GOTO ARET;
      510     9888    5                                    END;
      511     9889    4                               END;
      512     9890    4                            ELSE DO;
      513     9891    4                                 REC = V;
      514     9892    4                               END;
      515     9893    3                          END;
      516     9894    3                       ELSE DO;
      517     9895    3                            S_D.ERROR = E@DELBUG; /* E@DELBUG */
      518     9896    3                            CALL DDE$ERROR;
      519     9897    3                            GOTO ARET;
      520     9898    3                          END;
      521     9899    2           END;
      522     9900    1        IF REC = 0
      523     9901    1        THEN READ$CMD.RECEDIT = '1'B;
      524     9902    1        ELSE IF REC = -1
      525     9903    1             THEN REC = 1;
      526     9904    1             ELSE IF ( READ$CMD.RECEDIT ) AND ( REC > 99999999 )
      527     9905    2                  THEN DO;
      528     9906    2                       S_D.ERROR = E@BADEDITKEY; /* E@BADEDITKEY */
PL6.E3A0      #001=DUS$BLD File=DUS$BLD.:E05TSI                                  TUE 07/29/97 14:58 Page:18
      529     9907    2                       GOTO ARET;
      530     9908    2                     END;
      531     9909    1        READ$CMD.REC = REC;
      532     9910                                                /**/
      533     9911    1        RETURN;
      534     9912                                                /**/
      535     9913    1   ARET:
      536     9914    1        ALTRETURN;
      537     9915                                                /**/
      538     9916    1   END DUS$BLD;

PL6.E3A0      #001=DUS$BLD File=DUS$BLD.:E05TSI                                  TUE 07/29/97 14:58 Page:19
--  Include file information  --

   DD_SD_M.:E05TOU  is referenced.
   XUH_MACRO_C.:E05TOU  is referenced.
   DD_SRTN_C.:E05TOU  is referenced.
   DD_ACODE_C.:E05TOU  is referenced.
   DD_ICODE_C.:E05TOU  is referenced.
   DD$DITEM.:E05TOU  cannot be made into a system file and is referenced.
   XU_SUBS_C.:E05TOU  is referenced.
   XU_MACRO_C.:E05TOU  is referenced.
   DD_SUBS_C.:E05TOU  is referenced.
   DD_PSUBS_C.:E05TOU  is referenced.
   DD_ERR_C.:E05TOU  is referenced.
   DD$BASED.:E05TOU  is referenced.
   B$JIT_C.:E05TOU  was found in the system file and is never referenced.
   CP_6_C.:E05TOU  was found in the system file and is never referenced.
      No diagnostics issued in procedure DUS$BLD.

   Procedure DUS$BLD requires 1194 words for executable code.
   Procedure DUS$BLD requires 24 words of local(AUTO) storage.

    No errors detected in file DUS$BLD.:E05TSI    .

PL6.E3A0      #001=DUS$BLD File=DUS$BLD.:E05TSI                                  TUE 07/29/97 14:58 Page:20

 Object Unit name= DUS$BLD                                    File name= DUS$BLD.:E05TOU
 UTS= JUL 29 '97 14:58:48.24 TUE                              Compiler= PL-6/E31         Sev=      00
 SharedLib= :SHARED_SYSTEM                                    Alt SharedLib=


    ****  Control sections  ****

 Sect   Type Bound  Init  Size OctSiz  Section name(segment info)
    0  RoData even  UTS      2      2  DUS$BLD
    1   Proc  even  none  1194   2252  DUS$BLD
    2  RoData even  none    17     21  DUS$BLD

    ****  Entry defs  ****

                              Check   Calling
                             calling  sequence
  Sect OctLoc Primary Altret sequence   type   Parms  Name
     1      0   yes    yes     yes      Std        0  DUS$BLD
     1      3          yes     yes      Std        0  DDS$BLD_KEEP
     1     10          yes     yes      Std        0  DDS$BLD_TRAP
     1     15          yes     yes      Std        0  DDS$BLD_IGNORE
     1   1436          yes     yes      Std        0  DDS$BLD_DUMP
     1   1713          yes     yes      Std        0  DDS$BLD_ECHO
     1   1727          yes     yes      Std        0  DDS$BLD_OUTPUT
     1   2041          yes     yes      Std        0  DDS$BLD_READ
PL6.E3A0      #001=DUS$BLD File=DUS$BLD.:E05TSI                                  TUE 07/29/97 14:58 Page:21

  ****  Entry refs  ****

         Check        Calling
        calling       sequence
Altret sequence SRef   type   Args  Name
 yes     yes           Std       2 DDS$ATTDIRA
         yes           Std       0 DDE$ERROR
 yes     yes           Std       3 DDD$SIMEXP
 yes     yes           Std       2 DDS$DECIMAL
 yes     yes           Std       1 DDD$BUMP_D$
 yes     yes           Std       2 DDS$VREFCOM
                       Std       0 B_CONSPOOL_D
                       nStd      0 X66_AUTO_0
                       nStd      0 X66_ARET
                       nStd      0 X66_AALT

  ****  Data refs  ****

  Flags:  r = read only, s = secondary
Flgs Name                             Flgs Name                             Flgs Name
r    S_D$                                  B_VECTNIL

  ****  Segment refs  ****

  Flags:  r = read only, s = secondary
Flgs Name                             Flgs Name                             Flgs Name
     ISSID
PL6.E3A0      #001=DUS$BLD File=DUS$BLD.:E05TSI                                  TUE 07/29/97 14:58 Page:22


        1        1        /*M* DUS$BLD Build routines for User DELTA only commands */
        2        2        /*T***********************************************************/
        3        3        /*T*                                                         */
        4        4        /*T* Copyright (c) Bull HN Information Systems Inc., 1997    */
        5        5        /*T*                                                         */
        6        6        /*T***********************************************************/
        7        7        /*X* DMR,PLM=5,IND=5,CSU=3,EXM=0,ECU=3,MOC,DCI=5,CRT=5 */
        8        8        /*F* NAME: DUS$BLD
        9        9             PURPOSE: To build command frames for User DELTA only commands.
       10       10             DESCRIPTION: This module contains various User DELTA only build routines.
       11       11                          The commands that are built here have different syntax
       12       12                          in User DELTA and Exec DELTA */
       13       13        /*D* NAME: DUS$BLD
       14       14             ENVIRONMENT: User Delta.
       15       15             INPUT: S_D.NCMD$ - Ptr to root of parse output tree for command to
       16       16                                be built.
       17       17                    S_D.LASTBLT$ - Ptr to build frame, where to build command.
       18       18             OUTPUT: The appropriate frame built where specified.
       19       19             DESCRIPTION: This module contains various User DELTA only build routines.
       20       20                          The commands that are built here have different syntax
       21       21                          in User DELTA and Exec DELTA. The routines that reside
       22       22                          in this module are coded just like the build routines
       23       23                          in DDS$SCAN. */
       24       24                                                /**/
       25       25        DUS$BLD: PROC ALTRET;

     25  1 000000   000000 700200 xent  DUS$BLD      TSX0  ! X66_AUTO_0
         1 000001   000030 000000                    ZERO    24,0
         1 000002   000005 710000 1                  TRA     s:9475

       26       26                                                /**/
       27       27        %INCLUDE DD$BASED;
       28     1330        %INCLUDE DD_ERR_C;
       29     1727        %INCLUDE DD_PSUBS_C;
       30     2202        %INCLUDE DD_SUBS_C;
       31     2473        %INCLUDE XU_MACRO_C;
PL6.E3A0      #001=DUS$BLD File=DUS$BLD.:E05TSI                                  TUE 07/29/97 14:58 Page:23
       32     5579        %INCLUDE XU_SUBS_C;
       33     5671        /* Auto */
       34     5672    1   DCL NCMD$ PTR;
       35     5673    1   DCL LASTBLT$ PTR;
       36     5674    1   DCL NSB SBIN;
       37     5675    1   DCL IX SBIN;
       38     5676    1   DCL TEMP_FLAG BIT(1) ALIGNED;
       39     5677        /*D* NSB & IX must be SBIN */
       40     5678    1   DCL NC$ PTR;
       41     5679    1   DCL CODE UBIN;
       42     5680    1   DCL V UBIN;
       43     5681    1   DCL L$ PTR;
       44     5682    1   DCL REC SBIN;
       45     5683    1   DCL IXX UBIN;
       46     5684    1   DCL CHAR2 CHAR(2) ALIGNED;
       47     5685        /* Based */
       48     5686        %KEEP$CMD (NAME=KEEP$CMD,STCLASS="BASED(LASTBLT$)");
       49     5705        %DUMP$CMD (NAME=DUMP$CMD,STCLASS="BASED(LASTBLT$)");
       50     5735        %ALL_ATTACH (NAME=ECHO$CMD,STCLASS="BASED(LASTBLT$)");
       51     5750        %RUM$CMD (NAME=OUTPUT$CMD,STCLASS="BASED(LASTBLT$)");
       52     5774        %RUM$CMD (NAME=READ$CMD,STCLASS="BASED(LASTBLT$)");
       53     5798        %FPRG$CONTEXT;
       54     5861        %PARSE$OUT (NAME=POB,STCLASS=BASED,NSUBLKS=NSB);
       55     5906        %PARSE$SYM (NAME=SYM,STCLASS=BASED);
       56     5944        %TEXT$C;
       57     5949    1   DCL 1 TTEXT$C BASED,
       58     5950    1         2 SIZE UBIN(9) UNAL,
       59     5951    1         2 TXT CHAR(V) UNAL;
       60     5952        %INCLUDE DD$DITEM;
       12+    6055             %LIST;
       13+    6056    1        DCL SDD$ PTR;
       14+    6057    1        DCL ZITEM$ PTR;
       15+    6058    1        DCL SDD_L6$ PTR;
       16+    6059    1        DCL ZITEM_L6$ PTR;
       61     6633        %ZITEM;
       62     6705        %INCLUDE XUH_MACRO_C;
       63     6789        %INCLUDE DD_SD_M;
PL6.E3A0      #001=DUS$BLD File=DUS$BLD.:E05TSI                                  TUE 07/29/97 14:58 Page:24
       64     8125        %S_D;
       65     9443        /* Constant */
       66     9444    1   DCL 1 ME CONSTANT,
       67     9445    1         2 SIZE UBIN BYTE UNAL INIT(LENGTHC(ME.TEXT)),
       68     9446    1         2 TEXT CHAR(0) UNAL INIT('ME');
       69     9447    1   DCL 1 UC CONSTANT,
       70     9448    1         2 SIZE UBIN BYTE UNAL INIT(LENGTHC(UC.TEXT)),
       71     9449    1         2 TEXT CHAR(0) UNAL INIT('UC');
       72     9450        /* Entrys */
       73     9451    1   DCL DDD$BUMP_D$ ENTRY(1) ALTRET;
       74     9452    1   DCL DDE$ERROR ENTRY(0);
       75     9453    1   DCL DDS$ATTDIRA ENTRY(2) ALTRET;
       76     9454    1   DCL DDS$DECIMAL ENTRY(2) ALTRET;
       77     9455    1   DCL DDD$SIMEXP ENTRY(3) ALTRET;
       78     9456    1   DCL DDS$VREFCOM ENTRY(2) ALTRET;
       79     9457        %EJECT;
PL6.E3A0      #001=DUS$BLD File=DUS$BLD.:E05TSI                                  TUE 07/29/97 14:58 Page:25
       80     9458        /*F* NAME: DDS$BLD_KEEP
       81     9459             PURPOSE: TO BUILD THE KEEP COMMAND.
       82     9460             DESCRIPTION: BUILDS THE KEEP COMMAND. */
       83     9461        /*D* NAME: DDS$BLD_KEEP
       84     9462             ENTRY: DDS$BLD_KEEP
       85     9463             ENTRY: DDS$BLD_TRAP
       86     9464             ENTRY: DDS$BLD_IGNORE
       87     9465             CALL: CALL DDS$BLD_KEEP ALTRET( ERROR );
       88     9466             INTERFACE: DDS$ATTDIRA
       89     9467             ENVIRONMENT: DDS$SCAN ACTIVE
       90     9468             INPUT: NCMD$ - PTR TO "KEEP" NODE.
       91     9469             OUTPUT: COMMAND BUILT IN BUILD BUFFER.
       92     9470             SCRATCH: LOCAL AUTO ONLY.
       93     9471             DESCRIPTION: */
       94     9472                                                /**/
       95     9473    1   DDS$BLD_KEEP: ENTRY ALTRET;

   9473  1 000003   000000 700200 xent  DDS$BLD_KEEP TSX0  ! X66_AUTO_0
         1 000004   000030 000000                    ZERO    24,0

       96     9474                                                /**/
       97     9475    1        V = C_KEEP;                        /* C_KEEP */

   9475  1 000005   000026 235007                    LDA     22,DL
         1 000006   200012 755100                    STA     V,,AUTO

       98     9476    1        GOTO SETUPKEEP;

   9476  1 000007   000021 710000 1                  TRA     SETUPKEEP

       99     9477                                                /**/
      100     9478    1   DDS$BLD_TRAP: ENTRY ALTRET;

   9478  1 000010   000000 700200 xent  DDS$BLD_TRAP TSX0  ! X66_AUTO_0
         1 000011   000030 000000                    ZERO    24,0

      101     9479                                                /**/
PL6.E3A0      #001=DUS$BLD File=DUS$BLD.:E05TSI                                  TUE 07/29/97 14:58 Page:26
      102     9480    1        V = C_TRAP;                        /* C_TRAP */

   9480  1 000012   000107 235007                    LDA     71,DL
         1 000013   200012 755100                    STA     V,,AUTO

      103     9481    1        GOTO SETUPKEEP;

   9481  1 000014   000021 710000 1                  TRA     SETUPKEEP

      104     9482                                                /**/
      105     9483    1   DDS$BLD_IGNORE: ENTRY ALTRET;

   9483  1 000015   000000 700200 xent  DDS$BLD_IGN* TSX0  ! X66_AUTO_0
         1 000016   000030 000000                    ZERO    24,0

      106     9484                                                /**/
      107     9485    1        V = C_IGNORE;                      /* C_IGNORE */

   9485  1 000017   000021 235007                    LDA     17,DL
         1 000020   200012 755100                    STA     V,,AUTO

      108     9486        /*   GOTO SETUPKEEP; */
      109     9487    1   SETUPKEEP:
      110     9488    1        NCMD$ = S_D.NCMD$;

   9488  1 000021   000000 470400 xsym  SETUPKEEP    LDP0    S_D$
         1 000022   004750 236100                    LDQ     2536,,PR0
         1 000023   200003 756100                    STQ     NCMD$,,AUTO

      111     9489    1        LASTBLT$ = S_D.LASTBLT$;

   9489  1 000024   000134 236100                    LDQ     92,,PR0
         1 000025   200004 756100                    STQ     LASTBLT$,,AUTO

      112     9490    1        CALL DDS$ATTDIRA( SIZEW( KEEP$CMD ), V ) ALTRET( ARET );

   9490  1 000026   200012 631500                    EPPR1   V,,AUTO
PL6.E3A0      #001=DUS$BLD File=DUS$BLD.:E05TSI                                  TUE 07/29/97 14:58 Page:27
         1 000027   200025 451500                    STP1    ZITEM$+5,,AUTO
         1 000030   000000 236000 2                  LDQ     0
         1 000031   200024 756100                    STQ     ZITEM$+4,,AUTO
         1 000032   200024 630500                    EPPR0   ZITEM$+4,,AUTO
         1 000033   000020 631400 xsym               EPPR1   B_VECTNIL+16
         1 000034   000000 701000 xent               TSX1    DDS$ATTDIRA
         1 000035   002251 702000 1                  TSX2    ARET

      113     9491    1        NSB = NCMD$ -> POB.NSB - 1;

   9491  1 000036   200003 470500                    LDP0    NCMD$,,AUTO
         1 000037   000001 236100                    LDQ     1,,PR0
         1 000040   000022 772000                    QRL     18
         1 000041   000001 136007                    SBLQ    1,DL
         1 000042   200005 756100                    STQ     NSB,,AUTO

      114     9492    2        DO IX = 0 TO NSB;

   9492  1 000043   200006 450100                    STZ     IX,,AUTO
         1 000044   001432 710000 1                  TRA     s:9674+1

      115     9493    2             NC$ = NCMD$ -> POB.SUBLK$( IX );

   9493  1 000045   200003 470500                    LDP0    NCMD$,,AUTO
         1 000046   200006 720100                    LXL0    IX,,AUTO
         1 000047   000003 236110                    LDQ     3,X0,PR0
         1 000050   200010 756100                    STQ     NC$,,AUTO

      116     9494    2             CODE = NC$ -> POB.CODE;

   9494  1 000051   200010 471500                    LDP1    NC$,,AUTO
         1 000052   100000 236100                    LDQ     0,,PR1
         1 000053   777777 376007                    ANQ     -1,DL
         1 000054   200011 756100                    STQ     CODE,,AUTO

      117     9495    3             DO CASE ( CODE );

PL6.E3A0      #001=DUS$BLD File=DUS$BLD.:E05TSI                                  TUE 07/29/97 14:58 Page:28
   9495  1 000055   000004 136007                    SBLQ    4,DL
         1 000056   000660 116007                    CMPQ    432,DL
         1 000057   000061 602006 1                  TNC     s:9495+4,QL
         1 000060   001422 710000 1                  TRA     s:9670
         1 000061   001406 710000 1                  TRA     s:9663
         1 000062   001422 710000 1                  TRA     s:9670
         1 000063   001422 710000 1                  TRA     s:9670
         1 000064   001422 710000 1                  TRA     s:9670
         1 000065   001422 710000 1                  TRA     s:9670
         1 000066   001422 710000 1                  TRA     s:9670
         1 000067   001422 710000 1                  TRA     s:9670
         1 000070   001422 710000 1                  TRA     s:9670
         1 000071   001422 710000 1                  TRA     s:9670
         1 000072   001422 710000 1                  TRA     s:9670
         1 000073   001422 710000 1                  TRA     s:9670
         1 000074   001422 710000 1                  TRA     s:9670
         1 000075   001422 710000 1                  TRA     s:9670
         1 000076   001422 710000 1                  TRA     s:9670
         1 000077   001422 710000 1                  TRA     s:9670
         1 000100   001422 710000 1                  TRA     s:9670
         1 000101   001422 710000 1                  TRA     s:9670
         1 000102   001422 710000 1                  TRA     s:9670
         1 000103   001422 710000 1                  TRA     s:9670
         1 000104   001422 710000 1                  TRA     s:9670
         1 000105   001422 710000 1                  TRA     s:9670
         1 000106   001422 710000 1                  TRA     s:9670
         1 000107   001422 710000 1                  TRA     s:9670
         1 000110   001422 710000 1                  TRA     s:9670
         1 000111   001422 710000 1                  TRA     s:9670
         1 000112   001422 710000 1                  TRA     s:9670
         1 000113   001422 710000 1                  TRA     s:9670
         1 000114   001422 710000 1                  TRA     s:9670
         1 000115   001422 710000 1                  TRA     s:9670
         1 000116   001422 710000 1                  TRA     s:9670
         1 000117   001422 710000 1                  TRA     s:9670
         1 000120   001422 710000 1                  TRA     s:9670
         1 000121   001422 710000 1                  TRA     s:9670
PL6.E3A0      #001=DUS$BLD File=DUS$BLD.:E05TSI                                  TUE 07/29/97 14:58 Page:29
         1 000122   001422 710000 1                  TRA     s:9670
         1 000123   001422 710000 1                  TRA     s:9670
         1 000124   001422 710000 1                  TRA     s:9670
         1 000125   001422 710000 1                  TRA     s:9670
         1 000126   001422 710000 1                  TRA     s:9670
         1 000127   001422 710000 1                  TRA     s:9670
         1 000130   001422 710000 1                  TRA     s:9670
         1 000131   001422 710000 1                  TRA     s:9670
         1 000132   001422 710000 1                  TRA     s:9670
         1 000133   001422 710000 1                  TRA     s:9670
         1 000134   001422 710000 1                  TRA     s:9670
         1 000135   001422 710000 1                  TRA     s:9670
         1 000136   001422 710000 1                  TRA     s:9670
         1 000137   001422 710000 1                  TRA     s:9670
         1 000140   001422 710000 1                  TRA     s:9670
         1 000141   001422 710000 1                  TRA     s:9670
         1 000142   001422 710000 1                  TRA     s:9670
         1 000143   001422 710000 1                  TRA     s:9670
         1 000144   001422 710000 1                  TRA     s:9670
         1 000145   001422 710000 1                  TRA     s:9670
         1 000146   001422 710000 1                  TRA     s:9670
         1 000147   001422 710000 1                  TRA     s:9670
         1 000150   001422 710000 1                  TRA     s:9670
         1 000151   001422 710000 1                  TRA     s:9670
         1 000152   001422 710000 1                  TRA     s:9670
         1 000153   001422 710000 1                  TRA     s:9670
         1 000154   001422 710000 1                  TRA     s:9670
         1 000155   001422 710000 1                  TRA     s:9670
         1 000156   001422 710000 1                  TRA     s:9670
         1 000157   001422 710000 1                  TRA     s:9670
         1 000160   001422 710000 1                  TRA     s:9670
         1 000161   001422 710000 1                  TRA     s:9670
         1 000162   001422 710000 1                  TRA     s:9670
         1 000163   001422 710000 1                  TRA     s:9670
         1 000164   001422 710000 1                  TRA     s:9670
         1 000165   001422 710000 1                  TRA     s:9670
         1 000166   001422 710000 1                  TRA     s:9670
PL6.E3A0      #001=DUS$BLD File=DUS$BLD.:E05TSI                                  TUE 07/29/97 14:58 Page:30
         1 000167   001422 710000 1                  TRA     s:9670
         1 000170   001422 710000 1                  TRA     s:9670
         1 000171   001422 710000 1                  TRA     s:9670
         1 000172   001422 710000 1                  TRA     s:9670
         1 000173   001422 710000 1                  TRA     s:9670
         1 000174   001422 710000 1                  TRA     s:9670
         1 000175   001422 710000 1                  TRA     s:9670
         1 000176   001422 710000 1                  TRA     s:9670
         1 000177   001422 710000 1                  TRA     s:9670
         1 000200   001422 710000 1                  TRA     s:9670
         1 000201   001422 710000 1                  TRA     s:9670
         1 000202   001422 710000 1                  TRA     s:9670
         1 000203   001422 710000 1                  TRA     s:9670
         1 000204   001422 710000 1                  TRA     s:9670
         1 000205   001422 710000 1                  TRA     s:9670
         1 000206   001422 710000 1                  TRA     s:9670
         1 000207   001422 710000 1                  TRA     s:9670
         1 000210   001422 710000 1                  TRA     s:9670
         1 000211   001422 710000 1                  TRA     s:9670
         1 000212   001422 710000 1                  TRA     s:9670
         1 000213   001422 710000 1                  TRA     s:9670
         1 000214   001422 710000 1                  TRA     s:9670
         1 000215   001422 710000 1                  TRA     s:9670
         1 000216   001422 710000 1                  TRA     s:9670
         1 000217   001422 710000 1                  TRA     s:9670
         1 000220   001422 710000 1                  TRA     s:9670
         1 000221   001422 710000 1                  TRA     s:9670
         1 000222   001422 710000 1                  TRA     s:9670
         1 000223   001422 710000 1                  TRA     s:9670
         1 000224   001422 710000 1                  TRA     s:9670
         1 000225   001422 710000 1                  TRA     s:9670
         1 000226   001422 710000 1                  TRA     s:9670
         1 000227   001367 710000 1                  TRA     s:9658
         1 000230   001422 710000 1                  TRA     s:9670
         1 000231   001422 710000 1                  TRA     s:9670
         1 000232   001422 710000 1                  TRA     s:9670
         1 000233   001422 710000 1                  TRA     s:9670
PL6.E3A0      #001=DUS$BLD File=DUS$BLD.:E05TSI                                  TUE 07/29/97 14:58 Page:31
         1 000234   001422 710000 1                  TRA     s:9670
         1 000235   001373 710000 1                  TRA     s:9660
         1 000236   001422 710000 1                  TRA     s:9670
         1 000237   001422 710000 1                  TRA     s:9670
         1 000240   001422 710000 1                  TRA     s:9670
         1 000241   001422 710000 1                  TRA     s:9670
         1 000242   001422 710000 1                  TRA     s:9670
         1 000243   001422 710000 1                  TRA     s:9670
         1 000244   001422 710000 1                  TRA     s:9670
         1 000245   001422 710000 1                  TRA     s:9670
         1 000246   001422 710000 1                  TRA     s:9670
         1 000247   001422 710000 1                  TRA     s:9670
         1 000250   001422 710000 1                  TRA     s:9670
         1 000251   001422 710000 1                  TRA     s:9670
         1 000252   001422 710000 1                  TRA     s:9670
         1 000253   001422 710000 1                  TRA     s:9670
         1 000254   001422 710000 1                  TRA     s:9670
         1 000255   001422 710000 1                  TRA     s:9670
         1 000256   001422 710000 1                  TRA     s:9670
         1 000257   001422 710000 1                  TRA     s:9670
         1 000260   001422 710000 1                  TRA     s:9670
         1 000261   001422 710000 1                  TRA     s:9670
         1 000262   001422 710000 1                  TRA     s:9670
         1 000263   001422 710000 1                  TRA     s:9670
         1 000264   001422 710000 1                  TRA     s:9670
         1 000265   001422 710000 1                  TRA     s:9670
         1 000266   001422 710000 1                  TRA     s:9670
         1 000267   001422 710000 1                  TRA     s:9670
         1 000270   001422 710000 1                  TRA     s:9670
         1 000271   001422 710000 1                  TRA     s:9670
         1 000272   001422 710000 1                  TRA     s:9670
         1 000273   001422 710000 1                  TRA     s:9670
         1 000274   001422 710000 1                  TRA     s:9670
         1 000275   001422 710000 1                  TRA     s:9670
         1 000276   001422 710000 1                  TRA     s:9670
         1 000277   001422 710000 1                  TRA     s:9670
         1 000300   001422 710000 1                  TRA     s:9670
PL6.E3A0      #001=DUS$BLD File=DUS$BLD.:E05TSI                                  TUE 07/29/97 14:58 Page:32
         1 000301   001422 710000 1                  TRA     s:9670
         1 000302   001422 710000 1                  TRA     s:9670
         1 000303   001422 710000 1                  TRA     s:9670
         1 000304   001422 710000 1                  TRA     s:9670
         1 000305   001422 710000 1                  TRA     s:9670
         1 000306   001422 710000 1                  TRA     s:9670
         1 000307   001422 710000 1                  TRA     s:9670
         1 000310   001422 710000 1                  TRA     s:9670
         1 000311   001422 710000 1                  TRA     s:9670
         1 000312   001422 710000 1                  TRA     s:9670
         1 000313   001422 710000 1                  TRA     s:9670
         1 000314   001422 710000 1                  TRA     s:9670
         1 000315   001422 710000 1                  TRA     s:9670
         1 000316   001422 710000 1                  TRA     s:9670
         1 000317   001422 710000 1                  TRA     s:9670
         1 000320   001422 710000 1                  TRA     s:9670
         1 000321   001422 710000 1                  TRA     s:9670
         1 000322   001422 710000 1                  TRA     s:9670
         1 000323   001422 710000 1                  TRA     s:9670
         1 000324   001422 710000 1                  TRA     s:9670
         1 000325   001422 710000 1                  TRA     s:9670
         1 000326   001422 710000 1                  TRA     s:9670
         1 000327   001422 710000 1                  TRA     s:9670
         1 000330   001422 710000 1                  TRA     s:9670
         1 000331   001422 710000 1                  TRA     s:9670
         1 000332   001422 710000 1                  TRA     s:9670
         1 000333   001422 710000 1                  TRA     s:9670
         1 000334   001422 710000 1                  TRA     s:9670
         1 000335   001422 710000 1                  TRA     s:9670
         1 000336   001422 710000 1                  TRA     s:9670
         1 000337   001422 710000 1                  TRA     s:9670
         1 000340   001422 710000 1                  TRA     s:9670
         1 000341   001422 710000 1                  TRA     s:9670
         1 000342   001422 710000 1                  TRA     s:9670
         1 000343   001422 710000 1                  TRA     s:9670
         1 000344   001422 710000 1                  TRA     s:9670
         1 000345   001422 710000 1                  TRA     s:9670
PL6.E3A0      #001=DUS$BLD File=DUS$BLD.:E05TSI                                  TUE 07/29/97 14:58 Page:33
         1 000346   001422 710000 1                  TRA     s:9670
         1 000347   001422 710000 1                  TRA     s:9670
         1 000350   001422 710000 1                  TRA     s:9670
         1 000351   001422 710000 1                  TRA     s:9670
         1 000352   001422 710000 1                  TRA     s:9670
         1 000353   001422 710000 1                  TRA     s:9670
         1 000354   001422 710000 1                  TRA     s:9670
         1 000355   001422 710000 1                  TRA     s:9670
         1 000356   001422 710000 1                  TRA     s:9670
         1 000357   001422 710000 1                  TRA     s:9670
         1 000360   001422 710000 1                  TRA     s:9670
         1 000361   001422 710000 1                  TRA     s:9670
         1 000362   001422 710000 1                  TRA     s:9670
         1 000363   001422 710000 1                  TRA     s:9670
         1 000364   001422 710000 1                  TRA     s:9670
         1 000365   001422 710000 1                  TRA     s:9670
         1 000366   001422 710000 1                  TRA     s:9670
         1 000367   001422 710000 1                  TRA     s:9670
         1 000370   001422 710000 1                  TRA     s:9670
         1 000371   001422 710000 1                  TRA     s:9670
         1 000372   001422 710000 1                  TRA     s:9670
         1 000373   001422 710000 1                  TRA     s:9670
         1 000374   001422 710000 1                  TRA     s:9670
         1 000375   001422 710000 1                  TRA     s:9670
         1 000376   001422 710000 1                  TRA     s:9670
         1 000377   001422 710000 1                  TRA     s:9670
         1 000400   001422 710000 1                  TRA     s:9670
         1 000401   001422 710000 1                  TRA     s:9670
         1 000402   001422 710000 1                  TRA     s:9670
         1 000403   001422 710000 1                  TRA     s:9670
         1 000404   001422 710000 1                  TRA     s:9670
         1 000405   001422 710000 1                  TRA     s:9670
         1 000406   001422 710000 1                  TRA     s:9670
         1 000407   001422 710000 1                  TRA     s:9670
         1 000410   001422 710000 1                  TRA     s:9670
         1 000411   001422 710000 1                  TRA     s:9670
         1 000412   001422 710000 1                  TRA     s:9670
PL6.E3A0      #001=DUS$BLD File=DUS$BLD.:E05TSI                                  TUE 07/29/97 14:58 Page:34
         1 000413   001422 710000 1                  TRA     s:9670
         1 000414   001422 710000 1                  TRA     s:9670
         1 000415   001422 710000 1                  TRA     s:9670
         1 000416   001422 710000 1                  TRA     s:9670
         1 000417   001422 710000 1                  TRA     s:9670
         1 000420   001422 710000 1                  TRA     s:9670
         1 000421   001422 710000 1                  TRA     s:9670
         1 000422   001422 710000 1                  TRA     s:9670
         1 000423   001422 710000 1                  TRA     s:9670
         1 000424   001422 710000 1                  TRA     s:9670
         1 000425   001422 710000 1                  TRA     s:9670
         1 000426   001422 710000 1                  TRA     s:9670
         1 000427   001422 710000 1                  TRA     s:9670
         1 000430   001422 710000 1                  TRA     s:9670
         1 000431   001422 710000 1                  TRA     s:9670
         1 000432   001422 710000 1                  TRA     s:9670
         1 000433   001422 710000 1                  TRA     s:9670
         1 000434   001422 710000 1                  TRA     s:9670
         1 000435   001422 710000 1                  TRA     s:9670
         1 000436   001422 710000 1                  TRA     s:9670
         1 000437   001422 710000 1                  TRA     s:9670
         1 000440   001422 710000 1                  TRA     s:9670
         1 000441   001422 710000 1                  TRA     s:9670
         1 000442   001422 710000 1                  TRA     s:9670
         1 000443   001422 710000 1                  TRA     s:9670
         1 000444   001422 710000 1                  TRA     s:9670
         1 000445   001422 710000 1                  TRA     s:9670
         1 000446   001422 710000 1                  TRA     s:9670
         1 000447   001422 710000 1                  TRA     s:9670
         1 000450   001422 710000 1                  TRA     s:9670
         1 000451   001422 710000 1                  TRA     s:9670
         1 000452   001422 710000 1                  TRA     s:9670
         1 000453   001422 710000 1                  TRA     s:9670
         1 000454   001422 710000 1                  TRA     s:9670
         1 000455   001422 710000 1                  TRA     s:9670
         1 000456   001422 710000 1                  TRA     s:9670
         1 000457   001422 710000 1                  TRA     s:9670
PL6.E3A0      #001=DUS$BLD File=DUS$BLD.:E05TSI                                  TUE 07/29/97 14:58 Page:35
         1 000460   001422 710000 1                  TRA     s:9670
         1 000461   001422 710000 1                  TRA     s:9670
         1 000462   001422 710000 1                  TRA     s:9670
         1 000463   001422 710000 1                  TRA     s:9670
         1 000464   001422 710000 1                  TRA     s:9670
         1 000465   001422 710000 1                  TRA     s:9670
         1 000466   001422 710000 1                  TRA     s:9670
         1 000467   001422 710000 1                  TRA     s:9670
         1 000470   001422 710000 1                  TRA     s:9670
         1 000471   001422 710000 1                  TRA     s:9670
         1 000472   001422 710000 1                  TRA     s:9670
         1 000473   001422 710000 1                  TRA     s:9670
         1 000474   001422 710000 1                  TRA     s:9670
         1 000475   001422 710000 1                  TRA     s:9670
         1 000476   001422 710000 1                  TRA     s:9670
         1 000477   001422 710000 1                  TRA     s:9670
         1 000500   001422 710000 1                  TRA     s:9670
         1 000501   001422 710000 1                  TRA     s:9670
         1 000502   001422 710000 1                  TRA     s:9670
         1 000503   001422 710000 1                  TRA     s:9670
         1 000504   001422 710000 1                  TRA     s:9670
         1 000505   001422 710000 1                  TRA     s:9670
         1 000506   001422 710000 1                  TRA     s:9670
         1 000507   001422 710000 1                  TRA     s:9670
         1 000510   001422 710000 1                  TRA     s:9670
         1 000511   001422 710000 1                  TRA     s:9670
         1 000512   001422 710000 1                  TRA     s:9670
         1 000513   001422 710000 1                  TRA     s:9670
         1 000514   001422 710000 1                  TRA     s:9670
         1 000515   001422 710000 1                  TRA     s:9670
         1 000516   001422 710000 1                  TRA     s:9670
         1 000517   001422 710000 1                  TRA     s:9670
         1 000520   001422 710000 1                  TRA     s:9670
         1 000521   001422 710000 1                  TRA     s:9670
         1 000522   001422 710000 1                  TRA     s:9670
         1 000523   001422 710000 1                  TRA     s:9670
         1 000524   001422 710000 1                  TRA     s:9670
PL6.E3A0      #001=DUS$BLD File=DUS$BLD.:E05TSI                                  TUE 07/29/97 14:58 Page:36
         1 000525   001422 710000 1                  TRA     s:9670
         1 000526   001422 710000 1                  TRA     s:9670
         1 000527   001422 710000 1                  TRA     s:9670
         1 000530   001422 710000 1                  TRA     s:9670
         1 000531   001422 710000 1                  TRA     s:9670
         1 000532   001422 710000 1                  TRA     s:9670
         1 000533   001422 710000 1                  TRA     s:9670
         1 000534   001422 710000 1                  TRA     s:9670
         1 000535   001422 710000 1                  TRA     s:9670
         1 000536   001422 710000 1                  TRA     s:9670
         1 000537   001422 710000 1                  TRA     s:9670
         1 000540   001422 710000 1                  TRA     s:9670
         1 000541   001422 710000 1                  TRA     s:9670
         1 000542   001422 710000 1                  TRA     s:9670
         1 000543   001422 710000 1                  TRA     s:9670
         1 000544   001422 710000 1                  TRA     s:9670
         1 000545   001422 710000 1                  TRA     s:9670
         1 000546   001422 710000 1                  TRA     s:9670
         1 000547   001422 710000 1                  TRA     s:9670
         1 000550   001422 710000 1                  TRA     s:9670
         1 000551   001422 710000 1                  TRA     s:9670
         1 000552   001422 710000 1                  TRA     s:9670
         1 000553   001422 710000 1                  TRA     s:9670
         1 000554   001422 710000 1                  TRA     s:9670
         1 000555   001422 710000 1                  TRA     s:9670
         1 000556   001422 710000 1                  TRA     s:9670
         1 000557   001422 710000 1                  TRA     s:9670
         1 000560   001422 710000 1                  TRA     s:9670
         1 000561   001422 710000 1                  TRA     s:9670
         1 000562   001422 710000 1                  TRA     s:9670
         1 000563   001422 710000 1                  TRA     s:9670
         1 000564   001422 710000 1                  TRA     s:9670
         1 000565   001422 710000 1                  TRA     s:9670
         1 000566   001422 710000 1                  TRA     s:9670
         1 000567   001422 710000 1                  TRA     s:9670
         1 000570   001422 710000 1                  TRA     s:9670
         1 000571   001422 710000 1                  TRA     s:9670
PL6.E3A0      #001=DUS$BLD File=DUS$BLD.:E05TSI                                  TUE 07/29/97 14:58 Page:37
         1 000572   001422 710000 1                  TRA     s:9670
         1 000573   001422 710000 1                  TRA     s:9670
         1 000574   001422 710000 1                  TRA     s:9670
         1 000575   001422 710000 1                  TRA     s:9670
         1 000576   001422 710000 1                  TRA     s:9670
         1 000577   001422 710000 1                  TRA     s:9670
         1 000600   001422 710000 1                  TRA     s:9670
         1 000601   001422 710000 1                  TRA     s:9670
         1 000602   001422 710000 1                  TRA     s:9670
         1 000603   001422 710000 1                  TRA     s:9670
         1 000604   001422 710000 1                  TRA     s:9670
         1 000605   001422 710000 1                  TRA     s:9670
         1 000606   001422 710000 1                  TRA     s:9670
         1 000607   001422 710000 1                  TRA     s:9670
         1 000610   001422 710000 1                  TRA     s:9670
         1 000611   001422 710000 1                  TRA     s:9670
         1 000612   001422 710000 1                  TRA     s:9670
         1 000613   001422 710000 1                  TRA     s:9670
         1 000614   001422 710000 1                  TRA     s:9670
         1 000615   001422 710000 1                  TRA     s:9670
         1 000616   001422 710000 1                  TRA     s:9670
         1 000617   001422 710000 1                  TRA     s:9670
         1 000620   001422 710000 1                  TRA     s:9670
         1 000621   001422 710000 1                  TRA     s:9670
         1 000622   001422 710000 1                  TRA     s:9670
         1 000623   001422 710000 1                  TRA     s:9670
         1 000624   001422 710000 1                  TRA     s:9670
         1 000625   001422 710000 1                  TRA     s:9670
         1 000626   001422 710000 1                  TRA     s:9670
         1 000627   001422 710000 1                  TRA     s:9670
         1 000630   001422 710000 1                  TRA     s:9670
         1 000631   001422 710000 1                  TRA     s:9670
         1 000632   001422 710000 1                  TRA     s:9670
         1 000633   001422 710000 1                  TRA     s:9670
         1 000634   001422 710000 1                  TRA     s:9670
         1 000635   001422 710000 1                  TRA     s:9670
         1 000636   001422 710000 1                  TRA     s:9670
PL6.E3A0      #001=DUS$BLD File=DUS$BLD.:E05TSI                                  TUE 07/29/97 14:58 Page:38
         1 000637   001422 710000 1                  TRA     s:9670
         1 000640   001422 710000 1                  TRA     s:9670
         1 000641   001422 710000 1                  TRA     s:9670
         1 000642   001422 710000 1                  TRA     s:9670
         1 000643   001422 710000 1                  TRA     s:9670
         1 000644   001422 710000 1                  TRA     s:9670
         1 000645   001422 710000 1                  TRA     s:9670
         1 000646   001422 710000 1                  TRA     s:9670
         1 000647   001422 710000 1                  TRA     s:9670
         1 000650   001422 710000 1                  TRA     s:9670
         1 000651   001422 710000 1                  TRA     s:9670
         1 000652   001422 710000 1                  TRA     s:9670
         1 000653   001422 710000 1                  TRA     s:9670
         1 000654   001422 710000 1                  TRA     s:9670
         1 000655   001422 710000 1                  TRA     s:9670
         1 000656   001422 710000 1                  TRA     s:9670
         1 000657   001422 710000 1                  TRA     s:9670
         1 000660   001422 710000 1                  TRA     s:9670
         1 000661   001422 710000 1                  TRA     s:9670
         1 000662   001422 710000 1                  TRA     s:9670
         1 000663   001422 710000 1                  TRA     s:9670
         1 000664   001422 710000 1                  TRA     s:9670
         1 000665   001422 710000 1                  TRA     s:9670
         1 000666   001422 710000 1                  TRA     s:9670
         1 000667   001422 710000 1                  TRA     s:9670
         1 000670   001422 710000 1                  TRA     s:9670
         1 000671   001422 710000 1                  TRA     s:9670
         1 000672   001422 710000 1                  TRA     s:9670
         1 000673   001422 710000 1                  TRA     s:9670
         1 000674   001422 710000 1                  TRA     s:9670
         1 000675   001422 710000 1                  TRA     s:9670
         1 000676   001422 710000 1                  TRA     s:9670
         1 000677   001422 710000 1                  TRA     s:9670
         1 000700   001422 710000 1                  TRA     s:9670
         1 000701   001422 710000 1                  TRA     s:9670
         1 000702   001422 710000 1                  TRA     s:9670
         1 000703   001422 710000 1                  TRA     s:9670
PL6.E3A0      #001=DUS$BLD File=DUS$BLD.:E05TSI                                  TUE 07/29/97 14:58 Page:39
         1 000704   001422 710000 1                  TRA     s:9670
         1 000705   001422 710000 1                  TRA     s:9670
         1 000706   001422 710000 1                  TRA     s:9670
         1 000707   000741 710000 1                  TRA     s:9497
         1 000710   000774 710000 1                  TRA     s:9508
         1 000711   001020 710000 1                  TRA     s:9522
         1 000712   001050 710000 1                  TRA     s:9538
         1 000713   001054 710000 1                  TRA     s:9540
         1 000714   001060 710000 1                  TRA     s:9542
         1 000715   001064 710000 1                  TRA     s:9544
         1 000716   001106 710000 1                  TRA     s:9553
         1 000717   001136 710000 1                  TRA     s:9569
         1 000720   001142 710000 1                  TRA     s:9571
         1 000721   001146 710000 1                  TRA     s:9573
         1 000722   001173 710000 1                  TRA     s:9587
         1 000723   001177 710000 1                  TRA     s:9589
         1 000724   001203 710000 1                  TRA     s:9591
         1 000725   001236 710000 1                  TRA     s:9608
         1 000726   001252 710000 1                  TRA     s:9612
         1 000727   001256 710000 1                  TRA     s:9614
         1 000730   001262 710000 1                  TRA     s:9616
         1 000731   001266 710000 1                  TRA     s:9618
         1 000732   001302 710000 1                  TRA     s:9624
         1 000733   001306 710000 1                  TRA     s:9626
         1 000734   001312 710000 1                  TRA     s:9628
         1 000735   001337 710000 1                  TRA     s:9642
         1 000736   001276 710000 1                  TRA     s:9622
         1 000737   001152 710000 1                  TRA     s:9575
         1 000740   001316 710000 1                  TRA     s:9630

      118     9496    3               CASE ( I@ALL );             /* ALL */

      119     9497    3                  IF S_D.ONE_TO_TWO.EXEC_DOMAIN = %HOST

   9497  1 000741   000000 473400 xsym               LDP3    S_D$
         1 000742   306714 235100                    LDA     3532,,PR3
         1 000743   000001 115007                    CMPA    1,DL
PL6.E3A0      #001=DUS$BLD File=DUS$BLD.:E05TSI                                  TUE 07/29/97 14:58 Page:40
         1 000744   000760 601000 1                  TNZ     s:9504

      120     9498    4                  THEN DO;

      121     9499    4                       KEEP$CMD.OPTIONS = '777777777777'O;

   9499  1 000745   000027 236000 xsym               LDQ     B_VECTNIL+23
         1 000746   200004 474500                    LDP4    LASTBLT$,,AUTO
         1 000747   400002 756100                    STQ     2,,PR4

      122     9500    4                       KEEP$CMD.ALL = '1'B;

   9500  1 000750   400000 236003                    LDQ     -131072,DU
         1 000751   400001 256100                    ORSQ    1,,PR4

      123     9501    4                       IF V = C_IGNORE

   9501  1 000752   200012 235100                    LDA     V,,AUTO
         1 000753   000021 115007                    CMPA    17,DL
         1 000754   001431 601000 1                  TNZ     s:9674

      124     9502    4                       THEN KEEP$CMD.OPTARRY( 3 ) = '0'B;

   9502  1 000755   000001 236000 2                  LDQ     1
         1 000756   400002 356100                    ANSQ    2,,PR4

      125     9503    4                     END;

   9503  1 000757   001431 710000 1                  TRA     s:9674

      126     9504    3                  ELSE IF S_D.CURRENT_FPRG_CONTEXT$ -> FPRG$CONTEXT.XDELTA

   9504  1 000760   300102 474500                    LDP4    66,,PR3
         1 000761   400001 236100                    LDQ     1,,PR4
         1 000762   002000 316003                    CANQ    1024,DU
         1 000763   000770 600000 1                  TZE     s:9506

PL6.E3A0      #001=DUS$BLD File=DUS$BLD.:E05TSI                                  TUE 07/29/97 14:58 Page:41
      127     9505    3                       THEN KEEP$CMD.L6_OPTIONS(0) = '1'B;

   9505  1 000764   200004 475500                    LDP5    LASTBLT$,,AUTO
         1 000765   040000 236003                    LDQ     16384,DU
         1 000766   500001 256100                    ORSQ    1,,PR5
         1 000767   001431 710000 1                  TRA     s:9674

      128     9506    3                       ELSE KEEP$CMD.L6_OPTARRAY = '77'O;

   9506  1 000770   200004 475500                    LDP5    LASTBLT$,,AUTO
         1 000771   077000 236003                    LDQ     32256,DU
         1 000772   500001 256100                    ORSQ    1,,PR5
         1 000773   001431 710000 1                  TRA     s:9674

      129     9507    3               CASE ( I@ARITHMETIC );      /* ARITHMETIC */

      130     9508    3                  IF S_D.ONE_TO_TWO.EXEC_DOMAIN = %HOST

   9508  1 000774   000000 473400 xsym               LDP3    S_D$
         1 000775   306714 235100                    LDA     3532,,PR3
         1 000776   000001 115007                    CMPA    1,DL
         1 000777   001006 601000 1                  TNZ     s:9514

      131     9509    4                  THEN DO;

      132     9510    4                       KEEP$CMD.OPTARRY( 5 ) = '1'B; /* OVERFLOW */

   9510  1 001000   200004 474500                    LDP4    LASTBLT$,,AUTO
         1 001001   010000 236003                    LDQ     4096,DU
         1 001002   400002 256100                    ORSQ    2,,PR4

      133     9511    4                       KEEP$CMD.OPTARRY( 6 ) = '1'B; /* DIVIDE CHECK */

   9511  1 001003   004000 236003                    LDQ     2048,DU
         1 001004   400002 256100                    ORSQ    2,,PR4

      134     9512    4                     END;
PL6.E3A0      #001=DUS$BLD File=DUS$BLD.:E05TSI                                  TUE 07/29/97 14:58 Page:42

   9512  1 001005   001431 710000 1                  TRA     s:9674

      135     9513    4                  ELSE DO;

      136     9514    4                       KEEP$CMD.L6_OPTIONS(5) = '1'B;

   9514  1 001006   200004 474500                    LDP4    LASTBLT$,,AUTO
         1 001007   001000 236003                    LDQ     512,DU
         1 001010   400001 256100                    ORSQ    1,,PR4

      137     9515    4                       IF S_D.CURRENT_FPRG_CONTEXT$ -> FPRG$CONTEXT.XDELTA

   9515  1 001011   300102 471500                    LDP1    66,,PR3
         1 001012   100001 236100                    LDQ     1,,PR1
         1 001013   002000 316003                    CANQ    1024,DU
         1 001014   001431 600000 1                  TZE     s:9674

      138     9516    5                       THEN DO;

      139     9517    5                            S_D.ERROR = E@NOTL6XDELTA; /* E@NOTL6XDELTA */

   9517  1 001015   000511 235007                    LDA     329,DL
         1 001016   300013 755100                    STA     11,,PR3

      140     9518    5                            GOTO ARET;

   9518  1 001017   002251 710000 1                  TRA     ARET

      141     9519    5                          END;
      142     9520    4                     END;
      143     9521    3               CASE ( I@BREAK );           /* BREAK */

      144     9522    3                  IF S_D.ONE_TO_TWO.EXEC_DOMAIN = %HOST

   9522  1 001020   000000 473400 xsym               LDP3    S_D$
         1 001021   306714 235100                    LDA     3532,,PR3
PL6.E3A0      #001=DUS$BLD File=DUS$BLD.:E05TSI                                  TUE 07/29/97 14:58 Page:43
         1 001022   000001 115007                    CMPA    1,DL
         1 001023   001030 601000 1                  TNZ     s:9525

      145     9523    3                  THEN KEEP$CMD.OPTARRY( 2 ) = '1'B;

   9523  1 001024   200004 474500                    LDP4    LASTBLT$,,AUTO
         1 001025   100000 236003                    LDQ     32768,DU
         1 001026   400002 256100                    ORSQ    2,,PR4
         1 001027   001431 710000 1                  TRA     s:9674

      146     9524    4                  ELSE DO;

      147     9525    4                       KEEP$CMD.L6_OPTIONS(2) = '1'B;

   9525  1 001030   200004 474500                    LDP4    LASTBLT$,,AUTO
         1 001031   010000 236003                    LDQ     4096,DU
         1 001032   400001 256100                    ORSQ    1,,PR4

      148     9526    4                       IF S_D.CURRENT_FPRG_CONTEXT$ -> FPRG$CONTEXT.XDELTA

   9526  1 001033   300102 471500                    LDP1    66,,PR3
         1 001034   100001 236100                    LDQ     1,,PR1
         1 001035   002000 316003                    CANQ    1024,DU
         1 001036   001042 600000 1                  TZE     s:9531

      149     9527    5                       THEN DO;

      150     9528    5                            S_D.ERROR = E@NOTL6XDELTA; /* E@NOTL6XDELTA */

   9528  1 001037   000511 235007                    LDA     329,DL
         1 001040   300013 755100                    STA     11,,PR3

      151     9529    5                            GOTO ARET;

   9529  1 001041   002251 710000 1                  TRA     ARET

      152     9530    5                          END;
PL6.E3A0      #001=DUS$BLD File=DUS$BLD.:E05TSI                                  TUE 07/29/97 14:58 Page:44
      153     9531    4                       IF V = C_IGNORE     /* C_IGNORE */

   9531  1 001042   200012 235100                    LDA     V,,AUTO
         1 001043   000021 115007                    CMPA    17,DL
         1 001044   001431 601000 1                  TNZ     s:9674

      154     9532    5                       THEN DO;

      155     9533    5                            S_D.ERROR = E@SYNTAX; /* E@SYNTAX */

   9533  1 001045   000065 235007                    LDA     53,DL
         1 001046   300013 755100                    STA     11,,PR3

      156     9534    5                            GOTO ARET;

   9534  1 001047   002251 710000 1                  TRA     ARET

      157     9535    5                          END;
      158     9536    4                     END;
      159     9537    3               CASE ( I@COMMAND );         /* COMMAND */

      160     9538    3                  KEEP$CMD.OPTARRY( 11 ) = '1'B;

   9538  1 001050   200004 473500                    LDP3    LASTBLT$,,AUTO
         1 001051   000100 236003                    LDQ     64,DU
         1 001052   300002 256100                    ORSQ    2,,PR3
         1 001053   001431 710000 1                  TRA     s:9674

      161     9539    3               CASE ( I@DERAIL );          /* DERAIL */

      162     9540    3                  KEEP$CMD.OPTARRY( 8 ) = '1'B;

   9540  1 001054   200004 473500                    LDP3    LASTBLT$,,AUTO
         1 001055   001000 236003                    LDQ     512,DU
         1 001056   300002 256100                    ORSQ    2,,PR3
         1 001057   001431 710000 1                  TRA     s:9674

PL6.E3A0      #001=DUS$BLD File=DUS$BLD.:E05TSI                                  TUE 07/29/97 14:58 Page:45
      163     9541    3               CASE ( I@DIVIDE_CHECK );    /* DIVIDE CHECK */

      164     9542    3                  KEEP$CMD.OPTARRY( 6 ) = '1'B;

   9542  1 001060   200004 473500                    LDP3    LASTBLT$,,AUTO
         1 001061   004000 236003                    LDQ     2048,DU
         1 001062   300002 256100                    ORSQ    2,,PR3
         1 001063   001431 710000 1                  TRA     s:9674

      165     9543    3               CASE ( I@ERROR );           /* ERROR */

      166     9544    3                  KEEP$CMD.OPTARRY( 10 ) = '1'B; /* MEMORY */

   9544  1 001064   200004 473500                    LDP3    LASTBLT$,,AUTO
         1 001065   000200 236003                    LDQ     128,DU
         1 001066   300002 256100                    ORSQ    2,,PR3

      167     9545    3                  KEEP$CMD.OPTARRY( 11 ) = '1'B; /* COMMAND */

   9545  1 001067   000100 236003                    LDQ     64,DU
         1 001070   300002 256100                    ORSQ    2,,PR3

      168     9546    3                  KEEP$CMD.OPTARRY( 12 ) = '1'B; /* LOCKUP */

   9546  1 001071   000040 236003                    LDQ     32,DU
         1 001072   300002 256100                    ORSQ    2,,PR3

      169     9547    3                  KEEP$CMD.OPTARRY( 13 ) = '1'B; /* IPR */

   9547  1 001073   000020 236003                    LDQ     16,DU
         1 001074   300002 256100                    ORSQ    2,,PR3

      170     9548    3                  KEEP$CMD.OPTARRY( 14 ) = '1'B; /* SEG */

   9548  1 001075   000010 236003                    LDQ     8,DU
         1 001076   300002 256100                    ORSQ    2,,PR3

PL6.E3A0      #001=DUS$BLD File=DUS$BLD.:E05TSI                                  TUE 07/29/97 14:58 Page:46
      171     9549    3                  KEEP$CMD.OPTARRY( 15 ) = '1'B; /* PAGE */

   9549  1 001077   000004 236003                    LDQ     4,DU
         1 001100   300002 256100                    ORSQ    2,,PR3

      172     9550    3                  KEEP$CMD.OPTARRY( 16 ) = '1'B; /* SEC_2 */

   9550  1 001101   000002 236003                    LDQ     2,DU
         1 001102   300002 256100                    ORSQ    2,,PR3

      173     9551    3                  KEEP$CMD.OPTARRY( 19 ) = '1'B; /* SEC_1 */

   9551  1 001103   200000 236007                    LDQ     65536,DL
         1 001104   300002 256100                    ORSQ    2,,PR3
         1 001105   001431 710000 1                  TRA     s:9674

      174     9552    3               CASE ( I@EVENT );           /* EVENT */

      175     9553    3                  IF S_D.ONE_TO_TWO.EXEC_DOMAIN = %HOST

   9553  1 001106   000000 473400 xsym               LDP3    S_D$
         1 001107   306714 235100                    LDA     3532,,PR3
         1 001110   000001 115007                    CMPA    1,DL
         1 001111   001116 601000 1                  TNZ     s:9556

      176     9554    3                  THEN KEEP$CMD.OPTARRY( 1 ) = '1'B;

   9554  1 001112   200004 474500                    LDP4    LASTBLT$,,AUTO
         1 001113   200000 236003                    LDQ     65536,DU
         1 001114   400002 256100                    ORSQ    2,,PR4
         1 001115   001431 710000 1                  TRA     s:9674

      177     9555    4                  ELSE DO;

      178     9556    4                       KEEP$CMD.L6_OPTIONS(1) = '1'B;

   9556  1 001116   200004 474500                    LDP4    LASTBLT$,,AUTO
PL6.E3A0      #001=DUS$BLD File=DUS$BLD.:E05TSI                                  TUE 07/29/97 14:58 Page:47
         1 001117   020000 236003                    LDQ     8192,DU
         1 001120   400001 256100                    ORSQ    1,,PR4

      179     9557    4                       IF S_D.CURRENT_FPRG_CONTEXT$ -> FPRG$CONTEXT.XDELTA

   9557  1 001121   300102 471500                    LDP1    66,,PR3
         1 001122   100001 236100                    LDQ     1,,PR1
         1 001123   002000 316003                    CANQ    1024,DU
         1 001124   001130 600000 1                  TZE     s:9562

      180     9558    5                       THEN DO;

      181     9559    5                            S_D.ERROR = E@NOTL6XDELTA; /* E@NOTL6XDELTA */

   9559  1 001125   000511 235007                    LDA     329,DL
         1 001126   300013 755100                    STA     11,,PR3

      182     9560    5                            GOTO ARET;

   9560  1 001127   002251 710000 1                  TRA     ARET

      183     9561    5                          END;
      184     9562    4                       IF V = C_IGNORE     /* C_IGNORE */

   9562  1 001130   200012 235100                    LDA     V,,AUTO
         1 001131   000021 115007                    CMPA    17,DL
         1 001132   001431 601000 1                  TNZ     s:9674

      185     9563    5                       THEN DO;

      186     9564    5                            S_D.ERROR = E@SYNTAX; /* E@SYNTAX */

   9564  1 001133   000065 235007                    LDA     53,DL
         1 001134   300013 755100                    STA     11,,PR3

      187     9565    5                            GOTO ARET;

PL6.E3A0      #001=DUS$BLD File=DUS$BLD.:E05TSI                                  TUE 07/29/97 14:58 Page:48
   9565  1 001135   002251 710000 1                  TRA     ARET

      188     9566    5                          END;
      189     9567    4                     END;
      190     9568    3               CASE ( I@FAULT_TAG );       /* FAULT_TAG */

      191     9569    3                  KEEP$CMD.OPTARRY( 9 ) = '1'B;

   9569  1 001136   200004 473500                    LDP3    LASTBLT$,,AUTO
         1 001137   000400 236003                    LDQ     256,DU
         1 001140   300002 256100                    ORSQ    2,,PR3
         1 001141   001431 710000 1                  TRA     s:9674

      192     9570    3               CASE ( I@IPR );             /* IPR */

      193     9571    3                  KEEP$CMD.OPTARRY( 13 ) = '1'B;

   9571  1 001142   200004 473500                    LDP3    LASTBLT$,,AUTO
         1 001143   000020 236003                    LDQ     16,DU
         1 001144   300002 256100                    ORSQ    2,,PR3
         1 001145   001431 710000 1                  TRA     s:9674

      194     9572    3               CASE ( I@LOCKUP );          /* LOCKUP */

      195     9573    3                  KEEP$CMD.OPTARRY( 12 ) = '1'B;

   9573  1 001146   200004 473500                    LDP3    LASTBLT$,,AUTO
         1 001147   000040 236003                    LDQ     32,DU
         1 001150   300002 256100                    ORSQ    2,,PR3
         1 001151   001431 710000 1                  TRA     s:9674

      196     9574    3               CASE( I@MCL );              /* MCL - L6 option */

      197     9575    3                  KEEP$CMD.L6_OPTIONS(0) = '1'B;

   9575  1 001152   200004 473500                    LDP3    LASTBLT$,,AUTO
         1 001153   040000 236003                    LDQ     16384,DU
PL6.E3A0      #001=DUS$BLD File=DUS$BLD.:E05TSI                                  TUE 07/29/97 14:58 Page:49
         1 001154   300001 256100                    ORSQ    1,,PR3

      198     9576    3                  IF S_D.CURRENT_FPRG_CONTEXT$ -> FPRG$CONTEXT.XDELTA

   9576  1 001155   000000 471400 xsym               LDP1    S_D$
         1 001156   100102 474500                    LDP4    66,,PR1
         1 001157   400001 236100                    LDQ     1,,PR4
         1 001160   002000 316003                    CANQ    1024,DU
         1 001161   001165 600000 1                  TZE     s:9581

      199     9577    4                  THEN DO;

      200     9578    4                       S_D.ERROR = E@NOTL6XDELTA; /* E@NOTL6XDELTA */

   9578  1 001162   000511 235007                    LDA     329,DL
         1 001163   100013 755100                    STA     11,,PR1

      201     9579    4                       GOTO ARET;

   9579  1 001164   002251 710000 1                  TRA     ARET

      202     9580    4                     END;
      203     9581    3                  IF V = C_IGNORE          /* C_IGNORE */

   9581  1 001165   200012 235100                    LDA     V,,AUTO
         1 001166   000021 115007                    CMPA    17,DL
         1 001167   001431 601000 1                  TNZ     s:9674

      204     9582    4                  THEN DO;

      205     9583    4                       S_D.ERROR = E@SYNTAX; /* E@SYNTAX */

   9583  1 001170   000065 235007                    LDA     53,DL
         1 001171   100013 755100                    STA     11,,PR1

      206     9584    4                       GOTO ARET;

PL6.E3A0      #001=DUS$BLD File=DUS$BLD.:E05TSI                                  TUE 07/29/97 14:58 Page:50
   9584  1 001172   002251 710000 1                  TRA     ARET

      207     9585    4                     END;
      208     9586    3               CASE ( I@MEMORY );          /* MEMORY */

      209     9587    3                  KEEP$CMD.OPTARRY( 10 ) = '1'B;

   9587  1 001173   200004 473500                    LDP3    LASTBLT$,,AUTO
         1 001174   000200 236003                    LDQ     128,DU
         1 001175   300002 256100                    ORSQ    2,,PR3
         1 001176   001431 710000 1                  TRA     s:9674

      210     9588    3               CASE ( I@MME );             /* MME */

      211     9589    3                  KEEP$CMD.OPTARRY( 7 ) = '1'B;

   9589  1 001177   200004 473500                    LDP3    LASTBLT$,,AUTO
         1 001200   002000 236003                    LDQ     1024,DU
         1 001201   300002 256100                    ORSQ    2,,PR3
         1 001202   001431 710000 1                  TRA     s:9674

      212     9590    3               CASE ( I@MONITOR );         /* MONITOR */

      213     9591    3                  IF S_D.ONE_TO_TWO.EXEC_DOMAIN = %HOST

   9591  1 001203   000000 473400 xsym               LDP3    S_D$
         1 001204   306714 235100                    LDA     3532,,PR3
         1 001205   000001 115007                    CMPA    1,DL
         1 001206   001223 601000 1                  TNZ     s:9600

      214     9592    4                  THEN DO;

      215     9593    4                       KEEP$CMD.OPTARRY( 0 ) = '1'B; /* TIMER */

   9593  1 001207   200004 474500                    LDP4    LASTBLT$,,AUTO
         1 001210   400000 236003                    LDQ     -131072,DU
         1 001211   400002 256100                    ORSQ    2,,PR4
PL6.E3A0      #001=DUS$BLD File=DUS$BLD.:E05TSI                                  TUE 07/29/97 14:58 Page:51

      216     9594    4                       KEEP$CMD.OPTARRY( 1 ) = '1'B; /* EVENT */

   9594  1 001212   200000 236003                    LDQ     65536,DU
         1 001213   400002 256100                    ORSQ    2,,PR4

      217     9595    4                       KEEP$CMD.OPTARRY( 2 ) = '1'B; /* BREAK */

   9595  1 001214   100000 236003                    LDQ     32768,DU
         1 001215   400002 256100                    ORSQ    2,,PR4

      218     9596    4                       KEEP$CMD.OPTARRY( 3 ) = '1'B; /* XCON */

   9596  1 001216   040000 236003                    LDQ     16384,DU
         1 001217   400002 256100                    ORSQ    2,,PR4

      219     9597    4                       KEEP$CMD.OPTARRY( 4 ) = '1'B; /* PMME */

   9597  1 001220   020000 236003                    LDQ     8192,DU
         1 001221   400002 256100                    ORSQ    2,,PR4

      220     9598    4                     END;

   9598  1 001222   001431 710000 1                  TRA     s:9674

      221     9599    4                  ELSE DO;

      222     9600    4                       IF NOT S_D.CURRENT_FPRG_CONTEXT$ -> FPRG$CONTEXT.XDELTA

   9600  1 001223   300102 474500                    LDP4    66,,PR3
         1 001224   400001 236100                    LDQ     1,,PR4
         1 001225   002000 316003                    CANQ    1024,DU
         1 001226   001232 601000 1                  TNZ     s:9605

      223     9601    5                       THEN DO;

      224     9602    5                            S_D.ERROR = E@UERR8; /* E@UERR8 */
PL6.E3A0      #001=DUS$BLD File=DUS$BLD.:E05TSI                                  TUE 07/29/97 14:58 Page:52

   9602  1 001227   000023 235007                    LDA     19,DL
         1 001230   300013 755100                    STA     11,,PR3

      225     9603    5                            GOTO ARET;

   9603  1 001231   002251 710000 1                  TRA     ARET

      226     9604    5                          END;
      227     9605    4                       KEEP$CMD.L6_OPTIONS(2) = '1'B;

   9605  1 001232   200004 475500                    LDP5    LASTBLT$,,AUTO
         1 001233   010000 236003                    LDQ     4096,DU
         1 001234   500001 256100                    ORSQ    1,,PR5

      228     9606    4                     END;

   9606  1 001235   001431 710000 1                  TRA     s:9674

      229     9607    3               CASE ( I@NONE );            /* NONE */

      230     9608    3                  IF S_D.ONE_TO_TWO.EXEC_DOMAIN = %L6 AND

   9608  1 001236   000000 473400 xsym               LDP3    S_D$
         1 001237   306714 235100                    LDA     3532,,PR3
         1 001240   000002 115007                    CMPA    2,DL
         1 001241   001431 601000 1                  TNZ     s:9674
         1 001242   300102 474500                    LDP4    66,,PR3
         1 001243   400001 236100                    LDQ     1,,PR4
         1 001244   002000 316003                    CANQ    1024,DU
         1 001245   001431 600000 1                  TZE     s:9674

      231     9609    3                    S_D.CURRENT_FPRG_CONTEXT$ -> FPRG$CONTEXT.XDELTA
      232     9610    3                  THEN KEEP$CMD.L6_OPTIONS(1) = '1'B;

   9610  1 001246   200004 475500                    LDP5    LASTBLT$,,AUTO
         1 001247   020000 236003                    LDQ     8192,DU
PL6.E3A0      #001=DUS$BLD File=DUS$BLD.:E05TSI                                  TUE 07/29/97 14:58 Page:53
         1 001250   500001 256100                    ORSQ    1,,PR5
         1 001251   001431 710000 1                  TRA     s:9674

      233     9611    3               CASE ( I@OVERFLOW );        /* OVERFLOW */

      234     9612    3                  KEEP$CMD.OPTARRY( 5 ) = '1'B;

   9612  1 001252   200004 473500                    LDP3    LASTBLT$,,AUTO
         1 001253   010000 236003                    LDQ     4096,DU
         1 001254   300002 256100                    ORSQ    2,,PR3
         1 001255   001431 710000 1                  TRA     s:9674

      235     9613    3               CASE ( I@PAGE );            /* PAGE */

      236     9614    3                  KEEP$CMD.OPTARRY( 15 ) = '1'B;

   9614  1 001256   200004 473500                    LDP3    LASTBLT$,,AUTO
         1 001257   000004 236003                    LDQ     4,DU
         1 001260   300002 256100                    ORSQ    2,,PR3
         1 001261   001431 710000 1                  TRA     s:9674

      237     9615    3               CASE ( I@PMME );            /* PMME */

      238     9616    3                  KEEP$CMD.OPTARRY( 4 ) = '1'B;

   9616  1 001262   200004 473500                    LDP3    LASTBLT$,,AUTO
         1 001263   020000 236003                    LDQ     8192,DU
         1 001264   300002 256100                    ORSQ    2,,PR3
         1 001265   001431 710000 1                  TRA     s:9674

      239     9617    3               CASE ( I@PROGRAMMED );      /* PROGRAMMED */

      240     9618    3                  KEEP$CMD.OPTARRY( 7 ) = '1'B; /* MME */

   9618  1 001266   200004 473500                    LDP3    LASTBLT$,,AUTO
         1 001267   002000 236003                    LDQ     1024,DU
         1 001270   300002 256100                    ORSQ    2,,PR3
PL6.E3A0      #001=DUS$BLD File=DUS$BLD.:E05TSI                                  TUE 07/29/97 14:58 Page:54

      241     9619    3                  KEEP$CMD.OPTARRY( 8 ) = '1'B; /* DERAIL */

   9619  1 001271   001000 236003                    LDQ     512,DU
         1 001272   300002 256100                    ORSQ    2,,PR3

      242     9620    3                  KEEP$CMD.OPTARRY( 9 ) = '1'B; /* FAULT_TAG */

   9620  1 001273   000400 236003                    LDQ     256,DU
         1 001274   300002 256100                    ORSQ    2,,PR3
         1 001275   001431 710000 1                  TRA     s:9674

      243     9621    3               CASE ( I@SEC_1 );           /* SEC_1 */

      244     9622    3                  KEEP$CMD.OPTARRY( 19 ) = '1'B; /* SEC_1 */

   9622  1 001276   200004 473500                    LDP3    LASTBLT$,,AUTO
         1 001277   200000 236007                    LDQ     65536,DL
         1 001300   300002 256100                    ORSQ    2,,PR3
         1 001301   001431 710000 1                  TRA     s:9674

      245     9623    3               CASE ( I@SEC_2 );           /* SEC_2 */

      246     9624    3                  KEEP$CMD.OPTARRY( 16 ) = '1'B;

   9624  1 001302   200004 473500                    LDP3    LASTBLT$,,AUTO
         1 001303   000002 236003                    LDQ     2,DU
         1 001304   300002 256100                    ORSQ    2,,PR3
         1 001305   001431 710000 1                  TRA     s:9674

      247     9625    3               CASE ( I@SEG );             /* SEG */

      248     9626    3                  KEEP$CMD.OPTARRY( 14 ) = '1'B;

   9626  1 001306   200004 473500                    LDP3    LASTBLT$,,AUTO
         1 001307   000010 236003                    LDQ     8,DU
         1 001310   300002 256100                    ORSQ    2,,PR3
PL6.E3A0      #001=DUS$BLD File=DUS$BLD.:E05TSI                                  TUE 07/29/97 14:58 Page:55
         1 001311   001431 710000 1                  TRA     s:9674

      249     9627    3               CASE ( I@TIMER );           /* TIMER */

      250     9628    3                  KEEP$CMD.OPTARRY( 0 ) = '1'B;

   9628  1 001312   200004 473500                    LDP3    LASTBLT$,,AUTO
         1 001313   400000 236003                    LDQ     -131072,DU
         1 001314   300002 256100                    ORSQ    2,,PR3
         1 001315   001431 710000 1                  TRA     s:9674

      251     9629    3               CASE( I@TRAP );             /* TRAP - L6 option */

      252     9630    3                  KEEP$CMD.L6_OPTIONS(4) = '1'B;

   9630  1 001316   200004 473500                    LDP3    LASTBLT$,,AUTO
         1 001317   002000 236003                    LDQ     1024,DU
         1 001320   300001 256100                    ORSQ    1,,PR3

      253     9631    3                  IF S_D.CURRENT_FPRG_CONTEXT$ -> FPRG$CONTEXT.XDELTA

   9631  1 001321   000000 471400 xsym               LDP1    S_D$
         1 001322   100102 474500                    LDP4    66,,PR1
         1 001323   400001 236100                    LDQ     1,,PR4
         1 001324   002000 316003                    CANQ    1024,DU
         1 001325   001331 600000 1                  TZE     s:9636

      254     9632    4                  THEN DO;

      255     9633    4                       S_D.ERROR = E@NOTL6XDELTA; /* E@NOTL6XDELTA */

   9633  1 001326   000511 235007                    LDA     329,DL
         1 001327   100013 755100                    STA     11,,PR1

      256     9634    4                       GOTO ARET;

   9634  1 001330   002251 710000 1                  TRA     ARET
PL6.E3A0      #001=DUS$BLD File=DUS$BLD.:E05TSI                                  TUE 07/29/97 14:58 Page:56

      257     9635    4                     END;
      258     9636    3                  IF V = C_IGNORE          /* C_IGNORE */

   9636  1 001331   200012 235100                    LDA     V,,AUTO
         1 001332   000021 115007                    CMPA    17,DL
         1 001333   001431 601000 1                  TNZ     s:9674

      259     9637    4                  THEN DO;

      260     9638    4                       S_D.ERROR = E@SYNTAX; /* E@SYNTAX */

   9638  1 001334   000065 235007                    LDA     53,DL
         1 001335   100013 755100                    STA     11,,PR1

      261     9639    4                       GOTO ARET;

   9639  1 001336   002251 710000 1                  TRA     ARET

      262     9640    4                     END;
      263     9641    3               CASE ( I@XCON );            /* XCON */

      264     9642    3                  IF S_D.ONE_TO_TWO.EXEC_DOMAIN = %HOST

   9642  1 001337   000000 473400 xsym               LDP3    S_D$
         1 001340   306714 235100                    LDA     3532,,PR3
         1 001341   000001 115007                    CMPA    1,DL
         1 001342   001347 601000 1                  TNZ     s:9645

      265     9643    3                  THEN KEEP$CMD.OPTARRY( 3 ) = '1'B;

   9643  1 001343   200004 474500                    LDP4    LASTBLT$,,AUTO
         1 001344   040000 236003                    LDQ     16384,DU
         1 001345   400002 256100                    ORSQ    2,,PR4
         1 001346   001431 710000 1                  TRA     s:9674

      266     9644    4                  ELSE DO;
PL6.E3A0      #001=DUS$BLD File=DUS$BLD.:E05TSI                                  TUE 07/29/97 14:58 Page:57

      267     9645    4                       KEEP$CMD.L6_OPTIONS(3) = '1'B;

   9645  1 001347   200004 474500                    LDP4    LASTBLT$,,AUTO
         1 001350   004000 236003                    LDQ     2048,DU
         1 001351   400001 256100                    ORSQ    1,,PR4

      268     9646    4                       IF S_D.CURRENT_FPRG_CONTEXT$ -> FPRG$CONTEXT.XDELTA

   9646  1 001352   300102 471500                    LDP1    66,,PR3
         1 001353   100001 236100                    LDQ     1,,PR1
         1 001354   002000 316003                    CANQ    1024,DU
         1 001355   001361 600000 1                  TZE     s:9651

      269     9647    5                       THEN DO;

      270     9648    5                            S_D.ERROR = E@NOTL6XDELTA; /* E@NOTL6XDELTA */

   9648  1 001356   000511 235007                    LDA     329,DL
         1 001357   300013 755100                    STA     11,,PR3

      271     9649    5                            GOTO ARET;

   9649  1 001360   002251 710000 1                  TRA     ARET

      272     9650    5                          END;
      273     9651    4                       IF V = C_IGNORE     /* C_IGNORE */

   9651  1 001361   200012 235100                    LDA     V,,AUTO
         1 001362   000021 115007                    CMPA    17,DL
         1 001363   001431 601000 1                  TNZ     s:9674

      274     9652    5                       THEN DO;

      275     9653    5                            S_D.ERROR = E@SYNTAX; /* E@SYNTAX */

   9653  1 001364   000065 235007                    LDA     53,DL
PL6.E3A0      #001=DUS$BLD File=DUS$BLD.:E05TSI                                  TUE 07/29/97 14:58 Page:58
         1 001365   300013 755100                    STA     11,,PR3

      276     9654    5                            GOTO ARET;

   9654  1 001366   002251 710000 1                  TRA     ARET

      277     9655    5                          END;
      278     9656    4                     END;
      279     9657    3               CASE( C@HOST );             /* HOST */

      280     9658    3                  KEEP$CMD.HOST = '1'B;

   9658  1 001367   200004 473500                    LDP3    LASTBLT$,,AUTO
         1 001370   200000 236003                    LDQ     65536,DU
         1 001371   300001 256100                    ORSQ    1,,PR3
         1 001372   001431 710000 1                  TRA     s:9674

      281     9659    3               CASE( RES_CODE );           /* RES_CODE */

      282     9660    3                  KEEP$CMD.FPRG = '1'B;

   9660  1 001373   200004 473500                    LDP3    LASTBLT$,,AUTO
         1 001374   100000 236003                    LDQ     32768,DU
         1 001375   300001 256100                    ORSQ    1,,PR3

      283     9661    3                  KEEP$CMD.FPRG_RES = NC$ -> SYM.TEXT;

   9661  1 001376   200010 471500                    LDP1    NC$,,AUTO
         1 001377   100004 236100                    LDQ     4,,PR1
         1 001400   000033 772000                    QRL     27
         1 001401   000000 621006                    EAX1    0,QL
         1 001402   040100 100540                    MLR     fill='040'O
         1 001403   100004 200011                    ADSC9   4,,PR1                   cn=1,n=*X1
         1 001404   300003 000010                    ADSC9   3,,PR3                   cn=0,n=8
         1 001405   001431 710000 1                  TRA     s:9674

      284     9662    3               CASE(KEEP_SCREECH);         /* SCREECH */
PL6.E3A0      #001=DUS$BLD File=DUS$BLD.:E05TSI                                  TUE 07/29/97 14:58 Page:59

      285     9663    3                  IF NOT S_D.CURRENT_FPRG_CONTEXT$ -> FPRG$CONTEXT.XDELTA

   9663  1 001406   000000 473400 xsym               LDP3    S_D$
         1 001407   300102 474500                    LDP4    66,,PR3
         1 001410   400001 236100                    LDQ     1,,PR4
         1 001411   002000 316003                    CANQ    1024,DU
         1 001412   001416 601000 1                  TNZ     s:9668

      286     9664    4                  THEN DO;

      287     9665    4                       S_D.ERROR = E@UERR8; /* E@UERR8 */

   9665  1 001413   000023 235007                    LDA     19,DL
         1 001414   300013 755100                    STA     11,,PR3

      288     9666    4                       GOTO ARET;

   9666  1 001415   002251 710000 1                  TRA     ARET

      289     9667    4                     END;
      290     9668    3                  KEEP$CMD.L6_OPTIONS(3) = '1'B;

   9668  1 001416   200004 475500                    LDP5    LASTBLT$,,AUTO
         1 001417   004000 236003                    LDQ     2048,DU
         1 001420   500001 256100                    ORSQ    1,,PR5
         1 001421   001431 710000 1                  TRA     s:9674

      291     9669    3               CASE ( ELSE );

      292     9670    3                  S_D.ERROR = E@DELBUG;    /* E@DELBUG */

   9670  1 001422   000766 235007                    LDA     502,DL
         1 001423   000000 473400 xsym               LDP3    S_D$
         1 001424   300013 755100                    STA     11,,PR3

      293     9671    3                  CALL DDE$ERROR;
PL6.E3A0      #001=DUS$BLD File=DUS$BLD.:E05TSI                                  TUE 07/29/97 14:58 Page:60

   9671  1 001425   000002 631400 xsym               EPPR1   B_VECTNIL+2
         1 001426   000000 701000 xent               TSX1    DDE$ERROR
         1 001427   000000 011000                    NOP     0

      294     9672    3                  GOTO ARET;

   9672  1 001430   002251 710000 1                  TRA     ARET

      295     9673    3               END;

      296     9674    2           END;

   9674  1 001431   200006 054100                    AOS     IX,,AUTO
         1 001432   200006 236100                    LDQ     IX,,AUTO
         1 001433   200005 116100                    CMPQ    NSB,,AUTO
         1 001434   000045 604400 1                  TMOZ    s:9493

      297     9675                                                /**/
      298     9676    1        RETURN;

   9676  1 001435   000000 702200 xent               TSX2  ! X66_ARET

      299     9677        %EJECT;
PL6.E3A0      #001=DUS$BLD File=DUS$BLD.:E05TSI                                  TUE 07/29/97 14:58 Page:61
      300     9678        /*F* NAME: DDS$BLD_DUMP
      301     9679             PURPOSE: TO BUILD THE DUMP COMMAND.
      302     9680             DESCRIPTION: BUILDS THE DUMP COMMAND. */
      303     9681        /*D* NAME: DDS$BLD_DUMP
      304     9682             ENTRY: DDS$BLD_DUMP
      305     9683             CALL: CALL DDS$BLD_DUMP ALTRET( ERROR );
      306     9684             INTERFACE: DDS$ATTDIRA
      307     9685             ENVIRONMENT: DDS$SCAN ACTIVE
      308     9686             INPUT: NCMD$ - PTR TO "DUMP" NODE.
      309     9687             OUTPUT: COMMAND BUILT IN BUILD BUFFER.
      310     9688             SCRATCH: LOCAL AUTO ONLY.
      311     9689             DESCRIPTION: */
      312     9690                                                /**/
      313     9691    1   DDS$BLD_DUMP: ENTRY ALTRET;

   9691  1 001436   000000 700200 xent  DDS$BLD_DUMP TSX0  ! X66_AUTO_0
         1 001437   000030 000000                    ZERO    24,0

      314     9692                                                /**/
      315     9693    1        NCMD$ = S_D.NCMD$;

   9693  1 001440   000000 470400 xsym               LDP0    S_D$
         1 001441   004750 236100                    LDQ     2536,,PR0
         1 001442   200003 756100                    STQ     NCMD$,,AUTO

      316     9694    1        LASTBLT$ = S_D.LASTBLT$;

   9694  1 001443   000134 236100                    LDQ     92,,PR0
         1 001444   200004 756100                    STQ     LASTBLT$,,AUTO

      317     9695    1        CALL DDS$ATTDIRA( SIZEW( DUMP$CMD ), C_DUMP ) ALTRET( ARET ); /* C_DUMP */

   9695  1 001445   000003 630400 2                  EPPR0   3
         1 001446   000020 631400 xsym               EPPR1   B_VECTNIL+16
         1 001447   000000 701000 xent               TSX1    DDS$ATTDIRA
         1 001450   002251 702000 1                  TSX2    ARET

PL6.E3A0      #001=DUS$BLD File=DUS$BLD.:E05TSI                                  TUE 07/29/97 14:58 Page:62
      318     9696    1        NSB = NCMD$ -> POB.NSB - 1;

   9696  1 001451   200003 470500                    LDP0    NCMD$,,AUTO
         1 001452   000001 236100                    LDQ     1,,PR0
         1 001453   000022 772000                    QRL     18
         1 001454   000001 136007                    SBLQ    1,DL
         1 001455   200005 756100                    STQ     NSB,,AUTO

      319     9697    1        DUMP$CMD.NUM = DD_BIGNUM;          /* DEFAULT SIZE > 16 MEGAWORDS */

   9697  1 001456   000005 235000 2                  LDA     5
         1 001457   200004 471500                    LDP1    LASTBLT$,,AUTO
         1 001460   100003 755100                    STA     3,,PR1

      320     9698    2        DO IX = 0 TO NSB;

   9698  1 001461   200006 450100                    STZ     IX,,AUTO
         1 001462   001707 710000 1                  TRA     s:9762+1

      321     9699    2             L$ = S_D.D$;

   9699  1 001463   000000 470400 xsym               LDP0    S_D$
         1 001464   000044 236100                    LDQ     36,,PR0
         1 001465   200013 756100                    STQ     L$,,AUTO

      322     9700    2             NC$ = NCMD$ -> POB.SUBLK$ ( IX );

   9700  1 001466   200003 471500                    LDP1    NCMD$,,AUTO
         1 001467   200006 720100                    LXL0    IX,,AUTO
         1 001470   100003 236110                    LDQ     3,X0,PR1
         1 001471   200010 756100                    STQ     NC$,,AUTO

      323     9701    2             CODE = NC$ -> POB.CODE;

   9701  1 001472   200010 473500                    LDP3    NC$,,AUTO
         1 001473   300000 236100                    LDQ     0,,PR3
         1 001474   777777 376007                    ANQ     -1,DL
PL6.E3A0      #001=DUS$BLD File=DUS$BLD.:E05TSI                                  TUE 07/29/97 14:58 Page:63
         1 001475   200011 756100                    STQ     CODE,,AUTO

      324     9702    2             IF ( CODE = VREF_CODE )       /* VREF_CODE */

   9702  1 001476   000046 116007                    CMPQ    38,DL
         1 001477   001520 601000 1                  TNZ     s:9712

      325     9703    3             THEN DO;

      326     9704    3                  CALL DDS$VREFCOM( NC$ ) ALTRET( ARET );

   9704  1 001500   200010 634500                    EPPR4   NC$,,AUTO
         1 001501   200024 454500                    STP4    ZITEM$+4,,AUTO
         1 001502   200024 630500                    EPPR0   ZITEM$+4,,AUTO
         1 001503   000017 631400 xsym               EPPR1   B_VECTNIL+15
         1 001504   000000 701000 xent               TSX1    DDS$VREFCOM
         1 001505   002251 702000 1                  TSX2    ARET

      327     9705    3                  DUMP$CMD.VREF = '1'B;

   9705  1 001506   200004 470500                    LDP0    LASTBLT$,,AUTO
         1 001507   002000 236003                    LDQ     1024,DU
         1 001510   000001 256100                    ORSQ    1,,PR0

      328     9706    3                  IF ( NOT L$ -> ZITEM.FLAGS.MDSE.M )

   9706  1 001511   200013 471500                    LDP1    L$,,AUTO
         1 001512   100001 234100                    SZN     1,,PR1
         1 001513   001706 604000 1                  TMI     s:9762

      329     9707    4                  THEN DO;

      330     9708    4                       S_D.ERROR = E@NOMOD; /* E@NOMOD  */

   9708  1 001514   000052 235007                    LDA     42,DL
         1 001515   000000 473400 xsym               LDP3    S_D$
         1 001516   300013 755100                    STA     11,,PR3
PL6.E3A0      #001=DUS$BLD File=DUS$BLD.:E05TSI                                  TUE 07/29/97 14:58 Page:64

      331     9709    4                       GOTO ARET;

   9709  1 001517   002251 710000 1                  TRA     ARET

      332     9710    4                     END;
      333     9711    3                END;
      334     9712    2             ELSE IF ( CODE = SIMEXP_CODE ) /* SIMEXP_CODE */

   9712  1 001520   000057 116007                    CMPQ    47,DL
         1 001521   001540 601000 1                  TNZ     s:9717

      335     9713    3                  THEN DO;

      336     9714    3                       CALL DDD$SIMEXP( NC$, V,TEMP_FLAG ) ALTRET( ARET );

   9714  1 001522   200007 634500                    EPPR4   TEMP_FLAG,,AUTO
         1 001523   200026 454500                    STP4    ZITEM$+6,,AUTO
         1 001524   200012 635500                    EPPR5   V,,AUTO
         1 001525   200025 455500                    STP5    ZITEM$+5,,AUTO
         1 001526   200010 636500                    EPPR6   NC$,,AUTO
         1 001527   200024 456500                    STP6    ZITEM$+4,,AUTO
         1 001530   200024 630500                    EPPR0   ZITEM$+4,,AUTO
         1 001531   000021 631400 xsym               EPPR1   B_VECTNIL+17
         1 001532   000000 701000 xent               TSX1    DDD$SIMEXP
         1 001533   002251 702000 1                  TSX2    ARET

      337     9715    3                       DUMP$CMD.NUM = V;

   9715  1 001534   200004 470500                    LDP0    LASTBLT$,,AUTO
         1 001535   200012 235100                    LDA     V,,AUTO
         1 001536   000003 755100                    STA     3,,PR0

      338     9716    3                     END;

   9716  1 001537   001706 710000 1                  TRA     s:9762

PL6.E3A0      #001=DUS$BLD File=DUS$BLD.:E05TSI                                  TUE 07/29/97 14:58 Page:65
      339     9717    2                  ELSE IF ( CODE >= FMTFIRST_CODE ) AND ( CODE <= FMTLAST_CODE )
              9717                           /* FMTFIRST,FMTLAST _CODE */

   9717  1 001540   000524 116007                    CMPQ    340,DL
         1 001541   001553 602000 1                  TNC     s:9722
         1 001542   000555 116007                    CMPQ    365,DL
         1 001543   001553 603000 1                  TRC     s:9722

      340     9718    3                       THEN DO;

      341     9719    3                            DUMP$CMD.FORMAT = '1'B;

   9719  1 001544   200004 474500                    LDP4    LASTBLT$,,AUTO
         1 001545   200000 236003                    LDQ     65536,DU
         1 001546   400001 256100                    ORSQ    1,,PR4

      342     9720    3                            DUMP$CMD.FORMATCODE = CODE;

   9720  1 001547   200011 236100                    LDQ     CODE,,AUTO
         1 001550   000022 736000                    QLS     18
         1 001551   400001 552120                    STBQ    1,'20'O,PR4

      343     9721    3                          END;

   9721  1 001552   001706 710000 1                  TRA     s:9762

      344     9722    2                       ELSE IF ( CODE >= C@ON ) AND ( CODE <= C@INTO )
              9722                                /* C@ON, C@INTO */

   9722  1 001553   000606 116007                    CMPQ    390,DL
         1 001554   001565 602000 1                  TNC     s:9727
         1 001555   000611 116007                    CMPQ    393,DL
         1 001556   001565 603000 1                  TRC     s:9727

      345     9723    3                            THEN DO;

      346     9724    3                                 DUMP$CMD.DEST = '1'B;
PL6.E3A0      #001=DUS$BLD File=DUS$BLD.:E05TSI                                  TUE 07/29/97 14:58 Page:66

   9724  1 001557   200004 474500                    LDP4    LASTBLT$,,AUTO
         1 001560   100000 236003                    LDQ     32768,DU
         1 001561   400001 256100                    ORSQ    1,,PR4

      347     9725    3                                 DUMP$CMD.DESTCODE = CODE;

   9725  1 001562   200011 235100                    LDA     CODE,,AUTO
         1 001563   400002 755100                    STA     2,,PR4

      348     9726    3                               END;

   9726  1 001564   001706 710000 1                  TRA     s:9762

      349     9727    2                            ELSE IF ( CODE = FID_CODE ) /* FID_CODE */

   9727  1 001565   000115 116007                    CMPQ    77,DL
         1 001566   001612 601000 1                  TNZ     s:9738

      350     9728    3                                 THEN DO;

      351     9729    3                                      NC$ = NC$ -> POB.SUBLK$( 0 );

   9729  1 001567   300003 236100                    LDQ     3,,PR3
         1 001570   200010 756100                    STQ     NC$,,AUTO

      352     9730    3                                      V = NC$ -> TEXT$C.SIZE;

   9730  1 001571   200010 473500                    LDP3    NC$,,AUTO
         1 001572   300000 236100                    LDQ     0,,PR3
         1 001573   000033 772000                    QRL     27
         1 001574   200012 756100                    STQ     V,,AUTO

      353     9731    3                                      IF ( V > LENGTHC( DUMP$CMD.FID.TEXT ) )

   9731  1 001575   000100 116007                    CMPQ    64,DL
         1 001576   001602 602000 1                  TNC     s:9736
PL6.E3A0      #001=DUS$BLD File=DUS$BLD.:E05TSI                                  TUE 07/29/97 14:58 Page:67

      354     9732    4                                      THEN DO;

      355     9733    4                                           S_D.ERROR = E@SYM2LONG; /* E@SYM2LONG */

   9733  1 001577   000060 235007                    LDA     48,DL
         1 001600   000013 755100                    STA     11,,PR0

      356     9734    4                                           GOTO ARET;

   9734  1 001601   002251 710000 1                  TRA     ARET

      357     9735    4                                         END;
      358     9736    3                                      DUMP$CMD.FID = NC$ -> TEXT$C;

   9736  1 001602   300000 236100                    LDQ     0,,PR3
         1 001603   000033 772000                    QRL     27
         1 001604   000001 621006                    EAX1    1,QL
         1 001605   200004 474500                    LDP4    LASTBLT$,,AUTO
         1 001606   000100 100540                    MLR     fill='000'O
         1 001607   300000 000011                    ADSC9   0,,PR3                   cn=0,n=*X1
         1 001610   400004 000100                    ADSC9   4,,PR4                   cn=0,n=64

      359     9737    3                                    END;

   9737  1 001611   001706 710000 1                  TRA     s:9762

      360     9738    2                                 ELSE IF CODE = C@ASCII /* C@ASCII */

   9738  1 001612   000127 116007                    CMPQ    87,DL
         1 001613   001620 601000 1                  TNZ     s:9740

      361     9739    2                                      THEN DUMP$CMD.ASCII_FLAG = '1'B;

   9739  1 001614   200004 474500                    LDP4    LASTBLT$,,AUTO
         1 001615   040000 236003                    LDQ     16384,DU
         1 001616   400001 256100                    ORSQ    1,,PR4
PL6.E3A0      #001=DUS$BLD File=DUS$BLD.:E05TSI                                  TUE 07/29/97 14:58 Page:68
         1 001617   001706 710000 1                  TRA     s:9762

      362     9740    2                                      ELSE IF CODE = C@PAGE_EJECT /* C@PAGE_EJECT */

   9740  1 001620   000131 116007                    CMPQ    89,DL
         1 001621   001626 601000 1                  TNZ     s:9742

      363     9741    2                                           THEN DUMP$CMD.PAGE_EJECT = '1'B;

   9741  1 001622   200004 474500                    LDP4    LASTBLT$,,AUTO
         1 001623   020000 236003                    LDQ     8192,DU
         1 001624   400001 256100                    ORSQ    1,,PR4
         1 001625   001706 710000 1                  TRA     s:9762

      364     9742    2                                           ELSE IF CODE = C@LONG /* C@LONG */

   9742  1 001626   000136 116007                    CMPQ    94,DL
         1 001627   001634 601000 1                  TNZ     s:9744

      365     9743    2                                                THEN DUMP$CMD.LONG = '1'B;

   9743  1 001630   200004 474500                    LDP4    LASTBLT$,,AUTO
         1 001631   010000 236003                    LDQ     4096,DU
         1 001632   400001 256100                    ORSQ    1,,PR4
         1 001633   001706 710000 1                  TRA     s:9762

      366     9744    2                                                ELSE IF CODE = C@EBCDIC /* C@EBCDIC */

   9744  1 001634   000167 116007                    CMPQ    119,DL
         1 001635   001642 601000 1                  TNZ     s:9747

      367     9745    2                                                     THEN DUMP$CMD.EBCDIC_FLAG = '1'B;

   9745  1 001636   200004 474500                    LDP4    LASTBLT$,,AUTO
         1 001637   004000 236003                    LDQ     2048,DU
         1 001640   400001 256100                    ORSQ    1,,PR4
         1 001641   001706 710000 1                  TRA     s:9762
PL6.E3A0      #001=DUS$BLD File=DUS$BLD.:E05TSI                                  TUE 07/29/97 14:58 Page:69

      368     9746    3                                                     ELSE DO; /* "QTSTRINGS" */

      369     9747    3                                                         NC$ = NC$ -> POB.SUBLK$( 0 );

   9747  1 001642   300003 236100                    LDQ     3,,PR3
         1 001643   200010 756100                    STQ     NC$,,AUTO

      370     9748    3                                                          V = NC$ -> TEXT$C.SIZE;

   9748  1 001644   200010 473500                    LDP3    NC$,,AUTO
         1 001645   300000 236100                    LDQ     0,,PR3
         1 001646   000033 772000                    QRL     27
         1 001647   200012 756100                    STQ     V,,AUTO

      371     9749    3                                                          IF ( V > 31 )

   9749  1 001650   000040 116007                    CMPQ    32,DL
         1 001651   001657 602000 1                  TNC     s:9754

      372     9750    4                                                          THEN DO;

      373     9751    4                                                               V = 31;

   9751  1 001652   000037 235007                    LDA     31,DL
         1 001653   200012 755100                    STA     V,,AUTO

      374     9752    4                                                               NC$ -> TEXT$C.SIZE = V;

   9752  1 001654   200012 236100                    LDQ     V,,AUTO
         1 001655   000033 736000                    QLS     27
         1 001656   300000 552140                    STBQ    0,'40'O,PR3

      375     9753    4                                                             END;

      376     9754    3                                                          CODE = ( V / 4 ) + 1;

PL6.E3A0      #001=DUS$BLD File=DUS$BLD.:E05TSI                                  TUE 07/29/97 14:58 Page:70
   9754  1 001657   200012 236100                    LDQ     V,,AUTO
         1 001660   000002 772000                    QRL     2
         1 001661   000001 036007                    ADLQ    1,DL
         1 001662   200011 756100                    STQ     CODE,,AUTO

      377     9755    3                                                          CALL DDD$BUMP_D$( CODE )
              9755                                                                   ALTRET( ARET );

   9755  1 001663   200011 633500                    EPPR3   CODE,,AUTO
         1 001664   200024 453500                    STP3    ZITEM$+4,,AUTO
         1 001665   200024 630500                    EPPR0   ZITEM$+4,,AUTO
         1 001666   000017 631400 xsym               EPPR1   B_VECTNIL+15
         1 001667   000000 701000 xent               TSX1    DDD$BUMP_D$
         1 001670   002251 702000 1                  TSX2    ARET

      378     9756    3                                                          DUMP$CMD.HEADING = '1'B;

   9756  1 001671   200004 470500                    LDP0    LASTBLT$,,AUTO
         1 001672   400000 236003                    LDQ     -131072,DU
         1 001673   000001 256100                    ORSQ    1,,PR0

      379     9757    3                                                         L$ -> TTEXT$C = NC$ -> TEXT$C
              9757                                                                   ;

   9757  1 001674   200010 471500                    LDP1    NC$,,AUTO
         1 001675   100000 236100                    LDQ     0,,PR1
         1 001676   000033 772000                    QRL     27
         1 001677   000001 620006                    EAX0    1,QL
         1 001700   200012 721100                    LXL1    V,,AUTO
         1 001701   000001 622011                    EAX2    1,X1
         1 001702   200013 473500                    LDP3    L$,,AUTO
         1 001703   000140 100540                    MLR     fill='000'O
         1 001704   100000 000010                    ADSC9   0,,PR1                   cn=0,n=*X0
         1 001705   300000 000012                    ADSC9   0,,PR3                   cn=0,n=*X2

      380     9758                                                /* Save text and size of it
      381     9759                                                   right after the dump
PL6.E3A0      #001=DUS$BLD File=DUS$BLD.:E05TSI                                  TUE 07/29/97 14:58 Page:71
      382     9760                                                   address data descriptor */
      383     9761    3                                                        END;

      384     9762    2           END;                            /* "DO IX" */

   9762  1 001706   200006 054100                    AOS     IX,,AUTO
         1 001707   200006 236100                    LDQ     IX,,AUTO
         1 001710   200005 116100                    CMPQ    NSB,,AUTO
         1 001711   001463 604400 1                  TMOZ    s:9699

      385     9763                                                /**/
      386     9764    1        RETURN;

   9764  1 001712   000000 702200 xent               TSX2  ! X66_ARET

      387     9765        %EJECT;
PL6.E3A0      #001=DUS$BLD File=DUS$BLD.:E05TSI                                  TUE 07/29/97 14:58 Page:72
      388     9766        /*F* NAME: DDS$BLD_ECHO
      389     9767             PURPOSE: TO BUILD THE ECHO COMMAND.
      390     9768             DESCRIPTION: BUILDS THE ECHO COMMAND. */
      391     9769        /*D* NAME: DDS$BLD_ECHO
      392     9770             ENTRY: DDS$BLD_ECHO
      393     9771             CALL: CALL DDS$BLD_ECHO ALTRET( ERROR );
      394     9772             ENVIRONMENT: DDS$SCAN ACTIVE
      395     9773             INPUT: NCMD$ - PTR TO "ECHO" NODE.
      396     9774             OUTPUT: COMMAND BUILT IN BUILD BUFFER.
      397     9775             SCRATCH: LOCAL AUTO ONLY.
      398     9776             DESCRIPTION: */
      399     9777                                                /**/
      400     9778    1   DDS$BLD_ECHO: ENTRY ALTRET;

   9778  1 001713   000000 700200 xent  DDS$BLD_ECHO TSX0  ! X66_AUTO_0
         1 001714   000030 000000                    ZERO    24,0

      401     9779                                                /**/
      402     9780    1        NCMD$ = S_D.NCMD$;

   9780  1 001715   000000 470400 xsym               LDP0    S_D$
         1 001716   004750 236100                    LDQ     2536,,PR0
         1 001717   200003 756100                    STQ     NCMD$,,AUTO

      403     9781    1        LASTBLT$ = S_D.LASTBLT$;

   9781  1 001720   000134 236100                    LDQ     92,,PR0
         1 001721   200004 756100                    STQ     LASTBLT$,,AUTO

      404     9782    1        CALL DDS$ATTDIRA( SIZEW( ECHO$CMD ), C_ECHO ) ALTRET( ARET ); /* C_ECHO */

   9782  1 001722   000007 630400 2                  EPPR0   7
         1 001723   000020 631400 xsym               EPPR1   B_VECTNIL+16
         1 001724   000000 701000 xent               TSX1    DDS$ATTDIRA
         1 001725   002251 702000 1                  TSX2    ARET

      405     9783                                                /**/
PL6.E3A0      #001=DUS$BLD File=DUS$BLD.:E05TSI                                  TUE 07/29/97 14:58 Page:73
      406     9784    1        RETURN;

   9784  1 001726   000000 702200 xent               TSX2  ! X66_ARET

      407     9785        %EJECT;
PL6.E3A0      #001=DUS$BLD File=DUS$BLD.:E05TSI                                  TUE 07/29/97 14:58 Page:74
      408     9786        /*F* NAME: DDS$BLD_OUTPUT
      409     9787             PURPOSE: TO BUILD THE OUTPUT COMMAND.
      410     9788             DESCRIPTION: BUILDS THE OUTPUT COMMAND. */
      411     9789        /*D* NAME: DDS$BLD_OUTPUT
      412     9790             ENTRY: DDS$BLD_OUTPUT
      413     9791             CALL: CALL DDS$BLD_OUTPUT ALTRET( ERROR );
      414     9792             ENVIRONMENT: DDS$SCAN ACTIVE
      415     9793             INPUT: NCMD$ - PTR TO "OUTPUT" NODE.
      416     9794             OUTPUT: COMMAND BUILT IN BUILD BUFFER.
      417     9795             SCRATCH: LOCAL AUTO ONLY.
      418     9796             DESCRIPTION: */
      419     9797                                                /**/
      420     9798    1   DDS$BLD_OUTPUT: ENTRY ALTRET;

   9798  1 001727   000000 700200 xent  DDS$BLD_OUT* TSX0  ! X66_AUTO_0
         1 001730   000030 000000                    ZERO    24,0

      421     9799                                                /**/
      422     9800    1        NCMD$ = S_D.NCMD$;

   9800  1 001731   000000 470400 xsym               LDP0    S_D$
         1 001732   004750 236100                    LDQ     2536,,PR0
         1 001733   200003 756100                    STQ     NCMD$,,AUTO

      423     9801    1        LASTBLT$ = S_D.LASTBLT$;

   9801  1 001734   000134 236100                    LDQ     92,,PR0
         1 001735   200004 756100                    STQ     LASTBLT$,,AUTO

      424     9802    1        CALL DDS$ATTDIRA( SIZEW( OUTPUT$CMD ), C_OUTPUT ) ALTRET( ARET );
              9802                 /* C_OUTPUT */

   9802  1 001736   000013 630400 2                  EPPR0   11
         1 001737   000020 631400 xsym               EPPR1   B_VECTNIL+16
         1 001740   000000 701000 xent               TSX1    DDS$ATTDIRA
         1 001741   002251 702000 1                  TSX2    ARET

PL6.E3A0      #001=DUS$BLD File=DUS$BLD.:E05TSI                                  TUE 07/29/97 14:58 Page:75
      425     9803        /* Defaults */
      426     9804    1        OUTPUT$CMD.CODE = C@ON;            /* C@ON */

   9804  1 001742   200004 470500                    LDP0    LASTBLT$,,AUTO
         1 001743   606000 236007                    LDQ     -62464,DL
         1 001744   000001 552110                    STBQ    1,'10'O,PR0

      427     9805    1        OUTPUT$CMD.FID = ME;

   9805  1 001745   000100 100400                    MLR     fill='000'O
         1 001746   000000 000003 0                  ADSC9   ME                       cn=0,n=3
         1 001747   000010 000100                    ADSC9   8,,PR0                   cn=0,n=64

      428     9806        /* Specified options */
      429     9807    1        NSB = NCMD$ -> POB.NSB - 1;

   9807  1 001750   200003 471500                    LDP1    NCMD$,,AUTO
         1 001751   100001 236100                    LDQ     1,,PR1
         1 001752   000022 772000                    QRL     18
         1 001753   000001 136007                    SBLQ    1,DL
         1 001754   200005 756100                    STQ     NSB,,AUTO

      430     9808    2        DO IX = 0 TO NSB;

   9808  1 001755   200006 450100                    STZ     IX,,AUTO
         1 001756   002035 710000 1                  TRA     s:9829+1

      431     9809    2             NC$ = NCMD$ -> POB.SUBLK$ ( IX );

   9809  1 001757   200003 470500                    LDP0    NCMD$,,AUTO
         1 001760   200006 720100                    LXL0    IX,,AUTO
         1 001761   000003 236110                    LDQ     3,X0,PR0
         1 001762   200010 756100                    STQ     NC$,,AUTO

      432     9810    2             CODE = NC$ -> POB.CODE;

   9810  1 001763   200010 471500                    LDP1    NC$,,AUTO
PL6.E3A0      #001=DUS$BLD File=DUS$BLD.:E05TSI                                  TUE 07/29/97 14:58 Page:76
         1 001764   100000 236100                    LDQ     0,,PR1
         1 001765   777777 376007                    ANQ     -1,DL
         1 001766   200011 756100                    STQ     CODE,,AUTO

      433     9811    2             IF ( CODE >= C@ON ) AND ( CODE <= C@INTO ) /* C@ON, C@INTO */

   9811  1 001767   000606 116007                    CMPQ    390,DL
         1 001770   001777 602000 1                  TNC     s:9813
         1 001771   000611 116007                    CMPQ    393,DL
         1 001772   001777 603000 1                  TRC     s:9813

      434     9812    2             THEN OUTPUT$CMD.CODE = CODE;

   9812  1 001773   200004 473500                    LDP3    LASTBLT$,,AUTO
         1 001774   000011 736000                    QLS     9
         1 001775   300001 552110                    STBQ    1,'10'O,PR3
         1 001776   002034 710000 1                  TRA     s:9829

      435     9813    2             ELSE IF ( CODE = FID_CODE )   /* FID_CODE */

   9813  1 001777   000115 116007                    CMPQ    77,DL
         1 002000   002025 601000 1                  TNZ     s:9825

      436     9814    3                  THEN DO;

      437     9815    3                       NC$ = NC$ -> POB.SUBLK$( 0 );

   9815  1 002001   100003 236100                    LDQ     3,,PR1
         1 002002   200010 756100                    STQ     NC$,,AUTO

      438     9816    3                       V = NC$ -> TEXT$C.SIZE;

   9816  1 002003   200010 471500                    LDP1    NC$,,AUTO
         1 002004   100000 236100                    LDQ     0,,PR1
         1 002005   000033 772000                    QRL     27
         1 002006   200012 756100                    STQ     V,,AUTO

PL6.E3A0      #001=DUS$BLD File=DUS$BLD.:E05TSI                                  TUE 07/29/97 14:58 Page:77
      439     9817    3                       IF ( V > LENGTHC( OUTPUT$CMD.FID.TEXT ) )

   9817  1 002007   000100 116007                    CMPQ    64,DL
         1 002010   002015 602000 1                  TNC     s:9822

      440     9818    4                       THEN DO;

      441     9819    4                            S_D.ERROR = E@SYM2LONG; /* E@SYM2LONG */

   9819  1 002011   000060 235007                    LDA     48,DL
         1 002012   000000 473400 xsym               LDP3    S_D$
         1 002013   300013 755100                    STA     11,,PR3

      442     9820    4                            GOTO ARET;

   9820  1 002014   002251 710000 1                  TRA     ARET

      443     9821    4                          END;
      444     9822    3                       OUTPUT$CMD.FID = NC$ -> TEXT$C;

   9822  1 002015   100000 236100                    LDQ     0,,PR1
         1 002016   000033 772000                    QRL     27
         1 002017   000001 621006                    EAX1    1,QL
         1 002020   200004 473500                    LDP3    LASTBLT$,,AUTO
         1 002021   000100 100540                    MLR     fill='000'O
         1 002022   100000 000011                    ADSC9   0,,PR1                   cn=0,n=*X1
         1 002023   300010 000100                    ADSC9   8,,PR3                   cn=0,n=64

      445     9823    3                     END;

   9823  1 002024   002034 710000 1                  TRA     s:9829

      446     9824    3                  ELSE DO;

      447     9825    3                       S_D.ERROR = E@DELBUG; /* E@DELBUG */

   9825  1 002025   000766 235007                    LDA     502,DL
PL6.E3A0      #001=DUS$BLD File=DUS$BLD.:E05TSI                                  TUE 07/29/97 14:58 Page:78
         1 002026   000000 473400 xsym               LDP3    S_D$
         1 002027   300013 755100                    STA     11,,PR3

      448     9826    3                       CALL DDE$ERROR;

   9826  1 002030   000002 631400 xsym               EPPR1   B_VECTNIL+2
         1 002031   000000 701000 xent               TSX1    DDE$ERROR
         1 002032   000000 011000                    NOP     0

      449     9827    3                       GOTO ARET;

   9827  1 002033   002251 710000 1                  TRA     ARET

      450     9828    3                     END;
      451     9829    2           END;

   9829  1 002034   200006 054100                    AOS     IX,,AUTO
         1 002035   200006 236100                    LDQ     IX,,AUTO
         1 002036   200005 116100                    CMPQ    NSB,,AUTO
         1 002037   001757 604400 1                  TMOZ    s:9809

      452     9830                                                /**/
      453     9831    1        RETURN;

   9831  1 002040   000000 702200 xent               TSX2  ! X66_ARET

      454     9832        %EJECT;
PL6.E3A0      #001=DUS$BLD File=DUS$BLD.:E05TSI                                  TUE 07/29/97 14:58 Page:79
      455     9833        /*F* NAME: DDS$BLD_READ
      456     9834             PURPOSE: TO BUILD THE READ COMMAND.
      457     9835             DESCRIPTION: BUILDS THE READ COMMAND. */
      458     9836        /*D* NAME: DDS$BLD_READ
      459     9837             ENTRY: DDS$BLD_READ
      460     9838             CALL: CALL DDS$BLD_READ ALTRET( ERROR );
      461     9839             ENVIRONMENT: DDS$SCAN ACTIVE
      462     9840             INPUT: NCMD$ - PTR TO "READ" NODE.
      463     9841             OUTPUT: COMMAND BUILT IN BUILD BUFFER.
      464     9842             SCRATCH: LOCAL AUTO ONLY.
      465     9843             DESCRIPTION: */
      466     9844                                                /**/
      467     9845    1   DDS$BLD_READ: ENTRY ALTRET;

   9845  1 002041   000000 700200 xent  DDS$BLD_READ TSX0  ! X66_AUTO_0
         1 002042   000030 000000                    ZERO    24,0

      468     9846                                                /**/
      469     9847    1        NCMD$ = S_D.NCMD$;

   9847  1 002043   000000 470400 xsym               LDP0    S_D$
         1 002044   004750 236100                    LDQ     2536,,PR0
         1 002045   200003 756100                    STQ     NCMD$,,AUTO

      470     9848    1        LASTBLT$ = S_D.LASTBLT$;

   9848  1 002046   000134 236100                    LDQ     92,,PR0
         1 002047   200004 756100                    STQ     LASTBLT$,,AUTO

      471     9849    1        CALL DDS$ATTDIRA( SIZEW( READ$CMD ), C_READ ) ALTRET( ARET ); /* C_READ */

   9849  1 002050   000016 630400 2                  EPPR0   14
         1 002051   000020 631400 xsym               EPPR1   B_VECTNIL+16
         1 002052   000000 701000 xent               TSX1    DDS$ATTDIRA
         1 002053   002251 702000 1                  TSX2    ARET

      472     9850        /* Defaults */
PL6.E3A0      #001=DUS$BLD File=DUS$BLD.:E05TSI                                  TUE 07/29/97 14:58 Page:80
      473     9851    1        IF S_D.BATCH

   9851  1 002054   000000 470400 xsym               LDP0    S_D$
         1 002055   004625 234100                    SZN     2453,,PR0
         1 002056   002064 605000 1                  TPL     s:9853

      474     9852    1        THEN READ$CMD.FID = ME;

   9852  1 002057   200004 471500                    LDP1    LASTBLT$,,AUTO
         1 002060   000100 100400                    MLR     fill='000'O
         1 002061   000000 000003 0                  ADSC9   ME                       cn=0,n=3
         1 002062   100010 000100                    ADSC9   8,,PR1                   cn=0,n=64
         1 002063   002070 710000 1                  TRA     s:9854

      475     9853    1        ELSE READ$CMD.FID = UC;

   9853  1 002064   200004 471500                    LDP1    LASTBLT$,,AUTO
         1 002065   000100 100400                    MLR     fill='000'O
         1 002066   000001 000003 0                  ADSC9   UC                       cn=0,n=3
         1 002067   100010 000100                    ADSC9   8,,PR1                   cn=0,n=64

      476     9854    1        REC = -1;

   9854  1 002070   000001 335007                    LCA     1,DL
         1 002071   200014 755100                    STA     REC,,AUTO

      477     9855        /* Specified options */
      478     9856    1        NSB = NCMD$ -> POB.NSB - 1;

   9856  1 002072   200003 473500                    LDP3    NCMD$,,AUTO
         1 002073   300001 236100                    LDQ     1,,PR3
         1 002074   000022 772000                    QRL     18
         1 002075   000001 136007                    SBLQ    1,DL
         1 002076   200005 756100                    STQ     NSB,,AUTO

      479     9857    2        DO IX = 0 TO NSB;

PL6.E3A0      #001=DUS$BLD File=DUS$BLD.:E05TSI                                  TUE 07/29/97 14:58 Page:81
   9857  1 002077   200006 450100                    STZ     IX,,AUTO
         1 002100   002217 710000 1                  TRA     s:9899+1

      480     9858    2             NC$ = NCMD$ -> POB.SUBLK$ ( IX );

   9858  1 002101   200003 470500                    LDP0    NCMD$,,AUTO
         1 002102   200006 720100                    LXL0    IX,,AUTO
         1 002103   000003 236110                    LDQ     3,X0,PR0
         1 002104   200010 756100                    STQ     NC$,,AUTO

      481     9859    2             CODE = NC$ -> POB.CODE;

   9859  1 002105   200010 471500                    LDP1    NC$,,AUTO
         1 002106   100000 236100                    LDQ     0,,PR1
         1 002107   777777 376007                    ANQ     -1,DL
         1 002110   200011 756100                    STQ     CODE,,AUTO

      482     9860    2             IF ( CODE = FID_CODE )        /* FID_CODE */

   9860  1 002111   000115 116007                    CMPQ    77,DL
         1 002112   002137 601000 1                  TNZ     s:9871

      483     9861    3             THEN DO;

      484     9862    3                  NC$ = NC$ -> POB.SUBLK$( 0 );

   9862  1 002113   100003 236100                    LDQ     3,,PR1
         1 002114   200010 756100                    STQ     NC$,,AUTO

      485     9863    3                  V = NC$ -> TEXT$C.SIZE;

   9863  1 002115   200010 471500                    LDP1    NC$,,AUTO
         1 002116   100000 236100                    LDQ     0,,PR1
         1 002117   000033 772000                    QRL     27
         1 002120   200012 756100                    STQ     V,,AUTO

      486     9864    3                  IF ( V > LENGTHC( READ$CMD.FID.TEXT ) )
PL6.E3A0      #001=DUS$BLD File=DUS$BLD.:E05TSI                                  TUE 07/29/97 14:58 Page:82

   9864  1 002121   000100 116007                    CMPQ    64,DL
         1 002122   002127 602000 1                  TNC     s:9869

      487     9865    4                  THEN DO;

      488     9866    4                       S_D.ERROR = E@SYM2LONG; /* E@SYM2LONG */

   9866  1 002123   000060 235007                    LDA     48,DL
         1 002124   000000 473400 xsym               LDP3    S_D$
         1 002125   300013 755100                    STA     11,,PR3

      489     9867    4                       GOTO ARET;

   9867  1 002126   002251 710000 1                  TRA     ARET

      490     9868    4                     END;
      491     9869    3                  READ$CMD.FID = NC$ -> TEXT$C;

   9869  1 002127   100000 236100                    LDQ     0,,PR1
         1 002130   000033 772000                    QRL     27
         1 002131   000001 621006                    EAX1    1,QL
         1 002132   200004 473500                    LDP3    LASTBLT$,,AUTO
         1 002133   000100 100540                    MLR     fill='000'O
         1 002134   100000 000011                    ADSC9   0,,PR1                   cn=0,n=*X1
         1 002135   300010 000100                    ADSC9   8,,PR3                   cn=0,n=64

      492     9870    3                END;

   9870  1 002136   002216 710000 1                  TRA     s:9899

      493     9871    2             ELSE IF ( CODE = C@PERIOD )   /* C@PERIOD */

   9871  1 002137   000120 116007                    CMPQ    80,DL
         1 002140   002155 601000 1                  TNZ     s:9878

      494     9872    3                  THEN DO;
PL6.E3A0      #001=DUS$BLD File=DUS$BLD.:E05TSI                                  TUE 07/29/97 14:58 Page:83

      495     9873    3                       READ$CMD.RECEDIT = '1'B;

   9873  1 002141   200004 473500                    LDP3    LASTBLT$,,AUTO
         1 002142   400000 236003                    LDQ     -131072,DU
         1 002143   300001 256100                    ORSQ    1,,PR3

      496     9874    3                       IF REC = -1

   9874  1 002144   200014 235100                    LDA     REC,,AUTO
         1 002145   000027 115000 xsym               CMPA    B_VECTNIL+23
         1 002146   002151 601000 1                  TNZ     s:9876

      497     9875    3                       THEN REC = 0;

   9875  1 002147   200014 450100                    STZ     REC,,AUTO
         1 002150   002216 710000 1                  TRA     s:9899

      498     9876    3                       ELSE REC = REC * 1000;

   9876  1 002151   200014 236100                    LDQ     REC,,AUTO
         1 002152   001750 402007                    MPY     1000,DL
         1 002153   200014 756100                    STQ     REC,,AUTO

      499     9877    3                     END;

   9877  1 002154   002216 710000 1                  TRA     s:9899

      500     9878    2                  ELSE IF ( CODE = DEC_CODE ) /* DEC_CODE */

   9878  1 002155   000010 116007                    CMPQ    8,DL
         1 002156   002207 601000 1                  TNZ     s:9895

      501     9879    3                       THEN DO;

      502     9880    3                            CALL DDS$DECIMAL( NC$, V ) ALTRET( ARET );

PL6.E3A0      #001=DUS$BLD File=DUS$BLD.:E05TSI                                  TUE 07/29/97 14:58 Page:84
   9880  1 002157   200012 633500                    EPPR3   V,,AUTO
         1 002160   200025 453500                    STP3    ZITEM$+5,,AUTO
         1 002161   200010 634500                    EPPR4   NC$,,AUTO
         1 002162   200024 454500                    STP4    ZITEM$+4,,AUTO
         1 002163   200024 630500                    EPPR0   ZITEM$+4,,AUTO
         1 002164   000020 631400 xsym               EPPR1   B_VECTNIL+16
         1 002165   000000 701000 xent               TSX1    DDS$DECIMAL
         1 002166   002251 702000 1                  TSX2    ARET

      503     9881    3                            IF READ$CMD.RECEDIT

   9881  1 002167   200004 470500                    LDP0    LASTBLT$,,AUTO
         1 002170   000001 234100                    SZN     1,,PR0
         1 002171   002204 605000 1                  TPL     s:9891

      504     9882    4                            THEN DO;

      505     9883    4                                 REC = REC + V;

   9883  1 002172   200014 236100                    LDQ     REC,,AUTO
         1 002173   200012 036100                    ADLQ    V,,AUTO
         1 002174   200014 756100                    STQ     REC,,AUTO

      506     9884    4                                 IF ( V > 999 )

   9884  1 002175   200012 235100                    LDA     V,,AUTO
         1 002176   001750 115007                    CMPA    1000,DL
         1 002177   002216 602000 1                  TNC     s:9899

      507     9885    5                                 THEN DO;

      508     9886    5                                      S_D.ERROR = E@BADEDITKEY; /* E@BADEDITKEY */

   9886  1 002200   000215 235007                    LDA     141,DL
         1 002201   000000 471400 xsym               LDP1    S_D$
         1 002202   100013 755100                    STA     11,,PR1

PL6.E3A0      #001=DUS$BLD File=DUS$BLD.:E05TSI                                  TUE 07/29/97 14:58 Page:85
      509     9887    5                                      GOTO ARET;

   9887  1 002203   002251 710000 1                  TRA     ARET

      510     9888    5                                    END;
      511     9889    4                               END;
      512     9890    4                            ELSE DO;

      513     9891    4                                 REC = V;

   9891  1 002204   200012 235100                    LDA     V,,AUTO
         1 002205   200014 755100                    STA     REC,,AUTO

      514     9892    4                               END;

      515     9893    3                          END;

   9893  1 002206   002216 710000 1                  TRA     s:9899

      516     9894    3                       ELSE DO;

      517     9895    3                            S_D.ERROR = E@DELBUG; /* E@DELBUG */

   9895  1 002207   000766 235007                    LDA     502,DL
         1 002210   000000 473400 xsym               LDP3    S_D$
         1 002211   300013 755100                    STA     11,,PR3

      518     9896    3                            CALL DDE$ERROR;

   9896  1 002212   000002 631400 xsym               EPPR1   B_VECTNIL+2
         1 002213   000000 701000 xent               TSX1    DDE$ERROR
         1 002214   000000 011000                    NOP     0

      519     9897    3                            GOTO ARET;

   9897  1 002215   002251 710000 1                  TRA     ARET

PL6.E3A0      #001=DUS$BLD File=DUS$BLD.:E05TSI                                  TUE 07/29/97 14:58 Page:86
      520     9898    3                          END;
      521     9899    2           END;

   9899  1 002216   200006 054100                    AOS     IX,,AUTO
         1 002217   200006 236100                    LDQ     IX,,AUTO
         1 002220   200005 116100                    CMPQ    NSB,,AUTO
         1 002221   002101 604400 1                  TMOZ    s:9858

      522     9900    1        IF REC = 0

   9900  1 002222   200014 235100                    LDA     REC,,AUTO
         1 002223   002230 601000 1                  TNZ     s:9902

      523     9901    1        THEN READ$CMD.RECEDIT = '1'B;

   9901  1 002224   200004 470500                    LDP0    LASTBLT$,,AUTO
         1 002225   400000 236003                    LDQ     -131072,DU
         1 002226   000001 256100                    ORSQ    1,,PR0
         1 002227   002246 710000 1                  TRA     s:9909

      524     9902    1        ELSE IF REC = -1

   9902  1 002230   000027 115000 xsym               CMPA    B_VECTNIL+23
         1 002231   002235 601000 1                  TNZ     s:9904

      525     9903    1             THEN REC = 1;

   9903  1 002232   000001 235007                    LDA     1,DL
         1 002233   200014 755100                    STA     REC,,AUTO
         1 002234   002246 710000 1                  TRA     s:9909

      526     9904    1             ELSE IF ( READ$CMD.RECEDIT ) AND ( REC > 99999999 )

   9904  1 002235   200004 470500                    LDP0    LASTBLT$,,AUTO
         1 002236   000001 234100                    SZN     1,,PR0
         1 002237   002246 605000 1                  TPL     s:9909
         1 002240   000020 115000 2                  CMPA    16
PL6.E3A0      #001=DUS$BLD File=DUS$BLD.:E05TSI                                  TUE 07/29/97 14:58 Page:87
         1 002241   002246 604400 1                  TMOZ    s:9909

      527     9905    2                  THEN DO;

      528     9906    2                       S_D.ERROR = E@BADEDITKEY; /* E@BADEDITKEY */

   9906  1 002242   000215 235007                    LDA     141,DL
         1 002243   000000 471400 xsym               LDP1    S_D$
         1 002244   100013 755100                    STA     11,,PR1

      529     9907    2                       GOTO ARET;

   9907  1 002245   002251 710000 1                  TRA     ARET

      530     9908    2                     END;
      531     9909    1        READ$CMD.REC = REC;

   9909  1 002246   200004 470500                    LDP0    LASTBLT$,,AUTO
         1 002247   000007 755100                    STA     7,,PR0

      532     9910                                                /**/
      533     9911    1        RETURN;

   9911  1 002250   000000 702200 xent               TSX2  ! X66_ARET

      534     9912                                                /**/
      535     9913    1   ARET:
      536     9914    1        ALTRETURN;

   9914  1 002251   000000 702200 xent  ARET         TSX2  ! X66_AALT

ME
 Sect OctLoc
   0     000   002115 105***                                                    .ME.

UC
 Sect OctLoc
PL6.E3A0      #001=DUS$BLD File=DUS$BLD.:E05TSI                                  TUE 07/29/97 14:58 Page:88
   0     001   002125 103***                                                    .UC.

(unnamed)
 Sect OctLoc
   2     000   000007 006000   737777 777777   000000 000024   000002 006000    ................
   2     004   000011 006000   000100 663100   000000 000041   000004 006000    .....@.@...!....
   2     010   000006 006000   000000 000030   000000 000044   000011 006000    ...........$....
   2     014   000012 006000   000000 000052   000011 006000   000015 006000    .......*........
   2     020   000575 360377                                                    ....
      537     9915                                                /**/
      538     9916    1   END DUS$BLD;

PL6.E3A0      #001=DUS$BLD File=DUS$BLD.:E05TSI                                  TUE 07/29/97 14:58 Page:89
--  Include file information  --

   DD_SD_M.:E05TOU  is referenced.
   XUH_MACRO_C.:E05TOU  is referenced.
   DD_SRTN_C.:E05TOU  is referenced.
   DD_ACODE_C.:E05TOU  is referenced.
   DD_ICODE_C.:E05TOU  is referenced.
   DD$DITEM.:E05TOU  cannot be made into a system file and is referenced.
   XU_SUBS_C.:E05TOU  is referenced.
   XU_MACRO_C.:E05TOU  is referenced.
   DD_SUBS_C.:E05TOU  is referenced.
   DD_PSUBS_C.:E05TOU  is referenced.
   DD_ERR_C.:E05TOU  is referenced.
   DD$BASED.:E05TOU  is referenced.
   B$JIT_C.:E05TOU  was found in the system file and is never referenced.
   CP_6_C.:E05TOU  was found in the system file and is never referenced.
      No diagnostics issued in procedure DUS$BLD.

   Procedure DUS$BLD requires 1194 words for executable code.
   Procedure DUS$BLD requires 24 words of local(AUTO) storage.

    No errors detected in file DUS$BLD.:E05TSI    .
PL6.E3A0      #001=DUS$BLD File=DUS$BLD.:E05TSI                                  TUE 07/29/97 14:58 Page:90
          *** CROSS REFERENCE LISTING ***
**     DENOTES     IDENTIFIER DEFINITION
<<                 IDENTIFIER'S VALUE SET
>>                 IDENTIFIER'S VALUE USED
<>                 IDENTIFIER SET AND/OR USED
--                 IDENTIFIER REFERENCED
PL6.E3A0      #001=DUS$BLD File=DUS$BLD.:E05TSI                                  TUE 07/29/97 14:58 Page:91
          MINI XREF LISTING

ARET
      9914**LABEL    9490--CALLALT  9518--GOTO     9529--GOTO     9534--GOTO     9560--GOTO     9565--GOTO
      9579--GOTO     9584--GOTO     9603--GOTO     9634--GOTO     9639--GOTO     9649--GOTO     9654--GOTO
      9666--GOTO     9672--GOTO     9695--CALLALT  9704--CALLALT  9709--GOTO     9714--CALLALT  9734--GOTO
      9755--CALLALT  9782--CALLALT  9802--CALLALT  9820--GOTO     9827--GOTO     9849--CALLALT  9867--GOTO
      9880--CALLALT  9887--GOTO     9897--GOTO     9907--GOTO
CODE
      5679**DCL      9494<<ASSIGN   9495>>DOCASE   9701<<ASSIGN   9702>>IF       9712>>IF       9717>>IF
      9717>>IF       9720>>ASSIGN   9722>>IF       9722>>IF       9725>>ASSIGN   9727>>IF       9738>>IF
      9740>>IF       9742>>IF       9744>>IF       9754<<ASSIGN   9755<>CALL     9810<<ASSIGN   9811>>IF
      9811>>IF       9812>>ASSIGN   9813>>IF       9859<<ASSIGN   9860>>IF       9871>>IF       9878>>IF
DDD$BUMP_D$
      9451**DCL-ENT  9755--CALL
DDD$SIMEXP
      9455**DCL-ENT  9714--CALL
DDE$ERROR
      9452**DCL-ENT  9671--CALL     9826--CALL     9896--CALL
DDS$ATTDIRA
      9453**DCL-ENT  9490--CALL     9695--CALL     9782--CALL     9802--CALL     9849--CALL
DDS$DECIMAL
      9454**DCL-ENT  9880--CALL
DDS$VREFCOM
      9456**DCL-ENT  9704--CALL
DUMP$CMD
      5706**DCL      9695--CALL
DUMP$CMD.ASCII_FLAG
      5713**DCL      9739<<ASSIGN
DUMP$CMD.DEST
      5712**DCL      9724<<ASSIGN
DUMP$CMD.DESTCODE
      5724**DCL      9725<<ASSIGN
DUMP$CMD.EBCDIC_FLAG
PL6.E3A0      #001=DUS$BLD File=DUS$BLD.:E05TSI                                  TUE 07/29/97 14:58 Page:92
      5716**DCL      9745<<ASSIGN
DUMP$CMD.FID
      5726**DCL      9736<<ASSIGN
DUMP$CMD.FID.TEXT
      5728**DCL      9731--IF
DUMP$CMD.FORMAT
      5711**DCL      9719<<ASSIGN
DUMP$CMD.FORMATCODE
      5719**DCL      9720<<ASSIGN
DUMP$CMD.HEADING
      5710**DCL      9756<<ASSIGN
DUMP$CMD.LONG
      5715**DCL      9743<<ASSIGN
DUMP$CMD.NUM
      5725**DCL      9697<<ASSIGN   9715<<ASSIGN
DUMP$CMD.PAGE_EJECT
      5714**DCL      9741<<ASSIGN
DUMP$CMD.VREF
      5717**DCL      9705<<ASSIGN
ECHO$CMD
      5736**DCL      9782--CALL
ECHO$CMD.UNUSED
      5740**DCL      5741--REDEF    5745--REDEF
FPRG$CONTEXT.XDELTA
      5812**DCL      9504>>IF       9515>>IF       9526>>IF       9557>>IF       9576>>IF       9600>>IF
      9608>>IF       9631>>IF       9646>>IF       9663>>IF
IX
      5675**DCL      9492<<DOINDEX  9493>>ASSIGN   9698<<DOINDEX  9700>>ASSIGN   9808<<DOINDEX  9809>>ASSIGN
      9857<<DOINDEX  9858>>ASSIGN
KEEP$CMD
      5687**DCL      9490--CALL
KEEP$CMD.ALL
      5691**DCL      9500<<ASSIGN
KEEP$CMD.FPRG
      5693**DCL      9660<<ASSIGN
KEEP$CMD.FPRG_RES
PL6.E3A0      #001=DUS$BLD File=DUS$BLD.:E05TSI                                  TUE 07/29/97 14:58 Page:93
      5703**DCL      9661<<ASSIGN
KEEP$CMD.HOST
      5692**DCL      9658<<ASSIGN
KEEP$CMD.L6_OPTARRAY
      5695**DCL      9506<<ASSIGN
KEEP$CMD.L6_OPTIONS
      5694**DCL      5695--REDEF    9505<<ASSIGN   9514<<ASSIGN   9525<<ASSIGN   9556<<ASSIGN   9575<<ASSIGN
      9605<<ASSIGN   9610<<ASSIGN   9630<<ASSIGN   9645<<ASSIGN   9668<<ASSIGN
KEEP$CMD.OPTARRY
      5701**DCL      5702--REDEF    9502<<ASSIGN   9510<<ASSIGN   9511<<ASSIGN   9523<<ASSIGN   9538<<ASSIGN
      9540<<ASSIGN   9542<<ASSIGN   9544<<ASSIGN   9545<<ASSIGN   9546<<ASSIGN   9547<<ASSIGN   9548<<ASSIGN
      9549<<ASSIGN   9550<<ASSIGN   9551<<ASSIGN   9554<<ASSIGN   9569<<ASSIGN   9571<<ASSIGN   9573<<ASSIGN
      9587<<ASSIGN   9589<<ASSIGN   9593<<ASSIGN   9594<<ASSIGN   9595<<ASSIGN   9596<<ASSIGN   9597<<ASSIGN
      9612<<ASSIGN   9614<<ASSIGN   9616<<ASSIGN   9618<<ASSIGN   9619<<ASSIGN   9620<<ASSIGN   9622<<ASSIGN
      9624<<ASSIGN   9626<<ASSIGN   9628<<ASSIGN   9643<<ASSIGN
KEEP$CMD.OPTIONS
      5702**DCL      9499<<ASSIGN
L$
      5681**DCL      9699<<ASSIGN   9706>>IF       9757>>ASSIGN
LASTBLT$
      5673**DCL      5687--IMP-PTR  5706--IMP-PTR  5736--IMP-PTR  5751--IMP-PTR  5775--IMP-PTR  9489<<ASSIGN
      9499>>ASSIGN   9500>>ASSIGN   9502>>ASSIGN   9505>>ASSIGN   9506>>ASSIGN   9510>>ASSIGN   9511>>ASSIGN
      9514>>ASSIGN   9523>>ASSIGN   9525>>ASSIGN   9538>>ASSIGN   9540>>ASSIGN   9542>>ASSIGN   9544>>ASSIGN
      9545>>ASSIGN   9546>>ASSIGN   9547>>ASSIGN   9548>>ASSIGN   9549>>ASSIGN   9550>>ASSIGN   9551>>ASSIGN
      9554>>ASSIGN   9556>>ASSIGN   9569>>ASSIGN   9571>>ASSIGN   9573>>ASSIGN   9575>>ASSIGN   9587>>ASSIGN
      9589>>ASSIGN   9593>>ASSIGN   9594>>ASSIGN   9595>>ASSIGN   9596>>ASSIGN   9597>>ASSIGN   9605>>ASSIGN
      9610>>ASSIGN   9612>>ASSIGN   9614>>ASSIGN   9616>>ASSIGN   9618>>ASSIGN   9619>>ASSIGN   9620>>ASSIGN
      9622>>ASSIGN   9624>>ASSIGN   9626>>ASSIGN   9628>>ASSIGN   9630>>ASSIGN   9643>>ASSIGN   9645>>ASSIGN
      9658>>ASSIGN   9660>>ASSIGN   9661>>ASSIGN   9668>>ASSIGN   9694<<ASSIGN   9697>>ASSIGN   9705>>ASSIGN
      9715>>ASSIGN   9719>>ASSIGN   9720>>ASSIGN   9724>>ASSIGN   9725>>ASSIGN   9736>>ASSIGN   9739>>ASSIGN
      9741>>ASSIGN   9743>>ASSIGN   9745>>ASSIGN   9756>>ASSIGN   9781<<ASSIGN   9801<<ASSIGN   9804>>ASSIGN
      9805>>ASSIGN   9812>>ASSIGN   9822>>ASSIGN   9848<<ASSIGN   9852>>ASSIGN   9853>>ASSIGN   9869>>ASSIGN
      9873>>ASSIGN   9881>>IF       9901>>ASSIGN   9904>>IF       9909>>ASSIGN
ME
      9444**DCL      9805>>ASSIGN   9852>>ASSIGN
ME.TEXT
PL6.E3A0      #001=DUS$BLD File=DUS$BLD.:E05TSI                                  TUE 07/29/97 14:58 Page:94
      9446**DCL      9445--DCLINIT
NC$
      5678**DCL      9493<<ASSIGN   9494>>ASSIGN   9661>>ASSIGN   9661>>ASSIGN   9700<<ASSIGN   9701>>ASSIGN
      9704<>CALL     9714<>CALL     9729<<ASSIGN   9729>>ASSIGN   9730>>ASSIGN   9736>>ASSIGN   9736>>ASSIGN
      9747<<ASSIGN   9747>>ASSIGN   9748>>ASSIGN   9752>>ASSIGN   9757>>ASSIGN   9757>>ASSIGN   9809<<ASSIGN
      9810>>ASSIGN   9815<<ASSIGN   9815>>ASSIGN   9816>>ASSIGN   9822>>ASSIGN   9822>>ASSIGN   9858<<ASSIGN
      9859>>ASSIGN   9862<<ASSIGN   9862>>ASSIGN   9863>>ASSIGN   9869>>ASSIGN   9869>>ASSIGN   9880<>CALL
NCMD$
      5672**DCL      9488<<ASSIGN   9491>>ASSIGN   9493>>ASSIGN   9693<<ASSIGN   9696>>ASSIGN   9700>>ASSIGN
      9780<<ASSIGN   9800<<ASSIGN   9807>>ASSIGN   9809>>ASSIGN   9847<<ASSIGN   9856>>ASSIGN   9858>>ASSIGN
NSB
      5674**DCL      9491<<ASSIGN   9492>>DOINDEX  9696<<ASSIGN   9698>>DOINDEX  9807<<ASSIGN   9808>>DOINDEX
      9856<<ASSIGN   9857>>DOINDEX
OUTPUT$CMD
      5751**DCL      9802--CALL
OUTPUT$CMD.CODE
      5760**DCL      9804<<ASSIGN   9812<<ASSIGN
OUTPUT$CMD.FID
      5770**DCL      9805<<ASSIGN   9822<<ASSIGN
OUTPUT$CMD.FID.TEXT
      5772**DCL      9817--IF
OUTPUT$CMD.GOTUTS
      5755**DCL      5756--REDEF
OUTPUT$CMD.UTS
      5764**DCL      5765--REDEF
POB.CODE
      5875**DCL      9494>>ASSIGN   9701>>ASSIGN   9810>>ASSIGN   9859>>ASSIGN
POB.NSB
      5879**DCL      9491>>ASSIGN   9696>>ASSIGN   9807>>ASSIGN   9856>>ASSIGN
POB.SUBLK$
      5900**DCL      9493>>ASSIGN   9700>>ASSIGN   9729>>ASSIGN   9747>>ASSIGN   9809>>ASSIGN   9815>>ASSIGN
      9858>>ASSIGN   9862>>ASSIGN
READ$CMD
      5775**DCL      9849--CALL
READ$CMD.FID
      5794**DCL      9852<<ASSIGN   9853<<ASSIGN   9869<<ASSIGN
PL6.E3A0      #001=DUS$BLD File=DUS$BLD.:E05TSI                                  TUE 07/29/97 14:58 Page:95
READ$CMD.FID.TEXT
      5796**DCL      9864--IF
READ$CMD.GOTUTS
      5779**DCL      5780--REDEF
READ$CMD.REC
      5793**DCL      9909<<ASSIGN
READ$CMD.RECEDIT
      5780**DCL      9873<<ASSIGN   9881>>IF       9901<<ASSIGN   9904>>IF
READ$CMD.UTS
      5788**DCL      5789--REDEF
REC
      5682**DCL      9854<<ASSIGN   9874>>IF       9875<<ASSIGN   9876<<ASSIGN   9876>>ASSIGN   9883<<ASSIGN
      9883>>ASSIGN   9891<<ASSIGN   9900>>IF       9902>>IF       9903<<ASSIGN   9904>>IF       9909>>ASSIGN
SETUPKEEP
      9488**LABEL    9476--GOTO     9481--GOTO
SYM.COUNT
      5936**DCL      5939--IMP-SIZ  9661>>ASSIGN
SYM.TEXT
      5939**DCL      9661>>ASSIGN
S_D.BATCH
      8604**DCL      9851>>IF
S_D.CURRENT_CHANNEL
      9077**DCL      9079--REDEF
S_D.CURRENT_FPRG_CONTEXT$
      8277**DCL      9504>>IF       9515>>IF       9526>>IF       9557>>IF       9576>>IF       9600>>IF
      9608>>IF       9631>>IF       9646>>IF       9663>>IF
S_D.D$
      8215**DCL      9699>>ASSIGN
S_D.DEBUGA
      8229**DCL      8231--REDEF
S_D.EIS
      9187**DCL      9216--REDEF
S_D.ERROR
      8158**DCL      9517<<ASSIGN   9528<<ASSIGN   9533<<ASSIGN   9559<<ASSIGN   9564<<ASSIGN   9578<<ASSIGN
      9583<<ASSIGN   9602<<ASSIGN   9633<<ASSIGN   9638<<ASSIGN   9648<<ASSIGN   9653<<ASSIGN   9665<<ASSIGN
      9670<<ASSIGN   9708<<ASSIGN   9733<<ASSIGN   9819<<ASSIGN   9825<<ASSIGN   9866<<ASSIGN   9886<<ASSIGN
PL6.E3A0      #001=DUS$BLD File=DUS$BLD.:E05TSI                                  TUE 07/29/97 14:58 Page:96
      9895<<ASSIGN   9906<<ASSIGN
S_D.HOST_MESSAGE_BUF_REMOTE
      9120**DCL      9121--REDEF    9135--REDEF
S_D.JDE
      8734**DCL      8735--REDEF
S_D.L$.VALUE
      8287**DCL      8293--REDEF    8301--REDEF    8304--REDEF    8307--REDEF    8310--REDEF
S_D.L$.VALUE.L
      8288**DCL      8289--REDEF    8290--REDEF
S_D.L6_MESSAGE_BUF
      9141**DCL      9143--REDEF
S_D.LASTBLT$
      8321**DCL      9489>>ASSIGN   9694>>ASSIGN   9781>>ASSIGN   9801>>ASSIGN   9848>>ASSIGN
S_D.NCMD$
      8765**DCL      9488>>ASSIGN   9693>>ASSIGN   9780>>ASSIGN   9800>>ASSIGN   9847>>ASSIGN
S_D.ONE_TO_TWO.EXEC_DOMAIN
      9152**DCL      9497>>IF       9508>>IF       9522>>IF       9553>>IF       9591>>IF       9608>>IF
      9642>>IF
S_D.OUTPUT
      9107**DCL      9109--REDEF
S_D.REMOTE_MSG.FNCC
      9126**DCL      9127--REDEF
S_D.REMOTE_MSG.STXC
      9122**DCL      9123--REDEF
S_D.REMOTE_MSG.SUBFNCC
      9130**DCL      9131--REDEF
S_D.SV
      8186**DCL      8207--REDEF
S_D$
      9438**DCL      8134--IMP-PTR  9488>>ASSIGN   9489>>ASSIGN   9497>>IF       9504>>IF       9508>>IF
      9515>>IF       9517>>ASSIGN   9522>>IF       9526>>IF       9528>>ASSIGN   9533>>ASSIGN   9553>>IF
      9557>>IF       9559>>ASSIGN   9564>>ASSIGN   9576>>IF       9578>>ASSIGN   9583>>ASSIGN   9591>>IF
      9600>>IF       9602>>ASSIGN   9608>>IF       9608>>IF       9631>>IF       9633>>ASSIGN   9638>>ASSIGN
      9642>>IF       9646>>IF       9648>>ASSIGN   9653>>ASSIGN   9663>>IF       9665>>ASSIGN   9670>>ASSIGN
      9693>>ASSIGN   9694>>ASSIGN   9699>>ASSIGN   9708>>ASSIGN   9733>>ASSIGN   9780>>ASSIGN   9781>>ASSIGN
      9800>>ASSIGN   9801>>ASSIGN   9819>>ASSIGN   9825>>ASSIGN   9847>>ASSIGN   9848>>ASSIGN   9851>>IF
PL6.E3A0      #001=DUS$BLD File=DUS$BLD.:E05TSI                                  TUE 07/29/97 14:58 Page:97
      9866>>ASSIGN   9886>>ASSIGN   9895>>ASSIGN   9906>>ASSIGN
TEMP_FLAG
      5676**DCL      9714<>CALL
TEXT$C
      5945**DCL      9736>>ASSIGN   9757>>ASSIGN   9822>>ASSIGN   9869>>ASSIGN
TEXT$C.SIZE
      5946**DCL      5947--IMP-SIZ  9730>>ASSIGN   9736>>ASSIGN   9748>>ASSIGN   9752<<ASSIGN   9757>>ASSIGN
      9816>>ASSIGN   9822>>ASSIGN   9863>>ASSIGN   9869>>ASSIGN
TTEXT$C
      5949**DCL      9757<<ASSIGN
UC
      9447**DCL      9853>>ASSIGN
UC.TEXT
      9449**DCL      9448--DCLINIT
V
      5680**DCL      5951--IMP-SIZ  9475<<ASSIGN   9480<<ASSIGN   9485<<ASSIGN   9490<>CALL     9501>>IF
      9531>>IF       9562>>IF       9581>>IF       9636>>IF       9651>>IF       9714<>CALL     9715>>ASSIGN
      9730<<ASSIGN   9731>>IF       9748<<ASSIGN   9749>>IF       9751<<ASSIGN   9752>>ASSIGN   9754>>ASSIGN
      9757>>ASSIGN   9816<<ASSIGN   9817>>IF       9863<<ASSIGN   9864>>IF       9880<>CALL     9883>>ASSIGN
      9884>>IF       9891>>ASSIGN
ZITEM.ADDRESS
      6668**DCL      6673--REDEF    6674--REDEF    6675--REDEF
ZITEM.FLAGS.MDSE.M
      6639**DCL      9706>>IF
ZITEM.SP.VD
      6676**DCL      6680--REDEF    6683--REDEF
ZITEM$
      6057**DCL      6634--IMP-PTR
PL6.E3A0      #001=DUS$BLD File=DUS$BLD.:E05TSI                                  TUE 07/29/97 14:58 Page:98
              *** CROSS REFERENCE LISTING ***
    **     DENOTES     IDENTIFIER DEFINITION
    <<                 IDENTIFIER'S VALUE SET
    >>                 IDENTIFIER'S VALUE USED
    <>                 IDENTIFIER SET AND/OR USED
    --                 IDENTIFIER REFERENCED
PL6.E3A0      #001=DUS$BLD File=DUS$BLD.:E05TSI                                  TUE 07/29/97 14:58 Page:99
              MINI UREF LISTING

CHAR2    5684**DCL
DDS$BLD_DUMP    9691**ENTRY
DDS$BLD_ECHO    9778**ENTRY
DDS$BLD_IGNORE    9483**ENTRY
DDS$BLD_KEEP    9473**ENTRY
DDS$BLD_OUTPUT    9798**ENTRY
DDS$BLD_READ    9845**ENTRY
DDS$BLD_TRAP    9478**ENTRY
DUS$BLD      25**PROC
IXX    5683**DCL
SDD$    6056**DCL
SDD_L6$    6058**DCL
ZITEM_L6$    6059**DCL
