VERSION E05

PL6.E3A0      #001=DDS$PROMPTC File=DUS$PROMPT.:E05TSI                           TUE 07/29/97 15:00 Page:1
        1        1        /*M* DUS$PROMPT Prompt & read input commands for User Delta. */
        2        2        /*T***********************************************************/
        3        3        /*T*                                                         */
        4        4        /*T* Copyright (c) Bull HN Information Systems Inc., 1997    */
        5        5        /*T*                                                         */
        6        6        /*T***********************************************************/
        7        7        /*X* DMR,PLM=5,IND=5,CSU=3,EXM=0,ECU=3,MOC,DCI=5,CRT=5 */
        8        8        /*F* NAME: DUS$PROMPT
        9        9             PURPOSE: To prompt the user & then read his command.
       10       10             DESCRIPTION: Builds prompt, if it has changed, then calls M$PROMPT
       11       11                          to set new prompt. Sets transition VFC if DELTA was just
       12       12                          entered. */
       13       13        /*D* NAME: DUS$PROMPT
       14       14             ENTRY: DDS$PROMPT
       15       15             CALL: CALL DDS$PROMPT;
       16       16             INPUT: S_D.PROMPT - Current prompt, including VFC.
       17       17                    S_D.PROMPT_SIZE - Size of S_D.PROMPT.
       18       18                    S_D.UPROMPT - User specified prompt.
       19       19                    S_D.UPROMPT_SIZE - Size of user specified prompt.
       20       20                    S_D.READPOS - Record position of record to be read.
       21       21             OUTPUT: S_D.PROMPT - Current prompt, including VFC.
       22       22                     S_D.PROMPT_SIZE - Size of S_D.PROMPT.
       23       23                     S_D.READPOS - Record position of record to be read.
       24       24             INTERFACE: DDQ$READ
       25       25                        DUE$ERRMSG;
       26       26                        M$PROMPT;
       27       27             ENVIRONMENT: User Delta.
       28       28             SCRATCH: Local AUTO only.
       29       29             DESCRIPTION: Builds prompt, if it has changed, then calls M$PROMPT
       30       30                          to set new prompt. Sets transition VFC if DELTA was just
       31       31                          entered. */
       32       32                                                /**/
       33       33        DDS$PROMPTC: PROC;
       34       34                                                /**/
       35       35        %INCLUDE CP_6;
       36      116        /* Auto */
       37      117    1   DCL 1 PROMPT,
PL6.E3A0      #001=DDS$PROMPTC File=DUS$PROMPT.:E05TSI                           TUE 07/29/97 15:00 Page:2
       38      118    1         2 VFC CHAR(1) UNAL,
       39      119    1         2 TEXT CHAR(30) UNAL;
       40      120    1   DCL PRONEW_SIZE UBIN;
       41      121    1   DCL PRONEW$ PTR;
       42      122    1   DCL PROOLD_SIZE UBIN;
       43      123        /* Based */
       44      124    1   DCL 1 PROM$NEW BASED UNAL,
       45      125    1         2 * CHAR( PRONEW_SIZE );
       46      126    1   DCL 1 PROM$OLD BASED UNAL,
       47      127    1         2 * CHAR( PROOLD_SIZE );
       48      128        /* Delta's static data */
       49      129        %INCLUDE XUH_MACRO_C;
       50      213        %INCLUDE DD_SD_M;
       51     1549        %S_D;
       52     2867        %INCLUDE DD$BASED;
       53     4170        %FPRG$CONTEXT;
       54     4233        /* Constant */
       55     4234        %FPT_PROMPT (FPTN=FPT_PROMPT,
       56     4235                     STCLASS=CONSTANT SYMDEF,
       57     4236                     VFC=YES);
       58     4264        /* Symref */
       59     4265        %FPT_PROMPT (FPTN=FPTPROMPT,
       60     4266                     STCLASS=);
       61     4294        /* Entry */
       62     4295    1   DCL DDQ$READ ENTRY(2);
       63     4296    1   DCL DUE$ERRMSG ENTRY(0);
       64     4297        /* Misc */
       65     4298        %INCLUDE NK_VFC_C;
       66     4372        %SUB @MACTP="' M'/* @MACTP */";
       67     4373        %SUB @CONTP="'99'/* @CONTP */";
       68     4374        %SUB @MLCTP="' MLCT'/* @MLCTP */";
       69     4375                                                /**/
       70     4376    1        IF S_D.FPRG
       71     4377    2        THEN DO;
       72     4378    2             CALL CONCAT(S_D.UFPROMPT, ' ',SUBSTR(S_D.CURRENT_FPRG_CONTEXT$ ->
              4378                      FPRG$CONTEXT.PROMPT,
       73     4379    2               0, S_D.CURRENT_FPRG_CONTEXT$ -> FPRG$CONTEXT.PROMPT_SIZE), '>');
PL6.E3A0      #001=DDS$PROMPTC File=DUS$PROMPT.:E05TSI                           TUE 07/29/97 15:00 Page:3
       74     4380    2             S_D.UFPROMPT_SIZE = S_D.CURRENT_FPRG_CONTEXT$ -> FPRG$CONTEXT.PROMPT_SIZE
              4380                      + 2;
       75     4381    2           END;
       76     4382    1        CALL BINCHAR( SUBSTR( PROMPT.TEXT, 0, LENGTHC( @CONTP ) ), S_D.STORED );
       77     4383    1        IF S_D.FPRG
       78     4384    2        THEN DO;
       79     4385    2             CALL INSERT( PROMPT.TEXT, LENGTHC( @CONTP ), , S_D.UFPROMPT );
       80     4386    2             PRONEW_SIZE = LENGTHC( @CONTP ) + S_D.UFPROMPT_SIZE;
       81     4387    2           END;
       82     4388    2        ELSE DO;
       83     4389    2             CALL INSERT( PROMPT.TEXT, LENGTHC( @CONTP ), , S_D.UPROMPT );
       84     4390    2             PRONEW_SIZE = LENGTHC( @CONTP ) + S_D.UPROMPT_SIZE;
       85     4391    2           END;
       86     4392    1        GOTO SETIT;
       87     4393                                                /**/
       88     4394    1   DDS$PROMPT: ENTRY;
       89     4395                                                /**/
       90     4396    1        IF S_D.FPRG
       91     4397    2        THEN DO;
       92     4398    2             CALL CONCAT(S_D.UFPROMPT, ' ', SUBSTR(S_D.CURRENT_FPRG_CONTEXT$ ->
              4398                      FPRG$CONTEXT.PROMPT,
       93     4399    2               0, S_D.CURRENT_FPRG_CONTEXT$ -> FPRG$CONTEXT.PROMPT_SIZE), '>');
       94     4400    2             S_D.UFPROMPT_SIZE = S_D.CURRENT_FPRG_CONTEXT$ -> FPRG$CONTEXT.PROMPT_SIZE
              4400                      + 2;
       95     4401    2           END;
       96     4402    1        IF S_D.MACTIVE
       97     4403    2        THEN DO;
       98     4404    2             IF S_D.MLCT
       99     4405    3             THEN DO;
      100     4406    3                  IF S_D.FPRG
      101     4407    4                  THEN DO;
      102     4408    4                       CALL CONCAT( PROMPT.TEXT, ' ', SUBSTR(S_D.CURRENT_FPRG_CONTEXT$
              4408                                -> FPRG$CONTEXT.PROMPT,
      103     4409    4                         0, S_D.CURRENT_FPRG_CONTEXT$ -> FPRG$CONTEXT.PROMPT_SIZE),
              4409                                  @MLCTP, '>');
      104     4410    4                       PRONEW_SIZE = LENGTHC( @MLCTP ) + S_D.CURRENT_FPRG_CONTEXT$ ->
              4410                                FPRG$CONTEXT.PROMPT_SIZE + 2;
PL6.E3A0      #001=DDS$PROMPTC File=DUS$PROMPT.:E05TSI                           TUE 07/29/97 15:00 Page:4
      105     4411    4                     END;
      106     4412    4                  ELSE DO;
      107     4413    4                       CALL CONCAT( PROMPT.TEXT, @MLCTP, S_D.UPROMPT );
      108     4414    4                       PRONEW_SIZE = LENGTHC( @MLCTP ) + S_D.UPROMPT_SIZE;
      109     4415    4                     END;
      110     4416    3                END;
      111     4417    3             ELSE DO;
      112     4418    3                  IF S_D.FPRG
      113     4419    4                  THEN DO;
      114     4420    4                       CALL CONCAT( PROMPT.TEXT, ' ', SUBSTR(S_D.CURRENT_FPRG_CONTEXT$
              4420                                -> FPRG$CONTEXT.PROMPT,
      115     4421    4                         0, S_D.CURRENT_FPRG_CONTEXT$ -> FPRG$CONTEXT.PROMPT_SIZE),
              4421                                  @MACTP, '>');
      116     4422    4                       PRONEW_SIZE = LENGTHC( @MACTP ) + S_D.CURRENT_FPRG_CONTEXT$ ->
              4422                                FPRG$CONTEXT.PROMPT_SIZE + 2;
      117     4423    4                     END;
      118     4424    4                  ELSE DO;
      119     4425    4                       CALL CONCAT( PROMPT.TEXT, @MACTP, S_D.UPROMPT );
      120     4426    4                       PRONEW_SIZE = LENGTHC( @MACTP ) + S_D.UPROMPT_SIZE;
      121     4427    4                     END;
      122     4428    3                END;
      123     4429    2           END;
      124     4430    2        ELSE DO;
      125     4431    2             IF S_D.FPRG
      126     4432    3             THEN DO;
      127     4433    3                  PROMPT.TEXT = S_D.UFPROMPT;
      128     4434    3                  PRONEW_SIZE = S_D.UFPROMPT_SIZE;
      129     4435    3                END;
      130     4436    3             ELSE DO;
      131     4437    3                  PROMPT.TEXT = S_D.UPROMPT;
      132     4438    3                  PRONEW_SIZE = S_D.UPROMPT_SIZE;
      133     4439    3                END;
      134     4440    2           END;
      135     4441        /****GOTO SETIT;****/
      136     4442                                                /**/
      137     4443    1   SETIT: ;
      138     4444    1        PRONEW_SIZE = PRONEW_SIZE + LENGTHC( PROMPT.VFC );
PL6.E3A0      #001=DDS$PROMPTC File=DUS$PROMPT.:E05TSI                           TUE 07/29/97 15:00 Page:5
      139     4445    1        PROOLD_SIZE = S_D.PROMPT_SIZE;
      140     4446    1        IF S_D.USVFC
      141     4447    2        THEN DO;
      142     4448    2             PROMPT.VFC = %VFC_TRANSITION0;
      143     4449    2             S_D.USVFC = '0'B;
      144     4450    2           END;
      145     4451    1        ELSE PROMPT.VFC = %VFC_EXT;
      146     4452    1        PRONEW$ = ADDR( PROMPT );
      147     4453    1        IF ( PROOLD_SIZE = 0 ) OR
      148     4454    1          ( PRONEW$ -> PROM$NEW ~= ADDR( S_D.PROMPT ) -> PROM$OLD )
      149     4455    2        THEN DO;
      150     4456    2             S_D.PROMPT = PROMPT;
      151     4457    2             S_D.PROMPT_SIZE = PRONEW_SIZE;
      152     4458    2             IF NOT S_D.BATCH
      153     4459    3             THEN DO;
      154     4460    3                  FPTPROMPT = FPT_PROMPT;
      155     4461    3                  FPTPROMPT.V_ = VECTOR( FPTPROMPT.V );
      156     4462    3                  FPTPROMPT.PROMPT_ = VECTOR( PRONEW$ -> PROM$NEW );
      157     4463    3                  CALL M$PROMPT( FPTPROMPT ) ALTRET( ARETP );
      158     4464    4                  DO WHILE ( '0'B );
      159     4465    4   ARETP:              CALL DUE$ERRMSG;
      160     4466    4                     END;
      161     4467    3                END;
      162     4468    2           END;
      163     4469                                                /**/
      164     4470    1        CALL DDQ$READ( ADDR( S_D.INPUT ), LENGTHC( S_D.INPUT ) );
      165     4471    1        S_D.READPOS = S_D.READPOS + 1;
      166     4472                                                /**/
      167     4473    1        RETURN;
      168     4474                                                /**/
      169     4475    1   END DDS$PROMPTC;

PL6.E3A0      #001=DDS$PROMPTC File=DUS$PROMPT.:E05TSI                           TUE 07/29/97 15:00 Page:6
--  Include file information  --

   NK_VFC_C.:E05TOU  is referenced.
   DD$BASED.:E05TOU  is referenced.
   DD_SD_M.:E05TOU  is referenced.
   XUH_MACRO_C.:E05TOU  is referenced.
   CP_6.:E05TOU  cannot be made into a system file and is referenced.
   B$JIT_C.:E05TOU  was found in the system file and is never referenced.
   CP_6_C.:E05TOU  was found in the system file and is referenced.
      No diagnostics issued in procedure DDS$PROMPTC.

   Procedure DDS$PROMPTC requires 250 words for executable code.
   Procedure DDS$PROMPTC requires 28 words of local(AUTO) storage.

    No errors detected in file DUS$PROMPT.:E05TSI    .

PL6.E3A0      #001=DDS$PROMPTC File=DUS$PROMPT.:E05TSI                           TUE 07/29/97 15:00 Page:7

 Object Unit name= DDS$PROMPTC                                File name= DUS$PROMPT.:E05TOU
 UTS= JUL 29 '97 15:00:27.72 TUE                              Compiler= PL-6/E31         Sev=      00
 SharedLib= :SHARED_SYSTEM                                    Alt SharedLib=


    ****  Control sections  ****

 Sect   Type Bound  Init  Size OctSiz  Section name(segment info)
    0   DCB   even  none     0      0  M$UC
    1  RoData even  UTS     13     15  DDS$PROMPTC
    2   Proc  even  none   250    372  DDS$PROMPTC
    3  RoData even  none     4      4  DDS$PROMPTC

    ****  Entry defs  ****

                              Check   Calling
                             calling  sequence
  Sect OctLoc Primary Altret sequence   type   Parms  Name
     2      0   yes            yes      Std        0  DDS$PROMPTC
     2     57                  yes      Std        0  DDS$PROMPT

  ****  Data defs  ****

 Sect OctLoc  Name                           Sect OctLoc  Name
    1      0  FPT_PROMPT

  ****  Entry refs  ****

         Check        Calling
        calling       sequence
Altret sequence SRef   type   Args  Name
         yes           Std       0 DUE$ERRMSG
         yes           Std       2 DDQ$READ
                       nStd      0 X66_AUTO_0
                       Std       0 B_CONSPOOL_D
                       nStd      0 X66_ARET
PL6.E3A0      #001=DDS$PROMPTC File=DUS$PROMPT.:E05TSI                           TUE 07/29/97 15:00 Page:8

  ****  Data refs  ****

  Flags:  r = read only, s = secondary
Flgs Name                             Flgs Name                             Flgs Name
     M$UC                             r    S_D$                                  B_VECTNIL

  ****  Segment refs  ****

  Flags:  r = read only, s = secondary
Flgs Name                             Flgs Name                             Flgs Name
     ISSID                                 NULLSID
PL6.E3A0      #001=DDS$PROMPTC File=DUS$PROMPT.:E05TSI                           TUE 07/29/97 15:00 Page:9


        1        1        /*M* DUS$PROMPT Prompt & read input commands for User Delta. */
        2        2        /*T***********************************************************/
        3        3        /*T*                                                         */
        4        4        /*T* Copyright (c) Bull HN Information Systems Inc., 1997    */
        5        5        /*T*                                                         */
        6        6        /*T***********************************************************/
        7        7        /*X* DMR,PLM=5,IND=5,CSU=3,EXM=0,ECU=3,MOC,DCI=5,CRT=5 */
        8        8        /*F* NAME: DUS$PROMPT
        9        9             PURPOSE: To prompt the user & then read his command.
       10       10             DESCRIPTION: Builds prompt, if it has changed, then calls M$PROMPT
       11       11                          to set new prompt. Sets transition VFC if DELTA was just
       12       12                          entered. */
       13       13        /*D* NAME: DUS$PROMPT
       14       14             ENTRY: DDS$PROMPT
       15       15             CALL: CALL DDS$PROMPT;
       16       16             INPUT: S_D.PROMPT - Current prompt, including VFC.
       17       17                    S_D.PROMPT_SIZE - Size of S_D.PROMPT.
       18       18                    S_D.UPROMPT - User specified prompt.
       19       19                    S_D.UPROMPT_SIZE - Size of user specified prompt.
       20       20                    S_D.READPOS - Record position of record to be read.
       21       21             OUTPUT: S_D.PROMPT - Current prompt, including VFC.
       22       22                     S_D.PROMPT_SIZE - Size of S_D.PROMPT.
       23       23                     S_D.READPOS - Record position of record to be read.
       24       24             INTERFACE: DDQ$READ
       25       25                        DUE$ERRMSG;
       26       26                        M$PROMPT;
       27       27             ENVIRONMENT: User Delta.
       28       28             SCRATCH: Local AUTO only.
       29       29             DESCRIPTION: Builds prompt, if it has changed, then calls M$PROMPT
       30       30                          to set new prompt. Sets transition VFC if DELTA was just
       31       31                          entered. */
       32       32                                                /**/
       33       33        DDS$PROMPTC: PROC;

     33  2 000000   000000 700200 xent  DDS$PROMPTC  TSX0  ! X66_AUTO_0
         2 000001   000034 000000                    ZERO    28,0
PL6.E3A0      #001=DDS$PROMPTC File=DUS$PROMPT.:E05TSI                           TUE 07/29/97 15:00 Page:10

       34       34                                                /**/
       35       35        %INCLUDE CP_6;
       36      116        /* Auto */
       37      117    1   DCL 1 PROMPT,
       38      118    1         2 VFC CHAR(1) UNAL,
       39      119    1         2 TEXT CHAR(30) UNAL;
       40      120    1   DCL PRONEW_SIZE UBIN;
       41      121    1   DCL PRONEW$ PTR;
       42      122    1   DCL PROOLD_SIZE UBIN;
       43      123        /* Based */
       44      124    1   DCL 1 PROM$NEW BASED UNAL,
       45      125    1         2 * CHAR( PRONEW_SIZE );
       46      126    1   DCL 1 PROM$OLD BASED UNAL,
       47      127    1         2 * CHAR( PROOLD_SIZE );
       48      128        /* Delta's static data */
       49      129        %INCLUDE XUH_MACRO_C;
       50      213        %INCLUDE DD_SD_M;
       51     1549        %S_D;
       52     2867        %INCLUDE DD$BASED;
       53     4170        %FPRG$CONTEXT;
       54     4233        /* Constant */
       55     4234        %FPT_PROMPT (FPTN=FPT_PROMPT,
       56     4235                     STCLASS=CONSTANT SYMDEF,
       57     4236                     VFC=YES);
       58     4264        /* Symref */
       59     4265        %FPT_PROMPT (FPTN=FPTPROMPT,
       60     4266                     STCLASS=);
       61     4294        /* Entry */
       62     4295    1   DCL DDQ$READ ENTRY(2);
       63     4296    1   DCL DUE$ERRMSG ENTRY(0);
       64     4297        /* Misc */
       65     4298        %INCLUDE NK_VFC_C;
       66     4372        %SUB @MACTP="' M'/* @MACTP */";
       67     4373        %SUB @CONTP="'99'/* @CONTP */";
       68     4374        %SUB @MLCTP="' MLCT'/* @MLCTP */";
       69     4375                                                /**/
PL6.E3A0      #001=DDS$PROMPTC File=DUS$PROMPT.:E05TSI                           TUE 07/29/97 15:00 Page:11
       70     4376    1        IF S_D.FPRG

   4376  2 000002   000000 470400 xsym               LDP0    S_D$
         2 000003   000101 234100                    SZN     65,,PR0
         2 000004   000034 605000 2                  TPL     s:4382

       71     4377    2        THEN DO;

       72     4378    2             CALL CONCAT(S_D.UFPROMPT, ' ',SUBSTR(S_D.CURRENT_FPRG_CONTEXT$ ->
              4378                      FPRG$CONTEXT.PROMPT,

   4378  2 000005   000102 471500                    LDP1    66,,PR0
         2 000006   100014 720100                    LXL0    12,,PR1
         2 000007   040000 236003                    LDQ     16384,DU
         2 000010   005167 756100                    STQ     2679,,PR0
         2 000011   040100 100540                    MLR     fill='040'O
         2 000012   100006 000010                    ADSC9   6,,PR1                   cn=0,n=*X0
         2 000013   005167 200027                    ADSC9   2679,,PR0                cn=1,n=23
         2 000014   000000 636010                    EAQ     0,X0
         2 000015   000022 772000                    QRL     18
         2 000016   000027 116007                    CMPQ    23,DL
         2 000017   000030 603000 2                  TRC     s:4380
         2 000020   200030 740100                    STX0    FPTPROMPT+10,,AUTO
         2 000021   777750 620010                    EAX0    -24,X0
         2 000022   777777 660003                    ERX0    -1,DU
         2 000023   200030 235100                    LDA     FPTPROMPT+10,,AUTO
         2 000024   000022 771000                    ARL     18
         2 000025   040145 100400                    MLR     fill='040'O
         2 000026   000000 000001 3                  ADSC9   0                        cn=0,n=1
         2 000027   005167 200010                    ADSC9   2679,A,PR0               cn=1,n=*X0

       73     4379    2               0, S_D.CURRENT_FPRG_CONTEXT$ -> FPRG$CONTEXT.PROMPT_SIZE), '>');
       74     4380    2             S_D.UFPROMPT_SIZE = S_D.CURRENT_FPRG_CONTEXT$ -> FPRG$CONTEXT.PROMPT_SIZE
              4380                      + 2;

   4380  2 000030   000102 471500                    LDP1    66,,PR0
         2 000031   100014 235100                    LDA     12,,PR1
PL6.E3A0      #001=DDS$PROMPTC File=DUS$PROMPT.:E05TSI                           TUE 07/29/97 15:00 Page:12
         2 000032   000002 035007                    ADLA    2,DL
         2 000033   005175 755100                    STA     2685,,PR0

       75     4381    2           END;

       76     4382    1        CALL BINCHAR( SUBSTR( PROMPT.TEXT, 0, LENGTHC( @CONTP ) ), S_D.STORED );

   4382  2 000034   000100 301500                    BTD
         2 000035   000135 000004                    NDSC9   93,,PR0                  cn=0,s=lsgnf,sf=0,n=4
         2 000036   200003 230002                    NDSC9   PROMPT,,AUTO             cn=1,s=nosgn,sf=0,n=2

       77     4383    1        IF S_D.FPRG

   4383  2 000037   000101 234100                    SZN     65,,PR0
         2 000040   000050 605000 2                  TPL     s:4389

       78     4384    2        THEN DO;

       79     4385    2             CALL INSERT( PROMPT.TEXT, LENGTHC( @CONTP ), , S_D.UFPROMPT );

   4385  2 000041   040100 100500                    MLR     fill='040'O
         2 000042   005167 000030                    ADSC9   2679,,PR0                cn=0,n=24
         2 000043   200003 600034                    ADSC9   PROMPT,,AUTO             cn=3,n=28

       80     4386    2             PRONEW_SIZE = LENGTHC( @CONTP ) + S_D.UFPROMPT_SIZE;

   4386  2 000044   005175 235100                    LDA     2685,,PR0
         2 000045   000002 035007                    ADLA    2,DL
         2 000046   200013 755100                    STA     PRONEW_SIZE,,AUTO

       81     4387    2           END;

   4387  2 000047   000056 710000 2                  TRA     s:4392

       82     4388    2        ELSE DO;

       83     4389    2             CALL INSERT( PROMPT.TEXT, LENGTHC( @CONTP ), , S_D.UPROMPT );
PL6.E3A0      #001=DDS$PROMPTC File=DUS$PROMPT.:E05TSI                           TUE 07/29/97 15:00 Page:13

   4389  2 000050   040100 100500                    MLR     fill='040'O
         2 000051   005160 000030                    ADSC9   2672,,PR0                cn=0,n=24
         2 000052   200003 600034                    ADSC9   PROMPT,,AUTO             cn=3,n=28

       84     4390    2             PRONEW_SIZE = LENGTHC( @CONTP ) + S_D.UPROMPT_SIZE;

   4390  2 000053   005166 235100                    LDA     2678,,PR0
         2 000054   000002 035007                    ADLA    2,DL
         2 000055   200013 755100                    STA     PRONEW_SIZE,,AUTO

       85     4391    2           END;

       86     4392    1        GOTO SETIT;

   4392  2 000056   000270 710000 2                  TRA     SETIT

       87     4393                                                /**/
       88     4394    1   DDS$PROMPT: ENTRY;

   4394  2 000057   000000 700200 xent  DDS$PROMPT   TSX0  ! X66_AUTO_0
         2 000060   000034 000000                    ZERO    28,0

       89     4395                                                /**/
       90     4396    1        IF S_D.FPRG

   4396  2 000061   000000 470400 xsym               LDP0    S_D$
         2 000062   000101 234100                    SZN     65,,PR0
         2 000063   000113 605000 2                  TPL     s:4402

       91     4397    2        THEN DO;

       92     4398    2             CALL CONCAT(S_D.UFPROMPT, ' ', SUBSTR(S_D.CURRENT_FPRG_CONTEXT$ ->
              4398                      FPRG$CONTEXT.PROMPT,

   4398  2 000064   000102 471500                    LDP1    66,,PR0
         2 000065   100014 720100                    LXL0    12,,PR1
PL6.E3A0      #001=DDS$PROMPTC File=DUS$PROMPT.:E05TSI                           TUE 07/29/97 15:00 Page:14
         2 000066   040000 236003                    LDQ     16384,DU
         2 000067   005167 756100                    STQ     2679,,PR0
         2 000070   040100 100540                    MLR     fill='040'O
         2 000071   100006 000010                    ADSC9   6,,PR1                   cn=0,n=*X0
         2 000072   005167 200027                    ADSC9   2679,,PR0                cn=1,n=23
         2 000073   000000 636010                    EAQ     0,X0
         2 000074   000022 772000                    QRL     18
         2 000075   000027 116007                    CMPQ    23,DL
         2 000076   000107 603000 2                  TRC     s:4400
         2 000077   200030 740100                    STX0    FPTPROMPT+10,,AUTO
         2 000100   777750 620010                    EAX0    -24,X0
         2 000101   777777 660003                    ERX0    -1,DU
         2 000102   200030 235100                    LDA     FPTPROMPT+10,,AUTO
         2 000103   000022 771000                    ARL     18
         2 000104   040145 100400                    MLR     fill='040'O
         2 000105   000000 000001 3                  ADSC9   0                        cn=0,n=1
         2 000106   005167 200010                    ADSC9   2679,A,PR0               cn=1,n=*X0

       93     4399    2               0, S_D.CURRENT_FPRG_CONTEXT$ -> FPRG$CONTEXT.PROMPT_SIZE), '>');
       94     4400    2             S_D.UFPROMPT_SIZE = S_D.CURRENT_FPRG_CONTEXT$ -> FPRG$CONTEXT.PROMPT_SIZE
              4400                      + 2;

   4400  2 000107   000102 471500                    LDP1    66,,PR0
         2 000110   100014 235100                    LDA     12,,PR1
         2 000111   000002 035007                    ADLA    2,DL
         2 000112   005175 755100                    STA     2685,,PR0

       95     4401    2           END;

       96     4402    1        IF S_D.MACTIVE

   4402  2 000113   000713 234100                    SZN     459,,PR0
         2 000114   000253 605000 2                  TPL     s:4431

       97     4403    2        THEN DO;

       98     4404    2             IF S_D.MLCT
PL6.E3A0      #001=DDS$PROMPTC File=DUS$PROMPT.:E05TSI                           TUE 07/29/97 15:00 Page:15

   4404  2 000115   005323 234100                    SZN     2771,,PR0
         2 000116   000175 605000 2                  TPL     s:4418

       99     4405    3             THEN DO;

      100     4406    3                  IF S_D.FPRG

   4406  2 000117   000101 234100                    SZN     65,,PR0
         2 000120   000162 605000 2                  TPL     s:4413

      101     4407    4                  THEN DO;

      102     4408    4                       CALL CONCAT( PROMPT.TEXT, ' ', SUBSTR(S_D.CURRENT_FPRG_CONTEXT$
              4408                                -> FPRG$CONTEXT.PROMPT,

   4408  2 000121   000102 471500                    LDP1    66,,PR0
         2 000122   100014 720100                    LXL0    12,,PR1
         2 000123   000040 236003                    LDQ     32,DU
         2 000124   200003 552120                    STBQ    PROMPT,'20'O,AUTO
         2 000125   040100 100540                    MLR     fill='040'O
         2 000126   100006 000010                    ADSC9   6,,PR1                   cn=0,n=*X0
         2 000127   200003 400035                    ADSC9   PROMPT,,AUTO             cn=2,n=29
         2 000130   000000 636010                    EAQ     0,X0
         2 000131   000022 772000                    QRL     18
         2 000132   000035 116007                    CMPQ    29,DL
         2 000133   000155 603000 2                  TRC     s:4410
         2 000134   200030 740100                    STX0    FPTPROMPT+10,,AUTO
         2 000135   777742 620010                    EAX0    -30,X0
         2 000136   777777 660003                    ERX0    -1,DU
         2 000137   200030 235100                    LDA     FPTPROMPT+10,,AUTO
         2 000140   000022 771000                    ARL     18
         2 000141   040145 100400                    MLR     fill='040'O
         2 000142   000013 000005 1                  ADSC9   FPT_PROMPT+11            cn=0,n=5
         2 000143   200003 400010                    ADSC9   PROMPT,A,AUTO            cn=2,n=*X0
         2 000144   200030 236100                    LDQ     FPTPROMPT+10,,AUTO
         2 000145   000022 772000                    QRL     18
PL6.E3A0      #001=DDS$PROMPTC File=DUS$PROMPT.:E05TSI                           TUE 07/29/97 15:00 Page:16
         2 000146   000030 116007                    CMPQ    24,DL
         2 000147   000155 603000 2                  TRC     s:4410
         2 000150   777747 620006                    EAX0    -25,QL
         2 000151   777777 660003                    ERX0    -1,DU
         2 000152   040146 100400                    MLR     fill='040'O
         2 000153   000000 000001 3                  ADSC9   0                        cn=0,n=1
         2 000154   200004 600010                    ADSC9   PROMPT+1,Q,AUTO          cn=3,n=*X0

      103     4409    4                         0, S_D.CURRENT_FPRG_CONTEXT$ -> FPRG$CONTEXT.PROMPT_SIZE),
              4409                                  @MLCTP, '>');
      104     4410    4                       PRONEW_SIZE = LENGTHC( @MLCTP ) + S_D.CURRENT_FPRG_CONTEXT$ ->
              4410                                FPRG$CONTEXT.PROMPT_SIZE + 2;

   4410  2 000155   000102 471500                    LDP1    66,,PR0
         2 000156   100014 235100                    LDA     12,,PR1
         2 000157   000007 035007                    ADLA    7,DL
         2 000160   200013 755100                    STA     PRONEW_SIZE,,AUTO

      105     4411    4                     END;

   4411  2 000161   000270 710000 2                  TRA     SETIT

      106     4412    4                  ELSE DO;

      107     4413    4                       CALL CONCAT( PROMPT.TEXT, @MLCTP, S_D.UPROMPT );

   4413  2 000162   040100 100400                    MLR     fill='040'O
         2 000163   000013 000005 1                  ADSC9   FPT_PROMPT+11            cn=0,n=5
         2 000164   200003 200005                    ADSC9   PROMPT,,AUTO             cn=1,n=5
         2 000165   040100 100500                    MLR     fill='040'O
         2 000166   005160 000030                    ADSC9   2672,,PR0                cn=0,n=24
         2 000167   200004 400031                    ADSC9   PROMPT+1,,AUTO           cn=2,n=25

      108     4414    4                       PRONEW_SIZE = LENGTHC( @MLCTP ) + S_D.UPROMPT_SIZE;

   4414  2 000170   000000 470400 xsym               LDP0    S_D$
         2 000171   005166 235100                    LDA     2678,,PR0
PL6.E3A0      #001=DDS$PROMPTC File=DUS$PROMPT.:E05TSI                           TUE 07/29/97 15:00 Page:17
         2 000172   000005 035007                    ADLA    5,DL
         2 000173   200013 755100                    STA     PRONEW_SIZE,,AUTO

      109     4415    4                     END;

      110     4416    3                END;

   4416  2 000174   000270 710000 2                  TRA     SETIT

      111     4417    3             ELSE DO;

      112     4418    3                  IF S_D.FPRG

   4418  2 000175   000101 234100                    SZN     65,,PR0
         2 000176   000240 605000 2                  TPL     s:4425

      113     4419    4                  THEN DO;

      114     4420    4                       CALL CONCAT( PROMPT.TEXT, ' ', SUBSTR(S_D.CURRENT_FPRG_CONTEXT$
              4420                                -> FPRG$CONTEXT.PROMPT,

   4420  2 000177   000102 471500                    LDP1    66,,PR0
         2 000200   100014 720100                    LXL0    12,,PR1
         2 000201   000040 236003                    LDQ     32,DU
         2 000202   200003 552120                    STBQ    PROMPT,'20'O,AUTO
         2 000203   040100 100540                    MLR     fill='040'O
         2 000204   100006 000010                    ADSC9   6,,PR1                   cn=0,n=*X0
         2 000205   200003 400035                    ADSC9   PROMPT,,AUTO             cn=2,n=29
         2 000206   000000 636010                    EAQ     0,X0
         2 000207   000022 772000                    QRL     18
         2 000210   000035 116007                    CMPQ    29,DL
         2 000211   000233 603000 2                  TRC     s:4422
         2 000212   200030 740100                    STX0    FPTPROMPT+10,,AUTO
         2 000213   777742 620010                    EAX0    -30,X0
         2 000214   777777 660003                    ERX0    -1,DU
         2 000215   200030 235100                    LDA     FPTPROMPT+10,,AUTO
         2 000216   000022 771000                    ARL     18
PL6.E3A0      #001=DDS$PROMPTC File=DUS$PROMPT.:E05TSI                           TUE 07/29/97 15:00 Page:18
         2 000217   040145 100400                    MLR     fill='040'O
         2 000220   000013 000002 1                  ADSC9   FPT_PROMPT+11            cn=0,n=2
         2 000221   200003 400010                    ADSC9   PROMPT,A,AUTO            cn=2,n=*X0
         2 000222   200030 236100                    LDQ     FPTPROMPT+10,,AUTO
         2 000223   000022 772000                    QRL     18
         2 000224   000033 116007                    CMPQ    27,DL
         2 000225   000233 603000 2                  TRC     s:4422
         2 000226   777744 620006                    EAX0    -28,QL
         2 000227   777777 660003                    ERX0    -1,DU
         2 000230   040146 100400                    MLR     fill='040'O
         2 000231   000000 000001 3                  ADSC9   0                        cn=0,n=1
         2 000232   200004 000010                    ADSC9   PROMPT+1,Q,AUTO          cn=0,n=*X0

      115     4421    4                         0, S_D.CURRENT_FPRG_CONTEXT$ -> FPRG$CONTEXT.PROMPT_SIZE),
              4421                                  @MACTP, '>');
      116     4422    4                       PRONEW_SIZE = LENGTHC( @MACTP ) + S_D.CURRENT_FPRG_CONTEXT$ ->
              4422                                FPRG$CONTEXT.PROMPT_SIZE + 2;

   4422  2 000233   000102 471500                    LDP1    66,,PR0
         2 000234   100014 235100                    LDA     12,,PR1
         2 000235   000004 035007                    ADLA    4,DL
         2 000236   200013 755100                    STA     PRONEW_SIZE,,AUTO

      117     4423    4                     END;

   4423  2 000237   000270 710000 2                  TRA     SETIT

      118     4424    4                  ELSE DO;

      119     4425    4                       CALL CONCAT( PROMPT.TEXT, @MACTP, S_D.UPROMPT );

   4425  2 000240   000013 236000 1                  LDQ     FPT_PROMPT+11
         2 000241   000011 772000                    QRL     9
         2 000242   200003 552130                    STBQ    PROMPT,'30'O,AUTO
         2 000243   040100 100500                    MLR     fill='040'O
         2 000244   005160 000030                    ADSC9   2672,,PR0                cn=0,n=24
         2 000245   200003 600034                    ADSC9   PROMPT,,AUTO             cn=3,n=28
PL6.E3A0      #001=DDS$PROMPTC File=DUS$PROMPT.:E05TSI                           TUE 07/29/97 15:00 Page:19

      120     4426    4                       PRONEW_SIZE = LENGTHC( @MACTP ) + S_D.UPROMPT_SIZE;

   4426  2 000246   000000 470400 xsym               LDP0    S_D$
         2 000247   005166 235100                    LDA     2678,,PR0
         2 000250   000002 035007                    ADLA    2,DL
         2 000251   200013 755100                    STA     PRONEW_SIZE,,AUTO

      121     4427    4                     END;

      122     4428    3                END;

      123     4429    2           END;

   4429  2 000252   000270 710000 2                  TRA     SETIT

      124     4430    2        ELSE DO;

      125     4431    2             IF S_D.FPRG

   4431  2 000253   000101 234100                    SZN     65,,PR0
         2 000254   000263 605000 2                  TPL     s:4437

      126     4432    3             THEN DO;

      127     4433    3                  PROMPT.TEXT = S_D.UFPROMPT;

   4433  2 000255   040100 100500                    MLR     fill='040'O
         2 000256   005167 000030                    ADSC9   2679,,PR0                cn=0,n=24
         2 000257   200003 200036                    ADSC9   PROMPT,,AUTO             cn=1,n=30

      128     4434    3                  PRONEW_SIZE = S_D.UFPROMPT_SIZE;

   4434  2 000260   005175 235100                    LDA     2685,,PR0
         2 000261   200013 755100                    STA     PRONEW_SIZE,,AUTO

      129     4435    3                END;
PL6.E3A0      #001=DDS$PROMPTC File=DUS$PROMPT.:E05TSI                           TUE 07/29/97 15:00 Page:20

   4435  2 000262   000270 710000 2                  TRA     SETIT

      130     4436    3             ELSE DO;

      131     4437    3                  PROMPT.TEXT = S_D.UPROMPT;

   4437  2 000263   040100 100500                    MLR     fill='040'O
         2 000264   005160 000030                    ADSC9   2672,,PR0                cn=0,n=24
         2 000265   200003 200036                    ADSC9   PROMPT,,AUTO             cn=1,n=30

      132     4438    3                  PRONEW_SIZE = S_D.UPROMPT_SIZE;

   4438  2 000266   005166 235100                    LDA     2678,,PR0
         2 000267   200013 755100                    STA     PRONEW_SIZE,,AUTO

      133     4439    3                END;

      134     4440    2           END;

   4430  2 000270                       SETIT        null
      135     4441        /****GOTO SETIT;****/
      136     4442                                                /**/
      137     4443    1   SETIT: ;
      138     4444    1        PRONEW_SIZE = PRONEW_SIZE + LENGTHC( PROMPT.VFC );

   4444  2 000270   000001 035007                    ADLA    1,DL
         2 000271   200013 755100                    STA     PRONEW_SIZE,,AUTO

      139     4445    1        PROOLD_SIZE = S_D.PROMPT_SIZE;

   4445  2 000272   005147 235100                    LDA     2663,,PR0
         2 000273   200015 755100                    STA     PROOLD_SIZE,,AUTO

      140     4446    1        IF S_D.USVFC

   4446  2 000274   005144 234100                    SZN     2660,,PR0
PL6.E3A0      #001=DDS$PROMPTC File=DUS$PROMPT.:E05TSI                           TUE 07/29/97 15:00 Page:21
         2 000275   000302 605000 2                  TPL     s:4451

      141     4447    2        THEN DO;

      142     4448    2             PROMPT.VFC = %VFC_TRANSITION0;

   4448  2 000276   036000 236003                    LDQ     15360,DU
         2 000277   200003 552140                    STBQ    PROMPT,'40'O,AUTO

      143     4449    2             S_D.USVFC = '0'B;

   4449  2 000300   005144 450100                    STZ     2660,,PR0

      144     4450    2           END;

   4450  2 000301   000304 710000 2                  TRA     s:4452

      145     4451    1        ELSE PROMPT.VFC = %VFC_EXT;

   4451  2 000302   100000 236003                    LDQ     32768,DU
         2 000303   200003 552140                    STBQ    PROMPT,'40'O,AUTO

      146     4452    1        PRONEW$ = ADDR( PROMPT );

   4452  2 000304   200003 631500                    EPPR1   PROMPT,,AUTO
         2 000305   200014 451500                    STP1    PRONEW$,,AUTO

      147     4453    1        IF ( PROOLD_SIZE = 0 ) OR

   4453  2 000306   000000 115003                    CMPA    0,DU
         2 000307   000316 600000 2                  TZE     s:4456
         2 000310   200013 720100                    LXL0    PRONEW_SIZE,,AUTO
         2 000311   000000 621005                    EAX1    0,AL
         2 000312   000140 106540                    CMPC    fill='000'O
         2 000313   100000 000010                    ADSC9   0,,PR1                   cn=0,n=*X0
         2 000314   005150 000011                    ADSC9   2664,,PR0                cn=0,n=*X1
         2 000315   000352 600000 2                  TZE     s:4470
PL6.E3A0      #001=DDS$PROMPTC File=DUS$PROMPT.:E05TSI                           TUE 07/29/97 15:00 Page:22

      148     4454    1          ( PRONEW$ -> PROM$NEW ~= ADDR( S_D.PROMPT ) -> PROM$OLD )
      149     4455    2        THEN DO;

      150     4456    2             S_D.PROMPT = PROMPT;

   4456  2 000316   000100 100500                    MLR     fill='000'O
         2 000317   200003 000037                    ADSC9   PROMPT,,AUTO             cn=0,n=31
         2 000320   005150 000040                    ADSC9   2664,,PR0                cn=0,n=32

      151     4457    2             S_D.PROMPT_SIZE = PRONEW_SIZE;

   4457  2 000321   200013 235100                    LDA     PRONEW_SIZE,,AUTO
         2 000322   005147 755100                    STA     2663,,PR0

      152     4458    2             IF NOT S_D.BATCH

   4458  2 000323   004625 234100                    SZN     2453,,PR0
         2 000324   000352 604000 2                  TMI     s:4470

      153     4459    3             THEN DO;

      154     4460    3                  FPTPROMPT = FPT_PROMPT;

   4460  2 000325   000100 100400                    MLR     fill='000'O
         2 000326   000000 000050 1                  ADSC9   FPT_PROMPT               cn=0,n=40
         2 000327   200016 000050                    ADSC9   FPTPROMPT,,AUTO          cn=0,n=40

      155     4461    3                  FPTPROMPT.V_ = VECTOR( FPTPROMPT.V );

   4461  2 000330   000001 235000 3                  LDA     1
         2 000331   200030 452500                    STP2    FPTPROMPT+10,,AUTO
         2 000332   200030 236100                    LDQ     FPTPROMPT+10,,AUTO
         2 000333   000024 036003                    ADLQ    20,DU
         2 000334   200016 757100                    STAQ    FPTPROMPT,,AUTO

      156     4462    3                  FPTPROMPT.PROMPT_ = VECTOR( PRONEW$ -> PROM$NEW );
PL6.E3A0      #001=DDS$PROMPTC File=DUS$PROMPT.:E05TSI                           TUE 07/29/97 15:00 Page:23

   4462  2 000335   200013 235100                    LDA     PRONEW_SIZE,,AUTO
         2 000336   000020 735000                    ALS     16
         2 000337   000140 135007                    SBLA    96,DL
         2 000340   200014 236100                    LDQ     PRONEW$,,AUTO
         2 000341   200022 757100                    STAQ    FPTPROMPT+4,,AUTO

      157     4463    3                  CALL M$PROMPT( FPTPROMPT ) ALTRET( ARETP );

   4463  2 000342   200016 630500                    EPPR0   FPTPROMPT,,AUTO
         2 000343   560002 713400                    CLIMB   alt,+57346
         2 000344   401000 401760                    pmme    nvectors=3
         2 000345   000347 702000 2                  TSX2    ARETP

      158     4464    4                  DO WHILE ( '0'B );

   4464  2 000346   000352 710000 2                  TRA     s:4470

      159     4465    4   ARETP:              CALL DUE$ERRMSG;

   4465  2 000347   000002 631400 xsym  ARETP        EPPR1   B_VECTNIL+2
         2 000350   000000 701000 xent               TSX1    DUE$ERRMSG
         2 000351   000000 011000                    NOP     0

      160     4466    4                     END;

      161     4467    3                END;

      162     4468    2           END;

      163     4469                                                /**/
      164     4470    1        CALL DDQ$READ( ADDR( S_D.INPUT ), LENGTHC( S_D.INPUT ) );

   4470  2 000352   000000 236000 xsym               LDQ     S_D$
         2 000353   000610 036003                    ADLQ    392,DU
         2 000354   200030 756100                    STQ     FPTPROMPT+10,,AUTO
         2 000355   000003 236000 3                  LDQ     3
PL6.E3A0      #001=DDS$PROMPTC File=DUS$PROMPT.:E05TSI                           TUE 07/29/97 15:00 Page:24
         2 000356   200033 756100                    STQ     FPTPROMPT+13,,AUTO
         2 000357   200030 630500                    EPPR0   FPTPROMPT+10,,AUTO
         2 000360   200032 450500                    STP0    FPTPROMPT+12,,AUTO
         2 000361   200032 630500                    EPPR0   FPTPROMPT+12,,AUTO
         2 000362   000020 631400 xsym               EPPR1   B_VECTNIL+16
         2 000363   000000 701000 xent               TSX1    DDQ$READ
         2 000364   000000 011000                    NOP     0

      165     4471    1        S_D.READPOS = S_D.READPOS + 1;

   4471  2 000365   000000 470400 xsym               LDP0    S_D$
         2 000366   005142 235100                    LDA     2658,,PR0
         2 000367   000001 035007                    ADLA    1,DL
         2 000370   005142 755100                    STA     2658,,PR0

      166     4472                                                /**/
      167     4473    1        RETURN;

   4473  2 000371   000000 702200 xent               TSX2  ! X66_ARET

FPT_PROMPT
 Sect OctLoc
   1     000   000003 777640   000006 006000   000000 177640   000000 006014    ................
   1     004   000000 177640   000000 006014   000000 000000   000000 000000    ................
   1     010   100000 000000   000000 000000                                    @.......

(unnamed)
 Sect OctLoc
   1     012   071071 040040   040115 114103   124040 040040                    99   MLCT

(unnamed)
 Sect OctLoc
   3     000   076040 040040   000003 777640   000000 000400   000002 006000    >   ............
      168     4474                                                /**/
      169     4475    1   END DDS$PROMPTC;

PL6.E3A0      #001=DDS$PROMPTC File=DUS$PROMPT.:E05TSI                           TUE 07/29/97 15:00 Page:25
--  Include file information  --

   NK_VFC_C.:E05TOU  is referenced.
   DD$BASED.:E05TOU  is referenced.
   DD_SD_M.:E05TOU  is referenced.
   XUH_MACRO_C.:E05TOU  is referenced.
   CP_6.:E05TOU  cannot be made into a system file and is referenced.
   B$JIT_C.:E05TOU  was found in the system file and is never referenced.
   CP_6_C.:E05TOU  was found in the system file and is referenced.
      No diagnostics issued in procedure DDS$PROMPTC.

   Procedure DDS$PROMPTC requires 250 words for executable code.
   Procedure DDS$PROMPTC requires 28 words of local(AUTO) storage.

    No errors detected in file DUS$PROMPT.:E05TSI    .
PL6.E3A0      #001=DDS$PROMPTC File=DUS$PROMPT.:E05TSI                           TUE 07/29/97 15:00 Page:26
          *** CROSS REFERENCE LISTING ***
**     DENOTES     IDENTIFIER DEFINITION
<<                 IDENTIFIER'S VALUE SET
>>                 IDENTIFIER'S VALUE USED
<>                 IDENTIFIER SET AND/OR USED
--                 IDENTIFIER REFERENCED
PL6.E3A0      #001=DDS$PROMPTC File=DUS$PROMPT.:E05TSI                           TUE 07/29/97 15:00 Page:27
          MINI XREF LISTING

ARETP
      4465**LABEL    4463--CALLALT
DDQ$READ
      4295**DCL-ENT  4470--CALL
DUE$ERRMSG
      4296**DCL-ENT  4465--CALL
FPRG$CONTEXT.PROMPT
      4197**DCL      4378>>CALLBLT  4398>>CALLBLT  4408>>CALLBLT  4420>>CALLBLT
FPRG$CONTEXT.PROMPT_SIZE
      4199**DCL      4378>>CALLBLT  4380>>ASSIGN   4398>>CALLBLT  4400>>ASSIGN   4408>>CALLBLT  4410>>ASSIGN
      4420>>CALLBLT  4422>>ASSIGN
FPTPROMPT
      4282**DCL      4460<<ASSIGN   4463<>CALL
FPTPROMPT.PROMPT_
      4288**DCL      4462<<ASSIGN
FPTPROMPT.V
      4290**DCL      4461--ASSIGN
FPTPROMPT.V_
      4284**DCL      4461<<ASSIGN
FPT_PROMPT
      4252**DCL      4460>>ASSIGN
FPT_PROMPT.V
      4260**DCL      4254--DCLINIT
M$PROMPT
        68**DCL-ENT  4463--CALL
PROM$NEW
       124**DCL      4453>>IF       4462--ASSIGN
PROM$OLD
       126**DCL      4453>>IF
PROMPT
       117**DCL      4452--ASSIGN   4456>>ASSIGN
PROMPT.TEXT
PL6.E3A0      #001=DDS$PROMPTC File=DUS$PROMPT.:E05TSI                           TUE 07/29/97 15:00 Page:28
       119**DCL      4382<<CALLBLT  4385<<CALLBLT  4389<<CALLBLT  4408<<CALLBLT  4413<<CALLBLT  4420<<CALLBLT
      4425<<CALLBLT  4433<<ASSIGN   4437<<ASSIGN
PROMPT.VFC
       118**DCL      4444--ASSIGN   4448<<ASSIGN   4451<<ASSIGN
PRONEW$
       121**DCL      4452<<ASSIGN   4453>>IF       4462>>ASSIGN
PRONEW_SIZE
       120**DCL       125--IMP-SIZ  4386<<ASSIGN   4390<<ASSIGN   4410<<ASSIGN   4414<<ASSIGN   4422<<ASSIGN
      4426<<ASSIGN   4434<<ASSIGN   4438<<ASSIGN   4444<<ASSIGN   4444>>ASSIGN   4453>>IF       4457>>ASSIGN
      4462>>ASSIGN
PROOLD_SIZE
       122**DCL       127--IMP-SIZ  4445<<ASSIGN   4453>>IF       4453>>IF
SETIT
      4430**LABEL    4392--GOTO
S_D.BATCH
      2028**DCL      4458>>IF
S_D.CURRENT_CHANNEL
      2501**DCL      2503--REDEF
S_D.CURRENT_FPRG_CONTEXT$
      1701**DCL      4378>>CALLBLT  4378>>CALLBLT  4380>>ASSIGN   4398>>CALLBLT  4398>>CALLBLT  4400>>ASSIGN
      4408>>CALLBLT  4408>>CALLBLT  4410>>ASSIGN   4420>>CALLBLT  4420>>CALLBLT  4422>>ASSIGN
S_D.DEBUGA
      1653**DCL      1655--REDEF
S_D.EIS
      2611**DCL      2640--REDEF
S_D.FPRG
      1699**DCL      4376>>IF       4383>>IF       4396>>IF       4406>>IF       4418>>IF       4431>>IF
S_D.HOST_MESSAGE_BUF_REMOTE
      2544**DCL      2545--REDEF    2559--REDEF
S_D.INPUT
      1816**DCL      4470--CALL     4470--CALL
S_D.JDE
      2158**DCL      2159--REDEF
S_D.L$.VALUE
      1711**DCL      1717--REDEF    1725--REDEF    1728--REDEF    1731--REDEF    1734--REDEF
S_D.L$.VALUE.L
PL6.E3A0      #001=DDS$PROMPTC File=DUS$PROMPT.:E05TSI                           TUE 07/29/97 15:00 Page:29
      1712**DCL      1713--REDEF    1714--REDEF
S_D.L6_MESSAGE_BUF
      2565**DCL      2567--REDEF
S_D.MACTIVE
      1822**DCL      4402>>IF
S_D.MLCT
      2508**DCL      4404>>IF
S_D.OUTPUT
      2531**DCL      2533--REDEF
S_D.PROMPT
      2329**DCL      4453--IF       4456<<ASSIGN
S_D.PROMPT_SIZE
      2327**DCL      4445>>ASSIGN   4457<<ASSIGN
S_D.READPOS
      2317**DCL      4471<<ASSIGN   4471>>ASSIGN
S_D.REMOTE_MSG.FNCC
      2550**DCL      2551--REDEF
S_D.REMOTE_MSG.STXC
      2546**DCL      2547--REDEF
S_D.REMOTE_MSG.SUBFNCC
      2554**DCL      2555--REDEF
S_D.STORED
      1747**DCL      4382>>CALLBLT
S_D.SV
      1610**DCL      1631--REDEF
S_D.UFPROMPT
      2341**DCL      4378<<CALLBLT  4385>>CALLBLT  4398<<CALLBLT  4433>>ASSIGN
S_D.UFPROMPT_SIZE
      2343**DCL      4380<<ASSIGN   4386>>ASSIGN   4400<<ASSIGN   4434>>ASSIGN
S_D.UPROMPT
      2337**DCL      4389>>CALLBLT  4413>>CALLBLT  4425>>CALLBLT  4437>>ASSIGN
S_D.UPROMPT_SIZE
      2339**DCL      4390>>ASSIGN   4414>>ASSIGN   4426>>ASSIGN   4438>>ASSIGN
S_D.USVFC
      2321**DCL      4446>>IF       4449<<ASSIGN
S_D$
PL6.E3A0      #001=DDS$PROMPTC File=DUS$PROMPT.:E05TSI                           TUE 07/29/97 15:00 Page:30
      2862**DCL      1558--IMP-PTR  4376>>IF       4378>>CALLBLT  4378>>CALLBLT  4378>>CALLBLT  4380>>ASSIGN
      4380>>ASSIGN   4382>>CALLBLT  4383>>IF       4385>>CALLBLT  4386>>ASSIGN   4389>>CALLBLT  4390>>ASSIGN
      4396>>IF       4398>>CALLBLT  4398>>CALLBLT  4398>>CALLBLT  4400>>ASSIGN   4400>>ASSIGN   4402>>IF
      4404>>IF       4406>>IF       4408>>CALLBLT  4408>>CALLBLT  4410>>ASSIGN   4413>>CALLBLT  4414>>ASSIGN
      4418>>IF       4420>>CALLBLT  4420>>CALLBLT  4422>>ASSIGN   4425>>CALLBLT  4426>>ASSIGN   4431>>IF
      4433>>ASSIGN   4434>>ASSIGN   4437>>ASSIGN   4438>>ASSIGN   4445>>ASSIGN   4446>>IF       4449>>ASSIGN
      4453>>IF       4456>>ASSIGN   4457>>ASSIGN   4458>>IF       4470>>CALL     4471>>ASSIGN   4471>>ASSIGN
PL6.E3A0      #001=DDS$PROMPTC File=DUS$PROMPT.:E05TSI                           TUE 07/29/97 15:00 Page:31
              *** CROSS REFERENCE LISTING ***
    **     DENOTES     IDENTIFIER DEFINITION
    <<                 IDENTIFIER'S VALUE SET
    >>                 IDENTIFIER'S VALUE USED
    <>                 IDENTIFIER SET AND/OR USED
    --                 IDENTIFIER REFERENCED
PL6.E3A0      #001=DDS$PROMPTC File=DUS$PROMPT.:E05TSI                           TUE 07/29/97 15:00 Page:32
              MINI UREF LISTING

DDS$PROMPT    4394**ENTRY
DDS$PROMPTC      33**PROC
M$ACCT      61**DCL-ENT
M$ACTIVATE      64**DCL-ENT
M$ALIB      57**DCL-ENT
M$ASUSER      59**DCL-ENT
M$ATTACH      66**DCL-ENT
M$BADPP      84**DCL-ENT
M$CGCTL      65**DCL-ENT
M$CGINFO      65**DCL-ENT
M$CHECK      46**DCL-ENT
M$CHGUNIT     104**DCL-ENT
M$CLOSE      44**DCL-ENT
M$CLRSTK     102**DCL-ENT
M$CMDVAR     113**DCL-ENT
M$CONFIG      74**DCL-ENT
M$CORRES      49**DCL-ENT
M$CPEXIT      58**DCL-ENT
M$CVM      82**DCL-ENT
M$CVOL      47**DCL-ENT
M$DCLFLD      74**DCL-ENT
M$DEACTIVATE      64**DCL-ENT
M$DELREC      46**DCL-ENT
M$DEQ     111**DCL-ENT
M$DETACH      66**DCL-ENT
M$DEVICE      48**DCL-ENT
M$DISPLAY     111**DCL-ENT
M$DISPRES      51**DCL-ENT
M$DLIB      57**DCL-ENT
M$DRIBBLE      74**DCL-ENT
M$DRTN     102**DCL-ENT
M$DSUSER      59**DCL-ENT
PL6.E3A0      #001=DDS$PROMPTC File=DUS$PROMPT.:E05TSI                           TUE 07/29/97 15:00 Page:33
M$ENQ     110**DCL-ENT
M$EOM      69**DCL-ENT
M$ERASE      75**DCL-ENT
M$ERR      56**DCL-ENT
M$ERRMSG     107**DCL-ENT
M$EVENT      99**DCL-ENT
M$EXHUME     108**DCL-ENT
M$EXIT      56**DCL-ENT
M$EXTEND      48**DCL-ENT
M$FDP      80**DCL-ENT
M$FDS      79**DCL-ENT
M$FEBOOT      72**DCL-ENT
M$FECTL      73**DCL-ENT
M$FEDUMP      72**DCL-ENT
M$FID     107**DCL-ENT
M$FINDPROC      61**DCL-ENT
M$FSUSER      59**DCL-ENT
M$FVP      81**DCL-ENT
M$FWCG      65**DCL-ENT
M$GBPL      85**DCL-ENT
M$GDDL      81**DCL-ENT
M$GDP      80**DCL-ENT
M$GDS      79**DCL-ENT
M$GETDCB      50**DCL-ENT
M$GETMOUSE      90**DCL-ENT
M$GETPM      91**DCL-ENT
M$GJOB     109**DCL-ENT
M$GLINEATTR      69**DCL-ENT
M$GOODPP      84**DCL-ENT
M$GPLATEN      77**DCL-ENT
M$GPROMPT      76**DCL-ENT
M$GTRMATTR      70**DCL-ENT
M$GTRMCTL      68**DCL-ENT
M$GTRMTAB      71**DCL-ENT
M$GVP      80**DCL-ENT
M$HELP     107**DCL-ENT
PL6.E3A0      #001=DDS$PROMPTC File=DUS$PROMPT.:E05TSI                           TUE 07/29/97 15:00 Page:34
M$INT      99**DCL-ENT
M$INTRTN      60**DCL-ENT
M$IOQ      95**DCL-ENT
M$JOBSTATS     109**DCL-ENT
M$KEYIN      49**DCL-ENT
M$LDEV      44**DCL-ENT
M$LDTRC      57**DCL-ENT
M$LIMIT      50**DCL-ENT
M$LINES      49**DCL-ENT
M$LINK      56**DCL-ENT
M$MADMUCK      52**DCL-ENT
M$MAKUSER      83**DCL-ENT
M$MBS      51**DCL-ENT
M$MDFFLD      75**DCL-ENT
M$MERC     100**DCL-ENT
M$MERCS     101**DCL-ENT
M$MIRROR      95**DCL-ENT
M$MONINFO     112**DCL-ENT
M$MPL      85**DCL-ENT
M$NODEINFO      76**DCL-ENT
M$NXTUSR     110**DCL-ENT
M$OCMSG     108**DCL-ENT
M$OLAY      56**DCL-ENT
M$OPEN      44**DCL-ENT
M$PAS      85**DCL-ENT
M$PATHCON     108**DCL-ENT
M$PDS      79**DCL-ENT
M$PFIL      46**DCL-ENT
M$PLATEN      70**DCL-ENT
M$PRECORD      48**DCL-ENT
M$PROCNAME      61**DCL-ENT
M$PROFILE      72**DCL-ENT
M$RACST      52**DCL-ENT
M$RDSYSLOG      93**DCL-ENT
M$READ      45**DCL-ENT
M$RELDCB      50**DCL-ENT
PL6.E3A0      #001=DDS$PROMPTC File=DUS$PROMPT.:E05TSI                           TUE 07/29/97 15:00 Page:35
M$RELRES      51**DCL-ENT
M$RELSTARF      53**DCL-ENT
M$REM      53**DCL-ENT
M$RENV     100**DCL-ENT
M$REQUIRE      52**DCL-ENT
M$RETRY     101**DCL-ENT
M$RETRYS     101**DCL-ENT
M$REW      47**DCL-ENT
M$RLSFLD      75**DCL-ENT
M$RPRIV     103**DCL-ENT
M$RSPP      82**DCL-ENT
M$RSWITCH     104**DCL-ENT
M$RUE     110**DCL-ENT
M$SAD      83**DCL-ENT
M$SAVE      59**DCL-ENT
M$SCON      60**DCL-ENT
M$SCREECH      58**DCL-ENT
M$SENV     100**DCL-ENT
M$SETFMA      44**DCL-ENT
M$SETFP      73**DCL-ENT
M$SINPUT      71**DCL-ENT
M$SLCFLD      76**DCL-ENT
M$SMOUSE      90**DCL-ENT
M$SMPRT      82**DCL-ENT
M$SPRIV     103**DCL-ENT
M$SSC      83**DCL-ENT
M$SSWITCH     103**DCL-ENT
M$STATE     112**DCL-ENT
M$STD      84**DCL-ENT
M$STIMER      98**DCL-ENT
M$STLPP      81**DCL-ENT
M$STRAP      98**DCL-ENT
M$STRMATTR      70**DCL-ENT
M$STRMCTL      68**DCL-ENT
M$STRMTAB      71**DCL-ENT
M$SYMBIO     109**DCL-ENT
PL6.E3A0      #001=DDS$PROMPTC File=DUS$PROMPT.:E05TSI                           TUE 07/29/97 15:00 Page:36
M$SYSCON      95**DCL-ENT
M$SYSID     113**DCL-ENT
M$TDCLOSE      94**DCL-ENT
M$TDIO      94**DCL-ENT
M$TDOPEN      93**DCL-ENT
M$TDREQCPU      94**DCL-ENT
M$TEMPWROC      88**DCL-ENT
M$TIME     111**DCL-ENT
M$TRAP      98**DCL-ENT
M$TRMISC      73**DCL-ENT
M$TRMPRG      69**DCL-ENT
M$TRTN     102**DCL-ENT
M$TRUNC      45**DCL-ENT
M$TTIMER      98**DCL-ENT
M$UC      68**DCL
M$UMPL      85**DCL-ENT
M$UNFID     107**DCL-ENT
M$UNLATCH      64**DCL-ENT
M$UNSHARE      61**DCL-ENT
M$USRFIELD     104**DCL-ENT
M$VIRTUAL      79**DCL-ENT
M$WAIT     102**DCL-ENT
M$WEOF      47**DCL-ENT
M$WRITE      45**DCL-ENT
M$WRSYSLOG      93**DCL-ENT
M$XCON      99**DCL-ENT
M$XCONRTN      60**DCL-ENT
M$XEQTIME     112**DCL-ENT
M$XFLUSH      53**DCL-ENT
M$XMOUSE      90**DCL-ENT
M$XXX      56**DCL-ENT
M$YC      58**DCL-ENT
