PL6.E3A0      #002=DDS$SUCCESS File=DUS$SCAN.:E05TSI                             TUE 07/29/97 15:02 Page:164
      995        1        /*T***********************************************************/
      996        2        /*T*                                                         */
      997        3        /*T* Copyright (c) Bull HN Information Systems Inc., 1997    */
      998        4        /*T*                                                         */
      999        5        /*T***********************************************************/
     1000        6        /*D* NAME:  DDS$SUCCESS
     1001        7             CALL:  This routine is called by X$PARSE.
     1002        8             INTERFACE:  X$PARSE
     1003        9             ENVIRONMENT:  XDELTA OR USER DELTA
     1004       10             INPUT:  PARSE$PARAM FROM X$PARSE
     1005       11             OUTPUT:  PARSE$PARAM.ACCEPT
     1006       12                      DD_INSTR_CONT
     1007       13             SCRATCH:  None
     1008       14             DESCRIPTION:  This is the U$ routine for X$PARSE.  It is
     1009       15                  entered for success processing when HOST instructions
     1010       16                  are found.  It sets up the correct parse nodes for
     1011       17                  further parsing of the HOST instruction.  This is since
     1012       18                  EIS, DSC, and DFLT instructions all have different
     1013       19                  formats.                                                 */
     1014       20
     1015       21        DDS$SUCCESS: PROC( PARSE$PARAM );
     1016       22
     1017       23        %INCLUDE XU_MACRO_C;                    /* X$PARSE MACROS */
     1018     3129        %INCLUDE XU_SUBS_C;                     /* X$PARSE %SUBs */
     1019     3221        %PARSE$PARAM(NAME=PARSE$PARAM,
     1020     3222                     STCLASS=);
     1021     3303        %INCLUDE XUH_MACRO_C;
     1022     3387        %INCLUDE DD_SD_M;
     1023     4723        %S_D;
     1024     6041        %PARSE$SYM (NAME=OUT$SYM,STCLASS=BASED);
     1025     6079        %INCLUDE DD_SUBS_C;                     /* decoded instr defs */
     1026     6350        %INCLUDE DD_PSUBS_C;                    /* parse tree node defs */
     1027     6825        %INCLUDE DD_KNODES_D;                   /* INSTR node stuff */
     1028     7041        %NODE_DEFS;
     1029     7430        %INCLUDE DD$BASED;
     1030     8733
     1031     8734    1   DCL INSTR_MNEM CHAR(6);
PL6.E3A0      #002=DDS$SUCCESS File=DUS$SCAN.:E05TSI                             TUE 07/29/97 15:02 Page:165
     1032     8735    1   DCL DDB$MNEM_TO_INSTR ENTRY(2) ALTRET;
     1033     8736        %OP$TAB (STCLASS=AUTO);
     1034     8763    1   DCL INSTR_EIS SBIN SYMREF;
     1035     8764    1   DCL INSTR_ADSC SBIN SYMREF;
     1036     8765    1   DCL INSTR_BDSC SBIN SYMREF;
     1037     8766    1   DCL INSTR_NDSC SBIN SYMREF;
     1038     8767    1   DCL INSTR_SDSC SBIN SYMREF;
     1039     8768    1   DCL INSTR_VDSC SBIN SYMREF;
     1040     8769    1   DCL INSTR_DFLT SBIN SYMREF;
     1041     8770    1   DCL INSTR_ZERO SBIN SYMREF;
     1042     8771
     1043     8772    1        PARSE$PARAM.ACCEPT = '0'B;
     1044     8773    1        PARSE$PARAM.REJECT = '0'B;
     1045     8774    1        PARSE$PARAM.RETRY = '0'B;
     1046     8775    1        IF PARSE$PARAM.OUT$ ~= ADDR(NIL) AND
     1047     8776    1          PARSE$PARAM.OUT$ -> OUT$SYM.CODE = SYM_CODE
     1048     8777    2        THEN DO;
     1049     8778    2             INSTR_MNEM = PARSE$PARAM.OUT$ -> OUT$SYM.TEXT;
     1050     8779    2             DD_INSTR_CONT.SUBNDS$(0) = ADDR(INSTR_DFLT);
     1051     8780    2             CALL DDB$MNEM_TO_INSTR (INSTR_MNEM, OP$TAB)
     1052     8781    3             WHENALTRETURN DO;             /* can't find it */
     1053     8782    3                  PARSE$PARAM.REJECT = '1'B;
     1054     8783    3                  PARSE$PARAM.CHARPOS = PARSE$PARAM.OUT$ -> OUT$SYM.CPOS;
     1055     8784    3                  RETURN;
     1056     8785    3                END;
     1057     8786    2             IF OP$TAB.TYPE = T_INPUT
     1058     8787    3             THEN DO;
     1059     8788    4                  DO CASE (OP$TAB.OPCODE);
     1060     8789    4                    CASE (T_ADSC); DD_INSTR_CONT.SUBNDS$(0) = ADDR(INSTR_ADSC);
     1061     8790    4                    CASE (T_BDSC); DD_INSTR_CONT.SUBNDS$(0) = ADDR(INSTR_BDSC);
     1062     8791    4                    CASE (T_NDSC); DD_INSTR_CONT.SUBNDS$(0) = ADDR(INSTR_NDSC);
     1063     8792    4                    CASE (T_SDSC); DD_INSTR_CONT.SUBNDS$(0) = ADDR(INSTR_SDSC);
     1064     8793    4                    CASE (T_VDSC); DD_INSTR_CONT.SUBNDS$(0) = ADDR(INSTR_VDSC);
     1065     8794    4                    CASE (T_ZERO); DD_INSTR_CONT.SUBNDS$(0) = ADDR(INSTR_ZERO);
     1066     8795    4                    CASE (T_PTR); DD_INSTR_CONT.SUBNDS$(0) = ADDR(INSTR_ZERO);
     1067     8796    4                    END;                   /* do case */
     1068     8797    3                END;                       /* then do */
PL6.E3A0      #002=DDS$SUCCESS File=DUS$SCAN.:E05TSI                             TUE 07/29/97 15:02 Page:166
     1069     8798    2             IF OP$TAB.TYPE = T_EIS
     1070     8799    3             THEN DO;
     1071     8800    3                  DD_INSTR_CONT.SUBNDS$(0) = ADDR(INSTR_EIS);
     1072     8801    3                END;
     1073     8802    2           END;                            /* if OUT$SYM.CODE = SYM_CODE */
     1074     8803    2        ELSE DO;                           /* assume its a RUM command */
     1075     8804    2             S_D.RUM_COMMAND = '1'B;
     1076     8805    2           END;
     1077     8806    1        PARSE$PARAM.ACCEPT = '1'B;
     1078     8807
     1079     8808    1        RETURN;
     1080     8809
     1081     8810    1   END DDS$SUCCESS;
     1082     8811        %EOD;

PL6.E3A0      #002=DDS$SUCCESS File=DUS$SCAN.:E05TSI                             TUE 07/29/97 15:02 Page:167
--  Include file information  --

   DD$BASED.:E05TOU  is referenced.
   DD_KNODES_D.:E05TOU  is referenced.
   DD_PSUBS_C.:E05TOU  is referenced.
   DD_SUBS_C.:E05TOU  is referenced.
   DD_SD_M.:E05TOU  is referenced.
   XUH_MACRO_C.:E05TOU  is referenced.
   XU_SUBS_C.:E05TOU  is referenced.
   XU_MACRO_C.:E05TOU  is referenced.
   B$JIT_C.:E05TOU  was found in the system file and is never referenced.
   CP_6_C.:E05TOU  was found in the system file and is never referenced.
      No diagnostics issued in procedure DDS$SUCCESS.

   Procedure DDS$SUCCESS requires 110 words for executable code.
   Procedure DDS$SUCCESS requires 12 words of local(AUTO) storage.

PL6.E3A0      #002=DDS$SUCCESS File=DUS$SCAN.:E05TSI                             TUE 07/29/97 15:02 Page:168

 Object Unit name= DDS$SUCCESS                                File name= DUS$SCAN.:E05TOU
 UTS= JUL 29 '97 15:02:24.28 TUE                              Compiler= PL-6/E31         Sev=      00
 SharedLib= :SHARED_SYSTEM                                    Alt SharedLib=


    ****  Control sections  ****

 Sect   Type Bound  Init  Size OctSiz  Section name(segment info)
    0   Proc  even  none   110    156  DDS$SUCCESS
    1  RoData even  none    12     14  DDS$SUCCESS

    ****  Entry defs  ****

                              Check   Calling
                             calling  sequence
  Sect OctLoc Primary Altret sequence   type   Parms  Name
     0      0   yes            yes      Std        1  DDS$SUCCESS

  ****  Entry refs  ****

         Check        Calling
        calling       sequence
Altret sequence SRef   type   Args  Name
 yes     yes           Std       2 DDB$MNEM_TO_INSTR
                       nStd      0 X66_AUTO_1
                       Std       0 B_CONSPOOL_D
                       nStd      0 X66_ARET

  ****  Data refs  ****

  Flags:  r = read only, s = secondary
Flgs Name                             Flgs Name                             Flgs Name
r    S_D$                                  INSTR_EIS                             INSTR_ADSC
     INSTR_BDSC                            INSTR_NDSC                            INSTR_SDSC
     INSTR_VDSC                            INSTR_DFLT                            INSTR_ZERO
     B_VECTNIL
PL6.E3A0      #002=DDS$SUCCESS File=DUS$SCAN.:E05TSI                             TUE 07/29/97 15:02 Page:169

  ****  Segment refs  ****

  Flags:  r = read only, s = secondary
Flgs Name                             Flgs Name                             Flgs Name
     DD_INSTR_CONT                         ISSID
PL6.E3A0      #002=DDS$SUCCESS File=DUS$SCAN.:E05TSI                             TUE 07/29/97 15:02 Page:170


      995        1        /*T***********************************************************/
      996        2        /*T*                                                         */
      997        3        /*T* Copyright (c) Bull HN Information Systems Inc., 1997    */
      998        4        /*T*                                                         */
      999        5        /*T***********************************************************/
     1000        6        /*D* NAME:  DDS$SUCCESS
     1001        7             CALL:  This routine is called by X$PARSE.
     1002        8             INTERFACE:  X$PARSE
     1003        9             ENVIRONMENT:  XDELTA OR USER DELTA
     1004       10             INPUT:  PARSE$PARAM FROM X$PARSE
     1005       11             OUTPUT:  PARSE$PARAM.ACCEPT
     1006       12                      DD_INSTR_CONT
     1007       13             SCRATCH:  None
     1008       14             DESCRIPTION:  This is the U$ routine for X$PARSE.  It is
     1009       15                  entered for success processing when HOST instructions
     1010       16                  are found.  It sets up the correct parse nodes for
     1011       17                  further parsing of the HOST instruction.  This is since
     1012       18                  EIS, DSC, and DFLT instructions all have different
     1013       19                  formats.                                                 */
     1014       20
     1015       21        DDS$SUCCESS: PROC( PARSE$PARAM );

     21  0 000000   000000 700200 xent  DDS$SUCCESS  TSX0  ! X66_AUTO_1
         0 000001   000014 000001                    ZERO    12,1

     1016       22
     1017       23        %INCLUDE XU_MACRO_C;                    /* X$PARSE MACROS */
     1018     3129        %INCLUDE XU_SUBS_C;                     /* X$PARSE %SUBs */
     1019     3221        %PARSE$PARAM(NAME=PARSE$PARAM,
     1020     3222                     STCLASS=);
     1021     3303        %INCLUDE XUH_MACRO_C;
     1022     3387        %INCLUDE DD_SD_M;
     1023     4723        %S_D;
     1024     6041        %PARSE$SYM (NAME=OUT$SYM,STCLASS=BASED);
     1025     6079        %INCLUDE DD_SUBS_C;                     /* decoded instr defs */
     1026     6350        %INCLUDE DD_PSUBS_C;                    /* parse tree node defs */
PL6.E3A0      #002=DDS$SUCCESS File=DUS$SCAN.:E05TSI                             TUE 07/29/97 15:02 Page:171
     1027     6825        %INCLUDE DD_KNODES_D;                   /* INSTR node stuff */
     1028     7041        %NODE_DEFS;
     1029     7430        %INCLUDE DD$BASED;
     1030     8733
     1031     8734    1   DCL INSTR_MNEM CHAR(6);
     1032     8735    1   DCL DDB$MNEM_TO_INSTR ENTRY(2) ALTRET;
     1033     8736        %OP$TAB (STCLASS=AUTO);
     1034     8763    1   DCL INSTR_EIS SBIN SYMREF;
     1035     8764    1   DCL INSTR_ADSC SBIN SYMREF;
     1036     8765    1   DCL INSTR_BDSC SBIN SYMREF;
     1037     8766    1   DCL INSTR_NDSC SBIN SYMREF;
     1038     8767    1   DCL INSTR_SDSC SBIN SYMREF;
     1039     8768    1   DCL INSTR_VDSC SBIN SYMREF;
     1040     8769    1   DCL INSTR_DFLT SBIN SYMREF;
     1041     8770    1   DCL INSTR_ZERO SBIN SYMREF;
     1042     8771
     1043     8772    1        PARSE$PARAM.ACCEPT = '0'B;

   8772  0 000002   200003 470500                    LDP0    @PARSE$PARAM,,AUTO
         0 000003   000000 236000 1                  LDQ     0
         0 000004   000000 356100                    ANSQ    0,,PR0

     1044     8773    1        PARSE$PARAM.REJECT = '0'B;

   8773  0 000005   000001 236000 1                  LDQ     1
         0 000006   000000 356100                    ANSQ    0,,PR0

     1045     8774    1        PARSE$PARAM.RETRY = '0'B;

   8774  0 000007   000002 236000 1                  LDQ     2
         0 000010   000000 356100                    ANSQ    0,,PR0

     1046     8775    1        IF PARSE$PARAM.OUT$ ~= ADDR(NIL) AND

   8775  0 000011   000002 236100                    LDQ     2,,PR0
         0 000012   000001 116000 xsym               CMPQ    B_VECTNIL+1
         0 000013   000147 600000 0                  TZE     s:8804
PL6.E3A0      #002=DDS$SUCCESS File=DUS$SCAN.:E05TSI                             TUE 07/29/97 15:02 Page:172
         0 000014   000002 471500                    LDP1    2,,PR0
         0 000015   100000 720100                    LXL0    0,,PR1
         0 000016   000016 100003                    CMPX0   14,DU
         0 000017   000147 601000 0                  TNZ     s:8804

     1047     8776    1          PARSE$PARAM.OUT$ -> OUT$SYM.CODE = SYM_CODE
     1048     8777    2        THEN DO;

     1049     8778    2             INSTR_MNEM = PARSE$PARAM.OUT$ -> OUT$SYM.TEXT;

   8778  0 000020   100004 236100                    LDQ     4,,PR1
         0 000021   000033 772000                    QRL     27
         0 000022   000000 621006                    EAX1    0,QL
         0 000023   040100 100540                    MLR     fill='040'O
         0 000024   100004 200011                    ADSC9   4,,PR1                   cn=1,n=*X1
         0 000025   200004 000006                    ADSC9   INSTR_MNEM,,AUTO         cn=0,n=6

     1050     8779    2             DD_INSTR_CONT.SUBNDS$(0) = ADDR(INSTR_DFLT);

   8779  0 000026   000003 236000 1                  LDQ     3
         0 000027   000004 471400 1                  LDP1    4
         0 000030   100001 756100                    STQ     1,,PR1

     1051     8780    2             CALL DDB$MNEM_TO_INSTR (INSTR_MNEM, OP$TAB)

   8780  0 000031   200006 633500                    EPPR3   OP$TAB,,AUTO
         0 000032   200013 453500                    STP3    OP$TAB+5,,AUTO
         0 000033   200004 634500                    EPPR4   INSTR_MNEM,,AUTO
         0 000034   200012 454500                    STP4    OP$TAB+4,,AUTO
         0 000035   200012 630500                    EPPR0   OP$TAB+4,,AUTO
         0 000036   000020 631400 xsym               EPPR1   B_VECTNIL+16
         0 000037   000000 701000 xent               TSX1    DDB$MNEM_TO_INSTR
         0 000040   000042 702000 0                  TSX2    s:8782
         0 000041   000051 710000 0                  TRA     s:8786

     1052     8781    3             WHENALTRETURN DO;             /* can't find it */

PL6.E3A0      #002=DDS$SUCCESS File=DUS$SCAN.:E05TSI                             TUE 07/29/97 15:02 Page:173
     1053     8782    3                  PARSE$PARAM.REJECT = '1'B;

   8782  0 000042   200003 470500                    LDP0    @PARSE$PARAM,,AUTO
         0 000043   000200 236003                    LDQ     128,DU
         0 000044   000000 256100                    ORSQ    0,,PR0

     1054     8783    3                  PARSE$PARAM.CHARPOS = PARSE$PARAM.OUT$ -> OUT$SYM.CPOS;

   8783  0 000045   000002 471500                    LDP1    2,,PR0
         0 000046   100002 235100                    LDA     2,,PR1
         0 000047   000004 755100                    STA     4,,PR0

     1055     8784    3                  RETURN;

   8784  0 000050   000000 702200 xent               TSX2  ! X66_ARET

     1056     8785    3                END;
     1057     8786    2             IF OP$TAB.TYPE = T_INPUT

   8786  0 000051   200006 236100                    LDQ     OP$TAB,,AUTO
         0 000052   000370 376007                    ANQ     248,DL
         0 000053   000060 116007                    CMPQ    48,DL
         0 000054   000137 601000 0                  TNZ     s:8798

     1058     8787    3             THEN DO;

     1059     8788    4                  DO CASE (OP$TAB.OPCODE);

   8788  0 000055   200006 236100                    LDQ     OP$TAB,,AUTO
         0 000056   000010 772000                    QRL     8
         0 000057   001777 376007                    ANQ     1023,DL
         0 000060   000021 116007                    CMPQ    17,DL
         0 000061   000063 602006 0                  TNC     s:8788+6,QL
         0 000062   000137 710000 0                  TRA     s:8798
         0 000063   000137 710000 0                  TRA     s:8798
         0 000064   000137 710000 0                  TRA     s:8798
         0 000065   000104 710000 0                  TRA     s:8789
PL6.E3A0      #002=DDS$SUCCESS File=DUS$SCAN.:E05TSI                             TUE 07/29/97 15:02 Page:174
         0 000066   000137 710000 0                  TRA     s:8798
         0 000067   000110 710000 0                  TRA     s:8790
         0 000070   000137 710000 0                  TRA     s:8798
         0 000071   000114 710000 0                  TRA     s:8791
         0 000072   000137 710000 0                  TRA     s:8798
         0 000073   000120 710000 0                  TRA     s:8792
         0 000074   000137 710000 0                  TRA     s:8798
         0 000075   000124 710000 0                  TRA     s:8793
         0 000076   000137 710000 0                  TRA     s:8798
         0 000077   000137 710000 0                  TRA     s:8798
         0 000100   000137 710000 0                  TRA     s:8798
         0 000101   000130 710000 0                  TRA     s:8794
         0 000102   000137 710000 0                  TRA     s:8798
         0 000103   000134 710000 0                  TRA     s:8795

     1060     8789    4                    CASE (T_ADSC); DD_INSTR_CONT.SUBNDS$(0) = ADDR(INSTR_ADSC);

   8789  0 000104   000005 236000 1                  LDQ     5
         0 000105   000004 470400 1                  LDP0    4
         0 000106   000001 756100                    STQ     1,,PR0
         0 000107   000137 710000 0                  TRA     s:8798

     1061     8790    4                    CASE (T_BDSC); DD_INSTR_CONT.SUBNDS$(0) = ADDR(INSTR_BDSC);

   8790  0 000110   000006 236000 1                  LDQ     6
         0 000111   000004 470400 1                  LDP0    4
         0 000112   000001 756100                    STQ     1,,PR0
         0 000113   000137 710000 0                  TRA     s:8798

     1062     8791    4                    CASE (T_NDSC); DD_INSTR_CONT.SUBNDS$(0) = ADDR(INSTR_NDSC);

   8791  0 000114   000007 236000 1                  LDQ     7
         0 000115   000004 470400 1                  LDP0    4
         0 000116   000001 756100                    STQ     1,,PR0
         0 000117   000137 710000 0                  TRA     s:8798

     1063     8792    4                    CASE (T_SDSC); DD_INSTR_CONT.SUBNDS$(0) = ADDR(INSTR_SDSC);
PL6.E3A0      #002=DDS$SUCCESS File=DUS$SCAN.:E05TSI                             TUE 07/29/97 15:02 Page:175

   8792  0 000120   000010 236000 1                  LDQ     8
         0 000121   000004 470400 1                  LDP0    4
         0 000122   000001 756100                    STQ     1,,PR0
         0 000123   000137 710000 0                  TRA     s:8798

     1064     8793    4                    CASE (T_VDSC); DD_INSTR_CONT.SUBNDS$(0) = ADDR(INSTR_VDSC);

   8793  0 000124   000011 236000 1                  LDQ     9
         0 000125   000004 470400 1                  LDP0    4
         0 000126   000001 756100                    STQ     1,,PR0
         0 000127   000137 710000 0                  TRA     s:8798

     1065     8794    4                    CASE (T_ZERO); DD_INSTR_CONT.SUBNDS$(0) = ADDR(INSTR_ZERO);

   8794  0 000130   000012 236000 1                  LDQ     10
         0 000131   000004 470400 1                  LDP0    4
         0 000132   000001 756100                    STQ     1,,PR0
         0 000133   000137 710000 0                  TRA     s:8798

     1066     8795    4                    CASE (T_PTR); DD_INSTR_CONT.SUBNDS$(0) = ADDR(INSTR_ZERO);

   8795  0 000134   000012 236000 1                  LDQ     10
         0 000135   000004 470400 1                  LDP0    4
         0 000136   000001 756100                    STQ     1,,PR0

     1067     8796    4                    END;                   /* do case */

     1068     8797    3                END;                       /* then do */

     1069     8798    2             IF OP$TAB.TYPE = T_EIS

   8798  0 000137   200006 236100                    LDQ     OP$TAB,,AUTO
         0 000140   000370 376007                    ANQ     248,DL
         0 000141   000010 116007                    CMPQ    8,DL
         0 000142   000152 601000 0                  TNZ     s:8806

PL6.E3A0      #002=DDS$SUCCESS File=DUS$SCAN.:E05TSI                             TUE 07/29/97 15:02 Page:176
     1070     8799    3             THEN DO;

     1071     8800    3                  DD_INSTR_CONT.SUBNDS$(0) = ADDR(INSTR_EIS);

   8800  0 000143   000013 236000 1                  LDQ     11
         0 000144   000004 470400 1                  LDP0    4
         0 000145   000001 756100                    STQ     1,,PR0

     1072     8801    3                END;

     1073     8802    2           END;                            /* if OUT$SYM.CODE = SYM_CODE */

   8802  0 000146   000152 710000 0                  TRA     s:8806

     1074     8803    2        ELSE DO;                           /* assume its a RUM command */

     1075     8804    2             S_D.RUM_COMMAND = '1'B;

   8804  0 000147   400000 236003                    LDQ     -131072,DU
         0 000150   000000 471400 xsym               LDP1    S_D$
         0 000151   100072 756100                    STQ     58,,PR1

     1076     8805    2           END;

     1077     8806    1        PARSE$PARAM.ACCEPT = '1'B;

   8806  0 000152   200003 470500                    LDP0    @PARSE$PARAM,,AUTO
         0 000153   000400 236003                    LDQ     256,DU
         0 000154   000000 256100                    ORSQ    0,,PR0

     1078     8807
     1079     8808    1        RETURN;

   8808  0 000155   000000 702200 xent               TSX2  ! X66_ARET

(unnamed)
 Sect OctLoc
PL6.E3A0      #002=DDS$SUCCESS File=DUS$SCAN.:E05TSI                             TUE 07/29/97 15:02 Page:177
   1     000   777377 777777   777577 777777   777677 777777   000000 006000    ................
   1     004   000000 000000   000000 006000   000000 006000   000000 006000    ................
   1     010   000000 006000   000000 006000   000000 006000   000000 006000    ................
     1080     8809
     1081     8810    1   END DDS$SUCCESS;
     1082     8811        %EOD;

PL6.E3A0      #002=DDS$SUCCESS File=DUS$SCAN.:E05TSI                             TUE 07/29/97 15:02 Page:178
--  Include file information  --

   DD$BASED.:E05TOU  is referenced.
   DD_KNODES_D.:E05TOU  is referenced.
   DD_PSUBS_C.:E05TOU  is referenced.
   DD_SUBS_C.:E05TOU  is referenced.
   DD_SD_M.:E05TOU  is referenced.
   XUH_MACRO_C.:E05TOU  is referenced.
   XU_SUBS_C.:E05TOU  is referenced.
   XU_MACRO_C.:E05TOU  is referenced.
   B$JIT_C.:E05TOU  was found in the system file and is never referenced.
   CP_6_C.:E05TOU  was found in the system file and is never referenced.
      No diagnostics issued in procedure DDS$SUCCESS.

   Procedure DDS$SUCCESS requires 110 words for executable code.
   Procedure DDS$SUCCESS requires 12 words of local(AUTO) storage.
PL6.E3A0      #002=DDS$SUCCESS File=DUS$SCAN.:E05TSI                             TUE 07/29/97 15:02 Page:179
          *** CROSS REFERENCE LISTING ***
**     DENOTES     IDENTIFIER DEFINITION
<<                 IDENTIFIER'S VALUE SET
>>                 IDENTIFIER'S VALUE USED
<>                 IDENTIFIER SET AND/OR USED
--                 IDENTIFIER REFERENCED
PL6.E3A0      #002=DDS$SUCCESS File=DUS$SCAN.:E05TSI                             TUE 07/29/97 15:02 Page:180
          MINI XREF LISTING

DDB$MNEM_TO_INSTR
      8735**DCL-ENT  8780--CALL
DD_INSTR_CONT.SUBNDS$
      7135**DCL      8779<<ASSIGN   8789<<ASSIGN   8790<<ASSIGN   8791<<ASSIGN   8792<<ASSIGN   8793<<ASSIGN
      8794<<ASSIGN   8795<<ASSIGN   8800<<ASSIGN
INSTR_ADSC
      8764**DCL      8789--ASSIGN
INSTR_BDSC
      8765**DCL      8790--ASSIGN
INSTR_DFLT
      8769**DCL      8779--ASSIGN
INSTR_EIS
      8763**DCL      8800--ASSIGN
INSTR_MNEM
      8734**DCL      8778<<ASSIGN   8780<>CALL
INSTR_NDSC
      8766**DCL      8791--ASSIGN
INSTR_SDSC
      8767**DCL      8792--ASSIGN
INSTR_VDSC
      8768**DCL      8793--ASSIGN
INSTR_ZERO
      8770**DCL      8794--ASSIGN   8795--ASSIGN
OP$TAB
      8737**DCL      8780<>CALL
OP$TAB.EIS
      8739**DCL      8747--REDEF
OP$TAB.OPCODE
      8754**DCL      8788>>DOCASE
OP$TAB.TYPE
      8755**DCL      8786>>IF       8798>>IF
OUT$SYM.CODE
PL6.E3A0      #002=DDS$SUCCESS File=DUS$SCAN.:E05TSI                             TUE 07/29/97 15:02 Page:181
      6054**DCL      8775>>IF
OUT$SYM.COUNT
      6071**DCL      6074--IMP-SIZ  8778>>ASSIGN
OUT$SYM.CPOS
      6063**DCL      8783>>ASSIGN
OUT$SYM.TEXT
      6074**DCL      8778>>ASSIGN
PARSE$PARAM
      3241**DCL        21--PROC
PARSE$PARAM.ACCEPT
      3248**DCL      8772<<ASSIGN   8806<<ASSIGN
PARSE$PARAM.CHARPOS
      3279**DCL      8783<<ASSIGN
PARSE$PARAM.OUT$
      3271**DCL      8775>>IF       8775>>IF       8778>>ASSIGN   8778>>ASSIGN   8783>>ASSIGN
PARSE$PARAM.REJECT
      3253**DCL      8773<<ASSIGN   8782<<ASSIGN
PARSE$PARAM.RETRY
      3257**DCL      8774<<ASSIGN
S_D.CURRENT_CHANNEL
      5675**DCL      5677--REDEF
S_D.DEBUGA
      4827**DCL      4829--REDEF
S_D.EIS
      5785**DCL      5814--REDEF
S_D.HOST_MESSAGE_BUF_REMOTE
      5718**DCL      5719--REDEF    5733--REDEF
S_D.JDE
      5332**DCL      5333--REDEF
S_D.L$.VALUE
      4885**DCL      4891--REDEF    4899--REDEF    4902--REDEF    4905--REDEF    4908--REDEF
S_D.L$.VALUE.L
      4886**DCL      4887--REDEF    4888--REDEF
S_D.L6_MESSAGE_BUF
      5739**DCL      5741--REDEF
S_D.OUTPUT
PL6.E3A0      #002=DDS$SUCCESS File=DUS$SCAN.:E05TSI                             TUE 07/29/97 15:02 Page:182
      5705**DCL      5707--REDEF
S_D.REMOTE_MSG.FNCC
      5724**DCL      5725--REDEF
S_D.REMOTE_MSG.STXC
      5720**DCL      5721--REDEF
S_D.REMOTE_MSG.SUBFNCC
      5728**DCL      5729--REDEF
S_D.RUM_COMMAND
      4859**DCL      8804<<ASSIGN
S_D.SV
      4784**DCL      4805--REDEF
S_D$
      6036**DCL      4732--IMP-PTR  8804>>ASSIGN
PL6.E3A0      #002=DDS$SUCCESS File=DUS$SCAN.:E05TSI                             TUE 07/29/97 15:02 Page:183
              *** CROSS REFERENCE LISTING ***
    **     DENOTES     IDENTIFIER DEFINITION
    <<                 IDENTIFIER'S VALUE SET
    >>                 IDENTIFIER'S VALUE USED
    <>                 IDENTIFIER SET AND/OR USED
    --                 IDENTIFIER REFERENCED
PL6.E3A0      #002=DDS$SUCCESS File=DUS$SCAN.:E05TSI                             TUE 07/29/97 15:02 Page:184
              MINI UREF LISTING

DD$COMP_NODE_PTR$    7050**DCL
DDS$SUCCESS      21**PROC
DD_COMPNODE$    7048**DCL
DD_COMP_NODE_PTR$    7049**DCL
DD_HOST_NODE_PTR$    7045**DCL
DD_L6X_NODE_PTR$    7047**DCL
DD_L6_NODE_PTR$    7046**DCL
DD_MODE_NODE_PTR$    7044**DCL
DD_NODE    7163**DCL

PL6.E3A0      #003=DUS$SCANREAD File=DUS$SCAN.:E05TSI                            TUE 07/29/97 15:02 Page:185
     1083        1        /*T***********************************************************/
     1084        2        /*T*                                                         */
     1085        3        /*T* Copyright (c) Bull HN Information Systems Inc., 1997    */
     1086        4        /*T*                                                         */
     1087        5        /*T***********************************************************/
     1088        6        DUS$SCANREAD: PROC (BUFVEC, ARS, READR$);
     1089        7
     1090        8    1   DCL BUFVEC VECTOR;
     1091        9    1   DCL ARS SBIN;
     1092       10    1   DCL READR$ EPTR;
     1093       11
     1094       12        %INCLUDE XUH_MACRO_C;
     1095       96        %INCLUDE DD_SD_M;
     1096     1432    1   DCL B$CHAR CHAR(300) BASED;
     1097     1433        %S_D;
     1098     2751
     1099     2752    1        IF S_D.BEEN_TO_SCANREAD THEN UNWIND TO S_D.PARSMORE_REM;
     1100     2753    1        VBASE(BUFVEC)->B$CHAR = S_D.INPUT;
     1101     2754    1        ARS = S_D.NCHARS;
     1102     2755    1        S_D.BEEN_TO_SCANREAD = '1'B;
     1103     2756
     1104     2757    1        RETURN;
     1105     2758
     1106     2759    1   DUS$POST_EXEC: ENTRY;
     1107     2760
     1108     2761    1        S_D.XUG_BUILTIN = '1'B;
     1109     2762    1        RETURN;
     1110     2763
     1111     2764    1   END DUS$SCANREAD;

PL6.E3A0      #003=DUS$SCANREAD File=DUS$SCAN.:E05TSI                            TUE 07/29/97 15:02 Page:186
--  Include file information  --

   DD_SD_M.:E05TOU  is referenced.
   XUH_MACRO_C.:E05TOU  is referenced.
   B$JIT_C.:E05TOU  was found in the system file and is never referenced.
   CP_6_C.:E05TOU  was found in the system file and is never referenced.
      No diagnostics issued in procedure DUS$SCANREAD.

   Procedure DUS$SCANREAD requires 25 words for executable code.
   Procedure DUS$SCANREAD requires 6 words of local(AUTO) storage.

    No errors detected in file DUS$SCAN.:E05TSI    .

PL6.E3A0      #003=DUS$SCANREAD File=DUS$SCAN.:E05TSI                            TUE 07/29/97 15:02 Page:187

 Object Unit name= DUS$SCANREAD                               File name= DUS$SCAN.:E05TOU
 UTS= JUL 29 '97 15:02:36.60 TUE                              Compiler= PL-6/E31         Sev=      00
 SharedLib= :SHARED_SYSTEM                                    Alt SharedLib=


    ****  Control sections  ****

 Sect   Type Bound  Init  Size OctSiz  Section name(segment info)
    0   Proc  even  none    25     31  DUS$SCANREAD

    ****  Entry defs  ****

                              Check   Calling
                             calling  sequence
  Sect OctLoc Primary Altret sequence   type   Parms  Name
     0      0   yes            yes      Std        3  DUS$SCANREAD
     0     23                  yes      Std        0  DUS$POST_EXEC

  ****  Entry refs  ****

         Check        Calling
        calling       sequence
Altret sequence SRef   type   Args  Name
                       nStd      0 X66_AUTO_3
                       nStd      0 X66_AUNWIND
                       nStd      0 X66_ARET

  ****  Data refs  ****

  Flags:  r = read only, s = secondary
Flgs Name                             Flgs Name                             Flgs Name
r    S_D$
PL6.E3A0      #003=DUS$SCANREAD File=DUS$SCAN.:E05TSI                            TUE 07/29/97 15:02 Page:188


     1083        1        /*T***********************************************************/
     1084        2        /*T*                                                         */
     1085        3        /*T* Copyright (c) Bull HN Information Systems Inc., 1997    */
     1086        4        /*T*                                                         */
     1087        5        /*T***********************************************************/
     1088        6        DUS$SCANREAD: PROC (BUFVEC, ARS, READR$);

      6  0 000000   000000 700200 xent  DUS$SCANREAD TSX0  ! X66_AUTO_3
         0 000001   000006 000003                    ZERO    6,3

     1089        7
     1090        8    1   DCL BUFVEC VECTOR;
     1091        9    1   DCL ARS SBIN;
     1092       10    1   DCL READR$ EPTR;
     1093       11
     1094       12        %INCLUDE XUH_MACRO_C;
     1095       96        %INCLUDE DD_SD_M;
     1096     1432    1   DCL B$CHAR CHAR(300) BASED;
     1097     1433        %S_D;
     1098     2751
     1099     2752    1        IF S_D.BEEN_TO_SCANREAD THEN UNWIND TO S_D.PARSMORE_REM;

   2752  0 000002   000000 470400 xsym               LDP0    S_D$
         0 000003   006726 234100                    SZN     3542,,PR0
         0 000004   000010 605000 0                  TPL     s:2753

   2752  0 000005   006732 237300                    LDAQ  ! 3546,,PR0
         0 000006   000000 700200 xent               TSX0  ! X66_AUNWIND
         0 000007   000000 000200                    ZERO    0,128

     1100     2753    1        VBASE(BUFVEC)->B$CHAR = S_D.INPUT;

   2753  0 000010   200003 471500                    LDP1    @BUFVEC,,AUTO
         0 000011   100001 473500                    LDP3    1,,PR1
         0 000012   040100 100500                    MLR     fill='040'O
         0 000013   000610 000400                    ADSC9   392,,PR0                 cn=0,n=256
PL6.E3A0      #003=DUS$SCANREAD File=DUS$SCAN.:E05TSI                            TUE 07/29/97 15:02 Page:189
         0 000014   300000 000454                    ADSC9   0,,PR3                   cn=0,n=300

     1101     2754    1        ARS = S_D.NCHARS;

   2754  0 000015   200004 473500                    LDP3    @ARS,,AUTO
         0 000016   000065 235100                    LDA     53,,PR0
         0 000017   300000 755100                    STA     0,,PR3

     1102     2755    1        S_D.BEEN_TO_SCANREAD = '1'B;

   2755  0 000020   400000 236003                    LDQ     -131072,DU
         0 000021   006726 756100                    STQ     3542,,PR0

     1103     2756
     1104     2757    1        RETURN;

   2757  0 000022   000000 702200 xent               TSX2  ! X66_ARET

     1105     2758
     1106     2759    1   DUS$POST_EXEC: ENTRY;

   2759  0 000023   000000 700200 xent  DUS$POST_EX* TSX0  ! X66_AUTO_3
         0 000024   000006 000003                    ZERO    6,3

     1107     2760
     1108     2761    1        S_D.XUG_BUILTIN = '1'B;

   2761  0 000025   400000 236003                    LDQ     -131072,DU
         0 000026   000000 470400 xsym               LDP0    S_D$
         0 000027   006742 756100                    STQ     3554,,PR0

     1109     2762    1        RETURN;

   2762  0 000030   000000 702200 xent               TSX2  ! X66_ARET
     1110     2763
     1111     2764    1   END DUS$SCANREAD;

PL6.E3A0      #003=DUS$SCANREAD File=DUS$SCAN.:E05TSI                            TUE 07/29/97 15:02 Page:190
--  Include file information  --

   DD_SD_M.:E05TOU  is referenced.
   XUH_MACRO_C.:E05TOU  is referenced.
   B$JIT_C.:E05TOU  was found in the system file and is never referenced.
   CP_6_C.:E05TOU  was found in the system file and is never referenced.
      No diagnostics issued in procedure DUS$SCANREAD.

   Procedure DUS$SCANREAD requires 25 words for executable code.
   Procedure DUS$SCANREAD requires 6 words of local(AUTO) storage.

    No errors detected in file DUS$SCAN.:E05TSI    .
PL6.E3A0      #003=DUS$SCANREAD File=DUS$SCAN.:E05TSI                            TUE 07/29/97 15:02 Page:191
          *** CROSS REFERENCE LISTING ***
**     DENOTES     IDENTIFIER DEFINITION
<<                 IDENTIFIER'S VALUE SET
>>                 IDENTIFIER'S VALUE USED
<>                 IDENTIFIER SET AND/OR USED
--                 IDENTIFIER REFERENCED
PL6.E3A0      #003=DUS$SCANREAD File=DUS$SCAN.:E05TSI                            TUE 07/29/97 15:02 Page:192
          MINI XREF LISTING

ARS
         9**DCL         6--PROC     2754<<ASSIGN
B$CHAR
      1432**DCL      2753<<ASSIGN
BUFVEC
         8**DCL         6--PROC     2753>>ASSIGN
READR$
        10**DCL         6--PROC
S_D.BEEN_TO_SCANREAD
      2481**DCL      2752>>IF       2755<<ASSIGN
S_D.CURRENT_CHANNEL
      2385**DCL      2387--REDEF
S_D.DEBUGA
      1537**DCL      1539--REDEF
S_D.EIS
      2495**DCL      2524--REDEF
S_D.HOST_MESSAGE_BUF_REMOTE
      2428**DCL      2429--REDEF    2443--REDEF
S_D.INPUT
      1700**DCL      2753>>ASSIGN
S_D.JDE
      2042**DCL      2043--REDEF
S_D.L$.VALUE
      1595**DCL      1601--REDEF    1609--REDEF    1612--REDEF    1615--REDEF    1618--REDEF
S_D.L$.VALUE.L
      1596**DCL      1597--REDEF    1598--REDEF
S_D.L6_MESSAGE_BUF
      2449**DCL      2451--REDEF
S_D.NCHARS
      1559**DCL      2754>>ASSIGN
S_D.OUTPUT
      2415**DCL      2417--REDEF
PL6.E3A0      #003=DUS$SCANREAD File=DUS$SCAN.:E05TSI                            TUE 07/29/97 15:02 Page:193
S_D.PARSMORE_REM
      2485**DCL      2752>>UNWIND
S_D.REMOTE_MSG.FNCC
      2434**DCL      2435--REDEF
S_D.REMOTE_MSG.STXC
      2430**DCL      2431--REDEF
S_D.REMOTE_MSG.SUBFNCC
      2438**DCL      2439--REDEF
S_D.SV
      1494**DCL      1515--REDEF
S_D.XUG_BUILTIN
      2529**DCL      2761<<ASSIGN
S_D$
      2746**DCL      1442--IMP-PTR  2752>>IF       2752>>UNWIND   2753>>ASSIGN   2754>>ASSIGN   2755>>ASSIGN
      2761>>ASSIGN
PL6.E3A0      #003=DUS$SCANREAD File=DUS$SCAN.:E05TSI                            TUE 07/29/97 15:02 Page:194
              *** CROSS REFERENCE LISTING ***
    **     DENOTES     IDENTIFIER DEFINITION
    <<                 IDENTIFIER'S VALUE SET
    >>                 IDENTIFIER'S VALUE USED
    <>                 IDENTIFIER SET AND/OR USED
    --                 IDENTIFIER REFERENCED
PL6.E3A0      #003=DUS$SCANREAD File=DUS$SCAN.:E05TSI                            TUE 07/29/97 15:02 Page:195
              MINI UREF LISTING

DUS$POST_EXEC    2759**ENTRY
DUS$SCANREAD       6**PROC
