VERSION E05

 15:04 07/29/97  FILE=DUX$XCON.:E05TSI                                                                   1    BMAP - B00
                                         1  *M*  DUX$XCON - Receiving routine for User Delta Xcons
                                         2  *T***********************************************************
                                         3  *T*                                                         *
                                         4  *T* Copyright (c) Bull HN Information Systems Inc., 1997    *
                                         5  *T*                                                         *
                                         6  *T***********************************************************
                                         7  *F*  NAME: DUX$XCON
                                         8  *    PURPOSE: Receives control on an Xcon in delta; upon entry
                                         9  *    loads auto pointer to make stack look empty. */
                                        10  *
 0 000000                               11           USE      DUX$XCON,1
             000000000002               12  AUTO     EQU      2
             000000000001               13  PR1      EQU      1
                                        14           ENTDEF   DUX$XCON
                                        15           SEGREF   AUTOSID
                                        16         SYMREF  B$ECCB$
                                        17         SYMREF  SNAP_XCON
                                        18  *
             000000000013               19  SCREECH BOOL   000013
             000000000003               20  XXX     BOOL   000003
                                        21           ENTREF   DUX$XCON1
                                        22  *
          (0)000000000000               23  DUX$XCON  EQU     *
                                        24           INHIB    ON
   000000  X 000000 4706 00             25         LDP0    B$ECCB$
   000001    0 00004 2353 00            26         LDA     4,,0            GET TCB FULL FLAG
   000002    000200 3752 03             27         ANA     =O000200,DU       FROM THE ECCB
   000003 (0)000011 6002 00             28         TZE     DUX$XCONOK      NOT IN SERIOUS TROUBLE YET
   000004  X 000000 6306 00             29         EPPR0   SNAP_XCON       TCB FULL
   000005    000013 7134 00             30         PMME    SCREECH,2        TAKE A DUMP-IF AT ALL POSSIBLE
   000006    1 001 000 40 1760
   000007    000003 7134 00             31         PMME    XXX              AND M$XXX
   000010    0 000 000 40 1760
                                        32  *
                                        33  *
   000011                               34  DUX$XCONOK NULL
   000011  X 000000 4726 07             35           LDP      AUTO,AUTOSID,DL
 15:04 07/29/97  FILE=DUX$XCON.:E05TSI                                                                   2    BMAP - B00
   000012    2 00000 7223 00            36           LXL2     0,,AUTO
   000013    2 00001 5276 12            37           SWDX     1,X2,AUTO         POINT TO CURRENT AUTO FRAME
   000014  X 000000 7102 00             38           TRA      DUX$XCON1         GO TO PL6 CODE
                                        39  *
                                        40           END

  CONTROL SECTION TABLE

   0 CODE   EVEN  000015 DUX$XCON
   1 RODATA EVEN  000000 LITERALS

 15:04 07/29/97  FILE=DUX$XCON.:E05TSI        SYMBOL TABLE                                               3    BMAP - B00
 41000000 000000000002 AUTO           *12        35        36        37
 03601000 000000000000 AUTOSID        *15        35
 03301000 000000000000 B$ECCB$        *16        25
 52101000 000000000000 DUX$XCON        14       *23
 03201000 000000000000 DUX$XCON1      *21        38
 01101000 000000000011 DUX$XCONOK      28       *34
 40000000 000000000001 PR1            *13
 41000000 000000000013 SCREECH        *19        30
 03301001 000000000000 SNAP_XCON      *17        29
 41000000 000000000003 XXX            *20        31

      10 SYMBOLS

       0 MACROS

    SYMBOL SPACE USED   122 WORDS
     MACRO SPACE USED     0 WORDS
   INPUT RECORDS READ    80
 STATEMENTS PROCESSED    33
         ELAPSED TIME  0:00.68
             CPU TIME     0.40 SEC.
        ASSEMBLY RATE  4950 STATEMENTS/CPU MIN.

      NO ERRORS

