VERSION E05

PL6.E3A0      #001=DUZ$DRIV66 File=DUZ$DRIV66.:E05TSI                            TUE 07/29/97 15:05 Page:1
        1        1        /*M* DUZ$DRIV66 Driver for running DELTA as a user program on CP-6 */
        2        2        /*T***********************************************************/
        3        3        /*T*                                                         */
        4        4        /*T* Copyright (c) Bull HN Information Systems Inc., 1997    */
        5        5        /*T*                                                         */
        6        6        /*T***********************************************************/
        7        7        /*X* DMR,PLM=5,IND=5,CSU=3,EXM=0,ECU=3,MOC,DCI=5,CRT=5 */
        8        8        %SET LISTSUB='1'B;
        9        9        /*D* NAME: DUZ$DRIV66 */
       10       10                                                /**/
       11       11        DUZ$DRIV66: PROC MAIN;
       12       12                                                /**/
       13       13        %INCLUDE CP_6;
       14       94        %INCLUDE B$ROSEG;
       15      157        %INCLUDE B$OBJECT_C;
       16     3587        %B$RECORDSUBS;
       17     3615        %RU_FLAVORS;
       18     3621        %INCLUDE DD$BASED;
       19     4924        %B$TCB;
       20     4927        %SUB_CST;
       21     4943        %SUB_LINKFLAGS;
       22     4952        %B$EDEF;
       23     5022                                                /* Auto */
       24     5023    1   DCL FIX$ PTR;
       25     5024    1   DCL DIR$ PTR;
       26     5025    1   DCL VAR$ PTR;
       27     5026        %SUB FIXCOMSIZE="(SIZEW(S_D.FIXCOM)/SIZEW(S_D.FIXCOM(0)))-1";
       28     5027        %SUB @PAGE=0 /* @PAGE */;
       29     5028        %SUB @NODE=0 /* @NODE */;
       30     5029        %SUB @PSIZ=1024 /* @PSIZ */;
       31     5030    1   DCL ARS SBIN;
       32     5031    1   DCL LEFT SBIN;
       33     5032    1   DCL PAGE UBIN;
       34     5033    1   DCL TFPRG$ PTR;
       35     5034    1   DCL TEMP$ PTR;
       36     5035    1   DCL TEMP1 REDEF TEMP$ UBIN(36) ALIGNED;
       37     5036    1   DCL 1 TEMP1B REDEF TEMP$ ALIGNED,
PL6.E3A0      #001=DUZ$DRIV66 File=DUZ$DRIV66.:E05TSI                            TUE 07/29/97 15:05 Page:2
       38     5037    1         2 * UBIN(4) UNAL,
       39     5038    1         2 B1 UBIN(8) UNAL,
       40     5039    1         2 B2 UBIN(8) UNAL,
       41     5040    1         2 B3 UBIN(8) UNAL,
       42     5041    1         2 B4 UBIN(8) UNAL;
       43     5042    1   DCL TEMP2 UBIN(36) ALIGNED;
       44     5043    1   DCL 1 TEMP2B REDEF TEMP2 ALIGNED,
       45     5044    1         2 * BIT(1) UNAL,
       46     5045    1         2 B1 UBIN(8) UNAL,
       47     5046    1         2 * BIT(1) UNAL,
       48     5047    1         2 B2 UBIN(8) UNAL,
       49     5048    1         2 * BIT(1) UNAL,
       50     5049    1         2 B3 UBIN(8) UNAL,
       51     5050    1         2 * BIT(1) UNAL,
       52     5051    1         2 B4 UBIN(8) UNAL;
       53     5052    1   DCL EDEF$ PTR;
       54     5053    1   DCL FPRG_IC UBIN;
       55     5054    1   DCL I UBIN;
       56     5055    1   DCL FAULT UBIN;
       57     5056    1   DCL RES CHAR(8);
       58     5057    1   DCL RES_SIZE UBIN;
       59     5058    1   DCL TEMP1$ PTR;
       60     5059    1   DCL PTRPTR$ PTR;
       61     5060    1   DCL 1 PTRWORD REDEF PTRPTR$,
       62     5061    1         2 LH UBIN HALF UNAL,
       63     5062    1         2 * UBIN HALF UNAL;
       64     5063    1   DCL IX SBIN;
       65     5064    1   DCL ATT_OFFSET UBIN;
       66     5065        %HOST_REG$VALUES (NAME=REGVALUES,STCLASS=AUTO);
       67     5078                                                /* Dcbs */
       68     5079    1   DCL F$DELTA DCB;
       69     5080    1   DCL F$DO DCB;
       70     5081    1   DCL F$LM DCB;
       71     5082                                                /* Based */
       72     5083        %FIXCOM (NAME="FIXCOM(0:0)",STCLASS="BASED(FIX$)");
       73     5099        %ALL_ATTACH;
       74     5114        %B$TREE_TABLE (HDR_NAME=B$TREEHDR,NODE_NAME=B$TREE);
PL6.E3A0      #001=DUZ$DRIV66 File=DUZ$DRIV66.:E05TSI                            TUE 07/29/97 15:05 Page:3
       75     5172        %INCLUDE XUH_MACRO_C;
       76     5256        %INCLUDE DD_SD_M;
       77     6592        %S_D;
       78     7910        %S_D_PTRS;
       79     7947        %INCLUDE GD$MSG_M;
       80     8111        %GD$MSG(FPTN=GD$MSG, STCLASS="BASED(S_D_L6_MESSAGE$)",L6=YES,L6PTR="UBIN(32) UNAL");
       81     8267        %GD$MSG(FPTN=GD$MSG_HOST, STCLASS="BASED(S_D_HOST_MESSAGE$)",L6=NO);
       82     8423        %INCLUDE G_LCP6_E;
       83     8681        %INCLUDE DF_EQUS_E;
       84     8694        %INCLUDE GD_EQUS_E;
       85     8855        %FPRG$CONTEXT;
       86     8918        %FIXCOM(NAME="F$XCM",STCLASS=BASED);
       87     8934        %AT_FIRST;
       88     8962                                                /* Constant */
       89     8963        %FPT_OPEN (FPTN=FPT_OPEN_F$LM,
       90     8964                   STCLASS=CONSTANT SYMDEF,
       91     8965                   FUN=IN,
       92     8966                   DCB=F$LM);
       93     9075        %FPT_TRAP (FPTN=FPT_TRAP,
       94     9076                   STCLASS=CONSTANT,
       95     9077                   ARITHMETIC=DUX$TRAP,
       96     9078                     OVERFLOW=TRAP,
       97     9079                     DIVIDE_CHECK=TRAP,
       98     9080                   PROGRAMMED=DUX$TRAP,
       99     9081                     MME=TRAP,
      100     9082                     DERAIL=TRAP,
      101     9083                     FAULT_TAG=TRAP,
      102     9084                   ERRORS=DUX$TRAP,
      103     9085                     MEMORY=TRAP,
      104     9086                     COMMAND=TRAP,
      105     9087                     LOCKUP=TRAP,
      106     9088                     IPR=TRAP,
      107     9089                     MISSING_SEG=TRAP,
      108     9090                     MISSING_PAGE=TRAP,
      109     9091                     SECURITY_1=TRAP,
      110     9092                     SECURITY_2=TRAP,
      111     9093                   PMME=DUX$TRAP,
PL6.E3A0      #001=DUZ$DRIV66 File=DUZ$DRIV66.:E05TSI                            TUE 07/29/97 15:05 Page:4
      112     9094                   HISTORY_REGS=NO);
      113     9117        %FPT_INT(STCLASS=CONSTANT,UENTRY=DUX$BREAK);
      114     9131        %FPT_DRTN (STCLASS=AUTO);               /* someplace for DFA? to put stuff */
      115     9155                                                /* Symref */
      116     9156    1   DCL DCTX_ME UBIN SYMREF;
      117     9157    1   DCL UIS$ PTR SYMREF;
      118     9158    1   DCL B$TCB$ PTR SYMREF;
      119     9159    1   DCL DD_VARCOM$ PTR SYMREF;
      120     9160    1   DCL D_M$LM# UBIN SYMREF;
      121     9161                                                /* Static */
      122     9162        %B$HEAD (NAME=B_HEAD,STCLASS=STATIC);
      123     9362                                                /* Entrys */
      124     9363    1   DCL DDA$DO ENTRY(0) ALTRET;
      125     9364    1   DCL DDA$PLUGH ENTRY;
      126     9365    1   DCL DDA$SHOW ENTRY(0);
      127     9366    1   DCL DDB$BREAK ENTRY(0) ALTRET;
      128     9367    1   DCL DDE$ERROR ENTRY(0);
      129     9368    1   DCL DDM$GETMEM ENTRY(3) ALTRET;
      130     9369    1   DCL DDM$PUTMEM ENTRY(3) ALTRET;
      131     9370    1   DCL DDQ$READLM ENTRY(7) ALTRET;
      132     9371    1   DCL DDQ$WRITE ENTRY(2);
      133     9372    1   DCL DDR$INSTR ENTRY(1) ALTRET;
      134     9373    1   DCL DDR$REPORT ENTRY(1);
      135     9374    1   DCL DDS$ES_INQ ENTRY(1) ALTRET;
      136     9375    1   DCL DDS$INSTR ENTRY(1) ALTRET;
      137     9376    1   DCL DDS$SCAN ENTRY(0) ALTRET;
      138     9377    1   DCL DDS$SCAN2 ENTRY(0) ALTRET;
      139     9378    1   DCL DDS$SET_Q2C ENTRY(0) ALTRET;
      140     9379    1   DCL DDZ$CMDUMP ENTRY(2);
      141     9380    1   DCL DUI$1STIME ENTRY(0) ALTRET;
      142     9381    1   DCL DUX$TRAP ENTRY;
      143     9382    1   DCL DUX$BREAK ENTRY ASYNC;
      144     9383    1   DCL DFQ$READ_FD ENTRY(2) ALTRET;
      145     9384    1   DCL DUE$ERRMSG ENTRY;
      146     9385    1   DCL DFR$EVENTRPT ENTRY(1);
      147     9386    1   DCL DUD$MINI ENTRY(1);
      148     9387    1   DCL DDF$FIND_PEDEF ENTRY(2) ALTRET;
PL6.E3A0      #001=DUZ$DRIV66 File=DUZ$DRIV66.:E05TSI                            TUE 07/29/97 15:05 Page:5
      149     9388    1   DCL DFR$REPORT ENTRY(1);
      150     9389    1   DCL DDA$KILL1 ENTRY;
      151     9390    1   DCL DFA$TRACE_REPORT ENTRY ALTRET;
      152     9391    1   DCL DFA$FPRG ENTRY(1);
      153     9392    1   DCL DFA$KILL_FPRG ENTRY(1);
      154     9393    1   DCL DDA$DOATTACH ENTRY ALTRET;
      155     9394    1   DCL DFA$GO ENTRY(1) ALTRET;
      156     9395    1   DCL DFA$STOP_FPRGS ENTRY(2) ALTRET;
      157     9396                                                /* Misc include files */
      158     9397             %INCLUDE DD_ERR_C;
      159     9794             %INCLUDE DD_SUBS_C;
      160    10065             %INCLUDE DD_DEBUG_C;
      161    10086             %LIST;
      162    10087        %EJECT;
PL6.E3A0      #001=DUZ$DRIV66 File=DUZ$DRIV66.:E05TSI                            TUE 07/29/97 15:05 Page:6
      163    10088    1        CALL M$TRAP(FPT_TRAP);
      164    10089    1        CALL M$INT(FPT_INT);
      165    10090    1        CALL M$OPEN( FPT_OPEN_F$LM ) ALTRET( NOPNLM );
      166    10091    1        S_D = '0'B;
      167    10092    1        S_D.ONE_TO_TWO.EXEC_DOMAIN = %HOST;
      168    10093    1        S_D.LMDCB = D_M$LM#;
      169    10094        /* Get the Read-only-segment */
      170    10095    1        ARS = 0;
      171    10096    1        CALL DDQ$READLM( %TYPHEAD, 0 /* @PAGE */, 0 /* @NODE */, ADDR( B_HEAD ), SIZEC(
             10096                 B_HEAD ), ARS ) ALTRET( NOHEAD );
      172    10097    1        LEFT = B_HEAD.ROSIZE;
      173    10098    1        IF B_HEAD.FLAVOR = %HOST_RU
      174    10099    2        THEN DO;
      175    10100    2             CALL DDM$GETMEM( DD_VARCOM$, LEFT + SIZEW( B$ROSEG ) ) ALTRET( NOMEM );
      176    10101    2             PAGE = 0;
      177    10102    2             ARS = 0;
      178    10103    2             LEFT = LEFT * LENGTHC( LEFT );
      179    10104    2             TEMP$ = PINCRW( DD_VARCOM$, SIZEW( B$ROSEG ) );
      180    10105    2             TEMP1$ = TEMP$;
      181    10106    3             DO WHILE ( LEFT > 0 );
      182    10107    3                  CALL DDQ$READLM( %TYPROS, PAGE, 0 /* @NODE */, TEMP$, LEFT, ARS )
             10107                           ALTRET( NOROS  );
      183    10108    3                  PAGE = PAGE + B_HEAD.PRECSIZE;
      184    10109    3                  LEFT = LEFT - ARS;
      185    10110    3                  TEMP$ = PINCRC( TEMP$, ARS );
      186    10111    3                END;
      187    10112    2             TEMP$ = PINCRW( TEMP1$, B_HEAD.TREEDISP );
      188    10113    2             TEMP1$ = PINCRW( TEMP$, SIZEW( B$TREEHDR ) );
      189    10114    2             TEMP1$ -> B$TREE.FLGS.NOW_IN = '1'B; /* Root is always in */
      190    10115    2             DD_VARCOM$ -> B$ROSEG.TREE$ = TEMP$;
      191    10116             /*D* Use RUM mode if you want to look at dcbs */
      192    10117    3             DO IX = 0 TO TEMP$ -> B$TREEHDR.NODES - 1;
      193    10118    3                  PTRPTR$ = TEMP1$ -> B$TREE.NAME$;
      194    10119    3                  TEMP1$ -> B$TREE.NAME$ = PINCRW( TEMP$, PTRWORD.LH );
      195    10120    3                  TEMP1$ = PINCRW( TEMP1$, SIZEW( B$TREE ) );
      196    10121    3                END;
      197    10122    2           END;
PL6.E3A0      #001=DUZ$DRIV66 File=DUZ$DRIV66.:E05TSI                            TUE 07/29/97 15:05 Page:7
      198    10123    1        CALL DUI$1STIME
      199    10124    2        WHENALTRETURN DO;
      200    10125    2             CALL DDE$ERROR;
      201    10126    2             CALL M$XXX;
      202    10127    2           END;
      203    10128    1        REMEMBER GETOUT IN S_D.REM_DRTN_QUIT;
      204    10129    1        S_D.PADDR = ( ( ( B_HEAD.BIAS + B_HEAD.VDPGS ) * 1024 /* @PSIZ */ ) / 1024
             10129                 /* @PSIZ */ ) * 1024 /* @PSIZ */;
      205    10130    1        REGVALUES = '0'B;
      206    10131    1        S_D.UREG$ = ADDR( REGVALUES );
      207    10132    1        S_D.DRTN$ = ADDR( FPT_DRTN );
      208    10133    1        FIX$ = ADDR( S_D.FIXCOM );
      209    10134    1        VAR$ = S_D.VARCOM$;
      210    10135    1        DIR$ = ADDR( S_D.DIRCOM );
      211    10136    1        S_D.USS$ = B$TCB$ -> B$TCB.ALT$;
      212    10137    1        S_D.IXFIX = 3/*FAULT_FAULTTAG*/;
      213    10138    1        S_D.FAULT = 6/*FAULT_DERAIL*/;
      214    10139    1        IX = B_HEAD.START;
      215    10140    1        S_D.FAULTINS$ = PINCRW( UIS$, IX+8 );
      216    10141    1        S_D.SAVEIC = IX;
      217    10142    1        CALL DDS$ES_INQ( IX );
      218    10143    1        CALL DDS$SET_Q2C;
      219    10144    1        CALL DDR$REPORT( 11/*R_DELTA*/ );
      220    10145             %EJECT;
PL6.E3A0      #001=DUZ$DRIV66 File=DUZ$DRIV66.:E05TSI                            TUE 07/29/97 15:05 Page:8
      221    10146    1   AGAIN:
      222    10147        /* Exercise fault reporting */
      223    10148    1        S_D.DO_ATTACH = 0;
      224    10149    1        IF S_D.DEBUGA( %DB@REPORT )        /* DB@REPORT */
      225    10150    2        THEN DO IX = 1/*R_AT*/ TO 16/*R_LINKRTN*/;
      226    10151    2             CALL DDB$BREAK ALTRET( TRAP_HERE );
      227    10152    2             CALL DDR$REPORT( IX );
      228    10153    2           END;
      229    10154        /* Exercise scanner */
      230    10155    1   TRAP_HERE: ;
      231    10156    1        S_D.DO_SCAN = '1'B;
      232    10157    1        S_D.DO$ = ADDR(NIL);
      233    10158    1        REMEMBER TRAP_HERE IN S_D.REM_DO_SCAN;
      234    10159    1        REMEMBER PEVENT IN S_D.REM_USERGO;
      235    10160    1        REMEMBER BRK IN S_D.REM_BREAK;
      236    10161    1        S_D.DIRECT_OFF = S_D.DIRECT_SIZE;
      237    10162    1        CALL DDS$SCAN;
      238    10163    1        S_D.DO_SCAN = '0'B;
      239    10164    1        CALL CALL_DO;
      240    10165    1        ATT_OFFSET = S_D.DIRECT_OFF;
      241    10166    2        DO WHILE ( ATT_OFFSET < S_D.DIRECT_SIZE );
      242    10167    2             S_D.ACMDS$ = ADDR( S_D.DIRECT_TEXT );
      243    10168    2             S_D.ACMDS_SIZE = S_D.DIRECT_SIZE;
      244    10169    2             S_D.ACMDS_OFF = ATT_OFFSET;
      245    10170    2             CALL DDS$SCAN2 ALTRET( AGAIN );
      246    10171    2             ATT_OFFSET = S_D.ACMDS_OFF;
      247    10172    2             CALL DDB$BREAK ALTRET( AGAIN );
      248    10173    2             CALL CALL_DO;
      249    10174    2           END;
      250    10175    1        GOTO AGAIN;
      251    10176                                                /**/
      252    10177    1   BRK:
      253    10178    1        IF S_D.FPRG_CONTEXT$ ~= ADDR(NIL)
      254    10179    2        THEN DO;
      255    10180    2             CALL DFA$STOP_FPRGS
      256    10181    3             WHENALTRETURN DO;
      257    10182    3                  S_D.BREAK = '0'B;
PL6.E3A0      #001=DUZ$DRIV66 File=DUZ$DRIV66.:E05TSI                            TUE 07/29/97 15:05 Page:9
      258    10183    3                  GOTO AGAIN;
      259    10184    3                END;
      260    10185    2             S_D.BREAK = '0'B;
      261    10186    2           END;
      262    10187    1        GOTO AGAIN;
      263    10188    1   NOPNLM: CALL M$XXX;
      264    10189    1   NOHEAD: CALL M$XXX;
      265    10190    1   NOMEM: CALL M$XXX;
      266    10191    1   NOMEM1: CALL M$XXX;
      267    10192    1   NOMEM2: CALL M$XXX;
      268    10193    1   NOROS: CALL M$XXX;
      269    10194    1   PEVENT: CALL CALL_DO_EVENT;
      270    10195    1        GOTO AGAIN;
      271    10196    1   GETOUT: ;
      272    10197    1        CALL M$EXIT;
      273    10198                                                /**/
      274    10199        %EJECT;
PL6.E3A0      #001=DUZ$DRIV66 File=DUZ$DRIV66.:E05TSI                            TUE 07/29/97 15:05 Page:10
      275    10200
      276    10201    1   CALL_DO: PROC;
      277    10202
      278    10203    2        IF S_D.DEBUGA( %DB@DUMPDIR )       /* DB@DUMPDIR */
      279    10204    3        THEN DO;                           /* Dump dircom */
      280    10205    3             TEMP$ = PINCRW(S_D.D$,-1);
      281    10206    3             CALL DDZ$CMDUMP(DIR$,TEMP$);
      282    10207    3           END;                            /* Dump dircom */
      283    10208    2        CALL DDB$BREAK ALTRET( RETN );
      284    10209    2        IF S_D.DEBUGA( %DB@DUMPVAR )       /* DB@DUMPVAR */
      285    10210    3        THEN DO IX = 1 TO (SIZEW(S_D.FIXCOM)/SIZEW(S_D.FIXCOM(0)))-1;
      286    10211    3             IF FIXCOM.CMD(IX) ~= 0
      287    10212    4             THEN DO;                      /* Dump fixcom & varcom entry */
      288    10213    4                  TEMP$ = PINCRW(FIX$,SIZEW(FIXCOM)*IX);
      289    10214    4                  TEMP1$ = PINCRW(TEMP$,1);
      290    10215    4                  CALL DDZ$CMDUMP(TEMP$,TEMP1$);
      291    10216    4                  TEMP$ = PINCRW(VAR$,FIXCOM.FAI(IX));
      292    10217    4                  TEMP1$ = PINCRW(TEMP$,FIXCOM.TAL(IX)-1);
      293    10218    4                  CALL DDZ$CMDUMP(TEMP$,TEMP1$);
      294    10219    4                END;                       /* Dump fixcom & varcom */
      295    10220    3           END;                            /* "DO IX" */
      296    10221    2        CALL DDB$BREAK ALTRET( RETN );
      297    10222    2        IF S_D.DEBUGA( %DB@SIMSHOW )       /* DB@SIMSHOW */
      298    10223    3        THEN DO;                           /* Show */
      299    10224    3             IF ( DIR$ -> ALL_ATTACH.CMD = 44 ) AND /* C_SHOW */
      300    10225    3               ( NOT S_D.DEBUGA( %DB@SIMDO ) ) /* DB@SIMDO */
      301    10226    4             THEN DO;
      302    10227    4                  S_D.DO$ = DIR$;
      303    10228    4                  CALL DDA$SHOW;
      304    10229    4                END;
      305    10230    3           END;                            /* Show */
      306    10231    2        IF S_D.DEBUGA( %DB@SIMDO ) OR      /* DB@SIMDO */
      307    10232    2          ( DIR$ -> ALL_ATTACH.CMD = 89 ) /* C_DEBUG */
      308    10233    3        THEN DO;
      309    10234    3             S_D.DO$ = DIR$;
      310    10235    4             DO CASE ( DIR$ -> ALL_ATTACH.CMD );
      311    10236    4               CASE ( 1,            /* C_ABBREV */
PL6.E3A0      #001=DUZ$DRIV66 File=DUZ$DRIV66.:E05TSI                            TUE 07/29/97 15:05 Page:11
      312    10237    4               19,                   /* C_ACTIVE */
      313    10238    4               74,                   /* C_ALTVAR */
      314    10239    4               59,                     /* C_ANLZ */
      315    10240    4               21,                   /* C_BYPASS */
      316    10241    4               41,                    /* C_CACHE */
      317    10242    4               15,                     /* C_COPY */
      318    10243    4               89,                    /* C_DEBUG */
      319    10244    4               63,                   /* C_DELETE */
      320    10245    4               4,                      /* C_DEF */
      321    10246    4               5,                       /* C_DO */
      322    10247    4               37,                      /* C_DIC */
      323    10248    4               6,                  /* C_DISPLAY */
      324    10249    4               7,                     /* C_DUMP */
      325    10250    4               33,                     /* C_ECHO */
      326    10251    4               8,                     /* C_EVAL */
      327    10252    4               35,                      /* C_EOM */
      328    10253    4               16,                   /* C_FORMAT */
      329    10254    4               10,                     /* C_FIND */
      330    10255    4               11,                     /* C_GOTO */
      331    10256    4               12,                     /* C_HELP */
      332    10257    4               13,                  /* C_HISTORY */
      333    10258    4               17,                   /* C_IGNORE */
      334    10259    4               50,                 /* C_INACTIVE */
      335    10260    4               22,                     /* C_KEEP */
      336    10261    4               20,                     /* C_KILL */
      337    10262    4               62,                     /* C_LIST */
      338    10263    4               27,                      /* C_LET */
      339    10264    4               29,                  /* C_MACTIVE */
      340    10265    4               70,                     /* C_MINI */
      341    10266    4               28,                   /* C_MODIFY */
      342    10267    4               36,                   /* C_OUTPUT */
      343    10268    4               24,                    /* C_PLUGH */
      344    10269    4               25,                   /* C_PROMPT */
      345    10270    4               88,                  /* C_PROTECT */
      346    10271    4               73,                      /* C_PMD */
      347    10272    4               80,                   /* C_QMARK1 */
      348    10273    4               81,                   /* C_QMARK2 */
PL6.E3A0      #001=DUZ$DRIV66 File=DUZ$DRIV66.:E05TSI                            TUE 07/29/97 15:05 Page:12
      349    10274    4               39,                     /* C_QUIT */
      350    10275    4               56,                    /* C_RANGE */
      351    10276    4               42,                     /* C_READ */
      352    10277    4               55,                   /* C_REPORT */
      353    10278    4               72,                      /* C_RUM */
      354    10279    4               77,                      /* C_SAD */
      355    10280    4               43,                   /* C_SCHEMA */
      356    10281    4               44,                     /* C_SHOW */
      357    10282    4               51,                   /* C_SILENT */
      358    10283    4               85,                   /* C_STATUS */
      359    10284    4               18,                    /* C_STORE */
      360    10285    4               79,                   /* C_SYNTAX */
      361    10286    4               26,                        /* C_T */
      362    10287    4               71,                     /* C_TRAP */
      363    10288    4               87,                    /* C_UNFID */
      364    10289    4               90,                  /* C_UNSHARE */
      365    10290    4               52,                 /* C_UNSILENT */
      366    10291    4               75,                   /* C_UPDATE */
      367    10292    4               64                       /* C_USE */
      368    10293    4               );                          /* That's all for now */
      369    10294    4   DO_IT:         CALL DDA$DO ALTRET( AERR );
      370    10295    4               CASE ( ELSE );
      371    10296    4                  IF S_D.DEBUGA (%DB@DOCMD) THEN GOTO DO_IT;
      372    10297    4                  S_D.ERROR = 23;    /* E@UERR12 */
      373    10298    4                  CALL DDE$ERROR;
      374    10299    4               END;
      375    10300    3           END;
      376    10301
      377    10302    2   RETN:
      378    10303    2        RETURN;
      379    10304    2   AERR:
      380    10305    2        IF S_D.FPRG_CONTEXT$ ~= ADDR(NIL)
      381    10306    3        THEN DO;
      382    10307    3             TFPRG$ = S_D.FPRG_CONTEXT$;
      383    10308    4             DO WHILE (TFPRG$ ~= ADDR(NIL));
      384    10309    4                  IF TFPRG$ -> FPRG$CONTEXT.READ_FD = '1'B
      385    10310    5                  THEN DO;
PL6.E3A0      #001=DUZ$DRIV66 File=DUZ$DRIV66.:E05TSI                            TUE 07/29/97 15:05 Page:13
      386    10311    5                       TFPRG$ -> FPRG$CONTEXT.READ_FD = '0'B;
      387    10312    5                       GOTO PROCESS_EVENT;
      388    10313    5                     END;
      389    10314    4                  TFPRG$ = TFPRG$ -> FPRG$CONTEXT.NEXT$;
      390    10315    4                END;
      391    10316    3           END;
      392    10317    2        CALL DDE$ERROR;
      393    10318    2        RETURN;
      394    10319    2   CALL_DO_EVENT: ENTRY;
      395    10320    2   PROCESS_EVENT:
      396    10321    2        S_D.CURRENT_FPRG_CONTEXT$ = TFPRG$;
      397    10322    2        S_D.CURRENT_FPRG_CONTEXT$ -> FPRG$CONTEXT.STATE = %STOPPED;
      398    10323                                                /* Read message from FD for this FPRG */
      399    10324    2        CALL DFQ$READ_FD (S_D.CURRENT_FPRG_CONTEXT$, '0'B)
      400    10325    3        WHENALTRETURN DO;
      401    10326    3             CALL DUE$ERRMSG;
      402    10327    3             GOTO RETN;
      403    10328    3           END;
      404    10329    2        IF S_D.DEBUGA(%DB@ECC)
      405    10330    3        THEN DO;
      406    10331    3             CALL DFR$EVENTRPT(%DB@ECC);
      407    10332    3             IF S_D.DEBUG
      408    10333    4             THEN DO;
      409    10334    4                  CALL DUD$MINI;
      410    10335    4                  S_D.PROMPT_SIZE = 0;
      411    10336    4                END;
      412    10337    3           END;
      413    10338                                                /* Make sure is a BRKRSP message */
      414    10339    2        IF GD$MSG.FNC ~= %FPRG_BRKRSP# AND GD$MSG.FNC ~= %GD#RSPTRACE
      415    10340    3        THEN DO;
      416    10341    3             IF TFPRG$ -> FPRG$CONTEXT.XDELTA AND
      417    10342    3               GD$MSG.FNC = %GD#RSPBADMSG
      418    10343    4             THEN DO;
      419    10344    4                  S_D.ERROR = 330;    /* E@BADMSG */
      420    10345    4                  CALL DDE$ERROR;
      421    10346    4                  GOTO RETN;
      422    10347    4                END;
PL6.E3A0      #001=DUZ$DRIV66 File=DUZ$DRIV66.:E05TSI                            TUE 07/29/97 15:05 Page:14
      423    10348    3             S_D.ERROR = 524;     /* E@BADMESSAGE */
      424    10349    3             CALL DDE$ERROR;
      425    10350    3             S_D.ERROR = 502;         /* E@DELBUG */
      426    10351    3             CALL DDE$ERROR;
      427    10352    3             GOTO RETN;
      428    10353    3           END;
      429    10354    2        S_D.BRKRSP_ERRCODE = BITBIN(GD$MSG_HOST.BRKRSP.ERRCODE);
      430    10355    2        FPRG_IC = GD$MSG.BRKRSP.ADR$;
      431    10356    2        S_D.MOD_L6.ADDRESS = FPRG_IC;
      432    10357    2        S_D.MOD_L6.SEG = 3;
      433    10358    2        S_D.MOD_L6.DESC# = 0;
      434    10359    2        S_D.MOD_L6.NOT_IS = '0'B;
      435    10360    2        S_D.MOD_L6.VALUE.SIZE = GD$MSG.BRKRSP.DATA_SIZE;
      436    10361    3        DO I = 0 TO GD$MSG.BRKRSP.DATA_SIZE - 1;
      437    10362    3             S_D.MOD_L6.VALUE.OPS(I) = GD$MSG.BRKRSP.DATA(I);
      438    10363    3           END;
      439    10364    2        S_D.CURRENT_FPRG_CONTEXT$ -> FPRG$CONTEXT.ADDRESS = FPRG_IC;
      440    10365    2        IF S_D.CURRENT_FPRG_CONTEXT$ -> FPRG$CONTEXT.XDELTA
      441    10366    3        THEN DO;
      442    10367    3             TEMP1 = BITBIN(GD$MSG.BRKRSP.ERRCODE);
      443    10368    3             TEMP2B.B1 = TEMP1B.B1;
      444    10369    3             TEMP2B.B2 = TEMP1B.B2;
      445    10370    3             TEMP2B.B3 = TEMP1B.B3;
      446    10371    3             TEMP2B.B4 = TEMP1B.B4;
      447    10372    3             S_D.BRKRSP_ERRCODE = TEMP2;
      448    10373    3           END;
      449    10374    2        ELSE S_D.BRKRSP_ERRCODE = BITBIN(GD$MSG_HOST.BRKRSP.ERRCODE);
      450    10375    2        S_D.USERNO = GD$MSG.BRKRSP.USER#;
      451    10376    2        S_D.MBU = GD$MSG.BRKRSP.MBU;
      452    10377    2        FAULT = GD$MSG.BRKRSP.BRK#;
      453    10378                                                /* Report Host program stopped */
      454    10379    2        IF NOT S_D.DEBUG_CMD AND GD$MSG.FNC ~= %GD#RSPTRACE AND
      455    10380    2          ((FAULT >= 1 AND FAULT <= %GD#MAXBRKNUM) AND
      456    10381    2          PINCRW(ADDR(S_D.FIXCOM),
      457    10382    2          S_D.CURRENT_FPRG_CONTEXT$ -> FPRG$CONTEXT.FIXCOM_INDEX(FAULT)*SIZEW(F$XCM))->
             10382                   F$XCM.SILENT = '0'B)
      458    10383    2        THEN CALL DDR$REPORT(28/*R_STOP*/);
PL6.E3A0      #001=DUZ$DRIV66 File=DUZ$DRIV66.:E05TSI                            TUE 07/29/97 15:05 Page:15
      459    10384                                                /* Set up access to FPRG RU */
      460    10385    2        CALL DFA$FPRG (FPRG_IC);
      461    10386    2        IF GD$MSG.FNC = %GD#RSPTRACE
      462    10387    3        THEN DO;
      463    10388    3             CALL DFA$TRACE_REPORT ALTRET(RETN);
      464    10389    3             IF NOT S_D.DEBUG_CMD
      465    10390    3             THEN CALL DFA$KILL_FPRG;
      466    10391    3             GOTO PROCESS_EVENT;
      467    10392    3           END;
      468    10393    2        IF FAULT >= 1 AND FAULT <= %GD#MAXBRKNUM
      469    10394    3        THEN DO;
      470    10395                                                /* Have hit an AT breakpoint */
      471    10396    3             S_D.IXFIX = S_D.CURRENT_FPRG_CONTEXT$ -> FPRG$CONTEXT.FIXCOM_INDEX(FAULT);
      472    10397    3             S_D.FAULTCMD$ = PINCRW(ADDR(S_D.FIXCOM), S_D.IXFIX*SIZEW(F$XCM));
      473    10398    3             IF S_D.FAULTCMD$ -> F$XCM.SILENT
      474    10399    3             THEN S_D.SILENT = '1'B;
      475    10400    4             ELSE DO;
      476    10401    4                  IF S_D.FAULTCMD$ -> F$XCM.CMD ~= 2 /* C_AT */ AND
      477    10402    4                    S_D.FAULTCMD$ -> F$XCM.CMD ~= 31 /* C_OC */ AND
      478    10403    4                    S_D.FAULTCMD$ -> F$XCM.CMD ~= 53 /* C_ONCALLS */ AND
      479    10404    4                    S_D.FAULTCMD$ -> F$XCM.CMD ~= 32 /* C_OE */
      480    10405    5                  THEN DO;
      481    10406    5                       S_D.ERROR = 526; /* E@BADBRKPNT */
      482    10407    5                       CALL DDE$ERROR;
      483    10408    5                       S_D.ERROR = 502; /* E@DELBUG */
      484    10409    5                       CALL DDE$ERROR;
      485    10410    5                       GOTO RETN;
      486    10411    5                     END;
      487    10412    4                  IF S_D.FAULTCMD$ -> F$XCM.CMD = 2 /* C_AT */
      488    10413    4                  THEN CALL DFR$REPORT(%R_FPRG_AT);
      489    10414    5                  ELSE DO;
      490    10415    5                       IF S_D.FAULTCMD$ -> F$XCM.CMD = 31 /* C_OC */
      491    10416    5                       THEN CALL DFR$REPORT(%R_FPRG_ONCALL);
      492    10417    5                       IF S_D.FAULTCMD$->F$XCM.CMD = 53 /* C_ONCALLS */
      493    10418    6                       THEN DO;
      494    10419    6                            IF S_D.CURRENT_FPRG_CONTEXT$ -> FPRG$CONTEXT.ONCALLS_X
      495    10420    7                            THEN DO;
PL6.E3A0      #001=DUZ$DRIV66 File=DUZ$DRIV66.:E05TSI                            TUE 07/29/97 15:05 Page:16
      496    10421    7                                 CALL DDF$FIND_PEDEF(FPRG_IC, EDEF$) ALTRET(NO_REPORT);
      497    10422    7                                 IF ( EDEF$ -> B$EDEF.CST = %STD#
      498    10423    7                                   OR EDEF$ -> B$EDEF.CST = %ASYNC#
      499    10424    7                                   OR EDEF$ -> B$EDEF.CST = %FUNC#
      500    10425    7                                   OR EDEF$ -> B$EDEF.CST = %XSTD#
      501    10426    7                                   OR EDEF$ -> B$EDEF.CST = %XASYNC#
      502    10427    7                                   OR EDEF$ -> B$EDEF.CST = %XFUNC# )
      503    10428    7                                   AND ( EDEF$ -> B$EDEF.LFLAGS.SOURCE = %
             10428                                            SOURCE_OBJECT#
      504    10429    7                                   OR EDEF$ -> B$EDEF.LFLAGS.SOURCE = %SOURCE_ULIB# )
      505    10430    7                                 THEN GOTO REPORT_ONCALL;
      506    10431    7   NO_REPORT:                    CALL DFA$GO('0'B) ALTRET(RETN);
      507    10432    7                               END;
      508    10433    6   REPORT_ONCALL:           CALL DFR$REPORT(%R_FPRG_ONCALL);
      509    10434    6                          END;
      510    10435    5                     END;
      511    10436    4                END;
      512    10437    3   DO_ATTACH:
      513    10438    3             S_D.DO$ = PINCRW(S_D.VARCOM$, S_D.FAULTCMD$ -> F$XCM.FAI);
      514    10439    3             S_D.DO$->AT_FIRST.CURRENT_COUNT = S_D.DO$->AT_FIRST.BYPASS_COUNT;
      515    10440    3             IF S_D.DO$ -> AT_FIRST.ATT_OFFSET = 0
      516    10441    3             THEN S_D.DO$ = ADDR(NIL);
      517    10442    3             S_D.ENTRYCMD$ = S_D.FAULTCMD$;
      518    10443    3             CALL DDA$DOATTACH ALTRET (AERR);
      519    10444    3             S_D.SILENT = '0'B;
      520    10445    3             S_D.FAULTCMD$ = ADDR(NIL);
      521    10446    3           END;
      522    10447    3        ELSE DO;
      523    10448                                                /* Have gotten a trap */
      524    10449    3             IF S_D.CURRENT_FPRG_CONTEXT$ -> FPRG$CONTEXT.XDELTA AND
      525    10450    3               FAULT = 0
      526    10451    4             THEN DO;
      527    10452    4                  IF S_D.STEP_L6
      528    10453    4                  THEN CALL DFR$REPORT(%R_FPRG_STEP);
      529    10454    4                  ELSE CALL DFR$REPORT(%R_XDELTA_BREAK);
      530    10455    4                END;
      531    10456    4             ELSE DO;
PL6.E3A0      #001=DUZ$DRIV66 File=DUZ$DRIV66.:E05TSI                            TUE 07/29/97 15:05 Page:17
      532    10457    4                  S_D.FAULT = FAULT - (%GD#MAXBRKNUM + 1);
      533    10458    4                  IF S_D.CURRENT_FPRG_CONTEXT$ -> FPRG$CONTEXT.XDELTA AND
      534    10459    4                    FAULT = 0
      535    10460    4                  THEN CALL DFR$REPORT(%R_XDELTA_SCREECH);
      536    10461    5                  ELSE DO;
      537    10462    5                       IF S_D.STEP_L6
      538    10463    5                       THEN CALL DFR$REPORT(%R_FPRG_STEP);
      539    10464    6                       ELSE DO;
      540    10465    6                            IF S_D.FAULT = %G_FPRG_EXIT#
      541    10466    6                            THEN S_D.CURRENT_FPRG_CONTEXT$ -> FPRG$CONTEXT.STATE = %
             10466                                     ATEXIT;
      542    10467    6                            IF S_D.FAULT = %G_FPRG_EXIT# AND
      543    10468    6                              S_D.CURRENT_FPRG_CONTEXT$ -> FPRG$CONTEXT.ONEXIT ~= 0
      544    10469    7                            THEN DO;
      545    10470    7                                 FAULT = S_D.CURRENT_FPRG_CONTEXT$ -> FPRG$CONTEXT.
             10470                                          ONEXIT;
      546    10471    7                                 S_D.IXFIX = S_D.CURRENT_FPRG_CONTEXT$ -> FPRG$CONTEXT.
             10471                                          FIXCOM_INDEX(FAULT);
      547    10472    7                                 S_D.FAULTCMD$ = PINCRW(ADDR(S_D.FIXCOM), S_D.IXFIX*
             10472                                          SIZEW(F$XCM));
      548    10473    7                                 S_D.OUTPUT = 'ON EXIT condition encountered,';
      549    10474    7                                 CALL DDQ$WRITE(ADDR(S_D.OUTPUT), 31);
      550    10475    7                                 GOTO DO_ATTACH;
      551    10476    7                               END;
      552    10477    6                            CALL DFR$REPORT(%R_FPRG_TRAP);
      553    10478    6                          END;
      554    10479    5                     END;
      555    10480    4                END;
      556    10481    3           END;
      557    10482    2        GOTO RETN;
      558    10483    2   END CALL_DO;
      559    10484
      560    10485    1   END DUZ$DRIV66;

PL6.E3A0      #001=DUZ$DRIV66 File=DUZ$DRIV66.:E05TSI                            TUE 07/29/97 15:05 Page:18
--  Include file information  --

   DD_DEBUG_C.:E05TOU  is referenced.
   DD_SUBS_C.:E05TOU  is referenced.
   DD_ERR_C.:E05TOU  is referenced.
   GD_EQUS_E.:E05TOU  is referenced.
   DF_EQUS_E.:E05TOU  is referenced.
   G_LCP6_E.:E05TOU  is referenced.
   GD$MSG_M.:E05TOU  is referenced.
   DD_SD_M.:E05TOU  is referenced.
   XUH_MACRO_C.:E05TOU  is referenced.
   DD$BASED.:E05TOU  is referenced.
   B$OBJECT_C.:E05TOU  is referenced.
   B$ROSEG.:E05TOU  cannot be made into a system file and is referenced.
   CP_6.:E05TOU  cannot be made into a system file and is referenced.
   B$JIT_C.:E05TOU  was found in the system file and is never referenced.
   CP_6_C.:E05TOU  was found in the system file and is referenced.
      No diagnostics issued in procedure DUZ$DRIV66.

   Procedure DUZ$DRIV66 requires 944 words for executable code.
   Procedure DUZ$DRIV66 requires 54 words of local(AUTO) storage.

    No errors detected in file DUZ$DRIV66.:E05TSI    .

PL6.E3A0      #001=DUZ$DRIV66 File=DUZ$DRIV66.:E05TSI                            TUE 07/29/97 15:05 Page:19

 Object Unit name= DUZ$DRIV66                                 File name= DUZ$DRIV66.:E05TOU
 UTS= JUL 29 '97 15:05:23.28 TUE                              Compiler= PL-6/E31         Sev=      00
 SharedLib= :SHARED_SYSTEM                                    Alt SharedLib=


    ****  Control sections  ****

 Sect   Type Bound  Init  Size OctSiz  Section name(segment info)
    0   DCB   even  none     0      0  M$UC
    1   DCB   even  none     0      0  F$DELTA
    2   DCB   even  none     0      0  F$DO
    3   DCB   even  none     0      0  F$LM
    4  RoData even  UTS     80    120  DUZ$DRIV66
    5   Data  even  none    40     50  DUZ$DRIV66
    6   Proc  even  none   944   1660  DUZ$DRIV66
    7  RoData even  none    22     26  DUZ$DRIV66

    ****  Entry defs  ****

                              Check   Calling
                             calling  sequence
  Sect OctLoc Primary Altret sequence   type   Parms  Name
     6      0   yes            yes      Main       0  DUZ$DRIV66

  ****  Data defs  ****

 Sect OctLoc  Name                           Sect OctLoc  Name
    4      0  FPT_OPEN_F$LM
PL6.E3A0      #001=DUZ$DRIV66 File=DUZ$DRIV66.:E05TSI                            TUE 07/29/97 15:05 Page:20

  ****  Entry refs  ****

         Check        Calling
        calling       sequence
Altret sequence SRef   type   Args  Name
         yes           Std       0 DUX$TRAP
         yes           Std       1 DDR$REPORT
 yes     yes           Std       0 DDS$SCAN2
 yes     yes           Std       7 DDQ$READLM
         yes          Async      0 DUX$BREAK
 yes     yes           Std       0 DUI$1STIME
 yes     yes           Std       0 DDS$SET_Q2C
 yes     yes           Std       0 DDS$SCAN
 yes     yes           Std       1 DDS$ES_INQ
 yes     yes           Std       3 DDM$GETMEM
 yes     yes           Std       0 DDB$BREAK
         yes           Std       0 DDE$ERROR
 yes     yes           Std       2 DFA$STOP_FPRGS
         yes           Std       2 DDZ$CMDUMP
 yes     yes           Std       0 DDA$DO
         yes           Std       0 DDA$SHOW
 yes     yes           Std       2 DFQ$READ_FD
         yes           Std       1 DFR$EVENTRPT
         yes           Std       1 DFR$REPORT
         yes           Std       0 DUE$ERRMSG
 yes     yes           Std       1 DFA$GO
         yes           Std       2 DDQ$WRITE
 yes     yes           Std       0 DFA$TRACE_REPORT
 yes     yes           Std       2 DDF$FIND_PEDEF
         yes           Std       1 DFA$KILL_FPRG
         yes           Std       1 DUD$MINI
         yes           Std       1 DFA$FPRG
 yes     yes           Std       0 DDA$DOATTACH
                       nStd      0 X66_MAUTO
                       Std       0 B_CONSPOOL_D
                       nStd      0 X66_MARET
PL6.E3A0      #001=DUZ$DRIV66 File=DUZ$DRIV66.:E05TSI                            TUE 07/29/97 15:05 Page:21

  ****  Data refs  ****

  Flags:  r = read only, s = secondary
Flgs Name                             Flgs Name                             Flgs Name
     M$UC                                  F$DELTA                               F$DO
     F$LM                             r    S_D$                             r    S_D_HOST_MESSAGE$
r    S_D_L6_MESSAGE$                       UIS$                                  B$TCB$
     DD_VARCOM$                            D_M$LM#                               B_VECTNIL

  ****  Segment refs  ****

  Flags:  r = read only, s = secondary
Flgs Name                             Flgs Name                             Flgs Name
     ISSID                                 NULLSID
PL6.E3A0      #001=DUZ$DRIV66 File=DUZ$DRIV66.:E05TSI                            TUE 07/29/97 15:05 Page:22


        1        1        /*M* DUZ$DRIV66 Driver for running DELTA as a user program on CP-6 */
        2        2        /*T***********************************************************/
        3        3        /*T*                                                         */
        4        4        /*T* Copyright (c) Bull HN Information Systems Inc., 1997    */
        5        5        /*T*                                                         */
        6        6        /*T***********************************************************/
        7        7        /*X* DMR,PLM=5,IND=5,CSU=3,EXM=0,ECU=3,MOC,DCI=5,CRT=5 */
        8        8        %SET LISTSUB='1'B;
        9        9        /*D* NAME: DUZ$DRIV66 */
       10       10                                                /**/
       11       11        DUZ$DRIV66: PROC MAIN;

     11  6 000000   000000 700200 xent  DUZ$DRIV66   TSX0  ! X66_MAUTO
         6 000001   000066 000000                    ZERO    54,0

       12       12                                                /**/
       13       13        %INCLUDE CP_6;
       14       94        %INCLUDE B$ROSEG;
       15      157        %INCLUDE B$OBJECT_C;
       16     3587        %B$RECORDSUBS;
       17     3615        %RU_FLAVORS;
       18     3621        %INCLUDE DD$BASED;
       19     4924        %B$TCB;
       20     4927        %SUB_CST;
       21     4943        %SUB_LINKFLAGS;
       22     4952        %B$EDEF;
       23     5022                                                /* Auto */
       24     5023    1   DCL FIX$ PTR;
       25     5024    1   DCL DIR$ PTR;
       26     5025    1   DCL VAR$ PTR;
       27     5026        %SUB FIXCOMSIZE="(SIZEW(S_D.FIXCOM)/SIZEW(S_D.FIXCOM(0)))-1";
       28     5027        %SUB @PAGE=0 /* @PAGE */;
       29     5028        %SUB @NODE=0 /* @NODE */;
       30     5029        %SUB @PSIZ=1024 /* @PSIZ */;
       31     5030    1   DCL ARS SBIN;
       32     5031    1   DCL LEFT SBIN;
PL6.E3A0      #001=DUZ$DRIV66 File=DUZ$DRIV66.:E05TSI                            TUE 07/29/97 15:05 Page:23
       33     5032    1   DCL PAGE UBIN;
       34     5033    1   DCL TFPRG$ PTR;
       35     5034    1   DCL TEMP$ PTR;
       36     5035    1   DCL TEMP1 REDEF TEMP$ UBIN(36) ALIGNED;
       37     5036    1   DCL 1 TEMP1B REDEF TEMP$ ALIGNED,
       38     5037    1         2 * UBIN(4) UNAL,
       39     5038    1         2 B1 UBIN(8) UNAL,
       40     5039    1         2 B2 UBIN(8) UNAL,
       41     5040    1         2 B3 UBIN(8) UNAL,
       42     5041    1         2 B4 UBIN(8) UNAL;
       43     5042    1   DCL TEMP2 UBIN(36) ALIGNED;
       44     5043    1   DCL 1 TEMP2B REDEF TEMP2 ALIGNED,
       45     5044    1         2 * BIT(1) UNAL,
       46     5045    1         2 B1 UBIN(8) UNAL,
       47     5046    1         2 * BIT(1) UNAL,
       48     5047    1         2 B2 UBIN(8) UNAL,
       49     5048    1         2 * BIT(1) UNAL,
       50     5049    1         2 B3 UBIN(8) UNAL,
       51     5050    1         2 * BIT(1) UNAL,
       52     5051    1         2 B4 UBIN(8) UNAL;
       53     5052    1   DCL EDEF$ PTR;
       54     5053    1   DCL FPRG_IC UBIN;
       55     5054    1   DCL I UBIN;
       56     5055    1   DCL FAULT UBIN;
       57     5056    1   DCL RES CHAR(8);
       58     5057    1   DCL RES_SIZE UBIN;
       59     5058    1   DCL TEMP1$ PTR;
       60     5059    1   DCL PTRPTR$ PTR;
       61     5060    1   DCL 1 PTRWORD REDEF PTRPTR$,
       62     5061    1         2 LH UBIN HALF UNAL,
       63     5062    1         2 * UBIN HALF UNAL;
       64     5063    1   DCL IX SBIN;
       65     5064    1   DCL ATT_OFFSET UBIN;
       66     5065        %HOST_REG$VALUES (NAME=REGVALUES,STCLASS=AUTO);
       67     5078                                                /* Dcbs */
       68     5079    1   DCL F$DELTA DCB;
       69     5080    1   DCL F$DO DCB;
PL6.E3A0      #001=DUZ$DRIV66 File=DUZ$DRIV66.:E05TSI                            TUE 07/29/97 15:05 Page:24
       70     5081    1   DCL F$LM DCB;
       71     5082                                                /* Based */
       72     5083        %FIXCOM (NAME="FIXCOM(0:0)",STCLASS="BASED(FIX$)");
       73     5099        %ALL_ATTACH;
       74     5114        %B$TREE_TABLE (HDR_NAME=B$TREEHDR,NODE_NAME=B$TREE);
       75     5172        %INCLUDE XUH_MACRO_C;
       76     5256        %INCLUDE DD_SD_M;
       77     6592        %S_D;
       78     7910        %S_D_PTRS;
       79     7947        %INCLUDE GD$MSG_M;
       80     8111       %GD$MSG(FPTN=GD$MSG, STCLASS="BASED(S_D_L6_MESSAGE$)",L6=YES,L6PTR="UBIN(32) UNAL");
       81     8267        %GD$MSG(FPTN=GD$MSG_HOST, STCLASS="BASED(S_D_HOST_MESSAGE$)",L6=NO);
       82     8423        %INCLUDE G_LCP6_E;
       83     8681        %INCLUDE DF_EQUS_E;
       84     8694        %INCLUDE GD_EQUS_E;
       85     8855        %FPRG$CONTEXT;
       86     8918        %FIXCOM(NAME="F$XCM",STCLASS=BASED);
       87     8934        %AT_FIRST;
       88     8962                                                /* Constant */
       89     8963        %FPT_OPEN (FPTN=FPT_OPEN_F$LM,
       90     8964                   STCLASS=CONSTANT SYMDEF,
       91     8965                   FUN=IN,
       92     8966                   DCB=F$LM);
       93     9075        %FPT_TRAP (FPTN=FPT_TRAP,
       94     9076                   STCLASS=CONSTANT,
       95     9077                   ARITHMETIC=DUX$TRAP,
       96     9078                     OVERFLOW=TRAP,
       97     9079                     DIVIDE_CHECK=TRAP,
       98     9080                   PROGRAMMED=DUX$TRAP,
       99     9081                     MME=TRAP,
      100     9082                     DERAIL=TRAP,
      101     9083                     FAULT_TAG=TRAP,
      102     9084                   ERRORS=DUX$TRAP,
      103     9085                     MEMORY=TRAP,
      104     9086                     COMMAND=TRAP,
      105     9087                     LOCKUP=TRAP,
      106     9088                     IPR=TRAP,
PL6.E3A0      #001=DUZ$DRIV66 File=DUZ$DRIV66.:E05TSI                            TUE 07/29/97 15:05 Page:25
      107     9089                     MISSING_SEG=TRAP,
      108     9090                     MISSING_PAGE=TRAP,
      109     9091                     SECURITY_1=TRAP,
      110     9092                     SECURITY_2=TRAP,
      111     9093                   PMME=DUX$TRAP,
      112     9094                   HISTORY_REGS=NO);
      113     9117        %FPT_INT(STCLASS=CONSTANT,UENTRY=DUX$BREAK);
      114     9131        %FPT_DRTN (STCLASS=AUTO);               /* someplace for DFA? to put stuff */
      115     9155                                                /* Symref */
      116     9156    1   DCL DCTX_ME UBIN SYMREF;
      117     9157    1   DCL UIS$ PTR SYMREF;
      118     9158    1   DCL B$TCB$ PTR SYMREF;
      119     9159    1   DCL DD_VARCOM$ PTR SYMREF;
      120     9160    1   DCL D_M$LM# UBIN SYMREF;
      121     9161                                                /* Static */
      122     9162        %B$HEAD (NAME=B_HEAD,STCLASS=STATIC);
      123     9362                                                /* Entrys */
      124     9363    1   DCL DDA$DO ENTRY(0) ALTRET;
      125     9364    1   DCL DDA$PLUGH ENTRY;
      126     9365    1   DCL DDA$SHOW ENTRY(0);
      127     9366    1   DCL DDB$BREAK ENTRY(0) ALTRET;
      128     9367    1   DCL DDE$ERROR ENTRY(0);
      129     9368    1   DCL DDM$GETMEM ENTRY(3) ALTRET;
      130     9369    1   DCL DDM$PUTMEM ENTRY(3) ALTRET;
      131     9370    1   DCL DDQ$READLM ENTRY(7) ALTRET;
      132     9371    1   DCL DDQ$WRITE ENTRY(2);
      133     9372    1   DCL DDR$INSTR ENTRY(1) ALTRET;
      134     9373    1   DCL DDR$REPORT ENTRY(1);
      135     9374    1   DCL DDS$ES_INQ ENTRY(1) ALTRET;
      136     9375    1   DCL DDS$INSTR ENTRY(1) ALTRET;
      137     9376    1   DCL DDS$SCAN ENTRY(0) ALTRET;
      138     9377    1   DCL DDS$SCAN2 ENTRY(0) ALTRET;
      139     9378    1   DCL DDS$SET_Q2C ENTRY(0) ALTRET;
      140     9379    1   DCL DDZ$CMDUMP ENTRY(2);
      141     9380    1   DCL DUI$1STIME ENTRY(0) ALTRET;
      142     9381    1   DCL DUX$TRAP ENTRY;
      143     9382    1   DCL DUX$BREAK ENTRY ASYNC;
PL6.E3A0      #001=DUZ$DRIV66 File=DUZ$DRIV66.:E05TSI                            TUE 07/29/97 15:05 Page:26
      144     9383    1   DCL DFQ$READ_FD ENTRY(2) ALTRET;
      145     9384    1   DCL DUE$ERRMSG ENTRY;
      146     9385    1   DCL DFR$EVENTRPT ENTRY(1);
      147     9386    1   DCL DUD$MINI ENTRY(1);
      148     9387    1   DCL DDF$FIND_PEDEF ENTRY(2) ALTRET;
      149     9388    1   DCL DFR$REPORT ENTRY(1);
      150     9389    1   DCL DDA$KILL1 ENTRY;
      151     9390    1   DCL DFA$TRACE_REPORT ENTRY ALTRET;
      152     9391    1   DCL DFA$FPRG ENTRY(1);
      153     9392    1   DCL DFA$KILL_FPRG ENTRY(1);
      154     9393    1   DCL DDA$DOATTACH ENTRY ALTRET;
      155     9394    1   DCL DFA$GO ENTRY(1) ALTRET;
      156     9395    1   DCL DFA$STOP_FPRGS ENTRY(2) ALTRET;
      157     9396                                                /* Misc include files */
      158     9397             %INCLUDE DD_ERR_C;
      159     9794             %INCLUDE DD_SUBS_C;
      160    10065             %INCLUDE DD_DEBUG_C;
      161    10086             %LIST;
      162    10087        %EJECT;
PL6.E3A0      #001=DUZ$DRIV66 File=DUZ$DRIV66.:E05TSI                            TUE 07/29/97 15:05 Page:27
      163    10088    1        CALL M$TRAP(FPT_TRAP);

  10088  6 000002   000072 630400 4                  EPPR0   FPT_TRAP
         6 000003   010004 713400                    CLIMB   4100
         6 000004   400400 401760                    pmme    nvectors=2

      164    10089    1        CALL M$INT(FPT_INT);

  10089  6 000005   000104 630400 4                  EPPR0   FPT_INT
         6 000006   010002 713400                    CLIMB   4098
         6 000007   400000 401760                    pmme    nvectors=1

      165    10090    1        CALL M$OPEN( FPT_OPEN_F$LM ) ALTRET( NOPNLM );

  10090  6 000010   000000 630400 4                  EPPR0   FPT_OPEN_F$LM
         6 000011   450000 713400                    CLIMB   alt,open
         6 000012   410400 401760                    pmme    nvectors=18
         6 000013   000426 702000 6                  TSX2    NOPNLM

      166    10091    1        S_D = '0'B;

  10091  6 000014   000000 470400 xsym               LDP0    S_D$
         6 000015   035020 220003                    LDX0    14864,DU
         6 000016   000140 100400                    MLR     fill='000'O
         6 000017   000002 000001 xsym               ADSC9   B_VECTNIL+2              cn=0,n=1
         6 000020   000000 000010                    ADSC9   0,,PR0                   cn=0,n=*X0

      167    10092    1        S_D.ONE_TO_TWO.EXEC_DOMAIN = %HOST;

  10092  6 000021   000001 235007                    LDA     1,DL
         6 000022   006714 755100                    STA     3532,,PR0

      168    10093    1        S_D.LMDCB = D_M$LM#;

  10093  6 000023   000000 236000 xsym               LDQ     D_M$LM#
         6 000024   004774 756100                    STQ     2556,,PR0

PL6.E3A0      #001=DUZ$DRIV66 File=DUZ$DRIV66.:E05TSI                            TUE 07/29/97 15:05 Page:28
      169    10094        /* Get the Read-only-segment */
      170    10095    1        ARS = 0;

  10095  6 000025   200006 450100                    STZ     ARS,,AUTO

      171    10096    1       CALL DDQ$READLM( %TYPHEAD, 0 /* @PAGE */, 0 /* @NODE */, ADDR( B_HEAD ), SIZEC(
             10096                 B_HEAD ), ARS ) ALTRET( NOHEAD );

  10096  6 000026   000000 236000 7                  LDQ     0
         6 000027   200056 756100                    STQ     FPT_DRTN+16,,AUTO
         6 000030   200006 631500                    EPPR1   ARS,,AUTO
         6 000031   200065 451500                    STP1    FPT_DRTN+23,,AUTO
         6 000032   000002 236000 7                  LDQ     2
         6 000033   200064 756100                    STQ     FPT_DRTN+22,,AUTO
         6 000034   200056 633500                    EPPR3   FPT_DRTN+16,,AUTO
         6 000035   200063 453500                    STP3    FPT_DRTN+21,,AUTO
         6 000036   000003 236000 7                  LDQ     3
         6 000037   200062 756100                    STQ     FPT_DRTN+20,,AUTO
         6 000040   000004 237000 7                  LDAQ    4
         6 000041   200060 757100                    STAQ    FPT_DRTN+18,,AUTO
         6 000042   200060 630500                    EPPR0   FPT_DRTN+18,,AUTO
         6 000043   000024 631400 xsym               EPPR1   B_VECTNIL+20
         6 000044   000000 701000 xent               TSX1    DDQ$READLM
         6 000045   000430 702000 6                  TSX2    NOHEAD

      172    10097    1        LEFT = B_HEAD.ROSIZE;

  10097  6 000046   000010 236000 5                  LDQ     B_HEAD+8
         6 000047   777777 376007                    ANQ     -1,DL
         6 000050   200007 756100                    STQ     LEFT,,AUTO

      173    10098    1        IF B_HEAD.FLAVOR = %HOST_RU

  10098  6 000051   000022 236000 5                  LDQ     B_HEAD+18
         6 000052   777000 376003                    ANQ     -512,DU
         6 000053   001000 116003                    CMPQ    512,DU
         6 000054   000176 601000 6                  TNZ     s:10123
PL6.E3A0      #001=DUZ$DRIV66 File=DUZ$DRIV66.:E05TSI                            TUE 07/29/97 15:05 Page:29

      174    10099    2        THEN DO;

      175    10100    2             CALL DDM$GETMEM( DD_VARCOM$, LEFT + SIZEW( B$ROSEG ) ) ALTRET( NOMEM );

  10100  6 000055   200007 235100                    LDA     LEFT,,AUTO
         6 000056   000124 035007                    ADLA    84,DL
         6 000057   200056 755100                    STA     FPT_DRTN+16,,AUTO
         6 000060   200056 630500                    EPPR0   FPT_DRTN+16,,AUTO
         6 000061   200061 450500                    STP0    FPT_DRTN+19,,AUTO
         6 000062   000006 236000 7                  LDQ     6
         6 000063   200060 756100                    STQ     FPT_DRTN+18,,AUTO
         6 000064   200060 630500                    EPPR0   FPT_DRTN+18,,AUTO
         6 000065   000020 631400 xsym               EPPR1   B_VECTNIL+16
         6 000066   000000 701000 xent               TSX1    DDM$GETMEM
         6 000067   000432 702000 6                  TSX2    NOMEM

      176    10101    2             PAGE = 0;

  10101  6 000070   200010 450100                    STZ     PAGE,,AUTO

      177    10102    2             ARS = 0;

  10102  6 000071   200006 450100                    STZ     ARS,,AUTO

      178    10103    2             LEFT = LEFT * LENGTHC( LEFT );

  10103  6 000072   200007 235100                    LDA     LEFT,,AUTO
         6 000073   000002 735000                    ALS     2
         6 000074   200007 755100                    STA     LEFT,,AUTO

      179    10104    2             TEMP$ = PINCRW( DD_VARCOM$, SIZEW( B$ROSEG ) );

  10104  6 000075   000000 236000 xsym               LDQ     DD_VARCOM$
         6 000076   000124 036003                    ADLQ    84,DU
         6 000077   200012 756100                    STQ     TEMP$,,AUTO

PL6.E3A0      #001=DUZ$DRIV66 File=DUZ$DRIV66.:E05TSI                            TUE 07/29/97 15:05 Page:30
      180    10105    2             TEMP1$ = TEMP$;

  10105  6 000100   200023 756100                    STQ     TEMP1$,,AUTO

      181    10106    3             DO WHILE ( LEFT > 0 );

  10106  6 000101   000000 115003                    CMPA    0,DU
         6 000102   000140 604400 6                  TMOZ    s:10112

      182    10107    3                  CALL DDQ$READLM( %TYPROS, PAGE, 0 /* @NODE */, TEMP$, LEFT, ARS )
             10107                           ALTRET( NOROS  );

  10107  6 000103   200006 630500                    EPPR0   ARS,,AUTO
         6 000104   200063 450500                    STP0    FPT_DRTN+21,,AUTO
         6 000105   200007 631500                    EPPR1   LEFT,,AUTO
         6 000106   200062 451500                    STP1    FPT_DRTN+20,,AUTO
         6 000107   200012 633500                    EPPR3   TEMP$,,AUTO
         6 000110   200061 453500                    STP3    FPT_DRTN+19,,AUTO
         6 000111   000003 236000 7                  LDQ     3
         6 000112   200060 756100                    STQ     FPT_DRTN+18,,AUTO
         6 000113   200010 634500                    EPPR4   PAGE,,AUTO
         6 000114   200057 454500                    STP4    FPT_DRTN+17,,AUTO
         6 000115   000010 236000 7                  LDQ     8
         6 000116   200056 756100                    STQ     FPT_DRTN+16,,AUTO
         6 000117   200056 630500                    EPPR0   FPT_DRTN+16,,AUTO
         6 000120   000024 631400 xsym               EPPR1   B_VECTNIL+20
         6 000121   000000 701000 xent               TSX1    DDQ$READLM
         6 000122   000440 702000 6                  TSX2    NOROS

      183    10108    3                  PAGE = PAGE + B_HEAD.PRECSIZE;

  10108  6 000123   000006 236000 5                  LDQ     B_HEAD+6
         6 000124   000022 772000                    QRL     18
         6 000125   200010 036100                    ADLQ    PAGE,,AUTO
         6 000126   200010 756100                    STQ     PAGE,,AUTO

      184    10109    3                  LEFT = LEFT - ARS;
PL6.E3A0      #001=DUZ$DRIV66 File=DUZ$DRIV66.:E05TSI                            TUE 07/29/97 15:05 Page:31

  10109  6 000127   200007 236100                    LDQ     LEFT,,AUTO
         6 000130   200006 136100                    SBLQ    ARS,,AUTO
         6 000131   200007 756100                    STQ     LEFT,,AUTO

      185    10110    3                  TEMP$ = PINCRC( TEMP$, ARS );

  10110  6 000132   200006 236100                    LDQ     ARS,,AUTO
         6 000133   000020 736000                    QLS     16
         6 000134   200012 036100                    ADLQ    TEMP$,,AUTO
         6 000135   200012 756100                    STQ     TEMP$,,AUTO

      186    10111    3                END;

  10111  6 000136   200007 235100                    LDA     LEFT,,AUTO
         6 000137   000103 605400 6                  TPNZ    s:10107

      187    10112    2             TEMP$ = PINCRW( TEMP1$, B_HEAD.TREEDISP );

  10112  6 000140   000005 236000 5                  LDQ     B_HEAD+5
         6 000141   777777 376003                    ANQ     -1,DU
         6 000142   200023 036100                    ADLQ    TEMP1$,,AUTO
         6 000143   200012 756100                    STQ     TEMP$,,AUTO

      188    10113    2             TEMP1$ = PINCRW( TEMP$, SIZEW( B$TREEHDR ) );

  10113  6 000144   000003 036003                    ADLQ    3,DU
         6 000145   200023 756100                    STQ     TEMP1$,,AUTO

      189    10114    2             TEMP1$ -> B$TREE.FLGS.NOW_IN = '1'B; /* Root is always in */

  10114  6 000146   200023 470500                    LDP0    TEMP1$,,AUTO
         6 000147   400000 236003                    LDQ     -131072,DU
         6 000150   000001 256100                    ORSQ    1,,PR0

      190    10115    2             DD_VARCOM$ -> B$ROSEG.TREE$ = TEMP$;

PL6.E3A0      #001=DUZ$DRIV66 File=DUZ$DRIV66.:E05TSI                            TUE 07/29/97 15:05 Page:32
  10115  6 000151   200012 236100                    LDQ     TEMP$,,AUTO
         6 000152   000000 470400 xsym               LDP0    DD_VARCOM$
         6 000153   000001 756100                    STQ     1,,PR0

      191    10116             /*D* Use RUM mode if you want to look at dcbs */
      192    10117    3             DO IX = 0 TO TEMP$ -> B$TREEHDR.NODES - 1;

  10117  6 000154   200025 450100                    STZ     IX,,AUTO
         6 000155   000171 710000 6                  TRA     s:10121+1

      193    10118    3                  PTRPTR$ = TEMP1$ -> B$TREE.NAME$;

  10118  6 000156   200023 470500                    LDP0    TEMP1$,,AUTO
         6 000157   000000 236100                    LDQ     0,,PR0
         6 000160   200024 756100                    STQ     PTRPTR$,,AUTO

      194    10119    3                  TEMP1$ -> B$TREE.NAME$ = PINCRW( TEMP$, PTRWORD.LH );

  10119  6 000161   200024 236100                    LDQ     PTRPTR$,,AUTO
         6 000162   777777 376003                    ANQ     -1,DU
         6 000163   200012 036100                    ADLQ    TEMP$,,AUTO
         6 000164   000000 756100                    STQ     0,,PR0

      195    10120    3                  TEMP1$ = PINCRW( TEMP1$, SIZEW( B$TREE ) );

  10120  6 000165   200023 236100                    LDQ     TEMP1$,,AUTO
         6 000166   000006 036003                    ADLQ    6,DU
         6 000167   200023 756100                    STQ     TEMP1$,,AUTO

      196    10121    3                END;

  10121  6 000170   200025 054100                    AOS     IX,,AUTO
         6 000171   200012 470500                    LDP0    TEMP$,,AUTO
         6 000172   000000 236100                    LDQ     0,,PR0
         6 000173   000022 772000                    QRL     18
         6 000174   200025 116100                    CMPQ    IX,,AUTO
         6 000175   000156 605400 6                  TPNZ    s:10118
PL6.E3A0      #001=DUZ$DRIV66 File=DUZ$DRIV66.:E05TSI                            TUE 07/29/97 15:05 Page:33

      197    10122    2           END;

      198    10123    1        CALL DUI$1STIME

  10123  6 000176   000002 631400 xsym               EPPR1   B_VECTNIL+2
         6 000177   000000 701000 xent               TSX1    DUI$1STIME
         6 000200   000202 702000 6                  TSX2    s:10125
         6 000201   000207 710000 6                  TRA     s:10128

      199    10124    2        WHENALTRETURN DO;

      200    10125    2             CALL DDE$ERROR;

  10125  6 000202   000002 631400 xsym               EPPR1   B_VECTNIL+2
         6 000203   000000 701000 xent               TSX1    DDE$ERROR
         6 000204   000000 011000                    NOP     0

      201    10126    2             CALL M$XXX;

  10126  6 000205   000003 713400                    CLIMB   3
         6 000206   000000 401760                    pmme    nvectors=0

      202    10127    2           END;

      203    10128    1        REMEMBER GETOUT IN S_D.REM_DRTN_QUIT;

  10128  6 000207   000445 635000 6                  EAA     GETOUT
         6 000210   000000 470400 xsym               LDP0    S_D$
         6 000211   005200 452500                    STP2    2688,,PR0
         6 000212   005201 755100                    STA     2689,,PR0

      204    10129    1        S_D.PADDR = ( ( ( B_HEAD.BIAS + B_HEAD.VDPGS ) * 1024 /* @PSIZ */ ) / 1024
             10129                 /* @PSIZ */ ) * 1024 /* @PSIZ */;

  10129  6 000213   000002 236000 5                  LDQ     B_HEAD+2
         6 000214   000026 772000                    QRL     22
PL6.E3A0      #001=DUZ$DRIV66 File=DUZ$DRIV66.:E05TSI                            TUE 07/29/97 15:05 Page:34
         6 000215   200056 756100                    STQ     FPT_DRTN+16,,AUTO
         6 000216   000023 236000 5                  LDQ     B_HEAD+19
         6 000217   000011 376000 7                  ANQ     9
         6 000220   200056 036100                    ADLQ    FPT_DRTN+16,,AUTO
         6 000221   000012 736000                    QLS     10
         6 000222   004765 756100                    STQ     2549,,PR0

      205    10130    1        REGVALUES = '0'B;

  10130  6 000223   003100 060400                    CSL     bolr='003'O
         6 000224   000002 000001 xsym               BDSC    B_VECTNIL+2              by=0,bit=0,n=1
         6 000225   200027 000340                    BDSC    REGVALUES,,AUTO          by=0,bit=0,n=224

      206    10131    1        S_D.UREG$ = ADDR( REGVALUES );

  10131  6 000226   200027 631500                    EPPR1   REGVALUES,,AUTO
         6 000227   000045 451500                    STP1    37,,PR0

      207    10132    1        S_D.DRTN$ = ADDR( FPT_DRTN );

  10132  6 000230   200036 633500                    EPPR3   FPT_DRTN,,AUTO
         6 000231   004704 453500                    STP3    2500,,PR0

      208    10133    1        FIX$ = ADDR( S_D.FIXCOM );

  10133  6 000232   000000 236000 xsym               LDQ     S_D$
         6 000233   001212 036003                    ADLQ    650,DU
         6 000234   200003 756100                    STQ     FIX$,,AUTO

      209    10134    1        VAR$ = S_D.VARCOM$;

  10134  6 000235   004622 236100                    LDQ     2450,,PR0
         6 000236   200005 756100                    STQ     VAR$,,AUTO

      210    10135    1        DIR$ = ADDR( S_D.DIRCOM );

  10135  6 000237   000000 236000 xsym               LDQ     S_D$
PL6.E3A0      #001=DUZ$DRIV66 File=DUZ$DRIV66.:E05TSI                            TUE 07/29/97 15:05 Page:35
         6 000240   001046 036003                    ADLQ    550,DU
         6 000241   200004 756100                    STQ     DIR$,,AUTO

      211    10136    1        S_D.USS$ = B$TCB$ -> B$TCB.ALT$;

  10136  6 000242   000000 474400 xsym               LDP4    B$TCB$
         6 000243   400000 236100                    LDQ     0,,PR4
         6 000244   000005 756100                    STQ     5,,PR0

      212    10137    1        S_D.IXFIX = 3/*FAULT_FAULTTAG*/;

  10137  6 000245   000003 235007                    LDA     3,DL
         6 000246   000015 755100                    STA     13,,PR0

      213    10138    1        S_D.FAULT = 6/*FAULT_DERAIL*/;

  10138  6 000247   000006 235007                    LDA     6,DL
         6 000250   000030 755100                    STA     24,,PR0

      214    10139    1        IX = B_HEAD.START;

  10139  6 000251   000003 236000 5                  LDQ     B_HEAD+3
         6 000252   000011 376000 7                  ANQ     9
         6 000253   200025 756100                    STQ     IX,,AUTO

      215    10140    1        S_D.FAULTINS$ = PINCRW( UIS$, IX+8 );

  10140  6 000254   000022 736000                    QLS     18
         6 000255   000010 036003                    ADLQ    8,DU
         6 000256   000000 036000 xsym               ADLQ    UIS$
         6 000257   000003 756100                    STQ     3,,PR0

      216    10141    1        S_D.SAVEIC = IX;

  10141  6 000260   200025 235100                    LDA     IX,,AUTO
         6 000261   000002 755100                    STA     2,,PR0

PL6.E3A0      #001=DUZ$DRIV66 File=DUZ$DRIV66.:E05TSI                            TUE 07/29/97 15:05 Page:36
      217    10142    1        CALL DDS$ES_INQ( IX );

  10142  6 000262   200025 635500                    EPPR5   IX,,AUTO
         6 000263   200056 455500                    STP5    FPT_DRTN+16,,AUTO
         6 000264   200056 630500                    EPPR0   FPT_DRTN+16,,AUTO
         6 000265   000017 631400 xsym               EPPR1   B_VECTNIL+15
         6 000266   000000 701000 xent               TSX1    DDS$ES_INQ
         6 000267   000000 011000                    NOP     0

      218    10143    1        CALL DDS$SET_Q2C;

  10143  6 000270   000002 631400 xsym               EPPR1   B_VECTNIL+2
         6 000271   000000 701000 xent               TSX1    DDS$SET_Q2C
         6 000272   000000 011000                    NOP     0

      219    10144    1        CALL DDR$REPORT( 11/*R_DELTA*/ );

  10144  6 000273   000012 630400 7                  EPPR0   10
         6 000274   000017 631400 xsym               EPPR1   B_VECTNIL+15
         6 000275   000000 701000 xent               TSX1    DDR$REPORT
         6 000276   000000 011000                    NOP     0

      220    10145             %EJECT;
PL6.E3A0      #001=DUZ$DRIV66 File=DUZ$DRIV66.:E05TSI                            TUE 07/29/97 15:05 Page:37
      221    10146    1   AGAIN:
      222    10147        /* Exercise fault reporting */
      223    10148    1        S_D.DO_ATTACH = 0;

  10148  6 000277   000000 470400 xsym  AGAIN        LDP0    S_D$
         6 000300   000512 450100                    STZ     330,,PR0

      224    10149    1        IF S_D.DEBUGA( %DB@REPORT )        /* DB@REPORT */

  10149  6 000301   000053 236100                    LDQ     43,,PR0
         6 000302   000020 316007                    CANQ    16,DL
         6 000303   000323 600000 6                  TZE     TRAP_HERE

      225    10150    2        THEN DO IX = 1/*R_AT*/ TO 16/*R_LINKRTN*/;

  10150  6 000304   000001 235007                    LDA     1,DL
         6 000305   200025 755100                    STA     IX,,AUTO

      226    10151    2             CALL DDB$BREAK ALTRET( TRAP_HERE );

  10151  6 000306   000002 631400 xsym               EPPR1   B_VECTNIL+2
         6 000307   000000 701000 xent               TSX1    DDB$BREAK
         6 000310   000323 702000 6                  TSX2    TRAP_HERE

      227    10152    2             CALL DDR$REPORT( IX );

  10152  6 000311   200025 630500                    EPPR0   IX,,AUTO
         6 000312   200056 450500                    STP0    FPT_DRTN+16,,AUTO
         6 000313   200056 630500                    EPPR0   FPT_DRTN+16,,AUTO
         6 000314   000017 631400 xsym               EPPR1   B_VECTNIL+15
         6 000315   000000 701000 xent               TSX1    DDR$REPORT
         6 000316   000000 011000                    NOP     0

      228    10153    2           END;

  10153  6 000317   200025 054100                    AOS     IX,,AUTO
         6 000320   200025 235100                    LDA     IX,,AUTO
PL6.E3A0      #001=DUZ$DRIV66 File=DUZ$DRIV66.:E05TSI                            TUE 07/29/97 15:05 Page:38
         6 000321   000020 115007                    CMPA    16,DL
         6 000322   000306 604400 6                  TMOZ    s:10151

  10149  6 000323                       TRAP_HERE    null
      229    10154        /* Exercise scanner */
      230    10155    1   TRAP_HERE: ;
      231    10156    1        S_D.DO_SCAN = '1'B;

  10156  6 000323   400000 236003                    LDQ     -131072,DU
         6 000324   000000 470400 xsym               LDP0    S_D$
         6 000325   000017 756100                    STQ     15,,PR0

      232    10157    1        S_D.DO$ = ADDR(NIL);

  10157  6 000326   000001 236000 xsym               LDQ     B_VECTNIL+1
         6 000327   000031 756100                    STQ     25,,PR0

      233    10158    1        REMEMBER TRAP_HERE IN S_D.REM_DO_SCAN;

  10158  6 000330   000323 635000 6                  EAA     TRAP_HERE
         6 000331   000022 452500                    STP2    18,,PR0
         6 000332   000023 755100                    STA     19,,PR0

      234    10159    1        REMEMBER PEVENT IN S_D.REM_USERGO;

  10159  6 000333   000442 635000 6                  EAA     PEVENT
         6 000334   005232 452500                    STP2    2714,,PR0
         6 000335   005233 755100                    STA     2715,,PR0

      235    10160    1        REMEMBER BRK IN S_D.REM_BREAK;

  10160  6 000336   000410 635000 6                  EAA     BRK
         6 000337   005242 452500                    STP2    2722,,PR0
         6 000340   005243 755100                    STA     2723,,PR0

      236    10161    1        S_D.DIRECT_OFF = S_D.DIRECT_SIZE;

PL6.E3A0      #001=DUZ$DRIV66 File=DUZ$DRIV66.:E05TSI                            TUE 07/29/97 15:05 Page:39
  10161  6 000341   004675 235100                    LDA     2493,,PR0
         6 000342   004676 755100                    STA     2494,,PR0

      237    10162    1        CALL DDS$SCAN;

  10162  6 000343   000002 631400 xsym               EPPR1   B_VECTNIL+2
         6 000344   000000 701000 xent               TSX1    DDS$SCAN
         6 000345   000000 011000                    NOP     0

      238    10163    1        S_D.DO_SCAN = '0'B;

  10163  6 000346   000000 470400 xsym               LDP0    S_D$
         6 000347   000017 450100                    STZ     15,,PR0

      239    10164    1        CALL CALL_DO;

  10164  6 000350   000450 701000 6                  TSX1    CALL_DO
         6 000351   000000 011000                    NOP     0

      240    10165    1        ATT_OFFSET = S_D.DIRECT_OFF;

  10165  6 000352   000000 470400 xsym               LDP0    S_D$
         6 000353   004676 235100                    LDA     2494,,PR0
         6 000354   200026 755100                    STA     ATT_OFFSET,,AUTO

      241    10166    2        DO WHILE ( ATT_OFFSET < S_D.DIRECT_SIZE );

  10166  6 000355   200026 236100                    LDQ     ATT_OFFSET,,AUTO
         6 000356   004675 116100                    CMPQ    2493,,PR0
         6 000357   000407 603000 6                  TRC     s:10175

      242    10167    2             S_D.ACMDS$ = ADDR( S_D.DIRECT_TEXT );

  10167  6 000360   000000 236000 xsym               LDQ     S_D$
         6 000361   006335 036003                    ADLQ    3293,DU
         6 000362   000000 470400 xsym               LDP0    S_D$
         6 000363   000510 756100                    STQ     328,,PR0
PL6.E3A0      #001=DUZ$DRIV66 File=DUZ$DRIV66.:E05TSI                            TUE 07/29/97 15:05 Page:40

      243    10168    2             S_D.ACMDS_SIZE = S_D.DIRECT_SIZE;

  10168  6 000364   004675 235100                    LDA     2493,,PR0
         6 000365   000511 755100                    STA     329,,PR0

      244    10169    2             S_D.ACMDS_OFF = ATT_OFFSET;

  10169  6 000366   200026 235100                    LDA     ATT_OFFSET,,AUTO
         6 000367   000507 755100                    STA     327,,PR0

      245    10170    2             CALL DDS$SCAN2 ALTRET( AGAIN );

  10170  6 000370   000002 631400 xsym               EPPR1   B_VECTNIL+2
         6 000371   000000 701000 xent               TSX1    DDS$SCAN2
         6 000372   000277 702000 6                  TSX2    AGAIN

      246    10171    2             ATT_OFFSET = S_D.ACMDS_OFF;

  10171  6 000373   000000 470400 xsym               LDP0    S_D$
         6 000374   000507 235100                    LDA     327,,PR0
         6 000375   200026 755100                    STA     ATT_OFFSET,,AUTO

      247    10172    2             CALL DDB$BREAK ALTRET( AGAIN );

  10172  6 000376   000002 631400 xsym               EPPR1   B_VECTNIL+2
         6 000377   000000 701000 xent               TSX1    DDB$BREAK
         6 000400   000277 702000 6                  TSX2    AGAIN

      248    10173    2             CALL CALL_DO;

  10173  6 000401   000450 701000 6                  TSX1    CALL_DO
         6 000402   000000 011000                    NOP     0

      249    10174    2           END;

  10174  6 000403   000000 470400 xsym               LDP0    S_D$
PL6.E3A0      #001=DUZ$DRIV66 File=DUZ$DRIV66.:E05TSI                            TUE 07/29/97 15:05 Page:41
         6 000404   200026 236100                    LDQ     ATT_OFFSET,,AUTO
         6 000405   004675 116100                    CMPQ    2493,,PR0
         6 000406   000360 602000 6                  TNC     s:10167

      250    10175    1        GOTO AGAIN;

  10175  6 000407   000277 710000 6                  TRA     AGAIN

      251    10176                                                /**/
      252    10177    1   BRK:
      253    10178    1        IF S_D.FPRG_CONTEXT$ ~= ADDR(NIL)

  10178  6 000410   000000 470400 xsym  BRK          LDP0    S_D$
         6 000411   000076 236100                    LDQ     62,,PR0
         6 000412   000001 116000 xsym               CMPQ    B_VECTNIL+1
         6 000413   000425 600000 6                  TZE     s:10187

      254    10179    2        THEN DO;

      255    10180    2             CALL DFA$STOP_FPRGS

  10180  6 000414   000002 631400 xsym               EPPR1   B_VECTNIL+2
         6 000415   000000 701000 xent               TSX1    DFA$STOP_FPRGS
         6 000416   000420 702000 6                  TSX2    s:10182
         6 000417   000423 710000 6                  TRA     s:10185

      256    10181    3             WHENALTRETURN DO;

      257    10182    3                  S_D.BREAK = '0'B;

  10182  6 000420   000000 470400 xsym               LDP0    S_D$
         6 000421   000026 450100                    STZ     22,,PR0

      258    10183    3                  GOTO AGAIN;

  10183  6 000422   000277 710000 6                  TRA     AGAIN

PL6.E3A0      #001=DUZ$DRIV66 File=DUZ$DRIV66.:E05TSI                            TUE 07/29/97 15:05 Page:42
      259    10184    3                END;
      260    10185    2             S_D.BREAK = '0'B;

  10185  6 000423   000000 470400 xsym               LDP0    S_D$
         6 000424   000026 450100                    STZ     22,,PR0

      261    10186    2           END;

      262    10187    1        GOTO AGAIN;

  10187  6 000425   000277 710000 6                  TRA     AGAIN

      263    10188    1   NOPNLM: CALL M$XXX;

  10188  6 000426   000003 713400       NOPNLM       CLIMB   3
         6 000427   000000 401760                    pmme    nvectors=0

      264    10189    1   NOHEAD: CALL M$XXX;

  10189  6 000430   000003 713400       NOHEAD       CLIMB   3
         6 000431   000000 401760                    pmme    nvectors=0

      265    10190    1   NOMEM: CALL M$XXX;

  10190  6 000432   000003 713400       NOMEM        CLIMB   3
         6 000433   000000 401760                    pmme    nvectors=0

      266    10191    1   NOMEM1: CALL M$XXX;

  10191  6 000434   000003 713400       NOMEM1       CLIMB   3
         6 000435   000000 401760                    pmme    nvectors=0

      267    10192    1   NOMEM2: CALL M$XXX;

  10192  6 000436   000003 713400       NOMEM2       CLIMB   3
         6 000437   000000 401760                    pmme    nvectors=0

PL6.E3A0      #001=DUZ$DRIV66 File=DUZ$DRIV66.:E05TSI                            TUE 07/29/97 15:05 Page:43
      268    10193    1   NOROS: CALL M$XXX;

  10193  6 000440   000003 713400       NOROS        CLIMB   3
         6 000441   000000 401760                    pmme    nvectors=0

      269    10194    1   PEVENT: CALL CALL_DO_EVENT;

  10194  6 000442   001022 701000 6     PEVENT       TSX1    CALL_DO_EVENT
         6 000443   000000 011000                    NOP     0

      270    10195    1        GOTO AGAIN;

  10195  6 000444   000277 710000 6                  TRA     AGAIN

  10190  6 000445                       GETOUT       null
      271    10196    1   GETOUT: ;
      272    10197    1        CALL M$EXIT;

  10197  6 000445   000001 713400                    CLIMB   exit
         6 000446   000000 401760                    pmme    nvectors=0
         6 000447   001657 710000 6                  TRA     s:10485

      273    10198                                                /**/
      274    10199        %EJECT;
PL6.E3A0      #001=DUZ$DRIV66 File=DUZ$DRIV66.:E05TSI                            TUE 07/29/97 15:05 Page:44
      275    10200
      276    10201    1   CALL_DO: PROC;

  10201  6 000450   200054 741300       CALL_DO      STX1  ! FPT_DRTN+14,,AUTO

      277    10202
      278    10203    2        IF S_D.DEBUGA( %DB@DUMPDIR )       /* DB@DUMPDIR */

  10203  6 000451   000000 470400 xsym               LDP0    S_D$
         6 000452   000053 236100                    LDQ     43,,PR0
         6 000453   000002 316007                    CANQ    2,DL
         6 000454   000470 600000 6                  TZE     s:10208

      279    10204    3        THEN DO;                           /* Dump dircom */

      280    10205    3             TEMP$ = PINCRW(S_D.D$,-1);

  10205  6 000455   000044 236100                    LDQ     36,,PR0
         6 000456   777777 036003                    ADLQ    -1,DU
         6 000457   200012 756100                    STQ     TEMP$,,AUTO

      281    10206    3             CALL DDZ$CMDUMP(DIR$,TEMP$);

  10206  6 000460   200012 631500                    EPPR1   TEMP$,,AUTO
         6 000461   200057 451500                    STP1    FPT_DRTN+17,,AUTO
         6 000462   200004 633500                    EPPR3   DIR$,,AUTO
         6 000463   200056 453500                    STP3    FPT_DRTN+16,,AUTO
         6 000464   200056 630500                    EPPR0   FPT_DRTN+16,,AUTO
         6 000465   000020 631400 xsym               EPPR1   B_VECTNIL+16
         6 000466   000000 701000 xent               TSX1    DDZ$CMDUMP
         6 000467   000000 011000                    NOP     0

      282    10207    3           END;                            /* Dump dircom */

      283    10208    2        CALL DDB$BREAK ALTRET( RETN );

  10208  6 000470   000002 631400 xsym               EPPR1   B_VECTNIL+2
PL6.E3A0      #001=DUZ$DRIV66 File=DUZ$DRIV66.:E05TSI                            TUE 07/29/97 15:05 Page:45
         6 000471   000000 701000 xent               TSX1    DDB$BREAK
         6 000472   000773 702000 6                  TSX2    RETN

      284    10209    2        IF S_D.DEBUGA( %DB@DUMPVAR )       /* DB@DUMPVAR */

  10209  6 000473   000000 470400 xsym               LDP0    S_D$
         6 000474   000053 236100                    LDQ     43,,PR0
         6 000475   000004 316007                    CANQ    4,DL
         6 000476   000557 600000 6                  TZE     s:10221

      285    10210    3        THEN DO IX = 1 TO (SIZEW(S_D.FIXCOM)/SIZEW(S_D.FIXCOM(0)))-1;

  10210  6 000477   000001 235007                    LDA     1,DL
         6 000500   200025 755100                    STA     IX,,AUTO
         6 000501   000554 710000 6                  TRA     s:10220+1

      286    10211    3             IF FIXCOM.CMD(IX) ~= 0

  10211  6 000502   200025 236100                    LDQ     IX,,AUTO
         6 000503   000006 402007                    MPY     6,DL
         6 000504   200003 470500                    LDP0    FIX$,,AUTO
         6 000505   000000 236106                    LDQ     0,QL,PR0
         6 000506   777000 316003                    CANQ    -512,DU
         6 000507   000553 600000 6                  TZE     s:10220

      287    10212    4             THEN DO;                      /* Dump fixcom & varcom entry */

      288    10213    4                  TEMP$ = PINCRW(FIX$,SIZEW(FIXCOM)*IX);

  10213  6 000510   200025 236100                    LDQ     IX,,AUTO
         6 000511   000006 402003                    MPY     6,DU
         6 000512   200003 036100                    ADLQ    FIX$,,AUTO
         6 000513   200012 756100                    STQ     TEMP$,,AUTO

      289    10214    4                  TEMP1$ = PINCRW(TEMP$,1);

  10214  6 000514   000001 036003                    ADLQ    1,DU
PL6.E3A0      #001=DUZ$DRIV66 File=DUZ$DRIV66.:E05TSI                            TUE 07/29/97 15:05 Page:46
         6 000515   200023 756100                    STQ     TEMP1$,,AUTO

      290    10215    4                  CALL DDZ$CMDUMP(TEMP$,TEMP1$);

  10215  6 000516   200023 631500                    EPPR1   TEMP1$,,AUTO
         6 000517   200057 451500                    STP1    FPT_DRTN+17,,AUTO
         6 000520   200012 633500                    EPPR3   TEMP$,,AUTO
         6 000521   200056 453500                    STP3    FPT_DRTN+16,,AUTO
         6 000522   200056 630500                    EPPR0   FPT_DRTN+16,,AUTO
         6 000523   000020 631400 xsym               EPPR1   B_VECTNIL+16
         6 000524   000000 701000 xent               TSX1    DDZ$CMDUMP
         6 000525   000000 011000                    NOP     0

      291    10216    4                  TEMP$ = PINCRW(VAR$,FIXCOM.FAI(IX));

  10216  6 000526   200025 236100                    LDQ     IX,,AUTO
         6 000527   000006 402007                    MPY     6,DL
         6 000530   200003 470500                    LDP0    FIX$,,AUTO
         6 000531   000002 720106                    LXL0    2,QL,PR0
         6 000532   000000 636010                    EAQ     0,X0
         6 000533   200005 036100                    ADLQ    VAR$,,AUTO
         6 000534   200012 756100                    STQ     TEMP$,,AUTO

      292    10217    4                  TEMP1$ = PINCRW(TEMP$,FIXCOM.TAL(IX)-1);

  10217  6 000535   200025 236100                    LDQ     IX,,AUTO
         6 000536   000006 402007                    MPY     6,DL
         6 000537   000000 720106                    LXL0    0,QL,PR0
         6 000540   777777 636010                    EAQ     -1,X0
         6 000541   200012 036100                    ADLQ    TEMP$,,AUTO
         6 000542   200023 756100                    STQ     TEMP1$,,AUTO

      293    10218    4                  CALL DDZ$CMDUMP(TEMP$,TEMP1$);

  10218  6 000543   200023 631500                    EPPR1   TEMP1$,,AUTO
         6 000544   200057 451500                    STP1    FPT_DRTN+17,,AUTO
         6 000545   200012 633500                    EPPR3   TEMP$,,AUTO
PL6.E3A0      #001=DUZ$DRIV66 File=DUZ$DRIV66.:E05TSI                            TUE 07/29/97 15:05 Page:47
         6 000546   200056 453500                    STP3    FPT_DRTN+16,,AUTO
         6 000547   200056 630500                    EPPR0   FPT_DRTN+16,,AUTO
         6 000550   000020 631400 xsym               EPPR1   B_VECTNIL+16
         6 000551   000000 701000 xent               TSX1    DDZ$CMDUMP
         6 000552   000000 011000                    NOP     0

      294    10219    4                END;                       /* Dump fixcom & varcom */

      295    10220    3           END;                            /* "DO IX" */

  10220  6 000553   200025 054100                    AOS     IX,,AUTO
         6 000554   200025 235100                    LDA     IX,,AUTO
         6 000555   000453 115007                    CMPA    299,DL
         6 000556   000502 604400 6                  TMOZ    s:10211

      296    10221    2        CALL DDB$BREAK ALTRET( RETN );

  10221  6 000557   000002 631400 xsym               EPPR1   B_VECTNIL+2
         6 000560   000000 701000 xent               TSX1    DDB$BREAK
         6 000561   000773 702000 6                  TSX2    RETN

      297    10222    2        IF S_D.DEBUGA( %DB@SIMSHOW )       /* DB@SIMSHOW */

  10222  6 000562   000000 470400 xsym               LDP0    S_D$
         6 000563   000053 236100                    LDQ     43,,PR0
         6 000564   000010 316007                    CANQ    8,DL
         6 000565   000603 600000 6                  TZE     s:10231

      298    10223    3        THEN DO;                           /* Show */

      299    10224    3             IF ( DIR$ -> ALL_ATTACH.CMD = 44 ) AND /* C_SHOW */

  10224  6 000566   200004 471500                    LDP1    DIR$,,AUTO
         6 000567   100000 236100                    LDQ     0,,PR1
         6 000570   777000 376003                    ANQ     -512,DU
         6 000571   054000 116003                    CMPQ    22528,DU
         6 000572   000603 601000 6                  TNZ     s:10231
PL6.E3A0      #001=DUZ$DRIV66 File=DUZ$DRIV66.:E05TSI                            TUE 07/29/97 15:05 Page:48
         6 000573   000053 236100                    LDQ     43,,PR0
         6 000574   000100 316007                    CANQ    64,DL
         6 000575   000603 601000 6                  TNZ     s:10231

      300    10225    3               ( NOT S_D.DEBUGA( %DB@SIMDO ) ) /* DB@SIMDO */
      301    10226    4             THEN DO;

      302    10227    4                  S_D.DO$ = DIR$;

  10227  6 000576   200004 236100                    LDQ     DIR$,,AUTO
         6 000577   000031 756100                    STQ     25,,PR0

      303    10228    4                  CALL DDA$SHOW;

  10228  6 000600   000002 631400 xsym               EPPR1   B_VECTNIL+2
         6 000601   000000 701000 xent               TSX1    DDA$SHOW
         6 000602   000000 011000                    NOP     0

      304    10229    4                END;

      305    10230    3           END;                            /* Show */

      306    10231    2        IF S_D.DEBUGA( %DB@SIMDO ) OR      /* DB@SIMDO */

  10231  6 000603   000000 470400 xsym               LDP0    S_D$
         6 000604   000053 236100                    LDQ     43,,PR0
         6 000605   000100 316007                    CANQ    64,DL
         6 000606   000614 601000 6                  TNZ     s:10234
         6 000607   200004 471500                    LDP1    DIR$,,AUTO
         6 000610   100000 236100                    LDQ     0,,PR1
         6 000611   777000 376003                    ANQ     -512,DU
         6 000612   131000 116003                    CMPQ    45568,DU
         6 000613   000773 601000 6                  TNZ     RETN

      307    10232    2          ( DIR$ -> ALL_ATTACH.CMD = 89 ) /* C_DEBUG */
      308    10233    3        THEN DO;

PL6.E3A0      #001=DUZ$DRIV66 File=DUZ$DRIV66.:E05TSI                            TUE 07/29/97 15:05 Page:49
      309    10234    3             S_D.DO$ = DIR$;

  10234  6 000614   200004 236100                    LDQ     DIR$,,AUTO
         6 000615   000031 756100                    STQ     25,,PR0

      310    10235    4             DO CASE ( DIR$ -> ALL_ATTACH.CMD );

  10235  6 000616   200004 471500                    LDP1    DIR$,,AUTO
         6 000617   100000 236100                    LDQ     0,,PR1
         6 000620   000033 772000                    QRL     27
         6 000621   000133 116007                    CMPQ    91,DL
         6 000622   000624 602006 6                  TNC     s:10235+6,QL
         6 000623   000763 710000 6                  TRA     s:10296
         6 000624   000763 710000 6                  TRA     s:10296
         6 000625   000757 710000 6                  TRA     DO_IT
         6 000626   000763 710000 6                  TRA     s:10296
         6 000627   000763 710000 6                  TRA     s:10296
         6 000630   000757 710000 6                  TRA     DO_IT
         6 000631   000757 710000 6                  TRA     DO_IT
         6 000632   000757 710000 6                  TRA     DO_IT
         6 000633   000757 710000 6                  TRA     DO_IT
         6 000634   000757 710000 6                  TRA     DO_IT
         6 000635   000763 710000 6                  TRA     s:10296
         6 000636   000757 710000 6                  TRA     DO_IT
         6 000637   000757 710000 6                  TRA     DO_IT
         6 000640   000757 710000 6                  TRA     DO_IT
         6 000641   000757 710000 6                  TRA     DO_IT
         6 000642   000763 710000 6                  TRA     s:10296
         6 000643   000757 710000 6                  TRA     DO_IT
         6 000644   000757 710000 6                  TRA     DO_IT
         6 000645   000757 710000 6                  TRA     DO_IT
         6 000646   000757 710000 6                  TRA     DO_IT
         6 000647   000757 710000 6                  TRA     DO_IT
         6 000650   000757 710000 6                  TRA     DO_IT
         6 000651   000757 710000 6                  TRA     DO_IT
         6 000652   000757 710000 6                  TRA     DO_IT
         6 000653   000763 710000 6                  TRA     s:10296
PL6.E3A0      #001=DUZ$DRIV66 File=DUZ$DRIV66.:E05TSI                            TUE 07/29/97 15:05 Page:50
         6 000654   000757 710000 6                  TRA     DO_IT
         6 000655   000757 710000 6                  TRA     DO_IT
         6 000656   000757 710000 6                  TRA     DO_IT
         6 000657   000757 710000 6                  TRA     DO_IT
         6 000660   000757 710000 6                  TRA     DO_IT
         6 000661   000757 710000 6                  TRA     DO_IT
         6 000662   000763 710000 6                  TRA     s:10296
         6 000663   000763 710000 6                  TRA     s:10296
         6 000664   000763 710000 6                  TRA     s:10296
         6 000665   000757 710000 6                  TRA     DO_IT
         6 000666   000763 710000 6                  TRA     s:10296
         6 000667   000757 710000 6                  TRA     DO_IT
         6 000670   000757 710000 6                  TRA     DO_IT
         6 000671   000757 710000 6                  TRA     DO_IT
         6 000672   000763 710000 6                  TRA     s:10296
         6 000673   000757 710000 6                  TRA     DO_IT
         6 000674   000763 710000 6                  TRA     s:10296
         6 000675   000757 710000 6                  TRA     DO_IT
         6 000676   000757 710000 6                  TRA     DO_IT
         6 000677   000757 710000 6                  TRA     DO_IT
         6 000700   000757 710000 6                  TRA     DO_IT
         6 000701   000763 710000 6                  TRA     s:10296
         6 000702   000763 710000 6                  TRA     s:10296
         6 000703   000763 710000 6                  TRA     s:10296
         6 000704   000763 710000 6                  TRA     s:10296
         6 000705   000763 710000 6                  TRA     s:10296
         6 000706   000757 710000 6                  TRA     DO_IT
         6 000707   000757 710000 6                  TRA     DO_IT
         6 000710   000757 710000 6                  TRA     DO_IT
         6 000711   000763 710000 6                  TRA     s:10296
         6 000712   000763 710000 6                  TRA     s:10296
         6 000713   000757 710000 6                  TRA     DO_IT
         6 000714   000757 710000 6                  TRA     DO_IT
         6 000715   000763 710000 6                  TRA     s:10296
         6 000716   000763 710000 6                  TRA     s:10296
         6 000717   000757 710000 6                  TRA     DO_IT
         6 000720   000763 710000 6                  TRA     s:10296
PL6.E3A0      #001=DUZ$DRIV66 File=DUZ$DRIV66.:E05TSI                            TUE 07/29/97 15:05 Page:51
         6 000721   000763 710000 6                  TRA     s:10296
         6 000722   000757 710000 6                  TRA     DO_IT
         6 000723   000757 710000 6                  TRA     DO_IT
         6 000724   000757 710000 6                  TRA     DO_IT
         6 000725   000763 710000 6                  TRA     s:10296
         6 000726   000763 710000 6                  TRA     s:10296
         6 000727   000763 710000 6                  TRA     s:10296
         6 000730   000763 710000 6                  TRA     s:10296
         6 000731   000763 710000 6                  TRA     s:10296
         6 000732   000757 710000 6                  TRA     DO_IT
         6 000733   000757 710000 6                  TRA     DO_IT
         6 000734   000757 710000 6                  TRA     DO_IT
         6 000735   000757 710000 6                  TRA     DO_IT
         6 000736   000757 710000 6                  TRA     DO_IT
         6 000737   000757 710000 6                  TRA     DO_IT
         6 000740   000763 710000 6                  TRA     s:10296
         6 000741   000757 710000 6                  TRA     DO_IT
         6 000742   000763 710000 6                  TRA     s:10296
         6 000743   000757 710000 6                  TRA     DO_IT
         6 000744   000757 710000 6                  TRA     DO_IT
         6 000745   000757 710000 6                  TRA     DO_IT
         6 000746   000763 710000 6                  TRA     s:10296
         6 000747   000763 710000 6                  TRA     s:10296
         6 000750   000763 710000 6                  TRA     s:10296
         6 000751   000757 710000 6                  TRA     DO_IT
         6 000752   000763 710000 6                  TRA     s:10296
         6 000753   000757 710000 6                  TRA     DO_IT
         6 000754   000757 710000 6                  TRA     DO_IT
         6 000755   000757 710000 6                  TRA     DO_IT
         6 000756   000757 710000 6                  TRA     DO_IT

      311    10236    4               CASE ( 1,            /* C_ABBREV */

      312    10237    4               19,                   /* C_ACTIVE */
      313    10238    4               74,                   /* C_ALTVAR */
      314    10239    4               59,                     /* C_ANLZ */
      315    10240    4               21,                   /* C_BYPASS */
PL6.E3A0      #001=DUZ$DRIV66 File=DUZ$DRIV66.:E05TSI                            TUE 07/29/97 15:05 Page:52
      316    10241    4               41,                    /* C_CACHE */
      317    10242    4               15,                     /* C_COPY */
      318    10243    4               89,                    /* C_DEBUG */
      319    10244    4               63,                   /* C_DELETE */
      320    10245    4               4,                      /* C_DEF */
      321    10246    4               5,                       /* C_DO */
      322    10247    4               37,                      /* C_DIC */
      323    10248    4               6,                  /* C_DISPLAY */
      324    10249    4               7,                     /* C_DUMP */
      325    10250    4               33,                     /* C_ECHO */
      326    10251    4               8,                     /* C_EVAL */
      327    10252    4               35,                      /* C_EOM */
      328    10253    4               16,                   /* C_FORMAT */
      329    10254    4               10,                     /* C_FIND */
      330    10255    4               11,                     /* C_GOTO */
      331    10256    4               12,                     /* C_HELP */
      332    10257    4               13,                  /* C_HISTORY */
      333    10258    4               17,                   /* C_IGNORE */
      334    10259    4               50,                 /* C_INACTIVE */
      335    10260    4               22,                     /* C_KEEP */
      336    10261    4               20,                     /* C_KILL */
      337    10262    4               62,                     /* C_LIST */
      338    10263    4               27,                      /* C_LET */
      339    10264    4               29,                  /* C_MACTIVE */
      340    10265    4               70,                     /* C_MINI */
      341    10266    4               28,                   /* C_MODIFY */
      342    10267    4               36,                   /* C_OUTPUT */
      343    10268    4               24,                    /* C_PLUGH */
      344    10269    4               25,                   /* C_PROMPT */
      345    10270    4               88,                  /* C_PROTECT */
      346    10271    4               73,                      /* C_PMD */
      347    10272    4               80,                   /* C_QMARK1 */
      348    10273    4               81,                   /* C_QMARK2 */
      349    10274    4               39,                     /* C_QUIT */
      350    10275    4               56,                    /* C_RANGE */
      351    10276    4               42,                     /* C_READ */
      352    10277    4               55,                   /* C_REPORT */
PL6.E3A0      #001=DUZ$DRIV66 File=DUZ$DRIV66.:E05TSI                            TUE 07/29/97 15:05 Page:53
      353    10278    4               72,                      /* C_RUM */
      354    10279    4               77,                      /* C_SAD */
      355    10280    4               43,                   /* C_SCHEMA */
      356    10281    4               44,                     /* C_SHOW */
      357    10282    4               51,                   /* C_SILENT */
      358    10283    4               85,                   /* C_STATUS */
      359    10284    4               18,                    /* C_STORE */
      360    10285    4               79,                   /* C_SYNTAX */
      361    10286    4               26,                        /* C_T */
      362    10287    4               71,                     /* C_TRAP */
      363    10288    4               87,                    /* C_UNFID */
      364    10289    4               90,                  /* C_UNSHARE */
      365    10290    4               52,                 /* C_UNSILENT */
      366    10291    4               75,                   /* C_UPDATE */
      367    10292    4               64                       /* C_USE */
      368    10293    4               );                          /* That's all for now */
      369    10294    4   DO_IT:         CALL DDA$DO ALTRET( AERR );

  10294  6 000757   000002 631400 xsym  DO_IT        EPPR1   B_VECTNIL+2
         6 000760   000000 701000 xent               TSX1    DDA$DO
         6 000761   000775 702000 6                  TSX2    AERR
         6 000762   000773 710000 6                  TRA     RETN

      370    10295    4               CASE ( ELSE );

      371    10296    4                  IF S_D.DEBUGA (%DB@DOCMD) THEN GOTO DO_IT;

  10296  6 000763   000053 236100                    LDQ     43,,PR0
         6 000764   004000 316007                    CANQ    2048,DL
         6 000765   000757 601000 6                  TNZ     DO_IT

      372    10297    4                  S_D.ERROR = 23;    /* E@UERR12 */

  10297  6 000766   000027 235007                    LDA     23,DL
         6 000767   000013 755100                    STA     11,,PR0

      373    10298    4                  CALL DDE$ERROR;
PL6.E3A0      #001=DUZ$DRIV66 File=DUZ$DRIV66.:E05TSI                            TUE 07/29/97 15:05 Page:54

  10298  6 000770   000002 631400 xsym               EPPR1   B_VECTNIL+2
         6 000771   000000 701000 xent               TSX1    DDE$ERROR
         6 000772   000000 011000                    NOP     0

      374    10299    4               END;

      375    10300    3           END;

      376    10301
      377    10302    2   RETN:
      378    10303    2        RETURN;

  10303  6 000773   200054 221300       RETN         LDX1  ! FPT_DRTN+14,,AUTO
         6 000774   000001 702211                    TSX2  ! 1,X1

      379    10304    2   AERR:
      380    10305    2        IF S_D.FPRG_CONTEXT$ ~= ADDR(NIL)

  10305  6 000775   000000 470400 xsym  AERR         LDP0    S_D$
         6 000776   000076 236100                    LDQ     62,,PR0
         6 000777   000001 116000 xsym               CMPQ    B_VECTNIL+1
         6 001000   001015 600000 6                  TZE     s:10317

      381    10306    3        THEN DO;

      382    10307    3             TFPRG$ = S_D.FPRG_CONTEXT$;

  10307  6 001001   200011 756100                    STQ     TFPRG$,,AUTO

      383    10308    4             DO WHILE (TFPRG$ ~= ADDR(NIL));

  10308  6 001002   001013 710000 6                  TRA     s:10315

      384    10309    4                  IF TFPRG$ -> FPRG$CONTEXT.READ_FD = '1'B

  10309  6 001003   200011 470500                    LDP0    TFPRG$,,AUTO
PL6.E3A0      #001=DUZ$DRIV66 File=DUZ$DRIV66.:E05TSI                            TUE 07/29/97 15:05 Page:55
         6 001004   000001 234100                    SZN     1,,PR0
         6 001005   001011 605000 6                  TPL     s:10314

      385    10310    5                  THEN DO;

      386    10311    5                       TFPRG$ -> FPRG$CONTEXT.READ_FD = '0'B;

  10311  6 001006   000031 236000 xsym               LDQ     B_VECTNIL+25
         6 001007   000001 356100                    ANSQ    1,,PR0

      387    10312    5                       GOTO PROCESS_EVENT;

  10312  6 001010   001023 710000 6                  TRA     PROCESS_EVENT

      388    10313    5                     END;
      389    10314    4                  TFPRG$ = TFPRG$ -> FPRG$CONTEXT.NEXT$;

  10314  6 001011   000000 236100                    LDQ     0,,PR0
         6 001012   200011 756100                    STQ     TFPRG$,,AUTO

      390    10315    4                END;

  10315  6 001013   000001 116000 xsym               CMPQ    B_VECTNIL+1
         6 001014   001003 601000 6                  TNZ     s:10309

      391    10316    3           END;

      392    10317    2        CALL DDE$ERROR;

  10317  6 001015   000002 631400 xsym               EPPR1   B_VECTNIL+2
         6 001016   000000 701000 xent               TSX1    DDE$ERROR
         6 001017   000000 011000                    NOP     0

      393    10318    2        RETURN;

  10318  6 001020   200054 221300                    LDX1  ! FPT_DRTN+14,,AUTO
         6 001021   000001 702211                    TSX2  ! 1,X1
PL6.E3A0      #001=DUZ$DRIV66 File=DUZ$DRIV66.:E05TSI                            TUE 07/29/97 15:05 Page:56

      394    10319    2   CALL_DO_EVENT: ENTRY;

  10319  6 001022   200054 741300       CALL_DO_EVE* STX1  ! FPT_DRTN+14,,AUTO

      395    10320    2   PROCESS_EVENT:
      396    10321    2        S_D.CURRENT_FPRG_CONTEXT$ = TFPRG$;

  10321  6 001023   200011 236100       PROCESS_EVE* LDQ     TFPRG$,,AUTO
         6 001024   000000 470400 xsym               LDP0    S_D$
         6 001025   000102 756100                    STQ     66,,PR0

      397    10322    2        S_D.CURRENT_FPRG_CONTEXT$ -> FPRG$CONTEXT.STATE = %STOPPED;

  10322  6 001026   000102 471500                    LDP1    66,,PR0
         6 001027   000002 236003                    LDQ     2,DU
         6 001030   100001 552120                    STBQ    1,'20'O,PR1

      398    10323                                                /* Read message from FD for this FPRG */
      399    10324    2        CALL DFQ$READ_FD (S_D.CURRENT_FPRG_CONTEXT$, '0'B)

  10324  6 001031   000003 236000 7                  LDQ     3
         6 001032   200057 756100                    STQ     FPT_DRTN+17,,AUTO
         6 001033   000000 236000 xsym               LDQ     S_D$
         6 001034   000102 036003                    ADLQ    66,DU
         6 001035   200056 756100                    STQ     FPT_DRTN+16,,AUTO
         6 001036   200056 630500                    EPPR0   FPT_DRTN+16,,AUTO
         6 001037   000020 631400 xsym               EPPR1   B_VECTNIL+16
         6 001040   000000 701000 xent               TSX1    DFQ$READ_FD
         6 001041   001043 702000 6                  TSX2    s:10326
         6 001042   001047 710000 6                  TRA     s:10329

      400    10325    3        WHENALTRETURN DO;

      401    10326    3             CALL DUE$ERRMSG;

  10326  6 001043   000002 631400 xsym               EPPR1   B_VECTNIL+2
PL6.E3A0      #001=DUZ$DRIV66 File=DUZ$DRIV66.:E05TSI                            TUE 07/29/97 15:05 Page:57
         6 001044   000000 701000 xent               TSX1    DUE$ERRMSG
         6 001045   000000 011000                    NOP     0

      402    10327    3             GOTO RETN;

  10327  6 001046   000773 710000 6                  TRA     RETN

      403    10328    3           END;
      404    10329    2        IF S_D.DEBUGA(%DB@ECC)

  10329  6 001047   000000 470400 xsym               LDP0    S_D$
         6 001050   000053 236100                    LDQ     43,,PR0
         6 001051   000040 316007                    CANQ    32,DL
         6 001052   001067 600000 6                  TZE     s:10339

      405    10330    3        THEN DO;

      406    10331    3             CALL DFR$EVENTRPT(%DB@ECC);

  10331  6 001053   000010 630400 7                  EPPR0   8
         6 001054   000017 631400 xsym               EPPR1   B_VECTNIL+15
         6 001055   000000 701000 xent               TSX1    DFR$EVENTRPT
         6 001056   000000 011000                    NOP     0

      407    10332    3             IF S_D.DEBUG

  10332  6 001057   000000 470400 xsym               LDP0    S_D$
         6 001060   004732 234100                    SZN     2522,,PR0
         6 001061   001067 605000 6                  TPL     s:10339

      408    10333    4             THEN DO;

      409    10334    4                  CALL DUD$MINI;

  10334  6 001062   000002 631400 xsym               EPPR1   B_VECTNIL+2
         6 001063   000000 701000 xent               TSX1    DUD$MINI
         6 001064   000000 011000                    NOP     0
PL6.E3A0      #001=DUZ$DRIV66 File=DUZ$DRIV66.:E05TSI                            TUE 07/29/97 15:05 Page:58

      410    10335    4                  S_D.PROMPT_SIZE = 0;

  10335  6 001065   000000 470400 xsym               LDP0    S_D$
         6 001066   005147 450100                    STZ     2663,,PR0

      411    10336    4                END;

      412    10337    3           END;

      413    10338                                                /* Make sure is a BRKRSP message */
      414    10339    2        IF GD$MSG.FNC ~= %FPRG_BRKRSP# AND GD$MSG.FNC ~= %GD#RSPTRACE

  10339  6 001067   000000 471400 xsym               LDP1    S_D_L6_MESSAGE$
         6 001070   100000 236100                    LDQ     0,,PR1
         6 001071   776000 376003                    ANQ     -1024,DU
         6 001072   132000 116003                    CMPQ    46080,DU
         6 001073   001130 600000 6                  TZE     s:10354
         6 001074   110000 116003                    CMPQ    36864,DU
         6 001075   001130 600000 6                  TZE     s:10354

      415    10340    3        THEN DO;

      416    10341    3             IF TFPRG$ -> FPRG$CONTEXT.XDELTA AND

  10341  6 001076   200011 473500                    LDP3    TFPRG$,,AUTO
         6 001077   300001 236100                    LDQ     1,,PR3
         6 001100   002000 316003                    CANQ    1024,DU
         6 001101   001114 600000 6                  TZE     s:10348
         6 001102   100000 236100                    LDQ     0,,PR1
         6 001103   776000 376003                    ANQ     -1024,DU
         6 001104   140000 116003                    CMPQ    49152,DU
         6 001105   001114 601000 6                  TNZ     s:10348

      417    10342    3               GD$MSG.FNC = %GD#RSPBADMSG
      418    10343    4             THEN DO;

PL6.E3A0      #001=DUZ$DRIV66 File=DUZ$DRIV66.:E05TSI                            TUE 07/29/97 15:05 Page:59
      419    10344    4                  S_D.ERROR = 330;    /* E@BADMSG */

  10344  6 001106   000512 235007                    LDA     330,DL
         6 001107   000013 755100                    STA     11,,PR0

      420    10345    4                  CALL DDE$ERROR;

  10345  6 001110   000002 631400 xsym               EPPR1   B_VECTNIL+2
         6 001111   000000 701000 xent               TSX1    DDE$ERROR
         6 001112   000000 011000                    NOP     0

      421    10346    4                  GOTO RETN;

  10346  6 001113   000773 710000 6                  TRA     RETN

      422    10347    4                END;
      423    10348    3             S_D.ERROR = 524;     /* E@BADMESSAGE */

  10348  6 001114   001014 235007                    LDA     524,DL
         6 001115   000013 755100                    STA     11,,PR0

      424    10349    3             CALL DDE$ERROR;

  10349  6 001116   000002 631400 xsym               EPPR1   B_VECTNIL+2
         6 001117   000000 701000 xent               TSX1    DDE$ERROR
         6 001120   000000 011000                    NOP     0

      425    10350    3             S_D.ERROR = 502;         /* E@DELBUG */

  10350  6 001121   000766 235007                    LDA     502,DL
         6 001122   000000 470400 xsym               LDP0    S_D$
         6 001123   000013 755100                    STA     11,,PR0

      426    10351    3             CALL DDE$ERROR;

  10351  6 001124   000002 631400 xsym               EPPR1   B_VECTNIL+2
         6 001125   000000 701000 xent               TSX1    DDE$ERROR
PL6.E3A0      #001=DUZ$DRIV66 File=DUZ$DRIV66.:E05TSI                            TUE 07/29/97 15:05 Page:60
         6 001126   000000 011000                    NOP     0

      427    10352    3             GOTO RETN;

  10352  6 001127   000773 710000 6                  TRA     RETN

      428    10353    3           END;
      429    10354    2        S_D.BRKRSP_ERRCODE = BITBIN(GD$MSG_HOST.BRKRSP.ERRCODE);

  10354  6 001130   000000 473400 xsym               LDP3    S_D_HOST_MESSAGE$
         6 001131   300003 235100                    LDA     3,,PR3
         6 001132   300004 236100                    LDQ     4,,PR3
         6 001133   000022 773000                    LRL     18
         6 001134   005240 756100                    STQ     2720,,PR0

      430    10355    2        FPRG_IC = GD$MSG.BRKRSP.ADR$;

  10355  6 001135   100000 235100                    LDA     0,,PR1
         6 001136   100001 236100                    LDQ     1,,PR1
         6 001137   000030 773000                    LRL     24
         6 001140   000013 376000 7                  ANQ     11
         6 001141   200015 756100                    STQ     FPRG_IC,,AUTO

      431    10356    2        S_D.MOD_L6.ADDRESS = FPRG_IC;

  10356  6 001142   006772 756100                    STQ     3578,,PR0

      432    10357    2        S_D.MOD_L6.SEG = 3;

  10357  6 001143   000003 235007                    LDA     3,DL
         6 001144   006773 755100                    STA     3579,,PR0

      433    10358    2        S_D.MOD_L6.DESC# = 0;

  10358  6 001145   006774 450100                    STZ     3580,,PR0

      434    10359    2        S_D.MOD_L6.NOT_IS = '0'B;
PL6.E3A0      #001=DUZ$DRIV66 File=DUZ$DRIV66.:E05TSI                            TUE 07/29/97 15:05 Page:61

  10359  6 001146   006775 450100                    STZ     3581,,PR0

      435    10360    2        S_D.MOD_L6.VALUE.SIZE = GD$MSG.BRKRSP.DATA_SIZE;

  10360  6 001147   100013 236100                    LDQ     11,,PR1
         6 001150   000030 772000                    QRL     24
         6 001151   000377 376007                    ANQ     255,DL
         6 001152   006776 756100                    STQ     3582,,PR0

      436    10361    3        DO I = 0 TO GD$MSG.BRKRSP.DATA_SIZE - 1;

  10361  6 001153   200016 450100                    STZ     I,,AUTO
         6 001154   001173 710000 6                  TRA     s:10363+3

      437    10362    3             S_D.MOD_L6.VALUE.OPS(I) = GD$MSG.BRKRSP.DATA(I);

  10362  6 001155   200016 235100                    LDA     I,,AUTO
         6 001156   000004 735000                    ALS     4
         6 001157   200016 236100                    LDQ     I,,AUTO
         6 001160   200056 755100                    STA     FPT_DRTN+16,,AUTO
         6 001161   000044 402007                    MPY     36,DL
         6 001162   000000 470400 xsym               LDP0    S_D_L6_MESSAGE$
         6 001163   200056 235100                    LDA     FPT_DRTN+16,,AUTO
         6 001164   000000 471400 xsym               LDP1    S_D$
         6 001165   003106 061505                    CSR     bolr='003'O
         6 001166   000004 000020                    BDSC    4,A,PR0                  by=0,bit=0,n=16
         6 001167   106777 000044                    BDSC    3583,Q,PR1               by=0,bit=0,n=36

      438    10363    3           END;

  10363  6 001170   200016 235100                    LDA     I,,AUTO
         6 001171   000001 035007                    ADLA    1,DL
         6 001172   200016 755100                    STA     I,,AUTO
         6 001173   000000 470400 xsym               LDP0    S_D_L6_MESSAGE$
         6 001174   000013 236100                    LDQ     11,,PR0
         6 001175   000030 772000                    QRL     24
PL6.E3A0      #001=DUZ$DRIV66 File=DUZ$DRIV66.:E05TSI                            TUE 07/29/97 15:05 Page:62
         6 001176   000377 376007                    ANQ     255,DL
         6 001177   200016 116100                    CMPQ    I,,AUTO
         6 001200   001202 600000 6                  TZE     s:10364
         6 001201   001155 603000 6                  TRC     s:10362

      439    10364    2        S_D.CURRENT_FPRG_CONTEXT$ -> FPRG$CONTEXT.ADDRESS = FPRG_IC;

  10364  6 001202   000000 471400 xsym               LDP1    S_D$
         6 001203   100102 473500                    LDP3    66,,PR1
         6 001204   200015 235100                    LDA     FPRG_IC,,AUTO
         6 001205   300005 755100                    STA     5,,PR3

      440    10365    2        IF S_D.CURRENT_FPRG_CONTEXT$ -> FPRG$CONTEXT.XDELTA

  10365  6 001206   100102 473500                    LDP3    66,,PR1
         6 001207   300001 236100                    LDQ     1,,PR3
         6 001210   002000 316003                    CANQ    1024,DU
         6 001211   001243 600000 6                  TZE     s:10374

      441    10366    3        THEN DO;

      442    10367    3             TEMP1 = BITBIN(GD$MSG.BRKRSP.ERRCODE);

  10367  6 001212   000003 236100                    LDQ     3,,PR0
         6 001213   000013 376000 7                  ANQ     11
         6 001214   200012 756100                    STQ     TEMP$,,AUTO

      443    10368    3             TEMP2B.B1 = TEMP1B.B1;

  10368  6 001215   200012 236100                    LDQ     TEMP$,,AUTO
         6 001216   000003 736000                    QLS     3
         6 001217   200013 676100                    ERQ     TEMP2,,AUTO
         6 001220   377000 376003                    ANQ     130560,DU
         6 001221   200013 656100                    ERSQ    TEMP2,,AUTO

      444    10369    3             TEMP2B.B2 = TEMP1B.B2;

PL6.E3A0      #001=DUZ$DRIV66 File=DUZ$DRIV66.:E05TSI                            TUE 07/29/97 15:05 Page:63
  10369  6 001222   200012 236100                    LDQ     TEMP$,,AUTO
         6 001223   000002 736000                    QLS     2
         6 001224   200013 676100                    ERQ     TEMP2,,AUTO
         6 001225   000377 376003                    ANQ     255,DU
         6 001226   200013 656100                    ERSQ    TEMP2,,AUTO

      445    10370    3             TEMP2B.B3 = TEMP1B.B3;

  10370  6 001227   200012 236100                    LDQ     TEMP$,,AUTO
         6 001230   000001 736000                    QLS     1
         6 001231   200013 676100                    ERQ     TEMP2,,AUTO
         6 001232   377000 376007                    ANQ     130560,DL
         6 001233   200013 656100                    ERSQ    TEMP2,,AUTO

      446    10371    3             TEMP2B.B4 = TEMP1B.B4;

  10371  6 001234   200012 236100                    LDQ     TEMP$,,AUTO
         6 001235   200013 676100                    ERQ     TEMP2,,AUTO
         6 001236   000377 376007                    ANQ     255,DL
         6 001237   200013 656100                    ERSQ    TEMP2,,AUTO

      447    10372    3             S_D.BRKRSP_ERRCODE = TEMP2;

  10372  6 001240   200013 235100                    LDA     TEMP2,,AUTO
         6 001241   105240 755100                    STA     2720,,PR1

      448    10373    3           END;

  10373  6 001242   001250 710000 6                  TRA     s:10375

      449    10374    2        ELSE S_D.BRKRSP_ERRCODE = BITBIN(GD$MSG_HOST.BRKRSP.ERRCODE);

  10374  6 001243   000000 474400 xsym               LDP4    S_D_HOST_MESSAGE$
         6 001244   400003 235100                    LDA     3,,PR4
         6 001245   400004 236100                    LDQ     4,,PR4
         6 001246   000022 773000                    LRL     18
         6 001247   105240 756100                    STQ     2720,,PR1
PL6.E3A0      #001=DUZ$DRIV66 File=DUZ$DRIV66.:E05TSI                            TUE 07/29/97 15:05 Page:64

      450    10375    2        S_D.USERNO = GD$MSG.BRKRSP.USER#;

  10375  6 001250   000002 235100                    LDA     2,,PR0
         6 001251   000003 236100                    LDQ     3,,PR0
         6 001252   000040 773000                    LRL     32
         6 001253   177777 376007                    ANQ     65535,DL
         6 001254   105241 756100                    STQ     2721,,PR1

      451    10376    2        S_D.MBU = GD$MSG.BRKRSP.MBU;

  10376  6 001255   000013 236100                    LDQ     11,,PR0
         6 001256   000014 736000                    QLS     12
         6 001257   400000 376003                    ANQ     -131072,DU
         6 001260   105244 756100                    STQ     2724,,PR1

      452    10377    2        FAULT = GD$MSG.BRKRSP.BRK#;

  10377  6 001261   000002 236100                    LDQ     2,,PR0
         6 001262   000014 772000                    QRL     12
         6 001263   177777 376007                    ANQ     65535,DL
         6 001264   200017 756100                    STQ     FAULT,,AUTO

      453    10378                                                /* Report Host program stopped */
      454    10379    2        IF NOT S_D.DEBUG_CMD AND GD$MSG.FNC ~= %GD#RSPTRACE AND

  10379  6 001265   104665 234100                    SZN     2485,,PR1
         6 001266   001312 604000 6                  TMI     s:10385
         6 001267   000000 236100                    LDQ     0,,PR0
         6 001270   776000 376003                    ANQ     -1024,DU
         6 001271   110000 116003                    CMPQ    36864,DU
         6 001272   001312 600000 6                  TZE     s:10385
         6 001273   200017 235100                    LDA     FAULT,,AUTO
         6 001274   001312 600000 6                  TZE     s:10385
         6 001275   000025 115007                    CMPA    21,DL
         6 001276   001312 603000 6                  TRC     s:10385
         6 001277   300034 720105                    LXL0    28,AL,PR3
PL6.E3A0      #001=DUZ$DRIV66 File=DUZ$DRIV66.:E05TSI                            TUE 07/29/97 15:05 Page:65
         6 001300   000000 636010                    EAQ     0,X0
         6 001301   000022 772000                    QRL     18
         6 001302   000006 402007                    MPY     6,DL
         6 001303   101212 236106                    LDQ     650,QL,PR1
         6 001304   000200 316003                    CANQ    128,DU
         6 001305   001312 601000 6                  TNZ     s:10385

      455    10380    2          ((FAULT >= 1 AND FAULT <= %GD#MAXBRKNUM) AND
      456    10381    2          PINCRW(ADDR(S_D.FIXCOM),
      457    10382    2         S_D.CURRENT_FPRG_CONTEXT$ -> FPRG$CONTEXT.FIXCOM_INDEX(FAULT)*SIZEW(F$XCM))->
             10382                   F$XCM.SILENT = '0'B)
      458    10383    2        THEN CALL DDR$REPORT(28/*R_STOP*/);

  10383  6 001306   000015 630400 7                  EPPR0   13
         6 001307   000017 631400 xsym               EPPR1   B_VECTNIL+15
         6 001310   000000 701000 xent               TSX1    DDR$REPORT
         6 001311   000000 011000                    NOP     0

      459    10384                                                /* Set up access to FPRG RU */
      460    10385    2        CALL DFA$FPRG (FPRG_IC);

  10385  6 001312   200015 630500                    EPPR0   FPRG_IC,,AUTO
         6 001313   200056 450500                    STP0    FPT_DRTN+16,,AUTO
         6 001314   200056 630500                    EPPR0   FPT_DRTN+16,,AUTO
         6 001315   000017 631400 xsym               EPPR1   B_VECTNIL+15
         6 001316   000000 701000 xent               TSX1    DFA$FPRG
         6 001317   000000 011000                    NOP     0

      461    10386    2        IF GD$MSG.FNC = %GD#RSPTRACE

  10386  6 001320   000000 470400 xsym               LDP0    S_D_L6_MESSAGE$
         6 001321   000000 236100                    LDQ     0,,PR0
         6 001322   776000 376003                    ANQ     -1024,DU
         6 001323   110000 116003                    CMPQ    36864,DU
         6 001324   001337 601000 6                  TNZ     s:10393

      462    10387    3        THEN DO;
PL6.E3A0      #001=DUZ$DRIV66 File=DUZ$DRIV66.:E05TSI                            TUE 07/29/97 15:05 Page:66

      463    10388    3             CALL DFA$TRACE_REPORT ALTRET(RETN);

  10388  6 001325   000002 631400 xsym               EPPR1   B_VECTNIL+2
         6 001326   000000 701000 xent               TSX1    DFA$TRACE_REPORT
         6 001327   000773 702000 6                  TSX2    RETN

      464    10389    3             IF NOT S_D.DEBUG_CMD

  10389  6 001330   000000 470400 xsym               LDP0    S_D$
         6 001331   004665 234100                    SZN     2485,,PR0
         6 001332   001336 604000 6                  TMI     s:10391

      465    10390    3             THEN CALL DFA$KILL_FPRG;

  10390  6 001333   000002 631400 xsym               EPPR1   B_VECTNIL+2
         6 001334   000000 701000 xent               TSX1    DFA$KILL_FPRG
         6 001335   000000 011000                    NOP     0

      466    10391    3             GOTO PROCESS_EVENT;

  10391  6 001336   001023 710000 6                  TRA     PROCESS_EVENT

      467    10392    3           END;
      468    10393    2        IF FAULT >= 1 AND FAULT <= %GD#MAXBRKNUM

  10393  6 001337   200017 235100                    LDA     FAULT,,AUTO
         6 001340   001536 600000 6                  TZE     s:10449
         6 001341   000025 115007                    CMPA    21,DL
         6 001342   001536 603000 6                  TRC     s:10449

      469    10394    3        THEN DO;

      470    10395                                                /* Have hit an AT breakpoint */
      471    10396    3            S_D.IXFIX = S_D.CURRENT_FPRG_CONTEXT$ -> FPRG$CONTEXT.FIXCOM_INDEX(FAULT);

  10396  6 001343   000000 471400 xsym               LDP1    S_D$
PL6.E3A0      #001=DUZ$DRIV66 File=DUZ$DRIV66.:E05TSI                            TUE 07/29/97 15:05 Page:67
         6 001344   100102 473500                    LDP3    66,,PR1
         6 001345   300034 235105                    LDA     28,AL,PR3
         6 001346   100015 755100                    STA     13,,PR1

      472    10397    3             S_D.FAULTCMD$ = PINCRW(ADDR(S_D.FIXCOM), S_D.IXFIX*SIZEW(F$XCM));

  10397  6 001347   100015 236100                    LDQ     13,,PR1
         6 001350   000006 402003                    MPY     6,DU
         6 001351   001212 036003                    ADLQ    650,DU
         6 001352   000000 036000 xsym               ADLQ    S_D$
         6 001353   100004 756100                    STQ     4,,PR1

      473    10398    3             IF S_D.FAULTCMD$ -> F$XCM.SILENT

  10398  6 001354   100004 474500                    LDP4    4,,PR1
         6 001355   400000 236100                    LDQ     0,,PR4
         6 001356   000200 316003                    CANQ    128,DU
         6 001357   001363 600000 6                  TZE     s:10401

      474    10399    3             THEN S_D.SILENT = '1'B;

  10399  6 001360   400000 236003                    LDQ     -131072,DU
         6 001361   104735 756100                    STQ     2525,,PR1
         6 001362   001507 710000 6                  TRA     DO_ATTACH

      475    10400    4             ELSE DO;

      476    10401    4                  IF S_D.FAULTCMD$ -> F$XCM.CMD ~= 2 /* C_AT */ AND

  10401  6 001363   400000 236100                    LDQ     0,,PR4
         6 001364   777000 376003                    ANQ     -512,DU
         6 001365   002000 116003                    CMPQ    1024,DU
         6 001366   001411 600000 6                  TZE     s:10412
         6 001367   037000 116003                    CMPQ    15872,DU
         6 001370   001411 600000 6                  TZE     s:10412
         6 001371   065000 116003                    CMPQ    27136,DU
         6 001372   001411 600000 6                  TZE     s:10412
PL6.E3A0      #001=DUZ$DRIV66 File=DUZ$DRIV66.:E05TSI                            TUE 07/29/97 15:05 Page:68
         6 001373   040000 116003                    CMPQ    16384,DU
         6 001374   001411 600000 6                  TZE     s:10412

      477    10402    4                    S_D.FAULTCMD$ -> F$XCM.CMD ~= 31 /* C_OC */ AND
      478    10403    4                    S_D.FAULTCMD$ -> F$XCM.CMD ~= 53 /* C_ONCALLS */ AND
      479    10404    4                    S_D.FAULTCMD$ -> F$XCM.CMD ~= 32 /* C_OE */
      480    10405    5                  THEN DO;

      481    10406    5                       S_D.ERROR = 526; /* E@BADBRKPNT */

  10406  6 001375   001016 235007                    LDA     526,DL
         6 001376   100013 755100                    STA     11,,PR1

      482    10407    5                       CALL DDE$ERROR;

  10407  6 001377   000002 631400 xsym               EPPR1   B_VECTNIL+2
         6 001400   000000 701000 xent               TSX1    DDE$ERROR
         6 001401   000000 011000                    NOP     0

      483    10408    5                       S_D.ERROR = 502; /* E@DELBUG */

  10408  6 001402   000766 235007                    LDA     502,DL
         6 001403   000000 470400 xsym               LDP0    S_D$
         6 001404   000013 755100                    STA     11,,PR0

      484    10409    5                       CALL DDE$ERROR;

  10409  6 001405   000002 631400 xsym               EPPR1   B_VECTNIL+2
         6 001406   000000 701000 xent               TSX1    DDE$ERROR
         6 001407   000000 011000                    NOP     0

      485    10410    5                       GOTO RETN;

  10410  6 001410   000773 710000 6                  TRA     RETN

      486    10411    5                     END;
      487    10412    4                  IF S_D.FAULTCMD$ -> F$XCM.CMD = 2 /* C_AT */
PL6.E3A0      #001=DUZ$DRIV66 File=DUZ$DRIV66.:E05TSI                            TUE 07/29/97 15:05 Page:69

  10412  6 001411   002000 116003                    CMPQ    1024,DU
         6 001412   001420 601000 6                  TNZ     s:10415

      488    10413    4                  THEN CALL DFR$REPORT(%R_FPRG_AT);

  10413  6 001413   000016 630400 7                  EPPR0   14
         6 001414   000017 631400 xsym               EPPR1   B_VECTNIL+15
         6 001415   000000 701000 xent               TSX1    DFR$REPORT
         6 001416   000000 011000                    NOP     0
         6 001417   001507 710000 6                  TRA     DO_ATTACH

      489    10414    5                  ELSE DO;

      490    10415    5                       IF S_D.FAULTCMD$ -> F$XCM.CMD = 31 /* C_OC */

  10415  6 001420   037000 116003                    CMPQ    15872,DU
         6 001421   001426 601000 6                  TNZ     s:10417

      491    10416    5                       THEN CALL DFR$REPORT(%R_FPRG_ONCALL);

  10416  6 001422   000017 630400 7                  EPPR0   15
         6 001423   000017 631400 xsym               EPPR1   B_VECTNIL+15
         6 001424   000000 701000 xent               TSX1    DFR$REPORT
         6 001425   000000 011000                    NOP     0

      492    10417    5                       IF S_D.FAULTCMD$->F$XCM.CMD = 53 /* C_ONCALLS */

  10417  6 001426   000000 470400 xsym               LDP0    S_D$
         6 001427   000004 471500                    LDP1    4,,PR0
         6 001430   100000 236100                    LDQ     0,,PR1
         6 001431   777000 376003                    ANQ     -512,DU
         6 001432   065000 116003                    CMPQ    27136,DU
         6 001433   001507 601000 6                  TNZ     DO_ATTACH

      493    10418    6                       THEN DO;

PL6.E3A0      #001=DUZ$DRIV66 File=DUZ$DRIV66.:E05TSI                            TUE 07/29/97 15:05 Page:70
      494    10419    6                            IF S_D.CURRENT_FPRG_CONTEXT$ -> FPRG$CONTEXT.ONCALLS_X

  10419  6 001434   000102 473500                    LDP3    66,,PR0
         6 001435   300001 236100                    LDQ     1,,PR3
         6 001436   040000 316003                    CANQ    16384,DU
         6 001437   001503 600000 6                  TZE     REPORT_ONCALL

      495    10420    7                            THEN DO;

      496    10421    7                                CALL DDF$FIND_PEDEF(FPRG_IC, EDEF$) ALTRET(NO_REPORT);

  10421  6 001440   200014 634500                    EPPR4   EDEF$,,AUTO
         6 001441   200057 454500                    STP4    FPT_DRTN+17,,AUTO
         6 001442   200015 631500                    EPPR1   FPRG_IC,,AUTO
         6 001443   200056 451500                    STP1    FPT_DRTN+16,,AUTO
         6 001444   200056 630500                    EPPR0   FPT_DRTN+16,,AUTO
         6 001445   000020 631400 xsym               EPPR1   B_VECTNIL+16
         6 001446   000000 701000 xent               TSX1    DDF$FIND_PEDEF
         6 001447   001477 702000 6                  TSX2    NO_REPORT

      497    10422    7                                 IF ( EDEF$ -> B$EDEF.CST = %STD#

  10422  6 001450   200014 470500                    LDP0    EDEF$,,AUTO
         6 001451   000001 236100                    LDQ     1,,PR0
         6 001452   074000 316007                    CANQ    30720,DL
         6 001453   001470 600000 6                  TZE     s:10422+16
         6 001454   000001 236100                    LDQ     1,,PR0
         6 001455   074000 376007                    ANQ     30720,DL
         6 001456   014000 116007                    CMPQ    6144,DL
         6 001457   001470 600000 6                  TZE     s:10422+16
         6 001460   020000 116007                    CMPQ    8192,DL
         6 001461   001470 600000 6                  TZE     s:10422+16
         6 001462   024000 116007                    CMPQ    10240,DL
         6 001463   001470 600000 6                  TZE     s:10422+16
         6 001464   040000 116007                    CMPQ    16384,DL
         6 001465   001470 600000 6                  TZE     s:10422+16
         6 001466   044000 116007                    CMPQ    18432,DL
PL6.E3A0      #001=DUZ$DRIV66 File=DUZ$DRIV66.:E05TSI                            TUE 07/29/97 15:05 Page:71
         6 001467   001477 601000 6                  TNZ     NO_REPORT
         6 001470   000000 236100                    LDQ     0,,PR0
         6 001471   700000 316003                    CANQ    -32768,DU
         6 001472   001503 600000 6                  TZE     REPORT_ONCALL
         6 001473   000000 236100                    LDQ     0,,PR0
         6 001474   700000 376003                    ANQ     -32768,DU
         6 001475   300000 116003                    CMPQ    98304,DU
         6 001476   001503 600000 6                  TZE     REPORT_ONCALL

      498    10423    7                                   OR EDEF$ -> B$EDEF.CST = %ASYNC#
      499    10424    7                                   OR EDEF$ -> B$EDEF.CST = %FUNC#
      500    10425    7                                   OR EDEF$ -> B$EDEF.CST = %XSTD#
      501    10426    7                                   OR EDEF$ -> B$EDEF.CST = %XASYNC#
      502    10427    7                                   OR EDEF$ -> B$EDEF.CST = %XFUNC# )
      503    10428    7                                   AND ( EDEF$ -> B$EDEF.LFLAGS.SOURCE = %
             10428                                            SOURCE_OBJECT#
      504    10429    7                                   OR EDEF$ -> B$EDEF.LFLAGS.SOURCE = %SOURCE_ULIB# )
      505    10430    7                                 THEN GOTO REPORT_ONCALL;
      506    10431    7   NO_REPORT:                    CALL DFA$GO('0'B) ALTRET(RETN);

  10431  6 001477   000003 630400 7     NO_REPORT    EPPR0   3
         6 001500   000017 631400 xsym               EPPR1   B_VECTNIL+15
         6 001501   000000 701000 xent               TSX1    DFA$GO
         6 001502   000773 702000 6                  TSX2    RETN

      507    10432    7                               END;

      508    10433    6   REPORT_ONCALL:           CALL DFR$REPORT(%R_FPRG_ONCALL);

  10433  6 001503   000017 630400 7     REPORT_ONCA* EPPR0   15
         6 001504   000017 631400 xsym               EPPR1   B_VECTNIL+15
         6 001505   000000 701000 xent               TSX1    DFR$REPORT
         6 001506   000000 011000                    NOP     0

      509    10434    6                          END;

      510    10435    5                     END;
PL6.E3A0      #001=DUZ$DRIV66 File=DUZ$DRIV66.:E05TSI                            TUE 07/29/97 15:05 Page:72

      511    10436    4                END;

      512    10437    3   DO_ATTACH:
      513    10438    3             S_D.DO$ = PINCRW(S_D.VARCOM$, S_D.FAULTCMD$ -> F$XCM.FAI);

  10438  6 001507   000000 470400 xsym  DO_ATTACH    LDP0    S_D$
         6 001510   000004 471500                    LDP1    4,,PR0
         6 001511   100002 720100                    LXL0    2,,PR1
         6 001512   004622 473500                    LDP3    2450,,PR0
         6 001513   300000 634510                    EPPR4   0,X0,PR3
         6 001514   000031 454500                    STP4    25,,PR0

      514    10439    3             S_D.DO$->AT_FIRST.CURRENT_COUNT = S_D.DO$->AT_FIRST.BYPASS_COUNT;

  10439  6 001515   400004 235100                    LDA     4,,PR4
         6 001516   400005 755100                    STA     5,,PR4

      515    10440    3             IF S_D.DO$ -> AT_FIRST.ATT_OFFSET = 0

  10440  6 001517   000031 471500                    LDP1    25,,PR0
         6 001520   100007 220100                    LDX0    7,,PR1
         6 001521   001524 601000 6                  TNZ     s:10442

      516    10441    3             THEN S_D.DO$ = ADDR(NIL);

  10441  6 001522   000001 236000 xsym               LDQ     B_VECTNIL+1
         6 001523   000031 756100                    STQ     25,,PR0

      517    10442    3             S_D.ENTRYCMD$ = S_D.FAULTCMD$;

  10442  6 001524   000004 236100                    LDQ     4,,PR0
         6 001525   005203 756100                    STQ     2691,,PR0

      518    10443    3             CALL DDA$DOATTACH ALTRET (AERR);

  10443  6 001526   000002 631400 xsym               EPPR1   B_VECTNIL+2
PL6.E3A0      #001=DUZ$DRIV66 File=DUZ$DRIV66.:E05TSI                            TUE 07/29/97 15:05 Page:73
         6 001527   000000 701000 xent               TSX1    DDA$DOATTACH
         6 001530   000775 702000 6                  TSX2    AERR

      519    10444    3             S_D.SILENT = '0'B;

  10444  6 001531   000000 470400 xsym               LDP0    S_D$
         6 001532   004735 450100                    STZ     2525,,PR0

      520    10445    3             S_D.FAULTCMD$ = ADDR(NIL);

  10445  6 001533   000001 236000 xsym               LDQ     B_VECTNIL+1
         6 001534   000004 756100                    STQ     4,,PR0

      521    10446    3           END;

  10446  6 001535   001656 710000 6                  TRA     s:10482

      522    10447    3        ELSE DO;

      523    10448                                                /* Have gotten a trap */
      524    10449    3             IF S_D.CURRENT_FPRG_CONTEXT$ -> FPRG$CONTEXT.XDELTA AND

  10449  6 001536   000000 471400 xsym               LDP1    S_D$
         6 001537   100102 473500                    LDP3    66,,PR1
         6 001540   300001 236100                    LDQ     1,,PR3
         6 001541   002000 316003                    CANQ    1024,DU
         6 001542   001561 600000 6                  TZE     s:10457
         6 001543   000000 115003                    CMPA    0,DU
         6 001544   001561 601000 6                  TNZ     s:10457

      525    10450    3               FAULT = 0
      526    10451    4             THEN DO;

      527    10452    4                  IF S_D.STEP_L6

  10452  6 001545   105274 234100                    SZN     2748,,PR1
         6 001546   001554 605000 6                  TPL     s:10454
PL6.E3A0      #001=DUZ$DRIV66 File=DUZ$DRIV66.:E05TSI                            TUE 07/29/97 15:05 Page:74

      528    10453    4                  THEN CALL DFR$REPORT(%R_FPRG_STEP);

  10453  6 001547   000020 630400 7                  EPPR0   16
         6 001550   000017 631400 xsym               EPPR1   B_VECTNIL+15
         6 001551   000000 701000 xent               TSX1    DFR$REPORT
         6 001552   000000 011000                    NOP     0
         6 001553   001656 710000 6                  TRA     s:10482

      529    10454    4                  ELSE CALL DFR$REPORT(%R_XDELTA_BREAK);

  10454  6 001554   000021 630400 7                  EPPR0   17
         6 001555   000017 631400 xsym               EPPR1   B_VECTNIL+15
         6 001556   000000 701000 xent               TSX1    DFR$REPORT
         6 001557   000000 011000                    NOP     0

      530    10455    4                END;

  10455  6 001560   001656 710000 6                  TRA     s:10482

      531    10456    4             ELSE DO;

      532    10457    4                  S_D.FAULT = FAULT - (%GD#MAXBRKNUM + 1);

  10457  6 001561   000025 135007                    SBLA    21,DL
         6 001562   100030 755100                    STA     24,,PR1

      533    10458    4                  IF S_D.CURRENT_FPRG_CONTEXT$ -> FPRG$CONTEXT.XDELTA AND

  10458  6 001563   300001 236100                    LDQ     1,,PR3
         6 001564   002000 316003                    CANQ    1024,DU
         6 001565   001575 600000 6                  TZE     s:10462
         6 001566   200017 235100                    LDA     FAULT,,AUTO
         6 001567   001575 601000 6                  TNZ     s:10462

      534    10459    4                    FAULT = 0
      535    10460    4                  THEN CALL DFR$REPORT(%R_XDELTA_SCREECH);
PL6.E3A0      #001=DUZ$DRIV66 File=DUZ$DRIV66.:E05TSI                            TUE 07/29/97 15:05 Page:75

  10460  6 001570   000022 630400 7                  EPPR0   18
         6 001571   000017 631400 xsym               EPPR1   B_VECTNIL+15
         6 001572   000000 701000 xent               TSX1    DFR$REPORT
         6 001573   000000 011000                    NOP     0
         6 001574   001656 710000 6                  TRA     s:10482

      536    10461    5                  ELSE DO;

      537    10462    5                       IF S_D.STEP_L6

  10462  6 001575   105274 234100                    SZN     2748,,PR1
         6 001576   001604 605000 6                  TPL     s:10465

      538    10463    5                       THEN CALL DFR$REPORT(%R_FPRG_STEP);

  10463  6 001577   000020 630400 7                  EPPR0   16
         6 001600   000017 631400 xsym               EPPR1   B_VECTNIL+15
         6 001601   000000 701000 xent               TSX1    DFR$REPORT
         6 001602   000000 011000                    NOP     0
         6 001603   001656 710000 6                  TRA     s:10482

      539    10464    6                       ELSE DO;

      540    10465    6                            IF S_D.FAULT = %G_FPRG_EXIT#

  10465  6 001604   100030 235100                    LDA     24,,PR1
         6 001605   000057 115007                    CMPA    47,DL
         6 001606   001611 601000 6                  TNZ     s:10467

      541    10466    6                            THEN S_D.CURRENT_FPRG_CONTEXT$ -> FPRG$CONTEXT.STATE = %
             10466                                     ATEXIT;

  10466  6 001607   000004 236003                    LDQ     4,DU
         6 001610   300001 552120                    STBQ    1,'20'O,PR3

      542    10467    6                            IF S_D.FAULT = %G_FPRG_EXIT# AND
PL6.E3A0      #001=DUZ$DRIV66 File=DUZ$DRIV66.:E05TSI                            TUE 07/29/97 15:05 Page:76

  10467  6 001611   100030 235100                    LDA     24,,PR1
         6 001612   000057 115007                    CMPA    47,DL
         6 001613   001652 601000 6                  TNZ     s:10477
         6 001614   100102 473500                    LDP3    66,,PR1
         6 001615   300061 235100                    LDA     49,,PR3
         6 001616   300062 236100                    LDQ     50,,PR3
         6 001617   000034 773000                    LRL     28
         6 001620   000777 376007                    ANQ     511,DL
         6 001621   000000 116003                    CMPQ    0,DU
         6 001622   001652 600000 6                  TZE     s:10477

      543    10468    6                              S_D.CURRENT_FPRG_CONTEXT$ -> FPRG$CONTEXT.ONEXIT ~= 0
      544    10469    7                            THEN DO;

      545    10470    7                                 FAULT = S_D.CURRENT_FPRG_CONTEXT$ -> FPRG$CONTEXT.
             10470                                          ONEXIT;

  10470  6 001623   200017 756100                    STQ     FAULT,,AUTO

      546    10471    7                                S_D.IXFIX = S_D.CURRENT_FPRG_CONTEXT$ -> FPRG$CONTEXT.
             10471                                          FIXCOM_INDEX(FAULT);

  10471  6 001624   300034 235106                    LDA     28,QL,PR3
         6 001625   100015 755100                    STA     13,,PR1

      547    10472    7                                 S_D.FAULTCMD$ = PINCRW(ADDR(S_D.FIXCOM), S_D.IXFIX*
             10472                                          SIZEW(F$XCM));

  10472  6 001626   100015 236100                    LDQ     13,,PR1
         6 001627   000006 402003                    MPY     6,DU
         6 001630   001212 036003                    ADLQ    650,DU
         6 001631   000000 036000 xsym               ADLQ    S_D$
         6 001632   100004 756100                    STQ     4,,PR1

      548    10473    7                                 S_D.OUTPUT = 'ON EXIT condition encountered,';

PL6.E3A0      #001=DUZ$DRIV66 File=DUZ$DRIV66.:E05TSI                            TUE 07/29/97 15:05 Page:77
  10473  6 001633   040100 100400                    MLR     fill='040'O
         6 001634   000110 000036 4                  ADSC9   FPT_INT+4                cn=0,n=30
         6 001635   105335 004000                    ADSC9   2781,,PR1                cn=0,n=2048

      549    10474    7                                 CALL DDQ$WRITE(ADDR(S_D.OUTPUT), 31);

  10474  6 001636   000000 236000 xsym               LDQ     S_D$
         6 001637   005335 036003                    ADLQ    2781,DU
         6 001640   200056 756100                    STQ     FPT_DRTN+16,,AUTO
         6 001641   000024 236000 7                  LDQ     20
         6 001642   200061 756100                    STQ     FPT_DRTN+19,,AUTO
         6 001643   200056 634500                    EPPR4   FPT_DRTN+16,,AUTO
         6 001644   200060 454500                    STP4    FPT_DRTN+18,,AUTO
         6 001645   200060 630500                    EPPR0   FPT_DRTN+18,,AUTO
         6 001646   000020 631400 xsym               EPPR1   B_VECTNIL+16
         6 001647   000000 701000 xent               TSX1    DDQ$WRITE
         6 001650   000000 011000                    NOP     0

      550    10475    7                                 GOTO DO_ATTACH;

  10475  6 001651   001507 710000 6                  TRA     DO_ATTACH

      551    10476    7                               END;
      552    10477    6                            CALL DFR$REPORT(%R_FPRG_TRAP);

  10477  6 001652   000025 630400 7                  EPPR0   21
         6 001653   000017 631400 xsym               EPPR1   B_VECTNIL+15
         6 001654   000000 701000 xent               TSX1    DFR$REPORT
         6 001655   000000 011000                    NOP     0

      553    10478    6                          END;

      554    10479    5                     END;

      555    10480    4                END;

      556    10481    3           END;
PL6.E3A0      #001=DUZ$DRIV66 File=DUZ$DRIV66.:E05TSI                            TUE 07/29/97 15:05 Page:78

      557    10482    2        GOTO RETN;

  10482  6 001656   000773 710000 6                  TRA     RETN

      558    10483    2   END CALL_DO;
      559    10484
      560    10485    1   END DUZ$DRIV66;

  10485  6 001657   000000 702200 xent               TSX2  ! X66_MARET

FPT_OPEN_F$LM
 Sect OctLoc
   4     000   000025 777640   000044 006000   000000 177640   000000 006014    .....$..........
   4     004   000000 177640   000000 006014   000000 177640   000000 006014    ................
   4     044*  000000 000042   000000 002000   252525 000000   000040 252520    ..."......... ..
   4     050   000040 040040   000000 000000   000000 777777   000000 000000    .   ............
   4     054   000000 000000   000000 000000   000000 000000   000000 000000    ................
   4     060   251000 622000   000000 000000   000000 000000   111250 000000    ............I...
   4     064   040040 040040   000000 000000   000000 000000   000000 000000        ............
   4     070   000000 000000   ****** ******                                    ........

FPT_TRAP
 Sect OctLoc
   4     072   000005 777640   000076 006000   000000 177640   000000 006014    .....>..........
   4     076   000000 000000   000000 000000   000000 000000   000000 000000    ................
   4     102   525062 525254   000000 000000                                    .2......

FPT_INT
 Sect OctLoc
   4     104   000001 777640   000106 006000   000000 000000   000000 000000    .....F..........

(unnamed)
 Sect OctLoc
   4     110   117116 040105   130111 124040   143157 156144   151164 151157    ON EXIT conditio
   4     114   156040 145156   143157 165156   164145 162145   144054 040040    n encountered,

PL6.E3A0      #001=DUZ$DRIV66 File=DUZ$DRIV66.:E05TSI                            TUE 07/29/97 15:05 Page:79
B_HEAD
 Sect OctLoc
   5     000   ****** ******   ****** ******   ****** ******   ****** ******    ................

(unnamed)
 Sect OctLoc
   7     000   000000 006000   000000 000240   000001 006000   000002 006000    ................
   7     004   000002 006000   000002 006000   000000 006000   000000 000036    ................
   7     010   000007 006000   000003 777777   000015 006000   037777 777777    ................
   7     014   000000 000034   000014 006000   000003 006000   000011 006000    ................
   7     020   000010 006000   000012 006000   000013 006000   000000 000037    ................
   7     024   000023 006000   000004 006000                                    ........

PL6.E3A0      #001=DUZ$DRIV66 File=DUZ$DRIV66.:E05TSI                            TUE 07/29/97 15:05 Page:80
--  Include file information  --

   DD_DEBUG_C.:E05TOU  is referenced.
   DD_SUBS_C.:E05TOU  is referenced.
   DD_ERR_C.:E05TOU  is referenced.
   GD_EQUS_E.:E05TOU  is referenced.
   DF_EQUS_E.:E05TOU  is referenced.
   G_LCP6_E.:E05TOU  is referenced.
   GD$MSG_M.:E05TOU  is referenced.
   DD_SD_M.:E05TOU  is referenced.
   XUH_MACRO_C.:E05TOU  is referenced.
   DD$BASED.:E05TOU  is referenced.
   B$OBJECT_C.:E05TOU  is referenced.
   B$ROSEG.:E05TOU  cannot be made into a system file and is referenced.
   CP_6.:E05TOU  cannot be made into a system file and is referenced.
   B$JIT_C.:E05TOU  was found in the system file and is never referenced.
   CP_6_C.:E05TOU  was found in the system file and is referenced.
      No diagnostics issued in procedure DUZ$DRIV66.

   Procedure DUZ$DRIV66 requires 944 words for executable code.
   Procedure DUZ$DRIV66 requires 54 words of local(AUTO) storage.

    No errors detected in file DUZ$DRIV66.:E05TSI    .
PL6.E3A0      #001=DUZ$DRIV66 File=DUZ$DRIV66.:E05TSI                            TUE 07/29/97 15:05 Page:81
          *** CROSS REFERENCE LISTING ***
**     DENOTES     IDENTIFIER DEFINITION
<<                 IDENTIFIER'S VALUE SET
>>                 IDENTIFIER'S VALUE USED
<>                 IDENTIFIER SET AND/OR USED
--                 IDENTIFIER REFERENCED
PL6.E3A0      #001=DUZ$DRIV66 File=DUZ$DRIV66.:E05TSI                            TUE 07/29/97 15:05 Page:82
          MINI XREF LISTING

AERR IN PROCEDURE CALL_DO
     10305**LABEL   10294--CALLALT 10443--CALLALT
AGAIN
     10148**LABEL   10170--CALLALT 10172--CALLALT 10175--GOTO    10183--GOTO    10187--GOTO    10195--GOTO
ALL_ATTACH.CMD
      5101**DCL     10224>>IF      10231>>IF      10235>>DOCASE
ALL_ATTACH.UNUSED
      5104**DCL      5105--REDEF    5109--REDEF
ARS
      5030**DCL     10095<<ASSIGN  10096<>CALL    10102<<ASSIGN  10107<>CALL    10109>>ASSIGN  10110>>ASSIGN
ATT_OFFSET
      5064**DCL     10165<<ASSIGN  10166>>DOWHILE 10169>>ASSIGN  10171<<ASSIGN
AT_FIRST.ATT_OFFSET
      8959**DCL     10440>>IF
AT_FIRST.BYPASS_COUNT
      8954**DCL     10439>>ASSIGN
AT_FIRST.CURRENT_COUNT
      8955**DCL     10439<<ASSIGN
AT_FIRST.UNUSED
      8939**DCL      8940--REDEF    8944--REDEF
B$EDEF.CST
      4999**DCL     10422>>IF      10422>>IF      10422>>IF      10422>>IF      10422>>IF      10422>>IF
B$EDEF.LFLAGS.SOURCE
      4958**DCL     10422>>IF      10422>>IF
B$EDEF.OU
      4970**DCL      4976--REDEF
B$ROSEG
       104**DCL     10100--CALL    10104--ASSIGN
B$ROSEG.TREE$
       106**DCL     10115<<ASSIGN
B$TCB.ALT$
      4925**DCL     10136>>ASSIGN
PL6.E3A0      #001=DUZ$DRIV66 File=DUZ$DRIV66.:E05TSI                            TUE 07/29/97 15:05 Page:83
B$TCB$
      9158**DCL     10136>>ASSIGN
B$TREE
      5131**DCL     10120--ASSIGN
B$TREE.FLGS.NOW_IN
      5137**DCL     10114<<ASSIGN
B$TREE.NAME$
      5133**DCL     10118>>ASSIGN  10119<<ASSIGN
B$TREEHDR
      5115**DCL     10113--ASSIGN
B$TREEHDR.NODES
      5117**DCL     10117>>DOINDEX
BRK
     10178**LABEL   10160--REMEMBR
B_HEAD
      9163**DCL     10096--CALL    10096--CALL
B_HEAD.BIAS
      9327**DCL     10129>>ASSIGN
B_HEAD.FLAVOR
      9288**DCL     10098>>IF
B_HEAD.PRECSIZE
      9225**DCL     10108>>ASSIGN
B_HEAD.ROSIZE
      9241**DCL     10097>>ASSIGN
B_HEAD.START
      9208**DCL     10139>>ASSIGN
B_HEAD.TREEDISP
      9217**DCL     10112>>ASSIGN
B_HEAD.VDPGS
      9174**DCL     10129>>ASSIGN
CALL_DO
     10201**PROC    10164--CALL    10173--CALL
CALL_DO_EVENT IN PROCEDURE CALL_DO
     10319**ENTRY   10194--CALL
DDA$DO
      9363**DCL-ENT 10294--CALL
PL6.E3A0      #001=DUZ$DRIV66 File=DUZ$DRIV66.:E05TSI                            TUE 07/29/97 15:05 Page:84
DDA$DOATTACH
      9393**DCL-ENT 10443--CALL
DDA$SHOW
      9365**DCL-ENT 10228--CALL
DDB$BREAK
      9366**DCL-ENT 10151--CALL    10172--CALL    10208--CALL    10221--CALL
DDE$ERROR
      9367**DCL-ENT 10125--CALL    10298--CALL    10317--CALL    10345--CALL    10349--CALL    10351--CALL
     10407--CALL    10409--CALL
DDF$FIND_PEDEF
      9387**DCL-ENT 10421--CALL
DDM$GETMEM
      9368**DCL-ENT 10100--CALL
DDQ$READLM
      9370**DCL-ENT 10096--CALL    10107--CALL
DDQ$WRITE
      9371**DCL-ENT 10474--CALL
DDR$REPORT
      9373**DCL-ENT 10144--CALL    10152--CALL    10383--CALL
DDS$ES_INQ
      9374**DCL-ENT 10142--CALL
DDS$SCAN
      9376**DCL-ENT 10162--CALL
DDS$SCAN2
      9377**DCL-ENT 10170--CALL
DDS$SET_Q2C
      9378**DCL-ENT 10143--CALL
DDZ$CMDUMP
      9379**DCL-ENT 10206--CALL    10215--CALL    10218--CALL
DD_VARCOM$
      9159**DCL     10100<>CALL    10104>>ASSIGN  10115>>ASSIGN
DFA$FPRG
      9391**DCL-ENT 10385--CALL
DFA$GO
      9394**DCL-ENT 10431--CALL
DFA$KILL_FPRG
PL6.E3A0      #001=DUZ$DRIV66 File=DUZ$DRIV66.:E05TSI                            TUE 07/29/97 15:05 Page:85
      9392**DCL-ENT 10390--CALL
DFA$STOP_FPRGS
      9395**DCL-ENT 10180--CALL
DFA$TRACE_REPORT
      9390**DCL-ENT 10388--CALL
DFQ$READ_FD
      9383**DCL-ENT 10324--CALL
DFR$EVENTRPT
      9385**DCL-ENT 10331--CALL
DFR$REPORT
      9388**DCL-ENT 10413--CALL    10416--CALL    10433--CALL    10453--CALL    10454--CALL    10460--CALL
     10463--CALL    10477--CALL
DIR$
      5024**DCL     10135<<ASSIGN  10206<>CALL    10224>>IF      10227>>ASSIGN  10231>>IF      10234>>ASSIGN
     10235>>DOCASE
DO_ATTACH IN PROCEDURE CALL_DO
     10438**LABEL   10475--GOTO
DO_IT IN PROCEDURE CALL_DO
     10294**LABEL   10296--GOTO
DUD$MINI
      9386**DCL-ENT 10334--CALL
DUE$ERRMSG
      9384**DCL-ENT 10326--CALL
DUI$1STIME
      9380**DCL-ENT 10123--CALL
DUX$BREAK
      9382**DCL-ENT  9128--DCLINIT
DUX$TRAP
      9381**DCL-ENT  9106--DCLINIT  9106--DCLINIT  9107--DCLINIT  9107--DCLINIT
D_M$LM#
      9160**DCL     10093>>ASSIGN
EDEF$
      5052**DCL     10421<>CALL    10422>>IF      10422>>IF      10422>>IF      10422>>IF      10422>>IF
     10422>>IF      10422>>IF      10422>>IF
F$XCM
      8919**DCL     10379--IF      10397--ASSIGN  10472--ASSIGN
PL6.E3A0      #001=DUZ$DRIV66 File=DUZ$DRIV66.:E05TSI                            TUE 07/29/97 15:05 Page:86
F$XCM.CMD
      8920**DCL     10401>>IF      10401>>IF      10401>>IF      10401>>IF      10412>>IF      10415>>IF
     10417>>IF
F$XCM.FAI
      8930**DCL     10438>>ASSIGN
F$XCM.SILENT
      8922**DCL     10379>>IF      10398>>IF
FAULT
      5055**DCL     10377<<ASSIGN  10379>>IF      10379>>IF      10379>>IF      10393>>IF      10393>>IF
     10396>>ASSIGN  10449>>IF      10457>>ASSIGN  10458>>IF      10470<<ASSIGN  10471>>ASSIGN
FIX$
      5023**DCL      5084--IMP-PTR 10133<<ASSIGN  10211>>IF      10213>>ASSIGN  10216>>ASSIGN  10217>>ASSIGN
FIXCOM
      5084**DCL     10213--ASSIGN
FIXCOM.CMD
      5085**DCL     10211>>IF
FIXCOM.FAI
      5095**DCL     10216>>ASSIGN
FIXCOM.TAL
      5092**DCL     10217>>ASSIGN
FPRG$CONTEXT.ADDRESS
      8880**DCL     10364<<ASSIGN
FPRG$CONTEXT.FIXCOM_INDEX
      8896**DCL     10379>>IF      10396>>ASSIGN  10471>>ASSIGN
FPRG$CONTEXT.NEXT$
      8857**DCL     10314>>ASSIGN
FPRG$CONTEXT.ONCALLS_X
      8865**DCL     10419>>IF
FPRG$CONTEXT.ONEXIT
      8904**DCL     10467>>IF      10470>>ASSIGN
FPRG$CONTEXT.READ_FD
      8859**DCL     10309>>IF      10311<<ASSIGN
FPRG$CONTEXT.STATE
      8871**DCL     10322<<ASSIGN  10466<<ASSIGN
FPRG$CONTEXT.XDELTA
      8869**DCL     10341>>IF      10365>>IF      10449>>IF      10458>>IF
PL6.E3A0      #001=DUZ$DRIV66 File=DUZ$DRIV66.:E05TSI                            TUE 07/29/97 15:05 Page:87
FPRG_IC
      5053**DCL     10355<<ASSIGN  10356>>ASSIGN  10364>>ASSIGN  10385<>CALL    10421<>CALL
FPT_DRTN
      9142**DCL     10132--ASSIGN
FPT_DRTN.V.IR#
      9144**DCL      9144--REDEF
FPT_INT
      9128**DCL     10089<>CALL
FPT_INT.V
      9128**DCL      9128--DCLINIT
FPT_OPEN_F$LM
      9031**DCL     10090<>CALL
FPT_OPEN_F$LM.ACSVEH_
      9033**DCL      9034--REDEF
FPT_OPEN_F$LM.ALTKEYS_
      9039**DCL      9040--REDEF    9040--REDEF
FPT_OPEN_F$LM.HDR_
      9038**DCL      9039--REDEF
FPT_OPEN_F$LM.TAB_
      9037**DCL      9038--REDEF
FPT_OPEN_F$LM.UHL_
      9031**DCL      9032--REDEF    9032--REDEF
FPT_OPEN_F$LM.V
      9040**DCL      9031--DCLINIT
FPT_OPEN_F$LM.V.FSN#
      9071**DCL      9071--REDEF    9071--REDEF
FPT_OPEN_F$LM.WSN_
      9037**DCL      9037--REDEF
FPT_TRAP
      9105**DCL     10088<>CALL
FPT_TRAP.V
      9105**DCL      9105--DCLINIT
GD$MSG.BRKRQS.IF$CONST.SIZE
      8179**DCL      8179--REDEF
GD$MSG.BRKRQS.IF$CONST.TEXT
      8179**DCL      8180--REDEF    8180--REDEF    8181--REDEF    8182--REDEF
PL6.E3A0      #001=DUZ$DRIV66 File=DUZ$DRIV66.:E05TSI                            TUE 07/29/97 15:05 Page:88
GD$MSG.BRKRSP.ADR$
      8192**DCL     10355>>ASSIGN
GD$MSG.BRKRSP.BRK#
      8193**DCL      8193--REDEF   10377>>ASSIGN
GD$MSG.BRKRSP.DATA
      8194**DCL     10362>>ASSIGN
GD$MSG.BRKRSP.DATA_SIZE
      8194**DCL     10360>>ASSIGN  10361>>DOINDEX
GD$MSG.BRKRSP.ERRCODE
      8194**DCL     10367>>ASSIGN
GD$MSG.BRKRSP.MBU
      8198**DCL     10376>>ASSIGN
GD$MSG.BRKRSP.USER#
      8193**DCL      8193--REDEF   10375>>ASSIGN
GD$MSG.FNC
      8128**DCL     10339>>IF      10339>>IF      10341>>IF      10379>>IF      10386>>IF
GD$MSG.LETMEM_D.VALUE.SIZE
      8151**DCL      8151--REDEF
GD$MSG.LETMEM_D.VALUE.TEXT
      8152**DCL      8152--REDEF    8152--REDEF    8153--REDEF    8154--REDEF
GD$MSG.MESSAGE
      8133**DCL      8133--REDEF    8134--REDEF    8134--REDEF    8135--REDEF    8146--REDEF    8159--REDEF
      8164--REDEF    8171--REDEF    8187--REDEF    8192--REDEF    8198--REDEF    8199--REDEF    8228--REDEF
      8230--REDEF    8241--REDEF    8248--REDEF    8260--REDEF
GD$MSG.SUBFNC
      8128**DCL      8128--REDEF    8132--REDEF
GD$MSG.TSA.I
      8200**DCL      8200--REDEF
GD$MSG.TSA.S
      8202**DCL      8202--REDEF
GD$MSG.USERQS.ASDT$
      8228**DCL      8228--REDEF    8229--REDEF
GD$MSG_HOST.BRKRQS.IF$CONST.SIZE
      8335**DCL      8335--REDEF
GD$MSG_HOST.BRKRQS.IF$CONST.TEXT
      8335**DCL      8336--REDEF    8336--REDEF    8337--REDEF    8338--REDEF
PL6.E3A0      #001=DUZ$DRIV66 File=DUZ$DRIV66.:E05TSI                            TUE 07/29/97 15:05 Page:89
GD$MSG_HOST.BRKRSP.BRK#
      8349**DCL      8349--REDEF
GD$MSG_HOST.BRKRSP.ERRCODE
      8350**DCL     10354>>ASSIGN  10374>>ASSIGN
GD$MSG_HOST.BRKRSP.USER#
      8349**DCL      8349--REDEF
GD$MSG_HOST.LETMEM_D.VALUE.SIZE
      8307**DCL      8307--REDEF
GD$MSG_HOST.LETMEM_D.VALUE.TEXT
      8308**DCL      8308--REDEF    8308--REDEF    8309--REDEF    8310--REDEF
GD$MSG_HOST.MESSAGE
      8289**DCL      8289--REDEF    8290--REDEF    8290--REDEF    8291--REDEF    8302--REDEF    8315--REDEF
      8320--REDEF    8327--REDEF    8343--REDEF    8348--REDEF    8354--REDEF    8355--REDEF    8384--REDEF
      8386--REDEF    8397--REDEF    8404--REDEF    8416--REDEF
GD$MSG_HOST.SUBFNC
      8284**DCL      8284--REDEF    8288--REDEF
GD$MSG_HOST.TSA.I
      8356**DCL      8356--REDEF
GD$MSG_HOST.TSA.S
      8358**DCL      8358--REDEF
GD$MSG_HOST.USERQS.ASDT$
      8384**DCL      8384--REDEF    8385--REDEF
GETOUT
     10190**LABEL   10128--REMEMBR
I
      5054**DCL     10361<<DOINDEX 10362>>ASSIGN  10362>>ASSIGN
IX
      5063**DCL     10117<<DOINDEX 10139<<ASSIGN  10140>>ASSIGN  10141>>ASSIGN  10142<>CALL    10150<<DOINDEX
     10152<>CALL    10210<<DOINDEX 10211>>IF      10213>>ASSIGN  10216>>ASSIGN  10217>>ASSIGN
LEFT
      5031**DCL     10097<<ASSIGN  10100>>CALL    10103<<ASSIGN  10103>>ASSIGN  10103--ASSIGN  10106>>DOWHILE
     10107<>CALL    10109<<ASSIGN  10109>>ASSIGN
M$EXIT
        34**DCL-ENT 10197--CALL
M$INT
        77**DCL-ENT 10089--CALL
PL6.E3A0      #001=DUZ$DRIV66 File=DUZ$DRIV66.:E05TSI                            TUE 07/29/97 15:05 Page:90
M$OPEN
        22**DCL-ENT 10090--CALL
M$TRAP
        76**DCL-ENT 10088--CALL
M$XXX
        34**DCL-ENT 10126--CALL    10188--CALL    10189--CALL    10190--CALL    10191--CALL    10192--CALL
     10193--CALL
NOHEAD
     10189**LABEL   10096--CALLALT
NOMEM
     10190**LABEL   10100--CALLALT
NOPNLM
     10188**LABEL   10090--CALLALT
NOROS
     10193**LABEL   10107--CALLALT
NO_REPORT IN PROCEDURE CALL_DO
     10431**LABEL   10421--CALLALT
PAGE
      5032**DCL     10101<<ASSIGN  10107<>CALL    10108<<ASSIGN  10108>>ASSIGN
PEVENT
     10194**LABEL   10159--REMEMBR
PROCESS_EVENT IN PROCEDURE CALL_DO
     10321**LABEL   10312--GOTO    10391--GOTO
PTRPTR$
      5059**DCL      5060--REDEF   10118<<ASSIGN
PTRWORD.LH
      5061**DCL     10119>>ASSIGN
REGVALUES
      5066**DCL     10130<<ASSIGN  10131--ASSIGN
REGVALUES.A
      5068**DCL      5069--REDEF
REGVALUES.Q
      5072**DCL      5073--REDEF
REPORT_ONCALL IN PROCEDURE CALL_DO
     10433**LABEL   10430--GOTO
RETN IN PROCEDURE CALL_DO
PL6.E3A0      #001=DUZ$DRIV66 File=DUZ$DRIV66.:E05TSI                            TUE 07/29/97 15:05 Page:91
     10303**LABEL   10208--CALLALT 10221--CALLALT 10327--GOTO    10346--GOTO    10352--GOTO    10388--CALLALT
     10410--GOTO    10431--CALLALT 10482--GOTO
S_D
      6601**DCL     10091<<ASSIGN
S_D.ACMDS$
      6815**DCL     10167<<ASSIGN
S_D.ACMDS_OFF
      6813**DCL     10169<<ASSIGN  10171>>ASSIGN
S_D.ACMDS_SIZE
      6817**DCL     10168<<ASSIGN
S_D.BREAK
      6641**DCL     10182<<ASSIGN  10185<<ASSIGN
S_D.BRKRSP_ERRCODE
      7431**DCL     10354<<ASSIGN  10372<<ASSIGN  10374<<ASSIGN
S_D.CURRENT_CHANNEL
      7544**DCL      7546--REDEF
S_D.CURRENT_FPRG_CONTEXT$
      6744**DCL     10321<<ASSIGN  10322>>ASSIGN  10324<>CALL    10364>>ASSIGN  10365>>IF      10379>>IF
     10396>>ASSIGN  10419>>IF      10449>>IF      10458>>IF      10466>>ASSIGN  10467>>IF      10470>>ASSIGN
     10471>>ASSIGN
S_D.D$
      6682**DCL     10205>>ASSIGN
S_D.DEBUG
      7199**DCL     10332>>IF
S_D.DEBUGA
      6696**DCL      6698--REDEF   10149>>IF      10203>>IF      10209>>IF      10222>>IF      10224>>IF
     10231>>IF      10296>>IF      10329>>IF
S_D.DEBUG_CMD
      7116**DCL     10379>>IF      10389>>IF
S_D.DIRCOM
      7048**DCL     10135--ASSIGN
S_D.DIRECT_OFF
      7137**DCL     10161<<ASSIGN  10165>>ASSIGN
S_D.DIRECT_SIZE
      7135**DCL     10161>>ASSIGN  10166>>DOWHILE 10168>>ASSIGN
S_D.DIRECT_TEXT
PL6.E3A0      #001=DUZ$DRIV66 File=DUZ$DRIV66.:E05TSI                            TUE 07/29/97 15:05 Page:92
      7585**DCL     10167--ASSIGN
S_D.DO$
      6647**DCL     10157<<ASSIGN  10227<<ASSIGN  10234<<ASSIGN  10438<<ASSIGN  10439>>ASSIGN  10439>>ASSIGN
     10440>>IF      10441<<ASSIGN
S_D.DO_ATTACH
      6819**DCL     10148<<ASSIGN
S_D.DO_SCAN
      6633**DCL     10156<<ASSIGN  10163<<ASSIGN
S_D.DRTN$
      7149**DCL     10132<<ASSIGN
S_D.EIS
      7654**DCL      7683--REDEF
S_D.ENTRYCMD$
      7396**DCL     10442<<ASSIGN
S_D.ERROR
      6625**DCL     10297<<ASSIGN  10344<<ASSIGN  10348<<ASSIGN  10350<<ASSIGN  10406<<ASSIGN  10408<<ASSIGN
S_D.FAULT
      6645**DCL     10138<<ASSIGN  10457<<ASSIGN  10465>>IF      10467>>IF
S_D.FAULTCMD$
      6611**DCL     10397<<ASSIGN  10398>>IF      10401>>IF      10401>>IF      10401>>IF      10401>>IF
     10412>>IF      10415>>IF      10417>>IF      10438>>ASSIGN  10442>>ASSIGN  10445<<ASSIGN  10472<<ASSIGN
S_D.FAULTINS$
      6609**DCL     10140<<ASSIGN
S_D.FIXCOM
      7050**DCL     10133--ASSIGN  10210--DOINDEX 10210--DOINDEX 10379--IF      10397--ASSIGN  10472--ASSIGN
S_D.FPRG_CONTEXT$
      6736**DCL     10178>>IF      10305>>IF      10307>>ASSIGN
S_D.HOST_MESSAGE_BUF_REMOTE
      7587**DCL      7588--REDEF    7602--REDEF
S_D.IXFIX
      6629**DCL     10137<<ASSIGN  10396<<ASSIGN  10397>>ASSIGN  10471<<ASSIGN  10472>>ASSIGN
S_D.JDE
      7201**DCL      7202--REDEF
S_D.L$.VALUE
      6754**DCL      6760--REDEF    6768--REDEF    6771--REDEF    6774--REDEF    6777--REDEF
S_D.L$.VALUE.L
PL6.E3A0      #001=DUZ$DRIV66 File=DUZ$DRIV66.:E05TSI                            TUE 07/29/97 15:05 Page:93
      6755**DCL      6756--REDEF    6757--REDEF
S_D.L6_MESSAGE_BUF
      7608**DCL      7610--REDEF
S_D.LMDCB
      7274**DCL     10093<<ASSIGN
S_D.MBU
      7437**DCL     10376<<ASSIGN
S_D.MOD_L6.ADDRESS
      7717**DCL     10356<<ASSIGN
S_D.MOD_L6.DESC#
      7719**DCL     10358<<ASSIGN
S_D.MOD_L6.NOT_IS
      7720**DCL     10359<<ASSIGN
S_D.MOD_L6.SEG
      7718**DCL     10357<<ASSIGN
S_D.MOD_L6.VALUE.OPS
      7723**DCL     10362<<ASSIGN
S_D.MOD_L6.VALUE.SIZE
      7722**DCL     10360<<ASSIGN
S_D.ONE_TO_TWO.EXEC_DOMAIN
      7619**DCL     10092<<ASSIGN
S_D.OUTPUT
      7574**DCL      7576--REDEF   10473<<ASSIGN  10474--CALL
S_D.PADDR
      7260**DCL     10129<<ASSIGN
S_D.PROMPT_SIZE
      7370**DCL     10335<<ASSIGN
S_D.REMOTE_MSG.FNCC
      7593**DCL      7594--REDEF
S_D.REMOTE_MSG.STXC
      7589**DCL      7590--REDEF
S_D.REMOTE_MSG.SUBFNCC
      7597**DCL      7598--REDEF
S_D.REM_BREAK
      7435**DCL     10160<<REMEMBR
S_D.REM_DO_SCAN
PL6.E3A0      #001=DUZ$DRIV66 File=DUZ$DRIV66.:E05TSI                            TUE 07/29/97 15:05 Page:94
      6637**DCL     10158<<REMEMBR
S_D.REM_DRTN_QUIT
      7392**DCL     10128<<REMEMBR
S_D.REM_USERGO
      7417**DCL     10159<<REMEMBR
S_D.SAVEIC
      6607**DCL     10141<<ASSIGN
S_D.SILENT
      7210**DCL     10399<<ASSIGN  10444<<ASSIGN
S_D.STEP_L6
      7490**DCL     10452>>IF      10462>>IF
S_D.SV
      6653**DCL      6674--REDEF
S_D.UREG$
      6684**DCL     10131<<ASSIGN
S_D.USERNO
      7433**DCL     10375<<ASSIGN
S_D.USS$
      6613**DCL     10136<<ASSIGN
S_D.VARCOM$
      7065**DCL     10134>>ASSIGN  10438>>ASSIGN
S_D$
      7905**DCL      6601--IMP-PTR 10091>>ASSIGN  10092>>ASSIGN  10093>>ASSIGN  10128>>REMEMBR 10129>>ASSIGN
     10131>>ASSIGN  10132>>ASSIGN  10133>>ASSIGN  10134>>ASSIGN  10135>>ASSIGN  10136>>ASSIGN  10137>>ASSIGN
     10138>>ASSIGN  10140>>ASSIGN  10141>>ASSIGN  10148>>ASSIGN  10149>>IF      10156>>ASSIGN  10157>>ASSIGN
     10158>>REMEMBR 10159>>REMEMBR 10160>>REMEMBR 10161>>ASSIGN  10161>>ASSIGN  10163>>ASSIGN  10165>>ASSIGN
     10166>>DOWHILE 10167>>ASSIGN  10167>>ASSIGN  10168>>ASSIGN  10168>>ASSIGN  10169>>ASSIGN  10171>>ASSIGN
     10178>>IF      10182>>ASSIGN  10185>>ASSIGN  10203>>IF      10205>>ASSIGN  10209>>IF      10222>>IF
     10224>>IF      10227>>ASSIGN  10231>>IF      10234>>ASSIGN  10296>>IF      10297>>ASSIGN  10305>>IF
     10307>>ASSIGN  10321>>ASSIGN  10322>>ASSIGN  10324>>CALL    10329>>IF      10332>>IF      10335>>ASSIGN
     10344>>ASSIGN  10348>>ASSIGN  10350>>ASSIGN  10354>>ASSIGN  10356>>ASSIGN  10357>>ASSIGN  10358>>ASSIGN
     10359>>ASSIGN  10360>>ASSIGN  10362>>ASSIGN  10364>>ASSIGN  10365>>IF      10372>>ASSIGN  10374>>ASSIGN
     10375>>ASSIGN  10376>>ASSIGN  10379>>IF      10379>>IF      10379>>IF      10389>>IF      10396>>ASSIGN
     10396>>ASSIGN  10397>>ASSIGN  10397>>ASSIGN  10397>>ASSIGN  10398>>IF      10399>>ASSIGN  10401>>IF
     10401>>IF      10401>>IF      10401>>IF      10406>>ASSIGN  10408>>ASSIGN  10412>>IF      10415>>IF
     10417>>IF      10419>>IF      10438>>ASSIGN  10438>>ASSIGN  10438>>ASSIGN  10439>>ASSIGN  10439>>ASSIGN
PL6.E3A0      #001=DUZ$DRIV66 File=DUZ$DRIV66.:E05TSI                            TUE 07/29/97 15:05 Page:95
     10440>>IF      10441>>ASSIGN  10442>>ASSIGN  10442>>ASSIGN  10444>>ASSIGN  10445>>ASSIGN  10449>>IF
     10452>>IF      10457>>ASSIGN  10458>>IF      10462>>IF      10465>>IF      10466>>ASSIGN  10467>>IF
     10467>>IF      10470>>ASSIGN  10471>>ASSIGN  10471>>ASSIGN  10472>>ASSIGN  10472>>ASSIGN  10472>>ASSIGN
     10473>>ASSIGN  10474>>CALL
S_D_HOST_MESSAGE$
      7941**DCL      8284--IMP-PTR 10354>>ASSIGN  10374>>ASSIGN
S_D_L6_MESSAGE$
      7942**DCL      8128--IMP-PTR 10339>>IF      10339>>IF      10341>>IF      10355>>ASSIGN  10360>>ASSIGN
     10361>>DOINDEX 10362>>ASSIGN  10367>>ASSIGN  10375>>ASSIGN  10376>>ASSIGN  10377>>ASSIGN  10379>>IF
     10386>>IF
TEMP$
      5034**DCL      5035--REDEF    5036--REDEF   10104<<ASSIGN  10105>>ASSIGN  10107<>CALL    10110<<ASSIGN
     10110>>ASSIGN  10112<<ASSIGN  10113>>ASSIGN  10115>>ASSIGN  10117>>DOINDEX 10119>>ASSIGN  10205<<ASSIGN
     10206<>CALL    10213<<ASSIGN  10214>>ASSIGN  10215<>CALL    10216<<ASSIGN  10217>>ASSIGN  10218<>CALL
TEMP1
      5035**DCL     10367<<ASSIGN
TEMP1$
      5058**DCL     10105<<ASSIGN  10112>>ASSIGN  10113<<ASSIGN  10114>>ASSIGN  10118>>ASSIGN  10119>>ASSIGN
     10120<<ASSIGN  10120>>ASSIGN  10214<<ASSIGN  10215<>CALL    10217<<ASSIGN  10218<>CALL
TEMP1B.B1
      5038**DCL     10368>>ASSIGN
TEMP1B.B2
      5039**DCL     10369>>ASSIGN
TEMP1B.B3
      5040**DCL     10370>>ASSIGN
TEMP1B.B4
      5041**DCL     10371>>ASSIGN
TEMP2
      5042**DCL      5043--REDEF   10372>>ASSIGN
TEMP2B.B1
      5045**DCL     10368<<ASSIGN
TEMP2B.B2
      5047**DCL     10369<<ASSIGN
TEMP2B.B3
      5049**DCL     10370<<ASSIGN
TEMP2B.B4
PL6.E3A0      #001=DUZ$DRIV66 File=DUZ$DRIV66.:E05TSI                            TUE 07/29/97 15:05 Page:96
      5051**DCL     10371<<ASSIGN
TFPRG$
      5033**DCL     10307<<ASSIGN  10308>>DOWHILE 10309>>IF      10311>>ASSIGN  10314<<ASSIGN  10314>>ASSIGN
     10321>>ASSIGN  10341>>IF
TRAP_HERE
     10149**LABEL   10151--CALLALT 10158--REMEMBR
UIS$
      9157**DCL     10140>>ASSIGN
VAR$
      5025**DCL     10134<<ASSIGN  10216>>ASSIGN
PL6.E3A0      #001=DUZ$DRIV66 File=DUZ$DRIV66.:E05TSI                            TUE 07/29/97 15:05 Page:97
              *** CROSS REFERENCE LISTING ***
    **     DENOTES     IDENTIFIER DEFINITION
    <<                 IDENTIFIER'S VALUE SET
    >>                 IDENTIFIER'S VALUE USED
    <>                 IDENTIFIER SET AND/OR USED
    --                 IDENTIFIER REFERENCED
PL6.E3A0      #001=DUZ$DRIV66 File=DUZ$DRIV66.:E05TSI                            TUE 07/29/97 15:05 Page:98
              MINI UREF LISTING

B$ROAVAIL     144**DCL
B$RODCB$     141**DCL
DCTX_ME    9156**DCL
DDA$KILL1    9389**DCL-ENT
DDA$PLUGH    9364**DCL-ENT
DDM$PUTMEM    9369**DCL-ENT
DDR$INSTR    9372**DCL-ENT
DDS$INSTR    9375**DCL-ENT
DUZ$DRIV66      11**PROC
F$DELTA    5079**DCL
F$DO    5080**DCL
F$LM    5081**DCL
M$ACCT      39**DCL-ENT
M$ACTIVATE      42**DCL-ENT
M$ALIB      35**DCL-ENT
M$ASUSER      37**DCL-ENT
M$ATTACH      44**DCL-ENT
M$BADPP      62**DCL-ENT
M$CGCTL      43**DCL-ENT
M$CGINFO      43**DCL-ENT
M$CHECK      24**DCL-ENT
M$CHGUNIT      82**DCL-ENT
M$CLOSE      22**DCL-ENT
M$CLRSTK      80**DCL-ENT
M$CMDVAR      91**DCL-ENT
M$CONFIG      52**DCL-ENT
M$CORRES      27**DCL-ENT
M$CPEXIT      36**DCL-ENT
M$CVM      60**DCL-ENT
M$CVOL      25**DCL-ENT
M$DCLFLD      52**DCL-ENT
M$DEACTIVATE      42**DCL-ENT
PL6.E3A0      #001=DUZ$DRIV66 File=DUZ$DRIV66.:E05TSI                            TUE 07/29/97 15:05 Page:99
M$DELREC      24**DCL-ENT
M$DEQ      89**DCL-ENT
M$DETACH      44**DCL-ENT
M$DEVICE      26**DCL-ENT
M$DISPLAY      89**DCL-ENT
M$DISPRES      29**DCL-ENT
M$DLIB      35**DCL-ENT
M$DRIBBLE      52**DCL-ENT
M$DRTN      80**DCL-ENT
M$DSUSER      37**DCL-ENT
M$ENQ      88**DCL-ENT
M$EOM      47**DCL-ENT
M$ERASE      53**DCL-ENT
M$ERR      34**DCL-ENT
M$ERRMSG      85**DCL-ENT
M$EVENT      77**DCL-ENT
M$EXHUME      86**DCL-ENT
M$EXTEND      26**DCL-ENT
M$FDP      58**DCL-ENT
M$FDS      57**DCL-ENT
M$FEBOOT      50**DCL-ENT
M$FECTL      51**DCL-ENT
M$FEDUMP      50**DCL-ENT
M$FID      85**DCL-ENT
M$FINDPROC      39**DCL-ENT
M$FSUSER      37**DCL-ENT
M$FVP      59**DCL-ENT
M$FWCG      43**DCL-ENT
M$GBPL      63**DCL-ENT
M$GDDL      59**DCL-ENT
M$GDP      58**DCL-ENT
M$GDS      57**DCL-ENT
M$GETDCB      28**DCL-ENT
M$GETMOUSE      68**DCL-ENT
M$GETPM      69**DCL-ENT
M$GJOB      87**DCL-ENT
PL6.E3A0      #001=DUZ$DRIV66 File=DUZ$DRIV66.:E05TSI                            TUE 07/29/97 15:05 Page:100
M$GLINEATTR      47**DCL-ENT
M$GOODPP      62**DCL-ENT
M$GPLATEN      55**DCL-ENT
M$GPROMPT      54**DCL-ENT
M$GTRMATTR      48**DCL-ENT
M$GTRMCTL      46**DCL-ENT
M$GTRMTAB      49**DCL-ENT
M$GVP      58**DCL-ENT
M$HELP      85**DCL-ENT
M$INTRTN      38**DCL-ENT
M$IOQ      73**DCL-ENT
M$JOBSTATS      87**DCL-ENT
M$KEYIN      27**DCL-ENT
M$LDEV      22**DCL-ENT
M$LDTRC      35**DCL-ENT
M$LIMIT      28**DCL-ENT
M$LINES      27**DCL-ENT
M$LINK      34**DCL-ENT
M$MADMUCK      30**DCL-ENT
M$MAKUSER      61**DCL-ENT
M$MBS      29**DCL-ENT
M$MDFFLD      53**DCL-ENT
M$MERC      78**DCL-ENT
M$MERCS      79**DCL-ENT
M$MIRROR      73**DCL-ENT
M$MONINFO      90**DCL-ENT
M$MPL      63**DCL-ENT
M$NODEINFO      54**DCL-ENT
M$NXTUSR      88**DCL-ENT
M$OCMSG      86**DCL-ENT
M$OLAY      34**DCL-ENT
M$PAS      63**DCL-ENT
M$PATHCON      86**DCL-ENT
M$PDS      57**DCL-ENT
M$PFIL      24**DCL-ENT
M$PLATEN      48**DCL-ENT
PL6.E3A0      #001=DUZ$DRIV66 File=DUZ$DRIV66.:E05TSI                            TUE 07/29/97 15:05 Page:101
M$PRECORD      26**DCL-ENT
M$PROCNAME      39**DCL-ENT
M$PROFILE      50**DCL-ENT
M$PROMPT      46**DCL-ENT
M$RACST      30**DCL-ENT
M$RDSYSLOG      71**DCL-ENT
M$READ      23**DCL-ENT
M$RELDCB      28**DCL-ENT
M$RELRES      29**DCL-ENT
M$RELSTARF      31**DCL-ENT
M$REM      31**DCL-ENT
M$RENV      78**DCL-ENT
M$REQUIRE      30**DCL-ENT
M$RETRY      79**DCL-ENT
M$RETRYS      79**DCL-ENT
M$REW      25**DCL-ENT
M$RLSFLD      53**DCL-ENT
M$RPRIV      81**DCL-ENT
M$RSPP      60**DCL-ENT
M$RSWITCH      82**DCL-ENT
M$RUE      88**DCL-ENT
M$SAD      61**DCL-ENT
M$SAVE      37**DCL-ENT
M$SCON      38**DCL-ENT
M$SCREECH      36**DCL-ENT
M$SENV      78**DCL-ENT
M$SETFMA      22**DCL-ENT
M$SETFP      51**DCL-ENT
M$SINPUT      49**DCL-ENT
M$SLCFLD      54**DCL-ENT
M$SMOUSE      68**DCL-ENT
M$SMPRT      60**DCL-ENT
M$SPRIV      81**DCL-ENT
M$SSC      61**DCL-ENT
M$SSWITCH      81**DCL-ENT
M$STATE      90**DCL-ENT
PL6.E3A0      #001=DUZ$DRIV66 File=DUZ$DRIV66.:E05TSI                            TUE 07/29/97 15:05 Page:102
M$STD      62**DCL-ENT
M$STIMER      76**DCL-ENT
M$STLPP      59**DCL-ENT
M$STRAP      76**DCL-ENT
M$STRMATTR      48**DCL-ENT
M$STRMCTL      46**DCL-ENT
M$STRMTAB      49**DCL-ENT
M$SYMBIO      87**DCL-ENT
M$SYSCON      73**DCL-ENT
M$SYSID      91**DCL-ENT
M$TDCLOSE      72**DCL-ENT
M$TDIO      72**DCL-ENT
M$TDOPEN      71**DCL-ENT
M$TDREQCPU      72**DCL-ENT
M$TEMPWROC      66**DCL-ENT
M$TIME      89**DCL-ENT
M$TRMISC      51**DCL-ENT
M$TRMPRG      47**DCL-ENT
M$TRTN      80**DCL-ENT
M$TRUNC      23**DCL-ENT
M$TTIMER      76**DCL-ENT
M$UC      46**DCL
M$UMPL      63**DCL-ENT
M$UNFID      85**DCL-ENT
M$UNLATCH      42**DCL-ENT
M$UNSHARE      39**DCL-ENT
M$USRFIELD      82**DCL-ENT
M$VIRTUAL      57**DCL-ENT
M$WAIT      80**DCL-ENT
M$WEOF      25**DCL-ENT
M$WRITE      23**DCL-ENT
M$WRSYSLOG      71**DCL-ENT
M$XCON      77**DCL-ENT
M$XCONRTN      38**DCL-ENT
M$XEQTIME      90**DCL-ENT
M$XFLUSH      31**DCL-ENT
PL6.E3A0      #001=DUZ$DRIV66 File=DUZ$DRIV66.:E05TSI                            TUE 07/29/97 15:05 Page:103
M$XMOUSE      68**DCL-ENT
M$YC      36**DCL-ENT
NOMEM1   10191**LABEL
NOMEM2   10192**LABEL
RES    5056**DCL
RES_SIZE    5057**DCL
S_D_ACCESS$    7920**DCL
S_D_ANLZ$    7922**DCL
S_D_ASTACKOFF$    7921**DCL
S_D_BREAK$    7923**DCL
S_D_DO_SCAN$    7924**DCL
S_D_ERROR$    7925**DCL
S_D_FAULTCMD$$    7926**DCL
S_D_FAULTINS$$    7927**DCL
S_D_GOIC$    7928**DCL
S_D_GO_MODE$    7929**DCL
S_D_HW_PTB_UNITS$    7945**DCL
S_D_HW_RES_MEM$    7943**DCL
S_D_HW_WSQ0PT$    7944**DCL
S_D_IPRFLT$    7931**DCL
S_D_IXFIX$    7930**DCL
S_D_REM_ACCESS$    7932**DCL
S_D_REM_DISKBOOT$    7934**DCL
S_D_REM_DO_SCAN$    7933**DCL
S_D_RETURNN$    7935**DCL
S_D_SAD$    7936**DCL
S_D_SAVEIC$    7937**DCL
S_D_SEG$    7919**DCL
S_D_TCB$$    7938**DCL
S_D_UREG$$    7939**DCL
S_D_USS$$    7940**DCL
