VERSION E05

PL6.E3A0      #001=B_DELTA_D File=DU_ALTVAR_D.:E05TSI                            TUE 07/29/97 15:06 Page:1
        1        1        /*M* DU_ALTVAR_D - Alternate Variable search routine for DELT66 */
        2        2        /*T***********************************************************/
        3        3        /*T*                                                         */
        4        4        /*T* Copyright (c) Bull HN Information Systems Inc., 1997    */
        5        5        /*T*                                                         */
        6        6        /*T***********************************************************/
        7        7        B_DELTA_D: PROC;
        8        8        %INCLUDE XUH_MACRO_C;
        9       92        %INCLUDE DD_SD_M;
       10     1428        %S_D;
       11     2746    1   DCL B$JIT$ PTR SYMREF;
       12     2747        %INCLUDE F$DCB;
       13     2796        %INCLUDE B$JIT;
       14     3086    1   END;

PL6.E3A0      #001=B_DELTA_D File=DU_ALTVAR_D.:E05TSI                            TUE 07/29/97 15:06 Page:2
--  Include file information  --

   B$JIT.:E05TOU  cannot be made into a system file and is referenced.
   F$DCB.:E05TOU  cannot be made into a system file and is referenced.
   DD_SD_M.:E05TOU  is referenced.
   XUH_MACRO_C.:E05TOU  is referenced.
   B$JIT_C.:E05TOU  was found in the system file and is referenced.
   CP_6_C.:E05TOU  was found in the system file and is never referenced.
      No diagnostics issued in procedure B_DELTA_D.

   No code generated for procedure B_DELTA_D .
   Procedure B_DELTA_D requires 4 words of local(AUTO) storage.

    No errors detected in file DU_ALTVAR_D.:E05TSI    .

PL6.E3A0      #001=B_DELTA_D File=DU_ALTVAR_D.:E05TSI                            TUE 07/29/97 15:06 Page:3

 Object Unit name= B_DELTA_D                                  File name= DU_ALTVAR_D.:E05TOU
 UTS= JUL 29 '97 15:06:04.56 TUE                              Compiler= PL-6/E31         Sev=      00
 SharedLib= :SHARED_SYSTEM                                    Alt SharedLib=


    ****  Control sections  ****

 Sect   Type Bound  Init  Size OctSiz  Section name(segment info)
    0   Proc  even  none     0      0  B_DELTA_D

    ****  Entry defs  ****

                              Check   Calling
                             calling  sequence
  Sect OctLoc Primary Altret sequence   type   Parms  Name
     0      0   yes            yes     ~proc       0  B_DELTA_D

  ****  Data refs  ****

  Flags:  r = read only, s = secondary
Flgs Name                             Flgs Name                             Flgs Name
r    S_D$                                  B$JIT$
PL6.E3A0      #001=B_DELTA_D File=DU_ALTVAR_D.:E05TSI                            TUE 07/29/97 15:06 Page:4

        1        1        /*M* DU_ALTVAR_D - Alternate Variable search routine for DELT66 */
        2        2        /*T***********************************************************/
        3        3        /*T*                                                         */
        4        4        /*T* Copyright (c) Bull HN Information Systems Inc., 1997    */
        5        5        /*T*                                                         */
        6        6        /*T***********************************************************/
        7        7        B_DELTA_D: PROC;
        8        8        %INCLUDE XUH_MACRO_C;
        9       92        %INCLUDE DD_SD_M;
       10     1428        %S_D;
       11     2746    1   DCL B$JIT$ PTR SYMREF;
       12     2747        %INCLUDE F$DCB;
       13     2796        %INCLUDE B$JIT;
       14     3086    1   END;

PL6.E3A0      #001=B_DELTA_D File=DU_ALTVAR_D.:E05TSI                            TUE 07/29/97 15:06 Page:5
--  Include file information  --

   B$JIT.:E05TOU  cannot be made into a system file and is referenced.
   F$DCB.:E05TOU  cannot be made into a system file and is referenced.
   DD_SD_M.:E05TOU  is referenced.
   XUH_MACRO_C.:E05TOU  is referenced.
   B$JIT_C.:E05TOU  was found in the system file and is referenced.
   CP_6_C.:E05TOU  was found in the system file and is never referenced.
      No diagnostics issued in procedure B_DELTA_D.

   No code generated for procedure B_DELTA_D .
   Procedure B_DELTA_D requires 4 words of local(AUTO) storage.

    No errors detected in file DU_ALTVAR_D.:E05TSI    .
PL6.E3A0      #001=B_DELTA_D File=DU_ALTVAR_D.:E05TSI                            TUE 07/29/97 15:06 Page:6
          *** CROSS REFERENCE LISTING ***
**     DENOTES     IDENTIFIER DEFINITION
<<                 IDENTIFIER'S VALUE SET
>>                 IDENTIFIER'S VALUE USED
<>                 IDENTIFIER SET AND/OR USED
--                 IDENTIFIER REFERENCED
PL6.E3A0      #001=B_DELTA_D File=DU_ALTVAR_D.:E05TSI                            TUE 07/29/97 15:06 Page:7
          MINI XREF LISTING

B$JIT.CPFLAGS1.SLEAZE
      2904**DCL      2904--REDEF
B$JIT.ERR.MID
      2811**DCL      2811--REDEF
B$JIT.JRESPEAK
      2972**DCL      2973--REDEF
B$JIT.ORIGINATOR_PORT.FROM_CR
      3081**DCL      3081--REDEF    3082--REDEF
B$JIT.PNR
      2985**DCL      2985--REDEF
B$JIT.TSLINE
      3079**DCL      3080--REDEF
B$JIT$
      2746**DCL      2805--IMP-PTR
F$DCB.ACTPOS
      2773**DCL      2773--REDEF
F$DCB.ARS
      2748**DCL      2748--REDEF
F$DCB.ATTR
      2766**DCL      2767--REDEF
F$DCB.BORROW
      2781**DCL      2781--REDEF    2781--REDEF    2781--REDEF
F$DCB.DCBNAME.L
      2795**DCL      2795--IMP-SIZ
F$DCB.EOMCHAR
      2752**DCL      2752--REDEF
F$DCB.FLDID
      2776**DCL      2776--REDEF
F$DCB.FORM$
      2770**DCL      2770--REDEF
F$DCB.FSECT
      2786**DCL      2786--REDEF
PL6.E3A0      #001=B_DELTA_D File=DU_ALTVAR_D.:E05TSI                            TUE 07/29/97 15:06 Page:8
F$DCB.FSN
      2763**DCL      2763--REDEF    2763--REDEF    2764--REDEF
F$DCB.HEADER$
      2769**DCL      2769--REDEF
F$DCB.IXTNSIZE
      2767**DCL      2767--REDEF
F$DCB.LASTSTA$
      2757**DCL      2757--REDEF
F$DCB.LVL
      2782**DCL      2782--REDEF
F$DCB.NAME.C
      2757**DCL      2757--REDEF
F$DCB.NOEOF
      2778**DCL      2778--REDEF
F$DCB.NRECS
      2768**DCL      2768--REDEF
F$DCB.NRECX
      2787**DCL      2787--REDEF
F$DCB.OHDR
      2779**DCL      2779--REDEF
F$DCB.ORG
      2762**DCL      2762--REDEF
F$DCB.PRECNO
      2785**DCL      2785--REDEF
F$DCB.RCSZ
      2790**DCL      2790--REDEF
F$DCB.RES
      2758**DCL      2758--REDEF
F$DCB.SETX
      2770**DCL      2770--REDEF
F$DCB.TAB$
      2769**DCL      2770--REDEF
F$DCB.TDA
      2784**DCL      2784--REDEF
F$DCB.WSN
      2759**DCL      2759--REDEF
PL6.E3A0      #001=B_DELTA_D File=DU_ALTVAR_D.:E05TSI                            TUE 07/29/97 15:06 Page:9
S_D.CURRENT_CHANNEL
      2380**DCL      2382--REDEF
S_D.DEBUGA
      1532**DCL      1534--REDEF
S_D.EIS
      2490**DCL      2519--REDEF
S_D.HOST_MESSAGE_BUF_REMOTE
      2423**DCL      2424--REDEF    2438--REDEF
S_D.JDE
      2037**DCL      2038--REDEF
S_D.L$.VALUE
      1590**DCL      1596--REDEF    1604--REDEF    1607--REDEF    1610--REDEF    1613--REDEF
S_D.L$.VALUE.L
      1591**DCL      1592--REDEF    1593--REDEF
S_D.L6_MESSAGE_BUF
      2444**DCL      2446--REDEF
S_D.OUTPUT
      2410**DCL      2412--REDEF
S_D.REMOTE_MSG.FNCC
      2429**DCL      2430--REDEF
S_D.REMOTE_MSG.STXC
      2425**DCL      2426--REDEF
S_D.REMOTE_MSG.SUBFNCC
      2433**DCL      2434--REDEF
S_D.SV
      1489**DCL      1510--REDEF
S_D$
      2741**DCL      1437--IMP-PTR
PL6.E3A0      #001=B_DELTA_D File=DU_ALTVAR_D.:E05TSI                            TUE 07/29/97 15:06 Page:10
              *** CROSS REFERENCE LISTING ***
    **     DENOTES     IDENTIFIER DEFINITION
    <<                 IDENTIFIER'S VALUE SET
    >>                 IDENTIFIER'S VALUE USED
    <>                 IDENTIFIER SET AND/OR USED
    --                 IDENTIFIER REFERENCED
PL6.E3A0      #001=B_DELTA_D File=DU_ALTVAR_D.:E05TSI                            TUE 07/29/97 15:06 Page:11
              MINI UREF LISTING

B_DELTA_D       7**PROC
