VERSION E05

PL6.E3A0      #001=DU_PTR_D File=DU_PTR_D.:E05TSI                                TUE 07/29/97 15:06 Page:1
        1        1        /*M* DU_PTR_D Constant pointers & misc data for User Delta */
        2        2        /*T***********************************************************/
        3        3        /*T*                                                         */
        4        4        /*T* Copyright (c) Bull HN Information Systems Inc., 1997    */
        5        5        /*T*                                                         */
        6        6        /*T***********************************************************/
        7        7        /*X* DMR,PLM=5,IND=5,CSU=3,EXM=0,ECU=3,MOC,DCI=5,CRT=5 */
        8        8        %SET LISTSUB='1'B;
        9        9        /*F* NAME: DU_PTR_D
       10       10             PURPOSE: To generate constant pointers & misc data for User Delta.
       11       11             DESCRIPTION: This modules contains constant pointers & constant data
       12       12                          definitions for User Delta. */
       13       13        /*D* NAME: DU_PTR_D
       14       14             ENVIRONMENT: User Delta.
       15       15             DESCRIPTION: This modules contains constant pointers & constant data
       16       16                          definitions for User Delta. */
       17       17                                                /**/
       18       18        DU_PTR_D: PROC;
       19       19                                                /**/
       20       20        %SUB @OCDCTX = 1;
       21       21        %SUB @LPDCTX = 2;
       22       22        %SUB @CRDCTX = 4;
       23       23        %SUB @MTDCTX = 8;
       24       24        %SUB @DPDCTX = 16;
       25       25        %SUB @PATCHDCTX = 32;
       26       26        %INCLUDE DD$BASED;
       27     1329        %INCLUDE DD_SUBS_C;
       28     1600        %INCLUDE B_SEGIDS_C;
       29     2139        /* Pointers to DELTA's linkage segment descriptors */
       30     2140        %MACRO POINT (NM=NM,SID=SID);
       31     2141        DCL 1 NM CONSTANT SYMDEF,
       32     2142              2 * BIT(24) UNAL INIT('0'B),
       33     2143              2 * BIT(12) UNAL INIT(SID);
       34     2144        %MEND;
       35     2145        %POINT(NM=PARSE$,SID=%DS2SID);
       36     2150        %POINT(NM=DD_RUMNODE$,SID=%DS4SID);
       37     2155        %POINT(NM=DD_WHEN$,SID=%DS5SID);
PL6.E3A0      #001=DU_PTR_D File=DU_PTR_D.:E05TSI                                TUE 07/29/97 15:06 Page:2
       38     2160        %POINT(NM=DD_VARCOM$,SID=%DS8SID);
       39     2165        %POINT(NM=DD_ANLZSEG$,SID=%DS6SID);
       40     2170        %POINT(NM=DD_FPRGSEG$,SID=%DS7SID);
       41     2175        %POINT(NM=USS1$,SID=%SPCL1SID);
       42     2180        %POINT (NM=UDR2$, SID='4000'O);
       43     2185        %POINT (NM=UECCB$, SID='4001'O);
       44     2190        %POINT (NM=UTCB$, SID='4002'O);
       45     2195        /*D* The following four (4) pointers MUST be in order (PS,IS,AS,LS) */
       46     2196        %POINT(NM=UPS$,SID=%SPCL4SID);
       47     2201        %POINT(NM=UIS$,SID=%SPCL5SID);
       48     2206        %POINT(NM=UAS$,SID=%SPCL3SID);
       49     2211        %POINT(NM=ULS$,SID=%SPCL2SID);
       50     2216        /**/
       51     2217        %POINT(NM=UJIT$,SID=%JITSID);
       52     2222        %POINT(NM=MALS$,SID=%SPCL6SID);
       53     2227        %POINT(NM=SAD$,SID=%SPCL7SID);
       54     2232        %POINT(NM=IPHY$,SID=%SPCL8SID);
       55     2237        /* Exec Delta/User Delta flag */
       56     2238    1   DCL D_XDELTA BIT(1) CONSTANT SYMDEF INIT('0'B);
       57     2239        /* Debug flags */
       58     2240    1   DCL DD_DEBUG UBIN CONSTANT SYMDEF INIT( 0 );
       59     2241        /* Use frame */
       60     2242    1   DCL USE$ PTR CONSTANT SYMDEF INIT( ADDR( UUSE ) );
       61     2243    1   DCL USE_ORIG$ PTR CONSTANT SYMDEF INIT( ADDR( UUSE ) );
       62     2244        %U$SE (NAME=UUSE,STCLASS=CONSTANT,CURINIT="INIT('1'B)",TYPEINIT="INIT(USE_MON)",
       63     2245               LSINIT="INIT(LS_NONE)",APTINIT="INIT(0)",USERNOINIT="INIT(0)");
       64     2253        %U$SE (NAME=USE_REM,STCLASS=CONSTANT SYMDEF,CURINIT="INIT('1'B)",
       65     2254               TYPEINIT="INIT(USE_MON)",
       66     2255               LSINIT="INIT(LS_NONE)",APTINIT="INIT(0)",USERNOINIT="INIT(0)");
       67     2263        /* Dummy XDELTA data for common modules */
       68     2264    1   DCL DCTX_NO SBIN CONSTANT SYMDEF INIT( 0);
       69     2265    1   DCL DCTX_ME SBIN CONSTANT SYMDEF INIT(1);
       70     2266    1   DCL DCTX_LP SBIN CONSTANT SYMDEF INIT(2);
       71     2267    1   DCL DCTX_CR SBIN CONSTANT SYMDEF INIT(4);
       72     2268    1   DCL DCTX_MT UBIN CONSTANT SYMDEF INIT(8);
       73     2269    1   DCL DCTX_DP UBIN CONSTANT SYMDEF INIT(16);
       74     2270    1   DCL DCTX_PATCH UBIN CONSTANT SYMDEF INIT(32);
PL6.E3A0      #001=DU_PTR_D File=DU_PTR_D.:E05TSI                                TUE 07/29/97 15:06 Page:3
       75     2271    1   DCL IN_DEV UBIN CONSTANT SYMDEF INIT(1);
       76     2272    1   DCL OUT_DEV UBIN CONSTANT SYMDEF INIT(1);
       77     2273    1   DCL OUT_DEV_SAVE UBIN CONSTANT SYMDEF INIT(1);
       78     2274    1   DCL ECHO_DEV UBIN CONSTANT SYMDEF INIT(1);
       79     2275    1   DCL DX_DIC CONSTANT SYMDEF BIT(1);
       80     2276    1   DCL DICFAULT UBIN CONSTANT SYMDEF INIT(0);
       81     2277    1   DCL MON_APT UBIN CONSTANT SYMDEF INIT(0);
       82     2278    1   DCL RECOVER UBIN CONSTANT SYMDEF INIT(0);
       83     2279    1   DCL DEL_FAULT CONSTANT SYMDEF UBIN INIT(0);
       84     2280    1   DCL DEL_FAULTLOC CONSTANT SYMDEF UBIN INIT(0);
       85     2281    1   DCL WSR(0:7) UNAL UBIN(9) CONSTANT SYMDEF INIT(0*8);
       86     2282    1   DCL MIS$ PTR CONSTANT SYMDEF INIT(ADDR(NIL));
       87     2283    1   DCL SCX1$ PTR CONSTANT SYMDEF INIT(ADDR(NIL));
       88     2284    1   DCL UHJIT$ PTR CONSTANT SYMDEF INIT(ADDR(NIL));
       89     2285    1   DCL MAPX$ PTR CONSTANT SYMDEF INIT(ADDR(NIL));
       90     2286    1   DCL REALX$ PTR CONSTANT SYMDEF INIT(ADDR(NIL));
       91     2287    1   DCL DLS$ PTR CONSTANT SYMDEF INIT(ADDR(NIL));
       92     2288    1   DCL USDS$ PTR CONSTANT SYMDEF INIT(ADDR(NIL));
       93     2289    1   DCL IOBUF$ PTR CONSTANT SYMDEF INIT(ADDR(NIL));
       94     2290    1   DCL CNODE$ PTR CONSTANT SYMDEF INIT(ADDR(NIL));
       95     2291    1   DCL DEFDIR$ PTR CONSTANT SYMDEF INIT(ADDR(NIL));
       96     2292    1   DCL H_XDELTA UBIN CONSTANT SYMDEF INIT(0);
       97     2293    1   DCL D_SYMBOLS BIT(1) CONSTANT SYMDEF INIT('1'B);
       98     2294    1   DCL IRM_NOKP_SCR UBIN CONSTANT SYMDEF INIT(0);
       99     2295        /* Dummy "value" DEFs */
      100     2296    1   DCL REALXB_OFF UBIN CONSTANT SYMDEF;
      101     2297    1   DCL MAPXB_OFF UBIN CONSTANT SYMDEF;
      102     2298    1   DCL SCX1_OFF UBIN CONSTANT SYMDEF;
      103     2299                                                /**/
      104     2300    1   END DU_PTR_D;

PL6.E3A0      #001=DU_PTR_D File=DU_PTR_D.:E05TSI                                TUE 07/29/97 15:06 Page:4
--  Include file information  --

   B_SEGIDS_C.:E05TOU  is referenced.
   DD_SUBS_C.:E05TOU  is referenced.
   DD$BASED.:E05TOU  is referenced.
   B$JIT_C.:E05TOU  was found in the system file and is never referenced.
   CP_6_C.:E05TOU  was found in the system file and is never referenced.
      No diagnostics issued in procedure DU_PTR_D.

   No code generated for procedure DU_PTR_D .
   Procedure DU_PTR_D requires 4 words of local(AUTO) storage.

    No errors detected in file DU_PTR_D.:E05TSI    .

PL6.E3A0      #001=DU_PTR_D File=DU_PTR_D.:E05TSI                                TUE 07/29/97 15:06 Page:5

 Object Unit name= DU_PTR_D                                   File name= DU_PTR_D.:E05TOU
 UTS= JUL 29 '97 15:06:22.32 TUE                              Compiler= PL-6/E31         Sev=      00
 SharedLib= :SHARED_SYSTEM                                    Alt SharedLib=


    ****  Control sections  ****

 Sect   Type Bound  Init  Size OctSiz  Section name(segment info)
    0  RoData even  UTS     67    103  DU_PTR_D
    1   Proc  even  none     0      0  DU_PTR_D

    ****  Entry defs  ****

                              Check   Calling
                             calling  sequence
  Sect OctLoc Primary Altret sequence   type   Parms  Name
     1      0   yes            yes     ~proc       0  DU_PTR_D

  ****  Data defs  ****

 Sect OctLoc  Name                           Sect OctLoc  Name
    0      0  PARSE$                             0      1  DD_RUMNODE$
    0      2  DD_WHEN$                           0      3  DD_VARCOM$
    0      4  DD_ANLZSEG$                        0      5  DD_FPRGSEG$
    0      6  USS1$                              0      7  UDR2$
    0     10  UECCB$                             0     11  UTCB$
    0     12  UPS$                               0     13  UIS$
    0     14  UAS$                               0     15  ULS$
    0     16  UJIT$                              0     17  MALS$
    0     20  SAD$                               0     21  IPHY$
    0     22  D_XDELTA                           0     23  DD_DEBUG
    0     24  USE$                               0     25  USE_ORIG$
    0     33  USE_REM                            0     40  DCTX_NO
    0     41  DCTX_ME                            0     42  DCTX_LP
    0     43  DCTX_CR                            0     44  DCTX_MT
    0     45  DCTX_DP                            0     46  DCTX_PATCH
    0     47  IN_DEV                             0     50  OUT_DEV
PL6.E3A0      #001=DU_PTR_D File=DU_PTR_D.:E05TSI                                TUE 07/29/97 15:06 Page:6
    0     51  OUT_DEV_SAVE                       0     52  ECHO_DEV
    0     53  DX_DIC                             0     54  DICFAULT
    0     55  MON_APT                            0     56  RECOVER
    0     57  DEL_FAULT                          0     60  DEL_FAULTLOC
    0     61  WSR                                0     63  MIS$
    0     64  SCX1$                              0     65  UHJIT$
    0     66  MAPX$                              0     67  REALX$
    0     70  DLS$                               0     71  USDS$
    0     72  IOBUF$                             0     73  CNODE$
    0     74  DEFDIR$                            0     75  H_XDELTA
    0     76  D_SYMBOLS                          0     77  IRM_NOKP_SCR
    0    100  REALXB_OFF                         0    101  MAPXB_OFF
    0    102  SCX1_OFF

  ****  Segment refs  ****

  Flags:  r = read only, s = secondary
Flgs Name                             Flgs Name                             Flgs Name
     ISSID                                 NULLSID
PL6.E3A0      #001=DU_PTR_D File=DU_PTR_D.:E05TSI                                TUE 07/29/97 15:06 Page:7


(unnamed)
 Sect OctLoc
   0     000   000000 006005   000000 006007   000000 006010   000000 006013    ................
   0     004   000000 006011   000000 006012   000000 006021   000000 004000    ................
   0     010   000000 004001   000000 004002   000000 006024   000000 006026    ................
   0     014   000000 006023   000000 006022   000000 006001   000000 006027    ................
   0     020   000000 006030   000000 006031   0***** ******   000000 000000    ................
   0     024   000026 006000   000026 006000                                    ........

UUSE
 Sect OctLoc
   0     026   4***** ******   000000 000000   000000 000000   000000 000000    ................
   0     032   000000 000000                                                    ....

(unnamed)
 Sect OctLoc
   0     033   4***** ******   000000 000000   000000 000000   000000 000000    ................
   0     037   000000 000000   000000 000000   000000 000001   000000 000002    ................
   0     043   000000 000004   000000 000010   000000 000020   000000 000040    ...............
   0     047   000000 000001   000000 000001   000000 000001   000000 000001    ................
   0     053   ****** ******   000000 000000   000000 000000   000000 000000    ................
   0     057   000000 000000   000000 000000   000000 000000   000000 000000    ................
   0     063   000000 006014   000000 006014   000000 006014   000000 006014    ................
   0     073*  000000 006014   000000 006014   000000 000000   4***** ******    ................
   0     077   000000 000000   ****** ******   ****** ******   ****** ******    ................
        1        1        /*M* DU_PTR_D Constant pointers & misc data for User Delta */
        2        2        /*T***********************************************************/
        3        3        /*T*                                                         */
        4        4        /*T* Copyright (c) Bull HN Information Systems Inc., 1997    */
        5        5        /*T*                                                         */
        6        6        /*T***********************************************************/
        7        7        /*X* DMR,PLM=5,IND=5,CSU=3,EXM=0,ECU=3,MOC,DCI=5,CRT=5 */
        8        8        %SET LISTSUB='1'B;
        9        9        /*F* NAME: DU_PTR_D
       10       10             PURPOSE: To generate constant pointers & misc data for User Delta.
       11       11             DESCRIPTION: This modules contains constant pointers & constant data
PL6.E3A0      #001=DU_PTR_D File=DU_PTR_D.:E05TSI                                TUE 07/29/97 15:06 Page:8
       12       12                          definitions for User Delta. */
       13       13        /*D* NAME: DU_PTR_D
       14       14             ENVIRONMENT: User Delta.
       15       15             DESCRIPTION: This modules contains constant pointers & constant data
       16       16                          definitions for User Delta. */
       17       17                                                /**/
       18       18        DU_PTR_D: PROC;
       19       19                                                /**/
       20       20        %SUB @OCDCTX = 1;
       21       21        %SUB @LPDCTX = 2;
       22       22        %SUB @CRDCTX = 4;
       23       23        %SUB @MTDCTX = 8;
       24       24        %SUB @DPDCTX = 16;
       25       25        %SUB @PATCHDCTX = 32;
       26       26        %INCLUDE DD$BASED;
       27     1329        %INCLUDE DD_SUBS_C;
       28     1600        %INCLUDE B_SEGIDS_C;
       29     2139        /* Pointers to DELTA's linkage segment descriptors */
       30     2140        %MACRO POINT (NM=NM,SID=SID);
       31     2141        DCL 1 NM CONSTANT SYMDEF,
       32     2142              2 * BIT(24) UNAL INIT('0'B),
       33     2143              2 * BIT(12) UNAL INIT(SID);
       34     2144        %MEND;
       35     2145        %POINT(NM=PARSE$,SID=%DS2SID);
       36     2150        %POINT(NM=DD_RUMNODE$,SID=%DS4SID);
       37     2155        %POINT(NM=DD_WHEN$,SID=%DS5SID);
       38     2160        %POINT(NM=DD_VARCOM$,SID=%DS8SID);
       39     2165        %POINT(NM=DD_ANLZSEG$,SID=%DS6SID);
       40     2170        %POINT(NM=DD_FPRGSEG$,SID=%DS7SID);
       41     2175        %POINT(NM=USS1$,SID=%SPCL1SID);
       42     2180        %POINT (NM=UDR2$, SID='4000'O);
       43     2185        %POINT (NM=UECCB$, SID='4001'O);
       44     2190        %POINT (NM=UTCB$, SID='4002'O);
       45     2195        /*D* The following four (4) pointers MUST be in order (PS,IS,AS,LS) */
       46     2196        %POINT(NM=UPS$,SID=%SPCL4SID);
       47     2201        %POINT(NM=UIS$,SID=%SPCL5SID);
       48     2206        %POINT(NM=UAS$,SID=%SPCL3SID);
PL6.E3A0      #001=DU_PTR_D File=DU_PTR_D.:E05TSI                                TUE 07/29/97 15:06 Page:9
       49     2211        %POINT(NM=ULS$,SID=%SPCL2SID);
       50     2216        /**/
       51     2217        %POINT(NM=UJIT$,SID=%JITSID);
       52     2222        %POINT(NM=MALS$,SID=%SPCL6SID);
       53     2227        %POINT(NM=SAD$,SID=%SPCL7SID);
       54     2232        %POINT(NM=IPHY$,SID=%SPCL8SID);
       55     2237        /* Exec Delta/User Delta flag */
       56     2238    1   DCL D_XDELTA BIT(1) CONSTANT SYMDEF INIT('0'B);
       57     2239        /* Debug flags */
       58     2240    1   DCL DD_DEBUG UBIN CONSTANT SYMDEF INIT( 0 );
       59     2241        /* Use frame */
       60     2242    1   DCL USE$ PTR CONSTANT SYMDEF INIT( ADDR( UUSE ) );
       61     2243    1   DCL USE_ORIG$ PTR CONSTANT SYMDEF INIT( ADDR( UUSE ) );
       62     2244        %U$SE (NAME=UUSE,STCLASS=CONSTANT,CURINIT="INIT('1'B)",TYPEINIT="INIT(USE_MON)",
       63     2245               LSINIT="INIT(LS_NONE)",APTINIT="INIT(0)",USERNOINIT="INIT(0)");
       64     2253        %U$SE (NAME=USE_REM,STCLASS=CONSTANT SYMDEF,CURINIT="INIT('1'B)",
       65     2254               TYPEINIT="INIT(USE_MON)",
       66     2255               LSINIT="INIT(LS_NONE)",APTINIT="INIT(0)",USERNOINIT="INIT(0)");
       67     2263        /* Dummy XDELTA data for common modules */
       68     2264    1   DCL DCTX_NO SBIN CONSTANT SYMDEF INIT( 0);
       69     2265    1   DCL DCTX_ME SBIN CONSTANT SYMDEF INIT(1);
       70     2266    1   DCL DCTX_LP SBIN CONSTANT SYMDEF INIT(2);
       71     2267    1   DCL DCTX_CR SBIN CONSTANT SYMDEF INIT(4);
       72     2268    1   DCL DCTX_MT UBIN CONSTANT SYMDEF INIT(8);
       73     2269    1   DCL DCTX_DP UBIN CONSTANT SYMDEF INIT(16);
       74     2270    1   DCL DCTX_PATCH UBIN CONSTANT SYMDEF INIT(32);
       75     2271    1   DCL IN_DEV UBIN CONSTANT SYMDEF INIT(1);
       76     2272    1   DCL OUT_DEV UBIN CONSTANT SYMDEF INIT(1);
       77     2273    1   DCL OUT_DEV_SAVE UBIN CONSTANT SYMDEF INIT(1);
       78     2274    1   DCL ECHO_DEV UBIN CONSTANT SYMDEF INIT(1);
       79     2275    1   DCL DX_DIC CONSTANT SYMDEF BIT(1);
       80     2276    1   DCL DICFAULT UBIN CONSTANT SYMDEF INIT(0);
       81     2277    1   DCL MON_APT UBIN CONSTANT SYMDEF INIT(0);
       82     2278    1   DCL RECOVER UBIN CONSTANT SYMDEF INIT(0);
       83     2279    1   DCL DEL_FAULT CONSTANT SYMDEF UBIN INIT(0);
       84     2280    1   DCL DEL_FAULTLOC CONSTANT SYMDEF UBIN INIT(0);
       85     2281    1   DCL WSR(0:7) UNAL UBIN(9) CONSTANT SYMDEF INIT(0*8);
PL6.E3A0      #001=DU_PTR_D File=DU_PTR_D.:E05TSI                                TUE 07/29/97 15:06 Page:10
       86     2282    1   DCL MIS$ PTR CONSTANT SYMDEF INIT(ADDR(NIL));
       87     2283    1   DCL SCX1$ PTR CONSTANT SYMDEF INIT(ADDR(NIL));
       88     2284    1   DCL UHJIT$ PTR CONSTANT SYMDEF INIT(ADDR(NIL));
       89     2285    1   DCL MAPX$ PTR CONSTANT SYMDEF INIT(ADDR(NIL));
       90     2286    1   DCL REALX$ PTR CONSTANT SYMDEF INIT(ADDR(NIL));
       91     2287    1   DCL DLS$ PTR CONSTANT SYMDEF INIT(ADDR(NIL));
       92     2288    1   DCL USDS$ PTR CONSTANT SYMDEF INIT(ADDR(NIL));
       93     2289    1   DCL IOBUF$ PTR CONSTANT SYMDEF INIT(ADDR(NIL));
       94     2290    1   DCL CNODE$ PTR CONSTANT SYMDEF INIT(ADDR(NIL));
       95     2291    1   DCL DEFDIR$ PTR CONSTANT SYMDEF INIT(ADDR(NIL));
       96     2292    1   DCL H_XDELTA UBIN CONSTANT SYMDEF INIT(0);
       97     2293    1   DCL D_SYMBOLS BIT(1) CONSTANT SYMDEF INIT('1'B);
       98     2294    1   DCL IRM_NOKP_SCR UBIN CONSTANT SYMDEF INIT(0);
       99     2295        /* Dummy "value" DEFs */
      100     2296    1   DCL REALXB_OFF UBIN CONSTANT SYMDEF;
      101     2297    1   DCL MAPXB_OFF UBIN CONSTANT SYMDEF;
      102     2298    1   DCL SCX1_OFF UBIN CONSTANT SYMDEF;
      103     2299                                                /**/
      104     2300    1   END DU_PTR_D;

PL6.E3A0      #001=DU_PTR_D File=DU_PTR_D.:E05TSI                                TUE 07/29/97 15:06 Page:11
--  Include file information  --

   B_SEGIDS_C.:E05TOU  is referenced.
   DD_SUBS_C.:E05TOU  is referenced.
   DD$BASED.:E05TOU  is referenced.
   B$JIT_C.:E05TOU  was found in the system file and is never referenced.
   CP_6_C.:E05TOU  was found in the system file and is never referenced.
      No diagnostics issued in procedure DU_PTR_D.

   No code generated for procedure DU_PTR_D .
   Procedure DU_PTR_D requires 4 words of local(AUTO) storage.

    No errors detected in file DU_PTR_D.:E05TSI    .
PL6.E3A0      #001=DU_PTR_D File=DU_PTR_D.:E05TSI                                TUE 07/29/97 15:06 Page:12
          *** CROSS REFERENCE LISTING ***
**     DENOTES     IDENTIFIER DEFINITION
<<                 IDENTIFIER'S VALUE SET
>>                 IDENTIFIER'S VALUE USED
<>                 IDENTIFIER SET AND/OR USED
--                 IDENTIFIER REFERENCED
PL6.E3A0      #001=DU_PTR_D File=DU_PTR_D.:E05TSI                                TUE 07/29/97 15:06 Page:13
          MINI XREF LISTING

UUSE
      2246**DCL      2242--DCLINIT  2243--DCLINIT
PL6.E3A0      #001=DU_PTR_D File=DU_PTR_D.:E05TSI                                TUE 07/29/97 15:06 Page:14
              *** CROSS REFERENCE LISTING ***
    **     DENOTES     IDENTIFIER DEFINITION
    <<                 IDENTIFIER'S VALUE SET
    >>                 IDENTIFIER'S VALUE USED
    <>                 IDENTIFIER SET AND/OR USED
    --                 IDENTIFIER REFERENCED
PL6.E3A0      #001=DU_PTR_D File=DU_PTR_D.:E05TSI                                TUE 07/29/97 15:06 Page:15
              MINI UREF LISTING

CNODE$    2290**DCL
DCTX_CR    2267**DCL
DCTX_DP    2269**DCL
DCTX_LP    2266**DCL
DCTX_ME    2265**DCL
DCTX_MT    2268**DCL
DCTX_NO    2264**DCL
DCTX_PATCH    2270**DCL
DD_ANLZSEG$    2166**DCL
DD_DEBUG    2240**DCL
DD_FPRGSEG$    2171**DCL
DD_RUMNODE$    2151**DCL
DD_VARCOM$    2161**DCL
DD_WHEN$    2156**DCL
DEFDIR$    2291**DCL
DEL_FAULT    2279**DCL
DEL_FAULTLOC    2280**DCL
DICFAULT    2276**DCL
DLS$    2287**DCL
DU_PTR_D      18**PROC
DX_DIC    2275**DCL
D_SYMBOLS    2293**DCL
D_XDELTA    2238**DCL
ECHO_DEV    2274**DCL
H_XDELTA    2292**DCL
IN_DEV    2271**DCL
IOBUF$    2289**DCL
IPHY$    2233**DCL
IRM_NOKP_SCR    2294**DCL
MALS$    2223**DCL
MAPX$    2285**DCL
MAPXB_OFF    2297**DCL
PL6.E3A0      #001=DU_PTR_D File=DU_PTR_D.:E05TSI                                TUE 07/29/97 15:06 Page:16
MIS$    2282**DCL
MON_APT    2277**DCL
OUT_DEV    2272**DCL
OUT_DEV_SAVE    2273**DCL
PARSE$    2146**DCL
REALX$    2286**DCL
REALXB_OFF    2296**DCL
RECOVER    2278**DCL
SAD$    2228**DCL
SCX1$    2283**DCL
SCX1_OFF    2298**DCL
UAS$    2207**DCL
UDR2$    2181**DCL
UECCB$    2186**DCL
UHJIT$    2284**DCL
UIS$    2202**DCL
UJIT$    2218**DCL
ULS$    2212**DCL
UPS$    2197**DCL
USDS$    2288**DCL
USE$    2242**DCL
USE_ORIG$    2243**DCL
USE_REM    2256**DCL
USS1$    2176**DCL
UTCB$    2191**DCL
WSR    2281**DCL
