VERSION E05

PL6.E3A0      #001=DXA$GET_APT1 File=DXA$G_APT1.:E05TSI                          TUE 07/29/97 15:08 Page:1
        1        1        /*M* DXA$G_APT1 . */
        2        2        /*T***********************************************************/
        3        3        /*T*                                                         */
        4        4        /*T* Copyright (c) Bull HN Information Systems Inc., 1997    */
        5        5        /*T*                                                         */
        6        6        /*T***********************************************************/
        7        7        /*X* DMR,PLM=5,IND=5,CSU=3,EXM=0,ECU=3,MOC,DCI=5,CRT=5 */
        8        8        /*D*  NAME:  DXA$GET_APT1
        9        9              CALL:  CALL DXA$GET_APT1(WSQ#,APT)
       10       10              INPUT;  WSQ# IS THE WSQ WHOSE PAGE TABLE IS TO BE GOTTEN
       11       11              OUTPUT: ADDRESS OF PAGE TABLE FOR WSQ#
       12       12              DESCRIPTION:  THE PAGE TABLE DIRECTORY ENTRY FOR WSQ# IS
       13       13                              RETURNED IN APT.
       14       14              */
       15       15        DXA$GET_APT1: PROC(WSQ#,APT);
       16       16        %INCLUDE DD$BASED;
       17     1319        %S$WSPTD;
       18     1328    1   DCL MIS$ PTR SYMREF;
       19     1329    1   DCL WSQ# SBIN;
       20     1330    1   DCL APT SBIN;
       21     1331    1        APT = MIS$->S$WSPTD.BLKNO(WSQ#); /* APT IS ADDRESS OF PAGE TABLE, MOD 64 */
       22     1332    1        RETURN;
       23     1333    1   END DXA$GET_APT1;

PL6.E3A0      #001=DXA$GET_APT1 File=DXA$G_APT1.:E05TSI                          TUE 07/29/97 15:08 Page:2
--  Include file information  --

   DD$BASED.:E05TOU  is referenced.
   B$JIT_C.:E05TOU  was found in the system file and is never referenced.
   CP_6_C.:E05TOU  was found in the system file and is never referenced.
      No diagnostics issued in procedure DXA$GET_APT1.

   Procedure DXA$GET_APT1 requires 10 words for executable code.
   Procedure DXA$GET_APT1 requires 6 words of local(AUTO) storage.

    No errors detected in file DXA$G_APT1.:E05TSI    .

PL6.E3A0      #001=DXA$GET_APT1 File=DXA$G_APT1.:E05TSI                          TUE 07/29/97 15:08 Page:3

 Object Unit name= DXA$GET_APT1                               File name= DXA$G_APT1.:E05TOU
 UTS= JUL 29 '97 15:08:08.84 TUE                              Compiler= PL-6/E31         Sev=      00
 SharedLib= :SHARED_SYSTEM                                    Alt SharedLib=


    ****  Control sections  ****

 Sect   Type Bound  Init  Size OctSiz  Section name(segment info)
    0   Proc  even  none    10     12  DXA$GET_APT1

    ****  Entry defs  ****

                              Check   Calling
                             calling  sequence
  Sect OctLoc Primary Altret sequence   type   Parms  Name
     0      0   yes            yes      Std        2  DXA$GET_APT1

  ****  Entry refs  ****

         Check        Calling
        calling       sequence
Altret sequence SRef   type   Args  Name
                       nStd      0 X66_AUTO_2
                       nStd      0 X66_ARET

  ****  Data refs  ****

  Flags:  r = read only, s = secondary
Flgs Name                             Flgs Name                             Flgs Name
     MIS$
PL6.E3A0      #001=DXA$GET_APT1 File=DXA$G_APT1.:E05TSI                          TUE 07/29/97 15:08 Page:4


        1        1        /*M* DXA$G_APT1 . */
        2        2        /*T***********************************************************/
        3        3        /*T*                                                         */
        4        4        /*T* Copyright (c) Bull HN Information Systems Inc., 1997    */
        5        5        /*T*                                                         */
        6        6        /*T***********************************************************/
        7        7        /*X* DMR,PLM=5,IND=5,CSU=3,EXM=0,ECU=3,MOC,DCI=5,CRT=5 */
        8        8        /*D*  NAME:  DXA$GET_APT1
        9        9              CALL:  CALL DXA$GET_APT1(WSQ#,APT)
       10       10              INPUT;  WSQ# IS THE WSQ WHOSE PAGE TABLE IS TO BE GOTTEN
       11       11              OUTPUT: ADDRESS OF PAGE TABLE FOR WSQ#
       12       12              DESCRIPTION:  THE PAGE TABLE DIRECTORY ENTRY FOR WSQ# IS
       13       13                              RETURNED IN APT.
       14       14              */
       15       15        DXA$GET_APT1: PROC(WSQ#,APT);

     15  0 000000   000000 700200 xent  DXA$GET_APT1 TSX0  ! X66_AUTO_2
         0 000001   000006 000002                    ZERO    6,2

       16       16        %INCLUDE DD$BASED;
       17     1319        %S$WSPTD;
       18     1328    1   DCL MIS$ PTR SYMREF;
       19     1329    1   DCL WSQ# SBIN;
       20     1330    1   DCL APT SBIN;
       21     1331    1        APT = MIS$->S$WSPTD.BLKNO(WSQ#); /* APT IS ADDRESS OF PAGE TABLE, MOD 64 */

   1331  0 000002   200003 470500                    LDP0    @WSQ#,,AUTO
         0 000003   000000 720100                    LXL0    0,,PR0
         0 000004   000000 471400 xsym               LDP1    MIS$
         0 000005   100000 236110                    LDQ     0,X0,PR1
         0 000006   000022 772000                    QRL     18
         0 000007   200004 473500                    LDP3    @APT,,AUTO
         0 000010   300000 756100                    STQ     0,,PR3

       22     1332    1        RETURN;

PL6.E3A0      #001=DXA$GET_APT1 File=DXA$G_APT1.:E05TSI                          TUE 07/29/97 15:08 Page:5
   1332  0 000011   000000 702200 xent               TSX2  ! X66_ARET
       23     1333    1   END DXA$GET_APT1;

PL6.E3A0      #001=DXA$GET_APT1 File=DXA$G_APT1.:E05TSI                          TUE 07/29/97 15:08 Page:6
--  Include file information  --

   DD$BASED.:E05TOU  is referenced.
   B$JIT_C.:E05TOU  was found in the system file and is never referenced.
   CP_6_C.:E05TOU  was found in the system file and is never referenced.
      No diagnostics issued in procedure DXA$GET_APT1.

   Procedure DXA$GET_APT1 requires 10 words for executable code.
   Procedure DXA$GET_APT1 requires 6 words of local(AUTO) storage.

    No errors detected in file DXA$G_APT1.:E05TSI    .
PL6.E3A0      #001=DXA$GET_APT1 File=DXA$G_APT1.:E05TSI                          TUE 07/29/97 15:08 Page:7
          *** CROSS REFERENCE LISTING ***
**     DENOTES     IDENTIFIER DEFINITION
<<                 IDENTIFIER'S VALUE SET
>>                 IDENTIFIER'S VALUE USED
<>                 IDENTIFIER SET AND/OR USED
--                 IDENTIFIER REFERENCED
PL6.E3A0      #001=DXA$GET_APT1 File=DXA$G_APT1.:E05TSI                          TUE 07/29/97 15:08 Page:8
          MINI XREF LISTING

APT
      1330**DCL        15--PROC     1331<<ASSIGN
MIS$
      1328**DCL      1331>>ASSIGN
S$WSPTD.BLKNO
      1321**DCL      1331>>ASSIGN
WSQ#
      1329**DCL        15--PROC     1331>>ASSIGN
PL6.E3A0      #001=DXA$GET_APT1 File=DXA$G_APT1.:E05TSI                          TUE 07/29/97 15:08 Page:9
              *** CROSS REFERENCE LISTING ***
    **     DENOTES     IDENTIFIER DEFINITION
    <<                 IDENTIFIER'S VALUE SET
    >>                 IDENTIFIER'S VALUE USED
    <>                 IDENTIFIER SET AND/OR USED
    --                 IDENTIFIER REFERENCED
PL6.E3A0      #001=DXA$GET_APT1 File=DXA$G_APT1.:E05TSI                          TUE 07/29/97 15:08 Page:10
              MINI UREF LISTING

DXA$GET_APT1      15**PROC
