VERSION E05

PL6.E3A0      #001=DXA$SSF File=DXA$SSF.:E05TSI                                  TUE 07/29/97 15:08 Page:1
        1        1        /*M* DXA$SSF CHECK FOR SAFE STORE FULL ROUTINE */
        2        2        /*T***********************************************************/
        3        3        /*T*                                                         */
        4        4        /*T* Copyright (c) Bull HN Information Systems Inc., 1997    */
        5        5        /*T*                                                         */
        6        6        /*T***********************************************************/
        7        7        /*X* DMR,PLM=5,IND=5,CSU=3,EXM=0,ECU=3,MOC,DCI=5,CRT=5 */
        8        8        /*M*  DXA:SSF     SAFE STORE FAULT CHECK               */
        9        9        /*D*  NAME:  DXA$SSF
       10       10              PURPOSE:  TO REPORT A FULL SAFE STORE STACK
       11       11              DESCRIPTION:  ALTRETURN IF THE SAFE STORE STACK IS FULL
       12       12              */
       13       13        DXA$SSF: PROC ALTRET;
       14       14        %INCLUDE XUH_MACRO_C;
       15       98        %INCLUDE DD_SD_M;
       16     1434        %S_D;
       17     2752        %INCLUDE DD_ERR_C;
       18     3149        %INCLUDE B$SS;
       19     3328    1   DCL DDE$ERROR ENTRY;
       20     3329    1        IF NOT S_D.USS$ -> B$SS.SSF THEN RETURN;
       21     3330                                                /* IF SAFE STORE FLAG SAYS 'FULL', GIVE
       22     3331                                                    ERROR AND ALTRETURN */
       23     3332    1        S_D.ERROR = E@SSF;                 /* E@SSF */
       24     3333    1        CALL DDE$ERROR;
       25     3334    1        ALTRETURN;
       26     3335    1   END DXA$SSF;

PL6.E3A0      #001=DXA$SSF File=DXA$SSF.:E05TSI                                  TUE 07/29/97 15:08 Page:2
--  Include file information  --

   B$SS.:E05TOU  cannot be made into a system file and is referenced.
   DD_ERR_C.:E05TOU  is referenced.
   DD_SD_M.:E05TOU  is referenced.
   XUH_MACRO_C.:E05TOU  is referenced.
   B$JIT_C.:E05TOU  was found in the system file and is never referenced.
   CP_6_C.:E05TOU  was found in the system file and is never referenced.
      No diagnostics issued in procedure DXA$SSF.

   Procedure DXA$SSF requires 14 words for executable code.
   Procedure DXA$SSF requires 4 words of local(AUTO) storage.

    No errors detected in file DXA$SSF.:E05TSI    .

PL6.E3A0      #001=DXA$SSF File=DXA$SSF.:E05TSI                                  TUE 07/29/97 15:08 Page:3

 Object Unit name= DXA$SSF                                    File name= DXA$SSF.:E05TOU
 UTS= JUL 29 '97 15:08:35.04 TUE                              Compiler= PL-6/E31         Sev=      00
 SharedLib= :SHARED_SYSTEM                                    Alt SharedLib=


    ****  Control sections  ****

 Sect   Type Bound  Init  Size OctSiz  Section name(segment info)
    0   Proc  even  none    14     16  DXA$SSF

    ****  Entry defs  ****

                              Check   Calling
                             calling  sequence
  Sect OctLoc Primary Altret sequence   type   Parms  Name
     0      0   yes    yes     yes      Std        0  DXA$SSF

  ****  Entry refs  ****

         Check        Calling
        calling       sequence
Altret sequence SRef   type   Args  Name
         yes           Std       0 DDE$ERROR
                       nStd      0 X66_AUTO_0
                       nStd      0 X66_ARET
                       Std       0 B_CONSPOOL_D
                       nStd      0 X66_AALT

  ****  Data refs  ****

  Flags:  r = read only, s = secondary
Flgs Name                             Flgs Name                             Flgs Name
r    S_D$                                  B_VECTNIL
PL6.E3A0      #001=DXA$SSF File=DXA$SSF.:E05TSI                                  TUE 07/29/97 15:08 Page:4


        1        1        /*M* DXA$SSF CHECK FOR SAFE STORE FULL ROUTINE */
        2        2        /*T***********************************************************/
        3        3        /*T*                                                         */
        4        4        /*T* Copyright (c) Bull HN Information Systems Inc., 1997    */
        5        5        /*T*                                                         */
        6        6        /*T***********************************************************/
        7        7        /*X* DMR,PLM=5,IND=5,CSU=3,EXM=0,ECU=3,MOC,DCI=5,CRT=5 */
        8        8        /*M*  DXA:SSF     SAFE STORE FAULT CHECK               */
        9        9        /*D*  NAME:  DXA$SSF
       10       10              PURPOSE:  TO REPORT A FULL SAFE STORE STACK
       11       11              DESCRIPTION:  ALTRETURN IF THE SAFE STORE STACK IS FULL
       12       12              */
       13       13        DXA$SSF: PROC ALTRET;

     13  0 000000   000000 700200 xent  DXA$SSF      TSX0  ! X66_AUTO_0
         0 000001   000004 000000                    ZERO    4,0

       14       14        %INCLUDE XUH_MACRO_C;
       15       98        %INCLUDE DD_SD_M;
       16     1434        %S_D;
       17     2752        %INCLUDE DD_ERR_C;
       18     3149        %INCLUDE B$SS;
       19     3328    1   DCL DDE$ERROR ENTRY;
       20     3329    1        IF NOT S_D.USS$ -> B$SS.SSF THEN RETURN;

   3329  0 000002   000000 470400 xsym               LDP0    S_D$
         0 000003   000005 471500                    LDP1    5,,PR0
         0 000004   100005 236100                    LDQ     5,,PR1
         0 000005   000200 316003                    CANQ    128,DU
         0 000006   000010 601000 0                  TNZ     s:3332

   3329  0 000007   000000 702200 xent               TSX2  ! X66_ARET

       21     3330                                                /* IF SAFE STORE FLAG SAYS 'FULL', GIVE
       22     3331                                                    ERROR AND ALTRETURN */
       23     3332    1        S_D.ERROR = E@SSF;                 /* E@SSF */
PL6.E3A0      #001=DXA$SSF File=DXA$SSF.:E05TSI                                  TUE 07/29/97 15:08 Page:5

   3332  0 000010   001140 235007                    LDA     608,DL
         0 000011   000013 755100                    STA     11,,PR0

       24     3333    1        CALL DDE$ERROR;

   3333  0 000012   000002 631400 xsym               EPPR1   B_VECTNIL+2
         0 000013   000000 701000 xent               TSX1    DDE$ERROR
         0 000014   000000 011000                    NOP     0

       25     3334    1        ALTRETURN;

   3334  0 000015   000000 702200 xent               TSX2  ! X66_AALT
       26     3335    1   END DXA$SSF;

PL6.E3A0      #001=DXA$SSF File=DXA$SSF.:E05TSI                                  TUE 07/29/97 15:08 Page:6
--  Include file information  --

   B$SS.:E05TOU  cannot be made into a system file and is referenced.
   DD_ERR_C.:E05TOU  is referenced.
   DD_SD_M.:E05TOU  is referenced.
   XUH_MACRO_C.:E05TOU  is referenced.
   B$JIT_C.:E05TOU  was found in the system file and is never referenced.
   CP_6_C.:E05TOU  was found in the system file and is never referenced.
      No diagnostics issued in procedure DXA$SSF.

   Procedure DXA$SSF requires 14 words for executable code.
   Procedure DXA$SSF requires 4 words of local(AUTO) storage.

    No errors detected in file DXA$SSF.:E05TSI    .
PL6.E3A0      #001=DXA$SSF File=DXA$SSF.:E05TSI                                  TUE 07/29/97 15:08 Page:7
          *** CROSS REFERENCE LISTING ***
**     DENOTES     IDENTIFIER DEFINITION
<<                 IDENTIFIER'S VALUE SET
>>                 IDENTIFIER'S VALUE USED
<>                 IDENTIFIER SET AND/OR USED
--                 IDENTIFIER REFERENCED
PL6.E3A0      #001=DXA$SSF File=DXA$SSF.:E05TSI                                  TUE 07/29/97 15:08 Page:8
          MINI XREF LISTING

B$SS.RVA
      3201**DCL      3202--REDEF
B$SS.SSF
      3188**DCL      3329>>IF
DDE$ERROR
      3328**DCL-ENT  3333--CALL
S_D.CURRENT_CHANNEL
      2386**DCL      2388--REDEF
S_D.DEBUGA
      1538**DCL      1540--REDEF
S_D.EIS
      2496**DCL      2525--REDEF
S_D.ERROR
      1467**DCL      3332<<ASSIGN
S_D.HOST_MESSAGE_BUF_REMOTE
      2429**DCL      2430--REDEF    2444--REDEF
S_D.JDE
      2043**DCL      2044--REDEF
S_D.L$.VALUE
      1596**DCL      1602--REDEF    1610--REDEF    1613--REDEF    1616--REDEF    1619--REDEF
S_D.L$.VALUE.L
      1597**DCL      1598--REDEF    1599--REDEF
S_D.L6_MESSAGE_BUF
      2450**DCL      2452--REDEF
S_D.OUTPUT
      2416**DCL      2418--REDEF
S_D.REMOTE_MSG.FNCC
      2435**DCL      2436--REDEF
S_D.REMOTE_MSG.STXC
      2431**DCL      2432--REDEF
S_D.REMOTE_MSG.SUBFNCC
      2439**DCL      2440--REDEF
PL6.E3A0      #001=DXA$SSF File=DXA$SSF.:E05TSI                                  TUE 07/29/97 15:08 Page:9
S_D.SV
      1495**DCL      1516--REDEF
S_D.USS$
      1455**DCL      3329>>IF
S_D$
      2747**DCL      1443--IMP-PTR  3329>>IF       3332>>ASSIGN
PL6.E3A0      #001=DXA$SSF File=DXA$SSF.:E05TSI                                  TUE 07/29/97 15:08 Page:10
              *** CROSS REFERENCE LISTING ***
    **     DENOTES     IDENTIFIER DEFINITION
    <<                 IDENTIFIER'S VALUE SET
    >>                 IDENTIFIER'S VALUE USED
    <>                 IDENTIFIER SET AND/OR USED
    --                 IDENTIFIER REFERENCED
PL6.E3A0      #001=DXA$SSF File=DXA$SSF.:E05TSI                                  TUE 07/29/97 15:08 Page:11
              MINI UREF LISTING

DXA$SSF      13**PROC
