VERSION E05

PL6.E3A0      #001=DXA$VERIFY_APT File=DXA$VER_APT.:E05TSI                       TUE 07/29/97 15:09 Page:1
        1        1        /*M* DXA$VER_APT . */
        2        2        /*T***********************************************************/
        3        3        /*T*                                                         */
        4        4        /*T* Copyright (c) Bull HN Information Systems Inc., 1997    */
        5        5        /*T*                                                         */
        6        6        /*T***********************************************************/
        7        7        /*X* DMR,PLM=5,IND=5,CSU=3,EXM=0,ECU=3,MOC,DCI=5,CRT=5 */
        8        8        /*D* NAME:  DXA$VERIFY_APT
        9        9             CALL:  CALL DXA$VERIFY_APT(APT) ALTRET(BAD_APT)
       10       10             INPUT:  APT IS THE ADDRESS OF THE PAGE TABLE
       11       11             DESCRIPTION:  WORD 0 OF ANY WORKING SPACE QUARTER (EXCEPT WSQ0)
       12       12                           CONTAINS THE PAGE TABLE.  BASED ON THIS FACT, A
       13       13                           CHECK IS MADE...COMPARING THE APT SUPPLIED
       14       14                           BY THE USER, WITH THE 0'TH ENTRY OF THE PAGE
       15       15                           TABLE.  IF THEY ARE NOT EQUAL, THE ALTERNATE
       16       16                           RETURN IS TAKEN.
       17       17             */
       18       18        DXA$VERIFY_APT: PROC(APT) ALTRET;
       19       19    1   DCL REALX$ PTR SYMREF;
       20       20        %INCLUDE B$MAP;
       21      119        %INCLUDE XUH_MACRO_C;
       22      203        %INCLUDE DD_SD_M;
       23     1539        %S_D;
       24     2857    1   DCL DLS$ PTR SYMREF;
       25     2858    1   DCL IPHY$ PTR SYMREF;
       26     2859    1   DCL VALUE UBIN;
       27     2860    1   DCL UBIN36(0:0) UBIN BASED;
       28     2861    1   DCL UBIN18(0:0) UBIN(18) UNAL BASED;
       29     2862    1   DCL APT SBIN;
       30     2863        %SUB REALXB_OFF=31 /*REALXB_OFF*/;
       31     2864                                 /* CREATE REAL DESCRIPTOR FRAMING THE SEGMENT WITHIN
       32     2865                                 WHICH THE PAGE TABLE RESIDES */
       33     2866    1        IF S_D.HW_WSQ0PT THEN
       34     2867    1             DLS$->UBIN36(REALXB_OFF)=IPHY$->UBIN18(APT/(1024/S_D.HW_PTB_UNITS))*4096;
       35     2868    1        ELSE
       36     2869    1             DLS$ -> UBIN36(REALXB_OFF) = (APT/(1024/S_D.HW_PTB_UNITS)) * 4096;
       37     2870                                                /* COMPUTE OFFSET FROM DESCRIPTOR */
PL6.E3A0      #001=DXA$VERIFY_APT File=DXA$VER_APT.:E05TSI                       TUE 07/29/97 15:09 Page:2
       38     2871                                           /* POINTER TO ZEROTH ENTRY IN PAGE TABLE */
       39     2872    1        VALUE = REALX$ -> B$MAP.RPN(0);
       40     2873    1        DLS$ -> UBIN36(REALXB_OFF) = 0;    /* RESTORE REALX DESCRIPTOR BASE TO 0 */
       41     2874    1        IF APT/(1024/S_D.HW_PTB_UNITS)=VALUE
       42     2875    1        THEN RETURN;                       /*  GOOD APT SUPPLIED */
       43     2876    1        ELSE ALTRETURN;
       44     2877    1   END DXA$VERIFY_APT;

PL6.E3A0      #001=DXA$VERIFY_APT File=DXA$VER_APT.:E05TSI                       TUE 07/29/97 15:09 Page:3
--  Include file information  --

   DD_SD_M.:E05TOU  is referenced.
   XUH_MACRO_C.:E05TOU  is referenced.
   B$MAP.:E05TOU  cannot be made into a system file and is referenced.
   B$JIT_C.:E05TOU  was found in the system file and is never referenced.
   CP_6_C.:E05TOU  was found in the system file and is never referenced.
      No diagnostics issued in procedure DXA$VERIFY_APT.

   Procedure DXA$VERIFY_APT requires 50 words for executable code.
   Procedure DXA$VERIFY_APT requires 8 words of local(AUTO) storage.

    No errors detected in file DXA$VER_APT.:E05TSI    .

PL6.E3A0      #001=DXA$VERIFY_APT File=DXA$VER_APT.:E05TSI                       TUE 07/29/97 15:09 Page:4

 Object Unit name= DXA$VERIFY_APT                             File name= DXA$VER_APT.:E05TOU
 UTS= JUL 29 '97 15:09:09.76 TUE                              Compiler= PL-6/E31         Sev=      00
 SharedLib= :SHARED_SYSTEM                                    Alt SharedLib=


    ****  Control sections  ****

 Sect   Type Bound  Init  Size OctSiz  Section name(segment info)
    0   Proc  even  none    50     62  DXA$VERIFY_APT

    ****  Entry defs  ****

                              Check   Calling
                             calling  sequence
  Sect OctLoc Primary Altret sequence   type   Parms  Name
     0      0   yes    yes     yes      Std        1  DXA$VERIFY_APT

  ****  Entry refs  ****

         Check        Calling
        calling       sequence
Altret sequence SRef   type   Args  Name
                       nStd      0 X66_AUTO_1
                       nStd      0 X66_ARET
                       nStd      0 X66_AALT

  ****  Data refs  ****

  Flags:  r = read only, s = secondary
Flgs Name                             Flgs Name                             Flgs Name
     REALX$                           r    S_D$                                  DLS$
     IPHY$
PL6.E3A0      #001=DXA$VERIFY_APT File=DXA$VER_APT.:E05TSI                       TUE 07/29/97 15:09 Page:5


        1        1        /*M* DXA$VER_APT . */
        2        2        /*T***********************************************************/
        3        3        /*T*                                                         */
        4        4        /*T* Copyright (c) Bull HN Information Systems Inc., 1997    */
        5        5        /*T*                                                         */
        6        6        /*T***********************************************************/
        7        7        /*X* DMR,PLM=5,IND=5,CSU=3,EXM=0,ECU=3,MOC,DCI=5,CRT=5 */
        8        8        /*D* NAME:  DXA$VERIFY_APT
        9        9             CALL:  CALL DXA$VERIFY_APT(APT) ALTRET(BAD_APT)
       10       10             INPUT:  APT IS THE ADDRESS OF THE PAGE TABLE
       11       11             DESCRIPTION:  WORD 0 OF ANY WORKING SPACE QUARTER (EXCEPT WSQ0)
       12       12                           CONTAINS THE PAGE TABLE.  BASED ON THIS FACT, A
       13       13                           CHECK IS MADE...COMPARING THE APT SUPPLIED
       14       14                           BY THE USER, WITH THE 0'TH ENTRY OF THE PAGE
       15       15                           TABLE.  IF THEY ARE NOT EQUAL, THE ALTERNATE
       16       16                           RETURN IS TAKEN.
       17       17             */
       18       18        DXA$VERIFY_APT: PROC(APT) ALTRET;

     18  0 000000   000000 700200 xent  DXA$VERIFY_* TSX0  ! X66_AUTO_1
         0 000001   000010 000001                    ZERO    8,1

       19       19    1   DCL REALX$ PTR SYMREF;
       20       20        %INCLUDE B$MAP;
       21      119        %INCLUDE XUH_MACRO_C;
       22      203        %INCLUDE DD_SD_M;
       23     1539        %S_D;
       24     2857    1   DCL DLS$ PTR SYMREF;
       25     2858    1   DCL IPHY$ PTR SYMREF;
       26     2859    1   DCL VALUE UBIN;
       27     2860    1   DCL UBIN36(0:0) UBIN BASED;
       28     2861    1   DCL UBIN18(0:0) UBIN(18) UNAL BASED;
       29     2862    1   DCL APT SBIN;
       30     2863        %SUB REALXB_OFF=31 /*REALXB_OFF*/;
       31     2864                                 /* CREATE REAL DESCRIPTOR FRAMING THE SEGMENT WITHIN
       32     2865                                 WHICH THE PAGE TABLE RESIDES */
PL6.E3A0      #001=DXA$VERIFY_APT File=DXA$VER_APT.:E05TSI                       TUE 07/29/97 15:09 Page:6
       33     2866    1        IF S_D.HW_WSQ0PT THEN

   2866  0 000002   000000 470400 xsym               LDP0    S_D$
         0 000003   007104 234100                    SZN     3652,,PR0
         0 000004   000030 605000 0                  TPL     s:2869

       34     2867    1             DLS$->UBIN36(REALXB_OFF)=IPHY$->UBIN18(APT/(1024/S_D.HW_PTB_UNITS))*4096;

   2867  0 000005   002000 236007                    LDQ     1024,DL
         0 000006   007103 506100                    DIV     3651,,PR0
         0 000007   200006 756100                    STQ     VALUE+2,,AUTO
         0 000010   200003 471500                    LDP1    @APT,,AUTO
         0 000011   100000 236100                    LDQ     0,,PR1
         0 000012   200006 506100                    DIV     VALUE+2,,AUTO
         0 000013   000022 402007                    MPY     18,DL
         0 000014   000000 116003                    CMPQ    0,DU
         0 000015   000017 605000 0                  TPL     s:2867+10
         0 000016   000044 036003                    ADLQ    36,DU
         0 000017   000000 473400 xsym               LDP3    IPHY$
         0 000020   003100 061506                    CSR     bolr='003'O
         0 000021   300000 000022                    BDSC    0,Q,PR3                  by=0,bit=0,n=18
         0 000022   200007 000044                    BDSC    VALUE+3,,AUTO            by=0,bit=0,n=36
         0 000023   200007 236100                    LDQ     VALUE+3,,AUTO
         0 000024   000014 736000                    QLS     12
         0 000025   000000 474400 xsym               LDP4    DLS$
         0 000026   400037 756100                    STQ     31,,PR4
         0 000027   000041 710000 0                  TRA     s:2872

       35     2868    1        ELSE
       36     2869    1             DLS$ -> UBIN36(REALXB_OFF) = (APT/(1024/S_D.HW_PTB_UNITS)) * 4096;

   2869  0 000030   002000 236007                    LDQ     1024,DL
         0 000031   007103 506100                    DIV     3651,,PR0
         0 000032   200006 756100                    STQ     VALUE+2,,AUTO
         0 000033   200003 471500                    LDP1    @APT,,AUTO
         0 000034   100000 236100                    LDQ     0,,PR1
         0 000035   200006 506100                    DIV     VALUE+2,,AUTO
PL6.E3A0      #001=DXA$VERIFY_APT File=DXA$VER_APT.:E05TSI                       TUE 07/29/97 15:09 Page:7
         0 000036   000014 736000                    QLS     12
         0 000037   000000 473400 xsym               LDP3    DLS$
         0 000040   300037 756100                    STQ     31,,PR3

       37     2870                                                /* COMPUTE OFFSET FROM DESCRIPTOR */
       38     2871                                           /* POINTER TO ZEROTH ENTRY IN PAGE TABLE */
       39     2872    1        VALUE = REALX$ -> B$MAP.RPN(0);

   2872  0 000041   000000 473400 xsym               LDP3    REALX$
         0 000042   300000 236100                    LDQ     0,,PR3
         0 000043   000022 772000                    QRL     18
         0 000044   200004 756100                    STQ     VALUE,,AUTO

       40     2873    1        DLS$ -> UBIN36(REALXB_OFF) = 0;    /* RESTORE REALX DESCRIPTOR BASE TO 0 */

   2873  0 000045   000000 474400 xsym               LDP4    DLS$
         0 000046   400037 450100                    STZ     31,,PR4

       41     2874    1        IF APT/(1024/S_D.HW_PTB_UNITS)=VALUE

   2874  0 000047   002000 236007                    LDQ     1024,DL
         0 000050   007103 506100                    DIV     3651,,PR0
         0 000051   200006 756100                    STQ     VALUE+2,,AUTO
         0 000052   100000 236100                    LDQ     0,,PR1
         0 000053   200006 506100                    DIV     VALUE+2,,AUTO
         0 000054   000000 116003                    CMPQ    0,DU
         0 000055   000061 604000 0                  TMI     s:2876
         0 000056   200004 116100                    CMPQ    VALUE,,AUTO
         0 000057   000061 601000 0                  TNZ     s:2876

       42     2875    1        THEN RETURN;                       /*  GOOD APT SUPPLIED */

   2875  0 000060   000000 702200 xent               TSX2  ! X66_ARET

       43     2876    1        ELSE ALTRETURN;

   2876  0 000061   000000 702200 xent               TSX2  ! X66_AALT
PL6.E3A0      #001=DXA$VERIFY_APT File=DXA$VER_APT.:E05TSI                       TUE 07/29/97 15:09 Page:8
       44     2877    1   END DXA$VERIFY_APT;

PL6.E3A0      #001=DXA$VERIFY_APT File=DXA$VER_APT.:E05TSI                       TUE 07/29/97 15:09 Page:9
--  Include file information  --

   DD_SD_M.:E05TOU  is referenced.
   XUH_MACRO_C.:E05TOU  is referenced.
   B$MAP.:E05TOU  cannot be made into a system file and is referenced.
   B$JIT_C.:E05TOU  was found in the system file and is never referenced.
   CP_6_C.:E05TOU  was found in the system file and is never referenced.
      No diagnostics issued in procedure DXA$VERIFY_APT.

   Procedure DXA$VERIFY_APT requires 50 words for executable code.
   Procedure DXA$VERIFY_APT requires 8 words of local(AUTO) storage.

    No errors detected in file DXA$VER_APT.:E05TSI    .
PL6.E3A0      #001=DXA$VERIFY_APT File=DXA$VER_APT.:E05TSI                       TUE 07/29/97 15:09 Page:10
          *** CROSS REFERENCE LISTING ***
**     DENOTES     IDENTIFIER DEFINITION
<<                 IDENTIFIER'S VALUE SET
>>                 IDENTIFIER'S VALUE USED
<>                 IDENTIFIER SET AND/OR USED
--                 IDENTIFIER REFERENCED
PL6.E3A0      #001=DXA$VERIFY_APT File=DXA$VER_APT.:E05TSI                       TUE 07/29/97 15:09 Page:11
          MINI XREF LISTING

APT
      2862**DCL        18--PROC     2867>>ASSIGN   2869>>ASSIGN   2874>>IF
B$MAP.RPN
        62**DCL      2872>>ASSIGN
B$MAP.SCTRL
        63**DCL        64--REDEF
DLS$
      2857**DCL      2867>>ASSIGN   2869>>ASSIGN   2873>>ASSIGN
IPHY$
      2858**DCL      2867>>ASSIGN
REALX$
        19**DCL      2872>>ASSIGN
S_D.CURRENT_CHANNEL
      2491**DCL      2493--REDEF
S_D.DEBUGA
      1643**DCL      1645--REDEF
S_D.EIS
      2601**DCL      2630--REDEF
S_D.HOST_MESSAGE_BUF_REMOTE
      2534**DCL      2535--REDEF    2549--REDEF
S_D.HW_PTB_UNITS
      2778**DCL      2867>>ASSIGN   2869>>ASSIGN   2874>>IF
S_D.HW_WSQ0PT
      2780**DCL      2866>>IF
S_D.JDE
      2148**DCL      2149--REDEF
S_D.L$.VALUE
      1701**DCL      1707--REDEF    1715--REDEF    1718--REDEF    1721--REDEF    1724--REDEF
S_D.L$.VALUE.L
      1702**DCL      1703--REDEF    1704--REDEF
S_D.L6_MESSAGE_BUF
      2555**DCL      2557--REDEF
PL6.E3A0      #001=DXA$VERIFY_APT File=DXA$VER_APT.:E05TSI                       TUE 07/29/97 15:09 Page:12
S_D.OUTPUT
      2521**DCL      2523--REDEF
S_D.REMOTE_MSG.FNCC
      2540**DCL      2541--REDEF
S_D.REMOTE_MSG.STXC
      2536**DCL      2537--REDEF
S_D.REMOTE_MSG.SUBFNCC
      2544**DCL      2545--REDEF
S_D.SV
      1600**DCL      1621--REDEF
S_D$
      2852**DCL      1548--IMP-PTR  2866>>IF       2867>>ASSIGN   2869>>ASSIGN   2874>>IF
UBIN18
      2861**DCL      2867>>ASSIGN
UBIN36
      2860**DCL      2867<<ASSIGN   2869<<ASSIGN   2873<<ASSIGN
VALUE
      2859**DCL      2872<<ASSIGN   2874>>IF
PL6.E3A0      #001=DXA$VERIFY_APT File=DXA$VER_APT.:E05TSI                       TUE 07/29/97 15:09 Page:13
              *** CROSS REFERENCE LISTING ***
    **     DENOTES     IDENTIFIER DEFINITION
    <<                 IDENTIFIER'S VALUE SET
    >>                 IDENTIFIER'S VALUE USED
    <>                 IDENTIFIER SET AND/OR USED
    --                 IDENTIFIER REFERENCED
PL6.E3A0      #001=DXA$VERIFY_APT File=DXA$VER_APT.:E05TSI                       TUE 07/29/97 15:09 Page:14
              MINI UREF LISTING

B$PAGE     112**DCL
B$SECT     102**DCL
DXA$VERIFY_APT      18**PROC
MM$IPHY_MAP     117**DCL
