VERSION E05

 15:09 07/29/97  FILE=DXB$LSEG.:E05TSI                                                                   1    BMAP - B00
                                         1  *M*   DXB$LSEG
                                         2  *T***********************************************************
                                         3  *T*                                                         *
                                         4  *T* Copyright (c) Bull HN Information Systems Inc., 1997    *
                                         5  *T*                                                         *
                                         6  *T***********************************************************
                                         7  *
                                         8  *P*   NAME:  DXB$LSEG
                                         9  *P*   PURPOSE:  TO DEFINE XDELTA'S LINKAGE SEGMENT.
                                        10  *D*      NAME: DXB$LEG
                                        11  *
                                        12           ENTDEF   DXB$LSEG
                                        13  *
                                        14  DESC     MACRO
                                        15           INE      #2,0,1
                                        16           VFD      O18/#2,O2/3,O12/#4+#5,O4/#3
                                        17           IFE      #2,0,1
                                        18           VFD      20/0,O12/#4+#5,O4/#3
                                        19           VFD      O34/#1,O2/0
                                        20           ENDM     DESC
                                        21  *
                                        22           LODM     B_BMACROS_C
                                        23           PMC      ON
                                        24           TJIT7
             000000000366                   J.SIZE EQU 246
             000000000366                   J.TSTK EQU 246
             000000003412                   J.TSSZ EQU 2048-J.SIZE
                                        25           HJIT
             000000000000                   HJ.MLS EQU 0               MONITOR LINKAGE SEGMENT
             000000000000                   HJ.ULS EQU 0               USER LINKAGE SEGMENT
             000000000110                   HJ.DLS EQU HJ.ULS+72       DEBUGGER LINKAGE SEGMENT
             000000000220                   HJ.ALS EQU HJ.DLS+72       ALT SHARED LIB LINKAGE SEGMENT
             000000000330                   HJ.CLS EQU HJ.ALS+72       COMMAND PROCESSOR LINKAGE SEGMENT
             000000000440                   HJ.SDS EQU HJ.CLS+72       SPECIAL DESC STORAGE
             000000000460                   HJ.SSS EQU HJ.SDS+16       SAFE STORE STACK
             000000001120                   HJ.SSSSZ EQU 592             SIZE OF SAFE STORE STACK
             000000003120                   HJ.SSSSZM EQU HJ.SSSSZ+1024   MON SAFE STORE IS 1 PAGE BIGGER
 15:09 07/29/97  FILE=DXB$LSEG.:E05TSI                                                                   2    BMAP - B00
             000000001600                   HJ.AS EQU HJ.SSS+HJ.SSSSZ    ARGUMENT STACK
             000000003600                   HJ.ASM EQU HJ.SSS+HJ.SSSSZM    ARGUMENT STACK(MON)
             000000000200                   HJ.ASSZ EQU 128             SIZE OF ARGUMENT STACK
                                        26           VPAGES
             000000000000                   V.PGTBL EQU 0               PAGE TABLE
             000000000001                   V.CGPGTBLLO EQU 1
             000000000012                   V.PGTBLHI EQU 10              LAST CGQ PAGE TABLE
             000000000013                   V.JIT EQU 11              JIT
             000000000015                   V.HJIT EQU 13              HJIT
             000000000610                   V.MTD EQU 392             MONITOR TIGR DATA
             000000000057                   V.ROS EQU 47              GHOST1 ROSEG (PGTBL)
             000000000500                   V.REAL EQU 320             LOW REAL MAPPED INTO PHY PAGES 0-7
             000000000100                   V.ISR EQU 64              INSTRUCTION SEGMENT
             000000000510                   V.PPUT EQU 328             MM_PPUT GOES HERE
             000000000077                   V.SEGTBL EQU 63              VIRTUAL PAGE FOR MON SEGMENT TABLE
                                        27           PMC      OFF
                                        28  * THE FOLLOWING SYMBOLS ARE USED FOR READABILITY ONLY.  USAGE
                                        29  * INDICATES THAT THE FIELDS ARE TO BE FILLED IN BY AARDVARK OR
                                        30  * XDELTA'S INITIALIZATION CODE.
             000000000000               31  ISSTART  EQU      0
             000000000001               32  ISBND    EQU      1
             000000000000               33  AUTOSTART EQU     0
             000000000001               34  AUTOBND  EQU      1
             000000000000               35  DXC$FAULTENT EQU 0
             000000000000               36  DXC$PATCHENT EQU 0
                                        37  * END OF FUNNY SYMBOL SET
                                        38  *
             000000000211               39  LSBND    EQU      LSEND-LSSTART-1
             000000000520               40  SSBND    EQU      SSEND-SSSTART
                                        41  *
             000000000000               42  TYPE0    BOOL     0
             000000000001               43  TYPE1    BOOL     1
             000000000002               44  TYPE2    BOOL     2
             000000000003               45  TYPE3    BOOL     3
             000000000030               46  WSR0     BOOL     30
             000000000032               47  WSR2     BOOL     32
             000000000037               48  WSR7     BOOL     37
 15:09 07/29/97  FILE=DXB$LSEG.:E05TSI                                                                   3    BMAP - B00
             000000000000               49  REALWSQ  BOOL     0
             000000000001               50  MONWSQ   BOOL     1
             000000000002               51  XDELWSQ  BOOL     2
             000000005000               52  R        BOOL     5000
             000000007000               53  RW       BOOL     7000
             000000007570               54  RWEP     BOOL     7570            READ, WRITE, EXECUTE, PRIV, CACHE
             000000001010               55  NULL     BOOL     1010
                                        56  *
 0 000000                               57           USE      DXB$LSEG,0
                                        58  *
          (0)000000000000               59  DXB$LSEG EQU      *
                                        60  *
          (0)000000000000               61  LSSTART  EQU      *
                                        62  *
   000000    000001 3 7572 00           63           DESC     ISSTART,ISBND,TYPE0,RWEP,WSR2   ( 0) XDELTA ISR
   000001    000000000000 0
   000002    000211 3 7000 02           64           DESC     LSSTART,LSBND,TYPE2,RW,REALWSQ  ( 1) XDELTA LS
   000003 (0)000000000000 0
   000004    000520 0 7000 03           65           VFD      O18/SSBND,2/0,O12/RW+REALWSQ,4/TYPE3
   000005 (0)000000000240 0             66           VFD      34/FRAME2,2/0
                                        67  *                                                 ( 2) XDELTA SS
                                        68  *                                                      TYPE 1
   000006    000001 3 7032 00           69           DESC     AUTOSTART,AUTOBND,TYPE0,RW,WSR2 ( 3) XDELTA AUTO
   000007    000000000000 0
   000010    000001 3 7032 00           70           DESC     0,1,TYPE0,RW,WSR2               ( 4) ENTDEFS
   000011    000000000000 0
   000012    000001 3 5032 00           71           DESC     0,1,TYPE0,R,WSR2                ( 5) SYMDEFS
   000013    000000000000 0
   000014    000001 3 5032 00           72           DESC     0,1,TYPE0,R,WSR2                ( 6) DEF NAMES
   000015    000000000000 0
   000016    000001 3 5032 00           73           DESC     0,1,TYPE0,R,WSR2                ( 7) SCHEMA DIRECTORY
   000017    000000000000 0
   000020    0002277 7030 00            74           VFD      20/HJ.SSS*4-1,12/RW+WSR0,04/TYPE0
   000021    0000 00032000 0            75           VFD      10/0,24/V.HJIT*1024,2/0
                                        76                                                    ( 8) MON LS
   000022    0002277 7030 01            77           VFD      20/HJ.SSS*4-1,12/RW+WSR0,04/TYPE1
   000023    0000 00032000 0            78           VFD      10/0,24/V.HJIT*1024,2/0
 15:09 07/29/97  FILE=DXB$LSEG.:E05TSI                                                                   4    BMAP - B00
                                        79                                                    ( 9) MON LS
   000024    7777777 7001 02            80           VFD      20/-1,12/RW+MONWSQ,04/TYPE2
   000025    0000 00200000 0            81           VFD      10/0,24/V.ISR*1024,2/0
                                        82                                                    (10) MON IS
   000026    0000000 0000 00            83           DESC     0,0,0,0,0                       (11) MON SSR
   000027    000000000000 0
                                        84  *                                                      TYPE 1
   000030    0000000 1032 00            85           DESC     0,0,TYPE0,NULL,WSR2             (12) NULL
   000031    000000000000 0
   000032    0000000 0000 00            86           DESC     0,0,0,0,0                       (13) MINIQ ISR
   000033    000000000000 0
   000034    777777 3 7000 02           87           DESC     0,777777,TYPE2,RW,REALWSQ       (14) REAL DESCRIPTOR FOR 256K.
   000035    000000000000 0
   000036    777777 3 7000 02           88           DESC     0,777777,TYPE2,RW,REALWSQ       (15) REAL SCRATCH
   000037    000000000000 0
   000040    777777 3 7002 02           89           DESC     0,777777,TYPE2,RW,XDELWSQ       (16) MAPPED 0-256K
   000041    000000000000 0
   000042    777777 3 7002 02           90           DESC     1000000,777777,TYPE2,RW,XDELWSQ (17) MAPPED 256-512K
   000043    000001000000 0
   000044    000000 0 0000 2 13         91           VFD      O18/DXC$FAULTENT,O1/0,O10/0,3/2,4/11
   000045    0212 (0)00000000 0         92           VFD      11/LSBND+1,023/LSSTART,O2/0
                                        93  *                                                 (18) FAULT ENTRY TO XDELTA
   000046    0000000 0000 00            94           DESC     0,0,0,0,0                       (19) XDELTA SS
   000047    000000000000 0
                                        95  *                                                      TYPE 0
   000050    0000000 0000 00            96           DESC     0,0,0,0,0                       (20) MON SSR
   000051    000000000000 0
                                        97  *                                                      TYPE 0
   000052    0000000 0000 00            98           DESC     0,0,0,0,0                       (21) SCRATCH 1
   000053    000000000000 0
   000054    0000000 0000 00            99           DESC     0,0,0,0,0                       (22) SCRATCH 2
   000055    000000000000 0
   000056    0000000 0000 00           100           DESC     0,0,0,0,0                       (23) SCRATCH 3
   000057    000000000000 0
   000060    0000000 0000 00           101           DESC     0,0,0,0,0                       (24) DR2 FROM CURRENT SS
   000061    000000000000 0
   000062    0001727 7037 00           102           VFD      20/J.SIZE*4-1,12/RW+WSR7,04/TYPE0
 15:09 07/29/97  FILE=DXB$LSEG.:E05TSI                                                                   5    BMAP - B00
   000063    0000 00026000 0           103           VFD      10/0,24/V.JIT*1024,2/0
                                       104                                                    (25) USER JIT
   000064    0007777 7037 00           105           VFD      20/1024*4-1,12/RW+WSR7,04/TYPE0
   000065    0000 00032000 0           106           VFD      10/0,24/V.HJIT*1024,2/0
                                       107                                                    (26) USER HJIT
   000066    000107 3 7037 01          108           VFD      18/HJ.DLS-HJ.ULS-1,02/3,12/RW+WSR7,04/TYPE1
   000067    0000 00032000 0           109           VFD      10/0,24/V.HJIT*1024,2/0
                                       110                                                    (27) USER LS
   000070    000107 3 7037 01          111           VFD      18/HJ.ALS-HJ.DLS-1,02/3,12/RW+WSR7,04/TYPE1
   000071    0000 00032110 0           112           VFD      10/0,24/V.HJIT*1024+HJ.DLS,2/0
                                       113                                                    (28) IDB LS
   000072    000107 3 7037 01          114           VFD      18/HJ.CLS-HJ.ALS-1,02/3,12/RW+WSR7,04/TYPE1
   000073    0000 00032220 0           115           VFD      10/0,24/V.HJIT*1024+HJ.ALS,2/0
                                       116                                                    (29) IDS LS
   000074    000107 3 7037 01          117           VFD      18/HJ.SDS-HJ.CLS-1,02/3,12/RW+WSR7,04/TYPE1
   000075    0000 00032330 0           118           VFD      10/0,24/V.HJIT*1024+HJ.CLS,2/0
                                       119                                                    (30) ICP LS
   000076    0000000 0000 00           120           DESC     0,0,0,0                         (31) ASR
   000077    000000000000 0
   000100    0000000 0000 00           121           DESC     0,0,0,0                         (32) PSR
   000101    000000000000 0
   000102    0000000 0000 00           122           DESC     0,0,0,0                         (33) USER ISR
   000103    000000000000 0
   000104    000017 3 7037 01          123           VFD      18/HJ.SSS-HJ.SDS-1,02/3,12/RW+WSR7,04/TYPE1
   000105    0000 00032440 0           124           VFD      10/0,24/V.HJIT*1024+HJ.SDS,2/0
                                       125                                                    (34) SPEC DESC STOR
   000106    0001727 7030 00           126           VFD      20/J.SIZE*4-1,12/RW+WSR0,04/TYPE0
   000107    0000 00026000 0           127           VFD      10/0,24/V.JIT*1024,2/0
                                       128                                                    (35) MON JIT
   000110    0017777 7030 00           129           VFD      20/2048*4-1,12/RW+WSR0,04/TYPE0
   000111    0000 00032000 0           130           VFD      10/0,24/V.HJIT*1024,2/0
                                       131                                                    (36) MON HJIT
   000112    0000000 0000 00           132           DESC     0,0,0,0                         (37) ISR FROM SS
   000113    000000000000 0
   000114    000001 3 5032 00          133           DESC     0,1,TYPE0,R,WSR2           (38) SCHEMA DATA 1
   000115    000000000000 0
   000116    000001 3 5032 00          134           DESC     0,1,TYPE0,R,WSR2           (39) SCHEMA DATA 2
 15:09 07/29/97  FILE=DXB$LSEG.:E05TSI                                                                   6    BMAP - B00
   000117    000000000000 0
   000120    000001 3 5032 00          135           DESC     0,1,TYPE0,R,WSR2           (40) SCHEMA DATA 3
   000121    000000000000 0
   000122    000001 3 5032 00          136           DESC     0,1,TYPE0,R,WSR2           (41) SCHEMA DATA 4
   000123    000000000000 0
   000124    000001 3 5032 00          137           DESC     0,1,TYPE0,R,WSR2           (42) SCHEMA DATA 5
   000125    000000000000 0
   000126    000001 3 5032 00          138           DESC     0,1,TYPE0,R,WSR2           (43) SCHEMA DATA 6
   000127    000000000000 0
   000130    000001 3 5032 00          139           DESC     0,1,TYPE0,R,WSR2           (44) SCHEMA DATA 7
   000131    000000000000 0
   000132    000001 3 5032 00          140           DESC     0,1,TYPE0,R,WSR2           (45) SCHEMA DATA 8
   000133    000000000000 0
   000134    000001 3 5032 00          141           DESC     0,1,TYPE0,R,WSR2           (46) SCHEMA DATA 9
   000135    000000000000 0
   000136    000001 3 5032 00          142           DESC     0,1,TYPE0,R,WSR2           (47) SCHEMA DATA 10
   000137    000000000000 0
   000140    000001 3 5032 00          143           DESC     0,1,TYPE0,R,WSR2           (48) SCHEMA DATA 11
   000141    000000000000 0
   000142    000001 3 5032 00          144           DESC     0,1,TYPE0,R,WSR2           (49) SCHEMA DATA 12
   000143    000000000000 0
   000144    000001 3 7032 00          145           DESC     0,1,TYPE0,RW,WSR2          (50) ALT ENTDEFS
   000145    000000000000 0
   000146    000001 3 5032 00          146           DESC     0,1,TYPE0,R,WSR2           (51) ALT SYMDEFS
   000147    000000000000 0
   000150    000001 3 5032 00          147           DESC     0,1,TYPE0,R,WSR2           (52) ALT DEFNAMES
   000151    000000000000 0
   000152    000001 3 5032 00          148           DESC     0,1,TYPE0,R,WSR2           (53) ALT SCHEMA HEADERS
   000153    000000000000 0
   000154    000001 3 5032 00          149           DESC     0,1,TYPE0,R,WSR2           (54) ALT SCHEMA DATA
   000155    000000000000 0
   000156    000001 3 5032 00          150           DESC     0,1,TYPE0,R,WSR2           (55) ALT SCHEMA DATA
   000157    000000000000 0
   000160    000001 3 5032 00          151           DESC     0,1,TYPE0,R,WSR2           (56) ALT SCHEMA DATA
   000161    000000000000 0
   000162    000001 3 5032 00          152           DESC     0,1,TYPE0,R,WSR2           (57) ALT SCHEMA DATA
   000163    000000000000 0
 15:09 07/29/97  FILE=DXB$LSEG.:E05TSI                                                                   7    BMAP - B00
   000164    000001 3 5032 00          153           DESC     0,1,TYPE0,R,WSR2           (58) ALT SCHEMA DATA
   000165    000000000000 0
   000166    000001 3 5032 00          154           DESC     0,1,TYPE0,R,WSR2           (59) ALT SCHEMA DATA
   000167    000000000000 0
   000170    000001 3 5032 00          155           DESC     0,1,TYPE0,R,WSR2           (60) ALT SCHEMA DATA
   000171    000000000000 0
   000172    000001 3 5032 00          156           DESC     0,1,TYPE0,R,WSR2           (61) ALT SCHEMA DATA
   000173    000000000000 0
   000174    000001 3 5032 00          157           DESC     0,1,TYPE0,R,WSR2           (62) ALT SCHEMA DATA
   000175    000000000000 0
   000176    000001 3 5032 00          158           DESC     0,1,TYPE0,R,WSR2           (63) ALT SCHEMA DATA
   000177    000000000000 0
   000200    000001 3 5032 00          159           DESC     0,1,TYPE0,R,WSR2           (64) ALT SCHEMA DATA
   000201    000000000000 0
   000202    000001 3 5032 00          160           DESC     0,1,TYPE0,R,WSR2           (65) ALT SCHEMA DATA
   000203    000000000000 0
   000204    000001 3 5032 00          161           DESC     0,1,TYPE0,R,WSR2           (66) MON OVERLAY SEG TBL
   000205    000000000000 0
   000206    000001 3 5032 00          162           DESC     0,1,TYPE0,R,WSR2           (67) MON NODE INFO TBL
   000207    000000000000 0
   000210    0000000 5032 00           163           DESC     0,0,TYPE0,R,WSR2           (68) IPHY MAP FOR DPS90
   000211    000000000000 0
          (0)000000000212              164  LSEND    EQU      *
                                       165  * BEGIN XDELTA SAFE-STORE STACK
                                       166  *
   000212    000006 7100 04            167           EIGHT
   000220
          (0)000000000220              168  SSSTART  EQU      *
                                       169  * FRAME ONE(UNDERFLOW FRAME) OF XDELTA'S SAFE STORE
                                       170  *
   000220    000000000000              171           DEC      0,0,0,0
   000221    000000000000
   000222    000000000000
   000223    000000000000
   000224    000000 00004 00           172           VFD      O18/0,O13/4,O5/0                IC, MASTER MODE
   000225    000000006000              173           OCT      6000                            SEGID OF IS
   000226    000000000000              174           OCT      0                               EWSQ
 15:09 07/29/97  FILE=DXB$LSEG.:E05TSI                                                                   8    BMAP - B00
   000227    000000000000              175           DEC      0
   000230    0000000 7432 00           176           DESC     0,0,TYPE0,7430,WSR2             ISR - NO EXECUTE
   000231    000000000000 0
   000232    0000000 1012 01           177           DESC     0,0,TYPE1,NULL,2                ASR
   000233    000000000000 0
   000234    0000000 5432 01           178           DESC     0,0,TYPE1,5430,WSR2             LSR
   000235    000000000000 0
   000236    0000000 1012 01           179           DESC     0,0,TYPE1,NULL,2                PSR
   000237    000000000000 0
                                       180  *
                                       181  * FRAME TWO OF XDELTA'S SAFE STORE.  AARDVARK WILL RET TO XDELTA
                                       182  * THROUGH THIS FRAME.
          (0)000000000240              183  FRAME2   EQU      *
   000240    000000000000              184           DEC      0,0,0,0
   000241    000000000000
   000242    000000000000
   000243    000000000000
   000244    000000 00004 00           185           VFD      O18/DXC$PATCHENT,O13/4,O5/0     IC, MASTER MODE
   000245    000000036000              186           OCT       36000                    SCR, SEGID OF IS
   000246    000000000000              187           OCT      0                               EWSQ
   000247    000000000000              188           DEC      0
   000250    000001 3 7572 00          189           DESC     ISSTART,ISBND,TYPE0,RWEP,WSR2   ISR
   000251    000000000000 0
   000252    0000000 1012 01           190           DESC     0,0,TYPE1,NULL,2                ASR
   000253    000000000000 0
   000254    000211 3 5432 01          191           DESC     LSSTART,LSBND,TYPE1,5430,WSR2   LSR
   000255 (0)000000000000 0
   000256    0000000 1012 01           192           DESC     0,0,TYPE1,NULL,2                PSR
   000257    000000000000 0
                                       193  *SEGIDS
                                       194  *
   000260    000000006014              195           OCT      6014
   000261    000000006014              196           OCT      6014
   000262    000000006014              197           OCT      6014
   000263    000000006014              198           OCT      6014
   000264    000000006014              199           OCT      6014
   000265    000000006014              200           OCT      6014
 15:09 07/29/97  FILE=DXB$LSEG.:E05TSI                                                                   9    BMAP - B00
   000266    000000006014              201           OCT      6014
   000267    000000006014              202           OCT      6014
                                       203  *DESCRIPTORS
   000270    0000000 1012 01           204           DESC     0,0,TYPE1,NULL,2
   000271    000000000000 0
   000272    0000000 1012 01           205           DESC     0,0,TYPE1,NULL,2
   000273    000000000000 0
   000274    0000000 1012 01           206           DESC     0,0,TYPE1,NULL,2
   000275    000000000000 0
   000276    0000000 1012 01           207           DESC     0,0,TYPE1,NULL,2
   000277    000000000000 0
   000300    0000000 1012 01           208           DESC     0,0,TYPE1,NULL,2
   000301    000000000000 0
   000302    0000000 1012 01           209           DESC     0,0,TYPE1,NULL,2
   000303    000000000000 0
   000304    0000000 1012 01           210           DESC     0,0,TYPE1,NULL,2
   000305    000000000000 0
   000306    0000000 1012 01           211           DESC     0,0,TYPE1,NULL,2
   000307    000000000000 0
                                       212  *
   000310    000000000000              213           OCT      0,0,0,0                          INDEX REGISTER
   000311    000000000000
   000312    000000000000
   000313    000000000000
   000314    000000000000              214           OCT      0                                A REGISTER
   000315    000000000000              215           OCT      0                                Q REGISTER
                                       216  * 18 WORDS TO FILL OUT 64 WORD FRME
   000316    000000000000              217           DEC      0,0,0,0,0,0,0,0,0
   000317    000000000000
   000320    000000000000
   000321    000000000000
   000322    000000000000
   000323    000000000000
   000324    000000000000
   000325    000000000000
   000326    000000000000
   000327    000000000000              218           DEC      0,0,0,0,0,0,0,0,0
 15:09 07/29/97  FILE=DXB$LSEG.:E05TSI                                                                   10   BMAP - B00
   000330    000000000000
   000331    000000000000
   000332    000000000000
   000333    000000000000
   000334    000000000000
   000335    000000000000
   000336    000000000000
   000337    000000000000
          (0)000000000340              219  FRAME2END EQU     *
                                       220  *
   000340                              221           BSS      256
          (0)000000000740              222  SSEND    EQU      *
                                       223  *
                                       224           END

  CONTROL SECTION TABLE

   0 DATA   EIGHT 000740 DXB$LSEG
   1 RODATA EVEN  000000 LITERALS

 15:09 07/29/97  FILE=DXB$LSEG.:E05TSI        SYMBOL TABLE                                               11   BMAP - B00
 41000000 000000000001 AUTOBND        *34        69
 41000000 000000000000 AUTOSTART      *33        69
 52101000 000000000000 DXB$LSEG        12       *59
 41000000 000000000000 DXC$FAULTENT   *35        91
 41000000 000000000000 DXC$PATCHENT   *36       185
 41101000 000000000240 FRAME2          66      *183
 40101000 000000000340 FRAME2END     *219
 41000000 000000000220 HJ.ALS         *25       111       114       115
 40000000 000000001600 HJ.AS          *25
 40000000 000000003600 HJ.ASM         *25
 40000000 000000000200 HJ.ASSZ        *25
 41000000 000000000330 HJ.CLS         *25       114       117       118
 41000000 000000000110 HJ.DLS         *25       108       111       112
 40000000 000000000000 HJ.MLS         *25
 41000000 000000000440 HJ.SDS         *25       117       123       124
 41000000 000000000460 HJ.SSS         *25        74        77       123
 41000000 000000001120 HJ.SSSSZ       *25
 41000000 000000003120 HJ.SSSSZM      *25
 41000000 000000000000 HJ.ULS         *25       108
 41000000 000000000001 ISBND          *32        63       189
 41000000 000000000000 ISSTART        *31        63       189
 41000000 000000000366 J.SIZE         *24       102       126
 40000000 000000003412 J.TSSZ         *24
 40000000 000000000366 J.TSTK         *24
 41000000 000000000211 LSBND          *39        64        92       191
 41101000 000000000212 LSEND           39      *164
 41101000 000000000000 LSSTART         39       *61        64        92       191
 41000000 000000000001 MONWSQ         *50        80
 41000000 000000001010 NULL           *55        85       177       179       190       192       204
                                      205       206       207       208       209       210       211
 41000000 000000005000 R              *52        71        72        73       133       134       135
                                      136       137       138       139       140       141       142
                                      143       144       146       147       148       149       150
                                      151       152       153       154       155       156       157
                                      158       159       160       161       162       163
 41000000 000000000000 REALWSQ        *49        64        65        87        88
 41000000 000000007000 RW             *53        64        65        69        70        74        77
 15:09 07/29/97  FILE=DXB$LSEG.:E05TSI        SYMBOL TABLE                                               12   BMAP - B00
                                       80        87        88        89        90       102       105
                                      108       111       114       117       123       126       129
                                      145
 41000000 000000007570 RWEP           *54        63       189
 41000000 000000000520 SSBND          *40        65
 41101000 000000000740 SSEND           40      *222
 41101000 000000000220 SSSTART         40      *168
 41000000 000000000000 TYPE0          *42        63        69        70        71        72        73
                                       74        85       102       105       126       129       133
                                      134       135       136       137       138       139       140
                                      141       142       143       144       145       146       147
                                      148       149       150       151       152       153       154
                                      155       156       157       158       159       160       161
                                      162       163       176       189
 41000000 000000000001 TYPE1          *43        77       108       111       114       117       123
                                      177       178       179       190       191       192       204
                                      205       206       207       208       209       210       211
 41000000 000000000002 TYPE2          *44        64        80        87        88        89        90
 41000000 000000000003 TYPE3          *45        65
 40000000 000000000001 V.CGPGTBLLO    *26
 41000000 000000000015 V.HJIT         *26        75        78       106       109       112       115
                                      118       124       130
 41000000 000000000100 V.ISR          *26        81
 41000000 000000000013 V.JIT          *26       103       127
 40000000 000000000610 V.MTD          *26
 40000000 000000000000 V.PGTBL        *26
 40000000 000000000012 V.PGTBLHI      *26
 40000000 000000000510 V.PPUT         *26
 40000000 000000000500 V.REAL         *26
 40000000 000000000057 V.ROS          *26
 40000000 000000000077 V.SEGTBL       *26
 41000000 000000000030 WSR0           *46        74        77       126       129
 41000000 000000000032 WSR2           *47        63        69        70        71        72        73
                                       85       133       134       135       136       137       138
                                      139       140       141       142       143       144       145
                                      146       147       148       149       150       151       152
                                      153       154       155       156       157       158       159
 15:09 07/29/97  FILE=DXB$LSEG.:E05TSI        SYMBOL TABLE                                               13   BMAP - B00
                                      160       161       162       163       176       178       189
                                      191
 41000000 000000000037 WSR7           *48       102       105       108       111       114       117
                                      123
 41000000 000000000002 XDELWSQ        *51        89        90

      55 SYMBOLS

 15:09 07/29/97  FILE=DXB$LSEG.:E05TSI        MACRO TABLE                                                14   BMAP - B00
 DESC            63        64        69        70        71        72        73        83        85
                 86        87        88        89        90        94        96        98        99
                100       101       120       121       122       132       133       134       135
                136       137       138       139       140       141       142       143       144
                145       146       147       148       149       150       151       152       153
                154       155       156       157       158       159       160       161       162
                163       176       177       178       179       189       190       191       192
                204       205       206       207       208       209       210       211
 HJIT            25
 TJIT7           24
 VPAGES          26

      17 MACROS

    SYMBOL SPACE USED  1219 WORDS
     MACRO SPACE USED  3363 WORDS
   INPUT RECORDS READ   903
 STATEMENTS PROCESSED   958
         ELAPSED TIME  0:04.64
             CPU TIME     4.03 SEC.
        ASSEMBLY RATE 14263 STATEMENTS/CPU MIN.

      NO ERRORS

