VERSION E05

PL6.E3A0      #001=DXB$UNODE File=DXB$UNODE.:E05TSI                              TUE 07/29/97 15:09 Page:1
        1        1        /*M* DXB$UNODE Routine to perform Monitor overlay mapping */
        2        2        /*T***********************************************************/
        3        3        /*T*                                                         */
        4        4        /*T* Copyright (c) Bull HN Information Systems Inc., 1997    */
        5        5        /*T*                                                         */
        6        6        /*T***********************************************************/
        7        7        /*X* DMR,PLM=5,IND=5,CSU=3,EXM=0,ECU=3,MOC,DCI=5,CRT=5 */
        8        8        DXB$UNODE: PROC(NODE);
        9        9    1   DCL NODE UBIN;
       10       10    1   DCL C$STRING CHAR(4096) BASED;
       11       11        %INCLUDE B_SEGIDS_C;
       12      550    1   DCL 1 MONPTR CONSTANT,
       13      551    1         2 * BIT(24) INIT('0'B),
       14      552    1         2 * BIT(12) INIT(%MPTSID);
       15      553    1   DCL MONPT$ REDEF MONPTR PTR;
       16      554    1   DCL MPT$ PTR;
       17      555    1   DCL SEGTBL$ PTR SYMREF;
       18      556    1   DCL 1  SEGTBL(0:0) BASED(SEGTBL$),
       19      557    1         2 SEGOFF UBIN HALF HALIGNED,
       20      558    1         2 SEGLEN UBIN HALF HALIGNED,
       21      559    1         2 MONPTOFF REDEF SEGLEN UBIN HALF HALIGNED;
       22      560    1   DCL DXA$GETMPTR ENTRY(2);
       23      561    1   DCL DXC$CAMP2 ENTRY;
       24      562        /*  */
       25      563    1        IF NODE=0 THEN RETURN;
       26      564    1        CALL DXA$GETMPTR(MONPT$,MPT$);
       27      565    1        SUBSTR(MPT$->C$STRING,SEGTBL.MONPTOFF(0),SEGTBL.SEGLEN(NODE)) =
       28      566    1          SUBSTR(SEGTBL$->C$STRING,SEGTBL.SEGOFF(NODE));
       29      567    1        CALL DXC$CAMP2;
       30      568    1        RETURN;
       31      569    1   END DXB$UNODE;

PL6.E3A0      #001=DXB$UNODE File=DXB$UNODE.:E05TSI                              TUE 07/29/97 15:09 Page:2
--  Include file information  --

   B_SEGIDS_C.:E05TOU  is referenced.
   B$JIT_C.:E05TOU  was found in the system file and is never referenced.
   CP_6_C.:E05TOU  was found in the system file and is never referenced.
      No diagnostics issued in procedure DXB$UNODE.

   Procedure DXB$UNODE requires 50 words for executable code.
   Procedure DXB$UNODE requires 12 words of local(AUTO) storage.

    No errors detected in file DXB$UNODE.:E05TSI    .

PL6.E3A0      #001=DXB$UNODE File=DXB$UNODE.:E05TSI                              TUE 07/29/97 15:09 Page:3

 Object Unit name= DXB$UNODE                                  File name= DXB$UNODE.:E05TOU
 UTS= JUL 29 '97 15:09:59.80 TUE                              Compiler= PL-6/E31         Sev=      00
 SharedLib= :SHARED_SYSTEM                                    Alt SharedLib=


    ****  Control sections  ****

 Sect   Type Bound  Init  Size OctSiz  Section name(segment info)
    0  RoData even  UTS      1      1  DXB$UNODE
    1   Proc  even  none    50     62  DXB$UNODE
    2  RoData even  none     1      1  DXB$UNODE

    ****  Entry defs  ****

                              Check   Calling
                             calling  sequence
  Sect OctLoc Primary Altret sequence   type   Parms  Name
     1      0   yes            yes      Std        1  DXB$UNODE

  ****  Entry refs  ****

         Check        Calling
        calling       sequence
Altret sequence SRef   type   Args  Name
         yes           Std       2 DXA$GETMPTR
         yes           Std       0 DXC$CAMP2
                       nStd      0 X66_AUTO_1
                       nStd      0 X66_ARET
                       Std       0 B_CONSPOOL_D

  ****  Data refs  ****

  Flags:  r = read only, s = secondary
Flgs Name                             Flgs Name                             Flgs Name
     SEGTBL$                               B_VECTNIL
PL6.E3A0      #001=DXB$UNODE File=DXB$UNODE.:E05TSI                              TUE 07/29/97 15:09 Page:4

  ****  Segment refs  ****

  Flags:  r = read only, s = secondary
Flgs Name                             Flgs Name                             Flgs Name
     ISSID
PL6.E3A0      #001=DXB$UNODE File=DXB$UNODE.:E05TSI                              TUE 07/29/97 15:09 Page:5


        1        1        /*M* DXB$UNODE Routine to perform Monitor overlay mapping */
        2        2        /*T***********************************************************/
        3        3        /*T*                                                         */
        4        4        /*T* Copyright (c) Bull HN Information Systems Inc., 1997    */
        5        5        /*T*                                                         */
        6        6        /*T***********************************************************/
        7        7        /*X* DMR,PLM=5,IND=5,CSU=3,EXM=0,ECU=3,MOC,DCI=5,CRT=5 */
        8        8        DXB$UNODE: PROC(NODE);

      8  1 000000   000000 700200 xent  DXB$UNODE    TSX0  ! X66_AUTO_1
         1 000001   000014 000001                    ZERO    12,1

        9        9    1   DCL NODE UBIN;
       10       10    1   DCL C$STRING CHAR(4096) BASED;
       11       11        %INCLUDE B_SEGIDS_C;
       12      550    1   DCL 1 MONPTR CONSTANT,
       13      551    1         2 * BIT(24) INIT('0'B),
       14      552    1         2 * BIT(12) INIT(%MPTSID);
       15      553    1   DCL MONPT$ REDEF MONPTR PTR;
       16      554    1   DCL MPT$ PTR;
       17      555    1   DCL SEGTBL$ PTR SYMREF;
       18      556    1   DCL 1  SEGTBL(0:0) BASED(SEGTBL$),
       19      557    1         2 SEGOFF UBIN HALF HALIGNED,
       20      558    1         2 SEGLEN UBIN HALF HALIGNED,
       21      559    1         2 MONPTOFF REDEF SEGLEN UBIN HALF HALIGNED;
       22      560    1   DCL DXA$GETMPTR ENTRY(2);
       23      561    1   DCL DXC$CAMP2 ENTRY;
       24      562        /*  */
       25      563    1        IF NODE=0 THEN RETURN;

    563  1 000002   200003 470500                    LDP0    @NODE,,AUTO
         1 000003   000000 235100                    LDA     0,,PR0
         1 000004   000006 601000 1                  TNZ     s:564

    563  1 000005   000000 702200 xent               TSX2  ! X66_ARET

PL6.E3A0      #001=DXB$UNODE File=DXB$UNODE.:E05TSI                              TUE 07/29/97 15:09 Page:6
       26      564    1        CALL DXA$GETMPTR(MONPT$,MPT$);

    564  1 000006   200004 631500                    EPPR1   MPT$,,AUTO
         1 000007   200007 451500                    STP1    MPT$+3,,AUTO
         1 000010   000000 236000 2                  LDQ     0
         1 000011   200006 756100                    STQ     MPT$+2,,AUTO
         1 000012   200006 630500                    EPPR0   MPT$+2,,AUTO
         1 000013   000020 631400 xsym               EPPR1   B_VECTNIL+16
         1 000014   000000 701000 xent               TSX1    DXA$GETMPTR
         1 000015   000000 011000                    NOP     0

       27      565    1        SUBSTR(MPT$->C$STRING,SEGTBL.MONPTOFF(0),SEGTBL.SEGLEN(NODE)) =

    565  1 000016   200003 470500                    LDP0    @NODE,,AUTO
         1 000017   000000 235100                    LDA     0,,PR0
         1 000020   000000 471400 xsym               LDP1    SEGTBL$
         1 000021   000100 101500                    MRL     fill='000'O
         1 000022   100000 400002                    ADSC9   0,,PR1                   cn=2,n=2
         1 000023   200006 000004                    ADSC9   MPT$+2,,AUTO             cn=0,n=4
         1 000024   200006 236100                    LDQ     MPT$+2,,AUTO
         1 000025   000002 735000                    ALS     2
         1 000026   000100 100505                    MLR     fill='000'O
         1 000027   100000 400002                    ADSC9   0,A,PR1                  cn=2,n=2
         1 000030   200007 000004                    ADSC9   MPT$+3,,AUTO             cn=0,n=4
         1 000031   200007 220100                    LDX0    MPT$+3,,AUTO
         1 000032   000000 235100                    LDA     0,,PR0
         1 000033   200011 755100                    STA     MPT$+5,,AUTO
         1 000034   000002 735000                    ALS     2
         1 000035   000100 101505                    MRL     fill='000'O
         1 000036   100000 000002                    ADSC9   0,A,PR1                  cn=0,n=2
         1 000037   200010 000004                    ADSC9   MPT$+4,,AUTO             cn=0,n=4
         1 000040   200012 756100                    STQ     MPT$+6,,AUTO
         1 000041   200010 236100                    LDQ     MPT$+4,,AUTO
         1 000042   200011 235100                    LDA     MPT$+5,,AUTO
         1 000043   000002 735000                    ALS     2
         1 000044   000100 100505                    MLR     fill='000'O
         1 000045   100000 000002                    ADSC9   0,A,PR1                  cn=0,n=2
PL6.E3A0      #001=DXB$UNODE File=DXB$UNODE.:E05TSI                              TUE 07/29/97 15:09 Page:7
         1 000046   200013 000004                    ADSC9   MPT$+7,,AUTO             cn=0,n=4
         1 000047   010000 221003                    LDX1    4096,DU
         1 000050   200013 121100                    SBLX1   MPT$+7,,AUTO
         1 000051   200004 473500                    LDP3    MPT$,,AUTO
         1 000052   200012 235100                    LDA     MPT$+6,,AUTO
         1 000053   040145 100546                    MLR     fill='040'O
         1 000054   100000 000011                    ADSC9   0,Q,PR1                  cn=0,n=*X1
         1 000055   300000 000010                    ADSC9   0,A,PR3                  cn=0,n=*X0

       28      566    1          SUBSTR(SEGTBL$->C$STRING,SEGTBL.SEGOFF(NODE));
       29      567    1        CALL DXC$CAMP2;

    567  1 000056   000002 631400 xsym               EPPR1   B_VECTNIL+2
         1 000057   000000 701000 xent               TSX1    DXC$CAMP2
         1 000060   000000 011000                    NOP     0

       30      568    1        RETURN;

    568  1 000061   000000 702200 xent               TSX2  ! X66_ARET

MONPTR
 Sect OctLoc
   0     000   000000 006037                                                    ....

(unnamed)
 Sect OctLoc
   2     000   000000 006000                                                    ....
       31      569    1   END DXB$UNODE;

PL6.E3A0      #001=DXB$UNODE File=DXB$UNODE.:E05TSI                              TUE 07/29/97 15:09 Page:8
--  Include file information  --

   B_SEGIDS_C.:E05TOU  is referenced.
   B$JIT_C.:E05TOU  was found in the system file and is never referenced.
   CP_6_C.:E05TOU  was found in the system file and is never referenced.
      No diagnostics issued in procedure DXB$UNODE.

   Procedure DXB$UNODE requires 50 words for executable code.
   Procedure DXB$UNODE requires 12 words of local(AUTO) storage.

    No errors detected in file DXB$UNODE.:E05TSI    .
PL6.E3A0      #001=DXB$UNODE File=DXB$UNODE.:E05TSI                              TUE 07/29/97 15:09 Page:9
          *** CROSS REFERENCE LISTING ***
**     DENOTES     IDENTIFIER DEFINITION
<<                 IDENTIFIER'S VALUE SET
>>                 IDENTIFIER'S VALUE USED
<>                 IDENTIFIER SET AND/OR USED
--                 IDENTIFIER REFERENCED
PL6.E3A0      #001=DXB$UNODE File=DXB$UNODE.:E05TSI                              TUE 07/29/97 15:09 Page:10
          MINI XREF LISTING

C$STRING
        10**DCL       565<<ASSIGN    565>>ASSIGN
DXA$GETMPTR
       560**DCL-ENT   564--CALL
DXC$CAMP2
       561**DCL-ENT   567--CALL
MONPT$
       553**DCL       564<>CALL
MONPTR
       550**DCL       553--REDEF
MPT$
       554**DCL       564<>CALL      565>>ASSIGN
NODE
         9**DCL         8--PROC      563>>IF        565>>ASSIGN    565>>ASSIGN
SEGTBL.MONPTOFF
       559**DCL       565>>ASSIGN
SEGTBL.SEGLEN
       558**DCL       559--REDEF     565>>ASSIGN
SEGTBL.SEGOFF
       557**DCL       565>>ASSIGN
SEGTBL$
       555**DCL       556--IMP-PTR   565>>ASSIGN    565>>ASSIGN    565>>ASSIGN    565>>ASSIGN
PL6.E3A0      #001=DXB$UNODE File=DXB$UNODE.:E05TSI                              TUE 07/29/97 15:09 Page:11
              *** CROSS REFERENCE LISTING ***
    **     DENOTES     IDENTIFIER DEFINITION
    <<                 IDENTIFIER'S VALUE SET
    >>                 IDENTIFIER'S VALUE USED
    <>                 IDENTIFIER SET AND/OR USED
    --                 IDENTIFIER REFERENCED
PL6.E3A0      #001=DXB$UNODE File=DXB$UNODE.:E05TSI                              TUE 07/29/97 15:09 Page:12
              MINI UREF LISTING

DXB$UNODE       8**PROC
