VERSION E05

 15:10 07/29/97  FILE=DXC$MISC.:E05TSI                                                                   1    BMAP - B00
                                         1  *M*  DXC$MISC  -  BMAP routines for XDELTA
                                         2  *T***********************************************************
                                         3  *T*                                                         *
                                         4  *T* Copyright (c) Bull HN Information Systems Inc., 1997    *
                                         5  *T*                                                         *
                                         6  *T***********************************************************
                                         7  *
                                         8  *P* NAME:  DXC$MISC
                                         9  *P* PURPOSE:  BMAP routines for XDELTA
                                        10  *
                                        11           ENTDEF   DXC$MISC
                                        12           ENTDEF   DXC$USERGO
                                        13           ENTDEF   DXC$GETIS
                                        14           ENTDEF   DXC$SET_WSR7
                                        15           ENTDEF   DXC$RESET_WSR7
                                        16           ENTDEF   DXC$MINI
                                        17           ENTDEF   DDC$PUTONE
                                        18           ENTDEF   DXC$PTREND
                                        19           ENTDEF   DXA$QUIT
                                        20           ENTDEF   DXC$XDELWSQ
                                        21           ENTDEF   DXC$USERWSQ
                                        22           ENTDEF   DXC$CAMP2
                                        23           ENTDEF   DXA$GETMPTR
                                        24           ENTDEF   DXA$DBOOT
                                        25           ENTDEF   DXA$TBOOT
                                        26           ENTDEF   DXC$EOP
                                        27           ENTDEF   DUX$BREAK        *N* DUMMY FOR NOW
                                        28  *
                                        29           ENTREF   DXA$PATCHENT
                                        30           ENTREF   DXA$FAULTENT
                                        31           ENTREF   DDR$REPORT
                                        32           ENTREF   X66_AUNWIND
                                        33           ENTREF   X66_MSTATIC
                                        34  *
                                        35           SYMREF   AUTOSTART
                                        36           SYMREF   AUTOSIZEW
                                        37           SYMREF   S_D$
 15:10 07/29/97  FILE=DXC$MISC.:E05TSI                                                                   2    BMAP - B00
                                        38           SYMREF   IMASKSAVE
                                        39           SYMREF   LOC32SAVE
                                        40           SYMREF   LOC40SAVE
                                        41           SYMREF   DLS$
                                        42           SYMREF   XUSS$
                                        43           SYMREF   WSR
                                        44           SYMREF   SAVEX0
                                        45           SYMREF   D_CPU_TYPE
                                        46           SYMREF   RECOVER
           X 000000000000               47  WSR0123  EQU      WSR               EVEN
           X 000000000001               48  WSR4567  EQU      WSR0123+1         ODD
           X 000000000003               49  WSR7X    EQU      WSR0123+3         ODD
                                        50           SYMREF   MLS$
                                        51           SYMREF   MLS2$
                                        52           SYMREF   SCX1$
                                        53           SYMREF   TEMP0
                                        54           SYMREF   SCX1_OFF
                                        55           SYMREF   R_SFAULTT
                                        56           SYMREF   DIC
                                        57           SYMREF   DICFAULT
                                        58           SYMREF   DEL_FAULT
                                        59           SYMREF   DEL_FAULTLOC
                                        60           SYMREF   DX_DIC            BIT(1),   0 =DIC OFF, 1 =DIC ON
                                        61           SYMREF   XDFAULTDESC       SAVE XD FAULT ENTRY DESC
                                        62           SYMREF   FIRSTIME         FIRST TIME THROUGH FLAG - INIT 0
                                        63           SYMREF   IOBUF
                                        64  *
             000000006001               65  XDLSSID  BOOL     6001
             000000006002               66  XDSSSID  BOOL     6002
             000000006003               67  XDAUTOSID  BOOL   6003
             000000006013               68  MSSSID   BOOL     6013
             000000006014               69  NILSID   BOOL     6014
             000000006016               70  REALSID  BOOL     6016
             000000006022               71  XDFESID  BOOL     6022
             000000001761               72  CHNGTYPESID  BOOL 1761
             000000006025               73  SCX1SID  BOOL      6025
                                        74  *
 15:10 07/29/97  FILE=DXC$MISC.:E05TSI                                                                   3    BMAP - B00
                                        75  * OFFSETS INTO S_D  (DC_OFFS_D)
                                        76  *
                                        77           SYMREF   S_D_GOIC$
                                        78           SYMREF   S_D_SAVEIC$
                                        79           SYMREF   S_D_FAULTINS$$
                                        80           SYMREF   S_D_FAULTCMD$$
                                        81           SYMREF   S_D_RETURNN$
                                        82           SYMREF   S_D_ERROR$
                                        83           SYMREF   S_D_IXFIX$
                                        84           SYMREF   S_D_ACCESS$
                                        85           SYMREF   S_D_DO_SCAN$
                                        86           SYMREF   S_D_GO_MODE$
                                        87           SYMREF   S_D_REM_DO_SCAN$
                                        88           SYMREF   S_D_REM_ACCESS$
                                        89           SYMREF   S_D_BREAK$
                                        90           SYMREF   S_D_USS$$
                                        91           SYMREF   S_D_REM_DISKBOOT$
                                        92  * OFFSETS INTO THE SAFE STORE
             000000000010               93  SSIS_SS  BOOL     10                OFFSET INTO SAFE STORE FOR ISR
             000000000012               94  SSAS_SS  BOOL     12                OFFSET INTO SAFE STORE FOR ASR
             000000000016               95  SSPS_SS  BOOL     16                OFFSET INTO SAFE STORE FOR PSR
                                        96  *  MISCELLANEOUS
             000000001131               97  BADPUT1  EQU   601                ERROR NUMBER...WATCH OUT FOR CHANGES
                                        98  *                                 IN DC_ERR_C INCLUDE FILE
             000000001132               99  BADPUT2  EQU   602                LIKEWISE
                                       100  *
                                       101  * ABSOLUTE LOCATIONS
             000000000032              102  LOC32    BOOL     32
             000000000040              103  LOC40    BOOL     40
                                       104  *
             000000000002              105  AUTO     EQU      2
             000000000000              106  PR0      EQU      0
             000000000001              107  PR1      EQU      1
             000000000002              108  PR2      EQU      2
             000000000003              109  PR3      EQU      3
             000000000004              110  PR4      EQU      4
             000000000005              111  PR5      EQU      5
 15:10 07/29/97  FILE=DXC$MISC.:E05TSI                                                                   4    BMAP - B00
             000000000006              112  PR6      EQU      6
             000000000007              113  PR7      EQU      7
             000000000001              114  PARG1    EQU      1
             000000000003              115  PARG2    EQU      3
                                       116  *
                                       117         LODM    B_BMACROS_C
                                       118         PMC     ON
                                       119  *
                                       120          XDLS
             000000000000                   XL.ISR EQU 0             XDELTA ISR DESCRIPTOR
             000000000001                   XL.LSR EQU XL.ISR+1      XDELTA LSR DESCRIPTOR
             000000000002                   XL.SSR EQU XL.LSR+1      XDELTA SSR DESCRIPTOR
             000000000003                   XL.AUTO EQU XL.SSR+1      XDELTA AUTO
             000000000004                   XL.ENT EQU XL.AUTO+1     MON ENTDEFS
             000000000005                   XL.SYM EQU XL.ENT+1      MON SYMDEFS
             000000000006                   XL.DEF EQU XL.SYM+1      MON DEF NAMES
             000000000007                   XL.SCH EQU XL.DEF+1      MON SCHEMA DIRECTORY
             000000000010                   XL.MLS0 EQU XL.SCH+1      MON LS -- TYPE 0
             000000000011                   XL.MLS1 EQU XL.MLS0+1     MON LS -- TYPE 1
             000000000012                   XL.MIS EQU XL.MLS1+1     MON ISR DESCRIPTOR
             000000000013                   XL.MSS EQU XL.MIS+1      MON SSR DESCRIPTOR -- TYPE 1
             000000000014                   XL.NULL EQU XL.MSS+1      NULL
             000000000015                   XL.MINIQ EQU XL.NULL+1     AARDVARK ISR DESC FOR MINIQ
             000000000016                   XL.REAL EQU XL.MINIQ+1    REAL
             000000000017                   XL.REALX EQU XL.REAL+1     REAL SCRATCH
             000000000020                   XL.MAP256 EQU XL.REALX+1    MAP 0-256K
             000000000021                   XL.MAPX EQU XL.MAP256+1   MAP 256-512K
             000000000022                   XL.FLT EQU XL.MAPX+1     XDELTA FAULT ENTRY DESCRIPTOR
             000000000023                   XL.SSR0 EQU XL.FLT+1      XDELTA SSR -- TYPE 0
             000000000024                   XL.MSSR0 EQU XL.SSR0+1     MON SSR --  TYPE 0
             000000000025                   XL.SC1 EQU XL.MSSR0+1    SCRATCH DESCRIPTOR 1
             000000000026                   XL.SC2 EQU XL.SC1+1      SCRATCH DESCRIPTOR 2
             000000000027                   XL.AENT EQU XL.SC2+1     ENTRY DESCRIPTOR FOR CALLS TO MINIQ
             000000000030                   XL.UDR2 EQU XL.AENT+1    DR2 FROM CURRENT SS
             000000000031                   XL.JITU EQU XL.UDR2+1     USER JIT
             000000000032                   XL.HJITU EQU XL.JITU+1     USER HJIT
             000000000033                   XL.ULS EQU XL.HJITU+1    USER LS
 15:10 07/29/97  FILE=DXC$MISC.:E05TSI                                                                   5    BMAP - B00
             000000000034                   XL.DBLS EQU XL.ULS+1      DEBUGGER LS
             000000000035                   XL.ASLLS EQU XL.DBLS+1     ASL LS
             000000000036                   XL.CPLS EQU XL.ASLLS+1    CP LS
             000000000037                   XL.ASR EQU XL.CPLS+1     ASR
             000000000040                   XL.PSR EQU XL.ASR+1      PSR
             000000000041                   XL.UISR EQU XL.PSR+1      USER ISR
             000000000042                   XL.SDS EQU XL.UISR+1     MON SPECIAL DESCRIPTOR STORAGE
             000000000043                   XL.MJIT EQU XL.SDS+1      MON JIT
             000000000044                   XL.MHJIT EQU XL.MJIT+1     MON HJIT
             000000000045                   XL.SSISR EQU XL.MHJIT+1    ISR FROM SAFE STORE
             000000000046                   XL.SCH0 EQU XL.SSISR+1    SCHEMA DESC -DEBUG RECORDS
             000000000047                   XL.SCH1 EQU XL.SCH0+1     DITTO
             000000000050                   XL.SCH2 EQU XL.SCH1+1     DITTO
             000000000051                   XL.SCH3 EQU XL.SCH2+1     DITTO
             000000000052                   XL.SCH4 EQU XL.SCH3+1     DITTO
             000000000053                   XL.SCH5 EQU XL.SCH4+1     DITTO
             000000000054                   XL.SCH6 EQU XL.SCH5+1     DITTO
             000000000055                   XL.SCH7 EQU XL.SCH6+1     DITTO
             000000000056                   XL.SCH8 EQU XL.SCH7+1     DITTO
             000000000057                   XL.SCH9 EQU XL.SCH8+1     DITTO
             000000000060                   XL.SCH10 EQU XL.SCH9+1     DITTO
             000000000061                   XL.SCH11 EQU XL.SCH10+1    DITTO
             000000000061                   XL.SCHLAST EQU XL.SCH11      LAST SCHEMA DESCRIPTOR
             000000000062                   XL.ENT1 EQU XL.SCHLAST+1  ALTERNATE ENTDEFS
             000000000063                   XL.SYM1 EQU XL.ENT1+1     ALTERNATE SYMDEFS
             000000000064                   XL.DEF1 EQU XL.SYM1+1     ALTERNATE DEFNAMES
             000000000065                   XL.ASCH EQU XL.DEF1+1     ALTERNATE DEBUG SCHEMA HEADERS
             000000000066                   XL.ASCH0 EQU XL.ASCH+1     ALTERNATE SCHEMA DESC -DEBUG RECORDS
             000000000067                   XL.ASCH1 EQU XL.ASCH0+1    DITTO
             000000000070                   XL.ASCH2 EQU XL.ASCH1+1    DITTO
             000000000071                   XL.ASCH3 EQU XL.ASCH2+1    DITTO
             000000000072                   XL.ASCH4 EQU XL.ASCH3+1    DITTO
             000000000073                   XL.ASCH5 EQU XL.ASCH4+1    DITTO
             000000000074                   XL.ASCH6 EQU XL.ASCH5+1    DITTO
             000000000075                   XL.ASCH7 EQU XL.ASCH6+1    DITTO
             000000000076                   XL.ASCH8 EQU XL.ASCH7+1    DITTO
             000000000077                   XL.ASCH9 EQU XL.ASCH8+1    DITTO
 15:10 07/29/97  FILE=DXC$MISC.:E05TSI                                                                   6    BMAP - B00
             000000000100                   XL.ASCH10 EQU XL.ASCH9+1    DITTO
             000000000101                   XL.ASCH11 EQU XL.ASCH10+1   DITTO
             000000000101                   XL.ASCHLAST EQU XL.ASCH11     LAST ALTERNATE SCHEMA DESCRIPTOR
             000000000102                   XL.SEGTBL EQU XL.ASCHLAST+1   MON OVERLAY SEGMENT TABLE
             000000000103                   XL.DEFDIR EQU XL.SEGTBL+1     MON NODE INFO TABLE
                                       121  *
                                       122          MONLS
             000000000000                   LS.IS EQU 0             MONITOR INSTRUCTION SEGMENT
             000000000001                   LS.JITU EQU LS.IS+1       USER JIT
             000000000002                   LS.BUF EQU LS.JITU+1     USER FILE MANAGEMENT BUFFERS
             000000000003                   LS.ROSEG EQU LS.BUF+1      USER READ ONLY SEGMENT
             000000000004                   LS.DS1 EQU LS.ROSEG+1    MONITOR DATA SEGMENT 1
             000000000004                   LS.CFU EQU LS.DS1        MON DS1 -- CFUS
             000000000005                   LS.DS2 EQU LS.DS1+1      MONITOR DATA SEGMENT 2
             000000000006                   LS.DS3 EQU LS.DS2+1      MONITOR DATA SEGMENT 3
             000000000007                   LS.DS4 EQU LS.DS3+1      MONITOR DATA SEGMENT 4
             000000000010                   LS.DS5 EQU LS.DS4+1      MONITOR DATA SEGMENT 5
             000000000011                   LS.DS6 EQU LS.DS5+1      MONITOR DATA SEGMENT 6
             000000000012                   LS.DS7 EQU LS.DS6+1      MONITOR DATA SEGMENT 7
             000000000013                   LS.DS8 EQU LS.DS7+1      MONITOR DATA SEGMENT 8
             000000000013                   LS.LDCT EQU LS.DS8        MON DS8 -- LDCTS
             000000000014                   LS.NULL EQU LS.DS8+1      NULL DESCRIPTOR
             000000000015                   LS.XLAT EQU LS.NULL+1     XLATE/SEARCH TABLES
             000000000016                   LS.ECCB EQU LS.XLAT+1     ECCB
             000000000017                   LS.TCB EQU LS.ECCB+1     TCB
             000000000020                   LS.TSTACK EQU LS.TCB+1      TSTACK
             000000000021                   LS.REAL EQU LS.TSTACK+1   REAL PG 0-3
             000000000022                   LS.USSS EQU LS.REAL+1     USER SS AREA
             000000000023                   LS.USDS0 EQU LS.USSS+1     USER SDS TYPE 0
             000000000024                   LS.USDS1 EQU LS.USDS0+1    USER SDS TYPE 1
             000000000025                   LS.SCR EQU LS.USDS1+1    SCREECH ENTRY
             000000000026                   LS.XD EQU LS.SCR+1      XDELTA ENTRY DESCRIPTOR
             000000000027                   LS.PMME EQU LS.XD+1       PMME ENTRY DESCRIPTOR
             000000000030                   LS.REG EQU LS.PMME+1     SCHED REG ENTRY DESCRIPTOR
             000000000031                   LS.ULS EQU LS.REG+1      USER LINKAGE SEGMENT
             000000000032                   LS.DBLS EQU LS.ULS+1      DEBUGGER LINKAGE SEGMENT
             000000000033                   LS.ASLLS EQU LS.DBLS+1     ASL LINKAGE SEGMENT
 15:10 07/29/97  FILE=DXC$MISC.:E05TSI                                                                   7    BMAP - B00
             000000000034                   LS.CPLS EQU LS.ASLLS+1    COMMAND PROCESSOR LINKAGE SEGMENT
             000000000035                   LS.MLS EQU LS.CPLS+1     MONITOR LINKAGE SEGMENT
             000000000036                   LS.UPT EQU LS.MLS+1      USER PAGE TABLE
             000000000037                   LS.MPT EQU LS.UPT+1      MONITOR PAGE TABLE
             000000000040                   LS.USRIS EQU LS.MPT+1      USER INSTRUCTION SEGMENT
             000000000041                   LS.MTSTACK EQU LS.USRIS+1    TSTACKU
             000000000042                   LS.MJIT EQU LS.MTSTACK+1  MONITOR JIT
             000000000043                   LS.MHJIT EQU LS.MJIT+1     MONITOR HJIT
             000000000044                   LS.MONSSS EQU LS.MHJIT+1    MONITOR SSS -- TYPE 0
             000000000045                   LS.HJITU EQU LS.MONSSS+1   USER HJIT
             000000000046                   LS.SBUF1 EQU LS.HJITU+1    SPECIAL BUFFER 1
             000000000047                   LS.SBUF2 EQU LS.SBUF1+1    SPECIAL BUFFER 2
             000000000050                   LS.ISB EQU LS.SBUF2+1    MON ISR -- BYPASS CACHE
             000000000051                   LS.SCU EQU LS.ISB+1      SPECIAL PAGES FOR GETTING SCU ADDR
             000000000052                   LS.WINDOW EQU LS.SCU+1      WINDOW AREA
             000000000053                   LS.ASR EQU LS.WINDOW+1   MONITOR ARGUMENT STACK DESC
             000000000054                   LS.MISC EQU LS.ASR+1      MISCELLANEOUS (can be used @ int level)
             000000000055                   LS.CWSQ1 EQU LS.MISC+1     COMMUNICATIONS WSQ
             000000000075                   LS.CPGT1 EQU LS.CWSQ1+16   CWSQ PG TABLE
             000000000115                   LS.JITPG EQU LS.CPGT1+16
             000000000116                   LS.PPUT EQU LS.JITPG+1
             000000000117                   LS.VPT EQU LS.PPUT+1
             000000000120                   LS.MOUSE EQU LS.VPT+1
             000000000121                   LS.LOWMEM EQU LS.MOUSE+1
             000000000122                   LS.IOEND EQU LS.LOWMEM+1
             000000000123                   LS.TIGR EQU LS.IOEND+1    TIGR DATA
             000000000124                   LS.RONC EQU LS.TIGR+1     READ ONLY SEG -- BYPASS CACHE
             000000000125                   LS.ROSEG8 EQU LS.RONC+1     READ ONLY SEG -- AT IO END ACT (WSQ8)
             000000000126                   LS.XDRTN EQU LS.ROSEG8+1   XDELTA RETURN ENTRY DESCRIPTOR
             000000000127                   LS.RCVRTN EQU LS.XDRTN+1    SUA OR SNAP RETURN ENTRY DESCRIPTOR
             000000000130                   LS.MISC2 EQU LS.RCVRTN+1   MISCELLANEOUS (used on behalf of user only)
             000000000131                   LS.RCVENT EQU LS.MISC2+1    RECOVERY ENTRY DESCRIPTOR
             000000000132                   LS.MLS1 EQU LS.RCVENT+1   MON LS -- TYPE 1 FOR ANLZ
             000000000133                   LS.WS3MLS EQU LS.MLS1+1
             000000000134                   LS.LDCTNC EQU LS.WS3MLS+1
             000000000135                   LS.MSTRPT EQU LS.LDCTNC+1
             000000000136                   LS.SLV1PT EQU LS.MSTRPT+1
 15:10 07/29/97  FILE=DXC$MISC.:E05TSI                                                                   8    BMAP - B00
             000000000137                   LS.SLV2PT EQU LS.SLV1PT+1
             000000000140                   LS.SLV3PT EQU LS.SLV2PT+1
             000000000141                   LS.SLV4PT EQU LS.SLV3PT+1
             000000000142                   LS.SLV5PT EQU LS.SLV4PT+1
             000000000143                   LS.SLV6PT EQU LS.SLV5PT+1
             000000000144                   LS.SLV7PT EQU LS.SLV6PT+1
             000000000145                   LS.MSTRHJ EQU LS.SLV7PT+1
             000000000146                   LS.SLV1HJ EQU LS.MSTRHJ+1
             000000000147                   LS.SLV2HJ EQU LS.SLV1HJ+1
             000000000150                   LS.SLV3HJ EQU LS.SLV2HJ+1
             000000000151                   LS.SLV4HJ EQU LS.SLV3HJ+1
             000000000152                   LS.SLV5HJ EQU LS.SLV4HJ+1
             000000000153                   LS.SLV6HJ EQU LS.SLV5HJ+1
             000000000154                   LS.SLV7HJ EQU LS.SLV6HJ+1
             000000000155                   LS.AARDV EQU LS.SLV7HJ+1
             000000000155                   LS.FLT EQU LS.AARDV      AARDVARK FAULT ENTRY DESCR
             000000000156                   LS.AARDV2 EQU LS.AARDV+1
             000000000156                   LS.MONRL EQU LS.AARDV2     REAL MON ISR FOR MINIQ
             000000000157                   LS.FIRM EQU LS.AARDV2+1
             000000000160                   LS.WS3MLSNW EQU LS.FIRM+1
             000000000161                   LS.BUFCACH EQU LS.WS3MLSNW+1
             000000000162                   LS.IMX EQU LS.BUFCACH+1  IMX DATA
             000000000163                   LS.CGPT EQU LS.IMX+1      CG PAGE TABLE
             000000000164                   LS.CGCTXT EQU LS.CGPT+1     CG CONTEXT & DESCRIPTOR SEG BLKS
             000000000165                   LS.MAGSS EQU LS.CGCTXT+1   MAGIC SS FRAME
             000000000166                   LS.MAGLS EQU LS.MAGSS+1    MAGIC LS
             000000000167                   LS.MAGAS EQU LS.MAGLS+1    MAGIC AS
             000000000170                   LS.MAGPS EQU LS.MAGAS+1    MAGIC PS
             000000000171                   LS.MAGTCB EQU LS.MAGPS+1    MAGIC TCB
             000000000172                   LS.MAGECCB EQU LS.MAGTCB+1   MAGIC ECCB
             000000000173                   LS.MLSREAD EQU LS.MAGECCB+1  MLS - READ ONLY
             000000000174                   LS.SEGTBL EQU LS.MLSREAD+1    MON OVERLAY SEGMENT TABLE
             000000000175                   LS.WSQ0PT EQU LS.SEGTBL+1     WSQ #0 Page Table.  DPS-90 only
             000000000176                   LS.IPHY_MAP EQU LS.WSQ0PT+1   Inverse physical map for DPS-90
             000000000177                   LS.MINIQ_ENT EQU LS.IPHY_MAP+1 Entry for MINIQ's climb to itself
             000000000200                   LS.XLNORM EQU LS.MINIQ_ENT+1 Normal XLATE tables (Note space reserved for X1000)
             000000000201                   LS.XLALT EQU LS.XLNORM+1   Alternate XLATE tables
 15:10 07/29/97  FILE=DXC$MISC.:E05TSI                                                                   9    BMAP - B00
             000000000202                   LS.DVT EQU LS.XLALT+1    DVT TABLE
                                       123  *

 15:10 07/29/97  FILE=DXC$MISC.:E05TSI           DXC$MISC - DXC$PATCHENT                                 10   BMAP - B00
                                       124           TTL      DXC$MISC - DXC$PATCHENT
 0 000000                              125            USE       DXC$MISC,1
                                       126  *
          (0)000000000000              127  DXC$MISC  EQU       *              PRIMARY ENTDEF
                                       128  *
                                       129  *D*  NAME:   DXC$PATCHENT
                                       130  *D*  CALL:   AARDVARK TRANSFERS CONTROL TO DXC$PATCHENT BY POINTING THE
                                       131  *D*          SSR TO XDELTA'S SAFE STORE (WITH IC= DXC$PATCHENT) AND
                                       132  *D*          DOING A RET
                                       133  *D*  DESCRIPTION: INTIALIZE XDELTA'S AUTO AND FAULT ENTRY DESCRIPTORS
                                       134  *D*               IN LINKAGE SEGMENT. SAVE FAULT LOCATIONS . SAVE
                                       135  *D*               MONITOR IC. OTHER MISCELLANY TOO
                                       136  *
                                       137  *
          (0)000000000000              138  DXC$PATCHENT  EQU   *
                                       139  *
   000000  X 000000 7400 00            140           STX0     SAVEX0            REMEMBER PATCH-TIME FLAG
   000001  X 000000 4410 00            141           SXL1     D_CPU_TYPE
                                       142  *                                   BIT0 OF X0 SET IF PATCHING
   000002    006001 4724 07            143           LDP2     XDLSSID,DL        XD LS INTO DR2
                                       144  *
                                       145  * INITIALIZE XDELTA'S AUTO DESCRIPTOR IN LINKAGE SEGMENT ($LS3)
                                       146  *
   000003  X 000000 2350 07            147           LDA      AUTOSTART,DL      AUTO OFFSET FROM IS BASE
   000004    000002 7350 00            148           ALS      2                 INTO BYTES
   000005    2 00001 0751 00           149           ADA XL.ISR*2+1,,PR2      ADD IN IS BASE
   000006    2 00007 7551 00           150           STA      XL.AUTO*2+1,,PR2     STORE BASE
   000007  X 000000 7210 00            151           LXL1     AUTOSIZEW
   000010    000001 1610 03            152           SBX1     1,DU              PREVIOUS WORD
   000011    2 00006 7411 00           153           STX1     XL.AUTO*2,,PR2
                                       154  *
                                       155  * INITIALIZE FAULT ENTRY DESCRIPTOR IN LINKAGE SEGMENT ($LS18)
                                       156  *
   000012    2 00045 2351 00           157           LDA      XL.FLT*2+1,,PR2 STORE LS BASE
   000013    777600 3750 03            158           ANA      =O777600,DU       INTO SECOND
   000014    2 00003 2751 00           159           ORA      XL.LSR*2+1,,PR2
   000015    2 00045 7551 00           160           STA      XL.FLT*2+1,,PR2 WORD OF DESCRIPTOR
 15:10 07/29/97  FILE=DXC$MISC.:E05TSI           DXC$MISC - DXC$PATCHENT                                 11   BMAP - B00
   000016 (0)000074 6210 00            161           EAX1     DXC$FAULTENT
   000017    2 00044 7411 00           162           STX1     XL.FLT*2,,PR2   STORE ENTRY POINT (IC)
   000020  X 000000 4734 00            163           LDP3     MLS$              PTR TO MON LS
   000021    001761 4734 07            164           LDP3     CHNGTYPESID,DL    GET AS DATA
   000022    2 00044 2371 00           165           LDAQ     XL.FLT*2,,PR2
   000023    3 00054 7571 00           166           STAQ     LS.XD*2,,PR3    STUFF XD ENTRY DESC INTO MON LS
   000024  X 000000 7570 00            167           STAQ     XDFAULTDESC       SAVE ACTUAL XD FAULT ENTRY DESC
                                       168  *
                                       169  * CHANGE MON SAFE STORE DESCRIPTOR TO TYPE 0
                                       170  *
   000025    006013 4734 07            171           LDP3     MSSSID,DL         GET MON SS
   000026    001761 4734 07            172           LDP3     CHNGTYPESID,DL
   000027    2 00050 0535 00           173           STD3     XL.MSSR0*2,,PR2
                                       174  *
                                       175  *  CHANGE XDELTA SS DESCRIPTOR TO TYPE 0
                                       176  *
   000030    006002 4734 07            177           LDP3     XDSSSID,DL
   000031    001761 4734 07            178           LDP3     CHNGTYPESID,DL
   000032    2 00046 0535 00           179           STD3     XL.SSR0*2,,PR2
                                       180  *
                                       181  * PICK UP MONITOR IC FROM MON SS AND PUT INTO S_D.SAVEIC
                                       182  *
   000033  X 000000 4774 00            183           LDP7     S_D_GOIC$         PTR TO S_D.GOIC
   000034    7 00000 4501 00           184           STZ      0,,PR7
   000035  X 000000 4774 00            185           LDP7     S_D_SAVEIC$
   000036    7 00000 4501 00           186           STZ      0,,PR7
   000037  X 000000 4734 00            187           LDP3     XUSS$
   000040    3 00004 2211 00           188           LDX1     4,,PR3            GET IC FROM SS
   000041  X 000000 4774 00            189           LDP7     S_D_SAVEIC$
   000042    7 00000 4411 00           190           SXL1     0,,PR7
   000043  X 000000 4500 00            191           STZ      DIC
                                       192  *
                                       193  * SAVE MINI-DELTA'S FAULT LOCATIONS
                                       194  *
   000044    006016 4734 07            195           LDP3     REALSID,DL
   000045    3 00032 2371 00           196           LDAQ     LOC32,,PR3        GET 32 AND 33
   000046  X 000000 7570 00            197           STAQ     LOC32SAVE
 15:10 07/29/97  FILE=DXC$MISC.:E05TSI           DXC$MISC - DXC$PATCHENT                                 12   BMAP - B00
                                       198  *
                                       199  * POINT FAULT LOCATIONS TO XDELTA
                                       200  *
   000047    006022 4734 07            201           LDP3     XDFESID,DL
   000050    006016 4744 07            202           LDP4     REALSID,DL
   000051    4 00032 0535 00           203           STD3     LOC32,,PR4
   000052    4 00040 0535 00           204           STD3     LOC40,,PR4
                                       205  *
                                       206  * SAVE XDEL'S SSR
                                       207  *
   000053    2 00004 7535 00           208           STSS     XL.SSR*2,,PR2
                                       209  *
                                       210  * LOAD SSR WITH MONITOR'S SS TO FOOL SETUP
                                       211  *
   000054    2 00026 7735 00           212           LDSS     XL.MSS*2,,PR2
   000055 (0)000111 7000 00            213           TSX0     DXC$SETUP
                                       214  *
                                       215  * CALL X66_MSTATIC( AUTO$, AUTOSIZEW, INITPR2$ )
                                       216  *
   000056 (0)000067 6304 00            217           EPPR0    PTRLIST               Point to arg ptr list
   000057 (1)000000 6314 00            218           EPPR1    =V18/3,18/0           Point to arg descr list
   000060  X 000000 7010 00            219           TSX1     X66_MSTATIC           Setup initial AUTO frame
   000061    000000 0110 00            220           NOP      0
   000062 (0)000073 4724 00            221           LDP      AUTO,INITPR2$          & Get initial AUTO ptr
                                       222  *
                                       223  * TRANSFER TO DXA$PATCHENT
                                       224  *
   000063 (1)000001 6314 00            225           EPPR1    =0
   000064  X 000000 7010 00            226           TSX1     DXA$PATCHENT
   000065    000000 0000 00            227           ARG      0                 SIGNAL TO PL6 THAT THERE ARE NO
   000066    000000 0000 00            228           ARG      0                 ARGUMENTS
                                       229  *
                                       230  * Argument pointer list for X66_MSTATIC
                                       231  *
   000067 (0)000072 0 00 6000          232  PTRLIST  PTR      =O6000+XL.ISR,AUTO$     ADDR( AUTO$ )
   000070  X 000000 0 00 6000          233           PTR      =O6000+XL.ISR,AUTOSIZEW ADDR( AUTOSIZEW )
   000071 (0)000073 0 00 6000          234           PTR      =O6000+XL.ISR,INITPR2$  ADDR( INITPR2$ )
 15:10 07/29/97  FILE=DXC$MISC.:E05TSI           DXC$MISC - DXC$PATCHENT                                 13   BMAP - B00
   000072    000000 0 00 6003          235  AUTO$    PTR      XDAUTOSID,0             Ptr to AUTO segment
   000073                              236  INITPR2$ BSS      1                       Space for init AUTO ptr

 15:10 07/29/97  FILE=DXC$MISC.:E05TSI           DXC$MISC - DXC$FAULTENT                                 14   BMAP - B00
                                       237           TTL      DXC$MISC - DXC$FAULTENT
                                       238  *D*  NAME:   DXC$FAULTENT
                                       239  *D*  CALL:   CONTROL IS TRANSFERRED DIRECTLY TO DXC$FAULTENT VIA
                                       240  *D*          THE ENTRY DESCRIPTOR IN LOCATION 32 ON OCCURRENCE OF
                                       241  *D*          A FAULT
                                       242  *D*  DESCRIPTION: ESTABLISH PL6 INTERFACE
                                       243  *
          (0)000000000074              244  DXC$FAULTENT  EQU   *
                                       245           INHIB    ON
   000074    004210 6342 07            246           LDI      =O4210,DL          OVMSK, MM, FLOX
   000075  X 000000 4502 00            247           STZ      SAVEX0              CLEAR HIGH BIT FROM AARDVARK
   000076  X 000000 4402 00            248           SXL0     SAVEX0            REMEMBER RECOVERY IN PROGRESS FLAG
   000077 (0)000111 7002 00            249           TSX0     DXC$SETUP
                                       250           INHIB    OFF
   000100 (0)000067 6304 00            251           EPPR0    PTRLIST               Point to arg ptr list
   000101 (1)000000 6314 00            252           EPPR1    =V18/3,18/0           Point to arg descr list
   000102  X 000000 7010 00            253           TSX1     X66_MSTATIC           Setup initial AUTO frame
   000103    000000 0110 00            254           NOP      0
   000104 (0)000073 4724 00            255           LDP      AUTO,INITPR2$          & Get initial AUTO ptr
                                       256  *
                                       257  * TRANSFER TO DXA$FAULTENT
   000105 (1)000001 6314 00            258           EPPR1    =0
   000106  X 000000 7010 00            259           TSX1     DXA$FAULTENT
   000107    000000 0000 00            260           ARG      0
   000110    000000 0000 00            261           ARG      0

 15:10 07/29/97  FILE=DXC$MISC.:E05TSI           DXC$MISC - DXC$SETUP                                    15   BMAP - B00
                                       262           TTL      DXC$MISC - DXC$SETUP
                                       263  *D*  NAME:  DXC$SETUP
                                       264  *D*  CALL:   CALL DXC$SETUP ALTRET(DICFAULT)
                                       265  *D*  DESCRIPTION:  TO CAPTURE SSR, DISABLE INTERRUPTS, INITIALIZE
                                       266  *D*                STATIC DATA AND GENERALLY PREPARE FOR THIS TRIP
                                       267  *D*                THROUGH DELTA
          (0)000000000111              268  DXC$SETUP  EQU    *
                                       269  * KEEP INHIBIT BIT ON UNTIL INTERUPTS ARE DISABLED
                                       270  *
                                       271           INHIB    ON
   000111    000000 2332 00            272           RMCM     0                 INTERRUPT MASK INTO AQ
   000112  X 000000 7572 00            273           STAQ     IMASKSAVE
   000113    000017 3752 07            274           ANA      =O17,DL           ZERO ALL CHANNELS
   000114    000017 3762 07            275           ANQ      =O17,DL
   000115    000000 5532 00            276           SMCM     0                 AQ INTO INTERRUPT MASK
                                       277           INHIB    OFF
                                       278  *
   000116  X 000000 2350 00            279           LDA      DIC             WAS DELTA IN CONTROL FOR THIS FAULT
   000117 (0)000247 6010 00            280           TNZ      D:ICFAULT       YES, TRANSFER
   000120    400000 2350 03            281           LDA      =O400000,DU     NO, SET DELTA-IN=CONTROL
   000121  X 000000 7550 00            282           STA      DIC
   000122  X 000000 2350 00            283           LDA      SAVEX0            X0 IS RECOVERY IN PROGRESS FLAG
   000123  X 000000 7550 00            284           STA      RECOVER
                                       285  *
   000124    006016 4734 07            286           LDP3     REALSID,DL        PUT CURRENT FAULT ENTRY INTO
   000125    006001 4744 07            287           LDP4     XDLSSID,DL        XDELTA'S LS
   000126    3 00032 2371 00           288           LDAQ     LOC32,,PR3
   000127    4 00044 7571 00           289           STAQ     XL.FLT*2,,PR4
   000130    3 00040 2371 00           290           LDAQ     LOC40,,PR3
   000131  X 000000 7570 00            291           STAQ     LOC40SAVE         SAVE FOR FANCY FAULT HANDLER
                                       292  *
                                       293  * POINT THE FAULT LOCATIONS (32 AND 40) TO MINI-DELTA
                                       294  *
   000132    006016 4734 07            295           LDP3     REALSID,DL
   000133  X 000000 2370 00            296           LDAQ     XDFAULTDESC       ENTRY DESC TO XDELTA
   000134  X 000000 2340 00            297           SZN      DX_DIC            TEST DIC ON FLAG
   000135 (0)000137 6040 00            298           TMI      DICON             NEG - DELTA IN CONTROL
 15:10 07/29/97  FILE=DXC$MISC.:E05TSI           DXC$MISC - DXC$SETUP                                    16   BMAP - B00
   000136  X 000000 2370 00            299           LDAQ     LOC32SAVE         GET MINI'S FAULT ENTRY DESC
   000137                              300  DICON    NULL
   000137    3 00032 7571 00           301           STAQ     LOC32,,PR3
   000140    3 00040 7571 00           302           STAQ     LOC40,,PR3
                                       303  *
                                       304  * SAVE THE SAFE STORE REGISTER IN LS11
                                       305  * LOAD SSR WITH XDELTA'S SAFE STORE
                                       306  *
   000141    006001 4724 07            307           LDP2     XDLSSID,DL
   000142    2 00026 7535 00           308           STSS     XL.MSS*2,,PR2
   000143    2 00004 7735 00           309           LDSS     XL.SSR*2,,PR2
                                       310  *
                                       311  * CHANGE MON SSR TO TYPE 0
                                       312  *
   000144    006013 4734 07            313           LDP3     MSSSID,DL
   000145    001761 4734 07            314           LDP3     CHNGTYPESID,DL
   000146    2 00050 0535 00           315           STD3     XL.MSSR0*2,,PR2
   000147    3 00034 2371 00           316           LDAQ     28,,PR3           GET CURRENT DR2 FROM SS
   000150    2 00060 7571 00           317           STAQ     XL.UDR2*2,,PR2  PUT IN DELTA'S LS
                                       318  *
                                       319  * INITIALIZE STATIC DATA
                                       320  *
   000151    006014 4734 07            321           LDP3     NILSID,DL
   000152  X 000000 4774 00            322           LDP7     S_D_FAULTCMD$$    PTR TO S_D.FAULTCMD$
   000153    7 00000 4535 00           323           STP3     0,,PR7
   000154  X 000000 4774 00            324           LDP7     S_D_FAULTINS$$
   000155    7 00000 4535 00           325           STP3     0,,PR7
   000156  X 000000 4500 00            326           STZ      DICFAULT
   000157  X 000000 4774 00            327           LDP7     S_D_IXFIX$
   000160    7 00000 4501 00           328           STZ      0,,PR7
   000161  X 000000 4774 00            329           LDP7     S_D_DO_SCAN$
   000162    7 00000 4501 00           330           STZ      0,,PR7           DO/SCAN SET TO 'OFF'
   000163  X 000000 4774 00            331           LDP7     S_D_ACCESS$
   000164    7 00000 4501 00           332           STZ      0,,PR7          ACCESS SET TO 'OFF'
   000165  X 000000 4774 00            333           LDP7     S_D_GO_MODE$
   000166    7 00000 4501 00           334           STZ      0,,PR7          GO_MODE SET TO 'OFF'
                                       335  * GET ASR AND PSR FROM SAFE STORE AND STORE IN XDEL LS,
 15:10 07/29/97  FILE=DXC$MISC.:E05TSI           DXC$MISC - DXC$SETUP                                    17   BMAP - B00
                                       336  * DESCRIPTORE 31 AND 32 RESPECTIVELY
   000167  X 000000 4734 00            337           LDP3     XUSS$             POINT TO SAFE STORE IN PR3
   000170    3 00012 2371 00           338           LDAQ     SSAS_SS,,PR3      GET ASR FROM SAFE STORE
   000171    2 00076 7571 00           339           STAQ     XL.ASR*2,,PR2   STORE ASR IN XDEL LS (DESC 31)
   000172    3 00016 2371 00           340           LDAQ     SSPS_SS,,PR3      GET PSR FROM SAFE STORE
   000173    2 00100 7571 00           341           STAQ     XL.PSR*2,,PR2   STORE PSR IN XDEL LS (DESC 32)
   000174    3 00010 2371 00           342           LDAQ      SSIS_SS,,PR3       GET ISR FROM SAFE STORE
                                       343  * SET WRITE BIT IN ISR TO PERMIT SETTING OF INHIBIT AT USERGO
   000175    040000 2750 07            344           ORA      =O40000,DL
   000176    2 00112 7571 00           345           STAQ     XL.SSISR*2,,PR2   STORE ISR IN XDEL LS (DESC 37)
                                       346  * SAVE THE WORKING SPACE REGISTERS
   000177  X 000000 7524 00            347           STWS     WSR0123           SAVE WSR0, 1, 2, 3
   000200  X 000001 7524 00            348           STWS     WSR4567           SAVE WSR4, 5, 6, 7
                                       349  *
   000201  X 000000 4774 00            350           LDP7     S_D_RETURNN$
   000202    7 00000 4501 00           351           STZ      0,,PR7
   000203    000000 7100 10            352           TRA      0,X0

 15:10 07/29/97  FILE=DXC$MISC.:E05TSI           DXC$MISC - DXC$USERGO                                   18   BMAP - B00
                                       353           TTL      DXC$MISC - DXC$USERGO
                                       354  *D*  NAME:   DXC$USERGO
                                       355  *D*  CALL:   CALL DXC$USERGO
                                       356  *D*  DESCRIPTION:  TO SET UP FOR A RETURN TO THE MONITOR..SET FAULT
                                       357  *D*                LOCATIONS.  RESTORE THE INTERRUPT MASK. RESTORE THE
                                       358  *D*                SSR.
          (0)000000000204              359  DXC$USERGO  EQU   *
                                       360  *
                                       361  * COPY GOIC INTO SAFE STORE
                                       362  *
   000204  X 000000 4774 00            363           LDP7     S_D_GOIC$         PTR TO S_D.GOIC
   000205    7 00000 7211 00           364           LXL1     0,,PR7            GET IC VALUE
   000206  X 000000 4774 00            365           LDP7     S_D_USS$$
   000207    7 00000 4735 00           366           LDP3     0,,PR7            PR3 POINTS TO MON SS (TYPE 0)
   000210    3 00004 7411 00           367           STX1     4,,PR3
                                       368  *
                                       369  * RESTORE WORKING SPACE REGISTERS
                                       370  *
   000211  X 000000 7724 00            371           LDWS     WSR0123
   000212  X 000001 7724 00            372           LDWS     WSR4567
                                       373  *
                                       374  *
                                       375  * CHANGE FAULT LOCATIONS TO XDELTA
                                       376  *
   000213    006022 4734 07            377           LDP3     XDFESID,DL
   000214    006016 4744 07            378           LDP4     REALSID,DL
   000215    4 00032 0535 00           379           STD3     LOC32,,PR4
   000216  X 000000 2370 00            380           LDAQ     LOC40SAVE
   000217    4 00040 7571 00           381           STAQ     LOC40,,PR4        PUT BACK FOR FANCY FAULT HANDLER
                                       382  *
                                       383  * RESTORE SSR
                                       384  *
   000220    006001 4734 07            385           LDP3     XDLSSID,DL
   000221    3 00026 7735 00           386           LDSS     XL.MSS*2,,PR3
                                       387  *
                                       388  * RESTORE INTERRUPT MASK
                                       389  *
 15:10 07/29/97  FILE=DXC$MISC.:E05TSI           DXC$MISC - DXC$USERGO                                   19   BMAP - B00
                                       390           INHIB    ON
   000222  X 000000 2372 00            391           LDAQ     IMASKSAVE
   000223    000000 5532 00            392           SMCM     0
   000224    000002 5326 00            393           CAMP     2                 CLEAR AM
   000225  X 000000 4716 00            394           LDP1     MLS$              GET MON LINKAGE SEGMENT
   000226    1 00254 6717 00           395           LDD1     LS.XDRTN*2,,1   ENTRY DESC INTO MON FAULT HANDLER
   000227  X 000000 4502 00            396           STZ      DIC             RESET DELTA-IN-CONTROL
   000230  X 000000 2352 00            397           LDA      FIRSTIME          CHECK FIRSTIME FLAG
   000231 (0)000244 6012 00            398           TNZ      TIMEFIRST         JUST "EXIT"
   000232  X 000000 4776 00            399           LDP7     S_D_RETURNN$
   000233    7 00000 2353 00           400           LDA      0,,PR7
   000234 (0)000240 6002 00            401           TZE      REGULAR
   000235 (0)000242 6042 00            402           TMI      QUIT
   000236    000000 7134 00            403           GOTO     =O1771,,0         LTRAD THROUGH DR1 PUT 0 IN X0
   000237    0 000 000 63 1771
                                       404  *
          (0)000000000240              405  REGULAR  EQU      *
   000240    000001 7134 00            406           GOTO     =O1771,,1         LTRAD THROUGH DR1 PUT 1 IN X0
   000241    0 000 000 63 1771
          (0)000000000242              407  QUIT     EQU      *
   000242    000002 7134 00            408           GOTO     =O1771,,2         LTRAD THRU DR1 PUT 2 IN X0
   000243    0 000 000 63 1771
          (0)000000000244              409  TIMEFIRST EQU     *
   000244  X 000000 4502 00            410           STZ      FIRSTIME          NOT FIRSTIME ANYMORE
   000245    000000 7134 00            411           EXIT                        EXIT TO TIGR
   000246    0 000 000 01 0000
                                       412           INHIB    OFF

 15:10 07/29/97  FILE=DXC$MISC.:E05TSI           DXC$MISC - D:ICFAULT                                    20   BMAP - B00
                                       413           TTL      DXC$MISC - D:ICFAULT
                                       414  *
                                       415  *  DELTA HAS FAULTED.  TRY TO DETERMINE REASON AND TAKE REASONABLE
                                       416  *  ACTION
                                       417  *  DELTA FAULTS ARE CLASSIFIED AS FOLLOWS:
                                       418  *  1.  ACCESS FAULT
                                       419  *    A.  DIAGNOSIS:  DELTA HAS ATTEMPTED TO ACCESS USER IN
                                       420  *        RESPONSE TO IF, MODIFY, DISPLAY, LET OR DUMP
                                       421  *        COMMAND.  THIS FAULT IS 'USUALLY' CAUSED BY THE USER
                                       422  *        REFERENCING INVALID LOCATIONS
                                       423  *    B. THERAPY:  RESET DELTA'S SAFE STORE AND TRANSFER TO ACCESS
                                       424  *        ERROR LOCATION
                                       425  *  2. DO/SCAN FAULT
                                       426  *    A.  DIAGNOSIS:  A DELTA BUG HAS OCCURRED DURING DO/SCAN PHASE
                                       427  *    B.  THERAPY: RESET DELTA'S SAFE STORE AND UNWIND  THE
                                       428  *        'REMEMBERED' AUTO FRAME AND LOCATION (S_D.REM_DO_SCAN)
                                       429  *  3.  HARD FAULT
                                       430  *    A.  DIAGNOSIS. A VERY BAD DELTA FAULT HAS OCCURRED
                                       431  *    B.  THERAPY:  FOR NOW TRY TO GET TO MINI_DELTA
                                       432  *
          (0)000000000247              433  D:ICFAULT EQU     *
                                       434  *
                                       435  * RESTORE AUTO POINTER AFTER FAULT
                                       436  *
   000247    006003 4724 07            437           LDP      AUTO,XDAUTOSID,DL     LOAD AUTO PTR
   000250    2 00000 7221 00           438           LXL2     0,,AUTO               NEG_CURR_FRAME_OFFSET_MINUS_1
   000251    2 00001 5274 12           439           SWDX     1,X2,AUTO             POINT TO CURRENT AUTO FRAME
   000252    006001 4744 07            440           LDP4     XDLSSID,DL      GET XDELTA'S LS
   000253    4 X 00000 7535 00         441           STSS     SCX1_OFF,,PR4   SAVE XD SS IN CASE OF HARD FAULT
   000254    006025 4734 07            442           LDP3     SCX1SID,DL
   000255    001761 4734 07            443           LDP3     CHNGTYPESID,DL  CHANGE TO TYPE 0
   000256    4 X 00000 0535 00         444           STD3     SCX1_OFF,,PR4
   000257    000002 2350 07            445           LDA      2,DL
   000260  X 000000 0550 00            446           ASA      DICFAULT
   000261    000003 1150 07            447           CMPA     3,DL            MORE THAN ONCE?
   000262 (0)000325 6000 00            448           TZE      HARD_FAULT      YES, TRANSFER
                                       449  * SAVE FAULT LOCATION AND FAULT CODE FROM DELTA'S SAFE STORE
 15:10 07/29/97  FILE=DXC$MISC.:E05TSI           DXC$MISC - D:ICFAULT                                    21   BMAP - B00
                                       450  *
   000263    3 00004 2351 00           451           LDA      4,,PR3            GET IC
   000264    000022 7710 00            452           ARL      18
   000265  X 000000 7550 00            453           STA      DEL_FAULTLOC
   000266    3 00005 2351 00           454           LDA      5,,PR3            GET FAULT CODE
   000267    000023 7710 00            455           ARL      19
   000270    000037 3750 07            456           ANA      =O37,DL
   000271  X 000000 7550 00            457           STA      DEL_FAULT
                                       458  *
                                       459  * IF THIS FAULT OCCURRED BECAUSE OF A PANEL XEQ, SET S_D. BREAK
                                       460  * AND RETURN TO DELTA.  DELTA WILL BREAK AT APPROPRIATE PLACES
                                       461  *
   000272    000017 1150 07            462           CMPA     =O17,DL         EXECUTE FAULT?
   000273 (0)000303 6010 00            463           TNZ      NOT_PANEL
   000274    400000 2350 03            464           LDA      =O400000,DU
   000275  X 000000 4774 00            465           LDP7     S_D_BREAK$
   000276    7 00000 7551 00           466           STA      0,,PR7          SET S_D.BREAK
   000277    777776 2350 07            467           LDA      -2,DL           DECREMENT FAULT COUNT
   000300  X 000000 0550 00            468           ASA      DICFAULT
   000301    000000 7134 00            469           EXIT                     RETURN TO DELTA
   000302    0 000 000 01 0000
                                       470  *
                                       471  *
                                       472  * SEE IF AN ACCESS FOR THE USER WAS IN PROGRESS
          (0)000000000303              473  NOT_PANEL  EQU    *
   000303  X 000000 4774 00            474           LDP7     S_D_ACCESS$
   000304    7 00000 2351 00           475           LDA      0,,PR7
   000305 (0)000314 6050 00            476           TPL      NOTACCESS
   000306    4 00004 7735 00           477           LDSS     XL.SSR*2,,PR4   RESET DELTA'S SAFE STORE
   000307  X 000000 4774 00            478           LDP7     S_D_REM_ACCESS$
   000310    7 00000 2371 00           479           LDAQ     0,,PR7
   000311  X 000000 4500 00            480           STZ      DICFAULT
   000312  X 000000 7000 00            481           TSX0     X66_AUNWIND            UNWIND BACK TO ACCESS CODE
   000313    000000 000000             482           ZERO     0
          (0)000000000314              483  NOTACCESS EQU     *
                                       484  * NOT ACCESS.  SEE IF ITS IN TH DO/SCAN PHASE
   000314  X 000000 4774 00            485           LDP7     S_D_DO_SCAN$
 15:10 07/29/97  FILE=DXC$MISC.:E05TSI           DXC$MISC - D:ICFAULT                                    22   BMAP - B00
   000315    7 00000 2351 00           486           LDA      0,,PR7
   000316 (0)000325 6050 00            487           TPL      HARD_FAULT      NO: ITS HARD FAULT
                                       488  * DELTA BUG DURING DO/SCAN.  UNWIND AUTO
   000317    4 00004 7735 00           489           LDSS     XL.SSR*2,,PR4   RESET DELTA'S SAFE STORE
   000320  X 000000 4774 00            490           LDP7     S_D_REM_DO_SCAN$
   000321    7 00000 2371 00           491           LDAQ     0,,PR7
   000322  X 000000 4500 00            492           STZ      DICFAULT
   000323  X 000000 7000 00            493           TSX0     X66_AUNWIND
   000324    000000 000000             494           ZERO     0
                                       495  * HARD FAULT
          (0)000000000325              496  HARD_FAULT  EQU   *
                                       497  * MOVE MINI-DELTA'S FAULT LOCS INTO 32, DO A DERAIL (LATER A 'DIS')
                                       498  * POINT THE FAULT LOCATIONS (32 AND 40) TO MINI-DELTA
                                       499  *
   000325  X 000000 2350 00            500           LDA      DICFAULT
   000326    000003 1150 07            501           CMPA     3,DL
   000327 (0)000334 6000 00            502           TZE      HARD_HARD
   000330  X 000000 6304 00            503           EPPR0    R_SFAULTT
   000331 (1)000002 6314 00            504           EPPR1    =V18/1,18/0
   000332  X 000000 7010 00            505           TSX1     DDR$REPORT
   000333    000000 0110 00            506           NOP      0
          (0)000000000334              507  HARD_HARD  EQU    *
   000334    006016 4734 07            508           LDP3     REALSID,DL
   000335  X 000000 2370 00            509           LDAQ     LOC32SAVE
   000336    3 00032 7571 00           510           STAQ     LOC32,,PR3
   000337    3 00040 7571 00           511           STAQ     LOC40,,PR3
                                       512  *  DO A DERAIL FOR NOW...UNTIL XDELTA IS MORE SOLID
   000340    777777 0020 00            513           DRL      -1
                                       514  *

 15:10 07/29/97  FILE=DXC$MISC.:E05TSI           DXC$MISC - DXC$GETIS                                    23   BMAP - B00
                                       515           TTL      DXC$MISC - DXC$GETIS
          (0)000000000341              516  DXC$GETIS  EQU    *
                                       517  *D* CALL DXC$GETIS(LS$)
                                       518  *D*   LS$ POINTS TO ONE OF THE FOUR LINKAGE SEGMENT DESCRIPTORS
                                       519  *D*   WHICH RESIDE IN XDELTA'S LINKAGE SEGMENT.  DXC$GETIS PULLS
                                       520  *D*   THE IS (I.E. DESCRIPTOR 0) OUT OF THE DESIGNATED LINKAGE SEGMENT
                                       521  *D*   AND STORES IT IN THE DESCRIPTOR POINTED TO BY SIS$.
                                       522  *
                                       523  *
   000341    0 00000 4715 00           524           LDP     PARG1,0,,PR0
                                       525  *                                 PR1 = POINTER TO LS$
   000342    1 00000 4715 00           526           LDP1     0,,PR1          LS DESCRIPTOR IN PR1
   000343    1 00000 6735 00           527           LDD3     0,,PR1          IS INTO PR3
   000344  X 000000 4714 00            528           LDP1     DLS$            XDELTA LS INTO PR1
   000345    1 00102 0535 00           529           STD3     XL.UISR*2,,PR1    STORE SELECTED IS DESCRIPTOR
   000346    040000 2360 07            530           LDQ      =O40000,DL      SET WRITE BIT
   000347    1 00102 2561 00           531           ORSQ     XL.UISR*2,,PR1
   000350    000001 7100 11            532           TRA      1,X1

 15:10 07/29/97  FILE=DXC$MISC.:E05TSI           DXC$MISC - DXC$SET_WSR7                                 24   BMAP - B00
                                       533           TTL      DXC$MISC - DXC$SET_WSR7
          (0)000000000351              534  DXC$SET_WSR7  EQU *
                                       535  *D*  CALL DXC$SET_WSR7(XDELWSQ OR USERWSQ)
                                       536  *
   000351    0 00000 4715 00           537           LDP      PARG1,0,,PR0
   000352  X 000001 2350 00            538           LDA      WSR4567           GET ORIGINAL WRS'S
   000353  X 000003 7550 00            539           STA      WSR7X
   000354    1 00000 2351 00           540           LDA      0,,PR1            GET PASSED VALUE (XDELWSQ OR USERWSQ)
   000355  X 000003 5510 04            541           STBA     WSR7X,4           STORE IN LOW BYTE OF WSR7X
   000356  X 000003 7724 00            542           LDWS     WSR7X             DO IT
   000357    000001 7100 11            543           TRA      1,X1

 15:10 07/29/97  FILE=DXC$MISC.:E05TSI           DXC$MISC - DXC$RESET_WSR7                               25   BMAP - B00
                                       544           TTL      DXC$MISC - DXC$RESET_WSR7
                                       545  *D* CALL DXC$RESET_WSR7
                                       546  *D* RESTORE WSR7 TO ITS ORIGINAL STATE
                                       547  *
          (0)000000000360              548  DXC$RESET_WSR7 EQU  *
   000360  X 000001 7724 00            549           LDWS     WSR4567
   000361    000001 7100 11            550           TRA      1,X1

 15:10 07/29/97  FILE=DXC$MISC.:E05TSI           DXC$MISC - DXC$MINI                                     26   BMAP - B00
                                       551           TTL      DXC$MISC - DXC$MINI
          (0)000000000362              552  DXC$MINI EQU      *
                                       553  *D* INVOKE MINI-DELTA BY DOING A DERAIL
                                       554  *D* AFTER INTERACTING WITH MINI-DELTA, THE USER
                                       555  *D* ISSUES A 'GO' TO MINI...WHICH RETURNS CONTROL TO XDELTA
                                       556  * RESTORE MIN'S FAULT LOCS
   000362    006016 4734 07            557           LDP3     REALSID,DL
   000363  X 000000 2370 00            558           LDAQ     LOC32SAVE
   000364    3 00032 7571 00           559           STAQ     LOC32,,PR3
   000365    3 00040 7571 00           560           STAQ     LOC40,,PR3
   000366    777777 0020 00            561           DRL      -1                'AARDVARK HERE'
                                       562  * RESTORE XDELTA'S FAULT LOCS
          (0)000000000367              563  RESETFLOC  EQU    *
   000367  X 000000 2350 00            564           LDA      DX_DIC            GET DIC FLAG
   000370 (0)000375 6050 00            565           TPL      DICOFF            NON-NEGATIVE - DIC OFF
   000371    006016 4734 07            566           LDP3     REALSID,DL
   000372  X 000000 2370 00            567           LDAQ     XDFAULTDESC
   000373    3 00032 7571 00           568           STAQ     LOC32,,PR3
   000374    3 00040 7571 00           569           STAQ     LOC40,,PR3
          (0)000000000375              570  DICOFF   EQU      *
   000375    006001 4744 07            571           LDP4     XDLSSID,DL     RESET DELTA'S SAFE STORE
   000376    4 00004 7735 00           572           LDSS     XL.SSR*2,,PR4
   000377    000001 7100 11            573           TRA      1,X1

 15:10 07/29/97  FILE=DXC$MISC.:E05TSI           DXC$MISC - DXA$QUIT                                     27   BMAP - B00
                                       574           TTL      DXC$MISC - DXA$QUIT
          (0)000000000400              575  DXA$QUIT  EQU     *
                                       576  *D*  DO ROUTINE FOR QUIT COMMAND
   000400  X 000000 4774 00            577           LDP7     S_D_RETURNN$
   000401    400000 2350 03            578           LDA      =O400000,DU       FLAG FOR USERGO
   000402    7 00000 7551 00           579           STA      0,,PR7            SET X0=2 FOR LTRAD TO RECOVER/FLT HAND
   000403    000000 7100 11            580           TRA      0,X1              ALTRET TO CALL USERGO

 15:10 07/29/97  FILE=DXC$MISC.:E05TSI           DXC$MISC - DXA$DBOOT                                    28   BMAP - B00
                                       581           TTL      DXC$MISC - DXA$DBOOT
          (0)000000000404              582  DXA$DBOOT  EQU    *
                                       583  *D*  DO ROUTINE FOR DBOOT COMMAND
   000404    006016 4734 07            584           LDP3     REALSID,DL
   000405  X 000000 2370 00            585           LDAQ     LOC32SAVE
   000406    3 00032 7571 00           586           STAQ     LOC32,,PR3
   000407    777773 0020 00            587           DRL      -5                REQUEST  FOR DISC BOOT

 15:10 07/29/97  FILE=DXC$MISC.:E05TSI           DXC$MISC - DXA$TBOOT                                    29   BMAP - B00
                                       588           TTL      DXC$MISC - DXA$TBOOT
          (0)000000000410              589  DXA$TBOOT  EQU    *
                                       590  *D*  DO ROUTINE FOR TBOOT COMMAND
   000410    006016 4734 07            591           LDP3     REALSID,DL
   000411  X 000000 2370 00            592           LDAQ     LOC32SAVE
   000412    3 00032 7571 00           593           STAQ     LOC32,,PR3
   000413    777775 0020 00            594           DRL      -3                REQUEST  FOR TAPE BOOT

 15:10 07/29/97  FILE=DXC$MISC.:E05TSI           DXC$MISC - DXC$EOP                                      30   BMAP - B00
                                       595           TTL      DXC$MISC - DXC$EOP
          (0)000000000414              596  DXC$EOP  EQU      *
   000414    006016 4734 07            597           LDP3     REALSID,DL
   000415  X 000000 2370 00            598           LDAQ     LOC32SAVE
   000416    3 00032 7571 00           599           STAQ     LOC32,,PR3
   000417    3 00040 7571 00           600           STAQ     LOC40,,PR3
   000420    777774 0020 00            601           DRL      -4                REQUEST  TO WRITE OUT PATCHED MONITOR
   000421 (0)000423 7100 00            602           TRA      DISKBOOT
   000422 (0)000367 7100 00            603           TRA      RESETFLOC
          (0)000000000423              604  DISKBOOT EQU      *
   000423    004210 6340 07            605         LDI     =O4210,DL       OVMSK, MM, FLOX
   000424    000000 2330 00            606         RMCM    0
   000425  X 000000 7570 00            607         STAQ    IMASKSAVE       SAVE PORT ENABLE MASK FOR EXIT
   000426    000017 3750 07            608         ANA     =O17,DL
   000427    000017 3760 07            609         ANQ     =O17,DL
   000430    000000 5530 00            610         SMCM    0               DISABLE
   000431    006016 4734 07            611         LDP3    REALSID,DL
   000432  X 000000 2370 00            612         LDAQ    XDFAULTDESC     SET FAULT ENTRY DSCR TO GO
   000433    3 00032 7571 00           613         STAQ    LOC32,,PR3      TO XDELTA
   000434    3 00040 7571 00           614         STAQ    LOC40,,PR3
   000435  X 000000 4704 00            615           LDP0     S_D_REM_DISKBOOT$
   000436    0 00000 2371 00           616           LDAQ     0,,PR0
   000437  X 000000 7000 00            617           TSX0     X66_AUNWIND
   000440    000000 000000             618           ZERO     0

 15:10 07/29/97  FILE=DXC$MISC.:E05TSI           DXC$MISC - DXC$XDELWSQ - DXC$USERWSQ - DXC$CAMP2        31   BMAP - B00
                                       619           TTL      DXC$MISC - DXC$XDELWSQ - DXC$USERWSQ - DXC$CAMP2
          (0)000000000441              620  DXC$XDELWSQ EQU      *
   000441    0 00000 4715 00           621           LDP      PARG1,0,,PR0
   000442    000002 2200 03            622           LDX0     2,DU              XDELWSQ
   000443 (0)000446 7100 00            623           TRA      WSQXORU
          (0)000000000444              624  DXC$USERWSQ EQU      *
   000444    0 00000 4715 00           625           LDP      PARG1,0,,PR0
   000445    000010 2200 03            626           LDX0     8,DU              USERWSQ
   000446  X 000000 4704 00            627  WSQXORU  LDP0     MLS$              MONITOR LS
   000447    0 00000 6705 00           628           LDD0     0,,PR0            MONITOR IS (MAPPED MONWSQ)
   000450    1 00000 7221 00           629           LXL2     0,,PARG1          APT AS PASSED
   000451    0 00000 7421 10           630           STX2     0,X0,PR0          STORE INTO WORD XDELWSQ OR USERWSQ OF MON IS
          (0)000000000452              631  DXC$CAMP2  EQU    *
   000452    000002 5324 00            632           CAMP     2                 CLEAR AM
   000453    000001 7100 11            633           TRA      1,X1              RETURN

 15:10 07/29/97  FILE=DXC$MISC.:E05TSI           DXC$MISC - DDC$PUTONE                                   32   BMAP - B00
                                       634           TTL      DXC$MISC - DDC$PUTONE
                                       635  *D* CALL DDC$PUTONE(WHERE$,WHAT) ALTRET(BAD_WHERE$)
                                       636  *D* BEFORE A DEPOSIT CAN BE MADE INTO A MAPPED SEGMENT, THE
                                       637  *D* PAGE TABE ENTRY FOR THE PAGE WHICH CONTAINS THE DEPOSIT MUST
                                       638  *D* HAVE THE WRITE ACCESS BIT SET ON.  AFTER THE DEPOSIT IS MADE,
                                       639  *D* THAT ENTRY IS RESTORED TO ITS ORIGINAL STATE
                                       640  *
          (0)000000000454              641  DDC$PUTONE EQU    *
   000454    0 00000 4715 00           642           LDP      PARG1,0,,PR0         PR1 = PTR->WHERE$
   000455    0 00001 4735 00           643           LDP      PARG2,1,,PR0      PR3=PTR->WHAT
   000456    1 00000 2221 00           644           LDX2     0,,PR1            Word offset from PTR value
   000457    1 00000 4715 00           645           LDP1     0,,PR1          GET DESCRIPTOR IN PR1
   000460    3 00000 2351 00           646           LDA      0,,PR3            GET 'WHAT' IN A
   000461  X 000000 4734 00            647           LDP3     DLS$              GET DELTA LS IN PR3
   000462    3 X 00000 0515 00         648           STD1     SCX1_OFF,,PR3   STORE DESCRIPTOR IN SCRATCH
   000463    3 X 00000 1021 00         649           CMPX2    SCX1_OFF,,PR3     Compare to bound
   000464 (0)000536 6030 00            650           TRC      MISSING_PAGE      Offset past Bound
   000465    3 X 00000 2361 00         651           LDQ      SCX1_OFF,,PR3
   000466    000015 3160 07            652           CANQ     =O15,DL           TYPE 0 OR TYPE 2?
   000467 (0)000531 6010 00            653           TNZ      NOT_0_OR_2
                                       654  * ITS TYPE 0 OR 2 (I.E., WSR OR WSQ OPERAND STORAGE)
                                       655  * CHECK WHICH ONE
   000470    000002 3160 07            656           CANQ     2,DL
   000471 (0)000524 6010 00            657           TNZ      TYPE2             TRANSFER IF ITS WSQ
                                       658  * ITS WSR
   000472    000160 3760 07            659           ANQ      7*16,DL           ISOLATE THE WSR
   000473    000040 1160 07            660           CMPQ     2*16,DL           SEE IF ITS WSR2
   000474 (0)000527 6000 00            661           TZE      STORE_IT          WSR2 MEANS ITS REAL - RETURN
          (0)000000000475              662  COMP_PAGE EQU     *                 COMPUTE PAGE NO OF THE ITEM
   000475    3 X 00001 2361 00         663           LDQ      SCX1_OFF+1,,PR3   BASE INTO Q
   000476    000002 7720 00            664           QRL      2                 WORD ADDRESS OF BASE
   000477  X 000000 7560 00            665           STQ      TEMP0
   000500    3 X 00001 4501 00         666           STZ      SCX1_OFF+1,,PR3   BASE = 0
   000501    001777 6220 00            667           EAX2     1023              BOUND = 1 PAGE
   000502    3 X 00000 7421 00         668           STX2     SCX1_OFF,,PR3
   000503  X 000000 4734 00            669           LDP3     SCX1$             PR3 NOW FRAMES THE PAGE TABLE
   000504  X 000001 4514 00            670           STP1     TEMP0+1         CONSIDER THE AR PORTION OF WHERE$
 15:10 07/29/97  FILE=DXC$MISC.:E05TSI           DXC$MISC - DDC$PUTONE                                   33   BMAP - B00
   000505  X 000001 2360 00            671           LDQ      TEMP0+1
   000506    000022 7720 00            672           QRL      18                (Q)=WORD DISPLACEMENT INTO SEGMENT
   000507  X 000000 0760 00            673           ADQ      TEMP0             (Q)=WORD DISPLACEMENT INTO WSQ
   000510    000012 7720 00            674           QRL      10                (Q)=PAGE NO. WITHIN THE WSQ
   000511    000000 6220 06            675           EAX2     0,QL              (X2) = INDEX INTO PAGE TABLE
   000512    3 00000 7231 12           676           LXL3     0,X2,PR3          GET FLAGS OUT OF THE PAGETABLE
                                       677  *                                   ENTRY OF INTEREST
   000513    000040 3030 03            678           CANX3    =O40,DU           CHECK PAGE PRESENT BIT
   000514 (0)000536 6000 00            679           TZE      MISSING_PAGE
   000515    000020 2360 07            680           LDQ      =O20,DL           CREATE WRITE ACCESS BIT/
   000516    3 00000 2561 12           681           ORSQ     0,X2,PR3          STICK BIT IN PAGE TABLE ENTRY
   000517    000002 5324 00            682           CAMP     2                 CLEAR AM
   000520    1 00000 7551 00           683           STA      0,,PR1            DO IT!!!!!
   000521    3 00000 4431 12           684           SXL3     0,X2,PR3          RESTORE THE FLAGS
   000522    000002 5324 00            685           CAMP     2                 CLEAR AM
   000523    000001 7100 11            686           TRA      1,X1
          (0)000000000524              687  TYPE2    EQU      *
   000524    017760 3160 07            688           CANQ     511*16,DL         ISOLATE THE WSQ#
                                       689  *  NOTE:  511*16 IS 9 '1'BITS SHIFTED LEFT 4 PLACES.  (WSQ# FIELD)
   000525 (0)000527 6000 00            690           TZE      STORE_IT          TRANSFER IF WSQ#=0 (UNMAPPED)
   000526 (0)000475 7100 00            691           TRA      COMP_PAGE         GO DO THE WRITE BIT FIX
          (0)000000000527              692  STORE_IT EQU      *
   000527    1 00000 7551 00           693           STA      0,,PR1
   000530    000001 7100 11            694           TRA      1,X1
          (0)000000000531              695  NOT_0_OR_2 EQU   *
   000531    001131 2350 07            696           LDA      BADPUT1,DL
          (0)000000000532              697  ALTRET   EQU      *
   000532  X 000000 4774 00            698           LDP7     S_D$
   000533  X 000000 4774 00            699           LDP7     S_D_ERROR$
   000534    7 00000 7551 00           700           STA      0,,PR7
   000535    000000 7100 11            701           TRA      0,X1              ALTRET
          (0)000000000536              702  MISSING_PAGE EQU  *
   000536    001132 2350 07            703           LDA      BADPUT2,DL
   000537 (0)000532 7100 00            704           TRA      ALTRET

 15:10 07/29/97  FILE=DXC$MISC.:E05TSI           DXC$MISC - DXC$PTREND                                   34   BMAP - B00
                                       705           TTL      DXC$MISC - DXC$PTREND
                                       706  *D* NAME:  DXC$PTREND
                                       707  *D* CALL:  CALL DXG$PTREND(PTR$,BEYOND$)
                                       708  *D* INPUT: PTR$ POINTS INTO A SEGMENT
                                       709  *D* OUTPUT: BEYOND$ POINTS TO THE FIRST WORD BEYOND
                                       710  *D*        THE SEGMENT
          (0)000000000540              711  DXC$PTREND EQU    *
   000540    0 00000 4715 00           712           LDP      PARG1,0,,PR0    PR1 = PTR TO PTR$
   000541    0 00001 4735 00           713           LDP      PARG2,1,,PR0    PR3 = PTR TO BEYOND$
   000542    1 00000 4715 00           714           LDP1     0,,PR1          PTR$IN DR1
   000543  X 000000 0514 00            715           STD1     TEMP0           STORE DESCRIPTOR
   000544    000001 6270 00            716           EAX7     1
   000545  X 000000 0470 00            717           ASX7     TEMP0             BUMP BOUND (AT WORD LEVEL)
   000546  X 000000 4470 00            718           SXL7     TEMP0             ZAP BITS 18-23
   000547  X 000000 7614 00            719           LAR1     TEMP0           GET BOUND (+1) IN AR1
   000550    3 00000 4515 00           720           STP1     0,,PR3          DEPOSIT PT5 IN BEYOND$
   000551    000001 7100 11            721           TRA      1,1

 15:10 07/29/97  FILE=DXC$MISC.:E05TSI           DXC$MISC - DXA$GETMPTR                                  35   BMAP - B00
                                       722           TTL      DXC$MISC - DXA$GETMPTR
                                       723  *   CALL DXA$GETMPTR(MPTR$, DPTR$);
                                       724  *      MPTR$ IS MONITOR LS PTR
                                       725  *      DPTR$ IS RETURNED AS SCX1$ WITH WORD OFFSET FROM MPTR$, DESC SETUP
                                       726  *
          (0)000000000552              727  DXA$GETMPTR  EQU  *
   000552    0 00000 4715 00           728           LDP      PARG1,0,,PR0
   000553    0 00001 4735 00           729           LDP      PARG2,1,,PR0
   000554    1 00000 2351 00           730           LDA      0,,PARG1          GET MPTR$
   000555    3 00000 7551 00           731           STA      0,,PARG2          MOVE TO DPTR$ TO GET OFFSET
   000556    001777 3750 07            732           ANA      =O1777,DL         GET DESC#
   000557    000001 7350 00            733           ALS      1                 WANT WORD OFFSET
   000560  X 000000 4744 00            734           LDP4     DLS$              PTR TO DELTA'S LS
   000561  X 000000 4754 00            735           LDP5     MLS2$             PTR TO MON LS
   000562    5 00000 2371 05           736           LDAQ     0,AL,PR5          PICK MONITOR'S DESC
   000563    4 X 00000 7571 00         737           STAQ     SCX1_OFF,,PR4     PUT IT IN SCX1$ SLOT OF XDLS
   000564  X 000000 7220 00            738           LXL2     SCX1$             GET CORRECT SEGID
   000565    3 00000 4421 00           739           SXL2     0,,PARG2          PUT IT INTO DPTR$
   000566    000001 7100 11            740           TRA      1,X1

 15:10 07/29/97  FILE=DXC$MISC.:E05TSI           DXC$MISC - DUX$BREAK                                    36   BMAP - B00
                                       741           TTL      DXC$MISC - DUX$BREAK
   000567    000000 000000             742  DUX$BREAK ZERO    0                *N* DDA$DELTA,DXA$DELTA

 15:10 07/29/97  FILE=DXC$MISC.:E05TSI           DXC$MISC - DXC$PATCHENT                                 37   BMAP - B00
                                       743           TTL      DXC$MISC - DXC$PATCHENT
                                       744  *D*  THIS IS THE START ADDRESS SUPPLIED BY DEF TO THE PO TAPE
                                       745  *D*  AARDVARK PLACES THE VALUE DXC$PATCHENT INTO XDELTA'S SAFE STORE
                                       746  *D*  IC AND PERFORMS A RET THROUGH THAT FRAME
                                       747  *D*
          (0)000000                    748           END      DXC$PATCHENT
 1 000000    000003000000
   000001    000000000000
   000002    000001000000

  CONTROL SECTION TABLE

   0 CODE   EVEN  000570 DXC$MISC
   1 RODATA EVEN  000003 LITERALS

 15:10 07/29/97  FILE=DXC$MISC.:E05TSI        SYMBOL TABLE                                               38   BMAP - B00
 41101000 000000000532 ALTRET        *697       704
 41000000 000000000002 AUTO          *105       221       255       437       438       439
 01101000 000000000072 AUTO$          232      *235
 03301001 000000000000 AUTOSIZEW      *36       151       233
 03301000 000000000000 AUTOSTART      *35       147
 41000000 000000001131 BADPUT1        *97       696
 41000000 000000001132 BADPUT2        *99       703
 41000000 000000001761 CHNGTYPESID    *72       164       172       178       314       443
 41101000 000000000475 COMP_PAGE     *662       691
 41101000 000000000247 D:ICFAULT      280      *433
 52101000 000000000454 DDC$PUTONE      17      *641
 03201002 000000000000 DDR$REPORT     *31       505
 03301020 000000000000 DEL_FAULT      *58       457
 03301021 000000000000 DEL_FAULTLOC   *59       453
 03301018 000000000000 DIC            *56       191       279       282       396
 03301019 000000000000 DICFAULT       *57       326       446       468       480       492       500
 41101000 000000000375 DICOFF         565      *570
 01101000 000000000137 DICON          298      *300
 41101000 000000000423 DISKBOOT       602      *604
 03301006 000000000000 DLS$           *41       528       647       734
 12101000 000000000567 DUX$BREAK       27      *742
 52101000 000000000404 DXA$DBOOT       24      *582
 03201001 000000000000 DXA$FAULTENT   *30       259
 52101000 000000000552 DXA$GETMPTR     23      *727
 03201000 000000000000 DXA$PATCHENT   *29       226
 52101000 000000000400 DXA$QUIT        19      *575
 52101000 000000000410 DXA$TBOOT       25      *589
 52101000 000000000452 DXC$CAMP2       22      *631
 52101000 000000000414 DXC$EOP         26      *596
 41101000 000000000074 DXC$FAULTENT   161      *244
 52101000 000000000341 DXC$GETIS       13      *516
 52101000 000000000362 DXC$MINI        16      *552
 52101000 000000000000 DXC$MISC        11      *127
 41101000 000000000000 DXC$PATCHENT  *138       748
 52101000 000000000540 DXC$PTREND      18      *711
 52101000 000000000360 DXC$RESET_WSR7            15      *548
 41101000 000000000111 DXC$SETUP      213       249      *268
 15:10 07/29/97  FILE=DXC$MISC.:E05TSI        SYMBOL TABLE                                               39   BMAP - B00
 52101000 000000000351 DXC$SET_WSR7    14      *534
 52101000 000000000204 DXC$USERGO      12      *359
 52101000 000000000444 DXC$USERWSQ     21      *624
 52101000 000000000441 DXC$XDELWSQ     20      *620
 03301022 000000000000 DX_DIC         *60       297       564
 03301010 000000000000 D_CPU_TYPE     *45       141
 03301024 000000000000 FIRSTIME       *62       397       410
 41101000 000000000325 HARD_FAULT     448       487      *496
 41101000 000000000334 HARD_HARD      502      *507
 03301003 000000000000 IMASKSAVE      *38       273       391       607
 01101000 000000000073 INITPR2$       221       234      *236       255
 02301025 000000000000 IOBUF          *63
 41000000 000000000032 LOC32         *102       196       203       288       301       379       510
                                      559       568       586       593       599       613
 03301004 000000000000 LOC32SAVE      *39       197       299       509       558       585       592
                                      598
 41000000 000000000040 LOC40         *103       204       290       302       381       511       560
                                      569       600       614
 03301005 000000000000 LOC40SAVE      *40       291       380
 41000000 000000000155 LS.AARDV      *122
 41000000 000000000156 LS.AARDV2     *122
 41000000 000000000033 LS.ASLLS      *122
 41000000 000000000053 LS.ASR        *122
 41000000 000000000002 LS.BUF        *122
 41000000 000000000161 LS.BUFCACH    *122
 40000000 000000000004 LS.CFU        *122
 41000000 000000000164 LS.CGCTXT     *122
 41000000 000000000163 LS.CGPT       *122
 41000000 000000000075 LS.CPGT1      *122
 41000000 000000000034 LS.CPLS       *122
 41000000 000000000055 LS.CWSQ1      *122
 41000000 000000000032 LS.DBLS       *122
 41000000 000000000004 LS.DS1        *122
 41000000 000000000005 LS.DS2        *122
 41000000 000000000006 LS.DS3        *122
 41000000 000000000007 LS.DS4        *122
 41000000 000000000010 LS.DS5        *122
 15:10 07/29/97  FILE=DXC$MISC.:E05TSI        SYMBOL TABLE                                               40   BMAP - B00
 41000000 000000000011 LS.DS6        *122
 41000000 000000000012 LS.DS7        *122
 41000000 000000000013 LS.DS8        *122
 40000000 000000000202 LS.DVT        *122
 41000000 000000000016 LS.ECCB       *122
 41000000 000000000157 LS.FIRM       *122
 40000000 000000000155 LS.FLT        *122
 41000000 000000000045 LS.HJITU      *122
 41000000 000000000162 LS.IMX        *122
 41000000 000000000122 LS.IOEND      *122
 41000000 000000000176 LS.IPHY_MAP   *122
 41000000 000000000000 LS.IS         *122
 41000000 000000000050 LS.ISB        *122
 41000000 000000000115 LS.JITPG      *122
 41000000 000000000001 LS.JITU       *122
 40000000 000000000013 LS.LDCT       *122
 41000000 000000000134 LS.LDCTNC     *122
 41000000 000000000121 LS.LOWMEM     *122
 41000000 000000000167 LS.MAGAS      *122
 41000000 000000000172 LS.MAGECCB    *122
 41000000 000000000166 LS.MAGLS      *122
 41000000 000000000170 LS.MAGPS      *122
 41000000 000000000165 LS.MAGSS      *122
 41000000 000000000171 LS.MAGTCB     *122
 41000000 000000000043 LS.MHJIT      *122
 41000000 000000000177 LS.MINIQ_ENT  *122
 41000000 000000000054 LS.MISC       *122
 41000000 000000000130 LS.MISC2      *122
 41000000 000000000042 LS.MJIT       *122
 41000000 000000000035 LS.MLS        *122
 41000000 000000000132 LS.MLS1       *122
 41000000 000000000173 LS.MLSREAD    *122
 40000000 000000000156 LS.MONRL      *122
 41000000 000000000044 LS.MONSSS     *122
 41000000 000000000120 LS.MOUSE      *122
 41000000 000000000037 LS.MPT        *122
 41000000 000000000145 LS.MSTRHJ     *122
 15:10 07/29/97  FILE=DXC$MISC.:E05TSI        SYMBOL TABLE                                               41   BMAP - B00
 41000000 000000000135 LS.MSTRPT     *122
 41000000 000000000041 LS.MTSTACK    *122
 41000000 000000000014 LS.NULL       *122
 41000000 000000000027 LS.PMME       *122
 41000000 000000000116 LS.PPUT       *122
 41000000 000000000131 LS.RCVENT     *122
 41000000 000000000127 LS.RCVRTN     *122
 41000000 000000000021 LS.REAL       *122
 41000000 000000000030 LS.REG        *122
 41000000 000000000124 LS.RONC       *122
 41000000 000000000003 LS.ROSEG      *122
 41000000 000000000125 LS.ROSEG8     *122
 41000000 000000000046 LS.SBUF1      *122
 41000000 000000000047 LS.SBUF2      *122
 41000000 000000000025 LS.SCR        *122
 41000000 000000000051 LS.SCU        *122
 41000000 000000000174 LS.SEGTBL     *122
 41000000 000000000146 LS.SLV1HJ     *122
 41000000 000000000136 LS.SLV1PT     *122
 41000000 000000000147 LS.SLV2HJ     *122
 41000000 000000000137 LS.SLV2PT     *122
 41000000 000000000150 LS.SLV3HJ     *122
 41000000 000000000140 LS.SLV3PT     *122
 41000000 000000000151 LS.SLV4HJ     *122
 41000000 000000000141 LS.SLV4PT     *122
 41000000 000000000152 LS.SLV5HJ     *122
 41000000 000000000142 LS.SLV5PT     *122
 41000000 000000000153 LS.SLV6HJ     *122
 41000000 000000000143 LS.SLV6PT     *122
 41000000 000000000154 LS.SLV7HJ     *122
 41000000 000000000144 LS.SLV7PT     *122
 41000000 000000000017 LS.TCB        *122
 41000000 000000000123 LS.TIGR       *122
 41000000 000000000020 LS.TSTACK     *122
 41000000 000000000031 LS.ULS        *122
 41000000 000000000036 LS.UPT        *122
 41000000 000000000023 LS.USDS0      *122
 15:10 07/29/97  FILE=DXC$MISC.:E05TSI        SYMBOL TABLE                                               42   BMAP - B00
 41000000 000000000024 LS.USDS1      *122
 41000000 000000000040 LS.USRIS      *122
 41000000 000000000022 LS.USSS       *122
 41000000 000000000117 LS.VPT        *122
 41000000 000000000052 LS.WINDOW     *122
 41000000 000000000133 LS.WS3MLS     *122
 41000000 000000000160 LS.WS3MLSNW   *122
 41000000 000000000175 LS.WSQ0PT     *122
 41000000 000000000026 LS.XD         *122       166
 41000000 000000000126 LS.XDRTN      *122       395
 41000000 000000000201 LS.XLALT      *122
 41000000 000000000015 LS.XLAT       *122
 41000000 000000000200 LS.XLNORM     *122
 41101000 000000000536 MISSING_PAGE   650       679      *702
 03301012 000000000000 MLS$           *50       163       394       627
 03301013 000000000000 MLS2$          *51       735
 41000000 000000006013 MSSSID         *68       171       313
 41000000 000000006014 NILSID         *69       321
 41101000 000000000314 NOTACCESS      476      *483
 41101000 000000000531 NOT_0_OR_2     653      *695
 41101000 000000000303 NOT_PANEL      463      *473
 41000000 000000000001 PARG1         *114       524       537       621       625       629       642
                                      712       728       730
 41000000 000000000003 PARG2         *115       643       713       729       731       739
 41000000 000000000000 PR0           *106       524       537       616       621       625       628
                                      630       642       643       712       713       728       729
 41000000 000000000001 PR1           *107       526       527       529       531       540       644
                                      645       683       693       714
 41000000 000000000002 PR2           *108       149       150       153       157       159       160
                                      162       165       173       179       208       212       308
                                      309       315       317       339       341       345
 41000000 000000000003 PR3           *109       166       188       196       288       290       301
                                      302       316       338       340       342       367       386
                                      451       454       510       511       559       560       568
                                      569       586       593       599       600       613       614
                                      646       648       649       651       663       666       668
                                      676       681       684       720
 15:10 07/29/97  FILE=DXC$MISC.:E05TSI        SYMBOL TABLE                                               43   BMAP - B00
 41000000 000000000004 PR4           *110       203       204       289       379       381       441
                                      444       477       489       572       737
 41000000 000000000005 PR5           *111       736
 40000000 000000000006 PR6           *112
 41000000 000000000007 PR7           *113       184       186       190       323       325       328
                                      330       332       334       351       364       366       400
                                      466       475       479       486       491       579       700
 01101000 000000000067 PTRLIST        217      *232       251
 41101000 000000000242 QUIT           402      *407
 41000000 000000006016 REALSID        *70       195       202       286       295       378       508
                                      557       566       584       591       597       611
 03301011 000000000000 RECOVER        *46       284
 41101000 000000000240 REGULAR        401      *405
 41101000 000000000367 RESETFLOC     *563       603
 03301017 000000000000 R_SFAULTT      *55       503
 03301009 000000000000 SAVEX0         *44       140       247       248       283
 03301014 000000000000 SCX1$          *52       669       738
 41000000 000000006025 SCX1SID        *73       442
 03301016 000000000000 SCX1_OFF       *54       441       444       648       649       651       663
                                      666       668       737
 41000000 000000000012 SSAS_SS        *94       338
 41000000 000000000010 SSIS_SS        *93       342
 41000000 000000000016 SSPS_SS        *95       340
 41101000 000000000527 STORE_IT       661       690      *692
 03301002 000000000000 S_D$           *37       698
 03301033 000000000000 S_D_ACCESS$    *84       331       474
 03301038 000000000000 S_D_BREAK$     *89       465
 03301034 000000000000 S_D_DO_SCAN$   *85       329       485
 03301031 000000000000 S_D_ERROR$     *82       699
 03301029 000000000000 S_D_FAULTCMD$$           *80       322
 03301028 000000000000 S_D_FAULTINS$$           *79       324
 03301026 000000000000 S_D_GOIC$      *77       183       363
 03301035 000000000000 S_D_GO_MODE$   *86       333
 03301032 000000000000 S_D_IXFIX$     *83       327
 03301037 000000000000 S_D_REM_ACCESS$          *88       478
 03301040 000000000000 S_D_REM_DISKBOOT$        *91       615
 03301036 000000000000 S_D_REM_DO_SCAN$         *87       490
 15:10 07/29/97  FILE=DXC$MISC.:E05TSI        SYMBOL TABLE                                               44   BMAP - B00
 03301030 000000000000 S_D_RETURNN$   *81       350       399       577
 03301027 000000000000 S_D_SAVEIC$    *78       185       189
 03301039 000000000000 S_D_USS$$      *90       365
 03301015 000000000000 TEMP0          *53       665       670       671       673       715       717
                                      718       719
 41101000 000000000244 TIMEFIRST      398      *409
 41101000 000000000524 TYPE2          657      *687
 01101000 000000000446 WSQXORU        623      *627
 03301008 000000000000 WSR            *43        47
 41301008 000000000000 WSR0123        *47        48        49       347       371
 41301008 000000000001 WSR4567        *48       348       372       538       549
 41301008 000000000003 WSR7X          *49       539       541       542
 03201003 000000000000 X66_AUNWIND    *32       481       493       617
 03201004 000000000000 X66_MSTATIC    *33       219       253
 41000000 000000006003 XDAUTOSID      *67       235       437
 03301023 000000000000 XDFAULTDESC    *61       167       296       567       612
 41000000 000000006022 XDFESID        *71       201       377
 41000000 000000006001 XDLSSID        *65       143       287       307       385       440       571
 41000000 000000006002 XDSSSID        *66       177
 41000000 000000000027 XL.AENT       *120
 41000000 000000000065 XL.ASCH       *120
 41000000 000000000066 XL.ASCH0      *120
 41000000 000000000067 XL.ASCH1      *120
 41000000 000000000100 XL.ASCH10     *120
 41000000 000000000101 XL.ASCH11     *120
 41000000 000000000070 XL.ASCH2      *120
 41000000 000000000071 XL.ASCH3      *120
 41000000 000000000072 XL.ASCH4      *120
 41000000 000000000073 XL.ASCH5      *120
 41000000 000000000074 XL.ASCH6      *120
 41000000 000000000075 XL.ASCH7      *120
 41000000 000000000076 XL.ASCH8      *120
 41000000 000000000077 XL.ASCH9      *120
 41000000 000000000101 XL.ASCHLAST   *120
 41000000 000000000035 XL.ASLLS      *120
 41000000 000000000037 XL.ASR        *120       339
 41000000 000000000003 XL.AUTO       *120       150       153
 15:10 07/29/97  FILE=DXC$MISC.:E05TSI        SYMBOL TABLE                                               45   BMAP - B00
 41000000 000000000036 XL.CPLS       *120
 41000000 000000000034 XL.DBLS       *120
 41000000 000000000006 XL.DEF        *120
 41000000 000000000064 XL.DEF1       *120
 40000000 000000000103 XL.DEFDIR     *120
 41000000 000000000004 XL.ENT        *120
 41000000 000000000062 XL.ENT1       *120
 41000000 000000000022 XL.FLT        *120       157       160       162       165       289
 41000000 000000000032 XL.HJITU      *120
 41000000 000000000000 XL.ISR        *120       149       232       233       234
 41000000 000000000031 XL.JITU       *120
 41000000 000000000001 XL.LSR        *120       159
 41000000 000000000020 XL.MAP256     *120
 41000000 000000000021 XL.MAPX       *120
 41000000 000000000044 XL.MHJIT      *120
 41000000 000000000015 XL.MINIQ      *120
 41000000 000000000012 XL.MIS        *120
 41000000 000000000043 XL.MJIT       *120
 41000000 000000000010 XL.MLS0       *120
 41000000 000000000011 XL.MLS1       *120
 41000000 000000000013 XL.MSS        *120       212       308       386
 41000000 000000000024 XL.MSSR0      *120       173       315
 41000000 000000000014 XL.NULL       *120
 41000000 000000000040 XL.PSR        *120       341
 41000000 000000000016 XL.REAL       *120
 41000000 000000000017 XL.REALX      *120
 41000000 000000000025 XL.SC1        *120
 41000000 000000000026 XL.SC2        *120
 41000000 000000000007 XL.SCH        *120
 41000000 000000000046 XL.SCH0       *120
 41000000 000000000047 XL.SCH1       *120
 41000000 000000000060 XL.SCH10      *120
 41000000 000000000061 XL.SCH11      *120
 41000000 000000000050 XL.SCH2       *120
 41000000 000000000051 XL.SCH3       *120
 41000000 000000000052 XL.SCH4       *120
 41000000 000000000053 XL.SCH5       *120
 15:10 07/29/97  FILE=DXC$MISC.:E05TSI        SYMBOL TABLE                                               46   BMAP - B00
 41000000 000000000054 XL.SCH6       *120
 41000000 000000000055 XL.SCH7       *120
 41000000 000000000056 XL.SCH8       *120
 41000000 000000000057 XL.SCH9       *120
 41000000 000000000061 XL.SCHLAST    *120
 41000000 000000000042 XL.SDS        *120
 41000000 000000000102 XL.SEGTBL     *120
 41000000 000000000045 XL.SSISR      *120       345
 41000000 000000000002 XL.SSR        *120       208       309       477       489       572
 41000000 000000000023 XL.SSR0       *120       179
 41000000 000000000005 XL.SYM        *120
 41000000 000000000063 XL.SYM1       *120
 41000000 000000000030 XL.UDR2       *120       317
 41000000 000000000041 XL.UISR       *120       529       531
 41000000 000000000033 XL.ULS        *120
 03301007 000000000000 XUSS$          *42       187       337

     293 SYMBOLS

 15:10 07/29/97  FILE=DXC$MISC.:E05TSI        MACRO TABLE                                                47   BMAP - B00
 MONLS          122
 XDLS           120

      16 MACROS

    SYMBOL SPACE USED  3686 WORDS
     MACRO SPACE USED  3324 WORDS
   INPUT RECORDS READ  1951
 STATEMENTS PROCESSED   970
         ELAPSED TIME  0:08.56
             CPU TIME     7.76 SEC.
        ASSEMBLY RATE  7500 STATEMENTS/CPU MIN.

      NO ERRORS

