VERSION E05

PL6.E3A0      #001=DDE$ERROR File=DXE$ERROR.:E05TSI                              TUE 07/29/97 15:10 Page:1
        1        1        /*M* DXE$ERROR . */
        2        2        /*T***********************************************************/
        3        3        /*T*                                                         */
        4        4        /*T* Copyright (c) Bull HN Information Systems Inc., 1997    */
        5        5        /*T*                                                         */
        6        6        /*T***********************************************************/
        7        7        /*X* DMR,PLM=5,IND=5,CSU=3,EXM=0,ECU=3,MOC,DCI=5,CRT=5 */
        8        8        %SET LISTSUB='1'B;
        9        9        /*F* NAME: DXE$ERROR
       10       10             PURPOSE: TO PRINT TEXT ERROR MESSAGES.
       11       11             DESCRIPTION: USES THE CODE IN S_D.ERROR TO FIND THE ERROR MESSAGE TEXT. */
       12       12        /*D* NAME: DXE$ERROR
       13       13             CALL: CALL DCE$ERROR
       14       14             INTERFACE: DCK$GETX1
       15       15                        DCQ$WRITE
       16       16                        DCR$BINTXT
       17       17                        BINCHAR
       18       18                        CONCAT
       19       19                        INSERT
       20       20                        SUBSTR
       21       21             ENVIRONMENT: XDELTA
       22       22             INPUT: S_D.ERROR - ERROR CODE
       23       23                    S_D.ERROR_SYM$ - POINTER TO ERROR SYMBOL TEXTC
       24       24             OUTPUT: ERROR MESSAGE IS PRINTED AS:
       25       25                     DCE-nnnn "symbol" MESSAGE TEXT (FOR USER ERRORS)
       26       26                     DXE-nnnn @.<X1> MESSAGE TEXT (FOR INTERNAL ERRORS)
       27       27             SCRATCH: LOCAL AUTO ONLY.
       28       28             DESCRIPTION: DETERMINES IF ERROR CODE IS USER OR INTERNAL TYPE. IF INTERNAL
       29       29             THEN OBTAINS CALLING ROUTINE'S RETURN ADDRESS BY CALLING "DCK$GETX1".
       30       30             IF USER ERROR FILLS IN "SYMBOL" FIELD WHEN TEXT POINTER ~= ADDR(NIL).
       31       31             OBTAINS ERROR MESSAGE TEXT FROM TABLE. IF ERROR CODE IS NOT IN TABLE
       32       32             THEN DEFAULT MESSAGE IS SUBSTITUTED. WRITES MESSAGE BY CALLING "DCQ$WRITE".
       33       33             RETURNS WHEN DONE. */
       34       34                                                /**/
       35       35        DDE$ERROR: PROC;
       36       36                                                /**/
       37       37        %INCLUDE DD_DEBUG_C;
PL6.E3A0      #001=DDE$ERROR File=DXE$ERROR.:E05TSI                              TUE 07/29/97 15:10 Page:2
       38       58    1   DCL CURPOS SBIN;
       39       59    1   DCL LEFT SBIN;
       40       60    1   DCL SIZE SBIN;
       41       61    1   DCL X1 SBIN;
       42       62                                                /**/
       43       63    1   DCL 1 TEXT$C BASED UNAL,
       44       64    1         2 SIZE UBIN BYTE UNAL,
       45       65    1         2 TXT CHAR(TEXT$C.SIZE) UNAL;
       46       66        %MACRO TXTC (NAME=TXTC,T=T);
       47       67        DCL 1 NAME CONSTANT UNAL,
       48       68              2 SIZE UBIN(9) INIT( LENGTHC(T) ) UNAL,
       49       69              2 TXT CHAR(0) INIT(T) UNAL;
       50       70        %MEND;
       51       71        %TXTC (NAME=PREFIX,T="'D'");
       52       76        %TXTC (NAME=EXX,T="'X'");
       53       81        %TXTC (NAME=CEE,T="'C'");
       54       86        %TXTC (NAME=EDASH,T="'E-'");
       55       91        %TXTC (NAME=DQUOTE,T='"');
       56       96        %TXTC (NAME=LPAREN,T="'('");
       57      101        %TXTC (NAME=RPAREN,T="')'");
       58      106        %TXTC (NAME=AT,T="'@'");
       59      111        %TXTC (NAME=CRLFSPS,T='        ');
       60      116        %MACRO DXERR (NAME=DXERR,C=C,T=T,LAST=",");
       61      117              2 NAME UBIN HALF INIT(C) UNAL,
       62      118              2 * UNAL,
       63      119                3 SIZE UBIN(9) INIT(LENGTHC(T)) UNAL,
       64      120                3 TEXT CHAR(0) INIT(T) UNAL LAST
       65      121        %MEND;
       66      122        %MACRO DX$ERR (NAME=DX$ERR,STCLASS=BASED);
       67      123        DCL 1 NAME STCLASS UNAL,
       68      124              2 CODE UBIN HALF UNAL,
       69      125              2 TEXTC UNAL,
       70      126                3 SIZE UBIN(9) UNAL,
       71      127                3 TEXT CHAR(NAME.TEXTC.SIZE) UNAL;
       72      128        %MEND;
       73      129        %DX$ERR;
       74      136    1   DCL 1 DXERR CONSTANT,
PL6.E3A0      #001=DDE$ERROR File=DXE$ERROR.:E05TSI                              TUE 07/29/97 15:10 Page:3
       75      137             %INCLUDE DX_ERR_C;
       76     2469        /*D* THIS ERROR MESSAGE (EB) MUST BE THE LAST ERROR MESSAGE */
       77     2470             %DXERR (NAME=EB,C=262143,LAST=";",T=
              2470                 '**** Unable to find error message text ****');
       78     2476    1   DCL E$ PTR;
       79     2477    1   DCL EB$ PTR CONSTANT INIT( ADDR( DXERR.EB ) );
       80     2478        %INCLUDE DD_ERR_C;
       81     2875    1   DCL DCTX_ME UBIN SYMREF;                /* CODE FOR TERMINAL I/O DEVICE */
       82     2876    1   DCL OUT_DEV UBIN SYMREF;
       83     2877    1   DCL IN_DEV UBIN SYMREF;
       84     2878        %INCLUDE DD$DITEM;
       12+    2981             %LIST;
       13+    2982    1        DCL SDD$ PTR;
       14+    2983    1        DCL ZITEM$ PTR;
       15+    2984    1        DCL SDD_L6$ PTR;
       16+    2985    1        DCL ZITEM_L6$ PTR;
       85     3559        %INCLUDE XUH_MACRO_C;
       86     3643        %INCLUDE DD_SD_M;
       87     4979        %S_D;
       88     6297    1   DCL DDK$GETX1 ENTRY(1);
       89     6298    1   DCL DDQ$WRITE ENTRY(2);
       90     6299    1   DCL DDR$BINTXT ENTRY(4);
       91     6300        %SUB INTNERR=500 ;                      /* WHERE INTERNAL ERRORS START */
       92     6301        %SUB CODEWIDTH=3 ;                      /* FIELD WIDTH FOR DECIMAL CODE */
       93     6302        %EJECT;
PL6.E3A0      #001=DDE$ERROR File=DXE$ERROR.:E05TSI                              TUE 07/29/97 15:10 Page:4
       94     6303    1        OUT_DEV = DCTX_ME;
       95     6304    1        IN_DEV = DCTX_ME;
       96     6305    1        CALL M_INIT;
       97     6306    1        IF S_D.DEBUGA( %DB@PRNTCODE )
       98     6307    2        THEN DO;
       99     6308    2             CALL M_TADD( PREFIX );
      100     6309    2             IF S_D.ERROR >= 500       /* INTNERR */
      101     6310    2             THEN CALL M_TADD( EXX );
      102     6311    2             ELSE CALL M_TADD( CEE );
      103     6312    2             CALL M_TADD( EDASH );
      104     6313    2             CALL BINCHAR( SUBSTR( S_D.OUTPUT, CURPOS, 3 ), S_D.ERROR );
              6313                      /* CODEWIDTH */
      105     6314    2             CALL M_SPACE( 3 + 1 ); /* CODEWIDTH */
      106     6315    2           END;
      107     6316    1        IF S_D.ERROR >= 500            /* INTNERR */
      108     6317    2        THEN DO;
      109     6318    2             CALL DDK$GETX1( X1 );
      110     6319    2             CALL M_TADD( AT );
      111     6320    2             CALL DDR$BINTXT( PINCRC( ADDR( S_D.OUTPUT ), CURPOS ), X1, %OCT_FMT, SIZE
              6320                      );
      112     6321    2             CALL M_SPACE( SIZE + 1 );
      113     6322    2           END;
      114     6323    1        ELSE IF S_D.ERROR_SYM$ ~= ADDR( NIL )
      115     6324    2             THEN DO;
      116     6325    2                  IF S_D.ERROR = 82 /* E@OLDNOTOLD */
      117     6326    2                  THEN CALL M_TADD( LPAREN );
      118     6327    2                  ELSE CALL M_TADD( DQUOTE );
      119     6328    2                  CALL M_TADD( S_D.ERROR_SYM$ -> TEXT$C );
      120     6329    2                  IF S_D.ERROR = 82 /* E@OLDNOTOLD */
      121     6330    2                  THEN CALL M_TADD( RPAREN );
      122     6331    2                  ELSE CALL M_TADD( DQUOTE );
      123     6332    2                  CALL M_SPACE( 1 );
      124     6333    2                END;
      125     6334    1        E$ = ADDR( DXERR );
      126     6335    2        DO WHILE( E$ < EB$ );
      127     6336    2             IF E$ -> DX$ERR.CODE = S_D.ERROR
      128     6337    2             THEN GOTO GOT_IT;
PL6.E3A0      #001=DDE$ERROR File=DXE$ERROR.:E05TSI                              TUE 07/29/97 15:10 Page:5
      129     6338    2             E$ = PINCRC( E$, SIZEC( DX$ERR.CODE )
      130     6339    2               + SIZEC( DX$ERR.TEXTC.SIZE )
      131     6340    2               + E$ -> DX$ERR.TEXTC.SIZE );
      132     6341    2           END;
      133     6342    1   GOT_IT:
      134     6343    1        CALL M_TADD( E$ -> DX$ERR.TEXTC );
      135     6344    1        IF ( S_D.ERROR = 11 )         /* E@UERR0 */
      136     6345    1          OR ( S_D.ERROR = 500 )     /* E@PARSERR */
      137     6346    1          OR ( S_D.ERROR = 188 )  /* E@WRONG#SUBS */
      138     6347    2        THEN DO;
      139     6348    2             CALL DDR$BINTXT( PINCRC( ADDR( S_D.OUTPUT ), CURPOS ), S_D.ERROR_HICHAR, %
              6348                      UINT_FMT, SIZE );
      140     6349    2             CALL M_SPACE( SIZE );
      141     6350    2           END;
      142     6351    1        CALL M_TRUNC;
      143     6352                                                /**/
      144     6353    1        RETURN;
      145     6354        %EJECT;
PL6.E3A0      #001=DDE$ERROR File=DXE$ERROR.:E05TSI                              TUE 07/29/97 15:10 Page:6
      146     6355        /*F* NAME: M_INIT
      147     6356             PURPOSE: TO INITIALIZE FOR TEXT MOVE SUBROUTINES.
      148     6357             DESCRIPTION: BLANKS OUT BUFFER. INITIALIZES CURPOS TO POINT PAST
      149     6358             THE CR, LF, LF CHARACTERS. RETURNS WHEN DONE. */
      150     6359        /*D* NAME: M_INIT
      151     6360             CALL: CALL M_INIT;
      152     6361             ENVIRONMENT: DXE$ERROR ACTIVE.
      153     6362             INTERFACE:
      154     6363             INPUT: S_D.OUTPUT - BUFFER
      155     6364             OUTPUT: S_D.OUTPUT BLANKED OUT, WITH FIRST 3 CHARACTERS CR, LF, LF.
      156     6365                     CURPOS - CURRENT CHARACTER POSITION.
      157     6366                     LEFT - SPACE REMAINING IN OUTPUT BUFFER.
      158     6367             SCRATCH: LOCAL AUTO ONLY.
      159     6368             DESCRIPTION: BLANKS OUT BUFFER. INITIALIZES CURPOS TO POINT PAST
      160     6369             THE CR, LF, LF CHARACTERS. RETURNS WHEN DONE. */
      161     6370                                                /**/
      162     6371    1   M_INIT: PROC;
      163     6372                                                /**/
      164     6373    2        CURPOS = 0;
      165     6374    2        LEFT = S_D.OUT_WIDTH - CURPOS;
      166     6375                                                /**/
      167     6376    2        RETURN;
      168     6377                                                /**/
      169     6378    2   END M_INIT;
      170     6379        %EJECT;
PL6.E3A0      #001=DDE$ERROR File=DXE$ERROR.:E05TSI                              TUE 07/29/97 15:10 Page:7
      171     6380        /*F* NAME: M_TADD
      172     6381             PURPOSE: TO ADD TEXT TO OUTPUT BUFFER.
      173     6382             DESCRIPTION: ADDS THE TEXTC STRING INPUT TO THE OUTPUT BUFFER. */
      174     6383        /*D* NAME: M_TADD
      175     6384             CALL: CALL M_TADD( TXTC );
      176     6385             ENVIRONMENT: DXE$ERROR ACTIVE.
      177     6386             INTERFACE: DCQ$WRITE
      178     6387             INPUT: S_D.OUTPUT - BUFFER
      179     6388                    CURPOS - CURRENT CHARACTER POSITION.
      180     6389                    LEFT - SPACE REMAINING IN OUTPUT BUFFER.
      181     6390                    TXTC - TEXTC STRING TO BE ADDED TO OUTPUT BUFFER.
      182     6391             OUTPUT: TEXT STRING MOVED TO OUTPUT BUFFER.
      183     6392                     CURPOS - UPDATED CURRENT CHARACTER POSITION.
      184     6393                     LEFT - UPDATED REMAINING SPACE IN BUFFER.
      185     6394             SCRATCH: LOCAL AUTO ONLY.
      186     6395             DESCRIPTION: MOVES AS MUCH OF "TXTC" INTO OUTPUT BUFFER AS WILL FIT.
      187     6396             IF IT ALL FITS THEN UPDATES "CURPOS" AND "LEFT" AND RETURNS.
      188     6397             OTHERWISE, UPON ENCOUNTERING A TRUNCATION ERROR THE FILLED UP BUFFER
      189     6398             IS OUTPUT BY CALLING "DCQ$WRITE", THE STRING CONTROL VARIABLES ARE UPDATED
      190     6399             TO REFLECT HOW MUCH WAS MOVED, AND THE PROCESS IS REPEATED UNTIL THE
      191     6400             INPUT STRING IS EXHAUSTED. */
      192     6401                                                /**/
      193     6402    1   M_TADD: PROC( TXTC );
      194     6403                                                /**/
      195     6404    2   DCL 1 TXTC UNAL,
      196     6405    2         2 SIZE UBIN(9) UNAL,
      197     6406    2         2 TXT CHAR( TXTC.SIZE ) UNAL;
      198     6407    2   DCL ST SBIN;                            /* START POSITION */
      199     6408    2   DCL LE SBIN;                            /* LENGTH LEFT TO MOVE */
      200     6409                                                /**/
      201     6410    2        ST = 0;
      202     6411    2        LE = TXTC.SIZE;
      203     6412    2   MORE:
      204     6413    2        CALL INSERT( S_D.OUTPUT, CURPOS, LEFT, SUBSTR( TXTC.TXT, ST, LE ) ) ALTRET(
              6413                 TRUNC );
      205     6414    2        LEFT = LEFT - LE;
      206     6415    2        CURPOS = CURPOS + LE;
PL6.E3A0      #001=DDE$ERROR File=DXE$ERROR.:E05TSI                              TUE 07/29/97 15:10 Page:8
      207     6416                                                /**/
      208     6417    2        RETURN;
      209     6418                                                /**/
      210     6419    2   TRUNC:
      211     6420    2        CALL DDQ$WRITE( ADDR( S_D.OUTPUT ), S_D.OUT_WIDTH );
      212     6421    2        ST = ST + LEFT;
      213     6422    2        LE = LE - LEFT;
      214     6423    2        CALL CONCAT( S_D.OUTPUT, CRLFSPS.TXT );
      215     6424    2        LEFT = S_D.OUT_WIDTH - LENGTHC( CRLFSPS.TXT );
      216     6425    2        CURPOS = LENGTHC( CRLFSPS.TXT );
      217     6426    2        GOTO MORE;
      218     6427                                                /**/
      219     6428    2   END M_TADD;
      220     6429        %EJECT;
PL6.E3A0      #001=DDE$ERROR File=DXE$ERROR.:E05TSI                              TUE 07/29/97 15:10 Page:9
      221     6430        /*F* NAME: M_SPACE
      222     6431             PURPOSE: TO INSERT SPACES INTO THE OUTPUT BUFFER.
      223     6432             DESCRIPTION: ADDS THE REQUESTED NUMBER OF SPACES TO THE OUTPUT BUFFER. */
      224     6433        /*D* NAME: M_SPACE
      225     6434             CALL: CALL M_SPACE( COUNT );
      226     6435             ENVIRONMENT: DXE$ERROR ACTIVE.
      227     6436             INTERFACE: DCQ$WRITE
      228     6437             INPUT: S_D.OUTPUT - BUFFER, ALREADY BLANK FILLED.
      229     6438                    CURPOS - CURRENT CHARACTER POSITION.
      230     6439                    COUNT - NUMBER OF SPACES TO INSERT.
      231     6440             OUTPUT: SPACES MOVED TO OUTPUT BUFFER
      232     6441                     CURPOS - UPDATED CURRENT CHARACTER POSITION.
      233     6442                     LEFT - UPDATED REMAINING SPACE IN BUFFER.
      234     6443             SCRATCH - LOCAL AUTO ONLY.
      235     6444             DESCRIPTION: SEE M_TADD, EXCEPT IMPENDING TRUNCATION IS DETECTED DIRECTLY,
      236     6445             NOT BY USING "INSERT" SUBROUTINE. */
      237     6446                                                /**/
      238     6447    1   M_SPACE: PROC( COUNT );
      239     6448                                                /**/
      240     6449    2   DCL COUNT SBIN;
      241     6450    2   DCL LE SBIN;
      242     6451                                                /**/
      243     6452    2        LE = COUNT;
      244     6453    2        IF ( LE > LEFT )
      245     6454    3        THEN DO WHILE ( LE > LEFT );
      246     6455    3             LE = LE - LEFT;
      247     6456    3             LEFT = S_D.OUT_WIDTH - LENGTHC( CRLFSPS.TXT );
      248     6457    3             CALL DDQ$WRITE( ADDR( S_D.OUTPUT ), CURPOS );
      249     6458    3             CALL CONCAT( S_D.OUTPUT, CRLFSPS.TXT );
      250     6459    3           END;
      251     6460    2        LEFT = LEFT - LE;
      252     6461    2        CURPOS = S_D.OUT_WIDTH - LEFT;
      253     6462                                                /**/
      254     6463    2        RETURN;
      255     6464                                                /**/
      256     6465    2   END M_SPACE;
      257     6466        %EJECT;
PL6.E3A0      #001=DDE$ERROR File=DXE$ERROR.:E05TSI                              TUE 07/29/97 15:10 Page:10
      258     6467        /*F* NAME: M_TRUNC
      259     6468             PURPOSE: TO WRITE OUT REMAINING CHARACTER STRING IN OUTPUT BUFFER.
      260     6469             DESCRIPTION: WRITES OUT CONTENTS OF OUTPUT BUFFER & RETURNS. */
      261     6470        /*D* NAME: M_TRUNC
      262     6471             CALL: CALL M_TRUNC;
      263     6472             ENVIRONMENT: DXE$ERROR ACTIVE.
      264     6473             INTERFACE: DCQ$WRITE
      265     6474             INPUT: S_D.OUTPUT - BUFFER
      266     6475                    CURPOS - CURRENT CHARACTER POSITION.
      267     6476             OUTPUT: CONTENTS OF OUTPUT BUFFER WRITTEN OUT.
      268     6477             SCRATCH: LOCAL AUTO ONLY.
      269     6478             DESCRIPTION: WRITES OUT CONTENTS OF OUTPUT BUFFER & RETURNS. */
      270     6479                                                /**/
      271     6480    1   M_TRUNC: PROC;
      272     6481                                                /**/
      273     6482    2        CALL DDQ$WRITE( ADDR( S_D.OUTPUT ), CURPOS );
      274     6483    2        RETURN;
      275     6484                                                /**/
      276     6485    2   END M_TRUNC;
      277     6486                                                /**/
      278     6487    1   END DDE$ERROR;

PL6.E3A0      #001=DDE$ERROR File=DXE$ERROR.:E05TSI                              TUE 07/29/97 15:10 Page:11
--  Include file information  --

   DD_SD_M.:E05TOU  is referenced.
   XUH_MACRO_C.:E05TOU  is referenced.
   DD_SRTN_C.:E05TOU  is referenced.
   DD_ACODE_C.:E05TOU  is referenced.
   DD_ICODE_C.:E05TOU  is referenced.
   DD$DITEM.:E05TOU  cannot be made into a system file and is referenced.
   DD_ERR_C.:E05TOU  is referenced.
   DX_ERR_C.:E05TOU  cannot be made into a system file and is referenced.
   DD_DEBUG_C.:E05TOU  is referenced.
   B$JIT_C.:E05TOU  was found in the system file and is never referenced.
   CP_6_C.:E05TOU  was found in the system file and is never referenced.
      No diagnostics issued in procedure DDE$ERROR.

   Procedure DDE$ERROR requires 304 words for executable code.
   Procedure DDE$ERROR requires 24 words of local(AUTO) storage.

    No errors detected in file DXE$ERROR.:E05TSI    .

PL6.E3A0      #001=DDE$ERROR File=DXE$ERROR.:E05TSI                              TUE 07/29/97 15:10 Page:12

 Object Unit name= DDE$ERROR                                  File name= DXE$ERROR.:E05TOU
 UTS= JUL 29 '97 15:10:27.24 TUE                              Compiler= PL-6/E31         Sev=      00
 SharedLib= :SHARED_SYSTEM                                    Alt SharedLib=


    ****  Control sections  ****

 Sect   Type Bound  Init  Size OctSiz  Section name(segment info)
    0  RoData even  UTS   3541   6725  DDE$ERROR
    1   Proc  even  none   304    460  DDE$ERROR
    2  RoData even  none    12     14  DDE$ERROR

    ****  Entry defs  ****

                              Check   Calling
                             calling  sequence
  Sect OctLoc Primary Altret sequence   type   Parms  Name
     1      0   yes            yes      Std        0  DDE$ERROR

  ****  Entry refs  ****

         Check        Calling
        calling       sequence
Altret sequence SRef   type   Args  Name
         yes           Std       1 DDK$GETX1
         yes           Std       4 DDR$BINTXT
         yes           Std       2 DDQ$WRITE
                       nStd      0 X66_AUTO_0
                       Std       0 B_CONSPOOL_D
                       nStd      0 X66_ARET
PL6.E3A0      #001=DDE$ERROR File=DXE$ERROR.:E05TSI                              TUE 07/29/97 15:10 Page:13

  ****  Data refs  ****

  Flags:  r = read only, s = secondary
Flgs Name                             Flgs Name                             Flgs Name
     DCTX_ME                               OUT_DEV                               IN_DEV
r    S_D$                                  B_VECTNIL

  ****  Segment refs  ****

  Flags:  r = read only, s = secondary
Flgs Name                             Flgs Name                             Flgs Name
     ISSID
PL6.E3A0      #001=DDE$ERROR File=DXE$ERROR.:E05TSI                              TUE 07/29/97 15:10 Page:14


        1        1        /*M* DXE$ERROR . */
        2        2        /*T***********************************************************/
        3        3        /*T*                                                         */
        4        4        /*T* Copyright (c) Bull HN Information Systems Inc., 1997    */
        5        5        /*T*                                                         */
        6        6        /*T***********************************************************/
        7        7        /*X* DMR,PLM=5,IND=5,CSU=3,EXM=0,ECU=3,MOC,DCI=5,CRT=5 */
        8        8        %SET LISTSUB='1'B;
        9        9        /*F* NAME: DXE$ERROR
       10       10             PURPOSE: TO PRINT TEXT ERROR MESSAGES.
       11       11             DESCRIPTION: USES THE CODE IN S_D.ERROR TO FIND THE ERROR MESSAGE TEXT. */
       12       12        /*D* NAME: DXE$ERROR
       13       13             CALL: CALL DCE$ERROR
       14       14             INTERFACE: DCK$GETX1
       15       15                        DCQ$WRITE
       16       16                        DCR$BINTXT
       17       17                        BINCHAR
       18       18                        CONCAT
       19       19                        INSERT
       20       20                        SUBSTR
       21       21             ENVIRONMENT: XDELTA
       22       22             INPUT: S_D.ERROR - ERROR CODE
       23       23                    S_D.ERROR_SYM$ - POINTER TO ERROR SYMBOL TEXTC
       24       24             OUTPUT: ERROR MESSAGE IS PRINTED AS:
       25       25                     DCE-nnnn "symbol" MESSAGE TEXT (FOR USER ERRORS)
       26       26                     DXE-nnnn @.<X1> MESSAGE TEXT (FOR INTERNAL ERRORS)
       27       27             SCRATCH: LOCAL AUTO ONLY.
       28       28             DESCRIPTION: DETERMINES IF ERROR CODE IS USER OR INTERNAL TYPE. IF INTERNAL
       29       29             THEN OBTAINS CALLING ROUTINE'S RETURN ADDRESS BY CALLING "DCK$GETX1".
       30       30             IF USER ERROR FILLS IN "SYMBOL" FIELD WHEN TEXT POINTER ~= ADDR(NIL).
       31       31             OBTAINS ERROR MESSAGE TEXT FROM TABLE. IF ERROR CODE IS NOT IN TABLE
       32       32             THEN DEFAULT MESSAGE IS SUBSTITUTED. WRITES MESSAGE BY CALLING "DCQ$WRITE".
       33       33             RETURNS WHEN DONE. */
       34       34                                                /**/
       35       35        DDE$ERROR: PROC;

PL6.E3A0      #001=DDE$ERROR File=DXE$ERROR.:E05TSI                              TUE 07/29/97 15:10 Page:15
     35  1 000000   000000 700200 xent  DDE$ERROR    TSX0  ! X66_AUTO_0
         1 000001   000030 000000                    ZERO    24,0

       36       36                                                /**/
       37       37        %INCLUDE DD_DEBUG_C;
       38       58    1   DCL CURPOS SBIN;
       39       59    1   DCL LEFT SBIN;
       40       60    1   DCL SIZE SBIN;
       41       61    1   DCL X1 SBIN;
       42       62                                                /**/
       43       63    1   DCL 1 TEXT$C BASED UNAL,
       44       64    1         2 SIZE UBIN BYTE UNAL,
       45       65    1         2 TXT CHAR(TEXT$C.SIZE) UNAL;
       46       66        %MACRO TXTC (NAME=TXTC,T=T);
       47       67        DCL 1 NAME CONSTANT UNAL,
       48       68              2 SIZE UBIN(9) INIT( LENGTHC(T) ) UNAL,
       49       69              2 TXT CHAR(0) INIT(T) UNAL;
       50       70        %MEND;
       51       71        %TXTC (NAME=PREFIX,T="'D'");
       52       76        %TXTC (NAME=EXX,T="'X'");
       53       81        %TXTC (NAME=CEE,T="'C'");
       54       86        %TXTC (NAME=EDASH,T="'E-'");
       55       91        %TXTC (NAME=DQUOTE,T='"');
       56       96        %TXTC (NAME=LPAREN,T="'('");
       57      101        %TXTC (NAME=RPAREN,T="')'");
       58      106        %TXTC (NAME=AT,T="'@'");
       59      111        %TXTC (NAME=CRLFSPS,T='        ');
       60      116        %MACRO DXERR (NAME=DXERR,C=C,T=T,LAST=",");
       61      117              2 NAME UBIN HALF INIT(C) UNAL,
       62      118              2 * UNAL,
       63      119                3 SIZE UBIN(9) INIT(LENGTHC(T)) UNAL,
       64      120                3 TEXT CHAR(0) INIT(T) UNAL LAST
       65      121        %MEND;
       66      122        %MACRO DX$ERR (NAME=DX$ERR,STCLASS=BASED);
       67      123        DCL 1 NAME STCLASS UNAL,
       68      124              2 CODE UBIN HALF UNAL,
       69      125              2 TEXTC UNAL,
PL6.E3A0      #001=DDE$ERROR File=DXE$ERROR.:E05TSI                              TUE 07/29/97 15:10 Page:16
       70      126                3 SIZE UBIN(9) UNAL,
       71      127                3 TEXT CHAR(NAME.TEXTC.SIZE) UNAL;
       72      128        %MEND;
       73      129        %DX$ERR;
       74      136    1   DCL 1 DXERR CONSTANT,
       75      137             %INCLUDE DX_ERR_C;
       76     2469        /*D* THIS ERROR MESSAGE (EB) MUST BE THE LAST ERROR MESSAGE */
       77     2470             %DXERR (NAME=EB,C=262143,LAST=";",T=
              2470                 '**** Unable to find error message text ****');
       78     2476    1   DCL E$ PTR;
       79     2477    1   DCL EB$ PTR CONSTANT INIT( ADDR( DXERR.EB ) );
       80     2478        %INCLUDE DD_ERR_C;
       81     2875    1   DCL DCTX_ME UBIN SYMREF;                /* CODE FOR TERMINAL I/O DEVICE */
       82     2876    1   DCL OUT_DEV UBIN SYMREF;
       83     2877    1   DCL IN_DEV UBIN SYMREF;
       84     2878        %INCLUDE DD$DITEM;
       12+    2981             %LIST;
       13+    2982    1        DCL SDD$ PTR;
       14+    2983    1        DCL ZITEM$ PTR;
       15+    2984    1        DCL SDD_L6$ PTR;
       16+    2985    1        DCL ZITEM_L6$ PTR;
       85     3559        %INCLUDE XUH_MACRO_C;
       86     3643        %INCLUDE DD_SD_M;
       87     4979        %S_D;
       88     6297    1   DCL DDK$GETX1 ENTRY(1);
       89     6298    1   DCL DDQ$WRITE ENTRY(2);
       90     6299    1   DCL DDR$BINTXT ENTRY(4);
       91     6300        %SUB INTNERR=500 ;                      /* WHERE INTERNAL ERRORS START */
       92     6301        %SUB CODEWIDTH=3 ;                      /* FIELD WIDTH FOR DECIMAL CODE */
       93     6302        %EJECT;
PL6.E3A0      #001=DDE$ERROR File=DXE$ERROR.:E05TSI                              TUE 07/29/97 15:10 Page:17
       94     6303    1        OUT_DEV = DCTX_ME;

   6303  1 000002   000000 235000 xsym               LDA     DCTX_ME
         1 000003   000000 755000 xsym               STA     OUT_DEV

       95     6304    1        IN_DEV = DCTX_ME;

   6304  1 000004   000000 755000 xsym               STA     IN_DEV

       96     6305    1        CALL M_INIT;

   6305  1 000005   000263 701000 1                  TSX1    M_INIT
         1 000006   000000 011000                    NOP     0

       97     6306    1        IF S_D.DEBUGA( %DB@PRNTCODE )

   6306  1 000007   000000 470400 xsym               LDP0    S_D$
         1 000010   000053 236100                    LDQ     43,,PR0
         1 000011   000001 316007                    CANQ    1,DL
         1 000012   000054 600000 1                  TZE     s:6316

       98     6307    2        THEN DO;

       99     6308    2             CALL M_TADD( PREFIX );

   6308  1 000013   000000 236000 2                  LDQ     0
         1 000014   200015 756100                    STQ     E$+6,,AUTO
         1 000015   000272 701000 1                  TSX1    M_TADD
         1 000016   000000 011000                    NOP     0

      100     6309    2             IF S_D.ERROR >= 500       /* INTNERR */

   6309  1 000017   000000 470400 xsym               LDP0    S_D$
         1 000020   000013 235100                    LDA     11,,PR0
         1 000021   000764 115007                    CMPA    500,DL
         1 000022   000030 602000 1                  TNC     s:6311

PL6.E3A0      #001=DDE$ERROR File=DXE$ERROR.:E05TSI                              TUE 07/29/97 15:10 Page:18
      101     6310    2             THEN CALL M_TADD( EXX );

   6310  1 000023   000001 236000 2                  LDQ     1
         1 000024   200015 756100                    STQ     E$+6,,AUTO
         1 000025   000272 701000 1                  TSX1    M_TADD
         1 000026   000000 011000                    NOP     0
         1 000027   000034 710000 1                  TRA     s:6312

      102     6311    2             ELSE CALL M_TADD( CEE );

   6311  1 000030   000002 236000 2                  LDQ     2
         1 000031   200015 756100                    STQ     E$+6,,AUTO
         1 000032   000272 701000 1                  TSX1    M_TADD
         1 000033   000000 011000                    NOP     0

      103     6312    2             CALL M_TADD( EDASH );

   6312  1 000034   000003 236000 2                  LDQ     3
         1 000035   200015 756100                    STQ     E$+6,,AUTO
         1 000036   000272 701000 1                  TSX1    M_TADD
         1 000037   000000 011000                    NOP     0

      104     6313    2             CALL BINCHAR( SUBSTR( S_D.OUTPUT, CURPOS, 3 ), S_D.ERROR );
              6313                      /* CODEWIDTH */

   6313  1 000040   000000 470400 xsym               LDP0    S_D$
         1 000041   000013 235100                    LDA     11,,PR0
         1 000042   000044 773000                    LRL     36
         1 000043   200020 757100                    STAQ    LE+1,,AUTO
         1 000044   200003 235100                    LDA     CURPOS,,AUTO
         1 000045   000105 301500                    BTD
         1 000046   200020 000010                    NDSC9   LE+1,,AUTO               cn=0,s=lsgnf,sf=0,n=8
         1 000047   005335 030003                    NDSC9   2781,A,PR0               cn=0,s=nosgn,sf=0,n=3

      105     6314    2             CALL M_SPACE( 3 + 1 ); /* CODEWIDTH */

   6314  1 000050   000004 236000 2                  LDQ     4
PL6.E3A0      #001=DDE$ERROR File=DXE$ERROR.:E05TSI                              TUE 07/29/97 15:10 Page:19
         1 000051   200015 756100                    STQ     E$+6,,AUTO
         1 000052   000370 701000 1                  TSX1    M_SPACE
         1 000053   000000 011000                    NOP     0

      106     6315    2           END;

      107     6316    1        IF S_D.ERROR >= 500            /* INTNERR */

   6316  1 000054   000000 470400 xsym               LDP0    S_D$
         1 000055   000013 235100                    LDA     11,,PR0
         1 000056   000764 115007                    CMPA    500,DL
         1 000057   000123 602000 1                  TNC     s:6323

      108     6317    2        THEN DO;

      109     6318    2             CALL DDK$GETX1( X1 );

   6318  1 000060   200006 631500                    EPPR1   X1,,AUTO
         1 000061   200020 451500                    STP1    LE+1,,AUTO
         1 000062   200020 630500                    EPPR0   LE+1,,AUTO
         1 000063   000017 631400 xsym               EPPR1   B_VECTNIL+15
         1 000064   000000 701000 xent               TSX1    DDK$GETX1
         1 000065   000000 011000                    NOP     0

      110     6319    2             CALL M_TADD( AT );

   6319  1 000066   000005 236000 2                  LDQ     5
         1 000067   200015 756100                    STQ     E$+6,,AUTO
         1 000070   000272 701000 1                  TSX1    M_TADD
         1 000071   000000 011000                    NOP     0

      111     6320    2             CALL DDR$BINTXT( PINCRC( ADDR( S_D.OUTPUT ), CURPOS ), X1, %OCT_FMT, SIZE
              6320                      );

   6320  1 000072   200003 236100                    LDQ     CURPOS,,AUTO
         1 000073   000020 736000                    QLS     16
         1 000074   005335 036003                    ADLQ    2781,DU
PL6.E3A0      #001=DDE$ERROR File=DXE$ERROR.:E05TSI                              TUE 07/29/97 15:10 Page:20
         1 000075   000000 036000 xsym               ADLQ    S_D$
         1 000076   200020 756100                    STQ     LE+1,,AUTO
         1 000077   200005 630500                    EPPR0   SIZE,,AUTO
         1 000100   200025 450500                    STP0    LE+6,,AUTO
         1 000101   000006 236000 2                  LDQ     6
         1 000102   200024 756100                    STQ     LE+5,,AUTO
         1 000103   200006 631500                    EPPR1   X1,,AUTO
         1 000104   200023 451500                    STP1    LE+4,,AUTO
         1 000105   200020 633500                    EPPR3   LE+1,,AUTO
         1 000106   200022 453500                    STP3    LE+3,,AUTO
         1 000107   200022 630500                    EPPR0   LE+3,,AUTO
         1 000110   000022 631400 xsym               EPPR1   B_VECTNIL+18
         1 000111   000000 701000 xent               TSX1    DDR$BINTXT
         1 000112   000000 011000                    NOP     0

      112     6321    2             CALL M_SPACE( SIZE + 1 );

   6321  1 000113   200005 235100                    LDA     SIZE,,AUTO
         1 000114   000001 035007                    ADLA    1,DL
         1 000115   200026 755100                    STA     LE+7,,AUTO
         1 000116   200026 630500                    EPPR0   LE+7,,AUTO
         1 000117   200015 450500                    STP0    E$+6,,AUTO
         1 000120   000370 701000 1                  TSX1    M_SPACE
         1 000121   000000 011000                    NOP     0

      113     6322    2           END;

   6322  1 000122   000167 710000 1                  TRA     s:6334

      114     6323    1        ELSE IF S_D.ERROR_SYM$ ~= ADDR( NIL )

   6323  1 000123   000032 236100                    LDQ     26,,PR0
         1 000124   000001 116000 xsym               CMPQ    B_VECTNIL+1
         1 000125   000167 600000 1                  TZE     s:6334

      115     6324    2             THEN DO;

PL6.E3A0      #001=DDE$ERROR File=DXE$ERROR.:E05TSI                              TUE 07/29/97 15:10 Page:21
      116     6325    2                  IF S_D.ERROR = 82 /* E@OLDNOTOLD */

   6325  1 000126   000122 115007                    CMPA    82,DL
         1 000127   000135 601000 1                  TNZ     s:6327

      117     6326    2                  THEN CALL M_TADD( LPAREN );

   6326  1 000130   000007 236000 2                  LDQ     7
         1 000131   200015 756100                    STQ     E$+6,,AUTO
         1 000132   000272 701000 1                  TSX1    M_TADD
         1 000133   000000 011000                    NOP     0
         1 000134   000141 710000 1                  TRA     s:6328

      118     6327    2                  ELSE CALL M_TADD( DQUOTE );

   6327  1 000135   000010 236000 2                  LDQ     8
         1 000136   200015 756100                    STQ     E$+6,,AUTO
         1 000137   000272 701000 1                  TSX1    M_TADD
         1 000140   000000 011000                    NOP     0

      119     6328    2                  CALL M_TADD( S_D.ERROR_SYM$ -> TEXT$C );

   6328  1 000141   000000 470400 xsym               LDP0    S_D$
         1 000142   000032 471500                    LDP1    26,,PR0
         1 000143   200015 451500                    STP1    E$+6,,AUTO
         1 000144   000272 701000 1                  TSX1    M_TADD
         1 000145   000000 011000                    NOP     0

      120     6329    2                  IF S_D.ERROR = 82 /* E@OLDNOTOLD */

   6329  1 000146   000000 470400 xsym               LDP0    S_D$
         1 000147   000013 235100                    LDA     11,,PR0
         1 000150   000122 115007                    CMPA    82,DL
         1 000151   000157 601000 1                  TNZ     s:6331

      121     6330    2                  THEN CALL M_TADD( RPAREN );

PL6.E3A0      #001=DDE$ERROR File=DXE$ERROR.:E05TSI                              TUE 07/29/97 15:10 Page:22
   6330  1 000152   000011 236000 2                  LDQ     9
         1 000153   200015 756100                    STQ     E$+6,,AUTO
         1 000154   000272 701000 1                  TSX1    M_TADD
         1 000155   000000 011000                    NOP     0
         1 000156   000163 710000 1                  TRA     s:6332

      122     6331    2                  ELSE CALL M_TADD( DQUOTE );

   6331  1 000157   000010 236000 2                  LDQ     8
         1 000160   200015 756100                    STQ     E$+6,,AUTO
         1 000161   000272 701000 1                  TSX1    M_TADD
         1 000162   000000 011000                    NOP     0

      123     6332    2                  CALL M_SPACE( 1 );

   6332  1 000163   000006 236000 2                  LDQ     6
         1 000164   200015 756100                    STQ     E$+6,,AUTO
         1 000165   000370 701000 1                  TSX1    M_SPACE
         1 000166   000000 011000                    NOP     0

      124     6333    2                END;

      125     6334    1        E$ = ADDR( DXERR );

   6334  1 000167   000012 236000 2                  LDQ     10
         1 000170   200007 756100                    STQ     E$,,AUTO

      126     6335    2        DO WHILE( E$ < EB$ );

   6335  1 000171   006724 116000 0                  CMPQ    EB$
         1 000172   000215 603000 1                  TRC     GOT_IT

      127     6336    2             IF E$ -> DX$ERR.CODE = S_D.ERROR

   6336  1 000173   000000 470400 xsym               LDP0    S_D$
         1 000174   200007 471500                    LDP1    E$,,AUTO
         1 000175   000100 101500                    MRL     fill='000'O
PL6.E3A0      #001=DDE$ERROR File=DXE$ERROR.:E05TSI                              TUE 07/29/97 15:10 Page:23
         1 000176   100000 000002                    ADSC9   0,,PR1                   cn=0,n=2
         1 000177   200020 000004                    ADSC9   LE+1,,AUTO               cn=0,n=4
         1 000200   200020 236100                    LDQ     LE+1,,AUTO
         1 000201   000013 116100                    CMPQ    11,,PR0
         1 000202   000215 600000 1                  TZE     GOT_IT

      128     6337    2             THEN GOTO GOT_IT;
      129     6338    2             E$ = PINCRC( E$, SIZEC( DX$ERR.CODE )

   6338  1 000203   000100 101500                    MRL     fill='000'O
         1 000204   100000 400001                    ADSC9   0,,PR1                   cn=2,n=1
         1 000205   200020 000004                    ADSC9   LE+1,,AUTO               cn=0,n=4
         1 000206   200020 236100                    LDQ     LE+1,,AUTO
         1 000207   000020 736000                    QLS     16
         1 000210   600000 036007                    ADLQ    -65536,DL
         1 000211   200007 036100                    ADLQ    E$,,AUTO
         1 000212   200007 756100                    STQ     E$,,AUTO

      130     6339    2               + SIZEC( DX$ERR.TEXTC.SIZE )
      131     6340    2               + E$ -> DX$ERR.TEXTC.SIZE );
      132     6341    2           END;

   6341  1 000213   006724 116000 0                  CMPQ    EB$
         1 000214   000173 602000 1                  TNC     s:6336

      133     6342    1   GOT_IT:
      134     6343    1        CALL M_TADD( E$ -> DX$ERR.TEXTC );

   6343  1 000215   200007 236100       GOT_IT       LDQ     E$,,AUTO
         1 000216   400000 036007                    ADLQ    -131072,DL
         1 000217   200015 756100                    STQ     E$+6,,AUTO
         1 000220   000272 701000 1                  TSX1    M_TADD
         1 000221   000000 011000                    NOP     0

      135     6344    1        IF ( S_D.ERROR = 11 )         /* E@UERR0 */

   6344  1 000222   000000 470400 xsym               LDP0    S_D$
PL6.E3A0      #001=DDE$ERROR File=DXE$ERROR.:E05TSI                              TUE 07/29/97 15:10 Page:24
         1 000223   000013 235100                    LDA     11,,PR0
         1 000224   000013 115007                    CMPA    11,DL
         1 000225   000232 600000 1                  TZE     s:6348
         1 000226   000764 115007                    CMPA    500,DL
         1 000227   000232 600000 1                  TZE     s:6348
         1 000230   000274 115007                    CMPA    188,DL
         1 000231   000260 601000 1                  TNZ     s:6351

      136     6345    1          OR ( S_D.ERROR = 500 )     /* E@PARSERR */
      137     6346    1          OR ( S_D.ERROR = 188 )  /* E@WRONG#SUBS */
      138     6347    2        THEN DO;

      139     6348    2            CALL DDR$BINTXT( PINCRC( ADDR( S_D.OUTPUT ), CURPOS ), S_D.ERROR_HICHAR, %
              6348                      UINT_FMT, SIZE );

   6348  1 000232   200003 236100                    LDQ     CURPOS,,AUTO
         1 000233   000020 736000                    QLS     16
         1 000234   005335 036003                    ADLQ    2781,DU
         1 000235   000000 036000 xsym               ADLQ    S_D$
         1 000236   200020 756100                    STQ     LE+1,,AUTO
         1 000237   200005 631500                    EPPR1   SIZE,,AUTO
         1 000240   200025 451500                    STP1    LE+6,,AUTO
         1 000241   000013 236000 2                  LDQ     11
         1 000242   200024 756100                    STQ     LE+5,,AUTO
         1 000243   000000 236000 xsym               LDQ     S_D$
         1 000244   004753 036003                    ADLQ    2539,DU
         1 000245   200023 756100                    STQ     LE+4,,AUTO
         1 000246   200020 633500                    EPPR3   LE+1,,AUTO
         1 000247   200022 453500                    STP3    LE+3,,AUTO
         1 000250   200022 630500                    EPPR0   LE+3,,AUTO
         1 000251   000022 631400 xsym               EPPR1   B_VECTNIL+18
         1 000252   000000 701000 xent               TSX1    DDR$BINTXT
         1 000253   000000 011000                    NOP     0

      140     6349    2             CALL M_SPACE( SIZE );

   6349  1 000254   200005 630500                    EPPR0   SIZE,,AUTO
PL6.E3A0      #001=DDE$ERROR File=DXE$ERROR.:E05TSI                              TUE 07/29/97 15:10 Page:25
         1 000255   200015 450500                    STP0    E$+6,,AUTO
         1 000256   000370 701000 1                  TSX1    M_SPACE
         1 000257   000000 011000                    NOP     0

      141     6350    2           END;

      142     6351    1        CALL M_TRUNC;

   6351  1 000260   000442 701000 1                  TSX1    M_TRUNC
         1 000261   000000 011000                    NOP     0

      143     6352                                                /**/
      144     6353    1        RETURN;

   6353  1 000262   000000 702200 xent               TSX2  ! X66_ARET

      145     6354        %EJECT;
PL6.E3A0      #001=DDE$ERROR File=DXE$ERROR.:E05TSI                              TUE 07/29/97 15:10 Page:26
      146     6355        /*F* NAME: M_INIT
      147     6356             PURPOSE: TO INITIALIZE FOR TEXT MOVE SUBROUTINES.
      148     6357             DESCRIPTION: BLANKS OUT BUFFER. INITIALIZES CURPOS TO POINT PAST
      149     6358             THE CR, LF, LF CHARACTERS. RETURNS WHEN DONE. */
      150     6359        /*D* NAME: M_INIT
      151     6360             CALL: CALL M_INIT;
      152     6361             ENVIRONMENT: DXE$ERROR ACTIVE.
      153     6362             INTERFACE:
      154     6363             INPUT: S_D.OUTPUT - BUFFER
      155     6364             OUTPUT: S_D.OUTPUT BLANKED OUT, WITH FIRST 3 CHARACTERS CR, LF, LF.
      156     6365                     CURPOS - CURRENT CHARACTER POSITION.
      157     6366                     LEFT - SPACE REMAINING IN OUTPUT BUFFER.
      158     6367             SCRATCH: LOCAL AUTO ONLY.
      159     6368             DESCRIPTION: BLANKS OUT BUFFER. INITIALIZES CURPOS TO POINT PAST
      160     6369             THE CR, LF, LF CHARACTERS. RETURNS WHEN DONE. */
      161     6370                                                /**/
      162     6371    1   M_INIT: PROC;

   6371  1 000263   200014 741300       M_INIT       STX1  ! E$+5,,AUTO

      163     6372                                                /**/
      164     6373    2        CURPOS = 0;

   6373  1 000264   200003 450100                    STZ     CURPOS,,AUTO

      165     6374    2        LEFT = S_D.OUT_WIDTH - CURPOS;

   6374  1 000265   000000 470400 xsym               LDP0    S_D$
         1 000266   000014 236100                    LDQ     12,,PR0
         1 000267   200003 136100                    SBLQ    CURPOS,,AUTO
         1 000270   200004 756100                    STQ     LEFT,,AUTO

      166     6375                                                /**/
      167     6376    2        RETURN;

   6376  1 000271   000001 702211                    TSX2  ! 1,X1

PL6.E3A0      #001=DDE$ERROR File=DXE$ERROR.:E05TSI                              TUE 07/29/97 15:10 Page:27
      168     6377                                                /**/
      169     6378    2   END M_INIT;
      170     6379        %EJECT;
PL6.E3A0      #001=DDE$ERROR File=DXE$ERROR.:E05TSI                              TUE 07/29/97 15:10 Page:28
      171     6380        /*F* NAME: M_TADD
      172     6381             PURPOSE: TO ADD TEXT TO OUTPUT BUFFER.
      173     6382             DESCRIPTION: ADDS THE TEXTC STRING INPUT TO THE OUTPUT BUFFER. */
      174     6383        /*D* NAME: M_TADD
      175     6384             CALL: CALL M_TADD( TXTC );
      176     6385             ENVIRONMENT: DXE$ERROR ACTIVE.
      177     6386             INTERFACE: DCQ$WRITE
      178     6387             INPUT: S_D.OUTPUT - BUFFER
      179     6388                    CURPOS - CURRENT CHARACTER POSITION.
      180     6389                    LEFT - SPACE REMAINING IN OUTPUT BUFFER.
      181     6390                    TXTC - TEXTC STRING TO BE ADDED TO OUTPUT BUFFER.
      182     6391             OUTPUT: TEXT STRING MOVED TO OUTPUT BUFFER.
      183     6392                     CURPOS - UPDATED CURRENT CHARACTER POSITION.
      184     6393                     LEFT - UPDATED REMAINING SPACE IN BUFFER.
      185     6394             SCRATCH: LOCAL AUTO ONLY.
      186     6395             DESCRIPTION: MOVES AS MUCH OF "TXTC" INTO OUTPUT BUFFER AS WILL FIT.
      187     6396             IF IT ALL FITS THEN UPDATES "CURPOS" AND "LEFT" AND RETURNS.
      188     6397             OTHERWISE, UPON ENCOUNTERING A TRUNCATION ERROR THE FILLED UP BUFFER
      189     6398             IS OUTPUT BY CALLING "DCQ$WRITE", THE STRING CONTROL VARIABLES ARE UPDATED
      190     6399             TO REFLECT HOW MUCH WAS MOVED, AND THE PROCESS IS REPEATED UNTIL THE
      191     6400             INPUT STRING IS EXHAUSTED. */
      192     6401                                                /**/
      193     6402    1   M_TADD: PROC( TXTC );

   6402  1 000272   200014 741300       M_TADD       STX1  ! E$+5,,AUTO

      194     6403                                                /**/
      195     6404    2   DCL 1 TXTC UNAL,
      196     6405    2         2 SIZE UBIN(9) UNAL,
      197     6406    2         2 TXT CHAR( TXTC.SIZE ) UNAL;
      198     6407    2   DCL ST SBIN;                            /* START POSITION */
      199     6408    2   DCL LE SBIN;                            /* LENGTH LEFT TO MOVE */
      200     6409                                                /**/
      201     6410    2        ST = 0;

   6410  1 000273   200016 450100                    STZ     ST,,AUTO

PL6.E3A0      #001=DDE$ERROR File=DXE$ERROR.:E05TSI                              TUE 07/29/97 15:10 Page:29
      202     6411    2        LE = TXTC.SIZE;

   6411  1 000274   200015 470500                    LDP0    @TXTC,,AUTO
         1 000275   000100 101500                    MRL     fill='000'O
         1 000276   000000 000001                    ADSC9   0,,PR0                   cn=0,n=1
         1 000277   200017 000004                    ADSC9   LE,,AUTO                 cn=0,n=4

      203     6412    2   MORE:
      204     6413    2        CALL INSERT( S_D.OUTPUT, CURPOS, LEFT, SUBSTR( TXTC.TXT, ST, LE ) ) ALTRET(
              6413                 TRUNC );

   6413  1 000300   200015 470500       MORE         LDP0    @TXTC,,AUTO
         1 000301   000100 101500                    MRL     fill='000'O
         1 000302   000000 000001                    ADSC9   0,,PR0                   cn=0,n=1
         1 000303   200020 000002                    ADSC9   LE+1,,AUTO               cn=0,n=2
         1 000304   200020 220100                    LDX0    LE+1,,AUTO
         1 000305   200017 721100                    LXL1    LE,,AUTO
         1 000306   200016 235100                    LDA     ST,,AUTO
         1 000307   000000 471400 xsym               LDP1    S_D$
         1 000310   200004 722100                    LXL2    LEFT,,AUTO
         1 000311   200003 236100                    LDQ     CURPOS,,AUTO
         1 000312   040146 100545                    MLR     fill='040'O
         1 000313   000000 200011                    ADSC9   0,A,PR0                  cn=1,n=*X1
         1 000314   105335 000012                    ADSC9   2781,Q,PR1               cn=0,n=*X2
         1 000315   200017 236100                    LDQ     LE,,AUTO
         1 000316   000011 402007                    MPY     9,DL
         1 000317   200021 756100                    STQ     LE+2,,AUTO
         1 000320   200004 236100                    LDQ     LEFT,,AUTO
         1 000321   000011 402007                    MPY     9,DL
         1 000322   200021 116100                    CMPQ    LE+2,,AUTO
         1 000323   000334 604000 1                  TMI     TRUNC

      205     6414    2        LEFT = LEFT - LE;

   6414  1 000324   200004 236100                    LDQ     LEFT,,AUTO
         1 000325   200017 136100                    SBLQ    LE,,AUTO
         1 000326   200004 756100                    STQ     LEFT,,AUTO
PL6.E3A0      #001=DDE$ERROR File=DXE$ERROR.:E05TSI                              TUE 07/29/97 15:10 Page:30

      206     6415    2        CURPOS = CURPOS + LE;

   6415  1 000327   200003 236100                    LDQ     CURPOS,,AUTO
         1 000330   200017 036100                    ADLQ    LE,,AUTO
         1 000331   200003 756100                    STQ     CURPOS,,AUTO

      207     6416                                                /**/
      208     6417    2        RETURN;

   6417  1 000332   200014 221300                    LDX1  ! E$+5,,AUTO
         1 000333   000001 702211                    TSX2  ! 1,X1

      209     6418                                                /**/
      210     6419    2   TRUNC:
      211     6420    2        CALL DDQ$WRITE( ADDR( S_D.OUTPUT ), S_D.OUT_WIDTH );

   6420  1 000334   000000 236000 xsym  TRUNC        LDQ     S_D$
         1 000335   005335 036003                    ADLQ    2781,DU
         1 000336   200020 756100                    STQ     LE+1,,AUTO
         1 000337   000000 236000 xsym               LDQ     S_D$
         1 000340   000014 036003                    ADLQ    12,DU
         1 000341   200023 756100                    STQ     LE+4,,AUTO
         1 000342   200020 630500                    EPPR0   LE+1,,AUTO
         1 000343   200022 450500                    STP0    LE+3,,AUTO
         1 000344   200022 630500                    EPPR0   LE+3,,AUTO
         1 000345   000020 631400 xsym               EPPR1   B_VECTNIL+16
         1 000346   000000 701000 xent               TSX1    DDQ$WRITE
         1 000347   000000 011000                    NOP     0

      212     6421    2        ST = ST + LEFT;

   6421  1 000350   200016 236100                    LDQ     ST,,AUTO
         1 000351   200004 036100                    ADLQ    LEFT,,AUTO
         1 000352   200016 756100                    STQ     ST,,AUTO

      213     6422    2        LE = LE - LEFT;
PL6.E3A0      #001=DDE$ERROR File=DXE$ERROR.:E05TSI                              TUE 07/29/97 15:10 Page:31

   6422  1 000353   200017 236100                    LDQ     LE,,AUTO
         1 000354   200004 136100                    SBLQ    LEFT,,AUTO
         1 000355   200017 756100                    STQ     LE,,AUTO

      214     6423    2        CALL CONCAT( S_D.OUTPUT, CRLFSPS.TXT );

   6423  1 000356   000000 470400 xsym               LDP0    S_D$
         1 000357   040100 100400                    MLR     fill='040'O
         1 000360   000010 200010 0                  ADSC9   CRLFSPS                  cn=1,n=8
         1 000361   005335 004000                    ADSC9   2781,,PR0                cn=0,n=2048

      215     6424    2        LEFT = S_D.OUT_WIDTH - LENGTHC( CRLFSPS.TXT );

   6424  1 000362   000014 235100                    LDA     12,,PR0
         1 000363   000010 135007                    SBLA    8,DL
         1 000364   200004 755100                    STA     LEFT,,AUTO

      216     6425    2        CURPOS = LENGTHC( CRLFSPS.TXT );

   6425  1 000365   000010 235007                    LDA     8,DL
         1 000366   200003 755100                    STA     CURPOS,,AUTO

      217     6426    2        GOTO MORE;

   6426  1 000367   000300 710000 1                  TRA     MORE

      218     6427                                                /**/
      219     6428    2   END M_TADD;
      220     6429        %EJECT;
PL6.E3A0      #001=DDE$ERROR File=DXE$ERROR.:E05TSI                              TUE 07/29/97 15:10 Page:32
      221     6430        /*F* NAME: M_SPACE
      222     6431             PURPOSE: TO INSERT SPACES INTO THE OUTPUT BUFFER.
      223     6432             DESCRIPTION: ADDS THE REQUESTED NUMBER OF SPACES TO THE OUTPUT BUFFER. */
      224     6433        /*D* NAME: M_SPACE
      225     6434             CALL: CALL M_SPACE( COUNT );
      226     6435             ENVIRONMENT: DXE$ERROR ACTIVE.
      227     6436             INTERFACE: DCQ$WRITE
      228     6437             INPUT: S_D.OUTPUT - BUFFER, ALREADY BLANK FILLED.
      229     6438                    CURPOS - CURRENT CHARACTER POSITION.
      230     6439                    COUNT - NUMBER OF SPACES TO INSERT.
      231     6440             OUTPUT: SPACES MOVED TO OUTPUT BUFFER
      232     6441                     CURPOS - UPDATED CURRENT CHARACTER POSITION.
      233     6442                     LEFT - UPDATED REMAINING SPACE IN BUFFER.
      234     6443             SCRATCH - LOCAL AUTO ONLY.
      235     6444             DESCRIPTION: SEE M_TADD, EXCEPT IMPENDING TRUNCATION IS DETECTED DIRECTLY,
      236     6445             NOT BY USING "INSERT" SUBROUTINE. */
      237     6446                                                /**/
      238     6447    1   M_SPACE: PROC( COUNT );

   6447  1 000370   200014 741300       M_SPACE      STX1  ! E$+5,,AUTO

      239     6448                                                /**/
      240     6449    2   DCL COUNT SBIN;
      241     6450    2   DCL LE SBIN;
      242     6451                                                /**/
      243     6452    2        LE = COUNT;

   6452  1 000371   200015 470500                    LDP0    @COUNT,,AUTO
         1 000372   000000 235100                    LDA     0,,PR0
         1 000373   200016 755100                    STA     LE,,AUTO

      244     6453    2        IF ( LE > LEFT )

   6453  1 000374   200016 236100                    LDQ     LE,,AUTO
         1 000375   200004 116100                    CMPQ    LEFT,,AUTO
         1 000376   000431 604400 1                  TMOZ    s:6460

PL6.E3A0      #001=DDE$ERROR File=DXE$ERROR.:E05TSI                              TUE 07/29/97 15:10 Page:33
      245     6454    3        THEN DO WHILE ( LE > LEFT );

   6454  1 000377   000431 604400 1                  TMOZ    s:6460

      246     6455    3             LE = LE - LEFT;

   6455  1 000400   200016 236100                    LDQ     LE,,AUTO
         1 000401   200004 136100                    SBLQ    LEFT,,AUTO
         1 000402   200016 756100                    STQ     LE,,AUTO

      247     6456    3             LEFT = S_D.OUT_WIDTH - LENGTHC( CRLFSPS.TXT );

   6456  1 000403   000000 470400 xsym               LDP0    S_D$
         1 000404   000014 235100                    LDA     12,,PR0
         1 000405   000010 135007                    SBLA    8,DL
         1 000406   200004 755100                    STA     LEFT,,AUTO

      248     6457    3             CALL DDQ$WRITE( ADDR( S_D.OUTPUT ), CURPOS );

   6457  1 000407   000000 236000 xsym               LDQ     S_D$
         1 000410   005335 036003                    ADLQ    2781,DU
         1 000411   200020 756100                    STQ     LE+1,,AUTO
         1 000412   200003 631500                    EPPR1   CURPOS,,AUTO
         1 000413   200023 451500                    STP1    LE+4,,AUTO
         1 000414   200020 633500                    EPPR3   LE+1,,AUTO
         1 000415   200022 453500                    STP3    LE+3,,AUTO
         1 000416   200022 630500                    EPPR0   LE+3,,AUTO
         1 000417   000020 631400 xsym               EPPR1   B_VECTNIL+16
         1 000420   000000 701000 xent               TSX1    DDQ$WRITE
         1 000421   000000 011000                    NOP     0

      249     6458    3             CALL CONCAT( S_D.OUTPUT, CRLFSPS.TXT );

   6458  1 000422   000000 470400 xsym               LDP0    S_D$
         1 000423   040100 100400                    MLR     fill='040'O
         1 000424   000010 200010 0                  ADSC9   CRLFSPS                  cn=1,n=8
         1 000425   005335 004000                    ADSC9   2781,,PR0                cn=0,n=2048
PL6.E3A0      #001=DDE$ERROR File=DXE$ERROR.:E05TSI                              TUE 07/29/97 15:10 Page:34

      250     6459    3           END;

   6459  1 000426   200016 236100                    LDQ     LE,,AUTO
         1 000427   200004 116100                    CMPQ    LEFT,,AUTO
         1 000430   000400 605400 1                  TPNZ    s:6455

      251     6460    2        LEFT = LEFT - LE;

   6460  1 000431   200004 236100                    LDQ     LEFT,,AUTO
         1 000432   200016 136100                    SBLQ    LE,,AUTO
         1 000433   200004 756100                    STQ     LEFT,,AUTO

      252     6461    2        CURPOS = S_D.OUT_WIDTH - LEFT;

   6461  1 000434   000000 470400 xsym               LDP0    S_D$
         1 000435   000014 236100                    LDQ     12,,PR0
         1 000436   200004 136100                    SBLQ    LEFT,,AUTO
         1 000437   200003 756100                    STQ     CURPOS,,AUTO

      253     6462                                                /**/
      254     6463    2        RETURN;

   6463  1 000440   200014 221300                    LDX1  ! E$+5,,AUTO
         1 000441   000001 702211                    TSX2  ! 1,X1

      255     6464                                                /**/
      256     6465    2   END M_SPACE;
      257     6466        %EJECT;
PL6.E3A0      #001=DDE$ERROR File=DXE$ERROR.:E05TSI                              TUE 07/29/97 15:10 Page:35
      258     6467        /*F* NAME: M_TRUNC
      259     6468             PURPOSE: TO WRITE OUT REMAINING CHARACTER STRING IN OUTPUT BUFFER.
      260     6469             DESCRIPTION: WRITES OUT CONTENTS OF OUTPUT BUFFER & RETURNS. */
      261     6470        /*D* NAME: M_TRUNC
      262     6471             CALL: CALL M_TRUNC;
      263     6472             ENVIRONMENT: DXE$ERROR ACTIVE.
      264     6473             INTERFACE: DCQ$WRITE
      265     6474             INPUT: S_D.OUTPUT - BUFFER
      266     6475                    CURPOS - CURRENT CHARACTER POSITION.
      267     6476             OUTPUT: CONTENTS OF OUTPUT BUFFER WRITTEN OUT.
      268     6477             SCRATCH: LOCAL AUTO ONLY.
      269     6478             DESCRIPTION: WRITES OUT CONTENTS OF OUTPUT BUFFER & RETURNS. */
      270     6479                                                /**/
      271     6480    1   M_TRUNC: PROC;

   6480  1 000442   200014 741300       M_TRUNC      STX1  ! E$+5,,AUTO

      272     6481                                                /**/
      273     6482    2        CALL DDQ$WRITE( ADDR( S_D.OUTPUT ), CURPOS );

   6482  1 000443   000000 236000 xsym               LDQ     S_D$
         1 000444   005335 036003                    ADLQ    2781,DU
         1 000445   200020 756100                    STQ     LE+1,,AUTO
         1 000446   200003 630500                    EPPR0   CURPOS,,AUTO
         1 000447   200023 450500                    STP0    LE+4,,AUTO
         1 000450   200020 631500                    EPPR1   LE+1,,AUTO
         1 000451   200022 451500                    STP1    LE+3,,AUTO
         1 000452   200022 630500                    EPPR0   LE+3,,AUTO
         1 000453   000020 631400 xsym               EPPR1   B_VECTNIL+16
         1 000454   000000 701000 xent               TSX1    DDQ$WRITE
         1 000455   000000 011000                    NOP     0

      274     6483    2        RETURN;

   6483  1 000456   200014 221300                    LDX1  ! E$+5,,AUTO
         1 000457   000001 702211                    TSX2  ! 1,X1

PL6.E3A0      #001=DDE$ERROR File=DXE$ERROR.:E05TSI                              TUE 07/29/97 15:10 Page:36
PREFIX
 Sect OctLoc
   0     000   001104 ******                                                    .D..

EXX
 Sect OctLoc
   0     001   001130 ******                                                    .X..

CEE
 Sect OctLoc
   0     002   001103 ******                                                    .C..

EDASH
 Sect OctLoc
   0     003   002105 055***                                                    .E-.

DQUOTE
 Sect OctLoc
   0     004   001042 ******                                                    ."..

LPAREN
 Sect OctLoc
   0     005   001050 ******                                                    .(..

RPAREN
 Sect OctLoc
   0     006   001051 ******                                                    .)..

AT
 Sect OctLoc
   0     007   001100 ******                                                    .@..

CRLFSPS
 Sect OctLoc
   0     010   010040 040040   040040 040040   040*** ******                    .        ...

DXERR
PL6.E3A0      #001=DDE$ERROR File=DXE$ERROR.:E05TSI                              TUE 07/29/97 15:10 Page:37
 Sect OctLoc
   0     013   000000 053052   052052 052040   125156 141142   154145 040164    ..+**** Unable t
   0     017   157040 146151   156144 040145   162162 157162   040155 145163    o find error mes
   0     023   163141 147145   040164 145170   164040 052052   052052 000001    sage text ****..
   0     027   033111 156166   141154 151144   040162 141156   147145 040163    .Invalid range s
   0     033   160145 143151   146151 143141   164151 157156   000002 043101    pecification..#A
   0     037   144144 162145   163163 040145   170160 162145   163163 151157    ddress expressio
   0     043   156040 156157   164040 141154   154157 167145   144040 150145    n not allowed he
   0     047   162145 000003   020123 171155   142157 154040   156157 164040    re...Symbol not
   0     053   146157 165156   144000 004035   111156 166141   154151 144040    found...Invalid
   0     057   165163 145040   157146 040163   160145 143151   141154 040163    use of special s
   0     063   171155 142157   154000 005025   111156 166141   154151 144040    ymbol...Invalid
   0     067   165163 145040   157146 040163   171155 144145   146000 006032    use of symdef...
   0     073   167162 157156   147040 156165   155142 145162   040157 146040    wrong number of
   0     077   163165 142163   143162 151160   164163 000007   014151 163040    subscripts...is
   0     103   156157 164040   141040 120124   122000 010033   116157 040162    not a PTR...No r
   0     107   157157 155040   146157 162040   144141 164141   040144 145163    oom for data des
   0     113   143162 151160   164157 162000   011026 156157   164040 102101    criptor...not BA
   0     117   123105 104040   157162 040160   141162 141155   145164 145162    SED or parameter
   0     123   000012 035103   141156 047164   040114 105124   040164 150151    ...Can't LET thi
   0     127   163040 163160   145143 151141   154040 163171   155142 157154    s special symbol
   0     133   000013 003105   150100 000014   041111 104040   157165 164040    ...Eh@..!ID out
   0     137   157146 040162   141156 147145   040157 162040   141154 162145    of range or alre
   0     143   141144 171040   151156 040165   163145 000015   057101 164164    ady in use../Att
   0     147   141143 150155   145156 164163   040164 157040   141156 040151    achments to an i
   0     153   155155 145144   151141 164145   040144 151162   145143 164151    mmediate directi
   0     157   166145 040163   160145 143151   146151 145144   000016 077111    ve specified..?I
   0     163   104040 163160   145143 151146   151145 144040   157156 040151    D specified on i
   0     167   155155 145144   151141 164145   040144 151162   145143 164151    mmediate directi
   0     173   166145 040157   162040 157156   040143 157156   164151 156165    ve or on continu
   0     177   145144 040141   164164 141143   150155 145156   164163 000017    ed attachments..
   0     203   066111 156163   165146 146151   143151 145156   164040 163160    6Insufficient sp
   0     207   141143 145040   151156 040144   151162 143157   155057 166141    ace in dircom/va
   0     213   162143 157155   040164 157040   142165 151154   144040 144151    rcom to build di
   0     217   162145 143164   151166 145000   020053 123164   157162 145144    rective..+Stored
   0     223   040144 151162   145143 164151   166145 040163   160145 143151     directive speci
   0     227   146151 145144   040141 163040   141156 040141   164164 141143    fied as an attac
PL6.E3A0      #001=DDE$ERROR File=DXE$ERROR.:E05TSI                              TUE 07/29/97 15:10 Page:38
   0     233   150155 145156   164000 021041   116157 040146   162145 145040    hment..!No free
   0     237   163154 157164   163040 141166   141151 154141   142154 145040    slots available
   0     243   151156 040146   151170 143157   155000 022043   125163 145162    in fixcom..#User
   0     247   040104 105114   124101 040157   156154 171040   144151 162145     DELTA only dire
   0     253   143164 151166   145040 151156   040130 104105   114124 101000    ctive in XDELTA.
   0     257   023043 130104   105114 124101   040157 156154   171040 144151    .#XDELTA only di
   0     263   162145 143164   151166 145040   151156 040165   163145 162040    rective in user
   0     267   104105 114124   101000 024044   104145 142165   147040 163143    DELTA..$Debug sc
   0     273   150145 155141   040113 111114   114145 144040   157162 040156    hema KILLed or n
   0     277   157164 040141   166141 151154   141142 154145   000025 021103    ot available...C
   0     303   141156 047164   040146 151156   144040 163171   155142 157154    an't find symbol
   0     307   000026 043131   157165 162040   122165 156040   125156 151164    ..#Your Run Unit
   0     313   047163 040104   105102 125107   040123 103110   105115 101040    's DEBUG SCHEMA
   0     317   151163 040142   141144 000027   031106 145141   164165 162145    is bad...Feature
   0     323   040156 157164   040171 145164   040141 166141   151154 141142     not yet availab
   0     327   154145 000030   015102 141144   040163 165142   163143 162151    le...Bad subscri
   0     333   160164 000031   034111 156166   141154 151144   040111 123040    pt...Invalid IS
   0     337   141144 144162   145163 163040   163160 145143   151146 151145    address specifie
   0     343   144000 032036   111156 166141   154151 144040   163165 142163    d...Invalid subs
   0     347   164141 164145   155145 156164   040162 145146   145162 145156    tatement referen
   0     353   143145 000033   030111 156166   141154 151144   040157 146146    ce...Invalid off
   0     357   163145 164040   162145 146145   162145 156143   145000 034043    set reference..#
   0     363   114141 142145   154145 144040   141162 162141   171040 162145    Labeled array re
   0     367   146145 162145   156143 145040   156157 164040   141154 154157    ference not allo
   0     373   167145 144000   035054 103141   156047 164040   146151 156144    wed..,Can't find
   0     377   040163 160145   143151 146151   145144 040154   141142 145154     specified label
   0     403   145144 040141   162162 141171   040162 145146   145162 145156    ed array referen
   0     407   143145 000036   040103 141156   047164 040146   151156 144040    ce.. Can't find
   0     413   163160 145143   151146 151145   144040 154151   156145 040156    specified line n
   0     417   165155 142145   162000 037041   103141 156047   164040 146151    umber..!Can't fi
   0     423   156144 040163   160145 143151   146151 145144   040163 165142    nd specified sub
   0     427   163164 141164   145155 145156   164000 040033   103141 156047    statement. .Can'
   0     433   164040 146151   156144 040163   160145 143151   146151 145144    t find specified
   0     437   040145 156164   144145 146000   041032 103141   156047 164040     entdef.!.Can't
   0     443   146151 156144   040163 160145   143151 146151   145144 040154    find specified l
   0     447   141142 145154   000042 033106   145141 164165   162145 040156    abel.".Feature n
   0     453   157164 040171   145164 040151   155160 154145   155145 156164    ot yet implement
PL6.E3A0      #001=DDE$ERROR File=DXE$ERROR.:E05TSI                              TUE 07/29/97 15:10 Page:39
   0     457   145144 000043   030105 162162   157162 040143   141154 154151    ed.#.Error calli
   0     463   156147 040104   130107 044120   124122 105116   104000 044020    ng DXG$PTREND.$.
   0     467   101144 144162   145163 163151   156147 040145   162162 157162    Addressing error
   0     473   000045 031105   170160 162145   163163 151157   156040 151163    .%.Expression is
   0     477   040164 157157   040143 157155   160154 145170   000046 036047     too complex.&.'
   0     503   125123 105047   040151 156040   143157 156146   154151 143164    USE' in conflict
   0     507   040167 151164   150040 162145   161165 145163   164000 047033     with request.'.
   0     513   111156 166141   154151 144040   162141 156147   145040 163160    Invalid range sp
   0     517   145143 151146   151143 141164   151157 156000   050031 101144    ecification.(.Ad
   0     523   144162 145163   163040 145170   160162 145163   163151 157156    dress expression
   0     527   040076 040062   065066 153000   051035 111164   145155 040156     > 256k.).Item n
   0     533   157164 040141   142154 145040   164157 040142   145040 144151    ot able to be di
   0     537   163160 154141   171145 144000   052034 111164   145155 040156    splayed.*.Item n
   0     543   157164 040141   142154 145040   164157 040142   145040 155157    ot able to be mo
   0     547   144151 146151   145144 000053   035111 164145   155040 156157    dified.+.Item no
   0     553   164040 141142   154145 040164   157040 142145   040145 166141    t able to be eva
   0     557   154165 141164   145144 000054   051120 157163   151164 151157    luated.,)Positio
   0     563   156040 156157   164040 141160   160162 157160   162151 141164    n not appropriat
   0     567   145040 146157   162040 141040   142162 145141   153160 157151    e for a breakpoi
   0     573   156164 000055   030111 156166   141154 151144   040157 160040    nt.-.Invalid op
   0     577   143157 144145   040155 156145   155157 156151   143000 056031    code mnemonic...
   0     603   123160 145143   151146 151145   144040 166141   154165 145040    Specified value
   0     607   164157 157040   154141 162147   145000 057030   116157 164040    too large./.Not
   0     613   141164 164141   143150 141142   154145 040144   151162 145143    attachable direc
   0     617   164151 166145   000060 017123   171155 142157   154040 164157    tive.0.Symbol to
   0     623   157040 154157   156147 000061   016102 141144   040160 141147    o long.1.Bad pag
   0     627   145040 164141   142154 145000   062021 102141   144040 165163    e table.2.Bad us
   0     633   145162 040043   040151 156040   125123 105000   063043 123171    er # in USE.3#Sy
   0     637   155142 157154   151143 040162   145146 145162   145156 143145    mbolic reference
   0     643   040156 157164   040141 154154   157167 145144   040150 145162     not allowed her
   0     647   145000 064036   121165 141154   151146 151143   141164 151157    e.4.Qualificatio
   0     653   156040 156157   164040 141154   154157 167145   144040 150145    n not allowed he
   0     657   162145 000065   003105 150077   000066 046125   123105 040115    re.5.Eh?.6&USE M
   0     663   117116 040162   145161 165151   162145 144040   146157 162040    ON required for
   0     667   117116 040103   101114 114040   144151 162145   143164 151166    ON CALL directiv
   0     673   145000 067062   125123 105040   164171 160145   040156 157164    e.72USE type not
   0     677   040143 157155   160141 164151   142154 145040   167151 164150     compatible with
PL6.E3A0      #001=DDE$ERROR File=DXE$ERROR.:E05TSI                              TUE 07/29/97 15:10 Page:40
   0     703   040163 164157   162145 144040   144151 162145   143164 151166     stored directiv
   0     707   145040 164171   160145 000070   044111 146163   160145 143040    e type.8$Ifspec
   0     713   156157 164040   141154 154157   167145 144040   157156 040164    not allowed on t
   0     717   150151 163040   144151 162145   143164 151166   145000 071045    his directive.9%
   0     723   104165 160154   151143 141164   145040 142162   145141 153160    Duplicate breakp
   0     727   157151 156164   163040 141162   145040 156157   164040 141154    oints are not al
   0     733   154157 167145   144000 072046   101144 144162   145163 163040    lowed.:&Address
   0     737   145170 160162   145163 163151   157156 040143   141156 156157    expression canno
   0     743   164040 142145   040145 166141   154165 141164   145144 000073    t be evaluated.;
   0     747   041114 157167   145162 040076   040165 160160   145162 040163    !Lower > upper s
   0     753   165142 163143   162151 160164   040162 145146   145162 145156    ubscript referen
   0     757   143145 000074   046123 145147   151144 040157   165164 040157    ce.<&Segid out o
   0     763   146040 144145   163143 162151   160164 157162   040163 145147    f descriptor seg
   0     767   155145 156164   040142 157165   156144 163000   075025 103141    ment bounds.=.Ca
   0     773   156047 164040   162145 144145   146151 156145   040163 171155    n't redefine sym
   0     777   142157 154000   076022 124157   157040 155141   156171 040165    bol.>.Too many u
   0    1003   163145 162040   144145 146163   000077 036111   104040 047124    ser defs.?.ID 'T
   0    1007   117047 040147   162145 141164   145162 040164   150141 156040    O' greater than
   0    1013   111104 040047   106122 117115   047000 100020   103157 156163    ID 'FROM'.@.Cons
   0    1017   164141 156164   040164 157157   040142 151147   000101 043111    tant too big.A#I
   0    1023   156166 141154   151144 040142   151164 057157   143164 141154    nvalid bit/octal
   0    1027   057150 145170   141144 145143   151155 141154   040144 151147    /hexadecimal dig
   0    1033   151164 000102   041111 156143   157155 160141   164151 142154    it.B!Incompatibl
   0    1037   145040 144141   164141 040164   171160 145163   040146 157162    e data types for
   0    1043   040047 114105   124047 000103   033115 151163   165163 145040     'LET'.C.Misuse
   0    1047   157146 040044   114040 163160   145143 151141   154040 163171    of $L special sy
   0    1053   155142 157154   000104 025101   143143 145163   163040 157165    mbol.D.Access ou
   0    1057   164040 157146   040163 145147   155145 156164   000105 051102    t of segment.E)B
   0    1063   141144 040144   145163 143162   151160 164157   162040 164171    ad descriptor ty
   0    1067   160145 040050   156157 164040   157160 145162   141156 144040    pe (not operand
   0    1073   163164 157162   141147 145051   000106 047123   145147 155145    storage).F'Segme
   0    1077   156164 040160   162145 163145   156164 040142   151164 040162    nt present bit r
   0    1103   145163 145164   040151 156040   144145 163143   162151 160164    eset in descript
   0    1107   157162 000107   043123 145147   155145 156164   040145 155160    or.G#Segment emp
   0    1113   164171 040142   151164 040163   145164 040151   156040 144145    ty bit set in de
   0    1117   163143 162151   160164 157162   000110 046104   145163 143162    scriptor.H&Descr
   0    1123   151160 164157   162040 144157   145163 040156   157164 040141    iptor does not a
PL6.E3A0      #001=DDE$ERROR File=DXE$ERROR.:E05TSI                              TUE 07/29/97 15:10 Page:41
   0    1127   154154 157167   040167 162151   164145 040141   143143 145163    llow write acces
   0    1133   163000 111045   104145 163143   162151 160164   157162 040144    s.I%Descriptor d
   0    1137   157145 163040   156157 164040   141154 154157   167040 162145    oes not allow re
   0    1143   141144 040141   143143 145163   163000 112035   102141 144040    ad access.J.Bad
   0    1147   160141 147145   040164 141142   154145 040144   151162 145143    page table direc
   0    1153   164157 162171   040167 157162   144000 113027   122145 146145    tory word.K.Refe
   0    1157   162145 156143   145040 151163   040142 145171   157156 144040    rence is beyond
   0    1163   155141 160000   114045 122145   146145 162145   156143 145040    map.L%Reference
   0    1167   163164 141162   164163 040157   156040 156157   156055 145170    starts on non-ex
   0    1173   151163 164145   156164 040160   141147 145000   115064 122145    istent page.M4Re
   0    1177   146145 162145   156143 145040   143162 157163   163145 163040    ference crosses
   0    1203   160141 147145   040142 157165   156144 141162   171040 164157    page boundary to
   0    1207   040156 157156   055145 170151   163164 145156   164040 160141     non-existent pa
   0    1213   147145 000116   033104 105114   124101 040164   162141 160160    ge.N.DELTA trapp
   0    1217   145144 040144   165162 151156   147040 141143   143145 163163    ed during access
   0    1223   000117 032105   162162 157162   040162 145141   144151 156147    .O.Error reading
   0    1227   040151 156160   165164 040144   145166 151143   145000 120051     input device.P)
   0    1233   123141 166145   040171 157165   162040 163165   142163 143162    Save your subscr
   0    1237   151160 164163   040146 157162   040141 162162   141171 040162    ipts for array r
   0    1243   145146 145162   145156 143145   163000 121035   124157 157040    eferences.Q.Too
   0    1247   155141 156171   040163 165142   163143 162151   160164 163040    many subscripts
   0    1253   163160 145143   151146 151145   144000 122030   105170 160145    specified.R.Expe
   0    1257   143164 145144   040166 141154   165145 040156   157164 040146    cted value not f
   0    1263   157165 156144   000123 013102   141144 040141   144144 162145    ound.S.Bad addre
   0    1267   163163 000124   044103 141156   047164 040146   151156 144040    ss.T$Can't find
   0    1273   163145 154146   040151 144145   156164 151146   171151 156147    self identifying
   0    1277   040163 145147   155145 156164   163000 125031   103141 156047     segments.U.Can'
   0    1303   164040 144157   040164 150141   164040 151156   144151 162145    t do that indire
   0    1307   143164 151157   156000 126024   102141 144040   145170 160162    ction.V.Bad expr
   0    1313   145163 163151   157156 040166   141154 165145   000127 031105    ession value.W.E
   0    1317   170160 162145   163163 151157   156040 156157   164040 166141    xpression not va
   0    1323   154151 144040   150145 162145   000130 022117   165164 160165    lid here.X.Outpu
   0    1327   164040 142165   146146 145162   040146 165154   154000 131016    t buffer full.Y.
   0    1333   125156 153156   157167 156040   146157 162155   141164 000132    Unknown format.Z
   0    1337   042104 141164   141040 163151   172145 040055   040164 171160    "Data size - typ
   0    1343   145040 155151   163155 141164   143150 040050   114105 124057    e mismatch (LET/
   0    1347   111106 051000   133105 117156   154171 040157   156145 040164    IF).[EOnly one t
PL6.E3A0      #001=DDE$ERROR File=DXE$ERROR.:E05TSI                              TUE 07/29/97 15:10 Page:42
   0    1353   171160 145040   145141 143150   040157 146040   117116 040050    ype each of ON (
   0    1357   101102 117122   124054 040105   130111 124054   040103 101114    ABORT, EXIT, CAL
   0    1363   114123 054040   116117 104105   123051 040143   141156 040142    LS, NODES) can b
   0    1367   145040 163160   145143 151146   151145 144000   134067 131157    e specified.\7Yo
   0    1373   165040 144157   156047 164040   150141 166145   040141 040150    u don't have a h
   0    1377   141156 144154   145162 040146   157162 040164   150141 164040    andler for that
   0    1403   105170 143145   160164 151157   156141 154040   103157 156144    Exceptional Cond
   0    1407   151164 151157   156000 135034   131157 165040   144157 156047    ition.].You don'
   0    1413   164040 150141   166145 040142   162145 141153   040143 157156    t have break con
   0    1417   164162 157154   000136 026103   141156 047164   040162 145141    trol.^.Can't rea
   0    1423   144040 110105   101104 040162   145143 157162   144000 137041    d HEAD record._!
   0    1427   103141 156047   164040 147145   164040 155145   155157 162171    Can't get memory
   0    1433   040146 157162   040104 105106   163040 162145   143157 162144     for DEFs record
   0    1437   163000 140033   103141 156047   164040 162145   141144 040104    s.`.Can't read D
   0    1443   105106 040116   101115 105123   040162 145143   157162 144000    EF NAMES record.
   0    1447   141031 103141   156047 164040   162145 141144   040105 116124    a.Can't read ENT
   0    1453   104105 106163   040162 145143   157162 144000   142031 103141    DEFs record.b.Ca
   0    1457   156047 164040   162145 141144   040123 131115   104105 106163    n't read SYMDEFs
   0    1463   040162 145143   157162 144000   143015 155165   163164 040150     record.c.must h
   0    1467   141166 145040   120124 122000   144047 104105   114124 101040    ave PTR.d'DELTA
   0    1473   145156 164162   171040 167141   163040 156157   164040 143141    entry was not ca
   0    1477   165163 145144   040142 171040   165163 145162   040164 162141    used by user tra
   0    1503   160000 145035   131157 165162   040124 103102   040151 163040    p.e.Your TCB is
   0    1507   146165 154154   040157 162040   156157 164040   164150 145162    full or not ther
   0    1513   145000 146062   131157 165040   163160 145143   151146 151145    e.f2You specifie
   0    1517   144040 124122   101120 054040   142165 164040   144157 156047    d TRAP, but don'
   0    1523   164040 150141   166145 040143   157156 164162   157154 040146    t have control f
   0    1527   157162 040164   150145 000147   025102 141144   040160 141162    or the.g.Bad par
   0    1533   141155 145164   145162 040160   157151 156164   145162 000150    ameter pointer.h
   0    1537   013102 141144   040160 157151   156164 145162   000151 027110    .Bad pointer.i.H
   0    1543   151163 164157   162171 040142   165146 146145   162040 151163    istory buffer is
   0    1547   040145 155160   164171 000152   017116 157040   155157 162145     empty.j.No more
   0    1553   040150 151163   164157 162171   000153 041103   141156 047164     history.k!Can't
   0    1557   040146 151156   144040 104105   114124 101040   163160 145143     find DELTA spec
   0    1563   151141 154040   154157 143141   164151 157156   000154 073131    ial location.l;Y
   0    1567   157165 040163   160145 143151   146151 145144   040124 122101    ou specified TRA
   0    1573   120054 040142   165164 040145   170151 164040   143157 156164    P, but exit cont
PL6.E3A0      #001=DDE$ERROR File=DXE$ERROR.:E05TSI                              TUE 07/29/97 15:10 Page:43
   0    1577   162157 154040   151163 040141   154162 145141   144171 040151    rol is already i
   0    1603   156040 160162   157147 162145   163163 000155   071105 170151    n progress.m9Exi
   0    1607   164040 143157   156164 162157   154040 141154   162145 141144    t control alread
   0    1613   171040 151156   040160 162157   147162 145163   163054 040164    y in progress, t
   0    1617   150151 163040   167157 165154   144040 162165   156040 171157    his would run yo
   0    1623   165040 144157   167156 000156   030102 122105   101113 040167    u down.n.BREAK w
   0    1627   141163 040162   145163 145164   040142 171040   104105 114124    as reset by DELT
   0    1633   101000 157044   130104 105114   124101 055157   156154 171040    A.o$XDELTA-only
   0    1637   163171 155142   157154 054040   156157 164040   141154 154157    symbol, not allo
   0    1643   167145 144040   150145 162145   000160 074103   141156 047164    wed here.p<Can't
   0    1647   040164 165162   156040 164162   141143 145040   157156 054040     turn trace on,
   0    1653   156157 040164   162141 143145   040160 141162   141155 145164    no trace paramet
   0    1657   145162 163040   145170 151163   164054 040165   163145 040124    ers exist, use T
   0    1663   103040 157162   040124 124000   161050 125163   145162 040104    C or TT.q(User D
   0    1667   105114 124101   055157 156154   171040 163171   155142 157154    ELTA-only symbol
   0    1673   054040 156157   164040 141154   154157 167145   144040 150145    , not allowed he
   0    1677   162145 000162   056131 157165   040144 157156   047164 040150    re.r.You don't h
   0    1703   141166 145040   160162 157160   145162 040160   162151 166151    ave proper privi
   0    1707   154145 147145   040146 157162   040101 116114   132057 104105    lege for ANLZ/DE
   0    1713   114124 101000   163031 116157   164040 141154   154157 167145    LTA.s.Not allowe
   0    1717   144040 151156   040120 101124   103110 040155   157144 145000    d in PATCH mode.
   0    1723   164024 102141   144040 145170   160162 145163   163151 157156    t.Bad expression
   0    1727   040151 156040   111106 000165   027120 162157   147162 141155     in IF.u.Program
   0    1733   040151 163040   156157 164040   157166 145162   154141 151144     is not overlaid
   0    1737   000166 061103   141156 047164   040147 145164   040155 145155    .v1Can't get mem
   0    1743   157162 171040   146157 162040   104105 114124   101040 157166    ory for DELTA ov
   0    1747   145162 154141   171040 143157   156164 162157   154040 164141    erlay control ta
   0    1753   142154 145163   000167 057103   141156 047164   040147 145164    bles.w/Can't get
   0    1757   040155 145155   157162 171040   146157 162040   104105 114124     memory for DELT
   0    1763   101040 157166   145162 154141   171040 104105   106163 040162    A overlay DEFs r
   0    1767   145143 157162   144163 000170   041103 141156   047164 040146    ecords.x!Can't f
   0    1773   151156 144040   163160 145143   151146 151145   144040 157166    ind specified ov
   0    1777   145162 154141   171040 156157   144145 000171   033122 157157    erlay node.y.Roo
   0    2003   164040 156157   144145 040143   141156 047164   040142 145040    t node can't be
   0    2007   115044 117114   101131 145144   000172 031120   101124 103110    M$OLAYed.z.PATCH
   0    2013   040155 157144   145040 157156   154171 040144   151162 145143     mode only direc
   0    2017   164151 166145   000173 036105   170160 162145   163163 151157    tive.{.Expressio
PL6.E3A0      #001=DDE$ERROR File=DXE$ERROR.:E05TSI                              TUE 07/29/97 15:10 Page:44
   0    2023   156040 151156   166141 154151   144040 151156   040122 125115    n invalid in RUM
   0    2027   040155 157144   145000 174027   131157 165040   141162 145040     mode.|.You are
   0    2033   156157 164040   151156 040122   125115 040155   157144 145000    not in RUM mode.
   0    2037   175031 104105   114124 101040   155157 144145   040157 156154    }.DELTA mode onl
   0    2043   171040 144151   162145 143164   151166 145000   176036 103141    y directive.~.Ca
   0    2047   156047 164040   122125 115040   141040 146151   144040 167151    n't RUM a fid wi
   0    2053   164150 157165   164040 141040   156141 155145   000177 033122    thout a name...R
   0    2057   125115 040146   151144 040157   160145 156040   146157 162040    UM fid open for
   0    2063   151156 160165   164040 157156   154171 000200   036123 160145    input only...Spe
   0    2067   143151 146151   145144 040122   125115 040146   151144 040151    cified RUM fid i
   0    2073   163040 156157   164040 141156   040122 125000   201031 125156    s not an RU...Un
   0    2077   141142 154145   040164 157040   141154 154157   143141 164145    able to allocate
   0    2103   040155 145155   157162 171000   202047 103141   156047 164040     memory..'Can't
   0    2107   155157 144151   146171 040104   103102 163054   040156 157040    modify DCBs, no
   0    2113   162145 141144   055157 156154   171055 163145   147155 145156    read-only-segmen
   0    2117   164000 203050   122145 161165   145163 164145   144040 141144    t..(Requested ad
   0    2123   144162 145163   163040 151163   040156 157164   040167 151164    dress is not wit
   0    2127   150151 156040   122165 156040   125156 151164   000204 050125    hin Run Unit..(U
   0    2133   156141 142154   145040 164157   040141 143143   145163 163040    nable to access
   0    2137   122165 156040   125156 151164   040160 162157   147162 141155    Run Unit program
   0    2143   040162 145143   157162 144000   205062 125156   141142 154145     record..2Unable
   0    2147   040164 157040   141143 143145   163163 040122   165156 040125     to access Run U
   0    2153   156151 164040   162145 141144   055157 156154   171055 163145    nit read-only-se
   0    2157   147155 145156   164040 162145   143157 162144   000206 045125    gment record..%U
   0    2163   156141 142154   145040 164157   040141 143143   145163 163040    nable to access
   0    2167   122165 156040   125156 151164   040110 105101   104040 162145    Run Unit HEAD re
   0    2173   143157 162144   000207 045116   165154 154040   144151 162145    cord..%Null dire
   0    2177   143164 151166   145163 040144   157156 047164   040155 141153    ctives don't mak
   0    2203   145040 163145   156163 145040   150145 162145   000210 052103    e sense here..*C
   0    2207   157156 164151   156165 145144   040144 151162   145143 164151    ontinued directi
   0    2213   166145 163040   144157 156047   164040 155141   153145 040163    ves don't make s
   0    2217   145156 163145   040150 145162   145000 211054   103141 156047    ense here..,Can'
   0    2223   164040 104117   040055 040163   164157 162145   144040 144151    t DO - stored di
   0    2227   162145 143164   151166 145040   111104 040144   157145 163156    rective ID doesn
   0    2233   047164 040145   170151 163164   000213 045106   141165 154164    't exist..%Fault
   0    2237   040167 150151   154145 040141   143143 145163   163151 156147     while accessing
   0    2243   040103 115104   040146 162157   155040 115044   101114 111102     CMD from M$ALIB
PL6.E3A0      #001=DDE$ERROR File=DXE$ERROR.:E05TSI                              TUE 07/29/97 15:10 Page:45
   0    2247   000214 051106   141165 154164   040167 150151   154145 040141    ..)Fault while a
   0    2253   143143 145163   163151 156147   040122 105123   125114 124123    ccessing RESULTS
   0    2257   040146 162157   155040 115044   101114 111102   000215 022124     from M$ALIB...T
   0    2263   150141 164047   163040 156157   040105 104111   124040 153145    hat's no EDIT ke
   0    2267   171000 216032   103141 156047   164040 146151   156144 040122    y...Can't find R
   0    2273   145143 157166   145162 171040   102165 146146   145162 000217    ecovery Buffer..
   0    2277   031103 141156   047164 040146   151156 144040   125163 145162    .Can't find User
   0    2303   040104 151162   145143 164157   162171 000220   034103 141156     Directory...Can
   0    2307   047164 040146   151156 144040   110112 111124   040055 040144    't find HJIT - d
   0    2313   165162 151156   147040 125123   105000 221033   103141 156047    uring USE...Can'
   0    2317   164040 146151   156144 040112   111124 040055   040144 165162    t find JIT - dur
   0    2323   151156 147040   125123 105000   222037 116157   040163 165143    ing USE...No suc
   0    2327   150040 165163   145162 040157   162040 165163   145162 040156    h user or user n
   0    2333   157164 040144   165155 160145   144000 223054   101144 144162    ot dumped..,Addr
   0    2337   145163 163040   162145 146145   162145 156143   145163 040160    ess references p
   0    2343   141147 145040   167150 151143   150040 167141   163040 156157    age which was no
   0    2347   164040 144165   155160 145144   000224 013101   116114 132040    t dumped...ANLZ
   0    2353   113111 114114   105104 000225   031103 141156   047164 040147    KILLED...Can't g
   0    2357   145164 040155   145155 157162   171040 146157   162040 101116    et memory for AN
   0    2363   114132 000226   070103 141156   047164 040147   145164 040141    LZ..8Can't get a
   0    2367   040160 141147   145040 146162   157155 040164   150145 040144     page from the d
   0    2373   165155 160040   146151 154145   040164 150141   164040 163150    ump file that sh
   0    2377   157165 154144   040142 145040   164150 145162   145000 227053    ould be there..+
   0    2403   047100 047040   160141 164143   150040 163160   141143 145040    '@' patch space
   0    2407   156157 164040   144145 146151   156145 144040   151156 040171    not defined in y
   0    2413   157165 162040   160162 157147   162141 155000   230053 047043    our program..+'#
   0    2417   047040 160141   164143 150040   163160 141143   145040 156157    ' patch space no
   0    2423   164040 144145   146151 156145   144040 151156   040171 157165    t defined in you
   0    2427   162040 160162   157147 162141   155000 231034   116157 040155    r program...No m
   0    2433   157162 145040   047100 047040   160141 164143   150040 163160    ore '@' patch sp
   0    2437   141143 145040   154145 146164   000232 034116   157040 155157    ace left...No mo
   0    2443   162145 040047   043047 040160   141164 143150   040163 160141    re '#' patch spa
   0    2447   143145 040154   145146 164000   233042 131157   165040 155141    ce left.."You ma
   0    2453   171040 156157   164040 163164   157162 145040   151156 164157    y not store into
   0    2457   040141 040144   165155 160040   146151 154145   000234 030131     a dump file...Y
   0    2463   157165 040141   162145 040156   157164 040151   156040 101116    ou are not in AN
   0    2467   114132 040155   157144 145000   235054 117156   154171 040164    LZ mode..,Only t
PL6.E3A0      #001=DDE$ERROR File=DXE$ERROR.:E05TSI                              TUE 07/29/97 15:10 Page:46
   0    2473   150145 040143   154157 163145   144040 146157   162155 040157    he closed form o
   0    2477   146040 115117   104111 106131   040151 163040   141164 164141    f MODIFY is atta
   0    2503   143150 141142   154145 000236   044103 141156   047164 040105    chable..$Can't E
   0    2507   130111 124054   040145 156164   162171 040167   141163 040156    XIT, entry was n
   0    2513   157164 040166   151141 040115   044114 111116   113000 237051    ot via M$LINK..)
   0    2517   124150 151163   040141 165164   157040 163164   141143 153040    This auto stack
   0    2523   151163 040151   156143 157162   162145 143164   154171 040163    is incorrectly s
   0    2527   164162 165143   164165 162145   144000 240024   124150 141164    tructured...That
   0    2533   047163 040156   157040 101125   124117 040163   164141 143153    's no AUTO stack
   0    2537   000241 063131   157165 162040   122105 101104   040146 151144    ..3Your READ fid
   0    2543   054153 145171   040151 163040   156157 164040   164157 040141    ,key is not to a
   0    2547   156040 105104   111124 040143   157155 160141   164151 142154    n EDIT compatibl
   0    2553   145040 146151   154145 000242   044131 157165   162040 122105    e file..$Your RE
   0    2557   101104 040146   151144 054163   164141 162164   040151 163040    AD fid,start is
   0    2563   156157 164040   164157 040141   040146 151154   145000 243055    not to a file..-
   0    2567   104145 146141   165154 164040   157160 145156   040164 157040    Default open to
   0    2573   115044 104117   040146 141151   154145 144040   055040 167162    M$DO failed - wr
   0    2577   151164 151156   147040 157156   040047 115105   047000 244056    iting on 'ME'...
   0    2603   104105 114124   101040 163141   171163 040055   040103 157155    DELTA says - Com
   0    2607   155141 156144   040163 164162   145141 155040   145170 150141    mand stream exha
   0    2613   165163 164145   144054 040111   040161 165151   164056 000245    usted, I quit...
   0    2617   032101 116114   132040 143141   156047 164040   144157 040164    .ANLZ can't do t
   0    2623   150141 164040   125123 105040   171145 164000   246036 103165    hat USE yet...Cu
   0    2627   162162 145156   164040 125123   105040 145156   166151 162157    rrent USE enviro
   0    2633   156155 145156   164040 151163   040142 141144   000247 047103    nment is bad..'C
   0    2637   141156 047164   040145 163164   141142 154151   163150 040163    an't establish s
   0    2643   160145 143151   146151 145144   040101 114124   126101 122040    pecified ALTVAR
   0    2647   163143 150145   155141 000250   022102 141144   040144 145143    schema...Bad dec
   0    2653   151155 141154   040156 165155   142145 162000   251050 102141    imal number..(Ba
   0    2657   144040 163150   141162 145144   040154 151142   162141 162171    d shared library
   0    2663   040143 141154   154040 151156   040103 117102   117114 040155     call in COBOL m
   0    2667   157144 165154   154145 000252   050125 156153   156157 167156    odulle..(Unknown
   0    2673   040146 157162   155141 164040   151156 040143   141154 154040     format in call
   0    2677   164157 040163   150141 162145   144040 154151   142162 141162    to shared librar
   0    2703   171000 253061   115165 163164   040150 141166   145040 163143    y..1Must have sc
   0    2707   150145 155141   040164 157040   144145 143157   144145 040143    hema to decode c
   0    2713   141154 154040   164157 040163   150141 162145   144040 154151    all to shared li
PL6.E3A0      #001=DDE$ERROR File=DXE$ERROR.:E05TSI                              TUE 07/29/97 15:10 Page:47
   0    2717   142162 141162   171000 254042   130104 105114   124101 040164    brary.."XDELTA t
   0    2723   162141 143145   040143 141154   154163 040162   145161 165151    race calls requi
   0    2727   162145 163040   160162 145146   151170 000255   037110 105114    res prefix...HEL
   0    2733   120040 151163   040156 157164   040141 166141   151154 141142    P is not availab
   0    2737   154145 040151   156040 130104   105114 124101   000256 065111    le in XDELTA..5I
   0    2743   040143 141156   047164 040146   151147 165162   145040 157165     can't figure ou
   0    2747   164040 167150   141164 040171   157165 040167   141156 164040    t what you want
   0    2753   155145 040164   157040 150145   154160 040171   157165 040167    me to help you w
   0    2757   151164 150041   000257 031116   157040 146165   162164 150145    ith!...No furthe
   0    2763   162040 110105   114120 040141   166141 151154   141142 154145    r HELP available
   0    2767   000260 050106   141165 154164   040167 150151   154145 040141    ..(Fault while a
   0    2773   143143 145163   163151 156147   040126 040141   162145 141040    ccessing V area
   0    2777   146162 157155   040115 044101   114111 102000   261076 111156    from M$ALIB..>In
   0    3003   150151 142151   164054 040124   141147 054040   157162 040120    hibit, Tag, or P
   0    3007   122040 155157   144151 146151   143141 164151   157156 040156    R modification n
   0    3013   157164 040141   154154 157167   145144 040167   151164 150040    ot allowed with
   0    3017   132105 122117   040157 160040   143157 144145   000262 050131    ZERO op code..(Y
   0    3023   157165 040144   157156 047164   040150 141166   145040 164150    ou don't have th
   0    3027   145040 160162   157160 145162   040120 122111   126040 146157    e proper PRIV fo
   0    3033   162040 115044   123101 104000   263030 102141   144040 114123    r M$SAD...Bad LS
   0    3037   040163 160145   143151 146151   145144 040146   157162 040123     specified for S
   0    3043   101104 000264   030116 157164   040141 040104   103102 040156    AD...Not a DCB n
   0    3047   141155 145040   157162 040156   165155 142145   162000 265050    ame or number..(
   0    3053   044123 101104   040156 157164   040166 141154   151144 040151    $SAD not valid i
   0    3057   146040 123101   104040 143157   155155 141156   144040 156157    f SAD command no
   0    3063   164040 151163   163165 145144   000266 070124   150141 164040    t issued..8That
   0    3067   160157 151156   164145 162057   154157 143141   164151 157156    pointer/location
   0    3073   040166 141154   151144 040157   156154 171040   146157 162040     valid only for
   0    3077   101116 114132   040144 165155   160055 146151   154145 040155    ANLZ dump-file m
   0    3103   157144 145000   267013 116157   040163 165143   150040 104103    ode...No such DC
   0    3107   102000 270026   124150 141164   040104 103102   040163 154157    B...That DCB slo
   0    3113   164040 151163   040145 155160   164171 000271   036103 141156    t is empty...Can
   0    3117   047164 040163   164157 162145   040055 040120   122117 124105    't store - PROTE
   0    3123   103124 040155   157144 145040   163145 164000   272035 105156    CT mode set...En
   0    3127   164162 171040   164157 040104   105114 124101   040156 157164    try to DELTA not
   0    3133   040166 151141   040115 044101   114111 102000   273030 165156     via M$ALIB...un
   0    3137   151155 160154   145155 145156   164145 144040   141162 162141    implemented arra
PL6.E3A0      #001=DDE$ERROR File=DXE$ERROR.:E05TSI                              TUE 07/29/97 15:10 Page:48
   0    3143   171040 164171   160145 000274   032167 162157   156147 040156    y type...wrong n
   0    3147   165155 142145   162040 157146   040163 165142   163143 162151    umber of subscri
   0    3153   160164 163000   275015 102141   144040 163165   142163 143162    pts...Bad subscr
   0    3157   151160 164000   276015 102141   144040 163165   142163 143162    ipt...Bad subscr
   0    3163   151160 164000   277015 142141   144040 163165   142163 143162    ipt...bad subscr
   0    3167   151160 164000   300015 102141   144040 163165   142163 143162    ipt...Bad subscr
   0    3173   151160 164000   301037 127141   162156 151156   147072 040122    ipt...Warning: R
   0    3177   125040 150141   163040 156157   040102 111122   124110 040162    U has no BIRTH r
   0    3203   145143 157162   144000 302046   125156 141142   154145 040164    ecord..&Unable t
   0    3207   157040 165160   144141 164145   040122 165156   040125 156151    o update Run Uni
   0    3213   164040 102111   122124 110040   162145 143157   162144 000303    t BIRTH record..
   0    3217   015102 141144   040163 165142   163143 162151   160164 000304    .Bad subscript..
   0    3223   034103 141156   047164 040123   124105 120040   151156 040163    .Can't STEP in s
   0    3227   150141 162145   144040 154151   142162 141162   171000 305035    hared library...
   0    3233   103141 156047   164040 124122   101103 105040   151156 040163    Can't TRACE in s
   0    3237   150141 162145   144040 154151   142162 141162   171000 306072    hared library..:
   0    3243   007052 052052   040127 101122   116111 116107   040052 052052    .*** WARNING ***
   0    3247   007040 104157   040156 157164   040123 124105   120040 157162    . Do not STEP or
   0    3253   040124 122101   103105 040151   156040 103117   102117 114040     TRACE in COBOL
   0    3257   162165 156055   165156 151164   163056 000307   054106 117122    run-units...,FOR
   0    3263   124122 101116   040146 154157   141164 151156   147040 160157    TRAN floating po
   0    3267   151156 164040   143157 156163   164141 156164   040157 165164    int constant out
   0    3273   040157 146040   162141 156147   145000 310011   101124 040115     of range...AT M
   0    3277   044104 122124   116000 311011   122125 115040   167150 141164    $DRTN...RUM what
   0    3303   077000 312024   122125 115055   155157 144145   040157 156154    ?...RUM-mode onl
   0    3307   171040 163171   155142 157154   000313 045125   156141 142154    y symbol..%Unabl
   0    3313   145040 164157   040165 160144   141164 145040   122165 156040    e to update Run
   0    3317   125156 151164   040110 105101   104040 162145   143157 162144    Unit HEAD record
   0    3323   000314 052125   156141 142154   145040 164157   040165 160144    ..*Unable to upd
   0    3327   141164 145040   122165 156040   125156 151164   040104 103102    ate Run Unit DCB
   0    3333   040050 122117   123040 162145   143157 162144   051000 315051     (ROS record)..)
   0    3337   122125 115040   141142 156157   162155 141154   154171 040164    RUM abnormally t
   0    3343   145162 155151   156141 164145   144040 055040   125124 123040    erminated - UTS
   0    3347   166151 157154   141164 151157   156000 316044   103141 156047    violation..$Can'
   0    3353   164040 114105   124040 151164   145155 040167   151164 150040    t LET item with
   0    3357   157166 145162   160165 156143   150145 144040   163151 147156    overpunched sign
   0    3363   000317 015126   141154 165145   040164 157157   040142 151147    ...Value too big
PL6.E3A0      #001=DDE$ERROR File=DXE$ERROR.:E05TSI                              TUE 07/29/97 15:10 Page:49
   0    3367   000320 077127   110105 116040   166141 162151   141142 154145    ..?WHEN variable
   0    3373   040155 165163   164040 142145   040151 156040   163164 141164     must be in stat
   0    3377   151143 040155   145155 157162   171040 157162   040151 156040    ic memory or in
   0    3403   141040 144171   156141 155151   143040 163145   147155 145156    a dynamic segmen
   0    3407   164056 000321   044122 145146   145162 145156   143145 144040    t...$Referenced
   0    3413   151164 145155   040151 163040   157165 164040   157146 040104    item is out of D
   0    3417   103102 040142   157165 156144   163000 322056   103141 156047    CB bounds...Can'
   0    3423   164040 164145   163164 040166   141154 165145   040157 146040    t test value of
   0    3427   151164 145155   040167 151164   150040 157166   145162 160165    item with overpu
   0    3433   156143 150145   144040 163151   147156 000323   060105 170160    nched sign..0Exp
   0    3437   162145 163163   151157 156040   164157 157040   143157 155160    ression too comp
   0    3443   154145 170040   146157 162040   122125 115040   157162 040101    lex for RUM or A
   0    3447   116114 132055   146151 154145   040155 157144   145000 324035    NLZ-file mode...
   0    3453   103157 155155   141156 144040   156157 164040   166141 154151    Command not vali
   0    3457   144040 151156   040122 125115   040155 157144   145000 325054    d in RUM mode..,
   0    3463   122145 146145   162145 156143   145144 040151   164145 155040    Referenced item
   0    3467   151163 040157   165164 040157   146040 110105   101104 040162    is out of HEAD r
   0    3473   145143 157162   144040 142157   165156 144163   000326 067103    ecord bounds..7C
   0    3477   141156 047164   040162 145146   145162 145156   143145 040101    an't reference A
   0    3503   125124 117040   164171 160145   040166 141162   151141 142154    UTO type variabl
   0    3507   145163 040151   156040 122125   115040 157162   040101 116114    es in RUM or ANL
   0    3513   132040 155157   144145 000327   075103 141156   047164 040162    Z mode..=Can't r
   0    3517   145146 145162   145156 143145   040101 125124   117040 164171    eference AUTO ty
   0    3523   160145 040166   141162 151141   142154 145163   054040 171157    pe variables, yo
   0    3527   165162 040163   164141 143153   040151 163040   155141 154055    ur stack is mal-
   0    3533   146157 162155   145144 000330   030101 125124   117040 166141    formed...AUTO va
   0    3537   162151 141142   154145 040156   157164 040141   143164 151166    riable not activ
   0    3543   145000 331053   103141 156047   164040 107117   040160 157163    e..+Can't GO pos
   0    3547   151164 151157   156040 167150   145156 040145   156164 162171    ition when entry
   0    3553   040167 141163   040166 151141   040115 044101   114111 102000     was via M$ALIB.
   0    3557   332066 103141   156047 164040   123124 105120   054040 160162    .6Can't STEP, pr
   0    3563   157147 162141   155040 156157   164040 162165   156156 151156    ogram not runnin
   0    3567   147040 165156   144145 162040   143157 156164   162157 154040    g under control
   0    3573   157146 040104   105114 124101   000333 064113   105105 120040    of DELTA..4KEEP
   0    3577   151163 040156   157164 040154   145147 141154   040167 150145    is not legal whe
   0    3603   156040 115044   101114 111102   040167 141163   040143 141154    n M$ALIB was cal
   0    3607   154145 144040   146162 157155   040141 156040   101123 114000    led from an ASL.
PL6.E3A0      #001=DDE$ERROR File=DXE$ERROR.:E05TSI                              TUE 07/29/97 15:10 Page:50
   0    3613   334100 103141   156047 164040   124122 101103   105040 124122    .@Can't TRACE TR
   0    3617   101116 123106   105122 040146   162157 155040   167151 164150    ANSFER from with
   0    3623   151156 040141   040163 150141   162145 144040   154151 142162    in a shared libr
   0    3627   141162 171054   040163 141171   040124 122101   103105 040117    ary, say TRACE O
   0    3633   106106 000335   057103 141156   047164 040124   122101 103105    FF../Can't TRACE
   0    3637   040124 122101   116123 106105   122040 157165   164040 157146     TRANSFER out of
   0    3643   040150 145162   145054 040163   141171 040124   122101 103105     here, say TRACE
   0    3647   040117 106106   000336 073103   141156 047164   040123 124105     OFF..;Can't STE
   0    3653   120040 167150   145156 040145   156164 162171   040167 141163    P when entry was
   0    3657   040166 151141   040115 044101   114111 102040   146162 157155     via M$ALIB from
   0    3663   040141 040156   157156 055165   163145 162040   144157 155141     a non-user doma
   0    3667   151156 000337   106103 141156   047164 040147   145164 040162    in..FCan't get r
   0    3673   145164 165162   156040 141144   144162 145163   163040 146162    eturn address fr
   0    3677   157155 040101   125124 117040   163164 141143   153054 040143    om AUTO stack, c
   0    3703   141156 047164   040143 157156   164151 156165   145040 123124    an't continue ST
   0    3707   105120 040157   162040 124122   101103 105000   340046 123113    EP or TRACE..&SK
   0    3713   111120 120105   104040 167150   151154 145040   122125 115151    IPPED while RUMi
   0    3717   156147 040163   171163 164145   155040 160162   157143 145163    ng system proces
   0    3723   163157 162163   000341 027146   151145 154144   040157 146040    sors...field of
   0    3727   125124 123040   151163 040164   157157 040142   151147 000342    UTS is too big..
   0    3733   061103 141156   047164 040124   122101 103105   040141 156144    1Can't TRACE and
   0    3737   040150 141166   145040 117116   103101 114114   123040 163145     have ONCALLS se
   0    3743   164040 141164   040164 150145   040163 141155   145040 164151    t at the same ti
   0    3747   155145 000343   061103 141156   047164 040117   116103 101114    me..1Can't ONCAL
   0    3753   114123 040141   156144 040150   141166 145040   124122 101103    LS and have TRAC
   0    3757   105040 163145   164040 141164   040164 150145   040163 141155    E set at the sam
   0    3763   145040 164151   155145 000344   051105 170160   162145 163163    e time..)Express
   0    3767   151157 156040   156157 164040   141154 154157   167145 144040    ion not allowed
   0    3773   157156 040141   162162 141171   040162 145146   145162 145156    on array referen
   0    3777   143145 000345   051124 150141   164040 144151   162145 143164    ce..)That direct
   0    4003   151166 145040   151163 156047   164040 141154   154157 167145    ive isn't allowe
   0    4007   144040 151156   040122 125115   040155 157144   145056 000346    d in RUM mode...
   0    4013   054101 125124   117040 163164   141143 153040   155165 163164    ,AUTO stack must
   0    4017   040142 145040   157156 040141   156040 145166   145156 040167     be on an even w
   0    4023   157162 144040   142157 165156   144141 162171   056000 347063    ord boundary...3
   0    4027   103141 156047   164040 104117   040055 040163   164157 162145    Can't DO - store
   0    4033   144040 144151   162145 143164   151166 145040   111104 040151    d directive ID i
PL6.E3A0      #001=DDE$ERROR File=DXE$ERROR.:E05TSI                              TUE 07/29/97 15:10 Page:51
   0    4037   163040 157142   152145 143164   040157 146040   151164 163145    s object of itse
   0    4043   154146 056000   350057 124150   141164 040144   151163 164151    lf.../That disti
   0    4047   156147 165151   163150 145144   040156 141155   145040 156157    nguished name no
   0    4053   164040 141154   154157 167145   144040 151156   040122 125115    t allowed in RUM
   0    4057   040155 157144   145000 351032   124162 141160   040144 165162     mode...Trap dur
   0    4063   151156 147040   111106 040160   162157 143145   163163 151156    ing IF processin
   0    4067   147056 000352   034123 165142   163143 162151   160164 040156    g....Subscript n
   0    4073   157164 040166   141154 151144   040144 145143   151155 141154    ot valid decimal
   0    4077   056000 353044   151156 166141   154151 144040   156165 155142    ...$invalid numb
   0    4103   145162 040157   146040 102125   106106 105122   163040 163160    er of BUFFERs sp
   0    4107   145143 151146   151145 144056   000354 037103   141156 047164    ecified....Can't
   0    4113   040124 122101   103105 040055   040156 157040   105116 124104     TRACE - no ENTD
   0    4117   105106 123040   162145 143157   162144 000355   040104 105114    EFS record.. DEL
   0    4123   124101 040143   141156 047164   040141 143143   145163 163040    TA can't access
   0    4127   164150 151163   040154 157143   141164 151157   156000 356064    this location..4
   0    4133   111156 166141   154151 144040   101114 111102   040143 157155    Invalid ALIB com
   0    4137   155141 156144   040055 040145   156164 162171   040164 157040    mand - entry to
   0    4143   104105 114124   101040 156157   164040 166151   141040 115044    DELTA not via M$
   0    4147   101114 111102   000357 040125   156141 142154   145040 164157    ALIB.. Unable to
   0    4153   040165 160144   141164 145040   122165 156040   125156 151164     update Run Unit
   0    4157   040162 145143   157162 144000   360032 111164   145155 040164     record...Item t
   0    4163   162165 156143   141164 145144   040164 157040   061064 064040    runcated to 144
   0    4167   142151 164163   000361 057104   102117 117124   040144 151162    bits../DBOOT dir
   0    4173   145143 164151   166145 040156   157164 040141   154154 157167    ective not allow
   0    4177   145144 040141   163040 155165   154164 151160   154145 040143    ed as multiple c
   0    4203   157155 155141   156144 000362   056115 111116   111040 144151    ommand...MINI di
   0    4207   162145 143164   151166 145040   156157 164040   141154 154157    rective not allo
   0    4213   167145 144040   141163 040155   165154 164151   160154 145040    wed as multiple
   0    4217   143157 155155   141156 144000   363056 123124   105120 040144    command...STEP d
   0    4223   151162 145143   164151 166145   040156 157164   040141 154154    irective not all
   0    4227   157167 145144   040141 163040   155165 154164   151160 154145    owed as multiple
   0    4233   040143 157155   155141 156144   000364 057124   102117 117124     command../TBOOT
   0    4237   040144 151162   145143 164151   166145 040156   157164 040141     directive not a
   0    4243   154154 157167   145144 040141   163040 155165   154164 151160    llowed as multip
   0    4247   154145 040143   157155 155141   156144 000365   055130 105121    le command..-XEQ
   0    4253   040144 151162   145143 164151   166145 040156   157164 040141     directive not a
   0    4257   154154 157167   145144 040141   163040 155165   154164 151160    llowed as multip
PL6.E3A0      #001=DDE$ERROR File=DXE$ERROR.:E05TSI                              TUE 07/29/97 15:10 Page:52
   0    4263   154145 040143   157155 155141   156144 000366   043103 141156    le command..#Can
   0    4267   047164 040130   105121 040167   150145 156040   145156 164162    't XEQ when entr
   0    4273   171040 167141   163040 166151   141040 115044   101114 111102    y was via M$ALIB
   0    4277   000367 027116   157040 163165   143150 040163   164157 162145    ...No such store
   0    4303   144040 143157   155155 141156   144163 000370   023116 157040    d commands...No
   0    4307   163165 143150   040142 162145   141153 160157   151156 164163    such breakpoints
   0    4313   000371 053132   040146 157162   155141 164040   156157 164040    ..+Z format not
   0    4317   141154 154157   167145 144040   157156 040156   157156 040167    allowed on non w
   0    4323   157162 144040   163151 172145   040151 164145   155163 000372    ord size items..
   0    4327   042104 151162   145143 164151   166145 040156   157164 040141    "Directive not a
   0    4333   154154 157167   145144 040151   156040 101116   114132 040155    llowed in ANLZ m
   0    4337   157144 145000   373030 120141   143153 145144   040144 145143    ode...Packed dec
   0    4343   151155 141154   040164 162165   156143 141164   145144 000374    imal truncated..
   0    4347   032125 156160   141143 153145   144040 144145   143151 155141    .Unpacked decima
   0    4353   154040 164162   165156 143141   164145 144000   375041 111156    l truncated..!In
   0    4357   166141 154151   144040 163151   172145 040146   157162 040143    valid size for c
   0    4363   150141 162141   143164 145162   040163 164162   151156 147000    haracter string.
   0    4367   376034 103157   155155 141156   144040 156157   164040 141154    ..Command not al
   0    4373   154157 167145   144040 151156   040142 141164   143150 000377    lowed in batch..
   0    4377   043111 156166   141154 151144   040141 164164   141143 150155    #Invalid attachm
   0    4403   145156 164040   156165 155142   145162 040163   160145 143151    ent number speci
   0    4407   146151 145144   000400 064103   141156 047164   040125 120104    fied..4Can't UPD
   0    4413   101124 105040   055040 163164   157162 145144   040144 151162    ATE - stored dir
   0    4417   145143 164151   166145 040144   157145 163156   047164 040145    ective doesn't e
   0    4423   170151 163164   040055 040111   104040 075000   401070 111156    xist - ID =..8In
   0    4427   166141 154151   144040 141143   164151 166141   164151 157156    valid activation
   0    4433   040143 150141   162141 143164   145162 040151   147156 157162     character ignor
   0    4437   145144 040055   040154 151156   145040 146145   145144 040141    ed - line feed a
   0    4443   163163 165155   145144 000402   076111 156166   141154 151144    ssumed..>Invalid
   0    4447   040141 143164   151166 141164   151157 156040   143150 141162     activation char
   0    4453   141143 164145   162040 151147   156157 162145   144040 055040    acter ignored -
   0    4457   143141 162162   151141 147145   040162 145164   165162 156040    carriage return
   0    4463   141163 163165   155145 144000   403124 123164   157162 145144    assumed..TStored
   0    4467   040144 151162   145143 164151   166145 040076   040062 065066     directive > 256
   0    4473   040143 150141   162141 143164   145162 163040   154157 156147     characters long
   0    4477   040055 040125   120104 101124   105040 167151   154154 040142     - UPDATE will b
   0    4503   145040 144157   156145 040141   156040 141164   164141 143150    e done an attach
PL6.E3A0      #001=DDE$ERROR File=DXE$ERROR.:E05TSI                              TUE 07/29/97 15:10 Page:53
   0    4507   155145 156164   040141 164040   141040 164151   155145 000404    ment at a time..
   0    4513   042123 160145   143151 146151   145144 040141   164164 141143    "Specified attac
   0    4517   150155 145156   164040 144157   145163 156047   164040 145170    hment doesn't ex
   0    4523   151163 164000   405117 123164   157162 145144   040144 151162    ist..OStored dir
   0    4527   145143 164151   166145 040162   145163 164157   162145 144040    ective restored
   0    4533   164157 040167   150141 164040   151163 040167   141163 040142    to what is was b
   0    4537   145146 157162   145040 164150   145040 145162   162157 162040    efore the error
   0    4543   151156 040125   120104 101124   105151 156147   040157 143143    in UPDATEing occ
   0    4547   165162 162145   144000 406034   123164 157162   145144 040144    urred...Stored d
   0    4553   151162 145143   164151 166145   040145 162162   157162 145144    irective errored
   0    4557   040151 163072   000407 056104   105114 124101   040164 162141     is:...DELTA tra
   0    4563   160160 145144   040160 162157   143145 163163   151156 147040    pped processing
   0    4567   141144 152165   163164 141142   154145 040144   151155 145156    adjustable dimen
   0    4573   163151 157156   163000 410047   104105 114124   101040 164162    sions..'DELTA tr
   0    4577   141160 160145   144040 160162   157143 145163   163151 156147    apped processing
   0    4603   040166 151162   164165 141154   040141 162162   141171 163000     virtual arrays.
   0    4607   411045 103141   156047 164040   102122 105101   113040 167150    .%Can't BREAK wh
   0    4613   145156 040145   156164 162171   040167 141163   040166 151141    en entry was via
   0    4617   040115 044101   114111 102000   412046 103141   156047 164040     M$ALIB..&Can't
   0    4623   107117 124122   101120 040167   150145 156040   145156 164162    GOTRAP when entr
   0    4627   171040 167141   163040 166151   141040 115044   101114 111102    y was via M$ALIB
   0    4633   000413 046103   141156 047164   040107 117123   124105 120040    ..&Can't GOSTEP
   0    4637   167150 145156   040145 156164   162171 040167   141163 040166    when entry was v
   0    4643   151141 040115   044101 114111   102000 414052   103141 156047    ia M$ALIB..*Can'
   0    4647   164040 107117   124122 101120   123124 105120   040167 150145    t GOTRAPSTEP whe
   0    4653   156040 145156   164162 171040   167141 163040   166151 141040    n entry was via
   0    4657   115044 101114   111102 000415   044103 141156   047164 040130    M$ALIB..$Can't X
   0    4663   103117 116040   167150 145156   040145 156164   162171 040167    CON when entry w
   0    4667   141163 040166   151141 040115   044101 114111   102000 416044    as via M$ALIB..$
   0    4673   103141 156047   164040 105130   111124 040167   150145 156040    Can't EXIT when
   0    4677   145156 164162   171040 167141   163040 166151   141040 115044    entry was via M$
   0    4703   101114 111102   000417 031122   165156 040165   156151 164040    ALIB...Run unit
   0    4707   151163 040156   157164 040141   040110 157163   164040 122125    is not a Host RU
   0    4713   000420 030122   165156 040165   156151 164040   151163 040156    ...Run unit is n
   0    4717   157164 040141   040106 105120   040122 125000   421064 102141    ot a FEP RU..4Ba
   0    4723   144040 150145   141144 040162   145143 157162   144040 055040    d head record -
   0    4727   165163 145040   110105 101104   056130 040157   162040 162145    use HEAD.X or re
PL6.E3A0      #001=DDE$ERROR File=DXE$ERROR.:E05TSI                              TUE 07/29/97 15:10 Page:54
   0    4733   143157 155160   151154 145040   141156 144040   162145 154151    compile and reli
   0    4737   156153 000422   037123 171155   142157 154040   156157 164040    nk...Symbol not
   0    4743   141154 154157   167145 144040   151156 040101   116114 132040    allowed in ANLZ
   0    4747   155157 144145   000423 032124   150141 164040   151163 040156    mode...That is n
   0    4753   157164 040141   040103 117115   107122 117125   120040 146151    ot a COMGROUP fi
   0    4757   144000 424035   103141 156047   164040 147145   164040 141040    d...Can't get a
   0    4763   104103 102040   146157 162040   144145 142165   147147 151156    DCB for debuggin
   0    4767   147000 425024   116157 040106   120122 107163   040164 157040    g...No FPRGs to
   0    4773   127101 111124   040146 157162   000426 027124   150141 164040    WAIT for...That
   0    4777   106120 122107   040144 157145   163156 047164   040145 170151    FPRG doesn't exi
   0    5003   163164 000427   045103 141156   047164 040107   117124 122101    st..%Can't GOTRA
   0    5007   120040 141154   154040 167150   145156 040164   150145 162145    P all when there
   0    5013   040141 162145   040106 120122   107163 000430   045103 141156     are FPRGs..%Can
   0    5017   047164 040107   117123 124105   120040 141154   154040 167150    't GOSTEP all wh
   0    5023   145156 040164   150145 162145   040141 162145   040106 120122    en there are FPR
   0    5027   107163 000431   020116 157040   106120 122107   050163 051040    Gs...No FPRG(s)
   0    5033   164157 040107   117000 432030   124150 141164   040106 120122    to GO...That FPR
   0    5037   107040 151163   040156 157164   040163 164157   160160 145144    G is not stopped
   0    5043   000433 043103   141156 047164   040162 145141   144040 141154    ..#Can't read al
   0    5047   164145 162156   141164 145040   105116 124104   105106 163040    ternate ENTDEFs
   0    5053   162145 143157   162144 000434   043103 141156   047164 040162    record..#Can't r
   0    5057   145141 144040   141154 164145   162156 141164   145040 123131    ead alternate SY
   0    5063   115104 105106   163040 162145   143157 162144   000435 054123    MDEFs record..,S
   0    5067   151172 145163   040157 146040   156145 167040   141156 144040    izes of new and
   0    5073   145170 160145   143164 145144   040166 141154   165145 163040    expected values
   0    5077   144157 156047   164040 155141   164143 150000   436044 103141    don't match..$Ca
   0    5103   156047 164040   144157 040117   116040 103101   114114 040055    n't do ON CALL -
   0    5107   040156 157040   105116 124104   105106 163040   162145 143157     no ENTDEFs reco
   0    5113   162144 000437   040103 141156   047164 040147   145164 040155    rd.. Can't get m
   0    5117   145155 157162   171040 146157   162040 142162   145141 153160    emory for breakp
   0    5123   157151 156164   163000 440056   124157 157040   155141 156171    oints...Too many
   0    5127   040142 162145   141153 160156   164163 040163   145164 040146     breakpnts set f
   0    5133   157162 040141   040106 162157   156164 055145   156144 040120    or a Front-end P
   0    5137   162157 147162   141155 000441   057105 162162   157162 040157    rogram../Error o
   0    5143   143143 165162   145144 040164   162171 151156   147040 164157    ccured trying to
   0    5147   040113 111114   114040 141156   040106 120122   107040 142162     KILL an FPRG br
   0    5153   145141 153160   157151 156164   000442 035151   156166 141154    eakpoint...inval
PL6.E3A0      #001=DDE$ERROR File=DXE$ERROR.:E05TSI                              TUE 07/29/97 15:10 Page:55
   0    5157   151144 040163   165142 144151   162145 143164   151166 145040    id subdirective
   0    5163   146157 162040   110117 123124   000443 034151   156166 141154    for HOST...inval
   0    5167   151144 040163   165142 144151   162145 143164   151166 145040    id subdirective
   0    5173   146157 162040   106105 120000   444054 111156   166141 154151    for FEP..,Invali
   0    5177   144040 141144   144162 145163   163040 163160   145143 151146    d address specif
   0    5203   151145 144040   146157 162040   164150 145040   142162 145141    ied for the brea
   0    5207   153160 157151   156164 000445   014102 141144   040143 157156    kpoint...Bad con
   0    5213   163164 141156   164000 446017   124157 157040   155141 156171    stant...Too many
   0    5217   040144 151147   151164 163000   447054 111156   163164 162165     digits..,Instru
   0    5223   143164 151157   156040 057040   162145 147151   163164 145162    ction / register
   0    5227   040143 157155   142151 156141   164151 157156   040156 157164     combination not
   0    5233   040146 157165   156144 000450   053111 156166   141154 151144     found..+Invalid
   0    5237   040141 144144   162145 163163   151156 147040   155157 144145     addressing mode
   0    5243   040146 157162   040164 150145   040151 156163   164162 165143     for the instruc
   0    5247   164151 157156   000451 047111   156163 164162   165143 164151    tion..'Instructi
   0    5253   157156 040157   160145 162141   156144 040146   151145 154144    on operand field
   0    5257   040145 170143   145145 144163   040162 141156   147145 000452     exceeds range..
   0    5263   031125 156151   155160 154145   155145 156164   145144 040151    .Unimplemented i
   0    5267   156163 164162   165143 164151   157156 000453   041104 151163    nstruction..!Dis
   0    5273   160154 141143   145155 145156   164040 165156   144145 162146    placement underf
   0    5277   154157 167040   057040 157166   145162 146154   157167 000454    low / overflow..
   0    5303   041111 154154   145147 141154   040162 145147   151163 164145    !Illegal registe
   0    5307   162040 151156   040157 160145   162141 156144   040146 151145    r in operand fie
   0    5313   154144 000455   027105 170160   145143 164145   144040 155141    ld...Expected ma
   0    5317   163153 040156   157164 040146   157165 156144   000456 032115    sk not found...M
   0    5323   141163 153040   146151 145154   144040 156157   164040 145166    ask field not ev
   0    5327   141154 165141   164141 142154   145000 457040   117160 145162    aluatable.. Oper
   0    5333   141156 144040   151156 040157   160145 162141   156144 040146    and in operand f
   0    5337   151145 154144   040155 151163   163151 156147   000460 037123    ield missing...S
   0    5343   171155 142157   154040 156157   164040 141154   154157 167145    ymbol not allowe
   0    5347   144040 151156   040110 157163   164040 155157   144145 000461    d in Host mode..
   0    5353   030044 117040   143141 156040   156157 164040   142145 040143    .$O can not be c
   0    5357   141154 143165   154141 164145   144000 462043   106105 120040    alculated..#FEP
   0    5363   163171 155142   157154 040156   157164 040141   154154 157167    symbol not allow
   0    5367   145144 040151   156040 101116   114132 040155   157144 145000    ed in ANLZ mode.
   0    5373   463062 126141   162151 141142   154145 040162   145146 145162    .2Variable refer
   0    5377   145156 143145   040151 163040   164157 157040   154157 156147    ence is too long
PL6.E3A0      #001=DDE$ERROR File=DXE$ERROR.:E05TSI                              TUE 07/29/97 15:10 Page:56
   0    5403   040146 157162   040104 105114   124101 040164   157040 150141     for DELTA to ha
   0    5407   156144 154145   000464 036123   171155 142157   154040 156157    ndle...Symbol no
   0    5413   164040 141154   154157 167145   144040 151156   040106 105120    t allowed in FEP
   0    5417   040155 157144   145000 465054   103157 155155   141156 144040     mode..,Command
   0    5423   156157 164040   141154 154157   167145 144040   146157 162040    not allowed for
   0    5427   151156 164145   162160 162145   164151 166145   040160 162157    interpretive pro
   0    5433   147162 141155   000466 044104   141164 141040   151164 145155    gram..$Data item
   0    5437   040151 163040   164157 157040   142151 147040   164157 040142     is too big to b
   0    5443   145040 146157   162155 141164   164145 144000   467022 111156    e formatted...In
   0    5447   166141 154151   144040 106105   120040 146157   162155 141164    valid FEP format
   0    5453   000470 031103   141156 047164   040146 151156   144040 116157    ...Can't find No
   0    5457   144145 040104   151162 145143   164157 162171   000471 063103    de Directory..3C
   0    5463   141156 047164   040144 151163   160154 141171   040151 164145    an't display ite
   0    5467   155040 157146   040164 150151   163040 163151   172145 040151    m of this size i
   0    5473   156040 163160   145143 151146   151145 144040   146157 162155    n specified form
   0    5477   141164 000472   020116 157040   106120 122107   123040 164157    at...No FPRGS to
   0    5503   040123 110117   127000 473050   103157 155155   141156 144040     SHOW..(Command
   0    5507   156157 164040   151155 160154   145155 145156   164145 144040    not implemented
   0    5513   146157 162040   106105 120040   160162 157147   162141 155163    for FEP programs
   0    5517   000474 044111   156163 164162   165143 164151   157156 040141    ..$Instruction a
   0    5523   144144 162145   163163 151156   147040 155157   144145 040143    ddressing mode c
   0    5527   157156 146154   151143 164000   475064 105162   162157 162040    onflict..4Error
   0    5533   157143 143165   162145 144040   167150 151154   145040 164162    occured while tr
   0    5537   171151 156147   040164 157040   123124 105120   040151 156040    ying to STEP in
   0    5543   141156 040106   105120 040160   162157 147162   141155 000476    an FEP program..
   0    5547   100105 162162   157162 040157   143143 165162   145144 040167    @Error occured w
   0    5553   150151 154145   040164 162171   151156 147040   164157 040145    hile trying to e
   0    5557   166141 154165   141164 145040   141156 040141   144144 162145    valuate an addre
   0    5563   163163 040151   156040 106105   120040 160162   157147 162141    ss in FEP progra
   0    5567   155000 477021   116157 040106   120122 107050   163051 040164    m...No FPRG(s) t
   0    5573   157040 125123   105000 500044   111156 163164   162165 143164    o USE..$Instruct
   0    5577   151157 156040   164157 157040   154157 156147   040164 157040    ion too long to
   0    5603   142145 040145   166141 154165   141164 145144   000501 027122    be evaluated...R
   0    5607   125115 040155   157144 145040   157156 154171   040144 151162    UM mode only dir
   0    5613   145143 164151   166145 000502   034103 157156   146154 151143    ective...Conflic
   0    5617   164040 151156   040146 157162   155141 164040   163160 145143    t in format spec
   0    5623   151146 151145   144000 503023   111156 166141   154151 144040    ified...Invalid
PL6.E3A0      #001=DDE$ERROR File=DXE$ERROR.:E05TSI                              TUE 07/29/97 15:10 Page:57
   0    5627   110117 123124   040146 157162   155141 164000   504032 111164    HOST format...It
   0    5633   145155 040164   162165 156143   141164 145144   040164 157040    em truncated to
   0    5637   062065 066040   142151 164163   000505 055103   150141 162141    256 bits..-Chara
   0    5643   143164 145162   040166 141162   151141 142154   145163 040155    cter variables m
   0    5647   165163 164040   142145 040141   164040 154145   141163 164040    ust be at least
   0    5653   103101 114111   107116 105104   000506 036124   150141 164040    CALIGNED...That
   0    5657   163164 141164   151157 156040   151163 040141   154162 145141    station is alrea
   0    5663   144171 040151   156040 165163   145000 507032   124150 141164    dy in use...That
   0    5667   040163 164141   164151 157156   040144 157145   163156 047164     station doesn't
   0    5673   040145 170151   163164 000510   055122 145141   154040 120162     exist..-Real Pr
   0    5677   157147 162141   155155 145162   163040 144157   156047 164040    ogrammers don't
   0    5703   165163 145040   127110 105116   163040 055040   171157 165040    use WHENs - you
   0    5707   167151 155160   041041 000511   047125 163145   162040 104105    wimp!!..'User DE
   0    5713   114124 101040   157156 154171   040144 151162   145143 164151    LTA only directi
   0    5717   166145 040151   156040 106105   120040 130104   105114 124101    ve in FEP XDELTA
   0    5723   000512 043114   141163 164040   155145 163163   141147 145040    ..#Last message
   0    5727   162145 143145   151166 145144   040142 171040   106104 040167    received by FD w
   0    5733   141163 040142   141144 000513   040103 157155   155141 156144    as bad.. Command
   0    5737   040156 157164   040163 165160   160157 162164   145144 040146     not supported f
   0    5743   157162 040106   120122 107163   056000 514041   111164 145155    or FPRGs...!Item
   0    5747   040164 162165   156143 141164   145144 040164   157040 063061     truncated to 31
   0    5753   062040 143150   141162 141143   164145 162163   056000 515046    2 characters...&
   0    5757   123120 122105   114040 156157   164040 141154   154157 167145    SPREL not allowe
   0    5763   144040 146157   162040 164150   151163 040151   156163 164162    d for this instr
   0    5767   165143 164151   157156 000516   111111 156164   145162 160162    uction..IInterpr
   0    5773   145164 145162   040141 163163   157143 151141   164145 144040    eter associated
   0    5777   151156 040164   150145 040106   105120 040151   163163 165145    in the FEP issue
   0    6003   144040 141156   144040 115044   102122 105101   113040 167151    d and M$BREAK wi
   0    6007   164150 157165   164040 141040   126114 120137   130102 122105    thout a VLP_XBRE
   0    6013   101113 000517   043103 157155   155141 156144   040157 156154    AK..#Command onl
   0    6017   171040 141154   154157 167145   144040 146157   162040 106105    y allowed for FE
   0    6023   120040 130104   105114 124101   000520 026123   160145 143151    P XDELTA...Speci
   0    6027   146151 145144   040154 151156   145040 151163   040144 145141    fied line is dea
   0    6033   144000 521041   103157 165154   144156 047164   040155 157144    d..!Couldn't mod
   0    6037   151146 171040   164150 145040   163160 145143   151146 151145    ify the specifie
   0    6043   144040 114103   124000 522056   104105 114124   101040 164162    d LCT...DELTA tr
   0    6047   141160 160145   144040 160162   157143 145163   163151 156147    apped processing
PL6.E3A0      #001=DDE$ERROR File=DXE$ERROR.:E05TSI                              TUE 07/29/97 15:10 Page:58
   0    6053   040151 156144   151162 145143   164040 145154   145155 145156     indirect elemen
   0    6057   164040 163151   172145 000523   035116 157040   143150 141156    t size...No chan
   0    6063   156145 154040   143165 162162   145156 164154   171040 163145    nel currently se
   0    6067   154145 143164   145144 000524   046124 101102   040050 111156    lected..&TAB (In
   0    6073   144151 162145   143164 051040   144157 145163   156047 164040    direct) doesn't
   0    6077   155141 153145   040163 145156   163145 040150   145162 145000    make sense here.
   0    6103   525054 103141   156047 164040   163141 171040   102122 105101    .,Can't say BREA
   0    6107   113040 167150   151154 145040   160162 157143   143145 163163    K while proccess
   0    6113   151156 147040   165163 145162   040145 166145   156164 000526    ing user event..
   0    6117   026115 141163   153040 146151   145154 144040   156157 164040    .Mask field not
   0    6123   141154 154157   167145 144000   527050 124150   141164 040163    allowed..(That s
   0    6127   171155 142157   154040 151163   040156 157164   040166 141151    ymbol is not vai
   0    6133   144040 157156   040164 150151   163040 143160   165040 164171    d on this cpu ty
   0    6137   160145 000530   034103 141156   047164 040163   164145 160040    pe...Can't step
   0    6143   055040 106120   122107 040151   163040 162165   156156 151156    - FPRG is runnin
   0    6147   147000 531020   116157 040106   120122 107163   040164 157040    g...No FPRGs to
   0    6153   123124 117120   000532 014104   151166 151144   145040 103150    STOP...Divide Ch
   0    6157   145143 153000   533036 103157   155155 141156   144040 157156    eck...Command on
   0    6163   154171 040141   154154 157167   145144 040146   157162 040106    ly allowed for F
   0    6167   120122 107163   000534 050114   105124 040157   146040 164150    PRGs..(LET of th
   0    6173   151163 040164   171160 145040   157146 040166   141162 151141    is type of varia
   0    6177   142154 145040   165156 163165   160160 157162   164145 144000    ble unsupported.
   0    6203   535046 122125   115040 114111   123124 040162   145143 157162    .&RUM LIST recor
   0    6207   144040 164162   165156 143141   164145 144040   164157 040061    d truncated to 1
   0    6213   062060 040143   150141 162163   000764 037130   044120 101122    20 chars...X$PAR
   0    6217   123105 040141   154164 162145   164054 040120   103102 056105    SE altret, PCB.E
   0    6223   122122 117122   056103 117104   105075 000765   047130 044120    RROR.CODE=..'X$P
   0    6227   101122 123105   040162 145164   165162 156145   144040 165156    ARSE returned un
   0    6233   153156 157167   156040 144151   162145 143164   151166 145040    known directive
   0    6237   143157 144145   000766 050104   105114 124101   040102 125107    code..(DELTA BUG
   0    6243   056056 111040   163150 157165   154144 040156   157164 040150    ..I should not h
   0    6247   141166 145040   147157 164164   145156 040150   145162 145000    ave gotten here.
   0    6253   767043 125156   151155 160154   145155 145156   164145 144040    .#Unimplemented
   0    6257   143157 156144   151164 151157   156040 145156   143157 165156    condition encoun
   0    6263   164145 162145   144000 770032   103141 156047   164040 130105    tered...Can't XE
   0    6267   121040 164150   151163 040151   156163 164162   165143 164151    Q this instructi
   0    6273   157156 000771   033103 141156   047164 040123   124105 120040    on...Can't STEP
PL6.E3A0      #001=DDE$ERROR File=DXE$ERROR.:E05TSI                              TUE 07/29/97 15:10 Page:59
   0    6277   164150 151163   040151 156163   164162 165143   164151 157156    this instruction
   0    6303   000772 031111   103040 146157   162040 107117   040157 165164    ...IC for GO out
   0    6307   040157 146040   111123 040162   141156 147145   000773 047103     of IS range..'C
   0    6313   141156 047164   040146 151156   144040 164150   145040 106120    an't find the FP
   0    6317   122107 040146   157162 040164   150151 163040   142162 145141    RG for this brea
   0    6323   153160 157151   156164 000774   031125 156153   156157 167156    kpoint...Unknown
   0    6327   040127 123121   040141 164040   146141 165154   164040 164151     WSQ at fault ti
   0    6333   155145 000775   055102 162145   141153 160157   151156 164040    me..-Breakpoint
   0    6337   157156 040163   160145 143151   141154 040151   156163 164162    on special instr
   0    6343   165143 164151   157156 040055   040154 151153   145040 120115    uction - like PM
   0    6347   115105 000776   052102 162145   141153 160157   151156 164040    ME..*Breakpoint
   0    6353   150141 163040   111103 040157   162040 151156   144151 162145    has IC or indire
   0    6357   143164 040155   157144 151146   151143 141164   151157 156000    ct modification.
   0    6363   777042 116157   144145 040156   157164 040047   104105 103111    ."Node not 'DECI
   0    6367   115101 114123   047040 151156   040104 104123   044104 105103    MALS' in DDS$DEC
   0    6373   111115 101114   001000 025103   141156 047164   040146 151156    IMAL...Can't fin
   0    6377   144040 165163   145162 040164   141142 154145   001001 022103    d user table...C
   0    6403   141156 047164   040146 151156   144040 123137   103116 117104    an't find S_CNOD
   0    6407   105001 002023   124162 141143   145040 124162   141156 163146    E...Trace Transf
   0    6413   145162 040154   157163 164001   003025 103141   156047 164040    er lost...Can't
   0    6417   162145 154145   141163 145040   122125 115040   144143 142001    release RUM dcb.
   0    6423   004045 103141   156047 164040   162145 154145   141163 145040    .%Can't release
   0    6427   163164 141164   151143 040144   141164 141040   155145 155157    static data memo
   0    6433   162171 040141   162145 141001   005046 103141   156047 164040    ry area..&Can't
   0    6437   162145 154145   141163 145040   122125 115057   117126 105122    release RUM/OVER
   0    6443   114101 131040   144141 164141   040163 145147   155145 156164    LAY data segment
   0    6447   001006 023103   141156 047164   040143 154157   163145 040122    ...Can't close R
   0    6453   125115 040144   143142 001007   045103 141156   047164 040141    UM dcb..%Can't a
   0    6457   143143 145163   163040 122125   115040 122125   040162 145141    ccess RUM RU rea
   0    6463   144055 157156   154171 055163   145147 155145   156164 001010    d-only-segment..
   0    6467   035103 141156   047164 040147   145164 040122   125115 040125    .Can't get RUM U
   0    6473   124123 040146   162157 155040   115044 124111   115105 001011    TS from M$TIME..
   0    6477   035114 105124   040157 146040   141162 162141   171163 040156    .LET of arrays n
   0    6503   157164 040151   155160 154145   155145 156164   145144 001012    ot implemented..
   0    6507   030103 141156   047164 040143   154157 163145   040164 150145    .Can't close the
   0    6513   040106 120122   107040 104103   102001 013032   103141 156047     FPRG DCB...Can'
   0    6517   164040 162145   154145 141163   145040 164150   145040 106120    t release the FP
PL6.E3A0      #001=DDE$ERROR File=DXE$ERROR.:E05TSI                              TUE 07/29/97 15:10 Page:60
   0    6523   122107 040104   103102 001014   034102 141144   040155 145163    RG DCB...Bad mes
   0    6527   163141 147145   040162 145143   145151 166145   144040 146162    sage received fr
   0    6533   157155 040106   104001 015036   102141 144040   145166 145156    om FD...Bad even
   0    6537   164040 162145   143145 151166   145144 040146   157162 040141    t received for a
   0    6543   156040 106120   122107 001016   040125 156153   156157 167156    n FPRG.. Unknown
   0    6547   040163 164157   162145 144040   143157 155155   141156 144040     stored command
   0    6553   151156 040106   111130 103117   115001 017053   104141 164141    in FIXCOM..+Data
   0    6557   040104 145163   143162 151160   164157 162040   155141 154146     Descriptor malf
   0    6563   157162 155145   144040 157162   040156 157164   040106 105120    ormed or not FEP
   0    6567   040146 157162   155141 164001   131041 103141   156047 164040     format.Y!Can't
   0    6573   160165 164040   151156 164157   040144 145163   143162 151160    put into descrip
   0    6577   164157 162040   163164 157162   141147 145001   132035 103141    tor storage.Z.Ca
   0    6603   156047 164040   163164 157162   145040 151156   164157 040155    n't store into m
   0    6607   151163 163151   156147 040160   141147 145001   133035 116157    issing page.[.No
   0    6613   144145 040156   157164 040047   117103 124111   114047 040151    de not 'OCTIL' i
   0    6617   156040 104103   123044 117103   124101 114001   134033 116157    n DCS$OCTAL.\.No
   0    6623   144145 040156   157164 040047   110105 130111   114047 040151    de not 'HEXIL' i
   0    6627   156040 104104   123044 110105   130001 136025   102165 151154    n DDS$HEX.^.Buil
   0    6633   144040 153151   154154 040143   141163 145050   145154 163145    d kill case(else
   0    6637   051001 137025   102165 151154   144040 163150   157167 040143    )._.Build show c
   0    6643   141163 145050   145154 163145   051001 140041   123141 146145    ase(else).`!Safe
   0    6647   040163 164157   162145 040151   163040 154145   163163 040164     store is less t
   0    6653   150141 156040   061071 062040   167157 162144   163001 141046    han 192 words.a&
   0    6657   106141 165154   164040 151156   040104 105114   124101 040144    Fault in DELTA d
   0    6663   165162 151156   147040 144157   040157 162040   163143 141156    uring do or scan
   0    6667   040160 150141   163145 001143   037110 141162   144040 146141     phase.c.Hard fa
   0    6673   165154 164040   151156 040104   105114 124101   054040 147157    ult in DELTA, go
   0    6677   040164 157040   115111 116111   001144 032142   141144 040162     to MINI.d.bad r
   0    6703   145164 165162   156040 141144   144162 145163   163040 146157    eturn address fo
   0    6707   162040 123117   103777 777053   052052 052052   040125 156141    r SOC..+**** Una
   0    6713   142154 145040   164157 040146   151156 144040   145162 162157    ble to find erro
   0    6717   162040 155145   163163 141147   145040 164145   170164 040052    r message text *
   0    6723   052052 052***                                                    ***.

EB$
 Sect OctLoc
   0    6724   006710 206000                                                    ....
PL6.E3A0      #001=DDE$ERROR File=DXE$ERROR.:E05TSI                              TUE 07/29/97 15:10 Page:61

(unnamed)
 Sect OctLoc
   2     000   000000 006000   000001 006000   000002 006000   000003 006000    ................
   2     004   000006 006000   000007 006000   000003 006000   000005 006000    ................
   2     010   000004 006000   000006 006000   000013 006000   000004 006000    ................
      275     6484                                                /**/
      276     6485    2   END M_TRUNC;
      277     6486                                                /**/
      278     6487    1   END DDE$ERROR;

PL6.E3A0      #001=DDE$ERROR File=DXE$ERROR.:E05TSI                              TUE 07/29/97 15:10 Page:62
--  Include file information  --

   DD_SD_M.:E05TOU  is referenced.
   XUH_MACRO_C.:E05TOU  is referenced.
   DD_SRTN_C.:E05TOU  is referenced.
   DD_ACODE_C.:E05TOU  is referenced.
   DD_ICODE_C.:E05TOU  is referenced.
   DD$DITEM.:E05TOU  cannot be made into a system file and is referenced.
   DD_ERR_C.:E05TOU  is referenced.
   DX_ERR_C.:E05TOU  cannot be made into a system file and is referenced.
   DD_DEBUG_C.:E05TOU  is referenced.
   B$JIT_C.:E05TOU  was found in the system file and is never referenced.
   CP_6_C.:E05TOU  was found in the system file and is never referenced.
      No diagnostics issued in procedure DDE$ERROR.

   Procedure DDE$ERROR requires 304 words for executable code.
   Procedure DDE$ERROR requires 24 words of local(AUTO) storage.

    No errors detected in file DXE$ERROR.:E05TSI    .
PL6.E3A0      #001=DDE$ERROR File=DXE$ERROR.:E05TSI                              TUE 07/29/97 15:10 Page:63
          *** CROSS REFERENCE LISTING ***
**     DENOTES     IDENTIFIER DEFINITION
<<                 IDENTIFIER'S VALUE SET
>>                 IDENTIFIER'S VALUE USED
<>                 IDENTIFIER SET AND/OR USED
--                 IDENTIFIER REFERENCED
PL6.E3A0      #001=DDE$ERROR File=DXE$ERROR.:E05TSI                              TUE 07/29/97 15:10 Page:64
          MINI XREF LISTING

AT
       107**DCL      6319<>CALL
CEE
        82**DCL      6311<>CALL
COUNT IN PROCEDURE M_SPACE
      6449**DCL      6447--PROC     6452>>ASSIGN
CRLFSPS.TXT
       114**DCL      6423>>CALLBLT  6424--ASSIGN   6425--ASSIGN   6456--ASSIGN   6458>>CALLBLT
CURPOS
        58**DCL      6313>>CALLBLT  6320>>CALL     6348>>CALL     6373<<ASSIGN   6374>>ASSIGN   6413>>CALLBLT
      6415<<ASSIGN   6415>>ASSIGN   6425<<ASSIGN   6457<>CALL     6461<<ASSIGN   6482<>CALL
DCTX_ME
      2875**DCL      6303>>ASSIGN   6304>>ASSIGN
DDK$GETX1
      6297**DCL-ENT  6318--CALL
DDQ$WRITE
      6298**DCL-ENT  6420--CALL     6457--CALL     6482--CALL
DDR$BINTXT
      6299**DCL-ENT  6320--CALL     6348--CALL
DQUOTE
        92**DCL      6327<>CALL     6331<>CALL
DX$ERR.CODE
       131**DCL      6336>>IF       6338--ASSIGN
DX$ERR.TEXTC
       132**DCL      6343<>CALL
DX$ERR.TEXTC.SIZE
       133**DCL       134--IMP-SIZ  6338--ASSIGN   6338>>ASSIGN   6343>>CALL
DXERR
       136**DCL      6334--ASSIGN
DXERR.EB
      2471**DCL      2477--DCLINIT
E$
PL6.E3A0      #001=DDE$ERROR File=DXE$ERROR.:E05TSI                              TUE 07/29/97 15:10 Page:65
      2476**DCL      6334<<ASSIGN   6335>>DOWHILE  6336>>IF       6338<<ASSIGN   6338>>ASSIGN   6338>>ASSIGN
      6343>>CALL     6343>>CALL
EB$
      2477**DCL      6335>>DOWHILE
EDASH
        87**DCL      6312<>CALL
EXX
        77**DCL      6310<>CALL
GOT_IT
      6343**LABEL    6337--GOTO
IN_DEV
      2877**DCL      6304<<ASSIGN
LE IN PROCEDURE M_SPACE
      6450**DCL      6452<<ASSIGN   6453>>IF       6454>>DOWHILE  6455<<ASSIGN   6455>>ASSIGN   6460>>ASSIGN
LE IN PROCEDURE M_TADD
      6408**DCL      6411<<ASSIGN   6413>>CALLBLT  6414>>ASSIGN   6415>>ASSIGN   6422<<ASSIGN   6422>>ASSIGN
LEFT
        59**DCL      6374<<ASSIGN   6413>>CALLBLT  6414<<ASSIGN   6414>>ASSIGN   6421>>ASSIGN   6422>>ASSIGN
      6424<<ASSIGN   6453>>IF       6454>>DOWHILE  6455>>ASSIGN   6456<<ASSIGN   6460<<ASSIGN   6460>>ASSIGN
      6461>>ASSIGN
LPAREN
        97**DCL      6326<>CALL
MORE IN PROCEDURE M_TADD
      6413**LABEL    6426--GOTO
M_INIT
      6371**PROC     6305--CALL
M_SPACE
      6447**PROC     6314--CALL     6321--CALL     6332--CALL     6349--CALL
M_TADD
      6402**PROC     6308--CALL     6310--CALL     6311--CALL     6312--CALL     6319--CALL     6326--CALL
      6327--CALL     6328--CALL     6330--CALL     6331--CALL     6343--CALL
M_TRUNC
      6480**PROC     6351--CALL
OUT_DEV
      2876**DCL      6303<<ASSIGN
PREFIX
PL6.E3A0      #001=DDE$ERROR File=DXE$ERROR.:E05TSI                              TUE 07/29/97 15:10 Page:66
        72**DCL      6308<>CALL
RPAREN
       102**DCL      6330<>CALL
SIZE
        60**DCL      6320<>CALL     6321>>CALL     6348<>CALL     6349<>CALL
ST IN PROCEDURE M_TADD
      6407**DCL      6410<<ASSIGN   6413>>CALLBLT  6421<<ASSIGN   6421>>ASSIGN
S_D.CURRENT_CHANNEL
      5931**DCL      5933--REDEF
S_D.DEBUGA
      5083**DCL      5085--REDEF    6306>>IF
S_D.EIS
      6041**DCL      6070--REDEF
S_D.ERROR
      5012**DCL      6309>>IF       6313>>CALLBLT  6316>>IF       6325>>IF       6329>>IF       6336>>IF
      6344>>IF       6344>>IF       6344>>IF
S_D.ERROR_HICHAR
      5625**DCL      6348<>CALL
S_D.ERROR_SYM$
      5036**DCL      6323>>IF       6328>>CALL     6328>>CALL
S_D.HOST_MESSAGE_BUF_REMOTE
      5974**DCL      5975--REDEF    5989--REDEF
S_D.JDE
      5588**DCL      5589--REDEF
S_D.L$.VALUE
      5141**DCL      5147--REDEF    5155--REDEF    5158--REDEF    5161--REDEF    5164--REDEF
S_D.L$.VALUE.L
      5142**DCL      5143--REDEF    5144--REDEF
S_D.L6_MESSAGE_BUF
      5995**DCL      5997--REDEF
S_D.OUTPUT
      5961**DCL      5963--REDEF    6313<<CALLBLT  6320--CALL     6348--CALL     6413<<CALLBLT  6420--CALL
      6423<<CALLBLT  6457--CALL     6458<<CALLBLT  6482--CALL
S_D.OUT_WIDTH
      5014**DCL      6374>>ASSIGN   6420<>CALL     6424>>ASSIGN   6456>>ASSIGN   6461>>ASSIGN
S_D.REMOTE_MSG.FNCC
PL6.E3A0      #001=DDE$ERROR File=DXE$ERROR.:E05TSI                              TUE 07/29/97 15:10 Page:67
      5980**DCL      5981--REDEF
S_D.REMOTE_MSG.STXC
      5976**DCL      5977--REDEF
S_D.REMOTE_MSG.SUBFNCC
      5984**DCL      5985--REDEF
S_D.SV
      5040**DCL      5061--REDEF
S_D$
      6292**DCL      4988--IMP-PTR  6306>>IF       6309>>IF       6313>>CALLBLT  6313>>CALLBLT  6316>>IF
      6320>>CALL     6323>>IF       6325>>IF       6328>>CALL     6328>>CALL     6329>>IF       6336>>IF
      6344>>IF       6344>>IF       6344>>IF       6348>>CALL     6348>>CALL     6374>>ASSIGN   6413>>CALLBLT
      6420>>CALL     6420>>CALL     6423>>CALLBLT  6424>>ASSIGN   6456>>ASSIGN   6457>>CALL     6458>>CALLBLT
      6461>>ASSIGN   6482>>CALL
TEXT$C
        63**DCL      6328<>CALL
TEXT$C.SIZE
        64**DCL        65--IMP-SIZ  6328>>CALL
TRUNC IN PROCEDURE M_TADD
      6420**LABEL    6413--CALLALT
TXTC IN PROCEDURE M_TADD
      6404**DCL      6402--PROC
TXTC.SIZE IN PROCEDURE M_TADD
      6405**DCL      6406--IMP-SIZ  6411>>ASSIGN   6413>>CALLBLT
TXTC.TXT IN PROCEDURE M_TADD
      6406**DCL      6413>>CALLBLT
X1
        61**DCL      6318<>CALL     6320<>CALL
PL6.E3A0      #001=DDE$ERROR File=DXE$ERROR.:E05TSI                              TUE 07/29/97 15:10 Page:68
              *** CROSS REFERENCE LISTING ***
    **     DENOTES     IDENTIFIER DEFINITION
    <<                 IDENTIFIER'S VALUE SET
    >>                 IDENTIFIER'S VALUE USED
    <>                 IDENTIFIER SET AND/OR USED
    --                 IDENTIFIER REFERENCED
PL6.E3A0      #001=DDE$ERROR File=DXE$ERROR.:E05TSI                              TUE 07/29/97 15:10 Page:69
              MINI UREF LISTING

DDE$ERROR      35**PROC
SDD$    2982**DCL
SDD_L6$    2984**DCL
ZITEM$    2983**DCL
ZITEM_L6$    2985**DCL
