VERSION E05

PL6.E3A0      #001=DXH$DUMMY File=DXH$DUMMY.:E05TSI                              TUE 07/29/97 15:11 Page:1
        1        1        /*M* DXH$DUMMY - PROVIDES USER DELTA DUMMIES FOR XDELTA */
        2        2        /*T***********************************************************/
        3        3        /*T*                                                         */
        4        4        /*T* Copyright (c) Bull HN Information Systems Inc., 1997    */
        5        5        /*T*                                                         */
        6        6        /*T***********************************************************/
        7        7        /*P* NAME: DXH$DUMMY.
        8        8             DESCRIPTION: PROVIDES ENTRIES FOR THOSE USER DELTA ONLY ROUTINES
        9        9                  STILL CALLED BY COMMON MODULES. */
       10       10                                                /**/
       11       11        DXH$DUMMY: PROC( D1, D2, D3, D4, D5 );
       12       12                                                /**/
       13       13    1   DCL D1 UBIN;
       14       14    1   DCL D2 UBIN;
       15       15    1   DCL D3 UBIN;
       16       16    1   DCL D4 UBIN;
       17       17    1   DCL D5 UBIN;
       18       18                                                /**/
       19       19    1   DDI$SETUP: ENTRY;
       20       20    1   DDQ$READ_ALIB: ENTRY( D1, D2);
       21       21    1   DFA$FPRG: ENTRY( D1 );
       22       22    1   DFA$GET_FPRG_DCB: ENTRY( D1 );
       23       23    1   DFA$KILL1: ENTRY( D1, D2, D3 );
       24       24    1   DFA$KILL_DELTA: ENTRY;
       25       25    1   DFA$KILL_FPRG: ENTRY( D1 );
       26       26    1   DFA$PLUGH: ENTRY;
       27       27    1   DFA$TRACE: ENTRY;
       28       28    1   DFA$TRACEOFF: ENTRY;
       29       29    1   DFA$USE: ENTRY;
       30       30    1   DFR$BINHEX: ENTRY( D1, D2, D3, D4 );
       31       31    1   DFR$EVENTRPT: ENTRY( D1 );
       32       32    1   DFR$REPORT: ENTRY( D1 );
       33       33    1   DUE$GERRMSG: ENTRY;
       34       34    1   DUI$INIT_L6: ENTRY;
       35       35    1   DUA$DELETE: ENTRY;
       36       36    1   DUA$HELP: ENTRY;
       37       37    1   DUA$KILL_RUM: ENTRY;
PL6.E3A0      #001=DXH$DUMMY File=DXH$DUMMY.:E05TSI                              TUE 07/29/97 15:11 Page:2
       38       38    1   DUA$LIST: ENTRY;
       39       39    1   DUA$PMD: ENTRY;
       40       40    1   DUA$RUM: ENTRY;
       41       41    1   DUA$RUM_COMM: ENTRY;
       42       42    1   DUA$SHOW_RUM: ENTRY;
       43       43    1   DUD$MINI: ENTRY( D1 );
       44       44    1   DUE$ERRMSG: ENTRY;
       45       45    1   DUE$JERRMSG: ENTRY;
       46       46    1   DUE$L6JERRMSG: ENTRY;
       47       47    1   DUQ$OCMSG: ENTRY(D1);
       48       48    1   DUQ$WRERRLOG: ENTRY( D1 );
       49       49    1   DUR$ECCRPT: ENTRY( D1 );
       50       50    1   DUX$TRAP: ENTRY;
       51       51    1   DUX$XCON: ENTRY;
       52       52    1   DUX$XCON1_REL: ENTRY;
       53       53                                                /**/
       54       54    1        RETURN;
       55       55                                                /**/
       56       56    1   END DXH$DUMMY;
       57       57        %EOD;

PL6.E3A0      #001=DXH$DUMMY File=DXH$DUMMY.:E05TSI                              TUE 07/29/97 15:11 Page:3
--  Include file information  --

   B$JIT_C.:E05TOU  was found in the system file and is never referenced.
   CP_6_C.:E05TOU  was found in the system file and is never referenced.
      No diagnostics issued in procedure DXH$DUMMY.

   Procedure DXH$DUMMY requires 105 words for executable code.
   Procedure DXH$DUMMY requires 8 words of local(AUTO) storage.

PL6.E3A0      #001=DXH$DUMMY File=DXH$DUMMY.:E05TSI                              TUE 07/29/97 15:11 Page:4

 Object Unit name= DXH$DUMMY                                  File name= DXH$DUMMY.:E05TOU
 UTS= JUL 29 '97 15:11:31.84 TUE                              Compiler= PL-6/E31         Sev=      00
 SharedLib= :SHARED_SYSTEM                                    Alt SharedLib=


    ****  Control sections  ****

 Sect   Type Bound  Init  Size OctSiz  Section name(segment info)
    0   Proc  even  none   105    151  DXH$DUMMY

    ****  Entry defs  ****

                              Check   Calling
                             calling  sequence
  Sect OctLoc Primary Altret sequence   type   Parms  Name
     0      0   yes            yes      Std        5  DXH$DUMMY
     0      3                  yes      Std        0  DDI$SETUP
     0      6                  yes      Std        2  DDQ$READ_ALIB
     0     11                  yes      Std        1  DFA$FPRG
     0     14                  yes      Std        1  DFA$GET_FPRG_DCB
     0     17                  yes      Std        3  DFA$KILL1
     0     22                  yes      Std        0  DFA$KILL_DELTA
     0     25                  yes      Std        1  DFA$KILL_FPRG
     0     30                  yes      Std        0  DFA$PLUGH
     0     33                  yes      Std        0  DFA$TRACE
     0     36                  yes      Std        0  DFA$TRACEOFF
     0     41                  yes      Std        0  DFA$USE
     0     44                  yes      Std        4  DFR$BINHEX
     0     47                  yes      Std        1  DFR$EVENTRPT
     0     52                  yes      Std        1  DFR$REPORT
     0     55                  yes      Std        0  DUE$GERRMSG
     0     60                  yes      Std        0  DUI$INIT_L6
     0     63                  yes      Std        0  DUA$DELETE
     0     66                  yes      Std        0  DUA$HELP
     0     71                  yes      Std        0  DUA$KILL_RUM
     0     74                  yes      Std        0  DUA$LIST
     0     77                  yes      Std        0  DUA$PMD
PL6.E3A0      #001=DXH$DUMMY File=DXH$DUMMY.:E05TSI                              TUE 07/29/97 15:11 Page:5
     0    102                  yes      Std        0  DUA$RUM
     0    105                  yes      Std        0  DUA$RUM_COMM
     0    110                  yes      Std        0  DUA$SHOW_RUM
     0    113                  yes      Std        1  DUD$MINI
     0    116                  yes      Std        0  DUE$ERRMSG
     0    121                  yes      Std        0  DUE$JERRMSG
     0    124                  yes      Std        0  DUE$L6JERRMSG
     0    127                  yes      Std        1  DUQ$OCMSG
     0    132                  yes      Std        1  DUQ$WRERRLOG
     0    135                  yes      Std        1  DUR$ECCRPT
     0    140                  yes      Std        0  DUX$TRAP
     0    143                  yes      Std        0  DUX$XCON
     0    146                  yes      Std        0  DUX$XCON1_REL

  ****  Entry refs  ****

         Check        Calling
        calling       sequence
Altret sequence SRef   type   Args  Name
                       nStd      0 X66_AUTO_5
                       nStd      0 X66_ARET
PL6.E3A0      #001=DXH$DUMMY File=DXH$DUMMY.:E05TSI                              TUE 07/29/97 15:11 Page:6


        1        1        /*M* DXH$DUMMY - PROVIDES USER DELTA DUMMIES FOR XDELTA */
        2        2        /*T***********************************************************/
        3        3        /*T*                                                         */
        4        4        /*T* Copyright (c) Bull HN Information Systems Inc., 1997    */
        5        5        /*T*                                                         */
        6        6        /*T***********************************************************/
        7        7        /*P* NAME: DXH$DUMMY.
        8        8             DESCRIPTION: PROVIDES ENTRIES FOR THOSE USER DELTA ONLY ROUTINES
        9        9                  STILL CALLED BY COMMON MODULES. */
       10       10                                                /**/
       11       11        DXH$DUMMY: PROC( D1, D2, D3, D4, D5 );

     11  0 000000   000000 700200 xent  DXH$DUMMY    TSX0  ! X66_AUTO_5
         0 000001   000010 000005                    ZERO    8,5
         0 000002   000005 710000 0                  TRA     s:19+2

       12       12                                                /**/
       13       13    1   DCL D1 UBIN;
       14       14    1   DCL D2 UBIN;
       15       15    1   DCL D3 UBIN;
       16       16    1   DCL D4 UBIN;
       17       17    1   DCL D5 UBIN;
       18       18                                                /**/
       19       19    1   DDI$SETUP: ENTRY;

     19  0 000003   000000 700200 xent  DDI$SETUP    TSX0  ! X66_AUTO_5
         0 000004   000010 000005                    ZERO    8,5
         0 000005   000010 710000 0                  TRA     s:20+2

       20       20    1   DDQ$READ_ALIB: ENTRY( D1, D2);

     20  0 000006   000000 700200 xent  DDQ$READ_AL* TSX0  ! X66_AUTO_5
         0 000007   000010 000005                    ZERO    8,5
         0 000010   000013 710000 0                  TRA     s:21+2

       21       21    1   DFA$FPRG: ENTRY( D1 );
PL6.E3A0      #001=DXH$DUMMY File=DXH$DUMMY.:E05TSI                              TUE 07/29/97 15:11 Page:7

     21  0 000011   000000 700200 xent  DFA$FPRG     TSX0  ! X66_AUTO_5
         0 000012   000010 000005                    ZERO    8,5
         0 000013   000016 710000 0                  TRA     s:22+2

       22       22    1   DFA$GET_FPRG_DCB: ENTRY( D1 );

     22  0 000014   000000 700200 xent  DFA$GET_FPR* TSX0  ! X66_AUTO_5
         0 000015   000010 000005                    ZERO    8,5
         0 000016   000021 710000 0                  TRA     s:23+2

       23       23    1   DFA$KILL1: ENTRY( D1, D2, D3 );

     23  0 000017   000000 700200 xent  DFA$KILL1    TSX0  ! X66_AUTO_5
         0 000020   000010 000005                    ZERO    8,5
         0 000021   000024 710000 0                  TRA     s:24+2

       24       24    1   DFA$KILL_DELTA: ENTRY;

     24  0 000022   000000 700200 xent  DFA$KILL_DE* TSX0  ! X66_AUTO_5
         0 000023   000010 000005                    ZERO    8,5
         0 000024   000027 710000 0                  TRA     s:25+2

       25       25    1   DFA$KILL_FPRG: ENTRY( D1 );

     25  0 000025   000000 700200 xent  DFA$KILL_FP* TSX0  ! X66_AUTO_5
         0 000026   000010 000005                    ZERO    8,5
         0 000027   000032 710000 0                  TRA     s:26+2

       26       26    1   DFA$PLUGH: ENTRY;

     26  0 000030   000000 700200 xent  DFA$PLUGH    TSX0  ! X66_AUTO_5
         0 000031   000010 000005                    ZERO    8,5
         0 000032   000035 710000 0                  TRA     s:27+2

       27       27    1   DFA$TRACE: ENTRY;

PL6.E3A0      #001=DXH$DUMMY File=DXH$DUMMY.:E05TSI                              TUE 07/29/97 15:11 Page:8
     27  0 000033   000000 700200 xent  DFA$TRACE    TSX0  ! X66_AUTO_5
         0 000034   000010 000005                    ZERO    8,5
         0 000035   000040 710000 0                  TRA     s:28+2

       28       28    1   DFA$TRACEOFF: ENTRY;

     28  0 000036   000000 700200 xent  DFA$TRACEOFF TSX0  ! X66_AUTO_5
         0 000037   000010 000005                    ZERO    8,5
         0 000040   000043 710000 0                  TRA     s:29+2

       29       29    1   DFA$USE: ENTRY;

     29  0 000041   000000 700200 xent  DFA$USE      TSX0  ! X66_AUTO_5
         0 000042   000010 000005                    ZERO    8,5
         0 000043   000046 710000 0                  TRA     s:30+2

       30       30    1   DFR$BINHEX: ENTRY( D1, D2, D3, D4 );

     30  0 000044   000000 700200 xent  DFR$BINHEX   TSX0  ! X66_AUTO_5
         0 000045   000010 000005                    ZERO    8,5
         0 000046   000051 710000 0                  TRA     s:31+2

       31       31    1   DFR$EVENTRPT: ENTRY( D1 );

     31  0 000047   000000 700200 xent  DFR$EVENTRPT TSX0  ! X66_AUTO_5
         0 000050   000010 000005                    ZERO    8,5
         0 000051   000054 710000 0                  TRA     s:32+2

       32       32    1   DFR$REPORT: ENTRY( D1 );

     32  0 000052   000000 700200 xent  DFR$REPORT   TSX0  ! X66_AUTO_5
         0 000053   000010 000005                    ZERO    8,5
         0 000054   000057 710000 0                  TRA     s:33+2

       33       33    1   DUE$GERRMSG: ENTRY;

     33  0 000055   000000 700200 xent  DUE$GERRMSG  TSX0  ! X66_AUTO_5
PL6.E3A0      #001=DXH$DUMMY File=DXH$DUMMY.:E05TSI                              TUE 07/29/97 15:11 Page:9
         0 000056   000010 000005                    ZERO    8,5
         0 000057   000062 710000 0                  TRA     s:34+2

       34       34    1   DUI$INIT_L6: ENTRY;

     34  0 000060   000000 700200 xent  DUI$INIT_L6  TSX0  ! X66_AUTO_5
         0 000061   000010 000005                    ZERO    8,5
         0 000062   000065 710000 0                  TRA     s:35+2

       35       35    1   DUA$DELETE: ENTRY;

     35  0 000063   000000 700200 xent  DUA$DELETE   TSX0  ! X66_AUTO_5
         0 000064   000010 000005                    ZERO    8,5
         0 000065   000070 710000 0                  TRA     s:36+2

       36       36    1   DUA$HELP: ENTRY;

     36  0 000066   000000 700200 xent  DUA$HELP     TSX0  ! X66_AUTO_5
         0 000067   000010 000005                    ZERO    8,5
         0 000070   000073 710000 0                  TRA     s:37+2

       37       37    1   DUA$KILL_RUM: ENTRY;

     37  0 000071   000000 700200 xent  DUA$KILL_RUM TSX0  ! X66_AUTO_5
         0 000072   000010 000005                    ZERO    8,5
         0 000073   000076 710000 0                  TRA     s:38+2

       38       38    1   DUA$LIST: ENTRY;

     38  0 000074   000000 700200 xent  DUA$LIST     TSX0  ! X66_AUTO_5
         0 000075   000010 000005                    ZERO    8,5
         0 000076   000101 710000 0                  TRA     s:39+2

       39       39    1   DUA$PMD: ENTRY;

     39  0 000077   000000 700200 xent  DUA$PMD      TSX0  ! X66_AUTO_5
         0 000100   000010 000005                    ZERO    8,5
PL6.E3A0      #001=DXH$DUMMY File=DXH$DUMMY.:E05TSI                              TUE 07/29/97 15:11 Page:10
         0 000101   000104 710000 0                  TRA     s:40+2

       40       40    1   DUA$RUM: ENTRY;

     40  0 000102   000000 700200 xent  DUA$RUM      TSX0  ! X66_AUTO_5
         0 000103   000010 000005                    ZERO    8,5
         0 000104   000107 710000 0                  TRA     s:41+2

       41       41    1   DUA$RUM_COMM: ENTRY;

     41  0 000105   000000 700200 xent  DUA$RUM_COMM TSX0  ! X66_AUTO_5
         0 000106   000010 000005                    ZERO    8,5
         0 000107   000112 710000 0                  TRA     s:42+2

       42       42    1   DUA$SHOW_RUM: ENTRY;

     42  0 000110   000000 700200 xent  DUA$SHOW_RUM TSX0  ! X66_AUTO_5
         0 000111   000010 000005                    ZERO    8,5
         0 000112   000115 710000 0                  TRA     s:43+2

       43       43    1   DUD$MINI: ENTRY( D1 );

     43  0 000113   000000 700200 xent  DUD$MINI     TSX0  ! X66_AUTO_5
         0 000114   000010 000005                    ZERO    8,5
         0 000115   000120 710000 0                  TRA     s:44+2

       44       44    1   DUE$ERRMSG: ENTRY;

     44  0 000116   000000 700200 xent  DUE$ERRMSG   TSX0  ! X66_AUTO_5
         0 000117   000010 000005                    ZERO    8,5
         0 000120   000123 710000 0                  TRA     s:45+2

       45       45    1   DUE$JERRMSG: ENTRY;

     45  0 000121   000000 700200 xent  DUE$JERRMSG  TSX0  ! X66_AUTO_5
         0 000122   000010 000005                    ZERO    8,5
         0 000123   000126 710000 0                  TRA     s:46+2
PL6.E3A0      #001=DXH$DUMMY File=DXH$DUMMY.:E05TSI                              TUE 07/29/97 15:11 Page:11

       46       46    1   DUE$L6JERRMSG: ENTRY;

     46  0 000124   000000 700200 xent  DUE$L6JERRM* TSX0  ! X66_AUTO_5
         0 000125   000010 000005                    ZERO    8,5
         0 000126   000131 710000 0                  TRA     s:47+2

       47       47    1   DUQ$OCMSG: ENTRY(D1);

     47  0 000127   000000 700200 xent  DUQ$OCMSG    TSX0  ! X66_AUTO_5
         0 000130   000010 000005                    ZERO    8,5
         0 000131   000134 710000 0                  TRA     s:48+2

       48       48    1   DUQ$WRERRLOG: ENTRY( D1 );

     48  0 000132   000000 700200 xent  DUQ$WRERRLOG TSX0  ! X66_AUTO_5
         0 000133   000010 000005                    ZERO    8,5
         0 000134   000137 710000 0                  TRA     s:49+2

       49       49    1   DUR$ECCRPT: ENTRY( D1 );

     49  0 000135   000000 700200 xent  DUR$ECCRPT   TSX0  ! X66_AUTO_5
         0 000136   000010 000005                    ZERO    8,5
         0 000137   000142 710000 0                  TRA     s:50+2

       50       50    1   DUX$TRAP: ENTRY;

     50  0 000140   000000 700200 xent  DUX$TRAP     TSX0  ! X66_AUTO_5
         0 000141   000010 000005                    ZERO    8,5
         0 000142   000145 710000 0                  TRA     s:51+2

       51       51    1   DUX$XCON: ENTRY;

     51  0 000143   000000 700200 xent  DUX$XCON     TSX0  ! X66_AUTO_5
         0 000144   000010 000005                    ZERO    8,5
         0 000145   000150 710000 0                  TRA     s:54

PL6.E3A0      #001=DXH$DUMMY File=DXH$DUMMY.:E05TSI                              TUE 07/29/97 15:11 Page:12
       52       52    1   DUX$XCON1_REL: ENTRY;

     52  0 000146   000000 700200 xent  DUX$XCON1_R* TSX0  ! X66_AUTO_5
         0 000147   000010 000005                    ZERO    8,5

       53       53                                                /**/
       54       54    1        RETURN;

     54  0 000150   000000 702200 xent               TSX2  ! X66_ARET
       55       55                                                /**/
       56       56    1   END DXH$DUMMY;
       57       57        %EOD;

PL6.E3A0      #001=DXH$DUMMY File=DXH$DUMMY.:E05TSI                              TUE 07/29/97 15:11 Page:13
--  Include file information  --

   B$JIT_C.:E05TOU  was found in the system file and is never referenced.
   CP_6_C.:E05TOU  was found in the system file and is never referenced.
      No diagnostics issued in procedure DXH$DUMMY.

   Procedure DXH$DUMMY requires 105 words for executable code.
   Procedure DXH$DUMMY requires 8 words of local(AUTO) storage.
PL6.E3A0      #001=DXH$DUMMY File=DXH$DUMMY.:E05TSI                              TUE 07/29/97 15:11 Page:14
          *** CROSS REFERENCE LISTING ***
**     DENOTES     IDENTIFIER DEFINITION
<<                 IDENTIFIER'S VALUE SET
>>                 IDENTIFIER'S VALUE USED
<>                 IDENTIFIER SET AND/OR USED
--                 IDENTIFIER REFERENCED
PL6.E3A0      #001=DXH$DUMMY File=DXH$DUMMY.:E05TSI                              TUE 07/29/97 15:11 Page:15
          MINI XREF LISTING

D1
        13**DCL        11--PROC       20--ENTRY      21--ENTRY      22--ENTRY      23--ENTRY      25--ENTRY
        30--ENTRY      31--ENTRY      32--ENTRY      43--ENTRY      47--ENTRY      48--ENTRY      49--ENTRY
D2
        14**DCL        11--PROC       20--ENTRY      23--ENTRY      30--ENTRY
D3
        15**DCL        11--PROC       23--ENTRY      30--ENTRY
D4
        16**DCL        11--PROC       30--ENTRY
D5
        17**DCL        11--PROC
PL6.E3A0      #001=DXH$DUMMY File=DXH$DUMMY.:E05TSI                              TUE 07/29/97 15:11 Page:16
              *** CROSS REFERENCE LISTING ***
    **     DENOTES     IDENTIFIER DEFINITION
    <<                 IDENTIFIER'S VALUE SET
    >>                 IDENTIFIER'S VALUE USED
    <>                 IDENTIFIER SET AND/OR USED
    --                 IDENTIFIER REFERENCED
PL6.E3A0      #001=DXH$DUMMY File=DXH$DUMMY.:E05TSI                              TUE 07/29/97 15:11 Page:17
              MINI UREF LISTING

DDI$SETUP      19**ENTRY
DDQ$READ_ALIB      20**ENTRY
DFA$FPRG      21**ENTRY
DFA$GET_FPRG_DCB      22**ENTRY
DFA$KILL1      23**ENTRY
DFA$KILL_DELTA      24**ENTRY
DFA$KILL_FPRG      25**ENTRY
DFA$PLUGH      26**ENTRY
DFA$TRACE      27**ENTRY
DFA$TRACEOFF      28**ENTRY
DFA$USE      29**ENTRY
DFR$BINHEX      30**ENTRY
DFR$EVENTRPT      31**ENTRY
DFR$REPORT      32**ENTRY
DUA$DELETE      35**ENTRY
DUA$HELP      36**ENTRY
DUA$KILL_RUM      37**ENTRY
DUA$LIST      38**ENTRY
DUA$PMD      39**ENTRY
DUA$RUM      40**ENTRY
DUA$RUM_COMM      41**ENTRY
DUA$SHOW_RUM      42**ENTRY
DUD$MINI      43**ENTRY
DUE$ERRMSG      44**ENTRY
DUE$GERRMSG      33**ENTRY
DUE$JERRMSG      45**ENTRY
DUE$L6JERRMSG      46**ENTRY
DUI$INIT_L6      34**ENTRY
DUQ$OCMSG      47**ENTRY
DUQ$WRERRLOG      48**ENTRY
DUR$ECCRPT      49**ENTRY
DUX$TRAP      50**ENTRY
PL6.E3A0      #001=DXH$DUMMY File=DXH$DUMMY.:E05TSI                              TUE 07/29/97 15:11 Page:18
DUX$XCON      51**ENTRY
DUX$XCON1_REL      52**ENTRY
DXH$DUMMY      11**PROC

PL6.E3A0      #002=DXH$DUMMYA File=DXH$DUMMY.:E05TSI                             TUE 07/29/97 15:11 Page:19
       58        1        /*T***********************************************************/
       59        2        /*T*                                                         */
       60        3        /*T* Copyright (c) Bull HN Information Systems Inc., 1997    */
       61        4        /*T*                                                         */
       62        5        /*T***********************************************************/
       63        6                                                /**/
       64        7        DXH$DUMMYA: PROC( D1, D2, D3, D4, D5, D6, D7, D8 ) ALTRET;
       65        8                                                /**/
       66        9    1   DCL D1 UBIN;
       67       10    1   DCL D2 CHAR(20) CALIGNED;
       68       11    1   DCL D3 UBIN;
       69       12    1   DCL D4 UBIN;
       70       13    1   DCL D5 UBIN;
       71       14    1   DCL D6 UBIN;
       72       15    1   DCL D7 UBIN;
       73       16    1   DCL D8 UBIN;
       74       17                                                /**/
       75       18    1   DDA$UPDATE: ENTRY ALTRET;
       76       19    1   DDM$GETMEM: ENTRY( D1, D2, D3 ) ALTRET;
       77       20    1   DDM$PUTMEM: ENTRY( D1, D2, D3 ) ALTRET;
       78       21    1   DDQ$WRITELM: ENTRY( D1, D2, D3, D4, D5 ) ALTRET;
       79       22    1   DDS$EMTREE: ENTRY ALTRET;
       80       23    1   DDS$EUTREE: ENTRY ALTRET;
       81       24    1   DFA$DFMT: ENTRY ALTRET;
       82       25    1   DFA$DLCT: ENTRY ALTRET;
       83       26    1   DFA$DUMP: ENTRY ALTRET;
       84       27    1   DFA$GO: ENTRY( D1 ) ALTRET;
       85       28    1   DFA$KEEP: ENTRY ALTRET;
       86       29    1   DFA$LET: ENTRY ALTRET;
       87       30    1   DFA$MLCT: ENTRY ALTRET;
       88       31    1   DFA$MLCT_ACTIVE: ENTRY ALTRET;
       89       32    1   DFA$ONCALL: ENTRY( D1, D2, D3 ) ALTRET;
       90       33    1   DFA$ONCALLS: ENTRY( D1, D2, D3 ) ALTRET;
       91       34    1   DFA$QUIT: ENTRY( D1 ) ALTRET;
       92       35    1   DFA$SETUP_FPRG: ENTRY( D1, D2, D3, D4 ) ALTRET;
       93       36    1   DFA$SET_AT: ENTRY( D1, D2, D3 ) ALTRET;
       94       37    1   DFA$STEP: ENTRY( D1, D2 ) ALTRET;
PL6.E3A0      #002=DXH$DUMMYA File=DXH$DUMMY.:E05TSI                             TUE 07/29/97 15:11 Page:20
       95       38    1   DFA$STOP_FPRGS: ENTRY(D1, D2) ALTRET;
       96       39    1   DFA$TSA: ENTRY ALTRET;
       97       40    1   DFA$TRACE_REPORT: ENTRY ALTRET;
       98       41    1   DFA$UNFID: ENTRY ALTRET;
       99       42    1   DFK$EVAL: ENTRY( D1, D2, D3, D4, D5, D6, D7, D8 ) ALTRET;
      100       43    1   DFK$EVAL_DISP: ENTRY( D1, D2, D3, D4, D5, D6, D7, D8 ) ALTRET;
      101       44    1   DFK$GETMVAL: ENTRY( D1, D2, D3, D4, D5, D6 ) ALTRET;
      102       45    1   DFK$PUTMVAL: ENTRY( D1, D2, D3, D4, D5, D6 ) ALTRET;
      103       46    1   DFQ$READ_FD: ENTRY( D1, D2 ) ALTRET;
      104       47    1   DFQ$WRITE_FD: ENTRY( D1 ) ALTRET;
      105       48    1   DFR$HEXBIN: ENTRY( D1, D2 ) ALTRET;
      106       49    1   DFR$INSTR: ENTRY( D1, D2, D3, D4 ) ALTRET;
      107       50    1   DFS$INSTR: ENTRY( D1, D2, D3, D4 ) ALTRET;
      108       51    1   DUI$RU_ACCESS: ENTRY ALTRET;
      109       52    1   DUA$WHEN: ENTRY ALTRET;
      110       53    1   DUA$WHENIN: ENTRY ALTRET;
      111       54    1   DUA$WHENOUT: ENTRY(D1) ALTRET;
      112       55    1   DUA$UNFID: ENTRY(D1,D2,D3) ALTRET;
      113       56    1   DUA$ALIB: ENTRY( D1, D2 ) ALTRET;
      114       57    1   DUL$GETVP2: ENTRY(D1, D2, D3) ALTRET;
      115       58    1   DUA$ANLZ: ENTRY ALTRET;
      116       59    1   DUA$CLOSEDUMP: ENTRY ALTRET;
      117       60    1   DUA$KILL_ANLZ: ENTRY ALTRET;
      118       61    1   DUA$OUTPUT: ENTRY( D1, D2, D3,D4 ) ALTRET;
      119       62    1   DUA$READ: ENTRY( D1 ) ALTRET;
      120       63    1   DUA$SHOW_ANLZ: ENTRY ALTRET;
      121       64    1   DUI$1STIME: ENTRY ALTRET;
      122       65    1   DUL$GETMVAL: ENTRY( D1, D2, D3, D4, D5 ) ALTRET;
      123       66    1   DUL$USE: ENTRY( D1, D2, D3, D4 ) ALTRET;
      124       67    1   DUU$GETMVAL: ENTRY (D1,D2,D3,D4,D5,D6) ALTRET;
      125       68    1   DUU$PUTMVAL: ENTRY (D1,D2,D3,D4,D5,D6) ALTRET;
      126       69                                                /**/
      127       70    1        RETURN;
      128       71
      129       72    1   DFR$UTSTIME: ENTRY (D1,D2) ALTRET;
      130       73    1        D2 = '**:**:**.** **/**/**';
      131       74    1        RETURN;
PL6.E3A0      #002=DXH$DUMMYA File=DXH$DUMMY.:E05TSI                             TUE 07/29/97 15:11 Page:21
      132       75                                                /**/
      133       76    1   END DXH$DUMMYA;
      134       77        %EOD;

PL6.E3A0      #002=DXH$DUMMYA File=DXH$DUMMY.:E05TSI                             TUE 07/29/97 15:11 Page:22
--  Include file information  --

   B$JIT_C.:E05TOU  was found in the system file and is never referenced.
   CP_6_C.:E05TOU  was found in the system file and is never referenced.
      No diagnostics issued in procedure DXH$DUMMYA.

   Procedure DXH$DUMMYA requires 163 words for executable code.
   Procedure DXH$DUMMYA requires 12 words of local(AUTO) storage.

PL6.E3A0      #002=DXH$DUMMYA File=DXH$DUMMY.:E05TSI                             TUE 07/29/97 15:11 Page:23

 Object Unit name= DXH$DUMMYA                                 File name= DXH$DUMMY.:E05TOU
 UTS= JUL 29 '97 15:11:34.44 TUE                              Compiler= PL-6/E31         Sev=      00
 SharedLib= :SHARED_SYSTEM                                    Alt SharedLib=


    ****  Control sections  ****

 Sect   Type Bound  Init  Size OctSiz  Section name(segment info)
    0  RoData even  UTS      5      5  DXH$DUMMYA
    1   Proc  even  none   163    243  DXH$DUMMYA

    ****  Entry defs  ****

                              Check   Calling
                             calling  sequence
  Sect OctLoc Primary Altret sequence   type   Parms  Name
     1      0   yes    yes     yes      Std        8  DXH$DUMMYA
     1      3          yes     yes      Std        0  DDA$UPDATE
     1      6          yes     yes      Std        3  DDM$GETMEM
     1     11          yes     yes      Std        3  DDM$PUTMEM
     1     14          yes     yes      Std        5  DDQ$WRITELM
     1     17          yes     yes      Std        0  DDS$EMTREE
     1     22          yes     yes      Std        0  DDS$EUTREE
     1     25          yes     yes      Std        0  DFA$DFMT
     1     30          yes     yes      Std        0  DFA$DLCT
     1     33          yes     yes      Std        0  DFA$DUMP
     1     36          yes     yes      Std        1  DFA$GO
     1     41          yes     yes      Std        0  DFA$KEEP
     1     44          yes     yes      Std        0  DFA$LET
     1     47          yes     yes      Std        0  DFA$MLCT
     1     52          yes     yes      Std        0  DFA$MLCT_ACTIVE
     1     55          yes     yes      Std        3  DFA$ONCALL
     1     60          yes     yes      Std        3  DFA$ONCALLS
     1     63          yes     yes      Std        1  DFA$QUIT
     1     66          yes     yes      Std        4  DFA$SETUP_FPRG
     1     71          yes     yes      Std        3  DFA$SET_AT
     1     74          yes     yes      Std        2  DFA$STEP
PL6.E3A0      #002=DXH$DUMMYA File=DXH$DUMMY.:E05TSI                             TUE 07/29/97 15:11 Page:24
     1     77          yes     yes      Std        2  DFA$STOP_FPRGS
     1    102          yes     yes      Std        0  DFA$TSA
     1    105          yes     yes      Std        0  DFA$TRACE_REPORT
     1    110          yes     yes      Std        0  DFA$UNFID
     1    113          yes     yes      Std        8  DFK$EVAL
     1    116          yes     yes      Std        8  DFK$EVAL_DISP
     1    121          yes     yes      Std        6  DFK$GETMVAL
     1    124          yes     yes      Std        6  DFK$PUTMVAL
     1    127          yes     yes      Std        2  DFQ$READ_FD
     1    132          yes     yes      Std        1  DFQ$WRITE_FD
     1    135          yes     yes      Std        2  DFR$HEXBIN
     1    140          yes     yes      Std        4  DFR$INSTR
     1    143          yes     yes      Std        4  DFS$INSTR
     1    146          yes     yes      Std        0  DUI$RU_ACCESS
     1    151          yes     yes      Std        0  DUA$WHEN
     1    154          yes     yes      Std        0  DUA$WHENIN
     1    157          yes     yes      Std        1  DUA$WHENOUT
     1    162          yes     yes      Std        3  DUA$UNFID
     1    165          yes     yes      Std        2  DUA$ALIB
     1    170          yes     yes      Std        3  DUL$GETVP2
     1    173          yes     yes      Std        0  DUA$ANLZ
     1    176          yes     yes      Std        0  DUA$CLOSEDUMP
     1    201          yes     yes      Std        0  DUA$KILL_ANLZ
     1    204          yes     yes      Std        4  DUA$OUTPUT
     1    207          yes     yes      Std        1  DUA$READ
     1    212          yes     yes      Std        0  DUA$SHOW_ANLZ
     1    215          yes     yes      Std        0  DUI$1STIME
     1    220          yes     yes      Std        5  DUL$GETMVAL
     1    223          yes     yes      Std        4  DUL$USE
     1    226          yes     yes      Std        6  DUU$GETMVAL
     1    231          yes     yes      Std        6  DUU$PUTMVAL
     1    234          yes     yes      Std        2  DFR$UTSTIME
PL6.E3A0      #002=DXH$DUMMYA File=DXH$DUMMY.:E05TSI                             TUE 07/29/97 15:11 Page:25

  ****  Entry refs  ****

         Check        Calling
        calling       sequence
Altret sequence SRef   type   Args  Name
                       nStd      0 X66_AUTO_N
                       nStd      0 X66_ARET
PL6.E3A0      #002=DXH$DUMMYA File=DXH$DUMMY.:E05TSI                             TUE 07/29/97 15:11 Page:26


       58        1        /*T***********************************************************/
       59        2        /*T*                                                         */
       60        3        /*T* Copyright (c) Bull HN Information Systems Inc., 1997    */
       61        4        /*T*                                                         */
       62        5        /*T***********************************************************/
       63        6                                                /**/
       64        7        DXH$DUMMYA: PROC( D1, D2, D3, D4, D5, D6, D7, D8 ) ALTRET;

      7  1 000000   000000 700200 xent  DXH$DUMMYA   TSX0  ! X66_AUTO_N
         1 000001   000014 000010                    ZERO    12,8
         1 000002   000005 710000 1                  TRA     s:18+2

       65        8                                                /**/
       66        9    1   DCL D1 UBIN;
       67       10    1   DCL D2 CHAR(20) CALIGNED;
       68       11    1   DCL D3 UBIN;
       69       12    1   DCL D4 UBIN;
       70       13    1   DCL D5 UBIN;
       71       14    1   DCL D6 UBIN;
       72       15    1   DCL D7 UBIN;
       73       16    1   DCL D8 UBIN;
       74       17                                                /**/
       75       18    1   DDA$UPDATE: ENTRY ALTRET;

     18  1 000003   000000 700200 xent  DDA$UPDATE   TSX0  ! X66_AUTO_N
         1 000004   000014 000010                    ZERO    12,8
         1 000005   000010 710000 1                  TRA     s:19+2

       76       19    1   DDM$GETMEM: ENTRY( D1, D2, D3 ) ALTRET;

     19  1 000006   000000 700200 xent  DDM$GETMEM   TSX0  ! X66_AUTO_N
         1 000007   000014 000010                    ZERO    12,8
         1 000010   000013 710000 1                  TRA     s:20+2

       77       20    1   DDM$PUTMEM: ENTRY( D1, D2, D3 ) ALTRET;

PL6.E3A0      #002=DXH$DUMMYA File=DXH$DUMMY.:E05TSI                             TUE 07/29/97 15:11 Page:27
     20  1 000011   000000 700200 xent  DDM$PUTMEM   TSX0  ! X66_AUTO_N
         1 000012   000014 000010                    ZERO    12,8
         1 000013   000016 710000 1                  TRA     s:21+2

       78       21    1   DDQ$WRITELM: ENTRY( D1, D2, D3, D4, D5 ) ALTRET;

     21  1 000014   000000 700200 xent  DDQ$WRITELM  TSX0  ! X66_AUTO_N
         1 000015   000014 000010                    ZERO    12,8
         1 000016   000021 710000 1                  TRA     s:22+2

       79       22    1   DDS$EMTREE: ENTRY ALTRET;

     22  1 000017   000000 700200 xent  DDS$EMTREE   TSX0  ! X66_AUTO_N
         1 000020   000014 000010                    ZERO    12,8
         1 000021   000024 710000 1                  TRA     s:23+2

       80       23    1   DDS$EUTREE: ENTRY ALTRET;

     23  1 000022   000000 700200 xent  DDS$EUTREE   TSX0  ! X66_AUTO_N
         1 000023   000014 000010                    ZERO    12,8
         1 000024   000027 710000 1                  TRA     s:24+2

       81       24    1   DFA$DFMT: ENTRY ALTRET;

     24  1 000025   000000 700200 xent  DFA$DFMT     TSX0  ! X66_AUTO_N
         1 000026   000014 000010                    ZERO    12,8
         1 000027   000032 710000 1                  TRA     s:25+2

       82       25    1   DFA$DLCT: ENTRY ALTRET;

     25  1 000030   000000 700200 xent  DFA$DLCT     TSX0  ! X66_AUTO_N
         1 000031   000014 000010                    ZERO    12,8
         1 000032   000035 710000 1                  TRA     s:26+2

       83       26    1   DFA$DUMP: ENTRY ALTRET;

     26  1 000033   000000 700200 xent  DFA$DUMP     TSX0  ! X66_AUTO_N
PL6.E3A0      #002=DXH$DUMMYA File=DXH$DUMMY.:E05TSI                             TUE 07/29/97 15:11 Page:28
         1 000034   000014 000010                    ZERO    12,8
         1 000035   000040 710000 1                  TRA     s:27+2

       84       27    1   DFA$GO: ENTRY( D1 ) ALTRET;

     27  1 000036   000000 700200 xent  DFA$GO       TSX0  ! X66_AUTO_N
         1 000037   000014 000010                    ZERO    12,8
         1 000040   000043 710000 1                  TRA     s:28+2

       85       28    1   DFA$KEEP: ENTRY ALTRET;

     28  1 000041   000000 700200 xent  DFA$KEEP     TSX0  ! X66_AUTO_N
         1 000042   000014 000010                    ZERO    12,8
         1 000043   000046 710000 1                  TRA     s:29+2

       86       29    1   DFA$LET: ENTRY ALTRET;

     29  1 000044   000000 700200 xent  DFA$LET      TSX0  ! X66_AUTO_N
         1 000045   000014 000010                    ZERO    12,8
         1 000046   000051 710000 1                  TRA     s:30+2

       87       30    1   DFA$MLCT: ENTRY ALTRET;

     30  1 000047   000000 700200 xent  DFA$MLCT     TSX0  ! X66_AUTO_N
         1 000050   000014 000010                    ZERO    12,8
         1 000051   000054 710000 1                  TRA     s:31+2

       88       31    1   DFA$MLCT_ACTIVE: ENTRY ALTRET;

     31  1 000052   000000 700200 xent  DFA$MLCT_AC* TSX0  ! X66_AUTO_N
         1 000053   000014 000010                    ZERO    12,8
         1 000054   000057 710000 1                  TRA     s:32+2

       89       32    1   DFA$ONCALL: ENTRY( D1, D2, D3 ) ALTRET;

     32  1 000055   000000 700200 xent  DFA$ONCALL   TSX0  ! X66_AUTO_N
         1 000056   000014 000010                    ZERO    12,8
PL6.E3A0      #002=DXH$DUMMYA File=DXH$DUMMY.:E05TSI                             TUE 07/29/97 15:11 Page:29
         1 000057   000062 710000 1                  TRA     s:33+2

       90       33    1   DFA$ONCALLS: ENTRY( D1, D2, D3 ) ALTRET;

     33  1 000060   000000 700200 xent  DFA$ONCALLS  TSX0  ! X66_AUTO_N
         1 000061   000014 000010                    ZERO    12,8
         1 000062   000065 710000 1                  TRA     s:34+2

       91       34    1   DFA$QUIT: ENTRY( D1 ) ALTRET;

     34  1 000063   000000 700200 xent  DFA$QUIT     TSX0  ! X66_AUTO_N
         1 000064   000014 000010                    ZERO    12,8
         1 000065   000070 710000 1                  TRA     s:35+2

       92       35    1   DFA$SETUP_FPRG: ENTRY( D1, D2, D3, D4 ) ALTRET;

     35  1 000066   000000 700200 xent  DFA$SETUP_F* TSX0  ! X66_AUTO_N
         1 000067   000014 000010                    ZERO    12,8
         1 000070   000073 710000 1                  TRA     s:36+2

       93       36    1   DFA$SET_AT: ENTRY( D1, D2, D3 ) ALTRET;

     36  1 000071   000000 700200 xent  DFA$SET_AT   TSX0  ! X66_AUTO_N
         1 000072   000014 000010                    ZERO    12,8
         1 000073   000076 710000 1                  TRA     s:37+2

       94       37    1   DFA$STEP: ENTRY( D1, D2 ) ALTRET;

     37  1 000074   000000 700200 xent  DFA$STEP     TSX0  ! X66_AUTO_N
         1 000075   000014 000010                    ZERO    12,8
         1 000076   000101 710000 1                  TRA     s:38+2

       95       38    1   DFA$STOP_FPRGS: ENTRY(D1, D2) ALTRET;

     38  1 000077   000000 700200 xent  DFA$STOP_FP* TSX0  ! X66_AUTO_N
         1 000100   000014 000010                    ZERO    12,8
         1 000101   000104 710000 1                  TRA     s:39+2
PL6.E3A0      #002=DXH$DUMMYA File=DXH$DUMMY.:E05TSI                             TUE 07/29/97 15:11 Page:30

       96       39    1   DFA$TSA: ENTRY ALTRET;

     39  1 000102   000000 700200 xent  DFA$TSA      TSX0  ! X66_AUTO_N
         1 000103   000014 000010                    ZERO    12,8
         1 000104   000107 710000 1                  TRA     s:40+2

       97       40    1   DFA$TRACE_REPORT: ENTRY ALTRET;

     40  1 000105   000000 700200 xent  DFA$TRACE_R* TSX0  ! X66_AUTO_N
         1 000106   000014 000010                    ZERO    12,8
         1 000107   000112 710000 1                  TRA     s:41+2

       98       41    1   DFA$UNFID: ENTRY ALTRET;

     41  1 000110   000000 700200 xent  DFA$UNFID    TSX0  ! X66_AUTO_N
         1 000111   000014 000010                    ZERO    12,8
         1 000112   000115 710000 1                  TRA     s:42+2

       99       42    1   DFK$EVAL: ENTRY( D1, D2, D3, D4, D5, D6, D7, D8 ) ALTRET;

     42  1 000113   000000 700200 xent  DFK$EVAL     TSX0  ! X66_AUTO_N
         1 000114   000014 000010                    ZERO    12,8
         1 000115   000120 710000 1                  TRA     s:43+2

      100       43    1   DFK$EVAL_DISP: ENTRY( D1, D2, D3, D4, D5, D6, D7, D8 ) ALTRET;

     43  1 000116   000000 700200 xent  DFK$EVAL_DI* TSX0  ! X66_AUTO_N
         1 000117   000014 000010                    ZERO    12,8
         1 000120   000123 710000 1                  TRA     s:44+2

      101       44    1   DFK$GETMVAL: ENTRY( D1, D2, D3, D4, D5, D6 ) ALTRET;

     44  1 000121   000000 700200 xent  DFK$GETMVAL  TSX0  ! X66_AUTO_N
         1 000122   000014 000010                    ZERO    12,8
         1 000123   000126 710000 1                  TRA     s:45+2

PL6.E3A0      #002=DXH$DUMMYA File=DXH$DUMMY.:E05TSI                             TUE 07/29/97 15:11 Page:31
      102       45    1   DFK$PUTMVAL: ENTRY( D1, D2, D3, D4, D5, D6 ) ALTRET;

     45  1 000124   000000 700200 xent  DFK$PUTMVAL  TSX0  ! X66_AUTO_N
         1 000125   000014 000010                    ZERO    12,8
         1 000126   000131 710000 1                  TRA     s:46+2

      103       46    1   DFQ$READ_FD: ENTRY( D1, D2 ) ALTRET;

     46  1 000127   000000 700200 xent  DFQ$READ_FD  TSX0  ! X66_AUTO_N
         1 000130   000014 000010                    ZERO    12,8
         1 000131   000134 710000 1                  TRA     s:47+2

      104       47    1   DFQ$WRITE_FD: ENTRY( D1 ) ALTRET;

     47  1 000132   000000 700200 xent  DFQ$WRITE_FD TSX0  ! X66_AUTO_N
         1 000133   000014 000010                    ZERO    12,8
         1 000134   000137 710000 1                  TRA     s:48+2

      105       48    1   DFR$HEXBIN: ENTRY( D1, D2 ) ALTRET;

     48  1 000135   000000 700200 xent  DFR$HEXBIN   TSX0  ! X66_AUTO_N
         1 000136   000014 000010                    ZERO    12,8
         1 000137   000142 710000 1                  TRA     s:49+2

      106       49    1   DFR$INSTR: ENTRY( D1, D2, D3, D4 ) ALTRET;

     49  1 000140   000000 700200 xent  DFR$INSTR    TSX0  ! X66_AUTO_N
         1 000141   000014 000010                    ZERO    12,8
         1 000142   000145 710000 1                  TRA     s:50+2

      107       50    1   DFS$INSTR: ENTRY( D1, D2, D3, D4 ) ALTRET;

     50  1 000143   000000 700200 xent  DFS$INSTR    TSX0  ! X66_AUTO_N
         1 000144   000014 000010                    ZERO    12,8
         1 000145   000150 710000 1                  TRA     s:51+2

      108       51    1   DUI$RU_ACCESS: ENTRY ALTRET;
PL6.E3A0      #002=DXH$DUMMYA File=DXH$DUMMY.:E05TSI                             TUE 07/29/97 15:11 Page:32

     51  1 000146   000000 700200 xent  DUI$RU_ACCE* TSX0  ! X66_AUTO_N
         1 000147   000014 000010                    ZERO    12,8
         1 000150   000153 710000 1                  TRA     s:52+2

      109       52    1   DUA$WHEN: ENTRY ALTRET;

     52  1 000151   000000 700200 xent  DUA$WHEN     TSX0  ! X66_AUTO_N
         1 000152   000014 000010                    ZERO    12,8
         1 000153   000156 710000 1                  TRA     s:53+2

      110       53    1   DUA$WHENIN: ENTRY ALTRET;

     53  1 000154   000000 700200 xent  DUA$WHENIN   TSX0  ! X66_AUTO_N
         1 000155   000014 000010                    ZERO    12,8
         1 000156   000161 710000 1                  TRA     s:54+2

      111       54    1   DUA$WHENOUT: ENTRY(D1) ALTRET;

     54  1 000157   000000 700200 xent  DUA$WHENOUT  TSX0  ! X66_AUTO_N
         1 000160   000014 000010                    ZERO    12,8
         1 000161   000164 710000 1                  TRA     s:55+2

      112       55    1   DUA$UNFID: ENTRY(D1,D2,D3) ALTRET;

     55  1 000162   000000 700200 xent  DUA$UNFID    TSX0  ! X66_AUTO_N
         1 000163   000014 000010                    ZERO    12,8
         1 000164   000167 710000 1                  TRA     s:56+2

      113       56    1   DUA$ALIB: ENTRY( D1, D2 ) ALTRET;

     56  1 000165   000000 700200 xent  DUA$ALIB     TSX0  ! X66_AUTO_N
         1 000166   000014 000010                    ZERO    12,8
         1 000167   000172 710000 1                  TRA     s:57+2

      114       57    1   DUL$GETVP2: ENTRY(D1, D2, D3) ALTRET;

PL6.E3A0      #002=DXH$DUMMYA File=DXH$DUMMY.:E05TSI                             TUE 07/29/97 15:11 Page:33
     57  1 000170   000000 700200 xent  DUL$GETVP2   TSX0  ! X66_AUTO_N
         1 000171   000014 000010                    ZERO    12,8
         1 000172   000175 710000 1                  TRA     s:58+2

      115       58    1   DUA$ANLZ: ENTRY ALTRET;

     58  1 000173   000000 700200 xent  DUA$ANLZ     TSX0  ! X66_AUTO_N
         1 000174   000014 000010                    ZERO    12,8
         1 000175   000200 710000 1                  TRA     s:59+2

      116       59    1   DUA$CLOSEDUMP: ENTRY ALTRET;

     59  1 000176   000000 700200 xent  DUA$CLOSEDU* TSX0  ! X66_AUTO_N
         1 000177   000014 000010                    ZERO    12,8
         1 000200   000203 710000 1                  TRA     s:60+2

      117       60    1   DUA$KILL_ANLZ: ENTRY ALTRET;

     60  1 000201   000000 700200 xent  DUA$KILL_AN* TSX0  ! X66_AUTO_N
         1 000202   000014 000010                    ZERO    12,8
         1 000203   000206 710000 1                  TRA     s:61+2

      118       61    1   DUA$OUTPUT: ENTRY( D1, D2, D3,D4 ) ALTRET;

     61  1 000204   000000 700200 xent  DUA$OUTPUT   TSX0  ! X66_AUTO_N
         1 000205   000014 000010                    ZERO    12,8
         1 000206   000211 710000 1                  TRA     s:62+2

      119       62    1   DUA$READ: ENTRY( D1 ) ALTRET;

     62  1 000207   000000 700200 xent  DUA$READ     TSX0  ! X66_AUTO_N
         1 000210   000014 000010                    ZERO    12,8
         1 000211   000214 710000 1                  TRA     s:63+2

      120       63    1   DUA$SHOW_ANLZ: ENTRY ALTRET;

     63  1 000212   000000 700200 xent  DUA$SHOW_AN* TSX0  ! X66_AUTO_N
PL6.E3A0      #002=DXH$DUMMYA File=DXH$DUMMY.:E05TSI                             TUE 07/29/97 15:11 Page:34
         1 000213   000014 000010                    ZERO    12,8
         1 000214   000217 710000 1                  TRA     s:64+2

      121       64    1   DUI$1STIME: ENTRY ALTRET;

     64  1 000215   000000 700200 xent  DUI$1STIME   TSX0  ! X66_AUTO_N
         1 000216   000014 000010                    ZERO    12,8
         1 000217   000222 710000 1                  TRA     s:65+2

      122       65    1   DUL$GETMVAL: ENTRY( D1, D2, D3, D4, D5 ) ALTRET;

     65  1 000220   000000 700200 xent  DUL$GETMVAL  TSX0  ! X66_AUTO_N
         1 000221   000014 000010                    ZERO    12,8
         1 000222   000225 710000 1                  TRA     s:66+2

      123       66    1   DUL$USE: ENTRY( D1, D2, D3, D4 ) ALTRET;

     66  1 000223   000000 700200 xent  DUL$USE      TSX0  ! X66_AUTO_N
         1 000224   000014 000010                    ZERO    12,8
         1 000225   000230 710000 1                  TRA     s:67+2

      124       67    1   DUU$GETMVAL: ENTRY (D1,D2,D3,D4,D5,D6) ALTRET;

     67  1 000226   000000 700200 xent  DUU$GETMVAL  TSX0  ! X66_AUTO_N
         1 000227   000014 000010                    ZERO    12,8
         1 000230   000233 710000 1                  TRA     s:70

      125       68    1   DUU$PUTMVAL: ENTRY (D1,D2,D3,D4,D5,D6) ALTRET;

     68  1 000231   000000 700200 xent  DUU$PUTMVAL  TSX0  ! X66_AUTO_N
         1 000232   000014 000010                    ZERO    12,8

      126       69                                                /**/
      127       70    1        RETURN;

     70  1 000233   000000 702200 xent               TSX2  ! X66_ARET

PL6.E3A0      #002=DXH$DUMMYA File=DXH$DUMMY.:E05TSI                             TUE 07/29/97 15:11 Page:35
      128       71
      129       72    1   DFR$UTSTIME: ENTRY (D1,D2) ALTRET;

     72  1 000234   000000 700200 xent  DFR$UTSTIME  TSX0  ! X66_AUTO_N
         1 000235   000014 000010                    ZERO    12,8

      130       73    1        D2 = '**:**:**.** **/**/**';

     73  1 000236   200004 470500                    LDP0    @D2,,AUTO
         1 000237   040100 100400                    MLR     fill='040'O
         1 000240   000000 000024 0                  ADSC9   0                        cn=0,n=20
         1 000241   000000 000024                    ADSC9   0,,PR0                   cn=0,n=20

      131       74    1        RETURN;

     74  1 000242   000000 702200 xent               TSX2  ! X66_ARET

(unnamed)
 Sect OctLoc
   0     000   052052 072052   052072 052052   056052 052040   052052 057052    **:**:**.** **/*
   0     004   052057 052052                                                    */**
      132       75                                                /**/
      133       76    1   END DXH$DUMMYA;
      134       77        %EOD;

PL6.E3A0      #002=DXH$DUMMYA File=DXH$DUMMY.:E05TSI                             TUE 07/29/97 15:11 Page:36
--  Include file information  --

   B$JIT_C.:E05TOU  was found in the system file and is never referenced.
   CP_6_C.:E05TOU  was found in the system file and is never referenced.
      No diagnostics issued in procedure DXH$DUMMYA.

   Procedure DXH$DUMMYA requires 163 words for executable code.
   Procedure DXH$DUMMYA requires 12 words of local(AUTO) storage.
PL6.E3A0      #002=DXH$DUMMYA File=DXH$DUMMY.:E05TSI                             TUE 07/29/97 15:11 Page:37
          *** CROSS REFERENCE LISTING ***
**     DENOTES     IDENTIFIER DEFINITION
<<                 IDENTIFIER'S VALUE SET
>>                 IDENTIFIER'S VALUE USED
<>                 IDENTIFIER SET AND/OR USED
--                 IDENTIFIER REFERENCED
PL6.E3A0      #002=DXH$DUMMYA File=DXH$DUMMY.:E05TSI                             TUE 07/29/97 15:11 Page:38
          MINI XREF LISTING

D1
         9**DCL         7--PROC       19--ENTRY      20--ENTRY      21--ENTRY      27--ENTRY      32--ENTRY
        33--ENTRY      34--ENTRY      35--ENTRY      36--ENTRY      37--ENTRY      38--ENTRY      42--ENTRY
        43--ENTRY      44--ENTRY      45--ENTRY      46--ENTRY      47--ENTRY      48--ENTRY      49--ENTRY
        50--ENTRY      54--ENTRY      55--ENTRY      56--ENTRY      57--ENTRY      61--ENTRY      62--ENTRY
        65--ENTRY      66--ENTRY      67--ENTRY      68--ENTRY      72--ENTRY
D2
        10**DCL         7--PROC       19--ENTRY      20--ENTRY      21--ENTRY      32--ENTRY      33--ENTRY
        35--ENTRY      36--ENTRY      37--ENTRY      38--ENTRY      42--ENTRY      43--ENTRY      44--ENTRY
        45--ENTRY      46--ENTRY      48--ENTRY      49--ENTRY      50--ENTRY      55--ENTRY      56--ENTRY
        57--ENTRY      61--ENTRY      65--ENTRY      66--ENTRY      67--ENTRY      68--ENTRY      72--ENTRY
        73<<ASSIGN
D3
        11**DCL         7--PROC       19--ENTRY      20--ENTRY      21--ENTRY      32--ENTRY      33--ENTRY
        35--ENTRY      36--ENTRY      42--ENTRY      43--ENTRY      44--ENTRY      45--ENTRY      49--ENTRY
        50--ENTRY      55--ENTRY      57--ENTRY      61--ENTRY      65--ENTRY      66--ENTRY      67--ENTRY
        68--ENTRY
D4
        12**DCL         7--PROC       21--ENTRY      35--ENTRY      42--ENTRY      43--ENTRY      44--ENTRY
        45--ENTRY      49--ENTRY      50--ENTRY      61--ENTRY      65--ENTRY      66--ENTRY      67--ENTRY
        68--ENTRY
D5
        13**DCL         7--PROC       21--ENTRY      42--ENTRY      43--ENTRY      44--ENTRY      45--ENTRY
        65--ENTRY      67--ENTRY      68--ENTRY
D6
        14**DCL         7--PROC       42--ENTRY      43--ENTRY      44--ENTRY      45--ENTRY      67--ENTRY
        68--ENTRY
D7
        15**DCL         7--PROC       42--ENTRY      43--ENTRY
D8
        16**DCL         7--PROC       42--ENTRY      43--ENTRY
PL6.E3A0      #002=DXH$DUMMYA File=DXH$DUMMY.:E05TSI                             TUE 07/29/97 15:11 Page:39
              *** CROSS REFERENCE LISTING ***
    **     DENOTES     IDENTIFIER DEFINITION
    <<                 IDENTIFIER'S VALUE SET
    >>                 IDENTIFIER'S VALUE USED
    <>                 IDENTIFIER SET AND/OR USED
    --                 IDENTIFIER REFERENCED
PL6.E3A0      #002=DXH$DUMMYA File=DXH$DUMMY.:E05TSI                             TUE 07/29/97 15:11 Page:40
              MINI UREF LISTING

DDA$UPDATE      18**ENTRY
DDM$GETMEM      19**ENTRY
DDM$PUTMEM      20**ENTRY
DDQ$WRITELM      21**ENTRY
DDS$EMTREE      22**ENTRY
DDS$EUTREE      23**ENTRY
DFA$DFMT      24**ENTRY
DFA$DLCT      25**ENTRY
DFA$DUMP      26**ENTRY
DFA$GO      27**ENTRY
DFA$KEEP      28**ENTRY
DFA$LET      29**ENTRY
DFA$MLCT      30**ENTRY
DFA$MLCT_ACTIVE      31**ENTRY
DFA$ONCALL      32**ENTRY
DFA$ONCALLS      33**ENTRY
DFA$QUIT      34**ENTRY
DFA$SETUP_FPRG      35**ENTRY
DFA$SET_AT      36**ENTRY
DFA$STEP      37**ENTRY
DFA$STOP_FPRGS      38**ENTRY
DFA$TRACE_REPORT      40**ENTRY
DFA$TSA      39**ENTRY
DFA$UNFID      41**ENTRY
DFK$EVAL      42**ENTRY
DFK$EVAL_DISP      43**ENTRY
DFK$GETMVAL      44**ENTRY
DFK$PUTMVAL      45**ENTRY
DFQ$READ_FD      46**ENTRY
DFQ$WRITE_FD      47**ENTRY
DFR$HEXBIN      48**ENTRY
DFR$INSTR      49**ENTRY
PL6.E3A0      #002=DXH$DUMMYA File=DXH$DUMMY.:E05TSI                             TUE 07/29/97 15:11 Page:41
DFR$UTSTIME      72**ENTRY
DFS$INSTR      50**ENTRY
DUA$ALIB      56**ENTRY
DUA$ANLZ      58**ENTRY
DUA$CLOSEDUMP      59**ENTRY
DUA$KILL_ANLZ      60**ENTRY
DUA$OUTPUT      61**ENTRY
DUA$READ      62**ENTRY
DUA$SHOW_ANLZ      63**ENTRY
DUA$UNFID      55**ENTRY
DUA$WHEN      52**ENTRY
DUA$WHENIN      53**ENTRY
DUA$WHENOUT      54**ENTRY
DUI$1STIME      64**ENTRY
DUI$RU_ACCESS      51**ENTRY
DUL$GETMVAL      65**ENTRY
DUL$GETVP2      57**ENTRY
DUL$USE      66**ENTRY
DUU$GETMVAL      67**ENTRY
DUU$PUTMVAL      68**ENTRY
DXH$DUMMYA       7**PROC

PL6.E3A0      #003=DFA$FORMAT File=DXH$DUMMY.:E05TSI                             TUE 07/29/97 15:11 Page:42
      135        1        /*T***********************************************************/
      136        2        /*T*                                                         */
      137        3        /*T* Copyright (c) Bull HN Information Systems Inc., 1997    */
      138        4        /*T*                                                         */
      139        5        /*T***********************************************************/
      140        6        DFA$FORMAT: PROC (FMT,V1,V2,V3,V4,V5,V6,V7,V8,V9,V10,V11,V12,V13,V14,V15,V16,V17,V18
                 6            ,V19,V20);
      141        7    1   DCL FMT VECTOR;
      142        8    1   DCL V1  VECTOR;
      143        9    1   DCL V2  VECTOR;
      144       10    1   DCL V3  VECTOR;
      145       11    1   DCL V4  VECTOR;
      146       12    1   DCL V5  VECTOR;
      147       13    1   DCL V6  VECTOR;
      148       14    1   DCL V7  VECTOR;
      149       15    1   DCL V8  VECTOR;
      150       16    1   DCL V9  VECTOR;
      151       17    1   DCL V10 VECTOR;
      152       18    1   DCL V11 VECTOR;
      153       19    1   DCL V12 VECTOR;
      154       20    1   DCL V13 VECTOR;
      155       21    1   DCL V14 VECTOR;
      156       22    1   DCL V15 VECTOR;
      157       23    1   DCL V16 VECTOR;
      158       24    1   DCL V17 VECTOR;
      159       25    1   DCL V18 VECTOR;
      160       26    1   DCL V19 VECTOR;
      161       27    1   DCL V20 VECTOR;
      162       28
      163       29    1   RETURN;
      164       30
      165       31    1   END DFA$FORMAT;

PL6.E3A0      #003=DFA$FORMAT File=DXH$DUMMY.:E05TSI                             TUE 07/29/97 15:11 Page:43
--  Include file information  --

   B$JIT_C.:E05TOU  was found in the system file and is never referenced.
   CP_6_C.:E05TOU  was found in the system file and is never referenced.
      No diagnostics issued in procedure DFA$FORMAT.

   Procedure DFA$FORMAT requires 3 words for executable code.
   Procedure DFA$FORMAT requires 24 words of local(AUTO) storage.

    No errors detected in file DXH$DUMMY.:E05TSI    .

PL6.E3A0      #003=DFA$FORMAT File=DXH$DUMMY.:E05TSI                             TUE 07/29/97 15:11 Page:44

 Object Unit name= DFA$FORMAT                                 File name= DXH$DUMMY.:E05TOU
 UTS= JUL 29 '97 15:11:38.08 TUE                              Compiler= PL-6/E31         Sev=      00
 SharedLib= :SHARED_SYSTEM                                    Alt SharedLib=


    ****  Control sections  ****

 Sect   Type Bound  Init  Size OctSiz  Section name(segment info)
    0   Proc  even  none     3      3  DFA$FORMAT

    ****  Entry defs  ****

                              Check   Calling
                             calling  sequence
  Sect OctLoc Primary Altret sequence   type   Parms  Name
     0      0   yes            yes      Std       21  DFA$FORMAT

  ****  Entry refs  ****

         Check        Calling
        calling       sequence
Altret sequence SRef   type   Args  Name
                       nStd      0 X66_AUTO_N
                       nStd      0 X66_ARET
PL6.E3A0      #003=DFA$FORMAT File=DXH$DUMMY.:E05TSI                             TUE 07/29/97 15:11 Page:45


      135        1        /*T***********************************************************/
      136        2        /*T*                                                         */
      137        3        /*T* Copyright (c) Bull HN Information Systems Inc., 1997    */
      138        4        /*T*                                                         */
      139        5        /*T***********************************************************/
      140        6       DFA$FORMAT: PROC (FMT,V1,V2,V3,V4,V5,V6,V7,V8,V9,V10,V11,V12,V13,V14,V15,V16,V17,V18
                 6            ,V19,V20);

      6  0 000000   000000 700200 xent  DFA$FORMAT   TSX0  ! X66_AUTO_N
         0 000001   000030 000025                    ZERO    24,21

      141        7    1   DCL FMT VECTOR;
      142        8    1   DCL V1  VECTOR;
      143        9    1   DCL V2  VECTOR;
      144       10    1   DCL V3  VECTOR;
      145       11    1   DCL V4  VECTOR;
      146       12    1   DCL V5  VECTOR;
      147       13    1   DCL V6  VECTOR;
      148       14    1   DCL V7  VECTOR;
      149       15    1   DCL V8  VECTOR;
      150       16    1   DCL V9  VECTOR;
      151       17    1   DCL V10 VECTOR;
      152       18    1   DCL V11 VECTOR;
      153       19    1   DCL V12 VECTOR;
      154       20    1   DCL V13 VECTOR;
      155       21    1   DCL V14 VECTOR;
      156       22    1   DCL V15 VECTOR;
      157       23    1   DCL V16 VECTOR;
      158       24    1   DCL V17 VECTOR;
      159       25    1   DCL V18 VECTOR;
      160       26    1   DCL V19 VECTOR;
      161       27    1   DCL V20 VECTOR;
      162       28
      163       29    1   RETURN;

     29  0 000002   000000 702200 xent               TSX2  ! X66_ARET
PL6.E3A0      #003=DFA$FORMAT File=DXH$DUMMY.:E05TSI                             TUE 07/29/97 15:11 Page:46
      164       30
      165       31    1   END DFA$FORMAT;

PL6.E3A0      #003=DFA$FORMAT File=DXH$DUMMY.:E05TSI                             TUE 07/29/97 15:11 Page:47
--  Include file information  --

   B$JIT_C.:E05TOU  was found in the system file and is never referenced.
   CP_6_C.:E05TOU  was found in the system file and is never referenced.
      No diagnostics issued in procedure DFA$FORMAT.

   Procedure DFA$FORMAT requires 3 words for executable code.
   Procedure DFA$FORMAT requires 24 words of local(AUTO) storage.

    No errors detected in file DXH$DUMMY.:E05TSI    .
PL6.E3A0      #003=DFA$FORMAT File=DXH$DUMMY.:E05TSI                             TUE 07/29/97 15:11 Page:48
          *** CROSS REFERENCE LISTING ***
**     DENOTES     IDENTIFIER DEFINITION
<<                 IDENTIFIER'S VALUE SET
>>                 IDENTIFIER'S VALUE USED
<>                 IDENTIFIER SET AND/OR USED
--                 IDENTIFIER REFERENCED
PL6.E3A0      #003=DFA$FORMAT File=DXH$DUMMY.:E05TSI                             TUE 07/29/97 15:11 Page:49
          MINI XREF LISTING

FMT
         7**DCL         6--PROC
V1
         8**DCL         6--PROC
V10
        17**DCL         6--PROC
V11
        18**DCL         6--PROC
V12
        19**DCL         6--PROC
V13
        20**DCL         6--PROC
V14
        21**DCL         6--PROC
V15
        22**DCL         6--PROC
V16
        23**DCL         6--PROC
V17
        24**DCL         6--PROC
V18
        25**DCL         6--PROC
V19
        26**DCL         6--PROC
V2
         9**DCL         6--PROC
V20
        27**DCL         6--PROC
V3
        10**DCL         6--PROC
V4
        11**DCL         6--PROC
PL6.E3A0      #003=DFA$FORMAT File=DXH$DUMMY.:E05TSI                             TUE 07/29/97 15:11 Page:50
V5
        12**DCL         6--PROC
V6
        13**DCL         6--PROC
V7
        14**DCL         6--PROC
V8
        15**DCL         6--PROC
V9
        16**DCL         6--PROC
PL6.E3A0      #003=DFA$FORMAT File=DXH$DUMMY.:E05TSI                             TUE 07/29/97 15:11 Page:51
              *** CROSS REFERENCE LISTING ***
    **     DENOTES     IDENTIFIER DEFINITION
    <<                 IDENTIFIER'S VALUE SET
    >>                 IDENTIFIER'S VALUE USED
    <>                 IDENTIFIER SET AND/OR USED
    --                 IDENTIFIER REFERENCED
PL6.E3A0      #003=DFA$FORMAT File=DXH$DUMMY.:E05TSI                             TUE 07/29/97 15:11 Page:52
              MINI UREF LISTING

DFA$FORMAT       6**PROC
