VERSION E05

PL6.E3A0      #001=DXI$1STIME File=DXI$1STIME.:E05TSI                            TUE 07/29/97 15:11 Page:1
        1        1        /*M* DXI$1STIME First time initialization for Exec Delta. */
        2        2        /*T***********************************************************/
        3        3        /*T*                                                         */
        4        4        /*T* Copyright (c) Bull HN Information Systems Inc., 1997    */
        5        5        /*T*                                                         */
        6        6        /*T***********************************************************/
        7        7        /*X* DMR,PLM=5,IND=5,CSU=3,EXM=0,ECU=3,MOC,DCI=5,CRT=5 */
        8        8        %SET LISTSUB='1'B;
        9        9        /*F* NAME: DXI$1STIME
       10       10             PURPOSE: To perform first time through initialization for Xdelta.
       11       11             DESCRIPTION: Initializes S_D, initial device assignments, USE frame,
       12       12                          access to program DEFs, access to special location, Monitor
       13       13                          USE frame, default schema access, and reports Xdelta
       14       14                          here. */
       15       15                                                /**/
       16       16        DXI$1STIME: PROC;
       17       17                                                /**/
       18       18        %INCLUDE DD_SUBS_C;
       19      289        %INCLUDE DD_PSUBS_C;
       20      764        %INCLUDE DD_ERR_C;
       21     1161        %INCLUDE DD_REPORT_R;
       22     1170        %INCLUDE XU_SUBS_C;
       23     1262        %INCLUDE B_STRINGS_C;
       24     1391        %INCLUDE B$OBJECT_C;
       25     4821        %SUB @REGS= 40 /* @REGS */;
       26     4822        %SUB @IND= 4 /* @IND */;
       27     4823        %INCLUDE DD$DITEM;
       12+    4926             %LIST;
       13+    4927    1        DCL SDD$ PTR;
       14+    4928    1        DCL ZITEM$ PTR;
       15+    4929    1        DCL SDD_L6$ PTR;
       16+    4930    1        DCL ZITEM_L6$ PTR;
       28     5504    1   DCL TEMP$ PTR;
       29     5505    1   DCL TEMP_END$ PTR;
       30     5506    1   DCL SAVEIC UBIN;
       31     5507    1   DCL 1 NWORD,
       32     5508    1         2 ISADDR UBIN HALF ALIGNED;
PL6.E3A0      #001=DXI$1STIME File=DXI$1STIME.:E05TSI                            TUE 07/29/97 15:11 Page:2
       33     5509        %B$EDEF;
       34     5579        %B$SDEF;
       35     5633        %COMPILERIDSUBS;
       36     5649    1   DCL 1 SP CONSTANT,
       37     5650    1         2 SIZE UBIN BYTE UNAL INIT( LENGTHC( SP.TEXT ) ),
       38     5651    1         2 TEXT CHAR(0) UNAL INIT( 'B_XDELTA' );
       39     5652    1   DCL SP$ PTR CONSTANT INIT( ADDR( SP ) );
       40     5653    1   DCL 1 DD_XOU CONSTANT SYMDEF,
       41     5654    1         2 SIZE UBIN BYTE UNAL INIT( LENGTHC( DD_XOU.TEXT ) ),
       42     5655    1         2 TEXT CHAR(0) UNAL INIT( 'B_DELTA_D' );
       43     5656    1   DCL DD_XOU$ PTR CONSTANT SYMDEF INIT( ADDR( DD_XOU ) );
       44     5657    1   DCL 1 H_XDELTAS CONSTANT,
       45     5658    1         2 SIZE UBIN BYTE UNAL INIT(LENGTHC(H_XDELTAS.TEXT)),
       46     5659    1         2 TEXT CHAR(0) INIT('H_XDELTA');
       47     5660    1   DCL H_XDELTA$ PTR CONSTANT INIT(ADDR(H_XDELTAS));
       48     5661    1   DCL H_XDELTA UBIN SYMREF;
       49     5662    1   DCL 1 IRM_NOKP_SCRS CONSTANT,
       50     5663    1         2 SIZE UBIN BYTE UNAL INIT(LENGTHC(IRM_NOKP_SCRS.TEXT)),
       51     5664    1         2 TEXT CHAR(0) INIT('IRM_NOKP_SCR');
       52     5665    1   DCL 1 IRM_NOKP_SCR$ PTR CONSTANT INIT(ADDR(IRM_NOKP_SCRS));
       53     5666    1   DCL IRM_NOKP_SCR UBIN SYMREF;
       54     5667    1   DCL 1 B_PATCHIH CONSTANT,
       55     5668    1         2 SIZE UBIN BYTE UNAL INIT(LENGTHC(B_PATCHIH.TEXT)),
       56     5669    1         2 TEXT CHAR(0) INIT('B_PATCHIH');
       57     5670    1   DCL 1 B_PATCHDH CONSTANT,
       58     5671    1         2 SIZE UBIN BYTE UNAL INIT(LENGTHC(B_PATCHDH.TEXT)),
       59     5672    1         2 TEXT CHAR(0) INIT('B_PATCHDH');
       60     5673    1   DCL B_PATCHIH$ PTR CONSTANT INIT(ADDR(B_PATCHIH));
       61     5674    1   DCL B_PATCHDH$ PTR CONSTANT INIT(ADDR(B_PATCHDH));
       62     5675    1   DCL 1 B$U_SYM CONSTANT,
       63     5676    1         2 SIZE UBIN BYTE UNAL INIT(LENGTHC(B$U_SYM.TEXT)),
       64     5677    1         2 TEXT CHAR(0) INIT('B$USRT$');
       65     5678    1   DCL B$U_SYM$ PTR CONSTANT INIT(ADDR(B$U_SYM));
       66     5679    1   DCL 1 S_CNODE_SYM CONSTANT,
       67     5680    1         2 SIZE UBIN BYTE UNAL INIT(LENGTHC(S_CNODE_SYM.TEXT)),
       68     5681    1         2 TEXT CHAR(0) INIT('S_CNODE');
       69     5682    1   DCL S_CNODE_SYM$ PTR CONSTANT INIT(ADDR(S_CNODE_SYM));
PL6.E3A0      #001=DXI$1STIME File=DXI$1STIME.:E05TSI                            TUE 07/29/97 15:11 Page:3
       70     5683    1   DCL DD_DEBUG UBIN SYMREF;
       71     5684    1   DCL D_PARSIZE UBIN SYMREF;
       72     5685    1   DCL D_CPU_TYPE UBIN WORD ALIGNED SYMREF;
       73     5686    1   DCL DCTX_ME UBIN SYMREF;
       74     5687    1   DCL DCTX_LP UBIN SYMREF;
       75     5688    1   DCL DCTX_PATCH UBIN SYMREF;
       76     5689    1   DCL IN_DEV UBIN SYMREF;
       77     5690    1   DCL OUT_DEV UBIN SYMREF;
       78     5691    1   DCL OUT_DEV_SAVE UBIN SYMREF;
       79     5692    1   DCL ECHO_DEV UBIN SYMREF;
       80     5693    1   DCL DX_VARCOM$ PTR SYMREF;
       81     5694    1   DCL DX_VARCOM_HIGH$ PTR SYMREF;
       82     5695    1   DCL CNODE$ PTR SYMREF;
       83     5696    1   DCL DNAME$ PTR SYMREF;
       84     5697    1   DCL SCHEMA$ PTR SYMREF;
       85     5698    1   DCL AEDEF$ PTR SYMREF;
       86     5699    1   DCL ASDEF$ PTR SYMREF;
       87     5700    1   DCL ADNAME$ PTR SYMREF;
       88     5701    1   DCL ASCHEMA$ PTR SYMREF;
       89     5702    1   DCL D_SCHEMA$ PTR SYMREF;
       90     5703    1   DCL D_SYMBOLS BIT(1) ALIGNED SYMREF;
       91     5704    1   DCL D_B$USER UBIN SYMREF;
       92     5705    1   DCL D_ALTDOM UBIN WORD SYMREF;
       93     5706    1   DCL 1 D_XOU_NAME SYMREF,
       94     5707    1         2 SZ UBIN BYTE UNAL,
       95     5708    1         2 TX CHAR(31) UNAL;
       96     5709    1   DCL 1 D_AXOU_NAME SYMREF,
       97     5710    1         2 SZ UBIN BYTE UNAL,
       98     5711    1         2 TX CHAR(31) UNAL;
       99     5712    1   DCL D_EDEF_END$ PTR SYMREF;
      100     5713    1   DCL D_AEDEF_END$ PTR SYMREF;
      101     5714    1   DCL D_SDEF_END$ PTR SYMREF;
      102     5715    1   DCL D_ASDEF_END$ PTR SYMREF;
      103     5716    1   DCL MIS$ PTR SYMREF;
      104     5717    1   DCL MSL$ PTR SYMREF;
      105     5718    1   DCL XUSS$ PTR SYMREF;
      106     5719    1   DCL HISTBUF UBIN SYMREF;
PL6.E3A0      #001=DXI$1STIME File=DXI$1STIME.:E05TSI                            TUE 07/29/97 15:11 Page:4
      107     5720    1   DCL SAVEX0 SBIN SYMREF;
      108     5721    1   DCL USE$ PTR SYMREF;
      109     5722    1   DCL USE_ORIG$ PTR SYMREF;
      110     5723        /* Symrefs for SYNTAX command */
      111     5724        %INCLUDE XU_MACRO_C;
      112     8830        %INCLUDE DD_KNODES_D;
      113     9046        %NODE_DEFS(STCLASS=SYMREF);
      114     9435    1   DCL DD_SYN_PL6(0:0) PTR SYMREF READONLY;
      115     9436    1   DCL I SBIN;
      116     9437        %INCLUDE DD$BASED;
      117    10740        %DX$OUCNT;
      118    10745        %HIST_BUF;
      119    10754        %U$SE;
      120    10762    1   DCL DEFDIR$ PTR SYMREF;
      121    10763        %B$DEF;
      122    10775    1   DCL MPTR$ PTR;
      123    10776    1   DCL UBIN36$ PTR BASED;
      124    10777        %INCLUDE XUH_MACRO_C;
      125    10861        %INCLUDE DD_SD_M;
      126    12197        %S_D;
      127    13515    1   DCL DDE$ERROR ENTRY(0);
      128    13516    1   DCL DDR$REPORT ENTRY(1);
      129    13517    1   DCL DDS$ED_SRCH ENTRY(2) ALTRET;
      130    13518    1   DCL DDS$EQCS# ENTRY(1) ALTRET;
      131    13519    1   DCL DDS$PD_SRCH ENTRY(2) ALTRET;
      132    13520    1   DCL DDS$SD_SRCH ENTRY(2) ALTRET;
      133    13521    1   DCL DDS$SET_Q2X ENTRY(0) ALTRET;
      134    13522    1   DCL DDI$GET_PATCH_SPACE ENTRY;
      135    13523    1   DCL DXB$CUSE ENTRY;
      136    13524    1   DCL DXC$PTREND ENTRY(2) ALTRET;
      137    13525    1   DCL DDS$SET_Q2MX ENTRY ALTRET;
      138    13526    1   DCL DDS$SET_Q2AX ENTRY ALTRET;
      139    13527    1   DCL DUI$INIT_HOST ENTRY;
      140    13528    1   DCL DXA$GETMPTR ENTRY(2);
      141    13529                                                /**/
      142    13530    1        SAVEIC = S_D.SAVEIC;               /* DXC$ENTRY PUTS IT THERE */
      143    13531        /* Initialize S_D */
PL6.E3A0      #001=DXI$1STIME File=DXI$1STIME.:E05TSI                            TUE 07/29/97 15:11 Page:5
      144    13532    1        S_D = '0'B;
      145    13533    1        S_D.SAVEIC = SAVEIC;               /* Put it back */
      146    13534    1        S_D.HW_TYPE = D_CPU_TYPE;
      147    13535    2        DO CASE (S_D.HW_TYPE);
      148    13536    2          CASE (%L66);
      149    13537    2             S_D.HW_PTB_UNITS = 64;
      150    13538    2             S_D.HW_RES_MEM = '0'B;
      151    13539    2             S_D.HW_WSQ0PT = '0'B;
      152    13540    2             S_D.HW_FLTIC_OK = '0'B;
      153    13541    2          CASE (%DPS90);
      154    13542    2             S_D.HW_PTB_UNITS = 64;
      155    13543    2             S_D.HW_RES_MEM = '1'B;
      156    13544    2             S_D.HW_WSQ0PT = '1'B;
      157    13545    2             S_D.HW_FLTIC_OK = '1'B;
      158    13546    2          CASE (%DPS90XA);
      159    13547    2             S_D.HW_PTB_UNITS = 1024;
      160    13548    2             S_D.HW_RES_MEM = '1'B;
      161    13549    2             S_D.HW_WSQ0PT = '1'B;
      162    13550    2             S_D.HW_FLTIC_OK = '1'B;
      163    13551    2          CASE (%DPS8000);
      164    13552    2             S_D.HW_PTB_UNITS = 1024;
      165    13553    2             S_D.HW_RES_MEM = '0'B;
      166    13554    2             S_D.HW_WSQ0PT = '0'B;
      167    13555    2             S_D.HW_FLTIC_OK =        '0'B;/*?*/
      168    13556    2          END;
      169    13557    1        IF SAVEX0 < 0
      170    13558    1        THEN S_D.PATCH = '1'B;             /* Tape boot - here for patching only */
      171    13559    1        S_D.EWSQ# = %MONWSQ;     /* %MONWSQ - Fake everybody out the first time */
      172    13560    1        S_D.VARCOM$ = DX_VARCOM$;
      173    13561    1        S_D.VARCOM_HIGH$ = DX_VARCOM_HIGH$;
      174    13562    1        S_D.VARNEXT$ = S_D.VARCOM$;
      175    13563    1        S_D.FPRG_CONTEXT$ = ADDR(NIL);
      176    13564    1        S_D.SL$ = ADDR( NIL );
      177    13565    1        S_D.DNAME$ = ADDR( NIL );
      178    13566    1        S_D.EDEF$ = ADDR( NIL );
      179    13567    1        S_D.SDEF$ = ADDR( NIL );
      180    13568    1        S_D.LB0$ = ADDR( NIL );
PL6.E3A0      #001=DXI$1STIME File=DXI$1STIME.:E05TSI                            TUE 07/29/97 15:11 Page:6
      181    13569    1        S_D.TREE$ = ADDR ( NIL );
      182    13570    1        S_D.UTREE$ = ADDR ( NIL );
      183    13571    1        S_D.MTREE$ = ADDR ( NIL );
      184    13572    1        S_D.B$TREE$ = ADDR ( NIL );
      185    13573    1        S_D.B$TREEHDR$ = ADDR ( NIL );
      186    13574    1        S_D.DRTN$ = ADDR ( NIL );
      187    13575    1        S_D.SCHEMA = '1'B;
      188    13576    1        S_D.BYPASS = '1'B;
      189    13577    1        S_D.BYPASS_SAVE = '1'B;
      190    13578    1        S_D.OVERLAID = '1'B;
      191    13579    1        S_D.RANGE = BITBIN( '7777'O );
      192    13580    1        S_D.FIND.NUM = 17000000/*DD_BIGNUM*/;
      193    13581    1        S_D.FIND.MASK_F = -1;
      194    13582    1        S_D.SAD = -1;
      195    13583    1        S_D.UPROMPT = '>';
      196    13584    1        S_D.UPROMPT_SIZE = LENGTHC( '>' );
      197    13585    1        S_D.FMT_DEFAULT = %OCT_FMT;
      198    13586    1        S_D.EFMT_DEFAULT = %OCT_FMT;
      199    13587    1        S_D.L$.SIZE = 36;
      200    13588    1        S_D.L$.FMT = %OCT_FMT;
      201    13589    1        S_D.OUT_WIDTH = 79;
      202    13590    1        S_D.FAULTCMD$ = ADDR( NIL );
      203    13591    1        S_D.SLP1$ = ADDR( NIL );
      204    13592    1        S_D.ERROR_SYM$ = ADDR( NIL );
      205    13593    1        S_D.DEBUGF = DD_DEBUG;
      206    13594    1        S_D.PARSIZE = D_PARSIZE;
      207    13595    1        S_D.K$EEP.TYPE = 2;        /* KEEP_NONE */
      208    13596    1        S_D.USS$ = XUSS$;
      209    13597    1        S_D.UREG$ = PINCRW( XUSS$, 40 /* @REGS */ );
      210    13598    1        S_D.IND$ = PINCRW( XUSS$, 4 /* @IND */ );
      211    13599    1        S_D.HIST.START$ = ADDR(HISTBUF);   /* INIT HISTORY BUFFER PTRS */
      212    13600    1        S_D.HIST.CURR$ = ADDR(HISTBUF);
      213    13601    1        S_D.HIST.END$ = PINCRW(S_D.HIST.START$, 49*SIZEW(HIST_BUF));
             13601                 /* Point at the last entry */
      214    13602    1        S_D.HIST.EMPTY = '1'B;             /* MARK BUFFER AS EMPTY */
      215    13603    1        S_D.HIST.ACTIVE = '1'B;
      216    13604    1        S_D.S$TEP.MODE = 583;     /*C@STATEMENTS*/
PL6.E3A0      #001=DXI$1STIME File=DXI$1STIME.:E05TSI                            TUE 07/29/97 15:11 Page:7
      217    13605    1        CALL DUI$INIT_HOST;
      218    13606        /* Setup initial device assignments */
      219    13607    1        IF S_D.PATCH
      220    13608    2        THEN DO;
      221    13609    2             IN_DEV = DCTX_PATCH;
      222    13610    2             OUT_DEV = DCTX_LP;
      223    13611    2           END;
      224    13612    2        ELSE DO;
      225    13613    2             IN_DEV = DCTX_ME;
      226    13614    2             OUT_DEV = DCTX_ME;
      227    13615    2           END;
      228    13616    1        OUT_DEV_SAVE = DCTX_ME;
      229    13617    1        ECHO_DEV = DCTX_LP;
      230    13618        /* Setup initial USE frame */
      231    13619    1        U$SE = USE_ORIG$ -> U$SE;          /* FAKE OUT ED_SRCH */
      232    13620        /* Setup default compiler print flags */
      233    13621    1        S_D.REPORT_FLAGS = DD_REPORT_FLAGS;
      234    13622        /* Setup access to program DEFs */
      235    13623    1        TEMP$ = B$DEF.NINFO.EDEF$(0);
      236    13624    1        TEMP_END$ = PINCRW(B$DEF.NINFO.EDEF$(B$DEF.NODES),-SIZEW(B$EDEF));
      237    13625    2        DO WHILE ( TEMP$ <= TEMP_END$ );
      238    13626    2             TEMP$ -> B$EDEF.LFLAGS.FAULTAGS = '0'B;
      239    13627    2             TEMP$ = PINCRW( TEMP$, SIZEW( B$EDEF ) );
      240    13628    2           END;
      241    13629        /* Set up PTRs for Alternate DEFs */
      242    13630    1        D_ALTDOM = SCHEMA$ -> DX$OUCNT.DOM;
      243    13631    1        IF D_ALTDOM ~= 0
      244    13632    2        THEN DO;
      245    13633    2             CALL DXC$PTREND(AEDEF$,TEMP$) ALTRET(NODEFS6);
      246    13634    2             D_AEDEF_END$ = PINCRW(TEMP$, -(SIZEW(B$EDEF) - 1) );
      247    13635    2             TEMP$ = AEDEF$;
      248    13636    3             DO WHILE(TEMP$ <= D_AEDEF_END$);
      249    13637    3                  TEMP$->B$EDEF.LFLAGS.FAULTAGS = '0'B;
      250    13638    3                  TEMP$ = PINCRW(TEMP$,SIZEW(B$EDEF));
      251    13639    3                END;
      252    13640    3             DO WHILE('0'B);
      253    13641    3   NODEFS6:
PL6.E3A0      #001=DXI$1STIME File=DXI$1STIME.:E05TSI                            TUE 07/29/97 15:11 Page:8
      254    13642    3                  S_D.ERROR = 283;   /* E@NODEFS6 */
      255    13643    3                  CALL DDE$ERROR;
      256    13644    3                END;
      257    13645    2             CALL DXC$PTREND(ASDEF$, TEMP$) ALTRET(NODEFS7);
      258    13646    2             D_ASDEF_END$ = PINCRW(TEMP$, -(SIZEW(B$SDEF) - 1));
      259    13647    3             DO WHILE ('0'B);
      260    13648    3   NODEFS7:
      261    13649    3                  S_D.ERROR = 284;   /* E@NODEFS7 */
      262    13650    3                  CALL DDE$ERROR;
      263    13651    3                END;
      264    13652    2           END;
      265    13653    1        S_D.EDEF$ = B$DEF.NINFO.EDEF$(0); /* Fake schema stuff for ALT VAR setup */
      266    13654    1        S_D.EDEF_END$ = PINCRW(B$DEF.NINFO.EDEF$(1),-SIZEW(B$EDEF));
      267    13655    1        S_D.SDEF$ = B$DEF.NINFO.SDEF$(0);
      268    13656    1        S_D.SDEF_END$ = PINCRW(B$DEF.NINFO.SDEF$(1),-SIZEW(B$SDEF));
      269    13657    1        D_SCHEMA$ = SCHEMA$;
      270    13658    1        S_D.DNAME$ = DNAME$;
      271    13659    1        D_SYMBOLS = '1'B;
      272    13660        /* Set up address of H_XDELTA for speed up of normal operation */
      273    13661    1        CALL DDS$SD_SRCH(H_XDELTA$, TEMP$) ALTRET(GOT_H_XDELTA);
      274    13662    2        DO WHILE('0'B);
      275    13663    2   GOT_H_XDELTA: ;
      276    13664    2             H_XDELTA = TEMP$ -> B$SDEF.AD.ISADDR;
      277    13665    2           END;
      278    13666        /* Set up address of IRM_NOKP_SCR for speed up of normal operation */
      279    13667    1        CALL DDS$SD_SRCH(IRM_NOKP_SCR$, TEMP$) ALTRET(GOT_IRM_NOKP_SCR);
      280    13668    2        DO WHILE('0'B);
      281    13669    2   GOT_IRM_NOKP_SCR:
      282    13670    2             IRM_NOKP_SCR = TEMP$ -> B$SDEF.AD.ISADDR;
      283    13671    2           END;
      284    13672        /* Set up B$USRT$ for UU# */
      285    13673    1        CALL DDS$SD_SRCH(B$U_SYM$,MPTR$) ALTRET(GOTB$U);
      286    13674    1        S_D.ERROR = 512;          /* E@NO_B$USRT$ */
      287    13675    1        CALL DDE$ERROR;
      288    13676    2        DO WHILE('0'B);
      289    13677    2   GOTB$U:
      290    13678    2             D_B$USER = MPTR$->B$SDEF.AD.ISADDR;
PL6.E3A0      #001=DXI$1STIME File=DXI$1STIME.:E05TSI                            TUE 07/29/97 15:11 Page:9
      291    13679    2           END;
      292    13680        /* Setup CNODE$ to locate currently mapped monitor overlay */
      293    13681    1        CALL DDS$SD_SRCH(S_CNODE_SYM$,MPTR$) ALTRET(GOTS_CNODE);
      294    13682    1        S_D.ERROR = 513;           /* E@NOS_CNODE */
      295    13683    1        CALL DDE$ERROR;
      296    13684    2        DO WHILE ('0'B);
      297    13685    2   GOTS_CNODE:
      298    13686    2             CNODE$ = PINCRW(MIS$,MPTR$ -> B$SDEF.AD.ISADDR);
      299    13687    2           END;
      300    13688        /* Establish special location */
      301    13689    1        IF S_D.EDEF$ ~= ADDR( NIL )
      302    13690    2        THEN DO;
      303    13691    2             CALL DDS$ED_SRCH( SP$, TEMP$ ) ALTRET( FNDSP );
      304    13692    2             GOTO NOSL;
      305    13693    2   FNDSP:
      306    13694    2             S_D.PADDR = TEMP$ -> B$EDEF.ISADDR;
      307    13695    2             MSL$ = PINCRW( MIS$, S_D.PADDR );
      308    13696    2           END;
      309    13697    1        ELSE
      310    13698    2   NOSL: DO;
      311    13699    2             S_D.ERROR = 107;          /* E@NOSL$ */
      312    13700    2             CALL DDE$ERROR;
      313    13701    2           END;
      314    13702        /* Establish default schema access */
      315    13703    1        D_XOU_NAME = DD_XOU;
      316    13704    1        D_AXOU_NAME = DD_XOU;
      317    13705    1        S_D.XOU_NAME = DD_XOU;
      318    13706    1        CALL DDS$PD_SRCH( DD_XOU$, TEMP$ ) ALTRET( GOTXOU );
      319    13707    2        DO WHILE ( '0'B );
      320    13708    2   GOTXOU:
      321    13709    2             CALL DDS$EQCS#( POFFW( TEMP$, S_D.EDEF$ ) / SIZEW( B$EDEF ) ) ALTRET(
             13709                      NOXOU );
      322    13710    2             CALL DDS$SET_Q2MX ALTRET( NOXOU );
      323    13711    2           END;
      324    13712    1   NOXOU:
      325    13713        /* Establish ALT VAR schema for ALT SCHEMA */
      326    13714    1        IF D_ALTDOM = 0
PL6.E3A0      #001=DXI$1STIME File=DXI$1STIME.:E05TSI                            TUE 07/29/97 15:11 Page:10
      327    13715    1        THEN GOTO NOAXOU;
      328    13716    1        S_D.EDEF$ = AEDEF$;
      329    13717    1        S_D.EDEF_END$ = D_AEDEF_END$;
      330    13718    1        S_D.DNAME$ = ADNAME$;
      331    13719    1        S_D.OVERLAID = '0'B;
      332    13720    1        CALL DDS$PD_SRCH(DD_XOU$,TEMP$) ALTRET(GOTAXOU);
      333    13721    2        DO WHILE ('0'B);
      334    13722    2   GOTAXOU:
      335    13723    2             D_SCHEMA$ = ASCHEMA$;
      336    13724    2             CALL DDS$EQCS#(POFFW(TEMP$,AEDEF$)/SIZEW(B$EDEF)) ALTRET(NOAXOU);
      337    13725    2             CALL DDS$SET_Q2AX ALTRET(NOAXOU);
      338    13726    2           END;
      339    13727    1   NOAXOU:
      340    13728        /* Establish USE MON in use frame, setup for MON SCHEMA */
      341    13729    1        S_D.OVERLAID = '1'B;
      342    13730    1        CALL DXB$CUSE;
      343    13731        /* Setup default syntax */
      344    13732    1        S_D.SYNTAX = %PL6ID;
      345    13733    1        S_D.SYNTAX_DEFAULT = %PL6ID;
      346    13734    2        DO I=0 TO SIZEW(DD_COMP_NODE_PTR$)-1;
      347    13735    2             DD_COMP_NODE_PTR$(I) -> DD_NODE.SUBNDS$(0) = DD_SYN_PL6(I);
      348    13736    2           END;
      349    13737        /* Establish @ and # patch space, if any */
      350    13738    1        S_D.GOT@ = '0'B;
      351    13739    1        S_D.GOT# = '0'B;
      352    13740    1        CALL DDI$GET_PATCH_SPACE;
      353    13741    1        IF NOT S_D.PATCH
      354    13742    1        THEN CALL DDR$REPORT( 11/*R_DELTA*/ );
      355    13743                                                /**/
      356    13744    1        RETURN;
      357    13745                                                /**/
      358    13746                                                /**/
      359    13747    1   END DXI$1STIME;
      360    13748        %EOD;

PL6.E3A0      #001=DXI$1STIME File=DXI$1STIME.:E05TSI                            TUE 07/29/97 15:11 Page:11
--  Include file information  --

   DD_SD_M.:E05TOU  is referenced.
   XUH_MACRO_C.:E05TOU  is referenced.
   DD$BASED.:E05TOU  is referenced.
   DD_KNODES_D.:E05TOU  is referenced.
   XU_MACRO_C.:E05TOU  is referenced.
   DD_SRTN_C.:E05TOU  is referenced.
   DD_ACODE_C.:E05TOU  is referenced.
   DD_ICODE_C.:E05TOU  is referenced.
   DD$DITEM.:E05TOU  cannot be made into a system file and is referenced.
   B$OBJECT_C.:E05TOU  is referenced.
   B_STRINGS_C.:E05TOU  is referenced.
   XU_SUBS_C.:E05TOU  is referenced.
   DD_REPORT_R.:E05TOU  cannot be made into a system file and is referenced.
   DD_ERR_C.:E05TOU  is referenced.
   DD_PSUBS_C.:E05TOU  is referenced.
   DD_SUBS_C.:E05TOU  is referenced.
   B$JIT_C.:E05TOU  was found in the system file and is never referenced.
   CP_6_C.:E05TOU  was found in the system file and is never referenced.
      No diagnostics issued in procedure DXI$1STIME.

   Procedure DXI$1STIME requires 446 words for executable code.
   Procedure DXI$1STIME requires 18 words of local(AUTO) storage.

PL6.E3A0      #001=DXI$1STIME File=DXI$1STIME.:E05TSI                            TUE 07/29/97 15:11 Page:12

 Object Unit name= DXI$1STIME                                 File name= DXI$1STIME.:E05TOU
 UTS= JUL 29 '97 15:11:48.76 TUE                              Compiler= PL-6/E31         Sev=      00
 SharedLib= :SHARED_SYSTEM                                    Alt SharedLib=


    ****  Control sections  ****

 Sect   Type Bound  Init  Size OctSiz  Section name(segment info)
    0  RoData even  UTS     31     37  DXI$1STIME
    1   Proc  even  none   446    676  DXI$1STIME
    2  RoData even  none    13     15  DXI$1STIME

    ****  Entry defs  ****

                              Check   Calling
                             calling  sequence
  Sect OctLoc Primary Altret sequence   type   Parms  Name
     1      0   yes            yes      Std        0  DXI$1STIME

  ****  Data defs  ****

 Sect OctLoc  Name                           Sect OctLoc  Name
    0      4  DD_XOU                             0      7  DD_XOU$
PL6.E3A0      #001=DXI$1STIME File=DXI$1STIME.:E05TSI                            TUE 07/29/97 15:11 Page:13

  ****  Entry refs  ****

         Check        Calling
        calling       sequence
Altret sequence SRef   type   Args  Name
         yes           Std       0 DUI$INIT_HOST
 yes     yes           Std       2 DXC$PTREND
 yes     yes           Std       2 DDS$PD_SRCH
 yes     yes           Std       2 DDS$SD_SRCH
         yes           Std       1 DDR$REPORT
 yes     yes           Std       0 DDS$SET_Q2AX
         yes           Std       0 DDE$ERROR
 yes     yes           Std       2 DDS$ED_SRCH
 yes     yes           Std       1 DDS$EQCS#
         yes           Std       0 DDI$GET_PATCH_SPACE
 yes     yes           Std       0 DDS$SET_Q2MX
         yes           Std       0 DXB$CUSE
                       nStd      0 X66_AUTO_0
                       Std       0 B_CONSPOOL_D
                       nStd      0 X66_ARET
PL6.E3A0      #001=DXI$1STIME File=DXI$1STIME.:E05TSI                            TUE 07/29/97 15:11 Page:14

  ****  Data refs  ****

  Flags:  r = read only, s = secondary
Flgs Name                             Flgs Name                             Flgs Name
r    DD_REPORT_FLAGS                       H_XDELTA                              IRM_NOKP_SCR
     DD_DEBUG                              D_PARSIZE                             D_CPU_TYPE
     DCTX_ME                               DCTX_LP                               DCTX_PATCH
     IN_DEV                                OUT_DEV                               OUT_DEV_SAVE
     ECHO_DEV                              DX_VARCOM$                            DX_VARCOM_HIGH$
     CNODE$                                DNAME$                                SCHEMA$
     AEDEF$                                ASDEF$                                ADNAME$
     ASCHEMA$                              D_SCHEMA$                             D_SYMBOLS
     D_B$USER                              D_ALTDOM                              D_XOU_NAME
     D_AXOU_NAME                           D_AEDEF_END$                          D_ASDEF_END$
     MIS$                                  MSL$                                  XUSS$
     HISTBUF                               SAVEX0                                USE$
     USE_ORIG$                        r    DD_COMP_NODE_PTR$                r    DD_SYN_PL6
     DEFDIR$                          r    S_D$                                  B_VECTNIL

  ****  Segment refs  ****

  Flags:  r = read only, s = secondary
Flgs Name                             Flgs Name                             Flgs Name
     ISSID
PL6.E3A0      #001=DXI$1STIME File=DXI$1STIME.:E05TSI                            TUE 07/29/97 15:11 Page:15


        1        1        /*M* DXI$1STIME First time initialization for Exec Delta. */
        2        2        /*T***********************************************************/
        3        3        /*T*                                                         */
        4        4        /*T* Copyright (c) Bull HN Information Systems Inc., 1997    */
        5        5        /*T*                                                         */
        6        6        /*T***********************************************************/
        7        7        /*X* DMR,PLM=5,IND=5,CSU=3,EXM=0,ECU=3,MOC,DCI=5,CRT=5 */
        8        8        %SET LISTSUB='1'B;
        9        9        /*F* NAME: DXI$1STIME
       10       10             PURPOSE: To perform first time through initialization for Xdelta.
       11       11             DESCRIPTION: Initializes S_D, initial device assignments, USE frame,
       12       12                          access to program DEFs, access to special location, Monitor
       13       13                          USE frame, default schema access, and reports Xdelta
       14       14                          here. */
       15       15                                                /**/
       16       16        DXI$1STIME: PROC;

     16  1 000000   000000 700200 xent  DXI$1STIME   TSX0  ! X66_AUTO_0
         1 000001   000022 000000                    ZERO    18,0

       17       17                                                /**/
       18       18        %INCLUDE DD_SUBS_C;
       19      289        %INCLUDE DD_PSUBS_C;
       20      764        %INCLUDE DD_ERR_C;
       21     1161        %INCLUDE DD_REPORT_R;
       22     1170        %INCLUDE XU_SUBS_C;
       23     1262        %INCLUDE B_STRINGS_C;
       24     1391        %INCLUDE B$OBJECT_C;
       25     4821        %SUB @REGS= 40 /* @REGS */;
       26     4822        %SUB @IND= 4 /* @IND */;
       27     4823        %INCLUDE DD$DITEM;
       12+    4926             %LIST;
       13+    4927    1        DCL SDD$ PTR;
       14+    4928    1        DCL ZITEM$ PTR;
       15+    4929    1        DCL SDD_L6$ PTR;
       16+    4930    1        DCL ZITEM_L6$ PTR;
PL6.E3A0      #001=DXI$1STIME File=DXI$1STIME.:E05TSI                            TUE 07/29/97 15:11 Page:16
       28     5504    1   DCL TEMP$ PTR;
       29     5505    1   DCL TEMP_END$ PTR;
       30     5506    1   DCL SAVEIC UBIN;
       31     5507    1   DCL 1 NWORD,
       32     5508    1         2 ISADDR UBIN HALF ALIGNED;
       33     5509        %B$EDEF;
       34     5579        %B$SDEF;
       35     5633        %COMPILERIDSUBS;
       36     5649    1   DCL 1 SP CONSTANT,
       37     5650    1         2 SIZE UBIN BYTE UNAL INIT( LENGTHC( SP.TEXT ) ),
       38     5651    1         2 TEXT CHAR(0) UNAL INIT( 'B_XDELTA' );
       39     5652    1   DCL SP$ PTR CONSTANT INIT( ADDR( SP ) );
       40     5653    1   DCL 1 DD_XOU CONSTANT SYMDEF,
       41     5654    1         2 SIZE UBIN BYTE UNAL INIT( LENGTHC( DD_XOU.TEXT ) ),
       42     5655    1         2 TEXT CHAR(0) UNAL INIT( 'B_DELTA_D' );
       43     5656    1   DCL DD_XOU$ PTR CONSTANT SYMDEF INIT( ADDR( DD_XOU ) );
       44     5657    1   DCL 1 H_XDELTAS CONSTANT,
       45     5658    1         2 SIZE UBIN BYTE UNAL INIT(LENGTHC(H_XDELTAS.TEXT)),
       46     5659    1         2 TEXT CHAR(0) INIT('H_XDELTA');
       47     5660    1   DCL H_XDELTA$ PTR CONSTANT INIT(ADDR(H_XDELTAS));
       48     5661    1   DCL H_XDELTA UBIN SYMREF;
       49     5662    1   DCL 1 IRM_NOKP_SCRS CONSTANT,
       50     5663    1         2 SIZE UBIN BYTE UNAL INIT(LENGTHC(IRM_NOKP_SCRS.TEXT)),
       51     5664    1         2 TEXT CHAR(0) INIT('IRM_NOKP_SCR');
       52     5665    1   DCL 1 IRM_NOKP_SCR$ PTR CONSTANT INIT(ADDR(IRM_NOKP_SCRS));
       53     5666    1   DCL IRM_NOKP_SCR UBIN SYMREF;
       54     5667    1   DCL 1 B_PATCHIH CONSTANT,
       55     5668    1         2 SIZE UBIN BYTE UNAL INIT(LENGTHC(B_PATCHIH.TEXT)),
       56     5669    1         2 TEXT CHAR(0) INIT('B_PATCHIH');
       57     5670    1   DCL 1 B_PATCHDH CONSTANT,
       58     5671    1         2 SIZE UBIN BYTE UNAL INIT(LENGTHC(B_PATCHDH.TEXT)),
       59     5672    1         2 TEXT CHAR(0) INIT('B_PATCHDH');
       60     5673    1   DCL B_PATCHIH$ PTR CONSTANT INIT(ADDR(B_PATCHIH));
       61     5674    1   DCL B_PATCHDH$ PTR CONSTANT INIT(ADDR(B_PATCHDH));
       62     5675    1   DCL 1 B$U_SYM CONSTANT,
       63     5676    1         2 SIZE UBIN BYTE UNAL INIT(LENGTHC(B$U_SYM.TEXT)),
       64     5677    1         2 TEXT CHAR(0) INIT('B$USRT$');
PL6.E3A0      #001=DXI$1STIME File=DXI$1STIME.:E05TSI                            TUE 07/29/97 15:11 Page:17
       65     5678    1   DCL B$U_SYM$ PTR CONSTANT INIT(ADDR(B$U_SYM));
       66     5679    1   DCL 1 S_CNODE_SYM CONSTANT,
       67     5680    1         2 SIZE UBIN BYTE UNAL INIT(LENGTHC(S_CNODE_SYM.TEXT)),
       68     5681    1         2 TEXT CHAR(0) INIT('S_CNODE');
       69     5682    1   DCL S_CNODE_SYM$ PTR CONSTANT INIT(ADDR(S_CNODE_SYM));
       70     5683    1   DCL DD_DEBUG UBIN SYMREF;
       71     5684    1   DCL D_PARSIZE UBIN SYMREF;
       72     5685    1   DCL D_CPU_TYPE UBIN WORD ALIGNED SYMREF;
       73     5686    1   DCL DCTX_ME UBIN SYMREF;
       74     5687    1   DCL DCTX_LP UBIN SYMREF;
       75     5688    1   DCL DCTX_PATCH UBIN SYMREF;
       76     5689    1   DCL IN_DEV UBIN SYMREF;
       77     5690    1   DCL OUT_DEV UBIN SYMREF;
       78     5691    1   DCL OUT_DEV_SAVE UBIN SYMREF;
       79     5692    1   DCL ECHO_DEV UBIN SYMREF;
       80     5693    1   DCL DX_VARCOM$ PTR SYMREF;
       81     5694    1   DCL DX_VARCOM_HIGH$ PTR SYMREF;
       82     5695    1   DCL CNODE$ PTR SYMREF;
       83     5696    1   DCL DNAME$ PTR SYMREF;
       84     5697    1   DCL SCHEMA$ PTR SYMREF;
       85     5698    1   DCL AEDEF$ PTR SYMREF;
       86     5699    1   DCL ASDEF$ PTR SYMREF;
       87     5700    1   DCL ADNAME$ PTR SYMREF;
       88     5701    1   DCL ASCHEMA$ PTR SYMREF;
       89     5702    1   DCL D_SCHEMA$ PTR SYMREF;
       90     5703    1   DCL D_SYMBOLS BIT(1) ALIGNED SYMREF;
       91     5704    1   DCL D_B$USER UBIN SYMREF;
       92     5705    1   DCL D_ALTDOM UBIN WORD SYMREF;
       93     5706    1   DCL 1 D_XOU_NAME SYMREF,
       94     5707    1         2 SZ UBIN BYTE UNAL,
       95     5708    1         2 TX CHAR(31) UNAL;
       96     5709    1   DCL 1 D_AXOU_NAME SYMREF,
       97     5710    1         2 SZ UBIN BYTE UNAL,
       98     5711    1         2 TX CHAR(31) UNAL;
       99     5712    1   DCL D_EDEF_END$ PTR SYMREF;
      100     5713    1   DCL D_AEDEF_END$ PTR SYMREF;
      101     5714    1   DCL D_SDEF_END$ PTR SYMREF;
PL6.E3A0      #001=DXI$1STIME File=DXI$1STIME.:E05TSI                            TUE 07/29/97 15:11 Page:18
      102     5715    1   DCL D_ASDEF_END$ PTR SYMREF;
      103     5716    1   DCL MIS$ PTR SYMREF;
      104     5717    1   DCL MSL$ PTR SYMREF;
      105     5718    1   DCL XUSS$ PTR SYMREF;
      106     5719    1   DCL HISTBUF UBIN SYMREF;
      107     5720    1   DCL SAVEX0 SBIN SYMREF;
      108     5721    1   DCL USE$ PTR SYMREF;
      109     5722    1   DCL USE_ORIG$ PTR SYMREF;
      110     5723        /* Symrefs for SYNTAX command */
      111     5724        %INCLUDE XU_MACRO_C;
      112     8830        %INCLUDE DD_KNODES_D;
      113     9046        %NODE_DEFS(STCLASS=SYMREF);
      114     9435    1   DCL DD_SYN_PL6(0:0) PTR SYMREF READONLY;
      115     9436    1   DCL I SBIN;
      116     9437        %INCLUDE DD$BASED;
      117    10740        %DX$OUCNT;
      118    10745        %HIST_BUF;
      119    10754        %U$SE;
      120    10762    1   DCL DEFDIR$ PTR SYMREF;
      121    10763        %B$DEF;
      122    10775    1   DCL MPTR$ PTR;
      123    10776    1   DCL UBIN36$ PTR BASED;
      124    10777        %INCLUDE XUH_MACRO_C;
      125    10861        %INCLUDE DD_SD_M;
      126    12197        %S_D;
      127    13515    1   DCL DDE$ERROR ENTRY(0);
      128    13516    1   DCL DDR$REPORT ENTRY(1);
      129    13517    1   DCL DDS$ED_SRCH ENTRY(2) ALTRET;
      130    13518    1   DCL DDS$EQCS# ENTRY(1) ALTRET;
      131    13519    1   DCL DDS$PD_SRCH ENTRY(2) ALTRET;
      132    13520    1   DCL DDS$SD_SRCH ENTRY(2) ALTRET;
      133    13521    1   DCL DDS$SET_Q2X ENTRY(0) ALTRET;
      134    13522    1   DCL DDI$GET_PATCH_SPACE ENTRY;
      135    13523    1   DCL DXB$CUSE ENTRY;
      136    13524    1   DCL DXC$PTREND ENTRY(2) ALTRET;
      137    13525    1   DCL DDS$SET_Q2MX ENTRY ALTRET;
      138    13526    1   DCL DDS$SET_Q2AX ENTRY ALTRET;
PL6.E3A0      #001=DXI$1STIME File=DXI$1STIME.:E05TSI                            TUE 07/29/97 15:11 Page:19
      139    13527    1   DCL DUI$INIT_HOST ENTRY;
      140    13528    1   DCL DXA$GETMPTR ENTRY(2);
      141    13529                                                /**/
      142    13530    1        SAVEIC = S_D.SAVEIC;               /* DXC$ENTRY PUTS IT THERE */

  13530  1 000002   000000 470400 xsym               LDP0    S_D$
         1 000003   000002 235100                    LDA     2,,PR0
         1 000004   200011 755100                    STA     SAVEIC,,AUTO

      143    13531        /* Initialize S_D */
      144    13532    1        S_D = '0'B;

  13532  1 000005   035020 220003                    LDX0    14864,DU
         1 000006   000140 100400                    MLR     fill='000'O
         1 000007   000002 000001 xsym               ADSC9   B_VECTNIL+2              cn=0,n=1
         1 000010   000000 000010                    ADSC9   0,,PR0                   cn=0,n=*X0

      145    13533    1        S_D.SAVEIC = SAVEIC;               /* Put it back */

  13533  1 000011   000002 755100                    STA     2,,PR0

      146    13534    1        S_D.HW_TYPE = D_CPU_TYPE;

  13534  1 000012   000000 236000 xsym               LDQ     D_CPU_TYPE
         1 000013   007100 756100                    STQ     3648,,PR0

      147    13535    2        DO CASE (S_D.HW_TYPE);

  13535  1 000014   000007 116007                    CMPQ    7,DL
         1 000015   000017 602006 1                  TNC     s:13535+3,QL
         1 000016   000057 710000 1                  TRA     s:13557
         1 000017   000026 710000 1                  TRA     s:13537
         1 000020   000057 710000 1                  TRA     s:13557
         1 000021   000057 710000 1                  TRA     s:13557
         1 000022   000057 710000 1                  TRA     s:13557
         1 000023   000034 710000 1                  TRA     s:13542
         1 000024   000043 710000 1                  TRA     s:13547
PL6.E3A0      #001=DXI$1STIME File=DXI$1STIME.:E05TSI                            TUE 07/29/97 15:11 Page:20
         1 000025   000052 710000 1                  TRA     s:13552

      148    13536    2          CASE (%L66);

      149    13537    2             S_D.HW_PTB_UNITS = 64;

  13537  1 000026   000100 235007                    LDA     64,DL
         1 000027   007103 755100                    STA     3651,,PR0

      150    13538    2             S_D.HW_RES_MEM = '0'B;

  13538  1 000030   007102 450100                    STZ     3650,,PR0

      151    13539    2             S_D.HW_WSQ0PT = '0'B;

  13539  1 000031   007104 450100                    STZ     3652,,PR0

      152    13540    2             S_D.HW_FLTIC_OK = '0'B;

  13540  1 000032   007101 450100                    STZ     3649,,PR0
         1 000033   000057 710000 1                  TRA     s:13557

      153    13541    2          CASE (%DPS90);

      154    13542    2             S_D.HW_PTB_UNITS = 64;

  13542  1 000034   000100 235007                    LDA     64,DL
         1 000035   007103 755100                    STA     3651,,PR0

      155    13543    2             S_D.HW_RES_MEM = '1'B;

  13543  1 000036   400000 236003                    LDQ     -131072,DU
         1 000037   007102 756100                    STQ     3650,,PR0

      156    13544    2             S_D.HW_WSQ0PT = '1'B;

  13544  1 000040   007104 756100                    STQ     3652,,PR0
PL6.E3A0      #001=DXI$1STIME File=DXI$1STIME.:E05TSI                            TUE 07/29/97 15:11 Page:21

      157    13545    2             S_D.HW_FLTIC_OK = '1'B;

  13545  1 000041   007101 756100                    STQ     3649,,PR0
         1 000042   000057 710000 1                  TRA     s:13557

      158    13546    2          CASE (%DPS90XA);

      159    13547    2             S_D.HW_PTB_UNITS = 1024;

  13547  1 000043   002000 235007                    LDA     1024,DL
         1 000044   007103 755100                    STA     3651,,PR0

      160    13548    2             S_D.HW_RES_MEM = '1'B;

  13548  1 000045   400000 236003                    LDQ     -131072,DU
         1 000046   007102 756100                    STQ     3650,,PR0

      161    13549    2             S_D.HW_WSQ0PT = '1'B;

  13549  1 000047   007104 756100                    STQ     3652,,PR0

      162    13550    2             S_D.HW_FLTIC_OK = '1'B;

  13550  1 000050   007101 756100                    STQ     3649,,PR0
         1 000051   000057 710000 1                  TRA     s:13557

      163    13551    2          CASE (%DPS8000);

      164    13552    2             S_D.HW_PTB_UNITS = 1024;

  13552  1 000052   002000 235007                    LDA     1024,DL
         1 000053   007103 755100                    STA     3651,,PR0

      165    13553    2             S_D.HW_RES_MEM = '0'B;

  13553  1 000054   007102 450100                    STZ     3650,,PR0
PL6.E3A0      #001=DXI$1STIME File=DXI$1STIME.:E05TSI                            TUE 07/29/97 15:11 Page:22

      166    13554    2             S_D.HW_WSQ0PT = '0'B;

  13554  1 000055   007104 450100                    STZ     3652,,PR0

      167    13555    2             S_D.HW_FLTIC_OK =        '0'B;/*?*/

  13555  1 000056   007101 450100                    STZ     3649,,PR0

      168    13556    2          END;

      169    13557    1        IF SAVEX0 < 0

  13557  1 000057   000000 235000 xsym               LDA     SAVEX0
         1 000060   000063 605000 1                  TPL     s:13559

      170    13558    1        THEN S_D.PATCH = '1'B;             /* Tape boot - here for patching only */

  13558  1 000061   400000 236003                    LDQ     -131072,DU
         1 000062   004754 756100                    STQ     2540,,PR0

      171    13559    1        S_D.EWSQ# = %MONWSQ;     /* %MONWSQ - Fake everybody out the first time */

  13559  1 000063   000001 236007                    LDQ     1,DL
         1 000064   000011 756100                    STQ     9,,PR0

      172    13560    1        S_D.VARCOM$ = DX_VARCOM$;

  13560  1 000065   000000 236000 xsym               LDQ     DX_VARCOM$
         1 000066   004622 756100                    STQ     2450,,PR0

      173    13561    1        S_D.VARCOM_HIGH$ = DX_VARCOM_HIGH$;

  13561  1 000067   000000 236000 xsym               LDQ     DX_VARCOM_HIGH$
         1 000070   004623 756100                    STQ     2451,,PR0

      174    13562    1        S_D.VARNEXT$ = S_D.VARCOM$;
PL6.E3A0      #001=DXI$1STIME File=DXI$1STIME.:E05TSI                            TUE 07/29/97 15:11 Page:23

  13562  1 000071   004622 236100                    LDQ     2450,,PR0
         1 000072   000033 756100                    STQ     27,,PR0

      175    13563    1        S_D.FPRG_CONTEXT$ = ADDR(NIL);

  13563  1 000073   000001 236000 xsym               LDQ     B_VECTNIL+1
         1 000074   000076 756100                    STQ     62,,PR0

      176    13564    1        S_D.SL$ = ADDR( NIL );

  13564  1 000075   000006 756100                    STQ     6,,PR0

      177    13565    1        S_D.DNAME$ = ADDR( NIL );

  13565  1 000076   001041 756100                    STQ     545,,PR0

      178    13566    1        S_D.EDEF$ = ADDR( NIL );

  13566  1 000077   001042 756100                    STQ     546,,PR0

      179    13567    1        S_D.SDEF$ = ADDR( NIL );

  13567  1 000100   001043 756100                    STQ     547,,PR0

      180    13568    1        S_D.LB0$ = ADDR( NIL );

  13568  1 000101   001035 756100                    STQ     541,,PR0

      181    13569    1        S_D.TREE$ = ADDR ( NIL );

  13569  1 000102   004761 756100                    STQ     2545,,PR0

      182    13570    1        S_D.UTREE$ = ADDR ( NIL );

  13570  1 000103   004763 756100                    STQ     2547,,PR0

PL6.E3A0      #001=DXI$1STIME File=DXI$1STIME.:E05TSI                            TUE 07/29/97 15:11 Page:24
      183    13571    1        S_D.MTREE$ = ADDR ( NIL );

  13571  1 000104   004762 756100                    STQ     2546,,PR0

      184    13572    1        S_D.B$TREE$ = ADDR ( NIL );

  13572  1 000105   004767 756100                    STQ     2551,,PR0

      185    13573    1        S_D.B$TREEHDR$ = ADDR ( NIL );

  13573  1 000106   004770 756100                    STQ     2552,,PR0

      186    13574    1        S_D.DRTN$ = ADDR ( NIL );

  13574  1 000107   004704 756100                    STQ     2500,,PR0

      187    13575    1        S_D.SCHEMA = '1'B;

  13575  1 000110   400000 236003                    LDQ     -131072,DU
         1 000111   000052 756100                    STQ     42,,PR0

      188    13576    1        S_D.BYPASS = '1'B;

  13576  1 000112   001032 756100                    STQ     538,,PR0

      189    13577    1        S_D.BYPASS_SAVE = '1'B;

  13577  1 000113   000074 756100                    STQ     60,,PR0

      190    13578    1        S_D.OVERLAID = '1'B;

  13578  1 000114   004764 756100                    STQ     2548,,PR0

      191    13579    1        S_D.RANGE = BITBIN( '7777'O );

  13579  1 000115   007777 235007                    LDA     4095,DL
         1 000116   001031 755100                    STA     537,,PR0
PL6.E3A0      #001=DXI$1STIME File=DXI$1STIME.:E05TSI                            TUE 07/29/97 15:11 Page:25

      192    13580    1        S_D.FIND.NUM = 17000000/*DD_BIGNUM*/;

  13580  1 000117   000000 235000 2                  LDA     0
         1 000120   005207 755100                    STA     2695,,PR0

      193    13581    1        S_D.FIND.MASK_F = -1;

  13581  1 000121   000001 335007                    LCA     1,DL
         1 000122   005211 755100                    STA     2697,,PR0

      194    13582    1        S_D.SAD = -1;

  13582  1 000123   005255 755100                    STA     2733,,PR0

      195    13583    1        S_D.UPROMPT = '>';

  13583  1 000124   040100 100400                    MLR     fill='040'O
         1 000125   000001 000001 2                  ADSC9   1                        cn=0,n=1
         1 000126   005160 000030                    ADSC9   2672,,PR0                cn=0,n=24

      196    13584    1        S_D.UPROMPT_SIZE = LENGTHC( '>' );

  13584  1 000127   000001 235007                    LDA     1,DL
         1 000130   005166 755100                    STA     2678,,PR0

      197    13585    1        S_D.FMT_DEFAULT = %OCT_FMT;

  13585  1 000131   000723 755100                    STA     467,,PR0

      198    13586    1        S_D.EFMT_DEFAULT = %OCT_FMT;

  13586  1 000132   004736 755100                    STA     2526,,PR0

      199    13587    1        S_D.L$.SIZE = 36;

  13587  1 000133   000044 235007                    LDA     36,DL
PL6.E3A0      #001=DXI$1STIME File=DXI$1STIME.:E05TSI                            TUE 07/29/97 15:11 Page:26
         1 000134   000126 755100                    STA     86,,PR0

      200    13588    1        S_D.L$.FMT = %OCT_FMT;

  13588  1 000135   000001 235007                    LDA     1,DL
         1 000136   000127 755100                    STA     87,,PR0

      201    13589    1        S_D.OUT_WIDTH = 79;

  13589  1 000137   000117 235007                    LDA     79,DL
         1 000140   000014 755100                    STA     12,,PR0

      202    13590    1        S_D.FAULTCMD$ = ADDR( NIL );

  13590  1 000141   000001 236000 xsym               LDQ     B_VECTNIL+1
         1 000142   000004 756100                    STQ     4,,PR0

      203    13591    1        S_D.SLP1$ = ADDR( NIL );

  13591  1 000143   000007 756100                    STQ     7,,PR0

      204    13592    1        S_D.ERROR_SYM$ = ADDR( NIL );

  13592  1 000144   000032 756100                    STQ     26,,PR0

      205    13593    1        S_D.DEBUGF = DD_DEBUG;

  13593  1 000145   000000 235000 xsym               LDA     DD_DEBUG
         1 000146   000053 755100                    STA     43,,PR0

      206    13594    1        S_D.PARSIZE = D_PARSIZE;

  13594  1 000147   000000 235000 xsym               LDA     D_PARSIZE
         1 000150   001033 755100                    STA     539,,PR0

      207    13595    1        S_D.K$EEP.TYPE = 2;        /* KEEP_NONE */

PL6.E3A0      #001=DXI$1STIME File=DXI$1STIME.:E05TSI                            TUE 07/29/97 15:11 Page:27
  13595  1 000151   000002 235007                    LDA     2,DL
         1 000152   004626 755100                    STA     2454,,PR0

      208    13596    1        S_D.USS$ = XUSS$;

  13596  1 000153   000000 236000 xsym               LDQ     XUSS$
         1 000154   000005 756100                    STQ     5,,PR0

      209    13597    1        S_D.UREG$ = PINCRW( XUSS$, 40 /* @REGS */ );

  13597  1 000155   000050 036003                    ADLQ    40,DU
         1 000156   000045 756100                    STQ     37,,PR0

      210    13598    1        S_D.IND$ = PINCRW( XUSS$, 4 /* @IND */ );

  13598  1 000157   000000 236000 xsym               LDQ     XUSS$
         1 000160   000004 036003                    ADLQ    4,DU
         1 000161   000046 756100                    STQ     38,,PR0

      211    13599    1        S_D.HIST.START$ = ADDR(HISTBUF);   /* INIT HISTORY BUFFER PTRS */

  13599  1 000162   000002 236000 2                  LDQ     2
         1 000163   004717 756100                    STQ     2511,,PR0

      212    13600    1        S_D.HIST.CURR$ = ADDR(HISTBUF);

  13600  1 000164   004721 756100                    STQ     2513,,PR0

      213    13601    1        S_D.HIST.END$ = PINCRW(S_D.HIST.START$, 49*SIZEW(HIST_BUF));
             13601                 /* Point at the last entry */

  13601  1 000165   000223 036003                    ADLQ    147,DU
         1 000166   004720 756100                    STQ     2512,,PR0

      214    13602    1        S_D.HIST.EMPTY = '1'B;             /* MARK BUFFER AS EMPTY */

  13602  1 000167   400000 236003                    LDQ     -131072,DU
PL6.E3A0      #001=DXI$1STIME File=DXI$1STIME.:E05TSI                            TUE 07/29/97 15:11 Page:28
         1 000170   004726 756100                    STQ     2518,,PR0

      215    13603    1        S_D.HIST.ACTIVE = '1'B;

  13603  1 000171   004725 756100                    STQ     2517,,PR0

      216    13604    1        S_D.S$TEP.MODE = 583;     /*C@STATEMENTS*/

  13604  1 000172   001107 235007                    LDA     583,DL
         1 000173   005310 755100                    STA     2760,,PR0

      217    13605    1        CALL DUI$INIT_HOST;

  13605  1 000174   000002 631400 xsym               EPPR1   B_VECTNIL+2
         1 000175   000000 701000 xent               TSX1    DUI$INIT_HOST
         1 000176   000000 011000                    NOP     0

      218    13606        /* Setup initial device assignments */
      219    13607    1        IF S_D.PATCH

  13607  1 000177   000000 470400 xsym               LDP0    S_D$
         1 000200   004754 234100                    SZN     2540,,PR0
         1 000201   000207 605000 1                  TPL     s:13613

      220    13608    2        THEN DO;

      221    13609    2             IN_DEV = DCTX_PATCH;

  13609  1 000202   000000 235000 xsym               LDA     DCTX_PATCH
         1 000203   000000 755000 xsym               STA     IN_DEV

      222    13610    2             OUT_DEV = DCTX_LP;

  13610  1 000204   000000 236000 xsym               LDQ     DCTX_LP
         1 000205   000000 756000 xsym               STQ     OUT_DEV

      223    13611    2           END;
PL6.E3A0      #001=DXI$1STIME File=DXI$1STIME.:E05TSI                            TUE 07/29/97 15:11 Page:29

  13611  1 000206   000212 710000 1                  TRA     s:13616

      224    13612    2        ELSE DO;

      225    13613    2             IN_DEV = DCTX_ME;

  13613  1 000207   000000 235000 xsym               LDA     DCTX_ME
         1 000210   000000 755000 xsym               STA     IN_DEV

      226    13614    2             OUT_DEV = DCTX_ME;

  13614  1 000211   000000 755000 xsym               STA     OUT_DEV

      227    13615    2           END;

      228    13616    1        OUT_DEV_SAVE = DCTX_ME;

  13616  1 000212   000000 236000 xsym               LDQ     DCTX_ME
         1 000213   000000 756000 xsym               STQ     OUT_DEV_SAVE

      229    13617    1        ECHO_DEV = DCTX_LP;

  13617  1 000214   000000 235000 xsym               LDA     DCTX_LP
         1 000215   000000 755000 xsym               STA     ECHO_DEV

      230    13618        /* Setup initial USE frame */
      231    13619    1        U$SE = USE_ORIG$ -> U$SE;          /* FAKE OUT ED_SRCH */

  13619  1 000216   000000 471400 xsym               LDP1    USE_ORIG$
         1 000217   000000 473400 xsym               LDP3    USE$
         1 000220   000100 100500                    MLR     fill='000'O
         1 000221   100000 000024                    ADSC9   0,,PR1                   cn=0,n=20
         1 000222   300000 000024                    ADSC9   0,,PR3                   cn=0,n=20

      232    13620        /* Setup default compiler print flags */
      233    13621    1        S_D.REPORT_FLAGS = DD_REPORT_FLAGS;
PL6.E3A0      #001=DXI$1STIME File=DXI$1STIME.:E05TSI                            TUE 07/29/97 15:11 Page:30

  13621  1 000223   000100 100400                    MLR     fill='000'O
         1 000224   000000 000070 xsym               ADSC9   DD_REPORT_FLAGS          cn=0,n=56
         1 000225   005214 000070                    ADSC9   2700,,PR0                cn=0,n=56

      234    13622        /* Setup access to program DEFs */
      235    13623    1        TEMP$ = B$DEF.NINFO.EDEF$(0);

  13623  1 000226   000000 471400 xsym               LDP1    DEFDIR$
         1 000227   100012 236100                    LDQ     10,,PR1
         1 000230   200007 756100                    STQ     TEMP$,,AUTO

      236    13624    1        TEMP_END$ = PINCRW(B$DEF.NINFO.EDEF$(B$DEF.NODES),-SIZEW(B$EDEF));

  13624  1 000231   100000 236100                    LDQ     0,,PR1
         1 000232   000013 402007                    MPY     11,DL
         1 000233   100012 236106                    LDQ     10,QL,PR1
         1 000234   777776 036003                    ADLQ    -2,DU
         1 000235   200010 756100                    STQ     TEMP_END$,,AUTO

      237    13625    2        DO WHILE ( TEMP$ <= TEMP_END$ );

  13625  1 000236   200007 116100                    CMPQ    TEMP$,,AUTO
         1 000237   000251 602000 1                  TNC     s:13630

      238    13626    2             TEMP$ -> B$EDEF.LFLAGS.FAULTAGS = '0'B;

  13626  1 000240   200007 470500                    LDP0    TEMP$,,AUTO
         1 000241   000003 236000 2                  LDQ     3
         1 000242   000000 356100                    ANSQ    0,,PR0

      239    13627    2             TEMP$ = PINCRW( TEMP$, SIZEW( B$EDEF ) );

  13627  1 000243   200007 236100                    LDQ     TEMP$,,AUTO
         1 000244   000002 036003                    ADLQ    2,DU
         1 000245   200007 756100                    STQ     TEMP$,,AUTO

PL6.E3A0      #001=DXI$1STIME File=DXI$1STIME.:E05TSI                            TUE 07/29/97 15:11 Page:31
      240    13628    2           END;

  13628  1 000246   200010 116100                    CMPQ    TEMP_END$,,AUTO
         1 000247   000240 602000 1                  TNC     s:13626
         1 000250   000240 600000 1                  TZE     s:13626

      241    13629        /* Set up PTRs for Alternate DEFs */
      242    13630    1        D_ALTDOM = SCHEMA$ -> DX$OUCNT.DOM;

  13630  1 000251   000000 470400 xsym               LDP0    SCHEMA$
         1 000252   000000 236100                    LDQ     0,,PR0
         1 000253   000022 772000                    QRL     18
         1 000254   000000 756000 xsym               STQ     D_ALTDOM

      243    13631    1        IF D_ALTDOM ~= 0

  13631  1 000255   000340 600000 1                  TZE     s:13653

      244    13632    2        THEN DO;

      245    13633    2             CALL DXC$PTREND(AEDEF$,TEMP$) ALTRET(NODEFS6);

  13633  1 000256   200007 631500                    EPPR1   TEMP$,,AUTO
         1 000257   200017 451500                    STP1    MPTR$+3,,AUTO
         1 000260   000004 236000 2                  LDQ     4
         1 000261   200016 756100                    STQ     MPTR$+2,,AUTO
         1 000262   200016 630500                    EPPR0   MPTR$+2,,AUTO
         1 000263   000020 631400 xsym               EPPR1   B_VECTNIL+16
         1 000264   000000 701000 xent               TSX1    DXC$PTREND
         1 000265   000310 702000 1                  TSX2    NODEFS6

      246    13634    2             D_AEDEF_END$ = PINCRW(TEMP$, -(SIZEW(B$EDEF) - 1) );

  13634  1 000266   200007 236100                    LDQ     TEMP$,,AUTO
         1 000267   777777 036003                    ADLQ    -1,DU
         1 000270   000000 756000 xsym               STQ     D_AEDEF_END$

PL6.E3A0      #001=DXI$1STIME File=DXI$1STIME.:E05TSI                            TUE 07/29/97 15:11 Page:32
      247    13635    2             TEMP$ = AEDEF$;

  13635  1 000271   000000 236000 xsym               LDQ     AEDEF$
         1 000272   200007 756100                    STQ     TEMP$,,AUTO

      248    13636    3             DO WHILE(TEMP$ <= D_AEDEF_END$);

  13636  1 000273   000000 116000 xsym               CMPQ    D_AEDEF_END$
         1 000274   000276 600000 1                  TZE     s:13637
         1 000275   000307 603000 1                  TRC     s:13640

      249    13637    3                  TEMP$->B$EDEF.LFLAGS.FAULTAGS = '0'B;

  13637  1 000276   200007 470500                    LDP0    TEMP$,,AUTO
         1 000277   000003 236000 2                  LDQ     3
         1 000300   000000 356100                    ANSQ    0,,PR0

      250    13638    3                  TEMP$ = PINCRW(TEMP$,SIZEW(B$EDEF));

  13638  1 000301   200007 236100                    LDQ     TEMP$,,AUTO
         1 000302   000002 036003                    ADLQ    2,DU
         1 000303   200007 756100                    STQ     TEMP$,,AUTO

      251    13639    3                END;

  13639  1 000304   000000 116000 xsym               CMPQ    D_AEDEF_END$
         1 000305   000276 602000 1                  TNC     s:13637
         1 000306   000276 600000 1                  TZE     s:13637

      252    13640    3             DO WHILE('0'B);

  13640  1 000307   000316 710000 1                  TRA     s:13645

      253    13641    3   NODEFS6:
      254    13642    3                  S_D.ERROR = 283;   /* E@NODEFS6 */

  13642  1 000310   000433 235007       NODEFS6      LDA     283,DL
PL6.E3A0      #001=DXI$1STIME File=DXI$1STIME.:E05TSI                            TUE 07/29/97 15:11 Page:33
         1 000311   000000 470400 xsym               LDP0    S_D$
         1 000312   000013 755100                    STA     11,,PR0

      255    13643    3                  CALL DDE$ERROR;

  13643  1 000313   000002 631400 xsym               EPPR1   B_VECTNIL+2
         1 000314   000000 701000 xent               TSX1    DDE$ERROR
         1 000315   000000 011000                    NOP     0

      256    13644    3                END;

      257    13645    2             CALL DXC$PTREND(ASDEF$, TEMP$) ALTRET(NODEFS7);

  13645  1 000316   200007 630500                    EPPR0   TEMP$,,AUTO
         1 000317   200017 450500                    STP0    MPTR$+3,,AUTO
         1 000320   000005 236000 2                  LDQ     5
         1 000321   200016 756100                    STQ     MPTR$+2,,AUTO
         1 000322   200016 630500                    EPPR0   MPTR$+2,,AUTO
         1 000323   000020 631400 xsym               EPPR1   B_VECTNIL+16
         1 000324   000000 701000 xent               TSX1    DXC$PTREND
         1 000325   000332 702000 1                  TSX2    NODEFS7

      258    13646    2             D_ASDEF_END$ = PINCRW(TEMP$, -(SIZEW(B$SDEF) - 1));

  13646  1 000326   200007 236100                    LDQ     TEMP$,,AUTO
         1 000327   777777 036003                    ADLQ    -1,DU
         1 000330   000000 756000 xsym               STQ     D_ASDEF_END$

      259    13647    3             DO WHILE ('0'B);

  13647  1 000331   000340 710000 1                  TRA     s:13653

      260    13648    3   NODEFS7:
      261    13649    3                  S_D.ERROR = 284;   /* E@NODEFS7 */

  13649  1 000332   000434 235007       NODEFS7      LDA     284,DL
         1 000333   000000 470400 xsym               LDP0    S_D$
PL6.E3A0      #001=DXI$1STIME File=DXI$1STIME.:E05TSI                            TUE 07/29/97 15:11 Page:34
         1 000334   000013 755100                    STA     11,,PR0

      262    13650    3                  CALL DDE$ERROR;

  13650  1 000335   000002 631400 xsym               EPPR1   B_VECTNIL+2
         1 000336   000000 701000 xent               TSX1    DDE$ERROR
         1 000337   000000 011000                    NOP     0

      263    13651    3                END;

      264    13652    2           END;

      265    13653    1        S_D.EDEF$ = B$DEF.NINFO.EDEF$(0); /* Fake schema stuff for ALT VAR setup */

  13653  1 000340   000000 470400 xsym               LDP0    DEFDIR$
         1 000341   000012 236100                    LDQ     10,,PR0
         1 000342   000000 471400 xsym               LDP1    S_D$
         1 000343   101042 756100                    STQ     546,,PR1

      266    13654    1        S_D.EDEF_END$ = PINCRW(B$DEF.NINFO.EDEF$(1),-SIZEW(B$EDEF));

  13654  1 000344   000025 236100                    LDQ     21,,PR0
         1 000345   777776 036003                    ADLQ    -2,DU
         1 000346   101044 756100                    STQ     548,,PR1

      267    13655    1        S_D.SDEF$ = B$DEF.NINFO.SDEF$(0);

  13655  1 000347   000013 236100                    LDQ     11,,PR0
         1 000350   101043 756100                    STQ     547,,PR1

      268    13656    1        S_D.SDEF_END$ = PINCRW(B$DEF.NINFO.SDEF$(1),-SIZEW(B$SDEF));

  13656  1 000351   000026 236100                    LDQ     22,,PR0
         1 000352   777776 036003                    ADLQ    -2,DU
         1 000353   101045 756100                    STQ     549,,PR1

      269    13657    1        D_SCHEMA$ = SCHEMA$;
PL6.E3A0      #001=DXI$1STIME File=DXI$1STIME.:E05TSI                            TUE 07/29/97 15:11 Page:35

  13657  1 000354   000000 236000 xsym               LDQ     SCHEMA$
         1 000355   000000 756000 xsym               STQ     D_SCHEMA$

      270    13658    1        S_D.DNAME$ = DNAME$;

  13658  1 000356   000000 236000 xsym               LDQ     DNAME$
         1 000357   101041 756100                    STQ     545,,PR1

      271    13659    1        D_SYMBOLS = '1'B;

  13659  1 000360   400000 236003                    LDQ     -131072,DU
         1 000361   000000 756000 xsym               STQ     D_SYMBOLS

      272    13660        /* Set up address of H_XDELTA for speed up of normal operation */
      273    13661    1        CALL DDS$SD_SRCH(H_XDELTA$, TEMP$) ALTRET(GOT_H_XDELTA);

  13661  1 000362   200007 633500                    EPPR3   TEMP$,,AUTO
         1 000363   200017 453500                    STP3    MPTR$+3,,AUTO
         1 000364   000006 236000 2                  LDQ     6
         1 000365   200016 756100                    STQ     MPTR$+2,,AUTO
         1 000366   200016 630500                    EPPR0   MPTR$+2,,AUTO
         1 000367   000020 631400 xsym               EPPR1   B_VECTNIL+16
         1 000370   000000 701000 xent               TSX1    DDS$SD_SRCH
         1 000371   000373 702000 1                  TSX2    GOT_H_XDELTA

      274    13662    2        DO WHILE('0'B);

  13662  1 000372   000377 710000 1                  TRA     s:13667

  13661  1 000373                       GOT_H_XDELTA null
      275    13663    2   GOT_H_XDELTA: ;
      276    13664    2             H_XDELTA = TEMP$ -> B$SDEF.AD.ISADDR;

  13664  1 000373   200007 470500                    LDP0    TEMP$,,AUTO
         1 000374   000000 236100                    LDQ     0,,PR0
         1 000375   000032 376000 xsym               ANQ     B_VECTNIL+26
PL6.E3A0      #001=DXI$1STIME File=DXI$1STIME.:E05TSI                            TUE 07/29/97 15:11 Page:36
         1 000376   000000 756000 xsym               STQ     H_XDELTA

      277    13665    2           END;

      278    13666        /* Set up address of IRM_NOKP_SCR for speed up of normal operation */
      279    13667    1        CALL DDS$SD_SRCH(IRM_NOKP_SCR$, TEMP$) ALTRET(GOT_IRM_NOKP_SCR);

  13667  1 000377   200007 630500                    EPPR0   TEMP$,,AUTO
         1 000400   200017 450500                    STP0    MPTR$+3,,AUTO
         1 000401   000007 236000 2                  LDQ     7
         1 000402   200016 756100                    STQ     MPTR$+2,,AUTO
         1 000403   200016 630500                    EPPR0   MPTR$+2,,AUTO
         1 000404   000020 631400 xsym               EPPR1   B_VECTNIL+16
         1 000405   000000 701000 xent               TSX1    DDS$SD_SRCH
         1 000406   000410 702000 1                  TSX2    GOT_IRM_NOKP_SCR

      280    13668    2        DO WHILE('0'B);

  13668  1 000407   000414 710000 1                  TRA     s:13673

      281    13669    2   GOT_IRM_NOKP_SCR:
      282    13670    2             IRM_NOKP_SCR = TEMP$ -> B$SDEF.AD.ISADDR;

  13670  1 000410   200007 470500       GOT_IRM_NOK* LDP0    TEMP$,,AUTO
         1 000411   000000 236100                    LDQ     0,,PR0
         1 000412   000032 376000 xsym               ANQ     B_VECTNIL+26
         1 000413   000000 756000 xsym               STQ     IRM_NOKP_SCR

      283    13671    2           END;

      284    13672        /* Set up B$USRT$ for UU# */
      285    13673    1        CALL DDS$SD_SRCH(B$U_SYM$,MPTR$) ALTRET(GOTB$U);

  13673  1 000414   200014 630500                    EPPR0   MPTR$,,AUTO
         1 000415   200017 450500                    STP0    MPTR$+3,,AUTO
         1 000416   000010 236000 2                  LDQ     8
         1 000417   200016 756100                    STQ     MPTR$+2,,AUTO
PL6.E3A0      #001=DXI$1STIME File=DXI$1STIME.:E05TSI                            TUE 07/29/97 15:11 Page:37
         1 000420   200016 630500                    EPPR0   MPTR$+2,,AUTO
         1 000421   000020 631400 xsym               EPPR1   B_VECTNIL+16
         1 000422   000000 701000 xent               TSX1    DDS$SD_SRCH
         1 000423   000433 702000 1                  TSX2    GOTB$U

      286    13674    1        S_D.ERROR = 512;          /* E@NO_B$USRT$ */

  13674  1 000424   001000 235007                    LDA     512,DL
         1 000425   000000 470400 xsym               LDP0    S_D$
         1 000426   000013 755100                    STA     11,,PR0

      287    13675    1        CALL DDE$ERROR;

  13675  1 000427   000002 631400 xsym               EPPR1   B_VECTNIL+2
         1 000430   000000 701000 xent               TSX1    DDE$ERROR
         1 000431   000000 011000                    NOP     0

      288    13676    2        DO WHILE('0'B);

  13676  1 000432   000437 710000 1                  TRA     s:13681

      289    13677    2   GOTB$U:
      290    13678    2             D_B$USER = MPTR$->B$SDEF.AD.ISADDR;

  13678  1 000433   200014 470500       GOTB$U       LDP0    MPTR$,,AUTO
         1 000434   000000 236100                    LDQ     0,,PR0
         1 000435   000032 376000 xsym               ANQ     B_VECTNIL+26
         1 000436   000000 756000 xsym               STQ     D_B$USER

      291    13679    2           END;

      292    13680        /* Setup CNODE$ to locate currently mapped monitor overlay */
      293    13681    1        CALL DDS$SD_SRCH(S_CNODE_SYM$,MPTR$) ALTRET(GOTS_CNODE);

  13681  1 000437   200014 630500                    EPPR0   MPTR$,,AUTO
         1 000440   200017 450500                    STP0    MPTR$+3,,AUTO
         1 000441   000011 236000 2                  LDQ     9
PL6.E3A0      #001=DXI$1STIME File=DXI$1STIME.:E05TSI                            TUE 07/29/97 15:11 Page:38
         1 000442   200016 756100                    STQ     MPTR$+2,,AUTO
         1 000443   200016 630500                    EPPR0   MPTR$+2,,AUTO
         1 000444   000020 631400 xsym               EPPR1   B_VECTNIL+16
         1 000445   000000 701000 xent               TSX1    DDS$SD_SRCH
         1 000446   000456 702000 1                  TSX2    GOTS_CNODE

      294    13682    1        S_D.ERROR = 513;           /* E@NOS_CNODE */

  13682  1 000447   001001 235007                    LDA     513,DL
         1 000450   000000 470400 xsym               LDP0    S_D$
         1 000451   000013 755100                    STA     11,,PR0

      295    13683    1        CALL DDE$ERROR;

  13683  1 000452   000002 631400 xsym               EPPR1   B_VECTNIL+2
         1 000453   000000 701000 xent               TSX1    DDE$ERROR
         1 000454   000000 011000                    NOP     0

      296    13684    2        DO WHILE ('0'B);

  13684  1 000455   000464 710000 1                  TRA     s:13689

      297    13685    2   GOTS_CNODE:
      298    13686    2             CNODE$ = PINCRW(MIS$,MPTR$ -> B$SDEF.AD.ISADDR);

  13686  1 000456   200014 470500       GOTS_CNODE   LDP0    MPTR$,,AUTO
         1 000457   000000 720100                    LXL0    0,,PR0
         1 000460   777777 360003                    ANX0    -1,DU
         1 000461   000000 636010                    EAQ     0,X0
         1 000462   000000 036000 xsym               ADLQ    MIS$
         1 000463   000000 756000 xsym               STQ     CNODE$

      299    13687    2           END;

      300    13688        /* Establish special location */
      301    13689    1        IF S_D.EDEF$ ~= ADDR( NIL )

PL6.E3A0      #001=DXI$1STIME File=DXI$1STIME.:E05TSI                            TUE 07/29/97 15:11 Page:39
  13689  1 000464   000000 470400 xsym               LDP0    S_D$
         1 000465   001042 236100                    LDQ     546,,PR0
         1 000466   000001 116000 xsym               CMPQ    B_VECTNIL+1
         1 000467   000513 600000 1                  TZE     NOSL

      302    13690    2        THEN DO;

      303    13691    2             CALL DDS$ED_SRCH( SP$, TEMP$ ) ALTRET( FNDSP );

  13691  1 000470   200007 631500                    EPPR1   TEMP$,,AUTO
         1 000471   200017 451500                    STP1    MPTR$+3,,AUTO
         1 000472   000012 236000 2                  LDQ     10
         1 000473   200016 756100                    STQ     MPTR$+2,,AUTO
         1 000474   200016 630500                    EPPR0   MPTR$+2,,AUTO
         1 000475   000020 631400 xsym               EPPR1   B_VECTNIL+16
         1 000476   000000 701000 xent               TSX1    DDS$ED_SRCH
         1 000477   000501 702000 1                  TSX2    FNDSP

      304    13692    2             GOTO NOSL;

  13692  1 000500   000513 710000 1                  TRA     NOSL

      305    13693    2   FNDSP:
      306    13694    2             S_D.PADDR = TEMP$ -> B$EDEF.ISADDR;

  13694  1 000501   200007 470500       FNDSP        LDP0    TEMP$,,AUTO
         1 000502   000000 471400 xsym               LDP1    S_D$
         1 000503   000000 236100                    LDQ     0,,PR0
         1 000504   000032 376000 xsym               ANQ     B_VECTNIL+26
         1 000505   104765 756100                    STQ     2549,,PR1

      307    13695    2             MSL$ = PINCRW( MIS$, S_D.PADDR );

  13695  1 000506   104765 720100                    LXL0    2549,,PR1
         1 000507   000000 636010                    EAQ     0,X0
         1 000510   000000 036000 xsym               ADLQ    MIS$
         1 000511   000000 756000 xsym               STQ     MSL$
PL6.E3A0      #001=DXI$1STIME File=DXI$1STIME.:E05TSI                            TUE 07/29/97 15:11 Page:40

      308    13696    2           END;

  13696  1 000512   000521 710000 1                  TRA     s:13703

      309    13697    1        ELSE
      310    13698    2   NOSL: DO;

  13698  1 000513                       NOSL         null
      311    13699    2             S_D.ERROR = 107;          /* E@NOSL$ */

  13699  1 000513   000153 235007                    LDA     107,DL
         1 000514   000000 470400 xsym               LDP0    S_D$
         1 000515   000013 755100                    STA     11,,PR0

      312    13700    2             CALL DDE$ERROR;

  13700  1 000516   000002 631400 xsym               EPPR1   B_VECTNIL+2
         1 000517   000000 701000 xent               TSX1    DDE$ERROR
         1 000520   000000 011000                    NOP     0

      313    13701    2           END;

      314    13702        /* Establish default schema access */
      315    13703    1        D_XOU_NAME = DD_XOU;

  13703  1 000521   000000 100400                    MLR     fill='000'O
         1 000522   000004 000012 0                  ADSC9   DD_XOU                   cn=0,n=10
         1 000523   000000 000040 xsym               ADSC9   D_XOU_NAME               cn=0,n=32

      316    13704    1        D_AXOU_NAME = DD_XOU;

  13704  1 000524   000000 100400                    MLR     fill='000'O
         1 000525   000004 000012 0                  ADSC9   DD_XOU                   cn=0,n=10
         1 000526   000000 000040 xsym               ADSC9   D_AXOU_NAME              cn=0,n=32

      317    13705    1        S_D.XOU_NAME = DD_XOU;
PL6.E3A0      #001=DXI$1STIME File=DXI$1STIME.:E05TSI                            TUE 07/29/97 15:11 Page:41

  13705  1 000527   000000 470400 xsym               LDP0    S_D$
         1 000530   000100 100400                    MLR     fill='000'O
         1 000531   000004 000012 0                  ADSC9   DD_XOU                   cn=0,n=10
         1 000532   001021 000040                    ADSC9   529,,PR0                 cn=0,n=32

      318    13706    1        CALL DDS$PD_SRCH( DD_XOU$, TEMP$ ) ALTRET( GOTXOU );

  13706  1 000533   200007 631500                    EPPR1   TEMP$,,AUTO
         1 000534   200017 451500                    STP1    MPTR$+3,,AUTO
         1 000535   000013 236000 2                  LDQ     11
         1 000536   200016 756100                    STQ     MPTR$+2,,AUTO
         1 000537   200016 630500                    EPPR0   MPTR$+2,,AUTO
         1 000540   000020 631400 xsym               EPPR1   B_VECTNIL+16
         1 000541   000000 701000 xent               TSX1    DDS$PD_SRCH
         1 000542   000544 702000 1                  TSX2    GOTXOU

      319    13707    2        DO WHILE ( '0'B );

  13707  1 000543   000566 710000 1                  TRA     NOXOU

      320    13708    2   GOTXOU:
      321    13709    2             CALL DDS$EQCS#( POFFW( TEMP$, S_D.EDEF$ ) / SIZEW( B$EDEF ) ) ALTRET(
             13709                      NOXOU );

  13709  1 000544   000000 470400 xsym  GOTXOU       LDP0    S_D$
         1 000545   001042 236100                    LDQ     546,,PR0
         1 000546   000022 772000                    QRL     18
         1 000547   200016 756100                    STQ     MPTR$+2,,AUTO
         1 000550   200007 236100                    LDQ     TEMP$,,AUTO
         1 000551   000022 772000                    QRL     18
         1 000552   200016 136100                    SBLQ    MPTR$+2,,AUTO
         1 000553   000002 506007                    DIV     2,DL
         1 000554   200017 756100                    STQ     MPTR$+3,,AUTO
         1 000555   200017 631500                    EPPR1   MPTR$+3,,AUTO
         1 000556   200020 451500                    STP1    MPTR$+4,,AUTO
         1 000557   200020 630500                    EPPR0   MPTR$+4,,AUTO
PL6.E3A0      #001=DXI$1STIME File=DXI$1STIME.:E05TSI                            TUE 07/29/97 15:11 Page:42
         1 000560   000017 631400 xsym               EPPR1   B_VECTNIL+15
         1 000561   000000 701000 xent               TSX1    DDS$EQCS#
         1 000562   000566 702000 1                  TSX2    NOXOU

      322    13710    2             CALL DDS$SET_Q2MX ALTRET( NOXOU );

  13710  1 000563   000002 631400 xsym               EPPR1   B_VECTNIL+2
         1 000564   000000 701000 xent               TSX1    DDS$SET_Q2MX
         1 000565   000566 702000 1                  TSX2    NOXOU

      323    13711    2           END;

      324    13712    1   NOXOU:
      325    13713        /* Establish ALT VAR schema for ALT SCHEMA */
      326    13714    1        IF D_ALTDOM = 0

  13714  1 000566   000000 235000 xsym  NOXOU        LDA     D_ALTDOM
         1 000567   000634 600000 1                  TZE     NOAXOU

      327    13715    1        THEN GOTO NOAXOU;
      328    13716    1        S_D.EDEF$ = AEDEF$;

  13716  1 000570   000000 236000 xsym               LDQ     AEDEF$
         1 000571   000000 470400 xsym               LDP0    S_D$
         1 000572   001042 756100                    STQ     546,,PR0

      329    13717    1        S_D.EDEF_END$ = D_AEDEF_END$;

  13717  1 000573   000000 236000 xsym               LDQ     D_AEDEF_END$
         1 000574   001044 756100                    STQ     548,,PR0

      330    13718    1        S_D.DNAME$ = ADNAME$;

  13718  1 000575   000000 236000 xsym               LDQ     ADNAME$
         1 000576   001041 756100                    STQ     545,,PR0

      331    13719    1        S_D.OVERLAID = '0'B;
PL6.E3A0      #001=DXI$1STIME File=DXI$1STIME.:E05TSI                            TUE 07/29/97 15:11 Page:43

  13719  1 000577   004764 450100                    STZ     2548,,PR0

      332    13720    1        CALL DDS$PD_SRCH(DD_XOU$,TEMP$) ALTRET(GOTAXOU);

  13720  1 000600   200007 631500                    EPPR1   TEMP$,,AUTO
         1 000601   200017 451500                    STP1    MPTR$+3,,AUTO
         1 000602   000013 236000 2                  LDQ     11
         1 000603   200016 756100                    STQ     MPTR$+2,,AUTO
         1 000604   200016 630500                    EPPR0   MPTR$+2,,AUTO
         1 000605   000020 631400 xsym               EPPR1   B_VECTNIL+16
         1 000606   000000 701000 xent               TSX1    DDS$PD_SRCH
         1 000607   000611 702000 1                  TSX2    GOTAXOU

      333    13721    2        DO WHILE ('0'B);

  13721  1 000610   000634 710000 1                  TRA     NOAXOU

      334    13722    2   GOTAXOU:
      335    13723    2             D_SCHEMA$ = ASCHEMA$;

  13723  1 000611   000000 236000 xsym  GOTAXOU      LDQ     ASCHEMA$
         1 000612   000000 756000 xsym               STQ     D_SCHEMA$

      336    13724    2             CALL DDS$EQCS#(POFFW(TEMP$,AEDEF$)/SIZEW(B$EDEF)) ALTRET(NOAXOU);

  13724  1 000613   000000 235000 xsym               LDA     AEDEF$
         1 000614   000022 771000                    ARL     18
         1 000615   200016 755100                    STA     MPTR$+2,,AUTO
         1 000616   200007 236100                    LDQ     TEMP$,,AUTO
         1 000617   000022 772000                    QRL     18
         1 000620   200016 136100                    SBLQ    MPTR$+2,,AUTO
         1 000621   000002 506007                    DIV     2,DL
         1 000622   200017 756100                    STQ     MPTR$+3,,AUTO
         1 000623   200017 630500                    EPPR0   MPTR$+3,,AUTO
         1 000624   200020 450500                    STP0    MPTR$+4,,AUTO
         1 000625   200020 630500                    EPPR0   MPTR$+4,,AUTO
PL6.E3A0      #001=DXI$1STIME File=DXI$1STIME.:E05TSI                            TUE 07/29/97 15:11 Page:44
         1 000626   000017 631400 xsym               EPPR1   B_VECTNIL+15
         1 000627   000000 701000 xent               TSX1    DDS$EQCS#
         1 000630   000634 702000 1                  TSX2    NOAXOU

      337    13725    2             CALL DDS$SET_Q2AX ALTRET(NOAXOU);

  13725  1 000631   000002 631400 xsym               EPPR1   B_VECTNIL+2
         1 000632   000000 701000 xent               TSX1    DDS$SET_Q2AX
         1 000633   000634 702000 1                  TSX2    NOAXOU

      338    13726    2           END;

      339    13727    1   NOAXOU:
      340    13728        /* Establish USE MON in use frame, setup for MON SCHEMA */
      341    13729    1        S_D.OVERLAID = '1'B;

  13729  1 000634   400000 236003       NOAXOU       LDQ     -131072,DU
         1 000635   000000 470400 xsym               LDP0    S_D$
         1 000636   004764 756100                    STQ     2548,,PR0

      342    13730    1        CALL DXB$CUSE;

  13730  1 000637   000002 631400 xsym               EPPR1   B_VECTNIL+2
         1 000640   000000 701000 xent               TSX1    DXB$CUSE
         1 000641   000000 011000                    NOP     0

      343    13731        /* Setup default syntax */
      344    13732    1        S_D.SYNTAX = %PL6ID;

  13732  1 000642   000001 235007                    LDA     1,DL
         1 000643   000000 470400 xsym               LDP0    S_D$
         1 000644   005235 755100                    STA     2717,,PR0

      345    13733    1        S_D.SYNTAX_DEFAULT = %PL6ID;

  13733  1 000645   005253 755100                    STA     2731,,PR0

PL6.E3A0      #001=DXI$1STIME File=DXI$1STIME.:E05TSI                            TUE 07/29/97 15:11 Page:45
      346    13734    2        DO I=0 TO SIZEW(DD_COMP_NODE_PTR$)-1;

  13734  1 000646   200013 450100                    STZ     I,,AUTO
         1 000647   000655 710000 1                  TRA     s:13736+1

      347    13735    2             DD_COMP_NODE_PTR$(I) -> DD_NODE.SUBNDS$(0) = DD_SYN_PL6(I);

  13735  1 000650   200013 720100                    LXL0    I,,AUTO
         1 000651   000000 470410 xsym               LDP0    DD_COMP_NODE_PTR$,X0
         1 000652   000000 236010 xsym               LDQ     DD_SYN_PL6,X0
         1 000653   000001 756100                    STQ     1,,PR0

      348    13736    2           END;

  13736  1 000654   200013 054100                    AOS     I,,AUTO
         1 000655   200013 235100                    LDA     I,,AUTO
         1 000656   000013 115007                    CMPA    11,DL
         1 000657   000650 604400 1                  TMOZ    s:13735

      349    13737        /* Establish @ and # patch space, if any */
      350    13738    1        S_D.GOT@ = '0'B;

  13738  1 000660   000000 470400 xsym               LDP0    S_D$
         1 000661   005054 450100                    STZ     2604,,PR0

      351    13739    1        S_D.GOT# = '0'B;

  13739  1 000662   005061 450100                    STZ     2609,,PR0

      352    13740    1        CALL DDI$GET_PATCH_SPACE;

  13740  1 000663   000002 631400 xsym               EPPR1   B_VECTNIL+2
         1 000664   000000 701000 xent               TSX1    DDI$GET_PATCH_SPACE
         1 000665   000000 011000                    NOP     0

      353    13741    1        IF NOT S_D.PATCH

PL6.E3A0      #001=DXI$1STIME File=DXI$1STIME.:E05TSI                            TUE 07/29/97 15:11 Page:46
  13741  1 000666   000000 470400 xsym               LDP0    S_D$
         1 000667   004754 234100                    SZN     2540,,PR0
         1 000670   000675 604000 1                  TMI     s:13744

      354    13742    1        THEN CALL DDR$REPORT( 11/*R_DELTA*/ );

  13742  1 000671   000014 630400 2                  EPPR0   12
         1 000672   000017 631400 xsym               EPPR1   B_VECTNIL+15
         1 000673   000000 701000 xent               TSX1    DDR$REPORT
         1 000674   000000 011000                    NOP     0

      355    13743                                                /**/
      356    13744    1        RETURN;

  13744  1 000675   000000 702200 xent               TSX2  ! X66_ARET

SP
 Sect OctLoc
   0     000   010102 137130   104105 114124   101*** ******                    .B_XDELTA...

SP$
 Sect OctLoc
   0     003   000000 006000                                                    ....

DD_XOU
 Sect OctLoc
   0     004   011102 137104   105114 124101   137104 ******                    .B_DELTA_D..

DD_XOU$
 Sect OctLoc
   0     007   000004 006000                                                    ....

H_XDELTAS
 Sect OctLoc
   0     010   010110 137130   104105 114124   101*** ******                    .H_XDELTA...

H_XDELTA$
PL6.E3A0      #001=DXI$1STIME File=DXI$1STIME.:E05TSI                            TUE 07/29/97 15:11 Page:47
 Sect OctLoc
   0     013   000010 006000                                                    ....

IRM_NOKP_SCRS
 Sect OctLoc
   0     014   014111 122115   137116 117113   120137 123103   122*** ******    .IRM_NOKP_SCR...

IRM_NOKP_SCR$
 Sect OctLoc
   0     020   000014 006000                                                    ....

B_PATCHIH
 Sect OctLoc
   0     021   011102 137120   101124 103110   111110 ******                    .B_PATCHIH..

B_PATCHDH
 Sect OctLoc
   0     024   011102 137120   101124 103110   104110 ******                    .B_PATCHDH..

(unnamed)
 Sect OctLoc
   0     027   000021 006000   000024 006000                                    ........

B$U_SYM
 Sect OctLoc
   0     031   007102 044125   123122 124044                                    .B$USRT$

B$U_SYM$
 Sect OctLoc
   0     033   000031 006000                                                    ....

S_CNODE_SYM
 Sect OctLoc
   0     034   007123 137103   116117 104105                                    .S_CNODE

S_CNODE_SYM$
 Sect OctLoc
PL6.E3A0      #001=DXI$1STIME File=DXI$1STIME.:E05TSI                            TUE 07/29/97 15:11 Page:48
   0     036   000034 006000                                                    ....

(unnamed)
 Sect OctLoc
   2     000   000100 663100   076040 040040   000000 006000   776777 777777    .@.@>   ........
   2     004   000000 006000   000000 006000   000013 006000   000020 006000    ................
   2     010   000033 006000   000036 006000   000003 006000   000007 006000    ................
   2     014   000015 006000                                                    ....
      357    13745                                                /**/
      358    13746                                                /**/
      359    13747    1   END DXI$1STIME;
      360    13748        %EOD;

PL6.E3A0      #001=DXI$1STIME File=DXI$1STIME.:E05TSI                            TUE 07/29/97 15:11 Page:49
--  Include file information  --

   DD_SD_M.:E05TOU  is referenced.
   XUH_MACRO_C.:E05TOU  is referenced.
   DD$BASED.:E05TOU  is referenced.
   DD_KNODES_D.:E05TOU  is referenced.
   XU_MACRO_C.:E05TOU  is referenced.
   DD_SRTN_C.:E05TOU  is referenced.
   DD_ACODE_C.:E05TOU  is referenced.
   DD_ICODE_C.:E05TOU  is referenced.
   DD$DITEM.:E05TOU  cannot be made into a system file and is referenced.
   B$OBJECT_C.:E05TOU  is referenced.
   B_STRINGS_C.:E05TOU  is referenced.
   XU_SUBS_C.:E05TOU  is referenced.
   DD_REPORT_R.:E05TOU  cannot be made into a system file and is referenced.
   DD_ERR_C.:E05TOU  is referenced.
   DD_PSUBS_C.:E05TOU  is referenced.
   DD_SUBS_C.:E05TOU  is referenced.
   B$JIT_C.:E05TOU  was found in the system file and is never referenced.
   CP_6_C.:E05TOU  was found in the system file and is never referenced.
      No diagnostics issued in procedure DXI$1STIME.

   Procedure DXI$1STIME requires 446 words for executable code.
   Procedure DXI$1STIME requires 18 words of local(AUTO) storage.
PL6.E3A0      #001=DXI$1STIME File=DXI$1STIME.:E05TSI                            TUE 07/29/97 15:11 Page:50
          *** CROSS REFERENCE LISTING ***
**     DENOTES     IDENTIFIER DEFINITION
<<                 IDENTIFIER'S VALUE SET
>>                 IDENTIFIER'S VALUE USED
<>                 IDENTIFIER SET AND/OR USED
--                 IDENTIFIER REFERENCED
PL6.E3A0      #001=DXI$1STIME File=DXI$1STIME.:E05TSI                            TUE 07/29/97 15:11 Page:51
          MINI XREF LISTING

ADNAME$
      5700**DCL     13718>>ASSIGN
AEDEF$
      5698**DCL     13633<>CALL    13635>>ASSIGN  13716>>ASSIGN  13724>>CALL
ASCHEMA$
      5701**DCL     13723>>ASSIGN
ASDEF$
      5699**DCL     13645<>CALL
B$DEF.NINFO.EDEF$
     10771**DCL     13623>>ASSIGN  13624>>ASSIGN  13653>>ASSIGN  13654>>ASSIGN
B$DEF.NINFO.SDEF$
     10772**DCL     13655>>ASSIGN  13656>>ASSIGN
B$DEF.NODES
     10765**DCL     13624>>ASSIGN
B$EDEF
      5510**DCL     13624--ASSIGN  13627--ASSIGN  13634--ASSIGN  13638--ASSIGN  13654--ASSIGN  13709--CALL
     13724--CALL
B$EDEF.ISADDR
      5533**DCL     13694>>ASSIGN
B$EDEF.LFLAGS.FAULTAGS
      5525**DCL     13626<<ASSIGN  13637<<ASSIGN
B$EDEF.OU
      5527**DCL      5533--REDEF
B$SDEF
      5580**DCL     13646--ASSIGN  13656--ASSIGN
B$SDEF.AD.ISADDR
      5606**DCL     13664>>ASSIGN  13670>>ASSIGN  13678>>ASSIGN  13686>>ASSIGN
B$SDEF.AD.OU
      5600**DCL      5606--REDEF
B$SDEF.VALUE
      5581**DCL      5584--REDEF
B$U_SYM
PL6.E3A0      #001=DXI$1STIME File=DXI$1STIME.:E05TSI                            TUE 07/29/97 15:11 Page:52
      5675**DCL      5678--DCLINIT
B$U_SYM.TEXT
      5677**DCL      5676--DCLINIT
B$U_SYM$
      5678**DCL     13673<>CALL
B_PATCHDH
      5670**DCL      5674--DCLINIT
B_PATCHDH.TEXT
      5672**DCL      5671--DCLINIT
B_PATCHIH
      5667**DCL      5673--DCLINIT
B_PATCHIH.TEXT
      5669**DCL      5668--DCLINIT
CNODE$
      5695**DCL     13686<<ASSIGN
DCTX_LP
      5687**DCL     13610>>ASSIGN  13617>>ASSIGN
DCTX_ME
      5686**DCL     13613>>ASSIGN  13614>>ASSIGN  13616>>ASSIGN
DCTX_PATCH
      5688**DCL     13609>>ASSIGN
DDE$ERROR
     13515**DCL-ENT 13643--CALL    13650--CALL    13675--CALL    13683--CALL    13700--CALL
DDI$GET_PATCH_SPACE
     13522**DCL-ENT 13740--CALL
DDR$REPORT
     13516**DCL-ENT 13742--CALL
DDS$ED_SRCH
     13517**DCL-ENT 13691--CALL
DDS$EQCS#
     13518**DCL-ENT 13709--CALL    13724--CALL
DDS$PD_SRCH
     13519**DCL-ENT 13706--CALL    13720--CALL
DDS$SD_SRCH
     13520**DCL-ENT 13661--CALL    13667--CALL    13673--CALL    13681--CALL
DDS$SET_Q2AX
PL6.E3A0      #001=DXI$1STIME File=DXI$1STIME.:E05TSI                            TUE 07/29/97 15:11 Page:53
     13526**DCL-ENT 13725--CALL
DDS$SET_Q2MX
     13525**DCL-ENT 13710--CALL
DD_COMP_NODE_PTR$
      9054**DCL     13734--DOINDEX 13735>>ASSIGN
DD_DEBUG
      5683**DCL     13593>>ASSIGN
DD_NODE.SUBNDS$
      9234**DCL     13735<<ASSIGN
DD_REPORT_FLAGS
      1169**DCL     13621>>ASSIGN
DD_SYN_PL6
      9435**DCL     13735>>ASSIGN
DD_XOU
      5653**DCL      5656--DCLINIT 13703>>ASSIGN  13704>>ASSIGN  13705>>ASSIGN
DD_XOU.TEXT
      5655**DCL      5654--DCLINIT
DD_XOU$
      5656**DCL     13706<>CALL    13720<>CALL
DEFDIR$
     10762**DCL     10764--IMP-PTR 13623>>ASSIGN  13624>>ASSIGN  13624>>ASSIGN  13653>>ASSIGN  13654>>ASSIGN
     13655>>ASSIGN  13656>>ASSIGN
DNAME$
      5696**DCL     13658>>ASSIGN
DUI$INIT_HOST
     13527**DCL-ENT 13605--CALL
DX$OUCNT.DOM
     10742**DCL     13630>>ASSIGN
DXB$CUSE
     13523**DCL-ENT 13730--CALL
DXC$PTREND
     13524**DCL-ENT 13633--CALL    13645--CALL
DX_VARCOM$
      5693**DCL     13560>>ASSIGN
DX_VARCOM_HIGH$
      5694**DCL     13561>>ASSIGN
PL6.E3A0      #001=DXI$1STIME File=DXI$1STIME.:E05TSI                            TUE 07/29/97 15:11 Page:54
D_AEDEF_END$
      5713**DCL     13634<<ASSIGN  13636>>DOWHILE 13717>>ASSIGN
D_ALTDOM
      5705**DCL     13630<<ASSIGN  13631>>IF      13714>>IF
D_ASDEF_END$
      5715**DCL     13646<<ASSIGN
D_AXOU_NAME
      5709**DCL     13704<<ASSIGN
D_B$USER
      5704**DCL     13678<<ASSIGN
D_CPU_TYPE
      5685**DCL     13534>>ASSIGN
D_PARSIZE
      5684**DCL     13594>>ASSIGN
D_SCHEMA$
      5702**DCL     13657<<ASSIGN  13723<<ASSIGN
D_SYMBOLS
      5703**DCL     13659<<ASSIGN
D_XOU_NAME
      5706**DCL     13703<<ASSIGN
ECHO_DEV
      5692**DCL     13617<<ASSIGN
FNDSP
     13694**LABEL   13691--CALLALT
GOTAXOU
     13723**LABEL   13720--CALLALT
GOTB$U
     13678**LABEL   13673--CALLALT
GOTS_CNODE
     13686**LABEL   13681--CALLALT
GOTXOU
     13709**LABEL   13706--CALLALT
GOT_H_XDELTA
     13661**LABEL   13661--CALLALT
GOT_IRM_NOKP_SCR
     13670**LABEL   13667--CALLALT
PL6.E3A0      #001=DXI$1STIME File=DXI$1STIME.:E05TSI                            TUE 07/29/97 15:11 Page:55
HISTBUF
      5719**DCL     13599--ASSIGN  13600--ASSIGN
HIST_BUF
     10746**DCL     13601--ASSIGN
H_XDELTA
      5661**DCL     13664<<ASSIGN
H_XDELTA$
      5660**DCL     13661<>CALL
H_XDELTAS
      5657**DCL      5660--DCLINIT
H_XDELTAS.TEXT
      5659**DCL      5658--DCLINIT
I
      9436**DCL     13734<<DOINDEX 13735>>ASSIGN  13735>>ASSIGN
IN_DEV
      5689**DCL     13609<<ASSIGN  13613<<ASSIGN
IRM_NOKP_SCR
      5666**DCL     13670<<ASSIGN
IRM_NOKP_SCR$
      5665**DCL     13667<>CALL
IRM_NOKP_SCRS
      5662**DCL      5665--DCLINIT
IRM_NOKP_SCRS.TEXT
      5664**DCL      5663--DCLINIT
MIS$
      5716**DCL     13686>>ASSIGN  13695>>ASSIGN
MPTR$
     10775**DCL     13673<>CALL    13678>>ASSIGN  13681<>CALL    13686>>ASSIGN
MSL$
      5717**DCL     13695<<ASSIGN
NOAXOU
     13729**LABEL   13715--GOTO    13724--CALLALT 13725--CALLALT
NODEFS6
     13642**LABEL   13633--CALLALT
NODEFS7
     13649**LABEL   13645--CALLALT
PL6.E3A0      #001=DXI$1STIME File=DXI$1STIME.:E05TSI                            TUE 07/29/97 15:11 Page:56
NOSL
     13698**LABEL   13692--GOTO
NOXOU
     13714**LABEL   13709--CALLALT 13710--CALLALT
OUT_DEV
      5690**DCL     13610<<ASSIGN  13614<<ASSIGN
OUT_DEV_SAVE
      5691**DCL     13616<<ASSIGN
SAVEIC
      5506**DCL     13530<<ASSIGN  13533>>ASSIGN
SAVEX0
      5720**DCL     13557>>IF
SCHEMA$
      5697**DCL     13630>>ASSIGN  13657>>ASSIGN
SP
      5649**DCL      5652--DCLINIT
SP.TEXT
      5651**DCL      5650--DCLINIT
SP$
      5652**DCL     13691<>CALL
S_CNODE_SYM
      5679**DCL      5682--DCLINIT
S_CNODE_SYM.TEXT
      5681**DCL      5680--DCLINIT
S_CNODE_SYM$
      5682**DCL     13681<>CALL
S_D
     12206**DCL     13532<<ASSIGN
S_D.B$TREE$
     12869**DCL     13572<<ASSIGN
S_D.B$TREEHDR$
     12871**DCL     13573<<ASSIGN
S_D.BYPASS
     12629**DCL     13576<<ASSIGN
S_D.BYPASS_SAVE
     12337**DCL     13577<<ASSIGN
PL6.E3A0      #001=DXI$1STIME File=DXI$1STIME.:E05TSI                            TUE 07/29/97 15:11 Page:57
S_D.CURRENT_CHANNEL
     13149**DCL     13151--REDEF
S_D.DEBUGA
     12301**DCL     12303--REDEF
S_D.DEBUGF
     12303**DCL     13593<<ASSIGN
S_D.DNAME$
     12643**DCL     13565<<ASSIGN  13658<<ASSIGN  13718<<ASSIGN
S_D.DRTN$
     12754**DCL     13574<<ASSIGN
S_D.EDEF$
     12645**DCL     13566<<ASSIGN  13653<<ASSIGN  13689>>IF      13709>>CALL    13716<<ASSIGN
S_D.EDEF_END$
     12649**DCL     13654<<ASSIGN  13717<<ASSIGN
S_D.EFMT_DEFAULT
     12817**DCL     13586<<ASSIGN
S_D.EIS
     13259**DCL     13288--REDEF
S_D.ERROR
     12230**DCL     13642<<ASSIGN  13649<<ASSIGN  13674<<ASSIGN  13682<<ASSIGN  13699<<ASSIGN
S_D.ERROR_SYM$
     12254**DCL     13592<<ASSIGN
S_D.EWSQ#
     12226**DCL     13559<<ASSIGN
S_D.FAULTCMD$
     12216**DCL     13590<<ASSIGN
S_D.FIND.MASK_F
     13012**DCL     13581<<ASSIGN
S_D.FIND.NUM
     13010**DCL     13580<<ASSIGN
S_D.FMT_DEFAULT
     12485**DCL     13585<<ASSIGN
S_D.FPRG_CONTEXT$
     12341**DCL     13563<<ASSIGN
S_D.GOT#
     12927**DCL     13739<<ASSIGN
PL6.E3A0      #001=DXI$1STIME File=DXI$1STIME.:E05TSI                            TUE 07/29/97 15:11 Page:58
S_D.GOT@
     12917**DCL     13738<<ASSIGN
S_D.HIST.ACTIVE
     12794**DCL     13603<<ASSIGN
S_D.HIST.CURR$
     12786**DCL     13600<<ASSIGN
S_D.HIST.EMPTY
     12796**DCL     13602<<ASSIGN
S_D.HIST.END$
     12784**DCL     13601<<ASSIGN
S_D.HIST.START$
     12782**DCL     13599<<ASSIGN  13601>>ASSIGN
S_D.HOST_MESSAGE_BUF_REMOTE
     13192**DCL     13193--REDEF   13207--REDEF
S_D.HW_FLTIC_OK
     13432**DCL     13540<<ASSIGN  13545<<ASSIGN  13550<<ASSIGN  13555<<ASSIGN
S_D.HW_PTB_UNITS
     13436**DCL     13537<<ASSIGN  13542<<ASSIGN  13547<<ASSIGN  13552<<ASSIGN
S_D.HW_RES_MEM
     13434**DCL     13538<<ASSIGN  13543<<ASSIGN  13548<<ASSIGN  13553<<ASSIGN
S_D.HW_TYPE
     13430**DCL     13534<<ASSIGN  13535>>DOCASE
S_D.HW_WSQ0PT
     13438**DCL     13539<<ASSIGN  13544<<ASSIGN  13549<<ASSIGN  13554<<ASSIGN
S_D.IND$
     12291**DCL     13598<<ASSIGN
S_D.JDE
     12806**DCL     12807--REDEF
S_D.K$EEP.TYPE
     12679**DCL     13595<<ASSIGN
S_D.L$.FMT
     12385**DCL     13588<<ASSIGN
S_D.L$.SIZE
     12384**DCL     13587<<ASSIGN
S_D.L$.VALUE
     12359**DCL     12365--REDEF   12373--REDEF   12376--REDEF   12379--REDEF   12382--REDEF
PL6.E3A0      #001=DXI$1STIME File=DXI$1STIME.:E05TSI                            TUE 07/29/97 15:11 Page:59
S_D.L$.VALUE.L
     12360**DCL     12361--REDEF   12362--REDEF
S_D.L6_MESSAGE_BUF
     13213**DCL     13215--REDEF
S_D.LB0$
     12635**DCL     13568<<ASSIGN
S_D.MTREE$
     12859**DCL     13571<<ASSIGN
S_D.OUTPUT
     13179**DCL     13181--REDEF
S_D.OUT_WIDTH
     12232**DCL     13589<<ASSIGN
S_D.OVERLAID
     12863**DCL     13578<<ASSIGN  13719<<ASSIGN  13729<<ASSIGN
S_D.PADDR
     12865**DCL     13694<<ASSIGN  13695>>ASSIGN
S_D.PARSIZE
     12631**DCL     13594<<ASSIGN
S_D.PATCH
     12845**DCL     13558<<ASSIGN  13607>>IF      13741>>IF
S_D.RANGE
     12627**DCL     13579<<ASSIGN
S_D.REMOTE_MSG.FNCC
     13198**DCL     13199--REDEF
S_D.REMOTE_MSG.STXC
     13194**DCL     13195--REDEF
S_D.REMOTE_MSG.SUBFNCC
     13202**DCL     13203--REDEF
S_D.REPORT_FLAGS
     13016**DCL     13621<<ASSIGN
S_D.S$TEP.MODE
     13127**DCL     13604<<ASSIGN
S_D.SAD
     13058**DCL     13582<<ASSIGN
S_D.SAVEIC
     12212**DCL     13530>>ASSIGN  13533<<ASSIGN
PL6.E3A0      #001=DXI$1STIME File=DXI$1STIME.:E05TSI                            TUE 07/29/97 15:11 Page:60
S_D.SCHEMA
     12299**DCL     13575<<ASSIGN
S_D.SDEF$
     12647**DCL     13567<<ASSIGN  13655<<ASSIGN
S_D.SDEF_END$
     12651**DCL     13656<<ASSIGN
S_D.SL$
     12220**DCL     13564<<ASSIGN
S_D.SLP1$
     12222**DCL     13591<<ASSIGN
S_D.SV
     12258**DCL     12279--REDEF
S_D.SYNTAX
     13030**DCL     13732<<ASSIGN
S_D.SYNTAX_DEFAULT
     13054**DCL     13733<<ASSIGN
S_D.TREE$
     12857**DCL     13569<<ASSIGN
S_D.UPROMPT
     12985**DCL     13583<<ASSIGN
S_D.UPROMPT_SIZE
     12987**DCL     13584<<ASSIGN
S_D.UREG$
     12289**DCL     13597<<ASSIGN
S_D.USS$
     12218**DCL     13596<<ASSIGN
S_D.UTREE$
     12861**DCL     13570<<ASSIGN
S_D.VARCOM$
     12670**DCL     13560<<ASSIGN  13562>>ASSIGN
S_D.VARCOM_HIGH$
     12672**DCL     13561<<ASSIGN
S_D.VARNEXT$
     12256**DCL     13562<<ASSIGN
S_D.XOU_NAME
     12623**DCL     13705<<ASSIGN
PL6.E3A0      #001=DXI$1STIME File=DXI$1STIME.:E05TSI                            TUE 07/29/97 15:11 Page:61
S_D$
     13510**DCL     12206--IMP-PTR 13530>>ASSIGN  13532>>ASSIGN  13533>>ASSIGN  13534>>ASSIGN  13535>>DOCASE
     13537>>ASSIGN  13538>>ASSIGN  13539>>ASSIGN  13540>>ASSIGN  13542>>ASSIGN  13543>>ASSIGN  13544>>ASSIGN
     13545>>ASSIGN  13547>>ASSIGN  13548>>ASSIGN  13549>>ASSIGN  13550>>ASSIGN  13552>>ASSIGN  13553>>ASSIGN
     13554>>ASSIGN  13555>>ASSIGN  13558>>ASSIGN  13559>>ASSIGN  13560>>ASSIGN  13561>>ASSIGN  13562>>ASSIGN
     13562>>ASSIGN  13563>>ASSIGN  13564>>ASSIGN  13565>>ASSIGN  13566>>ASSIGN  13567>>ASSIGN  13568>>ASSIGN
     13569>>ASSIGN  13570>>ASSIGN  13571>>ASSIGN  13572>>ASSIGN  13573>>ASSIGN  13574>>ASSIGN  13575>>ASSIGN
     13576>>ASSIGN  13577>>ASSIGN  13578>>ASSIGN  13579>>ASSIGN  13580>>ASSIGN  13581>>ASSIGN  13582>>ASSIGN
     13583>>ASSIGN  13584>>ASSIGN  13585>>ASSIGN  13586>>ASSIGN  13587>>ASSIGN  13588>>ASSIGN  13589>>ASSIGN
     13590>>ASSIGN  13591>>ASSIGN  13592>>ASSIGN  13593>>ASSIGN  13594>>ASSIGN  13595>>ASSIGN  13596>>ASSIGN
     13597>>ASSIGN  13598>>ASSIGN  13599>>ASSIGN  13600>>ASSIGN  13601>>ASSIGN  13601>>ASSIGN  13602>>ASSIGN
     13603>>ASSIGN  13604>>ASSIGN  13607>>IF      13621>>ASSIGN  13642>>ASSIGN  13649>>ASSIGN  13653>>ASSIGN
     13654>>ASSIGN  13655>>ASSIGN  13656>>ASSIGN  13658>>ASSIGN  13674>>ASSIGN  13682>>ASSIGN  13689>>IF
     13694>>ASSIGN  13695>>ASSIGN  13699>>ASSIGN  13705>>ASSIGN  13709>>CALL    13716>>ASSIGN  13717>>ASSIGN
     13718>>ASSIGN  13719>>ASSIGN  13729>>ASSIGN  13732>>ASSIGN  13733>>ASSIGN  13738>>ASSIGN  13739>>ASSIGN
     13741>>IF
TEMP$
      5504**DCL     13623<<ASSIGN  13625>>DOWHILE 13626>>ASSIGN  13627<<ASSIGN  13627>>ASSIGN  13633<>CALL
     13634>>ASSIGN  13635<<ASSIGN  13636>>DOWHILE 13637>>ASSIGN  13638<<ASSIGN  13638>>ASSIGN  13645<>CALL
     13646>>ASSIGN  13661<>CALL    13664>>ASSIGN  13667<>CALL    13670>>ASSIGN  13691<>CALL    13694>>ASSIGN
     13706<>CALL    13709>>CALL    13720<>CALL    13724>>CALL
TEMP_END$
      5505**DCL     13624<<ASSIGN  13625>>DOWHILE
U$SE
     10755**DCL     13619<<ASSIGN  13619>>ASSIGN
USE$
      5721**DCL     10755--IMP-PTR 13619>>ASSIGN
USE_ORIG$
      5722**DCL     13619>>ASSIGN
XUSS$
      5718**DCL     13596>>ASSIGN  13597>>ASSIGN  13598>>ASSIGN
PL6.E3A0      #001=DXI$1STIME File=DXI$1STIME.:E05TSI                            TUE 07/29/97 15:11 Page:62
              *** CROSS REFERENCE LISTING ***
    **     DENOTES     IDENTIFIER DEFINITION
    <<                 IDENTIFIER'S VALUE SET
    >>                 IDENTIFIER'S VALUE USED
    <>                 IDENTIFIER SET AND/OR USED
    --                 IDENTIFIER REFERENCED
PL6.E3A0      #001=DXI$1STIME File=DXI$1STIME.:E05TSI                            TUE 07/29/97 15:11 Page:63
              MINI UREF LISTING

B_PATCHDH$    5674**DCL
B_PATCHIH$    5673**DCL
DD$COMP_NODE_PTR$    9055**DCL
DDS$SET_Q2X   13521**DCL-ENT
DD_COMPNODE$    9053**DCL
DD_HOST_NODE_PTR$    9050**DCL
DD_INSTR_CONT    9074**DCL
DD_L6X_NODE_PTR$    9052**DCL
DD_L6_NODE_PTR$    9051**DCL
DD_MODE_NODE_PTR$    9049**DCL
DXA$GETMPTR   13528**DCL-ENT
DXI$1STIME      16**PROC
D_EDEF_END$    5712**DCL
D_SDEF_END$    5714**DCL
NWORD    5507**DCL
SDD$    4927**DCL
SDD_L6$    4929**DCL
UBIN36$   10776**DCL
ZITEM$    4928**DCL
ZITEM_L6$    4930**DCL

PL6.E3A0      #002=DDI$GET_PATCH_SPACE File=DXI$1STIME.:E05TSI                   TUE 07/29/97 15:12 Page:64
      361        1        /*T***********************************************************/
      362        2        /*T*                                                         */
      363        3        /*T* Copyright (c) Bull HN Information Systems Inc., 1997    */
      364        4        /*T*                                                         */
      365        5        /*T***********************************************************/
      366        6        DDI$GET_PATCH_SPACE: PROC;
      367        7        /* Includes and based structures */
      368        8        %INCLUDE B$OBJECT_C;
      369     3438        %B$SDEF;
      370     3492        %SUB_LINKFLAGS;
      371     3501        %INCLUDE XUH_MACRO_C;
      372     3585        %INCLUDE DD_SD_M;
      373     4921        %S_D;
      374     6239        /* Local Auto */
      375     6240    1   DCL TEMP$ PTR;
      376     6241    1   DCL 1 NWORD,
      377     6242    1         2 ISADDR UBIN HALF ALIGNED;
      378     6243        /* Entry DCLs */
      379     6244    1   DCL DDS$SD_SRCH ENTRY(2) ALTRET;
      380     6245    1   DCL DDK$GETMVAL ENTRY(5) ALTRET;
      381     6246        /* Constants */
      382     6247    1   DCL 1 B_PATCHIH CONSTANT,
      383     6248    1         2 SIZE UBIN BYTE UNAL INIT(LENGTHC(B_PATCHIH.TEXT)),
      384     6249    1         2 TEXT CHAR(0) INIT('B_PATCHIH');
      385     6250    1   DCL 1 B_PATCHDH CONSTANT,
      386     6251    1         2 SIZE UBIN BYTE UNAL INIT(LENGTHC(B_PATCHDH.TEXT)),
      387     6252    1         2 TEXT CHAR(0) INIT('B_PATCHDH');
      388     6253    1   DCL B_PATCHIH$ PTR CONSTANT INIT(ADDR(B_PATCHIH));
      389     6254    1   DCL B_PATCHDH$ PTR CONSTANT INIT(ADDR(B_PATCHDH));
      390     6255        /* Establish @ and # patch space, if any */
      391     6256    1        CALL DDS$SD_SRCH(B_PATCHIH$, TEMP$) ALTRET(GOT@);
      392     6257    2        DO WHILE( '0'B );
      393     6258    2   GOT@:     ;
      394     6259    2             IF NOT TEMP$ -> B$SDEF.CONSTNT AND TEMP$ -> B$SDEF.AD.LFLAGS.SOURCE = %
              6259                      SOURCE_OBJECT#
      395     6260    3             THEN DO;
      396     6261    3                  S_D.HEAD@ = TEMP$ -> B$SDEF.AD.ISADDR;
PL6.E3A0      #002=DDI$GET_PATCH_SPACE File=DXI$1STIME.:E05TSI                   TUE 07/29/97 15:12 Page:65
      397     6262    3                  CALL DDK$GETMVAL(NWORD, S_D.HEAD@, 3, 0, '0'B) ALTRET(NO@NO);
      398     6263    3                  CALL DDK$GETMVAL(S_D.RSPACE@, S_D.HEAD@ + 1, 3, 0, '0'B) ALTRET(NO@NO
              6263                           );
      399     6264    3                  S_D.NEXT@ = NWORD.ISADDR;
      400     6265    3                  S_D.HIGH@ = S_D.NEXT@ + S_D.RSPACE@ - 1;
      401     6266    3                  S_D.GOT@ = '1'B;
      402     6267    3                  S_D.DEFINED@ = '1'B;
      403     6268    3                END;
      404     6269    2           END;                            /* DO WHILE ('0'B)  GOT@ */
      405     6270    1   NO@NO:;
      406     6271    1        CALL DDS$SD_SRCH(B_PATCHDH$, TEMP$) ALTRET(GOT#);
      407     6272    2        DO WHILE( '0'B );
      408     6273    2   GOT#:     ;
      409     6274    2             IF NOT TEMP$ -> B$SDEF.CONSTNT AND TEMP$ -> B$SDEF.AD.LFLAGS.SOURCE = %
              6274                      SOURCE_OBJECT#
      410     6275    3             THEN DO;
      411     6276    3                  S_D.HEAD# = TEMP$ -> B$SDEF.AD.ISADDR;
      412     6277    3                  CALL DDK$GETMVAL(NWORD, S_D.HEAD#, 3, 0, '0'B) ALTRET(NO#NO);
      413     6278    3                  CALL DDK$GETMVAL(S_D.RSPACE#, S_D.HEAD# + 1, 3, 0, '0'B) ALTRET(NO#NO
              6278                           );
      414     6279    3                  S_D.NEXT# = NWORD.ISADDR;
      415     6280    3                  S_D.HIGH# = S_D.NEXT# + S_D.RSPACE# - 1;
      416     6281    3                  S_D.GOT# = '1'B;
      417     6282    3                  S_D.DEFINED#= '1'B;
      418     6283    3                END;
      419     6284    2           END;                            /* DO WHILE ('0'B)  GOT# */
      420     6285    1   NO#NO:;
      421     6286    1        RETURN;
      422     6287    1   END DDI$GET_PATCH_SPACE;
      423     6288        %EOD;

PL6.E3A0      #002=DDI$GET_PATCH_SPACE File=DXI$1STIME.:E05TSI                   TUE 07/29/97 15:12 Page:66
--  Include file information  --

   DD_SD_M.:E05TOU  is referenced.
   XUH_MACRO_C.:E05TOU  is referenced.
   B$OBJECT_C.:E05TOU  is referenced.
   B$JIT_C.:E05TOU  was found in the system file and is never referenced.
   CP_6_C.:E05TOU  was found in the system file and is never referenced.
      No diagnostics issued in procedure DDI$GET_PATCH_SPACE.

   Procedure DDI$GET_PATCH_SPACE requires 125 words for executable code.
   Procedure DDI$GET_PATCH_SPACE requires 12 words of local(AUTO) storage.

PL6.E3A0      #002=DDI$GET_PATCH_SPACE File=DXI$1STIME.:E05TSI                   TUE 07/29/97 15:12 Page:67

 Object Unit name= DDI$GET_PATCH_SPACE                        File name= DXI$1STIME.:E05TOU
 UTS= JUL 29 '97 15:12:12.08 TUE                              Compiler= PL-6/E31         Sev=      00
 SharedLib= :SHARED_SYSTEM                                    Alt SharedLib=


    ****  Control sections  ****

 Sect   Type Bound  Init  Size OctSiz  Section name(segment info)
    0  RoData even  UTS      8     10  DDI$GET_PATCH_SPACE
    1   Proc  even  none   125    175  DDI$GET_PATCH_SPACE
    2  RoData even  none     7      7  DDI$GET_PATCH_SPACE

    ****  Entry defs  ****

                              Check   Calling
                             calling  sequence
  Sect OctLoc Primary Altret sequence   type   Parms  Name
     1      0   yes            yes      Std        0  DDI$GET_PATCH_SPACE

  ****  Entry refs  ****

         Check        Calling
        calling       sequence
Altret sequence SRef   type   Args  Name
 yes     yes           Std       2 DDS$SD_SRCH
 yes     yes           Std       5 DDK$GETMVAL
                       nStd      0 X66_AUTO_0
                       Std       0 B_CONSPOOL_D
                       nStd      0 X66_ARET

  ****  Data refs  ****

  Flags:  r = read only, s = secondary
Flgs Name                             Flgs Name                             Flgs Name
r    S_D$                                  B_VECTNIL
PL6.E3A0      #002=DDI$GET_PATCH_SPACE File=DXI$1STIME.:E05TSI                   TUE 07/29/97 15:12 Page:68

  ****  Segment refs  ****

  Flags:  r = read only, s = secondary
Flgs Name                             Flgs Name                             Flgs Name
     ISSID
PL6.E3A0      #002=DDI$GET_PATCH_SPACE File=DXI$1STIME.:E05TSI                   TUE 07/29/97 15:12 Page:69


      361        1        /*T***********************************************************/
      362        2        /*T*                                                         */
      363        3        /*T* Copyright (c) Bull HN Information Systems Inc., 1997    */
      364        4        /*T*                                                         */
      365        5        /*T***********************************************************/
      366        6        DDI$GET_PATCH_SPACE: PROC;

      6  1 000000   000000 700200 xent  DDI$GET_PAT* TSX0  ! X66_AUTO_0
         1 000001   000014 000000                    ZERO    12,0

      367        7        /* Includes and based structures */
      368        8        %INCLUDE B$OBJECT_C;
      369     3438        %B$SDEF;
      370     3492        %SUB_LINKFLAGS;
      371     3501        %INCLUDE XUH_MACRO_C;
      372     3585        %INCLUDE DD_SD_M;
      373     4921        %S_D;
      374     6239        /* Local Auto */
      375     6240    1   DCL TEMP$ PTR;
      376     6241    1   DCL 1 NWORD,
      377     6242    1         2 ISADDR UBIN HALF ALIGNED;
      378     6243        /* Entry DCLs */
      379     6244    1   DCL DDS$SD_SRCH ENTRY(2) ALTRET;
      380     6245    1   DCL DDK$GETMVAL ENTRY(5) ALTRET;
      381     6246        /* Constants */
      382     6247    1   DCL 1 B_PATCHIH CONSTANT,
      383     6248    1         2 SIZE UBIN BYTE UNAL INIT(LENGTHC(B_PATCHIH.TEXT)),
      384     6249    1         2 TEXT CHAR(0) INIT('B_PATCHIH');
      385     6250    1   DCL 1 B_PATCHDH CONSTANT,
      386     6251    1         2 SIZE UBIN BYTE UNAL INIT(LENGTHC(B_PATCHDH.TEXT)),
      387     6252    1         2 TEXT CHAR(0) INIT('B_PATCHDH');
      388     6253    1   DCL B_PATCHIH$ PTR CONSTANT INIT(ADDR(B_PATCHIH));
      389     6254    1   DCL B_PATCHDH$ PTR CONSTANT INIT(ADDR(B_PATCHDH));
      390     6255        /* Establish @ and # patch space, if any */
      391     6256    1        CALL DDS$SD_SRCH(B_PATCHIH$, TEMP$) ALTRET(GOT@);

PL6.E3A0      #002=DDI$GET_PATCH_SPACE File=DXI$1STIME.:E05TSI                   TUE 07/29/97 15:12 Page:70
   6256  1 000002   200003 630500                    EPPR0   TEMP$,,AUTO
         1 000003   200007 450500                    STP0    NWORD+3,,AUTO
         1 000004   000000 236000 2                  LDQ     0
         1 000005   200006 756100                    STQ     NWORD+2,,AUTO
         1 000006   200006 630500                    EPPR0   NWORD+2,,AUTO
         1 000007   000020 631400 xsym               EPPR1   B_VECTNIL+16
         1 000010   000000 701000 xent               TSX1    DDS$SD_SRCH
         1 000011   000013 702000 1                  TSX2    GOT@

      392     6257    2        DO WHILE( '0'B );

   6257  1 000012   000077 710000 1                  TRA     NO@NO

   6256  1 000013                       GOT@         null
      393     6258    2   GOT@:     ;
      394     6259    2             IF NOT TEMP$ -> B$SDEF.CONSTNT AND TEMP$ -> B$SDEF.AD.LFLAGS.SOURCE = %
              6259                      SOURCE_OBJECT#

   6259  1 000013   200003 470500                    LDP0    TEMP$,,AUTO
         1 000014   000001 236100                    LDQ     1,,PR0
         1 000015   400000 316007                    CANQ    -131072,DL
         1 000016   000077 601000 1                  TNZ     NO@NO
         1 000017   000000 236100                    LDQ     0,,PR0
         1 000020   700000 316003                    CANQ    -32768,DU
         1 000021   000077 601000 1                  TNZ     NO@NO

      395     6260    3             THEN DO;

      396     6261    3                  S_D.HEAD@ = TEMP$ -> B$SDEF.AD.ISADDR;

   6261  1 000022   000000 471400 xsym               LDP1    S_D$
         1 000023   000000 236100                    LDQ     0,,PR0
         1 000024   000032 376000 xsym               ANQ     B_VECTNIL+26
         1 000025   105057 756100                    STQ     2607,,PR1

      397     6262    3                  CALL DDK$GETMVAL(NWORD, S_D.HEAD@, 3, 0, '0'B) ALTRET(NO@NO);

PL6.E3A0      #002=DDI$GET_PATCH_SPACE File=DXI$1STIME.:E05TSI                   TUE 07/29/97 15:12 Page:71
   6262  1 000026   000001 236000 2                  LDQ     1
         1 000027   200012 756100                    STQ     NWORD+6,,AUTO
         1 000030   000002 237000 2                  LDAQ    2
         1 000031   200010 757100                    STAQ    NWORD+4,,AUTO
         1 000032   000000 236000 xsym               LDQ     S_D$
         1 000033   005057 036003                    ADLQ    2607,DU
         1 000034   200007 756100                    STQ     NWORD+3,,AUTO
         1 000035   200004 633500                    EPPR3   NWORD,,AUTO
         1 000036   200006 453500                    STP3    NWORD+2,,AUTO
         1 000037   200006 630500                    EPPR0   NWORD+2,,AUTO
         1 000040   000023 631400 xsym               EPPR1   B_VECTNIL+19
         1 000041   000000 701000 xent               TSX1    DDK$GETMVAL
         1 000042   000077 702000 1                  TSX2    NO@NO

      398     6263    3                 CALL DDK$GETMVAL(S_D.RSPACE@, S_D.HEAD@ + 1, 3, 0, '0'B) ALTRET(NO@NO
              6263                           );

   6263  1 000043   000000 470400 xsym               LDP0    S_D$
         1 000044   005057 235100                    LDA     2607,,PR0
         1 000045   000001 035007                    ADLA    1,DL
         1 000046   200006 755100                    STA     NWORD+2,,AUTO
         1 000047   000004 237000 2                  LDAQ    4
         1 000050   200012 757100                    STAQ    NWORD+6,,AUTO
         1 000051   000002 236000 2                  LDQ     2
         1 000052   200011 756100                    STQ     NWORD+5,,AUTO
         1 000053   200006 631500                    EPPR1   NWORD+2,,AUTO
         1 000054   200010 451500                    STP1    NWORD+4,,AUTO
         1 000055   000000 236000 xsym               LDQ     S_D$
         1 000056   005056 036003                    ADLQ    2606,DU
         1 000057   200007 756100                    STQ     NWORD+3,,AUTO
         1 000060   200007 630500                    EPPR0   NWORD+3,,AUTO
         1 000061   000023 631400 xsym               EPPR1   B_VECTNIL+19
         1 000062   000000 701000 xent               TSX1    DDK$GETMVAL
         1 000063   000077 702000 1                  TSX2    NO@NO

      399     6264    3                  S_D.NEXT@ = NWORD.ISADDR;

PL6.E3A0      #002=DDI$GET_PATCH_SPACE File=DXI$1STIME.:E05TSI                   TUE 07/29/97 15:12 Page:72
   6264  1 000064   200004 235100                    LDA     NWORD,,AUTO
         1 000065   000022 771000                    ARL     18
         1 000066   000000 470400 xsym               LDP0    S_D$
         1 000067   005055 755100                    STA     2605,,PR0

      400     6265    3                  S_D.HIGH@ = S_D.NEXT@ + S_D.RSPACE@ - 1;

   6265  1 000070   005055 236100                    LDQ     2605,,PR0
         1 000071   005056 036100                    ADLQ    2606,,PR0
         1 000072   000001 136007                    SBLQ    1,DL
         1 000073   005133 756100                    STQ     2651,,PR0

      401     6266    3                  S_D.GOT@ = '1'B;

   6266  1 000074   400000 236003                    LDQ     -131072,DU
         1 000075   005054 756100                    STQ     2604,,PR0

      402     6267    3                  S_D.DEFINED@ = '1'B;

   6267  1 000076   005060 756100                    STQ     2608,,PR0

      403     6268    3                END;

      404     6269    2           END;                            /* DO WHILE ('0'B)  GOT@ */

   6265  1 000077                       NO@NO        null
      405     6270    1   NO@NO:;
      406     6271    1        CALL DDS$SD_SRCH(B_PATCHDH$, TEMP$) ALTRET(GOT#);

   6271  1 000077   200003 630500                    EPPR0   TEMP$,,AUTO
         1 000100   200007 450500                    STP0    NWORD+3,,AUTO
         1 000101   000006 236000 2                  LDQ     6
         1 000102   200006 756100                    STQ     NWORD+2,,AUTO
         1 000103   200006 630500                    EPPR0   NWORD+2,,AUTO
         1 000104   000020 631400 xsym               EPPR1   B_VECTNIL+16
         1 000105   000000 701000 xent               TSX1    DDS$SD_SRCH
         1 000106   000110 702000 1                  TSX2    GOT#
PL6.E3A0      #002=DDI$GET_PATCH_SPACE File=DXI$1STIME.:E05TSI                   TUE 07/29/97 15:12 Page:73

      407     6272    2        DO WHILE( '0'B );

   6272  1 000107   000174 710000 1                  TRA     NO#NO

   6271  1 000110                       GOT#         null
      408     6273    2   GOT#:     ;
      409     6274    2             IF NOT TEMP$ -> B$SDEF.CONSTNT AND TEMP$ -> B$SDEF.AD.LFLAGS.SOURCE = %
              6274                      SOURCE_OBJECT#

   6274  1 000110   200003 470500                    LDP0    TEMP$,,AUTO
         1 000111   000001 236100                    LDQ     1,,PR0
         1 000112   400000 316007                    CANQ    -131072,DL
         1 000113   000174 601000 1                  TNZ     NO#NO
         1 000114   000000 236100                    LDQ     0,,PR0
         1 000115   700000 316003                    CANQ    -32768,DU
         1 000116   000174 601000 1                  TNZ     NO#NO

      410     6275    3             THEN DO;

      411     6276    3                  S_D.HEAD# = TEMP$ -> B$SDEF.AD.ISADDR;

   6276  1 000117   000000 471400 xsym               LDP1    S_D$
         1 000120   000000 236100                    LDQ     0,,PR0
         1 000121   000032 376000 xsym               ANQ     B_VECTNIL+26
         1 000122   105064 756100                    STQ     2612,,PR1

      412     6277    3                  CALL DDK$GETMVAL(NWORD, S_D.HEAD#, 3, 0, '0'B) ALTRET(NO#NO);

   6277  1 000123   000001 236000 2                  LDQ     1
         1 000124   200012 756100                    STQ     NWORD+6,,AUTO
         1 000125   000002 237000 2                  LDAQ    2
         1 000126   200010 757100                    STAQ    NWORD+4,,AUTO
         1 000127   000000 236000 xsym               LDQ     S_D$
         1 000130   005064 036003                    ADLQ    2612,DU
         1 000131   200007 756100                    STQ     NWORD+3,,AUTO
         1 000132   200004 633500                    EPPR3   NWORD,,AUTO
PL6.E3A0      #002=DDI$GET_PATCH_SPACE File=DXI$1STIME.:E05TSI                   TUE 07/29/97 15:12 Page:74
         1 000133   200006 453500                    STP3    NWORD+2,,AUTO
         1 000134   200006 630500                    EPPR0   NWORD+2,,AUTO
         1 000135   000023 631400 xsym               EPPR1   B_VECTNIL+19
         1 000136   000000 701000 xent               TSX1    DDK$GETMVAL
         1 000137   000174 702000 1                  TSX2    NO#NO

      413     6278    3                 CALL DDK$GETMVAL(S_D.RSPACE#, S_D.HEAD# + 1, 3, 0, '0'B) ALTRET(NO#NO
              6278                           );

   6278  1 000140   000000 470400 xsym               LDP0    S_D$
         1 000141   005064 235100                    LDA     2612,,PR0
         1 000142   000001 035007                    ADLA    1,DL
         1 000143   200006 755100                    STA     NWORD+2,,AUTO
         1 000144   000004 237000 2                  LDAQ    4
         1 000145   200012 757100                    STAQ    NWORD+6,,AUTO
         1 000146   000002 236000 2                  LDQ     2
         1 000147   200011 756100                    STQ     NWORD+5,,AUTO
         1 000150   200006 631500                    EPPR1   NWORD+2,,AUTO
         1 000151   200010 451500                    STP1    NWORD+4,,AUTO
         1 000152   000000 236000 xsym               LDQ     S_D$
         1 000153   005063 036003                    ADLQ    2611,DU
         1 000154   200007 756100                    STQ     NWORD+3,,AUTO
         1 000155   200007 630500                    EPPR0   NWORD+3,,AUTO
         1 000156   000023 631400 xsym               EPPR1   B_VECTNIL+19
         1 000157   000000 701000 xent               TSX1    DDK$GETMVAL
         1 000160   000174 702000 1                  TSX2    NO#NO

      414     6279    3                  S_D.NEXT# = NWORD.ISADDR;

   6279  1 000161   200004 235100                    LDA     NWORD,,AUTO
         1 000162   000022 771000                    ARL     18
         1 000163   000000 470400 xsym               LDP0    S_D$
         1 000164   005062 755100                    STA     2610,,PR0

      415     6280    3                  S_D.HIGH# = S_D.NEXT# + S_D.RSPACE# - 1;

   6280  1 000165   005062 236100                    LDQ     2610,,PR0
PL6.E3A0      #002=DDI$GET_PATCH_SPACE File=DXI$1STIME.:E05TSI                   TUE 07/29/97 15:12 Page:75
         1 000166   005063 036100                    ADLQ    2611,,PR0
         1 000167   000001 136007                    SBLQ    1,DL
         1 000170   005136 756100                    STQ     2654,,PR0

      416     6281    3                  S_D.GOT# = '1'B;

   6281  1 000171   400000 236003                    LDQ     -131072,DU
         1 000172   005061 756100                    STQ     2609,,PR0

      417     6282    3                  S_D.DEFINED#= '1'B;

   6282  1 000173   005065 756100                    STQ     2613,,PR0

      418     6283    3                END;

      419     6284    2           END;                            /* DO WHILE ('0'B)  GOT# */

   6280  1 000174                       NO#NO        null
      420     6285    1   NO#NO:;
      421     6286    1        RETURN;

   6286  1 000174   000000 702200 xent               TSX2  ! X66_ARET

B_PATCHIH
 Sect OctLoc
   0     000   011102 137120   101124 103110   111110 ******                    .B_PATCHIH..

B_PATCHDH
 Sect OctLoc
   0     003   011102 137120   101124 103110   104110 ******                    .B_PATCHDH..

B_PATCHIH$
 Sect OctLoc
   0     006   000000 006000                                                    ....

B_PATCHDH$
 Sect OctLoc
PL6.E3A0      #002=DDI$GET_PATCH_SPACE File=DXI$1STIME.:E05TSI                   TUE 07/29/97 15:12 Page:76
   0     007   000003 006000                                                    ....

(unnamed)
 Sect OctLoc
   2     000   000006 006000   000002 006000   000005 006000   000002 006000    ................
   2     004   000002 006000   000002 006000   000007 006000                    ............
      422     6287    1   END DDI$GET_PATCH_SPACE;
      423     6288        %EOD;

PL6.E3A0      #002=DDI$GET_PATCH_SPACE File=DXI$1STIME.:E05TSI                   TUE 07/29/97 15:12 Page:77
--  Include file information  --

   DD_SD_M.:E05TOU  is referenced.
   XUH_MACRO_C.:E05TOU  is referenced.
   B$OBJECT_C.:E05TOU  is referenced.
   B$JIT_C.:E05TOU  was found in the system file and is never referenced.
   CP_6_C.:E05TOU  was found in the system file and is never referenced.
      No diagnostics issued in procedure DDI$GET_PATCH_SPACE.

   Procedure DDI$GET_PATCH_SPACE requires 125 words for executable code.
   Procedure DDI$GET_PATCH_SPACE requires 12 words of local(AUTO) storage.
PL6.E3A0      #002=DDI$GET_PATCH_SPACE File=DXI$1STIME.:E05TSI                   TUE 07/29/97 15:12 Page:78
          *** CROSS REFERENCE LISTING ***
**     DENOTES     IDENTIFIER DEFINITION
<<                 IDENTIFIER'S VALUE SET
>>                 IDENTIFIER'S VALUE USED
<>                 IDENTIFIER SET AND/OR USED
--                 IDENTIFIER REFERENCED
PL6.E3A0      #002=DDI$GET_PATCH_SPACE File=DXI$1STIME.:E05TSI                   TUE 07/29/97 15:12 Page:79
          MINI XREF LISTING

B$SDEF.AD.ISADDR
      3465**DCL      6261>>ASSIGN   6276>>ASSIGN
B$SDEF.AD.LFLAGS.SOURCE
      3449**DCL      6259>>IF       6274>>IF
B$SDEF.AD.OU
      3459**DCL      3465--REDEF
B$SDEF.CONSTNT
      3470**DCL      6259>>IF       6274>>IF
B$SDEF.VALUE
      3440**DCL      3443--REDEF
B_PATCHDH
      6250**DCL      6254--DCLINIT
B_PATCHDH.TEXT
      6252**DCL      6251--DCLINIT
B_PATCHDH$
      6254**DCL      6271<>CALL
B_PATCHIH
      6247**DCL      6253--DCLINIT
B_PATCHIH.TEXT
      6249**DCL      6248--DCLINIT
B_PATCHIH$
      6253**DCL      6256<>CALL
DDK$GETMVAL
      6245**DCL-ENT  6262--CALL     6263--CALL     6277--CALL     6278--CALL
DDS$SD_SRCH
      6244**DCL-ENT  6256--CALL     6271--CALL
GOT#
      6271**LABEL    6271--CALLALT
GOT@
      6256**LABEL    6256--CALLALT
NO#NO
      6280**LABEL    6277--CALLALT  6278--CALLALT
PL6.E3A0      #002=DDI$GET_PATCH_SPACE File=DXI$1STIME.:E05TSI                   TUE 07/29/97 15:12 Page:80
NO@NO
      6265**LABEL    6262--CALLALT  6263--CALLALT
NWORD
      6241**DCL      6262<>CALL     6277<>CALL
NWORD.ISADDR
      6242**DCL      6264>>ASSIGN   6279>>ASSIGN
S_D.CURRENT_CHANNEL
      5873**DCL      5875--REDEF
S_D.DEBUGA
      5025**DCL      5027--REDEF
S_D.DEFINED#
      5659**DCL      6282<<ASSIGN
S_D.DEFINED@
      5649**DCL      6267<<ASSIGN
S_D.EIS
      5983**DCL      6012--REDEF
S_D.GOT#
      5651**DCL      6281<<ASSIGN
S_D.GOT@
      5641**DCL      6266<<ASSIGN
S_D.HEAD#
      5657**DCL      6276<<ASSIGN   6277<>CALL     6278>>CALL
S_D.HEAD@
      5647**DCL      6261<<ASSIGN   6262<>CALL     6263>>CALL
S_D.HIGH#
      5681**DCL      6280<<ASSIGN
S_D.HIGH@
      5675**DCL      6265<<ASSIGN
S_D.HOST_MESSAGE_BUF_REMOTE
      5916**DCL      5917--REDEF    5931--REDEF
S_D.JDE
      5530**DCL      5531--REDEF
S_D.L$.VALUE
      5083**DCL      5089--REDEF    5097--REDEF    5100--REDEF    5103--REDEF    5106--REDEF
S_D.L$.VALUE.L
      5084**DCL      5085--REDEF    5086--REDEF
PL6.E3A0      #002=DDI$GET_PATCH_SPACE File=DXI$1STIME.:E05TSI                   TUE 07/29/97 15:12 Page:81
S_D.L6_MESSAGE_BUF
      5937**DCL      5939--REDEF
S_D.NEXT#
      5653**DCL      6279<<ASSIGN   6280>>ASSIGN
S_D.NEXT@
      5643**DCL      6264<<ASSIGN   6265>>ASSIGN
S_D.OUTPUT
      5903**DCL      5905--REDEF
S_D.REMOTE_MSG.FNCC
      5922**DCL      5923--REDEF
S_D.REMOTE_MSG.STXC
      5918**DCL      5919--REDEF
S_D.REMOTE_MSG.SUBFNCC
      5926**DCL      5927--REDEF
S_D.RSPACE#
      5655**DCL      6278<>CALL     6280>>ASSIGN
S_D.RSPACE@
      5645**DCL      6263<>CALL     6265>>ASSIGN
S_D.SV
      4982**DCL      5003--REDEF
S_D$
      6234**DCL      4930--IMP-PTR  6261>>ASSIGN   6262>>CALL     6263>>CALL     6263>>CALL     6264>>ASSIGN
      6265>>ASSIGN   6265>>ASSIGN   6265>>ASSIGN   6266>>ASSIGN   6267>>ASSIGN   6276>>ASSIGN   6277>>CALL
      6278>>CALL     6278>>CALL     6279>>ASSIGN   6280>>ASSIGN   6280>>ASSIGN   6280>>ASSIGN   6281>>ASSIGN
      6282>>ASSIGN
TEMP$
      6240**DCL      6256<>CALL     6259>>IF       6259>>IF       6261>>ASSIGN   6271<>CALL     6274>>IF
      6274>>IF       6276>>ASSIGN
PL6.E3A0      #002=DDI$GET_PATCH_SPACE File=DXI$1STIME.:E05TSI                   TUE 07/29/97 15:12 Page:82
              *** CROSS REFERENCE LISTING ***
    **     DENOTES     IDENTIFIER DEFINITION
    <<                 IDENTIFIER'S VALUE SET
    >>                 IDENTIFIER'S VALUE USED
    <>                 IDENTIFIER SET AND/OR USED
    --                 IDENTIFIER REFERENCED
PL6.E3A0      #002=DDI$GET_PATCH_SPACE File=DXI$1STIME.:E05TSI                   TUE 07/29/97 15:12 Page:83
              MINI UREF LISTING

DDI$GET_PATCH_SPACE       6**PROC

PL6.E3A0      #003=DUI$INIT_HOST File=DXI$1STIME.:E05TSI                         TUE 07/29/97 15:12 Page:84
      424        1        /*T***********************************************************/
      425        2        /*T*                                                         */
      426        3        /*T* Copyright (c) Bull HN Information Systems Inc., 1997    */
      427        4        /*T*                                                         */
      428        5        /*T***********************************************************/
      429        6        /*P*
      430        7             NAME: DUI$INIT_HOST
      431        8             PURPOSE:
      432        9                   Initialize for HOST mode
      433       10             DESCRIPTION:
      434       11                   Initialize 1st to 2nd layer interface for HOST mode
      435       12                   and set up nodes for HOST.
      436       13        */
      437       14        /**/
      438       15        DUI$INIT_HOST: PROC;
      439       16        /**/
      440       17        %INCLUDE NK_VFC_C;
      441       91        %INCLUDE XUH_MACRO_C;
      442      175        %INCLUDE DD_SD_M;
      443     1511        %S_D;
      444     2829    1   DCL DD_PROMPT CHAR(1) SYMREF;
      445     2830        %INCLUDE DD$DITEM;
       12+    2933             %LIST;
       13+    2934    1        DCL SDD$ PTR;
       14+    2935    1        DCL ZITEM$ PTR;
       15+    2936    1        DCL SDD_L6$ PTR;
       16+    2937    1        DCL ZITEM_L6$ PTR;
      446     3511        /**/
      447     3512        /* Initialize S_D.ONE_TO_TWO - 1st to 2nd layer interface for HOST mode */
      448     3513    1        S_D.ONE_TO_TWO.EXEC_DOMAIN = %HOST;
      449     3514        /* Initialize concatenation nodes for HOST mode */
      450     3515    1        S_D.FMT_DEFAULT = %OCT_FMT;
      451     3516    1        S_D.EFMT_DEFAULT = %OCT_FMT;
      452     3517    1        S_D.L$.SIZE = 36;
      453     3518    1        S_D.L$.FMT = %OCT_FMT;
      454     3519    1        RETURN;
      455     3520    1   END DUI$INIT_HOST;
PL6.E3A0      #003=DUI$INIT_HOST File=DXI$1STIME.:E05TSI                         TUE 07/29/97 15:12 Page:85

PL6.E3A0      #003=DUI$INIT_HOST File=DXI$1STIME.:E05TSI                         TUE 07/29/97 15:12 Page:86
--  Include file information  --

   DD_SRTN_C.:E05TOU  is referenced.
   DD_ACODE_C.:E05TOU  is referenced.
   DD_ICODE_C.:E05TOU  is referenced.
   DD$DITEM.:E05TOU  cannot be made into a system file and is referenced.
   DD_SD_M.:E05TOU  is referenced.
   XUH_MACRO_C.:E05TOU  is referenced.
   NK_VFC_C.:E05TOU  is referenced.
   B$JIT_C.:E05TOU  was found in the system file and is never referenced.
   CP_6_C.:E05TOU  was found in the system file and is never referenced.
      No diagnostics issued in procedure DUI$INIT_HOST.

   Procedure DUI$INIT_HOST requires 11 words for executable code.
   Procedure DUI$INIT_HOST requires 8 words of local(AUTO) storage.

    No errors detected in file DXI$1STIME.:E05TSI    .

PL6.E3A0      #003=DUI$INIT_HOST File=DXI$1STIME.:E05TSI                         TUE 07/29/97 15:12 Page:87

 Object Unit name= DUI$INIT_HOST                              File name= DXI$1STIME.:E05TOU
 UTS= JUL 29 '97 15:12:21.60 TUE                              Compiler= PL-6/E31         Sev=      00
 SharedLib= :SHARED_SYSTEM                                    Alt SharedLib=


    ****  Control sections  ****

 Sect   Type Bound  Init  Size OctSiz  Section name(segment info)
    0   Proc  even  none    11     13  DUI$INIT_HOST

    ****  Entry defs  ****

                              Check   Calling
                             calling  sequence
  Sect OctLoc Primary Altret sequence   type   Parms  Name
     0      0   yes            yes      Std        0  DUI$INIT_HOST

  ****  Entry refs  ****

         Check        Calling
        calling       sequence
Altret sequence SRef   type   Args  Name
                       nStd      0 X66_AUTO_0
                       nStd      0 X66_ARET

  ****  Data refs  ****

  Flags:  r = read only, s = secondary
Flgs Name                             Flgs Name                             Flgs Name
r    S_D$
PL6.E3A0      #003=DUI$INIT_HOST File=DXI$1STIME.:E05TSI                         TUE 07/29/97 15:12 Page:88


      424        1        /*T***********************************************************/
      425        2        /*T*                                                         */
      426        3        /*T* Copyright (c) Bull HN Information Systems Inc., 1997    */
      427        4        /*T*                                                         */
      428        5        /*T***********************************************************/
      429        6        /*P*
      430        7             NAME: DUI$INIT_HOST
      431        8             PURPOSE:
      432        9                   Initialize for HOST mode
      433       10             DESCRIPTION:
      434       11                   Initialize 1st to 2nd layer interface for HOST mode
      435       12                   and set up nodes for HOST.
      436       13        */
      437       14        /**/
      438       15        DUI$INIT_HOST: PROC;

     15  0 000000   000000 700200 xent  DUI$INIT_HO* TSX0  ! X66_AUTO_0
         0 000001   000010 000000                    ZERO    8,0

      439       16        /**/
      440       17        %INCLUDE NK_VFC_C;
      441       91        %INCLUDE XUH_MACRO_C;
      442      175        %INCLUDE DD_SD_M;
      443     1511        %S_D;
      444     2829    1   DCL DD_PROMPT CHAR(1) SYMREF;
      445     2830        %INCLUDE DD$DITEM;
       12+    2933             %LIST;
       13+    2934    1        DCL SDD$ PTR;
       14+    2935    1        DCL ZITEM$ PTR;
       15+    2936    1        DCL SDD_L6$ PTR;
       16+    2937    1        DCL ZITEM_L6$ PTR;
      446     3511        /**/
      447     3512        /* Initialize S_D.ONE_TO_TWO - 1st to 2nd layer interface for HOST mode */
      448     3513    1        S_D.ONE_TO_TWO.EXEC_DOMAIN = %HOST;

   3513  0 000002   000001 235007                    LDA     1,DL
PL6.E3A0      #003=DUI$INIT_HOST File=DXI$1STIME.:E05TSI                         TUE 07/29/97 15:12 Page:89
         0 000003   000000 470400 xsym               LDP0    S_D$
         0 000004   006714 755100                    STA     3532,,PR0

      449     3514        /* Initialize concatenation nodes for HOST mode */
      450     3515    1        S_D.FMT_DEFAULT = %OCT_FMT;

   3515  0 000005   000723 755100                    STA     467,,PR0

      451     3516    1        S_D.EFMT_DEFAULT = %OCT_FMT;

   3516  0 000006   004736 755100                    STA     2526,,PR0

      452     3517    1        S_D.L$.SIZE = 36;

   3517  0 000007   000044 236007                    LDQ     36,DL
         0 000010   000126 756100                    STQ     86,,PR0

      453     3518    1        S_D.L$.FMT = %OCT_FMT;

   3518  0 000011   000127 755100                    STA     87,,PR0

      454     3519    1        RETURN;

   3519  0 000012   000000 702200 xent               TSX2  ! X66_ARET
      455     3520    1   END DUI$INIT_HOST;

PL6.E3A0      #003=DUI$INIT_HOST File=DXI$1STIME.:E05TSI                         TUE 07/29/97 15:12 Page:90
--  Include file information  --

   DD_SRTN_C.:E05TOU  is referenced.
   DD_ACODE_C.:E05TOU  is referenced.
   DD_ICODE_C.:E05TOU  is referenced.
   DD$DITEM.:E05TOU  cannot be made into a system file and is referenced.
   DD_SD_M.:E05TOU  is referenced.
   XUH_MACRO_C.:E05TOU  is referenced.
   NK_VFC_C.:E05TOU  is referenced.
   B$JIT_C.:E05TOU  was found in the system file and is never referenced.
   CP_6_C.:E05TOU  was found in the system file and is never referenced.
      No diagnostics issued in procedure DUI$INIT_HOST.

   Procedure DUI$INIT_HOST requires 11 words for executable code.
   Procedure DUI$INIT_HOST requires 8 words of local(AUTO) storage.

    No errors detected in file DXI$1STIME.:E05TSI    .
PL6.E3A0      #003=DUI$INIT_HOST File=DXI$1STIME.:E05TSI                         TUE 07/29/97 15:12 Page:91
          *** CROSS REFERENCE LISTING ***
**     DENOTES     IDENTIFIER DEFINITION
<<                 IDENTIFIER'S VALUE SET
>>                 IDENTIFIER'S VALUE USED
<>                 IDENTIFIER SET AND/OR USED
--                 IDENTIFIER REFERENCED
PL6.E3A0      #003=DUI$INIT_HOST File=DXI$1STIME.:E05TSI                         TUE 07/29/97 15:12 Page:92
          MINI XREF LISTING

S_D.CURRENT_CHANNEL
      2463**DCL      2465--REDEF
S_D.DEBUGA
      1615**DCL      1617--REDEF
S_D.EFMT_DEFAULT
      2131**DCL      3516<<ASSIGN
S_D.EIS
      2573**DCL      2602--REDEF
S_D.FMT_DEFAULT
      1799**DCL      3515<<ASSIGN
S_D.HOST_MESSAGE_BUF_REMOTE
      2506**DCL      2507--REDEF    2521--REDEF
S_D.JDE
      2120**DCL      2121--REDEF
S_D.L$.FMT
      1699**DCL      3518<<ASSIGN
S_D.L$.SIZE
      1698**DCL      3517<<ASSIGN
S_D.L$.VALUE
      1673**DCL      1679--REDEF    1687--REDEF    1690--REDEF    1693--REDEF    1696--REDEF
S_D.L$.VALUE.L
      1674**DCL      1675--REDEF    1676--REDEF
S_D.L6_MESSAGE_BUF
      2527**DCL      2529--REDEF
S_D.ONE_TO_TWO.EXEC_DOMAIN
      2538**DCL      3513<<ASSIGN
S_D.OUTPUT
      2493**DCL      2495--REDEF
S_D.REMOTE_MSG.FNCC
      2512**DCL      2513--REDEF
S_D.REMOTE_MSG.STXC
      2508**DCL      2509--REDEF
PL6.E3A0      #003=DUI$INIT_HOST File=DXI$1STIME.:E05TSI                         TUE 07/29/97 15:12 Page:93
S_D.REMOTE_MSG.SUBFNCC
      2516**DCL      2517--REDEF
S_D.SV
      1572**DCL      1593--REDEF
S_D$
      2824**DCL      1520--IMP-PTR  3513>>ASSIGN   3515>>ASSIGN   3516>>ASSIGN   3517>>ASSIGN   3518>>ASSIGN
PL6.E3A0      #003=DUI$INIT_HOST File=DXI$1STIME.:E05TSI                         TUE 07/29/97 15:12 Page:94
              *** CROSS REFERENCE LISTING ***
    **     DENOTES     IDENTIFIER DEFINITION
    <<                 IDENTIFIER'S VALUE SET
    >>                 IDENTIFIER'S VALUE USED
    <>                 IDENTIFIER SET AND/OR USED
    --                 IDENTIFIER REFERENCED
PL6.E3A0      #003=DUI$INIT_HOST File=DXI$1STIME.:E05TSI                         TUE 07/29/97 15:12 Page:95
              MINI UREF LISTING

DD_PROMPT    2829**DCL
DUI$INIT_HOST      15**PROC
SDD$    2934**DCL
SDD_L6$    2936**DCL
ZITEM$    2935**DCL
ZITEM_L6$    2937**DCL
