VERSION E05

PL6.E3A0      #001=DDS$PROMPTC File=DXS$PROMPT.:E05TSI                           TUE 07/29/97 15:14 Page:1
        1        1        /*M* DXS$PROMPT - Prompts for input, reads & edits input */
        2        2        /*T***********************************************************/
        3        3        /*T*                                                         */
        4        4        /*T* Copyright (c) Bull HN Information Systems Inc., 1997    */
        5        5        /*T*                                                         */
        6        6        /*T***********************************************************/
        7        7        /*X* DMR,PLM=5,IND=5,CSU=3,EXM=0,ECU=3,MOC,DCI=5,CRT=5 */
        8        8        /*D* NAME: DCS$PROMPT */
        9        9                                                /**/
       10       10        DDS$PROMPTC: PROC;
       11       11                                                /**/
       12       12    1   DCL IX SBIN;                            /* Must be SBIN */
       13       13    1   DCL IXX UBIN;
       14       14    1   DCL PROS UBIN;
       15       15    1   DCL SIZEREAD UBIN;
       16       16    1   DCL OUTPT SBIN;                         /* Must be SBIN */
       17       17    1   DCL LOCAR CHAR(1);
       18       18    1   DCL SAVE_OUT UBIN;
       19       19    1   DCL BNS UBIN;
       20       20    1   DCL CHAR1 CHAR(1) BASED;
       21       21    1   DCL BN$EW CHAR(BNS) BASED(BN$);
       22       22    1   DCL BO$LD CHAR(BOS) BASED(BO$);
       23       23    1   DCL PR$OM CHAR(PROS) BASED(PROM$);
       24       24    1   DCL PUNCHINT(0:3) CHAR(1) UNAL CONSTANT INIT( ']', '^', '|', BITASC('331'O) );
       25       25    1   DCL PUNCHIN REDEF PUNCHINT CHAR(4);
       26       26    1   DCL PUNCHOUT(0:3) CHAR(1) UNAL CONSTANT INIT( '!', '~', '^', '\' );
       27       27    1   DCL BS CHAR(1) CONSTANT INIT(BITASC('010'O));
       28       28    1   DCL CAN CHAR(1) CONSTANT INIT(BITASC('030'O));
       29       29    1   DCL DEL CHAR(1) CONSTANT INIT(BITASC('177'O));
       30       30    1   DCL ESC(0:3) CHAR(1) UNAL CONSTANT SYMDEF INIT(BITASC('033'O), /* ESC */
       31       31    1                           BITASC('133'O), /* [ */
       32       32    1                           BITASC('173'O), /* { */
       33       33    1                          BITASC('033'O)); /* Filler */
       34       34    1   DCL EESC REDEF ESC CHAR(4);
       35       35    1   DCL BO$ PTR CONSTANT INIT(ADDR(BUFOLD));
       36       36    1   DCL BUFOLE(0:255) CHAR(1) UNAL STATIC INIT( ' '*256 );
       37       37    1   DCL BUFOLD REDEF BUFOLE CHAR(256);
PL6.E3A0      #001=DDS$PROMPTC File=DXS$PROMPT.:E05TSI                           TUE 07/29/97 15:14 Page:2
       38       38    1   DCL BOS UBIN STATIC INIT( 0 );
       39       39    1   DCL BUFNEW CHAR(256) STATIC;
       40       40    1   DCL BN$ PTR CONSTANT INIT( ADDR ( BUFNEW ) );
       41       41    1   DCL EBUF$ PTR;
       42       42    1   DCL PROMPT CHAR(30) STATIC;
       43       43    1   DCL PROM$ PTR CONSTANT INIT( ADDR( PROMPT ) );
       44       44    1   DCL DCTX_ME SBIN SYMREF;
       45       45    1   DCL DCTX_CR UBIN SYMREF;
       46       46    1   DCL DCTX_PATCH UBIN SYMREF;
       47       47    1   DCL IN_DEV UBIN SYMREF;
       48       48    1   DCL OUT_DEV UBIN SYMREF;
       49       49    1   DCL OUT_DEV_SAVE UBIN SYMREF;
       50       50    1   DCL ECHO_DEV UBIN SYMREF;
       51       51        %INCLUDE B$TABLES_C;
       52      159        %B$XL_UPPER;
       53      163        %INCLUDE XUH_MACRO_C;
       54      247        %INCLUDE DD_SD_M;
       55     1583        %S_D;
       56     2901        %INCLUDE DD_ERR_C;
       57     3298    1   DCL DDQ$WRITENC ENTRY(2);
       58     3299    1   DCL DDQ$WRITE ENTRY(2);
       59     3300    1   DCL DDQ$READ ENTRY(2) ALTRET;
       60     3301    1   DCL DDE$ERROR ENTRY;
       61     3302    1   DCL DXQ$WRTPI ENTRY(2);
       62     3303        %SUB @MACTP="' M'/* @MACTP */";
       63     3304        %SUB @CONTP="'99'/* @CONTP */";
       64     3305                                                /**/
       65     3306    1        CALL BINCHAR( SUBSTR( PROMPT, 0, LENGTHC( @CONTP ) ), S_D.STORED );
       66     3307    1        CALL INSERT( PROMPT, LENGTHC( @CONTP ), , S_D.UPROMPT );
       67     3308    1        PROS = LENGTHC( @CONTP ) + S_D.UPROMPT_SIZE;
       68     3309    1        GOTO WRITEIT;
       69     3310                                                /**/
       70     3311    1   DDS$PROMPT: ENTRY;
       71     3312                                                /**/
       72     3313    1        IF S_D.MACTIVE
       73     3314    2        THEN DO;
       74     3315    2             CALL CONCAT( PROMPT, @MACTP, S_D.UPROMPT );
PL6.E3A0      #001=DDS$PROMPTC File=DXS$PROMPT.:E05TSI                           TUE 07/29/97 15:14 Page:3
       75     3316    2             PROS = LENGTHC( @MACTP ) + S_D.UPROMPT_SIZE;
       76     3317    2           END;
       77     3318    2        ELSE DO;
       78     3319    2             PROMPT = S_D.UPROMPT;
       79     3320    2             PROS = S_D.UPROMPT_SIZE;
       80     3321    2           END;
       81     3322                                                /**/
       82     3323    1   WRITEIT:
       83     3324    1        S_D.OUTPUT = PR$OM;
       84     3325    1        S_D.INPUT = ' ';                   /* Blank out input buffer */
       85     3326    1        IF IN_DEV = DCTX_ME
       86     3327    2        THEN DO;
       87     3328    2             SAVE_OUT = OUT_DEV;
       88     3329    2             OUT_DEV = DCTX_ME;
       89     3330    2             S_D.OUT_WIDTH = 79;
       90     3331    2             IF S_D.MACTIVE OR S_D.STEP
       91     3332    2             THEN CALL DDQ$WRITENC ( ADDR( S_D.OUTPUT ), PROS );
       92     3333    2             ELSE CALL DDQ$WRITE( ADDR( S_D.OUTPUT ), PROS );
       93     3334    2             OUT_DEV = SAVE_OUT;
       94     3335    2             IF OUT_DEV = DCTX_ME
       95     3336    2             THEN S_D.OUT_WIDTH = 79;
       96     3337    2             ELSE S_D.OUT_WIDTH = 132;
       97     3338    2           END;
       98     3339                                                /**/
       99     3340    1        S_D.STEP = '0'B;
      100     3341    1        SIZEREAD = LENGTHC( S_D.INPUT );
      101     3342    1        EBUF$ = ADDR(S_D.INPUT);
      102     3343    1        CALL DDQ$READ ( EBUF$, SIZEREAD ) ALTRET( ERR );
      103     3344    1        CALL EDDIT;
      104     3345    1        IF OUTPT > 0
      105     3346    1        THEN CALL INDEX( IXX, PINCRC(EBUF$,IX)->CHAR1, EESC ) ALTRET( ACCEPT );
      106     3347    1        ELSE GOTO ACCEPT;                  /* Wipeout BO$LD */
      107     3348    1   AGAIN:
      108     3349    2        DO;
      109     3350    2             CALL CONCAT( S_D.OUTPUT, PR$OM, BO$LD );
      110     3351    2             OUTPT = PROS + BOS;
      111     3352    2             CALL DDQ$WRITE( ADDR( S_D.OUTPUT ), OUTPT );
PL6.E3A0      #001=DDS$PROMPTC File=DXS$PROMPT.:E05TSI                           TUE 07/29/97 15:14 Page:4
      112     3353    2             BUFNEW = ' ';
      113     3354    2             BNS = LENGTHC( BUFNEW );
      114     3355    2             CALL DDQ$READ( BN$, BNS ) ALTRET( ERR );
      115     3356    2             CALL CONCAT( S_D.INPUT, BO$LD, BN$EW );
      116     3357    2             CALL EDDIT;
      117     3358    2             IF OUTPT > 0
      118     3359    2             THEN CALL INDEX( IXX, PINCRC(EBUF$,IX)->CHAR1, EESC ) ALTRET( GO1 );
      119     3360    2             ELSE GOTO GO1;
      120     3361    2             GOTO AGAIN;                   /* Hit Ctrl-X, ESC or xxxx, ESC */
      121     3362    2   GO1:
      122     3363    2             BUFOLD = S_D.INPUT;
      123     3364    2             BOS = OUTPT;
      124     3365    2             S_D.NCHARS = BOS;
      125     3366                                                /**/
      126     3367    2             GOTO RETN;
      127     3368                                                /**/
      128     3369    2           END AGAIN;
      129     3370                                                /**/
      130     3371    1   ACCEPT:
      131     3372    1        S_D.NCHARS = OUTPT;
      132     3373    1        BUFOLD = S_D.INPUT;
      133     3374    1        BOS = OUTPT;
      134     3375                                                /**/
      135     3376    1   RETN:
      136     3377    1        IF IN_DEV ~= DCTX_ME
      137     3378    2        THEN DO;
      138     3379    2             SAVE_OUT = OUT_DEV;
      139     3380    2             OUT_DEV = ECHO_DEV;
      140     3381    2             IF OUT_DEV = DCTX_ME
      141     3382    2             THEN S_D.OUT_WIDTH = 79;
      142     3383    2             ELSE S_D.OUT_WIDTH = 132;
      143     3384    2             CALL DDQ$WRITE( EBUF$, S_D.NCHARS );
      144     3385    2             OUT_DEV = SAVE_OUT;
      145     3386    2             IF OUT_DEV = DCTX_ME
      146     3387    2             THEN S_D.OUT_WIDTH = 79;
      147     3388    2             ELSE S_D.OUT_WIDTH = 132;
      148     3389    2           END;
PL6.E3A0      #001=DDS$PROMPTC File=DXS$PROMPT.:E05TSI                           TUE 07/29/97 15:14 Page:5
      149     3390    1        IF ( S_D.PATCH ) AND ( S_D.INPUT = '!EOD' )
      150     3391    2        THEN DO;
      151     3392    2             S_D.INPUT = 'GO        "Supplied by DXS$PROMPT';
      152     3393    2             S_D.NCHARS = LENGTHC( 'GO        "Supplied by DXS$PROMPT' );
      153     3394    2             BOS = 0;
      154     3395    2             IN_DEV = DCTX_ME;
      155     3396    2             OUT_DEV = OUT_DEV_SAVE;
      156     3397    2           END;
      157     3398    1        IF S_D.PATCH AND ADDR(S_D.INPUT)->CHAR1 ~= 'M'
      158     3399    2        THEN DO;                           /* Echo input, avoiding most modifies */
      159     3400    2             S_D.OUTPUT = ' ';
      160     3401    2             S_D.XDP.IMAGE.INP = S_D.INPUT;
      161     3402    2             CALL DXQ$WRTPI (ADDR(S_D.XDP), SIZEC(S_D.XDP.IMAGE));
      162     3403    2           END;
      163     3404    1        RETURN;
      164     3405                                                /**/
      165     3406    1   ERR:
      166     3407    1        S_D.ERROR = E@IN_DEV_ERROR;        /* E@IN_DEV_ERROR */
      167     3408    1        CALL DDE$ERROR;
      168     3409    1        GOTO WRITEIT;
      169     3410        %EJECT;
PL6.E3A0      #001=DDS$PROMPTC File=DXS$PROMPT.:E05TSI                           TUE 07/29/97 15:14 Page:6
      170     3411                                                /**/
      171     3412    1   EDDIT: PROC;
      172     3413                                                /**/
      173     3414    2        OUTPT = 0;
      174     3415    3        DO IX = 0 TO SIZEREAD - 1;
      175     3416    3             LOCAR = PINCRC( EBUF$, IX ) -> CHAR1;
      176     3417    3             IF ( LOCAR = BS ) OR ( LOCAR = DEL )
      177     3418    4             THEN DO;
      178     3419    4                  OUTPT = OUTPT - 1;
      179     3420    4                  IF ( OUTPT < 0 )
      180     3421    4                  THEN OUTPT = 0;
      181     3422    4                  ELSE PINCRC( EBUF$, OUTPT ) -> CHAR1 = ' ';
      182     3423    4                END;
      183     3424    3             ELSE IF ( LOCAR = CAN )
      184     3425    3                  THEN OUTPT = 0;
      185     3426    3                  ELSE IF ( IN_DEV = DCTX_CR )
      186     3427    4                       THEN DO;
      187     3428    4                            CALL INDEX( IXX, LOCAR, PUNCHIN ) ALTRET( NOTSPEC );
      188     3429    4                            PINCRC( EBUF$, OUTPT ) -> CHAR1 = PUNCHOUT( IXX );
      189     3430    4                            OUTPT = OUTPT + 1;
      190     3431    4                          END;
      191     3432    3                       ELSE
      192     3433    4   NOTSPEC:            DO;
      193     3434    4                            PINCRC( EBUF$, OUTPT ) -> CHAR1 = B$XL_UPPER.C( ASCBIN(
              3434                                     LOCAR ) );
      194     3435    4                            OUTPT = OUTPT + 1;
      195     3436    4                          END;
      196     3437    3           END;
      197     3438                                                /**/
      198     3439    2        IX = OUTPT - 1;
      199     3440    3        DO WHILE ( ( IX >= 0 ) AND ( PINCRC( EBUF$, IX ) -> CHAR1 = ' ' ) );
      200     3441    3             IX = IX - 1;
      201     3442    3           END;
      202     3443    2        OUTPT = IX + 1;
      203     3444                                                /**/
      204     3445    2        RETURN;
      205     3446                                                /**/
PL6.E3A0      #001=DDS$PROMPTC File=DXS$PROMPT.:E05TSI                           TUE 07/29/97 15:14 Page:7
      206     3447    2   END EDDIT;
      207     3448                                                /**/
      208     3449    1   END DDS$PROMPTC;

PL6.E3A0      #001=DDS$PROMPTC File=DXS$PROMPT.:E05TSI                           TUE 07/29/97 15:14 Page:8
--  Include file information  --

   DD_ERR_C.:E05TOU  is referenced.
   DD_SD_M.:E05TOU  is referenced.
   XUH_MACRO_C.:E05TOU  is referenced.
   B$TABLES_C.:E05TOU  cannot be made into a system file and is referenced.
   B$JIT_C.:E05TOU  was found in the system file and is never referenced.
   CP_6_C.:E05TOU  was found in the system file and is never referenced.
      No diagnostics issued in procedure DDS$PROMPTC.

   Procedure DDS$PROMPTC requires 371 words for executable code.
   Procedure DDS$PROMPTC requires 18 words of local(AUTO) storage.

    No errors detected in file DXS$PROMPT.:E05TSI    .

PL6.E3A0      #001=DDS$PROMPTC File=DXS$PROMPT.:E05TSI                           TUE 07/29/97 15:14 Page:9

 Object Unit name= DDS$PROMPTC                                File name= DXS$PROMPT.:E05TOU
 UTS= JUL 29 '97 15:14:13.20 TUE                              Compiler= PL-6/E31         Sev=      00
 SharedLib= :SHARED_SYSTEM                                    Alt SharedLib=


    ****  Control sections  ****

 Sect   Type Bound  Init  Size OctSiz  Section name(segment info)
    0  RoData even  UTS     21     25  DDS$PROMPTC
    1   Data  even  none   137    211  DDS$PROMPTC
    2   Proc  even  none   371    563  DDS$PROMPTC
    3  RoData even  none     3      3  DDS$PROMPTC

    ****  Entry defs  ****

                              Check   Calling
                             calling  sequence
  Sect OctLoc Primary Altret sequence   type   Parms  Name
     2      0   yes            yes      Std        0  DDS$PROMPTC
     2     15                  yes      Std        0  DDS$PROMPT

  ****  Data defs  ****

 Sect OctLoc  Name                           Sect OctLoc  Name
    0      5  ESC
PL6.E3A0      #001=DDS$PROMPTC File=DXS$PROMPT.:E05TSI                           TUE 07/29/97 15:14 Page:10

  ****  Entry refs  ****

         Check        Calling
        calling       sequence
Altret sequence SRef   type   Args  Name
         yes          ~proc      0 B_POINTER
         yes           Std       2 DDQ$WRITENC
         yes           Std       2 DDQ$WRITE
 yes     yes           Std       2 DDQ$READ
         yes           Std       2 DXQ$WRTPI
         yes           Std       0 DDE$ERROR
                       nStd      0 X66_AUTO_0
                       Std       0 B_CONSPOOL_D
                       nStd      0 X66_ARET

  ****  Data refs  ****

  Flags:  r = read only, s = secondary
Flgs Name                             Flgs Name                             Flgs Name
     DCTX_ME                               DCTX_CR                               IN_DEV
     OUT_DEV                               OUT_DEV_SAVE                          ECHO_DEV
r    B$XL_UPPER$                      r    S_D$                                  B_VECTNIL

  ****  Segment refs  ****

  Flags:  r = read only, s = secondary
Flgs Name                             Flgs Name                             Flgs Name
     ISSID
PL6.E3A0      #001=DDS$PROMPTC File=DXS$PROMPT.:E05TSI                           TUE 07/29/97 15:14 Page:11


        1        1        /*M* DXS$PROMPT - Prompts for input, reads & edits input */
        2        2        /*T***********************************************************/
        3        3        /*T*                                                         */
        4        4        /*T* Copyright (c) Bull HN Information Systems Inc., 1997    */
        5        5        /*T*                                                         */
        6        6        /*T***********************************************************/
        7        7        /*X* DMR,PLM=5,IND=5,CSU=3,EXM=0,ECU=3,MOC,DCI=5,CRT=5 */
        8        8        /*D* NAME: DCS$PROMPT */
        9        9                                                /**/
       10       10        DDS$PROMPTC: PROC;

     10  2 000000   000000 700200 xent  DDS$PROMPTC  TSX0  ! X66_AUTO_0
         2 000001   000022 000000                    ZERO    18,0

       11       11                                                /**/
       12       12    1   DCL IX SBIN;                            /* Must be SBIN */
       13       13    1   DCL IXX UBIN;
       14       14    1   DCL PROS UBIN;
       15       15    1   DCL SIZEREAD UBIN;
       16       16    1   DCL OUTPT SBIN;                         /* Must be SBIN */
       17       17    1   DCL LOCAR CHAR(1);
       18       18    1   DCL SAVE_OUT UBIN;
       19       19    1   DCL BNS UBIN;
       20       20    1   DCL CHAR1 CHAR(1) BASED;
       21       21    1   DCL BN$EW CHAR(BNS) BASED(BN$);
       22       22    1   DCL BO$LD CHAR(BOS) BASED(BO$);
       23       23    1   DCL PR$OM CHAR(PROS) BASED(PROM$);
       24       24    1   DCL PUNCHINT(0:3) CHAR(1) UNAL CONSTANT INIT( ']', '^', '|', BITASC('331'O) );
       25       25    1   DCL PUNCHIN REDEF PUNCHINT CHAR(4);
       26       26    1   DCL PUNCHOUT(0:3) CHAR(1) UNAL CONSTANT INIT( '!', '~', '^', '\' );
       27       27    1   DCL BS CHAR(1) CONSTANT INIT(BITASC('010'O));
       28       28    1   DCL CAN CHAR(1) CONSTANT INIT(BITASC('030'O));
       29       29    1   DCL DEL CHAR(1) CONSTANT INIT(BITASC('177'O));
       30       30    1   DCL ESC(0:3) CHAR(1) UNAL CONSTANT SYMDEF INIT(BITASC('033'O), /* ESC */
       31       31    1                           BITASC('133'O), /* [ */
       32       32    1                           BITASC('173'O), /* { */
PL6.E3A0      #001=DDS$PROMPTC File=DXS$PROMPT.:E05TSI                           TUE 07/29/97 15:14 Page:12
       33       33    1                          BITASC('033'O)); /* Filler */
       34       34    1   DCL EESC REDEF ESC CHAR(4);
       35       35    1   DCL BO$ PTR CONSTANT INIT(ADDR(BUFOLD));
       36       36    1   DCL BUFOLE(0:255) CHAR(1) UNAL STATIC INIT( ' '*256 );
       37       37    1   DCL BUFOLD REDEF BUFOLE CHAR(256);
       38       38    1   DCL BOS UBIN STATIC INIT( 0 );
       39       39    1   DCL BUFNEW CHAR(256) STATIC;
       40       40    1   DCL BN$ PTR CONSTANT INIT( ADDR ( BUFNEW ) );
       41       41    1   DCL EBUF$ PTR;
       42       42    1   DCL PROMPT CHAR(30) STATIC;
       43       43    1   DCL PROM$ PTR CONSTANT INIT( ADDR( PROMPT ) );
       44       44    1   DCL DCTX_ME SBIN SYMREF;
       45       45    1   DCL DCTX_CR UBIN SYMREF;
       46       46    1   DCL DCTX_PATCH UBIN SYMREF;
       47       47    1   DCL IN_DEV UBIN SYMREF;
       48       48    1   DCL OUT_DEV UBIN SYMREF;
       49       49    1   DCL OUT_DEV_SAVE UBIN SYMREF;
       50       50    1   DCL ECHO_DEV UBIN SYMREF;
       51       51        %INCLUDE B$TABLES_C;
       52      159        %B$XL_UPPER;
       53      163        %INCLUDE XUH_MACRO_C;
       54      247        %INCLUDE DD_SD_M;
       55     1583        %S_D;
       56     2901        %INCLUDE DD_ERR_C;
       57     3298    1   DCL DDQ$WRITENC ENTRY(2);
       58     3299    1   DCL DDQ$WRITE ENTRY(2);
       59     3300    1   DCL DDQ$READ ENTRY(2) ALTRET;
       60     3301    1   DCL DDE$ERROR ENTRY;
       61     3302    1   DCL DXQ$WRTPI ENTRY(2);
       62     3303        %SUB @MACTP="' M'/* @MACTP */";
       63     3304        %SUB @CONTP="'99'/* @CONTP */";
       64     3305                                                /**/
       65     3306    1        CALL BINCHAR( SUBSTR( PROMPT, 0, LENGTHC( @CONTP ) ), S_D.STORED );

   3306  2 000002   000000 470400 xsym               LDP0    S_D$
         2 000003   000000 301500                    BTD
         2 000004   000135 000004                    NDSC9   93,,PR0                  cn=0,s=lsgnf,sf=0,n=4
PL6.E3A0      #001=DDS$PROMPTC File=DXS$PROMPT.:E05TSI                           TUE 07/29/97 15:14 Page:13
         2 000005   000201 030002 1                  NDSC9   PROMPT                   cn=0,s=nosgn,sf=0,n=2

       66     3307    1        CALL INSERT( PROMPT, LENGTHC( @CONTP ), , S_D.UPROMPT );

   3307  2 000006   040000 100500                    MLR     fill='040'O
         2 000007   005160 000030                    ADSC9   2672,,PR0                cn=0,n=24
         2 000010   000201 400034 1                  ADSC9   PROMPT                   cn=2,n=28

       67     3308    1        PROS = LENGTHC( @CONTP ) + S_D.UPROMPT_SIZE;

   3308  2 000011   005166 235100                    LDA     2678,,PR0
         2 000012   000002 035007                    ADLA    2,DL
         2 000013   200005 755100                    STA     PROS,,AUTO

       68     3309    1        GOTO WRITEIT;

   3309  2 000014   000041 710000 2                  TRA     WRITEIT

       69     3310                                                /**/
       70     3311    1   DDS$PROMPT: ENTRY;

   3311  2 000015   000000 700200 xent  DDS$PROMPT   TSX0  ! X66_AUTO_0
         2 000016   000022 000000                    ZERO    18,0

       71     3312                                                /**/
       72     3313    1        IF S_D.MACTIVE

   3313  2 000017   000000 470400 xsym               LDP0    S_D$
         2 000020   000713 234100                    SZN     459,,PR0
         2 000021   000034 605000 2                  TPL     s:3319

       73     3314    2        THEN DO;

       74     3315    2             CALL CONCAT( PROMPT, @MACTP, S_D.UPROMPT );

   3315  2 000022   000012 220000 0                  LDX0    PROM$+2
         2 000023   000201 740000 1                  STX0    PROMPT
PL6.E3A0      #001=DDS$PROMPTC File=DXS$PROMPT.:E05TSI                           TUE 07/29/97 15:14 Page:14
         2 000024   040000 100500                    MLR     fill='040'O
         2 000025   005160 000030                    ADSC9   2672,,PR0                cn=0,n=24
         2 000026   000201 400034 1                  ADSC9   PROMPT                   cn=2,n=28

       75     3316    2             PROS = LENGTHC( @MACTP ) + S_D.UPROMPT_SIZE;

   3316  2 000027   000000 470400 xsym               LDP0    S_D$
         2 000030   005166 235100                    LDA     2678,,PR0
         2 000031   000002 035007                    ADLA    2,DL
         2 000032   200005 755100                    STA     PROS,,AUTO

       76     3317    2           END;

   3317  2 000033   000041 710000 2                  TRA     WRITEIT

       77     3318    2        ELSE DO;

       78     3319    2             PROMPT = S_D.UPROMPT;

   3319  2 000034   040000 100500                    MLR     fill='040'O
         2 000035   005160 000030                    ADSC9   2672,,PR0                cn=0,n=24
         2 000036   000201 000036 1                  ADSC9   PROMPT                   cn=0,n=30

       79     3320    2             PROS = S_D.UPROMPT_SIZE;

   3320  2 000037   005166 235100                    LDA     2678,,PR0
         2 000040   200005 755100                    STA     PROS,,AUTO

       80     3321    2           END;

       81     3322                                                /**/
       82     3323    1   WRITEIT:
       83     3324    1        S_D.OUTPUT = PR$OM;

   3324  2 000041   000010 470400 0     WRITEIT      LDP0    PROM$
         2 000042   200005 720100                    LXL0    PROS,,AUTO
         2 000043   000000 471400 xsym               LDP1    S_D$
PL6.E3A0      #001=DDS$PROMPTC File=DXS$PROMPT.:E05TSI                           TUE 07/29/97 15:14 Page:15
         2 000044   040100 100540                    MLR     fill='040'O
         2 000045   000000 000010                    ADSC9   0,,PR0                   cn=0,n=*X0
         2 000046   105335 004000                    ADSC9   2781,,PR1                cn=0,n=2048

       84     3325    1        S_D.INPUT = ' ';                   /* Blank out input buffer */

   3325  2 000047   040100 100400                    MLR     fill='040'O
         2 000050   000035 000001 xsym               ADSC9   B_VECTNIL+29             cn=0,n=1
         2 000051   100610 000400                    ADSC9   392,,PR1                 cn=0,n=256

       85     3326    1        IF IN_DEV = DCTX_ME

   3326  2 000052   000000 236000 xsym               LDQ     IN_DEV
         2 000053   000134 604000 2                  TMI     s:3340
         2 000054   000000 116000 xsym               CMPQ    DCTX_ME
         2 000055   000134 601000 2                  TNZ     s:3340

       86     3327    2        THEN DO;

       87     3328    2             SAVE_OUT = OUT_DEV;

   3328  2 000056   000000 235000 xsym               LDA     OUT_DEV
         2 000057   200011 755100                    STA     SAVE_OUT,,AUTO

       88     3329    2             OUT_DEV = DCTX_ME;

   3329  2 000060   000000 235000 xsym               LDA     DCTX_ME
         2 000061   000000 755000 xsym               STA     OUT_DEV

       89     3330    2             S_D.OUT_WIDTH = 79;

   3330  2 000062   000117 235007                    LDA     79,DL
         2 000063   100014 755100                    STA     12,,PR1

       90     3331    2             IF S_D.MACTIVE OR S_D.STEP

   3331  2 000064   100713 234100                    SZN     459,,PR1
PL6.E3A0      #001=DDS$PROMPTC File=DXS$PROMPT.:E05TSI                           TUE 07/29/97 15:14 Page:16
         2 000065   000070 604000 2                  TMI     s:3332
         2 000066   100722 234100                    SZN     466,,PR1
         2 000067   000104 605000 2                  TPL     s:3333

       91     3332    2             THEN CALL DDQ$WRITENC ( ADDR( S_D.OUTPUT ), PROS );

   3332  2 000070   000000 236000 xsym               LDQ     S_D$
         2 000071   005335 036003                    ADLQ    2781,DU
         2 000072   200016 756100                    STQ     EBUF$+3,,AUTO
         2 000073   200005 633500                    EPPR3   PROS,,AUTO
         2 000074   200021 453500                    STP3    EBUF$+6,,AUTO
         2 000075   200016 634500                    EPPR4   EBUF$+3,,AUTO
         2 000076   200020 454500                    STP4    EBUF$+5,,AUTO
         2 000077   200020 630500                    EPPR0   EBUF$+5,,AUTO
         2 000100   000020 631400 xsym               EPPR1   B_VECTNIL+16
         2 000101   000000 701000 xent               TSX1    DDQ$WRITENC
         2 000102   000000 011000                    NOP     0
         2 000103   000117 710000 2                  TRA     s:3334

       92     3333    2             ELSE CALL DDQ$WRITE( ADDR( S_D.OUTPUT ), PROS );

   3333  2 000104   000000 236000 xsym               LDQ     S_D$
         2 000105   005335 036003                    ADLQ    2781,DU
         2 000106   200016 756100                    STQ     EBUF$+3,,AUTO
         2 000107   200005 633500                    EPPR3   PROS,,AUTO
         2 000110   200021 453500                    STP3    EBUF$+6,,AUTO
         2 000111   200016 634500                    EPPR4   EBUF$+3,,AUTO
         2 000112   200020 454500                    STP4    EBUF$+5,,AUTO
         2 000113   200020 630500                    EPPR0   EBUF$+5,,AUTO
         2 000114   000020 631400 xsym               EPPR1   B_VECTNIL+16
         2 000115   000000 701000 xent               TSX1    DDQ$WRITE
         2 000116   000000 011000                    NOP     0

       93     3334    2             OUT_DEV = SAVE_OUT;

   3334  2 000117   200011 235100                    LDA     SAVE_OUT,,AUTO
         2 000120   000000 755000 xsym               STA     OUT_DEV
PL6.E3A0      #001=DDS$PROMPTC File=DXS$PROMPT.:E05TSI                           TUE 07/29/97 15:14 Page:17

       94     3335    2             IF OUT_DEV = DCTX_ME

   3335  2 000121   000000 236000 xsym               LDQ     OUT_DEV
         2 000122   000131 604000 2                  TMI     s:3337
         2 000123   000000 116000 xsym               CMPQ    DCTX_ME
         2 000124   000131 601000 2                  TNZ     s:3337

       95     3336    2             THEN S_D.OUT_WIDTH = 79;

   3336  2 000125   000117 235007                    LDA     79,DL
         2 000126   000000 470400 xsym               LDP0    S_D$
         2 000127   000014 755100                    STA     12,,PR0
         2 000130   000134 710000 2                  TRA     s:3340

       96     3337    2             ELSE S_D.OUT_WIDTH = 132;

   3337  2 000131   000204 235007                    LDA     132,DL
         2 000132   000000 470400 xsym               LDP0    S_D$
         2 000133   000014 755100                    STA     12,,PR0

       97     3338    2           END;

       98     3339                                                /**/
       99     3340    1        S_D.STEP = '0'B;

   3340  2 000134   000000 470400 xsym               LDP0    S_D$
         2 000135   000722 450100                    STZ     466,,PR0

      100     3341    1        SIZEREAD = LENGTHC( S_D.INPUT );

   3341  2 000136   000400 235007                    LDA     256,DL
         2 000137   200006 755100                    STA     SIZEREAD,,AUTO

      101     3342    1        EBUF$ = ADDR(S_D.INPUT);

   3342  2 000140   000000 236000 xsym               LDQ     S_D$
PL6.E3A0      #001=DDS$PROMPTC File=DXS$PROMPT.:E05TSI                           TUE 07/29/97 15:14 Page:18
         2 000141   000610 036003                    ADLQ    392,DU
         2 000142   200013 756100                    STQ     EBUF$,,AUTO

      102     3343    1        CALL DDQ$READ ( EBUF$, SIZEREAD ) ALTRET( ERR );

   3343  2 000143   200006 631500                    EPPR1   SIZEREAD,,AUTO
         2 000144   200017 451500                    STP1    EBUF$+4,,AUTO
         2 000145   200013 633500                    EPPR3   EBUF$,,AUTO
         2 000146   200016 453500                    STP3    EBUF$+3,,AUTO
         2 000147   200016 630500                    EPPR0   EBUF$+3,,AUTO
         2 000150   000020 631400 xsym               EPPR1   B_VECTNIL+16
         2 000151   000000 701000 xent               TSX1    DDQ$READ
         2 000152   000435 702000 2                  TSX2    ERR

      103     3344    1        CALL EDDIT;

   3344  2 000153   000444 701000 2                  TSX1    EDDIT
         2 000154   000000 011000                    NOP     0

      104     3345    1        IF OUTPT > 0

   3345  2 000155   200007 235100                    LDA     OUTPT,,AUTO
         2 000156   000307 604400 2                  TMOZ    ACCEPT

      105     3346    1        THEN CALL INDEX( IXX, PINCRC(EBUF$,IX)->CHAR1, EESC ) ALTRET( ACCEPT );

   3346  2 000157   200013 470500                    LDP0    EBUF$,,AUTO
         2 000160   200003 236100                    LDQ     IX,,AUTO
         2 000161   000106 124400                    SCM     mask='000'O
         2 000162   000005 000004 0                  ADSC9   ESC                      cn=0,n=4
         2 000163   000000 000001                    ADSC9   0,Q,PR0                  cn=0,n=1
         2 000164   200004 000100                    ARG     IXX,,AUTO
         2 000165   000307 606400 2                  TTN     ACCEPT
         2 000166   000167 710000 2                  TRA     AGAIN

      106     3347    1        ELSE GOTO ACCEPT;                  /* Wipeout BO$LD */
      107     3348    1   AGAIN:
PL6.E3A0      #001=DDS$PROMPTC File=DXS$PROMPT.:E05TSI                           TUE 07/29/97 15:14 Page:19
      108     3349    2        DO;

   3349  2 000167                       AGAIN        null
      109     3350    2             CALL CONCAT( S_D.OUTPUT, PR$OM, BO$LD );

   3350  2 000167   000010 470400 0                  LDP0    PROM$
         2 000170   200005 720100                    LXL0    PROS,,AUTO
         2 000171   000000 471400 xsym               LDP1    S_D$
         2 000172   040100 100540                    MLR     fill='040'O
         2 000173   000000 000010                    ADSC9   0,,PR0                   cn=0,n=*X0
         2 000174   105335 004000                    ADSC9   2781,,PR1                cn=0,n=2048
         2 000175   200005 236100                    LDQ     PROS,,AUTO
         2 000176   004000 116007                    CMPQ    2048,DL
         2 000177   000207 603000 2                  TRC     s:3351
         2 000200   773777 621006                    EAX1    -2049,QL
         2 000201   777777 661003                    ERX1    -1,DU
         2 000202   000006 473400 0                  LDP3    BO$
         2 000203   000100 722000 1                  LXL2    BOS
         2 000204   040146 100540                    MLR     fill='040'O
         2 000205   300000 000012                    ADSC9   0,,PR3                   cn=0,n=*X2
         2 000206   105335 000011                    ADSC9   2781,Q,PR1               cn=0,n=*X1

      110     3351    2             OUTPT = PROS + BOS;

   3351  2 000207   200005 236100                    LDQ     PROS,,AUTO
         2 000210   000100 036000 1                  ADLQ    BOS
         2 000211   200007 756100                    STQ     OUTPT,,AUTO

      111     3352    2             CALL DDQ$WRITE( ADDR( S_D.OUTPUT ), OUTPT );

   3352  2 000212   000000 236000 xsym               LDQ     S_D$
         2 000213   005335 036003                    ADLQ    2781,DU
         2 000214   200016 756100                    STQ     EBUF$+3,,AUTO
         2 000215   200007 633500                    EPPR3   OUTPT,,AUTO
         2 000216   200021 453500                    STP3    EBUF$+6,,AUTO
         2 000217   200016 634500                    EPPR4   EBUF$+3,,AUTO
         2 000220   200020 454500                    STP4    EBUF$+5,,AUTO
PL6.E3A0      #001=DDS$PROMPTC File=DXS$PROMPT.:E05TSI                           TUE 07/29/97 15:14 Page:20
         2 000221   200020 630500                    EPPR0   EBUF$+5,,AUTO
         2 000222   000020 631400 xsym               EPPR1   B_VECTNIL+16
         2 000223   000000 701000 xent               TSX1    DDQ$WRITE
         2 000224   000000 011000                    NOP     0

      112     3353    2             BUFNEW = ' ';

   3353  2 000225   040000 100400                    MLR     fill='040'O
         2 000226   000035 000001 xsym               ADSC9   B_VECTNIL+29             cn=0,n=1
         2 000227   000101 000400 1                  ADSC9   BUFNEW                   cn=0,n=256

      113     3354    2             BNS = LENGTHC( BUFNEW );

   3354  2 000230   000400 235007                    LDA     256,DL
         2 000231   200012 755100                    STA     BNS,,AUTO

      114     3355    2             CALL DDQ$READ( BN$, BNS ) ALTRET( ERR );

   3355  2 000232   200012 630500                    EPPR0   BNS,,AUTO
         2 000233   200017 450500                    STP0    EBUF$+4,,AUTO
         2 000234   000000 236000 3                  LDQ     0
         2 000235   200016 756100                    STQ     EBUF$+3,,AUTO
         2 000236   200016 630500                    EPPR0   EBUF$+3,,AUTO
         2 000237   000020 631400 xsym               EPPR1   B_VECTNIL+16
         2 000240   000000 701000 xent               TSX1    DDQ$READ
         2 000241   000435 702000 2                  TSX2    ERR

      115     3356    2             CALL CONCAT( S_D.INPUT, BO$LD, BN$EW );

   3356  2 000242   000006 470400 0                  LDP0    BO$
         2 000243   000100 720000 1                  LXL0    BOS
         2 000244   000000 471400 xsym               LDP1    S_D$
         2 000245   040100 100540                    MLR     fill='040'O
         2 000246   000000 000010                    ADSC9   0,,PR0                   cn=0,n=*X0
         2 000247   100610 000400                    ADSC9   392,,PR1                 cn=0,n=256
         2 000250   000100 236000 1                  LDQ     BOS
         2 000251   000400 116007                    CMPQ    256,DL
PL6.E3A0      #001=DDS$PROMPTC File=DXS$PROMPT.:E05TSI                           TUE 07/29/97 15:14 Page:21
         2 000252   000262 603000 2                  TRC     s:3357
         2 000253   777377 621006                    EAX1    -257,QL
         2 000254   777777 661003                    ERX1    -1,DU
         2 000255   000007 473400 0                  LDP3    BN$
         2 000256   200012 722100                    LXL2    BNS,,AUTO
         2 000257   040146 100540                    MLR     fill='040'O
         2 000260   300000 000012                    ADSC9   0,,PR3                   cn=0,n=*X2
         2 000261   100610 000011                    ADSC9   392,Q,PR1                cn=0,n=*X1

      116     3357    2             CALL EDDIT;

   3357  2 000262   000444 701000 2                  TSX1    EDDIT
         2 000263   000000 011000                    NOP     0

      117     3358    2             IF OUTPT > 0

   3358  2 000264   200007 235100                    LDA     OUTPT,,AUTO
         2 000265   000277 604400 2                  TMOZ    GO1

      118     3359    2             THEN CALL INDEX( IXX, PINCRC(EBUF$,IX)->CHAR1, EESC ) ALTRET( GO1 );

   3359  2 000266   200013 470500                    LDP0    EBUF$,,AUTO
         2 000267   200003 236100                    LDQ     IX,,AUTO
         2 000270   000106 124400                    SCM     mask='000'O
         2 000271   000005 000004 0                  ADSC9   ESC                      cn=0,n=4
         2 000272   000000 000001                    ADSC9   0,Q,PR0                  cn=0,n=1
         2 000273   200004 000100                    ARG     IXX,,AUTO
         2 000274   000277 606400 2                  TTN     GO1
         2 000275   000276 710000 2                  TRA     s:3361

      119     3360    2             ELSE GOTO GO1;
      120     3361    2             GOTO AGAIN;                   /* Hit Ctrl-X, ESC or xxxx, ESC */

   3361  2 000276   000167 710000 2                  TRA     AGAIN

      121     3362    2   GO1:
      122     3363    2             BUFOLD = S_D.INPUT;
PL6.E3A0      #001=DDS$PROMPTC File=DXS$PROMPT.:E05TSI                           TUE 07/29/97 15:14 Page:22

   3363  2 000277   000000 470400 xsym  GO1          LDP0    S_D$
         2 000300   040000 100500                    MLR     fill='040'O
         2 000301   000610 000400                    ADSC9   392,,PR0                 cn=0,n=256
         2 000302   000000 000400 1                  ADSC9   BUFOLE                   cn=0,n=256

      123     3364    2             BOS = OUTPT;

   3364  2 000303   200007 235100                    LDA     OUTPT,,AUTO
         2 000304   000100 755000 1                  STA     BOS

      124     3365    2             S_D.NCHARS = BOS;

   3365  2 000305   000065 755100                    STA     53,,PR0

      125     3366                                                /**/
      126     3367    2             GOTO RETN;

   3367  2 000306   000316 710000 2                  TRA     RETN

      127     3368                                                /**/
      128     3369    2           END AGAIN;
      129     3370                                                /**/
      130     3371    1   ACCEPT:
      131     3372    1        S_D.NCHARS = OUTPT;

   3372  2 000307   000000 470400 xsym  ACCEPT       LDP0    S_D$
         2 000310   200007 235100                    LDA     OUTPT,,AUTO
         2 000311   000065 755100                    STA     53,,PR0

      132     3373    1        BUFOLD = S_D.INPUT;

   3373  2 000312   040000 100500                    MLR     fill='040'O
         2 000313   000610 000400                    ADSC9   392,,PR0                 cn=0,n=256
         2 000314   000000 000400 1                  ADSC9   BUFOLE                   cn=0,n=256

      133     3374    1        BOS = OUTPT;
PL6.E3A0      #001=DDS$PROMPTC File=DXS$PROMPT.:E05TSI                           TUE 07/29/97 15:14 Page:23

   3374  2 000315   000100 755000 1                  STA     BOS

      134     3375                                                /**/
      135     3376    1   RETN:
      136     3377    1        IF IN_DEV ~= DCTX_ME

   3377  2 000316   000000 236000 xsym  RETN         LDQ     IN_DEV
         2 000317   000322 604000 2                  TMI     s:3379
         2 000320   000000 116000 xsym               CMPQ    DCTX_ME
         2 000321   000365 600000 2                  TZE     s:3390

      137     3378    2        THEN DO;

      138     3379    2             SAVE_OUT = OUT_DEV;

   3379  2 000322   000000 235000 xsym               LDA     OUT_DEV
         2 000323   200011 755100                    STA     SAVE_OUT,,AUTO

      139     3380    2             OUT_DEV = ECHO_DEV;

   3380  2 000324   000000 235000 xsym               LDA     ECHO_DEV
         2 000325   000000 755000 xsym               STA     OUT_DEV

      140     3381    2             IF OUT_DEV = DCTX_ME

   3381  2 000326   000000 236000 xsym               LDQ     OUT_DEV
         2 000327   000335 604000 2                  TMI     s:3383
         2 000330   000000 116000 xsym               CMPQ    DCTX_ME
         2 000331   000335 601000 2                  TNZ     s:3383

      141     3382    2             THEN S_D.OUT_WIDTH = 79;

   3382  2 000332   000117 235007                    LDA     79,DL
         2 000333   000014 755100                    STA     12,,PR0
         2 000334   000337 710000 2                  TRA     s:3384

PL6.E3A0      #001=DDS$PROMPTC File=DXS$PROMPT.:E05TSI                           TUE 07/29/97 15:14 Page:24
      142     3383    2             ELSE S_D.OUT_WIDTH = 132;

   3383  2 000335   000204 235007                    LDA     132,DL
         2 000336   000014 755100                    STA     12,,PR0

      143     3384    2             CALL DDQ$WRITE( EBUF$, S_D.NCHARS );

   3384  2 000337   000000 236000 xsym               LDQ     S_D$
         2 000340   000065 036003                    ADLQ    53,DU
         2 000341   200017 756100                    STQ     EBUF$+4,,AUTO
         2 000342   200013 631500                    EPPR1   EBUF$,,AUTO
         2 000343   200016 451500                    STP1    EBUF$+3,,AUTO
         2 000344   200016 630500                    EPPR0   EBUF$+3,,AUTO
         2 000345   000020 631400 xsym               EPPR1   B_VECTNIL+16
         2 000346   000000 701000 xent               TSX1    DDQ$WRITE
         2 000347   000000 011000                    NOP     0

      144     3385    2             OUT_DEV = SAVE_OUT;

   3385  2 000350   200011 235100                    LDA     SAVE_OUT,,AUTO
         2 000351   000000 755000 xsym               STA     OUT_DEV

      145     3386    2             IF OUT_DEV = DCTX_ME

   3386  2 000352   000000 236000 xsym               LDQ     OUT_DEV
         2 000353   000362 604000 2                  TMI     s:3388
         2 000354   000000 116000 xsym               CMPQ    DCTX_ME
         2 000355   000362 601000 2                  TNZ     s:3388

      146     3387    2             THEN S_D.OUT_WIDTH = 79;

   3387  2 000356   000117 235007                    LDA     79,DL
         2 000357   000000 470400 xsym               LDP0    S_D$
         2 000360   000014 755100                    STA     12,,PR0
         2 000361   000365 710000 2                  TRA     s:3390

      147     3388    2             ELSE S_D.OUT_WIDTH = 132;
PL6.E3A0      #001=DDS$PROMPTC File=DXS$PROMPT.:E05TSI                           TUE 07/29/97 15:14 Page:25

   3388  2 000362   000204 235007                    LDA     132,DL
         2 000363   000000 470400 xsym               LDP0    S_D$
         2 000364   000014 755100                    STA     12,,PR0

      148     3389    2           END;

      149     3390    1        IF ( S_D.PATCH ) AND ( S_D.INPUT = '!EOD' )

   3390  2 000365   004754 234100                    SZN     2540,,PR0
         2 000366   000405 605000 2                  TPL     s:3398
         2 000367   040000 106500                    CMPC    fill='040'O
         2 000370   000610 000400                    ADSC9   392,,PR0                 cn=0,n=256
         2 000371   000013 000004 0                  ADSC9   PROM$+3                  cn=0,n=4
         2 000372   000405 601000 2                  TNZ     s:3398

      150     3391    2        THEN DO;

      151     3392    2             S_D.INPUT = 'GO        "Supplied by DXS$PROMPT';

   3392  2 000373   040100 100400                    MLR     fill='040'O
         2 000374   000014 000041 0                  ADSC9   PROM$+4                  cn=0,n=33
         2 000375   000610 000400                    ADSC9   392,,PR0                 cn=0,n=256

      152     3393    2             S_D.NCHARS = LENGTHC( 'GO        "Supplied by DXS$PROMPT' );

   3393  2 000376   000041 235007                    LDA     33,DL
         2 000377   000065 755100                    STA     53,,PR0

      153     3394    2             BOS = 0;

   3394  2 000400   000100 450000 1                  STZ     BOS

      154     3395    2             IN_DEV = DCTX_ME;

   3395  2 000401   000000 236000 xsym               LDQ     DCTX_ME
         2 000402   000000 756000 xsym               STQ     IN_DEV
PL6.E3A0      #001=DDS$PROMPTC File=DXS$PROMPT.:E05TSI                           TUE 07/29/97 15:14 Page:26

      155     3396    2             OUT_DEV = OUT_DEV_SAVE;

   3396  2 000403   000000 235000 xsym               LDA     OUT_DEV_SAVE
         2 000404   000000 755000 xsym               STA     OUT_DEV

      156     3397    2           END;

      157     3398    1        IF S_D.PATCH AND ADDR(S_D.INPUT)->CHAR1 ~= 'M'

   3398  2 000405   004754 234100                    SZN     2540,,PR0
         2 000406   000434 605000 2                  TPL     s:3404
         2 000407   000610 236100                    LDQ     392,,PR0
         2 000410   777000 376003                    ANQ     -512,DU
         2 000411   115000 116003                    CMPQ    39424,DU
         2 000412   000434 600000 2                  TZE     s:3404

      158     3399    2        THEN DO;                           /* Echo input, avoiding most modifies */

      159     3400    2             S_D.OUTPUT = ' ';

   3400  2 000413   040100 100400                    MLR     fill='040'O
         2 000414   000035 000001 xsym               ADSC9   B_VECTNIL+29             cn=0,n=1
         2 000415   005335 004000                    ADSC9   2781,,PR0                cn=0,n=2048

      160     3401    2             S_D.XDP.IMAGE.INP = S_D.INPUT;

   3401  2 000416   040100 100500                    MLR     fill='040'O
         2 000417   000610 000120                    ADSC9   392,,PR0                 cn=0,n=80
         2 000420   005335 000120                    ADSC9   2781,,PR0                cn=0,n=80

      161     3402    2             CALL DXQ$WRTPI (ADDR(S_D.XDP), SIZEC(S_D.XDP.IMAGE));

   3402  2 000421   000000 236000 xsym               LDQ     S_D$
         2 000422   005335 036003                    ADLQ    2781,DU
         2 000423   200016 756100                    STQ     EBUF$+3,,AUTO
         2 000424   000002 236000 3                  LDQ     2
PL6.E3A0      #001=DDS$PROMPTC File=DXS$PROMPT.:E05TSI                           TUE 07/29/97 15:14 Page:27
         2 000425   200021 756100                    STQ     EBUF$+6,,AUTO
         2 000426   200016 631500                    EPPR1   EBUF$+3,,AUTO
         2 000427   200020 451500                    STP1    EBUF$+5,,AUTO
         2 000430   200020 630500                    EPPR0   EBUF$+5,,AUTO
         2 000431   000020 631400 xsym               EPPR1   B_VECTNIL+16
         2 000432   000000 701000 xent               TSX1    DXQ$WRTPI
         2 000433   000000 011000                    NOP     0

      162     3403    2           END;

      163     3404    1        RETURN;

   3404  2 000434   000000 702200 xent               TSX2  ! X66_ARET

      164     3405                                                /**/
      165     3406    1   ERR:
      166     3407    1        S_D.ERROR = E@IN_DEV_ERROR;        /* E@IN_DEV_ERROR */

   3407  2 000435   000117 235007       ERR          LDA     79,DL
         2 000436   000000 470400 xsym               LDP0    S_D$
         2 000437   000013 755100                    STA     11,,PR0

      167     3408    1        CALL DDE$ERROR;

   3408  2 000440   000002 631400 xsym               EPPR1   B_VECTNIL+2
         2 000441   000000 701000 xent               TSX1    DDE$ERROR
         2 000442   000000 011000                    NOP     0

      168     3409    1        GOTO WRITEIT;

   3409  2 000443   000041 710000 2                  TRA     WRITEIT

      169     3410        %EJECT;
PL6.E3A0      #001=DDS$PROMPTC File=DXS$PROMPT.:E05TSI                           TUE 07/29/97 15:14 Page:28
      170     3411                                                /**/
      171     3412    1   EDDIT: PROC;

   3412  2 000444   200014 741300       EDDIT        STX1  ! EBUF$+1,,AUTO

      172     3413                                                /**/
      173     3414    2        OUTPT = 0;

   3414  2 000445   200007 450100                    STZ     OUTPT,,AUTO

      174     3415    3        DO IX = 0 TO SIZEREAD - 1;

   3415  2 000446   200003 450100                    STZ     IX,,AUTO
         2 000447   000536 710000 2                  TRA     s:3437+1

      175     3416    3             LOCAR = PINCRC( EBUF$, IX ) -> CHAR1;

   3416  2 000450   200013 470500                    LDP0    EBUF$,,AUTO
         2 000451   200003 235100                    LDA     IX,,AUTO
         2 000452   040100 100505                    MLR     fill='040'O
         2 000453   000000 000001                    ADSC9   0,A,PR0                  cn=0,n=1
         2 000454   200010 000001                    ADSC9   LOCAR,,AUTO              cn=0,n=1

      176     3417    3             IF ( LOCAR = BS ) OR ( LOCAR = DEL )

   3417  2 000455   200010 236100                    LDQ     LOCAR,,AUTO
         2 000456   000002 676000 0                  ERQ     BS
         2 000457   777000 376003                    ANQ     -512,DU
         2 000460   000465 600000 2                  TZE     s:3419
         2 000461   200010 236100                    LDQ     LOCAR,,AUTO
         2 000462   000004 676000 0                  ERQ     DEL
         2 000463   777000 376003                    ANQ     -512,DU
         2 000464   000477 601000 2                  TNZ     s:3424

      177     3418    4             THEN DO;

      178     3419    4                  OUTPT = OUTPT - 1;
PL6.E3A0      #001=DDS$PROMPTC File=DXS$PROMPT.:E05TSI                           TUE 07/29/97 15:14 Page:29

   3419  2 000465   000001 336007                    LCQ     1,DL
         2 000466   200007 056100                    ASQ     OUTPT,,AUTO

      179     3420    4                  IF ( OUTPT < 0 )

   3420  2 000467   000472 605000 2                  TPL     s:3422

      180     3421    4                  THEN OUTPT = 0;

   3421  2 000470   200007 450100                    STZ     OUTPT,,AUTO
         2 000471   000535 710000 2                  TRA     s:3437

      181     3422    4                  ELSE PINCRC( EBUF$, OUTPT ) -> CHAR1 = ' ';

   3422  2 000472   200007 235100                    LDA     OUTPT,,AUTO
         2 000473   040105 100400                    MLR     fill='040'O
         2 000474   000035 000001 xsym               ADSC9   B_VECTNIL+29             cn=0,n=1
         2 000475   000000 000001                    ADSC9   0,A,PR0                  cn=0,n=1

      182     3423    4                END;

   3423  2 000476   000535 710000 2                  TRA     s:3437

      183     3424    3             ELSE IF ( LOCAR = CAN )

   3424  2 000477   200010 236100                    LDQ     LOCAR,,AUTO
         2 000500   000003 676000 0                  ERQ     CAN
         2 000501   777000 376003                    ANQ     -512,DU
         2 000502   000505 601000 2                  TNZ     s:3426

      184     3425    3                  THEN OUTPT = 0;

   3425  2 000503   200007 450100                    STZ     OUTPT,,AUTO
         2 000504   000535 710000 2                  TRA     s:3437

      185     3426    3                  ELSE IF ( IN_DEV = DCTX_CR )
PL6.E3A0      #001=DDS$PROMPTC File=DXS$PROMPT.:E05TSI                           TUE 07/29/97 15:14 Page:30

   3426  2 000505   000000 236000 xsym               LDQ     IN_DEV
         2 000506   000000 116000 xsym               CMPQ    DCTX_CR
         2 000507   000524 601000 2                  TNZ     NOTSPEC

      186     3427    4                       THEN DO;

      187     3428    4                            CALL INDEX( IXX, LOCAR, PUNCHIN ) ALTRET( NOTSPEC );

   3428  2 000510   000100 124400                    SCM     mask='000'O
         2 000511   000000 000004 0                  ADSC9   PUNCHINT                 cn=0,n=4
         2 000512   200010 000001                    ADSC9   LOCAR,,AUTO              cn=0,n=1
         2 000513   200004 000100                    ARG     IXX,,AUTO
         2 000514   000524 606400 2                  TTN     NOTSPEC

      188     3429    4                            PINCRC( EBUF$, OUTPT ) -> CHAR1 = PUNCHOUT( IXX );

   3429  2 000515   200004 235100                    LDA     IXX,,AUTO
         2 000516   200007 236100                    LDQ     OUTPT,,AUTO
         2 000517   040106 100405                    MLR     fill='040'O
         2 000520   000001 000001 0                  ADSC9   PUNCHOUT,A               cn=0,n=1
         2 000521   000000 000001                    ADSC9   0,Q,PR0                  cn=0,n=1

      189     3430    4                            OUTPT = OUTPT + 1;

   3430  2 000522   200007 054100                    AOS     OUTPT,,AUTO

      190     3431    4                          END;

   3431  2 000523   000535 710000 2                  TRA     s:3437

      191     3432    3                       ELSE
      192     3433    4   NOTSPEC:            DO;

   3433  2 000524                       NOTSPEC      null
      193     3434    4                            PINCRC( EBUF$, OUTPT ) -> CHAR1 = B$XL_UPPER.C( ASCBIN(
              3434                                     LOCAR ) );
PL6.E3A0      #001=DDS$PROMPTC File=DXS$PROMPT.:E05TSI                           TUE 07/29/97 15:14 Page:31

   3434  2 000524   200010 236100                    LDQ     LOCAR,,AUTO
         2 000525   000033 772000                    QRL     27
         2 000526   000000 470400 xsym               LDP0    B$XL_UPPER$
         2 000527   200013 471500                    LDP1    EBUF$,,AUTO
         2 000530   200007 235100                    LDA     OUTPT,,AUTO
         2 000531   040105 100506                    MLR     fill='040'O
         2 000532   000000 000001                    ADSC9   0,Q,PR0                  cn=0,n=1
         2 000533   100000 000001                    ADSC9   0,A,PR1                  cn=0,n=1

      194     3435    4                            OUTPT = OUTPT + 1;

   3435  2 000534   200007 054100                    AOS     OUTPT,,AUTO

      195     3436    4                          END;

      196     3437    3           END;

   3437  2 000535   200003 054100                    AOS     IX,,AUTO
         2 000536   200003 236100                    LDQ     IX,,AUTO
         2 000537   000450 604000 2                  TMI     s:3416
         2 000540   200006 116100                    CMPQ    SIZEREAD,,AUTO
         2 000541   000450 602000 2                  TNC     s:3416

      197     3438                                                /**/
      198     3439    2        IX = OUTPT - 1;

   3439  2 000542   200007 235100                    LDA     OUTPT,,AUTO
         2 000543   000001 135007                    SBLA    1,DL
         2 000544   200003 755100                    STA     IX,,AUTO

      199     3440    3        DO WHILE ( ( IX >= 0 ) AND ( PINCRC( EBUF$, IX ) -> CHAR1 = ' ' ) );

   3440  2 000545   000550 710000 2                  TRA     s:3442

      200     3441    3             IX = IX - 1;

PL6.E3A0      #001=DDS$PROMPTC File=DXS$PROMPT.:E05TSI                           TUE 07/29/97 15:14 Page:32
   3441  2 000546   000001 336007                    LCQ     1,DL
         2 000547   200003 056100                    ASQ     IX,,AUTO

      201     3442    3           END;

   3442  2 000550   200003 235100                    LDA     IX,,AUTO
         2 000551   000557 604000 2                  TMI     s:3443
         2 000552   200013 470500                    LDP0    EBUF$,,AUTO
         2 000553   040000 106505                    CMPC    fill='040'O
         2 000554   000000 000001                    ADSC9   0,A,PR0                  cn=0,n=1
         2 000555   000035 000001 xsym               ADSC9   B_VECTNIL+29             cn=0,n=1
         2 000556   000546 600000 2                  TZE     s:3441

      202     3443    2        OUTPT = IX + 1;

   3443  2 000557   000001 035007                    ADLA    1,DL
         2 000560   200007 755100                    STA     OUTPT,,AUTO

      203     3444                                                /**/
      204     3445    2        RETURN;

   3445  2 000561   200014 221300                    LDX1  ! EBUF$+1,,AUTO
         2 000562   000001 702211                    TSX2  ! 1,X1

PUNCHINT
 Sect OctLoc
   0     000   135136 174331                                                    ]^|.

PUNCHOUT
 Sect OctLoc
   0     001   041176 136134                                                    !~^\

BS
 Sect OctLoc
   0     002   010*** ******                                                    ....

CAN
PL6.E3A0      #001=DDS$PROMPTC File=DXS$PROMPT.:E05TSI                           TUE 07/29/97 15:14 Page:33
 Sect OctLoc
   0     003   030*** ******                                                    ....

DEL
 Sect OctLoc
   0     004   177*** ******                                                    ....

ESC
 Sect OctLoc
   0     005   033133 173033                                                    .[{.

BO$
 Sect OctLoc
   0     006   000000 006000                                                    ....

BN$
 Sect OctLoc
   0     007   000101 006000                                                    .A..

PROM$
 Sect OctLoc
   0     010   000201 006000                                                    ....

(unnamed)
 Sect OctLoc
   0     011   071071 040040   040115 040040   041105 117104   107117 040040    99   M  !EODGO
   0     015   040040 040040   040040 042123   165160 160154   151145 144040          "Supplied
   0     021   142171 040104   130123 044120   122117 115120   124040 040040    by DXS$PROMPT

BUFOLE
 Sect OctLoc
   1     000   040040 040040   040040 040040   040040 040040   040040 040040
   1     074*  040040 040040   040040 040040   040040 040040   040040 040040

BOS
 Sect OctLoc
   1     100   000000 000000                                                    ....
PL6.E3A0      #001=DDS$PROMPTC File=DXS$PROMPT.:E05TSI                           TUE 07/29/97 15:14 Page:34

BUFNEW
 Sect OctLoc
   1     101   ****** ******   ****** ******   ****** ******   ****** ******    ................

PROMPT
 Sect OctLoc
   1     201   ****** ******   ****** ******   ****** ******   ****** ******    ................

(unnamed)
 Sect OctLoc
   3     000   000007 006000   000000 000310   000001 006000                    ............
      205     3446                                                /**/
      206     3447    2   END EDDIT;
      207     3448                                                /**/
      208     3449    1   END DDS$PROMPTC;

PL6.E3A0      #001=DDS$PROMPTC File=DXS$PROMPT.:E05TSI                           TUE 07/29/97 15:14 Page:35
--  Include file information  --

   DD_ERR_C.:E05TOU  is referenced.
   DD_SD_M.:E05TOU  is referenced.
   XUH_MACRO_C.:E05TOU  is referenced.
   B$TABLES_C.:E05TOU  cannot be made into a system file and is referenced.
   B$JIT_C.:E05TOU  was found in the system file and is never referenced.
   CP_6_C.:E05TOU  was found in the system file and is never referenced.
      No diagnostics issued in procedure DDS$PROMPTC.

   Procedure DDS$PROMPTC requires 371 words for executable code.
   Procedure DDS$PROMPTC requires 18 words of local(AUTO) storage.

    No errors detected in file DXS$PROMPT.:E05TSI    .
PL6.E3A0      #001=DDS$PROMPTC File=DXS$PROMPT.:E05TSI                           TUE 07/29/97 15:14 Page:36
          *** CROSS REFERENCE LISTING ***
**     DENOTES     IDENTIFIER DEFINITION
<<                 IDENTIFIER'S VALUE SET
>>                 IDENTIFIER'S VALUE USED
<>                 IDENTIFIER SET AND/OR USED
--                 IDENTIFIER REFERENCED
PL6.E3A0      #001=DDS$PROMPTC File=DXS$PROMPT.:E05TSI                           TUE 07/29/97 15:14 Page:37
          MINI XREF LISTING

ACCEPT
      3372**LABEL    3346--CALLALT  3347--GOTO
AGAIN
      3349**LABEL    3361--GOTO
B$XL_UPPER.C
       161**DCL      3434>>ASSIGN
B$XL_UPPER$
       160**DCL       161--IMP-PTR  3434>>ASSIGN
BN$
        40**DCL        21--IMP-PTR  3355<>CALL     3356>>CALLBLT
BN$EW
        21**DCL      3356>>CALLBLT
BNS
        19**DCL        21--IMP-SIZ  3354<<ASSIGN   3355<>CALL     3356>>CALLBLT
BO$
        35**DCL        22--IMP-PTR  3350>>CALLBLT  3356>>CALLBLT
BO$LD
        22**DCL      3350>>CALLBLT  3356>>CALLBLT
BOS
        38**DCL        22--IMP-SIZ  3350>>CALLBLT  3351>>ASSIGN   3356>>CALLBLT  3364<<ASSIGN   3365>>ASSIGN
      3374<<ASSIGN   3394<<ASSIGN
BS
        27**DCL      3417>>IF
BUFNEW
        39**DCL        40--DCLINIT  3353<<ASSIGN   3354--ASSIGN
BUFOLD
        37**DCL        35--DCLINIT  3363<<ASSIGN   3373<<ASSIGN
BUFOLE
        36**DCL        37--REDEF
CAN
        28**DCL      3424>>IF
CHAR1
PL6.E3A0      #001=DDS$PROMPTC File=DXS$PROMPT.:E05TSI                           TUE 07/29/97 15:14 Page:38
        20**DCL      3346>>CALLBLT  3359>>CALLBLT  3398>>IF       3416>>ASSIGN   3422<<ASSIGN   3429<<ASSIGN
      3434<<ASSIGN   3440>>DOWHILE
DCTX_CR
        45**DCL      3426>>IF
DCTX_ME
        44**DCL      3326>>IF       3329>>ASSIGN   3335>>IF       3377>>IF       3381>>IF       3386>>IF
      3395>>ASSIGN
DDE$ERROR
      3301**DCL-ENT  3408--CALL
DDQ$READ
      3300**DCL-ENT  3343--CALL     3355--CALL
DDQ$WRITE
      3299**DCL-ENT  3333--CALL     3352--CALL     3384--CALL
DDQ$WRITENC
      3298**DCL-ENT  3332--CALL
DEL
        29**DCL      3417>>IF
DXQ$WRTPI
      3302**DCL-ENT  3402--CALL
EBUF$
        41**DCL      3342<<ASSIGN   3343<>CALL     3346>>CALLBLT  3359>>CALLBLT  3384<>CALL     3416>>ASSIGN
      3422>>ASSIGN   3429>>ASSIGN   3434>>ASSIGN   3440>>DOWHILE
ECHO_DEV
        50**DCL      3380>>ASSIGN
EDDIT
      3412**PROC     3344--CALL     3357--CALL
EESC
        34**DCL      3346>>CALLBLT  3359>>CALLBLT
ERR
      3407**LABEL    3343--CALLALT  3355--CALLALT
ESC
        30**DCL        34--REDEF
GO1
      3363**LABEL    3359--CALLALT  3360--GOTO
IN_DEV
        47**DCL      3326>>IF       3377>>IF       3395<<ASSIGN   3426>>IF
PL6.E3A0      #001=DDS$PROMPTC File=DXS$PROMPT.:E05TSI                           TUE 07/29/97 15:14 Page:39
IX
        12**DCL      3346>>CALLBLT  3359>>CALLBLT  3415<<DOINDEX  3416>>ASSIGN   3439<<ASSIGN   3440>>DOWHILE
      3440>>DOWHILE  3441<<ASSIGN   3441>>ASSIGN   3443>>ASSIGN
IXX
        13**DCL      3346<<CALLBLT  3359<<CALLBLT  3428<<CALLBLT  3429>>ASSIGN
LOCAR
        17**DCL      3416<<ASSIGN   3417>>IF       3417>>IF       3424>>IF       3428>>CALLBLT  3434>>ASSIGN
NOTSPEC IN PROCEDURE EDDIT
      3433**LABEL    3428--CALLALT
OUTPT
        16**DCL      3345>>IF       3351<<ASSIGN   3352<>CALL     3358>>IF       3364>>ASSIGN   3372>>ASSIGN
      3374>>ASSIGN   3414<<ASSIGN   3419<<ASSIGN   3419>>ASSIGN   3420>>IF       3421<<ASSIGN   3422>>ASSIGN
      3425<<ASSIGN   3429>>ASSIGN   3430<<ASSIGN   3430>>ASSIGN   3434>>ASSIGN   3435<<ASSIGN   3435>>ASSIGN
      3439>>ASSIGN   3443<<ASSIGN
OUT_DEV
        48**DCL      3328>>ASSIGN   3329<<ASSIGN   3334<<ASSIGN   3335>>IF       3379>>ASSIGN   3380<<ASSIGN
      3381>>IF       3385<<ASSIGN   3386>>IF       3396<<ASSIGN
OUT_DEV_SAVE
        49**DCL      3396>>ASSIGN
PR$OM
        23**DCL      3324>>ASSIGN   3350>>CALLBLT
PROM$
        43**DCL        23--IMP-PTR  3324>>ASSIGN   3350>>CALLBLT
PROMPT
        42**DCL        43--DCLINIT  3306<<CALLBLT  3307<<CALLBLT  3315<<CALLBLT  3319<<ASSIGN
PROS
        14**DCL        23--IMP-SIZ  3308<<ASSIGN   3316<<ASSIGN   3320<<ASSIGN   3324>>ASSIGN   3332<>CALL
      3333<>CALL     3350>>CALLBLT  3351>>ASSIGN
PUNCHIN
        25**DCL      3428>>CALLBLT
PUNCHINT
        24**DCL        25--REDEF
PUNCHOUT
        26**DCL      3429>>ASSIGN
RETN
      3377**LABEL    3367--GOTO
PL6.E3A0      #001=DDS$PROMPTC File=DXS$PROMPT.:E05TSI                           TUE 07/29/97 15:14 Page:40
SAVE_OUT
        18**DCL      3328<<ASSIGN   3334>>ASSIGN   3379<<ASSIGN   3385>>ASSIGN
SIZEREAD
        15**DCL      3341<<ASSIGN   3343<>CALL     3415>>DOINDEX
S_D.CURRENT_CHANNEL
      2535**DCL      2537--REDEF
S_D.DEBUGA
      1687**DCL      1689--REDEF
S_D.EIS
      2645**DCL      2674--REDEF
S_D.ERROR
      1616**DCL      3407<<ASSIGN
S_D.HOST_MESSAGE_BUF_REMOTE
      2578**DCL      2579--REDEF    2593--REDEF
S_D.INPUT
      1850**DCL      3325<<ASSIGN   3341--ASSIGN   3342--ASSIGN   3356<<CALLBLT  3363>>ASSIGN   3373>>ASSIGN
      3390>>IF       3392<<ASSIGN   3398--IF       3401>>ASSIGN
S_D.JDE
      2192**DCL      2193--REDEF
S_D.L$.VALUE
      1745**DCL      1751--REDEF    1759--REDEF    1762--REDEF    1765--REDEF    1768--REDEF
S_D.L$.VALUE.L
      1746**DCL      1747--REDEF    1748--REDEF
S_D.L6_MESSAGE_BUF
      2599**DCL      2601--REDEF
S_D.MACTIVE
      1856**DCL      3313>>IF       3331>>IF
S_D.NCHARS
      1709**DCL      3365<<ASSIGN   3372<<ASSIGN   3384<>CALL     3393<<ASSIGN
S_D.OUTPUT
      2565**DCL      2567--REDEF    3324<<ASSIGN   3332--CALL     3333--CALL     3350<<CALLBLT  3352--CALL
      3400<<ASSIGN
S_D.OUT_WIDTH
      1618**DCL      3330<<ASSIGN   3336<<ASSIGN   3337<<ASSIGN   3382<<ASSIGN   3383<<ASSIGN   3387<<ASSIGN
      3388<<ASSIGN
S_D.PATCH
PL6.E3A0      #001=DDS$PROMPTC File=DXS$PROMPT.:E05TSI                           TUE 07/29/97 15:14 Page:41
      2231**DCL      3390>>IF       3398>>IF
S_D.REMOTE_MSG.FNCC
      2584**DCL      2585--REDEF
S_D.REMOTE_MSG.STXC
      2580**DCL      2581--REDEF
S_D.REMOTE_MSG.SUBFNCC
      2588**DCL      2589--REDEF
S_D.STEP
      1869**DCL      3331>>IF       3340<<ASSIGN
S_D.STORED
      1781**DCL      3306>>CALLBLT
S_D.SV
      1644**DCL      1665--REDEF
S_D.UPROMPT
      2371**DCL      3307>>CALLBLT  3315>>CALLBLT  3319>>ASSIGN
S_D.UPROMPT_SIZE
      2373**DCL      3308>>ASSIGN   3316>>ASSIGN   3320>>ASSIGN
S_D.XDP
      2567**DCL      3402--CALL
S_D.XDP.IMAGE
      2569**DCL      3402--CALL
S_D.XDP.IMAGE.INP
      2571**DCL      3401<<ASSIGN
S_D$
      2896**DCL      1592--IMP-PTR  3306>>CALLBLT  3307>>CALLBLT  3308>>ASSIGN   3313>>IF       3315>>CALLBLT
      3316>>ASSIGN   3319>>ASSIGN   3320>>ASSIGN   3324>>ASSIGN   3325>>ASSIGN   3330>>ASSIGN   3331>>IF
      3331>>IF       3332>>CALL     3333>>CALL     3336>>ASSIGN   3337>>ASSIGN   3340>>ASSIGN   3342>>ASSIGN
      3350>>CALLBLT  3352>>CALL     3356>>CALLBLT  3363>>ASSIGN   3365>>ASSIGN   3372>>ASSIGN   3373>>ASSIGN
      3382>>ASSIGN   3383>>ASSIGN   3384>>CALL     3387>>ASSIGN   3388>>ASSIGN   3390>>IF       3390>>IF
      3392>>ASSIGN   3393>>ASSIGN   3398>>IF       3398>>IF       3400>>ASSIGN   3401>>ASSIGN   3401>>ASSIGN
      3402>>CALL     3407>>ASSIGN
WRITEIT
      3324**LABEL    3309--GOTO     3409--GOTO
PL6.E3A0      #001=DDS$PROMPTC File=DXS$PROMPT.:E05TSI                           TUE 07/29/97 15:14 Page:42
              *** CROSS REFERENCE LISTING ***
    **     DENOTES     IDENTIFIER DEFINITION
    <<                 IDENTIFIER'S VALUE SET
    >>                 IDENTIFIER'S VALUE USED
    <>                 IDENTIFIER SET AND/OR USED
    --                 IDENTIFIER REFERENCED
PL6.E3A0      #001=DDS$PROMPTC File=DXS$PROMPT.:E05TSI                           TUE 07/29/97 15:14 Page:43
              MINI UREF LISTING

B_POINTER     101**DCL-ENT
DCTX_PATCH      46**DCL
DDS$PROMPT    3311**ENTRY
DDS$PROMPTC      10**PROC
