PL6.E3A0      #002=DDS$SUCCESS File=DXS$SCAN.:E05TSI                             TUE 07/29/97 15:15 Page:150
      939        1        /*T***********************************************************/
      940        2        /*T*                                                         */
      941        3        /*T* Copyright (c) Bull HN Information Systems Inc., 1997    */
      942        4        /*T*                                                         */
      943        5        /*T***********************************************************/
      944        6        /*D* NAME:  DDS$SUCCESS
      945        7             CALL:  This routine is called by X$PARSE.
      946        8             INTERFACE:  X$PARSE
      947        9             ENVIRONMENT:  XDELTA OR USER DELTA
      948       10             INPUT:  PARSE$PARAM FROM X$PARSE
      949       11             OUTPUT:  PARSE$PARAM.ACCEPT
      950       12                      DD_INSTR_CONT
      951       13             SCRATCH:  None
      952       14             DESCRIPTION:  This is the U$ routine for X$PARSE.  It is
      953       15                  entered for success processing when HOST instructions
      954       16                  are found.  It sets up the correct parse nodes for
      955       17                  further parsing of the HOST instruction.  This is since
      956       18                  EIS, DSC, and DFLT instructions all have different
      957       19                  formats.                                                 */
      958       20
      959       21        DDS$SUCCESS: PROC( PARSE$PARAM );
      960       22
      961       23        %INCLUDE XU_MACRO_C;                    /* X$PARSE MACROS */
      962     3129        %INCLUDE XU_SUBS_C;                     /* X$PARSE %SUBs */
      963     3221        %PARSE$PARAM(NAME=PARSE$PARAM,
      964     3222                     STCLASS=);
      965     3303        %INCLUDE XUH_MACRO_C;
      966     3387        %INCLUDE DD_SD_M;
      967     4723        %S_D;
      968     6041        %PARSE$SYM (NAME=OUT$SYM,STCLASS=BASED);
      969     6079        %INCLUDE DD_SUBS_C;                     /* decoded instr defs */
      970     6350        %INCLUDE DD_PSUBS_C;                    /* parse tree node defs */
      971     6825        %INCLUDE DD_KNODES_D;                   /* INSTR node stuff */
      972     7041        %NODE_DEFS(STCLASS=SYMREF);
      973     7430        %INCLUDE DD$BASED;
      974     8733
      975     8734    1   DCL INSTR_MNEM CHAR(6);
PL6.E3A0      #002=DDS$SUCCESS File=DXS$SCAN.:E05TSI                             TUE 07/29/97 15:15 Page:151
      976     8735    1   DCL DDB$MNEM_TO_INSTR ENTRY(2) ALTRET;
      977     8736        %OP$TAB (STCLASS=AUTO);
      978     8763    1   DCL INSTR_EIS SBIN SYMREF;
      979     8764    1   DCL INSTR_ADSC SBIN SYMREF;
      980     8765    1   DCL INSTR_BDSC SBIN SYMREF;
      981     8766    1   DCL INSTR_NDSC SBIN SYMREF;
      982     8767    1   DCL INSTR_SDSC SBIN SYMREF;
      983     8768    1   DCL INSTR_VDSC SBIN SYMREF;
      984     8769    1   DCL INSTR_DFLT SBIN SYMREF;
      985     8770    1   DCL INSTR_ZERO SBIN SYMREF;
      986     8771        %S_D_PTRS;
      987     8808
      988     8809    1        PARSE$PARAM.ACCEPT = '0'B;
      989     8810    1        PARSE$PARAM.REJECT = '0'B;
      990     8811    1        PARSE$PARAM.RETRY = '0'B;
      991     8812    1        IF PARSE$PARAM.OUT$ ~= ADDR(NIL) AND
      992     8813    1          PARSE$PARAM.OUT$ -> OUT$SYM.CODE = SYM_CODE
      993     8814    2        THEN DO;
      994     8815    2             INSTR_MNEM = PARSE$PARAM.OUT$ -> OUT$SYM.TEXT;
      995     8816    2             DD_INSTR_CONT.SUBNDS$(0) = ADDR(INSTR_DFLT);
      996     8817    2             CALL DDB$MNEM_TO_INSTR (INSTR_MNEM, OP$TAB)
      997     8818    3             WHENALTRETURN DO;             /* can't find it */
      998     8819    3                  PARSE$PARAM.REJECT = '1'B;
      999     8820    3                  PARSE$PARAM.CHARPOS = PARSE$PARAM.OUT$ -> OUT$SYM.CPOS;
     1000     8821    3                  RETURN;
     1001     8822    3                END;
     1002     8823    2             IF OP$TAB.TYPE = T_INPUT
     1003     8824    3             THEN DO;
     1004     8825    4                  DO CASE (OP$TAB.OPCODE);
     1005     8826    4                    CASE (T_ADSC); DD_INSTR_CONT.SUBNDS$(0) = ADDR(INSTR_ADSC);
     1006     8827    4                    CASE (T_BDSC); DD_INSTR_CONT.SUBNDS$(0) = ADDR(INSTR_BDSC);
     1007     8828    4                    CASE (T_NDSC); DD_INSTR_CONT.SUBNDS$(0) = ADDR(INSTR_NDSC);
     1008     8829    4                    CASE (T_SDSC); DD_INSTR_CONT.SUBNDS$(0) = ADDR(INSTR_SDSC);
     1009     8830    4                    CASE (T_VDSC); DD_INSTR_CONT.SUBNDS$(0) = ADDR(INSTR_VDSC);
     1010     8831    4                    CASE (T_ZERO); DD_INSTR_CONT.SUBNDS$(0) = ADDR(INSTR_ZERO);
     1011     8832    4                    CASE (T_PTR); DD_INSTR_CONT.SUBNDS$(0) = ADDR(INSTR_ZERO);
     1012     8833    4                    END;                   /* do case */
PL6.E3A0      #002=DDS$SUCCESS File=DXS$SCAN.:E05TSI                             TUE 07/29/97 15:15 Page:152
     1013     8834    3                END;                       /* then do */
     1014     8835    2             IF OP$TAB.TYPE = T_EIS
     1015     8836    3             THEN DO;
     1016     8837    3                  DD_INSTR_CONT.SUBNDS$(0) = ADDR(INSTR_EIS);
     1017     8838    3                END;
     1018     8839    2           END;                            /* if OUT$SYM.CODE = SYM_CODE */
     1019     8840    2        ELSE DO;                           /* assume its a RUM command */
     1020     8841    2             S_D.RUM_COMMAND = '1'B;
     1021     8842    2           END;
     1022     8843    1        PARSE$PARAM.ACCEPT = '1'B;
     1023     8844
     1024     8845    1        RETURN;
     1025     8846
     1026     8847    1   END DDS$SUCCESS;

PL6.E3A0      #002=DDS$SUCCESS File=DXS$SCAN.:E05TSI                             TUE 07/29/97 15:15 Page:153
--  Include file information  --

   DD$BASED.:E05TOU  is referenced.
   DD_KNODES_D.:E05TOU  is referenced.
   DD_PSUBS_C.:E05TOU  is referenced.
   DD_SUBS_C.:E05TOU  is referenced.
   DD_SD_M.:E05TOU  is referenced.
   XUH_MACRO_C.:E05TOU  is referenced.
   XU_SUBS_C.:E05TOU  is referenced.
   XU_MACRO_C.:E05TOU  is referenced.
   B$JIT_C.:E05TOU  was found in the system file and is never referenced.
   CP_6_C.:E05TOU  was found in the system file and is never referenced.
      No diagnostics issued in procedure DDS$SUCCESS.

   Procedure DDS$SUCCESS requires 101 words for executable code.
   Procedure DDS$SUCCESS requires 12 words of local(AUTO) storage.

    No errors detected in file DXS$SCAN.:E05TSI    .

PL6.E3A0      #002=DDS$SUCCESS File=DXS$SCAN.:E05TSI                             TUE 07/29/97 15:15 Page:154

 Object Unit name= DDS$SUCCESS                                File name= DXS$SCAN.:E05TOU
 UTS= JUL 29 '97 15:15:16.24 TUE                              Compiler= PL-6/E31         Sev=      00
 SharedLib= :SHARED_SYSTEM                                    Alt SharedLib=


    ****  Control sections  ****

 Sect   Type Bound  Init  Size OctSiz  Section name(segment info)
    0   Proc  even  none   101    145  DDS$SUCCESS
    1  RoData even  none    11     13  DDS$SUCCESS

    ****  Entry defs  ****

                              Check   Calling
                             calling  sequence
  Sect OctLoc Primary Altret sequence   type   Parms  Name
     0      0   yes            yes      Std        1  DDS$SUCCESS

  ****  Entry refs  ****

         Check        Calling
        calling       sequence
Altret sequence SRef   type   Args  Name
 yes     yes           Std       2 DDB$MNEM_TO_INSTR
                       nStd      0 X66_AUTO_1
                       Std       0 B_CONSPOOL_D
                       nStd      0 X66_ARET

  ****  Data refs  ****

  Flags:  r = read only, s = secondary
Flgs Name                             Flgs Name                             Flgs Name
r    S_D$                                  DD_INSTR_CONT                         INSTR_EIS
     INSTR_ADSC                            INSTR_BDSC                            INSTR_NDSC
     INSTR_SDSC                            INSTR_VDSC                            INSTR_DFLT
     INSTR_ZERO                            B_VECTNIL
PL6.E3A0      #002=DDS$SUCCESS File=DXS$SCAN.:E05TSI                             TUE 07/29/97 15:15 Page:155

  ****  Segment refs  ****

  Flags:  r = read only, s = secondary
Flgs Name                             Flgs Name                             Flgs Name
     ISSID
PL6.E3A0      #002=DDS$SUCCESS File=DXS$SCAN.:E05TSI                             TUE 07/29/97 15:15 Page:156


      939        1        /*T***********************************************************/
      940        2        /*T*                                                         */
      941        3        /*T* Copyright (c) Bull HN Information Systems Inc., 1997    */
      942        4        /*T*                                                         */
      943        5        /*T***********************************************************/
      944        6        /*D* NAME:  DDS$SUCCESS
      945        7             CALL:  This routine is called by X$PARSE.
      946        8             INTERFACE:  X$PARSE
      947        9             ENVIRONMENT:  XDELTA OR USER DELTA
      948       10             INPUT:  PARSE$PARAM FROM X$PARSE
      949       11             OUTPUT:  PARSE$PARAM.ACCEPT
      950       12                      DD_INSTR_CONT
      951       13             SCRATCH:  None
      952       14             DESCRIPTION:  This is the U$ routine for X$PARSE.  It is
      953       15                  entered for success processing when HOST instructions
      954       16                  are found.  It sets up the correct parse nodes for
      955       17                  further parsing of the HOST instruction.  This is since
      956       18                  EIS, DSC, and DFLT instructions all have different
      957       19                  formats.                                                 */
      958       20
      959       21        DDS$SUCCESS: PROC( PARSE$PARAM );

     21  0 000000   000000 700200 xent  DDS$SUCCESS  TSX0  ! X66_AUTO_1
         0 000001   000014 000001                    ZERO    12,1

      960       22
      961       23        %INCLUDE XU_MACRO_C;                    /* X$PARSE MACROS */
      962     3129        %INCLUDE XU_SUBS_C;                     /* X$PARSE %SUBs */
      963     3221        %PARSE$PARAM(NAME=PARSE$PARAM,
      964     3222                     STCLASS=);
      965     3303        %INCLUDE XUH_MACRO_C;
      966     3387        %INCLUDE DD_SD_M;
      967     4723        %S_D;
      968     6041        %PARSE$SYM (NAME=OUT$SYM,STCLASS=BASED);
      969     6079        %INCLUDE DD_SUBS_C;                     /* decoded instr defs */
      970     6350        %INCLUDE DD_PSUBS_C;                    /* parse tree node defs */
PL6.E3A0      #002=DDS$SUCCESS File=DXS$SCAN.:E05TSI                             TUE 07/29/97 15:15 Page:157
      971     6825        %INCLUDE DD_KNODES_D;                   /* INSTR node stuff */
      972     7041        %NODE_DEFS(STCLASS=SYMREF);
      973     7430        %INCLUDE DD$BASED;
      974     8733
      975     8734    1   DCL INSTR_MNEM CHAR(6);
      976     8735    1   DCL DDB$MNEM_TO_INSTR ENTRY(2) ALTRET;
      977     8736        %OP$TAB (STCLASS=AUTO);
      978     8763    1   DCL INSTR_EIS SBIN SYMREF;
      979     8764    1   DCL INSTR_ADSC SBIN SYMREF;
      980     8765    1   DCL INSTR_BDSC SBIN SYMREF;
      981     8766    1   DCL INSTR_NDSC SBIN SYMREF;
      982     8767    1   DCL INSTR_SDSC SBIN SYMREF;
      983     8768    1   DCL INSTR_VDSC SBIN SYMREF;
      984     8769    1   DCL INSTR_DFLT SBIN SYMREF;
      985     8770    1   DCL INSTR_ZERO SBIN SYMREF;
      986     8771        %S_D_PTRS;
      987     8808
      988     8809    1        PARSE$PARAM.ACCEPT = '0'B;

   8809  0 000002   200003 470500                    LDP0    @PARSE$PARAM,,AUTO
         0 000003   000000 236000 1                  LDQ     0
         0 000004   000000 356100                    ANSQ    0,,PR0

      989     8810    1        PARSE$PARAM.REJECT = '0'B;

   8810  0 000005   000001 236000 1                  LDQ     1
         0 000006   000000 356100                    ANSQ    0,,PR0

      990     8811    1        PARSE$PARAM.RETRY = '0'B;

   8811  0 000007   000002 236000 1                  LDQ     2
         0 000010   000000 356100                    ANSQ    0,,PR0

      991     8812    1        IF PARSE$PARAM.OUT$ ~= ADDR(NIL) AND

   8812  0 000011   000002 236100                    LDQ     2,,PR0
         0 000012   000001 116000 xsym               CMPQ    B_VECTNIL+1
PL6.E3A0      #002=DDS$SUCCESS File=DXS$SCAN.:E05TSI                             TUE 07/29/97 15:15 Page:158
         0 000013   000136 600000 0                  TZE     s:8841
         0 000014   000002 471500                    LDP1    2,,PR0
         0 000015   100000 720100                    LXL0    0,,PR1
         0 000016   000016 100003                    CMPX0   14,DU
         0 000017   000136 601000 0                  TNZ     s:8841

      992     8813    1          PARSE$PARAM.OUT$ -> OUT$SYM.CODE = SYM_CODE
      993     8814    2        THEN DO;

      994     8815    2             INSTR_MNEM = PARSE$PARAM.OUT$ -> OUT$SYM.TEXT;

   8815  0 000020   100004 236100                    LDQ     4,,PR1
         0 000021   000033 772000                    QRL     27
         0 000022   000000 621006                    EAX1    0,QL
         0 000023   040100 100540                    MLR     fill='040'O
         0 000024   100004 200011                    ADSC9   4,,PR1                   cn=1,n=*X1
         0 000025   200004 000006                    ADSC9   INSTR_MNEM,,AUTO         cn=0,n=6

      995     8816    2             DD_INSTR_CONT.SUBNDS$(0) = ADDR(INSTR_DFLT);

   8816  0 000026   000003 236000 1                  LDQ     3
         0 000027   000001 756000 xsym               STQ     DD_INSTR_CONT+1

      996     8817    2             CALL DDB$MNEM_TO_INSTR (INSTR_MNEM, OP$TAB)

   8817  0 000030   200006 631500                    EPPR1   OP$TAB,,AUTO
         0 000031   200013 451500                    STP1    OP$TAB+5,,AUTO
         0 000032   200004 633500                    EPPR3   INSTR_MNEM,,AUTO
         0 000033   200012 453500                    STP3    OP$TAB+4,,AUTO
         0 000034   200012 630500                    EPPR0   OP$TAB+4,,AUTO
         0 000035   000020 631400 xsym               EPPR1   B_VECTNIL+16
         0 000036   000000 701000 xent               TSX1    DDB$MNEM_TO_INSTR
         0 000037   000041 702000 0                  TSX2    s:8819
         0 000040   000050 710000 0                  TRA     s:8823

      997     8818    3             WHENALTRETURN DO;             /* can't find it */

PL6.E3A0      #002=DDS$SUCCESS File=DXS$SCAN.:E05TSI                             TUE 07/29/97 15:15 Page:159
      998     8819    3                  PARSE$PARAM.REJECT = '1'B;

   8819  0 000041   200003 470500                    LDP0    @PARSE$PARAM,,AUTO
         0 000042   000200 236003                    LDQ     128,DU
         0 000043   000000 256100                    ORSQ    0,,PR0

      999     8820    3                  PARSE$PARAM.CHARPOS = PARSE$PARAM.OUT$ -> OUT$SYM.CPOS;

   8820  0 000044   000002 471500                    LDP1    2,,PR0
         0 000045   100002 235100                    LDA     2,,PR1
         0 000046   000004 755100                    STA     4,,PR0

     1000     8821    3                  RETURN;

   8821  0 000047   000000 702200 xent               TSX2  ! X66_ARET

     1001     8822    3                END;
     1002     8823    2             IF OP$TAB.TYPE = T_INPUT

   8823  0 000050   200006 236100                    LDQ     OP$TAB,,AUTO
         0 000051   000370 376007                    ANQ     248,DL
         0 000052   000060 116007                    CMPQ    48,DL
         0 000053   000127 601000 0                  TNZ     s:8835

     1003     8824    3             THEN DO;

     1004     8825    4                  DO CASE (OP$TAB.OPCODE);

   8825  0 000054   200006 236100                    LDQ     OP$TAB,,AUTO
         0 000055   000010 772000                    QRL     8
         0 000056   001777 376007                    ANQ     1023,DL
         0 000057   000021 116007                    CMPQ    17,DL
         0 000060   000062 602006 0                  TNC     s:8825+6,QL
         0 000061   000127 710000 0                  TRA     s:8835
         0 000062   000127 710000 0                  TRA     s:8835
         0 000063   000127 710000 0                  TRA     s:8835
         0 000064   000103 710000 0                  TRA     s:8826
PL6.E3A0      #002=DDS$SUCCESS File=DXS$SCAN.:E05TSI                             TUE 07/29/97 15:15 Page:160
         0 000065   000127 710000 0                  TRA     s:8835
         0 000066   000106 710000 0                  TRA     s:8827
         0 000067   000127 710000 0                  TRA     s:8835
         0 000070   000111 710000 0                  TRA     s:8828
         0 000071   000127 710000 0                  TRA     s:8835
         0 000072   000114 710000 0                  TRA     s:8829
         0 000073   000127 710000 0                  TRA     s:8835
         0 000074   000117 710000 0                  TRA     s:8830
         0 000075   000127 710000 0                  TRA     s:8835
         0 000076   000127 710000 0                  TRA     s:8835
         0 000077   000127 710000 0                  TRA     s:8835
         0 000100   000122 710000 0                  TRA     s:8831
         0 000101   000127 710000 0                  TRA     s:8835
         0 000102   000125 710000 0                  TRA     s:8832

     1005     8826    4                    CASE (T_ADSC); DD_INSTR_CONT.SUBNDS$(0) = ADDR(INSTR_ADSC);

   8826  0 000103   000004 236000 1                  LDQ     4
         0 000104   000001 756000 xsym               STQ     DD_INSTR_CONT+1
         0 000105   000127 710000 0                  TRA     s:8835

     1006     8827    4                    CASE (T_BDSC); DD_INSTR_CONT.SUBNDS$(0) = ADDR(INSTR_BDSC);

   8827  0 000106   000005 236000 1                  LDQ     5
         0 000107   000001 756000 xsym               STQ     DD_INSTR_CONT+1
         0 000110   000127 710000 0                  TRA     s:8835

     1007     8828    4                    CASE (T_NDSC); DD_INSTR_CONT.SUBNDS$(0) = ADDR(INSTR_NDSC);

   8828  0 000111   000006 236000 1                  LDQ     6
         0 000112   000001 756000 xsym               STQ     DD_INSTR_CONT+1
         0 000113   000127 710000 0                  TRA     s:8835

     1008     8829    4                    CASE (T_SDSC); DD_INSTR_CONT.SUBNDS$(0) = ADDR(INSTR_SDSC);

   8829  0 000114   000007 236000 1                  LDQ     7
         0 000115   000001 756000 xsym               STQ     DD_INSTR_CONT+1
PL6.E3A0      #002=DDS$SUCCESS File=DXS$SCAN.:E05TSI                             TUE 07/29/97 15:15 Page:161
         0 000116   000127 710000 0                  TRA     s:8835

     1009     8830    4                    CASE (T_VDSC); DD_INSTR_CONT.SUBNDS$(0) = ADDR(INSTR_VDSC);

   8830  0 000117   000010 236000 1                  LDQ     8
         0 000120   000001 756000 xsym               STQ     DD_INSTR_CONT+1
         0 000121   000127 710000 0                  TRA     s:8835

     1010     8831    4                    CASE (T_ZERO); DD_INSTR_CONT.SUBNDS$(0) = ADDR(INSTR_ZERO);

   8831  0 000122   000011 236000 1                  LDQ     9
         0 000123   000001 756000 xsym               STQ     DD_INSTR_CONT+1
         0 000124   000127 710000 0                  TRA     s:8835

     1011     8832    4                    CASE (T_PTR); DD_INSTR_CONT.SUBNDS$(0) = ADDR(INSTR_ZERO);

   8832  0 000125   000011 236000 1                  LDQ     9
         0 000126   000001 756000 xsym               STQ     DD_INSTR_CONT+1

     1012     8833    4                    END;                   /* do case */

     1013     8834    3                END;                       /* then do */

     1014     8835    2             IF OP$TAB.TYPE = T_EIS

   8835  0 000127   200006 236100                    LDQ     OP$TAB,,AUTO
         0 000130   000370 376007                    ANQ     248,DL
         0 000131   000010 116007                    CMPQ    8,DL
         0 000132   000141 601000 0                  TNZ     s:8843

     1015     8836    3             THEN DO;

     1016     8837    3                  DD_INSTR_CONT.SUBNDS$(0) = ADDR(INSTR_EIS);

   8837  0 000133   000012 236000 1                  LDQ     10
         0 000134   000001 756000 xsym               STQ     DD_INSTR_CONT+1

PL6.E3A0      #002=DDS$SUCCESS File=DXS$SCAN.:E05TSI                             TUE 07/29/97 15:15 Page:162
     1017     8838    3                END;

     1018     8839    2           END;                            /* if OUT$SYM.CODE = SYM_CODE */

   8839  0 000135   000141 710000 0                  TRA     s:8843

     1019     8840    2        ELSE DO;                           /* assume its a RUM command */

     1020     8841    2             S_D.RUM_COMMAND = '1'B;

   8841  0 000136   400000 236003                    LDQ     -131072,DU
         0 000137   000000 471400 xsym               LDP1    S_D$
         0 000140   100072 756100                    STQ     58,,PR1

     1021     8842    2           END;

     1022     8843    1        PARSE$PARAM.ACCEPT = '1'B;

   8843  0 000141   200003 470500                    LDP0    @PARSE$PARAM,,AUTO
         0 000142   000400 236003                    LDQ     256,DU
         0 000143   000000 256100                    ORSQ    0,,PR0

     1023     8844
     1024     8845    1        RETURN;

   8845  0 000144   000000 702200 xent               TSX2  ! X66_ARET

(unnamed)
 Sect OctLoc
   1     000   777377 777777   777577 777777   777677 777777   000000 006000    ................
   1     004   000000 006000   000000 006000   000000 006000   000000 006000    ................
   1     010   000000 006000   000000 006000   000000 006000                    ............
     1025     8846
     1026     8847    1   END DDS$SUCCESS;

PL6.E3A0      #002=DDS$SUCCESS File=DXS$SCAN.:E05TSI                             TUE 07/29/97 15:15 Page:163
--  Include file information  --

   DD$BASED.:E05TOU  is referenced.
   DD_KNODES_D.:E05TOU  is referenced.
   DD_PSUBS_C.:E05TOU  is referenced.
   DD_SUBS_C.:E05TOU  is referenced.
   DD_SD_M.:E05TOU  is referenced.
   XUH_MACRO_C.:E05TOU  is referenced.
   XU_SUBS_C.:E05TOU  is referenced.
   XU_MACRO_C.:E05TOU  is referenced.
   B$JIT_C.:E05TOU  was found in the system file and is never referenced.
   CP_6_C.:E05TOU  was found in the system file and is never referenced.
      No diagnostics issued in procedure DDS$SUCCESS.

   Procedure DDS$SUCCESS requires 101 words for executable code.
   Procedure DDS$SUCCESS requires 12 words of local(AUTO) storage.

    No errors detected in file DXS$SCAN.:E05TSI    .
PL6.E3A0      #002=DDS$SUCCESS File=DXS$SCAN.:E05TSI                             TUE 07/29/97 15:15 Page:164
          *** CROSS REFERENCE LISTING ***
**     DENOTES     IDENTIFIER DEFINITION
<<                 IDENTIFIER'S VALUE SET
>>                 IDENTIFIER'S VALUE USED
<>                 IDENTIFIER SET AND/OR USED
--                 IDENTIFIER REFERENCED
PL6.E3A0      #002=DDS$SUCCESS File=DXS$SCAN.:E05TSI                             TUE 07/29/97 15:15 Page:165
          MINI XREF LISTING

DDB$MNEM_TO_INSTR
      8735**DCL-ENT  8817--CALL
DD_INSTR_CONT.SUBNDS$
      7135**DCL      8816<<ASSIGN   8826<<ASSIGN   8827<<ASSIGN   8828<<ASSIGN   8829<<ASSIGN   8830<<ASSIGN
      8831<<ASSIGN   8832<<ASSIGN   8837<<ASSIGN
INSTR_ADSC
      8764**DCL      8826--ASSIGN
INSTR_BDSC
      8765**DCL      8827--ASSIGN
INSTR_DFLT
      8769**DCL      8816--ASSIGN
INSTR_EIS
      8763**DCL      8837--ASSIGN
INSTR_MNEM
      8734**DCL      8815<<ASSIGN   8817<>CALL
INSTR_NDSC
      8766**DCL      8828--ASSIGN
INSTR_SDSC
      8767**DCL      8829--ASSIGN
INSTR_VDSC
      8768**DCL      8830--ASSIGN
INSTR_ZERO
      8770**DCL      8831--ASSIGN   8832--ASSIGN
OP$TAB
      8737**DCL      8817<>CALL
OP$TAB.EIS
      8739**DCL      8747--REDEF
OP$TAB.OPCODE
      8754**DCL      8825>>DOCASE
OP$TAB.TYPE
      8755**DCL      8823>>IF       8835>>IF
OUT$SYM.CODE
PL6.E3A0      #002=DDS$SUCCESS File=DXS$SCAN.:E05TSI                             TUE 07/29/97 15:15 Page:166
      6054**DCL      8812>>IF
OUT$SYM.COUNT
      6071**DCL      6074--IMP-SIZ  8815>>ASSIGN
OUT$SYM.CPOS
      6063**DCL      8820>>ASSIGN
OUT$SYM.TEXT
      6074**DCL      8815>>ASSIGN
PARSE$PARAM
      3241**DCL        21--PROC
PARSE$PARAM.ACCEPT
      3248**DCL      8809<<ASSIGN   8843<<ASSIGN
PARSE$PARAM.CHARPOS
      3279**DCL      8820<<ASSIGN
PARSE$PARAM.OUT$
      3271**DCL      8812>>IF       8812>>IF       8815>>ASSIGN   8815>>ASSIGN   8820>>ASSIGN
PARSE$PARAM.REJECT
      3253**DCL      8810<<ASSIGN   8819<<ASSIGN
PARSE$PARAM.RETRY
      3257**DCL      8811<<ASSIGN
S_D.CURRENT_CHANNEL
      5675**DCL      5677--REDEF
S_D.DEBUGA
      4827**DCL      4829--REDEF
S_D.EIS
      5785**DCL      5814--REDEF
S_D.HOST_MESSAGE_BUF_REMOTE
      5718**DCL      5719--REDEF    5733--REDEF
S_D.JDE
      5332**DCL      5333--REDEF
S_D.L$.VALUE
      4885**DCL      4891--REDEF    4899--REDEF    4902--REDEF    4905--REDEF    4908--REDEF
S_D.L$.VALUE.L
      4886**DCL      4887--REDEF    4888--REDEF
S_D.L6_MESSAGE_BUF
      5739**DCL      5741--REDEF
S_D.OUTPUT
PL6.E3A0      #002=DDS$SUCCESS File=DXS$SCAN.:E05TSI                             TUE 07/29/97 15:15 Page:167
      5705**DCL      5707--REDEF
S_D.REMOTE_MSG.FNCC
      5724**DCL      5725--REDEF
S_D.REMOTE_MSG.STXC
      5720**DCL      5721--REDEF
S_D.REMOTE_MSG.SUBFNCC
      5728**DCL      5729--REDEF
S_D.RUM_COMMAND
      4859**DCL      8841<<ASSIGN
S_D.SV
      4784**DCL      4805--REDEF
S_D$
      6036**DCL      4732--IMP-PTR  8841>>ASSIGN
PL6.E3A0      #002=DDS$SUCCESS File=DXS$SCAN.:E05TSI                             TUE 07/29/97 15:15 Page:168
              *** CROSS REFERENCE LISTING ***
    **     DENOTES     IDENTIFIER DEFINITION
    <<                 IDENTIFIER'S VALUE SET
    >>                 IDENTIFIER'S VALUE USED
    <>                 IDENTIFIER SET AND/OR USED
    --                 IDENTIFIER REFERENCED
PL6.E3A0      #002=DDS$SUCCESS File=DXS$SCAN.:E05TSI                             TUE 07/29/97 15:15 Page:169
              MINI UREF LISTING

DD$COMP_NODE_PTR$    7050**DCL
DDS$SUCCESS      21**PROC
DD_COMPNODE$    7048**DCL
DD_COMP_NODE_PTR$    7049**DCL
DD_HOST_NODE_PTR$    7045**DCL
DD_L6X_NODE_PTR$    7047**DCL
DD_L6_NODE_PTR$    7046**DCL
DD_MODE_NODE_PTR$    7044**DCL
DD_NODE    7163**DCL
S_D_ACCESS$    8781**DCL
S_D_ANLZ$    8783**DCL
S_D_ASTACKOFF$    8782**DCL
S_D_BREAK$    8784**DCL
S_D_DO_SCAN$    8785**DCL
S_D_ERROR$    8786**DCL
S_D_FAULTCMD$$    8787**DCL
S_D_FAULTINS$$    8788**DCL
S_D_GOIC$    8789**DCL
S_D_GO_MODE$    8790**DCL
S_D_HOST_MESSAGE$    8802**DCL
S_D_HW_PTB_UNITS$    8806**DCL
S_D_HW_RES_MEM$    8804**DCL
S_D_HW_WSQ0PT$    8805**DCL
S_D_IPRFLT$    8792**DCL
S_D_IXFIX$    8791**DCL
S_D_L6_MESSAGE$    8803**DCL
S_D_REM_ACCESS$    8793**DCL
S_D_REM_DISKBOOT$    8795**DCL
S_D_REM_DO_SCAN$    8794**DCL
S_D_RETURNN$    8796**DCL
S_D_SAD$    8797**DCL
S_D_SAVEIC$    8798**DCL
PL6.E3A0      #002=DDS$SUCCESS File=DXS$SCAN.:E05TSI                             TUE 07/29/97 15:15 Page:170
S_D_SEG$    8780**DCL
S_D_TCB$$    8799**DCL
S_D_UREG$$    8800**DCL
S_D_USS$$    8801**DCL
