VERSION E05

PL6.E3A0      #001=DX_DATA_D File=DX_DATA_D.:E05TSI                              TUE 07/29/97 15:15 Page:1
        1        1        /*M* DX_DATA_D Static data for Exec Delta */
        2        2        /*T***********************************************************/
        3        3        /*T*                                                         */
        4        4        /*T* Copyright (c) Bull HN Information Systems Inc., 1997    */
        5        5        /*T*                                                         */
        6        6        /*T***********************************************************/
        7        7        /*X* DMR,PLM=5,IND=5,CSU=3,EXM=0,ECU=3,MOC,DCI=5,CRT=5 */
        8        8        /*F* NAME: DX_DATA_D
        9        9             PURPOSE: To generate static data for Exec Delta.
       10       10             DESCRIPTION: This module contains static data areas for Exec Delta. */
       11       11                                                /**/
       12       12        DX_DATA_D: PROC;
       13       13                                                /**/
       14       14        %INCLUDE DD$BASED;
       15     1317                                                /**/
       16     1318        /* Daligned */
       17     1319    1   DCL AUTOSTART(0:2047) BIT(72) STATIC SYMDEF DALIGNED;
       18     1320    1   DCL PARSEBUF(0:511) BIT(72) STATIC SYMDEF DALIGNED;
       19     1321    1   DCL HISTBUF(0:49) BIT(72) STATIC SYMDEF DALIGNED;
       20     1322    1   DCL WSR(0:1) BIT(72) STATIC SYMDEF DALIGNED;
       21     1323    1   DCL TEMP0 BIT(72) STATIC SYMDEF DALIGNED;
       22     1324    1   DCL IMASKSAVE BIT(72) STATIC SYMDEF DALIGNED;
       23     1325    1   DCL LOC32SAVE BIT(72) STATIC SYMDEF DALIGNED;
       24     1326    1   DCL LOC40SAVE BIT(72) STATIC SYMDEF DALIGNED;
       25     1327    1   DCL XDFAULTDESC BIT(72) STATIC SYMDEF DALIGNED;
       26     1328        /* Constant */
       27     1329    1   DCL AUTOSIZEW UBIN CONSTANT SYMDEF INIT( SIZEW( AUTOSTART ) );
       28     1330    1   DCL D_PARSIZE UBIN CONSTANT SYMDEF INIT( SIZEW( PARSEBUF ) );
       29     1331        /* Initialized */
       30     1332    1   DCL PATCH(0:49) BIT(72) STATIC SYMDEF DALIGNED INIT( '0'B*0 );
       31     1333    1   DCL FIRSTIME UBIN STATIC SYMDEF INIT( 1 );
       32     1334    1   DCL RECOVER UBIN STATIC SYMDEF INIT(0); /* Recovery in progress flag */
       33     1335    1   DCL SAVEX0 UBIN STATIC SYMDEF INIT(0);  /* Temp for recovey flag */
       34     1336    1   DCL D_CPU_TYPE UBIN STATIC SYMDEF INIT(0);
       35     1337    1   DCL DX_DIC BIT(1) STATIC SYMDEF INIT( '1'B );
       36     1338        /* Vanilla flavored */
       37     1339        %U$SE (NAME=USEE,STCLASS=STATIC SYMDEF);
PL6.E3A0      #001=DX_DATA_D File=DX_DATA_D.:E05TSI                              TUE 07/29/97 15:15 Page:2
       38     1347        %U$SE (NAME=USE_ORIG,STCLASS=STATIC SYMDEF);
       39     1355        %U$SE(NAME=USE_REM,STCLASS=STATIC SYMDEF);
       40     1363    1   DCL MON_APT UBIN STATIC SYMDEF;
       41     1364    1   DCL H_XDELTA UBIN STATIC SYMDEF INIT(0);
       42     1365    1   DCL IRM_NOKP_SCR UBIN STATIC SYMDEF INIT(0);
       43     1366    1   DCL DEL_FAULT UBIN STATIC SYMDEF;
       44     1367    1   DCL DEL_FAULTLOC UBIN STATIC SYMDEF;
       45     1368    1   DCL DICFAULT UBIN STATIC SYMDEF;
       46     1369    1   DCL DICFAULTLOC UBIN STATIC SYMDEF;
       47     1370    1   DCL DIC UBIN STATIC SYMDEF;
       48     1371    1   DCL IN_DEV UBIN STATIC SYMDEF;
       49     1372    1   DCL OUT_DEV UBIN STATIC SYMDEF;
       50     1373    1   DCL OUT_DEV_SAVE UBIN STATIC SYMDEF;
       51     1374    1   DCL ECHO_DEV UBIN STATIC SYMDEF;
       52     1375    1   DCL MSL$ PTR STATIC SYMDEF;
       53     1376    1   DCL UJIT$ PTR STATIC SYMDEF;
       54     1377    1   DCL UHJIT$ PTR STATIC SYMDEF;
       55     1378    1   DCL D_EDEF_END$ PTR STATIC SYMDEF;
       56     1379    1   DCL D_SDEF_END$ PTR STATIC SYMDEF;
       57     1380    1   DCL D_AEDEF_END$ PTR STATIC SYMDEF;
       58     1381    1   DCL D_ASDEF_END$ PTR STATIC SYMDEF;
       59     1382    1   DCL D_ALTDOM UBIN STATIC SYMDEF;
       60     1383    1   DCL D_SCHEMA$ PTR STATIC SYMDEF;
       61     1384    1   DCL CNODE$ PTR STATIC SYMDEF;
       62     1385    1   DCL 1 D_XOU_NAME STATIC SYMDEF,
       63     1386    1         2 SIZE UBIN BYTE UNAL,
       64     1387    1         2 TEXT CHAR(31) UNAL;
       65     1388    1   DCL 1 D_AXOU_NAME STATIC SYMDEF,
       66     1389    1         2 SIZE UBIN BYTE UNAL,
       67     1390    1         2 TEXT CHAR(31) UNAL;
       68     1391    1   DCL D_SYMBOLS BIT(1) STATIC SYMDEF;
       69     1392    1   DCL D_B$USER UBIN STATIC SYMDEF;
       70     1393                                                /**/
       71     1394    1   END DX_DATA_D;

PL6.E3A0      #001=DX_DATA_D File=DX_DATA_D.:E05TSI                              TUE 07/29/97 15:15 Page:3
--  Include file information  --

   DD$BASED.:E05TOU  is referenced.
   B$JIT_C.:E05TOU  was found in the system file and is never referenced.
   CP_6_C.:E05TOU  was found in the system file and is never referenced.
      No diagnostics issued in procedure DX_DATA_D.

   No code generated for procedure DX_DATA_D .
   Procedure DX_DATA_D requires 4 words of local(AUTO) storage.

    No errors detected in file DX_DATA_D.:E05TSI    .

PL6.E3A0      #001=DX_DATA_D File=DX_DATA_D.:E05TSI                              TUE 07/29/97 15:15 Page:4

 Object Unit name= DX_DATA_D                                  File name= DX_DATA_D.:E05TOU
 UTS= JUL 29 '97 15:15:37.40 TUE                              Compiler= PL-6/E31         Sev=      00
 SharedLib= :SHARED_SYSTEM                                    Alt SharedLib=


    ****  Control sections  ****

 Sect   Type Bound  Init  Size OctSiz  Section name(segment info)
    0   Data  even  none  5394  12422  DX_DATA_D
    1  RoData even  UTS      2      2  DX_DATA_D
    2   Proc  even  none     0      0  DX_DATA_D

    ****  Entry defs  ****

                              Check   Calling
                             calling  sequence
  Sect OctLoc Primary Altret sequence   type   Parms  Name
     2      0   yes            yes     ~proc       0  DX_DATA_D
PL6.E3A0      #001=DX_DATA_D File=DX_DATA_D.:E05TSI                              TUE 07/29/97 15:15 Page:5

  ****  Data defs  ****

 Sect OctLoc  Name                           Sect OctLoc  Name
    0      0  AUTOSTART                          0  10000  PARSEBUF
    0  12000  HISTBUF                            0  12144  WSR
    0  12150  TEMP0                              0  12152  IMASKSAVE
    0  12154  LOC32SAVE                          0  12156  LOC40SAVE
    0  12160  XDFAULTDESC                        1      0  AUTOSIZEW
    1      1  D_PARSIZE                          0  12162  PATCH
    0  12326  FIRSTIME                           0  12327  RECOVER
    0  12330  SAVEX0                             0  12331  D_CPU_TYPE
    0  12332  DX_DIC                             0  12333  USEE
    0  12340  USE_ORIG                           0  12345  USE_REM
    0  12352  MON_APT                            0  12353  H_XDELTA
    0  12354  IRM_NOKP_SCR                       0  12355  DEL_FAULT
    0  12356  DEL_FAULTLOC                       0  12357  DICFAULT
    0  12360  DICFAULTLOC                        0  12361  DIC
    0  12362  IN_DEV                             0  12363  OUT_DEV
    0  12364  OUT_DEV_SAVE                       0  12365  ECHO_DEV
    0  12366  MSL$                               0  12367  UJIT$
    0  12370  UHJIT$                             0  12371  D_EDEF_END$
    0  12372  D_SDEF_END$                        0  12373  D_AEDEF_END$
    0  12374  D_ASDEF_END$                       0  12375  D_ALTDOM
    0  12376  D_SCHEMA$                          0  12377  CNODE$
    0  12400  D_XOU_NAME                         0  12410  D_AXOU_NAME
    0  12420  D_SYMBOLS                          0  12421  D_B$USER
PL6.E3A0      #001=DX_DATA_D File=DX_DATA_D.:E05TSI                              TUE 07/29/97 15:15 Page:6


AUTOSTART
 Sect OctLoc
   0     000   ****** ******   ****** ******   ****** ******   ****** ******    ................

PARSEBUF
 Sect OctLoc
   0   10000   ****** ******   ****** ******   ****** ******   ****** ******    ................

(unnamed)
 Sect OctLoc
   0   12000   ****** ******   ****** ******   ****** ******   ****** ******    ................
   0   12160*  ****** ******   ****** ******   000000 000000   000000 000000    ................
   0   12164   000000 000000   000000 000000   000000 000000   000000 000000    ................
   0   12324*  000000 000000   000000 000000   000000 000001   000000 000000    ................
   0   12330   000000 000000   000000 000000   4***** ******   ****** ******    ................
   0   12350*  ****** ******   ****** ******   ****** ******   000000 000000    ................
   0   12354   000000 000000   ****** ******   ****** ******   ****** ******    ................
   0   12420*  ****** ******   ****** ******                                    ........

(unnamed)
 Sect OctLoc
   1     000   000000 010000   000000 002000                                    ........
        1        1        /*M* DX_DATA_D Static data for Exec Delta */
        2        2        /*T***********************************************************/
        3        3        /*T*                                                         */
        4        4        /*T* Copyright (c) Bull HN Information Systems Inc., 1997    */
        5        5        /*T*                                                         */
        6        6        /*T***********************************************************/
        7        7        /*X* DMR,PLM=5,IND=5,CSU=3,EXM=0,ECU=3,MOC,DCI=5,CRT=5 */
        8        8        /*F* NAME: DX_DATA_D
        9        9             PURPOSE: To generate static data for Exec Delta.
       10       10             DESCRIPTION: This module contains static data areas for Exec Delta. */
       11       11                                                /**/
       12       12        DX_DATA_D: PROC;
       13       13                                                /**/
       14       14        %INCLUDE DD$BASED;
PL6.E3A0      #001=DX_DATA_D File=DX_DATA_D.:E05TSI                              TUE 07/29/97 15:15 Page:7
       15     1317                                                /**/
       16     1318        /* Daligned */
       17     1319    1   DCL AUTOSTART(0:2047) BIT(72) STATIC SYMDEF DALIGNED;
       18     1320    1   DCL PARSEBUF(0:511) BIT(72) STATIC SYMDEF DALIGNED;
       19     1321    1   DCL HISTBUF(0:49) BIT(72) STATIC SYMDEF DALIGNED;
       20     1322    1   DCL WSR(0:1) BIT(72) STATIC SYMDEF DALIGNED;
       21     1323    1   DCL TEMP0 BIT(72) STATIC SYMDEF DALIGNED;
       22     1324    1   DCL IMASKSAVE BIT(72) STATIC SYMDEF DALIGNED;
       23     1325    1   DCL LOC32SAVE BIT(72) STATIC SYMDEF DALIGNED;
       24     1326    1   DCL LOC40SAVE BIT(72) STATIC SYMDEF DALIGNED;
       25     1327    1   DCL XDFAULTDESC BIT(72) STATIC SYMDEF DALIGNED;
       26     1328        /* Constant */
       27     1329    1   DCL AUTOSIZEW UBIN CONSTANT SYMDEF INIT( SIZEW( AUTOSTART ) );
       28     1330    1   DCL D_PARSIZE UBIN CONSTANT SYMDEF INIT( SIZEW( PARSEBUF ) );
       29     1331        /* Initialized */
       30     1332    1   DCL PATCH(0:49) BIT(72) STATIC SYMDEF DALIGNED INIT( '0'B*0 );
       31     1333    1   DCL FIRSTIME UBIN STATIC SYMDEF INIT( 1 );
       32     1334    1   DCL RECOVER UBIN STATIC SYMDEF INIT(0); /* Recovery in progress flag */
       33     1335    1   DCL SAVEX0 UBIN STATIC SYMDEF INIT(0);  /* Temp for recovey flag */
       34     1336    1   DCL D_CPU_TYPE UBIN STATIC SYMDEF INIT(0);
       35     1337    1   DCL DX_DIC BIT(1) STATIC SYMDEF INIT( '1'B );
       36     1338        /* Vanilla flavored */
       37     1339        %U$SE (NAME=USEE,STCLASS=STATIC SYMDEF);
       38     1347        %U$SE (NAME=USE_ORIG,STCLASS=STATIC SYMDEF);
       39     1355        %U$SE(NAME=USE_REM,STCLASS=STATIC SYMDEF);
       40     1363    1   DCL MON_APT UBIN STATIC SYMDEF;
       41     1364    1   DCL H_XDELTA UBIN STATIC SYMDEF INIT(0);
       42     1365    1   DCL IRM_NOKP_SCR UBIN STATIC SYMDEF INIT(0);
       43     1366    1   DCL DEL_FAULT UBIN STATIC SYMDEF;
       44     1367    1   DCL DEL_FAULTLOC UBIN STATIC SYMDEF;
       45     1368    1   DCL DICFAULT UBIN STATIC SYMDEF;
       46     1369    1   DCL DICFAULTLOC UBIN STATIC SYMDEF;
       47     1370    1   DCL DIC UBIN STATIC SYMDEF;
       48     1371    1   DCL IN_DEV UBIN STATIC SYMDEF;
       49     1372    1   DCL OUT_DEV UBIN STATIC SYMDEF;
       50     1373    1   DCL OUT_DEV_SAVE UBIN STATIC SYMDEF;
       51     1374    1   DCL ECHO_DEV UBIN STATIC SYMDEF;
PL6.E3A0      #001=DX_DATA_D File=DX_DATA_D.:E05TSI                              TUE 07/29/97 15:15 Page:8
       52     1375    1   DCL MSL$ PTR STATIC SYMDEF;
       53     1376    1   DCL UJIT$ PTR STATIC SYMDEF;
       54     1377    1   DCL UHJIT$ PTR STATIC SYMDEF;
       55     1378    1   DCL D_EDEF_END$ PTR STATIC SYMDEF;
       56     1379    1   DCL D_SDEF_END$ PTR STATIC SYMDEF;
       57     1380    1   DCL D_AEDEF_END$ PTR STATIC SYMDEF;
       58     1381    1   DCL D_ASDEF_END$ PTR STATIC SYMDEF;
       59     1382    1   DCL D_ALTDOM UBIN STATIC SYMDEF;
       60     1383    1   DCL D_SCHEMA$ PTR STATIC SYMDEF;
       61     1384    1   DCL CNODE$ PTR STATIC SYMDEF;
       62     1385    1   DCL 1 D_XOU_NAME STATIC SYMDEF,
       63     1386    1         2 SIZE UBIN BYTE UNAL,
       64     1387    1         2 TEXT CHAR(31) UNAL;
       65     1388    1   DCL 1 D_AXOU_NAME STATIC SYMDEF,
       66     1389    1         2 SIZE UBIN BYTE UNAL,
       67     1390    1         2 TEXT CHAR(31) UNAL;
       68     1391    1   DCL D_SYMBOLS BIT(1) STATIC SYMDEF;
       69     1392    1   DCL D_B$USER UBIN STATIC SYMDEF;
       70     1393                                                /**/
       71     1394    1   END DX_DATA_D;

PL6.E3A0      #001=DX_DATA_D File=DX_DATA_D.:E05TSI                              TUE 07/29/97 15:15 Page:9
--  Include file information  --

   DD$BASED.:E05TOU  is referenced.
   B$JIT_C.:E05TOU  was found in the system file and is never referenced.
   CP_6_C.:E05TOU  was found in the system file and is never referenced.
      No diagnostics issued in procedure DX_DATA_D.

   No code generated for procedure DX_DATA_D .
   Procedure DX_DATA_D requires 4 words of local(AUTO) storage.

    No errors detected in file DX_DATA_D.:E05TSI    .
PL6.E3A0      #001=DX_DATA_D File=DX_DATA_D.:E05TSI                              TUE 07/29/97 15:15 Page:10
          *** CROSS REFERENCE LISTING ***
**     DENOTES     IDENTIFIER DEFINITION
<<                 IDENTIFIER'S VALUE SET
>>                 IDENTIFIER'S VALUE USED
<>                 IDENTIFIER SET AND/OR USED
--                 IDENTIFIER REFERENCED
PL6.E3A0      #001=DX_DATA_D File=DX_DATA_D.:E05TSI                              TUE 07/29/97 15:15 Page:11
          MINI XREF LISTING

AUTOSTART
      1319**DCL      1329--DCLINIT
PARSEBUF
      1320**DCL      1330--DCLINIT
PL6.E3A0      #001=DX_DATA_D File=DX_DATA_D.:E05TSI                              TUE 07/29/97 15:15 Page:12
              *** CROSS REFERENCE LISTING ***
    **     DENOTES     IDENTIFIER DEFINITION
    <<                 IDENTIFIER'S VALUE SET
    >>                 IDENTIFIER'S VALUE USED
    <>                 IDENTIFIER SET AND/OR USED
    --                 IDENTIFIER REFERENCED
PL6.E3A0      #001=DX_DATA_D File=DX_DATA_D.:E05TSI                              TUE 07/29/97 15:15 Page:13
              MINI UREF LISTING

AUTOSIZEW    1329**DCL
CNODE$    1384**DCL
DEL_FAULT    1366**DCL
DEL_FAULTLOC    1367**DCL
DIC    1370**DCL
DICFAULT    1368**DCL
DICFAULTLOC    1369**DCL
DX_DATA_D      12**PROC
DX_DIC    1337**DCL
D_AEDEF_END$    1380**DCL
D_ALTDOM    1382**DCL
D_ASDEF_END$    1381**DCL
D_AXOU_NAME    1388**DCL
D_B$USER    1392**DCL
D_CPU_TYPE    1336**DCL
D_EDEF_END$    1378**DCL
D_PARSIZE    1330**DCL
D_SCHEMA$    1383**DCL
D_SDEF_END$    1379**DCL
D_SYMBOLS    1391**DCL
D_XOU_NAME    1385**DCL
ECHO_DEV    1374**DCL
FIRSTIME    1333**DCL
HISTBUF    1321**DCL
H_XDELTA    1364**DCL
IMASKSAVE    1324**DCL
IN_DEV    1371**DCL
IRM_NOKP_SCR    1365**DCL
LOC32SAVE    1325**DCL
LOC40SAVE    1326**DCL
MON_APT    1363**DCL
MSL$    1375**DCL
PL6.E3A0      #001=DX_DATA_D File=DX_DATA_D.:E05TSI                              TUE 07/29/97 15:15 Page:14
OUT_DEV    1372**DCL
OUT_DEV_SAVE    1373**DCL
PATCH    1332**DCL
RECOVER    1334**DCL
SAVEX0    1335**DCL
TEMP0    1323**DCL
UHJIT$    1377**DCL
UJIT$    1376**DCL
USEE    1340**DCL
USE_ORIG    1348**DCL
USE_REM    1356**DCL
WSR    1322**DCL
XDFAULTDESC    1327**DCL
