VERSION E05

 15:15 07/29/97  FILE=DX_LSPTR_D.:E05TSI                                                                 1    BMAP - B00
                                         1  *M* DX_LSPTR_D Constant pointer definitions for XDELTA's Linkage Segment
                                         2  *M*
                                         3  *T***********************************************************
                                         4  *T*                                                         *
                                         5  *T* Copyright (c) Bull HN Information Systems Inc., 1997    *
                                         6  *T*                                                         *
                                         7  *T***********************************************************
                                         8  *P*  NAME:  DX_LSPTR_D
                                         9  *P*  PURPOSE:  TO DEFINE POINTERS TO XDELTA'S LINKAGE SEGMENT.
                                        10           ENTDEF   DX_LSPTR_D
                                        11           SYMDEF   DIS$
                                        12           SYMDEF   DLS$
                                        13           SYMDEF   DSS1$
                                        14           SYMDEF   DAUTO$
                                        15           SYMDEF   DNAME$
                                        16           SYMDEF   SCHEMA$
                                        17           SYMDEF   AEDEF$
                                        18           SYMDEF   ASDEF$
                                        19           SYMDEF   ADNAME$
                                        20           SYMDEF   ASCHEMA$
                                        21           SYMDEF   MLS2$
                                        22           SYMDEF   MLS$
                                        23           SYMDEF   MIS$
                                        24           SYMDEF   USS1$
                                        25           SYMDEF   NIL$
                                        26           SYMDEF   MINIQ$
                                        27           SYMDEF   REALZ$
                                        28           SYMDEF   REALXB_OFF
                                        29           SYMDEF   REALZB_OFF
                                        30           SYMDEF   REALX$
                                        31           SYMDEF   MAP256$
                                        32           SYMDEF   MAPX$
                                        33           SYMDEF   MAPXB_OFF
                                        34           SYMDEF   FLTENT$
                                        35           SYMDEF   DSS$
                                        36           SYMDEF   XUSS$
                                        37           SYMDEF   SCX1$
 15:15 07/29/97  FILE=DX_LSPTR_D.:E05TSI                                                                 2    BMAP - B00
                                        38           SYMDEF   SCX1_OFF
                                        39           SYMDEF   SJIT$
                                        40           SYMDEF   SHJIT$
                                        41           SYMDEF   LS$
                                        42           SYMDEF   SSAS$
                                        43           SYMDEF   SSPS$
                                        44           SYMDEF   SIS$
                                        45           SYMDEF   USDS$
                                        46           SYMDEF   MJIT$
                                        47           SYMDEF   MHJIT$
                                        48           SYMDEF   SSISR$
                                        49  *
                                        50           SYMDEF   UPS$
                                        51           SYMDEF   UIS$
                                        52           SYMDEF   UAS$
                                        53           SYMDEF   ULS$
                                        54           SYMDEF   UDR2$
                                        55           SYMDEF   SEGTBL$
                                        56           SYMDEF   DEFDIR$
                                        57           SYMDEF    IPHY$
 0 000000                               58           USE       DX_LSPTR_D,1
          (0)000000000000               59  DX_LSPTR_D EQU    *
                                        60  *
                                        61  * POINTERS TO XDELTA'S LINKAGE SEGMENT
                                        62  *
   000000    000000 0 00 6000           63  DIS$     PTR      =O6000,0          (0) DELTA IS
   000001    000000 0 00 6001           64  DLS$     PTR      =O6001,0          (1) DELTA LS
   000002    000000 0 00 6002           65  DSS1$    PTR      =O6002,0          (2) XDELTA SAFE STORE TYPE 1.
   000003    000000 0 00 6003           66  DAUTO$   PTR      =O6003,0          (3) DELTA AUTO
                                        67  *        PTR      =O6004,0          (4) MON ENTDEFS
                                        68  *        PTR      =O6005,0          (5) MON SYMDEFS
   000004    000000 0 00 6006           69  DNAME$   PTR      =O6006,0          (6) MON DEF NAMES
   000005    000000 0 00 6007           70  SCHEMA$  PTR      =O6007,0          (7) MONITOR SCHEMA
   000006    000000 0 00 6010           71  MLS2$     PTR     =O6010,0          (8) MON LS TYPE2 DESC.
   000007    000000 0 00 6011           72  MLS$      PTR     =O6011,0          (9) MON LS TYPE3 DESC.
   000010    000000 0 00 6012           73  MIS$     PTR      =O6012,0          (10)MON IS
   000011    000000 0 00 6013           74  USS1$    PTR      =O6013,0          (11) MON SAFE STORE TYPE 1
 15:15 07/29/97  FILE=DX_LSPTR_D.:E05TSI                                                                 3    BMAP - B00
   000012    000000 0 00 6014           75  NIL$     PTR      =O6014,0          (12) NIL POINTER
   000013    000000 0 00 6015           76  MINIQ$   PTR      =O6015,0          (13) MINIQ IS
   000014    000000 0 00 6016           77  REALZ$   PTR      =O6016,0          (14) REALZ POINTER (SCRATCH)
             000000000037               78  REALXB_OFF  BOOL  37
             000000000035               79  REALZB_OFF  BOOL  35
   000015    000000 0 00 6017           80  REALX$   PTR      =O6017,0          (15) REAL SCRATCH POINTER
   000016    000000 0 00 6020           81  MAP256$  PTR      =O6020,0          (16) MAPPED POINTER (0-256K)
             000000000043               82  MAPXB_OFF   BOOL  43
   000017    000000 0 00 6021           83  MAPX$    PTR      =O6021,0          (17) MAPPED POINTER (256-512K)
   000020    000000 0 00 6022           84  FLTENT$  PTR      =O6022,0          (18) FAULTENTRY
   000021    000000 0 00 6023           85  DSS$     PTR      =O6023,0          (19) XDELTA SAFE STORE TYPE 0.
   000022    000000 0 00 6024           86  XUSS$    PTR      =O6024,0          (20) MON SAFE STORE TYPE 0.
   000023    000000 0 00 6025           87  SCX1$    PTR      =O6025,0          (21) SCRATCH DESCRIPTOR 1
             000000000052               88  SCX1_OFF BOOL     52
   000024    000000 0 00 6026           89  SCX2$    PTR      =O6026,0          (22) SCRATCH DESCRIPTOR 2
   000025    000000 0 00 6027           90  SCX3$    PTR      =O6027,0          (23) SCRATCH DESCRIPTOR 3
   000026    000000 0 00 6030           91  UDR2$    PTR      =O6030,0          (24) CURRENT SS DR2
   000027    000000 0 00 6031           92  SJIT$    PTR      =O6031,0          (25) USER JIT
   000030    000000 0 00 6032           93  SHJIT$   PTR      =O6032,0          (26) USER HJIT
          (0)000000000031               94  LS$      EQU      *                 ARRAY OF POINTERS TO LINKAGE SEGS.
   000031    000000 0 00 6033           95           PTR      =O6033,0          (27) USER LS
   000032    000000 0 00 6034           96           PTR      =O6034,0          (28) IDB LS
   000033    000000 0 00 6035           97           PTR      =O6035,0          (29) ASL LS
   000034    000000 0 00 6036           98           PTR      =O6036,0          (30) ICP LS
   000035    000000 0 00 6037           99  SSAS$    PTR      =O6037,0          (31) POINTER TO DESCRIPTOR OF
                                       100  *                                        ARGUMENT STACK.
   000036    000000 0 00 6040          101  SSPS$    PTR      =O6040,0          (32) POINTER TO DESCRIPTOR OF
                                       102  *                                        PARAMETER STACK.
   000037    000000 0 00 6041          103  SIS$     PTR      =O6041,0          (33) POINTER TO SALIENT ISR...
                                       104  *                                   THE SALIENT ISR IS STORED IN
                                       105  *                                   DESCRIPTOR 33 OF XDELTA'S LINKAGE
                                       106  *                                   SEGMENT.
                                       107  *
   000040    000000 0 00 6042          108  USDS$    PTR      =O6042,0          (34) SPECIAL DESCRIPTOR STORAGE
   000041    000000 0 00 6043          109  MJIT$    PTR      =O6043,0          (35) MON JIT
   000042    000000 0 00 6044          110  MHJIT$   PTR      =O6044,0          (36) MON HJIT
   000043    000000 0 00 6045          111  SSISR$   PTR      =O6045,0          (37) SAFE STORE ISR
 15:15 07/29/97  FILE=DX_LSPTR_D.:E05TSI                                                                 4    BMAP - B00
                                       112  *                                   (38-49) SCHEMA DATA
   000044    000000 0 00 6062          113  AEDEF$   PTR      =O6062,0          (50) ALT ENTDEFS
   000045    000000 0 00 6063          114  ASDEF$   PTR      =O6063,0          (51) ALT SYMDEFS
   000046    000000 0 00 6064          115  ADNAME$  PTR      =O6064,0          (52) ALT SYMDEFS
   000047    000000 0 00 6065          116  ASCHEMA$ PTR      =O6065,0          (53) ALT SCHEMA HDRS
                                       117  *                                   (54-65) ALT SCHEMA DATA
   000050    000000 0 00 6102          118  SEGTBL$  PTR      =O6102,0          (66) MON OVERLAY SEG TBL
   000051    000000 0 00 6103          119  DEFDIR$  PTR      =O6103,0          (67) MON NODE INFO TBL
   000052    000000 0 00 6104          120  IPHY$    PTR       =O6104,0
                                       121  *
   000053                              122           USE       DX_LSPTR_D,0
                                       123  * Static data - can't force ordering of level 1 items with PL-6 (yet)
                                       124  *  THE FOLLOWING FOUR PTRS (UPS$ - ULS$) MUST BE IN ORDER
   000053                              125  UPS$     BSS      1
   000054                              126  UIS$     BSS      1
   000055                              127  UAS$     BSS      1
   000056                              128  ULS$     BSS      1
                                       129           END

  CONTROL SECTION TABLE

   0 DATA   EVEN  000057 DX_LSPTR_D
   1 RODATA EVEN  000000 LITERALS

 15:15 07/29/97  FILE=DX_LSPTR_D.:E05TSI      SYMBOL TABLE                                               5    BMAP - B00
 06101000 000000000046 ADNAME$         19      *115
 06101000 000000000044 AEDEF$          17      *113
 06101000 000000000047 ASCHEMA$        20      *116
 06101000 000000000045 ASDEF$          18      *114
 06101000 000000000003 DAUTO$          14       *66
 06101000 000000000051 DEFDIR$         56      *119
 06101000 000000000000 DIS$            11       *63
 06101000 000000000001 DLS$            12       *64
 06101000 000000000004 DNAME$          15       *69
 06101000 000000000021 DSS$            35       *85
 06101000 000000000002 DSS1$           13       *65
 52101000 000000000000 DX_LSPTR_D      10       *59
 06101000 000000000020 FLTENT$         34       *84
 06101000 000000000052 IPHY$           57      *120
 46101000 000000000031 LS$             41       *94
 06101000 000000000016 MAP256$         31       *81
 06101000 000000000017 MAPX$           32       *83
 46000000 000000000043 MAPXB_OFF       33       *82
 06101000 000000000042 MHJIT$          47      *110
 06101000 000000000013 MINIQ$          26       *76
 06101000 000000000010 MIS$            23       *73
 06101000 000000000041 MJIT$           46      *109
 06101000 000000000007 MLS$            22       *72
 06101000 000000000006 MLS2$           21       *71
 06101000 000000000012 NIL$            25       *75
 06101000 000000000015 REALX$          30       *80
 46000000 000000000037 REALXB_OFF      28       *78
 06101000 000000000014 REALZ$          27       *77
 46000000 000000000035 REALZB_OFF      29       *79
 06101000 000000000005 SCHEMA$         16       *70
 06101000 000000000023 SCX1$           37       *87
 46000000 000000000052 SCX1_OFF        38       *88
 00101000 000000000024 SCX2$          *89
 00101000 000000000025 SCX3$          *90
 06101000 000000000050 SEGTBL$         55      *118
 06101000 000000000030 SHJIT$          40       *93
 06101000 000000000037 SIS$            44      *103
 15:15 07/29/97  FILE=DX_LSPTR_D.:E05TSI      SYMBOL TABLE                                               6    BMAP - B00
 06101000 000000000027 SJIT$           39       *92
 06101000 000000000035 SSAS$           42       *99
 06101000 000000000043 SSISR$          48      *111
 06101000 000000000036 SSPS$           43      *101
 06101000 000000000055 UAS$            52      *127
 06101000 000000000026 UDR2$           54       *91
 06101000 000000000054 UIS$            51      *126
 06101000 000000000056 ULS$            53      *128
 06101000 000000000053 UPS$            50      *125
 06101000 000000000040 USDS$           45      *108
 06101000 000000000011 USS1$           24       *74
 06101000 000000000022 XUSS$           36       *86

      49 SYMBOLS

       0 MACROS

    SYMBOL SPACE USED   550 WORDS
     MACRO SPACE USED     0 WORDS
   INPUT RECORDS READ   258
 STATEMENTS PROCESSED   116
         ELAPSED TIME  0:01.52
             CPU TIME     1.12 SEC.
        ASSEMBLY RATE  6214 STATEMENTS/CPU MIN.

      NO ERRORS

