VERSION E05

PL6.E3A0      #001=DX_PTR_D File=DX_PTR_D.:E05TSI                                TUE 07/29/97 15:16 Page:1
        1        1        /*M* DX_PTR_D Constant pointers & data for Exec Delta */
        2        2        /*T***********************************************************/
        3        3        /*T*                                                         */
        4        4        /*T* Copyright (c) Bull HN Information Systems Inc., 1997    */
        5        5        /*T*                                                         */
        6        6        /*T***********************************************************/
        7        7        /*X* DMR,PLM=5,IND=5,CSU=3,EXM=0,ECU=3,MOC,DCI=5,CRT=5 */
        8        8        %SET LISTSUB='1'B;
        9        9        /*F* NAME: DX_PTR_D
       10       10             PURPOSE: To generate constant pointers & data for Exec Delta.
       11       11             DESCRIPTION: This modules contains constant pointers & constant data
       12       12                          definitions for Exec Delta. */
       13       13        /*D* NAME: DX_PTR_D
       14       14             ENVIRONMENT: Exec Delta.
       15       15             DESCRIPTION: This modules contains constant pointers & constant data
       16       16                          definitions for Exec Delta. */
       17       17                                                /**/
       18       18        DX_PTR_D: PROC;
       19       19                                                /**/
       20       20        %SUB @NODCTX= 32767 /* @NODCTX */;
       21       21        %SUB @OCDCTX= 1 /* @OCDCTX */;
       22       22        %SUB @LPDCTX= 2 /* @LPDCTX */;
       23       23        %SUB @CRDCTX= 4 /* @CRDCTX */;
       24       24        %SUB @MTDCTX= 8 /* @MTDCTX */;
       25       25        %SUB @DPDCTX= 16 /* @DPDCTX */;
       26       26        %SUB @PATCHDCTX= 0 /* @PATCHDCTX */;
       27       27        %INCLUDE DD_SUBS_C;
       28      298        %INCLUDE B_SEGIDS_C;
       29      837    1   DCL PARSEBUF UBIN SYMREF;
       30      838    1   DCL IOBUF UBIN SYMREF;
       31      839    1   DCL USEE UBIN SYMREF;
       32      840    1   DCL USE_ORIG UBIN SYMREF;
       33      841        /* Exec Delta/User Delta flag */
       34      842    1   DCL D_XDELTA BIT(1) CONSTANT SYMDEF INIT('1'B);
       35      843        /* Debug flags */
       36      844    1   DCL DD_DEBUG UBIN CONSTANT SYMDEF INIT( 0 );
       37      845        /* Pointers */
PL6.E3A0      #001=DX_PTR_D File=DX_PTR_D.:E05TSI                                TUE 07/29/97 15:16 Page:2
       38      846    1   DCL PARSE$ PTR CONSTANT SYMDEF INIT( ADDR( PARSEBUF ) );
       39      847    1   DCL IOBUF$ PTR CONSTANT SYMDEF INIT( ADDR( IOBUF ) );
       40      848    1   DCL USE$ PTR CONSTANT SYMDEF INIT( ADDR( USEE ) );
       41      849    1   DCL USE_ORIG$ PTR CONSTANT SYMDEF INIT( ADDR( USE_ORIG ) );
       42      850    1   DCL B$TCB$ PTR CONSTANT SYMDEF INIT( ADDR(NIL) );
       43      851    1   DCL B$ROS$ PTR CONSTANT SYMDEF INIT( ADDR(NIL) );
       44      852    1   DCL UECCB$ PTR CONSTANT SYMDEF INIT( ADDR(NIL) );
       45      853    1   DCL UTCB$ PTR CONSTANT SYMDEF INIT( ADDR(NIL) );
       46      854    1   DCL MALS$ PTR CONSTANT SYMDEF INIT( ADDR(NIL) );
       47      855    1   DCL DD_ANLZSEG$ PTR CONSTANT SYMDEF INIT( ADDR(NIL) );
       48      856    1   DCL SAD$ PTR CONSTANT SYMDEF INIT( ADDR(NIL ) );
       49      857    1   DCL DD_RUMNODE$ PTR CONSTANT SYMDEF INIT( ADDR(NIL) );
       50      858    1   DCL DD_WHEN$ PTR CONSTANT SYMDEF INIT( ADDR(NIL) );
       51      859    1   DCL DD_FPRGSEG$ PTR CONSTANT SYMDEF INIT( ADDR(NIL) );
       52      860    1   DCL DD_VARCOM$ PTR CONSTANT SYMDEF INIT( ADDR(NIL) );
       53      861    1   DCL B$PS1$ PTR CONSTANT SYMDEF INIT( ADDR(NIL) );
       54      862    1   DCL B$PS3$ PTR CONSTANT SYMDEF INIT( ADDR(NIL) );
       55      863        /* Constant data */
       56      864    1   DCL DCTX_NO SBIN CONSTANT SYMDEF INIT(32767 /* @NODCTX */);
       57      865    1   DCL DCTX_ME SBIN CONSTANT SYMDEF INIT(1 /* @OCDCTX */);
       58      866    1   DCL DCTX_LP SBIN CONSTANT SYMDEF INIT(2 /* @LPDCTX */);
       59      867    1   DCL DCTX_CR SBIN CONSTANT SYMDEF INIT(4 /* @CRDCTX */);
       60      868    1   DCL DCTX_MT UBIN CONSTANT SYMDEF INIT(8 /* @MTDCTX */);
       61      869    1   DCL DCTX_DP UBIN CONSTANT SYMDEF INIT(16 /* @DPDCTX */);
       62      870    1   DCL DCTX_PATCH UBIN CONSTANT SYMDEF INIT(0 /* @PATCHDCTX */);
       63      871    1   DCL R_SFAULT_V UBIN CONSTANT INIT(8/*R_SFAULT*/);
       64      872    1   DCL R_SFAULTT PTR CONSTANT SYMDEF INIT( ADDR(R_SFAULT_V) );
       65      873    1   DCL S_PNO UBIN CONSTANT SYMDEF INIT( 0 );
       66      874    1   DCL FPT_EOM UBIN CONSTANT SYMDEF INIT( 0 );
       67      875    1   DCL FPT_PROMPT UBIN CONSTANT SYMDEF INIT( 0 );
       68      876    1   DCL FPT_CLOSE UBIN CONSTANT SYMDEF INIT( 0 );
       69      877    1   DCL FPT_GETDCB UBIN CONSTANT SYMDEF INIT( 0 );
       70      878    1   DCL FPT_RELDCB UBIN CONSTANT SYMDEF INIT( 0 );
       71      879    1   DCL DD_PROMPT UBIN CONSTANT SYMDEF INIT( 0 );
       72      880    1   DCL D_M$DO# UBIN CONSTANT SYMDEF INIT( 0 );
       73      881    1   DCL D_M$LM# UBIN CONSTANT SYMDEF INIT( 0 );
       74      882                                                /**/
PL6.E3A0      #001=DX_PTR_D File=DX_PTR_D.:E05TSI                                TUE 07/29/97 15:16 Page:3
       75      883    1   END DX_PTR_D;

PL6.E3A0      #001=DX_PTR_D File=DX_PTR_D.:E05TSI                                TUE 07/29/97 15:16 Page:4
--  Include file information  --

   B_SEGIDS_C.:E05TOU  is referenced.
   DD_SUBS_C.:E05TOU  is referenced.
   B$JIT_C.:E05TOU  was found in the system file and is never referenced.
   CP_6_C.:E05TOU  was found in the system file and is never referenced.
      No diagnostics issued in procedure DX_PTR_D.

   No code generated for procedure DX_PTR_D .
   Procedure DX_PTR_D requires 4 words of local(AUTO) storage.

    No errors detected in file DX_PTR_D.:E05TSI    .

PL6.E3A0      #001=DX_PTR_D File=DX_PTR_D.:E05TSI                                TUE 07/29/97 15:16 Page:5

 Object Unit name= DX_PTR_D                                   File name= DX_PTR_D.:E05TOU
 UTS= JUL 29 '97 15:16:05.84 TUE                              Compiler= PL-6/E31         Sev=      00
 SharedLib= :SHARED_SYSTEM                                    Alt SharedLib=


    ****  Control sections  ****

 Sect   Type Bound  Init  Size OctSiz  Section name(segment info)
    0  RoData even  UTS     37     45  DX_PTR_D
    1   Proc  even  none     0      0  DX_PTR_D

    ****  Entry defs  ****

                              Check   Calling
                             calling  sequence
  Sect OctLoc Primary Altret sequence   type   Parms  Name
     1      0   yes            yes     ~proc       0  DX_PTR_D

  ****  Data defs  ****

 Sect OctLoc  Name                           Sect OctLoc  Name
    0      0  D_XDELTA                           0      1  DD_DEBUG
    0      2  PARSE$                             0      3  IOBUF$
    0      4  USE$                               0      5  USE_ORIG$
    0      6  B$TCB$                             0      7  B$ROS$
    0     10  UECCB$                             0     11  UTCB$
    0     12  MALS$                              0     13  DD_ANLZSEG$
    0     14  SAD$                               0     15  DD_RUMNODE$
    0     16  DD_WHEN$                           0     17  DD_FPRGSEG$
    0     20  DD_VARCOM$                         0     21  B$PS1$
    0     22  B$PS3$                             0     23  DCTX_NO
    0     24  DCTX_ME                            0     25  DCTX_LP
    0     26  DCTX_CR                            0     27  DCTX_MT
    0     30  DCTX_DP                            0     31  DCTX_PATCH
    0     33  R_SFAULTT                          0     34  S_PNO
    0     35  FPT_EOM                            0     36  FPT_PROMPT
    0     37  FPT_CLOSE                          0     40  FPT_GETDCB
PL6.E3A0      #001=DX_PTR_D File=DX_PTR_D.:E05TSI                                TUE 07/29/97 15:16 Page:6
    0     41  FPT_RELDCB                         0     42  DD_PROMPT
    0     43  D_M$DO#                            0     44  D_M$LM#

  ****  Data refs  ****

  Flags:  r = read only, s = secondary
Flgs Name                             Flgs Name                             Flgs Name
     PARSEBUF                              IOBUF                                 USEE
     USE_ORIG

  ****  Segment refs  ****

  Flags:  r = read only, s = secondary
Flgs Name                             Flgs Name                             Flgs Name
     ISSID                                 NULLSID
PL6.E3A0      #001=DX_PTR_D File=DX_PTR_D.:E05TSI                                TUE 07/29/97 15:16 Page:7


(unnamed)
 Sect OctLoc
   0     000   4***** ******   000000 000000   000000 006000   000000 006000    ................
   0     004   000000 006000   000000 006000   000000 006014   000000 006014    ................
   0     010   000000 006014   000000 006014   000000 006014   000000 006014    ................
   0     020*  000000 006014   000000 006014   000000 006014   000000 077777    ..............?.
   0     024   000000 000001   000000 000002   000000 000004   000000 000010    ................
   0     030   000000 000020   000000 000000                                    ........

R_SFAULT_V
 Sect OctLoc
   0     032   000000 000010                                                    ....

(unnamed)
 Sect OctLoc
   0     033   000032 006000   000000 000000   000000 000000   000000 000000    ................
   0     037   000000 000000   000000 000000   000000 000000   000000 000000    ................
   0     043   000000 000000   000000 000000                                    ........
        1        1        /*M* DX_PTR_D Constant pointers & data for Exec Delta */
        2        2        /*T***********************************************************/
        3        3        /*T*                                                         */
        4        4        /*T* Copyright (c) Bull HN Information Systems Inc., 1997    */
        5        5        /*T*                                                         */
        6        6        /*T***********************************************************/
        7        7        /*X* DMR,PLM=5,IND=5,CSU=3,EXM=0,ECU=3,MOC,DCI=5,CRT=5 */
        8        8        %SET LISTSUB='1'B;
        9        9        /*F* NAME: DX_PTR_D
       10       10             PURPOSE: To generate constant pointers & data for Exec Delta.
       11       11             DESCRIPTION: This modules contains constant pointers & constant data
       12       12                          definitions for Exec Delta. */
       13       13        /*D* NAME: DX_PTR_D
       14       14             ENVIRONMENT: Exec Delta.
       15       15             DESCRIPTION: This modules contains constant pointers & constant data
       16       16                          definitions for Exec Delta. */
       17       17                                                /**/
       18       18        DX_PTR_D: PROC;
PL6.E3A0      #001=DX_PTR_D File=DX_PTR_D.:E05TSI                                TUE 07/29/97 15:16 Page:8
       19       19                                                /**/
       20       20        %SUB @NODCTX= 32767 /* @NODCTX */;
       21       21        %SUB @OCDCTX= 1 /* @OCDCTX */;
       22       22        %SUB @LPDCTX= 2 /* @LPDCTX */;
       23       23        %SUB @CRDCTX= 4 /* @CRDCTX */;
       24       24        %SUB @MTDCTX= 8 /* @MTDCTX */;
       25       25        %SUB @DPDCTX= 16 /* @DPDCTX */;
       26       26        %SUB @PATCHDCTX= 0 /* @PATCHDCTX */;
       27       27        %INCLUDE DD_SUBS_C;
       28      298        %INCLUDE B_SEGIDS_C;
       29      837    1   DCL PARSEBUF UBIN SYMREF;
       30      838    1   DCL IOBUF UBIN SYMREF;
       31      839    1   DCL USEE UBIN SYMREF;
       32      840    1   DCL USE_ORIG UBIN SYMREF;
       33      841        /* Exec Delta/User Delta flag */
       34      842    1   DCL D_XDELTA BIT(1) CONSTANT SYMDEF INIT('1'B);
       35      843        /* Debug flags */
       36      844    1   DCL DD_DEBUG UBIN CONSTANT SYMDEF INIT( 0 );
       37      845        /* Pointers */
       38      846    1   DCL PARSE$ PTR CONSTANT SYMDEF INIT( ADDR( PARSEBUF ) );
       39      847    1   DCL IOBUF$ PTR CONSTANT SYMDEF INIT( ADDR( IOBUF ) );
       40      848    1   DCL USE$ PTR CONSTANT SYMDEF INIT( ADDR( USEE ) );
       41      849    1   DCL USE_ORIG$ PTR CONSTANT SYMDEF INIT( ADDR( USE_ORIG ) );
       42      850    1   DCL B$TCB$ PTR CONSTANT SYMDEF INIT( ADDR(NIL) );
       43      851    1   DCL B$ROS$ PTR CONSTANT SYMDEF INIT( ADDR(NIL) );
       44      852    1   DCL UECCB$ PTR CONSTANT SYMDEF INIT( ADDR(NIL) );
       45      853    1   DCL UTCB$ PTR CONSTANT SYMDEF INIT( ADDR(NIL) );
       46      854    1   DCL MALS$ PTR CONSTANT SYMDEF INIT( ADDR(NIL) );
       47      855    1   DCL DD_ANLZSEG$ PTR CONSTANT SYMDEF INIT( ADDR(NIL) );
       48      856    1   DCL SAD$ PTR CONSTANT SYMDEF INIT( ADDR(NIL ) );
       49      857    1   DCL DD_RUMNODE$ PTR CONSTANT SYMDEF INIT( ADDR(NIL) );
       50      858    1   DCL DD_WHEN$ PTR CONSTANT SYMDEF INIT( ADDR(NIL) );
       51      859    1   DCL DD_FPRGSEG$ PTR CONSTANT SYMDEF INIT( ADDR(NIL) );
       52      860    1   DCL DD_VARCOM$ PTR CONSTANT SYMDEF INIT( ADDR(NIL) );
       53      861    1   DCL B$PS1$ PTR CONSTANT SYMDEF INIT( ADDR(NIL) );
       54      862    1   DCL B$PS3$ PTR CONSTANT SYMDEF INIT( ADDR(NIL) );
       55      863        /* Constant data */
PL6.E3A0      #001=DX_PTR_D File=DX_PTR_D.:E05TSI                                TUE 07/29/97 15:16 Page:9
       56      864    1   DCL DCTX_NO SBIN CONSTANT SYMDEF INIT(32767 /* @NODCTX */);
       57      865    1   DCL DCTX_ME SBIN CONSTANT SYMDEF INIT(1 /* @OCDCTX */);
       58      866    1   DCL DCTX_LP SBIN CONSTANT SYMDEF INIT(2 /* @LPDCTX */);
       59      867    1   DCL DCTX_CR SBIN CONSTANT SYMDEF INIT(4 /* @CRDCTX */);
       60      868    1   DCL DCTX_MT UBIN CONSTANT SYMDEF INIT(8 /* @MTDCTX */);
       61      869    1   DCL DCTX_DP UBIN CONSTANT SYMDEF INIT(16 /* @DPDCTX */);
       62      870    1   DCL DCTX_PATCH UBIN CONSTANT SYMDEF INIT(0 /* @PATCHDCTX */);
       63      871    1   DCL R_SFAULT_V UBIN CONSTANT INIT(8/*R_SFAULT*/);
       64      872    1   DCL R_SFAULTT PTR CONSTANT SYMDEF INIT( ADDR(R_SFAULT_V) );
       65      873    1   DCL S_PNO UBIN CONSTANT SYMDEF INIT( 0 );
       66      874    1   DCL FPT_EOM UBIN CONSTANT SYMDEF INIT( 0 );
       67      875    1   DCL FPT_PROMPT UBIN CONSTANT SYMDEF INIT( 0 );
       68      876    1   DCL FPT_CLOSE UBIN CONSTANT SYMDEF INIT( 0 );
       69      877    1   DCL FPT_GETDCB UBIN CONSTANT SYMDEF INIT( 0 );
       70      878    1   DCL FPT_RELDCB UBIN CONSTANT SYMDEF INIT( 0 );
       71      879    1   DCL DD_PROMPT UBIN CONSTANT SYMDEF INIT( 0 );
       72      880    1   DCL D_M$DO# UBIN CONSTANT SYMDEF INIT( 0 );
       73      881    1   DCL D_M$LM# UBIN CONSTANT SYMDEF INIT( 0 );
       74      882                                                /**/
       75      883    1   END DX_PTR_D;

PL6.E3A0      #001=DX_PTR_D File=DX_PTR_D.:E05TSI                                TUE 07/29/97 15:16 Page:10
--  Include file information  --

   B_SEGIDS_C.:E05TOU  is referenced.
   DD_SUBS_C.:E05TOU  is referenced.
   B$JIT_C.:E05TOU  was found in the system file and is never referenced.
   CP_6_C.:E05TOU  was found in the system file and is never referenced.
      No diagnostics issued in procedure DX_PTR_D.

   No code generated for procedure DX_PTR_D .
   Procedure DX_PTR_D requires 4 words of local(AUTO) storage.

    No errors detected in file DX_PTR_D.:E05TSI    .
PL6.E3A0      #001=DX_PTR_D File=DX_PTR_D.:E05TSI                                TUE 07/29/97 15:16 Page:11
          *** CROSS REFERENCE LISTING ***
**     DENOTES     IDENTIFIER DEFINITION
<<                 IDENTIFIER'S VALUE SET
>>                 IDENTIFIER'S VALUE USED
<>                 IDENTIFIER SET AND/OR USED
--                 IDENTIFIER REFERENCED
PL6.E3A0      #001=DX_PTR_D File=DX_PTR_D.:E05TSI                                TUE 07/29/97 15:16 Page:12
          MINI XREF LISTING

IOBUF
       838**DCL       847--DCLINIT
PARSEBUF
       837**DCL       846--DCLINIT
R_SFAULT_V
       871**DCL       872--DCLINIT
USEE
       839**DCL       848--DCLINIT
USE_ORIG
       840**DCL       849--DCLINIT
PL6.E3A0      #001=DX_PTR_D File=DX_PTR_D.:E05TSI                                TUE 07/29/97 15:16 Page:13
              *** CROSS REFERENCE LISTING ***
    **     DENOTES     IDENTIFIER DEFINITION
    <<                 IDENTIFIER'S VALUE SET
    >>                 IDENTIFIER'S VALUE USED
    <>                 IDENTIFIER SET AND/OR USED
    --                 IDENTIFIER REFERENCED
PL6.E3A0      #001=DX_PTR_D File=DX_PTR_D.:E05TSI                                TUE 07/29/97 15:16 Page:14
              MINI UREF LISTING

B$PS1$     861**DCL
B$PS3$     862**DCL
B$ROS$     851**DCL
B$TCB$     850**DCL
DCTX_CR     867**DCL
DCTX_DP     869**DCL
DCTX_LP     866**DCL
DCTX_ME     865**DCL
DCTX_MT     868**DCL
DCTX_NO     864**DCL
DCTX_PATCH     870**DCL
DD_ANLZSEG$     855**DCL
DD_DEBUG     844**DCL
DD_FPRGSEG$     859**DCL
DD_PROMPT     879**DCL
DD_RUMNODE$     857**DCL
DD_VARCOM$     860**DCL
DD_WHEN$     858**DCL
DX_PTR_D      18**PROC
D_M$DO#     880**DCL
D_M$LM#     881**DCL
D_XDELTA     842**DCL
FPT_CLOSE     876**DCL
FPT_EOM     874**DCL
FPT_GETDCB     877**DCL
FPT_PROMPT     875**DCL
FPT_RELDCB     878**DCL
IOBUF$     847**DCL
MALS$     854**DCL
PARSE$     846**DCL
R_SFAULTT     872**DCL
SAD$     856**DCL
PL6.E3A0      #001=DX_PTR_D File=DX_PTR_D.:E05TSI                                TUE 07/29/97 15:16 Page:15
S_PNO     873**DCL
UECCB$     852**DCL
USE$     848**DCL
USE_ORIG$     849**DCL
UTCB$     853**DCL
