VERSION E05

PL6.E3A0      #001=DX_TABLES File=DX_TABLES.:E05TSI                              TUE 07/29/97 15:17 Page:1
        1        1        /*M* DX_TABLES - dummy module for tables in XDELTA */
        2        2        /*T***********************************************************/
        3        3        /*T*                                                         */
        4        4        /*T* Copyright (c) Bull HN Information Systems Inc., 1997    */
        5        5        /*T*                                                         */
        6        6        /*T***********************************************************/
        7        7        DX_TABLES: PROC;
        8        8
        9        9        %INCLUDE B_TABLES_C;
       10      700        %INCLUDE B$TABLES_C;
       11      808
       12      809    1   DCL 1 B_TABLES CONSTANT,
       13      810        %B_XL_UPPER;
       14      845        %B_XL_ASC_DUMP;
       15      864        %B_XL_EBC_DUMP;
       16      883    1   2 * UBIN ALIGNED; /* END OF TABLES */
       17      884
       18      885    1   DCL B$XL_UPPER$ PTR CONSTANT SYMDEF INIT(ADDR(B_TABLES.B_XL_UPPER));
       19      886    1   DCL B$XL_ASC_DUMP$ PTR CONSTANT SYMDEF INIT(ADDR(B_TABLES.B_XL_ASC_DUMP));
       20      887    1   DCL B$XL_EBC_DUMP$ PTR CONSTANT SYMDEF INIT(ADDR(B_TABLES.B_XL_EBC_DUMP));
       21      888
       22      889    1   END DX_TABLES;
       23      890        %EOD;

PL6.E3A0      #001=DX_TABLES File=DX_TABLES.:E05TSI                              TUE 07/29/97 15:17 Page:2
--  Include file information  --

   B$TABLES_C.:E05TOU  cannot be made into a system file and is referenced.
   B_TABLES_C.:E05TOU  is referenced.
      No diagnostics issued in procedure DX_TABLES.

   No code generated for procedure DX_TABLES .
   Procedure DX_TABLES requires 4 words of local(AUTO) storage.

PL6.E3A0      #001=DX_TABLES File=DX_TABLES.:E05TSI                              TUE 07/29/97 15:17 Page:3

 Object Unit name= DX_TABLES                                  File name= DX_TABLES.:E05TOU
 UTS= JUL 29 '97 15:17:12.08 TUE                              Compiler= PL-6/E31         Sev=      00
 SharedLib= :SHARED_SYSTEM                                    Alt SharedLib=


    ****  Control sections  ****

 Sect   Type Bound  Init  Size OctSiz  Section name(segment info)
    0  RoData even  UTS    388    604  DX_TABLES
    1   Proc  even  none     0      0  DX_TABLES

    ****  Entry defs  ****

                              Check   Calling
                             calling  sequence
  Sect OctLoc Primary Altret sequence   type   Parms  Name
     1      0   yes            yes     ~proc       0  DX_TABLES

  ****  Data defs  ****

 Sect OctLoc  Name                           Sect OctLoc  Name
    0    601  B$XL_UPPER$                        0    602  B$XL_ASC_DUMP$
    0    603  B$XL_EBC_DUMP$

  ****  Entry refs  ****

         Check        Calling
        calling       sequence
Altret sequence SRef   type   Args  Name
         yes          ~proc      0 B_POINTER

  ****  Segment refs  ****

  Flags:  r = read only, s = secondary
Flgs Name                             Flgs Name                             Flgs Name
     ISSID
PL6.E3A0      #001=DX_TABLES File=DX_TABLES.:E05TSI                              TUE 07/29/97 15:17 Page:4

        1        1        /*M* DX_TABLES - dummy module for tables in XDELTA */
        2        2        /*T***********************************************************/
        3        3        /*T*                                                         */
        4        4        /*T* Copyright (c) Bull HN Information Systems Inc., 1997    */
        5        5        /*T*                                                         */
        6        6        /*T***********************************************************/
        7        7        DX_TABLES: PROC;
        8        8
        9        9        %INCLUDE B_TABLES_C;
       10      700        %INCLUDE B$TABLES_C;
       11      808
       12      809    1   DCL 1 B_TABLES CONSTANT,
       13      810        %B_XL_UPPER;
       14      845        %B_XL_ASC_DUMP;
       15      864        %B_XL_EBC_DUMP;
       16      883    1   2 * UBIN ALIGNED; /* END OF TABLES */
       17      884
       18      885    1   DCL B$XL_UPPER$ PTR CONSTANT SYMDEF INIT(ADDR(B_TABLES.B_XL_UPPER));
       19      886    1   DCL B$XL_ASC_DUMP$ PTR CONSTANT SYMDEF INIT(ADDR(B_TABLES.B_XL_ASC_DUMP));
       20      887    1   DCL B$XL_EBC_DUMP$ PTR CONSTANT SYMDEF INIT(ADDR(B_TABLES.B_XL_EBC_DUMP));
       21      888
       22      889    1   END DX_TABLES;
       23      890        %EOD;

PL6.E3A0      #001=DX_TABLES File=DX_TABLES.:E05TSI                              TUE 07/29/97 15:17 Page:5
--  Include file information  --

   B$TABLES_C.:E05TOU  cannot be made into a system file and is referenced.
   B_TABLES_C.:E05TOU  is referenced.
      No diagnostics issued in procedure DX_TABLES.
PL6.E3A0      #001=DX_TABLES File=DX_TABLES.:E05TSI                              TUE 07/29/97 15:17 Page:6

 **** Variables and constants ****

  ****  Section 000 RoData DX_TABLES

  ****  Scalars and arrays  ****
OctLoc.c.b A Datatyp(siz) R M Lvl/name                 OctLoc.c.b A Datatyp(siz) R M Lvl/name

     0-0-0/w STRC(13860) r     1 B_TABLES


   No code generated for procedure DX_TABLES .
   Procedure DX_TABLES requires 4 words of local(AUTO) storage.
PL6.E3A0      #001=DX_TABLES File=DX_TABLES.:E05TSI                              TUE 07/29/97 15:17 Page:7
          *** CROSS REFERENCE LISTING ***
**     DENOTES     IDENTIFIER DEFINITION
<<                 IDENTIFIER'S VALUE SET
>>                 IDENTIFIER'S VALUE USED
<>                 IDENTIFIER SET AND/OR USED
--                 IDENTIFIER REFERENCED
PL6.E3A0      #001=DX_TABLES File=DX_TABLES.:E05TSI                              TUE 07/29/97 15:17 Page:8
          MINI XREF LISTING

B_TABLES.B_XL_ASC_DUMP
       846**DCL       886--DCLINIT
B_TABLES.B_XL_EBC_DUMP
       865**DCL       887--DCLINIT
B_TABLES.B_XL_UPPER
       811**DCL       885--DCLINIT

PL6.E3A0      #002=B_POINTER File=DX_TABLES.:E05TSI                              TUE 07/29/97 15:17 Page:9
       24        1        /*T***********************************************************/
       25        2        /*T*                                                         */
       26        3        /*T* Copyright (c) Bull HN Information Systems Inc., 1997    */
       27        4        /*T*                                                         */
       28        5        /*T***********************************************************/
       29        6        B_POINTER: PROC;
       30        7    1   END B_POINTER;

PL6.E3A0      #002=B_POINTER File=DX_TABLES.:E05TSI                              TUE 07/29/97 15:17 Page:10
      No diagnostics issued in procedure B_POINTER.

   No code generated for procedure B_POINTER .
   Procedure B_POINTER requires 4 words of local(AUTO) storage.

    No errors detected in file DX_TABLES.:E05TSI    .

PL6.E3A0      #002=B_POINTER File=DX_TABLES.:E05TSI                              TUE 07/29/97 15:17 Page:11

 Object Unit name= B_POINTER                                  File name= DX_TABLES.:E05TOU
 UTS= JUL 29 '97 15:17:14.60 TUE                              Compiler= PL-6/E31         Sev=      00
 SharedLib= :SHARED_SYSTEM                                    Alt SharedLib=


    ****  Control sections  ****

 Sect   Type Bound  Init  Size OctSiz  Section name(segment info)
    0   Proc  even  none     0      0  B_POINTER

    ****  Entry defs  ****

                              Check   Calling
                             calling  sequence
  Sect OctLoc Primary Altret sequence   type   Parms  Name
     0      0   yes            yes     ~proc       0  B_POINTER
PL6.E3A0      #002=B_POINTER File=DX_TABLES.:E05TSI                              TUE 07/29/97 15:17 Page:12

       24        1        /*T***********************************************************/
       25        2        /*T*                                                         */
       26        3        /*T* Copyright (c) Bull HN Information Systems Inc., 1997    */
       27        4        /*T*                                                         */
       28        5        /*T***********************************************************/
       29        6        B_POINTER: PROC;
       30        7    1   END B_POINTER;

PL6.E3A0      #002=B_POINTER File=DX_TABLES.:E05TSI                              TUE 07/29/97 15:17 Page:13
      No diagnostics issued in procedure B_POINTER.
PL6.E3A0      #002=B_POINTER File=DX_TABLES.:E05TSI                              TUE 07/29/97 15:17 Page:14

 **** Variables and constants ****


   No code generated for procedure B_POINTER .
   Procedure B_POINTER requires 4 words of local(AUTO) storage.

    No errors detected in file DX_TABLES.:E05TSI    .
PL6.E3A0      #002=B_POINTER File=DX_TABLES.:E05TSI                              TUE 07/29/97 15:17 Page:15
          *** CROSS REFERENCE LISTING ***
**     DENOTES     IDENTIFIER DEFINITION
<<                 IDENTIFIER'S VALUE SET
>>                 IDENTIFIER'S VALUE USED
<>                 IDENTIFIER SET AND/OR USED
--                 IDENTIFIER REFERENCED
PL6.E3A0      #002=B_POINTER File=DX_TABLES.:E05TSI                              TUE 07/29/97 15:17 Page:16
          MINI XREF LISTING

