PL6.E3A0      #002=ELF$EXIT File=ELF$MAIN.:E05TSI                                TUE 07/29/97 15:19 Page:215
     1371        1        /*T***********************************************************/
     1372        2        /*T*                                                         */
     1373        3        /*T* Copyright (c) Bull HN Information Systems Inc., 1997    */
     1374        4        /*T*                                                         */
     1375        5        /*T***********************************************************/
     1376        6        ELF$EXIT: PROC ASYNC;
     1377        7        /**/
     1378        8        %INCLUDE CP_6;
     1379       89        %INCLUDE NI_SCODE_C;
     1380      107        %INCLUDE CP_6_SUBS;
     1381      647        %INCLUDE B$ROSEG;
     1382      710    1   DCL B$ROS$ PTR SYMREF;
     1383      711        %F$DCB;
     1384      768    1   DCL B$TCB$ PTR SYMREF;
     1385      769        %FPT_SCREECH (FPTN=ELF_SNAP,
     1386      770                      JERR=VLP_ERRCODE,
     1387      771                      SCODE=SC_ELF);
     1388      785        %VLP_ERRCODE;
     1389      830        %VLP_SCODE (FPTN=SC_ELF,
     1390      831               FCG=EL,
     1391      832                MID=F,
     1392      833               MON=NO,
     1393      834               CODE=%S$ELFABORT,
     1394      835               SEV=SEV_SNAP,
     1395      836               CUSR=YES,
     1396      837               DDSEG=YES,
     1397      838               FMBUF=YES,
     1398      839               ROSEG=YES,
     1399      840               ISEG=YES);
     1400      901        %FPT_LDTRC (NAME=ELF,ACCT=VLP_SYS);
     1401      919        %VLP_NAME (FPTN=ELF,NAME='ELF');
     1402      946        %VLP_ACCT (FPTN=VLP_SYS,ACCT=':SYS');
     1403      959        %FPT_WAIT (UNITS=120);
     1404      973    1   DCL ABORT_MESS CHAR(0) CONSTANT INIT('ELF ABORT');
     1405      974    1   DCL KEY_RESULT BIT(72) STATIC DALIGNED;
     1406      975    1   DCL I UBIN;
     1407      976        %FPT_KEYIN (MESS=ABORT_MESS,RESULTS=KEY_RESULT);
PL6.E3A0      #002=ELF$EXIT File=ELF$MAIN.:E05TSI                                TUE 07/29/97 15:19 Page:216
     1408      995        %FPT_XCON;
     1409     1009        %FPT_CLOSE(DISP=SAVE);
     1410     1051    1   DCL EL_THRESHOLD    BIT(1) ALIGNED SYMREF;
     1411     1052    1   DCL EL_SNAPFLG      BIT(1) ALIGNED SYMREF;
     1412     1053    1   DCL EL_NO_THRESHOLDING REMEMBER SYMREF;
     1413     1054        %EJECT;
PL6.E3A0      #002=ELF$EXIT File=ELF$MAIN.:E05TSI                                TUE 07/29/97 15:19 Page:217
     1414     1055    1        IF NOT EL_THRESHOLD
     1415     1056    1        THEN CALL M$XCON(FPT_XCON) ALTRET(L1);
     1416     1057    1   L1:  CALL M$KEYIN(FPT_KEYIN) ALTRET(L2);
     1417     1058    1   L2:  CALL M$SCREECH(ELF_SNAP) ALTRET(L3);
     1418     1059                /*S* SCREECH_CODE: ELF-S$ELFABORT
     1419     1060                      TYPE:    SNAP
     1420     1061                      MESSAGE: ELF ABORT   */
     1421     1062    1        EL_SNAPFLG = '1'B;            /* SET FLAG INDICATING A SNAP HAS OCCURRED */
     1422     1063    2   L3:  DO I = %M$1STDCB# TO B$ROS$->B$ROSEG.NUMDCBS;
     1423     1064    2             IF DCBADDR(I)~=ADDR(NIL) THEN
     1424     1065    3                  IF DCBADDR(I)->F$DCB.FCD# THEN DO;
     1425     1066    3                       FPT_CLOSE.V.DCB#=I;
     1426     1067    3                       CALL M$CLOSE(FPT_CLOSE) ALTRET(L6);
     1427     1068    3   L6:               END;
     1428     1069    2           END;                            /* DO I                               */
     1429     1070    2        IF NOT EL_THRESHOLD THEN DO;
     1430     1071    2             CALL M$WAIT(FPT_WAIT);
     1431     1072    2             CALL M$LDTRC(FPT_LDTRC);
     1432     1073    2           END;
     1433     1074    1        CALL M$CLRSTK;
     1434     1075    1        UNWIND TO EL_NO_THRESHOLDING;
     1435     1076    1   END ELF$EXIT;
     1436     1077        %EOD;

PL6.E3A0      #002=ELF$EXIT File=ELF$MAIN.:E05TSI                                TUE 07/29/97 15:19 Page:218
--  Include file information  --

   B$ROSEG.:E05TOU  cannot be made into a system file and is referenced.
   CP_6_SUBS.:E05TOU  is referenced.
   NI_SCODE_C.:E05TOU  is referenced.
   CP_6.:E05TOU  cannot be made into a system file and is referenced.
   B$JIT_C.:E05TOU  was found in the system file and is never referenced.
   CP_6_C.:E05TOU  was found in the system file and is referenced.
      No diagnostics issued in procedure ELF$EXIT.

   Procedure ELF$EXIT requires 57 words for executable code.
   Procedure ELF$EXIT requires 4 words of local(AUTO) storage.

PL6.E3A0      #002=ELF$EXIT File=ELF$MAIN.:E05TSI                                TUE 07/29/97 15:19 Page:219

 Object Unit name= ELF$EXIT                                   File name= ELF$MAIN.:E05TOU
 UTS= JUL 29 '97 15:19:22.92 TUE                              Compiler= PL-6/E31         Sev=      00
 SharedLib= :SHARED_SYSTEM                                    Alt SharedLib=


    ****  Control sections  ****

 Sect   Type Bound  Init  Size OctSiz  Section name(segment info)
    0   DCB   even  none     0      0  M$UC
    1   Data  even  none    88    130  ELF$EXIT
    2  RoData even  UTS      3      3  ELF$EXIT
    3   Proc  even  none    57     71  ELF$EXIT
    4  RoData even  none     1      1  ELF$EXIT

    ****  Entry defs  ****

                              Check   Calling
                             calling  sequence
  Sect OctLoc Primary Altret sequence   type   Parms  Name
     3      0   yes            yes     Async       0  ELF$EXIT

  ****  Entry refs  ****

         Check        Calling
        calling       sequence
Altret sequence SRef   type   Args  Name
                       nStd      0 X66_AAUTO
                       Std       0 B_CONSPOOL_D
                       nStd      0 X66_AAUNWIND

  ****  Data refs  ****

  Flags:  r = read only, s = secondary
Flgs Name                             Flgs Name                             Flgs Name
     M$UC                                  B$ROS$                                EL_THRESHOLD
     EL_SNAPFLG                            EL_NO_THRESHOLDING                    B_VECTNIL
PL6.E3A0      #002=ELF$EXIT File=ELF$MAIN.:E05TSI                                TUE 07/29/97 15:19 Page:220

  ****  Segment refs  ****

  Flags:  r = read only, s = secondary
Flgs Name                             Flgs Name                             Flgs Name
     ISSID                                 NULLSID                               ROSID
PL6.E3A0      #002=ELF$EXIT File=ELF$MAIN.:E05TSI                                TUE 07/29/97 15:19 Page:221


     1371        1        /*T***********************************************************/
     1372        2        /*T*                                                         */
     1373        3        /*T* Copyright (c) Bull HN Information Systems Inc., 1997    */
     1374        4        /*T*                                                         */
     1375        5        /*T***********************************************************/
     1376        6        ELF$EXIT: PROC ASYNC;

      6  3 000000   000000 700200 xent  ELF$EXIT     TSX0  ! X66_AAUTO
         3 000001   000004 000000                    ZERO    4,0

     1377        7        /**/
     1378        8        %INCLUDE CP_6;
     1379       89        %INCLUDE NI_SCODE_C;
     1380      107        %INCLUDE CP_6_SUBS;
     1381      647        %INCLUDE B$ROSEG;
     1382      710    1   DCL B$ROS$ PTR SYMREF;
     1383      711        %F$DCB;
     1384      768    1   DCL B$TCB$ PTR SYMREF;
     1385      769        %FPT_SCREECH (FPTN=ELF_SNAP,
     1386      770                      JERR=VLP_ERRCODE,
     1387      771                      SCODE=SC_ELF);
     1388      785        %VLP_ERRCODE;
     1389      830        %VLP_SCODE (FPTN=SC_ELF,
     1390      831               FCG=EL,
     1391      832                MID=F,
     1392      833               MON=NO,
     1393      834               CODE=%S$ELFABORT,
     1394      835               SEV=SEV_SNAP,
     1395      836               CUSR=YES,
     1396      837               DDSEG=YES,
     1397      838               FMBUF=YES,
     1398      839               ROSEG=YES,
     1399      840               ISEG=YES);
     1400      901        %FPT_LDTRC (NAME=ELF,ACCT=VLP_SYS);
     1401      919        %VLP_NAME (FPTN=ELF,NAME='ELF');
     1402      946        %VLP_ACCT (FPTN=VLP_SYS,ACCT=':SYS');
PL6.E3A0      #002=ELF$EXIT File=ELF$MAIN.:E05TSI                                TUE 07/29/97 15:19 Page:222
     1403      959        %FPT_WAIT (UNITS=120);
     1404      973    1   DCL ABORT_MESS CHAR(0) CONSTANT INIT('ELF ABORT');
     1405      974    1   DCL KEY_RESULT BIT(72) STATIC DALIGNED;
     1406      975    1   DCL I UBIN;
     1407      976        %FPT_KEYIN (MESS=ABORT_MESS,RESULTS=KEY_RESULT);
     1408      995        %FPT_XCON;
     1409     1009        %FPT_CLOSE(DISP=SAVE);
     1410     1051    1   DCL EL_THRESHOLD    BIT(1) ALIGNED SYMREF;
     1411     1052    1   DCL EL_SNAPFLG      BIT(1) ALIGNED SYMREF;
     1412     1053    1   DCL EL_NO_THRESHOLDING REMEMBER SYMREF;
     1413     1054        %EJECT;
PL6.E3A0      #002=ELF$EXIT File=ELF$MAIN.:E05TSI                                TUE 07/29/97 15:19 Page:223
     1414     1055    1        IF NOT EL_THRESHOLD

   1055  3 000002   000000 234000 xsym               SZN     EL_THRESHOLD
         3 000003   000010 604000 3                  TMI     L1

     1415     1056    1        THEN CALL M$XCON(FPT_XCON) ALTRET(L1);

   1056  3 000004   000064 630400 1                  EPPR0   FPT_XCON
         3 000005   410003 713400                    CLIMB   alt,+4099
         3 000006   400400 401760                    pmme    nvectors=2
         3 000007   000010 702000 3                  TSX2    L1

     1416     1057    1   L1:  CALL M$KEYIN(FPT_KEYIN) ALTRET(L2);

   1057  3 000010   000046 630400 1     L1           EPPR0   FPT_KEYIN
         3 000011   520000 713400                    CLIMB   alt,+40960
         3 000012   401400 401760                    pmme    nvectors=4
         3 000013   000014 702000 3                  TSX2    L2

     1417     1058    1   L2:  CALL M$SCREECH(ELF_SNAP) ALTRET(L3);

   1058  3 000014   000000 630400 1     L2           EPPR0   ELF_SNAP
         3 000015   400013 713400                    CLIMB   alt,+11
         3 000016   401000 401760                    pmme    nvectors=3
         3 000017   000022 702000 3                  TSX2    L3

     1418     1059                /*S* SCREECH_CODE: ELF-S$ELFABORT
     1419     1060                      TYPE:    SNAP
     1420     1061                      MESSAGE: ELF ABORT   */
     1421     1062    1        EL_SNAPFLG = '1'B;            /* SET FLAG INDICATING A SNAP HAS OCCURRED */

   1062  3 000020   400000 236003                    LDQ     -131072,DU
         3 000021   000000 756000 xsym               STQ     EL_SNAPFLG

     1422     1063    2   L3:  DO I = %M$1STDCB# TO B$ROS$->B$ROSEG.NUMDCBS;

   1063  3 000022   000012 235007       L3           LDA     10,DL
PL6.E3A0      #002=ELF$EXIT File=ELF$MAIN.:E05TSI                                TUE 07/29/97 15:19 Page:224
         3 000023   200003 755100                    STA     I,,AUTO
         3 000024   000047 710000 3                  TRA     L6+3

     1423     1064    2             IF DCBADDR(I)~=ADDR(NIL) THEN

   1064  3 000025   000000 470400 4                  LDP0    0
         3 000026   000000 471500                    LDP1    0,,PR0
         3 000027   200003 720100                    LXL0    I,,AUTO
         3 000030   100000 236110                    LDQ     0,X0,PR1
         3 000031   000001 116000 xsym               CMPQ    B_VECTNIL+1
         3 000032   000044 600000 3                  TZE     L6

     1424     1065    3                  IF DCBADDR(I)->F$DCB.FCD# THEN DO;

   1065  3 000033   100000 473510                    LDP3    0,X0,PR1
         3 000034   300031 236100                    LDQ     25,,PR3
         3 000035   020000 316007                    CANQ    8192,DL
         3 000036   000044 600000 3                  TZE     L6

     1425     1066    3                       FPT_CLOSE.V.DCB#=I;

   1066  3 000037   000124 740000 1                  STX0    FPT_CLOSE+26

     1426     1067    3                       CALL M$CLOSE(FPT_CLOSE) ALTRET(L6);

   1067  3 000040   000072 630400 1                  EPPR0   FPT_CLOSE
         3 000041   450001 713400                    CLIMB   alt,close
         3 000042   406000 401760                    pmme    nvectors=13
         3 000043   000044 702000 3                  TSX2    L6

     1427     1068    3   L6:               END;

   1068  3 000044                       L6           null
     1428     1069    2           END;                            /* DO I                               */

   1069  3 000044   200003 235100                    LDA     I,,AUTO
         3 000045   000001 035007                    ADLA    1,DL
PL6.E3A0      #002=ELF$EXIT File=ELF$MAIN.:E05TSI                                TUE 07/29/97 15:19 Page:225
         3 000046   200003 755100                    STA     I,,AUTO
         3 000047   000000 470400 xsym               LDP0    B$ROS$
         3 000050   000002 236100                    LDQ     2,,PR0
         3 000051   000022 772000                    QRL     18
         3 000052   200003 116100                    CMPQ    I,,AUTO
         3 000053   000025 603000 3                  TRC     s:1064

     1429     1070    2        IF NOT EL_THRESHOLD THEN DO;

   1070  3 000054   000000 234000 xsym               SZN     EL_THRESHOLD
         3 000055   000064 604000 3                  TMI     s:1074

     1430     1071    2             CALL M$WAIT(FPT_WAIT);

   1071  3 000056   000036 630400 1                  EPPR0   FPT_WAIT
         3 000057   020006 713400                    CLIMB   8198
         3 000060   400400 401760                    pmme    nvectors=2

     1431     1072    2             CALL M$LDTRC(FPT_LDTRC);

   1072  3 000061   000012 630400 1                  EPPR0   FPT_LDTRC
         3 000062   000006 713400                    CLIMB   6
         3 000063   403000 401760                    pmme    nvectors=7

     1432     1073    2           END;

     1433     1074    1        CALL M$CLRSTK;

   1074  3 000064   010013 713400                    CLIMB   4107
         3 000065   000000 401760                    pmme    nvectors=0

     1434     1075    1        UNWIND TO EL_NO_THRESHOLDING;

   1075  3 000066   000000 237200 xsym               LDAQ  ! EL_NO_THRESHOLDING
         3 000067   000000 700200 xent               TSX0  ! X66_AAUNWIND
         3 000070   000000 000200                    ZERO    0,128
     1435     1076    1   END ELF$EXIT;
PL6.E3A0      #002=ELF$EXIT File=ELF$MAIN.:E05TSI                                TUE 07/29/97 15:19 Page:226
     1436     1077        %EOD;

PL6.E3A0      #002=ELF$EXIT File=ELF$MAIN.:E05TSI                                TUE 07/29/97 15:19 Page:227
--  Include file information  --

   B$ROSEG.:E05TOU  cannot be made into a system file and is referenced.
   CP_6_SUBS.:E05TOU  is referenced.
   NI_SCODE_C.:E05TOU  is referenced.
   CP_6.:E05TOU  cannot be made into a system file and is referenced.
   B$JIT_C.:E05TOU  was found in the system file and is never referenced.
   CP_6_C.:E05TOU  was found in the system file and is referenced.
      No diagnostics issued in procedure ELF$EXIT.
PL6.E3A0      #002=ELF$EXIT File=ELF$MAIN.:E05TSI                                TUE 07/29/97 15:19 Page:228

 **** Variables and constants ****

  ****  Section 001  Data  ELF$EXIT

  ****  Scalars and arrays  ****
OctLoc.c.b A Datatyp(siz) R M Lvl/name                 OctLoc.c.b A Datatyp(siz) R M Lvl/name

    32-0-0/c STRC        r     1 ELF                        0-0-0/d STRC(216)   r     1 ELF_SNAP
    72-0-0/d STRC(1080)  r     1 FPT_CLOSE                 46-0-0/d STRC(504)   r     1 FPT_KEYIN
    12-0-0/d STRC(576)   r     1 FPT_LDTRC                 36-0-0/d STRC(216)   r     1 FPT_WAIT
    64-0-0/d STRC(216)   r     1 FPT_XCON                  44-0-0/d BIT (72)    r     1 KEY_RESULT
    10-0-0/d STRC(72)    r     1 SC_ELF                     6-0-0/w STRC        r     1 VLP_ERRCODE
    33-0-0/c STRC(72)    r     1 VLP_SYS

  ****  Section 002 RoData ELF$EXIT

  ****  Scalars and arrays  ****
OctLoc.c.b A Datatyp(siz) R M Lvl/name                 OctLoc.c.b A Datatyp(siz) R M Lvl/name

     0-0-0/c CHAR(9)     r     1 ABORT_MESS

  ****  Auto variables  ****

  ****  Scalars and arrays  ****
OctLoc.c.b A Datatyp(siz) R M Lvl/name                 OctLoc.c.b A Datatyp(siz) R M Lvl/name

     3-0-0/w UBIN        r     1 I

  ****  SYMREF variables  ****

  ****  Scalars and arrays  ****
OctLoc.c.b A Datatyp(siz) R M Lvl/name                 OctLoc.c.b A Datatyp(siz) R M Lvl/name

     0-0-0/w PTR         r     1 B$ROS$                     0-0-0/d REMB        r     1 EL_NO_THRESHOLDING
     0-0-0/w BIT         r     1 EL_SNAPFLG                 0-0-0/w BIT         r     1 EL_THRESHOLD

  ****  BASED and DCB variables  ****
PL6.E3A0      #002=ELF$EXIT File=ELF$MAIN.:E05TSI                                TUE 07/29/97 15:19 Page:229

  ****  Scalars and arrays  ****
OctLoc.c.b A Datatyp(siz) R M Lvl/name                 OctLoc.c.b A Datatyp(siz) R M Lvl/name

     0-0-0/d STRC(3024)  r     1 B$ROSEG                    0-0-0/d ASTR(3528)  r     1 F$DCB


   Procedure ELF$EXIT requires 57 words for executable code.
   Procedure ELF$EXIT requires 4 words of local(AUTO) storage.
PL6.E3A0      #002=ELF$EXIT File=ELF$MAIN.:E05TSI                                TUE 07/29/97 15:19 Page:230
          *** CROSS REFERENCE LISTING ***
**     DENOTES     IDENTIFIER DEFINITION
<<                 IDENTIFIER'S VALUE SET
>>                 IDENTIFIER'S VALUE USED
<>                 IDENTIFIER SET AND/OR USED
--                 IDENTIFIER REFERENCED
PL6.E3A0      #002=ELF$EXIT File=ELF$MAIN.:E05TSI                                TUE 07/29/97 15:19 Page:231
          MINI XREF LISTING

ABORT_MESS
       973**DCL       987--DCLINIT   988--DCLINIT
B$ROS$
       710**DCL      1063>>DOINDEX
B$ROSEG.NUMDCBS
       660**DCL      1063>>DOINDEX
ELF
       944**DCL       914--DCLINIT
ELF_SNAP
       782**DCL      1058<>CALL
EL_NO_THRESHOLDING
      1053**DCL      1075>>UNWIND
EL_SNAPFLG
      1052**DCL      1062<<ASSIGN
EL_THRESHOLD
      1051**DCL      1055>>IF       1070>>IF
F$DCB.ACTPOS
       744**DCL       744--REDEF
F$DCB.ARS#
       718**DCL       718--REDEF
F$DCB.ATTR
       737**DCL       738--REDEF
F$DCB.BORROW
       752**DCL       752--REDEF     752--REDEF     752--REDEF
F$DCB.DCBNAME.L
       766**DCL       766--IMP-SIZ
F$DCB.EOMCHAR#
       722**DCL       722--REDEF
F$DCB.FCD#
       731**DCL      1065>>IF
F$DCB.FLDID
       747**DCL       747--REDEF
PL6.E3A0      #002=ELF$EXIT File=ELF$MAIN.:E05TSI                                TUE 07/29/97 15:19 Page:232
F$DCB.FORM$
       741**DCL       741--REDEF
F$DCB.FSECT
       757**DCL       757--REDEF
F$DCB.FSN#
       734**DCL       734--REDEF     734--REDEF     735--REDEF
F$DCB.HEADER$
       740**DCL       740--REDEF
F$DCB.IXTNSIZE#
       738**DCL       738--REDEF
F$DCB.LASTSTA$
       727**DCL       727--REDEF
F$DCB.LVL
       753**DCL       753--REDEF
F$DCB.NAME#.C
       728**DCL       728--REDEF
F$DCB.NOEOF
       750**DCL       750--REDEF
F$DCB.NRECS#
       739**DCL       739--REDEF
F$DCB.NRECX
       758**DCL       758--REDEF
F$DCB.OHDR
       750**DCL       750--REDEF
F$DCB.ORG#
       733**DCL       733--REDEF
F$DCB.PRECNO
       756**DCL       756--REDEF
F$DCB.RCSZ
       762**DCL       762--REDEF
F$DCB.RES#
       729**DCL       729--REDEF
F$DCB.SETX
       741**DCL       741--REDEF
F$DCB.TAB$
       741**DCL       741--REDEF
PL6.E3A0      #002=ELF$EXIT File=ELF$MAIN.:E05TSI                                TUE 07/29/97 15:19 Page:233
F$DCB.TDA
       755**DCL       756--REDEF
F$DCB.WSN#
       729**DCL       729--REDEF
FPT_CLOSE
      1032**DCL      1067<>CALL
FPT_CLOSE.SN_
      1032**DCL      1032--REDEF
FPT_CLOSE.UTL_
      1033**DCL      1033--REDEF
FPT_CLOSE.V
      1037**DCL      1032--DCLINIT
FPT_CLOSE.V.DCB#
      1038**DCL      1066<<ASSIGN
FPT_CLOSE.V.EXPIRE#
      1047**DCL      1047--REDEF
FPT_CLOSE.V.TYPE#
      1045**DCL      1045--REDEF
FPT_CLOSE.V.XTNSIZE#
      1042**DCL      1042--REDEF    1044--REDEF
FPT_KEYIN
       987**DCL      1057<>CALL
FPT_KEYIN.V
       990**DCL       987--DCLINIT
FPT_LDTRC
       914**DCL      1072<>CALL
FPT_LDTRC.V
       916**DCL       916--DCLINIT
FPT_WAIT
       970**DCL      1071<>CALL
FPT_WAIT.V
       971**DCL       970--DCLINIT
FPT_XCON
      1006**DCL      1056<>CALL
FPT_XCON.V
      1007**DCL      1006--DCLINIT
PL6.E3A0      #002=ELF$EXIT File=ELF$MAIN.:E05TSI                                TUE 07/29/97 15:19 Page:234
I
       975**DCL      1063<<DOINDEX  1064--IF       1065--IF       1066>>ASSIGN
KEY_RESULT
       974**DCL       990--DCLINIT
L1
      1057**LABEL    1056--CALLALT
L2
      1058**LABEL    1057--CALLALT
L3
      1063**LABEL    1058--CALLALT
L6
      1068**LABEL    1067--CALLALT
M$CLOSE
        17**DCL-ENT  1067--CALL
M$CLRSTK
        75**DCL-ENT  1074--CALL
M$KEYIN
        22**DCL-ENT  1057--CALL
M$LDTRC
        30**DCL-ENT  1072--CALL
M$SCREECH
        31**DCL-ENT  1058--CALL
M$WAIT
        75**DCL-ENT  1071--CALL
M$XCON
        72**DCL-ENT  1056--CALL
SC_ELF
       855**DCL       782--DCLINIT
VLP_ERRCODE
       797**DCL       782--DCLINIT
VLP_SYS
       957**DCL       914--DCLINIT

PL6.E3A0      #003=ELF$CONS_ERR File=ELF$MAIN.:E05TSI                            TUE 07/29/97 15:19 Page:235
     1437        1        /*T***********************************************************/
     1438        2        /*T*                                                         */
     1439        3        /*T* Copyright (c) Bull HN Information Systems Inc., 1997    */
     1440        4        /*T*                                                         */
     1441        5        /*T***********************************************************/
     1442        6        ELF$CONS_ERR: PROC(ERRCODE);
     1443        7        /*D* NAME: ELF$CONS_ERR
     1444        8             CALL: CALL ELF$CONS_ERR(ERRCODE);
     1445        9                    where ERRCODE is optional and is the error code.
     1446       10                    If ERRCODE is missing, the error from the TCB is used.
     1447       11             DESCRIPTION: This procedure puts out a message to the SYS console
     1448       12                    saying 'ELF SEZ: error message' for the error of interest */
     1449       13    1   DCL ERRCODE BIT(36) ALIGNED;
     1450       14        %INCLUDE CP_6;
     1451       95        %INCLUDE OC_MESSHD_C;
     1452      148        %INCLUDE OC_SUBS_C;
     1453      879        %B$TCB;
     1454      882        %B$ALT;
     1455      890    1   DCL B$TCB$ PTR SYMREF;
     1456      891    1   DCL F$CSCG DCB;
     1457      892    1   DCL ERRBUF CHAR(120) STATIC;
     1458      893    1   DCL ERR BIT(36) STATIC;
     1459      894        %FPT_ERRMSG(FPTN = FPT_ERRMSG,STCLASS = STATIC,
     1460      895                CODE = ERR,
     1461      896                BUF = ERRBUF,
     1462      897                RESULTS = VLR_ERRMSG);
     1463      924        %VLR_ERRMSG(FPTN = VLR_ERRMSG,STCLASS = STATIC);
     1464      946        %OC_MESSHD_W(NAME = OCMESSHD,STCLASS = STATIC,
     1465      947                ATR = M_SYS,
     1466      948                MSG = EL_ELFSEZ#,
     1467      949                NPARMS = 1,
     1468      950                FUNC = WR);
     1469      963    1        2 LEN UBIN BYTE UNAL INIT(119),
     1470      964    1             2 BUF CHAR(120);
     1471      965        %FPT_WRITE(FPTN = FPT_WRCSCG,STCLASS = CONSTANT,
     1472      966                DCB = F$CSCG,
     1473      967                BUF = OCMESSHD);
PL6.E3A0      #003=ELF$CONS_ERR File=ELF$MAIN.:E05TSI                            TUE 07/29/97 15:19 Page:236
     1474      998        /**
     1475      999         **
     1476     1000         **/
     1477     1001    1        IF ADDR(ERRCODE)=ADDR(NIL)
     1478     1002    2        THEN DO;                           /* Use the TCB frame                  */
     1479     1003    2             ERR = B$TCB$->B$TCB.ALT$->B$ALT.ERR;
     1480     1004    2             FPT_ERRMSG.V.DCB# = B$TCB$->B$TCB.ALT$->B$ALT.DCB#;
     1481     1005    2           END;
     1482     1006    2        ELSE DO;
     1483     1007    2             ERR = ERRCODE;
     1484     1008    2             FPT_ERRMSG.V.DCB# = DCBNUM(NIL);
     1485     1009    2           END;
     1486     1010    1        CALL M$ERRMSG(FPT_ERRMSG) ALTRET(NO_MSG);
     1487     1011    1        OCMESSHD.BUF = ERRBUF;
     1488     1012    1        CALL M$WRITE(FPT_WRCSCG) ALTRET(NO_MSG);
     1489     1013    1   NO_MSG:
     1490     1014    1        RETURN;
     1491     1015    1   END ELF$CONS_ERR;
     1492     1016        %EOD;

PL6.E3A0      #003=ELF$CONS_ERR File=ELF$MAIN.:E05TSI                            TUE 07/29/97 15:19 Page:237
--  Include file information  --

   OC_SUBS_C.:E05TOU  is referenced.
   OC_MESSHD_C.:E05TOU  is referenced.
   CP_6.:E05TOU  cannot be made into a system file and is referenced.
   B$JIT_C.:E05TOU  was found in the system file and is never referenced.
   CP_6_C.:E05TOU  was found in the system file and is referenced.
      No diagnostics issued in procedure ELF$CONS_ERR.

   Procedure ELF$CONS_ERR requires 30 words for executable code.
   Procedure ELF$CONS_ERR requires 4 words of local(AUTO) storage.

PL6.E3A0      #003=ELF$CONS_ERR File=ELF$MAIN.:E05TSI                            TUE 07/29/97 15:19 Page:238

 Object Unit name= ELF$CONS_ERR                               File name= ELF$MAIN.:E05TOU
 UTS= JUL 29 '97 15:19:32.88 TUE                              Compiler= PL-6/E31         Sev=      00
 SharedLib= :SHARED_SYSTEM                                    Alt SharedLib=


    ****  Control sections  ****

 Sect   Type Bound  Init  Size OctSiz  Section name(segment info)
    0   DCB   even  none     0      0  M$UC
    1   DCB   even  none     0      0  F$CSCG
    2   Data  even  none    98    142  ELF$CONS_ERR
    3  RoData even  UTS     12     14  ELF$CONS_ERR
    4   Proc  even  none    30     36  ELF$CONS_ERR

    ****  Entry defs  ****

                              Check   Calling
                             calling  sequence
  Sect OctLoc Primary Altret sequence   type   Parms  Name
     4      0   yes            yes      Std        1  ELF$CONS_ERR

  ****  Entry refs  ****

         Check        Calling
        calling       sequence
Altret sequence SRef   type   Args  Name
                       nStd      0 X66_AUTO_1
                       Std       0 B_CONSPOOL_D
                       nStd      0 X66_ARET

  ****  Data refs  ****

  Flags:  r = read only, s = secondary
Flgs Name                             Flgs Name                             Flgs Name
     M$UC                                  B$TCB$                                F$CSCG
     B_VECTNIL
PL6.E3A0      #003=ELF$CONS_ERR File=ELF$MAIN.:E05TSI                            TUE 07/29/97 15:19 Page:239

  ****  Segment refs  ****

  Flags:  r = read only, s = secondary
Flgs Name                             Flgs Name                             Flgs Name
     ISSID                                 NULLSID
PL6.E3A0      #003=ELF$CONS_ERR File=ELF$MAIN.:E05TSI                            TUE 07/29/97 15:19 Page:240


     1437        1        /*T***********************************************************/
     1438        2        /*T*                                                         */
     1439        3        /*T* Copyright (c) Bull HN Information Systems Inc., 1997    */
     1440        4        /*T*                                                         */
     1441        5        /*T***********************************************************/
     1442        6        ELF$CONS_ERR: PROC(ERRCODE);

      6  4 000000   000000 700200 xent  ELF$CONS_ERR TSX0  ! X66_AUTO_1
         4 000001   000004 000001                    ZERO    4,1

     1443        7        /*D* NAME: ELF$CONS_ERR
     1444        8             CALL: CALL ELF$CONS_ERR(ERRCODE);
     1445        9                    where ERRCODE is optional and is the error code.
     1446       10                    If ERRCODE is missing, the error from the TCB is used.
     1447       11             DESCRIPTION: This procedure puts out a message to the SYS console
     1448       12                    saying 'ELF SEZ: error message' for the error of interest */
     1449       13    1   DCL ERRCODE BIT(36) ALIGNED;
     1450       14        %INCLUDE CP_6;
     1451       95        %INCLUDE OC_MESSHD_C;
     1452      148        %INCLUDE OC_SUBS_C;
     1453      879        %B$TCB;
     1454      882        %B$ALT;
     1455      890    1   DCL B$TCB$ PTR SYMREF;
     1456      891    1   DCL F$CSCG DCB;
     1457      892    1   DCL ERRBUF CHAR(120) STATIC;
     1458      893    1   DCL ERR BIT(36) STATIC;
     1459      894        %FPT_ERRMSG(FPTN = FPT_ERRMSG,STCLASS = STATIC,
     1460      895                CODE = ERR,
     1461      896                BUF = ERRBUF,
     1462      897                RESULTS = VLR_ERRMSG);
     1463      924        %VLR_ERRMSG(FPTN = VLR_ERRMSG,STCLASS = STATIC);
     1464      946        %OC_MESSHD_W(NAME = OCMESSHD,STCLASS = STATIC,
     1465      947                ATR = M_SYS,
     1466      948                MSG = EL_ELFSEZ#,
     1467      949                NPARMS = 1,
     1468      950                FUNC = WR);
PL6.E3A0      #003=ELF$CONS_ERR File=ELF$MAIN.:E05TSI                            TUE 07/29/97 15:19 Page:241
     1469      963    1        2 LEN UBIN BYTE UNAL INIT(119),
     1470      964    1             2 BUF CHAR(120);
     1471      965        %FPT_WRITE(FPTN = FPT_WRCSCG,STCLASS = CONSTANT,
     1472      966                DCB = F$CSCG,
     1473      967                BUF = OCMESSHD);
     1474      998        /**
     1475      999         **
     1476     1000         **/
     1477     1001    1        IF ADDR(ERRCODE)=ADDR(NIL)

   1001  4 000002   200003 236100                    LDQ     @ERRCODE,,AUTO
         4 000003   000001 116000 xsym               CMPQ    B_VECTNIL+1
         4 000004   000015 601000 4                  TNZ     s:1007

     1478     1002    2        THEN DO;                           /* Use the TCB frame                  */

     1479     1003    2             ERR = B$TCB$->B$TCB.ALT$->B$ALT.ERR;

   1003  4 000005   000000 470400 xsym               LDP0    B$TCB$
         4 000006   000000 471500                    LDP1    0,,PR0
         4 000007   100102 236100                    LDQ     66,,PR1
         4 000010   000036 756000 2                  STQ     ERR

     1480     1004    2             FPT_ERRMSG.V.DCB# = B$TCB$->B$TCB.ALT$->B$ALT.DCB#;

   1004  4 000011   000000 471500                    LDP1    0,,PR0
         4 000012   100101 720100                    LXL0    65,,PR1
         4 000013   000066 740000 2                  STX0    FPT_ERRMSG+22

     1481     1005    2           END;

   1005  4 000014   000022 710000 4                  TRA     s:1010

     1482     1006    2        ELSE DO;

     1483     1007    2             ERR = ERRCODE;

PL6.E3A0      #003=ELF$CONS_ERR File=ELF$MAIN.:E05TSI                            TUE 07/29/97 15:19 Page:242
   1007  4 000015   200003 470500                    LDP0    @ERRCODE,,AUTO
         4 000016   000000 236100                    LDQ     0,,PR0
         4 000017   000036 756000 2                  STQ     ERR

     1484     1008    2             FPT_ERRMSG.V.DCB# = DCBNUM(NIL);

   1008  4 000020   000000 220003                    LDX0    0,DU
         4 000021   000066 740000 2                  STX0    FPT_ERRMSG+22

     1485     1009    2           END;

     1486     1010    1        CALL M$ERRMSG(FPT_ERRMSG) ALTRET(NO_MSG);

   1010  4 000022   000040 630400 2                  EPPR0   FPT_ERRMSG
         4 000023   420000 713400                    CLIMB   alt,+8192
         4 000024   405000 401760                    pmme    nvectors=11
         4 000025   000035 702000 4                  TSX2    NO_MSG

     1487     1011    1        OCMESSHD.BUF = ERRBUF;

   1011  4 000026   040000 100400                    MLR     fill='040'O
         4 000027   000000 000170 2                  ADSC9   ERRBUF                   cn=0,n=120
         4 000030   000103 200170 2                  ADSC9   OCMESSHD+5               cn=1,n=120

     1488     1012    1        CALL M$WRITE(FPT_WRCSCG) ALTRET(NO_MSG);

   1012  4 000031   000000 630400 3                  EPPR0   FPT_WRCSCG
         4 000032   440001 713400                    CLIMB   alt,write
         4 000033   401400 401760                    pmme    nvectors=4
         4 000034   000035 702000 4                  TSX2    NO_MSG

     1489     1013    1   NO_MSG:
     1490     1014    1        RETURN;

   1014  4 000035   000000 702200 xent  NO_MSG       TSX2  ! X66_ARET
     1491     1015    1   END ELF$CONS_ERR;
     1492     1016        %EOD;
PL6.E3A0      #003=ELF$CONS_ERR File=ELF$MAIN.:E05TSI                            TUE 07/29/97 15:19 Page:243

PL6.E3A0      #003=ELF$CONS_ERR File=ELF$MAIN.:E05TSI                            TUE 07/29/97 15:19 Page:244
--  Include file information  --

   OC_SUBS_C.:E05TOU  is referenced.
   OC_MESSHD_C.:E05TOU  is referenced.
   CP_6.:E05TOU  cannot be made into a system file and is referenced.
   B$JIT_C.:E05TOU  was found in the system file and is never referenced.
   CP_6_C.:E05TOU  was found in the system file and is referenced.
      No diagnostics issued in procedure ELF$CONS_ERR.
PL6.E3A0      #003=ELF$CONS_ERR File=ELF$MAIN.:E05TSI                            TUE 07/29/97 15:19 Page:245

 **** Variables and constants ****

  ****  Section 002  Data  ELF$CONS_ERR

  ****  Scalars and arrays  ****
OctLoc.c.b A Datatyp(siz) R M Lvl/name                 OctLoc.c.b A Datatyp(siz) R M Lvl/name

    36-0-0/b BIT         r     1 ERR                        0-0-0/c CHAR(120)   r     1 ERRBUF
    40-0-0/d STRC(936)   r     1 FPT_ERRMSG                76-0-0/c STRC(1269)  r     1 OCMESSHD
    72-0-0/d STRC(144)   r     1 VLR_ERRMSG

  ****  Section 003 RoData ELF$CONS_ERR

  ****  Scalars and arrays  ****
OctLoc.c.b A Datatyp(siz) R M Lvl/name                 OctLoc.c.b A Datatyp(siz) R M Lvl/name

     0-0-0/d STRC(432)   r     1 FPT_WRCSCG

  ****  Auto variables  ****

  ****  Scalars and arrays  ****
OctLoc.c.b A Datatyp(siz) R M Lvl/name                 OctLoc.c.b A Datatyp(siz) R M Lvl/name

     3-0-0/w PTR         r     1 @ERRCODE                  *0-0-0/w BIT         r     1 ERRCODE

  ****  SYMREF variables  ****

  ****  Scalars and arrays  ****
OctLoc.c.b A Datatyp(siz) R M Lvl/name                 OctLoc.c.b A Datatyp(siz) R M Lvl/name

     0-0-0/w PTR         r     1 B$TCB$

  ****  BASED and DCB variables  ****

  ****  Scalars and arrays  ****
OctLoc.c.b A Datatyp(siz) R M Lvl/name                 OctLoc.c.b A Datatyp(siz) R M Lvl/name

PL6.E3A0      #003=ELF$CONS_ERR File=ELF$MAIN.:E05TSI                            TUE 07/29/97 15:19 Page:246
     0-0-0/w STRC(2448)  r     1 B$ALT                      0-0-0/w STRC(144)   r     1 B$TCB
     0-0-0N  NULL        r     1 F$CSCG


   Procedure ELF$CONS_ERR requires 30 words for executable code.
   Procedure ELF$CONS_ERR requires 4 words of local(AUTO) storage.
PL6.E3A0      #003=ELF$CONS_ERR File=ELF$MAIN.:E05TSI                            TUE 07/29/97 15:19 Page:247
          *** CROSS REFERENCE LISTING ***
**     DENOTES     IDENTIFIER DEFINITION
<<                 IDENTIFIER'S VALUE SET
>>                 IDENTIFIER'S VALUE USED
<>                 IDENTIFIER SET AND/OR USED
--                 IDENTIFIER REFERENCED
PL6.E3A0      #003=ELF$CONS_ERR File=ELF$MAIN.:E05TSI                            TUE 07/29/97 15:19 Page:248
          MINI XREF LISTING

B$ALT.CODE
       884**DCL       884--REDEF     885--REDEF     885--REDEF
B$ALT.DCB#
       885**DCL      1004>>ASSIGN
B$ALT.ERR
       885**DCL      1003>>ASSIGN
B$ALT.ERR.ERR#
       886**DCL       886--REDEF
B$ALT.EVID
       885**DCL       885--REDEF     885--REDEF
B$TCB.ALT$
       880**DCL      1003>>ASSIGN   1004>>ASSIGN
B$TCB$
       890**DCL      1003>>ASSIGN   1004>>ASSIGN
ERR
       893**DCL       908--DCLINIT  1003<<ASSIGN   1007<<ASSIGN
ERRBUF
       892**DCL       909--DCLINIT  1011>>ASSIGN
ERRCODE
        13**DCL         6--PROC     1001--IF       1007>>ASSIGN
FPT_ERRMSG
       908**DCL      1010<>CALL
FPT_ERRMSG.V
       912**DCL       908--DCLINIT
FPT_ERRMSG.V.DCB#
       912**DCL      1004<<ASSIGN   1008<<ASSIGN
FPT_WRCSCG
       984**DCL      1012<>CALL
FPT_WRCSCG.STATION_
       986**DCL       986--REDEF
FPT_WRCSCG.V
       987**DCL       984--DCLINIT
PL6.E3A0      #003=ELF$CONS_ERR File=ELF$MAIN.:E05TSI                            TUE 07/29/97 15:19 Page:249
FPT_WRCSCG.V.DVBYTE.VFC#
       993**DCL       993--REDEF
M$ERRMSG
        86**DCL-ENT  1010--CALL
M$WRITE
        24**DCL-ENT  1012--CALL
NO_MSG
      1014**LABEL    1010--CALLALT  1012--CALLALT
OCMESSHD
       951**DCL       985--DCLINIT   986--DCLINIT
OCMESSHD.BUF
       964**DCL      1011<<ASSIGN
OCMESSHD.FLAGS
       958**DCL       959--REDEF
OCMESSHD.MSGID
       954**DCL       955--REDEF
VLR_ERRMSG
       935**DCL       912--DCLINIT

PL6.E3A0      #004=ELF$EVENT File=ELF$MAIN.:E05TSI                               TUE 07/29/97 15:19 Page:250
     1493        1        /*T***********************************************************/
     1494        2        /*T*                                                         */
     1495        3        /*T* Copyright (c) Bull HN Information Systems Inc., 1997    */
     1496        4        /*T*                                                         */
     1497        5        /*T***********************************************************/
     1498        6        ELF$EVENT: PROC ASYNC;
     1499        7        /*D* NAME: ELF$EVENT
     1500        8             CALL: Asynchronous entry set up via an M$EVENT call.
     1501        9             DESCRIPTION: Handles events for ELF. These include:
     1502       10                    1) No-wait IO complete event on CSCG
     1503       11        */
     1504       12        %INCLUDE CP_6;
     1505       93    1   DCL CGREAD_ERR BIT(36) SYMREF;
     1506       94    1   DCL NWIO_TYC BIT(36) SYMREF;
     1507       95    1   DCL CGREAD_STATE UBIN SYMREF;
     1508       96    1   DCL EL_POLL_IN_PROGRESS BIT(1) ALIGNED SYMREF;
     1509       97    1   DCL B$TCB$ PTR SYMREF;
     1510       98        %B$TCB;
     1511      101        %B$NWIO;
     1512      186        /**
     1513      187         **
     1514      188         **/
     1515      189    1        IF B$TCB$ -> B$TCB.STK$ -> B$NWIO.EVID = 99
     1516      190    2        THEN DO;
     1517      191    2             EL_POLL_IN_PROGRESS = '0'B;
     1518      192    2             NWIO_TYC = B$TCB$ -> B$TCB.STK$ -> B$NWIO.TYC;
     1519      193    2             RETURN;
     1520      194    2           END;
     1521      195    1        IF B$TCB$->B$TCB.STK$->B$NWIO.ERR.CODE=0
     1522      196    1        THEN
     1523      197    1             CGREAD_STATE = 2;             /* Read complete                      */
     1524      198    2        ELSE DO;
     1525      199    2             CGREAD_STATE = 3;             /* Read error                         */
     1526      200    2             CGREAD_ERR = B$TCB$->B$TCB.STK$->B$NWIO.ERR;
     1527      201    2           END;
     1528      202    1        RETURN;
     1529      203    1   END ELF$EVENT;
PL6.E3A0      #004=ELF$EVENT File=ELF$MAIN.:E05TSI                               TUE 07/29/97 15:19 Page:251

PL6.E3A0      #004=ELF$EVENT File=ELF$MAIN.:E05TSI                               TUE 07/29/97 15:19 Page:252
--  Include file information  --

   CP_6.:E05TOU  cannot be made into a system file and is referenced.
   B$JIT_C.:E05TOU  was found in the system file and is never referenced.
   CP_6_C.:E05TOU  was found in the system file and is referenced.
      No diagnostics issued in procedure ELF$EVENT.

   Procedure ELF$EVENT requires 21 words for executable code.
   Procedure ELF$EVENT requires 4 words of local(AUTO) storage.

    No errors detected in file ELF$MAIN.:E05TSI    .

PL6.E3A0      #004=ELF$EVENT File=ELF$MAIN.:E05TSI                               TUE 07/29/97 15:19 Page:253

 Object Unit name= ELF$EVENT                                  File name= ELF$MAIN.:E05TOU
 UTS= JUL 29 '97 15:19:39.40 TUE                              Compiler= PL-6/E31         Sev=      00
 SharedLib= :SHARED_SYSTEM                                    Alt SharedLib=


    ****  Control sections  ****

 Sect   Type Bound  Init  Size OctSiz  Section name(segment info)
    0   DCB   even  none     0      0  M$UC
    1   Proc  even  none    21     25  ELF$EVENT

    ****  Entry defs  ****

                              Check   Calling
                             calling  sequence
  Sect OctLoc Primary Altret sequence   type   Parms  Name
     1      0   yes            yes     Async       0  ELF$EVENT

  ****  Entry refs  ****

         Check        Calling
        calling       sequence
Altret sequence SRef   type   Args  Name
                       nStd      0 X66_AAUTO
                       nStd      0 X66_AARET

  ****  Data refs  ****

  Flags:  r = read only, s = secondary
Flgs Name                             Flgs Name                             Flgs Name
     M$UC                                  CGREAD_ERR                            NWIO_TYC
     CGREAD_STATE                          EL_POLL_IN_PROGRESS                   B$TCB$
PL6.E3A0      #004=ELF$EVENT File=ELF$MAIN.:E05TSI                               TUE 07/29/97 15:19 Page:254


     1493        1        /*T***********************************************************/
     1494        2        /*T*                                                         */
     1495        3        /*T* Copyright (c) Bull HN Information Systems Inc., 1997    */
     1496        4        /*T*                                                         */
     1497        5        /*T***********************************************************/
     1498        6        ELF$EVENT: PROC ASYNC;

      6  1 000000   000000 700200 xent  ELF$EVENT    TSX0  ! X66_AAUTO
         1 000001   000004 000000                    ZERO    4,0

     1499        7        /*D* NAME: ELF$EVENT
     1500        8             CALL: Asynchronous entry set up via an M$EVENT call.
     1501        9             DESCRIPTION: Handles events for ELF. These include:
     1502       10                    1) No-wait IO complete event on CSCG
     1503       11        */
     1504       12        %INCLUDE CP_6;
     1505       93    1   DCL CGREAD_ERR BIT(36) SYMREF;
     1506       94    1   DCL NWIO_TYC BIT(36) SYMREF;
     1507       95    1   DCL CGREAD_STATE UBIN SYMREF;
     1508       96    1   DCL EL_POLL_IN_PROGRESS BIT(1) ALIGNED SYMREF;
     1509       97    1   DCL B$TCB$ PTR SYMREF;
     1510       98        %B$TCB;
     1511      101        %B$NWIO;
     1512      186        /**
     1513      187         **
     1514      188         **/
     1515      189    1        IF B$TCB$ -> B$TCB.STK$ -> B$NWIO.EVID = 99

    189  1 000002   000000 470400 xsym               LDP0    B$TCB$
         1 000003   000001 471500                    LDP1    1,,PR0
         1 000004   100101 235100                    LDA     65,,PR1
         1 000005   000143 115007                    CMPA    99,DL
         1 000006   000013 601000 1                  TNZ     s:195

     1516      190    2        THEN DO;

PL6.E3A0      #004=ELF$EVENT File=ELF$MAIN.:E05TSI                               TUE 07/29/97 15:19 Page:255
     1517      191    2             EL_POLL_IN_PROGRESS = '0'B;

    191  1 000007   000000 450000 xsym               STZ     EL_POLL_IN_PROGRESS

     1518      192    2             NWIO_TYC = B$TCB$ -> B$TCB.STK$ -> B$NWIO.TYC;

    192  1 000010   100104 236100                    LDQ     68,,PR1
         1 000011   000000 756000 xsym               STQ     NWIO_TYC

     1519      193    2             RETURN;

    193  1 000012   000000 702200 xent               TSX2  ! X66_AARET

     1520      194    2           END;
     1521      195    1        IF B$TCB$->B$TCB.STK$->B$NWIO.ERR.CODE=0

    195  1 000013   100102 236100                    LDQ     66,,PR1
         1 000014   377770 316007                    CANQ    131064,DL
         1 000015   000021 601000 1                  TNZ     s:199

     1522      196    1        THEN
     1523      197    1             CGREAD_STATE = 2;             /* Read complete                      */

    197  1 000016   000002 235007                    LDA     2,DL
         1 000017   000000 755000 xsym               STA     CGREAD_STATE
         1 000020   000024 710000 1                  TRA     s:202

     1524      198    2        ELSE DO;

     1525      199    2             CGREAD_STATE = 3;             /* Read error                         */

    199  1 000021   000003 235007                    LDA     3,DL
         1 000022   000000 755000 xsym               STA     CGREAD_STATE

     1526      200    2             CGREAD_ERR = B$TCB$->B$TCB.STK$->B$NWIO.ERR;

    200  1 000023   000000 756000 xsym               STQ     CGREAD_ERR
PL6.E3A0      #004=ELF$EVENT File=ELF$MAIN.:E05TSI                               TUE 07/29/97 15:19 Page:256

     1527      201    2           END;

     1528      202    1        RETURN;

    202  1 000024   000000 702200 xent               TSX2  ! X66_AARET
     1529      203    1   END ELF$EVENT;

PL6.E3A0      #004=ELF$EVENT File=ELF$MAIN.:E05TSI                               TUE 07/29/97 15:19 Page:257
--  Include file information  --

   CP_6.:E05TOU  cannot be made into a system file and is referenced.
   B$JIT_C.:E05TOU  was found in the system file and is never referenced.
   CP_6_C.:E05TOU  was found in the system file and is referenced.
      No diagnostics issued in procedure ELF$EVENT.
PL6.E3A0      #004=ELF$EVENT File=ELF$MAIN.:E05TSI                               TUE 07/29/97 15:19 Page:258

 **** Variables and constants ****

  ****  SYMREF variables  ****

  ****  Scalars and arrays  ****
OctLoc.c.b A Datatyp(siz) R M Lvl/name                 OctLoc.c.b A Datatyp(siz) R M Lvl/name

     0-0-0/w PTR         r     1 B$TCB$                     0-0-0/b BIT         r     1 CGREAD_ERR
     0-0-0/w UBIN        r     1 CGREAD_STATE               0-0-0/w BIT         r     1 EL_POLL_IN_PROGRESS
     0-0-0/b BIT         r     1 NWIO_TYC

  ****  BASED and DCB variables  ****

  ****  Scalars and arrays  ****
OctLoc.c.b A Datatyp(siz) R M Lvl/name                 OctLoc.c.b A Datatyp(siz) R M Lvl/name

     0-0-0/w STRC(2880)  r     1 B$NWIO                     0-0-0/w STRC(144)   r     1 B$TCB


   Procedure ELF$EVENT requires 21 words for executable code.
   Procedure ELF$EVENT requires 4 words of local(AUTO) storage.

    No errors detected in file ELF$MAIN.:E05TSI    .
PL6.E3A0      #004=ELF$EVENT File=ELF$MAIN.:E05TSI                               TUE 07/29/97 15:19 Page:259
          *** CROSS REFERENCE LISTING ***
**     DENOTES     IDENTIFIER DEFINITION
<<                 IDENTIFIER'S VALUE SET
>>                 IDENTIFIER'S VALUE USED
<>                 IDENTIFIER SET AND/OR USED
--                 IDENTIFIER REFERENCED
PL6.E3A0      #004=ELF$EVENT File=ELF$MAIN.:E05TSI                               TUE 07/29/97 15:19 Page:260
          MINI XREF LISTING

B$NWIO.CGPARM.MSGIDXT
       135**DCL       138--REDEF
B$NWIO.CODE
       104**DCL       104--REDEF     105--REDEF     105--REDEF
B$NWIO.ERR
       105**DCL       200>>ASSIGN
B$NWIO.ERR.CODE
       106**DCL       195>>IF
B$NWIO.ERR.ERR#
       106**DCL       106--REDEF
B$NWIO.EVID
       105**DCL       105--REDEF     105--REDEF     189>>IF
B$NWIO.TYC
       111**DCL       192>>ASSIGN
B$TCB.STK$
        99**DCL       189>>IF        192>>ASSIGN    195>>IF        200>>ASSIGN
B$TCB$
        97**DCL       189>>IF        192>>ASSIGN    195>>IF        200>>ASSIGN
CGREAD_ERR
        93**DCL       200<<ASSIGN
CGREAD_STATE
        95**DCL       197<<ASSIGN    199<<ASSIGN
EL_POLL_IN_PROGRESS
        96**DCL       191<<ASSIGN
NWIO_TYC
        94**DCL       192<<ASSIGN
