VERSION E05

PL6.E3A0      #001=EMR$FEP2HOST File=EMR$L6ERRS.:E05TSI                          TUE 07/29/97 15:22 Page:1
        1        1        /*T***********************************************************/
        2        2        /*T*                                                         */
        3        3        /*T* Copyright (c) Bull HN Information Systems Inc., 1997    */
        4        4        /*T*                                                         */
        5        5        /*T***********************************************************/
        6        6        /*P*    NAME: EMR$L6ERRS
        7        7
        8        8                PURPOSE:  To convert an LCP-6 error message to CP-6 format
        9        9                          or the other way around.
       10       10        */
       11       11
       12       12        EMR$FEP2HOST: PROC(LCP6_ERR,CP6_ERR);
       13       13
       14       14    1   DCL 1 LCP6_ERR ALIGNED,
       15       15    1         2 F1,
       16       16    1            3 * BIT (1),
       17       17    1            3 PART1 BIT (5),
       18       18    1         2 F2,
       19       19    1            3 PART1 BIT (3),
       20       20    1            3 * BIT (1),
       21       21    1            3 PART2 BIT (2),
       22       22    1         2 MID BIT (5),
       23       23    1         2 M BIT (1),
       24       24    1         2 * BIT (1),
       25       25    1         2 ERR#,
       26       26    1            3 PART1 BIT (8),
       27       27    1            3 * BIT (1),
       28       28    1            3 PART2 BIT (5),
       29       29    1         2 SEV BIT (3);
       30       30
       31       31    1   DCL 1 CP6_ERR ALIGNED,
       32       32    1         2 F1,
       33       33    1            3 * BIT (1),
       34       34    1            3 PART1 BIT (5),
       35       35    1         2 F2,
       36       36    1            3 * BIT (1),
       37       37    1            3 PART1 BIT (3),
PL6.E3A0      #001=EMR$FEP2HOST File=EMR$L6ERRS.:E05TSI                          TUE 07/29/97 15:22 Page:2
       38       38    1            3 PART2 BIT (2),
       39       39    1         2 MID,
       40       40    1            3 * BIT (1),
       41       41    1            3 PART1 BIT (5),
       42       42    1         2 M BIT (1),
       43       43    1         2 ERR#,
       44       44    1            3 * BIT (1),
       45       45    1            3 PART1 BIT (8),
       46       46    1            3 PART2 BIT (5),
       47       47    1         2 SEV BIT (3);
       48       48
       49       49        %EJECT;
PL6.E3A0      #001=EMR$FEP2HOST File=EMR$L6ERRS.:E05TSI                          TUE 07/29/97 15:22 Page:3
       50       50        /*F*    NAME: EMR$FEP2HOST
       51       51
       52       52                PURPOSE: To convert LCP-6 error code words to CP-6 format.
       53       53
       54       54                CALL:   CALL EMR$FEP2HOST(LCP6_ERR,CP6_ERR);
       55       55
       56       56        */
       57       57        /**/
       58       58    1   EMR$L6ERRS:  ;  /* used to be the PROC name, so kept the label here */
       59       59        /**/
       60       60
       61       61    1      CP6_ERR = '0'B;
       62       62    1      CP6_ERR.F1.PART1   = LCP6_ERR.F1.PART1;
       63       63    1      CP6_ERR.F2.PART1   = LCP6_ERR.F2.PART1;
       64       64    1      CP6_ERR.F2.PART2   = LCP6_ERR.F2.PART2;
       65       65    1      CP6_ERR.MID.PART1  = LCP6_ERR.MID;
       66       66    1      CP6_ERR.M          = LCP6_ERR.M;
       67       67    1      CP6_ERR.ERR#.PART1 = LCP6_ERR.ERR#.PART1;
       68       68    1      CP6_ERR.ERR#.PART2 = LCP6_ERR.ERR#.PART2;
       69       69    1      CP6_ERR.SEV        = LCP6_ERR.SEV;
       70       70
       71       71    1      RETURN;
       72       72
       73       73
       74       74        %EJECT;
PL6.E3A0      #001=EMR$FEP2HOST File=EMR$L6ERRS.:E05TSI                          TUE 07/29/97 15:22 Page:4
       75       75        /*F*    NAME: EMR$HOST2FEP
       76       76
       77       77                PURPOSE: To convert CP-6 error code words to LCP-6 format.
       78       78
       79       79                CALL:   CALL EMR$HOST2FEP(LCP6_ERR,CP6_ERR);
       80       80
       81       81        */
       82       82    1   EMR$HOST2FEP: ENTRY(LCP6_ERR,CP6_ERR);
       83       83
       84       84    1      LCP6_ERR = '0'B;
       85       85    1      LCP6_ERR.F1.PART1   = CP6_ERR.F1.PART1;
       86       86    1      LCP6_ERR.F2.PART1   = CP6_ERR.F2.PART1;
       87       87    1      LCP6_ERR.F2.PART2   = CP6_ERR.F2.PART2;
       88       88    1      LCP6_ERR.MID        = CP6_ERR.MID.PART1;
       89       89    1      LCP6_ERR.M          = CP6_ERR.M;
       90       90    1      LCP6_ERR.ERR#.PART1 = CP6_ERR.ERR#.PART1;
       91       91    1      LCP6_ERR.ERR#.PART2 = CP6_ERR.ERR#.PART2;
       92       92    1      LCP6_ERR.SEV        = CP6_ERR.SEV;
       93       93
       94       94    1      RETURN;
       95       95
       96       96    1   END EMR$FEP2HOST;

PL6.E3A0      #001=EMR$FEP2HOST File=EMR$L6ERRS.:E05TSI                          TUE 07/29/97 15:22 Page:5
      No diagnostics issued in procedure EMR$FEP2HOST.

   Procedure EMR$FEP2HOST requires 84 words for executable code.
   Procedure EMR$FEP2HOST requires 6 words of local(AUTO) storage.

    No errors detected in file EMR$L6ERRS.:E05TSI    .

PL6.E3A0      #001=EMR$FEP2HOST File=EMR$L6ERRS.:E05TSI                          TUE 07/29/97 15:22 Page:6

 Object Unit name= EMR$FEP2HOST                               File name= EMR$L6ERRS.:E05TOU
 UTS= JUL 29 '97 15:22:49.72 TUE                              Compiler= PL-6/E31         Sev=      00
 SharedLib= :SHARED_SYSTEM                                    Alt SharedLib=


    ****  Control sections  ****

 Sect   Type Bound  Init  Size OctSiz  Section name(segment info)
    0   Proc  even  none    84    124  EMR$FEP2HOST

    ****  Entry defs  ****

                              Check   Calling
                             calling  sequence
  Sect OctLoc Primary Altret sequence   type   Parms  Name
     0      0   yes            yes      Std        2  EMR$FEP2HOST
     0     52                  yes      Std        2  EMR$HOST2FEP

  ****  Entry refs  ****

         Check        Calling
        calling       sequence
Altret sequence SRef   type   Args  Name
                       nStd      0 X66_AUTO_2
                       nStd      0 X66_ARET
PL6.E3A0      #001=EMR$FEP2HOST File=EMR$L6ERRS.:E05TSI                          TUE 07/29/97 15:22 Page:7


        1        1        /*T***********************************************************/
        2        2        /*T*                                                         */
        3        3        /*T* Copyright (c) Bull HN Information Systems Inc., 1997    */
        4        4        /*T*                                                         */
        5        5        /*T***********************************************************/
        6        6        /*P*    NAME: EMR$L6ERRS
        7        7
        8        8                PURPOSE:  To convert an LCP-6 error message to CP-6 format
        9        9                          or the other way around.
       10       10        */
       11       11
       12       12        EMR$FEP2HOST: PROC(LCP6_ERR,CP6_ERR);

     12  0 000000   000000 700200 xent  EMR$FEP2HOST TSX0  ! X66_AUTO_2
         0 000001   000006 000002                    ZERO    6,2

       13       13
       14       14    1   DCL 1 LCP6_ERR ALIGNED,
       15       15    1         2 F1,
       16       16    1            3 * BIT (1),
       17       17    1            3 PART1 BIT (5),
       18       18    1         2 F2,
       19       19    1            3 PART1 BIT (3),
       20       20    1            3 * BIT (1),
       21       21    1            3 PART2 BIT (2),
       22       22    1         2 MID BIT (5),
       23       23    1         2 M BIT (1),
       24       24    1         2 * BIT (1),
       25       25    1         2 ERR#,
       26       26    1            3 PART1 BIT (8),
       27       27    1            3 * BIT (1),
       28       28    1            3 PART2 BIT (5),
       29       29    1         2 SEV BIT (3);
       30       30
       31       31    1   DCL 1 CP6_ERR ALIGNED,
       32       32    1         2 F1,
PL6.E3A0      #001=EMR$FEP2HOST File=EMR$L6ERRS.:E05TSI                          TUE 07/29/97 15:22 Page:8
       33       33    1            3 * BIT (1),
       34       34    1            3 PART1 BIT (5),
       35       35    1         2 F2,
       36       36    1            3 * BIT (1),
       37       37    1            3 PART1 BIT (3),
       38       38    1            3 PART2 BIT (2),
       39       39    1         2 MID,
       40       40    1            3 * BIT (1),

     40  0 000002                       EMR$L6ERRS   null
       41       41    1            3 PART1 BIT (5),
       42       42    1         2 M BIT (1),
       43       43    1         2 ERR#,
       44       44    1            3 * BIT (1),
       45       45    1            3 PART1 BIT (8),
       46       46    1            3 PART2 BIT (5),
       47       47    1         2 SEV BIT (3);
       48       48
       49       49        %EJECT;
PL6.E3A0      #001=EMR$FEP2HOST File=EMR$L6ERRS.:E05TSI                          TUE 07/29/97 15:22 Page:9
       50       50        /*F*    NAME: EMR$FEP2HOST
       51       51
       52       52                PURPOSE: To convert LCP-6 error code words to CP-6 format.
       53       53
       54       54                CALL:   CALL EMR$FEP2HOST(LCP6_ERR,CP6_ERR);
       55       55
       56       56        */
       57       57        /**/
       58       58    1   EMR$L6ERRS:  ;  /* used to be the PROC name, so kept the label here */
       59       59        /**/
       60       60
       61       61    1      CP6_ERR = '0'B;

     61  0 000002   200004 470500                    LDP0    @CP6_ERR,,AUTO
         0 000003   000000 450100                    STZ     0,,PR0

       62       62    1      CP6_ERR.F1.PART1   = LCP6_ERR.F1.PART1;

     62  0 000004   200003 471500                    LDP1    @LCP6_ERR,,AUTO
         0 000005   100000 236100                    LDQ     0,,PR1
         0 000006   000000 676100                    ERQ     0,,PR0
         0 000007   370000 376003                    ANQ     126976,DU
         0 000010   000000 656100                    ERSQ    0,,PR0

       63       63    1      CP6_ERR.F2.PART1   = LCP6_ERR.F2.PART1;

     63  0 000011   100000 236100                    LDQ     0,,PR1
         0 000012   000001 772000                    QRL     1
         0 000013   000000 676100                    ERQ     0,,PR0
         0 000014   003400 376003                    ANQ     1792,DU
         0 000015   000000 656100                    ERSQ    0,,PR0

       64       64    1      CP6_ERR.F2.PART2   = LCP6_ERR.F2.PART2;

     64  0 000016   100000 236100                    LDQ     0,,PR1
         0 000017   000000 676100                    ERQ     0,,PR0
         0 000020   000300 376003                    ANQ     192,DU
PL6.E3A0      #001=EMR$FEP2HOST File=EMR$L6ERRS.:E05TSI                          TUE 07/29/97 15:22 Page:10
         0 000021   000000 656100                    ERSQ    0,,PR0

       65       65    1      CP6_ERR.MID.PART1  = LCP6_ERR.MID;

     65  0 000022   100000 236100                    LDQ     0,,PR1
         0 000023   000001 772000                    QRL     1
         0 000024   000000 676100                    ERQ     0,,PR0
         0 000025   000037 376003                    ANQ     31,DU
         0 000026   000000 656100                    ERSQ    0,,PR0

       66       66    1      CP6_ERR.M          = LCP6_ERR.M;

     66  0 000027   100000 236100                    LDQ     0,,PR1
         0 000030   000001 772000                    QRL     1
         0 000031   000000 676100                    ERQ     0,,PR0
         0 000032   400000 376007                    ANQ     -131072,DL
         0 000033   000000 656100                    ERSQ    0,,PR0

       67       67    1      CP6_ERR.ERR#.PART1 = LCP6_ERR.ERR#.PART1;

     67  0 000034   100000 236100                    LDQ     0,,PR1
         0 000035   000001 772000                    QRL     1
         0 000036   000000 676100                    ERQ     0,,PR0
         0 000037   177400 376007                    ANQ     65280,DL
         0 000040   000000 656100                    ERSQ    0,,PR0

       68       68    1      CP6_ERR.ERR#.PART2 = LCP6_ERR.ERR#.PART2;

     68  0 000041   100000 236100                    LDQ     0,,PR1
         0 000042   000000 676100                    ERQ     0,,PR0
         0 000043   000370 376007                    ANQ     248,DL
         0 000044   000000 656100                    ERSQ    0,,PR0

       69       69    1      CP6_ERR.SEV        = LCP6_ERR.SEV;

     69  0 000045   100000 236100                    LDQ     0,,PR1
         0 000046   000000 676100                    ERQ     0,,PR0
PL6.E3A0      #001=EMR$FEP2HOST File=EMR$L6ERRS.:E05TSI                          TUE 07/29/97 15:22 Page:11
         0 000047   000007 376007                    ANQ     7,DL
         0 000050   000000 656100                    ERSQ    0,,PR0

       70       70
       71       71    1      RETURN;

     71  0 000051   000000 702200 xent               TSX2  ! X66_ARET

       72       72
       73       73
       74       74        %EJECT;
PL6.E3A0      #001=EMR$FEP2HOST File=EMR$L6ERRS.:E05TSI                          TUE 07/29/97 15:22 Page:12
       75       75        /*F*    NAME: EMR$HOST2FEP
       76       76
       77       77                PURPOSE: To convert CP-6 error code words to LCP-6 format.
       78       78
       79       79                CALL:   CALL EMR$HOST2FEP(LCP6_ERR,CP6_ERR);
       80       80
       81       81        */
       82       82    1   EMR$HOST2FEP: ENTRY(LCP6_ERR,CP6_ERR);

     82  0 000052   000000 700200 xent  EMR$HOST2FEP TSX0  ! X66_AUTO_2
         0 000053   000006 000002                    ZERO    6,2

       83       83
       84       84    1      LCP6_ERR = '0'B;

     84  0 000054   200003 470500                    LDP0    @LCP6_ERR,,AUTO
         0 000055   000000 450100                    STZ     0,,PR0

       85       85    1      LCP6_ERR.F1.PART1   = CP6_ERR.F1.PART1;

     85  0 000056   200004 471500                    LDP1    @CP6_ERR,,AUTO
         0 000057   100000 236100                    LDQ     0,,PR1
         0 000060   000000 676100                    ERQ     0,,PR0
         0 000061   370000 376003                    ANQ     126976,DU
         0 000062   000000 656100                    ERSQ    0,,PR0

       86       86    1      LCP6_ERR.F2.PART1   = CP6_ERR.F2.PART1;

     86  0 000063   100000 236100                    LDQ     0,,PR1
         0 000064   000001 736000                    QLS     1
         0 000065   000000 676100                    ERQ     0,,PR0
         0 000066   007000 376003                    ANQ     3584,DU
         0 000067   000000 656100                    ERSQ    0,,PR0

       87       87    1      LCP6_ERR.F2.PART2   = CP6_ERR.F2.PART2;

     87  0 000070   100000 236100                    LDQ     0,,PR1
PL6.E3A0      #001=EMR$FEP2HOST File=EMR$L6ERRS.:E05TSI                          TUE 07/29/97 15:22 Page:13
         0 000071   000000 676100                    ERQ     0,,PR0
         0 000072   000300 376003                    ANQ     192,DU
         0 000073   000000 656100                    ERSQ    0,,PR0

       88       88    1      LCP6_ERR.MID        = CP6_ERR.MID.PART1;

     88  0 000074   100000 236100                    LDQ     0,,PR1
         0 000075   000001 736000                    QLS     1
         0 000076   000000 676100                    ERQ     0,,PR0
         0 000077   000076 376003                    ANQ     62,DU
         0 000100   000000 656100                    ERSQ    0,,PR0

       89       89    1      LCP6_ERR.M          = CP6_ERR.M;

     89  0 000101   100000 236100                    LDQ     0,,PR1
         0 000102   000001 736000                    QLS     1
         0 000103   000000 676100                    ERQ     0,,PR0
         0 000104   000001 376003                    ANQ     1,DU
         0 000105   000000 656100                    ERSQ    0,,PR0

       90       90    1      LCP6_ERR.ERR#.PART1 = CP6_ERR.ERR#.PART1;

     90  0 000106   100000 236100                    LDQ     0,,PR1
         0 000107   000001 736000                    QLS     1
         0 000110   000000 676100                    ERQ     0,,PR0
         0 000111   377000 376007                    ANQ     130560,DL
         0 000112   000000 656100                    ERSQ    0,,PR0

       91       91    1      LCP6_ERR.ERR#.PART2 = CP6_ERR.ERR#.PART2;

     91  0 000113   100000 236100                    LDQ     0,,PR1
         0 000114   000000 676100                    ERQ     0,,PR0
         0 000115   000370 376007                    ANQ     248,DL
         0 000116   000000 656100                    ERSQ    0,,PR0

       92       92    1      LCP6_ERR.SEV        = CP6_ERR.SEV;

PL6.E3A0      #001=EMR$FEP2HOST File=EMR$L6ERRS.:E05TSI                          TUE 07/29/97 15:22 Page:14
     92  0 000117   100000 236100                    LDQ     0,,PR1
         0 000120   000000 676100                    ERQ     0,,PR0
         0 000121   000007 376007                    ANQ     7,DL
         0 000122   000000 656100                    ERSQ    0,,PR0

       93       93
       94       94    1      RETURN;

     94  0 000123   000000 702200 xent               TSX2  ! X66_ARET
       95       95
       96       96    1   END EMR$FEP2HOST;

PL6.E3A0      #001=EMR$FEP2HOST File=EMR$L6ERRS.:E05TSI                          TUE 07/29/97 15:22 Page:15
      No diagnostics issued in procedure EMR$FEP2HOST.
PL6.E3A0      #001=EMR$FEP2HOST File=EMR$L6ERRS.:E05TSI                          TUE 07/29/97 15:22 Page:16

 **** Variables and constants ****

  ****  Auto variables  ****

  ****  Scalars and arrays  ****
OctLoc.c.b A Datatyp(siz) R M Lvl/name                 OctLoc.c.b A Datatyp(siz) R M Lvl/name

     4-0-0/w PTR         r     1 @CP6_ERR                   3-0-0/w PTR         r     1 @LCP6_ERR
    *0-0-0/w STRC        r     1 CP6_ERR                   *0-0-0/w STRC        r     1 LCP6_ERR


   Procedure EMR$FEP2HOST requires 84 words for executable code.
   Procedure EMR$FEP2HOST requires 6 words of local(AUTO) storage.

    No errors detected in file EMR$L6ERRS.:E05TSI    .
PL6.E3A0      #001=EMR$FEP2HOST File=EMR$L6ERRS.:E05TSI                          TUE 07/29/97 15:22 Page:17
          *** CROSS REFERENCE LISTING ***
**     DENOTES     IDENTIFIER DEFINITION
<<                 IDENTIFIER'S VALUE SET
>>                 IDENTIFIER'S VALUE USED
<>                 IDENTIFIER SET AND/OR USED
--                 IDENTIFIER REFERENCED
PL6.E3A0      #001=EMR$FEP2HOST File=EMR$L6ERRS.:E05TSI                          TUE 07/29/97 15:22 Page:18
          MINI XREF LISTING

CP6_ERR
        31**DCL        12--PROC       61<<ASSIGN     82--ENTRY
CP6_ERR.ERR#.PART1
        45**DCL        67<<ASSIGN     90>>ASSIGN
CP6_ERR.ERR#.PART2
        46**DCL        68<<ASSIGN     91>>ASSIGN
CP6_ERR.F1.PART1
        34**DCL        62<<ASSIGN     85>>ASSIGN
CP6_ERR.F2.PART1
        37**DCL        63<<ASSIGN     86>>ASSIGN
CP6_ERR.F2.PART2
        38**DCL        64<<ASSIGN     87>>ASSIGN
CP6_ERR.M
        42**DCL        66<<ASSIGN     89>>ASSIGN
CP6_ERR.MID.PART1
        41**DCL        65<<ASSIGN     88>>ASSIGN
CP6_ERR.SEV
        47**DCL        69<<ASSIGN     92>>ASSIGN
LCP6_ERR
        14**DCL        12--PROC       82--ENTRY      84<<ASSIGN
LCP6_ERR.ERR#.PART1
        26**DCL        67>>ASSIGN     90<<ASSIGN
LCP6_ERR.ERR#.PART2
        28**DCL        68>>ASSIGN     91<<ASSIGN
LCP6_ERR.F1.PART1
        17**DCL        62>>ASSIGN     85<<ASSIGN
LCP6_ERR.F2.PART1
        19**DCL        63>>ASSIGN     86<<ASSIGN
LCP6_ERR.F2.PART2
        21**DCL        64>>ASSIGN     87<<ASSIGN
LCP6_ERR.M
        23**DCL        66>>ASSIGN     89<<ASSIGN
PL6.E3A0      #001=EMR$FEP2HOST File=EMR$L6ERRS.:E05TSI                          TUE 07/29/97 15:22 Page:19
LCP6_ERR.MID
        22**DCL        65>>ASSIGN     88<<ASSIGN
LCP6_ERR.SEV
        29**DCL        69>>ASSIGN     92<<ASSIGN
