VERSION E05

PL6.E3A0      #001=FGG$START File=FGG$DMY.:E05TSI                                TUE 07/29/97 15:24 Page:1
        1        1        /*M* FGG$DMY - Dummy GAC routine for GHOST1 */
        2        2        /*T***********************************************************/
        3        3        /*T*                                                         */
        4        4        /*T* Copyright (c) Bull HN Information Systems Inc., 1997    */
        5        5        /*T*                                                         */
        6        6        /*T***********************************************************/
        7        7        /*X*/
        8        8        /**/
        9        9        FGG$START: PROC(ARG1,ARG2) ALTRET;
       10       10    1   DCL ARG1 UBIN;
       11       11    1   DCL ARG2 UBIN;
       12       12    1           RETURN;
       13       13        /**/
       14       14    1   FGG$PROCESS_FIT: ENTRY(ARG1) ALTRET;
       15       15    1           RETURN;
       16       16        /**/
       17       17    1   END FGG$START;

PL6.E3A0      #001=FGG$START File=FGG$DMY.:E05TSI                                TUE 07/29/97 15:24 Page:2
      No diagnostics issued in procedure FGG$START.

   Procedure FGG$START requires 6 words for executable code.
   Procedure FGG$START requires 6 words of local(AUTO) storage.

    No errors detected in file FGG$DMY.:E05TSI    .

PL6.E3A0      #001=FGG$START File=FGG$DMY.:E05TSI                                TUE 07/29/97 15:24 Page:3

 Object Unit name= FGG$START                                  File name= FGG$DMY.:E05TOU
 UTS= JUL 29 '97 15:24:26.16 TUE                              Compiler= PL-6/E31         Sev=      00
 SharedLib= :SHARED_SYSTEM                                    Alt SharedLib=


    ****  Control sections  ****

 Sect   Type Bound  Init  Size OctSiz  Section name(segment info)
    0   Proc  even  none     6      6  FGG$START

    ****  Entry defs  ****

                              Check   Calling
                             calling  sequence
  Sect OctLoc Primary Altret sequence   type   Parms  Name
     0      0   yes    yes     yes      Std        2  FGG$START
     0      3          yes     yes      Std        1  FGG$PROCESS_FIT

  ****  Entry refs  ****

         Check        Calling
        calling       sequence
Altret sequence SRef   type   Args  Name
                       nStd      0 X66_AUTO_2
                       nStd      0 X66_ARET
PL6.E3A0      #001=FGG$START File=FGG$DMY.:E05TSI                                TUE 07/29/97 15:24 Page:4


        1        1        /*M* FGG$DMY - Dummy GAC routine for GHOST1 */
        2        2        /*T***********************************************************/
        3        3        /*T*                                                         */
        4        4        /*T* Copyright (c) Bull HN Information Systems Inc., 1997    */
        5        5        /*T*                                                         */
        6        6        /*T***********************************************************/
        7        7        /*X*/
        8        8        /**/
        9        9        FGG$START: PROC(ARG1,ARG2) ALTRET;

      9  0 000000   000000 700200 xent  FGG$START    TSX0  ! X66_AUTO_2
         0 000001   000006 000002                    ZERO    6,2

       10       10    1   DCL ARG1 UBIN;
       11       11    1   DCL ARG2 UBIN;
       12       12    1           RETURN;

     12  0 000002   000000 702200 xent               TSX2  ! X66_ARET

       13       13        /**/
       14       14    1   FGG$PROCESS_FIT: ENTRY(ARG1) ALTRET;

     14  0 000003   000000 700200 xent  FGG$PROCESS* TSX0  ! X66_AUTO_2
         0 000004   000006 000002                    ZERO    6,2

       15       15    1           RETURN;

     15  0 000005   000000 702200 xent               TSX2  ! X66_ARET
       16       16        /**/
       17       17    1   END FGG$START;

PL6.E3A0      #001=FGG$START File=FGG$DMY.:E05TSI                                TUE 07/29/97 15:24 Page:5
      No diagnostics issued in procedure FGG$START.
PL6.E3A0      #001=FGG$START File=FGG$DMY.:E05TSI                                TUE 07/29/97 15:24 Page:6

 **** Variables and constants ****

  ****  Auto variables  ****

  ****  Scalars and arrays  ****
OctLoc.c.b A Datatyp(siz) R M Lvl/name                 OctLoc.c.b A Datatyp(siz) R M Lvl/name

     3-0-0/w PTR         r     1 @ARG1                      4-0-0/w PTR         r     1 @ARG2
    *0-0-0/w UBIN        r     1 ARG1                      *0-0-0/w UBIN        r     1 ARG2


   Procedure FGG$START requires 6 words for executable code.
   Procedure FGG$START requires 6 words of local(AUTO) storage.

    No errors detected in file FGG$DMY.:E05TSI    .
PL6.E3A0      #001=FGG$START File=FGG$DMY.:E05TSI                                TUE 07/29/97 15:24 Page:7
          *** CROSS REFERENCE LISTING ***
**     DENOTES     IDENTIFIER DEFINITION
<<                 IDENTIFIER'S VALUE SET
>>                 IDENTIFIER'S VALUE USED
<>                 IDENTIFIER SET AND/OR USED
--                 IDENTIFIER REFERENCED
PL6.E3A0      #001=FGG$START File=FGG$DMY.:E05TSI                                TUE 07/29/97 15:24 Page:8
          MINI XREF LISTING

ARG1
        10**DCL         9--PROC       14--ENTRY
ARG2
        11**DCL         9--PROC
PL6.E3A0      #001=FGG$START File=FGG$DMY.:E05TSI                                TUE 07/29/97 15:24 Page:9
              *** CROSS REFERENCE LISTING ***
    **     DENOTES     IDENTIFIER DEFINITION
    <<                 IDENTIFIER'S VALUE SET
    >>                 IDENTIFIER'S VALUE USED
    <>                 IDENTIFIER SET AND/OR USED
    --                 IDENTIFIER REFERENCED
PL6.E3A0      #001=FGG$START File=FGG$DMY.:E05TSI                                TUE 07/29/97 15:24 Page:10
              MINI UREF LISTING

FGG$PROCESS_FIT      14**ENTRY
FGG$START       9**PROC
