VERSION E05

 15:25 07/29/97  FILE=FGH$SUBR.:E05TSI                                                                   1    BMAP - B00
                                         1  *M*  FGH$SUBR - GMAP subroutines for FGG$GAC
                                         2  *T***********************************************************
                                         3  *T*                                                         *
                                         4  *T* Copyright (c) Bull HN Information Systems Inc., 1997    *
                                         5  *T*                                                         *
                                         6  *T***********************************************************
                                         7  *
                                         8  *P*      NAME:     FGH$SUBR
                                         9  *,*      PURPOSE:  Provide GMAP subroutines for FGG$GAC
                                        10  *
                                        11  *F*      NAME:     FGH$UPDBUCKET
                                        12  *,*      PURPOSE:  Do the necessary floating-point conversions,
                                        13  *,*                multiplications and additions for FGG$GAC
                                        14  *,*      DESCRIPTION:  Converts the time and number of granules to
                                        15  *,*                floating point, multiplies them together, adds in
                                        16  *,*                the previous storage integral, then adds the result
                                        17  *,*                to the appropriate bucket in the account log entry.
                                        18  *
                                        19  *D*      NAME:     FGH$UPDBUCKET
                                        20  *,*      CALL:     CALL FGH$UPDBUCKET(BUCKET,OLDINT,TIME,NGRANS);
                                        21  *,*      INPUT:    BUCKET - Accounting bucket to add this item to
                                        22  *,*                OLDINT - Previous storage integral to add in
                                        23  *,*                TIME - Time for this interval
                                        24  *,*                NGRANS - Number of granules for this interval
                                        25  *,*      OUTPUT:   BUCKET - Gets updated value
                                        26  *,*                $IND - Indicator register gets master mode, oflow mask and
                                        27  *,*                       hex floating point set
                                        28  *,*      DESCRIPTION:  Converts TIME and NGRANS to floating point.
                                        29  *,*        Performs:
                                        30  *,*          BUCKET=BUCKET+OLDINTEGRAL+(FLOAT(TIME)*FLOAT(NGRANS));
                                        31  *
                                        32  *
                                        33  *
                                        34           ENTDEF    FGH$UPDBUCKET
                                        35           ENTREF    X66_AUTO_N
                                        36           ENTREF    X66_ARET
                                        37  *
 15:25 07/29/97  FILE=FGH$SUBR.:E05TSI                                                                   2    BMAP - B00
             000000000003               38  BUCKET   EQU       3
             000000000004               39  OLDINT   EQU       4
             000000000005               40  TIME     EQU       5
             000000000006               41  NGRANS   EQU       6
             000000000007               42  TMP      EQU       7
                                        43  *
 0 000000                               44  FGH$UPDBUCKET  NULL
   000000  X 000000 7000 00             45           TSX0      X66_AUTO_N
   000001    000010 0000 14             46           ARG       8,4
                                        47  *
   000002    004210 6340 07             48           LDI       =O004210,DL   Set hex flt. pt, mstr mode, oflow mask
   000003    2 00005 4715 00            49           LDP1      TIME,,2
   000004    1 00000 2351 00            50           LDA       0,,1
   000005 (0)000021 7000 00             51           TSX0      FLOAT     CONVERT TIME TO FLOATING-PT
   000006    2 00007 4701 00            52           FSTR      TMP,,2    STORE ROUNDED
                                        53  *
   000007    2 00006 4715 00            54           LDP1      NGRANS,,2
   000010    1 00000 2351 00            55           LDA       0,,1
   000011 (0)000021 7000 00             56           TSX0      FLOAT     CONVERT # GRANULES TO FLOATING-PT
                                        57  *
   000012    2 00007 4611 00            58           FMP       TMP,,2    NGRANS*TIME
   000013    2 00004 4715 00            59           LDP1      OLDINT,,2
   000014    1 00000 4751 00            60           FAD       0,,1      PLUS OLD INTEGRAL
   000015    2 00003 4715 00            61           LDP1      BUCKET,,2
   000016    1 00000 4751 00            62           FAD       0,,1      PLUS PREVIOUS ACCOUNTED
   000017    1 00000 4701 00            63           FSTR      0,,1      STORE ROUNDED
   000020  X 000000 7100 00             64           TRA       X66_ARET
                                        65  *
   000021    000000 2360 07             66  FLOAT    LDQ       0,DL
   000022    000001 7330 00             67           LRS       1
   000023    022000 4110 03             68           LDE       9*1024,DU
   000024    400000 4750 03             69           FAD       =O400000,DU
   000025    000000 7100 10             70           TRA       0,X0
                                        71  *
                                        72           END

  CONTROL SECTION TABLE
 15:25 07/29/97  FILE=FGH$SUBR.:E05TSI                                                                   3    BMAP - B00

   0 CODE   EVEN  000026
   1 RODATA EVEN  000000 LITERALS

 15:25 07/29/97  FILE=FGH$SUBR.:E05TSI        SYMBOL TABLE                                               4    BMAP - B00
 41000000 000000000003 BUCKET         *38        61
 12101000 000000000000 FGH$UPDBUCKET   34       *44
 01101000 000000000021 FLOAT           51        56       *66
 41000000 000000000006 NGRANS         *41        54
 41000000 000000000004 OLDINT         *39        59
 41000000 000000000005 TIME           *40        49
 41000000 000000000007 TMP            *42        52        58
 03201001 000000000000 X66_ARET       *36        64
 03201000 000000000000 X66_AUTO_N     *35        45

       9 SYMBOLS

       0 MACROS

    SYMBOL SPACE USED   107 WORDS
     MACRO SPACE USED     0 WORDS
   INPUT RECORDS READ   144
 STATEMENTS PROCESSED    39
         ELAPSED TIME  0:00.80
             CPU TIME     0.54 SEC.
        ASSEMBLY RATE  4333 STATEMENTS/CPU MIN.

      NO ERRORS

