VERSION E05

PL6.E3A0      #001=FI_DATA_D File=FI_DATA_D.:E05TSI                              TUE 07/29/97 15:28 Page:1
        1        1        /*M* FI_DATA_D SYMDEFed data for the INSYM ghost */
        2        2        /*T***********************************************************/
        3        3        /*T*                                                         */
        4        4        /*T* Copyright (c) Bull HN Information Systems Inc., 1997    */
        5        5        /*T*                                                         */
        6        6        /*T***********************************************************/
        7        7        /*X* DMC,PLM=4,IND=0,SDI=2,CTI=0,ENU=0,AND,DCI=4,CSU=2,ECU=4,THI=0,DTI=2 */
        8        8        /**/
        9        9        FI_DATA_D: PROC NOAUTO;
       10       10        /**/
       11       11        /**/
       12       12        %INCLUDE FI_SUBS_C;
       13      114        %INCLUDE FOO_MAC_C;
       14      862        %INCLUDE FI_MAC_C;
       15     1232        %INCLUDE CP_6;
       16     1313        %INCLUDE JG_EVID_C;
       17     1538    1   DCL M$CSCG DCB;
       18     1539        %FI_DEV (FPTN=FI$DEV,STCLASS=BASED);
       19     1583        /**/
       20     1584        /**/
       21     1585    1   DCL FI_PATCH (0:255) UBIN WORD STATIC SYMDEF ALIGNED INIT(0*0);
       22     1586    1   DCL FI_CSCGBUF CHAR(140) STATIC SYMDEF DALIGNED INIT(' ');
       23     1587    1   DCL FI_ISCGBUF CHAR(1024) STATIC SYMDEF DALIGNED INIT(' ');
       24     1588        %FI_APLMSG (FPTN=FI_APLCGBUF,STCLASS="STATIC SYMDEF");
       25     1618        %FO_SCB                                (FPTN=FI_DEVSCB,
       26     1619                 SEG       = FISN_DEV#,
       27     1620                 FSIZ      ="SIZEW(FI$DEV)",
       28     1621                 MAP       = NO,
       29     1622                 NPG       = 1,
       30     1623                 STCLASS   ="STATIC SYMDEF");
       31     1653    1   DCL FI_EVHD$ PTR STATIC SYMDEF ALIGNED INIT(ADDR(NIL));
       32     1654    1   DCL FI_EVTL$ PTR STATIC SYMDEF ALIGNED INIT(ADDR(NIL));
       33     1655    1   DCL FI_FEVHD$ PTR STATIC SYMDEF ALIGNED INIT(ADDR(FI_EVQ(0)));
       34     1656    1   DCL FI_FEVTL$ PTR STATIC SYMDEF ALIGNED INIT(ADDR(FI_EVQ(FIMI_EVMX#)));
       35     1657    1   DCL FI_DEVHD$ PTR STATIC SYMDEF ALIGNED INIT(ADDR(NIL));
       36     1658    1   DCL FI_EVNT$ PTR STATIC SYMDEF ALIGNED INIT(ADDR(NIL));
       37     1659        %FI_DEV                                (FPTN=FI_DEV_INIT,
PL6.E3A0      #001=FI_DATA_D File=FI_DATA_D.:E05TSI                              TUE 07/29/97 15:28 Page:2
       38     1660                 STCLASS   ="CONSTANT SYMDEF");
       39     1704        /**/
       40     1705        /**/
       41     1706        %FI_EVNT                               (FPTN="FI_EVQ(0:FIMI_EVMX#)",
       42     1707                 STCLASS   ="STATIC SYMDEF");
       43     1770        %FI_CITE (FPTN=FI_ISRD,TYP=CGRD,STCLASS="STATIC SYMDEF");
       44     1814        %FI_CITE (FPTN=FI_APLRD,TYP=CGRD,STCLASS="STATIC SYMDEF");
       45     1858        /**/
       46     1859        %VLP_ACCT     (FPTN=FI_SYSACCT,
       47     1860                 ACCT      = ':SYS',
       48     1861                 STCLASS   ="CONSTANT SYMDEF");
       49     1874        /**/
       50     1875        /**/
       51     1876    1   END FI_DATA_D;
       52     1877        /**/
       53     1878        /**/

PL6.E3A0      #001=FI_DATA_D File=FI_DATA_D.:E05TSI                              TUE 07/29/97 15:28 Page:3
--  Include file information  --

   JG_EVID_C.:E05TOU  is referenced.
   CP_6.:E05TOU  cannot be made into a system file and is referenced.
   FI_MAC_C.:E05TOU  is referenced.
   FOO_MAC_C.:E05TOU  is referenced.
   FI_SUBS_C.:E05TOU  is referenced.
   B$JIT_C.:E05TOU  was found in the system file and is never referenced.
   CP_6_C.:E05TOU  was found in the system file and is referenced.
      No diagnostics issued in procedure FI_DATA_D.

   No code generated for procedure FI_DATA_D .
   Procedure FI_DATA_D is declared NOAUTO and requires 680 words of local(STATIC) storage.

    No errors detected in file FI_DATA_D.:E05TSI    .

PL6.E3A0      #001=FI_DATA_D File=FI_DATA_D.:E05TSI                              TUE 07/29/97 15:28 Page:4

 Object Unit name= FI_DATA_D                                  File name= FI_DATA_D.:E05TOU
 UTS= JUL 29 '97 15:28:14.36 TUE                              Compiler= PL-6/E31         Sev=      00
 SharedLib= :SHARED_SYSTEM                                    Alt SharedLib=


    ****  Control sections  ****

 Sect   Type Bound  Init  Size OctSiz  Section name(segment info)
    0   Data  even  none   680   1250  FI_DATA_D
    1   DCB   even  none     0      0  M$UC
    2   DCB   even  none     0      0  M$CSCG
    3  RoData even  UTS     82    122  FI_DATA_D
    4   Proc  even  none     0      0  FI_DATA_D

    ****  Entry defs  ****

                              Check   Calling
                             calling  sequence
  Sect OctLoc Primary Altret sequence   type   Parms  Name
     4      0   yes            yes     ~proc       0  FI_DATA_D
PL6.E3A0      #001=FI_DATA_D File=FI_DATA_D.:E05TSI                              TUE 07/29/97 15:28 Page:5

  ****  Data defs  ****

 Sect OctLoc  Name                           Sect OctLoc  Name
    0      1  FI_PATCH                           0    402  FI_CSCGBUF
    0    446  FI_ISCGBUF                         0   1046  FI_APLCGBUF
    0   1111  FI_DEVSCB                          0   1121  FI_EVHD$
    0   1122  FI_EVTL$                           0   1123  FI_FEVHD$
    0   1124  FI_FEVTL$                          0   1125  FI_DEVHD$
    0   1126  FI_EVNT$                           3      0  FI_DEV_INIT
    0   1127  FI_EVQ                             0   1231  FI_ISRD
    0   1240  FI_APLRD                           3    120  FI_SYSACCT

  ****  Data refs  ****

  Flags:  r = read only, s = secondary
Flgs Name                             Flgs Name                             Flgs Name
     M$UC                                  M$CSCG

  ****  Segment refs  ****

  Flags:  r = read only, s = secondary
Flgs Name                             Flgs Name                             Flgs Name
     NULLSID                               ISSID
PL6.E3A0      #001=FI_DATA_D File=FI_DATA_D.:E05TSI                              TUE 07/29/97 15:28 Page:6

        1        1        /*M* FI_DATA_D SYMDEFed data for the INSYM ghost */
        2        2        /*T***********************************************************/
        3        3        /*T*                                                         */
        4        4        /*T* Copyright (c) Bull HN Information Systems Inc., 1997    */
        5        5        /*T*                                                         */
        6        6        /*T***********************************************************/
        7        7        /*X* DMC,PLM=4,IND=0,SDI=2,CTI=0,ENU=0,AND,DCI=4,CSU=2,ECU=4,THI=0,DTI=2 */
        8        8        /**/
        9        9        FI_DATA_D: PROC NOAUTO;
       10       10        /**/
       11       11        /**/
       12       12        %INCLUDE FI_SUBS_C;
       13      114        %INCLUDE FOO_MAC_C;
       14      862        %INCLUDE FI_MAC_C;
       15     1232        %INCLUDE CP_6;
       16     1313        %INCLUDE JG_EVID_C;
       17     1538    1   DCL M$CSCG DCB;
       18     1539        %FI_DEV (FPTN=FI$DEV,STCLASS=BASED);
       19     1583        /**/
       20     1584        /**/
       21     1585    1   DCL FI_PATCH (0:255) UBIN WORD STATIC SYMDEF ALIGNED INIT(0*0);
       22     1586    1   DCL FI_CSCGBUF CHAR(140) STATIC SYMDEF DALIGNED INIT(' ');
       23     1587    1   DCL FI_ISCGBUF CHAR(1024) STATIC SYMDEF DALIGNED INIT(' ');
       24     1588        %FI_APLMSG (FPTN=FI_APLCGBUF,STCLASS="STATIC SYMDEF");
       25     1618        %FO_SCB                                (FPTN=FI_DEVSCB,
       26     1619                 SEG       = FISN_DEV#,
       27     1620                 FSIZ      ="SIZEW(FI$DEV)",
       28     1621                 MAP       = NO,
       29     1622                 NPG       = 1,
       30     1623                 STCLASS   ="STATIC SYMDEF");
       31     1653    1   DCL FI_EVHD$ PTR STATIC SYMDEF ALIGNED INIT(ADDR(NIL));
       32     1654    1   DCL FI_EVTL$ PTR STATIC SYMDEF ALIGNED INIT(ADDR(NIL));
       33     1655    1   DCL FI_FEVHD$ PTR STATIC SYMDEF ALIGNED INIT(ADDR(FI_EVQ(0)));
       34     1656    1   DCL FI_FEVTL$ PTR STATIC SYMDEF ALIGNED INIT(ADDR(FI_EVQ(FIMI_EVMX#)));
       35     1657    1   DCL FI_DEVHD$ PTR STATIC SYMDEF ALIGNED INIT(ADDR(NIL));
       36     1658    1   DCL FI_EVNT$ PTR STATIC SYMDEF ALIGNED INIT(ADDR(NIL));
       37     1659        %FI_DEV                                (FPTN=FI_DEV_INIT,
PL6.E3A0      #001=FI_DATA_D File=FI_DATA_D.:E05TSI                              TUE 07/29/97 15:28 Page:7
       38     1660                 STCLASS   ="CONSTANT SYMDEF");
       39     1704        /**/
       40     1705        /**/
       41     1706        %FI_EVNT                               (FPTN="FI_EVQ(0:FIMI_EVMX#)",
       42     1707                 STCLASS   ="STATIC SYMDEF");
       43     1770        %FI_CITE (FPTN=FI_ISRD,TYP=CGRD,STCLASS="STATIC SYMDEF");
       44     1814        %FI_CITE (FPTN=FI_APLRD,TYP=CGRD,STCLASS="STATIC SYMDEF");
       45     1858        /**/
       46     1859        %VLP_ACCT     (FPTN=FI_SYSACCT,
       47     1860                 ACCT      = ':SYS',
       48     1861                 STCLASS   ="CONSTANT SYMDEF");
       49     1874        /**/
       50     1875        /**/
       51     1876    1   END FI_DATA_D;
       52     1877        /**/
       53     1878        /**/

PL6.E3A0      #001=FI_DATA_D File=FI_DATA_D.:E05TSI                              TUE 07/29/97 15:28 Page:8
--  Include file information  --

   JG_EVID_C.:E05TOU  is referenced.
   CP_6.:E05TOU  cannot be made into a system file and is referenced.
   FI_MAC_C.:E05TOU  is referenced.
   FOO_MAC_C.:E05TOU  is referenced.
   FI_SUBS_C.:E05TOU  is referenced.
   B$JIT_C.:E05TOU  was found in the system file and is never referenced.
   CP_6_C.:E05TOU  was found in the system file and is referenced.
      No diagnostics issued in procedure FI_DATA_D.
PL6.E3A0      #001=FI_DATA_D File=FI_DATA_D.:E05TSI                              TUE 07/29/97 15:28 Page:9

 **** Variables and constants ****

  ****  Section 000  Data  FI_DATA_D

  ****  Scalars and arrays  ****
OctLoc.c.b A Datatyp(siz) R M Lvl/name                 OctLoc.c.b A Datatyp(siz) R M Lvl/name

  1127-0-0/w STRC(216)   r     1 FI_EVQ(0:10)

  ****  BASED and DCB variables  ****

  ****  Scalars and arrays  ****
OctLoc.c.b A Datatyp(siz) R M Lvl/name                 OctLoc.c.b A Datatyp(siz) R M Lvl/name

     0-0-0/d STRC(2826)  r     1 FI$DEV


   No code generated for procedure FI_DATA_D .
   Procedure FI_DATA_D is declared NOAUTO and requires 680 words of local(STATIC) storage.

    No errors detected in file FI_DATA_D.:E05TSI    .
PL6.E3A0      #001=FI_DATA_D File=FI_DATA_D.:E05TSI                              TUE 07/29/97 15:28 Page:10
          *** CROSS REFERENCE LISTING ***
**     DENOTES     IDENTIFIER DEFINITION
<<                 IDENTIFIER'S VALUE SET
>>                 IDENTIFIER'S VALUE USED
<>                 IDENTIFIER SET AND/OR USED
--                 IDENTIFIER REFERENCED
PL6.E3A0      #001=FI_DATA_D File=FI_DATA_D.:E05TSI                              TUE 07/29/97 15:28 Page:11
          MINI XREF LISTING

FI$DEV
      1552**DCL      1637--DCLINIT
FI$DEV.DEST
      1579**DCL      1580--REDEF
FI$DEV.NAME
      1554**DCL      1555--REDEF
FI_APLCGBUF.INAME
      1604**DCL      1605--REDEF
FI_APLCGBUF.PARTNER1
      1608**DCL      1609--REDEF
FI_APLCGBUF.PARTNER2
      1612**DCL      1613--REDEF
FI_DEV_INIT.DEST
      1700**DCL      1701--REDEF
FI_DEV_INIT.NAME
      1675**DCL      1676--REDEF
FI_EVQ
      1720**DCL      1655--DCLINIT  1656--DCLINIT
