VERSION E05

PL6.E3A0      #001=FJE$ERRORS File=FJE$ERRORS.:E05TSI                            TUE 07/29/97 15:28 Page:1
        1        1        /*M* Define errors returned by JAYS on journal and congroup opens     */
        2        2        /*T***********************************************************/
        3        3        /*T*                                                         */
        4        4        /*T* Copyright (c) Bull HN Information Systems Inc., 1997    */
        5        5        /*T*                                                         */
        6        6        /*T***********************************************************/
        7        7
        8        8        FJE$ERRORS: PROC;
        9        9
       10       10        /*   The following errors are detected by JAYS in the process
       11       11             of opening a journal in response to an M$OPEN of a comgroup
       12       12             or journal by a user and are returned to the user with the
       13       13             ALTRETURN on his M$OPEN.                                         */
       14       14
       15       15        /*E*    ERROR: FJJ-E$NOSN-E
       16       16                MESSAGE: No serial number for journal.
       17       17                MESSAGE1: Serial numbers must be specified for tape journals.
       18       18                                                                              */
       19       19        /*E*    ERROR: FJJ-E$ASNERR-E
       20       20                MESSAGE: Incorrect journal ASN.
       21       21                MESSAGE1: The journal ASN is not the same as that specified
       22       22                          when the journal was created.
       23       23                                                                              */
       24       24        /*E*    ERROR: FJJ-E$JRNLCLSD-E
       25       25                MESSAGE: Attempt to open journal% %UF% after owner closed.
       26       26                MESSAGE1: Other users are still open to the journal.
       27       27        */
       28       28        /*E*    ERROR: FJJ-E$JRNLSTAR-E
       29       29                MESSAGE: JAYS can't journal on your * file.
       30       30                MESSAGE1: JAYS can't open Star file journal in your account.
       31       31        */
       32       32    1   END;

PL6.E3A0      #001=FJE$ERRORS File=FJE$ERRORS.:E05TSI                            TUE 07/29/97 15:28 Page:2
      No diagnostics issued in procedure FJE$ERRORS.

   No code generated for procedure FJE$ERRORS .
   Procedure FJE$ERRORS requires 4 words of local(AUTO) storage.

    No errors detected in file FJE$ERRORS.:E05TSI    .

PL6.E3A0      #001=FJE$ERRORS File=FJE$ERRORS.:E05TSI                            TUE 07/29/97 15:28 Page:3

 Object Unit name= FJE$ERRORS                                 File name= FJE$ERRORS.:E05TOU
 UTS= JUL 29 '97 15:28:27.60 TUE                              Compiler= PL-6/E31         Sev=      00
 SharedLib= :SHARED_SYSTEM                                    Alt SharedLib=


    ****  Control sections  ****

 Sect   Type Bound  Init  Size OctSiz  Section name(segment info)
    0   Proc  even  none     0      0  FJE$ERRORS

    ****  Entry defs  ****

                              Check   Calling
                             calling  sequence
  Sect OctLoc Primary Altret sequence   type   Parms  Name
     0      0   yes            yes     ~proc       0  FJE$ERRORS
PL6.E3A0      #001=FJE$ERRORS File=FJE$ERRORS.:E05TSI                            TUE 07/29/97 15:28 Page:4

        1        1        /*M* Define errors returned by JAYS on journal and congroup opens     */
        2        2        /*T***********************************************************/
        3        3        /*T*                                                         */
        4        4        /*T* Copyright (c) Bull HN Information Systems Inc., 1997    */
        5        5        /*T*                                                         */
        6        6        /*T***********************************************************/
        7        7
        8        8        FJE$ERRORS: PROC;
        9        9
       10       10        /*   The following errors are detected by JAYS in the process
       11       11             of opening a journal in response to an M$OPEN of a comgroup
       12       12             or journal by a user and are returned to the user with the
       13       13             ALTRETURN on his M$OPEN.                                         */
       14       14
       15       15        /*E*    ERROR: FJJ-E$NOSN-E
       16       16                MESSAGE: No serial number for journal.
       17       17                MESSAGE1: Serial numbers must be specified for tape journals.
       18       18                                                                              */
       19       19        /*E*    ERROR: FJJ-E$ASNERR-E
       20       20                MESSAGE: Incorrect journal ASN.
       21       21                MESSAGE1: The journal ASN is not the same as that specified
       22       22                          when the journal was created.
       23       23                                                                              */
       24       24        /*E*    ERROR: FJJ-E$JRNLCLSD-E
       25       25                MESSAGE: Attempt to open journal% %UF% after owner closed.
       26       26                MESSAGE1: Other users are still open to the journal.
       27       27        */
       28       28        /*E*    ERROR: FJJ-E$JRNLSTAR-E
       29       29                MESSAGE: JAYS can't journal on your * file.
       30       30                MESSAGE1: JAYS can't open Star file journal in your account.
       31       31        */
       32       32    1   END;

PL6.E3A0      #001=FJE$ERRORS File=FJE$ERRORS.:E05TSI                            TUE 07/29/97 15:28 Page:5
      No diagnostics issued in procedure FJE$ERRORS.
PL6.E3A0      #001=FJE$ERRORS File=FJE$ERRORS.:E05TSI                            TUE 07/29/97 15:28 Page:6

 **** Variables and constants ****


   No code generated for procedure FJE$ERRORS .
   Procedure FJE$ERRORS requires 4 words of local(AUTO) storage.

    No errors detected in file FJE$ERRORS.:E05TSI    .
PL6.E3A0      #001=FJE$ERRORS File=FJE$ERRORS.:E05TSI                            TUE 07/29/97 15:28 Page:7
          *** CROSS REFERENCE LISTING ***
**     DENOTES     IDENTIFIER DEFINITION
<<                 IDENTIFIER'S VALUE SET
>>                 IDENTIFIER'S VALUE USED
<>                 IDENTIFIER SET AND/OR USED
--                 IDENTIFIER REFERENCED
PL6.E3A0      #001=FJE$ERRORS File=FJE$ERRORS.:E05TSI                            TUE 07/29/97 15:28 Page:8
          MINI XREF LISTING

