PL6.E3A0      #002=FJJ$EVENT File=FJJ$JAY.:E05TSI                                TUE 07/29/97 15:29 Page:250
     1382        1        /*M*  Process events for Journal Ghost                                */
     1383        2        /*T***********************************************************/
     1384        3        /*T*                                                         */
     1385        4        /*T* Copyright (c) Bull HN Information Systems Inc., 1997    */
     1386        5        /*T*                                                         */
     1387        6        /*T***********************************************************/
     1388        7        /*X* PLM=6,IND=3,CTI=3,DCI=3,DTI=0,MCI,MOC,DMC  */
     1389        8        FJJ$EVENT: PROC ASYNC;
     1390        9        /**/
     1391       10    1   DCL B$TCB$ PTR SYMREF;
     1392       11
     1393       12    1   DCL FOI$LDTRC ENTRY(4) ALTRET;
     1394       13        /**/
     1395       14        %INCLUDE CP_6;
     1396       95        %INCLUDE FJM_MACROS_C;
     1397      234        %INCLUDE FJ_SCODE_C;
     1398      242        %INCLUDE JG_EVID_C;
     1399      467        %B$TCB;
     1400      470        %B$NWIO;
     1401      555        %B$EXCFR;
     1402      573        %B$JRNLERR;
     1403      585        %SUB_EXC;
     1404      632        %INCLUDE FJ_DATA_R;
     1405      644        %FJ$SUBS;
     1406      651    1   DCL I UBIN;
     1407      652    1   DCL CHAR8 CHAR(8) BASED;
     1408      653        /**/
     1409      654    2         DO INHIBIT;
     1410      655    3            DO WHILE (FJ_EVFREE<0);
     1411      656    3               END;                      /* LUF if no free entries             */
     1412      657    2            I=FJ_EVFREE;
     1413      658    2            FJ_EVFREE=FJ_EV.LNK(FJ_EVFREE);
     1414      659    2            IF FJ_EVTL < 0 THEN
     1415      660    2               FJ_EVHD = I;
     1416      661    2            ELSE
     1417      662    2               FJ_EV.LNK(FJ_EVTL)=I;
     1418      663    2            FJ_EVTL=I;
PL6.E3A0      #002=FJJ$EVENT File=FJJ$JAY.:E05TSI                                TUE 07/29/97 15:29 Page:251
     1419      664    2            FJ_EV.LNK(I)=-1;
     1420      665    2            IF B$TCB$->B$TCB.STK$->B$EXCFR.SUBC = %SUBC_JRNLERR# THEN
     1421      666    3            DO;
     1422      667    3               FJ_EV.EVID(FJ_EVTL)=%JRNL_ERR_EV#;
     1423      668    3               FJ_EV.DCB#(FJ_EVTL)=B$TCB$->B$TCB.STK$->B$JRNLERR.DCB#;
     1424      669    3               END;
     1425      670    2            ELSE
     1426      671    2               IF B$TCB$->B$TCB.STK$->B$NWIO.SUBC = JG_SETDSMT# THEN
     1427      672    3               DO;
     1428      673    3                  FJ_EV.STA(FJ_EVTL)=ADDR(B$TCB$->B$TCB.STK$->B$NWIO.TYC)->CHAR8;
     1429      674    3                  FJ_EV.EVID(FJ_EVTL)=%SET_DSMNT_EV#;
     1430      675    3                  END;
     1431      676    2               ELSE
     1432      677    2                  IF B$TCB$->B$TCB.STK$->B$NWIO.EVID >= 1000 THEN
     1433      678    3                  DO;
     1434      679    3                     FJ_EV.CG#(FJ_EVTL) = B$TCB$->B$TCB.STK$->B$NWIO.EVID-1000;
     1435      680    3                     FJ_EV.EVID(FJ_EVTL) = %CG_RD_EV#;
     1436      681    3                     END;
     1437      682    2                  ELSE
     1438      683    3                  DO;
     1439      684    3                     FJ_EV.STA(FJ_EVTL)=B$TCB$->B$TCB.STK$->B$NWIO.CGPARM.STATION#;
     1440      685    3                     FJ_EV.MSG(FJ_EVTL)=B$TCB$->B$TCB.STK$->B$NWIO.CGPARM.MSGTYP#;
     1441      686    3                     FJ_EV.EVID(FJ_EVTL)=B$TCB$->B$TCB.STK$->B$NWIO.EVID;
     1442      687    3                     END;
     1443      688    2            FJ_EV.ERR(FJ_EVTL)=B$TCB$->B$TCB.STK$->B$NWIO.ERR;
     1444      689    2            FJ_EV.ARS(FJ_EVTL)=B$TCB$->B$TCB.STK$->B$NWIO.ARS;
     1445      690    2            RETURN;
     1446      691    2            END;
     1447      692        %EJECT;
PL6.E3A0      #002=FJJ$EVENT File=FJJ$JAY.:E05TSI                                TUE 07/29/97 15:29 Page:252
     1448      693    1   FJJ$XCON: ENTRY ASYNC;
     1449      694        /**/
     1450      695        /*            snap and LDTRC to get fresh copy     */
     1451      696    1         CALL FOI$LDTRC (%S$JXCON,'0612'O,'12'O,'JAYS    ');
     1452      697
     1453      698        /*S*  SCREECH_CODE: FJJ-S$JXCON
     1454      699              TYPE:         SNAP
     1455      700              MESSAGE:      JAYS has aborted
     1456      701              REMARKS:      Following the snap JAYS will LDTRC to itself.
     1457      702        */
     1458      703    1   END;
     1459      704        %EOD;

PL6.E3A0      #002=FJJ$EVENT File=FJJ$JAY.:E05TSI                                TUE 07/29/97 15:29 Page:253
--  Include file information  --

   FJ_DATA_R.:E05TOU  cannot be made into a system file and is referenced.
   JG_EVID_C.:E05TOU  is referenced.
   FJ_SCODE_C.:E05TOU  is referenced.
   FJM_MACROS_C.:E05TOU  is referenced.
   CP_6.:E05TOU  cannot be made into a system file and is referenced.
   B$JIT_C.:E05TOU  was found in the system file and is never referenced.
   CP_6_C.:E05TOU  was found in the system file and is referenced.
      No diagnostics issued in procedure FJJ$EVENT.

   Procedure FJJ$EVENT requires 95 words for executable code.
   Procedure FJJ$EVENT requires 4 words of local(AUTO) storage.

PL6.E3A0      #002=FJJ$EVENT File=FJJ$JAY.:E05TSI                                TUE 07/29/97 15:29 Page:254

 Object Unit name= FJJ$EVENT                                  File name= FJJ$JAY.:E05TOU
 UTS= JUL 29 '97 15:29:44.24 TUE                              Compiler= PL-6/E31         Sev=      00
 SharedLib= :SHARED_SYSTEM                                    Alt SharedLib=


    ****  Control sections  ****

 Sect   Type Bound  Init  Size OctSiz  Section name(segment info)
    0   DCB   even  none     0      0  M$UC
    1  RoData even  UTS      2      2  FJJ$EVENT
    2   Proc  even  none    95    137  FJJ$EVENT
    3  RoData even  none     7      7  FJJ$EVENT

    ****  Entry defs  ****

                              Check   Calling
                             calling  sequence
  Sect OctLoc Primary Altret sequence   type   Parms  Name
     2      0   yes            yes     Async       0  FJJ$EVENT
     2    130                  yes     Async       0  FJJ$XCON

  ****  Entry refs  ****

         Check        Calling
        calling       sequence
Altret sequence SRef   type   Args  Name
 yes     yes           Std       4 FOI$LDTRC
                       nStd      0 X66_AAUTO
                       nStd      0 X66_AARET
                       Std       0 B_CONSPOOL_D
PL6.E3A0      #002=FJJ$EVENT File=FJJ$JAY.:E05TSI                                TUE 07/29/97 15:29 Page:255

  ****  Data refs  ****

  Flags:  r = read only, s = secondary
Flgs Name                             Flgs Name                             Flgs Name
     B$TCB$                                M$UC                                  FJ_EV
     FJ_EVHD                               FJ_EVTL                               FJ_EVFREE
     B_VECTNIL

  ****  Segment refs  ****

  Flags:  r = read only, s = secondary
Flgs Name                             Flgs Name                             Flgs Name
     ISSID
PL6.E3A0      #002=FJJ$EVENT File=FJJ$JAY.:E05TSI                                TUE 07/29/97 15:29 Page:256


     1382        1        /*M*  Process events for Journal Ghost                                */
     1383        2        /*T***********************************************************/
     1384        3        /*T*                                                         */
     1385        4        /*T* Copyright (c) Bull HN Information Systems Inc., 1997    */
     1386        5        /*T*                                                         */
     1387        6        /*T***********************************************************/
     1388        7        /*X* PLM=6,IND=3,CTI=3,DCI=3,DTI=0,MCI,MOC,DMC  */
     1389        8        FJJ$EVENT: PROC ASYNC;

      8  2 000000   000000 700200 xent  FJJ$EVENT    TSX0  ! X66_AAUTO
         2 000001   000004 000000                    ZERO    4,0

     1390        9        /**/
     1391       10    1   DCL B$TCB$ PTR SYMREF;
     1392       11
     1393       12    1   DCL FOI$LDTRC ENTRY(4) ALTRET;
     1394       13        /**/
     1395       14        %INCLUDE CP_6;
     1396       95        %INCLUDE FJM_MACROS_C;
     1397      234        %INCLUDE FJ_SCODE_C;
     1398      242        %INCLUDE JG_EVID_C;
     1399      467        %B$TCB;
     1400      470        %B$NWIO;
     1401      555        %B$EXCFR;
     1402      573        %B$JRNLERR;
     1403      585        %SUB_EXC;
     1404      632        %INCLUDE FJ_DATA_R;
     1405      644        %FJ$SUBS;
     1406      651    1   DCL I UBIN;
     1407      652    1   DCL CHAR8 CHAR(8) BASED;
     1408      653        /**/
     1409      654    2         DO INHIBIT;

     1410      655    3            DO WHILE (FJ_EVFREE<0);

    655  2 000002   000000 235200 xsym               LDA   ! FJ_EVFREE
PL6.E3A0      #002=FJJ$EVENT File=FJJ$JAY.:E05TSI                                TUE 07/29/97 15:29 Page:257
         2 000003   000006 605200 2                  TPL   ! s:657

     1411      656    3               END;                      /* LUF if no free entries             */

    656  2 000004   000000 235200 xsym               LDA   ! FJ_EVFREE
         2 000005   000004 604200 2                  TMI   ! s:656

     1412      657    2            I=FJ_EVFREE;

    657  2 000006   200003 755300                    STA   ! I,,AUTO

     1413      658    2            FJ_EVFREE=FJ_EV.LNK(FJ_EVFREE);

    658  2 000007   000000 236200 xsym               LDQ   ! FJ_EVFREE
         2 000010   000011 402207                    MPY   ! 9,DL
         2 000011   000000 235206 xsym               LDA   ! FJ_EV,QL
         2 000012   000000 755200 xsym               STA   ! FJ_EVFREE

     1414      659    2            IF FJ_EVTL < 0 THEN

    659  2 000013   000000 236200 xsym               LDQ   ! FJ_EVTL
         2 000014   000020 605200 2                  TPL   ! s:662

     1415      660    2               FJ_EVHD = I;

    660  2 000015   200003 235300                    LDA   ! I,,AUTO
         2 000016   000000 755200 xsym               STA   ! FJ_EVHD
         2 000017   000023 710200 2                  TRA   ! s:663

     1416      661    2            ELSE
     1417      662    2               FJ_EV.LNK(FJ_EVTL)=I;

    662  2 000020   000011 402207                    MPY   ! 9,DL
         2 000021   200003 235300                    LDA   ! I,,AUTO
         2 000022   000000 755206 xsym               STA   ! FJ_EV,QL

     1418      663    2            FJ_EVTL=I;
PL6.E3A0      #002=FJJ$EVENT File=FJJ$JAY.:E05TSI                                TUE 07/29/97 15:29 Page:258

    663  2 000023   000000 755200 xsym               STA   ! FJ_EVTL

     1419      664    2            FJ_EV.LNK(I)=-1;

    664  2 000024   200003 236300                    LDQ   ! I,,AUTO
         2 000025   000011 402207                    MPY   ! 9,DL
         2 000026   000001 335207                    LCA   ! 1,DL
         2 000027   000000 755206 xsym               STA   ! FJ_EV,QL

     1420      665    2            IF B$TCB$->B$TCB.STK$->B$EXCFR.SUBC = %SUBC_JRNLERR# THEN

    665  2 000030   000000 470600 xsym               LDP0  ! B$TCB$
         2 000031   000001 471700                    LDP1  ! 1,,PR0
         2 000032   100100 720300                    LXL0  ! 64,,PR1
         2 000033   000003 100203                    CMPX0 ! 3,DU
         2 000034   000045 601200 2                  TNZ   ! s:671

     1421      666    3            DO;

     1422      667    3               FJ_EV.EVID(FJ_EVTL)=%JRNL_ERR_EV#;

    667  2 000035   000000 236200 xsym               LDQ   ! FJ_EVTL
         2 000036   000011 402207                    MPY   ! 9,DL
         2 000037   000002 235207                    LDA   ! 2,DL
         2 000040   000001 755206 xsym               STA   ! FJ_EV+1,QL

     1423      668    3               FJ_EV.DCB#(FJ_EVTL)=B$TCB$->B$TCB.STK$->B$JRNLERR.DCB#;

    668  2 000041   000001 471700                    LDP1  ! 1,,PR0
         2 000042   100101 235300                    LDA   ! 65,,PR1
         2 000043   000003 755206 xsym               STA   ! FJ_EV+3,QL

     1424      669    3               END;

    669  2 000044   000117 710200 2                  TRA   ! s:688

PL6.E3A0      #002=FJJ$EVENT File=FJJ$JAY.:E05TSI                                TUE 07/29/97 15:29 Page:259
     1425      670    2            ELSE
     1426      671    2               IF B$TCB$->B$TCB.STK$->B$NWIO.SUBC = JG_SETDSMT# THEN

    671  2 000045   000010 100203                    CMPX0 ! 8,DU
         2 000046   000062 601200 2                  TNZ   ! s:677

     1427      672    3               DO;

     1428      673    3                  FJ_EV.STA(FJ_EVTL)=ADDR(B$TCB$->B$TCB.STK$->B$NWIO.TYC)->CHAR8;

    673  2 000047   000000 236200 xsym               LDQ   ! FJ_EVTL
         2 000050   000011 402207                    MPY   ! 9,DL
         2 000051   000002 736200                    QLS   ! 2
         2 000052   040006 100700                    MLR   ! fill='040'O
         2 000053   100104 000010                    ADSC9   68,,PR1                  cn=0,n=8
         2 000054   000004 000010 xsym               ADSC9   FJ_EV+4,Q                cn=0,n=8

     1429      674    3                  FJ_EV.EVID(FJ_EVTL)=%SET_DSMNT_EV#;

    674  2 000055   000000 236200 xsym               LDQ   ! FJ_EVTL
         2 000056   000011 402207                    MPY   ! 9,DL
         2 000057   000004 235207                    LDA   ! 4,DL
         2 000060   000001 755206 xsym               STA   ! FJ_EV+1,QL

     1430      675    3                  END;

    675  2 000061   000117 710200 2                  TRA   ! s:688

     1431      676    2               ELSE
     1432      677    2                  IF B$TCB$->B$TCB.STK$->B$NWIO.EVID >= 1000 THEN

    677  2 000062   100101 235300                    LDA   ! 65,,PR1
         2 000063   001750 115207                    CMPA  ! 1000,DL
         2 000064   000075 602200 2                  TNC   ! s:684

     1433      678    3                  DO;

PL6.E3A0      #002=FJJ$EVENT File=FJJ$JAY.:E05TSI                                TUE 07/29/97 15:29 Page:260
     1434      679    3                     FJ_EV.CG#(FJ_EVTL) = B$TCB$->B$TCB.STK$->B$NWIO.EVID-1000;

    679  2 000065   000000 236200 xsym               LDQ   ! FJ_EVTL
         2 000066   000011 402207                    MPY   ! 9,DL
         2 000067   100101 235300                    LDA   ! 65,,PR1
         2 000070   001750 135207                    SBLA  ! 1000,DL
         2 000071   000003 755206 xsym               STA   ! FJ_EV+3,QL

     1435      680    3                     FJ_EV.EVID(FJ_EVTL) = %CG_RD_EV#;

    680  2 000072   000003 235207                    LDA   ! 3,DL
         2 000073   000001 755206 xsym               STA   ! FJ_EV+1,QL

     1436      681    3                     END;

    681  2 000074   000117 710200 2                  TRA   ! s:688

     1437      682    2                  ELSE
     1438      683    3                  DO;

     1439      684    3                     FJ_EV.STA(FJ_EVTL)=B$TCB$->B$TCB.STK$->B$NWIO.CGPARM.STATION#;

    684  2 000075   000000 236200 xsym               LDQ   ! FJ_EVTL
         2 000076   000011 402207                    MPY   ! 9,DL
         2 000077   000002 736200                    QLS   ! 2
         2 000100   040006 100700                    MLR   ! fill='040'O
         2 000101   100107 000010                    ADSC9   71,,PR1                  cn=0,n=8
         2 000102   000004 000010 xsym               ADSC9   FJ_EV+4,Q                cn=0,n=8

     1440      685    3                     FJ_EV.MSG(FJ_EVTL)=B$TCB$->B$TCB.STK$->B$NWIO.CGPARM.MSGTYP#;

    685  2 000103   000000 236200 xsym               LDQ   ! FJ_EVTL
         2 000104   000011 402207                    MPY   ! 9,DL
         2 000105   000001 471700                    LDP1  ! 1,,PR0
         2 000106   000002 736200                    QLS   ! 2
         2 000107   040006 100700                    MLR   ! fill='040'O
         2 000110   100111 000010                    ADSC9   73,,PR1                  cn=0,n=8
PL6.E3A0      #002=FJJ$EVENT File=FJJ$JAY.:E05TSI                                TUE 07/29/97 15:29 Page:261
         2 000111   000006 000010 xsym               ADSC9   FJ_EV+6,Q                cn=0,n=8

     1441      686    3                     FJ_EV.EVID(FJ_EVTL)=B$TCB$->B$TCB.STK$->B$NWIO.EVID;

    686  2 000112   000000 236200 xsym               LDQ   ! FJ_EVTL
         2 000113   000011 402207                    MPY   ! 9,DL
         2 000114   000001 471700                    LDP1  ! 1,,PR0
         2 000115   100101 235300                    LDA   ! 65,,PR1
         2 000116   000001 755206 xsym               STA   ! FJ_EV+1,QL

     1442      687    3                     END;

     1443      688    2            FJ_EV.ERR(FJ_EVTL)=B$TCB$->B$TCB.STK$->B$NWIO.ERR;

    688  2 000117   000001 471700                    LDP1  ! 1,,PR0
         2 000120   000000 620206                    EAX0  ! 0,QL
         2 000121   100102 236300                    LDQ   ! 66,,PR1
         2 000122   000010 756210 xsym               STQ   ! FJ_EV+8,X0

     1444      689    2            FJ_EV.ARS(FJ_EVTL)=B$TCB$->B$TCB.STK$->B$NWIO.ARS;

    689  2 000123   000001 471700                    LDP1  ! 1,,PR0
         2 000124   100105 235300                    LDA   ! 69,,PR1
         2 000125   000002 755210 xsym               STA   ! FJ_EV+2,X0

     1445      690    2            RETURN;

    690  2 000126   000000 702200 xent               TSX2  ! X66_AARET

     1446      691    2            END;

    691  2 000127   000132 710000 2                  TRA     s:696

     1447      692        %EJECT;
PL6.E3A0      #002=FJJ$EVENT File=FJJ$JAY.:E05TSI                                TUE 07/29/97 15:29 Page:262
     1448      693    1   FJJ$XCON: ENTRY ASYNC;

    693  2 000130   000000 700200 xent  FJJ$XCON     TSX0  ! X66_AAUTO
         2 000131   000004 000000                    ZERO    4,0

     1449      694        /**/
     1450      695        /*            snap and LDTRC to get fresh copy     */
     1451      696    1         CALL FOI$LDTRC (%S$JXCON,'0612'O,'12'O,'JAYS    ');

    696  2 000132   000003 630400 3                  EPPR0   3
         2 000133   000022 631400 xsym               EPPR1   B_VECTNIL+18
         2 000134   000000 701000 xent               TSX1    FOI$LDTRC
         2 000135   000000 011000                    NOP     0

     1452      697
     1453      698        /*S*  SCREECH_CODE: FJJ-S$JXCON
     1454      699              TYPE:         SNAP
     1455      700              MESSAGE:      JAYS has aborted
     1456      701              REMARKS:      Following the snap JAYS will LDTRC to itself.
     1457      702        */
     1458      703    1   END;

    703  2 000136   000000 702200 xent               TSX2  ! X66_AARET
     1459      704        %EOD;

PL6.E3A0      #002=FJJ$EVENT File=FJJ$JAY.:E05TSI                                TUE 07/29/97 15:29 Page:263
--  Include file information  --

   FJ_DATA_R.:E05TOU  cannot be made into a system file and is referenced.
   JG_EVID_C.:E05TOU  is referenced.
   FJ_SCODE_C.:E05TOU  is referenced.
   FJM_MACROS_C.:E05TOU  is referenced.
   CP_6.:E05TOU  cannot be made into a system file and is referenced.
   B$JIT_C.:E05TOU  was found in the system file and is never referenced.
   CP_6_C.:E05TOU  was found in the system file and is referenced.
      No diagnostics issued in procedure FJJ$EVENT.
PL6.E3A0      #002=FJJ$EVENT File=FJJ$JAY.:E05TSI                                TUE 07/29/97 15:29 Page:264

 **** Variables and constants ****

  ****  Auto variables  ****

  ****  Scalars and arrays  ****
OctLoc.c.b A Datatyp(siz) R M Lvl/name                 OctLoc.c.b A Datatyp(siz) R M Lvl/name

     3-0-0/w UBIN        r     1 I

  ****  SYMREF variables  ****

  ****  Scalars and arrays  ****
OctLoc.c.b A Datatyp(siz) R M Lvl/name                 OctLoc.c.b A Datatyp(siz) R M Lvl/name

     0-0-0/w PTR         r     1 B$TCB$                     0-0-0/w STRC(324)   r     1 FJ_EV(0:8191)
     0-0-0/w SBIN        r     1 FJ_EVFREE                  0-0-0/w SBIN        r     1 FJ_EVHD
     0-0-0/w SBIN        r     1 FJ_EVTL

  ****  BASED and DCB variables  ****

  ****  Scalars and arrays  ****
OctLoc.c.b A Datatyp(siz) R M Lvl/name                 OctLoc.c.b A Datatyp(siz) R M Lvl/name

     0-0-0/w STRC(2448)  r     1 B$EXCFR                    0-0-0/w STRC(2484)  r     1 B$JRNLERR
     0-0-0/w STRC(2880)  r     1 B$NWIO                     0-0-0/w STRC(144)   r     1 B$TCB
     0-0-0/c CHAR(8)     r     1 CHAR8


   Procedure FJJ$EVENT requires 95 words for executable code.
   Procedure FJJ$EVENT requires 4 words of local(AUTO) storage.
PL6.E3A0      #002=FJJ$EVENT File=FJJ$JAY.:E05TSI                                TUE 07/29/97 15:29 Page:265
          *** CROSS REFERENCE LISTING ***
**     DENOTES     IDENTIFIER DEFINITION
<<                 IDENTIFIER'S VALUE SET
>>                 IDENTIFIER'S VALUE USED
<>                 IDENTIFIER SET AND/OR USED
--                 IDENTIFIER REFERENCED
PL6.E3A0      #002=FJJ$EVENT File=FJJ$JAY.:E05TSI                                TUE 07/29/97 15:29 Page:266
          MINI XREF LISTING

B$EXCFR.ASL
       556**DCL       556--REDEF
B$EXCFR.ERR.ERR#
       570**DCL       570--REDEF
B$EXCFR.EVID
       569**DCL       569--REDEF     570--REDEF
B$EXCFR.IR
       557**DCL       557--REDEF
B$EXCFR.PREVSZ
       556**DCL       556--REDEF
B$EXCFR.SUBC
       568**DCL       568--REDEF     569--REDEF     569--REDEF     665>>IF
B$JRNLERR.CODE
       576**DCL       576--REDEF     577--REDEF     577--REDEF
B$JRNLERR.DCB#
       577**DCL       668>>ASSIGN
B$JRNLERR.ERR.ERR#
       578**DCL       578--REDEF
B$JRNLERR.EVID
       577**DCL       577--REDEF     577--REDEF
B$NWIO.ARS
       480**DCL       689>>ASSIGN
B$NWIO.CGPARM.MSGIDXT
       504**DCL       507--REDEF
B$NWIO.CGPARM.MSGTYP#
       498**DCL       685>>ASSIGN
B$NWIO.CGPARM.STATION#
       498**DCL       684>>ASSIGN
B$NWIO.CODE
       473**DCL       473--REDEF     474--REDEF     474--REDEF
B$NWIO.ERR
       474**DCL       688>>ASSIGN
PL6.E3A0      #002=FJJ$EVENT File=FJJ$JAY.:E05TSI                                TUE 07/29/97 15:29 Page:267
B$NWIO.ERR.ERR#
       475**DCL       475--REDEF
B$NWIO.EVID
       474**DCL       474--REDEF     474--REDEF     677>>IF        679>>ASSIGN    686>>ASSIGN
B$NWIO.SUBC
       474**DCL       671>>IF
B$NWIO.TYC
       480**DCL       673--ASSIGN
B$TCB.STK$
       468**DCL       665>>IF        668>>ASSIGN    671>>IF        673>>ASSIGN    677>>IF        679>>ASSIGN
       684>>ASSIGN    685>>ASSIGN    686>>ASSIGN    688>>ASSIGN    689>>ASSIGN
B$TCB$
        10**DCL       665>>IF        668>>ASSIGN    671>>IF        673>>ASSIGN    677>>IF        679>>ASSIGN
       684>>ASSIGN    685>>ASSIGN    686>>ASSIGN    688>>ASSIGN    689>>ASSIGN
CHAR8
       652**DCL       673>>ASSIGN
FJ_EV.ARS
       641**DCL       689<<ASSIGN
FJ_EV.CG#
       641**DCL       679<<ASSIGN
FJ_EV.DCB#
       641**DCL       641--REDEF     641--REDEF     668<<ASSIGN
FJ_EV.ERR
       642**DCL       688<<ASSIGN
FJ_EV.EVID
       641**DCL       667<<ASSIGN    674<<ASSIGN    680<<ASSIGN    686<<ASSIGN
FJ_EV.LNK
       641**DCL       658>>ASSIGN    662<<ASSIGN    664<<ASSIGN
FJ_EV.MSG
       641**DCL       685<<ASSIGN
FJ_EV.STA
       641**DCL       673<<ASSIGN    684<<ASSIGN
FJ_EVFREE
       642**DCL       655>>DOWHILE   657>>ASSIGN    658<<ASSIGN    658>>ASSIGN
FJ_EVHD
       642**DCL       660<<ASSIGN
PL6.E3A0      #002=FJJ$EVENT File=FJJ$JAY.:E05TSI                                TUE 07/29/97 15:29 Page:268
FJ_EVTL
       642**DCL       659>>IF        662>>ASSIGN    663<<ASSIGN    667>>ASSIGN    668>>ASSIGN    673>>ASSIGN
       674>>ASSIGN    679>>ASSIGN    680>>ASSIGN    684>>ASSIGN    685>>ASSIGN    686>>ASSIGN    688>>ASSIGN
       689>>ASSIGN
FOI$LDTRC
        12**DCL-ENT   696--CALL
I
       651**DCL       657<<ASSIGN    660>>ASSIGN    662>>ASSIGN    663>>ASSIGN    664>>ASSIGN

PL6.E3A0      #003=FJJ$CJAY File=FJJ$JAY.:E05TSI                                 TUE 07/29/97 15:29 Page:269
     1460        1        /*T***********************************************************/
     1461        2        /*T*                                                         */
     1462        3        /*T* Copyright (c) Bull HN Information Systems Inc., 1997    */
     1463        4        /*T*                                                         */
     1464        5        /*T***********************************************************/
     1465        6        /*X* PLM=6,IND=3,CTI=3,DCI=3,DTI=0,MCI,MOC,DMC  */
     1466        7        /* Do user functions for batch and online users.                    */
     1467        8
     1468        9        FJJ$CJAY: PROC ALTRET;
     1469       10        %INCLUDE CP_6;
     1470       91        %INCLUDE CP_6_SUBS;
     1471      631        %INCLUDE B_ERRORS_C;
     1472     1758 S      %INCLUDE B$JIT_C;
     1473     1759        %INCLUDE FJM_MACROS_C;
     1474     1898        %INCLUDE XU_MACRO_C;
     1475     5004        %INCLUDE XU_SUBS_C;
     1476     5096        %INCLUDE XU_PERR_C;
     1477     5287        %INCLUDE XUH_MACRO_C;
     1478     5371        %INCLUDE FJ_SUBS_C;
     1479     5392        %INCLUDE FJ_PERR_C;
     1480     5405        %INCLUDE JG_EVID_C;
     1481     5630
     1482     5631        %PARSE$OUT;
     1483     5676        %PARSE$SYM;
     1484     5714
     1485     5715        %XUR_INIT;
     1486     5814        %XUH_PARAM (PROCNAME=JAYSNAME,OUTDCB1=M$DO,OUTDCB2=M$LO);
     1487     5875
     1488     5876        %B$JIT0;
     1489     5965        %A$JIT6X;
     1490     5968        %F$DCB;
     1491     6025        %B$TCB;
     1492     6028        %B$ALT;
     1493     6036        %EJECT;
PL6.E3A0      #003=FJJ$CJAY File=FJJ$JAY.:E05TSI                                 TUE 07/29/97 15:29 Page:270
     1494     6037        %FPT_OPEN (FPTN=OPN_STARA,DCB=M$A,ASN=FILE,FUN=IN,ORG=KEYED,ACS=DIRECT,
     1495     6038             NAME=STARA);
     1496     6147        %FPT_READ (FPTN=RD_STARA,DCB=M$A,BUF=AMREC,KEYS=YES,KEY=SIKEY);
     1497     6186        %FPT_CLOSE (FPTN=CLS_STARA,DCB=M$A);
     1498     6228        %FPT_OPEN (FPTN=OPN_JRNL,DCB=M$J,FUN=CREATE,ASN=FILE,
     1499     6229                 NAME=OPNNAME,ACCT=OPNACCT,PASS=OPNPASS,
     1500     6230                 DISP=NAMED,CTG=YES,ORG=CONSEC);
     1501     6339        %FPT_OPEN (FPTN=AMR,PFMT="PTR",STCLASS="BASED(AMR$)");
     1502     6448        %FPT_CLOSE (FPTN=CLS_JRNL,DCB=M$J,CHGATT=YES);
     1503     6490        /**/
     1504     6491        %FPT_FID (FPTN=RE_FID1,NAME=RE_MSG.FID1.FNAME,
     1505     6492                  ACCT=RE_MSG.FID1.ACCT,ASN=JASN,PASS=RE_MSG.FID1.PASS,
     1506     6493                  SN=RE_MSG.FID1.SN,RES=K,RESULTS=FID1_RSLT);
     1507     6516        %FPT_FID (FPTN=RE_FID2,NAME=RE_MSG.FID2.FNAME,
     1508     6517                  ACCT=RE_MSG.FID1.ACCT,ASN=JASN,PASS=RE_MSG.FID1.PASS,
     1509     6518                  SN=RE_MSG.FID1.SN,RESULTS=FID2_RSLT);
     1510     6541        %FPT_FID (FPTN=CN_FID1,NAME=CNCL_MSG.FID1.FNAME,
     1511     6542                  ACCT=CNCL_MSG.FID1.ACCT,ASN=JASN,PASS=CNCL_MSG.FID1.PASS,
     1512     6543                  SN=CNCL_MSG.FID1.SN);
     1513     6566
     1514     6567        %FPT_YC (FPTN=YC_SET,CMD=AMREC);
     1515     6584        %FPT_OPEN (FPTN=OPN_CSCG,DCB=M$CSCG,ASN=COMGROUP,NAME=CSCG_NAME,
     1516     6585                ACCT=CSCG_ACCT,SETSTA=USR_JAY);
     1517     6694        %VLP_SETSTA (FPTN=USR_JAY);
     1518     6722        %VLP_NAME (FPTN=CSCG_NAME,NAME='CSCG');
     1519     6749        %VLP_ACCT (FPTN=CSCG_ACCT,ACCT=':SYS');
     1520     6762
     1521     6763        %FPT_WRITE (FPTN=WR_CSCG,DCB=M$CSCG,STATION=JAYS_STA);
     1522     6794        %VLP_STATION (FPTN=JAYS_STA,STATION='JAYS');
     1523     6821
     1524     6822        %FPT_READ (FPTN=RD_CSCG,DCB=M$CSCG,STATION=MY_STA);
     1525     6861        %VLP_STATION (FPTN=MY_STA,DIRONLY=YES);
     1526     6888
     1527     6889        %FPT_WRITE (FPTN=LIST_ME,DCB=M$ME,BUF=LST_RSPNCE.TXT);
     1528     6920        %VLP_NAME (FPTN=JAYSNAME,NAME='JAYS');
     1529     6947
     1530     6948        %VLP_NAME (FPTN=SIKEY,NAME='M$SI');
PL6.E3A0      #003=FJJ$CJAY File=FJJ$JAY.:E05TSI                                 TUE 07/29/97 15:29 Page:271
     1531     6975        %VLP_NAME (FPTN=N1KEY,NAME='#1');
     1532     7002        %VLP_NAME (FPTN=STARA,NAME='*A');
     1533     7029        %VLP_NAME (FPTN=JNAME,STCLASS=BASED,LEN=31);
     1534     7056        %VLP_ACCT (FPTN=JACCT,STCLASS=BASED);
     1535     7069        %VLP_PASS (FPTN=JPASS,STCLASS=BASED);
     1536     7082        %VLP_NAME (FPTN=OPNNAME);
     1537     7109        %VLP_ACCT (FPTN=OPNACCT);
     1538     7122        %VLP_PASS (FPTN=OPNPASS);
     1539     7135        %VLP_SN (FPTN=S,STCLASS=BASED);
     1540     7148        %VLP_VECTOR (FPTN=BVECT,STCLASS=BASED);
     1541     7163        %FJ$UATTR (FPTN=JAZ,STCLASS=BASED);
     1542     7195        %FJ$UATTR (FPTN=NSN);
     1543     7227        %FJ$CITE (NAME=RE_MSG,COD=FJ_RENAME_CMD,TYP=RENAME);
     1544     7300        %FJ$CITE (NAME=CNCL_MSG,COD=FJ_CANCEL_CMD,TYP=CANCEL);
     1545     7373        %FJ$CITE (NAME=LST_MSG,COD=FJ_LIST_CMD,TYP=LIST);
     1546     7446        %FJ$CITE (NAME=SNP_MSG,COD=FJ_SNP_CMD,TYP=LIST);
     1547     7519        %FJ$OPNANSWR (FPTN=CSCG_ANS);
     1548     7529        %FJ$LISTANS (FPTN=LST_RSPNCE);
     1549     7535
     1550     7536    1   DCL XUR$INIT ENTRY(3) ALTRET;
     1551     7537    1   DCL XUR$GETCMD ENTRY(6) ALTRET;
     1552     7538    1   DCL XUR$ERRPTR ENTRY(2) ALTRET;
     1553     7539    1   DCL XUR$ERRMSG ENTRY(7) ALTRET;
     1554     7540    1   DCL XUR$HELP ENTRY(1) ALTRET;
     1555     7541    1   DCL XUR$MOREMSG ENTRY(1) ALTRET;
     1556     7542    1   DCL XUR$ALLMSG ENTRY(1) ALTRET;
     1557     7543
     1558     7544
     1559     7545    1   DCL M$A DCB;
     1560     7546    1   DCL M$J DCB;
     1561     7547    1   DCL M$ME DCB;
     1562     7548    1   DCL M$CSCG DCB;
     1563     7549    1   DCL M$DO DCB;
     1564     7550    1   DCL M$LO DCB;
     1565     7551    1   DCL M$SI DCB;
     1566     7552
     1567     7553    1   DCL 1 SN_V STATIC,
PL6.E3A0      #003=FJJ$CJAY File=FJJ$JAY.:E05TSI                                 TUE 07/29/97 15:29 Page:272
     1568     7554    1         2 BND UBIN(20) UNAL,
     1569     7555    1         2 * BIT(16) UNAL INIT('1111111110100000'B),
     1570     7556    1         2 P$ PTR;
     1571     7557        %VLR_FID(FPTN=FID1_RSLT);
     1572     7576        %VLR_FID (FPTN=FID2_RSLT);
     1573     7595    1   DCL 1 FNM2  BASED(FNM2$),
     1574     7596    1         2 * UBIN(9) UNAL,
     1575     7597    1         2 C CHAR(FNM2SZ);
     1576     7598    1   DCL 1 FNM1  BASED(FNM1$),
     1577     7599    1         2 * UBIN(9) UNAL,
     1578     7600    1         2 C CHAR(FNM1SZ);
     1579     7601    1   DCL FNM1$ PTR;
     1580     7602    1   DCL FNM2$ PTR;
     1581     7603    1   DCL FNM1SZ UBIN;
     1582     7604    1   DCL FNM2SZ UBIN;
     1583     7605    1   DCL AMREC(0:1023) UBIN STATIC;
     1584     7606    1   DCL AMREC_CHR REDEF AMREC CHAR(4096);
     1585     7607    1   DCL CMD_SIZ UBIN;
     1586     7608    1   DCL CMD CHAR(CMD_SIZ) BASED;
     1587     7609    1   DCL SET_STR CHAR(0) CONSTANT INIT('SET #1 ');
     1588     7610    1   DCL AMR$ PTR STATIC INIT(ADDR(AMREC));
     1589     7611    1   DCL K UBIN STATIC;
     1590     7612    1   DCL B$DS3$ PTR SYMREF;
     1591     7613    1   DCL B$TCB$ PTR SYMREF;
     1592     7614    1   DCL B$JIT$ PTR SYMREF;
     1593     7615
     1594     7616        %VLP_ERRCODE (FPTN=NOFILENAME,ERR#=%E$NOFILENAME,FCG=FJ,MID=J,SEV=2,STCLASS=CONSTANT
              7616            );
     1595     7661        %VLP_ERRCODE (FPTN=ONLYFILE,ERR#=%E$ONLYFILE,FCG=FJ,MID=J,SEV=2,STCLASS=CONSTANT);
     1596     7706        %VLP_ERRCODE (FPTN=ERRCODE,STCLASS="");
     1597     7751
     1598     7752    1   DCL BLK$ REDEF ERRCODE PTR;
     1599     7753    1   DCL JASN UBIN(9) STATIC;
     1600     7754
     1601     7755    1   DCL FJ_JAYS_CMD UBIN SYMREF;
     1602     7756
     1603     7757        %EJECT;
PL6.E3A0      #003=FJJ$CJAY File=FJJ$JAY.:E05TSI                                 TUE 07/29/97 15:29 Page:273
     1604     7758        /*  Find out what he wants to do.                                     */
     1605     7759
     1606     7760
     1607     7761    1         CALL XUR$INIT (XUR_INIT);
     1608     7762    2         DO WHILE ('1'B);                /* Keep reading commands              */
     1609     7763    2   RD1:     CALL XUR$GETCMD (FJ_JAYS_CMD,BLK$) ALTRET(CMD_ERR);
     1610     7764    3            DO WHILE ('0'B);
     1611     7765    3   CMD_ERR:    CALL XUR$ERRPTR (,DCBNUM(M$ME));
     1612     7766    3               CALL XUR$ERRMSG (ERRCODE,DCBNUM(M$ME));
     1613     7767    3               IF ERRCODE.ERR# = %E$EOF THEN
     1614     7768    3                  RETURN;
     1615     7769    3               ELSE
     1616     7770    3                  GOTO RD1;
     1617     7771    3               END;
     1618     7772
     1619     7773    2            IF OUT$BLK.NSUBLKS = 0 THEN
     1620     7774    2               GOTO RD1;
     1621     7775    3            DO CASE (OUT$BLK.SUBLK$(0)->OUT$BLK.CODE);
     1622     7776    3             CASE (%RUN_CMD);
     1623     7777    3               ALTRETURN;           /* allow online use to test journaling     */
     1624     7778    3             CASE (%LIST_CMD);
     1625     7779    3               WR_CSCG.BUF_=VECTOR(LST_MSG);
     1626     7780    3               LST_MSG.UNAME=B$JIT.UNAME;
     1627     7781    3               LST_MSG.ACCN=B$JIT.ACCN;
     1628     7782    3               LST_MSG.FACCN=B$JIT.FACCN;
     1629     7783    3               LST_MSG.PRIV=B$JIT.PRIV.JOB;
     1630     7784    3               IF NOT DCBADDR(DCBNUM(M$CSCG))->F$DCB.FCD# THEN
     1631     7785    3                  CALL M$OPEN (OPN_CSCG);
     1632     7786    3               CALL M$WRITE (WR_CSCG) ALTRET(RE_ALT);
     1633     7787    3               RD_CSCG.BUF_=VECTOR(LST_RSPNCE);
     1634     7788    3   LST1:       CALL M$READ (RD_CSCG) ALTRET(RE_ALT);
     1635     7789    3               IF LST_RSPNCE.ERR THEN
     1636     7790    3                  CALL XUR$ERRMSG (LST_RSPNCE.ERR);
     1637     7791    3               ELSE
     1638     7792    4               DO;
     1639     7793    4                  CALL M$WRITE (LIST_ME);
     1640     7794    4                  IF LST_RSPNCE.LAST = 0 THEN
PL6.E3A0      #003=FJJ$CJAY File=FJJ$JAY.:E05TSI                                 TUE 07/29/97 15:29 Page:274
     1641     7795    4                     GOTO LST1;
     1642     7796    4                  END;
     1643     7797    3             CASE (%RENAME_CMD);
     1644     7798    3               FNM1$=OUT$BLK.SUBLK$(0)->OUT$BLK.SUBLK$(0)->OUT$SYM.TEXTC$;
     1645     7799    3               FNM2$=OUT$BLK.SUBLK$(0)->OUT$BLK.SUBLK$(1)->OUT$SYM.TEXTC$;
     1646     7800    3               FNM1SZ=OUT$BLK.SUBLK$(0)->OUT$BLK.SUBLK$(0)->OUT$SYM.COUNT;
     1647     7801    3               FNM2SZ=OUT$BLK.SUBLK$(0)->OUT$BLK.SUBLK$(1)->OUT$SYM.COUNT;
     1648     7802    3               RE_FID2.TEXTFID_=VECTOR(FNM2.C);
     1649     7803    3               RE_FID1.TEXTFID_=VECTOR(FNM1.C);
     1650     7804    3               CALL M$FID (RE_FID2) ALTRET(RE_ALT);
     1651     7805    4               IF NOT FID2_RSLT.NAME THEN DO;
     1652     7806    4                  CALL XUR$ERRMSG(NOFILENAME);
     1653     7807        /*E*
     1654     7808        ERROR:  FJ-E$NOFILENAME
     1655     7809        MESSAGE: Both source and destination require a file name.
     1656     7810        */
     1657     7811    4                  GOTO RD1;
     1658     7812    4                  END;
     1659     7813    4               IF JASN~=%FILE# THEN DO;
     1660     7814    4                  CALL XUR$ERRMSG(ONLYFILE);
     1661     7815        /*E*
     1662     7816        ERROR:  FJ-E$ONLYFILE
     1663     7817        MESSAGE: Both source and destination files must be disk files.
     1664     7818        */
     1665     7819    4                  GOTO RD1;
     1666     7820    4                  END;
     1667     7821    3               CALL M$FID (RE_FID1) ALTRET(RE_ALT);
     1668     7822    4               IF NOT FID1_RSLT.NAME THEN DO;
     1669     7823    4                  CALL XUR$ERRMSG(NOFILENAME);
     1670     7824    4                  GOTO RD1;
     1671     7825    4                  END;
     1672     7826    4               IF JASN~=%FILE# THEN DO;
     1673     7827    4                  CALL XUR$ERRMSG(ONLYFILE);
     1674     7828    4                  GOTO RD1;
     1675     7829    4                  END;
     1676     7830    3               RE_MSG.UNAME=B$JIT.UNAME;
     1677     7831    3               RE_MSG.ACCN=B$JIT.ACCN;
PL6.E3A0      #003=FJJ$CJAY File=FJJ$JAY.:E05TSI                                 TUE 07/29/97 15:29 Page:275
     1678     7832    3               RE_MSG.FACCN=B$JIT.FACCN;
     1679     7833    3               RE_MSG.PRIV=B$JIT.PRIV.JOB;
     1680     7834    3               IF RE_MSG.FID1.ACCT=' ' THEN
     1681     7835    3                  RE_MSG.FID1.ACCT=B$JIT.FACCN;
     1682     7836    3               WR_CSCG.BUF_=VECTOR(RE_MSG);
     1683     7837    3               IF NOT DCBADDR(DCBNUM(M$CSCG))->F$DCB.FCD# THEN
     1684     7838    3                  CALL M$OPEN (OPN_CSCG);
     1685     7839    3               CALL M$WRITE (WR_CSCG) ALTRET(RE_ALT);
     1686     7840    3               RD_CSCG.BUF_=VECTOR(CSCG_ANS);
     1687     7841    3               CALL M$READ (RD_CSCG) ALTRET(RE_ALT);
     1688     7842    3               IF CSCG_ANS.ERR THEN
     1689     7843    3                  CALL XUR$ERRMSG (CSCG_ANS.ERR);
     1690     7844    4               DO WHILE ('0'B);
     1691     7845    4   RE_ALT:        CALL XUR$ERRMSG (B$TCB$->B$TCB.ALT$->B$ALT.ERR);
     1692     7846    4                  END;
     1693     7847    3             CASE (%CANCL_CMD);
     1694     7848    3               FNM1$=OUT$BLK.SUBLK$(0)->OUT$BLK.SUBLK$(0)->OUT$SYM.TEXTC$;
     1695     7849    3               FNM1SZ=OUT$BLK.SUBLK$(0)->OUT$BLK.SUBLK$(0)->OUT$SYM.COUNT;
     1696     7850    3               CN_FID1.TEXTFID_=VECTOR(FNM1.C);
     1697     7851    3               CALL M$FID (CN_FID1) ALTRET(RE_ALT);
     1698     7852    3               CNCL_MSG.UNAME=B$JIT.UNAME;
     1699     7853    3               CNCL_MSG.ACCN=B$JIT.ACCN;
     1700     7854    3               CNCL_MSG.FACCN=B$JIT.FACCN;
     1701     7855    3               CNCL_MSG.PRIV=B$JIT.PRIV.JOB;
     1702     7856    3               WR_CSCG.BUF_=VECTOR(CNCL_MSG);
     1703     7857    3               IF NOT DCBADDR(DCBNUM(M$CSCG))->F$DCB.FCD# THEN
     1704     7858    3                  CALL M$OPEN (OPN_CSCG);
     1705     7859    3               CALL M$WRITE (WR_CSCG) ALTRET(RE_ALT);
     1706     7860    3               RD_CSCG.BUF_=VECTOR(CSCG_ANS);
     1707     7861    3               CALL M$READ (RD_CSCG) ALTRET(RE_ALT);
     1708     7862    3               IF CSCG_ANS.ERR THEN
     1709     7863    3                  CALL XUR$ERRMSG (CSCG_ANS.ERR);
     1710     7864    3             CASE (%END_CMD);
     1711     7865    3               RETURN;
     1712     7866    3             CASE (%CMMNT_CMD);
     1713     7867    3               RETURN;                   /* Quit on blank or comment command   */
     1714     7868
PL6.E3A0      #003=FJJ$CJAY File=FJJ$JAY.:E05TSI                                 TUE 07/29/97 15:29 Page:276
     1715     7869    3             CASE(%HELP_CMD);
     1716     7870    3               XUH_PARAM.HELP$=OUT$BLK.SUBLK$(0)->OUT$BLK.SUBLK$(0)->OUT$SYM.TEXTC$;
     1717     7871    3               CALL XUR$HELP (XUH_PARAM);
     1718     7872    3             CASE(%Q1_CMD);
     1719     7873    3               CALL XUR$MOREMSG (XUH_PARAM) ALTRET(NOMORE);
     1720     7874    3             CASE(%Q2_CMD);
     1721     7875    3               CALL XUR$ALLMSG (XUH_PARAM) ALTRET(NOMORE);
     1722     7876    4               DO WHILE ('0'B);
     1723     7877    4   NOMORE:        ;
     1724     7878    4                  END;
     1725     7879    3             CASE(%SNAP_CMD);
     1726     7880    3               WR_CSCG.BUF_=VECTOR(SNP_MSG);
     1727     7881    3               IF NOT DCBADDR(DCBNUM(M$CSCG))->F$DCB.FCD# THEN
     1728     7882    3                  CALL M$OPEN (OPN_CSCG);
     1729     7883    3               CALL M$WRITE (WR_CSCG) ALTRET(RE_ALT);
     1730     7884    3             CASE (%CREATE_CMD);
     1731     7885    3               CMD_SIZ = OUT$BLK.SUBLK$(0)->OUT$BLK.SUBLK$(0)->OUT$SYM.COUNT;
     1732     7886    3               IF CMD_SIZ = 0 THEN
     1733     7887    3                  GOTO CMD_ERR;
     1734     7888    3               CALL CONCAT (AMREC_CHR,
     1735     7889    3                  SET_STR,
     1736     7890    3                  PINCRC(OUT$BLK.SUBLK$(0)->OUT$BLK.SUBLK$(0)->
     1737     7891    3                  OUT$SYM.TEXTC$,1)->CMD);
     1738     7892    3               ADDR(YC_SET.CMD_)->BVECT.W1.VSIZE#=CMD_SIZ+SIZEC(SET_STR)-1;
     1739     7893    3               CALL M$YC (YC_SET);
     1740     7894    3               CALL M$OPEN (OPN_STARA);
     1741     7895    3               RD_STARA.KEY_=VECTOR(N1KEY);
     1742     7896    3               CALL M$READ (RD_STARA) ALTRET(CMD_ERR);
     1743     7897    3               CALL M$CLOSE (CLS_STARA);
     1744     7898    3               SN_V=VECTOR(NSN);
     1745     7899    3               IF AMR.SN_ ~= ADDR(NIL) THEN
     1746     7900    4               DO;
     1747     7901    4                  SN_V.P$=PINCRW(AMR$,POFFW(AMR.SN_,B$DS3$)-SIZEW(NSN)+1);
     1748     7902    4                  SN_V.BND=((SN_V.P$->JAZ.Q.NUM#*6+3)/4+SIZEW(JAZ))*4-1;
     1749     7903    4                  END;
     1750     7904    3               OPNNAME=PINCRW(AMR$,POFFW(AMR.NAME_,B$DS3$))->JNAME;
     1751     7905    3               IF AMR.ACCT_ ~= ADDR(NIL) THEN
PL6.E3A0      #003=FJJ$CJAY File=FJJ$JAY.:E05TSI                                 TUE 07/29/97 15:29 Page:277
     1752     7906    3                  OPNACCT=PINCRW(AMR$,POFFW(AMR.ACCT_,B$DS3$))->JACCT;
     1753     7907    3               ELSE
     1754     7908    3                  OPNACCT.ACCT#=' ';
     1755     7909    3               IF AMR.PASS_ ~= ADDR(NIL) THEN
     1756     7910    3                  OPNPASS=PINCRW(AMR$,POFFW(AMR.PASS_,B$DS3$))->JPASS;
     1757     7911    3               ELSE
     1758     7912    3                  OPNPASS.PASS#=' ';
     1759     7913    3               SN_V.P$->JAZ.SIZ#=SN_V.BND/4;
     1760     7914    3               SN_V.P$->JAZ.NAW# = 100;
     1761     7915    3               SN_V.P$->JAZ.Q.ID=NSN.Q.ID;
     1762     7916    3               SN_V.P$->JAZ.Q.ASN=AMR.V.ASN#;
     1763     7917    3               SN_V.P$->JAZ.Q.VOL#=0;
     1764     7918    3               CALL M$OPEN (OPN_JRNL);
     1765     7919    3               CLS_JRNL.UATTR_=SN_V;
     1766     7920    3               CALL M$CLOSE (CLS_JRNL);
     1767     7921    3             END;                        /* End case                           */
     1768     7922    2            END;                         /* End command read DO                */
     1769     7923    1   END;

PL6.E3A0      #003=FJJ$CJAY File=FJJ$JAY.:E05TSI                                 TUE 07/29/97 15:29 Page:278
--  Include file information  --

   JG_EVID_C.:E05TOU  is referenced.
   FJ_PERR_C.:E05TOU  is referenced.
   FJ_SUBS_C.:E05TOU  is referenced.
   XUH_MACRO_C.:E05TOU  is referenced.
   XU_PERR_C.:E05TOU  is referenced.
   XU_SUBS_C.:E05TOU  is referenced.
   XU_MACRO_C.:E05TOU  is referenced.
   FJM_MACROS_C.:E05TOU  is referenced.
   B_ERRORS_C.:E05TOU  is referenced.
   CP_6_SUBS.:E05TOU  is referenced.
   CP_6.:E05TOU  cannot be made into a system file and is referenced.
   B$JIT_C.:E05TOU  was found in the system file and is referenced.
   CP_6_C.:E05TOU  was found in the system file and is referenced.
      No diagnostics issued in procedure FJJ$CJAY.

   Procedure FJJ$CJAY requires 450 words for executable code.
   Procedure FJJ$CJAY requires 14 words of local(AUTO) storage.

    No errors detected in file FJJ$JAY.:E05TSI    .

PL6.E3A0      #003=FJJ$CJAY File=FJJ$JAY.:E05TSI                                 TUE 07/29/97 15:29 Page:279

 Object Unit name= FJJ$CJAY                                   File name= FJJ$JAY.:E05TOU
 UTS= JUL 29 '97 15:29:49.64 TUE                              Compiler= PL-6/E31         Sev=      00
 SharedLib= :SHARED_SYSTEM                                    Alt SharedLib=


    ****  Control sections  ****

 Sect   Type Bound  Init  Size OctSiz  Section name(segment info)
    0   DCB   even  none     0      0  M$UC
    1   Data  even  none  1671   3207  FJJ$CJAY
    2   DCB   even  none     0      0  M$A
    3   DCB   even  none     0      0  M$J
    4   DCB   even  none     0      0  M$ME
    5   DCB   even  none     0      0  M$CSCG
    6   DCB   even  none     0      0  M$DO
    7   DCB   even  none     0      0  M$LO
    8   DCB   even  none     0      0  M$SI
    9  RoData even  UTS      4      4  FJJ$CJAY
   10   Proc  even  none   450    702  FJJ$CJAY
   11  RoData even  none    24     30  FJJ$CJAY

    ****  Entry defs  ****

                              Check   Calling
                             calling  sequence
  Sect OctLoc Primary Altret sequence   type   Parms  Name
    10      0   yes    yes     yes      Std        0  FJJ$CJAY
PL6.E3A0      #003=FJJ$CJAY File=FJJ$JAY.:E05TSI                                 TUE 07/29/97 15:29 Page:280

  ****  Entry refs  ****

         Check        Calling
        calling       sequence
Altret sequence SRef   type   Args  Name
 yes     yes           Std       2 XTX$ADAPT
 yes     yes           Std       6 XUR$GETCMD
 yes     yes           Std       1 XUR$HELP
 yes     yes           Std       1 XUR$MOREMSG
 yes     yes           Std       1 XUR$ALLMSG
 yes     yes           Std       3 XUR$INIT
 yes     yes           Std       2 XUR$ERRPTR
 yes     yes           Std       7 XUR$ERRMSG
                       nStd      0 X66_AUTO_0
                       Std       0 B_CONSPOOL_D
                       nStd      0 X66_ARET
                       nStd      0 X66_AALT

  ****  Data refs  ****

  Flags:  r = read only, s = secondary
Flgs Name                             Flgs Name                             Flgs Name
     M$UC                                  M$A                                   M$J
     M$ME                                  M$CSCG                                M$DO
     M$LO                                  M$SI                                  B$DS3$
     B$TCB$                                B$JIT$                                FJ_JAYS_CMD
     B_VECTNIL

  ****  Segment refs  ****

  Flags:  r = read only, s = secondary
Flgs Name                             Flgs Name                             Flgs Name
     NULLSID                               ISSID                                 ROSID
PL6.E3A0      #003=FJJ$CJAY File=FJJ$JAY.:E05TSI                                 TUE 07/29/97 15:29 Page:281


     1460        1        /*T***********************************************************/
     1461        2        /*T*                                                         */
     1462        3        /*T* Copyright (c) Bull HN Information Systems Inc., 1997    */
     1463        4        /*T*                                                         */
     1464        5        /*T***********************************************************/
     1465        6        /*X* PLM=6,IND=3,CTI=3,DCI=3,DTI=0,MCI,MOC,DMC  */
     1466        7        /* Do user functions for batch and online users.                    */
     1467        8
     1468        9        FJJ$CJAY: PROC ALTRET;

      9 10 000000   000000 700200 xent  FJJ$CJAY     TSX0  ! X66_AUTO_0
        10 000001   000016 000000                    ZERO    14,0

     1469       10        %INCLUDE CP_6;
     1470       91        %INCLUDE CP_6_SUBS;
     1471      631        %INCLUDE B_ERRORS_C;
     1472     1758 S      %INCLUDE B$JIT_C;
     1473     1759        %INCLUDE FJM_MACROS_C;
     1474     1898        %INCLUDE XU_MACRO_C;
     1475     5004        %INCLUDE XU_SUBS_C;
     1476     5096        %INCLUDE XU_PERR_C;
     1477     5287        %INCLUDE XUH_MACRO_C;
     1478     5371        %INCLUDE FJ_SUBS_C;
     1479     5392        %INCLUDE FJ_PERR_C;
     1480     5405        %INCLUDE JG_EVID_C;
     1481     5630
     1482     5631        %PARSE$OUT;
     1483     5676        %PARSE$SYM;
     1484     5714
     1485     5715        %XUR_INIT;
     1486     5814        %XUH_PARAM (PROCNAME=JAYSNAME,OUTDCB1=M$DO,OUTDCB2=M$LO);
     1487     5875
     1488     5876        %B$JIT0;
     1489     5965        %A$JIT6X;
     1490     5968        %F$DCB;
     1491     6025        %B$TCB;
PL6.E3A0      #003=FJJ$CJAY File=FJJ$JAY.:E05TSI                                 TUE 07/29/97 15:29 Page:282
     1492     6028        %B$ALT;
     1493     6036        %EJECT;
PL6.E3A0      #003=FJJ$CJAY File=FJJ$JAY.:E05TSI                                 TUE 07/29/97 15:29 Page:283
     1494     6037        %FPT_OPEN (FPTN=OPN_STARA,DCB=M$A,ASN=FILE,FUN=IN,ORG=KEYED,ACS=DIRECT,
     1495     6038             NAME=STARA);
     1496     6147        %FPT_READ (FPTN=RD_STARA,DCB=M$A,BUF=AMREC,KEYS=YES,KEY=SIKEY);
     1497     6186        %FPT_CLOSE (FPTN=CLS_STARA,DCB=M$A);
     1498     6228        %FPT_OPEN (FPTN=OPN_JRNL,DCB=M$J,FUN=CREATE,ASN=FILE,
     1499     6229                 NAME=OPNNAME,ACCT=OPNACCT,PASS=OPNPASS,
     1500     6230                 DISP=NAMED,CTG=YES,ORG=CONSEC);
     1501     6339        %FPT_OPEN (FPTN=AMR,PFMT="PTR",STCLASS="BASED(AMR$)");
     1502     6448        %FPT_CLOSE (FPTN=CLS_JRNL,DCB=M$J,CHGATT=YES);
     1503     6490        /**/
     1504     6491        %FPT_FID (FPTN=RE_FID1,NAME=RE_MSG.FID1.FNAME,
     1505     6492                  ACCT=RE_MSG.FID1.ACCT,ASN=JASN,PASS=RE_MSG.FID1.PASS,
     1506     6493                  SN=RE_MSG.FID1.SN,RES=K,RESULTS=FID1_RSLT);
     1507     6516        %FPT_FID (FPTN=RE_FID2,NAME=RE_MSG.FID2.FNAME,
     1508     6517                  ACCT=RE_MSG.FID1.ACCT,ASN=JASN,PASS=RE_MSG.FID1.PASS,
     1509     6518                  SN=RE_MSG.FID1.SN,RESULTS=FID2_RSLT);
     1510     6541        %FPT_FID (FPTN=CN_FID1,NAME=CNCL_MSG.FID1.FNAME,
     1511     6542                  ACCT=CNCL_MSG.FID1.ACCT,ASN=JASN,PASS=CNCL_MSG.FID1.PASS,
     1512     6543                  SN=CNCL_MSG.FID1.SN);
     1513     6566
     1514     6567        %FPT_YC (FPTN=YC_SET,CMD=AMREC);
     1515     6584        %FPT_OPEN (FPTN=OPN_CSCG,DCB=M$CSCG,ASN=COMGROUP,NAME=CSCG_NAME,
     1516     6585                ACCT=CSCG_ACCT,SETSTA=USR_JAY);
     1517     6694        %VLP_SETSTA (FPTN=USR_JAY);
     1518     6722        %VLP_NAME (FPTN=CSCG_NAME,NAME='CSCG');
     1519     6749        %VLP_ACCT (FPTN=CSCG_ACCT,ACCT=':SYS');
     1520     6762
     1521     6763        %FPT_WRITE (FPTN=WR_CSCG,DCB=M$CSCG,STATION=JAYS_STA);
     1522     6794        %VLP_STATION (FPTN=JAYS_STA,STATION='JAYS');
     1523     6821
     1524     6822        %FPT_READ (FPTN=RD_CSCG,DCB=M$CSCG,STATION=MY_STA);
     1525     6861        %VLP_STATION (FPTN=MY_STA,DIRONLY=YES);
     1526     6888
     1527     6889        %FPT_WRITE (FPTN=LIST_ME,DCB=M$ME,BUF=LST_RSPNCE.TXT);
     1528     6920        %VLP_NAME (FPTN=JAYSNAME,NAME='JAYS');
     1529     6947
     1530     6948        %VLP_NAME (FPTN=SIKEY,NAME='M$SI');
PL6.E3A0      #003=FJJ$CJAY File=FJJ$JAY.:E05TSI                                 TUE 07/29/97 15:29 Page:284
     1531     6975        %VLP_NAME (FPTN=N1KEY,NAME='#1');
     1532     7002        %VLP_NAME (FPTN=STARA,NAME='*A');
     1533     7029        %VLP_NAME (FPTN=JNAME,STCLASS=BASED,LEN=31);
     1534     7056        %VLP_ACCT (FPTN=JACCT,STCLASS=BASED);
     1535     7069        %VLP_PASS (FPTN=JPASS,STCLASS=BASED);
     1536     7082        %VLP_NAME (FPTN=OPNNAME);
     1537     7109        %VLP_ACCT (FPTN=OPNACCT);
     1538     7122        %VLP_PASS (FPTN=OPNPASS);
     1539     7135        %VLP_SN (FPTN=S,STCLASS=BASED);
     1540     7148        %VLP_VECTOR (FPTN=BVECT,STCLASS=BASED);
     1541     7163        %FJ$UATTR (FPTN=JAZ,STCLASS=BASED);
     1542     7195        %FJ$UATTR (FPTN=NSN);
     1543     7227        %FJ$CITE (NAME=RE_MSG,COD=FJ_RENAME_CMD,TYP=RENAME);
     1544     7300        %FJ$CITE (NAME=CNCL_MSG,COD=FJ_CANCEL_CMD,TYP=CANCEL);
     1545     7373        %FJ$CITE (NAME=LST_MSG,COD=FJ_LIST_CMD,TYP=LIST);
     1546     7446        %FJ$CITE (NAME=SNP_MSG,COD=FJ_SNP_CMD,TYP=LIST);
     1547     7519        %FJ$OPNANSWR (FPTN=CSCG_ANS);
     1548     7529        %FJ$LISTANS (FPTN=LST_RSPNCE);
     1549     7535
     1550     7536    1   DCL XUR$INIT ENTRY(3) ALTRET;
     1551     7537    1   DCL XUR$GETCMD ENTRY(6) ALTRET;
     1552     7538    1   DCL XUR$ERRPTR ENTRY(2) ALTRET;
     1553     7539    1   DCL XUR$ERRMSG ENTRY(7) ALTRET;
     1554     7540    1   DCL XUR$HELP ENTRY(1) ALTRET;
     1555     7541    1   DCL XUR$MOREMSG ENTRY(1) ALTRET;
     1556     7542    1   DCL XUR$ALLMSG ENTRY(1) ALTRET;
     1557     7543
     1558     7544
     1559     7545    1   DCL M$A DCB;
     1560     7546    1   DCL M$J DCB;
     1561     7547    1   DCL M$ME DCB;
     1562     7548    1   DCL M$CSCG DCB;
     1563     7549    1   DCL M$DO DCB;
     1564     7550    1   DCL M$LO DCB;
     1565     7551    1   DCL M$SI DCB;
     1566     7552
     1567     7553    1   DCL 1 SN_V STATIC,
PL6.E3A0      #003=FJJ$CJAY File=FJJ$JAY.:E05TSI                                 TUE 07/29/97 15:29 Page:285
     1568     7554    1         2 BND UBIN(20) UNAL,
     1569     7555    1         2 * BIT(16) UNAL INIT('1111111110100000'B),
     1570     7556    1         2 P$ PTR;
     1571     7557        %VLR_FID(FPTN=FID1_RSLT);
     1572     7576        %VLR_FID (FPTN=FID2_RSLT);
     1573     7595    1   DCL 1 FNM2  BASED(FNM2$),
     1574     7596    1         2 * UBIN(9) UNAL,
     1575     7597    1         2 C CHAR(FNM2SZ);
     1576     7598    1   DCL 1 FNM1  BASED(FNM1$),
     1577     7599    1         2 * UBIN(9) UNAL,
     1578     7600    1         2 C CHAR(FNM1SZ);
     1579     7601    1   DCL FNM1$ PTR;
     1580     7602    1   DCL FNM2$ PTR;
     1581     7603    1   DCL FNM1SZ UBIN;
     1582     7604    1   DCL FNM2SZ UBIN;
     1583     7605    1   DCL AMREC(0:1023) UBIN STATIC;
     1584     7606    1   DCL AMREC_CHR REDEF AMREC CHAR(4096);
     1585     7607    1   DCL CMD_SIZ UBIN;
     1586     7608    1   DCL CMD CHAR(CMD_SIZ) BASED;
     1587     7609    1   DCL SET_STR CHAR(0) CONSTANT INIT('SET #1 ');
     1588     7610    1   DCL AMR$ PTR STATIC INIT(ADDR(AMREC));
     1589     7611    1   DCL K UBIN STATIC;
     1590     7612    1   DCL B$DS3$ PTR SYMREF;
     1591     7613    1   DCL B$TCB$ PTR SYMREF;
     1592     7614    1   DCL B$JIT$ PTR SYMREF;
     1593     7615
     1594     7616       %VLP_ERRCODE (FPTN=NOFILENAME,ERR#=%E$NOFILENAME,FCG=FJ,MID=J,SEV=2,STCLASS=CONSTANT
              7616            );
     1595     7661        %VLP_ERRCODE (FPTN=ONLYFILE,ERR#=%E$ONLYFILE,FCG=FJ,MID=J,SEV=2,STCLASS=CONSTANT);
     1596     7706        %VLP_ERRCODE (FPTN=ERRCODE,STCLASS="");
     1597     7751
     1598     7752    1   DCL BLK$ REDEF ERRCODE PTR;
     1599     7753    1   DCL JASN UBIN(9) STATIC;
     1600     7754
     1601     7755    1   DCL FJ_JAYS_CMD UBIN SYMREF;
     1602     7756
     1603     7757        %EJECT;
PL6.E3A0      #003=FJJ$CJAY File=FJJ$JAY.:E05TSI                                 TUE 07/29/97 15:29 Page:286
     1604     7758        /*  Find out what he wants to do.                                     */
     1605     7759
     1606     7760
     1607     7761    1         CALL XUR$INIT (XUR_INIT);

   7761 10 000002   000000 630400 11                 EPPR0   0
        10 000003   000017 631400 xsym               EPPR1   B_VECTNIL+15
        10 000004   000000 701000 xent               TSX1    XUR$INIT
        10 000005   000000 011000                    NOP     0

     1608     7762    2         DO WHILE ('1'B);                /* Keep reading commands              */

     1609     7763    2   RD1:     CALL XUR$GETCMD (FJ_JAYS_CMD,BLK$) ALTRET(CMD_ERR);

   7763 10 000006   200010 630500       RD1          EPPR0   ERRCODE,,AUTO
        10 000007   200013 450500                    STP0    ERRCODE+3,,AUTO
        10 000010   000001 236000 11                 LDQ     1
        10 000011   200012 756100                    STQ     ERRCODE+2,,AUTO
        10 000012   200012 630500                    EPPR0   ERRCODE+2,,AUTO
        10 000013   000020 631400 xsym               EPPR1   B_VECTNIL+16
        10 000014   000000 701000 xent               TSX1    XUR$GETCMD
        10 000015   000017 702000 10                 TSX2    CMD_ERR

     1610     7764    3            DO WHILE ('0'B);

   7764 10 000016   000050 710000 10                 TRA     s:7773

     1611     7765    3   CMD_ERR:    CALL XUR$ERRPTR (,DCBNUM(M$ME));

   7765 10 000017   000000 236007 xsym  CMD_ERR      LDQ     M$ME,DL
        10 000020   200012 756100                    STQ     ERRCODE+2,,AUTO
        10 000021   200012 630500                    EPPR0   ERRCODE+2,,AUTO
        10 000022   200015 450500                    STP0    ERRCODE+5,,AUTO
        10 000023   000001 236000 xsym               LDQ     B_VECTNIL+1
        10 000024   200014 756100                    STQ     ERRCODE+4,,AUTO
        10 000025   200014 630500                    EPPR0   ERRCODE+4,,AUTO
        10 000026   000020 631400 xsym               EPPR1   B_VECTNIL+16
PL6.E3A0      #003=FJJ$CJAY File=FJJ$JAY.:E05TSI                                 TUE 07/29/97 15:29 Page:287
        10 000027   000000 701000 xent               TSX1    XUR$ERRPTR
        10 000030   000000 011000                    NOP     0

     1612     7766    3               CALL XUR$ERRMSG (ERRCODE,DCBNUM(M$ME));

   7766 10 000031   000000 236007 xsym               LDQ     M$ME,DL
        10 000032   200012 756100                    STQ     ERRCODE+2,,AUTO
        10 000033   200012 630500                    EPPR0   ERRCODE+2,,AUTO
        10 000034   200015 450500                    STP0    ERRCODE+5,,AUTO
        10 000035   200010 631500                    EPPR1   ERRCODE,,AUTO
        10 000036   200014 451500                    STP1    ERRCODE+4,,AUTO
        10 000037   200014 630500                    EPPR0   ERRCODE+4,,AUTO
        10 000040   000020 631400 xsym               EPPR1   B_VECTNIL+16
        10 000041   000000 701000 xent               TSX1    XUR$ERRMSG
        10 000042   000000 011000                    NOP     0

     1613     7767    3               IF ERRCODE.ERR# = %E$EOF THEN

   7767 10 000043   200010 236100                    LDQ     ERRCODE,,AUTO
        10 000044   377770 376007                    ANQ     131064,DL
        10 000045   000060 116007                    CMPQ    48,DL
        10 000046   000006 601000 10                 TNZ     RD1

     1614     7768    3                  RETURN;

   7768 10 000047   000000 702200 xent               TSX2  ! X66_ARET

     1615     7769    3               ELSE
     1616     7770    3                  GOTO RD1;
     1617     7771    3               END;

     1618     7772
     1619     7773    2            IF OUT$BLK.NSUBLKS = 0 THEN

   7773 10 000050   200010 470500                    LDP0    ERRCODE,,AUTO
        10 000051   000001 220100                    LDX0    1,,PR0
        10 000052   000006 600000 10                 TZE     RD1
PL6.E3A0      #003=FJJ$CJAY File=FJJ$JAY.:E05TSI                                 TUE 07/29/97 15:29 Page:288

     1620     7774    2               GOTO RD1;
     1621     7775    3            DO CASE (OUT$BLK.SUBLK$(0)->OUT$BLK.CODE);

   7775 10 000053   000003 471500                    LDP1    3,,PR0
        10 000054   100000 721100                    LXL1    0,,PR1
        10 000055   000015 101003                    CMPX1   13,DU
        10 000056   000060 602011 10                 TNC     s:7775+5,X1
        10 000057   000006 710000 10                 TRA     RD1
        10 000060   000701 710000 10                 TRA     s:7922
        10 000061   000701 710000 10                 TRA     s:7922
        10 000062   000503 710000 10                 TRA     s:7885
        10 000063   000076 710000 10                 TRA     s:7779
        10 000064   000345 710000 10                 TRA     s:7848
        10 000065   000154 710000 10                 TRA     s:7798
        10 000066   000435 710000 10                 TRA     s:7865
        10 000067   000436 710000 10                 TRA     s:7867
        10 000070   000075 710000 10                 TRA     s:7777
        10 000071   000437 710000 10                 TRA     s:7870
        10 000072   000447 710000 10                 TRA     s:7873
        10 000073   000454 710000 10                 TRA     s:7875
        10 000074   000462 710000 10                 TRA     s:7880

     1622     7776    3             CASE (%RUN_CMD);

     1623     7777    3               ALTRETURN;           /* allow online use to test journaling     */

   7777 10 000075   000000 702200 xent               TSX2  ! X66_AALT

     1624     7778    3             CASE (%LIST_CMD);

     1625     7779    3               WR_CSCG.BUF_=VECTOR(LST_MSG);

   7779 10 000076   000002 237000 11                 LDAQ    2
        10 000077   000676 757000 1                  STAQ    WR_CSCG+4

     1626     7780    3               LST_MSG.UNAME=B$JIT.UNAME;
PL6.E3A0      #003=FJJ$CJAY File=FJJ$JAY.:E05TSI                                 TUE 07/29/97 15:29 Page:289

   7780 10 000100   000000 471400 xsym               LDP1    B$JIT$
        10 000101   040000 100500                    MLR     fill='040'O
        10 000102   100003 000014                    ADSC9   3,,PR1                   cn=0,n=12
        10 000103   001103 000014 1                  ADSC9   LST_MSG+4                cn=0,n=12

     1627     7781    3               LST_MSG.ACCN=B$JIT.ACCN;

   7781 10 000104   040000 100500                    MLR     fill='040'O
        10 000105   100001 000010                    ADSC9   1,,PR1                   cn=0,n=8
        10 000106   001101 000010 1                  ADSC9   LST_MSG+2                cn=0,n=8

     1628     7782    3               LST_MSG.FACCN=B$JIT.FACCN;

   7782 10 000107   100006 237100                    LDAQ    6,,PR1
        10 000110   001106 757000 1                  STAQ    LST_MSG+7

     1629     7783    3               LST_MSG.PRIV=B$JIT.PRIV.JOB;

   7783 10 000111   100015 236100                    LDQ     13,,PR1
        10 000112   001110 756000 1                  STQ     LST_MSG+9

     1630     7784    3               IF NOT DCBADDR(DCBNUM(M$CSCG))->F$DCB.FCD# THEN

   7784 10 000113   000000 236007 xsym               LDQ     M$CSCG,DL
        10 000114   000004 473400 11                 LDP3    4
        10 000115   300000 474500                    LDP4    0,,PR3
        10 000116   400000 475506                    LDP5    0,QL,PR4
        10 000117   500031 236100                    LDQ     25,,PR5
        10 000120   020000 316007                    CANQ    8192,DL
        10 000121   000125 601000 10                 TNZ     s:7786

     1631     7785    3                  CALL M$OPEN (OPN_CSCG);

   7785 10 000122   000560 630400 1                  EPPR0   OPN_CSCG
        10 000123   050000 713400                    CLIMB   open
        10 000124   410400 401760                    pmme    nvectors=18
PL6.E3A0      #003=FJJ$CJAY File=FJJ$JAY.:E05TSI                                 TUE 07/29/97 15:29 Page:290

     1632     7786    3               CALL M$WRITE (WR_CSCG) ALTRET(RE_ALT);

   7786 10 000125   000672 630400 1                  EPPR0   WR_CSCG
        10 000126   440001 713400                    CLIMB   alt,write
        10 000127   401400 401760                    pmme    nvectors=4
        10 000130   000334 702000 10                 TSX2    RE_ALT

     1633     7787    3               RD_CSCG.BUF_=VECTOR(LST_RSPNCE);

   7787 10 000131   000006 237000 11                 LDAQ    6
        10 000132   000722 757000 1                  STAQ    RD_CSCG+4

     1634     7788    3   LST1:       CALL M$READ (RD_CSCG) ALTRET(RE_ALT);

   7788 10 000133   000716 630400 1     LST1         EPPR0   RD_CSCG
        10 000134   440000 713400                    CLIMB   alt,read
        10 000135   401400 401760                    pmme    nvectors=4
        10 000136   000334 702000 10                 TSX2    RE_ALT

     1635     7789    3               IF LST_RSPNCE.ERR THEN

   7789 10 000137   001132 235000 1                  LDA     LST_RSPNCE
        10 000140   000146 600000 10                 TZE     s:7793

     1636     7790    3                  CALL XUR$ERRMSG (LST_RSPNCE.ERR);

   7790 10 000141   000007 630400 11                 EPPR0   7
        10 000142   000017 631400 xsym               EPPR1   B_VECTNIL+15
        10 000143   000000 701000 xent               TSX1    XUR$ERRMSG
        10 000144   000000 011000                    NOP     0
        10 000145   000006 710000 10                 TRA     RD1

     1637     7791    3               ELSE
     1638     7792    4               DO;

     1639     7793    4                  CALL M$WRITE (LIST_ME);
PL6.E3A0      #003=FJJ$CJAY File=FJJ$JAY.:E05TSI                                 TUE 07/29/97 15:29 Page:291

   7793 10 000146   000744 630400 1                  EPPR0   LIST_ME
        10 000147   040001 713400                    CLIMB   write
        10 000150   401400 401760                    pmme    nvectors=4

     1640     7794    4                  IF LST_RSPNCE.LAST = 0 THEN

   7794 10 000151   001133 235000 1                  LDA     LST_RSPNCE+1
        10 000152   000133 600000 10                 TZE     LST1

     1641     7795    4                     GOTO LST1;
     1642     7796    4                  END;

   7796 10 000153   000006 710000 10                 TRA     RD1

     1643     7797    3             CASE (%RENAME_CMD);

     1644     7798    3               FNM1$=OUT$BLK.SUBLK$(0)->OUT$BLK.SUBLK$(0)->OUT$SYM.TEXTC$;

   7798 10 000154   100003 473500                    LDP3    3,,PR1
        10 000155   300003 236100                    LDQ     3,,PR3
        10 000156   200003 756100                    STQ     FNM1$,,AUTO

     1645     7799    3               FNM2$=OUT$BLK.SUBLK$(0)->OUT$BLK.SUBLK$(1)->OUT$SYM.TEXTC$;

   7799 10 000157   100004 474500                    LDP4    4,,PR1
        10 000160   400003 236100                    LDQ     3,,PR4
        10 000161   200004 756100                    STQ     FNM2$,,AUTO

     1646     7800    3               FNM1SZ=OUT$BLK.SUBLK$(0)->OUT$BLK.SUBLK$(0)->OUT$SYM.COUNT;

   7800 10 000162   300004 236100                    LDQ     4,,PR3
        10 000163   000033 772000                    QRL     27
        10 000164   200005 756100                    STQ     FNM1SZ,,AUTO

     1647     7801    3               FNM2SZ=OUT$BLK.SUBLK$(0)->OUT$BLK.SUBLK$(1)->OUT$SYM.COUNT;

PL6.E3A0      #003=FJJ$CJAY File=FJJ$JAY.:E05TSI                                 TUE 07/29/97 15:29 Page:292
   7801 10 000165   400004 236100                    LDQ     4,,PR4
        10 000166   000033 772000                    QRL     27
        10 000167   200006 756100                    STQ     FNM2SZ,,AUTO

     1648     7802    3               RE_FID2.TEXTFID_=VECTOR(FNM2.C);

   7802 10 000170   200006 235100                    LDA     FNM2SZ,,AUTO
        10 000171   000020 735000                    ALS     16
        10 000172   000140 135007                    SBLA    96,DL
        10 000173   200004 236100                    LDQ     FNM2$,,AUTO
        10 000174   200000 036007                    ADLQ    65536,DL
        10 000175   000472 757000 1                  STAQ    RE_FID2+2

     1649     7803    3               RE_FID1.TEXTFID_=VECTOR(FNM1.C);

   7803 10 000176   200005 235100                    LDA     FNM1SZ,,AUTO
        10 000177   000020 735000                    ALS     16
        10 000200   000140 135007                    SBLA    96,DL
        10 000201   200003 236100                    LDQ     FNM1$,,AUTO
        10 000202   200000 036007                    ADLQ    65536,DL
        10 000203   000442 757000 1                  STAQ    RE_FID1+2

     1650     7804    3               CALL M$FID (RE_FID2) ALTRET(RE_ALT);

   7804 10 000204   000470 630400 1                  EPPR0   RE_FID2
        10 000205   420001 713400                    CLIMB   alt,+8193
        10 000206   404400 401760                    pmme    nvectors=10
        10 000207   000334 702000 10                 TSX2    RE_ALT

     1651     7805    4               IF NOT FID2_RSLT.NAME THEN DO;

   7805 10 000210   001172 234000 1                  SZN     FID2_RSLT
        10 000211   000217 604000 10                 TMI     s:7813

     1652     7806    4                  CALL XUR$ERRMSG(NOFILENAME);

   7806 10 000212   000010 630400 11                 EPPR0   8
PL6.E3A0      #003=FJJ$CJAY File=FJJ$JAY.:E05TSI                                 TUE 07/29/97 15:29 Page:293
        10 000213   000017 631400 xsym               EPPR1   B_VECTNIL+15
        10 000214   000000 701000 xent               TSX1    XUR$ERRMSG
        10 000215   000000 011000                    NOP     0

     1653     7807        /*E*
     1654     7808        ERROR:  FJ-E$NOFILENAME
     1655     7809        MESSAGE: Both source and destination require a file name.
     1656     7810        */
     1657     7811    4                  GOTO RD1;

   7811 10 000216   000006 710000 10                 TRA     RD1

     1658     7812    4                  END;
     1659     7813    4               IF JASN~=%FILE# THEN DO;

   7813 10 000217   003206 236000 1                  LDQ     JASN
        10 000220   777000 376003                    ANQ     -512,DU
        10 000221   001000 116003                    CMPQ    512,DU
        10 000222   000230 600000 10                 TZE     s:7821

     1660     7814    4                  CALL XUR$ERRMSG(ONLYFILE);

   7814 10 000223   000011 630400 11                 EPPR0   9
        10 000224   000017 631400 xsym               EPPR1   B_VECTNIL+15
        10 000225   000000 701000 xent               TSX1    XUR$ERRMSG
        10 000226   000000 011000                    NOP     0

     1661     7815        /*E*
     1662     7816        ERROR:  FJ-E$ONLYFILE
     1663     7817        MESSAGE: Both source and destination files must be disk files.
     1664     7818        */
     1665     7819    4                  GOTO RD1;

   7819 10 000227   000006 710000 10                 TRA     RD1

     1666     7820    4                  END;
     1667     7821    3               CALL M$FID (RE_FID1) ALTRET(RE_ALT);
PL6.E3A0      #003=FJJ$CJAY File=FJJ$JAY.:E05TSI                                 TUE 07/29/97 15:29 Page:294

   7821 10 000230   000440 630400 1                  EPPR0   RE_FID1
        10 000231   420001 713400                    CLIMB   alt,+8193
        10 000232   404400 401760                    pmme    nvectors=10
        10 000233   000334 702000 10                 TSX2    RE_ALT

     1668     7822    4               IF NOT FID1_RSLT.NAME THEN DO;

   7822 10 000234   001160 234000 1                  SZN     FID1_RSLT
        10 000235   000243 604000 10                 TMI     s:7826

     1669     7823    4                  CALL XUR$ERRMSG(NOFILENAME);

   7823 10 000236   000010 630400 11                 EPPR0   8
        10 000237   000017 631400 xsym               EPPR1   B_VECTNIL+15
        10 000240   000000 701000 xent               TSX1    XUR$ERRMSG
        10 000241   000000 011000                    NOP     0

     1670     7824    4                  GOTO RD1;

   7824 10 000242   000006 710000 10                 TRA     RD1

     1671     7825    4                  END;
     1672     7826    4               IF JASN~=%FILE# THEN DO;

   7826 10 000243   003206 236000 1                  LDQ     JASN
        10 000244   777000 376003                    ANQ     -512,DU
        10 000245   001000 116003                    CMPQ    512,DU
        10 000246   000254 600000 10                 TZE     s:7830

     1673     7827    4                  CALL XUR$ERRMSG(ONLYFILE);

   7827 10 000247   000011 630400 11                 EPPR0   9
        10 000250   000017 631400 xsym               EPPR1   B_VECTNIL+15
        10 000251   000000 701000 xent               TSX1    XUR$ERRMSG
        10 000252   000000 011000                    NOP     0

PL6.E3A0      #003=FJJ$CJAY File=FJJ$JAY.:E05TSI                                 TUE 07/29/97 15:29 Page:295
     1674     7828    4                  GOTO RD1;

   7828 10 000253   000006 710000 10                 TRA     RD1

     1675     7829    4                  END;
     1676     7830    3               RE_MSG.UNAME=B$JIT.UNAME;

   7830 10 000254   000000 470400 xsym               LDP0    B$JIT$
        10 000255   040000 100500                    MLR     fill='040'O
        10 000256   000003 000014                    ADSC9   3,,PR0                   cn=0,n=12
        10 000257   001040 000014 1                  ADSC9   RE_MSG+27                cn=0,n=12

     1677     7831    3               RE_MSG.ACCN=B$JIT.ACCN;

   7831 10 000260   040000 100500                    MLR     fill='040'O
        10 000261   000001 000010                    ADSC9   1,,PR0                   cn=0,n=8
        10 000262   001036 000010 1                  ADSC9   RE_MSG+25                cn=0,n=8

     1678     7832    3               RE_MSG.FACCN=B$JIT.FACCN;

   7832 10 000263   000006 237100                    LDAQ    6,,PR0
        10 000264   001043 755000 1                  STA     RE_MSG+30
        10 000265   001044 756000 1                  STQ     RE_MSG+31

     1679     7833    3               RE_MSG.PRIV=B$JIT.PRIV.JOB;

   7833 10 000266   000015 236100                    LDQ     13,,PR0
        10 000267   001045 756000 1                  STQ     RE_MSG+32

     1680     7834    3               IF RE_MSG.FID1.ACCT=' ' THEN

   7834 10 000270   040000 106400                    CMPC    fill='040'O
        10 000271   001017 000010 1                  ADSC9   RE_MSG+10                cn=0,n=8
        10 000272   000035 000001 xsym               ADSC9   B_VECTNIL+29             cn=0,n=1
        10 000273   000277 601000 10                 TNZ     s:7836

     1681     7835    3                  RE_MSG.FID1.ACCT=B$JIT.FACCN;
PL6.E3A0      #003=FJJ$CJAY File=FJJ$JAY.:E05TSI                                 TUE 07/29/97 15:29 Page:296

   7835 10 000274   000006 237100                    LDAQ    6,,PR0
        10 000275   001017 755000 1                  STA     RE_MSG+10
        10 000276   001020 756000 1                  STQ     RE_MSG+11

     1682     7836    3               WR_CSCG.BUF_=VECTOR(RE_MSG);

   7836 10 000277   000012 237000 11                 LDAQ    10
        10 000300   000676 757000 1                  STAQ    WR_CSCG+4

     1683     7837    3               IF NOT DCBADDR(DCBNUM(M$CSCG))->F$DCB.FCD# THEN

   7837 10 000301   000000 236007 xsym               LDQ     M$CSCG,DL
        10 000302   000004 471400 11                 LDP1    4
        10 000303   100000 473500                    LDP3    0,,PR1
        10 000304   300000 474506                    LDP4    0,QL,PR3
        10 000305   400031 236100                    LDQ     25,,PR4
        10 000306   020000 316007                    CANQ    8192,DL
        10 000307   000313 601000 10                 TNZ     s:7839

     1684     7838    3                  CALL M$OPEN (OPN_CSCG);

   7838 10 000310   000560 630400 1                  EPPR0   OPN_CSCG
        10 000311   050000 713400                    CLIMB   open
        10 000312   410400 401760                    pmme    nvectors=18

     1685     7839    3               CALL M$WRITE (WR_CSCG) ALTRET(RE_ALT);

   7839 10 000313   000672 630400 1                  EPPR0   WR_CSCG
        10 000314   440001 713400                    CLIMB   alt,write
        10 000315   401400 401760                    pmme    nvectors=4
        10 000316   000334 702000 10                 TSX2    RE_ALT

     1686     7840    3               RD_CSCG.BUF_=VECTOR(CSCG_ANS);

   7840 10 000317   000014 237000 11                 LDAQ    12
        10 000320   000722 757000 1                  STAQ    RD_CSCG+4
PL6.E3A0      #003=FJJ$CJAY File=FJJ$JAY.:E05TSI                                 TUE 07/29/97 15:29 Page:297

     1687     7841    3               CALL M$READ (RD_CSCG) ALTRET(RE_ALT);

   7841 10 000321   000716 630400 1                  EPPR0   RD_CSCG
        10 000322   440000 713400                    CLIMB   alt,read
        10 000323   401400 401760                    pmme    nvectors=4
        10 000324   000334 702000 10                 TSX2    RE_ALT

     1688     7842    3               IF CSCG_ANS.ERR THEN

   7842 10 000325   001123 235000 1                  LDA     CSCG_ANS
        10 000326   000333 600000 10                 TZE     s:7844

     1689     7843    3                  CALL XUR$ERRMSG (CSCG_ANS.ERR);

   7843 10 000327   000015 630400 11                 EPPR0   13
        10 000330   000017 631400 xsym               EPPR1   B_VECTNIL+15
        10 000331   000000 701000 xent               TSX1    XUR$ERRMSG
        10 000332   000000 011000                    NOP     0

     1690     7844    4               DO WHILE ('0'B);

   7844 10 000333   000006 710000 10                 TRA     RD1

     1691     7845    4   RE_ALT:        CALL XUR$ERRMSG (B$TCB$->B$TCB.ALT$->B$ALT.ERR);

   7845 10 000334   000000 470400 xsym  RE_ALT       LDP0    B$TCB$
        10 000335   000000 471500                    LDP1    0,,PR0
        10 000336   100102 633500                    EPPR3   66,,PR1
        10 000337   200012 453500                    STP3    ERRCODE+2,,AUTO
        10 000340   200012 630500                    EPPR0   ERRCODE+2,,AUTO
        10 000341   000017 631400 xsym               EPPR1   B_VECTNIL+15
        10 000342   000000 701000 xent               TSX1    XUR$ERRMSG
        10 000343   000000 011000                    NOP     0

     1692     7846    4                  END;

PL6.E3A0      #003=FJJ$CJAY File=FJJ$JAY.:E05TSI                                 TUE 07/29/97 15:29 Page:298
   7846 10 000344   000006 710000 10                 TRA     RD1

     1693     7847    3             CASE (%CANCL_CMD);

     1694     7848    3               FNM1$=OUT$BLK.SUBLK$(0)->OUT$BLK.SUBLK$(0)->OUT$SYM.TEXTC$;

   7848 10 000345   100003 473500                    LDP3    3,,PR1
        10 000346   300003 236100                    LDQ     3,,PR3
        10 000347   200003 756100                    STQ     FNM1$,,AUTO

     1695     7849    3               FNM1SZ=OUT$BLK.SUBLK$(0)->OUT$BLK.SUBLK$(0)->OUT$SYM.COUNT;

   7849 10 000350   300004 236100                    LDQ     4,,PR3
        10 000351   000033 772000                    QRL     27
        10 000352   200005 756100                    STQ     FNM1SZ,,AUTO

     1696     7850    3               CN_FID1.TEXTFID_=VECTOR(FNM1.C);

   7850 10 000353   200005 235100                    LDA     FNM1SZ,,AUTO
        10 000354   000020 735000                    ALS     16
        10 000355   000140 135007                    SBLA    96,DL
        10 000356   200003 236100                    LDQ     FNM1$,,AUTO
        10 000357   200000 036007                    ADLQ    65536,DL
        10 000360   000522 757000 1                  STAQ    CN_FID1+2

     1697     7851    3               CALL M$FID (CN_FID1) ALTRET(RE_ALT);

   7851 10 000361   000520 630400 1                  EPPR0   CN_FID1
        10 000362   420001 713400                    CLIMB   alt,+8193
        10 000363   404400 401760                    pmme    nvectors=10
        10 000364   000334 702000 10                 TSX2    RE_ALT

     1698     7852    3               CNCL_MSG.UNAME=B$JIT.UNAME;

   7852 10 000365   000000 470400 xsym               LDP0    B$JIT$
        10 000366   040000 100500                    MLR     fill='040'O
        10 000367   000003 000014                    ADSC9   3,,PR0                   cn=0,n=12
PL6.E3A0      #003=FJJ$CJAY File=FJJ$JAY.:E05TSI                                 TUE 07/29/97 15:29 Page:299
        10 000370   001071 000014 1                  ADSC9   CNCL_MSG+19              cn=0,n=12

     1699     7853    3               CNCL_MSG.ACCN=B$JIT.ACCN;

   7853 10 000371   040000 100500                    MLR     fill='040'O
        10 000372   000001 000010                    ADSC9   1,,PR0                   cn=0,n=8
        10 000373   001067 000010 1                  ADSC9   CNCL_MSG+17              cn=0,n=8

     1700     7854    3               CNCL_MSG.FACCN=B$JIT.FACCN;

   7854 10 000374   000006 237100                    LDAQ    6,,PR0
        10 000375   001074 757000 1                  STAQ    CNCL_MSG+22

     1701     7855    3               CNCL_MSG.PRIV=B$JIT.PRIV.JOB;

   7855 10 000376   000015 236100                    LDQ     13,,PR0
        10 000377   001076 756000 1                  STQ     CNCL_MSG+24

     1702     7856    3               WR_CSCG.BUF_=VECTOR(CNCL_MSG);

   7856 10 000400   000016 237000 11                 LDAQ    14
        10 000401   000676 757000 1                  STAQ    WR_CSCG+4

     1703     7857    3               IF NOT DCBADDR(DCBNUM(M$CSCG))->F$DCB.FCD# THEN

   7857 10 000402   000000 236007 xsym               LDQ     M$CSCG,DL
        10 000403   000004 471400 11                 LDP1    4
        10 000404   100000 473500                    LDP3    0,,PR1
        10 000405   300000 474506                    LDP4    0,QL,PR3
        10 000406   400031 236100                    LDQ     25,,PR4
        10 000407   020000 316007                    CANQ    8192,DL
        10 000410   000414 601000 10                 TNZ     s:7859

     1704     7858    3                  CALL M$OPEN (OPN_CSCG);

   7858 10 000411   000560 630400 1                  EPPR0   OPN_CSCG
        10 000412   050000 713400                    CLIMB   open
PL6.E3A0      #003=FJJ$CJAY File=FJJ$JAY.:E05TSI                                 TUE 07/29/97 15:29 Page:300
        10 000413   410400 401760                    pmme    nvectors=18

     1705     7859    3               CALL M$WRITE (WR_CSCG) ALTRET(RE_ALT);

   7859 10 000414   000672 630400 1                  EPPR0   WR_CSCG
        10 000415   440001 713400                    CLIMB   alt,write
        10 000416   401400 401760                    pmme    nvectors=4
        10 000417   000334 702000 10                 TSX2    RE_ALT

     1706     7860    3               RD_CSCG.BUF_=VECTOR(CSCG_ANS);

   7860 10 000420   000014 237000 11                 LDAQ    12
        10 000421   000722 757000 1                  STAQ    RD_CSCG+4

     1707     7861    3               CALL M$READ (RD_CSCG) ALTRET(RE_ALT);

   7861 10 000422   000716 630400 1                  EPPR0   RD_CSCG
        10 000423   440000 713400                    CLIMB   alt,read
        10 000424   401400 401760                    pmme    nvectors=4
        10 000425   000334 702000 10                 TSX2    RE_ALT

     1708     7862    3               IF CSCG_ANS.ERR THEN

   7862 10 000426   001123 235000 1                  LDA     CSCG_ANS
        10 000427   000006 600000 10                 TZE     RD1

     1709     7863    3                  CALL XUR$ERRMSG (CSCG_ANS.ERR);

   7863 10 000430   000015 630400 11                 EPPR0   13
        10 000431   000017 631400 xsym               EPPR1   B_VECTNIL+15
        10 000432   000000 701000 xent               TSX1    XUR$ERRMSG
        10 000433   000000 011000                    NOP     0
        10 000434   000006 710000 10                 TRA     RD1

     1710     7864    3             CASE (%END_CMD);

     1711     7865    3               RETURN;
PL6.E3A0      #003=FJJ$CJAY File=FJJ$JAY.:E05TSI                                 TUE 07/29/97 15:29 Page:301

   7865 10 000435   000000 702200 xent               TSX2  ! X66_ARET

     1712     7866    3             CASE (%CMMNT_CMD);

     1713     7867    3               RETURN;                   /* Quit on blank or comment command   */

   7867 10 000436   000000 702200 xent               TSX2  ! X66_ARET

     1714     7868
     1715     7869    3             CASE(%HELP_CMD);

     1716     7870    3               XUH_PARAM.HELP$=OUT$BLK.SUBLK$(0)->OUT$BLK.SUBLK$(0)->OUT$SYM.TEXTC$;

   7870 10 000437   100003 473500                    LDP3    3,,PR1
        10 000440   300003 236100                    LDQ     3,,PR3
        10 000441   000061 756000 1                  STQ     XUH_PARAM+9

     1717     7871    3               CALL XUR$HELP (XUH_PARAM);

   7871 10 000442   000020 630400 11                 EPPR0   16
        10 000443   000017 631400 xsym               EPPR1   B_VECTNIL+15
        10 000444   000000 701000 xent               TSX1    XUR$HELP
        10 000445   000000 011000                    NOP     0
        10 000446   000006 710000 10                 TRA     RD1

     1718     7872    3             CASE(%Q1_CMD);

     1719     7873    3               CALL XUR$MOREMSG (XUH_PARAM) ALTRET(NOMORE);

   7873 10 000447   000020 630400 11                 EPPR0   16
        10 000450   000017 631400 xsym               EPPR1   B_VECTNIL+15
        10 000451   000000 701000 xent               TSX1    XUR$MOREMSG
        10 000452   000461 702000 10                 TSX2    NOMORE
        10 000453   000006 710000 10                 TRA     RD1

     1720     7874    3             CASE(%Q2_CMD);
PL6.E3A0      #003=FJJ$CJAY File=FJJ$JAY.:E05TSI                                 TUE 07/29/97 15:29 Page:302

     1721     7875    3               CALL XUR$ALLMSG (XUH_PARAM) ALTRET(NOMORE);

   7875 10 000454   000020 630400 11                 EPPR0   16
        10 000455   000017 631400 xsym               EPPR1   B_VECTNIL+15
        10 000456   000000 701000 xent               TSX1    XUR$ALLMSG
        10 000457   000461 702000 10                 TSX2    NOMORE

     1722     7876    4               DO WHILE ('0'B);

   7876 10 000460   000006 710000 10                 TRA     RD1

   7871 10 000461                       NOMORE       null
     1723     7877    4   NOMORE:        ;
     1724     7878    4                  END;

   7878 10 000461   000006 710000 10                 TRA     RD1

     1725     7879    3             CASE(%SNAP_CMD);

     1726     7880    3               WR_CSCG.BUF_=VECTOR(SNP_MSG);

   7880 10 000462   000022 237000 11                 LDAQ    18
        10 000463   000676 757000 1                  STAQ    WR_CSCG+4

     1727     7881    3               IF NOT DCBADDR(DCBNUM(M$CSCG))->F$DCB.FCD# THEN

   7881 10 000464   000000 236007 xsym               LDQ     M$CSCG,DL
        10 000465   000004 471400 11                 LDP1    4
        10 000466   100000 473500                    LDP3    0,,PR1
        10 000467   300000 474506                    LDP4    0,QL,PR3
        10 000470   400031 236100                    LDQ     25,,PR4
        10 000471   020000 316007                    CANQ    8192,DL
        10 000472   000476 601000 10                 TNZ     s:7883

     1728     7882    3                  CALL M$OPEN (OPN_CSCG);

PL6.E3A0      #003=FJJ$CJAY File=FJJ$JAY.:E05TSI                                 TUE 07/29/97 15:29 Page:303
   7882 10 000473   000560 630400 1                  EPPR0   OPN_CSCG
        10 000474   050000 713400                    CLIMB   open
        10 000475   410400 401760                    pmme    nvectors=18

     1729     7883    3               CALL M$WRITE (WR_CSCG) ALTRET(RE_ALT);

   7883 10 000476   000672 630400 1                  EPPR0   WR_CSCG
        10 000477   440001 713400                    CLIMB   alt,write
        10 000500   401400 401760                    pmme    nvectors=4
        10 000501   000334 702000 10                 TSX2    RE_ALT
        10 000502   000006 710000 10                 TRA     RD1

     1730     7884    3             CASE (%CREATE_CMD);

     1731     7885    3               CMD_SIZ = OUT$BLK.SUBLK$(0)->OUT$BLK.SUBLK$(0)->OUT$SYM.COUNT;

   7885 10 000503   100003 473500                    LDP3    3,,PR1
        10 000504   300004 236100                    LDQ     4,,PR3
        10 000505   000033 772000                    QRL     27
        10 000506   200007 756100                    STQ     CMD_SIZ,,AUTO

     1732     7886    3               IF CMD_SIZ = 0 THEN

   7886 10 000507   000017 600000 10                 TZE     CMD_ERR

     1733     7887    3                  GOTO CMD_ERR;
     1734     7888    3               CALL CONCAT (AMREC_CHR,

   7888 10 000510   300003 474500                    LDP4    3,,PR3
        10 000511   040000 100400                    MLR     fill='040'O
        10 000512   000000 000007 9                  ADSC9   SET_STR                  cn=0,n=7
        10 000513   001204 000007 1                  ADSC9   AMREC                    cn=0,n=7
        10 000514   000000 620006                    EAX0    0,QL
        10 000515   040000 100540                    MLR     fill='040'O
        10 000516   400000 200010                    ADSC9   0,,PR4                   cn=1,n=*X0
        10 000517   001205 607771 1                  ADSC9   AMREC+1                  cn=3,n=4089

PL6.E3A0      #003=FJJ$CJAY File=FJJ$JAY.:E05TSI                                 TUE 07/29/97 15:29 Page:304
     1735     7889    3                  SET_STR,
     1736     7890    3                  PINCRC(OUT$BLK.SUBLK$(0)->OUT$BLK.SUBLK$(0)->
     1737     7891    3                  OUT$SYM.TEXTC$,1)->CMD);
     1738     7892    3               ADDR(YC_SET.CMD_)->BVECT.W1.VSIZE#=CMD_SIZ+SIZEC(SET_STR)-1;

   7892 10 000520   200007 236100                    LDQ     CMD_SIZ,,AUTO
        10 000521   000006 036007                    ADLQ    6,DL
        10 000522   000020 736000                    QLS     16
        10 000523   000550 676000 1                  ERQ     YC_SET
        10 000524   000034 376000 xsym               ANQ     B_VECTNIL+28
        10 000525   000550 656000 1                  ERSQ    YC_SET

     1739     7893    3               CALL M$YC (YC_SET);

   7893 10 000526   000550 630400 1                  EPPR0   YC_SET
        10 000527   000011 713400                    CLIMB   9
        10 000530   401000 401760                    pmme    nvectors=3

     1740     7894    3               CALL M$OPEN (OPN_STARA);

   7894 10 000531   000142 630400 1                  EPPR0   OPN_STARA
        10 000532   050000 713400                    CLIMB   open
        10 000533   410400 401760                    pmme    nvectors=18

     1741     7895    3               RD_STARA.KEY_=VECTOR(N1KEY);

   7895 10 000534   000024 237000 11                 LDAQ    20
        10 000535   000236 757000 1                  STAQ    RD_STARA+2

     1742     7896    3               CALL M$READ (RD_STARA) ALTRET(CMD_ERR);

   7896 10 000536   000234 630400 1                  EPPR0   RD_STARA
        10 000537   440000 713400                    CLIMB   alt,read
        10 000540   401400 401760                    pmme    nvectors=4
        10 000541   000017 702000 10                 TSX2    CMD_ERR

     1743     7897    3               CALL M$CLOSE (CLS_STARA);
PL6.E3A0      #003=FJJ$CJAY File=FJJ$JAY.:E05TSI                                 TUE 07/29/97 15:29 Page:305

   7897 10 000542   000252 630400 1                  EPPR0   CLS_STARA
        10 000543   050001 713400                    CLIMB   close
        10 000544   406000 401760                    pmme    nvectors=13

     1744     7898    3               SN_V=VECTOR(NSN);

   7898 10 000545   000026 237000 11                 LDAQ    22
        10 000546   001156 757000 1                  STAQ    SN_V

     1745     7899    3               IF AMR.SN_ ~= ADDR(NIL) THEN

   7899 10 000547   003204 470400 1                  LDP0    AMR$
        10 000550   000001 236100                    LDQ     1,,PR0
        10 000551   000001 116000 xsym               CMPQ    B_VECTNIL+1
        10 000552   000600 600000 10                 TZE     s:7904

     1746     7900    4               DO;

     1747     7901    4                  SN_V.P$=PINCRW(AMR$,POFFW(AMR.SN_,B$DS3$)-SIZEW(NSN)+1);

   7901 10 000553   000000 235000 xsym               LDA     B$DS3$
        10 000554   000022 771000                    ARL     18
        10 000555   200012 755100                    STA     ERRCODE+2,,AUTO
        10 000556   000001 236100                    LDQ     1,,PR0
        10 000557   000022 772000                    QRL     18
        10 000560   200012 136100                    SBLQ    ERRCODE+2,,AUTO
        10 000561   000022 736000                    QLS     18
        10 000562   000002 136003                    SBLQ    2,DU
        10 000563   003204 036000 1                  ADLQ    AMR$
        10 000564   001157 756000 1                  STQ     SN_V+1

     1748     7902    4                  SN_V.BND=((SN_V.P$->JAZ.Q.NUM#*6+3)/4+SIZEW(JAZ))*4-1;

   7902 10 000565   001157 471400 1                  LDP1    SN_V+1
        10 000566   100002 236100                    LDQ     2,,PR1
        10 000567   000006 402007                    MPY     6,DL
PL6.E3A0      #003=FJJ$CJAY File=FJJ$JAY.:E05TSI                                 TUE 07/29/97 15:29 Page:306
        10 000570   000003 036007                    ADLQ    3,DL
        10 000571   000002 772000                    QRL     2
        10 000572   000002 736000                    QLS     2
        10 000573   000013 036007                    ADLQ    11,DL
        10 000574   000020 736000                    QLS     16
        10 000575   001156 676000 1                  ERQ     SN_V
        10 000576   000034 376000 xsym               ANQ     B_VECTNIL+28
        10 000577   001156 656000 1                  ERSQ    SN_V

     1749     7903    4                  END;

     1750     7904    3               OPNNAME=PINCRW(AMR$,POFFW(AMR.NAME_,B$DS3$))->JNAME;

   7904 10 000600   000000 235000 xsym               LDA     B$DS3$
        10 000601   000022 771000                    ARL     18
        10 000602   200012 755100                    STA     ERRCODE+2,,AUTO
        10 000603   000003 236100                    LDQ     3,,PR0
        10 000604   000022 772000                    QRL     18
        10 000605   200012 136100                    SBLQ    ERRCODE+2,,AUTO
        10 000606   000002 736000                    QLS     2
        10 000607   000000 100506                    MLR     fill='000'O
        10 000610   000000 000040                    ADSC9   0,Q,PR0                  cn=0,n=32
        10 000611   000766 000040 1                  ADSC9   OPNNAME                  cn=0,n=32

     1751     7905    3               IF AMR.ACCT_ ~= ADDR(NIL) THEN

   7905 10 000612   000012 236100                    LDQ     10,,PR0
        10 000613   000001 116000 xsym               CMPQ    B_VECTNIL+1
        10 000614   000626 600000 10                 TZE     s:7908

     1752     7906    3                  OPNACCT=PINCRW(AMR$,POFFW(AMR.ACCT_,B$DS3$))->JACCT;

   7906 10 000615   200012 755100                    STA     ERRCODE+2,,AUTO
        10 000616   000012 236100                    LDQ     10,,PR0
        10 000617   000022 772000                    QRL     18
        10 000620   200012 136100                    SBLQ    ERRCODE+2,,AUTO
        10 000621   000002 736000                    QLS     2
PL6.E3A0      #003=FJJ$CJAY File=FJJ$JAY.:E05TSI                                 TUE 07/29/97 15:29 Page:307
        10 000622   000000 100506                    MLR     fill='000'O
        10 000623   000000 000010                    ADSC9   0,Q,PR0                  cn=0,n=8
        10 000624   000776 000010 1                  ADSC9   OPNACCT                  cn=0,n=8
        10 000625   000631 710000 10                 TRA     s:7909

     1753     7907    3               ELSE
     1754     7908    3                  OPNACCT.ACCT#=' ';

   7908 10 000626   000035 235000 xsym               LDA     B_VECTNIL+29
        10 000627   000035 236000 xsym               LDQ     B_VECTNIL+29
        10 000630   000776 757000 1                  STAQ    OPNACCT

     1755     7909    3               IF AMR.PASS_ ~= ADDR(NIL) THEN

   7909 10 000631   000004 236100                    LDQ     4,,PR0
        10 000632   000001 116000 xsym               CMPQ    B_VECTNIL+1
        10 000633   000647 600000 10                 TZE     s:7912

     1756     7910    3                  OPNPASS=PINCRW(AMR$,POFFW(AMR.PASS_,B$DS3$))->JPASS;

   7910 10 000634   000000 235000 xsym               LDA     B$DS3$
        10 000635   000022 771000                    ARL     18
        10 000636   200012 755100                    STA     ERRCODE+2,,AUTO
        10 000637   000004 236100                    LDQ     4,,PR0
        10 000640   000022 772000                    QRL     18
        10 000641   200012 136100                    SBLQ    ERRCODE+2,,AUTO
        10 000642   000002 736000                    QLS     2
        10 000643   000000 100506                    MLR     fill='000'O
        10 000644   000000 000010                    ADSC9   0,Q,PR0                  cn=0,n=8
        10 000645   001000 000010 1                  ADSC9   OPNPASS                  cn=0,n=8
        10 000646   000652 710000 10                 TRA     s:7913

     1757     7911    3               ELSE
     1758     7912    3                  OPNPASS.PASS#=' ';

   7912 10 000647   000035 235000 xsym               LDA     B_VECTNIL+29
        10 000650   000035 236000 xsym               LDQ     B_VECTNIL+29
PL6.E3A0      #003=FJJ$CJAY File=FJJ$JAY.:E05TSI                                 TUE 07/29/97 15:29 Page:308
        10 000651   001000 757000 1                  STAQ    OPNPASS

     1759     7913    3               SN_V.P$->JAZ.SIZ#=SN_V.BND/4;

   7913 10 000652   001156 236000 1                  LDQ     SN_V
        10 000653   000020 772000                    QRL     16
        10 000654   000002 772000                    QRL     2
        10 000655   000000 620006                    EAX0    0,QL
        10 000656   001157 471400 1                  LDP1    SN_V+1
        10 000657   100000 440100                    SXL0    0,,PR1

     1760     7914    3               SN_V.P$->JAZ.NAW# = 100;

   7914 10 000660   000144 221003                    LDX1    100,DU
        10 000661   100000 741100                    STX1    0,,PR1

     1761     7915    3               SN_V.P$->JAZ.Q.ID=NSN.Q.ID;

   7915 10 000662   001003 222000 1                  LDX2    NSN+1
        10 000663   100001 742100                    STX2    1,,PR1

     1762     7916    3               SN_V.P$->JAZ.Q.ASN=AMR.V.ASN#;

   7916 10 000664   000023 236100                    LDQ     19,,PR0
        10 000665   000011 736000                    QLS     9
        10 000666   100001 552110                    STBQ    1,'10'O,PR1

     1763     7917    3               SN_V.P$->JAZ.Q.VOL#=0;

   7917 10 000667   000000 236003                    LDQ     0,DU
        10 000670   100001 552104                    STBQ    1,'04'O,PR1

     1764     7918    3               CALL M$OPEN (OPN_JRNL);

   7918 10 000671   000310 630400 1                  EPPR0   OPN_JRNL
        10 000672   050000 713400                    CLIMB   open
        10 000673   410400 401760                    pmme    nvectors=18
PL6.E3A0      #003=FJJ$CJAY File=FJJ$JAY.:E05TSI                                 TUE 07/29/97 15:29 Page:309

     1765     7919    3               CLS_JRNL.UATTR_=SN_V;

   7919 10 000674   001156 237000 1                  LDAQ    SN_V
        10 000675   000420 757000 1                  STAQ    CLS_JRNL+14

     1766     7920    3               CALL M$CLOSE (CLS_JRNL);

   7920 10 000676   000402 630400 1                  EPPR0   CLS_JRNL
        10 000677   050001 713400                    CLIMB   close
        10 000700   406000 401760                    pmme    nvectors=13

     1767     7921    3             END;                        /* End case                           */

     1768     7922    2            END;                         /* End command read DO                */

   7922 10 000701   000006 710000 10                 TRA     RD1
     1769     7923    1   END;

PL6.E3A0      #003=FJJ$CJAY File=FJJ$JAY.:E05TSI                                 TUE 07/29/97 15:29 Page:310
--  Include file information  --

   JG_EVID_C.:E05TOU  is referenced.
   FJ_PERR_C.:E05TOU  is referenced.
   FJ_SUBS_C.:E05TOU  is referenced.
   XUH_MACRO_C.:E05TOU  is referenced.
   XU_PERR_C.:E05TOU  is referenced.
   XU_SUBS_C.:E05TOU  is referenced.
   XU_MACRO_C.:E05TOU  is referenced.
   FJM_MACROS_C.:E05TOU  is referenced.
   B_ERRORS_C.:E05TOU  is referenced.
   CP_6_SUBS.:E05TOU  is referenced.
   CP_6.:E05TOU  cannot be made into a system file and is referenced.
   B$JIT_C.:E05TOU  was found in the system file and is referenced.
   CP_6_C.:E05TOU  was found in the system file and is referenced.
      No diagnostics issued in procedure FJJ$CJAY.
PL6.E3A0      #003=FJJ$CJAY File=FJJ$JAY.:E05TSI                                 TUE 07/29/97 15:29 Page:311

 **** Variables and constants ****

  ****  Section 001  Data  FJJ$CJAY

  ****  Scalars and arrays  ****
OctLoc.c.b A Datatyp(siz) R M Lvl/name                 OctLoc.c.b A Datatyp(siz) R M Lvl/name

  3204-0-0/w PTR         r     1 AMR$                    1204-0-0/w UBIN        r     1 AMREC(0:1023)
  1204-0-0/w CHAR(4096)  r     1 AMREC_CHR                402-0-0/d STRC(1080)  r     1 CLS_JRNL
   252-0-0/d STRC(1080)  r     1 CLS_STARA               1046-0-0/w STRC(900)   r     1 CNCL_MSG
   520-0-0/d STRC(864)   r     1 CN_FID1                  670-0-0/c STRC(72)    r     1 CSCG_ACCT
  1123-0-0/w STRC(252)   r     1 CSCG_ANS                 666-0-0/c STRC(45)    r     1 CSCG_NAME
  1160-0-0/d STRC(324)   r     1 FID1_RSLT               1172-0-0/d STRC(324)   r     1 FID2_RSLT
  3206-0-0/w UBIN(9)     r     1 JASN                     760-0-0/c STRC(45)    r     1 JAYSNAME
   706-0-0/w STRC(288)   r     1 JAYS_STA                3205-0-0/w UBIN        r     1 K
   744-0-0/d STRC(432)   r     1 LIST_ME                 1077-0-0/w STRC(360)   r     1 LST_MSG
  1132-0-0/w STRC(702)   r     1 LST_RSPNCE               734-0-0/w STRC(288)   r     1 MY_STA
   764-0-0/c STRC(27)    r     1 N1KEY                   1002-0-0/w STRC(108)   r     1 NSN
   776-0-0/c STRC(72)    r     1 OPNACCT                  766-0-0/c STRC(288)   r     1 OPNNAME
  1000-0-0/c STRC(72)    r     1 OPNPASS                  560-0-0/d STRC(2088)  r     1 OPN_CSCG
   310-0-0/d STRC(2088)  r     1 OPN_JRNL                 142-0-0/d STRC(2088)  r     1 OPN_STARA
   716-0-0/d STRC(504)   r     1 RD_CSCG                  234-0-0/d STRC(504)   r     1 RD_STARA
   440-0-0/d STRC(864)   r     1 RE_FID1                  470-0-0/d STRC(864)   r     1 RE_FID2
  1005-0-0/w STRC(1188)  r     1 RE_MSG                   762-0-0/c STRC(45)    r     1 SIKEY
  1111-0-0/w STRC(360)   r     1 SNP_MSG                 1156-0-0/w STRC(72)    r     1 SN_V
   765-0-0/c STRC(27)    r     1 STARA                    652-0-0/w STRC(432)   r     1 USR_JAY
   672-0-0/d STRC(432)   r     1 WR_CSCG                   50-0-0/d STRC(2052)  r     1 XUH_PARAM
     0-0-0/d STRC(1404)  r     1 XUR_INIT                 550-0-0/d STRC(288)   r     1 YC_SET

  ****  Section 009 RoData FJJ$CJAY

  ****  Scalars and arrays  ****
OctLoc.c.b A Datatyp(siz) R M Lvl/name                 OctLoc.c.b A Datatyp(siz) R M Lvl/name

     2-0-0/w STRC        r     1 NOFILENAME                 3-0-0/w STRC        r     1 ONLYFILE
     0-0-0/c CHAR(7)     r     1 SET_STR

PL6.E3A0      #003=FJJ$CJAY File=FJJ$JAY.:E05TSI                                 TUE 07/29/97 15:29 Page:312
  ****  Auto variables  ****

  ****  Scalars and arrays  ****
OctLoc.c.b A Datatyp(siz) R M Lvl/name                 OctLoc.c.b A Datatyp(siz) R M Lvl/name

    10-0-0/w PTR         r     1 BLK$                       7-0-0/w UBIN        r     1 CMD_SIZ
    10-0-0/w STRC        r     1 ERRCODE                    3-0-0/w PTR         r     1 FNM1$
     5-0-0/w UBIN        r     1 FNM1SZ                     4-0-0/w PTR         r     1 FNM2$
     6-0-0/w UBIN        r     1 FNM2SZ

  ****  SYMREF variables  ****

  ****  Scalars and arrays  ****
OctLoc.c.b A Datatyp(siz) R M Lvl/name                 OctLoc.c.b A Datatyp(siz) R M Lvl/name

     0-0-0/w PTR         r     1 B$DS3$                     0-0-0/w PTR         r     1 B$JIT$
     0-0-0/w PTR         r     1 B$TCB$                     0-0-0/w UBIN        r     1 FJ_JAYS_CMD

  ****  BASED and DCB variables  ****

  ****  Scalars and arrays  ****
OctLoc.c.b A Datatyp(siz) R M Lvl/name                 OctLoc.c.b A Datatyp(siz) R M Lvl/name

     0-0-0/d STRC(1440)  r     1 AMR                        0-0-0/w STRC(2448)  r     1 B$ALT
     0-0-0/d STRC(2088)  r     1 B$JIT                      0-0-0/w STRC(144)   r     1 B$TCB
     0-0-0/d STRC(72)    r     1 BVECT                      0-0-0/c ACHR        r     1 CMD
     0-0-0/d ASTR(3528)  r     1 F$DCB                      0-0-0/c ASTR(9)     r     1 FNM1
     0-0-0/c ASTR(9)     r     1 FNM2                       0-0-0/c STRC(72)    r     1 JACCT
     0-0-0/w STRC(108)   r     1 JAZ                        0-0-0/c STRC(288)   r     1 JNAME
     0-0-0/c STRC(72)    r     1 JPASS                      0-0-0N  NULL        r     1 M$A
     0-0-0N  NULL        r     1 M$CSCG                     0-0-0N  NULL        r     1 M$DO
     0-0-0N  NULL        r     1 M$J                        0-0-0N  NULL        r     1 M$LO
     0-0-0N  NULL        r     1 M$ME                       0-0-0/w STRC(144)   r     1 OUT$BLK
     0-0-0/w ASTR(153)   r     1 OUT$SYM

PL6.E3A0      #003=FJJ$CJAY File=FJJ$JAY.:E05TSI                                 TUE 07/29/97 15:29 Page:313

   Procedure FJJ$CJAY requires 450 words for executable code.
   Procedure FJJ$CJAY requires 14 words of local(AUTO) storage.

    No errors detected in file FJJ$JAY.:E05TSI    .
PL6.E3A0      #003=FJJ$CJAY File=FJJ$JAY.:E05TSI                                 TUE 07/29/97 15:29 Page:314
          *** CROSS REFERENCE LISTING ***
**     DENOTES     IDENTIFIER DEFINITION
<<                 IDENTIFIER'S VALUE SET
>>                 IDENTIFIER'S VALUE USED
<>                 IDENTIFIER SET AND/OR USED
--                 IDENTIFIER REFERENCED
PL6.E3A0      #003=FJJ$CJAY File=FJJ$JAY.:E05TSI                                 TUE 07/29/97 15:29 Page:315
          MINI XREF LISTING

AMR.ACCT_
      6408**DCL      7905>>IF       7906>>ASSIGN
AMR.ACSVEH_
      6406**DCL      6407--REDEF
AMR.ALTKEYS_
      6412**DCL      6413--REDEF    6413--REDEF
AMR.HDR_
      6411**DCL      6412--REDEF
AMR.NAME_
      6405**DCL      7904>>ASSIGN
AMR.PASS_
      6406**DCL      7909>>IF       7910>>ASSIGN
AMR.SN_
      6404**DCL      7899>>IF       7901>>ASSIGN
AMR.TAB_
      6410**DCL      6411--REDEF
AMR.UHL_
      6404**DCL      6405--REDEF    6405--REDEF
AMR.V.ASN#
      6423**DCL      7916>>ASSIGN
AMR.V.FSN#
      6444**DCL      6444--REDEF    6444--REDEF
AMR.WSN_
      6410**DCL      6410--REDEF
AMR$
      7610**DCL      6404--IMP-PTR  7899>>IF       7901>>ASSIGN   7901>>ASSIGN   7904>>ASSIGN   7904>>ASSIGN
      7905>>IF       7906>>ASSIGN   7906>>ASSIGN   7909>>IF       7910>>ASSIGN   7910>>ASSIGN   7916>>ASSIGN
AMREC
      7605**DCL      6166--DCLINIT  6167--DCLINIT  6580--DCLINIT  7606--REDEF    7610--DCLINIT
AMREC_CHR
      7606**DCL      7888<<CALLBLT
B$ALT.CODE
PL6.E3A0      #003=FJJ$CJAY File=FJJ$JAY.:E05TSI                                 TUE 07/29/97 15:29 Page:316
      6030**DCL      6030--REDEF    6031--REDEF    6031--REDEF
B$ALT.ERR
      6031**DCL      7845<>CALL
B$ALT.ERR.ERR#
      6032**DCL      6032--REDEF
B$ALT.EVID
      6031**DCL      6031--REDEF    6031--REDEF
B$DS3$
      7612**DCL      7901>>ASSIGN   7904>>ASSIGN   7906>>ASSIGN   7910>>ASSIGN
B$JIT.ACCN
      5882**DCL      7781>>ASSIGN   7831>>ASSIGN   7853>>ASSIGN
B$JIT.ERR.MID
      5883**DCL      5883--REDEF
B$JIT.FACCN
      5882**DCL      7782>>ASSIGN   7832>>ASSIGN   7835>>ASSIGN   7854>>ASSIGN
B$JIT.PRIV.JOB
      5926**DCL      7783>>ASSIGN   7833>>ASSIGN   7855>>ASSIGN
B$JIT.UNAME
      5882**DCL      7780>>ASSIGN   7830>>ASSIGN   7852>>ASSIGN
B$JIT$
      7614**DCL      5877--IMP-PTR  7780>>ASSIGN   7781>>ASSIGN   7782>>ASSIGN   7783>>ASSIGN   7830>>ASSIGN
      7831>>ASSIGN   7832>>ASSIGN   7833>>ASSIGN   7835>>ASSIGN   7852>>ASSIGN   7853>>ASSIGN   7854>>ASSIGN
      7855>>ASSIGN
B$TCB.ALT$
      6026**DCL      7845>>CALL
B$TCB$
      7613**DCL      7845>>CALL
BLK$
      7752**DCL      5637--IMP-PTR  5683--IMP-PTR  7763<>CALL     7773>>IF       7775>>DOCASE   7798>>ASSIGN
      7799>>ASSIGN   7800>>ASSIGN   7801>>ASSIGN   7848>>ASSIGN   7849>>ASSIGN   7870>>ASSIGN   7885>>ASSIGN
      7888>>CALLBLT
BVECT.W1.VSIZE#
      7159**DCL      7892<<ASSIGN
BVECT.W2
      7160**DCL      7161--REDEF
CLS_JRNL
PL6.E3A0      #003=FJJ$CJAY File=FJJ$JAY.:E05TSI                                 TUE 07/29/97 15:29 Page:317
      6471**DCL      7920<>CALL
CLS_JRNL.SN_
      6471**DCL      6471--REDEF
CLS_JRNL.UATTR_
      6474**DCL      7919<<ASSIGN
CLS_JRNL.UTL_
      6472**DCL      6472--REDEF
CLS_JRNL.V
      6476**DCL      6471--DCLINIT
CLS_JRNL.V.EXPIRE#
      6486**DCL      6486--REDEF
CLS_JRNL.V.TYPE#
      6484**DCL      6484--REDEF
CLS_JRNL.V.XTNSIZE#
      6481**DCL      6481--REDEF    6483--REDEF
CLS_STARA
      6209**DCL      7897<>CALL
CLS_STARA.SN_
      6209**DCL      6209--REDEF
CLS_STARA.UTL_
      6210**DCL      6210--REDEF
CLS_STARA.V
      6214**DCL      6209--DCLINIT
CLS_STARA.V.EXPIRE#
      6224**DCL      6224--REDEF
CLS_STARA.V.TYPE#
      6222**DCL      6222--REDEF
CLS_STARA.V.XTNSIZE#
      6219**DCL      6219--REDEF    6221--REDEF
CMD
      7608**DCL      7888>>CALLBLT
CMD_ERR
      7765**LABEL    7763--CALLALT  7887--GOTO     7896--CALLALT
CMD_SIZ
      7607**DCL      7608--IMP-SIZ  7885<<ASSIGN   7886>>IF       7888>>CALLBLT  7892>>ASSIGN
CNCL_MSG
PL6.E3A0      #003=FJJ$CJAY File=FJJ$JAY.:E05TSI                                 TUE 07/29/97 15:29 Page:318
      7313**DCL      7856--ASSIGN
CNCL_MSG.ACCN
      7360**DCL      7853<<ASSIGN
CNCL_MSG.FACCN
      7362**DCL      7854<<ASSIGN
CNCL_MSG.FID1.ACCT
      7354**DCL      6555--DCLINIT
CNCL_MSG.FID1.FNAME
      7351**DCL      6555--DCLINIT
CNCL_MSG.FID1.PASS
      7355**DCL      6556--DCLINIT
CNCL_MSG.FID1.SN
      7356**DCL      6556--DCLINIT
CNCL_MSG.PRIV
      7363**DCL      7855<<ASSIGN
CNCL_MSG.UNAME
      7361**DCL      7852<<ASSIGN
CN_FID1
      6554**DCL      7851<>CALL
CN_FID1.TEXTFID_
      6554**DCL      7850<<ASSIGN
CN_FID1.V
      6558**DCL      6554--DCLINIT
CSCG_ACCT
      6760**DCL      6655--DCLINIT
CSCG_ANS
      7520**DCL      7840--ASSIGN   7860--ASSIGN
CSCG_ANS.ERR
      7521**DCL      7842>>IF       7843<>CALL     7862>>IF       7863<>CALL
CSCG_NAME
      6747**DCL      6651--DCLINIT
ERRCODE
      7718**DCL      7752--REDEF    7766<>CALL
ERRCODE.ERR#
      7748**DCL      7767>>IF
F$DCB.ACTPOS
PL6.E3A0      #003=FJJ$CJAY File=FJJ$JAY.:E05TSI                                 TUE 07/29/97 15:29 Page:319
      6001**DCL      6001--REDEF
F$DCB.ARS#
      5975**DCL      5975--REDEF
F$DCB.ATTR
      5994**DCL      5995--REDEF
F$DCB.BORROW
      6009**DCL      6009--REDEF    6009--REDEF    6009--REDEF
F$DCB.DCBNAME.L
      6023**DCL      6023--IMP-SIZ
F$DCB.EOMCHAR#
      5979**DCL      5979--REDEF
F$DCB.FCD#
      5988**DCL      7784>>IF       7837>>IF       7857>>IF       7881>>IF
F$DCB.FLDID
      6004**DCL      6004--REDEF
F$DCB.FORM$
      5998**DCL      5998--REDEF
F$DCB.FSECT
      6014**DCL      6014--REDEF
F$DCB.FSN#
      5991**DCL      5991--REDEF    5991--REDEF    5992--REDEF
F$DCB.HEADER$
      5997**DCL      5997--REDEF
F$DCB.IXTNSIZE#
      5995**DCL      5995--REDEF
F$DCB.LASTSTA$
      5984**DCL      5984--REDEF
F$DCB.LVL
      6010**DCL      6010--REDEF
F$DCB.NAME#.C
      5985**DCL      5985--REDEF
F$DCB.NOEOF
      6007**DCL      6007--REDEF
F$DCB.NRECS#
      5996**DCL      5996--REDEF
F$DCB.NRECX
PL6.E3A0      #003=FJJ$CJAY File=FJJ$JAY.:E05TSI                                 TUE 07/29/97 15:29 Page:320
      6015**DCL      6015--REDEF
F$DCB.OHDR
      6007**DCL      6007--REDEF
F$DCB.ORG#
      5990**DCL      5990--REDEF
F$DCB.PRECNO
      6013**DCL      6013--REDEF
F$DCB.RCSZ
      6019**DCL      6019--REDEF
F$DCB.RES#
      5986**DCL      5986--REDEF
F$DCB.SETX
      5998**DCL      5998--REDEF
F$DCB.TAB$
      5998**DCL      5998--REDEF
F$DCB.TDA
      6012**DCL      6013--REDEF
F$DCB.WSN#
      5986**DCL      5986--REDEF
FID1_RSLT
      7568**DCL      6508--DCLINIT
FID1_RSLT.NAME
      7568**DCL      7822>>IF
FID2_RSLT
      7587**DCL      6533--DCLINIT
FID2_RSLT.NAME
      7587**DCL      7805>>IF
FJ_JAYS_CMD
      7755**DCL      7763<>CALL
FNM1.C
      7600**DCL      7803--ASSIGN   7850--ASSIGN
FNM1$
      7601**DCL      7598--IMP-PTR  7798<<ASSIGN   7803>>ASSIGN   7848<<ASSIGN   7850>>ASSIGN
FNM1SZ
      7603**DCL      7600--IMP-SIZ  7800<<ASSIGN   7803>>ASSIGN   7849<<ASSIGN   7850>>ASSIGN
FNM2.C
PL6.E3A0      #003=FJJ$CJAY File=FJJ$JAY.:E05TSI                                 TUE 07/29/97 15:29 Page:321
      7597**DCL      7802--ASSIGN
FNM2$
      7602**DCL      7595--IMP-PTR  7799<<ASSIGN   7802>>ASSIGN
FNM2SZ
      7604**DCL      7597--IMP-SIZ  7801<<ASSIGN   7802>>ASSIGN
JACCT
      7067**DCL      7906>>ASSIGN
JASN
      7753**DCL      6507--DCLINIT  6532--DCLINIT  6557--DCLINIT  7813>>IF       7826>>IF
JAYSNAME
      6945**DCL      5838--DCLINIT
JAYS_STA
      6806**DCL      6782--DCLINIT
JAYS_STA.MSGIDXT
      6816**DCL      6819--REDEF
JAZ
      7187**DCL      7902--ASSIGN
JAZ.NAW#
      7187**DCL      7914<<ASSIGN
JAZ.Q.ASN
      7191**DCL      7916<<ASSIGN
JAZ.Q.ID
      7190**DCL      7915<<ASSIGN
JAZ.Q.NUM#
      7193**DCL      7902>>ASSIGN
JAZ.Q.VOL#
      7192**DCL      7917<<ASSIGN
JAZ.SIZ#
      7187**DCL      7913<<ASSIGN
JNAME
      7054**DCL      7904>>ASSIGN
JPASS
      7080**DCL      7910>>ASSIGN
K
      7611**DCL      6507--DCLINIT
LIST_ME
PL6.E3A0      #003=FJJ$CJAY File=FJJ$JAY.:E05TSI                                 TUE 07/29/97 15:29 Page:322
      6906**DCL      7793<>CALL
LIST_ME.STATION_
      6908**DCL      6908--REDEF
LIST_ME.V
      6909**DCL      6906--DCLINIT
LIST_ME.V.DVBYTE.VFC#
      6915**DCL      6915--REDEF
LST1
      7788**LABEL    7795--GOTO
LST_MSG
      7386**DCL      7779--ASSIGN
LST_MSG.ACCN
      7440**DCL      7781<<ASSIGN
LST_MSG.FACCN
      7442**DCL      7782<<ASSIGN
LST_MSG.PRIV
      7443**DCL      7783<<ASSIGN
LST_MSG.UNAME
      7441**DCL      7780<<ASSIGN
LST_RSPNCE
      7530**DCL      7787--ASSIGN
LST_RSPNCE.ERR
      7531**DCL      7789>>IF       7790<>CALL
LST_RSPNCE.LAST
      7532**DCL      7794>>IF
LST_RSPNCE.TXT
      7533**DCL      6907--DCLINIT  6908--DCLINIT
M$CLOSE
        19**DCL-ENT  7897--CALL     7920--CALL
M$CSCG
      7548**DCL      7784--IF       7837--IF       7857--IF       7881--IF
M$FID
        82**DCL-ENT  7804--CALL     7821--CALL     7851--CALL
M$ME
      7547**DCL      7765<>CALL     7766<>CALL
M$OPEN
PL6.E3A0      #003=FJJ$CJAY File=FJJ$JAY.:E05TSI                                 TUE 07/29/97 15:29 Page:323
        19**DCL-ENT  7785--CALL     7838--CALL     7858--CALL     7882--CALL     7894--CALL     7918--CALL
M$READ
        20**DCL-ENT  7788--CALL     7841--CALL     7861--CALL     7896--CALL
M$WRITE
        20**DCL-ENT  7786--CALL     7793--CALL     7839--CALL     7859--CALL     7883--CALL
M$YC
        33**DCL-ENT  7893--CALL
MY_STA
      6873**DCL      6842--DCLINIT
MY_STA.MSGIDXT
      6883**DCL      6886--REDEF
N1KEY
      7000**DCL      7895--ASSIGN
NOFILENAME
      7628**DCL      7806<>CALL     7823<>CALL
NOMORE
      7871**LABEL    7873--CALLALT  7875--CALLALT
NSN
      7219**DCL      7898--ASSIGN   7901--ASSIGN
NSN.Q
      7220**DCL      7219--DCLINIT
NSN.Q.ID
      7222**DCL      7915>>ASSIGN
ONLYFILE
      7673**DCL      7814<>CALL     7827<>CALL
OPNACCT
      7120**DCL      6300--DCLINIT  7906<<ASSIGN
OPNACCT.ACCT#
      7120**DCL      7908<<ASSIGN
OPNNAME
      7107**DCL      6296--DCLINIT  7904<<ASSIGN
OPNPASS
      7133**DCL      6297--DCLINIT  7910<<ASSIGN
OPNPASS.PASS#
      7133**DCL      7912<<ASSIGN
OPN_CSCG
PL6.E3A0      #003=FJJ$CJAY File=FJJ$JAY.:E05TSI                                 TUE 07/29/97 15:29 Page:324
      6650**DCL      7785<>CALL     7838<>CALL     7858<>CALL     7882<>CALL
OPN_CSCG.ACSVEH_
      6652**DCL      6653--REDEF
OPN_CSCG.ALTKEYS_
      6658**DCL      6659--REDEF    6659--REDEF
OPN_CSCG.HDR_
      6657**DCL      6658--REDEF
OPN_CSCG.TAB_
      6656**DCL      6657--REDEF
OPN_CSCG.UHL_
      6650**DCL      6651--REDEF    6651--REDEF
OPN_CSCG.V
      6659**DCL      6650--DCLINIT
OPN_CSCG.V.FSN#
      6690**DCL      6690--REDEF    6690--REDEF
OPN_CSCG.WSN_
      6656**DCL      6656--REDEF
OPN_JRNL
      6295**DCL      7918<>CALL
OPN_JRNL.ACSVEH_
      6297**DCL      6298--REDEF
OPN_JRNL.ALTKEYS_
      6303**DCL      6304--REDEF    6304--REDEF
OPN_JRNL.HDR_
      6302**DCL      6303--REDEF
OPN_JRNL.TAB_
      6301**DCL      6302--REDEF
OPN_JRNL.UHL_
      6295**DCL      6296--REDEF    6296--REDEF
OPN_JRNL.V
      6304**DCL      6295--DCLINIT
OPN_JRNL.V.FSN#
      6335**DCL      6335--REDEF    6335--REDEF
OPN_JRNL.WSN_
      6301**DCL      6301--REDEF
OPN_STARA
PL6.E3A0      #003=FJJ$CJAY File=FJJ$JAY.:E05TSI                                 TUE 07/29/97 15:29 Page:325
      6103**DCL      7894<>CALL
OPN_STARA.ACSVEH_
      6105**DCL      6106--REDEF
OPN_STARA.ALTKEYS_
      6111**DCL      6112--REDEF    6112--REDEF
OPN_STARA.HDR_
      6110**DCL      6111--REDEF
OPN_STARA.TAB_
      6109**DCL      6110--REDEF
OPN_STARA.UHL_
      6103**DCL      6104--REDEF    6104--REDEF
OPN_STARA.V
      6112**DCL      6103--DCLINIT
OPN_STARA.V.FSN#
      6143**DCL      6143--REDEF    6143--REDEF
OPN_STARA.WSN_
      6109**DCL      6109--REDEF
OUT$BLK.CODE
      5645**DCL      7775>>DOCASE
OUT$BLK.NSUBLKS
      5649**DCL      7773>>IF
OUT$BLK.SUBLK$
      5670**DCL      7775>>DOCASE   7798>>ASSIGN   7798>>ASSIGN   7799>>ASSIGN   7799>>ASSIGN   7800>>ASSIGN
      7800>>ASSIGN   7801>>ASSIGN   7801>>ASSIGN   7848>>ASSIGN   7848>>ASSIGN   7849>>ASSIGN   7849>>ASSIGN
      7870>>ASSIGN   7870>>ASSIGN   7885>>ASSIGN   7885>>ASSIGN   7888>>CALLBLT  7888>>CALLBLT
OUT$SYM.COUNT
      5706**DCL      5709--IMP-SIZ  7800>>ASSIGN   7801>>ASSIGN   7849>>ASSIGN   7885>>ASSIGN
OUT$SYM.TEXTC$
      5701**DCL      7798>>ASSIGN   7799>>ASSIGN   7848>>ASSIGN   7870>>ASSIGN   7888>>CALLBLT
RD1
      7763**LABEL    7770--GOTO     7774--GOTO     7811--GOTO     7819--GOTO     7824--GOTO     7828--GOTO
RD_CSCG
      6839**DCL      7788<>CALL     7841<>CALL     7861<>CALL
RD_CSCG.BUF_
      6841**DCL      7787<<ASSIGN   7840<<ASSIGN   7860<<ASSIGN
RD_CSCG.STATION_
PL6.E3A0      #003=FJJ$CJAY File=FJJ$JAY.:E05TSI                                 TUE 07/29/97 15:29 Page:326
      6842**DCL      6843--REDEF
RD_CSCG.V
      6843**DCL      6839--DCLINIT
RD_CSCG.V.DVBYTE.REREAD#
      6854**DCL      6854--REDEF
RD_CSCG.V.INDX#
      6852**DCL      6852--REDEF
RD_STARA
      6164**DCL      7896<>CALL
RD_STARA.KEY_
      6164**DCL      7895<<ASSIGN
RD_STARA.STATION_
      6167**DCL      6168--REDEF
RD_STARA.V
      6168**DCL      6164--DCLINIT
RD_STARA.V.DVBYTE.REREAD#
      6179**DCL      6179--REDEF
RD_STARA.V.INDX#
      6177**DCL      6177--REDEF
RE_ALT
      7845**LABEL    7786--CALLALT  7788--CALLALT  7804--CALLALT  7821--CALLALT  7839--CALLALT  7841--CALLALT
      7851--CALLALT  7859--CALLALT  7861--CALLALT  7883--CALLALT
RE_FID1
      6504**DCL      7821<>CALL
RE_FID1.TEXTFID_
      6504**DCL      7803<<ASSIGN
RE_FID1.V
      6508**DCL      6504--DCLINIT
RE_FID2
      6529**DCL      7804<>CALL
RE_FID2.TEXTFID_
      6529**DCL      7802<<ASSIGN
RE_FID2.V
      6533**DCL      6529--DCLINIT
RE_MSG
      7240**DCL      7836--ASSIGN
PL6.E3A0      #003=FJJ$CJAY File=FJJ$JAY.:E05TSI                                 TUE 07/29/97 15:29 Page:327
RE_MSG.ACCN
      7270**DCL      7831<<ASSIGN
RE_MSG.FACCN
      7272**DCL      7832<<ASSIGN
RE_MSG.FID1.ACCT
      7260**DCL      6505--DCLINIT  6530--DCLINIT  7834>>IF       7835<<ASSIGN
RE_MSG.FID1.FNAME
      7257**DCL      6505--DCLINIT
RE_MSG.FID1.PASS
      7261**DCL      6506--DCLINIT  6531--DCLINIT
RE_MSG.FID1.SN
      7262**DCL      6506--DCLINIT  6531--DCLINIT
RE_MSG.FID2.FNAME
      7267**DCL      6530--DCLINIT
RE_MSG.PRIV
      7273**DCL      7833<<ASSIGN
RE_MSG.UNAME
      7271**DCL      7830<<ASSIGN
SET_STR
      7609**DCL      7888>>CALLBLT  7892--ASSIGN
SIKEY
      6973**DCL      6164--DCLINIT  6165--DCLINIT
SNP_MSG
      7459**DCL      7880--ASSIGN
SN_V
      7553**DCL      7898<<ASSIGN   7919>>ASSIGN
SN_V.BND
      7554**DCL      7902<<ASSIGN   7913>>ASSIGN
SN_V.P$
      7556**DCL      7901<<ASSIGN   7902>>ASSIGN   7913>>ASSIGN   7914>>ASSIGN   7915>>ASSIGN   7916>>ASSIGN
      7917>>ASSIGN
STARA
      7027**DCL      6104--DCLINIT
USR_JAY
      6706**DCL      6651--DCLINIT
WR_CSCG
PL6.E3A0      #003=FJJ$CJAY File=FJJ$JAY.:E05TSI                                 TUE 07/29/97 15:29 Page:328
      6780**DCL      7786<>CALL     7839<>CALL     7859<>CALL     7883<>CALL
WR_CSCG.BUF_
      6780**DCL      7779<<ASSIGN   7836<<ASSIGN   7856<<ASSIGN   7880<<ASSIGN
WR_CSCG.STATION_
      6782**DCL      6782--REDEF
WR_CSCG.V
      6783**DCL      6780--DCLINIT
WR_CSCG.V.DVBYTE.VFC#
      6789**DCL      6789--REDEF
XTX$ADAPT
      5732**DCL-ENT  5811--DCLINIT
XUH_PARAM
      5834**DCL      7871<>CALL     7873<>CALL     7875<>CALL
XUH_PARAM.HELP$
      5844**DCL      7870<<ASSIGN
XUR$ALLMSG
      7542**DCL-ENT  7875--CALL
XUR$ERRMSG
      7539**DCL-ENT  7766--CALL     7790--CALL     7806--CALL     7814--CALL     7823--CALL     7827--CALL
      7843--CALL     7845--CALL     7863--CALL
XUR$ERRPTR
      7538**DCL-ENT  7765--CALL
XUR$GETCMD
      7537**DCL-ENT  7763--CALL
XUR$HELP
      7540**DCL-ENT  7871--CALL
XUR$INIT
      7536**DCL-ENT  7761--CALL
XUR$MOREMSG
      7541**DCL-ENT  7873--CALL
XUR_INIT
      5737**DCL      7761<>CALL
XUR_INIT.WORKR_
      5751**DCL      5752--REDEF
YC_SET
      6580**DCL      7893<>CALL
PL6.E3A0      #003=FJJ$CJAY File=FJJ$JAY.:E05TSI                                 TUE 07/29/97 15:29 Page:329
YC_SET.CMD_
      6580**DCL      7892--ASSIGN
YC_SET.V
      6581**DCL      6580--DCLINIT
