VERSION E05

PL6.E3A0      #001=FJ_DATA_D File=FJ_DATA_D.:E05TSI                              TUE 07/29/97 15:30 Page:1
        1        1        /*M* Data for system Journal Ghost  */
        2        2        /*T***********************************************************/
        3        3        /*T*                                                         */
        4        4        /*T* Copyright (c) Bull HN Information Systems Inc., 1997    */
        5        5        /*T*                                                         */
        6        6        /*T***********************************************************/
        7        7        /**/
        8        8        FJ_DATA_D:   PROC;
        9        9        /**/
       10       10        %EQU EV#=100;
       11       11    1   DCL 1 FJ_EV(0:%EV#) STATIC SYMDEF,   /* Event data */
       12       12    1        2 LNK SBIN,
       13       13    1        2 EVID UBIN,
       14       14    1        2 ARS UBIN,
       15       15    1        2 DCB# UBIN,
       16       16    1        2 CG# REDEF DCB# UBIN,
       17       17    1        2 CFU$ REDEF DCB# PTR,
       18       18    1        2 STA CHAR(8),
       19       19    1        2 MSG CHAR(8),
       20       20    1        2 ERR,
       21       21    1           3 FCG BIT(18) UNAL,
       22       22    1           3 M BIT(1) UNAL,
       23       23    1           3 ERR# UBIN(14) UNAL,
       24       24    1           3 SEV UBIN(3) UNAL;
       25       25    1   DCL FJ_EVHD SBIN STATIC SYMDEF INIT(-1);
       26       26    1   DCL FJ_EVTL SBIN STATIC SYMDEF INIT(-1);
       27       27    1   DCL FJ_EVFREE SBIN STATIC SYMDEF;
       28       28    1   END;

PL6.E3A0      #001=FJ_DATA_D File=FJ_DATA_D.:E05TSI                              TUE 07/29/97 15:30 Page:2
      No diagnostics issued in procedure FJ_DATA_D.

   No code generated for procedure FJ_DATA_D .
   Procedure FJ_DATA_D requires 4 words of local(AUTO) storage.

    No errors detected in file FJ_DATA_D.:E05TSI    .

PL6.E3A0      #001=FJ_DATA_D File=FJ_DATA_D.:E05TSI                              TUE 07/29/97 15:30 Page:3

 Object Unit name= FJ_DATA_D                                  File name= FJ_DATA_D.:E05TOU
 UTS= JUL 29 '97 15:30:53.64 TUE                              Compiler= PL-6/E31         Sev=      00
 SharedLib= :SHARED_SYSTEM                                    Alt SharedLib=


    ****  Control sections  ****

 Sect   Type Bound  Init  Size OctSiz  Section name(segment info)
    0   Data  even  none   912   1620  FJ_DATA_D
    1   Proc  even  none     0      0  FJ_DATA_D

    ****  Entry defs  ****

                              Check   Calling
                             calling  sequence
  Sect OctLoc Primary Altret sequence   type   Parms  Name
     1      0   yes            yes     ~proc       0  FJ_DATA_D

  ****  Data defs  ****

 Sect OctLoc  Name                           Sect OctLoc  Name
    0      0  FJ_EV                              0   1615  FJ_EVHD
    0   1616  FJ_EVTL                            0   1617  FJ_EVFREE
PL6.E3A0      #001=FJ_DATA_D File=FJ_DATA_D.:E05TSI                              TUE 07/29/97 15:30 Page:4

        1        1        /*M* Data for system Journal Ghost  */
        2        2        /*T***********************************************************/
        3        3        /*T*                                                         */
        4        4        /*T* Copyright (c) Bull HN Information Systems Inc., 1997    */
        5        5        /*T*                                                         */
        6        6        /*T***********************************************************/
        7        7        /**/
        8        8        FJ_DATA_D:   PROC;
        9        9        /**/
       10       10        %EQU EV#=100;
       11       11    1   DCL 1 FJ_EV(0:%EV#) STATIC SYMDEF,   /* Event data */
       12       12    1        2 LNK SBIN,
       13       13    1        2 EVID UBIN,
       14       14    1        2 ARS UBIN,
       15       15    1        2 DCB# UBIN,
       16       16    1        2 CG# REDEF DCB# UBIN,
       17       17    1        2 CFU$ REDEF DCB# PTR,
       18       18    1        2 STA CHAR(8),
       19       19    1        2 MSG CHAR(8),
       20       20    1        2 ERR,
       21       21    1           3 FCG BIT(18) UNAL,
       22       22    1           3 M BIT(1) UNAL,
       23       23    1           3 ERR# UBIN(14) UNAL,
       24       24    1           3 SEV UBIN(3) UNAL;
       25       25    1   DCL FJ_EVHD SBIN STATIC SYMDEF INIT(-1);
       26       26    1   DCL FJ_EVTL SBIN STATIC SYMDEF INIT(-1);
       27       27    1   DCL FJ_EVFREE SBIN STATIC SYMDEF;
       28       28    1   END;

PL6.E3A0      #001=FJ_DATA_D File=FJ_DATA_D.:E05TSI                              TUE 07/29/97 15:30 Page:5
      No diagnostics issued in procedure FJ_DATA_D.
PL6.E3A0      #001=FJ_DATA_D File=FJ_DATA_D.:E05TSI                              TUE 07/29/97 15:30 Page:6

 **** Variables and constants ****


   No code generated for procedure FJ_DATA_D .
   Procedure FJ_DATA_D requires 4 words of local(AUTO) storage.

    No errors detected in file FJ_DATA_D.:E05TSI    .
PL6.E3A0      #001=FJ_DATA_D File=FJ_DATA_D.:E05TSI                              TUE 07/29/97 15:30 Page:7
          *** CROSS REFERENCE LISTING ***
**     DENOTES     IDENTIFIER DEFINITION
<<                 IDENTIFIER'S VALUE SET
>>                 IDENTIFIER'S VALUE USED
<>                 IDENTIFIER SET AND/OR USED
--                 IDENTIFIER REFERENCED
PL6.E3A0      #001=FJ_DATA_D File=FJ_DATA_D.:E05TSI                              TUE 07/29/97 15:30 Page:8
          MINI XREF LISTING

FJ_EV.DCB#
        15**DCL        16--REDEF      17--REDEF
