VERSION E05

PL6.E3A0      #001=FKA$ABORT File=FKA$ALTKEY.:E05TSI                             TUE 07/29/97 15:31 Page:1
        1        1        /*M* FKA$ALTKEY - Routines to handle LOAD mode for alternate indexes */
        2        2        /*T***********************************************************/
        3        3        /*T*                                                         */
        4        4        /*T* Copyright (c) Bull HN Information Systems Inc., 1997    */
        5        5        /*T*                                                         */
        6        6        /*T***********************************************************/
        7        7        /*X* CRT=1,CTI=4,DCI=6,SQB,ECI=3,CSI=3,IPC,DIN=2,SDI=3 */
        8        8        /*P*     NAME:     FKA$ALTKEY
        9        9                 PURPOSE:  To rebuild the alternate indexes of a file
       10       10        */
       11       11        /*F*     NAME:     FKA$ABORT
       12       12                 PURPOSE:  To handle aborts for ALTKEY
       13       13        */
       14       14        /*D*     NAME:     FKA$ABORT
       15       15                 CALL:     CALL FKA$ABORT
       16       16                 DESCRIPTION:
       17       17
       18       18                      This is a general abort routine for handling
       19       19                 unexpected traps, or monitor altreturns.  Exit control is
       20       20                 reset, so we don't go through this again. The file is closed.
       21       21                 We'll ignore any errors from the close on the assumption
       22       22                 that the original error is at least as important as any close
       23       23                 error.  If we are running in user domain, give the user an
       24       24                 error message.  Then do an M$XXX with the appropriate error
       25       25                 code.  If this is a monitor ALTKEY, the M$XXX will cause the
       26       26                 M$CLOSE to altret with whatever error we pass.
       27       27        */
       28       28         %EJECT;
PL6.E3A0      #001=FKA$ABORT File=FKA$ALTKEY.:E05TSI                             TUE 07/29/97 15:31 Page:2
       29       29        FKA$ABORT: PROC;
       30       30         %INCLUDE CP_6;
       31      111         %INCLUDE CP_6_SUBS;
       32      651         %INCLUDE FKA_DATA_R;
       33      667         %INCLUDE FK_DATA_C;
       34      744        /* */
       35      745         %FPT_XCON(FPTN=RESET_XCON, STCLASS=CONSTANT);
       36      759         %FPT_XXX(CODE=ERRCODE, STEPCC=ERROR, STCLASS=CONSTANT);
       37      774         %B$TCB;
       38      777         %B$ALT;
       39      785         %FKA$ERR(FPTN=CLOSERR,STCLASS=" ");
       40      791        /* */
       41      792    1     DCL FKA$CLOSE ENTRY(1) ALTRET;
       42      793    1     DCL XUR$ERRMSG ENTRY(7) ALTRET;
       43      794        /* */
       44      795    1     DCL ERRCODE BIT(36) STATIC ALIGNED;
       45      796    1     DCL DCB# UBIN;
       46      797    1     DCL B$TCB$ PTR SYMREF;
       47      798        /* */
       48      799    1           ERRCODE=B$TCB$->B$TCB.ALT$->B$ALT.ERR;
       49      800    1           DCB#=B$TCB$->B$TCB.ALT$->B$ALT.DCB#;
       50      801
       51      802    1           CALL M$XCON(RESET_XCON);
       52      803
       53      804    1           CALL FKA$CLOSE(CLOSERR) ALTRET(IGNORE);
       54      805
       55      806    1   IGNORE: ;
       56      807    1           IF FKA_MON = %NO# THEN
       57      808    1              CALL XUR$ERRMSG(ERRCODE, DCB#);
       58      809    1           CALL M$XXX(FPT_XXX);
       59      810    1   END FKA$ABORT;
       60      811         %EOD;

PL6.E3A0      #001=FKA$ABORT File=FKA$ALTKEY.:E05TSI                             TUE 07/29/97 15:31 Page:3
--  Include file information  --

   FK_DATA_C.:E05TOU  is referenced.
   FKA_DATA_R.:E05TOU  cannot be made into a system file and is referenced.
   CP_6_SUBS.:E05TOU  is referenced.
   CP_6.:E05TOU  cannot be made into a system file and is referenced.
   B$JIT_C.:E05TOU  was found in the system file and is never referenced.
   CP_6_C.:E05TOU  was found in the system file and is referenced.
      No diagnostics issued in procedure FKA$ABORT.

   Procedure FKA$ABORT requires 32 words for executable code.
   Procedure FKA$ABORT requires 8 words of local(AUTO) storage.

PL6.E3A0      #001=FKA$ABORT File=FKA$ALTKEY.:E05TSI                             TUE 07/29/97 15:31 Page:4

 Object Unit name= FKA$ABORT                                  File name= FKA$ALTKEY.:E05TOU
 UTS= JUL 29 '97 15:31:32.48 TUE                              Compiler= PL-6/E31         Sev=      00
 SharedLib= :SHARED_SYSTEM                                    Alt SharedLib=


    ****  Control sections  ****

 Sect   Type Bound  Init  Size OctSiz  Section name(segment info)
    0   DCB   even  none     0      0  M$UC
    1  RoData even  UTS     12     14  FKA$ABORT
    2   Data  even  none     1      1  FKA$ABORT
    3   Proc  even  none    32     40  FKA$ABORT
    4  RoData even  none     1      1  FKA$ABORT

    ****  Entry defs  ****

                              Check   Calling
                             calling  sequence
  Sect OctLoc Primary Altret sequence   type   Parms  Name
     3      0   yes            yes      Std        0  FKA$ABORT

  ****  Entry refs  ****

         Check        Calling
        calling       sequence
Altret sequence SRef   type   Args  Name
 yes     yes           Std       1 FKA$CLOSE
 yes     yes           Std       7 XUR$ERRMSG
                       nStd      0 X66_AUTO_0
                       Std       0 B_CONSPOOL_D
                       nStd      0 X66_ARET
PL6.E3A0      #001=FKA$ABORT File=FKA$ALTKEY.:E05TSI                             TUE 07/29/97 15:31 Page:5

  ****  Data refs  ****

  Flags:  r = read only, s = secondary
Flgs Name                             Flgs Name                             Flgs Name
     M$UC                                  FKA_MON                               B$TCB$
     B_VECTNIL

  ****  Segment refs  ****

  Flags:  r = read only, s = secondary
Flgs Name                             Flgs Name                             Flgs Name
     ISSID                                 NULLSID
PL6.E3A0      #001=FKA$ABORT File=FKA$ALTKEY.:E05TSI                             TUE 07/29/97 15:31 Page:6


        1        1        /*M* FKA$ALTKEY - Routines to handle LOAD mode for alternate indexes */
        2        2        /*T***********************************************************/
        3        3        /*T*                                                         */
        4        4        /*T* Copyright (c) Bull HN Information Systems Inc., 1997    */
        5        5        /*T*                                                         */
        6        6        /*T***********************************************************/
        7        7        /*X* CRT=1,CTI=4,DCI=6,SQB,ECI=3,CSI=3,IPC,DIN=2,SDI=3 */
        8        8        /*P*     NAME:     FKA$ALTKEY
        9        9                 PURPOSE:  To rebuild the alternate indexes of a file
       10       10        */
       11       11        /*F*     NAME:     FKA$ABORT
       12       12                 PURPOSE:  To handle aborts for ALTKEY
       13       13        */
       14       14        /*D*     NAME:     FKA$ABORT
       15       15                 CALL:     CALL FKA$ABORT
       16       16                 DESCRIPTION:
       17       17
       18       18                      This is a general abort routine for handling
       19       19                 unexpected traps, or monitor altreturns.  Exit control is
       20       20                 reset, so we don't go through this again. The file is closed.
       21       21                 We'll ignore any errors from the close on the assumption
       22       22                 that the original error is at least as important as any close
       23       23                 error.  If we are running in user domain, give the user an
       24       24                 error message.  Then do an M$XXX with the appropriate error
       25       25                 code.  If this is a monitor ALTKEY, the M$XXX will cause the
       26       26                 M$CLOSE to altret with whatever error we pass.
       27       27        */
       28       28         %EJECT;
PL6.E3A0      #001=FKA$ABORT File=FKA$ALTKEY.:E05TSI                             TUE 07/29/97 15:31 Page:7
       29       29        FKA$ABORT: PROC;

     29  3 000000   000000 700200 xent  FKA$ABORT    TSX0  ! X66_AUTO_0
         3 000001   000010 000000                    ZERO    8,0

       30       30         %INCLUDE CP_6;
       31      111         %INCLUDE CP_6_SUBS;
       32      651         %INCLUDE FKA_DATA_R;
       33      667         %INCLUDE FK_DATA_C;
       34      744        /* */
       35      745         %FPT_XCON(FPTN=RESET_XCON, STCLASS=CONSTANT);
       36      759         %FPT_XXX(CODE=ERRCODE, STEPCC=ERROR, STCLASS=CONSTANT);
       37      774         %B$TCB;
       38      777         %B$ALT;
       39      785         %FKA$ERR(FPTN=CLOSERR,STCLASS=" ");
       40      791        /* */
       41      792    1     DCL FKA$CLOSE ENTRY(1) ALTRET;
       42      793    1     DCL XUR$ERRMSG ENTRY(7) ALTRET;
       43      794        /* */
       44      795    1     DCL ERRCODE BIT(36) STATIC ALIGNED;
       45      796    1     DCL DCB# UBIN;
       46      797    1     DCL B$TCB$ PTR SYMREF;
       47      798        /* */
       48      799    1           ERRCODE=B$TCB$->B$TCB.ALT$->B$ALT.ERR;

    799  3 000002   000000 470400 xsym               LDP0    B$TCB$
         3 000003   000000 471500                    LDP1    0,,PR0
         3 000004   100102 236100                    LDQ     66,,PR1
         3 000005   000000 756000 2                  STQ     ERRCODE

       49      800    1           DCB#=B$TCB$->B$TCB.ALT$->B$ALT.DCB#;

    800  3 000006   000000 471500                    LDP1    0,,PR0
         3 000007   100101 235100                    LDA     65,,PR1
         3 000010   200005 755100                    STA     DCB#,,AUTO

       50      801
PL6.E3A0      #001=FKA$ABORT File=FKA$ALTKEY.:E05TSI                             TUE 07/29/97 15:31 Page:8
       51      802    1           CALL M$XCON(RESET_XCON);

    802  3 000011   000000 630400 1                  EPPR0   RESET_XCON
         3 000012   010003 713400                    CLIMB   4099
         3 000013   400400 401760                    pmme    nvectors=2

       52      803
       53      804    1           CALL FKA$CLOSE(CLOSERR) ALTRET(IGNORE);

    804  3 000014   200003 630500                    EPPR0   CLOSERR,,AUTO
         3 000015   200006 450500                    STP0    DCB#+1,,AUTO
         3 000016   200006 630500                    EPPR0   DCB#+1,,AUTO
         3 000017   000017 631400 xsym               EPPR1   B_VECTNIL+15
         3 000020   000000 701000 xent               TSX1    FKA$CLOSE
         3 000021   000022 702000 3                  TSX2    IGNORE

    800  3 000022                       IGNORE       null
       54      805
       55      806    1   IGNORE: ;
       56      807    1           IF FKA_MON = %NO# THEN

    807  3 000022   000000 234000 xsym               SZN     FKA_MON
         3 000023   000034 604000 3                  TMI     s:809

       57      808    1              CALL XUR$ERRMSG(ERRCODE, DCB#);

    808  3 000024   200005 630500                    EPPR0   DCB#,,AUTO
         3 000025   200007 450500                    STP0    DCB#+2,,AUTO
         3 000026   000000 236000 4                  LDQ     0
         3 000027   200006 756100                    STQ     DCB#+1,,AUTO
         3 000030   200006 630500                    EPPR0   DCB#+1,,AUTO
         3 000031   000020 631400 xsym               EPPR1   B_VECTNIL+16
         3 000032   000000 701000 xent               TSX1    XUR$ERRMSG
         3 000033   000000 011000                    NOP     0

       58      809    1           CALL M$XXX(FPT_XXX);

PL6.E3A0      #001=FKA$ABORT File=FKA$ALTKEY.:E05TSI                             TUE 07/29/97 15:31 Page:9
    809  3 000034   000006 630400 1                  EPPR0   FPT_XXX
         3 000035   000003 713400                    CLIMB   3
         3 000036   400400 401760                    pmme    nvectors=2

       59      810    1   END FKA$ABORT;

    810  3 000037   000000 702200 xent               TSX2  ! X66_ARET
       60      811         %EOD;

PL6.E3A0      #001=FKA$ABORT File=FKA$ALTKEY.:E05TSI                             TUE 07/29/97 15:31 Page:10
--  Include file information  --

   FK_DATA_C.:E05TOU  is referenced.
   FKA_DATA_R.:E05TOU  cannot be made into a system file and is referenced.
   CP_6_SUBS.:E05TOU  is referenced.
   CP_6.:E05TOU  cannot be made into a system file and is referenced.
   B$JIT_C.:E05TOU  was found in the system file and is never referenced.
   CP_6_C.:E05TOU  was found in the system file and is referenced.
      No diagnostics issued in procedure FKA$ABORT.
PL6.E3A0      #001=FKA$ABORT File=FKA$ALTKEY.:E05TSI                             TUE 07/29/97 15:31 Page:11

 **** Variables and constants ****

  ****  Section 001 RoData FKA$ABORT

  ****  Scalars and arrays  ****
OctLoc.c.b A Datatyp(siz) R M Lvl/name                 OctLoc.c.b A Datatyp(siz) R M Lvl/name

     6-0-0/d STRC(216)   r     1 FPT_XXX                    0-0-0/d STRC(216)   r     1 RESET_XCON

  ****  Section 002  Data  FKA$ABORT

  ****  Scalars and arrays  ****
OctLoc.c.b A Datatyp(siz) R M Lvl/name                 OctLoc.c.b A Datatyp(siz) R M Lvl/name

     0-0-0/w BIT         r     1 ERRCODE

  ****  Auto variables  ****

  ****  Scalars and arrays  ****
OctLoc.c.b A Datatyp(siz) R M Lvl/name                 OctLoc.c.b A Datatyp(siz) R M Lvl/name

     3-0-0/w STRC(72)    r     1 CLOSERR                    5-0-0/w UBIN        r     1 DCB#

  ****  SYMREF variables  ****

  ****  Scalars and arrays  ****
OctLoc.c.b A Datatyp(siz) R M Lvl/name                 OctLoc.c.b A Datatyp(siz) R M Lvl/name

     0-0-0/w PTR         r     1 B$TCB$                     0-0-0/b BIT         r     1 FKA_MON

  ****  BASED and DCB variables  ****

  ****  Scalars and arrays  ****
OctLoc.c.b A Datatyp(siz) R M Lvl/name                 OctLoc.c.b A Datatyp(siz) R M Lvl/name

     0-0-0/w STRC(2448)  r     1 B$ALT                      0-0-0/w STRC(144)   r     1 B$TCB

PL6.E3A0      #001=FKA$ABORT File=FKA$ALTKEY.:E05TSI                             TUE 07/29/97 15:31 Page:12

   Procedure FKA$ABORT requires 32 words for executable code.
   Procedure FKA$ABORT requires 8 words of local(AUTO) storage.
PL6.E3A0      #001=FKA$ABORT File=FKA$ALTKEY.:E05TSI                             TUE 07/29/97 15:31 Page:13
          *** CROSS REFERENCE LISTING ***
**     DENOTES     IDENTIFIER DEFINITION
<<                 IDENTIFIER'S VALUE SET
>>                 IDENTIFIER'S VALUE USED
<>                 IDENTIFIER SET AND/OR USED
--                 IDENTIFIER REFERENCED
PL6.E3A0      #001=FKA$ABORT File=FKA$ALTKEY.:E05TSI                             TUE 07/29/97 15:31 Page:14
          MINI XREF LISTING

B$ALT.CODE
       779**DCL       779--REDEF     780--REDEF     780--REDEF
B$ALT.DCB#
       780**DCL       800>>ASSIGN
B$ALT.ERR
       780**DCL       799>>ASSIGN
B$ALT.ERR.ERR#
       781**DCL       781--REDEF
B$ALT.EVID
       780**DCL       780--REDEF     780--REDEF
B$TCB.ALT$
       775**DCL       799>>ASSIGN    800>>ASSIGN
B$TCB$
       797**DCL       799>>ASSIGN    800>>ASSIGN
CLOSERR
       786**DCL       804<>CALL
DCB#
       796**DCL       800<<ASSIGN    808<>CALL
ERRCODE
       795**DCL       770--DCLINIT   799<<ASSIGN    808<>CALL
FKA$CLOSE
       792**DCL-ENT   804--CALL
FKA_MON
       659**DCL       807>>IF
FPT_XXX
       770**DCL       809<>CALL
FPT_XXX.V
       770**DCL       770--DCLINIT
FPT_XXX.V.STEPCC#
       771**DCL       771--REDEF
IGNORE
       800**LABEL     804--CALLALT
PL6.E3A0      #001=FKA$ABORT File=FKA$ALTKEY.:E05TSI                             TUE 07/29/97 15:31 Page:15
M$XCON
        94**DCL-ENT   802--CALL
M$XXX
        51**DCL-ENT   809--CALL
RESET_XCON
       756**DCL       802<>CALL
RESET_XCON.V
       757**DCL       756--DCLINIT
XUR$ERRMSG
       793**DCL-ENT   808--CALL
PL6.E3A0      #001=FKA$ABORT File=FKA$ALTKEY.:E05TSI                             TUE 07/29/97 15:31 Page:16
              *** CROSS REFERENCE LISTING ***
    **     DENOTES     IDENTIFIER DEFINITION
    <<                 IDENTIFIER'S VALUE SET
    >>                 IDENTIFIER'S VALUE USED
    <>                 IDENTIFIER SET AND/OR USED
    --                 IDENTIFIER REFERENCED
PL6.E3A0      #001=FKA$ABORT File=FKA$ALTKEY.:E05TSI                             TUE 07/29/97 15:31 Page:17
              MINI UREF LISTING

FKA$ABORT      29**PROC
FKA_ALTKEYS$     659**DCL
FKA_BOUND     662**DCL
FKA_CLOSE_DONE     666**DCL
FKA_CMDVAR     665**DCL
FKA_CMDVAR_EXIST     665**DCL
FKA_CMDVAR_SET     665**DCL
FKA_CODE19$     661**DCL
FKA_CODE20$     661**DCL
FKA_DATA_BUF     664**DCL
FKA_DATA_BUF$     664**DCL
FKA_DATA_GRAN     662**DCL
FKA_DCB$     662**DCL
FKA_DUPS     663**DCL
FKA_FIELD_START_DATA     660**DCL
FKA_FILE_OPEN     665**DCL
FKA_INDEX_BUF     663**DCL
FKA_INDEX_BUF$     664**DCL
FKA_INDEX_GRAN     662**DCL
FKA_IRKEYS$     660**DCL
FKA_IRKEYS_DATA     660**DCL
FKA_KEYSIZE     663**DCL
FKA_KFIELD$     661**DCL
FKA_KFIELD_DATA     661**DCL
FKA_KTPTR$     662**DCL
FKA_M$CLOSE_ERR     666**DCL
FKA_NUMKEYS     663**DCL
FKA_RECFIELD$     659**DCL
FKA_RECSIZE     663**DCL
FKA_START$     659**DCL
FKA_UNIQUE     659**DCL
M$ACCT      56**DCL-ENT
PL6.E3A0      #001=FKA$ABORT File=FKA$ALTKEY.:E05TSI                             TUE 07/29/97 15:31 Page:18
M$ACTIVATE      59**DCL-ENT
M$ALIB      52**DCL-ENT
M$ASUSER      54**DCL-ENT
M$ATTACH      61**DCL-ENT
M$BADPP      79**DCL-ENT
M$CGCTL      60**DCL-ENT
M$CGINFO      60**DCL-ENT
M$CHECK      41**DCL-ENT
M$CHGUNIT      99**DCL-ENT
M$CLOSE      39**DCL-ENT
M$CLRSTK      97**DCL-ENT
M$CMDVAR     108**DCL-ENT
M$CONFIG      69**DCL-ENT
M$CORRES      44**DCL-ENT
M$CPEXIT      53**DCL-ENT
M$CVM      77**DCL-ENT
M$CVOL      42**DCL-ENT
M$DCLFLD      69**DCL-ENT
M$DEACTIVATE      59**DCL-ENT
M$DELREC      41**DCL-ENT
M$DEQ     106**DCL-ENT
M$DETACH      61**DCL-ENT
M$DEVICE      43**DCL-ENT
M$DISPLAY     106**DCL-ENT
M$DISPRES      46**DCL-ENT
M$DLIB      52**DCL-ENT
M$DRIBBLE      69**DCL-ENT
M$DRTN      97**DCL-ENT
M$DSUSER      54**DCL-ENT
M$ENQ     105**DCL-ENT
M$EOM      64**DCL-ENT
M$ERASE      70**DCL-ENT
M$ERR      51**DCL-ENT
M$ERRMSG     102**DCL-ENT
M$EVENT      94**DCL-ENT
M$EXHUME     103**DCL-ENT
PL6.E3A0      #001=FKA$ABORT File=FKA$ALTKEY.:E05TSI                             TUE 07/29/97 15:31 Page:19
M$EXIT      51**DCL-ENT
M$EXTEND      43**DCL-ENT
M$FDP      75**DCL-ENT
M$FDS      74**DCL-ENT
M$FEBOOT      67**DCL-ENT
M$FECTL      68**DCL-ENT
M$FEDUMP      67**DCL-ENT
M$FID     102**DCL-ENT
M$FINDPROC      56**DCL-ENT
M$FSUSER      54**DCL-ENT
M$FVP      76**DCL-ENT
M$FWCG      60**DCL-ENT
M$GBPL      80**DCL-ENT
M$GDDL      76**DCL-ENT
M$GDP      75**DCL-ENT
M$GDS      74**DCL-ENT
M$GETDCB      45**DCL-ENT
M$GETMOUSE      85**DCL-ENT
M$GETPM      86**DCL-ENT
M$GJOB     104**DCL-ENT
M$GLINEATTR      64**DCL-ENT
M$GOODPP      79**DCL-ENT
M$GPLATEN      72**DCL-ENT
M$GPROMPT      71**DCL-ENT
M$GTRMATTR      65**DCL-ENT
M$GTRMCTL      63**DCL-ENT
M$GTRMTAB      66**DCL-ENT
M$GVP      75**DCL-ENT
M$HELP     102**DCL-ENT
M$INT      94**DCL-ENT
M$INTRTN      55**DCL-ENT
M$IOQ      90**DCL-ENT
M$JOBSTATS     104**DCL-ENT
M$KEYIN      44**DCL-ENT
M$LDEV      39**DCL-ENT
M$LDTRC      52**DCL-ENT
PL6.E3A0      #001=FKA$ABORT File=FKA$ALTKEY.:E05TSI                             TUE 07/29/97 15:31 Page:20
M$LIMIT      45**DCL-ENT
M$LINES      44**DCL-ENT
M$LINK      51**DCL-ENT
M$MADMUCK      47**DCL-ENT
M$MAKUSER      78**DCL-ENT
M$MBS      46**DCL-ENT
M$MDFFLD      70**DCL-ENT
M$MERC      95**DCL-ENT
M$MERCS      96**DCL-ENT
M$MIRROR      90**DCL-ENT
M$MONINFO     107**DCL-ENT
M$MPL      80**DCL-ENT
M$NODEINFO      71**DCL-ENT
M$NXTUSR     105**DCL-ENT
M$OCMSG     103**DCL-ENT
M$OLAY      51**DCL-ENT
M$OPEN      39**DCL-ENT
M$PAS      80**DCL-ENT
M$PATHCON     103**DCL-ENT
M$PDS      74**DCL-ENT
M$PFIL      41**DCL-ENT
M$PLATEN      65**DCL-ENT
M$PRECORD      43**DCL-ENT
M$PROCNAME      56**DCL-ENT
M$PROFILE      67**DCL-ENT
M$PROMPT      63**DCL-ENT
M$RACST      47**DCL-ENT
M$RDSYSLOG      88**DCL-ENT
M$READ      40**DCL-ENT
M$RELDCB      45**DCL-ENT
M$RELRES      46**DCL-ENT
M$RELSTARF      48**DCL-ENT
M$REM      48**DCL-ENT
M$RENV      95**DCL-ENT
M$REQUIRE      47**DCL-ENT
M$RETRY      96**DCL-ENT
PL6.E3A0      #001=FKA$ABORT File=FKA$ALTKEY.:E05TSI                             TUE 07/29/97 15:31 Page:21
M$RETRYS      96**DCL-ENT
M$REW      42**DCL-ENT
M$RLSFLD      70**DCL-ENT
M$RPRIV      98**DCL-ENT
M$RSPP      77**DCL-ENT
M$RSWITCH      99**DCL-ENT
M$RUE     105**DCL-ENT
M$SAD      78**DCL-ENT
M$SAVE      54**DCL-ENT
M$SCON      55**DCL-ENT
M$SCREECH      53**DCL-ENT
M$SENV      95**DCL-ENT
M$SETFMA      39**DCL-ENT
M$SETFP      68**DCL-ENT
M$SINPUT      66**DCL-ENT
M$SLCFLD      71**DCL-ENT
M$SMOUSE      85**DCL-ENT
M$SMPRT      77**DCL-ENT
M$SPRIV      98**DCL-ENT
M$SSC      78**DCL-ENT
M$SSWITCH      98**DCL-ENT
M$STATE     107**DCL-ENT
M$STD      79**DCL-ENT
M$STIMER      93**DCL-ENT
M$STLPP      76**DCL-ENT
M$STRAP      93**DCL-ENT
M$STRMATTR      65**DCL-ENT
M$STRMCTL      63**DCL-ENT
M$STRMTAB      66**DCL-ENT
M$SYMBIO     104**DCL-ENT
M$SYSCON      90**DCL-ENT
M$SYSID     108**DCL-ENT
M$TDCLOSE      89**DCL-ENT
M$TDIO      89**DCL-ENT
M$TDOPEN      88**DCL-ENT
M$TDREQCPU      89**DCL-ENT
PL6.E3A0      #001=FKA$ABORT File=FKA$ALTKEY.:E05TSI                             TUE 07/29/97 15:31 Page:22
M$TEMPWROC      83**DCL-ENT
M$TIME     106**DCL-ENT
M$TRAP      93**DCL-ENT
M$TRMISC      68**DCL-ENT
M$TRMPRG      64**DCL-ENT
M$TRTN      97**DCL-ENT
M$TRUNC      40**DCL-ENT
M$TTIMER      93**DCL-ENT
M$UC      63**DCL
M$UMPL      80**DCL-ENT
M$UNFID     102**DCL-ENT
M$UNLATCH      59**DCL-ENT
M$UNSHARE      56**DCL-ENT
M$USRFIELD      99**DCL-ENT
M$VIRTUAL      74**DCL-ENT
M$WAIT      97**DCL-ENT
M$WEOF      42**DCL-ENT
M$WRITE      40**DCL-ENT
M$WRSYSLOG      88**DCL-ENT
M$XCONRTN      55**DCL-ENT
M$XEQTIME     107**DCL-ENT
M$XFLUSH      48**DCL-ENT
M$XMOUSE      85**DCL-ENT
M$YC      53**DCL-ENT

PL6.E3A0      #002=FKA$ALTKEY File=FKA$ALTKEY.:E05TSI                            TUE 07/29/97 15:31 Page:23
       61        1        /*T***********************************************************/
       62        2        /*T*                                                         */
       63        3        /*T* Copyright (c) Bull HN Information Systems Inc., 1997    */
       64        4        /*T*                                                         */
       65        5        /*T***********************************************************/
       66        6        /*P*     NAME:     FKA$ALTKEY
       67        7                 PURPOSE:  Main routine for rebuilding alternate indexes
       68        8        */
       69        9        /*D*     NAME:     FKA$ALTKEY
       70       10                 DESCRIPTION:
       71       11
       72       12                      This is the main routine for rebuilding alternate
       73       13                 indexes.  ALTKEY can get invoked one of two ways.  First,
       74       14                 it can get invoked as a result of a file close (see
       75       15                 FMU$ALTBLD for details) or the user can say:
       76       16                 !ALTKEY fid
       77       17
       78       18                      B$JIT.PROG_ENTRY  indicates whether the user invoked
       79       19                 ALTKEY, or the monitor did.
       80       20
       81       21                      Next, we have to set the command variable "SORT$STAT"
       82       22                 to "ERRORS" to keep SORT from spewing out statistics,
       83       23                 but still let it print error messages (since X$SORT
       84       24                 doesn't return any kind of error code, argh!).
       85       25                 This is a real pain, because the user may have it set
       86       26                 to something else, and it's not nice to change command
       87       27                 variables out from under the user.
       88       28
       89       29                      Next, take exit and interrupt control.  We have to
       90       30                 make sure that we clean up properly on exit, or the
       91       31                 file may get hung up.
       92       32
       93       33                      Open the file, and do the appropriate set up.  See
       94       34                 how much memory we have available, and let SORT have all
       95       35                 but 3 pages of it.  We need two or three pages for our
       96       36                 own use.
       97       37
PL6.E3A0      #002=FKA$ALTKEY File=FKA$ALTKEY.:E05TSI                            TUE 07/29/97 15:31 Page:24
       98       38                      Set up the sort key.  Then, read in the first index
       99       39                 granule from the file.  Call SORT.  When we get back,
      100       40                 all of the alternate indexes will have been built.
      101       41                 If SORT altreturns, do an error exit with whatever error
      102       42                 SORT found.
      103       43
      104       44                      A user may have specified UNIQUE for an index that
      105       45                 had duplicates.  Here we do the user the favor of resetting
      106       46                 any UNIQUE bit for an index that had duplicates.
      107       47
      108       48                      Close the file, and release exit control.  If we
      109       49                 found any duplicates on UNIQUE indexes or got any errors
      110       50                 back from the close, then do an error exit.
      111       51
      112       52                      If this is a monitor ALTKEY and we exit with an error
      113       53                 via M$XXX, the M$CLOSE will altreturn with the error we
      114       54                 pass.
      115       55
      116       56                      To make things a little (or a lot) faster for files with
      117       57                 simple key structures, we do a few optimizations.  If the file
      118       58                 only has keys that can be compared using a normal, ASCII collating
      119       59                 sequence compare, SORT_TABLE.SECONDARY.KCE$ is set to ENTADDR(NIL),
      120       60                 so that SORT won't call FKA$COMP to do all its compares.  This
      121       61                 saves a *lot* of time.  To qualify for this, the file must have
      122       62                 key fields of only CHAR, UBIN, UTS, PDNS, or UDNS data types.  Keys
      123       63                 may have multiple segments, however.
      124       64
      125       65                      We also check each key for this case, and set IRKEYS.K.DEGENERATE
      126       66                 if the key qualifies.  This lets us short-circuit the compare process
      127       67                 in FKA$COMP for these keys.
      128       68
      129       69                      Finally, in FKA$COMP, if a key consists of only one field,
      130       70                 we go ahead and pass it to the compare routine, which is slightly
      131       71                 more efficient than always assuming the worst case.
      132       72        */
      133       73         %EJECT;
PL6.E3A0      #002=FKA$ALTKEY File=FKA$ALTKEY.:E05TSI                            TUE 07/29/97 15:31 Page:25
      134       74        FKA$ALTKEY: PROC MAIN;
      135       75         %INCLUDE CP_6;
      136      156         %INCLUDE CP_6_SUBS;
      137      696         %INCLUDE FM$FIT;
      138      917         %INCLUDE FM$GRAN;
      139      986         %INCLUDE FK_PERR_C;
      140      995         %INCLUDE FKA_DATA_R;
      141     1011         %INCLUDE FK_DATA_C;
      142     1088         %INCLUDE ZL_MACRO_C;
      143     1738         %INCLUDE B$JIT;
      144     2028         %INCLUDE FM_FIELD_C;
      145     2069         %INCLUDE B$OBJECT_C;
      146     5499         %INCLUDE B_ERRORS_C;
      147     6626        /* */
      148     6627         %FPT_OPEN(FPTN=OPENSI, DCB=M$SI, FUN=UPDATE, ACS=BLOCK,
      149     6628         FPARAM=FKA_ALTKEY_BFR.FPARAM, STCLASS=CONSTANT);
      150     6737         %FPT_READ(FPTN=READ_INDEX, BUF=FKA_INDEX_BUF, KEY=FKA_INDEX_GRAN,
      151     6738         KEYS=YES, DCB=M$SI, STCLASS=CONSTANT);
      152     6777         %FPT_RELSTARF(ALTKEYS=FKA_ALTKEY_BFR, STCLASS=CONSTANT);
      153     6792         %FPT_XCON(UENTRY=FKA$XCON, STCLASS=CONSTANT);
      154     6806         %FPT_XCON(FPTN=RESET_XCON, STCLASS=CONSTANT);
      155     6820         %FPT_INT(UENTRY=FKA$BREAK, STCLASS=CONSTANT);
      156     6834         %FPT_XXX(CODE=ERRCODE, STEPCC=ERROR, STCLASS=CONSTANT);
      157     6849         %FPT_CMDVAR(FUN=FETCH, NAME=VLP_NAME, VALUE=FKA_CMDVAR,
      158     6850         STCLASS=CONSTANT);
      159     6867         %FPT_CMDVAR(FPTN=SET_SILENT, NAME=VLP_NAME, VALUE=SILENT,
      160     6868         FUN=STORE, STCLASS=CONSTANT);
      161     6885         %FPT_GDDL(RESULTS=VLP_GDDL);
      162     6898         %FPT_OPEN(FPTN=FPT_COLLATE, DCB=F$SCRF1, DISP=SCRATCH,
      163     6899         SCRUB=YES, STCLASS=STATIC);
      164     7008         %VLP_GDDL;
      165     7022         %VLP_NAME(NAME='SORT$STAT', STCLASS=CONSTANT);
      166     7049         %VLP_ERRCODE(FPTN=ERR_NOALTINDX, FCG=FK, MID=A, SEV=0,
      167     7050         ERR#=%E$NOALTINDX, STCLASS=CONSTANT);
      168     7095                          /* E$DUPKEY2 error is extracted from FMU$MUL to set MON bit */
      169     7096         %VLP_ERRCODE(FPTN=ERR_DUPS, FCG=FK, MID=A, SEV=0, MON='1'B,
      170     7097         ERR#=%E$DUPKEY2, STCLASS=CONSTANT);
PL6.E3A0      #002=FKA$ALTKEY File=FKA$ALTKEY.:E05TSI                            TUE 07/29/97 15:31 Page:26
      171     7142         %B$TCB;
      172     7145         %B$ALT;
      173     7153        /* */
      174     7154    1     DCL M$SI DCB;
      175     7155    1     DCL F$SCRF1 DCB;
      176     7156        /* */
      177     7157    1     DCL B$JIT$ PTR SYMREF;
      178     7158    1     DCL B$TCB$ PTR SYMREF;
      179     7159        /* */
      180     7160         %F$DCB(DCBN=F$DCB, STCLASS="BASED(FKA_DCB$)");
      181     7217         %FM$GRAN(BASED="BASED(FKA_INDEX_BUF$)");
      182     7221         %FM$KEYTBL(BASED="BASED(FKA_KTPTR$)");
      183     7224         %FITALTKEYS(BASED="BASED(FKA_ALTKEYS$)");
      184     7230         %VLP_RECFIELD(FPTN=RECFIELD, STCLASS="BASED(FKA_RECFIELD$)");
      185     7274         %FM$FIELD_START(FPTN=FIELD_START, STCLASS="BASED(FKA_START$)");
      186     7296         %CODE19(BASED="BASED(FKA_CODE19$)");
      187     7299         %CODE20(BASED="BASED(FKA_CODE20$)");
      188     7304         %FK$ALTKEY_BFR(FPTN=FKA_ALTKEY_BFR, STCLASS="STATIC SYMDEF");
      189     7324         %FK$CCBUF(STCLASS="BASED(CCBUF$)");
      190     7346         %FMG$IRKEYS(FPTN=IRKEYS, STCLASS="BASED(FKA_IRKEYS$)");
      191     7353         %FMG$KFIELD(FPTN=KFIELD, STCLASS="BASED(FKA_KFIELD$)");
      192     7356         %VREBL_DATATYPES;
      193     7431        /* */
      194     7432         %SORT_TABLE(STCLASS="STATIC SYMDEF",ICE=FKA$INPUT,OCE=FKA$OUTPUT,KEYS=ZL_KEYS);
      195     7541         %ZL_KEYS(N=1);
      196     7558         %ZL_KEY;
      197     7618         %ZL_COLLATE(N=1);
      198     7637         %ZL_FPT(FPT=FPT_COLLATE);
      199     7665        /* */
      200     7666    1     DCL X$SORT ENTRY(1) ALTRET;
      201     7667    1     DCL FKA$INPUT ENTRY(2) ALTRET;
      202     7668    1     DCL FKA$OUTPUT ENTRY(2) ALTRET;
      203     7669    1     DCL FKA$COMP ENTRY(3);
      204     7670    1     DCL FKA$CLOSE ENTRY(1) ALTRET;
      205     7671    1     DCL FKA$XCON ENTRY ASYNC;
      206     7672    1     DCL FKA$BREAK ENTRY ASYNC;
      207     7673    1     DCL XSF$LOCCODE ENTRY(2) ALTRET;
PL6.E3A0      #002=FKA$ALTKEY File=FKA$ALTKEY.:E05TSI                            TUE 07/29/97 15:31 Page:27
      208     7674    1     DCL XUR$ERRMSG ENTRY(7) ALTRET;
      209     7675        /* */
      210     7676    1     DCL 1 SILENT CONSTANT,
      211     7677    1            2 * UBIN(9) CALIGNED INIT(6),
      212     7678    1            2 * CHAR(0) CALIGNED INIT('ERRORS');
      213     7679        /* */
      214     7680    1     DCL ERRCODE BIT(36) STATIC INIT('0'B);
      215     7681    1     DCL DCB# UBIN STATIC INIT(0);
      216     7682        /* */
      217     7683    1     DCL I SBIN;
      218     7684    1     DCL MAX SBIN;
      219     7685    1     DCL LEN SBIN;
      220     7686    1     DCL J SBIN;
      221     7687    1     DCL N SBIN;
      222     7688    1     DCL FIELD SBIN;
      223     7689    1     DCL TOTAL SBIN;
      224     7690    1     DCL CCBUF$ PTR;
      225     7691         %FKA$ERR(FPTN=CLOSERR,STCLASS=" ");
      226     7697        /* */
      227     7698    2           DO INHIBIT;
      228     7699    2              FKA_FILE_OPEN=%NO#;
      229     7700    2              FKA_CMDVAR_SET=%NO#;
      230     7701    2              FKA_CLOSE_DONE=%NO#;
      231     7702    2              FKA_M$CLOSE_ERR='0'B;
      232     7703    2              END;
      233     7704
      234     7705    1           IF B$JIT.PROG_ENTRY = %PE_MLINK# THEN
      235     7706    1              FKA_MON=%YES#;
      236     7707    1           ELSE
      237     7708    1              FKA_MON=%NO#;
      238     7709
      239     7710    1           CALL M$CMDVAR(FPT_CMDVAR) ALTRET(NONE);
      240     7711    1           FKA_CMDVAR_EXIST=%YES#;
      241     7712
      242     7713    2           DO WHILE('0'B);
      243     7714    2   NONE:      FKA_CMDVAR_EXIST=%NO#;
      244     7715    2              END;
PL6.E3A0      #002=FKA$ALTKEY File=FKA$ALTKEY.:E05TSI                            TUE 07/29/97 15:31 Page:28
      245     7716    1           CALL M$CMDVAR(SET_SILENT) ALTRET(MERR);
      246     7717    1           FKA_CMDVAR_SET=%YES#;
      247     7718
      248     7719    1           CALL M$XCON(FPT_XCON);
      249     7720    1           CALL M$INT(FPT_INT);
      250     7721
      251     7722    1           FKA_DCB$=DCBADDR(DCBNUM(M$SI));
      252     7723    1           CALL OPEN ALTRET(MERR);
      253     7724
      254     7725    1           IF F$DCB.ORG# = %INDEXED# THEN
      255     7726    2           DO;                             /* INDEXED FILE                       */
      256     7727    2              CALL INDEXED_SETUP ALTRET(ABORT);
      257     7728    2              END;                         /* INDEXED FILE                       */
      258     7729    1           ELSE
      259     7730    2           DO;                             /* IREL FILE                          */
      260     7731    2              CALL IREL_SETUP ALTRET(ABORT);
      261     7732    2              END;                         /* IREL FILE                          */
      262     7733
      263     7734    1           CALL M$GDDL(FPT_GDDL) ALTRET(MERR);
      264     7735    1           SORT_TABLE.MEM#=VLP_GDDL.AVAIL_PGS#-3;
      265     7736
      266     7737    1           FKA_KEYSIZE=MAX;
      267     7738    1           FKA_RECSIZE=MAX+15;
      268     7739    1           SORT_TABLE.PRIMARY.INSIZ#=FKA_RECSIZE;
      269     7740    1           ZL_KEYS.KEY1.START#=1;
      270     7741    1           ZL_KEYS.KEY1.LENGTH#=MAX+7;
      271     7742
      272     7743    1           FKA_INDEX_GRAN=0;
      273     7744    1           CALL M$READ(READ_INDEX) ALTRET(MERR);
      274     7745
      275     7746    1           FKA_KTPTR$=PINCRW(FKA_INDEX_BUF$, FM$GRAN.FCEX);
      276     7747    1           FKA_BOUND=FM$KEYTBL(0);
      277     7748
      278     7749    1           CALL X$SORT(SORT_TABLE) ALTRET(SORT_ERR);
      279     7750
      280     7751    1           IF F$DCB.ORG# = %INDEXED# THEN
      281     7752    2           DO;                             /* INDEXED                            */
PL6.E3A0      #002=FKA$ALTKEY File=FKA$ALTKEY.:E05TSI                            TUE 07/29/97 15:31 Page:29
      282     7753    2              FITALTKEYS.ALTBLD='0'B;
      283     7754    2              FITALTKEYS.UNIQUEBLD='0'B;
      284     7755    3              DO I=1 TO FITALTKEYS.NUMENTS-1;
      285     7756    3                 FITALTKEYS.K.UNIQUE(I)=FKA_UNIQUE(I);
      286     7757    3                 END;
      287     7758    2              END;                         /* INDEXED                            */
      288     7759    1           ELSE
      289     7760    2           DO;                             /* IREL                               */
      290     7761    2              CODE20.ALTBLD='0'B;
      291     7762    2              CODE20.UNIQUEBLD='0'B;
      292     7763    3              DO I=1 TO IRKEYS.NKEYS-1;
      293     7764    3                 IRKEYS.K.UNIQUE(I)=FKA_UNIQUE(I);
      294     7765    3                 END;
      295     7766    2              END;                         /* IREL                               */
      296     7767
      297     7768    1           ERRCODE='0'B;
      298     7769    1           IF FKA_DUPS THEN
      299     7770    2           DO;
      300     7771    2              ERRCODE=ERR_DUPS;
      301     7772    2              DCB#=DCBNUM(M$SI);
      302     7773    2              END;
      303     7774
      304     7775    2           CALL FKA$CLOSE(CLOSERR) WHENALTRETURN DO;
      305     7776    2              IF NOT FKA_DUPS OR CLOSERR.TYPE=%UNEXPECTED THEN
      306     7777    3              DO;
      307     7778    3                 ERRCODE=CLOSERR.ERR;
      308     7779    3                 DCB#=CLOSERR.DCB#;
      309     7780    3                 END;
      310     7781    2              END;
      311     7782
      312     7783    1           IF ERRCODE ~= '0'B THEN
      313     7784    1              GOTO ABORT;
      314     7785
      315     7786    1           CALL M$XCON(RESET_XCON);
      316     7787    1           CALL M$EXIT;
      317     7788
      318     7789    1   SORT_ERR: ;
PL6.E3A0      #002=FKA$ALTKEY File=FKA$ALTKEY.:E05TSI                            TUE 07/29/97 15:31 Page:30
      319     7790    1           ERRCODE=B$TCB$->B$TCB.ALT$->B$ALT.ERR;
      320     7791    1           DCB#=B$TCB$->B$TCB.ALT$->B$ALT.DCB#;
      321     7792    1           CALL FKA$CLOSE(CLOSERR) ALTRET(ABORT);
      322     7793    1           GOTO ABORT;
      323     7794
      324     7795    1   MERR:   ERRCODE=B$TCB$->B$TCB.ALT$->B$ALT.ERR;
      325     7796    1           DCB#=B$TCB$->B$TCB.ALT$->B$ALT.DCB#;
      326     7797    1   ABORT:  IF FKA_MON = %NO# THEN
      327     7798    1              CALL XUR$ERRMSG(ERRCODE, DCB#);
      328     7799
      329     7800    1           CALL M$XCON(RESET_XCON);
      330     7801    1           CALL M$XXX(FPT_XXX);
      331     7802         %EJECT;
PL6.E3A0      #002=FKA$ALTKEY File=FKA$ALTKEY.:E05TSI                            TUE 07/29/97 15:31 Page:31
      332     7803        /*I*     NAME:     FIELD_START_SETUP
      333     7804                 PURPOSE:  To set up bit offsets to the start of each
      334     7805                           RECFIELD field in the FIELD_START.OFFSET array.
      335     7806                 DESCRIPTION:
      336     7807                      Figure out the starting offset to each field based
      337     7808                 on the alignment rules for the field type and the field
      338     7809                 length.
      339     7810        */
      340     7811    1   FIELD_START_SETUP: PROC;
      341     7812        /**/
      342     7813    2     DCL I UBIN;
      343     7814    2     DCL J UBIN;
      344     7815    2     DCL REC_OFFSET UBIN;
      345     7816        %EQU BYTE_ALIGNED = 1;
      346     7817        %EQU NIBBLE_ALIGNED = 2;
      347     7818        %EQU BIT_ALIGNED = 3;
      348     7819        /**/
      349     7820    2              FIELD_START.NWORDS=RECFIELD.NFIELDS# + 1;
      350     7821    2              REC_OFFSET=0;
      351     7822    2              I=0;
      352     7823
      353     7824    3              DO WHILE(I <= RECFIELD.NFIELDS#-1);
      354     7825
      355     7826    4                 DO CASE(RECFIELD.FIELD.TYPE#(I));
      356     7827
      357     7828    4                    CASE(%LIST_DATATYPE);
      358     7829    4                       CALL FIELD_START(I+1);
      359     7830    4                       FIELD_START.OFFSET(I)=FIELD_START.OFFSET(I+1);
      360     7831    5                       DO J=2 TO RECFIELD.FIELD.LEN#(I);
      361     7832    5                          CALL FIELD_START(I+1);
      362     7833    5                          END;
      363     7834    4                       FIELD_START.OFFSET(I+1)=FIELD_START.OFFSET(I);
      364     7835    4                       I=I+1;
      365     7836
      366     7837    4                    CASE(%VLIST_DATATYPE);
      367     7838    4                       CALL FIELD_START(I+1);
      368     7839    4                       FIELD_START.OFFSET(I)=FIELD_START.OFFSET(I+1);
PL6.E3A0      #002=FKA$ALTKEY File=FKA$ALTKEY.:E05TSI                            TUE 07/29/97 15:31 Page:32
      369     7840    4                       REC_OFFSET=FIELD_START.OFFSET(I);
      370     7841    4                       I=I+1;
      371     7842
      372     7843    4                    CASE(ELSE);
      373     7844    4                       CALL FIELD_START(I);
      374     7845
      375     7846    4                    END;                   /* Do Case                            */
      376     7847
      377     7848    3                 I=I+1;
      378     7849    3                 END;                      /* Do While                           */
      379     7850
      380     7851    2              RETURN;
      381     7852        %EJECT;
PL6.E3A0      #002=FKA$ALTKEY File=FKA$ALTKEY.:E05TSI                            TUE 07/29/97 15:31 Page:33
      382     7853    2   FIELD_START:  PROC(K);
      383     7854    3     DCL K UBIN;
      384     7855        /**/
      385     7856
      386     7857    4                 DO CASE(RECFIELD.FIELD.TYPE#(K));
      387     7858
      388     7859    4                    CASE(%NO_DATATYPE,%CHAR_DATATYPE);
      389     7860    4                       CALL SET_FIELD_START(%BYTE_ALIGNED);
      390     7861    4                       REC_OFFSET=REC_OFFSET + (RECFIELD.FIELD.LEN#(K)*9);
      391     7862
      392     7863    4                    CASE(%SBIN_DATATYPE,%UBIN_DATATYPE);
      393     7864    4                       CALL SET_FIELD_START(%BIT_ALIGNED);
      394     7865    4                       REC_OFFSET=REC_OFFSET + RECFIELD.FIELD.LEN#(K);
      395     7866
      396     7867    4                    CASE(%SFLT_DATATYPE,%UTS_DATATYPE);
      397     7868    4                       CALL SET_FIELD_START(%BYTE_ALIGNED);
      398     7869    4                       REC_OFFSET=REC_OFFSET + 36;
      399     7870
      400     7871    4                    CASE(%DFLT_DATATYPE,%DATE_DATATYPE,%TIME_DATATYPE);
      401     7872    4                       CALL SET_FIELD_START(%BYTE_ALIGNED);
      402     7873    4                       REC_OFFSET=REC_OFFSET + 72;
      403     7874
      404     7875    4                    CASE(%PDLA_DATATYPE,%PDTA_DATATYPE,%PDLE_DATATYPE,
      405     7876    4                           %PDTE_DATATYPE,%PDFLT_DATATYPE,%PDNS_DATATYPE);
      406     7877    4                       CALL SET_FIELD_START(%NIBBLE_ALIGNED);
      407     7878    4                       REC_OFFSET=REC_OFFSET + ((RECFIELD.DECFIELD.LEN#(K)/2)*9);
      408     7879    4                       IF MOD(RECFIELD.DECFIELD.LEN#(K),2)~=0 THEN /* odd length */
      409     7880    4                          IF MOD(REC_OFFSET,9)=0 THEN
      410     7881    4                             REC_OFFSET=REC_OFFSET+5; /* even nibble boundary    */
      411     7882    4                          ELSE REC_OFFSET=REC_OFFSET+4; /* odd nibble boundary   */
      412     7883
      413     7884    4                    CASE(%TEXTC_DATATYPE);
      414     7885    4                       CALL SET_FIELD_START(%BYTE_ALIGNED);
      415     7886    4                       REC_OFFSET=REC_OFFSET + 9;
      416     7887
      417     7888    4                    CASE(%TEXTH_DATATYPE);
      418     7889    4                       CALL SET_FIELD_START(%BYTE_ALIGNED);
PL6.E3A0      #002=FKA$ALTKEY File=FKA$ALTKEY.:E05TSI                            TUE 07/29/97 15:31 Page:34
      419     7890    4                       REC_OFFSET=REC_OFFSET + 18;
      420     7891
      421     7892    4                    CASE(%UDNS_DATATYPE,%UDLS_DATATYPE,%UDTS_DATATYPE,
      422     7893    4                           %UDLO_DATATYPE,%UDTO_DATATYPE,%UDFLT_DATATYPE);
      423     7894    4                       CALL SET_FIELD_START(%BYTE_ALIGNED);
      424     7895    4                       REC_OFFSET=REC_OFFSET + (RECFIELD.DECFIELD.LEN#(K)*9);
      425     7896
      426     7897    4                    END;                   /* Do Case                            */
      427     7898
      428     7899    3                 RETURN;
      429     7900        %EJECT;
PL6.E3A0      #002=FKA$ALTKEY File=FKA$ALTKEY.:E05TSI                            TUE 07/29/97 15:31 Page:35
      430     7901    3   SET_FIELD_START: PROC (ALIGN_TYPE);
      431     7902    4     DCL ALIGN_TYPE UBIN;
      432     7903    4     DCL EVEN UBIN;
      433     7904        /**/
      434     7905
      435     7906    5                    DO CASE(ALIGN_TYPE);
      436     7907    5                       CASE(%BYTE_ALIGNED);
      437     7908    5                          IF MOD(REC_OFFSET,9)~=0 THEN
      438     7909    5                             REC_OFFSET=((REC_OFFSET/9)*9) + 9;
      439     7910
      440     7911    5                       CASE(%NIBBLE_ALIGNED);
      441     7912    5                          EVEN=(REC_OFFSET/9)*9;
      442     7913    5                          IF REC_OFFSET > EVEN AND REC_OFFSET < EVEN+5 THEN
      443     7914    5                             REC_OFFSET=EVEN+5;
      444     7915    5                          ELSE IF REC_OFFSET > EVEN+5 THEN
      445     7916    5                                REC_OFFSET=EVEN+9;
      446     7917
      447     7918    5                       CASE(%BIT_ALIGNED);
      448     7919                                                /* Don't do anything.                 */
      449     7920
      450     7921    5                       END;                /* Do Case                            */
      451     7922
      452     7923    4                    FIELD_START.OFFSET(K)=REC_OFFSET; /* K defined in FIELD_START */
      453     7924    4                    RETURN;
      454     7925
      455     7926    4            END SET_FIELD_START;
      456     7927
      457     7928    3         END FIELD_START;
      458     7929
      459     7930    2      END FIELD_START_SETUP;
      460     7931        %EJECT;
PL6.E3A0      #002=FKA$ALTKEY File=FKA$ALTKEY.:E05TSI                            TUE 07/29/97 15:31 Page:36
      461     7932        /*I*     NAME:     INDEXED_SETUP
      462     7933                 PURPOSE:  To handle set up for indexed files
      463     7934                 DESCRIPTION:
      464     7935
      465     7936                      Build a pointer to the altkey information, and
      466     7937                 find the largest key.
      467     7938        */
      468     7939         %EJECT;
PL6.E3A0      #002=FKA$ALTKEY File=FKA$ALTKEY.:E05TSI                            TUE 07/29/97 15:31 Page:37
      469     7940    1   INDEXED_SETUP: PROC ALTRET;
      470     7941        /* */
      471     7942    2              FKA_ALTKEYS$=PINCRW(ADDR(FKA_ALTKEY_BFR.FPARAM), 5);
      472     7943    2              I=8;
      473     7944    2              CALL XSF$LOCCODE(FKA_ALTKEYS$, I) ALTRET(NOALT);
      474     7945
      475     7946    2              MAX=0;
      476     7947    3              DO I=0 TO FITALTKEYS.NUMENTS-1;
      477     7948    3                 FITALTKEYS.K.DUPKEY(I)='0'B;
      478     7949    3                 FKA_UNIQUE(I)=FITALTKEYS.K.UNIQUE(I);
      479     7950    3                 IF FITALTKEYS.K.KEYL(I) > MAX THEN
      480     7951    3                    MAX=FITALTKEYS.K.KEYL(I);
      481     7952    3                 END;
      482     7953
      483     7954    2              FKA_NUMKEYS=FITALTKEYS.NUMENTS;
      484     7955
      485     7956    2              RETURN;
      486     7957    2   NOALT:     ERRCODE=ERR_NOALTINDX;
      487     7958        /*E*   ERROR:  FKA-E$NOALTINDX-0
      488     7959               MESSAGE:  There are no alternate indexes in this file.
      489     7960        */
      490     7961    2              ALTRETURN;
      491     7962    2      END INDEXED_SETUP;
      492     7963         %EJECT;
PL6.E3A0      #002=FKA$ALTKEY File=FKA$ALTKEY.:E05TSI                            TUE 07/29/97 15:31 Page:38
      493     7964        /*I*     NAME:     IREL_SETUP
      494     7965                 PURPOSE:  Part one of set up for IREL files
      495     7966                 DESCRIPTION:
      496     7967
      497     7968                      Find and build pointers to all of the IREL
      498     7969                 information that we need.
      499     7970        */
      500     7971         %EJECT;
PL6.E3A0      #002=FKA$ALTKEY File=FKA$ALTKEY.:E05TSI                            TUE 07/29/97 15:31 Page:39
      501     7972    1   IREL_SETUP: PROC ALTRET;
      502     7973    2     DCL I SBIN;
      503     7974    2     DCL START SBIN;
      504     7975    2     DCL LEN SBIN;
      505     7976        /* */
      506     7977    2              FKA_RECFIELD$=PINCRW(ADDR(FKA_ALTKEY_BFR.FPARAM), 5);
      507     7978    2              I=18;
      508     7979    2              CALL XSF$LOCCODE(FKA_RECFIELD$, I) ALTRET(NOALT);
      509     7980
      510     7981    2              FKA_CODE19$=PINCRW(ADDR(FKA_ALTKEY_BFR.FPARAM), 5);
      511     7982    2              I=19;
      512     7983    2              CALL XSF$LOCCODE(FKA_CODE19$, I) ALTRET(NOALT);
      513     7984
      514     7985    2              FKA_CODE20$=PINCRW(ADDR(FKA_ALTKEY_BFR.FPARAM), 5);
      515     7986    2              I=20;
      516     7987    2              CALL XSF$LOCCODE(FKA_CODE20$, I) ALTRET(NOALT);
      517     7988
      518     7989    2              CALL FIELD_START_SETUP;
      519     7990    2              CALL IRSETUP;
      520     7991
      521     7992    2              SORT_TABLE.SECONDARY.KCE$ = ENTADDR(FKA$COMP);
      522     7993                                                /* Check for degenerate case.         */
      523     7994    3              DO I = 0 TO FKA_NUMKEYS - 1;
      524     7995    3                 IF NOT IRKEYS.K.DEGENERATE(I) THEN /* Not a degenerate case.    */
      525     7996    3                    RETURN;
      526     7997    3                 END;
      527     7998                                           /* Don't need FKA$COMP if degenerate case. */
      528     7999    2              SORT_TABLE.SECONDARY.KCE$ = ENTADDR(NIL);
      529     8000
      530     8001    2              RETURN;
      531     8002    2   NOALT:     ERRCODE=ERR_NOALTINDX;
      532     8003    2              ALTRETURN;
      533     8004    2      END IREL_SETUP;
      534     8005         %EJECT;
PL6.E3A0      #002=FKA$ALTKEY File=FKA$ALTKEY.:E05TSI                            TUE 07/29/97 15:31 Page:40
      535     8006        /*I*     NAME:     IRSETUP
      536     8007                 PURPOSE:  Part two of set up for IREL files
      537     8008                 DESCRIPTION:
      538     8009
      539     8010                      The information has to be moved from the various
      540     8011                 code blocks to some more coherent structures.  Again,
      541     8012                 we have to find the size of the largest key.
      542     8013        */
      543     8014         %EJECT;
PL6.E3A0      #002=FKA$ALTKEY File=FKA$ALTKEY.:E05TSI                            TUE 07/29/97 15:31 Page:41
      544     8015    1   IRSETUP:   PROC;
      545     8016        /* */
      546     8017    2              IRKEYS.NKEYS=CODE19.NKEYS;
      547     8018    2              N=0;
      548     8019    2              MAX=0;
      549     8020    3              DO I=0 TO CODE19.NKEYS-1;
      550     8021    3                 TOTAL = 0;
      551     8022    3                 IRKEYS.K.FIRSTFIELD(I) = N;
      552     8023    3                 IRKEYS.K.UNIQUE(I) = CODE19.K.UNIQUE(I);
      553     8024    3                 FKA_UNIQUE(I) = CODE19.K.UNIQUE(I);
      554     8025    3                 IRKEYS.K.FDA(I) = CODE20.K.FDA(I);
      555     8026    3                 IRKEYS.K.LDA(I) = CODE20.K.LDA(I);
      556     8027    3                 IRKEYS.K.DEGENERATE(I) = CODE20.K.DEGENERATE(I);
      557     8028    4                 DO UNTIL (CODE19.K.KEYEND(N-1));
      558     8029    4                    IRKEYS.K.NFIELDS(I) = IRKEYS.K.NFIELDS(I) + 1;
      559     8030    4                    KFIELD.FIELD(N) = CODE19.K.FIELDN(N);
      560     8031    4                    FIELD = CODE19.K.FIELDN(N);
      561     8032    4                    CALL SET_LEN;
      562     8033    4                    TOTAL = TOTAL + LEN;
      563     8034    4                    N = N + 1;
      564     8035    4                    END;
      565     8036    3                 IRKEYS.K.KEYL(I) = TOTAL;
      566     8037    3                 IF TOTAL > MAX THEN
      567     8038    3                    MAX = TOTAL;
      568     8039    3                 END;
      569     8040
      570     8041    2              FKA_NUMKEYS=CODE19.NKEYS;
      571     8042
      572     8043    2              RETURN;
      573     8044    2      END IRSETUP;
      574     8045         %EJECT;
PL6.E3A0      #002=FKA$ALTKEY File=FKA$ALTKEY.:E05TSI                            TUE 07/29/97 15:31 Page:42
      575     8046        /*I*     NAME:     OPEN
      576     8047                 PURPOSE:  To open the file
      577     8048                 DESCRIPTION:
      578     8049
      579     8050                      If this is a monitor ALTKEY, then we call RELSTARF
      580     8051                 to do a sleazy open.  This has to be done because we need
      581     8052                 to open the file with BLOCK access, and this is not possible
      582     8053                 if someone else has the file open.  The sleazy open is a bit
      583     8054                 interesting because it opens the dcb with FUN=IN to prevent
      584     8055                 unwanted behavior when we're run down and the dcb is really
      585     8056                 closed.  However, the FMBLK privilege that ALTKEY is linked
      586     8057                 with allows us to write granules in the file anyway.  In this
      587     8058                 case, we've been passed some information in the CCBUF via the
      588     8059                 M$MLINK which wouldn't be easily available otherwise; e.g.,
      589     8060                 the CFU pointer and SETX of the file, B$JIT.ERR as it was
      590     8061                 prior to the link to ALTKEY (so it won't be forgotten), the
      591     8062                 user's FPT_CLOSE RELG option, and whether he's allowed to
      592     8063                 RELG or not (his DELF access).  These will be used later to
      593     8064                 decide how to close and exit.
      594     8065
      595     8066                      Otherwise, for a stand-alone ALTKEY, just do a normal
      596     8067                 block open.
      597     8068        */
      598     8069         %EJECT;
PL6.E3A0      #002=FKA$ALTKEY File=FKA$ALTKEY.:E05TSI                            TUE 07/29/97 15:31 Page:43
      599     8070    1   OPEN:      PROC ALTRET;
      600     8071        /* */
      601     8072    2              IF FKA_MON = %YES# THEN
      602     8073    3              DO;                          /* MONITOR CLOSE                      */
      603     8074    3                 FKA_ALTKEY_BFR.CODE=%ALTKEY_OPEN#;
      604     8075    3                 FKA_ALTKEY_BFR.DCB#=DCBNUM(M$SI);
      605     8076    3                 CCBUF$=PINCRC(ADDR(B$JIT.CCBUF), -1);
      606     8077    3                 FKA_ALTKEY_BFR.CFU$=CCBUF.CFU$;
      607     8078    3                 FKA_ALTKEY_BFR.SETX=CCBUF.SETX;
      608     8079    3                 FKA_ALTKEY_BFR.RELG=CCBUF.RELG;
      609     8080    3                 FKA_ALTKEY_BFR.DELF=CCBUF.DELF;
      610     8081    3                 FKA_M$CLOSE_ERR=CCBUF.CLOSERR;
      611     8082    3                 CALL M$RELSTARF(FPT_RELSTARF) ALTRET(MERR);
      612     8083    3                 FKA_FILE_OPEN=%YES#;
      613     8084    3                 END;                      /* MONITOR CLOSE                      */
      614     8085    2              ELSE
      615     8086    3              DO;                          /* USER REBUILD                       */
      616     8087    3                 FKA_ALTKEY_BFR.DCB#=DCBNUM(M$SI);
      617     8088    3                 FKA_ALTKEY_BFR.RELG='0'B;
      618     8089    3                 FKA_ALTKEY_BFR.DELF='0'B;
      619     8090    3                 CALL M$OPEN(OPENSI) ALTRET(MERR);
      620     8091    3                 FKA_FILE_OPEN=%YES#;
      621     8092    3                 END;                      /* USER REBUILD                       */
      622     8093
      623     8094    2              RETURN;
      624     8095    2   MERR:      ALTRETURN;
      625     8096    2      END OPEN;
      626     8097         %EJECT;
PL6.E3A0      #002=FKA$ALTKEY File=FKA$ALTKEY.:E05TSI                            TUE 07/29/97 15:31 Page:44
      627     8098        /*I*     NAME:     SET_LEN
      628     8099                 PURPOSE:  To get the length of a field
      629     8100                 DESCRIPTION:
      630     8101
      631     8102                      The length can be stored as either bits, nibbles, or
      632     8103                 bytes.  Get the value from the appropriate place, and do
      633     8104                 the appropriate arithmatic to get it to bytes.
      634     8105        */
      635     8106         %EJECT;
PL6.E3A0      #002=FKA$ALTKEY File=FKA$ALTKEY.:E05TSI                            TUE 07/29/97 15:31 Page:45
      636     8107    1   SET_LEN:   PROC;
      637     8108        /* */
      638     8109    3              DO CASE(RECFIELD.FIELD.TYPE#(FIELD));
      639     8110    3                 CASE(%PDLA_DATATYPE, %PDTA_DATATYPE, %PDNS_DATATYPE,
      640     8111    3                  %PDTE_DATATYPE, %PDFLT_DATATYPE, %PDLE_DATATYPE,
      641     8112    3                  %DATE_DATATYPE, %TIME_DATATYPE);
      642     8113    3                    LEN=(RECFIELD.DECFIELD.LEN#(FIELD)+1)/2;
      643     8114
      644     8115    3                 CASE(%UDLS_DATATYPE, %UDTS_DATATYPE, %UDNS_DATATYPE,
      645     8116    3                        %UDLO_DATATYPE, %UDTO_DATATYPE, %UDFLT_DATATYPE);
      646     8117    3                    LEN=RECFIELD.DECFIELD.LEN#(FIELD);
      647     8118
      648     8119    3                 CASE(%SBIN_DATATYPE, %UBIN_DATATYPE, %UTS_DATATYPE);
      649     8120    3                    LEN=RECFIELD.FIELD.LEN#(FIELD)/9;
      650     8121
      651     8122    3                 CASE(ELSE);
      652     8123    3                    LEN=RECFIELD.FIELD.LEN#(FIELD);
      653     8124
      654     8125    3                 END;                      /* CASE                               */
      655     8126
      656     8127    2              RETURN;
      657     8128    2      END SET_LEN;
      658     8129    1   END FKA$ALTKEY;
      659     8130         %EOD;

PL6.E3A0      #002=FKA$ALTKEY File=FKA$ALTKEY.:E05TSI                            TUE 07/29/97 15:31 Page:46
--  Include file information  --

   B_ERRORS_C.:E05TOU  is referenced.
   B$OBJECT_C.:E05TOU  is referenced.
   FM_FIELD_C.:E05TOU  is referenced.
   B$JIT.:E05TOU  cannot be made into a system file and is referenced.
   ZL_MACRO_C.:TOOLE04  is referenced.
   FK_DATA_C.:E05TOU  is referenced.
   FKA_DATA_R.:E05TOU  cannot be made into a system file and is referenced.
   FK_PERR_C.:E05TOU  is referenced.
   FM$GRAN.:E05TOU  is referenced.
   FM$FIT.:E05TOU  is referenced.
   CP_6_SUBS.:E05TOU  is referenced.
   CP_6.:E05TOU  cannot be made into a system file and is referenced.
   B$JIT_C.:E05TOU  was found in the system file and is referenced.
   CP_6_C.:E05TOU  was found in the system file and is referenced.
      No diagnostics issued in procedure FKA$ALTKEY.

   Procedure FKA$ALTKEY requires 978 words for executable code.
   Procedure FKA$ALTKEY requires 34 words of local(AUTO) storage.

PL6.E3A0      #002=FKA$ALTKEY File=FKA$ALTKEY.:E05TSI                            TUE 07/29/97 15:31 Page:47

 Object Unit name= FKA$ALTKEY                                 File name= FKA$ALTKEY.:E05TOU
 UTS= JUL 29 '97 15:31:41.32 TUE                              Compiler= PL-6/E31         Sev=      00
 SharedLib= :SHARED_SYSTEM                                    Alt SharedLib=


    ****  Control sections  ****

 Sect   Type Bound  Init  Size OctSiz  Section name(segment info)
    0   DCB   even  none     0      0  M$UC
    1  RoData even  UTS    133    205  FKA$ALTKEY
    2   Data  even  none  1139   2163  FKA$ALTKEY
    3   DCB   even  none     0      0  M$SI
    4   DCB   even  none     0      0  F$SCRF1
    5   Proc  even  none   978   1722  FKA$ALTKEY
    6  RoData even  none    17     21  FKA$ALTKEY

    ****  Entry defs  ****

                              Check   Calling
                             calling  sequence
  Sect OctLoc Primary Altret sequence   type   Parms  Name
     5      0   yes            yes      Main       0  FKA$ALTKEY

  ****  Data defs  ****

 Sect OctLoc  Name                           Sect OctLoc  Name
    2    100  FKA_ALTKEY_BFR                     2   2106  SORT_TABLE
PL6.E3A0      #002=FKA$ALTKEY File=FKA$ALTKEY.:E05TSI                            TUE 07/29/97 15:31 Page:48

  ****  Entry refs  ****

         Check        Calling
        calling       sequence
Altret sequence SRef   type   Args  Name
         yes          Async      0 FKA$XCON
         yes          Async      0 FKA$BREAK
 yes     yes           Std       1 FKA$CLOSE
 yes     yes           Std       2 FKA$INPUT
 yes     yes           Std       2 FKA$OUTPUT
 yes     yes           Std       1 X$SORT
 yes     yes           Std       7 XUR$ERRMSG
 yes     yes           Std       2 XSF$LOCCODE
         yes           Std       3 FKA$COMP
                       nStd      0 X66_MAUTO
                       Std       0 B_CONSPOOL_D
                       nStd      0 X66_MARET

  ****  Data refs  ****

  Flags:  r = read only, s = secondary
Flgs Name                             Flgs Name                             Flgs Name
     M$UC                                  FKA_MON                               FKA_UNIQUE
     FKA_ALTKEYS$                          FKA_RECFIELD$                    r    FKA_START$
r    FKA_IRKEYS$                      r    FKA_KFIELD$                           FKA_CODE19$
     FKA_CODE20$                           FKA_INDEX_GRAN                        FKA_KTPTR$
     FKA_BOUND                             FKA_DCB$                              FKA_NUMKEYS
     FKA_RECSIZE                           FKA_KEYSIZE                           FKA_DUPS
     FKA_INDEX_BUF                    r    FKA_INDEX_BUF$                        FKA_CMDVAR_EXIST
     FKA_CMDVAR                            FKA_FILE_OPEN                         FKA_CMDVAR_SET
     FKA_M$CLOSE_ERR                       FKA_CLOSE_DONE                        M$SI
     F$SCRF1                               B$JIT$                                B$TCB$
     B_VECTNIL
PL6.E3A0      #002=FKA$ALTKEY File=FKA$ALTKEY.:E05TSI                            TUE 07/29/97 15:31 Page:49

  ****  Segment refs  ****

  Flags:  r = read only, s = secondary
Flgs Name                             Flgs Name                             Flgs Name
     ISSID                                 NULLSID                               ROSID
PL6.E3A0      #002=FKA$ALTKEY File=FKA$ALTKEY.:E05TSI                            TUE 07/29/97 15:31 Page:50


       61        1        /*T***********************************************************/
       62        2        /*T*                                                         */
       63        3        /*T* Copyright (c) Bull HN Information Systems Inc., 1997    */
       64        4        /*T*                                                         */
       65        5        /*T***********************************************************/
       66        6        /*P*     NAME:     FKA$ALTKEY
       67        7                 PURPOSE:  Main routine for rebuilding alternate indexes
       68        8        */
       69        9        /*D*     NAME:     FKA$ALTKEY
       70       10                 DESCRIPTION:
       71       11
       72       12                      This is the main routine for rebuilding alternate
       73       13                 indexes.  ALTKEY can get invoked one of two ways.  First,
       74       14                 it can get invoked as a result of a file close (see
       75       15                 FMU$ALTBLD for details) or the user can say:
       76       16                 !ALTKEY fid
       77       17
       78       18                      B$JIT.PROG_ENTRY  indicates whether the user invoked
       79       19                 ALTKEY, or the monitor did.
       80       20
       81       21                      Next, we have to set the command variable "SORT$STAT"
       82       22                 to "ERRORS" to keep SORT from spewing out statistics,
       83       23                 but still let it print error messages (since X$SORT
       84       24                 doesn't return any kind of error code, argh!).
       85       25                 This is a real pain, because the user may have it set
       86       26                 to something else, and it's not nice to change command
       87       27                 variables out from under the user.
       88       28
       89       29                      Next, take exit and interrupt control.  We have to
       90       30                 make sure that we clean up properly on exit, or the
       91       31                 file may get hung up.
       92       32
       93       33                      Open the file, and do the appropriate set up.  See
       94       34                 how much memory we have available, and let SORT have all
       95       35                 but 3 pages of it.  We need two or three pages for our
       96       36                 own use.
PL6.E3A0      #002=FKA$ALTKEY File=FKA$ALTKEY.:E05TSI                            TUE 07/29/97 15:31 Page:51
       97       37
       98       38                      Set up the sort key.  Then, read in the first index
       99       39                 granule from the file.  Call SORT.  When we get back,
      100       40                 all of the alternate indexes will have been built.
      101       41                 If SORT altreturns, do an error exit with whatever error
      102       42                 SORT found.
      103       43
      104       44                      A user may have specified UNIQUE for an index that
      105       45                 had duplicates.  Here we do the user the favor of resetting
      106       46                 any UNIQUE bit for an index that had duplicates.
      107       47
      108       48                      Close the file, and release exit control.  If we
      109       49                 found any duplicates on UNIQUE indexes or got any errors
      110       50                 back from the close, then do an error exit.
      111       51
      112       52                      If this is a monitor ALTKEY and we exit with an error
      113       53                 via M$XXX, the M$CLOSE will altreturn with the error we
      114       54                 pass.
      115       55
      116       56                      To make things a little (or a lot) faster for files with
      117       57                 simple key structures, we do a few optimizations.  If the file
      118       58                 only has keys that can be compared using a normal, ASCII collating
      119       59                 sequence compare, SORT_TABLE.SECONDARY.KCE$ is set to ENTADDR(NIL),
      120       60                 so that SORT won't call FKA$COMP to do all its compares.  This
      121       61                 saves a *lot* of time.  To qualify for this, the file must have
      122       62                 key fields of only CHAR, UBIN, UTS, PDNS, or UDNS data types.  Keys
      123       63                 may have multiple segments, however.
      124       64
      125       65                      We also check each key for this case, and set IRKEYS.K.DEGENERATE
      126       66                 if the key qualifies.  This lets us short-circuit the compare process
      127       67                 in FKA$COMP for these keys.
      128       68
      129       69                      Finally, in FKA$COMP, if a key consists of only one field,
      130       70                 we go ahead and pass it to the compare routine, which is slightly
      131       71                 more efficient than always assuming the worst case.
      132       72        */
      133       73         %EJECT;
PL6.E3A0      #002=FKA$ALTKEY File=FKA$ALTKEY.:E05TSI                            TUE 07/29/97 15:31 Page:52
      134       74        FKA$ALTKEY: PROC MAIN;

     74  5 000000   000000 700200 xent  FKA$ALTKEY   TSX0  ! X66_MAUTO
         5 000001   000042 000000                    ZERO    34,0

      135       75         %INCLUDE CP_6;
      136      156         %INCLUDE CP_6_SUBS;
      137      696         %INCLUDE FM$FIT;
      138      917         %INCLUDE FM$GRAN;
      139      986         %INCLUDE FK_PERR_C;
      140      995         %INCLUDE FKA_DATA_R;
      141     1011         %INCLUDE FK_DATA_C;
      142     1088         %INCLUDE ZL_MACRO_C;
      143     1738         %INCLUDE B$JIT;
      144     2028         %INCLUDE FM_FIELD_C;
      145     2069         %INCLUDE B$OBJECT_C;
      146     5499         %INCLUDE B_ERRORS_C;
      147     6626        /* */
      148     6627         %FPT_OPEN(FPTN=OPENSI, DCB=M$SI, FUN=UPDATE, ACS=BLOCK,
      149     6628         FPARAM=FKA_ALTKEY_BFR.FPARAM, STCLASS=CONSTANT);
      150     6737         %FPT_READ(FPTN=READ_INDEX, BUF=FKA_INDEX_BUF, KEY=FKA_INDEX_GRAN,
      151     6738         KEYS=YES, DCB=M$SI, STCLASS=CONSTANT);
      152     6777         %FPT_RELSTARF(ALTKEYS=FKA_ALTKEY_BFR, STCLASS=CONSTANT);
      153     6792         %FPT_XCON(UENTRY=FKA$XCON, STCLASS=CONSTANT);
      154     6806         %FPT_XCON(FPTN=RESET_XCON, STCLASS=CONSTANT);
      155     6820         %FPT_INT(UENTRY=FKA$BREAK, STCLASS=CONSTANT);
      156     6834         %FPT_XXX(CODE=ERRCODE, STEPCC=ERROR, STCLASS=CONSTANT);
      157     6849         %FPT_CMDVAR(FUN=FETCH, NAME=VLP_NAME, VALUE=FKA_CMDVAR,
      158     6850         STCLASS=CONSTANT);
      159     6867         %FPT_CMDVAR(FPTN=SET_SILENT, NAME=VLP_NAME, VALUE=SILENT,
      160     6868         FUN=STORE, STCLASS=CONSTANT);
      161     6885         %FPT_GDDL(RESULTS=VLP_GDDL);
      162     6898         %FPT_OPEN(FPTN=FPT_COLLATE, DCB=F$SCRF1, DISP=SCRATCH,
      163     6899         SCRUB=YES, STCLASS=STATIC);
      164     7008         %VLP_GDDL;
      165     7022         %VLP_NAME(NAME='SORT$STAT', STCLASS=CONSTANT);
      166     7049         %VLP_ERRCODE(FPTN=ERR_NOALTINDX, FCG=FK, MID=A, SEV=0,
PL6.E3A0      #002=FKA$ALTKEY File=FKA$ALTKEY.:E05TSI                            TUE 07/29/97 15:31 Page:53
      167     7050         ERR#=%E$NOALTINDX, STCLASS=CONSTANT);
      168     7095                          /* E$DUPKEY2 error is extracted from FMU$MUL to set MON bit */
      169     7096         %VLP_ERRCODE(FPTN=ERR_DUPS, FCG=FK, MID=A, SEV=0, MON='1'B,
      170     7097         ERR#=%E$DUPKEY2, STCLASS=CONSTANT);
      171     7142         %B$TCB;
      172     7145         %B$ALT;
      173     7153        /* */
      174     7154    1     DCL M$SI DCB;
      175     7155    1     DCL F$SCRF1 DCB;
      176     7156        /* */
      177     7157    1     DCL B$JIT$ PTR SYMREF;
      178     7158    1     DCL B$TCB$ PTR SYMREF;
      179     7159        /* */
      180     7160         %F$DCB(DCBN=F$DCB, STCLASS="BASED(FKA_DCB$)");
      181     7217         %FM$GRAN(BASED="BASED(FKA_INDEX_BUF$)");
      182     7221         %FM$KEYTBL(BASED="BASED(FKA_KTPTR$)");
      183     7224         %FITALTKEYS(BASED="BASED(FKA_ALTKEYS$)");
      184     7230         %VLP_RECFIELD(FPTN=RECFIELD, STCLASS="BASED(FKA_RECFIELD$)");
      185     7274         %FM$FIELD_START(FPTN=FIELD_START, STCLASS="BASED(FKA_START$)");
      186     7296         %CODE19(BASED="BASED(FKA_CODE19$)");
      187     7299         %CODE20(BASED="BASED(FKA_CODE20$)");
      188     7304         %FK$ALTKEY_BFR(FPTN=FKA_ALTKEY_BFR, STCLASS="STATIC SYMDEF");
      189     7324         %FK$CCBUF(STCLASS="BASED(CCBUF$)");
      190     7346         %FMG$IRKEYS(FPTN=IRKEYS, STCLASS="BASED(FKA_IRKEYS$)");
      191     7353         %FMG$KFIELD(FPTN=KFIELD, STCLASS="BASED(FKA_KFIELD$)");
      192     7356         %VREBL_DATATYPES;
      193     7431        /* */
      194     7432         %SORT_TABLE(STCLASS="STATIC SYMDEF",ICE=FKA$INPUT,OCE=FKA$OUTPUT,KEYS=ZL_KEYS);
      195     7541         %ZL_KEYS(N=1);
      196     7558         %ZL_KEY;
      197     7618         %ZL_COLLATE(N=1);
      198     7637         %ZL_FPT(FPT=FPT_COLLATE);
      199     7665        /* */
      200     7666    1     DCL X$SORT ENTRY(1) ALTRET;
      201     7667    1     DCL FKA$INPUT ENTRY(2) ALTRET;
      202     7668    1     DCL FKA$OUTPUT ENTRY(2) ALTRET;
      203     7669    1     DCL FKA$COMP ENTRY(3);
PL6.E3A0      #002=FKA$ALTKEY File=FKA$ALTKEY.:E05TSI                            TUE 07/29/97 15:31 Page:54
      204     7670    1     DCL FKA$CLOSE ENTRY(1) ALTRET;
      205     7671    1     DCL FKA$XCON ENTRY ASYNC;
      206     7672    1     DCL FKA$BREAK ENTRY ASYNC;
      207     7673    1     DCL XSF$LOCCODE ENTRY(2) ALTRET;
      208     7674    1     DCL XUR$ERRMSG ENTRY(7) ALTRET;
      209     7675        /* */
      210     7676    1     DCL 1 SILENT CONSTANT,
      211     7677    1            2 * UBIN(9) CALIGNED INIT(6),
      212     7678    1            2 * CHAR(0) CALIGNED INIT('ERRORS');
      213     7679        /* */
      214     7680    1     DCL ERRCODE BIT(36) STATIC INIT('0'B);
      215     7681    1     DCL DCB# UBIN STATIC INIT(0);
      216     7682        /* */
      217     7683    1     DCL I SBIN;
      218     7684    1     DCL MAX SBIN;
      219     7685    1     DCL LEN SBIN;
      220     7686    1     DCL J SBIN;
      221     7687    1     DCL N SBIN;
      222     7688    1     DCL FIELD SBIN;
      223     7689    1     DCL TOTAL SBIN;
      224     7690    1     DCL CCBUF$ PTR;
      225     7691         %FKA$ERR(FPTN=CLOSERR,STCLASS=" ");
      226     7697        /* */
      227     7698    2           DO INHIBIT;

      228     7699    2              FKA_FILE_OPEN=%NO#;

   7699  5 000002   000000 450200 xsym               STZ   ! FKA_FILE_OPEN

      229     7700    2              FKA_CMDVAR_SET=%NO#;

   7700  5 000003   000000 450200 xsym               STZ   ! FKA_CMDVAR_SET

      230     7701    2              FKA_CLOSE_DONE=%NO#;

   7701  5 000004   000000 450200 xsym               STZ   ! FKA_CLOSE_DONE

PL6.E3A0      #002=FKA$ALTKEY File=FKA$ALTKEY.:E05TSI                            TUE 07/29/97 15:31 Page:55
      231     7702    2              FKA_M$CLOSE_ERR='0'B;

   7702  5 000005   000000 450200 xsym               STZ   ! FKA_M$CLOSE_ERR

      232     7703    2              END;

      233     7704
      234     7705    1           IF B$JIT.PROG_ENTRY = %PE_MLINK# THEN

   7705  5 000006   000000 470400 xsym               LDP0    B$JIT$
         5 000007   000170 236100                    LDQ     120,,PR0
         5 000010   777000 376003                    ANQ     -512,DU
         5 000011   030000 116003                    CMPQ    12288,DU
         5 000012   000016 601000 5                  TNZ     s:7708

      235     7706    1              FKA_MON=%YES#;

   7706  5 000013   400000 236003                    LDQ     -131072,DU
         5 000014   000000 756000 xsym               STQ     FKA_MON
         5 000015   000017 710000 5                  TRA     s:7710

      236     7707    1           ELSE
      237     7708    1              FKA_MON=%NO#;

   7708  5 000016   000000 450000 xsym               STZ     FKA_MON

      238     7709
      239     7710    1           CALL M$CMDVAR(FPT_CMDVAR) ALTRET(NONE);

   7710  5 000017   000142 630400 1                  EPPR0   FPT_CMDVAR
         5 000020   420025 713400                    CLIMB   alt,+8213
         5 000021   402400 401760                    pmme    nvectors=6
         5 000022   000026 702000 5                  TSX2    NONE

      240     7711    1           FKA_CMDVAR_EXIST=%YES#;

   7711  5 000023   400000 236003                    LDQ     -131072,DU
PL6.E3A0      #002=FKA$ALTKEY File=FKA$ALTKEY.:E05TSI                            TUE 07/29/97 15:31 Page:56
         5 000024   000000 756000 xsym               STQ     FKA_CMDVAR_EXIST

      241     7712
      242     7713    2           DO WHILE('0'B);

   7713  5 000025   000027 710000 5                  TRA     s:7716

      243     7714    2   NONE:      FKA_CMDVAR_EXIST=%NO#;

   7714  5 000026   000000 450000 xsym  NONE         STZ     FKA_CMDVAR_EXIST

      244     7715    2              END;

      245     7716    1           CALL M$CMDVAR(SET_SILENT) ALTRET(MERR);

   7716  5 000027   000160 630400 1                  EPPR0   SET_SILENT
         5 000030   420025 713400                    CLIMB   alt,+8213
         5 000031   402400 401760                    pmme    nvectors=6
         5 000032   000306 702000 5                  TSX2    MERR

      246     7717    1           FKA_CMDVAR_SET=%YES#;

   7717  5 000033   400000 236003                    LDQ     -131072,DU
         5 000034   000000 756000 xsym               STQ     FKA_CMDVAR_SET

      247     7718
      248     7719    1           CALL M$XCON(FPT_XCON);

   7719  5 000035   000114 630400 1                  EPPR0   FPT_XCON
         5 000036   010003 713400                    CLIMB   4099
         5 000037   400400 401760                    pmme    nvectors=2

      249     7720    1           CALL M$INT(FPT_INT);

   7720  5 000040   000130 630400 1                  EPPR0   FPT_INT
         5 000041   010002 713400                    CLIMB   4098
         5 000042   400000 401760                    pmme    nvectors=1
PL6.E3A0      #002=FKA$ALTKEY File=FKA$ALTKEY.:E05TSI                            TUE 07/29/97 15:31 Page:57

      250     7721
      251     7722    1           FKA_DCB$=DCBADDR(DCBNUM(M$SI));

   7722  5 000043   000000 236007 xsym               LDQ     M$SI,DL
         5 000044   000000 470400 6                  LDP0    0
         5 000045   000000 471500                    LDP1    0,,PR0
         5 000046   100000 236106                    LDQ     0,QL,PR1
         5 000047   000000 756000 xsym               STQ     FKA_DCB$

      252     7723    1           CALL OPEN ALTRET(MERR);

   7723  5 000050   001456 701000 5                  TSX1    OPEN
         5 000051   000306 702000 5                  TSX2    MERR

      253     7724
      254     7725    1           IF F$DCB.ORG# = %INDEXED# THEN

   7725  5 000052   000000 470400 xsym               LDP0    FKA_DCB$
         5 000053   000032 236100                    LDQ     26,,PR0
         5 000054   777000 376003                    ANQ     -512,DU
         5 000055   006000 116003                    CMPQ    3072,DU
         5 000056   000062 601000 5                  TNZ     s:7731

      255     7726    2           DO;                             /* INDEXED FILE                       */

      256     7727    2              CALL INDEXED_SETUP ALTRET(ABORT);

   7727  5 000057   001053 701000 5                  TSX1    INDEXED_SETUP
         5 000060   000315 702000 5                  TSX2    ABORT

      257     7728    2              END;                         /* INDEXED FILE                       */

   7728  5 000061   000064 710000 5                  TRA     s:7734

      258     7729    1           ELSE
      259     7730    2           DO;                             /* IREL FILE                          */
PL6.E3A0      #002=FKA$ALTKEY File=FKA$ALTKEY.:E05TSI                            TUE 07/29/97 15:31 Page:58

      260     7731    2              CALL IREL_SETUP ALTRET(ABORT);

   7731  5 000062   001146 701000 5                  TSX1    IREL_SETUP
         5 000063   000315 702000 5                  TSX2    ABORT

      261     7732    2              END;                         /* IREL FILE                          */

      262     7733
      263     7734    1           CALL M$GDDL(FPT_GDDL) ALTRET(MERR);

   7734  5 000064   000000 630400 2                  EPPR0   FPT_GDDL
         5 000065   430014 713400                    CLIMB   alt,+12300
         5 000066   400000 401760                    pmme    nvectors=1
         5 000067   000306 702000 5                  TSX2    MERR

      264     7735    1           SORT_TABLE.MEM#=VLP_GDDL.AVAIL_PGS#-3;

   7735  5 000070   000076 720000 2                  LXL0    VLP_GDDL+2
         5 000071   777775 621010                    EAX1    -3,X0
         5 000072   002120 741000 2                  STX1    SORT_TABLE+10

      265     7736
      266     7737    1           FKA_KEYSIZE=MAX;

   7737  5 000073   200004 235100                    LDA     MAX,,AUTO
         5 000074   000000 755000 xsym               STA     FKA_KEYSIZE

      267     7738    1           FKA_RECSIZE=MAX+15;

   7738  5 000075   000017 035007                    ADLA    15,DL
         5 000076   000000 755000 xsym               STA     FKA_RECSIZE

      268     7739    1           SORT_TABLE.PRIMARY.INSIZ#=FKA_RECSIZE;

   7739  5 000077   002106 755000 2                  STA     SORT_TABLE

PL6.E3A0      #002=FKA$ALTKEY File=FKA$ALTKEY.:E05TSI                            TUE 07/29/97 15:31 Page:59
      269     7740    1           ZL_KEYS.KEY1.START#=1;

   7740  5 000100   000001 236007                    LDQ     1,DL
         5 000101   002154 756000 2                  STQ     ZL_KEYS+2

      270     7741    1           ZL_KEYS.KEY1.LENGTH#=MAX+7;

   7741  5 000102   200004 235100                    LDA     MAX,,AUTO
         5 000103   000007 035007                    ADLA    7,DL
         5 000104   002155 755000 2                  STA     ZL_KEYS+3

      271     7742
      272     7743    1           FKA_INDEX_GRAN=0;

   7743  5 000105   000000 450000 xsym               STZ     FKA_INDEX_GRAN

      273     7744    1           CALL M$READ(READ_INDEX) ALTRET(MERR);

   7744  5 000106   000072 630400 1                  EPPR0   READ_INDEX
         5 000107   440000 713400                    CLIMB   alt,read
         5 000110   401400 401760                    pmme    nvectors=4
         5 000111   000306 702000 5                  TSX2    MERR

      274     7745
      275     7746    1           FKA_KTPTR$=PINCRW(FKA_INDEX_BUF$, FM$GRAN.FCEX);

   7746  5 000112   000000 470400 xsym               LDP0    FKA_INDEX_BUF$
         5 000113   000002 220100                    LDX0    2,,PR0
         5 000114   000000 636010                    EAQ     0,X0
         5 000115   000000 036000 xsym               ADLQ    FKA_INDEX_BUF$
         5 000116   000000 756000 xsym               STQ     FKA_KTPTR$

      276     7747    1           FKA_BOUND=FM$KEYTBL(0);

   7747  5 000117   000000 471400 xsym               LDP1    FKA_KTPTR$
         5 000120   100000 236100                    LDQ     0,,PR1
         5 000121   000033 772000                    QRL     27
PL6.E3A0      #002=FKA$ALTKEY File=FKA$ALTKEY.:E05TSI                            TUE 07/29/97 15:31 Page:60
         5 000122   000000 756000 xsym               STQ     FKA_BOUND

      277     7748
      278     7749    1           CALL X$SORT(SORT_TABLE) ALTRET(SORT_ERR);

   7749  5 000123   000001 630400 6                  EPPR0   1
         5 000124   000017 631400 xsym               EPPR1   B_VECTNIL+15
         5 000125   000000 701000 xent               TSX1    X$SORT
         5 000126   000270 702000 5                  TSX2    SORT_ERR

      279     7750
      280     7751    1           IF F$DCB.ORG# = %INDEXED# THEN

   7751  5 000127   000000 470400 xsym               LDP0    FKA_DCB$
         5 000130   000032 236100                    LDQ     26,,PR0
         5 000131   777000 376003                    ANQ     -512,DU
         5 000132   006000 116003                    CMPQ    3072,DU
         5 000133   000174 601000 5                  TNZ     s:7761

      281     7752    2           DO;                             /* INDEXED                            */

      282     7753    2              FITALTKEYS.ALTBLD='0'B;

   7753  5 000134   000000 471400 xsym               LDP1    FKA_ALTKEYS$
         5 000135   000002 236000 6                  LDQ     2
         5 000136   100000 356100                    ANSQ    0,,PR1

      283     7754    2              FITALTKEYS.UNIQUEBLD='0'B;

   7754  5 000137   000000 470400 xsym               LDP0    FKA_ALTKEYS$
         5 000140   000003 236000 6                  LDQ     3
         5 000141   000000 356100                    ANSQ    0,,PR0

      284     7755    3              DO I=1 TO FITALTKEYS.NUMENTS-1;

   7755  5 000142   000001 235007                    LDA     1,DL
         5 000143   200003 755100                    STA     I,,AUTO
PL6.E3A0      #002=FKA$ALTKEY File=FKA$ALTKEY.:E05TSI                            TUE 07/29/97 15:31 Page:61
         5 000144   000165 710000 5                  TRA     s:7757+1

      285     7756    3                 FITALTKEYS.K.UNIQUE(I)=FKA_UNIQUE(I);

   7756  5 000145   200003 236100                    LDQ     I,,AUTO
         5 000146   000006 402007                    MPY     6,DL
         5 000147   200003 235100                    LDA     I,,AUTO
         5 000150   000152 605000 5                  TPL     s:7756+5
         5 000151   000044 035003                    ADLA    36,DU
         5 000152   200034 755100                    STA     EVEN+2,,AUTO
         5 000153   000044 402007                    MPY     36,DL
         5 000154   000000 116003                    CMPQ    0,DU
         5 000155   000157 605000 5                  TPL     s:7756+10
         5 000156   000044 036003                    ADLQ    36,DU
         5 000157   200034 235100                    LDA     EVEN+2,,AUTO
         5 000160   000000 470400 xsym               LDP0    FKA_ALTKEYS$
         5 000161   003106 060405                    CSL     bolr='003'O
         5 000162   000000 000001 xsym               BDSC    FKA_UNIQUE,A             by=0,bit=0,n=1
         5 000163   000004 200001                    BDSC    4,Q,PR0                  by=1,bit=0,n=1

      286     7757    3                 END;

   7757  5 000164   200003 054100                    AOS     I,,AUTO
         5 000165   000000 470400 xsym               LDP0    FKA_ALTKEYS$
         5 000166   000000 236100                    LDQ     0,,PR0
         5 000167   000022 772000                    QRL     18
         5 000170   000377 376007                    ANQ     255,DL
         5 000171   200003 116100                    CMPQ    I,,AUTO
         5 000172   000145 605400 5                  TPNZ    s:7756

      287     7758    2              END;                         /* INDEXED                            */

   7758  5 000173   000231 710000 5                  TRA     s:7768

      288     7759    1           ELSE
      289     7760    2           DO;                             /* IREL                               */

PL6.E3A0      #002=FKA$ALTKEY File=FKA$ALTKEY.:E05TSI                            TUE 07/29/97 15:31 Page:62
      290     7761    2              CODE20.ALTBLD='0'B;

   7761  5 000174   000000 471400 xsym               LDP1    FKA_CODE20$
         5 000175   000031 236000 xsym               LDQ     B_VECTNIL+25
         5 000176   100001 356100                    ANSQ    1,,PR1

      291     7762    2              CODE20.UNIQUEBLD='0'B;

   7762  5 000177   000004 236000 6                  LDQ     4
         5 000200   100001 356100                    ANSQ    1,,PR1

      292     7763    3              DO I=1 TO IRKEYS.NKEYS-1;

   7763  5 000201   000001 235007                    LDA     1,DL
         5 000202   200003 755100                    STA     I,,AUTO
         5 000203   000224 710000 5                  TRA     s:7765+1

      293     7764    3                 IRKEYS.K.UNIQUE(I)=FKA_UNIQUE(I);

   7764  5 000204   200003 236100                    LDQ     I,,AUTO
         5 000205   000007 402007                    MPY     7,DL
         5 000206   200003 235100                    LDA     I,,AUTO
         5 000207   000211 605000 5                  TPL     s:7764+5
         5 000210   000044 035003                    ADLA    36,DU
         5 000211   200034 755100                    STA     EVEN+2,,AUTO
         5 000212   000044 402007                    MPY     36,DL
         5 000213   000000 116003                    CMPQ    0,DU
         5 000214   000216 605000 5                  TPL     s:7764+10
         5 000215   000044 036003                    ADLQ    36,DU
         5 000216   200034 235100                    LDA     EVEN+2,,AUTO
         5 000217   000000 470400 xsym               LDP0    FKA_IRKEYS$
         5 000220   003106 060405                    CSL     bolr='003'O
         5 000221   000000 000001 xsym               BDSC    FKA_UNIQUE,A             by=0,bit=0,n=1
         5 000222   000006 400001                    BDSC    6,Q,PR0                  by=2,bit=0,n=1

      294     7765    3                 END;

PL6.E3A0      #002=FKA$ALTKEY File=FKA$ALTKEY.:E05TSI                            TUE 07/29/97 15:31 Page:63
   7765  5 000223   200003 054100                    AOS     I,,AUTO
         5 000224   000000 470400 xsym               LDP0    FKA_IRKEYS$
         5 000225   000000 236100                    LDQ     0,,PR0
         5 000226   000032 376000 xsym               ANQ     B_VECTNIL+26
         5 000227   200003 116100                    CMPQ    I,,AUTO
         5 000230   000204 605400 5                  TPNZ    s:7764

      295     7766    2              END;                         /* IREL                               */

      296     7767
      297     7768    1           ERRCODE='0'B;

   7768  5 000231   002161 450000 2                  STZ     ERRCODE

      298     7769    1           IF FKA_DUPS THEN

   7769  5 000232   000000 234000 xsym               SZN     FKA_DUPS
         5 000233   000240 605000 5                  TPL     s:7775

      299     7770    2           DO;

      300     7771    2              ERRCODE=ERR_DUPS;

   7771  5 000234   000202 236000 1                  LDQ     ERR_DUPS
         5 000235   002161 756000 2                  STQ     ERRCODE

      301     7772    2              DCB#=DCBNUM(M$SI);

   7772  5 000236   000000 236007 xsym               LDQ     M$SI,DL
         5 000237   002162 756000 2                  STQ     DCB#

      302     7773    2              END;

      303     7774
      304     7775    2           CALL FKA$CLOSE(CLOSERR) WHENALTRETURN DO;

   7775  5 000240   200013 630500                    EPPR0   CLOSERR,,AUTO
PL6.E3A0      #002=FKA$ALTKEY File=FKA$ALTKEY.:E05TSI                            TUE 07/29/97 15:31 Page:64
         5 000241   200034 450500                    STP0    EVEN+2,,AUTO
         5 000242   200034 630500                    EPPR0   EVEN+2,,AUTO
         5 000243   000017 631400 xsym               EPPR1   B_VECTNIL+15
         5 000244   000000 701000 xent               TSX1    FKA$CLOSE
         5 000245   000247 702000 5                  TSX2    s:7776
         5 000246   000261 710000 5                  TRA     s:7783

      305     7776    2              IF NOT FKA_DUPS OR CLOSERR.TYPE=%UNEXPECTED THEN

   7776  5 000247   000000 234000 xsym               SZN     FKA_DUPS
         5 000250   000254 605000 5                  TPL     s:7778
         5 000251   200014 220100                    LDX0    CLOSERR+1,,AUTO
         5 000252   000001 100003                    CMPX0   1,DU
         5 000253   000261 601000 5                  TNZ     s:7783

      306     7777    3              DO;

      307     7778    3                 ERRCODE=CLOSERR.ERR;

   7778  5 000254   200013 236100                    LDQ     CLOSERR,,AUTO
         5 000255   002161 756000 2                  STQ     ERRCODE

      308     7779    3                 DCB#=CLOSERR.DCB#;

   7779  5 000256   200014 236100                    LDQ     CLOSERR+1,,AUTO
         5 000257   777777 376007                    ANQ     -1,DL
         5 000260   002162 756000 2                  STQ     DCB#

      309     7780    3                 END;

      310     7781    2              END;

      311     7782
      312     7783    1           IF ERRCODE ~= '0'B THEN

   7783  5 000261   002161 235000 2                  LDA     ERRCODE
         5 000262   000315 601000 5                  TNZ     ABORT
PL6.E3A0      #002=FKA$ALTKEY File=FKA$ALTKEY.:E05TSI                            TUE 07/29/97 15:31 Page:65

      313     7784    1              GOTO ABORT;
      314     7785
      315     7786    1           CALL M$XCON(RESET_XCON);

   7786  5 000263   000122 630400 1                  EPPR0   RESET_XCON
         5 000264   010003 713400                    CLIMB   4099
         5 000265   400400 401760                    pmme    nvectors=2

      316     7787    1           CALL M$EXIT;

   7787  5 000266   000001 713400                    CLIMB   exit
         5 000267   000000 401760                    pmme    nvectors=0

   7783  5 000270                       SORT_ERR     null
      317     7788
      318     7789    1   SORT_ERR: ;
      319     7790    1           ERRCODE=B$TCB$->B$TCB.ALT$->B$ALT.ERR;

   7790  5 000270   000000 470400 xsym               LDP0    B$TCB$
         5 000271   000000 471500                    LDP1    0,,PR0
         5 000272   100102 236100                    LDQ     66,,PR1
         5 000273   002161 756000 2                  STQ     ERRCODE

      320     7791    1           DCB#=B$TCB$->B$TCB.ALT$->B$ALT.DCB#;

   7791  5 000274   000000 471500                    LDP1    0,,PR0
         5 000275   100101 235100                    LDA     65,,PR1
         5 000276   002162 755000 2                  STA     DCB#

      321     7792    1           CALL FKA$CLOSE(CLOSERR) ALTRET(ABORT);

   7792  5 000277   200013 631500                    EPPR1   CLOSERR,,AUTO
         5 000300   200034 451500                    STP1    EVEN+2,,AUTO
         5 000301   200034 630500                    EPPR0   EVEN+2,,AUTO
         5 000302   000017 631400 xsym               EPPR1   B_VECTNIL+15
         5 000303   000000 701000 xent               TSX1    FKA$CLOSE
PL6.E3A0      #002=FKA$ALTKEY File=FKA$ALTKEY.:E05TSI                            TUE 07/29/97 15:31 Page:66
         5 000304   000315 702000 5                  TSX2    ABORT

      322     7793    1           GOTO ABORT;

   7793  5 000305   000315 710000 5                  TRA     ABORT

      323     7794
      324     7795    1   MERR:   ERRCODE=B$TCB$->B$TCB.ALT$->B$ALT.ERR;

   7795  5 000306   000000 470400 xsym  MERR         LDP0    B$TCB$
         5 000307   000000 471500                    LDP1    0,,PR0
         5 000310   100102 236100                    LDQ     66,,PR1
         5 000311   002161 756000 2                  STQ     ERRCODE

      325     7796    1           DCB#=B$TCB$->B$TCB.ALT$->B$ALT.DCB#;

   7796  5 000312   000000 471500                    LDP1    0,,PR0
         5 000313   100101 235100                    LDA     65,,PR1
         5 000314   002162 755000 2                  STA     DCB#

      326     7797    1   ABORT:  IF FKA_MON = %NO# THEN

   7797  5 000315   000000 234000 xsym  ABORT        SZN     FKA_MON
         5 000316   000323 604000 5                  TMI     s:7800

      327     7798    1              CALL XUR$ERRMSG(ERRCODE, DCB#);

   7798  5 000317   000005 630400 6                  EPPR0   5
         5 000320   000020 631400 xsym               EPPR1   B_VECTNIL+16
         5 000321   000000 701000 xent               TSX1    XUR$ERRMSG
         5 000322   000000 011000                    NOP     0

      328     7799
      329     7800    1           CALL M$XCON(RESET_XCON);

   7800  5 000323   000122 630400 1                  EPPR0   RESET_XCON
         5 000324   010003 713400                    CLIMB   4099
PL6.E3A0      #002=FKA$ALTKEY File=FKA$ALTKEY.:E05TSI                            TUE 07/29/97 15:31 Page:67
         5 000325   400400 401760                    pmme    nvectors=2

      330     7801    1           CALL M$XXX(FPT_XXX);

   7801  5 000326   000134 630400 1                  EPPR0   FPT_XXX
         5 000327   000003 713400                    CLIMB   3
         5 000330   400400 401760                    pmme    nvectors=2
         5 000331   001721 710000 5                  TRA     s:8129

      331     7802         %EJECT;
PL6.E3A0      #002=FKA$ALTKEY File=FKA$ALTKEY.:E05TSI                            TUE 07/29/97 15:31 Page:68
      332     7803        /*I*     NAME:     FIELD_START_SETUP
      333     7804                 PURPOSE:  To set up bit offsets to the start of each
      334     7805                           RECFIELD field in the FIELD_START.OFFSET array.
      335     7806                 DESCRIPTION:
      336     7807                      Figure out the starting offset to each field based
      337     7808                 on the alignment rules for the field type and the field
      338     7809                 length.
      339     7810        */
      340     7811    1   FIELD_START_SETUP: PROC;

   7811  5 000332   200022 741300       FIELD_START* STX1  ! I+3,,AUTO

      341     7812        /**/
      342     7813    2     DCL I UBIN;
      343     7814    2     DCL J UBIN;
      344     7815    2     DCL REC_OFFSET UBIN;
      345     7816        %EQU BYTE_ALIGNED = 1;
      346     7817        %EQU NIBBLE_ALIGNED = 2;
      347     7818        %EQU BIT_ALIGNED = 3;
      348     7819        /**/
      349     7820    2              FIELD_START.NWORDS=RECFIELD.NFIELDS# + 1;

   7820  5 000333   000000 470400 xsym               LDP0    FKA_RECFIELD$
         5 000334   000000 471400 xsym               LDP1    FKA_START$
         5 000335   000000 236100                    LDQ     0,,PR0
         5 000336   000032 376000 xsym               ANQ     B_VECTNIL+26
         5 000337   000001 036007                    ADLQ    1,DL
         5 000340   100000 756100                    STQ     0,,PR1

      350     7821    2              REC_OFFSET=0;

   7821  5 000341   200025 450100                    STZ     REC_OFFSET,,AUTO

      351     7822    2              I=0;

   7822  5 000342   200023 450100                    STZ     I,,AUTO

PL6.E3A0      #002=FKA$ALTKEY File=FKA$ALTKEY.:E05TSI                            TUE 07/29/97 15:31 Page:69
      352     7823
      353     7824    3              DO WHILE(I <= RECFIELD.NFIELDS#-1);

   7824  5 000343   000463 710000 5                  TRA     s:7849

      354     7825
      355     7826    4                 DO CASE(RECFIELD.FIELD.TYPE#(I));

   7826  5 000344   200023 236100                    LDQ     I,,AUTO
         5 000345   000003 402007                    MPY     3,DL
         5 000346   000000 470400 xsym               LDP0    FKA_RECFIELD$
         5 000347   000100 101506                    MRL     fill='000'O
         5 000350   000001 020001                    ADSC6   1,Q,PR0                  cn=0,n=1
         5 000351   200034 020006                    ADSC6   EVEN+2,,AUTO             cn=0,n=6
         5 000352   200034 236100                    LDQ     EVEN+2,,AUTO
         5 000353   000057 136007                    SBLQ    47,DL
         5 000354   000002 116007                    CMPQ    2,DL
         5 000355   000357 602006 5                  TNC     s:7826+11,QL
         5 000356   000454 710000 5                  TRA     s:7844
         5 000357   000361 710000 5                  TRA     s:7829
         5 000360   000432 710000 5                  TRA     s:7838

      356     7827
      357     7828    4                    CASE(%LIST_DATATYPE);

      358     7829    4                       CALL FIELD_START(I+1);

   7829  5 000361   200023 235100                    LDA     I,,AUTO
         5 000362   000001 035007                    ADLA    1,DL
         5 000363   200036 755100                    STA     EVEN+4,,AUTO
         5 000364   200036 631500                    EPPR1   EVEN+4,,AUTO
         5 000365   200027 451500                    STP1    REC_OFFSET+2,,AUTO
         5 000366   000473 701000 5                  TSX1    FIELD_START
         5 000367   000000 011000                    NOP     0

      359     7830    4                       FIELD_START.OFFSET(I)=FIELD_START.OFFSET(I+1);

PL6.E3A0      #002=FKA$ALTKEY File=FKA$ALTKEY.:E05TSI                            TUE 07/29/97 15:31 Page:70
   7830  5 000370   000000 470400 xsym               LDP0    FKA_START$
         5 000371   200023 720100                    LXL0    I,,AUTO
         5 000372   000002 235110                    LDA     2,X0,PR0
         5 000373   000001 755110                    STA     1,X0,PR0

      360     7831    5                       DO J=2 TO RECFIELD.FIELD.LEN#(I);

   7831  5 000374   000002 235007                    LDA     2,DL
         5 000375   200024 755100                    STA     J,,AUTO
         5 000376   000411 710000 5                  TRA     s:7833+3

      361     7832    5                          CALL FIELD_START(I+1);

   7832  5 000377   200023 235100                    LDA     I,,AUTO
         5 000400   000001 035007                    ADLA    1,DL
         5 000401   200037 755100                    STA     EVEN+5,,AUTO
         5 000402   200037 630500                    EPPR0   EVEN+5,,AUTO
         5 000403   200027 450500                    STP0    REC_OFFSET+2,,AUTO
         5 000404   000473 701000 5                  TSX1    FIELD_START
         5 000405   000000 011000                    NOP     0

      362     7833    5                          END;

   7833  5 000406   200024 235100                    LDA     J,,AUTO
         5 000407   000001 035007                    ADLA    1,DL
         5 000410   200024 755100                    STA     J,,AUTO
         5 000411   200023 236100                    LDQ     I,,AUTO
         5 000412   000003 402007                    MPY     3,DL
         5 000413   000000 470400 xsym               LDP0    FKA_RECFIELD$
         5 000414   000100 101506                    MRL     fill='000'O
         5 000415   000001 120002                    ADSC6   1,Q,PR0                  cn=1,n=2
         5 000416   200034 020006                    ADSC6   EVEN+2,,AUTO             cn=0,n=6
         5 000417   200034 236100                    LDQ     EVEN+2,,AUTO
         5 000420   200024 116100                    CMPQ    J,,AUTO
         5 000421   000377 603000 5                  TRC     s:7832

      363     7834    4                       FIELD_START.OFFSET(I+1)=FIELD_START.OFFSET(I);
PL6.E3A0      #002=FKA$ALTKEY File=FKA$ALTKEY.:E05TSI                            TUE 07/29/97 15:31 Page:71

   7834  5 000422   000000 471400 xsym               LDP1    FKA_START$
         5 000423   200023 720100                    LXL0    I,,AUTO
         5 000424   100001 235110                    LDA     1,X0,PR1
         5 000425   100002 755110                    STA     2,X0,PR1

      364     7835    4                       I=I+1;

   7835  5 000426   200023 235100                    LDA     I,,AUTO
         5 000427   000001 035007                    ADLA    1,DL
         5 000430   200023 755100                    STA     I,,AUTO
         5 000431   000460 710000 5                  TRA     s:7848

      365     7836
      366     7837    4                    CASE(%VLIST_DATATYPE);

      367     7838    4                       CALL FIELD_START(I+1);

   7838  5 000432   200023 235100                    LDA     I,,AUTO
         5 000433   000001 035007                    ADLA    1,DL
         5 000434   200040 755100                    STA     EVEN+6,,AUTO
         5 000435   200040 631500                    EPPR1   EVEN+6,,AUTO
         5 000436   200027 451500                    STP1    REC_OFFSET+2,,AUTO
         5 000437   000473 701000 5                  TSX1    FIELD_START
         5 000440   000000 011000                    NOP     0

      368     7839    4                       FIELD_START.OFFSET(I)=FIELD_START.OFFSET(I+1);

   7839  5 000441   000000 470400 xsym               LDP0    FKA_START$
         5 000442   200023 720100                    LXL0    I,,AUTO
         5 000443   000002 235110                    LDA     2,X0,PR0
         5 000444   000001 755110                    STA     1,X0,PR0

      369     7840    4                       REC_OFFSET=FIELD_START.OFFSET(I);

   7840  5 000445   200023 720100                    LXL0    I,,AUTO
         5 000446   000001 235110                    LDA     1,X0,PR0
PL6.E3A0      #002=FKA$ALTKEY File=FKA$ALTKEY.:E05TSI                            TUE 07/29/97 15:31 Page:72
         5 000447   200025 755100                    STA     REC_OFFSET,,AUTO

      370     7841    4                       I=I+1;

   7841  5 000450   200023 236100                    LDQ     I,,AUTO
         5 000451   000001 036007                    ADLQ    1,DL
         5 000452   200023 756100                    STQ     I,,AUTO
         5 000453   000460 710000 5                  TRA     s:7848

      371     7842
      372     7843    4                    CASE(ELSE);

      373     7844    4                       CALL FIELD_START(I);

   7844  5 000454   200023 631500                    EPPR1   I,,AUTO
         5 000455   200027 451500                    STP1    REC_OFFSET+2,,AUTO
         5 000456   000473 701000 5                  TSX1    FIELD_START
         5 000457   000000 011000                    NOP     0

      374     7845
      375     7846    4                    END;                   /* Do Case                            */

      376     7847
      377     7848    3                 I=I+1;

   7848  5 000460   200023 235100                    LDA     I,,AUTO
         5 000461   000001 035007                    ADLA    1,DL
         5 000462   200023 755100                    STA     I,,AUTO

      378     7849    3                 END;                      /* Do While                           */

   7849  5 000463   000000 470400 xsym               LDP0    FKA_RECFIELD$
         5 000464   000000 236100                    LDQ     0,,PR0
         5 000465   000032 376000 xsym               ANQ     B_VECTNIL+26
         5 000466   200023 116100                    CMPQ    I,,AUTO
         5 000467   000471 600000 5                  TZE     s:7851
         5 000470   000344 603000 5                  TRC     s:7826
PL6.E3A0      #002=FKA$ALTKEY File=FKA$ALTKEY.:E05TSI                            TUE 07/29/97 15:31 Page:73

      379     7850
      380     7851    2              RETURN;

   7851  5 000471   200022 221300                    LDX1  ! I+3,,AUTO
         5 000472   000001 702211                    TSX2  ! 1,X1

      381     7852        %EJECT;
PL6.E3A0      #002=FKA$ALTKEY File=FKA$ALTKEY.:E05TSI                            TUE 07/29/97 15:31 Page:74
      382     7853    2   FIELD_START:  PROC(K);

   7853  5 000473   200026 741300       FIELD_START  STX1  ! REC_OFFSET+1,,AUTO

      383     7854    3     DCL K UBIN;
      384     7855        /**/
      385     7856
      386     7857    4                 DO CASE(RECFIELD.FIELD.TYPE#(K));

   7857  5 000474   200027 470500                    LDP0    @K,,AUTO
         5 000475   000000 236100                    LDQ     0,,PR0
         5 000476   000003 402007                    MPY     3,DL
         5 000477   000000 471400 xsym               LDP1    FKA_RECFIELD$
         5 000500   000100 101506                    MRL     fill='000'O
         5 000501   100001 020001                    ADSC6   1,Q,PR1                  cn=0,n=1
         5 000502   200034 020003                    ADSC6   EVEN+2,,AUTO             cn=0,n=3
         5 000503   200034 220100                    LDX0    EVEN+2,,AUTO
         5 000504   000072 100003                    CMPX0   58,DU
         5 000505   000507 602010 5                  TNC     s:7857+11,X0
         5 000506   000764 710000 5                  TRA     s:7899
         5 000507   000601 710000 5                  TRA     s:7860
         5 000510   000621 710000 5                  TRA     s:7864
         5 000511   000764 710000 5                  TRA     s:7899
         5 000512   000640 710000 5                  TRA     s:7868
         5 000513   000650 710000 5                  TRA     s:7872
         5 000514   000764 710000 5                  TRA     s:7899
         5 000515   000764 710000 5                  TRA     s:7899
         5 000516   000764 710000 5                  TRA     s:7899
         5 000517   000764 710000 5                  TRA     s:7899
         5 000520   000660 710000 5                  TRA     s:7877
         5 000521   000660 710000 5                  TRA     s:7877
         5 000522   000764 710000 5                  TRA     s:7899
         5 000523   000764 710000 5                  TRA     s:7899
         5 000524   000764 710000 5                  TRA     s:7899
         5 000525   000764 710000 5                  TRA     s:7899
         5 000526   000764 710000 5                  TRA     s:7899
         5 000527   000764 710000 5                  TRA     s:7899
PL6.E3A0      #002=FKA$ALTKEY File=FKA$ALTKEY.:E05TSI                            TUE 07/29/97 15:31 Page:75
         5 000530   000764 710000 5                  TRA     s:7899
         5 000531   000764 710000 5                  TRA     s:7899
         5 000532   000764 710000 5                  TRA     s:7899
         5 000533   000764 710000 5                  TRA     s:7899
         5 000534   000601 710000 5                  TRA     s:7860
         5 000535   000725 710000 5                  TRA     s:7885
         5 000536   000764 710000 5                  TRA     s:7899
         5 000537   000621 710000 5                  TRA     s:7864
         5 000540   000660 710000 5                  TRA     s:7877
         5 000541   000764 710000 5                  TRA     s:7899
         5 000542   000764 710000 5                  TRA     s:7899
         5 000543   000764 710000 5                  TRA     s:7899
         5 000544   000764 710000 5                  TRA     s:7899
         5 000545   000764 710000 5                  TRA     s:7899
         5 000546   000660 710000 5                  TRA     s:7877
         5 000547   000764 710000 5                  TRA     s:7899
         5 000550   000764 710000 5                  TRA     s:7899
         5 000551   000764 710000 5                  TRA     s:7899
         5 000552   000764 710000 5                  TRA     s:7899
         5 000553   000764 710000 5                  TRA     s:7899
         5 000554   000764 710000 5                  TRA     s:7899
         5 000555   000764 710000 5                  TRA     s:7899
         5 000556   000764 710000 5                  TRA     s:7899
         5 000557   000660 710000 5                  TRA     s:7877
         5 000560   000745 710000 5                  TRA     s:7894
         5 000561   000745 710000 5                  TRA     s:7894
         5 000562   000745 710000 5                  TRA     s:7894
         5 000563   000745 710000 5                  TRA     s:7894
         5 000564   000745 710000 5                  TRA     s:7894
         5 000565   000764 710000 5                  TRA     s:7899
         5 000566   000764 710000 5                  TRA     s:7899
         5 000567   000764 710000 5                  TRA     s:7899
         5 000570   000764 710000 5                  TRA     s:7899
         5 000571   000745 710000 5                  TRA     s:7894
         5 000572   000660 710000 5                  TRA     s:7877
         5 000573   000764 710000 5                  TRA     s:7899
         5 000574   000764 710000 5                  TRA     s:7899
PL6.E3A0      #002=FKA$ALTKEY File=FKA$ALTKEY.:E05TSI                            TUE 07/29/97 15:31 Page:76
         5 000575   000650 710000 5                  TRA     s:7872
         5 000576   000640 710000 5                  TRA     s:7868
         5 000577   000735 710000 5                  TRA     s:7889
         5 000600   000650 710000 5                  TRA     s:7872

      387     7858
      388     7859    4                    CASE(%NO_DATATYPE,%CHAR_DATATYPE);

      389     7860    4                       CALL SET_FIELD_START(%BYTE_ALIGNED);

   7860  5 000601   000007 236000 6                  LDQ     7
         5 000602   200031 756100                    STQ     @K+2,,AUTO
         5 000603   000766 701000 5                  TSX1    SET_FIELD_START
         5 000604   000000 011000                    NOP     0

      390     7861    4                       REC_OFFSET=REC_OFFSET + (RECFIELD.FIELD.LEN#(K)*9);

   7861  5 000605   200027 470500                    LDP0    @K,,AUTO
         5 000606   000000 236100                    LDQ     0,,PR0
         5 000607   000003 402007                    MPY     3,DL
         5 000610   000000 471400 xsym               LDP1    FKA_RECFIELD$
         5 000611   000100 101506                    MRL     fill='000'O
         5 000612   100001 120002                    ADSC6   1,Q,PR1                  cn=1,n=2
         5 000613   200034 020006                    ADSC6   EVEN+2,,AUTO             cn=0,n=6
         5 000614   200034 236100                    LDQ     EVEN+2,,AUTO
         5 000615   000011 402007                    MPY     9,DL
         5 000616   200025 036100                    ADLQ    REC_OFFSET,,AUTO
         5 000617   200025 756100                    STQ     REC_OFFSET,,AUTO
         5 000620   000764 710000 5                  TRA     s:7899

      391     7862
      392     7863    4                    CASE(%SBIN_DATATYPE,%UBIN_DATATYPE);

      393     7864    4                       CALL SET_FIELD_START(%BIT_ALIGNED);

   7864  5 000621   000010 236000 6                  LDQ     8
         5 000622   200031 756100                    STQ     @K+2,,AUTO
PL6.E3A0      #002=FKA$ALTKEY File=FKA$ALTKEY.:E05TSI                            TUE 07/29/97 15:31 Page:77
         5 000623   000766 701000 5                  TSX1    SET_FIELD_START
         5 000624   000000 011000                    NOP     0

      394     7865    4                       REC_OFFSET=REC_OFFSET + RECFIELD.FIELD.LEN#(K);

   7865  5 000625   200027 470500                    LDP0    @K,,AUTO
         5 000626   000000 236100                    LDQ     0,,PR0
         5 000627   000003 402007                    MPY     3,DL
         5 000630   000000 471400 xsym               LDP1    FKA_RECFIELD$
         5 000631   000100 101506                    MRL     fill='000'O
         5 000632   100001 120002                    ADSC6   1,Q,PR1                  cn=1,n=2
         5 000633   200034 020006                    ADSC6   EVEN+2,,AUTO             cn=0,n=6
         5 000634   200034 236100                    LDQ     EVEN+2,,AUTO
         5 000635   200025 036100                    ADLQ    REC_OFFSET,,AUTO
         5 000636   200025 756100                    STQ     REC_OFFSET,,AUTO
         5 000637   000764 710000 5                  TRA     s:7899

      395     7866
      396     7867    4                    CASE(%SFLT_DATATYPE,%UTS_DATATYPE);

      397     7868    4                       CALL SET_FIELD_START(%BYTE_ALIGNED);

   7868  5 000640   000007 236000 6                  LDQ     7
         5 000641   200031 756100                    STQ     @K+2,,AUTO
         5 000642   000766 701000 5                  TSX1    SET_FIELD_START
         5 000643   000000 011000                    NOP     0

      398     7869    4                       REC_OFFSET=REC_OFFSET + 36;

   7869  5 000644   200025 235100                    LDA     REC_OFFSET,,AUTO
         5 000645   000044 035007                    ADLA    36,DL
         5 000646   200025 755100                    STA     REC_OFFSET,,AUTO
         5 000647   000764 710000 5                  TRA     s:7899

      399     7870
      400     7871    4                    CASE(%DFLT_DATATYPE,%DATE_DATATYPE,%TIME_DATATYPE);

PL6.E3A0      #002=FKA$ALTKEY File=FKA$ALTKEY.:E05TSI                            TUE 07/29/97 15:31 Page:78
      401     7872    4                       CALL SET_FIELD_START(%BYTE_ALIGNED);

   7872  5 000650   000007 236000 6                  LDQ     7
         5 000651   200031 756100                    STQ     @K+2,,AUTO
         5 000652   000766 701000 5                  TSX1    SET_FIELD_START
         5 000653   000000 011000                    NOP     0

      402     7873    4                       REC_OFFSET=REC_OFFSET + 72;

   7873  5 000654   200025 235100                    LDA     REC_OFFSET,,AUTO
         5 000655   000110 035007                    ADLA    72,DL
         5 000656   200025 755100                    STA     REC_OFFSET,,AUTO
         5 000657   000764 710000 5                  TRA     s:7899

      403     7874
      404     7875    4                    CASE(%PDLA_DATATYPE,%PDTA_DATATYPE,%PDLE_DATATYPE,

      405     7876    4                           %PDTE_DATATYPE,%PDFLT_DATATYPE,%PDNS_DATATYPE);
      406     7877    4                       CALL SET_FIELD_START(%NIBBLE_ALIGNED);

   7877  5 000660   000011 236000 6                  LDQ     9
         5 000661   200031 756100                    STQ     @K+2,,AUTO
         5 000662   000766 701000 5                  TSX1    SET_FIELD_START
         5 000663   000000 011000                    NOP     0

      407     7878    4                       REC_OFFSET=REC_OFFSET + ((RECFIELD.DECFIELD.LEN#(K)/2)*9);

   7878  5 000664   200027 470500                    LDP0    @K,,AUTO
         5 000665   000000 236100                    LDQ     0,,PR0
         5 000666   000003 402007                    MPY     3,DL
         5 000667   000000 471400 xsym               LDP1    FKA_RECFIELD$
         5 000670   000100 101506                    MRL     fill='000'O
         5 000671   100001 120001                    ADSC6   1,Q,PR1                  cn=1,n=1
         5 000672   200034 020006                    ADSC6   EVEN+2,,AUTO             cn=0,n=6
         5 000673   200034 236100                    LDQ     EVEN+2,,AUTO
         5 000674   000001 772000                    QRL     1
         5 000675   000011 402007                    MPY     9,DL
PL6.E3A0      #002=FKA$ALTKEY File=FKA$ALTKEY.:E05TSI                            TUE 07/29/97 15:31 Page:79
         5 000676   200025 036100                    ADLQ    REC_OFFSET,,AUTO
         5 000677   200025 756100                    STQ     REC_OFFSET,,AUTO

      408     7879    4                       IF MOD(RECFIELD.DECFIELD.LEN#(K),2)~=0 THEN /* odd length */

   7879  5 000700   000000 236100                    LDQ     0,,PR0
         5 000701   000003 402007                    MPY     3,DL
         5 000702   000100 101506                    MRL     fill='000'O
         5 000703   100001 120001                    ADSC6   1,Q,PR1                  cn=1,n=1
         5 000704   200034 020006                    ADSC6   EVEN+2,,AUTO             cn=0,n=6
         5 000705   200034 236100                    LDQ     EVEN+2,,AUTO
         5 000706   000001 376007                    ANQ     1,DL
         5 000707   000764 600000 5                  TZE     s:7899

      409     7880    4                          IF MOD(REC_OFFSET,9)=0 THEN

   7880  5 000710   200025 235100                    LDA     REC_OFFSET,,AUTO
         5 000711   000043 773000                    LRL     35
         5 000712   000011 507007                    DVF     9,DL
         5 000713   000000 116003                    CMPQ    0,DU
         5 000714   000721 601000 5                  TNZ     s:7882

      410     7881    4                             REC_OFFSET=REC_OFFSET+5; /* even nibble boundary    */

   7881  5 000715   200025 235100                    LDA     REC_OFFSET,,AUTO
         5 000716   000005 035007                    ADLA    5,DL
         5 000717   200025 755100                    STA     REC_OFFSET,,AUTO
         5 000720   000764 710000 5                  TRA     s:7899

      411     7882    4                          ELSE REC_OFFSET=REC_OFFSET+4; /* odd nibble boundary   */

   7882  5 000721   200025 235100                    LDA     REC_OFFSET,,AUTO
         5 000722   000004 035007                    ADLA    4,DL
         5 000723   200025 755100                    STA     REC_OFFSET,,AUTO
         5 000724   000764 710000 5                  TRA     s:7899

      412     7883
PL6.E3A0      #002=FKA$ALTKEY File=FKA$ALTKEY.:E05TSI                            TUE 07/29/97 15:31 Page:80
      413     7884    4                    CASE(%TEXTC_DATATYPE);

      414     7885    4                       CALL SET_FIELD_START(%BYTE_ALIGNED);

   7885  5 000725   000007 236000 6                  LDQ     7
         5 000726   200031 756100                    STQ     @K+2,,AUTO
         5 000727   000766 701000 5                  TSX1    SET_FIELD_START
         5 000730   000000 011000                    NOP     0

      415     7886    4                       REC_OFFSET=REC_OFFSET + 9;

   7886  5 000731   200025 235100                    LDA     REC_OFFSET,,AUTO
         5 000732   000011 035007                    ADLA    9,DL
         5 000733   200025 755100                    STA     REC_OFFSET,,AUTO
         5 000734   000764 710000 5                  TRA     s:7899

      416     7887
      417     7888    4                    CASE(%TEXTH_DATATYPE);

      418     7889    4                       CALL SET_FIELD_START(%BYTE_ALIGNED);

   7889  5 000735   000007 236000 6                  LDQ     7
         5 000736   200031 756100                    STQ     @K+2,,AUTO
         5 000737   000766 701000 5                  TSX1    SET_FIELD_START
         5 000740   000000 011000                    NOP     0

      419     7890    4                       REC_OFFSET=REC_OFFSET + 18;

   7890  5 000741   200025 235100                    LDA     REC_OFFSET,,AUTO
         5 000742   000022 035007                    ADLA    18,DL
         5 000743   200025 755100                    STA     REC_OFFSET,,AUTO
         5 000744   000764 710000 5                  TRA     s:7899

      420     7891
      421     7892    4                    CASE(%UDNS_DATATYPE,%UDLS_DATATYPE,%UDTS_DATATYPE,

      422     7893    4                           %UDLO_DATATYPE,%UDTO_DATATYPE,%UDFLT_DATATYPE);
PL6.E3A0      #002=FKA$ALTKEY File=FKA$ALTKEY.:E05TSI                            TUE 07/29/97 15:31 Page:81
      423     7894    4                       CALL SET_FIELD_START(%BYTE_ALIGNED);

   7894  5 000745   000007 236000 6                  LDQ     7
         5 000746   200031 756100                    STQ     @K+2,,AUTO
         5 000747   000766 701000 5                  TSX1    SET_FIELD_START
         5 000750   000000 011000                    NOP     0

      424     7895    4                       REC_OFFSET=REC_OFFSET + (RECFIELD.DECFIELD.LEN#(K)*9);

   7895  5 000751   200027 470500                    LDP0    @K,,AUTO
         5 000752   000000 236100                    LDQ     0,,PR0
         5 000753   000003 402007                    MPY     3,DL
         5 000754   000000 471400 xsym               LDP1    FKA_RECFIELD$
         5 000755   000100 101506                    MRL     fill='000'O
         5 000756   100001 120001                    ADSC6   1,Q,PR1                  cn=1,n=1
         5 000757   200034 020006                    ADSC6   EVEN+2,,AUTO             cn=0,n=6
         5 000760   200034 236100                    LDQ     EVEN+2,,AUTO
         5 000761   000011 402007                    MPY     9,DL
         5 000762   200025 036100                    ADLQ    REC_OFFSET,,AUTO
         5 000763   200025 756100                    STQ     REC_OFFSET,,AUTO

      425     7896
      426     7897    4                    END;                   /* Do Case                            */

      427     7898
      428     7899    3                 RETURN;

   7899  5 000764   200026 221300                    LDX1  ! REC_OFFSET+1,,AUTO
         5 000765   000001 702211                    TSX2  ! 1,X1

      429     7900        %EJECT;
PL6.E3A0      #002=FKA$ALTKEY File=FKA$ALTKEY.:E05TSI                            TUE 07/29/97 15:31 Page:82
      430     7901    3   SET_FIELD_START: PROC (ALIGN_TYPE);

   7901  5 000766   200030 741300       SET_FIELD_S* STX1  ! @K+1,,AUTO

      431     7902    4     DCL ALIGN_TYPE UBIN;
      432     7903    4     DCL EVEN UBIN;
      433     7904        /**/
      434     7905
      435     7906    5                    DO CASE(ALIGN_TYPE);

   7906  5 000767   200031 470500                    LDP0    @ALIGN_TYPE,,AUTO
         5 000770   000000 235100                    LDA     0,,PR0
         5 000771   000003 115007                    CMPA    3,DL
         5 000772   000774 602005 5                  TNC     s:7906+5,AL
         5 000773   001044 710000 5                  TRA     s:7923
         5 000774   001044 710000 5                  TRA     s:7923
         5 000775   000777 710000 5                  TRA     s:7908
         5 000776   001015 710000 5                  TRA     s:7912

      436     7907    5                       CASE(%BYTE_ALIGNED);

      437     7908    5                          IF MOD(REC_OFFSET,9)~=0 THEN

   7908  5 000777   200025 236100                    LDQ     REC_OFFSET,,AUTO
         5 001000   000044 737000                    LLS     36
         5 001001   000043 773000                    LRL     35
         5 001002   000011 507007                    DVF     9,DL
         5 001003   000000 116003                    CMPQ    0,DU
         5 001004   001044 600000 5                  TZE     s:7923

      438     7909    5                             REC_OFFSET=((REC_OFFSET/9)*9) + 9;

   7909  5 001005   200025 235100                    LDA     REC_OFFSET,,AUTO
         5 001006   000043 773000                    LRL     35
         5 001007   000011 507007                    DVF     9,DL
         5 001010   000044 733000                    LRS     36
         5 001011   000011 402007                    MPY     9,DL
PL6.E3A0      #002=FKA$ALTKEY File=FKA$ALTKEY.:E05TSI                            TUE 07/29/97 15:31 Page:83
         5 001012   000011 036007                    ADLQ    9,DL
         5 001013   200025 756100                    STQ     REC_OFFSET,,AUTO
         5 001014   001044 710000 5                  TRA     s:7923

      439     7910
      440     7911    5                       CASE(%NIBBLE_ALIGNED);

      441     7912    5                          EVEN=(REC_OFFSET/9)*9;

   7912  5 001015   200025 236100                    LDQ     REC_OFFSET,,AUTO
         5 001016   000044 737000                    LLS     36
         5 001017   000043 773000                    LRL     35
         5 001020   000011 507007                    DVF     9,DL
         5 001021   000044 733000                    LRS     36
         5 001022   000011 402007                    MPY     9,DL
         5 001023   200032 756100                    STQ     EVEN,,AUTO

      442     7913    5                          IF REC_OFFSET > EVEN AND REC_OFFSET < EVEN+5 THEN

   7913  5 001024   200025 116100                    CMPQ    REC_OFFSET,,AUTO
         5 001025   001034 603000 5                  TRC     s:7915
         5 001026   000005 036007                    ADLQ    5,DL
         5 001027   200025 116100                    CMPQ    REC_OFFSET,,AUTO
         5 001030   001034 602000 5                  TNC     s:7915
         5 001031   001034 600000 5                  TZE     s:7915

      443     7914    5                             REC_OFFSET=EVEN+5;

   7914  5 001032   200025 756100                    STQ     REC_OFFSET,,AUTO
         5 001033   001044 710000 5                  TRA     s:7923

      444     7915    5                          ELSE IF REC_OFFSET > EVEN+5 THEN

   7915  5 001034   200032 236100                    LDQ     EVEN,,AUTO
         5 001035   000005 036007                    ADLQ    5,DL
         5 001036   200025 116100                    CMPQ    REC_OFFSET,,AUTO
         5 001037   001044 603000 5                  TRC     s:7923
PL6.E3A0      #002=FKA$ALTKEY File=FKA$ALTKEY.:E05TSI                            TUE 07/29/97 15:31 Page:84

      445     7916    5                                REC_OFFSET=EVEN+9;

   7916  5 001040   200032 235100                    LDA     EVEN,,AUTO
         5 001041   000011 035007                    ADLA    9,DL
         5 001042   200025 755100                    STA     REC_OFFSET,,AUTO
         5 001043   001044 710000 5                  TRA     s:7923

      446     7917
      447     7918    5                       CASE(%BIT_ALIGNED);

      448     7919                                                /* Don't do anything.                 */
      449     7920
      450     7921    5                       END;                /* Do Case                            */

      451     7922
      452     7923    4                    FIELD_START.OFFSET(K)=REC_OFFSET; /* K defined in FIELD_START */

   7923  5 001044   200027 471500                    LDP1    @K,,AUTO
         5 001045   100000 720100                    LXL0    0,,PR1
         5 001046   200025 235100                    LDA     REC_OFFSET,,AUTO
         5 001047   000000 473400 xsym               LDP3    FKA_START$
         5 001050   300001 755110                    STA     1,X0,PR3

      453     7924    4                    RETURN;

   7924  5 001051   200030 221300                    LDX1  ! @K+1,,AUTO
         5 001052   000001 702211                    TSX2  ! 1,X1

      454     7925
      455     7926    4            END SET_FIELD_START;
      456     7927
      457     7928    3         END FIELD_START;
      458     7929
      459     7930    2      END FIELD_START_SETUP;
      460     7931        %EJECT;
PL6.E3A0      #002=FKA$ALTKEY File=FKA$ALTKEY.:E05TSI                            TUE 07/29/97 15:31 Page:85
      461     7932        /*I*     NAME:     INDEXED_SETUP
      462     7933                 PURPOSE:  To handle set up for indexed files
      463     7934                 DESCRIPTION:
      464     7935
      465     7936                      Build a pointer to the altkey information, and
      466     7937                 find the largest key.
      467     7938        */
      468     7939         %EJECT;
PL6.E3A0      #002=FKA$ALTKEY File=FKA$ALTKEY.:E05TSI                            TUE 07/29/97 15:31 Page:86
      469     7940    1   INDEXED_SETUP: PROC ALTRET;

   7940  5 001053   200016 741300       INDEXED_SET* STX1  ! CLOSERR+3,,AUTO

      470     7941        /* */
      471     7942    2              FKA_ALTKEYS$=PINCRW(ADDR(FKA_ALTKEY_BFR.FPARAM), 5);

   7942  5 001054   000012 236000 6                  LDQ     10
         5 001055   000000 756000 xsym               STQ     FKA_ALTKEYS$

      472     7943    2              I=8;

   7943  5 001056   000010 235007                    LDA     8,DL
         5 001057   200003 755100                    STA     I,,AUTO

      473     7944    2              CALL XSF$LOCCODE(FKA_ALTKEYS$, I) ALTRET(NOALT);

   7944  5 001060   200003 630500                    EPPR0   I,,AUTO
         5 001061   200035 450500                    STP0    EVEN+3,,AUTO
         5 001062   000013 236000 6                  LDQ     11
         5 001063   200034 756100                    STQ     EVEN+2,,AUTO
         5 001064   200034 630500                    EPPR0   EVEN+2,,AUTO
         5 001065   000020 631400 xsym               EPPR1   B_VECTNIL+16
         5 001066   000000 701000 xent               TSX1    XSF$LOCCODE
         5 001067   001142 702000 5                  TSX2    NOALT

      474     7945
      475     7946    2              MAX=0;

   7946  5 001070   200004 450100                    STZ     MAX,,AUTO

      476     7947    3              DO I=0 TO FITALTKEYS.NUMENTS-1;

   7947  5 001071   200003 450100                    STZ     I,,AUTO
         5 001072   001131 710000 5                  TRA     s:7952+1

      477     7948    3                 FITALTKEYS.K.DUPKEY(I)='0'B;
PL6.E3A0      #002=FKA$ALTKEY File=FKA$ALTKEY.:E05TSI                            TUE 07/29/97 15:31 Page:87

   7948  5 001073   200003 236100                    LDQ     I,,AUTO
         5 001074   000006 402007                    MPY     6,DL
         5 001075   000000 470400 xsym               LDP0    FKA_ALTKEYS$
         5 001076   000000 620006                    EAX0    0,QL
         5 001077   000014 236000 6                  LDQ     12
         5 001100   000004 356110                    ANSQ    4,X0,PR0

      478     7949    3                 FKA_UNIQUE(I)=FITALTKEYS.K.UNIQUE(I);

   7949  5 001101   200003 236100                    LDQ     I,,AUTO
         5 001102   000330 402007                    MPY     216,DL
         5 001103   000000 116003                    CMPQ    0,DU
         5 001104   001106 605000 5                  TPL     s:7949+5
         5 001105   000044 036003                    ADLQ    36,DU
         5 001106   200003 235100                    LDA     I,,AUTO
         5 001107   001111 605000 5                  TPL     s:7949+8
         5 001110   000044 035003                    ADLA    36,DU
         5 001111   000000 470400 xsym               LDP0    FKA_ALTKEYS$
         5 001112   003005 060506                    CSL     bolr='003'O
         5 001113   000004 200001                    BDSC    4,Q,PR0                  by=1,bit=0,n=1
         5 001114   000000 000001 xsym               BDSC    FKA_UNIQUE,A             by=0,bit=0,n=1

      479     7950    3                 IF FITALTKEYS.K.KEYL(I) > MAX THEN

   7950  5 001115   200003 236100                    LDQ     I,,AUTO
         5 001116   000006 402007                    MPY     6,DL
         5 001117   000001 236106                    LDQ     1,QL,PR0
         5 001120   000033 772000                    QRL     27
         5 001121   200004 116100                    CMPQ    MAX,,AUTO
         5 001122   001130 604400 5                  TMOZ    s:7952

      480     7951    3                    MAX=FITALTKEYS.K.KEYL(I);

   7951  5 001123   200003 236100                    LDQ     I,,AUTO
         5 001124   000006 402007                    MPY     6,DL
         5 001125   000001 236106                    LDQ     1,QL,PR0
PL6.E3A0      #002=FKA$ALTKEY File=FKA$ALTKEY.:E05TSI                            TUE 07/29/97 15:31 Page:88
         5 001126   000033 772000                    QRL     27
         5 001127   200004 756100                    STQ     MAX,,AUTO

      481     7952    3                 END;

   7952  5 001130   200003 054100                    AOS     I,,AUTO
         5 001131   000000 470400 xsym               LDP0    FKA_ALTKEYS$
         5 001132   000000 236100                    LDQ     0,,PR0
         5 001133   000022 772000                    QRL     18
         5 001134   000377 376007                    ANQ     255,DL
         5 001135   200003 116100                    CMPQ    I,,AUTO
         5 001136   001073 605400 5                  TPNZ    s:7948

      482     7953
      483     7954    2              FKA_NUMKEYS=FITALTKEYS.NUMENTS;

   7954  5 001137   000000 756000 xsym               STQ     FKA_NUMKEYS

      484     7955
      485     7956    2              RETURN;

   7956  5 001140   200016 221300                    LDX1  ! CLOSERR+3,,AUTO
         5 001141   000001 702211                    TSX2  ! 1,X1

      486     7957    2   NOALT:     ERRCODE=ERR_NOALTINDX;

   7957  5 001142   000201 236000 1     NOALT        LDQ     ERR_NOALTINDX
         5 001143   002161 756000 2                  STQ     ERRCODE

      487     7958        /*E*   ERROR:  FKA-E$NOALTINDX-0
      488     7959               MESSAGE:  There are no alternate indexes in this file.
      489     7960        */
      490     7961    2              ALTRETURN;

   7961  5 001144   200016 221300                    LDX1  ! CLOSERR+3,,AUTO
         5 001145   000000 702211                    TSX2  ! 0,X1

PL6.E3A0      #002=FKA$ALTKEY File=FKA$ALTKEY.:E05TSI                            TUE 07/29/97 15:31 Page:89
      491     7962    2      END INDEXED_SETUP;
      492     7963         %EJECT;
PL6.E3A0      #002=FKA$ALTKEY File=FKA$ALTKEY.:E05TSI                            TUE 07/29/97 15:31 Page:90
      493     7964        /*I*     NAME:     IREL_SETUP
      494     7965                 PURPOSE:  Part one of set up for IREL files
      495     7966                 DESCRIPTION:
      496     7967
      497     7968                      Find and build pointers to all of the IREL
      498     7969                 information that we need.
      499     7970        */
      500     7971         %EJECT;
PL6.E3A0      #002=FKA$ALTKEY File=FKA$ALTKEY.:E05TSI                            TUE 07/29/97 15:31 Page:91
      501     7972    1   IREL_SETUP: PROC ALTRET;

   7972  5 001146   200016 741300       IREL_SETUP   STX1  ! CLOSERR+3,,AUTO

      502     7973    2     DCL I SBIN;
      503     7974    2     DCL START SBIN;
      504     7975    2     DCL LEN SBIN;
      505     7976        /* */
      506     7977    2              FKA_RECFIELD$=PINCRW(ADDR(FKA_ALTKEY_BFR.FPARAM), 5);

   7977  5 001147   000012 236000 6                  LDQ     10
         5 001150   000000 756000 xsym               STQ     FKA_RECFIELD$

      507     7978    2              I=18;

   7978  5 001151   000022 235007                    LDA     18,DL
         5 001152   200017 755100                    STA     I,,AUTO

      508     7979    2              CALL XSF$LOCCODE(FKA_RECFIELD$, I) ALTRET(NOALT);

   7979  5 001153   200017 630500                    EPPR0   I,,AUTO
         5 001154   200035 450500                    STP0    EVEN+3,,AUTO
         5 001155   000015 236000 6                  LDQ     13
         5 001156   200034 756100                    STQ     EVEN+2,,AUTO
         5 001157   200034 630500                    EPPR0   EVEN+2,,AUTO
         5 001160   000020 631400 xsym               EPPR1   B_VECTNIL+16
         5 001161   000000 701000 xent               TSX1    XSF$LOCCODE
         5 001162   001243 702000 5                  TSX2    NOALT

      509     7980
      510     7981    2              FKA_CODE19$=PINCRW(ADDR(FKA_ALTKEY_BFR.FPARAM), 5);

   7981  5 001163   000012 236000 6                  LDQ     10
         5 001164   000000 756000 xsym               STQ     FKA_CODE19$

      511     7982    2              I=19;

PL6.E3A0      #002=FKA$ALTKEY File=FKA$ALTKEY.:E05TSI                            TUE 07/29/97 15:31 Page:92
   7982  5 001165   000023 235007                    LDA     19,DL
         5 001166   200017 755100                    STA     I,,AUTO

      512     7983    2              CALL XSF$LOCCODE(FKA_CODE19$, I) ALTRET(NOALT);

   7983  5 001167   200017 630500                    EPPR0   I,,AUTO
         5 001170   200035 450500                    STP0    EVEN+3,,AUTO
         5 001171   000016 236000 6                  LDQ     14
         5 001172   200034 756100                    STQ     EVEN+2,,AUTO
         5 001173   200034 630500                    EPPR0   EVEN+2,,AUTO
         5 001174   000020 631400 xsym               EPPR1   B_VECTNIL+16
         5 001175   000000 701000 xent               TSX1    XSF$LOCCODE
         5 001176   001243 702000 5                  TSX2    NOALT

      513     7984
      514     7985    2              FKA_CODE20$=PINCRW(ADDR(FKA_ALTKEY_BFR.FPARAM), 5);

   7985  5 001177   000012 236000 6                  LDQ     10
         5 001200   000000 756000 xsym               STQ     FKA_CODE20$

      515     7986    2              I=20;

   7986  5 001201   000024 235007                    LDA     20,DL
         5 001202   200017 755100                    STA     I,,AUTO

      516     7987    2              CALL XSF$LOCCODE(FKA_CODE20$, I) ALTRET(NOALT);

   7987  5 001203   200017 630500                    EPPR0   I,,AUTO
         5 001204   200035 450500                    STP0    EVEN+3,,AUTO
         5 001205   000017 236000 6                  LDQ     15
         5 001206   200034 756100                    STQ     EVEN+2,,AUTO
         5 001207   200034 630500                    EPPR0   EVEN+2,,AUTO
         5 001210   000020 631400 xsym               EPPR1   B_VECTNIL+16
         5 001211   000000 701000 xent               TSX1    XSF$LOCCODE
         5 001212   001243 702000 5                  TSX2    NOALT

      517     7988
PL6.E3A0      #002=FKA$ALTKEY File=FKA$ALTKEY.:E05TSI                            TUE 07/29/97 15:31 Page:93
      518     7989    2              CALL FIELD_START_SETUP;

   7989  5 001213   000332 701000 5                  TSX1    FIELD_START_SETUP
         5 001214   000000 011000                    NOP     0

      519     7990    2              CALL IRSETUP;

   7990  5 001215   001247 701000 5                  TSX1    IRSETUP
         5 001216   000000 011000                    NOP     0

      520     7991
      521     7992    2              SORT_TABLE.SECONDARY.KCE$ = ENTADDR(FKA$COMP);

   7992  5 001217   000000 636000 xent               EAQ     FKA$COMP
         5 001220   002142 756000 2                  STQ     SORT_TABLE+28

      522     7993                                                /* Check for degenerate case.         */
      523     7994    3              DO I = 0 TO FKA_NUMKEYS - 1;

   7994  5 001221   200017 450100                    STZ     I,,AUTO
         5 001222   001234 710000 5                  TRA     s:7997+1

      524     7995    3                 IF NOT IRKEYS.K.DEGENERATE(I) THEN /* Not a degenerate case.    */

   7995  5 001223   200017 236100                    LDQ     I,,AUTO
         5 001224   000007 402007                    MPY     7,DL
         5 001225   000000 470400 xsym               LDP0    FKA_IRKEYS$
         5 001226   000006 236106                    LDQ     6,QL,PR0
         5 001227   040000 316007                    CANQ    16384,DL
         5 001230   001233 601000 5                  TNZ     s:7997

      525     7996    3                    RETURN;

   7996  5 001231   200016 221300                    LDX1  ! CLOSERR+3,,AUTO
         5 001232   000001 702211                    TSX2  ! 1,X1

      526     7997    3                 END;
PL6.E3A0      #002=FKA$ALTKEY File=FKA$ALTKEY.:E05TSI                            TUE 07/29/97 15:31 Page:94

   7997  5 001233   200017 054100                    AOS     I,,AUTO
         5 001234   200017 236100                    LDQ     I,,AUTO
         5 001235   000000 116000 xsym               CMPQ    FKA_NUMKEYS
         5 001236   001223 604000 5                  TMI     s:7995

      527     7998                                           /* Don't need FKA$COMP if degenerate case. */
      528     7999    2              SORT_TABLE.SECONDARY.KCE$ = ENTADDR(NIL);

   7999  5 001237   000002 236000 xsym               LDQ     B_VECTNIL+2
         5 001240   002142 756000 2                  STQ     SORT_TABLE+28

      529     8000
      530     8001    2              RETURN;

   8001  5 001241   200016 221300                    LDX1  ! CLOSERR+3,,AUTO
         5 001242   000001 702211                    TSX2  ! 1,X1

      531     8002    2   NOALT:     ERRCODE=ERR_NOALTINDX;

   8002  5 001243   000201 236000 1     NOALT        LDQ     ERR_NOALTINDX
         5 001244   002161 756000 2                  STQ     ERRCODE

      532     8003    2              ALTRETURN;

   8003  5 001245   200016 221300                    LDX1  ! CLOSERR+3,,AUTO
         5 001246   000000 702211                    TSX2  ! 0,X1

      533     8004    2      END IREL_SETUP;
      534     8005         %EJECT;
PL6.E3A0      #002=FKA$ALTKEY File=FKA$ALTKEY.:E05TSI                            TUE 07/29/97 15:31 Page:95
      535     8006        /*I*     NAME:     IRSETUP
      536     8007                 PURPOSE:  Part two of set up for IREL files
      537     8008                 DESCRIPTION:
      538     8009
      539     8010                      The information has to be moved from the various
      540     8011                 code blocks to some more coherent structures.  Again,
      541     8012                 we have to find the size of the largest key.
      542     8013        */
      543     8014         %EJECT;
PL6.E3A0      #002=FKA$ALTKEY File=FKA$ALTKEY.:E05TSI                            TUE 07/29/97 15:31 Page:96
      544     8015    1   IRSETUP:   PROC;

   8015  5 001247   200022 741300       IRSETUP      STX1  ! I+3,,AUTO

      545     8016        /* */
      546     8017    2              IRKEYS.NKEYS=CODE19.NKEYS;

   8017  5 001250   000000 470400 xsym               LDP0    FKA_CODE19$
         5 001251   000000 471400 xsym               LDP1    FKA_IRKEYS$
         5 001252   000000 236100                    LDQ     0,,PR0
         5 001253   100000 552134                    STBQ    0,'34'O,PR1

      547     8018    2              N=0;

   8018  5 001254   200007 450100                    STZ     N,,AUTO

      548     8019    2              MAX=0;

   8019  5 001255   200004 450100                    STZ     MAX,,AUTO

      549     8020    3              DO I=0 TO CODE19.NKEYS-1;

   8020  5 001256   200003 450100                    STZ     I,,AUTO
         5 001257   001445 710000 5                  TRA     s:8039+1

      550     8021    3                 TOTAL = 0;

   8021  5 001260   200011 450100                    STZ     TOTAL,,AUTO

      551     8022    3                 IRKEYS.K.FIRSTFIELD(I) = N;

   8022  5 001261   200003 236100                    LDQ     I,,AUTO
         5 001262   000007 402007                    MPY     7,DL
         5 001263   200007 720100                    LXL0    N,,AUTO
         5 001264   000000 470400 xsym               LDP0    FKA_IRKEYS$
         5 001265   000004 740106                    STX0    4,QL,PR0

PL6.E3A0      #002=FKA$ALTKEY File=FKA$ALTKEY.:E05TSI                            TUE 07/29/97 15:31 Page:97
      552     8023    3                 IRKEYS.K.UNIQUE(I) = CODE19.K.UNIQUE(I);

   8023  5 001266   200003 236100                    LDQ     I,,AUTO
         5 001267   000007 402007                    MPY     7,DL
         5 001270   000000 621006                    EAX1    0,QL
         5 001271   200003 236100                    LDQ     I,,AUTO
         5 001272   000022 402007                    MPY     18,DL
         5 001273   000000 116003                    CMPQ    0,DU
         5 001274   001276 605000 5                  TPL     s:8023+8
         5 001275   000044 036003                    ADLQ    36,DU
         5 001276   200034 756100                    STQ     EVEN+2,,AUTO
         5 001277   000000 636011                    EAQ     0,X1
         5 001300   000022 732000                    QRS     18
         5 001301   000044 402007                    MPY     36,DL
         5 001302   000000 116003                    CMPQ    0,DU
         5 001303   001305 605000 5                  TPL     s:8023+15
         5 001304   000044 036003                    ADLQ    36,DU
         5 001305   000000 471400 xsym               LDP1    FKA_CODE19$
         5 001306   200034 235100                    LDA     EVEN+2,,AUTO
         5 001307   003106 060505                    CSL     bolr='003'O
         5 001310   100001 010001                    BDSC    1,A,PR1                  by=0,bit=1,n=1
         5 001311   000006 400001                    BDSC    6,Q,PR0                  by=2,bit=0,n=1

      553     8024    3                 FKA_UNIQUE(I) = CODE19.K.UNIQUE(I);

   8024  5 001312   200003 236100                    LDQ     I,,AUTO
         5 001313   000022 402007                    MPY     18,DL
         5 001314   000000 116003                    CMPQ    0,DU
         5 001315   001317 605000 5                  TPL     s:8024+5
         5 001316   000044 036003                    ADLQ    36,DU
         5 001317   200003 235100                    LDA     I,,AUTO
         5 001320   001322 605000 5                  TPL     s:8024+8
         5 001321   000044 035003                    ADLA    36,DU
         5 001322   000000 471400 xsym               LDP1    FKA_CODE19$
         5 001323   003005 060506                    CSL     bolr='003'O
         5 001324   100001 010001                    BDSC    1,Q,PR1                  by=0,bit=1,n=1
         5 001325   000000 000001 xsym               BDSC    FKA_UNIQUE,A             by=0,bit=0,n=1
PL6.E3A0      #002=FKA$ALTKEY File=FKA$ALTKEY.:E05TSI                            TUE 07/29/97 15:31 Page:98

      554     8025    3                 IRKEYS.K.FDA(I) = CODE20.K.FDA(I);

   8025  5 001326   200003 236100                    LDQ     I,,AUTO
         5 001327   000007 402007                    MPY     7,DL
         5 001330   000000 621006                    EAX1    0,QL
         5 001331   200003 236100                    LDQ     I,,AUTO
         5 001332   000003 402007                    MPY     3,DL
         5 001333   000000 473400 xsym               LDP3    FKA_CODE20$
         5 001334   300003 236106                    LDQ     3,QL,PR3
         5 001335   000011 772000                    QRL     9
         5 001336   000007 676111                    ERQ     7,X1,PR0
         5 001337   000032 376000 xsym               ANQ     B_VECTNIL+26
         5 001340   000007 656111                    ERSQ    7,X1,PR0

      555     8026    3                 IRKEYS.K.LDA(I) = CODE20.K.LDA(I);

   8026  5 001341   200003 236100                    LDQ     I,,AUTO
         5 001342   000007 402007                    MPY     7,DL
         5 001343   000000 621006                    EAX1    0,QL
         5 001344   200003 236100                    LDQ     I,,AUTO
         5 001345   000003 402007                    MPY     3,DL
         5 001346   000000 471400 xsym               LDP1    FKA_CODE20$
         5 001347   100003 235106                    LDA     3,QL,PR1
         5 001350   100004 236106                    LDQ     4,QL,PR1
         5 001351   000022 773000                    LRL     18
         5 001352   000032 376000 xsym               ANQ     B_VECTNIL+26
         5 001353   000011 676111                    ERQ     9,X1,PR0
         5 001354   000032 376000 xsym               ANQ     B_VECTNIL+26
         5 001355   000011 656111                    ERSQ    9,X1,PR0

      556     8027    3                 IRKEYS.K.DEGENERATE(I) = CODE20.K.DEGENERATE(I);

   8027  5 001356   200003 236100                    LDQ     I,,AUTO
         5 001357   000007 402007                    MPY     7,DL
         5 001360   000000 621006                    EAX1    0,QL
         5 001361   200003 236100                    LDQ     I,,AUTO
PL6.E3A0      #002=FKA$ALTKEY File=FKA$ALTKEY.:E05TSI                            TUE 07/29/97 15:31 Page:99
         5 001362   000003 402007                    MPY     3,DL
         5 001363   000000 471400 xsym               LDP1    FKA_CODE20$
         5 001364   100004 236106                    LDQ     4,QL,PR1
         5 001365   000003 772000                    QRL     3
         5 001366   000006 676111                    ERQ     6,X1,PR0
         5 001367   040000 376007                    ANQ     16384,DL
         5 001370   000006 656111                    ERSQ    6,X1,PR0

      557     8028    4                 DO UNTIL (CODE19.K.KEYEND(N-1));

      558     8029    4                    IRKEYS.K.NFIELDS(I) = IRKEYS.K.NFIELDS(I) + 1;

   8029  5 001371   200003 236100                    LDQ     I,,AUTO
         5 001372   000007 402007                    MPY     7,DL
         5 001373   000000 470400 xsym               LDP0    FKA_IRKEYS$
         5 001374   000004 720106                    LXL0    4,QL,PR0
         5 001375   000001 621010                    EAX1    1,X0
         5 001376   000004 441106                    SXL1    4,QL,PR0

      559     8030    4                    KFIELD.FIELD(N) = CODE19.K.FIELDN(N);

   8030  5 001377   200007 235100                    LDA     N,,AUTO
         5 001400   000001 735000                    ALS     1
         5 001401   000000 471400 xsym               LDP1    FKA_CODE19$
         5 001402   000000 473400 xsym               LDP3    FKA_KFIELD$
         5 001403   200007 236100                    LDQ     N,,AUTO
         5 001404   000106 100505                    MLR     fill='000'O
         5 001405   100001 200001                    ADSC9   1,A,PR1                  cn=1,n=1
         5 001406   300002 000001                    ADSC9   2,Q,PR3                  cn=0,n=1

      560     8031    4                    FIELD = CODE19.K.FIELDN(N);

   8031  5 001407   000000 471400 xsym               LDP1    FKA_CODE19$
         5 001410   000100 101505                    MRL     fill='000'O
         5 001411   100001 200001                    ADSC9   1,A,PR1                  cn=1,n=1
         5 001412   200010 000004                    ADSC9   FIELD,,AUTO              cn=0,n=4

PL6.E3A0      #002=FKA$ALTKEY File=FKA$ALTKEY.:E05TSI                            TUE 07/29/97 15:31 Page:100
      561     8032    4                    CALL SET_LEN;

   8032  5 001413   001536 701000 5                  TSX1    SET_LEN
         5 001414   000000 011000                    NOP     0

      562     8033    4                    TOTAL = TOTAL + LEN;

   8033  5 001415   200011 236100                    LDQ     TOTAL,,AUTO
         5 001416   200005 036100                    ADLQ    LEN,,AUTO
         5 001417   200011 756100                    STQ     TOTAL,,AUTO

      563     8034    4                    N = N + 1;

   8034  5 001420   200007 054100                    AOS     N,,AUTO

      564     8035    4                    END;

   8035  5 001421   200007 236100                    LDQ     N,,AUTO
         5 001422   000022 402007                    MPY     18,DL
         5 001423   000000 116003                    CMPQ    0,DU
         5 001424   001426 605000 5                  TPL     s:8035+5
         5 001425   000044 036003                    ADLQ    36,DU
         5 001426   000000 470400 xsym               LDP0    FKA_CODE19$
         5 001427   000000 066506                    CMPB    filb='0'B
         5 001430   000000 400001                    BDSC    0,Q,PR0                  by=2,bit=0,n=1
         5 001431   000002 000022 xsym               BDSC    B_VECTNIL+2              by=0,bit=0,n=18
         5 001432   001371 600000 5                  TZE     s:8029

      565     8036    3                 IRKEYS.K.KEYL(I) = TOTAL;

   8036  5 001433   200003 236100                    LDQ     I,,AUTO
         5 001434   000007 402007                    MPY     7,DL
         5 001435   200011 720100                    LXL0    TOTAL,,AUTO
         5 001436   000000 471400 xsym               LDP1    FKA_IRKEYS$
         5 001437   100005 740106                    STX0    5,QL,PR1

      566     8037    3                 IF TOTAL > MAX THEN
PL6.E3A0      #002=FKA$ALTKEY File=FKA$ALTKEY.:E05TSI                            TUE 07/29/97 15:31 Page:101

   8037  5 001440   200011 236100                    LDQ     TOTAL,,AUTO
         5 001441   200004 116100                    CMPQ    MAX,,AUTO
         5 001442   001444 604400 5                  TMOZ    s:8039

      567     8038    3                    MAX = TOTAL;

   8038  5 001443   200004 756100                    STQ     MAX,,AUTO

      568     8039    3                 END;

   8039  5 001444   200003 054100                    AOS     I,,AUTO
         5 001445   000000 470400 xsym               LDP0    FKA_CODE19$
         5 001446   200003 236100                    LDQ     I,,AUTO
         5 001447   001260 604000 5                  TMI     s:8021
         5 001450   000000 116100                    CMPQ    0,,PR0
         5 001451   001260 602000 5                  TNC     s:8021

      569     8040
      570     8041    2              FKA_NUMKEYS=CODE19.NKEYS;

   8041  5 001452   000000 235100                    LDA     0,,PR0
         5 001453   000000 755000 xsym               STA     FKA_NUMKEYS

      571     8042
      572     8043    2              RETURN;

   8043  5 001454   200022 221300                    LDX1  ! I+3,,AUTO
         5 001455   000001 702211                    TSX2  ! 1,X1

      573     8044    2      END IRSETUP;
      574     8045         %EJECT;
PL6.E3A0      #002=FKA$ALTKEY File=FKA$ALTKEY.:E05TSI                            TUE 07/29/97 15:31 Page:102
      575     8046        /*I*     NAME:     OPEN
      576     8047                 PURPOSE:  To open the file
      577     8048                 DESCRIPTION:
      578     8049
      579     8050                      If this is a monitor ALTKEY, then we call RELSTARF
      580     8051                 to do a sleazy open.  This has to be done because we need
      581     8052                 to open the file with BLOCK access, and this is not possible
      582     8053                 if someone else has the file open.  The sleazy open is a bit
      583     8054                 interesting because it opens the dcb with FUN=IN to prevent
      584     8055                 unwanted behavior when we're run down and the dcb is really
      585     8056                 closed.  However, the FMBLK privilege that ALTKEY is linked
      586     8057                 with allows us to write granules in the file anyway.  In this
      587     8058                 case, we've been passed some information in the CCBUF via the
      588     8059                 M$MLINK which wouldn't be easily available otherwise; e.g.,
      589     8060                 the CFU pointer and SETX of the file, B$JIT.ERR as it was
      590     8061                 prior to the link to ALTKEY (so it won't be forgotten), the
      591     8062                 user's FPT_CLOSE RELG option, and whether he's allowed to
      592     8063                 RELG or not (his DELF access).  These will be used later to
      593     8064                 decide how to close and exit.
      594     8065
      595     8066                      Otherwise, for a stand-alone ALTKEY, just do a normal
      596     8067                 block open.
      597     8068        */
      598     8069         %EJECT;
PL6.E3A0      #002=FKA$ALTKEY File=FKA$ALTKEY.:E05TSI                            TUE 07/29/97 15:31 Page:103
      599     8070    1   OPEN:      PROC ALTRET;

   8070  5 001456   200016 741300       OPEN         STX1  ! CLOSERR+3,,AUTO

      600     8071        /* */
      601     8072    2              IF FKA_MON = %YES# THEN

   8072  5 001457   000000 234000 xsym               SZN     FKA_MON
         5 001460   001516 605000 5                  TPL     s:8087

      602     8073    3              DO;                          /* MONITOR CLOSE                      */

      603     8074    3                 FKA_ALTKEY_BFR.CODE=%ALTKEY_OPEN#;

   8074  5 001461   000102 450000 2                  STZ     FKA_ALTKEY_BFR+2

      604     8075    3                 FKA_ALTKEY_BFR.DCB#=DCBNUM(M$SI);

   8075  5 001462   000000 236007 xsym               LDQ     M$SI,DL
         5 001463   000100 756000 2                  STQ     FKA_ALTKEY_BFR

      605     8076    3                 CCBUF$=PINCRC(ADDR(B$JIT.CCBUF), -1);

   8076  5 001464   000000 236000 xsym               LDQ     B$JIT$
         5 001465   000020 036000 6                  ADLQ    16
         5 001466   200012 756100                    STQ     CCBUF$,,AUTO

      606     8077    3                 FKA_ALTKEY_BFR.CFU$=CCBUF.CFU$;

   8077  5 001467   200012 470500                    LDP0    CCBUF$,,AUTO
         5 001470   000000 100500                    MLR     fill='000'O
         5 001471   000002 200004                    ADSC9   2,,PR0                   cn=1,n=4
         5 001472   000101 000004 2                  ADSC9   FKA_ALTKEY_BFR+1         cn=0,n=4

      607     8078    3                 FKA_ALTKEY_BFR.SETX=CCBUF.SETX;

   8078  5 001473   000000 100500                    MLR     fill='000'O
PL6.E3A0      #002=FKA$ALTKEY File=FKA$ALTKEY.:E05TSI                            TUE 07/29/97 15:31 Page:104
         5 001474   000003 200004                    ADSC9   3,,PR0                   cn=1,n=4
         5 001475   000104 000004 2                  ADSC9   FKA_ALTKEY_BFR+4         cn=0,n=4

      608     8079    3                 FKA_ALTKEY_BFR.RELG=CCBUF.RELG;

   8079  5 001476   003000 060500                    CSL     bolr='003'O
         5 001477   000005 200001                    BDSC    5,,PR0                   by=1,bit=0,n=1
         5 001500   000105 000001 2                  BDSC    FKA_ALTKEY_BFR+5         by=0,bit=0,n=1

      609     8080    3                 FKA_ALTKEY_BFR.DELF=CCBUF.DELF;

   8080  5 001501   003000 060500                    CSL     bolr='003'O
         5 001502   000005 210001                    BDSC    5,,PR0                   by=1,bit=1,n=1
         5 001503   000105 010001 2                  BDSC    FKA_ALTKEY_BFR+5         by=0,bit=1,n=1

      610     8081    3                 FKA_M$CLOSE_ERR=CCBUF.CLOSERR;

   8081  5 001504   000000 100500                    MLR     fill='000'O
         5 001505   000004 200004                    ADSC9   4,,PR0                   cn=1,n=4
         5 001506   000000 000004 xsym               ADSC9   FKA_M$CLOSE_ERR          cn=0,n=4

      611     8082    3                 CALL M$RELSTARF(FPT_RELSTARF) ALTRET(MERR);

   8082  5 001507   000110 630400 1                  EPPR0   FPT_RELSTARF
         5 001510   460010 713400                    CLIMB   alt,+24584
         5 001511   400400 401760                    pmme    nvectors=2
         5 001512   001534 702000 5                  TSX2    MERR

      612     8083    3                 FKA_FILE_OPEN=%YES#;

   8083  5 001513   400000 236003                    LDQ     -131072,DU
         5 001514   000000 756000 xsym               STQ     FKA_FILE_OPEN

      613     8084    3                 END;                      /* MONITOR CLOSE                      */

   8084  5 001515   001532 710000 5                  TRA     s:8094

PL6.E3A0      #002=FKA$ALTKEY File=FKA$ALTKEY.:E05TSI                            TUE 07/29/97 15:31 Page:105
      614     8085    2              ELSE
      615     8086    3              DO;                          /* USER REBUILD                       */

      616     8087    3                 FKA_ALTKEY_BFR.DCB#=DCBNUM(M$SI);

   8087  5 001516   000000 236007 xsym               LDQ     M$SI,DL
         5 001517   000100 756000 2                  STQ     FKA_ALTKEY_BFR

      617     8088    3                 FKA_ALTKEY_BFR.RELG='0'B;

   8088  5 001520   000031 236000 xsym               LDQ     B_VECTNIL+25
         5 001521   000105 356000 2                  ANSQ    FKA_ALTKEY_BFR+5

      618     8089    3                 FKA_ALTKEY_BFR.DELF='0'B;

   8089  5 001522   000004 236000 6                  LDQ     4
         5 001523   000105 356000 2                  ANSQ    FKA_ALTKEY_BFR+5

      619     8090    3                 CALL M$OPEN(OPENSI) ALTRET(MERR);

   8090  5 001524   000000 630400 1                  EPPR0   OPENSI
         5 001525   450000 713400                    CLIMB   alt,open
         5 001526   410400 401760                    pmme    nvectors=18
         5 001527   001534 702000 5                  TSX2    MERR

      620     8091    3                 FKA_FILE_OPEN=%YES#;

   8091  5 001530   400000 236003                    LDQ     -131072,DU
         5 001531   000000 756000 xsym               STQ     FKA_FILE_OPEN

      621     8092    3                 END;                      /* USER REBUILD                       */

      622     8093
      623     8094    2              RETURN;

   8094  5 001532   200016 221300                    LDX1  ! CLOSERR+3,,AUTO
         5 001533   000001 702211                    TSX2  ! 1,X1
PL6.E3A0      #002=FKA$ALTKEY File=FKA$ALTKEY.:E05TSI                            TUE 07/29/97 15:31 Page:106

      624     8095    2   MERR:      ALTRETURN;

   8095  5 001534   200016 221300       MERR         LDX1  ! CLOSERR+3,,AUTO
         5 001535   000000 702211                    TSX2  ! 0,X1

      625     8096    2      END OPEN;
      626     8097         %EJECT;
PL6.E3A0      #002=FKA$ALTKEY File=FKA$ALTKEY.:E05TSI                            TUE 07/29/97 15:31 Page:107
      627     8098        /*I*     NAME:     SET_LEN
      628     8099                 PURPOSE:  To get the length of a field
      629     8100                 DESCRIPTION:
      630     8101
      631     8102                      The length can be stored as either bits, nibbles, or
      632     8103                 bytes.  Get the value from the appropriate place, and do
      633     8104                 the appropriate arithmatic to get it to bytes.
      634     8105        */
      635     8106         %EJECT;
PL6.E3A0      #002=FKA$ALTKEY File=FKA$ALTKEY.:E05TSI                            TUE 07/29/97 15:31 Page:108
      636     8107    1   SET_LEN:   PROC;

   8107  5 001536   200024 741300       SET_LEN      STX1  ! J,,AUTO

      637     8108        /* */
      638     8109    3              DO CASE(RECFIELD.FIELD.TYPE#(FIELD));

   8109  5 001537   200010 236100                    LDQ     FIELD,,AUTO
         5 001540   000003 402007                    MPY     3,DL
         5 001541   000000 116003                    CMPQ    0,DU
         5 001542   001544 605000 5                  TPL     s:8109+5
         5 001543   000006 036003                    ADLQ    6,DU
         5 001544   000000 470400 xsym               LDP0    FKA_RECFIELD$
         5 001545   000100 101506                    MRL     fill='000'O
         5 001546   000001 020001                    ADSC6   1,Q,PR0                  cn=0,n=1
         5 001547   200034 020003                    ADSC6   EVEN+2,,AUTO             cn=0,n=3
         5 001550   200034 220100                    LDX0    EVEN+2,,AUTO
         5 001551   000072 100003                    CMPX0   58,DU
         5 001552   001554 602010 5                  TNC     s:8109+13,X0
         5 001553   001710 710000 5                  TRA     s:8123
         5 001554   001710 710000 5                  TRA     s:8123
         5 001555   001674 710000 5                  TRA     s:8120
         5 001556   001710 710000 5                  TRA     s:8123
         5 001557   001710 710000 5                  TRA     s:8123
         5 001560   001710 710000 5                  TRA     s:8123
         5 001561   001710 710000 5                  TRA     s:8123
         5 001562   001710 710000 5                  TRA     s:8123
         5 001563   001710 710000 5                  TRA     s:8123
         5 001564   001710 710000 5                  TRA     s:8123
         5 001565   001646 710000 5                  TRA     s:8113
         5 001566   001646 710000 5                  TRA     s:8113
         5 001567   001710 710000 5                  TRA     s:8123
         5 001570   001710 710000 5                  TRA     s:8123
         5 001571   001710 710000 5                  TRA     s:8123
         5 001572   001710 710000 5                  TRA     s:8123
         5 001573   001710 710000 5                  TRA     s:8123
         5 001574   001710 710000 5                  TRA     s:8123
PL6.E3A0      #002=FKA$ALTKEY File=FKA$ALTKEY.:E05TSI                            TUE 07/29/97 15:31 Page:109
         5 001575   001710 710000 5                  TRA     s:8123
         5 001576   001710 710000 5                  TRA     s:8123
         5 001577   001710 710000 5                  TRA     s:8123
         5 001600   001710 710000 5                  TRA     s:8123
         5 001601   001710 710000 5                  TRA     s:8123
         5 001602   001710 710000 5                  TRA     s:8123
         5 001603   001710 710000 5                  TRA     s:8123
         5 001604   001674 710000 5                  TRA     s:8120
         5 001605   001646 710000 5                  TRA     s:8113
         5 001606   001710 710000 5                  TRA     s:8123
         5 001607   001710 710000 5                  TRA     s:8123
         5 001610   001710 710000 5                  TRA     s:8123
         5 001611   001710 710000 5                  TRA     s:8123
         5 001612   001710 710000 5                  TRA     s:8123
         5 001613   001646 710000 5                  TRA     s:8113
         5 001614   001710 710000 5                  TRA     s:8123
         5 001615   001710 710000 5                  TRA     s:8123
         5 001616   001710 710000 5                  TRA     s:8123
         5 001617   001710 710000 5                  TRA     s:8123
         5 001620   001710 710000 5                  TRA     s:8123
         5 001621   001710 710000 5                  TRA     s:8123
         5 001622   001710 710000 5                  TRA     s:8123
         5 001623   001710 710000 5                  TRA     s:8123
         5 001624   001646 710000 5                  TRA     s:8113
         5 001625   001663 710000 5                  TRA     s:8117
         5 001626   001663 710000 5                  TRA     s:8117
         5 001627   001663 710000 5                  TRA     s:8117
         5 001630   001663 710000 5                  TRA     s:8117
         5 001631   001663 710000 5                  TRA     s:8117
         5 001632   001710 710000 5                  TRA     s:8123
         5 001633   001710 710000 5                  TRA     s:8123
         5 001634   001710 710000 5                  TRA     s:8123
         5 001635   001710 710000 5                  TRA     s:8123
         5 001636   001663 710000 5                  TRA     s:8117
         5 001637   001646 710000 5                  TRA     s:8113
         5 001640   001710 710000 5                  TRA     s:8123
         5 001641   001710 710000 5                  TRA     s:8123
PL6.E3A0      #002=FKA$ALTKEY File=FKA$ALTKEY.:E05TSI                            TUE 07/29/97 15:31 Page:110
         5 001642   001646 710000 5                  TRA     s:8113
         5 001643   001674 710000 5                  TRA     s:8120
         5 001644   001710 710000 5                  TRA     s:8123
         5 001645   001646 710000 5                  TRA     s:8113

      639     8110    3                 CASE(%PDLA_DATATYPE, %PDTA_DATATYPE, %PDNS_DATATYPE,

      640     8111    3                  %PDTE_DATATYPE, %PDFLT_DATATYPE, %PDLE_DATATYPE,
      641     8112    3                  %DATE_DATATYPE, %TIME_DATATYPE);
      642     8113    3                    LEN=(RECFIELD.DECFIELD.LEN#(FIELD)+1)/2;

   8113  5 001646   200010 236100                    LDQ     FIELD,,AUTO
         5 001647   000003 402007                    MPY     3,DL
         5 001650   000000 116003                    CMPQ    0,DU
         5 001651   001653 605000 5                  TPL     s:8113+5
         5 001652   000006 036003                    ADLQ    6,DU
         5 001653   000100 101506                    MRL     fill='000'O
         5 001654   000001 120001                    ADSC6   1,Q,PR0                  cn=1,n=1
         5 001655   200034 020006                    ADSC6   EVEN+2,,AUTO             cn=0,n=6
         5 001656   200034 236100                    LDQ     EVEN+2,,AUTO
         5 001657   000001 036007                    ADLQ    1,DL
         5 001660   000001 772000                    QRL     1
         5 001661   200005 756100                    STQ     LEN,,AUTO
         5 001662   001720 710000 5                  TRA     s:8127

      643     8114
      644     8115    3                 CASE(%UDLS_DATATYPE, %UDTS_DATATYPE, %UDNS_DATATYPE,

      645     8116    3                        %UDLO_DATATYPE, %UDTO_DATATYPE, %UDFLT_DATATYPE);
      646     8117    3                    LEN=RECFIELD.DECFIELD.LEN#(FIELD);

   8117  5 001663   200010 236100                    LDQ     FIELD,,AUTO
         5 001664   000003 402007                    MPY     3,DL
         5 001665   000000 116003                    CMPQ    0,DU
         5 001666   001670 605000 5                  TPL     s:8117+5
         5 001667   000006 036003                    ADLQ    6,DU
         5 001670   000100 101506                    MRL     fill='000'O
PL6.E3A0      #002=FKA$ALTKEY File=FKA$ALTKEY.:E05TSI                            TUE 07/29/97 15:31 Page:111
         5 001671   000001 120001                    ADSC6   1,Q,PR0                  cn=1,n=1
         5 001672   200005 020006                    ADSC6   LEN,,AUTO                cn=0,n=6
         5 001673   001720 710000 5                  TRA     s:8127

      647     8118
      648     8119    3                 CASE(%SBIN_DATATYPE, %UBIN_DATATYPE, %UTS_DATATYPE);

      649     8120    3                    LEN=RECFIELD.FIELD.LEN#(FIELD)/9;

   8120  5 001674   200010 236100                    LDQ     FIELD,,AUTO
         5 001675   000003 402007                    MPY     3,DL
         5 001676   000000 116003                    CMPQ    0,DU
         5 001677   001701 605000 5                  TPL     s:8120+5
         5 001700   000006 036003                    ADLQ    6,DU
         5 001701   000100 101506                    MRL     fill='000'O
         5 001702   000001 120002                    ADSC6   1,Q,PR0                  cn=1,n=2
         5 001703   200034 020006                    ADSC6   EVEN+2,,AUTO             cn=0,n=6
         5 001704   200034 236100                    LDQ     EVEN+2,,AUTO
         5 001705   000011 506007                    DIV     9,DL
         5 001706   200005 756100                    STQ     LEN,,AUTO
         5 001707   001720 710000 5                  TRA     s:8127

      650     8121
      651     8122    3                 CASE(ELSE);

      652     8123    3                    LEN=RECFIELD.FIELD.LEN#(FIELD);

   8123  5 001710   200010 236100                    LDQ     FIELD,,AUTO
         5 001711   000003 402007                    MPY     3,DL
         5 001712   000000 116003                    CMPQ    0,DU
         5 001713   001715 605000 5                  TPL     s:8123+5
         5 001714   000006 036003                    ADLQ    6,DU
         5 001715   000100 101506                    MRL     fill='000'O
         5 001716   000001 120002                    ADSC6   1,Q,PR0                  cn=1,n=2
         5 001717   200005 020006                    ADSC6   LEN,,AUTO                cn=0,n=6

      653     8124
PL6.E3A0      #002=FKA$ALTKEY File=FKA$ALTKEY.:E05TSI                            TUE 07/29/97 15:31 Page:112
      654     8125    3                 END;                      /* CASE                               */

      655     8126
      656     8127    2              RETURN;

   8127  5 001720   000001 702211                    TSX2  ! 1,X1

      657     8128    2      END SET_LEN;
      658     8129    1   END FKA$ALTKEY;

   8129  5 001721   000000 702200 xent               TSX2  ! X66_MARET
      659     8130         %EOD;

PL6.E3A0      #002=FKA$ALTKEY File=FKA$ALTKEY.:E05TSI                            TUE 07/29/97 15:31 Page:113
--  Include file information  --

   B_ERRORS_C.:E05TOU  is referenced.
   B$OBJECT_C.:E05TOU  is referenced.
   FM_FIELD_C.:E05TOU  is referenced.
   B$JIT.:E05TOU  cannot be made into a system file and is referenced.
   ZL_MACRO_C.:TOOLE04  is referenced.
   FK_DATA_C.:E05TOU  is referenced.
   FKA_DATA_R.:E05TOU  cannot be made into a system file and is referenced.
   FK_PERR_C.:E05TOU  is referenced.
   FM$GRAN.:E05TOU  is referenced.
   FM$FIT.:E05TOU  is referenced.
   CP_6_SUBS.:E05TOU  is referenced.
   CP_6.:E05TOU  cannot be made into a system file and is referenced.
   B$JIT_C.:E05TOU  was found in the system file and is referenced.
   CP_6_C.:E05TOU  was found in the system file and is referenced.
      No diagnostics issued in procedure FKA$ALTKEY.
PL6.E3A0      #002=FKA$ALTKEY File=FKA$ALTKEY.:E05TSI                            TUE 07/29/97 15:31 Page:114

 **** Variables and constants ****

  ****  Section 001 RoData FKA$ALTKEY

  ****  Scalars and arrays  ****
OctLoc.c.b A Datatyp(siz) R M Lvl/name                 OctLoc.c.b A Datatyp(siz) R M Lvl/name

   202-0-0/w STRC        r     1 ERR_DUPS                 201-0-0/w STRC        r     1 ERR_NOALTINDX
   142-0-0/d STRC(504)   r     1 FPT_CMDVAR               130-0-0/d STRC(144)   r     1 FPT_INT
   110-0-0/d STRC(144)   r     1 FPT_RELSTARF             114-0-0/d STRC(216)   r     1 FPT_XCON
   134-0-0/d STRC(216)   r     1 FPT_XXX                    0-0-0/d STRC(2088)  r     1 OPENSI
    72-0-0/d STRC(504)   r     1 READ_INDEX               122-0-0/d STRC(216)   r     1 RESET_XCON
   160-0-0/d STRC(504)   r     1 SET_SILENT               203-0-0/c STRC(63)    r     1 SILENT
   176-0-0/c STRC(90)    r     1 VLP_NAME

  ****  Section 002  Data  FKA$ALTKEY

  ****  Scalars and arrays  ****
OctLoc.c.b A Datatyp(siz) R M Lvl/name                 OctLoc.c.b A Datatyp(siz) R M Lvl/name

  2162-0-0/w UBIN        r     1 DCB#                    2161-0-0/b BIT         r     1 ERRCODE
   100-0-0/d STRC(37080) r     1 FKA_ALTKEY_BFR             2-0-0/d STRC(2088)  r     1 FPT_COLLATE
     0-0-0/d STRC(72)    r     1 FPT_GDDL                2106-0-0/w STRC(1296)  r     1 SORT_TABLE
    74-0-0/d STRC(108)   r     1 VLP_GDDL                2152-0-0/w STRC(180)   r     1 ZL_KEYS

  ****  Auto variables  ****

  ****  Scalars and arrays  ****
OctLoc.c.b A Datatyp(siz) R M Lvl/name                 OctLoc.c.b A Datatyp(siz) R M Lvl/name

    31-0-0/w PTR         r     1 @ALIGN_TYPE               27-0-0/w PTR         r     1 @K
    *0-0-0/w UBIN        r     1 ALIGN_TYPE                12-0-0/w PTR         r     1 CCBUF$
    13-0-0/w STRC(72)    r     1 CLOSERR                   32-0-0/w UBIN        r     1 EVEN
    10-0-0/w SBIN        r     1 FIELD                      3-0-0/w SBIN        r     1 I
    23-0-0/w UBIN        r     1 I                         17-0-0/w SBIN        r     1 I
    24-0-0/w UBIN        r     1 J                         *0-0-0/w UBIN        r     1 K
     5-0-0/w SBIN        r     1 LEN                        4-0-0/w SBIN        r     1 MAX
PL6.E3A0      #002=FKA$ALTKEY File=FKA$ALTKEY.:E05TSI                            TUE 07/29/97 15:31 Page:115
     7-0-0/w SBIN        r     1 N                         25-0-0/w UBIN        r     1 REC_OFFSET
    11-0-0/w SBIN        r     1 TOTAL

  ****  SYMREF variables  ****

  ****  Scalars and arrays  ****
OctLoc.c.b A Datatyp(siz) R M Lvl/name                 OctLoc.c.b A Datatyp(siz) R M Lvl/name

     0-0-0/w PTR         r     1 B$JIT$                     0-0-0/w PTR         r     1 B$TCB$
     0-0-0/w PTR         r     1 FKA_ALTKEYS$               0-0-0/w SBIN        r     1 FKA_BOUND
     0-0-0/b BIT         r     1 FKA_CLOSE_DONE             0-0-0/c CHAR(512)   r     1 FKA_CMDVAR
     0-0-0/b BIT         r     1 FKA_CMDVAR_EXIST           0-0-0/b BIT         r     1 FKA_CMDVAR_SET
     0-0-0/w PTR         r     1 FKA_CODE19$                0-0-0/w PTR         r     1 FKA_CODE20$
     0-0-0/w PTR         r     1 FKA_DCB$                   0-0-0/b BIT         r     1 FKA_DUPS
     0-0-0/b BIT         r     1 FKA_FILE_OPEN              0-0-0/c CHAR(4096)  r     1 FKA_INDEX_BUF
     0-0-0/w PTR         r     1 FKA_INDEX_BUF$             0-0-0/w SBIN        r     1 FKA_INDEX_GRAN
     0-0-0/w PTR         r     1 FKA_IRKEYS$                0-0-0/w SBIN        r     1 FKA_KEYSIZE
     0-0-0/w PTR         r     1 FKA_KFIELD$                0-0-0/w PTR         r     1 FKA_KTPTR$
     0-0-0/w BIT         r     1 FKA_M$CLOSE_ERR            0-0-0/b BIT         r     1 FKA_MON
     0-0-0/w SBIN        r     1 FKA_NUMKEYS                0-0-0/w PTR         r     1 FKA_RECFIELD$
     0-0-0/w SBIN        r     1 FKA_RECSIZE                0-0-0/w PTR         r     1 FKA_START$
     0-0-0/b BIT         r     1 FKA_UNIQUE(0:100)

  ****  BASED and DCB variables  ****

  ****  Scalars and arrays  ****
OctLoc.c.b A Datatyp(siz) R M Lvl/name                 OctLoc.c.b A Datatyp(siz) R M Lvl/name

     0-0-0/w STRC(2448)  r     1 B$ALT                      0-0-0/d STRC(8856)  r     1 B$JIT
     0-0-0/w STRC(144)   r     1 B$TCB                      0-0-0/c STRC(207)   r     1 CCBUF
     0-0-0/w STRC(54)    r     1 CODE19                     0-0-0/w STRC(180)   r     1 CODE20
     0-0-0/d ASTR(3528)  r     1 F$DCB                      0-0-0N  NULL        r     1 F$SCRF1
     0-0-0/w STRC(72)    r     1 FIELD_START                0-0-0/w STRC(4572)  r     1 FITALTKEYS
     0-0-0/w STRC(180)   r     1 FM$GRAN
     0-0-0/w UBIN(9)     r     1 FM$KEYTBL(0:279)
     0-0-0/w UBIN        r     1 FM$KT(0:69)                0-0-0/w STRC(360)   r     1 IRKEYS
     0-0-0/w STRC(81)    r     1 KFIELD                     0-0-0N  NULL        r     1 M$SI
PL6.E3A0      #002=FKA$ALTKEY File=FKA$ALTKEY.:E05TSI                            TUE 07/29/97 15:31 Page:116
     0-0-0/d STRC(54)    r     1 RECFIELD


   Procedure FKA$ALTKEY requires 978 words for executable code.
   Procedure FKA$ALTKEY requires 34 words of local(AUTO) storage.
PL6.E3A0      #002=FKA$ALTKEY File=FKA$ALTKEY.:E05TSI                            TUE 07/29/97 15:31 Page:117
          *** CROSS REFERENCE LISTING ***
**     DENOTES     IDENTIFIER DEFINITION
<<                 IDENTIFIER'S VALUE SET
>>                 IDENTIFIER'S VALUE USED
<>                 IDENTIFIER SET AND/OR USED
--                 IDENTIFIER REFERENCED
PL6.E3A0      #002=FKA$ALTKEY File=FKA$ALTKEY.:E05TSI                            TUE 07/29/97 15:31 Page:118
          MINI XREF LISTING

ABORT
      7797**LABEL    7727--CALLALT  7731--CALLALT  7784--GOTO     7792--CALLALT  7793--GOTO
ALIGN_TYPE IN PROCEDURE SET_FIELD_START
      7902**DCL      7901--PROC     7906>>DOCASE
B$ALT.CODE
      7147**DCL      7147--REDEF    7148--REDEF    7148--REDEF
B$ALT.DCB#
      7148**DCL      7791>>ASSIGN   7796>>ASSIGN
B$ALT.ERR
      7148**DCL      7790>>ASSIGN   7795>>ASSIGN
B$ALT.ERR.ERR#
      7149**DCL      7149--REDEF
B$ALT.EVID
      7148**DCL      7148--REDEF    7148--REDEF
B$JIT.CCBUF
      1840**DCL      8076--ASSIGN
B$JIT.CPFLAGS1.SLEAZE
      1846**DCL      1846--REDEF
B$JIT.ERR.MID
      1753**DCL      1753--REDEF
B$JIT.JRESPEAK
      1914**DCL      1915--REDEF
B$JIT.ORIGINATOR_PORT.FROM_CR
      2023**DCL      2023--REDEF    2024--REDEF
B$JIT.PNR
      1927**DCL      1927--REDEF
B$JIT.PROG_ENTRY
      1902**DCL      7705>>IF
B$JIT.TSLINE
      2021**DCL      2022--REDEF
B$JIT$
      7157**DCL      1747--IMP-PTR  7705>>IF       8076>>ASSIGN
PL6.E3A0      #002=FKA$ALTKEY File=FKA$ALTKEY.:E05TSI                            TUE 07/29/97 15:31 Page:119
B$TCB.ALT$
      7143**DCL      7790>>ASSIGN   7791>>ASSIGN   7795>>ASSIGN   7796>>ASSIGN
B$TCB$
      7158**DCL      7790>>ASSIGN   7791>>ASSIGN   7795>>ASSIGN   7796>>ASSIGN
CCBUF.CFU$
      7330**DCL      8077>>ASSIGN
CCBUF.CLOSERR
      7334**DCL      8081>>ASSIGN
CCBUF.DELF
      7340**DCL      8080>>ASSIGN
CCBUF.RELG
      7338**DCL      8079>>ASSIGN
CCBUF.SETX
      7332**DCL      8078>>ASSIGN
CCBUF$
      7690**DCL      7325--IMP-PTR  8076<<ASSIGN   8077>>ASSIGN   8078>>ASSIGN   8079>>ASSIGN   8080>>ASSIGN
      8081>>ASSIGN
CLOSERR
      7692**DCL      7775<>CALL     7792<>CALL
CLOSERR.DCB#
      7695**DCL      7779>>ASSIGN
CLOSERR.ERR
      7693**DCL      7778>>ASSIGN
CLOSERR.TYPE
      7694**DCL      7776>>IF
CODE19.K.FIELDN
      7297**DCL      8030>>ASSIGN   8031>>ASSIGN
CODE19.K.KEYEND
      7297**DCL      8028>>DOUNTIL
CODE19.K.UNIQUE
      7297**DCL      8023>>ASSIGN   8024>>ASSIGN
CODE19.NKEYS
      7297**DCL      8017>>ASSIGN   8020>>DOINDEX  8041>>ASSIGN
CODE20.ALTBLD
      7300**DCL      7761<<ASSIGN
CODE20.K.DEGENERATE
PL6.E3A0      #002=FKA$ALTKEY File=FKA$ALTKEY.:E05TSI                            TUE 07/29/97 15:31 Page:120
      7301**DCL      8027>>ASSIGN
CODE20.K.FDA
      7301**DCL      8025>>ASSIGN
CODE20.K.LDA
      7301**DCL      8026>>ASSIGN
CODE20.UNIQUEBLD
      7300**DCL      7762<<ASSIGN
DCB#
      7681**DCL      7772<<ASSIGN   7779<<ASSIGN   7791<<ASSIGN   7796<<ASSIGN   7798<>CALL
ERRCODE
      7680**DCL      6845--DCLINIT  7768<<ASSIGN   7771<<ASSIGN   7778<<ASSIGN   7783>>IF       7790<<ASSIGN
      7795<<ASSIGN   7798<>CALL     7957<<ASSIGN   8002<<ASSIGN
ERR_DUPS
      7109**DCL      7771>>ASSIGN
ERR_NOALTINDX
      7062**DCL      7957>>ASSIGN   8002>>ASSIGN
EVEN IN PROCEDURE SET_FIELD_START
      7903**DCL      7912<<ASSIGN   7913>>IF       7913>>IF       7914>>ASSIGN   7915>>IF       7916>>ASSIGN
F$DCB.ACTPOS
      7193**DCL      7193--REDEF
F$DCB.ARS#
      7167**DCL      7167--REDEF
F$DCB.ATTR
      7186**DCL      7187--REDEF
F$DCB.BORROW
      7201**DCL      7201--REDEF    7201--REDEF    7201--REDEF
F$DCB.DCBNAME.L
      7215**DCL      7215--IMP-SIZ
F$DCB.EOMCHAR#
      7171**DCL      7171--REDEF
F$DCB.FLDID
      7196**DCL      7196--REDEF
F$DCB.FORM$
      7190**DCL      7190--REDEF
F$DCB.FSECT
      7206**DCL      7206--REDEF
PL6.E3A0      #002=FKA$ALTKEY File=FKA$ALTKEY.:E05TSI                            TUE 07/29/97 15:31 Page:121
F$DCB.FSN#
      7183**DCL      7183--REDEF    7183--REDEF    7184--REDEF
F$DCB.HEADER$
      7189**DCL      7189--REDEF
F$DCB.IXTNSIZE#
      7187**DCL      7187--REDEF
F$DCB.LASTSTA$
      7176**DCL      7176--REDEF
F$DCB.LVL
      7202**DCL      7202--REDEF
F$DCB.NAME#.C
      7177**DCL      7177--REDEF
F$DCB.NOEOF
      7199**DCL      7199--REDEF
F$DCB.NRECS#
      7188**DCL      7188--REDEF
F$DCB.NRECX
      7207**DCL      7207--REDEF
F$DCB.OHDR
      7199**DCL      7199--REDEF
F$DCB.ORG#
      7182**DCL      7182--REDEF    7725>>IF       7751>>IF
F$DCB.PRECNO
      7205**DCL      7205--REDEF
F$DCB.RCSZ
      7211**DCL      7211--REDEF
F$DCB.RES#
      7178**DCL      7178--REDEF
F$DCB.SETX
      7190**DCL      7190--REDEF
F$DCB.TAB$
      7190**DCL      7190--REDEF
F$DCB.TDA
      7204**DCL      7205--REDEF
F$DCB.WSN#
      7178**DCL      7178--REDEF
PL6.E3A0      #002=FKA$ALTKEY File=FKA$ALTKEY.:E05TSI                            TUE 07/29/97 15:31 Page:122
FIELD
      7688**DCL      8031<<ASSIGN   8109>>DOCASE   8113>>ASSIGN   8117>>ASSIGN   8120>>ASSIGN   8123>>ASSIGN
FIELD_START.NWORDS
      7288**DCL      7820<<ASSIGN
FIELD_START.OFFSET
      7290**DCL      7830<<ASSIGN   7830>>ASSIGN   7834<<ASSIGN   7834>>ASSIGN   7839<<ASSIGN   7839>>ASSIGN
      7840>>ASSIGN   7923<<ASSIGN
FIELD_START IN PROCEDURE FIELD_START_SETUP
      7853**PROC     7829--CALL     7832--CALL     7838--CALL     7844--CALL
FIELD_START_SETUP
      7811**PROC     7989--CALL
FITALTKEYS.ALTBLD
      7225**DCL      7753<<ASSIGN
FITALTKEYS.K.DUPKEY
      7227**DCL      7948<<ASSIGN
FITALTKEYS.K.KEYL
      7226**DCL      7950>>IF       7951>>ASSIGN
FITALTKEYS.K.UNIQUE
      7227**DCL      7756<<ASSIGN   7949>>ASSIGN
FITALTKEYS.NUMENTS
      7225**DCL      7755>>DOINDEX  7947>>DOINDEX  7954>>ASSIGN
FITALTKEYS.UNIQUEBLD
      7225**DCL      7754<<ASSIGN
FKA$BREAK
      7672**DCL-ENT  6831--DCLINIT
FKA$CLOSE
      7670**DCL-ENT  7775--CALL     7792--CALL
FKA$COMP
      7669**DCL-ENT  7992--ASSIGN
FKA$INPUT
      7667**DCL-ENT  7525--DCLINIT
FKA$OUTPUT
      7668**DCL-ENT  7527--DCLINIT
FKA$XCON
      7671**DCL-ENT  6804--DCLINIT
FKA_ALTKEYS$
PL6.E3A0      #002=FKA$ALTKEY File=FKA$ALTKEY.:E05TSI                            TUE 07/29/97 15:31 Page:123
      1003**DCL      7225--IMP-PTR  7753>>ASSIGN   7754>>ASSIGN   7755>>DOINDEX  7756>>ASSIGN   7942<<ASSIGN
      7944<>CALL     7947>>DOINDEX  7948>>ASSIGN   7949>>ASSIGN   7950>>IF       7951>>ASSIGN   7954>>ASSIGN
FKA_ALTKEY_BFR
      7305**DCL      6789--DCLINIT
FKA_ALTKEY_BFR.CFU$
      7308**DCL      8077<<ASSIGN
FKA_ALTKEY_BFR.CODE
      7310**DCL      8074<<ASSIGN
FKA_ALTKEY_BFR.DCB#
      7306**DCL      8075<<ASSIGN   8087<<ASSIGN
FKA_ALTKEY_BFR.DELF
      7318**DCL      8080<<ASSIGN   8089<<ASSIGN
FKA_ALTKEY_BFR.FPARAM
      7321**DCL      6698--DCLINIT  7942--ASSIGN   7977--ASSIGN   7981--ASSIGN   7985--ASSIGN
FKA_ALTKEY_BFR.RELG
      7316**DCL      8079<<ASSIGN   8088<<ASSIGN
FKA_ALTKEY_BFR.SETX
      7314**DCL      8078<<ASSIGN
FKA_BOUND
      1006**DCL      7747<<ASSIGN
FKA_CLOSE_DONE
      1010**DCL      7701<<ASSIGN
FKA_CMDVAR
      1009**DCL      6862--DCLINIT
FKA_CMDVAR_EXIST
      1009**DCL      7711<<ASSIGN   7714<<ASSIGN
FKA_CMDVAR_SET
      1009**DCL      7700<<ASSIGN   7717<<ASSIGN
FKA_CODE19$
      1005**DCL      7297--IMP-PTR  7981<<ASSIGN   7983<>CALL     8017>>ASSIGN   8020>>DOINDEX  8023>>ASSIGN
      8024>>ASSIGN   8028>>DOUNTIL  8030>>ASSIGN   8031>>ASSIGN   8041>>ASSIGN
FKA_CODE20$
      1005**DCL      7300--IMP-PTR  7761>>ASSIGN   7762>>ASSIGN   7985<<ASSIGN   7987<>CALL     8025>>ASSIGN
      8026>>ASSIGN   8027>>ASSIGN
FKA_DCB$
      1006**DCL      7161--IMP-PTR  7722<<ASSIGN   7725>>IF       7751>>IF
PL6.E3A0      #002=FKA$ALTKEY File=FKA$ALTKEY.:E05TSI                            TUE 07/29/97 15:31 Page:124
FKA_DUPS
      1007**DCL      7769>>IF       7776>>IF
FKA_FILE_OPEN
      1009**DCL      7699<<ASSIGN   8083<<ASSIGN   8091<<ASSIGN
FKA_INDEX_BUF
      1007**DCL      6757--DCLINIT  6758--DCLINIT
FKA_INDEX_BUF$
      1008**DCL      7218--IMP-PTR  7746>>ASSIGN   7746>>ASSIGN
FKA_INDEX_GRAN
      1006**DCL      6755--DCLINIT  6756--DCLINIT  7743<<ASSIGN
FKA_IRKEYS$
      1004**DCL      7347--IMP-PTR  7763>>DOINDEX  7764>>ASSIGN   7995>>IF       8017>>ASSIGN   8022>>ASSIGN
      8023>>ASSIGN   8025>>ASSIGN   8026>>ASSIGN   8027>>ASSIGN   8029>>ASSIGN   8029>>ASSIGN   8036>>ASSIGN
FKA_KEYSIZE
      1007**DCL      7737<<ASSIGN
FKA_KFIELD$
      1005**DCL      7354--IMP-PTR  8030>>ASSIGN
FKA_KTPTR$
      1006**DCL      7222--IMP-PTR  7222--IMP-PTR  7746<<ASSIGN   7747>>ASSIGN
FKA_M$CLOSE_ERR
      1010**DCL      7702<<ASSIGN   8081<<ASSIGN
FKA_MON
      1003**DCL      7706<<ASSIGN   7708<<ASSIGN   7797>>IF       8072>>IF
FKA_NUMKEYS
      1007**DCL      7954<<ASSIGN   7994>>DOINDEX  8041<<ASSIGN
FKA_RECFIELD$
      1003**DCL      7242--IMP-PTR  7820>>ASSIGN   7824>>DOWHILE  7826>>DOCASE   7831>>DOINDEX  7857>>DOCASE
      7861>>ASSIGN   7865>>ASSIGN   7878>>ASSIGN   7879>>IF       7895>>ASSIGN   7977<<ASSIGN   7979<>CALL
      8109>>DOCASE   8113>>ASSIGN   8117>>ASSIGN   8120>>ASSIGN   8123>>ASSIGN
FKA_RECSIZE
      1007**DCL      7738<<ASSIGN   7739>>ASSIGN
FKA_START$
      1003**DCL      7287--IMP-PTR  7820>>ASSIGN   7830>>ASSIGN   7830>>ASSIGN   7834>>ASSIGN   7834>>ASSIGN
      7839>>ASSIGN   7839>>ASSIGN   7840>>ASSIGN   7923>>ASSIGN
FKA_UNIQUE
      1003**DCL      7756>>ASSIGN   7764>>ASSIGN   7949<<ASSIGN   8024<<ASSIGN
PL6.E3A0      #002=FKA$ALTKEY File=FKA$ALTKEY.:E05TSI                            TUE 07/29/97 15:31 Page:125
FM$GRAN.FCEX
      7219**DCL      7746>>ASSIGN
FM$KEYTBL
      7222**DCL      7747>>ASSIGN
FM$KT
      7222**DCL      7222--REDEF
FPT_CMDVAR
      6861**DCL      7710<>CALL
FPT_CMDVAR.V
      6863**DCL      6861--DCLINIT
FPT_COLLATE
      6964**DCL      7659--DCLINIT
FPT_COLLATE.ACSVEH_
      6966**DCL      6967--REDEF
FPT_COLLATE.ALTKEYS_
      6972**DCL      6973--REDEF    6973--REDEF
FPT_COLLATE.HDR_
      6971**DCL      6972--REDEF
FPT_COLLATE.TAB_
      6970**DCL      6971--REDEF
FPT_COLLATE.UHL_
      6964**DCL      6965--REDEF    6965--REDEF
FPT_COLLATE.V
      6973**DCL      6964--DCLINIT
FPT_COLLATE.V.FSN#
      7004**DCL      7004--REDEF    7004--REDEF
FPT_COLLATE.WSN_
      6970**DCL      6970--REDEF
FPT_GDDL
      6896**DCL      7734<>CALL
FPT_INT
      6831**DCL      7720<>CALL
FPT_INT.V
      6831**DCL      6831--DCLINIT
FPT_RELSTARF
      6788**DCL      8082<>CALL
PL6.E3A0      #002=FKA$ALTKEY File=FKA$ALTKEY.:E05TSI                            TUE 07/29/97 15:31 Page:126
FPT_XCON
      6803**DCL      7719<>CALL
FPT_XCON.V
      6804**DCL      6803--DCLINIT
FPT_XXX
      6845**DCL      7801<>CALL
FPT_XXX.V
      6845**DCL      6845--DCLINIT
FPT_XXX.V.STEPCC#
      6846**DCL      6846--REDEF
I
      7683**DCL      7755<<DOINDEX  7756>>ASSIGN   7756>>ASSIGN   7763<<DOINDEX  7764>>ASSIGN   7764>>ASSIGN
      7943<<ASSIGN   7944<>CALL     7947<<DOINDEX  7948>>ASSIGN   7949>>ASSIGN   7949>>ASSIGN   7950>>IF
      7951>>ASSIGN   8020<<DOINDEX  8022>>ASSIGN   8023>>ASSIGN   8023>>ASSIGN   8024>>ASSIGN   8024>>ASSIGN
      8025>>ASSIGN   8025>>ASSIGN   8026>>ASSIGN   8026>>ASSIGN   8027>>ASSIGN   8027>>ASSIGN   8029>>ASSIGN
      8029>>ASSIGN   8036>>ASSIGN
I IN PROCEDURE FIELD_START_SETUP
      7813**DCL      7822<<ASSIGN   7824>>DOWHILE  7826>>DOCASE   7829>>CALL     7830>>ASSIGN   7830>>ASSIGN
      7831>>DOINDEX  7832>>CALL     7834>>ASSIGN   7834>>ASSIGN   7835<<ASSIGN   7835>>ASSIGN   7838>>CALL
      7839>>ASSIGN   7839>>ASSIGN   7840>>ASSIGN   7841<<ASSIGN   7841>>ASSIGN   7844<>CALL     7848<<ASSIGN
      7848>>ASSIGN
I IN PROCEDURE IREL_SETUP
      7973**DCL      7978<<ASSIGN   7979<>CALL     7982<<ASSIGN   7983<>CALL     7986<<ASSIGN   7987<>CALL
      7994<<DOINDEX  7995>>IF
INDEXED_SETUP
      7940**PROC     7727--CALL
IREL_SETUP
      7972**PROC     7731--CALL
IRKEYS.K.DEGENERATE
      7349**DCL      7995>>IF       8027<<ASSIGN
IRKEYS.K.FDA
      7350**DCL      8025<<ASSIGN
IRKEYS.K.FIRSTFIELD
      7348**DCL      8022<<ASSIGN
IRKEYS.K.KEYL
      7348**DCL      8036<<ASSIGN
PL6.E3A0      #002=FKA$ALTKEY File=FKA$ALTKEY.:E05TSI                            TUE 07/29/97 15:31 Page:127
IRKEYS.K.LDA
      7351**DCL      8026<<ASSIGN
IRKEYS.K.NFIELDS
      7348**DCL      8029<<ASSIGN   8029>>ASSIGN
IRKEYS.K.UNIQUE
      7349**DCL      7764<<ASSIGN   8023<<ASSIGN
IRKEYS.NKEYS
      7347**DCL      7763>>DOINDEX  8017<<ASSIGN
IRSETUP
      8015**PROC     7990--CALL
J IN PROCEDURE FIELD_START_SETUP
      7814**DCL      7831<<DOINDEX
K IN PROCEDURE FIELD_START
      7854**DCL      7853--PROC     7857>>DOCASE   7861>>ASSIGN   7865>>ASSIGN   7878>>ASSIGN   7879>>IF
      7895>>ASSIGN   7923>>ASSIGN
KFIELD.FIELD
      7354**DCL      8030<<ASSIGN
LEN
      7685**DCL      8033>>ASSIGN   8113<<ASSIGN   8117<<ASSIGN   8120<<ASSIGN   8123<<ASSIGN
M$CMDVAR
       153**DCL-ENT  7710--CALL     7716--CALL
M$EXIT
        96**DCL-ENT  7787--CALL
M$GDDL
       121**DCL-ENT  7734--CALL
M$INT
       139**DCL-ENT  7720--CALL
M$OPEN
        84**DCL-ENT  8090--CALL
M$READ
        85**DCL-ENT  7744--CALL
M$RELSTARF
        93**DCL-ENT  8082--CALL
M$SI
      7154**DCL      7722--ASSIGN   7772>>ASSIGN   8075>>ASSIGN   8087>>ASSIGN
M$XCON
PL6.E3A0      #002=FKA$ALTKEY File=FKA$ALTKEY.:E05TSI                            TUE 07/29/97 15:31 Page:128
       139**DCL-ENT  7719--CALL     7786--CALL     7800--CALL
M$XXX
        96**DCL-ENT  7801--CALL
MAX
      7684**DCL      7737>>ASSIGN   7738>>ASSIGN   7741>>ASSIGN   7946<<ASSIGN   7950>>IF       7951<<ASSIGN
      8019<<ASSIGN   8037>>IF       8038<<ASSIGN
MERR
      7795**LABEL    7716--CALLALT  7723--CALLALT  7734--CALLALT  7744--CALLALT
MERR IN PROCEDURE OPEN
      8095**LABEL    8082--CALLALT  8090--CALLALT
N
      7687**DCL      8018<<ASSIGN   8022>>ASSIGN   8028>>DOUNTIL  8030>>ASSIGN   8030>>ASSIGN   8031>>ASSIGN
      8034<<ASSIGN   8034>>ASSIGN
NOALT IN PROCEDURE INDEXED_SETUP
      7957**LABEL    7944--CALLALT
NOALT IN PROCEDURE IREL_SETUP
      8002**LABEL    7979--CALLALT  7983--CALLALT  7987--CALLALT
NONE
      7714**LABEL    7710--CALLALT
OPEN
      8070**PROC     7723--CALL
OPENSI
      6693**DCL      8090<>CALL
OPENSI.ACSVEH_
      6695**DCL      6696--REDEF
OPENSI.ALTKEYS_
      6701**DCL      6702--REDEF    6702--REDEF
OPENSI.HDR_
      6700**DCL      6701--REDEF
OPENSI.TAB_
      6699**DCL      6700--REDEF
OPENSI.UHL_
      6693**DCL      6694--REDEF    6694--REDEF
OPENSI.V
      6702**DCL      6693--DCLINIT
OPENSI.V.FSN#
PL6.E3A0      #002=FKA$ALTKEY File=FKA$ALTKEY.:E05TSI                            TUE 07/29/97 15:31 Page:129
      6733**DCL      6733--REDEF    6733--REDEF
OPENSI.WSN_
      6699**DCL      6699--REDEF
READ_INDEX
      6755**DCL      7744<>CALL
READ_INDEX.STATION_
      6758**DCL      6759--REDEF
READ_INDEX.V
      6759**DCL      6755--DCLINIT
READ_INDEX.V.DVBYTE.REREAD#
      6770**DCL      6770--REDEF
READ_INDEX.V.INDX#
      6768**DCL      6768--REDEF
RECFIELD.DECFIELD.LEN#
      7251**DCL      7878>>ASSIGN   7879>>IF       7895>>ASSIGN   8113>>ASSIGN   8117>>ASSIGN
RECFIELD.FIELD
      7250**DCL      7250--REDEF
RECFIELD.FIELD.LEN#
      7250**DCL      7831>>DOINDEX  7861>>ASSIGN   7865>>ASSIGN   8120>>ASSIGN   8123>>ASSIGN
RECFIELD.FIELD.TYPE#
      7250**DCL      7826>>DOCASE   7857>>DOCASE   8109>>DOCASE
RECFIELD.NFIELDS#
      7242**DCL      7820>>ASSIGN   7824>>DOWHILE
REC_OFFSET IN PROCEDURE FIELD_START_SETUP
      7815**DCL      7821<<ASSIGN   7840<<ASSIGN   7861<<ASSIGN   7861>>ASSIGN   7865<<ASSIGN   7865>>ASSIGN
      7869<<ASSIGN   7869>>ASSIGN   7873<<ASSIGN   7873>>ASSIGN   7878<<ASSIGN   7878>>ASSIGN   7880>>IF
      7881<<ASSIGN   7881>>ASSIGN   7882<<ASSIGN   7882>>ASSIGN   7886<<ASSIGN   7886>>ASSIGN   7890<<ASSIGN
      7890>>ASSIGN   7895<<ASSIGN   7895>>ASSIGN   7908>>IF       7909<<ASSIGN   7909>>ASSIGN   7912>>ASSIGN
      7913>>IF       7913>>IF       7914<<ASSIGN   7915>>IF       7916<<ASSIGN   7923>>ASSIGN
RESET_XCON
      6817**DCL      7786<>CALL     7800<>CALL
RESET_XCON.V
      6818**DCL      6817--DCLINIT
SET_FIELD_START IN PROCEDURE FIELD_START
      7901**PROC     7860--CALL     7864--CALL     7868--CALL     7872--CALL     7877--CALL     7885--CALL
      7889--CALL     7894--CALL
PL6.E3A0      #002=FKA$ALTKEY File=FKA$ALTKEY.:E05TSI                            TUE 07/29/97 15:31 Page:130
SET_LEN
      8107**PROC     8032--CALL
SET_SILENT
      6879**DCL      7716<>CALL
SET_SILENT.V
      6881**DCL      6879--DCLINIT
SILENT
      7676**DCL      6880--DCLINIT
SORT_ERR
      7783**LABEL    7749--CALLALT
SORT_TABLE
      7443**DCL      7749<>CALL
SORT_TABLE.MEM#
      7492**DCL      7735<<ASSIGN
SORT_TABLE.PRIMARY.INSIZ#
      7451**DCL      7739<<ASSIGN
SORT_TABLE.SECONDARY.KCE$
      7529**DCL      7992<<ASSIGN   7999<<ASSIGN
TOTAL
      7689**DCL      8021<<ASSIGN   8033<<ASSIGN   8033>>ASSIGN   8036>>ASSIGN   8037>>IF       8038>>ASSIGN
VLP_GDDL
      7019**DCL      6896--DCLINIT
VLP_GDDL.AVAIL_PGS#
      7020**DCL      7735>>ASSIGN
VLP_NAME
      7047**DCL      6861--DCLINIT  6879--DCLINIT
X$SORT
      7666**DCL-ENT  7749--CALL
XSF$LOCCODE
      7673**DCL-ENT  7944--CALL     7979--CALL     7983--CALL     7987--CALL
XUR$ERRMSG
      7674**DCL-ENT  7798--CALL
ZL_KEYS
      7552**DCL      7472--DCLINIT
ZL_KEYS.KEY1.LENGTH#
      7593**DCL      7741<<ASSIGN
PL6.E3A0      #002=FKA$ALTKEY File=FKA$ALTKEY.:E05TSI                            TUE 07/29/97 15:31 Page:131
ZL_KEYS.KEY1.START#
      7588**DCL      7740<<ASSIGN
PL6.E3A0      #002=FKA$ALTKEY File=FKA$ALTKEY.:E05TSI                            TUE 07/29/97 15:31 Page:132
              *** CROSS REFERENCE LISTING ***
    **     DENOTES     IDENTIFIER DEFINITION
    <<                 IDENTIFIER'S VALUE SET
    >>                 IDENTIFIER'S VALUE USED
    <>                 IDENTIFIER SET AND/OR USED
    --                 IDENTIFIER REFERENCED
PL6.E3A0      #002=FKA$ALTKEY File=FKA$ALTKEY.:E05TSI                            TUE 07/29/97 15:31 Page:133
              MINI UREF LISTING

F$SCRF1    7155**DCL
FKA$ALTKEY      74**PROC
FKA_DATA_BUF    1008**DCL
FKA_DATA_BUF$    1008**DCL
FKA_DATA_GRAN    1006**DCL
FKA_FIELD_START_DATA    1004**DCL
FKA_IRKEYS_DATA    1004**DCL
FKA_KFIELD_DATA    1005**DCL
J    7686**DCL
LEN IN PROCEDURE IREL_SETUP   7975**DCL
M$ACCT     101**DCL-ENT
M$ACTIVATE     104**DCL-ENT
M$ALIB      97**DCL-ENT
M$ASUSER      99**DCL-ENT
M$ATTACH     106**DCL-ENT
M$BADPP     124**DCL-ENT
M$CGCTL     105**DCL-ENT
M$CGINFO     105**DCL-ENT
M$CHECK      86**DCL-ENT
M$CHGUNIT     144**DCL-ENT
M$CLOSE      84**DCL-ENT
M$CLRSTK     142**DCL-ENT
M$CONFIG     114**DCL-ENT
M$CORRES      89**DCL-ENT
M$CPEXIT      98**DCL-ENT
M$CVM     122**DCL-ENT
M$CVOL      87**DCL-ENT
M$DCLFLD     114**DCL-ENT
M$DEACTIVATE     104**DCL-ENT
M$DELREC      86**DCL-ENT
M$DEQ     151**DCL-ENT
M$DETACH     106**DCL-ENT
PL6.E3A0      #002=FKA$ALTKEY File=FKA$ALTKEY.:E05TSI                            TUE 07/29/97 15:31 Page:134
M$DEVICE      88**DCL-ENT
M$DISPLAY     151**DCL-ENT
M$DISPRES      91**DCL-ENT
M$DLIB      97**DCL-ENT
M$DRIBBLE     114**DCL-ENT
M$DRTN     142**DCL-ENT
M$DSUSER      99**DCL-ENT
M$ENQ     150**DCL-ENT
M$EOM     109**DCL-ENT
M$ERASE     115**DCL-ENT
M$ERR      96**DCL-ENT
M$ERRMSG     147**DCL-ENT
M$EVENT     139**DCL-ENT
M$EXHUME     148**DCL-ENT
M$EXTEND      88**DCL-ENT
M$FDP     120**DCL-ENT
M$FDS     119**DCL-ENT
M$FEBOOT     112**DCL-ENT
M$FECTL     113**DCL-ENT
M$FEDUMP     112**DCL-ENT
M$FID     147**DCL-ENT
M$FINDPROC     101**DCL-ENT
M$FSUSER      99**DCL-ENT
M$FVP     121**DCL-ENT
M$FWCG     105**DCL-ENT
M$GBPL     125**DCL-ENT
M$GDP     120**DCL-ENT
M$GDS     119**DCL-ENT
M$GETDCB      90**DCL-ENT
M$GETMOUSE     130**DCL-ENT
M$GETPM     131**DCL-ENT
M$GJOB     149**DCL-ENT
M$GLINEATTR     109**DCL-ENT
M$GOODPP     124**DCL-ENT
M$GPLATEN     117**DCL-ENT
M$GPROMPT     116**DCL-ENT
PL6.E3A0      #002=FKA$ALTKEY File=FKA$ALTKEY.:E05TSI                            TUE 07/29/97 15:31 Page:135
M$GTRMATTR     110**DCL-ENT
M$GTRMCTL     108**DCL-ENT
M$GTRMTAB     111**DCL-ENT
M$GVP     120**DCL-ENT
M$HELP     147**DCL-ENT
M$INTRTN     100**DCL-ENT
M$IOQ     135**DCL-ENT
M$JOBSTATS     149**DCL-ENT
M$KEYIN      89**DCL-ENT
M$LDEV      84**DCL-ENT
M$LDTRC      97**DCL-ENT
M$LIMIT      90**DCL-ENT
M$LINES      89**DCL-ENT
M$LINK      96**DCL-ENT
M$MADMUCK      92**DCL-ENT
M$MAKUSER     123**DCL-ENT
M$MBS      91**DCL-ENT
M$MDFFLD     115**DCL-ENT
M$MERC     140**DCL-ENT
M$MERCS     141**DCL-ENT
M$MIRROR     135**DCL-ENT
M$MONINFO     152**DCL-ENT
M$MPL     125**DCL-ENT
M$NODEINFO     116**DCL-ENT
M$NXTUSR     150**DCL-ENT
M$OCMSG     148**DCL-ENT
M$OLAY      96**DCL-ENT
M$PAS     125**DCL-ENT
M$PATHCON     148**DCL-ENT
M$PDS     119**DCL-ENT
M$PFIL      86**DCL-ENT
M$PLATEN     110**DCL-ENT
M$PRECORD      88**DCL-ENT
M$PROCNAME     101**DCL-ENT
M$PROFILE     112**DCL-ENT
M$PROMPT     108**DCL-ENT
PL6.E3A0      #002=FKA$ALTKEY File=FKA$ALTKEY.:E05TSI                            TUE 07/29/97 15:31 Page:136
M$RACST      92**DCL-ENT
M$RDSYSLOG     133**DCL-ENT
M$RELDCB      90**DCL-ENT
M$RELRES      91**DCL-ENT
M$REM      93**DCL-ENT
M$RENV     140**DCL-ENT
M$REQUIRE      92**DCL-ENT
M$RETRY     141**DCL-ENT
M$RETRYS     141**DCL-ENT
M$REW      87**DCL-ENT
M$RLSFLD     115**DCL-ENT
M$RPRIV     143**DCL-ENT
M$RSPP     122**DCL-ENT
M$RSWITCH     144**DCL-ENT
M$RUE     150**DCL-ENT
M$SAD     123**DCL-ENT
M$SAVE      99**DCL-ENT
M$SCON     100**DCL-ENT
M$SCREECH      98**DCL-ENT
M$SENV     140**DCL-ENT
M$SETFMA      84**DCL-ENT
M$SETFP     113**DCL-ENT
M$SINPUT     111**DCL-ENT
M$SLCFLD     116**DCL-ENT
M$SMOUSE     130**DCL-ENT
M$SMPRT     122**DCL-ENT
M$SPRIV     143**DCL-ENT
M$SSC     123**DCL-ENT
M$SSWITCH     143**DCL-ENT
M$STATE     152**DCL-ENT
M$STD     124**DCL-ENT
M$STIMER     138**DCL-ENT
M$STLPP     121**DCL-ENT
M$STRAP     138**DCL-ENT
M$STRMATTR     110**DCL-ENT
M$STRMCTL     108**DCL-ENT
PL6.E3A0      #002=FKA$ALTKEY File=FKA$ALTKEY.:E05TSI                            TUE 07/29/97 15:31 Page:137
M$STRMTAB     111**DCL-ENT
M$SYMBIO     149**DCL-ENT
M$SYSCON     135**DCL-ENT
M$SYSID     153**DCL-ENT
M$TDCLOSE     134**DCL-ENT
M$TDIO     134**DCL-ENT
M$TDOPEN     133**DCL-ENT
M$TDREQCPU     134**DCL-ENT
M$TEMPWROC     128**DCL-ENT
M$TIME     151**DCL-ENT
M$TRAP     138**DCL-ENT
M$TRMISC     113**DCL-ENT
M$TRMPRG     109**DCL-ENT
M$TRTN     142**DCL-ENT
M$TRUNC      85**DCL-ENT
M$TTIMER     138**DCL-ENT
M$UC     108**DCL
M$UMPL     125**DCL-ENT
M$UNFID     147**DCL-ENT
M$UNLATCH     104**DCL-ENT
M$UNSHARE     101**DCL-ENT
M$USRFIELD     144**DCL-ENT
M$VIRTUAL     119**DCL-ENT
M$WAIT     142**DCL-ENT
M$WEOF      87**DCL-ENT
M$WRITE      85**DCL-ENT
M$WRSYSLOG     133**DCL-ENT
M$XCONRTN     100**DCL-ENT
M$XEQTIME     152**DCL-ENT
M$XFLUSH      93**DCL-ENT
M$XMOUSE     130**DCL-ENT
M$YC      98**DCL-ENT
START IN PROCEDURE IREL_SETUP   7974**DCL
ZL_COLLATE    7631**DCL

PL6.E3A0      #003=FKA$BREAK File=FKA$ALTKEY.:E05TSI                             TUE 07/29/97 15:32 Page:138
      660        1        /*T***********************************************************/
      661        2        /*T*                                                         */
      662        3        /*T* Copyright (c) Bull HN Information Systems Inc., 1997    */
      663        4        /*T*                                                         */
      664        5        /*T***********************************************************/
      665        6        /*F*     NAME:     FKA$BREAK
      666        7                 PURPOSE:  To handle user breaks
      667        8        */
      668        9        /*D*     NAME:     FKA$BREAK
      669       10                 DESCRIPTION:
      670       11
      671       12                      Clear out breaks, and remember that we are processing
      672       13                 a break in case he hits another one.
      673       14
      674       15                      Tell the user that he hit break, and ask if he
      675       16                 wants to quit.  If he does, close the file, and abort.
      676       17                 If we got an error from the close, which may be a previous
      677       18                 M$CLOSE error if ALTKEY was linked to from M$CLOSE, we'll
      678       19                 abort with that error. Otherwise, we'll just abort with a
      679       20                 'you hit break' error.
      680       21        */
      681       22         %EJECT;
PL6.E3A0      #003=FKA$BREAK File=FKA$ALTKEY.:E05TSI                             TUE 07/29/97 15:32 Page:139
      682       23        FKA$BREAK: PROC ASYNC;
      683       24         %INCLUDE CP_6;
      684      105         %INCLUDE FK_PERR_C;
      685      114         %INCLUDE FK_DATA_C;
      686      191        /* */
      687      192         %FPT_PROMPT(PROMPT=PROMPT);
      688      220         %FPT_TRMPRG(RSTBRK=YES);
      689      249         %FPT_READ(DCB=M$UC, BUF=BUF1, STCLASS=CONSTANT);
      690      288         %FPT_WRITE(FPTN=WRITE_BLANK, DCB=M$UC, BUF=BLANK,
      691      289         VFC=YES, STCLASS=CONSTANT);
      692      320         %FPT_XCON(FPTN=RESET_XCON, STCLASS=CONSTANT);
      693      334         %FPT_XXX(CODE=ERRCODE, STEPCC=ERROR, STCLASS=STATIC);
      694      349         %VLP_ERRCODE(FPTN=BREAK_MSG, FCG=FK, MID=A, SEV=0,
      695      350         ERR#=%E$ALTBREAK, STCLASS=CONSTANT);
      696      395         %FKA$ERR(FPTN=CLOSERR,STCLASS=" ");
      697      401         %B$TCB;
      698      404         %B$ALT;
      699      412        /* */
      700      413    1     DCL ERRCODE BIT(36) STATIC ALIGNED;
      701      414    1     DCL BUF1 CHAR(1) STATIC INIT(' ');
      702      415    1     DCL BLANK CHAR(1) CONSTANT INIT('a');
      703      416    1     DCL BREAK SBIN STATIC INIT(0);
      704      417    1     DCL PROMPT CHAR(0) CONSTANT INIT('Type "Q" to quit ');
      705      418    1     DCL B$TCB$ PTR SYMREF;
      706      419        /* */
      707      420    1     DCL FKA$CLOSE ENTRY(1) ALTRET;
      708      421    1     DCL FKA$ABORT ENTRY;
      709      422    1     DCL XUR$ERRMSG ENTRY(7) ALTRET;
      710      423        /* */
      711      424    2           DO INHIBIT;
      712      425    2              CALL M$TRMPRG(FPT_TRMPRG) ALTRET(MONERR);
      713      426    2              IF BREAK = 1 THEN
      714      427    2                 RETURN;
      715      428    2              BREAK=1;
      716      429    2              END;
      717      430
      718      431    1           CALL M$PROMPT(FPT_PROMPT) ALTRET(MONERR);
PL6.E3A0      #003=FKA$BREAK File=FKA$ALTKEY.:E05TSI                             TUE 07/29/97 15:32 Page:140
      719      432    1           CALL XUR$ERRMSG(BREAK_MSG);
      720      433        /*E*   ERROR:   FKA-E$ALTBREAK-2
      721      434               MESSAGE: BREAK hit during rebuilding of alternate indexes
      722      435        */
      723      436    1           CALL M$READ(FPT_READ) ALTRET(MONERR);
      724      437    1           CALL M$WRITE(WRITE_BLANK) ALTRET(MONERR);
      725      438
      726      439    1           IF BUF1 ~= 'Q' THEN
      727      440    2           DO;                             /* CONTINUE                           */
      728      441    2              BREAK=0;
      729      442    2              RETURN;
      730      443    2              END;                         /* CONTINUE                           */
      731      444
      732      445    1           ERRCODE=BREAK_MSG;
      733      446    2           CALL FKA$CLOSE(CLOSERR) WHENALTRETURN DO;
      734      447    2              IF CLOSERR.TYPE=%OLDERR THEN
      735      448    2                 ERRCODE=CLOSERR.ERR;
      736      449    2              ELSE GOTO MONERR;
      737      450    2              END;
      738      451    1           CALL M$XCON(RESET_XCON);
      739      452    1           CALL M$XXX(FPT_XXX);
      740      453    1   MONERR: ;
      741      454    1           CALL FKA$ABORT;
      742      455    1   END FKA$BREAK;
      743      456         %EOD;

PL6.E3A0      #003=FKA$BREAK File=FKA$ALTKEY.:E05TSI                             TUE 07/29/97 15:32 Page:141
--  Include file information  --

   FK_DATA_C.:E05TOU  is referenced.
   FK_PERR_C.:E05TOU  is referenced.
   CP_6.:E05TOU  cannot be made into a system file and is referenced.
   B$JIT_C.:E05TOU  was found in the system file and is never referenced.
   CP_6_C.:E05TOU  was found in the system file and is referenced.
      No diagnostics issued in procedure FKA$BREAK.

   Procedure FKA$BREAK requires 59 words for executable code.
   Procedure FKA$BREAK requires 8 words of local(AUTO) storage.

PL6.E3A0      #003=FKA$BREAK File=FKA$ALTKEY.:E05TSI                             TUE 07/29/97 15:32 Page:142

 Object Unit name= FKA$BREAK                                  File name= FKA$ALTKEY.:E05TOU
 UTS= JUL 29 '97 15:32:15.08 TUE                              Compiler= PL-6/E31         Sev=      00
 SharedLib= :SHARED_SYSTEM                                    Alt SharedLib=


    ****  Control sections  ****

 Sect   Type Bound  Init  Size OctSiz  Section name(segment info)
    0   DCB   even  none     0      0  M$UC
    1   Data  even  none    27     33  FKA$BREAK
    2  RoData even  UTS     39     47  FKA$BREAK
    3   Proc  even  none    59     73  FKA$BREAK
    4  RoData even  none     1      1  FKA$BREAK

    ****  Entry defs  ****

                              Check   Calling
                             calling  sequence
  Sect OctLoc Primary Altret sequence   type   Parms  Name
     3      0   yes            yes     Async       0  FKA$BREAK

  ****  Entry refs  ****

         Check        Calling
        calling       sequence
Altret sequence SRef   type   Args  Name
 yes     yes           Std       1 FKA$CLOSE
 yes     yes           Std       7 XUR$ERRMSG
         yes           Std       0 FKA$ABORT
                       nStd      0 X66_AAUTO
                       nStd      0 X66_AARET
                       Std       0 B_CONSPOOL_D
PL6.E3A0      #003=FKA$BREAK File=FKA$ALTKEY.:E05TSI                             TUE 07/29/97 15:32 Page:143

  ****  Data refs  ****

  Flags:  r = read only, s = secondary
Flgs Name                             Flgs Name                             Flgs Name
     M$UC                                  B_VECTNIL

  ****  Segment refs  ****

  Flags:  r = read only, s = secondary
Flgs Name                             Flgs Name                             Flgs Name
     ISSID                                 NULLSID
PL6.E3A0      #003=FKA$BREAK File=FKA$ALTKEY.:E05TSI                             TUE 07/29/97 15:32 Page:144


      660        1        /*T***********************************************************/
      661        2        /*T*                                                         */
      662        3        /*T* Copyright (c) Bull HN Information Systems Inc., 1997    */
      663        4        /*T*                                                         */
      664        5        /*T***********************************************************/
      665        6        /*F*     NAME:     FKA$BREAK
      666        7                 PURPOSE:  To handle user breaks
      667        8        */
      668        9        /*D*     NAME:     FKA$BREAK
      669       10                 DESCRIPTION:
      670       11
      671       12                      Clear out breaks, and remember that we are processing
      672       13                 a break in case he hits another one.
      673       14
      674       15                      Tell the user that he hit break, and ask if he
      675       16                 wants to quit.  If he does, close the file, and abort.
      676       17                 If we got an error from the close, which may be a previous
      677       18                 M$CLOSE error if ALTKEY was linked to from M$CLOSE, we'll
      678       19                 abort with that error. Otherwise, we'll just abort with a
      679       20                 'you hit break' error.
      680       21        */
      681       22         %EJECT;
PL6.E3A0      #003=FKA$BREAK File=FKA$ALTKEY.:E05TSI                             TUE 07/29/97 15:32 Page:145
      682       23        FKA$BREAK: PROC ASYNC;

     23  3 000000   000000 700200 xent  FKA$BREAK    TSX0  ! X66_AAUTO
         3 000001   000010 000000                    ZERO    8,0

      683       24         %INCLUDE CP_6;
      684      105         %INCLUDE FK_PERR_C;
      685      114         %INCLUDE FK_DATA_C;
      686      191        /* */
      687      192         %FPT_PROMPT(PROMPT=PROMPT);
      688      220         %FPT_TRMPRG(RSTBRK=YES);
      689      249         %FPT_READ(DCB=M$UC, BUF=BUF1, STCLASS=CONSTANT);
      690      288         %FPT_WRITE(FPTN=WRITE_BLANK, DCB=M$UC, BUF=BLANK,
      691      289         VFC=YES, STCLASS=CONSTANT);
      692      320         %FPT_XCON(FPTN=RESET_XCON, STCLASS=CONSTANT);
      693      334         %FPT_XXX(CODE=ERRCODE, STEPCC=ERROR, STCLASS=STATIC);
      694      349         %VLP_ERRCODE(FPTN=BREAK_MSG, FCG=FK, MID=A, SEV=0,
      695      350         ERR#=%E$ALTBREAK, STCLASS=CONSTANT);
      696      395         %FKA$ERR(FPTN=CLOSERR,STCLASS=" ");
      697      401         %B$TCB;
      698      404         %B$ALT;
      699      412        /* */
      700      413    1     DCL ERRCODE BIT(36) STATIC ALIGNED;
      701      414    1     DCL BUF1 CHAR(1) STATIC INIT(' ');
      702      415    1     DCL BLANK CHAR(1) CONSTANT INIT('a');
      703      416    1     DCL BREAK SBIN STATIC INIT(0);
      704      417    1     DCL PROMPT CHAR(0) CONSTANT INIT('Type "Q" to quit ');
      705      418    1     DCL B$TCB$ PTR SYMREF;
      706      419        /* */
      707      420    1     DCL FKA$CLOSE ENTRY(1) ALTRET;
      708      421    1     DCL FKA$ABORT ENTRY;
      709      422    1     DCL XUR$ERRMSG ENTRY(7) ALTRET;
      710      423        /* */
      711      424    2           DO INHIBIT;

      712      425    2              CALL M$TRMPRG(FPT_TRMPRG) ALTRET(MONERR);

PL6.E3A0      #003=FKA$BREAK File=FKA$ALTKEY.:E05TSI                             TUE 07/29/97 15:32 Page:146
    425  3 000002   000012 630600 1                  EPPR0 ! FPT_TRMPRG
         3 000003   560004 713600                    CLIMB ! alt,+57348
         3 000004   400400 401760                    pmme    nvectors=2
         3 000005   000067 702200 3                  TSX2  ! MONERR

      713      426    2              IF BREAK = 1 THEN

    426  3 000006   000032 235200 1                  LDA   ! BREAK
         3 000007   000001 115207                    CMPA  ! 1,DL
         3 000010   000012 601200 3                  TNZ   ! s:428

      714      427    2                 RETURN;

    427  3 000011   000000 702200 xent               TSX2  ! X66_AARET

      715      428    2              BREAK=1;

    428  3 000012   000001 236207                    LDQ   ! 1,DL
         3 000013   000032 756200 1                  STQ   ! BREAK

      716      429    2              END;

      717      430
      718      431    1           CALL M$PROMPT(FPT_PROMPT) ALTRET(MONERR);

    431  3 000014   000000 630400 1                  EPPR0   FPT_PROMPT
         3 000015   560002 713400                    CLIMB   alt,+57346
         3 000016   401000 401760                    pmme    nvectors=3
         3 000017   000067 702000 3                  TSX2    MONERR

      719      432    1           CALL XUR$ERRMSG(BREAK_MSG);

    432  3 000020   000000 630400 4                  EPPR0   0
         3 000021   000017 631400 xsym               EPPR1   B_VECTNIL+15
         3 000022   000000 701000 xent               TSX1    XUR$ERRMSG
         3 000023   000000 011000                    NOP     0

PL6.E3A0      #003=FKA$BREAK File=FKA$ALTKEY.:E05TSI                             TUE 07/29/97 15:32 Page:147
      720      433        /*E*   ERROR:   FKA-E$ALTBREAK-2
      721      434               MESSAGE: BREAK hit during rebuilding of alternate indexes
      722      435        */
      723      436    1           CALL M$READ(FPT_READ) ALTRET(MONERR);

    436  3 000024   000000 630400 2                  EPPR0   FPT_READ
         3 000025   440000 713400                    CLIMB   alt,read
         3 000026   401400 401760                    pmme    nvectors=4
         3 000027   000067 702000 3                  TSX2    MONERR

      724      437    1           CALL M$WRITE(WRITE_BLANK) ALTRET(MONERR);

    437  3 000030   000016 630400 2                  EPPR0   WRITE_BLANK
         3 000031   440001 713400                    CLIMB   alt,write
         3 000032   401400 401760                    pmme    nvectors=4
         3 000033   000067 702000 3                  TSX2    MONERR

      725      438
      726      439    1           IF BUF1 ~= 'Q' THEN

    439  3 000034   000031 236000 1                  LDQ     BUF1
         3 000035   777000 376003                    ANQ     -512,DU
         3 000036   121000 116003                    CMPQ    41472,DU
         3 000037   000042 600000 3                  TZE     s:445

      727      440    2           DO;                             /* CONTINUE                           */

      728      441    2              BREAK=0;

    441  3 000040   000032 450000 1                  STZ     BREAK

      729      442    2              RETURN;

    442  3 000041   000000 702200 xent               TSX2  ! X66_AARET

      730      443    2              END;                         /* CONTINUE                           */
      731      444
PL6.E3A0      #003=FKA$BREAK File=FKA$ALTKEY.:E05TSI                             TUE 07/29/97 15:32 Page:148
      732      445    1           ERRCODE=BREAK_MSG;

    445  3 000042   000040 236000 2                  LDQ     BREAK_MSG
         3 000043   000030 756000 1                  STQ     ERRCODE

      733      446    2           CALL FKA$CLOSE(CLOSERR) WHENALTRETURN DO;

    446  3 000044   200003 630500                    EPPR0   CLOSERR,,AUTO
         3 000045   200006 450500                    STP0    CLOSERR+3,,AUTO
         3 000046   200006 630500                    EPPR0   CLOSERR+3,,AUTO
         3 000047   000017 631400 xsym               EPPR1   B_VECTNIL+15
         3 000050   000000 701000 xent               TSX1    FKA$CLOSE
         3 000051   000053 702000 3                  TSX2    s:447
         3 000052   000061 710000 3                  TRA     s:451

      734      447    2              IF CLOSERR.TYPE=%OLDERR THEN

    447  3 000053   200004 220100                    LDX0    CLOSERR+1,,AUTO
         3 000054   000002 100003                    CMPX0   2,DU
         3 000055   000067 601000 3                  TNZ     MONERR

      735      448    2                 ERRCODE=CLOSERR.ERR;

    448  3 000056   200003 236100                    LDQ     CLOSERR,,AUTO
         3 000057   000030 756000 1                  STQ     ERRCODE
         3 000060   000061 710000 3                  TRA     s:451

      736      449    2              ELSE GOTO MONERR;
      737      450    2              END;
      738      451    1           CALL M$XCON(RESET_XCON);

    451  3 000061   000032 630400 2                  EPPR0   RESET_XCON
         3 000062   010003 713400                    CLIMB   4099
         3 000063   400400 401760                    pmme    nvectors=2

      739      452    1           CALL M$XXX(FPT_XXX);

PL6.E3A0      #003=FKA$BREAK File=FKA$ALTKEY.:E05TSI                             TUE 07/29/97 15:32 Page:149
    452  3 000064   000022 630400 1                  EPPR0   FPT_XXX
         3 000065   000003 713400                    CLIMB   3
         3 000066   400400 401760                    pmme    nvectors=2

    445  3 000067                       MONERR       null
      740      453    1   MONERR: ;
      741      454    1           CALL FKA$ABORT;

    454  3 000067   000002 631400 xsym               EPPR1   B_VECTNIL+2
         3 000070   000000 701000 xent               TSX1    FKA$ABORT
         3 000071   000000 011000                    NOP     0

      742      455    1   END FKA$BREAK;

    455  3 000072   000000 702200 xent               TSX2  ! X66_AARET
      743      456         %EOD;

PL6.E3A0      #003=FKA$BREAK File=FKA$ALTKEY.:E05TSI                             TUE 07/29/97 15:32 Page:150
--  Include file information  --

   FK_DATA_C.:E05TOU  is referenced.
   FK_PERR_C.:E05TOU  is referenced.
   CP_6.:E05TOU  cannot be made into a system file and is referenced.
   B$JIT_C.:E05TOU  was found in the system file and is never referenced.
   CP_6_C.:E05TOU  was found in the system file and is referenced.
      No diagnostics issued in procedure FKA$BREAK.
PL6.E3A0      #003=FKA$BREAK File=FKA$ALTKEY.:E05TSI                             TUE 07/29/97 15:32 Page:151

 **** Variables and constants ****

  ****  Section 001  Data  FKA$BREAK

  ****  Scalars and arrays  ****
OctLoc.c.b A Datatyp(siz) R M Lvl/name                 OctLoc.c.b A Datatyp(siz) R M Lvl/name

    32-0-0/w SBIN        r     1 BREAK                     31-0-0/c CHAR        r     1 BUF1
    30-0-0/w BIT         r     1 ERRCODE                    0-0-0/d STRC(360)   r     1 FPT_PROMPT
    12-0-0/d STRC(288)   r     1 FPT_TRMPRG                22-0-0/d STRC(216)   r     1 FPT_XXX

  ****  Section 002 RoData FKA$BREAK

  ****  Scalars and arrays  ****
OctLoc.c.b A Datatyp(siz) R M Lvl/name                 OctLoc.c.b A Datatyp(siz) R M Lvl/name

    41-0-0/c CHAR        r     1 BLANK                     40-0-0/w STRC        r     1 BREAK_MSG
     0-0-0/d STRC(504)   r     1 FPT_READ                  42-0-0/c CHAR(17)    r     1 PROMPT
    32-0-0/d STRC(216)   r     1 RESET_XCON                16-0-0/d STRC(432)   r     1 WRITE_BLANK

  ****  Auto variables  ****

  ****  Scalars and arrays  ****
OctLoc.c.b A Datatyp(siz) R M Lvl/name                 OctLoc.c.b A Datatyp(siz) R M Lvl/name

     3-0-0/w STRC(72)    r     1 CLOSERR

  ****  BASED and DCB variables  ****

  ****  Scalars and arrays  ****
OctLoc.c.b A Datatyp(siz) R M Lvl/name                 OctLoc.c.b A Datatyp(siz) R M Lvl/name

     0-0-0N  NULL        r     1 M$UC


   Procedure FKA$BREAK requires 59 words for executable code.
PL6.E3A0      #003=FKA$BREAK File=FKA$ALTKEY.:E05TSI                             TUE 07/29/97 15:32 Page:152
   Procedure FKA$BREAK requires 8 words of local(AUTO) storage.
PL6.E3A0      #003=FKA$BREAK File=FKA$ALTKEY.:E05TSI                             TUE 07/29/97 15:32 Page:153
          *** CROSS REFERENCE LISTING ***
**     DENOTES     IDENTIFIER DEFINITION
<<                 IDENTIFIER'S VALUE SET
>>                 IDENTIFIER'S VALUE USED
<>                 IDENTIFIER SET AND/OR USED
--                 IDENTIFIER REFERENCED
PL6.E3A0      #003=FKA$BREAK File=FKA$ALTKEY.:E05TSI                             TUE 07/29/97 15:32 Page:154
          MINI XREF LISTING

B$ALT.CODE
       406**DCL       406--REDEF     407--REDEF     407--REDEF
B$ALT.ERR.ERR#
       408**DCL       408--REDEF
B$ALT.EVID
       407**DCL       407--REDEF     407--REDEF
BLANK
       415**DCL       307--DCLINIT   308--DCLINIT
BREAK
       416**DCL       426>>IF        428<<ASSIGN    441<<ASSIGN
BREAK_MSG
       362**DCL       432<>CALL      445>>ASSIGN
BUF1
       414**DCL       268--DCLINIT   269--DCLINIT   439>>IF
CLOSERR
       396**DCL       446<>CALL
CLOSERR.ERR
       397**DCL       448>>ASSIGN
CLOSERR.TYPE
       398**DCL       447>>IF
ERRCODE
       413**DCL       345--DCLINIT   445<<ASSIGN    448<<ASSIGN
FKA$ABORT
       421**DCL-ENT   454--CALL
FKA$CLOSE
       420**DCL-ENT   446--CALL
FPT_PROMPT
       208**DCL       431<>CALL
FPT_PROMPT.V
       216**DCL       210--DCLINIT
FPT_READ
       266**DCL       436<>CALL
PL6.E3A0      #003=FKA$BREAK File=FKA$ALTKEY.:E05TSI                             TUE 07/29/97 15:32 Page:155
FPT_READ.STATION_
       269**DCL       270--REDEF
FPT_READ.V
       270**DCL       266--DCLINIT
FPT_READ.V.DVBYTE.REREAD#
       281**DCL       281--REDEF
FPT_READ.V.INDX#
       279**DCL       279--REDEF
FPT_TRMPRG
       236**DCL       425<>CALL
FPT_TRMPRG.V
       243**DCL       238--DCLINIT
FPT_TRMPRG.V.CTLFLG.RSTBRK#
       244**DCL       245--REDEF
FPT_XXX
       345**DCL       452<>CALL
FPT_XXX.V
       345**DCL       345--DCLINIT
FPT_XXX.V.STEPCC#
       346**DCL       346--REDEF
M$PROMPT
        57**DCL-ENT   431--CALL
M$READ
        34**DCL-ENT   436--CALL
M$TRMPRG
        58**DCL-ENT   425--CALL
M$WRITE
        34**DCL-ENT   437--CALL
M$XCON
        88**DCL-ENT   451--CALL
M$XXX
        45**DCL-ENT   452--CALL
MONERR
       445**LABEL     425--CALLALT   431--CALLALT   436--CALLALT   437--CALLALT   449--GOTO
PROMPT
       417**DCL       214--DCLINIT
PL6.E3A0      #003=FKA$BREAK File=FKA$ALTKEY.:E05TSI                             TUE 07/29/97 15:32 Page:156
RESET_XCON
       331**DCL       451<>CALL
RESET_XCON.V
       332**DCL       331--DCLINIT
WRITE_BLANK
       306**DCL       437<>CALL
WRITE_BLANK.STATION_
       308**DCL       308--REDEF
WRITE_BLANK.V
       309**DCL       306--DCLINIT
WRITE_BLANK.V.DVBYTE.VFC#
       315**DCL       315--REDEF
XUR$ERRMSG
       422**DCL-ENT   432--CALL
PL6.E3A0      #003=FKA$BREAK File=FKA$ALTKEY.:E05TSI                             TUE 07/29/97 15:32 Page:157
              *** CROSS REFERENCE LISTING ***
    **     DENOTES     IDENTIFIER DEFINITION
    <<                 IDENTIFIER'S VALUE SET
    >>                 IDENTIFIER'S VALUE USED
    <>                 IDENTIFIER SET AND/OR USED
    --                 IDENTIFIER REFERENCED
PL6.E3A0      #003=FKA$BREAK File=FKA$ALTKEY.:E05TSI                             TUE 07/29/97 15:32 Page:158
              MINI UREF LISTING

B$TCB     402**DCL
B$TCB$     418**DCL
FKA$BREAK      23**PROC
M$ACCT      50**DCL-ENT
M$ACTIVATE      53**DCL-ENT
M$ALIB      46**DCL-ENT
M$ASUSER      48**DCL-ENT
M$ATTACH      55**DCL-ENT
M$BADPP      73**DCL-ENT
M$CGCTL      54**DCL-ENT
M$CGINFO      54**DCL-ENT
M$CHECK      35**DCL-ENT
M$CHGUNIT      93**DCL-ENT
M$CLOSE      33**DCL-ENT
M$CLRSTK      91**DCL-ENT
M$CMDVAR     102**DCL-ENT
M$CONFIG      63**DCL-ENT
M$CORRES      38**DCL-ENT
M$CPEXIT      47**DCL-ENT
M$CVM      71**DCL-ENT
M$CVOL      36**DCL-ENT
M$DCLFLD      63**DCL-ENT
M$DEACTIVATE      53**DCL-ENT
M$DELREC      35**DCL-ENT
M$DEQ     100**DCL-ENT
M$DETACH      55**DCL-ENT
M$DEVICE      37**DCL-ENT
M$DISPLAY     100**DCL-ENT
M$DISPRES      40**DCL-ENT
M$DLIB      46**DCL-ENT
M$DRIBBLE      63**DCL-ENT
M$DRTN      91**DCL-ENT
PL6.E3A0      #003=FKA$BREAK File=FKA$ALTKEY.:E05TSI                             TUE 07/29/97 15:32 Page:159
M$DSUSER      48**DCL-ENT
M$ENQ      99**DCL-ENT
M$EOM      58**DCL-ENT
M$ERASE      64**DCL-ENT
M$ERR      45**DCL-ENT
M$ERRMSG      96**DCL-ENT
M$EVENT      88**DCL-ENT
M$EXHUME      97**DCL-ENT
M$EXIT      45**DCL-ENT
M$EXTEND      37**DCL-ENT
M$FDP      69**DCL-ENT
M$FDS      68**DCL-ENT
M$FEBOOT      61**DCL-ENT
M$FECTL      62**DCL-ENT
M$FEDUMP      61**DCL-ENT
M$FID      96**DCL-ENT
M$FINDPROC      50**DCL-ENT
M$FSUSER      48**DCL-ENT
M$FVP      70**DCL-ENT
M$FWCG      54**DCL-ENT
M$GBPL      74**DCL-ENT
M$GDDL      70**DCL-ENT
M$GDP      69**DCL-ENT
M$GDS      68**DCL-ENT
M$GETDCB      39**DCL-ENT
M$GETMOUSE      79**DCL-ENT
M$GETPM      80**DCL-ENT
M$GJOB      98**DCL-ENT
M$GLINEATTR      58**DCL-ENT
M$GOODPP      73**DCL-ENT
M$GPLATEN      66**DCL-ENT
M$GPROMPT      65**DCL-ENT
M$GTRMATTR      59**DCL-ENT
M$GTRMCTL      57**DCL-ENT
M$GTRMTAB      60**DCL-ENT
M$GVP      69**DCL-ENT
PL6.E3A0      #003=FKA$BREAK File=FKA$ALTKEY.:E05TSI                             TUE 07/29/97 15:32 Page:160
M$HELP      96**DCL-ENT
M$INT      88**DCL-ENT
M$INTRTN      49**DCL-ENT
M$IOQ      84**DCL-ENT
M$JOBSTATS      98**DCL-ENT
M$KEYIN      38**DCL-ENT
M$LDEV      33**DCL-ENT
M$LDTRC      46**DCL-ENT
M$LIMIT      39**DCL-ENT
M$LINES      38**DCL-ENT
M$LINK      45**DCL-ENT
M$MADMUCK      41**DCL-ENT
M$MAKUSER      72**DCL-ENT
M$MBS      40**DCL-ENT
M$MDFFLD      64**DCL-ENT
M$MERC      89**DCL-ENT
M$MERCS      90**DCL-ENT
M$MIRROR      84**DCL-ENT
M$MONINFO     101**DCL-ENT
M$MPL      74**DCL-ENT
M$NODEINFO      65**DCL-ENT
M$NXTUSR      99**DCL-ENT
M$OCMSG      97**DCL-ENT
M$OLAY      45**DCL-ENT
M$OPEN      33**DCL-ENT
M$PAS      74**DCL-ENT
M$PATHCON      97**DCL-ENT
M$PDS      68**DCL-ENT
M$PFIL      35**DCL-ENT
M$PLATEN      59**DCL-ENT
M$PRECORD      37**DCL-ENT
M$PROCNAME      50**DCL-ENT
M$PROFILE      61**DCL-ENT
M$RACST      41**DCL-ENT
M$RDSYSLOG      82**DCL-ENT
M$RELDCB      39**DCL-ENT
PL6.E3A0      #003=FKA$BREAK File=FKA$ALTKEY.:E05TSI                             TUE 07/29/97 15:32 Page:161
M$RELRES      40**DCL-ENT
M$RELSTARF      42**DCL-ENT
M$REM      42**DCL-ENT
M$RENV      89**DCL-ENT
M$REQUIRE      41**DCL-ENT
M$RETRY      90**DCL-ENT
M$RETRYS      90**DCL-ENT
M$REW      36**DCL-ENT
M$RLSFLD      64**DCL-ENT
M$RPRIV      92**DCL-ENT
M$RSPP      71**DCL-ENT
M$RSWITCH      93**DCL-ENT
M$RUE      99**DCL-ENT
M$SAD      72**DCL-ENT
M$SAVE      48**DCL-ENT
M$SCON      49**DCL-ENT
M$SCREECH      47**DCL-ENT
M$SENV      89**DCL-ENT
M$SETFMA      33**DCL-ENT
M$SETFP      62**DCL-ENT
M$SINPUT      60**DCL-ENT
M$SLCFLD      65**DCL-ENT
M$SMOUSE      79**DCL-ENT
M$SMPRT      71**DCL-ENT
M$SPRIV      92**DCL-ENT
M$SSC      72**DCL-ENT
M$SSWITCH      92**DCL-ENT
M$STATE     101**DCL-ENT
M$STD      73**DCL-ENT
M$STIMER      87**DCL-ENT
M$STLPP      70**DCL-ENT
M$STRAP      87**DCL-ENT
M$STRMATTR      59**DCL-ENT
M$STRMCTL      57**DCL-ENT
M$STRMTAB      60**DCL-ENT
M$SYMBIO      98**DCL-ENT
PL6.E3A0      #003=FKA$BREAK File=FKA$ALTKEY.:E05TSI                             TUE 07/29/97 15:32 Page:162
M$SYSCON      84**DCL-ENT
M$SYSID     102**DCL-ENT
M$TDCLOSE      83**DCL-ENT
M$TDIO      83**DCL-ENT
M$TDOPEN      82**DCL-ENT
M$TDREQCPU      83**DCL-ENT
M$TEMPWROC      77**DCL-ENT
M$TIME     100**DCL-ENT
M$TRAP      87**DCL-ENT
M$TRMISC      62**DCL-ENT
M$TRTN      91**DCL-ENT
M$TRUNC      34**DCL-ENT
M$TTIMER      87**DCL-ENT
M$UC      57**DCL
M$UMPL      74**DCL-ENT
M$UNFID      96**DCL-ENT
M$UNLATCH      53**DCL-ENT
M$UNSHARE      50**DCL-ENT
M$USRFIELD      93**DCL-ENT
M$VIRTUAL      68**DCL-ENT
M$WAIT      91**DCL-ENT
M$WEOF      36**DCL-ENT
M$WRSYSLOG      82**DCL-ENT
M$XCONRTN      49**DCL-ENT
M$XEQTIME     101**DCL-ENT
M$XFLUSH      42**DCL-ENT
M$XMOUSE      79**DCL-ENT
M$YC      47**DCL-ENT

PL6.E3A0      #004=FKA$CLOSE File=FKA$ALTKEY.:E05TSI                             TUE 07/29/97 15:32 Page:163
      744        1        /*T***********************************************************/
      745        2        /*T*                                                         */
      746        3        /*T* Copyright (c) Bull HN Information Systems Inc., 1997    */
      747        4        /*T*                                                         */
      748        5        /*T***********************************************************/
      749        6        /*F*     NAME:     FKA$CLOSE
      750        7                 PURPOSE:  To close the file
      751        8        */
      752        9        /*D*     NAME:     FKA$CLOSE
      753       10                 CALL:     CALL FKA$CLOSE(CLOSERR) ALTRET(LBL);
      754       11                 OUTPUT:   CLOSERR, a structure containing close error
      755       12                                    information if FKA$CLOSE altrets.
      756       13                 DESCRIPTION:
      757       14
      758       15                      If this is an IREL file, then move some information
      759       16                 from the structure we set up back to the FIT codes.
      760       17
      761       18                      Next, if the user had a command variable, restore
      762       19                 it.
      763       20
      764       21                      Finally, if the file was ever opened, tell M$RELSTARF
      765       22                 to do a sleazy close.  This sleazy close will cause the
      766       23                 file's FIT to be updated with our changes (if any) and the
      767       24                 upper levels for the alternate keys to be rebuilt.  If the
      768       25                 user specified RELG in his close fpt, that will also be
      769       26                 processed.  If M$RELSTARF altrets, either something very
      770       27                 unexpected and ugly happened (couldn't read the FIT, couldn't
      771       28                 get space in the ROSEG) or the guy wasn't allowed to RELG.
      772       29                 Whether it altrets or not, we also have to check to see
      773       30                 whether M$CLOSE passed us an older close error if we were
      774       31                 linked to from M$CLOSE.  If we find any error(s), we have
      775       32                 to pick one.  The error hierarchy is: (1) ugly M$RELSTARF
      776       33                 error, (2) older M$CLOSE error, (3) can't RELG.
      777       34
      778       35                      By the way, the M$RELSTARF close doesn't actually mark
      779       36                 ALTKEY's dcb closed.  The dcb is finally closed when ALTKEY
      780       37                 is run down.
PL6.E3A0      #004=FKA$CLOSE File=FKA$ALTKEY.:E05TSI                             TUE 07/29/97 15:32 Page:164
      781       38
      782       39        */
      783       40         %EJECT;
PL6.E3A0      #004=FKA$CLOSE File=FKA$ALTKEY.:E05TSI                             TUE 07/29/97 15:32 Page:165
      784       41        FKA$CLOSE: PROC(CLOSERR) ALTRET;
      785       42         %INCLUDE CP_6;
      786      123         %INCLUDE CP_6_SUBS;
      787      663         %INCLUDE B_ERRORS_C;
      788     1790         %INCLUDE FK_DATA_C;
      789     1867         %INCLUDE FKA_DATA_R;
      790     1883         %INCLUDE FM$FIT;
      791     2104         %INCLUDE FM_FIELD_C;
      792     2145        /* */
      793     2146         %FKA$ERR(FPTN=CLOSERR,STCLASS=" ");
      794     2152         %FPT_RELSTARF(ALTKEYS=FKA_ALTKEY_BFR, STCLASS=CONSTANT);
      795     2167         %FPT_CMDVAR(FPTN=RESTORE, NAME=VLP_NAME, FUN=STORE,
      796     2168         VALUE=FKA_CMDVAR, STCLASS=CONSTANT);
      797     2185         %FPT_CMDVAR(FPTN=DELETE, NAME=VLP_NAME, FUN=DELETE, STCLASS=CONSTANT);
      798     2202         %VLP_NAME(NAME='SORT$STAT');
      799     2229         %F$DCB(DCBN=F$DCB, STCLASS="BASED(FKA_DCB$)");
      800     2286         %FK$ALTKEY_BFR(FPTN=FKA_ALTKEY_BFR, STCLASS="SYMREF");
      801     2306         %CODE20(BASED="BASED(FKA_CODE20$)");
      802     2311         %CODE19(BASED="BASED(FKA_CODE19$)");
      803     2314         %FMG$IRKEYS(STCLASS="BASED(FKA_IRKEYS$)");
      804     2321         %B$TCB;
      805     2324         %B$ALT;
      806     2332        /* */
      807     2333    1     DCL B$TCB$ PTR SYMREF;
      808     2334        /* */
      809     2335    1     DCL I SBIN;
      810     2336    1     DCL J SBIN;
      811     2337        /* */
      812     2338        %EJECT;
PL6.E3A0      #004=FKA$CLOSE File=FKA$ALTKEY.:E05TSI                             TUE 07/29/97 15:32 Page:166
      813     2339    1           IF FKA_CLOSE_DONE THEN
      814     2340    1              RETURN;
      815     2341    1           CLOSERR='0'B;
      816     2342    1           IF F$DCB.ORG# = %IREL# THEN
      817     2343    2           DO;                             /* RETURN SOME INFO                   */
      818     2344    2              J=0;
      819     2345                                                /* Position to 1st alt key in CODE19  */
      820     2346    3              DO WHILE(NOT CODE19.K.KEYEND(J));
      821     2347    3                 J=J+1;
      822     2348    3                 END;
      823     2349    2              J=J+1;
      824     2350    3              DO I=1 TO CODE20.NKEYS-1;
      825     2351    3                 CODE20.K.LDA(I)=IRKEYS.K.LDA(I);
      826     2352    3                 CODE19.K.UNIQUE(J)=IRKEYS.K.UNIQUE(I);
      827     2353    4                 DO WHILE(NOT CODE19.K.KEYEND(J));
      828     2354    4                    J=J+1;
      829     2355    4                    END;
      830     2356    3                 J=J+1;
      831     2357    3                 END;
      832     2358    2              END;                         /* RETURN SOME INFO                   */
      833     2359
      834     2360    1           IF FKA_CMDVAR_SET THEN
      835     2361    2           DO;                             /* RESTORE OLD VALUE                  */
      836     2362    2              IF FKA_CMDVAR_EXIST THEN
      837     2363    3              DO;                          /* RESTORE OLD VALUE                  */
      838     2364    3                 CALL M$CMDVAR(RESTORE) ALTRET(IGNORE);
      839     2365    3                 END;                      /* RESTORE OLD VALUE                  */
      840     2366    2              ELSE
      841     2367    3              DO;                          /* DELETE                             */
      842     2368    3                 CALL M$CMDVAR(DELETE) ALTRET(IGNORE);
      843     2369    3                 END;                      /* DELETE                             */
      844     2370    2              END;                         /* RESTORE OLD VALUE                  */
      845     2371
      846     2372    1   IGNORE: FKA_ALTKEY_BFR.CODE=%ALTKEY_CLOSE#;
      847     2373    1           IF FKA_FILE_OPEN THEN
      848     2374    1              CALL M$RELSTARF(FPT_RELSTARF) ALTRET(CLSERR);
      849     2375    1           IF FKA_MON AND FKA_M$CLOSE_ERR ~= '0'B THEN
PL6.E3A0      #004=FKA$CLOSE File=FKA$ALTKEY.:E05TSI                             TUE 07/29/97 15:32 Page:167
      850     2376    1              GOTO OLD_ERR;
      851     2377    1           FKA_CLOSE_DONE=%YES#;
      852     2378    1           RETURN;
      853     2379    1   CLSERR: ;
      854     2380    1           CLOSERR.ERR=B$TCB$->B$TCB.ALT$->B$ALT.ERR;
      855     2381    1           CLOSERR.DCB#=B$TCB$->B$TCB.ALT$->B$ALT.DCB#;
      856     2382    1           IF B$TCB$->B$TCB.ALT$->B$ALT.ERR.CODE=%E$CLSREL THEN
      857     2383    1              CLOSERR.TYPE=%CANTRELG;
      858     2384    2           ELSE DO;
      859     2385    2              CLOSERR.TYPE=%UNEXPECTED;
      860     2386    2              GOTO ALT;
      861     2387    2              END;
      862     2388    1           IF FKA_MON AND FKA_M$CLOSE_ERR ~= '0'B THEN
      863     2389    2           DO;                      /* M$CLOSE error found before link to ALTKEY */
      864     2390    2   OLD_ERR:   ;
      865     2391    2              CLOSERR.TYPE=%OLDERR;
      866     2392    2              CLOSERR.ERR=FKA_M$CLOSE_ERR;
      867     2393    2              CLOSERR.DCB#=FKA_ALTKEY_BFR.DCB#;
      868     2394    2              END;                  /* M$CLOSE error found before link to ALTKEY */
      869     2395    1   ALT:    FKA_CLOSE_DONE=%YES#;
      870     2396    1           ALTRETURN;
      871     2397    1   END FKA$CLOSE;
      872     2398         %EOD;

PL6.E3A0      #004=FKA$CLOSE File=FKA$ALTKEY.:E05TSI                             TUE 07/29/97 15:32 Page:168
--  Include file information  --

   FM_FIELD_C.:E05TOU  is referenced.
   FM$FIT.:E05TOU  is referenced.
   FKA_DATA_R.:E05TOU  cannot be made into a system file and is referenced.
   FK_DATA_C.:E05TOU  is referenced.
   B_ERRORS_C.:E05TOU  is referenced.
   CP_6_SUBS.:E05TOU  is referenced.
   CP_6.:E05TOU  cannot be made into a system file and is referenced.
   B$JIT_C.:E05TOU  was found in the system file and is never referenced.
   CP_6_C.:E05TOU  was found in the system file and is referenced.
      No diagnostics issued in procedure FKA$CLOSE.

   Procedure FKA$CLOSE requires 140 words for executable code.
   Procedure FKA$CLOSE requires 8 words of local(AUTO) storage.

PL6.E3A0      #004=FKA$CLOSE File=FKA$ALTKEY.:E05TSI                             TUE 07/29/97 15:32 Page:169

 Object Unit name= FKA$CLOSE                                  File name= FKA$ALTKEY.:E05TOU
 UTS= JUL 29 '97 15:32:20.52 TUE                              Compiler= PL-6/E31         Sev=      00
 SharedLib= :SHARED_SYSTEM                                    Alt SharedLib=


    ****  Control sections  ****

 Sect   Type Bound  Init  Size OctSiz  Section name(segment info)
    0   DCB   even  none     0      0  M$UC
    1  RoData even  UTS     32     40  FKA$CLOSE
    2   Data  even  none     3      3  FKA$CLOSE
    3   Proc  even  none   140    214  FKA$CLOSE

    ****  Entry defs  ****

                              Check   Calling
                             calling  sequence
  Sect OctLoc Primary Altret sequence   type   Parms  Name
     3      0   yes    yes     yes      Std        1  FKA$CLOSE

  ****  Entry refs  ****

         Check        Calling
        calling       sequence
Altret sequence SRef   type   Args  Name
                       nStd      0 X66_AUTO_1
                       nStd      0 X66_ARET
                       Std       0 B_CONSPOOL_D
                       nStd      0 X66_AALT
PL6.E3A0      #004=FKA$CLOSE File=FKA$ALTKEY.:E05TSI                             TUE 07/29/97 15:32 Page:170

  ****  Data refs  ****

  Flags:  r = read only, s = secondary
Flgs Name                             Flgs Name                             Flgs Name
     M$UC                                  FKA_MON                          r    FKA_IRKEYS$
     FKA_CODE19$                           FKA_CODE20$                           FKA_DCB$
     FKA_CMDVAR_EXIST                      FKA_CMDVAR                            FKA_FILE_OPEN
     FKA_CMDVAR_SET                        FKA_M$CLOSE_ERR                       FKA_CLOSE_DONE
     FKA_ALTKEY_BFR                        B$TCB$                                B_VECTNIL

  ****  Segment refs  ****

  Flags:  r = read only, s = secondary
Flgs Name                             Flgs Name                             Flgs Name
     NULLSID                               ISSID
PL6.E3A0      #004=FKA$CLOSE File=FKA$ALTKEY.:E05TSI                             TUE 07/29/97 15:32 Page:171


      744        1        /*T***********************************************************/
      745        2        /*T*                                                         */
      746        3        /*T* Copyright (c) Bull HN Information Systems Inc., 1997    */
      747        4        /*T*                                                         */
      748        5        /*T***********************************************************/
      749        6        /*F*     NAME:     FKA$CLOSE
      750        7                 PURPOSE:  To close the file
      751        8        */
      752        9        /*D*     NAME:     FKA$CLOSE
      753       10                 CALL:     CALL FKA$CLOSE(CLOSERR) ALTRET(LBL);
      754       11                 OUTPUT:   CLOSERR, a structure containing close error
      755       12                                    information if FKA$CLOSE altrets.
      756       13                 DESCRIPTION:
      757       14
      758       15                      If this is an IREL file, then move some information
      759       16                 from the structure we set up back to the FIT codes.
      760       17
      761       18                      Next, if the user had a command variable, restore
      762       19                 it.
      763       20
      764       21                      Finally, if the file was ever opened, tell M$RELSTARF
      765       22                 to do a sleazy close.  This sleazy close will cause the
      766       23                 file's FIT to be updated with our changes (if any) and the
      767       24                 upper levels for the alternate keys to be rebuilt.  If the
      768       25                 user specified RELG in his close fpt, that will also be
      769       26                 processed.  If M$RELSTARF altrets, either something very
      770       27                 unexpected and ugly happened (couldn't read the FIT, couldn't
      771       28                 get space in the ROSEG) or the guy wasn't allowed to RELG.
      772       29                 Whether it altrets or not, we also have to check to see
      773       30                 whether M$CLOSE passed us an older close error if we were
      774       31                 linked to from M$CLOSE.  If we find any error(s), we have
      775       32                 to pick one.  The error hierarchy is: (1) ugly M$RELSTARF
      776       33                 error, (2) older M$CLOSE error, (3) can't RELG.
      777       34
      778       35                      By the way, the M$RELSTARF close doesn't actually mark
      779       36                 ALTKEY's dcb closed.  The dcb is finally closed when ALTKEY
PL6.E3A0      #004=FKA$CLOSE File=FKA$ALTKEY.:E05TSI                             TUE 07/29/97 15:32 Page:172
      780       37                 is run down.
      781       38
      782       39        */
      783       40         %EJECT;
PL6.E3A0      #004=FKA$CLOSE File=FKA$ALTKEY.:E05TSI                             TUE 07/29/97 15:32 Page:173
      784       41        FKA$CLOSE: PROC(CLOSERR) ALTRET;

     41  3 000000   000000 700200 xent  FKA$CLOSE    TSX0  ! X66_AUTO_1
         3 000001   000010 000001                    ZERO    8,1

      785       42         %INCLUDE CP_6;
      786      123         %INCLUDE CP_6_SUBS;
      787      663         %INCLUDE B_ERRORS_C;
      788     1790         %INCLUDE FK_DATA_C;
      789     1867         %INCLUDE FKA_DATA_R;
      790     1883         %INCLUDE FM$FIT;
      791     2104         %INCLUDE FM_FIELD_C;
      792     2145        /* */
      793     2146         %FKA$ERR(FPTN=CLOSERR,STCLASS=" ");
      794     2152         %FPT_RELSTARF(ALTKEYS=FKA_ALTKEY_BFR, STCLASS=CONSTANT);
      795     2167         %FPT_CMDVAR(FPTN=RESTORE, NAME=VLP_NAME, FUN=STORE,
      796     2168         VALUE=FKA_CMDVAR, STCLASS=CONSTANT);
      797     2185         %FPT_CMDVAR(FPTN=DELETE, NAME=VLP_NAME, FUN=DELETE, STCLASS=CONSTANT);
      798     2202         %VLP_NAME(NAME='SORT$STAT');
      799     2229         %F$DCB(DCBN=F$DCB, STCLASS="BASED(FKA_DCB$)");
      800     2286         %FK$ALTKEY_BFR(FPTN=FKA_ALTKEY_BFR, STCLASS="SYMREF");
      801     2306         %CODE20(BASED="BASED(FKA_CODE20$)");
      802     2311         %CODE19(BASED="BASED(FKA_CODE19$)");
      803     2314         %FMG$IRKEYS(STCLASS="BASED(FKA_IRKEYS$)");
      804     2321         %B$TCB;
      805     2324         %B$ALT;
      806     2332        /* */
      807     2333    1     DCL B$TCB$ PTR SYMREF;
      808     2334        /* */
      809     2335    1     DCL I SBIN;
      810     2336    1     DCL J SBIN;
      811     2337        /* */
      812     2338        %EJECT;
PL6.E3A0      #004=FKA$CLOSE File=FKA$ALTKEY.:E05TSI                             TUE 07/29/97 15:32 Page:174
      813     2339    1           IF FKA_CLOSE_DONE THEN

   2339  3 000002   000000 234000 xsym               SZN     FKA_CLOSE_DONE
         3 000003   000005 605000 3                  TPL     s:2341

      814     2340    1              RETURN;

   2340  3 000004   000000 702200 xent               TSX2  ! X66_ARET

      815     2341    1           CLOSERR='0'B;

   2341  3 000005   200003 470500                    LDP0    @CLOSERR,,AUTO
         3 000006   000000 450100                    STZ     0,,PR0
         3 000007   000001 450100                    STZ     1,,PR0

      816     2342    1           IF F$DCB.ORG# = %IREL# THEN

   2342  3 000010   000000 471400 xsym               LDP1    FKA_DCB$
         3 000011   100032 236100                    LDQ     26,,PR1
         3 000012   777000 376003                    ANQ     -512,DU
         3 000013   015000 116003                    CMPQ    6656,DU
         3 000014   000116 601000 3                  TNZ     s:2360

      817     2343    2           DO;                             /* RETURN SOME INFO                   */

      818     2344    2              J=0;

   2344  3 000015   200005 450100                    STZ     J,,AUTO

      819     2345                                                /* Position to 1st alt key in CODE19  */
      820     2346    3              DO WHILE(NOT CODE19.K.KEYEND(J));

   2346  3 000016   000020 710000 3                  TRA     s:2348

      821     2347    3                 J=J+1;

   2347  3 000017   200005 054100                    AOS     J,,AUTO
PL6.E3A0      #004=FKA$CLOSE File=FKA$ALTKEY.:E05TSI                             TUE 07/29/97 15:32 Page:175

      822     2348    3                 END;

   2348  3 000020   200005 236100                    LDQ     J,,AUTO
         3 000021   000022 402007                    MPY     18,DL
         3 000022   000000 116003                    CMPQ    0,DU
         3 000023   000025 605000 3                  TPL     s:2348+5
         3 000024   000044 036003                    ADLQ    36,DU
         3 000025   000000 470400 xsym               LDP0    FKA_CODE19$
         3 000026   000000 066506                    CMPB    filb='0'B
         3 000027   000001 000001                    BDSC    1,Q,PR0                  by=0,bit=0,n=1
         3 000030   000002 000022 xsym               BDSC    B_VECTNIL+2              by=0,bit=0,n=18
         3 000031   000017 600000 3                  TZE     s:2347

      823     2349    2              J=J+1;

   2349  3 000032   200005 054100                    AOS     J,,AUTO

      824     2350    3              DO I=1 TO CODE20.NKEYS-1;

   2350  3 000033   000001 235007                    LDA     1,DL
         3 000034   200004 755100                    STA     I,,AUTO
         3 000035   000111 710000 3                  TRA     s:2357+1

      825     2351    3                 CODE20.K.LDA(I)=IRKEYS.K.LDA(I);

   2351  3 000036   200004 236100                    LDQ     I,,AUTO
         3 000037   000003 402007                    MPY     3,DL
         3 000040   000000 620006                    EAX0    0,QL
         3 000041   200004 236100                    LDQ     I,,AUTO
         3 000042   000007 402007                    MPY     7,DL
         3 000043   000000 470400 xsym               LDP0    FKA_IRKEYS$
         3 000044   000000 471400 xsym               LDP1    FKA_CODE20$
         3 000045   000002 736000                    QLS     2
         3 000046   000000 635010                    EAA     0,X0
         3 000047   000020 731000                    ARS     16
         3 000050   000105 100506                    MLR     fill='000'O
PL6.E3A0      #004=FKA$CLOSE File=FKA$ALTKEY.:E05TSI                             TUE 07/29/97 15:32 Page:176
         3 000051   000011 200003                    ADSC9   9,Q,PR0                  cn=1,n=3
         3 000052   100003 600003                    ADSC9   3,A,PR1                  cn=3,n=3

      826     2352    3                 CODE19.K.UNIQUE(J)=IRKEYS.K.UNIQUE(I);

   2352  3 000053   200004 236100                    LDQ     I,,AUTO
         3 000054   000374 402007                    MPY     252,DL
         3 000055   000000 116003                    CMPQ    0,DU
         3 000056   000060 605000 3                  TPL     s:2352+5
         3 000057   000044 036003                    ADLQ    36,DU
         3 000060   200006 756100                    STQ     J+1,,AUTO
         3 000061   200005 236100                    LDQ     J,,AUTO
         3 000062   000022 402007                    MPY     18,DL
         3 000063   000000 116003                    CMPQ    0,DU
         3 000064   000066 605000 3                  TPL     s:2352+11
         3 000065   000044 036003                    ADLQ    36,DU
         3 000066   200006 235100                    LDA     J+1,,AUTO
         3 000067   000000 471400 xsym               LDP1    FKA_CODE19$
         3 000070   003106 060505                    CSL     bolr='003'O
         3 000071   000006 400001                    BDSC    6,A,PR0                  by=2,bit=0,n=1
         3 000072   100001 010001                    BDSC    1,Q,PR1                  by=0,bit=1,n=1

      827     2353    4                 DO WHILE(NOT CODE19.K.KEYEND(J));

   2353  3 000073   000075 710000 3                  TRA     s:2355

      828     2354    4                    J=J+1;

   2354  3 000074   200005 054100                    AOS     J,,AUTO

      829     2355    4                    END;

   2355  3 000075   200005 236100                    LDQ     J,,AUTO
         3 000076   000022 402007                    MPY     18,DL
         3 000077   000000 116003                    CMPQ    0,DU
         3 000100   000102 605000 3                  TPL     s:2355+5
         3 000101   000044 036003                    ADLQ    36,DU
PL6.E3A0      #004=FKA$CLOSE File=FKA$ALTKEY.:E05TSI                             TUE 07/29/97 15:32 Page:177
         3 000102   000000 470400 xsym               LDP0    FKA_CODE19$
         3 000103   000000 066506                    CMPB    filb='0'B
         3 000104   000001 000001                    BDSC    1,Q,PR0                  by=0,bit=0,n=1
         3 000105   000002 000022 xsym               BDSC    B_VECTNIL+2              by=0,bit=0,n=18
         3 000106   000074 600000 3                  TZE     s:2354

      830     2356    3                 J=J+1;

   2356  3 000107   200005 054100                    AOS     J,,AUTO

      831     2357    3                 END;

   2357  3 000110   200004 054100                    AOS     I,,AUTO
         3 000111   000000 471400 xsym               LDP1    FKA_CODE20$
         3 000112   200004 236100                    LDQ     I,,AUTO
         3 000113   000036 604000 3                  TMI     s:2351
         3 000114   100000 116100                    CMPQ    0,,PR1
         3 000115   000036 602000 3                  TNC     s:2351

      832     2358    2              END;                         /* RETURN SOME INFO                   */

      833     2359
      834     2360    1           IF FKA_CMDVAR_SET THEN

   2360  3 000116   000000 234000 xsym               SZN     FKA_CMDVAR_SET
         3 000117   000133 605000 3                  TPL     IGNORE

      835     2361    2           DO;                             /* RESTORE OLD VALUE                  */

      836     2362    2              IF FKA_CMDVAR_EXIST THEN

   2362  3 000120   000000 234000 xsym               SZN     FKA_CMDVAR_EXIST
         3 000121   000127 605000 3                  TPL     s:2368

      837     2363    3              DO;                          /* RESTORE OLD VALUE                  */

      838     2364    3                 CALL M$CMDVAR(RESTORE) ALTRET(IGNORE);
PL6.E3A0      #004=FKA$CLOSE File=FKA$ALTKEY.:E05TSI                             TUE 07/29/97 15:32 Page:178

   2364  3 000122   000004 630400 1                  EPPR0   RESTORE
         3 000123   420025 713400                    CLIMB   alt,+8213
         3 000124   402400 401760                    pmme    nvectors=6
         3 000125   000133 702000 3                  TSX2    IGNORE

      839     2365    3                 END;                      /* RESTORE OLD VALUE                  */

   2365  3 000126   000133 710000 3                  TRA     IGNORE

      840     2366    2              ELSE
      841     2367    3              DO;                          /* DELETE                             */

      842     2368    3                 CALL M$CMDVAR(DELETE) ALTRET(IGNORE);

   2368  3 000127   000022 630400 1                  EPPR0   DELETE
         3 000130   420025 713400                    CLIMB   alt,+8213
         3 000131   402400 401760                    pmme    nvectors=6
         3 000132   000133 702000 3                  TSX2    IGNORE

      843     2369    3                 END;                      /* DELETE                             */

      844     2370    2              END;                         /* RESTORE OLD VALUE                  */

      845     2371
      846     2372    1   IGNORE: FKA_ALTKEY_BFR.CODE=%ALTKEY_CLOSE#;

   2372  3 000133   000002 235007       IGNORE       LDA     2,DL
         3 000134   000002 755000 xsym               STA     FKA_ALTKEY_BFR+2

      847     2373    1           IF FKA_FILE_OPEN THEN

   2373  3 000135   000000 234000 xsym               SZN     FKA_FILE_OPEN
         3 000136   000143 605000 3                  TPL     s:2375

      848     2374    1              CALL M$RELSTARF(FPT_RELSTARF) ALTRET(CLSERR);

PL6.E3A0      #004=FKA$CLOSE File=FKA$ALTKEY.:E05TSI                             TUE 07/29/97 15:32 Page:179
   2374  3 000137   000000 630400 1                  EPPR0   FPT_RELSTARF
         3 000140   460010 713400                    CLIMB   alt,+24584
         3 000141   400400 401760                    pmme    nvectors=2
         3 000142   000152 702000 3                  TSX2    CLSERR

      849     2375    1           IF FKA_MON AND FKA_M$CLOSE_ERR ~= '0'B THEN

   2375  3 000143   000000 234000 xsym               SZN     FKA_MON
         3 000144   000147 605000 3                  TPL     s:2377
         3 000145   000000 235000 xsym               LDA     FKA_M$CLOSE_ERR
         3 000146   000202 601000 3                  TNZ     OLD_ERR

      850     2376    1              GOTO OLD_ERR;
      851     2377    1           FKA_CLOSE_DONE=%YES#;

   2377  3 000147   400000 236003                    LDQ     -131072,DU
         3 000150   000000 756000 xsym               STQ     FKA_CLOSE_DONE

      852     2378    1           RETURN;

   2378  3 000151   000000 702200 xent               TSX2  ! X66_ARET

   2377  3 000152                       CLSERR       null
      853     2379    1   CLSERR: ;
      854     2380    1           CLOSERR.ERR=B$TCB$->B$TCB.ALT$->B$ALT.ERR;

   2380  3 000152   000000 470400 xsym               LDP0    B$TCB$
         3 000153   000000 471500                    LDP1    0,,PR0
         3 000154   100102 236100                    LDQ     66,,PR1
         3 000155   200003 473500                    LDP3    @CLOSERR,,AUTO
         3 000156   300000 756100                    STQ     0,,PR3

      855     2381    1           CLOSERR.DCB#=B$TCB$->B$TCB.ALT$->B$ALT.DCB#;

   2381  3 000157   000000 470400 xsym               LDP0    B$TCB$
         3 000160   000000 471500                    LDP1    0,,PR0
         3 000161   100101 720100                    LXL0    65,,PR1
PL6.E3A0      #004=FKA$CLOSE File=FKA$ALTKEY.:E05TSI                             TUE 07/29/97 15:32 Page:180
         3 000162   300001 440100                    SXL0    1,,PR3

      856     2382    1           IF B$TCB$->B$TCB.ALT$->B$ALT.ERR.CODE=%E$CLSREL THEN

   2382  3 000163   000000 471500                    LDP1    0,,PR0
         3 000164   100102 236100                    LDQ     66,,PR1
         3 000165   377770 376007                    ANQ     131064,DL
         3 000166   002330 116007                    CMPQ    1240,DL
         3 000167   000173 601000 3                  TNZ     s:2385

      857     2383    1              CLOSERR.TYPE=%CANTRELG;

   2383  3 000170   000003 221003                    LDX1    3,DU
         3 000171   300001 741100                    STX1    1,,PR3
         3 000172   000176 710000 3                  TRA     s:2388

      858     2384    2           ELSE DO;

      859     2385    2              CLOSERR.TYPE=%UNEXPECTED;

   2385  3 000173   000001 221003                    LDX1    1,DU
         3 000174   300001 741100                    STX1    1,,PR3

      860     2386    2              GOTO ALT;

   2386  3 000175   000211 710000 3                  TRA     ALT

      861     2387    2              END;
      862     2388    1           IF FKA_MON AND FKA_M$CLOSE_ERR ~= '0'B THEN

   2388  3 000176   000000 234000 xsym               SZN     FKA_MON
         3 000177   000211 605000 3                  TPL     ALT
         3 000200   000000 235000 xsym               LDA     FKA_M$CLOSE_ERR
         3 000201   000211 600000 3                  TZE     ALT

      863     2389    2           DO;                      /* M$CLOSE error found before link to ALTKEY */

PL6.E3A0      #004=FKA$CLOSE File=FKA$ALTKEY.:E05TSI                             TUE 07/29/97 15:32 Page:181
   2385  3 000202                       OLD_ERR      null
      864     2390    2   OLD_ERR:   ;
      865     2391    2              CLOSERR.TYPE=%OLDERR;

   2391  3 000202   000002 220003                    LDX0    2,DU
         3 000203   200003 470500                    LDP0    @CLOSERR,,AUTO
         3 000204   000001 740100                    STX0    1,,PR0

      866     2392    2              CLOSERR.ERR=FKA_M$CLOSE_ERR;

   2392  3 000205   000000 236000 xsym               LDQ     FKA_M$CLOSE_ERR
         3 000206   000000 756100                    STQ     0,,PR0

      867     2393    2              CLOSERR.DCB#=FKA_ALTKEY_BFR.DCB#;

   2393  3 000207   000000 721000 xsym               LXL1    FKA_ALTKEY_BFR
         3 000210   000001 441100                    SXL1    1,,PR0

      868     2394    2              END;                  /* M$CLOSE error found before link to ALTKEY */

      869     2395    1   ALT:    FKA_CLOSE_DONE=%YES#;

   2395  3 000211   400000 236003       ALT          LDQ     -131072,DU
         3 000212   000000 756000 xsym               STQ     FKA_CLOSE_DONE

      870     2396    1           ALTRETURN;

   2396  3 000213   000000 702200 xent               TSX2  ! X66_AALT
      871     2397    1   END FKA$CLOSE;
      872     2398         %EOD;

PL6.E3A0      #004=FKA$CLOSE File=FKA$ALTKEY.:E05TSI                             TUE 07/29/97 15:32 Page:182
--  Include file information  --

   FM_FIELD_C.:E05TOU  is referenced.
   FM$FIT.:E05TOU  is referenced.
   FKA_DATA_R.:E05TOU  cannot be made into a system file and is referenced.
   FK_DATA_C.:E05TOU  is referenced.
   B_ERRORS_C.:E05TOU  is referenced.
   CP_6_SUBS.:E05TOU  is referenced.
   CP_6.:E05TOU  cannot be made into a system file and is referenced.
   B$JIT_C.:E05TOU  was found in the system file and is never referenced.
   CP_6_C.:E05TOU  was found in the system file and is referenced.
      No diagnostics issued in procedure FKA$CLOSE.
PL6.E3A0      #004=FKA$CLOSE File=FKA$ALTKEY.:E05TSI                             TUE 07/29/97 15:32 Page:183

 **** Variables and constants ****

  ****  Section 001 RoData FKA$CLOSE

  ****  Scalars and arrays  ****
OctLoc.c.b A Datatyp(siz) R M Lvl/name                 OctLoc.c.b A Datatyp(siz) R M Lvl/name

    22-0-0/d STRC(504)   r     1 DELETE                     0-0-0/d STRC(144)   r     1 FPT_RELSTARF
     4-0-0/d STRC(504)   r     1 RESTORE

  ****  Section 002  Data  FKA$CLOSE

  ****  Scalars and arrays  ****
OctLoc.c.b A Datatyp(siz) R M Lvl/name                 OctLoc.c.b A Datatyp(siz) R M Lvl/name

     0-0-0/c STRC(90)    r     1 VLP_NAME

  ****  Auto variables  ****

  ****  Scalars and arrays  ****
OctLoc.c.b A Datatyp(siz) R M Lvl/name                 OctLoc.c.b A Datatyp(siz) R M Lvl/name

     3-0-0/w PTR         r     1 @CLOSERR                  *0-0-0/w STRC(72)    r     1 CLOSERR
     4-0-0/w SBIN        r     1 I                          5-0-0/w SBIN        r     1 J

  ****  SYMREF variables  ****

  ****  Scalars and arrays  ****
OctLoc.c.b A Datatyp(siz) R M Lvl/name                 OctLoc.c.b A Datatyp(siz) R M Lvl/name

     0-0-0/w PTR         r     1 B$TCB$                     0-0-0/d STRC(37080) r     1 FKA_ALTKEY_BFR
     0-0-0/b BIT         r     1 FKA_CLOSE_DONE             0-0-0/c CHAR(512)   r     1 FKA_CMDVAR
     0-0-0/b BIT         r     1 FKA_CMDVAR_EXIST           0-0-0/b BIT         r     1 FKA_CMDVAR_SET
     0-0-0/w PTR         r     1 FKA_CODE19$                0-0-0/w PTR         r     1 FKA_CODE20$
     0-0-0/w PTR         r     1 FKA_DCB$                   0-0-0/b BIT         r     1 FKA_FILE_OPEN
     0-0-0/w PTR         r     1 FKA_IRKEYS$                0-0-0/w BIT         r     1 FKA_M$CLOSE_ERR
     0-0-0/b BIT         r     1 FKA_MON
PL6.E3A0      #004=FKA$CLOSE File=FKA$ALTKEY.:E05TSI                             TUE 07/29/97 15:32 Page:184

  ****  BASED and DCB variables  ****

  ****  Scalars and arrays  ****
OctLoc.c.b A Datatyp(siz) R M Lvl/name                 OctLoc.c.b A Datatyp(siz) R M Lvl/name

     0-0-0/w STRC(2448)  r     1 B$ALT                      0-0-0/w STRC(144)   r     1 B$TCB
     0-0-0/w STRC(54)    r     1 CODE19                     0-0-0/w STRC(180)   r     1 CODE20
     0-0-0/d ASTR(3528)  r     1 F$DCB                      0-0-0/w STRC(360)   r     1 IRKEYS


   Procedure FKA$CLOSE requires 140 words for executable code.
   Procedure FKA$CLOSE requires 8 words of local(AUTO) storage.
PL6.E3A0      #004=FKA$CLOSE File=FKA$ALTKEY.:E05TSI                             TUE 07/29/97 15:32 Page:185
          *** CROSS REFERENCE LISTING ***
**     DENOTES     IDENTIFIER DEFINITION
<<                 IDENTIFIER'S VALUE SET
>>                 IDENTIFIER'S VALUE USED
<>                 IDENTIFIER SET AND/OR USED
--                 IDENTIFIER REFERENCED
PL6.E3A0      #004=FKA$CLOSE File=FKA$ALTKEY.:E05TSI                             TUE 07/29/97 15:32 Page:186
          MINI XREF LISTING

ALT
      2395**LABEL    2386--GOTO
B$ALT.CODE
      2326**DCL      2326--REDEF    2327--REDEF    2327--REDEF
B$ALT.DCB#
      2327**DCL      2381>>ASSIGN
B$ALT.ERR
      2327**DCL      2380>>ASSIGN
B$ALT.ERR.CODE
      2328**DCL      2382>>IF
B$ALT.ERR.ERR#
      2328**DCL      2328--REDEF
B$ALT.EVID
      2327**DCL      2327--REDEF    2327--REDEF
B$TCB.ALT$
      2322**DCL      2380>>ASSIGN   2381>>ASSIGN   2382>>IF
B$TCB$
      2333**DCL      2380>>ASSIGN   2381>>ASSIGN   2382>>IF
CLOSERR
      2147**DCL        41--PROC     2341<<ASSIGN
CLOSERR.DCB#
      2150**DCL      2381<<ASSIGN   2393<<ASSIGN
CLOSERR.ERR
      2148**DCL      2380<<ASSIGN   2392<<ASSIGN
CLOSERR.TYPE
      2149**DCL      2383<<ASSIGN   2385<<ASSIGN   2391<<ASSIGN
CLSERR
      2377**LABEL    2374--CALLALT
CODE19.K.KEYEND
      2312**DCL      2346>>DOWHILE  2353>>DOWHILE
CODE19.K.UNIQUE
      2312**DCL      2352<<ASSIGN
PL6.E3A0      #004=FKA$CLOSE File=FKA$ALTKEY.:E05TSI                             TUE 07/29/97 15:32 Page:187
CODE20.K.LDA
      2308**DCL      2351<<ASSIGN
CODE20.NKEYS
      2307**DCL      2350>>DOINDEX
DELETE
      2196**DCL      2368<>CALL
DELETE.V
      2198**DCL      2196--DCLINIT
F$DCB.ACTPOS
      2262**DCL      2262--REDEF
F$DCB.ARS#
      2236**DCL      2236--REDEF
F$DCB.ATTR
      2255**DCL      2256--REDEF
F$DCB.BORROW
      2270**DCL      2270--REDEF    2270--REDEF    2270--REDEF
F$DCB.DCBNAME.L
      2284**DCL      2284--IMP-SIZ
F$DCB.EOMCHAR#
      2240**DCL      2240--REDEF
F$DCB.FLDID
      2265**DCL      2265--REDEF
F$DCB.FORM$
      2259**DCL      2259--REDEF
F$DCB.FSECT
      2275**DCL      2275--REDEF
F$DCB.FSN#
      2252**DCL      2252--REDEF    2252--REDEF    2253--REDEF
F$DCB.HEADER$
      2258**DCL      2258--REDEF
F$DCB.IXTNSIZE#
      2256**DCL      2256--REDEF
F$DCB.LASTSTA$
      2245**DCL      2245--REDEF
F$DCB.LVL
      2271**DCL      2271--REDEF
PL6.E3A0      #004=FKA$CLOSE File=FKA$ALTKEY.:E05TSI                             TUE 07/29/97 15:32 Page:188
F$DCB.NAME#.C
      2246**DCL      2246--REDEF
F$DCB.NOEOF
      2268**DCL      2268--REDEF
F$DCB.NRECS#
      2257**DCL      2257--REDEF
F$DCB.NRECX
      2276**DCL      2276--REDEF
F$DCB.OHDR
      2268**DCL      2268--REDEF
F$DCB.ORG#
      2251**DCL      2251--REDEF    2342>>IF
F$DCB.PRECNO
      2274**DCL      2274--REDEF
F$DCB.RCSZ
      2280**DCL      2280--REDEF
F$DCB.RES#
      2247**DCL      2247--REDEF
F$DCB.SETX
      2259**DCL      2259--REDEF
F$DCB.TAB$
      2259**DCL      2259--REDEF
F$DCB.TDA
      2273**DCL      2274--REDEF
F$DCB.WSN#
      2247**DCL      2247--REDEF
FKA_ALTKEY_BFR
      2287**DCL      2164--DCLINIT
FKA_ALTKEY_BFR.CODE
      2292**DCL      2372<<ASSIGN
FKA_ALTKEY_BFR.DCB#
      2288**DCL      2393>>ASSIGN
FKA_CLOSE_DONE
      1882**DCL      2339>>IF       2377<<ASSIGN   2395<<ASSIGN
FKA_CMDVAR
      1881**DCL      2180--DCLINIT
PL6.E3A0      #004=FKA$CLOSE File=FKA$ALTKEY.:E05TSI                             TUE 07/29/97 15:32 Page:189
FKA_CMDVAR_EXIST
      1881**DCL      2362>>IF
FKA_CMDVAR_SET
      1881**DCL      2360>>IF
FKA_CODE19$
      1877**DCL      2312--IMP-PTR  2346>>DOWHILE  2352>>ASSIGN   2353>>DOWHILE
FKA_CODE20$
      1877**DCL      2307--IMP-PTR  2350>>DOINDEX  2351>>ASSIGN
FKA_DCB$
      1878**DCL      2230--IMP-PTR  2342>>IF
FKA_FILE_OPEN
      1881**DCL      2373>>IF
FKA_IRKEYS$
      1876**DCL      2315--IMP-PTR  2351>>ASSIGN   2352>>ASSIGN
FKA_M$CLOSE_ERR
      1882**DCL      2375>>IF       2388>>IF       2392>>ASSIGN
FKA_MON
      1875**DCL      2375>>IF       2388>>IF
FPT_RELSTARF
      2163**DCL      2374<>CALL
I
      2335**DCL      2350<<DOINDEX  2351>>ASSIGN   2351>>ASSIGN   2352>>ASSIGN
IGNORE
      2372**LABEL    2364--CALLALT  2368--CALLALT
IRKEYS.K.LDA
      2319**DCL      2351>>ASSIGN
IRKEYS.K.UNIQUE
      2317**DCL      2352>>ASSIGN
J
      2336**DCL      2344<<ASSIGN   2346>>DOWHILE  2347<<ASSIGN   2347>>ASSIGN   2349<<ASSIGN   2349>>ASSIGN
      2352>>ASSIGN   2353>>DOWHILE  2354<<ASSIGN   2354>>ASSIGN   2356<<ASSIGN   2356>>ASSIGN
M$CMDVAR
       120**DCL-ENT  2364--CALL     2368--CALL
M$RELSTARF
        60**DCL-ENT  2374--CALL
OLD_ERR
PL6.E3A0      #004=FKA$CLOSE File=FKA$ALTKEY.:E05TSI                             TUE 07/29/97 15:32 Page:190
      2385**LABEL    2376--GOTO
RESTORE
      2179**DCL      2364<>CALL
RESTORE.V
      2181**DCL      2179--DCLINIT
VLP_NAME
      2227**DCL      2179--DCLINIT  2196--DCLINIT
PL6.E3A0      #004=FKA$CLOSE File=FKA$ALTKEY.:E05TSI                             TUE 07/29/97 15:32 Page:191
              *** CROSS REFERENCE LISTING ***
    **     DENOTES     IDENTIFIER DEFINITION
    <<                 IDENTIFIER'S VALUE SET
    >>                 IDENTIFIER'S VALUE USED
    <>                 IDENTIFIER SET AND/OR USED
    --                 IDENTIFIER REFERENCED
PL6.E3A0      #004=FKA$CLOSE File=FKA$ALTKEY.:E05TSI                             TUE 07/29/97 15:32 Page:192
              MINI UREF LISTING

FKA$CLOSE      41**PROC
FKA_ALTKEYS$    1875**DCL
FKA_BOUND    1878**DCL
FKA_DATA_BUF    1880**DCL
FKA_DATA_BUF$    1880**DCL
FKA_DATA_GRAN    1878**DCL
FKA_DUPS    1879**DCL
FKA_FIELD_START_DATA    1876**DCL
FKA_INDEX_BUF    1879**DCL
FKA_INDEX_BUF$    1880**DCL
FKA_INDEX_GRAN    1878**DCL
FKA_IRKEYS_DATA    1876**DCL
FKA_KEYSIZE    1879**DCL
FKA_KFIELD$    1877**DCL
FKA_KFIELD_DATA    1877**DCL
FKA_KTPTR$    1878**DCL
FKA_NUMKEYS    1879**DCL
FKA_RECFIELD$    1875**DCL
FKA_RECSIZE    1879**DCL
FKA_START$    1875**DCL
FKA_UNIQUE    1875**DCL
M$ACCT      68**DCL-ENT
M$ACTIVATE      71**DCL-ENT
M$ALIB      64**DCL-ENT
M$ASUSER      66**DCL-ENT
M$ATTACH      73**DCL-ENT
M$BADPP      91**DCL-ENT
M$CGCTL      72**DCL-ENT
M$CGINFO      72**DCL-ENT
M$CHECK      53**DCL-ENT
M$CHGUNIT     111**DCL-ENT
M$CLOSE      51**DCL-ENT
PL6.E3A0      #004=FKA$CLOSE File=FKA$ALTKEY.:E05TSI                             TUE 07/29/97 15:32 Page:193
M$CLRSTK     109**DCL-ENT
M$CONFIG      81**DCL-ENT
M$CORRES      56**DCL-ENT
M$CPEXIT      65**DCL-ENT
M$CVM      89**DCL-ENT
M$CVOL      54**DCL-ENT
M$DCLFLD      81**DCL-ENT
M$DEACTIVATE      71**DCL-ENT
M$DELREC      53**DCL-ENT
M$DEQ     118**DCL-ENT
M$DETACH      73**DCL-ENT
M$DEVICE      55**DCL-ENT
M$DISPLAY     118**DCL-ENT
M$DISPRES      58**DCL-ENT
M$DLIB      64**DCL-ENT
M$DRIBBLE      81**DCL-ENT
M$DRTN     109**DCL-ENT
M$DSUSER      66**DCL-ENT
M$ENQ     117**DCL-ENT
M$EOM      76**DCL-ENT
M$ERASE      82**DCL-ENT
M$ERR      63**DCL-ENT
M$ERRMSG     114**DCL-ENT
M$EVENT     106**DCL-ENT
M$EXHUME     115**DCL-ENT
M$EXIT      63**DCL-ENT
M$EXTEND      55**DCL-ENT
M$FDP      87**DCL-ENT
M$FDS      86**DCL-ENT
M$FEBOOT      79**DCL-ENT
M$FECTL      80**DCL-ENT
M$FEDUMP      79**DCL-ENT
M$FID     114**DCL-ENT
M$FINDPROC      68**DCL-ENT
M$FSUSER      66**DCL-ENT
M$FVP      88**DCL-ENT
PL6.E3A0      #004=FKA$CLOSE File=FKA$ALTKEY.:E05TSI                             TUE 07/29/97 15:32 Page:194
M$FWCG      72**DCL-ENT
M$GBPL      92**DCL-ENT
M$GDDL      88**DCL-ENT
M$GDP      87**DCL-ENT
M$GDS      86**DCL-ENT
M$GETDCB      57**DCL-ENT
M$GETMOUSE      97**DCL-ENT
M$GETPM      98**DCL-ENT
M$GJOB     116**DCL-ENT
M$GLINEATTR      76**DCL-ENT
M$GOODPP      91**DCL-ENT
M$GPLATEN      84**DCL-ENT
M$GPROMPT      83**DCL-ENT
M$GTRMATTR      77**DCL-ENT
M$GTRMCTL      75**DCL-ENT
M$GTRMTAB      78**DCL-ENT
M$GVP      87**DCL-ENT
M$HELP     114**DCL-ENT
M$INT     106**DCL-ENT
M$INTRTN      67**DCL-ENT
M$IOQ     102**DCL-ENT
M$JOBSTATS     116**DCL-ENT
M$KEYIN      56**DCL-ENT
M$LDEV      51**DCL-ENT
M$LDTRC      64**DCL-ENT
M$LIMIT      57**DCL-ENT
M$LINES      56**DCL-ENT
M$LINK      63**DCL-ENT
M$MADMUCK      59**DCL-ENT
M$MAKUSER      90**DCL-ENT
M$MBS      58**DCL-ENT
M$MDFFLD      82**DCL-ENT
M$MERC     107**DCL-ENT
M$MERCS     108**DCL-ENT
M$MIRROR     102**DCL-ENT
M$MONINFO     119**DCL-ENT
PL6.E3A0      #004=FKA$CLOSE File=FKA$ALTKEY.:E05TSI                             TUE 07/29/97 15:32 Page:195
M$MPL      92**DCL-ENT
M$NODEINFO      83**DCL-ENT
M$NXTUSR     117**DCL-ENT
M$OCMSG     115**DCL-ENT
M$OLAY      63**DCL-ENT
M$OPEN      51**DCL-ENT
M$PAS      92**DCL-ENT
M$PATHCON     115**DCL-ENT
M$PDS      86**DCL-ENT
M$PFIL      53**DCL-ENT
M$PLATEN      77**DCL-ENT
M$PRECORD      55**DCL-ENT
M$PROCNAME      68**DCL-ENT
M$PROFILE      79**DCL-ENT
M$PROMPT      75**DCL-ENT
M$RACST      59**DCL-ENT
M$RDSYSLOG     100**DCL-ENT
M$READ      52**DCL-ENT
M$RELDCB      57**DCL-ENT
M$RELRES      58**DCL-ENT
M$REM      60**DCL-ENT
M$RENV     107**DCL-ENT
M$REQUIRE      59**DCL-ENT
M$RETRY     108**DCL-ENT
M$RETRYS     108**DCL-ENT
M$REW      54**DCL-ENT
M$RLSFLD      82**DCL-ENT
M$RPRIV     110**DCL-ENT
M$RSPP      89**DCL-ENT
M$RSWITCH     111**DCL-ENT
M$RUE     117**DCL-ENT
M$SAD      90**DCL-ENT
M$SAVE      66**DCL-ENT
M$SCON      67**DCL-ENT
M$SCREECH      65**DCL-ENT
M$SENV     107**DCL-ENT
PL6.E3A0      #004=FKA$CLOSE File=FKA$ALTKEY.:E05TSI                             TUE 07/29/97 15:32 Page:196
M$SETFMA      51**DCL-ENT
M$SETFP      80**DCL-ENT
M$SINPUT      78**DCL-ENT
M$SLCFLD      83**DCL-ENT
M$SMOUSE      97**DCL-ENT
M$SMPRT      89**DCL-ENT
M$SPRIV     110**DCL-ENT
M$SSC      90**DCL-ENT
M$SSWITCH     110**DCL-ENT
M$STATE     119**DCL-ENT
M$STD      91**DCL-ENT
M$STIMER     105**DCL-ENT
M$STLPP      88**DCL-ENT
M$STRAP     105**DCL-ENT
M$STRMATTR      77**DCL-ENT
M$STRMCTL      75**DCL-ENT
M$STRMTAB      78**DCL-ENT
M$SYMBIO     116**DCL-ENT
M$SYSCON     102**DCL-ENT
M$SYSID     120**DCL-ENT
M$TDCLOSE     101**DCL-ENT
M$TDIO     101**DCL-ENT
M$TDOPEN     100**DCL-ENT
M$TDREQCPU     101**DCL-ENT
M$TEMPWROC      95**DCL-ENT
M$TIME     118**DCL-ENT
M$TRAP     105**DCL-ENT
M$TRMISC      80**DCL-ENT
M$TRMPRG      76**DCL-ENT
M$TRTN     109**DCL-ENT
M$TRUNC      52**DCL-ENT
M$TTIMER     105**DCL-ENT
M$UC      75**DCL
M$UMPL      92**DCL-ENT
M$UNFID     114**DCL-ENT
M$UNLATCH      71**DCL-ENT
PL6.E3A0      #004=FKA$CLOSE File=FKA$ALTKEY.:E05TSI                             TUE 07/29/97 15:32 Page:197
M$UNSHARE      68**DCL-ENT
M$USRFIELD     111**DCL-ENT
M$VIRTUAL      86**DCL-ENT
M$WAIT     109**DCL-ENT
M$WEOF      54**DCL-ENT
M$WRITE      52**DCL-ENT
M$WRSYSLOG     100**DCL-ENT
M$XCON     106**DCL-ENT
M$XCONRTN      67**DCL-ENT
M$XEQTIME     119**DCL-ENT
M$XFLUSH      60**DCL-ENT
M$XMOUSE      97**DCL-ENT
M$XXX      63**DCL-ENT
M$YC      65**DCL-ENT

