PL6.E3A0      #007=FKA$OUTPUT File=FKA$ALTKEY.:E05TSI                            TUE 07/29/97 15:33 Page:367
     1738        1        /*T***********************************************************/
     1739        2        /*T*                                                         */
     1740        3        /*T* Copyright (c) Bull HN Information Systems Inc., 1997    */
     1741        4        /*T*                                                         */
     1742        5        /*T***********************************************************/
     1743        6        /*F*     NAME:     FKA$OUTPUT
     1744        7                 PURPOSE:  To write a sorted record to the altkey file
     1745        8        */
     1746        9        /*D*     NAME:     FKA$OUTPUT
     1747       10                 CALL:     CALL FKA$OUTPUT(RECORD, RECORD_SIZE)
     1748       11                 INPUT:    RECORD - Sorted key
     1749       12                           RECORD_SIZE - The size of Saturn in acres
     1750       13                 DESCRIPTION:
     1751       14
     1752       15                      Build a pointer to the record.  Pick off the index
     1753       16                 from the first byte of the record.  If it doesn't match
     1754       17                 the current index, then we need to start a new index.
     1755       18                 If this is not the first time through, the write the
     1756       19                 last index granule that we built.  Next, get the FDA
     1757       20                 for the next index.  If there isn't an FDA, then read
     1758       21                 one in.  Set up the size of the key in both bytes, and
     1759       22                 words.  Now, initialize the buffer for the new granule.
     1760       23                 LASTKEY remembers the last key to determine if we build
     1761       24                 a new key, or duplicate key.
     1762       25
     1763       26                      If the record size is zero, then we are done.  Flush
     1764       27                 out the last granule.  Otherwise, write a new key to the
     1765       28                 file.
     1766       29        */
     1767       30         %EJECT;
PL6.E3A0      #007=FKA$OUTPUT File=FKA$ALTKEY.:E05TSI                            TUE 07/29/97 15:33 Page:368
     1768       31        FKA$OUTPUT: PROC(RECORD, RECORD_SIZE) ALTRET;
     1769       32        /* */
     1770       33    1     DCL RECORD CHAR(RECORD_SIZE);
     1771       34    1     DCL RECORD_SIZE SBIN;
     1772       35        /* */
     1773       36         %INCLUDE CP_6;
     1774      117         %INCLUDE CP_6_SUBS;
     1775      657         %INCLUDE FKA_DATA_R;
     1776      673         %INCLUDE FK_DATA_C;
     1777      750         %INCLUDE FM_FIELD_C;
     1778      791         %INCLUDE FM$FIT;
     1779     1012         %INCLUDE FM$GRAN;
     1780     1081         %INCLUDE XU_FORMAT_C;
     1781     1243         %INCLUDE FK_PERR_C;
     1782     1252         %INCLUDE ZL_MACRO_C;
     1783     1902        /* */
     1784     1903         %FPT_READ(FPTN=READ_DATA, BUF=FKA_DATA_BUF, KEYS=YES,
     1785     1904         DCB=M$SI, KEY=FKA_DATA_GRAN, STCLASS=CONSTANT);
     1786     1943         %FPT_READ(FPTN=READ_INDEX, BUF=FKA_INDEX_BUF, KEYS=YES,
     1787     1944         DCB=M$SI, KEY=FKA_INDEX_GRAN, STCLASS=CONSTANT);
     1788     1983         %FPT_WRITE(DCB=M$SI, BUF=FKA_INDEX_BUF,
     1789     1984         KEY=FKA_INDEX_GRAN, STCLASS=CONSTANT);
     1790     2015         %FPT_RELSTARF(ALTKEYS=FKA_ALTKEY_BFR, STCLASS=CONSTANT);
     1791     2030        /* */
     1792     2031    1     DCL M$SI DCB;
     1793     2032    1     DCL M$DO DCB;
     1794     2033        /* */
     1795     2034         %F$DCB(DCBN=F$DCB, STCLASS="BASED(FKA_DCB$)");
     1796     2091         %FM$GRAN(BASED="BASED(FKA_INDEX_BUF$)");
     1797     2095         %FM$KEYTBL(BASED="BASED(FKA_KTPTR$)");
     1798     2098         %FITALTKEYS(BASED="BASED(FKA_ALTKEYS$)");
     1799     2104         %VLP_RECFIELD(FPTN=RECFIELD, STCLASS="BASED(FKA_RECFIELD$)");
     1800     2148         %FK$ALTKEY_BFR(FPTN=FKA_ALTKEY_BFR, STCLASS="SYMREF");
     1801     2168         %FMG$IRKEYS(FPTN=IRKEYS, STCLASS="BASED(FKA_IRKEYS$)");
     1802     2175         %FM$MISEG(BASED="BASED(SEG$)");
     1803     2179         %FM$KEYENT(BASED="BASED(KEY$)");
     1804     2182         %FM$IRENT(BASED="BASED(KEY$)");
PL6.E3A0      #007=FKA$OUTPUT File=FKA$ALTKEY.:E05TSI                            TUE 07/29/97 15:33 Page:369
     1805     2185        /* */
     1806     2186         %SORT_TABLE(STCLASS=SYMREF);
     1807     2295        /* */
     1808     2296    1     DCL XUR$ERRMSG ENTRY(7) ALTRET;
     1809     2297    1     DCL FKA$ABORT ENTRY;
     1810     2298    1     DCL X$WRITE ENTRY(22);
     1811     2299    1     DCL FKA$COMPKEY ENTRY(3);
     1812     2300        /* */
     1813     2301    1     DCL FM_FRZERO UBIN SYMREF;
     1814     2302    1     DCL RECORD$ PTR;
     1815     2303    1     DCL NEXT_GRAN UBIN STATIC;
     1816     2304    1     DCL LAST_GRAN UBIN STATIC;
     1817     2305    1     DCL 1 LASTKEY STATIC,
     1818     2306    1            2 SIZE UBIN(18) CALIGNED,
     1819     2307    1            2 TEXT CHAR(1022) CALIGNED,
     1820     2308    1            2 BINTEXT REDEF TEXT,
     1821     2309    1               3 * CHAR(1022) CALIGNED;
     1822     2310    1     DCL LASTKEY$ PTR CONSTANT INIT(ADDR(LASTKEY.TEXT));
     1823     2311    1     DCL KEYSIZE SBIN STATIC;
     1824     2312    1     DCL KEYWORDS SBIN STATIC;
     1825     2313    1     DCL SEGCNT$ PTR STATIC;
     1826     2314    1     DCL KEYOFF SBIN STATIC;
     1827     2315    1     DCL NEXT_KEY SBIN STATIC;
     1828     2316    1     DCL RESULT SBIN STATIC;
     1829     2317    1     DCL UNIQUE BIT(1);
     1830     2318    1     DCL KEY$ PTR STATIC;
     1831     2319    1     DCL REPORT_INDEX# SBIN STATIC INIT(0);
     1832     2320    1     DCL KEY_SIZE SBIN;
     1833     2321    1     DCL KEY_TEMP(0:1023) UBIN(9) CALIGNED;
     1834     2322    1     DCL FIELD$ PTR;
     1835     2323    1     DCL ASCII BIT(1);
     1836     2324    1     DCL J SBIN;
     1837     2325    1     DCL K SBIN;
     1838     2326    1     DCL N SBIN;
     1839     2327    1     DCL SEG$ PTR;
     1840     2328    1     DCL INDEX# SBIN STATIC INIT(0);
     1841     2329    1     DCL XBUF CHAR(2100) STATIC INIT(' ');
PL6.E3A0      #007=FKA$OUTPUT File=FKA$ALTKEY.:E05TSI                            TUE 07/29/97 15:33 Page:370
     1842     2330        /* */
     1843     2331    1     DCL SORT_REC_INDX UBIN(9) CALIGNED BASED(RECORD$);
     1844     2332    1     DCL SEGCNT UBIN(18) CALIGNED BASED(SEGCNT$);
     1845     2333    1     DCL 1 CHAR8 CALIGNED BASED,
     1846     2334    1            2 * CHAR(8);
     1847     2335    1     DCL TEXT CHAR(KEYSIZE) CALIGNED BASED;
     1848     2336    1     DCL 1 CLEAN_GRAN BASED,
     1849     2337    1            2 * CHAR(20),
     1850     2338    1            2 GRAN(0:1018) UBIN;
     1851     2339    1     DCL TEMPA(0:0) UBIN(9) CALIGNED BASED;
     1852     2340        /* */
     1853     2341         %EQU EQUAL=0;
     1854     2342         %EQU NOTEQUAL=1;
     1855     2343        /* */
     1856     2344    1           RECORD$=ADDR(RECORD);
     1857     2345    1           IF SORT_REC_INDX ~= INDEX# AND RECORD_SIZE > 0 THEN
     1858     2346    2           DO;                             /* NEW INDEX                          */
     1859     2347    2              IF INDEX# > 0 THEN
     1860     2348    2                 CALL M$WRITE(FPT_WRITE) ALTRET(ABORT);
     1861     2349    2              INDEX#=SORT_REC_INDX;
     1862     2350    2              IF F$DCB.ORG# = %INDEXED# THEN
     1863     2351    2                 FKA_INDEX_GRAN=FITALTKEYS.K.FDA(INDEX#);
     1864     2352    2              ELSE
     1865     2353    2                 FKA_INDEX_GRAN=IRKEYS.K.FDA(INDEX#);
     1866     2354
     1867     2355    2              IF FKA_INDEX_GRAN ~= 0 THEN
     1868     2356    3              DO;                          /* READ FIRST GRAN                    */
     1869     2357    3                 FKA_INDEX_GRAN=FKA_INDEX_GRAN-FM_FRZERO;
     1870     2358    3                 CALL M$READ(READ_INDEX) ALTRET(ABORT);
     1871     2359    3                 END;                      /* READ FIRST GRAN                    */
     1872     2360    2              ELSE
     1873     2361    3              DO;                          /* ALLOCATE FIRST GRAN                */
     1874     2362    3                 FKA_ALTKEY_BFR.CODE=%ALTKEY_EXTEND#;
     1875     2363    3                 CALL M$RELSTARF(FPT_RELSTARF) ALTRET(ABORT);
     1876     2364    3                 FKA_INDEX_GRAN=FKA_ALTKEY_BFR.DA-FM_FRZERO;
     1877     2365    3                 FM$GRAN.FLINK=0;
     1878     2366    3                 END;                      /* ALLOCATE FIRST GRAN                */
PL6.E3A0      #007=FKA$OUTPUT File=FKA$ALTKEY.:E05TSI                            TUE 07/29/97 15:33 Page:371
     1879     2367
     1880     2368    2              IF F$DCB.ORG# = %INDEXED# THEN
     1881     2369    3              DO;                          /* INDEXED                            */
     1882     2370    3                 KEYSIZE=FITALTKEYS.K.KEYL(INDEX#);
     1883     2371    3                 KEYWORDS=(KEYSIZE+4)/4;
     1884     2372    3                 END;                      /* INDEXED                            */
     1885     2373    2              ELSE
     1886     2374    3              DO;                          /* IREL                               */
     1887     2375    3                 KEYSIZE=IRKEYS.K.KEYL(INDEX#);
     1888     2376    3                 KEYWORDS=(KEYSIZE+5)/4;
     1889     2377    3                 END;                      /* IREL                               */
     1890     2378
     1891     2379    2              NEXT_GRAN=FM$GRAN.FLINK;
     1892     2380    2              LAST_GRAN=0;
     1893     2381    2              CALL INIT_GRAN;
     1894     2382    2              LASTKEY.SIZE=0;
     1895     2383    2              LASTKEY.BINTEXT='0'B;
     1896     2384    2              END;                         /* NEW INDEX                          */
     1897     2385
     1898     2386    1           IF RECORD_SIZE > 0 THEN
     1899     2387    1              CALL WRITE_RECORD;
     1900     2388    1           ELSE
     1901     2389    1              CALL M$WRITE(FPT_WRITE) ALTRET(ABORT);
     1902     2390    1           RETURN;
     1903     2391    1   ABORT:  CALL FKA$ABORT;
     1904     2392         %EJECT;
PL6.E3A0      #007=FKA$OUTPUT File=FKA$ALTKEY.:E05TSI                            TUE 07/29/97 15:33 Page:372
     1905     2393        /*I*     NAME:     ADDKEY
     1906     2394                 PURPOSE:  To add a new key to the file
     1907     2395                 DESCRIPTION:
     1908     2396
     1909     2397                      Compare the last key with the current key.  If
     1910     2398                 they are equal, then build a new segment.  Otherwise,
     1911     2399                 build a new key.  If the key was specified as unique,
     1912     2400                 then indicate an error as well and reset the unique indicator
     1913     2401                 for the key.
     1914     2402        */
     1915     2403         %EJECT;
PL6.E3A0      #007=FKA$OUTPUT File=FKA$ALTKEY.:E05TSI                            TUE 07/29/97 15:33 Page:373
     1916     2404    1   ADDKEY:    PROC;
     1917     2405        /* */
     1918     2406    2              RESULT=%NOTEQUAL;
     1919     2407    3              IF LASTKEY.SIZE ~= 0 THEN DO; /* Compare current and last keys     */
     1920     2408    3                 IF F$DCB.ORG# = %INDEXED# OR /* INDEXED or degenerate IREL case. */
     1921     2409    3                     SORT_TABLE.SECONDARY.KCE$ = ENTADDR(NIL) OR
     1922     2410    4                     IRKEYS.K.DEGENERATE(INDEX#) THEN DO;
     1923     2411    4                    IF RECORD$->TEXT ~= LASTKEY$->TEXT THEN
     1924     2412    4                       RESULT=%NOTEQUAL;
     1925     2413    4                    ELSE
     1926     2414    4                       RESULT=%EQUAL;
     1927     2415    4                    END;
     1928     2416    4                 ELSE DO;                  /* Complex IREL compare               */
     1929     2417    4                    RESULT=INDEX#;
     1930     2418    4                    CALL FKA$COMPKEY(RECORD$->TEXT, LASTKEY$->TEXT, RESULT);
     1931     2419    4                    END;
     1932     2420    3                 END;
     1933     2421
     1934     2422    2              IF RESULT = %EQUAL THEN
     1935     2423    3              DO;                          /* DUPLICATE KEY                      */
     1936     2424    3                 IF FKA_UNIQUE(INDEX#) THEN
     1937     2425    4                 DO;                       /* It's not really unique             */
     1938     2426    4                    FKA_DUPS=%YES#;
     1939     2427    4                    FKA_UNIQUE(INDEX#)=%NO#;
     1940     2428    4                    END;                   /* It's not really unique             */
     1941     2429
     1942     2430    3                 CALL ADDSEG;
     1943     2431    3                 END;                      /* DUPLICATE KEY                      */
     1944     2432    2              ELSE
     1945     2433    2                 CALL NEWKEY;
     1946     2434
     1947     2435    2              RETURN;
     1948     2436    2      END ADDKEY;
     1949     2437         %EJECT;
PL6.E3A0      #007=FKA$OUTPUT File=FKA$ALTKEY.:E05TSI                            TUE 07/29/97 15:33 Page:374
     1950     2438        /*I*     NAME:     ADDSEG
     1951     2439                 PURPOSE:  To add a new segment to a file
     1952     2440                 DESCRIPTION:
     1953     2441
     1954     2442                      If we ran out of space, then allocate a new granule.
     1955     2443                 Increment the record pointer to the MISEG.  Store the
     1956     2444                 MISEG in the file.  Update our counters and pointers.
     1957     2445        */
     1958     2446    1   ADDSEG:    PROC;
     1959     2447        /* */
     1960     2448    2              IF FM$GRAN.AVAIL < F$DCB.SPARE#+2 THEN
     1961     2449    2                 CALL ALLOCATE;
     1962     2450
     1963     2451    2              RECORD$=PINCRC(RECORD$, FKA_KEYSIZE+6);
     1964     2452    2              KEY$->FM$MISEG=RECORD$->CHAR8;
     1965     2453    2              KEY$=PINCRW(KEY$, 2);
     1966     2454    2              FM$GRAN.AVAIL=FM$GRAN.AVAIL-2;
     1967     2455    2              FM$GRAN.NAVX=FM$GRAN.NAVX+2;
     1968     2456    2              KEYOFF=KEYOFF+2;
     1969     2457
     1970     2458    2              RETURN;
     1971     2459    2      END ADDSEG;
     1972     2460         %EJECT;
PL6.E3A0      #007=FKA$OUTPUT File=FKA$ALTKEY.:E05TSI                            TUE 07/29/97 15:33 Page:375
     1973     2461        /*I*     NAME:     ALLOCATE
     1974     2462                 PURPOSE:  To allocate a new granule
     1975     2463                 DESCRIPTION:
     1976     2464
     1977     2465                      If there is no next granule, then call M$RELSTARF
     1978     2466                 to do a sleazy extend of the file.  Otherwise, read
     1979     2467                 the next granule, and save the flink.  In both cases,
     1980     2468                 initialize the granule.
     1981     2469        */
     1982     2470         %EJECT;
PL6.E3A0      #007=FKA$OUTPUT File=FKA$ALTKEY.:E05TSI                            TUE 07/29/97 15:33 Page:376
     1983     2471    1   ALLOCATE:  PROC;
     1984     2472        /* */
     1985     2473    2              IF NEXT_GRAN = 0 THEN
     1986     2474    3              DO;                          /* ALLOCATE ANOTHER GRANULE           */
     1987     2475    3                 FKA_ALTKEY_BFR.CODE=%ALTKEY_EXTEND#;
     1988     2476    3                 CALL M$RELSTARF(FPT_RELSTARF) ALTRET(ABORT);
     1989     2477
     1990     2478    3                 FM$GRAN.FLINK=FKA_ALTKEY_BFR.DA;
     1991     2479    3                 CALL M$WRITE(FPT_WRITE) ALTRET(ABORT);
     1992     2480    3                 FKA_INDEX_GRAN=FKA_ALTKEY_BFR.DA-FM_FRZERO;
     1993     2481    3                 CALL INIT_GRAN;
     1994     2482    3                 END;                      /* ALLOCATE ANOTHER GRANULE           */
     1995     2483    2              ELSE
     1996     2484    3              DO;                          /* GET NEXT GRAN                      */
     1997     2485    3                 FM$GRAN.FLINK=NEXT_GRAN;
     1998     2486    3                 CALL M$WRITE(FPT_WRITE) ALTRET(ABORT);
     1999     2487
     2000     2488    3                 FKA_INDEX_GRAN=NEXT_GRAN-FM_FRZERO;
     2001     2489    3                 CALL M$READ(READ_INDEX) ALTRET(ABORT);
     2002     2490
     2003     2491    3                 NEXT_GRAN=FM$GRAN.FLINK;
     2004     2492    3                 CALL INIT_GRAN;
     2005     2493    3                 END;                      /* GET NEXT GRAN                      */
     2006     2494
     2007     2495    2              RETURN;
     2008     2496    2   ABORT:     CALL FKA$ABORT;
     2009     2497    2      END ALLOCATE;
     2010     2498         %EJECT;
PL6.E3A0      #007=FKA$OUTPUT File=FKA$ALTKEY.:E05TSI                            TUE 07/29/97 15:33 Page:377
     2011     2499        /*I*     NAME:     INIT_GRAN
     2012     2500                 PURPOSE:  To initialize a granule buffer
     2013     2501                 DESCRIPTION:
     2014     2502
     2015     2503                      First, clean out all but the header.  Set
     2016     2504                 the GMOD part of the stamp to the DA of the granule.
     2017     2505                 Set the FLINK and BLINK.  If this is the first granule
     2018     2506                 allocated for this index, then set the FDA.
     2019     2507
     2020     2508                      Set the LDA.  This is currently the last granule
     2021     2509                 in this index now.
     2022     2510
     2023     2511                      Initialize some more of the header, and set up
     2024     2512                 the key table.
     2025     2513        */
     2026     2514         %EJECT;
PL6.E3A0      #007=FKA$OUTPUT File=FKA$ALTKEY.:E05TSI                            TUE 07/29/97 15:33 Page:378
     2027     2515    1   INIT_GRAN: PROC;
     2028     2516        /* */
     2029     2517    2              FKA_INDEX_BUF$->CLEAN_GRAN.GRAN='0'B;
     2030     2518    2              FM$GRAN.STAMP.GMOD=FKA_INDEX_GRAN;
     2031     2519    2              FM$GRAN.BLINK=LAST_GRAN;
     2032     2520    2              FM$GRAN.FLINK=0;
     2033     2521    2              IF LAST_GRAN = 0 THEN
     2034     2522    3              DO;                          /* SET FDA                            */
     2035     2523    3                 IF F$DCB.ORG# = %INDEXED# THEN
     2036     2524    3                    FITALTKEYS.K.FDA(INDEX#)=FKA_INDEX_GRAN+FM_FRZERO;
     2037     2525    3                 ELSE
     2038     2526    3                    IRKEYS.K.FDA(INDEX#)=FKA_INDEX_GRAN+FM_FRZERO;
     2039     2527    3                 END;                      /* SET FDA                            */
     2040     2528
     2041     2529    2              IF F$DCB.ORG# = %INDEXED# THEN
     2042     2530    2                 FITALTKEYS.K.LDA(INDEX#)=FKA_INDEX_GRAN+FM_FRZERO;
     2043     2531    2              ELSE
     2044     2532    2                 IRKEYS.K.LDA(INDEX#)=FKA_INDEX_GRAN+FM_FRZERO;
     2045     2533
     2046     2534    2              LAST_GRAN=FKA_INDEX_GRAN+FM_FRZERO;
     2047     2535    2              FM$GRAN.FCEX=SIZEW(FM$GRAN);
     2048     2536    2              FM$GRAN.KEYCNT=0;
     2049     2537    2              FKA_KTPTR$=PINCRW(FKA_INDEX_BUF$, SIZEW(FM$GRAN));
     2050     2538    2              FM$KEYTBL(0)=SIZEC(FM$KEYTBL);
     2051     2539    2              KEY$=PINCRW(FKA_KTPTR$, SIZEW(FM$KEYTBL));
     2052     2540    2              FM$GRAN.AVAIL=1024-POFFW(KEY$, FKA_INDEX_BUF$);
     2053     2541    2              FM$GRAN.NAVX=POFFW(KEY$, FKA_INDEX_BUF$);
     2054     2542    2              NEXT_KEY=1;
     2055     2543    2              KEYOFF=FM$GRAN.NAVX;
     2056     2544
     2057     2545    2              RETURN;
     2058     2546    2      END INIT_GRAN;
     2059     2547         %EJECT;
PL6.E3A0      #007=FKA$OUTPUT File=FKA$ALTKEY.:E05TSI                            TUE 07/29/97 15:33 Page:379
     2060     2548        /*I*     NAME:     NEWKEY
     2061     2549                 PURPOSE:  To build a new key in the file
     2062     2550                 DESCRIPTION:
     2063     2551
     2064     2552                      If we don't have space for the new key, then
     2065     2553                 allocate a new granule.  Move the information from
     2066     2554                 the sorted record to the index buffer.
     2067     2555
     2068     2556                      Save this as the last key now.  Update the key
     2069     2557                 table and granule header information.
     2070     2558        */
     2071     2559         %EJECT;
PL6.E3A0      #007=FKA$OUTPUT File=FKA$ALTKEY.:E05TSI                            TUE 07/29/97 15:33 Page:380
     2072     2560    1   NEWKEY:    PROC;
     2073     2561        /* */
     2074     2562    2              IF FM$GRAN.AVAIL < F$DCB.SPARE#+KEYWORDS+2 OR FM$GRAN.KEYCNT+1 > 279 THEN
     2075     2563    2                 CALL ALLOCATE;
     2076     2564
     2077     2565    2              IF F$DCB.ORG# = %INDEXED# THEN
     2078     2566    3              DO;                          /* INDEXED FILE                       */
     2079     2567    3                 FM$KEYENT.KLB=KEYSIZE;
     2080     2568    3                 FM$KEYENT.TXT=RECORD$->TEXT;
     2081     2569    3                 END;                      /* INDEXED FILE                       */
     2082     2570    2              ELSE
     2083     2571    3              DO;                          /* IREL FILE                          */
     2084     2572    3                 FM$IRENT.KLB=KEYSIZE;
     2085     2573    3                 FM$IRENT.TXT=RECORD$->TEXT;
     2086     2574    3                 END;                      /* IREL FILE                          */
     2087     2575
     2088     2576    2              LASTKEY.SIZE=KEYSIZE;
     2089     2577    2              LASTKEY.TEXT=RECORD$->TEXT;
     2090     2578    2              KEY$=PINCRW(KEY$, KEYWORDS);
     2091     2579    2              RECORD$=PINCRC(RECORD$, FKA_KEYSIZE+6);
     2092     2580    2              KEY$->FM$MISEG=RECORD$->CHAR8;
     2093     2581    2              FM$GRAN.KEYCNT=FM$GRAN.KEYCNT+1;
     2094     2582    2              FM$GRAN.AVAIL=FM$GRAN.AVAIL-KEYWORDS-2;
     2095     2583    2              FM$GRAN.NAVX=FM$GRAN.NAVX+KEYWORDS+2;
     2096     2584
     2097     2585    2              IF KEYOFF >= 512 AND FM$KEYTBL(0) = SIZEC(FM$KEYTBL) THEN
     2098     2586    3              DO;                          /* SET BOUND                          */
     2099     2587    3                 KEYOFF=KEYOFF-512;
     2100     2588    3                 FM$KEYTBL(0)=NEXT_KEY;
     2101     2589    3                 END;                      /* SET BOUND                          */
     2102     2590
     2103     2591    2              FM$KEYTBL(NEXT_KEY)=KEYOFF;
     2104     2592    2              KEYOFF=KEYOFF+KEYWORDS+2;
     2105     2593    2              NEXT_KEY=NEXT_KEY+1;
     2106     2594    2              KEY$=PINCRW(KEY$, 2);
     2107     2595
     2108     2596    2              RETURN;
PL6.E3A0      #007=FKA$OUTPUT File=FKA$ALTKEY.:E05TSI                            TUE 07/29/97 15:33 Page:381
     2109     2597    2      END NEWKEY;
     2110     2598         %EJECT;
PL6.E3A0      #007=FKA$OUTPUT File=FKA$ALTKEY.:E05TSI                            TUE 07/29/97 15:33 Page:382
     2111     2599        /*I*     NAME:     WRITE_RECORD
     2112     2600                 PURPOSE:  To write a record to an index granule
     2113     2601                 DESCRIPTION:
     2114     2602
     2115     2603                      Increment the record pointer to the key information.
     2116     2604                 If this is the first segment, then add a key.  Otherwise,
     2117     2605                 add a segment.
     2118     2606        */
     2119     2607         %EJECT;
PL6.E3A0      #007=FKA$OUTPUT File=FKA$ALTKEY.:E05TSI                            TUE 07/29/97 15:33 Page:383
     2120     2608    1   WRITE_RECORD: PROC;
     2121     2609        /* */
     2122     2610    2              RECORD$=PINCRC(RECORD$, 1);
     2123     2611
     2124     2612    2              SEGCNT$=PINCRC(RECORD$, FKA_KEYSIZE+4);
     2125     2613    2              IF SEGCNT = 0 THEN
     2126     2614    2                 CALL ADDKEY;
     2127     2615    2              ELSE
     2128     2616    2                 CALL ADDSEG;
     2129     2617
     2130     2618    2              RETURN;
     2131     2619    2      END WRITE_RECORD;
     2132     2620    1   END FKA$OUTPUT;
     2133     2621         %EOD;

PL6.E3A0      #007=FKA$OUTPUT File=FKA$ALTKEY.:E05TSI                            TUE 07/29/97 15:33 Page:384
--  Include file information  --

   ZL_MACRO_C.:TOOLE04  is referenced.
   FK_PERR_C.:E05TOU  is referenced.
   XU_FORMAT_C.:E05TOU  is referenced.
   FM$GRAN.:E05TOU  is referenced.
   FM$FIT.:E05TOU  is referenced.
   FM_FIELD_C.:E05TOU  is referenced.
   FK_DATA_C.:E05TOU  is referenced.
   FKA_DATA_R.:E05TOU  cannot be made into a system file and is referenced.
   CP_6_SUBS.:E05TOU  is referenced.
   CP_6.:E05TOU  cannot be made into a system file and is referenced.
   B$JIT_C.:E05TOU  was found in the system file and is never referenced.
   CP_6_C.:E05TOU  was found in the system file and is referenced.
      No diagnostics issued in procedure FKA$OUTPUT.

   Procedure FKA$OUTPUT requires 503 words for executable code.
   Procedure FKA$OUTPUT requires 284 words of local(AUTO) storage.

PL6.E3A0      #007=FKA$OUTPUT File=FKA$ALTKEY.:E05TSI                            TUE 07/29/97 15:33 Page:385

 Object Unit name= FKA$OUTPUT                                 File name= FKA$ALTKEY.:E05TOU
 UTS= JUL 29 '97 15:33:05.28 TUE                              Compiler= PL-6/E31         Sev=      00
 SharedLib= :SHARED_SYSTEM                                    Alt SharedLib=


    ****  Control sections  ****

 Sect   Type Bound  Init  Size OctSiz  Section name(segment info)
    0   DCB   even  none     0      0  M$UC
    1  RoData even  UTS     45     55  FKA$OUTPUT
    2   DCB   even  none     0      0  M$SI
    3   DCB   even  none     0      0  M$DO
    4   Data  even  none   792   1430  FKA$OUTPUT
    5   Proc  even  none   503    767  FKA$OUTPUT
    6  RoData even  none     3      3  FKA$OUTPUT

    ****  Entry defs  ****

                              Check   Calling
                             calling  sequence
  Sect OctLoc Primary Altret sequence   type   Parms  Name
     5      0   yes    yes     yes      Std        2  FKA$OUTPUT

  ****  Entry refs  ****

         Check        Calling
        calling       sequence
Altret sequence SRef   type   Args  Name
         yes           Std       0 FKA$ABORT
         yes           Std       3 FKA$COMPKEY
                       nStd      0 X66_AUTO_2
                       Std       0 B_CONSPOOL_D
                       nStd      0 X66_ARET
PL6.E3A0      #007=FKA$OUTPUT File=FKA$ALTKEY.:E05TSI                            TUE 07/29/97 15:33 Page:386

  ****  Data refs  ****

  Flags:  r = read only, s = secondary
Flgs Name                             Flgs Name                             Flgs Name
     M$UC                                  FKA_UNIQUE                            FKA_ALTKEYS$
     FKA_RECFIELD$                    r    FKA_IRKEYS$                           FKA_INDEX_GRAN
     FKA_DATA_GRAN                         FKA_KTPTR$                            FKA_DCB$
     FKA_KEYSIZE                           FKA_DUPS                              FKA_INDEX_BUF
r    FKA_INDEX_BUF$                        FKA_DATA_BUF                          M$SI
     M$DO                                  FKA_ALTKEY_BFR                        SORT_TABLE
     FM_FRZERO                             B_VECTNIL

  ****  Segment refs  ****

  Flags:  r = read only, s = secondary
Flgs Name                             Flgs Name                             Flgs Name
     ISSID                                 NULLSID
PL6.E3A0      #007=FKA$OUTPUT File=FKA$ALTKEY.:E05TSI                            TUE 07/29/97 15:33 Page:387


     1738        1        /*T***********************************************************/
     1739        2        /*T*                                                         */
     1740        3        /*T* Copyright (c) Bull HN Information Systems Inc., 1997    */
     1741        4        /*T*                                                         */
     1742        5        /*T***********************************************************/
     1743        6        /*F*     NAME:     FKA$OUTPUT
     1744        7                 PURPOSE:  To write a sorted record to the altkey file
     1745        8        */
     1746        9        /*D*     NAME:     FKA$OUTPUT
     1747       10                 CALL:     CALL FKA$OUTPUT(RECORD, RECORD_SIZE)
     1748       11                 INPUT:    RECORD - Sorted key
     1749       12                           RECORD_SIZE - The size of Saturn in acres
     1750       13                 DESCRIPTION:
     1751       14
     1752       15                      Build a pointer to the record.  Pick off the index
     1753       16                 from the first byte of the record.  If it doesn't match
     1754       17                 the current index, then we need to start a new index.
     1755       18                 If this is not the first time through, the write the
     1756       19                 last index granule that we built.  Next, get the FDA
     1757       20                 for the next index.  If there isn't an FDA, then read
     1758       21                 one in.  Set up the size of the key in both bytes, and
     1759       22                 words.  Now, initialize the buffer for the new granule.
     1760       23                 LASTKEY remembers the last key to determine if we build
     1761       24                 a new key, or duplicate key.
     1762       25
     1763       26                      If the record size is zero, then we are done.  Flush
     1764       27                 out the last granule.  Otherwise, write a new key to the
     1765       28                 file.
     1766       29        */
     1767       30         %EJECT;
PL6.E3A0      #007=FKA$OUTPUT File=FKA$ALTKEY.:E05TSI                            TUE 07/29/97 15:33 Page:388
     1768       31        FKA$OUTPUT: PROC(RECORD, RECORD_SIZE) ALTRET;

     31  5 000000   000000 700200 xent  FKA$OUTPUT   TSX0  ! X66_AUTO_2
         5 000001   000434 000002                    ZERO    284,2

     1769       32        /* */
     1770       33    1     DCL RECORD CHAR(RECORD_SIZE);
     1771       34    1     DCL RECORD_SIZE SBIN;
     1772       35        /* */
     1773       36         %INCLUDE CP_6;
     1774      117         %INCLUDE CP_6_SUBS;
     1775      657         %INCLUDE FKA_DATA_R;
     1776      673         %INCLUDE FK_DATA_C;
     1777      750         %INCLUDE FM_FIELD_C;
     1778      791         %INCLUDE FM$FIT;
     1779     1012         %INCLUDE FM$GRAN;
     1780     1081         %INCLUDE XU_FORMAT_C;
     1781     1243         %INCLUDE FK_PERR_C;
     1782     1252         %INCLUDE ZL_MACRO_C;
     1783     1902        /* */
     1784     1903         %FPT_READ(FPTN=READ_DATA, BUF=FKA_DATA_BUF, KEYS=YES,
     1785     1904         DCB=M$SI, KEY=FKA_DATA_GRAN, STCLASS=CONSTANT);
     1786     1943         %FPT_READ(FPTN=READ_INDEX, BUF=FKA_INDEX_BUF, KEYS=YES,
     1787     1944         DCB=M$SI, KEY=FKA_INDEX_GRAN, STCLASS=CONSTANT);
     1788     1983         %FPT_WRITE(DCB=M$SI, BUF=FKA_INDEX_BUF,
     1789     1984         KEY=FKA_INDEX_GRAN, STCLASS=CONSTANT);
     1790     2015         %FPT_RELSTARF(ALTKEYS=FKA_ALTKEY_BFR, STCLASS=CONSTANT);
     1791     2030        /* */
     1792     2031    1     DCL M$SI DCB;
     1793     2032    1     DCL M$DO DCB;
     1794     2033        /* */
     1795     2034         %F$DCB(DCBN=F$DCB, STCLASS="BASED(FKA_DCB$)");
     1796     2091         %FM$GRAN(BASED="BASED(FKA_INDEX_BUF$)");
     1797     2095         %FM$KEYTBL(BASED="BASED(FKA_KTPTR$)");
     1798     2098         %FITALTKEYS(BASED="BASED(FKA_ALTKEYS$)");
     1799     2104         %VLP_RECFIELD(FPTN=RECFIELD, STCLASS="BASED(FKA_RECFIELD$)");
     1800     2148         %FK$ALTKEY_BFR(FPTN=FKA_ALTKEY_BFR, STCLASS="SYMREF");
PL6.E3A0      #007=FKA$OUTPUT File=FKA$ALTKEY.:E05TSI                            TUE 07/29/97 15:33 Page:389
     1801     2168         %FMG$IRKEYS(FPTN=IRKEYS, STCLASS="BASED(FKA_IRKEYS$)");
     1802     2175         %FM$MISEG(BASED="BASED(SEG$)");
     1803     2179         %FM$KEYENT(BASED="BASED(KEY$)");
     1804     2182         %FM$IRENT(BASED="BASED(KEY$)");
     1805     2185        /* */
     1806     2186         %SORT_TABLE(STCLASS=SYMREF);
     1807     2295        /* */
     1808     2296    1     DCL XUR$ERRMSG ENTRY(7) ALTRET;
     1809     2297    1     DCL FKA$ABORT ENTRY;
     1810     2298    1     DCL X$WRITE ENTRY(22);
     1811     2299    1     DCL FKA$COMPKEY ENTRY(3);
     1812     2300        /* */
     1813     2301    1     DCL FM_FRZERO UBIN SYMREF;
     1814     2302    1     DCL RECORD$ PTR;
     1815     2303    1     DCL NEXT_GRAN UBIN STATIC;
     1816     2304    1     DCL LAST_GRAN UBIN STATIC;
     1817     2305    1     DCL 1 LASTKEY STATIC,
     1818     2306    1            2 SIZE UBIN(18) CALIGNED,
     1819     2307    1            2 TEXT CHAR(1022) CALIGNED,
     1820     2308    1            2 BINTEXT REDEF TEXT,
     1821     2309    1               3 * CHAR(1022) CALIGNED;
     1822     2310    1     DCL LASTKEY$ PTR CONSTANT INIT(ADDR(LASTKEY.TEXT));
     1823     2311    1     DCL KEYSIZE SBIN STATIC;
     1824     2312    1     DCL KEYWORDS SBIN STATIC;
     1825     2313    1     DCL SEGCNT$ PTR STATIC;
     1826     2314    1     DCL KEYOFF SBIN STATIC;
     1827     2315    1     DCL NEXT_KEY SBIN STATIC;
     1828     2316    1     DCL RESULT SBIN STATIC;
     1829     2317    1     DCL UNIQUE BIT(1);
     1830     2318    1     DCL KEY$ PTR STATIC;
     1831     2319    1     DCL REPORT_INDEX# SBIN STATIC INIT(0);
     1832     2320    1     DCL KEY_SIZE SBIN;
     1833     2321    1     DCL KEY_TEMP(0:1023) UBIN(9) CALIGNED;
     1834     2322    1     DCL FIELD$ PTR;
     1835     2323    1     DCL ASCII BIT(1);
     1836     2324    1     DCL J SBIN;
     1837     2325    1     DCL K SBIN;
PL6.E3A0      #007=FKA$OUTPUT File=FKA$ALTKEY.:E05TSI                            TUE 07/29/97 15:33 Page:390
     1838     2326    1     DCL N SBIN;
     1839     2327    1     DCL SEG$ PTR;
     1840     2328    1     DCL INDEX# SBIN STATIC INIT(0);
     1841     2329    1     DCL XBUF CHAR(2100) STATIC INIT(' ');
     1842     2330        /* */
     1843     2331    1     DCL SORT_REC_INDX UBIN(9) CALIGNED BASED(RECORD$);
     1844     2332    1     DCL SEGCNT UBIN(18) CALIGNED BASED(SEGCNT$);
     1845     2333    1     DCL 1 CHAR8 CALIGNED BASED,
     1846     2334    1            2 * CHAR(8);
     1847     2335    1     DCL TEXT CHAR(KEYSIZE) CALIGNED BASED;
     1848     2336    1     DCL 1 CLEAN_GRAN BASED,
     1849     2337    1            2 * CHAR(20),
     1850     2338    1            2 GRAN(0:1018) UBIN;
     1851     2339    1     DCL TEMPA(0:0) UBIN(9) CALIGNED BASED;
     1852     2340        /* */
     1853     2341         %EQU EQUAL=0;
     1854     2342         %EQU NOTEQUAL=1;
     1855     2343        /* */
     1856     2344    1           RECORD$=ADDR(RECORD);

   2344  5 000002   200003 236100                    LDQ     @RECORD,,AUTO
         5 000003   200005 756100                    STQ     RECORD$,,AUTO

     1857     2345    1           IF SORT_REC_INDX ~= INDEX# AND RECORD_SIZE > 0 THEN

   2345  5 000004   200005 470500                    LDP0    RECORD$,,AUTO
         5 000005   000100 101500                    MRL     fill='000'O
         5 000006   000000 000001                    ADSC9   0,,PR0                   cn=0,n=1
         5 000007   200430 000004                    ADSC9   SEG$+11,,AUTO            cn=0,n=4
         5 000010   200430 236100                    LDQ     SEG$+11,,AUTO
         5 000011   000412 116000 4                  CMPQ    INDEX#
         5 000012   000140 600000 5                  TZE     s:2386
         5 000013   200004 471500                    LDP1    @RECORD_SIZE,,AUTO
         5 000014   100000 235100                    LDA     0,,PR1
         5 000015   000140 604400 5                  TMOZ    s:2386

     1858     2346    2           DO;                             /* NEW INDEX                          */
PL6.E3A0      #007=FKA$OUTPUT File=FKA$ALTKEY.:E05TSI                            TUE 07/29/97 15:33 Page:391

     1859     2347    2              IF INDEX# > 0 THEN

   2347  5 000016   000412 236000 4                  LDQ     INDEX#
         5 000017   000024 604400 5                  TMOZ    s:2349

     1860     2348    2                 CALL M$WRITE(FPT_WRITE) ALTRET(ABORT);

   2348  5 000020   000034 630400 1                  EPPR0   FPT_WRITE
         5 000021   440001 713400                    CLIMB   alt,write
         5 000022   401400 401760                    pmme    nvectors=4
         5 000023   000153 702000 5                  TSX2    ABORT

     1861     2349    2              INDEX#=SORT_REC_INDX;

   2349  5 000024   200005 470500                    LDP0    RECORD$,,AUTO
         5 000025   000000 101500                    MRL     fill='000'O
         5 000026   000000 000001                    ADSC9   0,,PR0                   cn=0,n=1
         5 000027   000412 000004 4                  ADSC9   INDEX#                   cn=0,n=4

     1862     2350    2              IF F$DCB.ORG# = %INDEXED# THEN

   2350  5 000030   000000 471400 xsym               LDP1    FKA_DCB$
         5 000031   100032 236100                    LDQ     26,,PR1
         5 000032   777000 376003                    ANQ     -512,DU
         5 000033   006000 116003                    CMPQ    3072,DU
         5 000034   000044 601000 5                  TNZ     s:2353

     1863     2351    2                 FKA_INDEX_GRAN=FITALTKEYS.K.FDA(INDEX#);

   2351  5 000035   000412 236000 4                  LDQ     INDEX#
         5 000036   000006 402007                    MPY     6,DL
         5 000037   000000 473400 xsym               LDP3    FKA_ALTKEYS$
         5 000040   300001 236106                    LDQ     1,QL,PR3
         5 000041   000032 376000 xsym               ANQ     B_VECTNIL+26
         5 000042   000000 756000 xsym               STQ     FKA_INDEX_GRAN
         5 000043   000052 710000 5                  TRA     s:2355
PL6.E3A0      #007=FKA$OUTPUT File=FKA$ALTKEY.:E05TSI                            TUE 07/29/97 15:33 Page:392

     1864     2352    2              ELSE
     1865     2353    2                 FKA_INDEX_GRAN=IRKEYS.K.FDA(INDEX#);

   2353  5 000044   000412 236000 4                  LDQ     INDEX#
         5 000045   000007 402007                    MPY     7,DL
         5 000046   000000 473400 xsym               LDP3    FKA_IRKEYS$
         5 000047   300007 236106                    LDQ     7,QL,PR3
         5 000050   000032 376000 xsym               ANQ     B_VECTNIL+26
         5 000051   000000 756000 xsym               STQ     FKA_INDEX_GRAN

     1866     2354
     1867     2355    2              IF FKA_INDEX_GRAN ~= 0 THEN

   2355  5 000052   000062 600000 5                  TZE     s:2362

     1868     2356    3              DO;                          /* READ FIRST GRAN                    */

     1869     2357    3                 FKA_INDEX_GRAN=FKA_INDEX_GRAN-FM_FRZERO;

   2357  5 000053   000000 136000 xsym               SBLQ    FM_FRZERO
         5 000054   000000 756000 xsym               STQ     FKA_INDEX_GRAN

     1870     2358    3                 CALL M$READ(READ_INDEX) ALTRET(ABORT);

   2358  5 000055   000016 630400 1                  EPPR0   READ_INDEX
         5 000056   440000 713400                    CLIMB   alt,read
         5 000057   401400 401760                    pmme    nvectors=4
         5 000060   000153 702000 5                  TSX2    ABORT

     1871     2359    3                 END;                      /* READ FIRST GRAN                    */

   2359  5 000061   000075 710000 5                  TRA     s:2368

     1872     2360    2              ELSE
     1873     2361    3              DO;                          /* ALLOCATE FIRST GRAN                */

PL6.E3A0      #007=FKA$OUTPUT File=FKA$ALTKEY.:E05TSI                            TUE 07/29/97 15:33 Page:393
     1874     2362    3                 FKA_ALTKEY_BFR.CODE=%ALTKEY_EXTEND#;

   2362  5 000062   000001 235007                    LDA     1,DL
         5 000063   000002 755000 xsym               STA     FKA_ALTKEY_BFR+2

     1875     2363    3                 CALL M$RELSTARF(FPT_RELSTARF) ALTRET(ABORT);

   2363  5 000064   000050 630400 1                  EPPR0   FPT_RELSTARF
         5 000065   460010 713400                    CLIMB   alt,+24584
         5 000066   400400 401760                    pmme    nvectors=2
         5 000067   000153 702000 5                  TSX2    ABORT

     1876     2364    3                 FKA_INDEX_GRAN=FKA_ALTKEY_BFR.DA-FM_FRZERO;

   2364  5 000070   000003 236000 xsym               LDQ     FKA_ALTKEY_BFR+3
         5 000071   000000 136000 xsym               SBLQ    FM_FRZERO
         5 000072   000000 756000 xsym               STQ     FKA_INDEX_GRAN

     1877     2365    3                 FM$GRAN.FLINK=0;

   2365  5 000073   000000 470400 xsym               LDP0    FKA_INDEX_BUF$
         5 000074   000004 450100                    STZ     4,,PR0

     1878     2366    3                 END;                      /* ALLOCATE FIRST GRAN                */

     1879     2367
     1880     2368    2              IF F$DCB.ORG# = %INDEXED# THEN

   2368  5 000075   000000 470400 xsym               LDP0    FKA_DCB$
         5 000076   000032 236100                    LDQ     26,,PR0
         5 000077   777000 376003                    ANQ     -512,DU
         5 000100   006000 116003                    CMPQ    3072,DU
         5 000101   000114 601000 5                  TNZ     s:2375

     1881     2369    3              DO;                          /* INDEXED                            */

     1882     2370    3                 KEYSIZE=FITALTKEYS.K.KEYL(INDEX#);
PL6.E3A0      #007=FKA$OUTPUT File=FKA$ALTKEY.:E05TSI                            TUE 07/29/97 15:33 Page:394

   2370  5 000102   000412 236000 4                  LDQ     INDEX#
         5 000103   000006 402007                    MPY     6,DL
         5 000104   000000 471400 xsym               LDP1    FKA_ALTKEYS$
         5 000105   100001 236106                    LDQ     1,QL,PR1
         5 000106   000033 772000                    QRL     27
         5 000107   000402 756000 4                  STQ     KEYSIZE

     1883     2371    3                 KEYWORDS=(KEYSIZE+4)/4;

   2371  5 000110   000004 036007                    ADLQ    4,DL
         5 000111   000004 506007                    DIV     4,DL
         5 000112   000403 756000 4                  STQ     KEYWORDS

     1884     2372    3                 END;                      /* INDEXED                            */

   2372  5 000113   000125 710000 5                  TRA     s:2379

     1885     2373    2              ELSE
     1886     2374    3              DO;                          /* IREL                               */

     1887     2375    3                 KEYSIZE=IRKEYS.K.KEYL(INDEX#);

   2375  5 000114   000412 236000 4                  LDQ     INDEX#
         5 000115   000007 402007                    MPY     7,DL
         5 000116   000000 471400 xsym               LDP1    FKA_IRKEYS$
         5 000117   100005 236106                    LDQ     5,QL,PR1
         5 000120   000022 772000                    QRL     18
         5 000121   000402 756000 4                  STQ     KEYSIZE

     1888     2376    3                 KEYWORDS=(KEYSIZE+5)/4;

   2376  5 000122   000005 036007                    ADLQ    5,DL
         5 000123   000004 506007                    DIV     4,DL
         5 000124   000403 756000 4                  STQ     KEYWORDS

     1889     2377    3                 END;                      /* IREL                               */
PL6.E3A0      #007=FKA$OUTPUT File=FKA$ALTKEY.:E05TSI                            TUE 07/29/97 15:33 Page:395

     1890     2378
     1891     2379    2              NEXT_GRAN=FM$GRAN.FLINK;

   2379  5 000125   000000 471400 xsym               LDP1    FKA_INDEX_BUF$
         5 000126   100004 235100                    LDA     4,,PR1
         5 000127   000000 755000 4                  STA     NEXT_GRAN

     1892     2380    2              LAST_GRAN=0;

   2380  5 000130   000001 450000 4                  STZ     LAST_GRAN

     1893     2381    2              CALL INIT_GRAN;

   2381  5 000131   000410 701000 5                  TSX1    INIT_GRAN
         5 000132   000000 011000                    NOP     0

     1894     2382    2              LASTKEY.SIZE=0;

   2382  5 000133   000000 220003                    LDX0    0,DU
         5 000134   000002 740000 4                  STX0    LASTKEY

     1895     2383    2              LASTKEY.BINTEXT='0'B;

   2383  5 000135   000000 100400                    MLR     fill='000'O
         5 000136   000002 000001 xsym               ADSC9   B_VECTNIL+2              cn=0,n=1
         5 000137   000002 401776 4                  ADSC9   LASTKEY                  cn=2,n=1022

     1896     2384    2              END;                         /* NEW INDEX                          */

     1897     2385
     1898     2386    1           IF RECORD_SIZE > 0 THEN

   2386  5 000140   200004 470500                    LDP0    @RECORD_SIZE,,AUTO
         5 000141   000000 235100                    LDA     0,,PR0
         5 000142   000146 604400 5                  TMOZ    s:2389

PL6.E3A0      #007=FKA$OUTPUT File=FKA$ALTKEY.:E05TSI                            TUE 07/29/97 15:33 Page:396
     1899     2387    1              CALL WRITE_RECORD;

   2387  5 000143   000737 701000 5                  TSX1    WRITE_RECORD
         5 000144   000000 011000                    NOP     0
         5 000145   000152 710000 5                  TRA     s:2390

     1900     2388    1           ELSE
     1901     2389    1              CALL M$WRITE(FPT_WRITE) ALTRET(ABORT);

   2389  5 000146   000034 630400 1                  EPPR0   FPT_WRITE
         5 000147   440001 713400                    CLIMB   alt,write
         5 000150   401400 401760                    pmme    nvectors=4
         5 000151   000153 702000 5                  TSX2    ABORT

     1902     2390    1           RETURN;

   2390  5 000152   000000 702200 xent               TSX2  ! X66_ARET

     1903     2391    1   ABORT:  CALL FKA$ABORT;

   2391  5 000153   000002 631400 xsym  ABORT        EPPR1   B_VECTNIL+2
         5 000154   000000 701000 xent               TSX1    FKA$ABORT
         5 000155   000000 011000                    NOP     0
         5 000156   000766 710000 5                  TRA     s:2620

     1904     2392         %EJECT;
PL6.E3A0      #007=FKA$OUTPUT File=FKA$ALTKEY.:E05TSI                            TUE 07/29/97 15:33 Page:397
     1905     2393        /*I*     NAME:     ADDKEY
     1906     2394                 PURPOSE:  To add a new key to the file
     1907     2395                 DESCRIPTION:
     1908     2396
     1909     2397                      Compare the last key with the current key.  If
     1910     2398                 they are equal, then build a new segment.  Otherwise,
     1911     2399                 build a new key.  If the key was specified as unique,
     1912     2400                 then indicate an error as well and reset the unique indicator
     1913     2401                 for the key.
     1914     2402        */
     1915     2403         %EJECT;
PL6.E3A0      #007=FKA$OUTPUT File=FKA$ALTKEY.:E05TSI                            TUE 07/29/97 15:33 Page:398
     1916     2404    1   ADDKEY:    PROC;

   2404  5 000157   200420 741300       ADDKEY       STX1  ! SEG$+3,,AUTO

     1917     2405        /* */
     1918     2406    2              RESULT=%NOTEQUAL;

   2406  5 000160   000001 235007                    LDA     1,DL
         5 000161   000407 755000 4                  STA     RESULT

     1919     2407    3              IF LASTKEY.SIZE ~= 0 THEN DO; /* Compare current and last keys     */

   2407  5 000162   000002 220000 4                  LDX0    LASTKEY
         5 000163   000231 600000 5                  TZE     s:2422

     1920     2408    3                 IF F$DCB.ORG# = %INDEXED# OR /* INDEXED or degenerate IREL case. */

   2408  5 000164   000000 470400 xsym               LDP0    FKA_DCB$
         5 000165   000032 236100                    LDQ     26,,PR0
         5 000166   777000 376003                    ANQ     -512,DU
         5 000167   006000 116003                    CMPQ    3072,DU
         5 000170   000202 600000 5                  TZE     s:2411
         5 000171   000034 236000 xsym               LDQ     SORT_TABLE+28
         5 000172   000002 116000 xsym               CMPQ    B_VECTNIL+2
         5 000173   000202 600000 5                  TZE     s:2411
         5 000174   000412 236000 4                  LDQ     INDEX#
         5 000175   000007 402007                    MPY     7,DL
         5 000176   000000 471400 xsym               LDP1    FKA_IRKEYS$
         5 000177   100006 236106                    LDQ     6,QL,PR1
         5 000200   040000 316007                    CANQ    16384,DL
         5 000201   000216 600000 5                  TZE     s:2417

     1921     2409    3                     SORT_TABLE.SECONDARY.KCE$ = ENTADDR(NIL) OR
     1922     2410    4                     IRKEYS.K.DEGENERATE(INDEX#) THEN DO;

     1923     2411    4                    IF RECORD$->TEXT ~= LASTKEY$->TEXT THEN

PL6.E3A0      #007=FKA$OUTPUT File=FKA$ALTKEY.:E05TSI                            TUE 07/29/97 15:33 Page:399
   2411  5 000202   200005 471500                    LDP1    RECORD$,,AUTO
         5 000203   000402 722000 4                  LXL2    KEYSIZE
         5 000204   000054 473400 1                  LDP3    LASTKEY$
         5 000205   040140 106540                    CMPC    fill='040'O
         5 000206   100000 000012                    ADSC9   0,,PR1                   cn=0,n=*X2
         5 000207   300000 000012                    ADSC9   0,,PR3                   cn=0,n=*X2
         5 000210   000214 600000 5                  TZE     s:2414

     1924     2412    4                       RESULT=%NOTEQUAL;

   2412  5 000211   000001 235007                    LDA     1,DL
         5 000212   000407 755000 4                  STA     RESULT
         5 000213   000231 710000 5                  TRA     s:2422

     1925     2413    4                    ELSE
     1926     2414    4                       RESULT=%EQUAL;

   2414  5 000214   000407 450000 4                  STZ     RESULT

     1927     2415    4                    END;

   2415  5 000215   000231 710000 5                  TRA     s:2422

     1928     2416    4                 ELSE DO;                  /* Complex IREL compare               */

     1929     2417    4                    RESULT=INDEX#;

   2417  5 000216   000412 235000 4                  LDA     INDEX#
         5 000217   000407 755000 4                  STA     RESULT

     1930     2418    4                    CALL FKA$COMPKEY(RECORD$->TEXT, LASTKEY$->TEXT, RESULT);

   2418  5 000220   000000 236000 6                  LDQ     0
         5 000221   200432 756100                    STQ     SEG$+13,,AUTO
         5 000222   000054 236000 1                  LDQ     LASTKEY$
         5 000223   200005 235100                    LDA     RECORD$,,AUTO
         5 000224   200430 757100                    STAQ    SEG$+11,,AUTO
PL6.E3A0      #007=FKA$OUTPUT File=FKA$ALTKEY.:E05TSI                            TUE 07/29/97 15:33 Page:400
         5 000225   200430 630500                    EPPR0   SEG$+11,,AUTO
         5 000226   000021 631400 xsym               EPPR1   B_VECTNIL+17
         5 000227   000000 701000 xent               TSX1    FKA$COMPKEY
         5 000230   000000 011000                    NOP     0

     1931     2419    4                    END;

     1932     2420    3                 END;

     1933     2421
     1934     2422    2              IF RESULT = %EQUAL THEN

   2422  5 000231   000407 235000 4                  LDA     RESULT
         5 000232   000255 601000 5                  TNZ     s:2433

     1935     2423    3              DO;                          /* DUPLICATE KEY                      */

     1936     2424    3                 IF FKA_UNIQUE(INDEX#) THEN

   2424  5 000233   000412 236000 4                  LDQ     INDEX#
         5 000234   000236 605000 5                  TPL     s:2424+3
         5 000235   000044 036003                    ADLQ    36,DU
         5 000236   000000 066406                    CMPB    filb='0'B
         5 000237   000000 000001 xsym               BDSC    FKA_UNIQUE,Q             by=0,bit=0,n=1
         5 000240   000002 000022 xsym               BDSC    B_VECTNIL+2              by=0,bit=0,n=18
         5 000241   000252 600000 5                  TZE     s:2430

     1937     2425    4                 DO;                       /* It's not really unique             */

     1938     2426    4                    FKA_DUPS=%YES#;

   2426  5 000242   400000 236003                    LDQ     -131072,DU
         5 000243   000000 756000 xsym               STQ     FKA_DUPS

     1939     2427    4                    FKA_UNIQUE(INDEX#)=%NO#;

   2427  5 000244   000412 235000 4                  LDA     INDEX#
PL6.E3A0      #007=FKA$OUTPUT File=FKA$ALTKEY.:E05TSI                            TUE 07/29/97 15:33 Page:401
         5 000245   000247 605000 5                  TPL     s:2427+3
         5 000246   000044 035003                    ADLA    36,DU
         5 000247   003005 060400                    CSL     bolr='003'O
         5 000250   000002 000001 xsym               BDSC    B_VECTNIL+2              by=0,bit=0,n=1
         5 000251   000000 000001 xsym               BDSC    FKA_UNIQUE,A             by=0,bit=0,n=1

     1940     2428    4                    END;                   /* It's not really unique             */

     1941     2429
     1942     2430    3                 CALL ADDSEG;

   2430  5 000252   000261 701000 5                  TSX1    ADDSEG
         5 000253   000000 011000                    NOP     0

     1943     2431    3                 END;                      /* DUPLICATE KEY                      */

   2431  5 000254   000257 710000 5                  TRA     s:2435

     1944     2432    2              ELSE
     1945     2433    2                 CALL NEWKEY;

   2433  5 000255   000554 701000 5                  TSX1    NEWKEY
         5 000256   000000 011000                    NOP     0

     1946     2434
     1947     2435    2              RETURN;

   2435  5 000257   200420 221300                    LDX1  ! SEG$+3,,AUTO
         5 000260   000001 702211                    TSX2  ! 1,X1

     1948     2436    2      END ADDKEY;
     1949     2437         %EJECT;
PL6.E3A0      #007=FKA$OUTPUT File=FKA$ALTKEY.:E05TSI                            TUE 07/29/97 15:33 Page:402
     1950     2438        /*I*     NAME:     ADDSEG
     1951     2439                 PURPOSE:  To add a new segment to a file
     1952     2440                 DESCRIPTION:
     1953     2441
     1954     2442                      If we ran out of space, then allocate a new granule.
     1955     2443                 Increment the record pointer to the MISEG.  Store the
     1956     2444                 MISEG in the file.  Update our counters and pointers.
     1957     2445        */
     1958     2446    1   ADDSEG:    PROC;

   2446  5 000261   200422 741300       ADDSEG       STX1  ! SEG$+5,,AUTO

     1959     2447        /* */
     1960     2448    2              IF FM$GRAN.AVAIL < F$DCB.SPARE#+2 THEN

   2448  5 000262   000000 470400 xsym               LDP0    FKA_DCB$
         5 000263   000040 236100                    LDQ     32,,PR0
         5 000264   000033 772000                    QRL     27
         5 000265   000002 036007                    ADLQ    2,DL
         5 000266   200430 756100                    STQ     SEG$+11,,AUTO
         5 000267   000000 471400 xsym               LDP1    FKA_INDEX_BUF$
         5 000270   100001 236100                    LDQ     1,,PR1
         5 000271   001777 376007                    ANQ     1023,DL
         5 000272   200430 116100                    CMPQ    SEG$+11,,AUTO
         5 000273   000276 605000 5                  TPL     s:2451

     1961     2449    2                 CALL ALLOCATE;

   2449  5 000274   000331 701000 5                  TSX1    ALLOCATE
         5 000275   000000 011000                    NOP     0

     1962     2450
     1963     2451    2              RECORD$=PINCRC(RECORD$, FKA_KEYSIZE+6);

   2451  5 000276   000000 236000 xsym               LDQ     FKA_KEYSIZE
         5 000277   000020 736000                    QLS     16
         5 000300   000001 036000 6                  ADLQ    1
PL6.E3A0      #007=FKA$OUTPUT File=FKA$ALTKEY.:E05TSI                            TUE 07/29/97 15:33 Page:403
         5 000301   200005 036100                    ADLQ    RECORD$,,AUTO
         5 000302   200005 756100                    STQ     RECORD$,,AUTO

     1964     2452    2              KEY$->FM$MISEG=RECORD$->CHAR8;

   2452  5 000303   200005 470500                    LDP0    RECORD$,,AUTO
         5 000304   000410 471400 4                  LDP1    KEY$
         5 000305   000100 100500                    MLR     fill='000'O
         5 000306   000000 000010                    ADSC9   0,,PR0                   cn=0,n=8
         5 000307   100000 000010                    ADSC9   0,,PR1                   cn=0,n=8

     1965     2453    2              KEY$=PINCRW(KEY$, 2);

   2453  5 000310   000410 236000 4                  LDQ     KEY$
         5 000311   000002 036003                    ADLQ    2,DU
         5 000312   000410 756000 4                  STQ     KEY$

     1966     2454    2              FM$GRAN.AVAIL=FM$GRAN.AVAIL-2;

   2454  5 000313   000000 471400 xsym               LDP1    FKA_INDEX_BUF$
         5 000314   100001 236100                    LDQ     1,,PR1
         5 000315   001777 376007                    ANQ     1023,DL
         5 000316   000002 136007                    SBLQ    2,DL
         5 000317   100001 676100                    ERQ     1,,PR1
         5 000320   001777 376007                    ANQ     1023,DL
         5 000321   100001 656100                    ERSQ    1,,PR1

     1967     2455    2              FM$GRAN.NAVX=FM$GRAN.NAVX+2;

   2455  5 000322   100001 220100                    LDX0    1,,PR1
         5 000323   000002 621010                    EAX1    2,X0
         5 000324   100001 741100                    STX1    1,,PR1

     1968     2456    2              KEYOFF=KEYOFF+2;

   2456  5 000325   000002 236007                    LDQ     2,DL
         5 000326   000405 056000 4                  ASQ     KEYOFF
PL6.E3A0      #007=FKA$OUTPUT File=FKA$ALTKEY.:E05TSI                            TUE 07/29/97 15:33 Page:404

     1969     2457
     1970     2458    2              RETURN;

   2458  5 000327   200422 221300                    LDX1  ! SEG$+5,,AUTO
         5 000330   000001 702211                    TSX2  ! 1,X1

     1971     2459    2      END ADDSEG;
     1972     2460         %EJECT;
PL6.E3A0      #007=FKA$OUTPUT File=FKA$ALTKEY.:E05TSI                            TUE 07/29/97 15:33 Page:405
     1973     2461        /*I*     NAME:     ALLOCATE
     1974     2462                 PURPOSE:  To allocate a new granule
     1975     2463                 DESCRIPTION:
     1976     2464
     1977     2465                      If there is no next granule, then call M$RELSTARF
     1978     2466                 to do a sleazy extend of the file.  Otherwise, read
     1979     2467                 the next granule, and save the flink.  In both cases,
     1980     2468                 initialize the granule.
     1981     2469        */
     1982     2470         %EJECT;
PL6.E3A0      #007=FKA$OUTPUT File=FKA$ALTKEY.:E05TSI                            TUE 07/29/97 15:33 Page:406
     1983     2471    1   ALLOCATE:  PROC;

   2471  5 000331   200424 741300       ALLOCATE     STX1  ! SEG$+7,,AUTO

     1984     2472        /* */
     1985     2473    2              IF NEXT_GRAN = 0 THEN

   2473  5 000332   000000 235000 4                  LDA     NEXT_GRAN
         5 000333   000357 601000 5                  TNZ     s:2485

     1986     2474    3              DO;                          /* ALLOCATE ANOTHER GRANULE           */

     1987     2475    3                 FKA_ALTKEY_BFR.CODE=%ALTKEY_EXTEND#;

   2475  5 000334   000001 236007                    LDQ     1,DL
         5 000335   000002 756000 xsym               STQ     FKA_ALTKEY_BFR+2

     1988     2476    3                 CALL M$RELSTARF(FPT_RELSTARF) ALTRET(ABORT);

   2476  5 000336   000050 630400 1                  EPPR0   FPT_RELSTARF
         5 000337   460010 713400                    CLIMB   alt,+24584
         5 000340   400400 401760                    pmme    nvectors=2
         5 000341   000403 702000 5                  TSX2    ABORT

     1989     2477
     1990     2478    3                 FM$GRAN.FLINK=FKA_ALTKEY_BFR.DA;

   2478  5 000342   000003 235000 xsym               LDA     FKA_ALTKEY_BFR+3
         5 000343   000000 470400 xsym               LDP0    FKA_INDEX_BUF$
         5 000344   000004 755100                    STA     4,,PR0

     1991     2479    3                 CALL M$WRITE(FPT_WRITE) ALTRET(ABORT);

   2479  5 000345   000034 630400 1                  EPPR0   FPT_WRITE
         5 000346   440001 713400                    CLIMB   alt,write
         5 000347   401400 401760                    pmme    nvectors=4
         5 000350   000403 702000 5                  TSX2    ABORT
PL6.E3A0      #007=FKA$OUTPUT File=FKA$ALTKEY.:E05TSI                            TUE 07/29/97 15:33 Page:407

     1992     2480    3                 FKA_INDEX_GRAN=FKA_ALTKEY_BFR.DA-FM_FRZERO;

   2480  5 000351   000003 236000 xsym               LDQ     FKA_ALTKEY_BFR+3
         5 000352   000000 136000 xsym               SBLQ    FM_FRZERO
         5 000353   000000 756000 xsym               STQ     FKA_INDEX_GRAN

     1993     2481    3                 CALL INIT_GRAN;

   2481  5 000354   000410 701000 5                  TSX1    INIT_GRAN
         5 000355   000000 011000                    NOP     0

     1994     2482    3                 END;                      /* ALLOCATE ANOTHER GRANULE           */

   2482  5 000356   000401 710000 5                  TRA     s:2495

     1995     2483    2              ELSE
     1996     2484    3              DO;                          /* GET NEXT GRAN                      */

     1997     2485    3                 FM$GRAN.FLINK=NEXT_GRAN;

   2485  5 000357   000000 470400 xsym               LDP0    FKA_INDEX_BUF$
         5 000360   000004 755100                    STA     4,,PR0

     1998     2486    3                 CALL M$WRITE(FPT_WRITE) ALTRET(ABORT);

   2486  5 000361   000034 630400 1                  EPPR0   FPT_WRITE
         5 000362   440001 713400                    CLIMB   alt,write
         5 000363   401400 401760                    pmme    nvectors=4
         5 000364   000403 702000 5                  TSX2    ABORT

     1999     2487
     2000     2488    3                 FKA_INDEX_GRAN=NEXT_GRAN-FM_FRZERO;

   2488  5 000365   000000 236000 4                  LDQ     NEXT_GRAN
         5 000366   000000 136000 xsym               SBLQ    FM_FRZERO
         5 000367   000000 756000 xsym               STQ     FKA_INDEX_GRAN
PL6.E3A0      #007=FKA$OUTPUT File=FKA$ALTKEY.:E05TSI                            TUE 07/29/97 15:33 Page:408

     2001     2489    3                 CALL M$READ(READ_INDEX) ALTRET(ABORT);

   2489  5 000370   000016 630400 1                  EPPR0   READ_INDEX
         5 000371   440000 713400                    CLIMB   alt,read
         5 000372   401400 401760                    pmme    nvectors=4
         5 000373   000403 702000 5                  TSX2    ABORT

     2002     2490
     2003     2491    3                 NEXT_GRAN=FM$GRAN.FLINK;

   2491  5 000374   000000 470400 xsym               LDP0    FKA_INDEX_BUF$
         5 000375   000004 235100                    LDA     4,,PR0
         5 000376   000000 755000 4                  STA     NEXT_GRAN

     2004     2492    3                 CALL INIT_GRAN;

   2492  5 000377   000410 701000 5                  TSX1    INIT_GRAN
         5 000400   000000 011000                    NOP     0

     2005     2493    3                 END;                      /* GET NEXT GRAN                      */

     2006     2494
     2007     2495    2              RETURN;

   2495  5 000401   200424 221300                    LDX1  ! SEG$+7,,AUTO
         5 000402   000001 702211                    TSX2  ! 1,X1

     2008     2496    2   ABORT:     CALL FKA$ABORT;

   2496  5 000403   000002 631400 xsym  ABORT        EPPR1   B_VECTNIL+2
         5 000404   000000 701000 xent               TSX1    FKA$ABORT
         5 000405   000000 011000                    NOP     0

     2009     2497    2      END ALLOCATE;

   2497  5 000406   200424 221300                    LDX1  ! SEG$+7,,AUTO
PL6.E3A0      #007=FKA$OUTPUT File=FKA$ALTKEY.:E05TSI                            TUE 07/29/97 15:33 Page:409
         5 000407   000001 702211                    TSX2  ! 1,X1

     2010     2498         %EJECT;
PL6.E3A0      #007=FKA$OUTPUT File=FKA$ALTKEY.:E05TSI                            TUE 07/29/97 15:33 Page:410
     2011     2499        /*I*     NAME:     INIT_GRAN
     2012     2500                 PURPOSE:  To initialize a granule buffer
     2013     2501                 DESCRIPTION:
     2014     2502
     2015     2503                      First, clean out all but the header.  Set
     2016     2504                 the GMOD part of the stamp to the DA of the granule.
     2017     2505                 Set the FLINK and BLINK.  If this is the first granule
     2018     2506                 allocated for this index, then set the FDA.
     2019     2507
     2020     2508                      Set the LDA.  This is currently the last granule
     2021     2509                 in this index now.
     2022     2510
     2023     2511                      Initialize some more of the header, and set up
     2024     2512                 the key table.
     2025     2513        */
     2026     2514         %EJECT;
PL6.E3A0      #007=FKA$OUTPUT File=FKA$ALTKEY.:E05TSI                            TUE 07/29/97 15:33 Page:411
     2027     2515    1   INIT_GRAN: PROC;

   2515  5 000410   200426 741300       INIT_GRAN    STX1  ! SEG$+9,,AUTO

     2028     2516        /* */
     2029     2517    2              FKA_INDEX_BUF$->CLEAN_GRAN.GRAN='0'B;

   2517  5 000411   000000 470400 xsym               LDP0    FKA_INDEX_BUF$
         5 000412   000100 100400                    MLR     fill='000'O
         5 000413   000002 000001 xsym               ADSC9   B_VECTNIL+2              cn=0,n=1
         5 000414   000005 007754                    ADSC9   5,,PR0                   cn=0,n=4076

     2030     2518    2              FM$GRAN.STAMP.GMOD=FKA_INDEX_GRAN;

   2518  5 000415   000000 236000 xsym               LDQ     FKA_INDEX_GRAN
         5 000416   000000 552104                    STBQ    0,'04'O,PR0

     2031     2519    2              FM$GRAN.BLINK=LAST_GRAN;

   2519  5 000417   000001 235000 4                  LDA     LAST_GRAN
         5 000420   000003 755100                    STA     3,,PR0

     2032     2520    2              FM$GRAN.FLINK=0;

   2520  5 000421   000004 450100                    STZ     4,,PR0

     2033     2521    2              IF LAST_GRAN = 0 THEN

   2521  5 000422   000453 601000 5                  TNZ     s:2529

     2034     2522    3              DO;                          /* SET FDA                            */

     2035     2523    3                 IF F$DCB.ORG# = %INDEXED# THEN

   2523  5 000423   000000 471400 xsym               LDP1    FKA_DCB$
         5 000424   100032 236100                    LDQ     26,,PR1
         5 000425   777000 376003                    ANQ     -512,DU
PL6.E3A0      #007=FKA$OUTPUT File=FKA$ALTKEY.:E05TSI                            TUE 07/29/97 15:33 Page:412
         5 000426   006000 116003                    CMPQ    3072,DU
         5 000427   000442 601000 5                  TNZ     s:2526

     2036     2524    3                    FITALTKEYS.K.FDA(INDEX#)=FKA_INDEX_GRAN+FM_FRZERO;

   2524  5 000430   000412 236000 4                  LDQ     INDEX#
         5 000431   000006 402007                    MPY     6,DL
         5 000432   000000 620006                    EAX0    0,QL
         5 000433   000000 236000 xsym               LDQ     FKA_INDEX_GRAN
         5 000434   000000 036000 xsym               ADLQ    FM_FRZERO
         5 000435   000000 473400 xsym               LDP3    FKA_ALTKEYS$
         5 000436   300001 676110                    ERQ     1,X0,PR3
         5 000437   000032 376000 xsym               ANQ     B_VECTNIL+26
         5 000440   300001 656110                    ERSQ    1,X0,PR3
         5 000441   000453 710000 5                  TRA     s:2529

     2037     2525    3                 ELSE
     2038     2526    3                    IRKEYS.K.FDA(INDEX#)=FKA_INDEX_GRAN+FM_FRZERO;

   2526  5 000442   000412 236000 4                  LDQ     INDEX#
         5 000443   000007 402007                    MPY     7,DL
         5 000444   000000 620006                    EAX0    0,QL
         5 000445   000000 236000 xsym               LDQ     FKA_INDEX_GRAN
         5 000446   000000 036000 xsym               ADLQ    FM_FRZERO
         5 000447   000000 473400 xsym               LDP3    FKA_IRKEYS$
         5 000450   300007 676110                    ERQ     7,X0,PR3
         5 000451   000032 376000 xsym               ANQ     B_VECTNIL+26
         5 000452   300007 656110                    ERSQ    7,X0,PR3

     2039     2527    3                 END;                      /* SET FDA                            */

     2040     2528
     2041     2529    2              IF F$DCB.ORG# = %INDEXED# THEN

   2529  5 000453   000000 471400 xsym               LDP1    FKA_DCB$
         5 000454   100032 236100                    LDQ     26,,PR1
         5 000455   777000 376003                    ANQ     -512,DU
PL6.E3A0      #007=FKA$OUTPUT File=FKA$ALTKEY.:E05TSI                            TUE 07/29/97 15:33 Page:413
         5 000456   006000 116003                    CMPQ    3072,DU
         5 000457   000473 601000 5                  TNZ     s:2532

     2042     2530    2                 FITALTKEYS.K.LDA(INDEX#)=FKA_INDEX_GRAN+FM_FRZERO;

   2530  5 000460   000412 236000 4                  LDQ     INDEX#
         5 000461   000006 402007                    MPY     6,DL
         5 000462   000000 620006                    EAX0    0,QL
         5 000463   000000 236000 xsym               LDQ     FKA_INDEX_GRAN
         5 000464   000000 036000 xsym               ADLQ    FM_FRZERO
         5 000465   000000 473400 xsym               LDP3    FKA_ALTKEYS$
         5 000466   000011 736000                    QLS     9
         5 000467   300002 676110                    ERQ     2,X0,PR3
         5 000470   000002 376000 6                  ANQ     2
         5 000471   300002 656110                    ERSQ    2,X0,PR3
         5 000472   000504 710000 5                  TRA     s:2534

     2043     2531    2              ELSE
     2044     2532    2                 IRKEYS.K.LDA(INDEX#)=FKA_INDEX_GRAN+FM_FRZERO;

   2532  5 000473   000412 236000 4                  LDQ     INDEX#
         5 000474   000007 402007                    MPY     7,DL
         5 000475   000000 620006                    EAX0    0,QL
         5 000476   000000 236000 xsym               LDQ     FKA_INDEX_GRAN
         5 000477   000000 036000 xsym               ADLQ    FM_FRZERO
         5 000500   000000 473400 xsym               LDP3    FKA_IRKEYS$
         5 000501   300011 676110                    ERQ     9,X0,PR3
         5 000502   000032 376000 xsym               ANQ     B_VECTNIL+26
         5 000503   300011 656110                    ERSQ    9,X0,PR3

     2045     2533
     2046     2534    2              LAST_GRAN=FKA_INDEX_GRAN+FM_FRZERO;

   2534  5 000504   000000 236000 xsym               LDQ     FKA_INDEX_GRAN
         5 000505   000000 036000 xsym               ADLQ    FM_FRZERO
         5 000506   000001 756000 4                  STQ     LAST_GRAN

PL6.E3A0      #007=FKA$OUTPUT File=FKA$ALTKEY.:E05TSI                            TUE 07/29/97 15:33 Page:414
     2047     2535    2              FM$GRAN.FCEX=SIZEW(FM$GRAN);

   2535  5 000507   000005 220003                    LDX0    5,DU
         5 000510   000002 740100                    STX0    2,,PR0

     2048     2536    2              FM$GRAN.KEYCNT=0;

   2536  5 000511   000000 236003                    LDQ     0,DU
         5 000512   000002 552104                    STBQ    2,'04'O,PR0

     2049     2537    2              FKA_KTPTR$=PINCRW(FKA_INDEX_BUF$, SIZEW(FM$GRAN));

   2537  5 000513   000000 236000 xsym               LDQ     FKA_INDEX_BUF$
         5 000514   000005 036003                    ADLQ    5,DU
         5 000515   000000 756000 xsym               STQ     FKA_KTPTR$

     2050     2538    2              FM$KEYTBL(0)=SIZEC(FM$KEYTBL);

   2538  5 000516   000000 471400 xsym               LDP1    FKA_KTPTR$
         5 000517   430000 236003                    LDQ     -118784,DU
         5 000520   100000 552140                    STBQ    0,'40'O,PR1

     2051     2539    2              KEY$=PINCRW(FKA_KTPTR$, SIZEW(FM$KEYTBL));

   2539  5 000521   000000 236000 xsym               LDQ     FKA_KTPTR$
         5 000522   000106 036003                    ADLQ    70,DU
         5 000523   000410 756000 4                  STQ     KEY$

     2052     2540    2              FM$GRAN.AVAIL=1024-POFFW(KEY$, FKA_INDEX_BUF$);

   2540  5 000524   000000 235000 xsym               LDA     FKA_INDEX_BUF$
         5 000525   000022 771000                    ARL     18
         5 000526   200430 755100                    STA     SEG$+11,,AUTO
         5 000527   000410 236000 4                  LDQ     KEY$
         5 000530   000022 772000                    QRL     18
         5 000531   200430 136100                    SBLQ    SEG$+11,,AUTO
         5 000532   000027 676000 xsym               ERQ     B_VECTNIL+23
PL6.E3A0      #007=FKA$OUTPUT File=FKA$ALTKEY.:E05TSI                            TUE 07/29/97 15:33 Page:415
         5 000533   002001 036007                    ADLQ    1025,DL
         5 000534   000001 676100                    ERQ     1,,PR0
         5 000535   001777 376007                    ANQ     1023,DL
         5 000536   000001 656100                    ERSQ    1,,PR0

     2053     2541    2              FM$GRAN.NAVX=POFFW(KEY$, FKA_INDEX_BUF$);

   2541  5 000537   200430 755100                    STA     SEG$+11,,AUTO
         5 000540   000410 236000 4                  LDQ     KEY$
         5 000541   000022 772000                    QRL     18
         5 000542   200430 136100                    SBLQ    SEG$+11,,AUTO
         5 000543   000000 621006                    EAX1    0,QL
         5 000544   000001 741100                    STX1    1,,PR0

     2054     2542    2              NEXT_KEY=1;

   2542  5 000545   000001 236007                    LDQ     1,DL
         5 000546   000406 756000 4                  STQ     NEXT_KEY

     2055     2543    2              KEYOFF=FM$GRAN.NAVX;

   2543  5 000547   000001 236100                    LDQ     1,,PR0
         5 000550   000022 772000                    QRL     18
         5 000551   000405 756000 4                  STQ     KEYOFF

     2056     2544
     2057     2545    2              RETURN;

   2545  5 000552   200426 221300                    LDX1  ! SEG$+9,,AUTO
         5 000553   000001 702211                    TSX2  ! 1,X1

     2058     2546    2      END INIT_GRAN;
     2059     2547         %EJECT;
PL6.E3A0      #007=FKA$OUTPUT File=FKA$ALTKEY.:E05TSI                            TUE 07/29/97 15:33 Page:416
     2060     2548        /*I*     NAME:     NEWKEY
     2061     2549                 PURPOSE:  To build a new key in the file
     2062     2550                 DESCRIPTION:
     2063     2551
     2064     2552                      If we don't have space for the new key, then
     2065     2553                 allocate a new granule.  Move the information from
     2066     2554                 the sorted record to the index buffer.
     2067     2555
     2068     2556                      Save this as the last key now.  Update the key
     2069     2557                 table and granule header information.
     2070     2558        */
     2071     2559         %EJECT;
PL6.E3A0      #007=FKA$OUTPUT File=FKA$ALTKEY.:E05TSI                            TUE 07/29/97 15:33 Page:417
     2072     2560    1   NEWKEY:    PROC;

   2560  5 000554   200422 741300       NEWKEY       STX1  ! SEG$+5,,AUTO

     2073     2561        /* */
     2074     2562    2             IF FM$GRAN.AVAIL < F$DCB.SPARE#+KEYWORDS+2 OR FM$GRAN.KEYCNT+1 > 279 THEN

   2562  5 000555   000000 470400 xsym               LDP0    FKA_DCB$
         5 000556   000040 236100                    LDQ     32,,PR0
         5 000557   000033 772000                    QRL     27
         5 000560   000403 036000 4                  ADLQ    KEYWORDS
         5 000561   000002 036007                    ADLQ    2,DL
         5 000562   200430 756100                    STQ     SEG$+11,,AUTO
         5 000563   000000 471400 xsym               LDP1    FKA_INDEX_BUF$
         5 000564   100001 236100                    LDQ     1,,PR1
         5 000565   001777 376007                    ANQ     1023,DL
         5 000566   200430 116100                    CMPQ    SEG$+11,,AUTO
         5 000567   000574 604000 5                  TMI     s:2563
         5 000570   100002 236100                    LDQ     2,,PR1
         5 000571   000777 376007                    ANQ     511,DL
         5 000572   000427 116007                    CMPQ    279,DL
         5 000573   000576 602000 5                  TNC     s:2565

     2075     2563    2                 CALL ALLOCATE;

   2563  5 000574   000331 701000 5                  TSX1    ALLOCATE
         5 000575   000000 011000                    NOP     0

     2076     2564
     2077     2565    2              IF F$DCB.ORG# = %INDEXED# THEN

   2565  5 000576   000000 470400 xsym               LDP0    FKA_DCB$
         5 000577   000032 236100                    LDQ     26,,PR0
         5 000600   777000 376003                    ANQ     -512,DU
         5 000601   006000 116003                    CMPQ    3072,DU
         5 000602   000623 601000 5                  TNZ     s:2572

PL6.E3A0      #007=FKA$OUTPUT File=FKA$ALTKEY.:E05TSI                            TUE 07/29/97 15:33 Page:418
     2078     2566    3              DO;                          /* INDEXED FILE                       */

     2079     2567    3                 FM$KEYENT.KLB=KEYSIZE;

   2567  5 000603   000410 471400 4                  LDP1    KEY$
         5 000604   000402 236000 4                  LDQ     KEYSIZE
         5 000605   000033 736000                    QLS     27
         5 000606   100000 676100                    ERQ     0,,PR1
         5 000607   377000 376003                    ANQ     130560,DU
         5 000610   100000 656100                    ERSQ    0,,PR1

     2080     2568    3                 FM$KEYENT.TXT=RECORD$->TEXT;

   2568  5 000611   100000 236100                    LDQ     0,,PR1
         5 000612   000033 772000                    QRL     27
         5 000613   000377 376007                    ANQ     255,DL
         5 000614   200005 470500                    LDP0    RECORD$,,AUTO
         5 000615   000402 720000 4                  LXL0    KEYSIZE
         5 000616   000000 621006                    EAX1    0,QL
         5 000617   040140 100540                    MLR     fill='040'O
         5 000620   000000 000010                    ADSC9   0,,PR0                   cn=0,n=*X0
         5 000621   100000 200011                    ADSC9   0,,PR1                   cn=1,n=*X1

     2081     2569    3                 END;                      /* INDEXED FILE                       */

   2569  5 000622   000640 710000 5                  TRA     s:2576

     2082     2570    2              ELSE
     2083     2571    3              DO;                          /* IREL FILE                          */

     2084     2572    3                 FM$IRENT.KLB=KEYSIZE;

   2572  5 000623   000410 471400 4                  LDP1    KEY$
         5 000624   000402 236000 4                  LDQ     KEYSIZE
         5 000625   000022 736000                    QLS     18
         5 000626   100000 676100                    ERQ     0,,PR1
         5 000627   377777 376003                    ANQ     131071,DU
PL6.E3A0      #007=FKA$OUTPUT File=FKA$ALTKEY.:E05TSI                            TUE 07/29/97 15:33 Page:419
         5 000630   100000 656100                    ERSQ    0,,PR1

     2085     2573    3                 FM$IRENT.TXT=RECORD$->TEXT;

   2573  5 000631   100000 220100                    LDX0    0,,PR1
         5 000632   377777 360003                    ANX0    131071,DU
         5 000633   200005 470500                    LDP0    RECORD$,,AUTO
         5 000634   000402 721000 4                  LXL1    KEYSIZE
         5 000635   040140 100540                    MLR     fill='040'O
         5 000636   000000 000011                    ADSC9   0,,PR0                   cn=0,n=*X1
         5 000637   100000 400010                    ADSC9   0,,PR1                   cn=2,n=*X0

     2086     2574    3                 END;                      /* IREL FILE                          */

     2087     2575
     2088     2576    2              LASTKEY.SIZE=KEYSIZE;

   2576  5 000640   000402 720000 4                  LXL0    KEYSIZE
         5 000641   000002 740000 4                  STX0    LASTKEY

     2089     2577    2              LASTKEY.TEXT=RECORD$->TEXT;

   2577  5 000642   040000 100540                    MLR     fill='040'O
         5 000643   000000 000010                    ADSC9   0,,PR0                   cn=0,n=*X0
         5 000644   000002 401776 4                  ADSC9   LASTKEY                  cn=2,n=1022

     2090     2578    2              KEY$=PINCRW(KEY$, KEYWORDS);

   2578  5 000645   000403 236000 4                  LDQ     KEYWORDS
         5 000646   000022 736000                    QLS     18
         5 000647   000410 036000 4                  ADLQ    KEY$
         5 000650   000410 756000 4                  STQ     KEY$

     2091     2579    2              RECORD$=PINCRC(RECORD$, FKA_KEYSIZE+6);

   2579  5 000651   000000 236000 xsym               LDQ     FKA_KEYSIZE
         5 000652   000020 736000                    QLS     16
PL6.E3A0      #007=FKA$OUTPUT File=FKA$ALTKEY.:E05TSI                            TUE 07/29/97 15:33 Page:420
         5 000653   000001 036000 6                  ADLQ    1
         5 000654   200005 036100                    ADLQ    RECORD$,,AUTO
         5 000655   200005 756100                    STQ     RECORD$,,AUTO

     2092     2580    2              KEY$->FM$MISEG=RECORD$->CHAR8;

   2580  5 000656   200005 470500                    LDP0    RECORD$,,AUTO
         5 000657   000410 471400 4                  LDP1    KEY$
         5 000660   000100 100500                    MLR     fill='000'O
         5 000661   000000 000010                    ADSC9   0,,PR0                   cn=0,n=8
         5 000662   100000 000010                    ADSC9   0,,PR1                   cn=0,n=8

     2093     2581    2              FM$GRAN.KEYCNT=FM$GRAN.KEYCNT+1;

   2581  5 000663   000000 473400 xsym               LDP3    FKA_INDEX_BUF$
         5 000664   300002 236100                    LDQ     2,,PR3
         5 000665   000001 036007                    ADLQ    1,DL
         5 000666   300002 552104                    STBQ    2,'04'O,PR3

     2094     2582    2              FM$GRAN.AVAIL=FM$GRAN.AVAIL-KEYWORDS-2;

   2582  5 000667   300001 236100                    LDQ     1,,PR3
         5 000670   001777 376007                    ANQ     1023,DL
         5 000671   000403 136000 4                  SBLQ    KEYWORDS
         5 000672   000002 136007                    SBLQ    2,DL
         5 000673   300001 676100                    ERQ     1,,PR3
         5 000674   001777 376007                    ANQ     1023,DL
         5 000675   300001 656100                    ERSQ    1,,PR3

     2095     2583    2              FM$GRAN.NAVX=FM$GRAN.NAVX+KEYWORDS+2;

   2583  5 000676   300001 236100                    LDQ     1,,PR3
         5 000677   000022 772000                    QRL     18
         5 000700   000403 036000 4                  ADLQ    KEYWORDS
         5 000701   000002 621006                    EAX1    2,QL
         5 000702   300001 741100                    STX1    1,,PR3

PL6.E3A0      #007=FKA$OUTPUT File=FKA$ALTKEY.:E05TSI                            TUE 07/29/97 15:33 Page:421
     2096     2584
     2097     2585    2              IF KEYOFF >= 512 AND FM$KEYTBL(0) = SIZEC(FM$KEYTBL) THEN

   2585  5 000703   000405 235000 4                  LDA     KEYOFF
         5 000704   001000 115007                    CMPA    512,DL
         5 000705   000720 604000 5                  TMI     s:2591
         5 000706   000000 474400 xsym               LDP4    FKA_KTPTR$
         5 000707   400000 236100                    LDQ     0,,PR4
         5 000710   777000 376003                    ANQ     -512,DU
         5 000711   430000 116003                    CMPQ    -118784,DU
         5 000712   000720 601000 5                  TNZ     s:2591

     2098     2586    3              DO;                          /* SET BOUND                          */

     2099     2587    3                 KEYOFF=KEYOFF-512;

   2587  5 000713   001000 336007                    LCQ     512,DL
         5 000714   000405 056000 4                  ASQ     KEYOFF

     2100     2588    3                 FM$KEYTBL(0)=NEXT_KEY;

   2588  5 000715   000406 236000 4                  LDQ     NEXT_KEY
         5 000716   000033 736000                    QLS     27
         5 000717   400000 552140                    STBQ    0,'40'O,PR4

     2101     2589    3                 END;                      /* SET BOUND                          */

     2102     2590
     2103     2591    2              FM$KEYTBL(NEXT_KEY)=KEYOFF;

   2591  5 000720   000000 474400 xsym               LDP4    FKA_KTPTR$
         5 000721   000406 235000 4                  LDA     NEXT_KEY
         5 000722   000105 101400                    MRL     fill='000'O
         5 000723   000405 000004 4                  ADSC9   KEYOFF                   cn=0,n=4
         5 000724   400000 000001                    ADSC9   0,A,PR4                  cn=0,n=1

     2104     2592    2              KEYOFF=KEYOFF+KEYWORDS+2;
PL6.E3A0      #007=FKA$OUTPUT File=FKA$ALTKEY.:E05TSI                            TUE 07/29/97 15:33 Page:422

   2592  5 000725   000405 236000 4                  LDQ     KEYOFF
         5 000726   000403 036000 4                  ADLQ    KEYWORDS
         5 000727   000002 036007                    ADLQ    2,DL
         5 000730   000405 756000 4                  STQ     KEYOFF

     2105     2593    2              NEXT_KEY=NEXT_KEY+1;

   2593  5 000731   000406 054000 4                  AOS     NEXT_KEY

     2106     2594    2              KEY$=PINCRW(KEY$, 2);

   2594  5 000732   000410 236000 4                  LDQ     KEY$
         5 000733   000002 036003                    ADLQ    2,DU
         5 000734   000410 756000 4                  STQ     KEY$

     2107     2595
     2108     2596    2              RETURN;

   2596  5 000735   200422 221300                    LDX1  ! SEG$+5,,AUTO
         5 000736   000001 702211                    TSX2  ! 1,X1

     2109     2597    2      END NEWKEY;
     2110     2598         %EJECT;
PL6.E3A0      #007=FKA$OUTPUT File=FKA$ALTKEY.:E05TSI                            TUE 07/29/97 15:33 Page:423
     2111     2599        /*I*     NAME:     WRITE_RECORD
     2112     2600                 PURPOSE:  To write a record to an index granule
     2113     2601                 DESCRIPTION:
     2114     2602
     2115     2603                      Increment the record pointer to the key information.
     2116     2604                 If this is the first segment, then add a key.  Otherwise,
     2117     2605                 add a segment.
     2118     2606        */
     2119     2607         %EJECT;
PL6.E3A0      #007=FKA$OUTPUT File=FKA$ALTKEY.:E05TSI                            TUE 07/29/97 15:33 Page:424
     2120     2608    1   WRITE_RECORD: PROC;

   2608  5 000737   200416 741300       WRITE_RECORD STX1  ! SEG$+1,,AUTO

     2121     2609        /* */
     2122     2610    2              RECORD$=PINCRC(RECORD$, 1);

   2610  5 000740   200005 236100                    LDQ     RECORD$,,AUTO
         5 000741   200000 036007                    ADLQ    65536,DL
         5 000742   200005 756100                    STQ     RECORD$,,AUTO

     2123     2611
     2124     2612    2              SEGCNT$=PINCRC(RECORD$, FKA_KEYSIZE+4);

   2612  5 000743   000000 236000 xsym               LDQ     FKA_KEYSIZE
         5 000744   000020 736000                    QLS     16
         5 000745   000001 036003                    ADLQ    1,DU
         5 000746   200005 036100                    ADLQ    RECORD$,,AUTO
         5 000747   000404 756000 4                  STQ     SEGCNT$

     2125     2613    2              IF SEGCNT = 0 THEN

   2613  5 000750   000404 470400 4                  LDP0    SEGCNT$
         5 000751   000100 101500                    MRL     fill='000'O
         5 000752   000000 000002                    ADSC9   0,,PR0                   cn=0,n=2
         5 000753   200430 000004                    ADSC9   SEG$+11,,AUTO            cn=0,n=4
         5 000754   200430 236100                    LDQ     SEG$+11,,AUTO
         5 000755   000000 116003                    CMPQ    0,DU
         5 000756   000762 601000 5                  TNZ     s:2616

     2126     2614    2                 CALL ADDKEY;

   2614  5 000757   000157 701000 5                  TSX1    ADDKEY
         5 000760   000000 011000                    NOP     0
         5 000761   000764 710000 5                  TRA     s:2618

     2127     2615    2              ELSE
PL6.E3A0      #007=FKA$OUTPUT File=FKA$ALTKEY.:E05TSI                            TUE 07/29/97 15:33 Page:425
     2128     2616    2                 CALL ADDSEG;

   2616  5 000762   000261 701000 5                  TSX1    ADDSEG
         5 000763   000000 011000                    NOP     0

     2129     2617
     2130     2618    2              RETURN;

   2618  5 000764   200416 221300                    LDX1  ! SEG$+1,,AUTO
         5 000765   000001 702211                    TSX2  ! 1,X1

     2131     2619    2      END WRITE_RECORD;
     2132     2620    1   END FKA$OUTPUT;

   2620  5 000766   000000 702200 xent               TSX2  ! X66_ARET
     2133     2621         %EOD;

PL6.E3A0      #007=FKA$OUTPUT File=FKA$ALTKEY.:E05TSI                            TUE 07/29/97 15:33 Page:426
--  Include file information  --

   ZL_MACRO_C.:TOOLE04  is referenced.
   FK_PERR_C.:E05TOU  is referenced.
   XU_FORMAT_C.:E05TOU  is referenced.
   FM$GRAN.:E05TOU  is referenced.
   FM$FIT.:E05TOU  is referenced.
   FM_FIELD_C.:E05TOU  is referenced.
   FK_DATA_C.:E05TOU  is referenced.
   FKA_DATA_R.:E05TOU  cannot be made into a system file and is referenced.
   CP_6_SUBS.:E05TOU  is referenced.
   CP_6.:E05TOU  cannot be made into a system file and is referenced.
   B$JIT_C.:E05TOU  was found in the system file and is never referenced.
   CP_6_C.:E05TOU  was found in the system file and is referenced.
      No diagnostics issued in procedure FKA$OUTPUT.
PL6.E3A0      #007=FKA$OUTPUT File=FKA$ALTKEY.:E05TSI                            TUE 07/29/97 15:33 Page:427

 **** Variables and constants ****

  ****  Section 001 RoData FKA$OUTPUT

  ****  Scalars and arrays  ****
OctLoc.c.b A Datatyp(siz) R M Lvl/name                 OctLoc.c.b A Datatyp(siz) R M Lvl/name

    50-0-0/d STRC(144)   r     1 FPT_RELSTARF              34-0-0/d STRC(432)   r     1 FPT_WRITE
    54-0-0/w PTR         r     1 LASTKEY$                   0-0-0/d STRC(504)   r     1 READ_DATA
    16-0-0/d STRC(504)   r     1 READ_INDEX

  ****  Section 004  Data  FKA$OUTPUT

  ****  Scalars and arrays  ****
OctLoc.c.b A Datatyp(siz) R M Lvl/name                 OctLoc.c.b A Datatyp(siz) R M Lvl/name

   412-0-0/w SBIN        r     1 INDEX#                   410-0-0/w PTR         r     1 KEY$
   405-0-0/w SBIN        r     1 KEYOFF                   402-0-0/w SBIN        r     1 KEYSIZE
   403-0-0/w SBIN        r     1 KEYWORDS                   2-0-0/c STRC(9216)  r     1 LASTKEY
     1-0-0/w UBIN        r     1 LAST_GRAN                  0-0-0/w UBIN        r     1 NEXT_GRAN
   406-0-0/w SBIN        r     1 NEXT_KEY                 407-0-0/w SBIN        r     1 RESULT
   404-0-0/w PTR         r     1 SEGCNT$

  ****  Auto variables  ****

  ****  Scalars and arrays  ****
OctLoc.c.b A Datatyp(siz) R M Lvl/name                 OctLoc.c.b A Datatyp(siz) R M Lvl/name

     3-0-0/w PTR         r     1 @RECORD                    4-0-0/w PTR         r     1 @RECORD_SIZE
    *0-0-0/c ACHR        r     1 RECORD                     5-0-0/w PTR         r     1 RECORD$
    *0-0-0/w SBIN        r     1 RECORD_SIZE              415-0-0/w PTR         r     1 SEG$

  ****  SYMREF variables  ****

  ****  Scalars and arrays  ****
OctLoc.c.b A Datatyp(siz) R M Lvl/name                 OctLoc.c.b A Datatyp(siz) R M Lvl/name

PL6.E3A0      #007=FKA$OUTPUT File=FKA$ALTKEY.:E05TSI                            TUE 07/29/97 15:33 Page:428
     0-0-0/w PTR         r     1 FKA_ALTKEYS$               0-0-0/d STRC(37080) r     1 FKA_ALTKEY_BFR
     0-0-0/c CHAR(4096)  r     1 FKA_DATA_BUF               0-0-0/w SBIN        r     1 FKA_DATA_GRAN
     0-0-0/w PTR         r     1 FKA_DCB$                   0-0-0/b BIT         r     1 FKA_DUPS
     0-0-0/c CHAR(4096)  r     1 FKA_INDEX_BUF              0-0-0/w PTR         r     1 FKA_INDEX_BUF$
     0-0-0/w SBIN        r     1 FKA_INDEX_GRAN             0-0-0/w PTR         r     1 FKA_IRKEYS$
     0-0-0/w SBIN        r     1 FKA_KEYSIZE                0-0-0/w PTR         r     1 FKA_KTPTR$
     0-0-0/w PTR         r     1 FKA_RECFIELD$
     0-0-0/b BIT         r     1 FKA_UNIQUE(0:100)
     0-0-0/w UBIN        r     1 FM_FRZERO                  0-0-0/w STRC(1296)  r     1 SORT_TABLE

  ****  BASED and DCB variables  ****

  ****  Scalars and arrays  ****
OctLoc.c.b A Datatyp(siz) R M Lvl/name                 OctLoc.c.b A Datatyp(siz) R M Lvl/name

     0-0-0/c STRC(72)    r     1 CHAR8                      0-0-0/w STRC(36864) r     1 CLEAN_GRAN
     0-0-0/d ASTR(3528)  r     1 F$DCB                      0-0-0/w STRC(4572)  r     1 FITALTKEYS
     0-0-0/w STRC(180)   r     1 FM$GRAN                    0-0-0/w ASTR(18)    r     1 FM$IRENT
     0-0-0/w ASTR(9)     r     1 FM$KEYENT
     0-0-0/w UBIN(9)     r     1 FM$KEYTBL(0:279)
     0-0-0/w UBIN        r     1 FM$KT(0:69)                0-0-0/w STRC(72)    r     1 FM$MISEG
     0-0-0/w STRC(360)   r     1 IRKEYS                     0-0-0N  NULL        r     1 M$SI
     0-0-0/c UBIN(18)    r     1 SEGCNT                     0-0-0/c UBIN(9)     r     1 SORT_REC_INDX
     0-0-0/c ACHR        r     1 TEXT


   Procedure FKA$OUTPUT requires 503 words for executable code.
   Procedure FKA$OUTPUT requires 284 words of local(AUTO) storage.
PL6.E3A0      #007=FKA$OUTPUT File=FKA$ALTKEY.:E05TSI                            TUE 07/29/97 15:33 Page:429
          *** CROSS REFERENCE LISTING ***
**     DENOTES     IDENTIFIER DEFINITION
<<                 IDENTIFIER'S VALUE SET
>>                 IDENTIFIER'S VALUE USED
<>                 IDENTIFIER SET AND/OR USED
--                 IDENTIFIER REFERENCED
PL6.E3A0      #007=FKA$OUTPUT File=FKA$ALTKEY.:E05TSI                            TUE 07/29/97 15:33 Page:430
          MINI XREF LISTING

ABORT
      2391**LABEL    2348--CALLALT  2358--CALLALT  2363--CALLALT  2389--CALLALT
ABORT IN PROCEDURE ALLOCATE
      2496**LABEL    2476--CALLALT  2479--CALLALT  2486--CALLALT  2489--CALLALT
ADDKEY
      2404**PROC     2614--CALL
ADDSEG
      2446**PROC     2430--CALL     2616--CALL
ALLOCATE
      2471**PROC     2449--CALL     2563--CALL
CHAR8
      2333**DCL      2452>>ASSIGN   2580>>ASSIGN
CLEAN_GRAN.GRAN
      2338**DCL      2517<<ASSIGN
F$DCB.ACTPOS
      2067**DCL      2067--REDEF
F$DCB.ARS#
      2041**DCL      2041--REDEF
F$DCB.ATTR
      2060**DCL      2061--REDEF
F$DCB.BORROW
      2075**DCL      2075--REDEF    2075--REDEF    2075--REDEF
F$DCB.DCBNAME.L
      2089**DCL      2089--IMP-SIZ
F$DCB.EOMCHAR#
      2045**DCL      2045--REDEF
F$DCB.FLDID
      2070**DCL      2070--REDEF
F$DCB.FORM$
      2064**DCL      2064--REDEF
F$DCB.FSECT
      2080**DCL      2080--REDEF
PL6.E3A0      #007=FKA$OUTPUT File=FKA$ALTKEY.:E05TSI                            TUE 07/29/97 15:33 Page:431
F$DCB.FSN#
      2057**DCL      2057--REDEF    2057--REDEF    2058--REDEF
F$DCB.HEADER$
      2063**DCL      2063--REDEF
F$DCB.IXTNSIZE#
      2061**DCL      2061--REDEF
F$DCB.LASTSTA$
      2050**DCL      2050--REDEF
F$DCB.LVL
      2076**DCL      2076--REDEF
F$DCB.NAME#.C
      2051**DCL      2051--REDEF
F$DCB.NOEOF
      2073**DCL      2073--REDEF
F$DCB.NRECS#
      2062**DCL      2062--REDEF
F$DCB.NRECX
      2081**DCL      2081--REDEF
F$DCB.OHDR
      2073**DCL      2073--REDEF
F$DCB.ORG#
      2056**DCL      2056--REDEF    2350>>IF       2368>>IF       2408>>IF       2523>>IF       2529>>IF
      2565>>IF
F$DCB.PRECNO
      2079**DCL      2079--REDEF
F$DCB.RCSZ
      2085**DCL      2085--REDEF
F$DCB.RES#
      2052**DCL      2052--REDEF
F$DCB.SETX
      2064**DCL      2064--REDEF
F$DCB.SPARE#
      2059**DCL      2448>>IF       2562>>IF
F$DCB.TAB$
      2064**DCL      2064--REDEF
F$DCB.TDA
PL6.E3A0      #007=FKA$OUTPUT File=FKA$ALTKEY.:E05TSI                            TUE 07/29/97 15:33 Page:432
      2078**DCL      2079--REDEF
F$DCB.WSN#
      2052**DCL      2052--REDEF
FITALTKEYS.K.FDA
      2100**DCL      2351>>ASSIGN   2524<<ASSIGN
FITALTKEYS.K.KEYL
      2100**DCL      2370>>ASSIGN
FITALTKEYS.K.LDA
      2100**DCL      2530<<ASSIGN
FKA$ABORT
      2297**DCL-ENT  2391--CALL     2496--CALL
FKA$COMPKEY
      2299**DCL-ENT  2418--CALL
FKA_ALTKEYS$
       665**DCL      2099--IMP-PTR  2351>>ASSIGN   2370>>ASSIGN   2524>>ASSIGN   2530>>ASSIGN
FKA_ALTKEY_BFR
      2149**DCL      2027--DCLINIT
FKA_ALTKEY_BFR.CODE
      2154**DCL      2362<<ASSIGN   2475<<ASSIGN
FKA_ALTKEY_BFR.DA
      2156**DCL      2364>>ASSIGN   2478>>ASSIGN   2480>>ASSIGN
FKA_DATA_BUF
       670**DCL      1923--DCLINIT  1924--DCLINIT
FKA_DATA_GRAN
       668**DCL      1921--DCLINIT  1922--DCLINIT
FKA_DCB$
       668**DCL      2035--IMP-PTR  2350>>IF       2368>>IF       2408>>IF       2448>>IF       2523>>IF
      2529>>IF       2562>>IF       2565>>IF
FKA_DUPS
       669**DCL      2426<<ASSIGN
FKA_INDEX_BUF
       669**DCL      1963--DCLINIT  1964--DCLINIT  2002--DCLINIT  2003--DCLINIT
FKA_INDEX_BUF$
       670**DCL      2092--IMP-PTR  2365>>ASSIGN   2379>>ASSIGN   2448>>IF       2454>>ASSIGN   2454>>ASSIGN
      2455>>ASSIGN   2455>>ASSIGN   2478>>ASSIGN   2485>>ASSIGN   2491>>ASSIGN   2517>>ASSIGN   2518>>ASSIGN
      2519>>ASSIGN   2520>>ASSIGN   2535>>ASSIGN   2536>>ASSIGN   2537>>ASSIGN   2540>>ASSIGN   2540>>ASSIGN
PL6.E3A0      #007=FKA$OUTPUT File=FKA$ALTKEY.:E05TSI                            TUE 07/29/97 15:33 Page:433
      2541>>ASSIGN   2541>>ASSIGN   2543>>ASSIGN   2562>>IF       2562>>IF       2581>>ASSIGN   2581>>ASSIGN
      2582>>ASSIGN   2582>>ASSIGN   2583>>ASSIGN   2583>>ASSIGN
FKA_INDEX_GRAN
       668**DCL      1961--DCLINIT  1962--DCLINIT  2001--DCLINIT  2351<<ASSIGN   2353<<ASSIGN   2355>>IF
      2357<<ASSIGN   2357>>ASSIGN   2364<<ASSIGN   2480<<ASSIGN   2488<<ASSIGN   2518>>ASSIGN   2524>>ASSIGN
      2526>>ASSIGN   2530>>ASSIGN   2532>>ASSIGN   2534>>ASSIGN
FKA_IRKEYS$
       666**DCL      2169--IMP-PTR  2353>>ASSIGN   2375>>ASSIGN   2408>>IF       2526>>ASSIGN   2532>>ASSIGN
FKA_KEYSIZE
       669**DCL      2451>>ASSIGN   2579>>ASSIGN   2612>>ASSIGN
FKA_KTPTR$
       668**DCL      2096--IMP-PTR  2096--IMP-PTR  2537<<ASSIGN   2538>>ASSIGN   2539>>ASSIGN   2585>>IF
      2588>>ASSIGN   2591>>ASSIGN
FKA_RECFIELD$
       665**DCL      2116--IMP-PTR
FKA_UNIQUE
       665**DCL      2424>>IF       2427<<ASSIGN
FM$GRAN
      2092**DCL      2535--ASSIGN   2537--ASSIGN
FM$GRAN.AVAIL
      2093**DCL      2448>>IF       2454<<ASSIGN   2454>>ASSIGN   2540<<ASSIGN   2562>>IF       2582<<ASSIGN
      2582>>ASSIGN
FM$GRAN.BLINK
      2093**DCL      2519<<ASSIGN
FM$GRAN.FCEX
      2093**DCL      2535<<ASSIGN
FM$GRAN.FLINK
      2093**DCL      2365<<ASSIGN   2379>>ASSIGN   2478<<ASSIGN   2485<<ASSIGN   2491>>ASSIGN   2520<<ASSIGN
FM$GRAN.KEYCNT
      2093**DCL      2536<<ASSIGN   2562>>IF       2581<<ASSIGN   2581>>ASSIGN
FM$GRAN.NAVX
      2092**DCL      2455<<ASSIGN   2455>>ASSIGN   2541<<ASSIGN   2543>>ASSIGN   2583<<ASSIGN   2583>>ASSIGN
FM$GRAN.STAMP.GMOD
      2092**DCL      2518<<ASSIGN
FM$IRENT.KLB
      2183**DCL      2183--IMP-SIZ  2572<<ASSIGN   2573>>ASSIGN
PL6.E3A0      #007=FKA$OUTPUT File=FKA$ALTKEY.:E05TSI                            TUE 07/29/97 15:33 Page:434
FM$IRENT.TXT
      2183**DCL      2573<<ASSIGN
FM$KEYENT.KLB
      2180**DCL      2180--IMP-SIZ  2567<<ASSIGN   2568>>ASSIGN
FM$KEYENT.TXT
      2180**DCL      2568<<ASSIGN
FM$KEYTBL
      2096**DCL      2538<<ASSIGN   2538--ASSIGN   2539--ASSIGN   2585>>IF       2585--IF       2588<<ASSIGN
      2591<<ASSIGN
FM$KT
      2096**DCL      2096--REDEF
FM$MISEG
      2176**DCL      2452<<ASSIGN   2580<<ASSIGN
FM_FRZERO
      2301**DCL      2357>>ASSIGN   2364>>ASSIGN   2480>>ASSIGN   2488>>ASSIGN   2524>>ASSIGN   2526>>ASSIGN
      2530>>ASSIGN   2532>>ASSIGN   2534>>ASSIGN
FPT_RELSTARF
      2026**DCL      2363<>CALL     2476<>CALL
FPT_WRITE
      2001**DCL      2348<>CALL     2389<>CALL     2479<>CALL     2486<>CALL
FPT_WRITE.STATION_
      2003**DCL      2003--REDEF
FPT_WRITE.V
      2004**DCL      2001--DCLINIT
FPT_WRITE.V.DVBYTE.VFC#
      2010**DCL      2010--REDEF
INDEX#
      2328**DCL      2345>>IF       2347>>IF       2349<<ASSIGN   2351>>ASSIGN   2353>>ASSIGN   2370>>ASSIGN
      2375>>ASSIGN   2408>>IF       2417>>ASSIGN   2424>>IF       2427>>ASSIGN   2524>>ASSIGN   2526>>ASSIGN
      2530>>ASSIGN   2532>>ASSIGN
INIT_GRAN
      2515**PROC     2381--CALL     2481--CALL     2492--CALL
IRKEYS.K.DEGENERATE
      2171**DCL      2408>>IF
IRKEYS.K.FDA
      2172**DCL      2353>>ASSIGN   2526<<ASSIGN
PL6.E3A0      #007=FKA$OUTPUT File=FKA$ALTKEY.:E05TSI                            TUE 07/29/97 15:33 Page:435
IRKEYS.K.KEYL
      2170**DCL      2375>>ASSIGN
IRKEYS.K.LDA
      2173**DCL      2532<<ASSIGN
KEY$
      2318**DCL      2180--IMP-PTR  2183--IMP-PTR  2452>>ASSIGN   2453<<ASSIGN   2453>>ASSIGN   2539<<ASSIGN
      2540>>ASSIGN   2541>>ASSIGN   2567>>ASSIGN   2568>>ASSIGN   2568>>ASSIGN   2572>>ASSIGN   2573>>ASSIGN
      2573>>ASSIGN   2578<<ASSIGN   2578>>ASSIGN   2580>>ASSIGN   2594<<ASSIGN   2594>>ASSIGN
KEYOFF
      2314**DCL      2456<<ASSIGN   2456>>ASSIGN   2543<<ASSIGN   2585>>IF       2587<<ASSIGN   2587>>ASSIGN
      2591>>ASSIGN   2592<<ASSIGN   2592>>ASSIGN
KEYSIZE
      2311**DCL      2335--IMP-SIZ  2370<<ASSIGN   2371>>ASSIGN   2375<<ASSIGN   2376>>ASSIGN   2411>>IF
      2411>>IF       2418>>CALL     2418>>CALL     2567>>ASSIGN   2568>>ASSIGN   2572>>ASSIGN   2573>>ASSIGN
      2576>>ASSIGN   2577>>ASSIGN
KEYWORDS
      2312**DCL      2371<<ASSIGN   2376<<ASSIGN   2562>>IF       2578>>ASSIGN   2582>>ASSIGN   2583>>ASSIGN
      2592>>ASSIGN
LASTKEY.BINTEXT
      2308**DCL      2383<<ASSIGN
LASTKEY.SIZE
      2306**DCL      2382<<ASSIGN   2407>>IF       2576<<ASSIGN
LASTKEY.TEXT
      2307**DCL      2308--REDEF    2310--DCLINIT  2577<<ASSIGN
LASTKEY$
      2310**DCL      2411>>IF       2418>>CALL
LAST_GRAN
      2304**DCL      2380<<ASSIGN   2519>>ASSIGN   2521>>IF       2534<<ASSIGN
M$READ
        46**DCL-ENT  2358--CALL     2489--CALL
M$RELSTARF
        54**DCL-ENT  2363--CALL     2476--CALL
M$WRITE
        46**DCL-ENT  2348--CALL     2389--CALL     2479--CALL     2486--CALL
NEWKEY
      2560**PROC     2433--CALL
PL6.E3A0      #007=FKA$OUTPUT File=FKA$ALTKEY.:E05TSI                            TUE 07/29/97 15:33 Page:436
NEXT_GRAN
      2303**DCL      2379<<ASSIGN   2473>>IF       2485>>ASSIGN   2488>>ASSIGN   2491<<ASSIGN
NEXT_KEY
      2315**DCL      2542<<ASSIGN   2588>>ASSIGN   2591>>ASSIGN   2593<<ASSIGN   2593>>ASSIGN
READ_DATA.STATION_
      1924**DCL      1925--REDEF
READ_DATA.V
      1925**DCL      1921--DCLINIT
READ_DATA.V.DVBYTE.REREAD#
      1936**DCL      1936--REDEF
READ_DATA.V.INDX#
      1934**DCL      1934--REDEF
READ_INDEX
      1961**DCL      2358<>CALL     2489<>CALL
READ_INDEX.STATION_
      1964**DCL      1965--REDEF
READ_INDEX.V
      1965**DCL      1961--DCLINIT
READ_INDEX.V.DVBYTE.REREAD#
      1976**DCL      1976--REDEF
READ_INDEX.V.INDX#
      1974**DCL      1974--REDEF
RECFIELD.FIELD
      2124**DCL      2124--REDEF
RECORD
        33**DCL        31--PROC     2344--ASSIGN
RECORD$
      2302**DCL      2331--IMP-PTR  2344<<ASSIGN   2345>>IF       2349>>ASSIGN   2411>>IF       2418>>CALL
      2451<<ASSIGN   2451>>ASSIGN   2452>>ASSIGN   2568>>ASSIGN   2573>>ASSIGN   2577>>ASSIGN   2579<<ASSIGN
      2579>>ASSIGN   2580>>ASSIGN   2610<<ASSIGN   2610>>ASSIGN   2612>>ASSIGN
RECORD_SIZE
        34**DCL        31--PROC       33--IMP-SIZ  2345>>IF       2386>>IF
RESULT
      2316**DCL      2406<<ASSIGN   2412<<ASSIGN   2414<<ASSIGN   2417<<ASSIGN   2418<>CALL     2422>>IF
SEG$
      2327**DCL      2176--IMP-PTR
PL6.E3A0      #007=FKA$OUTPUT File=FKA$ALTKEY.:E05TSI                            TUE 07/29/97 15:33 Page:437
SEGCNT
      2332**DCL      2613>>IF
SEGCNT$
      2313**DCL      2332--IMP-PTR  2612<<ASSIGN   2613>>IF
SORT_REC_INDX
      2331**DCL      2345>>IF       2349>>ASSIGN
SORT_TABLE.SECONDARY.KCE$
      2283**DCL      2408>>IF
TEXT
      2335**DCL      2411>>IF       2411>>IF       2418<>CALL     2418<>CALL     2568>>ASSIGN   2573>>ASSIGN
      2577>>ASSIGN
WRITE_RECORD
      2608**PROC     2387--CALL
PL6.E3A0      #007=FKA$OUTPUT File=FKA$ALTKEY.:E05TSI                            TUE 07/29/97 15:33 Page:438
              *** CROSS REFERENCE LISTING ***
    **     DENOTES     IDENTIFIER DEFINITION
    <<                 IDENTIFIER'S VALUE SET
    >>                 IDENTIFIER'S VALUE USED
    <>                 IDENTIFIER SET AND/OR USED
    --                 IDENTIFIER REFERENCED
PL6.E3A0      #007=FKA$OUTPUT File=FKA$ALTKEY.:E05TSI                            TUE 07/29/97 15:33 Page:439
              MINI UREF LISTING

ASCII    2323**DCL
FIELD$    2322**DCL
FKA$OUTPUT      31**PROC
FKA_BOUND     668**DCL
FKA_CLOSE_DONE     672**DCL
FKA_CMDVAR     671**DCL
FKA_CMDVAR_EXIST     671**DCL
FKA_CMDVAR_SET     671**DCL
FKA_CODE19$     667**DCL
FKA_CODE20$     667**DCL
FKA_DATA_BUF$     670**DCL
FKA_FIELD_START_DATA     666**DCL
FKA_FILE_OPEN     671**DCL
FKA_IRKEYS_DATA     666**DCL
FKA_KFIELD$     667**DCL
FKA_KFIELD_DATA     667**DCL
FKA_M$CLOSE_ERR     672**DCL
FKA_MON     665**DCL
FKA_NUMKEYS     669**DCL
FKA_RECSIZE     669**DCL
FKA_START$     665**DCL
J    2324**DCL
K    2325**DCL
KEY_SIZE    2320**DCL
KEY_TEMP    2321**DCL
M$ACCT      62**DCL-ENT
M$ACTIVATE      65**DCL-ENT
M$ALIB      58**DCL-ENT
M$ASUSER      60**DCL-ENT
M$ATTACH      67**DCL-ENT
M$BADPP      85**DCL-ENT
M$CGCTL      66**DCL-ENT
PL6.E3A0      #007=FKA$OUTPUT File=FKA$ALTKEY.:E05TSI                            TUE 07/29/97 15:33 Page:440
M$CGINFO      66**DCL-ENT
M$CHECK      47**DCL-ENT
M$CHGUNIT     105**DCL-ENT
M$CLOSE      45**DCL-ENT
M$CLRSTK     103**DCL-ENT
M$CMDVAR     114**DCL-ENT
M$CONFIG      75**DCL-ENT
M$CORRES      50**DCL-ENT
M$CPEXIT      59**DCL-ENT
M$CVM      83**DCL-ENT
M$CVOL      48**DCL-ENT
M$DCLFLD      75**DCL-ENT
M$DEACTIVATE      65**DCL-ENT
M$DELREC      47**DCL-ENT
M$DEQ     112**DCL-ENT
M$DETACH      67**DCL-ENT
M$DEVICE      49**DCL-ENT
M$DISPLAY     112**DCL-ENT
M$DISPRES      52**DCL-ENT
M$DLIB      58**DCL-ENT
M$DO    2032**DCL
M$DRIBBLE      75**DCL-ENT
M$DRTN     103**DCL-ENT
M$DSUSER      60**DCL-ENT
M$ENQ     111**DCL-ENT
M$EOM      70**DCL-ENT
M$ERASE      76**DCL-ENT
M$ERR      57**DCL-ENT
M$ERRMSG     108**DCL-ENT
M$EVENT     100**DCL-ENT
M$EXHUME     109**DCL-ENT
M$EXIT      57**DCL-ENT
M$EXTEND      49**DCL-ENT
M$FDP      81**DCL-ENT
M$FDS      80**DCL-ENT
M$FEBOOT      73**DCL-ENT
PL6.E3A0      #007=FKA$OUTPUT File=FKA$ALTKEY.:E05TSI                            TUE 07/29/97 15:33 Page:441
M$FECTL      74**DCL-ENT
M$FEDUMP      73**DCL-ENT
M$FID     108**DCL-ENT
M$FINDPROC      62**DCL-ENT
M$FSUSER      60**DCL-ENT
M$FVP      82**DCL-ENT
M$FWCG      66**DCL-ENT
M$GBPL      86**DCL-ENT
M$GDDL      82**DCL-ENT
M$GDP      81**DCL-ENT
M$GDS      80**DCL-ENT
M$GETDCB      51**DCL-ENT
M$GETMOUSE      91**DCL-ENT
M$GETPM      92**DCL-ENT
M$GJOB     110**DCL-ENT
M$GLINEATTR      70**DCL-ENT
M$GOODPP      85**DCL-ENT
M$GPLATEN      78**DCL-ENT
M$GPROMPT      77**DCL-ENT
M$GTRMATTR      71**DCL-ENT
M$GTRMCTL      69**DCL-ENT
M$GTRMTAB      72**DCL-ENT
M$GVP      81**DCL-ENT
M$HELP     108**DCL-ENT
M$INT     100**DCL-ENT
M$INTRTN      61**DCL-ENT
M$IOQ      96**DCL-ENT
M$JOBSTATS     110**DCL-ENT
M$KEYIN      50**DCL-ENT
M$LDEV      45**DCL-ENT
M$LDTRC      58**DCL-ENT
M$LIMIT      51**DCL-ENT
M$LINES      50**DCL-ENT
M$LINK      57**DCL-ENT
M$MADMUCK      53**DCL-ENT
M$MAKUSER      84**DCL-ENT
PL6.E3A0      #007=FKA$OUTPUT File=FKA$ALTKEY.:E05TSI                            TUE 07/29/97 15:33 Page:442
M$MBS      52**DCL-ENT
M$MDFFLD      76**DCL-ENT
M$MERC     101**DCL-ENT
M$MERCS     102**DCL-ENT
M$MIRROR      96**DCL-ENT
M$MONINFO     113**DCL-ENT
M$MPL      86**DCL-ENT
M$NODEINFO      77**DCL-ENT
M$NXTUSR     111**DCL-ENT
M$OCMSG     109**DCL-ENT
M$OLAY      57**DCL-ENT
M$OPEN      45**DCL-ENT
M$PAS      86**DCL-ENT
M$PATHCON     109**DCL-ENT
M$PDS      80**DCL-ENT
M$PFIL      47**DCL-ENT
M$PLATEN      71**DCL-ENT
M$PRECORD      49**DCL-ENT
M$PROCNAME      62**DCL-ENT
M$PROFILE      73**DCL-ENT
M$PROMPT      69**DCL-ENT
M$RACST      53**DCL-ENT
M$RDSYSLOG      94**DCL-ENT
M$RELDCB      51**DCL-ENT
M$RELRES      52**DCL-ENT
M$REM      54**DCL-ENT
M$RENV     101**DCL-ENT
M$REQUIRE      53**DCL-ENT
M$RETRY     102**DCL-ENT
M$RETRYS     102**DCL-ENT
M$REW      48**DCL-ENT
M$RLSFLD      76**DCL-ENT
M$RPRIV     104**DCL-ENT
M$RSPP      83**DCL-ENT
M$RSWITCH     105**DCL-ENT
M$RUE     111**DCL-ENT
PL6.E3A0      #007=FKA$OUTPUT File=FKA$ALTKEY.:E05TSI                            TUE 07/29/97 15:33 Page:443
M$SAD      84**DCL-ENT
M$SAVE      60**DCL-ENT
M$SCON      61**DCL-ENT
M$SCREECH      59**DCL-ENT
M$SENV     101**DCL-ENT
M$SETFMA      45**DCL-ENT
M$SETFP      74**DCL-ENT
M$SI    2031**DCL
M$SINPUT      72**DCL-ENT
M$SLCFLD      77**DCL-ENT
M$SMOUSE      91**DCL-ENT
M$SMPRT      83**DCL-ENT
M$SPRIV     104**DCL-ENT
M$SSC      84**DCL-ENT
M$SSWITCH     104**DCL-ENT
M$STATE     113**DCL-ENT
M$STD      85**DCL-ENT
M$STIMER      99**DCL-ENT
M$STLPP      82**DCL-ENT
M$STRAP      99**DCL-ENT
M$STRMATTR      71**DCL-ENT
M$STRMCTL      69**DCL-ENT
M$STRMTAB      72**DCL-ENT
M$SYMBIO     110**DCL-ENT
M$SYSCON      96**DCL-ENT
M$SYSID     114**DCL-ENT
M$TDCLOSE      95**DCL-ENT
M$TDIO      95**DCL-ENT
M$TDOPEN      94**DCL-ENT
M$TDREQCPU      95**DCL-ENT
M$TEMPWROC      89**DCL-ENT
M$TIME     112**DCL-ENT
M$TRAP      99**DCL-ENT
M$TRMISC      74**DCL-ENT
M$TRMPRG      70**DCL-ENT
M$TRTN     103**DCL-ENT
PL6.E3A0      #007=FKA$OUTPUT File=FKA$ALTKEY.:E05TSI                            TUE 07/29/97 15:33 Page:444
M$TRUNC      46**DCL-ENT
M$TTIMER      99**DCL-ENT
M$UC      69**DCL
M$UMPL      86**DCL-ENT
M$UNFID     108**DCL-ENT
M$UNLATCH      65**DCL-ENT
M$UNSHARE      62**DCL-ENT
M$USRFIELD     105**DCL-ENT
M$VIRTUAL      80**DCL-ENT
M$WAIT     103**DCL-ENT
M$WEOF      48**DCL-ENT
M$WRSYSLOG      94**DCL-ENT
M$XCON     100**DCL-ENT
M$XCONRTN      61**DCL-ENT
M$XEQTIME     113**DCL-ENT
M$XFLUSH      54**DCL-ENT
M$XMOUSE      91**DCL-ENT
M$XXX      57**DCL-ENT
M$YC      59**DCL-ENT
N    2326**DCL
REPORT_INDEX#    2319**DCL
TEMPA    2339**DCL
UNIQUE    2317**DCL
X$WRITE    2298**DCL-ENT
XBUF    2329**DCL
XUR$ERRMSG    2296**DCL-ENT

PL6.E3A0      #008=FKA$XCON File=FKA$ALTKEY.:E05TSI                              TUE 07/29/97 15:33 Page:445
     2134        1        /*T***********************************************************/
     2135        2        /*T*                                                         */
     2136        3        /*T* Copyright (c) Bull HN Information Systems Inc., 1997    */
     2137        4        /*T*                                                         */
     2138        5        /*T***********************************************************/
     2139        6        /*F*     NAME:     FKA$XCON
     2140        7                 PURPOSE:  To handle abnormal exits from ALTKEY
     2141        8                 DESCRIPTION:
     2142        9
     2143       10                      Reset exit control, so we don't hit this again.
     2144       11                 Save some sort of funny pointer.  Close the file.
     2145       12                 If the user didn't request the exit (e.g. ctrl-Y), then
     2146       13                 tell him what went wrong, and abort.  Otherwise, if we got
     2147       14                 an error from the close, tell him that and abort.
     2148       15        */
     2149       16         %EJECT;
PL6.E3A0      #008=FKA$XCON File=FKA$ALTKEY.:E05TSI                              TUE 07/29/97 15:33 Page:446
     2150       17        FKA$XCON: PROC ASYNC;
     2151       18         %INCLUDE CP_6;
     2152       99         %INCLUDE CP_6_SUBS;
     2153      639         %INCLUDE FKA_DATA_R;
     2154      655         %INCLUDE FK_DATA_C;
     2155      732         %FPT_XXX(CODE=ERRCODE, STEPCC=ERROR, STCLASS=CONSTANT);
     2156      747        /* */
     2157      748    1     DCL XUR$ERRMSG ENTRY(7) ALTRET;
     2158      749    1     DCL FKA$CLOSE ENTRY(1) ALTRET;
     2159      750        /* */
     2160      751         %FPT_XCON(FPTN=RESET_XCON, STCLASS=CONSTANT);
     2161      765         %B$TCB;
     2162      768         %B$ALT;
     2163      776         %B$XCON;
     2164      786         %B$ECCB;
     2165      794         %FKA$ERR(FPTN=CLOSERR,STCLASS=" ");
     2166      800        /* */
     2167      801    1     DCL B$ECCB$ PTR SYMREF;
     2168      802    1     DCL B$TCB$ PTR SYMREF;
     2169      803        /* */
     2170      804    1     DCL ECCB$ PTR;
     2171      805    1     DCL ERRCODE BIT(36) STATIC;
     2172      806    1     DCL DCB# UBIN;
     2173      807        /* */
     2174      808    1           CALL M$XCON(RESET_XCON);
     2175      809    1           IF B$ECCB$->B$ECCB.XCONF.NOTCB THEN
     2176      810    1              ECCB$=B$TCB$->B$TCB.ALT$;
     2177      811    1           ELSE
     2178      812    1              ECCB$=B$TCB$->B$TCB.STK$;
     2179      813
     2180      814    1           IF NOT ECCB$->B$XCON.RNST.OPERR THEN
     2181      815    1              ERRCODE=ECCB$->B$XCON.ERR;
     2182      816    1           ELSE ERRCODE='0'B;
     2183      817    1           DCB#=0;
     2184      818
     2185      819    2           CALL FKA$CLOSE(CLOSERR) WHENALTRETURN DO;
     2186      820    2              IF ERRCODE='0'B THEN
PL6.E3A0      #008=FKA$XCON File=FKA$ALTKEY.:E05TSI                              TUE 07/29/97 15:33 Page:447
     2187      821    3              DO;
     2188      822    3                 ERRCODE=CLOSERR.ERR;
     2189      823    3                 DCB#=CLOSERR.DCB#;
     2190      824    3                 END;
     2191      825    2              END;
     2192      826
     2193      827    1           IF ERRCODE ~= '0'B THEN
     2194      828    2           DO;                             /* SET ERROR                          */
     2195      829    2              IF FKA_MON = %NO# THEN
     2196      830    2                 IF DCB#=0 THEN
     2197      831    2                    CALL XUR$ERRMSG(ERRCODE);
     2198      832    2                 ELSE CALL XUR$ERRMSG(ERRCODE,DCB#);
     2199      833    2              CALL M$XXX(FPT_XXX);
     2200      834    2              END;                         /* SET ERROR                          */
     2201      835    1           ELSE
     2202      836    1              CALL M$EXIT;
     2203      837    1   END FKA$XCON;

PL6.E3A0      #008=FKA$XCON File=FKA$ALTKEY.:E05TSI                              TUE 07/29/97 15:33 Page:448
--  Include file information  --

   FK_DATA_C.:E05TOU  is referenced.
   FKA_DATA_R.:E05TOU  cannot be made into a system file and is referenced.
   CP_6_SUBS.:E05TOU  is referenced.
   CP_6.:E05TOU  cannot be made into a system file and is referenced.
   B$JIT_C.:E05TOU  was found in the system file and is never referenced.
   CP_6_C.:E05TOU  was found in the system file and is referenced.
      No diagnostics issued in procedure FKA$XCON.

   Procedure FKA$XCON requires 65 words for executable code.
   Procedure FKA$XCON requires 10 words of local(AUTO) storage.

    No errors detected in file FKA$ALTKEY.:E05TSI    .

PL6.E3A0      #008=FKA$XCON File=FKA$ALTKEY.:E05TSI                              TUE 07/29/97 15:33 Page:449

 Object Unit name= FKA$XCON                                   File name= FKA$ALTKEY.:E05TOU
 UTS= JUL 29 '97 15:33:21.80 TUE                              Compiler= PL-6/E31         Sev=      00
 SharedLib= :SHARED_SYSTEM                                    Alt SharedLib=


    ****  Control sections  ****

 Sect   Type Bound  Init  Size OctSiz  Section name(segment info)
    0   DCB   even  none     0      0  M$UC
    1  RoData even  UTS     12     14  FKA$XCON
    2   Data  even  none     1      1  FKA$XCON
    3   Proc  even  none    65    101  FKA$XCON
    4  RoData even  none     1      1  FKA$XCON

    ****  Entry defs  ****

                              Check   Calling
                             calling  sequence
  Sect OctLoc Primary Altret sequence   type   Parms  Name
     3      0   yes            yes     Async       0  FKA$XCON

  ****  Entry refs  ****

         Check        Calling
        calling       sequence
Altret sequence SRef   type   Args  Name
 yes     yes           Std       1 FKA$CLOSE
 yes     yes           Std       7 XUR$ERRMSG
                       nStd      0 X66_AAUTO
                       Std       0 B_CONSPOOL_D
                       nStd      0 X66_AARET
PL6.E3A0      #008=FKA$XCON File=FKA$ALTKEY.:E05TSI                              TUE 07/29/97 15:33 Page:450

  ****  Data refs  ****

  Flags:  r = read only, s = secondary
Flgs Name                             Flgs Name                             Flgs Name
     M$UC                                  FKA_MON                               B$ECCB$
     B$TCB$                                B_VECTNIL

  ****  Segment refs  ****

  Flags:  r = read only, s = secondary
Flgs Name                             Flgs Name                             Flgs Name
     ISSID                                 NULLSID
PL6.E3A0      #008=FKA$XCON File=FKA$ALTKEY.:E05TSI                              TUE 07/29/97 15:33 Page:451


     2134        1        /*T***********************************************************/
     2135        2        /*T*                                                         */
     2136        3        /*T* Copyright (c) Bull HN Information Systems Inc., 1997    */
     2137        4        /*T*                                                         */
     2138        5        /*T***********************************************************/
     2139        6        /*F*     NAME:     FKA$XCON
     2140        7                 PURPOSE:  To handle abnormal exits from ALTKEY
     2141        8                 DESCRIPTION:
     2142        9
     2143       10                      Reset exit control, so we don't hit this again.
     2144       11                 Save some sort of funny pointer.  Close the file.
     2145       12                 If the user didn't request the exit (e.g. ctrl-Y), then
     2146       13                 tell him what went wrong, and abort.  Otherwise, if we got
     2147       14                 an error from the close, tell him that and abort.
     2148       15        */
     2149       16         %EJECT;
PL6.E3A0      #008=FKA$XCON File=FKA$ALTKEY.:E05TSI                              TUE 07/29/97 15:33 Page:452
     2150       17        FKA$XCON: PROC ASYNC;

     17  3 000000   000000 700200 xent  FKA$XCON     TSX0  ! X66_AAUTO
         3 000001   000012 000000                    ZERO    10,0

     2151       18         %INCLUDE CP_6;
     2152       99         %INCLUDE CP_6_SUBS;
     2153      639         %INCLUDE FKA_DATA_R;
     2154      655         %INCLUDE FK_DATA_C;
     2155      732         %FPT_XXX(CODE=ERRCODE, STEPCC=ERROR, STCLASS=CONSTANT);
     2156      747        /* */
     2157      748    1     DCL XUR$ERRMSG ENTRY(7) ALTRET;
     2158      749    1     DCL FKA$CLOSE ENTRY(1) ALTRET;
     2159      750        /* */
     2160      751         %FPT_XCON(FPTN=RESET_XCON, STCLASS=CONSTANT);
     2161      765         %B$TCB;
     2162      768         %B$ALT;
     2163      776         %B$XCON;
     2164      786         %B$ECCB;
     2165      794         %FKA$ERR(FPTN=CLOSERR,STCLASS=" ");
     2166      800        /* */
     2167      801    1     DCL B$ECCB$ PTR SYMREF;
     2168      802    1     DCL B$TCB$ PTR SYMREF;
     2169      803        /* */
     2170      804    1     DCL ECCB$ PTR;
     2171      805    1     DCL ERRCODE BIT(36) STATIC;
     2172      806    1     DCL DCB# UBIN;
     2173      807        /* */
     2174      808    1           CALL M$XCON(RESET_XCON);

    808  3 000002   000006 630400 1                  EPPR0   RESET_XCON
         3 000003   010003 713400                    CLIMB   4099
         3 000004   400400 401760                    pmme    nvectors=2

     2175      809    1           IF B$ECCB$->B$ECCB.XCONF.NOTCB THEN

    809  3 000005   000000 470400 xsym               LDP0    B$ECCB$
PL6.E3A0      #008=FKA$XCON File=FKA$ALTKEY.:E05TSI                              TUE 07/29/97 15:33 Page:453
         3 000006   000004 236100                    LDQ     4,,PR0
         3 000007   000200 316003                    CANQ    128,DU
         3 000010   000015 600000 3                  TZE     s:812

     2176      810    1              ECCB$=B$TCB$->B$TCB.ALT$;

    810  3 000011   000000 471400 xsym               LDP1    B$TCB$
         3 000012   100000 236100                    LDQ     0,,PR1
         3 000013   200005 756100                    STQ     ECCB$,,AUTO
         3 000014   000020 710000 3                  TRA     s:814

     2177      811    1           ELSE
     2178      812    1              ECCB$=B$TCB$->B$TCB.STK$;

    812  3 000015   000000 471400 xsym               LDP1    B$TCB$
         3 000016   100001 236100                    LDQ     1,,PR1
         3 000017   200005 756100                    STQ     ECCB$,,AUTO

     2179      813
     2180      814    1           IF NOT ECCB$->B$XCON.RNST.OPERR THEN

    814  3 000020   200005 473500                    LDP3    ECCB$,,AUTO
         3 000021   300101 236100                    LDQ     65,,PR3
         3 000022   020000 316003                    CANQ    8192,DU
         3 000023   000027 601000 3                  TNZ     s:816

     2181      815    1              ERRCODE=ECCB$->B$XCON.ERR;

    815  3 000024   300102 236100                    LDQ     66,,PR3
         3 000025   000000 756000 2                  STQ     ERRCODE
         3 000026   000030 710000 3                  TRA     s:817

     2182      816    1           ELSE ERRCODE='0'B;

    816  3 000027   000000 450000 2                  STZ     ERRCODE

     2183      817    1           DCB#=0;
PL6.E3A0      #008=FKA$XCON File=FKA$ALTKEY.:E05TSI                              TUE 07/29/97 15:33 Page:454

    817  3 000030   200006 450100                    STZ     DCB#,,AUTO

     2184      818
     2185      819    2           CALL FKA$CLOSE(CLOSERR) WHENALTRETURN DO;

    819  3 000031   200003 634500                    EPPR4   CLOSERR,,AUTO
         3 000032   200010 454500                    STP4    DCB#+2,,AUTO
         3 000033   200010 630500                    EPPR0   DCB#+2,,AUTO
         3 000034   000017 631400 xsym               EPPR1   B_VECTNIL+15
         3 000035   000000 701000 xent               TSX1    FKA$CLOSE
         3 000036   000040 702000 3                  TSX2    s:820
         3 000037   000047 710000 3                  TRA     s:827

     2186      820    2              IF ERRCODE='0'B THEN

    820  3 000040   000000 235000 2                  LDA     ERRCODE
         3 000041   000047 601000 3                  TNZ     s:827

     2187      821    3              DO;

     2188      822    3                 ERRCODE=CLOSERR.ERR;

    822  3 000042   200003 236100                    LDQ     CLOSERR,,AUTO
         3 000043   000000 756000 2                  STQ     ERRCODE

     2189      823    3                 DCB#=CLOSERR.DCB#;

    823  3 000044   200004 236100                    LDQ     CLOSERR+1,,AUTO
         3 000045   777777 376007                    ANQ     -1,DL
         3 000046   200006 756100                    STQ     DCB#,,AUTO

     2190      824    3                 END;

     2191      825    2              END;

     2192      826
PL6.E3A0      #008=FKA$XCON File=FKA$ALTKEY.:E05TSI                              TUE 07/29/97 15:33 Page:455
     2193      827    1           IF ERRCODE ~= '0'B THEN

    827  3 000047   000000 235000 2                  LDA     ERRCODE
         3 000050   000076 600000 3                  TZE     s:836

     2194      828    2           DO;                             /* SET ERROR                          */

     2195      829    2              IF FKA_MON = %NO# THEN

    829  3 000051   000000 234000 xsym               SZN     FKA_MON
         3 000052   000072 604000 3                  TMI     s:833

     2196      830    2                 IF DCB#=0 THEN

    830  3 000053   200006 236100                    LDQ     DCB#,,AUTO
         3 000054   000062 601000 3                  TNZ     s:832

     2197      831    2                    CALL XUR$ERRMSG(ERRCODE);

    831  3 000055   000000 630400 4                  EPPR0   0
         3 000056   000017 631400 xsym               EPPR1   B_VECTNIL+15
         3 000057   000000 701000 xent               TSX1    XUR$ERRMSG
         3 000060   000000 011000                    NOP     0
         3 000061   000072 710000 3                  TRA     s:833

     2198      832    2                 ELSE CALL XUR$ERRMSG(ERRCODE,DCB#);

    832  3 000062   200006 630500                    EPPR0   DCB#,,AUTO
         3 000063   200011 450500                    STP0    DCB#+3,,AUTO
         3 000064   000000 236000 4                  LDQ     0
         3 000065   200010 756100                    STQ     DCB#+2,,AUTO
         3 000066   200010 630500                    EPPR0   DCB#+2,,AUTO
         3 000067   000020 631400 xsym               EPPR1   B_VECTNIL+16
         3 000070   000000 701000 xent               TSX1    XUR$ERRMSG
         3 000071   000000 011000                    NOP     0

     2199      833    2              CALL M$XXX(FPT_XXX);
PL6.E3A0      #008=FKA$XCON File=FKA$ALTKEY.:E05TSI                              TUE 07/29/97 15:33 Page:456

    833  3 000072   000000 630400 1                  EPPR0   FPT_XXX
         3 000073   000003 713400                    CLIMB   3
         3 000074   400400 401760                    pmme    nvectors=2

     2200      834    2              END;                         /* SET ERROR                          */

    834  3 000075   000100 710000 3                  TRA     s:837

     2201      835    1           ELSE
     2202      836    1              CALL M$EXIT;

    836  3 000076   000001 713400                    CLIMB   exit
         3 000077   000000 401760                    pmme    nvectors=0

     2203      837    1   END FKA$XCON;

    837  3 000100   000000 702200 xent               TSX2  ! X66_AARET

PL6.E3A0      #008=FKA$XCON File=FKA$ALTKEY.:E05TSI                              TUE 07/29/97 15:33 Page:457
--  Include file information  --

   FK_DATA_C.:E05TOU  is referenced.
   FKA_DATA_R.:E05TOU  cannot be made into a system file and is referenced.
   CP_6_SUBS.:E05TOU  is referenced.
   CP_6.:E05TOU  cannot be made into a system file and is referenced.
   B$JIT_C.:E05TOU  was found in the system file and is never referenced.
   CP_6_C.:E05TOU  was found in the system file and is referenced.
      No diagnostics issued in procedure FKA$XCON.
PL6.E3A0      #008=FKA$XCON File=FKA$ALTKEY.:E05TSI                              TUE 07/29/97 15:33 Page:458

 **** Variables and constants ****

  ****  Section 001 RoData FKA$XCON

  ****  Scalars and arrays  ****
OctLoc.c.b A Datatyp(siz) R M Lvl/name                 OctLoc.c.b A Datatyp(siz) R M Lvl/name

     0-0-0/d STRC(216)   r     1 FPT_XXX                    6-0-0/d STRC(216)   r     1 RESET_XCON

  ****  Section 002  Data  FKA$XCON

  ****  Scalars and arrays  ****
OctLoc.c.b A Datatyp(siz) R M Lvl/name                 OctLoc.c.b A Datatyp(siz) R M Lvl/name

     0-0-0/b BIT         r     1 ERRCODE

  ****  Auto variables  ****

  ****  Scalars and arrays  ****
OctLoc.c.b A Datatyp(siz) R M Lvl/name                 OctLoc.c.b A Datatyp(siz) R M Lvl/name

     3-0-0/w STRC(72)    r     1 CLOSERR                    6-0-0/w UBIN        r     1 DCB#
     5-0-0/w PTR         r     1 ECCB$

  ****  SYMREF variables  ****

  ****  Scalars and arrays  ****
OctLoc.c.b A Datatyp(siz) R M Lvl/name                 OctLoc.c.b A Datatyp(siz) R M Lvl/name

     0-0-0/w PTR         r     1 B$ECCB$                    0-0-0/w PTR         r     1 B$TCB$
     0-0-0/b BIT         r     1 FKA_MON

  ****  BASED and DCB variables  ****

  ****  Scalars and arrays  ****
OctLoc.c.b A Datatyp(siz) R M Lvl/name                 OctLoc.c.b A Datatyp(siz) R M Lvl/name

PL6.E3A0      #008=FKA$XCON File=FKA$ALTKEY.:E05TSI                              TUE 07/29/97 15:33 Page:459
     0-0-0/w STRC(180)   r     1 B$ECCB                     0-0-0/w STRC(144)   r     1 B$TCB
     0-0-0/w STRC(2448)  r     1 B$XCON


   Procedure FKA$XCON requires 65 words for executable code.
   Procedure FKA$XCON requires 10 words of local(AUTO) storage.

    No errors detected in file FKA$ALTKEY.:E05TSI    .
PL6.E3A0      #008=FKA$XCON File=FKA$ALTKEY.:E05TSI                              TUE 07/29/97 15:33 Page:460
          *** CROSS REFERENCE LISTING ***
**     DENOTES     IDENTIFIER DEFINITION
<<                 IDENTIFIER'S VALUE SET
>>                 IDENTIFIER'S VALUE USED
<>                 IDENTIFIER SET AND/OR USED
--                 IDENTIFIER REFERENCED
PL6.E3A0      #008=FKA$XCON File=FKA$ALTKEY.:E05TSI                              TUE 07/29/97 15:33 Page:461
          MINI XREF LISTING

B$ALT.CODE
       770**DCL       770--REDEF     771--REDEF     771--REDEF
B$ALT.ERR.ERR#
       772**DCL       772--REDEF
B$ALT.EVID
       771**DCL       771--REDEF     771--REDEF
B$ECCB.XCONF.NOTCB
       789**DCL       809>>IF
B$ECCB$
       801**DCL       809>>IF
B$TCB.ALT$
       766**DCL       810>>ASSIGN
B$TCB.STK$
       766**DCL       812>>ASSIGN
B$TCB$
       802**DCL       810>>ASSIGN    812>>ASSIGN
B$XCON.ERR
       783**DCL       815>>ASSIGN
B$XCON.ERR.ERR#
       783**DCL       783--REDEF
B$XCON.LIMIT.MEM
       781**DCL       781--REDEF
B$XCON.RNST.OPERR
       779**DCL       814>>IF
CLOSERR
       795**DCL       819<>CALL
CLOSERR.DCB#
       798**DCL       823>>ASSIGN
CLOSERR.ERR
       796**DCL       822>>ASSIGN
DCB#
       806**DCL       817<<ASSIGN    823<<ASSIGN    830>>IF        832<>CALL
PL6.E3A0      #008=FKA$XCON File=FKA$ALTKEY.:E05TSI                              TUE 07/29/97 15:33 Page:462
ECCB$
       804**DCL       810<<ASSIGN    812<<ASSIGN    814>>IF        815>>ASSIGN
ERRCODE
       805**DCL       743--DCLINIT   815<<ASSIGN    816<<ASSIGN    820>>IF        822<<ASSIGN    827>>IF
       831<>CALL      832<>CALL
FKA$CLOSE
       749**DCL-ENT   819--CALL
FKA_MON
       647**DCL       829>>IF
FPT_XXX
       743**DCL       833<>CALL
FPT_XXX.V
       743**DCL       743--DCLINIT
FPT_XXX.V.STEPCC#
       744**DCL       744--REDEF
M$EXIT
        39**DCL-ENT   836--CALL
M$XCON
        82**DCL-ENT   808--CALL
M$XXX
        39**DCL-ENT   833--CALL
RESET_XCON
       762**DCL       808<>CALL
RESET_XCON.V
       763**DCL       762--DCLINIT
XUR$ERRMSG
       748**DCL-ENT   831--CALL      832--CALL
PL6.E3A0      #008=FKA$XCON File=FKA$ALTKEY.:E05TSI                              TUE 07/29/97 15:33 Page:463
              *** CROSS REFERENCE LISTING ***
    **     DENOTES     IDENTIFIER DEFINITION
    <<                 IDENTIFIER'S VALUE SET
    >>                 IDENTIFIER'S VALUE USED
    <>                 IDENTIFIER SET AND/OR USED
    --                 IDENTIFIER REFERENCED
PL6.E3A0      #008=FKA$XCON File=FKA$ALTKEY.:E05TSI                              TUE 07/29/97 15:33 Page:464
              MINI UREF LISTING

FKA$XCON      17**PROC
FKA_ALTKEYS$     647**DCL
FKA_BOUND     650**DCL
FKA_CLOSE_DONE     654**DCL
FKA_CMDVAR     653**DCL
FKA_CMDVAR_EXIST     653**DCL
FKA_CMDVAR_SET     653**DCL
FKA_CODE19$     649**DCL
FKA_CODE20$     649**DCL
FKA_DATA_BUF     652**DCL
FKA_DATA_BUF$     652**DCL
FKA_DATA_GRAN     650**DCL
FKA_DCB$     650**DCL
FKA_DUPS     651**DCL
FKA_FIELD_START_DATA     648**DCL
FKA_FILE_OPEN     653**DCL
FKA_INDEX_BUF     651**DCL
FKA_INDEX_BUF$     652**DCL
FKA_INDEX_GRAN     650**DCL
FKA_IRKEYS$     648**DCL
FKA_IRKEYS_DATA     648**DCL
FKA_KEYSIZE     651**DCL
FKA_KFIELD$     649**DCL
FKA_KFIELD_DATA     649**DCL
FKA_KTPTR$     650**DCL
FKA_M$CLOSE_ERR     654**DCL
FKA_NUMKEYS     651**DCL
FKA_RECFIELD$     647**DCL
FKA_RECSIZE     651**DCL
FKA_START$     647**DCL
FKA_UNIQUE     647**DCL
M$ACCT      44**DCL-ENT
PL6.E3A0      #008=FKA$XCON File=FKA$ALTKEY.:E05TSI                              TUE 07/29/97 15:33 Page:465
M$ACTIVATE      47**DCL-ENT
M$ALIB      40**DCL-ENT
M$ASUSER      42**DCL-ENT
M$ATTACH      49**DCL-ENT
M$BADPP      67**DCL-ENT
M$CGCTL      48**DCL-ENT
M$CGINFO      48**DCL-ENT
M$CHECK      29**DCL-ENT
M$CHGUNIT      87**DCL-ENT
M$CLOSE      27**DCL-ENT
M$CLRSTK      85**DCL-ENT
M$CMDVAR      96**DCL-ENT
M$CONFIG      57**DCL-ENT
M$CORRES      32**DCL-ENT
M$CPEXIT      41**DCL-ENT
M$CVM      65**DCL-ENT
M$CVOL      30**DCL-ENT
M$DCLFLD      57**DCL-ENT
M$DEACTIVATE      47**DCL-ENT
M$DELREC      29**DCL-ENT
M$DEQ      94**DCL-ENT
M$DETACH      49**DCL-ENT
M$DEVICE      31**DCL-ENT
M$DISPLAY      94**DCL-ENT
M$DISPRES      34**DCL-ENT
M$DLIB      40**DCL-ENT
M$DRIBBLE      57**DCL-ENT
M$DRTN      85**DCL-ENT
M$DSUSER      42**DCL-ENT
M$ENQ      93**DCL-ENT
M$EOM      52**DCL-ENT
M$ERASE      58**DCL-ENT
M$ERR      39**DCL-ENT
M$ERRMSG      90**DCL-ENT
M$EVENT      82**DCL-ENT
M$EXHUME      91**DCL-ENT
PL6.E3A0      #008=FKA$XCON File=FKA$ALTKEY.:E05TSI                              TUE 07/29/97 15:33 Page:466
M$EXTEND      31**DCL-ENT
M$FDP      63**DCL-ENT
M$FDS      62**DCL-ENT
M$FEBOOT      55**DCL-ENT
M$FECTL      56**DCL-ENT
M$FEDUMP      55**DCL-ENT
M$FID      90**DCL-ENT
M$FINDPROC      44**DCL-ENT
M$FSUSER      42**DCL-ENT
M$FVP      64**DCL-ENT
M$FWCG      48**DCL-ENT
M$GBPL      68**DCL-ENT
M$GDDL      64**DCL-ENT
M$GDP      63**DCL-ENT
M$GDS      62**DCL-ENT
M$GETDCB      33**DCL-ENT
M$GETMOUSE      73**DCL-ENT
M$GETPM      74**DCL-ENT
M$GJOB      92**DCL-ENT
M$GLINEATTR      52**DCL-ENT
M$GOODPP      67**DCL-ENT
M$GPLATEN      60**DCL-ENT
M$GPROMPT      59**DCL-ENT
M$GTRMATTR      53**DCL-ENT
M$GTRMCTL      51**DCL-ENT
M$GTRMTAB      54**DCL-ENT
M$GVP      63**DCL-ENT
M$HELP      90**DCL-ENT
M$INT      82**DCL-ENT
M$INTRTN      43**DCL-ENT
M$IOQ      78**DCL-ENT
M$JOBSTATS      92**DCL-ENT
M$KEYIN      32**DCL-ENT
M$LDEV      27**DCL-ENT
M$LDTRC      40**DCL-ENT
M$LIMIT      33**DCL-ENT
PL6.E3A0      #008=FKA$XCON File=FKA$ALTKEY.:E05TSI                              TUE 07/29/97 15:33 Page:467
M$LINES      32**DCL-ENT
M$LINK      39**DCL-ENT
M$MADMUCK      35**DCL-ENT
M$MAKUSER      66**DCL-ENT
M$MBS      34**DCL-ENT
M$MDFFLD      58**DCL-ENT
M$MERC      83**DCL-ENT
M$MERCS      84**DCL-ENT
M$MIRROR      78**DCL-ENT
M$MONINFO      95**DCL-ENT
M$MPL      68**DCL-ENT
M$NODEINFO      59**DCL-ENT
M$NXTUSR      93**DCL-ENT
M$OCMSG      91**DCL-ENT
M$OLAY      39**DCL-ENT
M$OPEN      27**DCL-ENT
M$PAS      68**DCL-ENT
M$PATHCON      91**DCL-ENT
M$PDS      62**DCL-ENT
M$PFIL      29**DCL-ENT
M$PLATEN      53**DCL-ENT
M$PRECORD      31**DCL-ENT
M$PROCNAME      44**DCL-ENT
M$PROFILE      55**DCL-ENT
M$PROMPT      51**DCL-ENT
M$RACST      35**DCL-ENT
M$RDSYSLOG      76**DCL-ENT
M$READ      28**DCL-ENT
M$RELDCB      33**DCL-ENT
M$RELRES      34**DCL-ENT
M$RELSTARF      36**DCL-ENT
M$REM      36**DCL-ENT
M$RENV      83**DCL-ENT
M$REQUIRE      35**DCL-ENT
M$RETRY      84**DCL-ENT
M$RETRYS      84**DCL-ENT
PL6.E3A0      #008=FKA$XCON File=FKA$ALTKEY.:E05TSI                              TUE 07/29/97 15:33 Page:468
M$REW      30**DCL-ENT
M$RLSFLD      58**DCL-ENT
M$RPRIV      86**DCL-ENT
M$RSPP      65**DCL-ENT
M$RSWITCH      87**DCL-ENT
M$RUE      93**DCL-ENT
M$SAD      66**DCL-ENT
M$SAVE      42**DCL-ENT
M$SCON      43**DCL-ENT
M$SCREECH      41**DCL-ENT
M$SENV      83**DCL-ENT
M$SETFMA      27**DCL-ENT
M$SETFP      56**DCL-ENT
M$SINPUT      54**DCL-ENT
M$SLCFLD      59**DCL-ENT
M$SMOUSE      73**DCL-ENT
M$SMPRT      65**DCL-ENT
M$SPRIV      86**DCL-ENT
M$SSC      66**DCL-ENT
M$SSWITCH      86**DCL-ENT
M$STATE      95**DCL-ENT
M$STD      67**DCL-ENT
M$STIMER      81**DCL-ENT
M$STLPP      64**DCL-ENT
M$STRAP      81**DCL-ENT
M$STRMATTR      53**DCL-ENT
M$STRMCTL      51**DCL-ENT
M$STRMTAB      54**DCL-ENT
M$SYMBIO      92**DCL-ENT
M$SYSCON      78**DCL-ENT
M$SYSID      96**DCL-ENT
M$TDCLOSE      77**DCL-ENT
M$TDIO      77**DCL-ENT
M$TDOPEN      76**DCL-ENT
M$TDREQCPU      77**DCL-ENT
M$TEMPWROC      71**DCL-ENT
PL6.E3A0      #008=FKA$XCON File=FKA$ALTKEY.:E05TSI                              TUE 07/29/97 15:33 Page:469
M$TIME      94**DCL-ENT
M$TRAP      81**DCL-ENT
M$TRMISC      56**DCL-ENT
M$TRMPRG      52**DCL-ENT
M$TRTN      85**DCL-ENT
M$TRUNC      28**DCL-ENT
M$TTIMER      81**DCL-ENT
M$UC      51**DCL
M$UMPL      68**DCL-ENT
M$UNFID      90**DCL-ENT
M$UNLATCH      47**DCL-ENT
M$UNSHARE      44**DCL-ENT
M$USRFIELD      87**DCL-ENT
M$VIRTUAL      62**DCL-ENT
M$WAIT      85**DCL-ENT
M$WEOF      30**DCL-ENT
M$WRITE      28**DCL-ENT
M$WRSYSLOG      76**DCL-ENT
M$XCONRTN      43**DCL-ENT
M$XEQTIME      95**DCL-ENT
M$XFLUSH      36**DCL-ENT
M$XMOUSE      73**DCL-ENT
M$YC      41**DCL-ENT
