PL6.E3A0      #005=FKA$COMP File=FKA$ALTKEY.:E05TSI                              TUE 07/29/97 15:32 Page:198
      873        1        /*T***********************************************************/
      874        2        /*T*                                                         */
      875        3        /*T* Copyright (c) Bull HN Information Systems Inc., 1997    */
      876        4        /*T*                                                         */
      877        5        /*T***********************************************************/
      878        6        /*F*     NAME:     FKA$COMP
      879        7                 ENTRY:    FKA$COMPKEY
      880        8                 PURPOSE:  To compare two IREL keys
      881        9        */
      882       10        /*D*     NAME:     FKA$COMP
      883       11                 CALL:     CALL FKA$COMP(FIRST_RECORD, SECOND_RECORD, RESULT)
      884       12                 INPUT:    FIRST_RECORD - Input record for comparison
      885       13                           SECOND_RECORD - Input record for comparison
      886       14                 OUTPUT:   RESULT - 0 - equal
      887       15                                    1 - first < second
      888       16                                    2 - first > second
      889       17                 DESCRIPTION:
      890       18
      891       19                      Assume records are equal until proven otherwise.
      892       20                 Compare the index portion of the key first.
      893       21
      894       22                      Next, compare the keys themselves.  Next, compare
      895       23                 the IDs.  The keys may be duplicates.  Finally, compare
      896       24                 the SEGCNTs.  This keeps segments within sets of duplicates
      897       25                 in their proper order.
      898       26        */
      899       27         %EJECT;
PL6.E3A0      #005=FKA$COMP File=FKA$ALTKEY.:E05TSI                              TUE 07/29/97 15:32 Page:199
      900       28        FKA$COMP: PROC(FIRST_RECORD, SECOND_RECORD, RESULT);
      901       29        /* */
      902       30         %INCLUDE CP_6;
      903      111         %INCLUDE FM_FIELD_C;
      904      152         %INCLUDE FKA_DATA_R;
      905      168         %INCLUDE B$OBJECT_C;
      906     3598        /* */
      907     3599    1     DCL FIRST_RECORD CHAR(FKA_RECSIZE);
      908     3600    1     DCL SECOND_RECORD CHAR(FKA_RECSIZE);
      909     3601    1     DCL RESULT SBIN;
      910     3602        /* */
      911     3603         %VREBL_DATATYPES;
      912     3678         %VLP_RECFIELD(FPTN=RECFIELD, STCLASS="BASED(FKA_RECFIELD$)");
      913     3722         %FMG$IRKEYS(FPTN=IRKEYS, STCLASS="BASED(FKA_IRKEYS$)");
      914     3729         %FMG$KFIELD(FPTN=KFIELD, STCLASS="BASED(FKA_KFIELD$)");
      915     3732        /* */
      916     3733    1     DCL FIRST$ PTR;
      917     3734    1     DCL SECOND$ PTR;
      918     3735    1     DCL INDEX# UBIN;
      919     3736    1     DCL KEY1$ PTR;
      920     3737    1     DCL KEY2$ PTR;
      921     3738    1     DCL KEYTYPE UBIN;
      922     3739    1     DCL FN UBIN;
      923     3740    1     DCL LEN UBIN;
      924     3741    1     DCL I UBIN;
      925     3742    1     DCL SIZE UBIN;
      926     3743    1     DCL TEMP1 CHAR(8) DALIGNED;
      927     3744    1     DCL TEMP2 CHAR(8) DALIGNED;
      928     3745    1     DCL POS SBIN;
      929     3746    1     DCL KEY1_TEMP CHAR(64);
      930     3747    1     DCL KEY2_TEMP CHAR(64);
      931     3748    1     DCL CHAR1 CHAR(1);
      932     3749    1     DCL SIGN CHAR(1);
      933     3750    1     DCL DIGIT CHAR(1);
      934     3751        /* */
      935     3752    1     DCL KEY1 CHAR(1) BASED(KEY1$) CALIGNED;
      936     3753    1     DCL KEY2 CHAR(1) BASED(KEY2$) CALIGNED;
PL6.E3A0      #005=FKA$COMP File=FKA$ALTKEY.:E05TSI                              TUE 07/29/97 15:32 Page:200
      937     3754    1     DCL INDX CHAR(1) BASED CALIGNED;
      938     3755    1     DCL ID CHAR(4) BASED CALIGNED;
      939     3756    1     DCL SEGCNT CHAR(2) BASED CALIGNED;
      940     3757    1     DCL CHR CHAR(LEN) BASED CALIGNED;
      941     3758    1     DCL CHAR4 CHAR(4) BASED CALIGNED;
      942     3759    1     DCL CHAR8 CHAR(8) BASED CALIGNED;
      943     3760        /* */
      944     3761         %EQU EQUAL=0;
      945     3762         %EQU LESS=1;
      946     3763         %EQU GREATER=2;
      947     3764         %EQU LEADING=0;
      948     3765         %EQU TRAILING=1;
      949     3766        /* */
      950     3767    1     DCL FMG$COMPUDTS ENTRY(4);
      951     3768    1     DCL FMG$COMPUDLS ENTRY(4);
      952     3769    1     DCL FMG$COMPPDLS ENTRY(4);
      953     3770    1     DCL FMG$COMPPDNS ENTRY(4);
      954     3771    1     DCL FMG$COMPPDTS ENTRY(4);
      955     3772    1     DCL FMG$COMPSFLT ENTRY(3);
      956     3773    1     DCL FMG$COMPDFLT ENTRY(3);
      957     3774    1     DCL FMG$COMPPDFLT ENTRY(4);
      958     3775    1     DCL FMG$COMPUDFLT ENTRY(4);
      959     3776        /* */
      960     3777    1           RESULT=%EQUAL;
      961     3778    1           INDEX# = ASCBIN(SUBSTR(FIRST_RECORD,0,1));
      962     3779    1           I = ASCBIN(SUBSTR(SECOND_RECORD,0,1));
      963     3780
      964     3781    2           IF INDEX# ~= I THEN DO;
      965     3782    2              IF INDEX# < I THEN
      966     3783    2                 RESULT=%LESS;
      967     3784    2              ELSE
      968     3785    2                 RESULT=%GREATER;
      969     3786    2              RETURN;
      970     3787    2              END;
      971     3788
      972     3789    1           FIRST$ = PINCRC(ADDR(FIRST_RECORD),1);
      973     3790    1           SECOND$ = PINCRC(ADDR(SECOND_RECORD),1);
PL6.E3A0      #005=FKA$COMP File=FKA$ALTKEY.:E05TSI                              TUE 07/29/97 15:32 Page:201
      974     3791
      975     3792    2           IF IRKEYS.K.DEGENERATE(INDEX#) THEN DO; /* Degenerate case.           */
      976     3793    2              LEN = IRKEYS.K.KEYL(INDEX#);
      977     3794    3              IF FIRST$->CHR ~= SECOND$->CHR THEN DO;
      978     3795    3                 IF FIRST$->CHR < SECOND$->CHR THEN
      979     3796    3                    RESULT = %LESS;
      980     3797    3                 ELSE
      981     3798    3                    RESULT = %GREATER;
      982     3799    3                 RETURN;
      983     3800    3                 END;
      984     3801    2              END;
      985     3802    2           ELSE DO;
      986     3803    3              IF IRKEYS.K.NFIELDS(INDEX#) = 1 THEN DO; /* Just one segment.      */
      987     3804    3                 FN = KFIELD.FIELD(IRKEYS.K.FIRSTFIELD(INDEX#));
      988     3805    3                 KEYTYPE = RECFIELD.FIELD.TYPE#(FN);
      989     3806    3                 KEY1$ = FIRST$;
      990     3807    3                 KEY2$ = SECOND$;
      991     3808    3                 CALL COMPFIELD;
      992     3809    3                 IF RESULT ~= %EQUAL THEN
      993     3810    3                    RETURN;
      994     3811    3                 END;
      995     3812    2              ELSE
      996     3813    2                 CALL COMPKEY;             /* Compare complex keys               */
      997     3814    2              END;
      998     3815
      999     3816    2           IF RESULT = %EQUAL THEN DO;     /* Compare remaining fields           */
     1000     3817    2              FIRST$=PINCRC(FIRST$, FKA_KEYSIZE);
     1001     3818    2              SECOND$=PINCRC(SECOND$, FKA_KEYSIZE);
     1002     3819
     1003     3820    3              IF FIRST$->ID ~= SECOND$->ID THEN DO; /* IDs not equal             */
     1004     3821    3                 IF FIRST$->ID < SECOND$->ID THEN
     1005     3822    3                    RESULT=%LESS;
     1006     3823    3                 ELSE
     1007     3824    3                    RESULT=%GREATER;
     1008     3825    3                 END;
     1009     3826    2              END;
     1010     3827
PL6.E3A0      #005=FKA$COMP File=FKA$ALTKEY.:E05TSI                              TUE 07/29/97 15:32 Page:202
     1011     3828    2           IF RESULT = %EQUAL THEN DO;     /* Compare segcnt                     */
     1012     3829    2              FIRST$=PINCRC(FIRST$, 4);
     1013     3830    2              SECOND$=PINCRC(SECOND$, 4);
     1014     3831
     1015     3832    3              IF FIRST$->SEGCNT ~= SECOND$->SEGCNT THEN DO; /* Segcnts not equal */
     1016     3833    3                 IF FIRST$->SEGCNT < SECOND$->SEGCNT THEN
     1017     3834    3                    RESULT=%LESS;
     1018     3835    3                 ELSE
     1019     3836    3                    RESULT=%GREATER;
     1020     3837    3                 END;
     1021     3838    2              END;
     1022     3839
     1023     3840    1           RETURN;
     1024     3841         %EJECT;
PL6.E3A0      #005=FKA$COMP File=FKA$ALTKEY.:E05TSI                              TUE 07/29/97 15:32 Page:203
     1025     3842        /*F*     NAME:     FKA$COMPKEY
     1026     3843                 PURPOSE:  To determine if two keys are equal
     1027     3844                 DESCRIPTION:
     1028     3845
     1029     3846                      This just compares two IREL keys for FKA$OUTPUT.
     1030     3847                 This will tell FKA$OUTPUT if it needs a new key, or
     1031     3848                 just an entry for a duplicate key.
     1032     3849        */
     1033     3850    1   FKA$COMPKEY: ENTRY(FIRST_RECORD, SECOND_RECORD, RESULT);
     1034     3851        /* */
     1035     3852    1           FIRST$=ADDR(FIRST_RECORD);
     1036     3853    1           SECOND$=ADDR(SECOND_RECORD);
     1037     3854    1           INDEX#=RESULT;
     1038     3855    1           RESULT=%EQUAL;
     1039     3856
     1040     3857    2           IF IRKEYS.K.NFIELDS(INDEX#) = 1 THEN DO; /* Just one segment.         */
     1041     3858    2              FN = KFIELD.FIELD(IRKEYS.K.FIRSTFIELD(INDEX#));
     1042     3859    2              KEYTYPE = RECFIELD.FIELD.TYPE#(FN);
     1043     3860    2              KEY1$ = FIRST$;
     1044     3861    2              KEY2$ = SECOND$;
     1045     3862    2              CALL COMPFIELD;
     1046     3863    2              END;
     1047     3864    1           ELSE
     1048     3865    1              CALL COMPKEY;                /* Compare complex keys               */
     1049     3866
     1050     3867    1           RETURN;
     1051     3868         %EJECT;
PL6.E3A0      #005=FKA$COMP File=FKA$ALTKEY.:E05TSI                              TUE 07/29/97 15:32 Page:204
     1052     3869        /*I*     NAME:     COMPFIELD
     1053     3870                 PURPOSE:  To compare two fields
     1054     3871                 DESCRIPTION:
     1055     3872
     1056     3873                      The kind of comparison we do depends on the data
     1057     3874                 type of the field.
     1058     3875        */
     1059     3876         %EJECT;
PL6.E3A0      #005=FKA$COMP File=FKA$ALTKEY.:E05TSI                              TUE 07/29/97 15:32 Page:205
     1060     3877    1   COMPFIELD: PROC;
     1061     3878        /* */
     1062     3879    2              LEN = RECFIELD.DECFIELD.LEN#(FN);
     1063     3880    3              DO CASE(KEYTYPE);
     1064     3881    3                 CASE(%UDTS_DATATYPE);
     1065     3882    3                    CALL FMG$COMPUDTS(KEY1, KEY2, LEN, RESULT);
     1066     3883
     1067     3884    3                 CASE(%UDLS_DATATYPE);
     1068     3885    3                    CALL FMG$COMPUDLS(KEY1, KEY2, LEN, RESULT);
     1069     3886
     1070     3887    3                 CASE(%UDLO_DATATYPE);
     1071     3888    3                    CALL COMPUDLO(KEY1, KEY2, LEN, RESULT);
     1072     3889
     1073     3890    3                 CASE(%UDTO_DATATYPE);
     1074     3891    3                    CALL COMPUDTO(KEY1, KEY2, LEN, RESULT);
     1075     3892
     1076     3893    3                 CASE(%PDLA_DATATYPE, %PDLE_DATATYPE, %DATE_DATATYPE,
     1077     3894    3                        %TIME_DATATYPE);
     1078     3895    3                    CALL FMG$COMPPDLS(KEY1, KEY2, LEN, RESULT);
     1079     3896
     1080     3897    3                 CASE(%PDNS_DATATYPE);
     1081     3898    3                    CALL FMG$COMPPDNS(KEY1, KEY2, LEN, RESULT);
     1082     3899
     1083     3900    3                 CASE(%PDTA_DATATYPE, %PDTE_DATATYPE);
     1084     3901    3                    CALL FMG$COMPPDTS(KEY1, KEY2, LEN, RESULT);
     1085     3902
     1086     3903    3                 CASE(%CHAR_DATATYPE, %UBIN_DATATYPE, %UTS_DATATYPE);
     1087     3904    3                    LEN = RECFIELD.FIELD.LEN#(FN);
     1088     3905    3                    IF KEYTYPE ~= %CHAR_DATATYPE THEN
     1089     3906    3                       LEN = LEN / 9;
     1090     3907    4                    IF KEY1$->CHR ~= KEY2$->CHR THEN DO; /* Not equal            */
     1091     3908    4                       IF KEY1$->CHR < KEY2$->CHR THEN
     1092     3909    4                          RESULT=%LESS;
     1093     3910    4                       ELSE
     1094     3911    4                          RESULT=%GREATER;
     1095     3912    4                       END;
     1096     3913
PL6.E3A0      #005=FKA$COMP File=FKA$ALTKEY.:E05TSI                              TUE 07/29/97 15:32 Page:206
     1097     3914    3                 CASE(%SFLT_DATATYPE);
     1098     3915    3                    LEN = RECFIELD.FIELD.LEN#(FN);
     1099     3916    3                    TEMP1=KEY1$->CHAR4;
     1100     3917    3                    TEMP2=KEY2$->CHAR4;
     1101     3918    3                    CALL FMG$COMPSFLT(TEMP1, TEMP2, RESULT);
     1102     3919
     1103     3920    3                 CASE(%DFLT_DATATYPE);
     1104     3921    3                    LEN = RECFIELD.FIELD.LEN#(FN);
     1105     3922    3                    TEMP1=KEY1$->CHAR8;
     1106     3923    3                    TEMP2=KEY2$->CHAR8;
     1107     3924    3                    CALL FMG$COMPDFLT(TEMP1, TEMP2, RESULT);
     1108     3925
     1109     3926    3                 CASE(%SBIN_DATATYPE);
     1110     3927    3                    LEN = RECFIELD.FIELD.LEN#(FN) / 9;
     1111     3928    3                    CALL COMPSBIN;
     1112     3929
     1113     3930    3                 CASE(%PDFLT_DATATYPE);
     1114     3931    3                    CALL FMG$COMPPDFLT(KEY1, KEY2, LEN, RESULT);
     1115     3932
     1116     3933    3                 CASE(%UDFLT_DATATYPE);
     1117     3934    3                    CALL FMG$COMPUDFLT(KEY1, KEY2, LEN, RESULT);
     1118     3935
     1119     3936    3                 END;                      /* CASE                               */
     1120     3937
     1121     3938    2              RETURN;
     1122     3939    2      END COMPFIELD;
     1123     3940         %EJECT;
PL6.E3A0      #005=FKA$COMP File=FKA$ALTKEY.:E05TSI                              TUE 07/29/97 15:32 Page:207
     1124     3941        /*I*     NAME:     COMPKEY
     1125     3942                 PURPOSE:  To compare two IREL keys
     1126     3943                 DESCRIPTION:
     1127     3944
     1128     3945                      Loop through the key definition until we hit the
     1129     3946                 end, or we reach a point where the keys are not equal.
     1130     3947
     1131     3948                      Compare the actual fields.
     1132     3949        */
     1133     3950         %EJECT;
PL6.E3A0      #005=FKA$COMP File=FKA$ALTKEY.:E05TSI                              TUE 07/29/97 15:32 Page:208
     1134     3951    1   COMPKEY:   PROC;
     1135     3952        /* */
     1136     3953    2              KEY1$ = FIRST$;
     1137     3954    2              KEY2$ = SECOND$;
     1138     3955
     1139     3956    3   LOOP:      DO I = IRKEYS.K.FIRSTFIELD(INDEX#) TO IRKEYS.K.FIRSTFIELD(INDEX#)+
     1140     3957    3                  IRKEYS.K.NFIELDS(INDEX#)-1;
     1141     3958    3                 FN = KFIELD.FIELD(I);
     1142     3959    3                 KEYTYPE = RECFIELD.FIELD.TYPE#(FN);
     1143     3960    3                 CALL COMPFIELD;
     1144     3961    3                 IF RESULT ~= %EQUAL THEN
     1145     3962    3                    RETURN;
     1146     3963    3                 CALL SET_SIZE;
     1147     3964    3                 KEY1$ = PINCRC(KEY1$, SIZE);
     1148     3965    3                 KEY2$ = PINCRC(KEY2$, SIZE);
     1149     3966    3                 END;
     1150     3967
     1151     3968    2              RETURN;
     1152     3969    2      END COMPKEY;
     1153     3970         %EJECT;
PL6.E3A0      #005=FKA$COMP File=FKA$ALTKEY.:E05TSI                              TUE 07/29/97 15:32 Page:209
     1154     3971        /*I*     NAME:     COMPSBIN
     1155     3972                 PURPOSE:  To compare two SBIN fields
     1156     3973                 DESCRIPTION:
     1157     3974
     1158     3975                      Move the SBIN fields into a full word with the
     1159     3976                 significant bytes in the high order portion of the
     1160     3977                 word.  Then, do the comparison.
     1161     3978        */
     1162     3979    1   COMPSBIN:  PROC;
     1163     3980    2     DCL CTEMP CHAR(LEN) BASED;
     1164     3981    2     DCL STEMP_KEY1 SBIN;
     1165     3982    2     DCL CTEMP_KEY1 REDEF STEMP_KEY1 CHAR(4);
     1166     3983    2     DCL STEMP_KEY2 SBIN;
     1167     3984    2     DCL CTEMP_KEY2 REDEF STEMP_KEY2 CHAR(4);
     1168     3985        /* */
     1169     3986    2              CTEMP_KEY1=KEY1$->CTEMP;
     1170     3987    2              CTEMP_KEY2=KEY2$->CTEMP;
     1171     3988
     1172     3989    2              IF STEMP_KEY1 ~= STEMP_KEY2 THEN
     1173     3990    3              DO;                          /* NOT EQUAL                          */
     1174     3991    3                 IF STEMP_KEY1 < STEMP_KEY2 THEN
     1175     3992    3                    RESULT=%LESS;
     1176     3993    3                 ELSE
     1177     3994    3                    RESULT=%GREATER;
     1178     3995    3                 END;                      /* NOT EQUAL                          */
     1179     3996
     1180     3997    2              RETURN;
     1181     3998    2      END COMPSBIN;
     1182     3999         %EJECT;
PL6.E3A0      #005=FKA$COMP File=FKA$ALTKEY.:E05TSI                              TUE 07/29/97 15:32 Page:210
     1183     4000        /*I*     NAME:     COMPUDLO
     1184     4001                 PURPOSE:  To compare leading overpunch fields
     1185     4002                 DESCRIPTION:
     1186     4003
     1187     4004                      Split out the sign from the digit, then compare
     1188     4005                 as unpacked decimal with a leading sign.
     1189     4006        */
     1190     4007    1   COMPUDLO:  PROC(KEY1, KEY2, LEN, RESULT);
     1191     4008    2     DCL KEY1 CHAR(64);
     1192     4009    2     DCL KEY2 CHAR(64);
     1193     4010    2     DCL LEN SBIN;
     1194     4011    2     DCL RESULT SBIN;
     1195     4012        /* */
     1196     4013    2              POS=%LEADING;
     1197     4014    2              CALL SPLIT(KEY1_TEMP, KEY1);
     1198     4015
     1199     4016    2              CALL SPLIT(KEY2_TEMP, KEY2);
     1200     4017
     1201     4018    2              CALL FMG$COMPUDLS(KEY1_TEMP, KEY2_TEMP, LEN+1, RESULT);
     1202     4019    2              RETURN;
     1203     4020    2      END COMPUDLO;
     1204     4021         %EJECT;
PL6.E3A0      #005=FKA$COMP File=FKA$ALTKEY.:E05TSI                              TUE 07/29/97 15:32 Page:211
     1205     4022        /*I*     NAME:     COMPUDTO
     1206     4023                 PURPOSE:  To compare trailing overpunch fields
     1207     4024                 DESCRIPTION:
     1208     4025
     1209     4026                      Split out the sign from the field, then compare
     1210     4027                 as unpacked decimal with a trailing sign.
     1211     4028        */
     1212     4029    1   COMPUDTO:  PROC(KEY1, KEY2, LEN, RESULT);
     1213     4030    2     DCL KEY1 CHAR(64);
     1214     4031    2     DCL KEY2 CHAR(64);
     1215     4032    2     DCL LEN SBIN;
     1216     4033    2     DCL RESULT SBIN;
     1217     4034        /* */
     1218     4035    2              POS=%TRAILING;
     1219     4036    2              CALL SPLIT(KEY1_TEMP, KEY1);
     1220     4037
     1221     4038    2              CALL SPLIT(KEY2_TEMP, KEY2);
     1222     4039
     1223     4040    2              CALL FMG$COMPUDLS(KEY1_TEMP, KEY2_TEMP, LEN+1, RESULT);
     1224     4041    2              RETURN;
     1225     4042    2      END COMPUDTO;
     1226     4043         %EJECT;
PL6.E3A0      #005=FKA$COMP File=FKA$ALTKEY.:E05TSI                              TUE 07/29/97 15:32 Page:212
     1227     4044        /*I*     NAME:     SET_SIZE
     1228     4045                 PURPOSE:  To set the size of a key field in bytes.
     1229     4046                 DESCRIPTION:
     1230     4047                      Use the LEN we already know to figure the size in bytes.
     1231     4048        */
     1232     4049    1   SET_SIZE:  PROC;
     1233     4050        /* */
     1234     4051    3              DO CASE(KEYTYPE);
     1235     4052    3                 CASE(%PDLE_DATATYPE, %PDTE_DATATYPE, %PDLA_DATATYPE,
     1236     4053    3                  %PDTA_DATATYPE, %PDNS_DATATYPE, %PDFLT_DATATYPE,
     1237     4054    3                  %DATE_DATATYPE, %TIME_DATATYPE);
     1238     4055    3                    SIZE=(LEN+1)/2;
     1239     4056
     1240     4057    3                 CASE(ELSE);
     1241     4058    3                    SIZE=LEN;
     1242     4059
     1243     4060    3                 END;                      /* Do Case                            */
     1244     4061
     1245     4062    2              RETURN;
     1246     4063    2      END SET_SIZE;
     1247     4064         %EJECT;
PL6.E3A0      #005=FKA$COMP File=FKA$ALTKEY.:E05TSI                              TUE 07/29/97 15:32 Page:213
     1248     4065        /*I*     NAME:     SPLIT
     1249     4066                 PURPOSE:  To split an overpunched sign
     1250     4067                 DESCRIPTION:
     1251     4068
     1252     4069                      Pick up the character to split.  Then set a
     1253     4070                 separate sign and digit.  Insert the split number
     1254     4071                 into TEMP.
     1255     4072        */
     1256     4073         %EJECT;
PL6.E3A0      #005=FKA$COMP File=FKA$ALTKEY.:E05TSI                              TUE 07/29/97 15:32 Page:214
     1257     4074    1   SPLIT:     PROC(TEMP, ORIG);
     1258     4075    2     DCL TEMP CHAR(64);
     1259     4076    2     DCL ORIG CHAR(64);
     1260     4077        /* */
     1261     4078    2              IF POS = %LEADING THEN
     1262     4079    2                 CALL INSERT(CHAR1, 0, 1, SUBSTR(ORIG, 0, 1));
     1263     4080    2              ELSE
     1264     4081    2                 CALL INSERT(CHAR1, 0, 1, SUBSTR(ORIG, LEN-1, 1));
     1265     4082
     1266     4083    2              IF CHAR1 = '{' THEN
     1267     4084    3              DO;                          /* +0                                 */
     1268     4085    3                 SIGN='+';
     1269     4086    3                 DIGIT='0';
     1270     4087    3                 END;                      /* +0                                 */
     1271     4088    2              ELSE
     1272     4089    2                 IF CHAR1 = '}' THEN
     1273     4090    3                 DO;                       /* -0                                 */
     1274     4091    3                    SIGN='-';
     1275     4092    3                    DIGIT='0';
     1276     4093    3                    END;                   /* -0                                 */
     1277     4094    2                 ELSE
     1278     4095    2                    IF CHAR1 < 'J' THEN
     1279     4096    3                    DO;                    /* +1 TO +9                           */
     1280     4097    3                       SIGN='+';
     1281     4098    3                       DIGIT=BINASC(ASCBIN(CHAR1)-16);
     1282     4099    3                       END;                /* +1 TO +9                           */
     1283     4100    2                    ELSE
     1284     4101    3                    DO;                    /* -1 TO -9                           */
     1285     4102    3                       SIGN='-';
     1286     4103    3                       DIGIT=BINASC(ASCBIN(CHAR1)-25);
     1287     4104    3                       END;                /* -1 TO -9                           */
     1288     4105
     1289     4106    2              CALL INSERT(TEMP, 0, 1, SIGN);
     1290     4107    2              IF POS = %LEADING THEN
     1291     4108    3              DO;                          /* LEADING SIGN                       */
     1292     4109    3                 CALL INSERT(TEMP, 1, 1, DIGIT);
     1293     4110    3                 CALL INSERT(TEMP, 2, LEN-1, SUBSTR(ORIG, 1, LEN-1));
PL6.E3A0      #005=FKA$COMP File=FKA$ALTKEY.:E05TSI                              TUE 07/29/97 15:32 Page:215
     1294     4111    3                 END;                      /* LEADING SIGN                       */
     1295     4112    2              ELSE
     1296     4113    3              DO;                          /* TRAILING SIGN                      */
     1297     4114    3                 CALL INSERT(TEMP, LEN-1, 1, DIGIT);
     1298     4115    3                 CALL INSERT(TEMP, 1, LEN-1, SUBSTR(ORIG, 0, LEN-1));
     1299     4116    3                 END;                      /* TRAILING SIGN                      */
     1300     4117
     1301     4118    2              RETURN;
     1302     4119    2      END SPLIT;
     1303     4120    1   END FKA$COMP;
     1304     4121         %EOD;

PL6.E3A0      #005=FKA$COMP File=FKA$ALTKEY.:E05TSI                              TUE 07/29/97 15:32 Page:216
--  Include file information  --

   B$OBJECT_C.:E05TOU  is referenced.
   FKA_DATA_R.:E05TOU  cannot be made into a system file and is referenced.
   FM_FIELD_C.:E05TOU  is referenced.
   CP_6.:E05TOU  cannot be made into a system file and is referenced.
   B$JIT_C.:E05TOU  was found in the system file and is never referenced.
   CP_6_C.:E05TOU  was found in the system file and is referenced.
      No diagnostics issued in procedure FKA$COMP.

   Procedure FKA$COMP requires 714 words for executable code.
   Procedure FKA$COMP requires 76 words of local(AUTO) storage.

PL6.E3A0      #005=FKA$COMP File=FKA$ALTKEY.:E05TSI                              TUE 07/29/97 15:32 Page:217

 Object Unit name= FKA$COMP                                   File name= FKA$ALTKEY.:E05TOU
 UTS= JUL 29 '97 15:32:32.00 TUE                              Compiler= PL-6/E31         Sev=      00
 SharedLib= :SHARED_SYSTEM                                    Alt SharedLib=


    ****  Control sections  ****

 Sect   Type Bound  Init  Size OctSiz  Section name(segment info)
    0   DCB   even  none     0      0  M$UC
    1   Proc  even  none   714   1312  FKA$COMP
    2  RoData even  none     1      1  FKA$COMP

    ****  Entry defs  ****

                              Check   Calling
                             calling  sequence
  Sect OctLoc Primary Altret sequence   type   Parms  Name
     1      0   yes            yes      Std        3  FKA$COMP
     1    206                  yes      Std        3  FKA$COMPKEY

  ****  Entry refs  ****

         Check        Calling
        calling       sequence
Altret sequence SRef   type   Args  Name
         yes           Std       4 FMG$COMPUDTS
         yes           Std       4 FMG$COMPUDFLT
         yes           Std       4 FMG$COMPPDLS
         yes           Std       3 FMG$COMPSFLT
         yes           Std       3 FMG$COMPDFLT
         yes           Std       4 FMG$COMPPDTS
         yes           Std       4 FMG$COMPPDFLT
         yes           Std       4 FMG$COMPPDNS
         yes           Std       4 FMG$COMPUDLS
                       nStd      0 X66_AUTO_3
                       nStd      0 X66_ARET
                       Std       0 B_CONSPOOL_D
PL6.E3A0      #005=FKA$COMP File=FKA$ALTKEY.:E05TSI                              TUE 07/29/97 15:32 Page:218

  ****  Data refs  ****

  Flags:  r = read only, s = secondary
Flgs Name                             Flgs Name                             Flgs Name
     M$UC                                  FKA_RECFIELD$                    r    FKA_IRKEYS$
r    FKA_KFIELD$                           FKA_RECSIZE                           FKA_KEYSIZE
     B_VECTNIL
PL6.E3A0      #005=FKA$COMP File=FKA$ALTKEY.:E05TSI                              TUE 07/29/97 15:32 Page:219


      873        1        /*T***********************************************************/
      874        2        /*T*                                                         */
      875        3        /*T* Copyright (c) Bull HN Information Systems Inc., 1997    */
      876        4        /*T*                                                         */
      877        5        /*T***********************************************************/
      878        6        /*F*     NAME:     FKA$COMP
      879        7                 ENTRY:    FKA$COMPKEY
      880        8                 PURPOSE:  To compare two IREL keys
      881        9        */
      882       10        /*D*     NAME:     FKA$COMP
      883       11                 CALL:     CALL FKA$COMP(FIRST_RECORD, SECOND_RECORD, RESULT)
      884       12                 INPUT:    FIRST_RECORD - Input record for comparison
      885       13                           SECOND_RECORD - Input record for comparison
      886       14                 OUTPUT:   RESULT - 0 - equal
      887       15                                    1 - first < second
      888       16                                    2 - first > second
      889       17                 DESCRIPTION:
      890       18
      891       19                      Assume records are equal until proven otherwise.
      892       20                 Compare the index portion of the key first.
      893       21
      894       22                      Next, compare the keys themselves.  Next, compare
      895       23                 the IDs.  The keys may be duplicates.  Finally, compare
      896       24                 the SEGCNTs.  This keeps segments within sets of duplicates
      897       25                 in their proper order.
      898       26        */
      899       27         %EJECT;
PL6.E3A0      #005=FKA$COMP File=FKA$ALTKEY.:E05TSI                              TUE 07/29/97 15:32 Page:220
      900       28        FKA$COMP: PROC(FIRST_RECORD, SECOND_RECORD, RESULT);

     28  1 000000   000000 700200 xent  FKA$COMP     TSX0  ! X66_AUTO_3
         1 000001   000114 000003                    ZERO    76,3

      901       29        /* */
      902       30         %INCLUDE CP_6;
      903      111         %INCLUDE FM_FIELD_C;
      904      152         %INCLUDE FKA_DATA_R;
      905      168         %INCLUDE B$OBJECT_C;
      906     3598        /* */
      907     3599    1     DCL FIRST_RECORD CHAR(FKA_RECSIZE);
      908     3600    1     DCL SECOND_RECORD CHAR(FKA_RECSIZE);
      909     3601    1     DCL RESULT SBIN;
      910     3602        /* */
      911     3603         %VREBL_DATATYPES;
      912     3678         %VLP_RECFIELD(FPTN=RECFIELD, STCLASS="BASED(FKA_RECFIELD$)");
      913     3722         %FMG$IRKEYS(FPTN=IRKEYS, STCLASS="BASED(FKA_IRKEYS$)");
      914     3729         %FMG$KFIELD(FPTN=KFIELD, STCLASS="BASED(FKA_KFIELD$)");
      915     3732        /* */
      916     3733    1     DCL FIRST$ PTR;
      917     3734    1     DCL SECOND$ PTR;
      918     3735    1     DCL INDEX# UBIN;
      919     3736    1     DCL KEY1$ PTR;
      920     3737    1     DCL KEY2$ PTR;
      921     3738    1     DCL KEYTYPE UBIN;
      922     3739    1     DCL FN UBIN;
      923     3740    1     DCL LEN UBIN;
      924     3741    1     DCL I UBIN;
      925     3742    1     DCL SIZE UBIN;
      926     3743    1     DCL TEMP1 CHAR(8) DALIGNED;
      927     3744    1     DCL TEMP2 CHAR(8) DALIGNED;
      928     3745    1     DCL POS SBIN;
      929     3746    1     DCL KEY1_TEMP CHAR(64);
      930     3747    1     DCL KEY2_TEMP CHAR(64);
      931     3748    1     DCL CHAR1 CHAR(1);
      932     3749    1     DCL SIGN CHAR(1);
PL6.E3A0      #005=FKA$COMP File=FKA$ALTKEY.:E05TSI                              TUE 07/29/97 15:32 Page:221
      933     3750    1     DCL DIGIT CHAR(1);
      934     3751        /* */
      935     3752    1     DCL KEY1 CHAR(1) BASED(KEY1$) CALIGNED;
      936     3753    1     DCL KEY2 CHAR(1) BASED(KEY2$) CALIGNED;
      937     3754    1     DCL INDX CHAR(1) BASED CALIGNED;
      938     3755    1     DCL ID CHAR(4) BASED CALIGNED;
      939     3756    1     DCL SEGCNT CHAR(2) BASED CALIGNED;
      940     3757    1     DCL CHR CHAR(LEN) BASED CALIGNED;
      941     3758    1     DCL CHAR4 CHAR(4) BASED CALIGNED;
      942     3759    1     DCL CHAR8 CHAR(8) BASED CALIGNED;
      943     3760        /* */
      944     3761         %EQU EQUAL=0;
      945     3762         %EQU LESS=1;
      946     3763         %EQU GREATER=2;
      947     3764         %EQU LEADING=0;
      948     3765         %EQU TRAILING=1;
      949     3766        /* */
      950     3767    1     DCL FMG$COMPUDTS ENTRY(4);
      951     3768    1     DCL FMG$COMPUDLS ENTRY(4);
      952     3769    1     DCL FMG$COMPPDLS ENTRY(4);
      953     3770    1     DCL FMG$COMPPDNS ENTRY(4);
      954     3771    1     DCL FMG$COMPPDTS ENTRY(4);
      955     3772    1     DCL FMG$COMPSFLT ENTRY(3);
      956     3773    1     DCL FMG$COMPDFLT ENTRY(3);
      957     3774    1     DCL FMG$COMPPDFLT ENTRY(4);
      958     3775    1     DCL FMG$COMPUDFLT ENTRY(4);
      959     3776        /* */
      960     3777    1           RESULT=%EQUAL;

   3777  1 000002   200005 470500                    LDP0    @RESULT,,AUTO
         1 000003   000000 450100                    STZ     0,,PR0

      961     3778    1           INDEX# = ASCBIN(SUBSTR(FIRST_RECORD,0,1));

   3778  1 000004   200003 471500                    LDP1    @FIRST_RECORD,,AUTO
         1 000005   000100 101500                    MRL     fill='000'O
         1 000006   100000 000001                    ADSC9   0,,PR1                   cn=0,n=1
PL6.E3A0      #005=FKA$COMP File=FKA$ALTKEY.:E05TSI                              TUE 07/29/97 15:32 Page:222
         1 000007   200106 000004                    ADSC9   @ORIG+2,,AUTO            cn=0,n=4
         1 000010   200106 236100                    LDQ     @ORIG+2,,AUTO
         1 000011   200010 756100                    STQ     INDEX#,,AUTO

      962     3779    1           I = ASCBIN(SUBSTR(SECOND_RECORD,0,1));

   3779  1 000012   200004 473500                    LDP3    @SECOND_RECORD,,AUTO
         1 000013   000100 101500                    MRL     fill='000'O
         1 000014   300000 000001                    ADSC9   0,,PR3                   cn=0,n=1
         1 000015   200106 000004                    ADSC9   @ORIG+2,,AUTO            cn=0,n=4
         1 000016   200106 236100                    LDQ     @ORIG+2,,AUTO
         1 000017   200016 756100                    STQ     I,,AUTO

      963     3780
      964     3781    2           IF INDEX# ~= I THEN DO;

   3781  1 000020   200010 116100                    CMPQ    INDEX#,,AUTO
         1 000021   000032 600000 1                  TZE     s:3789

      965     3782    2              IF INDEX# < I THEN

   3782  1 000022   000027 602000 1                  TNC     s:3785
         1 000023   000027 600000 1                  TZE     s:3785

      966     3783    2                 RESULT=%LESS;

   3783  1 000024   000001 235007                    LDA     1,DL
         1 000025   000000 755100                    STA     0,,PR0
         1 000026   000031 710000 1                  TRA     s:3786

      967     3784    2              ELSE
      968     3785    2                 RESULT=%GREATER;

   3785  1 000027   000002 235007                    LDA     2,DL
         1 000030   000000 755100                    STA     0,,PR0

      969     3786    2              RETURN;
PL6.E3A0      #005=FKA$COMP File=FKA$ALTKEY.:E05TSI                              TUE 07/29/97 15:32 Page:223

   3786  1 000031   000000 702200 xent               TSX2  ! X66_ARET

      970     3787    2              END;
      971     3788
      972     3789    1           FIRST$ = PINCRC(ADDR(FIRST_RECORD),1);

   3789  1 000032   200003 236100                    LDQ     @FIRST_RECORD,,AUTO
         1 000033   200000 036007                    ADLQ    65536,DL
         1 000034   200006 756100                    STQ     FIRST$,,AUTO

      973     3790    1           SECOND$ = PINCRC(ADDR(SECOND_RECORD),1);

   3790  1 000035   200004 236100                    LDQ     @SECOND_RECORD,,AUTO
         1 000036   200000 036007                    ADLQ    65536,DL
         1 000037   200007 756100                    STQ     SECOND$,,AUTO

      974     3791
      975     3792    2           IF IRKEYS.K.DEGENERATE(INDEX#) THEN DO; /* Degenerate case.           */

   3792  1 000040   200010 236100                    LDQ     INDEX#,,AUTO
         1 000041   000007 402007                    MPY     7,DL
         1 000042   000000 474400 xsym               LDP4    FKA_IRKEYS$
         1 000043   400006 236106                    LDQ     6,QL,PR4
         1 000044   040000 316007                    CANQ    16384,DL
         1 000045   000075 600000 1                  TZE     s:3803

      976     3793    2              LEN = IRKEYS.K.KEYL(INDEX#);

   3793  1 000046   200010 236100                    LDQ     INDEX#,,AUTO
         1 000047   000007 402007                    MPY     7,DL
         1 000050   400005 236106                    LDQ     5,QL,PR4
         1 000051   000022 772000                    QRL     18
         1 000052   200015 756100                    STQ     LEN,,AUTO

      977     3794    3              IF FIRST$->CHR ~= SECOND$->CHR THEN DO;

PL6.E3A0      #005=FKA$COMP File=FKA$ALTKEY.:E05TSI                              TUE 07/29/97 15:32 Page:224
   3794  1 000053   200006 475500                    LDP5    FIRST$,,AUTO
         1 000054   000000 620006                    EAX0    0,QL
         1 000055   200007 476500                    LDP6    SECOND$,,AUTO
         1 000056   200015 721100                    LXL1    LEN,,AUTO
         1 000057   040140 106540                    CMPC    fill='040'O
         1 000060   500000 000010                    ADSC9   0,,PR5                   cn=0,n=*X0
         1 000061   600000 000011                    ADSC9   0,,PR6                   cn=0,n=*X1
         1 000062   000132 600000 1                  TZE     s:3816

      978     3795    3                 IF FIRST$->CHR < SECOND$->CHR THEN

   3795  1 000063   040140 106540                    CMPC    fill='040'O
         1 000064   500000 000011                    ADSC9   0,,PR5                   cn=0,n=*X1
         1 000065   600000 000011                    ADSC9   0,,PR6                   cn=0,n=*X1
         1 000066   000072 603000 1                  TRC     s:3798

      979     3796    3                    RESULT = %LESS;

   3796  1 000067   000001 235007                    LDA     1,DL
         1 000070   000000 755100                    STA     0,,PR0
         1 000071   000074 710000 1                  TRA     s:3799

      980     3797    3                 ELSE
      981     3798    3                    RESULT = %GREATER;

   3798  1 000072   000002 235007                    LDA     2,DL
         1 000073   000000 755100                    STA     0,,PR0

      982     3799    3                 RETURN;

   3799  1 000074   000000 702200 xent               TSX2  ! X66_ARET

      983     3800    3                 END;
      984     3801    2              END;
      985     3802    2           ELSE DO;

      986     3803    3              IF IRKEYS.K.NFIELDS(INDEX#) = 1 THEN DO; /* Just one segment.      */
PL6.E3A0      #005=FKA$COMP File=FKA$ALTKEY.:E05TSI                              TUE 07/29/97 15:32 Page:225

   3803  1 000075   200010 236100                    LDQ     INDEX#,,AUTO
         1 000076   000007 402007                    MPY     7,DL
         1 000077   400004 720106                    LXL0    4,QL,PR4
         1 000100   000001 100003                    CMPX0   1,DU
         1 000101   000130 601000 1                  TNZ     s:3813

      987     3804    3                 FN = KFIELD.FIELD(IRKEYS.K.FIRSTFIELD(INDEX#));

   3804  1 000102   400004 236106                    LDQ     4,QL,PR4
         1 000103   000022 772000                    QRL     18
         1 000104   000000 475400 xsym               LDP5    FKA_KFIELD$
         1 000105   000100 101506                    MRL     fill='000'O
         1 000106   500002 000001                    ADSC9   2,Q,PR5                  cn=0,n=1
         1 000107   200014 000004                    ADSC9   FN,,AUTO                 cn=0,n=4

      988     3805    3                 KEYTYPE = RECFIELD.FIELD.TYPE#(FN);

   3805  1 000110   200014 236100                    LDQ     FN,,AUTO
         1 000111   000003 402007                    MPY     3,DL
         1 000112   000000 476400 xsym               LDP6    FKA_RECFIELD$
         1 000113   000100 101506                    MRL     fill='000'O
         1 000114   600001 020001                    ADSC6   1,Q,PR6                  cn=0,n=1
         1 000115   200013 020006                    ADSC6   KEYTYPE,,AUTO            cn=0,n=6

      989     3806    3                 KEY1$ = FIRST$;

   3806  1 000116   200006 236100                    LDQ     FIRST$,,AUTO
         1 000117   200011 756100                    STQ     KEY1$,,AUTO

      990     3807    3                 KEY2$ = SECOND$;

   3807  1 000120   200007 236100                    LDQ     SECOND$,,AUTO
         1 000121   200012 756100                    STQ     KEY2$,,AUTO

      991     3808    3                 CALL COMPFIELD;

PL6.E3A0      #005=FKA$COMP File=FKA$ALTKEY.:E05TSI                              TUE 07/29/97 15:32 Page:226
   3808  1 000122   000254 701000 1                  TSX1    COMPFIELD
         1 000123   000000 011000                    NOP     0

      992     3809    3                 IF RESULT ~= %EQUAL THEN

   3809  1 000124   200005 470500                    LDP0    @RESULT,,AUTO
         1 000125   000000 235100                    LDA     0,,PR0
         1 000126   000132 600000 1                  TZE     s:3816

      993     3810    3                    RETURN;

   3810  1 000127   000000 702200 xent               TSX2  ! X66_ARET

      994     3811    3                 END;
      995     3812    2              ELSE
      996     3813    2                 CALL COMPKEY;             /* Compare complex keys               */

   3813  1 000130   000652 701000 1                  TSX1    COMPKEY
         1 000131   000000 011000                    NOP     0

      997     3814    2              END;

      998     3815
      999     3816    2           IF RESULT = %EQUAL THEN DO;     /* Compare remaining fields           */

   3816  1 000132   200005 470500                    LDP0    @RESULT,,AUTO
         1 000133   000000 235100                    LDA     0,,PR0
         1 000134   000161 601000 1                  TNZ     s:3828

     1000     3817    2              FIRST$=PINCRC(FIRST$, FKA_KEYSIZE);

   3817  1 000135   000000 236000 xsym               LDQ     FKA_KEYSIZE
         1 000136   000020 736000                    QLS     16
         1 000137   200006 036100                    ADLQ    FIRST$,,AUTO
         1 000140   200006 756100                    STQ     FIRST$,,AUTO

     1001     3818    2              SECOND$=PINCRC(SECOND$, FKA_KEYSIZE);
PL6.E3A0      #005=FKA$COMP File=FKA$ALTKEY.:E05TSI                              TUE 07/29/97 15:32 Page:227

   3818  1 000141   000000 236000 xsym               LDQ     FKA_KEYSIZE
         1 000142   000020 736000                    QLS     16
         1 000143   200007 036100                    ADLQ    SECOND$,,AUTO
         1 000144   200007 756100                    STQ     SECOND$,,AUTO

     1002     3819
     1003     3820    3              IF FIRST$->ID ~= SECOND$->ID THEN DO; /* IDs not equal             */

   3820  1 000145   200006 471500                    LDP1    FIRST$,,AUTO
         1 000146   200007 473500                    LDP3    SECOND$,,AUTO
         1 000147   040100 106500                    CMPC    fill='040'O
         1 000150   100000 000004                    ADSC9   0,,PR1                   cn=0,n=4
         1 000151   300000 000004                    ADSC9   0,,PR3                   cn=0,n=4
         1 000152   000161 600000 1                  TZE     s:3828

     1004     3821    3                 IF FIRST$->ID < SECOND$->ID THEN

   3821  1 000153   000157 603000 1                  TRC     s:3824

     1005     3822    3                    RESULT=%LESS;

   3822  1 000154   000001 235007                    LDA     1,DL
         1 000155   000000 755100                    STA     0,,PR0
         1 000156   000161 710000 1                  TRA     s:3828

     1006     3823    3                 ELSE
     1007     3824    3                    RESULT=%GREATER;

   3824  1 000157   000002 235007                    LDA     2,DL
         1 000160   000000 755100                    STA     0,,PR0

     1008     3825    3                 END;

     1009     3826    2              END;

     1010     3827
PL6.E3A0      #005=FKA$COMP File=FKA$ALTKEY.:E05TSI                              TUE 07/29/97 15:32 Page:228
     1011     3828    2           IF RESULT = %EQUAL THEN DO;     /* Compare segcnt                     */

   3828  1 000161   000000 115003                    CMPA    0,DU
         1 000162   000205 601000 1                  TNZ     s:3840

     1012     3829    2              FIRST$=PINCRC(FIRST$, 4);

   3829  1 000163   200006 236100                    LDQ     FIRST$,,AUTO
         1 000164   000001 036003                    ADLQ    1,DU
         1 000165   200006 756100                    STQ     FIRST$,,AUTO

     1013     3830    2              SECOND$=PINCRC(SECOND$, 4);

   3830  1 000166   200007 236100                    LDQ     SECOND$,,AUTO
         1 000167   000001 036003                    ADLQ    1,DU
         1 000170   200007 756100                    STQ     SECOND$,,AUTO

     1014     3831
     1015     3832    3              IF FIRST$->SEGCNT ~= SECOND$->SEGCNT THEN DO; /* Segcnts not equal */

   3832  1 000171   200006 471500                    LDP1    FIRST$,,AUTO
         1 000172   200007 473500                    LDP3    SECOND$,,AUTO
         1 000173   040100 106500                    CMPC    fill='040'O
         1 000174   100000 000002                    ADSC9   0,,PR1                   cn=0,n=2
         1 000175   300000 000002                    ADSC9   0,,PR3                   cn=0,n=2
         1 000176   000205 600000 1                  TZE     s:3840

     1016     3833    3                 IF FIRST$->SEGCNT < SECOND$->SEGCNT THEN

   3833  1 000177   000203 603000 1                  TRC     s:3836

     1017     3834    3                    RESULT=%LESS;

   3834  1 000200   000001 235007                    LDA     1,DL
         1 000201   000000 755100                    STA     0,,PR0
         1 000202   000205 710000 1                  TRA     s:3840

PL6.E3A0      #005=FKA$COMP File=FKA$ALTKEY.:E05TSI                              TUE 07/29/97 15:32 Page:229
     1018     3835    3                 ELSE
     1019     3836    3                    RESULT=%GREATER;

   3836  1 000203   000002 235007                    LDA     2,DL
         1 000204   000000 755100                    STA     0,,PR0

     1020     3837    3                 END;

     1021     3838    2              END;

     1022     3839
     1023     3840    1           RETURN;

   3840  1 000205   000000 702200 xent               TSX2  ! X66_ARET

     1024     3841         %EJECT;
PL6.E3A0      #005=FKA$COMP File=FKA$ALTKEY.:E05TSI                              TUE 07/29/97 15:32 Page:230
     1025     3842        /*F*     NAME:     FKA$COMPKEY
     1026     3843                 PURPOSE:  To determine if two keys are equal
     1027     3844                 DESCRIPTION:
     1028     3845
     1029     3846                      This just compares two IREL keys for FKA$OUTPUT.
     1030     3847                 This will tell FKA$OUTPUT if it needs a new key, or
     1031     3848                 just an entry for a duplicate key.
     1032     3849        */
     1033     3850    1   FKA$COMPKEY: ENTRY(FIRST_RECORD, SECOND_RECORD, RESULT);

   3850  1 000206   000000 700200 xent  FKA$COMPKEY  TSX0  ! X66_AUTO_3
         1 000207   000114 000003                    ZERO    76,3

     1034     3851        /* */
     1035     3852    1           FIRST$=ADDR(FIRST_RECORD);

   3852  1 000210   200003 236100                    LDQ     @FIRST_RECORD,,AUTO
         1 000211   200006 756100                    STQ     FIRST$,,AUTO

     1036     3853    1           SECOND$=ADDR(SECOND_RECORD);

   3853  1 000212   200004 236100                    LDQ     @SECOND_RECORD,,AUTO
         1 000213   200007 756100                    STQ     SECOND$,,AUTO

     1037     3854    1           INDEX#=RESULT;

   3854  1 000214   200005 470500                    LDP0    @RESULT,,AUTO
         1 000215   000000 235100                    LDA     0,,PR0
         1 000216   200010 755100                    STA     INDEX#,,AUTO

     1038     3855    1           RESULT=%EQUAL;

   3855  1 000217   000000 450100                    STZ     0,,PR0

     1039     3856
     1040     3857    2           IF IRKEYS.K.NFIELDS(INDEX#) = 1 THEN DO; /* Just one segment.         */

PL6.E3A0      #005=FKA$COMP File=FKA$ALTKEY.:E05TSI                              TUE 07/29/97 15:32 Page:231
   3857  1 000220   200010 236100                    LDQ     INDEX#,,AUTO
         1 000221   000007 402007                    MPY     7,DL
         1 000222   000000 471400 xsym               LDP1    FKA_IRKEYS$
         1 000223   100004 720106                    LXL0    4,QL,PR1
         1 000224   000001 100003                    CMPX0   1,DU
         1 000225   000251 601000 1                  TNZ     s:3865

     1041     3858    2              FN = KFIELD.FIELD(IRKEYS.K.FIRSTFIELD(INDEX#));

   3858  1 000226   100004 236106                    LDQ     4,QL,PR1
         1 000227   000022 772000                    QRL     18
         1 000230   000000 473400 xsym               LDP3    FKA_KFIELD$
         1 000231   000100 101506                    MRL     fill='000'O
         1 000232   300002 000001                    ADSC9   2,Q,PR3                  cn=0,n=1
         1 000233   200014 000004                    ADSC9   FN,,AUTO                 cn=0,n=4

     1042     3859    2              KEYTYPE = RECFIELD.FIELD.TYPE#(FN);

   3859  1 000234   200014 236100                    LDQ     FN,,AUTO
         1 000235   000003 402007                    MPY     3,DL
         1 000236   000000 474400 xsym               LDP4    FKA_RECFIELD$
         1 000237   000100 101506                    MRL     fill='000'O
         1 000240   400001 020001                    ADSC6   1,Q,PR4                  cn=0,n=1
         1 000241   200013 020006                    ADSC6   KEYTYPE,,AUTO            cn=0,n=6

     1043     3860    2              KEY1$ = FIRST$;

   3860  1 000242   200006 236100                    LDQ     FIRST$,,AUTO
         1 000243   200011 756100                    STQ     KEY1$,,AUTO

     1044     3861    2              KEY2$ = SECOND$;

   3861  1 000244   200007 236100                    LDQ     SECOND$,,AUTO
         1 000245   200012 756100                    STQ     KEY2$,,AUTO

     1045     3862    2              CALL COMPFIELD;

PL6.E3A0      #005=FKA$COMP File=FKA$ALTKEY.:E05TSI                              TUE 07/29/97 15:32 Page:232
   3862  1 000246   000254 701000 1                  TSX1    COMPFIELD
         1 000247   000000 011000                    NOP     0

     1046     3863    2              END;

   3863  1 000250   000253 710000 1                  TRA     s:3867

     1047     3864    1           ELSE
     1048     3865    1              CALL COMPKEY;                /* Compare complex keys               */

   3865  1 000251   000652 701000 1                  TSX1    COMPKEY
         1 000252   000000 011000                    NOP     0

     1049     3866
     1050     3867    1           RETURN;

   3867  1 000253   000000 702200 xent               TSX2  ! X66_ARET

     1051     3868         %EJECT;
PL6.E3A0      #005=FKA$COMP File=FKA$ALTKEY.:E05TSI                              TUE 07/29/97 15:32 Page:233
     1052     3869        /*I*     NAME:     COMPFIELD
     1053     3870                 PURPOSE:  To compare two fields
     1054     3871                 DESCRIPTION:
     1055     3872
     1056     3873                      The kind of comparison we do depends on the data
     1057     3874                 type of the field.
     1058     3875        */
     1059     3876         %EJECT;
PL6.E3A0      #005=FKA$COMP File=FKA$ALTKEY.:E05TSI                              TUE 07/29/97 15:32 Page:234
     1060     3877    1   COMPFIELD: PROC;

   3877  1 000254   200072 741300       COMPFIELD    STX1  ! DIGIT+3,,AUTO

     1061     3878        /* */
     1062     3879    2              LEN = RECFIELD.DECFIELD.LEN#(FN);

   3879  1 000255   200014 236100                    LDQ     FN,,AUTO
         1 000256   000003 402007                    MPY     3,DL
         1 000257   000000 470400 xsym               LDP0    FKA_RECFIELD$
         1 000260   000100 101506                    MRL     fill='000'O
         1 000261   000001 120001                    ADSC6   1,Q,PR0                  cn=1,n=1
         1 000262   200015 020006                    ADSC6   LEN,,AUTO                cn=0,n=6

     1063     3880    3              DO CASE(KEYTYPE);

   3880  1 000263   200013 235100                    LDA     KEYTYPE,,AUTO
         1 000264   000072 115007                    CMPA    58,DL
         1 000265   000267 602005 1                  TNC     s:3880+4,AL
         1 000266   000650 710000 1                  TRA     s:3938
         1 000267   000650 710000 1                  TRA     s:3938
         1 000270   000610 710000 1                  TRA     s:3927
         1 000271   000650 710000 1                  TRA     s:3938
         1 000272   000534 710000 1                  TRA     s:3915
         1 000273   000562 710000 1                  TRA     s:3921
         1 000274   000650 710000 1                  TRA     s:3938
         1 000275   000650 710000 1                  TRA     s:3938
         1 000276   000650 710000 1                  TRA     s:3938
         1 000277   000650 710000 1                  TRA     s:3938
         1 000300   000437 710000 1                  TRA     s:3895
         1 000301   000621 710000 1                  TRA     s:3931
         1 000302   000650 710000 1                  TRA     s:3938
         1 000303   000650 710000 1                  TRA     s:3938
         1 000304   000650 710000 1                  TRA     s:3938
         1 000305   000650 710000 1                  TRA     s:3938
         1 000306   000650 710000 1                  TRA     s:3938
         1 000307   000650 710000 1                  TRA     s:3938
PL6.E3A0      #005=FKA$COMP File=FKA$ALTKEY.:E05TSI                              TUE 07/29/97 15:32 Page:235
         1 000310   000650 710000 1                  TRA     s:3938
         1 000311   000650 710000 1                  TRA     s:3938
         1 000312   000650 710000 1                  TRA     s:3938
         1 000313   000650 710000 1                  TRA     s:3938
         1 000314   000503 710000 1                  TRA     s:3904
         1 000315   000650 710000 1                  TRA     s:3938
         1 000316   000650 710000 1                  TRA     s:3938
         1 000317   000503 710000 1                  TRA     s:3904
         1 000320   000467 710000 1                  TRA     s:3901
         1 000321   000650 710000 1                  TRA     s:3938
         1 000322   000650 710000 1                  TRA     s:3938
         1 000323   000650 710000 1                  TRA     s:3938
         1 000324   000650 710000 1                  TRA     s:3938
         1 000325   000650 710000 1                  TRA     s:3938
         1 000326   000467 710000 1                  TRA     s:3901
         1 000327   000650 710000 1                  TRA     s:3938
         1 000330   000650 710000 1                  TRA     s:3938
         1 000331   000650 710000 1                  TRA     s:3938
         1 000332   000650 710000 1                  TRA     s:3938
         1 000333   000650 710000 1                  TRA     s:3938
         1 000334   000650 710000 1                  TRA     s:3938
         1 000335   000650 710000 1                  TRA     s:3938
         1 000336   000650 710000 1                  TRA     s:3938
         1 000337   000453 710000 1                  TRA     s:3898
         1 000340   000650 710000 1                  TRA     s:3938
         1 000341   000375 710000 1                  TRA     s:3885
         1 000342   000361 710000 1                  TRA     s:3882
         1 000343   000411 710000 1                  TRA     s:3888
         1 000344   000424 710000 1                  TRA     s:3891
         1 000345   000650 710000 1                  TRA     s:3938
         1 000346   000650 710000 1                  TRA     s:3938
         1 000347   000650 710000 1                  TRA     s:3938
         1 000350   000650 710000 1                  TRA     s:3938
         1 000351   000635 710000 1                  TRA     s:3934
         1 000352   000437 710000 1                  TRA     s:3895
         1 000353   000650 710000 1                  TRA     s:3938
         1 000354   000650 710000 1                  TRA     s:3938
PL6.E3A0      #005=FKA$COMP File=FKA$ALTKEY.:E05TSI                              TUE 07/29/97 15:32 Page:236
         1 000355   000437 710000 1                  TRA     s:3895
         1 000356   000503 710000 1                  TRA     s:3904
         1 000357   000650 710000 1                  TRA     s:3938
         1 000360   000437 710000 1                  TRA     s:3895

     1064     3881    3                 CASE(%UDTS_DATATYPE);

     1065     3882    3                    CALL FMG$COMPUDTS(KEY1, KEY2, LEN, RESULT);

   3882  1 000361   200005 236100                    LDQ     @RESULT,,AUTO
         1 000362   200111 756100                    STQ     @ORIG+5,,AUTO
         1 000363   200015 631500                    EPPR1   LEN,,AUTO
         1 000364   200110 451500                    STP1    @ORIG+4,,AUTO
         1 000365   200012 236100                    LDQ     KEY2$,,AUTO
         1 000366   200011 235100                    LDA     KEY1$,,AUTO
         1 000367   200106 757100                    STAQ    @ORIG+2,,AUTO
         1 000370   200106 630500                    EPPR0   @ORIG+2,,AUTO
         1 000371   000022 631400 xsym               EPPR1   B_VECTNIL+18
         1 000372   000000 701000 xent               TSX1    FMG$COMPUDTS
         1 000373   000000 011000                    NOP     0
         1 000374   000650 710000 1                  TRA     s:3938

     1066     3883
     1067     3884    3                 CASE(%UDLS_DATATYPE);

     1068     3885    3                    CALL FMG$COMPUDLS(KEY1, KEY2, LEN, RESULT);

   3885  1 000375   200005 236100                    LDQ     @RESULT,,AUTO
         1 000376   200111 756100                    STQ     @ORIG+5,,AUTO
         1 000377   200015 631500                    EPPR1   LEN,,AUTO
         1 000400   200110 451500                    STP1    @ORIG+4,,AUTO
         1 000401   200012 236100                    LDQ     KEY2$,,AUTO
         1 000402   200011 235100                    LDA     KEY1$,,AUTO
         1 000403   200106 757100                    STAQ    @ORIG+2,,AUTO
         1 000404   200106 630500                    EPPR0   @ORIG+2,,AUTO
         1 000405   000022 631400 xsym               EPPR1   B_VECTNIL+18
         1 000406   000000 701000 xent               TSX1    FMG$COMPUDLS
PL6.E3A0      #005=FKA$COMP File=FKA$ALTKEY.:E05TSI                              TUE 07/29/97 15:32 Page:237
         1 000407   000000 011000                    NOP     0
         1 000410   000650 710000 1                  TRA     s:3938

     1069     3886
     1070     3887    3                 CASE(%UDLO_DATATYPE);

     1071     3888    3                    CALL COMPUDLO(KEY1, KEY2, LEN, RESULT);

   3888  1 000411   200005 236100                    LDQ     @RESULT,,AUTO
         1 000412   200100 756100                    STQ     @LEN+1,,AUTO
         1 000413   200015 631500                    EPPR1   LEN,,AUTO
         1 000414   200077 451500                    STP1    @KEY2+1,,AUTO
         1 000415   200012 236100                    LDQ     KEY2$,,AUTO
         1 000416   200076 756100                    STQ     @KEY1+1,,AUTO
         1 000417   200011 236100                    LDQ     KEY1$,,AUTO
         1 000420   200075 756100                    STQ     DIGIT+6,,AUTO
         1 000421   000774 701000 1                  TSX1    COMPUDLO
         1 000422   000000 011000                    NOP     0
         1 000423   000650 710000 1                  TRA     s:3938

     1072     3889
     1073     3890    3                 CASE(%UDTO_DATATYPE);

     1074     3891    3                    CALL COMPUDTO(KEY1, KEY2, LEN, RESULT);

   3891  1 000424   200005 236100                    LDQ     @RESULT,,AUTO
         1 000425   200100 756100                    STQ     @LEN+1,,AUTO
         1 000426   200015 631500                    EPPR1   LEN,,AUTO
         1 000427   200077 451500                    STP1    @KEY2+1,,AUTO
         1 000430   200012 236100                    LDQ     KEY2$,,AUTO
         1 000431   200076 756100                    STQ     @KEY1+1,,AUTO
         1 000432   200011 236100                    LDQ     KEY1$,,AUTO
         1 000433   200075 756100                    STQ     DIGIT+6,,AUTO
         1 000434   001034 701000 1                  TSX1    COMPUDTO
         1 000435   000000 011000                    NOP     0
         1 000436   000650 710000 1                  TRA     s:3938

PL6.E3A0      #005=FKA$COMP File=FKA$ALTKEY.:E05TSI                              TUE 07/29/97 15:32 Page:238
     1075     3892
     1076     3893    3                 CASE(%PDLA_DATATYPE, %PDLE_DATATYPE, %DATE_DATATYPE,

     1077     3894    3                        %TIME_DATATYPE);
     1078     3895    3                    CALL FMG$COMPPDLS(KEY1, KEY2, LEN, RESULT);

   3895  1 000437   200005 236100                    LDQ     @RESULT,,AUTO
         1 000440   200111 756100                    STQ     @ORIG+5,,AUTO
         1 000441   200015 631500                    EPPR1   LEN,,AUTO
         1 000442   200110 451500                    STP1    @ORIG+4,,AUTO
         1 000443   200012 236100                    LDQ     KEY2$,,AUTO
         1 000444   200011 235100                    LDA     KEY1$,,AUTO
         1 000445   200106 757100                    STAQ    @ORIG+2,,AUTO
         1 000446   200106 630500                    EPPR0   @ORIG+2,,AUTO
         1 000447   000022 631400 xsym               EPPR1   B_VECTNIL+18
         1 000450   000000 701000 xent               TSX1    FMG$COMPPDLS
         1 000451   000000 011000                    NOP     0
         1 000452   000650 710000 1                  TRA     s:3938

     1079     3896
     1080     3897    3                 CASE(%PDNS_DATATYPE);

     1081     3898    3                    CALL FMG$COMPPDNS(KEY1, KEY2, LEN, RESULT);

   3898  1 000453   200005 236100                    LDQ     @RESULT,,AUTO
         1 000454   200111 756100                    STQ     @ORIG+5,,AUTO
         1 000455   200015 631500                    EPPR1   LEN,,AUTO
         1 000456   200110 451500                    STP1    @ORIG+4,,AUTO
         1 000457   200012 236100                    LDQ     KEY2$,,AUTO
         1 000460   200011 235100                    LDA     KEY1$,,AUTO
         1 000461   200106 757100                    STAQ    @ORIG+2,,AUTO
         1 000462   200106 630500                    EPPR0   @ORIG+2,,AUTO
         1 000463   000022 631400 xsym               EPPR1   B_VECTNIL+18
         1 000464   000000 701000 xent               TSX1    FMG$COMPPDNS
         1 000465   000000 011000                    NOP     0
         1 000466   000650 710000 1                  TRA     s:3938

PL6.E3A0      #005=FKA$COMP File=FKA$ALTKEY.:E05TSI                              TUE 07/29/97 15:32 Page:239
     1082     3899
     1083     3900    3                 CASE(%PDTA_DATATYPE, %PDTE_DATATYPE);

     1084     3901    3                    CALL FMG$COMPPDTS(KEY1, KEY2, LEN, RESULT);

   3901  1 000467   200005 236100                    LDQ     @RESULT,,AUTO
         1 000470   200111 756100                    STQ     @ORIG+5,,AUTO
         1 000471   200015 631500                    EPPR1   LEN,,AUTO
         1 000472   200110 451500                    STP1    @ORIG+4,,AUTO
         1 000473   200012 236100                    LDQ     KEY2$,,AUTO
         1 000474   200011 235100                    LDA     KEY1$,,AUTO
         1 000475   200106 757100                    STAQ    @ORIG+2,,AUTO
         1 000476   200106 630500                    EPPR0   @ORIG+2,,AUTO
         1 000477   000022 631400 xsym               EPPR1   B_VECTNIL+18
         1 000500   000000 701000 xent               TSX1    FMG$COMPPDTS
         1 000501   000000 011000                    NOP     0
         1 000502   000650 710000 1                  TRA     s:3938

     1085     3902
     1086     3903    3                 CASE(%CHAR_DATATYPE, %UBIN_DATATYPE, %UTS_DATATYPE);

     1087     3904    3                    LEN = RECFIELD.FIELD.LEN#(FN);

   3904  1 000503   000100 101506                    MRL     fill='000'O
         1 000504   000001 120002                    ADSC6   1,Q,PR0                  cn=1,n=2
         1 000505   200015 020006                    ADSC6   LEN,,AUTO                cn=0,n=6

     1088     3905    3                    IF KEYTYPE ~= %CHAR_DATATYPE THEN

   3905  1 000506   000025 115007                    CMPA    21,DL
         1 000507   000514 600000 1                  TZE     s:3907

     1089     3906    3                       LEN = LEN / 9;

   3906  1 000510   200015 235100                    LDA     LEN,,AUTO
         1 000511   000043 773000                    LRL     35
         1 000512   000011 507007                    DVF     9,DL
PL6.E3A0      #005=FKA$COMP File=FKA$ALTKEY.:E05TSI                              TUE 07/29/97 15:32 Page:240
         1 000513   200015 755100                    STA     LEN,,AUTO

     1090     3907    4                    IF KEY1$->CHR ~= KEY2$->CHR THEN DO; /* Not equal            */

   3907  1 000514   200011 471500                    LDP1    KEY1$,,AUTO
         1 000515   200015 720100                    LXL0    LEN,,AUTO
         1 000516   200012 473500                    LDP3    KEY2$,,AUTO
         1 000517   040140 106540                    CMPC    fill='040'O
         1 000520   100000 000010                    ADSC9   0,,PR1                   cn=0,n=*X0
         1 000521   300000 000010                    ADSC9   0,,PR3                   cn=0,n=*X0
         1 000522   000650 600000 1                  TZE     s:3938

     1091     3908    4                       IF KEY1$->CHR < KEY2$->CHR THEN

   3908  1 000523   000530 603000 1                  TRC     s:3911

     1092     3909    4                          RESULT=%LESS;

   3909  1 000524   000001 235007                    LDA     1,DL
         1 000525   200005 474500                    LDP4    @RESULT,,AUTO
         1 000526   400000 755100                    STA     0,,PR4
         1 000527   000650 710000 1                  TRA     s:3938

     1093     3910    4                       ELSE
     1094     3911    4                          RESULT=%GREATER;

   3911  1 000530   000002 235007                    LDA     2,DL
         1 000531   200005 474500                    LDP4    @RESULT,,AUTO
         1 000532   400000 755100                    STA     0,,PR4

     1095     3912    4                       END;

   3912  1 000533   000650 710000 1                  TRA     s:3938

     1096     3913
     1097     3914    3                 CASE(%SFLT_DATATYPE);

PL6.E3A0      #005=FKA$COMP File=FKA$ALTKEY.:E05TSI                              TUE 07/29/97 15:32 Page:241
     1098     3915    3                    LEN = RECFIELD.FIELD.LEN#(FN);

   3915  1 000534   000100 101506                    MRL     fill='000'O
         1 000535   000001 120002                    ADSC6   1,Q,PR0                  cn=1,n=2
         1 000536   200015 020006                    ADSC6   LEN,,AUTO                cn=0,n=6

     1099     3916    3                    TEMP1=KEY1$->CHAR4;

   3916  1 000537   200011 471500                    LDP1    KEY1$,,AUTO
         1 000540   040100 100500                    MLR     fill='040'O
         1 000541   100000 000004                    ADSC9   0,,PR1                   cn=0,n=4
         1 000542   200020 000010                    ADSC9   TEMP1,,AUTO              cn=0,n=8

     1100     3917    3                    TEMP2=KEY2$->CHAR4;

   3917  1 000543   200012 473500                    LDP3    KEY2$,,AUTO
         1 000544   040100 100500                    MLR     fill='040'O
         1 000545   300000 000004                    ADSC9   0,,PR3                   cn=0,n=4
         1 000546   200022 000010                    ADSC9   TEMP2,,AUTO              cn=0,n=8

     1101     3918    3                    CALL FMG$COMPSFLT(TEMP1, TEMP2, RESULT);

   3918  1 000547   200005 236100                    LDQ     @RESULT,,AUTO
         1 000550   200110 756100                    STQ     @ORIG+4,,AUTO
         1 000551   200022 634500                    EPPR4   TEMP2,,AUTO
         1 000552   200107 454500                    STP4    @ORIG+3,,AUTO
         1 000553   200020 635500                    EPPR5   TEMP1,,AUTO
         1 000554   200106 455500                    STP5    @ORIG+2,,AUTO
         1 000555   200106 630500                    EPPR0   @ORIG+2,,AUTO
         1 000556   000021 631400 xsym               EPPR1   B_VECTNIL+17
         1 000557   000000 701000 xent               TSX1    FMG$COMPSFLT
         1 000560   000000 011000                    NOP     0
         1 000561   000650 710000 1                  TRA     s:3938

     1102     3919
     1103     3920    3                 CASE(%DFLT_DATATYPE);

PL6.E3A0      #005=FKA$COMP File=FKA$ALTKEY.:E05TSI                              TUE 07/29/97 15:32 Page:242
     1104     3921    3                    LEN = RECFIELD.FIELD.LEN#(FN);

   3921  1 000562   000100 101506                    MRL     fill='000'O
         1 000563   000001 120002                    ADSC6   1,Q,PR0                  cn=1,n=2
         1 000564   200015 020006                    ADSC6   LEN,,AUTO                cn=0,n=6

     1105     3922    3                    TEMP1=KEY1$->CHAR8;

   3922  1 000565   200011 471500                    LDP1    KEY1$,,AUTO
         1 000566   040100 100500                    MLR     fill='040'O
         1 000567   100000 000010                    ADSC9   0,,PR1                   cn=0,n=8
         1 000570   200020 000010                    ADSC9   TEMP1,,AUTO              cn=0,n=8

     1106     3923    3                    TEMP2=KEY2$->CHAR8;

   3923  1 000571   200012 473500                    LDP3    KEY2$,,AUTO
         1 000572   040100 100500                    MLR     fill='040'O
         1 000573   300000 000010                    ADSC9   0,,PR3                   cn=0,n=8
         1 000574   200022 000010                    ADSC9   TEMP2,,AUTO              cn=0,n=8

     1107     3924    3                    CALL FMG$COMPDFLT(TEMP1, TEMP2, RESULT);

   3924  1 000575   200005 236100                    LDQ     @RESULT,,AUTO
         1 000576   200110 756100                    STQ     @ORIG+4,,AUTO
         1 000577   200022 634500                    EPPR4   TEMP2,,AUTO
         1 000600   200107 454500                    STP4    @ORIG+3,,AUTO
         1 000601   200020 635500                    EPPR5   TEMP1,,AUTO
         1 000602   200106 455500                    STP5    @ORIG+2,,AUTO
         1 000603   200106 630500                    EPPR0   @ORIG+2,,AUTO
         1 000604   000021 631400 xsym               EPPR1   B_VECTNIL+17
         1 000605   000000 701000 xent               TSX1    FMG$COMPDFLT
         1 000606   000000 011000                    NOP     0
         1 000607   000650 710000 1                  TRA     s:3938

     1108     3925
     1109     3926    3                 CASE(%SBIN_DATATYPE);

PL6.E3A0      #005=FKA$COMP File=FKA$ALTKEY.:E05TSI                              TUE 07/29/97 15:32 Page:243
     1110     3927    3                    LEN = RECFIELD.FIELD.LEN#(FN) / 9;

   3927  1 000610   000100 101506                    MRL     fill='000'O
         1 000611   000001 120002                    ADSC6   1,Q,PR0                  cn=1,n=2
         1 000612   200106 020006                    ADSC6   @ORIG+2,,AUTO            cn=0,n=6
         1 000613   200106 236100                    LDQ     @ORIG+2,,AUTO
         1 000614   000011 506007                    DIV     9,DL
         1 000615   200015 756100                    STQ     LEN,,AUTO

     1111     3928    3                    CALL COMPSBIN;

   3928  1 000616   000745 701000 1                  TSX1    COMPSBIN
         1 000617   000000 011000                    NOP     0
         1 000620   000650 710000 1                  TRA     s:3938

     1112     3929
     1113     3930    3                 CASE(%PDFLT_DATATYPE);

     1114     3931    3                    CALL FMG$COMPPDFLT(KEY1, KEY2, LEN, RESULT);

   3931  1 000621   200005 236100                    LDQ     @RESULT,,AUTO
         1 000622   200111 756100                    STQ     @ORIG+5,,AUTO
         1 000623   200015 631500                    EPPR1   LEN,,AUTO
         1 000624   200110 451500                    STP1    @ORIG+4,,AUTO
         1 000625   200012 236100                    LDQ     KEY2$,,AUTO
         1 000626   200011 235100                    LDA     KEY1$,,AUTO
         1 000627   200106 757100                    STAQ    @ORIG+2,,AUTO
         1 000630   200106 630500                    EPPR0   @ORIG+2,,AUTO
         1 000631   000022 631400 xsym               EPPR1   B_VECTNIL+18
         1 000632   000000 701000 xent               TSX1    FMG$COMPPDFLT
         1 000633   000000 011000                    NOP     0
         1 000634   000650 710000 1                  TRA     s:3938

     1115     3932
     1116     3933    3                 CASE(%UDFLT_DATATYPE);

     1117     3934    3                    CALL FMG$COMPUDFLT(KEY1, KEY2, LEN, RESULT);
PL6.E3A0      #005=FKA$COMP File=FKA$ALTKEY.:E05TSI                              TUE 07/29/97 15:32 Page:244

   3934  1 000635   200005 236100                    LDQ     @RESULT,,AUTO
         1 000636   200111 756100                    STQ     @ORIG+5,,AUTO
         1 000637   200015 631500                    EPPR1   LEN,,AUTO
         1 000640   200110 451500                    STP1    @ORIG+4,,AUTO
         1 000641   200012 236100                    LDQ     KEY2$,,AUTO
         1 000642   200011 235100                    LDA     KEY1$,,AUTO
         1 000643   200106 757100                    STAQ    @ORIG+2,,AUTO
         1 000644   200106 630500                    EPPR0   @ORIG+2,,AUTO
         1 000645   000022 631400 xsym               EPPR1   B_VECTNIL+18
         1 000646   000000 701000 xent               TSX1    FMG$COMPUDFLT
         1 000647   000000 011000                    NOP     0

     1118     3935
     1119     3936    3                 END;                      /* CASE                               */

     1120     3937
     1121     3938    2              RETURN;

   3938  1 000650   200072 221300                    LDX1  ! DIGIT+3,,AUTO
         1 000651   000001 702211                    TSX2  ! 1,X1

     1122     3939    2      END COMPFIELD;
     1123     3940         %EJECT;
PL6.E3A0      #005=FKA$COMP File=FKA$ALTKEY.:E05TSI                              TUE 07/29/97 15:32 Page:245
     1124     3941        /*I*     NAME:     COMPKEY
     1125     3942                 PURPOSE:  To compare two IREL keys
     1126     3943                 DESCRIPTION:
     1127     3944
     1128     3945                      Loop through the key definition until we hit the
     1129     3946                 end, or we reach a point where the keys are not equal.
     1130     3947
     1131     3948                      Compare the actual fields.
     1132     3949        */
     1133     3950         %EJECT;
PL6.E3A0      #005=FKA$COMP File=FKA$ALTKEY.:E05TSI                              TUE 07/29/97 15:32 Page:246
     1134     3951    1   COMPKEY:   PROC;

   3951  1 000652   200070 741300       COMPKEY      STX1  ! DIGIT+1,,AUTO

     1135     3952        /* */
     1136     3953    2              KEY1$ = FIRST$;

   3953  1 000653   200006 236100                    LDQ     FIRST$,,AUTO
         1 000654   200011 756100                    STQ     KEY1$,,AUTO

     1137     3954    2              KEY2$ = SECOND$;

   3954  1 000655   200007 236100                    LDQ     SECOND$,,AUTO
         1 000656   200012 756100                    STQ     KEY2$,,AUTO

     1138     3955
     1139     3956    3   LOOP:      DO I = IRKEYS.K.FIRSTFIELD(INDEX#) TO IRKEYS.K.FIRSTFIELD(INDEX#)+

   3956  1 000657   200010 236100       LOOP         LDQ     INDEX#,,AUTO
         1 000660   000007 402007                    MPY     7,DL
         1 000661   000000 470400 xsym               LDP0    FKA_IRKEYS$
         1 000662   000004 236106                    LDQ     4,QL,PR0
         1 000663   000022 772000                    QRL     18
         1 000664   200016 756100                    STQ     I,,AUTO
         1 000665   000725 710000 1                  TRA     s:3966+3

     1140     3957    3                  IRKEYS.K.NFIELDS(INDEX#)-1;
     1141     3958    3                 FN = KFIELD.FIELD(I);

   3958  1 000666   000000 470400 xsym               LDP0    FKA_KFIELD$
         1 000667   200016 235100                    LDA     I,,AUTO
         1 000670   000100 101505                    MRL     fill='000'O
         1 000671   000002 000001                    ADSC9   2,A,PR0                  cn=0,n=1
         1 000672   200014 000004                    ADSC9   FN,,AUTO                 cn=0,n=4

     1142     3959    3                 KEYTYPE = RECFIELD.FIELD.TYPE#(FN);

PL6.E3A0      #005=FKA$COMP File=FKA$ALTKEY.:E05TSI                              TUE 07/29/97 15:32 Page:247
   3959  1 000673   200014 236100                    LDQ     FN,,AUTO
         1 000674   000003 402007                    MPY     3,DL
         1 000675   000000 471400 xsym               LDP1    FKA_RECFIELD$
         1 000676   000100 101506                    MRL     fill='000'O
         1 000677   100001 020001                    ADSC6   1,Q,PR1                  cn=0,n=1
         1 000700   200013 020006                    ADSC6   KEYTYPE,,AUTO            cn=0,n=6

     1143     3960    3                 CALL COMPFIELD;

   3960  1 000701   000254 701000 1                  TSX1    COMPFIELD
         1 000702   000000 011000                    NOP     0

     1144     3961    3                 IF RESULT ~= %EQUAL THEN

   3961  1 000703   200005 470500                    LDP0    @RESULT,,AUTO
         1 000704   000000 235100                    LDA     0,,PR0
         1 000705   000710 600000 1                  TZE     s:3963

     1145     3962    3                    RETURN;

   3962  1 000706   200070 221300                    LDX1  ! DIGIT+1,,AUTO
         1 000707   000001 702211                    TSX2  ! 1,X1

     1146     3963    3                 CALL SET_SIZE;

   3963  1 000710   001075 701000 1                  TSX1    SET_SIZE
         1 000711   000000 011000                    NOP     0

     1147     3964    3                 KEY1$ = PINCRC(KEY1$, SIZE);

   3964  1 000712   200017 236100                    LDQ     SIZE,,AUTO
         1 000713   000020 736000                    QLS     16
         1 000714   200011 036100                    ADLQ    KEY1$,,AUTO
         1 000715   200011 756100                    STQ     KEY1$,,AUTO

     1148     3965    3                 KEY2$ = PINCRC(KEY2$, SIZE);

PL6.E3A0      #005=FKA$COMP File=FKA$ALTKEY.:E05TSI                              TUE 07/29/97 15:32 Page:248
   3965  1 000716   200017 236100                    LDQ     SIZE,,AUTO
         1 000717   000020 736000                    QLS     16
         1 000720   200012 036100                    ADLQ    KEY2$,,AUTO
         1 000721   200012 756100                    STQ     KEY2$,,AUTO

     1149     3966    3                 END;

   3966  1 000722   200016 235100                    LDA     I,,AUTO
         1 000723   000001 035007                    ADLA    1,DL
         1 000724   200016 755100                    STA     I,,AUTO
         1 000725   200010 236100                    LDQ     INDEX#,,AUTO
         1 000726   000007 402007                    MPY     7,DL
         1 000727   000000 470400 xsym               LDP0    FKA_IRKEYS$
         1 000730   000004 236106                    LDQ     4,QL,PR0
         1 000731   777777 376007                    ANQ     -1,DL
         1 000732   200106 756100                    STQ     @ORIG+2,,AUTO
         1 000733   200010 236100                    LDQ     INDEX#,,AUTO
         1 000734   000007 402007                    MPY     7,DL
         1 000735   000004 236106                    LDQ     4,QL,PR0
         1 000736   000022 772000                    QRL     18
         1 000737   200106 036100                    ADLQ    @ORIG+2,,AUTO
         1 000740   200016 116100                    CMPQ    I,,AUTO
         1 000741   000743 600000 1                  TZE     s:3968
         1 000742   000666 603000 1                  TRC     s:3958

     1150     3967
     1151     3968    2              RETURN;

   3968  1 000743   200070 221300                    LDX1  ! DIGIT+1,,AUTO
         1 000744   000001 702211                    TSX2  ! 1,X1

     1152     3969    2      END COMPKEY;
     1153     3970         %EJECT;
PL6.E3A0      #005=FKA$COMP File=FKA$ALTKEY.:E05TSI                              TUE 07/29/97 15:32 Page:249
     1154     3971        /*I*     NAME:     COMPSBIN
     1155     3972                 PURPOSE:  To compare two SBIN fields
     1156     3973                 DESCRIPTION:
     1157     3974
     1158     3975                      Move the SBIN fields into a full word with the
     1159     3976                 significant bytes in the high order portion of the
     1160     3977                 word.  Then, do the comparison.
     1161     3978        */
     1162     3979    1   COMPSBIN:  PROC;

   3979  1 000745   200074 741300       COMPSBIN     STX1  ! DIGIT+5,,AUTO

     1163     3980    2     DCL CTEMP CHAR(LEN) BASED;
     1164     3981    2     DCL STEMP_KEY1 SBIN;
     1165     3982    2     DCL CTEMP_KEY1 REDEF STEMP_KEY1 CHAR(4);
     1166     3983    2     DCL STEMP_KEY2 SBIN;
     1167     3984    2     DCL CTEMP_KEY2 REDEF STEMP_KEY2 CHAR(4);
     1168     3985        /* */
     1169     3986    2              CTEMP_KEY1=KEY1$->CTEMP;

   3986  1 000746   200011 470500                    LDP0    KEY1$,,AUTO
         1 000747   200015 720100                    LXL0    LEN,,AUTO
         1 000750   040100 100540                    MLR     fill='040'O
         1 000751   000000 000010                    ADSC9   0,,PR0                   cn=0,n=*X0
         1 000752   200075 000004                    ADSC9   STEMP_KEY1,,AUTO         cn=0,n=4

     1170     3987    2              CTEMP_KEY2=KEY2$->CTEMP;

   3987  1 000753   200012 471500                    LDP1    KEY2$,,AUTO
         1 000754   040100 100540                    MLR     fill='040'O
         1 000755   100000 000010                    ADSC9   0,,PR1                   cn=0,n=*X0
         1 000756   200076 000004                    ADSC9   STEMP_KEY2,,AUTO         cn=0,n=4

     1171     3988
     1172     3989    2              IF STEMP_KEY1 ~= STEMP_KEY2 THEN

   3989  1 000757   200075 236100                    LDQ     STEMP_KEY1,,AUTO
PL6.E3A0      #005=FKA$COMP File=FKA$ALTKEY.:E05TSI                              TUE 07/29/97 15:32 Page:250
         1 000760   200076 116100                    CMPQ    STEMP_KEY2,,AUTO
         1 000761   000772 600000 1                  TZE     s:3997

     1173     3990    3              DO;                          /* NOT EQUAL                          */

     1174     3991    3                 IF STEMP_KEY1 < STEMP_KEY2 THEN

   3991  1 000762   000767 605000 1                  TPL     s:3994

     1175     3992    3                    RESULT=%LESS;

   3992  1 000763   000001 235007                    LDA     1,DL
         1 000764   200005 473500                    LDP3    @RESULT,,AUTO
         1 000765   300000 755100                    STA     0,,PR3
         1 000766   000772 710000 1                  TRA     s:3997

     1176     3993    3                 ELSE
     1177     3994    3                    RESULT=%GREATER;

   3994  1 000767   000002 235007                    LDA     2,DL
         1 000770   200005 473500                    LDP3    @RESULT,,AUTO
         1 000771   300000 755100                    STA     0,,PR3

     1178     3995    3                 END;                      /* NOT EQUAL                          */

     1179     3996
     1180     3997    2              RETURN;

   3997  1 000772   200074 221300                    LDX1  ! DIGIT+5,,AUTO
         1 000773   000001 702211                    TSX2  ! 1,X1

     1181     3998    2      END COMPSBIN;
     1182     3999         %EJECT;
PL6.E3A0      #005=FKA$COMP File=FKA$ALTKEY.:E05TSI                              TUE 07/29/97 15:32 Page:251
     1183     4000        /*I*     NAME:     COMPUDLO
     1184     4001                 PURPOSE:  To compare leading overpunch fields
     1185     4002                 DESCRIPTION:
     1186     4003
     1187     4004                      Split out the sign from the digit, then compare
     1188     4005                 as unpacked decimal with a leading sign.
     1189     4006        */
     1190     4007    1   COMPUDLO:  PROC(KEY1, KEY2, LEN, RESULT);

   4007  1 000774   200074 741300       COMPUDLO     STX1  ! DIGIT+5,,AUTO

     1191     4008    2     DCL KEY1 CHAR(64);
     1192     4009    2     DCL KEY2 CHAR(64);
     1193     4010    2     DCL LEN SBIN;
     1194     4011    2     DCL RESULT SBIN;
     1195     4012        /* */
     1196     4013    2              POS=%LEADING;

   4013  1 000775   200024 450100                    STZ     POS,,AUTO

     1197     4014    2              CALL SPLIT(KEY1_TEMP, KEY1);

   4014  1 000776   200075 236100                    LDQ     @KEY1,,AUTO
         1 000777   200104 756100                    STQ     @TEMP+1,,AUTO
         1 001000   200025 630500                    EPPR0   KEY1_TEMP,,AUTO
         1 001001   200103 450500                    STP0    @RESULT+3,,AUTO
         1 001002   001174 701000 1                  TSX1    SPLIT
         1 001003   000000 011000                    NOP     0

     1198     4015
     1199     4016    2              CALL SPLIT(KEY2_TEMP, KEY2);

   4016  1 001004   200076 236100                    LDQ     @KEY2,,AUTO
         1 001005   200104 756100                    STQ     @TEMP+1,,AUTO
         1 001006   200045 630500                    EPPR0   KEY2_TEMP,,AUTO
         1 001007   200103 450500                    STP0    @RESULT+3,,AUTO
         1 001010   001174 701000 1                  TSX1    SPLIT
PL6.E3A0      #005=FKA$COMP File=FKA$ALTKEY.:E05TSI                              TUE 07/29/97 15:32 Page:252
         1 001011   000000 011000                    NOP     0

     1200     4017
     1201     4018    2              CALL FMG$COMPUDLS(KEY1_TEMP, KEY2_TEMP, LEN+1, RESULT);

   4018  1 001012   200077 470500                    LDP0    @LEN,,AUTO
         1 001013   000000 235100                    LDA     0,,PR0
         1 001014   000001 035007                    ADLA    1,DL
         1 001015   200106 755100                    STA     @ORIG+2,,AUTO
         1 001016   200100 236100                    LDQ     @RESULT,,AUTO
         1 001017   200113 756100                    STQ     @ORIG+7,,AUTO
         1 001020   200106 631500                    EPPR1   @ORIG+2,,AUTO
         1 001021   200112 451500                    STP1    @ORIG+6,,AUTO
         1 001022   200045 633500                    EPPR3   KEY2_TEMP,,AUTO
         1 001023   200111 453500                    STP3    @ORIG+5,,AUTO
         1 001024   200025 634500                    EPPR4   KEY1_TEMP,,AUTO
         1 001025   200110 454500                    STP4    @ORIG+4,,AUTO
         1 001026   200110 630500                    EPPR0   @ORIG+4,,AUTO
         1 001027   000022 631400 xsym               EPPR1   B_VECTNIL+18
         1 001030   000000 701000 xent               TSX1    FMG$COMPUDLS
         1 001031   000000 011000                    NOP     0

     1202     4019    2              RETURN;

   4019  1 001032   200074 221300                    LDX1  ! DIGIT+5,,AUTO
         1 001033   000001 702211                    TSX2  ! 1,X1

     1203     4020    2      END COMPUDLO;
     1204     4021         %EJECT;
PL6.E3A0      #005=FKA$COMP File=FKA$ALTKEY.:E05TSI                              TUE 07/29/97 15:32 Page:253
     1205     4022        /*I*     NAME:     COMPUDTO
     1206     4023                 PURPOSE:  To compare trailing overpunch fields
     1207     4024                 DESCRIPTION:
     1208     4025
     1209     4026                      Split out the sign from the field, then compare
     1210     4027                 as unpacked decimal with a trailing sign.
     1211     4028        */
     1212     4029    1   COMPUDTO:  PROC(KEY1, KEY2, LEN, RESULT);

   4029  1 001034   200074 741300       COMPUDTO     STX1  ! DIGIT+5,,AUTO

     1213     4030    2     DCL KEY1 CHAR(64);
     1214     4031    2     DCL KEY2 CHAR(64);
     1215     4032    2     DCL LEN SBIN;
     1216     4033    2     DCL RESULT SBIN;
     1217     4034        /* */
     1218     4035    2              POS=%TRAILING;

   4035  1 001035   000001 235007                    LDA     1,DL
         1 001036   200024 755100                    STA     POS,,AUTO

     1219     4036    2              CALL SPLIT(KEY1_TEMP, KEY1);

   4036  1 001037   200075 236100                    LDQ     @KEY1,,AUTO
         1 001040   200104 756100                    STQ     @TEMP+1,,AUTO
         1 001041   200025 630500                    EPPR0   KEY1_TEMP,,AUTO
         1 001042   200103 450500                    STP0    @RESULT+3,,AUTO
         1 001043   001174 701000 1                  TSX1    SPLIT
         1 001044   000000 011000                    NOP     0

     1220     4037
     1221     4038    2              CALL SPLIT(KEY2_TEMP, KEY2);

   4038  1 001045   200076 236100                    LDQ     @KEY2,,AUTO
         1 001046   200104 756100                    STQ     @TEMP+1,,AUTO
         1 001047   200045 630500                    EPPR0   KEY2_TEMP,,AUTO
         1 001050   200103 450500                    STP0    @RESULT+3,,AUTO
PL6.E3A0      #005=FKA$COMP File=FKA$ALTKEY.:E05TSI                              TUE 07/29/97 15:32 Page:254
         1 001051   001174 701000 1                  TSX1    SPLIT
         1 001052   000000 011000                    NOP     0

     1222     4039
     1223     4040    2              CALL FMG$COMPUDLS(KEY1_TEMP, KEY2_TEMP, LEN+1, RESULT);

   4040  1 001053   200077 470500                    LDP0    @LEN,,AUTO
         1 001054   000000 235100                    LDA     0,,PR0
         1 001055   000001 035007                    ADLA    1,DL
         1 001056   200106 755100                    STA     @ORIG+2,,AUTO
         1 001057   200100 236100                    LDQ     @RESULT,,AUTO
         1 001060   200113 756100                    STQ     @ORIG+7,,AUTO
         1 001061   200106 631500                    EPPR1   @ORIG+2,,AUTO
         1 001062   200112 451500                    STP1    @ORIG+6,,AUTO
         1 001063   200045 633500                    EPPR3   KEY2_TEMP,,AUTO
         1 001064   200111 453500                    STP3    @ORIG+5,,AUTO
         1 001065   200025 634500                    EPPR4   KEY1_TEMP,,AUTO
         1 001066   200110 454500                    STP4    @ORIG+4,,AUTO
         1 001067   200110 630500                    EPPR0   @ORIG+4,,AUTO
         1 001070   000022 631400 xsym               EPPR1   B_VECTNIL+18
         1 001071   000000 701000 xent               TSX1    FMG$COMPUDLS
         1 001072   000000 011000                    NOP     0

     1224     4041    2              RETURN;

   4041  1 001073   200074 221300                    LDX1  ! DIGIT+5,,AUTO
         1 001074   000001 702211                    TSX2  ! 1,X1

     1225     4042    2      END COMPUDTO;
     1226     4043         %EJECT;
PL6.E3A0      #005=FKA$COMP File=FKA$ALTKEY.:E05TSI                              TUE 07/29/97 15:32 Page:255
     1227     4044        /*I*     NAME:     SET_SIZE
     1228     4045                 PURPOSE:  To set the size of a key field in bytes.
     1229     4046                 DESCRIPTION:
     1230     4047                      Use the LEN we already know to figure the size in bytes.
     1231     4048        */
     1232     4049    1   SET_SIZE:  PROC;

   4049  1 001075   200072 741300       SET_SIZE     STX1  ! DIGIT+3,,AUTO

     1233     4050        /* */
     1234     4051    3              DO CASE(KEYTYPE);

   4051  1 001076   200013 235100                    LDA     KEYTYPE,,AUTO
         1 001077   000011 135007                    SBLA    9,DL
         1 001100   000061 115007                    CMPA    49,DL
         1 001101   001103 602005 1                  TNC     s:4051+5,AL
         1 001102   001171 710000 1                  TRA     s:4058
         1 001103   001164 710000 1                  TRA     s:4055
         1 001104   001164 710000 1                  TRA     s:4055
         1 001105   001171 710000 1                  TRA     s:4058
         1 001106   001171 710000 1                  TRA     s:4058
         1 001107   001171 710000 1                  TRA     s:4058
         1 001110   001171 710000 1                  TRA     s:4058
         1 001111   001171 710000 1                  TRA     s:4058
         1 001112   001171 710000 1                  TRA     s:4058
         1 001113   001171 710000 1                  TRA     s:4058
         1 001114   001171 710000 1                  TRA     s:4058
         1 001115   001171 710000 1                  TRA     s:4058
         1 001116   001171 710000 1                  TRA     s:4058
         1 001117   001171 710000 1                  TRA     s:4058
         1 001120   001171 710000 1                  TRA     s:4058
         1 001121   001171 710000 1                  TRA     s:4058
         1 001122   001171 710000 1                  TRA     s:4058
         1 001123   001164 710000 1                  TRA     s:4055
         1 001124   001171 710000 1                  TRA     s:4058
         1 001125   001171 710000 1                  TRA     s:4058
         1 001126   001171 710000 1                  TRA     s:4058
PL6.E3A0      #005=FKA$COMP File=FKA$ALTKEY.:E05TSI                              TUE 07/29/97 15:32 Page:256
         1 001127   001171 710000 1                  TRA     s:4058
         1 001130   001171 710000 1                  TRA     s:4058
         1 001131   001164 710000 1                  TRA     s:4055
         1 001132   001171 710000 1                  TRA     s:4058
         1 001133   001171 710000 1                  TRA     s:4058
         1 001134   001171 710000 1                  TRA     s:4058
         1 001135   001171 710000 1                  TRA     s:4058
         1 001136   001171 710000 1                  TRA     s:4058
         1 001137   001171 710000 1                  TRA     s:4058
         1 001140   001171 710000 1                  TRA     s:4058
         1 001141   001171 710000 1                  TRA     s:4058
         1 001142   001164 710000 1                  TRA     s:4055
         1 001143   001171 710000 1                  TRA     s:4058
         1 001144   001171 710000 1                  TRA     s:4058
         1 001145   001171 710000 1                  TRA     s:4058
         1 001146   001171 710000 1                  TRA     s:4058
         1 001147   001171 710000 1                  TRA     s:4058
         1 001150   001171 710000 1                  TRA     s:4058
         1 001151   001171 710000 1                  TRA     s:4058
         1 001152   001171 710000 1                  TRA     s:4058
         1 001153   001171 710000 1                  TRA     s:4058
         1 001154   001171 710000 1                  TRA     s:4058
         1 001155   001164 710000 1                  TRA     s:4055
         1 001156   001171 710000 1                  TRA     s:4058
         1 001157   001171 710000 1                  TRA     s:4058
         1 001160   001164 710000 1                  TRA     s:4055
         1 001161   001171 710000 1                  TRA     s:4058
         1 001162   001171 710000 1                  TRA     s:4058
         1 001163   001164 710000 1                  TRA     s:4055

     1235     4052    3                 CASE(%PDLE_DATATYPE, %PDTE_DATATYPE, %PDLA_DATATYPE,

     1236     4053    3                  %PDTA_DATATYPE, %PDNS_DATATYPE, %PDFLT_DATATYPE,
     1237     4054    3                  %DATE_DATATYPE, %TIME_DATATYPE);
     1238     4055    3                    SIZE=(LEN+1)/2;

   4055  1 001164   200015 236100                    LDQ     LEN,,AUTO
PL6.E3A0      #005=FKA$COMP File=FKA$ALTKEY.:E05TSI                              TUE 07/29/97 15:32 Page:257
         1 001165   000001 036007                    ADLQ    1,DL
         1 001166   000001 772000                    QRL     1
         1 001167   200017 756100                    STQ     SIZE,,AUTO
         1 001170   001173 710000 1                  TRA     s:4062

     1239     4056
     1240     4057    3                 CASE(ELSE);

     1241     4058    3                    SIZE=LEN;

   4058  1 001171   200015 236100                    LDQ     LEN,,AUTO
         1 001172   200017 756100                    STQ     SIZE,,AUTO

     1242     4059
     1243     4060    3                 END;                      /* Do Case                            */

     1244     4061
     1245     4062    2              RETURN;

   4062  1 001173   000001 702211                    TSX2  ! 1,X1

     1246     4063    2      END SET_SIZE;
     1247     4064         %EJECT;
PL6.E3A0      #005=FKA$COMP File=FKA$ALTKEY.:E05TSI                              TUE 07/29/97 15:32 Page:258
     1248     4065        /*I*     NAME:     SPLIT
     1249     4066                 PURPOSE:  To split an overpunched sign
     1250     4067                 DESCRIPTION:
     1251     4068
     1252     4069                      Pick up the character to split.  Then set a
     1253     4070                 separate sign and digit.  Insert the split number
     1254     4071                 into TEMP.
     1255     4072        */
     1256     4073         %EJECT;
PL6.E3A0      #005=FKA$COMP File=FKA$ALTKEY.:E05TSI                              TUE 07/29/97 15:32 Page:259
     1257     4074    1   SPLIT:     PROC(TEMP, ORIG);

   4074  1 001174   200102 741300       SPLIT        STX1  ! @RESULT+2,,AUTO

     1258     4075    2     DCL TEMP CHAR(64);
     1259     4076    2     DCL ORIG CHAR(64);
     1260     4077        /* */
     1261     4078    2              IF POS = %LEADING THEN

   4078  1 001175   200024 235100                    LDA     POS,,AUTO
         1 001176   001204 601000 1                  TNZ     s:4081

     1262     4079    2                 CALL INSERT(CHAR1, 0, 1, SUBSTR(ORIG, 0, 1));

   4079  1 001177   200104 470500                    LDP0    @ORIG,,AUTO
         1 001200   040100 100500                    MLR     fill='040'O
         1 001201   000000 000001                    ADSC9   0,,PR0                   cn=0,n=1
         1 001202   200065 000001                    ADSC9   CHAR1,,AUTO              cn=0,n=1
         1 001203   001211 710000 1                  TRA     s:4083

     1263     4080    2              ELSE
     1264     4081    2                 CALL INSERT(CHAR1, 0, 1, SUBSTR(ORIG, LEN-1, 1));

   4081  1 001204   200104 470500                    LDP0    @ORIG,,AUTO
         1 001205   200015 236100                    LDQ     LEN,,AUTO
         1 001206   040100 100506                    MLR     fill='040'O
         1 001207   077777 600001                    ADSC9   -1,Q,PR0                 cn=3,n=1
         1 001210   200065 000001                    ADSC9   CHAR1,,AUTO              cn=0,n=1

     1265     4082
     1266     4083    2              IF CHAR1 = '{' THEN

   4083  1 001211   200065 236100                    LDQ     CHAR1,,AUTO
         1 001212   777000 376003                    ANQ     -512,DU
         1 001213   173000 116003                    CMPQ    62976,DU
         1 001214   001222 601000 1                  TNZ     s:4089

PL6.E3A0      #005=FKA$COMP File=FKA$ALTKEY.:E05TSI                              TUE 07/29/97 15:32 Page:260
     1267     4084    3              DO;                          /* +0                                 */

     1268     4085    3                 SIGN='+';

   4085  1 001215   053000 236003                    LDQ     22016,DU
         1 001216   200066 756100                    STQ     SIGN,,AUTO

     1269     4086    3                 DIGIT='0';

   4086  1 001217   060000 236003                    LDQ     24576,DU
         1 001220   200067 756100                    STQ     DIGIT,,AUTO

     1270     4087    3                 END;                      /* +0                                 */

   4087  1 001221   001260 710000 1                  TRA     s:4106

     1271     4088    2              ELSE
     1272     4089    2                 IF CHAR1 = '}' THEN

   4089  1 001222   200065 236100                    LDQ     CHAR1,,AUTO
         1 001223   777000 376003                    ANQ     -512,DU
         1 001224   175000 116003                    CMPQ    64000,DU
         1 001225   001233 601000 1                  TNZ     s:4095

     1273     4090    3                 DO;                       /* -0                                 */

     1274     4091    3                    SIGN='-';

   4091  1 001226   055000 236003                    LDQ     23040,DU
         1 001227   200066 756100                    STQ     SIGN,,AUTO

     1275     4092    3                    DIGIT='0';

   4092  1 001230   060000 236003                    LDQ     24576,DU
         1 001231   200067 756100                    STQ     DIGIT,,AUTO

     1276     4093    3                    END;                   /* -0                                 */
PL6.E3A0      #005=FKA$COMP File=FKA$ALTKEY.:E05TSI                              TUE 07/29/97 15:32 Page:261

   4093  1 001232   001260 710000 1                  TRA     s:4106

     1277     4094    2                 ELSE
     1278     4095    2                    IF CHAR1 < 'J' THEN

   4095  1 001233   200065 236100                    LDQ     CHAR1,,AUTO
         1 001234   777000 376003                    ANQ     -512,DU
         1 001235   112000 116003                    CMPQ    37888,DU
         1 001236   001250 603000 1                  TRC     s:4102

     1279     4096    3                    DO;                    /* +1 TO +9                           */

     1280     4097    3                       SIGN='+';

   4097  1 001237   053000 236003                    LDQ     22016,DU
         1 001240   200066 756100                    STQ     SIGN,,AUTO

     1281     4098    3                       DIGIT=BINASC(ASCBIN(CHAR1)-16);

   4098  1 001241   200065 236100                    LDQ     CHAR1,,AUTO
         1 001242   000033 772000                    QRL     27
         1 001243   000020 136007                    SBLQ    16,DL
         1 001244   000033 736000                    QLS     27
         1 001245   000000 276000 2                  ORQ     0
         1 001246   200067 756100                    STQ     DIGIT,,AUTO

     1282     4099    3                       END;                /* +1 TO +9                           */

   4099  1 001247   001260 710000 1                  TRA     s:4106

     1283     4100    2                    ELSE
     1284     4101    3                    DO;                    /* -1 TO -9                           */

     1285     4102    3                       SIGN='-';

   4102  1 001250   055000 236003                    LDQ     23040,DU
PL6.E3A0      #005=FKA$COMP File=FKA$ALTKEY.:E05TSI                              TUE 07/29/97 15:32 Page:262
         1 001251   200066 756100                    STQ     SIGN,,AUTO

     1286     4103    3                       DIGIT=BINASC(ASCBIN(CHAR1)-25);

   4103  1 001252   200065 236100                    LDQ     CHAR1,,AUTO
         1 001253   000033 772000                    QRL     27
         1 001254   000031 136007                    SBLQ    25,DL
         1 001255   000033 736000                    QLS     27
         1 001256   000000 276000 2                  ORQ     0
         1 001257   200067 756100                    STQ     DIGIT,,AUTO

     1287     4104    3                       END;                /* -1 TO -9                           */

     1288     4105
     1289     4106    2              CALL INSERT(TEMP, 0, 1, SIGN);

   4106  1 001260   200103 471500                    LDP1    @TEMP,,AUTO
         1 001261   040100 100500                    MLR     fill='040'O
         1 001262   200066 000001                    ADSC9   SIGN,,AUTO               cn=0,n=1
         1 001263   100000 000001                    ADSC9   0,,PR1                   cn=0,n=1

     1290     4107    2              IF POS = %LEADING THEN

   4107  1 001264   000000 115003                    CMPA    0,DU
         1 001265   001277 601000 1                  TNZ     s:4114

     1291     4108    3              DO;                          /* LEADING SIGN                       */

     1292     4109    3                 CALL INSERT(TEMP, 1, 1, DIGIT);

   4109  1 001266   040100 100500                    MLR     fill='040'O
         1 001267   200067 000001                    ADSC9   DIGIT,,AUTO              cn=0,n=1
         1 001270   100000 200001                    ADSC9   0,,PR1                   cn=1,n=1

     1293     4110    3                 CALL INSERT(TEMP, 2, LEN-1, SUBSTR(ORIG, 1, LEN-1));

   4110  1 001271   200015 720100                    LXL0    LEN,,AUTO
PL6.E3A0      #005=FKA$COMP File=FKA$ALTKEY.:E05TSI                              TUE 07/29/97 15:32 Page:263
         1 001272   777777 621010                    EAX1    -1,X0
         1 001273   040140 100540                    MLR     fill='040'O
         1 001274   000000 200011                    ADSC9   0,,PR0                   cn=1,n=*X1
         1 001275   100000 400011                    ADSC9   0,,PR1                   cn=2,n=*X1

     1294     4111    3                 END;                      /* LEADING SIGN                       */

   4111  1 001276   001310 710000 1                  TRA     s:4118

     1295     4112    2              ELSE
     1296     4113    3              DO;                          /* TRAILING SIGN                      */

     1297     4114    3                 CALL INSERT(TEMP, LEN-1, 1, DIGIT);

   4114  1 001277   200015 235100                    LDA     LEN,,AUTO
         1 001300   040105 100500                    MLR     fill='040'O
         1 001301   200067 000001                    ADSC9   DIGIT,,AUTO              cn=0,n=1
         1 001302   177777 600001                    ADSC9   -1,A,PR1                 cn=3,n=1

     1298     4115    3                 CALL INSERT(TEMP, 1, LEN-1, SUBSTR(ORIG, 0, LEN-1));

   4115  1 001303   200015 720100                    LXL0    LEN,,AUTO
         1 001304   777777 621010                    EAX1    -1,X0
         1 001305   040140 100540                    MLR     fill='040'O
         1 001306   000000 000011                    ADSC9   0,,PR0                   cn=0,n=*X1
         1 001307   100000 200011                    ADSC9   0,,PR1                   cn=1,n=*X1

     1299     4116    3                 END;                      /* TRAILING SIGN                      */

     1300     4117
     1301     4118    2              RETURN;

   4118  1 001310   200102 221300                    LDX1  ! @RESULT+2,,AUTO
         1 001311   000001 702211                    TSX2  ! 1,X1
     1302     4119    2      END SPLIT;
     1303     4120    1   END FKA$COMP;
     1304     4121         %EOD;
PL6.E3A0      #005=FKA$COMP File=FKA$ALTKEY.:E05TSI                              TUE 07/29/97 15:32 Page:264

PL6.E3A0      #005=FKA$COMP File=FKA$ALTKEY.:E05TSI                              TUE 07/29/97 15:32 Page:265
--  Include file information  --

   B$OBJECT_C.:E05TOU  is referenced.
   FKA_DATA_R.:E05TOU  cannot be made into a system file and is referenced.
   FM_FIELD_C.:E05TOU  is referenced.
   CP_6.:E05TOU  cannot be made into a system file and is referenced.
   B$JIT_C.:E05TOU  was found in the system file and is never referenced.
   CP_6_C.:E05TOU  was found in the system file and is referenced.
      No diagnostics issued in procedure FKA$COMP.
PL6.E3A0      #005=FKA$COMP File=FKA$ALTKEY.:E05TSI                              TUE 07/29/97 15:32 Page:266

 **** Variables and constants ****

  ****  Auto variables  ****

  ****  Scalars and arrays  ****
OctLoc.c.b A Datatyp(siz) R M Lvl/name                 OctLoc.c.b A Datatyp(siz) R M Lvl/name

     3-0-0/w PTR         r     1 @FIRST_RECORD             75-0-0/w PTR         r     1 @KEY1
    75-0-0/w PTR         r     1 @KEY1                     76-0-0/w PTR         r     1 @KEY2
    76-0-0/w PTR         r     1 @KEY2                     77-0-0/w PTR         r     1 @LEN
    77-0-0/w PTR         r     1 @LEN                     104-0-0/w PTR         r     1 @ORIG
     5-0-0/w PTR         r     1 @RESULT                  100-0-0/w PTR         r     1 @RESULT
   100-0-0/w PTR         r     1 @RESULT                    4-0-0/w PTR         r     1 @SECOND_RECORD
   103-0-0/w PTR         r     1 @TEMP                     65-0-0/c CHAR        r     1 CHAR1
    75-0-0/w CHAR(4)     r     1 CTEMP_KEY1                76-0-0/w CHAR(4)     r     1 CTEMP_KEY2
    67-0-0/c CHAR        r     1 DIGIT                      6-0-0/w PTR         r     1 FIRST$
    *0-0-0/c ACHR        r     1 FIRST_RECORD              14-0-0/w UBIN        r     1 FN
    16-0-0/w UBIN        r     1 I                         10-0-0/w UBIN        r     1 INDEX#
    *0-0-0/c CHAR(64)    r     1 KEY1                      *0-0-0/c CHAR(64)    r     1 KEY1
    11-0-0/w PTR         r     1 KEY1$                     25-0-0/c CHAR(64)    r     1 KEY1_TEMP
    *0-0-0/c CHAR(64)    r     1 KEY2                      *0-0-0/c CHAR(64)    r     1 KEY2
    12-0-0/w PTR         r     1 KEY2$                     45-0-0/c CHAR(64)    r     1 KEY2_TEMP
    13-0-0/w UBIN        r     1 KEYTYPE                   15-0-0/w UBIN        r     1 LEN
    *0-0-0/w SBIN        r     1 LEN                       *0-0-0/w SBIN        r     1 LEN
    *0-0-0/c CHAR(64)    r     1 ORIG                      24-0-0/w SBIN        r     1 POS
    *0-0-0/w SBIN        r     1 RESULT                    *0-0-0/w SBIN        r     1 RESULT
    *0-0-0/w SBIN        r     1 RESULT                     7-0-0/w PTR         r     1 SECOND$
    *0-0-0/c ACHR        r     1 SECOND_RECORD             66-0-0/c CHAR        r     1 SIGN
    17-0-0/w UBIN        r     1 SIZE                      75-0-0/w SBIN        r     1 STEMP_KEY1
    76-0-0/w SBIN        r     1 STEMP_KEY2                *0-0-0/c CHAR(64)    r     1 TEMP
    20-0-0/d CHAR(8)     r     1 TEMP1                     22-0-0/d CHAR(8)     r     1 TEMP2

  ****  SYMREF variables  ****

  ****  Scalars and arrays  ****
OctLoc.c.b A Datatyp(siz) R M Lvl/name                 OctLoc.c.b A Datatyp(siz) R M Lvl/name

PL6.E3A0      #005=FKA$COMP File=FKA$ALTKEY.:E05TSI                              TUE 07/29/97 15:32 Page:267
     0-0-0/w PTR         r     1 FKA_IRKEYS$                0-0-0/w SBIN        r     1 FKA_KEYSIZE
     0-0-0/w PTR         r     1 FKA_KFIELD$                0-0-0/w PTR         r     1 FKA_RECFIELD$
     0-0-0/w SBIN        r     1 FKA_RECSIZE

  ****  BASED and DCB variables  ****

  ****  Scalars and arrays  ****
OctLoc.c.b A Datatyp(siz) R M Lvl/name                 OctLoc.c.b A Datatyp(siz) R M Lvl/name

     0-0-0/c CHAR(4)     r     1 CHAR4                      0-0-0/c CHAR(8)     r     1 CHAR8
     0-0-0/c ACHR        r     1 CHR                        0-0-0/c ACHR        r     1 CTEMP
     0-0-0/c CHAR(4)     r     1 ID                         0-0-0/w STRC(360)   r     1 IRKEYS
     0-0-0/c CHAR        r     1 KEY1                       0-0-0/c CHAR        r     1 KEY2
     0-0-0/w STRC(81)    r     1 KFIELD                     0-0-0/d STRC(54)    r     1 RECFIELD
     0-0-0/c CHAR(2)     r     1 SEGCNT


   Procedure FKA$COMP requires 714 words for executable code.
   Procedure FKA$COMP requires 76 words of local(AUTO) storage.
PL6.E3A0      #005=FKA$COMP File=FKA$ALTKEY.:E05TSI                              TUE 07/29/97 15:32 Page:268
          *** CROSS REFERENCE LISTING ***
**     DENOTES     IDENTIFIER DEFINITION
<<                 IDENTIFIER'S VALUE SET
>>                 IDENTIFIER'S VALUE USED
<>                 IDENTIFIER SET AND/OR USED
--                 IDENTIFIER REFERENCED
PL6.E3A0      #005=FKA$COMP File=FKA$ALTKEY.:E05TSI                              TUE 07/29/97 15:32 Page:269
          MINI XREF LISTING

CHAR1
      3748**DCL      4079<<CALLBLT  4081<<CALLBLT  4083>>IF       4089>>IF       4095>>IF       4098>>ASSIGN
      4103>>ASSIGN
CHAR4
      3758**DCL      3916>>ASSIGN   3917>>ASSIGN
CHAR8
      3759**DCL      3922>>ASSIGN   3923>>ASSIGN
CHR
      3757**DCL      3794>>IF       3794>>IF       3795>>IF       3795>>IF       3907>>IF       3907>>IF
      3908>>IF       3908>>IF
COMPFIELD
      3877**PROC     3808--CALL     3862--CALL     3960--CALL
COMPKEY
      3951**PROC     3813--CALL     3865--CALL
COMPSBIN
      3979**PROC     3928--CALL
COMPUDLO
      4007**PROC     3888--CALL
COMPUDTO
      4029**PROC     3891--CALL
CTEMP IN PROCEDURE COMPSBIN
      3980**DCL      3986>>ASSIGN   3987>>ASSIGN
CTEMP_KEY1 IN PROCEDURE COMPSBIN
      3982**DCL      3986<<ASSIGN
CTEMP_KEY2 IN PROCEDURE COMPSBIN
      3984**DCL      3987<<ASSIGN
DIGIT
      3750**DCL      4086<<ASSIGN   4092<<ASSIGN   4098<<ASSIGN   4103<<ASSIGN   4109>>CALLBLT  4114>>CALLBLT
FIRST$
      3733**DCL      3789<<ASSIGN   3794>>IF       3795>>IF       3806>>ASSIGN   3817<<ASSIGN   3817>>ASSIGN
      3820>>IF       3821>>IF       3829<<ASSIGN   3829>>ASSIGN   3832>>IF       3833>>IF       3852<<ASSIGN
      3860>>ASSIGN   3953>>ASSIGN
PL6.E3A0      #005=FKA$COMP File=FKA$ALTKEY.:E05TSI                              TUE 07/29/97 15:32 Page:270
FIRST_RECORD
      3599**DCL        28--PROC     3778>>ASSIGN   3789--ASSIGN   3850--ENTRY    3852--ASSIGN
FKA_IRKEYS$
       161**DCL      3723--IMP-PTR  3792>>IF       3793>>ASSIGN   3803>>IF       3804>>ASSIGN   3857>>IF
      3858>>ASSIGN   3956>>DOINDEX  3956>>DOINDEX  3956>>DOINDEX
FKA_KEYSIZE
       164**DCL      3817>>ASSIGN   3818>>ASSIGN
FKA_KFIELD$
       162**DCL      3730--IMP-PTR  3804>>ASSIGN   3858>>ASSIGN   3958>>ASSIGN
FKA_RECFIELD$
       160**DCL      3690--IMP-PTR  3805>>ASSIGN   3859>>ASSIGN   3879>>ASSIGN   3904>>ASSIGN   3915>>ASSIGN
      3921>>ASSIGN   3927>>ASSIGN   3959>>ASSIGN
FKA_RECSIZE
       164**DCL      3599--IMP-SIZ  3600--IMP-SIZ  3778>>ASSIGN   3779>>ASSIGN
FMG$COMPDFLT
      3773**DCL-ENT  3924--CALL
FMG$COMPPDFLT
      3774**DCL-ENT  3931--CALL
FMG$COMPPDLS
      3769**DCL-ENT  3895--CALL
FMG$COMPPDNS
      3770**DCL-ENT  3898--CALL
FMG$COMPPDTS
      3771**DCL-ENT  3901--CALL
FMG$COMPSFLT
      3772**DCL-ENT  3918--CALL
FMG$COMPUDFLT
      3775**DCL-ENT  3934--CALL
FMG$COMPUDLS
      3768**DCL-ENT  3885--CALL     4018--CALL     4040--CALL
FMG$COMPUDTS
      3767**DCL-ENT  3882--CALL
FN
      3739**DCL      3804<<ASSIGN   3805>>ASSIGN   3858<<ASSIGN   3859>>ASSIGN   3879>>ASSIGN   3904>>ASSIGN
      3915>>ASSIGN   3921>>ASSIGN   3927>>ASSIGN   3958<<ASSIGN   3959>>ASSIGN
I
PL6.E3A0      #005=FKA$COMP File=FKA$ALTKEY.:E05TSI                              TUE 07/29/97 15:32 Page:271
      3741**DCL      3779<<ASSIGN   3781>>IF       3782>>IF       3956<<DOINDEX  3958>>ASSIGN
ID
      3755**DCL      3820>>IF       3820>>IF       3821>>IF       3821>>IF
INDEX#
      3735**DCL      3778<<ASSIGN   3781>>IF       3782>>IF       3792>>IF       3793>>ASSIGN   3803>>IF
      3804>>ASSIGN   3854<<ASSIGN   3857>>IF       3858>>ASSIGN   3956>>DOINDEX  3956>>DOINDEX  3956>>DOINDEX
IRKEYS.K.DEGENERATE
      3725**DCL      3792>>IF
IRKEYS.K.FIRSTFIELD
      3724**DCL      3804>>ASSIGN   3858>>ASSIGN   3956>>DOINDEX  3956>>DOINDEX
IRKEYS.K.KEYL
      3724**DCL      3793>>ASSIGN
IRKEYS.K.NFIELDS
      3724**DCL      3803>>IF       3857>>IF       3956>>DOINDEX
KEY1
      3752**DCL      3882<>CALL     3885<>CALL     3888<>CALL     3891<>CALL     3895<>CALL     3898<>CALL
      3901<>CALL     3931<>CALL     3934<>CALL
KEY1 IN PROCEDURE COMPUDLO
      4008**DCL      4007--PROC     4014<>CALL
KEY1 IN PROCEDURE COMPUDTO
      4030**DCL      4029--PROC     4036<>CALL
KEY1$
      3736**DCL      3752--IMP-PTR  3806<<ASSIGN   3860<<ASSIGN   3882>>CALL     3885>>CALL     3888>>CALL
      3891>>CALL     3895>>CALL     3898>>CALL     3901>>CALL     3907>>IF       3908>>IF       3916>>ASSIGN
      3922>>ASSIGN   3931>>CALL     3934>>CALL     3953<<ASSIGN   3964<<ASSIGN   3964>>ASSIGN   3986>>ASSIGN
KEY1_TEMP
      3746**DCL      4014<>CALL     4018<>CALL     4036<>CALL     4040<>CALL
KEY2
      3753**DCL      3882<>CALL     3885<>CALL     3888<>CALL     3891<>CALL     3895<>CALL     3898<>CALL
      3901<>CALL     3931<>CALL     3934<>CALL
KEY2 IN PROCEDURE COMPUDLO
      4009**DCL      4007--PROC     4016<>CALL
KEY2 IN PROCEDURE COMPUDTO
      4031**DCL      4029--PROC     4038<>CALL
KEY2$
      3737**DCL      3753--IMP-PTR  3807<<ASSIGN   3861<<ASSIGN   3882>>CALL     3885>>CALL     3888>>CALL
PL6.E3A0      #005=FKA$COMP File=FKA$ALTKEY.:E05TSI                              TUE 07/29/97 15:32 Page:272
      3891>>CALL     3895>>CALL     3898>>CALL     3901>>CALL     3907>>IF       3908>>IF       3917>>ASSIGN
      3923>>ASSIGN   3931>>CALL     3934>>CALL     3954<<ASSIGN   3965<<ASSIGN   3965>>ASSIGN   3987>>ASSIGN
KEY2_TEMP
      3747**DCL      4016<>CALL     4018<>CALL     4038<>CALL     4040<>CALL
KEYTYPE
      3738**DCL      3805<<ASSIGN   3859<<ASSIGN   3880>>DOCASE   3905>>IF       3959<<ASSIGN   4051>>DOCASE
KFIELD.FIELD
      3730**DCL      3804>>ASSIGN   3858>>ASSIGN   3958>>ASSIGN
LEN
      3740**DCL      3757--IMP-SIZ  3793<<ASSIGN   3794>>IF       3794>>IF       3795>>IF       3795>>IF
      3879<<ASSIGN   3882<>CALL     3885<>CALL     3888<>CALL     3891<>CALL     3895<>CALL     3898<>CALL
      3901<>CALL     3904<<ASSIGN   3906<<ASSIGN   3906>>ASSIGN   3907>>IF       3907>>IF       3908>>IF
      3908>>IF       3915<<ASSIGN   3921<<ASSIGN   3927<<ASSIGN   3931<>CALL     3934<>CALL     3980--IMP-SIZ
      3986>>ASSIGN   3987>>ASSIGN   4055>>ASSIGN   4058>>ASSIGN   4081>>CALLBLT  4110>>CALLBLT  4110>>CALLBLT
      4114>>CALLBLT  4115>>CALLBLT  4115>>CALLBLT
LEN IN PROCEDURE COMPUDLO
      4010**DCL      4007--PROC     4018>>CALL
LEN IN PROCEDURE COMPUDTO
      4032**DCL      4029--PROC     4040>>CALL
ORIG IN PROCEDURE SPLIT
      4076**DCL      4074--PROC     4079>>CALLBLT  4081>>CALLBLT  4110>>CALLBLT  4115>>CALLBLT
POS
      3745**DCL      4013<<ASSIGN   4035<<ASSIGN   4078>>IF       4107>>IF
RECFIELD.DECFIELD.LEN#
      3699**DCL      3879>>ASSIGN
RECFIELD.FIELD
      3698**DCL      3698--REDEF
RECFIELD.FIELD.LEN#
      3698**DCL      3904>>ASSIGN   3915>>ASSIGN   3921>>ASSIGN   3927>>ASSIGN
RECFIELD.FIELD.TYPE#
      3698**DCL      3805>>ASSIGN   3859>>ASSIGN   3959>>ASSIGN
RESULT
      3601**DCL        28--PROC     3777<<ASSIGN   3783<<ASSIGN   3785<<ASSIGN   3796<<ASSIGN   3798<<ASSIGN
      3809>>IF       3816>>IF       3822<<ASSIGN   3824<<ASSIGN   3828>>IF       3834<<ASSIGN   3836<<ASSIGN
      3850--ENTRY    3854>>ASSIGN   3855<<ASSIGN   3882<>CALL     3885<>CALL     3888<>CALL     3891<>CALL
      3895<>CALL     3898<>CALL     3901<>CALL     3909<<ASSIGN   3911<<ASSIGN   3918<>CALL     3924<>CALL
PL6.E3A0      #005=FKA$COMP File=FKA$ALTKEY.:E05TSI                              TUE 07/29/97 15:32 Page:273
      3931<>CALL     3934<>CALL     3961>>IF       3992<<ASSIGN   3994<<ASSIGN
RESULT IN PROCEDURE COMPUDLO
      4011**DCL      4007--PROC     4018<>CALL
RESULT IN PROCEDURE COMPUDTO
      4033**DCL      4029--PROC     4040<>CALL
SECOND$
      3734**DCL      3790<<ASSIGN   3794>>IF       3795>>IF       3807>>ASSIGN   3818<<ASSIGN   3818>>ASSIGN
      3820>>IF       3821>>IF       3830<<ASSIGN   3830>>ASSIGN   3832>>IF       3833>>IF       3853<<ASSIGN
      3861>>ASSIGN   3954>>ASSIGN
SECOND_RECORD
      3600**DCL        28--PROC     3779>>ASSIGN   3790--ASSIGN   3850--ENTRY    3853--ASSIGN
SEGCNT
      3756**DCL      3832>>IF       3832>>IF       3833>>IF       3833>>IF
SET_SIZE
      4049**PROC     3963--CALL
SIGN
      3749**DCL      4085<<ASSIGN   4091<<ASSIGN   4097<<ASSIGN   4102<<ASSIGN   4106>>CALLBLT
SIZE
      3742**DCL      3964>>ASSIGN   3965>>ASSIGN   4055<<ASSIGN   4058<<ASSIGN
SPLIT
      4074**PROC     4014--CALL     4016--CALL     4036--CALL     4038--CALL
STEMP_KEY1 IN PROCEDURE COMPSBIN
      3981**DCL      3982--REDEF    3989>>IF       3991>>IF
STEMP_KEY2 IN PROCEDURE COMPSBIN
      3983**DCL      3984--REDEF    3989>>IF       3991>>IF
TEMP IN PROCEDURE SPLIT
      4075**DCL      4074--PROC     4106<<CALLBLT  4109<<CALLBLT  4110<<CALLBLT  4114<<CALLBLT  4115<<CALLBLT
TEMP1
      3743**DCL      3916<<ASSIGN   3918<>CALL     3922<<ASSIGN   3924<>CALL
TEMP2
      3744**DCL      3917<<ASSIGN   3918<>CALL     3923<<ASSIGN   3924<>CALL
PL6.E3A0      #005=FKA$COMP File=FKA$ALTKEY.:E05TSI                              TUE 07/29/97 15:32 Page:274
              *** CROSS REFERENCE LISTING ***
    **     DENOTES     IDENTIFIER DEFINITION
    <<                 IDENTIFIER'S VALUE SET
    >>                 IDENTIFIER'S VALUE USED
    <>                 IDENTIFIER SET AND/OR USED
    --                 IDENTIFIER REFERENCED
PL6.E3A0      #005=FKA$COMP File=FKA$ALTKEY.:E05TSI                              TUE 07/29/97 15:32 Page:275
              MINI UREF LISTING

FKA$COMP      28**PROC
FKA$COMPKEY    3850**ENTRY
FKA_ALTKEYS$     160**DCL
FKA_BOUND     163**DCL
FKA_CLOSE_DONE     167**DCL
FKA_CMDVAR     166**DCL
FKA_CMDVAR_EXIST     166**DCL
FKA_CMDVAR_SET     166**DCL
FKA_CODE19$     162**DCL
FKA_CODE20$     162**DCL
FKA_DATA_BUF     165**DCL
FKA_DATA_BUF$     165**DCL
FKA_DATA_GRAN     163**DCL
FKA_DCB$     163**DCL
FKA_DUPS     164**DCL
FKA_FIELD_START_DATA     161**DCL
FKA_FILE_OPEN     166**DCL
FKA_INDEX_BUF     164**DCL
FKA_INDEX_BUF$     165**DCL
FKA_INDEX_GRAN     163**DCL
FKA_IRKEYS_DATA     161**DCL
FKA_KFIELD_DATA     162**DCL
FKA_KTPTR$     163**DCL
FKA_M$CLOSE_ERR     167**DCL
FKA_MON     160**DCL
FKA_NUMKEYS     164**DCL
FKA_START$     160**DCL
FKA_UNIQUE     160**DCL
INDX    3754**DCL
LOOP IN PROCEDURE COMPKEY   3956**LABEL
M$ACCT      56**DCL-ENT
M$ACTIVATE      59**DCL-ENT
PL6.E3A0      #005=FKA$COMP File=FKA$ALTKEY.:E05TSI                              TUE 07/29/97 15:32 Page:276
M$ALIB      52**DCL-ENT
M$ASUSER      54**DCL-ENT
M$ATTACH      61**DCL-ENT
M$BADPP      79**DCL-ENT
M$CGCTL      60**DCL-ENT
M$CGINFO      60**DCL-ENT
M$CHECK      41**DCL-ENT
M$CHGUNIT      99**DCL-ENT
M$CLOSE      39**DCL-ENT
M$CLRSTK      97**DCL-ENT
M$CMDVAR     108**DCL-ENT
M$CONFIG      69**DCL-ENT
M$CORRES      44**DCL-ENT
M$CPEXIT      53**DCL-ENT
M$CVM      77**DCL-ENT
M$CVOL      42**DCL-ENT
M$DCLFLD      69**DCL-ENT
M$DEACTIVATE      59**DCL-ENT
M$DELREC      41**DCL-ENT
M$DEQ     106**DCL-ENT
M$DETACH      61**DCL-ENT
M$DEVICE      43**DCL-ENT
M$DISPLAY     106**DCL-ENT
M$DISPRES      46**DCL-ENT
M$DLIB      52**DCL-ENT
M$DRIBBLE      69**DCL-ENT
M$DRTN      97**DCL-ENT
M$DSUSER      54**DCL-ENT
M$ENQ     105**DCL-ENT
M$EOM      64**DCL-ENT
M$ERASE      70**DCL-ENT
M$ERR      51**DCL-ENT
M$ERRMSG     102**DCL-ENT
M$EVENT      94**DCL-ENT
M$EXHUME     103**DCL-ENT
M$EXIT      51**DCL-ENT
PL6.E3A0      #005=FKA$COMP File=FKA$ALTKEY.:E05TSI                              TUE 07/29/97 15:32 Page:277
M$EXTEND      43**DCL-ENT
M$FDP      75**DCL-ENT
M$FDS      74**DCL-ENT
M$FEBOOT      67**DCL-ENT
M$FECTL      68**DCL-ENT
M$FEDUMP      67**DCL-ENT
M$FID     102**DCL-ENT
M$FINDPROC      56**DCL-ENT
M$FSUSER      54**DCL-ENT
M$FVP      76**DCL-ENT
M$FWCG      60**DCL-ENT
M$GBPL      80**DCL-ENT
M$GDDL      76**DCL-ENT
M$GDP      75**DCL-ENT
M$GDS      74**DCL-ENT
M$GETDCB      45**DCL-ENT
M$GETMOUSE      85**DCL-ENT
M$GETPM      86**DCL-ENT
M$GJOB     104**DCL-ENT
M$GLINEATTR      64**DCL-ENT
M$GOODPP      79**DCL-ENT
M$GPLATEN      72**DCL-ENT
M$GPROMPT      71**DCL-ENT
M$GTRMATTR      65**DCL-ENT
M$GTRMCTL      63**DCL-ENT
M$GTRMTAB      66**DCL-ENT
M$GVP      75**DCL-ENT
M$HELP     102**DCL-ENT
M$INT      94**DCL-ENT
M$INTRTN      55**DCL-ENT
M$IOQ      90**DCL-ENT
M$JOBSTATS     104**DCL-ENT
M$KEYIN      44**DCL-ENT
M$LDEV      39**DCL-ENT
M$LDTRC      52**DCL-ENT
M$LIMIT      45**DCL-ENT
PL6.E3A0      #005=FKA$COMP File=FKA$ALTKEY.:E05TSI                              TUE 07/29/97 15:32 Page:278
M$LINES      44**DCL-ENT
M$LINK      51**DCL-ENT
M$MADMUCK      47**DCL-ENT
M$MAKUSER      78**DCL-ENT
M$MBS      46**DCL-ENT
M$MDFFLD      70**DCL-ENT
M$MERC      95**DCL-ENT
M$MERCS      96**DCL-ENT
M$MIRROR      90**DCL-ENT
M$MONINFO     107**DCL-ENT
M$MPL      80**DCL-ENT
M$NODEINFO      71**DCL-ENT
M$NXTUSR     105**DCL-ENT
M$OCMSG     103**DCL-ENT
M$OLAY      51**DCL-ENT
M$OPEN      39**DCL-ENT
M$PAS      80**DCL-ENT
M$PATHCON     103**DCL-ENT
M$PDS      74**DCL-ENT
M$PFIL      41**DCL-ENT
M$PLATEN      65**DCL-ENT
M$PRECORD      43**DCL-ENT
M$PROCNAME      56**DCL-ENT
M$PROFILE      67**DCL-ENT
M$PROMPT      63**DCL-ENT
M$RACST      47**DCL-ENT
M$RDSYSLOG      88**DCL-ENT
M$READ      40**DCL-ENT
M$RELDCB      45**DCL-ENT
M$RELRES      46**DCL-ENT
M$RELSTARF      48**DCL-ENT
M$REM      48**DCL-ENT
M$RENV      95**DCL-ENT
M$REQUIRE      47**DCL-ENT
M$RETRY      96**DCL-ENT
M$RETRYS      96**DCL-ENT
PL6.E3A0      #005=FKA$COMP File=FKA$ALTKEY.:E05TSI                              TUE 07/29/97 15:32 Page:279
M$REW      42**DCL-ENT
M$RLSFLD      70**DCL-ENT
M$RPRIV      98**DCL-ENT
M$RSPP      77**DCL-ENT
M$RSWITCH      99**DCL-ENT
M$RUE     105**DCL-ENT
M$SAD      78**DCL-ENT
M$SAVE      54**DCL-ENT
M$SCON      55**DCL-ENT
M$SCREECH      53**DCL-ENT
M$SENV      95**DCL-ENT
M$SETFMA      39**DCL-ENT
M$SETFP      68**DCL-ENT
M$SINPUT      66**DCL-ENT
M$SLCFLD      71**DCL-ENT
M$SMOUSE      85**DCL-ENT
M$SMPRT      77**DCL-ENT
M$SPRIV      98**DCL-ENT
M$SSC      78**DCL-ENT
M$SSWITCH      98**DCL-ENT
M$STATE     107**DCL-ENT
M$STD      79**DCL-ENT
M$STIMER      93**DCL-ENT
M$STLPP      76**DCL-ENT
M$STRAP      93**DCL-ENT
M$STRMATTR      65**DCL-ENT
M$STRMCTL      63**DCL-ENT
M$STRMTAB      66**DCL-ENT
M$SYMBIO     104**DCL-ENT
M$SYSCON      90**DCL-ENT
M$SYSID     108**DCL-ENT
M$TDCLOSE      89**DCL-ENT
M$TDIO      89**DCL-ENT
M$TDOPEN      88**DCL-ENT
M$TDREQCPU      89**DCL-ENT
M$TEMPWROC      83**DCL-ENT
PL6.E3A0      #005=FKA$COMP File=FKA$ALTKEY.:E05TSI                              TUE 07/29/97 15:32 Page:280
M$TIME     106**DCL-ENT
M$TRAP      93**DCL-ENT
M$TRMISC      68**DCL-ENT
M$TRMPRG      64**DCL-ENT
M$TRTN      97**DCL-ENT
M$TRUNC      40**DCL-ENT
M$TTIMER      93**DCL-ENT
M$UC      63**DCL
M$UMPL      80**DCL-ENT
M$UNFID     102**DCL-ENT
M$UNLATCH      59**DCL-ENT
M$UNSHARE      56**DCL-ENT
M$USRFIELD      99**DCL-ENT
M$VIRTUAL      74**DCL-ENT
M$WAIT      97**DCL-ENT
M$WEOF      42**DCL-ENT
M$WRITE      40**DCL-ENT
M$WRSYSLOG      88**DCL-ENT
M$XCON      94**DCL-ENT
M$XCONRTN      55**DCL-ENT
M$XEQTIME     107**DCL-ENT
M$XFLUSH      48**DCL-ENT
M$XMOUSE      85**DCL-ENT
M$XXX      51**DCL-ENT
M$YC      53**DCL-ENT

PL6.E3A0      #006=FKA$INPUT File=FKA$ALTKEY.:E05TSI                             TUE 07/29/97 15:32 Page:281
     1305        1        /*T***********************************************************/
     1306        2        /*T*                                                         */
     1307        3        /*T* Copyright (c) Bull HN Information Systems Inc., 1997    */
     1308        4        /*T*                                                         */
     1309        5        /*T***********************************************************/
     1310        6        /*F*     NAME:     FKA$INPUT
     1311        7                 PURPOSE:  To build a record, and pass it to SORT
     1312        8        */
     1313        9        /*D*     NAME:     FKA$INPUT
     1314       10                 INPUT:    None
     1315       11                 OUTPUT:   SORT_REC - record to pass to SORT
     1316       12                           RECSIZE - size of SORT_REC
     1317       13                 DESCRIPTION:
     1318       14
     1319       15                      Because SORT_REC has such an odd format, it is
     1320       16                 not possible to build a single structure to access it.
     1321       17                 It is a series of based variables strung together.
     1322       18                 The record looks something like:
     1323       19
     1324       20                 +---------+---------------------------+
     1325       21                 | index   | key                       |
     1326       22                 +---------+
     1327       23                               .
     1328       24                               .
     1329       25                 +------------------------------------+
     1330       26                 |       ID                           |
     1331       27                 +------------------------------------+
     1332       28                 |   seg count      |                 |
     1333       29                 +------------------+                 |
     1334       30                 |           miseg  +-----------------+
     1335       31                 |                  |
     1336       32                 +------------------+
     1337       33
     1338       34                 index - one byte, the index number of this key
     1339       35                 key - variable size, in bytes
     1340       36                 ID - 4 bytes, record ID
     1341       37                 seg count - 2 bytes, identifies a specific segment in a list
PL6.E3A0      #006=FKA$INPUT File=FKA$ALTKEY.:E05TSI                             TUE 07/29/97 15:32 Page:282
     1342       38                             of segments for a record
     1343       39                 miseg - two words, actual segment for this record, or record
     1344       40                         fragment
     1345       41
     1346       42                      NXTINDX will build the proper record.  Set the record
     1347       43                 size, then return.
     1348       44        */
     1349       45         %EJECT;
PL6.E3A0      #006=FKA$INPUT File=FKA$ALTKEY.:E05TSI                             TUE 07/29/97 15:32 Page:283
     1350       46        FKA$INPUT: PROC(SORT_REC, RECSIZE) ALTRET;
     1351       47        /* */
     1352       48         %INCLUDE CP_6;
     1353      129         %INCLUDE CP_6_SUBS;
     1354      669         %INCLUDE FM$GRAN;
     1355      738         %INCLUDE FM$FIT;
     1356      959         %INCLUDE FK_DATA_C;
     1357     1036         %INCLUDE FKA_DATA_R;
     1358     1052         %INCLUDE FM_FIELD_C;
     1359     1093         %INCLUDE B$OBJECT_C;
     1360     4523        /* */
     1361     4524    1     DCL SORT_REC CHAR(FKA_RECSIZE);
     1362     4525    1     DCL 1 SORT_REC_BIT REDEF SORT_REC,
     1363     4526    1            2 * CHAR(FKA_RECSIZE);
     1364     4527    1     DCL RECSIZE UBIN;
     1365     4528        /* */
     1366     4529         %FPT_READ(FPTN=READ_DATA, BUF=FKA_DATA_BUF, KEY=FKA_DATA_GRAN,
     1367     4530         DCB=M$SI, KEYS=YES, STCLASS=CONSTANT);
     1368     4569         %FPT_READ(FPTN=READ_INDEX, BUF=FKA_INDEX_BUF, KEY=FKA_INDEX_GRAN,
     1369     4570         KEYS=YES, DCB=M$SI, STCLASS=CONSTANT);
     1370     4609         %F$DCB(DCBN=F$DCB, STCLASS="BASED(FKA_DCB$)");
     1371     4666        /* */
     1372     4667    1     DCL M$SI DCB;
     1373     4668        /* */
     1374     4669    1     DCL SEGX SBIN STATIC INIT(0);
     1375     4670    1     DCL SEG$ PTR STATIC;
     1376     4671    1     DCL SEGCNT SBIN STATIC INIT(0);
     1377     4672    1     DCL CRECX SBIN STATIC INIT(0);
     1378     4673    1     DCL INDEX# SBIN STATIC INIT(0);
     1379     4674    1     DCL KEY$ PTR;
     1380     4675    1     DCL ENDGRAN SBIN;
     1381     4676    1     DCL LASTSEG SBIN;
     1382     4677    1     DCL SIZE SBIN;
     1383     4678    1     DCL CHARS CHAR(SIZE) BASED;
     1384     4679    1     DCL G$ PTR;
     1385     4680    1     DCL IRKEY$ PTR;
     1386     4681    1     DCL I SBIN;
PL6.E3A0      #006=FKA$INPUT File=FKA$ALTKEY.:E05TSI                             TUE 07/29/97 15:32 Page:284
     1387     4682    1     DCL ODD SBIN;
     1388     4683    1     DCL FN SBIN;
     1389     4684    1     DCL REC$ PTR;
     1390     4685    1     DCL F$ PTR;
     1391     4686    1     DCL LEN SBIN;
     1392     4687    1     DCL 1 BYT(0:0) CALIGNED BASED,
     1393     4688    1            2 * BIT(1) UNAL,
     1394     4689    1            2 UPPER UBIN(4) UNAL,
     1395     4690    1            2 LOWER UBIN(4) UNAL;
     1396     4691        /* */
     1397     4692    1     DCL FM_FRZERO UBIN SYMREF;
     1398     4693        /* */
     1399     4694    1     DCL SORT_REC$ PTR;
     1400     4695    1     DCL SORT_INDX UBIN(9) CALIGNED BASED(SORT_REC$);
     1401     4696    1     DCL 1 SORT_ID CALIGNED BASED(SORT_REC$),
     1402     4697    1            2 DA UBIN(26) UNAL,
     1403     4698    1            2 GX UBIN(10) UNAL;
     1404     4699    1     DCL SORT_SEGCNT UBIN(18) CALIGNED BASED(SORT_REC$);
     1405     4700    1     DCL SORT_MISEG BIT(72) CALIGNED BASED(SORT_REC$);
     1406     4701        /* */
     1407     4702         %FM$GRAN(BASED="BASED(FKA_INDEX_BUF$)");
     1408     4706         %FM$KEYTBL(BASED="BASED(FKA_KTPTR$)");
     1409     4709         %FM$MISEG(BASED="BASED(SEG$)");
     1410     4713         %FM$MISEG(BASED="STATIC", FM$MISEG=FM_MISEG);
     1411     4717         %VLP_RECFIELD(FPTN=RECFIELD, STCLASS="BASED(FKA_RECFIELD$)");
     1412     4761         %FM$FIELD_START(FPTN=FIELD_START, STCLASS="BASED(FKA_START$)");
     1413     4783         %FITALTKEYS(BASED="BASED(FKA_ALTKEYS$)");
     1414     4789         %FMG$IRKEYS(FPTN=IRKEYS, STCLASS="BASED(FKA_IRKEYS$)");
     1415     4796         %FMG$KFIELD(FPTN=KFIELD, STCLASS="BASED(FKA_KFIELD$)");
     1416     4799         %FM$KEYENT(BASED="BASED(KEY$)");
     1417     4802         %FM$IRENT(BASED="BASED(KEY$)");
     1418     4805         %VREBL_DATATYPES;
     1419     4880        /* */
     1420     4881    1     DCL FKA$ABORT ENTRY;
     1421     4882        /* */
     1422     4883    1           CALL NXTINDX ALTRET(EOF);
     1423     4884    1           RECSIZE=FKA_RECSIZE;
PL6.E3A0      #006=FKA$INPUT File=FKA$ALTKEY.:E05TSI                             TUE 07/29/97 15:32 Page:285
     1424     4885
     1425     4886    1           RETURN;
     1426     4887    1   EOF:    ALTRETURN;
     1427     4888         %EJECT;
PL6.E3A0      #006=FKA$INPUT File=FKA$ALTKEY.:E05TSI                             TUE 07/29/97 15:32 Page:286
     1428     4889        /*I*     NAME:     BUILD_IREL
     1429     4890                 PURPOSE:  To build an IREL key
     1430     4891                 DESCRIPTION:
     1431     4892
     1432     4893                      Set up a pointer to the current position in the
     1433     4894                 output record.  Set up a pointer to the record.
     1434     4895
     1435     4896                      Now loop through the key definition.  Move the field
     1436     4897                 from the record to the key.
     1437     4898
     1438     4899                      Finally, increment the output record pointer to
     1439     4900                 the end of the key.
     1440     4901        */
     1441     4902         %EJECT;
PL6.E3A0      #006=FKA$INPUT File=FKA$ALTKEY.:E05TSI                             TUE 07/29/97 15:32 Page:287
     1442     4903    1   BUILD_IREL: PROC;
     1443     4904    2     DCL CHRS CHAR(LEN) BASED;
     1444     4905        /* */
     1445     4906    2              IRKEY$=SORT_REC$;
     1446     4907    2              REC$=PINCRW(FKA_DATA_BUF$, FM_MISEG.GX);
     1447     4908
     1448     4909    3              DO I=0 TO IRKEYS.K.NFIELDS(INDEX#)-1;
     1449     4910    3                 FN=KFIELD.FIELD(I+IRKEYS.K.FIRSTFIELD(INDEX#));
     1450     4911
     1451     4912    4                 DO CASE(RECFIELD.FIELD.TYPE#(FN));
     1452     4913    4                    CASE(%UDLS_DATATYPE, %UDTS_DATATYPE, %UDNS_DATATYPE,
     1453     4914    4                     %UDLO_DATATYPE, %UDTO_DATATYPE, %UDFLT_DATATYPE,
     1454     4915    4                     %PDLA_DATATYPE, %PDTA_DATATYPE, %PDNS_DATATYPE,
     1455     4916    4                     %PDTE_DATATYPE, %PDLE_DATATYPE, %PDFLT_DATATYPE,
     1456     4917    4                     %DATE_DATATYPE, %TIME_DATATYPE);
     1457     4918    4                       LEN=RECFIELD.DECFIELD.LEN#(FN);
     1458     4919
     1459     4920    4                    CASE(%SBIN_DATATYPE, %UBIN_DATATYPE, %UTS_DATATYPE);
     1460     4921    4                       LEN=RECFIELD.FIELD.LEN#(FN)/9;
     1461     4922
     1462     4923    4                    CASE(ELSE);
     1463     4924    4                       LEN=RECFIELD.FIELD.LEN#(FN);
     1464     4925
     1465     4926    4                    END;                   /* Case                               */
     1466     4927
     1467     4928    4                 DO CASE(RECFIELD.FIELD.TYPE#(FN));
     1468     4929    4                    CASE(%PDLA_DATATYPE, %PDTA_DATATYPE, %PDNS_DATATYPE,
     1469     4930    4                     %PDFLT_DATATYPE, %PDLE_DATATYPE, %PDTE_DATATYPE,
     1470     4931    4                     %DATE_DATATYPE, %TIME_DATATYPE);
     1471     4932    4                       CALL BUILD_NIBFIELD;
     1472     4933    4                       IRKEY$=PINCRC(IRKEY$, (LEN+1)/2);
     1473     4934
     1474     4935    4                    CASE(ELSE);
     1475     4936    4                       F$=PINCRC(REC$, FIELD_START.OFFSET(FN)/9);
     1476     4937    4                       IRKEY$->CHRS=F$->CHRS;
     1477     4938    4                       IRKEY$=PINCRC(IRKEY$, LEN);
     1478     4939    4                    END;                   /* CASE                               */
PL6.E3A0      #006=FKA$INPUT File=FKA$ALTKEY.:E05TSI                             TUE 07/29/97 15:32 Page:288
     1479     4940    3                 END;                      /* DO I                               */
     1480     4941    2              SORT_REC$=PINCRC(SORT_REC$, FKA_KEYSIZE);
     1481     4942
     1482     4943    2              RETURN;
     1483     4944    2      END BUILD_IREL;
     1484     4945         %EJECT;
PL6.E3A0      #006=FKA$INPUT File=FKA$ALTKEY.:E05TSI                             TUE 07/29/97 15:32 Page:289
     1485     4946        /*I*     NAME:     BUILD_NIBFIELD
     1486     4947                 PURPOSE:  To build a nibble field
     1487     4948                 DESCRIPTION:
     1488     4949
     1489     4950                      This moves data, one nibble at a time, from the
     1490     4951                 record to the key.  ODD indicates whether the nibble
     1491     4952                 field in the record is on an odd or even nibble boundary.
     1492     4953        */
     1493     4954         %EJECT;
PL6.E3A0      #006=FKA$INPUT File=FKA$ALTKEY.:E05TSI                             TUE 07/29/97 15:32 Page:290
     1494     4955    1   BUILD_NIBFIELD: PROC;
     1495     4956    2     DCL TEMP UBIN(4);
     1496     4957    2     DCL I UBIN;
     1497     4958        /* */
     1498     4959    2              F$=PINCRC(REC$, FIELD_START.OFFSET(FN)/9);
     1499     4960    2              ODD=MOD(FIELD_START.OFFSET(FN), 9);
     1500     4961    2              IF ODD > 0 THEN
     1501     4962    2                 ODD=1;
     1502     4963
     1503     4964    3              DO I=0 TO LEN-1;
     1504     4965    3                 IF MOD(I+ODD, 2) = 1 THEN
     1505     4966    3                    TEMP=F$->BYT.LOWER((I+ODD)/2);
     1506     4967    3                 ELSE
     1507     4968    3                    TEMP=F$->BYT.UPPER((I+ODD)/2);
     1508     4969
     1509     4970    3                 IF MOD(I,2) = 1 THEN
     1510     4971    3                    IRKEY$->BYT.LOWER(I/2)=TEMP;
     1511     4972    3                 ELSE
     1512     4973    3                    IRKEY$->BYT.UPPER(I/2)=TEMP;
     1513     4974    3                 END;                      /* DO I                               */
     1514     4975
     1515     4976    2              RETURN;
     1516     4977    2      END BUILD_NIBFIELD;
     1517     4978         %EJECT;
PL6.E3A0      #006=FKA$INPUT File=FKA$ALTKEY.:E05TSI                             TUE 07/29/97 15:32 Page:291
     1518     4979        /*I*     NAME:     BUILD_REC
     1519     4980                 PURPOSE:  To build a record to hand to SORT
     1520     4981                 DESCRIPTION:
     1521     4982
     1522     4983                      First, get the data granule that the record is
     1523     4984                 on.  We need it to build the key.
     1524     4985
     1525     4986                      Zero out the output record.  Set the index to
     1526     4987                 the current index that we are processing, and increment
     1527     4988                 the pointer to point to the key portion.
     1528     4989
     1529     4990                      If this is an indexed file, then just move the
     1530     4991                 character information from the record to the key.
     1531     4992                 Otherwise, if this is an IREL file, we call a subroutine
     1532     4993                 to build the key.
     1533     4994
     1534     4995                      Now store the remaining information, the ID,
     1535     4996                 SEGCNT, and MISEG.
     1536     4997        */
     1537     4998         %EJECT;
PL6.E3A0      #006=FKA$INPUT File=FKA$ALTKEY.:E05TSI                             TUE 07/29/97 15:32 Page:292
     1538     4999    1   BUILD_REC: PROC;
     1539     5000        /* */
     1540     5001    2              IF FM_MISEG.GDA-FM_FRZERO ~= FKA_DATA_GRAN THEN
     1541     5002    3              DO;                          /* READ DATA GRANULE                  */
     1542     5003    3                 FKA_DATA_GRAN=FM_MISEG.GDA-FM_FRZERO;
     1543     5004    3                 CALL M$READ(READ_DATA) ALTRET(ERR);
     1544     5005    3                 END;                      /* READ DATA GRANULE                  */
     1545     5006
     1546     5007    2              SORT_REC_BIT='0'B;
     1547     5008    2              SORT_REC$=ADDR(SORT_REC);
     1548     5009    2              SORT_INDX=INDEX#;
     1549     5010    2              SORT_REC$=PINCRC(SORT_REC$, 1);
     1550     5011
     1551     5012    2              IF F$DCB.ORG# = %INDEXED# THEN
     1552     5013    3              DO;                          /* INDEXED FILE                       */
     1553     5014    3                 SIZE=FITALTKEYS.K.KEYL(INDEX#);
     1554     5015    3                 G$=PINCRC(FKA_DATA_BUF$,
     1555     5016    3                     FM_MISEG.GX*4+FITALTKEYS.K.KEYX(INDEX#));
     1556     5017    3                 SORT_REC$->CHARS=G$->CHARS;
     1557     5018    3                 SORT_REC$=PINCRC(SORT_REC$, FKA_KEYSIZE);
     1558     5019    3                 END;                      /* INDEXED FILE                       */
     1559     5020    2              ELSE
     1560     5021    2                 CALL BUILD_IREL;
     1561     5022
     1562     5023    2              SORT_ID.DA=FM_MISEG.GDA;
     1563     5024    2              SORT_ID.GX=FM_MISEG.GX;
     1564     5025    2              SORT_REC$=PINCRC(SORT_REC$, 4);
     1565     5026    2              SORT_SEGCNT=SEGCNT;
     1566     5027    2              SORT_REC$=PINCRC(SORT_REC$, 2);
     1567     5028    2              SORT_MISEG=FM$MISEG;
     1568     5029
     1569     5030    2              RETURN;
     1570     5031    2   ERR:       CALL FKA$ABORT;
     1571     5032    2      END BUILD_REC;
     1572     5033         %EJECT;
PL6.E3A0      #006=FKA$INPUT File=FKA$ALTKEY.:E05TSI                             TUE 07/29/97 15:32 Page:293
     1573     5034        /*I*     NAME:     FLINK
     1574     5035                 PURPOSE:  To flink to the next index granule
     1575     5036                 DESCRIPTION:
     1576     5037
     1577     5038                      If there isn't one, altret.
     1578     5039
     1579     5040                      Otherwise remember the new FLINK, read the next
     1580     5041                 granule, and set up some variables.
     1581     5042        */
     1582     5043         %EJECT;
PL6.E3A0      #006=FKA$INPUT File=FKA$ALTKEY.:E05TSI                             TUE 07/29/97 15:32 Page:294
     1583     5044    1   FLINK:     PROC ALTRET;
     1584     5045        /* */
     1585     5046    2              IF FM$GRAN.FLINK = 0 THEN
     1586     5047    2                 ALTRETURN;
     1587     5048
     1588     5049    2              FKA_INDEX_GRAN=FM$GRAN.FLINK-FM_FRZERO;
     1589     5050    2              CALL M$READ(READ_INDEX) ALTRET(ERR);
     1590     5051
     1591     5052    2              FKA_KTPTR$=PINCRW(FKA_INDEX_BUF$, FM$GRAN.FCEX);
     1592     5053    2              CRECX=0;
     1593     5054    2              FKA_BOUND=FM$KEYTBL(0);
     1594     5055
     1595     5056    2              RETURN;
     1596     5057    2   ERR:       CALL FKA$ABORT;
     1597     5058    2      END FLINK;
     1598     5059         %EJECT;
PL6.E3A0      #006=FKA$INPUT File=FKA$ALTKEY.:E05TSI                             TUE 07/29/97 15:32 Page:295
     1599     5060        /*I*     NAME:     NXTINDX
     1600     5061                 PURPOSE:  To build the record for the next index
     1601     5062                 DESCRIPTION:
     1602     5063
     1603     5064                      If this is the first time through, or we have
     1604     5065                 taken care of all of the indexes, then either get
     1605     5066                 the next segment or key.  Otherwise, we have a
     1606     5067                 new index, same record.
     1607     5068
     1608     5069                      The rather convoluted IF statement basically
     1609     5070                 tries just to build indexes that are not UNIQUE.
     1610     5071                 If an index is UNIQUE, then we ignore LOAD and build
     1611     5072                 them on the fly in FMG$KEYED.
     1612     5073        */
     1613     5074         %EJECT;
PL6.E3A0      #006=FKA$INPUT File=FKA$ALTKEY.:E05TSI                             TUE 07/29/97 15:32 Page:296
     1614     5075    1   NXTINDX:   PROC ALTRET;
     1615     5076        /* */
     1616     5077    3   LOOP:      DO WHILE('1'B);
     1617     5078    3                 IF INDEX#+1 >= FKA_NUMKEYS OR INDEX# = 0 THEN
     1618     5079    4                 DO;                       /* GET NEXT KEY                       */
     1619     5080    4                    INDEX#=1;
     1620     5081    4                    IF SEGX > 0 THEN
     1621     5082    4                       CALL NXTSEG ALTRET(EOF);
     1622     5083    4                    ELSE
     1623     5084    4                       CALL NXTKEY ALTRET(EOF);
     1624     5085    4                    END;                   /* GET NEXT KEY                       */
     1625     5086    3                 ELSE
     1626     5087    3                    INDEX#=INDEX#+1;
     1627     5088
     1628     5089    3                 IF (F$DCB.ORG# = %INDEXED# AND
     1629     5090    3                     (FITALTKEYS.UNIQUEBLD OR
     1630     5091    3                     NOT FITALTKEYS.K.UNIQUE(INDEX#))) OR
     1631     5092    3                     (F$DCB.ORG# = %IREL# AND
     1632     5093    3                     (IRKEYS.UNIQUEBLD OR
     1633     5094    3                     NOT IRKEYS.K.UNIQUE(INDEX#))) THEN
     1634     5095    4                 DO;                       /* BUILD RECORD                       */
     1635     5096    4                    CALL BUILD_REC;
     1636     5097    4                    EXIT LOOP;
     1637     5098    4                    END;                   /* BUILD RECORD                       */
     1638     5099
     1639     5100    3                 END;                      /* WHILE                              */
     1640     5101
     1641     5102    2              RETURN;
     1642     5103    2   EOF:       ALTRETURN;
     1643     5104    2      END NXTINDX;
     1644     5105         %EJECT;
PL6.E3A0      #006=FKA$INPUT File=FKA$ALTKEY.:E05TSI                             TUE 07/29/97 15:32 Page:297
     1645     5106        /*I*     NAME:     NXTKEY
     1646     5107                 PURPOSE:  To position to the next key
     1647     5108                 DESCRIPTION:
     1648     5109
     1649     5110                      Loop until we find a non-deleted key.  If this
     1650     5111                 is the end of the granule, then try the next granule.
     1651     5112
     1652     5113                      Build a pointer to the MISEG, and save the MISEG
     1653     5114                 away.
     1654     5115        */
     1655     5116         %EJECT;
PL6.E3A0      #006=FKA$INPUT File=FKA$ALTKEY.:E05TSI                             TUE 07/29/97 15:32 Page:298
     1656     5117    1   NXTKEY:    PROC ALTRET;
     1657     5118        /* */
     1658     5119    3              DO UNTIL (NOT FM$KEYENT.D);
     1659     5120    3                 SEGX=0;
     1660     5121    3                 SEGCNT=0;
     1661     5122    3                 CRECX=CRECX+1;
     1662     5123
     1663     5124    4                 DO WHILE(CRECX > FM$GRAN.KEYCNT);
     1664     5125    4                    CALL FLINK ALTRET(EOF);
     1665     5126    4                    CRECX=1;
     1666     5127    4                    END;
     1667     5128
     1668     5129    3                 IF CRECX >= FKA_BOUND THEN
     1669     5130    3                    SEGX=FM$KEYTBL(CRECX)+512;
     1670     5131    3                 ELSE
     1671     5132    3                    SEGX=FM$KEYTBL(CRECX);
     1672     5133    3                 KEY$=PINCRW(FKA_INDEX_BUF$, SEGX);
     1673     5134    3                 END;                      /* UNTIL                              */
     1674     5135
     1675     5136    2              IF F$DCB.ORG# = %IREL# THEN
     1676     5137    2                 SEGX=SEGX+(FM$IRENT.KLB+5)/4;
     1677     5138    2              ELSE
     1678     5139    2                 SEGX=SEGX+(FM$KEYENT.KLB+4)/4;
     1679     5140
     1680     5141    2              SEG$=PINCRW(FKA_INDEX_BUF$, SEGX);
     1681     5142    2              FM_MISEG=FM$MISEG;
     1682     5143    2              FM$MISEG.FAK='1'B;
     1683     5144
     1684     5145    2              RETURN;
     1685     5146    2   EOF:       ALTRETURN;
     1686     5147    2      END NXTKEY;
     1687     5148         %EJECT;
PL6.E3A0      #006=FKA$INPUT File=FKA$ALTKEY.:E05TSI                             TUE 07/29/97 15:32 Page:299
     1688     5149        /*I*     NAME:     NXTSEG
     1689     5150                 PURPOSE:  To position to the next segment
     1690     5151                 DESCRIPTION:
     1691     5152
     1692     5153                      Figure out where the end of the granule is.
     1693     5154                 Increment the segment index by two.  If we fell
     1694     5155                 off the end of the granule, then read the next
     1695     5156                 granule.
     1696     5157
     1697     5158                      Now find the last segment in the current key.
     1698     5159                 If we went beyond that, then there are no more
     1699     5160                 segments, so get the next key.
     1700     5161        */
     1701     5162         %EJECT;
PL6.E3A0      #006=FKA$INPUT File=FKA$ALTKEY.:E05TSI                             TUE 07/29/97 15:32 Page:300
     1702     5163    1   NXTSEG:    PROC ALTRET;
     1703     5164        /* */
     1704     5165    2              ENDGRAN=FM$GRAN.NAVX;
     1705     5166
     1706     5167    2              SEGX=SEGX+2;
     1707     5168    2              SEGCNT=SEGCNT+1;
     1708     5169
     1709     5170    3              DO WHILE (SEGX >= ENDGRAN);
     1710     5171    3                 CALL FLINK ALTRET(EOF);
     1711     5172    3                 CRECX=0;
     1712     5173    3                 SEGX=FM$GRAN.FCEX+SIZEW(FM$KEYTBL);
     1713     5174    3                 ENDGRAN=FM$GRAN.NAVX;
     1714     5175    3                 END;                      /* WHILE                              */
     1715     5176
     1716     5177    2              IF CRECX < FM$GRAN.KEYCNT THEN
     1717     5178    3              DO;                          /* LAST SEG IN KEY                    */
     1718     5179    3                 IF CRECX+1 < FKA_BOUND THEN
     1719     5180    3                    LASTSEG=FM$KEYTBL(CRECX+1);
     1720     5181    3                 ELSE
     1721     5182    3                    LASTSEG=FM$KEYTBL(CRECX+1)+512;
     1722     5183    3                 END;                      /* LAST SEG IN KEY                    */
     1723     5184    2              ELSE
     1724     5185    2                 LASTSEG=ENDGRAN;
     1725     5186
     1726     5187    2              IF SEGX >= LASTSEG THEN
     1727     5188    3              DO;                          /* NO MORE                            */
     1728     5189    3                 CALL NXTKEY ALTRET(EOF);
     1729     5190    3                 END;                      /* NO MORE                            */
     1730     5191
     1731     5192    2              SEG$=PINCRW(FKA_INDEX_BUF$, SEGX);
     1732     5193
     1733     5194    2              RETURN;
     1734     5195    2   EOF:       ALTRETURN;
     1735     5196    2      END NXTSEG;
     1736     5197    1   END FKA$INPUT;
     1737     5198         %EOD;

PL6.E3A0      #006=FKA$INPUT File=FKA$ALTKEY.:E05TSI                             TUE 07/29/97 15:32 Page:301
--  Include file information  --

   B$OBJECT_C.:E05TOU  is referenced.
   FM_FIELD_C.:E05TOU  is referenced.
   FKA_DATA_R.:E05TOU  cannot be made into a system file and is referenced.
   FK_DATA_C.:E05TOU  is referenced.
   FM$FIT.:E05TOU  is referenced.
   FM$GRAN.:E05TOU  is referenced.
   CP_6_SUBS.:E05TOU  is referenced.
   CP_6.:E05TOU  cannot be made into a system file and is referenced.
   B$JIT_C.:E05TOU  was found in the system file and is never referenced.
   CP_6_C.:E05TOU  was found in the system file and is referenced.
      No diagnostics issued in procedure FKA$INPUT.

   Procedure FKA$INPUT requires 613 words for executable code.
   Procedure FKA$INPUT requires 30 words of local(AUTO) storage.

PL6.E3A0      #006=FKA$INPUT File=FKA$ALTKEY.:E05TSI                             TUE 07/29/97 15:32 Page:302

 Object Unit name= FKA$INPUT                                  File name= FKA$ALTKEY.:E05TOU
 UTS= JUL 29 '97 15:32:47.36 TUE                              Compiler= PL-6/E31         Sev=      00
 SharedLib= :SHARED_SYSTEM                                    Alt SharedLib=


    ****  Control sections  ****

 Sect   Type Bound  Init  Size OctSiz  Section name(segment info)
    0   DCB   even  none     0      0  M$UC
    1  RoData even  UTS     28     34  FKA$INPUT
    2   DCB   even  none     0      0  M$SI
    3   Data  even  none     7      7  FKA$INPUT
    4   Proc  even  none   613   1145  FKA$INPUT

    ****  Entry defs  ****

                              Check   Calling
                             calling  sequence
  Sect OctLoc Primary Altret sequence   type   Parms  Name
     4      0   yes    yes     yes      Std        2  FKA$INPUT

  ****  Entry refs  ****

         Check        Calling
        calling       sequence
Altret sequence SRef   type   Args  Name
         yes           Std       0 FKA$ABORT
                       nStd      0 X66_AUTO_2
                       nStd      0 X66_ARET
                       nStd      0 X66_AALT
                       Std       0 B_CONSPOOL_D
PL6.E3A0      #006=FKA$INPUT File=FKA$ALTKEY.:E05TSI                             TUE 07/29/97 15:32 Page:303

  ****  Data refs  ****

  Flags:  r = read only, s = secondary
Flgs Name                             Flgs Name                             Flgs Name
     M$UC                                  FKA_ALTKEYS$                          FKA_RECFIELD$
r    FKA_START$                       r    FKA_IRKEYS$                      r    FKA_KFIELD$
     FKA_INDEX_GRAN                        FKA_DATA_GRAN                         FKA_KTPTR$
     FKA_BOUND                             FKA_DCB$                              FKA_NUMKEYS
     FKA_RECSIZE                           FKA_KEYSIZE                           FKA_INDEX_BUF
r    FKA_INDEX_BUF$                        FKA_DATA_BUF                     r    FKA_DATA_BUF$
     M$SI                                  FM_FRZERO                             B_VECTNIL

  ****  Segment refs  ****

  Flags:  r = read only, s = secondary
Flgs Name                             Flgs Name                             Flgs Name
     ISSID                                 NULLSID
PL6.E3A0      #006=FKA$INPUT File=FKA$ALTKEY.:E05TSI                             TUE 07/29/97 15:32 Page:304


     1305        1        /*T***********************************************************/
     1306        2        /*T*                                                         */
     1307        3        /*T* Copyright (c) Bull HN Information Systems Inc., 1997    */
     1308        4        /*T*                                                         */
     1309        5        /*T***********************************************************/
     1310        6        /*F*     NAME:     FKA$INPUT
     1311        7                 PURPOSE:  To build a record, and pass it to SORT
     1312        8        */
     1313        9        /*D*     NAME:     FKA$INPUT
     1314       10                 INPUT:    None
     1315       11                 OUTPUT:   SORT_REC - record to pass to SORT
     1316       12                           RECSIZE - size of SORT_REC
     1317       13                 DESCRIPTION:
     1318       14
     1319       15                      Because SORT_REC has such an odd format, it is
     1320       16                 not possible to build a single structure to access it.
     1321       17                 It is a series of based variables strung together.
     1322       18                 The record looks something like:
     1323       19
     1324       20                 +---------+---------------------------+
     1325       21                 | index   | key                       |
     1326       22                 +---------+
     1327       23                               .
     1328       24                               .
     1329       25                 +------------------------------------+
     1330       26                 |       ID                           |
     1331       27                 +------------------------------------+
     1332       28                 |   seg count      |                 |
     1333       29                 +------------------+                 |
     1334       30                 |           miseg  +-----------------+
     1335       31                 |                  |
     1336       32                 +------------------+
     1337       33
     1338       34                 index - one byte, the index number of this key
     1339       35                 key - variable size, in bytes
     1340       36                 ID - 4 bytes, record ID
PL6.E3A0      #006=FKA$INPUT File=FKA$ALTKEY.:E05TSI                             TUE 07/29/97 15:32 Page:305
     1341       37                 seg count - 2 bytes, identifies a specific segment in a list
     1342       38                             of segments for a record
     1343       39                 miseg - two words, actual segment for this record, or record
     1344       40                         fragment
     1345       41
     1346       42                      NXTINDX will build the proper record.  Set the record
     1347       43                 size, then return.
     1348       44        */
     1349       45         %EJECT;
PL6.E3A0      #006=FKA$INPUT File=FKA$ALTKEY.:E05TSI                             TUE 07/29/97 15:32 Page:306
     1350       46        FKA$INPUT: PROC(SORT_REC, RECSIZE) ALTRET;

     46  4 000000   000000 700200 xent  FKA$INPUT    TSX0  ! X66_AUTO_2
         4 000001   000036 000002                    ZERO    30,2

     1351       47        /* */
     1352       48         %INCLUDE CP_6;
     1353      129         %INCLUDE CP_6_SUBS;
     1354      669         %INCLUDE FM$GRAN;
     1355      738         %INCLUDE FM$FIT;
     1356      959         %INCLUDE FK_DATA_C;
     1357     1036         %INCLUDE FKA_DATA_R;
     1358     1052         %INCLUDE FM_FIELD_C;
     1359     1093         %INCLUDE B$OBJECT_C;
     1360     4523        /* */
     1361     4524    1     DCL SORT_REC CHAR(FKA_RECSIZE);
     1362     4525    1     DCL 1 SORT_REC_BIT REDEF SORT_REC,
     1363     4526    1            2 * CHAR(FKA_RECSIZE);
     1364     4527    1     DCL RECSIZE UBIN;
     1365     4528        /* */
     1366     4529         %FPT_READ(FPTN=READ_DATA, BUF=FKA_DATA_BUF, KEY=FKA_DATA_GRAN,
     1367     4530         DCB=M$SI, KEYS=YES, STCLASS=CONSTANT);
     1368     4569         %FPT_READ(FPTN=READ_INDEX, BUF=FKA_INDEX_BUF, KEY=FKA_INDEX_GRAN,
     1369     4570         KEYS=YES, DCB=M$SI, STCLASS=CONSTANT);
     1370     4609         %F$DCB(DCBN=F$DCB, STCLASS="BASED(FKA_DCB$)");
     1371     4666        /* */
     1372     4667    1     DCL M$SI DCB;
     1373     4668        /* */
     1374     4669    1     DCL SEGX SBIN STATIC INIT(0);
     1375     4670    1     DCL SEG$ PTR STATIC;
     1376     4671    1     DCL SEGCNT SBIN STATIC INIT(0);
     1377     4672    1     DCL CRECX SBIN STATIC INIT(0);
     1378     4673    1     DCL INDEX# SBIN STATIC INIT(0);
     1379     4674    1     DCL KEY$ PTR;
     1380     4675    1     DCL ENDGRAN SBIN;
     1381     4676    1     DCL LASTSEG SBIN;
     1382     4677    1     DCL SIZE SBIN;
PL6.E3A0      #006=FKA$INPUT File=FKA$ALTKEY.:E05TSI                             TUE 07/29/97 15:32 Page:307
     1383     4678    1     DCL CHARS CHAR(SIZE) BASED;
     1384     4679    1     DCL G$ PTR;
     1385     4680    1     DCL IRKEY$ PTR;
     1386     4681    1     DCL I SBIN;
     1387     4682    1     DCL ODD SBIN;
     1388     4683    1     DCL FN SBIN;
     1389     4684    1     DCL REC$ PTR;
     1390     4685    1     DCL F$ PTR;
     1391     4686    1     DCL LEN SBIN;
     1392     4687    1     DCL 1 BYT(0:0) CALIGNED BASED,
     1393     4688    1            2 * BIT(1) UNAL,
     1394     4689    1            2 UPPER UBIN(4) UNAL,
     1395     4690    1            2 LOWER UBIN(4) UNAL;
     1396     4691        /* */
     1397     4692    1     DCL FM_FRZERO UBIN SYMREF;
     1398     4693        /* */
     1399     4694    1     DCL SORT_REC$ PTR;
     1400     4695    1     DCL SORT_INDX UBIN(9) CALIGNED BASED(SORT_REC$);
     1401     4696    1     DCL 1 SORT_ID CALIGNED BASED(SORT_REC$),
     1402     4697    1            2 DA UBIN(26) UNAL,
     1403     4698    1            2 GX UBIN(10) UNAL;
     1404     4699    1     DCL SORT_SEGCNT UBIN(18) CALIGNED BASED(SORT_REC$);
     1405     4700    1     DCL SORT_MISEG BIT(72) CALIGNED BASED(SORT_REC$);
     1406     4701        /* */
     1407     4702         %FM$GRAN(BASED="BASED(FKA_INDEX_BUF$)");
     1408     4706         %FM$KEYTBL(BASED="BASED(FKA_KTPTR$)");
     1409     4709         %FM$MISEG(BASED="BASED(SEG$)");
     1410     4713         %FM$MISEG(BASED="STATIC", FM$MISEG=FM_MISEG);
     1411     4717         %VLP_RECFIELD(FPTN=RECFIELD, STCLASS="BASED(FKA_RECFIELD$)");
     1412     4761         %FM$FIELD_START(FPTN=FIELD_START, STCLASS="BASED(FKA_START$)");
     1413     4783         %FITALTKEYS(BASED="BASED(FKA_ALTKEYS$)");
     1414     4789         %FMG$IRKEYS(FPTN=IRKEYS, STCLASS="BASED(FKA_IRKEYS$)");
     1415     4796         %FMG$KFIELD(FPTN=KFIELD, STCLASS="BASED(FKA_KFIELD$)");
     1416     4799         %FM$KEYENT(BASED="BASED(KEY$)");
     1417     4802         %FM$IRENT(BASED="BASED(KEY$)");
     1418     4805         %VREBL_DATATYPES;
     1419     4880        /* */
PL6.E3A0      #006=FKA$INPUT File=FKA$ALTKEY.:E05TSI                             TUE 07/29/97 15:32 Page:308
     1420     4881    1     DCL FKA$ABORT ENTRY;
     1421     4882        /* */
     1422     4883    1           CALL NXTINDX ALTRET(EOF);

   4883  4 000002   000652 701000 4                  TSX1    NXTINDX
         4 000003   000010 702000 4                  TSX2    EOF

     1423     4884    1           RECSIZE=FKA_RECSIZE;

   4884  4 000004   000000 235000 xsym               LDA     FKA_RECSIZE
         4 000005   200004 470500                    LDP0    @RECSIZE,,AUTO
         4 000006   000000 755100                    STA     0,,PR0

     1424     4885
     1425     4886    1           RETURN;

   4886  4 000007   000000 702200 xent               TSX2  ! X66_ARET

     1426     4887    1   EOF:    ALTRETURN;

   4887  4 000010   000000 702200 xent  EOF          TSX2  ! X66_AALT

     1427     4888         %EJECT;
PL6.E3A0      #006=FKA$INPUT File=FKA$ALTKEY.:E05TSI                             TUE 07/29/97 15:32 Page:309
     1428     4889        /*I*     NAME:     BUILD_IREL
     1429     4890                 PURPOSE:  To build an IREL key
     1430     4891                 DESCRIPTION:
     1431     4892
     1432     4893                      Set up a pointer to the current position in the
     1433     4894                 output record.  Set up a pointer to the record.
     1434     4895
     1435     4896                      Now loop through the key definition.  Move the field
     1436     4897                 from the record to the key.
     1437     4898
     1438     4899                      Finally, increment the output record pointer to
     1439     4900                 the end of the key.
     1440     4901        */
     1441     4902         %EJECT;
PL6.E3A0      #006=FKA$INPUT File=FKA$ALTKEY.:E05TSI                             TUE 07/29/97 15:32 Page:310
     1442     4903    1   BUILD_IREL: PROC;

   4903  4 000011   200026 741300       BUILD_IREL   STX1  ! SORT_REC$+5,,AUTO

     1443     4904    2     DCL CHRS CHAR(LEN) BASED;
     1444     4905        /* */
     1445     4906    2              IRKEY$=SORT_REC$;

   4906  4 000012   200021 236100                    LDQ     SORT_REC$,,AUTO
         4 000013   200012 756100                    STQ     IRKEY$,,AUTO

     1446     4907    2              REC$=PINCRW(FKA_DATA_BUF$, FM_MISEG.GX);

   4907  4 000014   000005 236000 3                  LDQ     FM_MISEG
         4 000015   000014 772000                    QRL     12
         4 000016   001777 376007                    ANQ     1023,DL
         4 000017   000022 736000                    QLS     18
         4 000020   000000 036000 xsym               ADLQ    FKA_DATA_BUF$
         4 000021   200016 756100                    STQ     REC$,,AUTO

     1447     4908
     1448     4909    3              DO I=0 TO IRKEYS.K.NFIELDS(INDEX#)-1;

   4909  4 000022   200013 450100                    STZ     I,,AUTO
         4 000023   000333 710000 4                  TRA     s:4940+1

     1449     4910    3                 FN=KFIELD.FIELD(I+IRKEYS.K.FIRSTFIELD(INDEX#));

   4910  4 000024   000004 236000 3                  LDQ     INDEX#
         4 000025   000007 402007                    MPY     7,DL
         4 000026   000000 470400 xsym               LDP0    FKA_IRKEYS$
         4 000027   000004 236106                    LDQ     4,QL,PR0
         4 000030   000022 772000                    QRL     18
         4 000031   200013 036100                    ADLQ    I,,AUTO
         4 000032   000000 471400 xsym               LDP1    FKA_KFIELD$
         4 000033   000100 101506                    MRL     fill='000'O
         4 000034   100002 000001                    ADSC9   2,Q,PR1                  cn=0,n=1
PL6.E3A0      #006=FKA$INPUT File=FKA$ALTKEY.:E05TSI                             TUE 07/29/97 15:32 Page:311
         4 000035   200015 000004                    ADSC9   FN,,AUTO                 cn=0,n=4

     1450     4911
     1451     4912    4                 DO CASE(RECFIELD.FIELD.TYPE#(FN));

   4912  4 000036   200015 236100                    LDQ     FN,,AUTO
         4 000037   000003 402007                    MPY     3,DL
         4 000040   000000 116003                    CMPQ    0,DU
         4 000041   000043 605000 4                  TPL     s:4912+5
         4 000042   000006 036003                    ADLQ    6,DU
         4 000043   000000 473400 xsym               LDP3    FKA_RECFIELD$
         4 000044   000100 101506                    MRL     fill='000'O
         4 000045   300001 020001                    ADSC6   1,Q,PR3                  cn=0,n=1
         4 000046   200034 020003                    ADSC6   I+2,,AUTO                cn=0,n=3
         4 000047   200034 220100                    LDX0    I+2,,AUTO
         4 000050   000072 100003                    CMPX0   58,DU
         4 000051   000053 602010 4                  TNC     s:4912+13,X0
         4 000052   000172 710000 4                  TRA     s:4924
         4 000053   000172 710000 4                  TRA     s:4924
         4 000054   000156 710000 4                  TRA     s:4921
         4 000055   000172 710000 4                  TRA     s:4924
         4 000056   000172 710000 4                  TRA     s:4924
         4 000057   000172 710000 4                  TRA     s:4924
         4 000060   000172 710000 4                  TRA     s:4924
         4 000061   000172 710000 4                  TRA     s:4924
         4 000062   000172 710000 4                  TRA     s:4924
         4 000063   000172 710000 4                  TRA     s:4924
         4 000064   000145 710000 4                  TRA     s:4918
         4 000065   000145 710000 4                  TRA     s:4918
         4 000066   000172 710000 4                  TRA     s:4924
         4 000067   000172 710000 4                  TRA     s:4924
         4 000070   000172 710000 4                  TRA     s:4924
         4 000071   000172 710000 4                  TRA     s:4924
         4 000072   000172 710000 4                  TRA     s:4924
         4 000073   000172 710000 4                  TRA     s:4924
         4 000074   000172 710000 4                  TRA     s:4924
         4 000075   000172 710000 4                  TRA     s:4924
PL6.E3A0      #006=FKA$INPUT File=FKA$ALTKEY.:E05TSI                             TUE 07/29/97 15:32 Page:312
         4 000076   000172 710000 4                  TRA     s:4924
         4 000077   000172 710000 4                  TRA     s:4924
         4 000100   000172 710000 4                  TRA     s:4924
         4 000101   000172 710000 4                  TRA     s:4924
         4 000102   000172 710000 4                  TRA     s:4924
         4 000103   000156 710000 4                  TRA     s:4921
         4 000104   000145 710000 4                  TRA     s:4918
         4 000105   000172 710000 4                  TRA     s:4924
         4 000106   000172 710000 4                  TRA     s:4924
         4 000107   000172 710000 4                  TRA     s:4924
         4 000110   000172 710000 4                  TRA     s:4924
         4 000111   000172 710000 4                  TRA     s:4924
         4 000112   000145 710000 4                  TRA     s:4918
         4 000113   000172 710000 4                  TRA     s:4924
         4 000114   000172 710000 4                  TRA     s:4924
         4 000115   000172 710000 4                  TRA     s:4924
         4 000116   000172 710000 4                  TRA     s:4924
         4 000117   000172 710000 4                  TRA     s:4924
         4 000120   000172 710000 4                  TRA     s:4924
         4 000121   000172 710000 4                  TRA     s:4924
         4 000122   000172 710000 4                  TRA     s:4924
         4 000123   000145 710000 4                  TRA     s:4918
         4 000124   000145 710000 4                  TRA     s:4918
         4 000125   000145 710000 4                  TRA     s:4918
         4 000126   000145 710000 4                  TRA     s:4918
         4 000127   000145 710000 4                  TRA     s:4918
         4 000130   000145 710000 4                  TRA     s:4918
         4 000131   000172 710000 4                  TRA     s:4924
         4 000132   000172 710000 4                  TRA     s:4924
         4 000133   000172 710000 4                  TRA     s:4924
         4 000134   000172 710000 4                  TRA     s:4924
         4 000135   000145 710000 4                  TRA     s:4918
         4 000136   000145 710000 4                  TRA     s:4918
         4 000137   000172 710000 4                  TRA     s:4924
         4 000140   000172 710000 4                  TRA     s:4924
         4 000141   000145 710000 4                  TRA     s:4918
         4 000142   000156 710000 4                  TRA     s:4921
PL6.E3A0      #006=FKA$INPUT File=FKA$ALTKEY.:E05TSI                             TUE 07/29/97 15:32 Page:313
         4 000143   000172 710000 4                  TRA     s:4924
         4 000144   000145 710000 4                  TRA     s:4918

     1452     4913    4                    CASE(%UDLS_DATATYPE, %UDTS_DATATYPE, %UDNS_DATATYPE,

     1453     4914    4                     %UDLO_DATATYPE, %UDTO_DATATYPE, %UDFLT_DATATYPE,
     1454     4915    4                     %PDLA_DATATYPE, %PDTA_DATATYPE, %PDNS_DATATYPE,
     1455     4916    4                     %PDTE_DATATYPE, %PDLE_DATATYPE, %PDFLT_DATATYPE,
     1456     4917    4                     %DATE_DATATYPE, %TIME_DATATYPE);
     1457     4918    4                       LEN=RECFIELD.DECFIELD.LEN#(FN);

   4918  4 000145   200015 236100                    LDQ     FN,,AUTO
         4 000146   000003 402007                    MPY     3,DL
         4 000147   000000 116003                    CMPQ    0,DU
         4 000150   000152 605000 4                  TPL     s:4918+5
         4 000151   000006 036003                    ADLQ    6,DU
         4 000152   000100 101506                    MRL     fill='000'O
         4 000153   300001 120001                    ADSC6   1,Q,PR3                  cn=1,n=1
         4 000154   200020 020006                    ADSC6   LEN,,AUTO                cn=0,n=6
         4 000155   000202 710000 4                  TRA     s:4928

     1458     4919
     1459     4920    4                    CASE(%SBIN_DATATYPE, %UBIN_DATATYPE, %UTS_DATATYPE);

     1460     4921    4                       LEN=RECFIELD.FIELD.LEN#(FN)/9;

   4921  4 000156   200015 236100                    LDQ     FN,,AUTO
         4 000157   000003 402007                    MPY     3,DL
         4 000160   000000 116003                    CMPQ    0,DU
         4 000161   000163 605000 4                  TPL     s:4921+5
         4 000162   000006 036003                    ADLQ    6,DU
         4 000163   000100 101506                    MRL     fill='000'O
         4 000164   300001 120002                    ADSC6   1,Q,PR3                  cn=1,n=2
         4 000165   200034 020006                    ADSC6   I+2,,AUTO                cn=0,n=6
         4 000166   200034 236100                    LDQ     I+2,,AUTO
         4 000167   000011 506007                    DIV     9,DL
         4 000170   200020 756100                    STQ     LEN,,AUTO
PL6.E3A0      #006=FKA$INPUT File=FKA$ALTKEY.:E05TSI                             TUE 07/29/97 15:32 Page:314
         4 000171   000202 710000 4                  TRA     s:4928

     1461     4922
     1462     4923    4                    CASE(ELSE);

     1463     4924    4                       LEN=RECFIELD.FIELD.LEN#(FN);

   4924  4 000172   200015 236100                    LDQ     FN,,AUTO
         4 000173   000003 402007                    MPY     3,DL
         4 000174   000000 116003                    CMPQ    0,DU
         4 000175   000177 605000 4                  TPL     s:4924+5
         4 000176   000006 036003                    ADLQ    6,DU
         4 000177   000100 101506                    MRL     fill='000'O
         4 000200   300001 120002                    ADSC6   1,Q,PR3                  cn=1,n=2
         4 000201   200020 020006                    ADSC6   LEN,,AUTO                cn=0,n=6

     1464     4925
     1465     4926    4                    END;                   /* Case                               */

     1466     4927
     1467     4928    4                 DO CASE(RECFIELD.FIELD.TYPE#(FN));

   4928  4 000202   200015 236100                    LDQ     FN,,AUTO
         4 000203   000003 402007                    MPY     3,DL
         4 000204   000000 116003                    CMPQ    0,DU
         4 000205   000207 605000 4                  TPL     s:4928+5
         4 000206   000006 036003                    ADLQ    6,DU
         4 000207   000100 101506                    MRL     fill='000'O
         4 000210   300001 020001                    ADSC6   1,Q,PR3                  cn=0,n=1
         4 000211   200034 020006                    ADSC6   I+2,,AUTO                cn=0,n=6
         4 000212   200034 236100                    LDQ     I+2,,AUTO
         4 000213   000011 136007                    SBLQ    9,DL
         4 000214   000061 116007                    CMPQ    49,DL
         4 000215   000217 602006 4                  TNC     s:4928+13,QL
         4 000216   000311 710000 4                  TRA     s:4936
         4 000217   000300 710000 4                  TRA     s:4932
         4 000220   000300 710000 4                  TRA     s:4932
PL6.E3A0      #006=FKA$INPUT File=FKA$ALTKEY.:E05TSI                             TUE 07/29/97 15:32 Page:315
         4 000221   000311 710000 4                  TRA     s:4936
         4 000222   000311 710000 4                  TRA     s:4936
         4 000223   000311 710000 4                  TRA     s:4936
         4 000224   000311 710000 4                  TRA     s:4936
         4 000225   000311 710000 4                  TRA     s:4936
         4 000226   000311 710000 4                  TRA     s:4936
         4 000227   000311 710000 4                  TRA     s:4936
         4 000230   000311 710000 4                  TRA     s:4936
         4 000231   000311 710000 4                  TRA     s:4936
         4 000232   000311 710000 4                  TRA     s:4936
         4 000233   000311 710000 4                  TRA     s:4936
         4 000234   000311 710000 4                  TRA     s:4936
         4 000235   000311 710000 4                  TRA     s:4936
         4 000236   000311 710000 4                  TRA     s:4936
         4 000237   000300 710000 4                  TRA     s:4932
         4 000240   000311 710000 4                  TRA     s:4936
         4 000241   000311 710000 4                  TRA     s:4936
         4 000242   000311 710000 4                  TRA     s:4936
         4 000243   000311 710000 4                  TRA     s:4936
         4 000244   000311 710000 4                  TRA     s:4936
         4 000245   000300 710000 4                  TRA     s:4932
         4 000246   000311 710000 4                  TRA     s:4936
         4 000247   000311 710000 4                  TRA     s:4936
         4 000250   000311 710000 4                  TRA     s:4936
         4 000251   000311 710000 4                  TRA     s:4936
         4 000252   000311 710000 4                  TRA     s:4936
         4 000253   000311 710000 4                  TRA     s:4936
         4 000254   000311 710000 4                  TRA     s:4936
         4 000255   000311 710000 4                  TRA     s:4936
         4 000256   000300 710000 4                  TRA     s:4932
         4 000257   000311 710000 4                  TRA     s:4936
         4 000260   000311 710000 4                  TRA     s:4936
         4 000261   000311 710000 4                  TRA     s:4936
         4 000262   000311 710000 4                  TRA     s:4936
         4 000263   000311 710000 4                  TRA     s:4936
         4 000264   000311 710000 4                  TRA     s:4936
         4 000265   000311 710000 4                  TRA     s:4936
PL6.E3A0      #006=FKA$INPUT File=FKA$ALTKEY.:E05TSI                             TUE 07/29/97 15:32 Page:316
         4 000266   000311 710000 4                  TRA     s:4936
         4 000267   000311 710000 4                  TRA     s:4936
         4 000270   000311 710000 4                  TRA     s:4936
         4 000271   000300 710000 4                  TRA     s:4932
         4 000272   000311 710000 4                  TRA     s:4936
         4 000273   000311 710000 4                  TRA     s:4936
         4 000274   000300 710000 4                  TRA     s:4932
         4 000275   000311 710000 4                  TRA     s:4936
         4 000276   000311 710000 4                  TRA     s:4936
         4 000277   000300 710000 4                  TRA     s:4932

     1468     4929    4                    CASE(%PDLA_DATATYPE, %PDTA_DATATYPE, %PDNS_DATATYPE,

     1469     4930    4                     %PDFLT_DATATYPE, %PDLE_DATATYPE, %PDTE_DATATYPE,
     1470     4931    4                     %DATE_DATATYPE, %TIME_DATATYPE);
     1471     4932    4                       CALL BUILD_NIBFIELD;

   4932  4 000300   000350 701000 4                  TSX1    BUILD_NIBFIELD
         4 000301   000000 011000                    NOP     0

     1472     4933    4                       IRKEY$=PINCRC(IRKEY$, (LEN+1)/2);

   4933  4 000302   200020 236100                    LDQ     LEN,,AUTO
         4 000303   000001 036007                    ADLQ    1,DL
         4 000304   000002 506007                    DIV     2,DL
         4 000305   000020 736000                    QLS     16
         4 000306   200012 036100                    ADLQ    IRKEY$,,AUTO
         4 000307   200012 756100                    STQ     IRKEY$,,AUTO
         4 000310   000332 710000 4                  TRA     s:4940

     1473     4934
     1474     4935    4                    CASE(ELSE);

     1475     4936    4                       F$=PINCRC(REC$, FIELD_START.OFFSET(FN)/9);

   4936  4 000311   000000 474400 xsym               LDP4    FKA_START$
         4 000312   200015 720100                    LXL0    FN,,AUTO
PL6.E3A0      #006=FKA$INPUT File=FKA$ALTKEY.:E05TSI                             TUE 07/29/97 15:32 Page:317
         4 000313   400001 236110                    LDQ     1,X0,PR4
         4 000314   000011 506007                    DIV     9,DL
         4 000315   000020 736000                    QLS     16
         4 000316   200016 036100                    ADLQ    REC$,,AUTO
         4 000317   200017 756100                    STQ     F$,,AUTO

     1476     4937    4                       IRKEY$->CHRS=F$->CHRS;

   4937  4 000320   200017 475500                    LDP5    F$,,AUTO
         4 000321   200020 721100                    LXL1    LEN,,AUTO
         4 000322   200012 476500                    LDP6    IRKEY$,,AUTO
         4 000323   040140 100540                    MLR     fill='040'O
         4 000324   500000 000011                    ADSC9   0,,PR5                   cn=0,n=*X1
         4 000325   600000 000011                    ADSC9   0,,PR6                   cn=0,n=*X1

     1477     4938    4                       IRKEY$=PINCRC(IRKEY$, LEN);

   4938  4 000326   200020 236100                    LDQ     LEN,,AUTO
         4 000327   000020 736000                    QLS     16
         4 000330   200012 036100                    ADLQ    IRKEY$,,AUTO
         4 000331   200012 756100                    STQ     IRKEY$,,AUTO

     1478     4939    4                    END;                   /* CASE                               */

     1479     4940    3                 END;                      /* DO I                               */

   4940  4 000332   200013 054100                    AOS     I,,AUTO
         4 000333   000004 236000 3                  LDQ     INDEX#
         4 000334   000007 402007                    MPY     7,DL
         4 000335   000000 470400 xsym               LDP0    FKA_IRKEYS$
         4 000336   000004 236106                    LDQ     4,QL,PR0
         4 000337   777777 376007                    ANQ     -1,DL
         4 000340   200013 116100                    CMPQ    I,,AUTO
         4 000341   000024 605400 4                  TPNZ    s:4910

     1480     4941    2              SORT_REC$=PINCRC(SORT_REC$, FKA_KEYSIZE);

PL6.E3A0      #006=FKA$INPUT File=FKA$ALTKEY.:E05TSI                             TUE 07/29/97 15:32 Page:318
   4941  4 000342   000000 236000 xsym               LDQ     FKA_KEYSIZE
         4 000343   000020 736000                    QLS     16
         4 000344   200021 036100                    ADLQ    SORT_REC$,,AUTO
         4 000345   200021 756100                    STQ     SORT_REC$,,AUTO

     1481     4942
     1482     4943    2              RETURN;

   4943  4 000346   200026 221300                    LDX1  ! SORT_REC$+5,,AUTO
         4 000347   000001 702211                    TSX2  ! 1,X1

     1483     4944    2      END BUILD_IREL;
     1484     4945         %EJECT;
PL6.E3A0      #006=FKA$INPUT File=FKA$ALTKEY.:E05TSI                             TUE 07/29/97 15:32 Page:319
     1485     4946        /*I*     NAME:     BUILD_NIBFIELD
     1486     4947                 PURPOSE:  To build a nibble field
     1487     4948                 DESCRIPTION:
     1488     4949
     1489     4950                      This moves data, one nibble at a time, from the
     1490     4951                 record to the key.  ODD indicates whether the nibble
     1491     4952                 field in the record is on an odd or even nibble boundary.
     1492     4953        */
     1493     4954         %EJECT;
PL6.E3A0      #006=FKA$INPUT File=FKA$ALTKEY.:E05TSI                             TUE 07/29/97 15:32 Page:320
     1494     4955    1   BUILD_NIBFIELD: PROC;

   4955  4 000350   200030 741300       BUILD_NIBFI* STX1  ! SORT_REC$+7,,AUTO

     1495     4956    2     DCL TEMP UBIN(4);
     1496     4957    2     DCL I UBIN;
     1497     4958        /* */
     1498     4959    2              F$=PINCRC(REC$, FIELD_START.OFFSET(FN)/9);

   4959  4 000351   000000 470400 xsym               LDP0    FKA_START$
         4 000352   200015 720100                    LXL0    FN,,AUTO
         4 000353   000001 236110                    LDQ     1,X0,PR0
         4 000354   000011 506007                    DIV     9,DL
         4 000355   000020 736000                    QLS     16
         4 000356   200016 036100                    ADLQ    REC$,,AUTO
         4 000357   200017 756100                    STQ     F$,,AUTO

     1499     4960    2              ODD=MOD(FIELD_START.OFFSET(FN), 9);

   4960  4 000360   000001 236110                    LDQ     1,X0,PR0
         4 000361   000011 506007                    DIV     9,DL
         4 000362   200014 755100                    STA     ODD,,AUTO

     1500     4961    2              IF ODD > 0 THEN

   4961  4 000363   000000 115003                    CMPA    0,DU
         4 000364   000367 604400 4                  TMOZ    s:4964

     1501     4962    2                 ODD=1;

   4962  4 000365   000001 236007                    LDQ     1,DL
         4 000366   200014 756100                    STQ     ODD,,AUTO

     1502     4963
     1503     4964    3              DO I=0 TO LEN-1;

   4964  4 000367   200032 450100                    STZ     I,,AUTO
PL6.E3A0      #006=FKA$INPUT File=FKA$ALTKEY.:E05TSI                             TUE 07/29/97 15:32 Page:321
         4 000370   000454 710000 4                  TRA     s:4974+3

     1504     4965    3                 IF MOD(I+ODD, 2) = 1 THEN

   4965  4 000371   200032 236100                    LDQ     I,,AUTO
         4 000372   200014 036100                    ADLQ    ODD,,AUTO
         4 000373   000002 506007                    DIV     2,DL
         4 000374   000044 733000                    LRS     36
         4 000375   000001 116007                    CMPQ    1,DL
         4 000376   000413 601000 4                  TNZ     s:4968

     1505     4966    3                    TEMP=F$->BYT.LOWER((I+ODD)/2);

   4966  4 000377   200032 236100                    LDQ     I,,AUTO
         4 000400   200014 036100                    ADLQ    ODD,,AUTO
         4 000401   000002 506007                    DIV     2,DL
         4 000402   000011 402007                    MPY     9,DL
         4 000403   000000 116003                    CMPQ    0,DU
         4 000404   000406 605000 4                  TPL     s:4966+7
         4 000405   000044 036003                    ADLQ    36,DU
         4 000406   200017 470500                    LDP0    F$,,AUTO
         4 000407   003100 060506                    CSL     bolr='003'O
         4 000410   000000 050004                    BDSC    0,Q,PR0                  by=0,bit=5,n=4
         4 000411   200031 000004                    BDSC    TEMP,,AUTO               by=0,bit=0,n=4
         4 000412   000426 710000 4                  TRA     s:4970

     1506     4967    3                 ELSE
     1507     4968    3                    TEMP=F$->BYT.UPPER((I+ODD)/2);

   4968  4 000413   200032 236100                    LDQ     I,,AUTO
         4 000414   200014 036100                    ADLQ    ODD,,AUTO
         4 000415   000002 506007                    DIV     2,DL
         4 000416   000011 402007                    MPY     9,DL
         4 000417   000000 116003                    CMPQ    0,DU
         4 000420   000422 605000 4                  TPL     s:4968+7
         4 000421   000044 036003                    ADLQ    36,DU
         4 000422   200017 470500                    LDP0    F$,,AUTO
PL6.E3A0      #006=FKA$INPUT File=FKA$ALTKEY.:E05TSI                             TUE 07/29/97 15:32 Page:322
         4 000423   003100 060506                    CSL     bolr='003'O
         4 000424   000000 010004                    BDSC    0,Q,PR0                  by=0,bit=1,n=4
         4 000425   200031 000004                    BDSC    TEMP,,AUTO               by=0,bit=0,n=4

     1508     4969
     1509     4970    3                 IF MOD(I,2) = 1 THEN

   4970  4 000426   200032 236100                    LDQ     I,,AUTO
         4 000427   000001 376007                    ANQ     1,DL
         4 000430   000001 116007                    CMPQ    1,DL
         4 000431   000442 601000 4                  TNZ     s:4973

     1510     4971    3                    IRKEY$->BYT.LOWER(I/2)=TEMP;

   4971  4 000432   200032 236100                    LDQ     I,,AUTO
         4 000433   000001 772000                    QRL     1
         4 000434   000011 402007                    MPY     9,DL
         4 000435   200012 471500                    LDP1    IRKEY$,,AUTO
         4 000436   003106 060500                    CSL     bolr='003'O
         4 000437   200031 000004                    BDSC    TEMP,,AUTO               by=0,bit=0,n=4
         4 000440   100000 050004                    BDSC    0,Q,PR1                  by=0,bit=5,n=4
         4 000441   000451 710000 4                  TRA     s:4974

     1511     4972    3                 ELSE
     1512     4973    3                    IRKEY$->BYT.UPPER(I/2)=TEMP;

   4973  4 000442   200032 236100                    LDQ     I,,AUTO
         4 000443   000001 772000                    QRL     1
         4 000444   000011 402007                    MPY     9,DL
         4 000445   200012 471500                    LDP1    IRKEY$,,AUTO
         4 000446   003106 060500                    CSL     bolr='003'O
         4 000447   200031 000004                    BDSC    TEMP,,AUTO               by=0,bit=0,n=4
         4 000450   100000 010004                    BDSC    0,Q,PR1                  by=0,bit=1,n=4

     1513     4974    3                 END;                      /* DO I                               */

   4974  4 000451   200032 235100                    LDA     I,,AUTO
PL6.E3A0      #006=FKA$INPUT File=FKA$ALTKEY.:E05TSI                             TUE 07/29/97 15:32 Page:323
         4 000452   000001 035007                    ADLA    1,DL
         4 000453   200032 755100                    STA     I,,AUTO
         4 000454   200032 236100                    LDQ     I,,AUTO
         4 000455   000460 604000 4                  TMI     s:4976
         4 000456   200020 116100                    CMPQ    LEN,,AUTO
         4 000457   000371 604000 4                  TMI     s:4965

     1514     4975
     1515     4976    2              RETURN;

   4976  4 000460   200030 221300                    LDX1  ! SORT_REC$+7,,AUTO
         4 000461   000001 702211                    TSX2  ! 1,X1

     1516     4977    2      END BUILD_NIBFIELD;
     1517     4978         %EJECT;
PL6.E3A0      #006=FKA$INPUT File=FKA$ALTKEY.:E05TSI                             TUE 07/29/97 15:32 Page:324
     1518     4979        /*I*     NAME:     BUILD_REC
     1519     4980                 PURPOSE:  To build a record to hand to SORT
     1520     4981                 DESCRIPTION:
     1521     4982
     1522     4983                      First, get the data granule that the record is
     1523     4984                 on.  We need it to build the key.
     1524     4985
     1525     4986                      Zero out the output record.  Set the index to
     1526     4987                 the current index that we are processing, and increment
     1527     4988                 the pointer to point to the key portion.
     1528     4989
     1529     4990                      If this is an indexed file, then just move the
     1530     4991                 character information from the record to the key.
     1531     4992                 Otherwise, if this is an IREL file, we call a subroutine
     1532     4993                 to build the key.
     1533     4994
     1534     4995                      Now store the remaining information, the ID,
     1535     4996                 SEGCNT, and MISEG.
     1536     4997        */
     1537     4998         %EJECT;
PL6.E3A0      #006=FKA$INPUT File=FKA$ALTKEY.:E05TSI                             TUE 07/29/97 15:32 Page:325
     1538     4999    1   BUILD_REC: PROC;

   4999  4 000462   200024 741300       BUILD_REC    STX1  ! SORT_REC$+3,,AUTO

     1539     5000        /* */
     1540     5001    2              IF FM_MISEG.GDA-FM_FRZERO ~= FKA_DATA_GRAN THEN

   5001  4 000463   000006 236000 3                  LDQ     FM_MISEG+1
         4 000464   000032 376000 xsym               ANQ     B_VECTNIL+26
         4 000465   000000 136000 xsym               SBLQ    FM_FRZERO
         4 000466   000000 116000 xsym               CMPQ    FKA_DATA_GRAN
         4 000467   000500 600000 4                  TZE     s:5007

     1541     5002    3              DO;                          /* READ DATA GRANULE                  */

     1542     5003    3                 FKA_DATA_GRAN=FM_MISEG.GDA-FM_FRZERO;

   5003  4 000470   000006 236000 3                  LDQ     FM_MISEG+1
         4 000471   000032 376000 xsym               ANQ     B_VECTNIL+26
         4 000472   000000 136000 xsym               SBLQ    FM_FRZERO
         4 000473   000000 756000 xsym               STQ     FKA_DATA_GRAN

     1543     5004    3                 CALL M$READ(READ_DATA) ALTRET(ERR);

   5004  4 000474   000000 630400 1                  EPPR0   READ_DATA
         4 000475   440000 713400                    CLIMB   alt,read
         4 000476   401400 401760                    pmme    nvectors=4
         4 000477   000610 702000 4                  TSX2    ERR

     1544     5005    3                 END;                      /* READ DATA GRANULE                  */

     1545     5006
     1546     5007    2              SORT_REC_BIT='0'B;

   5007  4 000500   200003 470500                    LDP0    @SORT_REC,,AUTO
         4 000501   000000 720000 xsym               LXL0    FKA_RECSIZE
         4 000502   000140 100400                    MLR     fill='000'O
PL6.E3A0      #006=FKA$INPUT File=FKA$ALTKEY.:E05TSI                             TUE 07/29/97 15:32 Page:326
         4 000503   000002 000001 xsym               ADSC9   B_VECTNIL+2              cn=0,n=1
         4 000504   000000 000010                    ADSC9   0,,PR0                   cn=0,n=*X0

     1547     5008    2              SORT_REC$=ADDR(SORT_REC);

   5008  4 000505   200003 236100                    LDQ     @SORT_REC,,AUTO
         4 000506   200021 756100                    STQ     SORT_REC$,,AUTO

     1548     5009    2              SORT_INDX=INDEX#;

   5009  4 000507   200021 471500                    LDP1    SORT_REC$,,AUTO
         4 000510   000100 101400                    MRL     fill='000'O
         4 000511   000004 000004 3                  ADSC9   INDEX#                   cn=0,n=4
         4 000512   100000 000001                    ADSC9   0,,PR1                   cn=0,n=1

     1549     5010    2              SORT_REC$=PINCRC(SORT_REC$, 1);

   5010  4 000513   200000 036007                    ADLQ    65536,DL
         4 000514   200021 756100                    STQ     SORT_REC$,,AUTO

     1550     5011
     1551     5012    2              IF F$DCB.ORG# = %INDEXED# THEN

   5012  4 000515   000000 471400 xsym               LDP1    FKA_DCB$
         4 000516   100032 236100                    LDQ     26,,PR1
         4 000517   777000 376003                    ANQ     -512,DU
         4 000520   006000 116003                    CMPQ    3072,DU
         4 000521   000557 601000 4                  TNZ     s:5021

     1552     5013    3              DO;                          /* INDEXED FILE                       */

     1553     5014    3                 SIZE=FITALTKEYS.K.KEYL(INDEX#);

   5014  4 000522   000004 236000 3                  LDQ     INDEX#
         4 000523   000006 402007                    MPY     6,DL
         4 000524   000000 473400 xsym               LDP3    FKA_ALTKEYS$
         4 000525   300001 236106                    LDQ     1,QL,PR3
PL6.E3A0      #006=FKA$INPUT File=FKA$ALTKEY.:E05TSI                             TUE 07/29/97 15:32 Page:327
         4 000526   000033 772000                    QRL     27
         4 000527   200010 756100                    STQ     SIZE,,AUTO

     1554     5015    3                 G$=PINCRC(FKA_DATA_BUF$,

   5015  4 000530   000004 236000 3                  LDQ     INDEX#
         4 000531   000006 402007                    MPY     6,DL
         4 000532   300003 236106                    LDQ     3,QL,PR3
         4 000533   777777 376007                    ANQ     -1,DL
         4 000534   200034 756100                    STQ     I+2,,AUTO
         4 000535   000005 236000 3                  LDQ     FM_MISEG
         4 000536   000012 772000                    QRL     10
         4 000537   007774 376007                    ANQ     4092,DL
         4 000540   200034 036100                    ADLQ    I+2,,AUTO
         4 000541   000020 736000                    QLS     16
         4 000542   000000 036000 xsym               ADLQ    FKA_DATA_BUF$
         4 000543   200011 756100                    STQ     G$,,AUTO

     1555     5016    3                     FM_MISEG.GX*4+FITALTKEYS.K.KEYX(INDEX#));
     1556     5017    3                 SORT_REC$->CHARS=G$->CHARS;

   5017  4 000544   200011 474500                    LDP4    G$,,AUTO
         4 000545   200010 720100                    LXL0    SIZE,,AUTO
         4 000546   200021 475500                    LDP5    SORT_REC$,,AUTO
         4 000547   040140 100540                    MLR     fill='040'O
         4 000550   400000 000010                    ADSC9   0,,PR4                   cn=0,n=*X0
         4 000551   500000 000010                    ADSC9   0,,PR5                   cn=0,n=*X0

     1557     5018    3                 SORT_REC$=PINCRC(SORT_REC$, FKA_KEYSIZE);

   5018  4 000552   000000 236000 xsym               LDQ     FKA_KEYSIZE
         4 000553   000020 736000                    QLS     16
         4 000554   200021 036100                    ADLQ    SORT_REC$,,AUTO
         4 000555   200021 756100                    STQ     SORT_REC$,,AUTO

     1558     5019    3                 END;                      /* INDEXED FILE                       */

PL6.E3A0      #006=FKA$INPUT File=FKA$ALTKEY.:E05TSI                             TUE 07/29/97 15:32 Page:328
   5019  4 000556   000561 710000 4                  TRA     s:5023

     1559     5020    2              ELSE
     1560     5021    2                 CALL BUILD_IREL;

   5021  4 000557   000011 701000 4                  TSX1    BUILD_IREL
         4 000560   000000 011000                    NOP     0

     1561     5022
     1562     5023    2              SORT_ID.DA=FM_MISEG.GDA;

   5023  4 000561   200021 470500                    LDP0    SORT_REC$,,AUTO
         4 000562   003100 061400                    CSR     bolr='003'O
         4 000563   000006 200033 3                  BDSC    FM_MISEG+1               by=1,bit=0,n=27
         4 000564   000000 000032                    BDSC    0,,PR0                   by=0,bit=0,n=26

     1563     5024    2              SORT_ID.GX=FM_MISEG.GX;

   5024  4 000565   003100 060400                    CSL     bolr='003'O
         4 000566   000005 250012 3                  BDSC    FM_MISEG                 by=1,bit=5,n=10
         4 000567   000000 500012                    BDSC    0,,PR0                   by=2,bit=8,n=10

     1564     5025    2              SORT_REC$=PINCRC(SORT_REC$, 4);

   5025  4 000570   200021 236100                    LDQ     SORT_REC$,,AUTO
         4 000571   000001 036003                    ADLQ    1,DU
         4 000572   200021 756100                    STQ     SORT_REC$,,AUTO

     1565     5026    2              SORT_SEGCNT=SEGCNT;

   5026  4 000573   200021 470500                    LDP0    SORT_REC$,,AUTO
         4 000574   000100 101400                    MRL     fill='000'O
         4 000575   000002 000004 3                  ADSC9   SEGCNT                   cn=0,n=4
         4 000576   000000 000002                    ADSC9   0,,PR0                   cn=0,n=2

     1566     5027    2              SORT_REC$=PINCRC(SORT_REC$, 2);

PL6.E3A0      #006=FKA$INPUT File=FKA$ALTKEY.:E05TSI                             TUE 07/29/97 15:32 Page:329
   5027  4 000577   400000 036007                    ADLQ    -131072,DL
         4 000600   200021 756100                    STQ     SORT_REC$,,AUTO

     1567     5028    2              SORT_MISEG=FM$MISEG;

   5028  4 000601   000001 470400 3                  LDP0    SEG$
         4 000602   200021 471500                    LDP1    SORT_REC$,,AUTO
         4 000603   000100 100500                    MLR     fill='000'O
         4 000604   000000 000010                    ADSC9   0,,PR0                   cn=0,n=8
         4 000605   100000 000010                    ADSC9   0,,PR1                   cn=0,n=8

     1568     5029
     1569     5030    2              RETURN;

   5030  4 000606   200024 221300                    LDX1  ! SORT_REC$+3,,AUTO
         4 000607   000001 702211                    TSX2  ! 1,X1

     1570     5031    2   ERR:       CALL FKA$ABORT;

   5031  4 000610   000002 631400 xsym  ERR          EPPR1   B_VECTNIL+2
         4 000611   000000 701000 xent               TSX1    FKA$ABORT
         4 000612   000000 011000                    NOP     0

     1571     5032    2      END BUILD_REC;

   5032  4 000613   200024 221300                    LDX1  ! SORT_REC$+3,,AUTO
         4 000614   000001 702211                    TSX2  ! 1,X1

     1572     5033         %EJECT;
PL6.E3A0      #006=FKA$INPUT File=FKA$ALTKEY.:E05TSI                             TUE 07/29/97 15:32 Page:330
     1573     5034        /*I*     NAME:     FLINK
     1574     5035                 PURPOSE:  To flink to the next index granule
     1575     5036                 DESCRIPTION:
     1576     5037
     1577     5038                      If there isn't one, altret.
     1578     5039
     1579     5040                      Otherwise remember the new FLINK, read the next
     1580     5041                 granule, and set up some variables.
     1581     5042        */
     1582     5043         %EJECT;
PL6.E3A0      #006=FKA$INPUT File=FKA$ALTKEY.:E05TSI                             TUE 07/29/97 15:32 Page:331
     1583     5044    1   FLINK:     PROC ALTRET;

   5044  4 000615   200030 741300       FLINK        STX1  ! SORT_REC$+7,,AUTO

     1584     5045        /* */
     1585     5046    2              IF FM$GRAN.FLINK = 0 THEN

   5046  4 000616   000000 470400 xsym               LDP0    FKA_INDEX_BUF$
         4 000617   000004 235100                    LDA     4,,PR0
         4 000620   000622 601000 4                  TNZ     s:5049

     1586     5047    2                 ALTRETURN;

   5047  4 000621   000000 702211                    TSX2  ! 0,X1

     1587     5048
     1588     5049    2              FKA_INDEX_GRAN=FM$GRAN.FLINK-FM_FRZERO;

   5049  4 000622   000004 236100                    LDQ     4,,PR0
         4 000623   000000 136000 xsym               SBLQ    FM_FRZERO
         4 000624   000000 756000 xsym               STQ     FKA_INDEX_GRAN

     1589     5050    2              CALL M$READ(READ_INDEX) ALTRET(ERR);

   5050  4 000625   000016 630400 1                  EPPR0   READ_INDEX
         4 000626   440000 713400                    CLIMB   alt,read
         4 000627   401400 401760                    pmme    nvectors=4
         4 000630   000645 702000 4                  TSX2    ERR

     1590     5051
     1591     5052    2              FKA_KTPTR$=PINCRW(FKA_INDEX_BUF$, FM$GRAN.FCEX);

   5052  4 000631   000000 470400 xsym               LDP0    FKA_INDEX_BUF$
         4 000632   000002 220100                    LDX0    2,,PR0
         4 000633   000000 636010                    EAQ     0,X0
         4 000634   000000 036000 xsym               ADLQ    FKA_INDEX_BUF$
         4 000635   000000 756000 xsym               STQ     FKA_KTPTR$
PL6.E3A0      #006=FKA$INPUT File=FKA$ALTKEY.:E05TSI                             TUE 07/29/97 15:32 Page:332

     1592     5053    2              CRECX=0;

   5053  4 000636   000003 450000 3                  STZ     CRECX

     1593     5054    2              FKA_BOUND=FM$KEYTBL(0);

   5054  4 000637   000000 471400 xsym               LDP1    FKA_KTPTR$
         4 000640   100000 236100                    LDQ     0,,PR1
         4 000641   000033 772000                    QRL     27
         4 000642   000000 756000 xsym               STQ     FKA_BOUND

     1594     5055
     1595     5056    2              RETURN;

   5056  4 000643   200030 221300                    LDX1  ! SORT_REC$+7,,AUTO
         4 000644   000001 702211                    TSX2  ! 1,X1

     1596     5057    2   ERR:       CALL FKA$ABORT;

   5057  4 000645   000002 631400 xsym  ERR          EPPR1   B_VECTNIL+2
         4 000646   000000 701000 xent               TSX1    FKA$ABORT
         4 000647   000000 011000                    NOP     0

     1597     5058    2      END FLINK;

   5058  4 000650   200030 221300                    LDX1  ! SORT_REC$+7,,AUTO
         4 000651   000001 702211                    TSX2  ! 1,X1

     1598     5059         %EJECT;
PL6.E3A0      #006=FKA$INPUT File=FKA$ALTKEY.:E05TSI                             TUE 07/29/97 15:32 Page:333
     1599     5060        /*I*     NAME:     NXTINDX
     1600     5061                 PURPOSE:  To build the record for the next index
     1601     5062                 DESCRIPTION:
     1602     5063
     1603     5064                      If this is the first time through, or we have
     1604     5065                 taken care of all of the indexes, then either get
     1605     5066                 the next segment or key.  Otherwise, we have a
     1606     5067                 new index, same record.
     1607     5068
     1608     5069                      The rather convoluted IF statement basically
     1609     5070                 tries just to build indexes that are not UNIQUE.
     1610     5071                 If an index is UNIQUE, then we ignore LOAD and build
     1611     5072                 them on the fly in FMG$KEYED.
     1612     5073        */
     1613     5074         %EJECT;
PL6.E3A0      #006=FKA$INPUT File=FKA$ALTKEY.:E05TSI                             TUE 07/29/97 15:32 Page:334
     1614     5075    1   NXTINDX:   PROC ALTRET;

   5075  4 000652   200022 741300       NXTINDX      STX1  ! SORT_REC$+1,,AUTO

     1615     5076        /* */
     1616     5077    3   LOOP:      DO WHILE('1'B);

   5077  4 000653                       LOOP         null
     1617     5078    3                 IF INDEX#+1 >= FKA_NUMKEYS OR INDEX# = 0 THEN

   5078  4 000653   000004 236000 3                  LDQ     INDEX#
         4 000654   000001 036007                    ADLQ    1,DL
         4 000655   000000 116000 xsym               CMPQ    FKA_NUMKEYS
         4 000656   000661 605000 4                  TPL     s:5080
         4 000657   000004 235000 3                  LDA     INDEX#
         4 000660   000673 601000 4                  TNZ     s:5087

     1618     5079    4                 DO;                       /* GET NEXT KEY                       */

     1619     5080    4                    INDEX#=1;

   5080  4 000661   000001 235007                    LDA     1,DL
         4 000662   000004 755000 3                  STA     INDEX#

     1620     5081    4                    IF SEGX > 0 THEN

   5081  4 000663   000000 236000 3                  LDQ     SEGX
         4 000664   000670 604400 4                  TMOZ    s:5084

     1621     5082    4                       CALL NXTSEG ALTRET(EOF);

   5082  4 000665   001047 701000 4                  TSX1    NXTSEG
         4 000666   000734 702000 4                  TSX2    EOF
         4 000667   000674 710000 4                  TRA     s:5089

     1622     5083    4                    ELSE
     1623     5084    4                       CALL NXTKEY ALTRET(EOF);
PL6.E3A0      #006=FKA$INPUT File=FKA$ALTKEY.:E05TSI                             TUE 07/29/97 15:32 Page:335

   5084  4 000670   000736 701000 4                  TSX1    NXTKEY
         4 000671   000734 702000 4                  TSX2    EOF

     1624     5085    4                    END;                   /* GET NEXT KEY                       */

   5085  4 000672   000674 710000 4                  TRA     s:5089

     1625     5086    3                 ELSE
     1626     5087    3                    INDEX#=INDEX#+1;

   5087  4 000673   000004 054000 3                  AOS     INDEX#

     1627     5088
     1628     5089    3                 IF (F$DCB.ORG# = %INDEXED# AND

   5089  4 000674   000000 470400 xsym               LDP0    FKA_DCB$
         4 000675   000032 236100                    LDQ     26,,PR0
         4 000676   777000 376003                    ANQ     -512,DU
         4 000677   006000 116003                    CMPQ    3072,DU
         4 000700   000712 601000 4                  TNZ     s:5089+14
         4 000701   000000 471400 xsym               LDP1    FKA_ALTKEYS$
         4 000702   100000 236100                    LDQ     0,,PR1
         4 000703   400000 316007                    CANQ    -131072,DL
         4 000704   000727 601000 4                  TNZ     s:5096
         4 000705   000004 236000 3                  LDQ     INDEX#
         4 000706   000006 402007                    MPY     6,DL
         4 000707   100004 236106                    LDQ     4,QL,PR1
         4 000710   000400 316003                    CANQ    256,DU
         4 000711   000727 600000 4                  TZE     s:5096
         4 000712   000032 236100                    LDQ     26,,PR0
         4 000713   777000 376003                    ANQ     -512,DU
         4 000714   015000 116003                    CMPQ    6656,DU
         4 000715   000653 601000 4                  TNZ     LOOP
         4 000716   000000 471400 xsym               LDP1    FKA_IRKEYS$
         4 000717   100002 236100                    LDQ     2,,PR1
         4 000720   200000 316003                    CANQ    65536,DU
PL6.E3A0      #006=FKA$INPUT File=FKA$ALTKEY.:E05TSI                             TUE 07/29/97 15:32 Page:336
         4 000721   000727 601000 4                  TNZ     s:5096
         4 000722   000004 236000 3                  LDQ     INDEX#
         4 000723   000007 402007                    MPY     7,DL
         4 000724   100006 236106                    LDQ     6,QL,PR1
         4 000725   400000 316007                    CANQ    -131072,DL
         4 000726   000653 601000 4                  TNZ     LOOP

     1629     5090    3                     (FITALTKEYS.UNIQUEBLD OR
     1630     5091    3                     NOT FITALTKEYS.K.UNIQUE(INDEX#))) OR
     1631     5092    3                     (F$DCB.ORG# = %IREL# AND
     1632     5093    3                     (IRKEYS.UNIQUEBLD OR
     1633     5094    3                     NOT IRKEYS.K.UNIQUE(INDEX#))) THEN
     1634     5095    4                 DO;                       /* BUILD RECORD                       */

     1635     5096    4                    CALL BUILD_REC;

   5096  4 000727   000462 701000 4                  TSX1    BUILD_REC
         4 000730   000000 011000                    NOP     0

     1636     5097    4                    EXIT LOOP;

   5097  4 000731   000732 710000 4                  TRA     s:5102

     1637     5098    4                    END;                   /* BUILD RECORD                       */
     1638     5099
     1639     5100    3                 END;                      /* WHILE                              */

     1640     5101
     1641     5102    2              RETURN;

   5102  4 000732   200022 221300                    LDX1  ! SORT_REC$+1,,AUTO
         4 000733   000001 702211                    TSX2  ! 1,X1

     1642     5103    2   EOF:       ALTRETURN;

   5103  4 000734   200022 221300       EOF          LDX1  ! SORT_REC$+1,,AUTO
         4 000735   000000 702211                    TSX2  ! 0,X1
PL6.E3A0      #006=FKA$INPUT File=FKA$ALTKEY.:E05TSI                             TUE 07/29/97 15:32 Page:337

     1643     5104    2      END NXTINDX;
     1644     5105         %EJECT;
PL6.E3A0      #006=FKA$INPUT File=FKA$ALTKEY.:E05TSI                             TUE 07/29/97 15:32 Page:338
     1645     5106        /*I*     NAME:     NXTKEY
     1646     5107                 PURPOSE:  To position to the next key
     1647     5108                 DESCRIPTION:
     1648     5109
     1649     5110                      Loop until we find a non-deleted key.  If this
     1650     5111                 is the end of the granule, then try the next granule.
     1651     5112
     1652     5113                      Build a pointer to the MISEG, and save the MISEG
     1653     5114                 away.
     1654     5115        */
     1655     5116         %EJECT;
PL6.E3A0      #006=FKA$INPUT File=FKA$ALTKEY.:E05TSI                             TUE 07/29/97 15:32 Page:339
     1656     5117    1   NXTKEY:    PROC ALTRET;

   5117  4 000736   200026 741300       NXTKEY       STX1  ! SORT_REC$+5,,AUTO

     1657     5118        /* */
     1658     5119    3              DO UNTIL (NOT FM$KEYENT.D);

     1659     5120    3                 SEGX=0;

   5120  4 000737   000000 450000 3                  STZ     SEGX

     1660     5121    3                 SEGCNT=0;

   5121  4 000740   000002 450000 3                  STZ     SEGCNT

     1661     5122    3                 CRECX=CRECX+1;

   5122  4 000741   000003 054000 3                  AOS     CRECX

     1662     5123
     1663     5124    4                 DO WHILE(CRECX > FM$GRAN.KEYCNT);

   5124  4 000742   000000 470400 xsym               LDP0    FKA_INDEX_BUF$
         4 000743   000002 236100                    LDQ     2,,PR0
         4 000744   000777 376007                    ANQ     511,DL
         4 000745   000003 116000 3                  CMPQ    CRECX
         4 000746   000760 605000 4                  TPL     s:5129

     1664     5125    4                    CALL FLINK ALTRET(EOF);

   5125  4 000747   000615 701000 4                  TSX1    FLINK
         4 000750   001045 702000 4                  TSX2    EOF

     1665     5126    4                    CRECX=1;

   5126  4 000751   000001 235007                    LDA     1,DL
         4 000752   000003 755000 3                  STA     CRECX
PL6.E3A0      #006=FKA$INPUT File=FKA$ALTKEY.:E05TSI                             TUE 07/29/97 15:32 Page:340

     1666     5127    4                    END;

   5127  4 000753   000000 470400 xsym               LDP0    FKA_INDEX_BUF$
         4 000754   000002 236100                    LDQ     2,,PR0
         4 000755   000777 376007                    ANQ     511,DL
         4 000756   000003 116000 3                  CMPQ    CRECX
         4 000757   000747 604000 4                  TMI     s:5125

     1667     5128
     1668     5129    3                 IF CRECX >= FKA_BOUND THEN

   5129  4 000760   000003 236000 3                  LDQ     CRECX
         4 000761   000000 116000 xsym               CMPQ    FKA_BOUND
         4 000762   000773 604000 4                  TMI     s:5132

     1669     5130    3                    SEGX=FM$KEYTBL(CRECX)+512;

   5130  4 000763   000000 471400 xsym               LDP1    FKA_KTPTR$
         4 000764   000100 101506                    MRL     fill='000'O
         4 000765   100000 000001                    ADSC9   0,Q,PR1                  cn=0,n=1
         4 000766   200034 000004                    ADSC9   I+2,,AUTO                cn=0,n=4
         4 000767   200034 236100                    LDQ     I+2,,AUTO
         4 000770   001000 036007                    ADLQ    512,DL
         4 000771   000000 756000 3                  STQ     SEGX
         4 000772   000777 710000 4                  TRA     s:5133

     1670     5131    3                 ELSE
     1671     5132    3                    SEGX=FM$KEYTBL(CRECX);

   5132  4 000773   000000 471400 xsym               LDP1    FKA_KTPTR$
         4 000774   000000 101506                    MRL     fill='000'O
         4 000775   100000 000001                    ADSC9   0,Q,PR1                  cn=0,n=1
         4 000776   000000 000004 3                  ADSC9   SEGX                     cn=0,n=4

     1672     5133    3                 KEY$=PINCRW(FKA_INDEX_BUF$, SEGX);

PL6.E3A0      #006=FKA$INPUT File=FKA$ALTKEY.:E05TSI                             TUE 07/29/97 15:32 Page:341
   5133  4 000777   000000 236000 3                  LDQ     SEGX
         4 001000   000022 736000                    QLS     18
         4 001001   000000 036000 xsym               ADLQ    FKA_INDEX_BUF$
         4 001002   200005 756100                    STQ     KEY$,,AUTO

     1673     5134    3                 END;                      /* UNTIL                              */

   5134  4 001003   200005 473500                    LDP3    KEY$,,AUTO
         4 001004   300000 234100                    SZN     0,,PR3
         4 001005   000737 604000 4                  TMI     s:5120

     1674     5135
     1675     5136    2              IF F$DCB.ORG# = %IREL# THEN

   5136  4 001006   000000 474400 xsym               LDP4    FKA_DCB$
         4 001007   400032 236100                    LDQ     26,,PR4
         4 001010   777000 376003                    ANQ     -512,DU
         4 001011   015000 116003                    CMPQ    6656,DU
         4 001012   001023 601000 4                  TNZ     s:5139

     1676     5137    2                 SEGX=SEGX+(FM$IRENT.KLB+5)/4;

   5137  4 001013   300000 236100                    LDQ     0,,PR3
         4 001014   000022 772000                    QRL     18
         4 001015   377777 376007                    ANQ     131071,DL
         4 001016   000005 036007                    ADLQ    5,DL
         4 001017   000002 772000                    QRL     2
         4 001020   000000 036000 3                  ADLQ    SEGX
         4 001021   000000 756000 3                  STQ     SEGX
         4 001022   001032 710000 4                  TRA     s:5141

     1677     5138    2              ELSE
     1678     5139    2                 SEGX=SEGX+(FM$KEYENT.KLB+4)/4;

   5139  4 001023   300000 236100                    LDQ     0,,PR3
         4 001024   000033 772000                    QRL     27
         4 001025   000377 376007                    ANQ     255,DL
PL6.E3A0      #006=FKA$INPUT File=FKA$ALTKEY.:E05TSI                             TUE 07/29/97 15:32 Page:342
         4 001026   000004 036007                    ADLQ    4,DL
         4 001027   000002 772000                    QRL     2
         4 001030   000000 036000 3                  ADLQ    SEGX
         4 001031   000000 756000 3                  STQ     SEGX

     1679     5140
     1680     5141    2              SEG$=PINCRW(FKA_INDEX_BUF$, SEGX);

   5141  4 001032   000022 736000                    QLS     18
         4 001033   000000 036000 xsym               ADLQ    FKA_INDEX_BUF$
         4 001034   000001 756000 3                  STQ     SEG$

     1681     5142    2              FM_MISEG=FM$MISEG;

   5142  4 001035   000001 475400 3                  LDP5    SEG$
         4 001036   000000 100500                    MLR     fill='000'O
         4 001037   500000 000010                    ADSC9   0,,PR5                   cn=0,n=8
         4 001040   000005 000010 3                  ADSC9   FM_MISEG                 cn=0,n=8

     1682     5143    2              FM$MISEG.FAK='1'B;

   5143  4 001041   400000 236003                    LDQ     -131072,DU
         4 001042   500000 256100                    ORSQ    0,,PR5

     1683     5144
     1684     5145    2              RETURN;

   5145  4 001043   200026 221300                    LDX1  ! SORT_REC$+5,,AUTO
         4 001044   000001 702211                    TSX2  ! 1,X1

     1685     5146    2   EOF:       ALTRETURN;

   5146  4 001045   200026 221300       EOF          LDX1  ! SORT_REC$+5,,AUTO
         4 001046   000000 702211                    TSX2  ! 0,X1

     1686     5147    2      END NXTKEY;
     1687     5148         %EJECT;
PL6.E3A0      #006=FKA$INPUT File=FKA$ALTKEY.:E05TSI                             TUE 07/29/97 15:32 Page:343
     1688     5149        /*I*     NAME:     NXTSEG
     1689     5150                 PURPOSE:  To position to the next segment
     1690     5151                 DESCRIPTION:
     1691     5152
     1692     5153                      Figure out where the end of the granule is.
     1693     5154                 Increment the segment index by two.  If we fell
     1694     5155                 off the end of the granule, then read the next
     1695     5156                 granule.
     1696     5157
     1697     5158                      Now find the last segment in the current key.
     1698     5159                 If we went beyond that, then there are no more
     1699     5160                 segments, so get the next key.
     1700     5161        */
     1701     5162         %EJECT;
PL6.E3A0      #006=FKA$INPUT File=FKA$ALTKEY.:E05TSI                             TUE 07/29/97 15:32 Page:344
     1702     5163    1   NXTSEG:    PROC ALTRET;

   5163  4 001047   200024 741300       NXTSEG       STX1  ! SORT_REC$+3,,AUTO

     1703     5164        /* */
     1704     5165    2              ENDGRAN=FM$GRAN.NAVX;

   5165  4 001050   000000 470400 xsym               LDP0    FKA_INDEX_BUF$
         4 001051   000001 236100                    LDQ     1,,PR0
         4 001052   000022 772000                    QRL     18
         4 001053   200006 756100                    STQ     ENDGRAN,,AUTO

     1705     5166
     1706     5167    2              SEGX=SEGX+2;

   5167  4 001054   000002 236007                    LDQ     2,DL
         4 001055   000000 056000 3                  ASQ     SEGX

     1707     5168    2              SEGCNT=SEGCNT+1;

   5168  4 001056   000002 054000 3                  AOS     SEGCNT

     1708     5169
     1709     5170    3              DO WHILE (SEGX >= ENDGRAN);

   5170  4 001057   000000 236000 3                  LDQ     SEGX
         4 001060   200006 116100                    CMPQ    ENDGRAN,,AUTO
         4 001061   001077 604000 4                  TMI     s:5177

     1710     5171    3                 CALL FLINK ALTRET(EOF);

   5171  4 001062   000615 701000 4                  TSX1    FLINK
         4 001063   001143 702000 4                  TSX2    EOF

     1711     5172    3                 CRECX=0;

   5172  4 001064   000003 450000 3                  STZ     CRECX
PL6.E3A0      #006=FKA$INPUT File=FKA$ALTKEY.:E05TSI                             TUE 07/29/97 15:32 Page:345

     1712     5173    3                 SEGX=FM$GRAN.FCEX+SIZEW(FM$KEYTBL);

   5173  4 001065   000000 470400 xsym               LDP0    FKA_INDEX_BUF$
         4 001066   000002 236100                    LDQ     2,,PR0
         4 001067   000022 772000                    QRL     18
         4 001070   000106 036007                    ADLQ    70,DL
         4 001071   000000 756000 3                  STQ     SEGX

     1713     5174    3                 ENDGRAN=FM$GRAN.NAVX;

   5174  4 001072   000001 236100                    LDQ     1,,PR0
         4 001073   000022 772000                    QRL     18
         4 001074   200006 756100                    STQ     ENDGRAN,,AUTO

     1714     5175    3                 END;                      /* WHILE                              */

   5175  4 001075   000000 116000 3                  CMPQ    SEGX
         4 001076   001062 604400 4                  TMOZ    s:5171

     1715     5176
     1716     5177    2              IF CRECX < FM$GRAN.KEYCNT THEN

   5177  4 001077   000002 236100                    LDQ     2,,PR0
         4 001100   000777 376007                    ANQ     511,DL
         4 001101   000003 116000 3                  CMPQ    CRECX
         4 001102   001126 604400 4                  TMOZ    s:5185

     1717     5178    3              DO;                          /* LAST SEG IN KEY                    */

     1718     5179    3                 IF CRECX+1 < FKA_BOUND THEN

   5179  4 001103   000003 236000 3                  LDQ     CRECX
         4 001104   000001 036007                    ADLQ    1,DL
         4 001105   000000 116000 xsym               CMPQ    FKA_BOUND
         4 001106   001115 605000 4                  TPL     s:5182

PL6.E3A0      #006=FKA$INPUT File=FKA$ALTKEY.:E05TSI                             TUE 07/29/97 15:32 Page:346
     1719     5180    3                    LASTSEG=FM$KEYTBL(CRECX+1);

   5180  4 001107   000000 471400 xsym               LDP1    FKA_KTPTR$
         4 001110   000003 235000 3                  LDA     CRECX
         4 001111   000100 101505                    MRL     fill='000'O
         4 001112   100000 200001                    ADSC9   0,A,PR1                  cn=1,n=1
         4 001113   200007 000004                    ADSC9   LASTSEG,,AUTO            cn=0,n=4
         4 001114   001130 710000 4                  TRA     s:5187

     1720     5181    3                 ELSE
     1721     5182    3                    LASTSEG=FM$KEYTBL(CRECX+1)+512;

   5182  4 001115   000000 471400 xsym               LDP1    FKA_KTPTR$
         4 001116   000003 235000 3                  LDA     CRECX
         4 001117   000100 101505                    MRL     fill='000'O
         4 001120   100000 200001                    ADSC9   0,A,PR1                  cn=1,n=1
         4 001121   200034 000004                    ADSC9   I+2,,AUTO                cn=0,n=4
         4 001122   200034 236100                    LDQ     I+2,,AUTO
         4 001123   001000 036007                    ADLQ    512,DL
         4 001124   200007 756100                    STQ     LASTSEG,,AUTO

     1722     5183    3                 END;                      /* LAST SEG IN KEY                    */

   5183  4 001125   001130 710000 4                  TRA     s:5187

     1723     5184    2              ELSE
     1724     5185    2                 LASTSEG=ENDGRAN;

   5185  4 001126   200006 235100                    LDA     ENDGRAN,,AUTO
         4 001127   200007 755100                    STA     LASTSEG,,AUTO

     1725     5186
     1726     5187    2              IF SEGX >= LASTSEG THEN

   5187  4 001130   000000 236000 3                  LDQ     SEGX
         4 001131   200007 116100                    CMPQ    LASTSEG,,AUTO
         4 001132   001135 604000 4                  TMI     s:5192
PL6.E3A0      #006=FKA$INPUT File=FKA$ALTKEY.:E05TSI                             TUE 07/29/97 15:32 Page:347

     1727     5188    3              DO;                          /* NO MORE                            */

     1728     5189    3                 CALL NXTKEY ALTRET(EOF);

   5189  4 001133   000736 701000 4                  TSX1    NXTKEY
         4 001134   001143 702000 4                  TSX2    EOF

     1729     5190    3                 END;                      /* NO MORE                            */

     1730     5191
     1731     5192    2              SEG$=PINCRW(FKA_INDEX_BUF$, SEGX);

   5192  4 001135   000000 236000 3                  LDQ     SEGX
         4 001136   000022 736000                    QLS     18
         4 001137   000000 036000 xsym               ADLQ    FKA_INDEX_BUF$
         4 001140   000001 756000 3                  STQ     SEG$

     1732     5193
     1733     5194    2              RETURN;

   5194  4 001141   200024 221300                    LDX1  ! SORT_REC$+3,,AUTO
         4 001142   000001 702211                    TSX2  ! 1,X1

     1734     5195    2   EOF:       ALTRETURN;

   5195  4 001143   200024 221300       EOF          LDX1  ! SORT_REC$+3,,AUTO
         4 001144   000000 702211                    TSX2  ! 0,X1
     1735     5196    2      END NXTSEG;
     1736     5197    1   END FKA$INPUT;
     1737     5198         %EOD;

PL6.E3A0      #006=FKA$INPUT File=FKA$ALTKEY.:E05TSI                             TUE 07/29/97 15:32 Page:348
--  Include file information  --

   B$OBJECT_C.:E05TOU  is referenced.
   FM_FIELD_C.:E05TOU  is referenced.
   FKA_DATA_R.:E05TOU  cannot be made into a system file and is referenced.
   FK_DATA_C.:E05TOU  is referenced.
   FM$FIT.:E05TOU  is referenced.
   FM$GRAN.:E05TOU  is referenced.
   CP_6_SUBS.:E05TOU  is referenced.
   CP_6.:E05TOU  cannot be made into a system file and is referenced.
   B$JIT_C.:E05TOU  was found in the system file and is never referenced.
   CP_6_C.:E05TOU  was found in the system file and is referenced.
      No diagnostics issued in procedure FKA$INPUT.
PL6.E3A0      #006=FKA$INPUT File=FKA$ALTKEY.:E05TSI                             TUE 07/29/97 15:32 Page:349

 **** Variables and constants ****

  ****  Section 001 RoData FKA$INPUT

  ****  Scalars and arrays  ****
OctLoc.c.b A Datatyp(siz) R M Lvl/name                 OctLoc.c.b A Datatyp(siz) R M Lvl/name

     0-0-0/d STRC(504)   r     1 READ_DATA                 16-0-0/d STRC(504)   r     1 READ_INDEX

  ****  Section 003  Data  FKA$INPUT

  ****  Scalars and arrays  ****
OctLoc.c.b A Datatyp(siz) R M Lvl/name                 OctLoc.c.b A Datatyp(siz) R M Lvl/name

     3-0-0/w SBIN        r     1 CRECX                      5-0-0/w STRC(72)    r     1 FM_MISEG
     4-0-0/w SBIN        r     1 INDEX#                     1-0-0/w PTR         r     1 SEG$
     2-0-0/w SBIN        r     1 SEGCNT                     0-0-0/w SBIN        r     1 SEGX

  ****  Auto variables  ****

  ****  Scalars and arrays  ****
OctLoc.c.b A Datatyp(siz) R M Lvl/name                 OctLoc.c.b A Datatyp(siz) R M Lvl/name

     4-0-0/w PTR         r     1 @RECSIZE                   3-0-0/w PTR         r     1 @SORT_REC
     6-0-0/w SBIN        r     1 ENDGRAN                   17-0-0/w PTR         r     1 F$
    15-0-0/w SBIN        r     1 FN                        11-0-0/w PTR         r     1 G$
    13-0-0/w SBIN        r     1 I                         32-0-0/w UBIN        r     1 I
    12-0-0/w PTR         r     1 IRKEY$                     5-0-0/w PTR         r     1 KEY$
     7-0-0/w SBIN        r     1 LASTSEG                   20-0-0/w SBIN        r     1 LEN
    14-0-0/w SBIN        r     1 ODD                       16-0-0/w PTR         r     1 REC$
    *0-0-0/w UBIN        r     1 RECSIZE                   10-0-0/w SBIN        r     1 SIZE
    *0-0-0/c ACHR        r     1 SORT_REC                  21-0-0/w PTR         r     1 SORT_REC$
    *0-0-0/c ASTR(0)     r     1 SORT_REC_BIT              31-0-0/w UBIN(4)     r     1 TEMP

  ****  SYMREF variables  ****

  ****  Scalars and arrays  ****
PL6.E3A0      #006=FKA$INPUT File=FKA$ALTKEY.:E05TSI                             TUE 07/29/97 15:32 Page:350
OctLoc.c.b A Datatyp(siz) R M Lvl/name                 OctLoc.c.b A Datatyp(siz) R M Lvl/name

     0-0-0/w PTR         r     1 FKA_ALTKEYS$               0-0-0/w SBIN        r     1 FKA_BOUND
     0-0-0/c CHAR(4096)  r     1 FKA_DATA_BUF               0-0-0/w PTR         r     1 FKA_DATA_BUF$
     0-0-0/w SBIN        r     1 FKA_DATA_GRAN              0-0-0/w PTR         r     1 FKA_DCB$
     0-0-0/c CHAR(4096)  r     1 FKA_INDEX_BUF              0-0-0/w PTR         r     1 FKA_INDEX_BUF$
     0-0-0/w SBIN        r     1 FKA_INDEX_GRAN             0-0-0/w PTR         r     1 FKA_IRKEYS$
     0-0-0/w SBIN        r     1 FKA_KEYSIZE                0-0-0/w PTR         r     1 FKA_KFIELD$
     0-0-0/w PTR         r     1 FKA_KTPTR$                 0-0-0/w SBIN        r     1 FKA_NUMKEYS
     0-0-0/w PTR         r     1 FKA_RECFIELD$              0-0-0/w SBIN        r     1 FKA_RECSIZE
     0-0-0/w PTR         r     1 FKA_START$                 0-0-0/w UBIN        r     1 FM_FRZERO

  ****  BASED and DCB variables  ****

  ****  Scalars and arrays  ****
OctLoc.c.b A Datatyp(siz) R M Lvl/name                 OctLoc.c.b A Datatyp(siz) R M Lvl/name

     0-0-0/c STRC(9)     r     1 BYT(0:0)                   0-0-0/c ACHR        r     1 CHARS
     0-0-0/c ACHR        r     1 CHRS                       0-0-0/d ASTR(3528)  r     1 F$DCB
     0-0-0/w STRC(72)    r     1 FIELD_START                0-0-0/w STRC(4572)  r     1 FITALTKEYS
     0-0-0/w STRC(180)   r     1 FM$GRAN                    0-0-0/w ASTR(18)    r     1 FM$IRENT
     0-0-0/w ASTR(9)     r     1 FM$KEYENT
     0-0-0/w UBIN(9)     r     1 FM$KEYTBL(0:279)
     0-0-0/w UBIN        r     1 FM$KT(0:69)                0-0-0/w STRC(72)    r     1 FM$MISEG
     0-0-0/w STRC(360)   r     1 IRKEYS                     0-0-0/w STRC(81)    r     1 KFIELD
     0-0-0N  NULL        r     1 M$SI                       0-0-0/d STRC(54)    r     1 RECFIELD
     0-0-0/c STRC        r     1 SORT_ID                    0-0-0/c UBIN(9)     r     1 SORT_INDX
     0-0-0/c BIT (72)    r     1 SORT_MISEG                 0-0-0/c UBIN(18)    r     1 SORT_SEGCNT


   Procedure FKA$INPUT requires 613 words for executable code.
   Procedure FKA$INPUT requires 30 words of local(AUTO) storage.
PL6.E3A0      #006=FKA$INPUT File=FKA$ALTKEY.:E05TSI                             TUE 07/29/97 15:32 Page:351
          *** CROSS REFERENCE LISTING ***
**     DENOTES     IDENTIFIER DEFINITION
<<                 IDENTIFIER'S VALUE SET
>>                 IDENTIFIER'S VALUE USED
<>                 IDENTIFIER SET AND/OR USED
--                 IDENTIFIER REFERENCED
PL6.E3A0      #006=FKA$INPUT File=FKA$ALTKEY.:E05TSI                             TUE 07/29/97 15:32 Page:352
          MINI XREF LISTING

BUILD_IREL
      4903**PROC     5021--CALL
BUILD_NIBFIELD
      4955**PROC     4932--CALL
BUILD_REC
      4999**PROC     5096--CALL
BYT.LOWER
      4690**DCL      4966>>ASSIGN   4971<<ASSIGN
BYT.UPPER
      4689**DCL      4968>>ASSIGN   4973<<ASSIGN
CHARS
      4678**DCL      5017<<ASSIGN   5017>>ASSIGN
CHRS IN PROCEDURE BUILD_IREL
      4904**DCL      4937<<ASSIGN   4937>>ASSIGN
CRECX
      4672**DCL      5053<<ASSIGN   5122<<ASSIGN   5122>>ASSIGN   5124>>DOWHILE  5126<<ASSIGN   5129>>IF
      5130>>ASSIGN   5132>>ASSIGN   5172<<ASSIGN   5177>>IF       5179>>IF       5180>>ASSIGN   5182>>ASSIGN
ENDGRAN
      4675**DCL      5165<<ASSIGN   5170>>DOWHILE  5174<<ASSIGN   5185>>ASSIGN
EOF
      4887**LABEL    4883--CALLALT
EOF IN PROCEDURE NXTINDX
      5103**LABEL    5082--CALLALT  5084--CALLALT
EOF IN PROCEDURE NXTKEY
      5146**LABEL    5125--CALLALT
EOF IN PROCEDURE NXTSEG
      5195**LABEL    5171--CALLALT  5189--CALLALT
ERR IN PROCEDURE BUILD_REC
      5031**LABEL    5004--CALLALT
ERR IN PROCEDURE FLINK
      5057**LABEL    5050--CALLALT
F$
PL6.E3A0      #006=FKA$INPUT File=FKA$ALTKEY.:E05TSI                             TUE 07/29/97 15:32 Page:353
      4685**DCL      4936<<ASSIGN   4937>>ASSIGN   4959<<ASSIGN   4966>>ASSIGN   4968>>ASSIGN
F$DCB.ACTPOS
      4642**DCL      4642--REDEF
F$DCB.ARS#
      4616**DCL      4616--REDEF
F$DCB.ATTR
      4635**DCL      4636--REDEF
F$DCB.BORROW
      4650**DCL      4650--REDEF    4650--REDEF    4650--REDEF
F$DCB.DCBNAME.L
      4664**DCL      4664--IMP-SIZ
F$DCB.EOMCHAR#
      4620**DCL      4620--REDEF
F$DCB.FLDID
      4645**DCL      4645--REDEF
F$DCB.FORM$
      4639**DCL      4639--REDEF
F$DCB.FSECT
      4655**DCL      4655--REDEF
F$DCB.FSN#
      4632**DCL      4632--REDEF    4632--REDEF    4633--REDEF
F$DCB.HEADER$
      4638**DCL      4638--REDEF
F$DCB.IXTNSIZE#
      4636**DCL      4636--REDEF
F$DCB.LASTSTA$
      4625**DCL      4625--REDEF
F$DCB.LVL
      4651**DCL      4651--REDEF
F$DCB.NAME#.C
      4626**DCL      4626--REDEF
F$DCB.NOEOF
      4648**DCL      4648--REDEF
F$DCB.NRECS#
      4637**DCL      4637--REDEF
F$DCB.NRECX
PL6.E3A0      #006=FKA$INPUT File=FKA$ALTKEY.:E05TSI                             TUE 07/29/97 15:32 Page:354
      4656**DCL      4656--REDEF
F$DCB.OHDR
      4648**DCL      4648--REDEF
F$DCB.ORG#
      4631**DCL      4631--REDEF    5012>>IF       5089>>IF       5089>>IF       5136>>IF
F$DCB.PRECNO
      4654**DCL      4654--REDEF
F$DCB.RCSZ
      4660**DCL      4660--REDEF
F$DCB.RES#
      4627**DCL      4627--REDEF
F$DCB.SETX
      4639**DCL      4639--REDEF
F$DCB.TAB$
      4639**DCL      4639--REDEF
F$DCB.TDA
      4653**DCL      4654--REDEF
F$DCB.WSN#
      4627**DCL      4627--REDEF
FIELD_START.OFFSET
      4777**DCL      4936>>ASSIGN   4959>>ASSIGN   4960>>ASSIGN
FITALTKEYS.K.KEYL
      4785**DCL      5014>>ASSIGN
FITALTKEYS.K.KEYX
      4785**DCL      5015>>ASSIGN
FITALTKEYS.K.UNIQUE
      4786**DCL      5089>>IF
FITALTKEYS.UNIQUEBLD
      4784**DCL      5089>>IF
FKA$ABORT
      4881**DCL-ENT  5031--CALL     5057--CALL
FKA_ALTKEYS$
      1044**DCL      4784--IMP-PTR  5014>>ASSIGN   5015>>ASSIGN   5089>>IF       5089>>IF
FKA_BOUND
      1047**DCL      5054<<ASSIGN   5129>>IF       5179>>IF
FKA_DATA_BUF
PL6.E3A0      #006=FKA$INPUT File=FKA$ALTKEY.:E05TSI                             TUE 07/29/97 15:32 Page:355
      1049**DCL      4549--DCLINIT  4550--DCLINIT
FKA_DATA_BUF$
      1049**DCL      4907>>ASSIGN   5015>>ASSIGN
FKA_DATA_GRAN
      1047**DCL      4547--DCLINIT  4548--DCLINIT  5001>>IF       5003<<ASSIGN
FKA_DCB$
      1047**DCL      4610--IMP-PTR  5012>>IF       5089>>IF       5089>>IF       5136>>IF
FKA_INDEX_BUF
      1048**DCL      4589--DCLINIT  4590--DCLINIT
FKA_INDEX_BUF$
      1049**DCL      4703--IMP-PTR  5046>>IF       5049>>ASSIGN   5052>>ASSIGN   5052>>ASSIGN   5124>>DOWHILE
      5133>>ASSIGN   5141>>ASSIGN   5165>>ASSIGN   5173>>ASSIGN   5174>>ASSIGN   5177>>IF       5192>>ASSIGN
FKA_INDEX_GRAN
      1047**DCL      4587--DCLINIT  4588--DCLINIT  5049<<ASSIGN
FKA_IRKEYS$
      1045**DCL      4790--IMP-PTR  4909>>DOINDEX  4910>>ASSIGN   5089>>IF       5089>>IF
FKA_KEYSIZE
      1048**DCL      4941>>ASSIGN   5018>>ASSIGN
FKA_KFIELD$
      1046**DCL      4797--IMP-PTR  4910>>ASSIGN
FKA_KTPTR$
      1047**DCL      4707--IMP-PTR  4707--IMP-PTR  5052<<ASSIGN   5054>>ASSIGN   5130>>ASSIGN   5132>>ASSIGN
      5180>>ASSIGN   5182>>ASSIGN
FKA_NUMKEYS
      1048**DCL      5078>>IF
FKA_RECFIELD$
      1044**DCL      4729--IMP-PTR  4912>>DOCASE   4918>>ASSIGN   4921>>ASSIGN   4924>>ASSIGN   4928>>DOCASE
FKA_RECSIZE
      1048**DCL      4524--IMP-SIZ  4526--IMP-SIZ  4884>>ASSIGN   5007>>ASSIGN
FKA_START$
      1044**DCL      4774--IMP-PTR  4936>>ASSIGN   4959>>ASSIGN   4960>>ASSIGN
FLINK
      5044**PROC     5125--CALL     5171--CALL
FM$GRAN.FCEX
      4704**DCL      5052>>ASSIGN   5173>>ASSIGN
FM$GRAN.FLINK
PL6.E3A0      #006=FKA$INPUT File=FKA$ALTKEY.:E05TSI                             TUE 07/29/97 15:32 Page:356
      4704**DCL      5046>>IF       5049>>ASSIGN
FM$GRAN.KEYCNT
      4704**DCL      5124>>DOWHILE  5177>>IF
FM$GRAN.NAVX
      4703**DCL      5165>>ASSIGN   5174>>ASSIGN
FM$IRENT.KLB
      4803**DCL      4803--IMP-SIZ  5137>>ASSIGN
FM$KEYENT.D
      4800**DCL      5119>>DOUNTIL
FM$KEYENT.KLB
      4800**DCL      4800--IMP-SIZ  5139>>ASSIGN
FM$KEYTBL
      4707**DCL      5054>>ASSIGN   5130>>ASSIGN   5132>>ASSIGN   5173--ASSIGN   5180>>ASSIGN   5182>>ASSIGN
FM$KT
      4707**DCL      4707--REDEF
FM$MISEG
      4710**DCL      5028>>ASSIGN   5142>>ASSIGN
FM$MISEG.FAK
      4710**DCL      5143<<ASSIGN
FM_FRZERO
      4692**DCL      5001>>IF       5003>>ASSIGN   5049>>ASSIGN
FM_MISEG
      4714**DCL      5142<<ASSIGN
FM_MISEG.GDA
      4715**DCL      5001>>IF       5003>>ASSIGN   5023>>ASSIGN
FM_MISEG.GX
      4714**DCL      4907>>ASSIGN   5015>>ASSIGN   5024>>ASSIGN
FN
      4683**DCL      4910<<ASSIGN   4912>>DOCASE   4918>>ASSIGN   4921>>ASSIGN   4924>>ASSIGN   4928>>DOCASE
      4936>>ASSIGN   4959>>ASSIGN   4960>>ASSIGN
G$
      4679**DCL      5015<<ASSIGN   5017>>ASSIGN
I
      4681**DCL      4909<<DOINDEX  4910>>ASSIGN
I IN PROCEDURE BUILD_NIBFIELD
      4957**DCL      4964<<DOINDEX  4965>>IF       4966>>ASSIGN   4968>>ASSIGN   4970>>IF       4971>>ASSIGN
PL6.E3A0      #006=FKA$INPUT File=FKA$ALTKEY.:E05TSI                             TUE 07/29/97 15:32 Page:357
      4973>>ASSIGN
INDEX#
      4673**DCL      4909>>DOINDEX  4910>>ASSIGN   5009>>ASSIGN   5014>>ASSIGN   5015>>ASSIGN   5078>>IF
      5078>>IF       5080<<ASSIGN   5087<<ASSIGN   5087>>ASSIGN   5089>>IF       5089>>IF
IRKEY$
      4680**DCL      4906<<ASSIGN   4933<<ASSIGN   4933>>ASSIGN   4937>>ASSIGN   4938<<ASSIGN   4938>>ASSIGN
      4971>>ASSIGN   4973>>ASSIGN
IRKEYS.K.FIRSTFIELD
      4791**DCL      4910>>ASSIGN
IRKEYS.K.NFIELDS
      4791**DCL      4909>>DOINDEX
IRKEYS.K.UNIQUE
      4792**DCL      5089>>IF
IRKEYS.UNIQUEBLD
      4790**DCL      5089>>IF
KEY$
      4674**DCL      4800--IMP-PTR  4803--IMP-PTR  5119>>DOUNTIL  5133<<ASSIGN   5137>>ASSIGN   5139>>ASSIGN
KFIELD.FIELD
      4797**DCL      4910>>ASSIGN
LASTSEG
      4676**DCL      5180<<ASSIGN   5182<<ASSIGN   5185<<ASSIGN   5187>>IF
LEN
      4686**DCL      4904--IMP-SIZ  4918<<ASSIGN   4921<<ASSIGN   4924<<ASSIGN   4933>>ASSIGN   4937>>ASSIGN
      4937>>ASSIGN   4938>>ASSIGN   4964>>DOINDEX
LOOP IN PROCEDURE NXTINDX
      5077**LABEL    5097--EXIT
M$READ
        58**DCL-ENT  5004--CALL     5050--CALL
NXTINDX
      5075**PROC     4883--CALL
NXTKEY
      5117**PROC     5084--CALL     5189--CALL
NXTSEG
      5163**PROC     5082--CALL
ODD
      4682**DCL      4960<<ASSIGN   4961>>IF       4962<<ASSIGN   4965>>IF       4966>>ASSIGN   4968>>ASSIGN
PL6.E3A0      #006=FKA$INPUT File=FKA$ALTKEY.:E05TSI                             TUE 07/29/97 15:32 Page:358
READ_DATA
      4547**DCL      5004<>CALL
READ_DATA.STATION_
      4550**DCL      4551--REDEF
READ_DATA.V
      4551**DCL      4547--DCLINIT
READ_DATA.V.DVBYTE.REREAD#
      4562**DCL      4562--REDEF
READ_DATA.V.INDX#
      4560**DCL      4560--REDEF
READ_INDEX
      4587**DCL      5050<>CALL
READ_INDEX.STATION_
      4590**DCL      4591--REDEF
READ_INDEX.V
      4591**DCL      4587--DCLINIT
READ_INDEX.V.DVBYTE.REREAD#
      4602**DCL      4602--REDEF
READ_INDEX.V.INDX#
      4600**DCL      4600--REDEF
REC$
      4684**DCL      4907<<ASSIGN   4936>>ASSIGN   4959>>ASSIGN
RECFIELD.DECFIELD.LEN#
      4738**DCL      4918>>ASSIGN
RECFIELD.FIELD
      4737**DCL      4737--REDEF
RECFIELD.FIELD.LEN#
      4737**DCL      4921>>ASSIGN   4924>>ASSIGN
RECFIELD.FIELD.TYPE#
      4737**DCL      4912>>DOCASE   4928>>DOCASE
RECSIZE
      4527**DCL        46--PROC     4884<<ASSIGN
SEG$
      4670**DCL      4710--IMP-PTR  5028>>ASSIGN   5141<<ASSIGN   5142>>ASSIGN   5143>>ASSIGN   5192<<ASSIGN
SEGCNT
      4671**DCL      5026>>ASSIGN   5121<<ASSIGN   5168<<ASSIGN   5168>>ASSIGN
PL6.E3A0      #006=FKA$INPUT File=FKA$ALTKEY.:E05TSI                             TUE 07/29/97 15:32 Page:359
SEGX
      4669**DCL      5081>>IF       5120<<ASSIGN   5130<<ASSIGN   5132<<ASSIGN   5133>>ASSIGN   5137<<ASSIGN
      5137>>ASSIGN   5139<<ASSIGN   5139>>ASSIGN   5141>>ASSIGN   5167<<ASSIGN   5167>>ASSIGN   5170>>DOWHILE
      5173<<ASSIGN   5187>>IF       5192>>ASSIGN
SIZE
      4677**DCL      4678--IMP-SIZ  5014<<ASSIGN   5017>>ASSIGN   5017>>ASSIGN
SORT_ID.DA
      4697**DCL      5023<<ASSIGN
SORT_ID.GX
      4698**DCL      5024<<ASSIGN
SORT_INDX
      4695**DCL      5009<<ASSIGN
SORT_MISEG
      4700**DCL      5028<<ASSIGN
SORT_REC
      4524**DCL        46--PROC     4525--REDEF    5008--ASSIGN
SORT_REC$
      4694**DCL      4695--IMP-PTR  4696--IMP-PTR  4699--IMP-PTR  4700--IMP-PTR  4906>>ASSIGN   4941<<ASSIGN
      4941>>ASSIGN   5008<<ASSIGN   5009>>ASSIGN   5010<<ASSIGN   5010>>ASSIGN   5017>>ASSIGN   5018<<ASSIGN
      5018>>ASSIGN   5023>>ASSIGN   5024>>ASSIGN   5025<<ASSIGN   5025>>ASSIGN   5026>>ASSIGN   5027<<ASSIGN
      5027>>ASSIGN   5028>>ASSIGN
SORT_REC_BIT
      4525**DCL      5007<<ASSIGN
SORT_SEGCNT
      4699**DCL      5026<<ASSIGN
TEMP IN PROCEDURE BUILD_NIBFIELD
      4956**DCL      4966<<ASSIGN   4968<<ASSIGN   4971>>ASSIGN   4973>>ASSIGN
PL6.E3A0      #006=FKA$INPUT File=FKA$ALTKEY.:E05TSI                             TUE 07/29/97 15:32 Page:360
              *** CROSS REFERENCE LISTING ***
    **     DENOTES     IDENTIFIER DEFINITION
    <<                 IDENTIFIER'S VALUE SET
    >>                 IDENTIFIER'S VALUE USED
    <>                 IDENTIFIER SET AND/OR USED
    --                 IDENTIFIER REFERENCED
PL6.E3A0      #006=FKA$INPUT File=FKA$ALTKEY.:E05TSI                             TUE 07/29/97 15:32 Page:361
              MINI UREF LISTING

FKA$INPUT      46**PROC
FKA_CLOSE_DONE    1051**DCL
FKA_CMDVAR    1050**DCL
FKA_CMDVAR_EXIST    1050**DCL
FKA_CMDVAR_SET    1050**DCL
FKA_CODE19$    1046**DCL
FKA_CODE20$    1046**DCL
FKA_DUPS    1048**DCL
FKA_FIELD_START_DATA    1045**DCL
FKA_FILE_OPEN    1050**DCL
FKA_IRKEYS_DATA    1045**DCL
FKA_KFIELD_DATA    1046**DCL
FKA_M$CLOSE_ERR    1051**DCL
FKA_MON    1044**DCL
FKA_UNIQUE    1044**DCL
M$ACCT      74**DCL-ENT
M$ACTIVATE      77**DCL-ENT
M$ALIB      70**DCL-ENT
M$ASUSER      72**DCL-ENT
M$ATTACH      79**DCL-ENT
M$BADPP      97**DCL-ENT
M$CGCTL      78**DCL-ENT
M$CGINFO      78**DCL-ENT
M$CHECK      59**DCL-ENT
M$CHGUNIT     117**DCL-ENT
M$CLOSE      57**DCL-ENT
M$CLRSTK     115**DCL-ENT
M$CMDVAR     126**DCL-ENT
M$CONFIG      87**DCL-ENT
M$CORRES      62**DCL-ENT
M$CPEXIT      71**DCL-ENT
M$CVM      95**DCL-ENT
PL6.E3A0      #006=FKA$INPUT File=FKA$ALTKEY.:E05TSI                             TUE 07/29/97 15:32 Page:362
M$CVOL      60**DCL-ENT
M$DCLFLD      87**DCL-ENT
M$DEACTIVATE      77**DCL-ENT
M$DELREC      59**DCL-ENT
M$DEQ     124**DCL-ENT
M$DETACH      79**DCL-ENT
M$DEVICE      61**DCL-ENT
M$DISPLAY     124**DCL-ENT
M$DISPRES      64**DCL-ENT
M$DLIB      70**DCL-ENT
M$DRIBBLE      87**DCL-ENT
M$DRTN     115**DCL-ENT
M$DSUSER      72**DCL-ENT
M$ENQ     123**DCL-ENT
M$EOM      82**DCL-ENT
M$ERASE      88**DCL-ENT
M$ERR      69**DCL-ENT
M$ERRMSG     120**DCL-ENT
M$EVENT     112**DCL-ENT
M$EXHUME     121**DCL-ENT
M$EXIT      69**DCL-ENT
M$EXTEND      61**DCL-ENT
M$FDP      93**DCL-ENT
M$FDS      92**DCL-ENT
M$FEBOOT      85**DCL-ENT
M$FECTL      86**DCL-ENT
M$FEDUMP      85**DCL-ENT
M$FID     120**DCL-ENT
M$FINDPROC      74**DCL-ENT
M$FSUSER      72**DCL-ENT
M$FVP      94**DCL-ENT
M$FWCG      78**DCL-ENT
M$GBPL      98**DCL-ENT
M$GDDL      94**DCL-ENT
M$GDP      93**DCL-ENT
M$GDS      92**DCL-ENT
PL6.E3A0      #006=FKA$INPUT File=FKA$ALTKEY.:E05TSI                             TUE 07/29/97 15:32 Page:363
M$GETDCB      63**DCL-ENT
M$GETMOUSE     103**DCL-ENT
M$GETPM     104**DCL-ENT
M$GJOB     122**DCL-ENT
M$GLINEATTR      82**DCL-ENT
M$GOODPP      97**DCL-ENT
M$GPLATEN      90**DCL-ENT
M$GPROMPT      89**DCL-ENT
M$GTRMATTR      83**DCL-ENT
M$GTRMCTL      81**DCL-ENT
M$GTRMTAB      84**DCL-ENT
M$GVP      93**DCL-ENT
M$HELP     120**DCL-ENT
M$INT     112**DCL-ENT
M$INTRTN      73**DCL-ENT
M$IOQ     108**DCL-ENT
M$JOBSTATS     122**DCL-ENT
M$KEYIN      62**DCL-ENT
M$LDEV      57**DCL-ENT
M$LDTRC      70**DCL-ENT
M$LIMIT      63**DCL-ENT
M$LINES      62**DCL-ENT
M$LINK      69**DCL-ENT
M$MADMUCK      65**DCL-ENT
M$MAKUSER      96**DCL-ENT
M$MBS      64**DCL-ENT
M$MDFFLD      88**DCL-ENT
M$MERC     113**DCL-ENT
M$MERCS     114**DCL-ENT
M$MIRROR     108**DCL-ENT
M$MONINFO     125**DCL-ENT
M$MPL      98**DCL-ENT
M$NODEINFO      89**DCL-ENT
M$NXTUSR     123**DCL-ENT
M$OCMSG     121**DCL-ENT
M$OLAY      69**DCL-ENT
PL6.E3A0      #006=FKA$INPUT File=FKA$ALTKEY.:E05TSI                             TUE 07/29/97 15:32 Page:364
M$OPEN      57**DCL-ENT
M$PAS      98**DCL-ENT
M$PATHCON     121**DCL-ENT
M$PDS      92**DCL-ENT
M$PFIL      59**DCL-ENT
M$PLATEN      83**DCL-ENT
M$PRECORD      61**DCL-ENT
M$PROCNAME      74**DCL-ENT
M$PROFILE      85**DCL-ENT
M$PROMPT      81**DCL-ENT
M$RACST      65**DCL-ENT
M$RDSYSLOG     106**DCL-ENT
M$RELDCB      63**DCL-ENT
M$RELRES      64**DCL-ENT
M$RELSTARF      66**DCL-ENT
M$REM      66**DCL-ENT
M$RENV     113**DCL-ENT
M$REQUIRE      65**DCL-ENT
M$RETRY     114**DCL-ENT
M$RETRYS     114**DCL-ENT
M$REW      60**DCL-ENT
M$RLSFLD      88**DCL-ENT
M$RPRIV     116**DCL-ENT
M$RSPP      95**DCL-ENT
M$RSWITCH     117**DCL-ENT
M$RUE     123**DCL-ENT
M$SAD      96**DCL-ENT
M$SAVE      72**DCL-ENT
M$SCON      73**DCL-ENT
M$SCREECH      71**DCL-ENT
M$SENV     113**DCL-ENT
M$SETFMA      57**DCL-ENT
M$SETFP      86**DCL-ENT
M$SI    4667**DCL
M$SINPUT      84**DCL-ENT
M$SLCFLD      89**DCL-ENT
PL6.E3A0      #006=FKA$INPUT File=FKA$ALTKEY.:E05TSI                             TUE 07/29/97 15:32 Page:365
M$SMOUSE     103**DCL-ENT
M$SMPRT      95**DCL-ENT
M$SPRIV     116**DCL-ENT
M$SSC      96**DCL-ENT
M$SSWITCH     116**DCL-ENT
M$STATE     125**DCL-ENT
M$STD      97**DCL-ENT
M$STIMER     111**DCL-ENT
M$STLPP      94**DCL-ENT
M$STRAP     111**DCL-ENT
M$STRMATTR      83**DCL-ENT
M$STRMCTL      81**DCL-ENT
M$STRMTAB      84**DCL-ENT
M$SYMBIO     122**DCL-ENT
M$SYSCON     108**DCL-ENT
M$SYSID     126**DCL-ENT
M$TDCLOSE     107**DCL-ENT
M$TDIO     107**DCL-ENT
M$TDOPEN     106**DCL-ENT
M$TDREQCPU     107**DCL-ENT
M$TEMPWROC     101**DCL-ENT
M$TIME     124**DCL-ENT
M$TRAP     111**DCL-ENT
M$TRMISC      86**DCL-ENT
M$TRMPRG      82**DCL-ENT
M$TRTN     115**DCL-ENT
M$TRUNC      58**DCL-ENT
M$TTIMER     111**DCL-ENT
M$UC      81**DCL
M$UMPL      98**DCL-ENT
M$UNFID     120**DCL-ENT
M$UNLATCH      77**DCL-ENT
M$UNSHARE      74**DCL-ENT
M$USRFIELD     117**DCL-ENT
M$VIRTUAL      92**DCL-ENT
M$WAIT     115**DCL-ENT
PL6.E3A0      #006=FKA$INPUT File=FKA$ALTKEY.:E05TSI                             TUE 07/29/97 15:32 Page:366
M$WEOF      60**DCL-ENT
M$WRITE      58**DCL-ENT
M$WRSYSLOG     106**DCL-ENT
M$XCON     112**DCL-ENT
M$XCONRTN      73**DCL-ENT
M$XEQTIME     125**DCL-ENT
M$XFLUSH      66**DCL-ENT
M$XMOUSE     103**DCL-ENT
M$XXX      69**DCL-ENT
M$YC      71**DCL-ENT

