PL6.E3A0      #002=FLB$EFT_BRK File=FLB$EFT.:E05TSI                              TUE 07/29/97 15:37 Page:642
     4217        1        /*T***********************************************************/
     4218        2        /*T*                                                         */
     4219        3        /*T* Copyright (c) Bull HN Information Systems Inc., 1997    */
     4220        4        /*T*                                                         */
     4221        5        /*T***********************************************************/
     4222        6        FLB$EFT_BRK: PROC ASYNC;
     4223        7        /*F*  NAME: FLB$EFT_BRK
     4224        8              PURPOSE: Break handling routine.
     4225        9        */
     4226       10
     4227       11         /***
     4228       12          *** INCLUDE
     4229       13          ***/
     4230       14
     4231       15        %INCLUDE CP_6;
     4232     5574        %INCLUDE FLI_DATA_R;
     4233     6988        %INCLUDE XUD_UTS_M;
     4234     7070
     4235     7071         /***
     4236     7072          *** DCB
     4237     7073          ***/
     4238     7074
     4239     7075    1   DCL M$ME DCB;
     4240     7076
     4241     7077        /***
     4242     7078         *** ENTRY
     4243     7079         ***/
     4244     7080
     4245     7081    1   DCL FLI$RPT_ERR ENTRY(5);
     4246     7082        %XUD$UTS_ENTRIES;
     4247     7114
     4248     7115         /***
     4249     7116          *** SYMREF
     4250     7117          ***/
     4251     7118
     4252     7119    1   DCL BREAK_CONTINUED BIT(1) SYMREF;
     4253     7120    1   DCL BREAK_COUNT SBIN SYMREF;
PL6.E3A0      #002=FLB$EFT_BRK File=FLB$EFT.:E05TSI                              TUE 07/29/97 15:37 Page:643
     4254     7121    1   DCL BREAK_DCB# SBIN SYMREF;
     4255     7122    1   DCL BREAK_TASK CHAR(18) SYMREF;
     4256     7123
     4257     7124         /***
     4258     7125          *** STATIC
     4259     7126          ***/
     4260     7127
     4261     7128    1   DCL NBR_BREAK_TASK_CHARS SBIN STATIC;
     4262     7129    1   DCL NBR_UNFIDCHARS SBIN STATIC;
     4263     7130    1   DCL BRK_MSG CHAR(100) STATIC;
     4264     7131    1   DCL UNFIDCHARS CHAR(50) STATIC;
     4265     7132    1   DCL ANSWER CHAR(4) STATIC;
     4266     7133    1   DCL BREAK_DURING_BREAK BIT(1) STATIC INIT('0'B);
     4267     7134    1   DCL BREAK_UTS UBIN WORD STATIC;
     4268     7135    1   DCL X_TO_ABORT BIT(1) STATIC;
     4269     7136
     4270     7137        /***
     4271     7138         *** CONSTANT
     4272     7139         ***/
     4273     7140
     4274     7141    1   DCL X_PROMPT CHAR(1) CONSTANT INIT('-');
     4275     7142    1   DCL ASTERISK CHAR(0) CONSTANT INIT('*');
     4276     7143
     4277     7144        /***
     4278     7145         *** AUTO
     4279     7146         ***/
     4280     7147
     4281     7148    1   DCL TEMP_CENTISECS SBIN AUTO;
     4282     7149
     4283     7150         /***
     4284     7151          *** FPT
     4285     7152          ***/
     4286     7153
     4287     7154        %FPT_TRMPRG(FPTN = FPT_TRMPRG,
     4288     7155                    RSTBRK = YES,
     4289     7156                    STCLASS=CONSTANT );
     4290     7185
PL6.E3A0      #002=FLB$EFT_BRK File=FLB$EFT.:E05TSI                              TUE 07/29/97 15:37 Page:644
     4291     7186        %FPT_READ( FPTN=GET_ANSWER,
     4292     7187                   DCB=M$ME,
     4293     7188                   BUF=ANSWER );
     4294     7227
     4295     7228        %FPT_UNFID( FPTN=BREAK_FILE,
     4296     7229                    TEXTFID=UNFIDCHARS );
     4297     7247
     4298     7248        %FPT_WRITE( FPTN=TELL_BREAK,
     4299     7249                    DCB=M$ME,
     4300     7250                    BUF=BRK_MSG,
     4301     7251                    VFC=YES );
     4302     7282
     4303     7283        %FPT_PROMPT( FPTN=SET_X_PROMPT,
     4304     7284                     PROMPT=X_PROMPT );
     4305     7312
     4306     7313        %FPT_PROMPT( FPTN=SET_PROMPT,
     4307     7314                     PROMPT=ASTERISK );
     4308     7342
     4309     7343        /****************************************/
     4310     7344
     4311     7345    2      DO INHIBIT;
     4312     7346    2         IF BREAK_DURING_BREAK
     4313     7347    3          THEN DO;
     4314     7348    3            X_TO_ABORT = '1'B;
     4315     7349    3            CALL M$CLRSTK
     4316     7350    4             WHENALTRETURN DO;
     4317     7351    4               CALL FLI$RPT_ERR;
     4318     7352    4               CALL M$EXIT;
     4319     7353    4               END;
     4320     7354    3            END;
     4321     7355    3          ELSE DO;
     4322     7356    3            BREAK_DURING_BREAK = '1'B;
     4323     7357    3            X_TO_ABORT = '0'B;
     4324     7358    3            CALL M$TIME( GET_NOW_UTS );
     4325     7359    3            BREAK_UTS = NOW_UTS;
     4326     7360    3            END;
     4327     7361    2         END;
PL6.E3A0      #002=FLB$EFT_BRK File=FLB$EFT.:E05TSI                              TUE 07/29/97 15:37 Page:645
     4328     7362
     4329     7363    1      IF BREAK_DCB# ~= 0
     4330     7364    2       THEN DO;
     4331     7365    2         BREAK_FILE.V.DCB# = BREAK_DCB#;
     4332     7366    2         CALL M$UNFID( BREAK_FILE )
     4333     7367    3          WHENALTRETURN DO;
     4334     7368    3            UNFIDCHARS = ' ';
     4335     7369    3            END;
     4336     7370    2         END;
     4337     7371    2       ELSE DO;
     4338     7372    2         UNFIDCHARS = ' ';
     4339     7373    2         END;
     4340     7374
     4341     7375    1      CALL INDEX( NBR_BREAK_TASK_CHARS, '!', BREAK_TASK );
     4342     7376    1      CALL INDEX( NBR_UNFIDCHARS, ' ', UNFIDCHARS );
     4343     7377
     4344     7378    1      IF BREAK_COUNT <= 0
     4345     7379    2       THEN DO;
     4346     7380    2         IF X_TO_ABORT
     4347     7381    3          THEN DO;
     4348     7382    3            BRK_MSG = '@ X to abort';
     4349     7383    3            TELL_BREAK.BUF_.BOUND = LENGTHV('@ X to abort');
     4350     7384    3            END;
     4351     7385    3          ELSE DO;
     4352     7386    3            CALL CONCAT( BRK_MSG, '@...', SUBSTR(BREAK_TASK,0,NBR_BREAK_TASK_CHARS),
     4353     7387    3              ' ', SUBSTR(UNFIDCHARS,0,NBR_UNFIDCHARS), '  X to abort' );
     4354     7388    3            TELL_BREAK.BUF_.BOUND = 4 + NBR_BREAK_TASK_CHARS + 1 +
     4355     7389    3              NBR_UNFIDCHARS + LENGTHV('  X TO ABORT');
     4356     7390    3            END;
     4357     7391    2         END;
     4358     7392    2       ELSE DO;
     4359     7393    2         CALL CONCAT( BRK_MSG, '@...', SUBSTR(BREAK_TASK,0,NBR_BREAK_TASK_CHARS),
     4360     7394    2           ' ', SUBSTR(UNFIDCHARS,0,NBR_UNFIDCHARS), '  ... will break when possible' )
              7394                    ;
     4361     7395    2         TELL_BREAK.BUF_.BOUND = 4 + NBR_BREAK_TASK_CHARS + 1 +
     4362     7396    2           NBR_UNFIDCHARS + LENGTHV('  ... will break when possible' );
     4363     7397    2         END;
PL6.E3A0      #002=FLB$EFT_BRK File=FLB$EFT.:E05TSI                              TUE 07/29/97 15:37 Page:646
     4364     7398
     4365     7399    1      CALL M$TRMPRG(FPT_TRMPRG);
     4366     7400    1      CALL M$WRITE( TELL_BREAK );
     4367     7401
     4368     7402    1      IF BREAK_COUNT <= 0
     4369     7403    2       THEN DO;
     4370     7404
     4371     7405        /*    CALL M$PROMPT( SET_X_PROMPT );*/
     4372     7406    2         ANSWER = ' ';
     4373     7407    2         CALL M$READ( GET_ANSWER );
     4374     7408        /*    CALL M$PROMPT( SET_PROMPT );*/
     4375     7409
     4376     7410    2         IF ANSWER = 'X' OR ANSWER = 'x'
     4377     7411    3          THEN DO;
     4378     7412    3            BREAK_COUNT = BREAK_COUNT + 1;
     4379     7413    3            BREAK_CONTINUED = '0'B;
     4380     7414    3            END;
     4381     7415    2          ELSE BREAK_CONTINUED = '1'B;
     4382     7416
     4383     7417    2         CALL M$TIME( GET_NOW_UTS );
     4384     7418    2         CALL XUD$UTS_DIFF(TEMP_CENTISECS,NOW_UTS,BREAK_UTS);
     4385     7419    2         ACCUMULATED_BREAK_TIME = ACCUMULATED_BREAK_TIME + TEMP_CENTISECS;
     4386     7420    2         END;
     4387     7421    2      DO INHIBIT;
     4388     7422    2         BREAK_DURING_BREAK = '0'B;
     4389     7423    2         RETURN;
     4390     7424    2         END;
     4391     7425
     4392     7426    1   END FLB$EFT_BRK;

PL6.E3A0      #002=FLB$EFT_BRK File=FLB$EFT.:E05TSI                              TUE 07/29/97 15:37 Page:647
--  Include file information  --

   XUD_UTS_M.:E05TOU  is referenced.
   B_MICROPS_C.:E05TOU  is referenced.
   FLB_SUBS_C.:E05TOU  is referenced.
   FLI_DATA_R.:E05TOU  cannot be made into a system file and is referenced.
   CP_6_C.:E05TOU  is referenced.
   CP_6.:E05TOU  cannot be made into a system file and is referenced.
      No diagnostics issued in procedure FLB$EFT_BRK.

   Procedure FLB$EFT_BRK requires 185 words for executable code.
   Procedure FLB$EFT_BRK requires 8 words of local(AUTO) storage.

    No errors detected in file FLB$EFT.:E05TSI    .

PL6.E3A0      #002=FLB$EFT_BRK File=FLB$EFT.:E05TSI                              TUE 07/29/97 15:37 Page:648

 Object Unit name= FLB$EFT_BRK                                File name= FLB$EFT.:E05TOU
 UTS= JUL 29 '97 15:37:06.12 TUE                              Compiler= PL-6/E31         Sev=      00
 SharedLib= :SHARED_SYSTEM                                    Alt SharedLib=


    ****  Control sections  ****

 Sect   Type Bound  Init  Size OctSiz  Section name(segment info)
    0   DCB   even  none     0      0  M$UC
    1   DCB   even  none     0      0  M$PRE_RET
    2   Data  even  none   118    166  FLB$EFT_BRK
    3   DCB   even  none     0      0  M$ME
    4  RoData even  UTS     28     34  FLB$EFT_BRK
    5   Proc  even  none   185    271  FLB$EFT_BRK
    6  RoData even  none     6      6  FLB$EFT_BRK

    ****  Entry defs  ****

                              Check   Calling
                             calling  sequence
  Sect OctLoc Primary Altret sequence   type   Parms  Name
     5      0   yes            yes     Async       0  FLB$EFT_BRK

  ****  Entry refs  ****

         Check        Calling
        calling       sequence
Altret sequence SRef   type   Args  Name
         yes           Std       5 FLI$RPT_ERR
 yes     yes           Std       3 XUD$UTS_DIFF
                       nStd      0 X66_AAUTO
                       Std       0 B_CONSPOOL_D
                       nStd      0 X66_AARET
PL6.E3A0      #002=FLB$EFT_BRK File=FLB$EFT.:E05TSI                              TUE 07/29/97 15:37 Page:649

  ****  Data refs  ****

  Flags:  r = read only, s = secondary
Flgs Name                             Flgs Name                             Flgs Name
     M$UC                                  TAPE_DCBLIST$                         SNVECLIST$
     NOW_UTS                               GET_NOW_UTS                           ACCUMULATED_BREAK_TIME
     DPLIST$                               DPRESLIST$                            DISK_FILE_SPEC$
     SPECCHARS                             EFTWORD                               M$PRE_RET
     RET_CMDS_NAME                         M$ME                                  BREAK_CONTINUED
     BREAK_COUNT                           BREAK_DCB#                            BREAK_TASK
     B_VECTNIL

  ****  Segment refs  ****

  Flags:  r = read only, s = secondary
Flgs Name                             Flgs Name                             Flgs Name
     ISSID                                 NULLSID
PL6.E3A0      #002=FLB$EFT_BRK File=FLB$EFT.:E05TSI                              TUE 07/29/97 15:37 Page:650


     4217        1        /*T***********************************************************/
     4218        2        /*T*                                                         */
     4219        3        /*T* Copyright (c) Bull HN Information Systems Inc., 1997    */
     4220        4        /*T*                                                         */
     4221        5        /*T***********************************************************/
     4222        6        FLB$EFT_BRK: PROC ASYNC;

      6  5 000000   000000 700200 xent  FLB$EFT_BRK  TSX0  ! X66_AAUTO
         5 000001   000010 000000                    ZERO    8,0

     4223        7        /*F*  NAME: FLB$EFT_BRK
     4224        8              PURPOSE: Break handling routine.
     4225        9        */
     4226       10
     4227       11         /***
     4228       12          *** INCLUDE
     4229       13          ***/
     4230       14
     4231       15        %INCLUDE CP_6;
     4232     5574        %INCLUDE FLI_DATA_R;
     4233     6988        %INCLUDE XUD_UTS_M;
     4234     7070
     4235     7071         /***
     4236     7072          *** DCB
     4237     7073          ***/
     4238     7074
     4239     7075    1   DCL M$ME DCB;
     4240     7076
     4241     7077        /***
     4242     7078         *** ENTRY
     4243     7079         ***/
     4244     7080
     4245     7081    1   DCL FLI$RPT_ERR ENTRY(5);
     4246     7082        %XUD$UTS_ENTRIES;
     4247     7114
     4248     7115         /***
PL6.E3A0      #002=FLB$EFT_BRK File=FLB$EFT.:E05TSI                              TUE 07/29/97 15:37 Page:651
     4249     7116          *** SYMREF
     4250     7117          ***/
     4251     7118
     4252     7119    1   DCL BREAK_CONTINUED BIT(1) SYMREF;
     4253     7120    1   DCL BREAK_COUNT SBIN SYMREF;
     4254     7121    1   DCL BREAK_DCB# SBIN SYMREF;
     4255     7122    1   DCL BREAK_TASK CHAR(18) SYMREF;
     4256     7123
     4257     7124         /***
     4258     7125          *** STATIC
     4259     7126          ***/
     4260     7127
     4261     7128    1   DCL NBR_BREAK_TASK_CHARS SBIN STATIC;
     4262     7129    1   DCL NBR_UNFIDCHARS SBIN STATIC;
     4263     7130    1   DCL BRK_MSG CHAR(100) STATIC;
     4264     7131    1   DCL UNFIDCHARS CHAR(50) STATIC;
     4265     7132    1   DCL ANSWER CHAR(4) STATIC;
     4266     7133    1   DCL BREAK_DURING_BREAK BIT(1) STATIC INIT('0'B);
     4267     7134    1   DCL BREAK_UTS UBIN WORD STATIC;
     4268     7135    1   DCL X_TO_ABORT BIT(1) STATIC;
     4269     7136
     4270     7137        /***
     4271     7138         *** CONSTANT
     4272     7139         ***/
     4273     7140
     4274     7141    1   DCL X_PROMPT CHAR(1) CONSTANT INIT('-');
     4275     7142    1   DCL ASTERISK CHAR(0) CONSTANT INIT('*');
     4276     7143
     4277     7144        /***
     4278     7145         *** AUTO
     4279     7146         ***/
     4280     7147
     4281     7148    1   DCL TEMP_CENTISECS SBIN AUTO;
     4282     7149
     4283     7150         /***
     4284     7151          *** FPT
     4285     7152          ***/
PL6.E3A0      #002=FLB$EFT_BRK File=FLB$EFT.:E05TSI                              TUE 07/29/97 15:37 Page:652
     4286     7153
     4287     7154        %FPT_TRMPRG(FPTN = FPT_TRMPRG,
     4288     7155                    RSTBRK = YES,
     4289     7156                    STCLASS=CONSTANT );
     4290     7185
     4291     7186        %FPT_READ( FPTN=GET_ANSWER,
     4292     7187                   DCB=M$ME,
     4293     7188                   BUF=ANSWER );
     4294     7227
     4295     7228        %FPT_UNFID( FPTN=BREAK_FILE,
     4296     7229                    TEXTFID=UNFIDCHARS );
     4297     7247
     4298     7248        %FPT_WRITE( FPTN=TELL_BREAK,
     4299     7249                    DCB=M$ME,
     4300     7250                    BUF=BRK_MSG,
     4301     7251                    VFC=YES );
     4302     7282
     4303     7283        %FPT_PROMPT( FPTN=SET_X_PROMPT,
     4304     7284                     PROMPT=X_PROMPT );
     4305     7312
     4306     7313        %FPT_PROMPT( FPTN=SET_PROMPT,
     4307     7314                     PROMPT=ASTERISK );
     4308     7342
     4309     7343        /****************************************/
     4310     7344
     4311     7345    2      DO INHIBIT;

     4312     7346    2         IF BREAK_DURING_BREAK

   7346  5 000002   000057 234200 2                  SZN   ! BREAK_DURING_BREAK
         5 000003   000020 605200 5                  TPL   ! s:7356

     4313     7347    3          THEN DO;

     4314     7348    3            X_TO_ABORT = '1'B;

   7348  5 000004   400000 236203                    LDQ   ! -131072,DU
PL6.E3A0      #002=FLB$EFT_BRK File=FLB$EFT.:E05TSI                              TUE 07/29/97 15:37 Page:653
         5 000005   000061 756200 2                  STQ   ! X_TO_ABORT

     4315     7349    3            CALL M$CLRSTK

   7349  5 000006   410013 713600                    CLIMB ! alt,+4107
         5 000007   000000 401760                    pmme    nvectors=0
         5 000010   000012 702200 5                  TSX2  ! s:7351
         5 000011   000017 710200 5                  TRA   ! s:7354

     4316     7350    4             WHENALTRETURN DO;

     4317     7351    4               CALL FLI$RPT_ERR;

   7351  5 000012   000002 631600 xsym               EPPR1 ! B_VECTNIL+2
         5 000013   000000 701200 xent               TSX1  ! FLI$RPT_ERR
         5 000014   000000 011200                    NOP   ! 0

     4318     7352    4               CALL M$EXIT;

   7352  5 000015   000001 713600                    CLIMB ! exit
         5 000016   000000 401760                    pmme    nvectors=0

     4319     7353    4               END;

     4320     7354    3            END;

   7354  5 000017   000030 710200 5                  TRA   ! s:7363

     4321     7355    3          ELSE DO;

     4322     7356    3            BREAK_DURING_BREAK = '1'B;

   7356  5 000020   400000 236203                    LDQ   ! -131072,DU
         5 000021   000057 756200 2                  STQ   ! BREAK_DURING_BREAK

     4323     7357    3            X_TO_ABORT = '0'B;

PL6.E3A0      #002=FLB$EFT_BRK File=FLB$EFT.:E05TSI                              TUE 07/29/97 15:37 Page:654
   7357  5 000022   000061 450200 2                  STZ   ! X_TO_ABORT

     4324     7358    3            CALL M$TIME( GET_NOW_UTS );

   7358  5 000023   000000 630600 xsym               EPPR0 ! GET_NOW_UTS
         5 000024   020004 713600                    CLIMB ! 8196
         5 000025   402000 401760                    pmme    nvectors=5

     4325     7359    3            BREAK_UTS = NOW_UTS;

   7359  5 000026   000000 235200 xsym               LDA   ! NOW_UTS
         5 000027   000060 755200 2                  STA   ! BREAK_UTS

     4326     7360    3            END;

     4327     7361    2         END;

     4328     7362
     4329     7363    1      IF BREAK_DCB# ~= 0

   7363  5 000030   000000 235000 xsym               LDA     BREAK_DCB#
         5 000031   000045 600000 5                  TZE     s:7372

     4330     7364    2       THEN DO;

     4331     7365    2         BREAK_FILE.V.DCB# = BREAK_DCB#;

   7365  5 000032   000000 620005                    EAX0    0,AL
         5 000033   000124 740000 2                  STX0    BREAK_FILE+20

     4332     7366    2         CALL M$UNFID( BREAK_FILE )

   7366  5 000034   000100 630400 2                  EPPR0   BREAK_FILE
         5 000035   420021 713400                    CLIMB   alt,+8209
         5 000036   404400 401760                    pmme    nvectors=10
         5 000037   000041 702000 5                  TSX2    s:7368
         5 000040   000044 710000 5                  TRA     s:7370
PL6.E3A0      #002=FLB$EFT_BRK File=FLB$EFT.:E05TSI                              TUE 07/29/97 15:37 Page:655

     4333     7367    3          WHENALTRETURN DO;

     4334     7368    3            UNFIDCHARS = ' ';

   7368  5 000041   040000 100400                    MLR     fill='040'O
         5 000042   000035 000001 xsym               ADSC9   B_VECTNIL+29             cn=0,n=1
         5 000043   000041 000062 2                  ADSC9   UNFIDCHARS               cn=0,n=50

     4335     7369    3            END;

     4336     7370    2         END;

   7370  5 000044   000050 710000 5                  TRA     s:7375

     4337     7371    2       ELSE DO;

     4338     7372    2         UNFIDCHARS = ' ';

   7372  5 000045   040000 100400                    MLR     fill='040'O
         5 000046   000035 000001 xsym               ADSC9   B_VECTNIL+29             cn=0,n=1
         5 000047   000041 000062 2                  ADSC9   UNFIDCHARS               cn=0,n=50

     4339     7373    2         END;

     4340     7374
     4341     7375    1      CALL INDEX( NBR_BREAK_TASK_CHARS, '!', BREAK_TASK );

   7375  5 000050   000000 124400                    SCM     mask='000'O
         5 000051   000000 000022 xsym               ADSC9   BREAK_TASK               cn=0,n=18
         5 000052   000000 000001 6                  ADSC9   0                        cn=0,n=1
         5 000053   000006 000000 2                  ARG     NBR_BREAK_TASK_CHARS

     4342     7376    1      CALL INDEX( NBR_UNFIDCHARS, ' ', UNFIDCHARS );

   7376  5 000054   000000 124400                    SCM     mask='000'O
         5 000055   000041 000062 2                  ADSC9   UNFIDCHARS               cn=0,n=50
PL6.E3A0      #002=FLB$EFT_BRK File=FLB$EFT.:E05TSI                              TUE 07/29/97 15:37 Page:656
         5 000056   000035 000001 xsym               ADSC9   B_VECTNIL+29             cn=0,n=1
         5 000057   000007 000000 2                  ARG     NBR_UNFIDCHARS

     4343     7377
     4344     7378    1      IF BREAK_COUNT <= 0

   7378  5 000060   000000 235000 xsym               LDA     BREAK_COUNT
         5 000061   000146 605400 5                  TPNZ    s:7393

     4345     7379    2       THEN DO;

     4346     7380    2         IF X_TO_ABORT

   7380  5 000062   000061 234000 2                  SZN     X_TO_ABORT
         5 000063   000074 605000 5                  TPL     s:7386

     4347     7381    3          THEN DO;

     4348     7382    3            BRK_MSG = '@ X to abort';

   7382  5 000064   040000 100400                    MLR     fill='040'O
         5 000065   000012 000014 4                  ADSC9   FPT_TRMPRG+8             cn=0,n=12
         5 000066   000010 000144 2                  ADSC9   BRK_MSG                  cn=0,n=100

     4349     7383    3            TELL_BREAK.BUF_.BOUND = LENGTHV('@ X to abort');

   7383  5 000067   000132 236000 2                  LDQ     TELL_BREAK+4
         5 000070   177777 376007                    ANQ     65535,DL
         5 000071   000001 276000 6                  ORQ     1
         5 000072   000132 756000 2                  STQ     TELL_BREAK+4

     4350     7384    3            END;

   7384  5 000073   000217 710000 5                  TRA     s:7399

     4351     7385    3          ELSE DO;

PL6.E3A0      #002=FLB$EFT_BRK File=FLB$EFT.:E05TSI                              TUE 07/29/97 15:37 Page:657
     4352     7386    3            CALL CONCAT( BRK_MSG, '@...', SUBSTR(BREAK_TASK,0,NBR_BREAK_TASK_CHARS),

   7386  5 000074   000015 236000 4                  LDQ     FPT_TRMPRG+11
         5 000075   000010 756000 2                  STQ     BRK_MSG
         5 000076   000006 720000 2                  LXL0    NBR_BREAK_TASK_CHARS
         5 000077   040000 100440                    MLR     fill='040'O
         5 000100   000000 000010 xsym               ADSC9   BREAK_TASK               cn=0,n=*X0
         5 000101   000011 000140 2                  ADSC9   BRK_MSG+1                cn=0,n=96
         5 000102   000006 236000 2                  LDQ     NBR_BREAK_TASK_CHARS
         5 000103   000140 116007                    CMPQ    96,DL
         5 000104   000136 605000 5                  TPL     s:7388
         5 000105   777637 621006                    EAX1    -97,QL
         5 000106   777777 661003                    ERX1    -1,DU
         5 000107   040046 100400                    MLR     fill='040'O
         5 000110   000035 000001 xsym               ADSC9   B_VECTNIL+29             cn=0,n=1
         5 000111   000011 000011 2                  ADSC9   BRK_MSG+1,Q              cn=0,n=*X1
         5 000112   000137 116007                    CMPQ    95,DL
         5 000113   000136 605000 5                  TPL     s:7388
         5 000114   777640 622006                    EAX2    -96,QL
         5 000115   777777 662003                    ERX2    -1,DU
         5 000116   000007 723000 2                  LXL3    NBR_UNFIDCHARS
         5 000117   040046 100440                    MLR     fill='040'O
         5 000120   000041 000013 2                  ADSC9   UNFIDCHARS               cn=0,n=*X3
         5 000121   000011 200012 2                  ADSC9   BRK_MSG+1,Q              cn=1,n=*X2
         5 000122   000007 036000 2                  ADLQ    NBR_UNFIDCHARS
         5 000123   000137 116007                    CMPQ    95,DL
         5 000124   000136 605000 5                  TPL     s:7388
         5 000125   200004 756100                    STQ     TEMP_CENTISECS+1,,AUTO
         5 000126   000006 236000 2                  LDQ     NBR_BREAK_TASK_CHARS
         5 000127   000007 036000 2                  ADLQ    NBR_UNFIDCHARS
         5 000130   200004 724100                    LXL4    TEMP_CENTISECS+1,,AUTO
         5 000131   777640 624014                    EAX4    -96,X4
         5 000132   777777 664003                    ERX4    -1,DU
         5 000133   040046 100400                    MLR     fill='040'O
         5 000134   000016 000014 4                  ADSC9   FPT_TRMPRG+12            cn=0,n=12
         5 000135   000011 200014 2                  ADSC9   BRK_MSG+1,Q              cn=1,n=*X4

PL6.E3A0      #002=FLB$EFT_BRK File=FLB$EFT.:E05TSI                              TUE 07/29/97 15:37 Page:658
     4353     7387    3              ' ', SUBSTR(UNFIDCHARS,0,NBR_UNFIDCHARS), '  X to abort' );
     4354     7388    3            TELL_BREAK.BUF_.BOUND = 4 + NBR_BREAK_TASK_CHARS + 1 +

   7388  5 000136   000006 236000 2                  LDQ     NBR_BREAK_TASK_CHARS
         5 000137   000007 036000 2                  ADLQ    NBR_UNFIDCHARS
         5 000140   000020 036007                    ADLQ    16,DL
         5 000141   000020 736000                    QLS     16
         5 000142   000132 676000 2                  ERQ     TELL_BREAK+4
         5 000143   000034 376000 xsym               ANQ     B_VECTNIL+28
         5 000144   000132 656000 2                  ERSQ    TELL_BREAK+4

     4355     7389    3              NBR_UNFIDCHARS + LENGTHV('  X TO ABORT');
     4356     7390    3            END;

     4357     7391    2         END;

   7391  5 000145   000217 710000 5                  TRA     s:7399

     4358     7392    2       ELSE DO;

     4359     7393    2         CALL CONCAT( BRK_MSG, '@...', SUBSTR(BREAK_TASK,0,NBR_BREAK_TASK_CHARS),

   7393  5 000146   000015 236000 4                  LDQ     FPT_TRMPRG+11
         5 000147   000010 756000 2                  STQ     BRK_MSG
         5 000150   000006 720000 2                  LXL0    NBR_BREAK_TASK_CHARS
         5 000151   040000 100440                    MLR     fill='040'O
         5 000152   000000 000010 xsym               ADSC9   BREAK_TASK               cn=0,n=*X0
         5 000153   000011 000140 2                  ADSC9   BRK_MSG+1                cn=0,n=96
         5 000154   000006 236000 2                  LDQ     NBR_BREAK_TASK_CHARS
         5 000155   000140 116007                    CMPQ    96,DL
         5 000156   000210 605000 5                  TPL     s:7395
         5 000157   777637 621006                    EAX1    -97,QL
         5 000160   777777 661003                    ERX1    -1,DU
         5 000161   040046 100400                    MLR     fill='040'O
         5 000162   000035 000001 xsym               ADSC9   B_VECTNIL+29             cn=0,n=1
         5 000163   000011 000011 2                  ADSC9   BRK_MSG+1,Q              cn=0,n=*X1
         5 000164   000137 116007                    CMPQ    95,DL
PL6.E3A0      #002=FLB$EFT_BRK File=FLB$EFT.:E05TSI                              TUE 07/29/97 15:37 Page:659
         5 000165   000210 605000 5                  TPL     s:7395
         5 000166   777640 622006                    EAX2    -96,QL
         5 000167   777777 662003                    ERX2    -1,DU
         5 000170   000007 723000 2                  LXL3    NBR_UNFIDCHARS
         5 000171   040046 100440                    MLR     fill='040'O
         5 000172   000041 000013 2                  ADSC9   UNFIDCHARS               cn=0,n=*X3
         5 000173   000011 200012 2                  ADSC9   BRK_MSG+1,Q              cn=1,n=*X2
         5 000174   000007 036000 2                  ADLQ    NBR_UNFIDCHARS
         5 000175   000137 116007                    CMPQ    95,DL
         5 000176   000210 605000 5                  TPL     s:7395
         5 000177   200004 756100                    STQ     TEMP_CENTISECS+1,,AUTO
         5 000200   000006 236000 2                  LDQ     NBR_BREAK_TASK_CHARS
         5 000201   000007 036000 2                  ADLQ    NBR_UNFIDCHARS
         5 000202   200004 724100                    LXL4    TEMP_CENTISECS+1,,AUTO
         5 000203   777640 624014                    EAX4    -96,X4
         5 000204   777777 664003                    ERX4    -1,DU
         5 000205   040046 100400                    MLR     fill='040'O
         5 000206   000024 000036 4                  ADSC9   FPT_TRMPRG+18            cn=0,n=30
         5 000207   000011 200014 2                  ADSC9   BRK_MSG+1,Q              cn=1,n=*X4

     4360     7394    2           ' ', SUBSTR(UNFIDCHARS,0,NBR_UNFIDCHARS), ' ... will break when possible' )
              7394                    ;
     4361     7395    2         TELL_BREAK.BUF_.BOUND = 4 + NBR_BREAK_TASK_CHARS + 1 +

   7395  5 000210   000006 236000 2                  LDQ     NBR_BREAK_TASK_CHARS
         5 000211   000007 036000 2                  ADLQ    NBR_UNFIDCHARS
         5 000212   000042 036007                    ADLQ    34,DL
         5 000213   000020 736000                    QLS     16
         5 000214   000132 676000 2                  ERQ     TELL_BREAK+4
         5 000215   000034 376000 xsym               ANQ     B_VECTNIL+28
         5 000216   000132 656000 2                  ERSQ    TELL_BREAK+4

     4362     7396    2           NBR_UNFIDCHARS + LENGTHV('  ... will break when possible' );
     4363     7397    2         END;

     4364     7398
     4365     7399    1      CALL M$TRMPRG(FPT_TRMPRG);
PL6.E3A0      #002=FLB$EFT_BRK File=FLB$EFT.:E05TSI                              TUE 07/29/97 15:37 Page:660

   7399  5 000217   000002 630400 4                  EPPR0   FPT_TRMPRG
         5 000220   160004 713400                    CLIMB   57348
         5 000221   400400 401760                    pmme    nvectors=2

     4366     7400    1      CALL M$WRITE( TELL_BREAK );

   7400  5 000222   000126 630400 2                  EPPR0   TELL_BREAK
         5 000223   040001 713400                    CLIMB   write
         5 000224   401400 401760                    pmme    nvectors=4

     4367     7401
     4368     7402    1      IF BREAK_COUNT <= 0

   7402  5 000225   000000 235000 xsym               LDA     BREAK_COUNT
         5 000226   000266 605400 5                  TPNZ    s:7422

     4369     7403    2       THEN DO;

     4370     7404
     4371     7405        /*    CALL M$PROMPT( SET_X_PROMPT );*/
     4372     7406    2         ANSWER = ' ';

   7406  5 000227   000035 236000 xsym               LDQ     B_VECTNIL+29
         5 000230   000056 756000 2                  STQ     ANSWER

     4373     7407    2         CALL M$READ( GET_ANSWER );

   7407  5 000231   000062 630400 2                  EPPR0   GET_ANSWER
         5 000232   040000 713400                    CLIMB   read
         5 000233   401400 401760                    pmme    nvectors=4

     4374     7408        /*    CALL M$PROMPT( SET_PROMPT );*/
     4375     7409
     4376     7410    2         IF ANSWER = 'X' OR ANSWER = 'x'

   7410  5 000234   000056 236000 2                  LDQ     ANSWER
PL6.E3A0      #002=FLB$EFT_BRK File=FLB$EFT.:E05TSI                              TUE 07/29/97 15:37 Page:661
         5 000235   000002 116000 6                  CMPQ    2
         5 000236   000241 600000 5                  TZE     s:7412
         5 000237   000003 116000 6                  CMPQ    3
         5 000240   000244 601000 5                  TNZ     s:7415

     4377     7411    3          THEN DO;

     4378     7412    3            BREAK_COUNT = BREAK_COUNT + 1;

   7412  5 000241   000000 054000 xsym               AOS     BREAK_COUNT

     4379     7413    3            BREAK_CONTINUED = '0'B;

   7413  5 000242   000000 450000 xsym               STZ     BREAK_CONTINUED

     4380     7414    3            END;

   7414  5 000243   000246 710000 5                  TRA     s:7417

     4381     7415    2          ELSE BREAK_CONTINUED = '1'B;

   7415  5 000244   400000 236003                    LDQ     -131072,DU
         5 000245   000000 756000 xsym               STQ     BREAK_CONTINUED

     4382     7416
     4383     7417    2         CALL M$TIME( GET_NOW_UTS );

   7417  5 000246   000000 630400 xsym               EPPR0   GET_NOW_UTS
         5 000247   020004 713400                    CLIMB   8196
         5 000250   402000 401760                    pmme    nvectors=5

     4384     7418    2         CALL XUD$UTS_DIFF(TEMP_CENTISECS,NOW_UTS,BREAK_UTS);

   7418  5 000251   000004 236000 6                  LDQ     4
         5 000252   200006 756100                    STQ     TEMP_CENTISECS+3,,AUTO
         5 000253   000005 236000 6                  LDQ     5
         5 000254   200005 756100                    STQ     TEMP_CENTISECS+2,,AUTO
PL6.E3A0      #002=FLB$EFT_BRK File=FLB$EFT.:E05TSI                              TUE 07/29/97 15:37 Page:662
         5 000255   200003 630500                    EPPR0   TEMP_CENTISECS,,AUTO
         5 000256   200004 450500                    STP0    TEMP_CENTISECS+1,,AUTO
         5 000257   200004 630500                    EPPR0   TEMP_CENTISECS+1,,AUTO
         5 000260   000021 631400 xsym               EPPR1   B_VECTNIL+17
         5 000261   000000 701000 xent               TSX1    XUD$UTS_DIFF
         5 000262   000000 011000                    NOP     0

     4385     7419    2         ACCUMULATED_BREAK_TIME = ACCUMULATED_BREAK_TIME + TEMP_CENTISECS;

   7419  5 000263   000000 236000 xsym               LDQ     ACCUMULATED_BREAK_TIME
         5 000264   200003 036100                    ADLQ    TEMP_CENTISECS,,AUTO
         5 000265   000000 756000 xsym               STQ     ACCUMULATED_BREAK_TIME

     4386     7420    2         END;

     4387     7421    2      DO INHIBIT;

     4388     7422    2         BREAK_DURING_BREAK = '0'B;

   7422  5 000266   000057 450200 2                  STZ   ! BREAK_DURING_BREAK

     4389     7423    2         RETURN;

   7423  5 000267   000000 702200 xent               TSX2  ! X66_AARET

     4390     7424    2         END;

     4391     7425
     4392     7426    1   END FLB$EFT_BRK;

   7426  5 000270   000000 702200 xent               TSX2  ! X66_AARET

PL6.E3A0      #002=FLB$EFT_BRK File=FLB$EFT.:E05TSI                              TUE 07/29/97 15:37 Page:663
--  Include file information  --

   XUD_UTS_M.:E05TOU  is referenced.
   B_MICROPS_C.:E05TOU  is referenced.
   FLB_SUBS_C.:E05TOU  is referenced.
   FLI_DATA_R.:E05TOU  cannot be made into a system file and is referenced.
   CP_6_C.:E05TOU  is referenced.
   CP_6.:E05TOU  cannot be made into a system file and is referenced.
      No diagnostics issued in procedure FLB$EFT_BRK.
PL6.E3A0      #002=FLB$EFT_BRK File=FLB$EFT.:E05TSI                              TUE 07/29/97 15:37 Page:664

 **** Variables and constants ****

  ****  Section 002  Data  FLB$EFT_BRK

  ****  Scalars and arrays  ****
OctLoc.c.b A Datatyp(siz) R M Lvl/name                 OctLoc.c.b A Datatyp(siz) R M Lvl/name

    56-0-0/c CHAR(4)     r     1 ANSWER                    57-0-0/b BIT         r     1 BREAK_DURING_BREAK
   100-0-0/d STRC(792)   r     1 BREAK_FILE                60-0-0/w UBIN        r     1 BREAK_UTS
    10-0-0/c CHAR(100)   r     1 BRK_MSG                   62-0-0/d STRC(504)   r     1 GET_ANSWER
     6-0-0/w SBIN        r     1 NBR_BREAK_TASK_CHARS       7-0-0/w SBIN        r     1 NBR_UNFIDCHARS
   154-0-0/d STRC(360)   r     1 SET_PROMPT               142-0-0/d STRC(360)   r     1 SET_X_PROMPT
   126-0-0/d STRC(432)   r     1 TELL_BREAK                41-0-0/c CHAR(50)    r     1 UNFIDCHARS
    61-0-0/b BIT         r     1 X_TO_ABORT

  ****  Section 004 RoData FLB$EFT_BRK

  ****  Scalars and arrays  ****
OctLoc.c.b A Datatyp(siz) R M Lvl/name                 OctLoc.c.b A Datatyp(siz) R M Lvl/name

     1-0-0/c CHAR        r     1 ASTERISK                   2-0-0/d STRC(288)   r     1 FPT_TRMPRG
     0-0-0/c CHAR        r     1 X_PROMPT

  ****  Auto variables  ****

  ****  Scalars and arrays  ****
OctLoc.c.b A Datatyp(siz) R M Lvl/name                 OctLoc.c.b A Datatyp(siz) R M Lvl/name

     3-0-0/w SBIN        r     1 TEMP_CENTISECS

  ****  SYMREF variables  ****

  ****  Scalars and arrays  ****
OctLoc.c.b A Datatyp(siz) R M Lvl/name                 OctLoc.c.b A Datatyp(siz) R M Lvl/name

     0-0-0/w UBIN        r     1 ACCUMULATED_BREAK_TIME
     0-0-0/b BIT         r     1 BREAK_CONTINUED            0-0-0/w SBIN        r     1 BREAK_COUNT
PL6.E3A0      #002=FLB$EFT_BRK File=FLB$EFT.:E05TSI                              TUE 07/29/97 15:37 Page:665
     0-0-0/w SBIN        r     1 BREAK_DCB#                 0-0-0/c CHAR(18)    r     1 BREAK_TASK
     0-0-0/w PTR         r     1 DISK_FILE_SPEC$            0-0-0/w PTR         r     1 DPLIST$
     0-0-0/w PTR         r     1 DPRESLIST$                 0-0-0/d STRC(432)   r     1 GET_NOW_UTS
     0-0-0/w UBIN        r     1 NOW_UTS                    0-0-0/c ASTR(9)     r     1 RET_CMDS_NAME
     0-0-0/w PTR         r     1 SNVECLIST$                 0-0-0/w PTR         r     1 TAPE_DCBLIST$

  ****  BASED and DCB variables  ****

  ****  Scalars and arrays  ****
OctLoc.c.b A Datatyp(siz) R M Lvl/name                 OctLoc.c.b A Datatyp(siz) R M Lvl/name

     0-0-0N  NULL        r     1 M$ME                       0-0-0N  NULL        r     1 M$UC


   Procedure FLB$EFT_BRK requires 185 words for executable code.
   Procedure FLB$EFT_BRK requires 8 words of local(AUTO) storage.

    No errors detected in file FLB$EFT.:E05TSI    .
PL6.E3A0      #002=FLB$EFT_BRK File=FLB$EFT.:E05TSI                              TUE 07/29/97 15:37 Page:666
          *** CROSS REFERENCE LISTING ***
**     DENOTES     IDENTIFIER DEFINITION
<<                 IDENTIFIER'S VALUE SET
>>                 IDENTIFIER'S VALUE USED
<>                 IDENTIFIER SET AND/OR USED
--                 IDENTIFIER REFERENCED
PL6.E3A0      #002=FLB$EFT_BRK File=FLB$EFT.:E05TSI                              TUE 07/29/97 15:37 Page:667
          MINI XREF LISTING

ACCUMULATED_BREAK_TIME
      6534**DCL      7419<<ASSIGN   7419>>ASSIGN
ANSWER
      7132**DCL      7207--DCLINIT  7208--DCLINIT  7406<<ASSIGN   7410>>IF       7410>>IF
ASTERISK
      7142**DCL      7336--DCLINIT
BREAK_CONTINUED
      7119**DCL      7413<<ASSIGN   7415<<ASSIGN
BREAK_COUNT
      7120**DCL      7378>>IF       7402>>IF       7412<<ASSIGN   7412>>ASSIGN
BREAK_DCB#
      7121**DCL      7363>>IF       7365>>ASSIGN
BREAK_DURING_BREAK
      7133**DCL      7346>>IF       7356<<ASSIGN   7422<<ASSIGN
BREAK_FILE
      7240**DCL      7366<>CALL
BREAK_FILE.V
      7244**DCL      7240--DCLINIT
BREAK_FILE.V.DCB#
      7244**DCL      7365<<ASSIGN
BREAK_TASK
      7122**DCL      7375>>CALLBLT  7386>>CALLBLT  7393>>CALLBLT
BREAK_UTS
      7134**DCL      7359<<ASSIGN   7418<>CALL
BRK_MSG
      7130**DCL      7269--DCLINIT  7270--DCLINIT  7382<<ASSIGN   7386<<CALLBLT  7393<<CALLBLT
DISK_CLOSE.SN_
      6185**DCL      6185--REDEF
DISK_CLOSE.UTL_
      6186**DCL      6186--REDEF
DISK_CLOSE.V.EXPIRE#
      6200**DCL      6200--REDEF
PL6.E3A0      #002=FLB$EFT_BRK File=FLB$EFT.:E05TSI                              TUE 07/29/97 15:37 Page:668
DISK_CLOSE.V.TYPE#
      6198**DCL      6198--REDEF
DISK_CLOSE.V.XTNSIZE#
      6195**DCL      6195--REDEF    6197--REDEF
DISK_FILE_SPEC.SPEC
      6550**DCL      6552--REDEF
DISK_FILE_SPEC.SPEC.START
      6551**DCL      6551--REDEF
DISK_FILE_SPEC.SPEC.STOP
      6552**DCL      6552--REDEF
DISK_FILE_SPEC$
      6549**DCL      6550--IMP-PTR
DISK_OPEN.ACSVEH_
      6050**DCL      6051--REDEF
DISK_OPEN.ALTKEYS_
      6056**DCL      6057--REDEF    6057--REDEF
DISK_OPEN.HDR_
      6055**DCL      6056--REDEF
DISK_OPEN.TAB_
      6054**DCL      6055--REDEF
DISK_OPEN.UHL_
      6048**DCL      6049--REDEF    6049--REDEF
DISK_OPEN.V.FSN#
      6088**DCL      6088--REDEF    6088--REDEF
DISK_OPEN.WSN_
      6054**DCL      6054--REDEF
DISK_READ.STATION_
      6112**DCL      6113--REDEF
DISK_READ.V.DVBYTE.REREAD#
      6124**DCL      6124--REDEF
DISK_READ.V.INDX#
      6122**DCL      6122--REDEF
DISK_WRITE.STATION_
      6150**DCL      6150--REDEF
DISK_WRITE.V.DVBYTE.VFC#
      6157**DCL      6157--REDEF
PL6.E3A0      #002=FLB$EFT_BRK File=FLB$EFT.:E05TSI                              TUE 07/29/97 15:37 Page:669
DPLIST$
      6535**DCL      6547--IMP-PTR
DPRESLIST$
      6549**DCL      6549--IMP-PTR
EFTWORD
      6670**DCL      6670--REDEF
FLI$RPT_ERR
      7081**DCL-ENT  7351--CALL
FPT_EXIT.V.STEPCC#
      5975**DCL      5975--REDEF
FPT_TRMPRG
      7172**DCL      7399<>CALL
FPT_TRMPRG.V
      7179**DCL      7174--DCLINIT
FPT_TRMPRG.V.CTLFLG.RSTBRK#
      7180**DCL      7181--REDEF
GET_ANSWER
      7205**DCL      7407<>CALL
GET_ANSWER.STATION_
      7208**DCL      7209--REDEF
GET_ANSWER.V
      7209**DCL      7205--DCLINIT
GET_ANSWER.V.DVBYTE.REREAD#
      7220**DCL      7220--REDEF
GET_ANSWER.V.INDX#
      7218**DCL      7218--REDEF
GET_NOW_UTS
      6526**DCL      7358<>CALL     7417<>CALL
M$CLRSTK
      5560**DCL-ENT  7349--CALL
M$EXIT
      5514**DCL-ENT  7352--CALL
M$READ
      5503**DCL-ENT  7407--CALL
M$TIME
      5569**DCL-ENT  7358--CALL     7417--CALL
PL6.E3A0      #002=FLB$EFT_BRK File=FLB$EFT.:E05TSI                              TUE 07/29/97 15:37 Page:670
M$TRMPRG
      5527**DCL-ENT  7399--CALL
M$UNFID
      5565**DCL-ENT  7366--CALL
M$WRITE
      5503**DCL-ENT  7400--CALL
NBR_BREAK_TASK_CHARS
      7128**DCL      7375<<CALLBLT  7386>>CALLBLT  7388>>ASSIGN   7393>>CALLBLT  7395>>ASSIGN
NBR_UNFIDCHARS
      7129**DCL      7376<<CALLBLT  7386>>CALLBLT  7388>>ASSIGN   7393>>CALLBLT  7395>>ASSIGN
NOW_UTS
      6514**DCL      7359>>ASSIGN   7418<>CALL
PRE_RET_CLOSE.SN_
      6913**DCL      6913--REDEF
PRE_RET_CLOSE.UTL_
      6914**DCL      6914--REDEF
PRE_RET_CLOSE.V.EXPIRE#
      6928**DCL      6928--REDEF
PRE_RET_CLOSE.V.TYPE#
      6926**DCL      6926--REDEF
PRE_RET_CLOSE.V.XTNSIZE#
      6923**DCL      6923--REDEF    6925--REDEF
PRE_RET_OPEN.ACSVEH_
      6848**DCL      6849--REDEF
PRE_RET_OPEN.ALTKEYS_
      6854**DCL      6855--REDEF    6855--REDEF
PRE_RET_OPEN.HDR_
      6853**DCL      6854--REDEF
PRE_RET_OPEN.TAB_
      6852**DCL      6853--REDEF
PRE_RET_OPEN.UHL_
      6846**DCL      6847--REDEF    6847--REDEF
PRE_RET_OPEN.V.FSN#
      6886**DCL      6886--REDEF    6886--REDEF
PRE_RET_OPEN.WSN_
      6852**DCL      6852--REDEF
PL6.E3A0      #002=FLB$EFT_BRK File=FLB$EFT.:E05TSI                              TUE 07/29/97 15:37 Page:671
PRE_RET_READ.STATION_
      6703**DCL      6704--REDEF
PRE_RET_READ.V.DVBYTE.REREAD#
      6715**DCL      6715--REDEF
PRE_RET_READ.V.INDX#
      6713**DCL      6713--REDEF
PRE_RET_WRITE.STATION_
      6741**DCL      6741--REDEF
PRE_RET_WRITE.V.DVBYTE.VFC#
      6748**DCL      6748--REDEF
RET_CMDS_NAME.L#
      6957**DCL      6957--IMP-SIZ
SET_PROMPT.V
      7338**DCL      7332--DCLINIT
SET_X_PROMPT.V
      7308**DCL      7302--DCLINIT
SNVECLIST$
      6489**DCL      6489--IMP-PTR
SPEC.START
      6553**DCL      6554--REDEF
SPEC.STOP
      6554**DCL      6555--REDEF
SPECCHARS
      6553**DCL      6553--REDEF
TAPE_CLOSE.SN_
      6406**DCL      6406--REDEF
TAPE_CLOSE.UTL_
      6407**DCL      6407--REDEF
TAPE_CLOSE.V.EXPIRE#
      6421**DCL      6421--REDEF
TAPE_CLOSE.V.TYPE#
      6419**DCL      6419--REDEF
TAPE_CLOSE.V.XTNSIZE#
      6416**DCL      6416--REDEF    6418--REDEF
TAPE_DCBLIST$
      5962**DCL      5962--IMP-PTR
PL6.E3A0      #002=FLB$EFT_BRK File=FLB$EFT.:E05TSI                              TUE 07/29/97 15:37 Page:672
TAPE_OPEN.ACSVEH_
      6271**DCL      6272--REDEF
TAPE_OPEN.ALTKEYS_
      6277**DCL      6278--REDEF    6278--REDEF
TAPE_OPEN.HDR_
      6276**DCL      6277--REDEF
TAPE_OPEN.TAB_
      6275**DCL      6276--REDEF
TAPE_OPEN.UHL_
      6269**DCL      6270--REDEF    6270--REDEF
TAPE_OPEN.V.FSN#
      6309**DCL      6309--REDEF    6309--REDEF
TAPE_OPEN.WSN_
      6275**DCL      6275--REDEF
TAPE_READ.STATION_
      6333**DCL      6334--REDEF
TAPE_READ.V.DVBYTE.REREAD#
      6345**DCL      6345--REDEF
TAPE_READ.V.INDX#
      6343**DCL      6343--REDEF
TAPE_WRITE.STATION_
      6371**DCL      6371--REDEF
TAPE_WRITE.V.DVBYTE.VFC#
      6378**DCL      6378--REDEF
TELL_BREAK
      7268**DCL      7400<>CALL
TELL_BREAK.BUF_.BOUND
      7268**DCL      7383<<ASSIGN   7388<<ASSIGN   7395<<ASSIGN
TELL_BREAK.STATION_
      7270**DCL      7270--REDEF
TELL_BREAK.V
      7271**DCL      7268--DCLINIT
TELL_BREAK.V.DVBYTE.VFC#
      7277**DCL      7277--REDEF
TEMP_CENTISECS
      7148**DCL      7418<>CALL     7419>>ASSIGN
PL6.E3A0      #002=FLB$EFT_BRK File=FLB$EFT.:E05TSI                              TUE 07/29/97 15:37 Page:673
TVECTOR.W2
      6502**DCL      6503--REDEF
UNFIDCHARS
      7131**DCL      7240--DCLINIT  7368<<ASSIGN   7372<<ASSIGN   7376>>CALLBLT  7386>>CALLBLT  7393>>CALLBLT
XUD$UTS_DIFF
      7083**DCL-ENT  7418--CALL
X_PROMPT
      7141**DCL      7306--DCLINIT
X_TO_ABORT
      7135**DCL      7348<<ASSIGN   7357<<ASSIGN   7380>>IF
