PL6.E3A0      #001=FLB$EFT File=FLB$EFT.:E05TSI                                  TUE 07/29/97 15:33 Page:549
     4103    28115    5               GOTO READ_BACKUP_ERR10;

  28115 20 014544   015107 710000 20                 TRA     READ_BACKUP_ERR10

     4104    28116    5               END;
     4105    28117    4            DISK_OPTION.PAD = DISK_OPTION_PAD_SAVE;

  28117 20 014545   200033 236100                    LDQ     DISK_OPTION_PAD_SAVE,,AUTO
        20 014546   000004 772000                    QRL     4
        20 014547   000000 676000 xsym               ERQ     DISK_OPTION
        20 014550   020000 376003                    ANQ     8192,DU
        20 014551   000000 656000 xsym               ERSQ    DISK_OPTION

     4106    28118    4            DISK_OPTION.DIR = DISK_OPTION_DIR_SAVE;

  28118 20 014552   200032 236100                    LDQ     DISK_OPTION_DIR_SAVE,,AUTO
        20 014553   000000 676000 xsym               ERQ     DISK_OPTION
        20 014554   400000 376003                    ANQ     -131072,DU
        20 014555   000000 656000 xsym               ERSQ    DISK_OPTION

     4107    28119
     4108    28120    4            DISK_OPEN.IFPARAM_ = FPARAM_;

  28120 20 014556   200034 237100                    LDAQ    FPARAM_,,AUTO
        20 014557   000026 757000 xsym               STAQ    DISK_OPEN+22

     4109    28121    4            CALL M$OPEN( DISK_OPEN ) ALTRET(READ_BACKUP_ERR); /* Create *:BACKUP */

  28121 20 014560   000000 630400 xsym               EPPR0   DISK_OPEN
        20 014561   450000 713400                    CLIMB   alt,open
        20 014562   410400 401760                    pmme    nvectors=18
        20 014563   015104 702000 20                 TSX2    READ_BACKUP_ERR

     4110    28122    4            DISK_WRITE.KEY_ = VECTOR(NIL);

  28122 20 014564   000210 237000 21                 LDAQ    136
        20 014565   000002 757000 xsym               STAQ    DISK_WRITE+2
PL6.E3A0      #001=FLB$EFT File=FLB$EFT.:E05TSI                                  TUE 07/29/97 15:33 Page:550

     4111    28123
     4112    28124    5            DO WHILE ( NOT ERR );

  28124 20 014566   014615 710000 20                 TRA     s:28131

     4113    28125    5              CALL FLC$TAPE_READ_NEXT( BUF_, ARS, ERR ) /* Copy :BACKUP to *:BACKUP */

  28125 20 014567   000213 236000 21                 LDQ     139
        20 014570   200044 756100                    STQ     @MAX_NX+3,,AUTO
        20 014571   200036 630500                    EPPR0   ARS,,AUTO
        20 014572   200043 450500                    STP0    @MAX_NX+2,,AUTO
        20 014573   200040 631500                    EPPR1   BUF_,,AUTO
        20 014574   200042 451500                    STP1    @MAX_NX+1,,AUTO
        20 014575   200042 630500                    EPPR0   @MAX_NX+1,,AUTO
        20 014576   000021 631400 xsym               EPPR1   B_VECTNIL+17
        20 014577   000000 701000 xent               TSX1    FLC$TAPE_READ_NEXT
        20 014600   014615 702000 20                 TSX2    s:28131

     4114    28126    6                WHENRETURN DO;

     4115    28127    6                  DISK_WRITE.BUF_ = BUF_;

  28127 20 014601   200040 237100                    LDAQ    BUF_,,AUTO
        20 014602   000004 757000 xsym               STAQ    DISK_WRITE+4

     4116    28128    6                  DISK_WRITE.BUF_.BOUND = ARS - 1;

  28128 20 014603   200036 236100                    LDQ     ARS,,AUTO
        20 014604   000001 136007                    SBLQ    1,DL
        20 014605   000020 736000                    QLS     16
        20 014606   000004 676000 xsym               ERQ     DISK_WRITE+4
        20 014607   000034 376000 xsym               ANQ     B_VECTNIL+28
        20 014610   000004 656000 xsym               ERSQ    DISK_WRITE+4

     4117    28129    6                  CALL M$WRITE( DISK_WRITE ) ALTRET(READ_BACKUP_ERR);

PL6.E3A0      #001=FLB$EFT File=FLB$EFT.:E05TSI                                  TUE 07/29/97 15:33 Page:551
  28129 20 014611   000000 630400 xsym               EPPR0   DISK_WRITE
        20 014612   440001 713400                    CLIMB   alt,write
        20 014613   401400 401760                    pmme    nvectors=4
        20 014614   015104 702000 20                 TSX2    READ_BACKUP_ERR

     4118    28130    6                  END;

     4119    28131    5               END;

  28131 20 014615   002357 235000 2                  LDA     ERR
        20 014616   014567 600000 20                 TZE     s:28125

     4120    28132
     4121    28133    4            LAST_TAPE_FSN = 9999;

  28133 20 014617   023417 236007                    LDQ     9999,DL
        20 014620   000000 756000 xsym               STQ     LAST_TAPE_FSN

     4122    28134    4            DISK_CLOSE.V.DISP# = %SAVE#;

  28134 20 014621   000002 236007                    LDQ     2,DL
        20 014622   000032 552004 xsym               STBQ    DISK_CLOSE+26,'04'O

     4123    28135    4            DISK_CLOSE.V.EFTOPER = '0'B;

  28135 20 014623   000224 236000 21                 LDQ     148
        20 014624   000032 356000 xsym               ANSQ    DISK_CLOSE+26

     4124    28136    4            CALL M$CLOSE( DISK_CLOSE ) ALTRET(READ_BACKUP_ERR);

  28136 20 014625   000000 630400 xsym               EPPR0   DISK_CLOSE
        20 014626   450001 713400                    CLIMB   alt,close
        20 014627   406000 401760                    pmme    nvectors=13
        20 014630   015104 702000 20                 TSX2    READ_BACKUP_ERR

     4125    28137    4            DISK_CLOSE.IFPARAM_ = VECTOR(NIL);

PL6.E3A0      #001=FLB$EFT File=FLB$EFT.:E05TSI                                  TUE 07/29/97 15:33 Page:552
  28137 20 014631   000210 237000 21                 LDAQ    136
        20 014632   000026 757000 xsym               STAQ    DISK_CLOSE+22

     4126    28138    4            DISK_CLOSE.V.DESC = '0'B;

  28138 20 014633   000000 220003                    LDX0    0,DU
        20 014634   000033 740000 xsym               STX0    DISK_CLOSE+27

     4127    28139    4            CALL M$CLOSE( TAPE_CLOSE ) ALTRET(READ_BACKUP_ERR);

  28139 20 014635   000000 630400 xsym               EPPR0   TAPE_CLOSE
        20 014636   450001 713400                    CLIMB   alt,close
        20 014637   406000 401760                    pmme    nvectors=13
        20 014640   015104 702000 20                 TSX2    READ_BACKUP_ERR

     4128    28140    4            TAPE_REWIND.V.PSN# = DCBADDR(DCBNUM(M$TAPE00)) -> F$DCB.PSN#;

  28140 20 014641   000000 236007 xsym               LDQ     M$TAPE00,DL
        20 014642   000000 470400 21                 LDP0    0
        20 014643   000000 471500                    LDP1    0,,PR0
        20 014644   100000 473506                    LDP3    0,QL,PR1
        20 014645   040000 100500                    MLR     fill='040'O
        20 014646   300024 000006                    ADSC9   20,,PR3                  cn=0,n=6
        20 014647   000002 400006 xsym               ADSC9   TAPE_REWIND+2            cn=2,n=6

     4129    28141    4            CALL M$REM ( TAPE_REWIND );

  28141 20 014650   000000 630400 xsym               EPPR0   TAPE_REWIND
        20 014651   060006 713400                    CLIMB   24582
        20 014652   400000 401760                    pmme    nvectors=1

     4130    28142    4            RETURN;

  28142 20 014653   200026 221300                    LDX1  ! NEW_REBUILD+6,,AUTO
        20 014654   000001 702211                    TSX2  ! 1,X1

     4131    28143
PL6.E3A0      #001=FLB$EFT File=FLB$EFT.:E05TSI                                  TUE 07/29/97 15:33 Page:553
     4132    28144    4          CASE( %REBUILD_FILE_SOURCE );    /* Copy :BACKUP file from fid         */

     4133    28145
     4134    28146    4            FPT_FID.TEXTFID_ = VECTOR(SUBNODE$->OUT$BLK.SUBLK$(0)->OUT$SYM.TEXT);

  28146 20 014655   300003 474500                    LDP4    3,,PR3
        20 014656   400004 236100                    LDQ     4,,PR4
        20 014657   000033 772000                    QRL     27
        20 014660   000064 737000                    LLS     52
        20 014661   000140 135007                    SBLA    96,DL
        20 014662   200042 454500                    STP4    @MAX_NX+1,,AUTO
        20 014663   200042 236100                    LDQ     @MAX_NX+1,,AUTO
        20 014664   000027 036000 21                 ADLQ    23
        20 014665   001320 757000 2                  STAQ    FPT_FID+2

     4135    28147    4            CALL M$FID( FPT_FID ) ALTRET(READ_BACKUP_ERR);

  28147 20 014666   001316 630400 2                  EPPR0   FPT_FID
        20 014667   420001 713400                    CLIMB   alt,+8193
        20 014670   404400 401760                    pmme    nvectors=10
        20 014671   015104 702000 20                 TSX2    READ_BACKUP_ERR

     4136    28148    4            OPEN_BACKUP_RBLDFILE.V.RES# = OPEN_FID.V.RES#;

  28148 20 014672   001274 236000 2                  LDQ     OPEN_FID+40
        20 014673   002066 756000 2                  STQ     OPEN_BACKUP_RBLDFILE+40

     4137    28149    4            CALL M$OPEN( OPEN_BACKUP_RBLDFILE) ALTRET(READ_BACKUP_ERR);

  28149 20 014674   002016 630400 2                  EPPR0   OPEN_BACKUP_RBLDFILE
        20 014675   450000 713400                    CLIMB   alt,open
        20 014676   410400 401760                    pmme    nvectors=18
        20 014677   015104 702000 20                 TSX2    READ_BACKUP_ERR

     4138    28150    4           IF DCBADDR(DCBNUM(M$STATUS))->F$DCB.ORG# ~= %KEYED# /* Verify if :BACKUP */

  28150 20 014700   000000 236007 xsym               LDQ     M$STATUS,DL
PL6.E3A0      #001=FLB$EFT File=FLB$EFT.:E05TSI                                  TUE 07/29/97 15:33 Page:554
        20 014701   000000 470400 21                 LDP0    0
        20 014702   000000 471500                    LDP1    0,,PR0
        20 014703   100000 473506                    LDP3    0,QL,PR1
        20 014704   300032 236100                    LDQ     26,,PR3
        20 014705   777000 376003                    ANQ     -512,DU
        20 014706   002000 116003                    CMPQ    1024,DU
        20 014707   014723 600000 20                 TZE     s:28157

     4139    28151    5             THEN DO;

     4140    28152    5               DCB# = DCBNUM(M$STATUS);

  28152 20 014710   000000 236007 xsym               LDQ     M$STATUS,DL
        20 014711   200027 756100                    STQ     DCB#,,AUTO

     4141    28153    5               CALL FLI$RPT_ERR( E_BAD_BKUP_FILE, DCB# );

  28153 20 014712   200027 633500                    EPPR3   DCB#,,AUTO
        20 014713   200043 453500                    STP3    @MAX_NX+2,,AUTO
        20 014714   000225 236000 21                 LDQ     149
        20 014715   200042 756100                    STQ     @MAX_NX+1,,AUTO
        20 014716   200042 630500                    EPPR0   @MAX_NX+1,,AUTO
        20 014717   000020 631400 xsym               EPPR1   B_VECTNIL+16
        20 014720   000000 701000 xent               TSX1    FLI$RPT_ERR
        20 014721   000000 011000                    NOP     0

     4142    28154    5               GOTO READ_BACKUP_ERR10;

  28154 20 014722   015107 710000 20                 TRA     READ_BACKUP_ERR10

     4143    28155    5               END;
     4144    28156
     4145    28157    4            OPEN_BACKUP_TEMP.V.FUN# = %CREATE#;

  28157 20 014723   003000 236007                    LDQ     1536,DL
        20 014724   002155 552010 2                  STBQ    OPEN_BACKUP_TEMP+37,'10'O

PL6.E3A0      #001=FLB$EFT File=FLB$EFT.:E05TSI                                  TUE 07/29/97 15:33 Page:555
     4146    28158    4            CALL M$OPEN( OPEN_BACKUP_TEMP ) ALTRET(READ_BACKUP_ERR);

  28158 20 014725   002110 630400 2                  EPPR0   OPEN_BACKUP_TEMP
        20 014726   450000 713400                    CLIMB   alt,open
        20 014727   410400 401760                    pmme    nvectors=18
        20 014730   015104 702000 20                 TSX2    READ_BACKUP_ERR

     4147    28159
     4148    28160    4            READ_STATUS.V.KEYS# = '0'B;

  28160 20 014731   000053 236000 21                 LDQ     43
        20 014732   000010 356000 xsym               ANSQ    READ_STATUS+8

     4149    28161    4            FIRST = '1'B;

  28161 20 014733   400000 236003                    LDQ     -131072,DU
        20 014734   200031 756100                    STQ     FIRST,,AUTO

     4150    28162    4   READ_LOOP:
     4151    28163    5            DO WHILE( '1'B );

  28163 20 014735                       READ_LOOP    null
     4152    28164    5               CALL M$READ( READ_STATUS )

  28164 20 014735   000000 630400 xsym               EPPR0   READ_STATUS
        20 014736   440000 713400                    CLIMB   alt,read
        20 014737   401400 401760                    pmme    nvectors=4
        20 014740   014742 702000 20                 TSX2    s:28166
        20 014741   014761 710000 20                 TRA     s:28172

     4153    28165    6                WHENALTRETURN DO;

     4154    28166    6                  IF B$TCB.ALT$->B$ALT.ERR.CODE ~= %E$EOF

  28166 20 014742   000000 470400 xsym               LDP0    B$TCB$
        20 014743   000000 471500                    LDP1    0,,PR0
        20 014744   100102 236100                    LDQ     66,,PR1
PL6.E3A0      #001=FLB$EFT File=FLB$EFT.:E05TSI                                  TUE 07/29/97 15:33 Page:556
        20 014745   377770 376007                    ANQ     131064,DL
        20 014746   000060 116007                    CMPQ    48,DL
        20 014747   015104 601000 20                 TNZ     READ_BACKUP_ERR

     4155    28167    6                   THEN GOTO READ_BACKUP_ERR;
     4156    28168    6                  CALL M$CLOSE( CLOSE_STATUS ) ALTRET(READ_BACKUP_ERR);

  28168 20 014750   000000 630400 xsym               EPPR0   CLOSE_STATUS
        20 014751   450001 713400                    CLIMB   alt,close
        20 014752   406000 401760                    pmme    nvectors=13
        20 014753   015104 702000 20                 TSX2    READ_BACKUP_ERR

     4157    28169    6                  CALL M$CLOSE( CLOSE_BACKUP_TEMP ) ALTRET(READ_BACKUP_ERR);

  28169 20 014754   002240 630400 2                  EPPR0   CLOSE_BACKUP_TEMP
        20 014755   450001 713400                    CLIMB   alt,close
        20 014756   406000 401760                    pmme    nvectors=13
        20 014757   015104 702000 20                 TSX2    READ_BACKUP_ERR

     4158    28170    6                  EXIT READ_LOOP;

  28170 20 014760   015017 710000 20                 TRA     s:28189

     4159    28171    6                  END;
     4160    28172    5               IF FIRST                    /* Verify if a valid :BACKUP file     */

  28172 20 014761   200031 234100                    SZN     FIRST,,AUTO
        20 014762   015012 605000 20                 TPL     s:28185

     4161    28173    6                THEN DO;

     4162    28174    6                  IF STATUS_KEY.L ~= LENGTHV( STATUS_KEY )

  28174 20 014763   000000 236000 xsym               LDQ     STATUS_KEY
        20 014764   777000 376003                    ANQ     -512,DU
        20 014765   003000 116003                    CMPQ    1536,DU
        20 014766   014776 601000 20                 TNZ     s:28179
PL6.E3A0      #001=FLB$EFT File=FLB$EFT.:E05TSI                                  TUE 07/29/97 15:33 Page:557
        20 014767   000000 236000 xsym               LDQ     STATUS_KEY
        20 014770   000777 316003                    CANQ    511,DU
        20 014771   014776 601000 20                 TNZ     s:28179
        20 014772   777000 316007                    CANQ    -512,DL
        20 014773   014776 601000 20                 TNZ     s:28179
        20 014774   000777 316007                    CANQ    511,DL
        20 014775   015011 600000 20                 TZE     s:28183

     4163    28175    6                    OR STATUS_KEY.RUN_NBR ~= 0
     4164    28176    6                    OR STATUS_KEY.TSN_SET_NBR ~= 0
     4165    28177    6                    OR STATUS_KEY.TSN_VOL ~= 0
     4166    28178    7                   THEN DO;

     4167    28179    7                     DCB# = DCBNUM(M$STATUS);

  28179 20 014776   000000 236007 xsym               LDQ     M$STATUS,DL
        20 014777   200027 756100                    STQ     DCB#,,AUTO

     4168    28180    7                     CALL FLI$RPT_ERR( E_BAD_BKUP_FILE, DCB# );

  28180 20 015000   200027 630500                    EPPR0   DCB#,,AUTO
        20 015001   200043 450500                    STP0    @MAX_NX+2,,AUTO
        20 015002   000225 236000 21                 LDQ     149
        20 015003   200042 756100                    STQ     @MAX_NX+1,,AUTO
        20 015004   200042 630500                    EPPR0   @MAX_NX+1,,AUTO
        20 015005   000020 631400 xsym               EPPR1   B_VECTNIL+16
        20 015006   000000 701000 xent               TSX1    FLI$RPT_ERR
        20 015007   000000 011000                    NOP     0

     4169    28181    7                     GOTO READ_BACKUP_ERR10;

  28181 20 015010   015107 710000 20                 TRA     READ_BACKUP_ERR10

     4170    28182    7                     END;
     4171    28183    6                   ELSE FIRST = '0'B;

  28183 20 015011   200031 450100                    STZ     FIRST,,AUTO
PL6.E3A0      #001=FLB$EFT File=FLB$EFT.:E05TSI                                  TUE 07/29/97 15:33 Page:558

     4172    28184    6                  END;

     4173    28185    5               CALL M$WRITE( WRITE_BACKUP_TEMP ) ALTRET(READ_BACKUP_ERR);

  28185 20 015012   002224 630400 2                  EPPR0   WRITE_BACKUP_TEMP
        20 015013   440001 713400                    CLIMB   alt,write
        20 015014   401400 401760                    pmme    nvectors=4
        20 015015   015104 702000 20                 TSX2    READ_BACKUP_ERR

     4174    28186    5               END;

  28186 20 015016   014735 710000 20                 TRA     READ_LOOP

     4175    28187
     4176    28188    4          END;

     4177    28189    3         END;

  28189 20 015017   015051 710000 20                 TRA     READ_LOOP5

     4178    28190    3       ELSE DO;                  /* Copy :BACKUP file from destination packset   */

     4179    28191    3         FID_NAME = BACKUP_NAME;

  28191 20 015020   000000 236000 xsym               LDQ     BACKUP_NAME
        20 015021   000033 772000                    QRL     27
        20 015022   000001 624006                    EAX4    1,QL
        20 015023   000000 100440                    MLR     fill='000'O
        20 015024   000000 000014 xsym               ADSC9   BACKUP_NAME              cn=0,n=*X4
        20 015025   001360 000040 2                  ADSC9   FID_NAME                 cn=0,n=32

     4180    28192    3         FID_ACCT = BACKUP_ACCT;

  28192 20 015026   000140 237000 2                  LDAQ    BACKUP_ACCT
        20 015027   001370 757000 2                  STAQ    FID_ACCT

PL6.E3A0      #001=FLB$EFT File=FLB$EFT.:E05TSI                                  TUE 07/29/97 15:33 Page:559
     4181    28193    3         FID_SN.SN#(0) = DISK_DEST_SN.SN#(0);

  28193 20 015030   040000 100400                    MLR     fill='040'O
        20 015031   000001 000006 xsym               ADSC9   DISK_DEST_SN+1           cn=0,n=6
        20 015032   001375 000006 2                  ADSC9   FID_SN+1                 cn=0,n=6

     4182    28194    3         OPEN_BACKUP_RBLDFILE.V.RES# = DISK_DEST_RES.NAME;

  28194 20 015033   000001 236000 xsym               LDQ     DISK_DEST_RES+1
        20 015034   002066 756000 2                  STQ     OPEN_BACKUP_RBLDFILE+40

     4183    28195    3         CALL M$OPEN( OPEN_BACKUP_RBLDFILE ) ALTRET(READ_BACKUP_ERR);

  28195 20 015035   002016 630400 2                  EPPR0   OPEN_BACKUP_RBLDFILE
        20 015036   450000 713400                    CLIMB   alt,open
        20 015037   410400 401760                    pmme    nvectors=18
        20 015040   015104 702000 20                 TSX2    READ_BACKUP_ERR

     4184    28196
     4185    28197    3         OPEN_BACKUP_TEMP.V.FUN# = %CREATE#;

  28197 20 015041   003000 236007                    LDQ     1536,DL
        20 015042   002155 552010 2                  STBQ    OPEN_BACKUP_TEMP+37,'10'O

     4186    28198    3         CALL M$OPEN( OPEN_BACKUP_TEMP ) ALTRET(READ_BACKUP_ERR);

  28198 20 015043   002110 630400 2                  EPPR0   OPEN_BACKUP_TEMP
        20 015044   450000 713400                    CLIMB   alt,open
        20 015045   410400 401760                    pmme    nvectors=18
        20 015046   015104 702000 20                 TSX2    READ_BACKUP_ERR

     4187    28199
     4188    28200    3         READ_STATUS.V.KEYS# = '0'B;

  28200 20 015047   000053 236000 21                 LDQ     43
        20 015050   000010 356000 xsym               ANSQ    READ_STATUS+8

PL6.E3A0      #001=FLB$EFT File=FLB$EFT.:E05TSI                                  TUE 07/29/97 15:33 Page:560
     4189    28201    3         END;

     4190    28202    2   READ_LOOP5:
     4191    28203    3      DO WHILE( '1'B );

  28203 20 015051                       READ_LOOP5   null
     4192    28204    3         CALL M$READ( READ_STATUS )

  28204 20 015051   000000 630400 xsym               EPPR0   READ_STATUS
        20 015052   440000 713400                    CLIMB   alt,read
        20 015053   401400 401760                    pmme    nvectors=4
        20 015054   015056 702000 20                 TSX2    s:28206
        20 015055   015075 710000 20                 TRA     s:28212

     4193    28205    4          WHENALTRETURN DO;

     4194    28206    4            IF B$TCB.ALT$->B$ALT.ERR.CODE ~= %E$EOF

  28206 20 015056   000000 470400 xsym               LDP0    B$TCB$
        20 015057   000000 471500                    LDP1    0,,PR0
        20 015060   100102 236100                    LDQ     66,,PR1
        20 015061   377770 376007                    ANQ     131064,DL
        20 015062   000060 116007                    CMPQ    48,DL
        20 015063   015104 601000 20                 TNZ     READ_BACKUP_ERR

     4195    28207    4             THEN GOTO READ_BACKUP_ERR;
     4196    28208    4            CALL M$CLOSE( CLOSE_STATUS ) ALTRET(READ_BACKUP_ERR);

  28208 20 015064   000000 630400 xsym               EPPR0   CLOSE_STATUS
        20 015065   450001 713400                    CLIMB   alt,close
        20 015066   406000 401760                    pmme    nvectors=13
        20 015067   015104 702000 20                 TSX2    READ_BACKUP_ERR

     4197    28209    4            CALL M$CLOSE( CLOSE_BACKUP_TEMP ) ALTRET(READ_BACKUP_ERR);

  28209 20 015070   002240 630400 2                  EPPR0   CLOSE_BACKUP_TEMP
        20 015071   450001 713400                    CLIMB   alt,close
PL6.E3A0      #001=FLB$EFT File=FLB$EFT.:E05TSI                                  TUE 07/29/97 15:33 Page:561
        20 015072   406000 401760                    pmme    nvectors=13
        20 015073   015104 702000 20                 TSX2    READ_BACKUP_ERR

     4198    28210    4            EXIT READ_LOOP5;

  28210 20 015074   015102 710000 20                 TRA     s:28214

     4199    28211    4            END;
     4200    28212    3         CALL M$WRITE( WRITE_BACKUP_TEMP ) ALTRET(READ_BACKUP_ERR);

  28212 20 015075   002224 630400 2                  EPPR0   WRITE_BACKUP_TEMP
        20 015076   440001 713400                    CLIMB   alt,write
        20 015077   401400 401760                    pmme    nvectors=4
        20 015100   015104 702000 20                 TSX2    READ_BACKUP_ERR

     4201    28213    3         END;

  28213 20 015101   015051 710000 20                 TRA     READ_LOOP5

     4202    28214    2      RETURN;

  28214 20 015102   200026 221300                    LDX1  ! NEW_REBUILD+6,,AUTO
        20 015103   000001 702211                    TSX2  ! 1,X1

     4203    28215
     4204    28216    2   READ_BACKUP_ERR:
     4205    28217    2      CALL FLI$RPT_ERR;

  28217 20 015104   000002 631400 xsym  READ_BACKUP* EPPR1   B_VECTNIL+2
        20 015105   000000 701000 xent               TSX1    FLI$RPT_ERR
        20 015106   000000 011000                    NOP     0

     4206    28218    2   READ_BACKUP_ERR10:
     4207    28219    2      IF DCBADDR(DCBNUM(M$TAPE00)) -> F$DCB.FCD#

  28219 20 015107   000000 236007 xsym  READ_BACKUP* LDQ     M$TAPE00,DL
        20 015110   000000 470400 21                 LDP0    0
PL6.E3A0      #001=FLB$EFT File=FLB$EFT.:E05TSI                                  TUE 07/29/97 15:33 Page:562
        20 015111   000000 471500                    LDP1    0,,PR0
        20 015112   100000 473506                    LDP3    0,QL,PR1
        20 015113   300031 236100                    LDQ     25,,PR3
        20 015114   020000 316007                    CANQ    8192,DL
        20 015115   015121 600000 20                 TZE     s:28221

     4208    28220    2       THEN CALL M$CLOSE (TAPE_CLOSE);

  28220 20 015116   000000 630400 xsym               EPPR0   TAPE_CLOSE
        20 015117   050001 713400                    CLIMB   close
        20 015120   406000 401760                    pmme    nvectors=13

     4209    28221    2      IF DCBADDR(DCBNUM(M$DISK00)) -> F$DCB.FCD#

  28221 20 015121   000000 236007 xsym               LDQ     M$DISK00,DL
        20 015122   000000 470400 21                 LDP0    0
        20 015123   000000 471500                    LDP1    0,,PR0
        20 015124   100000 473506                    LDP3    0,QL,PR1
        20 015125   300031 236100                    LDQ     25,,PR3
        20 015126   020000 316007                    CANQ    8192,DL
        20 015127   015133 600000 20                 TZE     s:28223

     4210    28222    2       THEN CALL M$CLOSE (DISK_CLOSE);

  28222 20 015130   000000 630400 xsym               EPPR0   DISK_CLOSE
        20 015131   050001 713400                    CLIMB   close
        20 015132   406000 401760                    pmme    nvectors=13

     4211    28223    2      IF DCBADDR(DCBNUM(M$STATUS)) -> F$DCB.FCD#

  28223 20 015133   000000 236007 xsym               LDQ     M$STATUS,DL
        20 015134   000000 470400 21                 LDP0    0
        20 015135   000000 471500                    LDP1    0,,PR0
        20 015136   100000 473506                    LDP3    0,QL,PR1
        20 015137   300031 236100                    LDQ     25,,PR3
        20 015140   020000 316007                    CANQ    8192,DL
        20 015141   015145 600000 20                 TZE     s:28225
PL6.E3A0      #001=FLB$EFT File=FLB$EFT.:E05TSI                                  TUE 07/29/97 15:33 Page:563

     4212    28224    2       THEN CALL M$CLOSE (CLOSE_STATUS);

  28224 20 015142   000000 630400 xsym               EPPR0   CLOSE_STATUS
        20 015143   050001 713400                    CLIMB   close
        20 015144   406000 401760                    pmme    nvectors=13

     4213    28225    2      ALTRETURN;

  28225 20 015145   200026 221300                    LDX1  ! NEW_REBUILD+6,,AUTO
        20 015146   000000 702211                    TSX2  ! 0,X1

     4214    28226    2   END FLB_READ_BACKUP;
     4215    28227    1      END FLB$EFT;

  28227 20 015147   000000 702200 xent               TSX2  ! X66_MARET
     4216    28228        %EOD;

PL6.E3A0      #001=FLB$EFT File=FLB$EFT.:E05TSI                                  TUE 07/29/97 15:33 Page:564
--  Include file information  --

   XU_SUBS_C.:E05TOU  is referenced.
   XU_MACRO_C.:E05TOU  is referenced.
   XUR_ENTRY.:E05TOU  cannot be made into a system file and is referenced.
   XUH_MACRO_C.:E05TOU  is referenced.
   XUD_UTS_M.:E05TOU  is referenced.
   FM$GRAN.:E05TOU  is referenced.
   FM$FIT.:E05TOU  is referenced.
   FLW_DATA_R.:E05TOU  cannot be made into a system file and is referenced.
   FLS_DATA_R.:E05TOU  cannot be made into a system file and is referenced.
   FLN_DATA_R.:E05TOU  cannot be made into a system file and is referenced.
   B_MICROPS_C.:E05TOU  is referenced.
   FLB_SUBS_C.:E05TOU  is referenced.
   FLI_DATA_R.:E05TOU  cannot be made into a system file and is referenced.
   FL_PERR_C.:E05TOU  is referenced.
   FLE_DATA_R.:E05TOU  cannot be made into a system file and is referenced.
   B_ERRORS_C.:E05TOU  is referenced.
   B$JIT_C.:E05TOU  is referenced.
   B$JIT.:E05TOU  cannot be made into a system file and is referenced.
   CP_6_SUBS.:E05TOU  is referenced.
   CP_6_C.:E05TOU  is referenced.
   CP_6.:E05TOU  cannot be made into a system file and is referenced.
      No diagnostics issued in procedure FLB$EFT.
PL6.E3A0      #001=FLB$EFT File=FLB$EFT.:E05TSI                                  TUE 07/29/97 15:33 Page:565

 **** Variables and constants ****

  ****  Section 002  Data  FLB$EFT

  ****  Scalars and arrays  ****
OctLoc.c.b A Datatyp(siz) R M Lvl/name                 OctLoc.c.b A Datatyp(siz) R M Lvl/name

   447-0-0/c STRC(72)    r     1 ACCT                    2320-0-0/b BIT         r     1 AFT
  2322-0-0/w SBIN        r     1 AFT_DELTA                172-0-0/c STRC(126)   r     1 ANSDATE
   172-0-0/c STRC(126)   r     1 ANSDATEPIECE             251-0-0/b BIT         r     1 BACKUP_$$EFT
   140-0-0/c STRC(72)    r     1 BACKUP_ACCT                3-0-0/c STRC(108)   r     1 BACKUP_CMD_FNAME
  1626-0-0/d STRC(2088)  r     1 BACKUP_CMD_OPEN         2202-0-0/c STRC(81)    r     1 BACKUP_TEMP
  2321-0-0/b BIT         r     1 BEF                     2323-0-0/w SBIN        r     1 BEF_DELTA
   155-0-0/b BIT         r     1 BREAK_CONTINUED          154-0-0/w SBIN        r     1 BREAK_COUNT
   156-0-0/w SBIN        r     1 BREAK_DCB#               157-0-0/c CHAR(18)    r     1 BREAK_TASK
  2330-0-0/w SBIN        r     1 C                        506-0-0/d STRC(2088)  r     1 CHECK_PACKSET
   165-0-0/b BIT         r     1 CHECK_TAPE              1720-0-0/d STRC(144)   r     1 CHKEFTRUN
  2240-0-0/d STRC(1080)  r     1 CLOSE_BACKUP_TEMP        100-0-0/d STRC(1080)  r     1 CLOSE_BLOCK_FILE
  1036-0-0/d STRC(1080)  r     1 CLOSE_FID               1166-0-0/d STRC(1080)  r     1 CLOSE_READ_FILE
   166-0-0/w SBIN        r     1 CODE                     167-0-0/w SBIN        r     1 COMMAND
  2327-0-0/w SBIN        r     1 CX                      2306-0-0/w SBIN        r     1 DATENODEX
   171-0-0/w UBIN        r     1 DATEUTS                 2304-0-0/w SBIN        r     1 DATEX
  2303-0-0/w PTR         r     1 DATE_NODE$              2316-0-0/w SBIN        r     1 DATE_TYPE
  2312-0-0/w PTR         r     1 DECIMAL$                2305-0-0/w SBIN        r     1 DECNODEX
   142-0-0/d STRC(360)   r     1 DEL_NODATA_REC          2324-0-0/b BIT         r     1 DISK_AND
   502-0-0/d STRC(90)    r     1 DPSN                     255-0-0/w STRC(504)   r     1 EFT_CMD_PCB
   612-0-0/d STRC(360)   r     1 ERASE_HEADER             226-0-0/w STRC        r     1 ERR
  2357-0-0/w STRC        r     1 ERR                     1370-0-0/c STRC(72)    r     1 FID_ACCT
  1360-0-0/c STRC(288)   r     1 FID_NAME                1372-0-0/c STRC(72)    r     1 FID_PASS
  2326-0-0/w PTR         r     1 FID_RANGE_SUBLK$        1374-0-0/d STRC(576)   r     1 FID_SN
  1414-0-0/c STRC(72)    r     1 FID_WSN                  437-0-0/c STRC(288)   r     1 FILE
   244-0-0/c STRC(72)    r     1 FIRST_ACCT_SPECIFIED     176-0-0/b BIT         r     1 FIRST_TIME
  1316-0-0/d STRC(864)   r     1 FPT_FID                 1346-0-0/d STRC(324)   r     1 FPT_FID_RESULTS
  1510-0-0/d STRC(144)   r     1 FPT_REM                  640-0-0/d STRC(432)   r     1 GET_ANSDATE_DATEUTS
   654-0-0/d STRC(432)   r     1 GET_DATEUTS_ANSDATE      670-0-0/d STRC(432)   r     1 GET_GREETING_TIME
   626-0-0/d STRC(288)   r     1 GET_PSN                  177-0-0/c STRC(288)   r     1 GREETINGS
   720-0-0/d STRC(432)   r     1 GREET_TEST_USER          704-0-0/d STRC(432)   r     1 GREET_USER
PL6.E3A0      #001=FLB$EFT File=FLB$EFT.:E05TSI                                  TUE 07/29/97 15:33 Page:566
   213-0-0/w SBIN        r     1 I                       2331-0-0/w SBIN        r     1 I
  2334-0-0/w SBIN        r     1 I_SWAP                   246-0-0/w SBIN        r     1 J
  2332-0-0/w SBIN        r     1 J                       2335-0-0/w SBIN        r     1 LAST_RANGEX
  2333-0-0/w SBIN        r     1 M                        217-0-0/w PTR         r     1 M$CATALOG$
   216-0-0/w PTR         r     1 M$LO$                    214-0-0/w PTR         r     1 M$READ_FILE$
   215-0-0/w PTR         r     1 M$SI$                    250-0-0/w SBIN        r     1 MODE
   220-0-0/d STRC(90)    r     1 MUCK_LIST                224-0-0/w SBIN        r     1 N
  2355-0-0/w SBIN        r     1 N                       2356-0-0/w SBIN        r     1 N
   225-0-0/w SBIN        r     1 NBR_DPS                  226-0-0/w PTR         r     1 NODE$
  2314-0-0/b BIT         r     1 NOT_SPECIFIED           2016-0-0/d STRC(2088)  r     1 OPEN_BACKUP_RBLDFILE
  2110-0-0/d STRC(2088)  r     1 OPEN_BACKUP_TEMP           6-0-0/d STRC(2088)  r     1 OPEN_BLOCK_FILE
  1416-0-0/d STRC(2088)  r     1 OPEN_DEFAULT_LO         1224-0-0/d STRC(2088)  r     1 OPEN_FID
   744-0-0/d STRC(2088)  r     1 OPEN_LO_DO              1074-0-0/d STRC(2088)  r     1 OPEN_SI
   253-0-0/w STRC(7)     r     1 OPTION_MAP               636-0-0/c STRC(72)    r     1 OUR_ACCT
  1514-0-0/d STRC(360)   r     1 PAGE_LO                  624-0-0/w STRC(54)    r     1 PAGE_LO_HEADER
   600-0-0/d STRC(360)   r     1 PAGE_LO_RESET            240-0-0/c STRC(72)    r     1 PREV_ACCT
   170-0-0/w SBIN        r     1 PREV_COMMAND            2276-0-0/d STRC(90)    r     1 PREV_TAPE_SN
  2354-0-0/b BIT         r     1 RANGE_FOUND              242-0-0/b BIT         r     1 RANGE_SPECIFIED
  2336-0-0/w PTR         r     1 RANGE_START$            2337-0-0/w PTR         r     1 RANGE_STOP$
  2206-0-0/d STRC(504)   r     1 READ_BACKUP_TEMP         164-0-0/b BIT         r     1 RESTORE_FROM_TAPE
  1530-0-0/c STRC(90)    r     1 RET_CMDS_FNAME          1534-0-0/d STRC(2088)  r     1 RET_CMDS_OPEN
  1724-0-0/d STRC(2088)  r     1 SAVE_TAPE_OPEN           243-0-0/b BIT         r     1 SKIP_SPECIFIED
  2340-0-0/w PTR         r     1 SKIP_START$             2341-0-0/w PTR         r     1 SKIP_STOP$
   230-0-0/w PTR         r     1 SOURCE_TAPE_SNLIST$      254-0-0/b STRC(3)     r     1 SRCH_BIT
   461-0-0/c STRC(72)    r     1 START_ACCT               451-0-0/c STRC(288)   r     1 START_FILE
   247-0-0/w SBIN        r     1 STATE                    473-0-0/c STRC(72)    r     1 STOP_ACCT
   463-0-0/c STRC(288)   r     1 STOP_FILE                231-0-0/w PTR         r     1 SUBNODE$
   232-0-0/w SBIN        r     1 SUBNODEX                 233-0-0/w PTR         r     1 SUBSUBNODE$
   234-0-0/w SBIN        r     1 SUBSUBNODEX              235-0-0/w SBIN        r     1 SUBSUBSUBNODEX
   252-0-0/w SBIN        r     1 SUB_COMMAND              740-0-0/d STRC(144)   r     1 SWITCH_FMEFT
   734-0-0/d STRC(144)   r     1 SWITCH_FMSEC             236-0-0/w SBIN        r     1 TEMP
   237-0-0/w PTR         r     1 TEMP$                   2342-0-0/c CHAR(40)    r     1 TEMP_SPEC
   207-0-0/c STRC(135)   r     1 TEST_GREETINGS          2307-0-0/w PTR         r     1 TIMENODE$
  2311-0-0/w SBIN        r     1 TIMEX                   2310-0-0/b BIT         r     1 TIME_SPECIFIED
  2317-0-0/b BIT         r     1 USE_ANSDATE              436-0-0/w STRC        r     1 VLP_ERRCODE
  2315-0-0/w SBIN        r     1 WHAT_DATE               2224-0-0/d STRC(432)   r     1 WRITE_BACKUP_TEMP
   344-0-0/d STRC(2052)  r     1 XUH_PARAM                274-0-0/d STRC(1404)  r     1 XUR_INIT
PL6.E3A0      #001=FLB$EFT File=FLB$EFT.:E05TSI                                  TUE 07/29/97 15:33 Page:567

  ****  Section 019 RoData FLB$EFT

  ****  Scalars and arrays  ****
OctLoc.c.b A Datatyp(siz) R M Lvl/name                 OctLoc.c.b A Datatyp(siz) R M Lvl/name

    14-0-0/w STRC(288)   r     1 DATE_INFO(0:3)
     6-0-0/c CHAR        r     1 EFT_PROMPT                54-0-0/w UBIN(9)     r     1 FIRST_LEGAL_CHAR
     0-0-0/c STRC(162)   r     1 FLERRMSGSYS               10-0-0/d STRC(144)   r     1 FPT_INT
    55-0-0/w UBIN(9)     r     1 LAST_LEGAL_CHAR
    56-0-0/b BIT         r     1 LEGAL_CHAR(0:127)
     5-0-0/c CHAR        r     1 PROMPT

  ****  Auto variables  ****

  ****  Scalars and arrays  ****
OctLoc.c.b A Datatyp(siz) R M Lvl/name                 OctLoc.c.b A Datatyp(siz) R M Lvl/name

    37-0-0/w PTR         r     1 @DATEFIELD                33-0-0/w PTR         r     1 @FID_RANGE$
    35-0-0/w PTR         r     1 @FILE_N_ACCOUNT$          31-0-0/w PTR         r     1 @LAST_T_FSN
    41-0-0/w PTR         r     1 @MAX_NX                   41-0-0/w PTR         r     1 @MAX_NX
    40-0-0/w PTR         r     1 @N                        40-0-0/w PTR         r     1 @N
    37-0-0/w PTR         r     1 @NAMEB                    37-0-0/w PTR         r     1 @NAMEB
    36-0-0/w PTR         r     1 @RANGE                    35-0-0/w PTR         r     1 @SPEC
    35-0-0/w PTR         r     1 @SPEC                     11-0-0/w PTR         r     1 @SUBNODE$
    31-0-0/w PTR         r     1 @SUBNODEY                 27-0-0/w PTR         r     1 @T_DENSITY
    30-0-0/w PTR         r     1 @T_FSN                    32-0-0/w PTR         r     1 @T_IOERROK
    36-0-0/w SBIN        r     1 ARS                       40-0-0/d STRC(72)    r     1 BUF_
     3-0-0/b BIT         r     1 CHECK_SRCH_BIT            34-0-0/c STRC(45)    r     1 CT5FMT
    34-0-0/c CHAR(5)     r     1 CT5FMTCHARS               36-0-0/c STRC(54)    r     1 CT6FMT
    36-0-0/c CHAR(6)     r     1 CT6FMTCHARS               *0-0-0/c CHAR(2)     r     1 DATEFIELD
     6-0-0/w SBIN        r     1 DCB#                      27-0-0/w UBIN        r     1 DCB#
     5-0-0/w PTR         r     1 DCB$                      10-0-0/w SBIN        r     1 DEST_TAPE_VOL_SAVE
    32-0-0/b BIT         r     1 DISK_OPTION_DIR_SAVE      33-0-0/b BIT         r     1 DISK_OPTION_PAD_SAVE
    *0-0-0/w PTR         r     1 FID_RANGE$                *0-0-0/w PTR         r     1 FILE_N_ACCOUNT$
     7-0-0/b BIT         r     1 FILE_OPEN                 31-0-0/b BIT         r     1 FIRST
    34-0-0/d STRC(72)    r     1 FPARAM_                    6-0-0/b BIT         r     1 FSN_SPECD
PL6.E3A0      #001=FLB$EFT File=FLB$EFT.:E05TSI                                  TUE 07/29/97 15:33 Page:568
     7-0-0/w UBIN        r     1 GRAND_START_UTS            5-0-0/w SBIN        r     1 GRAND_TOTAL_FILES
     6-0-0/w SBIN        r     1 GRAND_TOTAL_GRANS          5-0-0/w UBIN        r     1 I
     6-0-0/w SBIN        r     1 INCR                      *0-0-0/w UBIN        r     1 LAST_T_FSN
    *0-0-0/w SBIN        r     1 MAX_NX                    *0-0-0/w SBIN        r     1 MAX_NX
    *0-0-0/w SBIN        r     1 N                         *0-0-0/w SBIN        r     1 N
    27-0-0/w SBIN        r     1 N                         *0-0-0/c UBIN(9)     r     1 NAMEB(0:0)
    *0-0-0/c UBIN(9)     r     1 NAMEB(0:0)                14-0-0/w UBIN        r     1 NBR_RUNS
    20-0-0/b BIT         r     1 NEW_REBUILD               30-0-0/w SBIN        r     1 NN
    27-0-0/b BIT         r     1 NODE_ERROR                *0-0-0/w UBIN        r     1 RANGE
    32-0-0/w PTR         r     1 SNLIST$                   33-0-0/w PTR         r     1 SNLISTINFO$
    31-0-0/w UBIN        r     1 SNSIZE                    30-0-0/w PTR         r     1 SOURCE_DCB$
    *0-0-0/c STRC(360)   r     1 SPEC                      *0-0-0/c STRC(360)   r     1 SPEC
    *0-0-0/w PTR         r     1 SUBNODE$                  13-0-0/w SBIN        r     1 SUBNODEX
     5-0-0/w SBIN        r     1 SUBNODEY                  *0-0-0/w SBIN        r     1 SUBNODEY
    12-0-0/w PTR         r     1 SUBSUBNODE$               16-0-0/w UBIN        r     1 TAPE_DENSITY
    15-0-0/w UBIN        r     1 TAPE_FSN                  17-0-0/b BIT         r     1 TAPE_IOERROK
     7-0-0/w PTR         r     1 TEMP$                     *0-0-0/w UBIN        r     1 T_DENSITY
    *0-0-0/w UBIN        r     1 T_FSN                     *0-0-0/w BIT         r     1 T_IOERROK

  ****  SYMREF variables  ****

  ****  Scalars and arrays  ****
OctLoc.c.b A Datatyp(siz) R M Lvl/name                 OctLoc.c.b A Datatyp(siz) R M Lvl/name

     0-0-0/w UBIN        r     1 ACCUMULATED_BREAK_TIME
     0-0-0/w UBIN        r     1 ACCUMULATED_MOUNT_TIME
     0-0-0/w UBIN        r     1 ACCUMULATED_SPIN_TIME
     0-0-0/w PTR         r     1 ARCHIVE$                   0-0-0/c ASTR(9)     r     1 ARCHIVE_NAME
     0-0-0/w PTR         r     1 B$JIT$                     0-0-0/w PTR         r     1 B$TCB$
     0-0-0/c ASTR(9)     r     1 BACKUP_NAME                0-0-0/d STRC(90)    r     1 BACKUP_SN
     0-0-0/w PTR         r     1 BLK_TAG$                   0-0-0/w PTR         r     1 BLK_TAG0$
     0-0-0/w PTR         r     1 BLOCK_GRAN$                0-0-0/c CHAR        r     1 B_VERSION
     0-0-0/b BIT         r     1 CATALOG_ON                 0-0-0/b BIT         r     1 CATALOG_ONTO
     0-0-0/d STRC(1080)  r     1 CLOSE_REBUILD              0-0-0/d STRC(1080)  r     1 CLOSE_STATUS
     0-0-0/d STRC(1080)  r     1 CLOSE_TSN_USED             0-0-0/b BIT         r     1 COMMAND_ERROR
     0-0-0/w UBIN        r     1 CONTROL_LIST(0:5)
     0-0-0/c CHAR(4)     r     1 CT_IMAGE                   0-0-0/b STRC(12)    r     1 DATE_CRIT
PL6.E3A0      #001=FLB$EFT File=FLB$EFT.:E05TSI                                  TUE 07/29/97 15:33 Page:569
     0-0-0/w SBIN        r     1 DEFAULT_GRANS_PER_TAPE_BUF
     0-0-0/w UBIN        r     1 DISK_AFT_UTS(0:8191)
     0-0-0/b BIT         r     1 DISK_AND_OP(0:8191)
     0-0-0/w UBIN        r     1 DISK_BEF_UTS(0:8191)
     0-0-0/d STRC(1080)  r     1 DISK_CLOSE                 0-0-0/b STRC(3)     r     1 DISK_CRIT
     0-0-0/b STRC(18)    r     1 DISK_DESC                  0-0-0/b STRC(18)    r     1 DISK_DESC_MASK
     0-0-0/c STRC(72)    r     1 DISK_DEST_ACCT             0-0-0/w SBIN        r     1 DISK_DEST_EXIST
     0-0-0/w STRC(72)    r     1 DISK_DEST_RES              0-0-0/d STRC(90)    r     1 DISK_DEST_SN
     0-0-0/w PTR         r     1 DISK_FILE_SPEC$            0-0-0/w PTR         r     1 DISK_GRAN$
     0-0-0/d STRC(2088)  r     1 DISK_OPEN                  0-0-0/d STRC(2088)  r     1 DISK_OPEN_NEXT
     0-0-0/w STRC(145)   r     1 DISK_OPTION                0-0-0/w STRC(792)   r     1 DISK_ORGS
     0-0-0/b STRC(18)    r     1 DISK_SRCHCOND              0-0-0/d STRC(432)   r     1 DISK_WRITE
     0-0-0/w PTR         r     1 DPLIST$                    0-0-0/w PTR         r     1 DPRESLIST$
     0-0-0/c ASTR(9)     r     1 DUAL_FILE                  0-0-0/w UBIN        r     1 EFT_CMD
     0-0-0/c ASTR(9)     r     1 EFT_CVOL_FILE              0-0-0/c ASTR(9)     r     1 EFT_RESTRICT_FILE
     0-0-0/w SBIN        r     1 ERROR_LIMIT                0-0-0/w STRC        r     1 E_BAD_ACC
     0-0-0/w STRC        r     1 E_BAD_ARC                  0-0-0/w STRC        r     1 E_BAD_BAC
     0-0-0/w STRC        r     1 E_BAD_BKUP_FILE            0-0-0/w STRC        r     1 E_BAD_CRE
     0-0-0/w STRC        r     1 E_BAD_DP_FORMAT            0-0-0/w STRC        r     1 E_BAD_FSN
     0-0-0/w STRC        r     1 E_BAD_FSN_RANGE            0-0-0/w STRC        r     1 E_BAD_MOD
     0-0-0/w STRC        r     1 E_BAD_RANGE                0-0-0/w STRC        r     1 E_BAD_SKIP_N_RANGE
     0-0-0/w STRC        r     1 E_CANT_OPEN_TBACKUP        0-0-0/w STRC        r     1 E_CANT_RUN_EFT
     0-0-0/w STRC        r     1 E_CANT_SPECIFY_ACUP        0-0-0/w STRC        r     1 E_CANT_SPECIFY_ANYF
     0-0-0/w STRC        r     1 E_CANT_SPECIFY_CLEANUP
     0-0-0/w STRC        r     1 E_CANT_SPECIFY_DELF
     0-0-0/w STRC        r     1 E_CANT_SPECIFY_DEL_ACC
     0-0-0/w STRC        r     1 E_CANT_SPECIFY_DIR         0-0-0/w STRC        r     1 E_CANT_SPECIFY_IDS
     0-0-0/w STRC        r     1 E_CANT_SPECIFY_PAD         0-0-0/w STRC        r     1 E_CANT_SPECIFY_QF
     0-0-0/w STRC        r     1 E_CANT_SPECIFY_SCRUB
     0-0-0/w STRC        r     1 E_CANT_SPECIFY_SHARED
     0-0-0/w STRC        r     1 E_CAT_OFF                  0-0-0/w STRC        r     1 E_CLOSE_INVALID
     0-0-0/w STRC        r     1 E_DUPLICATE_PSN            0-0-0/w STRC        r     1 E_DUP_AFT_ACC
     0-0-0/w STRC        r     1 E_DUP_AFT_ARC              0-0-0/w STRC        r     1 E_DUP_AFT_BAC
     0-0-0/w STRC        r     1 E_DUP_AFT_CRE              0-0-0/w STRC        r     1 E_DUP_AFT_MOD
     0-0-0/w STRC        r     1 E_DUP_BEF_ACC              0-0-0/w STRC        r     1 E_DUP_BEF_ARC
     0-0-0/w STRC        r     1 E_DUP_BEF_BAC              0-0-0/w STRC        r     1 E_DUP_BEF_CRE
     0-0-0/w STRC        r     1 E_DUP_BEF_MOD              0-0-0/w STRC        r     1 E_DUP_TAPESET
PL6.E3A0      #001=FLB$EFT File=FLB$EFT.:E05TSI                                  TUE 07/29/97 15:33 Page:570
     0-0-0/w STRC        r     1 E_EXPD_NOT_EXPD            0-0-0/w STRC        r     1 E_FILE_NAME
     0-0-0/w STRC        r     1 E_MUST_BE_CAT_FILE         0-0-0/w STRC        r     1 E_MUST_CAT_DISK
     0-0-0/w STRC        r     1 E_MUST_CAT_OFF             0-0-0/w STRC        r     1 E_NEED_TIME
     0-0-0/w STRC        r     1 E_NO_CATALOG               0-0-0/w STRC        r     1 E_NO_FILE
     0-0-0/w STRC        r     1 E_NO_FSN                   0-0-0/w STRC        r     1 E_NO_NEXT_SPEC
     0-0-0/w STRC        r     1 E_NO_PREV_SPEC             0-0-0/w STRC        r     1 E_NO_RANGE
     0-0-0/w STRC        r     1 E_OVERLAP_RANGE            0-0-0/w STRC        r     1 E_OVERLAP_SKIP
     0-0-0/w STRC        r     1 E_REBUILD_CONTINUE         0-0-0/w STRC        r     1 E_RETURN_TO_COMMAND
     0-0-0/w STRC        r     1 E_TOO_MANY_ERRORS_TO_SWITCH
     0-0-0/w STRC        r     1 E_TRY_AGAIN                0-0-0/w STRC        r     1 E_WARN_OVERLAP_RANGE
     0-0-0/w STRC        r     1 E_WARN_OVERLAP_SKIP        0-0-0/w STRC        r     1 E_WIPEOUT_SOURCE
     0-0-0/w STRC(18)    r     1 FILE_TYPE                  0-0-0/c STRC(72)    r     1 FIRST_ACCT
     0-0-0/c STRC(288)   r     1 FIRST_FILE                 0-0-0/b BIT         r     1 FMSEC
     0-0-0/d STRC(216)   r     1 FPT_EXIT                   0-0-0/c STRC(72)    r     1 FROM_DISK_ACCT
     0-0-0/c STRC(288)   r     1 FROM_DISK_NAME             0-0-0/d STRC(90)    r     1 FROM_DISK_SN
     0-0-0/d STRC(432)   r     1 GET_NOW_UTS                0-0-0/c STRC(72)    r     1 LAST_ACCT
     0-0-0/c STRC(288)   r     1 LAST_FILE                  0-0-0/w PTR         r     1 LAST_SNLISTINFO$
     0-0-0/w SBIN        r     1 LAST_TAPE_FSN              0-0-0/w PTR         r     1 M$TAPE00$
     0-0-0/w SBIN        r     1 NBR_BYTES_TO_MOVE          0-0-0/w UBIN        r     1 NBR_CONTROL_FILE
     0-0-0/w SBIN        r     1 NBR_GRANS_PER_TAPE_BUF
     0-0-0/w SBIN        r     1 NBR_SNLISTS                0-0-0/b STRC(18)    r     1 NEW_DISK_DESC
     0-0-0/c ASTR(9)     r     1 NODATA_FILE_NAME           0-0-0/c STRC(369)   r     1 NODATA_KEY
     0-0-0/w UBIN        r     1 NOW_UTS                    0-0-0/c STRC(288)   r     1 NO_FILE
     0-0-0/c STRC(72)    r     1 NULL_ACCT                  0-0-0/c STRC(288)   r     1 NULL_FILE
     0-0-0/d STRC(2088)  r     1 OPEN_REBUILD               0-0-0/b BIT         r     1 OVER_FIL
     0-0-0/c ASTR(9)     r     1 PRIME_FILE                 0-0-0/d STRC(504)   r     1 READ_REBUILD
     0-0-0/d STRC(504)   r     1 READ_STATUS                0-0-0/h STRC(450)   r     1 REBUILD_BUF
     0-0-0/c ASTR(9)     r     1 REBUILD_DIR_KEY            0-0-0/c ASTR(9)     r     1 REBUILD_KEY
     0-0-0/c ASTR(9)     r     1 REBUILD_NAME               0-0-0/d STRC(90)    r     1 REBUILD_SN
     0-0-0/c ASTR(9)     r     1 RET_CMDS_NAME              0-0-0/w SBIN        r     1 SNLIST_NBR
     0-0-0/w PTR         r     1 SNVECLIST$                 0-0-0/w CHAR(84)    r     1 SPECCHARS
     0-0-0/b BIT         r     1 STAF                       0-0-0/w UBIN        r     1 START_UTS
     0-0-0/c STRC        r     1 STATUS_KEY                 0-0-0/d STRC(1080)  r     1 TAPE_CLOSE
     0-0-0/w PTR         r     1 TAPE_DCBLIST$              0-0-0/d STRC(2088)  r     1 TAPE_OPEN
     0-0-0/w STRC(144)   r     1 TAPE_OPTION                0-0-0/d STRC(144)   r     1 TAPE_REWIND
     0-0-0/b STRC(18)    r     1 TEMP_DISK_SRCHCOND         0-0-0/b BIT         r     1 TEST_MODE
     0-0-0/w SBIN        r     1 TOTAL_ERRORS               0-0-0/w SBIN        r     1 TOTAL_FILES
PL6.E3A0      #001=FLB$EFT File=FLB$EFT.:E05TSI                                  TUE 07/29/97 15:33 Page:571
     0-0-0/w SBIN        r     1 TOTAL_GRANS                0-0-0/w SBIN        r     1 TRANS_NBR
     0-0-0/w SBIN        r     1 TSN_SET_NBR                0-0-0/w STRC(270)   r     1 TSN_USED_BUF
     0-0-0/c ASTR(9)     r     1 TSN_USED_NAME              0-0-0/d STRC(72)    r     1 TVECTOR
     0-0-0/w UBIN        r     1 ZERO

  ****  BASED and DCB variables  ****

  ****  Scalars and arrays  ****
OctLoc.c.b A Datatyp(siz) R M Lvl/name                 OctLoc.c.b A Datatyp(siz) R M Lvl/name

     0-0-0/w STRC(2448)  r     1 B$ALT                      0-0-0/d STRC(8856)  r     1 B$JIT
     0-0-0/w STRC(144)   r     1 B$TCB                      0-0-0/c ASTR(9)     r     1 B$VERSION
     0-0-0/w STRC(936)   r     1 DISK_FILE_SPEC             0-0-0/d STRC(90)    r     1 DPLIST
     0-0-0/w STRC(72)    r     1 DPRESLIST                  0-0-0/d ASTR(3528)  r     1 F$DCB
     0-0-0N  NULL        r     1 M$CATALOG                  0-0-0N  NULL        r     1 M$DISK00
     0-0-0N  NULL        r     1 M$DISK_IN                  0-0-0N  NULL        r     1 M$DO
     0-0-0N  NULL        r     1 M$LO                       0-0-0N  NULL        r     1 M$NODATA_LIST
     0-0-0N  NULL        r     1 M$READ_FILE                0-0-0N  NULL        r     1 M$REBUILD
     0-0-0N  NULL        r     1 M$SI                       0-0-0N  NULL        r     1 M$STATUS
     0-0-0N  NULL        r     1 M$TAPE00                   0-0-0/w STRC(144)   r     1 OUT$BLK
     0-0-0/w ASTR(153)   r     1 OUT$SYM                    0-0-0/c CHAR(40)    r     1 RANGE_START
     0-0-0/c CHAR(40)    r     1 RANGE_STOP                 0-0-0/c CHAR(40)    r     1 SKIP_START
     0-0-0/c CHAR(40)    r     1 SKIP_STOP                  0-0-0/d STRC(90)    r     1 SNLIST
     0-0-0/w STRC(72)    r     1 SNLISTINFO
     0-0-0/w STRC(72)    r     1 TAPE_DCBLIST(0:0)
     0-0-0/d STRC(90)    r     1 VLP_SN


   Procedure FLB$EFT requires 6760 words for executable code.
   Procedure FLB$EFT requires 40 words of local(AUTO) storage.
PL6.E3A0      #001=FLB$EFT File=FLB$EFT.:E05TSI                                  TUE 07/29/97 15:33 Page:572
          *** CROSS REFERENCE LISTING ***
**     DENOTES     IDENTIFIER DEFINITION
<<                 IDENTIFIER'S VALUE SET
>>                 IDENTIFIER'S VALUE USED
<>                 IDENTIFIER SET AND/OR USED
--                 IDENTIFIER REFERENCED
PL6.E3A0      #001=FLB$EFT File=FLB$EFT.:E05TSI                                  TUE 07/29/97 15:33 Page:573
          MINI XREF LISTING

ACCT
     22362**DCL     27318>>ASSIGN  27323>>ASSIGN  27330>>ASSIGN  27332>>ASSIGN  27342>>ASSIGN  27345>>ASSIGN
     27398>>ASSIGN
ACCT.ACCT#
     22362**DCL     25442<<ASSIGN  27303>>IF      27304<<ASSIGN  27370<<ASSIGN  27381<<ASSIGN  27384<<ASSIGN
     27390>>IF      27392<<ASSIGN  27397>>ASSIGN
ACCUMULATED_BREAK_TIME
     14755**DCL     25907<<ASSIGN
ACCUMULATED_MOUNT_TIME
     14755**DCL     25905<<ASSIGN
ACCUMULATED_SPIN_TIME
     14755**DCL     25906<<ASSIGN
AFT IN PROCEDURE FLB_DATE_SPEC
     27032**DCL     27136<<ASSIGN  27143<<ASSIGN  27156<<ASSIGN  27204>>IF
AFT_DELTA IN PROCEDURE FLB_DATE_SPEC
     27034**DCL     27144<<ASSIGN  27157<<ASSIGN  27206<>CALL
ALL_ALTRETS IN PROCEDURE FLB_OUTPUT_NODES
     24880**LABEL   24854--CALLALT 24869--CALLALT 24873--CALLALT
ALL_ALTRETS IN PROCEDURE FLB_READ_NODES
     24951**LABEL   24946--CALLALT 24950--CALLALT
ANSDATE
     21550**DCL     21559--REDEF   21562--REDEF
ANSDATE.DAY
     21553**DCL     27121<>CALL
ANSDATE.HOUR
     21554**DCL     27106<>CALL
ANSDATE.MINUTE
     21555**DCL     27108<>CALL
ANSDATE.MONTH
     21552**DCL     27119<>CALL
ANSDATE.SEC100THS
     21557**DCL     27112<>CALL
PL6.E3A0      #001=FLB$EFT File=FLB$EFT.:E05TSI                                  TUE 07/29/97 15:33 Page:574
ANSDATE.SECOND
     21556**DCL     27110<>CALL
ANSDATE.YEAR
     21551**DCL     27123<>CALL
ANSDATEPIECE.HHMMSSSS
     21561**DCL     22669--DCLINIT 22670--DCLINIT 22694--DCLINIT 22695--DCLINIT 27099<<ASSIGN  27138<<ASSIGN
ANSDATEPIECE.YYMMDD
     21560**DCL     22667--DCLINIT 22668--DCLINIT 22692--DCLINIT 22693--DCLINIT
ARCHIVE$
     15219**DCL     25644>>IF      25648<<ASSIGN
ARCHIVE_NAME.L#
     16838**DCL     16838--IMP-SIZ
ARS IN PROCEDURE FLB_READ_BACKUP
     28060**DCL     28125<>CALL    28128>>ASSIGN
B$ALT.CODE
     21899**DCL     21899--REDEF   21900--REDEF   21900--REDEF
B$ALT.ERR.CODE
     21901**DCL     25149>>IF      25203>>IF      26690>>ASSIGN  28166>>IF      28206>>IF
B$ALT.ERR.ERR#
     21901**DCL     21901--REDEF
B$ALT.EVID
     21900**DCL     21900--REDEF   21900--REDEF
B$JIT.CCARS
      6529**DCL     24441>>ASSIGN
B$JIT.CCBUF
      6529**DCL     24442<>CALL
B$JIT.CPFLAGS1.SLEAZE
      6535**DCL      6535--REDEF
B$JIT.ERR.MID
      6442**DCL      6442--REDEF
B$JIT.FACCN
      6441**DCL     26461>>ASSIGN  26462>>ASSIGN  26545>>ASSIGN  27304>>ASSIGN  27392>>ASSIGN  28075>>ASSIGN
B$JIT.FPSN
      6522**DCL     26546>>IF      26547>>ASSIGN
B$JIT.JRESPEAK
      6603**DCL      6604--REDEF
PL6.E3A0      #001=FLB$EFT File=FLB$EFT.:E05TSI                                  TUE 07/29/97 15:33 Page:575
B$JIT.MODE
      6436**DCL     24737>>IF
B$JIT.ORIGINATOR_PORT.FROM_CR
      6712**DCL      6712--REDEF    6713--REDEF
B$JIT.PNR
      6616**DCL      6616--REDEF
B$JIT.PPRIV
      6497**DCL     24472>>IF      24509>>IF      24516>>IF      24522>>IF      24528>>IF      24534>>IF
     24540>>IF      24546>>IF      24552>>IF      24558>>IF      24565>>IF      24572>>IF      24579>>IF
     24586>>IF      24593>>IF      24599>>IF      24605>>IF      24611>>IF      24617>>IF      24622>>IF
     24628>>IF      24634>>IF      24639>>IF      24644>>IF      24650>>IF      24656>>IF      24662>>IF
     24668>>IF      24675>>IF      24682>>IF      24688>>IF      24694>>IF
B$JIT.PRIV.JOB
      6485**DCL     24377>>IF
B$JIT.SWITCH
      6529**DCL     24397>>IF
B$JIT.TSLINE
      6710**DCL      6711--REDEF
B$JIT$
     14726**DCL      6436--IMP-PTR 24377>>IF      24397>>IF      24441>>ASSIGN  24442>>CALL    24472>>IF
     24509>>IF      24516>>IF      24522>>IF      24528>>IF      24534>>IF      24540>>IF      24546>>IF
     24552>>IF      24558>>IF      24565>>IF      24572>>IF      24579>>IF      24586>>IF      24593>>IF
     24599>>IF      24605>>IF      24611>>IF      24617>>IF      24622>>IF      24628>>IF      24634>>IF
     24639>>IF      24644>>IF      24650>>IF      24656>>IF      24662>>IF      24668>>IF      24675>>IF
     24682>>IF      24688>>IF      24694>>IF      24737>>IF      26461>>ASSIGN  26462>>ASSIGN  26545>>ASSIGN
     26546>>IF      26547>>ASSIGN  27304>>ASSIGN  27392>>ASSIGN  28075>>ASSIGN
B$TCB.ALT$
     21895**DCL     25149>>IF      25203>>IF      26690>>ASSIGN  28166>>IF      28206>>IF
B$TCB$
     14726**DCL     21895--IMP-PTR 25149>>IF      25203>>IF      26690>>ASSIGN  28166>>IF      28206>>IF
B$VERSION.L#
     21736**DCL     21737--IMP-SIZ 24400>>ASSIGN
B$VERSION.NAME#
     21737**DCL     24400>>ASSIGN
BACKUP_$$EFT
     21687**DCL     24416<<ASSIGN  26628>>IF
PL6.E3A0      #001=FLB$EFT File=FLB$EFT.:E05TSI                                  TUE 07/29/97 15:33 Page:576
BACKUP_ACCT
     16495**DCL     28192>>ASSIGN
BACKUP_CMD_FNAME
     15205**DCL     23788--DCLINIT
BACKUP_CMD_OPEN.ACSVEH_
     23789**DCL     23790--REDEF
BACKUP_CMD_OPEN.ALTKEYS_
     23795**DCL     23796--REDEF   23796--REDEF
BACKUP_CMD_OPEN.HDR_
     23794**DCL     23795--REDEF
BACKUP_CMD_OPEN.TAB_
     23793**DCL     23794--REDEF
BACKUP_CMD_OPEN.UHL_
     23787**DCL     23788--REDEF   23788--REDEF
BACKUP_CMD_OPEN.V
     23796**DCL     23787--DCLINIT
BACKUP_CMD_OPEN.V.FSN#
     23827**DCL     23827--REDEF   23827--REDEF
BACKUP_CMD_OPEN.WSN_
     23793**DCL     23793--REDEF
BACKUP_NAME
     16482**DCL     28191>>ASSIGN
BACKUP_NAME.L#
     16482**DCL     16482--IMP-SIZ 28112>>IF      28191>>ASSIGN
BACKUP_NAME.NAME#
     16482**DCL     28112>>IF
BACKUP_SN
     16508**DCL     24155--DCLINIT
BACKUP_TEMP
     24226**DCL     24156--DCLINIT 28077--ASSIGN
BEF IN PROCEDURE FLB_DATE_SPEC
     27033**DCL     27135<<ASSIGN  27148<<ASSIGN  27161<<ASSIGN  27182>>IF
BEF_DELTA IN PROCEDURE FLB_DATE_SPEC
     27035**DCL     27149<<ASSIGN  27162<<ASSIGN  27184<>CALL
BLK_TAG.NAME
     15974**DCL     15974--REDEF
PL6.E3A0      #001=FLB$EFT File=FLB$EFT.:E05TSI                                  TUE 07/29/97 15:33 Page:577
BLK_TAG$
     15971**DCL     15971--IMP-PTR
BLK_TAG0.NAME
     15980**DCL     15980--REDEF
BLK_TAG0$
     15977**DCL     15977--IMP-PTR
BLOCK_GRAN$
     15984**DCL     15985--IMP-PTR
BREAK_CONTINUED
     21536**DCL     24412<<ASSIGN  24434<<ASSIGN  25143<<ASSIGN  25144>>DOWHILE 25145<<ASSIGN  25149>>IF
     25739<<ASSIGN
BREAK_COUNT
     21535**DCL     24411<<ASSIGN  24455<<ASSIGN  24734<<ASSIGN  24742>>IF      25749<<ASSIGN
BREAK_DCB#
     21537**DCL     24410<<ASSIGN  24435<<ASSIGN  25142<<ASSIGN  25740<<ASSIGN
BREAK_TASK
     21538**DCL     24413<<ASSIGN  24436<<ASSIGN  24489<<ASSIGN  24493<<ASSIGN  24498<<ASSIGN  24502<<ASSIGN
     24511<<ASSIGN  24518<<ASSIGN  24524<<ASSIGN  24530<<ASSIGN  24536<<ASSIGN  24542<<ASSIGN  24548<<ASSIGN
     24554<<ASSIGN  24560<<ASSIGN  24567<<ASSIGN  24574<<ASSIGN  24581<<ASSIGN  24588<<ASSIGN  24595<<ASSIGN
     24601<<ASSIGN  24607<<ASSIGN  24613<<ASSIGN  24624<<ASSIGN  24630<<ASSIGN  24646<<ASSIGN  24652<<ASSIGN
     24658<<ASSIGN  24664<<ASSIGN  24670<<ASSIGN  24677<<ASSIGN  24696<<ASSIGN  25743<<ASSIGN  25744<<ASSIGN
     25862<<ASSIGN  25867<<ASSIGN  25871<<ASSIGN
BUF_ IN PROCEDURE FLB_READ_BACKUP
     28061**DCL     28125<>CALL    28127>>ASSIGN
B_VERSION
     21529**DCL     24400--ASSIGN  24400--ASSIGN
C IN PROCEDURE FLB_ORDER_RANGE
     27416**DCL     27727<<ASSIGN  27728<<ASSIGN  27728>>ASSIGN  27729>>DOWHILE 27729>>DOWHILE 27730<<ASSIGN
     27730>>ASSIGN  27732>>IF      27734>>ASSIGN  27766<<ASSIGN  27767<<ASSIGN  27767>>ASSIGN  27768>>DOWHILE
     27768>>DOWHILE 27769<<ASSIGN  27769>>ASSIGN  27771>>IF      27773>>ASSIGN
CATALOG_ON
     17759**DCL     24415<<ASSIGN  24456<<ASSIGN  24512<<ASSIGN  24561<<ASSIGN  24568<<ASSIGN  24575<<ASSIGN
     24582<<ASSIGN  24589<<ASSIGN  24678<<ASSIGN
CATALOG_ONTO
     17759**DCL     24821<<ASSIGN  24843<<ASSIGN
CAT_KEY
PL6.E3A0      #001=FLB$EFT File=FLB$EFT.:E05TSI                                  TUE 07/29/97 15:33 Page:578
     17753**DCL     17754--REDEF   17755--REDEF
CAT_REC.LT
     17756**DCL     17756--REDEF
CHECK_PACKSET
     22508**DCL     26688<>CALL
CHECK_PACKSET.ACSVEH_
     22510**DCL     22511--REDEF
CHECK_PACKSET.ALTKEYS_
     22516**DCL     22517--REDEF   22517--REDEF
CHECK_PACKSET.HDR_
     22515**DCL     22516--REDEF
CHECK_PACKSET.TAB_
     22514**DCL     22515--REDEF
CHECK_PACKSET.UHL_
     22508**DCL     22509--REDEF   22509--REDEF
CHECK_PACKSET.V
     22517**DCL     22508--DCLINIT
CHECK_PACKSET.V.FSN#
     22548**DCL     22548--REDEF   22548--REDEF
CHECK_PACKSET.V.RES#
     22532**DCL     26531<<ASSIGN  26537<<ASSIGN  26562<<ASSIGN
CHECK_PACKSET.WSN_
     22514**DCL     22514--REDEF
CHECK_SRCH_BIT
     21702**DCL     24462<<ASSIGN  26985<<ASSIGN  26990<<ASSIGN  26997<<ASSIGN  27000>>IF
CHECK_TAPE
     21540**DCL     25728<<ASSIGN  25820>>IF
CHKEFTRUN.V
     23845**DCL     23845--DCLINIT
CLOSE_BACKUP_TEMP
     24334**DCL     25295<>CALL    25310<>CALL    25325<>CALL    28169<>CALL    28209<>CALL
CLOSE_BACKUP_TEMP.SN_
     24334**DCL     24334--REDEF
CLOSE_BACKUP_TEMP.UTL_
     24335**DCL     24335--REDEF
CLOSE_BACKUP_TEMP.V
PL6.E3A0      #001=FLB$EFT File=FLB$EFT.:E05TSI                                  TUE 07/29/97 15:33 Page:579
     24339**DCL     24334--DCLINIT
CLOSE_BACKUP_TEMP.V.DISP#
     24343**DCL     25294<<ASSIGN  25309<<ASSIGN  25324<<ASSIGN  28081<<ASSIGN
CLOSE_BACKUP_TEMP.V.EXPIRE#
     24349**DCL     24349--REDEF
CLOSE_BACKUP_TEMP.V.TYPE#
     24347**DCL     24347--REDEF
CLOSE_BACKUP_TEMP.V.XTNSIZE#
     24344**DCL     24344--REDEF   24346--REDEF
CLOSE_BLOCK_FILE.SN_
     15888**DCL     15888--REDEF
CLOSE_BLOCK_FILE.UTL_
     15889**DCL     15889--REDEF
CLOSE_BLOCK_FILE.V
     15893**DCL     15888--DCLINIT
CLOSE_BLOCK_FILE.V.EXPIRE#
     15903**DCL     15903--REDEF
CLOSE_BLOCK_FILE.V.TYPE#
     15901**DCL     15901--REDEF
CLOSE_BLOCK_FILE.V.XTNSIZE#
     15898**DCL     15898--REDEF   15900--REDEF
CLOSE_FID
     22964**DCL     24805<>CALL    24878<>CALL
CLOSE_FID.SN_
     22964**DCL     22964--REDEF
CLOSE_FID.UTL_
     22965**DCL     22965--REDEF
CLOSE_FID.V
     22969**DCL     22964--DCLINIT
CLOSE_FID.V.DCB#
     22970**DCL     24802<<ASSIGN
CLOSE_FID.V.EXPIRE#
     22979**DCL     22979--REDEF
CLOSE_FID.V.TYPE#
     22977**DCL     22977--REDEF
CLOSE_FID.V.XTNSIZE#
PL6.E3A0      #001=FLB$EFT File=FLB$EFT.:E05TSI                                  TUE 07/29/97 15:33 Page:580
     22974**DCL     22974--REDEF   22976--REDEF
CLOSE_NODATA_LIST.SN_
     17636**DCL     17636--REDEF
CLOSE_NODATA_LIST.UTL_
     17637**DCL     17637--REDEF
CLOSE_NODATA_LIST.V.EXPIRE#
     17651**DCL     17651--REDEF
CLOSE_NODATA_LIST.V.TYPE#
     17649**DCL     17649--REDEF
CLOSE_NODATA_LIST.V.XTNSIZE#
     17646**DCL     17646--REDEF   17648--REDEF
CLOSE_PRIME_DUAL.SN_
     17113**DCL     17113--REDEF
CLOSE_PRIME_DUAL.UTL_
     17114**DCL     17114--REDEF
CLOSE_PRIME_DUAL.V.EXPIRE#
     17128**DCL     17128--REDEF
CLOSE_PRIME_DUAL.V.TYPE#
     17126**DCL     17126--REDEF
CLOSE_PRIME_DUAL.V.XTNSIZE#
     17123**DCL     17123--REDEF   17125--REDEF
CLOSE_READ_FILE
     23121**DCL     24745<>CALL    24934<>CALL    25941<>CALL
CLOSE_READ_FILE.SN_
     23121**DCL     23121--REDEF
CLOSE_READ_FILE.UTL_
     23122**DCL     23122--REDEF
CLOSE_READ_FILE.V
     23126**DCL     23121--DCLINIT
CLOSE_READ_FILE.V.EXPIRE#
     23136**DCL     23136--REDEF
CLOSE_READ_FILE.V.TYPE#
     23134**DCL     23134--REDEF
CLOSE_READ_FILE.V.XTNSIZE#
     23131**DCL     23131--REDEF   23133--REDEF
CLOSE_REBUILD
PL6.E3A0      #001=FLB$EFT File=FLB$EFT.:E05TSI                                  TUE 07/29/97 15:33 Page:581
     17388**DCL     25213<>CALL    25315<>CALL    25332<>CALL    25336<>CALL
CLOSE_REBUILD.SN_
     17388**DCL     17388--REDEF
CLOSE_REBUILD.UTL_
     17389**DCL     17389--REDEF
CLOSE_REBUILD.V.DISP#
     17397**DCL     25212<<ASSIGN  25314<<ASSIGN  25331<<ASSIGN  25335<<ASSIGN
CLOSE_REBUILD.V.EXPIRE#
     17403**DCL     17403--REDEF
CLOSE_REBUILD.V.TYPE#
     17401**DCL     17401--REDEF
CLOSE_REBUILD.V.XTNSIZE#
     17398**DCL     17398--REDEF   17400--REDEF
CLOSE_STATUS
     16603**DCL     28168<>CALL    28208<>CALL    28224<>CALL
CLOSE_STATUS.SN_
     16603**DCL     16603--REDEF
CLOSE_STATUS.UTL_
     16604**DCL     16604--REDEF
CLOSE_STATUS.V.EXPIRE#
     16618**DCL     16618--REDEF
CLOSE_STATUS.V.TYPE#
     16616**DCL     16616--REDEF
CLOSE_STATUS.V.XTNSIZE#
     16613**DCL     16613--REDEF   16615--REDEF
CLOSE_TSN_USED
     16313**DCL     25833<>CALL    25853<>CALL
CLOSE_TSN_USED.SN_
     16313**DCL     16313--REDEF
CLOSE_TSN_USED.UTL_
     16314**DCL     16314--REDEF
CLOSE_TSN_USED.V.EXPIRE#
     16328**DCL     16328--REDEF
CLOSE_TSN_USED.V.TYPE#
     16326**DCL     16326--REDEF
CLOSE_TSN_USED.V.XTNSIZE#
PL6.E3A0      #001=FLB$EFT File=FLB$EFT.:E05TSI                                  TUE 07/29/97 15:33 Page:582
     16323**DCL     16323--REDEF   16325--REDEF
CODE
     21546**DCL     26690<<ASSIGN  26691>>IF      26691>>IF      26691>>IF      26696>>IF
COMMAND
     21547**DCL     24437>>ASSIGN  24458<<ASSIGN  24474>>DOCASE  24483>>DOCASE  24671<<ASSIGN  24775>>IF
     24810>>IF      24855>>IF      24872>>IF      24891>>IF      25045>>IF      25058>>IF      25077>>IF
     25082>>IF      25113>>DOCASE  25121<>CALL    25365<>CALL    25400>>IF      25436>>IF      25439<>CALL
     25473<>CALL    25499<>CALL    25521>>IF      25532>>IF      25600>>IF      25600>>IF      25621>>IF
     25621>>IF      25626<>CALL    25634>>IF      25634>>IF      25642<>CALL    25644>>IF      25644>>IF
     25679<>CALL    25697>>DOCASE  25702>>ASSIGN  25706>>IF      25769>>IF      25801>>IF      25820>>IF
     25820>>IF      25893>>IF      26244>>IF      26244>>IF      26247>>IF      26247>>IF      26247>>IF
     26525>>DOCASE  26534>>IF      26558>>IF      26572>>DOCASE  26583>>IF      26594>>IF      26741>>DOSELCT
     26749>>DOSELCT 26775>>DOSELCT 26805>>DOSELCT 26816>>DOSELCT 26829>>DOSELCT 26837>>DOSELCT 26853>>DOSELCT
     26869>>DOSELCT 26877>>DOSELCT 27227>>IF      27231<<ASSIGN  27233<<ASSIGN
COMMAND_ERROR
     14726**DCL     24457<<ASSIGN  24700<<ASSIGN  24725<<ASSIGN  24737>>IF      24742>>IF      24860<<ASSIGN
     24889<<ASSIGN  24915>>IF      24959<<ASSIGN  25080<<ASSIGN  25101<<ASSIGN  25120>>IF      25131>>IF
     25135>>IF      25139>>IF      25152<<ASSIGN  25341<<ASSIGN  25356<<ASSIGN  25359>>IF      25369<<ASSIGN
     25375<<ASSIGN  25397>>IF      25434>>IF      25471>>IF      25493>>IF      25515>>IF      25519>>IF
     25597>>IF      25624<<ASSIGN  25629>>IF      25673>>IF      25723<<ASSIGN  25726>>IF      25750<<ASSIGN
     25773<<ASSIGN  25785<<ASSIGN  25793<<ASSIGN  25810>>IF      25820>>IF      25932<<ASSIGN  26007>>IF
     26011>>IF      26056<<ASSIGN  26080>>IF      26085>>IF      26091>>IF      26095>>IF      26128<<ASSIGN
     26273<<ASSIGN  26296<<ASSIGN  26327<<ASSIGN  26382<<ASSIGN  26395<<ASSIGN  26515<<ASSIGN  26552<<ASSIGN
     26657<<ASSIGN  26677>>IF      26694<<ASSIGN  26744<<ASSIGN  26752<<ASSIGN  26778<<ASSIGN  26794<<ASSIGN
     26808<<ASSIGN  26819<<ASSIGN  26832<<ASSIGN  26840<<ASSIGN  26872<<ASSIGN  26880<<ASSIGN  27176<<ASSIGN
     27200<<ASSIGN  27222<<ASSIGN  27356<<ASSIGN  27515<<ASSIGN  27528>>IF      27550<<ASSIGN  27603<<ASSIGN
     27615<<ASSIGN  27655<<ASSIGN  27697<<ASSIGN  27861<<ASSIGN
CONTROL_LIST
     14897**DCL     25966<<ASSIGN  25973<<ASSIGN  25974<<ASSIGN  25975<<ASSIGN  25976<<ASSIGN  25977<<ASSIGN
     25978<<ASSIGN
CON_CLOSE_ARCHIVE.SN_
     16645**DCL     16645--REDEF
CON_CLOSE_ARCHIVE.UTL_
     16646**DCL     16646--REDEF
CON_CLOSE_ARCHIVE.V.EXPIRE#
     16660**DCL     16660--REDEF
PL6.E3A0      #001=FLB$EFT File=FLB$EFT.:E05TSI                                  TUE 07/29/97 15:33 Page:583
CON_CLOSE_ARCHIVE.V.TYPE#
     16658**DCL     16658--REDEF
CON_CLOSE_ARCHIVE.V.XTNSIZE#
     16655**DCL     16655--REDEF   16657--REDEF
CON_OPEN_ARCHIVE_FILE.ACSVEH_
     16732**DCL     16733--REDEF
CON_OPEN_ARCHIVE_FILE.ALTKEYS_
     16738**DCL     16739--REDEF   16739--REDEF
CON_OPEN_ARCHIVE_FILE.HDR_
     16737**DCL     16738--REDEF
CON_OPEN_ARCHIVE_FILE.TAB_
     16736**DCL     16737--REDEF
CON_OPEN_ARCHIVE_FILE.UHL_
     16730**DCL     16731--REDEF   16731--REDEF
CON_OPEN_ARCHIVE_FILE.V.FSN#
     16770**DCL     16770--REDEF   16770--REDEF
CON_OPEN_ARCHIVE_FILE.WSN_
     16736**DCL     16736--REDEF
CON_READ_ARCHIVE_FILE.STATION_
     16794**DCL     16795--REDEF
CON_READ_ARCHIVE_FILE.V.DVBYTE.REREAD#
     16806**DCL     16806--REDEF
CON_READ_ARCHIVE_FILE.V.INDX#
     16804**DCL     16804--REDEF
CT5FMT IN PROCEDURE FLB_BUILD_SNLIST
     27934**DCL     27937--REDEF
CT5FMT.N IN PROCEDURE FLB_BUILD_SNLIST
     27936**DCL     27972>>CALLBLT 27974<<CALLBLT
CT5FMTCHARS IN PROCEDURE FLB_BUILD_SNLIST
     27937**DCL     27971<<ASSIGN  27975>>ASSIGN
CT6FMT IN PROCEDURE FLB_BUILD_SNLIST
     27938**DCL     27941--REDEF
CT6FMT.NN IN PROCEDURE FLB_BUILD_SNLIST
     27940**DCL     27981>>CALLBLT 27983<<CALLBLT
CT6FMTCHARS IN PROCEDURE FLB_BUILD_SNLIST
     27941**DCL     27980<<ASSIGN  27984>>ASSIGN
PL6.E3A0      #001=FLB$EFT File=FLB$EFT.:E05TSI                                  TUE 07/29/97 15:33 Page:584
CT_IMAGE
     14896**DCL     25614<<ASSIGN  25618<<ASSIGN  27911<<ASSIGN
CVOL_UTL.ULBL#
     16073**DCL     16073--REDEF
CX IN PROCEDURE FLB_ORDER_RANGE
     27415**DCL     27717<<ASSIGN  27719>>IF      27721>>ASSIGN  27722>>ASSIGN  27726>>DOWHILE 27727>>ASSIGN
     27734>>ASSIGN  27737>>ASSIGN  27738<<ASSIGN  27738>>ASSIGN  27763<<ASSIGN  27765>>DOWHILE 27766>>ASSIGN
     27773>>ASSIGN  27774<<DOINDEX 27774>>DOINDEX 27775>>ASSIGN  27780>>ASSIGN  27781<<ASSIGN  27781>>ASSIGN
     27788<<DOINDEX 27789>>ASSIGN
DATEFIELD IN PROCEDURE FLB_SETDATE
     27241**DCL     27239--PROC    27246<<CALLBLT
DATENODEX IN PROCEDURE FLB_DATE_SPEC
     27021**DCL     27072<<DOINDEX 27073>>ASSIGN
DATEUTS
     21549**DCL     22671--DCLINIT 22696--DCLINIT 27088<>CALL    27092<<ASSIGN  27184<>CALL    27206<>CALL
DATEX IN PROCEDURE FLB_DATE_SPEC
     27019**DCL     27094<<ASSIGN  27117>>DOCASE  27125<<ASSIGN  27125>>ASSIGN
DATE_CRIT
     14789**DCL     26209<<ASSIGN
DATE_CRIT.AFT
     14789**DCL     26498>>IF      27207>>IF      27224<<ASSIGN
DATE_CRIT.BEF
     14789**DCL     26498>>IF      27185>>IF      27202<<ASSIGN
DATE_CRIT.EXPD
     14790**DCL     26650<<ASSIGN  26791<<ASSIGN  26792>>IF
DATE_CRIT.NOT_EXPD
     14790**DCL     26790<<ASSIGN  26792>>IF
DATE_INFO.HHMMSSSS IN PROCEDURE FLB_DATE_SPEC
     27043**DCL     27138>>ASSIGN
DATE_INFO.NEGATIVE.AFT IN PROCEDURE FLB_DATE_SPEC
     27052**DCL     27141>>IF
DATE_INFO.NEGATIVE.AFT_DELTA IN PROCEDURE FLB_DATE_SPEC
     27055**DCL     27144>>ASSIGN
DATE_INFO.NEGATIVE.BEF IN PROCEDURE FLB_DATE_SPEC
     27053**DCL     27146>>IF
DATE_INFO.NEGATIVE.BEF_DELTA IN PROCEDURE FLB_DATE_SPEC
PL6.E3A0      #001=FLB$EFT File=FLB$EFT.:E05TSI                                  TUE 07/29/97 15:33 Page:585
     27056**DCL     27149>>ASSIGN
DATE_INFO.NEGATIVE.DISK_AND IN PROCEDURE FLB_DATE_SPEC
     27054**DCL     27151>>ASSIGN
DATE_INFO.POSITIVE.AFT IN PROCEDURE FLB_DATE_SPEC
     27046**DCL     27154>>IF
DATE_INFO.POSITIVE.AFT_DELTA IN PROCEDURE FLB_DATE_SPEC
     27049**DCL     27157>>ASSIGN
DATE_INFO.POSITIVE.BEF IN PROCEDURE FLB_DATE_SPEC
     27047**DCL     27159>>IF
DATE_INFO.POSITIVE.BEF_DELTA IN PROCEDURE FLB_DATE_SPEC
     27050**DCL     27162>>ASSIGN
DATE_INFO.POSITIVE.DISK_AND IN PROCEDURE FLB_DATE_SPEC
     27048**DCL     27164>>ASSIGN
DATE_NODE$ IN PROCEDURE FLB_DATE_SPEC
     27018**DCL     27073<<ASSIGN  27074>>DOCASE  27080>>ASSIGN  27083>>ASSIGN  27087>>CALLBLT 27087>>CALLBLT
     27095>>DOINDEX 27096>>ASSIGN
DATE_TYPE IN PROCEDURE FLB_DATE_SPEC
     27029**DCL     27065<<ASSIGN  27083<<ASSIGN  27138>>ASSIGN  27141>>IF      27144>>ASSIGN  27146>>IF
     27149>>ASSIGN  27151>>ASSIGN  27154>>IF      27157>>ASSIGN  27159>>IF      27162>>ASSIGN  27164>>ASSIGN
DCB# IN PROCEDURE FLB_OUTPUT_NODES
     24766**DCL     24778<<ASSIGN  24787<<ASSIGN  24797<>CALL    24802>>ASSIGN  24820<>CALL    24825>>ASSIGN
DCB# IN PROCEDURE FLB_READ_BACKUP
     28006**DCL     28108<<ASSIGN  28109<>CALL    28152<<ASSIGN  28153<>CALL    28179<<ASSIGN  28180<>CALL
DCB$ IN PROCEDURE FLB_OUTPUT_NODES
     24765**DCL     24777<<ASSIGN  24786<<ASSIGN  24796>>IF      24803>>ASSIGN  24875>>IF      24875>>IF
DECIMAL$ IN PROCEDURE FLB_DATE_SPEC
     27025**DCL     27096<<ASSIGN  27097>>IF      27101>>ASSIGN  27103<<ASSIGN  27245>>CALLBLT 27245>>CALLBLT
DECNODEX IN PROCEDURE FLB_DATE_SPEC
     27020**DCL     27095<<DOINDEX 27096>>ASSIGN
DEFAULT_GRANS_PER_TAPE_BUF
     14729**DCL     27909>>ASSIGN  27910>>ASSIGN
DEL_NODATA_REC.V
     17739**DCL     17736--DCLINIT
DEST_TAPE_VOL_SAVE IN PROCEDURE FLB_OPEN_NODES
     25692**DCL     25732<<ASSIGN  25829>>IF      25830<<ASSIGN  25848>>ASSIGN
DISK_AFT_UTS
PL6.E3A0      #001=FLB$EFT File=FLB$EFT.:E05TSI                                  TUE 07/29/97 15:33 Page:586
     14788**DCL     26217<<ASSIGN  26498>>IF      27206<>CALL
DISK_AND IN PROCEDURE FLB_DATE_SPEC
     27036**DCL     27069<<ASSIGN  27151<<ASSIGN  27164<<ASSIGN  27181>>ASSIGN
DISK_AND_OP
     14788**DCL     26218<<ASSIGN  26498>>IF      27181<<ASSIGN
DISK_BEF_UTS
     14788**DCL     26216<<ASSIGN  26498>>IF      27184<>CALL
DISK_CLOSE
     14406**DCL     28136<>CALL    28222<>CALL
DISK_CLOSE.IFPARAM_
     14411**DCL     28137<<ASSIGN
DISK_CLOSE.SN_
     14406**DCL     14406--REDEF   28079<<ASSIGN
DISK_CLOSE.UTL_
     14407**DCL     14407--REDEF
DISK_CLOSE.V.DCB#
     14412**DCL     28078<<ASSIGN
DISK_CLOSE.V.DESC
     14416**DCL     28138<<ASSIGN
DISK_CLOSE.V.DISP#
     14415**DCL     28080<<ASSIGN  28134<<ASSIGN
DISK_CLOSE.V.EFTOPER
     14413**DCL     28135<<ASSIGN
DISK_CLOSE.V.EXPIRE#
     14421**DCL     14421--REDEF
DISK_CLOSE.V.TYPE#
     14419**DCL     14419--REDEF
DISK_CLOSE.V.XTNSIZE#
     14416**DCL     14416--REDEF   14418--REDEF
DISK_CLOSE_NEXT.SN_
     15585**DCL     15585--REDEF
DISK_CLOSE_NEXT.UTL_
     15586**DCL     15586--REDEF
DISK_CLOSE_NEXT.V.EXPIRE#
     15600**DCL     15600--REDEF
DISK_CLOSE_NEXT.V.TYPE#
PL6.E3A0      #001=FLB$EFT File=FLB$EFT.:E05TSI                                  TUE 07/29/97 15:33 Page:587
     15598**DCL     15598--REDEF
DISK_CLOSE_NEXT.V.XTNSIZE#
     15595**DCL     15595--REDEF   15597--REDEF
DISK_CLOSE_ORDINARY.SN_
     15627**DCL     15627--REDEF
DISK_CLOSE_ORDINARY.UTL_
     15628**DCL     15628--REDEF
DISK_CLOSE_ORDINARY.V.EXPIRE#
     15642**DCL     15642--REDEF
DISK_CLOSE_ORDINARY.V.TYPE#
     15640**DCL     15640--REDEF
DISK_CLOSE_ORDINARY.V.XTNSIZE#
     15637**DCL     15637--REDEF   15639--REDEF
DISK_CRIT
     14789**DCL     26208<<ASSIGN
DISK_CRIT.DSC
     14789**DCL     25362<<ASSIGN  26637>>IF      26641<<ASSIGN
DISK_CRIT.ORG
     14789**DCL     26724<<ASSIGN
DISK_CRIT.TIM
     14789**DCL     26647>>IF      26649<<ASSIGN  26654>>IF      26788<<ASSIGN  27070<<ASSIGN
DISK_DESC
     14779**DCL     26204<<ASSIGN  26910<<ASSIGN  26910>>ASSIGN
DISK_DESC.FETCH#
     14781**DCL     25363<<ASSIGN  26640<<ASSIGN
DISK_DESC_MASK
     14781**DCL     26205<<ASSIGN  26910>>ASSIGN
DISK_DESC_MASK.FETCH#
     14783**DCL     25364<<ASSIGN  26639<<ASSIGN
DISK_DEST_ACCT.ACCT#
     14888**DCL     25781>>IF      25781>>IF      25781>>IF      25801>>IF      26198<<ASSIGN  26281<<ASSIGN
     26321>>IF      26323>>ASSIGN
DISK_DEST_EXIST
     14890**DCL     25161<<ASSIGN  26199<<ASSIGN  26243<<ASSIGN  26254<<ASSIGN  26594>>IF      26675>>IF
     26676<<ASSIGN
DISK_DEST_RES.NAME
PL6.E3A0      #001=FLB$EFT File=FLB$EFT.:E05TSI                                  TUE 07/29/97 15:33 Page:588
     14890**DCL     26196<<ASSIGN  26252<<ASSIGN  26264<<ASSIGN  26268<<CALLBLT 26291<<CALLBLT 26305>>ASSIGN
     26317>>ASSIGN  26531>>ASSIGN  28074>>ASSIGN  28194>>ASSIGN
DISK_DEST_SN
     14875**DCL     28073--ASSIGN  28079--ASSIGN
DISK_DEST_SN.SN#
     14875**DCL     25771>>IF      25777>>IF      26195<<ASSIGN  26251<<ASSIGN  26277<<ASSIGN  26300<<ASSIGN
     26304>>ASSIGN  26311>>ASSIGN  26321>>IF      26330<<ASSIGN  26528>>IF      26530>>ASSIGN  28193>>ASSIGN
DISK_FILE_SPEC.NBR
     14771**DCL     25183<<ASSIGN  25843<<ASSIGN  26407--ASSIGN  26413<<ASSIGN  26431>>ASSIGN  26466--ASSIGN
     26472<<ASSIGN  27266>>ASSIGN  27272<<ASSIGN  27456--ASSIGN  27462<<ASSIGN  27488>>DOWHILE 27505>>DOINDEX
     27509<<ASSIGN  27509>>ASSIGN  27533>>ASSIGN  27577<<ASSIGN  27577>>ASSIGN  27585<<ASSIGN  27585>>ASSIGN
     27592<<ASSIGN  27592>>ASSIGN  27613>>IF      27800>>ASSIGN
DISK_FILE_SPEC.NBR_LEFT
     14771**DCL     26407--ASSIGN  26412<<ASSIGN  26466--ASSIGN  26471<<ASSIGN  27259<<ASSIGN  27259>>ASSIGN
     27260>>IF      27264<<ASSIGN  27264>>ASSIGN  27456--ASSIGN  27461<<ASSIGN
DISK_FILE_SPEC.PASSWORD#
     14771**DCL     26407--ASSIGN  26466--ASSIGN  27275<<ASSIGN  27276<<ASSIGN  27456--ASSIGN
DISK_FILE_SPEC.PASSWORD_SPEC
     14771**DCL     26407--ASSIGN  26466--ASSIGN  26482<<ASSIGN  26483<<ASSIGN  27274>>IF      27305<<ASSIGN
     27456--ASSIGN
DISK_FILE_SPEC.SPEC
     14771**DCL     14773--REDEF   26407--ASSIGN  26466--ASSIGN  27262--ASSIGN  27456--ASSIGN
DISK_FILE_SPEC.SPEC.SKIP
     14772**DCL     26431<<ASSIGN  27271<<ASSIGN  27490>>IF      27490>>IF      27499>>IF      27512>>IF
     27564<<ASSIGN  27588<<ASSIGN
DISK_FILE_SPEC.SPEC.START
     14772**DCL     14772--REDEF
DISK_FILE_SPEC.SPEC.START.ACCT
     14772**DCL     27267<<ASSIGN
DISK_FILE_SPEC.SPEC.START.ACCT.ACCT#
     14772**DCL     25184<<ASSIGN
DISK_FILE_SPEC.SPEC.START.FILE
     14772**DCL     27268<<ASSIGN
DISK_FILE_SPEC.SPEC.START.FILE.L#
     14772**DCL     25185<<ASSIGN
DISK_FILE_SPEC.SPEC.START.FILE.NAME#
PL6.E3A0      #001=FLB$EFT File=FLB$EFT.:E05TSI                                  TUE 07/29/97 15:33 Page:589
     14772**DCL     25186<<ASSIGN
DISK_FILE_SPEC.SPEC.STARTCHARS
     14772**DCL     27494>>IF      27540--ASSIGN  27545--ASSIGN
DISK_FILE_SPEC.SPEC.STOP
     14773**DCL     14773--REDEF
DISK_FILE_SPEC.SPEC.STOP.ACCT
     14773**DCL     27269<<ASSIGN
DISK_FILE_SPEC.SPEC.STOP.FILE
     14773**DCL     27270<<ASSIGN
DISK_FILE_SPEC.SPEC.STOPCHARS
     14773**DCL     27494>>IF      27502>>IF      27502>>IF      27504<<ASSIGN  27504>>ASSIGN  27539--ASSIGN
     27546--ASSIGN
DISK_FILE_SPEC.SPECCHARS
     14773**DCL     27506<<ASSIGN  27506>>ASSIGN  27566>>ASSIGN  27568<<ASSIGN  27568>>ASSIGN  27570<<ASSIGN
     27590<<ASSIGN  27590>>ASSIGN  27805>>IF      27805>>IF      27808>>ASSIGN  27809<<ASSIGN  27809>>ASSIGN
     27810<<ASSIGN
DISK_FILE_SPEC$
     14770**DCL     14771--IMP-PTR 25183>>ASSIGN  25184>>ASSIGN  25185>>ASSIGN  25186>>ASSIGN  25735<<ASSIGN
     25841>>IF      25843>>ASSIGN  26411<>CALL    26412>>ASSIGN  26413>>ASSIGN  26431>>ASSIGN  26431>>ASSIGN
     26470<>CALL    26471>>ASSIGN  26472>>ASSIGN  26482>>ASSIGN  26483>>ASSIGN  27259>>ASSIGN  27259>>ASSIGN
     27260>>IF      27264>>ASSIGN  27264>>ASSIGN  27266>>ASSIGN  27267>>ASSIGN  27268>>ASSIGN  27269>>ASSIGN
     27270>>ASSIGN  27271>>ASSIGN  27272>>ASSIGN  27274>>IF      27275>>ASSIGN  27276>>ASSIGN  27305>>ASSIGN
     27460<>CALL    27461>>ASSIGN  27462>>ASSIGN  27488>>DOWHILE 27490>>IF      27490>>IF      27494>>IF
     27494>>IF      27499>>IF      27502>>IF      27502>>IF      27504>>ASSIGN  27504>>ASSIGN  27505>>DOINDEX
     27506>>ASSIGN  27506>>ASSIGN  27509>>ASSIGN  27509>>ASSIGN  27512>>IF      27533>>ASSIGN  27539>>ASSIGN
     27540>>ASSIGN  27545>>ASSIGN  27546>>ASSIGN  27564>>ASSIGN  27566>>ASSIGN  27568>>ASSIGN  27568>>ASSIGN
     27570>>ASSIGN  27577>>ASSIGN  27577>>ASSIGN  27585>>ASSIGN  27585>>ASSIGN  27588>>ASSIGN  27590>>ASSIGN
     27590>>ASSIGN  27592>>ASSIGN  27592>>ASSIGN  27613>>IF      27800>>ASSIGN  27805>>IF      27805>>IF
     27808>>ASSIGN  27809>>ASSIGN  27809>>ASSIGN  27810>>ASSIGN
DISK_GRAN$
     15984**DCL     15984--IMP-PTR
DISK_OPEN
     14269**DCL     28121<>CALL
DISK_OPEN.ACCT_
     14273**DCL     28076<<ASSIGN
DISK_OPEN.ACSVEH_
PL6.E3A0      #001=FLB$EFT File=FLB$EFT.:E05TSI                                  TUE 07/29/97 15:33 Page:590
     14271**DCL     14272--REDEF
DISK_OPEN.ALTKEYS_
     14277**DCL     14278--REDEF   14278--REDEF
DISK_OPEN.HDR_
     14276**DCL     14277--REDEF
DISK_OPEN.IFPARAM_
     14274**DCL     28120<<ASSIGN
DISK_OPEN.NAME_
     14270**DCL     28077<<ASSIGN
DISK_OPEN.SN_
     14269**DCL     28073<<ASSIGN
DISK_OPEN.TAB_
     14275**DCL     14276--REDEF
DISK_OPEN.UHL_
     14269**DCL     14270--REDEF   14270--REDEF
DISK_OPEN.V.DCB#
     14278**DCL     28071<<ASSIGN
DISK_OPEN.V.FSN#
     14309**DCL     14309--REDEF   14309--REDEF
DISK_OPEN.V.FUN#
     14288**DCL     28072<<ASSIGN
DISK_OPEN.V.RES#
     14293**DCL     28074<<ASSIGN
DISK_OPEN.WSN_
     14275**DCL     14275--REDEF
DISK_OPEN_NEXT.ACSVEH_
     15411**DCL     15412--REDEF
DISK_OPEN_NEXT.ALTKEYS_
     15417**DCL     15418--REDEF   15418--REDEF
DISK_OPEN_NEXT.HDR_
     15416**DCL     15417--REDEF
DISK_OPEN_NEXT.TAB_
     15415**DCL     15416--REDEF
DISK_OPEN_NEXT.UHL_
     15409**DCL     15410--REDEF   15410--REDEF
DISK_OPEN_NEXT.V.FSN#
PL6.E3A0      #001=FLB$EFT File=FLB$EFT.:E05TSI                                  TUE 07/29/97 15:33 Page:591
     15449**DCL     15449--REDEF   15449--REDEF
DISK_OPEN_NEXT.V.FUN#
     15428**DCL     26221<<ASSIGN  26902<<ASSIGN
DISK_OPEN_NEXT.V.SHARE#
     15423**DCL     26222<<ASSIGN  26903<<ASSIGN
DISK_OPEN_NEXT.WSN_
     15415**DCL     15415--REDEF
DISK_OPEN_ORDINARY.ACSVEH_
     15520**DCL     15521--REDEF
DISK_OPEN_ORDINARY.ALTKEYS_
     15526**DCL     15527--REDEF   15527--REDEF
DISK_OPEN_ORDINARY.HDR_
     15525**DCL     15526--REDEF
DISK_OPEN_ORDINARY.TAB_
     15524**DCL     15525--REDEF
DISK_OPEN_ORDINARY.UHL_
     15518**DCL     15519--REDEF   15519--REDEF
DISK_OPEN_ORDINARY.V.FSN#
     15558**DCL     15558--REDEF   15558--REDEF
DISK_OPEN_ORDINARY.WSN_
     15524**DCL     15524--REDEF
DISK_OPTION
     14783**DCL     26206<<ASSIGN  26577>>IF
DISK_OPTION.ACUP
     14784**DCL     26852<<ASSIGN
DISK_OPTION.CLEANUP
     14783**DCL     26585<<ASSIGN  26589<<ASSIGN  26836<<ASSIGN
DISK_OPTION.DELETE
     14785**DCL     25625<<ASSIGN  25768<<ASSIGN  26645<<ASSIGN
DISK_OPTION.DELETED_ACCOUNTS
     14783**DCL     26581<<ASSIGN  26603<<ASSIGN  26609<<ASSIGN  26624<<ASSIGN  26828<<ASSIGN
DISK_OPTION.DIR
     14783**DCL     25193<<ASSIGN  25777>>IF      26133<<ASSIGN  26580<<ASSIGN  26608<<ASSIGN  26623<<ASSIGN
     26804<<ASSIGN  28091>>ASSIGN  28092<<ASSIGN  28118<<ASSIGN
DISK_OPTION.IDSS
     14784**DCL     26876<<ASSIGN
PL6.E3A0      #001=FLB$EFT File=FLB$EFT.:E05TSI                                  TUE 07/29/97 15:33 Page:592
DISK_OPTION.INACTIVATE
     14784**DCL     25437<<ASSIGN
DISK_OPTION.LEA
     14783**DCL     26812<<ASSIGN
DISK_OPTION.NOUPDATE
     14784**DCL     25806<<ASSIGN  26823<<ASSIGN
DISK_OPTION.OPEN_MODE
     14786**DCL     26665<<ASSIGN
DISK_OPTION.OVERLAP_WARN
     14785**DCL     26825<<ASSIGN  27497>>IF
DISK_OPTION.PAD
     14784**DCL     25192<<ASSIGN  26579<<ASSIGN  26601<<ASSIGN  26602<<ASSIGN  26610<<ASSIGN  26622<<ASSIGN
     26815<<ASSIGN  28093>>ASSIGN  28094<<ASSIGN  28117<<ASSIGN
DISK_OPTION.SAVE_DIR
     14786**DCL     26587<<ASSIGN  26625<<ASSIGN
DISK_OPTION.SCRUB.BACKUP
     14784**DCL     25803<<ASSIGN  26862<<ASSIGN
DISK_OPTION.SCRUB.CREATOR
     14784**DCL     26864<<ASSIGN
DISK_OPTION.SCRUB.STOW
     14785**DCL     25804<<ASSIGN  26866<<ASSIGN
DISK_OPTION.SHARED
     14786**DCL     25791>>IF      26904<<ASSIGN
DISK_OPTION.SKIP_NO_BACKUP
     14785**DCL     26586<<ASSIGN  26627<<ASSIGN
DISK_OPTION.SKIP_NO_PURGE
     14786**DCL     26646<<ASSIGN
DISK_OPTION.SWITCH_IF_ERRORS
     14785**DCL     25541>>IF      25549>>IF      26884<<ASSIGN
DISK_OPTION.XFER
     14786**DCL     25807<<ASSIGN
DISK_OPTION_DIR_SAVE IN PROCEDURE FLB_READ_BACKUP
     28009**DCL     28091<<ASSIGN  28118>>ASSIGN
DISK_OPTION_PAD_SAVE IN PROCEDURE FLB_READ_BACKUP
     28010**DCL     28093<<ASSIGN  28117>>ASSIGN
DISK_ORGS.NBR
PL6.E3A0      #001=FLB$EFT File=FLB$EFT.:E05TSI                                  TUE 07/29/97 15:33 Page:593
     14787**DCL     26207<<ASSIGN  26726>>ASSIGN  26728<<ASSIGN  26732<<ASSIGN  26732>>ASSIGN
DISK_ORGS.ORG
     14788**DCL     26727<<ASSIGN  26731>>IF
DISK_READ.STATION_
     14333**DCL     14334--REDEF
DISK_READ.V.DVBYTE.REREAD#
     14345**DCL     14345--REDEF
DISK_READ.V.INDX#
     14343**DCL     14343--REDEF
DISK_SPEC_DO IN PROCEDURE FLB_DISK_SPEC
     26351**LABEL   26488--EXIT
DISK_SRCHCOND
     14776**DCL     25534>>ASSIGN  25535<<ASSIGN  25545<<ASSIGN  25808>>ASSIGN  25837<<ASSIGN  26203<<ASSIGN
     26403<<ASSIGN  26575>>IF      26592>>IF      26606>>IF      26613>>IF      26635>>IF      26647>>IF
     26661>>IF      26668>>IF
DISK_SRCHCOND.ANYF#
     14777**DCL     25360<<ASSIGN  25777>>IF      25839<<ASSIGN  26576<<ASSIGN  26593<<ASSIGN  26599<<ASSIGN
     26607<<ASSIGN  26631<<ASSIGN  26662<<ASSIGN  26748<<ASSIGN  26915>>IF
DISK_SRCHCOND.ARCHIVE#
     14777**DCL     26617<<ASSIGN  26669<<ASSIGN  27004<<ASSIGN
DISK_SRCHCOND.BAD#
     14777**DCL     26762<<ASSIGN
DISK_SRCHCOND.BUF#
     14777**DCL     26615<<ASSIGN  26630<<ASSIGN  26759<<ASSIGN
DISK_SRCHCOND.DELF#
     14776**DCL     25536<<ASSIGN  26616<<ASSIGN  26739<<ASSIGN  27002<<ASSIGN
DISK_SRCHCOND.NOLIST#
     14776**DCL     26756<<ASSIGN
DISK_SRCHCOND.QS#
     14777**DCL     25361<<ASSIGN  26636<<ASSIGN  27003<<ASSIGN
DISK_WRITE
     14369**DCL     28129<>CALL
DISK_WRITE.BUF_
     14369**DCL     28127<<ASSIGN
DISK_WRITE.BUF_.BOUND
     14369**DCL     28128<<ASSIGN
PL6.E3A0      #001=FLB$EFT File=FLB$EFT.:E05TSI                                  TUE 07/29/97 15:33 Page:594
DISK_WRITE.KEY_
     14369**DCL     28122<<ASSIGN
DISK_WRITE.STATION_
     14371**DCL     14371--REDEF
DISK_WRITE.V.DCB#
     14372**DCL     28070<<ASSIGN
DISK_WRITE.V.DVBYTE.VFC#
     14378**DCL     14378--REDEF
DISK_WRITE.V.EVENT#
     14377**DCL     28069<<ASSIGN
DISK_WRITE.V.WAIT#
     14372**DCL     28068<<ASSIGN
DPLIST.NUM#
     14768**DCL     26307--ASSIGN  26310<<ASSIGN  26358--ASSIGN  26366<<ASSIGN  26441--ASSIGN  26444<<ASSIGN
     26560>>DOINDEX
DPLIST.SN#
     14768**DCL     25777>>IF      26307--ASSIGN  26311<<ASSIGN  26358--ASSIGN  26372<<ASSIGN  26386<<ASSIGN
     26393>>IF      26393>>IF      26441--ASSIGN  26445<<ASSIGN  26536>>ASSIGN  26561>>ASSIGN
DPLIST$
     14756**DCL     14768--IMP-PTR 25441<<ASSIGN  25777>>IF      26201<<ASSIGN  26309<>CALL    26310>>ASSIGN
     26311>>ASSIGN  26360<>CALL    26366>>ASSIGN  26372>>ASSIGN  26386>>ASSIGN  26393>>IF      26393>>IF
     26443<>CALL    26444>>ASSIGN  26445>>ASSIGN  26536>>ASSIGN  26541>>IF      26556<<ASSIGN  26560>>DOINDEX
     26561>>ASSIGN
DPRESLIST.NAME
     14770**DCL     26313--ASSIGN  26317<<ASSIGN  26362--ASSIGN  26369<<ASSIGN  26377<<CALLBLT 26447--ASSIGN
     26451<<ASSIGN  26537>>ASSIGN  26562>>ASSIGN
DPRESLIST.NBR
     14770**DCL     26313--ASSIGN  26316<<ASSIGN  26362--ASSIGN  26367<<ASSIGN  26447--ASSIGN  26450<<ASSIGN
DPRESLIST$
     14770**DCL     14770--IMP-PTR 26202<<ASSIGN  26315<>CALL    26316>>ASSIGN  26317>>ASSIGN  26364<>CALL
     26367>>ASSIGN  26369>>ASSIGN  26377>>CALLBLT 26449<>CALL    26450>>ASSIGN  26451>>ASSIGN  26537>>ASSIGN
     26562>>ASSIGN
DPSN
     22432**DCL     22508--DCLINIT 26556--ASSIGN
DPSN.SN#
     22432**DCL     26530<<ASSIGN  26536<<ASSIGN  26547<<ASSIGN  26554<<ASSIGN  26561<<ASSIGN
PL6.E3A0      #001=FLB$EFT File=FLB$EFT.:E05TSI                                  TUE 07/29/97 15:33 Page:595
DUAL_FILE.L#
     16909**DCL     16909--IMP-SIZ
EFTWORD
     14891**DCL     14891--REDEF
EFT_CMD
     21528**DCL     24442<>CALL    24444<>CALL    25745<>CALL
EFT_CMD_PCB
     21951**DCL     22171--DCLINIT
EFT_CMD_PCB.HI_CHAR
     22102**DCL     24720>>IF      25927>>IF
EFT_CVOL_FILE.L#
     16033**DCL     16033--IMP-SIZ
EFT_PROMPT
     21713**DCL     24442--CALL    24444--CALL
EFT_RESTRICT_FILE.L#
     16060**DCL     16060--IMP-SIZ
ERASE_HEADER
     22588**DCL     24707<>CALL
ERASE_HEADER.V
     22589**DCL     22588--DCLINIT
ERR
     21611**DCL     24726<>CALL    24731<>CALL    25933<>CALL    25938<>CALL
ERR.ERR#
     21641**DCL     24723>>IF      25930>>IF
ERR.MON
     21640**DCL     24716>>IF      25925>>IF
ERR IN PROCEDURE FLB_READ_BACKUP
     28027**DCL     28097<>CALL    28124>>DOWHILE 28125<>CALL
ERR.ERR# IN PROCEDURE FLB_READ_BACKUP
     28057**DCL     28104>>IF      28104>>IF
ERROR_LIMIT
     14897**DCL     25551>>IF      25551>>IF      26885<<CALLBLT
ERROR_OUT
     24748**LABEL   24381--CALLALT 24382--CALLALT 24384--CALLALT 24385--CALLALT 24389--CALLALT
E_BAD_ACC
      8316**DCL     26504>>ASSIGN
PL6.E3A0      #001=FLB$EFT File=FLB$EFT.:E05TSI                                  TUE 07/29/97 15:33 Page:596
E_BAD_ARC
      8496**DCL     26512>>ASSIGN
E_BAD_BAC
      8451**DCL     26510>>ASSIGN
E_BAD_BKUP_FILE
     12907**DCL     28153<>CALL    28180<>CALL
E_BAD_CRE
      8406**DCL     26508>>ASSIGN
E_BAD_DP_FORMAT
     13492**DCL     26274<>CALL    26297<>CALL    26383<>CALL
E_BAD_FSN
     12997**DCL     28114<>CALL
E_BAD_FSN_RANGE
      9306**DCL     26129<>CALL
E_BAD_MOD
      8361**DCL     26506>>ASSIGN
E_BAD_RANGE
      8541**DCL     27357<>CALL
E_BAD_SKIP_N_RANGE
      8586**DCL     27551<>CALL    27604<>CALL
E_CANT_OPEN_TBACKUP
     12457**DCL     28109<>CALL
E_CANT_RUN_EFT
     12772**DCL     24478<>CALL
E_CANT_SPECIFY_ACUP
     12097**DCL     26855<>CALL
E_CANT_SPECIFY_ANYF
     11827**DCL     26751<>CALL
E_CANT_SPECIFY_CLEANUP
     12052**DCL     26839<>CALL
E_CANT_SPECIFY_DELF
     11782**DCL     26743<>CALL
E_CANT_SPECIFY_DEL_ACC
     12007**DCL     26831<>CALL
E_CANT_SPECIFY_DIR
     11917**DCL     26807<>CALL
PL6.E3A0      #001=FLB$EFT File=FLB$EFT.:E05TSI                                  TUE 07/29/97 15:33 Page:597
E_CANT_SPECIFY_IDS
     12187**DCL     26879<>CALL
E_CANT_SPECIFY_PAD
     11962**DCL     26818<>CALL
E_CANT_SPECIFY_QF
     11872**DCL     26777<>CALL
E_CANT_SPECIFY_SCRUB
     12142**DCL     26871<>CALL
E_CANT_SPECIFY_SHARED
     12322**DCL     25794<>CALL
E_CAT_OFF
     10791**DCL     24815<>CALL
E_CLOSE_INVALID
     13582**DCL     24701<>CALL
E_DUPLICATE_PSN
      9396**DCL     26396<>CALL
E_DUP_AFT_ACC
      9081**DCL     27211>>ASSIGN
E_DUP_AFT_ARC
      9261**DCL     27219>>ASSIGN
E_DUP_AFT_BAC
      9216**DCL     27217>>ASSIGN
E_DUP_AFT_CRE
      9171**DCL     27215>>ASSIGN
E_DUP_AFT_MOD
      9126**DCL     27213>>ASSIGN
E_DUP_BEF_ACC
      8856**DCL     27189>>ASSIGN
E_DUP_BEF_ARC
      9036**DCL     27197>>ASSIGN
E_DUP_BEF_BAC
      8991**DCL     27195>>ASSIGN
E_DUP_BEF_CRE
      8946**DCL     27193>>ASSIGN
E_DUP_BEF_MOD
      8901**DCL     27191>>ASSIGN
PL6.E3A0      #001=FLB$EFT File=FLB$EFT.:E05TSI                                  TUE 07/29/97 15:33 Page:598
E_DUP_TAPESET
     13717**DCL     25100<>CALL
E_EXPD_NOT_EXPD
      8721**DCL     26795<>CALL
E_FILE_NAME
     11061**DCL     24797<>CALL
E_MUST_BE_CAT_FILE
     11106**DCL     24877<>CALL
E_MUST_CAT_DISK
     10881**DCL     24859<>CALL
E_MUST_CAT_OFF
     10836**DCL     24820<>CALL
E_NEED_TIME
     10701**DCL     26656<>CALL
E_NO_CATALOG
     10926**DCL     24798<>CALL
E_NO_FILE
     13087**DCL     25447<>CALL
E_NO_FSN
     12952**DCL     26055<>CALL
E_NO_NEXT_SPEC
      8766**DCL     27656<>CALL
E_NO_PREV_SPEC
      8811**DCL     27698<>CALL
E_NO_RANGE
      8676**DCL     27616<>CALL
E_OVERLAP_RANGE
      8136**DCL     27514<>CALL
E_OVERLAP_SKIP
      8181**DCL     27513<>CALL
E_REBUILD_CONTINUE
     12502**DCL     25180<>CALL
E_RETURN_TO_COMMAND
     12367**DCL     25917<>CALL
E_TOO_MANY_ERRORS_TO_SWITCH
     11647**DCL     25542<>CALL    25558<>CALL
PL6.E3A0      #001=FLB$EFT File=FLB$EFT.:E05TSI                                  TUE 07/29/97 15:33 Page:599
E_TRY_AGAIN
     10746**DCL     24739<>CALL    24756<>CALL    24899<>CALL
E_WARN_OVERLAP_RANGE
      8226**DCL     27501<>CALL
E_WARN_OVERLAP_SKIP
      8271**DCL     27500<>CALL
E_WIPEOUT_SOURCE
     11601**DCL     25774<>CALL    25786<>CALL
F$DCB.ACTPOS
     21870**DCL     21870--REDEF
F$DCB.ARS#
     21844**DCL     21844--REDEF
F$DCB.ATTR
     21863**DCL     21864--REDEF
F$DCB.BORROW
     21878**DCL     21878--REDEF   21878--REDEF   21878--REDEF
F$DCB.DCBNAME.L
     21892**DCL     21892--IMP-SIZ
F$DCB.EOMCHAR#
     21848**DCL     21848--REDEF
F$DCB.FCD#
     21857**DCL     24386>>IF      24512>>ASSIGN  24561>>ASSIGN  24568>>ASSIGN  24575>>ASSIGN  24582>>ASSIGN
     24589>>ASSIGN  24678>>ASSIGN  24729>>IF      24744>>IF      24796>>IF      24803>>ASSIGN  24933>>IF
     25322>>IF      25327>>IF      25936>>IF      28219>>IF      28221>>IF      28223>>IF
F$DCB.FLDID
     21873**DCL     21873--REDEF
F$DCB.FORM$
     21867**DCL     21867--REDEF
F$DCB.FSECT
     21883**DCL     21883--REDEF
F$DCB.FSN#
     21860**DCL     21860--REDEF   21860--REDEF   21861--REDEF   25267>>ASSIGN
F$DCB.HEADER$
     21866**DCL     21866--REDEF
F$DCB.IXTNSIZE#
     21864**DCL     21864--REDEF
PL6.E3A0      #001=FLB$EFT File=FLB$EFT.:E05TSI                                  TUE 07/29/97 15:33 Page:600
F$DCB.LASTSTA$
     21853**DCL     21853--REDEF
F$DCB.LVL
     21879**DCL     21879--REDEF
F$DCB.NAME#.C
     21854**DCL     21854--REDEF   28112>>IF
F$DCB.NOEOF
     21876**DCL     21876--REDEF
F$DCB.NRECS#
     21865**DCL     21865--REDEF
F$DCB.NRECX
     21884**DCL     21884--REDEF
F$DCB.OHDR
     21876**DCL     21876--REDEF
F$DCB.ORG#
     21859**DCL     21859--REDEF   24875>>IF      28150>>IF
F$DCB.PRECNO
     21882**DCL     21882--REDEF
F$DCB.PSN#
     21854**DCL     25246>>IF      25250>>ASSIGN  25290>>ASSIGN  25304>>ASSIGN  25886>>ASSIGN  25895>>ASSIGN
     28140>>ASSIGN
F$DCB.RCSZ
     21888**DCL     21888--REDEF
F$DCB.RES#
     21855**DCL     21855--REDEF
F$DCB.SETX
     21867**DCL     21867--REDEF
F$DCB.TAB$
     21867**DCL     21867--REDEF
F$DCB.TDA
     21881**DCL     21882--REDEF
F$DCB.TYPE#
     21855**DCL     24875>>IF
F$DCB.VOL#
     21865**DCL     25829>>IF      25830>>ASSIGN
F$DCB.WSN#
PL6.E3A0      #001=FLB$EFT File=FLB$EFT.:E05TSI                                  TUE 07/29/97 15:33 Page:601
     21855**DCL     21855--REDEF
FID_ACCT
     23357**DCL     23218--DCLINIT 23284--DCLINIT 24040--DCLINIT 26457>>ASSIGN  28192<<ASSIGN
FID_NAME
     23343**DCL     23214--DCLINIT 23284--DCLINIT 24036--DCLINIT 28191<<ASSIGN
FID_NAME.L#
     23343**DCL     26477>>ASSIGN
FID_NAME.NAME#
     23343**DCL     26476>>ASSIGN
FID_PASS
     23371**DCL     23215--DCLINIT 23285--DCLINIT
FID_PASS.PASS#
     23371**DCL     27275>>ASSIGN
FID_RANGE$ IN PROCEDURE FLB_FID_RANGE
     27287**DCL     27282--PROC    27306>>ASSIGN
FID_RANGE_SUBLK$ IN PROCEDURE FLB_FID_RANGE
     27294**DCL     27306<<ASSIGN  27307>>DOCASE  27317>>CALL    27322>>CALL    27329>>CALL    27336>>IF
     27341>>CALL    27344>>CALL
FID_SN
     23387**DCL     23213--DCLINIT 23285--DCLINIT 24035--DCLINIT
FID_SN.SN#
     23387**DCL     26445>>ASSIGN  28193<<ASSIGN
FID_WSN
     23401**DCL     23219--DCLINIT 23285--DCLINIT
FILE
     22346**DCL     27319>>ASSIGN  27324>>ASSIGN  27331>>ASSIGN  27338>>ASSIGN  27343>>ASSIGN  27346>>ASSIGN
     27379<<ASSIGN  27380<<ASSIGN
FILE.L#
     22348**DCL     27371<<ASSIGN  27385<<ASSIGN
FILE.NAME#
     22347**DCL     27372<<ASSIGN  27386<<ASSIGN
FILE_N_ACCOUNT$ IN PROCEDURE FLB_FILE_N_ACCOUNT
     27363**DCL     27361--PROC    27368>>IF      27370>>ASSIGN  27370>>ASSIGN  27371>>ASSIGN  27372>>ASSIGN
     27372>>ASSIGN  27375>>ASSIGN
FILE_OPEN IN PROCEDURE FLB_OUTPUT_NODES
     24767**DCL     24803<<ASSIGN  24804>>IF      24814>>IF      24819>>IF
PL6.E3A0      #001=FLB$EFT File=FLB$EFT.:E05TSI                                  TUE 07/29/97 15:33 Page:602
FILE_TYPE
     14786**DCL     24461<<ASSIGN  26918<<ASSIGN
FILE_TYPE.A
     14786**DCL     26927<<ASSIGN  26931<<ASSIGN  26956<<ASSIGN  26961<<ASSIGN  26982>>IF      26994>>IF
FILE_TYPE.BUF
     14787**DCL     26619<<ASSIGN
FILE_TYPE.DF
     14787**DCL     26618<<ASSIGN  26975<<ASSIGN
FILE_TYPE.FA
     14787**DCL     26933<<ASSIGN  26945<<ASSIGN  26953<<ASSIGN  26992>>IF
FILE_TYPE.I
     14787**DCL     26620<<ASSIGN  26929<<ASSIGN  26932<<ASSIGN  26966<<ASSIGN  26971<<ASSIGN  26987>>IF
     26994>>IF
FILE_TYPE.SA
     14787**DCL     26938<<ASSIGN  26942<<ASSIGN  26949<<ASSIGN  26960<<ASSIGN  26992>>IF
FILE_TYPE.SI
     14787**DCL     26940<<ASSIGN  26943<<ASSIGN  26950<<ASSIGN  26970<<ASSIGN  26992>>IF
FIRST IN PROCEDURE FLB_READ_BACKUP
     28008**DCL     28161<<ASSIGN  28172>>IF      28183<<ASSIGN
FIRST_ACCT
     14806**DCL     27309>>ASSIGN  27315>>ASSIGN  27471>>ASSIGN
FIRST_ACCT_SPECIFIED.ACCT#
     21682**DCL     25444<<ASSIGN  26213<<ASSIGN  26458<<ASSIGN  26462<<ASSIGN  26543>>IF      26544>>ASSIGN
     27396>>IF      27397<<ASSIGN
FIRST_FILE
     14847**DCL     27310>>ASSIGN  27316>>ASSIGN  27351>>ASSIGN  27379>>ASSIGN  27472>>ASSIGN
FIRST_LEGAL_CHAR IN PROCEDURE FLB_ORDER_RANGE
     27442**DCL     27721>>ASSIGN  27746>>ASSIGN  27768>>DOWHILE 27771>>IF
FIRST_TIME
     21563**DCL     24439>>IF      24486<<ASSIGN  24750>>IF
FIT_.W2 IN PROCEDURE FLB_TAPE_NODES
     24993**DCL     24994--REDEF
FIT_AREA.W2
     16344**DCL     16345--REDEF
FLB$EFT_BRK
     21451**DCL-ENT 21928--DCLINIT
PL6.E3A0      #001=FLB$EFT File=FLB$EFT.:E05TSI                                  TUE 07/29/97 15:33 Page:603
FLB_ADDREM_NODES
     25480**PROC    24665--CALL    24672--CALL
FLB_BUILD_SNLIST
     27920**PROC    25241--CALL
FLB_CHECK_PACKSET IN PROCEDURE FLB_DISK_SPEC
     26684**PROC    26532--CALL    26538--CALL    26563--CALL
FLB_CREATE_RETRIEVE_CMNDS IN PROCEDURE FLB_TAPE_NODES
     25349**PROC    25070--CALL    25108--CALL
FLB_DATE_SPEC IN PROCEDURE FLB_DISK_OPTION_LIST
     27009**PROC    26799--CALL
FLB_DISK_DEST
     26228**PROC    25116--CALL    25490--CALL    25516--CALL    25758--CALL    26008--CALL    26088--CALL
FLB_DISK_OPTION_LIST IN PROCEDURE FLB_DISK_SPEC
     26706**PROC    26404--CALL
FLB_DISK_SPEC
     26337**PROC    24911--CALL    25118--CALL    25357--CALL    25393--CALL    25430--CALL    25467--CALL
     25487--CALL    25512--CALL    25594--CALL    25667--CALL    25762--CALL    25954--CALL    26004--CALL
     26092--CALL
FLB_DUAL_NODES
     25505**PROC    24569--CALL
FLB_ESTMOD_NODES
     25660**PROC    24653--CALL    24659--CALL
FLB_FID_RANGE IN PROCEDURE FLB_DISK_SPEC
     27282**PROC    26421--CALL    26427--CALL
FLB_FILE_N_ACCOUNT IN PROCEDURE FLB_FID_RANGE
     27361**PROC    27317--CALL    27322--CALL    27329--CALL    27341--CALL    27344--CALL
FLB_NEXT IN PROCEDURE FLB_ORDER_RANGE
     27706**PROC    27642--CALL    27653--CALL
FLB_NEXT_SPEC IN PROCEDURE FLB_ORDER_RANGE
     27621**PROC    27559--CALL    27583--CALL
FLB_NUTHER_FILE_SPEC IN PROCEDURE FLB_DISK_SPEC
     27257**PROC    26422--CALL    26429--CALL    26485--CALL    27475--CALL
FLB_OPEN_NODES
     25684**PROC    24679--CALL
FLB_OPTION_INIT
     26186**PROC    24447--CALL    25748--CALL
PL6.E3A0      #001=FLB$EFT File=FLB$EFT.:E05TSI                                  TUE 07/29/97 15:33 Page:604
FLB_ORDER_RANGE IN PROCEDURE FLB_DISK_SPEC
     27406**PROC    26518--CALL
FLB_OUTPUT_NODES
     24760**PROC    24636--CALL    24641--CALL
FLB_PREV IN PROCEDURE FLB_ORDER_RANGE
     27752**PROC    27684--CALL    27695--CALL
FLB_PREV_SPEC IN PROCEDURE FLB_ORDER_RANGE
     27663**PROC    27558--CALL    27575--CALL
FLB_READ_BACKUP
     27997**PROC    25167--CALL
FLB_READ_NODES
     24922**PROC    24631--CALL
FLB_REBUILD_NODES
     26022**PROC    24697--CALL
FLB_REBUILD_OPTION_LIST IN PROCEDURE FLB_REBUILD_NODES
     26102**PROC    26079--CALL    26084--CALL
FLB_REQUALIFY_NODES
     25386**PROC    24596--CALL
FLB_RESTORE_NODES
     25990**PROC    24525--CALL
FLB_SAVE_NODES
     25571**PROC    24562--CALL    24576--CALL    24583--CALL    24590--CALL
FLB_SETDATE IN PROCEDURE FLB_DATE_SPEC
     27239**PROC    27106--CALL    27108--CALL    27110--CALL    27112--CALL    27119--CALL    27121--CALL
     27123--CALL
FLB_SET_TAPE_DEFAULTS
     27869**PROC    25255--CALL    25268--CALL    25273--CALL    26041--CALL
FLB_SORT_RANGE IN PROCEDURE FLB_ORDER_RANGE
     27796**PROC    27482--CALL
FLB_STATUS_NODES
     25948**PROC    24685--CALL    24691--CALL
FLB_STOW_FETCH_NODES
     25410**PROC    24602--CALL    24608--CALL    24614--CALL    24619--CALL    24625--CALL
FLB_TAPE_NODES
     24967**PROC    24513--CALL    24519--CALL    24531--CALL    24537--CALL    24543--CALL    26000--CALL
     26098--CALL
PL6.E3A0      #001=FLB$EFT File=FLB$EFT.:E05TSI                                  TUE 07/29/97 15:33 Page:605
FLB_TAPE_OD_SPEC
     27825**PROC    25045--CALL    25598--CALL    25670--CALL    25703--CALL    25712--CALL    26060--CALL
FLB_TRANS_TYPE
     26153**PROC    25696--CALL
FLB_VALIDATE_NODES
     25460**PROC    24549--CALL    24555--CALL
FLB_WHERE_NODES
     24904**PROC    24647--CALL
FLC$TAPE_IO_INIT
     21452**DCL-ENT 28095--CALL
FLC$TAPE_OPEN_NEXT
     21453**DCL-ENT 28097--CALL
FLC$TAPE_READ_NEXT
     21454**DCL-ENT 28125--CALL
FLE$ESTMOD
     21455**DCL-ENT 25499--CALL    25626--CALL    25647--CALL    25679--CALL
FLERRMSGSYS
     21708**DCL     24363<>CALL
FLI$ALLOC
     21458**DCL-ENT 26309--CALL    26315--CALL    26360--CALL    26364--CALL    26411--CALL    26443--CALL
     26449--CALL    26470--CALL    27263--CALL    27460--CALL    27966--CALL    27989--CALL
FLI$BUILD_$$EFT
     21459**DCL-ENT 25205--CALL
FLI$DISMNT_TAPES
     21460**DCL-ENT 25132--CALL    25136--CALL
FLI$ERROR_SUMMARY
     21461**DCL-ENT 24490--CALL    24711--CALL
FLI$INIT
     21462**DCL-ENT 24446--CALL    25747--CALL
FLI$NODE_TAPE_OD
     21463**DCL-ENT 27850--CALL
FLI$RPT_ERR
     21465**DCL-ENT 24478--CALL    24701--CALL    24709--CALL    24739--CALL    24755--CALL    24756--CALL
     24797--CALL    24798--CALL    24807--CALL    24815--CALL    24820--CALL    24859--CALL    24877--CALL
     24880--CALL    24890--CALL    24898--CALL    24899--CALL    24936--CALL    24960--CALL    25100--CALL
     25148--CALL    25180--CALL    25320--CALL    25374--CALL    25447--CALL    25451--CALL    25542--CALL
PL6.E3A0      #001=FLB$EFT File=FLB$EFT.:E05TSI                                  TUE 07/29/97 15:33 Page:606
     25558--CALL    25774--CALL    25786--CALL    25794--CALL    25917--CALL    26055--CALL    26129--CALL
     26274--CALL    26297--CALL    26326--CALL    26383--CALL    26396--CALL    26514--CALL    26551--CALL
     26656--CALL    26695--CALL    26743--CALL    26751--CALL    26777--CALL    26795--CALL    26807--CALL
     26818--CALL    26831--CALL    26839--CALL    26855--CALL    26871--CALL    26879--CALL    27175--CALL
     27199--CALL    27221--CALL    27357--CALL    27500--CALL    27501--CALL    27513--CALL    27514--CALL
     27551--CALL    27604--CALL    27616--CALL    27656--CALL    27698--CALL    28109--CALL    28114--CALL
     28153--CALL    28180--CALL    28217--CALL
FLI$STATS
     21466**DCL-ENT 25126--CALL    25296--CALL    25316--CALL    25404--CALL    25474--CALL    25565--CALL
     25654--CALL    25818--CALL    25911--CALL    26017--CALL
FLI$TSN_USED
     21467**DCL-ENT 25831--CALL
FLM$MOVE
     21468**DCL-ENT 25121--CALL    25285--CALL    25537--CALL    25547--CALL    25642--CALL    25812--CALL
     25844--CALL    26012--CALL
FLM$SWITCH_PRIME_DUAL
     21476**DCL-ENT 25554--CALL
FLR$REQUALIFY
     21472**DCL-ENT 25403--CALL
FLS$PROCESS_PRE_RET
     21473**DCL-ENT 25366--CALL
FLS$STATUS
     21479**DCL-ENT 25986--CALL
FLS$STOW_FETCH
     21474**DCL-ENT 25439--CALL
FLV$VALIDATE
     21475**DCL-ENT 25365--CALL    25473--CALL
FLW$WHERE
     21477**DCL-ENT 24917--CALL
FMSEC
     14726**DCL     24378<<ASSIGN  24379<<ASSIGN  24380>>IF      24430>>IF      24472>>IF      24509>>IF
     24516>>IF      24522>>IF      24528>>IF      24534>>IF      24540>>IF      24546>>IF      24552>>IF
     24558>>IF      24565>>IF      24572>>IF      24579>>IF      24586>>IF      24593>>IF      24599>>IF
     24605>>IF      24611>>IF      24617>>IF      24622>>IF      24628>>IF      24634>>IF      24639>>IF
     24644>>IF      24650>>IF      24656>>IF      24662>>IF      24668>>IF      24675>>IF      24682>>IF
     24688>>IF      24694>>IF      24867>>IF      24870>>IF      24887>>IF      24948>>IF      24951>>IF
PL6.E3A0      #001=FLB$EFT File=FLB$EFT.:E05TSI                                  TUE 07/29/97 15:33 Page:607
     24957>>IF
FPARAM_ IN PROCEDURE FLB_READ_BACKUP
     28011**DCL     28097<>CALL    28120>>ASSIGN
FPT_EXIT
     14195**DCL     24506<>CALL    24732<>CALL    24751<>CALL    25939<>CALL
FPT_EXIT.V.STEPCC#
     14196**DCL     14196--REDEF   24702>>IF      24703<<ASSIGN  24718>>IF      24719<<ASSIGN  25123>>IF
     25124<<ASSIGN  25287>>IF      25288<<ASSIGN  25339>>IF      25340<<ASSIGN  25539>>IF      25540<<ASSIGN
     25562>>IF      25563<<ASSIGN  25651>>IF      25652<<ASSIGN  25922>>IF      25923<<ASSIGN  26014>>IF
     26015<<ASSIGN  26697<<ASSIGN
FPT_FID
     23283**DCL     24854<>CALL    24946<>CALL    25426<>CALL    28147<>CALL
FPT_FID.TEXTFID_
     23283**DCL     24853<<ASSIGN  24945<<ASSIGN  25425<<ASSIGN  28146<<ASSIGN
FPT_FID.V
     23287**DCL     23283--DCLINIT
FPT_FID_RESULTS
     23308**DCL     23287--DCLINIT 24463<<ASSIGN
FPT_FID_RESULTS.ACCT
     23308**DCL     26454>>IF
FPT_FID_RESULTS.CLENGTH.ACCT
     23313**DCL     26454>>IF
FPT_FID_RESULTS.NAME
     23308**DCL     25428>>IF      26474>>IF
FPT_FID_RESULTS.PASS
     23308**DCL     26481>>IF
FPT_FID_RESULTS.SN
     23308**DCL     26438>>IF
FPT_INT
     21928**DCL     24418<>CALL
FPT_INT.V
     21928**DCL     21928--DCLINIT
FPT_REM
     23531**DCL     25251<>CALL    25291<>CALL    25305<>CALL    25887<>CALL    25896<>CALL
FPT_REM.V
     23531**DCL     23531--DCLINIT
PL6.E3A0      #001=FLB$EFT File=FLB$EFT.:E05TSI                                  TUE 07/29/97 15:33 Page:608
FPT_REM.V.DISP#
     23531**DCL     25249<<ASSIGN  25289<<ASSIGN  25303<<ASSIGN  25884<<ASSIGN
FPT_REM.V.PSN#
     23532**DCL     25250<<ASSIGN  25290<<ASSIGN  25304<<ASSIGN  25886<<ASSIGN  25895<<ASSIGN
FROM_DISK_ACCT
     15302**DCL     15826--DCLINIT
FROM_DISK_NAME
     15276**DCL     15822--DCLINIT
FROM_DISK_SN
     15328**DCL     15821--DCLINIT
FSN_SPECD IN PROCEDURE FLB_REBUILD_NODES
     26028**DCL     26044<<ASSIGN  26050<<ASSIGN  26053>>IF
GET_ANSDATE_DATEUTS
     22667**DCL     27093<>CALL
GET_ANSDATE_DATEUTS.V
     22671**DCL     22667--DCLINIT
GET_DATEUTS_ANSDATE
     22692**DCL     27173<>CALL
GET_DATEUTS_ANSDATE.V
     22696**DCL     22692--DCLINIT
GET_GREETING_TIME
     22715**DCL     24401<>CALL
GET_GREETING_TIME.V
     22719**DCL     22715--DCLINIT
GET_NOW_UTS
     14747**DCL     25733<>CALL
GET_PSN
     22630**DCL     26324<>CALL    26549<>CALL
GET_PSN.V
     22631**DCL     22630--DCLINIT
GIVE_IT_UP IN PROCEDURE FLB_OUTPUT_NODES
     24891**LABEL   24850--CALLALT 24851--CALLALT 24893--CALLALT 24894--CALLALT
GRAND_START_UTS IN PROCEDURE FLB_OPEN_NODES
     25691**DCL     25734<<ASSIGN  25910>>ASSIGN
GRAND_TOTAL_FILES IN PROCEDURE FLB_OPEN_NODES
     25689**DCL     25730<<ASSIGN  25816<<ASSIGN  25816>>ASSIGN  25903>>IF      25908>>ASSIGN
PL6.E3A0      #001=FLB$EFT File=FLB$EFT.:E05TSI                                  TUE 07/29/97 15:33 Page:609
GRAND_TOTAL_GRANS IN PROCEDURE FLB_OPEN_NODES
     25690**DCL     25731<<ASSIGN  25817<<ASSIGN  25817>>ASSIGN  25909>>ASSIGN
GREETINGS
     21564**DCL     22744--DCLINIT 22745--DCLINIT
GREETINGS.GDATE
     21572**DCL     22715--DCLINIT 22716--DCLINIT
GREETINGS.GDAY
     21570**DCL     22718--DCLINIT
GREETINGS.GTIME
     21568**DCL     22717--DCLINIT 22718--DCLINIT
GREETINGS.VERSION
     21566**DCL     24400<<ASSIGN
GREET_TEST_USER
     22777**DCL     24406<>CALL
GREET_TEST_USER.STATION_
     22779**DCL     22779--REDEF
GREET_TEST_USER.V
     22780**DCL     22777--DCLINIT
GREET_TEST_USER.V.DVBYTE.VFC#
     22786**DCL     22786--REDEF
GREET_USER
     22743**DCL     24402<>CALL
GREET_USER.STATION_
     22745**DCL     22745--REDEF
GREET_USER.V
     22746**DCL     22743--DCLINIT
GREET_USER.V.DVBYTE.VFC#
     22752**DCL     22752--REDEF
I
     21575**DCL     25235<<DOINDEX 25266>>IF      25885<<DOINDEX 25886>>ASSIGN  25965<<DOINDEX 25966>>ASSIGN
     25966>>ASSIGN  26215<<DOINDEX 26216>>ASSIGN  26217>>ASSIGN  26218>>ASSIGN  26368<<DOINDEX 26369>>ASSIGN
     26370>>ASSIGN  26372>>ASSIGN  26377>>CALLBLT 26386>>ASSIGN  26391<<DOINDEX 26392>>DOINDEX 26393>>IF
     26426<<DOINDEX 26427>>CALL    26497<<DOINDEX 26498>>IF      26498>>IF      26498>>IF      26498>>IF
     26498>>IF      26502>>DOCASE  26560<<DOINDEX 26561>>ASSIGN  26562>>ASSIGN
I IN PROCEDURE FLB_ORDER_RANGE
     27417**DCL     27487<<ASSIGN  27488>>DOWHILE 27489>>ASSIGN  27490>>IF      27492>>ASSIGN  27494>>IF
PL6.E3A0      #001=FLB$EFT File=FLB$EFT.:E05TSI                                  TUE 07/29/97 15:33 Page:610
     27499>>IF      27502>>IF      27504>>ASSIGN  27505>>DOINDEX 27508<<ASSIGN  27508>>ASSIGN  27512>>IF
     27519<<ASSIGN  27519>>ASSIGN  27536<<ASSIGN  27538>>DOWHILE 27539>>ASSIGN  27545>>ASSIGN  27567>>DOINDEX
     27570>>ASSIGN  27588>>ASSIGN  27589>>DOINDEX 27599<<ASSIGN  27599>>ASSIGN  27803<<DOINDEX 27804>>ASSIGN
     27805>>IF      27807>>ASSIGN  27808>>ASSIGN  27809>>ASSIGN
I IN PROCEDURE FLB_REBUILD_NODES
     26027**DCL     26048<<DOINDEX 26049>>IF
INCR IN PROCEDURE FLB_STOW_FETCH_NODES
     25416**DCL     25421<<ASSIGN
I_SWAP IN PROCEDURE FLB_ORDER_RANGE
     27420**DCL     27802<<ASSIGN  27807<<ASSIGN  27813>>ASSIGN
J
     21684**DCL     26392<<DOINDEX 26393>>IF
J IN PROCEDURE FLB_ORDER_RANGE
     27418**DCL     27489<<ASSIGN  27490>>IF      27494>>IF      27502>>IF      27504>>ASSIGN  27505<<DOINDEX
     27506>>ASSIGN  27506>>ASSIGN  27567<<DOINDEX 27568>>ASSIGN  27568>>ASSIGN  27589<<DOINDEX 27590>>ASSIGN
     27590>>ASSIGN  27804<<ASSIGN  27805>>IF      27809>>ASSIGN  27810>>ASSIGN
JUSTALT IN PROCEDURE FLB_DISK_SPEC
     26677**LABEL   26518--CALLALT
JUSTCERET IN PROCEDURE FLB_CREATE_RETRIEVE_CMNDS
     25360**LABEL   25365--CALLALT
LAST_ACCT
     14819**DCL     27311>>ASSIGN  27325>>ASSIGN  27473>>ASSIGN
LAST_FILE
     14847**DCL     27312>>ASSIGN  27326>>ASSIGN  27337>>ASSIGN  27380>>ASSIGN  27474>>ASSIGN
LAST_LEGAL_CHAR IN PROCEDURE FLB_ORDER_RANGE
     27443**DCL     27729>>DOWHILE 27732>>IF      27775>>ASSIGN  27789>>ASSIGN
LAST_RANGEX IN PROCEDURE FLB_ORDER_RANGE
     27421**DCL     27492<<ASSIGN  27534>>DOWHILE 27538>>DOWHILE 27571<<ASSIGN  27571>>ASSIGN  27594<<ASSIGN
     27594>>ASSIGN
LAST_SNLISTINFO$
     14179**DCL     21835--IMP-PTR 25051>>ASSIGN  25056<<ASSIGN  25246>>IF      25277>>ASSIGN  25282<<ASSIGN
     25611>>IF      25636>>ASSIGN  25714>>ASSIGN  25719<<ASSIGN  26068>>ASSIGN  26073<<ASSIGN  27991>>ASSIGN
     27992<<ASSIGN
LAST_TAPE_FSN
     14890**DCL     25238<<ASSIGN  25239<<ASSIGN  25255<>CALL    25268<>CALL    25273<>CALL    26124<<ASSIGN
     26125<<CALLBLT 26126>>IF      27899<<ASSIGN  27900<<ASSIGN  28133<<ASSIGN
PL6.E3A0      #001=FLB$EFT File=FLB$EFT.:E05TSI                                  TUE 07/29/97 15:33 Page:611
LAST_T_FSN IN PROCEDURE FLB_SET_TAPE_DEFAULTS
     27875**DCL     27869--PROC    27898--IF      27900>>ASSIGN
LEGAL_CHAR IN PROCEDURE FLB_ORDER_RANGE
     27444**DCL     27729>>DOWHILE 27768>>DOWHILE
M IN PROCEDURE FLB_ORDER_RANGE
     27419**DCL     27533<<ASSIGN  27534>>DOWHILE 27540>>ASSIGN  27546>>ASSIGN  27564>>ASSIGN  27566>>ASSIGN
     27567>>DOINDEX 27572<<ASSIGN  27572>>ASSIGN  27589>>DOINDEX 27593<<ASSIGN  27593>>ASSIGN  27606<<ASSIGN
     27606>>ASSIGN  27800<<ASSIGN  27801>>DOWHILE 27803>>DOINDEX 27813<<ASSIGN
M$CATALOG
     21522**DCL     24360--ASSIGN  24787>>ASSIGN
M$CATALOG$
     21579**DCL     24360<<ASSIGN  24512>>ASSIGN  24561>>ASSIGN  24568>>ASSIGN  24575>>ASSIGN  24582>>ASSIGN
     24589>>ASSIGN  24678>>ASSIGN  24786>>ASSIGN
M$CLOSE
      5502**DCL-ENT 24745--CALL    24805--CALL    24878--CALL    24934--CALL    25213--CALL    25295--CALL
     25310--CALL    25315--CALL    25325--CALL    25332--CALL    25336--CALL    25833--CALL    25853--CALL
     25941--CALL    28136--CALL    28139--CALL    28168--CALL    28169--CALL    28208--CALL    28209--CALL
     28220--CALL    28222--CALL    28224--CALL
M$DEVICE
      5506**DCL-ENT 24385--CALL    24707--CALL    24851--CALL    24873--CALL    24894--CALL
M$DISK00
     15219**DCL     25322--IF      28070>>ASSIGN  28071>>ASSIGN  28078>>ASSIGN  28221--IF
M$DO
     21520**DCL     24386--IF      24388>>ASSIGN  24721<>CALL    25928<>CALL
M$EXIT
      5514**DCL-ENT 24506--CALL    24732--CALL    24751--CALL    25939--CALL
M$FID
      5565**DCL-ENT 24854--CALL    24946--CALL    25426--CALL    28147--CALL
M$INT
      5557**DCL-ENT 24418--CALL
M$LO
     21519**DCL     24359--ASSIGN  24383>>ASSIGN  24445<>CALL    24715<>CALL    24778>>ASSIGN  25746<>CALL
     25924<>CALL
M$LO$
     21578**DCL     24359<<ASSIGN  24777>>ASSIGN
M$MADMUCK
PL6.E3A0      #001=FLB$EFT File=FLB$EFT.:E05TSI                                  TUE 07/29/97 15:33 Page:612
      5510**DCL-ENT 26324--CALL    26549--CALL
M$OPEN
      5502**DCL-ENT 24382--CALL    24384--CALL    24389--CALL    24850--CALL    24869--CALL    24893--CALL
     24950--CALL    25146--CALL    25177--CALL    25201--CALL    25206--CALL    25215--CALL    25226--CALL
     25372--CALL    26688--CALL    28121--CALL    28149--CALL    28158--CALL    28195--CALL    28198--CALL
M$READ
      5503**DCL-ENT 25182--CALL    25228--CALL    25236--CALL    28164--CALL    28204--CALL
M$READ_FILE
     21518**DCL     24358--ASSIGN  24939>>ASSIGN  24953<>CALL    25378<>CALL
M$READ_FILE$
     21576**DCL     24358<<ASSIGN  24729>>IF      24744>>IF      24933>>IF      25936>>IF
M$REBUILD
     15954**DCL     25327--IF
M$REM
      5511**DCL-ENT 25251--CALL    25291--CALL    25305--CALL    25887--CALL    25896--CALL    28141--CALL
M$RPRIV
      5561**DCL-ENT 24381--CALL    24431--CALL    24868--CALL    24949--CALL
M$SI
     21517**DCL     24357--ASSIGN  24748<>CALL    24961<>CALL    25942<>CALL
M$SI$
     21577**DCL     24357<<ASSIGN
M$SPRIV
      5561**DCL-ENT 24510--CALL    24517--CALL    24523--CALL    24529--CALL    24535--CALL    24541--CALL
     24547--CALL    24553--CALL    24559--CALL    24566--CALL    24573--CALL    24580--CALL    24587--CALL
     24594--CALL    24600--CALL    24606--CALL    24612--CALL    24618--CALL    24623--CALL    24629--CALL
     24635--CALL    24640--CALL    24645--CALL    24651--CALL    24657--CALL    24663--CALL    24669--CALL
     24676--CALL    24683--CALL    24689--CALL    24695--CALL    24871--CALL    24888--CALL    24952--CALL
     24958--CALL
M$STATUS
     15954**DCL     28150--IF      28152>>ASSIGN  28179>>ASSIGN  28223--IF
M$TAPE00
     21521**DCL     25141>>ASSIGN  25142>>ASSIGN  25290--ASSIGN  25895--ASSIGN  28108>>ASSIGN  28140--ASSIGN
     28219--IF
M$TAPE00$
     15970**DCL     25246>>IF      25250>>ASSIGN  25267>>ASSIGN  25304>>ASSIGN
M$TIME
PL6.E3A0      #001=FLB$EFT File=FLB$EFT.:E05TSI                                  TUE 07/29/97 15:33 Page:613
      5569**DCL-ENT 24401--CALL    25733--CALL    27093--CALL    27173--CALL
M$WRITE
      5503**DCL-ENT 24402--CALL    24406--CALL    28129--CALL    28185--CALL    28212--CALL
M$XXX
      5514**DCL-ENT 24365--CALL    24479--CALL    24740--CALL    24757--CALL    24900--CALL
MAX_NX IN PROCEDURE FLB_NEXT
     27713**DCL     27706--PROC    27719>>IF
MAX_NX IN PROCEDURE FLB_PREV
     27759**DCL     27752--PROC    27774>>DOINDEX 27777>>ASSIGN  27788>>DOINDEX 27791>>ASSIGN
MODE
     21686**DCL     25742>>IF      25766>>IF      26171<<ASSIGN  26180<<ASSIGN  26665>>ASSIGN
MUCK_LIST
     21593**DCL     22631--DCLINIT
MUCK_LIST.SN#
     21593**DCL     26330>>ASSIGN  26554>>ASSIGN
N
     21595**DCL     21734--IMP-SIZ 26726<<ASSIGN  26727>>ASSIGN  26728>>ASSIGN  26729>>DOWHILE 26730<<ASSIGN
     26730>>ASSIGN  26731>>IF      27266<<ASSIGN  27267>>ASSIGN  27268>>ASSIGN  27269>>ASSIGN  27270>>ASSIGN
     27271>>ASSIGN  27272>>ASSIGN
N IN PROCEDURE FLB_BUILD_SNLIST
     27929**DCL     27968<<CALLBLT 27969>>IF      27973<<DOINDEX 27975>>ASSIGN  27982<<DOINDEX 27984>>ASSIGN
N IN PROCEDURE FLB_NEXT
     27712**DCL     27706--PROC    27717>>ASSIGN  27722<<ASSIGN  27739<<ASSIGN  27739>>ASSIGN  27747<<ASSIGN
N IN PROCEDURE FLB_NEXT_SPEC
     27637**DCL     27641<<ASSIGN  27642<>CALL    27644>>ASSIGN  27647>>ASSIGN  27648<<ASSIGN  27649>>DOWHILE
     27649>>DOWHILE 27650<<ASSIGN  27650>>ASSIGN  27652<<ASSIGN  27652>>ASSIGN  27653<>CALL
N IN PROCEDURE FLB_PREV
     27758**DCL     27752--PROC    27763>>ASSIGN  27777<<ASSIGN  27791<<ASSIGN
N IN PROCEDURE FLB_PREV_SPEC
     27679**DCL     27683<<ASSIGN  27684<>CALL    27686>>ASSIGN  27689>>ASSIGN  27690<<ASSIGN  27691>>DOWHILE
     27691>>DOWHILE 27692<<ASSIGN  27692>>ASSIGN  27694<<ASSIGN  27694>>ASSIGN  27695<>CALL
NAMEB IN PROCEDURE FLB_NEXT
     27711**DCL     27706--PROC    27721<<ASSIGN  27727>>ASSIGN  27734<<ASSIGN  27737<<ASSIGN  27746<<ASSIGN
NAMEB IN PROCEDURE FLB_PREV
     27757**DCL     27752--PROC    27766>>ASSIGN  27773<<ASSIGN  27775<<ASSIGN  27780<<ASSIGN  27789<<ASSIGN
NBR_BYTES_TO_MOVE
PL6.E3A0      #001=FLB$EFT File=FLB$EFT.:E05TSI                                  TUE 07/29/97 15:33 Page:614
     15983**DCL     15984--IMP-SIZ 15985--IMP-SIZ
NBR_CONTROL_FILE
     14897**DCL     25959<<ASSIGN  25964<<ASSIGN  25965>>DOINDEX 25971>>IF      25979<<ASSIGN
NBR_DPS
     21596**DCL     26357<<ASSIGN  26358>>ASSIGN  26362>>ASSIGN  26366>>ASSIGN  26367>>ASSIGN  26368>>DOINDEX
     26391>>DOINDEX 26392>>DOINDEX 26440<<ASSIGN  26441>>ASSIGN  26444>>ASSIGN
NBR_GRANS_PER_TAPE_BUF
     14729**DCL     27910<<ASSIGN
NBR_RUNS IN PROCEDURE FLB_TAPE_NODES
     24975**DCL     25229<<ASSIGN  25235>>DOINDEX
NBR_SNLISTS
     14183**DCL     25057<<ASSIGN  25076>>IF      25283<<ASSIGN  25621>>IF      25720<<ASSIGN  25885>>DOINDEX
     26074<<ASSIGN  27843<<ASSIGN
NEW_DISK_DESC
     14790**DCL     25399<<ASSIGN
NEW_DISK_DESC.BUF#
     14790**DCL     25402<<ASSIGN
NEW_DISK_DESC.QS#
     14791**DCL     25401<<ASSIGN
NEW_REBUILD IN PROCEDURE FLB_TAPE_NODES
     24979**DCL     25179<<ASSIGN  25197<<ASSIGN  25329>>IF
NN IN PROCEDURE FLB_BUILD_SNLIST
     27930**DCL     27972<<CALLBLT 27974>>CALLBLT 27976<<ASSIGN  27976>>ASSIGN  27981<<CALLBLT 27983>>CALLBLT
     27985<<ASSIGN  27985>>ASSIGN
NODATA_FILE_NAME.L#
     17598**DCL     17598--IMP-SIZ
NODATA_KEY
     17744**DCL     17736--DCLINIT 17737--DCLINIT
NODE$
     21597**DCL     21611--REDEF   24442<>CALL    24444<>CALL    24458>>ASSIGN  24494>>ASSIGN  24794>>IF
     24812>>IF      24831>>DOINDEX 24832>>ASSIGN  24945>>ASSIGN  24945>>ASSIGN  25067>>IF      25067>>IF
     25084>>IF      25086>>DOINDEX 25087>>ASSIGN  25422>>DOINDEX 25424>>ASSIGN  25745<>CALL    25752>>ASSIGN
     25863>>ASSIGN  25875>>DOINDEX 25876>>ASSIGN  25960>>DOINDEX 25961>>ASSIGN  25997>>IF      26035>>DOINDEX
     26036>>ASSIGN  26160>>DOINDEX 26161>>ASSIGN  26235>>DOINDEX 26236>>ASSIGN  26351>>DOINDEX 26352>>ASSIGN
     27844>>DOINDEX 27845>>ASSIGN  28083>>IF      28083>>IF      28086>>ASSIGN
NODE_ERROR IN PROCEDURE FLB_TAPE_OD_SPEC
PL6.E3A0      #001=FLB$EFT File=FLB$EFT.:E05TSI                                  TUE 07/29/97 15:33 Page:615
     27834**DCL     27842<<ASSIGN  27852<<ASSIGN  27855<<ASSIGN  27861>>IF      27862>>IF
NOT_SPECIFIED IN PROCEDURE FLB_DATE_SPEC
     27027**DCL     27067<<ASSIGN  27077<<ASSIGN  27139>>IF
NOW_UTS
     14735**DCL     25734>>ASSIGN  27088<>CALL    27092>>ASSIGN
NO_FILE
     14848**DCL     27350>>IF
NULL_ACCT
     14845**DCL     22513--DCLINIT
NULL_FILE
     14848**DCL     22509--DCLINIT
OPEN_BACKUP_FILE IN PROCEDURE FLB_READ_BACKUP
     28097**LABEL   28106--GOTO
OPEN_BACKUP_RBLDFILE
     24035**DCL     28149<>CALL    28195<>CALL
OPEN_BACKUP_RBLDFILE.ACSVEH_
     24037**DCL     24038--REDEF
OPEN_BACKUP_RBLDFILE.ALTKEYS_
     24043**DCL     24044--REDEF   24044--REDEF
OPEN_BACKUP_RBLDFILE.HDR_
     24042**DCL     24043--REDEF
OPEN_BACKUP_RBLDFILE.TAB_
     24041**DCL     24042--REDEF
OPEN_BACKUP_RBLDFILE.UHL_
     24035**DCL     24036--REDEF   24036--REDEF
OPEN_BACKUP_RBLDFILE.V
     24044**DCL     24035--DCLINIT
OPEN_BACKUP_RBLDFILE.V.FSN#
     24075**DCL     24075--REDEF   24075--REDEF
OPEN_BACKUP_RBLDFILE.V.RES#
     24059**DCL     28148<<ASSIGN  28194<<ASSIGN
OPEN_BACKUP_RBLDFILE.WSN_
     24041**DCL     24041--REDEF
OPEN_BACKUP_TEMP
     24155**DCL     25226<>CALL    28158<>CALL    28198<>CALL
OPEN_BACKUP_TEMP.ACSVEH_
PL6.E3A0      #001=FLB$EFT File=FLB$EFT.:E05TSI                                  TUE 07/29/97 15:33 Page:616
     24157**DCL     24158--REDEF
OPEN_BACKUP_TEMP.ALTKEYS_
     24163**DCL     24164--REDEF   24164--REDEF
OPEN_BACKUP_TEMP.HDR_
     24162**DCL     24163--REDEF
OPEN_BACKUP_TEMP.TAB_
     24161**DCL     24162--REDEF
OPEN_BACKUP_TEMP.UHL_
     24155**DCL     24156--REDEF   24156--REDEF
OPEN_BACKUP_TEMP.V
     24164**DCL     24155--DCLINIT
OPEN_BACKUP_TEMP.V.FSN#
     24195**DCL     24195--REDEF   24195--REDEF
OPEN_BACKUP_TEMP.V.FUN#
     24174**DCL     25225<<ASSIGN  28157<<ASSIGN  28197<<ASSIGN
OPEN_BACKUP_TEMP.WSN_
     24161**DCL     24161--REDEF
OPEN_BLOCK_FILE.ACSVEH_
     15823**DCL     15824--REDEF
OPEN_BLOCK_FILE.ALTKEYS_
     15829**DCL     15830--REDEF   15830--REDEF
OPEN_BLOCK_FILE.HDR_
     15828**DCL     15829--REDEF
OPEN_BLOCK_FILE.TAB_
     15827**DCL     15828--REDEF
OPEN_BLOCK_FILE.UHL_
     15821**DCL     15822--REDEF   15822--REDEF
OPEN_BLOCK_FILE.V
     15830**DCL     15821--DCLINIT
OPEN_BLOCK_FILE.V.FSN#
     15861**DCL     15861--REDEF   15861--REDEF
OPEN_BLOCK_FILE.WSN_
     15827**DCL     15827--REDEF
OPEN_DEFAULT_LO
     23475**DCL     24850<>CALL    24893<>CALL
OPEN_DEFAULT_LO.ACSVEH_
PL6.E3A0      #001=FLB$EFT File=FLB$EFT.:E05TSI                                  TUE 07/29/97 15:33 Page:617
     23477**DCL     23478--REDEF
OPEN_DEFAULT_LO.ALTKEYS_
     23483**DCL     23484--REDEF   23484--REDEF
OPEN_DEFAULT_LO.HDR_
     23482**DCL     23483--REDEF
OPEN_DEFAULT_LO.TAB_
     23481**DCL     23482--REDEF
OPEN_DEFAULT_LO.UHL_
     23475**DCL     23476--REDEF   23476--REDEF
OPEN_DEFAULT_LO.V
     23484**DCL     23475--DCLINIT
OPEN_DEFAULT_LO.V.FSN#
     23515**DCL     23515--REDEF   23515--REDEF
OPEN_DEFAULT_LO.WSN_
     23481**DCL     23481--REDEF
OPEN_FID
     23213**DCL     24869<>CALL    24950<>CALL
OPEN_FID.ACSVEH_
     23215**DCL     23216--REDEF
OPEN_FID.ALTKEYS_
     23221**DCL     23222--REDEF   23222--REDEF
OPEN_FID.HDR_
     23220**DCL     23221--REDEF
OPEN_FID.TAB_
     23219**DCL     23220--REDEF
OPEN_FID.UHL_
     23213**DCL     23214--REDEF   23214--REDEF
OPEN_FID.V
     23222**DCL     23213--DCLINIT
OPEN_FID.V.ACS#
     23233**DCL     24783<<ASSIGN  24791<<ASSIGN
OPEN_FID.V.ASN#
     23232**DCL     23286--DCLINIT 24857>>IF
OPEN_FID.V.DCB#
     23222**DCL     24825<<ASSIGN  24939<<ASSIGN
OPEN_FID.V.EXIST#
PL6.E3A0      #001=FLB$EFT File=FLB$EFT.:E05TSI                                  TUE 07/29/97 15:33 Page:618
     23226**DCL     24781<<ASSIGN  24836<<ASSIGN  24839<<ASSIGN  24842<<ASSIGN  24846<<ASSIGN
OPEN_FID.V.FSN#
     23253**DCL     23253--REDEF   23253--REDEF
OPEN_FID.V.FUN#
     23232**DCL     24780<<ASSIGN  24789<<ASSIGN  24835<<ASSIGN  24838<<ASSIGN  24841<<ASSIGN  24845<<ASSIGN
     24848<<ASSIGN  24938<<ASSIGN
OPEN_FID.V.ORG#
     23233**DCL     24779<<ASSIGN  24788<<ASSIGN
OPEN_FID.V.RES#
     23237**DCL     23286--DCLINIT 28148>>ASSIGN
OPEN_FID.V.TYPE#
     23234**DCL     24782<<ASSIGN  24790<<ASSIGN
OPEN_FID.WSN_
     23219**DCL     23219--REDEF
OPEN_LO_DO
     22895**DCL     24384<>CALL    24389<>CALL
OPEN_LO_DO.ACSVEH_
     22897**DCL     22898--REDEF
OPEN_LO_DO.ALTKEYS_
     22903**DCL     22904--REDEF   22904--REDEF
OPEN_LO_DO.HDR_
     22902**DCL     22903--REDEF
OPEN_LO_DO.TAB_
     22901**DCL     22902--REDEF
OPEN_LO_DO.UHL_
     22895**DCL     22896--REDEF   22896--REDEF
OPEN_LO_DO.V
     22904**DCL     22895--DCLINIT
OPEN_LO_DO.V.DCB#
     22904**DCL     24383<<ASSIGN  24388<<ASSIGN
OPEN_LO_DO.V.FSN#
     22935**DCL     22935--REDEF   22935--REDEF
OPEN_LO_DO.WSN_
     22901**DCL     22901--REDEF
OPEN_NODATA_LIST.ACSVEH_
     17531**DCL     17532--REDEF
PL6.E3A0      #001=FLB$EFT File=FLB$EFT.:E05TSI                                  TUE 07/29/97 15:33 Page:619
OPEN_NODATA_LIST.ALTKEYS_
     17537**DCL     17538--REDEF   17538--REDEF
OPEN_NODATA_LIST.HDR_
     17536**DCL     17537--REDEF
OPEN_NODATA_LIST.TAB_
     17535**DCL     17536--REDEF
OPEN_NODATA_LIST.UHL_
     17529**DCL     17530--REDEF   17530--REDEF
OPEN_NODATA_LIST.V.FSN#
     17569**DCL     17569--REDEF   17569--REDEF
OPEN_NODATA_LIST.WSN_
     17535**DCL     17535--REDEF
OPEN_PRIME_DUAL.ACSVEH_
     16978**DCL     16979--REDEF
OPEN_PRIME_DUAL.ALTKEYS_
     16984**DCL     16985--REDEF   16985--REDEF
OPEN_PRIME_DUAL.HDR_
     16983**DCL     16984--REDEF
OPEN_PRIME_DUAL.TAB_
     16982**DCL     16983--REDEF
OPEN_PRIME_DUAL.UHL_
     16976**DCL     16977--REDEF   16977--REDEF
OPEN_PRIME_DUAL.V.FSN#
     17016**DCL     17016--REDEF   17016--REDEF
OPEN_PRIME_DUAL.WSN_
     16982**DCL     16982--REDEF
OPEN_REBUILD
     17211**DCL     25177<>CALL    25201<>CALL    25206<>CALL    25215<>CALL
OPEN_REBUILD.ACSVEH_
     17213**DCL     17214--REDEF
OPEN_REBUILD.ALTKEYS_
     17219**DCL     17220--REDEF   17220--REDEF
OPEN_REBUILD.HDR_
     17218**DCL     17219--REDEF
OPEN_REBUILD.TAB_
     17217**DCL     17218--REDEF
PL6.E3A0      #001=FLB$EFT File=FLB$EFT.:E05TSI                                  TUE 07/29/97 15:33 Page:620
OPEN_REBUILD.UHL_
     17211**DCL     17212--REDEF   17212--REDEF
OPEN_REBUILD.V.EXIST#
     17224**DCL     25198<<ASSIGN
OPEN_REBUILD.V.EXPIRE#
     17240**DCL     25200<<ASSIGN
OPEN_REBUILD.V.FSN#
     17251**DCL     17251--REDEF   17251--REDEF
OPEN_REBUILD.V.FUN#
     17230**DCL     25176<<ASSIGN  25199<<ASSIGN  25214<<ASSIGN
OPEN_REBUILD.V.RES#
     17235**DCL     26305<<ASSIGN
OPEN_REBUILD.WSN_
     17217**DCL     17217--REDEF
OPEN_SI
     23051**DCL     24382<>CALL
OPEN_SI.ACSVEH_
     23053**DCL     23054--REDEF
OPEN_SI.ALTKEYS_
     23059**DCL     23060--REDEF   23060--REDEF
OPEN_SI.HDR_
     23058**DCL     23059--REDEF
OPEN_SI.TAB_
     23057**DCL     23058--REDEF
OPEN_SI.UHL_
     23051**DCL     23052--REDEF   23052--REDEF
OPEN_SI.V
     23060**DCL     23051--DCLINIT
OPEN_SI.V.FSN#
     23091**DCL     23091--REDEF   23091--REDEF
OPEN_SI.WSN_
     23057**DCL     23057--REDEF
OPEN_STATUS.ACSVEH_
     16415**DCL     16416--REDEF
OPEN_STATUS.ALTKEYS_
     16421**DCL     16422--REDEF   16422--REDEF
PL6.E3A0      #001=FLB$EFT File=FLB$EFT.:E05TSI                                  TUE 07/29/97 15:33 Page:621
OPEN_STATUS.HDR_
     16420**DCL     16421--REDEF
OPEN_STATUS.TAB_
     16419**DCL     16420--REDEF
OPEN_STATUS.UHL_
     16413**DCL     16414--REDEF   16414--REDEF
OPEN_STATUS.V.FSN#
     16453**DCL     16453--REDEF   16453--REDEF
OPEN_STATUS.WSN_
     16419**DCL     16419--REDEF
OPEN_TSN_USED.ACSVEH_
     16151**DCL     16152--REDEF
OPEN_TSN_USED.ALTKEYS_
     16157**DCL     16158--REDEF   16158--REDEF
OPEN_TSN_USED.HDR_
     16156**DCL     16157--REDEF
OPEN_TSN_USED.TAB_
     16155**DCL     16156--REDEF
OPEN_TSN_USED.UHL_
     16149**DCL     16150--REDEF   16150--REDEF
OPEN_TSN_USED.V.FSN#
     16189**DCL     16189--REDEF   16189--REDEF
OPEN_TSN_USED.WSN_
     16155**DCL     16155--REDEF
OPTION_MAP
     21689**DCL     24459<<ASSIGN  26917<<ASSIGN
OPTION_MAP.ACTIVE
     21694**DCL     26782<<ASSIGN  26926>>IF      26937>>IF      26954>>IF
OPTION_MAP.ARCHIVE
     21690**DCL     26765<<ASSIGN  26925>>IF      26955>>IF      26965>>IF
OPTION_MAP.DELF
     21696**DCL     26740<<ASSIGN  26974>>IF
OPTION_MAP.INACTIVE
     21695**DCL     26785<<ASSIGN  26928>>IF      26939>>IF      26964>>IF
OPTION_MAP.QF
     21693**DCL     26774<<ASSIGN  26952>>IF      26958>>IF      26968>>IF
PL6.E3A0      #001=FLB$EFT File=FLB$EFT.:E05TSI                                  TUE 07/29/97 15:33 Page:622
OPTION_MAP.QS
     21692**DCL     26771<<ASSIGN  26947>>IF
OPTION_MAP.QUEUED
     21691**DCL     26768<<ASSIGN  26935>>IF      26958>>IF      26968>>IF
OUR_ACCT
     22648**DCL     22630--DCLINIT 28076--ASSIGN
OUR_ACCT.ACCT#
     22648**DCL     26323<<ASSIGN  26544<<ASSIGN  26545<<ASSIGN  28075<<ASSIGN
OUT$BLK.CODE
     21752**DCL     24458>>ASSIGN  24812>>IF      24833>>DOCASE  25067>>IF      25088>>DOCASE  25092>>DOCASE
     25752>>ASSIGN  25878>>DOCASE  25962>>DOCASE  25966>>ASSIGN  25997>>IF      26038>>DOCASE  26049>>IF
     26111>>DOCASE  26113>>ASSIGN  26163>>DOCASE  26168>>DOCASE  26174>>DOCASE  26176>>ASSIGN  26238>>DOCASE
     26241>>DOCASE  26262>>DOCASE  26283>>ASSIGN  26354>>DOCASE  26418>>DOCASE  26721>>DOCASE  26725>>ASSIGN
     26860>>DOCASE  26876>>ASSIGN  26889>>ASSIGN  27074>>DOCASE  27080>>ASSIGN  27083>>ASSIGN  27097>>IF
     27307>>DOCASE  27336>>IF      27376>>IF      27847>>DOCASE  28083>>IF      28087>>DOCASE
OUT$BLK.NDTYPE
     21747**DCL     26266>>IF      26289>>IF      26375>>IF
OUT$BLK.NSUBLKS
     21756**DCL     24794>>IF      24831>>DOINDEX 25067>>IF      25084>>IF      25086>>DOINDEX 25090>>DOINDEX
     25422>>DOINDEX 25875>>DOINDEX 25960>>DOINDEX 25964>>ASSIGN  26035>>DOINDEX 26045>>IF      26048>>DOINDEX
     26077>>IF      26108>>DOINDEX 26123>>IF      26160>>DOINDEX 26172>>DOINDEX 26235>>DOINDEX 26259>>DOINDEX
     26265>>DOINDEX 26288>>DOINDEX 26351>>DOINDEX 26357>>ASSIGN  26371>>IF      26374>>DOINDEX 26415>>DOINDEX
     26426>>DOINDEX 26719>>DOINDEX 26789>>IF      26859>>DOINDEX 27072>>DOINDEX 27095>>DOINDEX 27102>>DOINDEX
     27368>>IF      27844>>DOINDEX 28083>>IF
OUT$BLK.SUBLK$
     21777**DCL     24494>>ASSIGN  24812>>IF      24832>>ASSIGN  24945>>ASSIGN  24945>>ASSIGN  25067>>IF
     25087>>ASSIGN  25091>>ASSIGN  25424>>ASSIGN  25863>>ASSIGN  25876>>ASSIGN  25961>>ASSIGN  25966>>ASSIGN
     25997>>IF      26036>>ASSIGN  26047>>ASSIGN  26049>>IF      26079<>CALL    26109>>ASSIGN  26113>>ASSIGN
     26117>>CALLBLT 26117>>CALLBLT 26121>>CALLBLT 26121>>CALLBLT 26125>>CALLBLT 26125>>CALLBLT 26161>>ASSIGN
     26166>>ASSIGN  26173>>ASSIGN  26176>>ASSIGN  26236>>ASSIGN  26241>>DOCASE  26260>>ASSIGN  26266>>IF
     26268>>CALLBLT 26268>>CALLBLT 26268>>CALLBLT 26271>>IF      26271>>IF      26277>>ASSIGN  26277>>ASSIGN
     26283>>ASSIGN  26287>>ASSIGN  26289>>IF      26291>>CALLBLT 26291>>CALLBLT 26291>>CALLBLT 26294>>IF
     26294>>IF      26300>>ASSIGN  26300>>ASSIGN  26352>>ASSIGN  26370>>ASSIGN  26375>>IF      26377>>CALLBLT
     26377>>CALLBLT 26377>>CALLBLT 26380>>IF      26380>>IF      26386>>ASSIGN  26386>>ASSIGN  26416>>ASSIGN
     26426>>DOINDEX 26427>>CALL    26427<>CALL    26720>>ASSIGN  26725>>ASSIGN  26860>>DOCASE  26876>>ASSIGN
     26885>>CALLBLT 26885>>CALLBLT 26889>>ASSIGN  27073>>ASSIGN  27080>>ASSIGN  27083>>ASSIGN  27087>>CALLBLT
PL6.E3A0      #001=FLB$EFT File=FLB$EFT.:E05TSI                                  TUE 07/29/97 15:33 Page:623
     27087>>CALLBLT 27096>>ASSIGN  27103>>ASSIGN  27306>>ASSIGN  27317<>CALL    27322<>CALL    27329<>CALL
     27336>>IF      27336>>IF      27341<>CALL    27344<>CALL    27370>>ASSIGN  27370>>ASSIGN  27371>>ASSIGN
     27371>>ASSIGN  27372>>ASSIGN  27372>>ASSIGN  27372>>ASSIGN  27372>>ASSIGN  27375>>ASSIGN  27385>>ASSIGN
     27386>>ASSIGN  27386>>ASSIGN  27845>>ASSIGN  28083>>IF      28086>>ASSIGN  28146>>ASSIGN  28146>>ASSIGN
OUT$SYM.COUNT
     21813**DCL     21816--IMP-SIZ 24853>>ASSIGN  24945>>ASSIGN  25425>>ASSIGN  26117>>CALLBLT 26121>>CALLBLT
     26125>>CALLBLT 26268>>CALLBLT 26268>>CALLBLT 26271>>IF      26277>>ASSIGN  26281>>ASSIGN  26291>>CALLBLT
     26291>>CALLBLT 26294>>IF      26300>>ASSIGN  26372>>ASSIGN  26377>>CALLBLT 26377>>CALLBLT 26380>>IF
     26386>>ASSIGN  26885>>CALLBLT 27087>>CALLBLT 27245>>CALLBLT 27370>>ASSIGN  27371>>ASSIGN  27372>>ASSIGN
     27381>>ASSIGN  27385>>ASSIGN  27386>>ASSIGN  28146>>ASSIGN
OUT$SYM.TEXT
     21816**DCL     24853--ASSIGN  24945--ASSIGN  25425--ASSIGN  26117>>CALLBLT 26121>>CALLBLT 26125>>CALLBLT
     26268>>CALLBLT 26271>>IF      26277>>ASSIGN  26281>>ASSIGN  26291>>CALLBLT 26294>>IF      26300>>ASSIGN
     26372>>ASSIGN  26377>>CALLBLT 26380>>IF      26386>>ASSIGN  26885>>CALLBLT 27087>>CALLBLT 27245>>CALLBLT
     27370>>ASSIGN  27372>>ASSIGN  27381>>ASSIGN  27386>>ASSIGN  28146--ASSIGN
OUT$SYM.TEXTC$
     21808**DCL     24494>>ASSIGN  25863>>ASSIGN
OVER_FIL
     14727**DCL     25159<<ASSIGN  25741<<ASSIGN  26193>>IF      26245<<ASSIGN  26248<<ASSIGN  26250<<ASSIGN
PAGE_LO
     23549**DCL     24851<>CALL    24873<>CALL    24894<>CALL
PAGE_LO.V
     23550**DCL     23549--DCLINIT
PAGE_LO_HEADER
     22610**DCL     22568--DCLINIT 22589--DCLINIT
PAGE_LO_RESET
     22567**DCL     24385<>CALL
PAGE_LO_RESET.V
     22568**DCL     22567--DCLINIT
PREV_ACCT
     21666**DCL     27398<<ASSIGN
PREV_ACCT.ACCT#
     21666**DCL     25443<<ASSIGN  26210<<ASSIGN  27384>>ASSIGN
PREV_COMMAND
     21548**DCL     24437<<ASSIGN  25611>>IF      25611>>IF
PREV_TAPE_SN.SN# IN PROCEDURE FLB_SAVE_NODES
PL6.E3A0      #001=FLB$EFT File=FLB$EFT.:E05TSI                                  TUE 07/29/97 15:33 Page:624
     25589**DCL     25611>>IF      25636<<ASSIGN
PRE_RET_CLOSE.SN_
     15134**DCL     15134--REDEF
PRE_RET_CLOSE.UTL_
     15135**DCL     15135--REDEF
PRE_RET_CLOSE.V.EXPIRE#
     15149**DCL     15149--REDEF
PRE_RET_CLOSE.V.TYPE#
     15147**DCL     15147--REDEF
PRE_RET_CLOSE.V.XTNSIZE#
     15144**DCL     15144--REDEF   15146--REDEF
PRE_RET_OPEN.ACSVEH_
     15069**DCL     15070--REDEF
PRE_RET_OPEN.ALTKEYS_
     15075**DCL     15076--REDEF   15076--REDEF
PRE_RET_OPEN.HDR_
     15074**DCL     15075--REDEF
PRE_RET_OPEN.TAB_
     15073**DCL     15074--REDEF
PRE_RET_OPEN.UHL_
     15067**DCL     15068--REDEF   15068--REDEF
PRE_RET_OPEN.V.FSN#
     15107**DCL     15107--REDEF   15107--REDEF
PRE_RET_OPEN.WSN_
     15073**DCL     15073--REDEF
PRE_RET_READ.STATION_
     14924**DCL     14925--REDEF
PRE_RET_READ.V.DVBYTE.REREAD#
     14936**DCL     14936--REDEF
PRE_RET_READ.V.INDX#
     14934**DCL     14934--REDEF
PRE_RET_WRITE.STATION_
     14962**DCL     14962--REDEF
PRE_RET_WRITE.V.DVBYTE.VFC#
     14969**DCL     14969--REDEF
PRIME_FILE.L#
PL6.E3A0      #001=FLB$EFT File=FLB$EFT.:E05TSI                                  TUE 07/29/97 15:33 Page:625
     16882**DCL     16882--IMP-SIZ
PROMPT
     21712**DCL     25745--CALL
RANGE IN PROCEDURE FLB_FILE_N_ACCOUNT
     27364**DCL     27361--PROC    27378>>IF
RANGE_FOUND IN PROCEDURE FLB_ORDER_RANGE
     27427**DCL     27537<<ASSIGN  27538>>DOWHILE 27544<<ASSIGN  27601>>IF
RANGE_SPECIFIED
     21668**DCL     26211<<ASSIGN  26423<<ASSIGN  26486<<ASSIGN  27454>>IF      27469>>IF
RANGE_START IN PROCEDURE FLB_ORDER_RANGE
     27433**DCL     27547>>IF      27554>>IF      27584<<ASSIGN
RANGE_START$ IN PROCEDURE FLB_ORDER_RANGE
     27422**DCL     27433--IMP-PTR 27545<<ASSIGN  27547>>IF      27554>>IF      27584>>ASSIGN
RANGE_STOP IN PROCEDURE FLB_ORDER_RANGE
     27434**DCL     27542>>IF      27547>>IF      27556>>IF      27560>>ASSIGN  27561<<ASSIGN  27576<<ASSIGN
     27581>>IF
RANGE_STOP$ IN PROCEDURE FLB_ORDER_RANGE
     27423**DCL     27434--IMP-PTR 27539<<ASSIGN  27542>>IF      27547>>IF      27556>>IF      27560>>ASSIGN
     27561>>ASSIGN  27576>>ASSIGN  27581>>IF
READ_AD_OR_FD.ACSVEH_
     15713**DCL     15714--REDEF
READ_AD_OR_FD.ALTKEYS_
     15719**DCL     15720--REDEF   15720--REDEF
READ_AD_OR_FD.HDR_
     15718**DCL     15719--REDEF
READ_AD_OR_FD.TAB_
     15717**DCL     15718--REDEF
READ_AD_OR_FD.UHL_
     15711**DCL     15712--REDEF   15712--REDEF
READ_AD_OR_FD.V.FSN#
     15751**DCL     15751--REDEF   15751--REDEF
READ_AD_OR_FD.WSN_
     15717**DCL     15717--REDEF
READ_BACKUP_ERR IN PROCEDURE FLB_READ_BACKUP
     28217**LABEL   28121--CALLALT 28129--CALLALT 28136--CALLALT 28139--CALLALT 28147--CALLALT 28149--CALLALT
     28158--CALLALT 28167--GOTO    28168--CALLALT 28169--CALLALT 28185--CALLALT 28195--CALLALT 28198--CALLALT
PL6.E3A0      #001=FLB$EFT File=FLB$EFT.:E05TSI                                  TUE 07/29/97 15:33 Page:626
     28207--GOTO    28208--CALLALT 28209--CALLALT 28212--CALLALT
READ_BACKUP_ERR10 IN PROCEDURE FLB_READ_BACKUP
     28219**LABEL   28115--GOTO    28154--GOTO    28181--GOTO
READ_BACKUP_TEMP
     24251**DCL     25228<>CALL    25236<>CALL
READ_BACKUP_TEMP.STATION_
     24254**DCL     24255--REDEF
READ_BACKUP_TEMP.V
     24255**DCL     24251--DCLINIT
READ_BACKUP_TEMP.V.DVBYTE.REREAD#
     24266**DCL     24266--REDEF
READ_BACKUP_TEMP.V.INDX#
     24264**DCL     24264--REDEF
READ_BACKUP_TEMP.V.KEYS#
     24256**DCL     25227<<ASSIGN
READ_LOOP IN PROCEDURE FLB_READ_BACKUP
     28163**LABEL   28170--EXIT
READ_LOOP5 IN PROCEDURE FLB_READ_BACKUP
     28203**LABEL   28210--EXIT
READ_NODATA_LIST.STATION_
     17675**DCL     17676--REDEF
READ_NODATA_LIST.V.DVBYTE.REREAD#
     17687**DCL     17687--REDEF
READ_NODATA_LIST.V.INDX#
     17685**DCL     17685--REDEF
READ_PRIME_DUAL.STATION_
     17040**DCL     17041--REDEF
READ_PRIME_DUAL.V.DVBYTE.REREAD#
     17052**DCL     17052--REDEF
READ_PRIME_DUAL.V.INDX#
     17050**DCL     17050--REDEF
READ_REBUILD
     17343**DCL     25182<>CALL
READ_REBUILD.KEY_
     17343**DCL     25181<<ASSIGN  25218<<ASSIGN
READ_REBUILD.STATION_
PL6.E3A0      #001=FLB$EFT File=FLB$EFT.:E05TSI                                  TUE 07/29/97 15:33 Page:627
     17346**DCL     17347--REDEF
READ_REBUILD.V.DVBYTE.REREAD#
     17358**DCL     17358--REDEF
READ_REBUILD.V.INDX#
     17356**DCL     17356--REDEF
READ_STATUS
     16558**DCL     28164<>CALL    28204<>CALL
READ_STATUS.STATION_
     16561**DCL     16562--REDEF
READ_STATUS.V.DVBYTE.REREAD#
     16573**DCL     16573--REDEF
READ_STATUS.V.INDX#
     16571**DCL     16571--REDEF
READ_STATUS.V.KEYS#
     16563**DCL     28160<<ASSIGN  28200<<ASSIGN
READ_TSN_USED.STATION_
     16271**DCL     16272--REDEF
READ_TSN_USED.V.DVBYTE.REREAD#
     16283**DCL     16283--REDEF
READ_TSN_USED.V.INDX#
     16281**DCL     16281--REDEF
REBUILD_BUF.DEN
     17462**DCL     25190>>ASSIGN
REBUILD_BUF.DIR
     17462**DCL     25193>>ASSIGN
REBUILD_BUF.FSN
     17462**DCL     25188>>ASSIGN  25189>>ASSIGN
REBUILD_BUF.IOERRORC
     17462**DCL     25191>>ASSIGN  25194>>ASSIGN
REBUILD_BUF.PAD
     17462**DCL     25192>>ASSIGN
REBUILD_BUF.START.ACCT.ACCT#
     17461**DCL     25184>>ASSIGN
REBUILD_BUF.START.FILE.L#
     17461**DCL     25185>>ASSIGN
REBUILD_BUF.START.FILE.NAME#
PL6.E3A0      #001=FLB$EFT File=FLB$EFT.:E05TSI                                  TUE 07/29/97 15:33 Page:628
     17461**DCL     25186>>ASSIGN
REBUILD_BUF.VOLUME
     17462**DCL     25187>>ASSIGN
REBUILD_DIR_KEY
     17432**DCL     25218--ASSIGN
REBUILD_DIR_KEY.L#
     17432**DCL     17432--IMP-SIZ 25218>>ASSIGN
REBUILD_ERR IN PROCEDURE FLB_TAPE_NODES
     25320**LABEL   25182--CALLALT 25205--CALLALT 25206--CALLALT 25209--GOTO    25213--CALLALT 25215--CALLALT
     25226--CALLALT 25228--CALLALT 25236--CALLALT 25295--CALLALT 25310--CALLALT 25315--CALLALT
REBUILD_ERR10 IN PROCEDURE FLB_TAPE_NODES
     25322**LABEL   25167--CALLALT
REBUILD_KEY
     17459**DCL     25181--ASSIGN
REBUILD_KEY.L#
     17459**DCL     17459--IMP-SIZ 25181>>ASSIGN
REBUILD_NAME.L#
     17280**DCL     17280--IMP-SIZ
REBUILD_SN.SN#
     17293**DCL     25205<>CALL    26304<<ASSIGN
RESTORE_FROM_TAPE
     21539**DCL     25710<<ASSIGN  25999<<ASSIGN  26003<<ASSIGN  26097<<ASSIGN
RET_CMDS_FNAME
     23603**DCL     23675--DCLINIT
RET_CMDS_NAME.L#
     15178**DCL     15178--IMP-SIZ
RET_CMDS_OPEN
     23674**DCL     25372<>CALL
RET_CMDS_OPEN.ACSVEH_
     23676**DCL     23677--REDEF
RET_CMDS_OPEN.ALTKEYS_
     23682**DCL     23683--REDEF   23683--REDEF
RET_CMDS_OPEN.HDR_
     23681**DCL     23682--REDEF
RET_CMDS_OPEN.TAB_
     23680**DCL     23681--REDEF
PL6.E3A0      #001=FLB$EFT File=FLB$EFT.:E05TSI                                  TUE 07/29/97 15:33 Page:629
RET_CMDS_OPEN.UHL_
     23674**DCL     23675--REDEF   23675--REDEF
RET_CMDS_OPEN.V
     23683**DCL     23674--DCLINIT
RET_CMDS_OPEN.V.FSN#
     23714**DCL     23714--REDEF   23714--REDEF
RET_CMDS_OPEN.WSN_
     23680**DCL     23680--REDEF
SAVE_TAPE_OPEN.ACSVEH_
     23917**DCL     23918--REDEF
SAVE_TAPE_OPEN.ALTKEYS_
     23923**DCL     23924--REDEF   23924--REDEF
SAVE_TAPE_OPEN.HDR_
     23922**DCL     23923--REDEF
SAVE_TAPE_OPEN.TAB_
     23921**DCL     23922--REDEF
SAVE_TAPE_OPEN.UHL_
     23915**DCL     23916--REDEF   23916--REDEF
SAVE_TAPE_OPEN.V
     23924**DCL     23915--DCLINIT 25828<<ASSIGN  25847>>ASSIGN
SAVE_TAPE_OPEN.V.FSN#
     23955**DCL     23955--REDEF   23955--REDEF
SAVE_TAPE_OPEN.WSN_
     23921**DCL     23921--REDEF
SKIP_SPECIFIED
     21669**DCL     26212<<ASSIGN  26430<<ASSIGN  27454>>IF      27526>>IF
SKIP_START IN PROCEDURE FLB_ORDER_RANGE
     27435**DCL     27542>>IF      27547>>IF      27554>>IF      27558<>CALL    27561>>ASSIGN  27562<<ASSIGN
     27575<>CALL    27576>>ASSIGN
SKIP_START$ IN PROCEDURE FLB_ORDER_RANGE
     27424**DCL     27435--IMP-PTR 27540<<ASSIGN  27542>>IF      27547>>IF      27554>>IF      27558>>CALL
     27561>>ASSIGN  27562>>ASSIGN  27575>>CALL    27576>>ASSIGN
SKIP_STOP IN PROCEDURE FLB_ORDER_RANGE
     27436**DCL     27547>>IF      27556>>IF      27559<>CALL    27562>>ASSIGN  27563<<ASSIGN  27581>>IF
     27583<>CALL    27584>>ASSIGN
SKIP_STOP$ IN PROCEDURE FLB_ORDER_RANGE
PL6.E3A0      #001=FLB$EFT File=FLB$EFT.:E05TSI                                  TUE 07/29/97 15:33 Page:630
     27425**DCL     27436--IMP-PTR 27546<<ASSIGN  27547>>IF      27556>>IF      27559>>CALL    27562>>ASSIGN
     27563>>ASSIGN  27581>>IF      27583>>CALL    27584>>ASSIGN
SNLIST.NUM# IN PROCEDURE FLB_BUILD_SNLIST
     27959**DCL     27967<<ASSIGN  27973>>DOINDEX 27982>>DOINDEX
SNLIST.SN# IN PROCEDURE FLB_BUILD_SNLIST
     27959**DCL     27975<<ASSIGN  27984<<ASSIGN
SNLIST$ IN PROCEDURE FLB_BUILD_SNLIST
     27932**DCL     27959--IMP-PTR 27966<>CALL    27967>>ASSIGN  27973>>DOINDEX 27975>>ASSIGN  27982>>DOINDEX
     27984>>ASSIGN  27990>>ASSIGN
SNLISTINFO
     21835**DCL     27989--CALL
SNLISTINFO.PREVINFO$
     21835**DCL     27991<<ASSIGN
SNLISTINFO.SNLIST$
     21835**DCL     25051>>ASSIGN  25246>>IF      25277>>ASSIGN  25611>>IF      25636>>ASSIGN  25714>>ASSIGN
     26068>>ASSIGN  27990<<ASSIGN
SNLISTINFO$ IN PROCEDURE FLB_BUILD_SNLIST
     27933**DCL     27989<>CALL    27990>>ASSIGN  27991>>ASSIGN  27992>>ASSIGN
SNLIST_NBR
     16078**DCL     24454<<ASSIGN
SNSIZE IN PROCEDURE FLB_BUILD_SNLIST
     27931**DCL     27964<<ASSIGN  27966<>CALL
SNVECLIST$
     14710**DCL     14710--IMP-PTR
SOURCE_DCB$ IN PROCEDURE FLB_READ_BACKUP
     28007**DCL     28097<>CALL    28112>>IF
SOURCE_TAPE_SNLIST$
     21645**DCL     25051<<ASSIGN  25052>>ASSIGN  25053>>ASSIGN  25132<>CALL    25136<>CALL    25246>>IF
     25264>>IF      25277<<ASSIGN  25278>>ASSIGN  25279>>ASSIGN  25714<<ASSIGN  25715>>ASSIGN  25716>>ASSIGN
     26034<<ASSIGN  26068<<ASSIGN  26069>>ASSIGN  26070>>ASSIGN
SPEC.START
     14774**DCL     14775--REDEF
SPEC.STOP
     14775**DCL     14776--REDEF
SPEC IN PROCEDURE FLB_NEXT_SPEC
     27626**DCL     27621--PROC
PL6.E3A0      #001=FLB$EFT File=FLB$EFT.:E05TSI                                  TUE 07/29/97 15:33 Page:631
SPEC.ACCT# IN PROCEDURE FLB_NEXT_SPEC
     27627**DCL     27628--REDEF   27648--ASSIGN  27653<>CALL    27653--CALL
SPEC.ACCTB IN PROCEDURE FLB_NEXT_SPEC
     27628**DCL     27649>>DOWHILE
SPEC.FILE IN PROCEDURE FLB_NEXT_SPEC
     27629**DCL     27642<>CALL
SPEC.FILE.L# IN PROCEDURE FLB_NEXT_SPEC
     27631**DCL     27641>>ASSIGN  27644<<ASSIGN  27647<<ASSIGN
SPEC.FILE.NAME# IN PROCEDURE FLB_NEXT_SPEC
     27630**DCL     27642--CALL
SPEC IN PROCEDURE FLB_PREV_SPEC
     27668**DCL     27663--PROC
SPEC.ACCT# IN PROCEDURE FLB_PREV_SPEC
     27669**DCL     27670--REDEF   27690--ASSIGN  27695<>CALL    27695--CALL
SPEC.ACCTB IN PROCEDURE FLB_PREV_SPEC
     27670**DCL     27691>>DOWHILE
SPEC.FILE IN PROCEDURE FLB_PREV_SPEC
     27671**DCL     27684<>CALL
SPEC.FILE.L# IN PROCEDURE FLB_PREV_SPEC
     27673**DCL     27683>>ASSIGN  27686<<ASSIGN  27689<<ASSIGN
SPEC.FILE.NAME# IN PROCEDURE FLB_PREV_SPEC
     27672**DCL     27684--CALL
SPECCHARS
     14774**DCL     14774--REDEF   27566<<ASSIGN  27570>>ASSIGN  27808<<ASSIGN  27810>>ASSIGN
SRCH_BIT
     21698**DCL     24460<<ASSIGN  26984<<ASSIGN  26984>>ASSIGN  26989<<ASSIGN  26989>>ASSIGN  26995<<ASSIGN
     26995>>ASSIGN  26996<<ASSIGN  26996>>ASSIGN
SRCH_BIT.ARCHIVE
     21701**DCL     27004>>IF
SRCH_BIT.DELF
     21699**DCL     27002>>IF
SRCH_BIT.QS
     21700**DCL     27003>>IF
STAF
     14897**DCL     24684<<ASSIGN  24690<<ASSIGN
START_ACCT
PL6.E3A0      #001=FLB$EFT File=FLB$EFT.:E05TSI                                  TUE 07/29/97 15:33 Page:632
     22381**DCL     26457<<ASSIGN  26464>>ASSIGN  27267>>ASSIGN  27309<<ASSIGN  27315<<ASSIGN  27323<<ASSIGN
     27330<<ASSIGN  27342<<ASSIGN  27353>>IF      27353>>IF      27471<<ASSIGN
START_ACCT.ACCT#
     22381**DCL     25781>>IF      26458>>ASSIGN  26461<<ASSIGN
START_FILE
     22365**DCL     26478>>ASSIGN  27268>>ASSIGN  27310<<ASSIGN  27316<<ASSIGN  27324<<ASSIGN  27331<<ASSIGN
     27343<<ASSIGN  27350>>IF      27351<<ASSIGN  27353>>IF      27472<<ASSIGN
START_FILE.L#
     22367**DCL     26477<<ASSIGN
START_FILE.NAME#
     22366**DCL     26476<<ASSIGN
START_UTS
     14755**DCL     25910<<ASSIGN
STATE
     21685**DCL     25700<<ASSIGN  25702<<ASSIGN  25709<<ASSIGN  25812<>CALL
STATUS_KEY
     16079**DCL     24251--DCLINIT 24252--DCLINIT 24294--DCLINIT 28174--IF
STATUS_KEY.L
     16079**DCL     28174>>IF
STATUS_KEY.RUN_NBR
     16080**DCL     28174>>IF
STATUS_KEY.TSN_SET_NBR
     16080**DCL     28174>>IF
STATUS_KEY.TSN_VOL
     16080**DCL     27964>>ASSIGN  27967>>ASSIGN  28174>>IF
STOP_ACCT
     22400**DCL     26464<<ASSIGN  27269>>ASSIGN  27311<<ASSIGN  27318<<ASSIGN  27325<<ASSIGN  27332<<ASSIGN
     27345<<ASSIGN  27353>>IF      27353>>IF      27473<<ASSIGN
STOP_ACCT.ACCT#
     22400**DCL     25781>>IF
STOP_FILE
     22384**DCL     26478<<ASSIGN  27270>>ASSIGN  27312<<ASSIGN  27319<<ASSIGN  27326<<ASSIGN  27337<<ASSIGN
     27338<<ASSIGN  27346<<ASSIGN  27353>>IF      27474<<ASSIGN
SUBNODE$
     21646**DCL     24832<<ASSIGN  24833>>DOCASE  24853>>ASSIGN  24853>>ASSIGN  25087<<ASSIGN  25088>>DOCASE
     25090>>DOINDEX 25091>>ASSIGN  25424<<ASSIGN  25425>>ASSIGN  25425>>ASSIGN  25876<<ASSIGN  25878>>DOCASE
PL6.E3A0      #001=FLB$EFT File=FLB$EFT.:E05TSI                                  TUE 07/29/97 15:33 Page:633
     25961<<ASSIGN  25962>>DOCASE  25964>>ASSIGN  25966>>ASSIGN  26036<<ASSIGN  26038>>DOCASE  26045>>IF
     26047>>ASSIGN  26077>>IF      26079>>CALL    26084<>CALL    26161<<ASSIGN  26163>>DOCASE  26166>>ASSIGN
     26236<<ASSIGN  26238>>DOCASE  26241>>DOCASE  26259>>DOINDEX 26260>>ASSIGN  26287>>ASSIGN  26352<<ASSIGN
     26354>>DOCASE  26357>>ASSIGN  26370>>ASSIGN  26415>>DOINDEX 26416>>ASSIGN  26719>>DOINDEX 26720>>ASSIGN
     27845<<ASSIGN  27847>>DOCASE  27850<>CALL    28086<<ASSIGN  28087>>DOCASE  28146>>ASSIGN  28146>>ASSIGN
SUBNODE$ IN PROCEDURE FLB_REBUILD_OPTION_LIST
     26104**DCL     26102--PROC    26108>>DOINDEX 26109>>ASSIGN
SUBNODEX
     21647**DCL     24831<<DOINDEX 24832>>ASSIGN  25086<<DOINDEX 25087>>ASSIGN  25875<<DOINDEX 25876>>ASSIGN
     25960<<DOINDEX 25961>>ASSIGN  26035<<DOINDEX 26036>>ASSIGN  26160<<DOINDEX 26161>>ASSIGN  26235<<DOINDEX
     26236>>ASSIGN  26287>>ASSIGN  26351<<DOINDEX 26352>>ASSIGN  27844<<DOINDEX 27845>>ASSIGN
SUBNODEX IN PROCEDURE FLB_REBUILD_OPTION_LIST
     26106**DCL     26108<<DOINDEX 26109>>ASSIGN
SUBNODEY IN PROCEDURE FLB_DISK_SPEC
     26342**DCL     26337--PROC    26351>>DOINDEX
SUBNODEY IN PROCEDURE FLB_STOW_FETCH_NODES
     25415**DCL     25420<<ASSIGN  25422<<DOINDEX 25424>>ASSIGN  25430<>CALL
SUBSUBNODE$
     21648**DCL     25091<<ASSIGN  25092>>DOCASE  26166<<ASSIGN  26168>>DOCASE  26172>>DOINDEX 26173>>ASSIGN
     26260<<ASSIGN  26262>>DOCASE  26265>>DOINDEX 26266>>IF      26268>>CALLBLT 26268>>CALLBLT 26268>>CALLBLT
     26271>>IF      26271>>IF      26277>>ASSIGN  26277>>ASSIGN  26281>>ASSIGN  26281>>ASSIGN  26283>>ASSIGN
     26287<<ASSIGN  26288>>DOINDEX 26289>>IF      26291>>CALLBLT 26291>>CALLBLT 26291>>CALLBLT 26294>>IF
     26294>>IF      26300>>ASSIGN  26300>>ASSIGN  26370<<ASSIGN  26371>>IF      26372>>ASSIGN  26372>>ASSIGN
     26374>>DOINDEX 26375>>IF      26377>>CALLBLT 26377>>CALLBLT 26377>>CALLBLT 26380>>IF      26380>>IF
     26386>>ASSIGN  26386>>ASSIGN  26416<<ASSIGN  26418>>DOCASE  26421<>CALL    26426>>DOINDEX 26427>>CALL
     26720<<ASSIGN  26721>>DOCASE  26725>>ASSIGN  26789>>IF      26859>>DOINDEX 26860>>DOCASE  26876>>ASSIGN
     26885>>CALLBLT 26885>>CALLBLT 26889>>ASSIGN  27072>>DOINDEX 27073>>ASSIGN
SUBSUBNODE$ IN PROCEDURE FLB_REBUILD_OPTION_LIST
     26105**DCL     26109<<ASSIGN  26111>>DOCASE  26113>>ASSIGN  26117>>CALLBLT 26117>>CALLBLT 26121>>CALLBLT
     26121>>CALLBLT 26123>>IF      26125>>CALLBLT 26125>>CALLBLT
SUBSUBNODEX
     21649**DCL     25090<<DOINDEX 25091>>ASSIGN  26172<<DOINDEX 26173>>ASSIGN  26259<<DOINDEX 26260>>ASSIGN
     26265<<DOINDEX 26266>>IF      26268>>CALLBLT 26268>>CALLBLT 26268>>CALLBLT 26271>>IF      26271>>IF
     26277>>ASSIGN  26277>>ASSIGN  26288<<DOINDEX 26289>>IF      26291>>CALLBLT 26291>>CALLBLT 26291>>CALLBLT
     26294>>IF      26294>>IF      26300>>ASSIGN  26300>>ASSIGN  26374<<DOINDEX 26375>>IF      26377>>CALLBLT
     26377>>CALLBLT 26377>>CALLBLT 26380>>IF      26380>>IF      26386>>ASSIGN  26386>>ASSIGN  26415<<DOINDEX
PL6.E3A0      #001=FLB$EFT File=FLB$EFT.:E05TSI                                  TUE 07/29/97 15:33 Page:634
     26416>>ASSIGN  26719<<DOINDEX 26720>>ASSIGN
SUBSUBSUBNODEX
     21650**DCL     26859<<DOINDEX 26860>>DOCASE
SUB_COMMAND
     21688**DCL     25752<<ASSIGN  25753>>DOCASE
SWITCH_FMEFT.V
     22821**DCL     22821--DCLINIT
SWITCH_FMSEC
     22804**DCL     24381<>CALL    24431<>CALL    24510<>CALL    24517<>CALL    24523<>CALL    24529<>CALL
     24535<>CALL    24541<>CALL    24547<>CALL    24553<>CALL    24559<>CALL    24566<>CALL    24573<>CALL
     24580<>CALL    24587<>CALL    24594<>CALL    24600<>CALL    24606<>CALL    24612<>CALL    24618<>CALL
     24623<>CALL    24629<>CALL    24635<>CALL    24640<>CALL    24645<>CALL    24651<>CALL    24657<>CALL
     24663<>CALL    24669<>CALL    24676<>CALL    24683<>CALL    24689<>CALL    24695<>CALL    24868<>CALL
     24871<>CALL    24888<>CALL    24949<>CALL    24952<>CALL    24958<>CALL
SWITCH_FMSEC.V
     22804**DCL     22804--DCLINIT
TAPE_BLOCK_.W2
     15999**DCL     16000--REDEF
TAPE_CLOSE
     14627**DCL     28139<>CALL    28220<>CALL
TAPE_CLOSE.SN_
     14627**DCL     14627--REDEF
TAPE_CLOSE.UTL_
     14628**DCL     14628--REDEF
TAPE_CLOSE.V.EXPIRE#
     14642**DCL     14642--REDEF
TAPE_CLOSE.V.TYPE#
     14640**DCL     14640--REDEF
TAPE_CLOSE.V.XTNSIZE#
     14637**DCL     14637--REDEF   14639--REDEF
TAPE_DCBLIST.DCB$
     14183**DCL     25829>>IF      25830>>ASSIGN  25886>>ASSIGN
TAPE_DCBLIST$
     14183**DCL     14183--IMP-PTR 25829>>IF      25830>>ASSIGN  25881>>IF      25886>>ASSIGN
TAPE_DENSITY IN PROCEDURE FLB_TAPE_NODES
     24977**DCL     25219<<ASSIGN  25255<>CALL    25268<>CALL    25273<>CALL
PL6.E3A0      #001=FLB$EFT File=FLB$EFT.:E05TSI                                  TUE 07/29/97 15:33 Page:635
TAPE_FSN IN PROCEDURE FLB_TAPE_NODES
     24976**DCL     25168<<ASSIGN  25189<<ASSIGN  25254<<ASSIGN  25255<>CALL    25267<<ASSIGN  25268<>CALL
     25272<<ASSIGN  25273<>CALL
TAPE_IOERROK IN PROCEDURE FLB_TAPE_NODES
     24978**DCL     25220<<ASSIGN  25255<>CALL    25268<>CALL    25273<>CALL
TAPE_OPEN
     14490**DCL     25146<>CALL
TAPE_OPEN.ACSVEH_
     14492**DCL     14493--REDEF
TAPE_OPEN.ALTKEYS_
     14498**DCL     14499--REDEF   14499--REDEF
TAPE_OPEN.FPARAM_
     14495**DCL     27907<<ASSIGN
TAPE_OPEN.HDR_
     14497**DCL     14498--REDEF
TAPE_OPEN.IFPARAM_
     14495**DCL     27906<<ASSIGN
TAPE_OPEN.NAME_
     14491**DCL     27904<<ASSIGN
TAPE_OPEN.SN_
     14490**DCL     25055<<ASSIGN  25079<<ASSIGN  25281<<ASSIGN  25718<<ASSIGN  25836<<ASSIGN  26072<<ASSIGN
TAPE_OPEN.TAB_
     14496**DCL     14497--REDEF
TAPE_OPEN.UHL_
     14490**DCL     14491--REDEF   14491--REDEF
TAPE_OPEN.V
     14499**DCL     25828>>ASSIGN  25847<<ASSIGN
TAPE_OPEN.V.BLKL#
     14516**DCL     27909<<ASSIGN
TAPE_OPEN.V.CVOL#
     14504**DCL     27913<<ASSIGN
TAPE_OPEN.V.DCB#
     14499**DCL     25141<<ASSIGN
TAPE_OPEN.V.DENSITY#
     14531**DCL     25190<<ASSIGN  25219>>ASSIGN  26113<<ASSIGN  27889<<ASSIGN  27890<<ASSIGN
TAPE_OPEN.V.EXPIRE#
PL6.E3A0      #001=FLB$EFT File=FLB$EFT.:E05TSI                                  TUE 07/29/97 15:33 Page:636
     14519**DCL     27891<<ASSIGN
TAPE_OPEN.V.FSN#
     14530**DCL     14530--REDEF   14530--REDEF   25188<<ASSIGN  26122<<ASSIGN  26126>>IF      27895<<ASSIGN
     27896<<ASSIGN
TAPE_OPEN.V.FUN#
     14509**DCL     27912<<ASSIGN
TAPE_OPEN.V.INITZ.SCRUB#
     14500**DCL     25155<<ASSIGN  27905<<ASSIGN
TAPE_OPEN.V.IOERROK#
     14521**DCL     25095<<ASSIGN  25098<<ASSIGN  25191<<ASSIGN  25220>>ASSIGN  26140<<ASSIGN  26144<<ASSIGN
     26894<<ASSIGN  26899<<ASSIGN  27902<<ASSIGN  27903<<ASSIGN  28104>>IF      28104>>IF
TAPE_OPEN.V.OPER.MNTONLY#
     14503**DCL     25140<<ASSIGN  27887<<ASSIGN
TAPE_OPEN.V.RES#
     14514**DCL     27897<<ASSIGN
TAPE_OPEN.V.VOL#
     14524**DCL     25187<<ASSIGN  25848<<ASSIGN  26118<<ASSIGN  27908<<ASSIGN
TAPE_OPEN.V.VOLACCESS#
     14528**DCL     27893<<ASSIGN
TAPE_OPEN.V.XTEND#
     14520**DCL     25602>>IF      25613<<ASSIGN  25707<<ASSIGN  27892<<ASSIGN
TAPE_OPEN.WSN_
     14496**DCL     14496--REDEF
TAPE_OPTION
     14894**DCL     24452<<ASSIGN
TAPE_OPTION.CHECK
     14894**DCL     25728>>ASSIGN  25729<<ASSIGN  25840<<ASSIGN  25849<<ASSIGN  26845<<ASSIGN  26849<<ASSIGN
TAPE_OPTION.CHECK_SPECD
     14894**DCL     26844<<ASSIGN  26848<<ASSIGN
TAPE_OPTION.DENSITY
     14894**DCL     26114<<ASSIGN
TAPE_OPTION.IOERRORC
     14895**DCL     25094<<ASSIGN  25097<<ASSIGN  25194<<ASSIGN  26139<<ASSIGN  26143<<ASSIGN  26892<<ASSIGN
     26897<<ASSIGN
TAPE_OPTION.IOERRORC_SPECD
     14895**DCL     26893<<ASSIGN  26898<<ASSIGN
PL6.E3A0      #001=FLB$EFT File=FLB$EFT.:E05TSI                                  TUE 07/29/97 15:33 Page:637
TAPE_OPTION.NPAD
     14895**DCL     26136<<ASSIGN  26600>>IF
TAPE_OPTION.OPEN_FUNCTION
     14895**DCL     25711<<ASSIGN
TAPE_OPTION.PROTTYPE
     14894**DCL     25160<<ASSIGN  25522<<ASSIGN  25766>>IF      26176<<ASSIGN  26256<<ASSIGN  26283<<ASSIGN
     26594>>IF      26596<<ASSIGN  26889<<ASSIGN
TAPE_READ.STATION_
     14554**DCL     14555--REDEF
TAPE_READ.V.DVBYTE.REREAD#
     14566**DCL     14566--REDEF
TAPE_READ.V.INDX#
     14564**DCL     14564--REDEF
TAPE_REWIND
     14657**DCL     28141<>CALL
TAPE_REWIND.V.PSN#
     14658**DCL     28140<<ASSIGN
TAPE_WRITE.STATION_
     14592**DCL     14592--REDEF
TAPE_WRITE.V.DVBYTE.VFC#
     14599**DCL     14599--REDEF
TELL_ERROR
     24707**LABEL   24442--CALLALT 24444--CALLALT
TELL_ERROR IN PROCEDURE FLB_OPEN_NODES
     25921**LABEL   25745--CALLALT
TEMP
     21651**DCL     24441<<ASSIGN  24442<>CALL    26117<<CALLBLT 26118>>ASSIGN  26121<<CALLBLT 26122>>ASSIGN
     26124>>ASSIGN  26307<<ASSIGN  26308<<ASSIGN  26308>>ASSIGN  26309<>CALL    26313<<ASSIGN  26314<<ASSIGN
     26314>>ASSIGN  26315<>CALL    26358<<ASSIGN  26359<<ASSIGN  26359>>ASSIGN  26360<>CALL    26362<<ASSIGN
     26363<<ASSIGN  26363>>ASSIGN  26364<>CALL    26407<<ASSIGN  26411<>CALL    26441<<ASSIGN  26442<<ASSIGN
     26442>>ASSIGN  26443<>CALL    26447<<ASSIGN  26448<<ASSIGN  26448>>ASSIGN  26449<>CALL    26466<<ASSIGN
     26470<>CALL    26725<<ASSIGN  26727>>ASSIGN  26731>>IF      27087<<CALLBLT 27088>>CALL    27245<<CALLBLT
     27246>>CALLBLT 27262<<ASSIGN  27263<>CALL    27263<>CALL    27456<<ASSIGN  27460<>CALL
TEMP$
     21652**DCL     26173<<ASSIGN  26174>>DOCASE  26176>>ASSIGN  27375<<ASSIGN  27376>>IF      27381>>ASSIGN
     27381>>ASSIGN  27385>>ASSIGN  27386>>ASSIGN  27386>>ASSIGN
PL6.E3A0      #001=FLB$EFT File=FLB$EFT.:E05TSI                                  TUE 07/29/97 15:33 Page:638
TEMP$ IN PROCEDURE FLB_REBUILD_NODES
     26029**DCL     26047<<ASSIGN  26048>>DOINDEX 26049>>IF
TEMP_DISK_SRCHCOND
     14777**DCL     25534<<ASSIGN  25545>>ASSIGN  25808<<ASSIGN
TEMP_DISK_SRCHCOND.ANYF#
     14779**DCL     25838>>IF
TEMP_SPEC IN PROCEDURE FLB_ORDER_RANGE
     27426**DCL     27560<<ASSIGN  27563>>ASSIGN
TEST_GREETINGS
     21573**DCL     22778--DCLINIT 22779--DCLINIT
TEST_MODE
     15208**DCL     24399<<ASSIGN  24405<<ASSIGN
TIMENODE$ IN PROCEDURE FLB_DATE_SPEC
     27022**DCL     27101<<ASSIGN  27102>>DOINDEX 27103>>ASSIGN
TIMEX IN PROCEDURE FLB_DATE_SPEC
     27024**DCL     27102<<DOINDEX 27103>>ASSIGN  27104>>DOCASE
TIME_SPECIFIED IN PROCEDURE FLB_DATE_SPEC
     27023**DCL     27066<<ASSIGN  27086<<ASSIGN  27100<<ASSIGN  27137>>IF
TOTAL_ERRORS
     14896**DCL     25551>>IF      25551>>IF      26886<<ASSIGN
TOTAL_FILES
     14896**DCL     24450<<ASSIGN  25755<<ASSIGN  25816>>ASSIGN  25903>>IF      25908<<ASSIGN
TOTAL_GRANS
     14896**DCL     24451<<ASSIGN  25756<<ASSIGN  25817>>ASSIGN  25909<<ASSIGN
TRANS_NBR
     14895**DCL     24449<<ASSIGN  25757<<ASSIGN  25757>>ASSIGN
TSN_SET_NBR
     16077**DCL     24453<<ASSIGN  25751<<ASSIGN
TSN_USED_BUF
     16080**DCL     24253--DCLINIT 24254--DCLINIT 24295--DCLINIT 24296--DCLINIT
TSN_USED_BUF.BACKUP_FSN
     16081**DCL     25237>>IF      25238>>ASSIGN
TSN_USED_BUF.FSN
     16081**DCL     25239>>ASSIGN
TSN_USED_BUF.TSN
     16081**DCL     27968>>CALLBLT 27971>>ASSIGN  27980>>ASSIGN
PL6.E3A0      #001=FLB$EFT File=FLB$EFT.:E05TSI                                  TUE 07/29/97 15:33 Page:639
TSN_USED_BUF.UTS
     16081**DCL     25229>>ASSIGN
TSN_USED_NAME.L#
     16218**DCL     16218--IMP-SIZ
TVECTOR
     14722**DCL     25052<<ASSIGN  25055>>ASSIGN  25278<<ASSIGN  25281>>ASSIGN  25715<<ASSIGN  25718>>ASSIGN
     26069<<ASSIGN  26072>>ASSIGN
TVECTOR.W1.VSIZE#
     14722**DCL     25053<<ASSIGN  25279<<ASSIGN  25716<<ASSIGN  26070<<ASSIGN
TVECTOR.W2
     14723**DCL     14724--REDEF
T_DENSITY IN PROCEDURE FLB_SET_TAPE_DEFAULTS
     27873**DCL     27869--PROC    27888--IF      27890>>ASSIGN
T_FSN IN PROCEDURE FLB_SET_TAPE_DEFAULTS
     27874**DCL     27869--PROC    27894--IF      27896>>ASSIGN
T_IOERROK IN PROCEDURE FLB_SET_TAPE_DEFAULTS
     27876**DCL     27869--PROC    27901--IF      27903>>ASSIGN
USE_ANSDATE IN PROCEDURE FLB_DATE_SPEC
     27030**DCL     27068<<ASSIGN  27091<<ASSIGN  27171>>IF
VLP_ERRCODE
     22312**DCL     26504<<ASSIGN  26506<<ASSIGN  26508<<ASSIGN  26510<<ASSIGN  26512<<ASSIGN  26514<>CALL
     27189<<ASSIGN  27191<<ASSIGN  27193<<ASSIGN  27195<<ASSIGN  27197<<ASSIGN  27199<>CALL    27211<<ASSIGN
     27213<<ASSIGN  27215<<ASSIGN  27217<<ASSIGN  27219<<ASSIGN  27221<>CALL
VLP_SN
     21832**DCL     25052--ASSIGN  25278--ASSIGN  25715--ASSIGN  26069--ASSIGN
VLP_SN.NUM#
     21832**DCL     25053>>ASSIGN  25053--ASSIGN  25279>>ASSIGN  25279--ASSIGN  25716>>ASSIGN  25716--ASSIGN
     26070>>ASSIGN  26070--ASSIGN  27964--ASSIGN
VLP_SN.SN#
     21832**DCL     25053--ASSIGN  25246>>IF      25279--ASSIGN  25611>>IF      25636>>ASSIGN  25716--ASSIGN
     26070--ASSIGN  27964--ASSIGN
WHAT_DATE IN PROCEDURE FLB_DATE_SPEC
     27028**DCL     27064<<ASSIGN  27080<<ASSIGN  27181>>ASSIGN  27184>>CALL    27185>>IF      27187>>DOCASE
     27202>>ASSIGN  27206>>CALL    27207>>IF      27209>>DOCASE  27224>>ASSIGN  27229>>DOCASE
WRITE_BACKUP_TEMP
     24294**DCL     28185<>CALL    28212<>CALL
PL6.E3A0      #001=FLB$EFT File=FLB$EFT.:E05TSI                                  TUE 07/29/97 15:33 Page:640
WRITE_BACKUP_TEMP.STATION_
     24296**DCL     24296--REDEF
WRITE_BACKUP_TEMP.V
     24297**DCL     24294--DCLINIT
WRITE_BACKUP_TEMP.V.DVBYTE.VFC#
     24303**DCL     24303--REDEF
WRITE_NODATA_LIST.STATION_
     17713**DCL     17713--REDEF
WRITE_NODATA_LIST.V.DVBYTE.VFC#
     17720**DCL     17720--REDEF
WRITE_PRIME_DUAL.STATION_
     17078**DCL     17078--REDEF
WRITE_PRIME_DUAL.V.DVBYTE.VFC#
     17085**DCL     17085--REDEF
WRITE_REBUILD.STATION_
     17314**DCL     17314--REDEF
WRITE_REBUILD.V.DVBYTE.VFC#
     17321**DCL     17321--REDEF
WRITE_STATUS.STATION_
     16529**DCL     16529--REDEF
WRITE_STATUS.V.DVBYTE.VFC#
     16536**DCL     16536--REDEF
WRITE_TSN_USED.STATION_
     16239**DCL     16239--REDEF
WRITE_TSN_USED.V.DVBYTE.VFC#
     16246**DCL     16246--REDEF
XTX$ADAPT
     22153**DCL-ENT 22232--DCLINIT
XUD$UTS_ADJUST
     21499**DCL-ENT 27088--CALL    27184--CALL    27206--CALL
XUH_PARAM
     22257**DCL     24495<>CALL    24499<>CALL    24503<>CALL    25864<>CALL    25868<>CALL    25872<>CALL
XUH_PARAM.HELP$
     22267**DCL     24494<<ASSIGN  25863<<ASSIGN
XUR$ALLMSG
     18242**DCL-ENT 24503--CALL    25872--CALL
PL6.E3A0      #001=FLB$EFT File=FLB$EFT.:E05TSI                                  TUE 07/29/97 15:33 Page:641
XUR$ECHOIF
     18225**DCL-ENT 24445--CALL    24715--CALL    25746--CALL    25924--CALL
XUR$ERRMSG
     18231**DCL-ENT 24726--CALL    24731--CALL    25933--CALL    25938--CALL
XUR$ERRPTR
     18224**DCL-ENT 24721--CALL    25928--CALL
XUR$GETCMD
     18223**DCL-ENT 24442--CALL    24444--CALL    25745--CALL
XUR$HELP
     18240**DCL-ENT 24495--CALL    25864--CALL
XUR$INIT
     18228**DCL-ENT 24362--CALL
XUR$MOREMSG
     18241**DCL-ENT 24499--CALL    25868--CALL
XUR$SETDCBS
     18227**DCL-ENT 24748--CALL    24953--CALL    24961--CALL    25378--CALL    25942--CALL
XUR$SETERRMSG
     18233**DCL-ENT 24363--CALL
XUR_INIT
     22158**DCL     24362<>CALL
XUR_INIT.WORKR_
     22172**DCL     22173--REDEF
ZERO
     14726**DCL     25441--ASSIGN  26201--ASSIGN  26202--ASSIGN  26541--IF

