VERSION E05

PL6.E3A0      #001=FLC$CRIT_CHECK File=FLC$CRIT_CHECK.:E05TSI                    TUE 07/29/97 15:38 Page:1
        1        1        /*M* FLC$CRIT_CHECK Performs criteria checking functions */
        2        2        /*T***********************************************************/
        3        3        /*T*                                                         */
        4        4        /*T* Copyright (c) Bull HN Information Systems Inc., 1997    */
        5        5        /*T*                                                         */
        6        6        /*T***********************************************************/
        7        7        /*X*  DMR,PLM=6,IND=4,SDI=2,CTI=8,DCI=4,CSU=2,ECU=2,ENI=4,
        8        8              THI=0,DTI=0,IAD=0,CCC,CEI=8,CRM=80,CRT=5       */
        9        9        %PLIST;
       10       10        /*P*  NAME: FLC$CRIT_CHECK
       11       11              PURPOSE: Check disk specifications
       12       12        */
       13       13        FLC$CRIT_CHECK: PROC(P_DCB$,FIT$) ALTRET ;
       14       14    1   DCL P_DCB$ PTR ALIGNED;
       15       15    1   DCL DCB$ PTR ALIGNED;
       16       16    1   DCL FIT$ PTR ALIGNED;
       17       17        /***/
       18       18        /** Includes **/
       19       19        /***/
       20       20        %INCLUDE CP_6;
       21     5579        %INCLUDE CP_6_SUBS;
       22     6119        %INCLUDE B_ERRORS_C;
       23     7246        %INCLUDE XU_MACRO_C;
       24    10352        %INCLUDE XU_SUBS_C;
       25    10444        %INCLUDE FLI_DATA_R;
       26    11858        %INCLUDE FM$FIT;
       27    12079        %INCLUDE FM$GRAN;
       28    12148        %INCLUDE XUD_UTS_M;
       29    12230        /***/
       30    12231        /** Macros  **/
       31    12232        /***/
       32    12233        %F$DCB(STCLASS="BASED(DCB$)");
       33    12290        %FM$FIT;
       34    12293        %FM$GRAN;
       35    12297        %CODE04(BASED="BASED(CODE4$)");
       36    12305        %CODE05(BASED="BASED(CODE5$)");
       37    12308        %CODE06(BASED="BASED(CODE6$)");
PL6.E3A0      #001=FLC$CRIT_CHECK File=FLC$CRIT_CHECK.:E05TSI                    TUE 07/29/97 15:38 Page:2
       38    12312        %XUD$UTS_ENTRIES;
       39    12344        /***/
       40    12345        /** External procedures  **/
       41    12346        /***/
       42    12347    1   DCL XSF$LOCCODP ENTRY(2) ALTRET;
       43    12348    1   DCL CODE4$ PTR STATIC;
       44    12349    1   DCL CODE5$ PTR STATIC;
       45    12350    1   DCL CODE6$ PTR STATIC;
       46    12351    1   DCL BEF BIT(1);
       47    12352    1   DCL AFT BIT(1);
       48    12353    1   DCL RESULT BIT(1);
       49    12354    1   DCL K UBIN;
       50    12355    1   DCL TYPE_MATCH BIT(1);
       51    12356    1   DCL TEMP SBIN;
       52    12357         %EJECT;
PL6.E3A0      #001=FLC$CRIT_CHECK File=FLC$CRIT_CHECK.:E05TSI                    TUE 07/29/97 15:38 Page:3
       53    12358        /***/
       54    12359        /** Process FLC$CRIT_CHECK **/
       55    12360        /***/
       56    12361
       57    12362    1         IF NOT DISK_CRIT AND FILE_TYPE = '0'B
       58    12363    1         THEN
       59    12364    1             RETURN;
       60    12365
       61    12366    1         DCB$ = P_DCB$;
       62    12367    1         IF DISK_CRIT.DSC
       63    12368    1                 AND (F$DCB.DESC & DISK_DESC_MASK) ~= DISK_DESC
       64    12369    1         THEN
       65    12370    1             ALTRETURN;
       66    12371
       67    12372    1         IF FILE_TYPE ~= '0'B
       68    12373    2         THEN DO;
       69    12374    2             IF    FILE_TYPE.A
       70    12375    2                     AND     F$DCB.DESC.ARCHIVE#
       71    12376    2                     AND NOT F$DCB.DESC.QS#
       72    12377    2                     AND NOT F$DCB.DESC.DELF#
       73    12378    2                     OR FILE_TYPE.I
       74    12379    2                     AND     F$DCB.DESC.ARCHIVE#
       75    12380    2                     AND     F$DCB.DESC.DELF#
       76    12381    2                     OR FILE_TYPE.SA
       77    12382    2                     AND     F$DCB.DESC.ARCHIVE#
       78    12383    2                     AND     F$DCB.DESC.QS#
       79    12384    2                     AND     F$DCB.DESC.ACTIVE#
       80    12385    2                     AND NOT F$DCB.DESC.FETCH#
       81    12386    2                     OR FILE_TYPE.SI
       82    12387    2                     AND     F$DCB.DESC.ARCHIVE#
       83    12388    2                     AND     F$DCB.DESC.QS#
       84    12389    2                     AND NOT F$DCB.DESC.ACTIVE#
       85    12390    2                     AND NOT F$DCB.DESC.FETCH#
       86    12391    2                     OR FILE_TYPE.FA
       87    12392    2                     AND     F$DCB.DESC.QS#
       88    12393    2                     AND     F$DCB.DESC.FETCH#
       89    12394    2                     OR FILE_TYPE.DF
PL6.E3A0      #001=FLC$CRIT_CHECK File=FLC$CRIT_CHECK.:E05TSI                    TUE 07/29/97 15:38 Page:4
       90    12395    2                     AND     F$DCB.DESC.DELF#
       91    12396    2                     AND NOT F$DCB.DESC.ARCHIVE#
       92    12397    2                     OR FILE_TYPE.BUF
       93    12398    2                     AND     F$DCB.DESC.BUF#
       94    12399    2             THEN ;
       95    12400    2             ELSE ALTRETURN;
       96    12401    2             END;
       97    12402
       98    12403    1         IF DCB$->F$DCB.DESC.DELF#
       99    12404    2         THEN DO;
      100    12405    2             IF NOT DCB$->F$DCB.DESC.ARCHIVE#
      101    12406    3             THEN DO;
      102    12407    3                 IF DISK_CRIT.ORG
      103    12408    3                 THEN ALTRETURN;
      104    12409    3                 IF DISK_CRIT.TIM
      105    12410    4                 THEN DO;
      106    12411    4                     IF DATE_CRIT.BEF ( %ACCESSED ) OR
      107    12412    4                             DATE_CRIT.BEF ( %CREATED ) OR
      108    12413    4                             DATE_CRIT.BEF ( %BACKED_UP )OR
      109    12414    4                             DATE_CRIT.BEF ( %ARCHIVED ) OR
      110    12415    4                             DATE_CRIT.AFT ( %ACCESSED ) OR
      111    12416    4                             DATE_CRIT.AFT ( %CREATED ) OR
      112    12417    4                             DATE_CRIT.AFT ( %BACKED_UP )OR
      113    12418    4                             DATE_CRIT.AFT ( %ARCHIVED )
      114    12419    4                     THEN ALTRETURN;
      115    12420    4                     BEF = '1'B;
      116    12421    4                     AFT = '1'B;
      117    12422    4                     IF DATE_CRIT.BEF(%MODIFIED)
      118    12423    4                     THEN
      119    12424    4                         IF DCB$ -> F$DCB.EXPIRE# > DISK_BEF_UTS(%MODIFIED)
      120    12425    4                         THEN BEF = '0'B;
      121    12426    4                     IF DATE_CRIT.AFT(%MODIFIED)
      122    12427    4                     THEN
      123    12428    4                         IF DCB$ -> F$DCB.EXPIRE# < DISK_AFT_UTS(%MODIFIED)
      124    12429    4                         THEN AFT = '0'B;
      125    12430    4                     IF DISK_AND_OP ( %MODIFIED )
      126    12431    4                     THEN RESULT = BEF & AFT;
PL6.E3A0      #001=FLC$CRIT_CHECK File=FLC$CRIT_CHECK.:E05TSI                    TUE 07/29/97 15:38 Page:5
      127    12432    4                     ELSE RESULT = BEF | AFT;
      128    12433    4                     IF NOT RESULT
      129    12434    4                     THEN ALTRETURN;
      130    12435    4                     ELSE RETURN;
      131    12436    4                     END;
      132    12437    3                 ELSE RETURN;
      133    12438    3                 END;
      134    12439    2             IF DISK_CRIT.ORG THEN ALTRETURN;
      135    12440    2             CODE4$ = FIT$;
      136    12441    2             END;
      137    12442    1         ELSE CODE4$ = PINCRW( FIT$, SIZEW(FM$GRAN) );
      138    12443    1         CODE5$ = CODE4$;
      139    12444    1         CODE6$ = CODE4$;
      140    12445
      141    12446    1         IF DISK_CRIT.ORG
      142    12447    1         THEN
      143    12448    2         DO;
      144    12449    2             RESULT = '0'B;
      145    12450    3             DO K = 0 TO DISK_ORGS.NBR - 1;
      146    12451    3                 IF DCB$->F$DCB.ORG# = DISK_ORGS.ORG(K)
      147    12452    3                 THEN
      148    12453    4                 DO;
      149    12454    4                     RESULT = '1'B;
      150    12455    4                     EXIT;
      151    12456    4                     END;
      152    12457    3                 END;
      153    12458    2             IF NOT RESULT
      154    12459    2             THEN
      155    12460    2                 ALTRETURN;
      156    12461    2             END;
      157    12462
      158    12463    1         IF DISK_CRIT.TIM
      159    12464    1         THEN
      160    12465    2         DO;
      161    12466    2             CALL XSF$LOCCODP(CODE4$,04)
      162    12467    2             WHENALTRETURN
      163    12468    3             DO;
PL6.E3A0      #001=FLC$CRIT_CHECK File=FLC$CRIT_CHECK.:E05TSI                    TUE 07/29/97 15:38 Page:6
      164    12469    3                 ALTRETURN;
      165    12470    3                 END;
      166    12471    2             IF DATE_CRIT.EXPD
      167    12472    2             THEN
      168    12473    3             DO;
      169    12474    3                 CALL XUD$UTS_DIFF_SEC(TEMP,START_UTS,CODE04.CREATION.TIME);
      170    12475    3                 IF (DCB$->F$DCB.EXPIRE# <= TEMP/86400) AND (DCB$->F$DCB.EXPIRE# ~= -1)
      171    12476    3                 THEN ;
      172    12477    3                 ELSE
      173    12478    3                     ALTRETURN;
      174    12479    3                 END;
      175    12480    2             IF DATE_CRIT.NOT_EXPD AND DCB$->F$DCB.EXPIRE# ~= -1
      176    12481    2             THEN
      177    12482    3             DO;
      178    12483    3                 CALL XUD$UTS_DIFF_SEC(TEMP,START_UTS,CODE04.CREATION.TIME);
      179    12484    3                 IF DCB$->F$DCB.EXPIRE# > TEMP/86400
      180    12485    3                 THEN ;
      181    12486    3                 ELSE
      182    12487    3                     ALTRETURN;
      183    12488    3                 END;
      184    12489    3             DO K = 0 TO %MAX_DATE;
      185    12490    3                 BEF = '1'B;
      186    12491    3                 AFT = '1'B;
      187    12492    4                 DO CASE(K);
      188    12493    4                   CASE(%ACCESSED);
      189    12494    4                     IF DATE_CRIT.BEF(%ACCESSED)
      190    12495    4                     THEN
      191    12496    4                         IF CODE04.ACCESS.TIME > DISK_BEF_UTS(%ACCESSED)
      192    12497    4                         THEN
      193    12498    4                             BEF = '0'B;
      194    12499    4                     IF DATE_CRIT.AFT(%ACCESSED)
      195    12500    4                     THEN
      196    12501    4                         IF CODE04.ACCESS.TIME < DISK_AFT_UTS(%ACCESSED)
      197    12502    4                         THEN
      198    12503    4                             AFT = '0'B;
      199    12504    4                   CASE(%MODIFIED);
      200    12505    4                     IF DATE_CRIT.BEF(%MODIFIED)
PL6.E3A0      #001=FLC$CRIT_CHECK File=FLC$CRIT_CHECK.:E05TSI                    TUE 07/29/97 15:38 Page:7
      201    12506    4                     THEN
      202    12507    4                         IF CODE04.MODIFY.TIME > DISK_BEF_UTS(%MODIFIED)
      203    12508    4                         THEN
      204    12509    4                             BEF = '0'B;
      205    12510    4                     IF DATE_CRIT.AFT(%MODIFIED)
      206    12511    4                     THEN
      207    12512    4                         IF CODE04.MODIFY.TIME < DISK_AFT_UTS(%MODIFIED)
      208    12513    4                         THEN
      209    12514    4                             AFT = '0'B;
      210    12515    4                   CASE(%CREATED);
      211    12516    4                     IF DATE_CRIT.BEF(%CREATED)
      212    12517    4                     THEN
      213    12518    4                         IF CODE04.CREATION.TIME > DISK_BEF_UTS(%CREATED)
      214    12519    4                         THEN
      215    12520    4                             BEF = '0'B;
      216    12521    4                     IF DATE_CRIT.AFT(%CREATED)
      217    12522    4                     THEN
      218    12523    4                         IF CODE04.CREATION.TIME < DISK_AFT_UTS(%CREATED)
      219    12524    4                         THEN
      220    12525    4                             AFT = '0'B;
      221    12526    4                   CASE(%BACKED_UP);
      222    12527    4                     IF DATE_CRIT.BEF(%BACKED_UP) OR DATE_CRIT.AFT(%BACKED_UP)
      223    12528    5                     THEN DO;
      224    12529    5                         CALL XSF$LOCCODP(CODE5$,05)
      225    12530    6                         WHENALTRETURN DO;
      226    12531    6                             ALTRETURN;
      227    12532    6                             END;
      228    12533    5                         IF CODE05.BACKUP.TIME = 0 THEN ALTRETURN;
      229    12534    5                         IF DATE_CRIT.BEF(%BACKED_UP)
      230    12535    5                         THEN IF CODE05.BACKUP.TIME > DISK_BEF_UTS(%BACKED_UP)
      231    12536    5                             THEN BEF = '0'B;
      232    12537    5                         IF DATE_CRIT.AFT(%BACKED_UP)
      233    12538    5                         THEN IF CODE05.BACKUP.TIME < DISK_AFT_UTS(%BACKED_UP)
      234    12539    5                             THEN AFT = '0'B;
      235    12540    5                         END;
      236    12541    4                   CASE(%ARCHIVED);
      237    12542    4                     IF DATE_CRIT.BEF(%ARCHIVED) OR DATE_CRIT.AFT(%ARCHIVED)
PL6.E3A0      #001=FLC$CRIT_CHECK File=FLC$CRIT_CHECK.:E05TSI                    TUE 07/29/97 15:38 Page:8
      238    12543    5                     THEN DO;
      239    12544    5                         CALL XSF$LOCCODP(CODE6$,06)
      240    12545    6                         WHENALTRETURN DO;
      241    12546    6                             ALTRETURN;
      242    12547    6                             END;
      243    12548    5                         IF CODE06.STOW.TIME = 0 THEN ALTRETURN;
      244    12549    5                         IF DATE_CRIT.BEF(%ARCHIVED)
      245    12550    5                         THEN IF CODE06.STOW.TIME > DISK_BEF_UTS(%ARCHIVED)
      246    12551    5                             THEN BEF = '0'B;
      247    12552    5                         IF DATE_CRIT.AFT(%ARCHIVED)
      248    12553    5                         THEN IF CODE06.STOW.TIME < DISK_AFT_UTS(%ARCHIVED)
      249    12554    5                             THEN AFT = '0'B;
      250    12555    5                         END;
      251    12556    4                   END;                    /* Case(k) */
      252    12557    3                 IF DISK_AND_OP(K)
      253    12558    3                 THEN
      254    12559    3                     RESULT = BEF & AFT;
      255    12560    3                 ELSE
      256    12561    3                     RESULT = BEF | AFT;
      257    12562    3                 IF NOT RESULT
      258    12563    3                 THEN
      259    12564    3                     ALTRETURN;
      260    12565    3                 END;
      261    12566    2             END;
      262    12567
      263    12568    1         RETURN;
      264    12569
      265    12570    1   END FLC$CRIT_CHECK;

PL6.E3A0      #001=FLC$CRIT_CHECK File=FLC$CRIT_CHECK.:E05TSI                    TUE 07/29/97 15:38 Page:9
--  Include file information  --

   XUD_UTS_M.:E05TOU  is referenced.
   FM$GRAN.:E05TOU  is referenced.
   FM$FIT.:E05TOU  is referenced.
   B_MICROPS_C.:E05TOU  is referenced.
   FLB_SUBS_C.:E05TOU  is referenced.
   FLI_DATA_R.:E05TOU  cannot be made into a system file and is referenced.
   XU_SUBS_C.:E05TOU  is referenced.
   XU_MACRO_C.:E05TOU  is referenced.
   B_ERRORS_C.:E05TOU  is referenced.
   CP_6_SUBS.:E05TOU  is referenced.
   CP_6_C.:E05TOU  is referenced.
   CP_6.:E05TOU  cannot be made into a system file and is referenced.
      No diagnostics issued in procedure FLC$CRIT_CHECK.

   Procedure FLC$CRIT_CHECK requires 408 words for executable code.
   Procedure FLC$CRIT_CHECK requires 16 words of local(AUTO) storage.

    No errors detected in file FLC$CRIT_CHECK.:E05TSI    .

PL6.E3A0      #001=FLC$CRIT_CHECK File=FLC$CRIT_CHECK.:E05TSI                    TUE 07/29/97 15:38 Page:10

 Object Unit name= FLC$CRIT_CHECK                             File name= FLC$CRIT_CHECK.:E05TOU
 UTS= JUL 29 '97 15:38:01.60 TUE                              Compiler= PL-6/E31         Sev=      00
 SharedLib= :SHARED_SYSTEM                                    Alt SharedLib=


    ****  Control sections  ****

 Sect   Type Bound  Init  Size OctSiz  Section name(segment info)
    0   DCB   even  none     0      0  M$UC
    1   DCB   even  none     0      0  M$PRE_RET
    2   Data  even  none     9     11  FLC$CRIT_CHECK
    3   Proc  even  none   408    630  FLC$CRIT_CHECK
    4  RoData even  none     7      7  FLC$CRIT_CHECK

    ****  Entry defs  ****

                              Check   Calling
                             calling  sequence
  Sect OctLoc Primary Altret sequence   type   Parms  Name
     3      0   yes    yes     yes      Std        2  FLC$CRIT_CHECK

  ****  Entry refs  ****

         Check        Calling
        calling       sequence
Altret sequence SRef   type   Args  Name
 yes     yes           Std       2 XSF$LOCCODP
 yes     yes           Std       3 XUD$UTS_DIFF_SEC
                       nStd      0 X66_AUTO_2
                       nStd      0 X66_ARET
                       nStd      0 X66_AALT
                       Std       0 B_CONSPOOL_D
PL6.E3A0      #001=FLC$CRIT_CHECK File=FLC$CRIT_CHECK.:E05TSI                    TUE 07/29/97 15:38 Page:11

  ****  Data refs  ****

  Flags:  r = read only, s = secondary
Flgs Name                             Flgs Name                             Flgs Name
     M$UC                                  TAPE_DCBLIST$                         SNVECLIST$
     START_UTS                             DPLIST$                               DPRESLIST$
     DISK_FILE_SPEC$                       SPECCHARS                             DISK_DESC
     DISK_DESC_MASK                        FILE_TYPE                             DISK_ORGS
     DISK_BEF_UTS                          DISK_AFT_UTS                          DISK_AND_OP
     DISK_CRIT                             DATE_CRIT                             EFTWORD
     M$PRE_RET                             RET_CMDS_NAME                         B_VECTNIL

  ****  Segment refs  ****

  Flags:  r = read only, s = secondary
Flgs Name                             Flgs Name                             Flgs Name
     ISSID
PL6.E3A0      #001=FLC$CRIT_CHECK File=FLC$CRIT_CHECK.:E05TSI                    TUE 07/29/97 15:38 Page:12


        1        1        /*M* FLC$CRIT_CHECK Performs criteria checking functions */
        2        2        /*T***********************************************************/
        3        3        /*T*                                                         */
        4        4        /*T* Copyright (c) Bull HN Information Systems Inc., 1997    */
        5        5        /*T*                                                         */
        6        6        /*T***********************************************************/
        7        7        /*X*  DMR,PLM=6,IND=4,SDI=2,CTI=8,DCI=4,CSU=2,ECU=2,ENI=4,
        8        8              THI=0,DTI=0,IAD=0,CCC,CEI=8,CRM=80,CRT=5       */
        9        9        %PLIST;
       10       10        /*P*  NAME: FLC$CRIT_CHECK
       11       11              PURPOSE: Check disk specifications
       12       12        */
       13       13        FLC$CRIT_CHECK: PROC(P_DCB$,FIT$) ALTRET ;

     13  3 000000   000000 700200 xent  FLC$CRIT_CH* TSX0  ! X66_AUTO_2
         3 000001   000020 000002                    ZERO    16,2

       14       14    1   DCL P_DCB$ PTR ALIGNED;
       15       15    1   DCL DCB$ PTR ALIGNED;
       16       16    1   DCL FIT$ PTR ALIGNED;
       17       17        /***/
       18       18        /** Includes **/
       19       19        /***/
       20       20        %INCLUDE CP_6;
       21     5579        %INCLUDE CP_6_SUBS;
       22     6119        %INCLUDE B_ERRORS_C;
       23     7246        %INCLUDE XU_MACRO_C;
       24    10352        %INCLUDE XU_SUBS_C;
       25    10444        %INCLUDE FLI_DATA_R;
       26    11858        %INCLUDE FM$FIT;
       27    12079        %INCLUDE FM$GRAN;
       28    12148        %INCLUDE XUD_UTS_M;
       29    12230        /***/
       30    12231        /** Macros  **/
       31    12232        /***/
       32    12233        %F$DCB(STCLASS="BASED(DCB$)");
PL6.E3A0      #001=FLC$CRIT_CHECK File=FLC$CRIT_CHECK.:E05TSI                    TUE 07/29/97 15:38 Page:13
       33    12290        %FM$FIT;
       34    12293        %FM$GRAN;
       35    12297        %CODE04(BASED="BASED(CODE4$)");
       36    12305        %CODE05(BASED="BASED(CODE5$)");
       37    12308        %CODE06(BASED="BASED(CODE6$)");
       38    12312        %XUD$UTS_ENTRIES;
       39    12344        /***/
       40    12345        /** External procedures  **/
       41    12346        /***/
       42    12347    1   DCL XSF$LOCCODP ENTRY(2) ALTRET;
       43    12348    1   DCL CODE4$ PTR STATIC;
       44    12349    1   DCL CODE5$ PTR STATIC;
       45    12350    1   DCL CODE6$ PTR STATIC;
       46    12351    1   DCL BEF BIT(1);
       47    12352    1   DCL AFT BIT(1);
       48    12353    1   DCL RESULT BIT(1);
       49    12354    1   DCL K UBIN;
       50    12355    1   DCL TYPE_MATCH BIT(1);
       51    12356    1   DCL TEMP SBIN;
       52    12357         %EJECT;
PL6.E3A0      #001=FLC$CRIT_CHECK File=FLC$CRIT_CHECK.:E05TSI                    TUE 07/29/97 15:38 Page:14
       53    12358        /***/
       54    12359        /** Process FLC$CRIT_CHECK **/
       55    12360        /***/
       56    12361
       57    12362    1         IF NOT DISK_CRIT AND FILE_TYPE = '0'B

  12362  3 000002   000000 236000 xsym               LDQ     DISK_CRIT
         3 000003   700000 316003                    CANQ    -32768,DU
         3 000004   000010 601000 3                  TNZ     s:12366
         3 000005   000000 220000 xsym               LDX0    FILE_TYPE
         3 000006   000010 601000 3                  TNZ     s:12366

       58    12363    1         THEN
       59    12364    1             RETURN;

  12364  3 000007   000000 702200 xent               TSX2  ! X66_ARET

       60    12365
       61    12366    1         DCB$ = P_DCB$;

  12366  3 000010   200003 470500                    LDP0    @P_DCB$,,AUTO
         3 000011   000000 236100                    LDQ     0,,PR0
         3 000012   200005 756100                    STQ     DCB$,,AUTO

       62    12367    1         IF DISK_CRIT.DSC

  12367  3 000013   000000 234000 xsym               SZN     DISK_CRIT
         3 000014   000023 605000 3                  TPL     s:12372
         3 000015   200005 471500                    LDP1    DCB$,,AUTO
         3 000016   100005 720100                    LXL0    5,,PR1
         3 000017   000000 360000 xsym               ANX0    DISK_DESC_MASK
         3 000020   000000 100000 xsym               CMPX0   DISK_DESC
         3 000021   000023 600000 3                  TZE     s:12372

       63    12368    1                 AND (F$DCB.DESC & DISK_DESC_MASK) ~= DISK_DESC
       64    12369    1         THEN
       65    12370    1             ALTRETURN;
PL6.E3A0      #001=FLC$CRIT_CHECK File=FLC$CRIT_CHECK.:E05TSI                    TUE 07/29/97 15:38 Page:15

  12370  3 000022   000000 702200 xent               TSX2  ! X66_AALT

       66    12371
       67    12372    1         IF FILE_TYPE ~= '0'B

  12372  3 000023   000000 220000 xsym               LDX0    FILE_TYPE
         3 000024   000134 600000 3                  TZE     s:12403

       68    12373    2         THEN DO;

       69    12374    2             IF    FILE_TYPE.A

  12374  3 000025   000000 234000 xsym               SZN     FILE_TYPE
         3 000026   000037 605000 3                  TPL     s:12374+10
         3 000027   200005 471500                    LDP1    DCB$,,AUTO
         3 000030   100005 236100                    LDQ     5,,PR1
         3 000031   001000 316007                    CANQ    512,DL
         3 000032   000037 600000 3                  TZE     s:12374+10
         3 000033   010000 316007                    CANQ    4096,DL
         3 000034   000037 601000 3                  TNZ     s:12374+10
         3 000035   400000 316007                    CANQ    -131072,DL
         3 000036   000134 600000 3                  TZE     s:12403
         3 000037   000000 236000 xsym               LDQ     FILE_TYPE
         3 000040   200000 316003                    CANQ    65536,DU
         3 000041   000050 600000 3                  TZE     s:12374+19
         3 000042   200005 471500                    LDP1    DCB$,,AUTO
         3 000043   100005 236100                    LDQ     5,,PR1
         3 000044   001000 316007                    CANQ    512,DL
         3 000045   000050 600000 3                  TZE     s:12374+19
         3 000046   400000 316007                    CANQ    -131072,DL
         3 000047   000134 601000 3                  TNZ     s:12403
         3 000050   000000 236000 xsym               LDQ     FILE_TYPE
         3 000051   100000 316003                    CANQ    32768,DU
         3 000052   000065 600000 3                  TZE     s:12374+32
         3 000053   200005 471500                    LDP1    DCB$,,AUTO
         3 000054   100005 236100                    LDQ     5,,PR1
PL6.E3A0      #001=FLC$CRIT_CHECK File=FLC$CRIT_CHECK.:E05TSI                    TUE 07/29/97 15:38 Page:16
         3 000055   001000 316007                    CANQ    512,DL
         3 000056   000065 600000 3                  TZE     s:12374+32
         3 000057   010000 316007                    CANQ    4096,DL
         3 000060   000065 600000 3                  TZE     s:12374+32
         3 000061   000100 316007                    CANQ    64,DL
         3 000062   000065 600000 3                  TZE     s:12374+32
         3 000063   000010 316007                    CANQ    8,DL
         3 000064   000134 600000 3                  TZE     s:12403
         3 000065   000000 236000 xsym               LDQ     FILE_TYPE
         3 000066   040000 316003                    CANQ    16384,DU
         3 000067   000102 600000 3                  TZE     s:12374+45
         3 000070   200005 471500                    LDP1    DCB$,,AUTO
         3 000071   100005 236100                    LDQ     5,,PR1
         3 000072   001000 316007                    CANQ    512,DL
         3 000073   000102 600000 3                  TZE     s:12374+45
         3 000074   010000 316007                    CANQ    4096,DL
         3 000075   000102 600000 3                  TZE     s:12374+45
         3 000076   000100 316007                    CANQ    64,DL
         3 000077   000102 601000 3                  TNZ     s:12374+45
         3 000100   000010 316007                    CANQ    8,DL
         3 000101   000134 600000 3                  TZE     s:12403
         3 000102   000000 236000 xsym               LDQ     FILE_TYPE
         3 000103   020000 316003                    CANQ    8192,DU
         3 000104   000113 600000 3                  TZE     s:12374+54
         3 000105   200005 471500                    LDP1    DCB$,,AUTO
         3 000106   100005 236100                    LDQ     5,,PR1
         3 000107   010000 316007                    CANQ    4096,DL
         3 000110   000113 600000 3                  TZE     s:12374+54
         3 000111   000010 316007                    CANQ    8,DL
         3 000112   000134 601000 3                  TNZ     s:12403
         3 000113   000000 236000 xsym               LDQ     FILE_TYPE
         3 000114   004000 316003                    CANQ    2048,DU
         3 000115   000124 600000 3                  TZE     s:12374+63
         3 000116   200005 471500                    LDP1    DCB$,,AUTO
         3 000117   100005 236100                    LDQ     5,,PR1
         3 000120   400000 316007                    CANQ    -131072,DL
         3 000121   000124 600000 3                  TZE     s:12374+63
PL6.E3A0      #001=FLC$CRIT_CHECK File=FLC$CRIT_CHECK.:E05TSI                    TUE 07/29/97 15:38 Page:17
         3 000122   001000 316007                    CANQ    512,DL
         3 000123   000134 600000 3                  TZE     s:12403
         3 000124   000000 236000 xsym               LDQ     FILE_TYPE
         3 000125   002000 316003                    CANQ    1024,DU
         3 000126   000133 600000 3                  TZE     s:12400
         3 000127   200005 471500                    LDP1    DCB$,,AUTO
         3 000130   100005 236100                    LDQ     5,,PR1
         3 000131   100000 316007                    CANQ    32768,DL
         3 000132   000134 601000 3                  TNZ     s:12403

       70    12375    2                     AND     F$DCB.DESC.ARCHIVE#
       71    12376    2                     AND NOT F$DCB.DESC.QS#
       72    12377    2                     AND NOT F$DCB.DESC.DELF#
       73    12378    2                     OR FILE_TYPE.I
       74    12379    2                     AND     F$DCB.DESC.ARCHIVE#
       75    12380    2                     AND     F$DCB.DESC.DELF#
       76    12381    2                     OR FILE_TYPE.SA
       77    12382    2                     AND     F$DCB.DESC.ARCHIVE#
       78    12383    2                     AND     F$DCB.DESC.QS#
       79    12384    2                     AND     F$DCB.DESC.ACTIVE#
       80    12385    2                     AND NOT F$DCB.DESC.FETCH#
       81    12386    2                     OR FILE_TYPE.SI
       82    12387    2                     AND     F$DCB.DESC.ARCHIVE#
       83    12388    2                     AND     F$DCB.DESC.QS#
       84    12389    2                     AND NOT F$DCB.DESC.ACTIVE#
       85    12390    2                     AND NOT F$DCB.DESC.FETCH#
       86    12391    2                     OR FILE_TYPE.FA
       87    12392    2                     AND     F$DCB.DESC.QS#
       88    12393    2                     AND     F$DCB.DESC.FETCH#
       89    12394    2                     OR FILE_TYPE.DF
       90    12395    2                     AND     F$DCB.DESC.DELF#
       91    12396    2                     AND NOT F$DCB.DESC.ARCHIVE#
       92    12397    2                     OR FILE_TYPE.BUF
       93    12398    2                     AND     F$DCB.DESC.BUF#
       94    12399    2             THEN ;
       95    12400    2             ELSE ALTRETURN;

PL6.E3A0      #001=FLC$CRIT_CHECK File=FLC$CRIT_CHECK.:E05TSI                    TUE 07/29/97 15:38 Page:18
  12400  3 000133   000000 702200 xent               TSX2  ! X66_AALT

       96    12401    2             END;
       97    12402
       98    12403    1         IF DCB$->F$DCB.DESC.DELF#

  12403  3 000134   200005 471500                    LDP1    DCB$,,AUTO
         3 000135   100005 236100                    LDQ     5,,PR1
         3 000136   400000 316007                    CANQ    -131072,DL
         3 000137   000254 600000 3                  TZE     s:12442

       99    12404    2         THEN DO;

      100    12405    2             IF NOT DCB$->F$DCB.DESC.ARCHIVE#

  12405  3 000140   001000 316007                    CANQ    512,DL
         3 000141   000244 601000 3                  TNZ     s:12439

      101    12406    3             THEN DO;

      102    12407    3                 IF DISK_CRIT.ORG

  12407  3 000142   000000 236000 xsym               LDQ     DISK_CRIT
         3 000143   200000 316003                    CANQ    65536,DU
         3 000144   000146 600000 3                  TZE     s:12409

      103    12408    3                 THEN ALTRETURN;

  12408  3 000145   000000 702200 xent               TSX2  ! X66_AALT

      104    12409    3                 IF DISK_CRIT.TIM

  12409  3 000146   100000 316003                    CANQ    32768,DU
         3 000147   000243 600000 3                  TZE     s:12437

      105    12410    4                 THEN DO;

PL6.E3A0      #001=FLC$CRIT_CHECK File=FLC$CRIT_CHECK.:E05TSI                    TUE 07/29/97 15:38 Page:19
      106    12411    4                     IF DATE_CRIT.BEF ( %ACCESSED ) OR

  12411  3 000150   000000 234000 xsym               SZN     DATE_CRIT
         3 000151   000171 604000 3                  TMI     s:12419
         3 000152   000000 236000 xsym               LDQ     DATE_CRIT
         3 000153   100000 316003                    CANQ    32768,DU
         3 000154   000171 601000 3                  TNZ     s:12419
         3 000155   040000 316003                    CANQ    16384,DU
         3 000156   000171 601000 3                  TNZ     s:12419
         3 000157   020000 316003                    CANQ    8192,DU
         3 000160   000171 601000 3                  TNZ     s:12419
         3 000161   010000 316003                    CANQ    4096,DU
         3 000162   000171 601000 3                  TNZ     s:12419
         3 000163   002000 316003                    CANQ    1024,DU
         3 000164   000171 601000 3                  TNZ     s:12419
         3 000165   000000 430000 xsym               FSZN    DATE_CRIT
         3 000166   000171 604000 3                  TMI     s:12419
         3 000167   000400 316003                    CANQ    256,DU
         3 000170   000172 600000 3                  TZE     s:12420

      107    12412    4                             DATE_CRIT.BEF ( %CREATED ) OR
      108    12413    4                             DATE_CRIT.BEF ( %BACKED_UP )OR
      109    12414    4                             DATE_CRIT.BEF ( %ARCHIVED ) OR
      110    12415    4                             DATE_CRIT.AFT ( %ACCESSED ) OR
      111    12416    4                             DATE_CRIT.AFT ( %CREATED ) OR
      112    12417    4                             DATE_CRIT.AFT ( %BACKED_UP )OR
      113    12418    4                             DATE_CRIT.AFT ( %ARCHIVED )
      114    12419    4                     THEN ALTRETURN;

  12419  3 000171   000000 702200 xent               TSX2  ! X66_AALT

      115    12420    4                     BEF = '1'B;

  12420  3 000172   400000 236003                    LDQ     -131072,DU
         3 000173   200006 756100                    STQ     BEF,,AUTO

      116    12421    4                     AFT = '1'B;
PL6.E3A0      #001=FLC$CRIT_CHECK File=FLC$CRIT_CHECK.:E05TSI                    TUE 07/29/97 15:38 Page:20

  12421  3 000174   200007 756100                    STQ     AFT,,AUTO

      117    12422    4                     IF DATE_CRIT.BEF(%MODIFIED)

  12422  3 000175   000000 236000 xsym               LDQ     DATE_CRIT
         3 000176   200000 316003                    CANQ    65536,DU
         3 000177   000205 600000 3                  TZE     s:12426

      118    12423    4                     THEN
      119    12424    4                         IF DCB$ -> F$DCB.EXPIRE# > DISK_BEF_UTS(%MODIFIED)

  12424  3 000200   000001 236000 xsym               LDQ     DISK_BEF_UTS+1
         3 000201   000205 604000 3                  TMI     s:12426
         3 000202   100035 116100                    CMPQ    29,,PR1
         3 000203   000205 605000 3                  TPL     s:12426

      120    12425    4                         THEN BEF = '0'B;

  12425  3 000204   200006 450100                    STZ     BEF,,AUTO

      121    12426    4                     IF DATE_CRIT.AFT(%MODIFIED)

  12426  3 000205   000000 236000 xsym               LDQ     DATE_CRIT
         3 000206   004000 316003                    CANQ    2048,DU
         3 000207   000215 600000 3                  TZE     s:12430

      122    12427    4                     THEN
      123    12428    4                         IF DCB$ -> F$DCB.EXPIRE# < DISK_AFT_UTS(%MODIFIED)

  12428  3 000210   100035 236100                    LDQ     29,,PR1
         3 000211   000214 604000 3                  TMI     s:12429
         3 000212   000001 116000 xsym               CMPQ    DISK_AFT_UTS+1
         3 000213   000215 603000 3                  TRC     s:12430

      124    12429    4                         THEN AFT = '0'B;

PL6.E3A0      #001=FLC$CRIT_CHECK File=FLC$CRIT_CHECK.:E05TSI                    TUE 07/29/97 15:38 Page:21
  12429  3 000214   200007 450100                    STZ     AFT,,AUTO

      125    12430    4                     IF DISK_AND_OP ( %MODIFIED )

  12430  3 000215   000000 236000 xsym               LDQ     DISK_AND_OP
         3 000216   200000 316003                    CANQ    65536,DU
         3 000217   000230 600000 3                  TZE     s:12432

      126    12431    4                     THEN RESULT = BEF & AFT;

  12431  3 000220   200007 236100                    LDQ     AFT,,AUTO
         3 000221   400000 376003                    ANQ     -131072,DU
         3 000222   200014 756100                    STQ     TEMP+1,,AUTO
         3 000223   200006 236100                    LDQ     BEF,,AUTO
         3 000224   400000 376003                    ANQ     -131072,DU
         3 000225   200014 376100                    ANQ     TEMP+1,,AUTO
         3 000226   200010 756100                    STQ     RESULT,,AUTO
         3 000227   000237 710000 3                  TRA     s:12433

      127    12432    4                     ELSE RESULT = BEF | AFT;

  12432  3 000230   200007 236100                    LDQ     AFT,,AUTO
         3 000231   400000 376003                    ANQ     -131072,DU
         3 000232   200014 756100                    STQ     TEMP+1,,AUTO
         3 000233   200006 236100                    LDQ     BEF,,AUTO
         3 000234   400000 376003                    ANQ     -131072,DU
         3 000235   200014 276100                    ORQ     TEMP+1,,AUTO
         3 000236   200010 756100                    STQ     RESULT,,AUTO

      128    12433    4                     IF NOT RESULT

  12433  3 000237   200010 234100                    SZN     RESULT,,AUTO
         3 000240   000242 604000 3                  TMI     s:12435

      129    12434    4                     THEN ALTRETURN;

  12434  3 000241   000000 702200 xent               TSX2  ! X66_AALT
PL6.E3A0      #001=FLC$CRIT_CHECK File=FLC$CRIT_CHECK.:E05TSI                    TUE 07/29/97 15:38 Page:22

      130    12435    4                     ELSE RETURN;

  12435  3 000242   000000 702200 xent               TSX2  ! X66_ARET

      131    12436    4                     END;
      132    12437    3                 ELSE RETURN;

  12437  3 000243   000000 702200 xent               TSX2  ! X66_ARET

      133    12438    3                 END;
      134    12439    2             IF DISK_CRIT.ORG THEN ALTRETURN;

  12439  3 000244   000000 236000 xsym               LDQ     DISK_CRIT
         3 000245   200000 316003                    CANQ    65536,DU
         3 000246   000250 600000 3                  TZE     s:12440

  12439  3 000247   000000 702200 xent               TSX2  ! X66_AALT

      135    12440    2             CODE4$ = FIT$;

  12440  3 000250   200004 473500                    LDP3    @FIT$,,AUTO
         3 000251   300000 236100                    LDQ     0,,PR3
         3 000252   000006 756000 2                  STQ     CODE4$

      136    12441    2             END;

  12441  3 000253   000260 710000 3                  TRA     s:12443

      137    12442    1         ELSE CODE4$ = PINCRW( FIT$, SIZEW(FM$GRAN) );

  12442  3 000254   200004 473500                    LDP3    @FIT$,,AUTO
         3 000255   300000 236100                    LDQ     0,,PR3
         3 000256   000005 036003                    ADLQ    5,DU
         3 000257   000006 756000 2                  STQ     CODE4$

      138    12443    1         CODE5$ = CODE4$;
PL6.E3A0      #001=FLC$CRIT_CHECK File=FLC$CRIT_CHECK.:E05TSI                    TUE 07/29/97 15:38 Page:23

  12443  3 000260   000007 756000 2                  STQ     CODE5$

      139    12444    1         CODE6$ = CODE4$;

  12444  3 000261   000010 756000 2                  STQ     CODE6$

      140    12445
      141    12446    1         IF DISK_CRIT.ORG

  12446  3 000262   000000 236000 xsym               LDQ     DISK_CRIT
         3 000263   200000 316003                    CANQ    65536,DU
         3 000264   000313 600000 3                  TZE     s:12463

      142    12447    1         THEN
      143    12448    2         DO;

      144    12449    2             RESULT = '0'B;

  12449  3 000265   200010 450100                    STZ     RESULT,,AUTO

      145    12450    3             DO K = 0 TO DISK_ORGS.NBR - 1;

  12450  3 000266   200011 450100                    STZ     K,,AUTO
         3 000267   000304 710000 3                  TRA     s:12457+3

      146    12451    3                 IF DCB$->F$DCB.ORG# = DISK_ORGS.ORG(K)

  12451  3 000270   200011 720100                    LXL0    K,,AUTO
         3 000271   200005 470500                    LDP0    DCB$,,AUTO
         3 000272   000032 236100                    LDQ     26,,PR0
         3 000273   000033 772000                    QRL     27
         3 000274   000001 116010 xsym               CMPQ    DISK_ORGS+1,X0
         3 000275   000301 601000 3                  TNZ     s:12457

      147    12452    3                 THEN
      148    12453    4                 DO;
PL6.E3A0      #001=FLC$CRIT_CHECK File=FLC$CRIT_CHECK.:E05TSI                    TUE 07/29/97 15:38 Page:24

      149    12454    4                     RESULT = '1'B;

  12454  3 000276   400000 236003                    LDQ     -131072,DU
         3 000277   200010 756100                    STQ     RESULT,,AUTO

      150    12455    4                     EXIT;

  12455  3 000300   000301 710000 3                  TRA     s:12457

      151    12456    4                     END;
      152    12457    3                 END;

  12457  3 000301   200011 235100                    LDA     K,,AUTO
         3 000302   000001 035007                    ADLA    1,DL
         3 000303   200011 755100                    STA     K,,AUTO
         3 000304   200011 236100                    LDQ     K,,AUTO
         3 000305   000310 604000 3                  TMI     s:12458
         3 000306   000000 116000 xsym               CMPQ    DISK_ORGS
         3 000307   000270 604000 3                  TMI     s:12451

      153    12458    2             IF NOT RESULT

  12458  3 000310   200010 234100                    SZN     RESULT,,AUTO
         3 000311   000313 604000 3                  TMI     s:12463

      154    12459    2             THEN
      155    12460    2                 ALTRETURN;

  12460  3 000312   000000 702200 xent               TSX2  ! X66_AALT

      156    12461    2             END;
      157    12462
      158    12463    1         IF DISK_CRIT.TIM

  12463  3 000313   000000 236000 xsym               LDQ     DISK_CRIT
         3 000314   100000 316003                    CANQ    32768,DU
PL6.E3A0      #001=FLC$CRIT_CHECK File=FLC$CRIT_CHECK.:E05TSI                    TUE 07/29/97 15:38 Page:25
         3 000315   000627 600000 3                  TZE     s:12568

      159    12464    1         THEN
      160    12465    2         DO;

      161    12466    2             CALL XSF$LOCCODP(CODE4$,04)

  12466  3 000316   000000 630400 4                  EPPR0   0
         3 000317   000020 631400 xsym               EPPR1   B_VECTNIL+16
         3 000320   000000 701000 xent               TSX1    XSF$LOCCODP
         3 000321   000323 702000 3                  TSX2    s:12469
         3 000322   000324 710000 3                  TRA     s:12471

      162    12467    2             WHENALTRETURN
      163    12468    3             DO;

      164    12469    3                 ALTRETURN;

  12469  3 000323   000000 702200 xent               TSX2  ! X66_AALT

      165    12470    3                 END;
      166    12471    2             IF DATE_CRIT.EXPD

  12471  3 000324   000000 236000 xsym               LDQ     DATE_CRIT
         3 000325   000200 316003                    CANQ    128,DU
         3 000326   000353 600000 3                  TZE     s:12480

      167    12472    2             THEN
      168    12473    3             DO;

      169    12474    3                 CALL XUD$UTS_DIFF_SEC(TEMP,START_UTS,CODE04.CREATION.TIME);

  12474  3 000327   000006 236000 2                  LDQ     CODE4$
         3 000330   000002 036003                    ADLQ    2,DU
         3 000331   200016 756100                    STQ     TEMP+3,,AUTO
         3 000332   000002 236000 4                  LDQ     2
         3 000333   200015 756100                    STQ     TEMP+2,,AUTO
PL6.E3A0      #001=FLC$CRIT_CHECK File=FLC$CRIT_CHECK.:E05TSI                    TUE 07/29/97 15:38 Page:26
         3 000334   200013 630500                    EPPR0   TEMP,,AUTO
         3 000335   200014 450500                    STP0    TEMP+1,,AUTO
         3 000336   200014 630500                    EPPR0   TEMP+1,,AUTO
         3 000337   000021 631400 xsym               EPPR1   B_VECTNIL+17
         3 000340   000000 701000 xent               TSX1    XUD$UTS_DIFF_SEC
         3 000341   000000 011000                    NOP     0

      170    12475    3                IF (DCB$->F$DCB.EXPIRE# <= TEMP/86400) AND (DCB$->F$DCB.EXPIRE# ~= -1)

  12475  3 000342   200013 236100                    LDQ     TEMP,,AUTO
         3 000343   250600 506007                    DIV     86400,DL
         3 000344   200005 470500                    LDP0    DCB$,,AUTO
         3 000345   000035 116100                    CMPQ    29,,PR0
         3 000346   000352 604000 3                  TMI     s:12478
         3 000347   000035 235100                    LDA     29,,PR0
         3 000350   000027 115000 xsym               CMPA    B_VECTNIL+23
         3 000351   000353 601000 3                  TNZ     s:12480

      171    12476    3                 THEN ;
      172    12477    3                 ELSE
      173    12478    3                     ALTRETURN;

  12478  3 000352   000000 702200 xent               TSX2  ! X66_AALT

      174    12479    3                 END;
      175    12480    2             IF DATE_CRIT.NOT_EXPD AND DCB$->F$DCB.EXPIRE# ~= -1

  12480  3 000353   000000 236000 xsym               LDQ     DATE_CRIT
         3 000354   000100 316003                    CANQ    64,DU
         3 000355   000403 600000 3                  TZE     s:12489
         3 000356   200005 470500                    LDP0    DCB$,,AUTO
         3 000357   000035 235100                    LDA     29,,PR0
         3 000360   000027 115000 xsym               CMPA    B_VECTNIL+23
         3 000361   000403 600000 3                  TZE     s:12489

      176    12481    2             THEN
      177    12482    3             DO;
PL6.E3A0      #001=FLC$CRIT_CHECK File=FLC$CRIT_CHECK.:E05TSI                    TUE 07/29/97 15:38 Page:27

      178    12483    3                 CALL XUD$UTS_DIFF_SEC(TEMP,START_UTS,CODE04.CREATION.TIME);

  12483  3 000362   000006 236000 2                  LDQ     CODE4$
         3 000363   000002 036003                    ADLQ    2,DU
         3 000364   200016 756100                    STQ     TEMP+3,,AUTO
         3 000365   000002 236000 4                  LDQ     2
         3 000366   200015 756100                    STQ     TEMP+2,,AUTO
         3 000367   200013 631500                    EPPR1   TEMP,,AUTO
         3 000370   200014 451500                    STP1    TEMP+1,,AUTO
         3 000371   200014 630500                    EPPR0   TEMP+1,,AUTO
         3 000372   000021 631400 xsym               EPPR1   B_VECTNIL+17
         3 000373   000000 701000 xent               TSX1    XUD$UTS_DIFF_SEC
         3 000374   000000 011000                    NOP     0

      179    12484    3                 IF DCB$->F$DCB.EXPIRE# > TEMP/86400

  12484  3 000375   200013 236100                    LDQ     TEMP,,AUTO
         3 000376   250600 506007                    DIV     86400,DL
         3 000377   200005 470500                    LDP0    DCB$,,AUTO
         3 000400   000035 116100                    CMPQ    29,,PR0
         3 000401   000403 604000 3                  TMI     s:12489

      180    12485    3                 THEN ;
      181    12486    3                 ELSE
      182    12487    3                     ALTRETURN;

  12487  3 000402   000000 702200 xent               TSX2  ! X66_AALT

      183    12488    3                 END;
      184    12489    3             DO K = 0 TO %MAX_DATE;

  12489  3 000403   200011 450100                    STZ     K,,AUTO

      185    12490    3                 BEF = '1'B;

  12490  3 000404   400000 236003                    LDQ     -131072,DU
PL6.E3A0      #001=FLC$CRIT_CHECK File=FLC$CRIT_CHECK.:E05TSI                    TUE 07/29/97 15:38 Page:28
         3 000405   200006 756100                    STQ     BEF,,AUTO

      186    12491    3                 AFT = '1'B;

  12491  3 000406   200007 756100                    STQ     AFT,,AUTO

      187    12492    4                 DO CASE(K);

  12492  3 000407   200011 235100                    LDA     K,,AUTO
         3 000410   000005 115007                    CMPA    5,DL
         3 000411   000413 602005 3                  TNC     s:12492+4,AL
         3 000412   000574 710000 3                  TRA     s:12557
         3 000413   000420 710000 3                  TRA     s:12494
         3 000414   000440 710000 3                  TRA     s:12505
         3 000415   000461 710000 3                  TRA     s:12516
         3 000416   000502 710000 3                  TRA     s:12527
         3 000417   000537 710000 3                  TRA     s:12542

      188    12493    4                   CASE(%ACCESSED);

      189    12494    4                     IF DATE_CRIT.BEF(%ACCESSED)

  12494  3 000420   000000 234000 xsym               SZN     DATE_CRIT
         3 000421   000427 605000 3                  TPL     s:12499

      190    12495    4                     THEN
      191    12496    4                         IF CODE04.ACCESS.TIME > DISK_BEF_UTS(%ACCESSED)

  12496  3 000422   000006 470400 2                  LDP0    CODE4$
         3 000423   000000 236000 xsym               LDQ     DISK_BEF_UTS
         3 000424   000000 116100                    CMPQ    0,,PR0
         3 000425   000427 603000 3                  TRC     s:12499

      192    12497    4                         THEN
      193    12498    4                             BEF = '0'B;

  12498  3 000426   200006 450100                    STZ     BEF,,AUTO
PL6.E3A0      #001=FLC$CRIT_CHECK File=FLC$CRIT_CHECK.:E05TSI                    TUE 07/29/97 15:38 Page:29

      194    12499    4                     IF DATE_CRIT.AFT(%ACCESSED)

  12499  3 000427   000000 236000 xsym               LDQ     DATE_CRIT
         3 000430   010000 316003                    CANQ    4096,DU
         3 000431   000574 600000 3                  TZE     s:12557

      195    12500    4                     THEN
      196    12501    4                         IF CODE04.ACCESS.TIME < DISK_AFT_UTS(%ACCESSED)

  12501  3 000432   000006 470400 2                  LDP0    CODE4$
         3 000433   000000 236100                    LDQ     0,,PR0
         3 000434   000000 116000 xsym               CMPQ    DISK_AFT_UTS
         3 000435   000574 603000 3                  TRC     s:12557

      197    12502    4                         THEN
      198    12503    4                             AFT = '0'B;

  12503  3 000436   200007 450100                    STZ     AFT,,AUTO
         3 000437   000574 710000 3                  TRA     s:12557

      199    12504    4                   CASE(%MODIFIED);

      200    12505    4                     IF DATE_CRIT.BEF(%MODIFIED)

  12505  3 000440   000000 236000 xsym               LDQ     DATE_CRIT
         3 000441   200000 316003                    CANQ    65536,DU
         3 000442   000450 600000 3                  TZE     s:12510

      201    12506    4                     THEN
      202    12507    4                         IF CODE04.MODIFY.TIME > DISK_BEF_UTS(%MODIFIED)

  12507  3 000443   000006 470400 2                  LDP0    CODE4$
         3 000444   000001 236000 xsym               LDQ     DISK_BEF_UTS+1
         3 000445   000001 116100                    CMPQ    1,,PR0
         3 000446   000450 603000 3                  TRC     s:12510

PL6.E3A0      #001=FLC$CRIT_CHECK File=FLC$CRIT_CHECK.:E05TSI                    TUE 07/29/97 15:38 Page:30
      203    12508    4                         THEN
      204    12509    4                             BEF = '0'B;

  12509  3 000447   200006 450100                    STZ     BEF,,AUTO

      205    12510    4                     IF DATE_CRIT.AFT(%MODIFIED)

  12510  3 000450   000000 236000 xsym               LDQ     DATE_CRIT
         3 000451   004000 316003                    CANQ    2048,DU
         3 000452   000574 600000 3                  TZE     s:12557

      206    12511    4                     THEN
      207    12512    4                         IF CODE04.MODIFY.TIME < DISK_AFT_UTS(%MODIFIED)

  12512  3 000453   000006 470400 2                  LDP0    CODE4$
         3 000454   000001 236100                    LDQ     1,,PR0
         3 000455   000001 116000 xsym               CMPQ    DISK_AFT_UTS+1
         3 000456   000574 603000 3                  TRC     s:12557

      208    12513    4                         THEN
      209    12514    4                             AFT = '0'B;

  12514  3 000457   200007 450100                    STZ     AFT,,AUTO
         3 000460   000574 710000 3                  TRA     s:12557

      210    12515    4                   CASE(%CREATED);

      211    12516    4                     IF DATE_CRIT.BEF(%CREATED)

  12516  3 000461   000000 236000 xsym               LDQ     DATE_CRIT
         3 000462   100000 316003                    CANQ    32768,DU
         3 000463   000471 600000 3                  TZE     s:12521

      212    12517    4                     THEN
      213    12518    4                         IF CODE04.CREATION.TIME > DISK_BEF_UTS(%CREATED)

  12518  3 000464   000006 470400 2                  LDP0    CODE4$
PL6.E3A0      #001=FLC$CRIT_CHECK File=FLC$CRIT_CHECK.:E05TSI                    TUE 07/29/97 15:38 Page:31
         3 000465   000002 236000 xsym               LDQ     DISK_BEF_UTS+2
         3 000466   000002 116100                    CMPQ    2,,PR0
         3 000467   000471 603000 3                  TRC     s:12521

      214    12519    4                         THEN
      215    12520    4                             BEF = '0'B;

  12520  3 000470   200006 450100                    STZ     BEF,,AUTO

      216    12521    4                     IF DATE_CRIT.AFT(%CREATED)

  12521  3 000471   000000 236000 xsym               LDQ     DATE_CRIT
         3 000472   002000 316003                    CANQ    1024,DU
         3 000473   000574 600000 3                  TZE     s:12557

      217    12522    4                     THEN
      218    12523    4                         IF CODE04.CREATION.TIME < DISK_AFT_UTS(%CREATED)

  12523  3 000474   000006 470400 2                  LDP0    CODE4$
         3 000475   000002 236100                    LDQ     2,,PR0
         3 000476   000002 116000 xsym               CMPQ    DISK_AFT_UTS+2
         3 000477   000574 603000 3                  TRC     s:12557

      219    12524    4                         THEN
      220    12525    4                             AFT = '0'B;

  12525  3 000500   200007 450100                    STZ     AFT,,AUTO
         3 000501   000574 710000 3                  TRA     s:12557

      221    12526    4                   CASE(%BACKED_UP);

      222    12527    4                     IF DATE_CRIT.BEF(%BACKED_UP) OR DATE_CRIT.AFT(%BACKED_UP)

  12527  3 000502   000000 236000 xsym               LDQ     DATE_CRIT
         3 000503   040000 316003                    CANQ    16384,DU
         3 000504   000507 601000 3                  TNZ     s:12529
         3 000505   000000 430000 xsym               FSZN    DATE_CRIT
PL6.E3A0      #001=FLC$CRIT_CHECK File=FLC$CRIT_CHECK.:E05TSI                    TUE 07/29/97 15:38 Page:32
         3 000506   000574 605000 3                  TPL     s:12557

      223    12528    5                     THEN DO;

      224    12529    5                         CALL XSF$LOCCODP(CODE5$,05)

  12529  3 000507   000003 630400 4                  EPPR0   3
         3 000510   000020 631400 xsym               EPPR1   B_VECTNIL+16
         3 000511   000000 701000 xent               TSX1    XSF$LOCCODP
         3 000512   000514 702000 3                  TSX2    s:12531
         3 000513   000515 710000 3                  TRA     s:12533

      225    12530    6                         WHENALTRETURN DO;

      226    12531    6                             ALTRETURN;

  12531  3 000514   000000 702200 xent               TSX2  ! X66_AALT

      227    12532    6                             END;
      228    12533    5                         IF CODE05.BACKUP.TIME = 0 THEN ALTRETURN;

  12533  3 000515   000007 470400 2                  LDP0    CODE5$
         3 000516   000000 235100                    LDA     0,,PR0
         3 000517   000521 601000 3                  TNZ     s:12534

  12533  3 000520   000000 702200 xent               TSX2  ! X66_AALT

      229    12534    5                         IF DATE_CRIT.BEF(%BACKED_UP)

  12534  3 000521   000000 236000 xsym               LDQ     DATE_CRIT
         3 000522   040000 316003                    CANQ    16384,DU
         3 000523   000530 600000 3                  TZE     s:12537

      230    12535    5                         THEN IF CODE05.BACKUP.TIME > DISK_BEF_UTS(%BACKED_UP)

  12535  3 000524   000003 236000 xsym               LDQ     DISK_BEF_UTS+3
         3 000525   000000 116100                    CMPQ    0,,PR0
PL6.E3A0      #001=FLC$CRIT_CHECK File=FLC$CRIT_CHECK.:E05TSI                    TUE 07/29/97 15:38 Page:33
         3 000526   000530 603000 3                  TRC     s:12537

      231    12536    5                             THEN BEF = '0'B;

  12536  3 000527   200006 450100                    STZ     BEF,,AUTO

      232    12537    5                         IF DATE_CRIT.AFT(%BACKED_UP)

  12537  3 000530   000000 430000 xsym               FSZN    DATE_CRIT
         3 000531   000574 605000 3                  TPL     s:12557

      233    12538    5                         THEN IF CODE05.BACKUP.TIME < DISK_AFT_UTS(%BACKED_UP)

  12538  3 000532   000000 236100                    LDQ     0,,PR0
         3 000533   000003 116000 xsym               CMPQ    DISK_AFT_UTS+3
         3 000534   000574 603000 3                  TRC     s:12557

      234    12539    5                             THEN AFT = '0'B;

  12539  3 000535   200007 450100                    STZ     AFT,,AUTO

      235    12540    5                         END;

  12540  3 000536   000574 710000 3                  TRA     s:12557

      236    12541    4                   CASE(%ARCHIVED);

      237    12542    4                     IF DATE_CRIT.BEF(%ARCHIVED) OR DATE_CRIT.AFT(%ARCHIVED)

  12542  3 000537   000000 236000 xsym               LDQ     DATE_CRIT
         3 000540   020000 316003                    CANQ    8192,DU
         3 000541   000544 601000 3                  TNZ     s:12544
         3 000542   000400 316003                    CANQ    256,DU
         3 000543   000574 600000 3                  TZE     s:12557

      238    12543    5                     THEN DO;

PL6.E3A0      #001=FLC$CRIT_CHECK File=FLC$CRIT_CHECK.:E05TSI                    TUE 07/29/97 15:38 Page:34
      239    12544    5                         CALL XSF$LOCCODP(CODE6$,06)

  12544  3 000544   000005 630400 4                  EPPR0   5
         3 000545   000020 631400 xsym               EPPR1   B_VECTNIL+16
         3 000546   000000 701000 xent               TSX1    XSF$LOCCODP
         3 000547   000551 702000 3                  TSX2    s:12546
         3 000550   000552 710000 3                  TRA     s:12548

      240    12545    6                         WHENALTRETURN DO;

      241    12546    6                             ALTRETURN;

  12546  3 000551   000000 702200 xent               TSX2  ! X66_AALT

      242    12547    6                             END;
      243    12548    5                         IF CODE06.STOW.TIME = 0 THEN ALTRETURN;

  12548  3 000552   000010 470400 2                  LDP0    CODE6$
         3 000553   000000 235100                    LDA     0,,PR0
         3 000554   000556 601000 3                  TNZ     s:12549

  12548  3 000555   000000 702200 xent               TSX2  ! X66_AALT

      244    12549    5                         IF DATE_CRIT.BEF(%ARCHIVED)

  12549  3 000556   000000 236000 xsym               LDQ     DATE_CRIT
         3 000557   020000 316003                    CANQ    8192,DU
         3 000560   000565 600000 3                  TZE     s:12552

      245    12550    5                         THEN IF CODE06.STOW.TIME > DISK_BEF_UTS(%ARCHIVED)

  12550  3 000561   000004 236000 xsym               LDQ     DISK_BEF_UTS+4
         3 000562   000000 116100                    CMPQ    0,,PR0
         3 000563   000565 603000 3                  TRC     s:12552

      246    12551    5                             THEN BEF = '0'B;

PL6.E3A0      #001=FLC$CRIT_CHECK File=FLC$CRIT_CHECK.:E05TSI                    TUE 07/29/97 15:38 Page:35
  12551  3 000564   200006 450100                    STZ     BEF,,AUTO

      247    12552    5                         IF DATE_CRIT.AFT(%ARCHIVED)

  12552  3 000565   000000 236000 xsym               LDQ     DATE_CRIT
         3 000566   000400 316003                    CANQ    256,DU
         3 000567   000574 600000 3                  TZE     s:12557

      248    12553    5                         THEN IF CODE06.STOW.TIME < DISK_AFT_UTS(%ARCHIVED)

  12553  3 000570   000000 236100                    LDQ     0,,PR0
         3 000571   000004 116000 xsym               CMPQ    DISK_AFT_UTS+4
         3 000572   000574 603000 3                  TRC     s:12557

      249    12554    5                             THEN AFT = '0'B;

  12554  3 000573   200007 450100                    STZ     AFT,,AUTO

      250    12555    5                         END;

      251    12556    4                   END;                    /* Case(k) */

      252    12557    3                 IF DISK_AND_OP(K)

  12557  3 000574   200011 235100                    LDA     K,,AUTO
         3 000575   000000 066405                    CMPB    filb='0'B
         3 000576   000000 000001 xsym               BDSC    DISK_AND_OP,A            by=0,bit=0,n=1
         3 000577   000002 000022 xsym               BDSC    B_VECTNIL+2              by=0,bit=0,n=18
         3 000600   000611 600000 3                  TZE     s:12561

      253    12558    3                 THEN
      254    12559    3                     RESULT = BEF & AFT;

  12559  3 000601   200007 236100                    LDQ     AFT,,AUTO
         3 000602   400000 376003                    ANQ     -131072,DU
         3 000603   200014 756100                    STQ     TEMP+1,,AUTO
         3 000604   200006 236100                    LDQ     BEF,,AUTO
PL6.E3A0      #001=FLC$CRIT_CHECK File=FLC$CRIT_CHECK.:E05TSI                    TUE 07/29/97 15:38 Page:36
         3 000605   400000 376003                    ANQ     -131072,DU
         3 000606   200014 376100                    ANQ     TEMP+1,,AUTO
         3 000607   200010 756100                    STQ     RESULT,,AUTO
         3 000610   000620 710000 3                  TRA     s:12562

      255    12560    3                 ELSE
      256    12561    3                     RESULT = BEF | AFT;

  12561  3 000611   200007 236100                    LDQ     AFT,,AUTO
         3 000612   400000 376003                    ANQ     -131072,DU
         3 000613   200014 756100                    STQ     TEMP+1,,AUTO
         3 000614   200006 236100                    LDQ     BEF,,AUTO
         3 000615   400000 376003                    ANQ     -131072,DU
         3 000616   200014 276100                    ORQ     TEMP+1,,AUTO
         3 000617   200010 756100                    STQ     RESULT,,AUTO

      257    12562    3                 IF NOT RESULT

  12562  3 000620   200010 234100                    SZN     RESULT,,AUTO
         3 000621   000623 604000 3                  TMI     s:12565

      258    12563    3                 THEN
      259    12564    3                     ALTRETURN;

  12564  3 000622   000000 702200 xent               TSX2  ! X66_AALT

      260    12565    3                 END;

  12565  3 000623   000001 035007                    ADLA    1,DL
         3 000624   200011 755100                    STA     K,,AUTO
         3 000625   000005 115007                    CMPA    5,DL
         3 000626   000404 602000 3                  TNC     s:12490

      261    12566    2             END;

      262    12567
      263    12568    1         RETURN;
PL6.E3A0      #001=FLC$CRIT_CHECK File=FLC$CRIT_CHECK.:E05TSI                    TUE 07/29/97 15:38 Page:37

  12568  3 000627   000000 702200 xent               TSX2  ! X66_ARET
      264    12569
      265    12570    1   END FLC$CRIT_CHECK;

PL6.E3A0      #001=FLC$CRIT_CHECK File=FLC$CRIT_CHECK.:E05TSI                    TUE 07/29/97 15:38 Page:38
--  Include file information  --

   XUD_UTS_M.:E05TOU  is referenced.
   FM$GRAN.:E05TOU  is referenced.
   FM$FIT.:E05TOU  is referenced.
   B_MICROPS_C.:E05TOU  is referenced.
   FLB_SUBS_C.:E05TOU  is referenced.
   FLI_DATA_R.:E05TOU  cannot be made into a system file and is referenced.
   XU_SUBS_C.:E05TOU  is referenced.
   XU_MACRO_C.:E05TOU  is referenced.
   B_ERRORS_C.:E05TOU  is referenced.
   CP_6_SUBS.:E05TOU  is referenced.
   CP_6_C.:E05TOU  is referenced.
   CP_6.:E05TOU  cannot be made into a system file and is referenced.
      No diagnostics issued in procedure FLC$CRIT_CHECK.
PL6.E3A0      #001=FLC$CRIT_CHECK File=FLC$CRIT_CHECK.:E05TSI                    TUE 07/29/97 15:38 Page:39

 **** Variables and constants ****

  ****  Section 002  Data  FLC$CRIT_CHECK

  ****  Scalars and arrays  ****
OctLoc.c.b A Datatyp(siz) R M Lvl/name                 OctLoc.c.b A Datatyp(siz) R M Lvl/name

     6-0-0/w PTR         r     1 CODE4$                     7-0-0/w PTR         r     1 CODE5$
    10-0-0/w PTR         r     1 CODE6$

  ****  Auto variables  ****

  ****  Scalars and arrays  ****
OctLoc.c.b A Datatyp(siz) R M Lvl/name                 OctLoc.c.b A Datatyp(siz) R M Lvl/name

     4-0-0/w PTR         r     1 @FIT$                      3-0-0/w PTR         r     1 @P_DCB$
     7-0-0/b BIT         r     1 AFT                        6-0-0/b BIT         r     1 BEF
     5-0-0/w PTR         r     1 DCB$                      *0-0-0/w PTR         r     1 FIT$
    11-0-0/w UBIN        r     1 K                         *0-0-0/w PTR         r     1 P_DCB$
    10-0-0/b BIT         r     1 RESULT                    13-0-0/w SBIN        r     1 TEMP

  ****  SYMREF variables  ****

  ****  Scalars and arrays  ****
OctLoc.c.b A Datatyp(siz) R M Lvl/name                 OctLoc.c.b A Datatyp(siz) R M Lvl/name

     0-0-0/b STRC(12)    r     1 DATE_CRIT
     0-0-0/w UBIN        r     1 DISK_AFT_UTS(0:8191)
     0-0-0/b BIT         r     1 DISK_AND_OP(0:8191)
     0-0-0/w UBIN        r     1 DISK_BEF_UTS(0:8191)
     0-0-0/b STRC(3)     r     1 DISK_CRIT                  0-0-0/b STRC(18)    r     1 DISK_DESC
     0-0-0/b STRC(18)    r     1 DISK_DESC_MASK             0-0-0/w PTR         r     1 DISK_FILE_SPEC$
     0-0-0/w STRC(792)   r     1 DISK_ORGS                  0-0-0/w PTR         r     1 DPLIST$
     0-0-0/w PTR         r     1 DPRESLIST$                 0-0-0/w STRC(18)    r     1 FILE_TYPE
     0-0-0/c ASTR(9)     r     1 RET_CMDS_NAME              0-0-0/w PTR         r     1 SNVECLIST$
     0-0-0/w UBIN        r     1 START_UTS                  0-0-0/w PTR         r     1 TAPE_DCBLIST$

PL6.E3A0      #001=FLC$CRIT_CHECK File=FLC$CRIT_CHECK.:E05TSI                    TUE 07/29/97 15:38 Page:40
  ****  BASED and DCB variables  ****

  ****  Scalars and arrays  ****
OctLoc.c.b A Datatyp(siz) R M Lvl/name                 OctLoc.c.b A Datatyp(siz) R M Lvl/name

     0-0-0/w STRC(396)   r     1 CODE04                     0-0-0/w STRC(108)   r     1 CODE05
     0-0-0/w STRC(108)   r     1 CODE06                     0-0-0/d ASTR(3528)  r     1 F$DCB
     0-0-0/w STRC(180)   r     1 FM$GRAN


   Procedure FLC$CRIT_CHECK requires 408 words for executable code.
   Procedure FLC$CRIT_CHECK requires 16 words of local(AUTO) storage.

    No errors detected in file FLC$CRIT_CHECK.:E05TSI    .
PL6.E3A0      #001=FLC$CRIT_CHECK File=FLC$CRIT_CHECK.:E05TSI                    TUE 07/29/97 15:38 Page:41
          *** CROSS REFERENCE LISTING ***
**     DENOTES     IDENTIFIER DEFINITION
<<                 IDENTIFIER'S VALUE SET
>>                 IDENTIFIER'S VALUE USED
<>                 IDENTIFIER SET AND/OR USED
--                 IDENTIFIER REFERENCED
PL6.E3A0      #001=FLC$CRIT_CHECK File=FLC$CRIT_CHECK.:E05TSI                    TUE 07/29/97 15:38 Page:42
          MINI XREF LISTING

AFT
     12352**DCL     12421<<ASSIGN  12429<<ASSIGN  12431>>ASSIGN  12432>>ASSIGN  12491<<ASSIGN  12503<<ASSIGN
     12514<<ASSIGN  12525<<ASSIGN  12539<<ASSIGN  12554<<ASSIGN  12559>>ASSIGN  12561>>ASSIGN
BEF
     12351**DCL     12420<<ASSIGN  12425<<ASSIGN  12431>>ASSIGN  12432>>ASSIGN  12490<<ASSIGN  12498<<ASSIGN
     12509<<ASSIGN  12520<<ASSIGN  12536<<ASSIGN  12551<<ASSIGN  12559>>ASSIGN  12561>>ASSIGN
CODE04.ACCESS.TIME
     12302**DCL     12496>>IF      12501>>IF
CODE04.CREATION.TIME
     12302**DCL     12474<>CALL    12483<>CALL    12518>>IF      12523>>IF
CODE04.MODIFY.TIME
     12302**DCL     12507>>IF      12512>>IF
CODE05.BACKUP.TIME
     12306**DCL     12533>>IF      12535>>IF      12538>>IF
CODE06.STOW.EFT
     12309**DCL     12310--REDEF
CODE06.STOW.TIME
     12309**DCL     12548>>IF      12550>>IF      12553>>IF
CODE4$
     12348**DCL     12300--IMP-PTR 12440<<ASSIGN  12442<<ASSIGN  12443>>ASSIGN  12444>>ASSIGN  12466<>CALL
     12474>>CALL    12483>>CALL    12496>>IF      12501>>IF      12507>>IF      12512>>IF      12518>>IF
     12523>>IF
CODE5$
     12349**DCL     12306--IMP-PTR 12443<<ASSIGN  12529<>CALL    12533>>IF      12535>>IF      12538>>IF
CODE6$
     12350**DCL     12309--IMP-PTR 12444<<ASSIGN  12544<>CALL    12548>>IF      12550>>IF      12553>>IF
DATE_CRIT.AFT
     11438**DCL     12411>>IF      12411>>IF      12411>>IF      12411>>IF      12426>>IF      12499>>IF
     12510>>IF      12521>>IF      12527>>IF      12537>>IF      12542>>IF      12552>>IF
DATE_CRIT.BEF
     11438**DCL     12411>>IF      12411>>IF      12411>>IF      12411>>IF      12422>>IF      12494>>IF
     12505>>IF      12516>>IF      12527>>IF      12534>>IF      12542>>IF      12549>>IF
PL6.E3A0      #001=FLC$CRIT_CHECK File=FLC$CRIT_CHECK.:E05TSI                    TUE 07/29/97 15:38 Page:43
DATE_CRIT.EXPD
     11439**DCL     12471>>IF
DATE_CRIT.NOT_EXPD
     11439**DCL     12480>>IF
DCB$
        15**DCL     12234--IMP-PTR 12366<<ASSIGN  12367>>IF      12374>>IF      12374>>IF      12374>>IF
     12374>>IF      12374>>IF      12374>>IF      12374>>IF      12374>>IF      12374>>IF      12374>>IF
     12374>>IF      12374>>IF      12374>>IF      12374>>IF      12374>>IF      12374>>IF      12374>>IF
     12374>>IF      12403>>IF      12405>>IF      12424>>IF      12428>>IF      12451>>IF      12475>>IF
     12475>>IF      12480>>IF      12484>>IF
DISK_AFT_UTS
     11437**DCL     12428>>IF      12501>>IF      12512>>IF      12523>>IF      12538>>IF      12553>>IF
DISK_AND_OP
     11437**DCL     12430>>IF      12557>>IF
DISK_BEF_UTS
     11437**DCL     12424>>IF      12496>>IF      12507>>IF      12518>>IF      12535>>IF      12550>>IF
DISK_CLOSE.SN_
     11055**DCL     11055--REDEF
DISK_CLOSE.UTL_
     11056**DCL     11056--REDEF
DISK_CLOSE.V.EXPIRE#
     11070**DCL     11070--REDEF
DISK_CLOSE.V.TYPE#
     11068**DCL     11068--REDEF
DISK_CLOSE.V.XTNSIZE#
     11065**DCL     11065--REDEF   11067--REDEF
DISK_CRIT
     11438**DCL     12362>>IF
DISK_CRIT.DSC
     11438**DCL     12367>>IF
DISK_CRIT.ORG
     11438**DCL     12407>>IF      12439>>IF      12446>>IF
DISK_CRIT.TIM
     11438**DCL     12409>>IF      12463>>IF
DISK_DESC
     11428**DCL     12367>>IF
PL6.E3A0      #001=FLC$CRIT_CHECK File=FLC$CRIT_CHECK.:E05TSI                    TUE 07/29/97 15:38 Page:44
DISK_DESC_MASK
     11430**DCL     12367>>IF
DISK_FILE_SPEC.SPEC
     11420**DCL     11422--REDEF
DISK_FILE_SPEC.SPEC.START
     11421**DCL     11421--REDEF
DISK_FILE_SPEC.SPEC.STOP
     11422**DCL     11422--REDEF
DISK_FILE_SPEC$
     11419**DCL     11420--IMP-PTR
DISK_OPEN.ACSVEH_
     10920**DCL     10921--REDEF
DISK_OPEN.ALTKEYS_
     10926**DCL     10927--REDEF   10927--REDEF
DISK_OPEN.HDR_
     10925**DCL     10926--REDEF
DISK_OPEN.TAB_
     10924**DCL     10925--REDEF
DISK_OPEN.UHL_
     10918**DCL     10919--REDEF   10919--REDEF
DISK_OPEN.V.FSN#
     10958**DCL     10958--REDEF   10958--REDEF
DISK_OPEN.WSN_
     10924**DCL     10924--REDEF
DISK_ORGS.NBR
     11436**DCL     12450>>DOINDEX
DISK_ORGS.ORG
     11437**DCL     12451>>IF
DISK_READ.STATION_
     10982**DCL     10983--REDEF
DISK_READ.V.DVBYTE.REREAD#
     10994**DCL     10994--REDEF
DISK_READ.V.INDX#
     10992**DCL     10992--REDEF
DISK_WRITE.STATION_
     11020**DCL     11020--REDEF
PL6.E3A0      #001=FLC$CRIT_CHECK File=FLC$CRIT_CHECK.:E05TSI                    TUE 07/29/97 15:38 Page:45
DISK_WRITE.V.DVBYTE.VFC#
     11027**DCL     11027--REDEF
DPLIST$
     11405**DCL     11417--IMP-PTR
DPRESLIST$
     11419**DCL     11419--IMP-PTR
EFTWORD
     11540**DCL     11540--REDEF
F$DCB.ACTPOS
     12266**DCL     12266--REDEF
F$DCB.ARS#
     12240**DCL     12240--REDEF
F$DCB.ATTR
     12259**DCL     12260--REDEF
F$DCB.BORROW
     12274**DCL     12274--REDEF   12274--REDEF   12274--REDEF
F$DCB.DCBNAME.L
     12288**DCL     12288--IMP-SIZ
F$DCB.DESC
     12247**DCL     12367>>IF
F$DCB.DESC.ACTIVE#
     12249**DCL     12374>>IF      12374>>IF
F$DCB.DESC.ARCHIVE#
     12248**DCL     12374>>IF      12374>>IF      12374>>IF      12374>>IF      12374>>IF      12405>>IF
F$DCB.DESC.BUF#
     12248**DCL     12374>>IF
F$DCB.DESC.DELF#
     12247**DCL     12374>>IF      12374>>IF      12374>>IF      12403>>IF
F$DCB.DESC.FETCH#
     12249**DCL     12374>>IF      12374>>IF      12374>>IF
F$DCB.DESC.QS#
     12248**DCL     12374>>IF      12374>>IF      12374>>IF      12374>>IF
F$DCB.EOMCHAR#
     12244**DCL     12244--REDEF
F$DCB.EXPIRE#
     12257**DCL     12424>>IF      12428>>IF      12475>>IF      12475>>IF      12480>>IF      12484>>IF
PL6.E3A0      #001=FLC$CRIT_CHECK File=FLC$CRIT_CHECK.:E05TSI                    TUE 07/29/97 15:38 Page:46
F$DCB.FLDID
     12269**DCL     12269--REDEF
F$DCB.FORM$
     12263**DCL     12263--REDEF
F$DCB.FSECT
     12279**DCL     12279--REDEF
F$DCB.FSN#
     12256**DCL     12256--REDEF   12256--REDEF   12257--REDEF
F$DCB.HEADER$
     12262**DCL     12262--REDEF
F$DCB.IXTNSIZE#
     12260**DCL     12260--REDEF
F$DCB.LASTSTA$
     12249**DCL     12249--REDEF
F$DCB.LVL
     12275**DCL     12275--REDEF
F$DCB.NAME#.C
     12250**DCL     12250--REDEF
F$DCB.NOEOF
     12272**DCL     12272--REDEF
F$DCB.NRECS#
     12261**DCL     12261--REDEF
F$DCB.NRECX
     12280**DCL     12280--REDEF
F$DCB.OHDR
     12272**DCL     12272--REDEF
F$DCB.ORG#
     12255**DCL     12255--REDEF   12451>>IF
F$DCB.PRECNO
     12278**DCL     12278--REDEF
F$DCB.RCSZ
     12284**DCL     12284--REDEF
F$DCB.RES#
     12251**DCL     12251--REDEF
F$DCB.SETX
     12263**DCL     12263--REDEF
PL6.E3A0      #001=FLC$CRIT_CHECK File=FLC$CRIT_CHECK.:E05TSI                    TUE 07/29/97 15:38 Page:47
F$DCB.TAB$
     12263**DCL     12263--REDEF
F$DCB.TDA
     12277**DCL     12278--REDEF
F$DCB.WSN#
     12251**DCL     12251--REDEF
FILE_TYPE
     11435**DCL     12362>>IF      12372>>IF
FILE_TYPE.A
     11435**DCL     12374>>IF
FILE_TYPE.BUF
     11436**DCL     12374>>IF
FILE_TYPE.DF
     11436**DCL     12374>>IF
FILE_TYPE.FA
     11436**DCL     12374>>IF
FILE_TYPE.I
     11436**DCL     12374>>IF
FILE_TYPE.SA
     11436**DCL     12374>>IF
FILE_TYPE.SI
     11436**DCL     12374>>IF
FIT$
        16**DCL        13--PROC    12440>>ASSIGN  12442>>ASSIGN
FM$GRAN
     12294**DCL     12442--ASSIGN
FPT_EXIT.V.STEPCC#
     10845**DCL     10845--REDEF
K
     12354**DCL     12450<<DOINDEX 12451>>IF      12489<<DOINDEX 12492>>DOCASE  12557>>IF
PRE_RET_CLOSE.SN_
     11783**DCL     11783--REDEF
PRE_RET_CLOSE.UTL_
     11784**DCL     11784--REDEF
PRE_RET_CLOSE.V.EXPIRE#
     11798**DCL     11798--REDEF
PL6.E3A0      #001=FLC$CRIT_CHECK File=FLC$CRIT_CHECK.:E05TSI                    TUE 07/29/97 15:38 Page:48
PRE_RET_CLOSE.V.TYPE#
     11796**DCL     11796--REDEF
PRE_RET_CLOSE.V.XTNSIZE#
     11793**DCL     11793--REDEF   11795--REDEF
PRE_RET_OPEN.ACSVEH_
     11718**DCL     11719--REDEF
PRE_RET_OPEN.ALTKEYS_
     11724**DCL     11725--REDEF   11725--REDEF
PRE_RET_OPEN.HDR_
     11723**DCL     11724--REDEF
PRE_RET_OPEN.TAB_
     11722**DCL     11723--REDEF
PRE_RET_OPEN.UHL_
     11716**DCL     11717--REDEF   11717--REDEF
PRE_RET_OPEN.V.FSN#
     11756**DCL     11756--REDEF   11756--REDEF
PRE_RET_OPEN.WSN_
     11722**DCL     11722--REDEF
PRE_RET_READ.STATION_
     11573**DCL     11574--REDEF
PRE_RET_READ.V.DVBYTE.REREAD#
     11585**DCL     11585--REDEF
PRE_RET_READ.V.INDX#
     11583**DCL     11583--REDEF
PRE_RET_WRITE.STATION_
     11611**DCL     11611--REDEF
PRE_RET_WRITE.V.DVBYTE.VFC#
     11618**DCL     11618--REDEF
P_DCB$
        14**DCL        13--PROC    12366>>ASSIGN
RESULT
     12353**DCL     12431<<ASSIGN  12432<<ASSIGN  12433>>IF      12449<<ASSIGN  12454<<ASSIGN  12458>>IF
     12559<<ASSIGN  12561<<ASSIGN  12562>>IF
RET_CMDS_NAME.L#
     11827**DCL     11827--IMP-SIZ
SNVECLIST$
PL6.E3A0      #001=FLC$CRIT_CHECK File=FLC$CRIT_CHECK.:E05TSI                    TUE 07/29/97 15:38 Page:49
     11359**DCL     11359--IMP-PTR
SPEC.START
     11423**DCL     11424--REDEF
SPEC.STOP
     11424**DCL     11425--REDEF
SPECCHARS
     11423**DCL     11423--REDEF
START_UTS
     11404**DCL     12474<>CALL    12483<>CALL
TAPE_CLOSE.SN_
     11276**DCL     11276--REDEF
TAPE_CLOSE.UTL_
     11277**DCL     11277--REDEF
TAPE_CLOSE.V.EXPIRE#
     11291**DCL     11291--REDEF
TAPE_CLOSE.V.TYPE#
     11289**DCL     11289--REDEF
TAPE_CLOSE.V.XTNSIZE#
     11286**DCL     11286--REDEF   11288--REDEF
TAPE_DCBLIST$
     10832**DCL     10832--IMP-PTR
TAPE_OPEN.ACSVEH_
     11141**DCL     11142--REDEF
TAPE_OPEN.ALTKEYS_
     11147**DCL     11148--REDEF   11148--REDEF
TAPE_OPEN.HDR_
     11146**DCL     11147--REDEF
TAPE_OPEN.TAB_
     11145**DCL     11146--REDEF
TAPE_OPEN.UHL_
     11139**DCL     11140--REDEF   11140--REDEF
TAPE_OPEN.V.FSN#
     11179**DCL     11179--REDEF   11179--REDEF
TAPE_OPEN.WSN_
     11145**DCL     11145--REDEF
TAPE_READ.STATION_
PL6.E3A0      #001=FLC$CRIT_CHECK File=FLC$CRIT_CHECK.:E05TSI                    TUE 07/29/97 15:38 Page:50
     11203**DCL     11204--REDEF
TAPE_READ.V.DVBYTE.REREAD#
     11215**DCL     11215--REDEF
TAPE_READ.V.INDX#
     11213**DCL     11213--REDEF
TAPE_WRITE.STATION_
     11241**DCL     11241--REDEF
TAPE_WRITE.V.DVBYTE.VFC#
     11248**DCL     11248--REDEF
TEMP
     12356**DCL     12474<>CALL    12475>>IF      12483<>CALL    12484>>IF
TVECTOR.W2
     11372**DCL     11373--REDEF
XSF$LOCCODP
     12347**DCL-ENT 12466--CALL    12529--CALL    12544--CALL
XUD$UTS_DIFF_SEC
     12319**DCL-ENT 12474--CALL    12483--CALL
