PL6.E3A0      #006=FLC$TAPE_OPEN File=FLC$ROUTINES.:E05TSI                       TUE 07/29/97 15:43 Page:206
      806        1        /*T***********************************************************/
      807        2        /*T*                                                         */
      808        3        /*T* Copyright (c) Bull HN Information Systems Inc., 1997    */
      809        4        /*T*                                                         */
      810        5        /*T***********************************************************/
      811        6        FLC$TAPE_OPEN: PROC( ERR ) ALTRET;
      812        7        /*F*  NAME: FLC$TAPE_OPEN
      813        8              PURPOSE: Open next file on tape and allocate enough buffer
      814        9                 space to read its largest record.
      815       10        */
      816       11
      817       12        /***
      818       13         *** INCLUDE
      819       14         ***/
      820       15
      821       16        %INCLUDE CP_6;
      822     5575        %INCLUDE B_ERRORS_C;
      823     6702        %INCLUDE FLI_DATA_R;
      824     8116        %INCLUDE FLS_DATA_R;
      825     9916        %INCLUDE FLE_DATA_R;
      826    15867        %INCLUDE CP_6_SUBS;
      827    16407
      828    16408        /***
      829    16409         *** ENTRY
      830    16410         ***/
      831    16411
      832    16412    1   DCL FLI$ALLOC_BUF ENTRY(2);
      833    16413    1   DCL FLI$RPT_ERR ENTRY(5);
      834    16414
      835    16415        /***
      836    16416         *** SYMREF
      837    16417         ***/
      838    16418
      839    16419    1   DCL BREAK_CONTINUED BIT(1) SYMREF;
      840    16420
      841    16421        /***
      842    16422         *** PARAMETERS
PL6.E3A0      #006=FLC$TAPE_OPEN File=FLC$ROUTINES.:E05TSI                       TUE 07/29/97 15:43 Page:207
      843    16423         ***/
      844    16424
      845    16425    1   DCL 1 ERR ALIGNED,
      846    16426    1         2 FCG BIT(12) UNAL,
      847    16427    1         2 MID BIT(6) UNAL,
      848    16428    1         2 MON BIT(1) UNAL,
      849    16429    1         2 CODE UBIN(14) UNAL,
      850    16430    1         2 SEV UBIN(3) UNAL;
      851    16431
      852    16432        /***
      853    16433         *** STATIC
      854    16434         ***/
      855    16435
      856    16436    1   DCL SIZE UBIN WORD STATIC;
      857    16437    1   DCL DCB# UBIN WORD AUTO;
      858    16438        %VLP_VECTOR( FPTN=INCR_BUF_ );
      859    16453
      860    16454        /***
      861    16455         *** BASED
      862    16456         ***/
      863    16457
      864    16458        %F$DCB( BASED="BASED(M$TAPE00$)" );
      865    16515        %B$TCB( STCLASS="BASED(B$TCB$)" );
      866    16518        %B$ALT;
      867    16526
      868    16527        /****************************************/
      869    16528
      870    16529    1      IF TAPE_OPEN.V.VOL# > 0 AND TAPE_OPEN.V.FSN# = 0
      871    16530    2       THEN DO;
      872    16531    2         TAPE_OPEN.V.OPER.MNTONLY# = %YES#;
      873    16532    2   SMALL_LOOP:
      874    16533    3         DO WHILE ( '1'B );
      875    16534    3   RETRY_OPEN:
      876    16535    3            CALL M$OPEN ( TAPE_OPEN )
      877    16536    4             WHENRETURN DO;
      878    16537        /***
      879    16538         *** If an I/O error and I/O continue spec'd, continue performing mounts
PL6.E3A0      #006=FLC$TAPE_OPEN File=FLC$ROUTINES.:E05TSI                       TUE 07/29/97 15:43 Page:208
      880    16539         *** until a good volume is found.
      881    16540         ***/
      882    16541    4               IF ( F$DCB.TYC.IOERR# AND TAPE_OPEN.V.IOERROK# )
      883    16542    5                THEN DO;
      884    16543    5                  ERR = E_IO_ERR;
      885    16544    5                  DCB# = TAPE_OPEN.V.DCB#;
      886    16545    5                  CALL FLI$RPT_ERR( ERR, DCB# );
      887    16546    5                  IF FPT_EXIT.V.STEPCC# < %TAPE_ERROR
      888    16547    5                   THEN FPT_EXIT.V.STEPCC# = %TAPE_ERROR;
      889    16548    5                  TAPE_REMOVE.V.PSN# = F$DCB.PSN#;
      890    16549    5                  CALL M$REM( TAPE_REMOVE )
      891    16550    6                   WHENALTRETURN DO;
      892    16551    6                     END;
      893    16552    5                  TAPE_OPEN.V.VOL# = TAPE_OPEN.V.VOL# + 1;
      894    16553    5                  GOTO RETRY_OPEN;
      895    16554    5                  END;
      896    16555
      897    16556    4               ERR= '0'B;
      898    16557    4               IF F$DCB.FSECT > 1
      899    16558    4                THEN TAPE_OPEN.V.FSN# = F$DCB.FSN# + 1;
      900    16559    4                ELSE TAPE_OPEN.V.FSN# = F$DCB.FSN#; /* has to be specified       */
      901    16560                                                /* since THISF# will be.              */
      902    16561    4               TAPE_OPEN.V.OPER.MNTONLY# = %NO#;
      903    16562    4               TAPE_OPEN.V.OPER.THISF# = %YES#;
             16562                        /* If not set, will try to open the 1st FSN */
      904    16563    4               EXIT SMALL_LOOP;
      905    16564    4               END;
      906    16565    4             WHENALTRETURN DO;
      907    16566    4               IF NOT ( B$TCB.ALT$->B$ALT.ERR.CODE = %E$VOLERR
      908    16567    4                 AND ERR = E_IO_ERR ) /* Err trying to get nxt vol on I/O cont.? */
      909    16568    5                THEN DO;
      910    16569    5                  ERR = B$TCB.ALT$ -> B$ALT.ERR; /* Nope, report err             */
      911    16570    5                  CALL FLI$RPT_ERR;
      912    16571    5                  END;
      913    16572
      914    16573    4               IF NOT ( ERR.CODE = %E$MNTBRK AND BREAK_CONTINUED )
      915    16574    5                THEN DO;
PL6.E3A0      #006=FLC$TAPE_OPEN File=FLC$ROUTINES.:E05TSI                       TUE 07/29/97 15:43 Page:209
      916    16575    5                  IF ERR.CODE ~= %E$MNTBRK
      917    16576    5                   THEN IF FPT_EXIT.V.STEPCC# < %TAPE_ERROR
      918    16577    5                      THEN FPT_EXIT.V.STEPCC# = %TAPE_ERROR;
      919    16578    5                  TAPE_BAD = '1'B;
      920    16579    5                  ALTRETURN;
      921    16580    5                  END;
      922    16581    4               END;
      923    16582    3            END;
      924    16583    2         END;
      925    16584
      926    16585    2      DO WHILE( '1'B );
      927    16586    2         CALL M$OPEN( TAPE_OPEN )
      928    16587    3          WHENRETURN DO;
      929    16588        /***
      930    16589         *** If an I/O error when I/O continue spec'd, skip out to next EFT_RESTRICT_FILE
      931    16590         *** on input tape after writing error msge. Possibility of running off end of
      932    16591         *** reel if last file on tape and is bad.
      933    16592         ***/
      934    16593    3            IF ( F$DCB.TYC.IOERR# AND TAPE_OPEN.V.IOERROK# )
      935    16594    4             THEN DO;
      936    16595    4               DCB# = TAPE_OPEN.V.DCB#;
      937    16596    4               CALL FLI$RPT_ERR( E_IO_ERR, DCB# );
      938    16597    4               IF FPT_EXIT.V.STEPCC# < %TAPE_ERROR
      939    16598    4                THEN FPT_EXIT.V.STEPCC# = %TAPE_ERROR;
      940    16599    4               TAPE_OPEN.V.OPER.THISF# = %NO#;
      941    16600    4               TAPE_OPEN.V.FINDPOS# = %YES#;
      942    16601    4               CALL M$OPEN( TAPE_OPEN )    /* Open next good tape file           */
      943    16602    5                WHENRETURN DO;
      944    16603    5                  CALL FLI$RPT_ERR( E_FILES_SKIPPED ); /* Output "files skipped" */
      945    16604    5                  TAPE_OPEN.V.FINDPOS# = %NO#;
      946    16605    5                  END;
      947    16606    5                WHENALTRETURN DO;
      948    16607    5                  TAPE_OPEN.V.FINDPOS# = %NO#; /* Can't get past tape error      */
      949    16608    5                  TAPE_OPEN.V.OPER.THISF# = %NO#;
      950    16609    5                  GOTO TAPE_OPEN_ALT;
      951    16610    5                  END;
      952    16611    4               END;
PL6.E3A0      #006=FLC$TAPE_OPEN File=FLC$ROUTINES.:E05TSI                       TUE 07/29/97 15:43 Page:210
      953    16612
      954    16613    3            TAPE_OPEN.V.OPER.THISF# = %NO#;
      955    16614    3            TAPE_OPEN.V.INITZ.SCRUB# = %NO#;
      956    16615    3            TAPE_OPEN.NAME_ = VECTOR(ERASE);
      957    16616    3            TAPE_OPEN.V.FSN# = 0;
      958    16617    3            TAPE_OPEN.V.VOL# = 0;
      959    16618    3            IF F$DCB.ORG# = %RESTRICT#
      960    16619    3              AND F$DCB.NAME#.C = EFT_RESTRICT_FILE.NAME#
      961    16620    4             THEN DO;
      962    16621    5               IF F$DCB.BLKL# > TAPE_BLOCK_SIZE THEN DO;
      963    16622    5                  SIZE = (F$DCB.BLKL# - TAPE_BLOCK_SIZE + 4095) / 4096;
      964    16623    5                  CALL FLI$ALLOC_BUF( INCR_BUF_, SIZE );
      965    16624    5                  TAPE_BLOCK_.W1.VSIZE# = TAPE_BLOCK_.W1.VSIZE# + SIZE * 4096;
      966    16625    5                  TAPE_BLOCK_SIZE = TAPE_BLOCK_SIZE + SIZE*4096;
      967    16626    5                  END;
      968    16627    4               TAPE_READ.BUF_ = TAPE_BLOCK_;
      969    16628    4               ERR = '0'B;
      970    16629    4               BLK_TAG$ = PINCRW( TAPE_BLOCK_.PTR$, -SIZEW(BLK_TAG) );
      971    16630    4               TAPE_SN = F$DCB.PSN#;
      972    16631    4               TAPE_FSN = F$DCB.FSN#;
      973    16632    4               RETURN;
      974    16633    4               END;
      975    16634    4             ELSE DO;                      /* Skip non-packed file               */
      976    16635    4               CALL M$CLOSE( TAPE_CLOSE )
      977    16636    5                WHENRETURN DO;
      978    16637    5                  IF F$DCB.FSN# >= LAST_TAPE_FSN AND LAST_TAPE_FSN ~= 0
      979    16638    6                   THEN DO;                /* Stop now                           */
      980    16639    6                     ERR = '0'B;
             16639                              /* Probably should use a more explicit error message */
      981    16640    6                     ALTRETURN;
      982    16641    6                     END;
      983    16642    5                  TAPE_OPEN.V.RES# = F$DCB.RES#;
      984    16643    5                  END;
      985    16644    5                WHENALTRETURN DO;
      986    16645    5                  CALL FLI$RPT_ERR;
      987    16646    5                  ERR = B$TCB.ALT$->B$ALT.ERR;
      988    16647    5                  TAPE_BAD = '1'B;
PL6.E3A0      #006=FLC$TAPE_OPEN File=FLC$ROUTINES.:E05TSI                       TUE 07/29/97 15:43 Page:211
      989    16648    5                  IF FPT_EXIT.V.STEPCC# < %TAPE_ERROR
      990    16649    5                   THEN FPT_EXIT.V.STEPCC# = %TAPE_ERROR;
      991    16650    5                  ALTRETURN;
      992    16651    5                  END;
      993    16652    4               END;
      994    16653    3            END;
      995    16654    3          WHENALTRETURN DO;
      996    16655    3   TAPE_OPEN_ALT: ;
      997    16656    3            ERR = B$TCB.ALT$->B$ALT.ERR;
      998    16657    3            IF ERR.CODE ~= %E$EOSET
      999    16658    3             THEN CALL FLI$RPT_ERR;
     1000    16659    3             ELSE ALTRETURN;
     1001    16660    3            IF NOT( ERR.CODE = %E$MNTBRK AND BREAK_CONTINUED )
     1002    16661    4             THEN DO;
     1003    16662    4               IF ERR.CODE ~= %E$MNTBRK
     1004    16663    4                THEN IF FPT_EXIT.V.STEPCC# < %TAPE_ERROR
     1005    16664    4                   THEN FPT_EXIT.V.STEPCC# = %TAPE_ERROR;
     1006    16665    4               TAPE_BAD = '1'B;
     1007    16666    4               ALTRETURN;
     1008    16667    4               END;
     1009    16668    3            END;
     1010    16669    2         END;
     1011    16670    1   END FLC$TAPE_OPEN;
     1012    16671        %EOD;

PL6.E3A0      #006=FLC$TAPE_OPEN File=FLC$ROUTINES.:E05TSI                       TUE 07/29/97 15:43 Page:212
--  Include file information  --

   CP_6_SUBS.:E05TOU  is referenced.
   FL_PERR_C.:E05TOU  is referenced.
   FLE_DATA_R.:E05TOU  cannot be made into a system file and is referenced.
   FLS_DATA_R.:E05TOU  cannot be made into a system file and is referenced.
   B_MICROPS_C.:E05TOU  is referenced.
   FLB_SUBS_C.:E05TOU  is referenced.
   FLI_DATA_R.:E05TOU  cannot be made into a system file and is referenced.
   B_ERRORS_C.:E05TOU  is referenced.
   CP_6_C.:E05TOU  is referenced.
   CP_6.:E05TOU  cannot be made into a system file and is referenced.
      No diagnostics issued in procedure FLC$TAPE_OPEN.

   Procedure FLC$TAPE_OPEN requires 282 words for executable code.
   Procedure FLC$TAPE_OPEN requires 8 words of local(AUTO) storage.

PL6.E3A0      #006=FLC$TAPE_OPEN File=FLC$ROUTINES.:E05TSI                       TUE 07/29/97 15:43 Page:213

 Object Unit name= FLC$TAPE_OPEN                              File name= FLC$ROUTINES.:E05TOU
 UTS= JUL 29 '97 15:43:24.24 TUE                              Compiler= PL-6/E31         Sev=      00
 SharedLib= :SHARED_SYSTEM                                    Alt SharedLib=


    ****  Control sections  ****

 Sect   Type Bound  Init  Size OctSiz  Section name(segment info)
    0   DCB   even  none     0      0  M$UC
    1   DCB   even  none     0      0  M$PRE_RET
    2   Data  even  none    24     30  FLC$TAPE_OPEN
    3   DCB   even  none     0      0  M$TSN_USED
    4   DCB   even  none     0      0  M$STATUS
    5   DCB   even  none     0      0  M$REBUILD
    6   DCB   even  none     0      0  M$ARCHIVE
    7   DCB   even  none     0      0  M$NODATA_LIST
    8   Proc  even  none   282    432  FLC$TAPE_OPEN
    9  RoData even  none    10     12  FLC$TAPE_OPEN

    ****  Entry defs  ****

                              Check   Calling
                             calling  sequence
  Sect OctLoc Primary Altret sequence   type   Parms  Name
     8      0   yes    yes     yes      Std        1  FLC$TAPE_OPEN

  ****  Entry refs  ****

         Check        Calling
        calling       sequence
Altret sequence SRef   type   Args  Name
         yes           Std       5 FLI$RPT_ERR
         yes           Std       2 FLI$ALLOC_BUF
                       nStd      0 X66_AUTO_1
                       Std       0 B_CONSPOOL_D
                       nStd      0 X66_AALT
                       nStd      0 X66_ARET
PL6.E3A0      #006=FLC$TAPE_OPEN File=FLC$ROUTINES.:E05TSI                       TUE 07/29/97 15:43 Page:214

  ****  Data refs  ****

  Flags:  r = read only, s = secondary
Flgs Name                             Flgs Name                             Flgs Name
     M$UC                                  TAPE_DCBLIST$                         FPT_EXIT
     TAPE_OPEN                             TAPE_READ                             TAPE_CLOSE
     TAPE_REMOVE                           SNVECLIST$                            B$TCB$
     DPLIST$                               DPRESLIST$                            DISK_FILE_SPEC$
     SPECCHARS                             LAST_TAPE_FSN                         EFTWORD
     M$PRE_RET                             RET_CMDS_NAME                         M$TSN_USED
     M$STATUS                              M$REBUILD                             M$ARCHIVE
     M$NODATA_LIST                         M$TAPE00$                             BLK_TAG$
     BLK_TAG0$                             NBR_BYTES_TO_MOVE                     DISK_GRAN$
     BLOCK_GRAN$                           TAPE_BLOCK_                           TAPE_BLOCK_SIZE
r    EFT_CVOL_FILE                    r    EFT_RESTRICT_FILE                     TAPE_SN
     TAPE_FSN                              TAPE_BAD                              TSN_USED_NAME
     BACKUP_NAME                      r    ARCHIVE_NAME                     r    PRIME_FILE
r    DUAL_FILE                             REBUILD_NAME                          REBUILD_DIR_KEY
     REBUILD_KEY                           NODATA_FILE_NAME                      NODATA_KEY
r    E_IO_ERR                         r    E_FILES_SKIPPED                       BREAK_CONTINUED
     B_VECTNIL

  ****  Segment refs  ****

  Flags:  r = read only, s = secondary
Flgs Name                             Flgs Name                             Flgs Name
     ISSID                                 NULLSID
PL6.E3A0      #006=FLC$TAPE_OPEN File=FLC$ROUTINES.:E05TSI                       TUE 07/29/97 15:43 Page:215


      806        1        /*T***********************************************************/
      807        2        /*T*                                                         */
      808        3        /*T* Copyright (c) Bull HN Information Systems Inc., 1997    */
      809        4        /*T*                                                         */
      810        5        /*T***********************************************************/
      811        6        FLC$TAPE_OPEN: PROC( ERR ) ALTRET;

      6  8 000000   000000 700200 xent  FLC$TAPE_OP* TSX0  ! X66_AUTO_1
         8 000001   000010 000001                    ZERO    8,1

      812        7        /*F*  NAME: FLC$TAPE_OPEN
      813        8              PURPOSE: Open next file on tape and allocate enough buffer
      814        9                 space to read its largest record.
      815       10        */
      816       11
      817       12        /***
      818       13         *** INCLUDE
      819       14         ***/
      820       15
      821       16        %INCLUDE CP_6;
      822     5575        %INCLUDE B_ERRORS_C;
      823     6702        %INCLUDE FLI_DATA_R;
      824     8116        %INCLUDE FLS_DATA_R;
      825     9916        %INCLUDE FLE_DATA_R;
      826    15867        %INCLUDE CP_6_SUBS;
      827    16407
      828    16408        /***
      829    16409         *** ENTRY
      830    16410         ***/
      831    16411
      832    16412    1   DCL FLI$ALLOC_BUF ENTRY(2);
      833    16413    1   DCL FLI$RPT_ERR ENTRY(5);
      834    16414
      835    16415        /***
      836    16416         *** SYMREF
      837    16417         ***/
PL6.E3A0      #006=FLC$TAPE_OPEN File=FLC$ROUTINES.:E05TSI                       TUE 07/29/97 15:43 Page:216
      838    16418
      839    16419    1   DCL BREAK_CONTINUED BIT(1) SYMREF;
      840    16420
      841    16421        /***
      842    16422         *** PARAMETERS
      843    16423         ***/
      844    16424
      845    16425    1   DCL 1 ERR ALIGNED,
      846    16426    1         2 FCG BIT(12) UNAL,
      847    16427    1         2 MID BIT(6) UNAL,
      848    16428    1         2 MON BIT(1) UNAL,
      849    16429    1         2 CODE UBIN(14) UNAL,
      850    16430    1         2 SEV UBIN(3) UNAL;
      851    16431
      852    16432        /***
      853    16433         *** STATIC
      854    16434         ***/
      855    16435
      856    16436    1   DCL SIZE UBIN WORD STATIC;
      857    16437    1   DCL DCB# UBIN WORD AUTO;
      858    16438        %VLP_VECTOR( FPTN=INCR_BUF_ );
      859    16453
      860    16454        /***
      861    16455         *** BASED
      862    16456         ***/
      863    16457
      864    16458        %F$DCB( BASED="BASED(M$TAPE00$)" );
      865    16515        %B$TCB( STCLASS="BASED(B$TCB$)" );
      866    16518        %B$ALT;
      867    16526
      868    16527        /****************************************/
      869    16528
      870    16529    1      IF TAPE_OPEN.V.VOL# > 0 AND TAPE_OPEN.V.FSN# = 0

  16529  8 000002   000061 236000 xsym               LDQ     TAPE_OPEN+49
         8 000003   777000 316003                    CANQ    -512,DU
         8 000004   000150 600000 8                  TZE     s:16586
PL6.E3A0      #006=FLC$TAPE_OPEN File=FLC$ROUTINES.:E05TSI                       TUE 07/29/97 15:43 Page:217
         8 000005   000066 220000 xsym               LDX0    TAPE_OPEN+54
         8 000006   000150 601000 8                  TNZ     s:16586

      871    16530    2       THEN DO;

      872    16531    2         TAPE_OPEN.V.OPER.MNTONLY# = %YES#;

  16531  8 000007   001000 236007                    LDQ     512,DL
         8 000010   000044 256000 xsym               ORSQ    TAPE_OPEN+36

      873    16532    2   SMALL_LOOP:
      874    16533    3         DO WHILE ( '1'B );

  16533  8 000011                       SMALL_LOOP   null
      875    16534    3   RETRY_OPEN:
      876    16535    3            CALL M$OPEN ( TAPE_OPEN )

  16535  8 000011   000000 630400 xsym  RETRY_OPEN   EPPR0   TAPE_OPEN
         8 000012   450000 713400                    CLIMB   alt,open
         8 000013   410400 401760                    pmme    nvectors=18
         8 000014   000105 702000 8                  TSX2    s:16566

      877    16536    4             WHENRETURN DO;

      878    16537        /***
      879    16538         *** If an I/O error and I/O continue spec'd, continue performing mounts
      880    16539         *** until a good volume is found.
      881    16540         ***/
      882    16541    4               IF ( F$DCB.TYC.IOERR# AND TAPE_OPEN.V.IOERROK# )

  16541  8 000015   000000 470400 xsym               LDP0    M$TAPE00$
         8 000016   000002 430100                    FSZN    2,,PR0
         8 000017   000064 605000 8                  TPL     s:16556
         8 000020   000060 236000 xsym               LDQ     TAPE_OPEN+48
         8 000021   003000 316003                    CANQ    1536,DU
         8 000022   000064 600000 8                  TZE     s:16556

PL6.E3A0      #006=FLC$TAPE_OPEN File=FLC$ROUTINES.:E05TSI                       TUE 07/29/97 15:43 Page:218
      883    16542    5                THEN DO;

      884    16543    5                  ERR = E_IO_ERR;

  16543  8 000023   000000 236000 xsym               LDQ     E_IO_ERR
         8 000024   200003 471500                    LDP1    @ERR,,AUTO
         8 000025   100000 756100                    STQ     0,,PR1

      885    16544    5                  DCB# = TAPE_OPEN.V.DCB#;

  16544  8 000026   000044 235000 xsym               LDA     TAPE_OPEN+36
         8 000027   000022 771000                    ARL     18
         8 000030   200004 755100                    STA     DCB#,,AUTO

      886    16545    5                  CALL FLI$RPT_ERR( ERR, DCB# );

  16545  8 000031   200004 630500                    EPPR0   DCB#,,AUTO
         8 000032   200007 450500                    STP0    DCB#+3,,AUTO
         8 000033   200003 236100                    LDQ     @ERR,,AUTO
         8 000034   200006 756100                    STQ     DCB#+2,,AUTO
         8 000035   200006 630500                    EPPR0   DCB#+2,,AUTO
         8 000036   000020 631400 xsym               EPPR1   B_VECTNIL+16
         8 000037   000000 701000 xent               TSX1    FLI$RPT_ERR
         8 000040   000000 011000                    NOP     0

      887    16546    5                  IF FPT_EXIT.V.STEPCC# < %TAPE_ERROR

  16546  8 000041   000004 236000 xsym               LDQ     FPT_EXIT+4
         8 000042   777000 376003                    ANQ     -512,DU
         8 000043   004000 116003                    CMPQ    2048,DU
         8 000044   000047 603000 8                  TRC     s:16548

      888    16547    5                   THEN FPT_EXIT.V.STEPCC# = %TAPE_ERROR;

  16547  8 000045   004000 236003                    LDQ     2048,DU
         8 000046   000004 552040 xsym               STBQ    FPT_EXIT+4,'40'O

PL6.E3A0      #006=FLC$TAPE_OPEN File=FLC$ROUTINES.:E05TSI                       TUE 07/29/97 15:43 Page:219
      889    16548    5                  TAPE_REMOVE.V.PSN# = F$DCB.PSN#;

  16548  8 000047   000000 470400 xsym               LDP0    M$TAPE00$
         8 000050   040000 100500                    MLR     fill='040'O
         8 000051   000024 000006                    ADSC9   20,,PR0                  cn=0,n=6
         8 000052   000002 400006 xsym               ADSC9   TAPE_REMOVE+2            cn=2,n=6

      890    16549    5                  CALL M$REM( TAPE_REMOVE )

  16549  8 000053   000000 630400 xsym               EPPR0   TAPE_REMOVE
         8 000054   460006 713400                    CLIMB   alt,+24582
         8 000055   400000 401760                    pmme    nvectors=1
         8 000056   000060 702000 8                  TSX2    s:16552
         8 000057   000060 710000 8                  TRA     s:16552

      891    16550    6                   WHENALTRETURN DO;

      892    16551    6                     END;

      893    16552    5                  TAPE_OPEN.V.VOL# = TAPE_OPEN.V.VOL# + 1;

  16552  8 000060   000061 236000 xsym               LDQ     TAPE_OPEN+49
         8 000061   001000 036003                    ADLQ    512,DU
         8 000062   000061 552040 xsym               STBQ    TAPE_OPEN+49,'40'O

      894    16553    5                  GOTO RETRY_OPEN;

  16553  8 000063   000011 710000 8                  TRA     SMALL_LOOP

      895    16554    5                  END;
      896    16555
      897    16556    4               ERR= '0'B;

  16556  8 000064   200003 471500                    LDP1    @ERR,,AUTO
         8 000065   100000 450100                    STZ     0,,PR1

      898    16557    4               IF F$DCB.FSECT > 1
PL6.E3A0      #006=FLC$TAPE_OPEN File=FLC$ROUTINES.:E05TSI                       TUE 07/29/97 15:43 Page:220

  16557  8 000066   000000 470400 xsym               LDP0    M$TAPE00$
         8 000067   000077 220100                    LDX0    63,,PR0
         8 000070   000002 100003                    CMPX0   2,DU
         8 000071   000076 602000 8                  TNC     s:16559

      899    16558    4                THEN TAPE_OPEN.V.FSN# = F$DCB.FSN# + 1;

  16558  8 000072   000034 221100                    LDX1    28,,PR0
         8 000073   000001 622011                    EAX2    1,X1
         8 000074   000066 742000 xsym               STX2    TAPE_OPEN+54
         8 000075   000100 710000 8                  TRA     s:16561

      900    16559    4                ELSE TAPE_OPEN.V.FSN# = F$DCB.FSN#; /* has to be specified       */

  16559  8 000076   000034 221100                    LDX1    28,,PR0
         8 000077   000066 741000 xsym               STX1    TAPE_OPEN+54

      901    16560                                                /* since THISF# will be.              */
      902    16561    4               TAPE_OPEN.V.OPER.MNTONLY# = %NO#;

  16561  8 000100   000000 236000 9                  LDQ     0
         8 000101   000044 356000 xsym               ANSQ    TAPE_OPEN+36

      903    16562    4               TAPE_OPEN.V.OPER.THISF# = %YES#;
             16562                        /* If not set, will try to open the 1st FSN */

  16562  8 000102   002000 236007                    LDQ     1024,DL
         8 000103   000044 256000 xsym               ORSQ    TAPE_OPEN+36

      904    16563    4               EXIT SMALL_LOOP;

  16563  8 000104   000150 710000 8                  TRA     s:16586

      905    16564    4               END;
      906    16565    4             WHENALTRETURN DO;

PL6.E3A0      #006=FLC$TAPE_OPEN File=FLC$ROUTINES.:E05TSI                       TUE 07/29/97 15:43 Page:221
      907    16566    4               IF NOT ( B$TCB.ALT$->B$ALT.ERR.CODE = %E$VOLERR

  16566  8 000105   000000 470400 xsym               LDP0    B$TCB$
         8 000106   000000 471500                    LDP1    0,,PR0
         8 000107   100102 236100                    LDQ     66,,PR1
         8 000110   377770 376007                    ANQ     131064,DL
         8 000111   013260 116007                    CMPQ    5808,DL
         8 000112   000117 601000 8                  TNZ     s:16569
         8 000113   200003 473500                    LDP3    @ERR,,AUTO
         8 000114   300000 236100                    LDQ     0,,PR3
         8 000115   000000 116000 xsym               CMPQ    E_IO_ERR
         8 000116   000125 600000 8                  TZE     s:16573

      908    16567    4                 AND ERR = E_IO_ERR ) /* Err trying to get nxt vol on I/O cont.? */
      909    16568    5                THEN DO;

      910    16569    5                  ERR = B$TCB.ALT$ -> B$ALT.ERR; /* Nope, report err             */

  16569  8 000117   100102 236100                    LDQ     66,,PR1
         8 000120   200003 473500                    LDP3    @ERR,,AUTO
         8 000121   300000 756100                    STQ     0,,PR3

      911    16570    5                  CALL FLI$RPT_ERR;

  16570  8 000122   000002 631400 xsym               EPPR1   B_VECTNIL+2
         8 000123   000000 701000 xent               TSX1    FLI$RPT_ERR
         8 000124   000000 011000                    NOP     0

      912    16571    5                  END;

      913    16572
      914    16573    4               IF NOT ( ERR.CODE = %E$MNTBRK AND BREAK_CONTINUED )

  16573  8 000125   200003 470500                    LDP0    @ERR,,AUTO
         8 000126   000000 236100                    LDQ     0,,PR0
         8 000127   377770 376007                    ANQ     131064,DL
         8 000130   012200 116007                    CMPQ    5248,DL
PL6.E3A0      #006=FLC$TAPE_OPEN File=FLC$ROUTINES.:E05TSI                       TUE 07/29/97 15:43 Page:222
         8 000131   000134 601000 8                  TNZ     s:16575
         8 000132   000000 234000 xsym               SZN     BREAK_CONTINUED
         8 000133   000147 604000 8                  TMI     s:16582

      915    16574    5                THEN DO;

      916    16575    5                  IF ERR.CODE ~= %E$MNTBRK

  16575  8 000134   012200 116007                    CMPQ    5248,DL
         8 000135   000144 600000 8                  TZE     s:16578

      917    16576    5                   THEN IF FPT_EXIT.V.STEPCC# < %TAPE_ERROR

  16576  8 000136   000004 236000 xsym               LDQ     FPT_EXIT+4
         8 000137   777000 376003                    ANQ     -512,DU
         8 000140   004000 116003                    CMPQ    2048,DU
         8 000141   000144 603000 8                  TRC     s:16578

      918    16577    5                      THEN FPT_EXIT.V.STEPCC# = %TAPE_ERROR;

  16577  8 000142   004000 236003                    LDQ     2048,DU
         8 000143   000004 552040 xsym               STBQ    FPT_EXIT+4,'40'O

      919    16578    5                  TAPE_BAD = '1'B;

  16578  8 000144   400000 236003                    LDQ     -131072,DU
         8 000145   000000 756000 xsym               STQ     TAPE_BAD

      920    16579    5                  ALTRETURN;

  16579  8 000146   000000 702200 xent               TSX2  ! X66_AALT

      921    16580    5                  END;
      922    16581    4               END;
      923    16582    3            END;

  16582  8 000147   000011 710000 8                  TRA     SMALL_LOOP
PL6.E3A0      #006=FLC$TAPE_OPEN File=FLC$ROUTINES.:E05TSI                       TUE 07/29/97 15:43 Page:223

      924    16583    2         END;

      925    16584
      926    16585    2      DO WHILE( '1'B );

      927    16586    2         CALL M$OPEN( TAPE_OPEN )

  16586  8 000150   000000 630400 xsym               EPPR0   TAPE_OPEN
         8 000151   450000 713400                    CLIMB   alt,open
         8 000152   410400 401760                    pmme    nvectors=18
         8 000153   000371 702000 8                  TSX2    TAPE_OPEN_ALT

      928    16587    3          WHENRETURN DO;

      929    16588        /***
      930    16589         *** If an I/O error when I/O continue spec'd, skip out to next EFT_RESTRICT_FILE
      931    16590         *** on input tape after writing error msge. Possibility of running off end of
      932    16591         *** reel if last file on tape and is bad.
      933    16592         ***/
      934    16593    3            IF ( F$DCB.TYC.IOERR# AND TAPE_OPEN.V.IOERROK# )

  16593  8 000154   000000 470400 xsym               LDP0    M$TAPE00$
         8 000155   000002 430100                    FSZN    2,,PR0
         8 000156   000227 605000 8                  TPL     s:16613
         8 000157   000060 236000 xsym               LDQ     TAPE_OPEN+48
         8 000160   003000 316003                    CANQ    1536,DU
         8 000161   000227 600000 8                  TZE     s:16613

      935    16594    4             THEN DO;

      936    16595    4               DCB# = TAPE_OPEN.V.DCB#;

  16595  8 000162   000044 235000 xsym               LDA     TAPE_OPEN+36
         8 000163   000022 771000                    ARL     18
         8 000164   200004 755100                    STA     DCB#,,AUTO

PL6.E3A0      #006=FLC$TAPE_OPEN File=FLC$ROUTINES.:E05TSI                       TUE 07/29/97 15:43 Page:224
      937    16596    4               CALL FLI$RPT_ERR( E_IO_ERR, DCB# );

  16596  8 000165   200004 631500                    EPPR1   DCB#,,AUTO
         8 000166   200007 451500                    STP1    DCB#+3,,AUTO
         8 000167   000001 236000 9                  LDQ     1
         8 000170   200006 756100                    STQ     DCB#+2,,AUTO
         8 000171   200006 630500                    EPPR0   DCB#+2,,AUTO
         8 000172   000020 631400 xsym               EPPR1   B_VECTNIL+16
         8 000173   000000 701000 xent               TSX1    FLI$RPT_ERR
         8 000174   000000 011000                    NOP     0

      938    16597    4               IF FPT_EXIT.V.STEPCC# < %TAPE_ERROR

  16597  8 000175   000004 236000 xsym               LDQ     FPT_EXIT+4
         8 000176   777000 376003                    ANQ     -512,DU
         8 000177   004000 116003                    CMPQ    2048,DU
         8 000200   000203 603000 8                  TRC     s:16599

      939    16598    4                THEN FPT_EXIT.V.STEPCC# = %TAPE_ERROR;

  16598  8 000201   004000 236003                    LDQ     2048,DU
         8 000202   000004 552040 xsym               STBQ    FPT_EXIT+4,'40'O

      940    16599    4               TAPE_OPEN.V.OPER.THISF# = %NO#;

  16599  8 000203   000002 236000 9                  LDQ     2
         8 000204   000044 356000 xsym               ANSQ    TAPE_OPEN+36

      941    16600    4               TAPE_OPEN.V.FINDPOS# = %YES#;

  16600  8 000205   000001 236007                    LDQ     1,DL
         8 000206   000044 256000 xsym               ORSQ    TAPE_OPEN+36

      942    16601    4               CALL M$OPEN( TAPE_OPEN )    /* Open next good tape file           */

  16601  8 000207   000000 630400 xsym               EPPR0   TAPE_OPEN
         8 000210   450000 713400                    CLIMB   alt,open
PL6.E3A0      #006=FLC$TAPE_OPEN File=FLC$ROUTINES.:E05TSI                       TUE 07/29/97 15:43 Page:225
         8 000211   410400 401760                    pmme    nvectors=18
         8 000212   000222 702000 8                  TSX2    s:16607

      943    16602    5                WHENRETURN DO;

      944    16603    5                  CALL FLI$RPT_ERR( E_FILES_SKIPPED ); /* Output "files skipped" */

  16603  8 000213   000003 630400 9                  EPPR0   3
         8 000214   000017 631400 xsym               EPPR1   B_VECTNIL+15
         8 000215   000000 701000 xent               TSX1    FLI$RPT_ERR
         8 000216   000000 011000                    NOP     0

      945    16604    5                  TAPE_OPEN.V.FINDPOS# = %NO#;

  16604  8 000217   000004 236000 9                  LDQ     4
         8 000220   000044 356000 xsym               ANSQ    TAPE_OPEN+36

      946    16605    5                  END;

  16605  8 000221   000227 710000 8                  TRA     s:16613

      947    16606    5                WHENALTRETURN DO;

      948    16607    5                  TAPE_OPEN.V.FINDPOS# = %NO#; /* Can't get past tape error      */

  16607  8 000222   000004 236000 9                  LDQ     4
         8 000223   000044 356000 xsym               ANSQ    TAPE_OPEN+36

      949    16608    5                  TAPE_OPEN.V.OPER.THISF# = %NO#;

  16608  8 000224   000002 236000 9                  LDQ     2
         8 000225   000044 356000 xsym               ANSQ    TAPE_OPEN+36

      950    16609    5                  GOTO TAPE_OPEN_ALT;

  16609  8 000226   000371 710000 8                  TRA     TAPE_OPEN_ALT

PL6.E3A0      #006=FLC$TAPE_OPEN File=FLC$ROUTINES.:E05TSI                       TUE 07/29/97 15:43 Page:226
      951    16610    5                  END;
      952    16611    4               END;

      953    16612
      954    16613    3            TAPE_OPEN.V.OPER.THISF# = %NO#;

  16613  8 000227   000002 236000 9                  LDQ     2
         8 000230   000044 356000 xsym               ANSQ    TAPE_OPEN+36

      955    16614    3            TAPE_OPEN.V.INITZ.SCRUB# = %NO#;

  16614  8 000231   000005 236000 9                  LDQ     5
         8 000232   000044 356000 xsym               ANSQ    TAPE_OPEN+36

      956    16615    3            TAPE_OPEN.NAME_ = VECTOR(ERASE);

  16615  8 000233   000006 237000 9                  LDAQ    6
         8 000234   000006 757000 xsym               STAQ    TAPE_OPEN+6

      957    16616    3            TAPE_OPEN.V.FSN# = 0;

  16616  8 000235   000000 220003                    LDX0    0,DU
         8 000236   000066 740000 xsym               STX0    TAPE_OPEN+54

      958    16617    3            TAPE_OPEN.V.VOL# = 0;

  16617  8 000237   000000 236003                    LDQ     0,DU
         8 000240   000061 552040 xsym               STBQ    TAPE_OPEN+49,'40'O

      959    16618    3            IF F$DCB.ORG# = %RESTRICT#

  16618  8 000241   000000 470400 xsym               LDP0    M$TAPE00$
         8 000242   000032 236100                    LDQ     26,,PR0
         8 000243   777000 376003                    ANQ     -512,DU
         8 000244   022000 116003                    CMPQ    9216,DU
         8 000245   000326 601000 8                  TNZ     s:16635
         8 000246   000000 236000 xsym               LDQ     EFT_RESTRICT_FILE
PL6.E3A0      #006=FLC$TAPE_OPEN File=FLC$ROUTINES.:E05TSI                       TUE 07/29/97 15:43 Page:227
         8 000247   000033 772000                    QRL     27
         8 000250   000000 621006                    EAX1    0,QL
         8 000251   040040 106500                    CMPC    fill='040'O
         8 000252   000010 200037                    ADSC9   8,,PR0                   cn=1,n=31
         8 000253   000000 200011 xsym               ADSC9   EFT_RESTRICT_FILE        cn=1,n=*X1
         8 000254   000326 601000 8                  TNZ     s:16635

      960    16619    3              AND F$DCB.NAME#.C = EFT_RESTRICT_FILE.NAME#
      961    16620    4             THEN DO;

      962    16621    5               IF F$DCB.BLKL# > TAPE_BLOCK_SIZE THEN DO;

  16621  8 000255   000033 236100                    LDQ     27,,PR0
         8 000256   000022 772000                    QRL     18
         8 000257   000000 116000 xsym               CMPQ    TAPE_BLOCK_SIZE
         8 000260   000307 604400 8                  TMOZ    s:16627

      963    16622    5                  SIZE = (F$DCB.BLKL# - TAPE_BLOCK_SIZE + 4095) / 4096;

  16622  8 000261   000000 136000 xsym               SBLQ    TAPE_BLOCK_SIZE
         8 000262   007777 036007                    ADLQ    4095,DL
         8 000263   010000 506007                    DIV     4096,DL
         8 000264   000024 756000 2                  STQ     SIZE

      964    16623    5                  CALL FLI$ALLOC_BUF( INCR_BUF_, SIZE );

  16623  8 000265   000010 630400 9                  EPPR0   8
         8 000266   000020 631400 xsym               EPPR1   B_VECTNIL+16
         8 000267   000000 701000 xent               TSX1    FLI$ALLOC_BUF
         8 000270   000000 011000                    NOP     0

      965    16624    5                  TAPE_BLOCK_.W1.VSIZE# = TAPE_BLOCK_.W1.VSIZE# + SIZE * 4096;

  16624  8 000271   000000 236000 xsym               LDQ     TAPE_BLOCK_
         8 000272   000020 772000                    QRL     16
         8 000273   200006 756100                    STQ     DCB#+2,,AUTO
         8 000274   000024 236000 2                  LDQ     SIZE
PL6.E3A0      #006=FLC$TAPE_OPEN File=FLC$ROUTINES.:E05TSI                       TUE 07/29/97 15:43 Page:228
         8 000275   000014 736000                    QLS     12
         8 000276   200006 036100                    ADLQ    DCB#+2,,AUTO
         8 000277   000020 736000                    QLS     16
         8 000300   000000 676000 xsym               ERQ     TAPE_BLOCK_
         8 000301   000034 376000 xsym               ANQ     B_VECTNIL+28
         8 000302   000000 656000 xsym               ERSQ    TAPE_BLOCK_

      966    16625    5                  TAPE_BLOCK_SIZE = TAPE_BLOCK_SIZE + SIZE*4096;

  16625  8 000303   000024 236000 2                  LDQ     SIZE
         8 000304   000014 736000                    QLS     12
         8 000305   000000 036000 xsym               ADLQ    TAPE_BLOCK_SIZE
         8 000306   000000 756000 xsym               STQ     TAPE_BLOCK_SIZE

      967    16626    5                  END;

      968    16627    4               TAPE_READ.BUF_ = TAPE_BLOCK_;

  16627  8 000307   000000 237000 xsym               LDAQ    TAPE_BLOCK_
         8 000310   000004 757000 xsym               STAQ    TAPE_READ+4

      969    16628    4               ERR = '0'B;

  16628  8 000311   200003 470500                    LDP0    @ERR,,AUTO
         8 000312   000000 450100                    STZ     0,,PR0

      970    16629    4               BLK_TAG$ = PINCRW( TAPE_BLOCK_.PTR$, -SIZEW(BLK_TAG) );

  16629  8 000313   000001 236000 xsym               LDQ     TAPE_BLOCK_+1
         8 000314   777765 036003                    ADLQ    -11,DU
         8 000315   000000 756000 xsym               STQ     BLK_TAG$

      971    16630    4               TAPE_SN = F$DCB.PSN#;

  16630  8 000316   000000 471400 xsym               LDP1    M$TAPE00$
         8 000317   040000 100500                    MLR     fill='040'O
         8 000320   100024 000006                    ADSC9   20,,PR1                  cn=0,n=6
PL6.E3A0      #006=FLC$TAPE_OPEN File=FLC$ROUTINES.:E05TSI                       TUE 07/29/97 15:43 Page:229
         8 000321   000000 000006 xsym               ADSC9   TAPE_SN                  cn=0,n=6

      972    16631    4               TAPE_FSN = F$DCB.FSN#;

  16631  8 000322   100034 236100                    LDQ     28,,PR1
         8 000323   000022 772000                    QRL     18
         8 000324   000000 756000 xsym               STQ     TAPE_FSN

      973    16632    4               RETURN;

  16632  8 000325   000000 702200 xent               TSX2  ! X66_ARET

      974    16633    4               END;
      975    16634    4             ELSE DO;                      /* Skip non-packed file               */

      976    16635    4               CALL M$CLOSE( TAPE_CLOSE )

  16635  8 000326   000000 630400 xsym               EPPR0   TAPE_CLOSE
         8 000327   450001 713400                    CLIMB   alt,close
         8 000330   406000 401760                    pmme    nvectors=13
         8 000331   000347 702000 8                  TSX2    s:16645

      977    16636    5                WHENRETURN DO;

      978    16637    5                  IF F$DCB.FSN# >= LAST_TAPE_FSN AND LAST_TAPE_FSN ~= 0

  16637  8 000332   000000 470400 xsym               LDP0    M$TAPE00$
         8 000333   000034 236100                    LDQ     28,,PR0
         8 000334   000022 772000                    QRL     18
         8 000335   000000 116000 xsym               CMPQ    LAST_TAPE_FSN
         8 000336   000344 604000 8                  TMI     s:16642
         8 000337   000000 235000 xsym               LDA     LAST_TAPE_FSN
         8 000340   000344 600000 8                  TZE     s:16642

      979    16638    6                   THEN DO;                /* Stop now                           */

      980    16639    6                     ERR = '0'B;
PL6.E3A0      #006=FLC$TAPE_OPEN File=FLC$ROUTINES.:E05TSI                       TUE 07/29/97 15:43 Page:230
             16639                              /* Probably should use a more explicit error message */

  16639  8 000341   200003 471500                    LDP1    @ERR,,AUTO
         8 000342   100000 450100                    STZ     0,,PR1

      981    16640    6                     ALTRETURN;

  16640  8 000343   000000 702200 xent               TSX2  ! X66_AALT

      982    16641    6                     END;
      983    16642    5                  TAPE_OPEN.V.RES# = F$DCB.RES#;

  16642  8 000344   000026 236100                    LDQ     22,,PR0
         8 000345   000050 756000 xsym               STQ     TAPE_OPEN+40

      984    16643    5                  END;

  16643  8 000346   000370 710000 8                  TRA     s:16653

      985    16644    5                WHENALTRETURN DO;

      986    16645    5                  CALL FLI$RPT_ERR;

  16645  8 000347   000002 631400 xsym               EPPR1   B_VECTNIL+2
         8 000350   000000 701000 xent               TSX1    FLI$RPT_ERR
         8 000351   000000 011000                    NOP     0

      987    16646    5                  ERR = B$TCB.ALT$->B$ALT.ERR;

  16646  8 000352   000000 470400 xsym               LDP0    B$TCB$
         8 000353   000000 471500                    LDP1    0,,PR0
         8 000354   100102 236100                    LDQ     66,,PR1
         8 000355   200003 473500                    LDP3    @ERR,,AUTO
         8 000356   300000 756100                    STQ     0,,PR3

      988    16647    5                  TAPE_BAD = '1'B;

PL6.E3A0      #006=FLC$TAPE_OPEN File=FLC$ROUTINES.:E05TSI                       TUE 07/29/97 15:43 Page:231
  16647  8 000357   400000 236003                    LDQ     -131072,DU
         8 000360   000000 756000 xsym               STQ     TAPE_BAD

      989    16648    5                  IF FPT_EXIT.V.STEPCC# < %TAPE_ERROR

  16648  8 000361   000004 236000 xsym               LDQ     FPT_EXIT+4
         8 000362   777000 376003                    ANQ     -512,DU
         8 000363   004000 116003                    CMPQ    2048,DU
         8 000364   000367 603000 8                  TRC     s:16650

      990    16649    5                   THEN FPT_EXIT.V.STEPCC# = %TAPE_ERROR;

  16649  8 000365   004000 236003                    LDQ     2048,DU
         8 000366   000004 552040 xsym               STBQ    FPT_EXIT+4,'40'O

      991    16650    5                  ALTRETURN;

  16650  8 000367   000000 702200 xent               TSX2  ! X66_AALT

      992    16651    5                  END;
      993    16652    4               END;

      994    16653    3            END;

  16653  8 000370   000431 710000 8                  TRA     s:16669

      995    16654    3          WHENALTRETURN DO;

  16653  8 000371                       TAPE_OPEN_A* null
      996    16655    3   TAPE_OPEN_ALT: ;
      997    16656    3            ERR = B$TCB.ALT$->B$ALT.ERR;

  16656  8 000371   000000 470400 xsym               LDP0    B$TCB$
         8 000372   000000 471500                    LDP1    0,,PR0
         8 000373   100102 236100                    LDQ     66,,PR1
         8 000374   200003 473500                    LDP3    @ERR,,AUTO
         8 000375   300000 756100                    STQ     0,,PR3
PL6.E3A0      #006=FLC$TAPE_OPEN File=FLC$ROUTINES.:E05TSI                       TUE 07/29/97 15:43 Page:232

      998    16657    3            IF ERR.CODE ~= %E$EOSET

  16657  8 000376   300000 236100                    LDQ     0,,PR3
         8 000377   377770 376007                    ANQ     131064,DL
         8 000400   013140 116007                    CMPQ    5728,DL
         8 000401   000406 600000 8                  TZE     s:16659

      999    16658    3             THEN CALL FLI$RPT_ERR;

  16658  8 000402   000002 631400 xsym               EPPR1   B_VECTNIL+2
         8 000403   000000 701000 xent               TSX1    FLI$RPT_ERR
         8 000404   000000 011000                    NOP     0
         8 000405   000407 710000 8                  TRA     s:16660

     1000    16659    3             ELSE ALTRETURN;

  16659  8 000406   000000 702200 xent               TSX2  ! X66_AALT

     1001    16660    3            IF NOT( ERR.CODE = %E$MNTBRK AND BREAK_CONTINUED )

  16660  8 000407   200003 470500                    LDP0    @ERR,,AUTO
         8 000410   000000 236100                    LDQ     0,,PR0
         8 000411   377770 376007                    ANQ     131064,DL
         8 000412   012200 116007                    CMPQ    5248,DL
         8 000413   000416 601000 8                  TNZ     s:16662
         8 000414   000000 234000 xsym               SZN     BREAK_CONTINUED
         8 000415   000431 604000 8                  TMI     s:16669

     1002    16661    4             THEN DO;

     1003    16662    4               IF ERR.CODE ~= %E$MNTBRK

  16662  8 000416   012200 116007                    CMPQ    5248,DL
         8 000417   000426 600000 8                  TZE     s:16665

     1004    16663    4                THEN IF FPT_EXIT.V.STEPCC# < %TAPE_ERROR
PL6.E3A0      #006=FLC$TAPE_OPEN File=FLC$ROUTINES.:E05TSI                       TUE 07/29/97 15:43 Page:233

  16663  8 000420   000004 236000 xsym               LDQ     FPT_EXIT+4
         8 000421   777000 376003                    ANQ     -512,DU
         8 000422   004000 116003                    CMPQ    2048,DU
         8 000423   000426 603000 8                  TRC     s:16665

     1005    16664    4                   THEN FPT_EXIT.V.STEPCC# = %TAPE_ERROR;

  16664  8 000424   004000 236003                    LDQ     2048,DU
         8 000425   000004 552040 xsym               STBQ    FPT_EXIT+4,'40'O

     1006    16665    4               TAPE_BAD = '1'B;

  16665  8 000426   400000 236003                    LDQ     -131072,DU
         8 000427   000000 756000 xsym               STQ     TAPE_BAD

     1007    16666    4               ALTRETURN;

  16666  8 000430   000000 702200 xent               TSX2  ! X66_AALT

     1008    16667    4               END;
     1009    16668    3            END;
     1010    16669    2         END;

  16669  8 000431   000150 710000 8                  TRA     s:16586
     1011    16670    1   END FLC$TAPE_OPEN;
     1012    16671        %EOD;

PL6.E3A0      #006=FLC$TAPE_OPEN File=FLC$ROUTINES.:E05TSI                       TUE 07/29/97 15:43 Page:234
--  Include file information  --

   CP_6_SUBS.:E05TOU  is referenced.
   FL_PERR_C.:E05TOU  is referenced.
   FLE_DATA_R.:E05TOU  cannot be made into a system file and is referenced.
   FLS_DATA_R.:E05TOU  cannot be made into a system file and is referenced.
   B_MICROPS_C.:E05TOU  is referenced.
   FLB_SUBS_C.:E05TOU  is referenced.
   FLI_DATA_R.:E05TOU  cannot be made into a system file and is referenced.
   B_ERRORS_C.:E05TOU  is referenced.
   CP_6_C.:E05TOU  is referenced.
   CP_6.:E05TOU  cannot be made into a system file and is referenced.
      No diagnostics issued in procedure FLC$TAPE_OPEN.
PL6.E3A0      #006=FLC$TAPE_OPEN File=FLC$ROUTINES.:E05TSI                       TUE 07/29/97 15:43 Page:235

 **** Variables and constants ****

  ****  Section 002  Data  FLC$TAPE_OPEN

  ****  Scalars and arrays  ****
OctLoc.c.b A Datatyp(siz) R M Lvl/name                 OctLoc.c.b A Datatyp(siz) R M Lvl/name

    12-0-0/d STRC(360)   r     1 DEL_NODATA_REC            26-0-0/d STRC(72)    r     1 INCR_BUF_
    24-0-0/w UBIN        r     1 SIZE

  ****  Auto variables  ****

  ****  Scalars and arrays  ****
OctLoc.c.b A Datatyp(siz) R M Lvl/name                 OctLoc.c.b A Datatyp(siz) R M Lvl/name

     3-0-0/w PTR         r     1 @ERR                       4-0-0/w UBIN        r     1 DCB#
    *0-0-0/w STRC        r     1 ERR

  ****  SYMREF variables  ****

  ****  Scalars and arrays  ****
OctLoc.c.b A Datatyp(siz) R M Lvl/name                 OctLoc.c.b A Datatyp(siz) R M Lvl/name

     0-0-0/c ASTR(9)     r     1 ARCHIVE_NAME               0-0-0/w PTR         r     1 B$TCB$
     0-0-0/c ASTR(9)     r     1 BACKUP_NAME                0-0-0/w PTR         r     1 BLK_TAG$
     0-0-0/w PTR         r     1 BLK_TAG0$                  0-0-0/w PTR         r     1 BLOCK_GRAN$
     0-0-0/b BIT         r     1 BREAK_CONTINUED            0-0-0/w PTR         r     1 DISK_FILE_SPEC$
     0-0-0/w PTR         r     1 DISK_GRAN$                 0-0-0/w PTR         r     1 DPLIST$
     0-0-0/w PTR         r     1 DPRESLIST$                 0-0-0/c ASTR(9)     r     1 DUAL_FILE
     0-0-0/c ASTR(9)     r     1 EFT_CVOL_FILE              0-0-0/c ASTR(9)     r     1 EFT_RESTRICT_FILE
     0-0-0/w STRC        r     1 E_FILES_SKIPPED            0-0-0/w STRC        r     1 E_IO_ERR
     0-0-0/d STRC(216)   r     1 FPT_EXIT                   0-0-0/w SBIN        r     1 LAST_TAPE_FSN
     0-0-0/w PTR         r     1 M$TAPE00$                  0-0-0/w SBIN        r     1 NBR_BYTES_TO_MOVE
     0-0-0/c ASTR(9)     r     1 NODATA_FILE_NAME           0-0-0/c STRC(369)   r     1 NODATA_KEY
     0-0-0/c ASTR(9)     r     1 PRIME_FILE                 0-0-0/c ASTR(9)     r     1 REBUILD_DIR_KEY
     0-0-0/c ASTR(9)     r     1 REBUILD_KEY                0-0-0/c ASTR(9)     r     1 REBUILD_NAME
     0-0-0/c ASTR(9)     r     1 RET_CMDS_NAME              0-0-0/w PTR         r     1 SNVECLIST$
PL6.E3A0      #006=FLC$TAPE_OPEN File=FLC$ROUTINES.:E05TSI                       TUE 07/29/97 15:43 Page:236
     0-0-0/b BIT         r     1 TAPE_BAD                   0-0-0/d STRC(72)    r     1 TAPE_BLOCK_
     0-0-0/w SBIN        r     1 TAPE_BLOCK_SIZE            0-0-0/d STRC(1080)  r     1 TAPE_CLOSE
     0-0-0/w PTR         r     1 TAPE_DCBLIST$              0-0-0/w SBIN        r     1 TAPE_FSN
     0-0-0/d STRC(2088)  r     1 TAPE_OPEN                  0-0-0/d STRC(504)   r     1 TAPE_READ
     0-0-0/d STRC(144)   r     1 TAPE_REMOVE                0-0-0/c CHAR(6)     r     1 TAPE_SN
     0-0-0/c ASTR(9)     r     1 TSN_USED_NAME

  ****  BASED and DCB variables  ****

  ****  Scalars and arrays  ****
OctLoc.c.b A Datatyp(siz) R M Lvl/name                 OctLoc.c.b A Datatyp(siz) R M Lvl/name

     0-0-0/w STRC(2448)  r     1 B$ALT                      0-0-0/w STRC(144)   r     1 B$TCB
     0-0-0/w STRC(396)   r     1 BLK_TAG                    0-0-0/d ASTR(3528)  r     1 F$DCB
     0-0-0N  NULL        r     1 M$NODATA_LIST


   Procedure FLC$TAPE_OPEN requires 282 words for executable code.
   Procedure FLC$TAPE_OPEN requires 8 words of local(AUTO) storage.
PL6.E3A0      #006=FLC$TAPE_OPEN File=FLC$ROUTINES.:E05TSI                       TUE 07/29/97 15:43 Page:237
          *** CROSS REFERENCE LISTING ***
**     DENOTES     IDENTIFIER DEFINITION
<<                 IDENTIFIER'S VALUE SET
>>                 IDENTIFIER'S VALUE USED
<>                 IDENTIFIER SET AND/OR USED
--                 IDENTIFIER REFERENCED
PL6.E3A0      #006=FLC$TAPE_OPEN File=FLC$ROUTINES.:E05TSI                       TUE 07/29/97 15:43 Page:238
          MINI XREF LISTING

ARCHIVE_NAME.L#
      9008**DCL      9008--IMP-SIZ
B$ALT.CODE
     16520**DCL     16520--REDEF   16521--REDEF   16521--REDEF
B$ALT.ERR
     16521**DCL     16569>>ASSIGN  16646>>ASSIGN  16656>>ASSIGN
B$ALT.ERR.CODE
     16522**DCL     16566>>IF
B$ALT.ERR.ERR#
     16522**DCL     16522--REDEF
B$ALT.EVID
     16521**DCL     16521--REDEF   16521--REDEF
B$TCB.ALT$
     16516**DCL     16566>>IF      16569>>ASSIGN  16646>>ASSIGN  16656>>ASSIGN
B$TCB$
      7633**DCL     16516--IMP-PTR 16566>>IF      16569>>ASSIGN  16646>>ASSIGN  16656>>ASSIGN
BACKUP_NAME.L#
      8652**DCL      8652--IMP-SIZ
BLK_TAG
      8141**DCL     16629--ASSIGN
BLK_TAG.NAME
      8144**DCL      8144--REDEF
BLK_TAG$
      8141**DCL      8141--IMP-PTR 16629<<ASSIGN
BLK_TAG0.NAME
      8150**DCL      8150--REDEF
BLK_TAG0$
      8147**DCL      8147--IMP-PTR
BLOCK_GRAN$
      8154**DCL      8155--IMP-PTR
BREAK_CONTINUED
     16419**DCL     16573>>IF      16660>>IF
PL6.E3A0      #006=FLC$TAPE_OPEN File=FLC$ROUTINES.:E05TSI                       TUE 07/29/97 15:43 Page:239
CLOSE_NODATA_LIST.SN_
      9806**DCL      9806--REDEF
CLOSE_NODATA_LIST.UTL_
      9807**DCL      9807--REDEF
CLOSE_NODATA_LIST.V.EXPIRE#
      9821**DCL      9821--REDEF
CLOSE_NODATA_LIST.V.TYPE#
      9819**DCL      9819--REDEF
CLOSE_NODATA_LIST.V.XTNSIZE#
      9816**DCL      9816--REDEF    9818--REDEF
CLOSE_PRIME_DUAL.SN_
      9283**DCL      9283--REDEF
CLOSE_PRIME_DUAL.UTL_
      9284**DCL      9284--REDEF
CLOSE_PRIME_DUAL.V.EXPIRE#
      9298**DCL      9298--REDEF
CLOSE_PRIME_DUAL.V.TYPE#
      9296**DCL      9296--REDEF
CLOSE_PRIME_DUAL.V.XTNSIZE#
      9293**DCL      9293--REDEF    9295--REDEF
CLOSE_REBUILD.SN_
      9558**DCL      9558--REDEF
CLOSE_REBUILD.UTL_
      9559**DCL      9559--REDEF
CLOSE_REBUILD.V.EXPIRE#
      9573**DCL      9573--REDEF
CLOSE_REBUILD.V.TYPE#
      9571**DCL      9571--REDEF
CLOSE_REBUILD.V.XTNSIZE#
      9568**DCL      9568--REDEF    9570--REDEF
CLOSE_STATUS.SN_
      8773**DCL      8773--REDEF
CLOSE_STATUS.UTL_
      8774**DCL      8774--REDEF
CLOSE_STATUS.V.EXPIRE#
      8788**DCL      8788--REDEF
PL6.E3A0      #006=FLC$TAPE_OPEN File=FLC$ROUTINES.:E05TSI                       TUE 07/29/97 15:43 Page:240
CLOSE_STATUS.V.TYPE#
      8786**DCL      8786--REDEF
CLOSE_STATUS.V.XTNSIZE#
      8783**DCL      8783--REDEF    8785--REDEF
CLOSE_TSN_USED.SN_
      8483**DCL      8483--REDEF
CLOSE_TSN_USED.UTL_
      8484**DCL      8484--REDEF
CLOSE_TSN_USED.V.EXPIRE#
      8498**DCL      8498--REDEF
CLOSE_TSN_USED.V.TYPE#
      8496**DCL      8496--REDEF
CLOSE_TSN_USED.V.XTNSIZE#
      8493**DCL      8493--REDEF    8495--REDEF
CON_CLOSE_ARCHIVE.SN_
      8815**DCL      8815--REDEF
CON_CLOSE_ARCHIVE.UTL_
      8816**DCL      8816--REDEF
CON_CLOSE_ARCHIVE.V.EXPIRE#
      8830**DCL      8830--REDEF
CON_CLOSE_ARCHIVE.V.TYPE#
      8828**DCL      8828--REDEF
CON_CLOSE_ARCHIVE.V.XTNSIZE#
      8825**DCL      8825--REDEF    8827--REDEF
CON_OPEN_ARCHIVE_FILE.ACSVEH_
      8902**DCL      8903--REDEF
CON_OPEN_ARCHIVE_FILE.ALTKEYS_
      8908**DCL      8909--REDEF    8909--REDEF
CON_OPEN_ARCHIVE_FILE.HDR_
      8907**DCL      8908--REDEF
CON_OPEN_ARCHIVE_FILE.TAB_
      8906**DCL      8907--REDEF
CON_OPEN_ARCHIVE_FILE.UHL_
      8900**DCL      8901--REDEF    8901--REDEF
CON_OPEN_ARCHIVE_FILE.V.FSN#
      8940**DCL      8940--REDEF    8940--REDEF
PL6.E3A0      #006=FLC$TAPE_OPEN File=FLC$ROUTINES.:E05TSI                       TUE 07/29/97 15:43 Page:241
CON_OPEN_ARCHIVE_FILE.WSN_
      8906**DCL      8906--REDEF
CON_READ_ARCHIVE_FILE.STATION_
      8964**DCL      8965--REDEF
CON_READ_ARCHIVE_FILE.V.DVBYTE.REREAD#
      8976**DCL      8976--REDEF
CON_READ_ARCHIVE_FILE.V.INDX#
      8974**DCL      8974--REDEF
CVOL_UTL.ULBL#
      8243**DCL      8243--REDEF
DCB#
     16437**DCL     16544<<ASSIGN  16545<>CALL    16595<<ASSIGN  16596<>CALL
DEL_NODATA_REC.V
      9909**DCL      9906--DCLINIT
DISK_CLOSE.SN_
      7313**DCL      7313--REDEF
DISK_CLOSE.UTL_
      7314**DCL      7314--REDEF
DISK_CLOSE.V.EXPIRE#
      7328**DCL      7328--REDEF
DISK_CLOSE.V.TYPE#
      7326**DCL      7326--REDEF
DISK_CLOSE.V.XTNSIZE#
      7323**DCL      7323--REDEF    7325--REDEF
DISK_FILE_SPEC.SPEC
      7678**DCL      7680--REDEF
DISK_FILE_SPEC.SPEC.START
      7679**DCL      7679--REDEF
DISK_FILE_SPEC.SPEC.STOP
      7680**DCL      7680--REDEF
DISK_FILE_SPEC$
      7677**DCL      7678--IMP-PTR
DISK_GRAN$
      8154**DCL      8154--IMP-PTR
DISK_OPEN.ACSVEH_
      7178**DCL      7179--REDEF
PL6.E3A0      #006=FLC$TAPE_OPEN File=FLC$ROUTINES.:E05TSI                       TUE 07/29/97 15:43 Page:242
DISK_OPEN.ALTKEYS_
      7184**DCL      7185--REDEF    7185--REDEF
DISK_OPEN.HDR_
      7183**DCL      7184--REDEF
DISK_OPEN.TAB_
      7182**DCL      7183--REDEF
DISK_OPEN.UHL_
      7176**DCL      7177--REDEF    7177--REDEF
DISK_OPEN.V.FSN#
      7216**DCL      7216--REDEF    7216--REDEF
DISK_OPEN.WSN_
      7182**DCL      7182--REDEF
DISK_READ.STATION_
      7240**DCL      7241--REDEF
DISK_READ.V.DVBYTE.REREAD#
      7252**DCL      7252--REDEF
DISK_READ.V.INDX#
      7250**DCL      7250--REDEF
DISK_WRITE.STATION_
      7278**DCL      7278--REDEF
DISK_WRITE.V.DVBYTE.VFC#
      7285**DCL      7285--REDEF
DPLIST$
      7663**DCL      7675--IMP-PTR
DPRESLIST$
      7677**DCL      7677--IMP-PTR
DUAL_FILE.L#
      9079**DCL      9079--IMP-SIZ
EFTWORD
      7798**DCL      7798--REDEF
EFT_CVOL_FILE.L#
      8203**DCL      8203--IMP-SIZ
EFT_RESTRICT_FILE.L#
      8230**DCL      8230--IMP-SIZ 16618>>IF
EFT_RESTRICT_FILE.NAME#
      8230**DCL     16618>>IF
PL6.E3A0      #006=FLC$TAPE_OPEN File=FLC$ROUTINES.:E05TSI                       TUE 07/29/97 15:43 Page:243
ERR
     16425**DCL         6--PROC    16543<<ASSIGN  16545<>CALL    16556<<ASSIGN  16566>>IF      16569<<ASSIGN
     16628<<ASSIGN  16639<<ASSIGN  16646<<ASSIGN  16656<<ASSIGN
ERR.CODE
     16429**DCL     16573>>IF      16575>>IF      16657>>IF      16660>>IF      16662>>IF
E_FILES_SKIPPED
     15474**DCL     16603<>CALL
E_IO_ERR
     15384**DCL     16543>>ASSIGN  16566>>IF      16596<>CALL
F$DCB.ACTPOS
     16491**DCL     16491--REDEF
F$DCB.ARS#
     16465**DCL     16465--REDEF
F$DCB.ATTR
     16484**DCL     16485--REDEF
F$DCB.BLKL#
     16481**DCL     16621>>IF      16622>>ASSIGN
F$DCB.BORROW
     16499**DCL     16499--REDEF   16499--REDEF   16499--REDEF
F$DCB.DCBNAME.L
     16513**DCL     16513--IMP-SIZ
F$DCB.EOMCHAR#
     16469**DCL     16469--REDEF
F$DCB.FLDID
     16494**DCL     16494--REDEF
F$DCB.FORM$
     16488**DCL     16488--REDEF
F$DCB.FSECT
     16504**DCL     16504--REDEF   16557>>IF
F$DCB.FSN#
     16481**DCL     16481--REDEF   16481--REDEF   16482--REDEF   16558>>ASSIGN  16559>>ASSIGN  16631>>ASSIGN
     16637>>IF
F$DCB.HEADER$
     16487**DCL     16487--REDEF
F$DCB.IXTNSIZE#
     16485**DCL     16485--REDEF
PL6.E3A0      #006=FLC$TAPE_OPEN File=FLC$ROUTINES.:E05TSI                       TUE 07/29/97 15:43 Page:244
F$DCB.LASTSTA$
     16474**DCL     16474--REDEF
F$DCB.LVL
     16500**DCL     16500--REDEF
F$DCB.NAME#.C
     16475**DCL     16475--REDEF   16618>>IF
F$DCB.NOEOF
     16497**DCL     16497--REDEF
F$DCB.NRECS#
     16486**DCL     16486--REDEF
F$DCB.NRECX
     16505**DCL     16505--REDEF
F$DCB.OHDR
     16497**DCL     16497--REDEF
F$DCB.ORG#
     16480**DCL     16480--REDEF   16618>>IF
F$DCB.PRECNO
     16503**DCL     16503--REDEF
F$DCB.PSN#
     16475**DCL     16548>>ASSIGN  16630>>ASSIGN
F$DCB.RCSZ
     16509**DCL     16509--REDEF
F$DCB.RES#
     16476**DCL     16476--REDEF   16642>>ASSIGN
F$DCB.SETX
     16488**DCL     16488--REDEF
F$DCB.TAB$
     16488**DCL     16488--REDEF
F$DCB.TDA
     16502**DCL     16503--REDEF
F$DCB.TYC.IOERR#
     16466**DCL     16541>>IF      16593>>IF
F$DCB.WSN#
     16476**DCL     16476--REDEF
FIT_AREA.W2
      8514**DCL      8515--REDEF
PL6.E3A0      #006=FLC$TAPE_OPEN File=FLC$ROUTINES.:E05TSI                       TUE 07/29/97 15:43 Page:245
FLI$ALLOC_BUF
     16412**DCL-ENT 16623--CALL
FLI$RPT_ERR
     16413**DCL-ENT 16545--CALL    16570--CALL    16596--CALL    16603--CALL    16645--CALL    16658--CALL
FPT_EXIT.V.STEPCC#
      7103**DCL      7103--REDEF   16546>>IF      16547<<ASSIGN  16576>>IF      16577<<ASSIGN  16597>>IF
     16598<<ASSIGN  16648>>IF      16649<<ASSIGN  16663>>IF      16664<<ASSIGN
INCR_BUF_
     16449**DCL     16623<>CALL
INCR_BUF_.W2
     16450**DCL     16451--REDEF
LAST_TAPE_FSN
      7797**DCL     16637>>IF      16637>>IF
M$CLOSE
      5503**DCL-ENT 16635--CALL
M$OPEN
      5503**DCL-ENT 16535--CALL    16586--CALL    16601--CALL
M$REM
      5512**DCL-ENT 16549--CALL
M$TAPE00$
      8140**DCL     16459--IMP-PTR 16541>>IF      16548>>ASSIGN  16557>>IF      16558>>ASSIGN  16559>>ASSIGN
     16593>>IF      16618>>IF      16618>>IF      16621>>IF      16622>>ASSIGN  16630>>ASSIGN  16631>>ASSIGN
     16637>>IF      16642>>ASSIGN
NBR_BYTES_TO_MOVE
      8153**DCL      8154--IMP-SIZ  8155--IMP-SIZ
NODATA_FILE_NAME.L#
      9768**DCL      9768--IMP-SIZ
NODATA_KEY
      9914**DCL      9906--DCLINIT  9907--DCLINIT
OPEN_NODATA_LIST.ACSVEH_
      9701**DCL      9702--REDEF
OPEN_NODATA_LIST.ALTKEYS_
      9707**DCL      9708--REDEF    9708--REDEF
OPEN_NODATA_LIST.HDR_
      9706**DCL      9707--REDEF
OPEN_NODATA_LIST.TAB_
PL6.E3A0      #006=FLC$TAPE_OPEN File=FLC$ROUTINES.:E05TSI                       TUE 07/29/97 15:43 Page:246
      9705**DCL      9706--REDEF
OPEN_NODATA_LIST.UHL_
      9699**DCL      9700--REDEF    9700--REDEF
OPEN_NODATA_LIST.V.FSN#
      9739**DCL      9739--REDEF    9739--REDEF
OPEN_NODATA_LIST.WSN_
      9705**DCL      9705--REDEF
OPEN_PRIME_DUAL.ACSVEH_
      9148**DCL      9149--REDEF
OPEN_PRIME_DUAL.ALTKEYS_
      9154**DCL      9155--REDEF    9155--REDEF
OPEN_PRIME_DUAL.HDR_
      9153**DCL      9154--REDEF
OPEN_PRIME_DUAL.TAB_
      9152**DCL      9153--REDEF
OPEN_PRIME_DUAL.UHL_
      9146**DCL      9147--REDEF    9147--REDEF
OPEN_PRIME_DUAL.V.FSN#
      9186**DCL      9186--REDEF    9186--REDEF
OPEN_PRIME_DUAL.WSN_
      9152**DCL      9152--REDEF
OPEN_REBUILD.ACSVEH_
      9383**DCL      9384--REDEF
OPEN_REBUILD.ALTKEYS_
      9389**DCL      9390--REDEF    9390--REDEF
OPEN_REBUILD.HDR_
      9388**DCL      9389--REDEF
OPEN_REBUILD.TAB_
      9387**DCL      9388--REDEF
OPEN_REBUILD.UHL_
      9381**DCL      9382--REDEF    9382--REDEF
OPEN_REBUILD.V.FSN#
      9421**DCL      9421--REDEF    9421--REDEF
OPEN_REBUILD.WSN_
      9387**DCL      9387--REDEF
OPEN_STATUS.ACSVEH_
PL6.E3A0      #006=FLC$TAPE_OPEN File=FLC$ROUTINES.:E05TSI                       TUE 07/29/97 15:43 Page:247
      8585**DCL      8586--REDEF
OPEN_STATUS.ALTKEYS_
      8591**DCL      8592--REDEF    8592--REDEF
OPEN_STATUS.HDR_
      8590**DCL      8591--REDEF
OPEN_STATUS.TAB_
      8589**DCL      8590--REDEF
OPEN_STATUS.UHL_
      8583**DCL      8584--REDEF    8584--REDEF
OPEN_STATUS.V.FSN#
      8623**DCL      8623--REDEF    8623--REDEF
OPEN_STATUS.WSN_
      8589**DCL      8589--REDEF
OPEN_TSN_USED.ACSVEH_
      8321**DCL      8322--REDEF
OPEN_TSN_USED.ALTKEYS_
      8327**DCL      8328--REDEF    8328--REDEF
OPEN_TSN_USED.HDR_
      8326**DCL      8327--REDEF
OPEN_TSN_USED.TAB_
      8325**DCL      8326--REDEF
OPEN_TSN_USED.UHL_
      8319**DCL      8320--REDEF    8320--REDEF
OPEN_TSN_USED.V.FSN#
      8359**DCL      8359--REDEF    8359--REDEF
OPEN_TSN_USED.WSN_
      8325**DCL      8325--REDEF
PRE_RET_CLOSE.SN_
      8041**DCL      8041--REDEF
PRE_RET_CLOSE.UTL_
      8042**DCL      8042--REDEF
PRE_RET_CLOSE.V.EXPIRE#
      8056**DCL      8056--REDEF
PRE_RET_CLOSE.V.TYPE#
      8054**DCL      8054--REDEF
PRE_RET_CLOSE.V.XTNSIZE#
PL6.E3A0      #006=FLC$TAPE_OPEN File=FLC$ROUTINES.:E05TSI                       TUE 07/29/97 15:43 Page:248
      8051**DCL      8051--REDEF    8053--REDEF
PRE_RET_OPEN.ACSVEH_
      7976**DCL      7977--REDEF
PRE_RET_OPEN.ALTKEYS_
      7982**DCL      7983--REDEF    7983--REDEF
PRE_RET_OPEN.HDR_
      7981**DCL      7982--REDEF
PRE_RET_OPEN.TAB_
      7980**DCL      7981--REDEF
PRE_RET_OPEN.UHL_
      7974**DCL      7975--REDEF    7975--REDEF
PRE_RET_OPEN.V.FSN#
      8014**DCL      8014--REDEF    8014--REDEF
PRE_RET_OPEN.WSN_
      7980**DCL      7980--REDEF
PRE_RET_READ.STATION_
      7831**DCL      7832--REDEF
PRE_RET_READ.V.DVBYTE.REREAD#
      7843**DCL      7843--REDEF
PRE_RET_READ.V.INDX#
      7841**DCL      7841--REDEF
PRE_RET_WRITE.STATION_
      7869**DCL      7869--REDEF
PRE_RET_WRITE.V.DVBYTE.VFC#
      7876**DCL      7876--REDEF
PRIME_FILE.L#
      9052**DCL      9052--IMP-SIZ
READ_NODATA_LIST.STATION_
      9845**DCL      9846--REDEF
READ_NODATA_LIST.V.DVBYTE.REREAD#
      9857**DCL      9857--REDEF
READ_NODATA_LIST.V.INDX#
      9855**DCL      9855--REDEF
READ_PRIME_DUAL.STATION_
      9210**DCL      9211--REDEF
READ_PRIME_DUAL.V.DVBYTE.REREAD#
PL6.E3A0      #006=FLC$TAPE_OPEN File=FLC$ROUTINES.:E05TSI                       TUE 07/29/97 15:43 Page:249
      9222**DCL      9222--REDEF
READ_PRIME_DUAL.V.INDX#
      9220**DCL      9220--REDEF
READ_REBUILD.STATION_
      9516**DCL      9517--REDEF
READ_REBUILD.V.DVBYTE.REREAD#
      9528**DCL      9528--REDEF
READ_REBUILD.V.INDX#
      9526**DCL      9526--REDEF
READ_STATUS.STATION_
      8731**DCL      8732--REDEF
READ_STATUS.V.DVBYTE.REREAD#
      8743**DCL      8743--REDEF
READ_STATUS.V.INDX#
      8741**DCL      8741--REDEF
READ_TSN_USED.STATION_
      8441**DCL      8442--REDEF
READ_TSN_USED.V.DVBYTE.REREAD#
      8453**DCL      8453--REDEF
READ_TSN_USED.V.INDX#
      8451**DCL      8451--REDEF
REBUILD_DIR_KEY.L#
      9602**DCL      9602--IMP-SIZ
REBUILD_KEY.L#
      9629**DCL      9629--IMP-SIZ
REBUILD_NAME.L#
      9450**DCL      9450--IMP-SIZ
RETRY_OPEN
     16535**LABEL   16553--GOTO
RET_CMDS_NAME.L#
      8085**DCL      8085--IMP-SIZ
SIZE
     16436**DCL     16622<<ASSIGN  16623<>CALL    16624>>ASSIGN  16625>>ASSIGN
SMALL_LOOP
     16533**LABEL   16563--EXIT
SNVECLIST$
PL6.E3A0      #006=FLC$TAPE_OPEN File=FLC$ROUTINES.:E05TSI                       TUE 07/29/97 15:43 Page:250
      7617**DCL      7617--IMP-PTR
SPEC.START
      7681**DCL      7682--REDEF
SPEC.STOP
      7682**DCL      7683--REDEF
SPECCHARS
      7681**DCL      7681--REDEF
TAPE_BAD
      8248**DCL     16578<<ASSIGN  16647<<ASSIGN  16665<<ASSIGN
TAPE_BLOCK_
      8168**DCL     16627>>ASSIGN
TAPE_BLOCK_.PTR$
      8170**DCL     16629>>ASSIGN
TAPE_BLOCK_.W1.VSIZE#
      8168**DCL     16624<<ASSIGN  16624>>ASSIGN
TAPE_BLOCK_.W2
      8169**DCL      8170--REDEF
TAPE_BLOCK_SIZE
      8172**DCL     16621>>IF      16622>>ASSIGN  16625<<ASSIGN  16625>>ASSIGN
TAPE_CLOSE
      7534**DCL     16635<>CALL
TAPE_CLOSE.SN_
      7534**DCL      7534--REDEF
TAPE_CLOSE.UTL_
      7535**DCL      7535--REDEF
TAPE_CLOSE.V.EXPIRE#
      7549**DCL      7549--REDEF
TAPE_CLOSE.V.TYPE#
      7547**DCL      7547--REDEF
TAPE_CLOSE.V.XTNSIZE#
      7544**DCL      7544--REDEF    7546--REDEF
TAPE_DCBLIST$
      7090**DCL      7090--IMP-PTR
TAPE_FSN
      8246**DCL     16631<<ASSIGN
TAPE_OPEN
PL6.E3A0      #006=FLC$TAPE_OPEN File=FLC$ROUTINES.:E05TSI                       TUE 07/29/97 15:43 Page:251
      7397**DCL     16535<>CALL    16586<>CALL    16601<>CALL
TAPE_OPEN.ACSVEH_
      7399**DCL      7400--REDEF
TAPE_OPEN.ALTKEYS_
      7405**DCL      7406--REDEF    7406--REDEF
TAPE_OPEN.HDR_
      7404**DCL      7405--REDEF
TAPE_OPEN.NAME_
      7398**DCL     16615<<ASSIGN
TAPE_OPEN.TAB_
      7403**DCL      7404--REDEF
TAPE_OPEN.UHL_
      7397**DCL      7398--REDEF    7398--REDEF
TAPE_OPEN.V.DCB#
      7406**DCL     16544>>ASSIGN  16595>>ASSIGN
TAPE_OPEN.V.FINDPOS#
      7412**DCL     16600<<ASSIGN  16604<<ASSIGN  16607<<ASSIGN
TAPE_OPEN.V.FSN#
      7437**DCL      7437--REDEF    7437--REDEF   16529>>IF      16558<<ASSIGN  16559<<ASSIGN  16616<<ASSIGN
TAPE_OPEN.V.INITZ.SCRUB#
      7407**DCL     16614<<ASSIGN
TAPE_OPEN.V.IOERROK#
      7428**DCL     16541>>IF      16593>>IF
TAPE_OPEN.V.OPER.MNTONLY#
      7410**DCL     16531<<ASSIGN  16561<<ASSIGN
TAPE_OPEN.V.OPER.THISF#
      7409**DCL     16562<<ASSIGN  16599<<ASSIGN  16608<<ASSIGN  16613<<ASSIGN
TAPE_OPEN.V.RES#
      7421**DCL     16642<<ASSIGN
TAPE_OPEN.V.VOL#
      7431**DCL     16529>>IF      16552<<ASSIGN  16552>>ASSIGN  16617<<ASSIGN
TAPE_OPEN.WSN_
      7403**DCL      7403--REDEF
TAPE_OPEN_ALT
     16653**LABEL   16609--GOTO
TAPE_READ.BUF_
PL6.E3A0      #006=FLC$TAPE_OPEN File=FLC$ROUTINES.:E05TSI                       TUE 07/29/97 15:43 Page:252
      7460**DCL     16627<<ASSIGN
TAPE_READ.STATION_
      7461**DCL      7462--REDEF
TAPE_READ.V.DVBYTE.REREAD#
      7473**DCL      7473--REDEF
TAPE_READ.V.INDX#
      7471**DCL      7471--REDEF
TAPE_REMOVE
      7578**DCL     16549<>CALL
TAPE_REMOVE.V.PSN#
      7579**DCL     16548<<ASSIGN
TAPE_SN
      8246**DCL     16630<<ASSIGN
TAPE_WRITE.STATION_
      7499**DCL      7499--REDEF
TAPE_WRITE.V.DVBYTE.VFC#
      7506**DCL      7506--REDEF
TSN_USED_NAME.L#
      8388**DCL      8388--IMP-SIZ
TVECTOR.W2
      7630**DCL      7631--REDEF
WRITE_NODATA_LIST.STATION_
      9883**DCL      9883--REDEF
WRITE_NODATA_LIST.V.DVBYTE.VFC#
      9890**DCL      9890--REDEF
WRITE_PRIME_DUAL.STATION_
      9248**DCL      9248--REDEF
WRITE_PRIME_DUAL.V.DVBYTE.VFC#
      9255**DCL      9255--REDEF
WRITE_REBUILD.STATION_
      9484**DCL      9484--REDEF
WRITE_REBUILD.V.DVBYTE.VFC#
      9491**DCL      9491--REDEF
WRITE_STATUS.STATION_
      8699**DCL      8699--REDEF
WRITE_STATUS.V.DVBYTE.VFC#
PL6.E3A0      #006=FLC$TAPE_OPEN File=FLC$ROUTINES.:E05TSI                       TUE 07/29/97 15:43 Page:253
      8706**DCL      8706--REDEF
WRITE_TSN_USED.STATION_
      8409**DCL      8409--REDEF
WRITE_TSN_USED.V.DVBYTE.VFC#
      8416**DCL      8416--REDEF

PL6.E3A0      #007=FLC$TAPE_CLOSE File=FLC$ROUTINES.:E05TSI                      TUE 07/29/97 15:44 Page:254
     1013        1        /*T***********************************************************/
     1014        2        /*T*                                                         */
     1015        3        /*T* Copyright (c) Bull HN Information Systems Inc., 1997    */
     1016        4        /*T*                                                         */
     1017        5        /*T***********************************************************/
     1018        6        %EJECT;
PL6.E3A0      #007=FLC$TAPE_CLOSE File=FLC$ROUTINES.:E05TSI                      TUE 07/29/97 15:44 Page:255
     1019        7        FLC$TAPE_CLOSE: PROC( ERR ) ALTRET;
     1020        8        /*F* NAME: FLC$TAPE_CLOSE
     1021        9              PURPOSE: Close currently open tape file.
     1022       10        */
     1023       11
     1024       12        /***
     1025       13         *** INCLUDE
     1026       14         ***/
     1027       15
     1028       16        %INCLUDE CP_6;
     1029     5575        %INCLUDE FLI_DATA_R;
     1030     6989        %INCLUDE FLS_DATA_R;
     1031     8789
     1032     8790        /***
     1033     8791         *** ENTRY
     1034     8792         ***/
     1035     8793
     1036     8794    1   DCL FLI$RPT_ERR ENTRY(5);
     1037     8795
     1038     8796
     1039     8797    1   DCL 1 ERR ALIGNED,
     1040     8798    1         2 FCG BIT(12) UNAL,
     1041     8799    1         2 MID BIT(6) UNAL,
     1042     8800    1         2 MON BIT(1) UNAL,
     1043     8801    1         2 CODE UBIN(14) UNAL,
     1044     8802    1         2 SEV UBIN(3) UNAL;
     1045     8803
     1046     8804        /***
     1047     8805         *** BASED
     1048     8806         ***/
     1049     8807
     1050     8808        %F$DCB( BASED="BASED(M$TAPE00$)" );
     1051     8865        %B$TCB( STCLASS="BASED(B$TCB$)" );
     1052     8868        %B$ALT;
     1053     8876
     1054     8877        /****************************************/
     1055     8878
PL6.E3A0      #007=FLC$TAPE_CLOSE File=FLC$ROUTINES.:E05TSI                      TUE 07/29/97 15:44 Page:256
     1056     8879    2      IF F$DCB.FCD# THEN DO;
     1057     8880    2         CALL M$CLOSE( TAPE_CLOSE ) ALTRET( JUSTALT );
     1058     8881    2         END;
     1059     8882
     1060     8883    1      IF F$DCB.FSN# >= LAST_TAPE_FSN
     1061     8884    2       THEN DO;
     1062     8885    2         LAST_TAPE_FSN = 0;
     1063     8886    2         ALTRETURN;
     1064     8887    2         END;
     1065     8888    1       ELSE RETURN;
     1066     8889
     1067     8890    1   JUSTALT:
     1068     8891    1      CALL FLI$RPT_ERR;
     1069     8892    1      IF FPT_EXIT.V.STEPCC# < %TAPE_ERROR
     1070     8893    1       THEN FPT_EXIT.V.STEPCC# = %TAPE_ERROR;
     1071     8894    1      TAPE_BAD = '1'B;
     1072     8895    1      ERR = B$TCB.ALT$->B$ALT.ERR;
     1073     8896    1      ALTRETURN;
     1074     8897
     1075     8898    1   END FLC$TAPE_CLOSE;

PL6.E3A0      #007=FLC$TAPE_CLOSE File=FLC$ROUTINES.:E05TSI                      TUE 07/29/97 15:44 Page:257
--  Include file information  --

   FLS_DATA_R.:E05TOU  cannot be made into a system file and is referenced.
   B_MICROPS_C.:E05TOU  is referenced.
   FLB_SUBS_C.:E05TOU  is referenced.
   FLI_DATA_R.:E05TOU  cannot be made into a system file and is referenced.
   CP_6_C.:E05TOU  is referenced.
   CP_6.:E05TOU  cannot be made into a system file and is referenced.
      No diagnostics issued in procedure FLC$TAPE_CLOSE.

   Procedure FLC$TAPE_CLOSE requires 35 words for executable code.
   Procedure FLC$TAPE_CLOSE requires 4 words of local(AUTO) storage.

    No errors detected in file FLC$ROUTINES.:E05TSI    .

PL6.E3A0      #007=FLC$TAPE_CLOSE File=FLC$ROUTINES.:E05TSI                      TUE 07/29/97 15:44 Page:258

 Object Unit name= FLC$TAPE_CLOSE                             File name= FLC$ROUTINES.:E05TOU
 UTS= JUL 29 '97 15:44:22.76 TUE                              Compiler= PL-6/E31         Sev=      00
 SharedLib= :SHARED_SYSTEM                                    Alt SharedLib=


    ****  Control sections  ****

 Sect   Type Bound  Init  Size OctSiz  Section name(segment info)
    0   DCB   even  none     0      0  M$UC
    1   DCB   even  none     0      0  M$PRE_RET
    2   Data  even  none    20     24  FLC$TAPE_CLOSE
    3   DCB   even  none     0      0  M$TSN_USED
    4   DCB   even  none     0      0  M$STATUS
    5   DCB   even  none     0      0  M$REBUILD
    6   DCB   even  none     0      0  M$ARCHIVE
    7   DCB   even  none     0      0  M$NODATA_LIST
    8   Proc  even  none    35     43  FLC$TAPE_CLOSE

    ****  Entry defs  ****

                              Check   Calling
                             calling  sequence
  Sect OctLoc Primary Altret sequence   type   Parms  Name
     8      0   yes    yes     yes      Std        1  FLC$TAPE_CLOSE

  ****  Entry refs  ****

         Check        Calling
        calling       sequence
Altret sequence SRef   type   Args  Name
         yes           Std       5 FLI$RPT_ERR
                       nStd      0 X66_AUTO_1
                       nStd      0 X66_AALT
                       nStd      0 X66_ARET
                       Std       0 B_CONSPOOL_D
PL6.E3A0      #007=FLC$TAPE_CLOSE File=FLC$ROUTINES.:E05TSI                      TUE 07/29/97 15:44 Page:259

  ****  Data refs  ****

  Flags:  r = read only, s = secondary
Flgs Name                             Flgs Name                             Flgs Name
     M$UC                                  TAPE_DCBLIST$                         FPT_EXIT
     TAPE_CLOSE                            SNVECLIST$                            B$TCB$
     DPLIST$                               DPRESLIST$                            DISK_FILE_SPEC$
     SPECCHARS                             LAST_TAPE_FSN                         EFTWORD
     M$PRE_RET                             RET_CMDS_NAME                         M$TSN_USED
     M$STATUS                              M$REBUILD                             M$ARCHIVE
     M$NODATA_LIST                         M$TAPE00$                             BLK_TAG$
     BLK_TAG0$                             NBR_BYTES_TO_MOVE                     DISK_GRAN$
     BLOCK_GRAN$                      r    EFT_CVOL_FILE                    r    EFT_RESTRICT_FILE
     TAPE_BAD                              TSN_USED_NAME                         BACKUP_NAME
r    ARCHIVE_NAME                     r    PRIME_FILE                       r    DUAL_FILE
     REBUILD_NAME                          REBUILD_DIR_KEY                       REBUILD_KEY
     NODATA_FILE_NAME                      NODATA_KEY                            B_VECTNIL

  ****  Segment refs  ****

  Flags:  r = read only, s = secondary
Flgs Name                             Flgs Name                             Flgs Name
     ISSID                                 NULLSID
PL6.E3A0      #007=FLC$TAPE_CLOSE File=FLC$ROUTINES.:E05TSI                      TUE 07/29/97 15:44 Page:260


     1013        1        /*T***********************************************************/
     1014        2        /*T*                                                         */
     1015        3        /*T* Copyright (c) Bull HN Information Systems Inc., 1997    */
     1016        4        /*T*                                                         */
     1017        5        /*T***********************************************************/
     1018        6        %EJECT;
PL6.E3A0      #007=FLC$TAPE_CLOSE File=FLC$ROUTINES.:E05TSI                      TUE 07/29/97 15:44 Page:261
     1019        7        FLC$TAPE_CLOSE: PROC( ERR ) ALTRET;

      7  8 000000   000000 700200 xent  FLC$TAPE_CL* TSX0  ! X66_AUTO_1
         8 000001   000004 000001                    ZERO    4,1

     1020        8        /*F* NAME: FLC$TAPE_CLOSE
     1021        9              PURPOSE: Close currently open tape file.
     1022       10        */
     1023       11
     1024       12        /***
     1025       13         *** INCLUDE
     1026       14         ***/
     1027       15
     1028       16        %INCLUDE CP_6;
     1029     5575        %INCLUDE FLI_DATA_R;
     1030     6989        %INCLUDE FLS_DATA_R;
     1031     8789
     1032     8790        /***
     1033     8791         *** ENTRY
     1034     8792         ***/
     1035     8793
     1036     8794    1   DCL FLI$RPT_ERR ENTRY(5);
     1037     8795
     1038     8796
     1039     8797    1   DCL 1 ERR ALIGNED,
     1040     8798    1         2 FCG BIT(12) UNAL,
     1041     8799    1         2 MID BIT(6) UNAL,
     1042     8800    1         2 MON BIT(1) UNAL,
     1043     8801    1         2 CODE UBIN(14) UNAL,
     1044     8802    1         2 SEV UBIN(3) UNAL;
     1045     8803
     1046     8804        /***
     1047     8805         *** BASED
     1048     8806         ***/
     1049     8807
     1050     8808        %F$DCB( BASED="BASED(M$TAPE00$)" );
     1051     8865        %B$TCB( STCLASS="BASED(B$TCB$)" );
PL6.E3A0      #007=FLC$TAPE_CLOSE File=FLC$ROUTINES.:E05TSI                      TUE 07/29/97 15:44 Page:262
     1052     8868        %B$ALT;
     1053     8876
     1054     8877        /****************************************/
     1055     8878
     1056     8879    2      IF F$DCB.FCD# THEN DO;

   8879  8 000002   000000 470400 xsym               LDP0    M$TAPE00$
         8 000003   000031 236100                    LDQ     25,,PR0
         8 000004   020000 316007                    CANQ    8192,DL
         8 000005   000012 600000 8                  TZE     s:8883

     1057     8880    2         CALL M$CLOSE( TAPE_CLOSE ) ALTRET( JUSTALT );

   8880  8 000006   000000 630400 xsym               EPPR0   TAPE_CLOSE
         8 000007   450001 713400                    CLIMB   alt,close
         8 000010   406000 401760                    pmme    nvectors=13
         8 000011   000022 702000 8                  TSX2    JUSTALT

     1058     8881    2         END;

     1059     8882
     1060     8883    1      IF F$DCB.FSN# >= LAST_TAPE_FSN

   8883  8 000012   000000 470400 xsym               LDP0    M$TAPE00$
         8 000013   000034 236100                    LDQ     28,,PR0
         8 000014   000022 772000                    QRL     18
         8 000015   000000 116000 xsym               CMPQ    LAST_TAPE_FSN
         8 000016   000021 604000 8                  TMI     s:8888

     1061     8884    2       THEN DO;

     1062     8885    2         LAST_TAPE_FSN = 0;

   8885  8 000017   000000 450000 xsym               STZ     LAST_TAPE_FSN

     1063     8886    2         ALTRETURN;

PL6.E3A0      #007=FLC$TAPE_CLOSE File=FLC$ROUTINES.:E05TSI                      TUE 07/29/97 15:44 Page:263
   8886  8 000020   000000 702200 xent               TSX2  ! X66_AALT

     1064     8887    2         END;
     1065     8888    1       ELSE RETURN;

   8888  8 000021   000000 702200 xent               TSX2  ! X66_ARET

     1066     8889
     1067     8890    1   JUSTALT:
     1068     8891    1      CALL FLI$RPT_ERR;

   8891  8 000022   000002 631400 xsym  JUSTALT      EPPR1   B_VECTNIL+2
         8 000023   000000 701000 xent               TSX1    FLI$RPT_ERR
         8 000024   000000 011000                    NOP     0

     1069     8892    1      IF FPT_EXIT.V.STEPCC# < %TAPE_ERROR

   8892  8 000025   000004 236000 xsym               LDQ     FPT_EXIT+4
         8 000026   777000 376003                    ANQ     -512,DU
         8 000027   004000 116003                    CMPQ    2048,DU
         8 000030   000033 603000 8                  TRC     s:8894

     1070     8893    1       THEN FPT_EXIT.V.STEPCC# = %TAPE_ERROR;

   8893  8 000031   004000 236003                    LDQ     2048,DU
         8 000032   000004 552040 xsym               STBQ    FPT_EXIT+4,'40'O

     1071     8894    1      TAPE_BAD = '1'B;

   8894  8 000033   400000 236003                    LDQ     -131072,DU
         8 000034   000000 756000 xsym               STQ     TAPE_BAD

     1072     8895    1      ERR = B$TCB.ALT$->B$ALT.ERR;

   8895  8 000035   000000 470400 xsym               LDP0    B$TCB$
         8 000036   000000 471500                    LDP1    0,,PR0
         8 000037   100102 236100                    LDQ     66,,PR1
PL6.E3A0      #007=FLC$TAPE_CLOSE File=FLC$ROUTINES.:E05TSI                      TUE 07/29/97 15:44 Page:264
         8 000040   200003 473500                    LDP3    @ERR,,AUTO
         8 000041   300000 756100                    STQ     0,,PR3

     1073     8896    1      ALTRETURN;

   8896  8 000042   000000 702200 xent               TSX2  ! X66_AALT
     1074     8897
     1075     8898    1   END FLC$TAPE_CLOSE;

PL6.E3A0      #007=FLC$TAPE_CLOSE File=FLC$ROUTINES.:E05TSI                      TUE 07/29/97 15:44 Page:265
--  Include file information  --

   FLS_DATA_R.:E05TOU  cannot be made into a system file and is referenced.
   B_MICROPS_C.:E05TOU  is referenced.
   FLB_SUBS_C.:E05TOU  is referenced.
   FLI_DATA_R.:E05TOU  cannot be made into a system file and is referenced.
   CP_6_C.:E05TOU  is referenced.
   CP_6.:E05TOU  cannot be made into a system file and is referenced.
      No diagnostics issued in procedure FLC$TAPE_CLOSE.
PL6.E3A0      #007=FLC$TAPE_CLOSE File=FLC$ROUTINES.:E05TSI                      TUE 07/29/97 15:44 Page:266

 **** Variables and constants ****

  ****  Section 002  Data  FLC$TAPE_CLOSE

  ****  Scalars and arrays  ****
OctLoc.c.b A Datatyp(siz) R M Lvl/name                 OctLoc.c.b A Datatyp(siz) R M Lvl/name

    12-0-0/d STRC(360)   r     1 DEL_NODATA_REC

  ****  Auto variables  ****

  ****  Scalars and arrays  ****
OctLoc.c.b A Datatyp(siz) R M Lvl/name                 OctLoc.c.b A Datatyp(siz) R M Lvl/name

     3-0-0/w PTR         r     1 @ERR                      *0-0-0/w STRC        r     1 ERR

  ****  SYMREF variables  ****

  ****  Scalars and arrays  ****
OctLoc.c.b A Datatyp(siz) R M Lvl/name                 OctLoc.c.b A Datatyp(siz) R M Lvl/name

     0-0-0/c ASTR(9)     r     1 ARCHIVE_NAME               0-0-0/w PTR         r     1 B$TCB$
     0-0-0/c ASTR(9)     r     1 BACKUP_NAME                0-0-0/w PTR         r     1 BLK_TAG$
     0-0-0/w PTR         r     1 BLK_TAG0$                  0-0-0/w PTR         r     1 BLOCK_GRAN$
     0-0-0/w PTR         r     1 DISK_FILE_SPEC$            0-0-0/w PTR         r     1 DISK_GRAN$
     0-0-0/w PTR         r     1 DPLIST$                    0-0-0/w PTR         r     1 DPRESLIST$
     0-0-0/c ASTR(9)     r     1 DUAL_FILE                  0-0-0/c ASTR(9)     r     1 EFT_CVOL_FILE
     0-0-0/c ASTR(9)     r     1 EFT_RESTRICT_FILE          0-0-0/d STRC(216)   r     1 FPT_EXIT
     0-0-0/w SBIN        r     1 LAST_TAPE_FSN              0-0-0/w PTR         r     1 M$TAPE00$
     0-0-0/w SBIN        r     1 NBR_BYTES_TO_MOVE          0-0-0/c ASTR(9)     r     1 NODATA_FILE_NAME
     0-0-0/c STRC(369)   r     1 NODATA_KEY                 0-0-0/c ASTR(9)     r     1 PRIME_FILE
     0-0-0/c ASTR(9)     r     1 REBUILD_DIR_KEY            0-0-0/c ASTR(9)     r     1 REBUILD_KEY
     0-0-0/c ASTR(9)     r     1 REBUILD_NAME               0-0-0/c ASTR(9)     r     1 RET_CMDS_NAME
     0-0-0/w PTR         r     1 SNVECLIST$                 0-0-0/b BIT         r     1 TAPE_BAD
     0-0-0/d STRC(1080)  r     1 TAPE_CLOSE                 0-0-0/w PTR         r     1 TAPE_DCBLIST$
     0-0-0/c ASTR(9)     r     1 TSN_USED_NAME

PL6.E3A0      #007=FLC$TAPE_CLOSE File=FLC$ROUTINES.:E05TSI                      TUE 07/29/97 15:44 Page:267
  ****  BASED and DCB variables  ****

  ****  Scalars and arrays  ****
OctLoc.c.b A Datatyp(siz) R M Lvl/name                 OctLoc.c.b A Datatyp(siz) R M Lvl/name

     0-0-0/w STRC(2448)  r     1 B$ALT                      0-0-0/w STRC(144)   r     1 B$TCB
     0-0-0/d ASTR(3528)  r     1 F$DCB                      0-0-0N  NULL        r     1 M$NODATA_LIST


   Procedure FLC$TAPE_CLOSE requires 35 words for executable code.
   Procedure FLC$TAPE_CLOSE requires 4 words of local(AUTO) storage.

    No errors detected in file FLC$ROUTINES.:E05TSI    .
PL6.E3A0      #007=FLC$TAPE_CLOSE File=FLC$ROUTINES.:E05TSI                      TUE 07/29/97 15:44 Page:268
          *** CROSS REFERENCE LISTING ***
**     DENOTES     IDENTIFIER DEFINITION
<<                 IDENTIFIER'S VALUE SET
>>                 IDENTIFIER'S VALUE USED
<>                 IDENTIFIER SET AND/OR USED
--                 IDENTIFIER REFERENCED
PL6.E3A0      #007=FLC$TAPE_CLOSE File=FLC$ROUTINES.:E05TSI                      TUE 07/29/97 15:44 Page:269
          MINI XREF LISTING

ARCHIVE_NAME.L#
      7881**DCL      7881--IMP-SIZ
B$ALT.CODE
      8870**DCL      8870--REDEF    8871--REDEF    8871--REDEF
B$ALT.ERR
      8871**DCL      8895>>ASSIGN
B$ALT.ERR.ERR#
      8872**DCL      8872--REDEF
B$ALT.EVID
      8871**DCL      8871--REDEF    8871--REDEF
B$TCB.ALT$
      8866**DCL      8895>>ASSIGN
B$TCB$
      6506**DCL      8866--IMP-PTR  8895>>ASSIGN
BACKUP_NAME.L#
      7525**DCL      7525--IMP-SIZ
BLK_TAG.NAME
      7017**DCL      7017--REDEF
BLK_TAG$
      7014**DCL      7014--IMP-PTR
BLK_TAG0.NAME
      7023**DCL      7023--REDEF
BLK_TAG0$
      7020**DCL      7020--IMP-PTR
BLOCK_GRAN$
      7027**DCL      7028--IMP-PTR
CLOSE_NODATA_LIST.SN_
      8679**DCL      8679--REDEF
CLOSE_NODATA_LIST.UTL_
      8680**DCL      8680--REDEF
CLOSE_NODATA_LIST.V.EXPIRE#
      8694**DCL      8694--REDEF
PL6.E3A0      #007=FLC$TAPE_CLOSE File=FLC$ROUTINES.:E05TSI                      TUE 07/29/97 15:44 Page:270
CLOSE_NODATA_LIST.V.TYPE#
      8692**DCL      8692--REDEF
CLOSE_NODATA_LIST.V.XTNSIZE#
      8689**DCL      8689--REDEF    8691--REDEF
CLOSE_PRIME_DUAL.SN_
      8156**DCL      8156--REDEF
CLOSE_PRIME_DUAL.UTL_
      8157**DCL      8157--REDEF
CLOSE_PRIME_DUAL.V.EXPIRE#
      8171**DCL      8171--REDEF
CLOSE_PRIME_DUAL.V.TYPE#
      8169**DCL      8169--REDEF
CLOSE_PRIME_DUAL.V.XTNSIZE#
      8166**DCL      8166--REDEF    8168--REDEF
CLOSE_REBUILD.SN_
      8431**DCL      8431--REDEF
CLOSE_REBUILD.UTL_
      8432**DCL      8432--REDEF
CLOSE_REBUILD.V.EXPIRE#
      8446**DCL      8446--REDEF
CLOSE_REBUILD.V.TYPE#
      8444**DCL      8444--REDEF
CLOSE_REBUILD.V.XTNSIZE#
      8441**DCL      8441--REDEF    8443--REDEF
CLOSE_STATUS.SN_
      7646**DCL      7646--REDEF
CLOSE_STATUS.UTL_
      7647**DCL      7647--REDEF
CLOSE_STATUS.V.EXPIRE#
      7661**DCL      7661--REDEF
CLOSE_STATUS.V.TYPE#
      7659**DCL      7659--REDEF
CLOSE_STATUS.V.XTNSIZE#
      7656**DCL      7656--REDEF    7658--REDEF
CLOSE_TSN_USED.SN_
      7356**DCL      7356--REDEF
PL6.E3A0      #007=FLC$TAPE_CLOSE File=FLC$ROUTINES.:E05TSI                      TUE 07/29/97 15:44 Page:271
CLOSE_TSN_USED.UTL_
      7357**DCL      7357--REDEF
CLOSE_TSN_USED.V.EXPIRE#
      7371**DCL      7371--REDEF
CLOSE_TSN_USED.V.TYPE#
      7369**DCL      7369--REDEF
CLOSE_TSN_USED.V.XTNSIZE#
      7366**DCL      7366--REDEF    7368--REDEF
CON_CLOSE_ARCHIVE.SN_
      7688**DCL      7688--REDEF
CON_CLOSE_ARCHIVE.UTL_
      7689**DCL      7689--REDEF
CON_CLOSE_ARCHIVE.V.EXPIRE#
      7703**DCL      7703--REDEF
CON_CLOSE_ARCHIVE.V.TYPE#
      7701**DCL      7701--REDEF
CON_CLOSE_ARCHIVE.V.XTNSIZE#
      7698**DCL      7698--REDEF    7700--REDEF
CON_OPEN_ARCHIVE_FILE.ACSVEH_
      7775**DCL      7776--REDEF
CON_OPEN_ARCHIVE_FILE.ALTKEYS_
      7781**DCL      7782--REDEF    7782--REDEF
CON_OPEN_ARCHIVE_FILE.HDR_
      7780**DCL      7781--REDEF
CON_OPEN_ARCHIVE_FILE.TAB_
      7779**DCL      7780--REDEF
CON_OPEN_ARCHIVE_FILE.UHL_
      7773**DCL      7774--REDEF    7774--REDEF
CON_OPEN_ARCHIVE_FILE.V.FSN#
      7813**DCL      7813--REDEF    7813--REDEF
CON_OPEN_ARCHIVE_FILE.WSN_
      7779**DCL      7779--REDEF
CON_READ_ARCHIVE_FILE.STATION_
      7837**DCL      7838--REDEF
CON_READ_ARCHIVE_FILE.V.DVBYTE.REREAD#
      7849**DCL      7849--REDEF
PL6.E3A0      #007=FLC$TAPE_CLOSE File=FLC$ROUTINES.:E05TSI                      TUE 07/29/97 15:44 Page:272
CON_READ_ARCHIVE_FILE.V.INDX#
      7847**DCL      7847--REDEF
CVOL_UTL.ULBL#
      7116**DCL      7116--REDEF
DEL_NODATA_REC.V
      8782**DCL      8779--DCLINIT
DISK_CLOSE.SN_
      6186**DCL      6186--REDEF
DISK_CLOSE.UTL_
      6187**DCL      6187--REDEF
DISK_CLOSE.V.EXPIRE#
      6201**DCL      6201--REDEF
DISK_CLOSE.V.TYPE#
      6199**DCL      6199--REDEF
DISK_CLOSE.V.XTNSIZE#
      6196**DCL      6196--REDEF    6198--REDEF
DISK_FILE_SPEC.SPEC
      6551**DCL      6553--REDEF
DISK_FILE_SPEC.SPEC.START
      6552**DCL      6552--REDEF
DISK_FILE_SPEC.SPEC.STOP
      6553**DCL      6553--REDEF
DISK_FILE_SPEC$
      6550**DCL      6551--IMP-PTR
DISK_GRAN$
      7027**DCL      7027--IMP-PTR
DISK_OPEN.ACSVEH_
      6051**DCL      6052--REDEF
DISK_OPEN.ALTKEYS_
      6057**DCL      6058--REDEF    6058--REDEF
DISK_OPEN.HDR_
      6056**DCL      6057--REDEF
DISK_OPEN.TAB_
      6055**DCL      6056--REDEF
DISK_OPEN.UHL_
      6049**DCL      6050--REDEF    6050--REDEF
PL6.E3A0      #007=FLC$TAPE_CLOSE File=FLC$ROUTINES.:E05TSI                      TUE 07/29/97 15:44 Page:273
DISK_OPEN.V.FSN#
      6089**DCL      6089--REDEF    6089--REDEF
DISK_OPEN.WSN_
      6055**DCL      6055--REDEF
DISK_READ.STATION_
      6113**DCL      6114--REDEF
DISK_READ.V.DVBYTE.REREAD#
      6125**DCL      6125--REDEF
DISK_READ.V.INDX#
      6123**DCL      6123--REDEF
DISK_WRITE.STATION_
      6151**DCL      6151--REDEF
DISK_WRITE.V.DVBYTE.VFC#
      6158**DCL      6158--REDEF
DPLIST$
      6536**DCL      6548--IMP-PTR
DPRESLIST$
      6550**DCL      6550--IMP-PTR
DUAL_FILE.L#
      7952**DCL      7952--IMP-SIZ
EFTWORD
      6671**DCL      6671--REDEF
EFT_CVOL_FILE.L#
      7076**DCL      7076--IMP-SIZ
EFT_RESTRICT_FILE.L#
      7103**DCL      7103--IMP-SIZ
ERR
      8797**DCL         7--PROC     8895<<ASSIGN
F$DCB.ACTPOS
      8841**DCL      8841--REDEF
F$DCB.ARS#
      8815**DCL      8815--REDEF
F$DCB.ATTR
      8834**DCL      8835--REDEF
F$DCB.BORROW
      8849**DCL      8849--REDEF    8849--REDEF    8849--REDEF
PL6.E3A0      #007=FLC$TAPE_CLOSE File=FLC$ROUTINES.:E05TSI                      TUE 07/29/97 15:44 Page:274
F$DCB.DCBNAME.L
      8863**DCL      8863--IMP-SIZ
F$DCB.EOMCHAR#
      8819**DCL      8819--REDEF
F$DCB.FCD#
      8828**DCL      8879>>IF
F$DCB.FLDID
      8844**DCL      8844--REDEF
F$DCB.FORM$
      8838**DCL      8838--REDEF
F$DCB.FSECT
      8854**DCL      8854--REDEF
F$DCB.FSN#
      8831**DCL      8831--REDEF    8831--REDEF    8832--REDEF    8883>>IF
F$DCB.HEADER$
      8837**DCL      8837--REDEF
F$DCB.IXTNSIZE#
      8835**DCL      8835--REDEF
F$DCB.LASTSTA$
      8824**DCL      8824--REDEF
F$DCB.LVL
      8850**DCL      8850--REDEF
F$DCB.NAME#.C
      8825**DCL      8825--REDEF
F$DCB.NOEOF
      8847**DCL      8847--REDEF
F$DCB.NRECS#
      8836**DCL      8836--REDEF
F$DCB.NRECX
      8855**DCL      8855--REDEF
F$DCB.OHDR
      8847**DCL      8847--REDEF
F$DCB.ORG#
      8830**DCL      8830--REDEF
F$DCB.PRECNO
      8853**DCL      8853--REDEF
PL6.E3A0      #007=FLC$TAPE_CLOSE File=FLC$ROUTINES.:E05TSI                      TUE 07/29/97 15:44 Page:275
F$DCB.RCSZ
      8859**DCL      8859--REDEF
F$DCB.RES#
      8826**DCL      8826--REDEF
F$DCB.SETX
      8838**DCL      8838--REDEF
F$DCB.TAB$
      8838**DCL      8838--REDEF
F$DCB.TDA
      8852**DCL      8853--REDEF
F$DCB.WSN#
      8826**DCL      8826--REDEF
FIT_AREA.W2
      7387**DCL      7388--REDEF
FLI$RPT_ERR
      8794**DCL-ENT  8891--CALL
FPT_EXIT.V.STEPCC#
      5976**DCL      5976--REDEF    8892>>IF       8893<<ASSIGN
JUSTALT
      8891**LABEL    8880--CALLALT
LAST_TAPE_FSN
      6670**DCL      8883>>IF       8885<<ASSIGN
M$CLOSE
      5503**DCL-ENT  8880--CALL
M$TAPE00$
      7013**DCL      8809--IMP-PTR  8879>>IF       8883>>IF
NBR_BYTES_TO_MOVE
      7026**DCL      7027--IMP-SIZ  7028--IMP-SIZ
NODATA_FILE_NAME.L#
      8641**DCL      8641--IMP-SIZ
NODATA_KEY
      8787**DCL      8779--DCLINIT  8780--DCLINIT
OPEN_NODATA_LIST.ACSVEH_
      8574**DCL      8575--REDEF
OPEN_NODATA_LIST.ALTKEYS_
      8580**DCL      8581--REDEF    8581--REDEF
PL6.E3A0      #007=FLC$TAPE_CLOSE File=FLC$ROUTINES.:E05TSI                      TUE 07/29/97 15:44 Page:276
OPEN_NODATA_LIST.HDR_
      8579**DCL      8580--REDEF
OPEN_NODATA_LIST.TAB_
      8578**DCL      8579--REDEF
OPEN_NODATA_LIST.UHL_
      8572**DCL      8573--REDEF    8573--REDEF
OPEN_NODATA_LIST.V.FSN#
      8612**DCL      8612--REDEF    8612--REDEF
OPEN_NODATA_LIST.WSN_
      8578**DCL      8578--REDEF
OPEN_PRIME_DUAL.ACSVEH_
      8021**DCL      8022--REDEF
OPEN_PRIME_DUAL.ALTKEYS_
      8027**DCL      8028--REDEF    8028--REDEF
OPEN_PRIME_DUAL.HDR_
      8026**DCL      8027--REDEF
OPEN_PRIME_DUAL.TAB_
      8025**DCL      8026--REDEF
OPEN_PRIME_DUAL.UHL_
      8019**DCL      8020--REDEF    8020--REDEF
OPEN_PRIME_DUAL.V.FSN#
      8059**DCL      8059--REDEF    8059--REDEF
OPEN_PRIME_DUAL.WSN_
      8025**DCL      8025--REDEF
OPEN_REBUILD.ACSVEH_
      8256**DCL      8257--REDEF
OPEN_REBUILD.ALTKEYS_
      8262**DCL      8263--REDEF    8263--REDEF
OPEN_REBUILD.HDR_
      8261**DCL      8262--REDEF
OPEN_REBUILD.TAB_
      8260**DCL      8261--REDEF
OPEN_REBUILD.UHL_
      8254**DCL      8255--REDEF    8255--REDEF
OPEN_REBUILD.V.FSN#
      8294**DCL      8294--REDEF    8294--REDEF
PL6.E3A0      #007=FLC$TAPE_CLOSE File=FLC$ROUTINES.:E05TSI                      TUE 07/29/97 15:44 Page:277
OPEN_REBUILD.WSN_
      8260**DCL      8260--REDEF
OPEN_STATUS.ACSVEH_
      7458**DCL      7459--REDEF
OPEN_STATUS.ALTKEYS_
      7464**DCL      7465--REDEF    7465--REDEF
OPEN_STATUS.HDR_
      7463**DCL      7464--REDEF
OPEN_STATUS.TAB_
      7462**DCL      7463--REDEF
OPEN_STATUS.UHL_
      7456**DCL      7457--REDEF    7457--REDEF
OPEN_STATUS.V.FSN#
      7496**DCL      7496--REDEF    7496--REDEF
OPEN_STATUS.WSN_
      7462**DCL      7462--REDEF
OPEN_TSN_USED.ACSVEH_
      7194**DCL      7195--REDEF
OPEN_TSN_USED.ALTKEYS_
      7200**DCL      7201--REDEF    7201--REDEF
OPEN_TSN_USED.HDR_
      7199**DCL      7200--REDEF
OPEN_TSN_USED.TAB_
      7198**DCL      7199--REDEF
OPEN_TSN_USED.UHL_
      7192**DCL      7193--REDEF    7193--REDEF
OPEN_TSN_USED.V.FSN#
      7232**DCL      7232--REDEF    7232--REDEF
OPEN_TSN_USED.WSN_
      7198**DCL      7198--REDEF
PRE_RET_CLOSE.SN_
      6914**DCL      6914--REDEF
PRE_RET_CLOSE.UTL_
      6915**DCL      6915--REDEF
PRE_RET_CLOSE.V.EXPIRE#
      6929**DCL      6929--REDEF
PL6.E3A0      #007=FLC$TAPE_CLOSE File=FLC$ROUTINES.:E05TSI                      TUE 07/29/97 15:44 Page:278
PRE_RET_CLOSE.V.TYPE#
      6927**DCL      6927--REDEF
PRE_RET_CLOSE.V.XTNSIZE#
      6924**DCL      6924--REDEF    6926--REDEF
PRE_RET_OPEN.ACSVEH_
      6849**DCL      6850--REDEF
PRE_RET_OPEN.ALTKEYS_
      6855**DCL      6856--REDEF    6856--REDEF
PRE_RET_OPEN.HDR_
      6854**DCL      6855--REDEF
PRE_RET_OPEN.TAB_
      6853**DCL      6854--REDEF
PRE_RET_OPEN.UHL_
      6847**DCL      6848--REDEF    6848--REDEF
PRE_RET_OPEN.V.FSN#
      6887**DCL      6887--REDEF    6887--REDEF
PRE_RET_OPEN.WSN_
      6853**DCL      6853--REDEF
PRE_RET_READ.STATION_
      6704**DCL      6705--REDEF
PRE_RET_READ.V.DVBYTE.REREAD#
      6716**DCL      6716--REDEF
PRE_RET_READ.V.INDX#
      6714**DCL      6714--REDEF
PRE_RET_WRITE.STATION_
      6742**DCL      6742--REDEF
PRE_RET_WRITE.V.DVBYTE.VFC#
      6749**DCL      6749--REDEF
PRIME_FILE.L#
      7925**DCL      7925--IMP-SIZ
READ_NODATA_LIST.STATION_
      8718**DCL      8719--REDEF
READ_NODATA_LIST.V.DVBYTE.REREAD#
      8730**DCL      8730--REDEF
READ_NODATA_LIST.V.INDX#
      8728**DCL      8728--REDEF
PL6.E3A0      #007=FLC$TAPE_CLOSE File=FLC$ROUTINES.:E05TSI                      TUE 07/29/97 15:44 Page:279
READ_PRIME_DUAL.STATION_
      8083**DCL      8084--REDEF
READ_PRIME_DUAL.V.DVBYTE.REREAD#
      8095**DCL      8095--REDEF
READ_PRIME_DUAL.V.INDX#
      8093**DCL      8093--REDEF
READ_REBUILD.STATION_
      8389**DCL      8390--REDEF
READ_REBUILD.V.DVBYTE.REREAD#
      8401**DCL      8401--REDEF
READ_REBUILD.V.INDX#
      8399**DCL      8399--REDEF
READ_STATUS.STATION_
      7604**DCL      7605--REDEF
READ_STATUS.V.DVBYTE.REREAD#
      7616**DCL      7616--REDEF
READ_STATUS.V.INDX#
      7614**DCL      7614--REDEF
READ_TSN_USED.STATION_
      7314**DCL      7315--REDEF
READ_TSN_USED.V.DVBYTE.REREAD#
      7326**DCL      7326--REDEF
READ_TSN_USED.V.INDX#
      7324**DCL      7324--REDEF
REBUILD_DIR_KEY.L#
      8475**DCL      8475--IMP-SIZ
REBUILD_KEY.L#
      8502**DCL      8502--IMP-SIZ
REBUILD_NAME.L#
      8323**DCL      8323--IMP-SIZ
RET_CMDS_NAME.L#
      6958**DCL      6958--IMP-SIZ
SNVECLIST$
      6490**DCL      6490--IMP-PTR
SPEC.START
      6554**DCL      6555--REDEF
PL6.E3A0      #007=FLC$TAPE_CLOSE File=FLC$ROUTINES.:E05TSI                      TUE 07/29/97 15:44 Page:280
SPEC.STOP
      6555**DCL      6556--REDEF
SPECCHARS
      6554**DCL      6554--REDEF
TAPE_BAD
      7121**DCL      8894<<ASSIGN
TAPE_BLOCK_.W2
      7042**DCL      7043--REDEF
TAPE_CLOSE
      6407**DCL      8880<>CALL
TAPE_CLOSE.SN_
      6407**DCL      6407--REDEF
TAPE_CLOSE.UTL_
      6408**DCL      6408--REDEF
TAPE_CLOSE.V.EXPIRE#
      6422**DCL      6422--REDEF
TAPE_CLOSE.V.TYPE#
      6420**DCL      6420--REDEF
TAPE_CLOSE.V.XTNSIZE#
      6417**DCL      6417--REDEF    6419--REDEF
TAPE_DCBLIST$
      5963**DCL      5963--IMP-PTR
TAPE_OPEN.ACSVEH_
      6272**DCL      6273--REDEF
TAPE_OPEN.ALTKEYS_
      6278**DCL      6279--REDEF    6279--REDEF
TAPE_OPEN.HDR_
      6277**DCL      6278--REDEF
TAPE_OPEN.TAB_
      6276**DCL      6277--REDEF
TAPE_OPEN.UHL_
      6270**DCL      6271--REDEF    6271--REDEF
TAPE_OPEN.V.FSN#
      6310**DCL      6310--REDEF    6310--REDEF
TAPE_OPEN.WSN_
      6276**DCL      6276--REDEF
PL6.E3A0      #007=FLC$TAPE_CLOSE File=FLC$ROUTINES.:E05TSI                      TUE 07/29/97 15:44 Page:281
TAPE_READ.STATION_
      6334**DCL      6335--REDEF
TAPE_READ.V.DVBYTE.REREAD#
      6346**DCL      6346--REDEF
TAPE_READ.V.INDX#
      6344**DCL      6344--REDEF
TAPE_WRITE.STATION_
      6372**DCL      6372--REDEF
TAPE_WRITE.V.DVBYTE.VFC#
      6379**DCL      6379--REDEF
TSN_USED_NAME.L#
      7261**DCL      7261--IMP-SIZ
TVECTOR.W2
      6503**DCL      6504--REDEF
WRITE_NODATA_LIST.STATION_
      8756**DCL      8756--REDEF
WRITE_NODATA_LIST.V.DVBYTE.VFC#
      8763**DCL      8763--REDEF
WRITE_PRIME_DUAL.STATION_
      8121**DCL      8121--REDEF
WRITE_PRIME_DUAL.V.DVBYTE.VFC#
      8128**DCL      8128--REDEF
WRITE_REBUILD.STATION_
      8357**DCL      8357--REDEF
WRITE_REBUILD.V.DVBYTE.VFC#
      8364**DCL      8364--REDEF
WRITE_STATUS.STATION_
      7572**DCL      7572--REDEF
WRITE_STATUS.V.DVBYTE.VFC#
      7579**DCL      7579--REDEF
WRITE_TSN_USED.STATION_
      7282**DCL      7282--REDEF
WRITE_TSN_USED.V.DVBYTE.VFC#
      7289**DCL      7289--REDEF
