VERSION E05

PL6.E3A0      #001=FLE_DATA_D File=FLE_DATA_D.:E05TSI                            TUE 07/29/97 15:46 Page:1
        1        1        /*M* FLE_DATA_D - EFT's error messages */
        2        2        /*T***********************************************************/
        3        3        /*T*                                                         */
        4        4        /*T* Copyright (c) Bull HN Information Systems Inc., 1997    */
        5        5        /*T*                                                         */
        6        6        /*T***********************************************************/
        7        7
        8        8        FLE_DATA_D: PROC NOAUTO;
        9        9        /* ! ! */
       10       10        %INCLUDE CP_6;
       11     5569        /* !R! */
       12     5570        %LIST;
       13     5571        %INCLUDE FL_PERR_C;
        1+    5572        /*M* FL_PERR_C - EFT's error message code EQUs */
        2+    5573        /*T***********************************************************/
        3+    5574        /*T*                                                         */
        4+    5575        /*T* Copyright (c) Bull HN Information Systems Inc., 1997    */
        5+    5576        /*T*                                                         */
        6+    5577        /*T***********************************************************/
        7+    5578
        8+    5579        %EQU E$BADCT = 1;
        9+    5580        %EQU E$IE_FRB = 2;
       10+    5581        %EQU E$OVERLAP_RANGE = 3;
       11+    5582        %EQU E$OVERLAP_SKIP = 4;
       12+    5583        %EQU E$BAD_ACC = 5;
       13+    5584        %EQU E$BAD_MOD = 6;
       14+    5585        %EQU E$BAD_CRE = 7;
       15+    5586        %EQU E$IO_ERR = 8;
       16+    5587        %EQU E$BAD_SKIP_N_RANGE = 9;
       17+    5588        %EQU E$MUST_ACCT = 10;
       18+    5589        %EQU E$NO_RANGE = 11;
       19+    5590        %EQU E$EXPD_NOT_EXPD = 12;
       20+    5591        %EQU E$NO_NEXT_SPEC = 13;
       21+    5592        %EQU E$NO_PREV_SPEC = 14;
       22+    5593        %EQU E$DUP_BEF_ACC = 15;
       23+    5594        %EQU E$DUP_BEF_MOD = 16;
       24+    5595        %EQU E$DUP_BEF_CRE = 17;
PL6.E3A0      #001=FLE_DATA_D File=FLE_DATA_D.:E05TSI                            TUE 07/29/97 15:46 Page:2
       25+    5596        %EQU E$DUP_AFT_ACC = 18;
       26+    5597        %EQU E$DUP_AFT_MOD = 19;
       27+    5598        %EQU E$DUP_AFT_CRE = 20;
       28+    5599        %EQU E$DUP_BEF_BAC = 22;
       29+    5600        %EQU E$DUP_AFT_BAC = 23;
       30+    5601        %EQU E$DUP_AFT_ARC = 24;
       31+    5602        %EQU E$DUP_BEF_ARC = 25;
       32+    5603        %EQU E$BAD_FSN_RANGE = 26;
       33+    5604        %EQU E$PARTIAL_FILE = 27;
       34+    5605        %EQU E$DUPLICATE_PSN = 28;
       35+    5606        %EQU E$FIT_NOT_THERE = 29;
       36+    5607        %EQU E$MISSING_FILES = 30;
       37+    5608        %EQU E$NO_FSN_MATCH = 31;
       38+    5609        %EQU E$FETCH_SET = 32;
       39+    5610        %EQU E$STOW_SET = 33;
       40+    5611        %EQU E$NO_CODE14 = 34;
       41+    5612        %EQU E$NOSTOW = 35;
       42+    5613        %EQU E$NO_CODE6 = 36;
       43+    5614        %EQU E$NOT_STOWED = 37;
       44+    5615        %EQU E$STOW_DENIED = 38;
       45+    5616        %EQU E$UNSTOW_DENIED = 39;
       46+    5617        %EQU E$UNSTOW_OK = 41;
       47+    5618        %EQU E$ARCHIVE_ACTIVE = 42;
       48+    5619        %EQU E$ACTIVE_TO_INACTIVE = 43;
       49+    5620        %EQU E$ARCHIVE_INACTIVE = 44;
       50+    5621        %EQU E$NOT_ARCHIVE = 45;
       51+    5622        %EQU E$FETCH_FIRST = 46;
       52+    5623        %EQU E$UNARCHIVE_DENIED = 47;
       53+    5624        %EQU E$UNARCHIVE_DONE = 48;
       54+    5625        %EQU E$NO_CODE4 = 49;
       55+    5626        %EQU E$NOT_FETCH = 50;
       56+    5627        %EQU E$UNFETCH_DENIED = 51;
       57+    5628        %EQU E$UNFETCH_DONE = 52;
       58+    5629        %EQU E$FETCH_DENIED = 53;
       59+    5630        %EQU E$FETCH_DONE = 54;
       60+    5631        %EQU E$NO_CODE3 = 55;
       61+    5632        %EQU E$BAD_ARC = 57;
PL6.E3A0      #001=FLE_DATA_D File=FLE_DATA_D.:E05TSI                            TUE 07/29/97 15:46 Page:3
       62+    5633        %EQU E$BAD_BAC = 58;
       63+    5634        %EQU E$NEED_TIME = 59;
       64+    5635        %EQU E$TRY_AGAIN = 60;
       65+    5636        %EQU E$CAT_OFF = 61;
       66+    5637        %EQU E$MUST_CAT_OFF = 62;
       67+    5638        %EQU E$MUST_CAT_DISK = 63;
       68+    5639        %EQU E$NO_CATALOG = 64;
       69+    5640        %EQU E$NOT_CAT_FILE = 65;
       70+    5641        %EQU E$NOTHING_FOUND = 66;
       71+    5642        %EQU E$FILE_NAME = 67;
       72+    5643        %EQU E$MUST_BE_CAT_FILE = 68;
       73+    5644        %EQU E$NO_PREVIOUS_SAVE = 69;
       74+    5645        %EQU E$DEL_FILES_REMAIN = 70;
       75+    5646        %EQU E$ALREADY_ESTABLISH = 71;
       76+    5647        %EQU E$NOT_ARCHIVE_MASTER = 72;
       77+    5648        %EQU E$MEMBER_OF_ARCHIVE = 73;
       78+    5649        %EQU E$NOT_MEMBER_OF_ARCHIVE = 74;
       79+    5650        %EQU E$REMOVE_FROM_ARCHIVE = 75;
       80+    5651        %EQU E$REMOVE_MASTER_PACKSET = 76;
       81+    5652        %EQU E$CANT_SPECIFY_DELF = 77;
       82+    5653        %EQU E$CANT_SPECIFY_ANYF = 78;
       83+    5654        %EQU E$CANT_SPECIFY_QF = 79;
       84+    5655        %EQU E$CANT_SPECIFY_DIR = 80;
       85+    5656        %EQU E$CANT_SPECIFY_PAD = 81;
       86+    5657        %EQU E$CANT_SPECIFY_DEL_ACC = 82;
       87+    5658        %EQU E$CANT_SPECIFY_CLEANUP = 83;
       88+    5659        %EQU E$CANT_SPECIFY_ACUP = 84;
       89+    5660        %EQU E$CANT_SPECIFY_SCRUB = 85;
       90+    5661        %EQU E$CANT_SPECIFY_IDS = 86;
       91+    5662        %EQU E$RETURN_TO_COMMAND = 87;
       92+    5663        %EQU E$ARCHIVE_OUT_TAPESET = 88;
       93+    5664        %EQU E$WARN_OVERLAP_SKIP = 89;
       94+    5665        %EQU E$WARN_OVERLAP_RANGE = 90;
       95+    5666        %EQU E$CANT_OPEN_TBACKUP = 92;
       96+    5667        %EQU E$WRONG_DUAL = 95;
       97+    5668        %EQU E$WRONG_PRIME = 96;
       98+    5669        %EQU E$BLOCK_LIMIT = 97;
PL6.E3A0      #001=FLE_DATA_D File=FLE_DATA_D.:E05TSI                            TUE 07/29/97 15:46 Page:4
       99+    5670        %EQU E$NOT_SCRATCH_PACK = 98;
      100+    5671        %EQU E$CANT_RUN_EFT = 100;
      101+    5672        %EQU E$ARCFILE_REMOVED = 101;
      102+    5673        %EQU E$NO_ARCFILE = 102;
      103+    5674        %EQU E$WIPEOUT_SOURCE = 103;
      104+    5675        %EQU E$TOO_MANY_ERRORS_TO_SWITCH = 106;
      105+    5676        %EQU E$NUM_ARCHIVE_SETS = 107;
      106+    5677        %EQU E$BAD_TAPE_FILE = 108;
      107+    5678        %EQU E$CANT_SAVE_FILE = 110;
      108+    5679        %EQU E$BAD_BKUP_FILE = 112;
      109+    5680        %EQU E$NO_FSN = 113;
      110+    5681        %EQU E$REBUILD_CONTINUE = 114;
      111+    5682        %EQU E$BAD_FSN = 115;
      112+    5683        %EQU E$STOWED_ACT_OK = 116;
      113+    5684        %EQU E$STOWED_INACT_OK = 117;
      114+    5685        %EQU E$ACTIVE_FETCH_DENIED = 118;
      115+    5686        %EQU E$NO_FILE = 119;
      116+    5687        %EQU E$CANT_RUN_ARCOM = 120;
      117+    5688        %EQU E$BADCD = 121;
      118+    5689        %EQU E$TYPE_ARCHIVE_SET = 122;
      119+    5690        %EQU E$CANT_SPECIFY_DENSITY = 123;
      120+    5691        %EQU E$CANT_SPECIFY_EXPIRE = 124;
      121+    5692        %EQU E$CANT_FETCH = 126;
      122+    5693        %EQU E$CANT_RETRIEVE = 127;
      123+    5694        %EQU E$BAD_GP = 128;
      124+    5695        %EQU E$INCOMPLETE_FILE_ARCH = 129;
      125+    5696        %EQU E$BAD_RANGE = 130;
      126+    5697        %EQU E$RETRIEVE_FIRST = 131;
      127+    5698        %EQU E$FILES_SKIPPED = 132;
      128+    5699        %EQU E$OPER_ABORT = 133;
      129+    5700        %EQU E$BAD_DP_FORMAT = 134;
      130+    5701        %EQU E$NOT_ARCHIVE_UNSTOW = 135;
      131+    5702        %EQU E$CLOSE_INVALID = 136;
      132+    5703        %EQU E$FILE_REWRITTEN = 137;
      133+    5704        %EQU E$CANT_SPECIFY_SHARED = 138;
      134+    5705        %EQU E$INCOMPLETE_FILE_SKIP = 139;
      135+    5706        %EQU E$DUP_TAPESET = 140;
PL6.E3A0      #001=FLE_DATA_D File=FLE_DATA_D.:E05TSI                            TUE 07/29/97 15:46 Page:5
      136+    5707        %EQU E$COMPACT_FIN = 141;
       14     5708        %PLIST;
       15     5709
       16     5710
       17     5711        %VLP_ERRCODE( FPTN=E_BADCT, FCG='0614'O, MID='11'O, ERR#=%E$BADCT, SEV=2, STCLASS=
              5711            "CONSTANT SYMDEF" );
       18     5756        /*E*  ERROR: FLI-E$BADCT-2
       19     5757              MESSAGE: Bad CT format; must be CT#xxxxn or CT#xxxxnn
       20     5758              MESSAGE1: A catalogued tape is designated by four valid serial
       21     5759                        number characters followed by one or two numeric
       22     5760                        characters.
       23     5761        */
       24     5762
       25     5763        %VLP_ERRCODE( FPTN=E_BADCD, FCG='0614'O, MID='11'O, ERR#=%E$BADCD, SEV=2, STCLASS=
              5763            "CONSTANT SYMDEF" );
       26     5808        /*E*  ERROR: FLI-E$BADCD-2
       27     5809              MESSAGE: Bad CD format; must be CD#xxxxn or CD#xxxxnn
       28     5810              MESSAGE1: A controlled optical disk is designated by four valid
       29     5811                        serial number characters followed by one or two
       30     5812                        numeric characters.
       31     5813        */
       32     5814
       33     5815        %VLP_ERRCODE( FPTN=E_IE_FRB, FCG='0614'O, MID='11'O, ERR#=%E$IE_FRB, SEV=2, STCLASS=
              5815            "CONSTANT SYMDEF" );
       34     5860        /*E*  ERROR: FLI-E$IE_FRB-2
       35     5861             MESSAGE: Internal error in FLI$RETURN_BUF: you can only return released buffers
       36     5862        */
       37     5863
       38     5864        %VLP_ERRCODE( FPTN=E_OVERLAP_RANGE, FCG='0614'O, MID='02'O, ERR#=%E$OVERLAP_RANGE,
              5864            SEV=2, STCLASS="CONSTANT SYMDEF" );
       39     5909        /*E*  ERROR: FLB-E$OVERLAP_RANGE-2
       40     5910              MESSAGE: One of your range specifications overlaps another
       41     5911              MESSAGE1: If you submit an improvement STAR, the next version
       42     5912                        of EFT will tell you which ones overlap.
       43     5913        */
       44     5914
       45     5915        %VLP_ERRCODE( FPTN=E_OVERLAP_SKIP, FCG='0614'O, MID='02'O, ERR#=%E$OVERLAP_SKIP, SEV
PL6.E3A0      #001=FLE_DATA_D File=FLE_DATA_D.:E05TSI                            TUE 07/29/97 15:46 Page:6
              5915            =2, STCLASS="CONSTANT SYMDEF" );
       46     5960        /*E*  ERROR: FLB-E$OVERLAP_SKIP-2
       47     5961              MESSAGE: One of your skip specifications overlaps another
       48     5962              MESSAGE1: If you submit an improvement STAR, the next version
       49     5963                        of EFT will tell you which ones overlap.
       50     5964        */
       51     5965
       52     5966        %VLP_ERRCODE( FPTN=E_WARN_OVERLAP_RANGE, FCG='0614'O, MID='02'O, ERR#=
              5966            %E$WARN_OVERLAP_RANGE, SEV=2, STCLASS="CONSTANT SYMDEF" );
       53     6011        /*E*  ERROR: FLB-E$WARN_OVERLAP_RANGE-2
       54     6012              MESSAGE: Note that one of your range specifications overlaps another
       55     6013              MESSAGE1: If you submit an improvement STAR, the next version
       56     6014                        of EFT will tell you which ones overlap.
       57     6015        */
       58     6016
       59     6017        %VLP_ERRCODE( FPTN=E_WARN_OVERLAP_SKIP, FCG='0614'O, MID='02'O, ERR#=
              6017            %E$WARN_OVERLAP_SKIP, SEV=2, STCLASS="CONSTANT SYMDEF" );
       60     6062        /*E*  ERROR: FLB-E$WARN_OVERLAP_SKIP-2
       61     6063              MESSAGE: Note that one of your skip specifications overlaps another
       62     6064              MESSAGE1: If you submit an improvement STAR, the next version
       63     6065                        of EFT will tell you which ones overlap.
       64     6066        */
       65     6067
       66     6068        %VLP_ERRCODE( FPTN=E_BAD_ACC, FCG='0614'O, MID='02'O, ERR#=%E$BAD_ACC, SEV=2,
              6068            STCLASS="CONSTANT SYMDEF" );
       67     6113        /*E* ERROR: FLB-E$BAD_ACC-2
       68     6114             MESSAGE: No ACCESSED date can fit your criteria
       69     6115             MESSAGE1: It would have to be both after a date and
       70     6116                       before an earlier date.   That's impossible.
       71     6117        */
       72     6118
       73     6119        %VLP_ERRCODE( FPTN=E_BAD_MOD, FCG='0614'O, MID='02'O, ERR#=%E$BAD_MOD, SEV=2,
              6119            STCLASS="CONSTANT SYMDEF" );
       74     6164        /*E* ERROR: FLB-E$BAD_MOD-2
       75     6165             MESSAGE: No MODIFIED date can fit your criteria
       76     6166             MESSAGE1: It would have to be both after a date and
       77     6167                       before an earlier date.   That's impossible.
PL6.E3A0      #001=FLE_DATA_D File=FLE_DATA_D.:E05TSI                            TUE 07/29/97 15:46 Page:7
       78     6168        */
       79     6169
       80     6170        %VLP_ERRCODE( FPTN=E_BAD_CRE, FCG='0614'O, MID='02'O, ERR#=%E$BAD_CRE, SEV=2,
              6170            STCLASS="CONSTANT SYMDEF" );
       81     6215        /*E* ERROR: FLB-E$BAD_CRE-2
       82     6216             MESSAGE: No CREATED date can fit your criteria
       83     6217             MESSAGE1: It would have to be both after a date and
       84     6218                       before an earlier date.   That's impossible.
       85     6219        */
       86     6220
       87     6221        %VLP_ERRCODE( FPTN=E_BAD_BAC, FCG='0614'O, MID='02'O, ERR#=%E$BAD_BAC, SEV=2,
              6221            STCLASS="CONSTANT SYMDEF" );
       88     6266        /*E* ERROR: FLB-E$BAD_BAC-2
       89     6267             MESSAGE: No BACKUP date can fit your criteria
       90     6268             MESSAGE1: It would have to be both after a date and
       91     6269                       before an earlier date.   That's impossible.
       92     6270        */
       93     6271
       94     6272        %VLP_ERRCODE( FPTN=E_BAD_ARC, FCG='0614'O, MID='02'O, ERR#=%E$BAD_ARC, SEV=2,
              6272            STCLASS="CONSTANT SYMDEF" );
       95     6317        /*E* ERROR: FLB-E$BAD_ARC-2
       96     6318             MESSAGE: No ARCHIVED date can fit your criteria
       97     6319             MESSAGE1: It would have to be both after a date and
       98     6320                       before an earlier date.   That's impossible.
       99     6321        */
      100     6322
      101     6323        %VLP_ERRCODE( FPTN=E_BAD_RANGE, FCG='0614'O, MID='02'O, ERR#=%E$BAD_RANGE, SEV=2,
              6323            STCLASS="CONSTANT SYMDEF" );
      102     6368        /*E* ERROR: FLB-E$BAD_RANGE-2
      103     6369              MESSAGE: The first element in a range or skip range is greater than the last
      104     6370             MESSAGE1: If you submit an improvement STAR, the next version
      105     6371                        of EFT will tell you which one it is.
      106     6372        */
      107     6373
      108     6374        %VLP_ERRCODE( FPTN=E_BAD_SKIP_N_RANGE, FCG='0614'O, MID='02'O, ERR#=
              6374            %E$BAD_SKIP_N_RANGE, SEV=2, STCLASS="CONSTANT SYMDEF" );
      109     6419        /*E* ERROR: FLB-E$BAD_SKIP_N_RANGE-2
PL6.E3A0      #001=FLE_DATA_D File=FLE_DATA_D.:E05TSI                            TUE 07/29/97 15:46 Page:8
      110     6420             MESSAGE: A skip specification is not wholly contained within a range
      111     6421             MESSAGE1: If you submit an improvement STAR, the next version
      112     6422                        of EFT will tell you which one it is.
      113     6423        */
      114     6424
      115     6425        %VLP_ERRCODE( FPTN=E_MUST_ACCT, FCG='0614'O, MID='02'O, ERR#=%E$MUST_ACCT, SEV=2,
              6425            STCLASS="CONSTANT SYMDEF" );
      116     6470        /*E* ERROR: FLB-E$MUST_ACCT-2
      117     6471             MESSAGE: You must specify an account in the first range or skip
      118     6472             MESSAGE1: This account will then become the default for all following
      119     6473                       range and skip specifications until you specify another.
      120     6474             MESSAGE2: If you submit an improvement STAR, the next version
      121     6475                        of EFT will tell you which one it is.
      122     6476        */
      123     6477
      124     6478        %VLP_ERRCODE( FPTN=E_NO_RANGE, FCG='0614'O, MID='02'O, ERR#=%E$NO_RANGE, SEV=2,
              6478            STCLASS="CONSTANT SYMDEF" );
      125     6523        /*E* ERROR: FLB-E$NO_RANGE-2
      126     6524             MESSAGE: Your skips skipped all of your ranges
      127     6525             MESSAGE1: That leaves EFT with nothing to do.
      128     6526        */
      129     6527
      130     6528        %VLP_ERRCODE( FPTN=E_EXPD_NOT_EXPD, FCG='0614'O, MID='02'O, ERR#=%E$EXPD_NOT_EXPD,
              6528            SEV=2, STCLASS="CONSTANT SYMDEF" );
      131     6573        /*E* ERROR: FLB-E$EXPD_NOT_EXPD-2
      132     6574             MESSAGE: You can't specify both EXPIRED and NOT EXPIRED
      133     6575        */
      134     6576
      135     6577        %VLP_ERRCODE( FPTN=E_NO_NEXT_SPEC, FCG='0614'O, MID='02'O, ERR#=%E$NO_NEXT_SPEC, SEV
              6577            =2, STCLASS="CONSTANT SYMDEF" );
      136     6622        /*E* ERROR: FLB-E$NO_NEXT_SPEC-2
      137     6623             MESSAGE: Unable to determine next file after SKIP specification
      138     6624        */
      139     6625
      140     6626        %VLP_ERRCODE( FPTN=E_NO_PREV_SPEC, FCG='0614'O, MID='02'O, ERR#=%E$NO_PREV_SPEC, SEV
              6626            =2, STCLASS="CONSTANT SYMDEF" );
      141     6671        /*E* ERROR: FLB-E$NO_PREV_SPEC-2
PL6.E3A0      #001=FLE_DATA_D File=FLE_DATA_D.:E05TSI                            TUE 07/29/97 15:46 Page:9
      142     6672             MESSAGE: Unable to determine previous file before SKIP specification
      143     6673        */
      144     6674
      145     6675        %VLP_ERRCODE( FPTN=E_DUP_BEF_ACC, FCG='0614'O, MID='02'O, ERR#=%E$DUP_BEF_ACC, SEV=2
              6675            , STCLASS="CONSTANT SYMDEF" );
      146     6720        /*E* ERROR: FLB-E$DUP_BEF_ACC-2
      147     6721             MESSAGE: You already specified an ACCESSED BEFORE date
      148     6722             MESSAGE1: Some date criteria imply settings that may not be
      149     6723                       obvious at first.  You either explicitly or implicitly
      150     6724                       caused an ACCESSED BEFORE date criterion to be set.
      151     6725        */
      152     6726
      153     6727        %VLP_ERRCODE( FPTN=E_DUP_BEF_MOD, FCG='0614'O, MID='02'O, ERR#=%E$DUP_BEF_MOD, SEV=2
              6727            , STCLASS="CONSTANT SYMDEF" );
      154     6772        /*E* ERROR: FLB-E$DUP_BEF_MOD-2
      155     6773             MESSAGE: You already specified an MODIFIED BEFORE date
      156     6774             MESSAGE1: Some date criteria imply settings that may not be
      157     6775                       obvious at first.  You either explicitly or implicitly
      158     6776                       caused an MODIFIED BEFORE date criterion to be set.
      159     6777        */
      160     6778
      161     6779        %VLP_ERRCODE( FPTN=E_DUP_BEF_CRE, FCG='0614'O, MID='02'O, ERR#=%E$DUP_BEF_CRE, SEV=2
              6779            , STCLASS="CONSTANT SYMDEF" );
      162     6824        /*E* ERROR: FLB-E$DUP_BEF_CRE-2
      163     6825             MESSAGE: You already specified an CREATED BEFORE date
      164     6826             MESSAGE1: Some date criteria imply settings that may not be
      165     6827                       obvious at first.  You either explicitly or implicitly
      166     6828                       caused an CREATED BEFORE date criterion to be set.
      167     6829        */
      168     6830
      169     6831        %VLP_ERRCODE( FPTN=E_DUP_BEF_BAC, FCG='0614'O, MID='02'O, ERR#=%E$DUP_BEF_BAC, SEV=2
              6831            , STCLASS="CONSTANT SYMDEF" );
      170     6876        /*E* ERROR: FLB-E$DUP_BEF_BAC-2
      171     6877             MESSAGE: You already specified an BACKED UP BEFORE date
      172     6878             MESSAGE1: Some date criteria imply settings that may not be
      173     6879                       obvious at first.  You either explicitly or implicitly
      174     6880                       caused an BACKED UP BEFORE date criterion to be set.
PL6.E3A0      #001=FLE_DATA_D File=FLE_DATA_D.:E05TSI                            TUE 07/29/97 15:46 Page:10
      175     6881        */
      176     6882
      177     6883        %VLP_ERRCODE( FPTN=E_DUP_BEF_ARC, FCG='0614'O, MID='02'O, ERR#=%E$DUP_BEF_ARC, SEV=2
              6883            , STCLASS="CONSTANT SYMDEF" );
      178     6928        /*E* ERROR: FLB-E$DUP_BEF_ARC-2
      179     6929             MESSAGE: You already specified an ARCHIVED BEFORE date
      180     6930             MESSAGE1: Some date criteria imply settings that may not be
      181     6931                       obvious at first.  You either explicitly or implicitly
      182     6932                       caused an ARCHIVED BEFORE date criterion to be set.
      183     6933        */
      184     6934
      185     6935        %VLP_ERRCODE( FPTN=E_DUP_AFT_ACC, FCG='0614'O, MID='02'O, ERR#=%E$DUP_AFT_ACC, SEV=2
              6935            , STCLASS="CONSTANT SYMDEF" );
      186     6980        /*E* ERROR: FLB-E$DUP_AFT_ACC-2
      187     6981             MESSAGE: You already specified an ACCESSED AFTER date
      188     6982             MESSAGE1: Some date criteria imply settings that may not be
      189     6983                       obvious at first.  You either explicitly or implicitly
      190     6984                       caused an ACCESSED AFTER date criterion to be set.
      191     6985        */
      192     6986
      193     6987        %VLP_ERRCODE( FPTN=E_DUP_AFT_MOD, FCG='0614'O, MID='02'O, ERR#=%E$DUP_AFT_MOD, SEV=2
              6987            , STCLASS="CONSTANT SYMDEF" );
      194     7032        /*E* ERROR: FLB-E$DUP_AFT_MOD-2
      195     7033             MESSAGE: You already specified an MODIFIED AFTER date
      196     7034             MESSAGE1: Some date criteria imply settings that may not be
      197     7035                       obvious at first.  You either explicitly or implicitly
      198     7036                       caused an MODIFIED AFTER date criterion to be set.
      199     7037        */
      200     7038
      201     7039        %VLP_ERRCODE( FPTN=E_DUP_AFT_CRE, FCG='0614'O, MID='02'O, ERR#=%E$DUP_AFT_CRE, SEV=2
              7039            , STCLASS="CONSTANT SYMDEF" );
      202     7084        /*E* ERROR: FLB-E$DUP_AFT_CRE-2
      203     7085             MESSAGE: You already specified an CREATED AFTER date
      204     7086             MESSAGE1: Some date criteria imply settings that may not be
      205     7087                       obvious at first.  You either explicitly or implicitly
      206     7088                       caused an CREATED AFTER date criterion to be set.
      207     7089        */
PL6.E3A0      #001=FLE_DATA_D File=FLE_DATA_D.:E05TSI                            TUE 07/29/97 15:46 Page:11
      208     7090
      209     7091        %VLP_ERRCODE( FPTN=E_DUP_AFT_BAC, FCG='0614'O, MID='02'O, ERR#=%E$DUP_AFT_BAC, SEV=2
              7091            , STCLASS="CONSTANT SYMDEF" );
      210     7136        /*E* ERROR: FLB-E$DUP_AFT_BAC-2
      211     7137             MESSAGE: You already specified an BACKED UP AFTER date
      212     7138             MESSAGE1: Some date criteria imply settings that may not be
      213     7139                       obvious at first.  You either explicitly or implicitly
      214     7140                       caused an BACKED UP AFTER date criterion to be set.
      215     7141        */
      216     7142
      217     7143        %VLP_ERRCODE( FPTN=E_DUP_AFT_ARC, FCG='0614'O, MID='02'O, ERR#=%E$DUP_AFT_ARC, SEV=2
              7143            , STCLASS="CONSTANT SYMDEF" );
      218     7188        /*E* ERROR: FLB-E$DUP_AFT_ARC-2
      219     7189             MESSAGE: You already specified an ARCHIVED AFTER date
      220     7190             MESSAGE1: Some date criteria imply settings that may not be
      221     7191                       obvious at first.  You either explicitly or implicitly
      222     7192                       caused an ARCHIVED AFTER date criterion to be set.
      223     7193        */
      224     7194
      225     7195        %VLP_ERRCODE( FPTN=E_BAD_FSN_RANGE, FCG='0614'O, MID='11'O, ERR#=%E$BAD_FSN_RANGE,
              7195            SEV=2, STCLASS="CONSTANT SYMDEF" );
      226     7240        /*E*  ERROR: FLI-E$BAD_FSN_RANGE-2
      227     7241              MESSAGE: Second FSN of FSN range must be greater than first
      228     7242        */
      229     7243
      230     7244        %VLP_ERRCODE( FPTN=E_PARTIAL_FILE, FCG='0614'O, MID='11'O, ERR#=%E$PARTIAL_FILE, SEV
              7244            =2, STCLASS="CONSTANT SYMDEF" );
      231     7289        /*E*  ERROR: FLI-E$PARTIAL_FILE-2
      232     7290              MESSAGE: Part of file %U1%.%U2% is missing
      233     7291        */
      234     7292
      235     7293        %VLP_ERRCODE( FPTN=E_DUPLICATE_PSN, FCG='0614'O, MID='11'O, ERR#=%E$DUPLICATE_PSN,
              7293            SEV=2, STCLASS="CONSTANT SYMDEF" );
      236     7338        /*E*  ERROR: FLI-E$DUPLICATE_PSN-2
      237     7339              MESSAGE: A packset serial number has been specified twice
      238     7340        */
      239     7341
PL6.E3A0      #001=FLE_DATA_D File=FLE_DATA_D.:E05TSI                            TUE 07/29/97 15:46 Page:12
      240     7342        %VLP_ERRCODE( FPTN=E_FIT_NOT_THERE, FCG='0614'O, MID='11'O, ERR#=%E$FIT_NOT_THERE,
              7342            SEV=2, STCLASS="CONSTANT SYMDEF" );
      241     7387        /*E*  ERROR: FLI-E$FIT_NOT_THERE-2
      242     7388              MESSAGE: This EFT tape/optical disk is malformed...a file was skipped
      243     7389              MESSAGE1: If you STAR this, the next version of EFT will tell
      244     7390                        you which file.
      245     7391        */
      246     7392
      247     7393        %VLP_ERRCODE( FPTN=E_MISSING_FILES, FCG='0614'O, MID='11'O, ERR#=%E$MISSING_FILES,
              7393            SEV=2, STCLASS="CONSTANT SYMDEF" );
      248     7438        /*E*  ERROR: FLI-E$MISSING_FILES-2
      249     7439              MESSAGE: Due to the preceding error, files could not be
      250     7440                       reliably copied to tape/optical disk.  You  must take manual
      251     7441                       action to recover from this error.  The following
      252     7442                       files may have been affected:
      253     7443        */
      254     7444
      255     7445        %VLP_ERRCODE( FPTN=E_NO_FSN_MATCH, FCG='0614'O, MID='11'O, ERR#=%E$NO_FSN_MATCH, SEV
              7445            =2, STCLASS="CONSTANT SYMDEF" );
      256     7490        /*E*  ERROR: FLI-E$NO_FSN_MATCH-2
      257     7491              MESSAGE: Multiple tape output is only allowed when the File
      258     7492                       Sequence Numbers of your output tapes match
      259     7493              MESSAGE1: Rewind all tapes and start over.
      260     7494        */
      261     7495        %VLP_ERRCODE(FPTN=E_FETCH_SET,FCG='0614'O, MID = '02'O,ERR# = %E$FETCH_SET,SEV=2,
              7495            STCLASS = "CONSTANT SYMDEF" );
      262     7540        /*E*  ERROR: FLB-E$FETCH_SET-2
      263     7541             MESSAGE: %UF already has a fetch request outstanding
      264     7542        */
      265     7543
      266     7544        %VLP_ERRCODE(FPTN=E_STOW_SET,FCG='0614'O, MID = '02'O,ERR# = %E$STOW_SET,SEV=2,
              7544            STCLASS = "CONSTANT SYMDEF" );
      267     7589        /*E*  ERROR: FLB-E$STOW_SET-2
      268     7590             MESSAGE: %UF already has a stow request outstanding
      269     7591        */
      270     7592
      271     7593        %VLP_ERRCODE(FPTN=E_NO_CODE14,FCG='0614'O, MID = '02'O,ERR# = %E$NO_CODE14,SEV=2,
PL6.E3A0      #001=FLE_DATA_D File=FLE_DATA_D.:E05TSI                            TUE 07/29/97 15:46 Page:13
              7593            STCLASS = "CONSTANT SYMDEF" );
      272     7638        /*E*  ERROR: FLB-E$NO_CODE14-2
      273     7639             MESSAGE: Error in file directory - CODE14
      274     7640        */
      275     7641
      276     7642        %VLP_ERRCODE(FPTN=E_NOSTOW,FCG='0614'O, MID = '02'O,ERR# = %E$NOSTOW,SEV=2, STCLASS
              7642            = "CONSTANT SYMDEF" );
      277     7687        /*E*  ERROR: FLB-E$NOSTOW-2
      278     7688             MESSAGE: You can't stow files from NOSTOW account %AC
      279     7689        */
      280     7690
      281     7691        %VLP_ERRCODE(FPTN=E_NO_CODE6,FCG='0614'O, MID = '02'O,ERR# = %E$NO_CODE6,SEV=2,
              7691            STCLASS = "CONSTANT SYMDEF" );
      282     7736        /*E*  ERROR: FLB-E$NO_CODE6-2
      283     7737             MESSAGE: CODE06 missing from FIT of %UF
      284     7738        */
      285     7739
      286     7740        %VLP_ERRCODE(FPTN=E_NOT_STOWED,FCG='0614'O, MID = '02'O,ERR# = %E$NOT_STOWED,SEV=2,
              7740            STCLASS = "CONSTANT SYMDEF" );
      287     7785        /*E*  ERROR: FLB-E$NOT_STOWED-2
      288     7786             MESSAGE: %UF had no stow request outstanding
      289     7787        */
      290     7788
      291     7789        %VLP_ERRCODE(FPTN=E_STOW_DENIED,FCG='0614'O, MID = '02'O,ERR# = %E$STOW_DENIED,SEV=2
              7789            , STCLASS = "CONSTANT SYMDEF" );
      292     7834        /*E*  ERROR: FLB-E$STOW_DENIED-2
      293     7835             MESSAGE: You can't stow %UF
      294     7836             MESSAGE1: You don't have FMSEC and you're not its creator.
      295     7837
      296     7838        */
      297     7839
      298     7840        %VLP_ERRCODE(FPTN=E_UNSTOW_DENIED,FCG='0614'O, MID = '02'O,ERR# = %E$UNSTOW_DENIED,
              7840            SEV=2, STCLASS = "CONSTANT SYMDEF" );
      299     7885        /*E*  ERROR: FLB-E$UNSTOW_DENIED-2
      300     7886             MESSAGE: You can't unstow %UF
      301     7887             MESSAGE1: You don't have FMSEC and you're not its creator.
      302     7888
PL6.E3A0      #001=FLE_DATA_D File=FLE_DATA_D.:E05TSI                            TUE 07/29/97 15:46 Page:14
      303     7889        */
      304     7890
      305     7891        %VLP_ERRCODE(FPTN=E_STOWED_ACT_OK,FCG='0614'O, MID = '02'O,ERR# = %E$STOWED_ACT_OK,
              7891            SEV=2, STCLASS = "CONSTANT SYMDEF" );
      306     7936        /*E*  ERROR: FLB-E$STOWED_ACT_OK-2
      307     7937             MESSAGE: %UF stowed - active
      308     7938        */
      309     7939
      310     7940        %VLP_ERRCODE(FPTN=E_STOWED_INACT_OK,FCG='0614'O, MID = '02'O,ERR# =
              7940            %E$STOWED_INACT_OK,SEV=2, STCLASS = "CONSTANT SYMDEF" );
      311     7985        /*E*  ERROR: FLB-E$STOWED_INACT_OK-2
      312     7986             MESSAGE: %UF queued for archiving - inactive
      313     7987        */
      314     7988
      315     7989        %VLP_ERRCODE(FPTN=E_UNSTOW_OK,FCG='0614'O, MID = '02'O,ERR# = %E$UNSTOW_OK,SEV=2,
              7989            STCLASS = "CONSTANT SYMDEF" );
      316     8034        /*E*  ERROR: FLB-E$UNSTOW_OK-2
      317     8035             MESSAGE: %UF unstowed
      318     8036        */
      319     8037        %VLP_ERRCODE(FPTN=E_ARCHIVE_ACTIVE,FCG='0614'O, MID = '02'O,ERR# = %E$ARCHIVE_ACTIVE
              8037            ,SEV=2, STCLASS = "CONSTANT SYMDEF" );
      320     8082        /*E*  ERROR: FLB-E$ARCHIVE_ACTIVE-2
      321     8083             MESSAGE: %UF is already archived
      322     8084        */
      323     8085        %VLP_ERRCODE(FPTN=E_ACTIVE_TO_INACTIVE,FCG='0614'O, MID = '02'O,ERR# =
              8085            %E$ACTIVE_TO_INACTIVE,SEV=2, STCLASS = "CONSTANT SYMDEF" );
      324     8130        /*E*  ERROR: FLB-E$ACTIVE_TO_INACTIVE-2
      325     8131             MESSAGE: %UF was actively archived...now inactivated
      326     8132        */
      327     8133
      328     8134        %VLP_ERRCODE(FPTN=E_ARCHIVE_INACTIVE,FCG='0614'O, MID = '02'O,ERR# =
              8134            %E$ARCHIVE_INACTIVE,SEV=2, STCLASS = "CONSTANT SYMDEF" );
      329     8179        /*E*  ERROR: FLB-E$ARCHIVE_INACTIVE-2
      330     8180             MESSAGE: %UF is inactively archived and can't be stowed
      331     8181        */
      332     8182
      333     8183        %VLP_ERRCODE(FPTN=E_NOT_ARCHIVE,FCG='0614'O, MID = '02'O,ERR# = %E$NOT_ARCHIVE,SEV=2
PL6.E3A0      #001=FLE_DATA_D File=FLE_DATA_D.:E05TSI                            TUE 07/29/97 15:46 Page:15
              8183            , STCLASS = "CONSTANT SYMDEF" );
      334     8228        /*E*  ERROR: FLB-E$NOT_ARCHIVE-2
      335     8229             MESSAGE: %UF has not been archived
      336     8230        */
      337     8231        %VLP_ERRCODE(FPTN=E_FETCH_FIRST,FCG='0614'O, MID = '02'O,ERR# = %E$FETCH_FIRST,SEV=2
              8231            , STCLASS = "CONSTANT SYMDEF" );
      338     8276        /*E*  ERROR: FLB-E$FETCH_FIRST-2
      339     8277             MESSAGE: %UF is inactively archived...you must fetch it first
      340     8278             MESSAGE1: It can't be determined from available information if
      341     8279                       you're really allowed to unarchive this file.  The
      342     8280                       necessary information is contained in the file.
      343     8281        */
      344     8282
      345     8283        %VLP_ERRCODE(FPTN=E_UNARCHIVE_DENIED,FCG='0614'O, MID = '02'O,ERR# =
              8283            %E$UNARCHIVE_DENIED,SEV=2, STCLASS = "CONSTANT SYMDEF" );
      346     8328        /*E*  ERROR: FLB-E$UNARCHIVE_DENIED-2
      347     8329             MESSAGE: You can't unarchive %UF
      348     8330             MESSAGE1: You don't have FMSEC and you're not its creator.
      349     8331        */
      350     8332
      351     8333        %VLP_ERRCODE(FPTN=E_UNARCHIVE_DONE,FCG='0614'O, MID = '02'O,ERR# = %E$UNARCHIVE_DONE
              8333            ,SEV=2, STCLASS = "CONSTANT SYMDEF" );
      352     8378        /*E*  ERROR: FLB-E$UNARCHIVE_DONE-2
      353     8379             MESSAGE: %UF unarchived
      354     8380        */
      355     8381        %VLP_ERRCODE(FPTN=E_NO_CODE4,FCG='0614'O, MID = '02'O,ERR# = %E$NO_CODE4,SEV=2,
              8381            STCLASS = "CONSTANT SYMDEF" );
      356     8426        /*E*  ERROR: FLB-E$NO_CODE4-2
      357     8427             MESSAGE: CODE04 missing from FIT of %UF
      358     8428        */
      359     8429
      360     8430        %VLP_ERRCODE(FPTN=E_UNFETCH_DENIED,FCG='0614'O, MID = '02'O,ERR# = %E$UNFETCH_DENIED
              8430            ,SEV=2, STCLASS = "CONSTANT SYMDEF" );
      361     8475        /*E*  ERROR: FLB-E$UNFETCH_DENIED-2
      362     8476             MESSAGE: You can't unfetch %UF
      363     8477             MESSAGE1: You don't have FMSEC and you're not its creator.
      364     8478        */
PL6.E3A0      #001=FLE_DATA_D File=FLE_DATA_D.:E05TSI                            TUE 07/29/97 15:46 Page:16
      365     8479
      366     8480        %VLP_ERRCODE(FPTN=E_NOT_FETCH,FCG='0614'O, MID = '02'O,ERR# = %E$NOT_FETCH,SEV=2,
              8480            STCLASS = "CONSTANT SYMDEF" );
      367     8525        /*E*  ERROR: FLB-E$NOT_FETCH-2
      368     8526             MESSAGE: %UF has no fetch request outstanding
      369     8527        */
      370     8528
      371     8529        %VLP_ERRCODE(FPTN=E_UNFETCH_DONE,FCG='0614'O, MID = '02'O,ERR# = %E$UNFETCH_DONE,SEV
              8529            =2, STCLASS = "CONSTANT SYMDEF" );
      372     8574        /*E*  ERROR: FLB-E$UNFETCH_DONE-2
      373     8575             MESSAGE: %UF unfetched
      374     8576        */
      375     8577
      376     8578        %VLP_ERRCODE(FPTN=E_FETCH_DENIED,FCG='0614'O, MID = '02'O,ERR# = %E$FETCH_DENIED,SEV
              8578            =2, STCLASS = "CONSTANT SYMDEF" );
      377     8623        /*E*  ERROR: FLB-E$FETCH_DENIED-2
      378     8624             MESSAGE: You can't fetch %UF
      379     8625             MESSAGE1: You don't have FMSEC and you're not its creator.
      380     8626        */
      381     8627
      382     8628        %VLP_ERRCODE(FPTN=E_FETCH_DONE,FCG='0614'O, MID = '02'O,ERR# = %E$FETCH_DONE,SEV=2,
              8628            STCLASS = "CONSTANT SYMDEF" );
      383     8673        /*E*  ERROR: FLB-E$FETCH_DONE-2
      384     8674             MESSAGE: %UF queued for retrieval
      385     8675        */
      386     8676
      387     8677        %VLP_ERRCODE(FPTN=E_NO_CODE3,FCG='0614'O, MID = '02'O,ERR# = %E$NO_CODE3,SEV=2,
              8677            STCLASS = "CONSTANT SYMDEF" );
      388     8722        /*E*  ERROR: FLB-E$NO_CODE3-2
      389     8723             MESSAGE: CODE03 missing from FIT of %UF
      390     8724        */
      391     8725
      392     8726
      393     8727        %VLP_ERRCODE(FPTN=E_NEED_TIME,FCG='0614'O, MID = '02'O,ERR# = %E$NEED_TIME,SEV=2,
              8727            STCLASS = "CONSTANT SYMDEF" );
      394     8772        /*E*  ERROR: FLB-E$NEED_TIME-2
      395     8773             MESSAGE: REQUALIFY requires a time constraint
PL6.E3A0      #001=FLE_DATA_D File=FLE_DATA_D.:E05TSI                            TUE 07/29/97 15:46 Page:17
      396     8774             MESSAGE1: Either CREATED, MODIFIED, ACCESSED, BACKED UP, or ARCHIVED
      397     8775        */
      398     8776
      399     8777        %VLP_ERRCODE(FPTN=E_TRY_AGAIN,FCG='0614'O, MID = '02'O,ERR# = %E$TRY_AGAIN,SEV=2,
              8777            STCLASS = "CONSTANT SYMDEF" );
      400     8822        /*E*  ERROR: FLB-E$TRY_AGAIN-2
      401     8823             MESSAGE: Please take corrective action and try again
      402     8824        */
      403     8825
      404     8826        %VLP_ERRCODE(FPTN=E_CAT_OFF,FCG='0614'O, MID = '02'O,ERR# = %E$CAT_OFF,SEV=2,
              8826            STCLASS = "CONSTANT SYMDEF" );
      405     8871        /*E*  ERROR: FLB-E$CAT_OFF-2
      406     8872             MESSAGE: Cataloging is already off
      407     8873        */
      408     8874
      409     8875        %VLP_ERRCODE(FPTN=E_MUST_CAT_OFF,FCG='0614'O, MID = '02'O,ERR# = %E$MUST_CAT_OFF,SEV
              8875            =2, STCLASS = "CONSTANT SYMDEF" );
      410     8920        /*E*  ERROR: FLB-E$MUST_CAT_OFF-2
      411     8921             MESSAGE: Switching from catalog file %UF
      412     8922        */
      413     8923
      414     8924        %VLP_ERRCODE(FPTN=E_MUST_CAT_DISK,FCG='0614'O, MID = '02'O,ERR# = %E$MUST_CAT_DISK,
              8924            SEV=2, STCLASS = "CONSTANT SYMDEF" );
      415     8969        /*E*  ERROR: FLB-E$MUST_CAT_DISK-2
      416     8970             MESSAGE: The catalog must be a disk file
      417     8971        */
      418     8972
      419     8973        %VLP_ERRCODE(FPTN=E_NO_CATALOG,FCG='0614'O, MID = '02'O,ERR# = %E$NO_CATALOG,SEV=2,
              8973            STCLASS = "CONSTANT SYMDEF" );
      420     9018        /*E*  ERROR: FLB-E$NO_CATALOG-2
      421     9019             MESSAGE: No catalog file has been specified
      422     9020        */
      423     9021
      424     9022        %VLP_ERRCODE(FPTN=E_NOT_CAT_FILE,FCG='0614'O, MID = '02'O,ERR# = %E$NOT_CAT_FILE,SEV
              9022            =2, STCLASS = "CONSTANT SYMDEF" );
      425     9067        /*E*  ERROR: FLB-E$NOT_CAT_FILE-2
      426     9068             MESSAGE: This file doesn't look like a catalog file
PL6.E3A0      #001=FLE_DATA_D File=FLE_DATA_D.:E05TSI                            TUE 07/29/97 15:46 Page:18
      427     9069        */
      428     9070
      429     9071        %VLP_ERRCODE(FPTN=E_NOTHING_FOUND,FCG='0614'O, MID = '02'O,ERR# = %E$NOTHING_FOUND,
              9071            SEV=2, STCLASS = "CONSTANT SYMDEF" );
      430     9116        /*E*  ERROR: FLB-E$NOTHING_FOUND-2
      431     9117             MESSAGE: Nothing found
      432     9118        */
      433     9119
      434     9120        %VLP_ERRCODE(FPTN=E_FILE_NAME,FCG='0614'O, MID = '02'O,ERR# = %E$FILE_NAME,SEV=2,
              9120            STCLASS = "CONSTANT SYMDEF" );
      435     9165        /*E*  ERROR: FLB-E$FILE_NAME-2
      436     9166             MESSAGE: File is %UF
      437     9167        */
      438     9168
      439     9169        %VLP_ERRCODE(FPTN=E_MUST_BE_CAT_FILE,FCG='0614'O, MID = '02'O,ERR# =
              9169            %E$MUST_BE_CAT_FILE,SEV=2, STCLASS = "CONSTANT SYMDEF" );
      440     9214        /*E*  ERROR: FLB-E$MUST_BE_CAT_FILE-2
      441     9215             MESSAGE: That's no catalog file
      442     9216             MESSAGE1: Catalog files are KEYED and have a type of CF.
      443     9217        */
      444     9218
      445     9219        %VLP_ERRCODE(FPTN=E_NO_PREVIOUS_SAVE,FCG='0614'O, MID = '02'O,ERR# =
              9219            %E$NO_PREVIOUS_SAVE,SEV=2, STCLASS = "CONSTANT SYMDEF" );
      446     9264        /*E*  ERROR: FLB-E$NO_PREVIOUS_SAVE-2
      447     9265             MESSAGE: No previous SAVE, BACKUP, or ARCHIVE to CHECK; specify serial numbers
      448     9266             MESSAGE1: Catalog files are KEYED and have a type of CF.
      449     9267        */
      450     9268
      451     9269        %VLP_ERRCODE(FPTN=E_DEL_FILES_REMAIN,FCG='0614'O, MID = '02'O,ERR# =
              9269            %E$DEL_FILES_REMAIN,SEV=2, STCLASS = "CONSTANT SYMDEF" );
      452     9314        /*E*  ERROR: FLB-E$DEL_FILES_REMAIN-2
      453     9315             MESSAGE: Some files have not been cleaned up or inactivated to
      454     9316                      permit recovery from the previous error by requalifying
      455     9317        */
      456     9318
      457     9319        %VLP_ERRCODE(FPTN=E_ALREADY_ESTABLISH,FCG='0614'O, MID = '02'O,ERR# =
              9319            %E$ALREADY_ESTABLISH,SEV=2, STCLASS = "CONSTANT SYMDEF" );
PL6.E3A0      #001=FLE_DATA_D File=FLE_DATA_D.:E05TSI                            TUE 07/29/97 15:46 Page:19
      458     9364        /*E*  ERROR: FLB-E$ALREADY_ESTABLISH-2
      459     9365             MESSAGE: Archive is already established for DP#%SN
      460     9366        */
      461     9367
      462     9368        %VLP_ERRCODE(FPTN=E_NOT_ARCHIVE_MASTER,FCG='0614'O, MID = '02'O,ERR# =
              9368            %E$NOT_ARCHIVE_MASTER,SEV=2, STCLASS = "CONSTANT SYMDEF" );
      463     9413        /*E*  ERROR: FLB-E$NOT_ARCHIVE_MASTER-2
      464     9414             MESSAGE: DP#%SN is not the master of an archive set
      465     9415        */
      466     9416
      467     9417        %VLP_ERRCODE(FPTN=E_NOT_MEMBER_OF_ARCHIVE,FCG='0614'O, MID = '02'O,ERR# =
              9417            %E$NOT_MEMBER_OF_ARCHIVE,SEV=2, STCLASS = "CONSTANT SYMDEF" );
      468     9462        /*E*  ERROR: FLB-E$NOT_MEMBER_OF_ARCHIVE-2
      469     9463             MESSAGE: DP#xxx is not the member of the archive set
      470     9464        */
      471     9465
      472     9466        %VLP_ERRCODE(FPTN=E_MEMBER_OF_ARCHIVE,FCG='0614'O, MID = '02'O,ERR# =
              9466            %E$MEMBER_OF_ARCHIVE,SEV=2, STCLASS = "CONSTANT SYMDEF" );
      473     9511        /*E*  ERROR: FLB-E$MEMBER_OF_ARCHIVE-2
      474     9512             MESSAGE: DP#%SN is the member of the archive set
      475     9513        */
      476     9514
      477     9515        %VLP_ERRCODE(FPTN=E_ARCFILE_REMOVED,FCG='0614'O, MID = '02'O,ERR# =
              9515            %E$ARCFILE_REMOVED,SEV=2, STCLASS = "CONSTANT SYMDEF" );
      478     9560        /*E*  ERROR: FLB-E$ARCFILE_REMOVED-2
      479     9561             MESSAGE: :ARCHIVE.$$EFT removed from DP#%SN
      480     9562        */
      481     9563
      482     9564        %VLP_ERRCODE ( FPTN=E_REMOVE_FROM_ARCHIVE,FCG='0614'O, MID = '02'O, ERR# =
              9564            %E$REMOVE_FROM_ARCHIVE, SEV = 2, STCLASS = "CONSTANT SYMDEF" );
      483     9609        /*E*  ERROR: FLB-E$REMOVE_FROM_ARCHIVE-2
      484     9610             MESSAGE: Member packset successfully removed from archive
      485     9611        */
      486     9612
      487     9613        %VLP_ERRCODE ( FPTN = E_NO_ARCFILE, FCG='0614'O, MID = '02'O, ERR# = %E$NO_ARCFILE,
              9613            SEV = 2, STCLASS = "CONSTANT SYMDEF" );
      488     9658        /*E*  ERROR: FLB-E$NO_ARCFILE-2
PL6.E3A0      #001=FLE_DATA_D File=FLE_DATA_D.:E05TSI                            TUE 07/29/97 15:46 Page:20
      489     9659             MESSAGE: Can't find :ARCHIVE.$$EFT on DP#%SN
      490     9660        */
      491     9661
      492     9662        %VLP_ERRCODE(FPTN = E_NUM_ARCHIVE_SETS,FCG='0614'O, MID = '02'O,ERR# =
              9662            %E$NUM_ARCHIVE_SETS,SEV=2, STCLASS = "CONSTANT SYMDEF" );
      493     9707        /*E*  ERROR: FLB-E$NUM_ARCHIVE_SETS-2
      494     9708             MESSAGE: You must specify the same number of tapesets/optical disksets
      495     9709                      as was originally specified on the ESTABLISH command.
      496     9710        */
      497     9711
      498     9712        %VLP_ERRCODE ( FPTN = E_WIPEOUT_SOURCE, FCG='0614'O, MID='02'O,ERR# =
              9712            %E$WIPEOUT_SOURCE, SEV = 2, STCLASS = "CONSTANT SYMDEF" );
      499     9757        /*E* ERROR: FLB-E$WIPEOUT_SOURCE-2
      500     9758             MESSAGE: UPDATE, TRANSFER and UNPROTECTED will delete your source.
      501     9759             MESSAGE1:  Try again with destination specified.
      502     9760        */
      503     9761        %VLP_ERRCODE ( FPTN = E_TOO_MANY_ERRORS_TO_SWITCH, FCG='0614'O, MID='02'O,ERR# =
              9761            %E$TOO_MANY_ERRORS_TO_SWITCH,SEV=2,
      504     9762        STCLASS = "CONSTANT SYMDEF" );
      505     9807        /*E* ERROR: FLB-E$TOO_MANY_ERRORS_TO_SWITCH-2
      506     9808             MESSAGE: Too many errors to SWITCH.
      507     9809        */
      508     9810
      509     9811        %VLP_ERRCODE(FPTN=E_REMOVE_MASTER_PACKSET,FCG='0614'O, MID = '02'O,ERR# =
              9811            %E$REMOVE_MASTER_PACKSET,SEV=2, STCLASS = "CONSTANT SYMDEF" );
      510     9856        /*E*  ERROR: FLB-E$REMOVE_MASTER_PACKSET-2
      511     9857             MESSAGE: Master packset DP#%SN is removed from the archive system.
      512     9858        */
      513     9859
      514     9860        %VLP_ERRCODE(FPTN=E_TYPE_ARCHIVE_SET,FCG='0614'O, MID = '02'O,ERR# =
              9860            %E$TYPE_ARCHIVE_SET,SEV=2, STCLASS = "CONSTANT SYMDEF" );
      515     9905        /*E*  ERROR: FLB-E$TYPE_ARCHIVE_SET-2
      516     9906             MESSAGE: Unable to modify :ARCHIVE.$$EFT - the existing type of archive
      517     9907                      file differs from that specified on the command.
      518     9908        */
      519     9909
      520     9910        %VLP_ERRCODE(FPTN=E_CANT_SPECIFY_DELF,FCG='0614'O,MID='02'O,ERR# =
PL6.E3A0      #001=FLE_DATA_D File=FLE_DATA_D.:E05TSI                            TUE 07/29/97 15:46 Page:21
              9910            %E$CANT_SPECIFY_DELF,SEV=2,STCLASS = "CONSTANT SYMDEF" );
      521     9955        /*E*  ERROR: FLB-E$CANT_SPECIFY_DELF-2
      522     9956              MESSAGE: DELF is illegal with this command
      523     9957        */
      524     9958
      525     9959        %VLP_ERRCODE(FPTN=E_CANT_SPECIFY_ANYF,FCG='0614'O,MID='02'O,ERR# =
              9959            %E$CANT_SPECIFY_ANYF,SEV=2,STCLASS = "CONSTANT SYMDEF" );
      526    10004        /*E*  ERROR: FLB-E$CANT_SPECIFY_ANYF-2
      527    10005              MESSAGE: ANYF is illegal with this command
      528    10006        */
      529    10007
      530    10008        %VLP_ERRCODE(FPTN=E_CANT_SPECIFY_QF,FCG='0614'O,MID='02'O,ERR# = %E$CANT_SPECIFY_QF,
             10008            SEV=2,STCLASS = "CONSTANT SYMDEF" );
      531    10053        /*E*  ERROR: FLB-E$CANT_SPECIFY_QF-2
      532    10054              MESSAGE: QF is illegal with this command
      533    10055        */
      534    10056
      535    10057        %VLP_ERRCODE(FPTN=E_CANT_SPECIFY_DIR,FCG='0614'O,MID='02'O,ERR# =
             10057            %E$CANT_SPECIFY_DIR,SEV=2,STCLASS = "CONSTANT SYMDEF" );
      536    10102        /*E*  ERROR: FLB-E$CANT_SPECIFY_DIR-2
      537    10103              MESSAGE: DIR is illegal with this command
      538    10104        */
      539    10105
      540    10106        %VLP_ERRCODE(FPTN=E_CANT_SPECIFY_PAD,FCG='0614'O,MID='02'O,ERR# =
             10106            %E$CANT_SPECIFY_PAD,SEV=2,STCLASS = "CONSTANT SYMDEF" );
      541    10151        /*E*  ERROR: FLB-E$CANT_SPECIFY_PAD-2
      542    10152              MESSAGE: PAD is illegal with this command
      543    10153        */
      544    10154
      545    10155        %VLP_ERRCODE(FPTN=E_CANT_SPECIFY_DEL_ACC,FCG='0614'O,MID='02'O,ERR# =
             10155            %E$CANT_SPECIFY_DEL_ACC,SEV=2,STCLASS = "CONSTANT SYMDEF" );
      546    10200        /*E*  ERROR: FLB-E$CANT_SPECIFY_DEL_ACC-2
      547    10201              MESSAGE: DELETED ACCOUNTS is illegal with this command
      548    10202        */
      549    10203
      550    10204        %VLP_ERRCODE(FPTN=E_CANT_SPECIFY_CLEANUP,FCG='0614'O,MID='02'O,ERR# =
             10204            %E$CANT_SPECIFY_CLEANUP,SEV=2,STCLASS = "CONSTANT SYMDEF" );
PL6.E3A0      #001=FLE_DATA_D File=FLE_DATA_D.:E05TSI                            TUE 07/29/97 15:46 Page:22
      551    10249        /*E*  ERROR: FLB-E$CANT_SPECIFY_CLEANUP-2
      552    10250              MESSAGE: CLEANUP is illegal with this command
      553    10251        */
      554    10252
      555    10253        %VLP_ERRCODE(FPTN=E_CANT_SPECIFY_ACUP,FCG='0614'O,MID='02'O,ERR# =
             10253            %E$CANT_SPECIFY_ACUP,SEV=2,STCLASS = "CONSTANT SYMDEF" );
      556    10298        /*E*  ERROR: FLB-E$CANT_SPECIFY_ACUP-2
      557    10299              MESSAGE: ACUP is illegal with this command
      558    10300        */
      559    10301
      560    10302        %VLP_ERRCODE(FPTN=E_CANT_SPECIFY_SCRUB,FCG='0614'O,MID='02'O,ERR# =
             10302            %E$CANT_SPECIFY_SCRUB,SEV=2,STCLASS = "CONSTANT SYMDEF" );
      561    10347        /*E*  ERROR: FLB-E$CANT_SPECIFY_SCRUB-2
      562    10348              MESSAGE: SCRUB is illegal with this command
      563    10349        */
      564    10350
      565    10351        %VLP_ERRCODE(FPTN=E_CANT_SPECIFY_IDS,FCG='0614'O,MID='02'O,ERR# =
             10351            %E$CANT_SPECIFY_IDS,SEV=2,STCLASS = "CONSTANT SYMDEF" );
      566    10396        /*E*  ERROR: FLB-E$CANT_SPECIFY_IDS-2
      567    10397              MESSAGE: IDS is illegal with this command
      568    10398        */
      569    10399
      570    10400        %VLP_ERRCODE(FPTN=E_CANT_SPECIFY_DENSITY,FCG='0614'O,MID='02'O,ERR# =
             10400            %E$CANT_SPECIFY_DENSITY,SEV=2,STCLASS = "CONSTANT SYMDEF" );
      571    10445        /*E*  ERROR: FLB-E$CANT_SPECIFY_DENSITY-2
      572    10446              MESSAGE: DENSITY is illegal for optical disk
      573    10447        */
      574    10448
      575    10449        %VLP_ERRCODE(FPTN=E_CANT_SPECIFY_EXPIRE,FCG='0614'O,MID='02'O,ERR# =
             10449            %E$CANT_SPECIFY_EXPIRE,SEV=2,STCLASS = "CONSTANT SYMDEF" );
      576    10494        /*E*  ERROR: FLB-E$CANT_SPECIFY_EXPIRE-2
      577    10495              MESSAGE: EXPIRE is illegal for optical disk
      578    10496        */
      579    10497
      580    10498        %VLP_ERRCODE(FPTN=E_CANT_SPECIFY_SHARED,FCG='0614'O,MID='02'O,ERR# =
             10498            %E$CANT_SPECIFY_SHARED,SEV=2,STCLASS = "CONSTANT SYMDEF" );
      581    10543        /*E*  ERROR: FLB-E$CANT_SPECIFY_SHARED-2
PL6.E3A0      #001=FLE_DATA_D File=FLE_DATA_D.:E05TSI                            TUE 07/29/97 15:46 Page:23
      582    10544              MESSAGE: SHARED is illegal with this command
      583    10545        */
      584    10546
      585    10547        %VLP_ERRCODE(FPTN=E_RETURN_TO_COMMAND,FCG='0614'O,MID='02'O,ERR# =
             10547            %E$RETURN_TO_COMMAND,SEV=2,STCLASS = "CONSTANT SYMDEF" );
      586    10592        /*E*  ERROR: FLB-E$RETURN_TO_COMMAND-2
      587    10593              MESSAGE: You are doing tranferring or transporting, use CLOSE
      588    10594                       subcommand to return to the command level to enter
      589    10595                       the command you want.
      590    10596        */
      591    10597
      592    10598        %VLP_ERRCODE(FPTN=E_ARCHIVE_OUT_TAPESET,FCG='0614'O,MID='02'O,ERR# =
             10598            %E$ARCHIVE_OUT_TAPESET,SEV=2,STCLASS = "CONSTANT SYMDEF" );
      593    10643        /*E*  ERROR: FLB-E$ARCHIVE_OUT_TAPESET-2
      594    10644              MESSAGE: Out of tapeset/optical diskset. Use either MODIFY command
      595    10645                       or specify tapeset/optical diskset to get the new
      596    10646                       tapeset/optical diskset.
      597    10647        */
      598    10648        %VLP_ERRCODE(FPTN=E_CANT_OPEN_TBACKUP,FCG='0614'O,MID='02'O,ERR#=
             10648            %E$CANT_OPEN_TBACKUP,SEV=2,STCLASS="CONSTANT SYMDEF");
      599    10693        /*E* ERROR: FLB-E$CANT_OPEN_TBACKUP-2
      600    10694             MESSAGE: Can't find :BACKUP.$$EFT on LT#%SN
      601    10695             MESSAGE1: Try again after specifying the correct tape and FSN.
      602    10696        */
      603    10697        %VLP_ERRCODE(FPTN=E_REBUILD_CONTINUE,FCG='0614'O,MID='02'O,ERR# =
             10697            %E$REBUILD_CONTINUE,SEV=2,STCLASS = "CONSTANT SYMDEF" );
      604    10742        /*E* ERROR: FLB-E$REBUILD_CONTINUE-2
      605    10743             MESSAGE: Note that the previous rebuild operation for this packset
      606    10744                      did not go to completion. Your packset rebuilding will
      607    10745                      continue from the point of interruption. Should you desire
      608    10746                      a complete rebuild of this packset, it may be initiated
      609    10747                      by first deleting the :REBUILD.$$EFT file before executing
      610    10748                      the REBUILD command.
      611    10749        */
      612    10750        %VLP_ERRCODE(FPTN = E_BAD_TAPE_FILE,FCG='0614'O, MID = '02'O,ERR# = %E$BAD_TAPE_FILE
             10750            ,SEV=2, STCLASS = "CONSTANT SYMDEF" );
      613    10795        /*E*  ERROR: FLB-E$BAD_TAPE_FILE-2
PL6.E3A0      #001=FLE_DATA_D File=FLE_DATA_D.:E05TSI                            TUE 07/29/97 15:46 Page:24
      614    10796             MESSAGE: Due to the preceding error, %UF could not be reliably copied
      615    10797                      and may exist on tape/optical disk as a partial file.
      616    10798        */
      617    10799        %VLP_ERRCODE(FPTN=E_WRONG_DUAL,FCG='0614'O,ERR#=%E$WRONG_DUAL,MID='23'O,SEV=2,
             10799            STCLASS="CONSTANT SYMDEF");
      618    10844        /*E* ERROR: FLS-E$WRONG_DUAL-2
      619    10845             MESSAGE: The destination packset is not the proper dual
      620    10846             MESSAGE1: The source (prime) packset does have a dual, but it
      621    10847                       isn't this destination packset
      622    10848        */
      623    10849        %VLP_ERRCODE(FPTN=E_WRONG_PRIME,FCG='0614'O,ERR#=%E$WRONG_PRIME,MID='23'O,SEV=2,
             10849            STCLASS="CONSTANT SYMDEF");
      624    10894        /*E* ERROR: FLS-E$WRONG_PRIME-2
      625    10895             MESSAGE: The source packset is not the proper prime
      626    10896             MESSAGE1: The destination (dual) packset does have a prime, but it
      627    10897                       isn't this source packset
      628    10898        */
      629    10899        %VLP_ERRCODE(FPTN=E_BLOCK_LIMIT,FCG='0614'O,ERR#=%E$BLOCK_LIMIT,MID='23'O,SEV=2,
             10899            STCLASS="CONSTANT SYMDEF");
      630    10944        /*E* ERROR: FLS-E$BLOCK_LIMIT
      631    10945             MESSAGE: BLOCK must not exceed 21
      632    10946             MESSAGE1: Large tape/optical disk block sizes, while conserving
      633    10947                       physical tape/optical disk generally result in substantially
      634    10948                       more I/O errors.
      635    10949        */
      636    10950        %VLP_ERRCODE(FPTN=E_NOT_SCRATCH_PACK,FCG='0614'O,MID='15'O,ERR#=%E$NOT_SCRATCH_PACK,
             10950            SEV=2,STCLASS="CONSTANT SYMDEF");
      637    10995        /*E* ERROR: FLM-E$NOT_SCRATCH_PACK-2
      638    10996             MESSAGE: Specified DUAL pack is not a scratch pack
      639    10997        */
      640    10998        %VLP_ERRCODE(FPTN=E_CANT_RUN_EFT,FCG='0614'O,MID='02'O,ERR# = %E$CANT_RUN_EFT,SEV=2,
             10998            STCLASS = "CONSTANT SYMDEF" );
      641    11043        /*E*  ERROR: FLB-E$CANT_RUN_EFT-2
      642    11044              MESSAGE: You need EFT processor privilege to run EFT
      643    11045        */
      644    11046        %VLP_ERRCODE(FPTN=E_CANT_RUN_ARCOM,FCG='0614'O,MID='02'O,ERR# = %E$CANT_RUN_ARCOM,
             11046            SEV=2,STCLASS = "CONSTANT SYMDEF" );
PL6.E3A0      #001=FLE_DATA_D File=FLE_DATA_D.:E05TSI                            TUE 07/29/97 15:46 Page:25
      645    11091        /*E*  ERROR: FLB-E$CANT_RUN_ARCOM-2
      646    11092              MESSAGE: You need EFT processor privilege to run ARCOM
      647    11093        */
      648    11094        %VLP_ERRCODE(FPTN=E_CANT_SAVE_FILE,FCG='0614'O,MID='15'O,ERR#=%E$CANT_SAVE_FILE,SEV=
             11094            2,STCLASS="CONSTANT SYMDEF");
      649    11139        /*E* ERROR: FLM-E$CANT_SAVE_FILE-2
      650    11140             MESSAGE: Can't save %UF; file attribute is NBACKUP
      651    11141        */
      652    11142        %VLP_ERRCODE(FPTN=E_BAD_BKUP_FILE,FCG='0614'O,MID='02'O,ERR#=%E$BAD_BKUP_FILE,SEV=2,
             11142            STCLASS="CONSTANT SYMDEF");
      653    11187        /*E* ERROR: FLB-E$BAD_BKUP_FILE-2
      654    11188             MESSAGE: %UF is not a valid :BACKUP file.
      655    11189        */
      656    11190        %VLP_ERRCODE(FPTN=E_NO_FSN,FCG='0614'O,MID='02'O,ERR#=%E$NO_FSN,SEV=2,STCLASS=
             11190            "CONSTANT SYMDEF");
      657    11235        /*E* ERROR: FLB-E$NO_FSN-2
      658    11236             MESSAGE: The FSN option must be specified in order to read the :BACKUP
      659    11237                      file from tape.
      660    11238        */
      661    11239        %VLP_ERRCODE(FPTN=E_BAD_FSN,FCG='0614'O,MID='02'O,ERR#=%E$BAD_FSN,SEV=2,STCLASS=
             11239            "CONSTANT SYMDEF");
      662    11284        /*E* ERROR: FLB-E$BAD_FSN-2
      663    11285             MESSAGE: The file found per the FSN specified is not named :BACKUP.
      664    11286             MESSAGE1: Try again after specifying the correct tape and FSN.
      665    11287        */
      666    11288        %VLP_ERRCODE(FPTN=E_ACTIVE_FETCH_DENIED,FCG='0614'O, MID = '02'O,ERR# =
             11288            %E$ACTIVE_FETCH_DENIED,SEV=2, STCLASS = "CONSTANT SYMDEF" );
      667    11333        /*E*  ERROR: FLB-E$ACTIVE_FETCH_DENIED-2
      668    11334             MESSAGE: You can't fetch %UF as it is archived actively; UNARCHIVE to use file
      669    11335        */
      670    11336        %VLP_ERRCODE(FPTN=E_NO_FILE,FCG='0614'O,MID='02'O,ERR# = %E$NO_FILE,SEV=2,STCLASS =
             11336            "CONSTANT SYMDEF" );
      671    11381        /*E*  ERROR: FLB-E$NO_FILE-2
      672    11382              MESSAGE: No file named
      673    11383        */
      674    11384        %VLP_ERRCODE(FPTN=E_CANT_FETCH,FCG='0614'O,MID='11'O,ERR#=%E$CANT_FETCH,SEV=2,
             11384            STCLASS="CONSTANT SYMDEF" );
PL6.E3A0      #001=FLE_DATA_D File=FLE_DATA_D.:E05TSI                            TUE 07/29/97 15:46 Page:26
      675    11429        /*E*  ERROR: FLI-E$CANT_FETCH-2
      676    11430              MESSAGE: Can't queue %UF for retrieval - packset DP#%SN
      677    11431                       disk space exhausted
      678    11432        */
      679    11433        %VLP_ERRCODE(FPTN=E_CANT_RETRIEVE,FCG='0614'O,MID='15'O,ERR#=%E$CANT_RETRIEVE,SEV=2,
             11433            STCLASS="CONSTANT SYMDEF" );
      680    11478        /*E*  ERROR: FLM-E$CANT_RETRIEVE-2
      681    11479              MESSAGE: Can't retrieve %UF - packset disk space exhausted
      682    11480        */
      683    11481        %VLP_ERRCODE(FPTN=E_BAD_GP,FCG='0614'O,MID='11'O,ERR#=%E$BAD_GP,SEV=2,STCLASS=
             11481            "CONSTANT SYMDEF" );
      684    11526        /*E*  ERROR: FLI-E$BAD_GP-2
      685    11527              MESSAGE: Bad granule pool for DP#%SN
      686    11528        */
      687    11529        %VLP_ERRCODE(FPTN=E_INCOMPLETE_FILE_ARCH,FCG='0614'O,MID='03'O,ERR#=
             11529            %E$INCOMPLETE_FILE_ARCH,SEV=2,STCLASS="CONSTANT SYMDEF" );
      688    11574        /*E*  ERROR: FLC-E$INCOMPLETE_FILE_ARCH-2
      689    11575              MESSAGE: Due to the preceding error, file %U1.%U2 could not be
      690    11576                       copied and other files following it on tape may have been
      691    11577                       skipped and remain archived on the source tape
      692    11578        */
      693    11579        %VLP_ERRCODE(FPTN=E_IO_ERR,FCG='0614'O,MID='03'O,ERR#=%E$IO_ERR,SEV=2,STCLASS=
             11579            "CONSTANT SYMDEF" );
      694    11624        /*E*  ERROR: FLC-E$IO_ERR-2
      695    11625              MESSAGE: Irrecoverable I/O error on tape %SN
      696    11626        */
      697    11627        %VLP_ERRCODE(FPTN=E_RETRIEVE_FIRST,FCG='0614'O,MID='02'O,ERR#=%E$RETRIEVE_FIRST,SEV=
             11627            2,STCLASS="CONSTANT SYMDEF" );
      698    11672        /*E*  ERROR: FLB-E$RETRIEVE_FIRST-2
      699    11673              MESSAGE: Cannot unarchive %UF - it must be retrieved first
      700    11674        */
      701    11675        %VLP_ERRCODE(FPTN=E_FILES_SKIPPED,FCG='0614'O,MID='03'O,ERR#=%E$FILES_SKIPPED,SEV=2,
             11675            STCLASS="CONSTANT SYMDEF" );
      702    11720        /*E*  ERROR: FLC-E$FILES_SKIPPED-2
      703    11721              MESSAGE: Due to the previous error, an indefinite number of files may
      704    11722                       have been skipped
      705    11723        */
PL6.E3A0      #001=FLE_DATA_D File=FLE_DATA_D.:E05TSI                            TUE 07/29/97 15:46 Page:27
      706    11724        %VLP_ERRCODE(FPTN=E_OPER_ABORT,FCG='0614'O,MID='11'O,ERR#=%E$OPER_ABORT,SEV=2,
             11724            STCLASS="CONSTANT SYMDEF" );
      707    11769        /*E*  ERROR: FLI-E$OPER_ABORT-2
      708    11770              MESSAGE: Job aborted by operator
      709    11771        */
      710    11772        %VLP_ERRCODE(FPTN=E_BAD_DP_FORMAT,FCG='0614'O,MID='02'O,ERR#=%E$BAD_DP_FORMAT,SEV=2,
             11772            STCLASS="CONSTANT SYMDEF");
      711    11817        /*E* ERROR: FLB-E$BAD_DP_FORMAT-2
      712    11818             MESSAGE: Bad DP format; nn portion of DPnn must be between 01 and 99
      713    11819        */
      714    11820
      715    11821        %VLP_ERRCODE(FPTN=E_NOT_ARCHIVE_UNSTOW,FCG='0614'O, MID='02'O,ERR#=
             11821            %E$NOT_ARCHIVE_UNSTOW,SEV=2, STCLASS="CONSTANT SYMDEF" );
      716    11866        /*E*  ERROR: FLB-E$NOT_ARCHIVE_UNSTOW-2
      717    11867             MESSAGE: %UF has not been archived - UNSTOW the file
      718    11868        */
      719    11869        %VLP_ERRCODE(FPTN=E_CLOSE_INVALID,FCG='0614'O,MID='02'O,ERR#=%E$CLOSE_INVALID,SEV=2,
             11869            STCLASS="CONSTANT SYMDEF" );
      720    11914        /*E*  ERROR: FLB-E$CLOSE_INVALID-2
      721    11915              MESSAGE: The CLOSE command is valid only when used in conjunction
      722    11916                       with the OPEN command to return to the EFT prompt level
      723    11917                       after the execution of a TRANSFER/TRANSPORT subcommand
      724    11918        */
      725    11919        %VLP_ERRCODE(FPTN=E_FILE_REWRITTEN,FCG='0614'O,MID='11'O,ERR#=%E$FILE_REWRITTEN,SEV=
             11919            2,STCLASS="CONSTANT SYMDEF" );
      726    11964        /*E*  ERROR: FLI-E$FILE_REWRITTEN-2
      727    11965              MESSAGE: Due to the preceding error, file %U1.%U2 was rewritten to LT#%U3
      728    11966        */
      729    11967        %VLP_ERRCODE(FPTN=E_INCOMPLETE_FILE_SKIP,FCG='0614'O,MID='11'O,ERR#=
             11967            %E$INCOMPLETE_FILE_SKIP,SEV=2,STCLASS="CONSTANT SYMDEF" );
      730    12012        /*E*  ERROR: FLI-E$INCOMPLETE_FILE_SKIP-2
      731    12013              MESSAGE: Incomplete file encountered and was skipped on tape %SN.
      732    12014        */
      733    12015        %VLP_ERRCODE(FPTN=E_DUP_TAPESET,FCG='0614'O,MID='02'O,ERR#=%E$DUP_TAPESET,SEV=2,
             12015            STCLASS="CONSTANT SYMDEF" );
      734    12060        /*E*  ERROR: FLB-E$DUP_TAPESET-2
      735    12061              MESSAGE: DUPLICATE TAPESET invalid if source tapeset is not specified.
PL6.E3A0      #001=FLE_DATA_D File=FLE_DATA_D.:E05TSI                            TUE 07/29/97 15:46 Page:28
      736    12062        */
      737    12063        %VLP_ERRCODE(FPTN=E_COMPACT_FIN,FCG='0614'O,MID='30'O,ERR#=%E$COMPACT_FIN,SEV=2,
             12063            STCLASS="CONSTANT SYMDEF" );
      738    12108        /*E*  ERROR: FLX-E$COMPACT_FIN-2
      739    12109              MESSAGE: Reading from source terminated - all archived files have been
      740    12110                       compacted.
      741    12111        */
      742    12112    1   END FLE_DATA_D;

PL6.E3A0      #001=FLE_DATA_D File=FLE_DATA_D.:E05TSI                            TUE 07/29/97 15:46 Page:29
--  Include file information  --

   FL_PERR_C.:E05TOU  is referenced.
   CP_6_C.:E05TOU  is referenced.
   CP_6.:E05TOU  cannot be made into a system file and is referenced.
      No diagnostics issued in procedure FLE_DATA_D.

   No code generated for procedure FLE_DATA_D .
   Procedure FLE_DATA_D is declared NOAUTO and requires 2 words of local(STATIC) storage.

    No errors detected in file FLE_DATA_D.:E05TSI    .

PL6.E3A0      #001=FLE_DATA_D File=FLE_DATA_D.:E05TSI                            TUE 07/29/97 15:46 Page:30

 Object Unit name= FLE_DATA_D                                 File name= FLE_DATA_D.:E05TOU
 UTS= JUL 29 '97 15:46:55.08 TUE                              Compiler= PL-6/E31         Sev=      00
 SharedLib= :SHARED_SYSTEM                                    Alt SharedLib=


    ****  Control sections  ****

 Sect   Type Bound  Init  Size OctSiz  Section name(segment info)
    0   Data  even  none     2      2  FLE_DATA_D
    1   DCB   even  none     0      0  M$UC
    2  RoData even  UTS    129    201  FLE_DATA_D
    3   Proc  even  none     0      0  FLE_DATA_D

    ****  Entry defs  ****

                              Check   Calling
                             calling  sequence
  Sect OctLoc Primary Altret sequence   type   Parms  Name
     3      0   yes            yes     ~proc       0  FLE_DATA_D
PL6.E3A0      #001=FLE_DATA_D File=FLE_DATA_D.:E05TSI                            TUE 07/29/97 15:46 Page:31

  ****  Data defs  ****

 Sect OctLoc  Name                           Sect OctLoc  Name
    2      0  E_BADCT                            2      1  E_BADCD
    2      2  E_IE_FRB                           2      3  E_OVERLAP_RANGE
    2      4  E_OVERLAP_SKIP                     2      5  E_WARN_OVERLAP_RANGE
    2      6  E_WARN_OVERLAP_SKIP                2      7  E_BAD_ACC
    2     10  E_BAD_MOD                          2     11  E_BAD_CRE
    2     12  E_BAD_BAC                          2     13  E_BAD_ARC
    2     14  E_BAD_RANGE                        2     15  E_BAD_SKIP_N_RANGE
    2     16  E_MUST_ACCT                        2     17  E_NO_RANGE
    2     20  E_EXPD_NOT_EXPD                    2     21  E_NO_NEXT_SPEC
    2     22  E_NO_PREV_SPEC                     2     23  E_DUP_BEF_ACC
    2     24  E_DUP_BEF_MOD                      2     25  E_DUP_BEF_CRE
    2     26  E_DUP_BEF_BAC                      2     27  E_DUP_BEF_ARC
    2     30  E_DUP_AFT_ACC                      2     31  E_DUP_AFT_MOD
    2     32  E_DUP_AFT_CRE                      2     33  E_DUP_AFT_BAC
    2     34  E_DUP_AFT_ARC                      2     35  E_BAD_FSN_RANGE
    2     36  E_PARTIAL_FILE                     2     37  E_DUPLICATE_PSN
    2     40  E_FIT_NOT_THERE                    2     41  E_MISSING_FILES
    2     42  E_NO_FSN_MATCH                     2     43  E_FETCH_SET
    2     44  E_STOW_SET                         2     45  E_NO_CODE14
    2     46  E_NOSTOW                           2     47  E_NO_CODE6
    2     50  E_NOT_STOWED                       2     51  E_STOW_DENIED
    2     52  E_UNSTOW_DENIED                    2     53  E_STOWED_ACT_OK
    2     54  E_STOWED_INACT_OK                  2     55  E_UNSTOW_OK
    2     56  E_ARCHIVE_ACTIVE                   2     57  E_ACTIVE_TO_INACTIVE
    2     60  E_ARCHIVE_INACTIVE                 2     61  E_NOT_ARCHIVE
    2     62  E_FETCH_FIRST                      2     63  E_UNARCHIVE_DENIED
    2     64  E_UNARCHIVE_DONE                   2     65  E_NO_CODE4
    2     66  E_UNFETCH_DENIED                   2     67  E_NOT_FETCH
    2     70  E_UNFETCH_DONE                     2     71  E_FETCH_DENIED
    2     72  E_FETCH_DONE                       2     73  E_NO_CODE3
    2     74  E_NEED_TIME                        2     75  E_TRY_AGAIN
    2     76  E_CAT_OFF                          2     77  E_MUST_CAT_OFF
    2    100  E_MUST_CAT_DISK                    2    101  E_NO_CATALOG
    2    102  E_NOT_CAT_FILE                     2    103  E_NOTHING_FOUND
PL6.E3A0      #001=FLE_DATA_D File=FLE_DATA_D.:E05TSI                            TUE 07/29/97 15:46 Page:32
    2    104  E_FILE_NAME                        2    105  E_MUST_BE_CAT_FILE
    2    106  E_NO_PREVIOUS_SAVE                 2    107  E_DEL_FILES_REMAIN
    2    110  E_ALREADY_ESTABLISH                2    111  E_NOT_ARCHIVE_MASTER
    2    112  E_NOT_MEMBER_OF_ARCHIVE            2    113  E_MEMBER_OF_ARCHIVE
    2    114  E_ARCFILE_REMOVED                  2    115  E_REMOVE_FROM_ARCHIVE
    2    116  E_NO_ARCFILE                       2    117  E_NUM_ARCHIVE_SETS
    2    120  E_WIPEOUT_SOURCE                   2    121  E_TOO_MANY_ERRORS_TO_SWITCH
    2    122  E_REMOVE_MASTER_PACKSET            2    123  E_TYPE_ARCHIVE_SET
    2    124  E_CANT_SPECIFY_DELF                2    125  E_CANT_SPECIFY_ANYF
    2    126  E_CANT_SPECIFY_QF                  2    127  E_CANT_SPECIFY_DIR
    2    130  E_CANT_SPECIFY_PAD                 2    131  E_CANT_SPECIFY_DEL_ACC
    2    132  E_CANT_SPECIFY_CLEANUP             2    133  E_CANT_SPECIFY_ACUP
    2    134  E_CANT_SPECIFY_SCRUB               2    135  E_CANT_SPECIFY_IDS
    2    136  E_CANT_SPECIFY_DENSITY             2    137  E_CANT_SPECIFY_EXPIRE
    2    140  E_CANT_SPECIFY_SHARED              2    141  E_RETURN_TO_COMMAND
    2    142  E_ARCHIVE_OUT_TAPESET              2    143  E_CANT_OPEN_TBACKUP
    2    144  E_REBUILD_CONTINUE                 2    145  E_BAD_TAPE_FILE
    2    146  E_WRONG_DUAL                       2    147  E_WRONG_PRIME
    2    150  E_BLOCK_LIMIT                      2    151  E_NOT_SCRATCH_PACK
    2    152  E_CANT_RUN_EFT                     2    153  E_CANT_RUN_ARCOM
    2    154  E_CANT_SAVE_FILE                   2    155  E_BAD_BKUP_FILE
    2    156  E_NO_FSN                           2    157  E_BAD_FSN
    2    160  E_ACTIVE_FETCH_DENIED              2    161  E_NO_FILE
    2    162  E_CANT_FETCH                       2    163  E_CANT_RETRIEVE
    2    164  E_BAD_GP                           2    165  E_INCOMPLETE_FILE_ARCH
    2    166  E_IO_ERR                           2    167  E_RETRIEVE_FIRST
    2    170  E_FILES_SKIPPED                    2    171  E_OPER_ABORT
    2    172  E_BAD_DP_FORMAT                    2    173  E_NOT_ARCHIVE_UNSTOW
    2    174  E_CLOSE_INVALID                    2    175  E_FILE_REWRITTEN
    2    176  E_INCOMPLETE_FILE_SKIP             2    177  E_DUP_TAPESET
    2    200  E_COMPACT_FIN
PL6.E3A0      #001=FLE_DATA_D File=FLE_DATA_D.:E05TSI                            TUE 07/29/97 15:46 Page:33

  ****  Data refs  ****

  Flags:  r = read only, s = secondary
Flgs Name                             Flgs Name                             Flgs Name
     M$UC
PL6.E3A0      #001=FLE_DATA_D File=FLE_DATA_D.:E05TSI                            TUE 07/29/97 15:46 Page:34

        1        1        /*M* FLE_DATA_D - EFT's error messages */
        2        2        /*T***********************************************************/
        3        3        /*T*                                                         */
        4        4        /*T* Copyright (c) Bull HN Information Systems Inc., 1997    */
        5        5        /*T*                                                         */
        6        6        /*T***********************************************************/
        7        7
        8        8        FLE_DATA_D: PROC NOAUTO;
        9        9        /* ! ! */
       10       10        %INCLUDE CP_6;
       11     5569        /* !R! */
       12     5570        %LIST;
       13     5571        %INCLUDE FL_PERR_C;
        1+    5572        /*M* FL_PERR_C - EFT's error message code EQUs */
        2+    5573        /*T***********************************************************/
        3+    5574        /*T*                                                         */
        4+    5575        /*T* Copyright (c) Bull HN Information Systems Inc., 1997    */
        5+    5576        /*T*                                                         */
        6+    5577        /*T***********************************************************/
        7+    5578
        8+    5579        %EQU E$BADCT = 1;
        9+    5580        %EQU E$IE_FRB = 2;
       10+    5581        %EQU E$OVERLAP_RANGE = 3;
       11+    5582        %EQU E$OVERLAP_SKIP = 4;
       12+    5583        %EQU E$BAD_ACC = 5;
       13+    5584        %EQU E$BAD_MOD = 6;
       14+    5585        %EQU E$BAD_CRE = 7;
       15+    5586        %EQU E$IO_ERR = 8;
       16+    5587        %EQU E$BAD_SKIP_N_RANGE = 9;
       17+    5588        %EQU E$MUST_ACCT = 10;
       18+    5589        %EQU E$NO_RANGE = 11;
       19+    5590        %EQU E$EXPD_NOT_EXPD = 12;
       20+    5591        %EQU E$NO_NEXT_SPEC = 13;
       21+    5592        %EQU E$NO_PREV_SPEC = 14;
       22+    5593        %EQU E$DUP_BEF_ACC = 15;
       23+    5594        %EQU E$DUP_BEF_MOD = 16;
       24+    5595        %EQU E$DUP_BEF_CRE = 17;
PL6.E3A0      #001=FLE_DATA_D File=FLE_DATA_D.:E05TSI                            TUE 07/29/97 15:46 Page:35
       25+    5596        %EQU E$DUP_AFT_ACC = 18;
       26+    5597        %EQU E$DUP_AFT_MOD = 19;
       27+    5598        %EQU E$DUP_AFT_CRE = 20;
       28+    5599        %EQU E$DUP_BEF_BAC = 22;
       29+    5600        %EQU E$DUP_AFT_BAC = 23;
       30+    5601        %EQU E$DUP_AFT_ARC = 24;
       31+    5602        %EQU E$DUP_BEF_ARC = 25;
       32+    5603        %EQU E$BAD_FSN_RANGE = 26;
       33+    5604        %EQU E$PARTIAL_FILE = 27;
       34+    5605        %EQU E$DUPLICATE_PSN = 28;
       35+    5606        %EQU E$FIT_NOT_THERE = 29;
       36+    5607        %EQU E$MISSING_FILES = 30;
       37+    5608        %EQU E$NO_FSN_MATCH = 31;
       38+    5609        %EQU E$FETCH_SET = 32;
       39+    5610        %EQU E$STOW_SET = 33;
       40+    5611        %EQU E$NO_CODE14 = 34;
       41+    5612        %EQU E$NOSTOW = 35;
       42+    5613        %EQU E$NO_CODE6 = 36;
       43+    5614        %EQU E$NOT_STOWED = 37;
       44+    5615        %EQU E$STOW_DENIED = 38;
       45+    5616        %EQU E$UNSTOW_DENIED = 39;
       46+    5617        %EQU E$UNSTOW_OK = 41;
       47+    5618        %EQU E$ARCHIVE_ACTIVE = 42;
       48+    5619        %EQU E$ACTIVE_TO_INACTIVE = 43;
       49+    5620        %EQU E$ARCHIVE_INACTIVE = 44;
       50+    5621        %EQU E$NOT_ARCHIVE = 45;
       51+    5622        %EQU E$FETCH_FIRST = 46;
       52+    5623        %EQU E$UNARCHIVE_DENIED = 47;
       53+    5624        %EQU E$UNARCHIVE_DONE = 48;
       54+    5625        %EQU E$NO_CODE4 = 49;
       55+    5626        %EQU E$NOT_FETCH = 50;
       56+    5627        %EQU E$UNFETCH_DENIED = 51;
       57+    5628        %EQU E$UNFETCH_DONE = 52;
       58+    5629        %EQU E$FETCH_DENIED = 53;
       59+    5630        %EQU E$FETCH_DONE = 54;
       60+    5631        %EQU E$NO_CODE3 = 55;
       61+    5632        %EQU E$BAD_ARC = 57;
PL6.E3A0      #001=FLE_DATA_D File=FLE_DATA_D.:E05TSI                            TUE 07/29/97 15:46 Page:36
       62+    5633        %EQU E$BAD_BAC = 58;
       63+    5634        %EQU E$NEED_TIME = 59;
       64+    5635        %EQU E$TRY_AGAIN = 60;
       65+    5636        %EQU E$CAT_OFF = 61;
       66+    5637        %EQU E$MUST_CAT_OFF = 62;
       67+    5638        %EQU E$MUST_CAT_DISK = 63;
       68+    5639        %EQU E$NO_CATALOG = 64;
       69+    5640        %EQU E$NOT_CAT_FILE = 65;
       70+    5641        %EQU E$NOTHING_FOUND = 66;
       71+    5642        %EQU E$FILE_NAME = 67;
       72+    5643        %EQU E$MUST_BE_CAT_FILE = 68;
       73+    5644        %EQU E$NO_PREVIOUS_SAVE = 69;
       74+    5645        %EQU E$DEL_FILES_REMAIN = 70;
       75+    5646        %EQU E$ALREADY_ESTABLISH = 71;
       76+    5647        %EQU E$NOT_ARCHIVE_MASTER = 72;
       77+    5648        %EQU E$MEMBER_OF_ARCHIVE = 73;
       78+    5649        %EQU E$NOT_MEMBER_OF_ARCHIVE = 74;
       79+    5650        %EQU E$REMOVE_FROM_ARCHIVE = 75;
       80+    5651        %EQU E$REMOVE_MASTER_PACKSET = 76;
       81+    5652        %EQU E$CANT_SPECIFY_DELF = 77;
       82+    5653        %EQU E$CANT_SPECIFY_ANYF = 78;
       83+    5654        %EQU E$CANT_SPECIFY_QF = 79;
       84+    5655        %EQU E$CANT_SPECIFY_DIR = 80;
       85+    5656        %EQU E$CANT_SPECIFY_PAD = 81;
       86+    5657        %EQU E$CANT_SPECIFY_DEL_ACC = 82;
       87+    5658        %EQU E$CANT_SPECIFY_CLEANUP = 83;
       88+    5659        %EQU E$CANT_SPECIFY_ACUP = 84;
       89+    5660        %EQU E$CANT_SPECIFY_SCRUB = 85;
       90+    5661        %EQU E$CANT_SPECIFY_IDS = 86;
       91+    5662        %EQU E$RETURN_TO_COMMAND = 87;
       92+    5663        %EQU E$ARCHIVE_OUT_TAPESET = 88;
       93+    5664        %EQU E$WARN_OVERLAP_SKIP = 89;
       94+    5665        %EQU E$WARN_OVERLAP_RANGE = 90;
       95+    5666        %EQU E$CANT_OPEN_TBACKUP = 92;
       96+    5667        %EQU E$WRONG_DUAL = 95;
       97+    5668        %EQU E$WRONG_PRIME = 96;
       98+    5669        %EQU E$BLOCK_LIMIT = 97;
PL6.E3A0      #001=FLE_DATA_D File=FLE_DATA_D.:E05TSI                            TUE 07/29/97 15:46 Page:37
       99+    5670        %EQU E$NOT_SCRATCH_PACK = 98;
      100+    5671        %EQU E$CANT_RUN_EFT = 100;
      101+    5672        %EQU E$ARCFILE_REMOVED = 101;
      102+    5673        %EQU E$NO_ARCFILE = 102;
      103+    5674        %EQU E$WIPEOUT_SOURCE = 103;
      104+    5675        %EQU E$TOO_MANY_ERRORS_TO_SWITCH = 106;
      105+    5676        %EQU E$NUM_ARCHIVE_SETS = 107;
      106+    5677        %EQU E$BAD_TAPE_FILE = 108;
      107+    5678        %EQU E$CANT_SAVE_FILE = 110;
      108+    5679        %EQU E$BAD_BKUP_FILE = 112;
      109+    5680        %EQU E$NO_FSN = 113;
      110+    5681        %EQU E$REBUILD_CONTINUE = 114;
      111+    5682        %EQU E$BAD_FSN = 115;
      112+    5683        %EQU E$STOWED_ACT_OK = 116;
      113+    5684        %EQU E$STOWED_INACT_OK = 117;
      114+    5685        %EQU E$ACTIVE_FETCH_DENIED = 118;
      115+    5686        %EQU E$NO_FILE = 119;
      116+    5687        %EQU E$CANT_RUN_ARCOM = 120;
      117+    5688        %EQU E$BADCD = 121;
      118+    5689        %EQU E$TYPE_ARCHIVE_SET = 122;
      119+    5690        %EQU E$CANT_SPECIFY_DENSITY = 123;
      120+    5691        %EQU E$CANT_SPECIFY_EXPIRE = 124;
      121+    5692        %EQU E$CANT_FETCH = 126;
      122+    5693        %EQU E$CANT_RETRIEVE = 127;
      123+    5694        %EQU E$BAD_GP = 128;
      124+    5695        %EQU E$INCOMPLETE_FILE_ARCH = 129;
      125+    5696        %EQU E$BAD_RANGE = 130;
      126+    5697        %EQU E$RETRIEVE_FIRST = 131;
      127+    5698        %EQU E$FILES_SKIPPED = 132;
      128+    5699        %EQU E$OPER_ABORT = 133;
      129+    5700        %EQU E$BAD_DP_FORMAT = 134;
      130+    5701        %EQU E$NOT_ARCHIVE_UNSTOW = 135;
      131+    5702        %EQU E$CLOSE_INVALID = 136;
      132+    5703        %EQU E$FILE_REWRITTEN = 137;
      133+    5704        %EQU E$CANT_SPECIFY_SHARED = 138;
      134+    5705        %EQU E$INCOMPLETE_FILE_SKIP = 139;
      135+    5706        %EQU E$DUP_TAPESET = 140;
PL6.E3A0      #001=FLE_DATA_D File=FLE_DATA_D.:E05TSI                            TUE 07/29/97 15:46 Page:38
      136+    5707        %EQU E$COMPACT_FIN = 141;
       14     5708        %PLIST;
       15     5709
       16     5710
       17     5711        %VLP_ERRCODE( FPTN=E_BADCT, FCG='0614'O, MID='11'O, ERR#=%E$BADCT, SEV=2, STCLASS=
              5711            "CONSTANT SYMDEF" );
       18     5756        /*E*  ERROR: FLI-E$BADCT-2
       19     5757              MESSAGE: Bad CT format; must be CT#xxxxn or CT#xxxxnn
       20     5758              MESSAGE1: A catalogued tape is designated by four valid serial
       21     5759                        number characters followed by one or two numeric
       22     5760                        characters.
       23     5761        */
       24     5762
       25     5763        %VLP_ERRCODE( FPTN=E_BADCD, FCG='0614'O, MID='11'O, ERR#=%E$BADCD, SEV=2, STCLASS=
              5763            "CONSTANT SYMDEF" );
       26     5808        /*E*  ERROR: FLI-E$BADCD-2
       27     5809              MESSAGE: Bad CD format; must be CD#xxxxn or CD#xxxxnn
       28     5810              MESSAGE1: A controlled optical disk is designated by four valid
       29     5811                        serial number characters followed by one or two
       30     5812                        numeric characters.
       31     5813        */
       32     5814
       33     5815       %VLP_ERRCODE( FPTN=E_IE_FRB, FCG='0614'O, MID='11'O, ERR#=%E$IE_FRB, SEV=2, STCLASS=
              5815            "CONSTANT SYMDEF" );
       34     5860        /*E*  ERROR: FLI-E$IE_FRB-2
       35     5861            MESSAGE: Internal error in FLI$RETURN_BUF: you can only return released buffers
       36     5862        */
       37     5863
       38     5864        %VLP_ERRCODE( FPTN=E_OVERLAP_RANGE, FCG='0614'O, MID='02'O, ERR#=%E$OVERLAP_RANGE,
              5864            SEV=2, STCLASS="CONSTANT SYMDEF" );
       39     5909        /*E*  ERROR: FLB-E$OVERLAP_RANGE-2
       40     5910              MESSAGE: One of your range specifications overlaps another
       41     5911              MESSAGE1: If you submit an improvement STAR, the next version
       42     5912                        of EFT will tell you which ones overlap.
       43     5913        */
       44     5914
       45     5915       %VLP_ERRCODE( FPTN=E_OVERLAP_SKIP, FCG='0614'O, MID='02'O, ERR#=%E$OVERLAP_SKIP, SEV
PL6.E3A0      #001=FLE_DATA_D File=FLE_DATA_D.:E05TSI                            TUE 07/29/97 15:46 Page:39
              5915            =2, STCLASS="CONSTANT SYMDEF" );
       46     5960        /*E*  ERROR: FLB-E$OVERLAP_SKIP-2
       47     5961              MESSAGE: One of your skip specifications overlaps another
       48     5962              MESSAGE1: If you submit an improvement STAR, the next version
       49     5963                        of EFT will tell you which ones overlap.
       50     5964        */
       51     5965
       52     5966        %VLP_ERRCODE( FPTN=E_WARN_OVERLAP_RANGE, FCG='0614'O, MID='02'O, ERR#=
              5966            %E$WARN_OVERLAP_RANGE, SEV=2, STCLASS="CONSTANT SYMDEF" );
       53     6011        /*E*  ERROR: FLB-E$WARN_OVERLAP_RANGE-2
       54     6012              MESSAGE: Note that one of your range specifications overlaps another
       55     6013              MESSAGE1: If you submit an improvement STAR, the next version
       56     6014                        of EFT will tell you which ones overlap.
       57     6015        */
       58     6016
       59     6017        %VLP_ERRCODE( FPTN=E_WARN_OVERLAP_SKIP, FCG='0614'O, MID='02'O, ERR#=
              6017            %E$WARN_OVERLAP_SKIP, SEV=2, STCLASS="CONSTANT SYMDEF" );
       60     6062        /*E*  ERROR: FLB-E$WARN_OVERLAP_SKIP-2
       61     6063              MESSAGE: Note that one of your skip specifications overlaps another
       62     6064              MESSAGE1: If you submit an improvement STAR, the next version
       63     6065                        of EFT will tell you which ones overlap.
       64     6066        */
       65     6067
       66     6068        %VLP_ERRCODE( FPTN=E_BAD_ACC, FCG='0614'O, MID='02'O, ERR#=%E$BAD_ACC, SEV=2,
              6068            STCLASS="CONSTANT SYMDEF" );
       67     6113        /*E* ERROR: FLB-E$BAD_ACC-2
       68     6114             MESSAGE: No ACCESSED date can fit your criteria
       69     6115             MESSAGE1: It would have to be both after a date and
       70     6116                       before an earlier date.   That's impossible.
       71     6117        */
       72     6118
       73     6119        %VLP_ERRCODE( FPTN=E_BAD_MOD, FCG='0614'O, MID='02'O, ERR#=%E$BAD_MOD, SEV=2,
              6119            STCLASS="CONSTANT SYMDEF" );
       74     6164        /*E* ERROR: FLB-E$BAD_MOD-2
       75     6165             MESSAGE: No MODIFIED date can fit your criteria
       76     6166             MESSAGE1: It would have to be both after a date and
       77     6167                       before an earlier date.   That's impossible.
PL6.E3A0      #001=FLE_DATA_D File=FLE_DATA_D.:E05TSI                            TUE 07/29/97 15:46 Page:40
       78     6168        */
       79     6169
       80     6170        %VLP_ERRCODE( FPTN=E_BAD_CRE, FCG='0614'O, MID='02'O, ERR#=%E$BAD_CRE, SEV=2,
              6170            STCLASS="CONSTANT SYMDEF" );
       81     6215        /*E* ERROR: FLB-E$BAD_CRE-2
       82     6216             MESSAGE: No CREATED date can fit your criteria
       83     6217             MESSAGE1: It would have to be both after a date and
       84     6218                       before an earlier date.   That's impossible.
       85     6219        */
       86     6220
       87     6221        %VLP_ERRCODE( FPTN=E_BAD_BAC, FCG='0614'O, MID='02'O, ERR#=%E$BAD_BAC, SEV=2,
              6221            STCLASS="CONSTANT SYMDEF" );
       88     6266        /*E* ERROR: FLB-E$BAD_BAC-2
       89     6267             MESSAGE: No BACKUP date can fit your criteria
       90     6268             MESSAGE1: It would have to be both after a date and
       91     6269                       before an earlier date.   That's impossible.
       92     6270        */
       93     6271
       94     6272        %VLP_ERRCODE( FPTN=E_BAD_ARC, FCG='0614'O, MID='02'O, ERR#=%E$BAD_ARC, SEV=2,
              6272            STCLASS="CONSTANT SYMDEF" );
       95     6317        /*E* ERROR: FLB-E$BAD_ARC-2
       96     6318             MESSAGE: No ARCHIVED date can fit your criteria
       97     6319             MESSAGE1: It would have to be both after a date and
       98     6320                       before an earlier date.   That's impossible.
       99     6321        */
      100     6322
      101     6323        %VLP_ERRCODE( FPTN=E_BAD_RANGE, FCG='0614'O, MID='02'O, ERR#=%E$BAD_RANGE, SEV=2,
              6323            STCLASS="CONSTANT SYMDEF" );
      102     6368        /*E* ERROR: FLB-E$BAD_RANGE-2
      103     6369              MESSAGE: The first element in a range or skip range is greater than the last
      104     6370             MESSAGE1: If you submit an improvement STAR, the next version
      105     6371                        of EFT will tell you which one it is.
      106     6372        */
      107     6373
      108     6374        %VLP_ERRCODE( FPTN=E_BAD_SKIP_N_RANGE, FCG='0614'O, MID='02'O, ERR#=
              6374            %E$BAD_SKIP_N_RANGE, SEV=2, STCLASS="CONSTANT SYMDEF" );
      109     6419        /*E* ERROR: FLB-E$BAD_SKIP_N_RANGE-2
PL6.E3A0      #001=FLE_DATA_D File=FLE_DATA_D.:E05TSI                            TUE 07/29/97 15:46 Page:41
      110     6420             MESSAGE: A skip specification is not wholly contained within a range
      111     6421             MESSAGE1: If you submit an improvement STAR, the next version
      112     6422                        of EFT will tell you which one it is.
      113     6423        */
      114     6424
      115     6425        %VLP_ERRCODE( FPTN=E_MUST_ACCT, FCG='0614'O, MID='02'O, ERR#=%E$MUST_ACCT, SEV=2,
              6425            STCLASS="CONSTANT SYMDEF" );
      116     6470        /*E* ERROR: FLB-E$MUST_ACCT-2
      117     6471             MESSAGE: You must specify an account in the first range or skip
      118     6472             MESSAGE1: This account will then become the default for all following
      119     6473                       range and skip specifications until you specify another.
      120     6474             MESSAGE2: If you submit an improvement STAR, the next version
      121     6475                        of EFT will tell you which one it is.
      122     6476        */
      123     6477
      124     6478        %VLP_ERRCODE( FPTN=E_NO_RANGE, FCG='0614'O, MID='02'O, ERR#=%E$NO_RANGE, SEV=2,
              6478            STCLASS="CONSTANT SYMDEF" );
      125     6523        /*E* ERROR: FLB-E$NO_RANGE-2
      126     6524             MESSAGE: Your skips skipped all of your ranges
      127     6525             MESSAGE1: That leaves EFT with nothing to do.
      128     6526        */
      129     6527
      130     6528        %VLP_ERRCODE( FPTN=E_EXPD_NOT_EXPD, FCG='0614'O, MID='02'O, ERR#=%E$EXPD_NOT_EXPD,
              6528            SEV=2, STCLASS="CONSTANT SYMDEF" );
      131     6573        /*E* ERROR: FLB-E$EXPD_NOT_EXPD-2
      132     6574             MESSAGE: You can't specify both EXPIRED and NOT EXPIRED
      133     6575        */
      134     6576
      135     6577       %VLP_ERRCODE( FPTN=E_NO_NEXT_SPEC, FCG='0614'O, MID='02'O, ERR#=%E$NO_NEXT_SPEC, SEV
              6577            =2, STCLASS="CONSTANT SYMDEF" );
      136     6622        /*E* ERROR: FLB-E$NO_NEXT_SPEC-2
      137     6623             MESSAGE: Unable to determine next file after SKIP specification
      138     6624        */
      139     6625
      140     6626       %VLP_ERRCODE( FPTN=E_NO_PREV_SPEC, FCG='0614'O, MID='02'O, ERR#=%E$NO_PREV_SPEC, SEV
              6626            =2, STCLASS="CONSTANT SYMDEF" );
      141     6671        /*E* ERROR: FLB-E$NO_PREV_SPEC-2
PL6.E3A0      #001=FLE_DATA_D File=FLE_DATA_D.:E05TSI                            TUE 07/29/97 15:46 Page:42
      142     6672             MESSAGE: Unable to determine previous file before SKIP specification
      143     6673        */
      144     6674
      145     6675       %VLP_ERRCODE( FPTN=E_DUP_BEF_ACC, FCG='0614'O, MID='02'O, ERR#=%E$DUP_BEF_ACC, SEV=2
              6675            , STCLASS="CONSTANT SYMDEF" );
      146     6720        /*E* ERROR: FLB-E$DUP_BEF_ACC-2
      147     6721             MESSAGE: You already specified an ACCESSED BEFORE date
      148     6722             MESSAGE1: Some date criteria imply settings that may not be
      149     6723                       obvious at first.  You either explicitly or implicitly
      150     6724                       caused an ACCESSED BEFORE date criterion to be set.
      151     6725        */
      152     6726
      153     6727       %VLP_ERRCODE( FPTN=E_DUP_BEF_MOD, FCG='0614'O, MID='02'O, ERR#=%E$DUP_BEF_MOD, SEV=2
              6727            , STCLASS="CONSTANT SYMDEF" );
      154     6772        /*E* ERROR: FLB-E$DUP_BEF_MOD-2
      155     6773             MESSAGE: You already specified an MODIFIED BEFORE date
      156     6774             MESSAGE1: Some date criteria imply settings that may not be
      157     6775                       obvious at first.  You either explicitly or implicitly
      158     6776                       caused an MODIFIED BEFORE date criterion to be set.
      159     6777        */
      160     6778
      161     6779       %VLP_ERRCODE( FPTN=E_DUP_BEF_CRE, FCG='0614'O, MID='02'O, ERR#=%E$DUP_BEF_CRE, SEV=2
              6779            , STCLASS="CONSTANT SYMDEF" );
      162     6824        /*E* ERROR: FLB-E$DUP_BEF_CRE-2
      163     6825             MESSAGE: You already specified an CREATED BEFORE date
      164     6826             MESSAGE1: Some date criteria imply settings that may not be
      165     6827                       obvious at first.  You either explicitly or implicitly
      166     6828                       caused an CREATED BEFORE date criterion to be set.
      167     6829        */
      168     6830
      169     6831       %VLP_ERRCODE( FPTN=E_DUP_BEF_BAC, FCG='0614'O, MID='02'O, ERR#=%E$DUP_BEF_BAC, SEV=2
              6831            , STCLASS="CONSTANT SYMDEF" );
      170     6876        /*E* ERROR: FLB-E$DUP_BEF_BAC-2
      171     6877             MESSAGE: You already specified an BACKED UP BEFORE date
      172     6878             MESSAGE1: Some date criteria imply settings that may not be
      173     6879                       obvious at first.  You either explicitly or implicitly
      174     6880                       caused an BACKED UP BEFORE date criterion to be set.
PL6.E3A0      #001=FLE_DATA_D File=FLE_DATA_D.:E05TSI                            TUE 07/29/97 15:46 Page:43
      175     6881        */
      176     6882
      177     6883       %VLP_ERRCODE( FPTN=E_DUP_BEF_ARC, FCG='0614'O, MID='02'O, ERR#=%E$DUP_BEF_ARC, SEV=2
              6883            , STCLASS="CONSTANT SYMDEF" );
      178     6928        /*E* ERROR: FLB-E$DUP_BEF_ARC-2
      179     6929             MESSAGE: You already specified an ARCHIVED BEFORE date
      180     6930             MESSAGE1: Some date criteria imply settings that may not be
      181     6931                       obvious at first.  You either explicitly or implicitly
      182     6932                       caused an ARCHIVED BEFORE date criterion to be set.
      183     6933        */
      184     6934
      185     6935       %VLP_ERRCODE( FPTN=E_DUP_AFT_ACC, FCG='0614'O, MID='02'O, ERR#=%E$DUP_AFT_ACC, SEV=2
              6935            , STCLASS="CONSTANT SYMDEF" );
      186     6980        /*E* ERROR: FLB-E$DUP_AFT_ACC-2
      187     6981             MESSAGE: You already specified an ACCESSED AFTER date
      188     6982             MESSAGE1: Some date criteria imply settings that may not be
      189     6983                       obvious at first.  You either explicitly or implicitly
      190     6984                       caused an ACCESSED AFTER date criterion to be set.
      191     6985        */
      192     6986
      193     6987       %VLP_ERRCODE( FPTN=E_DUP_AFT_MOD, FCG='0614'O, MID='02'O, ERR#=%E$DUP_AFT_MOD, SEV=2
              6987            , STCLASS="CONSTANT SYMDEF" );
      194     7032        /*E* ERROR: FLB-E$DUP_AFT_MOD-2
      195     7033             MESSAGE: You already specified an MODIFIED AFTER date
      196     7034             MESSAGE1: Some date criteria imply settings that may not be
      197     7035                       obvious at first.  You either explicitly or implicitly
      198     7036                       caused an MODIFIED AFTER date criterion to be set.
      199     7037        */
      200     7038
      201     7039       %VLP_ERRCODE( FPTN=E_DUP_AFT_CRE, FCG='0614'O, MID='02'O, ERR#=%E$DUP_AFT_CRE, SEV=2
              7039            , STCLASS="CONSTANT SYMDEF" );
      202     7084        /*E* ERROR: FLB-E$DUP_AFT_CRE-2
      203     7085             MESSAGE: You already specified an CREATED AFTER date
      204     7086             MESSAGE1: Some date criteria imply settings that may not be
      205     7087                       obvious at first.  You either explicitly or implicitly
      206     7088                       caused an CREATED AFTER date criterion to be set.
      207     7089        */
PL6.E3A0      #001=FLE_DATA_D File=FLE_DATA_D.:E05TSI                            TUE 07/29/97 15:46 Page:44
      208     7090
      209     7091       %VLP_ERRCODE( FPTN=E_DUP_AFT_BAC, FCG='0614'O, MID='02'O, ERR#=%E$DUP_AFT_BAC, SEV=2
              7091            , STCLASS="CONSTANT SYMDEF" );
      210     7136        /*E* ERROR: FLB-E$DUP_AFT_BAC-2
      211     7137             MESSAGE: You already specified an BACKED UP AFTER date
      212     7138             MESSAGE1: Some date criteria imply settings that may not be
      213     7139                       obvious at first.  You either explicitly or implicitly
      214     7140                       caused an BACKED UP AFTER date criterion to be set.
      215     7141        */
      216     7142
      217     7143       %VLP_ERRCODE( FPTN=E_DUP_AFT_ARC, FCG='0614'O, MID='02'O, ERR#=%E$DUP_AFT_ARC, SEV=2
              7143            , STCLASS="CONSTANT SYMDEF" );
      218     7188        /*E* ERROR: FLB-E$DUP_AFT_ARC-2
      219     7189             MESSAGE: You already specified an ARCHIVED AFTER date
      220     7190             MESSAGE1: Some date criteria imply settings that may not be
      221     7191                       obvious at first.  You either explicitly or implicitly
      222     7192                       caused an ARCHIVED AFTER date criterion to be set.
      223     7193        */
      224     7194
      225     7195        %VLP_ERRCODE( FPTN=E_BAD_FSN_RANGE, FCG='0614'O, MID='11'O, ERR#=%E$BAD_FSN_RANGE,
              7195            SEV=2, STCLASS="CONSTANT SYMDEF" );
      226     7240        /*E*  ERROR: FLI-E$BAD_FSN_RANGE-2
      227     7241              MESSAGE: Second FSN of FSN range must be greater than first
      228     7242        */
      229     7243
      230     7244       %VLP_ERRCODE( FPTN=E_PARTIAL_FILE, FCG='0614'O, MID='11'O, ERR#=%E$PARTIAL_FILE, SEV
              7244            =2, STCLASS="CONSTANT SYMDEF" );
      231     7289        /*E*  ERROR: FLI-E$PARTIAL_FILE-2
      232     7290              MESSAGE: Part of file %U1%.%U2% is missing
      233     7291        */
      234     7292
      235     7293        %VLP_ERRCODE( FPTN=E_DUPLICATE_PSN, FCG='0614'O, MID='11'O, ERR#=%E$DUPLICATE_PSN,
              7293            SEV=2, STCLASS="CONSTANT SYMDEF" );
      236     7338        /*E*  ERROR: FLI-E$DUPLICATE_PSN-2
      237     7339              MESSAGE: A packset serial number has been specified twice
      238     7340        */
      239     7341
PL6.E3A0      #001=FLE_DATA_D File=FLE_DATA_D.:E05TSI                            TUE 07/29/97 15:46 Page:45
      240     7342        %VLP_ERRCODE( FPTN=E_FIT_NOT_THERE, FCG='0614'O, MID='11'O, ERR#=%E$FIT_NOT_THERE,
              7342            SEV=2, STCLASS="CONSTANT SYMDEF" );
      241     7387        /*E*  ERROR: FLI-E$FIT_NOT_THERE-2
      242     7388              MESSAGE: This EFT tape/optical disk is malformed...a file was skipped
      243     7389              MESSAGE1: If you STAR this, the next version of EFT will tell
      244     7390                        you which file.
      245     7391        */
      246     7392
      247     7393        %VLP_ERRCODE( FPTN=E_MISSING_FILES, FCG='0614'O, MID='11'O, ERR#=%E$MISSING_FILES,
              7393            SEV=2, STCLASS="CONSTANT SYMDEF" );
      248     7438        /*E*  ERROR: FLI-E$MISSING_FILES-2
      249     7439              MESSAGE: Due to the preceding error, files could not be
      250     7440                       reliably copied to tape/optical disk.  You  must take manual
      251     7441                       action to recover from this error.  The following
      252     7442                       files may have been affected:
      253     7443        */
      254     7444
      255     7445       %VLP_ERRCODE( FPTN=E_NO_FSN_MATCH, FCG='0614'O, MID='11'O, ERR#=%E$NO_FSN_MATCH, SEV
              7445            =2, STCLASS="CONSTANT SYMDEF" );
      256     7490        /*E*  ERROR: FLI-E$NO_FSN_MATCH-2
      257     7491              MESSAGE: Multiple tape output is only allowed when the File
      258     7492                       Sequence Numbers of your output tapes match
      259     7493              MESSAGE1: Rewind all tapes and start over.
      260     7494        */
      261     7495        %VLP_ERRCODE(FPTN=E_FETCH_SET,FCG='0614'O, MID = '02'O,ERR# = %E$FETCH_SET,SEV=2,
              7495            STCLASS = "CONSTANT SYMDEF" );
      262     7540        /*E*  ERROR: FLB-E$FETCH_SET-2
      263     7541             MESSAGE: %UF already has a fetch request outstanding
      264     7542        */
      265     7543
      266     7544        %VLP_ERRCODE(FPTN=E_STOW_SET,FCG='0614'O, MID = '02'O,ERR# = %E$STOW_SET,SEV=2,
              7544            STCLASS = "CONSTANT SYMDEF" );
      267     7589        /*E*  ERROR: FLB-E$STOW_SET-2
      268     7590             MESSAGE: %UF already has a stow request outstanding
      269     7591        */
      270     7592
      271     7593        %VLP_ERRCODE(FPTN=E_NO_CODE14,FCG='0614'O, MID = '02'O,ERR# = %E$NO_CODE14,SEV=2,
PL6.E3A0      #001=FLE_DATA_D File=FLE_DATA_D.:E05TSI                            TUE 07/29/97 15:46 Page:46
              7593            STCLASS = "CONSTANT SYMDEF" );
      272     7638        /*E*  ERROR: FLB-E$NO_CODE14-2
      273     7639             MESSAGE: Error in file directory - CODE14
      274     7640        */
      275     7641
      276     7642        %VLP_ERRCODE(FPTN=E_NOSTOW,FCG='0614'O, MID = '02'O,ERR# = %E$NOSTOW,SEV=2, STCLASS
              7642            = "CONSTANT SYMDEF" );
      277     7687        /*E*  ERROR: FLB-E$NOSTOW-2
      278     7688             MESSAGE: You can't stow files from NOSTOW account %AC
      279     7689        */
      280     7690
      281     7691        %VLP_ERRCODE(FPTN=E_NO_CODE6,FCG='0614'O, MID = '02'O,ERR# = %E$NO_CODE6,SEV=2,
              7691            STCLASS = "CONSTANT SYMDEF" );
      282     7736        /*E*  ERROR: FLB-E$NO_CODE6-2
      283     7737             MESSAGE: CODE06 missing from FIT of %UF
      284     7738        */
      285     7739
      286     7740        %VLP_ERRCODE(FPTN=E_NOT_STOWED,FCG='0614'O, MID = '02'O,ERR# = %E$NOT_STOWED,SEV=2,
              7740            STCLASS = "CONSTANT SYMDEF" );
      287     7785        /*E*  ERROR: FLB-E$NOT_STOWED-2
      288     7786             MESSAGE: %UF had no stow request outstanding
      289     7787        */
      290     7788
      291     7789       %VLP_ERRCODE(FPTN=E_STOW_DENIED,FCG='0614'O, MID = '02'O,ERR# = %E$STOW_DENIED,SEV=2
              7789            , STCLASS = "CONSTANT SYMDEF" );
      292     7834        /*E*  ERROR: FLB-E$STOW_DENIED-2
      293     7835             MESSAGE: You can't stow %UF
      294     7836             MESSAGE1: You don't have FMSEC and you're not its creator.
      295     7837
      296     7838        */
      297     7839
      298     7840        %VLP_ERRCODE(FPTN=E_UNSTOW_DENIED,FCG='0614'O, MID = '02'O,ERR# = %E$UNSTOW_DENIED,
              7840            SEV=2, STCLASS = "CONSTANT SYMDEF" );
      299     7885        /*E*  ERROR: FLB-E$UNSTOW_DENIED-2
      300     7886             MESSAGE: You can't unstow %UF
      301     7887             MESSAGE1: You don't have FMSEC and you're not its creator.
      302     7888
PL6.E3A0      #001=FLE_DATA_D File=FLE_DATA_D.:E05TSI                            TUE 07/29/97 15:46 Page:47
      303     7889        */
      304     7890
      305     7891        %VLP_ERRCODE(FPTN=E_STOWED_ACT_OK,FCG='0614'O, MID = '02'O,ERR# = %E$STOWED_ACT_OK,
              7891            SEV=2, STCLASS = "CONSTANT SYMDEF" );
      306     7936        /*E*  ERROR: FLB-E$STOWED_ACT_OK-2
      307     7937             MESSAGE: %UF stowed - active
      308     7938        */
      309     7939
      310     7940        %VLP_ERRCODE(FPTN=E_STOWED_INACT_OK,FCG='0614'O, MID = '02'O,ERR# =
              7940            %E$STOWED_INACT_OK,SEV=2, STCLASS = "CONSTANT SYMDEF" );
      311     7985        /*E*  ERROR: FLB-E$STOWED_INACT_OK-2
      312     7986             MESSAGE: %UF queued for archiving - inactive
      313     7987        */
      314     7988
      315     7989        %VLP_ERRCODE(FPTN=E_UNSTOW_OK,FCG='0614'O, MID = '02'O,ERR# = %E$UNSTOW_OK,SEV=2,
              7989            STCLASS = "CONSTANT SYMDEF" );
      316     8034        /*E*  ERROR: FLB-E$UNSTOW_OK-2
      317     8035             MESSAGE: %UF unstowed
      318     8036        */
      319     8037       %VLP_ERRCODE(FPTN=E_ARCHIVE_ACTIVE,FCG='0614'O, MID = '02'O,ERR# = %E$ARCHIVE_ACTIVE
              8037            ,SEV=2, STCLASS = "CONSTANT SYMDEF" );
      320     8082        /*E*  ERROR: FLB-E$ARCHIVE_ACTIVE-2
      321     8083             MESSAGE: %UF is already archived
      322     8084        */
      323     8085        %VLP_ERRCODE(FPTN=E_ACTIVE_TO_INACTIVE,FCG='0614'O, MID = '02'O,ERR# =
              8085            %E$ACTIVE_TO_INACTIVE,SEV=2, STCLASS = "CONSTANT SYMDEF" );
      324     8130        /*E*  ERROR: FLB-E$ACTIVE_TO_INACTIVE-2
      325     8131             MESSAGE: %UF was actively archived...now inactivated
      326     8132        */
      327     8133
      328     8134        %VLP_ERRCODE(FPTN=E_ARCHIVE_INACTIVE,FCG='0614'O, MID = '02'O,ERR# =
              8134            %E$ARCHIVE_INACTIVE,SEV=2, STCLASS = "CONSTANT SYMDEF" );
      329     8179        /*E*  ERROR: FLB-E$ARCHIVE_INACTIVE-2
      330     8180             MESSAGE: %UF is inactively archived and can't be stowed
      331     8181        */
      332     8182
      333     8183       %VLP_ERRCODE(FPTN=E_NOT_ARCHIVE,FCG='0614'O, MID = '02'O,ERR# = %E$NOT_ARCHIVE,SEV=2
PL6.E3A0      #001=FLE_DATA_D File=FLE_DATA_D.:E05TSI                            TUE 07/29/97 15:46 Page:48
              8183            , STCLASS = "CONSTANT SYMDEF" );
      334     8228        /*E*  ERROR: FLB-E$NOT_ARCHIVE-2
      335     8229             MESSAGE: %UF has not been archived
      336     8230        */
      337     8231       %VLP_ERRCODE(FPTN=E_FETCH_FIRST,FCG='0614'O, MID = '02'O,ERR# = %E$FETCH_FIRST,SEV=2
              8231            , STCLASS = "CONSTANT SYMDEF" );
      338     8276        /*E*  ERROR: FLB-E$FETCH_FIRST-2
      339     8277             MESSAGE: %UF is inactively archived...you must fetch it first
      340     8278             MESSAGE1: It can't be determined from available information if
      341     8279                       you're really allowed to unarchive this file.  The
      342     8280                       necessary information is contained in the file.
      343     8281        */
      344     8282
      345     8283        %VLP_ERRCODE(FPTN=E_UNARCHIVE_DENIED,FCG='0614'O, MID = '02'O,ERR# =
              8283            %E$UNARCHIVE_DENIED,SEV=2, STCLASS = "CONSTANT SYMDEF" );
      346     8328        /*E*  ERROR: FLB-E$UNARCHIVE_DENIED-2
      347     8329             MESSAGE: You can't unarchive %UF
      348     8330             MESSAGE1: You don't have FMSEC and you're not its creator.
      349     8331        */
      350     8332
      351     8333       %VLP_ERRCODE(FPTN=E_UNARCHIVE_DONE,FCG='0614'O, MID = '02'O,ERR# = %E$UNARCHIVE_DONE
              8333            ,SEV=2, STCLASS = "CONSTANT SYMDEF" );
      352     8378        /*E*  ERROR: FLB-E$UNARCHIVE_DONE-2
      353     8379             MESSAGE: %UF unarchived
      354     8380        */
      355     8381        %VLP_ERRCODE(FPTN=E_NO_CODE4,FCG='0614'O, MID = '02'O,ERR# = %E$NO_CODE4,SEV=2,
              8381            STCLASS = "CONSTANT SYMDEF" );
      356     8426        /*E*  ERROR: FLB-E$NO_CODE4-2
      357     8427             MESSAGE: CODE04 missing from FIT of %UF
      358     8428        */
      359     8429
      360     8430       %VLP_ERRCODE(FPTN=E_UNFETCH_DENIED,FCG='0614'O, MID = '02'O,ERR# = %E$UNFETCH_DENIED
              8430            ,SEV=2, STCLASS = "CONSTANT SYMDEF" );
      361     8475        /*E*  ERROR: FLB-E$UNFETCH_DENIED-2
      362     8476             MESSAGE: You can't unfetch %UF
      363     8477             MESSAGE1: You don't have FMSEC and you're not its creator.
      364     8478        */
PL6.E3A0      #001=FLE_DATA_D File=FLE_DATA_D.:E05TSI                            TUE 07/29/97 15:46 Page:49
      365     8479
      366     8480        %VLP_ERRCODE(FPTN=E_NOT_FETCH,FCG='0614'O, MID = '02'O,ERR# = %E$NOT_FETCH,SEV=2,
              8480            STCLASS = "CONSTANT SYMDEF" );
      367     8525        /*E*  ERROR: FLB-E$NOT_FETCH-2
      368     8526             MESSAGE: %UF has no fetch request outstanding
      369     8527        */
      370     8528
      371     8529       %VLP_ERRCODE(FPTN=E_UNFETCH_DONE,FCG='0614'O, MID = '02'O,ERR# = %E$UNFETCH_DONE,SEV
              8529            =2, STCLASS = "CONSTANT SYMDEF" );
      372     8574        /*E*  ERROR: FLB-E$UNFETCH_DONE-2
      373     8575             MESSAGE: %UF unfetched
      374     8576        */
      375     8577
      376     8578       %VLP_ERRCODE(FPTN=E_FETCH_DENIED,FCG='0614'O, MID = '02'O,ERR# = %E$FETCH_DENIED,SEV
              8578            =2, STCLASS = "CONSTANT SYMDEF" );
      377     8623        /*E*  ERROR: FLB-E$FETCH_DENIED-2
      378     8624             MESSAGE: You can't fetch %UF
      379     8625             MESSAGE1: You don't have FMSEC and you're not its creator.
      380     8626        */
      381     8627
      382     8628        %VLP_ERRCODE(FPTN=E_FETCH_DONE,FCG='0614'O, MID = '02'O,ERR# = %E$FETCH_DONE,SEV=2,
              8628            STCLASS = "CONSTANT SYMDEF" );
      383     8673        /*E*  ERROR: FLB-E$FETCH_DONE-2
      384     8674             MESSAGE: %UF queued for retrieval
      385     8675        */
      386     8676
      387     8677        %VLP_ERRCODE(FPTN=E_NO_CODE3,FCG='0614'O, MID = '02'O,ERR# = %E$NO_CODE3,SEV=2,
              8677            STCLASS = "CONSTANT SYMDEF" );
      388     8722        /*E*  ERROR: FLB-E$NO_CODE3-2
      389     8723             MESSAGE: CODE03 missing from FIT of %UF
      390     8724        */
      391     8725
      392     8726
      393     8727        %VLP_ERRCODE(FPTN=E_NEED_TIME,FCG='0614'O, MID = '02'O,ERR# = %E$NEED_TIME,SEV=2,
              8727            STCLASS = "CONSTANT SYMDEF" );
      394     8772        /*E*  ERROR: FLB-E$NEED_TIME-2
      395     8773             MESSAGE: REQUALIFY requires a time constraint
PL6.E3A0      #001=FLE_DATA_D File=FLE_DATA_D.:E05TSI                            TUE 07/29/97 15:46 Page:50
      396     8774             MESSAGE1: Either CREATED, MODIFIED, ACCESSED, BACKED UP, or ARCHIVED
      397     8775        */
      398     8776
      399     8777        %VLP_ERRCODE(FPTN=E_TRY_AGAIN,FCG='0614'O, MID = '02'O,ERR# = %E$TRY_AGAIN,SEV=2,
              8777            STCLASS = "CONSTANT SYMDEF" );
      400     8822        /*E*  ERROR: FLB-E$TRY_AGAIN-2
      401     8823             MESSAGE: Please take corrective action and try again
      402     8824        */
      403     8825
      404     8826        %VLP_ERRCODE(FPTN=E_CAT_OFF,FCG='0614'O, MID = '02'O,ERR# = %E$CAT_OFF,SEV=2,
              8826            STCLASS = "CONSTANT SYMDEF" );
      405     8871        /*E*  ERROR: FLB-E$CAT_OFF-2
      406     8872             MESSAGE: Cataloging is already off
      407     8873        */
      408     8874
      409     8875       %VLP_ERRCODE(FPTN=E_MUST_CAT_OFF,FCG='0614'O, MID = '02'O,ERR# = %E$MUST_CAT_OFF,SEV
              8875            =2, STCLASS = "CONSTANT SYMDEF" );
      410     8920        /*E*  ERROR: FLB-E$MUST_CAT_OFF-2
      411     8921             MESSAGE: Switching from catalog file %UF
      412     8922        */
      413     8923
      414     8924        %VLP_ERRCODE(FPTN=E_MUST_CAT_DISK,FCG='0614'O, MID = '02'O,ERR# = %E$MUST_CAT_DISK,
              8924            SEV=2, STCLASS = "CONSTANT SYMDEF" );
      415     8969        /*E*  ERROR: FLB-E$MUST_CAT_DISK-2
      416     8970             MESSAGE: The catalog must be a disk file
      417     8971        */
      418     8972
      419     8973        %VLP_ERRCODE(FPTN=E_NO_CATALOG,FCG='0614'O, MID = '02'O,ERR# = %E$NO_CATALOG,SEV=2,
              8973            STCLASS = "CONSTANT SYMDEF" );
      420     9018        /*E*  ERROR: FLB-E$NO_CATALOG-2
      421     9019             MESSAGE: No catalog file has been specified
      422     9020        */
      423     9021
      424     9022       %VLP_ERRCODE(FPTN=E_NOT_CAT_FILE,FCG='0614'O, MID = '02'O,ERR# = %E$NOT_CAT_FILE,SEV
              9022            =2, STCLASS = "CONSTANT SYMDEF" );
      425     9067        /*E*  ERROR: FLB-E$NOT_CAT_FILE-2
      426     9068             MESSAGE: This file doesn't look like a catalog file
PL6.E3A0      #001=FLE_DATA_D File=FLE_DATA_D.:E05TSI                            TUE 07/29/97 15:46 Page:51
      427     9069        */
      428     9070
      429     9071        %VLP_ERRCODE(FPTN=E_NOTHING_FOUND,FCG='0614'O, MID = '02'O,ERR# = %E$NOTHING_FOUND,
              9071            SEV=2, STCLASS = "CONSTANT SYMDEF" );
      430     9116        /*E*  ERROR: FLB-E$NOTHING_FOUND-2
      431     9117             MESSAGE: Nothing found
      432     9118        */
      433     9119
      434     9120        %VLP_ERRCODE(FPTN=E_FILE_NAME,FCG='0614'O, MID = '02'O,ERR# = %E$FILE_NAME,SEV=2,
              9120            STCLASS = "CONSTANT SYMDEF" );
      435     9165        /*E*  ERROR: FLB-E$FILE_NAME-2
      436     9166             MESSAGE: File is %UF
      437     9167        */
      438     9168
      439     9169        %VLP_ERRCODE(FPTN=E_MUST_BE_CAT_FILE,FCG='0614'O, MID = '02'O,ERR# =
              9169            %E$MUST_BE_CAT_FILE,SEV=2, STCLASS = "CONSTANT SYMDEF" );
      440     9214        /*E*  ERROR: FLB-E$MUST_BE_CAT_FILE-2
      441     9215             MESSAGE: That's no catalog file
      442     9216             MESSAGE1: Catalog files are KEYED and have a type of CF.
      443     9217        */
      444     9218
      445     9219        %VLP_ERRCODE(FPTN=E_NO_PREVIOUS_SAVE,FCG='0614'O, MID = '02'O,ERR# =
              9219            %E$NO_PREVIOUS_SAVE,SEV=2, STCLASS = "CONSTANT SYMDEF" );
      446     9264        /*E*  ERROR: FLB-E$NO_PREVIOUS_SAVE-2
      447     9265             MESSAGE: No previous SAVE, BACKUP, or ARCHIVE to CHECK; specify serial numbers
      448     9266             MESSAGE1: Catalog files are KEYED and have a type of CF.
      449     9267        */
      450     9268
      451     9269        %VLP_ERRCODE(FPTN=E_DEL_FILES_REMAIN,FCG='0614'O, MID = '02'O,ERR# =
              9269            %E$DEL_FILES_REMAIN,SEV=2, STCLASS = "CONSTANT SYMDEF" );
      452     9314        /*E*  ERROR: FLB-E$DEL_FILES_REMAIN-2
      453     9315             MESSAGE: Some files have not been cleaned up or inactivated to
      454     9316                      permit recovery from the previous error by requalifying
      455     9317        */
      456     9318
      457     9319        %VLP_ERRCODE(FPTN=E_ALREADY_ESTABLISH,FCG='0614'O, MID = '02'O,ERR# =
              9319            %E$ALREADY_ESTABLISH,SEV=2, STCLASS = "CONSTANT SYMDEF" );
PL6.E3A0      #001=FLE_DATA_D File=FLE_DATA_D.:E05TSI                            TUE 07/29/97 15:46 Page:52
      458     9364        /*E*  ERROR: FLB-E$ALREADY_ESTABLISH-2
      459     9365             MESSAGE: Archive is already established for DP#%SN
      460     9366        */
      461     9367
      462     9368        %VLP_ERRCODE(FPTN=E_NOT_ARCHIVE_MASTER,FCG='0614'O, MID = '02'O,ERR# =
              9368            %E$NOT_ARCHIVE_MASTER,SEV=2, STCLASS = "CONSTANT SYMDEF" );
      463     9413        /*E*  ERROR: FLB-E$NOT_ARCHIVE_MASTER-2
      464     9414             MESSAGE: DP#%SN is not the master of an archive set
      465     9415        */
      466     9416
      467     9417        %VLP_ERRCODE(FPTN=E_NOT_MEMBER_OF_ARCHIVE,FCG='0614'O, MID = '02'O,ERR# =
              9417            %E$NOT_MEMBER_OF_ARCHIVE,SEV=2, STCLASS = "CONSTANT SYMDEF" );
      468     9462        /*E*  ERROR: FLB-E$NOT_MEMBER_OF_ARCHIVE-2
      469     9463             MESSAGE: DP#xxx is not the member of the archive set
      470     9464        */
      471     9465
      472     9466        %VLP_ERRCODE(FPTN=E_MEMBER_OF_ARCHIVE,FCG='0614'O, MID = '02'O,ERR# =
              9466            %E$MEMBER_OF_ARCHIVE,SEV=2, STCLASS = "CONSTANT SYMDEF" );
      473     9511        /*E*  ERROR: FLB-E$MEMBER_OF_ARCHIVE-2
      474     9512             MESSAGE: DP#%SN is the member of the archive set
      475     9513        */
      476     9514
      477     9515        %VLP_ERRCODE(FPTN=E_ARCFILE_REMOVED,FCG='0614'O, MID = '02'O,ERR# =
              9515            %E$ARCFILE_REMOVED,SEV=2, STCLASS = "CONSTANT SYMDEF" );
      478     9560        /*E*  ERROR: FLB-E$ARCFILE_REMOVED-2
      479     9561             MESSAGE: :ARCHIVE.$$EFT removed from DP#%SN
      480     9562        */
      481     9563
      482     9564        %VLP_ERRCODE ( FPTN=E_REMOVE_FROM_ARCHIVE,FCG='0614'O, MID = '02'O, ERR# =
              9564            %E$REMOVE_FROM_ARCHIVE, SEV = 2, STCLASS = "CONSTANT SYMDEF" );
      483     9609        /*E*  ERROR: FLB-E$REMOVE_FROM_ARCHIVE-2
      484     9610             MESSAGE: Member packset successfully removed from archive
      485     9611        */
      486     9612
      487     9613        %VLP_ERRCODE ( FPTN = E_NO_ARCFILE, FCG='0614'O, MID = '02'O, ERR# = %E$NO_ARCFILE,
              9613            SEV = 2, STCLASS = "CONSTANT SYMDEF" );
      488     9658        /*E*  ERROR: FLB-E$NO_ARCFILE-2
PL6.E3A0      #001=FLE_DATA_D File=FLE_DATA_D.:E05TSI                            TUE 07/29/97 15:46 Page:53
      489     9659             MESSAGE: Can't find :ARCHIVE.$$EFT on DP#%SN
      490     9660        */
      491     9661
      492     9662        %VLP_ERRCODE(FPTN = E_NUM_ARCHIVE_SETS,FCG='0614'O, MID = '02'O,ERR# =
              9662            %E$NUM_ARCHIVE_SETS,SEV=2, STCLASS = "CONSTANT SYMDEF" );
      493     9707        /*E*  ERROR: FLB-E$NUM_ARCHIVE_SETS-2
      494     9708             MESSAGE: You must specify the same number of tapesets/optical disksets
      495     9709                      as was originally specified on the ESTABLISH command.
      496     9710        */
      497     9711
      498     9712        %VLP_ERRCODE ( FPTN = E_WIPEOUT_SOURCE, FCG='0614'O, MID='02'O,ERR# =
              9712            %E$WIPEOUT_SOURCE, SEV = 2, STCLASS = "CONSTANT SYMDEF" );
      499     9757        /*E* ERROR: FLB-E$WIPEOUT_SOURCE-2
      500     9758             MESSAGE: UPDATE, TRANSFER and UNPROTECTED will delete your source.
      501     9759             MESSAGE1:  Try again with destination specified.
      502     9760        */
      503     9761        %VLP_ERRCODE ( FPTN = E_TOO_MANY_ERRORS_TO_SWITCH, FCG='0614'O, MID='02'O,ERR# =
              9761            %E$TOO_MANY_ERRORS_TO_SWITCH,SEV=2,
      504     9762        STCLASS = "CONSTANT SYMDEF" );
      505     9807        /*E* ERROR: FLB-E$TOO_MANY_ERRORS_TO_SWITCH-2
      506     9808             MESSAGE: Too many errors to SWITCH.
      507     9809        */
      508     9810
      509     9811        %VLP_ERRCODE(FPTN=E_REMOVE_MASTER_PACKSET,FCG='0614'O, MID = '02'O,ERR# =
              9811            %E$REMOVE_MASTER_PACKSET,SEV=2, STCLASS = "CONSTANT SYMDEF" );
      510     9856        /*E*  ERROR: FLB-E$REMOVE_MASTER_PACKSET-2
      511     9857             MESSAGE: Master packset DP#%SN is removed from the archive system.
      512     9858        */
      513     9859
      514     9860        %VLP_ERRCODE(FPTN=E_TYPE_ARCHIVE_SET,FCG='0614'O, MID = '02'O,ERR# =
              9860            %E$TYPE_ARCHIVE_SET,SEV=2, STCLASS = "CONSTANT SYMDEF" );
      515     9905        /*E*  ERROR: FLB-E$TYPE_ARCHIVE_SET-2
      516     9906             MESSAGE: Unable to modify :ARCHIVE.$$EFT - the existing type of archive
      517     9907                      file differs from that specified on the command.
      518     9908        */
      519     9909
      520     9910        %VLP_ERRCODE(FPTN=E_CANT_SPECIFY_DELF,FCG='0614'O,MID='02'O,ERR# =
PL6.E3A0      #001=FLE_DATA_D File=FLE_DATA_D.:E05TSI                            TUE 07/29/97 15:46 Page:54
              9910            %E$CANT_SPECIFY_DELF,SEV=2,STCLASS = "CONSTANT SYMDEF" );
      521     9955        /*E*  ERROR: FLB-E$CANT_SPECIFY_DELF-2
      522     9956              MESSAGE: DELF is illegal with this command
      523     9957        */
      524     9958
      525     9959        %VLP_ERRCODE(FPTN=E_CANT_SPECIFY_ANYF,FCG='0614'O,MID='02'O,ERR# =
              9959            %E$CANT_SPECIFY_ANYF,SEV=2,STCLASS = "CONSTANT SYMDEF" );
      526    10004        /*E*  ERROR: FLB-E$CANT_SPECIFY_ANYF-2
      527    10005              MESSAGE: ANYF is illegal with this command
      528    10006        */
      529    10007
      530    10008       %VLP_ERRCODE(FPTN=E_CANT_SPECIFY_QF,FCG='0614'O,MID='02'O,ERR# = %E$CANT_SPECIFY_QF,
             10008            SEV=2,STCLASS = "CONSTANT SYMDEF" );
      531    10053        /*E*  ERROR: FLB-E$CANT_SPECIFY_QF-2
      532    10054              MESSAGE: QF is illegal with this command
      533    10055        */
      534    10056
      535    10057        %VLP_ERRCODE(FPTN=E_CANT_SPECIFY_DIR,FCG='0614'O,MID='02'O,ERR# =
             10057            %E$CANT_SPECIFY_DIR,SEV=2,STCLASS = "CONSTANT SYMDEF" );
      536    10102        /*E*  ERROR: FLB-E$CANT_SPECIFY_DIR-2
      537    10103              MESSAGE: DIR is illegal with this command
      538    10104        */
      539    10105
      540    10106        %VLP_ERRCODE(FPTN=E_CANT_SPECIFY_PAD,FCG='0614'O,MID='02'O,ERR# =
             10106            %E$CANT_SPECIFY_PAD,SEV=2,STCLASS = "CONSTANT SYMDEF" );
      541    10151        /*E*  ERROR: FLB-E$CANT_SPECIFY_PAD-2
      542    10152              MESSAGE: PAD is illegal with this command
      543    10153        */
      544    10154
      545    10155        %VLP_ERRCODE(FPTN=E_CANT_SPECIFY_DEL_ACC,FCG='0614'O,MID='02'O,ERR# =
             10155            %E$CANT_SPECIFY_DEL_ACC,SEV=2,STCLASS = "CONSTANT SYMDEF" );
      546    10200        /*E*  ERROR: FLB-E$CANT_SPECIFY_DEL_ACC-2
      547    10201              MESSAGE: DELETED ACCOUNTS is illegal with this command
      548    10202        */
      549    10203
      550    10204        %VLP_ERRCODE(FPTN=E_CANT_SPECIFY_CLEANUP,FCG='0614'O,MID='02'O,ERR# =
             10204            %E$CANT_SPECIFY_CLEANUP,SEV=2,STCLASS = "CONSTANT SYMDEF" );
PL6.E3A0      #001=FLE_DATA_D File=FLE_DATA_D.:E05TSI                            TUE 07/29/97 15:46 Page:55
      551    10249        /*E*  ERROR: FLB-E$CANT_SPECIFY_CLEANUP-2
      552    10250              MESSAGE: CLEANUP is illegal with this command
      553    10251        */
      554    10252
      555    10253        %VLP_ERRCODE(FPTN=E_CANT_SPECIFY_ACUP,FCG='0614'O,MID='02'O,ERR# =
             10253            %E$CANT_SPECIFY_ACUP,SEV=2,STCLASS = "CONSTANT SYMDEF" );
      556    10298        /*E*  ERROR: FLB-E$CANT_SPECIFY_ACUP-2
      557    10299              MESSAGE: ACUP is illegal with this command
      558    10300        */
      559    10301
      560    10302        %VLP_ERRCODE(FPTN=E_CANT_SPECIFY_SCRUB,FCG='0614'O,MID='02'O,ERR# =
             10302            %E$CANT_SPECIFY_SCRUB,SEV=2,STCLASS = "CONSTANT SYMDEF" );
      561    10347        /*E*  ERROR: FLB-E$CANT_SPECIFY_SCRUB-2
      562    10348              MESSAGE: SCRUB is illegal with this command
      563    10349        */
      564    10350
      565    10351        %VLP_ERRCODE(FPTN=E_CANT_SPECIFY_IDS,FCG='0614'O,MID='02'O,ERR# =
             10351            %E$CANT_SPECIFY_IDS,SEV=2,STCLASS = "CONSTANT SYMDEF" );
      566    10396        /*E*  ERROR: FLB-E$CANT_SPECIFY_IDS-2
      567    10397              MESSAGE: IDS is illegal with this command
      568    10398        */
      569    10399
      570    10400        %VLP_ERRCODE(FPTN=E_CANT_SPECIFY_DENSITY,FCG='0614'O,MID='02'O,ERR# =
             10400            %E$CANT_SPECIFY_DENSITY,SEV=2,STCLASS = "CONSTANT SYMDEF" );
      571    10445        /*E*  ERROR: FLB-E$CANT_SPECIFY_DENSITY-2
      572    10446              MESSAGE: DENSITY is illegal for optical disk
      573    10447        */
      574    10448
      575    10449        %VLP_ERRCODE(FPTN=E_CANT_SPECIFY_EXPIRE,FCG='0614'O,MID='02'O,ERR# =
             10449            %E$CANT_SPECIFY_EXPIRE,SEV=2,STCLASS = "CONSTANT SYMDEF" );
      576    10494        /*E*  ERROR: FLB-E$CANT_SPECIFY_EXPIRE-2
      577    10495              MESSAGE: EXPIRE is illegal for optical disk
      578    10496        */
      579    10497
      580    10498        %VLP_ERRCODE(FPTN=E_CANT_SPECIFY_SHARED,FCG='0614'O,MID='02'O,ERR# =
             10498            %E$CANT_SPECIFY_SHARED,SEV=2,STCLASS = "CONSTANT SYMDEF" );
      581    10543        /*E*  ERROR: FLB-E$CANT_SPECIFY_SHARED-2
PL6.E3A0      #001=FLE_DATA_D File=FLE_DATA_D.:E05TSI                            TUE 07/29/97 15:46 Page:56
      582    10544              MESSAGE: SHARED is illegal with this command
      583    10545        */
      584    10546
      585    10547        %VLP_ERRCODE(FPTN=E_RETURN_TO_COMMAND,FCG='0614'O,MID='02'O,ERR# =
             10547            %E$RETURN_TO_COMMAND,SEV=2,STCLASS = "CONSTANT SYMDEF" );
      586    10592        /*E*  ERROR: FLB-E$RETURN_TO_COMMAND-2
      587    10593              MESSAGE: You are doing tranferring or transporting, use CLOSE
      588    10594                       subcommand to return to the command level to enter
      589    10595                       the command you want.
      590    10596        */
      591    10597
      592    10598        %VLP_ERRCODE(FPTN=E_ARCHIVE_OUT_TAPESET,FCG='0614'O,MID='02'O,ERR# =
             10598            %E$ARCHIVE_OUT_TAPESET,SEV=2,STCLASS = "CONSTANT SYMDEF" );
      593    10643        /*E*  ERROR: FLB-E$ARCHIVE_OUT_TAPESET-2
      594    10644              MESSAGE: Out of tapeset/optical diskset. Use either MODIFY command
      595    10645                       or specify tapeset/optical diskset to get the new
      596    10646                       tapeset/optical diskset.
      597    10647        */
      598    10648        %VLP_ERRCODE(FPTN=E_CANT_OPEN_TBACKUP,FCG='0614'O,MID='02'O,ERR#=
             10648            %E$CANT_OPEN_TBACKUP,SEV=2,STCLASS="CONSTANT SYMDEF");
      599    10693        /*E* ERROR: FLB-E$CANT_OPEN_TBACKUP-2
      600    10694             MESSAGE: Can't find :BACKUP.$$EFT on LT#%SN
      601    10695             MESSAGE1: Try again after specifying the correct tape and FSN.
      602    10696        */
      603    10697        %VLP_ERRCODE(FPTN=E_REBUILD_CONTINUE,FCG='0614'O,MID='02'O,ERR# =
             10697            %E$REBUILD_CONTINUE,SEV=2,STCLASS = "CONSTANT SYMDEF" );
      604    10742        /*E* ERROR: FLB-E$REBUILD_CONTINUE-2
      605    10743             MESSAGE: Note that the previous rebuild operation for this packset
      606    10744                      did not go to completion. Your packset rebuilding will
      607    10745                      continue from the point of interruption. Should you desire
      608    10746                      a complete rebuild of this packset, it may be initiated
      609    10747                      by first deleting the :REBUILD.$$EFT file before executing
      610    10748                      the REBUILD command.
      611    10749        */
      612    10750       %VLP_ERRCODE(FPTN = E_BAD_TAPE_FILE,FCG='0614'O, MID = '02'O,ERR# = %E$BAD_TAPE_FILE
             10750            ,SEV=2, STCLASS = "CONSTANT SYMDEF" );
      613    10795        /*E*  ERROR: FLB-E$BAD_TAPE_FILE-2
PL6.E3A0      #001=FLE_DATA_D File=FLE_DATA_D.:E05TSI                            TUE 07/29/97 15:46 Page:57
      614    10796             MESSAGE: Due to the preceding error, %UF could not be reliably copied
      615    10797                      and may exist on tape/optical disk as a partial file.
      616    10798        */
      617    10799        %VLP_ERRCODE(FPTN=E_WRONG_DUAL,FCG='0614'O,ERR#=%E$WRONG_DUAL,MID='23'O,SEV=2,
             10799            STCLASS="CONSTANT SYMDEF");
      618    10844        /*E* ERROR: FLS-E$WRONG_DUAL-2
      619    10845             MESSAGE: The destination packset is not the proper dual
      620    10846             MESSAGE1: The source (prime) packset does have a dual, but it
      621    10847                       isn't this destination packset
      622    10848        */
      623    10849        %VLP_ERRCODE(FPTN=E_WRONG_PRIME,FCG='0614'O,ERR#=%E$WRONG_PRIME,MID='23'O,SEV=2,
             10849            STCLASS="CONSTANT SYMDEF");
      624    10894        /*E* ERROR: FLS-E$WRONG_PRIME-2
      625    10895             MESSAGE: The source packset is not the proper prime
      626    10896             MESSAGE1: The destination (dual) packset does have a prime, but it
      627    10897                       isn't this source packset
      628    10898        */
      629    10899        %VLP_ERRCODE(FPTN=E_BLOCK_LIMIT,FCG='0614'O,ERR#=%E$BLOCK_LIMIT,MID='23'O,SEV=2,
             10899            STCLASS="CONSTANT SYMDEF");
      630    10944        /*E* ERROR: FLS-E$BLOCK_LIMIT
      631    10945             MESSAGE: BLOCK must not exceed 21
      632    10946             MESSAGE1: Large tape/optical disk block sizes, while conserving
      633    10947                       physical tape/optical disk generally result in substantially
      634    10948                       more I/O errors.
      635    10949        */
      636    10950       %VLP_ERRCODE(FPTN=E_NOT_SCRATCH_PACK,FCG='0614'O,MID='15'O,ERR#=%E$NOT_SCRATCH_PACK,
             10950            SEV=2,STCLASS="CONSTANT SYMDEF");
      637    10995        /*E* ERROR: FLM-E$NOT_SCRATCH_PACK-2
      638    10996             MESSAGE: Specified DUAL pack is not a scratch pack
      639    10997        */
      640    10998       %VLP_ERRCODE(FPTN=E_CANT_RUN_EFT,FCG='0614'O,MID='02'O,ERR# = %E$CANT_RUN_EFT,SEV=2,
             10998            STCLASS = "CONSTANT SYMDEF" );
      641    11043        /*E*  ERROR: FLB-E$CANT_RUN_EFT-2
      642    11044              MESSAGE: You need EFT processor privilege to run EFT
      643    11045        */
      644    11046        %VLP_ERRCODE(FPTN=E_CANT_RUN_ARCOM,FCG='0614'O,MID='02'O,ERR# = %E$CANT_RUN_ARCOM,
             11046            SEV=2,STCLASS = "CONSTANT SYMDEF" );
PL6.E3A0      #001=FLE_DATA_D File=FLE_DATA_D.:E05TSI                            TUE 07/29/97 15:46 Page:58
      645    11091        /*E*  ERROR: FLB-E$CANT_RUN_ARCOM-2
      646    11092              MESSAGE: You need EFT processor privilege to run ARCOM
      647    11093        */
      648    11094       %VLP_ERRCODE(FPTN=E_CANT_SAVE_FILE,FCG='0614'O,MID='15'O,ERR#=%E$CANT_SAVE_FILE,SEV=
             11094            2,STCLASS="CONSTANT SYMDEF");
      649    11139        /*E* ERROR: FLM-E$CANT_SAVE_FILE-2
      650    11140             MESSAGE: Can't save %UF; file attribute is NBACKUP
      651    11141        */
      652    11142       %VLP_ERRCODE(FPTN=E_BAD_BKUP_FILE,FCG='0614'O,MID='02'O,ERR#=%E$BAD_BKUP_FILE,SEV=2,
             11142            STCLASS="CONSTANT SYMDEF");
      653    11187        /*E* ERROR: FLB-E$BAD_BKUP_FILE-2
      654    11188             MESSAGE: %UF is not a valid :BACKUP file.
      655    11189        */
      656    11190        %VLP_ERRCODE(FPTN=E_NO_FSN,FCG='0614'O,MID='02'O,ERR#=%E$NO_FSN,SEV=2,STCLASS=
             11190            "CONSTANT SYMDEF");
      657    11235        /*E* ERROR: FLB-E$NO_FSN-2
      658    11236             MESSAGE: The FSN option must be specified in order to read the :BACKUP
      659    11237                      file from tape.
      660    11238        */
      661    11239        %VLP_ERRCODE(FPTN=E_BAD_FSN,FCG='0614'O,MID='02'O,ERR#=%E$BAD_FSN,SEV=2,STCLASS=
             11239            "CONSTANT SYMDEF");
      662    11284        /*E* ERROR: FLB-E$BAD_FSN-2
      663    11285             MESSAGE: The file found per the FSN specified is not named :BACKUP.
      664    11286             MESSAGE1: Try again after specifying the correct tape and FSN.
      665    11287        */
      666    11288        %VLP_ERRCODE(FPTN=E_ACTIVE_FETCH_DENIED,FCG='0614'O, MID = '02'O,ERR# =
             11288            %E$ACTIVE_FETCH_DENIED,SEV=2, STCLASS = "CONSTANT SYMDEF" );
      667    11333        /*E*  ERROR: FLB-E$ACTIVE_FETCH_DENIED-2
      668    11334             MESSAGE: You can't fetch %UF as it is archived actively; UNARCHIVE to use file
      669    11335        */
      670    11336        %VLP_ERRCODE(FPTN=E_NO_FILE,FCG='0614'O,MID='02'O,ERR# = %E$NO_FILE,SEV=2,STCLASS =
             11336            "CONSTANT SYMDEF" );
      671    11381        /*E*  ERROR: FLB-E$NO_FILE-2
      672    11382              MESSAGE: No file named
      673    11383        */
      674    11384        %VLP_ERRCODE(FPTN=E_CANT_FETCH,FCG='0614'O,MID='11'O,ERR#=%E$CANT_FETCH,SEV=2,
             11384            STCLASS="CONSTANT SYMDEF" );
PL6.E3A0      #001=FLE_DATA_D File=FLE_DATA_D.:E05TSI                            TUE 07/29/97 15:46 Page:59
      675    11429        /*E*  ERROR: FLI-E$CANT_FETCH-2
      676    11430              MESSAGE: Can't queue %UF for retrieval - packset DP#%SN
      677    11431                       disk space exhausted
      678    11432        */
      679    11433       %VLP_ERRCODE(FPTN=E_CANT_RETRIEVE,FCG='0614'O,MID='15'O,ERR#=%E$CANT_RETRIEVE,SEV=2,
             11433            STCLASS="CONSTANT SYMDEF" );
      680    11478        /*E*  ERROR: FLM-E$CANT_RETRIEVE-2
      681    11479              MESSAGE: Can't retrieve %UF - packset disk space exhausted
      682    11480        */
      683    11481        %VLP_ERRCODE(FPTN=E_BAD_GP,FCG='0614'O,MID='11'O,ERR#=%E$BAD_GP,SEV=2,STCLASS=
             11481            "CONSTANT SYMDEF" );
      684    11526        /*E*  ERROR: FLI-E$BAD_GP-2
      685    11527              MESSAGE: Bad granule pool for DP#%SN
      686    11528        */
      687    11529        %VLP_ERRCODE(FPTN=E_INCOMPLETE_FILE_ARCH,FCG='0614'O,MID='03'O,ERR#=
             11529            %E$INCOMPLETE_FILE_ARCH,SEV=2,STCLASS="CONSTANT SYMDEF" );
      688    11574        /*E*  ERROR: FLC-E$INCOMPLETE_FILE_ARCH-2
      689    11575              MESSAGE: Due to the preceding error, file %U1.%U2 could not be
      690    11576                       copied and other files following it on tape may have been
      691    11577                       skipped and remain archived on the source tape
      692    11578        */
      693    11579        %VLP_ERRCODE(FPTN=E_IO_ERR,FCG='0614'O,MID='03'O,ERR#=%E$IO_ERR,SEV=2,STCLASS=
             11579            "CONSTANT SYMDEF" );
      694    11624        /*E*  ERROR: FLC-E$IO_ERR-2
      695    11625              MESSAGE: Irrecoverable I/O error on tape %SN
      696    11626        */
      697    11627       %VLP_ERRCODE(FPTN=E_RETRIEVE_FIRST,FCG='0614'O,MID='02'O,ERR#=%E$RETRIEVE_FIRST,SEV=
             11627            2,STCLASS="CONSTANT SYMDEF" );
      698    11672        /*E*  ERROR: FLB-E$RETRIEVE_FIRST-2
      699    11673              MESSAGE: Cannot unarchive %UF - it must be retrieved first
      700    11674        */
      701    11675       %VLP_ERRCODE(FPTN=E_FILES_SKIPPED,FCG='0614'O,MID='03'O,ERR#=%E$FILES_SKIPPED,SEV=2,
             11675            STCLASS="CONSTANT SYMDEF" );
      702    11720        /*E*  ERROR: FLC-E$FILES_SKIPPED-2
      703    11721              MESSAGE: Due to the previous error, an indefinite number of files may
      704    11722                       have been skipped
      705    11723        */
PL6.E3A0      #001=FLE_DATA_D File=FLE_DATA_D.:E05TSI                            TUE 07/29/97 15:46 Page:60
      706    11724        %VLP_ERRCODE(FPTN=E_OPER_ABORT,FCG='0614'O,MID='11'O,ERR#=%E$OPER_ABORT,SEV=2,
             11724            STCLASS="CONSTANT SYMDEF" );
      707    11769        /*E*  ERROR: FLI-E$OPER_ABORT-2
      708    11770              MESSAGE: Job aborted by operator
      709    11771        */
      710    11772       %VLP_ERRCODE(FPTN=E_BAD_DP_FORMAT,FCG='0614'O,MID='02'O,ERR#=%E$BAD_DP_FORMAT,SEV=2,
             11772            STCLASS="CONSTANT SYMDEF");
      711    11817        /*E* ERROR: FLB-E$BAD_DP_FORMAT-2
      712    11818             MESSAGE: Bad DP format; nn portion of DPnn must be between 01 and 99
      713    11819        */
      714    11820
      715    11821        %VLP_ERRCODE(FPTN=E_NOT_ARCHIVE_UNSTOW,FCG='0614'O, MID='02'O,ERR#=
             11821            %E$NOT_ARCHIVE_UNSTOW,SEV=2, STCLASS="CONSTANT SYMDEF" );
      716    11866        /*E*  ERROR: FLB-E$NOT_ARCHIVE_UNSTOW-2
      717    11867             MESSAGE: %UF has not been archived - UNSTOW the file
      718    11868        */
      719    11869       %VLP_ERRCODE(FPTN=E_CLOSE_INVALID,FCG='0614'O,MID='02'O,ERR#=%E$CLOSE_INVALID,SEV=2,
             11869            STCLASS="CONSTANT SYMDEF" );
      720    11914        /*E*  ERROR: FLB-E$CLOSE_INVALID-2
      721    11915              MESSAGE: The CLOSE command is valid only when used in conjunction
      722    11916                       with the OPEN command to return to the EFT prompt level
      723    11917                       after the execution of a TRANSFER/TRANSPORT subcommand
      724    11918        */
      725    11919       %VLP_ERRCODE(FPTN=E_FILE_REWRITTEN,FCG='0614'O,MID='11'O,ERR#=%E$FILE_REWRITTEN,SEV=
             11919            2,STCLASS="CONSTANT SYMDEF" );
      726    11964        /*E*  ERROR: FLI-E$FILE_REWRITTEN-2
      727    11965              MESSAGE: Due to the preceding error, file %U1.%U2 was rewritten to LT#%U3
      728    11966        */
      729    11967        %VLP_ERRCODE(FPTN=E_INCOMPLETE_FILE_SKIP,FCG='0614'O,MID='11'O,ERR#=
             11967            %E$INCOMPLETE_FILE_SKIP,SEV=2,STCLASS="CONSTANT SYMDEF" );
      730    12012        /*E*  ERROR: FLI-E$INCOMPLETE_FILE_SKIP-2
      731    12013              MESSAGE: Incomplete file encountered and was skipped on tape %SN.
      732    12014        */
      733    12015        %VLP_ERRCODE(FPTN=E_DUP_TAPESET,FCG='0614'O,MID='02'O,ERR#=%E$DUP_TAPESET,SEV=2,
             12015            STCLASS="CONSTANT SYMDEF" );
      734    12060        /*E*  ERROR: FLB-E$DUP_TAPESET-2
      735    12061              MESSAGE: DUPLICATE TAPESET invalid if source tapeset is not specified.
PL6.E3A0      #001=FLE_DATA_D File=FLE_DATA_D.:E05TSI                            TUE 07/29/97 15:46 Page:61
      736    12062        */
      737    12063        %VLP_ERRCODE(FPTN=E_COMPACT_FIN,FCG='0614'O,MID='30'O,ERR#=%E$COMPACT_FIN,SEV=2,
             12063            STCLASS="CONSTANT SYMDEF" );
      738    12108        /*E*  ERROR: FLX-E$COMPACT_FIN-2
      739    12109              MESSAGE: Reading from source terminated - all archived files have been
      740    12110                       compacted.
      741    12111        */
      742    12112    1   END FLE_DATA_D;

PL6.E3A0      #001=FLE_DATA_D File=FLE_DATA_D.:E05TSI                            TUE 07/29/97 15:46 Page:62
--  Include file information  --

   FL_PERR_C.:E05TOU  is referenced.
   CP_6_C.:E05TOU  is referenced.
   CP_6.:E05TOU  cannot be made into a system file and is referenced.
      No diagnostics issued in procedure FLE_DATA_D.
PL6.E3A0      #001=FLE_DATA_D File=FLE_DATA_D.:E05TSI                            TUE 07/29/97 15:46 Page:63

 **** Variables and constants ****


   No code generated for procedure FLE_DATA_D .
   Procedure FLE_DATA_D is declared NOAUTO and requires 2 words of local(STATIC) storage.

    No errors detected in file FLE_DATA_D.:E05TSI    .
PL6.E3A0      #001=FLE_DATA_D File=FLE_DATA_D.:E05TSI                            TUE 07/29/97 15:46 Page:64
          *** CROSS REFERENCE LISTING ***
**     DENOTES     IDENTIFIER DEFINITION
<<                 IDENTIFIER'S VALUE SET
>>                 IDENTIFIER'S VALUE USED
<>                 IDENTIFIER SET AND/OR USED
--                 IDENTIFIER REFERENCED
PL6.E3A0      #001=FLE_DATA_D File=FLE_DATA_D.:E05TSI                            TUE 07/29/97 15:46 Page:65
          MINI XREF LISTING

