VERSION E05

PL6.E3A0      #001=FLI$ROLL_SNLISTS File=FLI$SNLIST.:E05TSI                      TUE 07/29/97 15:54 Page:1
        1        1        /*M* FLI$SNLIST - EFT I/O routines - serial number list processing */
        2        2        /*T***********************************************************/
        3        3        /*T*                                                         */
        4        4        /*T* Copyright (c) Bull HN Information Systems Inc., 1997    */
        5        5        /*T*                                                         */
        6        6        /*T***********************************************************/
        7        7        FLI$ROLL_SNLISTS: PROC;
        8        8        /*F*  NAME: FLI$ROLL_SNLISTS
        9        9              PURPOSE: Revise serial number lists by deleting all volumes
       10       10                 from initial to current; make the serial number just after
       11       11                 the current the new initial.
       12       12         */
       13       13
       14       14         /***
       15       15          *** INCLUDE
       16       16          ***/
       17       17
       18       18        %INCLUDE CP_6;
       19     5577        %INCLUDE FLI_DATA_R;
       20     6991        %INCLUDE FLS_DATA_R;
       21     8791
       22     8792         /***
       23     8793          *** AUTO
       24     8794          ***/
       25     8795
       26     8796    1   DCL FROMX SBIN AUTO;                    /* From index                         */
       27     8797    1   DCL TOX SBIN AUTO;                      /* To index                           */
       28     8798    1   DCL 1 SN_ AUTO,                         /* Current serial number list pointer */
       29     8799    1         2 * BIT(36),
       30     8800    1         2 SN$ PTR;
       31     8801    1   DCL SNX SBIN AUTO;                      /* Current serial number list index   */
       32     8802
       33     8803         /***
       34     8804          *** BASED
       35     8805          ***/
       36     8806
       37     8807        %F$DCB;
PL6.E3A0      #001=FLI$ROLL_SNLISTS File=FLI$SNLIST.:E05TSI                      TUE 07/29/97 15:54 Page:2
       38     8864        %VLP_SN( FPTN=VLP_SN,
       39     8865                 STCLASS="BASED(SN_.SN$)" );
       40     8878
       41     8879        /****************************************/
       42     8880
       43     8881         /***
       44     8882          *** Remove beginning portion of serial number list up to and
       45     8883          *** including the current serial number.
       46     8884          ***/
       47     8885
       48     8886    2      DO SNX=0 TO NBR_SNLISTS-1;
       49     8887    2         SN_ = SNVECLIST.SN_(SNX);
       50     8888    2         TOX = 0;
       51     8889    3         DO FROMX = TAPE_DCBLIST.DCB$(0)->F$DCB.VOL# TO VLP_SN.NUM#-1;
       52     8890    3            VLP_SN.SN#(TOX) = VLP_SN.SN#(FROMX);
       53     8891    3            TOX = TOX + 1;
       54     8892    3            END;
       55     8893    2         VLP_SN.NUM# = VLP_SN.NUM# - TAPE_DCBLIST.DCB$(0)->F$DCB.VOL#;
       56     8894    2         END;
       57     8895
       58     8896    1      TSN_SET_NBR = TSN_SET_NBR + 1;
       59     8897    1      TSN_VOL = 0;
       60     8898    1      LAST_TSN_USED = ' ';
       61     8899
       62     8900    1      RETURN;
       63     8901
       64     8902    1   END FLI$ROLL_SNLISTS;

PL6.E3A0      #001=FLI$ROLL_SNLISTS File=FLI$SNLIST.:E05TSI                      TUE 07/29/97 15:54 Page:3
--  Include file information  --

   FLS_DATA_R.:E05TOU  cannot be made into a system file and is referenced.
   B_MICROPS_C.:E05TOU  is referenced.
   FLB_SUBS_C.:E05TOU  is referenced.
   FLI_DATA_R.:E05TOU  cannot be made into a system file and is referenced.
   CP_6_C.:E05TOU  is referenced.
   CP_6.:E05TOU  cannot be made into a system file and is referenced.
      No diagnostics issued in procedure FLI$ROLL_SNLISTS.

   Procedure FLI$ROLL_SNLISTS requires 51 words for executable code.
   Procedure FLI$ROLL_SNLISTS requires 10 words of local(AUTO) storage.

    No errors detected in file FLI$SNLIST.:E05TSI    .

PL6.E3A0      #001=FLI$ROLL_SNLISTS File=FLI$SNLIST.:E05TSI                      TUE 07/29/97 15:54 Page:4

 Object Unit name= FLI$ROLL_SNLISTS                           File name= FLI$SNLIST.:E05TOU
 UTS= JUL 29 '97 15:54:31.16 TUE                              Compiler= PL-6/E31         Sev=      00
 SharedLib= :SHARED_SYSTEM                                    Alt SharedLib=


    ****  Control sections  ****

 Sect   Type Bound  Init  Size OctSiz  Section name(segment info)
    0   DCB   even  none     0      0  M$UC
    1   DCB   even  none     0      0  M$PRE_RET
    2   Data  even  none    20     24  FLI$ROLL_SNLISTS
    3   DCB   even  none     0      0  M$TSN_USED
    4   DCB   even  none     0      0  M$STATUS
    5   DCB   even  none     0      0  M$REBUILD
    6   DCB   even  none     0      0  M$ARCHIVE
    7   DCB   even  none     0      0  M$NODATA_LIST
    8   Proc  even  none    51     63  FLI$ROLL_SNLISTS

    ****  Entry defs  ****

                              Check   Calling
                             calling  sequence
  Sect OctLoc Primary Altret sequence   type   Parms  Name
     8      0   yes            yes      Std        0  FLI$ROLL_SNLISTS

  ****  Entry refs  ****

         Check        Calling
        calling       sequence
Altret sequence SRef   type   Args  Name
                       nStd      0 X66_AUTO_0
                       Std       0 B_CONSPOOL_D
                       nStd      0 X66_ARET
PL6.E3A0      #001=FLI$ROLL_SNLISTS File=FLI$SNLIST.:E05TSI                      TUE 07/29/97 15:54 Page:5

  ****  Data refs  ****

  Flags:  r = read only, s = secondary
Flgs Name                             Flgs Name                             Flgs Name
     M$UC                                  NBR_SNLISTS                           TAPE_DCBLIST$
     SNVECLIST$                            DPLIST$                               DPRESLIST$
     DISK_FILE_SPEC$                       SPECCHARS                             EFTWORD
     M$PRE_RET                             RET_CMDS_NAME                         M$TSN_USED
     M$STATUS                              M$REBUILD                             M$ARCHIVE
     M$NODATA_LIST                         BLK_TAG$                              BLK_TAG0$
     NBR_BYTES_TO_MOVE                     DISK_GRAN$                            BLOCK_GRAN$
r    EFT_CVOL_FILE                    r    EFT_RESTRICT_FILE                     LAST_TSN_USED
     TSN_SET_NBR                           TSN_VOL                               TSN_USED_NAME
     BACKUP_NAME                      r    ARCHIVE_NAME                     r    PRIME_FILE
r    DUAL_FILE                             REBUILD_NAME                          REBUILD_DIR_KEY
     REBUILD_KEY                           NODATA_FILE_NAME                      NODATA_KEY
     B_VECTNIL

  ****  Segment refs  ****

  Flags:  r = read only, s = secondary
Flgs Name                             Flgs Name                             Flgs Name
     ISSID                                 NULLSID
PL6.E3A0      #001=FLI$ROLL_SNLISTS File=FLI$SNLIST.:E05TSI                      TUE 07/29/97 15:54 Page:6


        1        1        /*M* FLI$SNLIST - EFT I/O routines - serial number list processing */
        2        2        /*T***********************************************************/
        3        3        /*T*                                                         */
        4        4        /*T* Copyright (c) Bull HN Information Systems Inc., 1997    */
        5        5        /*T*                                                         */
        6        6        /*T***********************************************************/
        7        7        FLI$ROLL_SNLISTS: PROC;

      7  8 000000   000000 700200 xent  FLI$ROLL_SN* TSX0  ! X66_AUTO_0
         8 000001   000012 000000                    ZERO    10,0

        8        8        /*F*  NAME: FLI$ROLL_SNLISTS
        9        9              PURPOSE: Revise serial number lists by deleting all volumes
       10       10                 from initial to current; make the serial number just after
       11       11                 the current the new initial.
       12       12         */
       13       13
       14       14         /***
       15       15          *** INCLUDE
       16       16          ***/
       17       17
       18       18        %INCLUDE CP_6;
       19     5577        %INCLUDE FLI_DATA_R;
       20     6991        %INCLUDE FLS_DATA_R;
       21     8791
       22     8792         /***
       23     8793          *** AUTO
       24     8794          ***/
       25     8795
       26     8796    1   DCL FROMX SBIN AUTO;                    /* From index                         */
       27     8797    1   DCL TOX SBIN AUTO;                      /* To index                           */
       28     8798    1   DCL 1 SN_ AUTO,                         /* Current serial number list pointer */
       29     8799    1         2 * BIT(36),
       30     8800    1         2 SN$ PTR;
       31     8801    1   DCL SNX SBIN AUTO;                      /* Current serial number list index   */
       32     8802
PL6.E3A0      #001=FLI$ROLL_SNLISTS File=FLI$SNLIST.:E05TSI                      TUE 07/29/97 15:54 Page:7
       33     8803         /***
       34     8804          *** BASED
       35     8805          ***/
       36     8806
       37     8807        %F$DCB;
       38     8864        %VLP_SN( FPTN=VLP_SN,
       39     8865                 STCLASS="BASED(SN_.SN$)" );
       40     8878
       41     8879        /****************************************/
       42     8880
       43     8881         /***
       44     8882          *** Remove beginning portion of serial number list up to and
       45     8883          *** including the current serial number.
       46     8884          ***/
       47     8885
       48     8886    2      DO SNX=0 TO NBR_SNLISTS-1;

   8886  8 000002   200007 450100                    STZ     SNX,,AUTO
         8 000003   000052 710000 8                  TRA     s:8894+1

       49     8887    2         SN_ = SNVECLIST.SN_(SNX);

   8887  8 000004   200007 235100                    LDA     SNX,,AUTO
         8 000005   000001 735000                    ALS     1
         8 000006   000000 470400 xsym               LDP0    SNVECLIST$
         8 000007   000000 237105                    LDAQ    0,AL,PR0
         8 000010   200005 755100                    STA     SN_,,AUTO
         8 000011   200006 756100                    STQ     SN_+1,,AUTO

       50     8888    2         TOX = 0;

   8888  8 000012   200004 450100                    STZ     TOX,,AUTO

       51     8889    3         DO FROMX = TAPE_DCBLIST.DCB$(0)->F$DCB.VOL# TO VLP_SN.NUM#-1;

   8889  8 000013   000000 471400 xsym               LDP1    TAPE_DCBLIST$
         8 000014   100001 473500                    LDP3    1,,PR1
PL6.E3A0      #001=FLI$ROLL_SNLISTS File=FLI$SNLIST.:E05TSI                      TUE 07/29/97 15:54 Page:8
         8 000015   300043 236100                    LDQ     35,,PR3
         8 000016   000033 772000                    QRL     27
         8 000017   200003 756100                    STQ     FROMX,,AUTO
         8 000020   000035 710000 8                  TRA     s:8892+1

       52     8890    3            VLP_SN.SN#(TOX) = VLP_SN.SN#(FROMX);

   8890  8 000021   200003 236100                    LDQ     FROMX,,AUTO
         8 000022   000006 402007                    MPY     6,DL
         8 000023   200010 756100                    STQ     SNX+1,,AUTO
         8 000024   200004 236100                    LDQ     TOX,,AUTO
         8 000025   000006 402007                    MPY     6,DL
         8 000026   200006 470500                    LDP0    SN_+1,,AUTO
         8 000027   200010 235100                    LDA     SNX+1,,AUTO
         8 000030   040106 100505                    MLR     fill='040'O
         8 000031   000001 000006                    ADSC9   1,A,PR0                  cn=0,n=6
         8 000032   000001 000006                    ADSC9   1,Q,PR0                  cn=0,n=6

       53     8891    3            TOX = TOX + 1;

   8891  8 000033   200004 054100                    AOS     TOX,,AUTO

       54     8892    3            END;

   8892  8 000034   200003 054100                    AOS     FROMX,,AUTO
         8 000035   200006 470500                    LDP0    SN_+1,,AUTO
         8 000036   200003 236100                    LDQ     FROMX,,AUTO
         8 000037   000000 116100                    CMPQ    0,,PR0
         8 000040   000021 604000 8                  TMI     s:8890

       55     8893    2         VLP_SN.NUM# = VLP_SN.NUM# - TAPE_DCBLIST.DCB$(0)->F$DCB.VOL#;

   8893  8 000041   000000 471400 xsym               LDP1    TAPE_DCBLIST$
         8 000042   100001 473500                    LDP3    1,,PR1
         8 000043   300043 236100                    LDQ     35,,PR3
         8 000044   000033 772000                    QRL     27
         8 000045   200010 756100                    STQ     SNX+1,,AUTO
PL6.E3A0      #001=FLI$ROLL_SNLISTS File=FLI$SNLIST.:E05TSI                      TUE 07/29/97 15:54 Page:9
         8 000046   000000 236100                    LDQ     0,,PR0
         8 000047   200010 136100                    SBLQ    SNX+1,,AUTO
         8 000050   000000 756100                    STQ     0,,PR0

       56     8894    2         END;

   8894  8 000051   200007 054100                    AOS     SNX,,AUTO
         8 000052   200007 236100                    LDQ     SNX,,AUTO
         8 000053   000000 116000 xsym               CMPQ    NBR_SNLISTS
         8 000054   000004 604000 8                  TMI     s:8887

       57     8895
       58     8896    1      TSN_SET_NBR = TSN_SET_NBR + 1;

   8896  8 000055   000000 054000 xsym               AOS     TSN_SET_NBR

       59     8897    1      TSN_VOL = 0;

   8897  8 000056   000000 450000 xsym               STZ     TSN_VOL

       60     8898    1      LAST_TSN_USED = ' ';

   8898  8 000057   040000 100400                    MLR     fill='040'O
         8 000060   000035 000001 xsym               ADSC9   B_VECTNIL+29             cn=0,n=1
         8 000061   000000 000006 xsym               ADSC9   LAST_TSN_USED            cn=0,n=6

       61     8899
       62     8900    1      RETURN;

   8900  8 000062   000000 702200 xent               TSX2  ! X66_ARET
       63     8901
       64     8902    1   END FLI$ROLL_SNLISTS;

PL6.E3A0      #001=FLI$ROLL_SNLISTS File=FLI$SNLIST.:E05TSI                      TUE 07/29/97 15:54 Page:10
--  Include file information  --

   FLS_DATA_R.:E05TOU  cannot be made into a system file and is referenced.
   B_MICROPS_C.:E05TOU  is referenced.
   FLB_SUBS_C.:E05TOU  is referenced.
   FLI_DATA_R.:E05TOU  cannot be made into a system file and is referenced.
   CP_6_C.:E05TOU  is referenced.
   CP_6.:E05TOU  cannot be made into a system file and is referenced.
      No diagnostics issued in procedure FLI$ROLL_SNLISTS.
PL6.E3A0      #001=FLI$ROLL_SNLISTS File=FLI$SNLIST.:E05TSI                      TUE 07/29/97 15:54 Page:11

 **** Variables and constants ****

  ****  Section 002  Data  FLI$ROLL_SNLISTS

  ****  Scalars and arrays  ****
OctLoc.c.b A Datatyp(siz) R M Lvl/name                 OctLoc.c.b A Datatyp(siz) R M Lvl/name

    12-0-0/d STRC(360)   r     1 DEL_NODATA_REC

  ****  Auto variables  ****

  ****  Scalars and arrays  ****
OctLoc.c.b A Datatyp(siz) R M Lvl/name                 OctLoc.c.b A Datatyp(siz) R M Lvl/name

     3-0-0/w SBIN        r     1 FROMX                      7-0-0/w SBIN        r     1 SNX
     5-0-0/w STRC(72)    r     1 SN_                        4-0-0/w SBIN        r     1 TOX

  ****  SYMREF variables  ****

  ****  Scalars and arrays  ****
OctLoc.c.b A Datatyp(siz) R M Lvl/name                 OctLoc.c.b A Datatyp(siz) R M Lvl/name

     0-0-0/c ASTR(9)     r     1 ARCHIVE_NAME               0-0-0/c ASTR(9)     r     1 BACKUP_NAME
     0-0-0/w PTR         r     1 BLK_TAG$                   0-0-0/w PTR         r     1 BLK_TAG0$
     0-0-0/w PTR         r     1 BLOCK_GRAN$                0-0-0/w PTR         r     1 DISK_FILE_SPEC$
     0-0-0/w PTR         r     1 DISK_GRAN$                 0-0-0/w PTR         r     1 DPLIST$
     0-0-0/w PTR         r     1 DPRESLIST$                 0-0-0/c ASTR(9)     r     1 DUAL_FILE
     0-0-0/c ASTR(9)     r     1 EFT_CVOL_FILE              0-0-0/c ASTR(9)     r     1 EFT_RESTRICT_FILE
     0-0-0/c CHAR(6)     r     1 LAST_TSN_USED              0-0-0/w SBIN        r     1 NBR_BYTES_TO_MOVE
     0-0-0/w SBIN        r     1 NBR_SNLISTS                0-0-0/c ASTR(9)     r     1 NODATA_FILE_NAME
     0-0-0/c STRC(369)   r     1 NODATA_KEY                 0-0-0/c ASTR(9)     r     1 PRIME_FILE
     0-0-0/c ASTR(9)     r     1 REBUILD_DIR_KEY            0-0-0/c ASTR(9)     r     1 REBUILD_KEY
     0-0-0/c ASTR(9)     r     1 REBUILD_NAME               0-0-0/c ASTR(9)     r     1 RET_CMDS_NAME
     0-0-0/w PTR         r     1 SNVECLIST$                 0-0-0/w PTR         r     1 TAPE_DCBLIST$
     0-0-0/w SBIN        r     1 TSN_SET_NBR                0-0-0/c ASTR(9)     r     1 TSN_USED_NAME
     0-0-0/w SBIN        r     1 TSN_VOL

PL6.E3A0      #001=FLI$ROLL_SNLISTS File=FLI$SNLIST.:E05TSI                      TUE 07/29/97 15:54 Page:12
  ****  BASED and DCB variables  ****

  ****  Scalars and arrays  ****
OctLoc.c.b A Datatyp(siz) R M Lvl/name                 OctLoc.c.b A Datatyp(siz) R M Lvl/name

     0-0-0/d ASTR(3528)  r     1 F$DCB                      0-0-0N  NULL        r     1 M$NODATA_LIST
     0-0-0/d STRC(72)    r     1 SNVECLIST(0:0)
     0-0-0/w STRC(72)    r     1 TAPE_DCBLIST(0:0)
     0-0-0/d STRC(90)    r     1 VLP_SN


   Procedure FLI$ROLL_SNLISTS requires 51 words for executable code.
   Procedure FLI$ROLL_SNLISTS requires 10 words of local(AUTO) storage.

    No errors detected in file FLI$SNLIST.:E05TSI    .
PL6.E3A0      #001=FLI$ROLL_SNLISTS File=FLI$SNLIST.:E05TSI                      TUE 07/29/97 15:54 Page:13
          *** CROSS REFERENCE LISTING ***
**     DENOTES     IDENTIFIER DEFINITION
<<                 IDENTIFIER'S VALUE SET
>>                 IDENTIFIER'S VALUE USED
<>                 IDENTIFIER SET AND/OR USED
--                 IDENTIFIER REFERENCED
PL6.E3A0      #001=FLI$ROLL_SNLISTS File=FLI$SNLIST.:E05TSI                      TUE 07/29/97 15:54 Page:14
          MINI XREF LISTING

ARCHIVE_NAME.L#
      7883**DCL      7883--IMP-SIZ
BACKUP_NAME.L#
      7527**DCL      7527--IMP-SIZ
BLK_TAG.NAME
      7019**DCL      7019--REDEF
BLK_TAG$
      7016**DCL      7016--IMP-PTR
BLK_TAG0.NAME
      7025**DCL      7025--REDEF
BLK_TAG0$
      7022**DCL      7022--IMP-PTR
BLOCK_GRAN$
      7029**DCL      7030--IMP-PTR
CLOSE_NODATA_LIST.SN_
      8681**DCL      8681--REDEF
CLOSE_NODATA_LIST.UTL_
      8682**DCL      8682--REDEF
CLOSE_NODATA_LIST.V.EXPIRE#
      8696**DCL      8696--REDEF
CLOSE_NODATA_LIST.V.TYPE#
      8694**DCL      8694--REDEF
CLOSE_NODATA_LIST.V.XTNSIZE#
      8691**DCL      8691--REDEF    8693--REDEF
CLOSE_PRIME_DUAL.SN_
      8158**DCL      8158--REDEF
CLOSE_PRIME_DUAL.UTL_
      8159**DCL      8159--REDEF
CLOSE_PRIME_DUAL.V.EXPIRE#
      8173**DCL      8173--REDEF
CLOSE_PRIME_DUAL.V.TYPE#
      8171**DCL      8171--REDEF
PL6.E3A0      #001=FLI$ROLL_SNLISTS File=FLI$SNLIST.:E05TSI                      TUE 07/29/97 15:54 Page:15
CLOSE_PRIME_DUAL.V.XTNSIZE#
      8168**DCL      8168--REDEF    8170--REDEF
CLOSE_REBUILD.SN_
      8433**DCL      8433--REDEF
CLOSE_REBUILD.UTL_
      8434**DCL      8434--REDEF
CLOSE_REBUILD.V.EXPIRE#
      8448**DCL      8448--REDEF
CLOSE_REBUILD.V.TYPE#
      8446**DCL      8446--REDEF
CLOSE_REBUILD.V.XTNSIZE#
      8443**DCL      8443--REDEF    8445--REDEF
CLOSE_STATUS.SN_
      7648**DCL      7648--REDEF
CLOSE_STATUS.UTL_
      7649**DCL      7649--REDEF
CLOSE_STATUS.V.EXPIRE#
      7663**DCL      7663--REDEF
CLOSE_STATUS.V.TYPE#
      7661**DCL      7661--REDEF
CLOSE_STATUS.V.XTNSIZE#
      7658**DCL      7658--REDEF    7660--REDEF
CLOSE_TSN_USED.SN_
      7358**DCL      7358--REDEF
CLOSE_TSN_USED.UTL_
      7359**DCL      7359--REDEF
CLOSE_TSN_USED.V.EXPIRE#
      7373**DCL      7373--REDEF
CLOSE_TSN_USED.V.TYPE#
      7371**DCL      7371--REDEF
CLOSE_TSN_USED.V.XTNSIZE#
      7368**DCL      7368--REDEF    7370--REDEF
CON_CLOSE_ARCHIVE.SN_
      7690**DCL      7690--REDEF
CON_CLOSE_ARCHIVE.UTL_
      7691**DCL      7691--REDEF
PL6.E3A0      #001=FLI$ROLL_SNLISTS File=FLI$SNLIST.:E05TSI                      TUE 07/29/97 15:54 Page:16
CON_CLOSE_ARCHIVE.V.EXPIRE#
      7705**DCL      7705--REDEF
CON_CLOSE_ARCHIVE.V.TYPE#
      7703**DCL      7703--REDEF
CON_CLOSE_ARCHIVE.V.XTNSIZE#
      7700**DCL      7700--REDEF    7702--REDEF
CON_OPEN_ARCHIVE_FILE.ACSVEH_
      7777**DCL      7778--REDEF
CON_OPEN_ARCHIVE_FILE.ALTKEYS_
      7783**DCL      7784--REDEF    7784--REDEF
CON_OPEN_ARCHIVE_FILE.HDR_
      7782**DCL      7783--REDEF
CON_OPEN_ARCHIVE_FILE.TAB_
      7781**DCL      7782--REDEF
CON_OPEN_ARCHIVE_FILE.UHL_
      7775**DCL      7776--REDEF    7776--REDEF
CON_OPEN_ARCHIVE_FILE.V.FSN#
      7815**DCL      7815--REDEF    7815--REDEF
CON_OPEN_ARCHIVE_FILE.WSN_
      7781**DCL      7781--REDEF
CON_READ_ARCHIVE_FILE.STATION_
      7839**DCL      7840--REDEF
CON_READ_ARCHIVE_FILE.V.DVBYTE.REREAD#
      7851**DCL      7851--REDEF
CON_READ_ARCHIVE_FILE.V.INDX#
      7849**DCL      7849--REDEF
CVOL_UTL.ULBL#
      7118**DCL      7118--REDEF
DEL_NODATA_REC.V
      8784**DCL      8781--DCLINIT
DISK_CLOSE.SN_
      6188**DCL      6188--REDEF
DISK_CLOSE.UTL_
      6189**DCL      6189--REDEF
DISK_CLOSE.V.EXPIRE#
      6203**DCL      6203--REDEF
PL6.E3A0      #001=FLI$ROLL_SNLISTS File=FLI$SNLIST.:E05TSI                      TUE 07/29/97 15:54 Page:17
DISK_CLOSE.V.TYPE#
      6201**DCL      6201--REDEF
DISK_CLOSE.V.XTNSIZE#
      6198**DCL      6198--REDEF    6200--REDEF
DISK_FILE_SPEC.SPEC
      6553**DCL      6555--REDEF
DISK_FILE_SPEC.SPEC.START
      6554**DCL      6554--REDEF
DISK_FILE_SPEC.SPEC.STOP
      6555**DCL      6555--REDEF
DISK_FILE_SPEC$
      6552**DCL      6553--IMP-PTR
DISK_GRAN$
      7029**DCL      7029--IMP-PTR
DISK_OPEN.ACSVEH_
      6053**DCL      6054--REDEF
DISK_OPEN.ALTKEYS_
      6059**DCL      6060--REDEF    6060--REDEF
DISK_OPEN.HDR_
      6058**DCL      6059--REDEF
DISK_OPEN.TAB_
      6057**DCL      6058--REDEF
DISK_OPEN.UHL_
      6051**DCL      6052--REDEF    6052--REDEF
DISK_OPEN.V.FSN#
      6091**DCL      6091--REDEF    6091--REDEF
DISK_OPEN.WSN_
      6057**DCL      6057--REDEF
DISK_READ.STATION_
      6115**DCL      6116--REDEF
DISK_READ.V.DVBYTE.REREAD#
      6127**DCL      6127--REDEF
DISK_READ.V.INDX#
      6125**DCL      6125--REDEF
DISK_WRITE.STATION_
      6153**DCL      6153--REDEF
PL6.E3A0      #001=FLI$ROLL_SNLISTS File=FLI$SNLIST.:E05TSI                      TUE 07/29/97 15:54 Page:18
DISK_WRITE.V.DVBYTE.VFC#
      6160**DCL      6160--REDEF
DPLIST$
      6538**DCL      6550--IMP-PTR
DPRESLIST$
      6552**DCL      6552--IMP-PTR
DUAL_FILE.L#
      7954**DCL      7954--IMP-SIZ
EFTWORD
      6673**DCL      6673--REDEF
EFT_CVOL_FILE.L#
      7078**DCL      7078--IMP-SIZ
EFT_RESTRICT_FILE.L#
      7105**DCL      7105--IMP-SIZ
F$DCB.ACTPOS
      8840**DCL      8840--REDEF
F$DCB.ARS#
      8814**DCL      8814--REDEF
F$DCB.ATTR
      8833**DCL      8834--REDEF
F$DCB.BORROW
      8848**DCL      8848--REDEF    8848--REDEF    8848--REDEF
F$DCB.DCBNAME.L
      8862**DCL      8862--IMP-SIZ
F$DCB.EOMCHAR#
      8818**DCL      8818--REDEF
F$DCB.FLDID
      8843**DCL      8843--REDEF
F$DCB.FORM$
      8837**DCL      8837--REDEF
F$DCB.FSECT
      8853**DCL      8853--REDEF
F$DCB.FSN#
      8830**DCL      8830--REDEF    8830--REDEF    8831--REDEF
F$DCB.HEADER$
      8836**DCL      8836--REDEF
PL6.E3A0      #001=FLI$ROLL_SNLISTS File=FLI$SNLIST.:E05TSI                      TUE 07/29/97 15:54 Page:19
F$DCB.IXTNSIZE#
      8834**DCL      8834--REDEF
F$DCB.LASTSTA$
      8823**DCL      8823--REDEF
F$DCB.LVL
      8849**DCL      8849--REDEF
F$DCB.NAME#.C
      8824**DCL      8824--REDEF
F$DCB.NOEOF
      8846**DCL      8846--REDEF
F$DCB.NRECS#
      8835**DCL      8835--REDEF
F$DCB.NRECX
      8854**DCL      8854--REDEF
F$DCB.OHDR
      8846**DCL      8846--REDEF
F$DCB.ORG#
      8829**DCL      8829--REDEF
F$DCB.PRECNO
      8852**DCL      8852--REDEF
F$DCB.RCSZ
      8858**DCL      8858--REDEF
F$DCB.RES#
      8825**DCL      8825--REDEF
F$DCB.SETX
      8837**DCL      8837--REDEF
F$DCB.TAB$
      8837**DCL      8837--REDEF
F$DCB.TDA
      8851**DCL      8852--REDEF
F$DCB.VOL#
      8835**DCL      8889>>DOINDEX  8893>>ASSIGN
F$DCB.WSN#
      8825**DCL      8825--REDEF
FIT_AREA.W2
      7389**DCL      7390--REDEF
PL6.E3A0      #001=FLI$ROLL_SNLISTS File=FLI$SNLIST.:E05TSI                      TUE 07/29/97 15:54 Page:20
FPT_EXIT.V.STEPCC#
      5978**DCL      5978--REDEF
FROMX
      8796**DCL      8889<<DOINDEX  8890>>ASSIGN
LAST_TSN_USED
      7121**DCL      8898<<ASSIGN
NBR_BYTES_TO_MOVE
      7028**DCL      7029--IMP-SIZ  7030--IMP-SIZ
NBR_SNLISTS
      5965**DCL      8886>>DOINDEX
NODATA_FILE_NAME.L#
      8643**DCL      8643--IMP-SIZ
NODATA_KEY
      8789**DCL      8781--DCLINIT  8782--DCLINIT
OPEN_NODATA_LIST.ACSVEH_
      8576**DCL      8577--REDEF
OPEN_NODATA_LIST.ALTKEYS_
      8582**DCL      8583--REDEF    8583--REDEF
OPEN_NODATA_LIST.HDR_
      8581**DCL      8582--REDEF
OPEN_NODATA_LIST.TAB_
      8580**DCL      8581--REDEF
OPEN_NODATA_LIST.UHL_
      8574**DCL      8575--REDEF    8575--REDEF
OPEN_NODATA_LIST.V.FSN#
      8614**DCL      8614--REDEF    8614--REDEF
OPEN_NODATA_LIST.WSN_
      8580**DCL      8580--REDEF
OPEN_PRIME_DUAL.ACSVEH_
      8023**DCL      8024--REDEF
OPEN_PRIME_DUAL.ALTKEYS_
      8029**DCL      8030--REDEF    8030--REDEF
OPEN_PRIME_DUAL.HDR_
      8028**DCL      8029--REDEF
OPEN_PRIME_DUAL.TAB_
      8027**DCL      8028--REDEF
PL6.E3A0      #001=FLI$ROLL_SNLISTS File=FLI$SNLIST.:E05TSI                      TUE 07/29/97 15:54 Page:21
OPEN_PRIME_DUAL.UHL_
      8021**DCL      8022--REDEF    8022--REDEF
OPEN_PRIME_DUAL.V.FSN#
      8061**DCL      8061--REDEF    8061--REDEF
OPEN_PRIME_DUAL.WSN_
      8027**DCL      8027--REDEF
OPEN_REBUILD.ACSVEH_
      8258**DCL      8259--REDEF
OPEN_REBUILD.ALTKEYS_
      8264**DCL      8265--REDEF    8265--REDEF
OPEN_REBUILD.HDR_
      8263**DCL      8264--REDEF
OPEN_REBUILD.TAB_
      8262**DCL      8263--REDEF
OPEN_REBUILD.UHL_
      8256**DCL      8257--REDEF    8257--REDEF
OPEN_REBUILD.V.FSN#
      8296**DCL      8296--REDEF    8296--REDEF
OPEN_REBUILD.WSN_
      8262**DCL      8262--REDEF
OPEN_STATUS.ACSVEH_
      7460**DCL      7461--REDEF
OPEN_STATUS.ALTKEYS_
      7466**DCL      7467--REDEF    7467--REDEF
OPEN_STATUS.HDR_
      7465**DCL      7466--REDEF
OPEN_STATUS.TAB_
      7464**DCL      7465--REDEF
OPEN_STATUS.UHL_
      7458**DCL      7459--REDEF    7459--REDEF
OPEN_STATUS.V.FSN#
      7498**DCL      7498--REDEF    7498--REDEF
OPEN_STATUS.WSN_
      7464**DCL      7464--REDEF
OPEN_TSN_USED.ACSVEH_
      7196**DCL      7197--REDEF
PL6.E3A0      #001=FLI$ROLL_SNLISTS File=FLI$SNLIST.:E05TSI                      TUE 07/29/97 15:54 Page:22
OPEN_TSN_USED.ALTKEYS_
      7202**DCL      7203--REDEF    7203--REDEF
OPEN_TSN_USED.HDR_
      7201**DCL      7202--REDEF
OPEN_TSN_USED.TAB_
      7200**DCL      7201--REDEF
OPEN_TSN_USED.UHL_
      7194**DCL      7195--REDEF    7195--REDEF
OPEN_TSN_USED.V.FSN#
      7234**DCL      7234--REDEF    7234--REDEF
OPEN_TSN_USED.WSN_
      7200**DCL      7200--REDEF
PRE_RET_CLOSE.SN_
      6916**DCL      6916--REDEF
PRE_RET_CLOSE.UTL_
      6917**DCL      6917--REDEF
PRE_RET_CLOSE.V.EXPIRE#
      6931**DCL      6931--REDEF
PRE_RET_CLOSE.V.TYPE#
      6929**DCL      6929--REDEF
PRE_RET_CLOSE.V.XTNSIZE#
      6926**DCL      6926--REDEF    6928--REDEF
PRE_RET_OPEN.ACSVEH_
      6851**DCL      6852--REDEF
PRE_RET_OPEN.ALTKEYS_
      6857**DCL      6858--REDEF    6858--REDEF
PRE_RET_OPEN.HDR_
      6856**DCL      6857--REDEF
PRE_RET_OPEN.TAB_
      6855**DCL      6856--REDEF
PRE_RET_OPEN.UHL_
      6849**DCL      6850--REDEF    6850--REDEF
PRE_RET_OPEN.V.FSN#
      6889**DCL      6889--REDEF    6889--REDEF
PRE_RET_OPEN.WSN_
      6855**DCL      6855--REDEF
PL6.E3A0      #001=FLI$ROLL_SNLISTS File=FLI$SNLIST.:E05TSI                      TUE 07/29/97 15:54 Page:23
PRE_RET_READ.STATION_
      6706**DCL      6707--REDEF
PRE_RET_READ.V.DVBYTE.REREAD#
      6718**DCL      6718--REDEF
PRE_RET_READ.V.INDX#
      6716**DCL      6716--REDEF
PRE_RET_WRITE.STATION_
      6744**DCL      6744--REDEF
PRE_RET_WRITE.V.DVBYTE.VFC#
      6751**DCL      6751--REDEF
PRIME_FILE.L#
      7927**DCL      7927--IMP-SIZ
READ_NODATA_LIST.STATION_
      8720**DCL      8721--REDEF
READ_NODATA_LIST.V.DVBYTE.REREAD#
      8732**DCL      8732--REDEF
READ_NODATA_LIST.V.INDX#
      8730**DCL      8730--REDEF
READ_PRIME_DUAL.STATION_
      8085**DCL      8086--REDEF
READ_PRIME_DUAL.V.DVBYTE.REREAD#
      8097**DCL      8097--REDEF
READ_PRIME_DUAL.V.INDX#
      8095**DCL      8095--REDEF
READ_REBUILD.STATION_
      8391**DCL      8392--REDEF
READ_REBUILD.V.DVBYTE.REREAD#
      8403**DCL      8403--REDEF
READ_REBUILD.V.INDX#
      8401**DCL      8401--REDEF
READ_STATUS.STATION_
      7606**DCL      7607--REDEF
READ_STATUS.V.DVBYTE.REREAD#
      7618**DCL      7618--REDEF
READ_STATUS.V.INDX#
      7616**DCL      7616--REDEF
PL6.E3A0      #001=FLI$ROLL_SNLISTS File=FLI$SNLIST.:E05TSI                      TUE 07/29/97 15:54 Page:24
READ_TSN_USED.STATION_
      7316**DCL      7317--REDEF
READ_TSN_USED.V.DVBYTE.REREAD#
      7328**DCL      7328--REDEF
READ_TSN_USED.V.INDX#
      7326**DCL      7326--REDEF
REBUILD_DIR_KEY.L#
      8477**DCL      8477--IMP-SIZ
REBUILD_KEY.L#
      8504**DCL      8504--IMP-SIZ
REBUILD_NAME.L#
      8325**DCL      8325--IMP-SIZ
RET_CMDS_NAME.L#
      6960**DCL      6960--IMP-SIZ
SNVECLIST.SN_
      6492**DCL      8887>>ASSIGN
SNVECLIST$
      6492**DCL      6492--IMP-PTR  8887>>ASSIGN
SNX
      8801**DCL      8886<<DOINDEX  8887>>ASSIGN
SN_
      8798**DCL      8887<<ASSIGN
SN_.SN$
      8800**DCL      8876--IMP-PTR  8889>>DOINDEX  8890>>ASSIGN   8890>>ASSIGN   8893>>ASSIGN   8893>>ASSIGN
SPEC.START
      6556**DCL      6557--REDEF
SPEC.STOP
      6557**DCL      6558--REDEF
SPECCHARS
      6556**DCL      6556--REDEF
TAPE_BLOCK_.W2
      7044**DCL      7045--REDEF
TAPE_CLOSE.SN_
      6409**DCL      6409--REDEF
TAPE_CLOSE.UTL_
      6410**DCL      6410--REDEF
PL6.E3A0      #001=FLI$ROLL_SNLISTS File=FLI$SNLIST.:E05TSI                      TUE 07/29/97 15:54 Page:25
TAPE_CLOSE.V.EXPIRE#
      6424**DCL      6424--REDEF
TAPE_CLOSE.V.TYPE#
      6422**DCL      6422--REDEF
TAPE_CLOSE.V.XTNSIZE#
      6419**DCL      6419--REDEF    6421--REDEF
TAPE_DCBLIST.DCB$
      5965**DCL      8889>>DOINDEX  8893>>ASSIGN
TAPE_DCBLIST$
      5965**DCL      5965--IMP-PTR  8889>>DOINDEX  8893>>ASSIGN
TAPE_OPEN.ACSVEH_
      6274**DCL      6275--REDEF
TAPE_OPEN.ALTKEYS_
      6280**DCL      6281--REDEF    6281--REDEF
TAPE_OPEN.HDR_
      6279**DCL      6280--REDEF
TAPE_OPEN.TAB_
      6278**DCL      6279--REDEF
TAPE_OPEN.UHL_
      6272**DCL      6273--REDEF    6273--REDEF
TAPE_OPEN.V.FSN#
      6312**DCL      6312--REDEF    6312--REDEF
TAPE_OPEN.WSN_
      6278**DCL      6278--REDEF
TAPE_READ.STATION_
      6336**DCL      6337--REDEF
TAPE_READ.V.DVBYTE.REREAD#
      6348**DCL      6348--REDEF
TAPE_READ.V.INDX#
      6346**DCL      6346--REDEF
TAPE_WRITE.STATION_
      6374**DCL      6374--REDEF
TAPE_WRITE.V.DVBYTE.VFC#
      6381**DCL      6381--REDEF
TOX
      8797**DCL      8888<<ASSIGN   8890>>ASSIGN   8891<<ASSIGN   8891>>ASSIGN
PL6.E3A0      #001=FLI$ROLL_SNLISTS File=FLI$SNLIST.:E05TSI                      TUE 07/29/97 15:54 Page:26
TSN_SET_NBR
      7122**DCL      8896<<ASSIGN   8896>>ASSIGN
TSN_USED_NAME.L#
      7263**DCL      7263--IMP-SIZ
TSN_VOL
      7122**DCL      8897<<ASSIGN
TVECTOR.W2
      6505**DCL      6506--REDEF
VLP_SN.NUM#
      8876**DCL      8889>>DOINDEX  8893<<ASSIGN   8893>>ASSIGN
VLP_SN.SN#
      8876**DCL      8890<<ASSIGN   8890>>ASSIGN
WRITE_NODATA_LIST.STATION_
      8758**DCL      8758--REDEF
WRITE_NODATA_LIST.V.DVBYTE.VFC#
      8765**DCL      8765--REDEF
WRITE_PRIME_DUAL.STATION_
      8123**DCL      8123--REDEF
WRITE_PRIME_DUAL.V.DVBYTE.VFC#
      8130**DCL      8130--REDEF
WRITE_REBUILD.STATION_
      8359**DCL      8359--REDEF
WRITE_REBUILD.V.DVBYTE.VFC#
      8366**DCL      8366--REDEF
WRITE_STATUS.STATION_
      7574**DCL      7574--REDEF
WRITE_STATUS.V.DVBYTE.VFC#
      7581**DCL      7581--REDEF
WRITE_TSN_USED.STATION_
      7284**DCL      7284--REDEF
WRITE_TSN_USED.V.DVBYTE.VFC#
      7291**DCL      7291--REDEF
