VERSION E05

PL6.E3A0      #001=FLI$TAPE_IO_INIT File=FLI$TAPE.:E05TSI                        TUE 07/29/97 15:55 Page:1
        1        1        /*M* FLI$TAPE - EFT I/O routines - tape I/O */
        2        2        /*T***********************************************************/
        3        3        /*T*                                                         */
        4        4        /*T* Copyright (c) Bull HN Information Systems Inc., 1997    */
        5        5        /*T*                                                         */
        6        6        /*T***********************************************************/
        7        7        /*X* THI=1,PLM=3 */
        8        8        FLI$TAPE_IO_INIT: PROC;
        9        9        /*F*  NAME: FLI$TAPE_IO_INIT
       10       10              PURPOSE: Sets up global tape open FPT with specified
       11       11                 arguments; gets necessary DCBs.
       12       12         */
       13       13
       14       14         /***
       15       15          *** INCLUDE
       16       16          ***/
       17       17
       18       18        %INCLUDE CP_6_SUBS;
       19      558        %INCLUDE CP_6;
       20     6117        %INCLUDE FLI_DATA_R;
       21     7531
       22     7532         /***
       23     7533          *** ENTRY
       24     7534          ***/
       25     7535
       26     7536    1   DCL FLI$ALLOC ENTRY(2);
       27     7537
       28     7538         /***
       29     7539          *** STATIC
       30     7540          ***/
       31     7541
       32     7542    1   DCL 1 DCBNAME STATIC,                   /* Name used for tape DCBs            */
       33     7543    1         2 * UBIN BYTE INIT(LENGTHC('M$TAPExx')) CALIGNED,
       34     7544    1         2 * CHAR(0) INIT('M$TAPE'),
       35     7545    1         2 NUM_ID CHAR(2);
       36     7546
       37     7547    1   DCL RETURNED_DCB# SBIN STATIC;          /* DCB# returned by M$GETDCB          */
PL6.E3A0      #001=FLI$TAPE_IO_INIT File=FLI$TAPE.:E05TSI                        TUE 07/29/97 15:55 Page:2
       38     7548
       39     7549         /***
       40     7550          *** AUTO
       41     7551          ***/
       42     7552
       43     7553    1   DCL I SBIN AUTO;
       44     7554    1   DCL SNLISTINFO$ PTR AUTO;
       45     7555
       46     7556         /***
       47     7557          *** FPT
       48     7558          ***/
       49     7559
       50     7560        %FPT_GETDCB( FPTN=GET_TAPE_DCB,
       51     7561                     DCBNAME=DCBNAME,
       52     7562                     DCBNUM=RETURNED_DCB#,
       53     7563                     MERGE=NO );
       54     7578
       55     7579         /***
       56     7580          *** BASED
       57     7581          ***/
       58     7582
       59     7583        %SNLISTINFO( STCLASS="BASED(SNLISTINFO$)" );
       60     7586
       61     7587        %VLP_SN( FPTN=VLP_SN,
       62     7588                 STCLASS=BASED );
       63     7601
       64     7602        /****************************************/
       65     7603
       66     7604         /***
       67     7605          *** Set up serial number vector list.
       68     7606          ***/
       69     7607
       70     7608    1      CALL FLI$ALLOC( SIZEW(SNVECLIST(0))*NBR_SNLISTS, SNVECLIST$ );
       71     7609
       72     7610    1      SNLISTINFO$ = LAST_SNLISTINFO$;
       73     7611    1      I = NBR_SNLISTS;
       74     7612    2      DO WHILE( SNLISTINFO$ ~= ADDR(NIL) );
PL6.E3A0      #001=FLI$TAPE_IO_INIT File=FLI$TAPE.:E05TSI                        TUE 07/29/97 15:55 Page:3
       75     7613    2         TVECTOR = VECTOR(SNLISTINFO.SNLIST$->VLP_SN);
       76     7614    2         TVECTOR.W1.VSIZE# = LENGTHC(VLP_SN.NUM#)
       77     7615    2           + SNLISTINFO.SNLIST$->VLP_SN.NUM# * LENGTHC(VLP_SN.SN#(0))
       78     7616    2           - 1;
       79     7617    2         I = I - 1;
       80     7618    2         SNVECLIST.SN_(I) = TVECTOR;
       81     7619    2         SNLISTINFO$ = SNLISTINFO.PREVINFO$;
       82     7620    2         END;
       83     7621
       84     7622         /***
       85     7623          *** Set up DCB number list.
       86     7624          ***/
       87     7625
       88     7626    1      CALL FLI$ALLOC( SIZEW(TAPE_DCBLIST(0))*NBR_SNLISTS, TAPE_DCBLIST$ );
       89     7627
       90     7628    2      DO I=0 TO NBR_SNLISTS - 1;
       91     7629    2         CALL BINCHAR( DCBNAME.NUM_ID, I );
       92     7630    2         CALL M$GETDCB( GET_TAPE_DCB );
       93     7631    2         TAPE_DCBLIST.DCB#(I) = RETURNED_DCB#;
       94     7632    2         TAPE_DCBLIST.DCB$(I) = DCBADDR(RETURNED_DCB#);
       95     7633    2         END;
       96     7634
       97     7635        /***
       98     7636         *** Save beginning volume number.
       99     7637         ***/
      100     7638
      101     7639    1      FIRST_TAPE_VOL = TAPE_OPEN.V.VOL#;
      102     7640
      103     7641    1      RETURN;
      104     7642
      105     7643    1   END FLI$TAPE_IO_INIT;
      106     7644        %EOD;

PL6.E3A0      #001=FLI$TAPE_IO_INIT File=FLI$TAPE.:E05TSI                        TUE 07/29/97 15:55 Page:4
--  Include file information  --

   B_MICROPS_C.:E05TOU  is referenced.
   FLB_SUBS_C.:E05TOU  is referenced.
   FLI_DATA_R.:E05TOU  cannot be made into a system file and is referenced.
   CP_6_C.:E05TOU  is referenced.
   CP_6.:E05TOU  cannot be made into a system file and is referenced.
   CP_6_SUBS.:E05TOU  is referenced.
      No diagnostics issued in procedure FLI$TAPE_IO_INIT.

   Procedure FLI$TAPE_IO_INIT requires 82 words for executable code.
   Procedure FLI$TAPE_IO_INIT requires 10 words of local(AUTO) storage.

PL6.E3A0      #001=FLI$TAPE_IO_INIT File=FLI$TAPE.:E05TSI                        TUE 07/29/97 15:55 Page:5

 Object Unit name= FLI$TAPE_IO_INIT                           File name= FLI$TAPE.:E05TOU
 UTS= JUL 29 '97 15:55:18.72 TUE                              Compiler= PL-6/E31         Sev=      00
 SharedLib= :SHARED_SYSTEM                                    Alt SharedLib=


    ****  Control sections  ****

 Sect   Type Bound  Init  Size OctSiz  Section name(segment info)
    0   DCB   even  none     0      0  M$UC
    1   DCB   even  none     0      0  M$PRE_RET
    2   Data  even  none    18     22  FLI$TAPE_IO_INIT
    3   Proc  even  none    82    122  FLI$TAPE_IO_INIT
    4  RoData even  none     4      4  FLI$TAPE_IO_INIT

    ****  Entry defs  ****

                              Check   Calling
                             calling  sequence
  Sect OctLoc Primary Altret sequence   type   Parms  Name
     3      0   yes            yes      Std        0  FLI$TAPE_IO_INIT

  ****  Entry refs  ****

         Check        Calling
        calling       sequence
Altret sequence SRef   type   Args  Name
         yes           Std       2 FLI$ALLOC
                       nStd      0 X66_AUTO_0
                       Std       0 B_CONSPOOL_D
                       nStd      0 X66_ARET
PL6.E3A0      #001=FLI$TAPE_IO_INIT File=FLI$TAPE.:E05TSI                        TUE 07/29/97 15:55 Page:6

  ****  Data refs  ****

  Flags:  r = read only, s = secondary
Flgs Name                             Flgs Name                             Flgs Name
     M$UC                                  LAST_SNLISTINFO$                      NBR_SNLISTS
     TAPE_DCBLIST$                         TAPE_OPEN                             SNVECLIST$
     TVECTOR                               DPLIST$                               DPRESLIST$
     DISK_FILE_SPEC$                       SPECCHARS                             FIRST_TAPE_VOL
     EFTWORD                               M$PRE_RET                             RET_CMDS_NAME
     B_VECTNIL

  ****  Segment refs  ****

  Flags:  r = read only, s = secondary
Flgs Name                             Flgs Name                             Flgs Name
     ISSID                                 ROSID
PL6.E3A0      #001=FLI$TAPE_IO_INIT File=FLI$TAPE.:E05TSI                        TUE 07/29/97 15:55 Page:7


        1        1        /*M* FLI$TAPE - EFT I/O routines - tape I/O */
        2        2        /*T***********************************************************/
        3        3        /*T*                                                         */
        4        4        /*T* Copyright (c) Bull HN Information Systems Inc., 1997    */
        5        5        /*T*                                                         */
        6        6        /*T***********************************************************/
        7        7        /*X* THI=1,PLM=3 */
        8        8        FLI$TAPE_IO_INIT: PROC;

      8  3 000000   000000 700200 xent  FLI$TAPE_IO* TSX0  ! X66_AUTO_0
         3 000001   000012 000000                    ZERO    10,0

        9        9        /*F*  NAME: FLI$TAPE_IO_INIT
       10       10              PURPOSE: Sets up global tape open FPT with specified
       11       11                 arguments; gets necessary DCBs.
       12       12         */
       13       13
       14       14         /***
       15       15          *** INCLUDE
       16       16          ***/
       17       17
       18       18        %INCLUDE CP_6_SUBS;
       19      558        %INCLUDE CP_6;
       20     6117        %INCLUDE FLI_DATA_R;
       21     7531
       22     7532         /***
       23     7533          *** ENTRY
       24     7534          ***/
       25     7535
       26     7536    1   DCL FLI$ALLOC ENTRY(2);
       27     7537
       28     7538         /***
       29     7539          *** STATIC
       30     7540          ***/
       31     7541
       32     7542    1   DCL 1 DCBNAME STATIC,                   /* Name used for tape DCBs            */
PL6.E3A0      #001=FLI$TAPE_IO_INIT File=FLI$TAPE.:E05TSI                        TUE 07/29/97 15:55 Page:8
       33     7543    1         2 * UBIN BYTE INIT(LENGTHC('M$TAPExx')) CALIGNED,
       34     7544    1         2 * CHAR(0) INIT('M$TAPE'),
       35     7545    1         2 NUM_ID CHAR(2);
       36     7546
       37     7547    1   DCL RETURNED_DCB# SBIN STATIC;          /* DCB# returned by M$GETDCB          */
       38     7548
       39     7549         /***
       40     7550          *** AUTO
       41     7551          ***/
       42     7552
       43     7553    1   DCL I SBIN AUTO;
       44     7554    1   DCL SNLISTINFO$ PTR AUTO;
       45     7555
       46     7556         /***
       47     7557          *** FPT
       48     7558          ***/
       49     7559
       50     7560        %FPT_GETDCB( FPTN=GET_TAPE_DCB,
       51     7561                     DCBNAME=DCBNAME,
       52     7562                     DCBNUM=RETURNED_DCB#,
       53     7563                     MERGE=NO );
       54     7578
       55     7579         /***
       56     7580          *** BASED
       57     7581          ***/
       58     7582
       59     7583        %SNLISTINFO( STCLASS="BASED(SNLISTINFO$)" );
       60     7586
       61     7587        %VLP_SN( FPTN=VLP_SN,
       62     7588                 STCLASS=BASED );
       63     7601
       64     7602        /****************************************/
       65     7603
       66     7604         /***
       67     7605          *** Set up serial number vector list.
       68     7606          ***/
       69     7607
PL6.E3A0      #001=FLI$TAPE_IO_INIT File=FLI$TAPE.:E05TSI                        TUE 07/29/97 15:55 Page:9
       70     7608    1      CALL FLI$ALLOC( SIZEW(SNVECLIST(0))*NBR_SNLISTS, SNVECLIST$ );

   7608  3 000002   000000 235000 xsym               LDA     NBR_SNLISTS
         3 000003   000001 735000                    ALS     1
         3 000004   200006 755100                    STA     SNLISTINFO$+2,,AUTO
         3 000005   000000 236000 4                  LDQ     0
         3 000006   200011 756100                    STQ     SNLISTINFO$+5,,AUTO
         3 000007   200006 630500                    EPPR0   SNLISTINFO$+2,,AUTO
         3 000010   200010 450500                    STP0    SNLISTINFO$+4,,AUTO
         3 000011   200010 630500                    EPPR0   SNLISTINFO$+4,,AUTO
         3 000012   000020 631400 xsym               EPPR1   B_VECTNIL+16
         3 000013   000000 701000 xent               TSX1    FLI$ALLOC
         3 000014   000000 011000                    NOP     0

       71     7609
       72     7610    1      SNLISTINFO$ = LAST_SNLISTINFO$;

   7610  3 000015   000000 236000 xsym               LDQ     LAST_SNLISTINFO$
         3 000016   200004 756100                    STQ     SNLISTINFO$,,AUTO

       73     7611    1      I = NBR_SNLISTS;

   7611  3 000017   000000 235000 xsym               LDA     NBR_SNLISTS
         3 000020   200003 755100                    STA     I,,AUTO

       74     7612    2      DO WHILE( SNLISTINFO$ ~= ADDR(NIL) );

   7612  3 000021   000052 710000 3                  TRA     s:7620

       75     7613    2         TVECTOR = VECTOR(SNLISTINFO.SNLIST$->VLP_SN);

   7613  3 000022   200004 470500                    LDP0    SNLISTINFO$,,AUTO
         3 000023   000000 471500                    LDP1    0,,PR0
         3 000024   000001 235000 4                  LDA     1
         3 000025   200006 451500                    STP1    SNLISTINFO$+2,,AUTO
         3 000026   200006 236100                    LDQ     SNLISTINFO$+2,,AUTO
         3 000027   000000 757000 xsym               STAQ    TVECTOR
PL6.E3A0      #001=FLI$TAPE_IO_INIT File=FLI$TAPE.:E05TSI                        TUE 07/29/97 15:55 Page:10

       76     7614    2         TVECTOR.W1.VSIZE# = LENGTHC(VLP_SN.NUM#)

   7614  3 000030   000000 471500                    LDP1    0,,PR0
         3 000031   100000 236100                    LDQ     0,,PR1
         3 000032   000006 402007                    MPY     6,DL
         3 000033   000003 036007                    ADLQ    3,DL
         3 000034   000020 736000                    QLS     16
         3 000035   000000 676000 xsym               ERQ     TVECTOR
         3 000036   000034 376000 xsym               ANQ     B_VECTNIL+28
         3 000037   000000 656000 xsym               ERSQ    TVECTOR

       77     7615    2           + SNLISTINFO.SNLIST$->VLP_SN.NUM# * LENGTHC(VLP_SN.SN#(0))
       78     7616    2           - 1;
       79     7617    2         I = I - 1;

   7617  3 000040   000001 336007                    LCQ     1,DL
         3 000041   200003 056100                    ASQ     I,,AUTO

       80     7618    2         SNVECLIST.SN_(I) = TVECTOR;

   7618  3 000042   200003 235100                    LDA     I,,AUTO
         3 000043   000001 735000                    ALS     1
         3 000044   000000 620005                    EAX0    0,AL
         3 000045   000000 237000 xsym               LDAQ    TVECTOR
         3 000046   000000 471400 xsym               LDP1    SNVECLIST$
         3 000047   100000 757110                    STAQ    0,X0,PR1

       81     7619    2         SNLISTINFO$ = SNLISTINFO.PREVINFO$;

   7619  3 000050   000001 236100                    LDQ     1,,PR0
         3 000051   200004 756100                    STQ     SNLISTINFO$,,AUTO

       82     7620    2         END;

   7620  3 000052   000001 116000 xsym               CMPQ    B_VECTNIL+1
         3 000053   000022 601000 3                  TNZ     s:7613
PL6.E3A0      #001=FLI$TAPE_IO_INIT File=FLI$TAPE.:E05TSI                        TUE 07/29/97 15:55 Page:11

       83     7621
       84     7622         /***
       85     7623          *** Set up DCB number list.
       86     7624          ***/
       87     7625
       88     7626    1      CALL FLI$ALLOC( SIZEW(TAPE_DCBLIST(0))*NBR_SNLISTS, TAPE_DCBLIST$ );

   7626  3 000054   000000 235000 xsym               LDA     NBR_SNLISTS
         3 000055   000001 735000                    ALS     1
         3 000056   200006 755100                    STA     SNLISTINFO$+2,,AUTO
         3 000057   000002 236000 4                  LDQ     2
         3 000060   200011 756100                    STQ     SNLISTINFO$+5,,AUTO
         3 000061   200006 630500                    EPPR0   SNLISTINFO$+2,,AUTO
         3 000062   200010 450500                    STP0    SNLISTINFO$+4,,AUTO
         3 000063   200010 630500                    EPPR0   SNLISTINFO$+4,,AUTO
         3 000064   000020 631400 xsym               EPPR1   B_VECTNIL+16
         3 000065   000000 701000 xent               TSX1    FLI$ALLOC
         3 000066   000000 011000                    NOP     0

       89     7627
       90     7628    2      DO I=0 TO NBR_SNLISTS - 1;

   7628  3 000067   200003 450100                    STZ     I,,AUTO
         3 000070   000113 710000 3                  TRA     s:7633+1

       91     7629    2         CALL BINCHAR( DCBNAME.NUM_ID, I );

   7629  3 000071   000000 301500                    BTD
         3 000072   200003 000004                    NDSC9   I,,AUTO                  cn=0,s=lsgnf,sf=0,n=4
         3 000073   000007 630002 2                  NDSC9   DCBNAME+1                cn=3,s=nosgn,sf=0,n=2

       92     7630    2         CALL M$GETDCB( GET_TAPE_DCB );

   7630  3 000074   000012 630400 2                  EPPR0   GET_TAPE_DCB
         3 000075   060002 713400                    CLIMB   24578
         3 000076   401000 401760                    pmme    nvectors=3
PL6.E3A0      #001=FLI$TAPE_IO_INIT File=FLI$TAPE.:E05TSI                        TUE 07/29/97 15:55 Page:12

       93     7631    2         TAPE_DCBLIST.DCB#(I) = RETURNED_DCB#;

   7631  3 000077   200003 235100                    LDA     I,,AUTO
         3 000100   000001 735000                    ALS     1
         3 000101   000000 470400 xsym               LDP0    TAPE_DCBLIST$
         3 000102   000011 236000 2                  LDQ     RETURNED_DCB#
         3 000103   000000 756105                    STQ     0,AL,PR0

       94     7632    2         TAPE_DCBLIST.DCB$(I) = DCBADDR(RETURNED_DCB#);

   7632  3 000104   000003 470400 4                  LDP0    3
         3 000105   000000 471500                    LDP1    0,,PR0
         3 000106   000011 720000 2                  LXL0    RETURNED_DCB#
         3 000107   100000 236110                    LDQ     0,X0,PR1
         3 000110   000000 473400 xsym               LDP3    TAPE_DCBLIST$
         3 000111   300001 756105                    STQ     1,AL,PR3

       95     7633    2         END;

   7633  3 000112   200003 054100                    AOS     I,,AUTO
         3 000113   200003 236100                    LDQ     I,,AUTO
         3 000114   000000 116000 xsym               CMPQ    NBR_SNLISTS
         3 000115   000071 604000 3                  TMI     s:7629

       96     7634
       97     7635        /***
       98     7636         *** Save beginning volume number.
       99     7637         ***/
      100     7638
      101     7639    1      FIRST_TAPE_VOL = TAPE_OPEN.V.VOL#;

   7639  3 000116   000061 236000 xsym               LDQ     TAPE_OPEN+49
         3 000117   000033 772000                    QRL     27
         3 000120   000000 756000 xsym               STQ     FIRST_TAPE_VOL

      102     7640
PL6.E3A0      #001=FLI$TAPE_IO_INIT File=FLI$TAPE.:E05TSI                        TUE 07/29/97 15:55 Page:13
      103     7641    1      RETURN;

   7641  3 000121   000000 702200 xent               TSX2  ! X66_ARET
      104     7642
      105     7643    1   END FLI$TAPE_IO_INIT;
      106     7644        %EOD;

PL6.E3A0      #001=FLI$TAPE_IO_INIT File=FLI$TAPE.:E05TSI                        TUE 07/29/97 15:55 Page:14
--  Include file information  --

   B_MICROPS_C.:E05TOU  is referenced.
   FLB_SUBS_C.:E05TOU  is referenced.
   FLI_DATA_R.:E05TOU  cannot be made into a system file and is referenced.
   CP_6_C.:E05TOU  is referenced.
   CP_6.:E05TOU  cannot be made into a system file and is referenced.
   CP_6_SUBS.:E05TOU  is referenced.
      No diagnostics issued in procedure FLI$TAPE_IO_INIT.
PL6.E3A0      #001=FLI$TAPE_IO_INIT File=FLI$TAPE.:E05TSI                        TUE 07/29/97 15:55 Page:15

 **** Variables and constants ****

  ****  Section 002  Data  FLI$TAPE_IO_INIT

  ****  Scalars and arrays  ****
OctLoc.c.b A Datatyp(siz) R M Lvl/name                 OctLoc.c.b A Datatyp(siz) R M Lvl/name

     6-0-0/c STRC(81)    r     1 DCBNAME                   12-0-0/d STRC(288)   r     1 GET_TAPE_DCB
    11-0-0/w SBIN        r     1 RETURNED_DCB#

  ****  Auto variables  ****

  ****  Scalars and arrays  ****
OctLoc.c.b A Datatyp(siz) R M Lvl/name                 OctLoc.c.b A Datatyp(siz) R M Lvl/name

     3-0-0/w SBIN        r     1 I                          4-0-0/w PTR         r     1 SNLISTINFO$

  ****  SYMREF variables  ****

  ****  Scalars and arrays  ****
OctLoc.c.b A Datatyp(siz) R M Lvl/name                 OctLoc.c.b A Datatyp(siz) R M Lvl/name

     0-0-0/w PTR         r     1 DISK_FILE_SPEC$            0-0-0/w PTR         r     1 DPLIST$
     0-0-0/w PTR         r     1 DPRESLIST$                 0-0-0/w SBIN        r     1 FIRST_TAPE_VOL
     0-0-0/w PTR         r     1 LAST_SNLISTINFO$           0-0-0/w SBIN        r     1 NBR_SNLISTS
     0-0-0/c ASTR(9)     r     1 RET_CMDS_NAME              0-0-0/w PTR         r     1 SNVECLIST$
     0-0-0/w PTR         r     1 TAPE_DCBLIST$              0-0-0/d STRC(2088)  r     1 TAPE_OPEN
     0-0-0/d STRC(72)    r     1 TVECTOR

  ****  BASED and DCB variables  ****

  ****  Scalars and arrays  ****
OctLoc.c.b A Datatyp(siz) R M Lvl/name                 OctLoc.c.b A Datatyp(siz) R M Lvl/name

     0-0-0/w STRC(72)    r     1 SNLISTINFO
     0-0-0/d STRC(72)    r     1 SNVECLIST(0:0)
     0-0-0/w STRC(72)    r     1 TAPE_DCBLIST(0:0)
PL6.E3A0      #001=FLI$TAPE_IO_INIT File=FLI$TAPE.:E05TSI                        TUE 07/29/97 15:55 Page:16
     0-0-0/d STRC(90)    r     1 VLP_SN


   Procedure FLI$TAPE_IO_INIT requires 82 words for executable code.
   Procedure FLI$TAPE_IO_INIT requires 10 words of local(AUTO) storage.
PL6.E3A0      #001=FLI$TAPE_IO_INIT File=FLI$TAPE.:E05TSI                        TUE 07/29/97 15:55 Page:17
          *** CROSS REFERENCE LISTING ***
**     DENOTES     IDENTIFIER DEFINITION
<<                 IDENTIFIER'S VALUE SET
>>                 IDENTIFIER'S VALUE USED
<>                 IDENTIFIER SET AND/OR USED
--                 IDENTIFIER REFERENCED
PL6.E3A0      #001=FLI$TAPE_IO_INIT File=FLI$TAPE.:E05TSI                        TUE 07/29/97 15:55 Page:18
          MINI XREF LISTING

DCBNAME
      7542**DCL      7574--DCLINIT
DCBNAME.NUM_ID
      7545**DCL      7629<<CALLBLT
DISK_CLOSE.SN_
      6728**DCL      6728--REDEF
DISK_CLOSE.UTL_
      6729**DCL      6729--REDEF
DISK_CLOSE.V.EXPIRE#
      6743**DCL      6743--REDEF
DISK_CLOSE.V.TYPE#
      6741**DCL      6741--REDEF
DISK_CLOSE.V.XTNSIZE#
      6738**DCL      6738--REDEF    6740--REDEF
DISK_FILE_SPEC.SPEC
      7093**DCL      7095--REDEF
DISK_FILE_SPEC.SPEC.START
      7094**DCL      7094--REDEF
DISK_FILE_SPEC.SPEC.STOP
      7095**DCL      7095--REDEF
DISK_FILE_SPEC$
      7092**DCL      7093--IMP-PTR
DISK_OPEN.ACSVEH_
      6593**DCL      6594--REDEF
DISK_OPEN.ALTKEYS_
      6599**DCL      6600--REDEF    6600--REDEF
DISK_OPEN.HDR_
      6598**DCL      6599--REDEF
DISK_OPEN.TAB_
      6597**DCL      6598--REDEF
DISK_OPEN.UHL_
      6591**DCL      6592--REDEF    6592--REDEF
PL6.E3A0      #001=FLI$TAPE_IO_INIT File=FLI$TAPE.:E05TSI                        TUE 07/29/97 15:55 Page:19
DISK_OPEN.V.FSN#
      6631**DCL      6631--REDEF    6631--REDEF
DISK_OPEN.WSN_
      6597**DCL      6597--REDEF
DISK_READ.STATION_
      6655**DCL      6656--REDEF
DISK_READ.V.DVBYTE.REREAD#
      6667**DCL      6667--REDEF
DISK_READ.V.INDX#
      6665**DCL      6665--REDEF
DISK_WRITE.STATION_
      6693**DCL      6693--REDEF
DISK_WRITE.V.DVBYTE.VFC#
      6700**DCL      6700--REDEF
DPLIST$
      7078**DCL      7090--IMP-PTR
DPRESLIST$
      7092**DCL      7092--IMP-PTR
EFTWORD
      7213**DCL      7213--REDEF
FIRST_TAPE_VOL
      7213**DCL      7639<<ASSIGN
FLI$ALLOC
      7536**DCL-ENT  7608--CALL     7626--CALL
FPT_EXIT.V.STEPCC#
      6518**DCL      6518--REDEF
GET_TAPE_DCB
      7574**DCL      7630<>CALL
GET_TAPE_DCB.V
      7575**DCL      7574--DCLINIT
I
      7553**DCL      7611<<ASSIGN   7617<<ASSIGN   7617>>ASSIGN   7618>>ASSIGN   7628<<DOINDEX  7629>>CALLBLT
      7631>>ASSIGN   7632>>ASSIGN
LAST_SNLISTINFO$
      6501**DCL      7610>>ASSIGN
M$GETDCB
PL6.E3A0      #001=FLI$TAPE_IO_INIT File=FLI$TAPE.:E05TSI                        TUE 07/29/97 15:55 Page:20
      6051**DCL-ENT  7630--CALL
NBR_SNLISTS
      6505**DCL      7608>>CALL     7611>>ASSIGN   7626>>CALL     7628>>DOINDEX
PRE_RET_CLOSE.SN_
      7456**DCL      7456--REDEF
PRE_RET_CLOSE.UTL_
      7457**DCL      7457--REDEF
PRE_RET_CLOSE.V.EXPIRE#
      7471**DCL      7471--REDEF
PRE_RET_CLOSE.V.TYPE#
      7469**DCL      7469--REDEF
PRE_RET_CLOSE.V.XTNSIZE#
      7466**DCL      7466--REDEF    7468--REDEF
PRE_RET_OPEN.ACSVEH_
      7391**DCL      7392--REDEF
PRE_RET_OPEN.ALTKEYS_
      7397**DCL      7398--REDEF    7398--REDEF
PRE_RET_OPEN.HDR_
      7396**DCL      7397--REDEF
PRE_RET_OPEN.TAB_
      7395**DCL      7396--REDEF
PRE_RET_OPEN.UHL_
      7389**DCL      7390--REDEF    7390--REDEF
PRE_RET_OPEN.V.FSN#
      7429**DCL      7429--REDEF    7429--REDEF
PRE_RET_OPEN.WSN_
      7395**DCL      7395--REDEF
PRE_RET_READ.STATION_
      7246**DCL      7247--REDEF
PRE_RET_READ.V.DVBYTE.REREAD#
      7258**DCL      7258--REDEF
PRE_RET_READ.V.INDX#
      7256**DCL      7256--REDEF
PRE_RET_WRITE.STATION_
      7284**DCL      7284--REDEF
PRE_RET_WRITE.V.DVBYTE.VFC#
PL6.E3A0      #001=FLI$TAPE_IO_INIT File=FLI$TAPE.:E05TSI                        TUE 07/29/97 15:55 Page:21
      7291**DCL      7291--REDEF
RETURNED_DCB#
      7547**DCL      7575--DCLINIT  7631>>ASSIGN   7632--ASSIGN
RET_CMDS_NAME.L#
      7500**DCL      7500--IMP-SIZ
SNLISTINFO.PREVINFO$
      7584**DCL      7619>>ASSIGN
SNLISTINFO.SNLIST$
      7584**DCL      7613>>ASSIGN   7614>>ASSIGN
SNLISTINFO$
      7554**DCL      7584--IMP-PTR  7610<<ASSIGN   7612>>DOWHILE  7613>>ASSIGN   7614>>ASSIGN   7619<<ASSIGN
      7619>>ASSIGN
SNVECLIST
      7032**DCL      7608--CALL
SNVECLIST.SN_
      7032**DCL      7618<<ASSIGN
SNVECLIST$
      7032**DCL      7032--IMP-PTR  7608<>CALL     7618>>ASSIGN
SPEC.START
      7096**DCL      7097--REDEF
SPEC.STOP
      7097**DCL      7098--REDEF
SPECCHARS
      7096**DCL      7096--REDEF
TAPE_CLOSE.SN_
      6949**DCL      6949--REDEF
TAPE_CLOSE.UTL_
      6950**DCL      6950--REDEF
TAPE_CLOSE.V.EXPIRE#
      6964**DCL      6964--REDEF
TAPE_CLOSE.V.TYPE#
      6962**DCL      6962--REDEF
TAPE_CLOSE.V.XTNSIZE#
      6959**DCL      6959--REDEF    6961--REDEF
TAPE_DCBLIST
      6505**DCL      7626--CALL
PL6.E3A0      #001=FLI$TAPE_IO_INIT File=FLI$TAPE.:E05TSI                        TUE 07/29/97 15:55 Page:22
TAPE_DCBLIST.DCB#
      6505**DCL      7631<<ASSIGN
TAPE_DCBLIST.DCB$
      6505**DCL      7632<<ASSIGN
TAPE_DCBLIST$
      6505**DCL      6505--IMP-PTR  7626<>CALL     7631>>ASSIGN   7632>>ASSIGN
TAPE_OPEN.ACSVEH_
      6814**DCL      6815--REDEF
TAPE_OPEN.ALTKEYS_
      6820**DCL      6821--REDEF    6821--REDEF
TAPE_OPEN.HDR_
      6819**DCL      6820--REDEF
TAPE_OPEN.TAB_
      6818**DCL      6819--REDEF
TAPE_OPEN.UHL_
      6812**DCL      6813--REDEF    6813--REDEF
TAPE_OPEN.V.FSN#
      6852**DCL      6852--REDEF    6852--REDEF
TAPE_OPEN.V.VOL#
      6846**DCL      7639>>ASSIGN
TAPE_OPEN.WSN_
      6818**DCL      6818--REDEF
TAPE_READ.STATION_
      6876**DCL      6877--REDEF
TAPE_READ.V.DVBYTE.REREAD#
      6888**DCL      6888--REDEF
TAPE_READ.V.INDX#
      6886**DCL      6886--REDEF
TAPE_WRITE.STATION_
      6914**DCL      6914--REDEF
TAPE_WRITE.V.DVBYTE.VFC#
      6921**DCL      6921--REDEF
TVECTOR
      7044**DCL      7613<<ASSIGN   7618>>ASSIGN
TVECTOR.W1.VSIZE#
      7044**DCL      7614<<ASSIGN
PL6.E3A0      #001=FLI$TAPE_IO_INIT File=FLI$TAPE.:E05TSI                        TUE 07/29/97 15:55 Page:23
TVECTOR.W2
      7045**DCL      7046--REDEF
VLP_SN
      7599**DCL      7613--ASSIGN
VLP_SN.NUM#
      7599**DCL      7614>>ASSIGN   7614--ASSIGN
VLP_SN.SN#
      7599**DCL      7614--ASSIGN

PL6.E3A0      #002=FLI$TAPE_OPEN File=FLI$TAPE.:E05TSI                           TUE 07/29/97 15:55 Page:24
      107        1        /*T***********************************************************/
      108        2        /*T*                                                         */
      109        3        /*T* Copyright (c) Bull HN Information Systems Inc., 1997    */
      110        4        /*T*                                                         */
      111        5        /*T***********************************************************/
      112        6        FLI$TAPE_OPEN: PROC( NAME_, SN, FSN, USEFSN, NXTF, VOL, IFPARAM_, ERR, DCB# ) ALTRET
                 6            ;
      113        7        /*F*  NAME: FLI$TAPE_OPEN
      114        8              PURPOSE: Open current serial number lists for output.
      115        9         */
      116       10
      117       11    1   DCL NAME_ VECTOR DALIGNED;              /* Vector framing file name           */
      118       12    1   DCL 1 NAME REDEF NAME_,
      119       13    1         2 * BIT(36),
      120       14    1         2 PTR$ PTR;
      121       15    1   DCL SN CHAR(6) CALIGNED;                /* Returned current serial number     */
      122       16    1   DCL FSN SBIN ALIGNED;              /* Argument/returned file sequence number  */
      123       17    1   DCL USEFSN BIT(1) ALIGNED;              /* FSN to be used indicator           */
      124       18    1   DCL NXTF BIT(1) ALIGNED;                /* Specifies NXTF setting             */
      125       19    1   DCL VOL SBIN ALIGNED;                   /* Used if specified                  */
      126       20    1   DCL IFPARAM_ VECTOR DALIGNED;           /* IFPARAM                            */
      127       21    1   DCL ERR BIT(36) ALIGNED;                /* Returned ERR                       */
      128       22    1   DCL DCB# SBIN ALIGNED;                  /* Returned DCB#                      */
      129       23
      130       24         /***
      131       25          *** INCLUDE
      132       26          ***/
      133       27
      134       28        %INCLUDE B_ERRORS_C;
      135     1155        %INCLUDE CP_6_SUBS;
      136     1695        %INCLUDE CP_6;
      137     7254        %INCLUDE FLE_DATA_R;
      138    13205        %INCLUDE FLI_DATA_R;
      139    14619        %INCLUDE FLS_DATA_R;
      140    16419        %INCLUDE XUD_UTS_M;
      141    16501
      142    16502         /***
PL6.E3A0      #002=FLI$TAPE_OPEN File=FLI$TAPE.:E05TSI                           TUE 07/29/97 15:55 Page:25
      143    16503          *** ENTRY
      144    16504          ***/
      145    16505
      146    16506    1   DCL FLI$RPT_ERR ENTRY(5);
      147    16507    1   DCL FLI$ROLL_SNLISTS ENTRY;
      148    16508        %XUD$UTS_ENTRIES;
      149    16540
      150    16541        /***
      151    16542         *** SYMREF
      152    16543         ***/
      153    16544
      154    16545    1   DCL BREAK_CONTINUED BIT(1) SYMREF;
      155    16546    1   DCL BREAK_DCB# SBIN SYMREF;
      156    16547
      157    16548         /***
      158    16549          *** AUTO
      159    16550          ***/
      160    16551
      161    16552    1   DCL I SBIN AUTO;
      162    16553    1   DCL TAPE_VOL_DCB$ PTR AUTO;
      163    16554    1   DCL RETRY_NEEDED BIT(1) AUTO;
      164    16555    1   DCL OPEN_START_UTS UBIN WORD AUTO;
      165    16556
      166    16557         /***
      167    16558          *** BASED
      168    16559          ***/
      169    16560
      170    16561        %F$DCB(BASED="BASED(TAPE_VOL_DCB$)");
      171    16618        %B$TCB;
      172    16621        %B$ALT;
      173    16629        %VLP_NAME( FPTN=VLP_NAME,
      174    16630                   STCLASS="BASED(NAME.PTR$)",
      175    16631                   LEN=31 );
      176    16658
      177    16659        /****************************************/
      178    16660
      179    16661         /***
PL6.E3A0      #002=FLI$TAPE_OPEN File=FLI$TAPE.:E05TSI                           TUE 07/29/97 15:55 Page:26
      180    16662          *** If FSN is to be used, use it.  Otherwise use NAME_.
      181    16663          ***/
      182    16664
      183    16665    1      IF USEFSN
      184    16666    2       THEN DO;
      185    16667    2         TAPE_OPEN.NAME_ = VECTOR(ERASE);
      186    16668    2         TAPE_OPEN.V.FSN# = FSN;
      187    16669    2         END;
      188    16670    2       ELSE DO;
      189    16671    2         TAPE_OPEN.NAME_ = NAME_;
      190    16672    2         TAPE_OPEN.V.FSN# = 0;
      191    16673    2         END;
      192    16674
      193    16675    1      TAPE_OPEN.V.OPER.NXTF# = NXTF;
      194    16676
      195    16677        /*N* The following FPARAM/IFPARAM code will be unnecessary after C00N
      196    16678         *** since tape file management will permit FITless RESTRICT files.
      197    16679         *** The FIT only causes extra I/O anyway.
      198    16680         ***/
      199    16681
      200    16682        /*N*    IF TAPE_OPEN.V.FUN# = %IN# */
      201    16683        /*N*     THEN DO; */
      202    16684        /*N*       TAPE_OPEN.FPARAM_ = IFPARAM_; */
      203    16685    1      TAPE_OPEN.IFPARAM_ = VECTOR(NIL);
      204    16686        /*N*       END; */
      205    16687        /*N*     ELSE DO; */
      206    16688    1      TAPE_OPEN.FPARAM_ = VECTOR(NIL);
      207    16689        /*N*       TAPE_OPEN.IFPARAM_ = IFPARAM_; */
      208    16690        /*N*       END; */
      209    16691
      210    16692
      211    16693    1      ERR = '0'B;
      212    16694    1      EOVOL_DETECTED = '0'B;
      213    16695
      214    16696         /***
      215    16697          *** Open each DCB/snlist.
      216    16698          ***/
PL6.E3A0      #002=FLI$TAPE_OPEN File=FLI$TAPE.:E05TSI                           TUE 07/29/97 15:55 Page:27
      217    16699
      218    16700    1      RETRY_NEEDED = '1'B;
      219    16701    1      CALL M$TIME( GET_NOW_UTS );
      220    16702    1      OPEN_START_UTS = NOW_UTS;
      221    16703
      222    16704    2      DO WHILE(RETRY_NEEDED);
      223    16705    2         RETRY_NEEDED = '0'B;
      224    16706    2         FSN = 0;
      225    16707    3         DO I=0 TO NBR_SNLISTS-1;
      226    16708    3            TAPE_OPEN.SN_ = SNVECLIST.SN_(I);
      227    16709    3            TAPE_OPEN.V.DCB# = TAPE_DCBLIST.DCB#(I);
      228    16710    3            BREAK_DCB# = TAPE_OPEN.V.DCB#;
      229    16711    3            TAPE_VOL_DCB$ = TAPE_DCBLIST.DCB$(I);
      230    16712    3            CALL FLI_OPEN ALTRET( CHK_ERR );
      231    16713    3            IF FSN = 0
      232    16714    4             THEN DO;
      233    16715    4               DEST_TAPE_VOL = F$DCB.VOL#;
      234    16716    4               FSN = F$DCB.FSN#;
      235    16717    4               END;
      236    16718    3             ELSE IF FSN ~= F$DCB.FSN#     /* Make sure all FSNs are the same    */
      237    16719    4                THEN DO;
      238    16720    4                  CALL FLI_CLOSE_EM;
      239    16721    4                  CALL FLI_MOUNT_TIME;
      240    16722    4                  ERR = E_NO_FSN_MATCH;
      241    16723    4                  DCB# = 0;
      242    16724    4                  ALTRETURN;
      243    16725    4                  END;
      244    16726    3            END;
      245    16727    2         TAPE_VOL_DCB$ = TAPE_DCBLIST.DCB$(0);
      246    16728    2         SN = F$DCB.PSN#;
      247    16729
      248    16730    2         IF TAPE_OPEN.V.FUN# = %IN# AND (USEFSN OR NXTF)
      249    16731    2          THEN VLP_NAME = F$DCB.NAME#;
      250    16732
      251    16733    3         DO WHILE('0'B);
      252    16734    3   CHK_ERR: ;
      253    16735    3            IF B$TCB$->B$TCB.ALT$->B$ALT.ERR.CODE ~= %E$BADFSN OR I > 0
PL6.E3A0      #002=FLI$TAPE_OPEN File=FLI$TAPE.:E05TSI                           TUE 07/29/97 15:55 Page:28
      254    16736    4             THEN DO;       /* Only expect FSN error happening on master tape    */
      255    16737    4               DCB# = TAPE_DCBLIST.DCB#(I);
      256    16738    4               ERR = B$TCB$->B$TCB.ALT$->B$ALT.ERR;
      257    16739    4               CALL FLI_CLOSE_EM;
      258    16740    4               CALL FLI_MOUNT_TIME;
      259    16741    4               IF B$TCB$->B$TCB.ALT$->B$ALT.ERR.CODE ~= %E$EOSET
      260    16742    4                THEN IF FPT_EXIT.V.STEPCC# < %TAPE_ERROR
      261    16743    4                   THEN FPT_EXIT.V.STEPCC# = %TAPE_ERROR;
      262    16744    4               ALTRETURN;                  /* Other likely error is E$EOSET      */
      263    16745    4               END;
      264    16746    3            CALL FLI$ROLL_SNLISTS;
      265    16747    3            RETRY_NEEDED = '1'B;           /* Try to open tapes again            */
      266    16748    3            END;
      267    16749    2         END;
      268    16750    1      TAPE_OPEN.V.INITZ.SCRUB# = %NO#;
      269    16751    1      CALL FLI_MOUNT_TIME;
      270    16752    1      TAPE_OPEN.V.VOL# = 0;      /* Reset for normal sequential reel opening     */
      271    16753    1      RETURN;
      272    16754
      273    16755
      274    16756    1   FLI_MOUNT_TIME: PROC;
      275    16757
      276    16758         /***
      277    16759          *** Calculate the amount of time due to mounts.  Since we can't
      278    16760          *** readily tell if the tape was mounted already or not, we give
      279    16761          *** the operator a free second for each tape which is usually
      280    16762          *** more than necessary to complete open I/O.
      281    16763          ***/
      282    16764
      283    16765    2      CALL M$TIME( GET_NOW_UTS );
      284    16766    2      CALL XUD$UTS_DIFF(NOW_UTS,NOW_UTS,OPEN_START_UTS);
      285    16767    2      IF NOW_UTS > 128 * NBR_SNLISTS       /* 128 TICS (1.28 sec) * # tapes      */
      286    16768    2       THEN ACCUMULATED_MOUNT_TIME = ACCUMULATED_MOUNT_TIME + NOW_UTS - 128 *
             16768                NBR_SNLISTS;
      287    16769    2      RETURN;
      288    16770    2   END FLI_MOUNT_TIME;
      289    16771
PL6.E3A0      #002=FLI$TAPE_OPEN File=FLI$TAPE.:E05TSI                           TUE 07/29/97 15:55 Page:29
      290    16772    1   FLI_OPEN: PROC ALTRET;
      291    16773
      292    16774    2      BREAK_CONTINUED = '1'B;
      293    16775    3      DO WHILE( BREAK_CONTINUED );
      294    16776    3         BREAK_CONTINUED = '0'B;
      295    16777    3         CALL M$OPEN( TAPE_OPEN )
      296    16778    4          WHENRETURN DO;
      297    16779    4            RETURN;
      298    16780    4            END;
      299    16781    4          WHENALTRETURN DO;
      300    16782    4            IF B$TCB$->B$TCB.ALT$->B$ALT.ERR.CODE ~= %E$MNTBRK
      301    16783    4             THEN ALTRETURN;
      302    16784    4            END;
      303    16785    3         END;
      304    16786    2      ALTRETURN;
      305    16787
      306    16788    2   END FLI_OPEN;
      307    16789
      308    16790    1   FLI_CLOSE_EM: PROC;
      309    16791
      310    16792    2      TAPE_CLOSE.UTL_ = VECTOR(NIL);
      311    16793    3      DO I=0 TO NBR_SNLISTS-1;
      312    16794    3         IF TAPE_DCBLIST.DCB$(I)->F$DCB.FCD#
      313    16795    4          THEN DO;
      314    16796    4            TAPE_CLOSE.V.DCB# = TAPE_DCBLIST.DCB#(I);
      315    16797    4            CALL M$CLOSE( TAPE_CLOSE )
      316    16798    5             WHENALTRETURN DO;
      317    16799    5               END;
      318    16800    4            END;
      319    16801    3         END;
      320    16802    2      RETURN;
      321    16803
      322    16804    2   END FLI_CLOSE_EM;
      323    16805    1   END FLI$TAPE_OPEN;
      324    16806        %EOD;

PL6.E3A0      #002=FLI$TAPE_OPEN File=FLI$TAPE.:E05TSI                           TUE 07/29/97 15:55 Page:30
--  Include file information  --

   XUD_UTS_M.:E05TOU  is referenced.
   FLS_DATA_R.:E05TOU  cannot be made into a system file and is referenced.
   B_MICROPS_C.:E05TOU  is referenced.
   FLB_SUBS_C.:E05TOU  is referenced.
   FLI_DATA_R.:E05TOU  cannot be made into a system file and is referenced.
   FL_PERR_C.:E05TOU  is referenced.
   FLE_DATA_R.:E05TOU  cannot be made into a system file and is referenced.
   CP_6_C.:E05TOU  is referenced.
   CP_6.:E05TOU  cannot be made into a system file and is referenced.
   CP_6_SUBS.:E05TOU  is referenced.
   B_ERRORS_C.:E05TOU  is referenced.
      No diagnostics issued in procedure FLI$TAPE_OPEN.

   Procedure FLI$TAPE_OPEN requires 241 words for executable code.
   Procedure FLI$TAPE_OPEN requires 22 words of local(AUTO) storage.

PL6.E3A0      #002=FLI$TAPE_OPEN File=FLI$TAPE.:E05TSI                           TUE 07/29/97 15:55 Page:31

 Object Unit name= FLI$TAPE_OPEN                              File name= FLI$TAPE.:E05TOU
 UTS= JUL 29 '97 15:55:39.28 TUE                              Compiler= PL-6/E31         Sev=      00
 SharedLib= :SHARED_SYSTEM                                    Alt SharedLib=


    ****  Control sections  ****

 Sect   Type Bound  Init  Size OctSiz  Section name(segment info)
    0   DCB   even  none     0      0  M$UC
    1   DCB   even  none     0      0  M$PRE_RET
    2   Data  even  none    20     24  FLI$TAPE_OPEN
    3   DCB   even  none     0      0  M$TSN_USED
    4   DCB   even  none     0      0  M$STATUS
    5   DCB   even  none     0      0  M$REBUILD
    6   DCB   even  none     0      0  M$ARCHIVE
    7   DCB   even  none     0      0  M$NODATA_LIST
    8   Proc  even  none   241    361  FLI$TAPE_OPEN
    9  RoData even  none     8     10  FLI$TAPE_OPEN

    ****  Entry defs  ****

                              Check   Calling
                             calling  sequence
  Sect OctLoc Primary Altret sequence   type   Parms  Name
     8      0   yes    yes     yes      Std        9  FLI$TAPE_OPEN

  ****  Entry refs  ****

         Check        Calling
        calling       sequence
Altret sequence SRef   type   Args  Name
         yes           Std       0 FLI$ROLL_SNLISTS
 yes     yes           Std       3 XUD$UTS_DIFF
                       nStd      0 X66_AUTO_N
                       nStd      0 X66_AALT
                       Std       0 B_CONSPOOL_D
                       nStd      0 X66_ARET
PL6.E3A0      #002=FLI$TAPE_OPEN File=FLI$TAPE.:E05TSI                           TUE 07/29/97 15:55 Page:32

  ****  Data refs  ****

  Flags:  r = read only, s = secondary
Flgs Name                             Flgs Name                             Flgs Name
     M$UC                             r    E_NO_FSN_MATCH                        NBR_SNLISTS
     TAPE_DCBLIST$                         FPT_EXIT                              TAPE_OPEN
     TAPE_CLOSE                            SNVECLIST$                            B$TCB$
     EOVOL_DETECTED                        NOW_UTS                               GET_NOW_UTS
     ACCUMULATED_MOUNT_TIME                DPLIST$                               DPRESLIST$
     DISK_FILE_SPEC$                       SPECCHARS                             EFTWORD
     M$PRE_RET                             RET_CMDS_NAME                         M$TSN_USED
     M$STATUS                              M$REBUILD                             M$ARCHIVE
     M$NODATA_LIST                         BLK_TAG$                              BLK_TAG0$
     NBR_BYTES_TO_MOVE                     DISK_GRAN$                            BLOCK_GRAN$
r    EFT_CVOL_FILE                    r    EFT_RESTRICT_FILE                     DEST_TAPE_VOL
     TSN_USED_NAME                         BACKUP_NAME                      r    ARCHIVE_NAME
r    PRIME_FILE                       r    DUAL_FILE                             REBUILD_NAME
     REBUILD_DIR_KEY                       REBUILD_KEY                           NODATA_FILE_NAME
     NODATA_KEY                            BREAK_CONTINUED                       BREAK_DCB#
     B_VECTNIL

  ****  Segment refs  ****

  Flags:  r = read only, s = secondary
Flgs Name                             Flgs Name                             Flgs Name
     ISSID                                 NULLSID
PL6.E3A0      #002=FLI$TAPE_OPEN File=FLI$TAPE.:E05TSI                           TUE 07/29/97 15:55 Page:33


      107        1        /*T***********************************************************/
      108        2        /*T*                                                         */
      109        3        /*T* Copyright (c) Bull HN Information Systems Inc., 1997    */
      110        4        /*T*                                                         */
      111        5        /*T***********************************************************/
      112        6       FLI$TAPE_OPEN: PROC( NAME_, SN, FSN, USEFSN, NXTF, VOL, IFPARAM_, ERR, DCB# ) ALTRET
                 6            ;

      6  8 000000   000000 700200 xent  FLI$TAPE_OP* TSX0  ! X66_AUTO_N
         8 000001   000026 000011                    ZERO    22,9

      113        7        /*F*  NAME: FLI$TAPE_OPEN
      114        8              PURPOSE: Open current serial number lists for output.
      115        9         */
      116       10
      117       11    1   DCL NAME_ VECTOR DALIGNED;              /* Vector framing file name           */
      118       12    1   DCL 1 NAME REDEF NAME_,
      119       13    1         2 * BIT(36),
      120       14    1         2 PTR$ PTR;
      121       15    1   DCL SN CHAR(6) CALIGNED;                /* Returned current serial number     */
      122       16    1   DCL FSN SBIN ALIGNED;              /* Argument/returned file sequence number  */
      123       17    1   DCL USEFSN BIT(1) ALIGNED;              /* FSN to be used indicator           */
      124       18    1   DCL NXTF BIT(1) ALIGNED;                /* Specifies NXTF setting             */
      125       19    1   DCL VOL SBIN ALIGNED;                   /* Used if specified                  */
      126       20    1   DCL IFPARAM_ VECTOR DALIGNED;           /* IFPARAM                            */
      127       21    1   DCL ERR BIT(36) ALIGNED;                /* Returned ERR                       */
      128       22    1   DCL DCB# SBIN ALIGNED;                  /* Returned DCB#                      */
      129       23
      130       24         /***
      131       25          *** INCLUDE
      132       26          ***/
      133       27
      134       28        %INCLUDE B_ERRORS_C;
      135     1155        %INCLUDE CP_6_SUBS;
      136     1695        %INCLUDE CP_6;
      137     7254        %INCLUDE FLE_DATA_R;
PL6.E3A0      #002=FLI$TAPE_OPEN File=FLI$TAPE.:E05TSI                           TUE 07/29/97 15:55 Page:34
      138    13205        %INCLUDE FLI_DATA_R;
      139    14619        %INCLUDE FLS_DATA_R;
      140    16419        %INCLUDE XUD_UTS_M;
      141    16501
      142    16502         /***
      143    16503          *** ENTRY
      144    16504          ***/
      145    16505
      146    16506    1   DCL FLI$RPT_ERR ENTRY(5);
      147    16507    1   DCL FLI$ROLL_SNLISTS ENTRY;
      148    16508        %XUD$UTS_ENTRIES;
      149    16540
      150    16541        /***
      151    16542         *** SYMREF
      152    16543         ***/
      153    16544
      154    16545    1   DCL BREAK_CONTINUED BIT(1) SYMREF;
      155    16546    1   DCL BREAK_DCB# SBIN SYMREF;
      156    16547
      157    16548         /***
      158    16549          *** AUTO
      159    16550          ***/
      160    16551
      161    16552    1   DCL I SBIN AUTO;
      162    16553    1   DCL TAPE_VOL_DCB$ PTR AUTO;
      163    16554    1   DCL RETRY_NEEDED BIT(1) AUTO;
      164    16555    1   DCL OPEN_START_UTS UBIN WORD AUTO;
      165    16556
      166    16557         /***
      167    16558          *** BASED
      168    16559          ***/
      169    16560
      170    16561        %F$DCB(BASED="BASED(TAPE_VOL_DCB$)");
      171    16618        %B$TCB;
      172    16621        %B$ALT;
      173    16629        %VLP_NAME( FPTN=VLP_NAME,
      174    16630                   STCLASS="BASED(NAME.PTR$)",
PL6.E3A0      #002=FLI$TAPE_OPEN File=FLI$TAPE.:E05TSI                           TUE 07/29/97 15:55 Page:35
      175    16631                   LEN=31 );
      176    16658
      177    16659        /****************************************/
      178    16660
      179    16661         /***
      180    16662          *** If FSN is to be used, use it.  Otherwise use NAME_.
      181    16663          ***/
      182    16664
      183    16665    1      IF USEFSN

  16665  8 000002   200006 470500                    LDP0    @USEFSN,,AUTO
         8 000003   000000 234100                    SZN     0,,PR0
         8 000004   000013 605000 8                  TPL     s:16671

      184    16666    2       THEN DO;

      185    16667    2         TAPE_OPEN.NAME_ = VECTOR(ERASE);

  16667  8 000005   000000 237000 9                  LDAQ    0
         8 000006   000006 757000 xsym               STAQ    TAPE_OPEN+6

      186    16668    2         TAPE_OPEN.V.FSN# = FSN;

  16668  8 000007   200005 471500                    LDP1    @FSN,,AUTO
         8 000010   100000 720100                    LXL0    0,,PR1
         8 000011   000066 740000 xsym               STX0    TAPE_OPEN+54

      187    16669    2         END;

  16669  8 000012   000020 710000 8                  TRA     s:16675

      188    16670    2       ELSE DO;

      189    16671    2         TAPE_OPEN.NAME_ = NAME_;

  16671  8 000013   200003 471500                    LDP1    @NAME_,,AUTO
         8 000014   100000 237100                    LDAQ    0,,PR1
PL6.E3A0      #002=FLI$TAPE_OPEN File=FLI$TAPE.:E05TSI                           TUE 07/29/97 15:55 Page:36
         8 000015   000006 757000 xsym               STAQ    TAPE_OPEN+6

      190    16672    2         TAPE_OPEN.V.FSN# = 0;

  16672  8 000016   000000 220003                    LDX0    0,DU
         8 000017   000066 740000 xsym               STX0    TAPE_OPEN+54

      191    16673    2         END;

      192    16674
      193    16675    1      TAPE_OPEN.V.OPER.NXTF# = NXTF;

  16675  8 000020   200007 471500                    LDP1    @NXTF,,AUTO
         8 000021   100000 236100                    LDQ     0,,PR1
         8 000022   000030 772000                    QRL     24
         8 000023   000044 676000 xsym               ERQ     TAPE_OPEN+36
         8 000024   004000 376007                    ANQ     2048,DL
         8 000025   000044 656000 xsym               ERSQ    TAPE_OPEN+36

      194    16676
      195    16677        /*N* The following FPARAM/IFPARAM code will be unnecessary after C00N
      196    16678         *** since tape file management will permit FITless RESTRICT files.
      197    16679         *** The FIT only causes extra I/O anyway.
      198    16680         ***/
      199    16681
      200    16682        /*N*    IF TAPE_OPEN.V.FUN# = %IN# */
      201    16683        /*N*     THEN DO; */
      202    16684        /*N*       TAPE_OPEN.FPARAM_ = IFPARAM_; */
      203    16685    1      TAPE_OPEN.IFPARAM_ = VECTOR(NIL);

  16685  8 000026   000002 237000 9                  LDAQ    2
         8 000027   000026 757000 xsym               STAQ    TAPE_OPEN+22

      204    16686        /*N*       END; */
      205    16687        /*N*     ELSE DO; */
      206    16688    1      TAPE_OPEN.FPARAM_ = VECTOR(NIL);

PL6.E3A0      #002=FLI$TAPE_OPEN File=FLI$TAPE.:E05TSI                           TUE 07/29/97 15:55 Page:37
  16688  8 000030   000002 237000 9                  LDAQ    2
         8 000031   000030 757000 xsym               STAQ    TAPE_OPEN+24

      207    16689        /*N*       TAPE_OPEN.IFPARAM_ = IFPARAM_; */
      208    16690        /*N*       END; */
      209    16691
      210    16692
      211    16693    1      ERR = '0'B;

  16693  8 000032   200012 473500                    LDP3    @ERR,,AUTO
         8 000033   300000 450100                    STZ     0,,PR3

      212    16694    1      EOVOL_DETECTED = '0'B;

  16694  8 000034   000000 450000 xsym               STZ     EOVOL_DETECTED

      213    16695
      214    16696         /***
      215    16697          *** Open each DCB/snlist.
      216    16698          ***/
      217    16699
      218    16700    1      RETRY_NEEDED = '1'B;

  16700  8 000035   400000 236003                    LDQ     -131072,DU
         8 000036   200016 756100                    STQ     RETRY_NEEDED,,AUTO

      219    16701    1      CALL M$TIME( GET_NOW_UTS );

  16701  8 000037   000000 630400 xsym               EPPR0   GET_NOW_UTS
         8 000040   020004 713400                    CLIMB   8196
         8 000041   402000 401760                    pmme    nvectors=5

      220    16702    1      OPEN_START_UTS = NOW_UTS;

  16702  8 000042   000000 235000 xsym               LDA     NOW_UTS
         8 000043   200017 755100                    STA     OPEN_START_UTS,,AUTO

PL6.E3A0      #002=FLI$TAPE_OPEN File=FLI$TAPE.:E05TSI                           TUE 07/29/97 15:55 Page:38
      221    16703
      222    16704    2      DO WHILE(RETRY_NEEDED);

  16704  8 000044   200016 234100                    SZN     RETRY_NEEDED,,AUTO
         8 000045   000237 605000 8                  TPL     s:16750

      223    16705    2         RETRY_NEEDED = '0'B;

  16705  8 000046   200016 450100                    STZ     RETRY_NEEDED,,AUTO

      224    16706    2         FSN = 0;

  16706  8 000047   200005 470500                    LDP0    @FSN,,AUTO
         8 000050   000000 450100                    STZ     0,,PR0

      225    16707    3         DO I=0 TO NBR_SNLISTS-1;

  16707  8 000051   200014 450100                    STZ     I,,AUTO
         8 000052   000131 710000 8                  TRA     s:16726+1

      226    16708    3            TAPE_OPEN.SN_ = SNVECLIST.SN_(I);

  16708  8 000053   200014 235100                    LDA     I,,AUTO
         8 000054   000001 735000                    ALS     1
         8 000055   000000 470400 xsym               LDP0    SNVECLIST$
         8 000056   000000 237105                    LDAQ    0,AL,PR0
         8 000057   000002 757000 xsym               STAQ    TAPE_OPEN+2

      227    16709    3            TAPE_OPEN.V.DCB# = TAPE_DCBLIST.DCB#(I);

  16709  8 000060   200014 235100                    LDA     I,,AUTO
         8 000061   000001 735000                    ALS     1
         8 000062   000000 471400 xsym               LDP1    TAPE_DCBLIST$
         8 000063   100000 720105                    LXL0    0,AL,PR1
         8 000064   000044 740000 xsym               STX0    TAPE_OPEN+36

      228    16710    3            BREAK_DCB# = TAPE_OPEN.V.DCB#;
PL6.E3A0      #002=FLI$TAPE_OPEN File=FLI$TAPE.:E05TSI                           TUE 07/29/97 15:55 Page:39

  16710  8 000065   000044 235000 xsym               LDA     TAPE_OPEN+36
         8 000066   000022 771000                    ARL     18
         8 000067   000000 755000 xsym               STA     BREAK_DCB#

      229    16711    3            TAPE_VOL_DCB$ = TAPE_DCBLIST.DCB$(I);

  16711  8 000070   200014 235100                    LDA     I,,AUTO
         8 000071   000001 735000                    ALS     1
         8 000072   100001 236105                    LDQ     1,AL,PR1
         8 000073   200015 756100                    STQ     TAPE_VOL_DCB$,,AUTO

      230    16712    3            CALL FLI_OPEN ALTRET( CHK_ERR );

  16712  8 000074   000300 701000 8                  TSX1    FLI_OPEN
         8 000075   000164 702000 8                  TSX2    CHK_ERR

      231    16713    3            IF FSN = 0

  16713  8 000076   200005 470500                    LDP0    @FSN,,AUTO
         8 000077   000000 235100                    LDA     0,,PR0
         8 000100   000111 601000 8                  TNZ     s:16718

      232    16714    4             THEN DO;

      233    16715    4               DEST_TAPE_VOL = F$DCB.VOL#;

  16715  8 000101   200015 471500                    LDP1    TAPE_VOL_DCB$,,AUTO
         8 000102   100043 236100                    LDQ     35,,PR1
         8 000103   000033 772000                    QRL     27
         8 000104   000000 756000 xsym               STQ     DEST_TAPE_VOL

      234    16716    4               FSN = F$DCB.FSN#;

  16716  8 000105   100034 236100                    LDQ     28,,PR1
         8 000106   000022 772000                    QRL     18
         8 000107   000000 756100                    STQ     0,,PR0
PL6.E3A0      #002=FLI$TAPE_OPEN File=FLI$TAPE.:E05TSI                           TUE 07/29/97 15:55 Page:40

      235    16717    4               END;

  16717  8 000110   000130 710000 8                  TRA     s:16726

      236    16718    3             ELSE IF FSN ~= F$DCB.FSN#     /* Make sure all FSNs are the same    */

  16718  8 000111   200015 471500                    LDP1    TAPE_VOL_DCB$,,AUTO
         8 000112   100034 236100                    LDQ     28,,PR1
         8 000113   000022 772000                    QRL     18
         8 000114   000000 116100                    CMPQ    0,,PR0
         8 000115   000130 600000 8                  TZE     s:16726

      237    16719    4                THEN DO;

      238    16720    4                  CALL FLI_CLOSE_EM;

  16720  8 000116   000330 701000 8                  TSX1    FLI_CLOSE_EM
         8 000117   000000 011000                    NOP     0

      239    16721    4                  CALL FLI_MOUNT_TIME;

  16721  8 000120   000246 701000 8                  TSX1    FLI_MOUNT_TIME
         8 000121   000000 011000                    NOP     0

      240    16722    4                  ERR = E_NO_FSN_MATCH;

  16722  8 000122   000000 236000 xsym               LDQ     E_NO_FSN_MATCH
         8 000123   200012 470500                    LDP0    @ERR,,AUTO
         8 000124   000000 756100                    STQ     0,,PR0

      241    16723    4                  DCB# = 0;

  16723  8 000125   200013 471500                    LDP1    @DCB#,,AUTO
         8 000126   100000 450100                    STZ     0,,PR1

      242    16724    4                  ALTRETURN;
PL6.E3A0      #002=FLI$TAPE_OPEN File=FLI$TAPE.:E05TSI                           TUE 07/29/97 15:55 Page:41

  16724  8 000127   000000 702200 xent               TSX2  ! X66_AALT

      243    16725    4                  END;
      244    16726    3            END;

  16726  8 000130   200014 054100                    AOS     I,,AUTO
         8 000131   200014 236100                    LDQ     I,,AUTO
         8 000132   000000 116000 xsym               CMPQ    NBR_SNLISTS
         8 000133   000053 604000 8                  TMI     s:16708

      245    16727    2         TAPE_VOL_DCB$ = TAPE_DCBLIST.DCB$(0);

  16727  8 000134   000000 471400 xsym               LDP1    TAPE_DCBLIST$
         8 000135   100001 236100                    LDQ     1,,PR1
         8 000136   200015 756100                    STQ     TAPE_VOL_DCB$,,AUTO

      246    16728    2         SN = F$DCB.PSN#;

  16728  8 000137   200015 473500                    LDP3    TAPE_VOL_DCB$,,AUTO
         8 000140   200004 474500                    LDP4    @SN,,AUTO
         8 000141   040100 100500                    MLR     fill='040'O
         8 000142   300024 000006                    ADSC9   20,,PR3                  cn=0,n=6
         8 000143   400000 000006                    ADSC9   0,,PR4                   cn=0,n=6

      247    16729
      248    16730    2         IF TAPE_OPEN.V.FUN# = %IN# AND (USEFSN OR NXTF)

  16730  8 000144   000045 236000 xsym               LDQ     TAPE_OPEN+37
         8 000145   777000 376007                    ANQ     -512,DL
         8 000146   002000 116007                    CMPQ    1024,DL
         8 000147   000163 601000 8                  TNZ     s:16733
         8 000150   200006 471500                    LDP1    @USEFSN,,AUTO
         8 000151   100000 234100                    SZN     0,,PR1
         8 000152   000156 604000 8                  TMI     s:16731
         8 000153   200007 475500                    LDP5    @NXTF,,AUTO
         8 000154   500000 234100                    SZN     0,,PR5
PL6.E3A0      #002=FLI$TAPE_OPEN File=FLI$TAPE.:E05TSI                           TUE 07/29/97 15:55 Page:42
         8 000155   000163 605000 8                  TPL     s:16733

      249    16731    2          THEN VLP_NAME = F$DCB.NAME#;

  16731  8 000156   200003 475500                    LDP5    @NAME_,,AUTO
         8 000157   500001 476500                    LDP6    1,,PR5
         8 000160   000100 100500                    MLR     fill='000'O
         8 000161   300010 000040                    ADSC9   8,,PR3                   cn=0,n=32
         8 000162   600000 000040                    ADSC9   0,,PR6                   cn=0,n=32

      250    16732
      251    16733    3         DO WHILE('0'B);

  16733  8 000163   000235 710000 8                  TRA     s:16749

  16731  8 000164                       CHK_ERR      null
      252    16734    3   CHK_ERR: ;
      253    16735    3            IF B$TCB$->B$TCB.ALT$->B$ALT.ERR.CODE ~= %E$BADFSN OR I > 0

  16735  8 000164   000000 470400 xsym               LDP0    B$TCB$
         8 000165   000000 471500                    LDP1    0,,PR0
         8 000166   100102 236100                    LDQ     66,,PR1
         8 000167   377770 376007                    ANQ     131064,DL
         8 000170   013120 116007                    CMPQ    5712,DL
         8 000171   000174 601000 8                  TNZ     s:16737
         8 000172   200014 235100                    LDA     I,,AUTO
         8 000173   000230 604400 8                  TMOZ    s:16746

      254    16736    4             THEN DO;       /* Only expect FSN error happening on master tape    */

      255    16737    4               DCB# = TAPE_DCBLIST.DCB#(I);

  16737  8 000174   200014 235100                    LDA     I,,AUTO
         8 000175   000001 735000                    ALS     1
         8 000176   000000 473400 xsym               LDP3    TAPE_DCBLIST$
         8 000177   200013 474500                    LDP4    @DCB#,,AUTO
         8 000200   300000 235105                    LDA     0,AL,PR3
PL6.E3A0      #002=FLI$TAPE_OPEN File=FLI$TAPE.:E05TSI                           TUE 07/29/97 15:55 Page:43
         8 000201   400000 755100                    STA     0,,PR4

      256    16738    4               ERR = B$TCB$->B$TCB.ALT$->B$ALT.ERR;

  16738  8 000202   000000 470400 xsym               LDP0    B$TCB$
         8 000203   000000 471500                    LDP1    0,,PR0
         8 000204   100102 236100                    LDQ     66,,PR1
         8 000205   200012 473500                    LDP3    @ERR,,AUTO
         8 000206   300000 756100                    STQ     0,,PR3

      257    16739    4               CALL FLI_CLOSE_EM;

  16739  8 000207   000330 701000 8                  TSX1    FLI_CLOSE_EM
         8 000210   000000 011000                    NOP     0

      258    16740    4               CALL FLI_MOUNT_TIME;

  16740  8 000211   000246 701000 8                  TSX1    FLI_MOUNT_TIME
         8 000212   000000 011000                    NOP     0

      259    16741    4               IF B$TCB$->B$TCB.ALT$->B$ALT.ERR.CODE ~= %E$EOSET

  16741  8 000213   000000 470400 xsym               LDP0    B$TCB$
         8 000214   000000 471500                    LDP1    0,,PR0
         8 000215   100102 236100                    LDQ     66,,PR1
         8 000216   377770 376007                    ANQ     131064,DL
         8 000217   013140 116007                    CMPQ    5728,DL
         8 000220   000227 600000 8                  TZE     s:16744

      260    16742    4                THEN IF FPT_EXIT.V.STEPCC# < %TAPE_ERROR

  16742  8 000221   000004 236000 xsym               LDQ     FPT_EXIT+4
         8 000222   777000 376003                    ANQ     -512,DU
         8 000223   004000 116003                    CMPQ    2048,DU
         8 000224   000227 603000 8                  TRC     s:16744

      261    16743    4                   THEN FPT_EXIT.V.STEPCC# = %TAPE_ERROR;
PL6.E3A0      #002=FLI$TAPE_OPEN File=FLI$TAPE.:E05TSI                           TUE 07/29/97 15:55 Page:44

  16743  8 000225   004000 236003                    LDQ     2048,DU
         8 000226   000004 552040 xsym               STBQ    FPT_EXIT+4,'40'O

      262    16744    4               ALTRETURN;                  /* Other likely error is E$EOSET      */

  16744  8 000227   000000 702200 xent               TSX2  ! X66_AALT

      263    16745    4               END;
      264    16746    3            CALL FLI$ROLL_SNLISTS;

  16746  8 000230   000002 631400 xsym               EPPR1   B_VECTNIL+2
         8 000231   000000 701000 xent               TSX1    FLI$ROLL_SNLISTS
         8 000232   000000 011000                    NOP     0

      265    16747    3            RETRY_NEEDED = '1'B;           /* Try to open tapes again            */

  16747  8 000233   400000 236003                    LDQ     -131072,DU
         8 000234   200016 756100                    STQ     RETRY_NEEDED,,AUTO

      266    16748    3            END;

      267    16749    2         END;

  16749  8 000235   200016 234100                    SZN     RETRY_NEEDED,,AUTO
         8 000236   000046 604000 8                  TMI     s:16705

      268    16750    1      TAPE_OPEN.V.INITZ.SCRUB# = %NO#;

  16750  8 000237   000004 236000 9                  LDQ     4
         8 000240   000044 356000 xsym               ANSQ    TAPE_OPEN+36

      269    16751    1      CALL FLI_MOUNT_TIME;

  16751  8 000241   000246 701000 8                  TSX1    FLI_MOUNT_TIME
         8 000242   000000 011000                    NOP     0

PL6.E3A0      #002=FLI$TAPE_OPEN File=FLI$TAPE.:E05TSI                           TUE 07/29/97 15:55 Page:45
      270    16752    1      TAPE_OPEN.V.VOL# = 0;      /* Reset for normal sequential reel opening     */

  16752  8 000243   000000 236003                    LDQ     0,DU
         8 000244   000061 552040 xsym               STBQ    TAPE_OPEN+49,'40'O

      271    16753    1      RETURN;

  16753  8 000245   000000 702200 xent               TSX2  ! X66_ARET

      272    16754
      273    16755
      274    16756    1   FLI_MOUNT_TIME: PROC;

  16756  8 000246   200020 741300       FLI_MOUNT_T* STX1  ! OPEN_START_UTS+1,,AUTO

      275    16757
      276    16758         /***
      277    16759          *** Calculate the amount of time due to mounts.  Since we can't
      278    16760          *** readily tell if the tape was mounted already or not, we give
      279    16761          *** the operator a free second for each tape which is usually
      280    16762          *** more than necessary to complete open I/O.
      281    16763          ***/
      282    16764
      283    16765    2      CALL M$TIME( GET_NOW_UTS );

  16765  8 000247   000000 630400 xsym               EPPR0   GET_NOW_UTS
         8 000250   020004 713400                    CLIMB   8196
         8 000251   402000 401760                    pmme    nvectors=5

      284    16766    2      CALL XUD$UTS_DIFF(NOW_UTS,NOW_UTS,OPEN_START_UTS);

  16766  8 000252   200017 630500                    EPPR0   OPEN_START_UTS,,AUTO
         8 000253   200024 450500                    STP0    OPEN_START_UTS+5,,AUTO
         8 000254   000006 237000 9                  LDAQ    6
         8 000255   200022 757100                    STAQ    OPEN_START_UTS+3,,AUTO
         8 000256   200022 630500                    EPPR0   OPEN_START_UTS+3,,AUTO
         8 000257   000021 631400 xsym               EPPR1   B_VECTNIL+17
PL6.E3A0      #002=FLI$TAPE_OPEN File=FLI$TAPE.:E05TSI                           TUE 07/29/97 15:55 Page:46
         8 000260   000000 701000 xent               TSX1    XUD$UTS_DIFF
         8 000261   000000 011000                    NOP     0

      285    16767    2      IF NOW_UTS > 128 * NBR_SNLISTS       /* 128 TICS (1.28 sec) * # tapes      */

  16767  8 000262   000000 236000 xsym               LDQ     NBR_SNLISTS
         8 000263   000007 736000                    QLS     7
         8 000264   000267 604000 8                  TMI     s:16768
         8 000265   000000 116000 xsym               CMPQ    NOW_UTS
         8 000266   000276 603000 8                  TRC     s:16769

      286    16768    2       THEN ACCUMULATED_MOUNT_TIME = ACCUMULATED_MOUNT_TIME + NOW_UTS - 128 *
             16768                NBR_SNLISTS;

  16768  8 000267   000000 236000 xsym               LDQ     ACCUMULATED_MOUNT_TIME
         8 000270   000000 036000 xsym               ADLQ    NOW_UTS
         8 000271   200022 756100                    STQ     OPEN_START_UTS+3,,AUTO
         8 000272   000000 336000 xsym               LCQ     NBR_SNLISTS
         8 000273   000007 736000                    QLS     7
         8 000274   200022 036100                    ADLQ    OPEN_START_UTS+3,,AUTO
         8 000275   000000 756000 xsym               STQ     ACCUMULATED_MOUNT_TIME

      287    16769    2      RETURN;

  16769  8 000276   200020 221300                    LDX1  ! OPEN_START_UTS+1,,AUTO
         8 000277   000001 702211                    TSX2  ! 1,X1

      288    16770    2   END FLI_MOUNT_TIME;
      289    16771
      290    16772    1   FLI_OPEN: PROC ALTRET;

  16772  8 000300   200020 741300       FLI_OPEN     STX1  ! OPEN_START_UTS+1,,AUTO

      291    16773
      292    16774    2      BREAK_CONTINUED = '1'B;

  16774  8 000301   400000 236003                    LDQ     -131072,DU
PL6.E3A0      #002=FLI$TAPE_OPEN File=FLI$TAPE.:E05TSI                           TUE 07/29/97 15:55 Page:47
         8 000302   000000 756000 xsym               STQ     BREAK_CONTINUED

      293    16775    3      DO WHILE( BREAK_CONTINUED );

  16775  8 000303   000000 234000 xsym               SZN     BREAK_CONTINUED
         8 000304   000326 605000 8                  TPL     s:16786

      294    16776    3         BREAK_CONTINUED = '0'B;

  16776  8 000305   000000 450000 xsym               STZ     BREAK_CONTINUED

      295    16777    3         CALL M$OPEN( TAPE_OPEN )

  16777  8 000306   000000 630400 xsym               EPPR0   TAPE_OPEN
         8 000307   450000 713400                    CLIMB   alt,open
         8 000310   410400 401760                    pmme    nvectors=18
         8 000311   000314 702000 8                  TSX2    s:16782

      296    16778    4          WHENRETURN DO;

      297    16779    4            RETURN;

  16779  8 000312   200020 221300                    LDX1  ! OPEN_START_UTS+1,,AUTO
         8 000313   000001 702211                    TSX2  ! 1,X1

      298    16780    4            END;
      299    16781    4          WHENALTRETURN DO;

      300    16782    4            IF B$TCB$->B$TCB.ALT$->B$ALT.ERR.CODE ~= %E$MNTBRK

  16782  8 000314   000000 470400 xsym               LDP0    B$TCB$
         8 000315   000000 471500                    LDP1    0,,PR0
         8 000316   100102 236100                    LDQ     66,,PR1
         8 000317   377770 376007                    ANQ     131064,DL
         8 000320   012200 116007                    CMPQ    5248,DL
         8 000321   000324 600000 8                  TZE     s:16785

PL6.E3A0      #002=FLI$TAPE_OPEN File=FLI$TAPE.:E05TSI                           TUE 07/29/97 15:55 Page:48
      301    16783    4             THEN ALTRETURN;

  16783  8 000322   200020 221300                    LDX1  ! OPEN_START_UTS+1,,AUTO
         8 000323   000000 702211                    TSX2  ! 0,X1

      302    16784    4            END;
      303    16785    3         END;

  16785  8 000324   000000 234000 xsym               SZN     BREAK_CONTINUED
         8 000325   000305 604000 8                  TMI     s:16776

      304    16786    2      ALTRETURN;

  16786  8 000326   200020 221300                    LDX1  ! OPEN_START_UTS+1,,AUTO
         8 000327   000000 702211                    TSX2  ! 0,X1

      305    16787
      306    16788    2   END FLI_OPEN;
      307    16789
      308    16790    1   FLI_CLOSE_EM: PROC;

  16790  8 000330   200020 741300       FLI_CLOSE_EM STX1  ! OPEN_START_UTS+1,,AUTO

      309    16791
      310    16792    2      TAPE_CLOSE.UTL_ = VECTOR(NIL);

  16792  8 000331   000002 237000 9                  LDAQ    2
         8 000332   000004 757000 xsym               STAQ    TAPE_CLOSE+4

      311    16793    3      DO I=0 TO NBR_SNLISTS-1;

  16793  8 000333   200014 450100                    STZ     I,,AUTO
         8 000334   000354 710000 8                  TRA     s:16801+1

      312    16794    3         IF TAPE_DCBLIST.DCB$(I)->F$DCB.FCD#

  16794  8 000335   200014 235100                    LDA     I,,AUTO
PL6.E3A0      #002=FLI$TAPE_OPEN File=FLI$TAPE.:E05TSI                           TUE 07/29/97 15:55 Page:49
         8 000336   000001 735000                    ALS     1
         8 000337   000000 470400 xsym               LDP0    TAPE_DCBLIST$
         8 000340   000001 471505                    LDP1    1,AL,PR0
         8 000341   100031 236100                    LDQ     25,,PR1
         8 000342   020000 316007                    CANQ    8192,DL
         8 000343   000353 600000 8                  TZE     s:16801

      313    16795    4          THEN DO;

      314    16796    4            TAPE_CLOSE.V.DCB# = TAPE_DCBLIST.DCB#(I);

  16796  8 000344   000000 720105                    LXL0    0,AL,PR0
         8 000345   000032 740000 xsym               STX0    TAPE_CLOSE+26

      315    16797    4            CALL M$CLOSE( TAPE_CLOSE )

  16797  8 000346   000000 630400 xsym               EPPR0   TAPE_CLOSE
         8 000347   450001 713400                    CLIMB   alt,close
         8 000350   406000 401760                    pmme    nvectors=13
         8 000351   000353 702000 8                  TSX2    s:16801
         8 000352   000353 710000 8                  TRA     s:16801

      316    16798    5             WHENALTRETURN DO;

      317    16799    5               END;

      318    16800    4            END;

      319    16801    3         END;

  16801  8 000353   200014 054100                    AOS     I,,AUTO
         8 000354   200014 236100                    LDQ     I,,AUTO
         8 000355   000000 116000 xsym               CMPQ    NBR_SNLISTS
         8 000356   000335 604000 8                  TMI     s:16794

      320    16802    2      RETURN;

PL6.E3A0      #002=FLI$TAPE_OPEN File=FLI$TAPE.:E05TSI                           TUE 07/29/97 15:55 Page:50
  16802  8 000357   200020 221300                    LDX1  ! OPEN_START_UTS+1,,AUTO
         8 000360   000001 702211                    TSX2  ! 1,X1
      321    16803
      322    16804    2   END FLI_CLOSE_EM;
      323    16805    1   END FLI$TAPE_OPEN;
      324    16806        %EOD;

PL6.E3A0      #002=FLI$TAPE_OPEN File=FLI$TAPE.:E05TSI                           TUE 07/29/97 15:55 Page:51
--  Include file information  --

   XUD_UTS_M.:E05TOU  is referenced.
   FLS_DATA_R.:E05TOU  cannot be made into a system file and is referenced.
   B_MICROPS_C.:E05TOU  is referenced.
   FLB_SUBS_C.:E05TOU  is referenced.
   FLI_DATA_R.:E05TOU  cannot be made into a system file and is referenced.
   FL_PERR_C.:E05TOU  is referenced.
   FLE_DATA_R.:E05TOU  cannot be made into a system file and is referenced.
   CP_6_C.:E05TOU  is referenced.
   CP_6.:E05TOU  cannot be made into a system file and is referenced.
   CP_6_SUBS.:E05TOU  is referenced.
   B_ERRORS_C.:E05TOU  is referenced.
      No diagnostics issued in procedure FLI$TAPE_OPEN.
PL6.E3A0      #002=FLI$TAPE_OPEN File=FLI$TAPE.:E05TSI                           TUE 07/29/97 15:55 Page:52

 **** Variables and constants ****

  ****  Section 002  Data  FLI$TAPE_OPEN

  ****  Scalars and arrays  ****
OctLoc.c.b A Datatyp(siz) R M Lvl/name                 OctLoc.c.b A Datatyp(siz) R M Lvl/name

    12-0-0/d STRC(360)   r     1 DEL_NODATA_REC

  ****  Auto variables  ****

  ****  Scalars and arrays  ****
OctLoc.c.b A Datatyp(siz) R M Lvl/name                 OctLoc.c.b A Datatyp(siz) R M Lvl/name

    13-0-0/w PTR         r     1 @DCB#                     12-0-0/w PTR         r     1 @ERR
     5-0-0/w PTR         r     1 @FSN                      11-0-0/w PTR         r     1 @IFPARAM_
     3-0-0/w PTR         r     1 @NAME_                     7-0-0/w PTR         r     1 @NXTF
     4-0-0/w PTR         r     1 @SN                        6-0-0/w PTR         r     1 @USEFSN
    10-0-0/w PTR         r     1 @VOL                      *0-0-0/w SBIN        r     1 DCB#
    *0-0-0/w BIT         r     1 ERR                       *0-0-0/w SBIN        r     1 FSN
    14-0-0/w SBIN        r     1 I                         *0-0-0/d VECT        r     1 IFPARAM_
    *0-0-0/d STRC(72)    r     1 NAME                      *0-0-0/d VECT        r     1 NAME_
    *0-0-0/w BIT         r     1 NXTF                      17-0-0/w UBIN        r     1 OPEN_START_UTS
    16-0-0/b BIT         r     1 RETRY_NEEDED              *0-0-0/c CHAR(6)     r     1 SN
    15-0-0/w PTR         r     1 TAPE_VOL_DCB$             *0-0-0/w BIT         r     1 USEFSN
    *0-0-0/w SBIN        r     1 VOL

  ****  SYMREF variables  ****

  ****  Scalars and arrays  ****
OctLoc.c.b A Datatyp(siz) R M Lvl/name                 OctLoc.c.b A Datatyp(siz) R M Lvl/name

     0-0-0/w UBIN        r     1 ACCUMULATED_MOUNT_TIME
     0-0-0/c ASTR(9)     r     1 ARCHIVE_NAME               0-0-0/w PTR         r     1 B$TCB$
     0-0-0/c ASTR(9)     r     1 BACKUP_NAME                0-0-0/w PTR         r     1 BLK_TAG$
     0-0-0/w PTR         r     1 BLK_TAG0$                  0-0-0/w PTR         r     1 BLOCK_GRAN$
     0-0-0/b BIT         r     1 BREAK_CONTINUED            0-0-0/w SBIN        r     1 BREAK_DCB#
PL6.E3A0      #002=FLI$TAPE_OPEN File=FLI$TAPE.:E05TSI                           TUE 07/29/97 15:55 Page:53
     0-0-0/w SBIN        r     1 DEST_TAPE_VOL              0-0-0/w PTR         r     1 DISK_FILE_SPEC$
     0-0-0/w PTR         r     1 DISK_GRAN$                 0-0-0/w PTR         r     1 DPLIST$
     0-0-0/w PTR         r     1 DPRESLIST$                 0-0-0/c ASTR(9)     r     1 DUAL_FILE
     0-0-0/c ASTR(9)     r     1 EFT_CVOL_FILE              0-0-0/c ASTR(9)     r     1 EFT_RESTRICT_FILE
     0-0-0/b BIT         r     1 EOVOL_DETECTED             0-0-0/w STRC        r     1 E_NO_FSN_MATCH
     0-0-0/d STRC(216)   r     1 FPT_EXIT                   0-0-0/d STRC(432)   r     1 GET_NOW_UTS
     0-0-0/w SBIN        r     1 NBR_BYTES_TO_MOVE          0-0-0/w SBIN        r     1 NBR_SNLISTS
     0-0-0/c ASTR(9)     r     1 NODATA_FILE_NAME           0-0-0/c STRC(369)   r     1 NODATA_KEY
     0-0-0/w UBIN        r     1 NOW_UTS                    0-0-0/c ASTR(9)     r     1 PRIME_FILE
     0-0-0/c ASTR(9)     r     1 REBUILD_DIR_KEY            0-0-0/c ASTR(9)     r     1 REBUILD_KEY
     0-0-0/c ASTR(9)     r     1 REBUILD_NAME               0-0-0/c ASTR(9)     r     1 RET_CMDS_NAME
     0-0-0/w PTR         r     1 SNVECLIST$                 0-0-0/d STRC(1080)  r     1 TAPE_CLOSE
     0-0-0/w PTR         r     1 TAPE_DCBLIST$              0-0-0/d STRC(2088)  r     1 TAPE_OPEN
     0-0-0/c ASTR(9)     r     1 TSN_USED_NAME

  ****  BASED and DCB variables  ****

  ****  Scalars and arrays  ****
OctLoc.c.b A Datatyp(siz) R M Lvl/name                 OctLoc.c.b A Datatyp(siz) R M Lvl/name

     0-0-0/w STRC(2448)  r     1 B$ALT                      0-0-0/w STRC(144)   r     1 B$TCB
     0-0-0/d ASTR(3528)  r     1 F$DCB                      0-0-0N  NULL        r     1 M$NODATA_LIST
     0-0-0/d STRC(72)    r     1 SNVECLIST(0:0)
     0-0-0/w STRC(72)    r     1 TAPE_DCBLIST(0:0)
     0-0-0/c STRC(288)   r     1 VLP_NAME


   Procedure FLI$TAPE_OPEN requires 241 words for executable code.
   Procedure FLI$TAPE_OPEN requires 22 words of local(AUTO) storage.
PL6.E3A0      #002=FLI$TAPE_OPEN File=FLI$TAPE.:E05TSI                           TUE 07/29/97 15:55 Page:54
          *** CROSS REFERENCE LISTING ***
**     DENOTES     IDENTIFIER DEFINITION
<<                 IDENTIFIER'S VALUE SET
>>                 IDENTIFIER'S VALUE USED
<>                 IDENTIFIER SET AND/OR USED
--                 IDENTIFIER REFERENCED
PL6.E3A0      #002=FLI$TAPE_OPEN File=FLI$TAPE.:E05TSI                           TUE 07/29/97 15:55 Page:55
          MINI XREF LISTING

ACCUMULATED_MOUNT_TIME
     14165**DCL     16768<<ASSIGN  16768>>ASSIGN
ARCHIVE_NAME.L#
     15511**DCL     15511--IMP-SIZ
B$ALT.CODE
     16623**DCL     16623--REDEF   16624--REDEF   16624--REDEF
B$ALT.ERR
     16624**DCL     16738>>ASSIGN
B$ALT.ERR.CODE
     16625**DCL     16735>>IF      16741>>IF      16782>>IF
B$ALT.ERR.ERR#
     16625**DCL     16625--REDEF
B$ALT.EVID
     16624**DCL     16624--REDEF   16624--REDEF
B$TCB.ALT$
     16619**DCL     16735>>IF      16738>>ASSIGN  16741>>IF      16782>>IF
B$TCB$
     14136**DCL     16735>>IF      16738>>ASSIGN  16741>>IF      16782>>IF
BACKUP_NAME.L#
     15155**DCL     15155--IMP-SIZ
BLK_TAG.NAME
     14647**DCL     14647--REDEF
BLK_TAG$
     14644**DCL     14644--IMP-PTR
BLK_TAG0.NAME
     14653**DCL     14653--REDEF
BLK_TAG0$
     14650**DCL     14650--IMP-PTR
BLOCK_GRAN$
     14657**DCL     14658--IMP-PTR
BREAK_CONTINUED
     16545**DCL     16774<<ASSIGN  16775>>DOWHILE 16776<<ASSIGN
PL6.E3A0      #002=FLI$TAPE_OPEN File=FLI$TAPE.:E05TSI                           TUE 07/29/97 15:55 Page:56
BREAK_DCB#
     16546**DCL     16710<<ASSIGN
CHK_ERR
     16731**LABEL   16712--CALLALT
CLOSE_NODATA_LIST.SN_
     16309**DCL     16309--REDEF
CLOSE_NODATA_LIST.UTL_
     16310**DCL     16310--REDEF
CLOSE_NODATA_LIST.V.EXPIRE#
     16324**DCL     16324--REDEF
CLOSE_NODATA_LIST.V.TYPE#
     16322**DCL     16322--REDEF
CLOSE_NODATA_LIST.V.XTNSIZE#
     16319**DCL     16319--REDEF   16321--REDEF
CLOSE_PRIME_DUAL.SN_
     15786**DCL     15786--REDEF
CLOSE_PRIME_DUAL.UTL_
     15787**DCL     15787--REDEF
CLOSE_PRIME_DUAL.V.EXPIRE#
     15801**DCL     15801--REDEF
CLOSE_PRIME_DUAL.V.TYPE#
     15799**DCL     15799--REDEF
CLOSE_PRIME_DUAL.V.XTNSIZE#
     15796**DCL     15796--REDEF   15798--REDEF
CLOSE_REBUILD.SN_
     16061**DCL     16061--REDEF
CLOSE_REBUILD.UTL_
     16062**DCL     16062--REDEF
CLOSE_REBUILD.V.EXPIRE#
     16076**DCL     16076--REDEF
CLOSE_REBUILD.V.TYPE#
     16074**DCL     16074--REDEF
CLOSE_REBUILD.V.XTNSIZE#
     16071**DCL     16071--REDEF   16073--REDEF
CLOSE_STATUS.SN_
     15276**DCL     15276--REDEF
PL6.E3A0      #002=FLI$TAPE_OPEN File=FLI$TAPE.:E05TSI                           TUE 07/29/97 15:55 Page:57
CLOSE_STATUS.UTL_
     15277**DCL     15277--REDEF
CLOSE_STATUS.V.EXPIRE#
     15291**DCL     15291--REDEF
CLOSE_STATUS.V.TYPE#
     15289**DCL     15289--REDEF
CLOSE_STATUS.V.XTNSIZE#
     15286**DCL     15286--REDEF   15288--REDEF
CLOSE_TSN_USED.SN_
     14986**DCL     14986--REDEF
CLOSE_TSN_USED.UTL_
     14987**DCL     14987--REDEF
CLOSE_TSN_USED.V.EXPIRE#
     15001**DCL     15001--REDEF
CLOSE_TSN_USED.V.TYPE#
     14999**DCL     14999--REDEF
CLOSE_TSN_USED.V.XTNSIZE#
     14996**DCL     14996--REDEF   14998--REDEF
CON_CLOSE_ARCHIVE.SN_
     15318**DCL     15318--REDEF
CON_CLOSE_ARCHIVE.UTL_
     15319**DCL     15319--REDEF
CON_CLOSE_ARCHIVE.V.EXPIRE#
     15333**DCL     15333--REDEF
CON_CLOSE_ARCHIVE.V.TYPE#
     15331**DCL     15331--REDEF
CON_CLOSE_ARCHIVE.V.XTNSIZE#
     15328**DCL     15328--REDEF   15330--REDEF
CON_OPEN_ARCHIVE_FILE.ACSVEH_
     15405**DCL     15406--REDEF
CON_OPEN_ARCHIVE_FILE.ALTKEYS_
     15411**DCL     15412--REDEF   15412--REDEF
CON_OPEN_ARCHIVE_FILE.HDR_
     15410**DCL     15411--REDEF
CON_OPEN_ARCHIVE_FILE.TAB_
     15409**DCL     15410--REDEF
PL6.E3A0      #002=FLI$TAPE_OPEN File=FLI$TAPE.:E05TSI                           TUE 07/29/97 15:55 Page:58
CON_OPEN_ARCHIVE_FILE.UHL_
     15403**DCL     15404--REDEF   15404--REDEF
CON_OPEN_ARCHIVE_FILE.V.FSN#
     15443**DCL     15443--REDEF   15443--REDEF
CON_OPEN_ARCHIVE_FILE.WSN_
     15409**DCL     15409--REDEF
CON_READ_ARCHIVE_FILE.STATION_
     15467**DCL     15468--REDEF
CON_READ_ARCHIVE_FILE.V.DVBYTE.REREAD#
     15479**DCL     15479--REDEF
CON_READ_ARCHIVE_FILE.V.INDX#
     15477**DCL     15477--REDEF
CVOL_UTL.ULBL#
     14746**DCL     14746--REDEF
DCB#
        22**DCL         6--PROC    16723<<ASSIGN  16737<<ASSIGN
DEL_NODATA_REC.V
     16412**DCL     16409--DCLINIT
DEST_TAPE_VOL
     14750**DCL     16715<<ASSIGN
DISK_CLOSE.SN_
     13816**DCL     13816--REDEF
DISK_CLOSE.UTL_
     13817**DCL     13817--REDEF
DISK_CLOSE.V.EXPIRE#
     13831**DCL     13831--REDEF
DISK_CLOSE.V.TYPE#
     13829**DCL     13829--REDEF
DISK_CLOSE.V.XTNSIZE#
     13826**DCL     13826--REDEF   13828--REDEF
DISK_FILE_SPEC.SPEC
     14181**DCL     14183--REDEF
DISK_FILE_SPEC.SPEC.START
     14182**DCL     14182--REDEF
DISK_FILE_SPEC.SPEC.STOP
     14183**DCL     14183--REDEF
PL6.E3A0      #002=FLI$TAPE_OPEN File=FLI$TAPE.:E05TSI                           TUE 07/29/97 15:55 Page:59
DISK_FILE_SPEC$
     14180**DCL     14181--IMP-PTR
DISK_GRAN$
     14657**DCL     14657--IMP-PTR
DISK_OPEN.ACSVEH_
     13681**DCL     13682--REDEF
DISK_OPEN.ALTKEYS_
     13687**DCL     13688--REDEF   13688--REDEF
DISK_OPEN.HDR_
     13686**DCL     13687--REDEF
DISK_OPEN.TAB_
     13685**DCL     13686--REDEF
DISK_OPEN.UHL_
     13679**DCL     13680--REDEF   13680--REDEF
DISK_OPEN.V.FSN#
     13719**DCL     13719--REDEF   13719--REDEF
DISK_OPEN.WSN_
     13685**DCL     13685--REDEF
DISK_READ.STATION_
     13743**DCL     13744--REDEF
DISK_READ.V.DVBYTE.REREAD#
     13755**DCL     13755--REDEF
DISK_READ.V.INDX#
     13753**DCL     13753--REDEF
DISK_WRITE.STATION_
     13781**DCL     13781--REDEF
DISK_WRITE.V.DVBYTE.VFC#
     13788**DCL     13788--REDEF
DPLIST$
     14166**DCL     14178--IMP-PTR
DPRESLIST$
     14180**DCL     14180--IMP-PTR
DUAL_FILE.L#
     15582**DCL     15582--IMP-SIZ
EFTWORD
     14301**DCL     14301--REDEF
PL6.E3A0      #002=FLI$TAPE_OPEN File=FLI$TAPE.:E05TSI                           TUE 07/29/97 15:55 Page:60
EFT_CVOL_FILE.L#
     14706**DCL     14706--IMP-SIZ
EFT_RESTRICT_FILE.L#
     14733**DCL     14733--IMP-SIZ
EOVOL_DETECTED
     14144**DCL     16694<<ASSIGN
ERR
        21**DCL         6--PROC    16693<<ASSIGN  16722<<ASSIGN  16738<<ASSIGN
E_NO_FSN_MATCH
      8941**DCL     16722>>ASSIGN
F$DCB.ACTPOS
     16594**DCL     16594--REDEF
F$DCB.ARS#
     16568**DCL     16568--REDEF
F$DCB.ATTR
     16587**DCL     16588--REDEF
F$DCB.BORROW
     16602**DCL     16602--REDEF   16602--REDEF   16602--REDEF
F$DCB.DCBNAME.L
     16616**DCL     16616--IMP-SIZ
F$DCB.EOMCHAR#
     16572**DCL     16572--REDEF
F$DCB.FCD#
     16581**DCL     16794>>IF
F$DCB.FLDID
     16597**DCL     16597--REDEF
F$DCB.FORM$
     16591**DCL     16591--REDEF
F$DCB.FSECT
     16607**DCL     16607--REDEF
F$DCB.FSN#
     16584**DCL     16584--REDEF   16584--REDEF   16585--REDEF   16716>>ASSIGN  16718>>IF
F$DCB.HEADER$
     16590**DCL     16590--REDEF
F$DCB.IXTNSIZE#
     16588**DCL     16588--REDEF
PL6.E3A0      #002=FLI$TAPE_OPEN File=FLI$TAPE.:E05TSI                           TUE 07/29/97 15:55 Page:61
F$DCB.LASTSTA$
     16577**DCL     16577--REDEF
F$DCB.LVL
     16603**DCL     16603--REDEF
F$DCB.NAME#
     16578**DCL     16731>>ASSIGN
F$DCB.NAME#.C
     16578**DCL     16578--REDEF
F$DCB.NOEOF
     16600**DCL     16600--REDEF
F$DCB.NRECS#
     16589**DCL     16589--REDEF
F$DCB.NRECX
     16608**DCL     16608--REDEF
F$DCB.OHDR
     16600**DCL     16600--REDEF
F$DCB.ORG#
     16583**DCL     16583--REDEF
F$DCB.PRECNO
     16606**DCL     16606--REDEF
F$DCB.PSN#
     16578**DCL     16728>>ASSIGN
F$DCB.RCSZ
     16612**DCL     16612--REDEF
F$DCB.RES#
     16579**DCL     16579--REDEF
F$DCB.SETX
     16591**DCL     16591--REDEF
F$DCB.TAB$
     16591**DCL     16591--REDEF
F$DCB.TDA
     16605**DCL     16606--REDEF
F$DCB.VOL#
     16589**DCL     16715>>ASSIGN
F$DCB.WSN#
     16579**DCL     16579--REDEF
PL6.E3A0      #002=FLI$TAPE_OPEN File=FLI$TAPE.:E05TSI                           TUE 07/29/97 15:55 Page:62
FIT_AREA.W2
     15017**DCL     15018--REDEF
FLI$ROLL_SNLISTS
     16507**DCL-ENT 16746--CALL
FLI_CLOSE_EM
     16790**PROC    16720--CALL    16739--CALL
FLI_MOUNT_TIME
     16756**PROC    16721--CALL    16740--CALL    16751--CALL
FLI_OPEN
     16772**PROC    16712--CALL
FPT_EXIT.V.STEPCC#
     13606**DCL     13606--REDEF   16742>>IF      16743<<ASSIGN
FSN
        16**DCL         6--PROC    16668>>ASSIGN  16706<<ASSIGN  16713>>IF      16716<<ASSIGN  16718>>IF
GET_NOW_UTS
     14157**DCL     16701<>CALL    16765<>CALL
I
     16552**DCL     16707<<DOINDEX 16708>>ASSIGN  16709>>ASSIGN  16711>>ASSIGN  16735>>IF      16737>>ASSIGN
     16793<<DOINDEX 16794>>IF      16796>>ASSIGN
IFPARAM_
        20**DCL         6--PROC
M$CLOSE
      7182**DCL-ENT 16797--CALL
M$OPEN
      7182**DCL-ENT 16777--CALL
M$TIME
      7249**DCL-ENT 16701--CALL    16765--CALL
NAME.PTR$
        14**DCL     16656--IMP-PTR 16731>>ASSIGN
NAME_
        11**DCL         6--PROC       12--REDEF   16671>>ASSIGN
NBR_BYTES_TO_MOVE
     14656**DCL     14657--IMP-SIZ 14658--IMP-SIZ
NBR_SNLISTS
     13593**DCL     16707>>DOINDEX 16767>>IF      16768>>ASSIGN  16793>>DOINDEX
NODATA_FILE_NAME.L#
PL6.E3A0      #002=FLI$TAPE_OPEN File=FLI$TAPE.:E05TSI                           TUE 07/29/97 15:55 Page:63
     16271**DCL     16271--IMP-SIZ
NODATA_KEY
     16417**DCL     16409--DCLINIT 16410--DCLINIT
NOW_UTS
     14145**DCL     16702>>ASSIGN  16766<>CALL    16766<>CALL    16767>>IF      16768>>ASSIGN
NXTF
        18**DCL         6--PROC    16675>>ASSIGN  16730>>IF
OPEN_NODATA_LIST.ACSVEH_
     16204**DCL     16205--REDEF
OPEN_NODATA_LIST.ALTKEYS_
     16210**DCL     16211--REDEF   16211--REDEF
OPEN_NODATA_LIST.HDR_
     16209**DCL     16210--REDEF
OPEN_NODATA_LIST.TAB_
     16208**DCL     16209--REDEF
OPEN_NODATA_LIST.UHL_
     16202**DCL     16203--REDEF   16203--REDEF
OPEN_NODATA_LIST.V.FSN#
     16242**DCL     16242--REDEF   16242--REDEF
OPEN_NODATA_LIST.WSN_
     16208**DCL     16208--REDEF
OPEN_PRIME_DUAL.ACSVEH_
     15651**DCL     15652--REDEF
OPEN_PRIME_DUAL.ALTKEYS_
     15657**DCL     15658--REDEF   15658--REDEF
OPEN_PRIME_DUAL.HDR_
     15656**DCL     15657--REDEF
OPEN_PRIME_DUAL.TAB_
     15655**DCL     15656--REDEF
OPEN_PRIME_DUAL.UHL_
     15649**DCL     15650--REDEF   15650--REDEF
OPEN_PRIME_DUAL.V.FSN#
     15689**DCL     15689--REDEF   15689--REDEF
OPEN_PRIME_DUAL.WSN_
     15655**DCL     15655--REDEF
OPEN_REBUILD.ACSVEH_
PL6.E3A0      #002=FLI$TAPE_OPEN File=FLI$TAPE.:E05TSI                           TUE 07/29/97 15:55 Page:64
     15886**DCL     15887--REDEF
OPEN_REBUILD.ALTKEYS_
     15892**DCL     15893--REDEF   15893--REDEF
OPEN_REBUILD.HDR_
     15891**DCL     15892--REDEF
OPEN_REBUILD.TAB_
     15890**DCL     15891--REDEF
OPEN_REBUILD.UHL_
     15884**DCL     15885--REDEF   15885--REDEF
OPEN_REBUILD.V.FSN#
     15924**DCL     15924--REDEF   15924--REDEF
OPEN_REBUILD.WSN_
     15890**DCL     15890--REDEF
OPEN_START_UTS
     16555**DCL     16702<<ASSIGN  16766<>CALL
OPEN_STATUS.ACSVEH_
     15088**DCL     15089--REDEF
OPEN_STATUS.ALTKEYS_
     15094**DCL     15095--REDEF   15095--REDEF
OPEN_STATUS.HDR_
     15093**DCL     15094--REDEF
OPEN_STATUS.TAB_
     15092**DCL     15093--REDEF
OPEN_STATUS.UHL_
     15086**DCL     15087--REDEF   15087--REDEF
OPEN_STATUS.V.FSN#
     15126**DCL     15126--REDEF   15126--REDEF
OPEN_STATUS.WSN_
     15092**DCL     15092--REDEF
OPEN_TSN_USED.ACSVEH_
     14824**DCL     14825--REDEF
OPEN_TSN_USED.ALTKEYS_
     14830**DCL     14831--REDEF   14831--REDEF
OPEN_TSN_USED.HDR_
     14829**DCL     14830--REDEF
OPEN_TSN_USED.TAB_
PL6.E3A0      #002=FLI$TAPE_OPEN File=FLI$TAPE.:E05TSI                           TUE 07/29/97 15:55 Page:65
     14828**DCL     14829--REDEF
OPEN_TSN_USED.UHL_
     14822**DCL     14823--REDEF   14823--REDEF
OPEN_TSN_USED.V.FSN#
     14862**DCL     14862--REDEF   14862--REDEF
OPEN_TSN_USED.WSN_
     14828**DCL     14828--REDEF
PRE_RET_CLOSE.SN_
     14544**DCL     14544--REDEF
PRE_RET_CLOSE.UTL_
     14545**DCL     14545--REDEF
PRE_RET_CLOSE.V.EXPIRE#
     14559**DCL     14559--REDEF
PRE_RET_CLOSE.V.TYPE#
     14557**DCL     14557--REDEF
PRE_RET_CLOSE.V.XTNSIZE#
     14554**DCL     14554--REDEF   14556--REDEF
PRE_RET_OPEN.ACSVEH_
     14479**DCL     14480--REDEF
PRE_RET_OPEN.ALTKEYS_
     14485**DCL     14486--REDEF   14486--REDEF
PRE_RET_OPEN.HDR_
     14484**DCL     14485--REDEF
PRE_RET_OPEN.TAB_
     14483**DCL     14484--REDEF
PRE_RET_OPEN.UHL_
     14477**DCL     14478--REDEF   14478--REDEF
PRE_RET_OPEN.V.FSN#
     14517**DCL     14517--REDEF   14517--REDEF
PRE_RET_OPEN.WSN_
     14483**DCL     14483--REDEF
PRE_RET_READ.STATION_
     14334**DCL     14335--REDEF
PRE_RET_READ.V.DVBYTE.REREAD#
     14346**DCL     14346--REDEF
PRE_RET_READ.V.INDX#
PL6.E3A0      #002=FLI$TAPE_OPEN File=FLI$TAPE.:E05TSI                           TUE 07/29/97 15:55 Page:66
     14344**DCL     14344--REDEF
PRE_RET_WRITE.STATION_
     14372**DCL     14372--REDEF
PRE_RET_WRITE.V.DVBYTE.VFC#
     14379**DCL     14379--REDEF
PRIME_FILE.L#
     15555**DCL     15555--IMP-SIZ
READ_NODATA_LIST.STATION_
     16348**DCL     16349--REDEF
READ_NODATA_LIST.V.DVBYTE.REREAD#
     16360**DCL     16360--REDEF
READ_NODATA_LIST.V.INDX#
     16358**DCL     16358--REDEF
READ_PRIME_DUAL.STATION_
     15713**DCL     15714--REDEF
READ_PRIME_DUAL.V.DVBYTE.REREAD#
     15725**DCL     15725--REDEF
READ_PRIME_DUAL.V.INDX#
     15723**DCL     15723--REDEF
READ_REBUILD.STATION_
     16019**DCL     16020--REDEF
READ_REBUILD.V.DVBYTE.REREAD#
     16031**DCL     16031--REDEF
READ_REBUILD.V.INDX#
     16029**DCL     16029--REDEF
READ_STATUS.STATION_
     15234**DCL     15235--REDEF
READ_STATUS.V.DVBYTE.REREAD#
     15246**DCL     15246--REDEF
READ_STATUS.V.INDX#
     15244**DCL     15244--REDEF
READ_TSN_USED.STATION_
     14944**DCL     14945--REDEF
READ_TSN_USED.V.DVBYTE.REREAD#
     14956**DCL     14956--REDEF
READ_TSN_USED.V.INDX#
PL6.E3A0      #002=FLI$TAPE_OPEN File=FLI$TAPE.:E05TSI                           TUE 07/29/97 15:55 Page:67
     14954**DCL     14954--REDEF
REBUILD_DIR_KEY.L#
     16105**DCL     16105--IMP-SIZ
REBUILD_KEY.L#
     16132**DCL     16132--IMP-SIZ
REBUILD_NAME.L#
     15953**DCL     15953--IMP-SIZ
RETRY_NEEDED
     16554**DCL     16700<<ASSIGN  16704>>DOWHILE 16705<<ASSIGN  16747<<ASSIGN
RET_CMDS_NAME.L#
     14588**DCL     14588--IMP-SIZ
SN
        15**DCL         6--PROC    16728<<ASSIGN
SNVECLIST.SN_
     14120**DCL     16708>>ASSIGN
SNVECLIST$
     14120**DCL     14120--IMP-PTR 16708>>ASSIGN
SPEC.START
     14184**DCL     14185--REDEF
SPEC.STOP
     14185**DCL     14186--REDEF
SPECCHARS
     14184**DCL     14184--REDEF
TAPE_BLOCK_.W2
     14672**DCL     14673--REDEF
TAPE_CLOSE
     14037**DCL     16797<>CALL
TAPE_CLOSE.SN_
     14037**DCL     14037--REDEF
TAPE_CLOSE.UTL_
     14038**DCL     14038--REDEF   16792<<ASSIGN
TAPE_CLOSE.V.DCB#
     14043**DCL     16796<<ASSIGN
TAPE_CLOSE.V.EXPIRE#
     14052**DCL     14052--REDEF
TAPE_CLOSE.V.TYPE#
PL6.E3A0      #002=FLI$TAPE_OPEN File=FLI$TAPE.:E05TSI                           TUE 07/29/97 15:55 Page:68
     14050**DCL     14050--REDEF
TAPE_CLOSE.V.XTNSIZE#
     14047**DCL     14047--REDEF   14049--REDEF
TAPE_DCBLIST.DCB#
     13593**DCL     16709>>ASSIGN  16737>>ASSIGN  16796>>ASSIGN
TAPE_DCBLIST.DCB$
     13593**DCL     16711>>ASSIGN  16727>>ASSIGN  16794>>IF
TAPE_DCBLIST$
     13593**DCL     13593--IMP-PTR 16709>>ASSIGN  16711>>ASSIGN  16727>>ASSIGN  16737>>ASSIGN  16794>>IF
     16796>>ASSIGN
TAPE_OPEN
     13900**DCL     16777<>CALL
TAPE_OPEN.ACSVEH_
     13902**DCL     13903--REDEF
TAPE_OPEN.ALTKEYS_
     13908**DCL     13909--REDEF   13909--REDEF
TAPE_OPEN.FPARAM_
     13905**DCL     16688<<ASSIGN
TAPE_OPEN.HDR_
     13907**DCL     13908--REDEF
TAPE_OPEN.IFPARAM_
     13905**DCL     16685<<ASSIGN
TAPE_OPEN.NAME_
     13901**DCL     16667<<ASSIGN  16671<<ASSIGN
TAPE_OPEN.SN_
     13900**DCL     16708<<ASSIGN
TAPE_OPEN.TAB_
     13906**DCL     13907--REDEF
TAPE_OPEN.UHL_
     13900**DCL     13901--REDEF   13901--REDEF
TAPE_OPEN.V.DCB#
     13909**DCL     16709<<ASSIGN  16710>>ASSIGN
TAPE_OPEN.V.FSN#
     13940**DCL     13940--REDEF   13940--REDEF   16668<<ASSIGN  16672<<ASSIGN
TAPE_OPEN.V.FUN#
     13919**DCL     16730>>IF
PL6.E3A0      #002=FLI$TAPE_OPEN File=FLI$TAPE.:E05TSI                           TUE 07/29/97 15:55 Page:69
TAPE_OPEN.V.INITZ.SCRUB#
     13910**DCL     16750<<ASSIGN
TAPE_OPEN.V.OPER.NXTF#
     13912**DCL     16675<<ASSIGN
TAPE_OPEN.V.VOL#
     13934**DCL     16752<<ASSIGN
TAPE_OPEN.WSN_
     13906**DCL     13906--REDEF
TAPE_READ.STATION_
     13964**DCL     13965--REDEF
TAPE_READ.V.DVBYTE.REREAD#
     13976**DCL     13976--REDEF
TAPE_READ.V.INDX#
     13974**DCL     13974--REDEF
TAPE_VOL_DCB$
     16553**DCL     16562--IMP-PTR 16711<<ASSIGN  16715>>ASSIGN  16716>>ASSIGN  16718>>IF      16727<<ASSIGN
     16728>>ASSIGN  16731>>ASSIGN
TAPE_WRITE.STATION_
     14002**DCL     14002--REDEF
TAPE_WRITE.V.DVBYTE.VFC#
     14009**DCL     14009--REDEF
TSN_USED_NAME.L#
     14891**DCL     14891--IMP-SIZ
TVECTOR.W2
     14133**DCL     14134--REDEF
USEFSN
        17**DCL         6--PROC    16665>>IF      16730>>IF
VLP_NAME
     16656**DCL     16731<<ASSIGN
VOL
        19**DCL         6--PROC
WRITE_NODATA_LIST.STATION_
     16386**DCL     16386--REDEF
WRITE_NODATA_LIST.V.DVBYTE.VFC#
     16393**DCL     16393--REDEF
WRITE_PRIME_DUAL.STATION_
PL6.E3A0      #002=FLI$TAPE_OPEN File=FLI$TAPE.:E05TSI                           TUE 07/29/97 15:55 Page:70
     15751**DCL     15751--REDEF
WRITE_PRIME_DUAL.V.DVBYTE.VFC#
     15758**DCL     15758--REDEF
WRITE_REBUILD.STATION_
     15987**DCL     15987--REDEF
WRITE_REBUILD.V.DVBYTE.VFC#
     15994**DCL     15994--REDEF
WRITE_STATUS.STATION_
     15202**DCL     15202--REDEF
WRITE_STATUS.V.DVBYTE.VFC#
     15209**DCL     15209--REDEF
WRITE_TSN_USED.STATION_
     14912**DCL     14912--REDEF
WRITE_TSN_USED.V.DVBYTE.VFC#
     14919**DCL     14919--REDEF
XUD$UTS_DIFF
     16509**DCL-ENT 16766--CALL

PL6.E3A0      #003=FLI$TAPE_CLOSE File=FLI$TAPE.:E05TSI                          TUE 07/29/97 15:56 Page:71
      325        1        /*T***********************************************************/
      326        2        /*T*                                                         */
      327        3        /*T* Copyright (c) Bull HN Information Systems Inc., 1997    */
      328        4        /*T*                                                         */
      329        5        /*T***********************************************************/
      330        6        FLI$TAPE_CLOSE: PROC( CVOL ) ALTRET;
      331        7        /*F*  NAME: FLI$TAPE_CLOSE
      332        8              PURPOSE: Close currently open tape volumes.
      333        9         */
      334       10
      335       11    1   DCL CVOL BIT(1) ALIGNED;                /* Specified if CVOL next             */
      336       12
      337       13         /***
      338       14          *** INCLUDE
      339       15          ***/
      340       16
      341       17        %INCLUDE CP_6_SUBS;
      342      557        %INCLUDE CP_6;
      343     6116        %INCLUDE FLI_DATA_R;
      344     7530
      345     7531         /***
      346     7532          *** ENTRY
      347     7533          ***/
      348     7534
      349     7535    1   DCL FLI$RPT_ERR ENTRY(5);
      350     7536
      351     7537         /***
      352     7538          *** AUTO
      353     7539          ***/
      354     7540
      355     7541    1   DCL I SBIN AUTO;
      356     7542    1   DCL GOT_ERROR BIT(1) AUTO;
      357     7543
      358     7544        /***
      359     7545         *** FPT
      360     7546         ***/
      361     7547
PL6.E3A0      #003=FLI$TAPE_CLOSE File=FLI$TAPE.:E05TSI                          TUE 07/29/97 15:56 Page:72
      362     7548        %VLP_ULBL( FPTN=CVOL_UTL,
      363     7549                     N=1,
      364     7550                   ULBL='UTL1CVOL',
      365     7551                   STCLASS=CONSTANT );
      366     7565        %F$DCB;
      367     7622
      368     7623        /****************************************/
      369     7624
      370     7625    1      IF ADDR(CVOL) = ADDR(NIL)
      371     7626    1       THEN TAPE_CLOSE.UTL_ = VECTOR(NIL);
      372     7627    1       ELSE TAPE_CLOSE.UTL_ = VECTOR(CVOL_UTL);
      373     7628
      374     7629         /***
      375     7630          *** Close each open DCB/snlist.
      376     7631          ***/
      377     7632
      378     7633    1      GOT_ERROR = '0'B;
      379     7634    2      DO I=0 TO NBR_SNLISTS-1;
      380     7635    2         TAPE_CLOSE.V.DCB# = TAPE_DCBLIST.DCB#(I);
      381     7636    2         IF TAPE_DCBLIST.DCB$(I)->F$DCB.FCD#
      382     7637    2          THEN CALL M$CLOSE( TAPE_CLOSE )
      383     7638    3             WHENALTRETURN DO;
      384     7639    3               CALL FLI$RPT_ERR;
      385     7640    3               IF FPT_EXIT.V.STEPCC# < %TAPE_ERROR
      386     7641    3                THEN FPT_EXIT.V.STEPCC# = %TAPE_ERROR;
      387     7642    3               GOT_ERROR = '1'B;
      388     7643    3               END;
      389     7644    2         END;
      390     7645    1      IF GOT_ERROR
      391     7646    1       THEN ALTRETURN;
      392     7647    1       ELSE RETURN;
      393     7648
      394     7649    1   END FLI$TAPE_CLOSE;
      395     7650        %EOD;

PL6.E3A0      #003=FLI$TAPE_CLOSE File=FLI$TAPE.:E05TSI                          TUE 07/29/97 15:56 Page:73
--  Include file information  --

   B_MICROPS_C.:E05TOU  is referenced.
   FLB_SUBS_C.:E05TOU  is referenced.
   FLI_DATA_R.:E05TOU  cannot be made into a system file and is referenced.
   CP_6_C.:E05TOU  is referenced.
   CP_6.:E05TOU  cannot be made into a system file and is referenced.
   CP_6_SUBS.:E05TOU  is referenced.
      No diagnostics issued in procedure FLI$TAPE_CLOSE.

   Procedure FLI$TAPE_CLOSE requires 46 words for executable code.
   Procedure FLI$TAPE_CLOSE requires 6 words of local(AUTO) storage.

PL6.E3A0      #003=FLI$TAPE_CLOSE File=FLI$TAPE.:E05TSI                          TUE 07/29/97 15:56 Page:74

 Object Unit name= FLI$TAPE_CLOSE                             File name= FLI$TAPE.:E05TOU
 UTS= JUL 29 '97 15:56:44.20 TUE                              Compiler= PL-6/E31         Sev=      00
 SharedLib= :SHARED_SYSTEM                                    Alt SharedLib=


    ****  Control sections  ****

 Sect   Type Bound  Init  Size OctSiz  Section name(segment info)
    0   DCB   even  none     0      0  M$UC
    1   DCB   even  none     0      0  M$PRE_RET
    2   Data  even  none     6      6  FLI$TAPE_CLOSE
    3  RoData even  UTS     22     26  FLI$TAPE_CLOSE
    4   Proc  even  none    46     56  FLI$TAPE_CLOSE
    5  RoData even  none     4      4  FLI$TAPE_CLOSE

    ****  Entry defs  ****

                              Check   Calling
                             calling  sequence
  Sect OctLoc Primary Altret sequence   type   Parms  Name
     4      0   yes    yes     yes      Std        1  FLI$TAPE_CLOSE

  ****  Entry refs  ****

         Check        Calling
        calling       sequence
Altret sequence SRef   type   Args  Name
         yes           Std       5 FLI$RPT_ERR
                       nStd      0 X66_AUTO_1
                       Std       0 B_CONSPOOL_D
                       nStd      0 X66_AALT
                       nStd      0 X66_ARET
PL6.E3A0      #003=FLI$TAPE_CLOSE File=FLI$TAPE.:E05TSI                          TUE 07/29/97 15:56 Page:75

  ****  Data refs  ****

  Flags:  r = read only, s = secondary
Flgs Name                             Flgs Name                             Flgs Name
     M$UC                                  NBR_SNLISTS                           TAPE_DCBLIST$
     FPT_EXIT                              TAPE_CLOSE                            SNVECLIST$
     DPLIST$                               DPRESLIST$                            DISK_FILE_SPEC$
     SPECCHARS                             EFTWORD                               M$PRE_RET
     RET_CMDS_NAME                         B_VECTNIL

  ****  Segment refs  ****

  Flags:  r = read only, s = secondary
Flgs Name                             Flgs Name                             Flgs Name
     NULLSID                               ISSID
PL6.E3A0      #003=FLI$TAPE_CLOSE File=FLI$TAPE.:E05TSI                          TUE 07/29/97 15:56 Page:76


      325        1        /*T***********************************************************/
      326        2        /*T*                                                         */
      327        3        /*T* Copyright (c) Bull HN Information Systems Inc., 1997    */
      328        4        /*T*                                                         */
      329        5        /*T***********************************************************/
      330        6        FLI$TAPE_CLOSE: PROC( CVOL ) ALTRET;

      6  4 000000   000000 700200 xent  FLI$TAPE_CL* TSX0  ! X66_AUTO_1
         4 000001   000006 000001                    ZERO    6,1

      331        7        /*F*  NAME: FLI$TAPE_CLOSE
      332        8              PURPOSE: Close currently open tape volumes.
      333        9         */
      334       10
      335       11    1   DCL CVOL BIT(1) ALIGNED;                /* Specified if CVOL next             */
      336       12
      337       13         /***
      338       14          *** INCLUDE
      339       15          ***/
      340       16
      341       17        %INCLUDE CP_6_SUBS;
      342      557        %INCLUDE CP_6;
      343     6116        %INCLUDE FLI_DATA_R;
      344     7530
      345     7531         /***
      346     7532          *** ENTRY
      347     7533          ***/
      348     7534
      349     7535    1   DCL FLI$RPT_ERR ENTRY(5);
      350     7536
      351     7537         /***
      352     7538          *** AUTO
      353     7539          ***/
      354     7540
      355     7541    1   DCL I SBIN AUTO;
      356     7542    1   DCL GOT_ERROR BIT(1) AUTO;
PL6.E3A0      #003=FLI$TAPE_CLOSE File=FLI$TAPE.:E05TSI                          TUE 07/29/97 15:56 Page:77
      357     7543
      358     7544        /***
      359     7545         *** FPT
      360     7546         ***/
      361     7547
      362     7548        %VLP_ULBL( FPTN=CVOL_UTL,
      363     7549                     N=1,
      364     7550                   ULBL='UTL1CVOL',
      365     7551                   STCLASS=CONSTANT );
      366     7565        %F$DCB;
      367     7622
      368     7623        /****************************************/
      369     7624
      370     7625    1      IF ADDR(CVOL) = ADDR(NIL)

   7625  4 000002   200003 236100                    LDQ     @CVOL,,AUTO
         4 000003   000001 116000 xsym               CMPQ    B_VECTNIL+1
         4 000004   000010 601000 4                  TNZ     s:7627

      371     7626    1       THEN TAPE_CLOSE.UTL_ = VECTOR(NIL);

   7626  4 000005   000000 237000 5                  LDAQ    0
         4 000006   000004 757000 xsym               STAQ    TAPE_CLOSE+4
         4 000007   000012 710000 4                  TRA     s:7633

      372     7627    1       ELSE TAPE_CLOSE.UTL_ = VECTOR(CVOL_UTL);

   7627  4 000010   000002 237000 5                  LDAQ    2
         4 000011   000004 757000 xsym               STAQ    TAPE_CLOSE+4

      373     7628
      374     7629         /***
      375     7630          *** Close each open DCB/snlist.
      376     7631          ***/
      377     7632
      378     7633    1      GOT_ERROR = '0'B;

PL6.E3A0      #003=FLI$TAPE_CLOSE File=FLI$TAPE.:E05TSI                          TUE 07/29/97 15:56 Page:78
   7633  4 000012   200005 450100                    STZ     GOT_ERROR,,AUTO

      379     7634    2      DO I=0 TO NBR_SNLISTS-1;

   7634  4 000013   200004 450100                    STZ     I,,AUTO
         4 000014   000047 710000 4                  TRA     s:7644+1

      380     7635    2         TAPE_CLOSE.V.DCB# = TAPE_DCBLIST.DCB#(I);

   7635  4 000015   200004 235100                    LDA     I,,AUTO
         4 000016   000001 735000                    ALS     1
         4 000017   000000 470400 xsym               LDP0    TAPE_DCBLIST$
         4 000020   000000 720105                    LXL0    0,AL,PR0
         4 000021   000032 740000 xsym               STX0    TAPE_CLOSE+26

      381     7636    2         IF TAPE_DCBLIST.DCB$(I)->F$DCB.FCD#

   7636  4 000022   000001 471505                    LDP1    1,AL,PR0
         4 000023   100031 236100                    LDQ     25,,PR1
         4 000024   020000 316007                    CANQ    8192,DL
         4 000025   000046 600000 4                  TZE     s:7644

      382     7637    2          THEN CALL M$CLOSE( TAPE_CLOSE )

   7637  4 000026   000000 630400 xsym               EPPR0   TAPE_CLOSE
         4 000027   450001 713400                    CLIMB   alt,close
         4 000030   406000 401760                    pmme    nvectors=13
         4 000031   000033 702000 4                  TSX2    s:7639
         4 000032   000046 710000 4                  TRA     s:7644

      383     7638    3             WHENALTRETURN DO;

      384     7639    3               CALL FLI$RPT_ERR;

   7639  4 000033   000002 631400 xsym               EPPR1   B_VECTNIL+2
         4 000034   000000 701000 xent               TSX1    FLI$RPT_ERR
         4 000035   000000 011000                    NOP     0
PL6.E3A0      #003=FLI$TAPE_CLOSE File=FLI$TAPE.:E05TSI                          TUE 07/29/97 15:56 Page:79

      385     7640    3               IF FPT_EXIT.V.STEPCC# < %TAPE_ERROR

   7640  4 000036   000004 236000 xsym               LDQ     FPT_EXIT+4
         4 000037   777000 376003                    ANQ     -512,DU
         4 000040   004000 116003                    CMPQ    2048,DU
         4 000041   000044 603000 4                  TRC     s:7642

      386     7641    3                THEN FPT_EXIT.V.STEPCC# = %TAPE_ERROR;

   7641  4 000042   004000 236003                    LDQ     2048,DU
         4 000043   000004 552040 xsym               STBQ    FPT_EXIT+4,'40'O

      387     7642    3               GOT_ERROR = '1'B;

   7642  4 000044   400000 236003                    LDQ     -131072,DU
         4 000045   200005 756100                    STQ     GOT_ERROR,,AUTO

      388     7643    3               END;

      389     7644    2         END;

   7644  4 000046   200004 054100                    AOS     I,,AUTO
         4 000047   200004 236100                    LDQ     I,,AUTO
         4 000050   000000 116000 xsym               CMPQ    NBR_SNLISTS
         4 000051   000015 604000 4                  TMI     s:7635

      390     7645    1      IF GOT_ERROR

   7645  4 000052   200005 234100                    SZN     GOT_ERROR,,AUTO
         4 000053   000055 605000 4                  TPL     s:7647

      391     7646    1       THEN ALTRETURN;

   7646  4 000054   000000 702200 xent               TSX2  ! X66_AALT

      392     7647    1       ELSE RETURN;
PL6.E3A0      #003=FLI$TAPE_CLOSE File=FLI$TAPE.:E05TSI                          TUE 07/29/97 15:56 Page:80

   7647  4 000055   000000 702200 xent               TSX2  ! X66_ARET
      393     7648
      394     7649    1   END FLI$TAPE_CLOSE;
      395     7650        %EOD;

PL6.E3A0      #003=FLI$TAPE_CLOSE File=FLI$TAPE.:E05TSI                          TUE 07/29/97 15:56 Page:81
--  Include file information  --

   B_MICROPS_C.:E05TOU  is referenced.
   FLB_SUBS_C.:E05TOU  is referenced.
   FLI_DATA_R.:E05TOU  cannot be made into a system file and is referenced.
   CP_6_C.:E05TOU  is referenced.
   CP_6.:E05TOU  cannot be made into a system file and is referenced.
   CP_6_SUBS.:E05TOU  is referenced.
      No diagnostics issued in procedure FLI$TAPE_CLOSE.
PL6.E3A0      #003=FLI$TAPE_CLOSE File=FLI$TAPE.:E05TSI                          TUE 07/29/97 15:56 Page:82

 **** Variables and constants ****

  ****  Section 003 RoData FLI$TAPE_CLOSE

  ****  Scalars and arrays  ****
OctLoc.c.b A Datatyp(siz) R M Lvl/name                 OctLoc.c.b A Datatyp(siz) R M Lvl/name

     0-0-0/d STRC(756)   r     1 CVOL_UTL

  ****  Auto variables  ****

  ****  Scalars and arrays  ****
OctLoc.c.b A Datatyp(siz) R M Lvl/name                 OctLoc.c.b A Datatyp(siz) R M Lvl/name

     3-0-0/w PTR         r     1 @CVOL                     *0-0-0/w BIT         r     1 CVOL
     5-0-0/b BIT         r     1 GOT_ERROR                  4-0-0/w SBIN        r     1 I

  ****  SYMREF variables  ****

  ****  Scalars and arrays  ****
OctLoc.c.b A Datatyp(siz) R M Lvl/name                 OctLoc.c.b A Datatyp(siz) R M Lvl/name

     0-0-0/w PTR         r     1 DISK_FILE_SPEC$            0-0-0/w PTR         r     1 DPLIST$
     0-0-0/w PTR         r     1 DPRESLIST$                 0-0-0/d STRC(216)   r     1 FPT_EXIT
     0-0-0/w SBIN        r     1 NBR_SNLISTS                0-0-0/c ASTR(9)     r     1 RET_CMDS_NAME
     0-0-0/w PTR         r     1 SNVECLIST$                 0-0-0/d STRC(1080)  r     1 TAPE_CLOSE
     0-0-0/w PTR         r     1 TAPE_DCBLIST$

  ****  BASED and DCB variables  ****

  ****  Scalars and arrays  ****
OctLoc.c.b A Datatyp(siz) R M Lvl/name                 OctLoc.c.b A Datatyp(siz) R M Lvl/name

     0-0-0/d ASTR(3528)  r     1 F$DCB
     0-0-0/w STRC(72)    r     1 TAPE_DCBLIST(0:0)

PL6.E3A0      #003=FLI$TAPE_CLOSE File=FLI$TAPE.:E05TSI                          TUE 07/29/97 15:56 Page:83

   Procedure FLI$TAPE_CLOSE requires 46 words for executable code.
   Procedure FLI$TAPE_CLOSE requires 6 words of local(AUTO) storage.
PL6.E3A0      #003=FLI$TAPE_CLOSE File=FLI$TAPE.:E05TSI                          TUE 07/29/97 15:56 Page:84
          *** CROSS REFERENCE LISTING ***
**     DENOTES     IDENTIFIER DEFINITION
<<                 IDENTIFIER'S VALUE SET
>>                 IDENTIFIER'S VALUE USED
<>                 IDENTIFIER SET AND/OR USED
--                 IDENTIFIER REFERENCED
PL6.E3A0      #003=FLI$TAPE_CLOSE File=FLI$TAPE.:E05TSI                          TUE 07/29/97 15:56 Page:85
          MINI XREF LISTING

CVOL
        11**DCL         6--PROC     7625--IF
CVOL_UTL
      7562**DCL      7627--ASSIGN
CVOL_UTL.ULBL#
      7562**DCL      7562--REDEF
DISK_CLOSE.SN_
      6727**DCL      6727--REDEF
DISK_CLOSE.UTL_
      6728**DCL      6728--REDEF
DISK_CLOSE.V.EXPIRE#
      6742**DCL      6742--REDEF
DISK_CLOSE.V.TYPE#
      6740**DCL      6740--REDEF
DISK_CLOSE.V.XTNSIZE#
      6737**DCL      6737--REDEF    6739--REDEF
DISK_FILE_SPEC.SPEC
      7092**DCL      7094--REDEF
DISK_FILE_SPEC.SPEC.START
      7093**DCL      7093--REDEF
DISK_FILE_SPEC.SPEC.STOP
      7094**DCL      7094--REDEF
DISK_FILE_SPEC$
      7091**DCL      7092--IMP-PTR
DISK_OPEN.ACSVEH_
      6592**DCL      6593--REDEF
DISK_OPEN.ALTKEYS_
      6598**DCL      6599--REDEF    6599--REDEF
DISK_OPEN.HDR_
      6597**DCL      6598--REDEF
DISK_OPEN.TAB_
      6596**DCL      6597--REDEF
PL6.E3A0      #003=FLI$TAPE_CLOSE File=FLI$TAPE.:E05TSI                          TUE 07/29/97 15:56 Page:86
DISK_OPEN.UHL_
      6590**DCL      6591--REDEF    6591--REDEF
DISK_OPEN.V.FSN#
      6630**DCL      6630--REDEF    6630--REDEF
DISK_OPEN.WSN_
      6596**DCL      6596--REDEF
DISK_READ.STATION_
      6654**DCL      6655--REDEF
DISK_READ.V.DVBYTE.REREAD#
      6666**DCL      6666--REDEF
DISK_READ.V.INDX#
      6664**DCL      6664--REDEF
DISK_WRITE.STATION_
      6692**DCL      6692--REDEF
DISK_WRITE.V.DVBYTE.VFC#
      6699**DCL      6699--REDEF
DPLIST$
      7077**DCL      7089--IMP-PTR
DPRESLIST$
      7091**DCL      7091--IMP-PTR
EFTWORD
      7212**DCL      7212--REDEF
F$DCB.ACTPOS
      7598**DCL      7598--REDEF
F$DCB.ARS#
      7572**DCL      7572--REDEF
F$DCB.ATTR
      7591**DCL      7592--REDEF
F$DCB.BORROW
      7606**DCL      7606--REDEF    7606--REDEF    7606--REDEF
F$DCB.DCBNAME.L
      7620**DCL      7620--IMP-SIZ
F$DCB.EOMCHAR#
      7576**DCL      7576--REDEF
F$DCB.FCD#
      7585**DCL      7636>>IF
PL6.E3A0      #003=FLI$TAPE_CLOSE File=FLI$TAPE.:E05TSI                          TUE 07/29/97 15:56 Page:87
F$DCB.FLDID
      7601**DCL      7601--REDEF
F$DCB.FORM$
      7595**DCL      7595--REDEF
F$DCB.FSECT
      7611**DCL      7611--REDEF
F$DCB.FSN#
      7588**DCL      7588--REDEF    7588--REDEF    7589--REDEF
F$DCB.HEADER$
      7594**DCL      7594--REDEF
F$DCB.IXTNSIZE#
      7592**DCL      7592--REDEF
F$DCB.LASTSTA$
      7581**DCL      7581--REDEF
F$DCB.LVL
      7607**DCL      7607--REDEF
F$DCB.NAME#.C
      7582**DCL      7582--REDEF
F$DCB.NOEOF
      7604**DCL      7604--REDEF
F$DCB.NRECS#
      7593**DCL      7593--REDEF
F$DCB.NRECX
      7612**DCL      7612--REDEF
F$DCB.OHDR
      7604**DCL      7604--REDEF
F$DCB.ORG#
      7587**DCL      7587--REDEF
F$DCB.PRECNO
      7610**DCL      7610--REDEF
F$DCB.RCSZ
      7616**DCL      7616--REDEF
F$DCB.RES#
      7583**DCL      7583--REDEF
F$DCB.SETX
      7595**DCL      7595--REDEF
PL6.E3A0      #003=FLI$TAPE_CLOSE File=FLI$TAPE.:E05TSI                          TUE 07/29/97 15:56 Page:88
F$DCB.TAB$
      7595**DCL      7595--REDEF
F$DCB.TDA
      7609**DCL      7610--REDEF
F$DCB.WSN#
      7583**DCL      7583--REDEF
FLI$RPT_ERR
      7535**DCL-ENT  7639--CALL
FPT_EXIT.V.STEPCC#
      6517**DCL      6517--REDEF    7640>>IF       7641<<ASSIGN
GOT_ERROR
      7542**DCL      7633<<ASSIGN   7642<<ASSIGN   7645>>IF
I
      7541**DCL      7634<<DOINDEX  7635>>ASSIGN   7636>>IF
M$CLOSE
      6044**DCL-ENT  7637--CALL
NBR_SNLISTS
      6504**DCL      7634>>DOINDEX
PRE_RET_CLOSE.SN_
      7455**DCL      7455--REDEF
PRE_RET_CLOSE.UTL_
      7456**DCL      7456--REDEF
PRE_RET_CLOSE.V.EXPIRE#
      7470**DCL      7470--REDEF
PRE_RET_CLOSE.V.TYPE#
      7468**DCL      7468--REDEF
PRE_RET_CLOSE.V.XTNSIZE#
      7465**DCL      7465--REDEF    7467--REDEF
PRE_RET_OPEN.ACSVEH_
      7390**DCL      7391--REDEF
PRE_RET_OPEN.ALTKEYS_
      7396**DCL      7397--REDEF    7397--REDEF
PRE_RET_OPEN.HDR_
      7395**DCL      7396--REDEF
PRE_RET_OPEN.TAB_
      7394**DCL      7395--REDEF
PL6.E3A0      #003=FLI$TAPE_CLOSE File=FLI$TAPE.:E05TSI                          TUE 07/29/97 15:56 Page:89
PRE_RET_OPEN.UHL_
      7388**DCL      7389--REDEF    7389--REDEF
PRE_RET_OPEN.V.FSN#
      7428**DCL      7428--REDEF    7428--REDEF
PRE_RET_OPEN.WSN_
      7394**DCL      7394--REDEF
PRE_RET_READ.STATION_
      7245**DCL      7246--REDEF
PRE_RET_READ.V.DVBYTE.REREAD#
      7257**DCL      7257--REDEF
PRE_RET_READ.V.INDX#
      7255**DCL      7255--REDEF
PRE_RET_WRITE.STATION_
      7283**DCL      7283--REDEF
PRE_RET_WRITE.V.DVBYTE.VFC#
      7290**DCL      7290--REDEF
RET_CMDS_NAME.L#
      7499**DCL      7499--IMP-SIZ
SNVECLIST$
      7031**DCL      7031--IMP-PTR
SPEC.START
      7095**DCL      7096--REDEF
SPEC.STOP
      7096**DCL      7097--REDEF
SPECCHARS
      7095**DCL      7095--REDEF
TAPE_CLOSE
      6948**DCL      7637<>CALL
TAPE_CLOSE.SN_
      6948**DCL      6948--REDEF
TAPE_CLOSE.UTL_
      6949**DCL      6949--REDEF    7626<<ASSIGN   7627<<ASSIGN
TAPE_CLOSE.V.DCB#
      6954**DCL      7635<<ASSIGN
TAPE_CLOSE.V.EXPIRE#
      6963**DCL      6963--REDEF
PL6.E3A0      #003=FLI$TAPE_CLOSE File=FLI$TAPE.:E05TSI                          TUE 07/29/97 15:56 Page:90
TAPE_CLOSE.V.TYPE#
      6961**DCL      6961--REDEF
TAPE_CLOSE.V.XTNSIZE#
      6958**DCL      6958--REDEF    6960--REDEF
TAPE_DCBLIST.DCB#
      6504**DCL      7635>>ASSIGN
TAPE_DCBLIST.DCB$
      6504**DCL      7636>>IF
TAPE_DCBLIST$
      6504**DCL      6504--IMP-PTR  7635>>ASSIGN   7636>>IF
TAPE_OPEN.ACSVEH_
      6813**DCL      6814--REDEF
TAPE_OPEN.ALTKEYS_
      6819**DCL      6820--REDEF    6820--REDEF
TAPE_OPEN.HDR_
      6818**DCL      6819--REDEF
TAPE_OPEN.TAB_
      6817**DCL      6818--REDEF
TAPE_OPEN.UHL_
      6811**DCL      6812--REDEF    6812--REDEF
TAPE_OPEN.V.FSN#
      6851**DCL      6851--REDEF    6851--REDEF
TAPE_OPEN.WSN_
      6817**DCL      6817--REDEF
TAPE_READ.STATION_
      6875**DCL      6876--REDEF
TAPE_READ.V.DVBYTE.REREAD#
      6887**DCL      6887--REDEF
TAPE_READ.V.INDX#
      6885**DCL      6885--REDEF
TAPE_WRITE.STATION_
      6913**DCL      6913--REDEF
TAPE_WRITE.V.DVBYTE.VFC#
      6920**DCL      6920--REDEF
TVECTOR.W2
      7044**DCL      7045--REDEF

