VERSION E05

PL6.E3A0      #001=FLM$MMBUG File=FLM$MMBUG.:E05TSI                              TUE 07/29/97 16:02 Page:1
        1        1        /*M* FLM$MMBUG - grabs AUTO space now to avoid MM bug STAR 17812 */
        2        2        /*T***********************************************************/
        3        3        /*T*                                                         */
        4        4        /*T* Copyright (c) Bull HN Information Systems Inc., 1997    */
        5        5        /*T*                                                         */
        6        6        /*T***********************************************************/
        7        7        FLM$MMBUG: PROC;
        8        8    1   DCL A(0:8191) UBIN WORD AUTO;
        9        9    1      RETURN;
       10       10    1   END FLM$MMBUG;

PL6.E3A0      #001=FLM$MMBUG File=FLM$MMBUG.:E05TSI                              TUE 07/29/97 16:02 Page:2
      No diagnostics issued in procedure FLM$MMBUG.

   Procedure FLM$MMBUG requires 3 words for executable code.
   Procedure FLM$MMBUG requires 8196 words of local(AUTO) storage.

    No errors detected in file FLM$MMBUG.:E05TSI    .

PL6.E3A0      #001=FLM$MMBUG File=FLM$MMBUG.:E05TSI                              TUE 07/29/97 16:02 Page:3

 Object Unit name= FLM$MMBUG                                  File name= FLM$MMBUG.:E05TOU
 UTS= JUL 29 '97 16:02:38.04 TUE                              Compiler= PL-6/E31         Sev=      00
 SharedLib= :SHARED_SYSTEM                                    Alt SharedLib=


    ****  Control sections  ****

 Sect   Type Bound  Init  Size OctSiz  Section name(segment info)
    0   Proc  even  none     3      3  FLM$MMBUG

    ****  Entry defs  ****

                              Check   Calling
                             calling  sequence
  Sect OctLoc Primary Altret sequence   type   Parms  Name
     0      0   yes            yes      Std        0  FLM$MMBUG

  ****  Entry refs  ****

         Check        Calling
        calling       sequence
Altret sequence SRef   type   Args  Name
                       nStd      0 X66_AUTO_0
                       nStd      0 X66_ARET
PL6.E3A0      #001=FLM$MMBUG File=FLM$MMBUG.:E05TSI                              TUE 07/29/97 16:02 Page:4


        1        1        /*M* FLM$MMBUG - grabs AUTO space now to avoid MM bug STAR 17812 */
        2        2        /*T***********************************************************/
        3        3        /*T*                                                         */
        4        4        /*T* Copyright (c) Bull HN Information Systems Inc., 1997    */
        5        5        /*T*                                                         */
        6        6        /*T***********************************************************/
        7        7        FLM$MMBUG: PROC;

      7  0 000000   000000 700200 xent  FLM$MMBUG    TSX0  ! X66_AUTO_0
         0 000001   020004 000000                    ZERO    8196,0

        8        8    1   DCL A(0:8191) UBIN WORD AUTO;
        9        9    1      RETURN;

      9  0 000002   000000 702200 xent               TSX2  ! X66_ARET
       10       10    1   END FLM$MMBUG;

PL6.E3A0      #001=FLM$MMBUG File=FLM$MMBUG.:E05TSI                              TUE 07/29/97 16:02 Page:5
      No diagnostics issued in procedure FLM$MMBUG.
PL6.E3A0      #001=FLM$MMBUG File=FLM$MMBUG.:E05TSI                              TUE 07/29/97 16:02 Page:6

 **** Variables and constants ****


   Procedure FLM$MMBUG requires 3 words for executable code.
   Procedure FLM$MMBUG requires 8196 words of local(AUTO) storage.

    No errors detected in file FLM$MMBUG.:E05TSI    .
PL6.E3A0      #001=FLM$MMBUG File=FLM$MMBUG.:E05TSI                              TUE 07/29/97 16:02 Page:7
          *** CROSS REFERENCE LISTING ***
**     DENOTES     IDENTIFIER DEFINITION
<<                 IDENTIFIER'S VALUE SET
>>                 IDENTIFIER'S VALUE USED
<>                 IDENTIFIER SET AND/OR USED
--                 IDENTIFIER REFERENCED
PL6.E3A0      #001=FLM$MMBUG File=FLM$MMBUG.:E05TSI                              TUE 07/29/97 16:02 Page:8
          MINI XREF LISTING

