PL6.E3A0      #001=FLM$MOVE File=FLM$MOVE.:E05TSI                                TUE 07/29/97 16:03 Page:501
     16518**DCL     19359<>CALL    19376<>CALL    19394<>CALL    19416<>CALL    19423<>CALL    19438<>CALL
     19445<>CALL
CLOSE_PRIME_DUAL.SN_
     16518**DCL     16518--REDEF
CLOSE_PRIME_DUAL.UTL_
     16519**DCL     16519--REDEF
CLOSE_PRIME_DUAL.V.EXPIRE#
     16533**DCL     16533--REDEF
CLOSE_PRIME_DUAL.V.TYPE#
     16531**DCL     16531--REDEF
CLOSE_PRIME_DUAL.V.XTNSIZE#
     16528**DCL     16528--REDEF   16530--REDEF
CLOSE_REBUILD.SN_
     16793**DCL     16793--REDEF
CLOSE_REBUILD.UTL_
     16794**DCL     16794--REDEF
CLOSE_REBUILD.V.EXPIRE#
     16808**DCL     16808--REDEF
CLOSE_REBUILD.V.TYPE#
     16806**DCL     16806--REDEF
CLOSE_REBUILD.V.XTNSIZE#
     16803**DCL     16803--REDEF   16805--REDEF
CLOSE_STATUS
     16008**DCL     20241<>CALL    20267<>CALL    20296<>CALL
CLOSE_STATUS.SN_
     16008**DCL     16008--REDEF
CLOSE_STATUS.UTL_
     16009**DCL     16009--REDEF
CLOSE_STATUS.V.EXPIRE#
     16023**DCL     16023--REDEF
CLOSE_STATUS.V.TYPE#
     16021**DCL     16021--REDEF
CLOSE_STATUS.V.XTNSIZE#
     16018**DCL     16018--REDEF   16020--REDEF
CLOSE_TSN_USED
     15718**DCL     20984<>CALL    20998<>CALL
PL6.E3A0      #001=FLM$MOVE File=FLM$MOVE.:E05TSI                                TUE 07/29/97 16:03 Page:502
CLOSE_TSN_USED.SN_
     15718**DCL     15718--REDEF
CLOSE_TSN_USED.UTL_
     15719**DCL     15719--REDEF
CLOSE_TSN_USED.V.EXPIRE#
     15733**DCL     15733--REDEF
CLOSE_TSN_USED.V.TYPE#
     15731**DCL     15731--REDEF
CLOSE_TSN_USED.V.XTNSIZE#
     15728**DCL     15728--REDEF   15730--REDEF
CLSALT
     19352**LABEL   19314--GOTO    19324--GOTO    19328--GOTO    19414--GOTO    19429--GOTO
CODE
     17664**DCL     21088<<ASSIGN  21092<<ASSIGN  21098<<ASSIGN  21106<>CALL    21108>>IF      21161<<ASSIGN
     21162<<ASSIGN  21164<>CALL    21166>>IF      21949<<ASSIGN  21950<>CALL    21952>>ASSIGN
CODE$
     17665**DCL     19110--IMP-PTR 19119--IMP-PTR 19125--IMP-PTR 19128--IMP-PTR 19134--IMP-PTR 19531<<ASSIGN
     19532<>CALL    19534>>ASSIGN  19747>>IF      20597<<ASSIGN  20598<>CALL    20605>>ASSIGN  20608>>ASSIGN
     20610<<ASSIGN  20611<>CALL    20615>>ASSIGN  20616>>ASSIGN  20622<<ASSIGN  20623<>CALL    20627>>ASSIGN
     20683<<ASSIGN  20684<>CALL    20688>>IF      20695<<ASSIGN  20696<>CALL    20704>>IF      20707<<ASSIGN
     20708<>CALL    20712>>IF      20714>>ASSIGN  21059<<ASSIGN  21060<>CALL    21062>>ASSIGN  21079<<ASSIGN
     21089<<ASSIGN  21095<<ASSIGN  21099<<ASSIGN  21104>>IF      21106<>CALL    21109>>ASSIGN  21110>>ASSIGN
     21117>>ASSIGN  21144<<ASSIGN  21145<>CALL    21147>>ASSIGN  21148>>ASSIGN  21163<<ASSIGN  21164<>CALL
     21168>>ASSIGN  21169>>ASSIGN  21170>>IF      21170>>IF      21176>>ASSIGN  21177>>ASSIGN  21723<<ASSIGN
     21724<>CALL    21726>>IF      21743<<ASSIGN  21744<>CALL    21746>>ASSIGN  21948<<ASSIGN  21950<>CALL
     21953>>ASSIGN  22298<<ASSIGN  22299<>CALL    22301>>IF      22321<<ASSIGN  22322<>CALL    22324>>IF
     22711<<ASSIGN  22712<>CALL
CODE03.DESC
     19110**DCL     20615<<ASSIGN  20627<<ASSIGN
CODE03.DESC.ARCHIVE
     19111**DCL     20616<<ASSIGN
CODE03.DESC.BUPM
     19111**DCL     19747>>IF
CODE03.DESC.FETCH
     19112**DCL     21746<<ASSIGN
CODE03.UGRANS
PL6.E3A0      #001=FLM$MOVE File=FLM$MOVE.:E05TSI                                TUE 07/29/97 16:03 Page:503
     19110**DCL     19534>>ASSIGN
CODE04.ACCESS.TIME
     19121**DCL     20704>>IF      20712>>IF      20712>>IF      20714<<ASSIGN  20714>>ASSIGN  21206>>IF
     21206>>IF
CODE04.CREATOR
     19121**DCL     21235<<ASSIGN  21235>>ASSIGN
CODE04.CREATOR.ACCT
     19121**DCL     21170>>IF      21217<<ASSIGN  21244<<ASSIGN
CODE04.CREATOR.NAME
     19121**DCL     21170>>IF      21218<<ASSIGN  21245<<ASSIGN
CODE04.MODIFY.TIME
     19121**DCL     21062>>ASSIGN  21109>>ASSIGN  21168>>ASSIGN  21204>>IF      21204>>IF      22324>>IF
CODE04$
     17666**DCL     20690<<ASSIGN  20691<>CALL    20704>>IF      20712>>IF      20714>>ASSIGN
CODE05.BACKUP.TIME
     19125**DCL     20704>>IF
CODE06
     19128**DCL     20605<<ASSIGN  20605>>ASSIGN  20608<<ASSIGN  21952--ASSIGN  21953<<ASSIGN  21953>>ASSIGN
CODE06.STOW.EFT
     19128**DCL     19129--REDEF   20520>>ASSIGN
CODE06.STOW.REEL
     19128**DCL     20517>>IF
CODE06.STOW.TIME
     19128**DCL     21110>>ASSIGN  21147>>ASSIGN  21176>>ASSIGN  22301>>IF
CODE14.ACCESS.BUPF
     19136**DCL     21726>>IF
CODE14.ACCESS.NOACUP
     19136**DCL     20688>>IF
COMMAND
        17**DCL         8--PROC    19162>>DOCASE  19224>>IF      19224>>IF      19250>>IF      19283>>IF
     19300>>IF      19453>>IF      19477>>IF      19508>>IF      19516>>IF      19545>>IF      19602>>IF
     19640>>IF      19648<>CALL    19690>>IF      19707>>IF      19707>>IF      19707>>IF      19707>>IF
     19707>>IF      19744>>IF      19744>>IF      19762>>IF      19787<>CALL    19817>>IF      19817>>IF
     19823>>IF      19826>>IF      19860>>IF      19860>>IF      19860>>IF      19876>>IF      19913>>IF
     19959>>IF      19978>>DOCASE  19983>>IF      20030>>IF      20111<>CALL    20118>>IF      20118>>IF
     20174>>IF      20174>>IF      20176>>IF      20188>>IF      20260<>CALL    20303>>IF      20383>>IF
PL6.E3A0      #001=FLM$MOVE File=FLM$MOVE.:E05TSI                                TUE 07/29/97 16:03 Page:504
     20514>>IF      20535>>DOCASE  20555>>IF      20635>>DOCASE  20676>>IF      20774>>IF      20774>>IF
     20781>>IF      20797>>IF      20797>>IF      20799>>IF      20799>>IF      20922<>CALL    20931<>CALL
     20958<>CALL    20961>>IF      20961>>IF      20990>>IF      21013>>DOCASE  21035<>CALL    21160>>IF
     21718>>IF      21741>>IF      21935>>IF      21993>>IF      22001>>IF
CON_CLOSE_ARCHIVE.SN_
     16050**DCL     16050--REDEF
CON_CLOSE_ARCHIVE.UTL_
     16051**DCL     16051--REDEF
CON_CLOSE_ARCHIVE.V.EXPIRE#
     16065**DCL     16065--REDEF
CON_CLOSE_ARCHIVE.V.TYPE#
     16063**DCL     16063--REDEF
CON_CLOSE_ARCHIVE.V.XTNSIZE#
     16060**DCL     16060--REDEF   16062--REDEF
CON_OPEN_ARCHIVE_FILE.ACSVEH_
     16137**DCL     16138--REDEF
CON_OPEN_ARCHIVE_FILE.ALTKEYS_
     16143**DCL     16144--REDEF   16144--REDEF
CON_OPEN_ARCHIVE_FILE.HDR_
     16142**DCL     16143--REDEF
CON_OPEN_ARCHIVE_FILE.TAB_
     16141**DCL     16142--REDEF
CON_OPEN_ARCHIVE_FILE.UHL_
     16135**DCL     16136--REDEF   16136--REDEF
CON_OPEN_ARCHIVE_FILE.V.FSN#
     16175**DCL     16175--REDEF   16175--REDEF
CON_OPEN_ARCHIVE_FILE.WSN_
     16141**DCL     16141--REDEF
CON_READ_ARCHIVE_FILE.STATION_
     16199**DCL     16200--REDEF
CON_READ_ARCHIVE_FILE.V.DVBYTE.REREAD#
     16211**DCL     16211--REDEF
CON_READ_ARCHIVE_FILE.V.INDX#
     16209**DCL     16209--REDEF
CREATEALT
     19235**LABEL   19234--CALLALT 19235--CALLALT
PL6.E3A0      #001=FLM$MOVE File=FLM$MOVE.:E05TSI                                TUE 07/29/97 16:03 Page:505
CROSSED
     15411**DCL     19194<<ASSIGN  19648<>CALL    19668<>CALL    19671<>CALL    19722<>CALL    19750<>CALL
     19787<>CALL    19829<>CALL    19832<>CALL    19870<>CALL    19965<>CALL    20260<>CALL    20290<>CALL
     20566<>CALL    20578<>CALL    20773>>IF      20842>>IF      20922<>CALL    20931<>CALL
CVOL_UTL.ULBL#
     15478**DCL     15478--REDEF
DATE_CRIT.EXPD
     14195**DCL     20993<<ASSIGN
DCB#
     17728**DCL     19503<>CALL    19648<>CALL    19657<>CALL    19678<>CALL    19713>>ASSIGN  19723<>CALL
     19752<>CALL    19787<>CALL    19796<>CALL    19845<>CALL    21763<>CALL
DCB# IN PROCEDURE FLM_FILE_TO_DISK_HANDLING
     20485**DCL     20563<<ASSIGN  20568<>CALL    20580<>CALL
DCB# IN PROCEDURE FLM_REQUEUE_FILES_FOR_STOW
     22667**DCL     22691<<ASSIGN  22726--ASSIGN
DCB$
     15375**DCL     22217<<ASSIGN  22425<>CALL
DCB_NBR
     17727**DCL     19503<>CALL    19681<>CALL    19734<>CALL    19945<>CALL
DEFAULT_GRANS_PER_DISK_BUF
     14134**DCL     19211<>CALL
DELALT IN PROCEDURE FLM_FILE_FROM_DISK_CLEANUP
     21021**LABEL   20995--CALLALT
DELETE_FILE_NAME
     18026**DCL     18106--DCLINIT
DEL_ACCT_FROM_MAD
     18738**DCL     22439<>CALL
DEL_ACCT_FROM_MAD.V
     18739**DCL     18738--DCLINIT
DEL_CLNUP IN PROCEDURE FLM_ACCOUNT_TO_DISK_HANDLING
     20442**LABEL   20464--GOTO
DEL_LIST_REC
     17510**DCL     18291--DCLINIT 18292--DCLINIT 18344--DCLINIT 18345--DCLINIT 18386--DCLINIT 18387--DCLINIT
DEL_LIST_REC.ACCT
     17515**DCL     18526--DCLINIT 18684--DCLINIT 18738--DCLINIT 18780--DCLINIT 20914>>ASSIGN  22161<<ASSIGN
     22279>>IF      22290>>IF      22524>>IF
PL6.E3A0      #001=FLM$MOVE File=FLM$MOVE.:E05TSI                                TUE 07/29/97 16:03 Page:506
DEL_LIST_REC.CFSN
     17525**DCL     19472<<ASSIGN  20939<<ASSIGN  22425<>CALL    22521<>CALL    22555<>CALL
DEL_LIST_REC.CSN
     17520**DCL     19471<<ASSIGN  20938<<ASSIGN  22425<>CALL    22521<>CALL    22555<>CALL
DEL_LIST_REC.FSN
     17526**DCL     22168<<ASSIGN
DEL_LIST_REC.INACTIVATE
     17527**DCL     20927>>IF      22169<<ASSIGN  22467>>IF      22476>>IF      22517>>IF      22551>>IF
DEL_LIST_REC.NAME#
     17516**DCL     18522--DCLINIT
DEL_LIST_REC.NAME#.C
     17518**DCL     20910>>ASSIGN  22162<<ASSIGN  22271>>IF      22290>>IF      22524>>IF
DEL_LIST_REC.NAME#.L
     17517**DCL     20911>>IF      20913>>ASSIGN  22164<<ASSIGN  22165<<ASSIGN  22269>>IF      22270<<ASSIGN
     22271>>IF      22290>>IF      22524>>IF
DEL_LIST_REC.RES
     17521**DCL     22166<<ASSIGN  22287>>ASSIGN
DEL_LIST_REC.SN
     17519**DCL     22167<<ASSIGN
DEL_LIST_REC.TIME
     17530**DCL     22171<<ASSIGN  22301>>IF      22314>>IF      22324>>IF
DEL_LIST_REC.TO_ACCT
     17522**DCL     18759--DCLINIT 19645<<ASSIGN  19661<<ASSIGN  22442>>IF
DEL_LIST_REC.TO_SN
     17523**DCL     19646<<ASSIGN  19662<<ASSIGN  22442>>IF
DEL_LIST_REC.VLP_SN
     17511**DCL     18521--DCLINIT 18679--DCLINIT 18739--DCLINIT
DEL_LIST_REC.VLP_SN.SN#
     17513**DCL     20915>>ASSIGN  22160<<ASSIGN  22290>>IF      22435>>ASSIGN  22437>>IF      22524>>IF
DEL_NODATA_REC
     17141**DCL     20662<>CALL
DEL_NODATA_REC.V
     17144**DCL     17141--DCLINIT
DEST
     17731**DCL     19165<<ASSIGN  19170<<ASSIGN  19177<<ASSIGN  19182<<ASSIGN  19187<<ASSIGN  19192<<ASSIGN
     19200>>DOCASE  19252>>IF      19642>>DOCASE  19776>>DOCASE  19808>>IF      20108>>DOCASE  20783>>DOCASE
PL6.E3A0      #001=FLM$MOVE File=FLM$MOVE.:E05TSI                                TUE 07/29/97 16:03 Page:507
     20921>>IF      20930>>IF      20955>>IF
DEST_FILE_TYPE
     17691**DCL     20657>>IF      20748>>IF      20750>>IF      21132<<ASSIGN  21143<<ASSIGN  21155<<ASSIGN
     21159<<ASSIGN  21172<<ASSIGN  21200>>IF      21214>>IF      21228>>IF      21242>>IF
DEST_GRAN_UTS IN PROCEDURE FLM_GET_NEXT_QUAL_GRAN
     22030**DCL     22038<<ASSIGN  22044<<ASSIGN  22054>>IF
DEST_UTS
     17720**DCL     20352>>IF      20371<<ASSIGN  20372>>IF      20506>>IF      20515>>IF      21062<<ASSIGN
     21065<<ASSIGN  21068<<ASSIGN  21147<<ASSIGN  21151<<ASSIGN  21156<<ASSIGN  21168<<ASSIGN  21176<<ASSIGN
     21181<<ASSIGN  21186<<ASSIGN  21195<<ASSIGN  21205>>ASSIGN  21207>>ASSIGN  21212>>IF      21236>>ASSIGN
DISK_ACCT_FIRST.ACCT#
     15336**DCL     20222>>ASSIGN
DISK_ACCT_LAST.ACCT#
     15349**DCL     20223>>ASSIGN
DISK_CLOSE
     13811**DCL     20721<>CALL    20733<>CALL    20853<>CALL    20871<>CALL    21189<>CALL    21303<>CALL
     22076<>CALL    22118<>CALL    22134<>CALL    22617<>CALL
DISK_CLOSE.IFPARAM_
     13816**DCL     20717<<ASSIGN  20722<<ASSIGN  20850<<ASSIGN  20860<<ASSIGN  21587<<ASSIGN  21956<<ASSIGN
DISK_CLOSE.SN_
     13811**DCL     13811--REDEF   19276<<ASSIGN  22116<<ASSIGN  22142<<ASSIGN
DISK_CLOSE.UTL_
     13812**DCL     13812--REDEF
DISK_CLOSE.V.DCB#
     13817**DCL     19257<<ASSIGN
DISK_CLOSE.V.DESC
     13821**DCL     20718<<ASSIGN  20861<<ASSIGN  21728<<ASSIGN  21957<<ASSIGN  22110<<ASSIGN  22131<<ASSIGN
     22140<<ASSIGN
DISK_CLOSE.V.DESC.BUF#
     13822**DCL     21729<<ASSIGN
DISK_CLOSE.V.DESC.FETCH#
     13823**DCL     22133<<ASSIGN
DISK_CLOSE.V.DESC.ODSTOW#
     13822**DCL     21959<<ASSIGN  21986<<ASSIGN
DISK_CLOSE.V.DESC.QS#
     13822**DCL     21960<<ASSIGN  22132<<ASSIGN
PL6.E3A0      #001=FLM$MOVE File=FLM$MOVE.:E05TSI                                TUE 07/29/97 16:03 Page:508
DISK_CLOSE.V.DESC.TERMINATE#
     13823**DCL     21270<<ASSIGN  21277<<ASSIGN  21308>>IF      21589<<ASSIGN  21633<<ASSIGN  22073<<ASSIGN
     22613<<ASSIGN
DISK_CLOSE.V.DISP#
     13820**DCL     20720<<ASSIGN  20732<<ASSIGN  20870<<ASSIGN  21188<<ASSIGN  21283<<ASSIGN  21288<<ASSIGN
     21292<<ASSIGN  21294<<ASSIGN  21307<<ASSIGN  21590<<ASSIGN  21634<<ASSIGN  21933<<ASSIGN  21934<<ASSIGN
     21982<<ASSIGN  21990<<ASSIGN  22071<<ASSIGN  22616<<ASSIGN
DISK_CLOSE.V.EFTOPER
     13818**DCL     20723<<ASSIGN  20731<<ASSIGN  20862<<ASSIGN  21187<<ASSIGN  21269<<ASSIGN  21588<<ASSIGN
     21632<<ASSIGN  21710<<ASSIGN  22129<<ASSIGN  22139<<ASSIGN  22612<<ASSIGN
DISK_CLOSE.V.EFTOPER.ASTOW#
     13819**DCL     22117<<ASSIGN
DISK_CLOSE.V.EFTOPER.DELFDE#
     13820**DCL     20869<<ASSIGN  21272<<ASSIGN  22615<<ASSIGN
DISK_CLOSE.V.EFTOPER.ISTOW#
     13819**DCL     21983<<ASSIGN
DISK_CLOSE.V.EFTOPER.UPDDESC#
     13819**DCL     20719<<ASSIGN  21276<<ASSIGN  21730<<ASSIGN  21961<<ASSIGN  21987<<ASSIGN  22072<<ASSIGN
     22130<<ASSIGN
DISK_CLOSE.V.EXPIRE#
     13826**DCL     13826--REDEF   20843<<ASSIGN  22114<<ASSIGN  22141<<ASSIGN
DISK_CLOSE.V.TYPE#
     13824**DCL     13824--REDEF
DISK_CLOSE.V.XTNSIZE#
     13821**DCL     13821--REDEF   13823--REDEF
DISK_CLOSE_NEXT
     14990**DCL     22303<>CALL    22316<>CALL    22327<>CALL    22333<>CALL    22342<>CALL    22474<>CALL
     22506<>CALL
DISK_CLOSE_NEXT.SN_
     14990**DCL     14990--REDEF   20778<<ASSIGN
DISK_CLOSE_NEXT.UTL_
     14991**DCL     14991--REDEF
DISK_CLOSE_NEXT.V.DCB#
     14996**DCL     22256<<ASSIGN
DISK_CLOSE_NEXT.V.DESC
     15000**DCL     20780<<ASSIGN  22268<<ASSIGN
PL6.E3A0      #001=FLM$MOVE File=FLM$MOVE.:E05TSI                                TUE 07/29/97 16:03 Page:509
DISK_CLOSE_NEXT.V.DESC.ACTIVE#
     15002**DCL     20822<<ASSIGN
DISK_CLOSE_NEXT.V.DESC.ARCHIVE#
     15001**DCL     20816<<ASSIGN
DISK_CLOSE_NEXT.V.DESC.BAD#
     15001**DCL     20809<<ASSIGN
DISK_CLOSE_NEXT.V.DESC.ODSTOW#
     15001**DCL     20824<<ASSIGN  20825<<ASSIGN
DISK_CLOSE_NEXT.V.DESC.TERMINATE#
     15002**DCL     22503<<ASSIGN
DISK_CLOSE_NEXT.V.DESC.TPB#
     15002**DCL     20785<<ASSIGN  20788<<ASSIGN
DISK_CLOSE_NEXT.V.DISP#
     14999**DCL     22505<<ASSIGN  22508>>IF      22509<<ASSIGN  22531<<ASSIGN  22550<<ASSIGN  22563<<ASSIGN
DISK_CLOSE_NEXT.V.EFTOPER
     14997**DCL     22267<<ASSIGN  22530<<ASSIGN  22541<<ASSIGN  22549<<ASSIGN
DISK_CLOSE_NEXT.V.EFTOPER.ASTOW#
     14998**DCL     20815<<ASSIGN
DISK_CLOSE_NEXT.V.EFTOPER.BACKUP#
     14997**DCL     20806<<ASSIGN
DISK_CLOSE_NEXT.V.EFTOPER.DELFDE#
     14999**DCL     22542<<ASSIGN
DISK_CLOSE_NEXT.V.EFTOPER.ISTOW#
     14998**DCL     22469<<ASSIGN
DISK_CLOSE_NEXT.V.EFTOPER.UPDDESC#
     14998**DCL     20779<<ASSIGN  22502<<ASSIGN
DISK_CLOSE_NEXT.V.EXPIRE#
     15005**DCL     15005--REDEF   20829<<ASSIGN
DISK_CLOSE_NEXT.V.TYPE#
     15003**DCL     15003--REDEF
DISK_CLOSE_NEXT.V.XTNSIZE#
     15000**DCL     15000--REDEF   15002--REDEF
DISK_CLOSE_ORDINARY.SN_
     15032**DCL     15032--REDEF
DISK_CLOSE_ORDINARY.UTL_
     15033**DCL     15033--REDEF
PL6.E3A0      #001=FLM$MOVE File=FLM$MOVE.:E05TSI                                TUE 07/29/97 16:03 Page:510
DISK_CLOSE_ORDINARY.V.EXPIRE#
     15047**DCL     15047--REDEF
DISK_CLOSE_ORDINARY.V.TYPE#
     15045**DCL     15045--REDEF
DISK_CLOSE_ORDINARY.V.XTNSIZE#
     15042**DCL     15042--REDEF   15044--REDEF
DISK_CODE04$
     17669**DCL     21131<<ASSIGN  21169<<ASSIGN  21202>>IF      21204>>IF      21206>>IF      21234>>IF
     21235>>ASSIGN
DISK_CODE06$
     17667**DCL     20516>>IF      20517>>IF      20520>>ASSIGN  21130<<ASSIGN  21148<<ASSIGN  21177<<ASSIGN
     21953>>ASSIGN
DISK_CRIT.TIM
     14194**DCL     20992<<ASSIGN
DISK_DESC_SAVE
     14197**DCL     21136<<ASSIGN  22110>>ASSIGN
DISK_DESC_SAVE.ODSTOW#
     14197**DCL     21958>>IF      21993>>IF      22111>>IF
DISK_DEST_ACCT
     14293**DCL     19269>>ASSIGN
DISK_DEST_ACCT.ACCT#
     14293**DCL     19268>>IF      19783>>IF      20336>>IF
DISK_DEST_EXIST
     14295**DCL     19280>>IF      19281<<ASSIGN  19285<<ASSIGN  19287<<ASSIGN  19293>>ASSIGN  20342>>IF
     20348>>IF      20364>>IF      20537>>IF      20541>>IF      21279>>IF      21308>>IF
DISK_DEST_RES.NAME
     14295**DCL     19228>>ASSIGN  19264>>ASSIGN  19305>>ASSIGN  19379>>ASSIGN  19419>>ASSIGN  21586>>ASSIGN
DISK_DEST_SN.SN#
     14280**DCL     19227>>ASSIGN  19261>>IF      19262>>ASSIGN  19406>>IF      19409<<ASSIGN  19779>>IF
     20334>>IF
DISK_FILE_SPEC.NBR
     14176**DCL     19602>>IF      19985>>IF      19989>>IF      22641<<ASSIGN
DISK_FILE_SPEC.SPEC
     14176**DCL     14178--REDEF
DISK_FILE_SPEC.SPEC.START
     14177**DCL     14177--REDEF
PL6.E3A0      #001=FLM$MOVE File=FLM$MOVE.:E05TSI                                TUE 07/29/97 16:03 Page:511
DISK_FILE_SPEC.SPEC.START.ACCT.ACCT#
     14177**DCL     19609>>IF      22642<<ASSIGN
DISK_FILE_SPEC.SPEC.START.FILE.L#
     14177**DCL     22643<<ASSIGN
DISK_FILE_SPEC.SPEC.START.FILE.NAME#
     14177**DCL     19602>>IF      19609>>IF      22644<<ASSIGN
DISK_FILE_SPEC.SPEC.STOP
     14178**DCL     14178--REDEF   19985>>IF      19989>>IF
DISK_FILE_SPEC.SPEC.STOP.FILE.NAME#
     14178**DCL     19602>>IF
DISK_FILE_SPEC$
     14175**DCL     14176--IMP-PTR 19602>>IF      19602>>IF      19602>>IF      19609>>IF      19609>>IF
     19985>>IF      19985>>IF      19989>>IF      19989>>IF      22641>>ASSIGN  22642>>ASSIGN  22643>>ASSIGN
     22644>>ASSIGN
DISK_FIT_
     17699**DCL     19204<>CALL    20345>>ASSIGN  20411>>ASSIGN  20706>>ASSIGN  21129>>ASSIGN  21233>>ASSIGN
     22103>>ASSIGN
DISK_FIT_.PTR$
     17701**DCL     21059>>ASSIGN  21144>>ASSIGN  21163>>ASSIGN
DISK_GRAN$
     15389**DCL     15389--IMP-PTR
DISK_KEY
     17725**DCL     21801--ASSIGN  21809<<ASSIGN  21860--ASSIGN  21887<<ASSIGN  21899>>IF      21909<<ASSIGN
DISK_OPEN
     13674**DCL     20867<>CALL    21134<>CALL    21313<>CALL    21752<>CALL    22086<>CALL    22090<>CALL
     22104<>CALL    22124<>CALL    22610<>CALL
DISK_OPEN.ACCT_
     13678**DCL     19270<<ASSIGN
DISK_OPEN.ACSVEH_
     13676**DCL     13677--REDEF
DISK_OPEN.ALTKEYS_
     13682**DCL     13683--REDEF   13683--REDEF
DISK_OPEN.FPARAM_
     13679**DCL     21129<<ASSIGN  21251<<ASSIGN  22102<<ASSIGN  22609<<ASSIGN
DISK_OPEN.HDR_
     13681**DCL     13682--REDEF
PL6.E3A0      #001=FLM$MOVE File=FLM$MOVE.:E05TSI                                TUE 07/29/97 16:03 Page:512
DISK_OPEN.IFPARAM_
     13679**DCL     20593<<ASSIGN  20596<<ASSIGN  20621<<ASSIGN  21128<<ASSIGN  22103<<ASSIGN  22108<<ASSIGN
     22608<<ASSIGN
DISK_OPEN.NAME_
     13675**DCL     19275<<ASSIGN
DISK_OPEN.SN_
     13674**DCL     19263<<ASSIGN  19265>>ASSIGN  19266>>ASSIGN
DISK_OPEN.TAB_
     13680**DCL     13681--REDEF
DISK_OPEN.UHL_
     13674**DCL     13675--REDEF   13675--REDEF
DISK_OPEN.V.ACS#
     13694**DCL     22100<<ASSIGN
DISK_OPEN.V.DCB#
     13683**DCL     19258<<ASSIGN  20563>>ASSIGN
DISK_OPEN.V.DELETE#
     13685**DCL     21312<<ASSIGN  21318<<ASSIGN  22089<<ASSIGN  22099<<ASSIGN
DISK_OPEN.V.EXIST#
     13687**DCL     19293<<ASSIGN  21289<<ASSIGN
DISK_OPEN.V.EXPIRE#
     13703**DCL     20628<<ASSIGN  22101<<ASSIGN
DISK_OPEN.V.FSN#
     13714**DCL     13714--REDEF   13714--REDEF
DISK_OPEN.V.FUN#
     13693**DCL     19259<<ASSIGN  20866<<ASSIGN  21127<<ASSIGN  21216<<ASSIGN  21222<<ASSIGN  21227<<ASSIGN
     21241<<ASSIGN  21250>>IF      21284<<ASSIGN  21290<<ASSIGN  21311<<ASSIGN  21317<<ASSIGN  22082<<ASSIGN
     22098<<ASSIGN  22123<<ASSIGN  22607<<ASSIGN
DISK_OPEN.V.OPER.NXTF#
     13686**DCL     22084<<ASSIGN  22144<<ASSIGN
DISK_OPEN.V.OPER.TEST#
     13685**DCL     22085<<ASSIGN  22088<<ASSIGN  22095<<ASSIGN
DISK_OPEN.V.RES#
     13698**DCL     19264<<ASSIGN
DISK_OPEN.V.SRCHCOND.ANYF#
     13692**DCL     22083<<ASSIGN  22143<<ASSIGN
DISK_OPEN.WSN_
PL6.E3A0      #001=FLM$MOVE File=FLM$MOVE.:E05TSI                                TUE 07/29/97 16:03 Page:513
     13680**DCL     13680--REDEF
DISK_OPEN_DUAL IN PROCEDURE FLM_DELETE_DUAL_FILES
     21416**DCL     21595<>CALL    21624<>CALL
DISK_OPEN_DUAL.ACSVEH_ IN PROCEDURE FLM_DELETE_DUAL_FILES
     21418**DCL     21419--REDEF
DISK_OPEN_DUAL.ALTKEYS_ IN PROCEDURE FLM_DELETE_DUAL_FILES
     21424**DCL     21425--REDEF   21425--REDEF
DISK_OPEN_DUAL.HDR_ IN PROCEDURE FLM_DELETE_DUAL_FILES
     21423**DCL     21424--REDEF
DISK_OPEN_DUAL.TAB_ IN PROCEDURE FLM_DELETE_DUAL_FILES
     21422**DCL     21423--REDEF
DISK_OPEN_DUAL.UHL_ IN PROCEDURE FLM_DELETE_DUAL_FILES
     21416**DCL     21417--REDEF   21417--REDEF
DISK_OPEN_DUAL.V IN PROCEDURE FLM_DELETE_DUAL_FILES
     21425**DCL     21416--DCLINIT
DISK_OPEN_DUAL.V.FSN# IN PROCEDURE FLM_DELETE_DUAL_FILES
     21456**DCL     21456--REDEF   21456--REDEF
DISK_OPEN_DUAL.V.OPER.TEST# IN PROCEDURE FLM_DELETE_DUAL_FILES
     21427**DCL     21622<<ASSIGN  21628<<ASSIGN
DISK_OPEN_DUAL.V.OPER.THISF# IN PROCEDURE FLM_DELETE_DUAL_FILES
     21428**DCL     21623<<ASSIGN  21629<<ASSIGN
DISK_OPEN_DUAL.V.RES# IN PROCEDURE FLM_DELETE_DUAL_FILES
     21440**DCL     21586<<ASSIGN
DISK_OPEN_DUAL.WSN_ IN PROCEDURE FLM_DELETE_DUAL_FILES
     21422**DCL     21422--REDEF
DISK_OPEN_NEXT.ACSVEH_
     14816**DCL     14817--REDEF
DISK_OPEN_NEXT.ALTKEYS_
     14822**DCL     14823--REDEF   14823--REDEF
DISK_OPEN_NEXT.HDR_
     14821**DCL     14822--REDEF
DISK_OPEN_NEXT.TAB_
     14820**DCL     14821--REDEF
DISK_OPEN_NEXT.UHL_
     14814**DCL     14815--REDEF   14815--REDEF
DISK_OPEN_NEXT.V.FSN#
PL6.E3A0      #001=FLM$MOVE File=FLM$MOVE.:E05TSI                                TUE 07/29/97 16:03 Page:514
     14854**DCL     14854--REDEF   14854--REDEF
DISK_OPEN_NEXT.V.OPER.TEST#
     14825**DCL     19209<<ASSIGN
DISK_OPEN_NEXT.WSN_
     14820**DCL     14820--REDEF
DISK_OPEN_ORDINARY.ACSVEH_
     14925**DCL     14926--REDEF
DISK_OPEN_ORDINARY.ALTKEYS_
     14931**DCL     14932--REDEF   14932--REDEF
DISK_OPEN_ORDINARY.HDR_
     14930**DCL     14931--REDEF
DISK_OPEN_ORDINARY.TAB_
     14929**DCL     14930--REDEF
DISK_OPEN_ORDINARY.UHL_
     14923**DCL     14924--REDEF   14924--REDEF
DISK_OPEN_ORDINARY.V.FSN#
     14963**DCL     14963--REDEF   14963--REDEF
DISK_OPEN_ORDINARY.WSN_
     14929**DCL     14929--REDEF
DISK_OPEN_PRIME IN PROCEDURE FLM_DELETE_DUAL_FILES
     21535**DCL     21598<>CALL    21608<>CALL    21637<>CALL
DISK_OPEN_PRIME.ACSVEH_ IN PROCEDURE FLM_DELETE_DUAL_FILES
     21537**DCL     21538--REDEF
DISK_OPEN_PRIME.ALTKEYS_ IN PROCEDURE FLM_DELETE_DUAL_FILES
     21543**DCL     21544--REDEF   21544--REDEF
DISK_OPEN_PRIME.HDR_ IN PROCEDURE FLM_DELETE_DUAL_FILES
     21542**DCL     21543--REDEF
DISK_OPEN_PRIME.SN_ IN PROCEDURE FLM_DELETE_DUAL_FILES
     21535**DCL     21585<<ASSIGN
DISK_OPEN_PRIME.TAB_ IN PROCEDURE FLM_DELETE_DUAL_FILES
     21541**DCL     21542--REDEF
DISK_OPEN_PRIME.UHL_ IN PROCEDURE FLM_DELETE_DUAL_FILES
     21535**DCL     21536--REDEF   21536--REDEF
DISK_OPEN_PRIME.V IN PROCEDURE FLM_DELETE_DUAL_FILES
     21544**DCL     21535--DCLINIT
DISK_OPEN_PRIME.V.FSN# IN PROCEDURE FLM_DELETE_DUAL_FILES
PL6.E3A0      #001=FLM$MOVE File=FLM$MOVE.:E05TSI                                TUE 07/29/97 16:03 Page:515
     21575**DCL     21575--REDEF   21575--REDEF
DISK_OPEN_PRIME.V.OPER.NXTF# IN PROCEDURE FLM_DELETE_DUAL_FILES
     21547**DCL     21605<<ASSIGN  21610<<ASSIGN  21619<<ASSIGN
DISK_OPEN_PRIME.V.OPER.THISF# IN PROCEDURE FLM_DELETE_DUAL_FILES
     21547**DCL     21606<<ASSIGN  21611<<ASSIGN  21620<<ASSIGN
DISK_OPEN_PRIME.V.RES# IN PROCEDURE FLM_DELETE_DUAL_FILES
     21559**DCL     21584<<ASSIGN
DISK_OPEN_PRIME.V.SRCHCOND.DELF# IN PROCEDURE FLM_DELETE_DUAL_FILES
     21550**DCL     21607<<ASSIGN  21612<<ASSIGN  21621<<ASSIGN
DISK_OPEN_PRIME.WSN_ IN PROCEDURE FLM_DELETE_DUAL_FILES
     21541**DCL     21541--REDEF
DISK_OPTION.ACUP
     14189**DCL     20676>>IF      20799>>IF
DISK_OPTION.CLEANUP
     14188**DCL     19664>>IF      20793>>IF
DISK_OPTION.DELETE
     14190**DCL     19664>>IF      20030>>IF      20765>>IF      20793>>IF      21011>>IF      22420>>IF
     22442>>IF
DISK_OPTION.DIR
     14188**DCL     19547>>ASSIGN  19548<<ASSIGN  19591<<ASSIGN  20397>>IF
DISK_OPTION.IDSS
     14189**DCL     20799>>IF
DISK_OPTION.INACTIVATE
     14189**DCL     20817>>IF
DISK_OPTION.NOUPDATE
     14189**DCL     20768>>IF      21008>>IF
DISK_OPTION.OPEN_MODE
     14191**DCL     21718>>IF
DISK_OPTION.PAD
     14189**DCL     19585>>ASSIGN
DISK_OPTION.SCRUB
     14189**DCL     20591>>IF
DISK_OPTION.SCRUB.STOW
     14190**DCL     21936>>IF
DISK_OPTION.XFER
     14191**DCL     20030>>IF      20764>>IF      20902>>IF      21011>>IF      22420>>IF      22442>>IF
PL6.E3A0      #001=FLM$MOVE File=FLM$MOVE.:E05TSI                                TUE 07/29/97 16:03 Page:516
DISK_READ.STATION_
     13738**DCL     13739--REDEF
DISK_READ.V.DVBYTE.REREAD#
     13750**DCL     13750--REDEF
DISK_READ.V.INDX#
     13748**DCL     13748--REDEF
DISK_REOPEN
     18224**DCL     19715<>CALL
DISK_REOPEN.ACSVEH_
     18226**DCL     18227--REDEF
DISK_REOPEN.ALTKEYS_
     18232**DCL     18233--REDEF   18233--REDEF
DISK_REOPEN.FPARAM_
     18229**DCL     19714<<ASSIGN
DISK_REOPEN.HDR_
     18231**DCL     18232--REDEF
DISK_REOPEN.TAB_
     18230**DCL     18231--REDEF
DISK_REOPEN.UHL_
     18224**DCL     18225--REDEF   18225--REDEF
DISK_REOPEN.V
     18233**DCL     18224--DCLINIT
DISK_REOPEN.V.DCB#
     18233**DCL     19713<<ASSIGN
DISK_REOPEN.V.FSN#
     18264**DCL     18264--REDEF   18264--REDEF
DISK_REOPEN.WSN_
     18230**DCL     18230--REDEF
DISK_SN
     14720**DCL     18224--DCLINIT
DISK_SRCHCOND
     14181**DCL     22593>>ASSIGN  22594<<ASSIGN  22639<<ASSIGN
DISK_SRCHCOND.ANYF#
     14182**DCL     22420>>IF
DISK_SRCHCOND.DELF#
     14181**DCL     19690>>IF      20676>>IF      22595<<ASSIGN
PL6.E3A0      #001=FLM$MOVE File=FLM$MOVE.:E05TSI                                TUE 07/29/97 16:03 Page:517
DISK_SRCHCOND_SAVE IN PROCEDURE FLM_FILES_FROM_TAPE_DELETE
     22579**DCL     22593<<ASSIGN  22639>>ASSIGN
DISK_WRITE
     13774**DCL     21787<>CALL    21840<>CALL    22014<>CALL
DISK_WRITE.BUF_
     13774**DCL     21785<<ASSIGN  21808<<ASSIGN  21838<<ASSIGN  21886<<ASSIGN  21908<<ASSIGN
DISK_WRITE.BUF_.BOUND
     13774**DCL     21786<<ASSIGN  21839<<ASSIGN  22013<<ASSIGN
DISK_WRITE.KEY_
     13774**DCL     21761<<ASSIGN  21801<<ASSIGN  21834<<ASSIGN  21860<<ASSIGN
DISK_WRITE.STATION_
     13776**DCL     13776--REDEF
DISK_WRITE.V.DCB#
     13777**DCL     19256<<ASSIGN
DISK_WRITE.V.DVBYTE.VFC#
     13783**DCL     13783--REDEF
DISK_WRITE.V.EVENT#
     13782**DCL     19255<<ASSIGN
DISK_WRITE.V.WAIT#
     13777**DCL     19254<<ASSIGN
DISP IN PROCEDURE FLM_DISP
     22390**DCL     22386--PROC    22396>>ASSIGN
DONTDELACCT IN PROCEDURE FLM_CLEANUP_ACCOUNT
     22424**LABEL   22421--GOTO
DPLIST
     14173**DCL     19331--ASSIGN  19399--ASSIGN  19441--ASSIGN  21585--ASSIGN  22763--ASSIGN
DPLIST.NUM#
     14173**DCL     20180>>DOINDEX
DPLIST.SN#
     14173**DCL     19351<>CALL    20181>>ASSIGN  20183<>CALL
DPLIST$
     14161**DCL     14173--IMP-PTR 19331>>ASSIGN  19351>>CALL    19399>>ASSIGN  19441>>ASSIGN  20180>>DOINDEX
     20181>>ASSIGN  20183>>CALL    21585>>ASSIGN  22763>>ASSIGN
DPRESLIST.NAME
     14175**DCL     19332>>ASSIGN  19400>>ASSIGN  19442>>ASSIGN  20182>>ASSIGN  21584>>ASSIGN
DPRESLIST$
PL6.E3A0      #001=FLM$MOVE File=FLM$MOVE.:E05TSI                                TUE 07/29/97 16:03 Page:518
     14175**DCL     14175--IMP-PTR 19332>>ASSIGN  19400>>ASSIGN  19442>>ASSIGN  20182>>ASSIGN  21584>>ASSIGN
DPX IN PROCEDURE FLM_UPDATE_RUN_INFO
     20134**DCL     20180<<DOINDEX 20181>>ASSIGN  20182>>ASSIGN  20183>>CALL
DP_RUN_NBR IN PROCEDURE FLM_UPDATE_RUN_INFO
     20135**DCL     20197<<ASSIGN  20200<<ASSIGN  20203<<ASSIGN  20205>>ASSIGN  20237>>ASSIGN
DUAL_DO IN PROCEDURE FLM_FILE_TO_DISK_HANDLING
     20681**LABEL   20686--EXIT    20693--EXIT    20698--EXIT    20710--EXIT    20713--EXIT
DUAL_FILE
     16314**DCL     19381--ASSIGN  19420--ASSIGN
DUAL_FILE.L#
     16314**DCL     16314--IMP-SIZ 19381>>ASSIGN  19420>>ASSIGN  19765>>IF      21600>>IF
DUAL_FILE.NAME#
     16314**DCL     19765>>IF      21600>>IF
EFTFILE_DCB$
     15411**DCL     19980>>ASSIGN  19981>>ASSIGN  19982>>ASSIGN  20910>>ASSIGN  20912>>ASSIGN  20913>>ASSIGN
     20914>>ASSIGN  20915>>ASSIGN  20916>>ASSIGN  20917>>IF      20917>>IF      20922<>CALL    20931<>CALL
EFTWORD
     14296**DCL     14296--REDEF   20520<<ASSIGN  20772<<ASSIGN  21992<<ASSIGN
EFTWORD.CROSS
     14296**DCL     20773<<ASSIGN  20842<<ASSIGN
EFTWORD.FSN
     14296**DCL     20527>>IF      20777<<ASSIGN  21995<<ASSIGN  22113<<ASSIGN
EFTWORDEXPIRE
     14296**DCL     20523>>IF      20776<<ASSIGN  20829>>ASSIGN  20843>>ASSIGN  21994<<ASSIGN  22112<<ASSIGN
     22114>>ASSIGN
EFT_CVOL_FILE.L#
     15438**DCL     15438--IMP-SIZ
EFT_RESTRICT_FILE.L#
     15465**DCL     15465--IMP-SIZ
ERR
     17677**DCL     19480<<ASSIGN  19503<>CALL    19554<>CALL    19595<>CALL    19612>>ASSIGN  19648<>CALL
     19668<>CALL    19671<>CALL    19678<>CALL    19698>>IF      19717<<ASSIGN  19722<>CALL    19723<>CALL
     19750<>CALL    19787<>CALL    19805<<ASSIGN  19826>>IF      19826>>IF      19826>>IF      19832<>CALL
     19836>>IF      19845<>CALL    19846<>CALL    19858>>IF      19859<<ASSIGN  19860>>IF      19860>>IF
     19870<>CALL    19872>>IF      19872>>IF      19881<>CALL    19892<>CALL    19894<>CALL    19912>>ASSIGN
     19923<>CALL    19947<>CALL    19963<<ASSIGN  19965<>CALL    20018>>IF      20043<>CALL    20099<>CALL
PL6.E3A0      #001=FLM$MOVE File=FLM$MOVE.:E05TSI                                TUE 07/29/97 16:03 Page:519
     20260<>CALL    20286<<ASSIGN  20290<>CALL    20360<<ASSIGN  20452<<ASSIGN  20466<<ASSIGN  20564<>CALL
     20566<>CALL    20568<>CALL    20572<<ASSIGN  20577<<ASSIGN  20578<>CALL    20857<<ASSIGN  20877<<ASSIGN
     20906<<ASSIGN  20907>>DOWHILE 20922<>CALL    20925<<ASSIGN  20931<>CALL    20934<<ASSIGN  20936>>IF
     20943<<ASSIGN  20948<<ASSIGN  21755<<ASSIGN  21762>>DOWHILE 21763<>CALL    21766<<ASSIGN  21772>>IF
     21783>>IF      21789<<ASSIGN  21800<<ASSIGN  21835>>DOWHILE 21836<>CALL    21842<<ASSIGN  21861>>DOWHILE
     21862<>CALL    21890>>DOWHILE 21916>>IF      21976<<ASSIGN  22000<<ASSIGN  22016<<ASSIGN  22034>>DOWHILE
     22043<<ASSIGN  22047<<ASSIGN  22221<<ASSIGN  22264>>DOWHILE 22360<<ASSIGN  22425<>CALL    22449<<ASSIGN
     22521<>CALL    22522<<ASSIGN  22555<>CALL    22556<<ASSIGN  22601<>CALL
ERR.CODE
     17681**DCL     19505>>DOSELCT 19556>>IF      19556>>IF      19602>>IF      19624>>IF      19624>>IF
     19674>>DOSELCT 19705>>IF      19724>>IF      19724>>IF      19724>>IF      19724>>IF      19724>>IF
     19724>>IF      19724>>IF      19724>>IF      19749<<ASSIGN  19805>>IF      19817>>IF      19836>>IF
     19838>>IF      19838>>IF      19844>>IF      19849>>IF      19849>>IF      19860>>IF      19872>>IF
     19876>>IF      19888>>IF      19896>>IF      19896>>IF      19910>>IF      19949>>IF      19964<<ASSIGN
     20016>>IF      20018>>IF      20470<<ASSIGN  20807>>IF      20874<<ASSIGN  20920<<ASSIGN  20929<<ASSIGN
     21057>>IF      21057>>IF      21765>>IF      21767>>IF      21772>>IF      21931>>IF      21931>>IF
     21936>>IF      21936>>IF      21971>>IF      22001>>IF      22424<<ASSIGN  22520<<ASSIGN  22554<<ASSIGN
     22632>>IF
ERR IN PROCEDURE FLM_DELETE_DUAL_FILES
     21333**DCL     21640<>CALL
ERR.CODE IN PROCEDURE FLM_DELETE_DUAL_FILES
     21337**DCL     21636<<ASSIGN
ERRCLSALT
     19352**LABEL   19340--CALLALT 19351--CALLALT 19352--CALLALT 19375--CALLALT 19376--CALLALT 19388--CALLALT
     19389--CALLALT 19391--GOTO    19393--CALLALT 19394--CALLALT 19404--CALLALT 19405--CALLALT 19416--CALLALT
     19421--CALLALT 19422--CALLALT 19423--CALLALT 19425--CALLALT 19436--CALLALT 19437--CALLALT 19438--CALLALT
     19443--CALLALT 19444--CALLALT 19445--CALLALT
ERROR_EXIT IN PROCEDURE FLM_FILE_FROM_DISK_CLEANUP
     21021**LABEL   20922--CALLALT 20931--CALLALT
E_BAD_TAPE_FILE
     11952**DCL     19657<>CALL    19796<>CALL
E_CANT_RETRIEVE
     12582**DCL     20580<>CALL
E_CANT_SAVE_FILE
     12267**DCL     19752<>CALL
E_DEL_FILES_REMAIN
PL6.E3A0      #001=FLM$MOVE File=FLM$MOVE.:E05TSI                                TUE 07/29/97 16:03 Page:520
     10601**DCL     21045<>CALL
E_NOTHING_FOUND
     10421**DCL     20004<>CALL    20022<>CALL
E_NOT_SCRATCH_PACK
     12132**DCL     19313<>CALL    19323<>CALL
E_NO_PREVIOUS_SAVE
     10556**DCL     19459<>CALL
E_WRONG_DUAL
     11997**DCL     19413<>CALL
E_WRONG_PRIME
     12042**DCL     19428<>CALL
F$DCB
     19035**DCL     19772<<ASSIGN  19772>>ASSIGN  22515<<ASSIGN  22515>>ASSIGN
F$DCB.ACCT#
     19051**DCL     19573>>ASSIGN  19577>>ASSIGN  19609>>IF      19762>>IF      19784>>ASSIGN  19980>>ASSIGN
     20337>>ASSIGN  20395>>ASSIGN  20493>>IF      20647>>ASSIGN  20659>>ASSIGN  20914<<ASSIGN  21137>>IF
     22161>>ASSIGN  22279>>IF      22290>>IF      22524>>IF      22605>>ASSIGN
F$DCB.ACTPOS
     19067**DCL     19067--REDEF
F$DCB.ARS#
     19041**DCL     19041--REDEF
F$DCB.ATTR
     19060**DCL     19061--REDEF
F$DCB.BORROW
     19075**DCL     19075--REDEF   19075--REDEF   19075--REDEF
F$DCB.CRECNO
     19079**DCL     19534>>ASSIGN
F$DCB.DCB#
     19069**DCL     19891>>ASSIGN
F$DCB.DCBNAME.L
     19089**DCL     19089--IMP-SIZ 19222<<ASSIGN  19772>>ASSIGN  19772>>ASSIGN  22515>>ASSIGN  22515>>ASSIGN
F$DCB.DENSITY#
     19062**DCL     19583>>ASSIGN
F$DCB.DESC
     19048**DCL     20718>>ASSIGN  20780>>ASSIGN  20916<<ASSIGN  21136>>ASSIGN  21728>>ASSIGN  21957>>ASSIGN
     22131>>ASSIGN  22726>>ASSIGN
PL6.E3A0      #001=FLM$MOVE File=FLM$MOVE.:E05TSI                                TUE 07/29/97 16:03 Page:521
F$DCB.DESC.ACTIVE#
     19050**DCL     20817>>IF
F$DCB.DESC.ARCHIVE#
     19049**DCL     19526>>IF      20515>>IF      21141>>IF      21274>>IF      22295>>IF      22312>>IF
     22499>>IF
F$DCB.DESC.DELF#
     19048**DCL     19525>>IF      20817>>IF      21140>>IF      21271>>IF      22295>>IF      22312>>IF
     22468>>IF      22497>>IF      22614>>IF
F$DCB.DESC.FETCH#
     19050**DCL     20515>>IF
F$DCB.DESC.ODSTOW#
     19049**DCL     20521>>IF      21984>>IF
F$DCB.DESC.QS#
     19049**DCL     20515>>IF      22499>>IF
F$DCB.EOMCHAR#
     19045**DCL     19045--REDEF
F$DCB.EXPIRE#
     19058**DCL     20371>>ASSIGN  21084>>ASSIGN  21156>>ASSIGN  22314>>IF
F$DCB.FCD#
     19054**DCL     19358>>IF      19364>>IF      19368>>IF      19899>>IF      19903>>IF      20046>>IF
     20102>>IF      20160>>IF      20729>>IF      21266>>IF      22074>>IF      22234>>IF      22472>>IF
F$DCB.FLDID
     19070**DCL     19070--REDEF
F$DCB.FORM$
     19064**DCL     19064--REDEF
F$DCB.FSECT
     19080**DCL     19080--REDEF
F$DCB.FSN#
     19057**DCL     19057--REDEF   19057--REDEF   19058--REDEF   19989>>IF
F$DCB.FUN#
     19056**DCL     20845>>IF      20845>>IF
F$DCB.HEADER$
     19063**DCL     19063--REDEF
F$DCB.IXTNSIZE#
     19061**DCL     19061--REDEF
F$DCB.LASTSTA$
PL6.E3A0      #001=FLM$MOVE File=FLM$MOVE.:E05TSI                                TUE 07/29/97 16:03 Page:522
     19050**DCL     19050--REDEF
F$DCB.LVL
     19076**DCL     19076--REDEF
F$DCB.NAME#
     19051**DCL     19578>>ASSIGN  19778>>ASSIGN  21137>>IF      21597>>ASSIGN  21613>>IF      22604>>ASSIGN
F$DCB.NAME#.C
     19051**DCL     19051--REDEF   19609>>IF      19765>>IF      19765>>IF      19982>>ASSIGN  20649>>ASSIGN
     20661>>ASSIGN  20910<<ASSIGN  20917>>IF      22162>>ASSIGN  22290>>IF      22524>>IF
F$DCB.NAME#.L
     19051**DCL     19981>>ASSIGN  20648>>ASSIGN  20660>>ASSIGN  20912<<ASSIGN  20913<<ASSIGN  20917>>IF
     22163>>IF      22165>>ASSIGN  22290>>IF      22524>>IF
F$DCB.NOEOF
     19073**DCL     19073--REDEF
F$DCB.NRECS#
     19062**DCL     19062--REDEF
F$DCB.NRECX
     19081**DCL     19081--REDEF
F$DCB.OHDR
     19073**DCL     19073--REDEF
F$DCB.ORG#
     19056**DCL     19056--REDEF   19838>>IF      19838>>IF      19838>>IF      19838>>IF      20799>>IF
     21775>>IF      21775>>IF      21775>>IF      21775>>IF      21832>>IF      21832>>IF      21832>>IF
     21852>>IF
F$DCB.PRECNO
     19079**DCL     19079--REDEF
F$DCB.PSN#
     19051**DCL     19780>>ASSIGN  20069>>ASSIGN  20335>>ASSIGN  20915<<ASSIGN  22160>>ASSIGN  22290>>IF
     22524>>IF      22606>>ASSIGN
F$DCB.RCSZ
     19085**DCL     19085--REDEF
F$DCB.RES#
     19052**DCL     19052--REDEF   20774>>IF      20823>>IF      22166>>ASSIGN
F$DCB.SETX
     19064**DCL     19064--REDEF
F$DCB.TAB$
     19064**DCL     19064--REDEF
PL6.E3A0      #001=FLM$MOVE File=FLM$MOVE.:E05TSI                                TUE 07/29/97 16:03 Page:523
F$DCB.TDA
     19078**DCL     19079--REDEF
F$DCB.VOL#
     19062**DCL     19580>>ASSIGN
F$DCB.WSN#
     19052**DCL     19052--REDEF
FILE_DESC IN PROCEDURE FLM_REQUEUE_FILES_FOR_STOW
     22669**DCL     22732<<ASSIGN
FILE_DESC.ACTIVE# IN PROCEDURE FLM_REQUEUE_FILES_FOR_STOW
     22680**DCL     22733>>IF
FILE_DISP_REC
     17532**DCL     18586--DCLINIT 18587--DCLINIT
FILE_DISP_REC.DISP
     17536**DCL     22373<<ASSIGN  22396<<ASSIGN
FILE_DISP_REC.NBR
     17534**DCL     22371<<ASSIGN  22398<<CALLBLT 22399<<CALLBLT 22399>>CALLBLT
FILE_DISP_REC.WHAT
     17535**DCL     22372<<ASSIGN  22397<<ASSIGN
FILE_TYPE
     14191**DCL     22596>>ASSIGN  22597<<ASSIGN  22640<<ASSIGN
FILE_TYPE.DF
     14192**DCL     22598<<ASSIGN
FILE_TYPE_SAVE IN PROCEDURE FLM_FILES_FROM_TAPE_DELETE
     22580**DCL     22596<<ASSIGN  22640>>ASSIGN
FIRST_ACCT
     14211**DCL     19569>>ASSIGN
FIRST_FILE.L#
     14252**DCL     19570>>ASSIGN  19574>>ASSIGN
FIRST_FILE.NAME#
     14252**DCL     19571>>ASSIGN  19575>>ASSIGN
FIT$
     17672**DCL     19107--IMP-PTR 21947<<ASSIGN  21948>>ASSIGN  21952>>ASSIGN  22710<<ASSIGN  22711>>ASSIGN
     22714>>ASSIGN
FIT_AREA
     15748**DCL     22692<>CALL    22693>>ASSIGN  22709>>ASSIGN
FIT_AREA.W2
PL6.E3A0      #001=FLM$MOVE File=FLM$MOVE.:E05TSI                                TUE 07/29/97 16:03 Page:524
     15749**DCL     15750--REDEF
FIT_ONLY_CODE
     14613**DCL     19829<>CALL
FIT_ONLY_RSTRD
     17735**DCL     19826>>IF      20491<<ASSIGN  20645>>IF      21219<<ASSIGN  21246<<ASSIGN
FIT_ONLY_SAVED
     17734**DCL     19484<<ASSIGN  19648<>CALL    19787<>CALL    19826>>IF      20260<>CALL    20799>>IF
     20922<>CALL    20931<>CALL
FIT_UPDATE
     17710**DCL     19483<<ASSIGN  19785<>CALL    19858>>IF
FIT_UPDATE IN PROCEDURE FLM_FILE_TO_DISK_HANDLING
     20482**DCL     20480--PROC    20490<<ASSIGN  20724<<ASSIGN
FLC$CRIT_CHECK
     17460**DCL-ENT 19739--CALL
FLC$TAPE_CLOSE
     17465**DCL-ENT 19923--CALL    20043--CALL    20099--CALL    22629--CALL
FLC$TAPE_CLOSE_NEXT
     17464**DCL-ENT 19947--CALL    22591--CALL    22602--CALL
FLC$TAPE_IO_INIT
     17461**DCL-ENT 19221--CALL
FLC$TAPE_OPEN_NEXT
     17462**DCL-ENT 19554--CALL    19595--CALL    22601--CALL
FLC$TAPE_READ_NEXT
     17463**DCL-ENT 21836--CALL    21862--CALL
FLI$ALLOC_BUF
     17467**DCL-ENT 19196--CALL    19204--CALL    19218--CALL    19220--CALL    20254--CALL    20987--CALL
     21856--CALL    22222--CALL    22226--CALL    22692--CALL
FLI$BUILD_$$EFT
     17485**DCL-ENT 19234--CALL    19351--CALL    19388--CALL    20183--CALL
FLI$DISK_READ
     17468**DCL-ENT 21763--CALL
FLI$DISK_READ_FILE_INIT
     17469**DCL-ENT 21760--CALL
FLI$DISK_READ_INIT
     17470**DCL-ENT 19211--CALL
FLI$NUMFREEGRANS
PL6.E3A0      #001=FLM$MOVE File=FLM$MOVE.:E05TSI                                TUE 07/29/97 16:03 Page:525
     17486**DCL-ENT 20564--CALL
FLI$RETURN_BUF
     17471**DCL-ENT 21793--CALL    21825--CALL
FLI$RPT_ERR
     17472**DCL-ENT 19214--CALL    19239--CALL    19313--CALL    19323--CALL    19327--CALL    19356--CALL
     19413--CALL    19428--CALL    19459--CALL    19657--CALL    19678--CALL    19723--CALL    19752--CALL
     19796--CALL    19845--CALL    19846--CALL    19881--CALL    19892--CALL    19894--CALL    20004--CALL
     20017--CALL    20022--CALL    20039--CALL    20171--CALL    20284--CALL    20294--CALL    20301--CALL
     20312--CALL    20422--CALL    20568--CALL    20580--CALL    20652--CALL    20664--CALL    20942--CALL
     21029--CALL    21045--CALL    21305--CALL    21315--CALL    21626--CALL    21642--CALL    21650--CALL
     22078--CALL    22106--CALL    22120--CALL    22126--CALL    22136--CALL    22179--CALL    22239--CALL
     22252--CALL    22305--CALL    22309--CALL    22318--CALL    22329--CALL    22335--CALL    22344--CALL
     22349--CALL    22356--CALL    22376--CALL    22402--CALL    22446--CALL    22452--CALL    22480--CALL
     22562--CALL    22619--CALL    22740--CALL
FLI$TSN_USED
     17473**DCL-ENT 19457--CALL    20053--CALL    20982--CALL
FLM$MOVE
         8**PROC    20065--CALL    20995--CALL
FLM_ACCOUNT_TO_DISK_HANDLING
     20324**PROC    19644--CALL
FLM_ADD_TO_DEL_LIST
     22151**PROC    19666--CALL    20620--CALL    20795--CALL    20820--CALL
FLM_CLEAN IN PROCEDURE FLM_CLEANUP
     22490**PROC    22471--CALL
FLM_CLEANUP
     22186**PROC    20036--CALL    21009--CALL    21020--CALL    21022--CALL
FLM_CLEANUP_ACCOUNT IN PROCEDURE FLM_CLEANUP
     22410**PROC    22284--CALL
FLM_CLEANUP_FILE IN PROCEDURE FLM_CLEANUP
     22459**PROC    22302--CALL    22315--CALL    22326--CALL
FLM_COPY_FILE_TO_DISK
     21657**PROC    20631--CALL
FLM_DELETE_DUAL_FILES
     21331**PROC    19693--CALL
FLM_DELETE_TO_DISK_FILE
     21257**PROC    20587--CALL    21630--CALL
PL6.E3A0      #001=FLM$MOVE File=FLM$MOVE.:E05TSI                                TUE 07/29/97 16:03 Page:526
FLM_DISP IN PROCEDURE FLM_CLEANUP
     22386**PROC    22378--CALL    22379--CALL    22380--CALL
FLM_FILES_FROM_TAPE_DELETE
     22572**PROC    19919--CALL
FLM_FILE_FROM_DISK_CLEANUP
     20887**PROC    20006--CALL
FLM_FILE_FROM_DISK_WRAPUP
     20760**PROC    19821--CALL
FLM_FILE_TO_DISK_HANDLING
     20480**PROC    19785--CALL
FLM_FILE_TO_DISK_WRAPUP
     20838**PROC    19809--CALL
FLM_GET_DEST_ACCT_UTS
     21053**PROC    20351--CALL
FLM_GET_DEST_FILE_UTS
     21123**PROC    20502--CALL    20513--CALL
FLM_GET_NEXT_QUAL_GRAN IN PROCEDURE FLM_COPY_FILE_TO_DISK
     22023**PROC    21879--CALL    21894--CALL
FLM_GET_PRIME_VSN
     22754**PROC    19340--CALL    19425--CALL
FLM_GET_SOURCE_UTS
     21075**PROC    20340--CALL    20501--CALL    20512--CALL
FLM_RECREATE_QF_FILE IN PROCEDURE FLM_COPY_FILE_TO_DISK
     22064**PROC    21977--CALL    22002--CALL
FLM_REQUEUE_FILES_FOR_STOW
     22653**PROC    20121--CALL    20968--CALL
FLM_UPDATE_RUN_INFO
     20131**PROC    20110--CALL    20957--CALL
FLM_WR_GRANS IN PROCEDURE FLM_COPY_FILE_TO_DISK
     22006**PROC    21816--CALL    21824--CALL    21903--CALL    21917--CALL
FLN$DISK_CLOSE_ALL
     17474**DCL-ENT 20094--CALL    20960--CALL    20973--CALL    21038--CALL
FLN$DISK_CLOSE_NEXT
     17475**DCL-ENT 19681--CALL    19734--CALL    19945--CALL
FLN$DISK_IO_INIT
     17476**DCL-ENT 19210--CALL
PL6.E3A0      #001=FLM$MOVE File=FLM$MOVE.:E05TSI                                TUE 07/29/97 16:03 Page:527
FLN$DISK_OPEN_NEXT
     17477**DCL-ENT 19503--CALL
FLP$WR_FILE_INFO
     17478**DCL-ENT 19160--CALL    19668--CALL    19671--CALL    19722--CALL    19750--CALL    19829--CALL
     19832--CALL    19870--CALL    19965--CALL    20290--CALL    20566--CALL    20578--CALL    21640--CALL
     22258--CALL    22425--CALL    22521--CALL    22555--CALL
FLS$FILE_PACKER
     17479**DCL-ENT 19648--CALL    19787--CALL    20260--CALL    20922--CALL    20931--CALL
FLS$FILE_PACKER_FIN
     17481**DCL-ENT 20111--CALL    20958--CALL    21035--CALL
FLS$FILE_PACKER_INIT
     17480**DCL-ENT 19202--CALL
FLS$SCRUB
     17482**DCL-ENT 20592--CALL
FM$FIT.CODES.NDW
     19107**DCL     21952<<ASSIGN  22714<<ASSIGN
FM$GRAN
     19092**DCL     19531--ASSIGN  20592--CALL    20597--ASSIGN  20610--ASSIGN  20622--ASSIGN  20690--ASSIGN
     20695--ASSIGN  20707--ASSIGN  20715--ASSIGN  20716--ASSIGN  20848--ASSIGN  20849--ASSIGN  21095--ASSIGN
     21163--ASSIGN  21743--ASSIGN  21947--ASSIGN  21954--ASSIGN  21955--ASSIGN  22321--ASSIGN  22710--ASSIGN
     22715--ASSIGN  22716--ASSIGN
FPARAM_
     17673**DCL     19503<>CALL    19554<>CALL    19595<>CALL    19648<>CALL    19714>>ASSIGN  19770>>ASSIGN
     19787<>CALL    20437>>ASSIGN  20593>>ASSIGN  20850>>ASSIGN  20922<>CALL    20931<>CALL    21233<<ASSIGN
     22601<>CALL
FPARAM_.BOUND
     17674**DCL     20849<<ASSIGN  20849>>ASSIGN
FPARAM_.PTR$
     17676**DCL     19510>>ASSIGN  19518>>ASSIGN  19531>>ASSIGN  19668<>CALL    19671<>CALL    19739<>CALL
     19773>>ASSIGN  19965<>CALL    20592>>CALL    20602>>ASSIGN  20688>>IF      20690>>ASSIGN  20695>>ASSIGN
     20848<<ASSIGN  20848>>ASSIGN  21089>>ASSIGN  21093>>IF      21095>>ASSIGN  21099>>ASSIGN  21743>>ASSIGN
FPT_EXIT.V.STEPCC#
     13601**DCL     13601--REDEF   19362>>IF      19363<<ASSIGN  19658>>IF      19659<<ASSIGN  19729>>IF
     19730<<ASSIGN  19797>>IF      19798<<ASSIGN  19847>>IF      19848<<ASSIGN  19851<<ASSIGN  19882<<ASSIGN
     19898<<ASSIGN  19921>>IF      19922<<ASSIGN  19931<<ASSIGN  19936>>IF      19937<<ASSIGN  20002>>IF
     20003<<ASSIGN  20020>>IF      20021<<ASSIGN  20057>>IF      20058<<ASSIGN  20080>>IF      20081<<ASSIGN
PL6.E3A0      #001=FLM$MOVE File=FLM$MOVE.:E05TSI                                TUE 07/29/97 16:03 Page:528
     20090>>IF      20091<<ASSIGN  20569>>IF      20570<<ASSIGN  20581>>IF      20582<<ASSIGN  20810>>IF
     20811<<ASSIGN  21768>>IF      21769<<ASSIGN  21790>>IF      21791<<ASSIGN  21843>>IF      21844<<ASSIGN
     22017>>IF      22018<<ASSIGN  22048>>IF      22049<<ASSIGN
FPT_REM
     19004**DCL     20070<>CALL
FPT_REM.V
     19004**DCL     19004--DCLINIT
FPT_REM.V.PSN#
     19005**DCL     20069<<ASSIGN
FREE_GRANS IN PROCEDURE FLM_FILE_TO_DISK_HANDLING
     20484**DCL     20564<>CALL    20575>>IF
FROM_DISK_ACCT
     14707**DCL     15231--DCLINIT
FROM_DISK_ACCT.ACCT#
     14707**DCL     22705<<ASSIGN
FROM_DISK_NAME
     14681**DCL     15227--DCLINIT 22706<<ASSIGN
FROM_DISK_SN
     14733**DCL     15226--DCLINIT
FROM_DISK_SN.SN#
     14733**DCL     22704<<ASSIGN
GET_AD_OR_FD
     17937**DCL     20346<>CALL    20412<>CALL    20450<>CALL    21721<>CALL
GET_AD_OR_FD.ACCT_
     17941**DCL     19273<<ASSIGN
GET_AD_OR_FD.ACSVEH_
     17939**DCL     17940--REDEF
GET_AD_OR_FD.ALTKEYS_
     17945**DCL     17946--REDEF   17946--REDEF
GET_AD_OR_FD.FPARAM_
     17942**DCL     20345<<ASSIGN  20411<<ASSIGN  20449<<ASSIGN  21720<<ASSIGN
GET_AD_OR_FD.HDR_
     17944**DCL     17945--REDEF
GET_AD_OR_FD.SN_
     17937**DCL     19266<<ASSIGN
GET_AD_OR_FD.TAB_
PL6.E3A0      #001=FLM$MOVE File=FLM$MOVE.:E05TSI                                TUE 07/29/97 16:03 Page:529
     17943**DCL     17944--REDEF
GET_AD_OR_FD.UHL_
     17937**DCL     17938--REDEF   17938--REDEF
GET_AD_OR_FD.V
     17946**DCL     17937--DCLINIT
GET_AD_OR_FD.V.DELETE#
     17948**DCL     20448<<ASSIGN  20454<<ASSIGN
GET_AD_OR_FD.V.EXPIRE#
     17966**DCL     20446<<ASSIGN  20447<<ASSIGN
GET_AD_OR_FD.V.FSN#
     17977**DCL     17977--REDEF   17977--REDEF
GET_AD_OR_FD.WSN_
     17943**DCL     17943--REDEF
GET_NOW_UTS
     14152**DCL     19342<>CALL    19434<>CALL    20220<>CALL    22170<>CALL
GET_PSN_FROM_MAD
     18780**DCL     22431<>CALL
GET_PSN_FROM_MAD.V
     18781**DCL     18780--DCLINIT
GOING IN PROCEDURE FLM_FILE_TO_DISK_HANDLING
     20554**LABEL   20573--EXIT    20584--EXIT
GOING_TO_DEST
     17709**DCL     19482<<ASSIGN  19800<<ASSIGN  19802<<ASSIGN  19806>>IF      20349<<ASSIGN  20353<<ASSIGN
     20354<<ASSIGN  20361<<ASSIGN  20367<<ASSIGN  20368<<ASSIGN  20373<<ASSIGN  20374<<ASSIGN  20377>>IF
     20381<<ASSIGN  20414<<ASSIGN  20432<<ASSIGN  20434>>IF      20489<<ASSIGN  20499<<ASSIGN  20504<<ASSIGN
     20507<<ASSIGN  20524<<ASSIGN  20528<<ASSIGN  20538<<ASSIGN  20542<<ASSIGN  20553>>IF      20571<<ASSIGN
     20583<<ASSIGN  20633>>IF      20749<<ASSIGN  20753<<ASSIGN  21754<<ASSIGN  21974<<ASSIGN  21999<<ASSIGN
GRANULE_NBR
     17648**DCL     18970--DCLINIT 18971--DCLINIT
GRAN_KEY
     15375**DCL     21804>>IF      21809>>ASSIGN  21867>>DOWHILE 21887>>ASSIGN  21899>>IF      21904>>DOWHILE
     21909>>ASSIGN  22035--ASSIGN
GRAN_MOD_TIME IN PROCEDURE FLM_GET_NEXT_QUAL_GRAN
     22031**DCL     22038>>ASSIGN  22054>>IF
IDS_FAST_INCR IN PROCEDURE FLM_COPY_FILE_TO_DISK
     21662**DCL     21855<<ASSIGN  21859<<ASSIGN  21877>>IF      21892>>IF
PL6.E3A0      #001=FLM$MOVE File=FLM$MOVE.:E05TSI                                TUE 07/29/97 16:03 Page:530
IDS_GRANULE_ IN PROCEDURE FLM_COPY_FILE_TO_DISK
     21659**DCL     21856<>CALL    21857>>ASSIGN
IDS_GRANULE_.PTR$ IN PROCEDURE FLM_COPY_FILE_TO_DISK
     21661**DCL     22038>>ASSIGN
IGNORE_FILE
     19729**LABEL   19739--CALLALT 19753--GOTO    19767--GOTO
INACTIVATE IN PROCEDURE FLM_ADD_TO_DEL_LIST
     22156**DCL     22151--PROC    22169>>ASSIGN
JUSTALT IN PROCEDURE FLM_ACCOUNT_TO_DISK_HANDLING
     20475**LABEL   20400--CALLALT 20418--CALLALT
JUSTALT IN PROCEDURE FLM_FILES_FROM_TAPE_DELETE
     22649**LABEL   22591--CALLALT 22602--CALLALT 22629--CALLALT 22631--CALLALT
JUSTALT IN PROCEDURE FLM_FILE_FROM_DISK_WRAPUP
     20829**LABEL   20795--CALLALT 20820--CALLALT
JUSTALT IN PROCEDURE FLM_FILE_TO_DISK_HANDLING
     20733**LABEL   20566--CALLALT 20578--CALLALT 20620--CALLALT 20653--GOTO
JUSTALT IN PROCEDURE FLM_GET_PRIME_VSN
     22775**LABEL   22764--CALLALT 22765--CALLALT 22766--CALLALT
JUSTDONE
     19989**LABEL   19503--CALLALT
JUSTRET IN PROCEDURE FLM_CLEANUP_FILE
     22472**LABEL   22471--CALLALT
JUSTSTOP
     20081**LABEL   19589--CALLALT 19644--CALLALT 19656--GOTO    19666--CALLALT 19668--CALLALT 19671--CALLALT
     19732--GOTO    19785--CALLALT 19795--GOTO    19809--CALLALT 19821--CALLALT 19829--CALLALT 19832--CALLALT
     19870--CALLALT 19932--GOTO    19950--GOTO    19965--CALLALT
KEEP_OPENING
     19318**LABEL   19322--CALLALT
LAST_TAPE_FSN
     14295**DCL     19989>>IF
LAST_TYPE
     15481**DCL     20259<<ASSIGN
LOW_BLK_TAG$
     15376**DCL     22688>>IF      22700>>DOWHILE
M$CLOSE
      6637**DCL-ENT 19359--CALL    19365--CALL    19369--CALL    19376--CALL    19394--CALL    19416--CALL
PL6.E3A0      #001=FLM$MOVE File=FLM$MOVE.:E05TSI                                TUE 07/29/97 16:03 Page:531
     19423--CALL    19438--CALL    19445--CALL    19900--CALL    19904--CALL    20037--CALL    20047--CALL
     20095--CALL    20103--CALL    20241--CALL    20267--CALL    20296--CALL    20721--CALL    20733--CALL
     20853--CALL    20871--CALL    20984--CALL    20998--CALL    21026--CALL    21041--CALL    21189--CALL
     21303--CALL    22076--CALL    22118--CALL    22134--CALL    22303--CALL    22316--CALL    22327--CALL
     22333--CALL    22342--CALL    22474--CALL    22506--CALL    22617--CALL    22737--CALL    22766--CALL
M$DELREC
      6639**DCL-ENT 20662--CALL
M$DEL_LIST
     17502**DCL     19364--IF      22234--IF
M$DISK_IN
     14622**DCL     19475--ASSIGN  22691>>ASSIGN
M$DISK_IN$
     17724**DCL     19475<<ASSIGN  21613>>IF      21640<>CALL
M$DISK_OUT
     17501**DCL     19256>>ASSIGN  19257>>ASSIGN  19258>>ASSIGN  19474--ASSIGN  22217--ASSIGN  22256>>ASSIGN
     22257--ASSIGN
M$DISK_OUT$
     17723**DCL     19035--IMP-PTR 19474<<ASSIGN  19891>>ASSIGN  20371>>ASSIGN  20515>>IF      20515>>IF
     20515>>IF      20521>>IF      20718>>ASSIGN  20729>>IF      20845>>IF      20845>>IF      21136>>ASSIGN
     21137>>IF      21137>>IF      21140>>IF      21141>>IF      21156>>ASSIGN  21266>>IF      21271>>IF
     21274>>IF      21597>>ASSIGN  21775>>IF      21775>>IF      21775>>IF      21775>>IF      21832>>IF
     21832>>IF      21832>>IF      21852>>IF      22074>>IF      22131>>ASSIGN  22468>>IF      22472>>IF
     22614>>IF
M$MADMUCK
      6645**DCL-ENT 22431--CALL    22439--CALL    22444--CALL
M$NODATA_LIST
     15359**DCL     19368--IF      19899--IF      20046--IF      20102--IF
M$OPEN
      6637**DCL-ENT 19212--CALL    19230--CALL    19235--CALL    19311--CALL    19322--CALL    19347--CALL
     19352--CALL    19384--CALL    19389--CALL    19404--CALL    19421--CALL    19436--CALL    19443--CALL
     19715--CALL    20186--CALL    20257--CALL    20274--CALL    20346--CALL    20412--CALL    20439--CALL
     20450--CALL    20867--CALL    21134--CALL    21313--CALL    21595--CALL    21598--CALL    21608--CALL
     21624--CALL    21637--CALL    21721--CALL    21752--CALL    22086--CALL    22090--CALL    22104--CALL
     22124--CALL    22237--CALL    22288--CALL    22422--CALL    22512--CALL    22516--CALL    22610--CALL
     22707--CALL    22764--CALL
M$PFIL
PL6.E3A0      #001=FLM$MOVE File=FLM$MOVE.:E05TSI                                TUE 07/29/97 16:03 Page:532
      6639**DCL-ENT 20904--CALL    22250--CALL
M$READ
      6638**DCL-ENT 19405--CALL    19422--CALL    20195--CALL    20403--CALL    20908--CALL    22036--CALL
     22265--CALL    22765--CALL
M$REM
      6646**DCL-ENT 20070--CALL
M$REW
      6640**DCL-ENT 19614--CALL    22631--CALL
M$STATUS
     15359**DCL     19358--IF      20260--CALL    20260<>CALL    20290--CALL
M$TAPE00$
     15375**DCL     19583>>ASSIGN  19903>>IF      19989>>IF
M$TIME
      6704**DCL-ENT 19342--CALL    19434--CALL    20220--CALL    22170--CALL
M$TSN_USED
     15359**DCL     20159--ASSIGN
M$TSN_USED$ IN PROCEDURE FLM_UPDATE_RUN_INFO
     20133**DCL     20159<<ASSIGN  20160>>IF
M$WRITE
      6638**DCL-ENT 19375--CALL    19393--CALL    19437--CALL    19444--CALL    19589--CALL    20169--CALL
     20224--CALL    20238--CALL    20279--CALL    20400--CALL    20418--CALL    20650--CALL    20940--CALL
     21787--CALL    21840--CALL    22014--CALL    22173--CALL    22374--CALL    22400--CALL
M$XXX
      6649**DCL-ENT 20600--CALL    20613--CALL    20625--CALL
MAD_SN
     17646**DCL     18781--DCLINIT
MAD_SN.SN#
     17646**DCL     22435<<ASSIGN  22437>>IF
MAIN_LOOP
     19498**LABEL   19986--EXIT    19991--EXIT
MODIFIED_FIT_
     17702**DCL     20706<<ASSIGN  20717>>ASSIGN  21946<<ASSIGN  21956>>ASSIGN  22709<<ASSIGN  22717>>ASSIGN
MODIFIED_FIT_.BOUND
     17703**DCL     20716<<ASSIGN  20716>>ASSIGN  21955<<ASSIGN  21955>>ASSIGN  22716<<ASSIGN  22716>>ASSIGN
MODIFIED_FIT_.PTR$
     17705**DCL     20707>>ASSIGN  20715<<ASSIGN  20715>>ASSIGN  21947>>ASSIGN  21954<<ASSIGN  21954>>ASSIGN
PL6.E3A0      #001=FLM$MOVE File=FLM$MOVE.:E05TSI                                TUE 07/29/97 16:03 Page:533
     22710>>ASSIGN  22715<<ASSIGN  22715>>ASSIGN
NBR_ACCTS_DELETED IN PROCEDURE FLM_CLEANUP
     22205**DCL     22220<<ASSIGN  22369>>IF      22378<>CALL    22423<<ASSIGN  22423>>ASSIGN
NBR_BYTES_TO_MOVE
     15388**DCL     15389--IMP-SIZ 15390--IMP-SIZ
NBR_CONSEC_GRANS
     17726**DCL     21802<<ASSIGN  21806>>IF      21811<<ASSIGN  21811>>ASSIGN  21814>>IF      21817<<ASSIGN
     21823>>IF      21888<<ASSIGN  21899>>IF      21901<<ASSIGN  21901>>ASSIGN  21911<<ASSIGN  21912<<ASSIGN
     21916>>IF      22013>>ASSIGN
NBR_DEL_FILES
     17729**DCL     19473<<ASSIGN  21044>>IF      22175<<ASSIGN  22175>>ASSIGN
NBR_FILES IN PROCEDURE FLM_DISP
     22388**DCL     22386--PROC    22394>>IF      22398>>CALLBLT
NBR_FILES_DELETED IN PROCEDURE FLM_CLEANUP
     22204**DCL     22218<<ASSIGN  22369>>IF      22379<>CALL    22519<<ASSIGN  22519>>ASSIGN  22553<<ASSIGN
     22553>>ASSIGN
NBR_FILES_INACTIVATED IN PROCEDURE FLM_CLEANUP
     22203**DCL     22219<<ASSIGN  22369>>IF      22380<>CALL    22477<<ASSIGN  22477>>ASSIGN
NBR_GRANS_TO_READ
     17689**DCL     19534<<ASSIGN  19538<<ASSIGN  21760<>CALL
NBR_SNLISTS
     13588**DCL     20061>>DOWHILE
NODATA_FILE_NAME.L#
     17003**DCL     17003--IMP-SIZ
NODATA_KEY
     17149**DCL     17141--DCLINIT 17142--DCLINIT
NODATA_KEY.ACCT#
     17149**DCL     20647<<ASSIGN  20659<<ASSIGN
NODATA_KEY.NAME#.C
     17149**DCL     20649<<ASSIGN  20661<<ASSIGN
NODATA_KEY.NAME#.L
     17149**DCL     20648<<ASSIGN  20660<<ASSIGN
NODATA_SN.SN#
     17016**DCL     19227<<ASSIGN  19234<>CALL
NOW_UTS
     14140**DCL     19343>>ASSIGN  19435>>ASSIGN  20221>>ASSIGN  22171>>ASSIGN
PL6.E3A0      #001=FLM$MOVE File=FLM$MOVE.:E05TSI                                TUE 07/29/97 16:03 Page:534
NO_LEADING_5_ZEROS
     19028**DCL     22399>>CALLBLT
OLD_SN
     17715**DCL     19470<<ASSIGN  19860>>IF      19879>>IF      19961>>IF      19966<<ASSIGN  22589<<ASSIGN
ONE_GRAN
     19141**DCL     19510<<ASSIGN  19510>>ASSIGN  19518<<ASSIGN  19518>>ASSIGN  19773<<ASSIGN  19773>>ASSIGN
OPEN_BLOCK
     18521**DCL     22288<>CALL    22512<>CALL    22516<>CALL
OPEN_BLOCK.ACSVEH_
     18523**DCL     18524--REDEF
OPEN_BLOCK.ALTKEYS_
     18529**DCL     18530--REDEF   18530--REDEF
OPEN_BLOCK.FPARAM_
     18526**DCL     22227<<ASSIGN  22368<<ASSIGN
OPEN_BLOCK.HDR_
     18528**DCL     18529--REDEF
OPEN_BLOCK.TAB_
     18527**DCL     18528--REDEF
OPEN_BLOCK.UHL_
     18521**DCL     18522--REDEF   18522--REDEF
OPEN_BLOCK.V
     18530**DCL     18521--DCLINIT
OPEN_BLOCK.V.DELETE#
     18532**DCL     22511<<ASSIGN  22513<<ASSIGN  22564<<ASSIGN
OPEN_BLOCK.V.FSN#
     18561**DCL     18561--REDEF   18561--REDEF
OPEN_BLOCK.V.RES#
     18545**DCL     22287<<ASSIGN
OPEN_BLOCK.WSN_
     18527**DCL     18527--REDEF
OPEN_BLOCK_FILE
     15226**DCL     22707<>CALL
OPEN_BLOCK_FILE.ACSVEH_
     15228**DCL     15229--REDEF
OPEN_BLOCK_FILE.ALTKEYS_
     15234**DCL     15235--REDEF   15235--REDEF
PL6.E3A0      #001=FLM$MOVE File=FLM$MOVE.:E05TSI                                TUE 07/29/97 16:03 Page:535
OPEN_BLOCK_FILE.FPARAM_
     15231**DCL     22693<<ASSIGN
OPEN_BLOCK_FILE.HDR_
     15233**DCL     15234--REDEF
OPEN_BLOCK_FILE.TAB_
     15232**DCL     15233--REDEF
OPEN_BLOCK_FILE.UHL_
     15226**DCL     15227--REDEF   15227--REDEF
OPEN_BLOCK_FILE.V
     15235**DCL     15226--DCLINIT
OPEN_BLOCK_FILE.V.FSN#
     15266**DCL     15266--REDEF   15266--REDEF
OPEN_BLOCK_FILE.WSN_
     15232**DCL     15232--REDEF
OPEN_DELETE_LIST
     18105**DCL     19212<>CALL    22237<>CALL
OPEN_DELETE_LIST.ACSVEH_
     18107**DCL     18108--REDEF
OPEN_DELETE_LIST.ALTKEYS_
     18113**DCL     18114--REDEF   18114--REDEF
OPEN_DELETE_LIST.HDR_
     18112**DCL     18113--REDEF
OPEN_DELETE_LIST.TAB_
     18111**DCL     18112--REDEF
OPEN_DELETE_LIST.UHL_
     18105**DCL     18106--REDEF   18106--REDEF
OPEN_DELETE_LIST.V
     18114**DCL     18105--DCLINIT
OPEN_DELETE_LIST.V.FSN#
     18145**DCL     18145--REDEF   18145--REDEF
OPEN_DELETE_LIST.V.FUN#
     18124**DCL     22236<<ASSIGN  22240<<ASSIGN  22243<<ASSIGN
OPEN_DELETE_LIST.WSN_
     18111**DCL     18111--REDEF
OPEN_DP
     18858**DCL     22764<>CALL
PL6.E3A0      #001=FLM$MOVE File=FLM$MOVE.:E05TSI                                TUE 07/29/97 16:03 Page:536
OPEN_DP.ACSVEH_
     18860**DCL     18861--REDEF
OPEN_DP.ALTKEYS_
     18866**DCL     18867--REDEF   18867--REDEF
OPEN_DP.HDR_
     18865**DCL     18866--REDEF
OPEN_DP.SN_
     18858**DCL     22763<<ASSIGN
OPEN_DP.TAB_
     18864**DCL     18865--REDEF
OPEN_DP.UHL_
     18858**DCL     18859--REDEF   18859--REDEF
OPEN_DP.V
     18867**DCL     18858--DCLINIT
OPEN_DP.V.FSN#
     18898**DCL     18898--REDEF   18898--REDEF
OPEN_DP.WSN_
     18864**DCL     18864--REDEF
OPEN_NODATA_LIST
     16934**DCL     19230<>CALL    19235<>CALL
OPEN_NODATA_LIST.ACSVEH_
     16936**DCL     16937--REDEF
OPEN_NODATA_LIST.ALTKEYS_
     16942**DCL     16943--REDEF   16943--REDEF
OPEN_NODATA_LIST.HDR_
     16941**DCL     16942--REDEF
OPEN_NODATA_LIST.TAB_
     16940**DCL     16941--REDEF
OPEN_NODATA_LIST.UHL_
     16934**DCL     16935--REDEF   16935--REDEF
OPEN_NODATA_LIST.V.FSN#
     16974**DCL     16974--REDEF   16974--REDEF
OPEN_NODATA_LIST.V.FUN#
     16953**DCL     19229<<ASSIGN
OPEN_NODATA_LIST.V.RES#
     16958**DCL     19228<<ASSIGN
PL6.E3A0      #001=FLM$MOVE File=FLM$MOVE.:E05TSI                                TUE 07/29/97 16:03 Page:537
OPEN_NODATA_LIST.WSN_
     16940**DCL     16940--REDEF
OPEN_PRIME_DUAL
     16381**DCL     19311<>CALL    19322<>CALL    19347<>CALL    19352<>CALL    19384<>CALL    19389<>CALL
     19404<>CALL    19421<>CALL    19436<>CALL    19443<>CALL
OPEN_PRIME_DUAL.ACCT_
     16385**DCL     19310<<ASSIGN  19318<<ASSIGN  19334<<ASSIGN  19380<<ASSIGN  19402<<ASSIGN
OPEN_PRIME_DUAL.ACSVEH_
     16383**DCL     16384--REDEF
OPEN_PRIME_DUAL.ALTKEYS_
     16389**DCL     16390--REDEF   16390--REDEF
OPEN_PRIME_DUAL.HDR_
     16388**DCL     16389--REDEF
OPEN_PRIME_DUAL.NAME_
     16382**DCL     19308<<ASSIGN  19333<<ASSIGN  19381<<ASSIGN  19401<<ASSIGN  19420<<ASSIGN  19440<<ASSIGN
OPEN_PRIME_DUAL.SN_
     16381**DCL     19304<<ASSIGN  19331<<ASSIGN  19378<<ASSIGN  19399<<ASSIGN  19418<<ASSIGN  19441<<ASSIGN
OPEN_PRIME_DUAL.TAB_
     16387**DCL     16388--REDEF
OPEN_PRIME_DUAL.UHL_
     16381**DCL     16382--REDEF   16382--REDEF
OPEN_PRIME_DUAL.V.EXIST#
     16394**DCL     19432<<ASSIGN
OPEN_PRIME_DUAL.V.EXPIRE#
     16410**DCL     19346<<ASSIGN  19383<<ASSIGN  19433<<ASSIGN
OPEN_PRIME_DUAL.V.FSN#
     16421**DCL     16421--REDEF   16421--REDEF
OPEN_PRIME_DUAL.V.FUN#
     16400**DCL     19309<<ASSIGN  19345<<ASSIGN  19382<<ASSIGN  19403<<ASSIGN  19431<<ASSIGN
OPEN_PRIME_DUAL.V.INITZ.SCRUB#
     16391**DCL     19317<<ASSIGN  19336<<ASSIGN  19398<<ASSIGN
OPEN_PRIME_DUAL.V.OPER
     16392**DCL     19335<<ASSIGN  19397<<ASSIGN
OPEN_PRIME_DUAL.V.OPER.NXTA#
     16393**DCL     19306<<ASSIGN
OPEN_PRIME_DUAL.V.OPER.NXTF#
PL6.E3A0      #001=FLM$MOVE File=FLM$MOVE.:E05TSI                                TUE 07/29/97 16:03 Page:538
     16393**DCL     19307<<ASSIGN
OPEN_PRIME_DUAL.V.RES#
     16405**DCL     19305<<ASSIGN  19332<<ASSIGN  19379<<ASSIGN  19400<<ASSIGN  19419<<ASSIGN  19442<<ASSIGN
OPEN_PRIME_DUAL.WSN_
     16387**DCL     16387--REDEF
OPEN_REBUILD.ACSVEH_
     16618**DCL     16619--REDEF
OPEN_REBUILD.ALTKEYS_
     16624**DCL     16625--REDEF   16625--REDEF
OPEN_REBUILD.HDR_
     16623**DCL     16624--REDEF
OPEN_REBUILD.TAB_
     16622**DCL     16623--REDEF
OPEN_REBUILD.UHL_
     16616**DCL     16617--REDEF   16617--REDEF
OPEN_REBUILD.V.FSN#
     16656**DCL     16656--REDEF   16656--REDEF
OPEN_REBUILD.WSN_
     16622**DCL     16622--REDEF
OPEN_REBUILD_TAPE_FILE
     19554**LABEL   19558--GOTO
OPEN_STATUS
     15818**DCL     20186<>CALL    20257<>CALL    20274<>CALL
OPEN_STATUS.ACSVEH_
     15820**DCL     15821--REDEF
OPEN_STATUS.ALTKEYS_
     15826**DCL     15827--REDEF   15827--REDEF
OPEN_STATUS.FPARAM_
     15823**DCL     20255<<ASSIGN  20273<<ASSIGN  20308<<ASSIGN
OPEN_STATUS.HDR_
     15825**DCL     15826--REDEF
OPEN_STATUS.TAB_
     15824**DCL     15825--REDEF
OPEN_STATUS.UHL_
     15818**DCL     15819--REDEF   15819--REDEF
OPEN_STATUS.V.ACS#
PL6.E3A0      #001=FLM$MOVE File=FLM$MOVE.:E05TSI                                TUE 07/29/97 16:03 Page:539
     15838**DCL     20253<<ASSIGN  20272<<ASSIGN  20307<<ASSIGN
OPEN_STATUS.V.EXIST#
     15831**DCL     20177<<ASSIGN  20251<<ASSIGN  20270<<ASSIGN  20304<<ASSIGN  20305<<ASSIGN  20316<<ASSIGN
OPEN_STATUS.V.EXPIRE#
     15847**DCL     20179<<ASSIGN
OPEN_STATUS.V.FSN#
     15858**DCL     15858--REDEF   15858--REDEF
OPEN_STATUS.V.FUN#
     15837**DCL     20178<<ASSIGN  20252<<ASSIGN  20271<<ASSIGN  20306<<ASSIGN
OPEN_STATUS.V.RES#
     15842**DCL     20182<<ASSIGN
OPEN_STATUS.WSN_
     15824**DCL     15824--REDEF
OPEN_TAPE_FILE
     19595**LABEL   19617--GOTO    19626--GOTO
OPEN_TSN_USED.ACSVEH_
     15556**DCL     15557--REDEF
OPEN_TSN_USED.ALTKEYS_
     15562**DCL     15563--REDEF   15563--REDEF
OPEN_TSN_USED.HDR_
     15561**DCL     15562--REDEF
OPEN_TSN_USED.TAB_
     15560**DCL     15561--REDEF
OPEN_TSN_USED.UHL_
     15554**DCL     15555--REDEF   15555--REDEF
OPEN_TSN_USED.V.FSN#
     15594**DCL     15594--REDEF   15594--REDEF
OPEN_TSN_USED.WSN_
     15560**DCL     15560--REDEF
PFIL_DELETE_LIST
     18318**DCL     20904<>CALL    22250<>CALL
PFIL_DELETE_LIST.V
     18318**DCL     18318--DCLINIT
PRE_RET_CLOSE.SN_
     14539**DCL     14539--REDEF
PRE_RET_CLOSE.UTL_
PL6.E3A0      #001=FLM$MOVE File=FLM$MOVE.:E05TSI                                TUE 07/29/97 16:03 Page:540
     14540**DCL     14540--REDEF
PRE_RET_CLOSE.V.EXPIRE#
     14554**DCL     14554--REDEF
PRE_RET_CLOSE.V.TYPE#
     14552**DCL     14552--REDEF
PRE_RET_CLOSE.V.XTNSIZE#
     14549**DCL     14549--REDEF   14551--REDEF
PRE_RET_OPEN.ACSVEH_
     14474**DCL     14475--REDEF
PRE_RET_OPEN.ALTKEYS_
     14480**DCL     14481--REDEF   14481--REDEF
PRE_RET_OPEN.HDR_
     14479**DCL     14480--REDEF
PRE_RET_OPEN.TAB_
     14478**DCL     14479--REDEF
PRE_RET_OPEN.UHL_
     14472**DCL     14473--REDEF   14473--REDEF
PRE_RET_OPEN.V.FSN#
     14512**DCL     14512--REDEF   14512--REDEF
PRE_RET_OPEN.WSN_
     14478**DCL     14478--REDEF
PRE_RET_READ.STATION_
     14329**DCL     14330--REDEF
PRE_RET_READ.V.DVBYTE.REREAD#
     14341**DCL     14341--REDEF
PRE_RET_READ.V.INDX#
     14339**DCL     14339--REDEF
PRE_RET_WRITE.STATION_
     14367**DCL     14367--REDEF
PRE_RET_WRITE.V.DVBYTE.VFC#
     14374**DCL     14374--REDEF
PRIME_DUAL_BUF.DUAL
     16261**DCL     19341<<ASSIGN  19408>>ASSIGN  19409>>ASSIGN  19411>>IF
PRIME_DUAL_BUF.PRIME
     16261**DCL     19340<>CALL    19426>>IF
PRIME_DUAL_BUF.UTS
PL6.E3A0      #001=FLM$MOVE File=FLM$MOVE.:E05TSI                                TUE 07/29/97 16:03 Page:541
     16261**DCL     19343<<ASSIGN  19435<<ASSIGN
PRIME_FILE
     16287**DCL     19333--ASSIGN  19401--ASSIGN  19440--ASSIGN
PRIME_FILE.L#
     16287**DCL     16287--IMP-SIZ 19333>>ASSIGN  19401>>ASSIGN  19440>>ASSIGN  19765>>IF
PRIME_FILE.NAME#
     16287**DCL     19765>>IF
PRIME_VSN IN PROCEDURE FLM_GET_PRIME_VSN
     22759**DCL     22754--PROC    22767<<CALLBLT 22771<<CALLBLT
PROCESS_DISK_FILE
     19505**LABEL   19718--GOTO
PR_DEV_LT
     17732**DCL     19166<<ASSIGN  19171<<ASSIGN  19178<<ASSIGN  19183<<ASSIGN  19188<<ASSIGN  19193<<ASSIGN
     19668<>CALL    19671<>CALL    19722<>CALL    19750<>CALL    19829<>CALL    19832<>CALL    19870<>CALL
     20290<>CALL    20566<>CALL    20578<>CALL    21640<>CALL    22425<>CALL    22521<>CALL    22555<>CALL
READ_AD_OR_FD.ACSVEH_
     15118**DCL     15119--REDEF
READ_AD_OR_FD.ALTKEYS_
     15124**DCL     15125--REDEF   15125--REDEF
READ_AD_OR_FD.HDR_
     15123**DCL     15124--REDEF
READ_AD_OR_FD.TAB_
     15122**DCL     15123--REDEF
READ_AD_OR_FD.UHL_
     15116**DCL     15117--REDEF   15117--REDEF
READ_AD_OR_FD.V.FSN#
     15156**DCL     15156--REDEF   15156--REDEF
READ_AD_OR_FD.WSN_
     15122**DCL     15122--REDEF
READ_DELETE_LIST
     18342**DCL     20908<>CALL    22265<>CALL
READ_DELETE_LIST.STATION_
     18345**DCL     18346--REDEF
READ_DELETE_LIST.V
     18346**DCL     18342--DCLINIT
READ_DELETE_LIST.V.DVBYTE.REREAD#
PL6.E3A0      #001=FLM$MOVE File=FLM$MOVE.:E05TSI                                TUE 07/29/97 16:03 Page:542
     18357**DCL     18357--REDEF
READ_DELETE_LIST.V.INDX#
     18355**DCL     18355--REDEF
READ_IDS_FILE IN PROCEDURE FLM_COPY_FILE_TO_DISK
     21685**DCL     22036<>CALL
READ_IDS_FILE.BUF_ IN PROCEDURE FLM_COPY_FILE_TO_DISK
     21687**DCL     21857<<ASSIGN
READ_IDS_FILE.KEY_ IN PROCEDURE FLM_COPY_FILE_TO_DISK
     21685**DCL     22035<<ASSIGN
READ_IDS_FILE.STATION_ IN PROCEDURE FLM_COPY_FILE_TO_DISK
     21688**DCL     21689--REDEF
READ_IDS_FILE.V IN PROCEDURE FLM_COPY_FILE_TO_DISK
     21689**DCL     21685--DCLINIT
READ_IDS_FILE.V.DVBYTE.REREAD# IN PROCEDURE FLM_COPY_FILE_TO_DISK
     21700**DCL     21700--REDEF
READ_IDS_FILE.V.INDX# IN PROCEDURE FLM_COPY_FILE_TO_DISK
     21698**DCL     21698--REDEF
READ_LOOP IN PROCEDURE FLM_COPY_FILE_TO_DISK
     21861**LABEL   21881--EXIT    21885--GOTO
READ_NEXT_FILE IN PROCEDURE FLM_DELETE_DUAL_FILES
     21595**LABEL   21614--GOTO
READ_NODATA_LIST.STATION_
     17080**DCL     17081--REDEF
READ_NODATA_LIST.V.DVBYTE.REREAD#
     17092**DCL     17092--REDEF
READ_NODATA_LIST.V.INDX#
     17090**DCL     17090--REDEF
READ_PRIME_DUAL
     16442**DCL     19405<>CALL    19422<>CALL
READ_PRIME_DUAL.STATION_
     16445**DCL     16446--REDEF
READ_PRIME_DUAL.V.DVBYTE.REREAD#
     16457**DCL     16457--REDEF
READ_PRIME_DUAL.V.INDX#
     16455**DCL     16455--REDEF
READ_REBUILD
PL6.E3A0      #001=FLM$MOVE File=FLM$MOVE.:E05TSI                                TUE 07/29/97 16:03 Page:543
     16748**DCL     20403<>CALL
READ_REBUILD.STATION_
     16751**DCL     16752--REDEF
READ_REBUILD.V.DVBYTE.REREAD#
     16763**DCL     16763--REDEF
READ_REBUILD.V.INDX#
     16761**DCL     16761--REDEF
READ_STATUS
     15963**DCL     20195<>CALL
READ_STATUS.STATION_
     15966**DCL     15967--REDEF
READ_STATUS.V.DVBYTE.REREAD#
     15978**DCL     15978--REDEF
READ_STATUS.V.INDX#
     15976**DCL     15976--REDEF
READ_STATUS.V.KEYS#
     15968**DCL     20194<<ASSIGN
READ_TSN_USED.STATION_
     15676**DCL     15677--REDEF
READ_TSN_USED.V.DVBYTE.REREAD#
     15688**DCL     15688--REDEF
READ_TSN_USED.V.INDX#
     15686**DCL     15686--REDEF
READ_VID
     18970**DCL     22765<>CALL
READ_VID.STATION_
     18973**DCL     18974--REDEF
READ_VID.V
     18974**DCL     18970--DCLINIT
READ_VID.V.DVBYTE.REREAD#
     18985**DCL     18985--REDEF
READ_VID.V.INDX#
     18983**DCL     18983--REDEF
REBUILD_BUF
     16866**DCL     19587--ASSIGN
REBUILD_BUF.DEN
PL6.E3A0      #001=FLM$MOVE File=FLM$MOVE.:E05TSI                                TUE 07/29/97 16:03 Page:544
     16867**DCL     19583<<ASSIGN
REBUILD_BUF.DIR
     16867**DCL     19584<<ASSIGN
REBUILD_BUF.FSN
     16867**DCL     19581<<ASSIGN  22645>>ASSIGN
REBUILD_BUF.IOERRORC
     16867**DCL     19586<<ASSIGN
REBUILD_BUF.PAD
     16867**DCL     19585<<ASSIGN
REBUILD_BUF.START.ACCT
     16866**DCL     19569<<ASSIGN
REBUILD_BUF.START.ACCT.ACCT#
     16866**DCL     19573<<ASSIGN  19577<<ASSIGN  22642>>ASSIGN
REBUILD_BUF.START.FILE
     16866**DCL     19578<<ASSIGN
REBUILD_BUF.START.FILE.L#
     16866**DCL     19570<<ASSIGN  19574<<ASSIGN  22643>>ASSIGN
REBUILD_BUF.START.FILE.NAME#
     16866**DCL     19571<<ASSIGN  19575<<ASSIGN  22644>>ASSIGN
REBUILD_BUF.TSN
     16866**DCL     19582<<ASSIGN
REBUILD_BUF.VOLUME
     16867**DCL     19580<<ASSIGN
REBUILD_DIR_KEY
     16837**DCL     20396--ASSIGN
REBUILD_DIR_KEY.L#
     16837**DCL     16837--IMP-SIZ 20395>>ASSIGN  20396>>ASSIGN
REBUILD_DIR_KEY.NAME#
     16837**DCL     20395<<ASSIGN
REBUILD_KEY
     16864**DCL     19588--ASSIGN
REBUILD_KEY.L#
     16864**DCL     16864--IMP-SIZ 19588>>ASSIGN
REBUILD_NAME.L#
     16685**DCL     16685--IMP-SIZ
REPERRALT IN PROCEDURE FLM_CLEAN
PL6.E3A0      #001=FLM$MOVE File=FLM$MOVE.:E05TSI                                TUE 07/29/97 16:03 Page:545
     22554**LABEL   22512--CALLALT
REPERRRET IN PROCEDURE FLM_CLEANUP_ACCOUNT
     22449**LABEL   22422--CALLALT 22434--GOTO
REPLACE_AD_OR_FD
     17817**DCL     20439<>CALL
REPLACE_AD_OR_FD.ACCT_
     17821**DCL     19272<<ASSIGN
REPLACE_AD_OR_FD.ACSVEH_
     17819**DCL     17820--REDEF
REPLACE_AD_OR_FD.ALTKEYS_
     17825**DCL     17826--REDEF   17826--REDEF
REPLACE_AD_OR_FD.HDR_
     17824**DCL     17825--REDEF
REPLACE_AD_OR_FD.IFPARAM_
     17822**DCL     20437<<ASSIGN  20438<<ASSIGN
REPLACE_AD_OR_FD.SN_
     17817**DCL     19265<<ASSIGN
REPLACE_AD_OR_FD.TAB_
     17823**DCL     17824--REDEF
REPLACE_AD_OR_FD.UHL_
     17817**DCL     17818--REDEF   17818--REDEF
REPLACE_AD_OR_FD.V
     17826**DCL     17817--DCLINIT
REPLACE_AD_OR_FD.V.FSN#
     17857**DCL     17857--REDEF   17857--REDEF
REPLACE_AD_OR_FD.WSN_
     17823**DCL     17823--REDEF
RESTORE_FROM_TAPE
     17494**DCL     19174>>IF
RET_CMDS_NAME.L#
     14583**DCL     14583--IMP-SIZ
REWIND_TAPE
     19019**DCL     19614<>CALL    22631<>CALL
REWIND_TAPE.V
     19019**DCL     19019--DCLINIT
REWIND_TAPE.V.PSN#
PL6.E3A0      #001=FLM$MOVE File=FLM$MOVE.:E05TSI                                TUE 07/29/97 16:03 Page:546
     19021**DCL     19613<<ASSIGN  22630<<ASSIGN
REWRITE_DELETE_LIST
     18385**DCL     20940<>CALL
REWRITE_DELETE_LIST.STATION_
     18387**DCL     18387--REDEF
REWRITE_DELETE_LIST.V
     18388**DCL     18385--DCLINIT
REWRITE_DELETE_LIST.V.DVBYTE.VFC#
     18394**DCL     18394--REDEF
RUN_NBR
     15482**DCL     20168>>ASSIGN
SAVE_AD_FD_FIT_
     17696**DCL     19196<>CALL    21720>>ASSIGN
SAVE_AD_FD_FIT_.PTR$
     17698**DCL     19510>>ASSIGN  19518>>ASSIGN  20683>>ASSIGN  21723>>ASSIGN
SAVE_DCB$
     17692**DCL     19219<<ASSIGN  19222>>ASSIGN  19609>>IF      19609>>IF      19769<<ASSIGN  19772>>ASSIGN
     19772>>ASSIGN  19778>>ASSIGN  19780>>ASSIGN  19784>>ASSIGN  19829<>CALL    19832<>CALL    19870<>CALL
     20493>>IF      20566<>CALL    20578<>CALL    20647>>ASSIGN  20648>>ASSIGN  20649>>ASSIGN  20659>>ASSIGN
     20660>>ASSIGN  20661>>ASSIGN
SAVE_DISK_OPTION_DIR
     17708**DCL     19547<<ASSIGN  19584>>ASSIGN  19591>>ASSIGN
SAVE_ERR
     17683**DCL     19481<<ASSIGN  19612<<ASSIGN  19631<<ASSIGN  19912<<ASSIGN  20006<>CALL    20036<>CALL
SAVE_ERR.CODE
     17687**DCL     19602>>IF
SAVE_FIT_
     17693**DCL     19218<>CALL    19220<>CALL    19770<<ASSIGN  21946>>ASSIGN
SAVE_FIT_.PTR$
     17695**DCL     19219>>ASSIGN  19773>>ASSIGN  19829<>CALL    19832<>CALL    19870<>CALL    20566<>CALL
     20578<>CALL
SAVE_FSN
     17707**DCL     19488<<ASSIGN  19634<<ASSIGN  19648<>CALL    19671<>CALL    19722<>CALL    19750<>CALL
     19787<>CALL    19829<>CALL    19832<>CALL    19870<>CALL    19965<>CALL    20260<>CALL    20278>>ASSIGN
     20290<>CALL    20523>>IF      20527>>IF      20566<>CALL    20578<>CALL    20776>>ASSIGN  20777>>ASSIGN
     20901<<ASSIGN  20922<>CALL    20931<>CALL    20939>>ASSIGN  21994>>ASSIGN  21995>>ASSIGN  22112>>ASSIGN
PL6.E3A0      #001=FLM$MOVE File=FLM$MOVE.:E05TSI                                TUE 07/29/97 16:03 Page:547
     22113>>ASSIGN  22168>>ASSIGN
SAVE_SN
     17706**DCL     19487<<ASSIGN  19633<<ASSIGN  19648<>CALL    19671<>CALL    19722<>CALL    19750<>CALL
     19782<<ASSIGN  19787<>CALL    19829<>CALL    19832<>CALL    19870<>CALL    19961>>IF      19965<>CALL
     19966>>ASSIGN  20260<>CALL    20290<>CALL    20338<<ASSIGN  20517>>IF      20566<>CALL    20578<>CALL
     20786>>ASSIGN  20789>>ASSIGN  20900<<ASSIGN  20922<>CALL    20931<>CALL    20938>>ASSIGN  21640<>CALL
     21996>>ASSIGN  22115>>ASSIGN  22167>>ASSIGN
SAVE_SOURCE_DCB$ IN PROCEDURE FLM_CLEANUP
     22213**DCL     22223<<ASSIGN  22515>>ASSIGN  22515>>ASSIGN  22521<>CALL    22555<>CALL
SAVE_SOURCE_DCB_ IN PROCEDURE FLM_CLEANUP
     22210**DCL     22222<>CALL
SAVE_SOURCE_DCB_.PTR$ IN PROCEDURE FLM_CLEANUP
     22212**DCL     22223>>ASSIGN
SET_NBR
     17718**DCL     19456<<ASSIGN  20052<<ASSIGN  20052>>ASSIGN  20053<>CALL
SKIP_ACCT
     17563**DCL     20378<<ASSIGN
SKIP_ACCT.ACCT#
     17563**DCL     19485<<ASSIGN  20493>>IF
SNLIST_NBR
     15483**DCL     19457<>CALL    20053<>CALL    20061>>DOWHILE 20062<<ASSIGN  20062>>ASSIGN  20069>>ASSIGN
SNVECLIST$
     14115**DCL     14115--IMP-PTR
SOURCE
     17730**DCL     19164<<ASSIGN  19169<<ASSIGN  19175<<ASSIGN  19176<<ASSIGN  19181<<ASSIGN  19186<<ASSIGN
     19191<<ASSIGN  19207>>DOCASE  19501>>DOCASE  19667>>IF      19680>>IF      19698>>IF      19737>>DOCASE
     19781>>IF      19810>>IF      19844>>IF      19888>>IF      19943>>DOCASE  19970>>IF      19997>>DOCASE
     20092>>DOCASE  20619>>IF      20781>>IF      20799>>IF      21083>>IF      21756>>IF
SOURCE_CODE$
     17670**DCL     20602<<ASSIGN  20603<>CALL    20605>>ASSIGN
SOURCE_DCB$
     17671**DCL     19503<>CALL    19525>>IF      19526>>IF      19534>>ASSIGN  19554<>CALL    19573>>ASSIGN
     19577>>ASSIGN  19578>>ASSIGN  19580>>ASSIGN  19595<>CALL    19648<>CALL    19668<>CALL    19671<>CALL
     19722<>CALL    19739<>CALL    19750<>CALL    19762>>IF      19765>>IF      19765>>IF      19769>>ASSIGN
     19772>>ASSIGN  19772>>ASSIGN  19787<>CALL    19838>>IF      19838>>IF      19838>>IF      19838>>IF
     19965<>CALL    20335>>ASSIGN  20337>>ASSIGN  20395>>ASSIGN  20780>>ASSIGN  20799>>IF      20817>>IF
PL6.E3A0      #001=FLM$MOVE File=FLM$MOVE.:E05TSI                                TUE 07/29/97 16:03 Page:548
     20817>>IF      21084>>ASSIGN  21728>>ASSIGN  21957>>ASSIGN  21984>>IF      22160>>ASSIGN  22161>>ASSIGN
     22162>>ASSIGN  22163>>IF      22165>>ASSIGN  22166>>ASSIGN  22257<<ASSIGN  22279>>IF      22290>>IF
     22290>>IF      22290>>IF      22290>>IF      22295>>IF      22295>>IF      22312>>IF      22312>>IF
     22314>>IF      22497>>IF      22499>>IF      22499>>IF      22515>>ASSIGN  22515>>ASSIGN  22524>>IF
     22524>>IF      22524>>IF      22524>>IF      22601<>CALL    22604>>ASSIGN  22605>>ASSIGN  22606>>ASSIGN
SOURCE_FILE_TYPE
     17690**DCL     19507<<ASSIGN  19513<<ASSIGN  19515<<ASSIGN  19521<<ASSIGN  19523<<ASSIGN  19527<<ASSIGN
     19528<<ASSIGN  19530<<ASSIGN  19542<<ASSIGN  19632<<ASSIGN  19637>>DOCASE  19664>>IF      19744>>IF
     19744>>IF      19826>>IF      20366>>IF      20385>>DOCASE  20430>>IF      20436>>IF      20436>>IF
     20442>>IF      20442>>IF      20445>>IF      20461>>IF      20461>>IF      20498>>IF      20503>>IF
     20588>>DOCASE  20681>>DOCASE  20751>>IF      20751>>IF      20793>>IF      20845>>IF      20845>>IF
     20855>>IF      20856<<ASSIGN  20864>>IF      21080>>DOCASE  21200>>IF      21210>>IF      21242>>IF
     21281>>DOCASE  21591<<ASSIGN  21712>>DOCASE  21758>>IF      21852>>IF      21924>>DOCASE
SOURCE_TAPE_SN
     17550**DCL     19276--ASSIGN  22116--ASSIGN
SOURCE_TAPE_SN.SN#
     17550**DCL     21996<<ASSIGN  22115<<ASSIGN
SOURCE_UTS
     17719**DCL     20352>>IF      20372>>IF      20447>>ASSIGN  20506>>IF      20628>>ASSIGN  21084<<ASSIGN
     21085<<ASSIGN  21094<<ASSIGN  21100<<ASSIGN  21109<<ASSIGN  21110<<ASSIGN  21113<<ASSIGN  21205<<ASSIGN
     21207<<ASSIGN  21212>>IF      21236<<ASSIGN
SPEC.START
     14179**DCL     14180--REDEF
SPEC.STOP
     14180**DCL     14181--REDEF   19985>>IF      19989>>IF
SPEC.STOP.ACCT.ACCT#
     14180**DCL     19980<<ASSIGN
SPEC.STOP.FILE.L#
     14181**DCL     19981<<ASSIGN
SPEC.STOP.FILE.NAME#
     14180**DCL     19982<<ASSIGN
SPECCHARS
     14179**DCL     14179--REDEF
STATUS_KEY
     15484**DCL     20190--ASSIGN  20204--ASSIGN  20228>>ASSIGN  20231--ASSIGN  20276<<ASSIGN
STATUS_KEY.L
PL6.E3A0      #001=FLM$MOVE File=FLM$MOVE.:E05TSI                                TUE 07/29/97 16:03 Page:549
     15484**DCL     20190<<ASSIGN  20204<<ASSIGN  20231<<ASSIGN
STATUS_KEY.RUN_NBR
     15485**DCL     20191<<ASSIGN  20205<<ASSIGN  20232<<ASSIGN
STATUS_KEY.TSN_SET_NBR
     15485**DCL     20192<<ASSIGN  20206<<ASSIGN  20233<<ASSIGN
STATUS_KEY.TSN_VOL
     15485**DCL     20193<<ASSIGN  20215<<ASSIGN  20216<<ASSIGN  20234<<ASSIGN
STATUS_KEY_SAVE IN PROCEDURE FLM_UPDATE_RUN_INFO
     20141**DCL     20228<<ASSIGN  20276>>ASSIGN
TAPE_BAD
     15483**DCL     20030>>IF      20055>>IF      20078>>IF
TAPE_BLOCK_.W2
     15404**DCL     15405--REDEF
TAPE_CLOSE
     14032**DCL     19904<>CALL
TAPE_CLOSE.SN_
     14032**DCL     14032--REDEF
TAPE_CLOSE.UTL_
     14033**DCL     14033--REDEF
TAPE_CLOSE.V.EXPIRE#
     14047**DCL     14047--REDEF
TAPE_CLOSE.V.TYPE#
     14045**DCL     14045--REDEF
TAPE_CLOSE.V.XTNSIZE#
     14042**DCL     14042--REDEF   14044--REDEF
TAPE_CODE04$
     17668**DCL     21117<<ASSIGN  21202>>IF      21204>>IF      21206>>IF      21217>>ASSIGN  21218>>ASSIGN
     21234>>IF      21235>>ASSIGN  21244>>ASSIGN  21245>>ASSIGN
TAPE_DCBLIST.DCB$
     13588**DCL     20069>>ASSIGN  20774>>IF      20823>>IF
TAPE_DCBLIST$
     13588**DCL     13588--IMP-PTR 20069>>ASSIGN  20774>>IF      20823>>IF
TAPE_FSN
     15481**DCL     19581>>ASSIGN  19634>>ASSIGN  19668<>CALL    20218>>ASSIGN  20219>>ASSIGN
TAPE_OPEN.ACSVEH_
     13897**DCL     13898--REDEF
PL6.E3A0      #001=FLM$MOVE File=FLM$MOVE.:E05TSI                                TUE 07/29/97 16:03 Page:550
TAPE_OPEN.ALTKEYS_
     13903**DCL     13904--REDEF   13904--REDEF
TAPE_OPEN.HDR_
     13902**DCL     13903--REDEF
TAPE_OPEN.SN_
     13895**DCL     19453>>IF      20064<<ASSIGN  20988<<ASSIGN
TAPE_OPEN.TAB_
     13901**DCL     13902--REDEF
TAPE_OPEN.UHL_
     13895**DCL     13896--REDEF   13896--REDEF
TAPE_OPEN.V.CVOL#
     13909**DCL     22592<<ASSIGN  22638<<ASSIGN
TAPE_OPEN.V.FSN#
     13935**DCL     13935--REDEF   13935--REDEF   22645<<ASSIGN
TAPE_OPEN.V.IOERROK#
     13926**DCL     19556>>IF      19556>>IF      19624>>IF      19624>>IF      19949>>IF
TAPE_OPEN.WSN_
     13901**DCL     13901--REDEF
TAPE_OPTION.CHECK
     14299**DCL     19477>>IF      19640>>IF      19823>>IF      19959>>IF      20030>>IF      20980>>IF
TAPE_OPTION.DUPLICATE_TAPESET
     14300**DCL     20517>>IF
TAPE_OPTION.IOERRORC
     14300**DCL     19586>>ASSIGN
TAPE_OPTION.OPEN_FUNCTION
     14300**DCL     19602>>IF
TAPE_OPTION.PROTTYPE
     14299**DCL     19250<<ASSIGN  19278>>DOCASE  19302>>IF      19508>>IF      19516>>IF      19690>>IF
     19707>>IF      19707>>IF      19707>>IF      19860>>IF      20342>>IF      20430>>IF      20496>>IF
     20537>>IF      20676>>IF      21198>>IF      21286>>IF      21852>>IF
TAPE_READ.STATION_
     13959**DCL     13960--REDEF
TAPE_READ.V.DVBYTE.REREAD#
     13971**DCL     13971--REDEF
TAPE_READ.V.INDX#
     13969**DCL     13969--REDEF
PL6.E3A0      #001=FLM$MOVE File=FLM$MOVE.:E05TSI                                TUE 07/29/97 16:03 Page:551
TAPE_SN
     15481**DCL     19582>>ASSIGN  19613>>ASSIGN  19633>>ASSIGN  19668<>CALL    19860>>IF      19879>>IF
     20217>>ASSIGN  22589>>ASSIGN  22630>>ASSIGN
TAPE_WRITE.STATION_
     13997**DCL     13997--REDEF
TAPE_WRITE.V.DVBYTE.VFC#
     14004**DCL     14004--REDEF
TEMP_S
     17722**DCL     22769<<ASSIGN  22770<<ASSIGN  22771>>CALLBLT
TEMP_U
     17721**DCL     19891<<ASSIGN  19892<>CALL
TERM_ERR IN PROCEDURE FLM_CLEANUP
     22192**DCL     22186--PROC
TERM_ERR.CODE IN PROCEDURE FLM_CLEANUP
     22196**DCL     22279>>IF
TERM_ERR IN PROCEDURE FLM_FILE_FROM_DISK_CLEANUP
     20889**DCL     20887--PROC    20899>>ASSIGN
TERM_ERR_SAVE IN PROCEDURE FLM_FILE_FROM_DISK_CLEANUP
     20891**DCL     20899<<ASSIGN  21009<>CALL    21020<>CALL    21022<>CALL
TO_DISK_ACCT
     17576**DCL     17822--DCLINIT 17942--DCLINIT 19269<<ASSIGN  19270--ASSIGN  19272--ASSIGN  19273--ASSIGN
     20378>>ASSIGN  21421--DCLINIT 21540--DCLINIT
TO_DISK_ACCT.ACCT#
     17576**DCL     19645>>ASSIGN  19784<<ASSIGN  20337<<ASSIGN  21137>>IF      21600>>IF      22605<<ASSIGN
TO_DISK_NAME
     17631**DCL     19275--ASSIGN  19778<<ASSIGN  21137>>IF      21536--DCLINIT 21597<<ASSIGN  21613>>IF
     22604<<ASSIGN
TO_DISK_NAME.NAME#
     17631**DCL     21600>>IF
TO_DISK_SN
     17603**DCL     17817--DCLINIT 17937--DCLINIT 18760--DCLINIT 19263--ASSIGN  19304--ASSIGN  19378--ASSIGN
     19418--ASSIGN  20564--CALL    21416--DCLINIT
TO_DISK_SN.SN#
     17603**DCL     19262<<ASSIGN  19341>>ASSIGN  19388<>CALL    19408<<ASSIGN  19411>>IF      19646>>ASSIGN
     19780<<ASSIGN  19782>>ASSIGN  20335<<ASSIGN  20338>>ASSIGN  22606<<ASSIGN
TSN_SET_NBR
PL6.E3A0      #001=FLM$MOVE File=FLM$MOVE.:E05TSI                                TUE 07/29/97 16:03 Page:552
     15482**DCL     20206>>ASSIGN
TSN_USED_BUF
     15485**DCL     20167<<ASSIGN  20229>>ASSIGN  20277<<ASSIGN
TSN_USED_BUF.BACKUP_FSN
     15486**DCL     20219<<ASSIGN  20278<<ASSIGN
TSN_USED_BUF.FIRST_ACCT
     15486**DCL     20222<<ASSIGN
TSN_USED_BUF.FSN
     15486**DCL     20218<<ASSIGN  20236<<ASSIGN
TSN_USED_BUF.LAST_ACCT
     15486**DCL     20223<<ASSIGN
TSN_USED_BUF.TSN
     15486**DCL     20217<<ASSIGN  20235<<ASSIGN
TSN_USED_BUF.UTS
     15486**DCL     20168<<ASSIGN  20197>>ASSIGN  20221<<ASSIGN  20237<<ASSIGN
TSN_USED_BUF_SAVE IN PROCEDURE FLM_UPDATE_RUN_INFO
     20147**DCL     20229<<ASSIGN  20277>>ASSIGN
TSN_USED_KEY
     15483**DCL     20162--ASSIGN
TSN_USED_KEY.L
     15483**DCL     20162<<ASSIGN
TSN_USED_KEY.RUN_NBR
     15483**DCL     20163<<ASSIGN
TSN_USED_KEY.TSN_SET_NBR
     15484**DCL     20164<<ASSIGN
TSN_USED_KEY.TSN_SNLIST_NBR
     15484**DCL     20166<<ASSIGN
TSN_USED_KEY.TSN_VOL
     15484**DCL     20165<<ASSIGN
TSN_USED_NAME.L#
     15623**DCL     15623--IMP-SIZ
TSN_VOL
     15482**DCL     20214>>IF      20215>>ASSIGN
TVECTOR.W2
     14128**DCL     14129--REDEF
UPDATE_FPARAM_ IN PROCEDURE FLM_UPDATE_RUN_INFO
PL6.E3A0      #001=FLM$MOVE File=FLM$MOVE.:E05TSI                                TUE 07/29/97 16:03 Page:553
     20136**DCL     20254<>CALL    20255>>ASSIGN  20260<>CALL
UPDATE_FPARAM_.PTR$ IN PROCEDURE FLM_UPDATE_RUN_INFO
     20139**DCL     20290<>CALL
USE_TSN_USED
     17717**DCL     19455<<ASSIGN  19463<<ASSIGN  20050>>IF
VIDBUF
     17652**DCL     18972--DCLINIT 18973--DCLINIT
VIDBUF.DTT
     17654**DCL     17654--REDEF
VIDBUF.SNLIST.VSN.N
     17655**DCL     22767>>CALLBLT
VIDBUF.SNLIST.VSN.S
     17655**DCL     22768>>IF      22770>>ASSIGN
VID_ACCT
     17589**DCL     18863--DCLINIT
VID_ACCT.ACCT#
     17589**DCL     19195<<ASSIGN
VLP_SN
     17996**DCL     20778--ASSIGN
VLP_SN.SN#
     17996**DCL     20786<<ASSIGN  20789<<ASSIGN
VSN
     17716**DCL     19425<>CALL    19426>>IF
WHAT IN PROCEDURE FLM_DISP
     22389**DCL     22386--PROC    22397>>ASSIGN
WRITE_DELETE_LIST
     18290**DCL     22173<>CALL
WRITE_DELETE_LIST.STATION_
     18292**DCL     18292--REDEF
WRITE_DELETE_LIST.V
     18293**DCL     18290--DCLINIT
WRITE_DELETE_LIST.V.DVBYTE.VFC#
     18299**DCL     18299--REDEF
WRITE_FILE_DISP_REC
     18585**DCL     22374<>CALL    22400<>CALL
WRITE_FILE_DISP_REC.STATION_
PL6.E3A0      #001=FLM$MOVE File=FLM$MOVE.:E05TSI                                TUE 07/29/97 16:03 Page:554
     18587**DCL     18587--REDEF
WRITE_FILE_DISP_REC.V
     18588**DCL     18585--DCLINIT
WRITE_FILE_DISP_REC.V.DVBYTE.VFC#
     18594**DCL     18594--REDEF
WRITE_LOOP IN PROCEDURE FLM_COPY_FILE_TO_DISK
     21890**LABEL   21896--EXIT
WRITE_NODATA_LIST
     17116**DCL     20650<>CALL
WRITE_NODATA_LIST.STATION_
     17118**DCL     17118--REDEF
WRITE_NODATA_LIST.V.DVBYTE.VFC#
     17125**DCL     17125--REDEF
WRITE_PRIME_DUAL
     16481**DCL     19375<>CALL    19393<>CALL    19437<>CALL    19444<>CALL
WRITE_PRIME_DUAL.STATION_
     16483**DCL     16483--REDEF
WRITE_PRIME_DUAL.V.DVBYTE.VFC#
     16490**DCL     16490--REDEF
WRITE_REBUILD
     16717**DCL     19589<>CALL    20400<>CALL    20418<>CALL
WRITE_REBUILD.BUF_
     16717**DCL     19587<<ASSIGN  20399<<ASSIGN  20417<<ASSIGN
WRITE_REBUILD.KEY_
     16717**DCL     19588<<ASSIGN  20396<<ASSIGN
WRITE_REBUILD.STATION_
     16719**DCL     16719--REDEF
WRITE_REBUILD.V.DVBYTE.VFC#
     16726**DCL     16726--REDEF
WRITE_STATUS
     15932**DCL     20224<>CALL    20238<>CALL    20279<>CALL
WRITE_STATUS.STATION_
     15934**DCL     15934--REDEF
WRITE_STATUS.V.DVBYTE.VFC#
     15941**DCL     15941--REDEF
WRITE_TSN_USED
PL6.E3A0      #001=FLM$MOVE File=FLM$MOVE.:E05TSI                                TUE 07/29/97 16:03 Page:555
     15642**DCL     20169<>CALL
WRITE_TSN_USED.STATION_
     15644**DCL     15644--REDEF
WRITE_TSN_USED.V.DVBYTE.VFC#
     15651**DCL     15651--REDEF
XSF$LOCCODE
     17484**DCL-ENT 21950--CALL
XSF$LOCCODP
     17483**DCL-ENT 19532--CALL    20598--CALL    20603--CALL    20611--CALL    20623--CALL    20684--CALL
     20691--CALL    20696--CALL    20708--CALL    21060--CALL    21106--CALL    21145--CALL    21164--CALL
     21724--CALL    21744--CALL    22299--CALL    22322--CALL    22712--CALL

