PL6.E3A0      #002=FLM$SWITCH_PRIME_DUAL File=FLM$MOVE.:E05TSI                   TUE 07/29/97 16:12 Page:556
     3775        1        /*T***********************************************************/
     3776        2        /*T*                                                         */
     3777        3        /*T* Copyright (c) Bull HN Information Systems Inc., 1997    */
     3778        4        /*T*                                                         */
     3779        5        /*T***********************************************************/
     3780        6        FLM$SWITCH_PRIME_DUAL: PROC ALTRET;
     3781        7        /*F*  NAME: FLM$SWITCH_PRIME_DUAL
     3782        8              PURPOSE: Switches the packsets making the prime packset the dual
     3783        9                       packset and the dual packset the prime packset.
     3784       10        */
     3785       11
     3786       12        /*** INCLUDE FILES ***/
     3787       13
     3788       14        %INCLUDE CP_6;
     3789     5573        %INCLUDE CP_6_SUBS;
     3790     6113        %INCLUDE B_ERRORS_C;
     3791     7240        %INCLUDE FLI_DATA_R;
     3792     8654        %INCLUDE FLS_DATA_R;
     3793    10454
     3794    10455        /*** ENTRIES ***/
     3795    10456
     3796    10457    1   DCL FLI$RPT_ERR ENTRY (5);
     3797    10458
     3798    10459        /*** MACROS ***/
     3799    10460
     3800    10461        %FPT_OPEN ( FPTN = OPEN_PRIME_DUAL_PACK,
     3801    10462                    DCB = M$OPEN_PRIME_DUAL_PACK,
     3802    10463                    ACCT = BACKUP_ACCT,
     3803    10464                    ORG = CONSEC,
     3804    10465                    ASN = FILE,
     3805    10466                    CTG = YES,
     3806    10467                    SCRUB = YES,
     3807    10468                    STCLASS = "STATIC" );
     3808    10577
     3809    10578        %FPT_READ ( FPTN = READ_PRIME_DUAL_FILE,
     3810    10579                    DCB = M$OPEN_PRIME_DUAL_PACK,
     3811    10580                    BUF = PRIME_DUAL_BUF,
PL6.E3A0      #002=FLM$SWITCH_PRIME_DUAL File=FLM$MOVE.:E05TSI                   TUE 07/29/97 16:12 Page:557
     3812    10581                    STCLASS = "STATIC" );
     3813    10620
     3814    10621        %FPT_WRITE ( FPTN = WRITE_PRIME_DUAL_FILE,
     3815    10622                     DCB = M$OPEN_PRIME_DUAL_PACK,
     3816    10623                     BUF = PRIME_DUAL_BUF,
     3817    10624                     REWRITE = YES,
     3818    10625                     STCLASS = "STATIC" );
     3819    10656
     3820    10657        %FPT_CLOSE ( FPTN = CLOSE_PRIME_DUAL_PACK,
     3821    10658                     DCB = M$OPEN_PRIME_DUAL_PACK,
     3822    10659                     DISP = SAVE,
     3823    10660                     CHGATT = YES,
     3824    10661                     STCLASS = "STATIC" );
     3825    10703
     3826    10704
     3827    10705        /*** DCBS ***/
     3828    10706
     3829    10707    1   DCL M$OPEN_PRIME_DUAL_PACK DCB;
     3830    10708
     3831    10709        %B$TCB (  STCLASS="BASED(B$TCB$)" );
     3832    10712        %B$ALT;
     3833    10720        %F$DCB;
     3834    10777
     3835    10778        /*** VARIABLES ***/
     3836    10779
     3837    10780    1   DCL TEMP CHAR(6) UNAL;
     3838    10781
     3839    10782        /***
     3840    10783         *** Rename :DUAL file to :PRIME and switch contents of the first record
     3841    10784         *** making the former dual packset the prime and visa versa.
     3842    10785         ***/
     3843    10786    1      OPEN_PRIME_DUAL_PACK.SN_ = VECTOR ( DISK_DEST_SN );
     3844    10787    1      OPEN_PRIME_DUAL_PACK.NAME_ = VECTOR ( DUAL_FILE );
     3845    10788    1      OPEN_PRIME_DUAL_PACK.V.FUN# = %UPDATE#;
     3846    10789    1      OPEN_PRIME_DUAL_PACK.V.RES# = DISK_DEST_RES.NAME;
     3847    10790    1      CALL M$OPEN ( OPEN_PRIME_DUAL_PACK ) ALTRET ( CHECK_ALT );
     3848    10791    1      CALL M$READ ( READ_PRIME_DUAL_FILE ) ALTRET ( CHECK_ALT );
PL6.E3A0      #002=FLM$SWITCH_PRIME_DUAL File=FLM$MOVE.:E05TSI                   TUE 07/29/97 16:12 Page:558
     3849    10792    1      TEMP = PRIME_DUAL_BUF.PRIME;
     3850    10793    1      PRIME_DUAL_BUF.PRIME = PRIME_DUAL_BUF.DUAL;
     3851    10794    1      PRIME_DUAL_BUF.DUAL = TEMP;
     3852    10795    1      CALL M$WRITE ( WRITE_PRIME_DUAL_FILE ) ALTRET ( CHECK_ALT );
     3853    10796    1      CLOSE_PRIME_DUAL_PACK.NAME_ = VECTOR( PRIME_FILE );
     3854    10797    1      CALL M$CLOSE ( CLOSE_PRIME_DUAL_PACK ) ALTRET( CHECK_ALT );
     3855    10798
     3856    10799        /***
     3857    10800         *** Rename :PRIME file to :DUAL and switch contents of the first record
     3858    10801         *** making the former prime packset the dual and visa versa.
     3859    10802         ***/
     3860    10803    1      OPEN_PRIME_DUAL_PACK.SN_ = VECTOR ( DPLIST );
     3861    10804    1      OPEN_PRIME_DUAL_PACK.V.RES# = DPRESLIST.NAME(0);
     3862    10805    1      OPEN_PRIME_DUAL_PACK.NAME_ = VECTOR ( PRIME_FILE );
     3863    10806    1      OPEN_PRIME_DUAL_PACK.V.FUN# = %UPDATE#;
     3864    10807    1      CALL M$OPEN ( OPEN_PRIME_DUAL_PACK ) ALTRET ( CHECK_ALT );
     3865    10808    1      CALL M$READ ( READ_PRIME_DUAL_FILE ) ALTRET ( CHECK_ALT );
     3866    10809    1      PRIME_DUAL_BUF.PRIME = PRIME_DUAL_BUF.DUAL;
     3867    10810    1      PRIME_DUAL_BUF.DUAL = TEMP;
     3868    10811    1      CALL M$WRITE ( WRITE_PRIME_DUAL_FILE ) ALTRET (CHECK_ALT );
     3869    10812    1      CLOSE_PRIME_DUAL_PACK.NAME_ = VECTOR( DUAL_FILE );
     3870    10813    1      CALL M$CLOSE ( CLOSE_PRIME_DUAL_PACK ) ALTRET ( CHECK_ALT );
     3871    10814    1      RETURN;
     3872    10815
     3873    10816    1   CHECK_ALT:
     3874    10817    1      IF DCBADDR(DCBNUM(M$OPEN_PRIME_DUAL_PACK))->F$DCB.FCD#
     3875    10818    1       THEN CALL M$CLOSE ( CLOSE_PRIME_DUAL_PACK );
     3876    10819    1      ALTRETURN;
     3877    10820    1   END FLM$SWITCH_PRIME_DUAL;
     3878    10821        %EOD;

PL6.E3A0      #002=FLM$SWITCH_PRIME_DUAL File=FLM$MOVE.:E05TSI                   TUE 07/29/97 16:12 Page:559
--  Include file information  --

   FLS_DATA_R.:E05TOU  cannot be made into a system file and is referenced.
   B_MICROPS_C.:E05TOU  is referenced.
   FLB_SUBS_C.:E05TOU  is referenced.
   FLI_DATA_R.:E05TOU  cannot be made into a system file and is referenced.
   B_ERRORS_C.:E05TOU  is referenced.
   CP_6_SUBS.:E05TOU  is referenced.
   CP_6_C.:E05TOU  is referenced.
   CP_6.:E05TOU  cannot be made into a system file and is referenced.
      No diagnostics issued in procedure FLM$SWITCH_PRIME_DUAL.

   Procedure FLM$SWITCH_PRIME_DUAL requires 107 words for executable code.
   Procedure FLM$SWITCH_PRIME_DUAL requires 6 words of local(AUTO) storage.

PL6.E3A0      #002=FLM$SWITCH_PRIME_DUAL File=FLM$MOVE.:E05TSI                   TUE 07/29/97 16:12 Page:560

 Object Unit name= FLM$SWITCH_PRIME_DUAL                      File name= FLM$MOVE.:E05TOU
 UTS= JUL 29 '97 16:12:04.44 TUE                              Compiler= PL-6/E31         Sev=      00
 SharedLib= :SHARED_SYSTEM                                    Alt SharedLib=


    ****  Control sections  ****

 Sect   Type Bound  Init  Size OctSiz  Section name(segment info)
    0   DCB   even  none     0      0  M$UC
    1   DCB   even  none     0      0  M$PRE_RET
    2   Data  even  none   134    206  FLM$SWITCH_PRIME_DUAL
    3   DCB   even  none     0      0  M$TSN_USED
    4   DCB   even  none     0      0  M$STATUS
    5   DCB   even  none     0      0  M$REBUILD
    6   DCB   even  none     0      0  M$ARCHIVE
    7   DCB   even  none     0      0  M$NODATA_LIST
    8   DCB   even  none     0      0  M$OPEN_PRIME_DUAL_PACK
    9   Proc  even  none   107    153  FLM$SWITCH_PRIME_DUAL
   10  RoData even  none     5      5  FLM$SWITCH_PRIME_DUAL

    ****  Entry defs  ****

                              Check   Calling
                             calling  sequence
  Sect OctLoc Primary Altret sequence   type   Parms  Name
     9      0   yes    yes     yes      Std        0  FLM$SWITCH_PRIME_DUAL

  ****  Entry refs  ****

         Check        Calling
        calling       sequence
Altret sequence SRef   type   Args  Name
                       nStd      0 X66_AUTO_0
                       nStd      0 X66_ARET
                       nStd      0 X66_AALT
PL6.E3A0      #002=FLM$SWITCH_PRIME_DUAL File=FLM$MOVE.:E05TSI                   TUE 07/29/97 16:12 Page:561

  ****  Data refs  ****

  Flags:  r = read only, s = secondary
Flgs Name                             Flgs Name                             Flgs Name
     M$UC                                  TAPE_DCBLIST$                         SNVECLIST$
     B$TCB$                                DPLIST$                               DPRESLIST$
     DISK_FILE_SPEC$                       SPECCHARS                             DISK_DEST_SN
     DISK_DEST_RES                         EFTWORD                               M$PRE_RET
     RET_CMDS_NAME                         M$TSN_USED                            M$STATUS
     M$REBUILD                             M$ARCHIVE                             M$NODATA_LIST
     BLK_TAG$                              BLK_TAG0$                             NBR_BYTES_TO_MOVE
     DISK_GRAN$                            BLOCK_GRAN$                      r    EFT_CVOL_FILE
r    EFT_RESTRICT_FILE                     TSN_USED_NAME                         BACKUP_NAME
r    ARCHIVE_NAME                          PRIME_DUAL_BUF                   r    PRIME_FILE
r    DUAL_FILE                             REBUILD_NAME                          REBUILD_DIR_KEY
     REBUILD_KEY                           NODATA_FILE_NAME                      NODATA_KEY
     M$OPEN_PRIME_DUAL_PACK

  ****  Segment refs  ****

  Flags:  r = read only, s = secondary
Flgs Name                             Flgs Name                             Flgs Name
     ISSID                                 NULLSID                               ROSID
PL6.E3A0      #002=FLM$SWITCH_PRIME_DUAL File=FLM$MOVE.:E05TSI                   TUE 07/29/97 16:12 Page:562


     3775        1        /*T***********************************************************/
     3776        2        /*T*                                                         */
     3777        3        /*T* Copyright (c) Bull HN Information Systems Inc., 1997    */
     3778        4        /*T*                                                         */
     3779        5        /*T***********************************************************/
     3780        6        FLM$SWITCH_PRIME_DUAL: PROC ALTRET;

      6  9 000000   000000 700200 xent  FLM$SWITCH_* TSX0  ! X66_AUTO_0
         9 000001   000006 000000                    ZERO    6,0

     3781        7        /*F*  NAME: FLM$SWITCH_PRIME_DUAL
     3782        8              PURPOSE: Switches the packsets making the prime packset the dual
     3783        9                       packset and the dual packset the prime packset.
     3784       10        */
     3785       11
     3786       12        /*** INCLUDE FILES ***/
     3787       13
     3788       14        %INCLUDE CP_6;
     3789     5573        %INCLUDE CP_6_SUBS;
     3790     6113        %INCLUDE B_ERRORS_C;
     3791     7240        %INCLUDE FLI_DATA_R;
     3792     8654        %INCLUDE FLS_DATA_R;
     3793    10454
     3794    10455        /*** ENTRIES ***/
     3795    10456
     3796    10457    1   DCL FLI$RPT_ERR ENTRY (5);
     3797    10458
     3798    10459        /*** MACROS ***/
     3799    10460
     3800    10461        %FPT_OPEN ( FPTN = OPEN_PRIME_DUAL_PACK,
     3801    10462                    DCB = M$OPEN_PRIME_DUAL_PACK,
     3802    10463                    ACCT = BACKUP_ACCT,
     3803    10464                    ORG = CONSEC,
     3804    10465                    ASN = FILE,
     3805    10466                    CTG = YES,
     3806    10467                    SCRUB = YES,
PL6.E3A0      #002=FLM$SWITCH_PRIME_DUAL File=FLM$MOVE.:E05TSI                   TUE 07/29/97 16:12 Page:563
     3807    10468                    STCLASS = "STATIC" );
     3808    10577
     3809    10578        %FPT_READ ( FPTN = READ_PRIME_DUAL_FILE,
     3810    10579                    DCB = M$OPEN_PRIME_DUAL_PACK,
     3811    10580                    BUF = PRIME_DUAL_BUF,
     3812    10581                    STCLASS = "STATIC" );
     3813    10620
     3814    10621        %FPT_WRITE ( FPTN = WRITE_PRIME_DUAL_FILE,
     3815    10622                     DCB = M$OPEN_PRIME_DUAL_PACK,
     3816    10623                     BUF = PRIME_DUAL_BUF,
     3817    10624                     REWRITE = YES,
     3818    10625                     STCLASS = "STATIC" );
     3819    10656
     3820    10657        %FPT_CLOSE ( FPTN = CLOSE_PRIME_DUAL_PACK,
     3821    10658                     DCB = M$OPEN_PRIME_DUAL_PACK,
     3822    10659                     DISP = SAVE,
     3823    10660                     CHGATT = YES,
     3824    10661                     STCLASS = "STATIC" );
     3825    10703
     3826    10704
     3827    10705        /*** DCBS ***/
     3828    10706
     3829    10707    1   DCL M$OPEN_PRIME_DUAL_PACK DCB;
     3830    10708
     3831    10709        %B$TCB (  STCLASS="BASED(B$TCB$)" );
     3832    10712        %B$ALT;
     3833    10720        %F$DCB;
     3834    10777
     3835    10778        /*** VARIABLES ***/
     3836    10779
     3837    10780    1   DCL TEMP CHAR(6) UNAL;
     3838    10781
     3839    10782        /***
     3840    10783         *** Rename :DUAL file to :PRIME and switch contents of the first record
     3841    10784         *** making the former dual packset the prime and visa versa.
     3842    10785         ***/
     3843    10786    1      OPEN_PRIME_DUAL_PACK.SN_ = VECTOR ( DISK_DEST_SN );
PL6.E3A0      #002=FLM$SWITCH_PRIME_DUAL File=FLM$MOVE.:E05TSI                   TUE 07/29/97 16:12 Page:564

  10786  9 000002   000000 237000 10                 LDAQ    0
         9 000003   000026 757000 2                  STAQ    OPEN_PRIME_DUAL_PACK+2

     3844    10787    1      OPEN_PRIME_DUAL_PACK.NAME_ = VECTOR ( DUAL_FILE );

  10787  9 000004   000000 236000 xsym               LDQ     DUAL_FILE
         9 000005   000033 772000                    QRL     27
         9 000006   000001 620006                    EAX0    1,QL
         9 000007   000000 635010                    EAA     0,X0
         9 000010   000002 771000                    ARL     2
         9 000011   000140 135007                    SBLA    96,DL
         9 000012   000002 236000 10                 LDQ     2
         9 000013   000032 757000 2                  STAQ    OPEN_PRIME_DUAL_PACK+6

     3845    10788    1      OPEN_PRIME_DUAL_PACK.V.FUN# = %UPDATE#;

  10788  9 000014   001000 236007                    LDQ     512,DL
         9 000015   000071 552010 2                  STBQ    OPEN_PRIME_DUAL_PACK+37,'10'O

     3846    10789    1      OPEN_PRIME_DUAL_PACK.V.RES# = DISK_DEST_RES.NAME;

  10789  9 000016   000001 236000 xsym               LDQ     DISK_DEST_RES+1
         9 000017   000074 756000 2                  STQ     OPEN_PRIME_DUAL_PACK+40

     3847    10790    1      CALL M$OPEN ( OPEN_PRIME_DUAL_PACK ) ALTRET ( CHECK_ALT );

  10790  9 000020   000024 630400 2                  EPPR0   OPEN_PRIME_DUAL_PACK
         9 000021   450000 713400                    CLIMB   alt,open
         9 000022   410400 401760                    pmme    nvectors=18
         9 000023   000140 702000 9                  TSX2    CHECK_ALT

     3848    10791    1      CALL M$READ ( READ_PRIME_DUAL_FILE ) ALTRET ( CHECK_ALT );

  10791  9 000024   000116 630400 2                  EPPR0   READ_PRIME_DUAL_FILE
         9 000025   440000 713400                    CLIMB   alt,read
         9 000026   401400 401760                    pmme    nvectors=4
PL6.E3A0      #002=FLM$SWITCH_PRIME_DUAL File=FLM$MOVE.:E05TSI                   TUE 07/29/97 16:12 Page:565
         9 000027   000140 702000 9                  TSX2    CHECK_ALT

     3849    10792    1      TEMP = PRIME_DUAL_BUF.PRIME;

  10792  9 000030   040100 100400                    MLR     fill='040'O
         9 000031   000001 000006 xsym               ADSC9   PRIME_DUAL_BUF+1         cn=0,n=6
         9 000032   200003 000006                    ADSC9   TEMP,,AUTO               cn=0,n=6

     3850    10793    1      PRIME_DUAL_BUF.PRIME = PRIME_DUAL_BUF.DUAL;

  10793  9 000033   040000 100400                    MLR     fill='040'O
         9 000034   000002 400006 xsym               ADSC9   PRIME_DUAL_BUF+2         cn=2,n=6
         9 000035   000001 000006 xsym               ADSC9   PRIME_DUAL_BUF+1         cn=0,n=6

     3851    10794    1      PRIME_DUAL_BUF.DUAL = TEMP;

  10794  9 000036   040000 100500                    MLR     fill='040'O
         9 000037   200003 000006                    ADSC9   TEMP,,AUTO               cn=0,n=6
         9 000040   000002 400006 xsym               ADSC9   PRIME_DUAL_BUF+2         cn=2,n=6

     3852    10795    1      CALL M$WRITE ( WRITE_PRIME_DUAL_FILE ) ALTRET ( CHECK_ALT );

  10795  9 000041   000134 630400 2                  EPPR0   WRITE_PRIME_DUAL_FILE
         9 000042   440001 713400                    CLIMB   alt,write
         9 000043   401400 401760                    pmme    nvectors=4
         9 000044   000140 702000 9                  TSX2    CHECK_ALT

     3853    10796    1      CLOSE_PRIME_DUAL_PACK.NAME_ = VECTOR( PRIME_FILE );

  10796  9 000045   000000 236000 xsym               LDQ     PRIME_FILE
         9 000046   000033 772000                    QRL     27
         9 000047   000001 620006                    EAX0    1,QL
         9 000050   000000 635010                    EAA     0,X0
         9 000051   000002 771000                    ARL     2
         9 000052   000140 135007                    SBLA    96,DL
         9 000053   000003 236000 10                 LDQ     3
         9 000054   000156 757000 2                  STAQ    CLOSE_PRIME_DUAL_PACK+6
PL6.E3A0      #002=FLM$SWITCH_PRIME_DUAL File=FLM$MOVE.:E05TSI                   TUE 07/29/97 16:12 Page:566

     3854    10797    1      CALL M$CLOSE ( CLOSE_PRIME_DUAL_PACK ) ALTRET( CHECK_ALT );

  10797  9 000055   000150 630400 2                  EPPR0   CLOSE_PRIME_DUAL_PACK
         9 000056   450001 713400                    CLIMB   alt,close
         9 000057   406000 401760                    pmme    nvectors=13
         9 000060   000140 702000 9                  TSX2    CHECK_ALT

     3855    10798
     3856    10799        /***
     3857    10800         *** Rename :PRIME file to :DUAL and switch contents of the first record
     3858    10801         *** making the former prime packset the dual and visa versa.
     3859    10802         ***/
     3860    10803    1      OPEN_PRIME_DUAL_PACK.SN_ = VECTOR ( DPLIST );

  10803  9 000061   000000 235000 10                 LDA     0
         9 000062   000000 236000 xsym               LDQ     DPLIST$
         9 000063   000026 757000 2                  STAQ    OPEN_PRIME_DUAL_PACK+2

     3861    10804    1      OPEN_PRIME_DUAL_PACK.V.RES# = DPRESLIST.NAME(0);

  10804  9 000064   000000 470400 xsym               LDP0    DPRESLIST$
         9 000065   000001 236100                    LDQ     1,,PR0
         9 000066   000074 756000 2                  STQ     OPEN_PRIME_DUAL_PACK+40

     3862    10805    1      OPEN_PRIME_DUAL_PACK.NAME_ = VECTOR ( PRIME_FILE );

  10805  9 000067   000000 236000 xsym               LDQ     PRIME_FILE
         9 000070   000033 772000                    QRL     27
         9 000071   000001 620006                    EAX0    1,QL
         9 000072   000000 635010                    EAA     0,X0
         9 000073   000002 771000                    ARL     2
         9 000074   000140 135007                    SBLA    96,DL
         9 000075   000003 236000 10                 LDQ     3
         9 000076   000032 757000 2                  STAQ    OPEN_PRIME_DUAL_PACK+6

     3863    10806    1      OPEN_PRIME_DUAL_PACK.V.FUN# = %UPDATE#;
PL6.E3A0      #002=FLM$SWITCH_PRIME_DUAL File=FLM$MOVE.:E05TSI                   TUE 07/29/97 16:12 Page:567

  10806  9 000077   001000 236007                    LDQ     512,DL
         9 000100   000071 552010 2                  STBQ    OPEN_PRIME_DUAL_PACK+37,'10'O

     3864    10807    1      CALL M$OPEN ( OPEN_PRIME_DUAL_PACK ) ALTRET ( CHECK_ALT );

  10807  9 000101   000024 630400 2                  EPPR0   OPEN_PRIME_DUAL_PACK
         9 000102   450000 713400                    CLIMB   alt,open
         9 000103   410400 401760                    pmme    nvectors=18
         9 000104   000140 702000 9                  TSX2    CHECK_ALT

     3865    10808    1      CALL M$READ ( READ_PRIME_DUAL_FILE ) ALTRET ( CHECK_ALT );

  10808  9 000105   000116 630400 2                  EPPR0   READ_PRIME_DUAL_FILE
         9 000106   440000 713400                    CLIMB   alt,read
         9 000107   401400 401760                    pmme    nvectors=4
         9 000110   000140 702000 9                  TSX2    CHECK_ALT

     3866    10809    1      PRIME_DUAL_BUF.PRIME = PRIME_DUAL_BUF.DUAL;

  10809  9 000111   040000 100400                    MLR     fill='040'O
         9 000112   000002 400006 xsym               ADSC9   PRIME_DUAL_BUF+2         cn=2,n=6
         9 000113   000001 000006 xsym               ADSC9   PRIME_DUAL_BUF+1         cn=0,n=6

     3867    10810    1      PRIME_DUAL_BUF.DUAL = TEMP;

  10810  9 000114   040000 100500                    MLR     fill='040'O
         9 000115   200003 000006                    ADSC9   TEMP,,AUTO               cn=0,n=6
         9 000116   000002 400006 xsym               ADSC9   PRIME_DUAL_BUF+2         cn=2,n=6

     3868    10811    1      CALL M$WRITE ( WRITE_PRIME_DUAL_FILE ) ALTRET (CHECK_ALT );

  10811  9 000117   000134 630400 2                  EPPR0   WRITE_PRIME_DUAL_FILE
         9 000120   440001 713400                    CLIMB   alt,write
         9 000121   401400 401760                    pmme    nvectors=4
         9 000122   000140 702000 9                  TSX2    CHECK_ALT

PL6.E3A0      #002=FLM$SWITCH_PRIME_DUAL File=FLM$MOVE.:E05TSI                   TUE 07/29/97 16:12 Page:568
     3869    10812    1      CLOSE_PRIME_DUAL_PACK.NAME_ = VECTOR( DUAL_FILE );

  10812  9 000123   000000 236000 xsym               LDQ     DUAL_FILE
         9 000124   000033 772000                    QRL     27
         9 000125   000001 620006                    EAX0    1,QL
         9 000126   000000 635010                    EAA     0,X0
         9 000127   000002 771000                    ARL     2
         9 000130   000140 135007                    SBLA    96,DL
         9 000131   000002 236000 10                 LDQ     2
         9 000132   000156 757000 2                  STAQ    CLOSE_PRIME_DUAL_PACK+6

     3870    10813    1      CALL M$CLOSE ( CLOSE_PRIME_DUAL_PACK ) ALTRET ( CHECK_ALT );

  10813  9 000133   000150 630400 2                  EPPR0   CLOSE_PRIME_DUAL_PACK
         9 000134   450001 713400                    CLIMB   alt,close
         9 000135   406000 401760                    pmme    nvectors=13
         9 000136   000140 702000 9                  TSX2    CHECK_ALT

     3871    10814    1      RETURN;

  10814  9 000137   000000 702200 xent               TSX2  ! X66_ARET

     3872    10815
     3873    10816    1   CHECK_ALT:
     3874    10817    1      IF DCBADDR(DCBNUM(M$OPEN_PRIME_DUAL_PACK))->F$DCB.FCD#

  10817  9 000140   000000 236007 xsym  CHECK_ALT    LDQ     M$OPEN_PRIME_DUAL_PACK,DL
         9 000141   000004 470400 10                 LDP0    4
         9 000142   000000 471500                    LDP1    0,,PR0
         9 000143   100000 473506                    LDP3    0,QL,PR1
         9 000144   300031 236100                    LDQ     25,,PR3
         9 000145   020000 316007                    CANQ    8192,DL
         9 000146   000152 600000 9                  TZE     s:10819

     3875    10818    1       THEN CALL M$CLOSE ( CLOSE_PRIME_DUAL_PACK );

  10818  9 000147   000150 630400 2                  EPPR0   CLOSE_PRIME_DUAL_PACK
PL6.E3A0      #002=FLM$SWITCH_PRIME_DUAL File=FLM$MOVE.:E05TSI                   TUE 07/29/97 16:12 Page:569
         9 000150   050001 713400                    CLIMB   close
         9 000151   406000 401760                    pmme    nvectors=13

     3876    10819    1      ALTRETURN;

  10819  9 000152   000000 702200 xent               TSX2  ! X66_AALT
     3877    10820    1   END FLM$SWITCH_PRIME_DUAL;
     3878    10821        %EOD;

PL6.E3A0      #002=FLM$SWITCH_PRIME_DUAL File=FLM$MOVE.:E05TSI                   TUE 07/29/97 16:12 Page:570
--  Include file information  --

   FLS_DATA_R.:E05TOU  cannot be made into a system file and is referenced.
   B_MICROPS_C.:E05TOU  is referenced.
   FLB_SUBS_C.:E05TOU  is referenced.
   FLI_DATA_R.:E05TOU  cannot be made into a system file and is referenced.
   B_ERRORS_C.:E05TOU  is referenced.
   CP_6_SUBS.:E05TOU  is referenced.
   CP_6_C.:E05TOU  is referenced.
   CP_6.:E05TOU  cannot be made into a system file and is referenced.
      No diagnostics issued in procedure FLM$SWITCH_PRIME_DUAL.
PL6.E3A0      #002=FLM$SWITCH_PRIME_DUAL File=FLM$MOVE.:E05TSI                   TUE 07/29/97 16:12 Page:571

 **** Variables and constants ****

  ****  Section 002  Data  FLM$SWITCH_PRIME_DUAL

  ****  Scalars and arrays  ****
OctLoc.c.b A Datatyp(siz) R M Lvl/name                 OctLoc.c.b A Datatyp(siz) R M Lvl/name

    10-0-0/c STRC(72)    r     1 BACKUP_ACCT
   150-0-0/d STRC(1080)  r     1 CLOSE_PRIME_DUAL_PACK
    12-0-0/d STRC(360)   r     1 DEL_NODATA_REC            24-0-0/d STRC(2088)  r     1 OPEN_PRIME_DUAL_PACK
   116-0-0/d STRC(504)   r     1 READ_PRIME_DUAL_FILE
   134-0-0/d STRC(432)   r     1 WRITE_PRIME_DUAL_FILE

  ****  Auto variables  ****

  ****  Scalars and arrays  ****
OctLoc.c.b A Datatyp(siz) R M Lvl/name                 OctLoc.c.b A Datatyp(siz) R M Lvl/name

     3-0-0/c CHAR(6)     r     1 TEMP

  ****  SYMREF variables  ****

  ****  Scalars and arrays  ****
OctLoc.c.b A Datatyp(siz) R M Lvl/name                 OctLoc.c.b A Datatyp(siz) R M Lvl/name

     0-0-0/c ASTR(9)     r     1 ARCHIVE_NAME               0-0-0/w PTR         r     1 B$TCB$
     0-0-0/c ASTR(9)     r     1 BACKUP_NAME                0-0-0/w PTR         r     1 BLK_TAG$
     0-0-0/w PTR         r     1 BLK_TAG0$                  0-0-0/w PTR         r     1 BLOCK_GRAN$
     0-0-0/w STRC(72)    r     1 DISK_DEST_RES              0-0-0/d STRC(90)    r     1 DISK_DEST_SN
     0-0-0/w PTR         r     1 DISK_FILE_SPEC$            0-0-0/w PTR         r     1 DISK_GRAN$
     0-0-0/w PTR         r     1 DPLIST$                    0-0-0/w PTR         r     1 DPRESLIST$
     0-0-0/c ASTR(9)     r     1 DUAL_FILE                  0-0-0/c ASTR(9)     r     1 EFT_CVOL_FILE
     0-0-0/c ASTR(9)     r     1 EFT_RESTRICT_FILE          0-0-0/w SBIN        r     1 NBR_BYTES_TO_MOVE
     0-0-0/c ASTR(9)     r     1 NODATA_FILE_NAME           0-0-0/c STRC(369)   r     1 NODATA_KEY
     0-0-0/w STRC(144)   r     1 PRIME_DUAL_BUF             0-0-0/c ASTR(9)     r     1 PRIME_FILE
     0-0-0/c ASTR(9)     r     1 REBUILD_DIR_KEY            0-0-0/c ASTR(9)     r     1 REBUILD_KEY
     0-0-0/c ASTR(9)     r     1 REBUILD_NAME               0-0-0/c ASTR(9)     r     1 RET_CMDS_NAME
PL6.E3A0      #002=FLM$SWITCH_PRIME_DUAL File=FLM$MOVE.:E05TSI                   TUE 07/29/97 16:12 Page:572
     0-0-0/w PTR         r     1 SNVECLIST$                 0-0-0/w PTR         r     1 TAPE_DCBLIST$
     0-0-0/c ASTR(9)     r     1 TSN_USED_NAME

  ****  BASED and DCB variables  ****

  ****  Scalars and arrays  ****
OctLoc.c.b A Datatyp(siz) R M Lvl/name                 OctLoc.c.b A Datatyp(siz) R M Lvl/name

     0-0-0/d STRC(90)    r     1 DPLIST                     0-0-0/w STRC(72)    r     1 DPRESLIST
     0-0-0/d ASTR(3528)  r     1 F$DCB                      0-0-0N  NULL        r     1 M$NODATA_LIST
     0-0-0N  NULL        r     1 M$OPEN_PRIME_DUAL_PACK


   Procedure FLM$SWITCH_PRIME_DUAL requires 107 words for executable code.
   Procedure FLM$SWITCH_PRIME_DUAL requires 6 words of local(AUTO) storage.
PL6.E3A0      #002=FLM$SWITCH_PRIME_DUAL File=FLM$MOVE.:E05TSI                   TUE 07/29/97 16:12 Page:573
          *** CROSS REFERENCE LISTING ***
**     DENOTES     IDENTIFIER DEFINITION
<<                 IDENTIFIER'S VALUE SET
>>                 IDENTIFIER'S VALUE USED
<>                 IDENTIFIER SET AND/OR USED
--                 IDENTIFIER REFERENCED
PL6.E3A0      #002=FLM$SWITCH_PRIME_DUAL File=FLM$MOVE.:E05TSI                   TUE 07/29/97 16:12 Page:574
          MINI XREF LISTING

ARCHIVE_NAME.L#
      9546**DCL      9546--IMP-SIZ
B$ALT.CODE
     10714**DCL     10714--REDEF   10715--REDEF   10715--REDEF
B$ALT.ERR.ERR#
     10716**DCL     10716--REDEF
B$ALT.EVID
     10715**DCL     10715--REDEF   10715--REDEF
B$TCB$
      8171**DCL     10710--IMP-PTR
BACKUP_ACCT
      9203**DCL     10538--DCLINIT
BACKUP_NAME.L#
      9190**DCL      9190--IMP-SIZ
BLK_TAG.NAME
      8682**DCL      8682--REDEF
BLK_TAG$
      8679**DCL      8679--IMP-PTR
BLK_TAG0.NAME
      8688**DCL      8688--REDEF
BLK_TAG0$
      8685**DCL      8685--IMP-PTR
BLOCK_GRAN$
      8692**DCL      8693--IMP-PTR
CHECK_ALT
     10817**LABEL   10790--CALLALT 10791--CALLALT 10795--CALLALT 10797--CALLALT 10807--CALLALT 10808--CALLALT
     10811--CALLALT 10813--CALLALT
CLOSE_NODATA_LIST.SN_
     10344**DCL     10344--REDEF
CLOSE_NODATA_LIST.UTL_
     10345**DCL     10345--REDEF
CLOSE_NODATA_LIST.V.EXPIRE#
PL6.E3A0      #002=FLM$SWITCH_PRIME_DUAL File=FLM$MOVE.:E05TSI                   TUE 07/29/97 16:12 Page:575
     10359**DCL     10359--REDEF
CLOSE_NODATA_LIST.V.TYPE#
     10357**DCL     10357--REDEF
CLOSE_NODATA_LIST.V.XTNSIZE#
     10354**DCL     10354--REDEF   10356--REDEF
CLOSE_PRIME_DUAL.SN_
      9821**DCL      9821--REDEF
CLOSE_PRIME_DUAL.UTL_
      9822**DCL      9822--REDEF
CLOSE_PRIME_DUAL.V.EXPIRE#
      9836**DCL      9836--REDEF
CLOSE_PRIME_DUAL.V.TYPE#
      9834**DCL      9834--REDEF
CLOSE_PRIME_DUAL.V.XTNSIZE#
      9831**DCL      9831--REDEF    9833--REDEF
CLOSE_PRIME_DUAL_PACK
     10684**DCL     10797<>CALL    10813<>CALL    10818<>CALL
CLOSE_PRIME_DUAL_PACK.NAME_
     10685**DCL     10796<<ASSIGN  10812<<ASSIGN
CLOSE_PRIME_DUAL_PACK.SN_
     10684**DCL     10684--REDEF
CLOSE_PRIME_DUAL_PACK.UTL_
     10685**DCL     10685--REDEF
CLOSE_PRIME_DUAL_PACK.V
     10689**DCL     10684--DCLINIT
CLOSE_PRIME_DUAL_PACK.V.EXPIRE#
     10699**DCL     10699--REDEF
CLOSE_PRIME_DUAL_PACK.V.TYPE#
     10697**DCL     10697--REDEF
CLOSE_PRIME_DUAL_PACK.V.XTNSIZE#
     10694**DCL     10694--REDEF   10696--REDEF
CLOSE_REBUILD.SN_
     10096**DCL     10096--REDEF
CLOSE_REBUILD.UTL_
     10097**DCL     10097--REDEF
CLOSE_REBUILD.V.EXPIRE#
PL6.E3A0      #002=FLM$SWITCH_PRIME_DUAL File=FLM$MOVE.:E05TSI                   TUE 07/29/97 16:12 Page:576
     10111**DCL     10111--REDEF
CLOSE_REBUILD.V.TYPE#
     10109**DCL     10109--REDEF
CLOSE_REBUILD.V.XTNSIZE#
     10106**DCL     10106--REDEF   10108--REDEF
CLOSE_STATUS.SN_
      9311**DCL      9311--REDEF
CLOSE_STATUS.UTL_
      9312**DCL      9312--REDEF
CLOSE_STATUS.V.EXPIRE#
      9326**DCL      9326--REDEF
CLOSE_STATUS.V.TYPE#
      9324**DCL      9324--REDEF
CLOSE_STATUS.V.XTNSIZE#
      9321**DCL      9321--REDEF    9323--REDEF
CLOSE_TSN_USED.SN_
      9021**DCL      9021--REDEF
CLOSE_TSN_USED.UTL_
      9022**DCL      9022--REDEF
CLOSE_TSN_USED.V.EXPIRE#
      9036**DCL      9036--REDEF
CLOSE_TSN_USED.V.TYPE#
      9034**DCL      9034--REDEF
CLOSE_TSN_USED.V.XTNSIZE#
      9031**DCL      9031--REDEF    9033--REDEF
CON_CLOSE_ARCHIVE.SN_
      9353**DCL      9353--REDEF
CON_CLOSE_ARCHIVE.UTL_
      9354**DCL      9354--REDEF
CON_CLOSE_ARCHIVE.V.EXPIRE#
      9368**DCL      9368--REDEF
CON_CLOSE_ARCHIVE.V.TYPE#
      9366**DCL      9366--REDEF
CON_CLOSE_ARCHIVE.V.XTNSIZE#
      9363**DCL      9363--REDEF    9365--REDEF
CON_OPEN_ARCHIVE_FILE.ACSVEH_
PL6.E3A0      #002=FLM$SWITCH_PRIME_DUAL File=FLM$MOVE.:E05TSI                   TUE 07/29/97 16:12 Page:577
      9440**DCL      9441--REDEF
CON_OPEN_ARCHIVE_FILE.ALTKEYS_
      9446**DCL      9447--REDEF    9447--REDEF
CON_OPEN_ARCHIVE_FILE.HDR_
      9445**DCL      9446--REDEF
CON_OPEN_ARCHIVE_FILE.TAB_
      9444**DCL      9445--REDEF
CON_OPEN_ARCHIVE_FILE.UHL_
      9438**DCL      9439--REDEF    9439--REDEF
CON_OPEN_ARCHIVE_FILE.V.FSN#
      9478**DCL      9478--REDEF    9478--REDEF
CON_OPEN_ARCHIVE_FILE.WSN_
      9444**DCL      9444--REDEF
CON_READ_ARCHIVE_FILE.STATION_
      9502**DCL      9503--REDEF
CON_READ_ARCHIVE_FILE.V.DVBYTE.REREAD#
      9514**DCL      9514--REDEF
CON_READ_ARCHIVE_FILE.V.INDX#
      9512**DCL      9512--REDEF
CVOL_UTL.ULBL#
      8781**DCL      8781--REDEF
DEL_NODATA_REC.V
     10447**DCL     10444--DCLINIT
DISK_CLOSE.SN_
      7851**DCL      7851--REDEF
DISK_CLOSE.UTL_
      7852**DCL      7852--REDEF
DISK_CLOSE.V.EXPIRE#
      7866**DCL      7866--REDEF
DISK_CLOSE.V.TYPE#
      7864**DCL      7864--REDEF
DISK_CLOSE.V.XTNSIZE#
      7861**DCL      7861--REDEF    7863--REDEF
DISK_DEST_RES.NAME
      8335**DCL     10789>>ASSIGN
DISK_DEST_SN
PL6.E3A0      #002=FLM$SWITCH_PRIME_DUAL File=FLM$MOVE.:E05TSI                   TUE 07/29/97 16:12 Page:578
      8320**DCL     10786--ASSIGN
DISK_FILE_SPEC.SPEC
      8216**DCL      8218--REDEF
DISK_FILE_SPEC.SPEC.START
      8217**DCL      8217--REDEF
DISK_FILE_SPEC.SPEC.STOP
      8218**DCL      8218--REDEF
DISK_FILE_SPEC$
      8215**DCL      8216--IMP-PTR
DISK_GRAN$
      8692**DCL      8692--IMP-PTR
DISK_OPEN.ACSVEH_
      7716**DCL      7717--REDEF
DISK_OPEN.ALTKEYS_
      7722**DCL      7723--REDEF    7723--REDEF
DISK_OPEN.HDR_
      7721**DCL      7722--REDEF
DISK_OPEN.TAB_
      7720**DCL      7721--REDEF
DISK_OPEN.UHL_
      7714**DCL      7715--REDEF    7715--REDEF
DISK_OPEN.V.FSN#
      7754**DCL      7754--REDEF    7754--REDEF
DISK_OPEN.WSN_
      7720**DCL      7720--REDEF
DISK_READ.STATION_
      7778**DCL      7779--REDEF
DISK_READ.V.DVBYTE.REREAD#
      7790**DCL      7790--REDEF
DISK_READ.V.INDX#
      7788**DCL      7788--REDEF
DISK_WRITE.STATION_
      7816**DCL      7816--REDEF
DISK_WRITE.V.DVBYTE.VFC#
      7823**DCL      7823--REDEF
DPLIST
PL6.E3A0      #002=FLM$SWITCH_PRIME_DUAL File=FLM$MOVE.:E05TSI                   TUE 07/29/97 16:12 Page:579
      8213**DCL     10803--ASSIGN
DPLIST$
      8201**DCL      8213--IMP-PTR 10803>>ASSIGN
DPRESLIST.NAME
      8215**DCL     10804>>ASSIGN
DPRESLIST$
      8215**DCL      8215--IMP-PTR 10804>>ASSIGN
DUAL_FILE
      9617**DCL     10787--ASSIGN  10812--ASSIGN
DUAL_FILE.L#
      9617**DCL      9617--IMP-SIZ 10787>>ASSIGN  10812>>ASSIGN
EFTWORD
      8336**DCL      8336--REDEF
EFT_CVOL_FILE.L#
      8741**DCL      8741--IMP-SIZ
EFT_RESTRICT_FILE.L#
      8768**DCL      8768--IMP-SIZ
F$DCB.ACTPOS
     10753**DCL     10753--REDEF
F$DCB.ARS#
     10727**DCL     10727--REDEF
F$DCB.ATTR
     10746**DCL     10747--REDEF
F$DCB.BORROW
     10761**DCL     10761--REDEF   10761--REDEF   10761--REDEF
F$DCB.DCBNAME.L
     10775**DCL     10775--IMP-SIZ
F$DCB.EOMCHAR#
     10731**DCL     10731--REDEF
F$DCB.FCD#
     10740**DCL     10817>>IF
F$DCB.FLDID
     10756**DCL     10756--REDEF
F$DCB.FORM$
     10750**DCL     10750--REDEF
F$DCB.FSECT
PL6.E3A0      #002=FLM$SWITCH_PRIME_DUAL File=FLM$MOVE.:E05TSI                   TUE 07/29/97 16:12 Page:580
     10766**DCL     10766--REDEF
F$DCB.FSN#
     10743**DCL     10743--REDEF   10743--REDEF   10744--REDEF
F$DCB.HEADER$
     10749**DCL     10749--REDEF
F$DCB.IXTNSIZE#
     10747**DCL     10747--REDEF
F$DCB.LASTSTA$
     10736**DCL     10736--REDEF
F$DCB.LVL
     10762**DCL     10762--REDEF
F$DCB.NAME#.C
     10737**DCL     10737--REDEF
F$DCB.NOEOF
     10759**DCL     10759--REDEF
F$DCB.NRECS#
     10748**DCL     10748--REDEF
F$DCB.NRECX
     10767**DCL     10767--REDEF
F$DCB.OHDR
     10759**DCL     10759--REDEF
F$DCB.ORG#
     10742**DCL     10742--REDEF
F$DCB.PRECNO
     10765**DCL     10765--REDEF
F$DCB.RCSZ
     10771**DCL     10771--REDEF
F$DCB.RES#
     10738**DCL     10738--REDEF
F$DCB.SETX
     10750**DCL     10750--REDEF
F$DCB.TAB$
     10750**DCL     10750--REDEF
F$DCB.TDA
     10764**DCL     10765--REDEF
F$DCB.WSN#
PL6.E3A0      #002=FLM$SWITCH_PRIME_DUAL File=FLM$MOVE.:E05TSI                   TUE 07/29/97 16:12 Page:581
     10738**DCL     10738--REDEF
FIT_AREA.W2
      9052**DCL      9053--REDEF
FPT_EXIT.V.STEPCC#
      7641**DCL      7641--REDEF
M$CLOSE
      5501**DCL-ENT 10797--CALL    10813--CALL    10818--CALL
M$OPEN
      5501**DCL-ENT 10790--CALL    10807--CALL
M$OPEN_PRIME_DUAL_PACK
     10707**DCL     10817--IF
M$READ
      5502**DCL-ENT 10791--CALL    10808--CALL
M$WRITE
      5502**DCL-ENT 10795--CALL    10811--CALL
NBR_BYTES_TO_MOVE
      8691**DCL      8692--IMP-SIZ  8693--IMP-SIZ
NODATA_FILE_NAME.L#
     10306**DCL     10306--IMP-SIZ
NODATA_KEY
     10452**DCL     10444--DCLINIT 10445--DCLINIT
OPEN_NODATA_LIST.ACSVEH_
     10239**DCL     10240--REDEF
OPEN_NODATA_LIST.ALTKEYS_
     10245**DCL     10246--REDEF   10246--REDEF
OPEN_NODATA_LIST.HDR_
     10244**DCL     10245--REDEF
OPEN_NODATA_LIST.TAB_
     10243**DCL     10244--REDEF
OPEN_NODATA_LIST.UHL_
     10237**DCL     10238--REDEF   10238--REDEF
OPEN_NODATA_LIST.V.FSN#
     10277**DCL     10277--REDEF   10277--REDEF
OPEN_NODATA_LIST.WSN_
     10243**DCL     10243--REDEF
OPEN_PRIME_DUAL.ACSVEH_
PL6.E3A0      #002=FLM$SWITCH_PRIME_DUAL File=FLM$MOVE.:E05TSI                   TUE 07/29/97 16:12 Page:582
      9686**DCL      9687--REDEF
OPEN_PRIME_DUAL.ALTKEYS_
      9692**DCL      9693--REDEF    9693--REDEF
OPEN_PRIME_DUAL.HDR_
      9691**DCL      9692--REDEF
OPEN_PRIME_DUAL.TAB_
      9690**DCL      9691--REDEF
OPEN_PRIME_DUAL.UHL_
      9684**DCL      9685--REDEF    9685--REDEF
OPEN_PRIME_DUAL.V.FSN#
      9724**DCL      9724--REDEF    9724--REDEF
OPEN_PRIME_DUAL.WSN_
      9690**DCL      9690--REDEF
OPEN_PRIME_DUAL_PACK
     10533**DCL     10790<>CALL    10807<>CALL
OPEN_PRIME_DUAL_PACK.ACSVEH_
     10535**DCL     10536--REDEF
OPEN_PRIME_DUAL_PACK.ALTKEYS_
     10541**DCL     10542--REDEF   10542--REDEF
OPEN_PRIME_DUAL_PACK.HDR_
     10540**DCL     10541--REDEF
OPEN_PRIME_DUAL_PACK.NAME_
     10534**DCL     10787<<ASSIGN  10805<<ASSIGN
OPEN_PRIME_DUAL_PACK.SN_
     10533**DCL     10786<<ASSIGN  10803<<ASSIGN
OPEN_PRIME_DUAL_PACK.TAB_
     10539**DCL     10540--REDEF
OPEN_PRIME_DUAL_PACK.UHL_
     10533**DCL     10534--REDEF   10534--REDEF
OPEN_PRIME_DUAL_PACK.V
     10542**DCL     10533--DCLINIT
OPEN_PRIME_DUAL_PACK.V.FSN#
     10573**DCL     10573--REDEF   10573--REDEF
OPEN_PRIME_DUAL_PACK.V.FUN#
     10552**DCL     10788<<ASSIGN  10806<<ASSIGN
OPEN_PRIME_DUAL_PACK.V.RES#
PL6.E3A0      #002=FLM$SWITCH_PRIME_DUAL File=FLM$MOVE.:E05TSI                   TUE 07/29/97 16:12 Page:583
     10557**DCL     10789<<ASSIGN  10804<<ASSIGN
OPEN_PRIME_DUAL_PACK.WSN_
     10539**DCL     10539--REDEF
OPEN_REBUILD.ACSVEH_
      9921**DCL      9922--REDEF
OPEN_REBUILD.ALTKEYS_
      9927**DCL      9928--REDEF    9928--REDEF
OPEN_REBUILD.HDR_
      9926**DCL      9927--REDEF
OPEN_REBUILD.TAB_
      9925**DCL      9926--REDEF
OPEN_REBUILD.UHL_
      9919**DCL      9920--REDEF    9920--REDEF
OPEN_REBUILD.V.FSN#
      9959**DCL      9959--REDEF    9959--REDEF
OPEN_REBUILD.WSN_
      9925**DCL      9925--REDEF
OPEN_STATUS.ACSVEH_
      9123**DCL      9124--REDEF
OPEN_STATUS.ALTKEYS_
      9129**DCL      9130--REDEF    9130--REDEF
OPEN_STATUS.HDR_
      9128**DCL      9129--REDEF
OPEN_STATUS.TAB_
      9127**DCL      9128--REDEF
OPEN_STATUS.UHL_
      9121**DCL      9122--REDEF    9122--REDEF
OPEN_STATUS.V.FSN#
      9161**DCL      9161--REDEF    9161--REDEF
OPEN_STATUS.WSN_
      9127**DCL      9127--REDEF
OPEN_TSN_USED.ACSVEH_
      8859**DCL      8860--REDEF
OPEN_TSN_USED.ALTKEYS_
      8865**DCL      8866--REDEF    8866--REDEF
OPEN_TSN_USED.HDR_
PL6.E3A0      #002=FLM$SWITCH_PRIME_DUAL File=FLM$MOVE.:E05TSI                   TUE 07/29/97 16:12 Page:584
      8864**DCL      8865--REDEF
OPEN_TSN_USED.TAB_
      8863**DCL      8864--REDEF
OPEN_TSN_USED.UHL_
      8857**DCL      8858--REDEF    8858--REDEF
OPEN_TSN_USED.V.FSN#
      8897**DCL      8897--REDEF    8897--REDEF
OPEN_TSN_USED.WSN_
      8863**DCL      8863--REDEF
PRE_RET_CLOSE.SN_
      8579**DCL      8579--REDEF
PRE_RET_CLOSE.UTL_
      8580**DCL      8580--REDEF
PRE_RET_CLOSE.V.EXPIRE#
      8594**DCL      8594--REDEF
PRE_RET_CLOSE.V.TYPE#
      8592**DCL      8592--REDEF
PRE_RET_CLOSE.V.XTNSIZE#
      8589**DCL      8589--REDEF    8591--REDEF
PRE_RET_OPEN.ACSVEH_
      8514**DCL      8515--REDEF
PRE_RET_OPEN.ALTKEYS_
      8520**DCL      8521--REDEF    8521--REDEF
PRE_RET_OPEN.HDR_
      8519**DCL      8520--REDEF
PRE_RET_OPEN.TAB_
      8518**DCL      8519--REDEF
PRE_RET_OPEN.UHL_
      8512**DCL      8513--REDEF    8513--REDEF
PRE_RET_OPEN.V.FSN#
      8552**DCL      8552--REDEF    8552--REDEF
PRE_RET_OPEN.WSN_
      8518**DCL      8518--REDEF
PRE_RET_READ.STATION_
      8369**DCL      8370--REDEF
PRE_RET_READ.V.DVBYTE.REREAD#
PL6.E3A0      #002=FLM$SWITCH_PRIME_DUAL File=FLM$MOVE.:E05TSI                   TUE 07/29/97 16:12 Page:585
      8381**DCL      8381--REDEF
PRE_RET_READ.V.INDX#
      8379**DCL      8379--REDEF
PRE_RET_WRITE.STATION_
      8407**DCL      8407--REDEF
PRE_RET_WRITE.V.DVBYTE.VFC#
      8414**DCL      8414--REDEF
PRIME_DUAL_BUF
      9564**DCL     10600--DCLINIT 10601--DCLINIT 10643--DCLINIT 10644--DCLINIT
PRIME_DUAL_BUF.DUAL
      9564**DCL     10793>>ASSIGN  10794<<ASSIGN  10809>>ASSIGN  10810<<ASSIGN
PRIME_DUAL_BUF.PRIME
      9564**DCL     10792>>ASSIGN  10793<<ASSIGN  10809<<ASSIGN
PRIME_FILE
      9590**DCL     10796--ASSIGN  10805--ASSIGN
PRIME_FILE.L#
      9590**DCL      9590--IMP-SIZ 10796>>ASSIGN  10805>>ASSIGN
READ_NODATA_LIST.STATION_
     10383**DCL     10384--REDEF
READ_NODATA_LIST.V.DVBYTE.REREAD#
     10395**DCL     10395--REDEF
READ_NODATA_LIST.V.INDX#
     10393**DCL     10393--REDEF
READ_PRIME_DUAL.STATION_
      9748**DCL      9749--REDEF
READ_PRIME_DUAL.V.DVBYTE.REREAD#
      9760**DCL      9760--REDEF
READ_PRIME_DUAL.V.INDX#
      9758**DCL      9758--REDEF
READ_PRIME_DUAL_FILE
     10598**DCL     10791<>CALL    10808<>CALL
READ_PRIME_DUAL_FILE.STATION_
     10601**DCL     10602--REDEF
READ_PRIME_DUAL_FILE.V
     10602**DCL     10598--DCLINIT
READ_PRIME_DUAL_FILE.V.DVBYTE.REREAD#
PL6.E3A0      #002=FLM$SWITCH_PRIME_DUAL File=FLM$MOVE.:E05TSI                   TUE 07/29/97 16:12 Page:586
     10613**DCL     10613--REDEF
READ_PRIME_DUAL_FILE.V.INDX#
     10611**DCL     10611--REDEF
READ_REBUILD.STATION_
     10054**DCL     10055--REDEF
READ_REBUILD.V.DVBYTE.REREAD#
     10066**DCL     10066--REDEF
READ_REBUILD.V.INDX#
     10064**DCL     10064--REDEF
READ_STATUS.STATION_
      9269**DCL      9270--REDEF
READ_STATUS.V.DVBYTE.REREAD#
      9281**DCL      9281--REDEF
READ_STATUS.V.INDX#
      9279**DCL      9279--REDEF
READ_TSN_USED.STATION_
      8979**DCL      8980--REDEF
READ_TSN_USED.V.DVBYTE.REREAD#
      8991**DCL      8991--REDEF
READ_TSN_USED.V.INDX#
      8989**DCL      8989--REDEF
REBUILD_DIR_KEY.L#
     10140**DCL     10140--IMP-SIZ
REBUILD_KEY.L#
     10167**DCL     10167--IMP-SIZ
REBUILD_NAME.L#
      9988**DCL      9988--IMP-SIZ
RET_CMDS_NAME.L#
      8623**DCL      8623--IMP-SIZ
SNVECLIST$
      8155**DCL      8155--IMP-PTR
SPEC.START
      8219**DCL      8220--REDEF
SPEC.STOP
      8220**DCL      8221--REDEF
SPECCHARS
PL6.E3A0      #002=FLM$SWITCH_PRIME_DUAL File=FLM$MOVE.:E05TSI                   TUE 07/29/97 16:12 Page:587
      8219**DCL      8219--REDEF
TAPE_BLOCK_.W2
      8707**DCL      8708--REDEF
TAPE_CLOSE.SN_
      8072**DCL      8072--REDEF
TAPE_CLOSE.UTL_
      8073**DCL      8073--REDEF
TAPE_CLOSE.V.EXPIRE#
      8087**DCL      8087--REDEF
TAPE_CLOSE.V.TYPE#
      8085**DCL      8085--REDEF
TAPE_CLOSE.V.XTNSIZE#
      8082**DCL      8082--REDEF    8084--REDEF
TAPE_DCBLIST$
      7628**DCL      7628--IMP-PTR
TAPE_OPEN.ACSVEH_
      7937**DCL      7938--REDEF
TAPE_OPEN.ALTKEYS_
      7943**DCL      7944--REDEF    7944--REDEF
TAPE_OPEN.HDR_
      7942**DCL      7943--REDEF
TAPE_OPEN.TAB_
      7941**DCL      7942--REDEF
TAPE_OPEN.UHL_
      7935**DCL      7936--REDEF    7936--REDEF
TAPE_OPEN.V.FSN#
      7975**DCL      7975--REDEF    7975--REDEF
TAPE_OPEN.WSN_
      7941**DCL      7941--REDEF
TAPE_READ.STATION_
      7999**DCL      8000--REDEF
TAPE_READ.V.DVBYTE.REREAD#
      8011**DCL      8011--REDEF
TAPE_READ.V.INDX#
      8009**DCL      8009--REDEF
TAPE_WRITE.STATION_
PL6.E3A0      #002=FLM$SWITCH_PRIME_DUAL File=FLM$MOVE.:E05TSI                   TUE 07/29/97 16:12 Page:588
      8037**DCL      8037--REDEF
TAPE_WRITE.V.DVBYTE.VFC#
      8044**DCL      8044--REDEF
TEMP
     10780**DCL     10792<<ASSIGN  10794>>ASSIGN  10810>>ASSIGN
TSN_USED_NAME.L#
      8926**DCL      8926--IMP-SIZ
TVECTOR.W2
      8168**DCL      8169--REDEF
WRITE_NODATA_LIST.STATION_
     10421**DCL     10421--REDEF
WRITE_NODATA_LIST.V.DVBYTE.VFC#
     10428**DCL     10428--REDEF
WRITE_PRIME_DUAL.STATION_
      9786**DCL      9786--REDEF
WRITE_PRIME_DUAL.V.DVBYTE.VFC#
      9793**DCL      9793--REDEF
WRITE_PRIME_DUAL_FILE
     10642**DCL     10795<>CALL    10811<>CALL
WRITE_PRIME_DUAL_FILE.STATION_
     10644**DCL     10644--REDEF
WRITE_PRIME_DUAL_FILE.V
     10645**DCL     10642--DCLINIT
WRITE_PRIME_DUAL_FILE.V.DVBYTE.VFC#
     10651**DCL     10651--REDEF
WRITE_REBUILD.STATION_
     10022**DCL     10022--REDEF
WRITE_REBUILD.V.DVBYTE.VFC#
     10029**DCL     10029--REDEF
WRITE_STATUS.STATION_
      9237**DCL      9237--REDEF
WRITE_STATUS.V.DVBYTE.VFC#
      9244**DCL      9244--REDEF
WRITE_TSN_USED.STATION_
      8947**DCL      8947--REDEF
WRITE_TSN_USED.V.DVBYTE.VFC#
PL6.E3A0      #002=FLM$SWITCH_PRIME_DUAL File=FLM$MOVE.:E05TSI                   TUE 07/29/97 16:12 Page:589
      8954**DCL      8954--REDEF

PL6.E3A0      #003=FLS$SCRUB File=FLM$MOVE.:E05TSI                               TUE 07/29/97 16:14 Page:590
     3879        1        /*T***********************************************************/
     3880        2        /*T*                                                         */
     3881        3        /*T* Copyright (c) Bull HN Information Systems Inc., 1997    */
     3882        4        /*T*                                                         */
     3883        5        /*T***********************************************************/
     3884        6        FLS$SCRUB: PROC( FIT$ );
     3885        7        /*F*  NAME: FLS$SCRUB
     3886        8              PURPOSE: Performs scrub options.
     3887        9        */
     3888       10
     3889       11    1   DCL FIT$ PTR ALIGNED;
     3890       12
     3891       13        /***
     3892       14         *** Include
     3893       15         ***/
     3894       16
     3895       17        %INCLUDE CP_6;
     3896     5576        %INCLUDE FLI_DATA_R;
     3897     6990        %INCLUDE FM$FIT;
     3898     7211        %INCLUDE FM$GRAN;
     3899     7280
     3900     7281        /***
     3901     7282         *** Entry
     3902     7283         ***/
     3903     7284
     3904     7285    1   DCL XSF$LOCCODP ENTRY(2) ALTRET;
     3905     7286
     3906     7287        /***
     3907     7288         *** Auto
     3908     7289         ***/
     3909     7290
     3910     7291    1   DCL CODE$ PTR AUTO;
     3911     7292    1   DCL CODE03$ PTR AUTO;
     3912     7293
     3913     7294        /***
     3914     7295         *** Based
     3915     7296         ***/
PL6.E3A0      #003=FLS$SCRUB File=FLM$MOVE.:E05TSI                               TUE 07/29/97 16:14 Page:591
     3916     7297
     3917     7298        %CODE03( BASED="BASED(CODE03$)" );
     3918     7305        %CODE04( BASED="BASED(CODE$)" );
     3919     7313        %CODE05( BASED="BASED(CODE$)" );
     3920     7316        %CODE06( BASED="BASED(CODE$)" );
     3921     7320        %FM$GRAN;
     3922     7324
     3923     7325        /****************************************/
     3924     7326
     3925     7327    1      CODE03$ = ADDR(NIL);
     3926     7328    1      IF DISK_OPTION.SCRUB.CREATOR
     3927     7329    2       THEN DO;
     3928     7330    2         CODE$ = FIT$;
     3929     7331    2         CALL XSF$LOCCODP( CODE$, 04 )
     3930     7332    3          WHENRETURN DO;
     3931     7333    3            CODE04.CREATOR.ACCT = ' ';
     3932     7334    3            CODE04.CREATOR.NAME = ' ';
     3933     7335    3            END;
     3934     7336    3          WHENALTRETURN DO;
     3935     7337    3            END;
     3936     7338    2         END;
     3937     7339
     3938     7340    1      IF DISK_OPTION.SCRUB.BACKUP
     3939     7341    2       THEN DO;
     3940     7342    2         CODE$ = FIT$;
     3941     7343    2         CALL XSF$LOCCODP( CODE$, 05 )
     3942     7344    3          WHENRETURN DO;
     3943     7345    3            CODE05 = '0'B;
     3944     7346    3            END;
     3945     7347    3          WHENALTRETURN DO;
     3946     7348    3            END;
     3947     7349    2         END;
     3948     7350
     3949     7351    1      IF DISK_OPTION.SCRUB.STOW
     3950     7352    2       THEN DO;
     3951     7353    2         IF CODE03$ = ADDR(NIL)
     3952     7354    3          THEN DO;
PL6.E3A0      #003=FLS$SCRUB File=FLM$MOVE.:E05TSI                               TUE 07/29/97 16:14 Page:592
     3953     7355    3            CODE03$ = FIT$;
     3954     7356    3            CALL XSF$LOCCODP( CODE03$, 03 )
     3955     7357    4             WHENALTRETURN DO;
     3956     7358    4               CODE03$ = ADDR(NIL);
     3957     7359    4               END;
     3958     7360    3            END;
     3959     7361    2         IF CODE03$ ~= ADDR(NIL)
     3960     7362    3          THEN DO;
     3961     7363    3            CODE03.DESC.ARCHIVE = '0'B;
     3962     7364    3            CODE03.DESC.QS = '0'B;
     3963     7365    3            CODE03.DESC.FETCH = '0'B;
     3964     7366    3            CODE03.DESC.ACTIVE = '0'B;
     3965     7367    3            END;
     3966     7368    2         CODE$ = FIT$;
     3967     7369    2         CALL XSF$LOCCODP( CODE$, 06 )
     3968     7370    3          WHENRETURN DO;
     3969     7371    3            CODE06 = '0'B;
     3970     7372    3            END;
     3971     7373    3          WHENALTRETURN DO;
     3972     7374    3            END;
     3973     7375    2         END;
     3974     7376
     3975     7377    1      RETURN;
     3976     7378
     3977     7379    1   END FLS$SCRUB;

PL6.E3A0      #003=FLS$SCRUB File=FLM$MOVE.:E05TSI                               TUE 07/29/97 16:14 Page:593
--  Include file information  --

   FM$GRAN.:E05TOU  is referenced.
   FM$FIT.:E05TOU  is referenced.
   B_MICROPS_C.:E05TOU  is referenced.
   FLB_SUBS_C.:E05TOU  is referenced.
   FLI_DATA_R.:E05TOU  cannot be made into a system file and is referenced.
   CP_6_C.:E05TOU  is referenced.
   CP_6.:E05TOU  cannot be made into a system file and is referenced.
      No diagnostics issued in procedure FLS$SCRUB.

   Procedure FLS$SCRUB requires 98 words for executable code.
   Procedure FLS$SCRUB requires 8 words of local(AUTO) storage.

    No errors detected in file FLM$MOVE.:E05TSI    .

PL6.E3A0      #003=FLS$SCRUB File=FLM$MOVE.:E05TSI                               TUE 07/29/97 16:14 Page:594

 Object Unit name= FLS$SCRUB                                  File name= FLM$MOVE.:E05TOU
 UTS= JUL 29 '97 16:14:39.24 TUE                              Compiler= PL-6/E31         Sev=      00
 SharedLib= :SHARED_SYSTEM                                    Alt SharedLib=


    ****  Control sections  ****

 Sect   Type Bound  Init  Size OctSiz  Section name(segment info)
    0   DCB   even  none     0      0  M$UC
    1   DCB   even  none     0      0  M$PRE_RET
    2   Data  even  none     6      6  FLS$SCRUB
    3   Proc  even  none    98    142  FLS$SCRUB
    4  RoData even  none     8     10  FLS$SCRUB

    ****  Entry defs  ****

                              Check   Calling
                             calling  sequence
  Sect OctLoc Primary Altret sequence   type   Parms  Name
     3      0   yes            yes      Std        1  FLS$SCRUB

  ****  Entry refs  ****

         Check        Calling
        calling       sequence
Altret sequence SRef   type   Args  Name
 yes     yes           Std       2 XSF$LOCCODP
                       nStd      0 X66_AUTO_1
                       Std       0 B_CONSPOOL_D
                       nStd      0 X66_ARET
PL6.E3A0      #003=FLS$SCRUB File=FLM$MOVE.:E05TSI                               TUE 07/29/97 16:14 Page:595

  ****  Data refs  ****

  Flags:  r = read only, s = secondary
Flgs Name                             Flgs Name                             Flgs Name
     M$UC                                  TAPE_DCBLIST$                         SNVECLIST$
     DPLIST$                               DPRESLIST$                            DISK_FILE_SPEC$
     SPECCHARS                             DISK_OPTION                           EFTWORD
     M$PRE_RET                             RET_CMDS_NAME                         B_VECTNIL

  ****  Segment refs  ****

  Flags:  r = read only, s = secondary
Flgs Name                             Flgs Name                             Flgs Name
     ISSID
PL6.E3A0      #003=FLS$SCRUB File=FLM$MOVE.:E05TSI                               TUE 07/29/97 16:14 Page:596


     3879        1        /*T***********************************************************/
     3880        2        /*T*                                                         */
     3881        3        /*T* Copyright (c) Bull HN Information Systems Inc., 1997    */
     3882        4        /*T*                                                         */
     3883        5        /*T***********************************************************/
     3884        6        FLS$SCRUB: PROC( FIT$ );

      6  3 000000   000000 700200 xent  FLS$SCRUB    TSX0  ! X66_AUTO_1
         3 000001   000010 000001                    ZERO    8,1

     3885        7        /*F*  NAME: FLS$SCRUB
     3886        8              PURPOSE: Performs scrub options.
     3887        9        */
     3888       10
     3889       11    1   DCL FIT$ PTR ALIGNED;
     3890       12
     3891       13        /***
     3892       14         *** Include
     3893       15         ***/
     3894       16
     3895       17        %INCLUDE CP_6;
     3896     5576        %INCLUDE FLI_DATA_R;
     3897     6990        %INCLUDE FM$FIT;
     3898     7211        %INCLUDE FM$GRAN;
     3899     7280
     3900     7281        /***
     3901     7282         *** Entry
     3902     7283         ***/
     3903     7284
     3904     7285    1   DCL XSF$LOCCODP ENTRY(2) ALTRET;
     3905     7286
     3906     7287        /***
     3907     7288         *** Auto
     3908     7289         ***/
     3909     7290
     3910     7291    1   DCL CODE$ PTR AUTO;
PL6.E3A0      #003=FLS$SCRUB File=FLM$MOVE.:E05TSI                               TUE 07/29/97 16:14 Page:597
     3911     7292    1   DCL CODE03$ PTR AUTO;
     3912     7293
     3913     7294        /***
     3914     7295         *** Based
     3915     7296         ***/
     3916     7297
     3917     7298        %CODE03( BASED="BASED(CODE03$)" );
     3918     7305        %CODE04( BASED="BASED(CODE$)" );
     3919     7313        %CODE05( BASED="BASED(CODE$)" );
     3920     7316        %CODE06( BASED="BASED(CODE$)" );
     3921     7320        %FM$GRAN;
     3922     7324
     3923     7325        /****************************************/
     3924     7326
     3925     7327    1      CODE03$ = ADDR(NIL);

   7327  3 000002   000001 236000 xsym               LDQ     B_VECTNIL+1
         3 000003   200005 756100                    STQ     CODE03$,,AUTO

     3926     7328    1      IF DISK_OPTION.SCRUB.CREATOR

   7328  3 000004   000002 236000 xsym               LDQ     DISK_OPTION+2
         3 000005   200000 316003                    CANQ    65536,DU
         3 000006   000034 600000 3                  TZE     s:7340

     3927     7329    2       THEN DO;

     3928     7330    2         CODE$ = FIT$;

   7330  3 000007   200003 470500                    LDP0    @FIT$,,AUTO
         3 000010   000000 236100                    LDQ     0,,PR0
         3 000011   200004 756100                    STQ     CODE$,,AUTO

     3929     7331    2         CALL XSF$LOCCODP( CODE$, 04 )

   7331  3 000012   000000 236000 4                  LDQ     0
         3 000013   200007 756100                    STQ     CODE03$+2,,AUTO
PL6.E3A0      #003=FLS$SCRUB File=FLM$MOVE.:E05TSI                               TUE 07/29/97 16:14 Page:598
         3 000014   200004 631500                    EPPR1   CODE$,,AUTO
         3 000015   200006 451500                    STP1    CODE03$+1,,AUTO
         3 000016   200006 630500                    EPPR0   CODE03$+1,,AUTO
         3 000017   000020 631400 xsym               EPPR1   B_VECTNIL+16
         3 000020   000000 701000 xent               TSX1    XSF$LOCCODP
         3 000021   000034 702000 3                  TSX2    s:7340

     3930     7332    3          WHENRETURN DO;

     3931     7333    3            CODE04.CREATOR.ACCT = ' ';

   7333  3 000022   200004 470500                    LDP0    CODE$,,AUTO
         3 000023   000035 235000 xsym               LDA     B_VECTNIL+29
         3 000024   000035 236000 xsym               LDQ     B_VECTNIL+29
         3 000025   000003 755100                    STA     3,,PR0
         3 000026   000004 756100                    STQ     4,,PR0

     3932     7334    3            CODE04.CREATOR.NAME = ' ';

   7334  3 000027   200004 470500                    LDP0    CODE$,,AUTO
         3 000030   040100 100400                    MLR     fill='040'O
         3 000031   000035 000001 xsym               ADSC9   B_VECTNIL+29             cn=0,n=1
         3 000032   000005 000014                    ADSC9   5,,PR0                   cn=0,n=12

     3933     7335    3            END;

   7335  3 000033   000034 710000 3                  TRA     s:7340

     3934     7336    3          WHENALTRETURN DO;

     3935     7337    3            END;

     3936     7338    2         END;

     3937     7339
     3938     7340    1      IF DISK_OPTION.SCRUB.BACKUP

PL6.E3A0      #003=FLS$SCRUB File=FLM$MOVE.:E05TSI                               TUE 07/29/97 16:14 Page:599
   7340  3 000034   000002 234000 xsym               SZN     DISK_OPTION+2
         3 000035   000056 605000 3                  TPL     s:7351

     3939     7341    2       THEN DO;

     3940     7342    2         CODE$ = FIT$;

   7342  3 000036   200003 470500                    LDP0    @FIT$,,AUTO
         3 000037   000000 236100                    LDQ     0,,PR0
         3 000040   200004 756100                    STQ     CODE$,,AUTO

     3941     7343    2         CALL XSF$LOCCODP( CODE$, 05 )

   7343  3 000041   000001 236000 4                  LDQ     1
         3 000042   200007 756100                    STQ     CODE03$+2,,AUTO
         3 000043   200004 631500                    EPPR1   CODE$,,AUTO
         3 000044   200006 451500                    STP1    CODE03$+1,,AUTO
         3 000045   200006 630500                    EPPR0   CODE03$+1,,AUTO
         3 000046   000020 631400 xsym               EPPR1   B_VECTNIL+16
         3 000047   000000 701000 xent               TSX1    XSF$LOCCODP
         3 000050   000056 702000 3                  TSX2    s:7351

     3942     7344    3          WHENRETURN DO;

     3943     7345    3            CODE05 = '0'B;

   7345  3 000051   200004 470500                    LDP0    CODE$,,AUTO
         3 000052   000100 100400                    MLR     fill='000'O
         3 000053   000002 000001 xsym               ADSC9   B_VECTNIL+2              cn=0,n=1
         3 000054   000000 000014                    ADSC9   0,,PR0                   cn=0,n=12

     3944     7346    3            END;

   7346  3 000055   000056 710000 3                  TRA     s:7351

     3945     7347    3          WHENALTRETURN DO;

PL6.E3A0      #003=FLS$SCRUB File=FLM$MOVE.:E05TSI                               TUE 07/29/97 16:14 Page:600
     3946     7348    3            END;

     3947     7349    2         END;

     3948     7350
     3949     7351    1      IF DISK_OPTION.SCRUB.STOW

   7351  3 000056   000002 236000 xsym               LDQ     DISK_OPTION+2
         3 000057   100000 316003                    CANQ    32768,DU
         3 000060   000141 600000 3                  TZE     s:7377

     3950     7352    2       THEN DO;

     3951     7353    2         IF CODE03$ = ADDR(NIL)

   7353  3 000061   200005 236100                    LDQ     CODE03$,,AUTO
         3 000062   000001 116000 xsym               CMPQ    B_VECTNIL+1
         3 000063   000102 601000 3                  TNZ     s:7361

     3952     7354    3          THEN DO;

     3953     7355    3            CODE03$ = FIT$;

   7355  3 000064   200003 470500                    LDP0    @FIT$,,AUTO
         3 000065   000000 236100                    LDQ     0,,PR0
         3 000066   200005 756100                    STQ     CODE03$,,AUTO

     3954     7356    3            CALL XSF$LOCCODP( CODE03$, 03 )

   7356  3 000067   000002 236000 4                  LDQ     2
         3 000070   200007 756100                    STQ     CODE03$+2,,AUTO
         3 000071   200005 631500                    EPPR1   CODE03$,,AUTO
         3 000072   200006 451500                    STP1    CODE03$+1,,AUTO
         3 000073   200006 630500                    EPPR0   CODE03$+1,,AUTO
         3 000074   000020 631400 xsym               EPPR1   B_VECTNIL+16
         3 000075   000000 701000 xent               TSX1    XSF$LOCCODP
         3 000076   000100 702000 3                  TSX2    s:7358
PL6.E3A0      #003=FLS$SCRUB File=FLM$MOVE.:E05TSI                               TUE 07/29/97 16:14 Page:601
         3 000077   000102 710000 3                  TRA     s:7361

     3955     7357    4             WHENALTRETURN DO;

     3956     7358    4               CODE03$ = ADDR(NIL);

   7358  3 000100   000001 236000 xsym               LDQ     B_VECTNIL+1
         3 000101   200005 756100                    STQ     CODE03$,,AUTO

     3957     7359    4               END;

     3958     7360    3            END;

     3959     7361    2         IF CODE03$ ~= ADDR(NIL)

   7361  3 000102   200005 236100                    LDQ     CODE03$,,AUTO
         3 000103   000001 116000 xsym               CMPQ    B_VECTNIL+1
         3 000104   000121 600000 3                  TZE     s:7368

     3960     7362    3          THEN DO;

     3961     7363    3            CODE03.DESC.ARCHIVE = '0'B;

   7363  3 000105   200005 470500                    LDP0    CODE03$,,AUTO
         3 000106   000003 236000 4                  LDQ     3
         3 000107   000001 356100                    ANSQ    1,,PR0

     3962     7364    3            CODE03.DESC.QS = '0'B;

   7364  3 000110   200005 470500                    LDP0    CODE03$,,AUTO
         3 000111   000004 236000 4                  LDQ     4
         3 000112   000001 356100                    ANSQ    1,,PR0

     3963     7365    3            CODE03.DESC.FETCH = '0'B;

   7365  3 000113   200005 470500                    LDP0    CODE03$,,AUTO
         3 000114   000005 236000 4                  LDQ     5
PL6.E3A0      #003=FLS$SCRUB File=FLM$MOVE.:E05TSI                               TUE 07/29/97 16:14 Page:602
         3 000115   000001 356100                    ANSQ    1,,PR0

     3964     7366    3            CODE03.DESC.ACTIVE = '0'B;

   7366  3 000116   200005 470500                    LDP0    CODE03$,,AUTO
         3 000117   000006 236000 4                  LDQ     6
         3 000120   000001 356100                    ANSQ    1,,PR0

     3965     7367    3            END;

     3966     7368    2         CODE$ = FIT$;

   7368  3 000121   200003 470500                    LDP0    @FIT$,,AUTO
         3 000122   000000 236100                    LDQ     0,,PR0
         3 000123   200004 756100                    STQ     CODE$,,AUTO

     3967     7369    2         CALL XSF$LOCCODP( CODE$, 06 )

   7369  3 000124   000007 236000 4                  LDQ     7
         3 000125   200007 756100                    STQ     CODE03$+2,,AUTO
         3 000126   200004 631500                    EPPR1   CODE$,,AUTO
         3 000127   200006 451500                    STP1    CODE03$+1,,AUTO
         3 000130   200006 630500                    EPPR0   CODE03$+1,,AUTO
         3 000131   000020 631400 xsym               EPPR1   B_VECTNIL+16
         3 000132   000000 701000 xent               TSX1    XSF$LOCCODP
         3 000133   000141 702000 3                  TSX2    s:7377

     3968     7370    3          WHENRETURN DO;

     3969     7371    3            CODE06 = '0'B;

   7371  3 000134   200004 470500                    LDP0    CODE$,,AUTO
         3 000135   000100 100400                    MLR     fill='000'O
         3 000136   000002 000001 xsym               ADSC9   B_VECTNIL+2              cn=0,n=1
         3 000137   000000 000014                    ADSC9   0,,PR0                   cn=0,n=12

     3970     7372    3            END;
PL6.E3A0      #003=FLS$SCRUB File=FLM$MOVE.:E05TSI                               TUE 07/29/97 16:14 Page:603

   7372  3 000140   000141 710000 3                  TRA     s:7377

     3971     7373    3          WHENALTRETURN DO;

     3972     7374    3            END;

     3973     7375    2         END;

     3974     7376
     3975     7377    1      RETURN;

   7377  3 000141   000000 702200 xent               TSX2  ! X66_ARET
     3976     7378
     3977     7379    1   END FLS$SCRUB;

PL6.E3A0      #003=FLS$SCRUB File=FLM$MOVE.:E05TSI                               TUE 07/29/97 16:14 Page:604
--  Include file information  --

   FM$GRAN.:E05TOU  is referenced.
   FM$FIT.:E05TOU  is referenced.
   B_MICROPS_C.:E05TOU  is referenced.
   FLB_SUBS_C.:E05TOU  is referenced.
   FLI_DATA_R.:E05TOU  cannot be made into a system file and is referenced.
   CP_6_C.:E05TOU  is referenced.
   CP_6.:E05TOU  cannot be made into a system file and is referenced.
      No diagnostics issued in procedure FLS$SCRUB.
PL6.E3A0      #003=FLS$SCRUB File=FLM$MOVE.:E05TSI                               TUE 07/29/97 16:14 Page:605

 **** Variables and constants ****

  ****  Auto variables  ****

  ****  Scalars and arrays  ****
OctLoc.c.b A Datatyp(siz) R M Lvl/name                 OctLoc.c.b A Datatyp(siz) R M Lvl/name

     3-0-0/w PTR         r     1 @FIT$                      4-0-0/w PTR         r     1 CODE$
     5-0-0/w PTR         r     1 CODE03$                   *0-0-0/w PTR         r     1 FIT$

  ****  SYMREF variables  ****

  ****  Scalars and arrays  ****
OctLoc.c.b A Datatyp(siz) R M Lvl/name                 OctLoc.c.b A Datatyp(siz) R M Lvl/name

     0-0-0/w PTR         r     1 DISK_FILE_SPEC$            0-0-0/w STRC(145)   r     1 DISK_OPTION
     0-0-0/w PTR         r     1 DPLIST$                    0-0-0/w PTR         r     1 DPRESLIST$
     0-0-0/c ASTR(9)     r     1 RET_CMDS_NAME              0-0-0/w PTR         r     1 SNVECLIST$
     0-0-0/w PTR         r     1 TAPE_DCBLIST$

  ****  BASED and DCB variables  ****

  ****  Scalars and arrays  ****
OctLoc.c.b A Datatyp(siz) R M Lvl/name                 OctLoc.c.b A Datatyp(siz) R M Lvl/name

     0-0-0/w STRC(324)   r     1 CODE03                     0-0-0/w STRC(396)   r     1 CODE04
     0-0-0/w STRC(108)   r     1 CODE05                     0-0-0/w STRC(108)   r     1 CODE06


   Procedure FLS$SCRUB requires 98 words for executable code.
   Procedure FLS$SCRUB requires 8 words of local(AUTO) storage.

    No errors detected in file FLM$MOVE.:E05TSI    .
PL6.E3A0      #003=FLS$SCRUB File=FLM$MOVE.:E05TSI                               TUE 07/29/97 16:14 Page:606
          *** CROSS REFERENCE LISTING ***
**     DENOTES     IDENTIFIER DEFINITION
<<                 IDENTIFIER'S VALUE SET
>>                 IDENTIFIER'S VALUE USED
<>                 IDENTIFIER SET AND/OR USED
--                 IDENTIFIER REFERENCED
PL6.E3A0      #003=FLS$SCRUB File=FLM$MOVE.:E05TSI                               TUE 07/29/97 16:14 Page:607
          MINI XREF LISTING

CODE$
      7291**DCL      7308--IMP-PTR  7314--IMP-PTR  7317--IMP-PTR  7330<<ASSIGN   7331<>CALL     7333>>ASSIGN
      7334>>ASSIGN   7342<<ASSIGN   7343<>CALL     7345>>ASSIGN   7368<<ASSIGN   7369<>CALL     7371>>ASSIGN
CODE03.DESC.ACTIVE
      7300**DCL      7366<<ASSIGN
CODE03.DESC.ARCHIVE
      7300**DCL      7363<<ASSIGN
CODE03.DESC.FETCH
      7301**DCL      7365<<ASSIGN
CODE03.DESC.QS
      7300**DCL      7364<<ASSIGN
CODE03$
      7292**DCL      7299--IMP-PTR  7327<<ASSIGN   7353>>IF       7355<<ASSIGN   7356<>CALL     7358<<ASSIGN
      7361>>IF       7363>>ASSIGN   7364>>ASSIGN   7365>>ASSIGN   7366>>ASSIGN
CODE04.CREATOR.ACCT
      7310**DCL      7333<<ASSIGN
CODE04.CREATOR.NAME
      7310**DCL      7334<<ASSIGN
CODE05
      7314**DCL      7345<<ASSIGN
CODE06
      7317**DCL      7371<<ASSIGN
CODE06.STOW.EFT
      7317**DCL      7318--REDEF
DISK_CLOSE.SN_
      6187**DCL      6187--REDEF
DISK_CLOSE.UTL_
      6188**DCL      6188--REDEF
DISK_CLOSE.V.EXPIRE#
      6202**DCL      6202--REDEF
DISK_CLOSE.V.TYPE#
      6200**DCL      6200--REDEF
PL6.E3A0      #003=FLS$SCRUB File=FLM$MOVE.:E05TSI                               TUE 07/29/97 16:14 Page:608
DISK_CLOSE.V.XTNSIZE#
      6197**DCL      6197--REDEF    6199--REDEF
DISK_FILE_SPEC.SPEC
      6552**DCL      6554--REDEF
DISK_FILE_SPEC.SPEC.START
      6553**DCL      6553--REDEF
DISK_FILE_SPEC.SPEC.STOP
      6554**DCL      6554--REDEF
DISK_FILE_SPEC$
      6551**DCL      6552--IMP-PTR
DISK_OPEN.ACSVEH_
      6052**DCL      6053--REDEF
DISK_OPEN.ALTKEYS_
      6058**DCL      6059--REDEF    6059--REDEF
DISK_OPEN.HDR_
      6057**DCL      6058--REDEF
DISK_OPEN.TAB_
      6056**DCL      6057--REDEF
DISK_OPEN.UHL_
      6050**DCL      6051--REDEF    6051--REDEF
DISK_OPEN.V.FSN#
      6090**DCL      6090--REDEF    6090--REDEF
DISK_OPEN.WSN_
      6056**DCL      6056--REDEF
DISK_OPTION.SCRUB.BACKUP
      6565**DCL      7340>>IF
DISK_OPTION.SCRUB.CREATOR
      6565**DCL      7328>>IF
DISK_OPTION.SCRUB.STOW
      6566**DCL      7351>>IF
DISK_READ.STATION_
      6114**DCL      6115--REDEF
DISK_READ.V.DVBYTE.REREAD#
      6126**DCL      6126--REDEF
DISK_READ.V.INDX#
      6124**DCL      6124--REDEF
PL6.E3A0      #003=FLS$SCRUB File=FLM$MOVE.:E05TSI                               TUE 07/29/97 16:14 Page:609
DISK_WRITE.STATION_
      6152**DCL      6152--REDEF
DISK_WRITE.V.DVBYTE.VFC#
      6159**DCL      6159--REDEF
DPLIST$
      6537**DCL      6549--IMP-PTR
DPRESLIST$
      6551**DCL      6551--IMP-PTR
EFTWORD
      6672**DCL      6672--REDEF
FIT$
        11**DCL         6--PROC     7330>>ASSIGN   7342>>ASSIGN   7355>>ASSIGN   7368>>ASSIGN
FPT_EXIT.V.STEPCC#
      5977**DCL      5977--REDEF
PRE_RET_CLOSE.SN_
      6915**DCL      6915--REDEF
PRE_RET_CLOSE.UTL_
      6916**DCL      6916--REDEF
PRE_RET_CLOSE.V.EXPIRE#
      6930**DCL      6930--REDEF
PRE_RET_CLOSE.V.TYPE#
      6928**DCL      6928--REDEF
PRE_RET_CLOSE.V.XTNSIZE#
      6925**DCL      6925--REDEF    6927--REDEF
PRE_RET_OPEN.ACSVEH_
      6850**DCL      6851--REDEF
PRE_RET_OPEN.ALTKEYS_
      6856**DCL      6857--REDEF    6857--REDEF
PRE_RET_OPEN.HDR_
      6855**DCL      6856--REDEF
PRE_RET_OPEN.TAB_
      6854**DCL      6855--REDEF
PRE_RET_OPEN.UHL_
      6848**DCL      6849--REDEF    6849--REDEF
PRE_RET_OPEN.V.FSN#
      6888**DCL      6888--REDEF    6888--REDEF
PL6.E3A0      #003=FLS$SCRUB File=FLM$MOVE.:E05TSI                               TUE 07/29/97 16:14 Page:610
PRE_RET_OPEN.WSN_
      6854**DCL      6854--REDEF
PRE_RET_READ.STATION_
      6705**DCL      6706--REDEF
PRE_RET_READ.V.DVBYTE.REREAD#
      6717**DCL      6717--REDEF
PRE_RET_READ.V.INDX#
      6715**DCL      6715--REDEF
PRE_RET_WRITE.STATION_
      6743**DCL      6743--REDEF
PRE_RET_WRITE.V.DVBYTE.VFC#
      6750**DCL      6750--REDEF
RET_CMDS_NAME.L#
      6959**DCL      6959--IMP-SIZ
SNVECLIST$
      6491**DCL      6491--IMP-PTR
SPEC.START
      6555**DCL      6556--REDEF
SPEC.STOP
      6556**DCL      6557--REDEF
SPECCHARS
      6555**DCL      6555--REDEF
TAPE_CLOSE.SN_
      6408**DCL      6408--REDEF
TAPE_CLOSE.UTL_
      6409**DCL      6409--REDEF
TAPE_CLOSE.V.EXPIRE#
      6423**DCL      6423--REDEF
TAPE_CLOSE.V.TYPE#
      6421**DCL      6421--REDEF
TAPE_CLOSE.V.XTNSIZE#
      6418**DCL      6418--REDEF    6420--REDEF
TAPE_DCBLIST$
      5964**DCL      5964--IMP-PTR
TAPE_OPEN.ACSVEH_
      6273**DCL      6274--REDEF
PL6.E3A0      #003=FLS$SCRUB File=FLM$MOVE.:E05TSI                               TUE 07/29/97 16:14 Page:611
TAPE_OPEN.ALTKEYS_
      6279**DCL      6280--REDEF    6280--REDEF
TAPE_OPEN.HDR_
      6278**DCL      6279--REDEF
TAPE_OPEN.TAB_
      6277**DCL      6278--REDEF
TAPE_OPEN.UHL_
      6271**DCL      6272--REDEF    6272--REDEF
TAPE_OPEN.V.FSN#
      6311**DCL      6311--REDEF    6311--REDEF
TAPE_OPEN.WSN_
      6277**DCL      6277--REDEF
TAPE_READ.STATION_
      6335**DCL      6336--REDEF
TAPE_READ.V.DVBYTE.REREAD#
      6347**DCL      6347--REDEF
TAPE_READ.V.INDX#
      6345**DCL      6345--REDEF
TAPE_WRITE.STATION_
      6373**DCL      6373--REDEF
TAPE_WRITE.V.DVBYTE.VFC#
      6380**DCL      6380--REDEF
TVECTOR.W2
      6504**DCL      6505--REDEF
XSF$LOCCODP
      7285**DCL-ENT  7331--CALL     7343--CALL     7356--CALL     7369--CALL
