VERSION E05

PL6.E3A0      #001=FLN_DATA_D File=FLN_DATA_D.:E05TSI                            TUE 07/29/97 16:16 Page:1
        1        1        /*M* FLN_DATA_D - Multi-DCB data */
        2        2        /*T***********************************************************/
        3        3        /*T*                                                         */
        4        4        /*T* Copyright (c) Bull HN Information Systems Inc., 1997    */
        5        5        /*T*                                                         */
        6        6        /*T***********************************************************/
        7        7        FLN_DATA_D: PROC NOAUTO;
        8        8
        9        9        /* ! ! */
       10       10        %INCLUDE CP_6;
       11     5569        /* !R! */
       12     5570    1   DCL M$DISK_IN DCB;
       13     5571
       14     5572    1   DCL LAST_DCB SBIN STATIC SYMDEF;        /* Internal number of last opened DCB */
       15     5573    1   DCL NEXT_OPEN_DCB SBIN STATIC SYMDEF; /* Internal number of next open DCB */
       16     5574    1   DCL LAST_OPEN_DCB SBIN STATIC SYMDEF;
       17     5575    1   DCL FIRST_FREE_DCB SBIN STATIC SYMDEF; /* Internal number of next unused DCB */
       18     5576
       19     5577    1   DCL ON_TO_NEXT_DP BIT(1) STATIC SYMDEF;
       20     5578    1   DCL ON_TO_NEXT_SPEC BIT(1) STATIC SYMDEF;
       21     5579    1   DCL ANY_FILES_IN_ACCT BIT(1) STATIC SYMDEF;
       22     5580    1   DCL SAVE_CODE14$ PTR STATIC SYMDEF;
       23     5581    1   DCL ARCHIVE$ PTR STATIC SYMDEF INIT(ADDR(NIL));
       24     5582
       25     5583    1   DCL DISK_SEARCH_COMPLETE BIT(1) STATIC SYMDEF;
       26     5584
       27     5585
       28     5586    1   DCL M$DISK00 DCB;
       29     5587    1   DCL M$DISK01 DCB;
       30     5588    1   DCL M$DISK02 DCB;
       31     5589    1   DCL M$DISK03 DCB;
       32     5590        %EQU MAX_NBR_DISK_DCBS = 4;
       33     5591
       34     5592    1   DCL 1 DISK_DCBLIST(0:%(MAX_NBR_DISK_DCBS-1)) DALIGNED STATIC SYMDEF,
       35     5593    1         2 DCB# SBIN INIT (DCBNUM(M$DISK00),DCBNUM(M$DISK01),DCBNUM(M$DISK02),DCBNUM(
              5593                  M$DISK03)),
       36     5594    1         2 DCB$ PTR INIT (ADDR(NIL)*0),
PL6.E3A0      #001=FLN_DATA_D File=FLN_DATA_D.:E05TSI                            TUE 07/29/97 16:16 Page:2
       37     5595    1         2 ERR,
       38     5596    1            3 * BIT(12) INIT ('0000'O*0),
       39     5597    1            3 * BIT(6) INIT ('00'O*0),
       40     5598    1            3 * BIT(1) INIT ('0'B*0),
       41     5599    1            3 CODE UBIN(14) UNAL INIT (0*0),
       42     5600    1            3 * BIT(3) INIT ('0'O*0),
       43     5601    1         2 NEXT_IX SBIN INIT (1,2,3,-1),
       44     5602    1         2 CODE14 BIT(36) INIT ('0'B*0),
       45     5603    1         2 FPARAM_,
       46     5604    1            3 * BIT(36) INIT ('0'B*0),
       47     5605    1            3 PTR$ PTR INIT (ADDR(NIL)*0);
       48     5606
       49     5607        %VLP_NAME( FPTN=DISK_NAME,
       50     5608                   LEN=31,
       51     5609                   STCLASS="STATIC SYMDEF" );
       52     5636
       53     5637        %VLP_NAME( FPTN=FROM_DISK_NAME,
       54     5638                   LEN=31,
       55     5639                   STCLASS="STATIC SYMDEF" );
       56     5666
       57     5667        %VLP_ACCT( FPTN=DISK_ACCT,
       58     5668                   STCLASS="STATIC SYMDEF" );
       59     5681
       60     5682        %VLP_ACCT( FPTN=FROM_DISK_ACCT,
       61     5683                   STCLASS = "STATIC SYMDEF" );
       62     5696
       63     5697        %VLP_SN( FPTN=DISK_SN,
       64     5698                 N=1,
       65     5699                 STCLASS="STATIC SYMDEF" );
       66     5712
       67     5713        %VLP_SN( FPTN=FROM_DISK_SN,
       68     5714                 N=1,
       69     5715                 STCLASS = "STATIC SYMDEF" );
       70     5728
       71     5729        %VLP_PASS( FPTN=DISK_PASS,
       72     5730                   STCLASS="STATIC SYMDEF");
       73     5743
PL6.E3A0      #001=FLN_DATA_D File=FLN_DATA_D.:E05TSI                            TUE 07/29/97 16:16 Page:3
       74     5744        %FPT_OPEN( FPTN=DISK_OPEN_NEXT,
       75     5745                   NAME=DISK_NAME,
       76     5746                   ACCT=DISK_ACCT,
       77     5747                   RES='DP',
       78     5748                   SN=DISK_SN,
       79     5749                   NXTF=YES,
       80     5750                   STCLASS="STATIC SYMDEF",
       81     5751                   ASN=FILE,
       82     5752                   ACS=BLOCK,
       83     5753                   FUN=IN );
       84     5862
       85     5863        %FPT_OPEN( FPTN=DISK_OPEN_ORDINARY, /* Only DCB# changes dynamically */
       86     5864                   ACS=BLOCK,
       87     5865                   FUN=IN,
       88     5866                   STCLASS="STATIC SYMDEF" );
       89     5975
       90     5976        %FPT_CLOSE( FPTN=DISK_CLOSE_NEXT,
       91     5977                    STCLASS="STATIC SYMDEF" );
       92     6019
       93     6020        %FPT_CLOSE( FPTN=DISK_CLOSE_ORDINARY, /* Only DCB# changes dynamically */
       94     6021                    STCLASS="STATIC SYMDEF" );
       95     6063
       96     6064        %FPT_OPEN( FPTN=READ_AD_OR_FD,
       97     6065                   RES='DP',
       98     6066                   SN=DISK_SN,
       99     6067                   ACCT=DISK_ACCT,
      100     6068                   NAME=ERASE,
      101     6069                   FUN=IN,
      102     6070                   ASN=DEVICE,
      103     6071                   SCRUB=YES,
      104     6072                   STCLASS="STATIC SYMDEF" );
      105     6181
      106     6182        %FPT_OPEN( FPTN = OPEN_BLOCK_FILE,
      107     6183                   DCB = M$DISK_IN,
      108     6184                   ASN = FILE,
      109     6185                   ACS = BLOCK,
      110     6186                   FUN = IN,
PL6.E3A0      #001=FLN_DATA_D File=FLN_DATA_D.:E05TSI                            TUE 07/29/97 16:16 Page:4
      111     6187                   NAME = FROM_DISK_NAME,
      112     6188                   ACCT = FROM_DISK_ACCT,
      113     6189                   SN = FROM_DISK_SN,
      114     6190                   RES = 'DP',
      115     6191                   STCLASS = STATIC );
      116     6300
      117     6301        %FPT_CLOSE (FPTN=CLOSE_BLOCK_FILE,
      118     6302                    DCB = M$DISK_IN,
      119     6303                    DISP = SAVE,
      120     6304                    STCLASS = STATIC);
      121     6346
      122     6347        %VLP_ACCT( FPTN=PREVIOUS_ACCT,
      123     6348                   STCLASS="STATIC SYMDEF" );
      124     6361
      125     6362        %VLP_ACCT( FPTN=DISK_ACCT_FIRST,
      126     6363                   STCLASS="STATIC SYMDEF" );
      127     6376
      128     6377        %VLP_ACCT( FPTN=DISK_ACCT_LAST,
      129     6378                   STCLASS="STATIC SYMDEF" );
      130     6391
      131     6392    1   END FLN_DATA_D;

PL6.E3A0      #001=FLN_DATA_D File=FLN_DATA_D.:E05TSI                            TUE 07/29/97 16:16 Page:5
--  Include file information  --

   CP_6_C.:E05TOU  is referenced.
   CP_6.:E05TOU  cannot be made into a system file and is referenced.
      No diagnostics issued in procedure FLN_DATA_D.

   No code generated for procedure FLN_DATA_D .
   Procedure FLN_DATA_D is declared NOAUTO and requires 402 words of local(STATIC) storage.

    No errors detected in file FLN_DATA_D.:E05TSI    .

PL6.E3A0      #001=FLN_DATA_D File=FLN_DATA_D.:E05TSI                            TUE 07/29/97 16:16 Page:6

 Object Unit name= FLN_DATA_D                                 File name= FLN_DATA_D.:E05TOU
 UTS= JUL 29 '97 16:16:18.44 TUE                              Compiler= PL-6/E31         Sev=      00
 SharedLib= :SHARED_SYSTEM                                    Alt SharedLib=


    ****  Control sections  ****

 Sect   Type Bound  Init  Size OctSiz  Section name(segment info)
    0   Data  even  none   402    622  FLN_DATA_D
    1   DCB   even  none     0      0  M$UC
    2   DCB   even  none     0      0  M$DISK_IN
    3   DCB   even  none     0      0  M$DISK00
    4   DCB   even  none     0      0  M$DISK01
    5   DCB   even  none     0      0  M$DISK02
    6   DCB   even  none     0      0  M$DISK03
    7   Proc  even  none     0      0  FLN_DATA_D

    ****  Entry defs  ****

                              Check   Calling
                             calling  sequence
  Sect OctLoc Primary Altret sequence   type   Parms  Name
     7      0   yes            yes     ~proc       0  FLN_DATA_D
PL6.E3A0      #001=FLN_DATA_D File=FLN_DATA_D.:E05TSI                            TUE 07/29/97 16:16 Page:7

  ****  Data defs  ****

 Sect OctLoc  Name                           Sect OctLoc  Name
    0      1  LAST_DCB                           0      2  NEXT_OPEN_DCB
    0      3  LAST_OPEN_DCB                      0      4  FIRST_FREE_DCB
    0      5  ON_TO_NEXT_DP                      0      6  ON_TO_NEXT_SPEC
    0      7  ANY_FILES_IN_ACCT                  0     10  SAVE_CODE14$
    0     11  ARCHIVE$                           0     12  DISK_SEARCH_COMPLETE
    0     14  DISK_DCBLIST                       0     54  DISK_NAME
    0     64  FROM_DISK_NAME                     0     74  DISK_ACCT
    0     76  FROM_DISK_ACCT                     0    100  DISK_SN
    0    104  FROM_DISK_SN                       0    110  DISK_PASS
    0    112  DISK_OPEN_NEXT                     0    204  DISK_OPEN_ORDINARY
    0    276  DISK_CLOSE_NEXT                    0    334  DISK_CLOSE_ORDINARY
    0    372  READ_AD_OR_FD                      0    614  PREVIOUS_ACCT
    0    616  DISK_ACCT_FIRST                    0    620  DISK_ACCT_LAST

  ****  Data refs  ****

  Flags:  r = read only, s = secondary
Flgs Name                             Flgs Name                             Flgs Name
     M$UC                                  M$DISK_IN                             M$DISK00
     M$DISK01                              M$DISK02                              M$DISK03

  ****  Segment refs  ****

  Flags:  r = read only, s = secondary
Flgs Name                             Flgs Name                             Flgs Name
     NULLSID                               ISSID
PL6.E3A0      #001=FLN_DATA_D File=FLN_DATA_D.:E05TSI                            TUE 07/29/97 16:16 Page:8

        1        1        /*M* FLN_DATA_D - Multi-DCB data */
        2        2        /*T***********************************************************/
        3        3        /*T*                                                         */
        4        4        /*T* Copyright (c) Bull HN Information Systems Inc., 1997    */
        5        5        /*T*                                                         */
        6        6        /*T***********************************************************/
        7        7        FLN_DATA_D: PROC NOAUTO;
        8        8
        9        9        /* ! ! */
       10       10        %INCLUDE CP_6;
       11     5569        /* !R! */
       12     5570    1   DCL M$DISK_IN DCB;
       13     5571
       14     5572    1   DCL LAST_DCB SBIN STATIC SYMDEF;        /* Internal number of last opened DCB */
       15     5573    1   DCL NEXT_OPEN_DCB SBIN STATIC SYMDEF; /* Internal number of next open DCB */
       16     5574    1   DCL LAST_OPEN_DCB SBIN STATIC SYMDEF;
       17     5575    1   DCL FIRST_FREE_DCB SBIN STATIC SYMDEF; /* Internal number of next unused DCB */
       18     5576
       19     5577    1   DCL ON_TO_NEXT_DP BIT(1) STATIC SYMDEF;
       20     5578    1   DCL ON_TO_NEXT_SPEC BIT(1) STATIC SYMDEF;
       21     5579    1   DCL ANY_FILES_IN_ACCT BIT(1) STATIC SYMDEF;
       22     5580    1   DCL SAVE_CODE14$ PTR STATIC SYMDEF;
       23     5581    1   DCL ARCHIVE$ PTR STATIC SYMDEF INIT(ADDR(NIL));
       24     5582
       25     5583    1   DCL DISK_SEARCH_COMPLETE BIT(1) STATIC SYMDEF;
       26     5584
       27     5585
       28     5586    1   DCL M$DISK00 DCB;
       29     5587    1   DCL M$DISK01 DCB;
       30     5588    1   DCL M$DISK02 DCB;
       31     5589    1   DCL M$DISK03 DCB;
       32     5590        %EQU MAX_NBR_DISK_DCBS = 4;
       33     5591
       34     5592    1   DCL 1 DISK_DCBLIST(0:%(MAX_NBR_DISK_DCBS-1)) DALIGNED STATIC SYMDEF,
       35     5593    1         2 DCB# SBIN INIT (DCBNUM(M$DISK00),DCBNUM(M$DISK01),DCBNUM(M$DISK02),DCBNUM(
              5593                  M$DISK03)),
       36     5594    1         2 DCB$ PTR INIT (ADDR(NIL)*0),
PL6.E3A0      #001=FLN_DATA_D File=FLN_DATA_D.:E05TSI                            TUE 07/29/97 16:16 Page:9
       37     5595    1         2 ERR,
       38     5596    1            3 * BIT(12) INIT ('0000'O*0),
       39     5597    1            3 * BIT(6) INIT ('00'O*0),
       40     5598    1            3 * BIT(1) INIT ('0'B*0),
       41     5599    1            3 CODE UBIN(14) UNAL INIT (0*0),
       42     5600    1            3 * BIT(3) INIT ('0'O*0),
       43     5601    1         2 NEXT_IX SBIN INIT (1,2,3,-1),
       44     5602    1         2 CODE14 BIT(36) INIT ('0'B*0),
       45     5603    1         2 FPARAM_,
       46     5604    1            3 * BIT(36) INIT ('0'B*0),
       47     5605    1            3 PTR$ PTR INIT (ADDR(NIL)*0);
       48     5606
       49     5607        %VLP_NAME( FPTN=DISK_NAME,
       50     5608                   LEN=31,
       51     5609                   STCLASS="STATIC SYMDEF" );
       52     5636
       53     5637        %VLP_NAME( FPTN=FROM_DISK_NAME,
       54     5638                   LEN=31,
       55     5639                   STCLASS="STATIC SYMDEF" );
       56     5666
       57     5667        %VLP_ACCT( FPTN=DISK_ACCT,
       58     5668                   STCLASS="STATIC SYMDEF" );
       59     5681
       60     5682        %VLP_ACCT( FPTN=FROM_DISK_ACCT,
       61     5683                   STCLASS = "STATIC SYMDEF" );
       62     5696
       63     5697        %VLP_SN( FPTN=DISK_SN,
       64     5698                 N=1,
       65     5699                 STCLASS="STATIC SYMDEF" );
       66     5712
       67     5713        %VLP_SN( FPTN=FROM_DISK_SN,
       68     5714                 N=1,
       69     5715                 STCLASS = "STATIC SYMDEF" );
       70     5728
       71     5729        %VLP_PASS( FPTN=DISK_PASS,
       72     5730                   STCLASS="STATIC SYMDEF");
       73     5743
PL6.E3A0      #001=FLN_DATA_D File=FLN_DATA_D.:E05TSI                            TUE 07/29/97 16:16 Page:10
       74     5744        %FPT_OPEN( FPTN=DISK_OPEN_NEXT,
       75     5745                   NAME=DISK_NAME,
       76     5746                   ACCT=DISK_ACCT,
       77     5747                   RES='DP',
       78     5748                   SN=DISK_SN,
       79     5749                   NXTF=YES,
       80     5750                   STCLASS="STATIC SYMDEF",
       81     5751                   ASN=FILE,
       82     5752                   ACS=BLOCK,
       83     5753                   FUN=IN );
       84     5862
       85     5863        %FPT_OPEN( FPTN=DISK_OPEN_ORDINARY, /* Only DCB# changes dynamically */
       86     5864                   ACS=BLOCK,
       87     5865                   FUN=IN,
       88     5866                   STCLASS="STATIC SYMDEF" );
       89     5975
       90     5976        %FPT_CLOSE( FPTN=DISK_CLOSE_NEXT,
       91     5977                    STCLASS="STATIC SYMDEF" );
       92     6019
       93     6020        %FPT_CLOSE( FPTN=DISK_CLOSE_ORDINARY, /* Only DCB# changes dynamically */
       94     6021                    STCLASS="STATIC SYMDEF" );
       95     6063
       96     6064        %FPT_OPEN( FPTN=READ_AD_OR_FD,
       97     6065                   RES='DP',
       98     6066                   SN=DISK_SN,
       99     6067                   ACCT=DISK_ACCT,
      100     6068                   NAME=ERASE,
      101     6069                   FUN=IN,
      102     6070                   ASN=DEVICE,
      103     6071                   SCRUB=YES,
      104     6072                   STCLASS="STATIC SYMDEF" );
      105     6181
      106     6182        %FPT_OPEN( FPTN = OPEN_BLOCK_FILE,
      107     6183                   DCB = M$DISK_IN,
      108     6184                   ASN = FILE,
      109     6185                   ACS = BLOCK,
      110     6186                   FUN = IN,
PL6.E3A0      #001=FLN_DATA_D File=FLN_DATA_D.:E05TSI                            TUE 07/29/97 16:16 Page:11
      111     6187                   NAME = FROM_DISK_NAME,
      112     6188                   ACCT = FROM_DISK_ACCT,
      113     6189                   SN = FROM_DISK_SN,
      114     6190                   RES = 'DP',
      115     6191                   STCLASS = STATIC );
      116     6300
      117     6301        %FPT_CLOSE (FPTN=CLOSE_BLOCK_FILE,
      118     6302                    DCB = M$DISK_IN,
      119     6303                    DISP = SAVE,
      120     6304                    STCLASS = STATIC);
      121     6346
      122     6347        %VLP_ACCT( FPTN=PREVIOUS_ACCT,
      123     6348                   STCLASS="STATIC SYMDEF" );
      124     6361
      125     6362        %VLP_ACCT( FPTN=DISK_ACCT_FIRST,
      126     6363                   STCLASS="STATIC SYMDEF" );
      127     6376
      128     6377        %VLP_ACCT( FPTN=DISK_ACCT_LAST,
      129     6378                   STCLASS="STATIC SYMDEF" );
      130     6391
      131     6392    1   END FLN_DATA_D;

PL6.E3A0      #001=FLN_DATA_D File=FLN_DATA_D.:E05TSI                            TUE 07/29/97 16:16 Page:12
--  Include file information  --

   CP_6_C.:E05TOU  is referenced.
   CP_6.:E05TOU  cannot be made into a system file and is referenced.
      No diagnostics issued in procedure FLN_DATA_D.
PL6.E3A0      #001=FLN_DATA_D File=FLN_DATA_D.:E05TSI                            TUE 07/29/97 16:16 Page:13

 **** Variables and constants ****

  ****  Section 000  Data  FLN_DATA_D

  ****  Scalars and arrays  ****
OctLoc.c.b A Datatyp(siz) R M Lvl/name                 OctLoc.c.b A Datatyp(siz) R M Lvl/name

   556-0-0/d STRC(1080)  r     1 CLOSE_BLOCK_FILE          74-0-0/c STRC(72)    r     1 DISK_ACCT
   276-0-0/d STRC(1080)  r     1 DISK_CLOSE_NEXT          334-0-0/d STRC(1080)  r     1 DISK_CLOSE_ORDINARY
    54-0-0/c STRC(288)   r     1 DISK_NAME                112-0-0/d STRC(2088)  r     1 DISK_OPEN_NEXT
   204-0-0/d STRC(2088)  r     1 DISK_OPEN_ORDINARY       100-0-0/d STRC(90)    r     1 DISK_SN
    76-0-0/c STRC(72)    r     1 FROM_DISK_ACCT            64-0-0/c STRC(288)   r     1 FROM_DISK_NAME
   104-0-0/d STRC(90)    r     1 FROM_DISK_SN             464-0-0/d STRC(2088)  r     1 OPEN_BLOCK_FILE
   372-0-0/d STRC(2088)  r     1 READ_AD_OR_FD

  ****  BASED and DCB variables  ****

  ****  Scalars and arrays  ****
OctLoc.c.b A Datatyp(siz) R M Lvl/name                 OctLoc.c.b A Datatyp(siz) R M Lvl/name

     0-0-0N  NULL        r     1 M$DISK00                   0-0-0N  NULL        r     1 M$DISK01
     0-0-0N  NULL        r     1 M$DISK02                   0-0-0N  NULL        r     1 M$DISK03
     0-0-0N  NULL        r     1 M$DISK_IN


   No code generated for procedure FLN_DATA_D .
   Procedure FLN_DATA_D is declared NOAUTO and requires 402 words of local(STATIC) storage.

    No errors detected in file FLN_DATA_D.:E05TSI    .
PL6.E3A0      #001=FLN_DATA_D File=FLN_DATA_D.:E05TSI                            TUE 07/29/97 16:16 Page:14
          *** CROSS REFERENCE LISTING ***
**     DENOTES     IDENTIFIER DEFINITION
<<                 IDENTIFIER'S VALUE SET
>>                 IDENTIFIER'S VALUE USED
<>                 IDENTIFIER SET AND/OR USED
--                 IDENTIFIER REFERENCED
PL6.E3A0      #001=FLN_DATA_D File=FLN_DATA_D.:E05TSI                            TUE 07/29/97 16:16 Page:15
          MINI XREF LISTING

CLOSE_BLOCK_FILE.SN_
      6327**DCL      6327--REDEF
CLOSE_BLOCK_FILE.UTL_
      6328**DCL      6328--REDEF
CLOSE_BLOCK_FILE.V
      6332**DCL      6327--DCLINIT
CLOSE_BLOCK_FILE.V.EXPIRE#
      6342**DCL      6342--REDEF
CLOSE_BLOCK_FILE.V.TYPE#
      6340**DCL      6340--REDEF
CLOSE_BLOCK_FILE.V.XTNSIZE#
      6337**DCL      6337--REDEF    6339--REDEF
DISK_ACCT
      5679**DCL      5823--DCLINIT  6142--DCLINIT
DISK_CLOSE_NEXT.SN_
      6000**DCL      6000--REDEF
DISK_CLOSE_NEXT.UTL_
      6001**DCL      6001--REDEF
DISK_CLOSE_NEXT.V
      6005**DCL      6000--DCLINIT
DISK_CLOSE_NEXT.V.EXPIRE#
      6015**DCL      6015--REDEF
DISK_CLOSE_NEXT.V.TYPE#
      6013**DCL      6013--REDEF
DISK_CLOSE_NEXT.V.XTNSIZE#
      6010**DCL      6010--REDEF    6012--REDEF
DISK_CLOSE_ORDINARY.SN_
      6044**DCL      6044--REDEF
DISK_CLOSE_ORDINARY.UTL_
      6045**DCL      6045--REDEF
DISK_CLOSE_ORDINARY.V
      6049**DCL      6044--DCLINIT
PL6.E3A0      #001=FLN_DATA_D File=FLN_DATA_D.:E05TSI                            TUE 07/29/97 16:16 Page:16
DISK_CLOSE_ORDINARY.V.EXPIRE#
      6059**DCL      6059--REDEF
DISK_CLOSE_ORDINARY.V.TYPE#
      6057**DCL      6057--REDEF
DISK_CLOSE_ORDINARY.V.XTNSIZE#
      6054**DCL      6054--REDEF    6056--REDEF
DISK_NAME
      5634**DCL      5819--DCLINIT
DISK_OPEN_NEXT.ACSVEH_
      5820**DCL      5821--REDEF
DISK_OPEN_NEXT.ALTKEYS_
      5826**DCL      5827--REDEF    5827--REDEF
DISK_OPEN_NEXT.HDR_
      5825**DCL      5826--REDEF
DISK_OPEN_NEXT.TAB_
      5824**DCL      5825--REDEF
DISK_OPEN_NEXT.UHL_
      5818**DCL      5819--REDEF    5819--REDEF
DISK_OPEN_NEXT.V
      5827**DCL      5818--DCLINIT
DISK_OPEN_NEXT.V.FSN#
      5858**DCL      5858--REDEF    5858--REDEF
DISK_OPEN_NEXT.WSN_
      5824**DCL      5824--REDEF
DISK_OPEN_ORDINARY.ACSVEH_
      5933**DCL      5934--REDEF
DISK_OPEN_ORDINARY.ALTKEYS_
      5939**DCL      5940--REDEF    5940--REDEF
DISK_OPEN_ORDINARY.HDR_
      5938**DCL      5939--REDEF
DISK_OPEN_ORDINARY.TAB_
      5937**DCL      5938--REDEF
DISK_OPEN_ORDINARY.UHL_
      5931**DCL      5932--REDEF    5932--REDEF
DISK_OPEN_ORDINARY.V
      5940**DCL      5931--DCLINIT
PL6.E3A0      #001=FLN_DATA_D File=FLN_DATA_D.:E05TSI                            TUE 07/29/97 16:16 Page:17
DISK_OPEN_ORDINARY.V.FSN#
      5971**DCL      5971--REDEF    5971--REDEF
DISK_OPEN_ORDINARY.WSN_
      5937**DCL      5937--REDEF
DISK_SN
      5710**DCL      5818--DCLINIT  6137--DCLINIT
FROM_DISK_ACCT
      5694**DCL      6261--DCLINIT
FROM_DISK_NAME
      5664**DCL      6257--DCLINIT
FROM_DISK_SN
      5726**DCL      6256--DCLINIT
OPEN_BLOCK_FILE.ACSVEH_
      6258**DCL      6259--REDEF
OPEN_BLOCK_FILE.ALTKEYS_
      6264**DCL      6265--REDEF    6265--REDEF
OPEN_BLOCK_FILE.HDR_
      6263**DCL      6264--REDEF
OPEN_BLOCK_FILE.TAB_
      6262**DCL      6263--REDEF
OPEN_BLOCK_FILE.UHL_
      6256**DCL      6257--REDEF    6257--REDEF
OPEN_BLOCK_FILE.V
      6265**DCL      6256--DCLINIT
OPEN_BLOCK_FILE.V.FSN#
      6296**DCL      6296--REDEF    6296--REDEF
OPEN_BLOCK_FILE.WSN_
      6262**DCL      6262--REDEF
READ_AD_OR_FD.ACSVEH_
      6139**DCL      6140--REDEF
READ_AD_OR_FD.ALTKEYS_
      6145**DCL      6146--REDEF    6146--REDEF
READ_AD_OR_FD.HDR_
      6144**DCL      6145--REDEF
READ_AD_OR_FD.TAB_
      6143**DCL      6144--REDEF
PL6.E3A0      #001=FLN_DATA_D File=FLN_DATA_D.:E05TSI                            TUE 07/29/97 16:16 Page:18
READ_AD_OR_FD.UHL_
      6137**DCL      6138--REDEF    6138--REDEF
READ_AD_OR_FD.V
      6146**DCL      6137--DCLINIT
READ_AD_OR_FD.V.FSN#
      6177**DCL      6177--REDEF    6177--REDEF
READ_AD_OR_FD.WSN_
      6143**DCL      6143--REDEF
