PL6.E3A0      #003=FLI$ERROR_SUMMARY File=FLP$PRINTER.:E05TSI                    TUE 07/29/97 16:19 Page:160
      969        1        /*T***********************************************************/
      970        2        /*T*                                                         */
      971        3        /*T* Copyright (c) Bull HN Information Systems Inc., 1997    */
      972        4        /*T*                                                         */
      973        5        /*T***********************************************************/
      974        6        FLI$ERROR_SUMMARY: PROC( LIST_ERRORS );
      975        7        /*F* NAME: FLI$ERROR_SUMMARY
      976        8             PURPOSE: Summarizes any errors that have occurred.
      977        9        */
      978       10
      979       11    1   DCL LIST_ERRORS BIT(1) ALIGNED;         /* Indicates list error file          */
      980       12
      981       13        /***
      982       14         *** INCLUDE
      983       15         ***/
      984       16
      985       17        %INCLUDE B_ERRORS_C;
      986     1144        %INCLUDE CP_6;
      987     6703        %INCLUDE FLI_DATA_R;
      988     8117
      989     8118        /***
      990     8119         *** ENTRY
      991     8120         ***/
      992     8121
      993     8122    1   DCL FLI$RPT_ERR ENTRY(5);
      994     8123
      995     8124        /***
      996     8125         *** DCB
      997     8126         ***/
      998     8127
      999     8128    1   DCL M$LO DCB;
     1000     8129    1   DCL M$EFT_ERRORS DCB;
     1001     8130
     1002     8131        /***
     1003     8132         *** STATIC
     1004     8133         ***/
     1005     8134
PL6.E3A0      #003=FLI$ERROR_SUMMARY File=FLP$PRINTER.:E05TSI                    TUE 07/29/97 16:19 Page:161
     1006     8135    1   DCL M$EFT_ERRORS$ PTR STATIC;
     1007     8136    1   DCL 1 ERROR_LINE STATIC,
     1008     8137    1         2 PAGE CHAR(4),
     1009     8138    1         2 * CHAR(1) INIT(' '),
     1010     8139    1         2 LINE CHAR(4),
     1011     8140    1         2 * CHAR(2) INIT(' '),
     1012     8141    1         2 MESSAGE CHAR(120);
     1013     8142
     1014     8143        /***
     1015     8144         *** AUTO
     1016     8145         ***/
     1017     8146
     1018     8147    1   DCL 1 EFT_ERROR_RECORD AUTO,
     1019     8148    1         2 CHARS CHAR(120),
     1020     8149    1         2 C(0:119) REDEF CHARS CHAR(1) CALIGNED,
     1021     8150    1         2 VLR_LINES REDEF CHARS,
     1022     8151    1           3 RLINES# UBIN HALF HALIGNED,
     1023     8152    1           3 PAGE# UBIN HALF HALIGNED,
     1024     8153    1           3 * UBIN WORD,
     1025     8154    1           3 * CHAR(112);
     1026     8155    1   DCL NBR_BLANKS SBIN AUTO;
     1027     8156
     1028     8157        /***
     1029     8158         *** CONSTANT
     1030     8159         ***/
     1031     8160
     1032     8161    1   DCL BLANK CHAR(1) CONSTANT INIT(' ');
     1033     8162    1   DCL NO_ERRORS CHAR(0) CONSTANT INIT('No errors');
     1034     8163
     1035     8164        /***
     1036     8165         *** BASED
     1037     8166         ***/
     1038     8167
     1039     8168        %B$TCB(STCLASS="BASED(B$TCB$)");
     1040     8171        %B$ALT;
     1041     8179        %F$DCB(BASED="BASED(M$EFT_ERRORS$)");
     1042     8236
PL6.E3A0      #003=FLI$ERROR_SUMMARY File=FLP$PRINTER.:E05TSI                    TUE 07/29/97 16:19 Page:162
     1043     8237        /***
     1044     8238         *** FPT
     1045     8239         ***/
     1046     8240
     1047     8241        %FPT_OPEN( FPTN=OPEN_EFT_ERRORS,
     1048     8242                   DCB=M$EFT_ERRORS,
     1049     8243                   FUN=IN,
     1050     8244                   ASN=FILE,
     1051     8245                   NAME=STAR_EFT_ERRORS );
     1052     8354
     1053     8355        %VLP_NAME( FPTN=STAR_EFT_ERRORS,
     1054     8356                   NAME='*EFT_ERRORS' );
     1055     8383
     1056     8384        %FPT_READ( FPTN=READ_EFT_ERRORS,
     1057     8385                   DCB=M$EFT_ERRORS );
     1058     8424
     1059     8425        %FPT_PFIL( FPTN=BOF_EFT_ERRORS,
     1060     8426                   DCB=M$EFT_ERRORS,
     1061     8427                   BOF=YES );
     1062     8442
     1063     8443        %FPT_CLOSE( FPTN=CLOSE_EFT_ERRORS,
     1064     8444                    DCB=M$EFT_ERRORS,
     1065     8445                    DISP=SAVE );
     1066     8487
     1067     8488        %FPT_WRITE( FPTN=WRITE_LO,
     1068     8489                    DCB=M$LO );
     1069     8520
     1070     8521        %FPT_DEVICE( FPTN=PAGE_LO,
     1071     8522                     DCB=M$LO,
     1072     8523                     PAGE=YES,
     1073     8524                     HDR=NO_HDR );
     1074     8542
     1075     8543        %VLP_HDR( FPTN=NO_HDR,
     1076     8544                  COUNT=76,
     1077     8545                  TITLE= ' ' );
     1078     8561
     1079     8562        %FPT_DEVICE( FPTN=PAGE_LO_HDR,
PL6.E3A0      #003=FLI$ERROR_SUMMARY File=FLP$PRINTER.:E05TSI                    TUE 07/29/97 16:19 Page:163
     1080     8563                     DCB=M$LO,
     1081     8564                     PAGE=YES,
     1082     8565                     HDR=LO_HEADER );
     1083     8583
     1084     8584        %VLP_HDR( FPTN=LO_HEADER,
     1085     8585                  COUNT=76,
     1086     8586                  TITLE='                         Error Summary' );
     1087     8602
     1088     8603        %VLP_HDR( FPTN=LO_HEADER_2,
     1089     8604                  COUNT=76,
     1090     8605                  TITLE='Page Line  Error Message' );
     1091     8621
     1092     8622        %FPT_DEVICE( FPTN=SET_LO_HEADER_2,
     1093     8623                     DCB=M$LO,
     1094     8624                     HDR=LO_HEADER_2 );
     1095     8642
     1096     8643        %VLR_LINES;
     1097     8657
     1098     8658        /****************************************/
     1099     8659
     1100     8660        /***
     1101     8661         *** If error summary file isn't open, there aren't any errors.
     1102     8662         ***/
     1103     8663
     1104     8664    1      M$EFT_ERRORS$ = DCBADDR(DCBNUM(M$EFT_ERRORS));
     1105     8665    1      IF NOT F$DCB.FCD#
     1106     8666    1       THEN IF ADDR(LIST_ERRORS) = ADDR(NIL)
     1107     8667    1          THEN RETURN;
     1108     8668    2          ELSE DO;
     1109     8669    2            CALL M$OPEN( OPEN_EFT_ERRORS )
     1110     8670    3             WHENALTRETURN DO;
     1111     8671    3               IF B$TCB.ALT$->B$ALT.ERR.CODE = %E$NOFILE
     1112     8672    4                THEN DO;
     1113     8673    4                  WRITE_LO.BUF_ = VECTOR(NO_ERRORS);
     1114     8674    4                  CALL M$WRITE( WRITE_LO ) ALTRET( JUSTXXX );
     1115     8675    4                  END;
     1116     8676    3                ELSE CALL FLI$RPT_ERR;
PL6.E3A0      #003=FLI$ERROR_SUMMARY File=FLP$PRINTER.:E05TSI                    TUE 07/29/97 16:19 Page:164
     1117     8677    3               RETURN;
     1118     8678    3               END;
     1119     8679    2            END;
     1120     8680
     1121     8681    1      IF ADDR(LIST_ERRORS) = ADDR(NIL)
     1122     8682    2       THEN DO;
     1123     8683    2         IF DCBADDR(DCBNUM(M$LO))->F$DCB.DDEV.UCOUT#
     1124     8684    2           OR NOT DCBADDR(DCBNUM(M$LO))->F$DCB.DDEV.LP#
     1125     8685    3          THEN DO;          /* No error summary for terminals unless asked for   */
     1126     8686    3            IF F$DCB.FCD#
     1127     8687    3             THEN CALL M$CLOSE( CLOSE_EFT_ERRORS )
     1128     8688    4                WHENALTRETURN DO;
     1129     8689    4                  CALL FLI$RPT_ERR;
     1130     8690    4                  END;
     1131     8691    3            RETURN;
     1132     8692    3            END;
     1133     8693    2         END;
     1134     8694
     1135     8695        /***
     1136     8696         *** Ready error summary file and print page headings.
     1137     8697         ***/
     1138     8698
     1139     8699    1      CALL M$PFIL( BOF_EFT_ERRORS ) ALTRET(JUSTXXX);
     1140     8700    1      CALL M$DEVICE( PAGE_LO_HDR ) ALTRET(JUSTXXX);
     1141     8701    1      WRITE_LO.BUF_ = VECTOR(BLANK);
     1142     8702    1      CALL M$WRITE( WRITE_LO ) ALTRET( JUSTXXX );
     1143     8703
     1144     8704    1      ERROR_LINE.PAGE = 'Page';
     1145     8705    1      ERROR_LINE.LINE = 'Line';
     1146     8706    1      ERROR_LINE.MESSAGE = 'Error Message';
     1147     8707    1      WRITE_LO.BUF_ = VECTOR(ERROR_LINE);
     1148     8708    1      CALL M$WRITE( WRITE_LO ) ALTRET( JUSTXXX );
     1149     8709
     1150     8710    1      CALL M$DEVICE( SET_LO_HEADER_2 ) ALTRET( JUSTXXX );
     1151     8711
     1152     8712    1      READ_EFT_ERRORS.BUF_ = VECTOR(EFT_ERROR_RECORD);
     1153     8713
PL6.E3A0      #003=FLI$ERROR_SUMMARY File=FLP$PRINTER.:E05TSI                    TUE 07/29/97 16:19 Page:165
     1154     8714        /***
     1155     8715         *** Format and print summary file.
     1156     8716         ***/
     1157     8717
     1158     8718    2      DO WHILE('1'B);
     1159     8719    2         CALL M$READ( READ_EFT_ERRORS ) ALTRET( CHKERR );
     1160     8720    2         IF F$DCB.ARS# = LENGTHC(VLR_LINES)
     1161     8721    2           AND EFT_ERROR_RECORD.VLR_LINES.PAGE# <= BITBIN('040040'O)
     1162     8722    3          THEN DO;                         /* New VLR_LINES                      */
     1163     8723    3            IF EFT_ERROR_RECORD.VLR_LINES.PAGE# = 0
     1164     8724    4             THEN DO;                 /* Output to terminal or non-UR device     */
     1165     8725    4               ERROR_LINE.PAGE = ' ';
     1166     8726    4               ERROR_LINE.LINE = ' ';
     1167     8727    4               END;
     1168     8728    4             ELSE DO;
     1169     8729    4               CALL BINCHAR( ERROR_LINE.PAGE, EFT_ERROR_RECORD.VLR_LINES.PAGE# );
     1170     8730    4               CALL EDITCHAR( ERROR_LINE.PAGE, , , NO_4_LEADING_ZEROS, ERROR_LINE.PAGE
              8730                        );
     1171     8731    4               CALL BINCHAR( ERROR_LINE.LINE, EFT_ERROR_RECORD.VLR_LINES.RLINES# );
     1172     8732    4               CALL EDITCHAR( ERROR_LINE.LINE, , , NO_4_LEADING_ZEROS, ERROR_LINE.LINE
              8732                        );
     1173     8733    4               END;
     1174     8734    3            END;
     1175     8735    3          ELSE DO;
     1176     8736    3            NBR_BLANKS = 0;
     1177     8737    4            DO WHILE( NBR_BLANKS < F$DCB.ARS# - 1 AND EFT_ERROR_RECORD.C(NBR_BLANKS) =
              8737                     ' ' );
     1178     8738    4               NBR_BLANKS = NBR_BLANKS + 1;
     1179     8739    4               END;
     1180     8740    3            ERROR_LINE.MESSAGE = SUBSTR( EFT_ERROR_RECORD.CHARS, NBR_BLANKS, F$DCB.ARS#
              8740                     - NBR_BLANKS );
     1181     8741    3            WRITE_LO.BUF_.BOUND = LENGTHV(ERROR_LINE) + F$DCB.ARS# - LENGTHC(ERROR_LINE
              8741                     .MESSAGE) - NBR_BLANKS;
     1182     8742    3            CALL M$WRITE( WRITE_LO ) ALTRET( JUSTXXX );
     1183     8743    3            ERROR_LINE.PAGE = ' ';
     1184     8744    3            ERROR_LINE.LINE = ' ';
     1185     8745    3            END;
PL6.E3A0      #003=FLI$ERROR_SUMMARY File=FLP$PRINTER.:E05TSI                    TUE 07/29/97 16:19 Page:166
     1186     8746                                                /* format and print                   */
     1187     8747    2         END;
     1188     8748
     1189     8749    1   CHKERR: ;
     1190     8750    1      IF B$TCB.ALT$->B$ALT.ERR.CODE ~= %E$EOF
     1191     8751    2       THEN DO;
     1192     8752    2   JUSTXXX: ;
     1193     8753    2         CALL FLI$RPT_ERR;
     1194     8754    2         CALL M$CLOSE( CLOSE_EFT_ERRORS )
     1195     8755    3          WHENALTRETURN DO;
     1196     8756    3            END;
     1197     8757    2         CALL M$XXX;
     1198     8758    2         END;
     1199     8759    1      CALL M$CLOSE( CLOSE_EFT_ERRORS ) ALTRET( JUSTXXX );
     1200     8760    1      CALL M$DEVICE( PAGE_LO ) ALTRET( JUSTXXX );
     1201     8761    1      RETURN;
     1202     8762
     1203     8763    1   END FLI$ERROR_SUMMARY;

PL6.E3A0      #003=FLI$ERROR_SUMMARY File=FLP$PRINTER.:E05TSI                    TUE 07/29/97 16:19 Page:167
--  Include file information  --

   B_MICROPS_C.:E05TOU  is referenced.
   FLB_SUBS_C.:E05TOU  is referenced.
   FLI_DATA_R.:E05TOU  cannot be made into a system file and is referenced.
   CP_6_C.:E05TOU  is referenced.
   CP_6.:E05TOU  cannot be made into a system file and is referenced.
   B_ERRORS_C.:E05TOU  is referenced.
      No diagnostics issued in procedure FLI$ERROR_SUMMARY.

   Procedure FLI$ERROR_SUMMARY requires 206 words for executable code.
   Procedure FLI$ERROR_SUMMARY requires 38 words of local(AUTO) storage.

    No errors detected in file FLP$PRINTER.:E05TSI    .

PL6.E3A0      #003=FLI$ERROR_SUMMARY File=FLP$PRINTER.:E05TSI                    TUE 07/29/97 16:19 Page:168

 Object Unit name= FLI$ERROR_SUMMARY                          File name= FLP$PRINTER.:E05TOU
 UTS= JUL 29 '97 16:19:58.08 TUE                              Compiler= PL-6/E31         Sev=      00
 SharedLib= :SHARED_SYSTEM                                    Alt SharedLib=


    ****  Control sections  ****

 Sect   Type Bound  Init  Size OctSiz  Section name(segment info)
    0   DCB   even  none     0      0  M$UC
    1   DCB   even  none     0      0  M$PRE_RET
    2   Data  even  none   216    330  FLI$ERROR_SUMMARY
    3   DCB   even  none     0      0  M$LO
    4   DCB   even  none     0      0  M$EFT_ERRORS
    5  RoData even  UTS     10     12  FLI$ERROR_SUMMARY
    6   Proc  even  none   206    316  FLI$ERROR_SUMMARY
    7  RoData even  none     9     11  FLI$ERROR_SUMMARY

    ****  Entry defs  ****

                              Check   Calling
                             calling  sequence
  Sect OctLoc Primary Altret sequence   type   Parms  Name
     6      0   yes            yes      Std        1  FLI$ERROR_SUMMARY

  ****  Entry refs  ****

         Check        Calling
        calling       sequence
Altret sequence SRef   type   Args  Name
         yes           Std       5 FLI$RPT_ERR
                       nStd      0 X66_AUTO_1
                       Std       0 B_CONSPOOL_D
                       nStd      0 X66_ARET
PL6.E3A0      #003=FLI$ERROR_SUMMARY File=FLP$PRINTER.:E05TSI                    TUE 07/29/97 16:19 Page:169

  ****  Data refs  ****

  Flags:  r = read only, s = secondary
Flgs Name                             Flgs Name                             Flgs Name
     M$UC                                  TAPE_DCBLIST$                         SNVECLIST$
     B$TCB$                                DPLIST$                               DPRESLIST$
     DISK_FILE_SPEC$                       SPECCHARS                             EFTWORD
r    NO_4_LEADING_ZEROS                    M$PRE_RET                             RET_CMDS_NAME
     M$LO                                  M$EFT_ERRORS                          B_VECTNIL

  ****  Segment refs  ****

  Flags:  r = read only, s = secondary
Flgs Name                             Flgs Name                             Flgs Name
     ISSID                                 NULLSID                               ROSID
PL6.E3A0      #003=FLI$ERROR_SUMMARY File=FLP$PRINTER.:E05TSI                    TUE 07/29/97 16:19 Page:170


      969        1        /*T***********************************************************/
      970        2        /*T*                                                         */
      971        3        /*T* Copyright (c) Bull HN Information Systems Inc., 1997    */
      972        4        /*T*                                                         */
      973        5        /*T***********************************************************/
      974        6        FLI$ERROR_SUMMARY: PROC( LIST_ERRORS );

      6  6 000000   000000 700200 xent  FLI$ERROR_S* TSX0  ! X66_AUTO_1
         6 000001   000046 000001                    ZERO    38,1

      975        7        /*F* NAME: FLI$ERROR_SUMMARY
      976        8             PURPOSE: Summarizes any errors that have occurred.
      977        9        */
      978       10
      979       11    1   DCL LIST_ERRORS BIT(1) ALIGNED;         /* Indicates list error file          */
      980       12
      981       13        /***
      982       14         *** INCLUDE
      983       15         ***/
      984       16
      985       17        %INCLUDE B_ERRORS_C;
      986     1144        %INCLUDE CP_6;
      987     6703        %INCLUDE FLI_DATA_R;
      988     8117
      989     8118        /***
      990     8119         *** ENTRY
      991     8120         ***/
      992     8121
      993     8122    1   DCL FLI$RPT_ERR ENTRY(5);
      994     8123
      995     8124        /***
      996     8125         *** DCB
      997     8126         ***/
      998     8127
      999     8128    1   DCL M$LO DCB;
     1000     8129    1   DCL M$EFT_ERRORS DCB;
PL6.E3A0      #003=FLI$ERROR_SUMMARY File=FLP$PRINTER.:E05TSI                    TUE 07/29/97 16:19 Page:171
     1001     8130
     1002     8131        /***
     1003     8132         *** STATIC
     1004     8133         ***/
     1005     8134
     1006     8135    1   DCL M$EFT_ERRORS$ PTR STATIC;
     1007     8136    1   DCL 1 ERROR_LINE STATIC,
     1008     8137    1         2 PAGE CHAR(4),
     1009     8138    1         2 * CHAR(1) INIT(' '),
     1010     8139    1         2 LINE CHAR(4),
     1011     8140    1         2 * CHAR(2) INIT(' '),
     1012     8141    1         2 MESSAGE CHAR(120);
     1013     8142
     1014     8143        /***
     1015     8144         *** AUTO
     1016     8145         ***/
     1017     8146
     1018     8147    1   DCL 1 EFT_ERROR_RECORD AUTO,
     1019     8148    1         2 CHARS CHAR(120),
     1020     8149    1         2 C(0:119) REDEF CHARS CHAR(1) CALIGNED,
     1021     8150    1         2 VLR_LINES REDEF CHARS,
     1022     8151    1           3 RLINES# UBIN HALF HALIGNED,
     1023     8152    1           3 PAGE# UBIN HALF HALIGNED,
     1024     8153    1           3 * UBIN WORD,
     1025     8154    1           3 * CHAR(112);
     1026     8155    1   DCL NBR_BLANKS SBIN AUTO;
     1027     8156
     1028     8157        /***
     1029     8158         *** CONSTANT
     1030     8159         ***/
     1031     8160
     1032     8161    1   DCL BLANK CHAR(1) CONSTANT INIT(' ');
     1033     8162    1   DCL NO_ERRORS CHAR(0) CONSTANT INIT('No errors');
     1034     8163
     1035     8164        /***
     1036     8165         *** BASED
     1037     8166         ***/
PL6.E3A0      #003=FLI$ERROR_SUMMARY File=FLP$PRINTER.:E05TSI                    TUE 07/29/97 16:19 Page:172
     1038     8167
     1039     8168        %B$TCB(STCLASS="BASED(B$TCB$)");
     1040     8171        %B$ALT;
     1041     8179        %F$DCB(BASED="BASED(M$EFT_ERRORS$)");
     1042     8236
     1043     8237        /***
     1044     8238         *** FPT
     1045     8239         ***/
     1046     8240
     1047     8241        %FPT_OPEN( FPTN=OPEN_EFT_ERRORS,
     1048     8242                   DCB=M$EFT_ERRORS,
     1049     8243                   FUN=IN,
     1050     8244                   ASN=FILE,
     1051     8245                   NAME=STAR_EFT_ERRORS );
     1052     8354
     1053     8355        %VLP_NAME( FPTN=STAR_EFT_ERRORS,
     1054     8356                   NAME='*EFT_ERRORS' );
     1055     8383
     1056     8384        %FPT_READ( FPTN=READ_EFT_ERRORS,
     1057     8385                   DCB=M$EFT_ERRORS );
     1058     8424
     1059     8425        %FPT_PFIL( FPTN=BOF_EFT_ERRORS,
     1060     8426                   DCB=M$EFT_ERRORS,
     1061     8427                   BOF=YES );
     1062     8442
     1063     8443        %FPT_CLOSE( FPTN=CLOSE_EFT_ERRORS,
     1064     8444                    DCB=M$EFT_ERRORS,
     1065     8445                    DISP=SAVE );
     1066     8487
     1067     8488        %FPT_WRITE( FPTN=WRITE_LO,
     1068     8489                    DCB=M$LO );
     1069     8520
     1070     8521        %FPT_DEVICE( FPTN=PAGE_LO,
     1071     8522                     DCB=M$LO,
     1072     8523                     PAGE=YES,
     1073     8524                     HDR=NO_HDR );
     1074     8542
PL6.E3A0      #003=FLI$ERROR_SUMMARY File=FLP$PRINTER.:E05TSI                    TUE 07/29/97 16:19 Page:173
     1075     8543        %VLP_HDR( FPTN=NO_HDR,
     1076     8544                  COUNT=76,
     1077     8545                  TITLE= ' ' );
     1078     8561
     1079     8562        %FPT_DEVICE( FPTN=PAGE_LO_HDR,
     1080     8563                     DCB=M$LO,
     1081     8564                     PAGE=YES,
     1082     8565                     HDR=LO_HEADER );
     1083     8583
     1084     8584        %VLP_HDR( FPTN=LO_HEADER,
     1085     8585                  COUNT=76,
     1086     8586                  TITLE='                         Error Summary' );
     1087     8602
     1088     8603        %VLP_HDR( FPTN=LO_HEADER_2,
     1089     8604                  COUNT=76,
     1090     8605                  TITLE='Page Line  Error Message' );
     1091     8621
     1092     8622        %FPT_DEVICE( FPTN=SET_LO_HEADER_2,
     1093     8623                     DCB=M$LO,
     1094     8624                     HDR=LO_HEADER_2 );
     1095     8642
     1096     8643        %VLR_LINES;
     1097     8657
     1098     8658        /****************************************/
     1099     8659
     1100     8660        /***
     1101     8661         *** If error summary file isn't open, there aren't any errors.
     1102     8662         ***/
     1103     8663
     1104     8664    1      M$EFT_ERRORS$ = DCBADDR(DCBNUM(M$EFT_ERRORS));

   8664  6 000002   000000 236007 xsym               LDQ     M$EFT_ERRORS,DL
         6 000003   000000 470400 7                  LDP0    0
         6 000004   000000 471500                    LDP1    0,,PR0
         6 000005   100000 236106                    LDQ     0,QL,PR1
         6 000006   000006 756000 2                  STQ     M$EFT_ERRORS$

PL6.E3A0      #003=FLI$ERROR_SUMMARY File=FLP$PRINTER.:E05TSI                    TUE 07/29/97 16:19 Page:174
     1105     8665    1      IF NOT F$DCB.FCD#

   8665  6 000007   000006 473400 2                  LDP3    M$EFT_ERRORS$
         6 000010   300031 236100                    LDQ     25,,PR3
         6 000011   020000 316007                    CANQ    8192,DL
         6 000012   000045 601000 6                  TNZ     s:8681

     1106     8666    1       THEN IF ADDR(LIST_ERRORS) = ADDR(NIL)

   8666  6 000013   200003 236100                    LDQ     @LIST_ERRORS,,AUTO
         6 000014   000001 116000 xsym               CMPQ    B_VECTNIL+1
         6 000015   000017 601000 6                  TNZ     s:8669

     1107     8667    1          THEN RETURN;

   8667  6 000016   000000 702200 xent               TSX2  ! X66_ARET

     1108     8668    2          ELSE DO;

     1109     8669    2            CALL M$OPEN( OPEN_EFT_ERRORS )

   8669  6 000017   000050 630400 2                  EPPR0   OPEN_EFT_ERRORS
         6 000020   450000 713400                    CLIMB   alt,open
         6 000021   410400 401760                    pmme    nvectors=18
         6 000022   000024 702000 6                  TSX2    s:8671
         6 000023   000045 710000 6                  TRA     s:8681

     1110     8670    3             WHENALTRETURN DO;

     1111     8671    3               IF B$TCB.ALT$->B$ALT.ERR.CODE = %E$NOFILE

   8671  6 000024   000000 470400 xsym               LDP0    B$TCB$
         6 000025   000000 471500                    LDP1    0,,PR0
         6 000026   100102 236100                    LDQ     66,,PR1
         6 000027   377770 376007                    ANQ     131064,DL
         6 000030   001610 116007                    CMPQ    904,DL
         6 000031   000041 601000 6                  TNZ     s:8676
PL6.E3A0      #003=FLI$ERROR_SUMMARY File=FLP$PRINTER.:E05TSI                    TUE 07/29/97 16:19 Page:175

     1112     8672    4                THEN DO;

     1113     8673    4                  WRITE_LO.BUF_ = VECTOR(NO_ERRORS);

   8673  6 000032   000002 237000 7                  LDAQ    2
         6 000033   000232 757000 2                  STAQ    WRITE_LO+4

     1114     8674    4                  CALL M$WRITE( WRITE_LO ) ALTRET( JUSTXXX );

   8674  6 000034   000226 630400 2                  EPPR0   WRITE_LO
         6 000035   440001 713400                    CLIMB   alt,write
         6 000036   401400 401760                    pmme    nvectors=4
         6 000037   000273 702000 6                  TSX2    JUSTXXX

     1115     8675    4                  END;

   8675  6 000040   000044 710000 6                  TRA     s:8677

     1116     8676    3                ELSE CALL FLI$RPT_ERR;

   8676  6 000041   000002 631400 xsym               EPPR1   B_VECTNIL+2
         6 000042   000000 701000 xent               TSX1    FLI$RPT_ERR
         6 000043   000000 011000                    NOP     0

     1117     8677    3               RETURN;

   8677  6 000044   000000 702200 xent               TSX2  ! X66_ARET

     1118     8678    3               END;
     1119     8679    2            END;

     1120     8680
     1121     8681    1      IF ADDR(LIST_ERRORS) = ADDR(NIL)

   8681  6 000045   200003 236100                    LDQ     @LIST_ERRORS,,AUTO
         6 000046   000001 116000 xsym               CMPQ    B_VECTNIL+1
PL6.E3A0      #003=FLI$ERROR_SUMMARY File=FLP$PRINTER.:E05TSI                    TUE 07/29/97 16:19 Page:176
         6 000047   000101 601000 6                  TNZ     s:8699

     1122     8682    2       THEN DO;

     1123     8683    2         IF DCBADDR(DCBNUM(M$LO))->F$DCB.DDEV.UCOUT#

   8683  6 000050   000000 236007 xsym               LDQ     M$LO,DL
         6 000051   000000 470400 7                  LDP0    0
         6 000052   000000 471500                    LDP1    0,,PR0
         6 000053   100000 473506                    LDP3    0,QL,PR1
         6 000054   300004 236100                    LDQ     4,,PR3
         6 000055   020000 316007                    CANQ    8192,DL
         6 000056   000064 601000 6                  TNZ     s:8686
         6 000057   000000 236007 xsym               LDQ     M$LO,DL
         6 000060   100000 473506                    LDP3    0,QL,PR1
         6 000061   300004 236100                    LDQ     4,,PR3
         6 000062   400000 316007                    CANQ    -131072,DL
         6 000063   000101 601000 6                  TNZ     s:8699

     1124     8684    2           OR NOT DCBADDR(DCBNUM(M$LO))->F$DCB.DDEV.LP#
     1125     8685    3          THEN DO;          /* No error summary for terminals unless asked for   */

     1126     8686    3            IF F$DCB.FCD#

   8686  6 000064   000006 473400 2                  LDP3    M$EFT_ERRORS$
         6 000065   300031 236100                    LDQ     25,,PR3
         6 000066   020000 316007                    CANQ    8192,DL
         6 000067   000100 600000 6                  TZE     s:8691

     1127     8687    3             THEN CALL M$CLOSE( CLOSE_EFT_ERRORS )

   8687  6 000070   000170 630400 2                  EPPR0   CLOSE_EFT_ERRORS
         6 000071   450001 713400                    CLIMB   alt,close
         6 000072   406000 401760                    pmme    nvectors=13
         6 000073   000075 702000 6                  TSX2    s:8689
         6 000074   000100 710000 6                  TRA     s:8691

PL6.E3A0      #003=FLI$ERROR_SUMMARY File=FLP$PRINTER.:E05TSI                    TUE 07/29/97 16:19 Page:177
     1128     8688    4                WHENALTRETURN DO;

     1129     8689    4                  CALL FLI$RPT_ERR;

   8689  6 000075   000002 631400 xsym               EPPR1   B_VECTNIL+2
         6 000076   000000 701000 xent               TSX1    FLI$RPT_ERR
         6 000077   000000 011000                    NOP     0

     1130     8690    4                  END;

     1131     8691    3            RETURN;

   8691  6 000100   000000 702200 xent               TSX2  ! X66_ARET

     1132     8692    3            END;
     1133     8693    2         END;
     1134     8694
     1135     8695        /***
     1136     8696         *** Ready error summary file and print page headings.
     1137     8697         ***/
     1138     8698
     1139     8699    1      CALL M$PFIL( BOF_EFT_ERRORS ) ALTRET(JUSTXXX);

   8699  6 000101   000164 630400 2                  EPPR0   BOF_EFT_ERRORS
         6 000102   440004 713400                    CLIMB   alt,+16388
         6 000103   400000 401760                    pmme    nvectors=1
         6 000104   000273 702000 6                  TSX2    JUSTXXX

     1140     8700    1      CALL M$DEVICE( PAGE_LO_HDR ) ALTRET(JUSTXXX);

   8700  6 000105   000256 630400 2                  EPPR0   PAGE_LO_HDR
         6 000106   450006 713400                    CLIMB   alt,+20486
         6 000107   401000 401760                    pmme    nvectors=3
         6 000110   000273 702000 6                  TSX2    JUSTXXX

     1141     8701    1      WRITE_LO.BUF_ = VECTOR(BLANK);

PL6.E3A0      #003=FLI$ERROR_SUMMARY File=FLP$PRINTER.:E05TSI                    TUE 07/29/97 16:19 Page:178
   8701  6 000111   000004 237000 7                  LDAQ    4
         6 000112   000232 757000 2                  STAQ    WRITE_LO+4

     1142     8702    1      CALL M$WRITE( WRITE_LO ) ALTRET( JUSTXXX );

   8702  6 000113   000226 630400 2                  EPPR0   WRITE_LO
         6 000114   440001 713400                    CLIMB   alt,write
         6 000115   401400 401760                    pmme    nvectors=4
         6 000116   000273 702000 6                  TSX2    JUSTXXX

     1143     8703
     1144     8704    1      ERROR_LINE.PAGE = 'Page';

   8704  6 000117   000004 236000 5                  LDQ     NO_ERRORS+3
         6 000120   000007 756000 2                  STQ     ERROR_LINE

     1145     8705    1      ERROR_LINE.LINE = 'Line';

   8705  6 000121   040000 100400                    MLR     fill='040'O
         6 000122   000005 000004 5                  ADSC9   NO_ERRORS+4              cn=0,n=4
         6 000123   000010 200004 2                  ADSC9   ERROR_LINE+1             cn=1,n=4

     1146     8706    1      ERROR_LINE.MESSAGE = 'Error Message';

   8706  6 000124   040000 100400                    MLR     fill='040'O
         6 000125   000006 000015 5                  ADSC9   NO_ERRORS+5              cn=0,n=13
         6 000126   000011 600170 2                  ADSC9   ERROR_LINE+2             cn=3,n=120

     1147     8707    1      WRITE_LO.BUF_ = VECTOR(ERROR_LINE);

   8707  6 000127   000006 237000 7                  LDAQ    6
         6 000130   000232 757000 2                  STAQ    WRITE_LO+4

     1148     8708    1      CALL M$WRITE( WRITE_LO ) ALTRET( JUSTXXX );

   8708  6 000131   000226 630400 2                  EPPR0   WRITE_LO
         6 000132   440001 713400                    CLIMB   alt,write
PL6.E3A0      #003=FLI$ERROR_SUMMARY File=FLP$PRINTER.:E05TSI                    TUE 07/29/97 16:19 Page:179
         6 000133   401400 401760                    pmme    nvectors=4
         6 000134   000273 702000 6                  TSX2    JUSTXXX

     1149     8709
     1150     8710    1      CALL M$DEVICE( SET_LO_HEADER_2 ) ALTRET( JUSTXXX );

   8710  6 000135   000314 630400 2                  EPPR0   SET_LO_HEADER_2
         6 000136   450006 713400                    CLIMB   alt,+20486
         6 000137   401000 401760                    pmme    nvectors=3
         6 000140   000273 702000 6                  TSX2    JUSTXXX

     1151     8711
     1152     8712    1      READ_EFT_ERRORS.BUF_ = VECTOR(EFT_ERROR_RECORD);

   8712  6 000141   000010 235000 7                  LDA     8
         6 000142   200044 452500                    STP2    NBR_BLANKS+2,,AUTO
         6 000143   200044 236100                    LDQ     NBR_BLANKS+2,,AUTO
         6 000144   000004 036003                    ADLQ    4,DU
         6 000145   000152 757000 2                  STAQ    READ_EFT_ERRORS+4

     1153     8713
     1154     8714        /***
     1155     8715         *** Format and print summary file.
     1156     8716         ***/
     1157     8717
     1158     8718    2      DO WHILE('1'B);

     1159     8719    2         CALL M$READ( READ_EFT_ERRORS ) ALTRET( CHKERR );

   8719  6 000146   000146 630400 2                  EPPR0   READ_EFT_ERRORS
         6 000147   440000 713400                    CLIMB   alt,read
         6 000150   401400 401760                    pmme    nvectors=4
         6 000151   000265 702000 6                  TSX2    CHKERR

     1160     8720    2         IF F$DCB.ARS# = LENGTHC(VLR_LINES)

   8720  6 000152   000006 470400 2                  LDP0    M$EFT_ERRORS$
PL6.E3A0      #003=FLI$ERROR_SUMMARY File=FLP$PRINTER.:E05TSI                    TUE 07/29/97 16:19 Page:180
         6 000153   000000 235100                    LDA     0,,PR0
         6 000154   000010 115007                    CMPA    8,DL
         6 000155   000220 601000 6                  TNZ     s:8736
         6 000156   200004 720100                    LXL0    EFT_ERROR_RECORD,,AUTO
         6 000157   040041 100003                    CMPX0   16417,DU
         6 000160   000220 603000 6                  TRC     s:8736

     1161     8721    2           AND EFT_ERROR_RECORD.VLR_LINES.PAGE# <= BITBIN('040040'O)
     1162     8722    3          THEN DO;                         /* New VLR_LINES                      */

     1163     8723    3            IF EFT_ERROR_RECORD.VLR_LINES.PAGE# = 0

   8723  6 000161   000000 100003                    CMPX0   0,DU
         6 000162   000171 601000 6                  TNZ     s:8729

     1164     8724    4             THEN DO;                 /* Output to terminal or non-UR device     */

     1165     8725    4               ERROR_LINE.PAGE = ' ';

   8725  6 000163   000035 236000 xsym               LDQ     B_VECTNIL+29
         6 000164   000007 756000 2                  STQ     ERROR_LINE

     1166     8726    4               ERROR_LINE.LINE = ' ';

   8726  6 000165   040000 100400                    MLR     fill='040'O
         6 000166   000035 000001 xsym               ADSC9   B_VECTNIL+29             cn=0,n=1
         6 000167   000010 200004 2                  ADSC9   ERROR_LINE+1             cn=1,n=4

     1167     8727    4               END;

   8727  6 000170   000146 710000 6                  TRA     s:8719

     1168     8728    4             ELSE DO;

     1169     8729    4               CALL BINCHAR( ERROR_LINE.PAGE, EFT_ERROR_RECORD.VLR_LINES.PAGE# );

   8729  6 000171   200004 236100                    LDQ     EFT_ERROR_RECORD,,AUTO
PL6.E3A0      #003=FLI$ERROR_SUMMARY File=FLP$PRINTER.:E05TSI                    TUE 07/29/97 16:19 Page:181
         6 000172   777777 376007                    ANQ     -1,DL
         6 000173   000000 235003                    LDA     0,DU
         6 000174   200044 757100                    STAQ    NBR_BLANKS+2,,AUTO
         6 000175   000000 301500                    BTD
         6 000176   200044 000010                    NDSC9   NBR_BLANKS+2,,AUTO       cn=0,s=lsgnf,sf=0,n=8
         6 000177   000007 030004 2                  NDSC9   ERROR_LINE               cn=0,s=nosgn,sf=0,n=4

     1170     8730    4               CALL EDITCHAR( ERROR_LINE.PAGE, , , NO_4_LEADING_ZEROS, ERROR_LINE.PAGE
              8730                        );

   8730  6 000200   000000 024400                    MVNE
         6 000201   000007 030004 2                  NDSC9   ERROR_LINE               cn=0,s=nosgn,sf=0,n=4
         6 000202   000000 000003 xsym               ADSC9   NO_4_LEADING_ZEROS       cn=0,n=3
         6 000203   000007 000004 2                  ADSC9   ERROR_LINE               cn=0,n=4

     1171     8731    4               CALL BINCHAR( ERROR_LINE.LINE, EFT_ERROR_RECORD.VLR_LINES.RLINES# );

   8731  6 000204   200004 236100                    LDQ     EFT_ERROR_RECORD,,AUTO
         6 000205   000022 772000                    QRL     18
         6 000206   000000 235003                    LDA     0,DU
         6 000207   200044 757100                    STAQ    NBR_BLANKS+2,,AUTO
         6 000210   000000 301500                    BTD
         6 000211   200044 000010                    NDSC9   NBR_BLANKS+2,,AUTO       cn=0,s=lsgnf,sf=0,n=8
         6 000212   000010 230004 2                  NDSC9   ERROR_LINE+1             cn=1,s=nosgn,sf=0,n=4

     1172     8732    4               CALL EDITCHAR( ERROR_LINE.LINE, , , NO_4_LEADING_ZEROS, ERROR_LINE.LINE
              8732                        );

   8732  6 000213   000000 024400                    MVNE
         6 000214   000010 230004 2                  NDSC9   ERROR_LINE+1             cn=1,s=nosgn,sf=0,n=4
         6 000215   000000 000003 xsym               ADSC9   NO_4_LEADING_ZEROS       cn=0,n=3
         6 000216   000010 200004 2                  ADSC9   ERROR_LINE+1             cn=1,n=4

     1173     8733    4               END;

     1174     8734    3            END;

PL6.E3A0      #003=FLI$ERROR_SUMMARY File=FLP$PRINTER.:E05TSI                    TUE 07/29/97 16:19 Page:182
   8734  6 000217   000146 710000 6                  TRA     s:8719

     1175     8735    3          ELSE DO;

     1176     8736    3            NBR_BLANKS = 0;

   8736  6 000220   200042 450100                    STZ     NBR_BLANKS,,AUTO

     1177     8737    4            DO WHILE( NBR_BLANKS < F$DCB.ARS# - 1 AND EFT_ERROR_RECORD.C(NBR_BLANKS) =
              8737                     ' ' );

   8737  6 000221   000223 710000 6                  TRA     s:8739

     1178     8738    4               NBR_BLANKS = NBR_BLANKS + 1;

   8738  6 000222   200042 054100                    AOS     NBR_BLANKS,,AUTO

     1179     8739    4               END;

   8739  6 000223   000006 470400 2                  LDP0    M$EFT_ERRORS$
         6 000224   000000 236100                    LDQ     0,,PR0
         6 000225   000001 136007                    SBLQ    1,DL
         6 000226   200042 116100                    CMPQ    NBR_BLANKS,,AUTO
         6 000227   000235 604400 6                  TMOZ    s:8740
         6 000230   200042 235100                    LDA     NBR_BLANKS,,AUTO
         6 000231   040000 106505                    CMPC    fill='040'O
         6 000232   200004 000001                    ADSC9   EFT_ERROR_RECORD,A,AUTO  cn=0,n=1
         6 000233   000035 000001 xsym               ADSC9   B_VECTNIL+29             cn=0,n=1
         6 000234   000222 600000 6                  TZE     s:8738

     1180     8740    3           ERROR_LINE.MESSAGE = SUBSTR( EFT_ERROR_RECORD.CHARS, NBR_BLANKS, F$DCB.ARS#
              8740                     - NBR_BLANKS );

   8740  6 000235   000000 236100                    LDQ     0,,PR0
         6 000236   200042 136100                    SBLQ    NBR_BLANKS,,AUTO
         6 000237   000000 620006                    EAX0    0,QL
         6 000240   200042 235100                    LDA     NBR_BLANKS,,AUTO
PL6.E3A0      #003=FLI$ERROR_SUMMARY File=FLP$PRINTER.:E05TSI                    TUE 07/29/97 16:19 Page:183
         6 000241   040000 100545                    MLR     fill='040'O
         6 000242   200004 000010                    ADSC9   EFT_ERROR_RECORD,A,AUTO  cn=0,n=*X0
         6 000243   000011 600170 2                  ADSC9   ERROR_LINE+2             cn=3,n=120

     1181     8741    3           WRITE_LO.BUF_.BOUND = LENGTHV(ERROR_LINE) + F$DCB.ARS# - LENGTHC(ERROR_LINE
              8741                     .MESSAGE) - NBR_BLANKS;

   8741  6 000244   000000 236100                    LDQ     0,,PR0
         6 000245   200042 136100                    SBLQ    NBR_BLANKS,,AUTO
         6 000246   000012 036007                    ADLQ    10,DL
         6 000247   000020 736000                    QLS     16
         6 000250   000232 676000 2                  ERQ     WRITE_LO+4
         6 000251   000034 376000 xsym               ANQ     B_VECTNIL+28
         6 000252   000232 656000 2                  ERSQ    WRITE_LO+4

     1182     8742    3            CALL M$WRITE( WRITE_LO ) ALTRET( JUSTXXX );

   8742  6 000253   000226 630400 2                  EPPR0   WRITE_LO
         6 000254   440001 713400                    CLIMB   alt,write
         6 000255   401400 401760                    pmme    nvectors=4
         6 000256   000273 702000 6                  TSX2    JUSTXXX

     1183     8743    3            ERROR_LINE.PAGE = ' ';

   8743  6 000257   000035 236000 xsym               LDQ     B_VECTNIL+29
         6 000260   000007 756000 2                  STQ     ERROR_LINE

     1184     8744    3            ERROR_LINE.LINE = ' ';

   8744  6 000261   040000 100400                    MLR     fill='040'O
         6 000262   000035 000001 xsym               ADSC9   B_VECTNIL+29             cn=0,n=1
         6 000263   000010 200004 2                  ADSC9   ERROR_LINE+1             cn=1,n=4

     1185     8745    3            END;

     1186     8746                                                /* format and print                   */
     1187     8747    2         END;
PL6.E3A0      #003=FLI$ERROR_SUMMARY File=FLP$PRINTER.:E05TSI                    TUE 07/29/97 16:19 Page:184

   8747  6 000264   000146 710000 6                  TRA     s:8719

   8742  6 000265                       CHKERR       null
     1188     8748
     1189     8749    1   CHKERR: ;
     1190     8750    1      IF B$TCB.ALT$->B$ALT.ERR.CODE ~= %E$EOF

   8750  6 000265   000000 470400 xsym               LDP0    B$TCB$
         6 000266   000000 471500                    LDP1    0,,PR0
         6 000267   100102 236100                    LDQ     66,,PR1
         6 000270   377770 376007                    ANQ     131064,DL
         6 000271   000060 116007                    CMPQ    48,DL
         6 000272   000305 600000 6                  TZE     s:8759

     1191     8751    2       THEN DO;

   8750  6 000273                       JUSTXXX      null
     1192     8752    2   JUSTXXX: ;
     1193     8753    2         CALL FLI$RPT_ERR;

   8753  6 000273   000002 631400 xsym               EPPR1   B_VECTNIL+2
         6 000274   000000 701000 xent               TSX1    FLI$RPT_ERR
         6 000275   000000 011000                    NOP     0

     1194     8754    2         CALL M$CLOSE( CLOSE_EFT_ERRORS )

   8754  6 000276   000170 630400 2                  EPPR0   CLOSE_EFT_ERRORS
         6 000277   450001 713400                    CLIMB   alt,close
         6 000300   406000 401760                    pmme    nvectors=13
         6 000301   000303 702000 6                  TSX2    s:8757
         6 000302   000303 710000 6                  TRA     s:8757

     1195     8755    3          WHENALTRETURN DO;

     1196     8756    3            END;

PL6.E3A0      #003=FLI$ERROR_SUMMARY File=FLP$PRINTER.:E05TSI                    TUE 07/29/97 16:19 Page:185
     1197     8757    2         CALL M$XXX;

   8757  6 000303   000003 713400                    CLIMB   3
         6 000304   000000 401760                    pmme    nvectors=0

     1198     8758    2         END;

     1199     8759    1      CALL M$CLOSE( CLOSE_EFT_ERRORS ) ALTRET( JUSTXXX );

   8759  6 000305   000170 630400 2                  EPPR0   CLOSE_EFT_ERRORS
         6 000306   450001 713400                    CLIMB   alt,close
         6 000307   406000 401760                    pmme    nvectors=13
         6 000310   000273 702000 6                  TSX2    JUSTXXX

     1200     8760    1      CALL M$DEVICE( PAGE_LO ) ALTRET( JUSTXXX );

   8760  6 000311   000242 630400 2                  EPPR0   PAGE_LO
         6 000312   450006 713400                    CLIMB   alt,+20486
         6 000313   401000 401760                    pmme    nvectors=3
         6 000314   000273 702000 6                  TSX2    JUSTXXX

     1201     8761    1      RETURN;

   8761  6 000315   000000 702200 xent               TSX2  ! X66_ARET
     1202     8762
     1203     8763    1   END FLI$ERROR_SUMMARY;

PL6.E3A0      #003=FLI$ERROR_SUMMARY File=FLP$PRINTER.:E05TSI                    TUE 07/29/97 16:19 Page:186
--  Include file information  --

   B_MICROPS_C.:E05TOU  is referenced.
   FLB_SUBS_C.:E05TOU  is referenced.
   FLI_DATA_R.:E05TOU  cannot be made into a system file and is referenced.
   CP_6_C.:E05TOU  is referenced.
   CP_6.:E05TOU  cannot be made into a system file and is referenced.
   B_ERRORS_C.:E05TOU  is referenced.
      No diagnostics issued in procedure FLI$ERROR_SUMMARY.
PL6.E3A0      #003=FLI$ERROR_SUMMARY File=FLP$PRINTER.:E05TSI                    TUE 07/29/97 16:19 Page:187

 **** Variables and constants ****

  ****  Section 002  Data  FLI$ERROR_SUMMARY

  ****  Scalars and arrays  ****
OctLoc.c.b A Datatyp(siz) R M Lvl/name                 OctLoc.c.b A Datatyp(siz) R M Lvl/name

   164-0-0/d STRC(144)   r     1 BOF_EFT_ERRORS           170-0-0/d STRC(1080)  r     1 CLOSE_EFT_ERRORS
     7-0-0/c STRC(1179)  r     1 ERROR_LINE               270-0-0/w STRC(387)   r     1 LO_HEADER
   303-0-0/w STRC(261)   r     1 LO_HEADER_2                6-0-0/w PTR         r     1 M$EFT_ERRORS$
   254-0-0/w STRC(54)    r     1 NO_HDR                    50-0-0/d STRC(2088)  r     1 OPEN_EFT_ERRORS
   242-0-0/d STRC(360)   r     1 PAGE_LO                  256-0-0/d STRC(360)   r     1 PAGE_LO_HDR
   146-0-0/d STRC(504)   r     1 READ_EFT_ERRORS          314-0-0/d STRC(360)   r     1 SET_LO_HEADER_2
   142-0-0/c STRC(108)   r     1 STAR_EFT_ERRORS          326-0-0/d STRC(72)    r     1 VLR_LINES
   226-0-0/d STRC(432)   r     1 WRITE_LO

  ****  Section 005 RoData FLI$ERROR_SUMMARY

  ****  Scalars and arrays  ****
OctLoc.c.b A Datatyp(siz) R M Lvl/name                 OctLoc.c.b A Datatyp(siz) R M Lvl/name

     0-0-0/c CHAR        r     1 BLANK                      1-0-0/c CHAR(9)     r     1 NO_ERRORS

  ****  Auto variables  ****

  ****  Scalars and arrays  ****
OctLoc.c.b A Datatyp(siz) R M Lvl/name                 OctLoc.c.b A Datatyp(siz) R M Lvl/name

     3-0-0/w PTR         r     1 @LIST_ERRORS               4-0-0/w STRC(1080)  r     1 EFT_ERROR_RECORD
    *0-0-0/w BIT         r     1 LIST_ERRORS               42-0-0/w SBIN        r     1 NBR_BLANKS

  ****  SYMREF variables  ****

  ****  Scalars and arrays  ****
OctLoc.c.b A Datatyp(siz) R M Lvl/name                 OctLoc.c.b A Datatyp(siz) R M Lvl/name

     0-0-0/w PTR         r     1 B$TCB$                     0-0-0/w PTR         r     1 DISK_FILE_SPEC$
PL6.E3A0      #003=FLI$ERROR_SUMMARY File=FLP$PRINTER.:E05TSI                    TUE 07/29/97 16:19 Page:188
     0-0-0/w PTR         r     1 DPLIST$                    0-0-0/w PTR         r     1 DPRESLIST$
     0-0-0/c BIT (9)     r     1 NO_4_LEADING_ZEROS(0:2)
     0-0-0/c ASTR(9)     r     1 RET_CMDS_NAME              0-0-0/w PTR         r     1 SNVECLIST$
     0-0-0/w PTR         r     1 TAPE_DCBLIST$

  ****  BASED and DCB variables  ****

  ****  Scalars and arrays  ****
OctLoc.c.b A Datatyp(siz) R M Lvl/name                 OctLoc.c.b A Datatyp(siz) R M Lvl/name

     0-0-0/w STRC(2448)  r     1 B$ALT                      0-0-0/w STRC(144)   r     1 B$TCB
     0-0-0/d ASTR(3528)  r     1 F$DCB                      0-0-0N  NULL        r     1 M$EFT_ERRORS
     0-0-0N  NULL        r     1 M$LO


   Procedure FLI$ERROR_SUMMARY requires 206 words for executable code.
   Procedure FLI$ERROR_SUMMARY requires 38 words of local(AUTO) storage.

    No errors detected in file FLP$PRINTER.:E05TSI    .
PL6.E3A0      #003=FLI$ERROR_SUMMARY File=FLP$PRINTER.:E05TSI                    TUE 07/29/97 16:19 Page:189
          *** CROSS REFERENCE LISTING ***
**     DENOTES     IDENTIFIER DEFINITION
<<                 IDENTIFIER'S VALUE SET
>>                 IDENTIFIER'S VALUE USED
<>                 IDENTIFIER SET AND/OR USED
--                 IDENTIFIER REFERENCED
PL6.E3A0      #003=FLI$ERROR_SUMMARY File=FLP$PRINTER.:E05TSI                    TUE 07/29/97 16:19 Page:190
          MINI XREF LISTING

B$ALT.CODE
      8173**DCL      8173--REDEF    8174--REDEF    8174--REDEF
B$ALT.ERR.CODE
      8175**DCL      8671>>IF       8750>>IF
B$ALT.ERR.ERR#
      8175**DCL      8175--REDEF
B$ALT.EVID
      8174**DCL      8174--REDEF    8174--REDEF
B$TCB.ALT$
      8169**DCL      8671>>IF       8750>>IF
B$TCB$
      7634**DCL      8169--IMP-PTR  8671>>IF       8750>>IF
BLANK
      8161**DCL      8701--ASSIGN
BOF_EFT_ERRORS
      8438**DCL      8699<>CALL
BOF_EFT_ERRORS.V
      8438**DCL      8438--DCLINIT
CHKERR
      8742**LABEL    8719--CALLALT
CLOSE_EFT_ERRORS
      8468**DCL      8687<>CALL     8754<>CALL     8759<>CALL
CLOSE_EFT_ERRORS.SN_
      8468**DCL      8468--REDEF
CLOSE_EFT_ERRORS.UTL_
      8469**DCL      8469--REDEF
CLOSE_EFT_ERRORS.V
      8473**DCL      8468--DCLINIT
CLOSE_EFT_ERRORS.V.EXPIRE#
      8483**DCL      8483--REDEF
CLOSE_EFT_ERRORS.V.TYPE#
      8481**DCL      8481--REDEF
PL6.E3A0      #003=FLI$ERROR_SUMMARY File=FLP$PRINTER.:E05TSI                    TUE 07/29/97 16:19 Page:191
CLOSE_EFT_ERRORS.V.XTNSIZE#
      8478**DCL      8478--REDEF    8480--REDEF
DISK_CLOSE.SN_
      7314**DCL      7314--REDEF
DISK_CLOSE.UTL_
      7315**DCL      7315--REDEF
DISK_CLOSE.V.EXPIRE#
      7329**DCL      7329--REDEF
DISK_CLOSE.V.TYPE#
      7327**DCL      7327--REDEF
DISK_CLOSE.V.XTNSIZE#
      7324**DCL      7324--REDEF    7326--REDEF
DISK_FILE_SPEC.SPEC
      7679**DCL      7681--REDEF
DISK_FILE_SPEC.SPEC.START
      7680**DCL      7680--REDEF
DISK_FILE_SPEC.SPEC.STOP
      7681**DCL      7681--REDEF
DISK_FILE_SPEC$
      7678**DCL      7679--IMP-PTR
DISK_OPEN.ACSVEH_
      7179**DCL      7180--REDEF
DISK_OPEN.ALTKEYS_
      7185**DCL      7186--REDEF    7186--REDEF
DISK_OPEN.HDR_
      7184**DCL      7185--REDEF
DISK_OPEN.TAB_
      7183**DCL      7184--REDEF
DISK_OPEN.UHL_
      7177**DCL      7178--REDEF    7178--REDEF
DISK_OPEN.V.FSN#
      7217**DCL      7217--REDEF    7217--REDEF
DISK_OPEN.WSN_
      7183**DCL      7183--REDEF
DISK_READ.STATION_
      7241**DCL      7242--REDEF
PL6.E3A0      #003=FLI$ERROR_SUMMARY File=FLP$PRINTER.:E05TSI                    TUE 07/29/97 16:19 Page:192
DISK_READ.V.DVBYTE.REREAD#
      7253**DCL      7253--REDEF
DISK_READ.V.INDX#
      7251**DCL      7251--REDEF
DISK_WRITE.STATION_
      7279**DCL      7279--REDEF
DISK_WRITE.V.DVBYTE.VFC#
      7286**DCL      7286--REDEF
DPLIST$
      7664**DCL      7676--IMP-PTR
DPRESLIST$
      7678**DCL      7678--IMP-PTR
EFTWORD
      7799**DCL      7799--REDEF
EFT_ERROR_RECORD
      8147**DCL      8712--ASSIGN
EFT_ERROR_RECORD.C
      8149**DCL      8737>>DOWHILE
EFT_ERROR_RECORD.CHARS
      8148**DCL      8149--REDEF    8150--REDEF    8740>>ASSIGN
EFT_ERROR_RECORD.VLR_LINES.PAGE#
      8152**DCL      8720>>IF       8723>>IF       8729>>CALLBLT
EFT_ERROR_RECORD.VLR_LINES.RLINES#
      8151**DCL      8731>>CALLBLT
ERROR_LINE
      8136**DCL      8707--ASSIGN   8741--ASSIGN
ERROR_LINE.LINE
      8139**DCL      8705<<ASSIGN   8726<<ASSIGN   8731<<CALLBLT  8732<<CALLBLT  8732>>CALLBLT  8744<<ASSIGN
ERROR_LINE.MESSAGE
      8141**DCL      8706<<ASSIGN   8740<<ASSIGN   8741--ASSIGN
ERROR_LINE.PAGE
      8137**DCL      8704<<ASSIGN   8725<<ASSIGN   8729<<CALLBLT  8730<<CALLBLT  8730>>CALLBLT  8743<<ASSIGN
F$DCB.ACTPOS
      8212**DCL      8212--REDEF
F$DCB.ARS#
      8186**DCL      8186--REDEF    8720>>IF       8737>>DOWHILE  8740>>ASSIGN   8741>>ASSIGN
PL6.E3A0      #003=FLI$ERROR_SUMMARY File=FLP$PRINTER.:E05TSI                    TUE 07/29/97 16:19 Page:193
F$DCB.ATTR
      8205**DCL      8206--REDEF
F$DCB.BORROW
      8220**DCL      8220--REDEF    8220--REDEF    8220--REDEF
F$DCB.DCBNAME.L
      8234**DCL      8234--IMP-SIZ
F$DCB.DDEV.LP#
      8192**DCL      8683>>IF
F$DCB.DDEV.UCOUT#
      8193**DCL      8683>>IF
F$DCB.EOMCHAR#
      8190**DCL      8190--REDEF
F$DCB.FCD#
      8199**DCL      8665>>IF       8686>>IF
F$DCB.FLDID
      8215**DCL      8215--REDEF
F$DCB.FORM$
      8209**DCL      8209--REDEF
F$DCB.FSECT
      8225**DCL      8225--REDEF
F$DCB.FSN#
      8202**DCL      8202--REDEF    8202--REDEF    8203--REDEF
F$DCB.HEADER$
      8208**DCL      8208--REDEF
F$DCB.IXTNSIZE#
      8206**DCL      8206--REDEF
F$DCB.LASTSTA$
      8195**DCL      8195--REDEF
F$DCB.LVL
      8221**DCL      8221--REDEF
F$DCB.NAME#.C
      8196**DCL      8196--REDEF
F$DCB.NOEOF
      8218**DCL      8218--REDEF
F$DCB.NRECS#
      8207**DCL      8207--REDEF
PL6.E3A0      #003=FLI$ERROR_SUMMARY File=FLP$PRINTER.:E05TSI                    TUE 07/29/97 16:19 Page:194
F$DCB.NRECX
      8226**DCL      8226--REDEF
F$DCB.OHDR
      8218**DCL      8218--REDEF
F$DCB.ORG#
      8201**DCL      8201--REDEF
F$DCB.PRECNO
      8224**DCL      8224--REDEF
F$DCB.RCSZ
      8230**DCL      8230--REDEF
F$DCB.RES#
      8197**DCL      8197--REDEF
F$DCB.SETX
      8209**DCL      8209--REDEF
F$DCB.TAB$
      8209**DCL      8209--REDEF
F$DCB.TDA
      8223**DCL      8224--REDEF
F$DCB.WSN#
      8197**DCL      8197--REDEF
FLI$RPT_ERR
      8122**DCL-ENT  8676--CALL     8689--CALL     8753--CALL
FPT_EXIT.V.STEPCC#
      7104**DCL      7104--REDEF
JUSTXXX
      8750**LABEL    8674--CALLALT  8699--CALLALT  8700--CALLALT  8702--CALLALT  8708--CALLALT  8710--CALLALT
      8742--CALLALT  8759--CALLALT  8760--CALLALT
LIST_ERRORS
        11**DCL         6--PROC     8666--IF       8681--IF
LO_HEADER
      8597**DCL      8577--DCLINIT
LO_HEADER_2
      8616**DCL      8636--DCLINIT
M$CLOSE
      6631**DCL-ENT  8687--CALL     8754--CALL     8759--CALL
M$DEVICE
PL6.E3A0      #003=FLI$ERROR_SUMMARY File=FLP$PRINTER.:E05TSI                    TUE 07/29/97 16:19 Page:195
      6635**DCL-ENT  8700--CALL     8710--CALL     8760--CALL
M$EFT_ERRORS
      8129**DCL      8664--ASSIGN
M$EFT_ERRORS$
      8135**DCL      8180--IMP-PTR  8664<<ASSIGN   8665>>IF       8686>>IF       8720>>IF       8737>>DOWHILE
      8740>>ASSIGN   8741>>ASSIGN
M$LO
      8128**DCL      8683--IF       8683--IF
M$OPEN
      6631**DCL-ENT  8669--CALL
M$PFIL
      6633**DCL-ENT  8699--CALL
M$READ
      6632**DCL-ENT  8719--CALL
M$WRITE
      6632**DCL-ENT  8674--CALL     8702--CALL     8708--CALL     8742--CALL
M$XXX
      6643**DCL-ENT  8757--CALL
NBR_BLANKS
      8155**DCL      8736<<ASSIGN   8737>>DOWHILE  8737>>DOWHILE  8738<<ASSIGN   8738>>ASSIGN   8740>>ASSIGN
      8740>>ASSIGN   8741>>ASSIGN
NO_4_LEADING_ZEROS
      7808**DCL      8730>>CALLBLT  8732>>CALLBLT
NO_ERRORS
      8162**DCL      8673--ASSIGN
NO_HDR
      8556**DCL      8536--DCLINIT
OPEN_EFT_ERRORS
      8310**DCL      8669<>CALL
OPEN_EFT_ERRORS.ACSVEH_
      8312**DCL      8313--REDEF
OPEN_EFT_ERRORS.ALTKEYS_
      8318**DCL      8319--REDEF    8319--REDEF
OPEN_EFT_ERRORS.HDR_
      8317**DCL      8318--REDEF
OPEN_EFT_ERRORS.TAB_
PL6.E3A0      #003=FLI$ERROR_SUMMARY File=FLP$PRINTER.:E05TSI                    TUE 07/29/97 16:19 Page:196
      8316**DCL      8317--REDEF
OPEN_EFT_ERRORS.UHL_
      8310**DCL      8311--REDEF    8311--REDEF
OPEN_EFT_ERRORS.V
      8319**DCL      8310--DCLINIT
OPEN_EFT_ERRORS.V.FSN#
      8350**DCL      8350--REDEF    8350--REDEF
OPEN_EFT_ERRORS.WSN_
      8316**DCL      8316--REDEF
PAGE_LO
      8535**DCL      8760<>CALL
PAGE_LO.V
      8536**DCL      8535--DCLINIT
PAGE_LO_HDR
      8576**DCL      8700<>CALL
PAGE_LO_HDR.V
      8577**DCL      8576--DCLINIT
PRE_RET_CLOSE.SN_
      8042**DCL      8042--REDEF
PRE_RET_CLOSE.UTL_
      8043**DCL      8043--REDEF
PRE_RET_CLOSE.V.EXPIRE#
      8057**DCL      8057--REDEF
PRE_RET_CLOSE.V.TYPE#
      8055**DCL      8055--REDEF
PRE_RET_CLOSE.V.XTNSIZE#
      8052**DCL      8052--REDEF    8054--REDEF
PRE_RET_OPEN.ACSVEH_
      7977**DCL      7978--REDEF
PRE_RET_OPEN.ALTKEYS_
      7983**DCL      7984--REDEF    7984--REDEF
PRE_RET_OPEN.HDR_
      7982**DCL      7983--REDEF
PRE_RET_OPEN.TAB_
      7981**DCL      7982--REDEF
PRE_RET_OPEN.UHL_
PL6.E3A0      #003=FLI$ERROR_SUMMARY File=FLP$PRINTER.:E05TSI                    TUE 07/29/97 16:19 Page:197
      7975**DCL      7976--REDEF    7976--REDEF
PRE_RET_OPEN.V.FSN#
      8015**DCL      8015--REDEF    8015--REDEF
PRE_RET_OPEN.WSN_
      7981**DCL      7981--REDEF
PRE_RET_READ.STATION_
      7832**DCL      7833--REDEF
PRE_RET_READ.V.DVBYTE.REREAD#
      7844**DCL      7844--REDEF
PRE_RET_READ.V.INDX#
      7842**DCL      7842--REDEF
PRE_RET_WRITE.STATION_
      7870**DCL      7870--REDEF
PRE_RET_WRITE.V.DVBYTE.VFC#
      7877**DCL      7877--REDEF
READ_EFT_ERRORS
      8402**DCL      8719<>CALL
READ_EFT_ERRORS.BUF_
      8404**DCL      8712<<ASSIGN
READ_EFT_ERRORS.STATION_
      8405**DCL      8406--REDEF
READ_EFT_ERRORS.V
      8406**DCL      8402--DCLINIT
READ_EFT_ERRORS.V.DVBYTE.REREAD#
      8417**DCL      8417--REDEF
READ_EFT_ERRORS.V.INDX#
      8415**DCL      8415--REDEF
RET_CMDS_NAME.L#
      8086**DCL      8086--IMP-SIZ
SET_LO_HEADER_2
      8635**DCL      8710<>CALL
SET_LO_HEADER_2.V
      8636**DCL      8635--DCLINIT
SNVECLIST$
      7618**DCL      7618--IMP-PTR
SPEC.START
PL6.E3A0      #003=FLI$ERROR_SUMMARY File=FLP$PRINTER.:E05TSI                    TUE 07/29/97 16:19 Page:198
      7682**DCL      7683--REDEF
SPEC.STOP
      7683**DCL      7684--REDEF
SPECCHARS
      7682**DCL      7682--REDEF
STAR_EFT_ERRORS
      8381**DCL      8311--DCLINIT
TAPE_CLOSE.SN_
      7535**DCL      7535--REDEF
TAPE_CLOSE.UTL_
      7536**DCL      7536--REDEF
TAPE_CLOSE.V.EXPIRE#
      7550**DCL      7550--REDEF
TAPE_CLOSE.V.TYPE#
      7548**DCL      7548--REDEF
TAPE_CLOSE.V.XTNSIZE#
      7545**DCL      7545--REDEF    7547--REDEF
TAPE_DCBLIST$
      7091**DCL      7091--IMP-PTR
TAPE_OPEN.ACSVEH_
      7400**DCL      7401--REDEF
TAPE_OPEN.ALTKEYS_
      7406**DCL      7407--REDEF    7407--REDEF
TAPE_OPEN.HDR_
      7405**DCL      7406--REDEF
TAPE_OPEN.TAB_
      7404**DCL      7405--REDEF
TAPE_OPEN.UHL_
      7398**DCL      7399--REDEF    7399--REDEF
TAPE_OPEN.V.FSN#
      7438**DCL      7438--REDEF    7438--REDEF
TAPE_OPEN.WSN_
      7404**DCL      7404--REDEF
TAPE_READ.STATION_
      7462**DCL      7463--REDEF
TAPE_READ.V.DVBYTE.REREAD#
PL6.E3A0      #003=FLI$ERROR_SUMMARY File=FLP$PRINTER.:E05TSI                    TUE 07/29/97 16:19 Page:199
      7474**DCL      7474--REDEF
TAPE_READ.V.INDX#
      7472**DCL      7472--REDEF
TAPE_WRITE.STATION_
      7500**DCL      7500--REDEF
TAPE_WRITE.V.DVBYTE.VFC#
      7507**DCL      7507--REDEF
TVECTOR.W2
      7631**DCL      7632--REDEF
VLR_LINES
      8654**DCL      8720--IF
WRITE_LO
      8506**DCL      8674<>CALL     8702<>CALL     8708<>CALL     8742<>CALL
WRITE_LO.BUF_
      8506**DCL      8673<<ASSIGN   8701<<ASSIGN   8707<<ASSIGN
WRITE_LO.BUF_.BOUND
      8506**DCL      8741<<ASSIGN
WRITE_LO.STATION_
      8508**DCL      8508--REDEF
WRITE_LO.V
      8509**DCL      8506--DCLINIT
WRITE_LO.V.DVBYTE.VFC#
      8515**DCL      8515--REDEF
