VERSION E05

PL6.E3A0      #001=FLR$REQUALIFY File=FLR$REQUALIFY.:E05TSI                      TUE 07/29/97 16:17 Page:1
        1        1        /*M* FLR$REQUALIFY Performs REQUALIFY command */
        2        2        /*T***********************************************************/
        3        3        /*T*                                                         */
        4        4        /*T* Copyright (c) Bull HN Information Systems Inc., 1997    */
        5        5        /*T*                                                         */
        6        6        /*T***********************************************************/
        7        7        /*P*  NAME: FLR$REQUALIFY
        8        8              PURPOSE: Process REQUALIFY  command
        9        9        */
       10       10        FLR$REQUALIFY: PROC ;
       11       11        /***/
       12       12        /** Includes **/
       13       13        /***/
       14       14        %INCLUDE CP_6;
       15     5573        %INCLUDE CP_6_SUBS;
       16     6113        %INCLUDE B_ERRORS_C;
       17     7240        %INCLUDE XU_MACRO_C;
       18    10346        %INCLUDE XU_SUBS_C;
       19    10438        %INCLUDE FLI_DATA_R;
       20    11852        %INCLUDE FM$GRAN;
       21    11921        %INCLUDE FM$FIT;
       22    12142        %INCLUDE FLN_DATA_R;
       23    12879        %INCLUDE FLE_DATA_R;
       24    18830        /***/
       25    18831        /** External procedures  **/
       26    18832        /***/
       27    18833    1   DCL FLC$CRIT_CHECK ENTRY (2) ALTRET;
       28    18834    1   DCL FLN$DISK_IO_INIT ENTRY;
       29    18835    1   DCL FLP$WR_FILE_INFO ENTRY(9) ALTRET;
       30    18836    1   DCL FLN$DISK_OPEN_NEXT ENTRY(5) ALTRET;
       31    18837    1   DCL FLN$DISK_CLOSE_NEXT ENTRY(1);
       32    18838    1   DCL FLN$DISK_CLOSE_ALL ENTRY;
       33    18839    1   DCL FLI$RPT_ERR ENTRY(5);
       34    18840    1   DCL XSF$LOCCODP ENTRY(2) ALTRET;
       35    18841        %FM$GRAN;
       36    18845        %F$DCB (STCLASS = "BASED(DCB$)");
       37    18902        %CODE06(BASED="BASED(CODE6$)");
PL6.E3A0      #001=FLR$REQUALIFY File=FLR$REQUALIFY.:E05TSI                      TUE 07/29/97 16:17 Page:2
       38    18906        %VLP_VECTOR (FPTN=FIT_,
       39    18907                     STCLASS = STATIC);
       40    18922
       41    18923        %VLP_ERRCODE (FPTN = ERR);
       42    18968
       43    18969    1   DCL BLANK6 CHAR(0) STATIC INIT('      ');
       44    18970    1   DCL DCB# UBIN ;
       45    18971    1   DCL DCB_NUM UBIN WORD;
       46    18972    1   DCL DCB$ PTR STATIC;
       47    18973    1   DCL BREAK_COUNT SBIN SYMREF;
       48    18974    1   DCL CODE1$ PTR;
       49    18975    1   DCL CODE6$ PTR;
       50    18976         %EJECT;
PL6.E3A0      #001=FLR$REQUALIFY File=FLR$REQUALIFY.:E05TSI                      TUE 07/29/97 16:17 Page:3
       51    18977        /***/
       52    18978        /** Process REQUALIFY commnad  **/
       53    18979        /***/
       54    18980    1         DISK_OPEN_NEXT.V.OPER.TEST# = %NO#;
       55    18981    1         CALL FLP$WR_FILE_INFO;
       56    18982    1         CALL FLN$DISK_IO_INIT;
       57    18983    2         DO WHILE('1'B);
       58    18984    2             CALL FLN$DISK_OPEN_NEXT(DCB$,DCB_NUM,DCB#,FIT_,ERR) ALTRET(DONE);
       59    18985    2             IF BREAK_COUNT > 0
       60    18986    2             THEN
       61    18987    3             DO;
       62    18988    3                 CALL FLN$DISK_CLOSE_ALL;
       63    18989    3                 RETURN;
       64    18990    3             END;
       65    18991    2             IF ERR
       66    18992    2             THEN
       67    18993    3             DO;
       68    18994    3               IF ERR.ERR# = %E$ADEOF
       69    18995    3                 THEN ;
       70    18996    3                 ELSE
       71    18997    3                     IF ERR.ERR# = %E$NOKEY OR ERR.ERR# = %E$FDEOF
       72    18998    3                       THEN;
       73    18999    3                        ELSE
       74    19000    4                        DO;
       75    19001    4                          CALL FLP$WR_FILE_INFO(DCB$,ADDR(NIL),BLANK6,0,' ', ,ERR,'1'B,
             19001                                   '0'B);
       76    19002    4                          CALL FLI$RPT_ERR(ERR,DCB_NUM);
       77    19003    4                          IF ERR.ERR# = %E$FILEBUSY OR ERR.ERR# = %E$NOACCESS
       78    19004    4                             OR ERR.ERR# = %E$JRNLERR OR ERR.ERR# = %E$BADFIT
       79    19005    4                             OR ERR.ERR# = %E$IOERR OR ERR.ERR# = %E$NOSHRDS
       80    19006    4                             OR ERR.ERR# = %E$BROKEN
       81    19007    4                             THEN IF FPT_EXIT.V.STEPCC# < %MINOR_ERROR
       82    19008    4                                  THEN FPT_EXIT.V.STEPCC# = %MINOR_ERROR;
       83    19009    4                                  ELSE ;
       84    19010    4                             ELSE
       85    19011    5                             DO;
       86    19012    5                               CALL FLN$DISK_CLOSE_ALL;
PL6.E3A0      #001=FLR$REQUALIFY File=FLR$REQUALIFY.:E05TSI                      TUE 07/29/97 16:17 Page:4
       87    19013    5                               RETURN;
       88    19014    5                             END;
       89    19015    4                        END;
       90    19016    3             END;
       91    19017    2             ELSE
       92    19018    3             DO;  /* NOT ERR */
       93    19019    3                 CALL FLC$CRIT_CHECK(DCB$,FIT_.PTR$)
       94    19020    3                 WHENRETURN
       95    19021    4                 DO;
       96    19022    4                    DISK_CLOSE_NEXT.V.EFTOPER.UPDDESC# = '1'B;
       97    19023    4                    DISK_CLOSE_NEXT.V.DESC = F$DCB.DESC|NEW_DISK_DESC;
       98    19024    4                    IF NEW_DISK_DESC.QS#
       99    19025    4                      THEN
      100    19026    5                      DO;
      101    19027    5                        CODE1$ = PINCRW(FIT_.PTR$,SIZEW(FM$GRAN));
      102    19028    5                        CALL XSF$LOCCODP(CODE1$,01)
      103    19029    6                        WHENRETURN DO;  /* If a CODE01 - must be actively stowed */
      104    19030    6                          DISK_CLOSE_NEXT.V.DESC.ACTIVE# = '1'B;
      105    19031    6                          END;
      106    19032    6                        WHENALTRETURN DO;           /* Must be inactively stowed */
      107    19033    6                          DISK_CLOSE_NEXT.V.DESC.ACTIVE# = '0'B;
      108    19034    6                          END;
      109    19035    5                      END;
      110    19036    4                    CALL FLP$WR_FILE_INFO(DCB$,FIT_.PTR$,BLANK6,0,' ', ,'000000000000'O
             19036                             ,'1'B,'0'B);
      111    19037    4                 END;
      112    19038    3             END; /* NOT ERR */
      113    19039    2             CALL FLN$DISK_CLOSE_NEXT(DCB#);
      114    19040    2         END;/* DO WHILE ('1'B) */
      115    19041    1   DONE:
      116    19042    1         CALL FLN$DISK_CLOSE_ALL;
      117    19043    1         RETURN;
      118    19044    1   END FLR$REQUALIFY;

PL6.E3A0      #001=FLR$REQUALIFY File=FLR$REQUALIFY.:E05TSI                      TUE 07/29/97 16:17 Page:5
--  Include file information  --

   FL_PERR_C.:E05TOU  is referenced.
   FLE_DATA_R.:E05TOU  cannot be made into a system file and is referenced.
   FLN_DATA_R.:E05TOU  cannot be made into a system file and is referenced.
   FM$FIT.:E05TOU  is referenced.
   FM$GRAN.:E05TOU  is referenced.
   B_MICROPS_C.:E05TOU  is referenced.
   FLB_SUBS_C.:E05TOU  is referenced.
   FLI_DATA_R.:E05TOU  cannot be made into a system file and is referenced.
   XU_SUBS_C.:E05TOU  is referenced.
   XU_MACRO_C.:E05TOU  is referenced.
   B_ERRORS_C.:E05TOU  is referenced.
   CP_6_SUBS.:E05TOU  is referenced.
   CP_6_C.:E05TOU  is referenced.
   CP_6.:E05TOU  cannot be made into a system file and is referenced.
      No diagnostics issued in procedure FLR$REQUALIFY.

   Procedure FLR$REQUALIFY requires 148 words for executable code.
   Procedure FLR$REQUALIFY requires 18 words of local(AUTO) storage.

    No errors detected in file FLR$REQUALIFY.:E05TSI    .

PL6.E3A0      #001=FLR$REQUALIFY File=FLR$REQUALIFY.:E05TSI                      TUE 07/29/97 16:17 Page:6

 Object Unit name= FLR$REQUALIFY                              File name= FLR$REQUALIFY.:E05TOU
 UTS= JUL 29 '97 16:17:27.32 TUE                              Compiler= PL-6/E31         Sev=      00
 SharedLib= :SHARED_SYSTEM                                    Alt SharedLib=


    ****  Control sections  ****

 Sect   Type Bound  Init  Size OctSiz  Section name(segment info)
    0   DCB   even  none     0      0  M$UC
    1   DCB   even  none     0      0  M$PRE_RET
    2   Data  even  none   100    144  FLR$REQUALIFY
    3   DCB   even  none     0      0  M$DISK_IN
    4   DCB   even  none     0      0  M$DISK00
    5   DCB   even  none     0      0  M$DISK01
    6   DCB   even  none     0      0  M$DISK02
    7   DCB   even  none     0      0  M$DISK03
    8   Proc  even  none   148    224  FLR$REQUALIFY
    9  RoData even  none    18     22  FLR$REQUALIFY

    ****  Entry defs  ****

                              Check   Calling
                             calling  sequence
  Sect OctLoc Primary Altret sequence   type   Parms  Name
     8      0   yes            yes      Std        0  FLR$REQUALIFY
PL6.E3A0      #001=FLR$REQUALIFY File=FLR$REQUALIFY.:E05TSI                      TUE 07/29/97 16:17 Page:7

  ****  Entry refs  ****

         Check        Calling
        calling       sequence
Altret sequence SRef   type   Args  Name
 yes     yes           Std       9 FLP$WR_FILE_INFO
         yes           Std       0 FLN$DISK_IO_INIT
 yes     yes           Std       5 FLN$DISK_OPEN_NEXT
         yes           Std       0 FLN$DISK_CLOSE_ALL
         yes           Std       5 FLI$RPT_ERR
 yes     yes           Std       2 FLC$CRIT_CHECK
 yes     yes           Std       2 XSF$LOCCODP
         yes           Std       1 FLN$DISK_CLOSE_NEXT
                       Std       0 B_CONSPOOL_D
                       nStd      0 X66_AUTO_0
                       nStd      0 X66_ARET

  ****  Data refs  ****

  Flags:  r = read only, s = secondary
Flgs Name                             Flgs Name                             Flgs Name
     M$UC                                  TAPE_DCBLIST$                         FPT_EXIT
     SNVECLIST$                            DPLIST$                               DPRESLIST$
     DISK_FILE_SPEC$                       SPECCHARS                             NEW_DISK_DESC
     EFTWORD                               M$PRE_RET                             RET_CMDS_NAME
     M$DISK_IN                             M$DISK00                              M$DISK01
     M$DISK02                              M$DISK03                              FROM_DISK_NAME
     FROM_DISK_ACCT                        FROM_DISK_SN                          DISK_OPEN_NEXT
     DISK_CLOSE_NEXT                       BREAK_COUNT                           B_VECTNIL

  ****  Segment refs  ****

  Flags:  r = read only, s = secondary
Flgs Name                             Flgs Name                             Flgs Name
     ISSID                                 NULLSID
PL6.E3A0      #001=FLR$REQUALIFY File=FLR$REQUALIFY.:E05TSI                      TUE 07/29/97 16:17 Page:8


        1        1        /*M* FLR$REQUALIFY Performs REQUALIFY command */
        2        2        /*T***********************************************************/
        3        3        /*T*                                                         */
        4        4        /*T* Copyright (c) Bull HN Information Systems Inc., 1997    */
        5        5        /*T*                                                         */
        6        6        /*T***********************************************************/
        7        7        /*P*  NAME: FLR$REQUALIFY
        8        8              PURPOSE: Process REQUALIFY  command
        9        9        */
       10       10        FLR$REQUALIFY: PROC ;

     10  8 000000   000000 700200 xent  FLR$REQUALI* TSX0  ! X66_AUTO_0
         8 000001   000022 000000                    ZERO    18,0

       11       11        /***/
       12       12        /** Includes **/
       13       13        /***/
       14       14        %INCLUDE CP_6;
       15     5573        %INCLUDE CP_6_SUBS;
       16     6113        %INCLUDE B_ERRORS_C;
       17     7240        %INCLUDE XU_MACRO_C;
       18    10346        %INCLUDE XU_SUBS_C;
       19    10438        %INCLUDE FLI_DATA_R;
       20    11852        %INCLUDE FM$GRAN;
       21    11921        %INCLUDE FM$FIT;
       22    12142        %INCLUDE FLN_DATA_R;
       23    12879        %INCLUDE FLE_DATA_R;
       24    18830        /***/
       25    18831        /** External procedures  **/
       26    18832        /***/
       27    18833    1   DCL FLC$CRIT_CHECK ENTRY (2) ALTRET;
       28    18834    1   DCL FLN$DISK_IO_INIT ENTRY;
       29    18835    1   DCL FLP$WR_FILE_INFO ENTRY(9) ALTRET;
       30    18836    1   DCL FLN$DISK_OPEN_NEXT ENTRY(5) ALTRET;
       31    18837    1   DCL FLN$DISK_CLOSE_NEXT ENTRY(1);
       32    18838    1   DCL FLN$DISK_CLOSE_ALL ENTRY;
PL6.E3A0      #001=FLR$REQUALIFY File=FLR$REQUALIFY.:E05TSI                      TUE 07/29/97 16:17 Page:9
       33    18839    1   DCL FLI$RPT_ERR ENTRY(5);
       34    18840    1   DCL XSF$LOCCODP ENTRY(2) ALTRET;
       35    18841        %FM$GRAN;
       36    18845        %F$DCB (STCLASS = "BASED(DCB$)");
       37    18902        %CODE06(BASED="BASED(CODE6$)");
       38    18906        %VLP_VECTOR (FPTN=FIT_,
       39    18907                     STCLASS = STATIC);
       40    18922
       41    18923        %VLP_ERRCODE (FPTN = ERR);
       42    18968
       43    18969    1   DCL BLANK6 CHAR(0) STATIC INIT('      ');
       44    18970    1   DCL DCB# UBIN ;
       45    18971    1   DCL DCB_NUM UBIN WORD;
       46    18972    1   DCL DCB$ PTR STATIC;
       47    18973    1   DCL BREAK_COUNT SBIN SYMREF;
       48    18974    1   DCL CODE1$ PTR;
       49    18975    1   DCL CODE6$ PTR;
       50    18976         %EJECT;
PL6.E3A0      #001=FLR$REQUALIFY File=FLR$REQUALIFY.:E05TSI                      TUE 07/29/97 16:17 Page:10
       51    18977        /***/
       52    18978        /** Process REQUALIFY commnad  **/
       53    18979        /***/
       54    18980    1         DISK_OPEN_NEXT.V.OPER.TEST# = %NO#;

  18980  8 000002   000000 236000 9                  LDQ     0
         8 000003   000044 356000 xsym               ANSQ    DISK_OPEN_NEXT+36

       55    18981    1         CALL FLP$WR_FILE_INFO;

  18981  8 000004   000002 631400 xsym               EPPR1   B_VECTNIL+2
         8 000005   000000 701000 xent               TSX1    FLP$WR_FILE_INFO
         8 000006   000000 011000                    NOP     0

       56    18982    1         CALL FLN$DISK_IO_INIT;

  18982  8 000007   000002 631400 xsym               EPPR1   B_VECTNIL+2
         8 000010   000000 701000 xent               TSX1    FLN$DISK_IO_INIT
         8 000011   000000 011000                    NOP     0

       57    18983    2         DO WHILE('1'B);

       58    18984    2             CALL FLN$DISK_OPEN_NEXT(DCB$,DCB_NUM,DCB#,FIT_,ERR) ALTRET(DONE);

  18984  8 000012   000001 236000 9                  LDQ     1
         8 000013   200014 756100                    STQ     CODE6$+6,,AUTO
         8 000014   000002 236000 9                  LDQ     2
         8 000015   200013 756100                    STQ     CODE6$+5,,AUTO
         8 000016   200003 630500                    EPPR0   DCB#,,AUTO
         8 000017   200012 450500                    STP0    CODE6$+4,,AUTO
         8 000020   200004 631500                    EPPR1   DCB_NUM,,AUTO
         8 000021   200011 451500                    STP1    CODE6$+3,,AUTO
         8 000022   000003 236000 9                  LDQ     3
         8 000023   200010 756100                    STQ     CODE6$+2,,AUTO
         8 000024   200010 630500                    EPPR0   CODE6$+2,,AUTO
         8 000025   000023 631400 xsym               EPPR1   B_VECTNIL+19
         8 000026   000000 701000 xent               TSX1    FLN$DISK_OPEN_NEXT
PL6.E3A0      #001=FLR$REQUALIFY File=FLR$REQUALIFY.:E05TSI                      TUE 07/29/97 16:17 Page:11
         8 000027   000220 702000 8                  TSX2    DONE

       59    18985    2             IF BREAK_COUNT > 0

  18985  8 000030   000000 235000 xsym               LDA     BREAK_COUNT
         8 000031   000036 604400 8                  TMOZ    s:18991

       60    18986    2             THEN
       61    18987    3             DO;

       62    18988    3                 CALL FLN$DISK_CLOSE_ALL;

  18988  8 000032   000002 631400 xsym               EPPR1   B_VECTNIL+2
         8 000033   000000 701000 xent               TSX1    FLN$DISK_CLOSE_ALL
         8 000034   000000 011000                    NOP     0

       63    18989    3                 RETURN;

  18989  8 000035   000000 702200 xent               TSX2  ! X66_ARET

       64    18990    3             END;
       65    18991    2             IF ERR

  18991  8 000036   000140 236000 2                  LDQ     ERR
         8 000037   000135 600000 8                  TZE     s:19019

       66    18992    2             THEN
       67    18993    3             DO;

       68    18994    3               IF ERR.ERR# = %E$ADEOF

  18994  8 000040   000140 236000 2                  LDQ     ERR
         8 000041   377770 376007                    ANQ     131064,DL
         8 000042   001750 116007                    CMPQ    1000,DL
         8 000043   000211 600000 8                  TZE     s:19039

       69    18995    3                 THEN ;
PL6.E3A0      #001=FLR$REQUALIFY File=FLR$REQUALIFY.:E05TSI                      TUE 07/29/97 16:17 Page:12
       70    18996    3                 ELSE
       71    18997    3                     IF ERR.ERR# = %E$NOKEY OR ERR.ERR# = %E$FDEOF

  18997  8 000044   001020 116007                    CMPQ    528,DL
         8 000045   000211 600000 8                  TZE     s:19039
         8 000046   001540 116007                    CMPQ    864,DL
         8 000047   000211 600000 8                  TZE     s:19039

       72    18998    3                       THEN;
       73    18999    3                        ELSE
       74    19000    4                        DO;

       75    19001    4                         CALL FLP$WR_FILE_INFO(DCB$,ADDR(NIL),BLANK6,0,' ', ,ERR,'1'B,
             19001                                   '0'B);

  19001  8 000050   000001 236000 xsym               LDQ     B_VECTNIL+1
         8 000051   200010 756100                    STQ     CODE6$+2,,AUTO
         8 000052   000006 237000 9                  LDAQ    6
         8 000053   200020 757100                    STAQ    CODE6$+10,,AUTO
         8 000054   000001 236000 9                  LDQ     1
         8 000055   000001 235000 xsym               LDA     B_VECTNIL+1
         8 000056   200016 757100                    STAQ    CODE6$+8,,AUTO
         8 000057   000010 237000 9                  LDAQ    8
         8 000060   200014 757100                    STAQ    CODE6$+6,,AUTO
         8 000061   000005 236000 9                  LDQ     5
         8 000062   200013 756100                    STQ     CODE6$+5,,AUTO
         8 000063   200010 630500                    EPPR0   CODE6$+2,,AUTO
         8 000064   200012 450500                    STP0    CODE6$+4,,AUTO
         8 000065   000003 236000 9                  LDQ     3
         8 000066   200011 756100                    STQ     CODE6$+3,,AUTO
         8 000067   200011 630500                    EPPR0   CODE6$+3,,AUTO
         8 000070   000004 631400 9                  EPPR1   4
         8 000071   000000 701000 xent               TSX1    FLP$WR_FILE_INFO
         8 000072   000000 011000                    NOP     0

       76    19002    4                          CALL FLI$RPT_ERR(ERR,DCB_NUM);

PL6.E3A0      #001=FLR$REQUALIFY File=FLR$REQUALIFY.:E05TSI                      TUE 07/29/97 16:17 Page:13
  19002  8 000073   200004 630500                    EPPR0   DCB_NUM,,AUTO
         8 000074   200011 450500                    STP0    CODE6$+3,,AUTO
         8 000075   000001 236000 9                  LDQ     1
         8 000076   200010 756100                    STQ     CODE6$+2,,AUTO
         8 000077   200010 630500                    EPPR0   CODE6$+2,,AUTO
         8 000100   000020 631400 xsym               EPPR1   B_VECTNIL+16
         8 000101   000000 701000 xent               TSX1    FLI$RPT_ERR
         8 000102   000000 011000                    NOP     0

       77    19003    4                          IF ERR.ERR# = %E$FILEBUSY OR ERR.ERR# = %E$NOACCESS

  19003  8 000103   000140 236000 2                  LDQ     ERR
         8 000104   377770 376007                    ANQ     131064,DL
         8 000105   001550 116007                    CMPQ    872,DL
         8 000106   000123 600000 8                  TZE     s:19007
         8 000107   001640 116007                    CMPQ    928,DL
         8 000110   000123 600000 8                  TZE     s:19007
         8 000111   001710 116007                    CMPQ    968,DL
         8 000112   000123 600000 8                  TZE     s:19007
         8 000113   002570 116007                    CMPQ    1400,DL
         8 000114   000123 600000 8                  TZE     s:19007
         8 000115   000100 116007                    CMPQ    64,DL
         8 000116   000123 600000 8                  TZE     s:19007
         8 000117   001740 116007                    CMPQ    992,DL
         8 000120   000123 600000 8                  TZE     s:19007
         8 000121   001350 116007                    CMPQ    744,DL
         8 000122   000131 601000 8                  TNZ     s:19012

       78    19004    4                             OR ERR.ERR# = %E$JRNLERR OR ERR.ERR# = %E$BADFIT
       79    19005    4                             OR ERR.ERR# = %E$IOERR OR ERR.ERR# = %E$NOSHRDS
       80    19006    4                             OR ERR.ERR# = %E$BROKEN
       81    19007    4                             THEN IF FPT_EXIT.V.STEPCC# < %MINOR_ERROR

  19007  8 000123   000004 236000 xsym               LDQ     FPT_EXIT+4
         8 000124   777000 316003                    CANQ    -512,DU
         8 000125   000211 601000 8                  TNZ     s:19039

PL6.E3A0      #001=FLR$REQUALIFY File=FLR$REQUALIFY.:E05TSI                      TUE 07/29/97 16:17 Page:14
       82    19008    4                                  THEN FPT_EXIT.V.STEPCC# = %MINOR_ERROR;

  19008  8 000126   001000 236003                    LDQ     512,DU
         8 000127   000004 552040 xsym               STBQ    FPT_EXIT+4,'40'O
         8 000130   000211 710000 8                  TRA     s:19039

       83    19009    4                                  ELSE ;
       84    19010    4                             ELSE
       85    19011    5                             DO;

       86    19012    5                               CALL FLN$DISK_CLOSE_ALL;

  19012  8 000131   000002 631400 xsym               EPPR1   B_VECTNIL+2
         8 000132   000000 701000 xent               TSX1    FLN$DISK_CLOSE_ALL
         8 000133   000000 011000                    NOP     0

       87    19013    5                               RETURN;

  19013  8 000134   000000 702200 xent               TSX2  ! X66_ARET

       88    19014    5                             END;
       89    19015    4                        END;
       90    19016    3             END;
       91    19017    2             ELSE
       92    19018    3             DO;  /* NOT ERR */

       93    19019    3                 CALL FLC$CRIT_CHECK(DCB$,FIT_.PTR$)

  19019  8 000135   000012 630400 9                  EPPR0   10
         8 000136   000020 631400 xsym               EPPR1   B_VECTNIL+16
         8 000137   000000 701000 xent               TSX1    FLC$CRIT_CHECK
         8 000140   000211 702000 8                  TSX2    s:19039

       94    19020    3                 WHENRETURN
       95    19021    4                 DO;

       96    19022    4                    DISK_CLOSE_NEXT.V.EFTOPER.UPDDESC# = '1'B;
PL6.E3A0      #001=FLR$REQUALIFY File=FLR$REQUALIFY.:E05TSI                      TUE 07/29/97 16:17 Page:15

  19022  8 000141   004000 236007                    LDQ     2048,DL
         8 000142   000032 256000 xsym               ORSQ    DISK_CLOSE_NEXT+26

       97    19023    4                    DISK_CLOSE_NEXT.V.DESC = F$DCB.DESC|NEW_DISK_DESC;

  19023  8 000143   000143 470400 2                  LDP0    DCB$
         8 000144   000005 720100                    LXL0    5,,PR0
         8 000145   000000 260000 xsym               ORX0    NEW_DISK_DESC
         8 000146   000033 740000 xsym               STX0    DISK_CLOSE_NEXT+27

       98    19024    4                    IF NEW_DISK_DESC.QS#

  19024  8 000147   000000 236000 xsym               LDQ     NEW_DISK_DESC
         8 000150   010000 316003                    CANQ    4096,DU
         8 000151   000172 600000 8                  TZE     s:19036

       99    19025    4                      THEN
      100    19026    5                      DO;

      101    19027    5                        CODE1$ = PINCRW(FIT_.PTR$,SIZEW(FM$GRAN));

  19027  8 000152   000137 236000 2                  LDQ     FIT_+1
         8 000153   000005 036003                    ADLQ    5,DU
         8 000154   200005 756100                    STQ     CODE1$,,AUTO

      102    19028    5                        CALL XSF$LOCCODP(CODE1$,01)

  19028  8 000155   000014 236000 9                  LDQ     12
         8 000156   200011 756100                    STQ     CODE6$+3,,AUTO
         8 000157   200005 631500                    EPPR1   CODE1$,,AUTO
         8 000160   200010 451500                    STP1    CODE6$+2,,AUTO
         8 000161   200010 630500                    EPPR0   CODE6$+2,,AUTO
         8 000162   000020 631400 xsym               EPPR1   B_VECTNIL+16
         8 000163   000000 701000 xent               TSX1    XSF$LOCCODP
         8 000164   000170 702000 8                  TSX2    s:19033

PL6.E3A0      #001=FLR$REQUALIFY File=FLR$REQUALIFY.:E05TSI                      TUE 07/29/97 16:17 Page:16
      103    19029    6                        WHENRETURN DO;  /* If a CODE01 - must be actively stowed */

      104    19030    6                          DISK_CLOSE_NEXT.V.DESC.ACTIVE# = '1'B;

  19030  8 000165   000100 236003                    LDQ     64,DU
         8 000166   000033 256000 xsym               ORSQ    DISK_CLOSE_NEXT+27

      105    19031    6                          END;

  19031  8 000167   000172 710000 8                  TRA     s:19036

      106    19032    6                        WHENALTRETURN DO;           /* Must be inactively stowed */

      107    19033    6                          DISK_CLOSE_NEXT.V.DESC.ACTIVE# = '0'B;

  19033  8 000170   000015 236000 9                  LDQ     13
         8 000171   000033 356000 xsym               ANSQ    DISK_CLOSE_NEXT+27

      108    19034    6                          END;

      109    19035    5                      END;

      110    19036    4                   CALL FLP$WR_FILE_INFO(DCB$,FIT_.PTR$,BLANK6,0,' ', ,'000000000000'O
             19036                             ,'1'B,'0'B);

  19036  8 000172   000007 236000 9                  LDQ     7
         8 000173   200020 756100                    STQ     CODE6$+10,,AUTO
         8 000174   000016 237000 9                  LDAQ    14
         8 000175   200016 757100                    STAQ    CODE6$+8,,AUTO
         8 000176   000001 236000 xsym               LDQ     B_VECTNIL+1
         8 000177   000011 235000 9                  LDA     9
         8 000200   200014 757100                    STAQ    CODE6$+6,,AUTO
         8 000201   000020 237000 9                  LDAQ    16
         8 000202   200012 757100                    STAQ    CODE6$+4,,AUTO
         8 000203   000012 237000 9                  LDAQ    10
         8 000204   200010 757100                    STAQ    CODE6$+2,,AUTO
         8 000205   200010 630500                    EPPR0   CODE6$+2,,AUTO
PL6.E3A0      #001=FLR$REQUALIFY File=FLR$REQUALIFY.:E05TSI                      TUE 07/29/97 16:17 Page:17
         8 000206   000004 631400 9                  EPPR1   4
         8 000207   000000 701000 xent               TSX1    FLP$WR_FILE_INFO
         8 000210   000000 011000                    NOP     0

      111    19037    4                 END;

      112    19038    3             END; /* NOT ERR */

      113    19039    2             CALL FLN$DISK_CLOSE_NEXT(DCB#);

  19039  8 000211   200003 630500                    EPPR0   DCB#,,AUTO
         8 000212   200010 450500                    STP0    CODE6$+2,,AUTO
         8 000213   200010 630500                    EPPR0   CODE6$+2,,AUTO
         8 000214   000017 631400 xsym               EPPR1   B_VECTNIL+15
         8 000215   000000 701000 xent               TSX1    FLN$DISK_CLOSE_NEXT
         8 000216   000000 011000                    NOP     0

      114    19040    2         END;/* DO WHILE ('1'B) */

  19040  8 000217   000012 710000 8                  TRA     s:18984

      115    19041    1   DONE:
      116    19042    1         CALL FLN$DISK_CLOSE_ALL;

  19042  8 000220   000002 631400 xsym  DONE         EPPR1   B_VECTNIL+2
         8 000221   000000 701000 xent               TSX1    FLN$DISK_CLOSE_ALL
         8 000222   000000 011000                    NOP     0

      117    19043    1         RETURN;

  19043  8 000223   000000 702200 xent               TSX2  ! X66_ARET
      118    19044    1   END FLR$REQUALIFY;

PL6.E3A0      #001=FLR$REQUALIFY File=FLR$REQUALIFY.:E05TSI                      TUE 07/29/97 16:17 Page:18
--  Include file information  --

   FL_PERR_C.:E05TOU  is referenced.
   FLE_DATA_R.:E05TOU  cannot be made into a system file and is referenced.
   FLN_DATA_R.:E05TOU  cannot be made into a system file and is referenced.
   FM$FIT.:E05TOU  is referenced.
   FM$GRAN.:E05TOU  is referenced.
   B_MICROPS_C.:E05TOU  is referenced.
   FLB_SUBS_C.:E05TOU  is referenced.
   FLI_DATA_R.:E05TOU  cannot be made into a system file and is referenced.
   XU_SUBS_C.:E05TOU  is referenced.
   XU_MACRO_C.:E05TOU  is referenced.
   B_ERRORS_C.:E05TOU  is referenced.
   CP_6_SUBS.:E05TOU  is referenced.
   CP_6_C.:E05TOU  is referenced.
   CP_6.:E05TOU  cannot be made into a system file and is referenced.
      No diagnostics issued in procedure FLR$REQUALIFY.
PL6.E3A0      #001=FLR$REQUALIFY File=FLR$REQUALIFY.:E05TSI                      TUE 07/29/97 16:17 Page:19

 **** Variables and constants ****

  ****  Section 002  Data  FLR$REQUALIFY

  ****  Scalars and arrays  ****
OctLoc.c.b A Datatyp(siz) R M Lvl/name                 OctLoc.c.b A Datatyp(siz) R M Lvl/name

   141-0-0/c CHAR(6)     r     1 BLANK6                   100-0-0/d STRC(1080)  r     1 CLOSE_BLOCK_FILE
   143-0-0/w PTR         r     1 DCB$                     140-0-0/w STRC        r     1 ERR
   136-0-0/d STRC(72)    r     1 FIT_                       6-0-0/d STRC(2088)  r     1 OPEN_BLOCK_FILE

  ****  Auto variables  ****

  ****  Scalars and arrays  ****
OctLoc.c.b A Datatyp(siz) R M Lvl/name                 OctLoc.c.b A Datatyp(siz) R M Lvl/name

     5-0-0/w PTR         r     1 CODE1$                     6-0-0/w PTR         r     1 CODE6$
     3-0-0/w UBIN        r     1 DCB#                       4-0-0/w UBIN        r     1 DCB_NUM

  ****  SYMREF variables  ****

  ****  Scalars and arrays  ****
OctLoc.c.b A Datatyp(siz) R M Lvl/name                 OctLoc.c.b A Datatyp(siz) R M Lvl/name

     0-0-0/w SBIN        r     1 BREAK_COUNT                0-0-0/d STRC(1080)  r     1 DISK_CLOSE_NEXT
     0-0-0/w PTR         r     1 DISK_FILE_SPEC$            0-0-0/d STRC(2088)  r     1 DISK_OPEN_NEXT
     0-0-0/w PTR         r     1 DPLIST$                    0-0-0/w PTR         r     1 DPRESLIST$
     0-0-0/d STRC(216)   r     1 FPT_EXIT                   0-0-0/c STRC(72)    r     1 FROM_DISK_ACCT
     0-0-0/c STRC(288)   r     1 FROM_DISK_NAME             0-0-0/d STRC(90)    r     1 FROM_DISK_SN
     0-0-0/b STRC(18)    r     1 NEW_DISK_DESC              0-0-0/c ASTR(9)     r     1 RET_CMDS_NAME
     0-0-0/w PTR         r     1 SNVECLIST$                 0-0-0/w PTR         r     1 TAPE_DCBLIST$

  ****  BASED and DCB variables  ****

  ****  Scalars and arrays  ****
OctLoc.c.b A Datatyp(siz) R M Lvl/name                 OctLoc.c.b A Datatyp(siz) R M Lvl/name

PL6.E3A0      #001=FLR$REQUALIFY File=FLR$REQUALIFY.:E05TSI                      TUE 07/29/97 16:17 Page:20
     0-0-0/d ASTR(3528)  r     1 F$DCB                      0-0-0/w STRC(180)   r     1 FM$GRAN
     0-0-0N  NULL        r     1 M$DISK_IN


   Procedure FLR$REQUALIFY requires 148 words for executable code.
   Procedure FLR$REQUALIFY requires 18 words of local(AUTO) storage.

    No errors detected in file FLR$REQUALIFY.:E05TSI    .
PL6.E3A0      #001=FLR$REQUALIFY File=FLR$REQUALIFY.:E05TSI                      TUE 07/29/97 16:17 Page:21
          *** CROSS REFERENCE LISTING ***
**     DENOTES     IDENTIFIER DEFINITION
<<                 IDENTIFIER'S VALUE SET
>>                 IDENTIFIER'S VALUE USED
<>                 IDENTIFIER SET AND/OR USED
--                 IDENTIFIER REFERENCED
PL6.E3A0      #001=FLR$REQUALIFY File=FLR$REQUALIFY.:E05TSI                      TUE 07/29/97 16:17 Page:22
          MINI XREF LISTING

BLANK6
     18969**DCL     19001<>CALL    19036<>CALL
BREAK_COUNT
     18973**DCL     18985>>IF
CLOSE_BLOCK_FILE.SN_
     12821**DCL     12821--REDEF
CLOSE_BLOCK_FILE.UTL_
     12822**DCL     12822--REDEF
CLOSE_BLOCK_FILE.V
     12826**DCL     12821--DCLINIT
CLOSE_BLOCK_FILE.V.EXPIRE#
     12836**DCL     12836--REDEF
CLOSE_BLOCK_FILE.V.TYPE#
     12834**DCL     12834--REDEF
CLOSE_BLOCK_FILE.V.XTNSIZE#
     12831**DCL     12831--REDEF   12833--REDEF
CODE06.STOW.EFT
     18903**DCL     18904--REDEF
CODE1$
     18974**DCL     19027<<ASSIGN  19028<>CALL
CODE6$
     18975**DCL     18903--IMP-PTR
DCB#
     18970**DCL     18984<>CALL    19039<>CALL
DCB$
     18972**DCL     18846--IMP-PTR 18984<>CALL    19001<>CALL    19019<>CALL    19023>>ASSIGN  19036<>CALL
DCB_NUM
     18971**DCL     18984<>CALL    19002<>CALL
DISK_CLOSE.SN_
     11049**DCL     11049--REDEF
DISK_CLOSE.UTL_
     11050**DCL     11050--REDEF
PL6.E3A0      #001=FLR$REQUALIFY File=FLR$REQUALIFY.:E05TSI                      TUE 07/29/97 16:17 Page:23
DISK_CLOSE.V.EXPIRE#
     11064**DCL     11064--REDEF
DISK_CLOSE.V.TYPE#
     11062**DCL     11062--REDEF
DISK_CLOSE.V.XTNSIZE#
     11059**DCL     11059--REDEF   11061--REDEF
DISK_CLOSE_NEXT.SN_
     12518**DCL     12518--REDEF
DISK_CLOSE_NEXT.UTL_
     12519**DCL     12519--REDEF
DISK_CLOSE_NEXT.V.DESC
     12528**DCL     19023<<ASSIGN
DISK_CLOSE_NEXT.V.DESC.ACTIVE#
     12530**DCL     19030<<ASSIGN  19033<<ASSIGN
DISK_CLOSE_NEXT.V.EFTOPER.UPDDESC#
     12526**DCL     19022<<ASSIGN
DISK_CLOSE_NEXT.V.EXPIRE#
     12533**DCL     12533--REDEF
DISK_CLOSE_NEXT.V.TYPE#
     12531**DCL     12531--REDEF
DISK_CLOSE_NEXT.V.XTNSIZE#
     12528**DCL     12528--REDEF   12530--REDEF
DISK_CLOSE_ORDINARY.SN_
     12560**DCL     12560--REDEF
DISK_CLOSE_ORDINARY.UTL_
     12561**DCL     12561--REDEF
DISK_CLOSE_ORDINARY.V.EXPIRE#
     12575**DCL     12575--REDEF
DISK_CLOSE_ORDINARY.V.TYPE#
     12573**DCL     12573--REDEF
DISK_CLOSE_ORDINARY.V.XTNSIZE#
     12570**DCL     12570--REDEF   12572--REDEF
DISK_FILE_SPEC.SPEC
     11414**DCL     11416--REDEF
DISK_FILE_SPEC.SPEC.START
     11415**DCL     11415--REDEF
PL6.E3A0      #001=FLR$REQUALIFY File=FLR$REQUALIFY.:E05TSI                      TUE 07/29/97 16:17 Page:24
DISK_FILE_SPEC.SPEC.STOP
     11416**DCL     11416--REDEF
DISK_FILE_SPEC$
     11413**DCL     11414--IMP-PTR
DISK_OPEN.ACSVEH_
     10914**DCL     10915--REDEF
DISK_OPEN.ALTKEYS_
     10920**DCL     10921--REDEF   10921--REDEF
DISK_OPEN.HDR_
     10919**DCL     10920--REDEF
DISK_OPEN.TAB_
     10918**DCL     10919--REDEF
DISK_OPEN.UHL_
     10912**DCL     10913--REDEF   10913--REDEF
DISK_OPEN.V.FSN#
     10952**DCL     10952--REDEF   10952--REDEF
DISK_OPEN.WSN_
     10918**DCL     10918--REDEF
DISK_OPEN_NEXT.ACSVEH_
     12344**DCL     12345--REDEF
DISK_OPEN_NEXT.ALTKEYS_
     12350**DCL     12351--REDEF   12351--REDEF
DISK_OPEN_NEXT.HDR_
     12349**DCL     12350--REDEF
DISK_OPEN_NEXT.TAB_
     12348**DCL     12349--REDEF
DISK_OPEN_NEXT.UHL_
     12342**DCL     12343--REDEF   12343--REDEF
DISK_OPEN_NEXT.V.FSN#
     12382**DCL     12382--REDEF   12382--REDEF
DISK_OPEN_NEXT.V.OPER.TEST#
     12353**DCL     18980<<ASSIGN
DISK_OPEN_NEXT.WSN_
     12348**DCL     12348--REDEF
DISK_OPEN_ORDINARY.ACSVEH_
     12453**DCL     12454--REDEF
PL6.E3A0      #001=FLR$REQUALIFY File=FLR$REQUALIFY.:E05TSI                      TUE 07/29/97 16:17 Page:25
DISK_OPEN_ORDINARY.ALTKEYS_
     12459**DCL     12460--REDEF   12460--REDEF
DISK_OPEN_ORDINARY.HDR_
     12458**DCL     12459--REDEF
DISK_OPEN_ORDINARY.TAB_
     12457**DCL     12458--REDEF
DISK_OPEN_ORDINARY.UHL_
     12451**DCL     12452--REDEF   12452--REDEF
DISK_OPEN_ORDINARY.V.FSN#
     12491**DCL     12491--REDEF   12491--REDEF
DISK_OPEN_ORDINARY.WSN_
     12457**DCL     12457--REDEF
DISK_READ.STATION_
     10976**DCL     10977--REDEF
DISK_READ.V.DVBYTE.REREAD#
     10988**DCL     10988--REDEF
DISK_READ.V.INDX#
     10986**DCL     10986--REDEF
DISK_WRITE.STATION_
     11014**DCL     11014--REDEF
DISK_WRITE.V.DVBYTE.VFC#
     11021**DCL     11021--REDEF
DONE
     19042**LABEL   18984--CALLALT
DPLIST$
     11399**DCL     11411--IMP-PTR
DPRESLIST$
     11413**DCL     11413--IMP-PTR
EFTWORD
     11534**DCL     11534--REDEF
ERR
     18935**DCL     18984<>CALL    18991>>IF      19001<>CALL    19002<>CALL
ERR.ERR#
     18965**DCL     18994>>IF      18997>>IF      18997>>IF      19003>>IF      19003>>IF      19003>>IF
     19003>>IF      19003>>IF      19003>>IF      19003>>IF
F$DCB.ACTPOS
PL6.E3A0      #001=FLR$REQUALIFY File=FLR$REQUALIFY.:E05TSI                      TUE 07/29/97 16:17 Page:26
     18878**DCL     18878--REDEF
F$DCB.ARS#
     18852**DCL     18852--REDEF
F$DCB.ATTR
     18871**DCL     18872--REDEF
F$DCB.BORROW
     18886**DCL     18886--REDEF   18886--REDEF   18886--REDEF
F$DCB.DCBNAME.L
     18900**DCL     18900--IMP-SIZ
F$DCB.DESC
     18859**DCL     19023>>ASSIGN
F$DCB.EOMCHAR#
     18856**DCL     18856--REDEF
F$DCB.FLDID
     18881**DCL     18881--REDEF
F$DCB.FORM$
     18875**DCL     18875--REDEF
F$DCB.FSECT
     18891**DCL     18891--REDEF
F$DCB.FSN#
     18868**DCL     18868--REDEF   18868--REDEF   18869--REDEF
F$DCB.HEADER$
     18874**DCL     18874--REDEF
F$DCB.IXTNSIZE#
     18872**DCL     18872--REDEF
F$DCB.LASTSTA$
     18861**DCL     18861--REDEF
F$DCB.LVL
     18887**DCL     18887--REDEF
F$DCB.NAME#.C
     18862**DCL     18862--REDEF
F$DCB.NOEOF
     18884**DCL     18884--REDEF
F$DCB.NRECS#
     18873**DCL     18873--REDEF
F$DCB.NRECX
PL6.E3A0      #001=FLR$REQUALIFY File=FLR$REQUALIFY.:E05TSI                      TUE 07/29/97 16:17 Page:27
     18892**DCL     18892--REDEF
F$DCB.OHDR
     18884**DCL     18884--REDEF
F$DCB.ORG#
     18867**DCL     18867--REDEF
F$DCB.PRECNO
     18890**DCL     18890--REDEF
F$DCB.RCSZ
     18896**DCL     18896--REDEF
F$DCB.RES#
     18863**DCL     18863--REDEF
F$DCB.SETX
     18875**DCL     18875--REDEF
F$DCB.TAB$
     18875**DCL     18875--REDEF
F$DCB.TDA
     18889**DCL     18890--REDEF
F$DCB.WSN#
     18863**DCL     18863--REDEF
FIT_
     18918**DCL     18984<>CALL
FIT_.PTR$
     18920**DCL     19019<>CALL    19027>>ASSIGN  19036<>CALL
FIT_.W2
     18919**DCL     18920--REDEF
FLC$CRIT_CHECK
     18833**DCL-ENT 19019--CALL
FLI$RPT_ERR
     18839**DCL-ENT 19002--CALL
FLN$DISK_CLOSE_ALL
     18838**DCL-ENT 18988--CALL    19012--CALL    19042--CALL
FLN$DISK_CLOSE_NEXT
     18837**DCL-ENT 19039--CALL
FLN$DISK_IO_INIT
     18834**DCL-ENT 18982--CALL
FLN$DISK_OPEN_NEXT
PL6.E3A0      #001=FLR$REQUALIFY File=FLR$REQUALIFY.:E05TSI                      TUE 07/29/97 16:17 Page:28
     18836**DCL-ENT 18984--CALL
FLP$WR_FILE_INFO
     18835**DCL-ENT 18981--CALL    19001--CALL    19036--CALL
FM$GRAN
     18842**DCL     19027--ASSIGN
FPT_EXIT.V.STEPCC#
     10839**DCL     10839--REDEF   19007>>IF      19008<<ASSIGN
FROM_DISK_ACCT
     12235**DCL     12759--DCLINIT
FROM_DISK_NAME
     12209**DCL     12755--DCLINIT
FROM_DISK_SN
     12261**DCL     12754--DCLINIT
NEW_DISK_DESC
     11433**DCL     19023>>ASSIGN
NEW_DISK_DESC.QS#
     11434**DCL     19024>>IF
OPEN_BLOCK_FILE.ACSVEH_
     12756**DCL     12757--REDEF
OPEN_BLOCK_FILE.ALTKEYS_
     12762**DCL     12763--REDEF   12763--REDEF
OPEN_BLOCK_FILE.HDR_
     12761**DCL     12762--REDEF
OPEN_BLOCK_FILE.TAB_
     12760**DCL     12761--REDEF
OPEN_BLOCK_FILE.UHL_
     12754**DCL     12755--REDEF   12755--REDEF
OPEN_BLOCK_FILE.V
     12763**DCL     12754--DCLINIT
OPEN_BLOCK_FILE.V.FSN#
     12794**DCL     12794--REDEF   12794--REDEF
OPEN_BLOCK_FILE.WSN_
     12760**DCL     12760--REDEF
PRE_RET_CLOSE.SN_
     11777**DCL     11777--REDEF
PRE_RET_CLOSE.UTL_
PL6.E3A0      #001=FLR$REQUALIFY File=FLR$REQUALIFY.:E05TSI                      TUE 07/29/97 16:17 Page:29
     11778**DCL     11778--REDEF
PRE_RET_CLOSE.V.EXPIRE#
     11792**DCL     11792--REDEF
PRE_RET_CLOSE.V.TYPE#
     11790**DCL     11790--REDEF
PRE_RET_CLOSE.V.XTNSIZE#
     11787**DCL     11787--REDEF   11789--REDEF
PRE_RET_OPEN.ACSVEH_
     11712**DCL     11713--REDEF
PRE_RET_OPEN.ALTKEYS_
     11718**DCL     11719--REDEF   11719--REDEF
PRE_RET_OPEN.HDR_
     11717**DCL     11718--REDEF
PRE_RET_OPEN.TAB_
     11716**DCL     11717--REDEF
PRE_RET_OPEN.UHL_
     11710**DCL     11711--REDEF   11711--REDEF
PRE_RET_OPEN.V.FSN#
     11750**DCL     11750--REDEF   11750--REDEF
PRE_RET_OPEN.WSN_
     11716**DCL     11716--REDEF
PRE_RET_READ.STATION_
     11567**DCL     11568--REDEF
PRE_RET_READ.V.DVBYTE.REREAD#
     11579**DCL     11579--REDEF
PRE_RET_READ.V.INDX#
     11577**DCL     11577--REDEF
PRE_RET_WRITE.STATION_
     11605**DCL     11605--REDEF
PRE_RET_WRITE.V.DVBYTE.VFC#
     11612**DCL     11612--REDEF
READ_AD_OR_FD.ACSVEH_
     12646**DCL     12647--REDEF
READ_AD_OR_FD.ALTKEYS_
     12652**DCL     12653--REDEF   12653--REDEF
READ_AD_OR_FD.HDR_
PL6.E3A0      #001=FLR$REQUALIFY File=FLR$REQUALIFY.:E05TSI                      TUE 07/29/97 16:17 Page:30
     12651**DCL     12652--REDEF
READ_AD_OR_FD.TAB_
     12650**DCL     12651--REDEF
READ_AD_OR_FD.UHL_
     12644**DCL     12645--REDEF   12645--REDEF
READ_AD_OR_FD.V.FSN#
     12684**DCL     12684--REDEF   12684--REDEF
READ_AD_OR_FD.WSN_
     12650**DCL     12650--REDEF
RET_CMDS_NAME.L#
     11821**DCL     11821--IMP-SIZ
SNVECLIST$
     11353**DCL     11353--IMP-PTR
SPEC.START
     11417**DCL     11418--REDEF
SPEC.STOP
     11418**DCL     11419--REDEF
SPECCHARS
     11417**DCL     11417--REDEF
TAPE_CLOSE.SN_
     11270**DCL     11270--REDEF
TAPE_CLOSE.UTL_
     11271**DCL     11271--REDEF
TAPE_CLOSE.V.EXPIRE#
     11285**DCL     11285--REDEF
TAPE_CLOSE.V.TYPE#
     11283**DCL     11283--REDEF
TAPE_CLOSE.V.XTNSIZE#
     11280**DCL     11280--REDEF   11282--REDEF
TAPE_DCBLIST$
     10826**DCL     10826--IMP-PTR
TAPE_OPEN.ACSVEH_
     11135**DCL     11136--REDEF
TAPE_OPEN.ALTKEYS_
     11141**DCL     11142--REDEF   11142--REDEF
TAPE_OPEN.HDR_
PL6.E3A0      #001=FLR$REQUALIFY File=FLR$REQUALIFY.:E05TSI                      TUE 07/29/97 16:17 Page:31
     11140**DCL     11141--REDEF
TAPE_OPEN.TAB_
     11139**DCL     11140--REDEF
TAPE_OPEN.UHL_
     11133**DCL     11134--REDEF   11134--REDEF
TAPE_OPEN.V.FSN#
     11173**DCL     11173--REDEF   11173--REDEF
TAPE_OPEN.WSN_
     11139**DCL     11139--REDEF
TAPE_READ.STATION_
     11197**DCL     11198--REDEF
TAPE_READ.V.DVBYTE.REREAD#
     11209**DCL     11209--REDEF
TAPE_READ.V.INDX#
     11207**DCL     11207--REDEF
TAPE_WRITE.STATION_
     11235**DCL     11235--REDEF
TAPE_WRITE.V.DVBYTE.VFC#
     11242**DCL     11242--REDEF
TVECTOR.W2
     11366**DCL     11367--REDEF
XSF$LOCCODP
     18840**DCL-ENT 19028--CALL
