PL6.E3A0      #004=FLS$FLUSH_BLOCK File=FLS$FILE_PACKER.:E05TSI                  TUE 07/29/97 16:25 Page:179
      845        1        /*T***********************************************************/
      846        2        /*T*                                                         */
      847        3        /*T* Copyright (c) Bull HN Information Systems Inc., 1997    */
      848        4        /*T*                                                         */
      849        5        /*T***********************************************************/
      850        6        FLS$FLUSH_BLOCK: PROC( NOT_END, COMMAND, NEW_TSN, NEW_FSN ) ALTRET;
      851        7        /*F*  NAME: FLS$FLUSH_BLOCK
      852        8              PURPOSE: Flush current tape block to tape.
      853        9        */
      854       10
      855       11    1   DCL NOT_END BIT(1) ALIGNED;   /* Indicates if more of current file present    */
      856       12    1   DCL COMMAND SBIN ALIGNED;
      857       13    1   DCL NEW_TSN CHAR(6) CALIGNED; /* New current TSN returned on IOERRCONT,I-O err */
      858       14    1   DCL NEW_FSN UBIN WORD ALIGNED; /* New current FSN returned on IOERRCONT,I-O err */
      859       15
      860       16        /***
      861       17         *** INCLUDE
      862       18         ***/
      863       19
      864       20        %INCLUDE B_ERRORS_C;
      865     1147        %INCLUDE CP_6;
      866     6706        %INCLUDE FLE_DATA_R;
      867    12657        %INCLUDE FLI_DATA_R;
      868    14071        %INCLUDE FLS_DATA_R;
      869    15871        %INCLUDE FLN_DATA_R;
      870    16608
      871    16609        /***
      872    16610         *** ENTRY
      873    16611         ***/
      874    16612
      875    16613    1   DCL FLI$RPT_ERR ENTRY(5);
      876    16614    1   DCL FLI$TAPE_CLOSE ENTRY(1) ALTRET;
      877    16615    1   DCL FLI$TAPE_OPEN ENTRY(9) ALTRET;
      878    16616    1   DCL FLI$TAPE_WRITE ENTRY(6) ALTRET;
      879    16617    1   DCL FLP$WR_FILE_INFO ENTRY(9) ALTRET;
      880    16618    1   DCL FLE$ESTMOD ENTRY(1);
      881    16619
PL6.E3A0      #004=FLS$FLUSH_BLOCK File=FLS$FILE_PACKER.:E05TSI                  TUE 07/29/97 16:25 Page:180
      882    16620        /***
      883    16621         *** AUTO
      884    16622         ***/
      885    16623
      886    16624    1   DCL DCB# SBIN AUTO;
      887    16625    1   DCL I SBIN AUTO;
      888    16626    1   DCL 1 ERR ALIGNED AUTO,
      889    16627    1         2 * BIT(12) UNAL,
      890    16628    1         2 * BIT(6) UNAL,
      891    16629    1         2 * BIT(1) UNAL,
      892    16630    1         2 CODE UBIN(14) UNAL,
      893    16631    1         2 * UBIN(3) UNAL;
      894    16632    1   DCL NEW_BLK_TAG$ PTR AUTO;
      895    16633    1   DCL TEMP_TSN CHAR(6) AUTO;
      896    16634    1   DCL TEMP_FSN UBIN WORD AUTO;
      897    16635
      898    16636        /***
      899    16637         *** STATIC
      900    16638         ***/
      901    16639
      902    16640    1   DCL PREV_LOW_BLK_TAG_BEG BIT(1) STATIC; /* Previous block tag beginning flag  */
      903    16641
      904    16642        /***
      905    16643         ***  SYMREF
      906    16644         ***/
      907    16645
      908    16646
      909    16647        /***
      910    16648         *** BASED
      911    16649         ***/
      912    16650
      913    16651        %F$DCB;
      914    16708
      915    16709        /****************************************/
      916    16710
      917    16711        /***
      918    16712         *** Write from first lowest block tag through highest file granule.
PL6.E3A0      #004=FLS$FLUSH_BLOCK File=FLS$FILE_PACKER.:E05TSI                  TUE 07/29/97 16:25 Page:181
      919    16713         ***/
      920    16714
      921    16715    1      OUTBUF_.PTR$ = LOW_BLK_TAG$;
      922    16716
      923    16717        /***
      924    16718         *** Set TAPE_SN for OD as it will only get set the first time through
      925    16719         *** (first OPEN). This must be done due to no CVOL control for OD.
      926    16720         ***/
      927    16721    1      IF SUBSTR(TAPE_DCBLIST.DCB$(0)->F$DCB.RES#,0,2) = 'OD'
      928    16722    1       THEN TAPE_SN = TAPE_DCBLIST.DCB$(0)->F$DCB.PSN#;
      929    16723
      930    16724    1      TEMP_FSN = 0;
      931    16725    1      TEMP_TSN = ' ';
      932    16726    1      CALL FLI$TAPE_WRITE( OUTBUF_, POFFC( BLOCK_GRAN$, LOW_BLK_TAG$ ), EOVOL, COMMAND,
             16726               TEMP_TSN, TEMP_FSN ) ALTRET( WHATS_MISSING );
      933    16727        /***
      934    16728         *** If a SN change when IO ERR CONTINUE set, the previous block (already
      935    16729         *** written to tape) and the current block wil get rewritten to the next tape. If
      936    16730         *** this file begins in the current block or the previous block, must return new
      937    16731         *** SN and FSN so fit gets updated properly by FLM$MOVE routine.
      938    16732         ***/
      939    16733    1      IF (TAPE_WRITE.V.IOERROK#
      940    16734    1        AND TEMP_TSN ~= ' '
      941    16735    1        AND (LOW_BLK_TAG$->BLK_TAG.BEG     /* Current block                      */
      942    16736    1        OR PREV_LOW_BLK_TAG_BEG))          /* Previous block                     */
      943    16737    2       THEN DO;
      944    16738    2         NEW_TSN = TEMP_TSN;
      945    16739    2         NEW_FSN = TEMP_FSN;
      946    16740    2         END;
      947    16741
      948    16742    1      NBR_FILE_BLOCKS = NBR_FILE_BLOCKS + 1;
      949    16743
      950    16744    1      IF LAST_TSN_USED ~= TAPE_SN
      951    16745    2       THEN DO;                            /* New reel                           */
      952    16746    2         TSN_VOL = TSN_VOL + 1;
      953    16747        /***
      954    16748         *** If it is ARCHIVing and tapeset is from :ARCHIVE.$$EFT,
PL6.E3A0      #004=FLS$FLUSH_BLOCK File=FLS$FILE_PACKER.:E05TSI                  TUE 07/29/97 16:25 Page:182
      955    16749         *** then call routine to update :ARCHIVE.$$EFT.
      956    16750         ***/
      957    16751    2         IF ARCHIVE$ ~= ADDR(NIL) AND LAST_TSN_USED ~= ' '
      958    16752    2          THEN
      959    16753    2            CALL FLE$ESTMOD(%ARCHIVE);
      960    16754        /***
      961    16755         *** If optical disk, determine if file crosses volume boundry.
      962    16756         ***/
      963    16757    2         IF SUBSTR(TAPE_DCBLIST.DCB$(0)->F$DCB.RES#,0,2) = 'OD'
      964    16758    2           AND LAST_TSN_USED ~= ' '
      965    16759    3          THEN DO;
      966    16760    3            IF LAST_TSN_USED ~= TAPE_SN
      967    16761    3             THEN CROSSED = '*';
      968    16762    3            END;
      969    16763
      970    16764    2         LAST_TSN_USED = TAPE_SN;
      971    16765    2         TSN_USED_KEY.L = LENGTHV(TSN_USED_KEY);
      972    16766    2         TSN_USED_KEY.RUN_NBR = RUN_NBR;
      973    16767    2         TSN_USED_KEY.TSN_SET_NBR = TSN_SET_NBR;
      974    16768    2         TSN_USED_KEY.TSN_VOL = TSN_VOL;
      975    16769    2         TSN_USED_KEY.TSN_SNLIST_NBR = 0;
      976    16770    2         TSN_USED_BUF.TSN = TAPE_SN;
      977    16771    2         TSN_USED_BUF.FSN = TAPE_FSN;
      978    16772    2         TSN_USED_BUF.BACKUP_FSN = 0;
      979    16773    2         CALL M$TIME( GET_NOW_UTS );
      980    16774    2         TSN_USED_BUF.UTS = NOW_UTS;
      981    16775    2         CALL M$WRITE( WRITE_TSN_USED )
      982    16776    3          WHENALTRETURN DO;
      983    16777    3            END;
      984    16778    3         DO I=1 TO NBR_SNLISTS - 1;
      985    16779    3            TSN_USED_KEY.TSN_SNLIST_NBR = TSN_USED_KEY.TSN_SNLIST_NBR + 1;
      986    16780    3            TSN_USED_BUF.TSN = TAPE_DCBLIST.DCB$(I)->F$DCB.PSN#;
      987    16781    3            CALL M$WRITE( WRITE_TSN_USED)
      988    16782    4             WHENALTRETURN DO;
      989    16783    4               END;
      990    16784    3            END;
      991    16785    2         END;
PL6.E3A0      #004=FLS$FLUSH_BLOCK File=FLS$FILE_PACKER.:E05TSI                  TUE 07/29/97 16:25 Page:183
      992    16786
      993    16787        /***
      994    16788         *** If the end-of-volume was hit on the last write and this is
      995    16789         *** not the end of the current file, create the special volume
      996    16790         *** transition file.  The two tape write guarantee that a volume
      997    16791         *** transition will be made.
      998    16792         ***/
      999    16793
     1000    16794    1      IF EOVOL
     1001    16795    2       THEN DO;
     1002    16796    2         IF TAPE_DCBLIST.DCB$(0)->F$DCB.FCD# /* Tape file open?                  */
     1003    16797    2          THEN IF ADDR(NOT_END) = ADDR(NIL)
     1004    16798    2             THEN CALL FLI$TAPE_CLOSE ALTRET( JUSTALT );
     1005    16799    3             ELSE DO;
     1006    16800    3               CROSSED = '*';
     1007    16801    3               CALL FLI$TAPE_CLOSE( '1'B /* CVOL */ ) ALTRET( JUSTALT );
     1008    16802    3               END;
     1009    16803    2         CALL FLI$TAPE_OPEN( VECTOR(EFT_CVOL_FILE), TAPE_SN, TAPE_FSN, '0'B, '1'B, ,
             16803                  A_FIT_, ERR, DCB# ) ALTRET( REPALT );
     1010    16804    2         TEMP_TSN = ' ';
     1011    16805    2         CALL FLI$TAPE_WRITE( OUTBUF_, POFFC( BLOCK_GRAN$, LOW_BLK_TAG$ ), EOVOL,
             16805                  COMMAND, TEMP_TSN, TEMP_FSN ) ALTRET( WHATS_MISSING );
     1012    16806                                                /* Second write forces volume change  */
     1013    16807    2         CALL FLI$TAPE_WRITE( OUTBUF_, POFFC( BLOCK_GRAN$, LOW_BLK_TAG$ ), EOVOL,
             16807                  COMMAND, TEMP_TSN, TEMP_FSN ) ALTRET( WHATS_MISSING );
     1014    16808
     1015    16809    2         IF (TAPE_WRITE.V.IOERROK#         /* Return new FSN,SN                  */
     1016    16810    2           AND TEMP_TSN ~= ' '
     1017    16811    2           AND (LOW_BLK_TAG$->BLK_TAG.BEG  /* Current block                      */
     1018    16812    2           OR PREV_LOW_BLK_TAG_BEG))       /* Previous block                     */
     1019    16813    3          THEN DO;
     1020    16814    3            NEW_TSN = TEMP_TSN;
     1021    16815    3            NEW_FSN = TEMP_FSN;
     1022    16816    3            END;
     1023    16817
     1024    16818    2         CALL FLI$TAPE_CLOSE ALTRET( JUSTALT );
     1025    16819    2         CALL FLI$TAPE_OPEN( VECTOR(EFT_RESTRICT_FILE), TAPE_SN, TAPE_FSN, '0'B, '1'B,
PL6.E3A0      #004=FLS$FLUSH_BLOCK File=FLS$FILE_PACKER.:E05TSI                  TUE 07/29/97 16:25 Page:184
             16819                  , A_FIT_, ERR, DCB# ) ALTRET( REPALT );
     1026    16820    2         NBR_FILE_BLOCKS = %MAX_NBR_FILE_BLOCKS + 1; /* Force new block          */
     1027    16821    2         END;
     1028    16822
     1029    16823    1      PREV_LOW_BLK_TAG_BEG = LOW_BLK_TAG$->BLK_TAG.BEG; /* Save block flag       */
     1030    16824
     1031    16825        /***
     1032    16826         *** Initialize assuming continuation of current file.  BLK_TAG0
     1033    16827         *** stays the same.
     1034    16828         ***/
     1035    16829
     1036    16830    1      IF ADDR(NOT_END) ~= ADDR(NIL)
     1037    16831    2       THEN DO;
     1038    16832    2         NEW_BLK_TAG$ = PINCRW( BLK_TAG0$, -SIZEW(BLK_TAG) );
     1039    16833    2         NEW_BLK_TAG$->BLK_TAG = BLK_TAG;
     1040    16834    2         BLK_TAG$ = NEW_BLK_TAG$;
     1041    16835    2         BLK_TAG.BEGX = 0;
     1042    16836    2         BLK_TAG.SIZE = 0;
     1043    16837    2         BLK_TAG.BEG = '0'B;
     1044    16838    2         BLK_TAG_NBR = 1;
     1045    16839    2         END;
     1046    16840    2       ELSE DO;
     1047    16841    2         BLK_TAG$ = BLK_TAG0$;
     1048    16842    2         BLK_TAG_NBR = 0;
     1049    16843    2         END;
     1050    16844
     1051    16845    1      LOW_BLK_TAG$ = BLK_TAG$;
     1052    16846    1      BLK_TAG.NBR = BLK_TAG_NBR;
     1053    16847    1      NBR_BLOCK_BYTES_REMAINING = NBR_BLOCK_BYTES;
     1054    16848    1      BLOCK_GRAN$ = GRAN_BASE$;
     1055    16849
     1056    16850    1      RETURN;
     1057    16851
     1058    16852        /***
     1059    16853         *** The following code lists the contents of the current block.
     1060    16854         ***/
     1061    16855
PL6.E3A0      #004=FLS$FLUSH_BLOCK File=FLS$FILE_PACKER.:E05TSI                  TUE 07/29/97 16:25 Page:185
     1062    16856    1   WHATS_MISSING: ;
     1063    16857
     1064    16858    1      CALL FLI$RPT_ERR( E_MISSING_FILES, );
     1065    16859
     1066    16860    1      BLK_TAG$ = PINCRW( BLK_TAG0$, -SIZEW(BLK_TAG) ); /* Start at first tag     */
     1067    16861
     1068    16862    1      EFTFILE_DCB$->F$DCB.PSN# = BLK_TAG0.WHERE.PSN;
     1069    16863    1      EFTFILE_DCB$->F$DCB.ACCT# = BLK_TAG0.WHERE.ACCT;
     1070    16864
     1071    16865    2      DO WHILE( BLK_TAG$ >= LOW_BLK_TAG$ );
     1072    16866    2         ERR = '777777777777'O;
     1073    16867
     1074    16868    3         DO CASE( BLK_TAG.TYPE );          /* Set appropriate error code         */
     1075    16869    3          CASE( %FILE_DIR );
     1076    16870    3            ERR.CODE = %E$FDEOF;
     1077    16871    3          CASE( %ACCT_DIR );
     1078    16872    3            ERR.CODE = %E$ADEOF;
     1079    16873    3          CASE( %DEL_ACCT );
     1080    16874    3            ERR.CODE = %E$NOKEY;
     1081    16875    3            EFTFILE_DCB$->F$DCB.EXPIRE# = BLK_TAG.UTS;
     1082    16876    3          CASE( %CLEANUP_FILE );
     1083    16877    3            ERR.CODE = %E$NOFILE;
     1084    16878    3            EFTFILE_DCB$->F$DCB.EXPIRE# = BLK_TAG.UTS;
     1085    16879    3          CASE( %CLEANUP_ACCT );
     1086    16880    3            ERR.CODE = %E$NOPROC;
     1087    16881    3            EFTFILE_DCB$->F$DCB.EXPIRE# = BLK_TAG.UTS;
     1088    16882    3          CASE( %DEL_FILE );
     1089    16883    3            EFTFILE_DCB$->F$DCB.EXPIRE# = BLK_TAG.UTS;
     1090    16884    3          CASE( ELSE );
     1091    16885    3          END;
     1092    16886
     1093    16887    3         DO CASE( BLK_TAG.TYPE );
     1094    16888
     1095    16889    3          CASE( %FILE_DIR, %DEL_ACCT, %CLEANUP_ACCT );
     1096    16890    3            EFTFILE_DCB$->F$DCB.ACCT# = BLK_TAG.WHERE.ACCT;
     1097    16891    3            EFTFILE_DCB$->F$DCB.PSN# = BLK_TAG.WHERE.PSN;
     1098    16892    3            CALL FLP$WR_FILE_INFO( EFTFILE_DCB$, ADDR(NIL), '      ', 0, ' ', '1'B, ERR
PL6.E3A0      #004=FLS$FLUSH_BLOCK File=FLS$FILE_PACKER.:E05TSI                  TUE 07/29/97 16:25 Page:186
             16892                     , '1'B, '0'B ) ALTRET( JUSTALT );
     1099    16893
     1100    16894    3          CASE( %ACCT_DIR );
     1101    16895    3            EFTFILE_DCB$->F$DCB.ACCT# = BLK_TAG.WHERE.ACCT;
     1102    16896    3            EFTFILE_DCB$->F$DCB.PSN# = BLK_TAG.WHERE.PSN;
     1103    16897
     1104    16898    3          CASE( %DEL_FILE, %CLEANUP_FILE );
     1105    16899    3            EFTFILE_DCB$->F$DCB.NAME#.C = BLK_TAG.NAME.C;
     1106    16900    3            EFTFILE_DCB$->F$DCB.NAME#.L = BLK_TAG.NAME.L;
     1107    16901    3            EFTFILE_DCB$->F$DCB.DESC = BLK_TAG.DESC;
     1108    16902    3            CALL FLP$WR_FILE_INFO( EFTFILE_DCB$, ADDR(NIL), '      ', 0, ' ', , ERR,
             16902                     '1'B, '0'B ) ALTRET( JUSTALT );
     1109    16903
     1110    16904    3          CASE( %INACTIVE_FILE, %REG_FILE, %ACUP_FILE, %IDS_FAST_FILE );
     1111    16905    3            EFTFILE_DCB$->F$DCB.NAME#.C = BLK_TAG.NAME.C;
     1112    16906    3            EFTFILE_DCB$->F$DCB.NAME#.L = BLK_TAG.NAME.L;
     1113    16907    3            EFTFILE_DCB$->F$DCB.DESC = BLK_TAG.DESC;
     1114    16908    3            CALL FLP$WR_FILE_INFO( EFTFILE_DCB$, ADDR(NIL), '      ', 0, ' ', , ERR,
             16908                     '1'B, '0'B ) ALTRET( JUSTALT );
     1115    16909
     1116    16910    3          CASE( ELSE );
     1117    16911                 /*N* Might want to give an error message */
     1118    16912    3          END;
     1119    16913    2         BLK_TAG$ = PINCRW( BLK_TAG$, -SIZEW(BLK_TAG) );
     1120    16914    2         END;
     1121    16915
     1122    16916    1      BLK_TAG$ = BLK_TAG0$;                /* Indicates nothing to flush         */
     1123    16917    1      ALTRETURN;
     1124    16918
     1125    16919    1   REPALT: ;
     1126    16920    1      CALL FLI$RPT_ERR( ERR, DCB# );
     1127    16921
     1128    16922    1   JUSTALT: ;
     1129    16923    1      ALTRETURN;
     1130    16924
     1131    16925    1   END FLS$FLUSH_BLOCK;

PL6.E3A0      #004=FLS$FLUSH_BLOCK File=FLS$FILE_PACKER.:E05TSI                  TUE 07/29/97 16:25 Page:187
--  Include file information  --

   FLN_DATA_R.:E05TOU  cannot be made into a system file and is referenced.
   FLS_DATA_R.:E05TOU  cannot be made into a system file and is referenced.
   B_MICROPS_C.:E05TOU  is referenced.
   FLB_SUBS_C.:E05TOU  is referenced.
   FLI_DATA_R.:E05TOU  cannot be made into a system file and is referenced.
   FL_PERR_C.:E05TOU  is referenced.
   FLE_DATA_R.:E05TOU  cannot be made into a system file and is referenced.
   CP_6_C.:E05TOU  is referenced.
   CP_6.:E05TOU  cannot be made into a system file and is referenced.
   B_ERRORS_C.:E05TOU  is referenced.
      No diagnostics issued in procedure FLS$FLUSH_BLOCK.

   Procedure FLS$FLUSH_BLOCK requires 524 words for executable code.
   Procedure FLS$FLUSH_BLOCK requires 26 words of local(AUTO) storage.

    No errors detected in file FLS$FILE_PACKER.:E05TSI    .

PL6.E3A0      #004=FLS$FLUSH_BLOCK File=FLS$FILE_PACKER.:E05TSI                  TUE 07/29/97 16:25 Page:188

 Object Unit name= FLS$FLUSH_BLOCK                            File name= FLS$FILE_PACKER.:E05TOU
 UTS= JUL 29 '97 16:25:19.92 TUE                              Compiler= PL-6/E31         Sev=      00
 SharedLib= :SHARED_SYSTEM                                    Alt SharedLib=


    ****  Control sections  ****

 Sect   Type Bound  Init  Size OctSiz  Section name(segment info)
    0   DCB   even  none     0      0  M$UC
    1   DCB   even  none     0      0  M$PRE_RET
    2   Data  even  none   109    155  FLS$FLUSH_BLOCK
    3   DCB   even  none     0      0  M$TSN_USED
    4   DCB   even  none     0      0  M$STATUS
    5   DCB   even  none     0      0  M$REBUILD
    6   DCB   even  none     0      0  M$ARCHIVE
    7   DCB   even  none     0      0  M$NODATA_LIST
    8   DCB   even  none     0      0  M$DISK_IN
    9   DCB   even  none     0      0  M$DISK00
   10   DCB   even  none     0      0  M$DISK01
   11   DCB   even  none     0      0  M$DISK02
   12   DCB   even  none     0      0  M$DISK03
   13  RoData even  UTS      3      3  FLS$FLUSH_BLOCK
   14   Proc  even  none   524   1014  FLS$FLUSH_BLOCK
   15  RoData even  none    21     25  FLS$FLUSH_BLOCK

    ****  Entry defs  ****

                              Check   Calling
                             calling  sequence
  Sect OctLoc Primary Altret sequence   type   Parms  Name
    14      0   yes    yes     yes      Std        4  FLS$FLUSH_BLOCK
PL6.E3A0      #004=FLS$FLUSH_BLOCK File=FLS$FILE_PACKER.:E05TSI                  TUE 07/29/97 16:25 Page:189

  ****  Entry refs  ****

         Check        Calling
        calling       sequence
Altret sequence SRef   type   Args  Name
 yes     yes           Std       6 FLI$TAPE_WRITE
         yes           Std       1 FLE$ESTMOD
 yes     yes           Std       9 FLI$TAPE_OPEN
 yes     yes           Std       9 FLP$WR_FILE_INFO
         yes           Std       5 FLI$RPT_ERR
 yes     yes           Std       1 FLI$TAPE_CLOSE
                       Std       0 B_CONSPOOL_D
                       nStd      0 X66_AUTO_4
                       nStd      0 X66_ARET
                       nStd      0 X66_AALT

  ****  Data refs  ****

  Flags:  r = read only, s = secondary
Flgs Name                             Flgs Name                             Flgs Name
     M$UC                             r    E_MISSING_FILES                       NBR_SNLISTS
     TAPE_DCBLIST$                         TAPE_WRITE                            SNVECLIST$
     NOW_UTS                               GET_NOW_UTS                           DPLIST$
     DPRESLIST$                            DISK_FILE_SPEC$                       SPECCHARS
     EFTWORD                               M$PRE_RET                             RET_CMDS_NAME
     M$TSN_USED                            M$STATUS                              M$REBUILD
     M$ARCHIVE                             M$NODATA_LIST                         LOW_BLK_TAG$
     BLK_TAG$                              BLK_TAG0$                             BLK_TAG_NBR
     NBR_BLOCK_BYTES                       NBR_BLOCK_BYTES_REMAINING             NBR_BYTES_TO_MOVE
     DISK_GRAN$                            BLOCK_GRAN$                           OUTBUF_
     GRAN_BASE$                       r    A_FIT_                                NBR_FILE_BLOCKS
     EOVOL                                 CROSSED                          r    EFTFILE_DCB$
r    EFT_CVOL_FILE                    r    EFT_RESTRICT_FILE                     TAPE_SN
     TAPE_FSN                              LAST_TSN_USED                         RUN_NBR
     TSN_SET_NBR                           TSN_VOL                               TSN_USED_KEY
     TSN_USED_BUF                          TSN_USED_NAME                         WRITE_TSN_USED
     BACKUP_NAME                      r    ARCHIVE_NAME                     r    PRIME_FILE
PL6.E3A0      #004=FLS$FLUSH_BLOCK File=FLS$FILE_PACKER.:E05TSI                  TUE 07/29/97 16:25 Page:190
r    DUAL_FILE                             REBUILD_NAME                          REBUILD_DIR_KEY
     REBUILD_KEY                           NODATA_FILE_NAME                      NODATA_KEY
     M$DISK_IN                             ARCHIVE$                              M$DISK00
     M$DISK01                              M$DISK02                              M$DISK03
     FROM_DISK_NAME                        FROM_DISK_ACCT                        FROM_DISK_SN
     B_VECTNIL

  ****  Segment refs  ****

  Flags:  r = read only, s = secondary
Flgs Name                             Flgs Name                             Flgs Name
     ISSID                                 NULLSID
PL6.E3A0      #004=FLS$FLUSH_BLOCK File=FLS$FILE_PACKER.:E05TSI                  TUE 07/29/97 16:25 Page:191


      845        1        /*T***********************************************************/
      846        2        /*T*                                                         */
      847        3        /*T* Copyright (c) Bull HN Information Systems Inc., 1997    */
      848        4        /*T*                                                         */
      849        5        /*T***********************************************************/
      850        6        FLS$FLUSH_BLOCK: PROC( NOT_END, COMMAND, NEW_TSN, NEW_FSN ) ALTRET;

      6 14 000000   000000 700200 xent  FLS$FLUSH_B* TSX0  ! X66_AUTO_4
        14 000001   000032 000004                    ZERO    26,4

      851        7        /*F*  NAME: FLS$FLUSH_BLOCK
      852        8              PURPOSE: Flush current tape block to tape.
      853        9        */
      854       10
      855       11    1   DCL NOT_END BIT(1) ALIGNED;   /* Indicates if more of current file present    */
      856       12    1   DCL COMMAND SBIN ALIGNED;
      857       13    1   DCL NEW_TSN CHAR(6) CALIGNED; /* New current TSN returned on IOERRCONT,I-O err */
      858       14    1   DCL NEW_FSN UBIN WORD ALIGNED; /* New current FSN returned on IOERRCONT,I-O err */
      859       15
      860       16        /***
      861       17         *** INCLUDE
      862       18         ***/
      863       19
      864       20        %INCLUDE B_ERRORS_C;
      865     1147        %INCLUDE CP_6;
      866     6706        %INCLUDE FLE_DATA_R;
      867    12657        %INCLUDE FLI_DATA_R;
      868    14071        %INCLUDE FLS_DATA_R;
      869    15871        %INCLUDE FLN_DATA_R;
      870    16608
      871    16609        /***
      872    16610         *** ENTRY
      873    16611         ***/
      874    16612
      875    16613    1   DCL FLI$RPT_ERR ENTRY(5);
      876    16614    1   DCL FLI$TAPE_CLOSE ENTRY(1) ALTRET;
PL6.E3A0      #004=FLS$FLUSH_BLOCK File=FLS$FILE_PACKER.:E05TSI                  TUE 07/29/97 16:25 Page:192
      877    16615    1   DCL FLI$TAPE_OPEN ENTRY(9) ALTRET;
      878    16616    1   DCL FLI$TAPE_WRITE ENTRY(6) ALTRET;
      879    16617    1   DCL FLP$WR_FILE_INFO ENTRY(9) ALTRET;
      880    16618    1   DCL FLE$ESTMOD ENTRY(1);
      881    16619
      882    16620        /***
      883    16621         *** AUTO
      884    16622         ***/
      885    16623
      886    16624    1   DCL DCB# SBIN AUTO;
      887    16625    1   DCL I SBIN AUTO;
      888    16626    1   DCL 1 ERR ALIGNED AUTO,
      889    16627    1         2 * BIT(12) UNAL,
      890    16628    1         2 * BIT(6) UNAL,
      891    16629    1         2 * BIT(1) UNAL,
      892    16630    1         2 CODE UBIN(14) UNAL,
      893    16631    1         2 * UBIN(3) UNAL;
      894    16632    1   DCL NEW_BLK_TAG$ PTR AUTO;
      895    16633    1   DCL TEMP_TSN CHAR(6) AUTO;
      896    16634    1   DCL TEMP_FSN UBIN WORD AUTO;
      897    16635
      898    16636        /***
      899    16637         *** STATIC
      900    16638         ***/
      901    16639
      902    16640    1   DCL PREV_LOW_BLK_TAG_BEG BIT(1) STATIC; /* Previous block tag beginning flag  */
      903    16641
      904    16642        /***
      905    16643         ***  SYMREF
      906    16644         ***/
      907    16645
      908    16646
      909    16647        /***
      910    16648         *** BASED
      911    16649         ***/
      912    16650
      913    16651        %F$DCB;
PL6.E3A0      #004=FLS$FLUSH_BLOCK File=FLS$FILE_PACKER.:E05TSI                  TUE 07/29/97 16:25 Page:193
      914    16708
      915    16709        /****************************************/
      916    16710
      917    16711        /***
      918    16712         *** Write from first lowest block tag through highest file granule.
      919    16713         ***/
      920    16714
      921    16715    1      OUTBUF_.PTR$ = LOW_BLK_TAG$;

  16715 14 000002   000000 236000 xsym               LDQ     LOW_BLK_TAG$
        14 000003   000001 756000 xsym               STQ     OUTBUF_+1

      922    16716
      923    16717        /***
      924    16718         *** Set TAPE_SN for OD as it will only get set the first time through
      925    16719         *** (first OPEN). This must be done due to no CVOL control for OD.
      926    16720         ***/
      927    16721    1      IF SUBSTR(TAPE_DCBLIST.DCB$(0)->F$DCB.RES#,0,2) = 'OD'

  16721 14 000004   000000 470400 xsym               LDP0    TAPE_DCBLIST$
        14 000005   000001 471500                    LDP1    1,,PR0
        14 000006   100026 220100                    LDX0    22,,PR1
        14 000007   000000 100000 13                 CMPX0   0
        14 000010   000014 601000 14                 TNZ     s:16724

      928    16722    1       THEN TAPE_SN = TAPE_DCBLIST.DCB$(0)->F$DCB.PSN#;

  16722 14 000011   040000 100500                    MLR     fill='040'O
        14 000012   100024 000006                    ADSC9   20,,PR1                  cn=0,n=6
        14 000013   000000 000006 xsym               ADSC9   TAPE_SN                  cn=0,n=6

      929    16723
      930    16724    1      TEMP_FSN = 0;

  16724 14 000014   200015 450100                    STZ     TEMP_FSN,,AUTO

      931    16725    1      TEMP_TSN = ' ';
PL6.E3A0      #004=FLS$FLUSH_BLOCK File=FLS$FILE_PACKER.:E05TSI                  TUE 07/29/97 16:25 Page:194

  16725 14 000015   040100 100400                    MLR     fill='040'O
        14 000016   000035 000001 xsym               ADSC9   B_VECTNIL+29             cn=0,n=1
        14 000017   200013 000006                    ADSC9   TEMP_TSN,,AUTO           cn=0,n=6

      932    16726    1     CALL FLI$TAPE_WRITE( OUTBUF_, POFFC( BLOCK_GRAN$, LOW_BLK_TAG$ ), EOVOL, COMMAND,
             16726               TEMP_TSN, TEMP_FSN ) ALTRET( WHATS_MISSING );

  16726 14 000020   000000 236000 xsym               LDQ     LOW_BLK_TAG$
        14 000021   000020 772000                    QRL     16
        14 000022   200016 756100                    STQ     TEMP_FSN+1,,AUTO
        14 000023   000000 236000 xsym               LDQ     BLOCK_GRAN$
        14 000024   000020 772000                    QRL     16
        14 000025   200016 136100                    SBLQ    TEMP_FSN+1,,AUTO
        14 000026   200017 756100                    STQ     TEMP_FSN+2,,AUTO
        14 000027   200015 631500                    EPPR1   TEMP_FSN,,AUTO
        14 000030   200025 451500                    STP1    TEMP_FSN+8,,AUTO
        14 000031   200013 633500                    EPPR3   TEMP_TSN,,AUTO
        14 000032   200024 453500                    STP3    TEMP_FSN+7,,AUTO
        14 000033   200004 236100                    LDQ     @COMMAND,,AUTO
        14 000034   000000 235000 15                 LDA     0
        14 000035   200022 757100                    STAQ    TEMP_FSN+5,,AUTO
        14 000036   200017 634500                    EPPR4   TEMP_FSN+2,,AUTO
        14 000037   200021 454500                    STP4    TEMP_FSN+4,,AUTO
        14 000040   000001 236000 15                 LDQ     1
        14 000041   200020 756100                    STQ     TEMP_FSN+3,,AUTO
        14 000042   200020 630500                    EPPR0   TEMP_FSN+3,,AUTO
        14 000043   000024 631400 xsym               EPPR1   B_VECTNIL+20
        14 000044   000000 701000 xent               TSX1    FLI$TAPE_WRITE
        14 000045   000513 702000 14                 TSX2    WHATS_MISSING

      933    16727        /***
      934    16728         *** If a SN change when IO ERR CONTINUE set, the previous block (already
      935    16729         *** written to tape) and the current block wil get rewritten to the next tape. If
      936    16730         *** this file begins in the current block or the previous block, must return new
      937    16731         *** SN and FSN so fit gets updated properly by FLM$MOVE routine.
      938    16732         ***/
PL6.E3A0      #004=FLS$FLUSH_BLOCK File=FLS$FILE_PACKER.:E05TSI                  TUE 07/29/97 16:25 Page:195
      939    16733    1      IF (TAPE_WRITE.V.IOERROK#

  16733 14 000046   000010 236000 xsym               LDQ     TAPE_WRITE+8
        14 000047   000020 316007                    CANQ    16,DL
        14 000050   000072 600000 14                 TZE     s:16742
        14 000051   040000 106500                    CMPC    fill='040'O
        14 000052   200013 000006                    ADSC9   TEMP_TSN,,AUTO           cn=0,n=6
        14 000053   000035 000001 xsym               ADSC9   B_VECTNIL+29             cn=0,n=1
        14 000054   000072 600000 14                 TZE     s:16742
        14 000055   000000 470400 xsym               LDP0    LOW_BLK_TAG$
        14 000056   000000 236100                    LDQ     0,,PR0
        14 000057   000400 316007                    CANQ    256,DL
        14 000060   000063 601000 14                 TNZ     s:16738
        14 000061   000154 234000 2                  SZN     PREV_LOW_BLK_TAG_BEG
        14 000062   000072 605000 14                 TPL     s:16742

      940    16734    1        AND TEMP_TSN ~= ' '
      941    16735    1        AND (LOW_BLK_TAG$->BLK_TAG.BEG     /* Current block                      */
      942    16736    1        OR PREV_LOW_BLK_TAG_BEG))          /* Previous block                     */
      943    16737    2       THEN DO;

      944    16738    2         NEW_TSN = TEMP_TSN;

  16738 14 000063   200005 471500                    LDP1    @NEW_TSN,,AUTO
        14 000064   040100 100500                    MLR     fill='040'O
        14 000065   200013 000006                    ADSC9   TEMP_TSN,,AUTO           cn=0,n=6
        14 000066   100000 000006                    ADSC9   0,,PR1                   cn=0,n=6

      945    16739    2         NEW_FSN = TEMP_FSN;

  16739 14 000067   200006 470500                    LDP0    @NEW_FSN,,AUTO
        14 000070   200015 235100                    LDA     TEMP_FSN,,AUTO
        14 000071   000000 755100                    STA     0,,PR0

      946    16740    2         END;

      947    16741
PL6.E3A0      #004=FLS$FLUSH_BLOCK File=FLS$FILE_PACKER.:E05TSI                  TUE 07/29/97 16:25 Page:196
      948    16742    1      NBR_FILE_BLOCKS = NBR_FILE_BLOCKS + 1;

  16742 14 000072   000000 054000 xsym               AOS     NBR_FILE_BLOCKS

      949    16743
      950    16744    1      IF LAST_TSN_USED ~= TAPE_SN

  16744 14 000073   040000 106400                    CMPC    fill='040'O
        14 000074   000000 000006 xsym               ADSC9   LAST_TSN_USED            cn=0,n=6
        14 000075   000000 000006 xsym               ADSC9   TAPE_SN                  cn=0,n=6
        14 000076   000220 600000 14                 TZE     s:16794

      951    16745    2       THEN DO;                            /* New reel                           */

      952    16746    2         TSN_VOL = TSN_VOL + 1;

  16746 14 000077   000000 054000 xsym               AOS     TSN_VOL

      953    16747        /***
      954    16748         *** If it is ARCHIVing and tapeset is from :ARCHIVE.$$EFT,
      955    16749         *** then call routine to update :ARCHIVE.$$EFT.
      956    16750         ***/
      957    16751    2         IF ARCHIVE$ ~= ADDR(NIL) AND LAST_TSN_USED ~= ' '

  16751 14 000100   000000 236000 xsym               LDQ     ARCHIVE$
        14 000101   000001 116000 xsym               CMPQ    B_VECTNIL+1
        14 000102   000113 600000 14                 TZE     s:16757
        14 000103   040000 106400                    CMPC    fill='040'O
        14 000104   000000 000006 xsym               ADSC9   LAST_TSN_USED            cn=0,n=6
        14 000105   000035 000001 xsym               ADSC9   B_VECTNIL+29             cn=0,n=1
        14 000106   000113 600000 14                 TZE     s:16757

      958    16752    2          THEN
      959    16753    2            CALL FLE$ESTMOD(%ARCHIVE);

  16753 14 000107   000002 630400 15                 EPPR0   2
        14 000110   000017 631400 xsym               EPPR1   B_VECTNIL+15
PL6.E3A0      #004=FLS$FLUSH_BLOCK File=FLS$FILE_PACKER.:E05TSI                  TUE 07/29/97 16:25 Page:197
        14 000111   000000 701000 xent               TSX1    FLE$ESTMOD
        14 000112   000000 011000                    NOP     0

      960    16754        /***
      961    16755         *** If optical disk, determine if file crosses volume boundry.
      962    16756         ***/
      963    16757    2         IF SUBSTR(TAPE_DCBLIST.DCB$(0)->F$DCB.RES#,0,2) = 'OD'

  16757 14 000113   000000 470400 xsym               LDP0    TAPE_DCBLIST$
        14 000114   000001 471500                    LDP1    1,,PR0
        14 000115   100026 220100                    LDX0    22,,PR1
        14 000116   000000 100000 13                 CMPX0   0
        14 000117   000132 601000 14                 TNZ     s:16764
        14 000120   040000 106400                    CMPC    fill='040'O
        14 000121   000000 000006 xsym               ADSC9   LAST_TSN_USED            cn=0,n=6
        14 000122   000035 000001 xsym               ADSC9   B_VECTNIL+29             cn=0,n=1
        14 000123   000132 600000 14                 TZE     s:16764

      964    16758    2           AND LAST_TSN_USED ~= ' '
      965    16759    3          THEN DO;

      966    16760    3            IF LAST_TSN_USED ~= TAPE_SN

  16760 14 000124   040000 106400                    CMPC    fill='040'O
        14 000125   000000 000006 xsym               ADSC9   LAST_TSN_USED            cn=0,n=6
        14 000126   000000 000006 xsym               ADSC9   TAPE_SN                  cn=0,n=6
        14 000127   000132 600000 14                 TZE     s:16764

      967    16761    3             THEN CROSSED = '*';

  16761 14 000130   052000 236003                    LDQ     21504,DU
        14 000131   000000 756000 xsym               STQ     CROSSED

      968    16762    3            END;

      969    16763
      970    16764    2         LAST_TSN_USED = TAPE_SN;
PL6.E3A0      #004=FLS$FLUSH_BLOCK File=FLS$FILE_PACKER.:E05TSI                  TUE 07/29/97 16:25 Page:198

  16764 14 000132   040000 100400                    MLR     fill='040'O
        14 000133   000000 000006 xsym               ADSC9   TAPE_SN                  cn=0,n=6
        14 000134   000000 000006 xsym               ADSC9   LAST_TSN_USED            cn=0,n=6

      971    16765    2         TSN_USED_KEY.L = LENGTHV(TSN_USED_KEY);

  16765 14 000135   004000 236003                    LDQ     2048,DU
        14 000136   000000 552040 xsym               STBQ    TSN_USED_KEY,'40'O

      972    16766    2         TSN_USED_KEY.RUN_NBR = RUN_NBR;

  16766 14 000137   000000 236000 xsym               LDQ     RUN_NBR
        14 000140   000022 736000                    QLS     18
        14 000141   000000 552020 xsym               STBQ    TSN_USED_KEY,'20'O

      973    16767    2         TSN_USED_KEY.TSN_SET_NBR = TSN_SET_NBR;

  16767 14 000142   000000 236000 xsym               LDQ     TSN_SET_NBR
        14 000143   000011 736000                    QLS     9
        14 000144   000000 552010 xsym               STBQ    TSN_USED_KEY,'10'O

      974    16768    2         TSN_USED_KEY.TSN_VOL = TSN_VOL;

  16768 14 000145   000000 236000 xsym               LDQ     TSN_VOL
        14 000146   000000 552004 xsym               STBQ    TSN_USED_KEY,'04'O

      975    16769    2         TSN_USED_KEY.TSN_SNLIST_NBR = 0;

  16769 14 000147   000000 236003                    LDQ     0,DU
        14 000150   000001 552040 xsym               STBQ    TSN_USED_KEY+1,'40'O

      976    16770    2         TSN_USED_BUF.TSN = TAPE_SN;

  16770 14 000151   040000 100400                    MLR     fill='040'O
        14 000152   000000 000006 xsym               ADSC9   TAPE_SN                  cn=0,n=6
        14 000153   000005 000006 xsym               ADSC9   TSN_USED_BUF+5           cn=0,n=6
PL6.E3A0      #004=FLS$FLUSH_BLOCK File=FLS$FILE_PACKER.:E05TSI                  TUE 07/29/97 16:25 Page:199

      977    16771    2         TSN_USED_BUF.FSN = TAPE_FSN;

  16771 14 000154   000000 720000 xsym               LXL0    TAPE_FSN
        14 000155   000006 440000 xsym               SXL0    TSN_USED_BUF+6

      978    16772    2         TSN_USED_BUF.BACKUP_FSN = 0;

  16772 14 000156   000000 221003                    LDX1    0,DU
        14 000157   000007 741000 xsym               STX1    TSN_USED_BUF+7

      979    16773    2         CALL M$TIME( GET_NOW_UTS );

  16773 14 000160   000000 630400 xsym               EPPR0   GET_NOW_UTS
        14 000161   020004 713400                    CLIMB   8196
        14 000162   402000 401760                    pmme    nvectors=5

      980    16774    2         TSN_USED_BUF.UTS = NOW_UTS;

  16774 14 000163   000000 235000 xsym               LDA     NOW_UTS
        14 000164   000000 755000 xsym               STA     TSN_USED_BUF

      981    16775    2         CALL M$WRITE( WRITE_TSN_USED )

  16775 14 000165   000000 630400 xsym               EPPR0   WRITE_TSN_USED
        14 000166   440001 713400                    CLIMB   alt,write
        14 000167   401400 401760                    pmme    nvectors=4
        14 000170   000172 702000 14                 TSX2    s:16778
        14 000171   000172 710000 14                 TRA     s:16778

      982    16776    3          WHENALTRETURN DO;

      983    16777    3            END;

      984    16778    3         DO I=1 TO NBR_SNLISTS - 1;

  16778 14 000172   000001 235007                    LDA     1,DL
PL6.E3A0      #004=FLS$FLUSH_BLOCK File=FLS$FILE_PACKER.:E05TSI                  TUE 07/29/97 16:25 Page:200
        14 000173   200010 755100                    STA     I,,AUTO
        14 000174   000215 710000 14                 TRA     s:16784+1

      985    16779    3            TSN_USED_KEY.TSN_SNLIST_NBR = TSN_USED_KEY.TSN_SNLIST_NBR + 1;

  16779 14 000175   000001 236000 xsym               LDQ     TSN_USED_KEY+1
        14 000176   001000 036003                    ADLQ    512,DU
        14 000177   000001 552040 xsym               STBQ    TSN_USED_KEY+1,'40'O

      986    16780    3            TSN_USED_BUF.TSN = TAPE_DCBLIST.DCB$(I)->F$DCB.PSN#;

  16780 14 000200   200010 235100                    LDA     I,,AUTO
        14 000201   000001 735000                    ALS     1
        14 000202   000000 470400 xsym               LDP0    TAPE_DCBLIST$
        14 000203   000001 471505                    LDP1    1,AL,PR0
        14 000204   040000 100500                    MLR     fill='040'O
        14 000205   100024 000006                    ADSC9   20,,PR1                  cn=0,n=6
        14 000206   000005 000006 xsym               ADSC9   TSN_USED_BUF+5           cn=0,n=6

      987    16781    3            CALL M$WRITE( WRITE_TSN_USED)

  16781 14 000207   000000 630400 xsym               EPPR0   WRITE_TSN_USED
        14 000210   440001 713400                    CLIMB   alt,write
        14 000211   401400 401760                    pmme    nvectors=4
        14 000212   000214 702000 14                 TSX2    s:16784
        14 000213   000214 710000 14                 TRA     s:16784

      988    16782    4             WHENALTRETURN DO;

      989    16783    4               END;

      990    16784    3            END;

  16784 14 000214   200010 054100                    AOS     I,,AUTO
        14 000215   200010 236100                    LDQ     I,,AUTO
        14 000216   000000 116000 xsym               CMPQ    NBR_SNLISTS
        14 000217   000175 604000 14                 TMI     s:16779
PL6.E3A0      #004=FLS$FLUSH_BLOCK File=FLS$FILE_PACKER.:E05TSI                  TUE 07/29/97 16:25 Page:201

      991    16785    2         END;

      992    16786
      993    16787        /***
      994    16788         *** If the end-of-volume was hit on the last write and this is
      995    16789         *** not the end of the current file, create the special volume
      996    16790         *** transition file.  The two tape write guarantee that a volume
      997    16791         *** transition will be made.
      998    16792         ***/
      999    16793
     1000    16794    1      IF EOVOL

  16794 14 000220   000000 234000 xsym               SZN     EOVOL
        14 000221   000442 605000 14                 TPL     s:16823

     1001    16795    2       THEN DO;

     1002    16796    2         IF TAPE_DCBLIST.DCB$(0)->F$DCB.FCD# /* Tape file open?                  */

  16796 14 000222   000000 470400 xsym               LDP0    TAPE_DCBLIST$
        14 000223   000001 471500                    LDP1    1,,PR0
        14 000224   100031 236100                    LDQ     25,,PR1
        14 000225   020000 316007                    CANQ    8192,DL
        14 000226   000244 600000 14                 TZE     s:16803

     1003    16797    2          THEN IF ADDR(NOT_END) = ADDR(NIL)

  16797 14 000227   200003 236100                    LDQ     @NOT_END,,AUTO
        14 000230   000001 116000 xsym               CMPQ    B_VECTNIL+1
        14 000231   000236 601000 14                 TNZ     s:16800

     1004    16798    2             THEN CALL FLI$TAPE_CLOSE ALTRET( JUSTALT );

  16798 14 000232   000002 631400 xsym               EPPR1   B_VECTNIL+2
        14 000233   000000 701000 xent               TSX1    FLI$TAPE_CLOSE
        14 000234   001013 702000 14                 TSX2    JUSTALT
PL6.E3A0      #004=FLS$FLUSH_BLOCK File=FLS$FILE_PACKER.:E05TSI                  TUE 07/29/97 16:25 Page:202
        14 000235   000244 710000 14                 TRA     s:16803

     1005    16799    3             ELSE DO;

     1006    16800    3               CROSSED = '*';

  16800 14 000236   052000 236003                    LDQ     21504,DU
        14 000237   000000 756000 xsym               STQ     CROSSED

     1007    16801    3               CALL FLI$TAPE_CLOSE( '1'B /* CVOL */ ) ALTRET( JUSTALT );

  16801 14 000240   000003 630400 15                 EPPR0   3
        14 000241   000017 631400 xsym               EPPR1   B_VECTNIL+15
        14 000242   000000 701000 xent               TSX1    FLI$TAPE_CLOSE
        14 000243   001013 702000 14                 TSX2    JUSTALT

     1008    16802    3               END;

     1009    16803    2         CALL FLI$TAPE_OPEN( VECTOR(EFT_CVOL_FILE), TAPE_SN, TAPE_FSN, '0'B, '1'B, ,
             16803                  A_FIT_, ERR, DCB# ) ALTRET( REPALT );

  16803 14 000244   000000 236000 xsym               LDQ     EFT_CVOL_FILE
        14 000245   000033 772000                    QRL     27
        14 000246   000001 620006                    EAX0    1,QL
        14 000247   000000 635010                    EAA     0,X0
        14 000250   000002 771000                    ARL     2
        14 000251   000140 135007                    SBLA    96,DL
        14 000252   000004 236000 15                 LDQ     4
        14 000253   200016 757100                    STAQ    TEMP_FSN+1,,AUTO
        14 000254   200007 630500                    EPPR0   DCB#,,AUTO
        14 000255   200030 450500                    STP0    TEMP_FSN+11,,AUTO
        14 000256   200011 631500                    EPPR1   ERR,,AUTO
        14 000257   200027 451500                    STP1    TEMP_FSN+10,,AUTO
        14 000260   000006 236000 15                 LDQ     6
        14 000261   200026 756100                    STQ     TEMP_FSN+9,,AUTO
        14 000262   000001 236000 xsym               LDQ     B_VECTNIL+1
        14 000263   000003 235000 15                 LDA     3
PL6.E3A0      #004=FLS$FLUSH_BLOCK File=FLS$FILE_PACKER.:E05TSI                  TUE 07/29/97 16:25 Page:203
        14 000264   200024 757100                    STAQ    TEMP_FSN+7,,AUTO
        14 000265   000010 237000 15                 LDAQ    8
        14 000266   200022 757100                    STAQ    TEMP_FSN+5,,AUTO
        14 000267   000012 236000 15                 LDQ     10
        14 000270   200021 756100                    STQ     TEMP_FSN+4,,AUTO
        14 000271   200016 633500                    EPPR3   TEMP_FSN+1,,AUTO
        14 000272   200020 453500                    STP3    TEMP_FSN+3,,AUTO
        14 000273   200020 630500                    EPPR0   TEMP_FSN+3,,AUTO
        14 000274   000005 631400 15                 EPPR1   5
        14 000275   000000 701000 xent               TSX1    FLI$TAPE_OPEN
        14 000276   001003 702000 14                 TSX2    REPALT

     1010    16804    2         TEMP_TSN = ' ';

  16804 14 000277   040100 100400                    MLR     fill='040'O
        14 000300   000035 000001 xsym               ADSC9   B_VECTNIL+29             cn=0,n=1
        14 000301   200013 000006                    ADSC9   TEMP_TSN,,AUTO           cn=0,n=6

     1011    16805    2         CALL FLI$TAPE_WRITE( OUTBUF_, POFFC( BLOCK_GRAN$, LOW_BLK_TAG$ ), EOVOL,
             16805                  COMMAND, TEMP_TSN, TEMP_FSN ) ALTRET( WHATS_MISSING );

  16805 14 000302   000000 236000 xsym               LDQ     LOW_BLK_TAG$
        14 000303   000020 772000                    QRL     16
        14 000304   200016 756100                    STQ     TEMP_FSN+1,,AUTO
        14 000305   000000 236000 xsym               LDQ     BLOCK_GRAN$
        14 000306   000020 772000                    QRL     16
        14 000307   200016 136100                    SBLQ    TEMP_FSN+1,,AUTO
        14 000310   200017 756100                    STQ     TEMP_FSN+2,,AUTO
        14 000311   200015 630500                    EPPR0   TEMP_FSN,,AUTO
        14 000312   200025 450500                    STP0    TEMP_FSN+8,,AUTO
        14 000313   200013 631500                    EPPR1   TEMP_TSN,,AUTO
        14 000314   200024 451500                    STP1    TEMP_FSN+7,,AUTO
        14 000315   200004 236100                    LDQ     @COMMAND,,AUTO
        14 000316   000000 235000 15                 LDA     0
        14 000317   200022 757100                    STAQ    TEMP_FSN+5,,AUTO
        14 000320   200017 633500                    EPPR3   TEMP_FSN+2,,AUTO
        14 000321   200021 453500                    STP3    TEMP_FSN+4,,AUTO
PL6.E3A0      #004=FLS$FLUSH_BLOCK File=FLS$FILE_PACKER.:E05TSI                  TUE 07/29/97 16:25 Page:204
        14 000322   000001 236000 15                 LDQ     1
        14 000323   200020 756100                    STQ     TEMP_FSN+3,,AUTO
        14 000324   200020 630500                    EPPR0   TEMP_FSN+3,,AUTO
        14 000325   000024 631400 xsym               EPPR1   B_VECTNIL+20
        14 000326   000000 701000 xent               TSX1    FLI$TAPE_WRITE
        14 000327   000513 702000 14                 TSX2    WHATS_MISSING

     1012    16806                                                /* Second write forces volume change  */
     1013    16807    2         CALL FLI$TAPE_WRITE( OUTBUF_, POFFC( BLOCK_GRAN$, LOW_BLK_TAG$ ), EOVOL,
             16807                  COMMAND, TEMP_TSN, TEMP_FSN ) ALTRET( WHATS_MISSING );

  16807 14 000330   000000 236000 xsym               LDQ     LOW_BLK_TAG$
        14 000331   000020 772000                    QRL     16
        14 000332   200016 756100                    STQ     TEMP_FSN+1,,AUTO
        14 000333   000000 236000 xsym               LDQ     BLOCK_GRAN$
        14 000334   000020 772000                    QRL     16
        14 000335   200016 136100                    SBLQ    TEMP_FSN+1,,AUTO
        14 000336   200017 756100                    STQ     TEMP_FSN+2,,AUTO
        14 000337   200015 630500                    EPPR0   TEMP_FSN,,AUTO
        14 000340   200025 450500                    STP0    TEMP_FSN+8,,AUTO
        14 000341   200013 631500                    EPPR1   TEMP_TSN,,AUTO
        14 000342   200024 451500                    STP1    TEMP_FSN+7,,AUTO
        14 000343   200004 236100                    LDQ     @COMMAND,,AUTO
        14 000344   000000 235000 15                 LDA     0
        14 000345   200022 757100                    STAQ    TEMP_FSN+5,,AUTO
        14 000346   200017 633500                    EPPR3   TEMP_FSN+2,,AUTO
        14 000347   200021 453500                    STP3    TEMP_FSN+4,,AUTO
        14 000350   000001 236000 15                 LDQ     1
        14 000351   200020 756100                    STQ     TEMP_FSN+3,,AUTO
        14 000352   200020 630500                    EPPR0   TEMP_FSN+3,,AUTO
        14 000353   000024 631400 xsym               EPPR1   B_VECTNIL+20
        14 000354   000000 701000 xent               TSX1    FLI$TAPE_WRITE
        14 000355   000513 702000 14                 TSX2    WHATS_MISSING

     1014    16808
     1015    16809    2         IF (TAPE_WRITE.V.IOERROK#         /* Return new FSN,SN                  */

PL6.E3A0      #004=FLS$FLUSH_BLOCK File=FLS$FILE_PACKER.:E05TSI                  TUE 07/29/97 16:25 Page:205
  16809 14 000356   000010 236000 xsym               LDQ     TAPE_WRITE+8
        14 000357   000020 316007                    CANQ    16,DL
        14 000360   000402 600000 14                 TZE     s:16818
        14 000361   040000 106500                    CMPC    fill='040'O
        14 000362   200013 000006                    ADSC9   TEMP_TSN,,AUTO           cn=0,n=6
        14 000363   000035 000001 xsym               ADSC9   B_VECTNIL+29             cn=0,n=1
        14 000364   000402 600000 14                 TZE     s:16818
        14 000365   000000 470400 xsym               LDP0    LOW_BLK_TAG$
        14 000366   000000 236100                    LDQ     0,,PR0
        14 000367   000400 316007                    CANQ    256,DL
        14 000370   000373 601000 14                 TNZ     s:16814
        14 000371   000154 234000 2                  SZN     PREV_LOW_BLK_TAG_BEG
        14 000372   000402 605000 14                 TPL     s:16818

     1016    16810    2           AND TEMP_TSN ~= ' '
     1017    16811    2           AND (LOW_BLK_TAG$->BLK_TAG.BEG  /* Current block                      */
     1018    16812    2           OR PREV_LOW_BLK_TAG_BEG))       /* Previous block                     */
     1019    16813    3          THEN DO;

     1020    16814    3            NEW_TSN = TEMP_TSN;

  16814 14 000373   200005 471500                    LDP1    @NEW_TSN,,AUTO
        14 000374   040100 100500                    MLR     fill='040'O
        14 000375   200013 000006                    ADSC9   TEMP_TSN,,AUTO           cn=0,n=6
        14 000376   100000 000006                    ADSC9   0,,PR1                   cn=0,n=6

     1021    16815    3            NEW_FSN = TEMP_FSN;

  16815 14 000377   200006 470500                    LDP0    @NEW_FSN,,AUTO
        14 000400   200015 235100                    LDA     TEMP_FSN,,AUTO
        14 000401   000000 755100                    STA     0,,PR0

     1022    16816    3            END;

     1023    16817
     1024    16818    2         CALL FLI$TAPE_CLOSE ALTRET( JUSTALT );

PL6.E3A0      #004=FLS$FLUSH_BLOCK File=FLS$FILE_PACKER.:E05TSI                  TUE 07/29/97 16:25 Page:206
  16818 14 000402   000002 631400 xsym               EPPR1   B_VECTNIL+2
        14 000403   000000 701000 xent               TSX1    FLI$TAPE_CLOSE
        14 000404   001013 702000 14                 TSX2    JUSTALT

     1025    16819    2         CALL FLI$TAPE_OPEN( VECTOR(EFT_RESTRICT_FILE), TAPE_SN, TAPE_FSN, '0'B, '1'B,
             16819                  , A_FIT_, ERR, DCB# ) ALTRET( REPALT );

  16819 14 000405   000000 236000 xsym               LDQ     EFT_RESTRICT_FILE
        14 000406   000033 772000                    QRL     27
        14 000407   000001 620006                    EAX0    1,QL
        14 000410   000000 635010                    EAA     0,X0
        14 000411   000002 771000                    ARL     2
        14 000412   000140 135007                    SBLA    96,DL
        14 000413   000013 236000 15                 LDQ     11
        14 000414   200016 757100                    STAQ    TEMP_FSN+1,,AUTO
        14 000415   200007 630500                    EPPR0   DCB#,,AUTO
        14 000416   200030 450500                    STP0    TEMP_FSN+11,,AUTO
        14 000417   200011 631500                    EPPR1   ERR,,AUTO
        14 000420   200027 451500                    STP1    TEMP_FSN+10,,AUTO
        14 000421   000006 236000 15                 LDQ     6
        14 000422   200026 756100                    STQ     TEMP_FSN+9,,AUTO
        14 000423   000001 236000 xsym               LDQ     B_VECTNIL+1
        14 000424   000003 235000 15                 LDA     3
        14 000425   200024 757100                    STAQ    TEMP_FSN+7,,AUTO
        14 000426   000010 237000 15                 LDAQ    8
        14 000427   200022 757100                    STAQ    TEMP_FSN+5,,AUTO
        14 000430   000012 236000 15                 LDQ     10
        14 000431   200021 756100                    STQ     TEMP_FSN+4,,AUTO
        14 000432   200016 633500                    EPPR3   TEMP_FSN+1,,AUTO
        14 000433   200020 453500                    STP3    TEMP_FSN+3,,AUTO
        14 000434   200020 630500                    EPPR0   TEMP_FSN+3,,AUTO
        14 000435   000005 631400 15                 EPPR1   5
        14 000436   000000 701000 xent               TSX1    FLI$TAPE_OPEN
        14 000437   001003 702000 14                 TSX2    REPALT

     1026    16820    2         NBR_FILE_BLOCKS = %MAX_NBR_FILE_BLOCKS + 1; /* Force new block          */

PL6.E3A0      #004=FLS$FLUSH_BLOCK File=FLS$FILE_PACKER.:E05TSI                  TUE 07/29/97 16:25 Page:207
  16820 14 000440   000063 235007                    LDA     51,DL
        14 000441   000000 755000 xsym               STA     NBR_FILE_BLOCKS

     1027    16821    2         END;

     1028    16822
     1029    16823    1      PREV_LOW_BLK_TAG_BEG = LOW_BLK_TAG$->BLK_TAG.BEG; /* Save block flag       */

  16823 14 000442   000000 470400 xsym               LDP0    LOW_BLK_TAG$
        14 000443   000000 236100                    LDQ     0,,PR0
        14 000444   000033 736000                    QLS     27
        14 000445   400000 376003                    ANQ     -131072,DU
        14 000446   000154 756000 2                  STQ     PREV_LOW_BLK_TAG_BEG

     1030    16824
     1031    16825        /***
     1032    16826         *** Initialize assuming continuation of current file.  BLK_TAG0
     1033    16827         *** stays the same.
     1034    16828         ***/
     1035    16829
     1036    16830    1      IF ADDR(NOT_END) ~= ADDR(NIL)

  16830 14 000447   200003 236100                    LDQ     @NOT_END,,AUTO
        14 000450   000001 116000 xsym               CMPQ    B_VECTNIL+1
        14 000451   000475 600000 14                 TZE     s:16841

     1037    16831    2       THEN DO;

     1038    16832    2         NEW_BLK_TAG$ = PINCRW( BLK_TAG0$, -SIZEW(BLK_TAG) );

  16832 14 000452   000000 236000 xsym               LDQ     BLK_TAG0$
        14 000453   777765 036003                    ADLQ    -11,DU
        14 000454   200012 756100                    STQ     NEW_BLK_TAG$,,AUTO

     1039    16833    2         NEW_BLK_TAG$->BLK_TAG = BLK_TAG;

  16833 14 000455   000000 471400 xsym               LDP1    BLK_TAG$
PL6.E3A0      #004=FLS$FLUSH_BLOCK File=FLS$FILE_PACKER.:E05TSI                  TUE 07/29/97 16:25 Page:208
        14 000456   200012 473500                    LDP3    NEW_BLK_TAG$,,AUTO
        14 000457   000100 100500                    MLR     fill='000'O
        14 000460   100000 000054                    ADSC9   0,,PR1                   cn=0,n=44
        14 000461   300000 000054                    ADSC9   0,,PR3                   cn=0,n=44

     1040    16834    2         BLK_TAG$ = NEW_BLK_TAG$;

  16834 14 000462   000000 756000 xsym               STQ     BLK_TAG$

     1041    16835    2         BLK_TAG.BEGX = 0;

  16835 14 000463   000000 220003                    LDX0    0,DU
        14 000464   000000 470400 xsym               LDP0    BLK_TAG$
        14 000465   000000 740100                    STX0    0,,PR0

     1042    16836    2         BLK_TAG.SIZE = 0;

  16836 14 000466   000000 470400 xsym               LDP0    BLK_TAG$
        14 000467   000001 740100                    STX0    1,,PR0

     1043    16837    2         BLK_TAG.BEG = '0'B;

  16837 14 000470   000014 236000 15                 LDQ     12
        14 000471   000000 356100                    ANSQ    0,,PR0

     1044    16838    2         BLK_TAG_NBR = 1;

  16838 14 000472   000001 235007                    LDA     1,DL
        14 000473   000000 755000 xsym               STA     BLK_TAG_NBR

     1045    16839    2         END;

  16839 14 000474   000500 710000 14                 TRA     s:16845

     1046    16840    2       ELSE DO;

     1047    16841    2         BLK_TAG$ = BLK_TAG0$;
PL6.E3A0      #004=FLS$FLUSH_BLOCK File=FLS$FILE_PACKER.:E05TSI                  TUE 07/29/97 16:25 Page:209

  16841 14 000475   000000 236000 xsym               LDQ     BLK_TAG0$
        14 000476   000000 756000 xsym               STQ     BLK_TAG$

     1048    16842    2         BLK_TAG_NBR = 0;

  16842 14 000477   000000 450000 xsym               STZ     BLK_TAG_NBR

     1049    16843    2         END;

     1050    16844
     1051    16845    1      LOW_BLK_TAG$ = BLK_TAG$;

  16845 14 000500   000000 236000 xsym               LDQ     BLK_TAG$
        14 000501   000000 756000 xsym               STQ     LOW_BLK_TAG$

     1052    16846    1      BLK_TAG.NBR = BLK_TAG_NBR;

  16846 14 000502   000000 470400 xsym               LDP0    BLK_TAG$
        14 000503   000000 236000 xsym               LDQ     BLK_TAG_NBR
        14 000504   000011 736000                    QLS     9
        14 000505   000000 552110                    STBQ    0,'10'O,PR0

     1053    16847    1      NBR_BLOCK_BYTES_REMAINING = NBR_BLOCK_BYTES;

  16847 14 000506   000000 235000 xsym               LDA     NBR_BLOCK_BYTES
        14 000507   000000 755000 xsym               STA     NBR_BLOCK_BYTES_REMAINING

     1054    16848    1      BLOCK_GRAN$ = GRAN_BASE$;

  16848 14 000510   000000 236000 xsym               LDQ     GRAN_BASE$
        14 000511   000000 756000 xsym               STQ     BLOCK_GRAN$

     1055    16849
     1056    16850    1      RETURN;

  16850 14 000512   000000 702200 xent               TSX2  ! X66_ARET
PL6.E3A0      #004=FLS$FLUSH_BLOCK File=FLS$FILE_PACKER.:E05TSI                  TUE 07/29/97 16:25 Page:210

  16848 14 000513                       WHATS_MISSI* null
     1057    16851
     1058    16852        /***
     1059    16853         *** The following code lists the contents of the current block.
     1060    16854         ***/
     1061    16855
     1062    16856    1   WHATS_MISSING: ;
     1063    16857
     1064    16858    1      CALL FLI$RPT_ERR( E_MISSING_FILES, );

  16858 14 000513   000015 630400 15                 EPPR0   13
        14 000514   000017 631400 xsym               EPPR1   B_VECTNIL+15
        14 000515   000000 701000 xent               TSX1    FLI$RPT_ERR
        14 000516   000000 011000                    NOP     0

     1065    16859
     1066    16860    1      BLK_TAG$ = PINCRW( BLK_TAG0$, -SIZEW(BLK_TAG) ); /* Start at first tag     */

  16860 14 000517   000000 236000 xsym               LDQ     BLK_TAG0$
        14 000520   777765 036003                    ADLQ    -11,DU
        14 000521   000000 756000 xsym               STQ     BLK_TAG$

     1067    16861
     1068    16862    1      EFTFILE_DCB$->F$DCB.PSN# = BLK_TAG0.WHERE.PSN;

  16862 14 000522   000000 470400 xsym               LDP0    BLK_TAG0$
        14 000523   000000 471400 xsym               LDP1    EFTFILE_DCB$
        14 000524   040100 100500                    MLR     fill='040'O
        14 000525   000003 000006                    ADSC9   3,,PR0                   cn=0,n=6
        14 000526   100024 000006                    ADSC9   20,,PR1                  cn=0,n=6

     1069    16863    1      EFTFILE_DCB$->F$DCB.ACCT# = BLK_TAG0.WHERE.ACCT;

  16863 14 000527   040100 100500                    MLR     fill='040'O
        14 000530   000004 400010                    ADSC9   4,,PR0                   cn=2,n=8
        14 000531   100020 000010                    ADSC9   16,,PR1                  cn=0,n=8
PL6.E3A0      #004=FLS$FLUSH_BLOCK File=FLS$FILE_PACKER.:E05TSI                  TUE 07/29/97 16:25 Page:211

     1070    16864
     1071    16865    2      DO WHILE( BLK_TAG$ >= LOW_BLK_TAG$ );

  16865 14 000532   000000 116000 xsym               CMPQ    LOW_BLK_TAG$
        14 000533   001000 602000 14                 TNC     s:16916

     1072    16866    2         ERR = '777777777777'O;

  16866 14 000534   000027 236000 xsym               LDQ     B_VECTNIL+23
        14 000535   200011 756100                    STQ     ERR,,AUTO

     1073    16867
     1074    16868    3         DO CASE( BLK_TAG.TYPE );          /* Set appropriate error code         */

  16868 14 000536   000000 470400 xsym               LDP0    BLK_TAG$
        14 000537   000000 720100                    LXL0    0,,PR0
        14 000540   000077 360003                    ANX0    63,DU
        14 000541   000011 100003                    CMPX0   9,DU
        14 000542   000544 602010 14                 TNC     s:16868+6,X0
        14 000543   000616 710000 14                 TRA     s:16887
        14 000544   000616 710000 14                 TRA     s:16887
        14 000545   000612 710000 14                 TRA     s:16883
        14 000546   000616 710000 14                 TRA     s:16887
        14 000547   000616 710000 14                 TRA     s:16887
        14 000550   000555 710000 14                 TRA     s:16870
        14 000551   000561 710000 14                 TRA     s:16872
        14 000552   000565 710000 14                 TRA     s:16874
        14 000553   000603 710000 14                 TRA     s:16880
        14 000554   000574 710000 14                 TRA     s:16877

     1075    16869    3          CASE( %FILE_DIR );

     1076    16870    3            ERR.CODE = %E$FDEOF;

  16870 14 000555   000016 376000 15                 ANQ     14
        14 000556   001540 276007                    ORQ     864,DL
PL6.E3A0      #004=FLS$FLUSH_BLOCK File=FLS$FILE_PACKER.:E05TSI                  TUE 07/29/97 16:25 Page:212
        14 000557   200011 756100                    STQ     ERR,,AUTO
        14 000560   000616 710000 14                 TRA     s:16887

     1077    16871    3          CASE( %ACCT_DIR );

     1078    16872    3            ERR.CODE = %E$ADEOF;

  16872 14 000561   000016 376000 15                 ANQ     14
        14 000562   001750 276007                    ORQ     1000,DL
        14 000563   200011 756100                    STQ     ERR,,AUTO
        14 000564   000616 710000 14                 TRA     s:16887

     1079    16873    3          CASE( %DEL_ACCT );

     1080    16874    3            ERR.CODE = %E$NOKEY;

  16874 14 000565   000016 376000 15                 ANQ     14
        14 000566   001020 276007                    ORQ     528,DL
        14 000567   200011 756100                    STQ     ERR,,AUTO

     1081    16875    3            EFTFILE_DCB$->F$DCB.EXPIRE# = BLK_TAG.UTS;

  16875 14 000570   000002 235100                    LDA     2,,PR0
        14 000571   000000 471400 xsym               LDP1    EFTFILE_DCB$
        14 000572   100035 755100                    STA     29,,PR1
        14 000573   000616 710000 14                 TRA     s:16887

     1082    16876    3          CASE( %CLEANUP_FILE );

     1083    16877    3            ERR.CODE = %E$NOFILE;

  16877 14 000574   000016 376000 15                 ANQ     14
        14 000575   001610 276007                    ORQ     904,DL
        14 000576   200011 756100                    STQ     ERR,,AUTO

     1084    16878    3            EFTFILE_DCB$->F$DCB.EXPIRE# = BLK_TAG.UTS;

PL6.E3A0      #004=FLS$FLUSH_BLOCK File=FLS$FILE_PACKER.:E05TSI                  TUE 07/29/97 16:25 Page:213
  16878 14 000577   000002 235100                    LDA     2,,PR0
        14 000600   000000 471400 xsym               LDP1    EFTFILE_DCB$
        14 000601   100035 755100                    STA     29,,PR1
        14 000602   000616 710000 14                 TRA     s:16887

     1085    16879    3          CASE( %CLEANUP_ACCT );

     1086    16880    3            ERR.CODE = %E$NOPROC;

  16880 14 000603   000016 376000 15                 ANQ     14
        14 000604   003520 276007                    ORQ     1872,DL
        14 000605   200011 756100                    STQ     ERR,,AUTO

     1087    16881    3            EFTFILE_DCB$->F$DCB.EXPIRE# = BLK_TAG.UTS;

  16881 14 000606   000002 235100                    LDA     2,,PR0
        14 000607   000000 471400 xsym               LDP1    EFTFILE_DCB$
        14 000610   100035 755100                    STA     29,,PR1
        14 000611   000616 710000 14                 TRA     s:16887

     1088    16882    3          CASE( %DEL_FILE );

     1089    16883    3            EFTFILE_DCB$->F$DCB.EXPIRE# = BLK_TAG.UTS;

  16883 14 000612   000002 235100                    LDA     2,,PR0
        14 000613   000000 471400 xsym               LDP1    EFTFILE_DCB$
        14 000614   100035 755100                    STA     29,,PR1
        14 000615   000616 710000 14                 TRA     s:16887

     1090    16884    3          CASE( ELSE );

     1091    16885    3          END;

     1092    16886
     1093    16887    3         DO CASE( BLK_TAG.TYPE );

  16887 14 000616   000000 720100                    LXL0    0,,PR0
PL6.E3A0      #004=FLS$FLUSH_BLOCK File=FLS$FILE_PACKER.:E05TSI                  TUE 07/29/97 16:25 Page:214
        14 000617   000077 360003                    ANX0    63,DU
        14 000620   000012 100003                    CMPX0   10,DU
        14 000621   000623 602010 14                 TNC     s:16887+5,X0
        14 000622   000773 710000 14                 TRA     s:16913
        14 000623   000736 710000 14                 TRA     s:16905
        14 000624   000701 710000 14                 TRA     s:16899
        14 000625   000736 710000 14                 TRA     s:16905
        14 000626   000736 710000 14                 TRA     s:16905
        14 000627   000635 710000 14                 TRA     s:16890
        14 000630   000671 710000 14                 TRA     s:16895
        14 000631   000635 710000 14                 TRA     s:16890
        14 000632   000635 710000 14                 TRA     s:16890
        14 000633   000701 710000 14                 TRA     s:16899
        14 000634   000736 710000 14                 TRA     s:16905

     1094    16888
     1095    16889    3          CASE( %FILE_DIR, %DEL_ACCT, %CLEANUP_ACCT );

     1096    16890    3            EFTFILE_DCB$->F$DCB.ACCT# = BLK_TAG.WHERE.ACCT;

  16890 14 000635   000000 471400 xsym               LDP1    EFTFILE_DCB$
        14 000636   040100 100500                    MLR     fill='040'O
        14 000637   000004 400010                    ADSC9   4,,PR0                   cn=2,n=8
        14 000640   100020 000010                    ADSC9   16,,PR1                  cn=0,n=8

     1097    16891    3            EFTFILE_DCB$->F$DCB.PSN# = BLK_TAG.WHERE.PSN;

  16891 14 000641   040100 100500                    MLR     fill='040'O
        14 000642   000003 000006                    ADSC9   3,,PR0                   cn=0,n=6
        14 000643   100024 000006                    ADSC9   20,,PR1                  cn=0,n=6

     1098    16892    3            CALL FLP$WR_FILE_INFO( EFTFILE_DCB$, ADDR(NIL), '     ', 0, ' ', '1'B, ERR
             16892                     , '1'B, '0'B ) ALTRET( JUSTALT );

  16892 14 000644   000001 236000 xsym               LDQ     B_VECTNIL+1
        14 000645   200016 756100                    STQ     TEMP_FSN+1,,AUTO
        14 000646   000020 237000 15                 LDAQ    16
PL6.E3A0      #004=FLS$FLUSH_BLOCK File=FLS$FILE_PACKER.:E05TSI                  TUE 07/29/97 16:25 Page:215
        14 000647   200026 757100                    STAQ    TEMP_FSN+9,,AUTO
        14 000650   200011 633500                    EPPR3   ERR,,AUTO
        14 000651   200025 453500                    STP3    TEMP_FSN+8,,AUTO
        14 000652   000003 236000 15                 LDQ     3
        14 000653   200024 756100                    STQ     TEMP_FSN+7,,AUTO
        14 000654   000022 237000 15                 LDAQ    18
        14 000655   200022 757100                    STAQ    TEMP_FSN+5,,AUTO
        14 000656   000017 236000 15                 LDQ     15
        14 000657   200021 756100                    STQ     TEMP_FSN+4,,AUTO
        14 000660   200016 634500                    EPPR4   TEMP_FSN+1,,AUTO
        14 000661   200020 454500                    STP4    TEMP_FSN+3,,AUTO
        14 000662   000024 236000 15                 LDQ     20
        14 000663   200017 756100                    STQ     TEMP_FSN+2,,AUTO
        14 000664   200017 630500                    EPPR0   TEMP_FSN+2,,AUTO
        14 000665   000005 631400 15                 EPPR1   5
        14 000666   000000 701000 xent               TSX1    FLP$WR_FILE_INFO
        14 000667   001013 702000 14                 TSX2    JUSTALT
        14 000670   000773 710000 14                 TRA     s:16913

     1099    16893
     1100    16894    3          CASE( %ACCT_DIR );

     1101    16895    3            EFTFILE_DCB$->F$DCB.ACCT# = BLK_TAG.WHERE.ACCT;

  16895 14 000671   000000 471400 xsym               LDP1    EFTFILE_DCB$
        14 000672   040100 100500                    MLR     fill='040'O
        14 000673   000004 400010                    ADSC9   4,,PR0                   cn=2,n=8
        14 000674   100020 000010                    ADSC9   16,,PR1                  cn=0,n=8

     1102    16896    3            EFTFILE_DCB$->F$DCB.PSN# = BLK_TAG.WHERE.PSN;

  16896 14 000675   040100 100500                    MLR     fill='040'O
        14 000676   000003 000006                    ADSC9   3,,PR0                   cn=0,n=6
        14 000677   100024 000006                    ADSC9   20,,PR1                  cn=0,n=6
        14 000700   000773 710000 14                 TRA     s:16913

     1103    16897
PL6.E3A0      #004=FLS$FLUSH_BLOCK File=FLS$FILE_PACKER.:E05TSI                  TUE 07/29/97 16:25 Page:216
     1104    16898    3          CASE( %DEL_FILE, %CLEANUP_FILE );

     1105    16899    3            EFTFILE_DCB$->F$DCB.NAME#.C = BLK_TAG.NAME.C;

  16899 14 000701   000000 471400 xsym               LDP1    EFTFILE_DCB$
        14 000702   040100 100500                    MLR     fill='040'O
        14 000703   000003 200037                    ADSC9   3,,PR0                   cn=1,n=31
        14 000704   100010 200037                    ADSC9   8,,PR1                   cn=1,n=31

     1106    16900    3            EFTFILE_DCB$->F$DCB.NAME#.L = BLK_TAG.NAME.L;

  16900 14 000705   000003 236100                    LDQ     3,,PR0
        14 000706   100010 552140                    STBQ    8,'40'O,PR1

     1107    16901    3            EFTFILE_DCB$->F$DCB.DESC = BLK_TAG.DESC;

  16901 14 000707   000001 720100                    LXL0    1,,PR0
        14 000710   100005 440100                    SXL0    5,,PR1

     1108    16902    3            CALL FLP$WR_FILE_INFO( EFTFILE_DCB$, ADDR(NIL), '      ', 0, ' ', , ERR,
             16902                     '1'B, '0'B ) ALTRET( JUSTALT );

  16902 14 000711   000001 236000 xsym               LDQ     B_VECTNIL+1
        14 000712   200016 756100                    STQ     TEMP_FSN+1,,AUTO
        14 000713   000020 237000 15                 LDAQ    16
        14 000714   200026 757100                    STAQ    TEMP_FSN+9,,AUTO
        14 000715   200011 633500                    EPPR3   ERR,,AUTO
        14 000716   200025 453500                    STP3    TEMP_FSN+8,,AUTO
        14 000717   000001 236000 xsym               LDQ     B_VECTNIL+1
        14 000720   200024 756100                    STQ     TEMP_FSN+7,,AUTO
        14 000721   000022 237000 15                 LDAQ    18
        14 000722   200022 757100                    STAQ    TEMP_FSN+5,,AUTO
        14 000723   000017 236000 15                 LDQ     15
        14 000724   200021 756100                    STQ     TEMP_FSN+4,,AUTO
        14 000725   200016 634500                    EPPR4   TEMP_FSN+1,,AUTO
        14 000726   200020 454500                    STP4    TEMP_FSN+3,,AUTO
        14 000727   000024 236000 15                 LDQ     20
PL6.E3A0      #004=FLS$FLUSH_BLOCK File=FLS$FILE_PACKER.:E05TSI                  TUE 07/29/97 16:25 Page:217
        14 000730   200017 756100                    STQ     TEMP_FSN+2,,AUTO
        14 000731   200017 630500                    EPPR0   TEMP_FSN+2,,AUTO
        14 000732   000005 631400 15                 EPPR1   5
        14 000733   000000 701000 xent               TSX1    FLP$WR_FILE_INFO
        14 000734   001013 702000 14                 TSX2    JUSTALT
        14 000735   000773 710000 14                 TRA     s:16913

     1109    16903
     1110    16904    3          CASE( %INACTIVE_FILE, %REG_FILE, %ACUP_FILE, %IDS_FAST_FILE );

     1111    16905    3            EFTFILE_DCB$->F$DCB.NAME#.C = BLK_TAG.NAME.C;

  16905 14 000736   000000 471400 xsym               LDP1    EFTFILE_DCB$
        14 000737   040100 100500                    MLR     fill='040'O
        14 000740   000003 200037                    ADSC9   3,,PR0                   cn=1,n=31
        14 000741   100010 200037                    ADSC9   8,,PR1                   cn=1,n=31

     1112    16906    3            EFTFILE_DCB$->F$DCB.NAME#.L = BLK_TAG.NAME.L;

  16906 14 000742   000003 236100                    LDQ     3,,PR0
        14 000743   100010 552140                    STBQ    8,'40'O,PR1

     1113    16907    3            EFTFILE_DCB$->F$DCB.DESC = BLK_TAG.DESC;

  16907 14 000744   000001 720100                    LXL0    1,,PR0
        14 000745   100005 440100                    SXL0    5,,PR1

     1114    16908    3            CALL FLP$WR_FILE_INFO( EFTFILE_DCB$, ADDR(NIL), '      ', 0, ' ', , ERR,
             16908                     '1'B, '0'B ) ALTRET( JUSTALT );

  16908 14 000746   000001 236000 xsym               LDQ     B_VECTNIL+1
        14 000747   200016 756100                    STQ     TEMP_FSN+1,,AUTO
        14 000750   000020 237000 15                 LDAQ    16
        14 000751   200026 757100                    STAQ    TEMP_FSN+9,,AUTO
        14 000752   200011 633500                    EPPR3   ERR,,AUTO
        14 000753   200025 453500                    STP3    TEMP_FSN+8,,AUTO
        14 000754   000001 236000 xsym               LDQ     B_VECTNIL+1
PL6.E3A0      #004=FLS$FLUSH_BLOCK File=FLS$FILE_PACKER.:E05TSI                  TUE 07/29/97 16:25 Page:218
        14 000755   200024 756100                    STQ     TEMP_FSN+7,,AUTO
        14 000756   000022 237000 15                 LDAQ    18
        14 000757   200022 757100                    STAQ    TEMP_FSN+5,,AUTO
        14 000760   000017 236000 15                 LDQ     15
        14 000761   200021 756100                    STQ     TEMP_FSN+4,,AUTO
        14 000762   200016 634500                    EPPR4   TEMP_FSN+1,,AUTO
        14 000763   200020 454500                    STP4    TEMP_FSN+3,,AUTO
        14 000764   000024 236000 15                 LDQ     20
        14 000765   200017 756100                    STQ     TEMP_FSN+2,,AUTO
        14 000766   200017 630500                    EPPR0   TEMP_FSN+2,,AUTO
        14 000767   000005 631400 15                 EPPR1   5
        14 000770   000000 701000 xent               TSX1    FLP$WR_FILE_INFO
        14 000771   001013 702000 14                 TSX2    JUSTALT
        14 000772   000773 710000 14                 TRA     s:16913

     1115    16909
     1116    16910    3          CASE( ELSE );

     1117    16911                 /*N* Might want to give an error message */
     1118    16912    3          END;

     1119    16913    2         BLK_TAG$ = PINCRW( BLK_TAG$, -SIZEW(BLK_TAG) );

  16913 14 000773   000000 236000 xsym               LDQ     BLK_TAG$
        14 000774   777765 036003                    ADLQ    -11,DU
        14 000775   000000 756000 xsym               STQ     BLK_TAG$

     1120    16914    2         END;

  16914 14 000776   000000 116000 xsym               CMPQ    LOW_BLK_TAG$
        14 000777   000534 603000 14                 TRC     s:16866

     1121    16915
     1122    16916    1      BLK_TAG$ = BLK_TAG0$;                /* Indicates nothing to flush         */

  16916 14 001000   000000 236000 xsym               LDQ     BLK_TAG0$
        14 001001   000000 756000 xsym               STQ     BLK_TAG$
PL6.E3A0      #004=FLS$FLUSH_BLOCK File=FLS$FILE_PACKER.:E05TSI                  TUE 07/29/97 16:25 Page:219

     1123    16917    1      ALTRETURN;

  16917 14 001002   000000 702200 xent               TSX2  ! X66_AALT

  16916 14 001003                       REPALT       null
     1124    16918
     1125    16919    1   REPALT: ;
     1126    16920    1      CALL FLI$RPT_ERR( ERR, DCB# );

  16920 14 001003   200007 630500                    EPPR0   DCB#,,AUTO
        14 001004   200017 450500                    STP0    TEMP_FSN+2,,AUTO
        14 001005   200011 631500                    EPPR1   ERR,,AUTO
        14 001006   200016 451500                    STP1    TEMP_FSN+1,,AUTO
        14 001007   200016 630500                    EPPR0   TEMP_FSN+1,,AUTO
        14 001010   000020 631400 xsym               EPPR1   B_VECTNIL+16
        14 001011   000000 701000 xent               TSX1    FLI$RPT_ERR
        14 001012   000000 011000                    NOP     0

  16916 14 001013                       JUSTALT      null
     1127    16921
     1128    16922    1   JUSTALT: ;
     1129    16923    1      ALTRETURN;

  16923 14 001013   000000 702200 xent               TSX2  ! X66_AALT
     1130    16924
     1131    16925    1   END FLS$FLUSH_BLOCK;

PL6.E3A0      #004=FLS$FLUSH_BLOCK File=FLS$FILE_PACKER.:E05TSI                  TUE 07/29/97 16:25 Page:220
--  Include file information  --

   FLN_DATA_R.:E05TOU  cannot be made into a system file and is referenced.
   FLS_DATA_R.:E05TOU  cannot be made into a system file and is referenced.
   B_MICROPS_C.:E05TOU  is referenced.
   FLB_SUBS_C.:E05TOU  is referenced.
   FLI_DATA_R.:E05TOU  cannot be made into a system file and is referenced.
   FL_PERR_C.:E05TOU  is referenced.
   FLE_DATA_R.:E05TOU  cannot be made into a system file and is referenced.
   CP_6_C.:E05TOU  is referenced.
   CP_6.:E05TOU  cannot be made into a system file and is referenced.
   B_ERRORS_C.:E05TOU  is referenced.
      No diagnostics issued in procedure FLS$FLUSH_BLOCK.
PL6.E3A0      #004=FLS$FLUSH_BLOCK File=FLS$FILE_PACKER.:E05TSI                  TUE 07/29/97 16:25 Page:221

 **** Variables and constants ****

  ****  Section 002  Data  FLS$FLUSH_BLOCK

  ****  Scalars and arrays  ****
OctLoc.c.b A Datatyp(siz) R M Lvl/name                 OctLoc.c.b A Datatyp(siz) R M Lvl/name

   116-0-0/d STRC(1080)  r     1 CLOSE_BLOCK_FILE          12-0-0/d STRC(360)   r     1 DEL_NODATA_REC
    24-0-0/d STRC(2088)  r     1 OPEN_BLOCK_FILE          154-0-0/b BIT         r     1 PREV_LOW_BLK_TAG_BEG

  ****  Auto variables  ****

  ****  Scalars and arrays  ****
OctLoc.c.b A Datatyp(siz) R M Lvl/name                 OctLoc.c.b A Datatyp(siz) R M Lvl/name

     4-0-0/w PTR         r     1 @COMMAND                   6-0-0/w PTR         r     1 @NEW_FSN
     5-0-0/w PTR         r     1 @NEW_TSN                   3-0-0/w PTR         r     1 @NOT_END
    *0-0-0/w SBIN        r     1 COMMAND                    7-0-0/w SBIN        r     1 DCB#
    11-0-0/w STRC        r     1 ERR                       10-0-0/w SBIN        r     1 I
    12-0-0/w PTR         r     1 NEW_BLK_TAG$              *0-0-0/w UBIN        r     1 NEW_FSN
    *0-0-0/c CHAR(6)     r     1 NEW_TSN                   *0-0-0/w BIT         r     1 NOT_END
    15-0-0/w UBIN        r     1 TEMP_FSN                  13-0-0/c CHAR(6)     r     1 TEMP_TSN

  ****  SYMREF variables  ****

  ****  Scalars and arrays  ****
OctLoc.c.b A Datatyp(siz) R M Lvl/name                 OctLoc.c.b A Datatyp(siz) R M Lvl/name

     0-0-0/w PTR         r     1 ARCHIVE$                   0-0-0/c ASTR(9)     r     1 ARCHIVE_NAME
     0-0-0/d VECT        r     1 A_FIT_                     0-0-0/c ASTR(9)     r     1 BACKUP_NAME
     0-0-0/w PTR         r     1 BLK_TAG$                   0-0-0/w PTR         r     1 BLK_TAG0$
     0-0-0/w SBIN        r     1 BLK_TAG_NBR                0-0-0/w PTR         r     1 BLOCK_GRAN$
     0-0-0/c CHAR        r     1 CROSSED                    0-0-0/w PTR         r     1 DISK_FILE_SPEC$
     0-0-0/w PTR         r     1 DISK_GRAN$                 0-0-0/w PTR         r     1 DPLIST$
     0-0-0/w PTR         r     1 DPRESLIST$                 0-0-0/c ASTR(9)     r     1 DUAL_FILE
     0-0-0/w PTR         r     1 EFTFILE_DCB$               0-0-0/c ASTR(9)     r     1 EFT_CVOL_FILE
     0-0-0/c ASTR(9)     r     1 EFT_RESTRICT_FILE          0-0-0/b BIT         r     1 EOVOL
PL6.E3A0      #004=FLS$FLUSH_BLOCK File=FLS$FILE_PACKER.:E05TSI                  TUE 07/29/97 16:25 Page:222
     0-0-0/w STRC        r     1 E_MISSING_FILES            0-0-0/c STRC(72)    r     1 FROM_DISK_ACCT
     0-0-0/c STRC(288)   r     1 FROM_DISK_NAME             0-0-0/d STRC(90)    r     1 FROM_DISK_SN
     0-0-0/d STRC(432)   r     1 GET_NOW_UTS                0-0-0/w PTR         r     1 GRAN_BASE$
     0-0-0/c CHAR(6)     r     1 LAST_TSN_USED              0-0-0/w PTR         r     1 LOW_BLK_TAG$
     0-0-0/w SBIN        r     1 NBR_BLOCK_BYTES
     0-0-0/w SBIN        r     1 NBR_BLOCK_BYTES_REMAINING
     0-0-0/w SBIN        r     1 NBR_BYTES_TO_MOVE          0-0-0/w SBIN        r     1 NBR_FILE_BLOCKS
     0-0-0/w SBIN        r     1 NBR_SNLISTS                0-0-0/c ASTR(9)     r     1 NODATA_FILE_NAME
     0-0-0/c STRC(369)   r     1 NODATA_KEY                 0-0-0/w UBIN        r     1 NOW_UTS
     0-0-0/d STRC(72)    r     1 OUTBUF_                    0-0-0/c ASTR(9)     r     1 PRIME_FILE
     0-0-0/c ASTR(9)     r     1 REBUILD_DIR_KEY            0-0-0/c ASTR(9)     r     1 REBUILD_KEY
     0-0-0/c ASTR(9)     r     1 REBUILD_NAME               0-0-0/c ASTR(9)     r     1 RET_CMDS_NAME
     0-0-0/w SBIN        r     1 RUN_NBR                    0-0-0/w PTR         r     1 SNVECLIST$
     0-0-0/w PTR         r     1 TAPE_DCBLIST$              0-0-0/w SBIN        r     1 TAPE_FSN
     0-0-0/c CHAR(6)     r     1 TAPE_SN                    0-0-0/d STRC(432)   r     1 TAPE_WRITE
     0-0-0/w SBIN        r     1 TSN_SET_NBR                0-0-0/w STRC(270)   r     1 TSN_USED_BUF
     0-0-0/c STRC(45)    r     1 TSN_USED_KEY               0-0-0/c ASTR(9)     r     1 TSN_USED_NAME
     0-0-0/w SBIN        r     1 TSN_VOL                    0-0-0/d STRC(432)   r     1 WRITE_TSN_USED

  ****  BASED and DCB variables  ****

  ****  Scalars and arrays  ****
OctLoc.c.b A Datatyp(siz) R M Lvl/name                 OctLoc.c.b A Datatyp(siz) R M Lvl/name

     0-0-0/w STRC(396)   r     1 BLK_TAG                    0-0-0/w STRC(396)   r     1 BLK_TAG0
     0-0-0/d ASTR(3528)  r     1 F$DCB                      0-0-0N  NULL        r     1 M$DISK_IN
     0-0-0N  NULL        r     1 M$NODATA_LIST
     0-0-0/w STRC(72)    r     1 TAPE_DCBLIST(0:0)


   Procedure FLS$FLUSH_BLOCK requires 524 words for executable code.
   Procedure FLS$FLUSH_BLOCK requires 26 words of local(AUTO) storage.

    No errors detected in file FLS$FILE_PACKER.:E05TSI    .
PL6.E3A0      #004=FLS$FLUSH_BLOCK File=FLS$FILE_PACKER.:E05TSI                  TUE 07/29/97 16:25 Page:223
          *** CROSS REFERENCE LISTING ***
**     DENOTES     IDENTIFIER DEFINITION
<<                 IDENTIFIER'S VALUE SET
>>                 IDENTIFIER'S VALUE USED
<>                 IDENTIFIER SET AND/OR USED
--                 IDENTIFIER REFERENCED
PL6.E3A0      #004=FLS$FLUSH_BLOCK File=FLS$FILE_PACKER.:E05TSI                  TUE 07/29/97 16:25 Page:224
          MINI XREF LISTING

ARCHIVE$
     15881**DCL     16751>>IF
ARCHIVE_NAME.L#
     14963**DCL     14963--IMP-SIZ
A_FIT_
     14128**DCL     16803<>CALL    16819<>CALL
BACKUP_NAME.L#
     14607**DCL     14607--IMP-SIZ
BLK_TAG
     14096**DCL     16832--ASSIGN  16833<<ASSIGN  16833>>ASSIGN  16860--ASSIGN  16913--ASSIGN
BLK_TAG.BEG
     14098**DCL     16733>>IF      16809>>IF      16823>>ASSIGN  16837<<ASSIGN
BLK_TAG.BEGX
     14098**DCL     16835<<ASSIGN
BLK_TAG.DESC
     14098**DCL     16901>>ASSIGN  16907>>ASSIGN
BLK_TAG.NAME
     14099**DCL     14099--REDEF
BLK_TAG.NAME.C
     14099**DCL     16899>>ASSIGN  16905>>ASSIGN
BLK_TAG.NAME.L
     14099**DCL     16900>>ASSIGN  16906>>ASSIGN
BLK_TAG.NBR
     14098**DCL     16846<<ASSIGN
BLK_TAG.SIZE
     14098**DCL     16836<<ASSIGN
BLK_TAG.TYPE
     14098**DCL     16868>>DOCASE  16887>>DOCASE
BLK_TAG.UTS
     14099**DCL     16875>>ASSIGN  16878>>ASSIGN  16881>>ASSIGN  16883>>ASSIGN
BLK_TAG.WHERE.ACCT
     14099**DCL     16890>>ASSIGN  16895>>ASSIGN
PL6.E3A0      #004=FLS$FLUSH_BLOCK File=FLS$FILE_PACKER.:E05TSI                  TUE 07/29/97 16:25 Page:225
BLK_TAG.WHERE.PSN
     14099**DCL     16891>>ASSIGN  16896>>ASSIGN
BLK_TAG$
     14096**DCL     14096--IMP-PTR 16833>>ASSIGN  16834<<ASSIGN  16835>>ASSIGN  16836>>ASSIGN  16837>>ASSIGN
     16841<<ASSIGN  16845>>ASSIGN  16846>>ASSIGN  16860<<ASSIGN  16865>>DOWHILE 16868>>DOCASE  16875>>ASSIGN
     16878>>ASSIGN  16881>>ASSIGN  16883>>ASSIGN  16887>>DOCASE  16890>>ASSIGN  16891>>ASSIGN  16895>>ASSIGN
     16896>>ASSIGN  16899>>ASSIGN  16900>>ASSIGN  16901>>ASSIGN  16905>>ASSIGN  16906>>ASSIGN  16907>>ASSIGN
     16913<<ASSIGN  16913>>ASSIGN  16916<<ASSIGN
BLK_TAG0.NAME
     14105**DCL     14105--REDEF
BLK_TAG0.WHERE.ACCT
     14105**DCL     16863>>ASSIGN
BLK_TAG0.WHERE.PSN
     14105**DCL     16862>>ASSIGN
BLK_TAG0$
     14102**DCL     14102--IMP-PTR 16832>>ASSIGN  16841>>ASSIGN  16860>>ASSIGN  16862>>ASSIGN  16863>>ASSIGN
     16916>>ASSIGN
BLK_TAG_NBR
     14108**DCL     16838<<ASSIGN  16842<<ASSIGN  16846>>ASSIGN
BLOCK_GRAN$
     14109**DCL     14110--IMP-PTR 16726>>CALL    16805>>CALL    16807>>CALL    16848<<ASSIGN
CLOSE_BLOCK_FILE.SN_
     16550**DCL     16550--REDEF
CLOSE_BLOCK_FILE.UTL_
     16551**DCL     16551--REDEF
CLOSE_BLOCK_FILE.V
     16555**DCL     16550--DCLINIT
CLOSE_BLOCK_FILE.V.EXPIRE#
     16565**DCL     16565--REDEF
CLOSE_BLOCK_FILE.V.TYPE#
     16563**DCL     16563--REDEF
CLOSE_BLOCK_FILE.V.XTNSIZE#
     16560**DCL     16560--REDEF   16562--REDEF
CLOSE_NODATA_LIST.SN_
     15761**DCL     15761--REDEF
CLOSE_NODATA_LIST.UTL_
PL6.E3A0      #004=FLS$FLUSH_BLOCK File=FLS$FILE_PACKER.:E05TSI                  TUE 07/29/97 16:25 Page:226
     15762**DCL     15762--REDEF
CLOSE_NODATA_LIST.V.EXPIRE#
     15776**DCL     15776--REDEF
CLOSE_NODATA_LIST.V.TYPE#
     15774**DCL     15774--REDEF
CLOSE_NODATA_LIST.V.XTNSIZE#
     15771**DCL     15771--REDEF   15773--REDEF
CLOSE_PRIME_DUAL.SN_
     15238**DCL     15238--REDEF
CLOSE_PRIME_DUAL.UTL_
     15239**DCL     15239--REDEF
CLOSE_PRIME_DUAL.V.EXPIRE#
     15253**DCL     15253--REDEF
CLOSE_PRIME_DUAL.V.TYPE#
     15251**DCL     15251--REDEF
CLOSE_PRIME_DUAL.V.XTNSIZE#
     15248**DCL     15248--REDEF   15250--REDEF
CLOSE_REBUILD.SN_
     15513**DCL     15513--REDEF
CLOSE_REBUILD.UTL_
     15514**DCL     15514--REDEF
CLOSE_REBUILD.V.EXPIRE#
     15528**DCL     15528--REDEF
CLOSE_REBUILD.V.TYPE#
     15526**DCL     15526--REDEF
CLOSE_REBUILD.V.XTNSIZE#
     15523**DCL     15523--REDEF   15525--REDEF
CLOSE_STATUS.SN_
     14728**DCL     14728--REDEF
CLOSE_STATUS.UTL_
     14729**DCL     14729--REDEF
CLOSE_STATUS.V.EXPIRE#
     14743**DCL     14743--REDEF
CLOSE_STATUS.V.TYPE#
     14741**DCL     14741--REDEF
CLOSE_STATUS.V.XTNSIZE#
PL6.E3A0      #004=FLS$FLUSH_BLOCK File=FLS$FILE_PACKER.:E05TSI                  TUE 07/29/97 16:25 Page:227
     14738**DCL     14738--REDEF   14740--REDEF
CLOSE_TSN_USED.SN_
     14438**DCL     14438--REDEF
CLOSE_TSN_USED.UTL_
     14439**DCL     14439--REDEF
CLOSE_TSN_USED.V.EXPIRE#
     14453**DCL     14453--REDEF
CLOSE_TSN_USED.V.TYPE#
     14451**DCL     14451--REDEF
CLOSE_TSN_USED.V.XTNSIZE#
     14448**DCL     14448--REDEF   14450--REDEF
COMMAND
        12**DCL         6--PROC    16726<>CALL    16805<>CALL    16807<>CALL
CON_CLOSE_ARCHIVE.SN_
     14770**DCL     14770--REDEF
CON_CLOSE_ARCHIVE.UTL_
     14771**DCL     14771--REDEF
CON_CLOSE_ARCHIVE.V.EXPIRE#
     14785**DCL     14785--REDEF
CON_CLOSE_ARCHIVE.V.TYPE#
     14783**DCL     14783--REDEF
CON_CLOSE_ARCHIVE.V.XTNSIZE#
     14780**DCL     14780--REDEF   14782--REDEF
CON_OPEN_ARCHIVE_FILE.ACSVEH_
     14857**DCL     14858--REDEF
CON_OPEN_ARCHIVE_FILE.ALTKEYS_
     14863**DCL     14864--REDEF   14864--REDEF
CON_OPEN_ARCHIVE_FILE.HDR_
     14862**DCL     14863--REDEF
CON_OPEN_ARCHIVE_FILE.TAB_
     14861**DCL     14862--REDEF
CON_OPEN_ARCHIVE_FILE.UHL_
     14855**DCL     14856--REDEF   14856--REDEF
CON_OPEN_ARCHIVE_FILE.V.FSN#
     14895**DCL     14895--REDEF   14895--REDEF
CON_OPEN_ARCHIVE_FILE.WSN_
PL6.E3A0      #004=FLS$FLUSH_BLOCK File=FLS$FILE_PACKER.:E05TSI                  TUE 07/29/97 16:25 Page:228
     14861**DCL     14861--REDEF
CON_READ_ARCHIVE_FILE.STATION_
     14919**DCL     14920--REDEF
CON_READ_ARCHIVE_FILE.V.DVBYTE.REREAD#
     14931**DCL     14931--REDEF
CON_READ_ARCHIVE_FILE.V.INDX#
     14929**DCL     14929--REDEF
CROSSED
     14131**DCL     16761<<ASSIGN  16800<<ASSIGN
CVOL_UTL.ULBL#
     14198**DCL     14198--REDEF
DCB#
     16624**DCL     16803<>CALL    16819<>CALL    16920<>CALL
DEL_NODATA_REC.V
     15864**DCL     15861--DCLINIT
DISK_CLOSE.SN_
     13268**DCL     13268--REDEF
DISK_CLOSE.UTL_
     13269**DCL     13269--REDEF
DISK_CLOSE.V.EXPIRE#
     13283**DCL     13283--REDEF
DISK_CLOSE.V.TYPE#
     13281**DCL     13281--REDEF
DISK_CLOSE.V.XTNSIZE#
     13278**DCL     13278--REDEF   13280--REDEF
DISK_CLOSE_NEXT.SN_
     16247**DCL     16247--REDEF
DISK_CLOSE_NEXT.UTL_
     16248**DCL     16248--REDEF
DISK_CLOSE_NEXT.V.EXPIRE#
     16262**DCL     16262--REDEF
DISK_CLOSE_NEXT.V.TYPE#
     16260**DCL     16260--REDEF
DISK_CLOSE_NEXT.V.XTNSIZE#
     16257**DCL     16257--REDEF   16259--REDEF
DISK_CLOSE_ORDINARY.SN_
PL6.E3A0      #004=FLS$FLUSH_BLOCK File=FLS$FILE_PACKER.:E05TSI                  TUE 07/29/97 16:25 Page:229
     16289**DCL     16289--REDEF
DISK_CLOSE_ORDINARY.UTL_
     16290**DCL     16290--REDEF
DISK_CLOSE_ORDINARY.V.EXPIRE#
     16304**DCL     16304--REDEF
DISK_CLOSE_ORDINARY.V.TYPE#
     16302**DCL     16302--REDEF
DISK_CLOSE_ORDINARY.V.XTNSIZE#
     16299**DCL     16299--REDEF   16301--REDEF
DISK_FILE_SPEC.SPEC
     13633**DCL     13635--REDEF
DISK_FILE_SPEC.SPEC.START
     13634**DCL     13634--REDEF
DISK_FILE_SPEC.SPEC.STOP
     13635**DCL     13635--REDEF
DISK_FILE_SPEC$
     13632**DCL     13633--IMP-PTR
DISK_GRAN$
     14109**DCL     14109--IMP-PTR
DISK_OPEN.ACSVEH_
     13133**DCL     13134--REDEF
DISK_OPEN.ALTKEYS_
     13139**DCL     13140--REDEF   13140--REDEF
DISK_OPEN.HDR_
     13138**DCL     13139--REDEF
DISK_OPEN.TAB_
     13137**DCL     13138--REDEF
DISK_OPEN.UHL_
     13131**DCL     13132--REDEF   13132--REDEF
DISK_OPEN.V.FSN#
     13171**DCL     13171--REDEF   13171--REDEF
DISK_OPEN.WSN_
     13137**DCL     13137--REDEF
DISK_OPEN_NEXT.ACSVEH_
     16073**DCL     16074--REDEF
DISK_OPEN_NEXT.ALTKEYS_
PL6.E3A0      #004=FLS$FLUSH_BLOCK File=FLS$FILE_PACKER.:E05TSI                  TUE 07/29/97 16:25 Page:230
     16079**DCL     16080--REDEF   16080--REDEF
DISK_OPEN_NEXT.HDR_
     16078**DCL     16079--REDEF
DISK_OPEN_NEXT.TAB_
     16077**DCL     16078--REDEF
DISK_OPEN_NEXT.UHL_
     16071**DCL     16072--REDEF   16072--REDEF
DISK_OPEN_NEXT.V.FSN#
     16111**DCL     16111--REDEF   16111--REDEF
DISK_OPEN_NEXT.WSN_
     16077**DCL     16077--REDEF
DISK_OPEN_ORDINARY.ACSVEH_
     16182**DCL     16183--REDEF
DISK_OPEN_ORDINARY.ALTKEYS_
     16188**DCL     16189--REDEF   16189--REDEF
DISK_OPEN_ORDINARY.HDR_
     16187**DCL     16188--REDEF
DISK_OPEN_ORDINARY.TAB_
     16186**DCL     16187--REDEF
DISK_OPEN_ORDINARY.UHL_
     16180**DCL     16181--REDEF   16181--REDEF
DISK_OPEN_ORDINARY.V.FSN#
     16220**DCL     16220--REDEF   16220--REDEF
DISK_OPEN_ORDINARY.WSN_
     16186**DCL     16186--REDEF
DISK_READ.STATION_
     13195**DCL     13196--REDEF
DISK_READ.V.DVBYTE.REREAD#
     13207**DCL     13207--REDEF
DISK_READ.V.INDX#
     13205**DCL     13205--REDEF
DISK_WRITE.STATION_
     13233**DCL     13233--REDEF
DISK_WRITE.V.DVBYTE.VFC#
     13240**DCL     13240--REDEF
DPLIST$
PL6.E3A0      #004=FLS$FLUSH_BLOCK File=FLS$FILE_PACKER.:E05TSI                  TUE 07/29/97 16:25 Page:231
     13618**DCL     13630--IMP-PTR
DPRESLIST$
     13632**DCL     13632--IMP-PTR
DUAL_FILE.L#
     15034**DCL     15034--IMP-SIZ
EFTFILE_DCB$
     14131**DCL     16862>>ASSIGN  16863>>ASSIGN  16875>>ASSIGN  16878>>ASSIGN  16881>>ASSIGN  16883>>ASSIGN
     16890>>ASSIGN  16891>>ASSIGN  16892<>CALL    16895>>ASSIGN  16896>>ASSIGN  16899>>ASSIGN  16900>>ASSIGN
     16901>>ASSIGN  16902<>CALL    16905>>ASSIGN  16906>>ASSIGN  16907>>ASSIGN  16908<>CALL
EFTWORD
     13753**DCL     13753--REDEF
EFT_CVOL_FILE
     14158**DCL     16803--CALL
EFT_CVOL_FILE.L#
     14158**DCL     14158--IMP-SIZ 16803>>CALL
EFT_RESTRICT_FILE
     14185**DCL     16819--CALL
EFT_RESTRICT_FILE.L#
     14185**DCL     14185--IMP-SIZ 16819>>CALL
EOVOL
     14131**DCL     16726<>CALL    16794>>IF      16805<>CALL    16807<>CALL
ERR
     16626**DCL     16803<>CALL    16819<>CALL    16866<<ASSIGN  16892<>CALL    16902<>CALL    16908<>CALL
     16920<>CALL
ERR.CODE
     16630**DCL     16870<<ASSIGN  16872<<ASSIGN  16874<<ASSIGN  16877<<ASSIGN  16880<<ASSIGN
E_MISSING_FILES
      8348**DCL     16858<>CALL
F$DCB.ACCT#
     16668**DCL     16863<<ASSIGN  16890<<ASSIGN  16895<<ASSIGN
F$DCB.ACTPOS
     16684**DCL     16684--REDEF
F$DCB.ARS#
     16658**DCL     16658--REDEF
F$DCB.ATTR
     16677**DCL     16678--REDEF
PL6.E3A0      #004=FLS$FLUSH_BLOCK File=FLS$FILE_PACKER.:E05TSI                  TUE 07/29/97 16:25 Page:232
F$DCB.BORROW
     16692**DCL     16692--REDEF   16692--REDEF   16692--REDEF
F$DCB.DCBNAME.L
     16706**DCL     16706--IMP-SIZ
F$DCB.DESC
     16665**DCL     16901<<ASSIGN  16907<<ASSIGN
F$DCB.EOMCHAR#
     16662**DCL     16662--REDEF
F$DCB.EXPIRE#
     16675**DCL     16875<<ASSIGN  16878<<ASSIGN  16881<<ASSIGN  16883<<ASSIGN
F$DCB.FCD#
     16671**DCL     16796>>IF
F$DCB.FLDID
     16687**DCL     16687--REDEF
F$DCB.FORM$
     16681**DCL     16681--REDEF
F$DCB.FSECT
     16697**DCL     16697--REDEF
F$DCB.FSN#
     16674**DCL     16674--REDEF   16674--REDEF   16675--REDEF
F$DCB.HEADER$
     16680**DCL     16680--REDEF
F$DCB.IXTNSIZE#
     16678**DCL     16678--REDEF
F$DCB.LASTSTA$
     16667**DCL     16667--REDEF
F$DCB.LVL
     16693**DCL     16693--REDEF
F$DCB.NAME#.C
     16668**DCL     16668--REDEF   16899<<ASSIGN  16905<<ASSIGN
F$DCB.NAME#.L
     16668**DCL     16900<<ASSIGN  16906<<ASSIGN
F$DCB.NOEOF
     16690**DCL     16690--REDEF
F$DCB.NRECS#
     16679**DCL     16679--REDEF
PL6.E3A0      #004=FLS$FLUSH_BLOCK File=FLS$FILE_PACKER.:E05TSI                  TUE 07/29/97 16:25 Page:233
F$DCB.NRECX
     16698**DCL     16698--REDEF
F$DCB.OHDR
     16690**DCL     16690--REDEF
F$DCB.ORG#
     16673**DCL     16673--REDEF
F$DCB.PRECNO
     16696**DCL     16696--REDEF
F$DCB.PSN#
     16668**DCL     16722>>ASSIGN  16780>>ASSIGN  16862<<ASSIGN  16891<<ASSIGN  16896<<ASSIGN
F$DCB.RCSZ
     16702**DCL     16702--REDEF
F$DCB.RES#
     16669**DCL     16669--REDEF   16721>>IF      16757>>IF
F$DCB.SETX
     16681**DCL     16681--REDEF
F$DCB.TAB$
     16681**DCL     16681--REDEF
F$DCB.TDA
     16695**DCL     16696--REDEF
F$DCB.WSN#
     16669**DCL     16669--REDEF
FIT_AREA.W2
     14469**DCL     14470--REDEF
FLE$ESTMOD
     16618**DCL-ENT 16753--CALL
FLI$RPT_ERR
     16613**DCL-ENT 16858--CALL    16920--CALL
FLI$TAPE_CLOSE
     16614**DCL-ENT 16798--CALL    16801--CALL    16818--CALL
FLI$TAPE_OPEN
     16615**DCL-ENT 16803--CALL    16819--CALL
FLI$TAPE_WRITE
     16616**DCL-ENT 16726--CALL    16805--CALL    16807--CALL
FLP$WR_FILE_INFO
     16617**DCL-ENT 16892--CALL    16902--CALL    16908--CALL
PL6.E3A0      #004=FLS$FLUSH_BLOCK File=FLS$FILE_PACKER.:E05TSI                  TUE 07/29/97 16:25 Page:234
FPT_EXIT.V.STEPCC#
     13058**DCL     13058--REDEF
FROM_DISK_ACCT
     15964**DCL     16488--DCLINIT
FROM_DISK_NAME
     15938**DCL     16484--DCLINIT
FROM_DISK_SN
     15990**DCL     16483--DCLINIT
GET_NOW_UTS
     13609**DCL     16773<>CALL
GRAN_BASE$
     14127**DCL     16848>>ASSIGN
I
     16625**DCL     16778<<DOINDEX 16780>>ASSIGN
JUSTALT
     16916**LABEL   16798--CALLALT 16801--CALLALT 16818--CALLALT 16892--CALLALT 16902--CALLALT 16908--CALLALT
LAST_TSN_USED
     14201**DCL     16744>>IF      16751>>IF      16757>>IF      16760>>IF      16764<<ASSIGN
LOW_BLK_TAG$
     14096**DCL     16715>>ASSIGN  16726>>CALL    16733>>IF      16805>>CALL    16807>>CALL    16809>>IF
     16823>>ASSIGN  16845<<ASSIGN  16865>>DOWHILE
M$TIME
      6701**DCL-ENT 16773--CALL
M$WRITE
      6635**DCL-ENT 16775--CALL    16781--CALL
NBR_BLOCK_BYTES
     14108**DCL     16847>>ASSIGN
NBR_BLOCK_BYTES_REMAINING
     14108**DCL     16847<<ASSIGN
NBR_BYTES_TO_MOVE
     14108**DCL     14109--IMP-SIZ 14110--IMP-SIZ
NBR_FILE_BLOCKS
     14131**DCL     16742<<ASSIGN  16742>>ASSIGN  16820<<ASSIGN
NBR_SNLISTS
     13045**DCL     16778>>DOINDEX
NEW_BLK_TAG$
PL6.E3A0      #004=FLS$FLUSH_BLOCK File=FLS$FILE_PACKER.:E05TSI                  TUE 07/29/97 16:25 Page:235
     16632**DCL     16832<<ASSIGN  16833>>ASSIGN  16834>>ASSIGN
NEW_FSN
        14**DCL         6--PROC    16739<<ASSIGN  16815<<ASSIGN
NEW_TSN
        13**DCL         6--PROC    16738<<ASSIGN  16814<<ASSIGN
NODATA_FILE_NAME.L#
     15723**DCL     15723--IMP-SIZ
NODATA_KEY
     15869**DCL     15861--DCLINIT 15862--DCLINIT
NOT_END
        11**DCL         6--PROC    16797--IF      16830--IF
NOW_UTS
     13597**DCL     16774>>ASSIGN
OPEN_BLOCK_FILE.ACSVEH_
     16485**DCL     16486--REDEF
OPEN_BLOCK_FILE.ALTKEYS_
     16491**DCL     16492--REDEF   16492--REDEF
OPEN_BLOCK_FILE.HDR_
     16490**DCL     16491--REDEF
OPEN_BLOCK_FILE.TAB_
     16489**DCL     16490--REDEF
OPEN_BLOCK_FILE.UHL_
     16483**DCL     16484--REDEF   16484--REDEF
OPEN_BLOCK_FILE.V
     16492**DCL     16483--DCLINIT
OPEN_BLOCK_FILE.V.FSN#
     16523**DCL     16523--REDEF   16523--REDEF
OPEN_BLOCK_FILE.WSN_
     16489**DCL     16489--REDEF
OPEN_NODATA_LIST.ACSVEH_
     15656**DCL     15657--REDEF
OPEN_NODATA_LIST.ALTKEYS_
     15662**DCL     15663--REDEF   15663--REDEF
OPEN_NODATA_LIST.HDR_
     15661**DCL     15662--REDEF
OPEN_NODATA_LIST.TAB_
PL6.E3A0      #004=FLS$FLUSH_BLOCK File=FLS$FILE_PACKER.:E05TSI                  TUE 07/29/97 16:25 Page:236
     15660**DCL     15661--REDEF
OPEN_NODATA_LIST.UHL_
     15654**DCL     15655--REDEF   15655--REDEF
OPEN_NODATA_LIST.V.FSN#
     15694**DCL     15694--REDEF   15694--REDEF
OPEN_NODATA_LIST.WSN_
     15660**DCL     15660--REDEF
OPEN_PRIME_DUAL.ACSVEH_
     15103**DCL     15104--REDEF
OPEN_PRIME_DUAL.ALTKEYS_
     15109**DCL     15110--REDEF   15110--REDEF
OPEN_PRIME_DUAL.HDR_
     15108**DCL     15109--REDEF
OPEN_PRIME_DUAL.TAB_
     15107**DCL     15108--REDEF
OPEN_PRIME_DUAL.UHL_
     15101**DCL     15102--REDEF   15102--REDEF
OPEN_PRIME_DUAL.V.FSN#
     15141**DCL     15141--REDEF   15141--REDEF
OPEN_PRIME_DUAL.WSN_
     15107**DCL     15107--REDEF
OPEN_REBUILD.ACSVEH_
     15338**DCL     15339--REDEF
OPEN_REBUILD.ALTKEYS_
     15344**DCL     15345--REDEF   15345--REDEF
OPEN_REBUILD.HDR_
     15343**DCL     15344--REDEF
OPEN_REBUILD.TAB_
     15342**DCL     15343--REDEF
OPEN_REBUILD.UHL_
     15336**DCL     15337--REDEF   15337--REDEF
OPEN_REBUILD.V.FSN#
     15376**DCL     15376--REDEF   15376--REDEF
OPEN_REBUILD.WSN_
     15342**DCL     15342--REDEF
OPEN_STATUS.ACSVEH_
PL6.E3A0      #004=FLS$FLUSH_BLOCK File=FLS$FILE_PACKER.:E05TSI                  TUE 07/29/97 16:25 Page:237
     14540**DCL     14541--REDEF
OPEN_STATUS.ALTKEYS_
     14546**DCL     14547--REDEF   14547--REDEF
OPEN_STATUS.HDR_
     14545**DCL     14546--REDEF
OPEN_STATUS.TAB_
     14544**DCL     14545--REDEF
OPEN_STATUS.UHL_
     14538**DCL     14539--REDEF   14539--REDEF
OPEN_STATUS.V.FSN#
     14578**DCL     14578--REDEF   14578--REDEF
OPEN_STATUS.WSN_
     14544**DCL     14544--REDEF
OPEN_TSN_USED.ACSVEH_
     14276**DCL     14277--REDEF
OPEN_TSN_USED.ALTKEYS_
     14282**DCL     14283--REDEF   14283--REDEF
OPEN_TSN_USED.HDR_
     14281**DCL     14282--REDEF
OPEN_TSN_USED.TAB_
     14280**DCL     14281--REDEF
OPEN_TSN_USED.UHL_
     14274**DCL     14275--REDEF   14275--REDEF
OPEN_TSN_USED.V.FSN#
     14314**DCL     14314--REDEF   14314--REDEF
OPEN_TSN_USED.WSN_
     14280**DCL     14280--REDEF
OUTBUF_
     14110**DCL     16726<>CALL    16805<>CALL    16807<>CALL
OUTBUF_.PTR$
     14110**DCL     16715<<ASSIGN
PREV_LOW_BLK_TAG_BEG
     16640**DCL     16733>>IF      16809>>IF      16823<<ASSIGN
PRE_RET_CLOSE.SN_
     13996**DCL     13996--REDEF
PRE_RET_CLOSE.UTL_
PL6.E3A0      #004=FLS$FLUSH_BLOCK File=FLS$FILE_PACKER.:E05TSI                  TUE 07/29/97 16:25 Page:238
     13997**DCL     13997--REDEF
PRE_RET_CLOSE.V.EXPIRE#
     14011**DCL     14011--REDEF
PRE_RET_CLOSE.V.TYPE#
     14009**DCL     14009--REDEF
PRE_RET_CLOSE.V.XTNSIZE#
     14006**DCL     14006--REDEF   14008--REDEF
PRE_RET_OPEN.ACSVEH_
     13931**DCL     13932--REDEF
PRE_RET_OPEN.ALTKEYS_
     13937**DCL     13938--REDEF   13938--REDEF
PRE_RET_OPEN.HDR_
     13936**DCL     13937--REDEF
PRE_RET_OPEN.TAB_
     13935**DCL     13936--REDEF
PRE_RET_OPEN.UHL_
     13929**DCL     13930--REDEF   13930--REDEF
PRE_RET_OPEN.V.FSN#
     13969**DCL     13969--REDEF   13969--REDEF
PRE_RET_OPEN.WSN_
     13935**DCL     13935--REDEF
PRE_RET_READ.STATION_
     13786**DCL     13787--REDEF
PRE_RET_READ.V.DVBYTE.REREAD#
     13798**DCL     13798--REDEF
PRE_RET_READ.V.INDX#
     13796**DCL     13796--REDEF
PRE_RET_WRITE.STATION_
     13824**DCL     13824--REDEF
PRE_RET_WRITE.V.DVBYTE.VFC#
     13831**DCL     13831--REDEF
PRIME_FILE.L#
     15007**DCL     15007--IMP-SIZ
READ_AD_OR_FD.ACSVEH_
     16375**DCL     16376--REDEF
READ_AD_OR_FD.ALTKEYS_
PL6.E3A0      #004=FLS$FLUSH_BLOCK File=FLS$FILE_PACKER.:E05TSI                  TUE 07/29/97 16:25 Page:239
     16381**DCL     16382--REDEF   16382--REDEF
READ_AD_OR_FD.HDR_
     16380**DCL     16381--REDEF
READ_AD_OR_FD.TAB_
     16379**DCL     16380--REDEF
READ_AD_OR_FD.UHL_
     16373**DCL     16374--REDEF   16374--REDEF
READ_AD_OR_FD.V.FSN#
     16413**DCL     16413--REDEF   16413--REDEF
READ_AD_OR_FD.WSN_
     16379**DCL     16379--REDEF
READ_NODATA_LIST.STATION_
     15800**DCL     15801--REDEF
READ_NODATA_LIST.V.DVBYTE.REREAD#
     15812**DCL     15812--REDEF
READ_NODATA_LIST.V.INDX#
     15810**DCL     15810--REDEF
READ_PRIME_DUAL.STATION_
     15165**DCL     15166--REDEF
READ_PRIME_DUAL.V.DVBYTE.REREAD#
     15177**DCL     15177--REDEF
READ_PRIME_DUAL.V.INDX#
     15175**DCL     15175--REDEF
READ_REBUILD.STATION_
     15471**DCL     15472--REDEF
READ_REBUILD.V.DVBYTE.REREAD#
     15483**DCL     15483--REDEF
READ_REBUILD.V.INDX#
     15481**DCL     15481--REDEF
READ_STATUS.STATION_
     14686**DCL     14687--REDEF
READ_STATUS.V.DVBYTE.REREAD#
     14698**DCL     14698--REDEF
READ_STATUS.V.INDX#
     14696**DCL     14696--REDEF
READ_TSN_USED.STATION_
PL6.E3A0      #004=FLS$FLUSH_BLOCK File=FLS$FILE_PACKER.:E05TSI                  TUE 07/29/97 16:25 Page:240
     14396**DCL     14397--REDEF
READ_TSN_USED.V.DVBYTE.REREAD#
     14408**DCL     14408--REDEF
READ_TSN_USED.V.INDX#
     14406**DCL     14406--REDEF
REBUILD_DIR_KEY.L#
     15557**DCL     15557--IMP-SIZ
REBUILD_KEY.L#
     15584**DCL     15584--IMP-SIZ
REBUILD_NAME.L#
     15405**DCL     15405--IMP-SIZ
REPALT
     16916**LABEL   16803--CALLALT 16819--CALLALT
RET_CMDS_NAME.L#
     14040**DCL     14040--IMP-SIZ
RUN_NBR
     14202**DCL     16766>>ASSIGN
SNVECLIST$
     13572**DCL     13572--IMP-PTR
SPEC.START
     13636**DCL     13637--REDEF
SPEC.STOP
     13637**DCL     13638--REDEF
SPECCHARS
     13636**DCL     13636--REDEF
TAPE_BLOCK_.W2
     14124**DCL     14125--REDEF
TAPE_CLOSE.SN_
     13489**DCL     13489--REDEF
TAPE_CLOSE.UTL_
     13490**DCL     13490--REDEF
TAPE_CLOSE.V.EXPIRE#
     13504**DCL     13504--REDEF
TAPE_CLOSE.V.TYPE#
     13502**DCL     13502--REDEF
TAPE_CLOSE.V.XTNSIZE#
PL6.E3A0      #004=FLS$FLUSH_BLOCK File=FLS$FILE_PACKER.:E05TSI                  TUE 07/29/97 16:25 Page:241
     13499**DCL     13499--REDEF   13501--REDEF
TAPE_DCBLIST.DCB$
     13045**DCL     16721>>IF      16722>>ASSIGN  16757>>IF      16780>>ASSIGN  16796>>IF
TAPE_DCBLIST$
     13045**DCL     13045--IMP-PTR 16721>>IF      16722>>ASSIGN  16757>>IF      16780>>ASSIGN  16796>>IF
TAPE_FSN
     14201**DCL     16771>>ASSIGN  16803<>CALL    16819<>CALL
TAPE_OPEN.ACSVEH_
     13354**DCL     13355--REDEF
TAPE_OPEN.ALTKEYS_
     13360**DCL     13361--REDEF   13361--REDEF
TAPE_OPEN.HDR_
     13359**DCL     13360--REDEF
TAPE_OPEN.TAB_
     13358**DCL     13359--REDEF
TAPE_OPEN.UHL_
     13352**DCL     13353--REDEF   13353--REDEF
TAPE_OPEN.V.FSN#
     13392**DCL     13392--REDEF   13392--REDEF
TAPE_OPEN.WSN_
     13358**DCL     13358--REDEF
TAPE_READ.STATION_
     13416**DCL     13417--REDEF
TAPE_READ.V.DVBYTE.REREAD#
     13428**DCL     13428--REDEF
TAPE_READ.V.INDX#
     13426**DCL     13426--REDEF
TAPE_SN
     14201**DCL     16722<<ASSIGN  16744>>IF      16760>>IF      16764>>ASSIGN  16770>>ASSIGN  16803<>CALL
     16819<>CALL
TAPE_WRITE.STATION_
     13454**DCL     13454--REDEF
TAPE_WRITE.V.DVBYTE.VFC#
     13461**DCL     13461--REDEF
TAPE_WRITE.V.IOERROK#
     13459**DCL     16733>>IF      16809>>IF
PL6.E3A0      #004=FLS$FLUSH_BLOCK File=FLS$FILE_PACKER.:E05TSI                  TUE 07/29/97 16:25 Page:242
TEMP_FSN
     16634**DCL     16724<<ASSIGN  16726<>CALL    16739>>ASSIGN  16805<>CALL    16807<>CALL    16815>>ASSIGN
TEMP_TSN
     16633**DCL     16725<<ASSIGN  16726<>CALL    16733>>IF      16738>>ASSIGN  16804<<ASSIGN  16805<>CALL
     16807<>CALL    16809>>IF      16814>>ASSIGN
TSN_SET_NBR
     14202**DCL     16767>>ASSIGN
TSN_USED_BUF.BACKUP_FSN
     14206**DCL     16772<<ASSIGN
TSN_USED_BUF.FSN
     14206**DCL     16771<<ASSIGN
TSN_USED_BUF.TSN
     14206**DCL     16770<<ASSIGN  16780<<ASSIGN
TSN_USED_BUF.UTS
     14206**DCL     16774<<ASSIGN
TSN_USED_KEY
     14203**DCL     16765--ASSIGN
TSN_USED_KEY.L
     14203**DCL     16765<<ASSIGN
TSN_USED_KEY.RUN_NBR
     14203**DCL     16766<<ASSIGN
TSN_USED_KEY.TSN_SET_NBR
     14204**DCL     16767<<ASSIGN
TSN_USED_KEY.TSN_SNLIST_NBR
     14204**DCL     16769<<ASSIGN  16779<<ASSIGN  16779>>ASSIGN
TSN_USED_KEY.TSN_VOL
     14204**DCL     16768<<ASSIGN
TSN_USED_NAME.L#
     14343**DCL     14343--IMP-SIZ
TSN_VOL
     14202**DCL     16746<<ASSIGN  16746>>ASSIGN  16768>>ASSIGN
TVECTOR.W2
     13585**DCL     13586--REDEF
WHATS_MISSING
     16848**LABEL   16726--CALLALT 16805--CALLALT 16807--CALLALT
WRITE_NODATA_LIST.STATION_
PL6.E3A0      #004=FLS$FLUSH_BLOCK File=FLS$FILE_PACKER.:E05TSI                  TUE 07/29/97 16:25 Page:243
     15838**DCL     15838--REDEF
WRITE_NODATA_LIST.V.DVBYTE.VFC#
     15845**DCL     15845--REDEF
WRITE_PRIME_DUAL.STATION_
     15203**DCL     15203--REDEF
WRITE_PRIME_DUAL.V.DVBYTE.VFC#
     15210**DCL     15210--REDEF
WRITE_REBUILD.STATION_
     15439**DCL     15439--REDEF
WRITE_REBUILD.V.DVBYTE.VFC#
     15446**DCL     15446--REDEF
WRITE_STATUS.STATION_
     14654**DCL     14654--REDEF
WRITE_STATUS.V.DVBYTE.VFC#
     14661**DCL     14661--REDEF
WRITE_TSN_USED
     14362**DCL     16775<>CALL    16781<>CALL
WRITE_TSN_USED.STATION_
     14364**DCL     14364--REDEF
WRITE_TSN_USED.V.DVBYTE.VFC#
     14371**DCL     14371--REDEF
