VERSION E05

PL6.E3A0      #001=FLS_DATA_D File=FLS_DATA_D.:E05TSI                            TUE 07/29/97 16:27 Page:1
        1        1        /*M* FLS_DATA_D - data for EFT's I/O routines */
        2        2        /*T***********************************************************/
        3        3        /*T*                                                         */
        4        4        /*T* Copyright (c) Bull HN Information Systems Inc., 1997    */
        5        5        /*T*                                                         */
        6        6        /*T***********************************************************/
        7        7        FLS_DATA_D: PROC NOAUTO;
        8        8
        9        9        /*  ! !  */
       10       10        %INCLUDE CP_6;
       11     5569        /*  !R!  */
       12     5570    1   DCL M$TSN_USED DCB;
       13     5571    1   DCL M$STATUS DCB;
       14     5572    1   DCL M$REBUILD DCB;
       15     5573    1   DCL M$ARCHIVE DCB;
       16     5574    1   DCL M$NODATA_LIST DCB;
       17     5575
       18     5576
       19     5577
       20     5578        %MACRO BLOCK_TAG;
       21     5579             2 BEGX UBIN HALF HALIGNED,   /* Offset from block data base to first granule */
       22     5580              2 NBR UBIN BYTE UNAL,
       23     5581              2 BEG BIT(1) UNAL,                /* File beginning */
       24     5582              2 FIN BIT(1) UNAL,                /* File ending */
       25     5583              2 * BIT(1) UNAL,
       26     5584              2 TYPE UBIN(6) UNAL,
       27     5585              2 SIZE UBIN HALF HALIGNED,  /* Number of bytes in block data */
       28     5586              2 DESC BIT(18) HALIGNED,
       29     5587              2 UTS UBIN WORD,
       30     5588              2 NAME,
       31     5589                3 L UBIN BYTE CALIGNED,
       32     5590                3 C CHAR(31),
       33     5591              2 WHERE REDEF NAME,
       34     5592                3 PSN CHAR(6),
       35     5593                3 ACCT CHAR(8),
       36     5594                3 * CHAR(18);
       37     5595        %MEND;
PL6.E3A0      #001=FLS_DATA_D File=FLS_DATA_D.:E05TSI                            TUE 07/29/97 16:27 Page:2
       38     5596
       39     5597        /*** Block tag TYPE values ***/
       40     5598        %EQU REG_FILE = 0; /* Regular file */
       41     5599        %EQU DEL_FILE = 1; /* Deleted file */
       42     5600        %EQU INACTIVE_FILE = 2; /* Inactive file */
       43     5601        %EQU ACUP_FILE = 3; /* FIT only...no data */
       44     5602        %EQU FILE_DIR = 4; /* File directory */
       45     5603        %EQU ACCT_DIR = 5; /* Account directory */
       46     5604        %EQU DEL_ACCT = 6; /* Deleted account */
       47     5605        %EQU CLEANUP_ACCT = 7; /* Cleaned up account */
       48     5606        %EQU CLEANUP_FILE = 8; /* Cleaned up file */
       49     5607        %EQU IDS_FAST_FILE = 9; /* IDS FAST file */
       50     5608
       51     5609    1   DCL GRAN_KEY SBIN WORD ALIGNED BASED;
       52     5610
       53     5611    1   DCL DCB$ PTR STATIC SYMDEF;
       54     5612    1   DCL M$TAPE00$ PTR STATIC SYMDEF;
       55     5613    1   DCL TYPE SBIN STATIC SYMDEF;
       56     5614    1   DCL NEED_BYTES SBIN STATIC SYMDEF;
       57     5615    1   DCL MIN_BLK_TAG$ PTR STATIC SYMDEF;
       58     5616    1   DCL LOW_BLK_TAG$ PTR STATIC SYMDEF;
       59     5617    1   DCL BLK_TAG$ PTR STATIC SYMDEF;
       60     5618    1   DCL 1 BLK_TAG BASED(BLK_TAG$),
       61     5619           %BLOCK_TAG;
       62     5637    1   DCL BLK_TAG0$ PTR STATIC SYMDEF;
       63     5638    1   DCL 1 BLK_TAG0 BASED(BLK_TAG0$),
       64     5639           %BLOCK_TAG;
       65     5657    1   DCL BLK_TAG_NBR SBIN STATIC SYMDEF;
       66     5658    1   DCL NBR_BLOCK_BYTES SBIN STATIC SYMDEF;
       67     5659    1   DCL NBR_BLOCK_BYTES_REMAINING SBIN STATIC SYMDEF;
       68     5660    1   DCL NBR_BYTES_TO_MOVE SBIN STATIC SYMDEF;
       69     5661    1   DCL NBR_BYTES SBIN STATIC SYMDEF;
       70     5662    1   DCL DISK_GRAN$ PTR STATIC SYMDEF;
       71     5663    1   DCL DISK_GRAN CHAR(NBR_BYTES_TO_MOVE) BASED(DISK_GRAN$) ALIGNED;
       72     5664    1   DCL BLOCK_GRAN$ PTR STATIC SYMDEF;
       73     5665    1   DCL BLOCK_GRAN CHAR(NBR_BYTES_TO_MOVE) BASED(BLOCK_GRAN$) ALIGNED;
       74     5666    1   DCL 1 OUTBUF_ STATIC SYMDEF DALIGNED,
PL6.E3A0      #001=FLS_DATA_D File=FLS_DATA_D.:E05TSI                            TUE 07/29/97 16:27 Page:3
       75     5667    1         2 * BIT(36),
       76     5668    1         2 PTR$ PTR;
       77     5669        %VLP_VECTOR( FPTN=TAPE_BLOCK_,
       78     5670                     STCLASS="STATIC SYMDEF" );
       79     5685    1   DCL TAPE_BLOCK_SIZE SBIN STATIC SYMDEF;
       80     5686    1   DCL 1 FIT_ STATIC SYMDEF DALIGNED,
       81     5687    1         2 * BIT(36),
       82     5688    1         2 PTR$ PTR;
       83     5689    1   DCL TAPE_FILE_OPEN BIT(1) STATIC SYMDEF;
       84     5690    1   DCL GRAN_BASE$ PTR STATIC SYMDEF;
       85     5691    1   DCL A_FIT_ VECTOR CONSTANT SYMDEF DALIGNED INIT(VECTOR(A_FIT));
       86     5692    1   DCL A_FIT(0:1023) BIT(36) STATIC SYMDEF INIT(
       87     5693    1   '246206246556'O,'000067703711'O,'000067000000'O,'000000000000'O,
       88     5694    1   '000000000000'O,'120040144000'O,'020100004042'O,'060044022010'O,
       89     5695    1   '100054026021'O,'120014006034'O,'140014006037'O,'000000000000'O,
       90     5696    1   '000000000000'O,'001000000001'O,'000040040040'O,'000000000000'O,
       91     5697    1   '000000000000'O,'000001000000'O,'000002000000'O,'440573573570'O,
       92     5698    1   '777777000000'O,'000000000000'O,'000000000000'O,'000000000000'O,
       93     5699    1   '000000000000'O,'105106124040'O,'040040040040'O,'105106124040'O,
       94     5700    1   '040040040040'O,'040040040040'O,'000000000000'O,'000000000000'O,
       95     5701    1   '000000000000'O,'000000000000'O,'000000000000'O,'000000000000'O,
       96     5702    1   '000000000000'O,'000000000000'O,'000000000000'O,'001361305247'O,
       97     5703    1   '001400241625'O,'000000000000'O,'000000000000'O,'000000000000'O,
       98     5704    1   '000000000000'O,'000000000000'O,'000000000000'O,'000000000000'O,
       99     5705    1   '040040040040'O*976 );
      100     5706    1   DCL A_FD_ VECTOR CONSTANT SYMDEF DALIGNED INIT(VECTOR(A_FD));
      101     5707    1   DCL A_FD(0:1023) BIT(36) STATIC SYMDEF INIT(
      102     5708    1   '060020012000'O,'100054026011'O,'340040020024'O,'220024006004'O,
      103     5709    1   '765000105106'O,'124040040040'O,'040040400000'O,'105106124040'O,
      104     5710    1   '040040040040'O,'000000000000'O,'000000000000'O,'000000000000'O,
      105     5711    1   '105106124040'O,'040040040040'O,'105106124040'O,'040040040040'O,
      106     5712    1   '040040040040'O,'000000000000'O,'000000000000'O,'000000000000'O,
      107     5713    1   '244000400000'O,'000000001750'O,'000000000124'O,'040040040040'O,
      108     5714    1   '040040040040'O,'105106124040'O,'040040040040'O,'040040040040'O,
      109     5715    1   '000000000000'O,'000000000000'O,'000000000000'O,'000000000000'O,
      110     5716    1   '000000000000'O*992 );
      111     5717        %EQU MAX_NBR_FILE_BLOCKS = 50;
PL6.E3A0      #001=FLS_DATA_D File=FLS_DATA_D.:E05TSI                            TUE 07/29/97 16:27 Page:4
      112     5718    1   DCL NBR_FILE_BLOCKS SBIN STATIC SYMDEF;
      113     5719    1   DCL GRANULE_INDEX SBIN STATIC SYMDEF;
      114     5720    1   DCL EOVOL BIT(1) STATIC SYMDEF;
      115     5721    1   DCL CROSSED CHAR(1) STATIC SYMDEF;
      116     5722    1   DCL EFTFILE_DCB$ PTR CONSTANT SYMDEF INIT(ADDR(EFTFILE_DCB));
      117     5723    1   DCL EFTFILE_DCB(0:99) UBIN WORD STATIC SYMDEF DALIGNED INIT( 0*100 );
      118     5724        %VLP_NAME( FPTN=EFT_CVOL_FILE,
      119     5725                   NAME='EFT_CVOL_FILE',
      120     5726                   STCLASS="CONSTANT SYMDEF" );
      121     5753        %VLP_NAME( FPTN=EFT_RESTRICT_FILE,
      122     5754                   NAME='EFT_RESTRICT_FILE',
      123     5755                   STCLASS="CONSTANT SYMDEF" );
      124     5782        %VLP_ULBL( FPTN=CVOL_UTL,
      125     5783                   N=1,
      126     5784                   STCLASS="STATIC SYMDEF" );
      127     5798    1   DCL FILE_FIN BIT(1) STATIC SYMDEF;
      128     5799    1   DCL MAX_FIT$ PTR STATIC SYMDEF;
      129     5800    1   DCL TAPE_SN CHAR(6) STATIC SYMDEF;
      130     5801    1   DCL TAPE_FSN SBIN STATIC SYMDEF;
      131     5802    1   DCL LAST_TYPE SBIN STATIC SYMDEF;
      132     5803
      133     5804    1   DCL LAST_TSN_USED CHAR(6) STATIC SYMDEF;
      134     5805    1   DCL RUN_NBR SBIN STATIC SYMDEF;
      135     5806    1   DCL TSN_SET_NBR SBIN STATIC SYMDEF;
      136     5807    1   DCL TSN_VOL SBIN STATIC SYMDEF;
      137     5808    1   DCL DEST_TAPE_VOL SBIN STATIC SYMDEF;
      138     5809    1   DCL TAPE_BAD BIT(1) STATIC SYMDEF;
      139     5810    1   DCL SNLIST_NBR SBIN STATIC SYMDEF;  /* Index of current serial number list */
      140     5811
      141     5812    1   DCL 1 TSN_USED_KEY STATIC SYMDEF,
      142     5813    1         2 L UBIN BYTE CALIGNED INIT(LENGTHV(TSN_USED_KEY)),
      143     5814    1         2 RUN_NBR UBIN BYTE CALIGNED,
      144     5815    1         2 TSN_SET_NBR UBIN BYTE CALIGNED,
      145     5816    1         2 TSN_VOL UBIN BYTE CALIGNED,
      146     5817    1         2 TSN_SNLIST_NBR UBIN BYTE CALIGNED;
      147     5818
      148     5819    1   DCL 1 STATUS_KEY STATIC SYMDEF,
PL6.E3A0      #001=FLS_DATA_D File=FLS_DATA_D.:E05TSI                            TUE 07/29/97 16:27 Page:5
      149     5820    1         2 L UBIN BYTE CALIGNED INIT(LENGTHV(STATUS_KEY)),
      150     5821    1         2 RUN_NBR UBIN BYTE CALIGNED,
      151     5822    1         2 TSN_SET_NBR UBIN BYTE CALIGNED,
      152     5823    1         2 TSN_VOL UBIN BYTE CALIGNED;
      153     5824
      154     5825    1   DCL 1 TSN_USED_BUF STATIC SYMDEF,
      155     5826    1         2 UTS UBIN WORD,
      156     5827    1         2 FIRST_ACCT CHAR(8),
      157     5828    1         2 LAST_ACCT CHAR(8),
      158     5829    1         2 TSN CHAR(6),
      159     5830    1         2 FSN UBIN HALF CALIGNED,
      160     5831    1         2 BACKUP_FSN UBIN HALF CALIGNED;
      161     5832
      162     5833        %FPT_OPEN( FPTN=OPEN_TSN_USED,
      163     5834                   DCB=M$TSN_USED,
      164     5835                   ORG=KEYED,
      165     5836                   ACS=DIRECT,
      166     5837                   ASN=FILE,
      167     5838                   CTG=YES,
      168     5839                   EXIST=OLDFILE,
      169     5840                   NAME=TSN_USED_NAME,
      170     5841                   SCRUB=YES,
      171     5842                   STCLASS="STATIC SYMDEF" );
      172     5951
      173     5952        %VLP_NAME( FPTN=TSN_USED_NAME,
      174     5953                   NAME='*TSN_USED',
      175     5954                   STCLASS="STATIC SYMDEF" );
      176     5981
      177     5982        %FPT_WRITE( FPTN=WRITE_TSN_USED,
      178     5983                    KEY=TSN_USED_KEY,
      179     5984                    BUF=TSN_USED_BUF,
      180     5985                    DCB=M$TSN_USED,
      181     5986                    STCLASS="STATIC SYMDEF" );
      182     6017
      183     6018        %FPT_READ( FPTN=READ_TSN_USED,
      184     6019                   KEY=TSN_USED_KEY,
      185     6020                   KEYR=YES,
PL6.E3A0      #001=FLS_DATA_D File=FLS_DATA_D.:E05TSI                            TUE 07/29/97 16:27 Page:6
      186     6021                   BUF=TSN_USED_BUF,
      187     6022                   DCB=M$TSN_USED,
      188     6023                   STCLASS="STATIC SYMDEF" );
      189     6062
      190     6063        %FPT_CLOSE( FPTN=CLOSE_TSN_USED,
      191     6064                    DISP=SAVE,
      192     6065                    DCB=M$TSN_USED,
      193     6066                    STCLASS="STATIC SYMDEF" );
      194     6108
      195     6109
      196     6110        %VLP_VECTOR (FPTN=FIT_AREA,
      197     6111                     STCLASS = STATIC);
      198     6126        %FPT_OPEN ( FPTN=OPEN_STATUS,
      199     6127                   DCB=M$STATUS,
      200     6128                   ORG=KEYED,
      201     6129                   ACS=DIRECT,
      202     6130                   ASN=FILE,
      203     6131                   CTG=YES,
      204     6132                   FUN=CREATE,
      205     6133                   EXIST=OLDFILE,
      206     6134                   NAME=BACKUP_NAME,
      207     6135                   ACCT=BACKUP_ACCT,
      208     6136                   SN=BACKUP_SN,
      209     6137                   SCRUB=YES,
      210     6138                   STCLASS="STATIC SYMDEF" );
      211     6247
      212     6248        %VLP_NAME( FPTN=BACKUP_NAME,
      213     6249                   NAME=':BACKUP',
      214     6250                   STCLASS="STATIC SYMDEF" );
      215     6277
      216     6278        %VLP_ACCT( FPTN=BACKUP_ACCT,
      217     6279                   ACCT='$$EFT' );
      218     6292
      219     6293        %VLP_SN( FPTN=BACKUP_SN,
      220     6294                 N=1,
      221     6295                 STCLASS="STATIC SYMDEF" );
      222     6308
PL6.E3A0      #001=FLS_DATA_D File=FLS_DATA_D.:E05TSI                            TUE 07/29/97 16:27 Page:7
      223     6309        %FPT_WRITE( FPTN=WRITE_STATUS,
      224     6310                    KEY=STATUS_KEY,
      225     6311                    BUF=TSN_USED_BUF,
      226     6312                    DCB=M$STATUS,
      227     6313                    STCLASS="STATIC SYMDEF" );
      228     6344
      229     6345        %FPT_READ( FPTN=READ_STATUS,
      230     6346                   KEY=STATUS_KEY,
      231     6347                   KEYR=YES,
      232     6348                   KEYS=YES,
      233     6349                   BUF=TSN_USED_BUF,
      234     6350                   DCB=M$STATUS,
      235     6351                   STCLASS="STATIC SYMDEF" );
      236     6390
      237     6391        %FPT_CLOSE( FPTN=CLOSE_STATUS,
      238     6392                    DISP=SAVE,
      239     6393                    DCB=M$STATUS,
      240     6394                    STCLASS="STATIC SYMDEF" );
      241     6436
      242     6437        %FPT_CLOSE (FPTN = CON_CLOSE_ARCHIVE,
      243     6438                    DCB = M$ARCHIVE,
      244     6439                    DISP = SAVE,
      245     6440                    STCLASS = "CONSTANT SYMDEF");
      246     6482
      247     6483        %FPT_OPEN(FPTN = CON_OPEN_ARCHIVE_FILE,
      248     6484                  DCB = M$ARCHIVE,
      249     6485                  ASN = FILE,
      250     6486                  FUN = UPDATE,
      251     6487                  NAME = ARCHIVE_NAME,
      252     6488                  ACCT = ARCHIVE_ACCT,
      253     6489                  FPARAM = NIL,
      254     6490                  IFPARAM = NIL,
      255     6491                  SCRUB = YES,
      256     6492                  REASSIGN = NO,
      257     6493                  ACS = DIRECT,
      258     6494                  EXIST = OLDFILE,
      259     6495                  ORG = CONSEC,
PL6.E3A0      #001=FLS_DATA_D File=FLS_DATA_D.:E05TSI                            TUE 07/29/97 16:27 Page:8
      260     6496                  CTG = YES,
      261     6497                  STCLASS = "CONSTANT SYMDEF");
      262     6606
      263     6607        %FPT_READ(FPTN=CON_READ_ARCHIVE_FILE,
      264     6608                  DCB = M$ARCHIVE,
      265     6609                  STCLASS = "CONSTANT SYMDEF");
      266     6648
      267     6649        %VLP_NAME(FPTN = ARCHIVE_NAME,
      268     6650                  NAME = ':ARCHIVE',
      269     6651                  STCLASS = "CONSTANT SYMDEF");
      270     6678
      271     6679        %VLP_ACCT(FPTN = ARCHIVE_ACCT,
      272     6680                 ACCT = '$$EFT',
      273     6681                 STCLASS = "CONSTANT SYMDEF");
      274     6694
      275     6695    1   DCL 1 ARCHIVE_LIST BASED ALIGNED,
      276     6696    1         2 VERSION,               /* Version of archive file */
      277     6697    1          3 FLAG UBIN(9) CALIGNED, /* Indicates pre-D00 or post-D00 archive file */
      278     6698    1          3 SIZE UBIN(9) CALIGNED, /* Size of TEXT */
      279     6699    1          3 TEXT CHAR(6) CALIGNED, /* Version of archive file (from B_VERSION) */
      280     6700    1         2 SIZE UBIN,              /* Archive record size */
      281     6701    1         2 OFFSET,
      282     6702    1           3 DPLIST UBIN,         /* Offset of Disk packset list */
      283     6703    1           3 SNLIST UBIN,         /* Offset of first tapeset list      */
      284     6704    1           3 SNLIST2 UBIN,        /* Offset of second tapeset list */
      285     6705    1         2 VOLUME UBIN(9) CALIGNED, /* Offset of volume used for ARCHIVE */
      286     6706    1         2 XTEND BIT(1) UNAL,
      287     6707    1         2 OD BIT(1) UNAL,        /* Type of archive file - optical disk or tape */
      288     6708    1         2 * BIT(25) UNAL,
      289     6709    1         2 OPTION ALIGNED,          /* As tape option        */
      290     6710    1           3 DEN UBIN(6) UNAL,
      291     6711    1           3 VOLA UBIN(3) UNAL,
      292     6712    1           3 CHECK BIT(1) UNAL,
      293     6713    1           3 IOERRORC BIT(1) UNAL,                      /* IO error continuation */
      294     6714    1           3 * UBIN(7) UNAL,
      295     6715    1           3 BLOCK UBIN(18) HALIGNED,
      296     6716    1           3 EXP SBIN;
PL6.E3A0      #001=FLS_DATA_D File=FLS_DATA_D.:E05TSI                            TUE 07/29/97 16:27 Page:9
      297     6717
      298     6718    1   DCL ARCHIVE_VOLUME_SET UBIN BASED;
      299     6719
      300     6720    1   DCL 1 PRIME_DUAL_BUF STATIC SYMDEF,
      301     6721    1         2 UTS UBIN WORD,
      302     6722    1         2 PRIME CHAR(6),
      303     6723    1         2 DUAL CHAR(6);
      304     6724
      305     6725        %VLP_NAME( FPTN=PRIME_FILE,
      306     6726                   NAME=':PRIME',
      307     6727                   STCLASS="CONSTANT SYMDEF" );
      308     6754
      309     6755        %VLP_NAME( FPTN=DUAL_FILE,
      310     6756                   NAME=':DUAL',
      311     6757                   STCLASS="CONSTANT SYMDEF" );
      312     6784
      313     6785        %FPT_OPEN( FPTN=OPEN_PRIME_DUAL,
      314     6786                   DCB=M$STATUS,
      315     6787                   ACCT=BACKUP_ACCT,
      316     6788                   ORG=CONSEC,
      317     6789                   ASN=FILE,
      318     6790                   CTG=YES,
      319     6791                   SCRUB=YES,
      320     6792                   STCLASS="STATIC SYMDEF" );
      321     6901
      322     6902        %FPT_READ( FPTN=READ_PRIME_DUAL,
      323     6903                   DCB=M$STATUS,
      324     6904                   BUF=PRIME_DUAL_BUF,
      325     6905                   STCLASS="STATIC SYMDEF" );
      326     6944
      327     6945        %FPT_WRITE( FPTN=WRITE_PRIME_DUAL,
      328     6946                    DCB=M$STATUS,
      329     6947                    BUF=PRIME_DUAL_BUF,
      330     6948                    STCLASS="STATIC SYMDEF" );
      331     6979
      332     6980        %FPT_CLOSE( FPTN=CLOSE_PRIME_DUAL,
      333     6981                    DCB=M$STATUS,
PL6.E3A0      #001=FLS_DATA_D File=FLS_DATA_D.:E05TSI                            TUE 07/29/97 16:27 Page:10
      334     6982                    DISP=SAVE,
      335     6983                    STCLASS="STATIC SYMDEF" );
      336     7025
      337     7026        %VLP_SN( FPTN=LAST_DSN_USED,
      338     7027                 N=1,
      339     7028                 STCLASS="STATIC SYMDEF" );
      340     7041
      341     7042        %FPT_OPEN ( FPTN=OPEN_REBUILD,
      342     7043                   DCB=M$REBUILD,
      343     7044                   ORG=KEYED,
      344     7045                   ACS=DIRECT,
      345     7046                   ASN=FILE,
      346     7047                   CTG=YES,
      347     7048                   FUN=CREATE,
      348     7049                   EXIST=OLDFILE,
      349     7050                   NAME=REBUILD_NAME,
      350     7051                   ACCT=BACKUP_ACCT,
      351     7052                   SN=REBUILD_SN,
      352     7053                   SCRUB=YES,
      353     7054                   STCLASS="STATIC SYMDEF" );
      354     7163
      355     7164        %VLP_NAME( FPTN=REBUILD_NAME,
      356     7165                   NAME=':REBUILD',
      357     7166                   STCLASS="STATIC SYMDEF" );
      358     7193
      359     7194        %VLP_SN( FPTN=REBUILD_SN,
      360     7195                 N=1,
      361     7196                 STCLASS="STATIC SYMDEF" );
      362     7209
      363     7210        %FPT_WRITE( FPTN=WRITE_REBUILD,
      364     7211                    KEY=REBUILD_DIR_KEY,
      365     7212                    DCB=M$REBUILD,
      366     7213                    STCLASS="STATIC SYMDEF" );
      367     7244
      368     7245        %FPT_READ( FPTN=READ_REBUILD,
      369     7246                   KEYS=YES,
      370     7247                   KEY=REBUILD_DIR_KEY,
PL6.E3A0      #001=FLS_DATA_D File=FLS_DATA_D.:E05TSI                            TUE 07/29/97 16:27 Page:11
      371     7248                   BUF=REBUILD_BUF,
      372     7249                   DCB=M$REBUILD,
      373     7250                   STCLASS="STATIC SYMDEF" );
      374     7289
      375     7290        %FPT_CLOSE( FPTN=CLOSE_REBUILD,
      376     7291                    DISP=SAVE,
      377     7292                    DCB=M$REBUILD,
      378     7293                    STCLASS="STATIC SYMDEF" );
      379     7335
      380     7336        %VLP_NAME( FPTN=REBUILD_DIR_KEY,
      381     7337                   NAME='        ',
      382     7338                   STCLASS="STATIC SYMDEF" );
      383     7365
      384     7366        %VLP_NAME( FPTN=REBUILD_KEY,
      385     7367                   NAME='REBUILD#',
      386     7368                   STCLASS="STATIC SYMDEF" );
      387     7395
      388     7396    1   DCL 1 REBUILD_BUF STATIC SYMDEF,
      389     7397    1         2 START,
      390     7398    1           3 ACCT,                           /* Accnt. at which to cont. REBUILD */
      391     7399    1             4 ACCT# CHAR(8) CALIGNED,
      392     7400    1           3 FILE,                             /* File at which to cont. REBUILD */
      393     7401    1             4 L# UBIN(9) UNAL,
      394     7402    1             4 NAME# CHAR(31) CALIGNED,
      395     7403    1         2 TSN CHAR(6) CALIGNED,                       /* Tape for cont. REBUILD */
      396     7404    1         2 FSN UBIN HALF HALIGNED,              /* FSN at which to cont. REBUILD */
      397     7405    1         2 VOLUME UBIN(9) CALIGNED,             /* VOL at which to cont. REBUILD */
      398     7406    1         2 DEN UBIN(6) UNAL,                    /* DEN of tape for cont. REBUILD */
      399     7407    1         2 DIR BIT(1) UNAL,                     /* DIR setting for cont. REBUILD */
      400     7408    1         2 PAD BIT(1) UNAL,                     /* PAD setting for cont. REBUILD */
      401     7409    1         2 IOERRORC BIT(1) UNAL;           /* IOERRORC setting for cont. REBUILD */
      402     7410
      403     7411        %FPT_OPEN( FPTN=OPEN_NODATA_LIST,
      404     7412                   DCB=M$NODATA_LIST,
      405     7413                   ORG=KEYED,
      406     7414                   ACS=DIRECT,
      407     7415                   SHARE=ALL,
PL6.E3A0      #001=FLS_DATA_D File=FLS_DATA_D.:E05TSI                            TUE 07/29/97 16:27 Page:12
      408     7416                   KEYX=0,
      409     7417                   KEYL=40,
      410     7418                   ASN=FILE,
      411     7419                   CTG=YES,
      412     7420                   FUN=CREATE,
      413     7421                   EXIST=OLDFILE,
      414     7422                   NAME=NODATA_FILE_NAME,
      415     7423                   ACCT=BACKUP_ACCT,
      416     7424                   SN=NODATA_SN,
      417     7425                   SCRUB=YES,
      418     7426                   STCLASS="STATIC SYMDEF" );
      419     7535
      420     7536        %VLP_NAME( FPTN=NODATA_FILE_NAME,
      421     7537                   NAME=':NODATA',
      422     7538                   STCLASS="STATIC SYMDEF" );
      423     7565
      424     7566        %VLP_SN( FPTN=NODATA_SN,
      425     7567                 N=1,
      426     7568                 STCLASS="STATIC SYMDEF");
      427     7581
      428     7582        %FPT_CLOSE( FPTN=CLOSE_NODATA_LIST,
      429     7583                    DISP=SAVE,
      430     7584                    DCB=M$NODATA_LIST,
      431     7585                    STCLASS="STATIC SYMDEF");
      432     7627
      433     7628        %FPT_READ( FPTN=READ_NODATA_LIST,
      434     7629                   KEY=NODATA_KEY,
      435     7630                   KEYR=YES,
      436     7631                   KEYS=NO,
      437     7632                   DCB=M$NODATA_LIST,
      438     7633                   STCLASS="STATIC SYMDEF");
      439     7672
      440     7673        %FPT_WRITE( FPTN=WRITE_NODATA_LIST,
      441     7674                    KEY=NODATA_KEY,
      442     7675                    DCB=M$NODATA_LIST,
      443     7676                    ONEWKEY=YES,
      444     7677                    STCLASS="STATIC SYMDEF");
PL6.E3A0      #001=FLS_DATA_D File=FLS_DATA_D.:E05TSI                            TUE 07/29/97 16:27 Page:13
      445     7708
      446     7709        %FPT_DELREC( FPTN=DEL_NODATA_REC,
      447     7710                      DCB=M$NODATA_LIST,
      448     7711                     KEY=NODATA_KEY,
      449     7712                     STCLASS=STATIC );
      450     7731
      451     7732    1   DCL 1 NODATA_KEY STATIC SYMDEF,
      452     7733    1         2 L UBIN BYTE CALIGNED INIT(LENGTHV(NODATA_KEY)),
      453     7734    1         2 ACCT# CHAR(8) CALIGNED,
      454     7735    1         2 NAME#,
      455     7736    1           3 C CHAR(31) CALIGNED,
      456     7737    1           3 L UBIN BYTE CALIGNED;
      457     7738
      458     7739    1   DCL 1 ARCOM_OPTIONS STATIC SYMDEF,           /* Misc. ARCOM cmnd line options */
      459     7740    1         2 IMMUPDATE BIT(1),
      460     7741    1         2 IOERRORCI BIT(1),
      461     7742    1         2 IOERRORCO BIT(1),
      462     7743    1         2 DUPLICATE_TAPESET BIT(1),
      463     7744    1         2 * BIT(32) INIT('0'B);
      464     7745
      465     7746    1   END FLS_DATA_D;

PL6.E3A0      #001=FLS_DATA_D File=FLS_DATA_D.:E05TSI                            TUE 07/29/97 16:27 Page:14
--  Include file information  --

   CP_6_C.:E05TOU  is referenced.
   CP_6.:E05TOU  cannot be made into a system file and is referenced.
      No diagnostics issued in procedure FLS_DATA_D.

   No code generated for procedure FLS_DATA_D .
   Procedure FLS_DATA_D is declared NOAUTO and requires 2974 words of local(STATIC) storage.

    No errors detected in file FLS_DATA_D.:E05TSI    .

PL6.E3A0      #001=FLS_DATA_D File=FLS_DATA_D.:E05TSI                            TUE 07/29/97 16:27 Page:15

 Object Unit name= FLS_DATA_D                                 File name= FLS_DATA_D.:E05TOU
 UTS= JUL 29 '97 16:27:48.32 TUE                              Compiler= PL-6/E31         Sev=      00
 SharedLib= :SHARED_SYSTEM                                    Alt SharedLib=


    ****  Control sections  ****

 Sect   Type Bound  Init  Size OctSiz  Section name(segment info)
    0   Data  even  none  2974   5636  FLS_DATA_D
    1   DCB   even  none     0      0  M$UC
    2   DCB   even  none     0      0  M$TSN_USED
    3   DCB   even  none     0      0  M$STATUS
    4   DCB   even  none     0      0  M$REBUILD
    5   DCB   even  none     0      0  M$ARCHIVE
    6   DCB   even  none     0      0  M$NODATA_LIST
    7  RoData even  UTS    125    175  FLS_DATA_D
    8   Proc  even  none     0      0  FLS_DATA_D

    ****  Entry defs  ****

                              Check   Calling
                             calling  sequence
  Sect OctLoc Primary Altret sequence   type   Parms  Name
     8      0   yes            yes     ~proc       0  FLS_DATA_D
PL6.E3A0      #001=FLS_DATA_D File=FLS_DATA_D.:E05TSI                            TUE 07/29/97 16:27 Page:16

  ****  Data defs  ****

 Sect OctLoc  Name                           Sect OctLoc  Name
    0      1  DCB$                               0      2  M$TAPE00$
    0      3  TYPE                               0      4  NEED_BYTES
    0      5  MIN_BLK_TAG$                       0      6  LOW_BLK_TAG$
    0      7  BLK_TAG$                           0     10  BLK_TAG0$
    0     11  BLK_TAG_NBR                        0     12  NBR_BLOCK_BYTES
    0     13  NBR_BLOCK_BYTES_REMAINING          0     14  NBR_BYTES_TO_MOVE
    0     15  NBR_BYTES                          0     16  DISK_GRAN$
    0     17  BLOCK_GRAN$                        0     20  OUTBUF_
    0     22  TAPE_BLOCK_                        0     24  TAPE_BLOCK_SIZE
    0     26  FIT_                               0     30  TAPE_FILE_OPEN
    0     31  GRAN_BASE$                         7      0  A_FIT_
    0     32  A_FIT                              7      2  A_FD_
    0   2032  A_FD                               0   4032  NBR_FILE_BLOCKS
    0   4033  GRANULE_INDEX                      0   4034  EOVOL
    0   4035  CROSSED                            7      4  EFTFILE_DCB$
    0   4036  EFTFILE_DCB                        7      5  EFT_CVOL_FILE
    7     11  EFT_RESTRICT_FILE                  0   4346  CVOL_UTL
    0   4374  FILE_FIN                           0   4375  MAX_FIT$
    0   4376  TAPE_SN                            0   4400  TAPE_FSN
    0   4401  LAST_TYPE                          0   4402  LAST_TSN_USED
    0   4404  RUN_NBR                            0   4405  TSN_SET_NBR
    0   4406  TSN_VOL                            0   4407  DEST_TAPE_VOL
    0   4410  TAPE_BAD                           0   4411  SNLIST_NBR
    0   4412  TSN_USED_KEY                       0   4414  STATUS_KEY
    0   4415  TSN_USED_BUF                       0   4426  OPEN_TSN_USED
    0   4520  TSN_USED_NAME                      0   4524  WRITE_TSN_USED
    0   4540  READ_TSN_USED                      0   4556  CLOSE_TSN_USED
    0   4616  OPEN_STATUS                        0   4710  BACKUP_NAME
    0   4714  BACKUP_SN                          0   4720  WRITE_STATUS
    0   4734  READ_STATUS                        0   4752  CLOSE_STATUS
    7     16  CON_CLOSE_ARCHIVE                  7     54  CON_OPEN_ARCHIVE_FILE
    7    146  CON_READ_ARCHIVE_FILE              7    164  ARCHIVE_NAME
    7    167  ARCHIVE_ACCT                       0   5010  PRIME_DUAL_BUF
    7    171  PRIME_FILE                         7    173  DUAL_FILE
PL6.E3A0      #001=FLS_DATA_D File=FLS_DATA_D.:E05TSI                            TUE 07/29/97 16:27 Page:17
    0   5014  OPEN_PRIME_DUAL                    0   5106  READ_PRIME_DUAL
    0   5124  WRITE_PRIME_DUAL                   0   5140  CLOSE_PRIME_DUAL
    0   5176  LAST_DSN_USED                      0   5202  OPEN_REBUILD
    0   5274  REBUILD_NAME                       0   5300  REBUILD_SN
    0   5304  WRITE_REBUILD                      0   5320  READ_REBUILD
    0   5336  CLOSE_REBUILD                      0   5374  REBUILD_DIR_KEY
    0   5377  REBUILD_KEY                        0   5402  REBUILD_BUF
    0   5420  OPEN_NODATA_LIST                   0   5512  NODATA_FILE_NAME
    0   5514  NODATA_SN                          0   5520  CLOSE_NODATA_LIST
    0   5556  READ_NODATA_LIST                   0   5574  WRITE_NODATA_LIST
    0   5622  NODATA_KEY                         0   5635  ARCOM_OPTIONS

  ****  Data refs  ****

  Flags:  r = read only, s = secondary
Flgs Name                             Flgs Name                             Flgs Name
     M$UC                                  M$TSN_USED                            M$STATUS
     M$REBUILD                             M$ARCHIVE                             M$NODATA_LIST

  ****  Segment refs  ****

  Flags:  r = read only, s = secondary
Flgs Name                             Flgs Name                             Flgs Name
     ISSID                                 NULLSID
PL6.E3A0      #001=FLS_DATA_D File=FLS_DATA_D.:E05TSI                            TUE 07/29/97 16:27 Page:18

        1        1        /*M* FLS_DATA_D - data for EFT's I/O routines */
        2        2        /*T***********************************************************/
        3        3        /*T*                                                         */
        4        4        /*T* Copyright (c) Bull HN Information Systems Inc., 1997    */
        5        5        /*T*                                                         */
        6        6        /*T***********************************************************/
        7        7        FLS_DATA_D: PROC NOAUTO;
        8        8
        9        9        /*  ! !  */
       10       10        %INCLUDE CP_6;
       11     5569        /*  !R!  */
       12     5570    1   DCL M$TSN_USED DCB;
       13     5571    1   DCL M$STATUS DCB;
       14     5572    1   DCL M$REBUILD DCB;
       15     5573    1   DCL M$ARCHIVE DCB;
       16     5574    1   DCL M$NODATA_LIST DCB;
       17     5575
       18     5576
       19     5577
       20     5578        %MACRO BLOCK_TAG;
       21     5579             2 BEGX UBIN HALF HALIGNED,  /* Offset from block data base to first granule */
       22     5580              2 NBR UBIN BYTE UNAL,
       23     5581              2 BEG BIT(1) UNAL,                /* File beginning */
       24     5582              2 FIN BIT(1) UNAL,                /* File ending */
       25     5583              2 * BIT(1) UNAL,
       26     5584              2 TYPE UBIN(6) UNAL,
       27     5585              2 SIZE UBIN HALF HALIGNED,  /* Number of bytes in block data */
       28     5586              2 DESC BIT(18) HALIGNED,
       29     5587              2 UTS UBIN WORD,
       30     5588              2 NAME,
       31     5589                3 L UBIN BYTE CALIGNED,
       32     5590                3 C CHAR(31),
       33     5591              2 WHERE REDEF NAME,
       34     5592                3 PSN CHAR(6),
       35     5593                3 ACCT CHAR(8),
       36     5594                3 * CHAR(18);
       37     5595        %MEND;
PL6.E3A0      #001=FLS_DATA_D File=FLS_DATA_D.:E05TSI                            TUE 07/29/97 16:27 Page:19
       38     5596
       39     5597        /*** Block tag TYPE values ***/
       40     5598        %EQU REG_FILE = 0; /* Regular file */
       41     5599        %EQU DEL_FILE = 1; /* Deleted file */
       42     5600        %EQU INACTIVE_FILE = 2; /* Inactive file */
       43     5601        %EQU ACUP_FILE = 3; /* FIT only...no data */
       44     5602        %EQU FILE_DIR = 4; /* File directory */
       45     5603        %EQU ACCT_DIR = 5; /* Account directory */
       46     5604        %EQU DEL_ACCT = 6; /* Deleted account */
       47     5605        %EQU CLEANUP_ACCT = 7; /* Cleaned up account */
       48     5606        %EQU CLEANUP_FILE = 8; /* Cleaned up file */
       49     5607        %EQU IDS_FAST_FILE = 9; /* IDS FAST file */
       50     5608
       51     5609    1   DCL GRAN_KEY SBIN WORD ALIGNED BASED;
       52     5610
       53     5611    1   DCL DCB$ PTR STATIC SYMDEF;
       54     5612    1   DCL M$TAPE00$ PTR STATIC SYMDEF;
       55     5613    1   DCL TYPE SBIN STATIC SYMDEF;
       56     5614    1   DCL NEED_BYTES SBIN STATIC SYMDEF;
       57     5615    1   DCL MIN_BLK_TAG$ PTR STATIC SYMDEF;
       58     5616    1   DCL LOW_BLK_TAG$ PTR STATIC SYMDEF;
       59     5617    1   DCL BLK_TAG$ PTR STATIC SYMDEF;
       60     5618    1   DCL 1 BLK_TAG BASED(BLK_TAG$),
       61     5619           %BLOCK_TAG;
       62     5637    1   DCL BLK_TAG0$ PTR STATIC SYMDEF;
       63     5638    1   DCL 1 BLK_TAG0 BASED(BLK_TAG0$),
       64     5639           %BLOCK_TAG;
       65     5657    1   DCL BLK_TAG_NBR SBIN STATIC SYMDEF;
       66     5658    1   DCL NBR_BLOCK_BYTES SBIN STATIC SYMDEF;
       67     5659    1   DCL NBR_BLOCK_BYTES_REMAINING SBIN STATIC SYMDEF;
       68     5660    1   DCL NBR_BYTES_TO_MOVE SBIN STATIC SYMDEF;
       69     5661    1   DCL NBR_BYTES SBIN STATIC SYMDEF;
       70     5662    1   DCL DISK_GRAN$ PTR STATIC SYMDEF;
       71     5663    1   DCL DISK_GRAN CHAR(NBR_BYTES_TO_MOVE) BASED(DISK_GRAN$) ALIGNED;
       72     5664    1   DCL BLOCK_GRAN$ PTR STATIC SYMDEF;
       73     5665    1   DCL BLOCK_GRAN CHAR(NBR_BYTES_TO_MOVE) BASED(BLOCK_GRAN$) ALIGNED;
       74     5666    1   DCL 1 OUTBUF_ STATIC SYMDEF DALIGNED,
PL6.E3A0      #001=FLS_DATA_D File=FLS_DATA_D.:E05TSI                            TUE 07/29/97 16:27 Page:20
       75     5667    1         2 * BIT(36),
       76     5668    1         2 PTR$ PTR;
       77     5669        %VLP_VECTOR( FPTN=TAPE_BLOCK_,
       78     5670                     STCLASS="STATIC SYMDEF" );
       79     5685    1   DCL TAPE_BLOCK_SIZE SBIN STATIC SYMDEF;
       80     5686    1   DCL 1 FIT_ STATIC SYMDEF DALIGNED,
       81     5687    1         2 * BIT(36),
       82     5688    1         2 PTR$ PTR;
       83     5689    1   DCL TAPE_FILE_OPEN BIT(1) STATIC SYMDEF;
       84     5690    1   DCL GRAN_BASE$ PTR STATIC SYMDEF;
       85     5691    1   DCL A_FIT_ VECTOR CONSTANT SYMDEF DALIGNED INIT(VECTOR(A_FIT));
       86     5692    1   DCL A_FIT(0:1023) BIT(36) STATIC SYMDEF INIT(
       87     5693    1   '246206246556'O,'000067703711'O,'000067000000'O,'000000000000'O,
       88     5694    1   '000000000000'O,'120040144000'O,'020100004042'O,'060044022010'O,
       89     5695    1   '100054026021'O,'120014006034'O,'140014006037'O,'000000000000'O,
       90     5696    1   '000000000000'O,'001000000001'O,'000040040040'O,'000000000000'O,
       91     5697    1   '000000000000'O,'000001000000'O,'000002000000'O,'440573573570'O,
       92     5698    1   '777777000000'O,'000000000000'O,'000000000000'O,'000000000000'O,
       93     5699    1   '000000000000'O,'105106124040'O,'040040040040'O,'105106124040'O,
       94     5700    1   '040040040040'O,'040040040040'O,'000000000000'O,'000000000000'O,
       95     5701    1   '000000000000'O,'000000000000'O,'000000000000'O,'000000000000'O,
       96     5702    1   '000000000000'O,'000000000000'O,'000000000000'O,'001361305247'O,
       97     5703    1   '001400241625'O,'000000000000'O,'000000000000'O,'000000000000'O,
       98     5704    1   '000000000000'O,'000000000000'O,'000000000000'O,'000000000000'O,
       99     5705    1   '040040040040'O*976 );
      100     5706    1   DCL A_FD_ VECTOR CONSTANT SYMDEF DALIGNED INIT(VECTOR(A_FD));
      101     5707    1   DCL A_FD(0:1023) BIT(36) STATIC SYMDEF INIT(
      102     5708    1   '060020012000'O,'100054026011'O,'340040020024'O,'220024006004'O,
      103     5709    1   '765000105106'O,'124040040040'O,'040040400000'O,'105106124040'O,
      104     5710    1   '040040040040'O,'000000000000'O,'000000000000'O,'000000000000'O,
      105     5711    1   '105106124040'O,'040040040040'O,'105106124040'O,'040040040040'O,
      106     5712    1   '040040040040'O,'000000000000'O,'000000000000'O,'000000000000'O,
      107     5713    1   '244000400000'O,'000000001750'O,'000000000124'O,'040040040040'O,
      108     5714    1   '040040040040'O,'105106124040'O,'040040040040'O,'040040040040'O,
      109     5715    1   '000000000000'O,'000000000000'O,'000000000000'O,'000000000000'O,
      110     5716    1   '000000000000'O*992 );
      111     5717        %EQU MAX_NBR_FILE_BLOCKS = 50;
PL6.E3A0      #001=FLS_DATA_D File=FLS_DATA_D.:E05TSI                            TUE 07/29/97 16:27 Page:21
      112     5718    1   DCL NBR_FILE_BLOCKS SBIN STATIC SYMDEF;
      113     5719    1   DCL GRANULE_INDEX SBIN STATIC SYMDEF;
      114     5720    1   DCL EOVOL BIT(1) STATIC SYMDEF;
      115     5721    1   DCL CROSSED CHAR(1) STATIC SYMDEF;
      116     5722    1   DCL EFTFILE_DCB$ PTR CONSTANT SYMDEF INIT(ADDR(EFTFILE_DCB));
      117     5723    1   DCL EFTFILE_DCB(0:99) UBIN WORD STATIC SYMDEF DALIGNED INIT( 0*100 );
      118     5724        %VLP_NAME( FPTN=EFT_CVOL_FILE,
      119     5725                   NAME='EFT_CVOL_FILE',
      120     5726                   STCLASS="CONSTANT SYMDEF" );
      121     5753        %VLP_NAME( FPTN=EFT_RESTRICT_FILE,
      122     5754                   NAME='EFT_RESTRICT_FILE',
      123     5755                   STCLASS="CONSTANT SYMDEF" );
      124     5782        %VLP_ULBL( FPTN=CVOL_UTL,
      125     5783                   N=1,
      126     5784                   STCLASS="STATIC SYMDEF" );
      127     5798    1   DCL FILE_FIN BIT(1) STATIC SYMDEF;
      128     5799    1   DCL MAX_FIT$ PTR STATIC SYMDEF;
      129     5800    1   DCL TAPE_SN CHAR(6) STATIC SYMDEF;
      130     5801    1   DCL TAPE_FSN SBIN STATIC SYMDEF;
      131     5802    1   DCL LAST_TYPE SBIN STATIC SYMDEF;
      132     5803
      133     5804    1   DCL LAST_TSN_USED CHAR(6) STATIC SYMDEF;
      134     5805    1   DCL RUN_NBR SBIN STATIC SYMDEF;
      135     5806    1   DCL TSN_SET_NBR SBIN STATIC SYMDEF;
      136     5807    1   DCL TSN_VOL SBIN STATIC SYMDEF;
      137     5808    1   DCL DEST_TAPE_VOL SBIN STATIC SYMDEF;
      138     5809    1   DCL TAPE_BAD BIT(1) STATIC SYMDEF;
      139     5810    1   DCL SNLIST_NBR SBIN STATIC SYMDEF;  /* Index of current serial number list */
      140     5811
      141     5812    1   DCL 1 TSN_USED_KEY STATIC SYMDEF,
      142     5813    1         2 L UBIN BYTE CALIGNED INIT(LENGTHV(TSN_USED_KEY)),
      143     5814    1         2 RUN_NBR UBIN BYTE CALIGNED,
      144     5815    1         2 TSN_SET_NBR UBIN BYTE CALIGNED,
      145     5816    1         2 TSN_VOL UBIN BYTE CALIGNED,
      146     5817    1         2 TSN_SNLIST_NBR UBIN BYTE CALIGNED;
      147     5818
      148     5819    1   DCL 1 STATUS_KEY STATIC SYMDEF,
PL6.E3A0      #001=FLS_DATA_D File=FLS_DATA_D.:E05TSI                            TUE 07/29/97 16:27 Page:22
      149     5820    1         2 L UBIN BYTE CALIGNED INIT(LENGTHV(STATUS_KEY)),
      150     5821    1         2 RUN_NBR UBIN BYTE CALIGNED,
      151     5822    1         2 TSN_SET_NBR UBIN BYTE CALIGNED,
      152     5823    1         2 TSN_VOL UBIN BYTE CALIGNED;
      153     5824
      154     5825    1   DCL 1 TSN_USED_BUF STATIC SYMDEF,
      155     5826    1         2 UTS UBIN WORD,
      156     5827    1         2 FIRST_ACCT CHAR(8),
      157     5828    1         2 LAST_ACCT CHAR(8),
      158     5829    1         2 TSN CHAR(6),
      159     5830    1         2 FSN UBIN HALF CALIGNED,
      160     5831    1         2 BACKUP_FSN UBIN HALF CALIGNED;
      161     5832
      162     5833        %FPT_OPEN( FPTN=OPEN_TSN_USED,
      163     5834                   DCB=M$TSN_USED,
      164     5835                   ORG=KEYED,
      165     5836                   ACS=DIRECT,
      166     5837                   ASN=FILE,
      167     5838                   CTG=YES,
      168     5839                   EXIST=OLDFILE,
      169     5840                   NAME=TSN_USED_NAME,
      170     5841                   SCRUB=YES,
      171     5842                   STCLASS="STATIC SYMDEF" );
      172     5951
      173     5952        %VLP_NAME( FPTN=TSN_USED_NAME,
      174     5953                   NAME='*TSN_USED',
      175     5954                   STCLASS="STATIC SYMDEF" );
      176     5981
      177     5982        %FPT_WRITE( FPTN=WRITE_TSN_USED,
      178     5983                    KEY=TSN_USED_KEY,
      179     5984                    BUF=TSN_USED_BUF,
      180     5985                    DCB=M$TSN_USED,
      181     5986                    STCLASS="STATIC SYMDEF" );
      182     6017
      183     6018        %FPT_READ( FPTN=READ_TSN_USED,
      184     6019                   KEY=TSN_USED_KEY,
      185     6020                   KEYR=YES,
PL6.E3A0      #001=FLS_DATA_D File=FLS_DATA_D.:E05TSI                            TUE 07/29/97 16:27 Page:23
      186     6021                   BUF=TSN_USED_BUF,
      187     6022                   DCB=M$TSN_USED,
      188     6023                   STCLASS="STATIC SYMDEF" );
      189     6062
      190     6063        %FPT_CLOSE( FPTN=CLOSE_TSN_USED,
      191     6064                    DISP=SAVE,
      192     6065                    DCB=M$TSN_USED,
      193     6066                    STCLASS="STATIC SYMDEF" );
      194     6108
      195     6109
      196     6110        %VLP_VECTOR (FPTN=FIT_AREA,
      197     6111                     STCLASS = STATIC);
      198     6126        %FPT_OPEN ( FPTN=OPEN_STATUS,
      199     6127                   DCB=M$STATUS,
      200     6128                   ORG=KEYED,
      201     6129                   ACS=DIRECT,
      202     6130                   ASN=FILE,
      203     6131                   CTG=YES,
      204     6132                   FUN=CREATE,
      205     6133                   EXIST=OLDFILE,
      206     6134                   NAME=BACKUP_NAME,
      207     6135                   ACCT=BACKUP_ACCT,
      208     6136                   SN=BACKUP_SN,
      209     6137                   SCRUB=YES,
      210     6138                   STCLASS="STATIC SYMDEF" );
      211     6247
      212     6248        %VLP_NAME( FPTN=BACKUP_NAME,
      213     6249                   NAME=':BACKUP',
      214     6250                   STCLASS="STATIC SYMDEF" );
      215     6277
      216     6278        %VLP_ACCT( FPTN=BACKUP_ACCT,
      217     6279                   ACCT='$$EFT' );
      218     6292
      219     6293        %VLP_SN( FPTN=BACKUP_SN,
      220     6294                 N=1,
      221     6295                 STCLASS="STATIC SYMDEF" );
      222     6308
PL6.E3A0      #001=FLS_DATA_D File=FLS_DATA_D.:E05TSI                            TUE 07/29/97 16:27 Page:24
      223     6309        %FPT_WRITE( FPTN=WRITE_STATUS,
      224     6310                    KEY=STATUS_KEY,
      225     6311                    BUF=TSN_USED_BUF,
      226     6312                    DCB=M$STATUS,
      227     6313                    STCLASS="STATIC SYMDEF" );
      228     6344
      229     6345        %FPT_READ( FPTN=READ_STATUS,
      230     6346                   KEY=STATUS_KEY,
      231     6347                   KEYR=YES,
      232     6348                   KEYS=YES,
      233     6349                   BUF=TSN_USED_BUF,
      234     6350                   DCB=M$STATUS,
      235     6351                   STCLASS="STATIC SYMDEF" );
      236     6390
      237     6391        %FPT_CLOSE( FPTN=CLOSE_STATUS,
      238     6392                    DISP=SAVE,
      239     6393                    DCB=M$STATUS,
      240     6394                    STCLASS="STATIC SYMDEF" );
      241     6436
      242     6437        %FPT_CLOSE (FPTN = CON_CLOSE_ARCHIVE,
      243     6438                    DCB = M$ARCHIVE,
      244     6439                    DISP = SAVE,
      245     6440                    STCLASS = "CONSTANT SYMDEF");
      246     6482
      247     6483        %FPT_OPEN(FPTN = CON_OPEN_ARCHIVE_FILE,
      248     6484                  DCB = M$ARCHIVE,
      249     6485                  ASN = FILE,
      250     6486                  FUN = UPDATE,
      251     6487                  NAME = ARCHIVE_NAME,
      252     6488                  ACCT = ARCHIVE_ACCT,
      253     6489                  FPARAM = NIL,
      254     6490                  IFPARAM = NIL,
      255     6491                  SCRUB = YES,
      256     6492                  REASSIGN = NO,
      257     6493                  ACS = DIRECT,
      258     6494                  EXIST = OLDFILE,
      259     6495                  ORG = CONSEC,
PL6.E3A0      #001=FLS_DATA_D File=FLS_DATA_D.:E05TSI                            TUE 07/29/97 16:27 Page:25
      260     6496                  CTG = YES,
      261     6497                  STCLASS = "CONSTANT SYMDEF");
      262     6606
      263     6607        %FPT_READ(FPTN=CON_READ_ARCHIVE_FILE,
      264     6608                  DCB = M$ARCHIVE,
      265     6609                  STCLASS = "CONSTANT SYMDEF");
      266     6648
      267     6649        %VLP_NAME(FPTN = ARCHIVE_NAME,
      268     6650                  NAME = ':ARCHIVE',
      269     6651                  STCLASS = "CONSTANT SYMDEF");
      270     6678
      271     6679        %VLP_ACCT(FPTN = ARCHIVE_ACCT,
      272     6680                 ACCT = '$$EFT',
      273     6681                 STCLASS = "CONSTANT SYMDEF");
      274     6694
      275     6695    1   DCL 1 ARCHIVE_LIST BASED ALIGNED,
      276     6696    1         2 VERSION,               /* Version of archive file */
      277     6697    1          3 FLAG UBIN(9) CALIGNED, /* Indicates pre-D00 or post-D00 archive file */
      278     6698    1          3 SIZE UBIN(9) CALIGNED, /* Size of TEXT */
      279     6699    1          3 TEXT CHAR(6) CALIGNED, /* Version of archive file (from B_VERSION) */
      280     6700    1         2 SIZE UBIN,              /* Archive record size */
      281     6701    1         2 OFFSET,
      282     6702    1           3 DPLIST UBIN,         /* Offset of Disk packset list */
      283     6703    1           3 SNLIST UBIN,         /* Offset of first tapeset list      */
      284     6704    1           3 SNLIST2 UBIN,        /* Offset of second tapeset list */
      285     6705    1         2 VOLUME UBIN(9) CALIGNED, /* Offset of volume used for ARCHIVE */
      286     6706    1         2 XTEND BIT(1) UNAL,
      287     6707    1         2 OD BIT(1) UNAL,        /* Type of archive file - optical disk or tape */
      288     6708    1         2 * BIT(25) UNAL,
      289     6709    1         2 OPTION ALIGNED,          /* As tape option        */
      290     6710    1           3 DEN UBIN(6) UNAL,
      291     6711    1           3 VOLA UBIN(3) UNAL,
      292     6712    1           3 CHECK BIT(1) UNAL,
      293     6713    1           3 IOERRORC BIT(1) UNAL,                      /* IO error continuation */
      294     6714    1           3 * UBIN(7) UNAL,
      295     6715    1           3 BLOCK UBIN(18) HALIGNED,
      296     6716    1           3 EXP SBIN;
PL6.E3A0      #001=FLS_DATA_D File=FLS_DATA_D.:E05TSI                            TUE 07/29/97 16:27 Page:26
      297     6717
      298     6718    1   DCL ARCHIVE_VOLUME_SET UBIN BASED;
      299     6719
      300     6720    1   DCL 1 PRIME_DUAL_BUF STATIC SYMDEF,
      301     6721    1         2 UTS UBIN WORD,
      302     6722    1         2 PRIME CHAR(6),
      303     6723    1         2 DUAL CHAR(6);
      304     6724
      305     6725        %VLP_NAME( FPTN=PRIME_FILE,
      306     6726                   NAME=':PRIME',
      307     6727                   STCLASS="CONSTANT SYMDEF" );
      308     6754
      309     6755        %VLP_NAME( FPTN=DUAL_FILE,
      310     6756                   NAME=':DUAL',
      311     6757                   STCLASS="CONSTANT SYMDEF" );
      312     6784
      313     6785        %FPT_OPEN( FPTN=OPEN_PRIME_DUAL,
      314     6786                   DCB=M$STATUS,
      315     6787                   ACCT=BACKUP_ACCT,
      316     6788                   ORG=CONSEC,
      317     6789                   ASN=FILE,
      318     6790                   CTG=YES,
      319     6791                   SCRUB=YES,
      320     6792                   STCLASS="STATIC SYMDEF" );
      321     6901
      322     6902        %FPT_READ( FPTN=READ_PRIME_DUAL,
      323     6903                   DCB=M$STATUS,
      324     6904                   BUF=PRIME_DUAL_BUF,
      325     6905                   STCLASS="STATIC SYMDEF" );
      326     6944
      327     6945        %FPT_WRITE( FPTN=WRITE_PRIME_DUAL,
      328     6946                    DCB=M$STATUS,
      329     6947                    BUF=PRIME_DUAL_BUF,
      330     6948                    STCLASS="STATIC SYMDEF" );
      331     6979
      332     6980        %FPT_CLOSE( FPTN=CLOSE_PRIME_DUAL,
      333     6981                    DCB=M$STATUS,
PL6.E3A0      #001=FLS_DATA_D File=FLS_DATA_D.:E05TSI                            TUE 07/29/97 16:27 Page:27
      334     6982                    DISP=SAVE,
      335     6983                    STCLASS="STATIC SYMDEF" );
      336     7025
      337     7026        %VLP_SN( FPTN=LAST_DSN_USED,
      338     7027                 N=1,
      339     7028                 STCLASS="STATIC SYMDEF" );
      340     7041
      341     7042        %FPT_OPEN ( FPTN=OPEN_REBUILD,
      342     7043                   DCB=M$REBUILD,
      343     7044                   ORG=KEYED,
      344     7045                   ACS=DIRECT,
      345     7046                   ASN=FILE,
      346     7047                   CTG=YES,
      347     7048                   FUN=CREATE,
      348     7049                   EXIST=OLDFILE,
      349     7050                   NAME=REBUILD_NAME,
      350     7051                   ACCT=BACKUP_ACCT,
      351     7052                   SN=REBUILD_SN,
      352     7053                   SCRUB=YES,
      353     7054                   STCLASS="STATIC SYMDEF" );
      354     7163
      355     7164        %VLP_NAME( FPTN=REBUILD_NAME,
      356     7165                   NAME=':REBUILD',
      357     7166                   STCLASS="STATIC SYMDEF" );
      358     7193
      359     7194        %VLP_SN( FPTN=REBUILD_SN,
      360     7195                 N=1,
      361     7196                 STCLASS="STATIC SYMDEF" );
      362     7209
      363     7210        %FPT_WRITE( FPTN=WRITE_REBUILD,
      364     7211                    KEY=REBUILD_DIR_KEY,
      365     7212                    DCB=M$REBUILD,
      366     7213                    STCLASS="STATIC SYMDEF" );
      367     7244
      368     7245        %FPT_READ( FPTN=READ_REBUILD,
      369     7246                   KEYS=YES,
      370     7247                   KEY=REBUILD_DIR_KEY,
PL6.E3A0      #001=FLS_DATA_D File=FLS_DATA_D.:E05TSI                            TUE 07/29/97 16:27 Page:28
      371     7248                   BUF=REBUILD_BUF,
      372     7249                   DCB=M$REBUILD,
      373     7250                   STCLASS="STATIC SYMDEF" );
      374     7289
      375     7290        %FPT_CLOSE( FPTN=CLOSE_REBUILD,
      376     7291                    DISP=SAVE,
      377     7292                    DCB=M$REBUILD,
      378     7293                    STCLASS="STATIC SYMDEF" );
      379     7335
      380     7336        %VLP_NAME( FPTN=REBUILD_DIR_KEY,
      381     7337                   NAME='        ',
      382     7338                   STCLASS="STATIC SYMDEF" );
      383     7365
      384     7366        %VLP_NAME( FPTN=REBUILD_KEY,
      385     7367                   NAME='REBUILD#',
      386     7368                   STCLASS="STATIC SYMDEF" );
      387     7395
      388     7396    1   DCL 1 REBUILD_BUF STATIC SYMDEF,
      389     7397    1         2 START,
      390     7398    1           3 ACCT,                           /* Accnt. at which to cont. REBUILD */
      391     7399    1             4 ACCT# CHAR(8) CALIGNED,
      392     7400    1           3 FILE,                             /* File at which to cont. REBUILD */
      393     7401    1             4 L# UBIN(9) UNAL,
      394     7402    1             4 NAME# CHAR(31) CALIGNED,
      395     7403    1         2 TSN CHAR(6) CALIGNED,                       /* Tape for cont. REBUILD */
      396     7404    1         2 FSN UBIN HALF HALIGNED,              /* FSN at which to cont. REBUILD */
      397     7405    1         2 VOLUME UBIN(9) CALIGNED,             /* VOL at which to cont. REBUILD */
      398     7406    1         2 DEN UBIN(6) UNAL,                    /* DEN of tape for cont. REBUILD */
      399     7407    1         2 DIR BIT(1) UNAL,                     /* DIR setting for cont. REBUILD */
      400     7408    1         2 PAD BIT(1) UNAL,                     /* PAD setting for cont. REBUILD */
      401     7409    1         2 IOERRORC BIT(1) UNAL;           /* IOERRORC setting for cont. REBUILD */
      402     7410
      403     7411        %FPT_OPEN( FPTN=OPEN_NODATA_LIST,
      404     7412                   DCB=M$NODATA_LIST,
      405     7413                   ORG=KEYED,
      406     7414                   ACS=DIRECT,
      407     7415                   SHARE=ALL,
PL6.E3A0      #001=FLS_DATA_D File=FLS_DATA_D.:E05TSI                            TUE 07/29/97 16:27 Page:29
      408     7416                   KEYX=0,
      409     7417                   KEYL=40,
      410     7418                   ASN=FILE,
      411     7419                   CTG=YES,
      412     7420                   FUN=CREATE,
      413     7421                   EXIST=OLDFILE,
      414     7422                   NAME=NODATA_FILE_NAME,
      415     7423                   ACCT=BACKUP_ACCT,
      416     7424                   SN=NODATA_SN,
      417     7425                   SCRUB=YES,
      418     7426                   STCLASS="STATIC SYMDEF" );
      419     7535
      420     7536        %VLP_NAME( FPTN=NODATA_FILE_NAME,
      421     7537                   NAME=':NODATA',
      422     7538                   STCLASS="STATIC SYMDEF" );
      423     7565
      424     7566        %VLP_SN( FPTN=NODATA_SN,
      425     7567                 N=1,
      426     7568                 STCLASS="STATIC SYMDEF");
      427     7581
      428     7582        %FPT_CLOSE( FPTN=CLOSE_NODATA_LIST,
      429     7583                    DISP=SAVE,
      430     7584                    DCB=M$NODATA_LIST,
      431     7585                    STCLASS="STATIC SYMDEF");
      432     7627
      433     7628        %FPT_READ( FPTN=READ_NODATA_LIST,
      434     7629                   KEY=NODATA_KEY,
      435     7630                   KEYR=YES,
      436     7631                   KEYS=NO,
      437     7632                   DCB=M$NODATA_LIST,
      438     7633                   STCLASS="STATIC SYMDEF");
      439     7672
      440     7673        %FPT_WRITE( FPTN=WRITE_NODATA_LIST,
      441     7674                    KEY=NODATA_KEY,
      442     7675                    DCB=M$NODATA_LIST,
      443     7676                    ONEWKEY=YES,
      444     7677                    STCLASS="STATIC SYMDEF");
PL6.E3A0      #001=FLS_DATA_D File=FLS_DATA_D.:E05TSI                            TUE 07/29/97 16:27 Page:30
      445     7708
      446     7709        %FPT_DELREC( FPTN=DEL_NODATA_REC,
      447     7710                      DCB=M$NODATA_LIST,
      448     7711                     KEY=NODATA_KEY,
      449     7712                     STCLASS=STATIC );
      450     7731
      451     7732    1   DCL 1 NODATA_KEY STATIC SYMDEF,
      452     7733    1         2 L UBIN BYTE CALIGNED INIT(LENGTHV(NODATA_KEY)),
      453     7734    1         2 ACCT# CHAR(8) CALIGNED,
      454     7735    1         2 NAME#,
      455     7736    1           3 C CHAR(31) CALIGNED,
      456     7737    1           3 L UBIN BYTE CALIGNED;
      457     7738
      458     7739    1   DCL 1 ARCOM_OPTIONS STATIC SYMDEF,           /* Misc. ARCOM cmnd line options */
      459     7740    1         2 IMMUPDATE BIT(1),
      460     7741    1         2 IOERRORCI BIT(1),
      461     7742    1         2 IOERRORCO BIT(1),
      462     7743    1         2 DUPLICATE_TAPESET BIT(1),
      463     7744    1         2 * BIT(32) INIT('0'B);
      464     7745
      465     7746    1   END FLS_DATA_D;

PL6.E3A0      #001=FLS_DATA_D File=FLS_DATA_D.:E05TSI                            TUE 07/29/97 16:27 Page:31
--  Include file information  --

   CP_6_C.:E05TOU  is referenced.
   CP_6.:E05TOU  cannot be made into a system file and is referenced.
      No diagnostics issued in procedure FLS_DATA_D.
PL6.E3A0      #001=FLS_DATA_D File=FLS_DATA_D.:E05TSI                            TUE 07/29/97 16:27 Page:32

 **** Variables and constants ****

  ****  Section 000  Data  FLS_DATA_D

  ****  Scalars and arrays  ****
OctLoc.c.b A Datatyp(siz) R M Lvl/name                 OctLoc.c.b A Datatyp(siz) R M Lvl/name

  2032-0-0/b BIT         r     1 A_FD(0:1023)              32-0-0/b BIT         r     1 A_FIT(0:1023)
  4712-0-0/c STRC(72)    r     1 BACKUP_ACCT             4710-0-0/c STRC(72)    r     1 BACKUP_NAME
  4714-0-0/d STRC(90)    r     1 BACKUP_SN                  7-0-0/w PTR         r     1 BLK_TAG$
    10-0-0/w PTR         r     1 BLK_TAG0$                 17-0-0/w PTR         r     1 BLOCK_GRAN$
  5520-0-0/d STRC(1080)  r     1 CLOSE_NODATA_LIST       5140-0-0/d STRC(1080)  r     1 CLOSE_PRIME_DUAL
  5336-0-0/d STRC(1080)  r     1 CLOSE_REBUILD           4752-0-0/d STRC(1080)  r     1 CLOSE_STATUS
  4556-0-0/d STRC(1080)  r     1 CLOSE_TSN_USED          5610-0-0/d STRC(360)   r     1 DEL_NODATA_REC
    16-0-0/w PTR         r     1 DISK_GRAN$
  4036-0-0/d UBIN        r     1 EFTFILE_DCB(0:99)
    14-0-0/w SBIN        r     1 NBR_BYTES_TO_MOVE       5512-0-0/c STRC(72)    r     1 NODATA_FILE_NAME
  5622-0-0/c STRC(369)   r     1 NODATA_KEY              5514-0-0/d STRC(90)    r     1 NODATA_SN
  5420-0-0/d STRC(2088)  r     1 OPEN_NODATA_LIST        5014-0-0/d STRC(2088)  r     1 OPEN_PRIME_DUAL
  5202-0-0/d STRC(2088)  r     1 OPEN_REBUILD            4616-0-0/d STRC(2088)  r     1 OPEN_STATUS
  4426-0-0/d STRC(2088)  r     1 OPEN_TSN_USED           5010-0-0/w STRC(144)   r     1 PRIME_DUAL_BUF
  5556-0-0/d STRC(504)   r     1 READ_NODATA_LIST        5106-0-0/d STRC(504)   r     1 READ_PRIME_DUAL
  5320-0-0/d STRC(504)   r     1 READ_REBUILD            4734-0-0/d STRC(504)   r     1 READ_STATUS
  4540-0-0/d STRC(504)   r     1 READ_TSN_USED           5402-0-0/h STRC(450)   r     1 REBUILD_BUF
  5374-0-0/c STRC(81)    r     1 REBUILD_DIR_KEY         5274-0-0/c STRC(81)    r     1 REBUILD_NAME
  5300-0-0/d STRC(90)    r     1 REBUILD_SN              4414-0-0/c STRC        r     1 STATUS_KEY
  4415-0-0/w STRC(270)   r     1 TSN_USED_BUF            4412-0-0/c STRC(45)    r     1 TSN_USED_KEY
  4520-0-0/c STRC(90)    r     1 TSN_USED_NAME           5574-0-0/d STRC(432)   r     1 WRITE_NODATA_LIST
  5124-0-0/d STRC(432)   r     1 WRITE_PRIME_DUAL        5304-0-0/d STRC(432)   r     1 WRITE_REBUILD
  4720-0-0/d STRC(432)   r     1 WRITE_STATUS            4524-0-0/d STRC(432)   r     1 WRITE_TSN_USED

  ****  Section 007 RoData FLS_DATA_D

  ****  Scalars and arrays  ****
OctLoc.c.b A Datatyp(siz) R M Lvl/name                 OctLoc.c.b A Datatyp(siz) R M Lvl/name

   167-0-0/c STRC(72)    r     1 ARCHIVE_ACCT             164-0-0/c STRC(81)    r     1 ARCHIVE_NAME
PL6.E3A0      #001=FLS_DATA_D File=FLS_DATA_D.:E05TSI                            TUE 07/29/97 16:27 Page:33
    16-0-0/d STRC(1080)  r     1 CON_CLOSE_ARCHIVE
    54-0-0/d STRC(2088)  r     1 CON_OPEN_ARCHIVE_FILE
   146-0-0/d STRC(504)   r     1 CON_READ_ARCHIVE_FILE

  ****  BASED and DCB variables  ****

  ****  Scalars and arrays  ****
OctLoc.c.b A Datatyp(siz) R M Lvl/name                 OctLoc.c.b A Datatyp(siz) R M Lvl/name

     0-0-0N  NULL        r     1 M$ARCHIVE                  0-0-0N  NULL        r     1 M$NODATA_LIST
     0-0-0N  NULL        r     1 M$REBUILD                  0-0-0N  NULL        r     1 M$STATUS
     0-0-0N  NULL        r     1 M$TSN_USED


   No code generated for procedure FLS_DATA_D .
   Procedure FLS_DATA_D is declared NOAUTO and requires 2974 words of local(STATIC) storage.

    No errors detected in file FLS_DATA_D.:E05TSI    .
PL6.E3A0      #001=FLS_DATA_D File=FLS_DATA_D.:E05TSI                            TUE 07/29/97 16:27 Page:34
          *** CROSS REFERENCE LISTING ***
**     DENOTES     IDENTIFIER DEFINITION
<<                 IDENTIFIER'S VALUE SET
>>                 IDENTIFIER'S VALUE USED
<>                 IDENTIFIER SET AND/OR USED
--                 IDENTIFIER REFERENCED
PL6.E3A0      #001=FLS_DATA_D File=FLS_DATA_D.:E05TSI                            TUE 07/29/97 16:27 Page:35
          MINI XREF LISTING

ARCHIVE_ACCT
      6692**DCL      6567--DCLINIT
ARCHIVE_NAME
      6676**DCL      6563--DCLINIT
A_FD
      5707**DCL      5706--DCLINIT
A_FIT
      5692**DCL      5691--DCLINIT
BACKUP_ACCT
      6290**DCL      6208--DCLINIT  6862--DCLINIT  7124--DCLINIT  7496--DCLINIT
BACKUP_NAME
      6275**DCL      6204--DCLINIT
BACKUP_SN
      6306**DCL      6203--DCLINIT
BLK_TAG.NAME
      5629**DCL      5632--REDEF
BLK_TAG$
      5617**DCL      5618--IMP-PTR
BLK_TAG0.NAME
      5649**DCL      5652--REDEF
BLK_TAG0$
      5637**DCL      5638--IMP-PTR
BLOCK_GRAN$
      5664**DCL      5665--IMP-PTR
CLOSE_NODATA_LIST.SN_
      7608**DCL      7608--REDEF
CLOSE_NODATA_LIST.UTL_
      7609**DCL      7609--REDEF
CLOSE_NODATA_LIST.V
      7613**DCL      7608--DCLINIT
CLOSE_NODATA_LIST.V.EXPIRE#
      7623**DCL      7623--REDEF
PL6.E3A0      #001=FLS_DATA_D File=FLS_DATA_D.:E05TSI                            TUE 07/29/97 16:27 Page:36
CLOSE_NODATA_LIST.V.TYPE#
      7621**DCL      7621--REDEF
CLOSE_NODATA_LIST.V.XTNSIZE#
      7618**DCL      7618--REDEF    7620--REDEF
CLOSE_PRIME_DUAL.SN_
      7006**DCL      7006--REDEF
CLOSE_PRIME_DUAL.UTL_
      7007**DCL      7007--REDEF
CLOSE_PRIME_DUAL.V
      7011**DCL      7006--DCLINIT
CLOSE_PRIME_DUAL.V.EXPIRE#
      7021**DCL      7021--REDEF
CLOSE_PRIME_DUAL.V.TYPE#
      7019**DCL      7019--REDEF
CLOSE_PRIME_DUAL.V.XTNSIZE#
      7016**DCL      7016--REDEF    7018--REDEF
CLOSE_REBUILD.SN_
      7316**DCL      7316--REDEF
CLOSE_REBUILD.UTL_
      7317**DCL      7317--REDEF
CLOSE_REBUILD.V
      7321**DCL      7316--DCLINIT
CLOSE_REBUILD.V.EXPIRE#
      7331**DCL      7331--REDEF
CLOSE_REBUILD.V.TYPE#
      7329**DCL      7329--REDEF
CLOSE_REBUILD.V.XTNSIZE#
      7326**DCL      7326--REDEF    7328--REDEF
CLOSE_STATUS.SN_
      6417**DCL      6417--REDEF
CLOSE_STATUS.UTL_
      6418**DCL      6418--REDEF
CLOSE_STATUS.V
      6422**DCL      6417--DCLINIT
CLOSE_STATUS.V.EXPIRE#
      6432**DCL      6432--REDEF
PL6.E3A0      #001=FLS_DATA_D File=FLS_DATA_D.:E05TSI                            TUE 07/29/97 16:27 Page:37
CLOSE_STATUS.V.TYPE#
      6430**DCL      6430--REDEF
CLOSE_STATUS.V.XTNSIZE#
      6427**DCL      6427--REDEF    6429--REDEF
CLOSE_TSN_USED.SN_
      6089**DCL      6089--REDEF
CLOSE_TSN_USED.UTL_
      6090**DCL      6090--REDEF
CLOSE_TSN_USED.V
      6094**DCL      6089--DCLINIT
CLOSE_TSN_USED.V.EXPIRE#
      6104**DCL      6104--REDEF
CLOSE_TSN_USED.V.TYPE#
      6102**DCL      6102--REDEF
CLOSE_TSN_USED.V.XTNSIZE#
      6099**DCL      6099--REDEF    6101--REDEF
CON_CLOSE_ARCHIVE.SN_
      6463**DCL      6463--REDEF
CON_CLOSE_ARCHIVE.UTL_
      6464**DCL      6464--REDEF
CON_CLOSE_ARCHIVE.V
      6468**DCL      6463--DCLINIT
CON_CLOSE_ARCHIVE.V.EXPIRE#
      6478**DCL      6478--REDEF
CON_CLOSE_ARCHIVE.V.TYPE#
      6476**DCL      6476--REDEF
CON_CLOSE_ARCHIVE.V.XTNSIZE#
      6473**DCL      6473--REDEF    6475--REDEF
CON_OPEN_ARCHIVE_FILE.ACSVEH_
      6564**DCL      6565--REDEF
CON_OPEN_ARCHIVE_FILE.ALTKEYS_
      6570**DCL      6571--REDEF    6571--REDEF
CON_OPEN_ARCHIVE_FILE.HDR_
      6569**DCL      6570--REDEF
CON_OPEN_ARCHIVE_FILE.TAB_
      6568**DCL      6569--REDEF
PL6.E3A0      #001=FLS_DATA_D File=FLS_DATA_D.:E05TSI                            TUE 07/29/97 16:27 Page:38
CON_OPEN_ARCHIVE_FILE.UHL_
      6562**DCL      6563--REDEF    6563--REDEF
CON_OPEN_ARCHIVE_FILE.V
      6571**DCL      6562--DCLINIT
CON_OPEN_ARCHIVE_FILE.V.FSN#
      6602**DCL      6602--REDEF    6602--REDEF
CON_OPEN_ARCHIVE_FILE.WSN_
      6568**DCL      6568--REDEF
CON_READ_ARCHIVE_FILE.STATION_
      6629**DCL      6630--REDEF
CON_READ_ARCHIVE_FILE.V
      6630**DCL      6626--DCLINIT
CON_READ_ARCHIVE_FILE.V.DVBYTE.REREAD#
      6641**DCL      6641--REDEF
CON_READ_ARCHIVE_FILE.V.INDX#
      6639**DCL      6639--REDEF
CVOL_UTL.ULBL#
      5795**DCL      5795--REDEF
DEL_NODATA_REC.V
      7726**DCL      7723--DCLINIT
DISK_GRAN$
      5662**DCL      5663--IMP-PTR
EFTFILE_DCB
      5723**DCL      5722--DCLINIT
FIT_AREA.W2
      6123**DCL      6124--REDEF
NBR_BYTES_TO_MOVE
      5660**DCL      5663--IMP-SIZ  5665--IMP-SIZ
NODATA_FILE_NAME
      7563**DCL      7492--DCLINIT
NODATA_KEY
      7732**DCL      7650--DCLINIT  7651--DCLINIT  7694--DCLINIT  7723--DCLINIT  7724--DCLINIT  7733--DCLINIT
NODATA_SN
      7579**DCL      7491--DCLINIT
OPEN_NODATA_LIST.ACSVEH_
      7493**DCL      7494--REDEF
PL6.E3A0      #001=FLS_DATA_D File=FLS_DATA_D.:E05TSI                            TUE 07/29/97 16:27 Page:39
OPEN_NODATA_LIST.ALTKEYS_
      7499**DCL      7500--REDEF    7500--REDEF
OPEN_NODATA_LIST.HDR_
      7498**DCL      7499--REDEF
OPEN_NODATA_LIST.TAB_
      7497**DCL      7498--REDEF
OPEN_NODATA_LIST.UHL_
      7491**DCL      7492--REDEF    7492--REDEF
OPEN_NODATA_LIST.V
      7500**DCL      7491--DCLINIT
OPEN_NODATA_LIST.V.FSN#
      7531**DCL      7531--REDEF    7531--REDEF
OPEN_NODATA_LIST.WSN_
      7497**DCL      7497--REDEF
OPEN_PRIME_DUAL.ACSVEH_
      6859**DCL      6860--REDEF
OPEN_PRIME_DUAL.ALTKEYS_
      6865**DCL      6866--REDEF    6866--REDEF
OPEN_PRIME_DUAL.HDR_
      6864**DCL      6865--REDEF
OPEN_PRIME_DUAL.TAB_
      6863**DCL      6864--REDEF
OPEN_PRIME_DUAL.UHL_
      6857**DCL      6858--REDEF    6858--REDEF
OPEN_PRIME_DUAL.V
      6866**DCL      6857--DCLINIT
OPEN_PRIME_DUAL.V.FSN#
      6897**DCL      6897--REDEF    6897--REDEF
OPEN_PRIME_DUAL.WSN_
      6863**DCL      6863--REDEF
OPEN_REBUILD.ACSVEH_
      7121**DCL      7122--REDEF
OPEN_REBUILD.ALTKEYS_
      7127**DCL      7128--REDEF    7128--REDEF
OPEN_REBUILD.HDR_
      7126**DCL      7127--REDEF
PL6.E3A0      #001=FLS_DATA_D File=FLS_DATA_D.:E05TSI                            TUE 07/29/97 16:27 Page:40
OPEN_REBUILD.TAB_
      7125**DCL      7126--REDEF
OPEN_REBUILD.UHL_
      7119**DCL      7120--REDEF    7120--REDEF
OPEN_REBUILD.V
      7128**DCL      7119--DCLINIT
OPEN_REBUILD.V.FSN#
      7159**DCL      7159--REDEF    7159--REDEF
OPEN_REBUILD.WSN_
      7125**DCL      7125--REDEF
OPEN_STATUS.ACSVEH_
      6205**DCL      6206--REDEF
OPEN_STATUS.ALTKEYS_
      6211**DCL      6212--REDEF    6212--REDEF
OPEN_STATUS.HDR_
      6210**DCL      6211--REDEF
OPEN_STATUS.TAB_
      6209**DCL      6210--REDEF
OPEN_STATUS.UHL_
      6203**DCL      6204--REDEF    6204--REDEF
OPEN_STATUS.V
      6212**DCL      6203--DCLINIT
OPEN_STATUS.V.FSN#
      6243**DCL      6243--REDEF    6243--REDEF
OPEN_STATUS.WSN_
      6209**DCL      6209--REDEF
OPEN_TSN_USED.ACSVEH_
      5909**DCL      5910--REDEF
OPEN_TSN_USED.ALTKEYS_
      5915**DCL      5916--REDEF    5916--REDEF
OPEN_TSN_USED.HDR_
      5914**DCL      5915--REDEF
OPEN_TSN_USED.TAB_
      5913**DCL      5914--REDEF
OPEN_TSN_USED.UHL_
      5907**DCL      5908--REDEF    5908--REDEF
PL6.E3A0      #001=FLS_DATA_D File=FLS_DATA_D.:E05TSI                            TUE 07/29/97 16:27 Page:41
OPEN_TSN_USED.V
      5916**DCL      5907--DCLINIT
OPEN_TSN_USED.V.FSN#
      5947**DCL      5947--REDEF    5947--REDEF
OPEN_TSN_USED.WSN_
      5913**DCL      5913--REDEF
PRIME_DUAL_BUF
      6720**DCL      6924--DCLINIT  6925--DCLINIT  6966--DCLINIT  6967--DCLINIT
READ_NODATA_LIST.STATION_
      7653**DCL      7654--REDEF
READ_NODATA_LIST.V
      7654**DCL      7650--DCLINIT
READ_NODATA_LIST.V.DVBYTE.REREAD#
      7665**DCL      7665--REDEF
READ_NODATA_LIST.V.INDX#
      7663**DCL      7663--REDEF
READ_PRIME_DUAL.STATION_
      6925**DCL      6926--REDEF
READ_PRIME_DUAL.V
      6926**DCL      6922--DCLINIT
READ_PRIME_DUAL.V.DVBYTE.REREAD#
      6937**DCL      6937--REDEF
READ_PRIME_DUAL.V.INDX#
      6935**DCL      6935--REDEF
READ_REBUILD.STATION_
      7270**DCL      7271--REDEF
READ_REBUILD.V
      7271**DCL      7267--DCLINIT
READ_REBUILD.V.DVBYTE.REREAD#
      7282**DCL      7282--REDEF
READ_REBUILD.V.INDX#
      7280**DCL      7280--REDEF
READ_STATUS.STATION_
      6371**DCL      6372--REDEF
READ_STATUS.V
      6372**DCL      6368--DCLINIT
PL6.E3A0      #001=FLS_DATA_D File=FLS_DATA_D.:E05TSI                            TUE 07/29/97 16:27 Page:42
READ_STATUS.V.DVBYTE.REREAD#
      6383**DCL      6383--REDEF
READ_STATUS.V.INDX#
      6381**DCL      6381--REDEF
READ_TSN_USED.STATION_
      6043**DCL      6044--REDEF
READ_TSN_USED.V
      6044**DCL      6040--DCLINIT
READ_TSN_USED.V.DVBYTE.REREAD#
      6055**DCL      6055--REDEF
READ_TSN_USED.V.INDX#
      6053**DCL      6053--REDEF
REBUILD_BUF
      7396**DCL      7269--DCLINIT  7270--DCLINIT
REBUILD_DIR_KEY
      7363**DCL      7230--DCLINIT  7267--DCLINIT  7268--DCLINIT
REBUILD_NAME
      7191**DCL      7120--DCLINIT
REBUILD_SN
      7207**DCL      7119--DCLINIT
STATUS_KEY
      5819**DCL      5820--DCLINIT  6330--DCLINIT  6368--DCLINIT  6369--DCLINIT
TAPE_BLOCK_.W2
      5682**DCL      5683--REDEF
TSN_USED_BUF
      5825**DCL      6004--DCLINIT  6005--DCLINIT  6042--DCLINIT  6043--DCLINIT  6331--DCLINIT  6332--DCLINIT
      6370--DCLINIT  6371--DCLINIT
TSN_USED_KEY
      5812**DCL      5813--DCLINIT  6003--DCLINIT  6040--DCLINIT  6041--DCLINIT
TSN_USED_NAME
      5979**DCL      5908--DCLINIT
WRITE_NODATA_LIST.STATION_
      7696**DCL      7696--REDEF
WRITE_NODATA_LIST.V
      7697**DCL      7694--DCLINIT
WRITE_NODATA_LIST.V.DVBYTE.VFC#
PL6.E3A0      #001=FLS_DATA_D File=FLS_DATA_D.:E05TSI                            TUE 07/29/97 16:27 Page:43
      7703**DCL      7703--REDEF
WRITE_PRIME_DUAL.STATION_
      6967**DCL      6967--REDEF
WRITE_PRIME_DUAL.V
      6968**DCL      6965--DCLINIT
WRITE_PRIME_DUAL.V.DVBYTE.VFC#
      6974**DCL      6974--REDEF
WRITE_REBUILD.STATION_
      7232**DCL      7232--REDEF
WRITE_REBUILD.V
      7233**DCL      7230--DCLINIT
WRITE_REBUILD.V.DVBYTE.VFC#
      7239**DCL      7239--REDEF
WRITE_STATUS.STATION_
      6332**DCL      6332--REDEF
WRITE_STATUS.V
      6333**DCL      6330--DCLINIT
WRITE_STATUS.V.DVBYTE.VFC#
      6339**DCL      6339--REDEF
WRITE_TSN_USED.STATION_
      6005**DCL      6005--REDEF
WRITE_TSN_USED.V
      6006**DCL      6003--DCLINIT
WRITE_TSN_USED.V.DVBYTE.VFC#
      6012**DCL      6012--REDEF
