VERSION E05

PL6.E3A0      #001=FLW$WHERE File=FLW$WHERE.:E05TSI                              TUE 07/29/97 16:29 Page:1
        1        1        /*M* FLW$WHERE - Processes WHERE command */
        2        2        /*T***********************************************************/
        3        3        /*T*                                                         */
        4        4        /*T* Copyright (c) Bull HN Information Systems Inc., 1997    */
        5        5        /*T*                                                         */
        6        6        /*T***********************************************************/
        7        7        /*X* THI=1,PLM=3 */
        8        8        FLW$WHERE: PROC;
        9        9        /*F*  NAME: FLW$WHERE
       10       10              PURPOSE: Process WHERE command
       11       11        */
       12       12
       13       13        /***
       14       14         *** INCLUDE
       15       15         ***/
       16       16
       17       17        %INCLUDE B_ERRORS_C;
       18     1144        %INCLUDE CP_6;
       19     6703        %INCLUDE FLE_DATA_R;
       20    12654        %INCLUDE FLI_DATA_R;
       21    14068        %INCLUDE FLS_DATA_R;
       22    15868        %INCLUDE FLW_DATA_R;
       23    15882
       24    15883        /***
       25    15884         *** ENTRY
       26    15885         ***/
       27    15886
       28    15887    1   DCL FLI$RPT_ERR ENTRY(5);
       29    15888    1   DCL FLP$WR_FILE_INFO ENTRY(9) ALTRET;
       30    15889
       31    15890
       32    15891        /***
       33    15892         *** DCB
       34    15893         ***/
       35    15894
       36    15895    1   DCL M$CATALOG DCB;
       37    15896    1   DCL M$LO DCB;
PL6.E3A0      #001=FLW$WHERE File=FLW$WHERE.:E05TSI                              TUE 07/29/97 16:29 Page:2
       38    15897
       39    15898        /***
       40    15899         *** SYMREF
       41    15900         ***/
       42    15901
       43    15902    1   DCL BREAK_COUNT SBIN SYMREF;
       44    15903
       45    15904        /***
       46    15905         *** AUTO
       47    15906         ***/
       48    15907
       49    15908    1   DCL FOUND BIT(1) AUTO;
       50    15909    1   DCL TEMP BIT(1) AUTO;
       51    15910    1   DCL M$CATALOG$ PTR AUTO;
       52    15911    1   DCL 1 ERR ALIGNED,
       53    15912    1         2 * BIT(12),
       54    15913    1         2 * BIT(6),
       55    15914    1         2 * BIT(1),
       56    15915    1         2 CODE UBIN(14) UNAL,
       57    15916    1         2 * BIT(3);
       58    15917    1   DCL FSN SBIN AUTO;
       59    15918    1   DCL VERSION SBIN AUTO;
       60    15919    1   DCL NAMEL SBIN AUTO;
       61    15920
       62    15921        /***
       63    15922         *** CONSTANT
       64    15923         ***/
       65    15924
       66    15925    1   DCL 1 WHERE_CODE CONSTANT,              /* Indicate to FLP$WR_FILE_INFO       */
       67    15926    1         2 * BIT(19) INIT('0'B),
       68    15927    1         2 * UBIN(14) UNAL INIT(%E$OLDREC),
       69    15928    1         2 * BIT(3) INIT('0'B);
       70    15929
       71    15930        /***
       72    15931         *** FPT
       73    15932         ***/
       74    15933
PL6.E3A0      #001=FLW$WHERE File=FLW$WHERE.:E05TSI                              TUE 07/29/97 16:29 Page:3
       75    15934        %FPT_READ( FPTN=READ_NEXT_CATALOG,
       76    15935                   KEY=CAT_KEY,
       77    15936                   BUF=CAT_REC,
       78    15937                   KEYR=YES,
       79    15938                   DCB=M$CATALOG );
       80    15977
       81    15978        /***
       82    15979         *** BASED
       83    15980         ***/
       84    15981
       85    15982        %F$DCB( STCLASS="BASED(M$CATALOG$)" );
       86    16039        %B$TCB( STCLASS="BASED(B$TCB$)" );
       87    16042        %B$ALT;
       88    16050
       89    16051        /****************************************/
       90    16052
       91    16053    1      M$CATALOG$ = DCBADDR(DCBNUM(M$CATALOG));
       92    16054    1      IF NOT F$DCB.FCD#
       93    16055    2       THEN DO;
       94    16056    2         CALL FLI$RPT_ERR( E_NO_CATALOG );
       95    16057    2         RETURN;
       96    16058    2         END;
       97    16059
       98    16060    1      CALL FLP$WR_FILE_INFO;
       99    16061    1      FOUND = '0'B;
      100    16062
      101    16063    2      DO DPLISTX = 0 TO DPLIST.NUM# - 1;
      102    16064
      103    16065    2         CAT_KEY.PSN = DPLIST.SN#(DPLISTX);
      104    16066    2         EFTFILE_DCB$->F$DCB.PSN# = CAT_KEY.PSN;
      105    16067
      106    16068    3         DO SPECX = 0 TO DISK_FILE_SPEC.NBR - 1;
      107    16069
      108    16070    3            CAT_KEY.ACCT = DISK_FILE_SPEC.SPEC.START.ACCT.ACCT#(SPECX);
      109    16071    3            CAT_KEY.NAME.C = DISK_FILE_SPEC.SPEC.START.FILE.NAME#(SPECX);
      110    16072    3            NAMEL = DISK_FILE_SPEC.SPEC.START.FILE.L#(SPECX);
      111    16073    3            CAT_KEY.L = LENGTHC(CAT_KEY.PSN)+LENGTHC(CAT_KEY.ACCT)+NAMEL
PL6.E3A0      #001=FLW$WHERE File=FLW$WHERE.:E05TSI                              TUE 07/29/97 16:29 Page:4
      112    16074    3              + LENGTHC(CAT_KEY.NAME.L)+LENGTHC(CAT_KEY.VERSION);
      113    16075    3            CAT_KEY3.VERSION(NAMEL) = NAMEL; /* Name length                      */
      114    16076    3            CAT_KEY3.VERSION(NAMEL+1) = 0; /* Version                            */
      115    16077
      116    16078    3            READ_NEXT_CATALOG.V.KEYS# = '1'B;
      117    16079    3            ERR = '0'B;
      118    16080
      119    16081    4            DO WHILE( NOT ERR );
      120    16082    4               CALL M$READ( READ_NEXT_CATALOG )
      121    16083    5                WHENALTRETURN DO;
      122    16084    5                  ERR = B$TCB.ALT$->B$ALT.ERR;
      123    16085    5                  IF ERR.CODE = %E$NOKEY
      124    16086    6                   THEN DO;
      125    16087    6                     ERR = '0'B;
      126    16088    6                     READ_NEXT_CATALOG.V.KEYS# = '0'B;
      127    16089    6                     CAT_KEY2.CHARS = ' ';
      128    16090    6                     CALL M$READ( READ_NEXT_CATALOG )
      129    16091    7                      WHENALTRETURN DO;
      130    16092    7                        ERR = B$TCB.ALT$->B$ALT.ERR;
      131    16093    7                        IF ERR.CODE ~= %E$EOF
      132    16094    7                         THEN CALL FLI$RPT_ERR;
      133    16095    7                        END;
      134    16096    6                     END;
      135    16097    5                   ELSE IF ERR.CODE ~= %E$EOF
      136    16098    6                      THEN DO;
      137    16099    6                        IF ERR.CODE = %E$LD
      138    16100    6                         THEN CALL FLI$RPT_ERR( E_NOT_CAT_FILE );
      139    16101    6                         ELSE CALL FLI$RPT_ERR;
      140    16102    6                        RETURN;
      141    16103    6                        END;
      142    16104    5                  END;
      143    16105
      144    16106    4               IF BREAK_COUNT > 0
      145    16107    4                THEN RETURN;
      146    16108
      147    16109    4               IF NOT ERR
      148    16110    5                THEN DO;
PL6.E3A0      #001=FLW$WHERE File=FLW$WHERE.:E05TSI                              TUE 07/29/97 16:29 Page:5
      149    16111    5                  IF F$DCB.ARS# ~= LENGTHC(CAT_REC)
      150    16112    6                   THEN DO;
      151    16113    6                     CALL FLI$RPT_ERR( E_NOT_CAT_FILE );
      152    16114    6                     RETURN;
      153    16115    6                     END;
      154    16116    5                  READ_NEXT_CATALOG.V.KEYS# = '0'B;
      155    16117    5                  NAMEL = CAT_KEY.L - LENGTHC(CAT_KEY.PSN) - LENGTHC(CAT_KEY.ACCT)
      156    16118    5                    - LENGTHC(CAT_KEY.NAME.L) - LENGTHC(CAT_KEY.VERSION);
      157    16119    5                  VERSION = CAT_KEY3.VERSION(NAMEL+1);
      158    16120    5                  CAT_KEY3.VERSION(NAMEL+1) = ASCBIN(' ');
      159    16121    5                  CAT_KEY3.VERSION(NAMEL) = ASCBIN(' ');
      160    16122    5                  CAT_KEY.NAME.L = NAMEL;
      161    16123    5                  CAT_KEY.VERSION = VERSION;
      162    16124    5                  IF CAT_KEY.PSN = DPLIST.SN#(DPLISTX)
      163    16125    5                    AND CAT_KEY2.CHARS <= DISK_FILE_SPEC.SPEC.STOPCHARS(SPECX)
      164    16126    6                   THEN DO;
      165    16127    6                     EFTFILE_DCB$->F$DCB.ACCT# = CAT_KEY.ACCT;
      166    16128    6                     EFTFILE_DCB$->F$DCB.NAME#.C = CAT_KEY.NAME.C;
      167    16129    6                     EFTFILE_DCB$->F$DCB.NAME#.L = CAT_KEY.NAME.L;
      168    16130    6                     EFTFILE_DCB$->F$DCB.DESC = CAT_REC.DESC;
      169    16131    6                     IF CAT_REC.DESC.ODSTOW#
      170    16132    7                      THEN DO;
      171    16133    7                        IF CAT_REC.ODCROSS
      172    16134    7                         THEN CROSSED = '*';
      173    16135    7                         ELSE CROSSED = ' ';
      174    16136    7                        FSN = CAT_REC.ODFSN;
      175    16137    7                        END;
      176    16138    7                      ELSE DO;
      177    16139    7                        IF CAT_REC.LT.CROSS
      178    16140    7                         THEN CROSSED = '*';
      179    16141    7                         ELSE CROSSED = ' ';
      180    16142    7                        FSN = CAT_REC.LT.FSN;
      181    16143    7                        END;
      182    16144    6                     EFTFILE_DCB$->F$DCB.EXPIRE# = CAT_REC.UTS;
      183    16145    6                     TEMP = CAT_REC.FITONLY;
      184    16146    6                     CALL FLP$WR_FILE_INFO( EFTFILE_DCB$, ADDR(NIL), CAT_REC.TSN,
      185    16147    6                       FSN, CROSSED, , WHERE_CODE, '1'B, TEMP ) ALTRET( ERRRET );
PL6.E3A0      #001=FLW$WHERE File=FLW$WHERE.:E05TSI                              TUE 07/29/97 16:29 Page:6
      186    16148    6                     FOUND = '1'B;
      187    16149    6                     CAT_KEY2.CHARS = ' ';
      188    16150    6                     END;
      189    16151    5                   ELSE ERR = '1'B;
      190    16152    5                  END;
      191    16153    4               END;
      192    16154    3            END;
      193    16155    2         END;
      194    16156
      195    16157    1      IF NOT FOUND
      196    16158    1       THEN CALL FLI$RPT_ERR( E_NOTHING_FOUND );
      197    16159    1      RETURN;
      198    16160
      199    16161    1   ERRRET: ;
      200    16162    1      COMMAND_ERROR = '1'B;
      201    16163    1      RETURN;
      202    16164
      203    16165    1   END FLW$WHERE;

PL6.E3A0      #001=FLW$WHERE File=FLW$WHERE.:E05TSI                              TUE 07/29/97 16:29 Page:7
--  Include file information  --

   FLW_DATA_R.:E05TOU  cannot be made into a system file and is referenced.
   FLS_DATA_R.:E05TOU  cannot be made into a system file and is referenced.
   B_MICROPS_C.:E05TOU  is referenced.
   FLB_SUBS_C.:E05TOU  is referenced.
   FLI_DATA_R.:E05TOU  cannot be made into a system file and is referenced.
   FL_PERR_C.:E05TOU  is referenced.
   FLE_DATA_R.:E05TOU  cannot be made into a system file and is referenced.
   CP_6_C.:E05TOU  is referenced.
   CP_6.:E05TOU  cannot be made into a system file and is referenced.
   B_ERRORS_C.:E05TOU  is referenced.
      No diagnostics issued in procedure FLW$WHERE.

   Procedure FLW$WHERE requires 257 words for executable code.
   Procedure FLW$WHERE requires 20 words of local(AUTO) storage.

    No errors detected in file FLW$WHERE.:E05TSI    .

PL6.E3A0      #001=FLW$WHERE File=FLW$WHERE.:E05TSI                              TUE 07/29/97 16:29 Page:8

 Object Unit name= FLW$WHERE                                  File name= FLW$WHERE.:E05TOU
 UTS= JUL 29 '97 16:29:11.44 TUE                              Compiler= PL-6/E31         Sev=      00
 SharedLib= :SHARED_SYSTEM                                    Alt SharedLib=


    ****  Control sections  ****

 Sect   Type Bound  Init  Size OctSiz  Section name(segment info)
    0   DCB   even  none     0      0  M$UC
    1   DCB   even  none     0      0  M$PRE_RET
    2   Data  even  none    34     42  FLW$WHERE
    3   DCB   even  none     0      0  M$TSN_USED
    4   DCB   even  none     0      0  M$STATUS
    5   DCB   even  none     0      0  M$REBUILD
    6   DCB   even  none     0      0  M$ARCHIVE
    7   DCB   even  none     0      0  M$NODATA_LIST
    8   DCB   even  none     0      0  M$CATALOG
    9   DCB   even  none     0      0  M$LO
   10  RoData even  UTS      1      1  FLW$WHERE
   11   Proc  even  none   257    401  FLW$WHERE
   12  RoData even  none    12     14  FLW$WHERE

    ****  Entry defs  ****

                              Check   Calling
                             calling  sequence
  Sect OctLoc Primary Altret sequence   type   Parms  Name
    11      0   yes            yes      Std        0  FLW$WHERE
PL6.E3A0      #001=FLW$WHERE File=FLW$WHERE.:E05TSI                              TUE 07/29/97 16:29 Page:9

  ****  Entry refs  ****

         Check        Calling
        calling       sequence
Altret sequence SRef   type   Args  Name
         yes           Std       5 FLI$RPT_ERR
 yes     yes           Std       9 FLP$WR_FILE_INFO
                       nStd      0 X66_AUTO_0
                       Std       0 B_CONSPOOL_D
                       nStd      0 X66_ARET

  ****  Data refs  ****

  Flags:  r = read only, s = secondary
Flgs Name                             Flgs Name                             Flgs Name
     M$UC                             r    E_NO_CATALOG                     r    E_NOT_CAT_FILE
r    E_NOTHING_FOUND                       TAPE_DCBLIST$                         SNVECLIST$
     B$TCB$                                COMMAND_ERROR                         DPLIST$
     DPRESLIST$                            DISK_FILE_SPEC$                       SPECCHARS
     EFTWORD                               DPLISTX                               SPECX
     M$PRE_RET                             RET_CMDS_NAME                         M$TSN_USED
     M$STATUS                              M$REBUILD                             M$ARCHIVE
     M$NODATA_LIST                         BLK_TAG$                              BLK_TAG0$
     NBR_BYTES_TO_MOVE                     DISK_GRAN$                            BLOCK_GRAN$
     CROSSED                          r    EFTFILE_DCB$                     r    EFT_CVOL_FILE
r    EFT_RESTRICT_FILE                     TSN_USED_NAME                         BACKUP_NAME
r    ARCHIVE_NAME                     r    PRIME_FILE                       r    DUAL_FILE
     REBUILD_NAME                          REBUILD_DIR_KEY                       REBUILD_KEY
     NODATA_FILE_NAME                      NODATA_KEY                            CAT_KEY
     CAT_REC                               M$CATALOG                             M$LO
     BREAK_COUNT                           B_VECTNIL
PL6.E3A0      #001=FLW$WHERE File=FLW$WHERE.:E05TSI                              TUE 07/29/97 16:29 Page:10

  ****  Segment refs  ****

  Flags:  r = read only, s = secondary
Flgs Name                             Flgs Name                             Flgs Name
     ISSID                                 NULLSID                               ROSID
PL6.E3A0      #001=FLW$WHERE File=FLW$WHERE.:E05TSI                              TUE 07/29/97 16:29 Page:11


        1        1        /*M* FLW$WHERE - Processes WHERE command */
        2        2        /*T***********************************************************/
        3        3        /*T*                                                         */
        4        4        /*T* Copyright (c) Bull HN Information Systems Inc., 1997    */
        5        5        /*T*                                                         */
        6        6        /*T***********************************************************/
        7        7        /*X* THI=1,PLM=3 */
        8        8        FLW$WHERE: PROC;

      8 11 000000   000000 700200 xent  FLW$WHERE    TSX0  ! X66_AUTO_0
        11 000001   000024 000000                    ZERO    20,0

        9        9        /*F*  NAME: FLW$WHERE
       10       10              PURPOSE: Process WHERE command
       11       11        */
       12       12
       13       13        /***
       14       14         *** INCLUDE
       15       15         ***/
       16       16
       17       17        %INCLUDE B_ERRORS_C;
       18     1144        %INCLUDE CP_6;
       19     6703        %INCLUDE FLE_DATA_R;
       20    12654        %INCLUDE FLI_DATA_R;
       21    14068        %INCLUDE FLS_DATA_R;
       22    15868        %INCLUDE FLW_DATA_R;
       23    15882
       24    15883        /***
       25    15884         *** ENTRY
       26    15885         ***/
       27    15886
       28    15887    1   DCL FLI$RPT_ERR ENTRY(5);
       29    15888    1   DCL FLP$WR_FILE_INFO ENTRY(9) ALTRET;
       30    15889
       31    15890
       32    15891        /***
PL6.E3A0      #001=FLW$WHERE File=FLW$WHERE.:E05TSI                              TUE 07/29/97 16:29 Page:12
       33    15892         *** DCB
       34    15893         ***/
       35    15894
       36    15895    1   DCL M$CATALOG DCB;
       37    15896    1   DCL M$LO DCB;
       38    15897
       39    15898        /***
       40    15899         *** SYMREF
       41    15900         ***/
       42    15901
       43    15902    1   DCL BREAK_COUNT SBIN SYMREF;
       44    15903
       45    15904        /***
       46    15905         *** AUTO
       47    15906         ***/
       48    15907
       49    15908    1   DCL FOUND BIT(1) AUTO;
       50    15909    1   DCL TEMP BIT(1) AUTO;
       51    15910    1   DCL M$CATALOG$ PTR AUTO;
       52    15911    1   DCL 1 ERR ALIGNED,
       53    15912    1         2 * BIT(12),
       54    15913    1         2 * BIT(6),
       55    15914    1         2 * BIT(1),
       56    15915    1         2 CODE UBIN(14) UNAL,
       57    15916    1         2 * BIT(3);
       58    15917    1   DCL FSN SBIN AUTO;
       59    15918    1   DCL VERSION SBIN AUTO;
       60    15919    1   DCL NAMEL SBIN AUTO;
       61    15920
       62    15921        /***
       63    15922         *** CONSTANT
       64    15923         ***/
       65    15924
       66    15925    1   DCL 1 WHERE_CODE CONSTANT,              /* Indicate to FLP$WR_FILE_INFO       */
       67    15926    1         2 * BIT(19) INIT('0'B),
       68    15927    1         2 * UBIN(14) UNAL INIT(%E$OLDREC),
       69    15928    1         2 * BIT(3) INIT('0'B);
PL6.E3A0      #001=FLW$WHERE File=FLW$WHERE.:E05TSI                              TUE 07/29/97 16:29 Page:13
       70    15929
       71    15930        /***
       72    15931         *** FPT
       73    15932         ***/
       74    15933
       75    15934        %FPT_READ( FPTN=READ_NEXT_CATALOG,
       76    15935                   KEY=CAT_KEY,
       77    15936                   BUF=CAT_REC,
       78    15937                   KEYR=YES,
       79    15938                   DCB=M$CATALOG );
       80    15977
       81    15978        /***
       82    15979         *** BASED
       83    15980         ***/
       84    15981
       85    15982        %F$DCB( STCLASS="BASED(M$CATALOG$)" );
       86    16039        %B$TCB( STCLASS="BASED(B$TCB$)" );
       87    16042        %B$ALT;
       88    16050
       89    16051        /****************************************/
       90    16052
       91    16053    1      M$CATALOG$ = DCBADDR(DCBNUM(M$CATALOG));

  16053 11 000002   000000 236007 xsym               LDQ     M$CATALOG,DL
        11 000003   000000 470400 12                 LDP0    0
        11 000004   000000 471500                    LDP1    0,,PR0
        11 000005   100000 236106                    LDQ     0,QL,PR1
        11 000006   200005 756100                    STQ     M$CATALOG$,,AUTO

       92    16054    1      IF NOT F$DCB.FCD#

  16054 11 000007   200005 473500                    LDP3    M$CATALOG$,,AUTO
        11 000010   300031 236100                    LDQ     25,,PR3
        11 000011   020000 316007                    CANQ    8192,DL
        11 000012   000020 601000 11                 TNZ     s:16060

       93    16055    2       THEN DO;
PL6.E3A0      #001=FLW$WHERE File=FLW$WHERE.:E05TSI                              TUE 07/29/97 16:29 Page:14

       94    16056    2         CALL FLI$RPT_ERR( E_NO_CATALOG );

  16056 11 000013   000001 630400 12                 EPPR0   1
        11 000014   000017 631400 xsym               EPPR1   B_VECTNIL+15
        11 000015   000000 701000 xent               TSX1    FLI$RPT_ERR
        11 000016   000000 011000                    NOP     0

       95    16057    2         RETURN;

  16057 11 000017   000000 702200 xent               TSX2  ! X66_ARET

       96    16058    2         END;
       97    16059
       98    16060    1      CALL FLP$WR_FILE_INFO;

  16060 11 000020   000002 631400 xsym               EPPR1   B_VECTNIL+2
        11 000021   000000 701000 xent               TSX1    FLP$WR_FILE_INFO
        11 000022   000000 011000                    NOP     0

       99    16061    1      FOUND = '0'B;

  16061 11 000023   200003 450100                    STZ     FOUND,,AUTO

      100    16062
      101    16063    2      DO DPLISTX = 0 TO DPLIST.NUM# - 1;

  16063 11 000024   000000 450000 xsym               STZ     DPLISTX
        11 000025   000363 710000 11                 TRA     s:16155+1

      102    16064
      103    16065    2         CAT_KEY.PSN = DPLIST.SN#(DPLISTX);

  16065 11 000026   000000 236000 xsym               LDQ     DPLISTX
        11 000027   000006 402007                    MPY     6,DL
        11 000030   000000 470400 xsym               LDP0    DPLIST$
        11 000031   040000 100506                    MLR     fill='040'O
PL6.E3A0      #001=FLW$WHERE File=FLW$WHERE.:E05TSI                              TUE 07/29/97 16:29 Page:15
        11 000032   000001 000006                    ADSC9   1,Q,PR0                  cn=0,n=6
        11 000033   000000 200006 xsym               ADSC9   CAT_KEY                  cn=1,n=6

      104    16066    2         EFTFILE_DCB$->F$DCB.PSN# = CAT_KEY.PSN;

  16066 11 000034   000000 471400 xsym               LDP1    EFTFILE_DCB$
        11 000035   040100 100400                    MLR     fill='040'O
        11 000036   000000 200006 xsym               ADSC9   CAT_KEY                  cn=1,n=6
        11 000037   100024 000006                    ADSC9   20,,PR1                  cn=0,n=6

      105    16067
      106    16068    3         DO SPECX = 0 TO DISK_FILE_SPEC.NBR - 1;

  16068 11 000040   000000 450000 xsym               STZ     SPECX
        11 000041   000356 710000 11                 TRA     s:16154+1

      107    16069
      108    16070    3            CAT_KEY.ACCT = DISK_FILE_SPEC.SPEC.START.ACCT.ACCT#(SPECX);

  16070 11 000042   000000 236000 xsym               LDQ     SPECX
        11 000043   000124 402007                    MPY     84,DL
        11 000044   000000 470400 xsym               LDP0    DISK_FILE_SPEC$
        11 000045   040000 100506                    MLR     fill='040'O
        11 000046   000006 000010                    ADSC9   6,Q,PR0                  cn=0,n=8
        11 000047   000001 600010 xsym               ADSC9   CAT_KEY+1                cn=3,n=8

      109    16071    3            CAT_KEY.NAME.C = DISK_FILE_SPEC.SPEC.START.FILE.NAME#(SPECX);

  16071 11 000050   040000 100506                    MLR     fill='040'O
        11 000051   000010 000037                    ADSC9   8,Q,PR0                  cn=0,n=31
        11 000052   000003 600037 xsym               ADSC9   CAT_KEY+3                cn=3,n=31

      110    16072    3            NAMEL = DISK_FILE_SPEC.SPEC.START.FILE.L#(SPECX);

  16072 11 000053   000000 236000 xsym               LDQ     SPECX
        11 000054   000025 402007                    MPY     21,DL
        11 000055   000017 236106                    LDQ     15,QL,PR0
PL6.E3A0      #001=FLW$WHERE File=FLW$WHERE.:E05TSI                              TUE 07/29/97 16:29 Page:16
        11 000056   000777 376007                    ANQ     511,DL
        11 000057   200011 756100                    STQ     NAMEL,,AUTO

      111    16073    3            CAT_KEY.L = LENGTHC(CAT_KEY.PSN)+LENGTHC(CAT_KEY.ACCT)+NAMEL

  16073 11 000060   000020 036007                    ADLQ    16,DL
        11 000061   000033 736000                    QLS     27
        11 000062   000000 552040 xsym               STBQ    CAT_KEY,'40'O

      112    16074    3              + LENGTHC(CAT_KEY.NAME.L)+LENGTHC(CAT_KEY.VERSION);
      113    16075    3            CAT_KEY3.VERSION(NAMEL) = NAMEL; /* Name length                      */

  16075 11 000063   200011 235100                    LDA     NAMEL,,AUTO
        11 000064   000005 101500                    MRL     fill='000'O
        11 000065   200011 000004                    ADSC9   NAMEL,,AUTO              cn=0,n=4
        11 000066   000003 600001 xsym               ADSC9   CAT_KEY+3,A              cn=3,n=1

      114    16076    3            CAT_KEY3.VERSION(NAMEL+1) = 0; /* Version                            */

  16076 11 000067   000005 101400                    MRL     fill='000'O
        11 000070   000002 000004 xsym               ADSC9   B_VECTNIL+2              cn=0,n=4
        11 000071   000004 000001 xsym               ADSC9   CAT_KEY+4,A              cn=0,n=1

      115    16077
      116    16078    3            READ_NEXT_CATALOG.V.KEYS# = '1'B;

  16078 11 000072   200000 236007                    LDQ     65536,DL
        11 000073   000034 256000 2                  ORSQ    READ_NEXT_CATALOG+8

      117    16079    3            ERR = '0'B;

  16079 11 000074   200006 450100                    STZ     ERR,,AUTO

      118    16080
      119    16081    4            DO WHILE( NOT ERR );

  16081 11 000075   000353 710000 11                 TRA     s:16153
PL6.E3A0      #001=FLW$WHERE File=FLW$WHERE.:E05TSI                              TUE 07/29/97 16:29 Page:17

      120    16082    4               CALL M$READ( READ_NEXT_CATALOG )

  16082 11 000076   000024 630400 2                  EPPR0   READ_NEXT_CATALOG
        11 000077   440000 713400                    CLIMB   alt,read
        11 000100   401400 401760                    pmme    nvectors=4
        11 000101   000103 702000 11                 TSX2    s:16084
        11 000102   000157 710000 11                 TRA     s:16106

      121    16083    5                WHENALTRETURN DO;

      122    16084    5                  ERR = B$TCB.ALT$->B$ALT.ERR;

  16084 11 000103   000000 470400 xsym               LDP0    B$TCB$
        11 000104   000000 471500                    LDP1    0,,PR0
        11 000105   100102 236100                    LDQ     66,,PR1
        11 000106   200006 756100                    STQ     ERR,,AUTO

      123    16085    5                  IF ERR.CODE = %E$NOKEY

  16085 11 000107   200006 236100                    LDQ     ERR,,AUTO
        11 000110   377770 376007                    ANQ     131064,DL
        11 000111   001020 116007                    CMPQ    528,DL
        11 000112   000142 601000 11                 TNZ     s:16097

      124    16086    6                   THEN DO;

      125    16087    6                     ERR = '0'B;

  16087 11 000113   200006 450100                    STZ     ERR,,AUTO

      126    16088    6                     READ_NEXT_CATALOG.V.KEYS# = '0'B;

  16088 11 000114   000002 236000 12                 LDQ     2
        11 000115   000034 356000 2                  ANSQ    READ_NEXT_CATALOG+8

      127    16089    6                     CAT_KEY2.CHARS = ' ';
PL6.E3A0      #001=FLW$WHERE File=FLW$WHERE.:E05TSI                              TUE 07/29/97 16:29 Page:18

  16089 11 000116   040000 100400                    MLR     fill='040'O
        11 000117   000035 000001 xsym               ADSC9   B_VECTNIL+29             cn=0,n=1
        11 000120   000001 600050 xsym               ADSC9   CAT_KEY+1                cn=3,n=40

      128    16090    6                     CALL M$READ( READ_NEXT_CATALOG )

  16090 11 000121   000024 630400 2                  EPPR0   READ_NEXT_CATALOG
        11 000122   440000 713400                    CLIMB   alt,read
        11 000123   401400 401760                    pmme    nvectors=4
        11 000124   000126 702000 11                 TSX2    s:16092
        11 000125   000141 710000 11                 TRA     s:16096

      129    16091    7                      WHENALTRETURN DO;

      130    16092    7                        ERR = B$TCB.ALT$->B$ALT.ERR;

  16092 11 000126   000000 470400 xsym               LDP0    B$TCB$
        11 000127   000000 471500                    LDP1    0,,PR0
        11 000130   100102 236100                    LDQ     66,,PR1
        11 000131   200006 756100                    STQ     ERR,,AUTO

      131    16093    7                        IF ERR.CODE ~= %E$EOF

  16093 11 000132   200006 236100                    LDQ     ERR,,AUTO
        11 000133   377770 376007                    ANQ     131064,DL
        11 000134   000060 116007                    CMPQ    48,DL
        11 000135   000141 600000 11                 TZE     s:16096

      132    16094    7                         THEN CALL FLI$RPT_ERR;

  16094 11 000136   000002 631400 xsym               EPPR1   B_VECTNIL+2
        11 000137   000000 701000 xent               TSX1    FLI$RPT_ERR
        11 000140   000000 011000                    NOP     0

      133    16095    7                        END;

PL6.E3A0      #001=FLW$WHERE File=FLW$WHERE.:E05TSI                              TUE 07/29/97 16:29 Page:19
      134    16096    6                     END;

  16096 11 000141   000157 710000 11                 TRA     s:16106

      135    16097    5                   ELSE IF ERR.CODE ~= %E$EOF

  16097 11 000142   000060 116007                    CMPQ    48,DL
        11 000143   000157 600000 11                 TZE     s:16106

      136    16098    6                      THEN DO;

      137    16099    6                        IF ERR.CODE = %E$LD

  16099 11 000144   000070 116007                    CMPQ    56,DL
        11 000145   000153 601000 11                 TNZ     s:16101

      138    16100    6                         THEN CALL FLI$RPT_ERR( E_NOT_CAT_FILE );

  16100 11 000146   000003 630400 12                 EPPR0   3
        11 000147   000017 631400 xsym               EPPR1   B_VECTNIL+15
        11 000150   000000 701000 xent               TSX1    FLI$RPT_ERR
        11 000151   000000 011000                    NOP     0
        11 000152   000156 710000 11                 TRA     s:16102

      139    16101    6                         ELSE CALL FLI$RPT_ERR;

  16101 11 000153   000002 631400 xsym               EPPR1   B_VECTNIL+2
        11 000154   000000 701000 xent               TSX1    FLI$RPT_ERR
        11 000155   000000 011000                    NOP     0

      140    16102    6                        RETURN;

  16102 11 000156   000000 702200 xent               TSX2  ! X66_ARET

      141    16103    6                        END;
      142    16104    5                  END;
      143    16105
PL6.E3A0      #001=FLW$WHERE File=FLW$WHERE.:E05TSI                              TUE 07/29/97 16:29 Page:20
      144    16106    4               IF BREAK_COUNT > 0

  16106 11 000157   000000 235000 xsym               LDA     BREAK_COUNT
        11 000160   000162 604400 11                 TMOZ    s:16109

      145    16107    4                THEN RETURN;

  16107 11 000161   000000 702200 xent               TSX2  ! X66_ARET

      146    16108
      147    16109    4               IF NOT ERR

  16109 11 000162   200006 236100                    LDQ     ERR,,AUTO
        11 000163   000353 601000 11                 TNZ     s:16153

      148    16110    5                THEN DO;

      149    16111    5                  IF F$DCB.ARS# ~= LENGTHC(CAT_REC)

  16111 11 000164   200005 470500                    LDP0    M$CATALOG$,,AUTO
        11 000165   000000 235100                    LDA     0,,PR0
        11 000166   000020 115007                    CMPA    16,DL
        11 000167   000175 600000 11                 TZE     s:16116

      150    16112    6                   THEN DO;

      151    16113    6                     CALL FLI$RPT_ERR( E_NOT_CAT_FILE );

  16113 11 000170   000003 630400 12                 EPPR0   3
        11 000171   000017 631400 xsym               EPPR1   B_VECTNIL+15
        11 000172   000000 701000 xent               TSX1    FLI$RPT_ERR
        11 000173   000000 011000                    NOP     0

      152    16114    6                     RETURN;

  16114 11 000174   000000 702200 xent               TSX2  ! X66_ARET

PL6.E3A0      #001=FLW$WHERE File=FLW$WHERE.:E05TSI                              TUE 07/29/97 16:29 Page:21
      153    16115    6                     END;
      154    16116    5                  READ_NEXT_CATALOG.V.KEYS# = '0'B;

  16116 11 000175   000002 236000 12                 LDQ     2
        11 000176   000034 356000 2                  ANSQ    READ_NEXT_CATALOG+8

      155    16117    5                  NAMEL = CAT_KEY.L - LENGTHC(CAT_KEY.PSN) - LENGTHC(CAT_KEY.ACCT)

  16117 11 000177   000000 236000 xsym               LDQ     CAT_KEY
        11 000200   000033 772000                    QRL     27
        11 000201   000020 136007                    SBLQ    16,DL
        11 000202   200011 756100                    STQ     NAMEL,,AUTO

      156    16118    5                    - LENGTHC(CAT_KEY.NAME.L) - LENGTHC(CAT_KEY.VERSION);
      157    16119    5                  VERSION = CAT_KEY3.VERSION(NAMEL+1);

  16119 11 000203   000100 101406                    MRL     fill='000'O
        11 000204   000004 000001 xsym               ADSC9   CAT_KEY+4,Q              cn=0,n=1
        11 000205   200010 000004                    ADSC9   VERSION,,AUTO            cn=0,n=4

      158    16120    5                  CAT_KEY3.VERSION(NAMEL+1) = ASCBIN(' ');

  16120 11 000206   000006 101400                    MRL     fill='000'O
        11 000207   000004 000004 12                 ADSC9   4                        cn=0,n=4
        11 000210   000004 000001 xsym               ADSC9   CAT_KEY+4,Q              cn=0,n=1

      159    16121    5                  CAT_KEY3.VERSION(NAMEL) = ASCBIN(' ');

  16121 11 000211   000006 101400                    MRL     fill='000'O
        11 000212   000004 000004 12                 ADSC9   4                        cn=0,n=4
        11 000213   000003 600001 xsym               ADSC9   CAT_KEY+3,Q              cn=3,n=1

      160    16122    5                  CAT_KEY.NAME.L = NAMEL;

  16122 11 000214   000011 736000                    QLS     9
        11 000215   000013 552010 xsym               STBQ    CAT_KEY+11,'10'O

PL6.E3A0      #001=FLW$WHERE File=FLW$WHERE.:E05TSI                              TUE 07/29/97 16:29 Page:22
      161    16123    5                  CAT_KEY.VERSION = VERSION;

  16123 11 000216   200010 236100                    LDQ     VERSION,,AUTO
        11 000217   000013 552004 xsym               STBQ    CAT_KEY+11,'04'O

      162    16124    5                  IF CAT_KEY.PSN = DPLIST.SN#(DPLISTX)

  16124 11 000220   000000 236000 xsym               LDQ     DPLISTX
        11 000221   000006 402007                    MPY     6,DL
        11 000222   000000 471400 xsym               LDP1    DPLIST$
        11 000223   040106 106400                    CMPC    fill='040'O
        11 000224   000000 200006 xsym               ADSC9   CAT_KEY                  cn=1,n=6
        11 000225   100001 000006                    ADSC9   1,Q,PR1                  cn=0,n=6
        11 000226   000351 601000 11                 TNZ     s:16151
        11 000227   000000 236000 xsym               LDQ     SPECX
        11 000230   000124 402007                    MPY     84,DL
        11 000231   000000 473400 xsym               LDP3    DISK_FILE_SPEC$
        11 000232   040000 106506                    CMPC    fill='040'O
        11 000233   300020 000050                    ADSC9   16,Q,PR3                 cn=0,n=40
        11 000234   000001 600050 xsym               ADSC9   CAT_KEY+1                cn=3,n=40
        11 000235   000351 602000 11                 TNC     s:16151

      163    16125    5                    AND CAT_KEY2.CHARS <= DISK_FILE_SPEC.SPEC.STOPCHARS(SPECX)
      164    16126    6                   THEN DO;

      165    16127    6                     EFTFILE_DCB$->F$DCB.ACCT# = CAT_KEY.ACCT;

  16127 11 000236   000000 474400 xsym               LDP4    EFTFILE_DCB$
        11 000237   040100 100400                    MLR     fill='040'O
        11 000240   000001 600010 xsym               ADSC9   CAT_KEY+1                cn=3,n=8
        11 000241   400020 000010                    ADSC9   16,,PR4                  cn=0,n=8

      166    16128    6                     EFTFILE_DCB$->F$DCB.NAME#.C = CAT_KEY.NAME.C;

  16128 11 000242   040100 100400                    MLR     fill='040'O
        11 000243   000003 600037 xsym               ADSC9   CAT_KEY+3                cn=3,n=31
        11 000244   400010 200037                    ADSC9   8,,PR4                   cn=1,n=31
PL6.E3A0      #001=FLW$WHERE File=FLW$WHERE.:E05TSI                              TUE 07/29/97 16:29 Page:23

      167    16129    6                     EFTFILE_DCB$->F$DCB.NAME#.L = CAT_KEY.NAME.L;

  16129 11 000245   000013 236000 xsym               LDQ     CAT_KEY+11
        11 000246   000022 736000                    QLS     18
        11 000247   400010 552140                    STBQ    8,'40'O,PR4

      168    16130    6                     EFTFILE_DCB$->F$DCB.DESC = CAT_REC.DESC;

  16130 11 000250   000100 100400                    MLR     fill='000'O
        11 000251   000003 200002 xsym               ADSC9   CAT_REC+3                cn=1,n=2
        11 000252   200012 000004                    ADSC9   NAMEL+1,,AUTO            cn=0,n=4
        11 000253   200012 220100                    LDX0    NAMEL+1,,AUTO
        11 000254   400005 440100                    SXL0    5,,PR4

      169    16131    6                     IF CAT_REC.DESC.ODSTOW#

  16131 11 000255   000003 236000 xsym               LDQ     CAT_REC+3
        11 000256   000040 316003                    CANQ    32,DU
        11 000257   000273 600000 11                 TZE     s:16139

      170    16132    7                      THEN DO;

      171    16133    7                        IF CAT_REC.ODCROSS

  16133 11 000260   000200 316007                    CANQ    128,DL
        11 000261   000265 600000 11                 TZE     s:16135

      172    16134    7                         THEN CROSSED = '*';

  16134 11 000262   052000 236003                    LDQ     21504,DU
        11 000263   000000 756000 xsym               STQ     CROSSED
        11 000264   000267 710000 11                 TRA     s:16136

      173    16135    7                         ELSE CROSSED = ' ';

  16135 11 000265   040000 236003                    LDQ     16384,DU
PL6.E3A0      #001=FLW$WHERE File=FLW$WHERE.:E05TSI                              TUE 07/29/97 16:29 Page:24
        11 000266   000000 756000 xsym               STQ     CROSSED

      174    16136    7                        FSN = CAT_REC.ODFSN;

  16136 11 000267   000002 236000 xsym               LDQ     CAT_REC+2
        11 000270   777777 376007                    ANQ     -1,DL
        11 000271   200007 756100                    STQ     FSN,,AUTO

      175    16137    7                        END;

  16137 11 000272   000306 710000 11                 TRA     s:16144

      176    16138    7                      ELSE DO;

      177    16139    7                        IF CAT_REC.LT.CROSS

  16139 11 000273   000002 236000 xsym               LDQ     CAT_REC+2
        11 000274   400000 316007                    CANQ    -131072,DL
        11 000275   000301 600000 11                 TZE     s:16141

      178    16140    7                         THEN CROSSED = '*';

  16140 11 000276   052000 236003                    LDQ     21504,DU
        11 000277   000000 756000 xsym               STQ     CROSSED
        11 000300   000303 710000 11                 TRA     s:16142

      179    16141    7                         ELSE CROSSED = ' ';

  16141 11 000301   040000 236003                    LDQ     16384,DU
        11 000302   000000 756000 xsym               STQ     CROSSED

      180    16142    7                        FSN = CAT_REC.LT.FSN;

  16142 11 000303   000002 236000 xsym               LDQ     CAT_REC+2
        11 000304   037777 376007                    ANQ     16383,DL
        11 000305   200007 756100                    STQ     FSN,,AUTO

PL6.E3A0      #001=FLW$WHERE File=FLW$WHERE.:E05TSI                              TUE 07/29/97 16:29 Page:25
      181    16143    7                        END;

      182    16144    6                     EFTFILE_DCB$->F$DCB.EXPIRE# = CAT_REC.UTS;

  16144 11 000306   000000 235000 xsym               LDA     CAT_REC
        11 000307   400035 755100                    STA     29,,PR4

      183    16145    6                     TEMP = CAT_REC.FITONLY;

  16145 11 000310   000003 236000 xsym               LDQ     CAT_REC+3
        11 000311   000033 736000                    QLS     27
        11 000312   400000 376003                    ANQ     -131072,DU
        11 000313   200004 756100                    STQ     TEMP,,AUTO

      184    16146    6                     CALL FLP$WR_FILE_INFO( EFTFILE_DCB$, ADDR(NIL), CAT_REC.TSN,

  16146 11 000314   000001 236000 xsym               LDQ     B_VECTNIL+1
        11 000315   200012 756100                    STQ     NAMEL+1,,AUTO
        11 000316   200004 635500                    EPPR5   TEMP,,AUTO
        11 000317   200023 455500                    STP5    NAMEL+10,,AUTO
        11 000320   000006 236000 12                 LDQ     6
        11 000321   200022 756100                    STQ     NAMEL+9,,AUTO
        11 000322   000007 236000 12                 LDQ     7
        11 000323   000001 235000 xsym               LDA     B_VECTNIL+1
        11 000324   200020 757100                    STAQ    NAMEL+7,,AUTO
        11 000325   000010 236000 12                 LDQ     8
        11 000326   200017 756100                    STQ     NAMEL+6,,AUTO
        11 000327   200007 636500                    EPPR6   FSN,,AUTO
        11 000330   200016 456500                    STP6    NAMEL+5,,AUTO
        11 000331   000011 236000 12                 LDQ     9
        11 000332   200015 756100                    STQ     NAMEL+4,,AUTO
        11 000333   200012 637500                    EPPR7   NAMEL+1,,AUTO
        11 000334   200014 457500                    STP7    NAMEL+3,,AUTO
        11 000335   000012 236000 12                 LDQ     10
        11 000336   200013 756100                    STQ     NAMEL+2,,AUTO
        11 000337   200013 630500                    EPPR0   NAMEL+2,,AUTO
        11 000340   000005 631400 12                 EPPR1   5
PL6.E3A0      #001=FLW$WHERE File=FLW$WHERE.:E05TSI                              TUE 07/29/97 16:29 Page:26
        11 000341   000000 701000 xent               TSX1    FLP$WR_FILE_INFO
        11 000342   000376 702000 11                 TSX2    ERRRET

      185    16147    6                       FSN, CROSSED, , WHERE_CODE, '1'B, TEMP ) ALTRET( ERRRET );
      186    16148    6                     FOUND = '1'B;

  16148 11 000343   400000 236003                    LDQ     -131072,DU
        11 000344   200003 756100                    STQ     FOUND,,AUTO

      187    16149    6                     CAT_KEY2.CHARS = ' ';

  16149 11 000345   040000 100400                    MLR     fill='040'O
        11 000346   000035 000001 xsym               ADSC9   B_VECTNIL+29             cn=0,n=1
        11 000347   000001 600050 xsym               ADSC9   CAT_KEY+1                cn=3,n=40

      188    16150    6                     END;

  16150 11 000350   000353 710000 11                 TRA     s:16153

      189    16151    5                   ELSE ERR = '1'B;

  16151 11 000351   400000 236003                    LDQ     -131072,DU
        11 000352   200006 756100                    STQ     ERR,,AUTO

      190    16152    5                  END;

      191    16153    4               END;

  16153 11 000353   200006 235100                    LDA     ERR,,AUTO
        11 000354   000076 600000 11                 TZE     s:16082

      192    16154    3            END;

  16154 11 000355   000000 054000 xsym               AOS     SPECX
        11 000356   000000 470400 xsym               LDP0    DISK_FILE_SPEC$
        11 000357   000000 236000 xsym               LDQ     SPECX
        11 000360   000000 116100                    CMPQ    0,,PR0
PL6.E3A0      #001=FLW$WHERE File=FLW$WHERE.:E05TSI                              TUE 07/29/97 16:29 Page:27
        11 000361   000042 604000 11                 TMI     s:16070

      193    16155    2         END;

  16155 11 000362   000000 054000 xsym               AOS     DPLISTX
        11 000363   000000 470400 xsym               LDP0    DPLIST$
        11 000364   000000 236000 xsym               LDQ     DPLISTX
        11 000365   000000 116100                    CMPQ    0,,PR0
        11 000366   000026 604000 11                 TMI     s:16065

      194    16156
      195    16157    1      IF NOT FOUND

  16157 11 000367   200003 234100                    SZN     FOUND,,AUTO
        11 000370   000375 604000 11                 TMI     s:16159

      196    16158    1       THEN CALL FLI$RPT_ERR( E_NOTHING_FOUND );

  16158 11 000371   000013 630400 12                 EPPR0   11
        11 000372   000017 631400 xsym               EPPR1   B_VECTNIL+15
        11 000373   000000 701000 xent               TSX1    FLI$RPT_ERR
        11 000374   000000 011000                    NOP     0

      197    16159    1      RETURN;

  16159 11 000375   000000 702200 xent               TSX2  ! X66_ARET

  16157 11 000376                       ERRRET       null
      198    16160
      199    16161    1   ERRRET: ;
      200    16162    1      COMMAND_ERROR = '1'B;

  16162 11 000376   400000 236003                    LDQ     -131072,DU
        11 000377   000000 756000 xsym               STQ     COMMAND_ERROR

      201    16163    1      RETURN;

PL6.E3A0      #001=FLW$WHERE File=FLW$WHERE.:E05TSI                              TUE 07/29/97 16:29 Page:28
  16163 11 000400   000000 702200 xent               TSX2  ! X66_ARET
      202    16164
      203    16165    1   END FLW$WHERE;

PL6.E3A0      #001=FLW$WHERE File=FLW$WHERE.:E05TSI                              TUE 07/29/97 16:29 Page:29
--  Include file information  --

   FLW_DATA_R.:E05TOU  cannot be made into a system file and is referenced.
   FLS_DATA_R.:E05TOU  cannot be made into a system file and is referenced.
   B_MICROPS_C.:E05TOU  is referenced.
   FLB_SUBS_C.:E05TOU  is referenced.
   FLI_DATA_R.:E05TOU  cannot be made into a system file and is referenced.
   FL_PERR_C.:E05TOU  is referenced.
   FLE_DATA_R.:E05TOU  cannot be made into a system file and is referenced.
   CP_6_C.:E05TOU  is referenced.
   CP_6.:E05TOU  cannot be made into a system file and is referenced.
   B_ERRORS_C.:E05TOU  is referenced.
      No diagnostics issued in procedure FLW$WHERE.
PL6.E3A0      #001=FLW$WHERE File=FLW$WHERE.:E05TSI                              TUE 07/29/97 16:29 Page:30

 **** Variables and constants ****

  ****  Section 002  Data  FLW$WHERE

  ****  Scalars and arrays  ****
OctLoc.c.b A Datatyp(siz) R M Lvl/name                 OctLoc.c.b A Datatyp(siz) R M Lvl/name

    12-0-0/d STRC(360)   r     1 DEL_NODATA_REC            24-0-0/d STRC(504)   r     1 READ_NEXT_CATALOG

  ****  Section 010 RoData FLW$WHERE

  ****  Scalars and arrays  ****
OctLoc.c.b A Datatyp(siz) R M Lvl/name                 OctLoc.c.b A Datatyp(siz) R M Lvl/name

     0-0-0/b STRC        r     1 WHERE_CODE

  ****  Auto variables  ****

  ****  Scalars and arrays  ****
OctLoc.c.b A Datatyp(siz) R M Lvl/name                 OctLoc.c.b A Datatyp(siz) R M Lvl/name

     6-0-0/w STRC        r     1 ERR                        3-0-0/b BIT         r     1 FOUND
     7-0-0/w SBIN        r     1 FSN                        5-0-0/w PTR         r     1 M$CATALOG$
    11-0-0/w SBIN        r     1 NAMEL                      4-0-0/b BIT         r     1 TEMP
    10-0-0/w SBIN        r     1 VERSION

  ****  SYMREF variables  ****

  ****  Scalars and arrays  ****
OctLoc.c.b A Datatyp(siz) R M Lvl/name                 OctLoc.c.b A Datatyp(siz) R M Lvl/name

     0-0-0/c ASTR(9)     r     1 ARCHIVE_NAME               0-0-0/w PTR         r     1 B$TCB$
     0-0-0/c ASTR(9)     r     1 BACKUP_NAME                0-0-0/w PTR         r     1 BLK_TAG$
     0-0-0/w PTR         r     1 BLK_TAG0$                  0-0-0/w PTR         r     1 BLOCK_GRAN$
     0-0-0/w SBIN        r     1 BREAK_COUNT                0-0-0/c STRC(432)   r     1 CAT_KEY
     0-0-0/c STRC(432)   r     1 CAT_KEY2                   0-0-0/c STRC(432)   r     1 CAT_KEY3
     0-0-0/w STRC(144)   r     1 CAT_REC                    0-0-0/b BIT         r     1 COMMAND_ERROR
PL6.E3A0      #001=FLW$WHERE File=FLW$WHERE.:E05TSI                              TUE 07/29/97 16:29 Page:31
     0-0-0/c CHAR        r     1 CROSSED                    0-0-0/w PTR         r     1 DISK_FILE_SPEC$
     0-0-0/w PTR         r     1 DISK_GRAN$                 0-0-0/w PTR         r     1 DPLIST$
     0-0-0/w SBIN        r     1 DPLISTX                    0-0-0/w PTR         r     1 DPRESLIST$
     0-0-0/c ASTR(9)     r     1 DUAL_FILE                  0-0-0/w PTR         r     1 EFTFILE_DCB$
     0-0-0/c ASTR(9)     r     1 EFT_CVOL_FILE              0-0-0/c ASTR(9)     r     1 EFT_RESTRICT_FILE
     0-0-0/w STRC        r     1 E_NOTHING_FOUND            0-0-0/w STRC        r     1 E_NOT_CAT_FILE
     0-0-0/w STRC        r     1 E_NO_CATALOG               0-0-0/w SBIN        r     1 NBR_BYTES_TO_MOVE
     0-0-0/c ASTR(9)     r     1 NODATA_FILE_NAME           0-0-0/c STRC(369)   r     1 NODATA_KEY
     0-0-0/c ASTR(9)     r     1 PRIME_FILE                 0-0-0/c ASTR(9)     r     1 REBUILD_DIR_KEY
     0-0-0/c ASTR(9)     r     1 REBUILD_KEY                0-0-0/c ASTR(9)     r     1 REBUILD_NAME
     0-0-0/c ASTR(9)     r     1 RET_CMDS_NAME              0-0-0/w PTR         r     1 SNVECLIST$
     0-0-0/w SBIN        r     1 SPECX                      0-0-0/w PTR         r     1 TAPE_DCBLIST$
     0-0-0/c ASTR(9)     r     1 TSN_USED_NAME

  ****  BASED and DCB variables  ****

  ****  Scalars and arrays  ****
OctLoc.c.b A Datatyp(siz) R M Lvl/name                 OctLoc.c.b A Datatyp(siz) R M Lvl/name

     0-0-0/w STRC(2448)  r     1 B$ALT                      0-0-0/w STRC(144)   r     1 B$TCB
     0-0-0/w STRC(936)   r     1 DISK_FILE_SPEC             0-0-0/d STRC(90)    r     1 DPLIST
     0-0-0/d ASTR(3528)  r     1 F$DCB                      0-0-0N  NULL        r     1 M$CATALOG
     0-0-0N  NULL        r     1 M$NODATA_LIST


   Procedure FLW$WHERE requires 257 words for executable code.
   Procedure FLW$WHERE requires 20 words of local(AUTO) storage.

    No errors detected in file FLW$WHERE.:E05TSI    .
PL6.E3A0      #001=FLW$WHERE File=FLW$WHERE.:E05TSI                              TUE 07/29/97 16:29 Page:32
          *** CROSS REFERENCE LISTING ***
**     DENOTES     IDENTIFIER DEFINITION
<<                 IDENTIFIER'S VALUE SET
>>                 IDENTIFIER'S VALUE USED
<>                 IDENTIFIER SET AND/OR USED
--                 IDENTIFIER REFERENCED
PL6.E3A0      #001=FLW$WHERE File=FLW$WHERE.:E05TSI                              TUE 07/29/97 16:29 Page:33
          MINI XREF LISTING

ARCHIVE_NAME.L#
     14960**DCL     14960--IMP-SIZ
B$ALT.CODE
     16044**DCL     16044--REDEF   16045--REDEF   16045--REDEF
B$ALT.ERR
     16045**DCL     16084>>ASSIGN  16092>>ASSIGN
B$ALT.ERR.ERR#
     16046**DCL     16046--REDEF
B$ALT.EVID
     16045**DCL     16045--REDEF   16045--REDEF
B$TCB.ALT$
     16040**DCL     16084>>ASSIGN  16092>>ASSIGN
B$TCB$
     13585**DCL     16040--IMP-PTR 16084>>ASSIGN  16092>>ASSIGN
BACKUP_NAME.L#
     14604**DCL     14604--IMP-SIZ
BLK_TAG.NAME
     14096**DCL     14096--REDEF
BLK_TAG$
     14093**DCL     14093--IMP-PTR
BLK_TAG0.NAME
     14102**DCL     14102--REDEF
BLK_TAG0$
     14099**DCL     14099--IMP-PTR
BLOCK_GRAN$
     14106**DCL     14107--IMP-PTR
BREAK_COUNT
     15902**DCL     16106>>IF
CAT_KEY
     15875**DCL     15876--REDEF   15877--REDEF   15955--DCLINIT 15956--DCLINIT
CAT_KEY.ACCT
     15875**DCL     16070<<ASSIGN  16073--ASSIGN  16117--ASSIGN  16127>>ASSIGN
PL6.E3A0      #001=FLW$WHERE File=FLW$WHERE.:E05TSI                              TUE 07/29/97 16:29 Page:34
CAT_KEY.L
     15875**DCL     16073<<ASSIGN  16117>>ASSIGN
CAT_KEY.NAME.C
     15875**DCL     16071<<ASSIGN  16128>>ASSIGN
CAT_KEY.NAME.L
     15875**DCL     16073--ASSIGN  16117--ASSIGN  16122<<ASSIGN  16129>>ASSIGN
CAT_KEY.PSN
     15875**DCL     16065<<ASSIGN  16066>>ASSIGN  16073--ASSIGN  16117--ASSIGN  16124>>IF
CAT_KEY.VERSION
     15875**DCL     16073--ASSIGN  16117--ASSIGN  16123<<ASSIGN
CAT_KEY2.CHARS
     15876**DCL     16089<<ASSIGN  16124>>IF      16149<<ASSIGN
CAT_KEY3.VERSION
     15877**DCL     16075<<ASSIGN  16076<<ASSIGN  16119>>ASSIGN  16120<<ASSIGN  16121<<ASSIGN
CAT_REC
     15877**DCL     15957--DCLINIT 15958--DCLINIT 16111--IF
CAT_REC.DESC
     15879**DCL     16130>>ASSIGN
CAT_REC.DESC.ODSTOW#
     15879**DCL     16131>>IF
CAT_REC.FITONLY
     15880**DCL     16145>>ASSIGN
CAT_REC.LT
     15878**DCL     15878--REDEF
CAT_REC.LT.CROSS
     15878**DCL     16139>>IF
CAT_REC.LT.FSN
     15878**DCL     16142>>ASSIGN
CAT_REC.ODCROSS
     15880**DCL     16133>>IF
CAT_REC.ODFSN
     15878**DCL     16136>>ASSIGN
CAT_REC.TSN
     15878**DCL     16146<>CALL
CAT_REC.UTS
     15877**DCL     16144>>ASSIGN
PL6.E3A0      #001=FLW$WHERE File=FLW$WHERE.:E05TSI                              TUE 07/29/97 16:29 Page:35
CLOSE_NODATA_LIST.SN_
     15758**DCL     15758--REDEF
CLOSE_NODATA_LIST.UTL_
     15759**DCL     15759--REDEF
CLOSE_NODATA_LIST.V.EXPIRE#
     15773**DCL     15773--REDEF
CLOSE_NODATA_LIST.V.TYPE#
     15771**DCL     15771--REDEF
CLOSE_NODATA_LIST.V.XTNSIZE#
     15768**DCL     15768--REDEF   15770--REDEF
CLOSE_PRIME_DUAL.SN_
     15235**DCL     15235--REDEF
CLOSE_PRIME_DUAL.UTL_
     15236**DCL     15236--REDEF
CLOSE_PRIME_DUAL.V.EXPIRE#
     15250**DCL     15250--REDEF
CLOSE_PRIME_DUAL.V.TYPE#
     15248**DCL     15248--REDEF
CLOSE_PRIME_DUAL.V.XTNSIZE#
     15245**DCL     15245--REDEF   15247--REDEF
CLOSE_REBUILD.SN_
     15510**DCL     15510--REDEF
CLOSE_REBUILD.UTL_
     15511**DCL     15511--REDEF
CLOSE_REBUILD.V.EXPIRE#
     15525**DCL     15525--REDEF
CLOSE_REBUILD.V.TYPE#
     15523**DCL     15523--REDEF
CLOSE_REBUILD.V.XTNSIZE#
     15520**DCL     15520--REDEF   15522--REDEF
CLOSE_STATUS.SN_
     14725**DCL     14725--REDEF
CLOSE_STATUS.UTL_
     14726**DCL     14726--REDEF
CLOSE_STATUS.V.EXPIRE#
     14740**DCL     14740--REDEF
PL6.E3A0      #001=FLW$WHERE File=FLW$WHERE.:E05TSI                              TUE 07/29/97 16:29 Page:36
CLOSE_STATUS.V.TYPE#
     14738**DCL     14738--REDEF
CLOSE_STATUS.V.XTNSIZE#
     14735**DCL     14735--REDEF   14737--REDEF
CLOSE_TSN_USED.SN_
     14435**DCL     14435--REDEF
CLOSE_TSN_USED.UTL_
     14436**DCL     14436--REDEF
CLOSE_TSN_USED.V.EXPIRE#
     14450**DCL     14450--REDEF
CLOSE_TSN_USED.V.TYPE#
     14448**DCL     14448--REDEF
CLOSE_TSN_USED.V.XTNSIZE#
     14445**DCL     14445--REDEF   14447--REDEF
COMMAND_ERROR
     13585**DCL     16162<<ASSIGN
CON_CLOSE_ARCHIVE.SN_
     14767**DCL     14767--REDEF
CON_CLOSE_ARCHIVE.UTL_
     14768**DCL     14768--REDEF
CON_CLOSE_ARCHIVE.V.EXPIRE#
     14782**DCL     14782--REDEF
CON_CLOSE_ARCHIVE.V.TYPE#
     14780**DCL     14780--REDEF
CON_CLOSE_ARCHIVE.V.XTNSIZE#
     14777**DCL     14777--REDEF   14779--REDEF
CON_OPEN_ARCHIVE_FILE.ACSVEH_
     14854**DCL     14855--REDEF
CON_OPEN_ARCHIVE_FILE.ALTKEYS_
     14860**DCL     14861--REDEF   14861--REDEF
CON_OPEN_ARCHIVE_FILE.HDR_
     14859**DCL     14860--REDEF
CON_OPEN_ARCHIVE_FILE.TAB_
     14858**DCL     14859--REDEF
CON_OPEN_ARCHIVE_FILE.UHL_
     14852**DCL     14853--REDEF   14853--REDEF
PL6.E3A0      #001=FLW$WHERE File=FLW$WHERE.:E05TSI                              TUE 07/29/97 16:29 Page:37
CON_OPEN_ARCHIVE_FILE.V.FSN#
     14892**DCL     14892--REDEF   14892--REDEF
CON_OPEN_ARCHIVE_FILE.WSN_
     14858**DCL     14858--REDEF
CON_READ_ARCHIVE_FILE.STATION_
     14916**DCL     14917--REDEF
CON_READ_ARCHIVE_FILE.V.DVBYTE.REREAD#
     14928**DCL     14928--REDEF
CON_READ_ARCHIVE_FILE.V.INDX#
     14926**DCL     14926--REDEF
CROSSED
     14128**DCL     16134<<ASSIGN  16135<<ASSIGN  16140<<ASSIGN  16141<<ASSIGN  16146<>CALL
CVOL_UTL.ULBL#
     14195**DCL     14195--REDEF
DEL_NODATA_REC.V
     15861**DCL     15858--DCLINIT
DISK_CLOSE.SN_
     13265**DCL     13265--REDEF
DISK_CLOSE.UTL_
     13266**DCL     13266--REDEF
DISK_CLOSE.V.EXPIRE#
     13280**DCL     13280--REDEF
DISK_CLOSE.V.TYPE#
     13278**DCL     13278--REDEF
DISK_CLOSE.V.XTNSIZE#
     13275**DCL     13275--REDEF   13277--REDEF
DISK_FILE_SPEC.NBR
     13630**DCL     16068>>DOINDEX
DISK_FILE_SPEC.SPEC
     13630**DCL     13632--REDEF
DISK_FILE_SPEC.SPEC.START
     13631**DCL     13631--REDEF
DISK_FILE_SPEC.SPEC.START.ACCT.ACCT#
     13631**DCL     16070>>ASSIGN
DISK_FILE_SPEC.SPEC.START.FILE.L#
     13631**DCL     16072>>ASSIGN
PL6.E3A0      #001=FLW$WHERE File=FLW$WHERE.:E05TSI                              TUE 07/29/97 16:29 Page:38
DISK_FILE_SPEC.SPEC.START.FILE.NAME#
     13631**DCL     16071>>ASSIGN
DISK_FILE_SPEC.SPEC.STOP
     13632**DCL     13632--REDEF
DISK_FILE_SPEC.SPEC.STOPCHARS
     13632**DCL     16124>>IF
DISK_FILE_SPEC$
     13629**DCL     13630--IMP-PTR 16068>>DOINDEX 16070>>ASSIGN  16071>>ASSIGN  16072>>ASSIGN  16124>>IF
DISK_GRAN$
     14106**DCL     14106--IMP-PTR
DISK_OPEN.ACSVEH_
     13130**DCL     13131--REDEF
DISK_OPEN.ALTKEYS_
     13136**DCL     13137--REDEF   13137--REDEF
DISK_OPEN.HDR_
     13135**DCL     13136--REDEF
DISK_OPEN.TAB_
     13134**DCL     13135--REDEF
DISK_OPEN.UHL_
     13128**DCL     13129--REDEF   13129--REDEF
DISK_OPEN.V.FSN#
     13168**DCL     13168--REDEF   13168--REDEF
DISK_OPEN.WSN_
     13134**DCL     13134--REDEF
DISK_READ.STATION_
     13192**DCL     13193--REDEF
DISK_READ.V.DVBYTE.REREAD#
     13204**DCL     13204--REDEF
DISK_READ.V.INDX#
     13202**DCL     13202--REDEF
DISK_WRITE.STATION_
     13230**DCL     13230--REDEF
DISK_WRITE.V.DVBYTE.VFC#
     13237**DCL     13237--REDEF
DPLIST.NUM#
     13627**DCL     16063>>DOINDEX
PL6.E3A0      #001=FLW$WHERE File=FLW$WHERE.:E05TSI                              TUE 07/29/97 16:29 Page:39
DPLIST.SN#
     13627**DCL     16065>>ASSIGN  16124>>IF
DPLIST$
     13615**DCL     13627--IMP-PTR 16063>>DOINDEX 16065>>ASSIGN  16124>>IF
DPLISTX
     13751**DCL     16063<<DOINDEX 16065>>ASSIGN  16124>>IF
DPRESLIST$
     13629**DCL     13629--IMP-PTR
DUAL_FILE.L#
     15031**DCL     15031--IMP-SIZ
EFTFILE_DCB$
     14128**DCL     16066>>ASSIGN  16127>>ASSIGN  16128>>ASSIGN  16129>>ASSIGN  16130>>ASSIGN  16144>>ASSIGN
     16146<>CALL
EFTWORD
     13750**DCL     13750--REDEF
EFT_CVOL_FILE.L#
     14155**DCL     14155--IMP-SIZ
EFT_RESTRICT_FILE.L#
     14182**DCL     14182--IMP-SIZ
ERR
     15911**DCL     16079<<ASSIGN  16081>>DOWHILE 16084<<ASSIGN  16087<<ASSIGN  16092<<ASSIGN  16109>>IF
     16151<<ASSIGN
ERR.CODE
     15915**DCL     16085>>IF      16093>>IF      16097>>IF      16099>>IF
ERRRET
     16157**LABEL   16146--CALLALT
E_NOTHING_FOUND
      9875**DCL     16158<>CALL
E_NOT_CAT_FILE
      9830**DCL     16100<>CALL    16113<>CALL
E_NO_CATALOG
      9785**DCL     16056<>CALL
F$DCB.ACCT#
     15999**DCL     16127<<ASSIGN
F$DCB.ACTPOS
     16015**DCL     16015--REDEF
PL6.E3A0      #001=FLW$WHERE File=FLW$WHERE.:E05TSI                              TUE 07/29/97 16:29 Page:40
F$DCB.ARS#
     15989**DCL     15989--REDEF   16111>>IF
F$DCB.ATTR
     16008**DCL     16009--REDEF
F$DCB.BORROW
     16023**DCL     16023--REDEF   16023--REDEF   16023--REDEF
F$DCB.DCBNAME.L
     16037**DCL     16037--IMP-SIZ
F$DCB.DESC
     15996**DCL     16130<<ASSIGN
F$DCB.EOMCHAR#
     15993**DCL     15993--REDEF
F$DCB.EXPIRE#
     16006**DCL     16144<<ASSIGN
F$DCB.FCD#
     16002**DCL     16054>>IF
F$DCB.FLDID
     16018**DCL     16018--REDEF
F$DCB.FORM$
     16012**DCL     16012--REDEF
F$DCB.FSECT
     16028**DCL     16028--REDEF
F$DCB.FSN#
     16005**DCL     16005--REDEF   16005--REDEF   16006--REDEF
F$DCB.HEADER$
     16011**DCL     16011--REDEF
F$DCB.IXTNSIZE#
     16009**DCL     16009--REDEF
F$DCB.LASTSTA$
     15998**DCL     15998--REDEF
F$DCB.LVL
     16024**DCL     16024--REDEF
F$DCB.NAME#.C
     15999**DCL     15999--REDEF   16128<<ASSIGN
F$DCB.NAME#.L
     15999**DCL     16129<<ASSIGN
PL6.E3A0      #001=FLW$WHERE File=FLW$WHERE.:E05TSI                              TUE 07/29/97 16:29 Page:41
F$DCB.NOEOF
     16021**DCL     16021--REDEF
F$DCB.NRECS#
     16010**DCL     16010--REDEF
F$DCB.NRECX
     16029**DCL     16029--REDEF
F$DCB.OHDR
     16021**DCL     16021--REDEF
F$DCB.ORG#
     16004**DCL     16004--REDEF
F$DCB.PRECNO
     16027**DCL     16027--REDEF
F$DCB.PSN#
     15999**DCL     16066<<ASSIGN
F$DCB.RCSZ
     16033**DCL     16033--REDEF
F$DCB.RES#
     16000**DCL     16000--REDEF
F$DCB.SETX
     16012**DCL     16012--REDEF
F$DCB.TAB$
     16012**DCL     16012--REDEF
F$DCB.TDA
     16026**DCL     16027--REDEF
F$DCB.WSN#
     16000**DCL     16000--REDEF
FIT_AREA.W2
     14466**DCL     14467--REDEF
FLI$RPT_ERR
     15887**DCL-ENT 16056--CALL    16094--CALL    16100--CALL    16101--CALL    16113--CALL    16158--CALL
FLP$WR_FILE_INFO
     15888**DCL-ENT 16060--CALL    16146--CALL
FOUND
     15908**DCL     16061<<ASSIGN  16148<<ASSIGN  16157>>IF
FPT_EXIT.V.STEPCC#
     13055**DCL     13055--REDEF
PL6.E3A0      #001=FLW$WHERE File=FLW$WHERE.:E05TSI                              TUE 07/29/97 16:29 Page:42
FSN
     15917**DCL     16136<<ASSIGN  16142<<ASSIGN  16146<>CALL
M$CATALOG
     15895**DCL     16053--ASSIGN
M$CATALOG$
     15910**DCL     15983--IMP-PTR 16053<<ASSIGN  16054>>IF      16111>>IF
M$READ
      6632**DCL-ENT 16082--CALL    16090--CALL
NAMEL
     15919**DCL     16072<<ASSIGN  16073>>ASSIGN  16075>>ASSIGN  16075>>ASSIGN  16076>>ASSIGN  16117<<ASSIGN
     16119>>ASSIGN  16120>>ASSIGN  16121>>ASSIGN  16122>>ASSIGN
NBR_BYTES_TO_MOVE
     14105**DCL     14106--IMP-SIZ 14107--IMP-SIZ
NODATA_FILE_NAME.L#
     15720**DCL     15720--IMP-SIZ
NODATA_KEY
     15866**DCL     15858--DCLINIT 15859--DCLINIT
OPEN_NODATA_LIST.ACSVEH_
     15653**DCL     15654--REDEF
OPEN_NODATA_LIST.ALTKEYS_
     15659**DCL     15660--REDEF   15660--REDEF
OPEN_NODATA_LIST.HDR_
     15658**DCL     15659--REDEF
OPEN_NODATA_LIST.TAB_
     15657**DCL     15658--REDEF
OPEN_NODATA_LIST.UHL_
     15651**DCL     15652--REDEF   15652--REDEF
OPEN_NODATA_LIST.V.FSN#
     15691**DCL     15691--REDEF   15691--REDEF
OPEN_NODATA_LIST.WSN_
     15657**DCL     15657--REDEF
OPEN_PRIME_DUAL.ACSVEH_
     15100**DCL     15101--REDEF
OPEN_PRIME_DUAL.ALTKEYS_
     15106**DCL     15107--REDEF   15107--REDEF
OPEN_PRIME_DUAL.HDR_
PL6.E3A0      #001=FLW$WHERE File=FLW$WHERE.:E05TSI                              TUE 07/29/97 16:29 Page:43
     15105**DCL     15106--REDEF
OPEN_PRIME_DUAL.TAB_
     15104**DCL     15105--REDEF
OPEN_PRIME_DUAL.UHL_
     15098**DCL     15099--REDEF   15099--REDEF
OPEN_PRIME_DUAL.V.FSN#
     15138**DCL     15138--REDEF   15138--REDEF
OPEN_PRIME_DUAL.WSN_
     15104**DCL     15104--REDEF
OPEN_REBUILD.ACSVEH_
     15335**DCL     15336--REDEF
OPEN_REBUILD.ALTKEYS_
     15341**DCL     15342--REDEF   15342--REDEF
OPEN_REBUILD.HDR_
     15340**DCL     15341--REDEF
OPEN_REBUILD.TAB_
     15339**DCL     15340--REDEF
OPEN_REBUILD.UHL_
     15333**DCL     15334--REDEF   15334--REDEF
OPEN_REBUILD.V.FSN#
     15373**DCL     15373--REDEF   15373--REDEF
OPEN_REBUILD.WSN_
     15339**DCL     15339--REDEF
OPEN_STATUS.ACSVEH_
     14537**DCL     14538--REDEF
OPEN_STATUS.ALTKEYS_
     14543**DCL     14544--REDEF   14544--REDEF
OPEN_STATUS.HDR_
     14542**DCL     14543--REDEF
OPEN_STATUS.TAB_
     14541**DCL     14542--REDEF
OPEN_STATUS.UHL_
     14535**DCL     14536--REDEF   14536--REDEF
OPEN_STATUS.V.FSN#
     14575**DCL     14575--REDEF   14575--REDEF
OPEN_STATUS.WSN_
PL6.E3A0      #001=FLW$WHERE File=FLW$WHERE.:E05TSI                              TUE 07/29/97 16:29 Page:44
     14541**DCL     14541--REDEF
OPEN_TSN_USED.ACSVEH_
     14273**DCL     14274--REDEF
OPEN_TSN_USED.ALTKEYS_
     14279**DCL     14280--REDEF   14280--REDEF
OPEN_TSN_USED.HDR_
     14278**DCL     14279--REDEF
OPEN_TSN_USED.TAB_
     14277**DCL     14278--REDEF
OPEN_TSN_USED.UHL_
     14271**DCL     14272--REDEF   14272--REDEF
OPEN_TSN_USED.V.FSN#
     14311**DCL     14311--REDEF   14311--REDEF
OPEN_TSN_USED.WSN_
     14277**DCL     14277--REDEF
PRE_RET_CLOSE.SN_
     13993**DCL     13993--REDEF
PRE_RET_CLOSE.UTL_
     13994**DCL     13994--REDEF
PRE_RET_CLOSE.V.EXPIRE#
     14008**DCL     14008--REDEF
PRE_RET_CLOSE.V.TYPE#
     14006**DCL     14006--REDEF
PRE_RET_CLOSE.V.XTNSIZE#
     14003**DCL     14003--REDEF   14005--REDEF
PRE_RET_OPEN.ACSVEH_
     13928**DCL     13929--REDEF
PRE_RET_OPEN.ALTKEYS_
     13934**DCL     13935--REDEF   13935--REDEF
PRE_RET_OPEN.HDR_
     13933**DCL     13934--REDEF
PRE_RET_OPEN.TAB_
     13932**DCL     13933--REDEF
PRE_RET_OPEN.UHL_
     13926**DCL     13927--REDEF   13927--REDEF
PRE_RET_OPEN.V.FSN#
PL6.E3A0      #001=FLW$WHERE File=FLW$WHERE.:E05TSI                              TUE 07/29/97 16:29 Page:45
     13966**DCL     13966--REDEF   13966--REDEF
PRE_RET_OPEN.WSN_
     13932**DCL     13932--REDEF
PRE_RET_READ.STATION_
     13783**DCL     13784--REDEF
PRE_RET_READ.V.DVBYTE.REREAD#
     13795**DCL     13795--REDEF
PRE_RET_READ.V.INDX#
     13793**DCL     13793--REDEF
PRE_RET_WRITE.STATION_
     13821**DCL     13821--REDEF
PRE_RET_WRITE.V.DVBYTE.VFC#
     13828**DCL     13828--REDEF
PRIME_FILE.L#
     15004**DCL     15004--IMP-SIZ
READ_NEXT_CATALOG
     15955**DCL     16082<>CALL    16090<>CALL
READ_NEXT_CATALOG.STATION_
     15958**DCL     15959--REDEF
READ_NEXT_CATALOG.V
     15959**DCL     15955--DCLINIT
READ_NEXT_CATALOG.V.DVBYTE.REREAD#
     15970**DCL     15970--REDEF
READ_NEXT_CATALOG.V.INDX#
     15968**DCL     15968--REDEF
READ_NEXT_CATALOG.V.KEYS#
     15960**DCL     16078<<ASSIGN  16088<<ASSIGN  16116<<ASSIGN
READ_NODATA_LIST.STATION_
     15797**DCL     15798--REDEF
READ_NODATA_LIST.V.DVBYTE.REREAD#
     15809**DCL     15809--REDEF
READ_NODATA_LIST.V.INDX#
     15807**DCL     15807--REDEF
READ_PRIME_DUAL.STATION_
     15162**DCL     15163--REDEF
READ_PRIME_DUAL.V.DVBYTE.REREAD#
PL6.E3A0      #001=FLW$WHERE File=FLW$WHERE.:E05TSI                              TUE 07/29/97 16:29 Page:46
     15174**DCL     15174--REDEF
READ_PRIME_DUAL.V.INDX#
     15172**DCL     15172--REDEF
READ_REBUILD.STATION_
     15468**DCL     15469--REDEF
READ_REBUILD.V.DVBYTE.REREAD#
     15480**DCL     15480--REDEF
READ_REBUILD.V.INDX#
     15478**DCL     15478--REDEF
READ_STATUS.STATION_
     14683**DCL     14684--REDEF
READ_STATUS.V.DVBYTE.REREAD#
     14695**DCL     14695--REDEF
READ_STATUS.V.INDX#
     14693**DCL     14693--REDEF
READ_TSN_USED.STATION_
     14393**DCL     14394--REDEF
READ_TSN_USED.V.DVBYTE.REREAD#
     14405**DCL     14405--REDEF
READ_TSN_USED.V.INDX#
     14403**DCL     14403--REDEF
REBUILD_DIR_KEY.L#
     15554**DCL     15554--IMP-SIZ
REBUILD_KEY.L#
     15581**DCL     15581--IMP-SIZ
REBUILD_NAME.L#
     15402**DCL     15402--IMP-SIZ
RET_CMDS_NAME.L#
     14037**DCL     14037--IMP-SIZ
SNVECLIST$
     13569**DCL     13569--IMP-PTR
SPEC.START
     13633**DCL     13634--REDEF
SPEC.STOP
     13634**DCL     13635--REDEF
SPECCHARS
PL6.E3A0      #001=FLW$WHERE File=FLW$WHERE.:E05TSI                              TUE 07/29/97 16:29 Page:47
     13633**DCL     13633--REDEF
SPECX
     13751**DCL     16068<<DOINDEX 16070>>ASSIGN  16071>>ASSIGN  16072>>ASSIGN  16124>>IF
TAPE_BLOCK_.W2
     14121**DCL     14122--REDEF
TAPE_CLOSE.SN_
     13486**DCL     13486--REDEF
TAPE_CLOSE.UTL_
     13487**DCL     13487--REDEF
TAPE_CLOSE.V.EXPIRE#
     13501**DCL     13501--REDEF
TAPE_CLOSE.V.TYPE#
     13499**DCL     13499--REDEF
TAPE_CLOSE.V.XTNSIZE#
     13496**DCL     13496--REDEF   13498--REDEF
TAPE_DCBLIST$
     13042**DCL     13042--IMP-PTR
TAPE_OPEN.ACSVEH_
     13351**DCL     13352--REDEF
TAPE_OPEN.ALTKEYS_
     13357**DCL     13358--REDEF   13358--REDEF
TAPE_OPEN.HDR_
     13356**DCL     13357--REDEF
TAPE_OPEN.TAB_
     13355**DCL     13356--REDEF
TAPE_OPEN.UHL_
     13349**DCL     13350--REDEF   13350--REDEF
TAPE_OPEN.V.FSN#
     13389**DCL     13389--REDEF   13389--REDEF
TAPE_OPEN.WSN_
     13355**DCL     13355--REDEF
TAPE_READ.STATION_
     13413**DCL     13414--REDEF
TAPE_READ.V.DVBYTE.REREAD#
     13425**DCL     13425--REDEF
TAPE_READ.V.INDX#
PL6.E3A0      #001=FLW$WHERE File=FLW$WHERE.:E05TSI                              TUE 07/29/97 16:29 Page:48
     13423**DCL     13423--REDEF
TAPE_WRITE.STATION_
     13451**DCL     13451--REDEF
TAPE_WRITE.V.DVBYTE.VFC#
     13458**DCL     13458--REDEF
TEMP
     15909**DCL     16145<<ASSIGN  16146<>CALL
TSN_USED_NAME.L#
     14340**DCL     14340--IMP-SIZ
TVECTOR.W2
     13582**DCL     13583--REDEF
VERSION
     15918**DCL     16119<<ASSIGN  16123>>ASSIGN
WHERE_CODE
     15925**DCL     16146<>CALL
WRITE_NODATA_LIST.STATION_
     15835**DCL     15835--REDEF
WRITE_NODATA_LIST.V.DVBYTE.VFC#
     15842**DCL     15842--REDEF
WRITE_PRIME_DUAL.STATION_
     15200**DCL     15200--REDEF
WRITE_PRIME_DUAL.V.DVBYTE.VFC#
     15207**DCL     15207--REDEF
WRITE_REBUILD.STATION_
     15436**DCL     15436--REDEF
WRITE_REBUILD.V.DVBYTE.VFC#
     15443**DCL     15443--REDEF
WRITE_STATUS.STATION_
     14651**DCL     14651--REDEF
WRITE_STATUS.V.DVBYTE.VFC#
     14658**DCL     14658--REDEF
WRITE_TSN_USED.STATION_
     14361**DCL     14361--REDEF
WRITE_TSN_USED.V.DVBYTE.VFC#
     14368**DCL     14368--REDEF
