VERSION E05

PL6.E3A0      #001=FLW_DATA_D File=FLW_DATA_D.:E05TSI                            TUE 07/29/97 16:32 Page:1
        1        1        /*T***********************************************************/
        2        2        /*T*                                                         */
        3        3        /*T* Copyright (c) Bull HN Information Systems Inc., 1997    */
        4        4        /*T*                                                         */
        5        5        /*T***********************************************************/
        6        6        FLW_DATA_D: PROC NOAUTO;
        7        7
        8        8    1   DCL 1 CAT_KEY STATIC SYMDEF,
        9        9    1         2 L UBIN BYTE CALIGNED,
       10       10    1         2 PSN CHAR(6),
       11       11    1         2 ACCT CHAR(8),
       12       12    1         2 NAME CALIGNED,
       13       13    1           3 C CHAR(31), /* In actual use, trailing blanks are removed */
       14       14    1           3 L UBIN BYTE CALIGNED,
       15       15    1         2 VERSION UBIN BYTE CALIGNED;
       16       16           /* If there are many versions (>33), VERSION could conceivably
       17       17              cause confusion in key order.  For example, if two files are
       18       18              named X and X$, X might sort higher than X$ when VERSION is
       19       19              greater than the ASCII code for '$'.  The inclusion of NAME.L
       20       20              should eliminate this possibility. */
       21       21
       22       22    1   DCL 1 CAT_KEY2 REDEF CAT_KEY,
       23       23    1         2 * UBIN BYTE CALIGNED,
       24       24    1         2 * CHAR(6),
       25       25    1         2 CHARS CHAR(40),
       26       26    1         2 * UBIN BYTE CALIGNED;
       27       27
       28       28    1   DCL 1 CAT_KEY3 REDEF CAT_KEY,
       29       29    1         2 * UBIN BYTE CALIGNED,
       30       30    1         2 * CHAR(6),
       31       31    1         2 * CHAR(8),
       32       32    1         2 VERSION(0:32) UBIN BYTE CALIGNED;
       33       33
       34       34    1   DCL 1 CAT_REC STATIC SYMDEF,
       35       35    1         2 UTS UBIN WORD,
       36       36    1         2 TSN CHAR(6),
       37       37    1         2 LT,
PL6.E3A0      #001=FLW_DATA_D File=FLW_DATA_D.:E05TSI                            TUE 07/29/97 16:32 Page:2
       38       38    1           3 CROSS BIT(1),
       39       39    1           3 * BIT(3) INIT('0'B),
       40       40    1           3 FSN UBIN(14) UNAL,
       41       41    1         2 ODFSN REDEF LT UBIN(18) UNAL,
       42       42    1         2 VERSION UBIN BYTE CALIGNED,
       43       43    1         2 DESC,
       44       44    1           3 DELF# BIT(1),
       45       45    1           3 NOLIST# BIT(1),
       46       46    1           3 BUF# BIT(1),
       47       47    1           3 ODSTOW# BIT(1),
       48       48    1           3 BAD# BIT(1),
       49       49    1           3 QS# BIT(1),
       50       50    1           3 * BIT(2),
       51       51    1           3 ARCHIVE# BIT(1),
       52       52    1           3 BUPM# BIT(1),
       53       53    1           3 NBUF# BIT(1),
       54       54    1           3 ACTIVE# BIT(1),
       55       55    1           3 TPB# BIT(1),
       56       56    1           3 TERMINATE# BIT(1),
       57       57    1           3 FETCH# BIT(1),
       58       58    1           3 * BIT(3),
       59       59    1         2 FITONLY BIT(1),
       60       60    1         2 ODCROSS BIT(1),
       61       61    1         2 * BIT(7) INIT('0'B);
       62       62
       63       63    1   DCL CATALOG_ON BIT(1) STATIC SYMDEF;
       64       64    1   DCL CATALOG_ONTO BIT(1) STATIC SYMDEF;
       65       65
       66       66    1   END FLW_DATA_D;

PL6.E3A0      #001=FLW_DATA_D File=FLW_DATA_D.:E05TSI                            TUE 07/29/97 16:32 Page:3
      No diagnostics issued in procedure FLW_DATA_D.

   No code generated for procedure FLW_DATA_D .
   Procedure FLW_DATA_D is declared NOAUTO and requires 20 words of local(STATIC) storage.

    No errors detected in file FLW_DATA_D.:E05TSI    .

PL6.E3A0      #001=FLW_DATA_D File=FLW_DATA_D.:E05TSI                            TUE 07/29/97 16:32 Page:4

 Object Unit name= FLW_DATA_D                                 File name= FLW_DATA_D.:E05TOU
 UTS= JUL 29 '97 16:32:35.20 TUE                              Compiler= PL-6/E31         Sev=      00
 SharedLib= :SHARED_SYSTEM                                    Alt SharedLib=


    ****  Control sections  ****

 Sect   Type Bound  Init  Size OctSiz  Section name(segment info)
    0   Data  even  none    20     24  FLW_DATA_D
    1   Proc  even  none     0      0  FLW_DATA_D

    ****  Entry defs  ****

                              Check   Calling
                             calling  sequence
  Sect OctLoc Primary Altret sequence   type   Parms  Name
     1      0   yes            yes     ~proc       0  FLW_DATA_D

  ****  Data defs  ****

 Sect OctLoc  Name                           Sect OctLoc  Name
    0      1  CAT_KEY                            0     15  CAT_REC
    0     21  CATALOG_ON                         0     22  CATALOG_ONTO
PL6.E3A0      #001=FLW_DATA_D File=FLW_DATA_D.:E05TSI                            TUE 07/29/97 16:32 Page:5

        1        1        /*T***********************************************************/
        2        2        /*T*                                                         */
        3        3        /*T* Copyright (c) Bull HN Information Systems Inc., 1997    */
        4        4        /*T*                                                         */
        5        5        /*T***********************************************************/
        6        6        FLW_DATA_D: PROC NOAUTO;
        7        7
        8        8    1   DCL 1 CAT_KEY STATIC SYMDEF,
        9        9    1         2 L UBIN BYTE CALIGNED,
       10       10    1         2 PSN CHAR(6),
       11       11    1         2 ACCT CHAR(8),
       12       12    1         2 NAME CALIGNED,
       13       13    1           3 C CHAR(31), /* In actual use, trailing blanks are removed */
       14       14    1           3 L UBIN BYTE CALIGNED,
       15       15    1         2 VERSION UBIN BYTE CALIGNED;
       16       16           /* If there are many versions (>33), VERSION could conceivably
       17       17              cause confusion in key order.  For example, if two files are
       18       18              named X and X$, X might sort higher than X$ when VERSION is
       19       19              greater than the ASCII code for '$'.  The inclusion of NAME.L
       20       20              should eliminate this possibility. */
       21       21
       22       22    1   DCL 1 CAT_KEY2 REDEF CAT_KEY,
       23       23    1         2 * UBIN BYTE CALIGNED,
       24       24    1         2 * CHAR(6),
       25       25    1         2 CHARS CHAR(40),
       26       26    1         2 * UBIN BYTE CALIGNED;
       27       27
       28       28    1   DCL 1 CAT_KEY3 REDEF CAT_KEY,
       29       29    1         2 * UBIN BYTE CALIGNED,
       30       30    1         2 * CHAR(6),
       31       31    1         2 * CHAR(8),
       32       32    1         2 VERSION(0:32) UBIN BYTE CALIGNED;
       33       33
       34       34    1   DCL 1 CAT_REC STATIC SYMDEF,
       35       35    1         2 UTS UBIN WORD,
       36       36    1         2 TSN CHAR(6),
       37       37    1         2 LT,
PL6.E3A0      #001=FLW_DATA_D File=FLW_DATA_D.:E05TSI                            TUE 07/29/97 16:32 Page:6
       38       38    1           3 CROSS BIT(1),
       39       39    1           3 * BIT(3) INIT('0'B),
       40       40    1           3 FSN UBIN(14) UNAL,
       41       41    1         2 ODFSN REDEF LT UBIN(18) UNAL,
       42       42    1         2 VERSION UBIN BYTE CALIGNED,
       43       43    1         2 DESC,
       44       44    1           3 DELF# BIT(1),
       45       45    1           3 NOLIST# BIT(1),
       46       46    1           3 BUF# BIT(1),
       47       47    1           3 ODSTOW# BIT(1),
       48       48    1           3 BAD# BIT(1),
       49       49    1           3 QS# BIT(1),
       50       50    1           3 * BIT(2),
       51       51    1           3 ARCHIVE# BIT(1),
       52       52    1           3 BUPM# BIT(1),
       53       53    1           3 NBUF# BIT(1),
       54       54    1           3 ACTIVE# BIT(1),
       55       55    1           3 TPB# BIT(1),
       56       56    1           3 TERMINATE# BIT(1),
       57       57    1           3 FETCH# BIT(1),
       58       58    1           3 * BIT(3),
       59       59    1         2 FITONLY BIT(1),
       60       60    1         2 ODCROSS BIT(1),
       61       61    1         2 * BIT(7) INIT('0'B);
       62       62
       63       63    1   DCL CATALOG_ON BIT(1) STATIC SYMDEF;
       64       64    1   DCL CATALOG_ONTO BIT(1) STATIC SYMDEF;
       65       65
       66       66    1   END FLW_DATA_D;

PL6.E3A0      #001=FLW_DATA_D File=FLW_DATA_D.:E05TSI                            TUE 07/29/97 16:32 Page:7
      No diagnostics issued in procedure FLW_DATA_D.
PL6.E3A0      #001=FLW_DATA_D File=FLW_DATA_D.:E05TSI                            TUE 07/29/97 16:32 Page:8

 **** Variables and constants ****


   No code generated for procedure FLW_DATA_D .
   Procedure FLW_DATA_D is declared NOAUTO and requires 20 words of local(STATIC) storage.

    No errors detected in file FLW_DATA_D.:E05TSI    .
PL6.E3A0      #001=FLW_DATA_D File=FLW_DATA_D.:E05TSI                            TUE 07/29/97 16:32 Page:9
          *** CROSS REFERENCE LISTING ***
**     DENOTES     IDENTIFIER DEFINITION
<<                 IDENTIFIER'S VALUE SET
>>                 IDENTIFIER'S VALUE USED
<>                 IDENTIFIER SET AND/OR USED
--                 IDENTIFIER REFERENCED
PL6.E3A0      #001=FLW_DATA_D File=FLW_DATA_D.:E05TSI                            TUE 07/29/97 16:32 Page:10
          MINI XREF LISTING

CAT_KEY
         8**DCL        22--REDEF      28--REDEF
CAT_REC.LT
        37**DCL        41--REDEF
