PL6.E3A0      #002=FLX$ARCOM_BRK File=FLX$ARCOM.:E05TSI                          TUE 07/29/97 16:38 Page:452
     3104        1        /*T***********************************************************/
     3105        2        /*T*                                                         */
     3106        3        /*T* Copyright (c) Bull HN Information Systems Inc., 1997    */
     3107        4        /*T*                                                         */
     3108        5        /*T***********************************************************/
     3109        6        FLX$ARCOM_BRK: PROC ASYNC;
     3110        7        /*F*  NAME: FLX$ARCOM_BRK
     3111        8              PURPOSE: Break handling routine.
     3112        9        */
     3113       10
     3114       11         /***
     3115       12          *** INCLUDE
     3116       13          ***/
     3117       14
     3118       15        %INCLUDE CP_6;
     3119     5574
     3120     5575         /***
     3121     5576          *** DCB
     3122     5577          ***/
     3123     5578
     3124     5579    1   DCL M$LO DCB;
     3125     5580
     3126     5581         /***
     3127     5582          *** SYMREF
     3128     5583          ***/
     3129     5584
     3130     5585    1   DCL BREAK_COUNT SBIN SYMREF;
     3131     5586    1   DCL BREAK_DCB$ PTR SYMREF;
     3132     5587    1   DCL BREAK_TASK CHAR(18) SYMREF;
     3133     5588
     3134     5589         /***
     3135     5590          *** STATIC
     3136     5591          ***/
     3137     5592
     3138     5593    1   DCL 1 BRK_MSG STATIC,
     3139     5594    1         2 * CHAR(0) INIT('...'),
     3140     5595    1         2 TASK CHAR(18),
PL6.E3A0      #002=FLX$ARCOM_BRK File=FLX$ARCOM.:E05TSI                          TUE 07/29/97 16:38 Page:453
     3141     5596    1         2 * CHAR(0) INIT(' '),
     3142     5597    1         2 INFOCHARS CHAR(18),
     3143     5598    1         2 INFO REDEF INFOCHARS,
     3144     5599    1           3 DP# CHAR(3),
     3145     5600    1           3 PSN CHAR(6),
     3146     5601    1           3 DOT CHAR(1),
     3147     5602    1           3 ACCT CHAR(8);
     3148     5603
     3149     5604         /***
     3150     5605          *** FPT
     3151     5606          ***/
     3152     5607
     3153     5608        %FPT_TRMPRG(FPTN = FPT_TRMPRG,
     3154     5609                    RSTBRK = YES,
     3155     5610                    STCLASS=CONSTANT );
     3156     5639
     3157     5640        %FPT_WRITE(FPTN = FPT_WRITE,
     3158     5641                   DCB = M$LO,
     3159     5642                   BUF = BRK_MSG,
     3160     5643                          STCLASS=CONSTANT );
     3161     5674
     3162     5675         /***
     3163     5676          *** BASED
     3164     5677          ***/
     3165     5678
     3166     5679        %F$DCB( BASED="BASED(BREAK_DCB$)" );
     3167     5736
     3168     5737        /****************************************/
     3169     5738
     3170     5739    1      BREAK_COUNT = BREAK_COUNT + 1;
     3171     5740    1      IF BREAK_DCB$ ~= ADDR(NIL)
     3172     5741    2       THEN DO;
     3173     5742    2         BRK_MSG.INFO.PSN = F$DCB.PSN#;
     3174     5743    2         BRK_MSG.INFO.ACCT = F$DCB.ACCT#;
     3175     5744    2         BRK_MSG.INFO.DP# = 'DP#';
     3176     5745    2         BRK_MSG.INFO.DOT = '.';
     3177     5746    2         END;
PL6.E3A0      #002=FLX$ARCOM_BRK File=FLX$ARCOM.:E05TSI                          TUE 07/29/97 16:38 Page:454
     3178     5747    2       ELSE DO;
     3179     5748    2         BRK_MSG.INFOCHARS = ' ';
     3180     5749    2         END;
     3181     5750    1      BRK_MSG.TASK = BREAK_TASK;
     3182     5751    1      CALL M$WRITE(FPT_WRITE);
     3183     5752    1      CALL M$TRMPRG(FPT_TRMPRG);
     3184     5753    1      RETURN;
     3185     5754
     3186     5755    1   END FLX$ARCOM_BRK;

PL6.E3A0      #002=FLX$ARCOM_BRK File=FLX$ARCOM.:E05TSI                          TUE 07/29/97 16:38 Page:455
--  Include file information  --

   CP_6_C.:E05TOU  is referenced.
   CP_6.:E05TOU  cannot be made into a system file and is referenced.
      No diagnostics issued in procedure FLX$ARCOM_BRK.

   Procedure FLX$ARCOM_BRK requires 31 words for executable code.
   Procedure FLX$ARCOM_BRK requires 4 words of local(AUTO) storage.

    No errors detected in file FLX$ARCOM.:E05TSI    .

PL6.E3A0      #002=FLX$ARCOM_BRK File=FLX$ARCOM.:E05TSI                          TUE 07/29/97 16:38 Page:456

 Object Unit name= FLX$ARCOM_BRK                              File name= FLX$ARCOM.:E05TOU
 UTS= JUL 29 '97 16:38:37.80 TUE                              Compiler= PL-6/E31         Sev=      00
 SharedLib= :SHARED_SYSTEM                                    Alt SharedLib=


    ****  Control sections  ****

 Sect   Type Bound  Init  Size OctSiz  Section name(segment info)
    0   DCB   even  none     0      0  M$UC
    1   DCB   even  none     0      0  M$LO
    2   Data  even  none    10     12  FLX$ARCOM_BRK
    3  RoData even  UTS     21     25  FLX$ARCOM_BRK
    4   Proc  even  none    31     37  FLX$ARCOM_BRK

    ****  Entry defs  ****

                              Check   Calling
                             calling  sequence
  Sect OctLoc Primary Altret sequence   type   Parms  Name
     4      0   yes            yes     Async       0  FLX$ARCOM_BRK

  ****  Entry refs  ****

         Check        Calling
        calling       sequence
Altret sequence SRef   type   Args  Name
                       nStd      0 X66_AAUTO
                       Std       0 B_CONSPOOL_D
                       nStd      0 X66_AARET

  ****  Data refs  ****

  Flags:  r = read only, s = secondary
Flgs Name                             Flgs Name                             Flgs Name
     M$UC                                  M$LO                                  BREAK_COUNT
     BREAK_DCB$                            BREAK_TASK                            B_VECTNIL
PL6.E3A0      #002=FLX$ARCOM_BRK File=FLX$ARCOM.:E05TSI                          TUE 07/29/97 16:38 Page:457

  ****  Segment refs  ****

  Flags:  r = read only, s = secondary
Flgs Name                             Flgs Name                             Flgs Name
     ISSID                                 NULLSID
PL6.E3A0      #002=FLX$ARCOM_BRK File=FLX$ARCOM.:E05TSI                          TUE 07/29/97 16:38 Page:458


     3104        1        /*T***********************************************************/
     3105        2        /*T*                                                         */
     3106        3        /*T* Copyright (c) Bull HN Information Systems Inc., 1997    */
     3107        4        /*T*                                                         */
     3108        5        /*T***********************************************************/
     3109        6        FLX$ARCOM_BRK: PROC ASYNC;

      6  4 000000   000000 700200 xent  FLX$ARCOM_B* TSX0  ! X66_AAUTO
         4 000001   000004 000000                    ZERO    4,0

     3110        7        /*F*  NAME: FLX$ARCOM_BRK
     3111        8              PURPOSE: Break handling routine.
     3112        9        */
     3113       10
     3114       11         /***
     3115       12          *** INCLUDE
     3116       13          ***/
     3117       14
     3118       15        %INCLUDE CP_6;
     3119     5574
     3120     5575         /***
     3121     5576          *** DCB
     3122     5577          ***/
     3123     5578
     3124     5579    1   DCL M$LO DCB;
     3125     5580
     3126     5581         /***
     3127     5582          *** SYMREF
     3128     5583          ***/
     3129     5584
     3130     5585    1   DCL BREAK_COUNT SBIN SYMREF;
     3131     5586    1   DCL BREAK_DCB$ PTR SYMREF;
     3132     5587    1   DCL BREAK_TASK CHAR(18) SYMREF;
     3133     5588
     3134     5589         /***
     3135     5590          *** STATIC
PL6.E3A0      #002=FLX$ARCOM_BRK File=FLX$ARCOM.:E05TSI                          TUE 07/29/97 16:38 Page:459
     3136     5591          ***/
     3137     5592
     3138     5593    1   DCL 1 BRK_MSG STATIC,
     3139     5594    1         2 * CHAR(0) INIT('...'),
     3140     5595    1         2 TASK CHAR(18),
     3141     5596    1         2 * CHAR(0) INIT(' '),
     3142     5597    1         2 INFOCHARS CHAR(18),
     3143     5598    1         2 INFO REDEF INFOCHARS,
     3144     5599    1           3 DP# CHAR(3),
     3145     5600    1           3 PSN CHAR(6),
     3146     5601    1           3 DOT CHAR(1),
     3147     5602    1           3 ACCT CHAR(8);
     3148     5603
     3149     5604         /***
     3150     5605          *** FPT
     3151     5606          ***/
     3152     5607
     3153     5608        %FPT_TRMPRG(FPTN = FPT_TRMPRG,
     3154     5609                    RSTBRK = YES,
     3155     5610                    STCLASS=CONSTANT );
     3156     5639
     3157     5640        %FPT_WRITE(FPTN = FPT_WRITE,
     3158     5641                   DCB = M$LO,
     3159     5642                   BUF = BRK_MSG,
     3160     5643                          STCLASS=CONSTANT );
     3161     5674
     3162     5675         /***
     3163     5676          *** BASED
     3164     5677          ***/
     3165     5678
     3166     5679        %F$DCB( BASED="BASED(BREAK_DCB$)" );
     3167     5736
     3168     5737        /****************************************/
     3169     5738
     3170     5739    1      BREAK_COUNT = BREAK_COUNT + 1;

   5739  4 000002   000000 054000 xsym               AOS     BREAK_COUNT
PL6.E3A0      #002=FLX$ARCOM_BRK File=FLX$ARCOM.:E05TSI                          TUE 07/29/97 16:38 Page:460

     3171     5740    1      IF BREAK_DCB$ ~= ADDR(NIL)

   5740  4 000003   000000 236000 xsym               LDQ     BREAK_DCB$
         4 000004   000001 116000 xsym               CMPQ    B_VECTNIL+1
         4 000005   000022 600000 4                  TZE     s:5748

     3172     5741    2       THEN DO;

     3173     5742    2         BRK_MSG.INFO.PSN = F$DCB.PSN#;

   5742  4 000006   000000 470400 xsym               LDP0    BREAK_DCB$
         4 000007   040000 100500                    MLR     fill='040'O
         4 000010   000024 000006                    ADSC9   20,,PR0                  cn=0,n=6
         4 000011   000006 200006 2                  ADSC9   BRK_MSG+6                cn=1,n=6

     3174     5743    2         BRK_MSG.INFO.ACCT = F$DCB.ACCT#;

   5743  4 000012   000020 237100                    LDAQ    16,,PR0
         4 000013   000010 757000 2                  STAQ    BRK_MSG+8

     3175     5744    2         BRK_MSG.INFO.DP# = 'DP#';

   5744  4 000014   040000 100400                    MLR     fill='040'O
         4 000015   000024 000003 3                  ADSC9   FPT_WRITE+12             cn=0,n=3
         4 000016   000005 400003 2                  ADSC9   BRK_MSG+5                cn=2,n=3

     3176     5745    2         BRK_MSG.INFO.DOT = '.';

   5745  4 000017   000056 236007                    LDQ     46,DL
         4 000020   000007 552004 2                  STBQ    BRK_MSG+7,'04'O

     3177     5746    2         END;

   5746  4 000021   000025 710000 4                  TRA     s:5750

     3178     5747    2       ELSE DO;
PL6.E3A0      #002=FLX$ARCOM_BRK File=FLX$ARCOM.:E05TSI                          TUE 07/29/97 16:38 Page:461

     3179     5748    2         BRK_MSG.INFOCHARS = ' ';

   5748  4 000022   040000 100400                    MLR     fill='040'O
         4 000023   000035 000001 xsym               ADSC9   B_VECTNIL+29             cn=0,n=1
         4 000024   000005 400022 2                  ADSC9   BRK_MSG+5                cn=2,n=18

     3180     5749    2         END;

     3181     5750    1      BRK_MSG.TASK = BREAK_TASK;

   5750  4 000025   040000 100400                    MLR     fill='040'O
         4 000026   000000 000022 xsym               ADSC9   BREAK_TASK               cn=0,n=18
         4 000027   000000 600022 2                  ADSC9   BRK_MSG                  cn=3,n=18

     3182     5751    1      CALL M$WRITE(FPT_WRITE);

   5751  4 000030   000010 630400 3                  EPPR0   FPT_WRITE
         4 000031   040001 713400                    CLIMB   write
         4 000032   401400 401760                    pmme    nvectors=4

     3183     5752    1      CALL M$TRMPRG(FPT_TRMPRG);

   5752  4 000033   000000 630400 3                  EPPR0   FPT_TRMPRG
         4 000034   160004 713400                    CLIMB   57348
         4 000035   400400 401760                    pmme    nvectors=2

     3184     5753    1      RETURN;

   5753  4 000036   000000 702200 xent               TSX2  ! X66_AARET
     3185     5754
     3186     5755    1   END FLX$ARCOM_BRK;

PL6.E3A0      #002=FLX$ARCOM_BRK File=FLX$ARCOM.:E05TSI                          TUE 07/29/97 16:38 Page:462
--  Include file information  --

   CP_6_C.:E05TOU  is referenced.
   CP_6.:E05TOU  cannot be made into a system file and is referenced.
      No diagnostics issued in procedure FLX$ARCOM_BRK.
PL6.E3A0      #002=FLX$ARCOM_BRK File=FLX$ARCOM.:E05TSI                          TUE 07/29/97 16:38 Page:463

 **** Variables and constants ****

  ****  Section 002  Data  FLX$ARCOM_BRK

  ****  Scalars and arrays  ****
OctLoc.c.b A Datatyp(siz) R M Lvl/name                 OctLoc.c.b A Datatyp(siz) R M Lvl/name

     0-0-0/c STRC(360)   r     1 BRK_MSG

  ****  Section 003 RoData FLX$ARCOM_BRK

  ****  Scalars and arrays  ****
OctLoc.c.b A Datatyp(siz) R M Lvl/name                 OctLoc.c.b A Datatyp(siz) R M Lvl/name

     0-0-0/d STRC(288)   r     1 FPT_TRMPRG                10-0-0/d STRC(432)   r     1 FPT_WRITE

  ****  SYMREF variables  ****

  ****  Scalars and arrays  ****
OctLoc.c.b A Datatyp(siz) R M Lvl/name                 OctLoc.c.b A Datatyp(siz) R M Lvl/name

     0-0-0/w SBIN        r     1 BREAK_COUNT                0-0-0/w PTR         r     1 BREAK_DCB$
     0-0-0/c CHAR(18)    r     1 BREAK_TASK

  ****  BASED and DCB variables  ****

  ****  Scalars and arrays  ****
OctLoc.c.b A Datatyp(siz) R M Lvl/name                 OctLoc.c.b A Datatyp(siz) R M Lvl/name

     0-0-0/d ASTR(3528)  r     1 F$DCB                      0-0-0N  NULL        r     1 M$LO
     0-0-0N  NULL        r     1 M$UC


   Procedure FLX$ARCOM_BRK requires 31 words for executable code.
   Procedure FLX$ARCOM_BRK requires 4 words of local(AUTO) storage.
PL6.E3A0      #002=FLX$ARCOM_BRK File=FLX$ARCOM.:E05TSI                          TUE 07/29/97 16:38 Page:464

    No errors detected in file FLX$ARCOM.:E05TSI    .
PL6.E3A0      #002=FLX$ARCOM_BRK File=FLX$ARCOM.:E05TSI                          TUE 07/29/97 16:38 Page:465
          *** CROSS REFERENCE LISTING ***
**     DENOTES     IDENTIFIER DEFINITION
<<                 IDENTIFIER'S VALUE SET
>>                 IDENTIFIER'S VALUE USED
<>                 IDENTIFIER SET AND/OR USED
--                 IDENTIFIER REFERENCED
PL6.E3A0      #002=FLX$ARCOM_BRK File=FLX$ARCOM.:E05TSI                          TUE 07/29/97 16:38 Page:466
          MINI XREF LISTING

BREAK_COUNT
      5585**DCL      5739<<ASSIGN   5739>>ASSIGN
BREAK_DCB$
      5586**DCL      5680--IMP-PTR  5740>>IF       5742>>ASSIGN   5743>>ASSIGN
BREAK_TASK
      5587**DCL      5750>>ASSIGN
BRK_MSG
      5593**DCL      5661--DCLINIT  5662--DCLINIT
BRK_MSG.INFO.ACCT
      5602**DCL      5743<<ASSIGN
BRK_MSG.INFO.DOT
      5601**DCL      5745<<ASSIGN
BRK_MSG.INFO.DP#
      5599**DCL      5744<<ASSIGN
BRK_MSG.INFO.PSN
      5600**DCL      5742<<ASSIGN
BRK_MSG.INFOCHARS
      5597**DCL      5598--REDEF    5748<<ASSIGN
BRK_MSG.TASK
      5595**DCL      5750<<ASSIGN
F$DCB.ACCT#
      5696**DCL      5743>>ASSIGN
F$DCB.ACTPOS
      5712**DCL      5712--REDEF
F$DCB.ARS#
      5686**DCL      5686--REDEF
F$DCB.ATTR
      5705**DCL      5706--REDEF
F$DCB.BORROW
      5720**DCL      5720--REDEF    5720--REDEF    5720--REDEF
F$DCB.DCBNAME.L
      5734**DCL      5734--IMP-SIZ
PL6.E3A0      #002=FLX$ARCOM_BRK File=FLX$ARCOM.:E05TSI                          TUE 07/29/97 16:38 Page:467
F$DCB.EOMCHAR#
      5690**DCL      5690--REDEF
F$DCB.FLDID
      5715**DCL      5715--REDEF
F$DCB.FORM$
      5709**DCL      5709--REDEF
F$DCB.FSECT
      5725**DCL      5725--REDEF
F$DCB.FSN#
      5702**DCL      5702--REDEF    5702--REDEF    5703--REDEF
F$DCB.HEADER$
      5708**DCL      5708--REDEF
F$DCB.IXTNSIZE#
      5706**DCL      5706--REDEF
F$DCB.LASTSTA$
      5695**DCL      5695--REDEF
F$DCB.LVL
      5721**DCL      5721--REDEF
F$DCB.NAME#.C
      5696**DCL      5696--REDEF
F$DCB.NOEOF
      5718**DCL      5718--REDEF
F$DCB.NRECS#
      5707**DCL      5707--REDEF
F$DCB.NRECX
      5726**DCL      5726--REDEF
F$DCB.OHDR
      5718**DCL      5718--REDEF
F$DCB.ORG#
      5701**DCL      5701--REDEF
F$DCB.PRECNO
      5724**DCL      5724--REDEF
F$DCB.PSN#
      5696**DCL      5742>>ASSIGN
F$DCB.RCSZ
      5730**DCL      5730--REDEF
PL6.E3A0      #002=FLX$ARCOM_BRK File=FLX$ARCOM.:E05TSI                          TUE 07/29/97 16:38 Page:468
F$DCB.RES#
      5697**DCL      5697--REDEF
F$DCB.SETX
      5709**DCL      5709--REDEF
F$DCB.TAB$
      5709**DCL      5709--REDEF
F$DCB.TDA
      5723**DCL      5724--REDEF
F$DCB.WSN#
      5697**DCL      5697--REDEF
FPT_TRMPRG
      5626**DCL      5752<>CALL
FPT_TRMPRG.V
      5633**DCL      5628--DCLINIT
FPT_TRMPRG.V.CTLFLG.RSTBRK#
      5634**DCL      5635--REDEF
FPT_WRITE
      5660**DCL      5751<>CALL
FPT_WRITE.STATION_
      5662**DCL      5662--REDEF
FPT_WRITE.V
      5663**DCL      5660--DCLINIT
FPT_WRITE.V.DVBYTE.VFC#
      5669**DCL      5669--REDEF
M$TRMPRG
      5527**DCL-ENT  5752--CALL
M$WRITE
      5503**DCL-ENT  5751--CALL
