VERSION E05

PL6.E3A0      #001=FMC$ADD File=FMC$CACHE.:E05TSI                                TUE 07/29/97 16:38 Page:1
        1        1        /*M* FMC$CACHE - File caching system                                          */
        2        2        /*T***********************************************************/
        3        3        /*T*                                                         */
        4        4        /*T* Copyright (c) Bull HN Information Systems Inc., 1997    */
        5        5        /*T*                                                         */
        6        6        /*T***********************************************************/
        7        7        /*X* DDA */
        8        8        /*F*     NAME:     FMC$CACHE
        9        9                 PURPOSE:  To cache heavily used disk granules and to share
       10       10                           shared granules in memory.
       11       11                 DESCRIPTION:
       12       12
       13       13                      When the system starts up the user specifies a portion
       14       14                 of the TIGR data area to be used for the cache table.
       15       15                 Ideally, this table should contain entries for all granules
       16       16                 that are in use in the system as well as the granules that
       17       17                 we are caching.  Cached granules are granules that are in
       18       18                 memory but no one is currently using.  There is no set
       19       19                 limit on the number of granules that are cached.  We will
       20       20                 just get pages until memory management asks for them back.
       21       21
       22       22                      When a user wants to read a granule we always consult
       23       23                 the cache table.  If the granule is in the cache table, then
       24       24                 we just map this user onto the page of memory.  If it is not
       25       25                 in the cache table, then we will read the granule, and then
       26       26                 attempt to put the granule into the cache table.
       27       27
       28       28        */
       29       29                 %EJECT;
PL6.E3A0      #001=FMC$ADD File=FMC$CACHE.:E05TSI                                TUE 07/29/97 16:38 Page:2
       30       30        /*D*     NAME:     FMC$ADD
       31       31                 PARAMETERS:
       32       32                      HASH - The cache table entry that we want to add to
       33       33                             the linked list.
       34       34
       35       35                 External Procedures:
       36       36                      SSS$SYSTIME - Get the current UTS
       37       37
       38       38                 DESCRIPTION:
       39       39
       40       40                      When no one is currently using a granule that is still
       41       41                 being cached, then we add this granule to a linked list.
       42       42                 This linked list is ordered from oldest to newest, so we
       43       43                 can easily release the oldest pages of memory when memory
       44       44                 management wants them back.
       45       45
       46       46                      We link the granule onto the end of the cache table,
       47       47                 and set the time.  Then we increment the number of pages
       48       48                 that we have cached for memory management's use.
       49       49        */
       50       50                 %EJECT;
PL6.E3A0      #001=FMC$ADD File=FMC$CACHE.:E05TSI                                TUE 07/29/97 16:38 Page:3
       51       51        FMC$ADD: PROC(HASH);
       52       52    1          DCL HASH SBIN;
       53       53        /* */
       54       54               %INCLUDE FM_CACHE_R;
       55       66               %INCLUDE FM_CACHE_C;
       56      132               %FMC$CACHE(ARRAY=YES);
       57      155               %FMC$TYPTBL;
       58      160               %FMC$STATS;
       59      169        /* */
       60      170    1          DCL BLINK SBIN;
       61      171    1          DCL FLINK SBIN;
       62      172    1          DCL CURTIME UBIN;
       63      173    1          DCL TYPE SBIN;
       64      174        /* */
       65      175    1          DCL SSS$SYSTIME ENTRY(1);
       66      176    1          DCL SC_FMC96 ENTRY CONV(2, 0);
       67      177        /* */
       68      178    1          TYPE=FMC$CACHETBL.TYPE(HASH);
       69      179
       70      180    1          BLINK=FMC$TYPTBL.NEWEST(TYPE);
       71      181    1          FLINK=FMC$TYPTBL.OLDEST(TYPE);
       72      182
       73      183    1          IF BLINK ~= 0 THEN
       74      184    1             IF TYPE ~= FMC$CACHETBL.TYPE(BLINK) THEN
       75      185    1                CALL SC_FMC96;
       76      186    1          IF FLINK ~= 0 THEN
       77      187    1             IF TYPE ~= FMC$CACHETBL.TYPE(FLINK) THEN
       78      188    1                CALL SC_FMC96;
       79      189    1          IF BLINK=HASH THEN
       80      190    1             CALL SC_FMC96;
       81      191
       82      192        /*S*   SCREECH_CODE: FMC-S$FM96
       83      193               TYPE:  SCREECH
       84      194               MESSAGE: Anomaly detected in I/O cache tables
       85      195               DESCRIPTION:  A problem has been detected in a cache free chain. */
       86      196
       87      197    1          FMC$CACHETBL.FLINK(HASH)=0;
PL6.E3A0      #001=FMC$ADD File=FMC$CACHE.:E05TSI                                TUE 07/29/97 16:38 Page:4
       88      198    1          FMC$CACHETBL.BLINK(HASH)=BLINK;
       89      199    1          CALL SSS$SYSTIME(CURTIME);
       90      200    1          FMC$CACHETBL.AGE(HASH)=CURTIME;
       91      201
       92      202    1          FMC$CACHETBL.FLINK(BLINK)=HASH;
       93      203    1          FMC$TYPTBL.NEWEST(TYPE)=HASH;
       94      204
       95      205    1          IF FMC$TYPTBL.OLDEST(TYPE) = 0 THEN
       96      206    1             FMC$TYPTBL.OLDEST(TYPE)=HASH;
       97      207
       98      208    1          FMC$CACHEPGCNT=FMC$CACHEPGCNT+1;
       99      209    1          FMC$STATS.UNUSED(TYPE)=FMC$STATS.UNUSED(TYPE)+1;
      100      210
      101      211    1          RETURN;
      102      212    1          END FMC$ADD;
      103      213               %EOD;

PL6.E3A0      #001=FMC$ADD File=FMC$CACHE.:E05TSI                                TUE 07/29/97 16:38 Page:5
--  Include file information  --

   FM_CACHE_C.:E05TOU  is referenced.
   FM_CACHE_R.:E05TOU  cannot be made into a system file and is referenced.
      No diagnostics issued in procedure FMC$ADD.

   Procedure FMC$ADD requires 95 words for executable code.
   Procedure FMC$ADD requires 10 words of local(AUTO) storage.

PL6.E3A0      #001=FMC$ADD File=FMC$CACHE.:E05TSI                                TUE 07/29/97 16:38 Page:6

 Object Unit name= FMC$ADD                                    File name= FMC$CACHE.:E05TOU
 UTS= JUL 29 '97 16:38:59.40 TUE                              Compiler= PL-6/E31         Sev=      00
 SharedLib= :SHARED_SYSTEM                                    Alt SharedLib=


    ****  Control sections  ****

 Sect   Type Bound  Init  Size OctSiz  Section name(segment info)
    0   Proc  even  none    95    137  FMC$ADD

    ****  Entry defs  ****

                              Check   Calling
                             calling  sequence
  Sect OctLoc Primary Altret sequence   type   Parms  Name
     0      0   yes            yes      Std        1  FMC$ADD

  ****  Entry refs  ****

         Check        Calling
        calling       sequence
Altret sequence SRef   type   Args  Name
         yes           Std       1 SSS$SYSTIME
                       nStd      0 X66_AUTO_1
                       Std       0 B_CONSPOOL_D
                       nStd      0 X66_ARET

  ****  Data refs  ****

  Flags:  r = read only, s = secondary
Flgs Name                             Flgs Name                             Flgs Name
     SC_FMC96                              FMC_CACHE$                            FMC_TYPTBL$
     FMC_STATS$                            FMC_CACHEPGCNT$                       B_VECTNIL
PL6.E3A0      #001=FMC$ADD File=FMC$CACHE.:E05TSI                                TUE 07/29/97 16:38 Page:7

  ****  Segment refs  ****

  Flags:  r = read only, s = secondary
Flgs Name                             Flgs Name                             Flgs Name
     ASLENTSID
PL6.E3A0      #001=FMC$ADD File=FMC$CACHE.:E05TSI                                TUE 07/29/97 16:38 Page:8


        1        1        /*M* FMC$CACHE - File caching system                                          */
        2        2        /*T***********************************************************/
        3        3        /*T*                                                         */
        4        4        /*T* Copyright (c) Bull HN Information Systems Inc., 1997    */
        5        5        /*T*                                                         */
        6        6        /*T***********************************************************/
        7        7        /*X* DDA */
        8        8        /*F*     NAME:     FMC$CACHE
        9        9                 PURPOSE:  To cache heavily used disk granules and to share
       10       10                           shared granules in memory.
       11       11                 DESCRIPTION:
       12       12
       13       13                      When the system starts up the user specifies a portion
       14       14                 of the TIGR data area to be used for the cache table.
       15       15                 Ideally, this table should contain entries for all granules
       16       16                 that are in use in the system as well as the granules that
       17       17                 we are caching.  Cached granules are granules that are in
       18       18                 memory but no one is currently using.  There is no set
       19       19                 limit on the number of granules that are cached.  We will
       20       20                 just get pages until memory management asks for them back.
       21       21
       22       22                      When a user wants to read a granule we always consult
       23       23                 the cache table.  If the granule is in the cache table, then
       24       24                 we just map this user onto the page of memory.  If it is not
       25       25                 in the cache table, then we will read the granule, and then
       26       26                 attempt to put the granule into the cache table.
       27       27
       28       28        */
       29       29                 %EJECT;
PL6.E3A0      #001=FMC$ADD File=FMC$CACHE.:E05TSI                                TUE 07/29/97 16:38 Page:9
       30       30        /*D*     NAME:     FMC$ADD
       31       31                 PARAMETERS:
       32       32                      HASH - The cache table entry that we want to add to
       33       33                             the linked list.
       34       34
       35       35                 External Procedures:
       36       36                      SSS$SYSTIME - Get the current UTS
       37       37
       38       38                 DESCRIPTION:
       39       39
       40       40                      When no one is currently using a granule that is still
       41       41                 being cached, then we add this granule to a linked list.
       42       42                 This linked list is ordered from oldest to newest, so we
       43       43                 can easily release the oldest pages of memory when memory
       44       44                 management wants them back.
       45       45
       46       46                      We link the granule onto the end of the cache table,
       47       47                 and set the time.  Then we increment the number of pages
       48       48                 that we have cached for memory management's use.
       49       49        */
       50       50                 %EJECT;
PL6.E3A0      #001=FMC$ADD File=FMC$CACHE.:E05TSI                                TUE 07/29/97 16:38 Page:10
       51       51        FMC$ADD: PROC(HASH);

     51  0 000000   000000 700200 xent  FMC$ADD      TSX0  ! X66_AUTO_1
         0 000001   000012 000001                    ZERO    10,1

       52       52    1          DCL HASH SBIN;
       53       53        /* */
       54       54               %INCLUDE FM_CACHE_R;
       55       66               %INCLUDE FM_CACHE_C;
       56      132               %FMC$CACHE(ARRAY=YES);
       57      155               %FMC$TYPTBL;
       58      160               %FMC$STATS;
       59      169        /* */
       60      170    1          DCL BLINK SBIN;
       61      171    1          DCL FLINK SBIN;
       62      172    1          DCL CURTIME UBIN;
       63      173    1          DCL TYPE SBIN;
       64      174        /* */
       65      175    1          DCL SSS$SYSTIME ENTRY(1);
       66      176    1          DCL SC_FMC96 ENTRY CONV(2, 0);
       67      177        /* */
       68      178    1          TYPE=FMC$CACHETBL.TYPE(HASH);

    178  0 000002   200003 470500                    LDP0    @HASH,,AUTO
         0 000003   000000 236100                    LDQ     0,,PR0
         0 000004   000006 402007                    MPY     6,DL
         0 000005   000000 471400 xsym               LDP1    FMC_CACHE$
         0 000006   100000 236106                    LDQ     0,QL,PR1
         0 000007   000033 772000                    QRL     27
         0 000010   200007 756100                    STQ     TYPE,,AUTO

       69      179
       70      180    1          BLINK=FMC$TYPTBL.NEWEST(TYPE);

    180  0 000011   200007 235100                    LDA     TYPE,,AUTO
         0 000012   000001 735000                    ALS     1
         0 000013   000000 473400 xsym               LDP3    FMC_TYPTBL$
PL6.E3A0      #001=FMC$ADD File=FMC$CACHE.:E05TSI                                TUE 07/29/97 16:38 Page:11
         0 000014   300001 235105                    LDA     1,AL,PR3
         0 000015   200004 755100                    STA     BLINK,,AUTO

       71      181    1          FLINK=FMC$TYPTBL.OLDEST(TYPE);

    181  0 000016   200007 235100                    LDA     TYPE,,AUTO
         0 000017   000001 735000                    ALS     1
         0 000020   300000 235105                    LDA     0,AL,PR3
         0 000021   200005 755100                    STA     FLINK,,AUTO

       72      182
       73      183    1          IF BLINK ~= 0 THEN

    183  0 000022   200004 235100                    LDA     BLINK,,AUTO
         0 000023   000034 600000 0                  TZE     s:186

       74      184    1             IF TYPE ~= FMC$CACHETBL.TYPE(BLINK) THEN

    184  0 000024   200004 236100                    LDQ     BLINK,,AUTO
         0 000025   000006 402007                    MPY     6,DL
         0 000026   100000 236106                    LDQ     0,QL,PR1
         0 000027   000033 772000                    QRL     27
         0 000030   200007 116100                    CMPQ    TYPE,,AUTO
         0 000031   000034 600000 0                  TZE     s:186

       75      185    1                CALL SC_FMC96;

    185  0 000032   000000 713400 xsym               CLIMB   SC_FMC96
         0 000033   000000 600000 xsid               climb   nvectors=         0

       76      186    1          IF FLINK ~= 0 THEN

    186  0 000034   200005 235100                    LDA     FLINK,,AUTO
         0 000035   000047 600000 0                  TZE     s:189

       77      187    1             IF TYPE ~= FMC$CACHETBL.TYPE(FLINK) THEN

PL6.E3A0      #001=FMC$ADD File=FMC$CACHE.:E05TSI                                TUE 07/29/97 16:38 Page:12
    187  0 000036   200005 236100                    LDQ     FLINK,,AUTO
         0 000037   000006 402007                    MPY     6,DL
         0 000040   000000 470400 xsym               LDP0    FMC_CACHE$
         0 000041   000000 236106                    LDQ     0,QL,PR0
         0 000042   000033 772000                    QRL     27
         0 000043   200007 116100                    CMPQ    TYPE,,AUTO
         0 000044   000047 600000 0                  TZE     s:189

       78      188    1                CALL SC_FMC96;

    188  0 000045   000000 713400 xsym               CLIMB   SC_FMC96
         0 000046   000000 600000 xsid               climb   nvectors=         0

       79      189    1          IF BLINK=HASH THEN

    189  0 000047   200003 470500                    LDP0    @HASH,,AUTO
         0 000050   200004 236100                    LDQ     BLINK,,AUTO
         0 000051   000000 116100                    CMPQ    0,,PR0
         0 000052   000055 601000 0                  TNZ     s:197

       80      190    1             CALL SC_FMC96;

    190  0 000053   000000 713400 xsym               CLIMB   SC_FMC96
         0 000054   000000 600000 xsid               climb   nvectors=         0

       81      191
       82      192        /*S*   SCREECH_CODE: FMC-S$FM96
       83      193               TYPE:  SCREECH
       84      194               MESSAGE: Anomaly detected in I/O cache tables
       85      195               DESCRIPTION:  A problem has been detected in a cache free chain. */
       86      196
       87      197    1          FMC$CACHETBL.FLINK(HASH)=0;

    197  0 000055   200003 470500                    LDP0    @HASH,,AUTO
         0 000056   000000 236100                    LDQ     0,,PR0
         0 000057   000006 402007                    MPY     6,DL
         0 000060   000000 220003                    LDX0    0,DU
PL6.E3A0      #001=FMC$ADD File=FMC$CACHE.:E05TSI                                TUE 07/29/97 16:38 Page:13
         0 000061   000000 471400 xsym               LDP1    FMC_CACHE$
         0 000062   100001 740106                    STX0    1,QL,PR1

       88      198    1          FMC$CACHETBL.BLINK(HASH)=BLINK;

    198  0 000063   000000 236100                    LDQ     0,,PR0
         0 000064   000006 402007                    MPY     6,DL
         0 000065   200004 721100                    LXL1    BLINK,,AUTO
         0 000066   000000 471400 xsym               LDP1    FMC_CACHE$
         0 000067   100001 441106                    SXL1    1,QL,PR1

       89      199    1          CALL SSS$SYSTIME(CURTIME);

    199  0 000070   200006 631500                    EPPR1   CURTIME,,AUTO
         0 000071   200010 451500                    STP1    TYPE+1,,AUTO
         0 000072   200010 630500                    EPPR0   TYPE+1,,AUTO
         0 000073   000017 631400 xsym               EPPR1   B_VECTNIL+15
         0 000074   000000 701000 xent               TSX1    SSS$SYSTIME
         0 000075   000000 011000                    NOP     0

       90      200    1          FMC$CACHETBL.AGE(HASH)=CURTIME;

    200  0 000076   200003 470500                    LDP0    @HASH,,AUTO
         0 000077   000000 236100                    LDQ     0,,PR0
         0 000100   000006 402007                    MPY     6,DL
         0 000101   000000 471400 xsym               LDP1    FMC_CACHE$
         0 000102   200006 235100                    LDA     CURTIME,,AUTO
         0 000103   100005 755106                    STA     5,QL,PR1

       91      201
       92      202    1          FMC$CACHETBL.FLINK(BLINK)=HASH;

    202  0 000104   200004 236100                    LDQ     BLINK,,AUTO
         0 000105   000006 402007                    MPY     6,DL
         0 000106   000000 720100                    LXL0    0,,PR0
         0 000107   000000 471400 xsym               LDP1    FMC_CACHE$
         0 000110   100001 740106                    STX0    1,QL,PR1
PL6.E3A0      #001=FMC$ADD File=FMC$CACHE.:E05TSI                                TUE 07/29/97 16:38 Page:14

       93      203    1          FMC$TYPTBL.NEWEST(TYPE)=HASH;

    203  0 000111   200007 235100                    LDA     TYPE,,AUTO
         0 000112   000001 735000                    ALS     1
         0 000113   000000 620005                    EAX0    0,AL
         0 000114   000000 235100                    LDA     0,,PR0
         0 000115   000000 471400 xsym               LDP1    FMC_TYPTBL$
         0 000116   100001 755110                    STA     1,X0,PR1

       94      204
       95      205    1          IF FMC$TYPTBL.OLDEST(TYPE) = 0 THEN

    205  0 000117   200007 235100                    LDA     TYPE,,AUTO
         0 000120   000001 735000                    ALS     1
         0 000121   000000 471400 xsym               LDP1    FMC_TYPTBL$
         0 000122   100000 235105                    LDA     0,AL,PR1
         0 000123   000131 601000 0                  TNZ     s:208

       96      206    1             FMC$TYPTBL.OLDEST(TYPE)=HASH;

    206  0 000124   200007 235100                    LDA     TYPE,,AUTO
         0 000125   000001 735000                    ALS     1
         0 000126   000000 620005                    EAX0    0,AL
         0 000127   000000 235100                    LDA     0,,PR0
         0 000130   100000 755110                    STA     0,X0,PR1

       97      207
       98      208    1          FMC$CACHEPGCNT=FMC$CACHEPGCNT+1;

    208  0 000131   000000 471400 xsym               LDP1    FMC_CACHEPGCNT$
         0 000132   100000 054100                    AOS     0,,PR1

       99      209    1          FMC$STATS.UNUSED(TYPE)=FMC$STATS.UNUSED(TYPE)+1;

    209  0 000133   000000 471400 xsym               LDP1    FMC_STATS$
         0 000134   200007 720100                    LXL0    TYPE,,AUTO
PL6.E3A0      #001=FMC$ADD File=FMC$CACHE.:E05TSI                                TUE 07/29/97 16:38 Page:15
         0 000135   100067 054110                    AOS     55,X0,PR1

      100      210
      101      211    1          RETURN;

    211  0 000136   000000 702200 xent               TSX2  ! X66_ARET
      102      212    1          END FMC$ADD;
      103      213               %EOD;

PL6.E3A0      #001=FMC$ADD File=FMC$CACHE.:E05TSI                                TUE 07/29/97 16:38 Page:16
--  Include file information  --

   FM_CACHE_C.:E05TOU  is referenced.
   FM_CACHE_R.:E05TOU  cannot be made into a system file and is referenced.
      No diagnostics issued in procedure FMC$ADD.
PL6.E3A0      #001=FMC$ADD File=FMC$CACHE.:E05TSI                                TUE 07/29/97 16:38 Page:17

 **** Variables and constants ****

  ****  Auto variables  ****

  ****  Scalars and arrays  ****
OctLoc.c.b A Datatyp(siz) R M Lvl/name                 OctLoc.c.b A Datatyp(siz) R M Lvl/name

     3-0-0/w PTR         r     1 @HASH                      4-0-0/w SBIN        r     1 BLINK
     6-0-0/w UBIN        r     1 CURTIME                    5-0-0/w SBIN        r     1 FLINK
    *0-0-0/w SBIN        r     1 HASH                       7-0-0/w SBIN        r     1 TYPE

  ****  SYMREF variables  ****

  ****  Scalars and arrays  ****
OctLoc.c.b A Datatyp(siz) R M Lvl/name                 OctLoc.c.b A Datatyp(siz) R M Lvl/name

     0-0-0/w PTR         r     1 FMC_CACHE$                 0-0-0/w PTR         r     1 FMC_CACHEPGCNT$
     0-0-0/w PTR         r     1 FMC_STATS$                 0-0-0/w PTR         r     1 FMC_TYPTBL$

  ****  BASED and DCB variables  ****

  ****  Scalars and arrays  ****
OctLoc.c.b A Datatyp(siz) R M Lvl/name                 OctLoc.c.b A Datatyp(siz) R M Lvl/name

     0-0-0/w SBIN        r     1 FMC$CACHEPGCNT
     0-0-0/w STRC(216)   r     1 FMC$CACHETBL(0:0)
     0-0-0/w STRC(2376)  r     1 FMC$STATS
     0-0-0/w STRC(72)    r     1 FMC$TYPTBL(0:10)


   Procedure FMC$ADD requires 95 words for executable code.
   Procedure FMC$ADD requires 10 words of local(AUTO) storage.
PL6.E3A0      #001=FMC$ADD File=FMC$CACHE.:E05TSI                                TUE 07/29/97 16:38 Page:18
          *** CROSS REFERENCE LISTING ***
**     DENOTES     IDENTIFIER DEFINITION
<<                 IDENTIFIER'S VALUE SET
>>                 IDENTIFIER'S VALUE USED
<>                 IDENTIFIER SET AND/OR USED
--                 IDENTIFIER REFERENCED
PL6.E3A0      #001=FMC$ADD File=FMC$CACHE.:E05TSI                                TUE 07/29/97 16:38 Page:19
          MINI XREF LISTING

BLINK
       170**DCL       180<<ASSIGN    183>>IF        184>>IF        189>>IF        198>>ASSIGN    202>>ASSIGN
CURTIME
       172**DCL       199<>CALL      200>>ASSIGN
FLINK
       171**DCL       181<<ASSIGN    186>>IF        187>>IF
FMC$CACHEPGCNT
        63**DCL       208<<ASSIGN    208>>ASSIGN
FMC$CACHETBL.AGE
       153**DCL       200<<ASSIGN
FMC$CACHETBL.BLINK
       141**DCL       198<<ASSIGN
FMC$CACHETBL.FLINK
       140**DCL       197<<ASSIGN    202<<ASSIGN
FMC$CACHETBL.TYPE
       138**DCL       178>>ASSIGN    184>>IF        187>>IF
FMC$STATS.UNUSED
       167**DCL       209<<ASSIGN    209>>ASSIGN
FMC$TYPTBL.NEWEST
       158**DCL       180>>ASSIGN    203<<ASSIGN
FMC$TYPTBL.OLDEST
       157**DCL       181>>ASSIGN    205>>IF        206<<ASSIGN
FMC_CACHE$
        62**DCL       134--IMP-PTR   178>>ASSIGN    184>>IF        187>>IF        197>>ASSIGN    198>>ASSIGN
       200>>ASSIGN    202>>ASSIGN
FMC_CACHEPGCNT$
        63**DCL        63--IMP-PTR    63--REDEF     208>>ASSIGN    208>>ASSIGN
FMC_STATS$
        62**DCL       161--IMP-PTR   209>>ASSIGN    209>>ASSIGN
FMC_TYPTBL$
        62**DCL       156--IMP-PTR   180>>ASSIGN    181>>ASSIGN    203>>ASSIGN    205>>IF        206>>ASSIGN
HASH
PL6.E3A0      #001=FMC$ADD File=FMC$CACHE.:E05TSI                                TUE 07/29/97 16:38 Page:20
        52**DCL        51--PROC      178>>ASSIGN    189>>IF        197>>ASSIGN    198>>ASSIGN    200>>ASSIGN
       202>>ASSIGN    203>>ASSIGN    206>>ASSIGN
SC_FMC96
       176**DCL-ENT   185--CALL      188--CALL      190--CALL
SSS$SYSTIME
       175**DCL-ENT   199--CALL
TYPE
       173**DCL       178<<ASSIGN    180>>ASSIGN    181>>ASSIGN    184>>IF        187>>IF        203>>ASSIGN
       205>>IF        206>>ASSIGN    209>>ASSIGN    209>>ASSIGN
PL6.E3A0      #001=FMC$ADD File=FMC$CACHE.:E05TSI                                TUE 07/29/97 16:38 Page:21
              *** CROSS REFERENCE LISTING ***
    **     DENOTES     IDENTIFIER DEFINITION
    <<                 IDENTIFIER'S VALUE SET
    >>                 IDENTIFIER'S VALUE USED
    <>                 IDENTIFIER SET AND/OR USED
    --                 IDENTIFIER REFERENCED
PL6.E3A0      #001=FMC$ADD File=FMC$CACHE.:E05TSI                                TUE 07/29/97 16:38 Page:22
              MINI UREF LISTING

FMC$ADD      51**PROC
FMC_CACHEPGCNT      63**DCL
FMC_CACHEPGCNT$R      63**DCL
FMC_CACHESIZ      62**DCL
FMC_CACHESIZN      62**DCL
FMC_LOCK      64**DCL
FMC_MASK      64**DCL
FMC_MASKTBL      64**DCL

PL6.E3A0      #002=FMC$CLRFILE File=FMC$CACHE.:E05TSI                            TUE 07/29/97 16:39 Page:23
      104        1        /*T***********************************************************/
      105        2        /*T*                                                         */
      106        3        /*T* Copyright (c) Bull HN Information Systems Inc., 1997    */
      107        4        /*T*                                                         */
      108        5        /*T***********************************************************/
      109        6        /*D*     NAME:     FMC$CLRFILE
      110        7                 PURPOSE:  To clear out all DAs associated with a file,
      111        8                           except for the FIT.
      112        9
      113       10                 INPUT:    DA (FMC$CLR1 and FMC$CLR1EXT)
      114       11                 OUTPUT:   The entries associated with the cache are cleared
      115       12                           out.
      116       13
      117       14                 DESCRIPTION:
      118       15
      119       16                 Loop through the CFU extent list searching for all of the
      120       17                 extents associated with the file.  The loop through the
      121       18                 extent, calling CHECK_CACHE to clear out the SRDAs.
      122       19        */
      123       20               %EJECT;
PL6.E3A0      #002=FMC$CLRFILE File=FMC$CACHE.:E05TSI                            TUE 07/29/97 16:39 Page:24
      124       21        FMC$CLRFILE: PROC(PRAM);
      125       22    1          DCL PRAM(0:1) UBIN;
      126       23        /* */
      127       24               %INCLUDE FM_CACHE_R;
      128       36               %INCLUDE FM_CACHE_C;
      129      102               %INCLUDE FM_DATA_R;
      130      116               %INCLUDE P_PMDAT_R;
      131      424               %INCLUDE FM$FIT;
      132      645               %INCLUDE FM$CFU;
      133      690               %INCLUDE HF_LOCK_C;
      134      704               %INCLUDE B$JIT;
      135     1307               %MACRO F$DCB(BASED=BASED);
      136     1308               %INCLUDE F$DCB;
      137     1357               %MEND;
      138     1358        /* */
      139     1359    1          DCL B$JIT$ PTR SYMREF;
      140     1360        /* */
      141     1361               %F$DCB;
      142     1411               %CODE01(BASED="BASED(EXT$)");
      143     1415               %FM$FIT(BASED="BASED(FPTR$)");
      144     1418               %FMC$CACHE;
      145     1441               %FM$CFU;
      146     1447        /* */
      147     1448    1          DCL FPTR UBIN;
      148     1449    1          DCL FPTR$ REDEF FPTR PTR;
      149     1450        /* */
      150     1451    1          DCL SETX SBIN;
      151     1452    1          DCL SRDA SBIN;
      152     1453    1          DCL SDA SBIN;
      153     1454    1          DCL XTNSIZ SBIN;
      154     1455    1          DCL HASH SBIN;
      155     1456    1          DCL EXT$ PTR;
      156     1457    1          DCL N SBIN;
      157     1458    1          DCL NWORDS SBIN;
      158     1459    1          DCL I SBIN;
      159     1460    1          DCL PP SBIN;
      160     1461    1          DCL TEMP UBIN;
PL6.E3A0      #002=FMC$CLRFILE File=FMC$CACHE.:E05TSI                            TUE 07/29/97 16:39 Page:25
      161     1462    1          DCL FOUND SBIN;
      162     1463    1          DCL FITDA UBIN;
      163     1464    1          DCL 1 XT,
      164     1465    1               2 XTNSIZE UBIN(9) CALIGNED,
      165     1466    1               2 XTNSDA UBIN(27) CALIGNED;
      166     1467        /* */
      167     1468    1          DCL MMJ$FIOP ENTRY(1);
      168     1469    1          DCL FMC$REMOVE ENTRY(1);
      169     1470    1          DCL FAF$FRTOSR ENTRY(3) ALTRET;
      170     1471        /* */
      171     1472    1          IF FMC_CACHESIZ = 0 THEN
      172     1473    1             RETURN;
      173     1474
      174     1475    1          SETX=B$JIT.DCB$->F$DCB.SETX;
      175     1476    1          IF B$JIT.DCB$->F$DCB.CFU$ ~= ADDR(NIL) THEN
      176     1477    1             FITDA=B$JIT.DCB$->F$DCB.CFU$->FM$CFU.FITSDA;
      177     1478    1          ELSE
      178     1479    1             FITDA=0;
      179     1480
      180     1481    1          FPTR=PRAM(0);
      181     1482    1          EXT$=PINCRW(FPTR$, FM$FIT.CODES.ITEMX(1));
      182     1483    1          NWORDS=FM$FIT.CODES.NDW(1)-1;
      183     1484
      184     1485    1          I=0;
      185     1486    2          DO WHILE (I < NWORDS);
      186     1487    2             SDA=CODE01.XTNT.XTNSDA(I);
      187     1488    2             IF CODE01.XTNT.XTNSIZE(I) = 0 THEN
      188     1489    3                DO;
      189     1490    3                XTNSIZ=CODE01.EXTNT.XTNSIZE(I);
      190     1491    3                I=I+2;
      191     1492    3                END;
      192     1493    2             ELSE
      193     1494    3                DO;
      194     1495    3                XTNSIZ=CODE01.XTNT.XTNSIZE(I);
      195     1496    3                I=I+1;
      196     1497    3                END;
      197     1498
PL6.E3A0      #002=FMC$CLRFILE File=FMC$CACHE.:E05TSI                            TUE 07/29/97 16:39 Page:26
      198     1499    2             TEMP=SDA+XTNSIZ-1;
      199     1500                  %LOCK(G=FMC_LOCK);
      200     1503    3             DO SRDA=SDA TO TEMP;
      201     1504    3                CALL CHECK_CACHE;
      202     1505    3             END;
      203     1506                  %UNLOCK(G=FMC_LOCK);
      204     1509
      205     1510    2          END;  /* WHILE */
      206     1511
      207     1512    1          RETURN;
      208     1513               %EJECT;
PL6.E3A0      #002=FMC$CLRFILE File=FMC$CACHE.:E05TSI                            TUE 07/29/97 16:39 Page:27
      209     1514    1   FMC$CLR1: ENTRY(PRAM);
      210     1515        /* */
      211     1516    1          IF FMC_CACHESIZ = 0 THEN
      212     1517    1             RETURN;
      213     1518
      214     1519    1          SETX=B$JIT.DCB$->F$DCB.SETX;
      215     1520    1          FITDA=0;
      216     1521               %LOCK(G=FMC_LOCK);
      217     1524    1          SDA=PRAM(0);
      218     1525    1          IF SDA < FM_SRZERO THEN
      219     1526    1             CALL FAF$FRTOSR(SDA, SRDA, I);
      220     1527    1          ELSE
      221     1528    1             SRDA=SDA;
      222     1529    1          CALL CHECK_CACHE;
      223     1530               %UNLOCK(G=FMC_LOCK);
      224     1533    1          RETURN;
      225     1534               %EJECT;
PL6.E3A0      #002=FMC$CLRFILE File=FMC$CACHE.:E05TSI                            TUE 07/29/97 16:39 Page:28
      226     1535    1   FMC$CLR1EXT: ENTRY(PRAM);
      227     1536        /* */
      228     1537    1          IF FMC_CACHESIZ = 0 THEN
      229     1538    1             RETURN;
      230     1539
      231     1540    1          SETX=B$JIT.DCB$->F$DCB.SETX;
      232     1541    1          IF B$JIT.DCB$->F$DCB.CFU$ ~= ADDR(NIL) THEN
      233     1542    1             FITDA=B$JIT.DCB$->F$DCB.CFU$->FM$CFU.FITSDA;
      234     1543    1          ELSE
      235     1544    1             FITDA=0;
      236     1545               %LOCK(G=FMC_LOCK);
      237     1548
      238     1549    1          XT=BINBIT(PRAM(0), 36);
      239     1550    1          SDA=XT.XTNSDA;
      240     1551    1          IF XT.XTNSIZE = 0 THEN
      241     1552    1             XTNSIZ=PRAM(1);
      242     1553    1          ELSE
      243     1554    1             XTNSIZ=XT.XTNSIZE;
      244     1555
      245     1556    2          DO I=0 TO XTNSIZ-1;
      246     1557    2             SRDA=SDA+I;
      247     1558    2             CALL CHECK_CACHE;
      248     1559    2          END;  /* DO I */
      249     1560
      250     1561               %UNLOCK(G=FMC_LOCK);
      251     1564    1          RETURN;
      252     1565               %EJECT;
PL6.E3A0      #002=FMC$CLRFILE File=FMC$CACHE.:E05TSI                            TUE 07/29/97 16:39 Page:29
      253     1566        /*I*     NAME:     CHECK_CACHE
      254     1567                 PURPOSE:  To clear out SRDA from the cache.
      255     1568
      256     1569                 DESCRIPTION:
      257     1570
      258     1571                 Hash to a row.  Then loop through the row until we hit the
      259     1572                 end, or find the entry.  If we find it, throw the entry
      260     1573                 away.  If someone else is using it, it is an error, mark
      261     1574                 the cache entry, and then return
      262     1575        */
      263     1576               %EJECT;
PL6.E3A0      #002=FMC$CLRFILE File=FMC$CACHE.:E05TSI                            TUE 07/29/97 16:39 Page:30
      264     1577    1   CHECK_CACHE: PROC;
      265     1578        /* */
      266     1579
      267     1580    2          IF SRDA = FITDA THEN
      268     1581    2             RETURN;
      269     1582
      270     1583    2          N=0;
      271     1584    2          FOUND=0;
      272     1585               %HASH;
      273     1588    3          DO UNTIL (N > 3 OR FOUND = 1);
      274     1589    3             IF FMC$CACHETBL.SRDA(HASH+N) = SRDA AND
      275     1590    3                FMC$CACHETBL.SETX(HASH+N) = SETX THEN
      276     1591    4                DO;   /* REMOVE ENTRY */
      277     1592    4                FOUND=1;
      278     1593    4                IF FMC$CACHETBL.USECNT(HASH+N) = 0 THEN
      279     1594    5                   DO;   /* REMOVE IT */
      280     1595    5                   CALL FMC$REMOVE(HASH+N);
      281     1596    5                   PP=FMC$CACHETBL.PAGE(HASH+N);
      282     1597    5                   FMC$CACHETBL(HASH+N)='0'B;
      283     1598                        %DEC_COUNTER(ITEM=IOCACHE);
      284     1604    5                   CALL MMJ$FIOP(PP);
      285     1605    5                   END;  /* REMOVE IT */
      286     1606    4                ELSE
      287     1607    5                   DO;   /* SHOULDN'T BE A USER */
      288     1608    5                   IF FMC$CACHETBL.FLAGS.ERR(HASH+N) THEN
      289     1609    5                      FOUND=0;   /* JUST IN CASE */
      290     1610    5                   FMC$CACHETBL.FLAGS.ERR(HASH+N)='1'B;
      291     1611    5                   END;  /* SHOULDN'T BE A USER */
      292     1612    4                END;  /* REMOVE ENTRY */
      293     1613    3             N=N+1;
      294     1614    3          END;  /* WHILE */
      295     1615
      296     1616    2          RETURN;
      297     1617    2          END CHECK_CACHE;
      298     1618    1          END FMC$CLRFILE;
      299     1619               %EOD;

PL6.E3A0      #002=FMC$CLRFILE File=FMC$CACHE.:E05TSI                            TUE 07/29/97 16:39 Page:31
--  Include file information  --

   F$DCB.:E05TOU  is referenced.
   B$JIT_C.:E05TOU  is referenced.
   B$JIT.:E05TOU  cannot be made into a system file and is referenced.
   HF_LOCK_C.:E05TOU  cannot be made into a system file and is referenced.
   FM$CFU.:E05TOU  is referenced.
   FM$FIT.:E05TOU  is referenced.
   P_PMDAT_C.:E05TOU  is referenced.
   P_PMDAT_R.:E05TOU  cannot be made into a system file and is referenced.
   FM_DATA_R.:E05TOU  cannot be made into a system file and is referenced.
   FM_CACHE_C.:E05TOU  is referenced.
   FM_CACHE_R.:E05TOU  cannot be made into a system file and is referenced.
      No diagnostics issued in procedure FMC$CLRFILE.

   Procedure FMC$CLRFILE requires 268 words for executable code.
   Procedure FMC$CLRFILE requires 26 words of local(AUTO) storage.

PL6.E3A0      #002=FMC$CLRFILE File=FMC$CACHE.:E05TSI                            TUE 07/29/97 16:39 Page:32

 Object Unit name= FMC$CLRFILE                                File name= FMC$CACHE.:E05TOU
 UTS= JUL 29 '97 16:39:04.16 TUE                              Compiler= PL-6/E31         Sev=      00
 SharedLib= :SHARED_SYSTEM                                    Alt SharedLib=


    ****  Control sections  ****

 Sect   Type Bound  Init  Size OctSiz  Section name(segment info)
    0   Proc  even  none   268    414  FMC$CLRFILE
    1  RoData even  none     1      1  FMC$CLRFILE

    ****  Entry defs  ****

                              Check   Calling
                             calling  sequence
  Sect OctLoc Primary Altret sequence   type   Parms  Name
     0      0   yes            yes      Std        1  FMC$CLRFILE
     0    117                  yes      Std        1  FMC$CLR1
     0    170                  yes      Std        1  FMC$CLR1EXT

  ****  Entry refs  ****

         Check        Calling
        calling       sequence
Altret sequence SRef   type   Args  Name
         yes           Std       1 HFC$LOCK
         yes           Std       1 HFC$UNLOCK
 yes     yes           Std       3 FAF$FRTOSR
         yes           Std       1 FMC$REMOVE
         yes           Std       1 MMJ$FIOP
                       nStd      0 X66_AUTO_1
                       nStd      0 X66_ARET
                       Std       0 B_CONSPOOL_D
PL6.E3A0      #002=FMC$CLRFILE File=FMC$CACHE.:E05TSI                            TUE 07/29/97 16:39 Page:33

  ****  Data refs  ****

  Flags:  r = read only, s = secondary
Flgs Name                             Flgs Name                             Flgs Name
     FMC_CACHE$                            FMC_CACHESIZ                          FMC_CACHEPGCNT$
     FMC_LOCK                              FMC_MASK                         r    FM_SRZERO
     P_RESOURCE$                           P_UPTIME                              P_NSCPU
     B$JIT$                                B_VECTNIL

  ****  Segment refs  ****

  Flags:  r = read only, s = secondary
Flgs Name                             Flgs Name                             Flgs Name
     ISSID
PL6.E3A0      #002=FMC$CLRFILE File=FMC$CACHE.:E05TSI                            TUE 07/29/97 16:39 Page:34


      104        1        /*T***********************************************************/
      105        2        /*T*                                                         */
      106        3        /*T* Copyright (c) Bull HN Information Systems Inc., 1997    */
      107        4        /*T*                                                         */
      108        5        /*T***********************************************************/
      109        6        /*D*     NAME:     FMC$CLRFILE
      110        7                 PURPOSE:  To clear out all DAs associated with a file,
      111        8                           except for the FIT.
      112        9
      113       10                 INPUT:    DA (FMC$CLR1 and FMC$CLR1EXT)
      114       11                 OUTPUT:   The entries associated with the cache are cleared
      115       12                           out.
      116       13
      117       14                 DESCRIPTION:
      118       15
      119       16                 Loop through the CFU extent list searching for all of the
      120       17                 extents associated with the file.  The loop through the
      121       18                 extent, calling CHECK_CACHE to clear out the SRDAs.
      122       19        */
      123       20               %EJECT;
PL6.E3A0      #002=FMC$CLRFILE File=FMC$CACHE.:E05TSI                            TUE 07/29/97 16:39 Page:35
      124       21        FMC$CLRFILE: PROC(PRAM);

     21  0 000000   000000 700200 xent  FMC$CLRFILE  TSX0  ! X66_AUTO_1
         0 000001   000032 000001                    ZERO    26,1

      125       22    1          DCL PRAM(0:1) UBIN;
      126       23        /* */
      127       24               %INCLUDE FM_CACHE_R;
      128       36               %INCLUDE FM_CACHE_C;
      129      102               %INCLUDE FM_DATA_R;
      130      116               %INCLUDE P_PMDAT_R;
      131      424               %INCLUDE FM$FIT;
      132      645               %INCLUDE FM$CFU;
      133      690               %INCLUDE HF_LOCK_C;
      134      704               %INCLUDE B$JIT;
      135     1307               %MACRO F$DCB(BASED=BASED);
      136     1308               %INCLUDE F$DCB;
      137     1357               %MEND;
      138     1358        /* */
      139     1359    1          DCL B$JIT$ PTR SYMREF;
      140     1360        /* */
      141     1361               %F$DCB;
      142     1411               %CODE01(BASED="BASED(EXT$)");
      143     1415               %FM$FIT(BASED="BASED(FPTR$)");
      144     1418               %FMC$CACHE;
      145     1441               %FM$CFU;
      146     1447        /* */
      147     1448    1          DCL FPTR UBIN;
      148     1449    1          DCL FPTR$ REDEF FPTR PTR;
      149     1450        /* */
      150     1451    1          DCL SETX SBIN;
      151     1452    1          DCL SRDA SBIN;
      152     1453    1          DCL SDA SBIN;
      153     1454    1          DCL XTNSIZ SBIN;
      154     1455    1          DCL HASH SBIN;
      155     1456    1          DCL EXT$ PTR;
      156     1457    1          DCL N SBIN;
PL6.E3A0      #002=FMC$CLRFILE File=FMC$CACHE.:E05TSI                            TUE 07/29/97 16:39 Page:36
      157     1458    1          DCL NWORDS SBIN;
      158     1459    1          DCL I SBIN;
      159     1460    1          DCL PP SBIN;
      160     1461    1          DCL TEMP UBIN;
      161     1462    1          DCL FOUND SBIN;
      162     1463    1          DCL FITDA UBIN;
      163     1464    1          DCL 1 XT,
      164     1465    1               2 XTNSIZE UBIN(9) CALIGNED,
      165     1466    1               2 XTNSDA UBIN(27) CALIGNED;
      166     1467        /* */
      167     1468    1          DCL MMJ$FIOP ENTRY(1);
      168     1469    1          DCL FMC$REMOVE ENTRY(1);
      169     1470    1          DCL FAF$FRTOSR ENTRY(3) ALTRET;
      170     1471        /* */
      171     1472    1          IF FMC_CACHESIZ = 0 THEN

   1472  0 000002   000000 235000 xsym               LDA     FMC_CACHESIZ
         0 000003   000005 601000 0                  TNZ     s:1475

      172     1473    1             RETURN;

   1473  0 000004   000000 702200 xent               TSX2  ! X66_ARET

      173     1474
      174     1475    1          SETX=B$JIT.DCB$->F$DCB.SETX;

   1475  0 000005   000000 470400 xsym               LDP0    B$JIT$
         0 000006   000232 471500                    LDP1    154,,PR0
         0 000007   100051 236100                    LDQ     41,,PR1
         0 000010   777777 376007                    ANQ     -1,DL
         0 000011   200005 756100                    STQ     SETX,,AUTO

      175     1476    1          IF B$JIT.DCB$->F$DCB.CFU$ ~= ADDR(NIL) THEN

   1476  0 000012   100066 236100                    LDQ     54,,PR1
         0 000013   000001 116000 xsym               CMPQ    B_VECTNIL+1
         0 000014   000022 600000 0                  TZE     s:1479
PL6.E3A0      #002=FMC$CLRFILE File=FMC$CACHE.:E05TSI                            TUE 07/29/97 16:39 Page:37

      176     1477    1             FITDA=B$JIT.DCB$->F$DCB.CFU$->FM$CFU.FITSDA;

   1477  0 000015   100066 473500                    LDP3    54,,PR1
         0 000016   300000 236100                    LDQ     0,,PR3
         0 000017   000032 376000 xsym               ANQ     B_VECTNIL+26
         0 000020   200021 756100                    STQ     FITDA,,AUTO
         0 000021   000023 710000 0                  TRA     s:1481

      177     1478    1          ELSE
      178     1479    1             FITDA=0;

   1479  0 000022   200021 450100                    STZ     FITDA,,AUTO

      179     1480
      180     1481    1          FPTR=PRAM(0);

   1481  0 000023   200003 473500                    LDP3    @PRAM,,AUTO
         0 000024   300000 235100                    LDA     0,,PR3
         0 000025   200004 755100                    STA     FPTR,,AUTO

      181     1482    1          EXT$=PINCRW(FPTR$, FM$FIT.CODES.ITEMX(1));

   1482  0 000026   200004 474500                    LDP4    FPTR,,AUTO
         0 000027   400001 720100                    LXL0    1,,PR4
         0 000030   001777 360003                    ANX0    1023,DU
         0 000031   000000 636010                    EAQ     0,X0
         0 000032   200004 036100                    ADLQ    FPTR,,AUTO
         0 000033   200012 756100                    STQ     EXT$,,AUTO

      182     1483    1          NWORDS=FM$FIT.CODES.NDW(1)-1;

   1483  0 000034   400001 236100                    LDQ     1,,PR4
         0 000035   000012 772000                    QRL     10
         0 000036   001777 376007                    ANQ     1023,DL
         0 000037   000001 136007                    SBLQ    1,DL
         0 000040   200014 756100                    STQ     NWORDS,,AUTO
PL6.E3A0      #002=FMC$CLRFILE File=FMC$CACHE.:E05TSI                            TUE 07/29/97 16:39 Page:38

      183     1484
      184     1485    1          I=0;

   1485  0 000041   200015 450100                    STZ     I,,AUTO

      185     1486    2          DO WHILE (I < NWORDS);

   1486  0 000042   200015 116100                    CMPQ    I,,AUTO
         0 000043   000116 604400 0                  TMOZ    s:1512

      186     1487    2             SDA=CODE01.XTNT.XTNSDA(I);

   1487  0 000044   200012 470500                    LDP0    EXT$,,AUTO
         0 000045   200015 720100                    LXL0    I,,AUTO
         0 000046   000001 236110                    LDQ     1,X0,PR0
         0 000047   000032 376000 xsym               ANQ     B_VECTNIL+26
         0 000050   200007 756100                    STQ     SDA,,AUTO

      187     1488    2             IF CODE01.XTNT.XTNSIZE(I) = 0 THEN

   1488  0 000051   000001 236110                    LDQ     1,X0,PR0
         0 000052   777000 316003                    CANQ    -512,DU
         0 000053   000061 601000 0                  TNZ     s:1495

      188     1489    3                DO;

      189     1490    3                XTNSIZ=CODE01.EXTNT.XTNSIZE(I);

   1490  0 000054   000002 235110                    LDA     2,X0,PR0
         0 000055   200010 755100                    STA     XTNSIZ,,AUTO

      190     1491    3                I=I+2;

   1491  0 000056   000002 236007                    LDQ     2,DL
         0 000057   200015 056100                    ASQ     I,,AUTO

PL6.E3A0      #002=FMC$CLRFILE File=FMC$CACHE.:E05TSI                            TUE 07/29/97 16:39 Page:39
      191     1492    3                END;

   1492  0 000060   000065 710000 0                  TRA     s:1499

      192     1493    2             ELSE
      193     1494    3                DO;

      194     1495    3                XTNSIZ=CODE01.XTNT.XTNSIZE(I);

   1495  0 000061   000001 236110                    LDQ     1,X0,PR0
         0 000062   000033 772000                    QRL     27
         0 000063   200010 756100                    STQ     XTNSIZ,,AUTO

      195     1496    3                I=I+1;

   1496  0 000064   200015 054100                    AOS     I,,AUTO

      196     1497    3                END;

      197     1498
      198     1499    2             TEMP=SDA+XTNSIZ-1;

   1499  0 000065   200007 236100                    LDQ     SDA,,AUTO
         0 000066   200010 036100                    ADLQ    XTNSIZ,,AUTO
         0 000067   000001 136007                    SBLQ    1,DL
         0 000070   200017 756100                    STQ     TEMP,,AUTO

      199     1500                  %LOCK(G=FMC_LOCK);

   1501  0 000071   000000 630400 1                  EPPR0   0
         0 000072   000017 631400 xsym               EPPR1   B_VECTNIL+15
         0 000073   000000 701000 xent               TSX1    HFC$LOCK
         0 000074   000000 011000                    NOP     0

      200     1503    3             DO SRDA=SDA TO TEMP;

   1503  0 000075   200007 235100                    LDA     SDA,,AUTO
PL6.E3A0      #002=FMC$CLRFILE File=FMC$CACHE.:E05TSI                            TUE 07/29/97 16:39 Page:40
         0 000076   200006 755100                    STA     SRDA,,AUTO
         0 000077   000103 710000 0                  TRA     s:1505+1

      201     1504    3                CALL CHECK_CACHE;

   1504  0 000100   000256 701000 0                  TSX1    CHECK_CACHE
         0 000101   000000 011000                    NOP     0

      202     1505    3             END;

   1505  0 000102   200006 054100                    AOS     SRDA,,AUTO
         0 000103   200017 236100                    LDQ     TEMP,,AUTO
         0 000104   000100 604000 0                  TMI     s:1504
         0 000105   200006 116100                    CMPQ    SRDA,,AUTO
         0 000106   000100 605000 0                  TPL     s:1504

      203     1506                  %UNLOCK(G=FMC_LOCK);

   1507  0 000107   000000 630400 1                  EPPR0   0
         0 000110   000017 631400 xsym               EPPR1   B_VECTNIL+15
         0 000111   000000 701000 xent               TSX1    HFC$UNLOCK
         0 000112   000000 011000                    NOP     0

      204     1509
      205     1510    2          END;  /* WHILE */

   1510  0 000113   200015 236100                    LDQ     I,,AUTO
         0 000114   200014 116100                    CMPQ    NWORDS,,AUTO
         0 000115   000044 604000 0                  TMI     s:1487

      206     1511
      207     1512    1          RETURN;

   1512  0 000116   000000 702200 xent               TSX2  ! X66_ARET

      208     1513               %EJECT;
PL6.E3A0      #002=FMC$CLRFILE File=FMC$CACHE.:E05TSI                            TUE 07/29/97 16:39 Page:41
      209     1514    1   FMC$CLR1: ENTRY(PRAM);

   1514  0 000117   000000 700200 xent  FMC$CLR1     TSX0  ! X66_AUTO_1
         0 000120   000032 000001                    ZERO    26,1

      210     1515        /* */
      211     1516    1          IF FMC_CACHESIZ = 0 THEN

   1516  0 000121   000000 235000 xsym               LDA     FMC_CACHESIZ
         0 000122   000124 601000 0                  TNZ     s:1519

      212     1517    1             RETURN;

   1517  0 000123   000000 702200 xent               TSX2  ! X66_ARET

      213     1518
      214     1519    1          SETX=B$JIT.DCB$->F$DCB.SETX;

   1519  0 000124   000000 470400 xsym               LDP0    B$JIT$
         0 000125   000232 471500                    LDP1    154,,PR0
         0 000126   100051 236100                    LDQ     41,,PR1
         0 000127   777777 376007                    ANQ     -1,DL
         0 000130   200005 756100                    STQ     SETX,,AUTO

      215     1520    1          FITDA=0;

   1520  0 000131   200021 450100                    STZ     FITDA,,AUTO

      216     1521               %LOCK(G=FMC_LOCK);

   1522  0 000132   000000 630400 1                  EPPR0   0
         0 000133   000017 631400 xsym               EPPR1   B_VECTNIL+15
         0 000134   000000 701000 xent               TSX1    HFC$LOCK
         0 000135   000000 011000                    NOP     0

      217     1524    1          SDA=PRAM(0);

PL6.E3A0      #002=FMC$CLRFILE File=FMC$CACHE.:E05TSI                            TUE 07/29/97 16:39 Page:42
   1524  0 000136   200003 470500                    LDP0    @PRAM,,AUTO
         0 000137   000000 235100                    LDA     0,,PR0
         0 000140   200007 755100                    STA     SDA,,AUTO

      218     1525    1          IF SDA < FM_SRZERO THEN

   1525  0 000141   200007 236100                    LDQ     SDA,,AUTO
         0 000142   000145 604000 0                  TMI     s:1526
         0 000143   000000 116000 xsym               CMPQ    FM_SRZERO
         0 000144   000160 603000 0                  TRC     s:1528

      219     1526    1             CALL FAF$FRTOSR(SDA, SRDA, I);

   1526  0 000145   200015 631500                    EPPR1   I,,AUTO
         0 000146   200030 451500                    STP1    XT+6,,AUTO
         0 000147   200006 633500                    EPPR3   SRDA,,AUTO
         0 000150   200027 453500                    STP3    XT+5,,AUTO
         0 000151   200007 634500                    EPPR4   SDA,,AUTO
         0 000152   200026 454500                    STP4    XT+4,,AUTO
         0 000153   200026 630500                    EPPR0   XT+4,,AUTO
         0 000154   000021 631400 xsym               EPPR1   B_VECTNIL+17
         0 000155   000000 701000 xent               TSX1    FAF$FRTOSR
         0 000156   000000 011000                    NOP     0
         0 000157   000161 710000 0                  TRA     s:1529

      220     1527    1          ELSE
      221     1528    1             SRDA=SDA;

   1528  0 000160   200006 756100                    STQ     SRDA,,AUTO

      222     1529    1          CALL CHECK_CACHE;

   1529  0 000161   000256 701000 0                  TSX1    CHECK_CACHE
         0 000162   000000 011000                    NOP     0

      223     1530               %UNLOCK(G=FMC_LOCK);

PL6.E3A0      #002=FMC$CLRFILE File=FMC$CACHE.:E05TSI                            TUE 07/29/97 16:39 Page:43
   1531  0 000163   000000 630400 1                  EPPR0   0
         0 000164   000017 631400 xsym               EPPR1   B_VECTNIL+15
         0 000165   000000 701000 xent               TSX1    HFC$UNLOCK
         0 000166   000000 011000                    NOP     0

      224     1533    1          RETURN;

   1533  0 000167   000000 702200 xent               TSX2  ! X66_ARET

      225     1534               %EJECT;
PL6.E3A0      #002=FMC$CLRFILE File=FMC$CACHE.:E05TSI                            TUE 07/29/97 16:39 Page:44
      226     1535    1   FMC$CLR1EXT: ENTRY(PRAM);

   1535  0 000170   000000 700200 xent  FMC$CLR1EXT  TSX0  ! X66_AUTO_1
         0 000171   000032 000001                    ZERO    26,1

      227     1536        /* */
      228     1537    1          IF FMC_CACHESIZ = 0 THEN

   1537  0 000172   000000 235000 xsym               LDA     FMC_CACHESIZ
         0 000173   000175 601000 0                  TNZ     s:1540

      229     1538    1             RETURN;

   1538  0 000174   000000 702200 xent               TSX2  ! X66_ARET

      230     1539
      231     1540    1          SETX=B$JIT.DCB$->F$DCB.SETX;

   1540  0 000175   000000 470400 xsym               LDP0    B$JIT$
         0 000176   000232 471500                    LDP1    154,,PR0
         0 000177   100051 236100                    LDQ     41,,PR1
         0 000200   777777 376007                    ANQ     -1,DL
         0 000201   200005 756100                    STQ     SETX,,AUTO

      232     1541    1          IF B$JIT.DCB$->F$DCB.CFU$ ~= ADDR(NIL) THEN

   1541  0 000202   100066 236100                    LDQ     54,,PR1
         0 000203   000001 116000 xsym               CMPQ    B_VECTNIL+1
         0 000204   000212 600000 0                  TZE     s:1544

      233     1542    1             FITDA=B$JIT.DCB$->F$DCB.CFU$->FM$CFU.FITSDA;

   1542  0 000205   100066 473500                    LDP3    54,,PR1
         0 000206   300000 236100                    LDQ     0,,PR3
         0 000207   000032 376000 xsym               ANQ     B_VECTNIL+26
         0 000210   200021 756100                    STQ     FITDA,,AUTO
         0 000211   000213 710000 0                  TRA     s:1546
PL6.E3A0      #002=FMC$CLRFILE File=FMC$CACHE.:E05TSI                            TUE 07/29/97 16:39 Page:45

      234     1543    1          ELSE
      235     1544    1             FITDA=0;

   1544  0 000212   200021 450100                    STZ     FITDA,,AUTO

      236     1545               %LOCK(G=FMC_LOCK);

   1546  0 000213   000000 630400 1                  EPPR0   0
         0 000214   000017 631400 xsym               EPPR1   B_VECTNIL+15
         0 000215   000000 701000 xent               TSX1    HFC$LOCK
         0 000216   000000 011000                    NOP     0

      237     1548
      238     1549    1          XT=BINBIT(PRAM(0), 36);

   1549  0 000217   200003 470500                    LDP0    @PRAM,,AUTO
         0 000220   000000 236100                    LDQ     0,,PR0
         0 000221   200022 756100                    STQ     XT,,AUTO

      239     1550    1          SDA=XT.XTNSDA;

   1550  0 000222   200022 236100                    LDQ     XT,,AUTO
         0 000223   000032 376000 xsym               ANQ     B_VECTNIL+26
         0 000224   200007 756100                    STQ     SDA,,AUTO

      240     1551    1          IF XT.XTNSIZE = 0 THEN

   1551  0 000225   200022 236100                    LDQ     XT,,AUTO
         0 000226   777000 316003                    CANQ    -512,DU
         0 000227   000233 601000 0                  TNZ     s:1554

      241     1552    1             XTNSIZ=PRAM(1);

   1552  0 000230   000001 235100                    LDA     1,,PR0
         0 000231   200010 755100                    STA     XTNSIZ,,AUTO
         0 000232   000236 710000 0                  TRA     s:1556
PL6.E3A0      #002=FMC$CLRFILE File=FMC$CACHE.:E05TSI                            TUE 07/29/97 16:39 Page:46

      242     1553    1          ELSE
      243     1554    1             XTNSIZ=XT.XTNSIZE;

   1554  0 000233   200022 236100                    LDQ     XT,,AUTO
         0 000234   000033 772000                    QRL     27
         0 000235   200010 756100                    STQ     XTNSIZ,,AUTO

      244     1555
      245     1556    2          DO I=0 TO XTNSIZ-1;

   1556  0 000236   200015 450100                    STZ     I,,AUTO
         0 000237   000246 710000 0                  TRA     s:1559+1

      246     1557    2             SRDA=SDA+I;

   1557  0 000240   200007 236100                    LDQ     SDA,,AUTO
         0 000241   200015 036100                    ADLQ    I,,AUTO
         0 000242   200006 756100                    STQ     SRDA,,AUTO

      247     1558    2             CALL CHECK_CACHE;

   1558  0 000243   000256 701000 0                  TSX1    CHECK_CACHE
         0 000244   000000 011000                    NOP     0

      248     1559    2          END;  /* DO I */

   1559  0 000245   200015 054100                    AOS     I,,AUTO
         0 000246   200015 236100                    LDQ     I,,AUTO
         0 000247   200010 116100                    CMPQ    XTNSIZ,,AUTO
         0 000250   000240 604000 0                  TMI     s:1557

      249     1560
      250     1561               %UNLOCK(G=FMC_LOCK);

   1562  0 000251   000000 630400 1                  EPPR0   0
         0 000252   000017 631400 xsym               EPPR1   B_VECTNIL+15
PL6.E3A0      #002=FMC$CLRFILE File=FMC$CACHE.:E05TSI                            TUE 07/29/97 16:39 Page:47
         0 000253   000000 701000 xent               TSX1    HFC$UNLOCK
         0 000254   000000 011000                    NOP     0

      251     1564    1          RETURN;

   1564  0 000255   000000 702200 xent               TSX2  ! X66_ARET

      252     1565               %EJECT;
PL6.E3A0      #002=FMC$CLRFILE File=FMC$CACHE.:E05TSI                            TUE 07/29/97 16:39 Page:48
      253     1566        /*I*     NAME:     CHECK_CACHE
      254     1567                 PURPOSE:  To clear out SRDA from the cache.
      255     1568
      256     1569                 DESCRIPTION:
      257     1570
      258     1571                 Hash to a row.  Then loop through the row until we hit the
      259     1572                 end, or find the entry.  If we find it, throw the entry
      260     1573                 away.  If someone else is using it, it is an error, mark
      261     1574                 the cache entry, and then return
      262     1575        */
      263     1576               %EJECT;
PL6.E3A0      #002=FMC$CLRFILE File=FMC$CACHE.:E05TSI                            TUE 07/29/97 16:39 Page:49
      264     1577    1   CHECK_CACHE: PROC;

   1577  0 000256   200024 741300       CHECK_CACHE  STX1  ! XT+2,,AUTO

      265     1578        /* */
      266     1579
      267     1580    2          IF SRDA = FITDA THEN

   1580  0 000257   200006 236100                    LDQ     SRDA,,AUTO
         0 000260   000264 604000 0                  TMI     s:1583
         0 000261   200021 116100                    CMPQ    FITDA,,AUTO
         0 000262   000264 601000 0                  TNZ     s:1583

      268     1581    2             RETURN;

   1581  0 000263   000001 702211                    TSX2  ! 1,X1

      269     1582
      270     1583    2          N=0;

   1583  0 000264   200013 450100                    STZ     N,,AUTO

      271     1584    2          FOUND=0;

   1584  0 000265   200020 450100                    STZ     FOUND,,AUTO

      272     1585               %HASH;

   1586  0 000266   200005 036100                    ADLQ    SETX,,AUTO
         0 000267   000000 376000 xsym               ANQ     FMC_MASK
         0 000270   000002 736000                    QLS     2
         0 000271   000001 036007                    ADLQ    1,DL
         0 000272   200011 756100                    STQ     HASH,,AUTO

      273     1588    3          DO UNTIL (N > 3 OR FOUND = 1);

      274     1589    3             IF FMC$CACHETBL.SRDA(HASH+N) = SRDA AND
PL6.E3A0      #002=FMC$CLRFILE File=FMC$CACHE.:E05TSI                            TUE 07/29/97 16:39 Page:50

   1589  0 000273   200011 236100                    LDQ     HASH,,AUTO
         0 000274   200013 036100                    ADLQ    N,,AUTO
         0 000275   000006 402007                    MPY     6,DL
         0 000276   000000 470400 xsym               LDP0    FMC_CACHE$
         0 000277   000000 236106                    LDQ     0,QL,PR0
         0 000300   000032 376000 xsym               ANQ     B_VECTNIL+26
         0 000301   200006 116100                    CMPQ    SRDA,,AUTO
         0 000302   000403 601000 0                  TNZ     s:1613
         0 000303   200011 236100                    LDQ     HASH,,AUTO
         0 000304   200013 036100                    ADLQ    N,,AUTO
         0 000305   000006 402007                    MPY     6,DL
         0 000306   000004 236106                    LDQ     4,QL,PR0
         0 000307   000022 772000                    QRL     18
         0 000310   200005 116100                    CMPQ    SETX,,AUTO
         0 000311   000403 601000 0                  TNZ     s:1613

      275     1590    3                FMC$CACHETBL.SETX(HASH+N) = SETX THEN
      276     1591    4                DO;   /* REMOVE ENTRY */

      277     1592    4                FOUND=1;

   1592  0 000312   000001 235007                    LDA     1,DL
         0 000313   200020 755100                    STA     FOUND,,AUTO

      278     1593    4                IF FMC$CACHETBL.USECNT(HASH+N) = 0 THEN

   1593  0 000314   200011 236100                    LDQ     HASH,,AUTO
         0 000315   200013 036100                    ADLQ    N,,AUTO
         0 000316   000006 402007                    MPY     6,DL
         0 000317   000002 720106                    LXL0    2,QL,PR0
         0 000320   000366 601000 0                  TNZ     s:1608

      279     1594    5                   DO;   /* REMOVE IT */

      280     1595    5                   CALL FMC$REMOVE(HASH+N);

PL6.E3A0      #002=FMC$CLRFILE File=FMC$CACHE.:E05TSI                            TUE 07/29/97 16:39 Page:51
   1595  0 000321   200011 236100                    LDQ     HASH,,AUTO
         0 000322   200013 036100                    ADLQ    N,,AUTO
         0 000323   200026 756100                    STQ     XT+4,,AUTO
         0 000324   200026 631500                    EPPR1   XT+4,,AUTO
         0 000325   200027 451500                    STP1    XT+5,,AUTO
         0 000326   200027 630500                    EPPR0   XT+5,,AUTO
         0 000327   000017 631400 xsym               EPPR1   B_VECTNIL+15
         0 000330   000000 701000 xent               TSX1    FMC$REMOVE
         0 000331   000000 011000                    NOP     0

      281     1596    5                   PP=FMC$CACHETBL.PAGE(HASH+N);

   1596  0 000332   200011 236100                    LDQ     HASH,,AUTO
         0 000333   200013 036100                    ADLQ    N,,AUTO
         0 000334   000006 402007                    MPY     6,DL
         0 000335   000000 470400 xsym               LDP0    FMC_CACHE$
         0 000336   000002 236106                    LDQ     2,QL,PR0
         0 000337   000022 772000                    QRL     18
         0 000340   200016 756100                    STQ     PP,,AUTO

      282     1597    5                   FMC$CACHETBL(HASH+N)='0'B;

   1597  0 000341   200011 236100                    LDQ     HASH,,AUTO
         0 000342   200013 036100                    ADLQ    N,,AUTO
         0 000343   000030 402007                    MPY     24,DL
         0 000344   000106 100400                    MLR     fill='000'O
         0 000345   000002 000001 xsym               ADSC9   B_VECTNIL+2              cn=0,n=1
         0 000346   000000 000030                    ADSC9   0,Q,PR0                  cn=0,n=24

      283     1598                        %DEC_COUNTER(ITEM=IOCACHE);

   1599  0 000347   000000 470400 xsym               LDP0    P_RESOURCE$
         0 000350   000055 235100                    LDA     45,,PR0
         0 000351   000001 135007                    SBLA    1,DL
         0 000352   000055 755100                    STA     45,,PR0

   1600  0 000353   000055 236100                    LDQ     45,,PR0
PL6.E3A0      #002=FMC$CLRFILE File=FMC$CACHE.:E05TSI                            TUE 07/29/97 16:39 Page:52
         0 000354   000057 116100                    CMPQ    47,,PR0
         0 000355   000357 603000 0                  TRC     s:1604

   1602  0 000356   000057 756100                    STQ     47,,PR0

      284     1604    5                   CALL MMJ$FIOP(PP);

   1604  0 000357   200016 631500                    EPPR1   PP,,AUTO
         0 000360   200026 451500                    STP1    XT+4,,AUTO
         0 000361   200026 630500                    EPPR0   XT+4,,AUTO
         0 000362   000017 631400 xsym               EPPR1   B_VECTNIL+15
         0 000363   000000 701000 xent               TSX1    MMJ$FIOP
         0 000364   000000 011000                    NOP     0

      285     1605    5                   END;  /* REMOVE IT */

   1605  0 000365   000403 710000 0                  TRA     s:1613

      286     1606    4                ELSE
      287     1607    5                   DO;   /* SHOULDN'T BE A USER */

      288     1608    5                   IF FMC$CACHETBL.FLAGS.ERR(HASH+N) THEN

   1608  0 000366   200011 236100                    LDQ     HASH,,AUTO
         0 000367   200013 036100                    ADLQ    N,,AUTO
         0 000370   000006 402007                    MPY     6,DL
         0 000371   000004 236106                    LDQ     4,QL,PR0
         0 000372   000002 316007                    CANQ    2,DL
         0 000373   000375 600000 0                  TZE     s:1610

      289     1609    5                      FOUND=0;   /* JUST IN CASE */

   1609  0 000374   200020 450100                    STZ     FOUND,,AUTO

      290     1610    5                   FMC$CACHETBL.FLAGS.ERR(HASH+N)='1'B;

   1610  0 000375   200011 236100                    LDQ     HASH,,AUTO
PL6.E3A0      #002=FMC$CLRFILE File=FMC$CACHE.:E05TSI                            TUE 07/29/97 16:39 Page:53
         0 000376   200013 036100                    ADLQ    N,,AUTO
         0 000377   000006 402007                    MPY     6,DL
         0 000400   000000 620006                    EAX0    0,QL
         0 000401   000002 236007                    LDQ     2,DL
         0 000402   000004 256110                    ORSQ    4,X0,PR0

      291     1611    5                   END;  /* SHOULDN'T BE A USER */

      292     1612    4                END;  /* REMOVE ENTRY */

      293     1613    3             N=N+1;

   1613  0 000403   200013 054100                    AOS     N,,AUTO

      294     1614    3          END;  /* WHILE */

   1614  0 000404   200013 235100                    LDA     N,,AUTO
         0 000405   000003 115007                    CMPA    3,DL
         0 000406   000412 605400 0                  TPNZ    s:1616
         0 000407   200020 236100                    LDQ     FOUND,,AUTO
         0 000410   000001 116007                    CMPQ    1,DL
         0 000411   000273 601000 0                  TNZ     s:1589

      295     1615
      296     1616    2          RETURN;

   1616  0 000412   200024 221300                    LDX1  ! XT+2,,AUTO
         0 000413   000001 702211                    TSX2  ! 1,X1

(unnamed)
 Sect OctLoc
   1     000   000000 006000                                                    ....
      297     1617    2          END CHECK_CACHE;
      298     1618    1          END FMC$CLRFILE;
      299     1619               %EOD;

PL6.E3A0      #002=FMC$CLRFILE File=FMC$CACHE.:E05TSI                            TUE 07/29/97 16:39 Page:54
--  Include file information  --

   F$DCB.:E05TOU  is referenced.
   B$JIT_C.:E05TOU  is referenced.
   B$JIT.:E05TOU  cannot be made into a system file and is referenced.
   HF_LOCK_C.:E05TOU  cannot be made into a system file and is referenced.
   FM$CFU.:E05TOU  is referenced.
   FM$FIT.:E05TOU  is referenced.
   P_PMDAT_C.:E05TOU  is referenced.
   P_PMDAT_R.:E05TOU  cannot be made into a system file and is referenced.
   FM_DATA_R.:E05TOU  cannot be made into a system file and is referenced.
   FM_CACHE_C.:E05TOU  is referenced.
   FM_CACHE_R.:E05TOU  cannot be made into a system file and is referenced.
      No diagnostics issued in procedure FMC$CLRFILE.
PL6.E3A0      #002=FMC$CLRFILE File=FMC$CACHE.:E05TSI                            TUE 07/29/97 16:39 Page:55

 **** Variables and constants ****

  ****  Auto variables  ****

  ****  Scalars and arrays  ****
OctLoc.c.b A Datatyp(siz) R M Lvl/name                 OctLoc.c.b A Datatyp(siz) R M Lvl/name

     3-0-0/w PTR         r     1 @PRAM                     12-0-0/w PTR         r     1 EXT$
    21-0-0/w UBIN        r     1 FITDA                     20-0-0/w SBIN        r     1 FOUND
     4-0-0/w UBIN        r     1 FPTR                       4-0-0/w PTR         r     1 FPTR$
    11-0-0/w SBIN        r     1 HASH                      15-0-0/w SBIN        r     1 I
    13-0-0/w SBIN        r     1 N                         14-0-0/w SBIN        r     1 NWORDS
    16-0-0/w SBIN        r     1 PP                        *0-0-0/w UBIN        r     1 PRAM(0:1)
     7-0-0/w SBIN        r     1 SDA                        5-0-0/w SBIN        r     1 SETX
     6-0-0/w SBIN        r     1 SRDA                      17-0-0/w UBIN        r     1 TEMP
    22-0-0/c STRC        r     1 XT                        10-0-0/w SBIN        r     1 XTNSIZ

  ****  SYMREF variables  ****

  ****  Scalars and arrays  ****
OctLoc.c.b A Datatyp(siz) R M Lvl/name                 OctLoc.c.b A Datatyp(siz) R M Lvl/name

     0-0-0/w PTR         r     1 B$JIT$                     0-0-0/w PTR         r     1 FMC_CACHE$
     0-0-0/w PTR         r     1 FMC_CACHEPGCNT$            0-0-0/w SBIN        r     1 FMC_CACHESIZ
     0-0-0/b BIT (72)    r     1 FMC_LOCK                   0-0-0/b BIT         r     1 FMC_MASK
     0-0-0/w UBIN        r     1 FM_SRZERO                  0-0-0/w PTR         r     1 P_RESOURCE$

  ****  BASED and DCB variables  ****

  ****  Scalars and arrays  ****
OctLoc.c.b A Datatyp(siz) R M Lvl/name                 OctLoc.c.b A Datatyp(siz) R M Lvl/name

     0-0-0/d STRC(8856)  r     1 B$JIT                      0-0-0/w STRC(576)   r     1 CODE01
     0-0-0/d ASTR(3528)  r     1 F$DCB                      0-0-0/w STRC(288)   r     1 FM$CFU
     0-0-0/w STRC(1116)  r     1 FM$FIT
     0-0-0/w STRC(216)   r     1 FMC$CACHETBL(0:0)
     0-0-0/w STRC(2268)  r     1 P_RESOURCE
PL6.E3A0      #002=FMC$CLRFILE File=FMC$CACHE.:E05TSI                            TUE 07/29/97 16:39 Page:56


   Procedure FMC$CLRFILE requires 268 words for executable code.
   Procedure FMC$CLRFILE requires 26 words of local(AUTO) storage.
PL6.E3A0      #002=FMC$CLRFILE File=FMC$CACHE.:E05TSI                            TUE 07/29/97 16:39 Page:57
          *** CROSS REFERENCE LISTING ***
**     DENOTES     IDENTIFIER DEFINITION
<<                 IDENTIFIER'S VALUE SET
>>                 IDENTIFIER'S VALUE USED
<>                 IDENTIFIER SET AND/OR USED
--                 IDENTIFIER REFERENCED
PL6.E3A0      #002=FMC$CLRFILE File=FMC$CACHE.:E05TSI                            TUE 07/29/97 16:39 Page:58
          MINI XREF LISTING

B$JIT.CPFLAGS1.SLEAZE
      1125**DCL      1125--REDEF
B$JIT.DCB$
      1199**DCL      1475>>ASSIGN   1476>>IF       1477>>ASSIGN   1519>>ASSIGN   1540>>ASSIGN   1541>>IF
      1542>>ASSIGN
B$JIT.ERR.MID
      1032**DCL      1032--REDEF
B$JIT.JRESPEAK
      1193**DCL      1194--REDEF
B$JIT.ORIGINATOR_PORT.FROM_CR
      1302**DCL      1302--REDEF    1303--REDEF
B$JIT.PNR
      1206**DCL      1206--REDEF
B$JIT.TSLINE
      1300**DCL      1301--REDEF
B$JIT$
      1359**DCL      1026--IMP-PTR  1475>>ASSIGN   1476>>IF       1477>>ASSIGN   1519>>ASSIGN   1540>>ASSIGN
      1541>>IF       1542>>ASSIGN
CHECK_CACHE
      1577**PROC     1504--CALL     1529--CALL     1558--CALL
CODE01.EXTNT.XTNSIZE
      1413**DCL      1490>>ASSIGN
CODE01.XTNT
      1412**DCL      1413--REDEF
CODE01.XTNT.XTNSDA
      1412**DCL      1487>>ASSIGN
CODE01.XTNT.XTNSIZE
      1412**DCL      1488>>IF       1495>>ASSIGN
EXT$
      1456**DCL      1412--IMP-PTR  1482<<ASSIGN   1487>>ASSIGN   1488>>IF       1490>>ASSIGN   1495>>ASSIGN
F$DCB.ACTPOS
      1387**DCL      1387--REDEF
PL6.E3A0      #002=FMC$CLRFILE File=FMC$CACHE.:E05TSI                            TUE 07/29/97 16:39 Page:59
F$DCB.ARS
      1362**DCL      1362--REDEF
F$DCB.ATTR
      1380**DCL      1381--REDEF
F$DCB.BORROW
      1395**DCL      1395--REDEF    1395--REDEF    1395--REDEF
F$DCB.CFU$
      1396**DCL      1476>>IF       1477>>ASSIGN   1541>>IF       1542>>ASSIGN
F$DCB.DCBNAME.L
      1409**DCL      1409--IMP-SIZ
F$DCB.EOMCHAR
      1366**DCL      1366--REDEF
F$DCB.FLDID
      1390**DCL      1390--REDEF
F$DCB.FORM$
      1384**DCL      1384--REDEF
F$DCB.FSECT
      1400**DCL      1400--REDEF
F$DCB.FSN
      1377**DCL      1377--REDEF    1377--REDEF    1378--REDEF
F$DCB.HEADER$
      1383**DCL      1383--REDEF
F$DCB.IXTNSIZE
      1381**DCL      1381--REDEF
F$DCB.LASTSTA$
      1371**DCL      1371--REDEF
F$DCB.LVL
      1396**DCL      1396--REDEF
F$DCB.NAME.C
      1371**DCL      1371--REDEF
F$DCB.NOEOF
      1392**DCL      1392--REDEF
F$DCB.NRECS
      1382**DCL      1382--REDEF
F$DCB.NRECX
      1401**DCL      1401--REDEF
PL6.E3A0      #002=FMC$CLRFILE File=FMC$CACHE.:E05TSI                            TUE 07/29/97 16:39 Page:60
F$DCB.OHDR
      1393**DCL      1393--REDEF
F$DCB.ORG
      1376**DCL      1376--REDEF
F$DCB.PRECNO
      1399**DCL      1399--REDEF
F$DCB.RCSZ
      1404**DCL      1404--REDEF
F$DCB.RES
      1372**DCL      1372--REDEF
F$DCB.SETX
      1384**DCL      1384--REDEF    1475>>ASSIGN   1519>>ASSIGN   1540>>ASSIGN
F$DCB.TAB$
      1383**DCL      1384--REDEF
F$DCB.TDA
      1398**DCL      1398--REDEF
F$DCB.WSN
      1373**DCL      1373--REDEF
FAF$FRTOSR
      1470**DCL-ENT  1526--CALL
FITDA
      1463**DCL      1477<<ASSIGN   1479<<ASSIGN   1520<<ASSIGN   1542<<ASSIGN   1544<<ASSIGN   1580>>IF
FM$CFU.ACCTX
      1443**DCL      1443--REDEF
FM$CFU.FITSDA
      1443**DCL      1477>>ASSIGN   1542>>ASSIGN
FM$FIT.CODES.ITEMX
      1416**DCL      1482>>ASSIGN
FM$FIT.CODES.NDW
      1416**DCL      1483>>ASSIGN
FMC$CACHETBL
      1420**DCL      1597<<ASSIGN
FMC$CACHETBL.FLAGS.ERR
      1437**DCL      1608>>IF       1610<<ASSIGN
FMC$CACHETBL.PAGE
      1428**DCL      1596>>ASSIGN
PL6.E3A0      #002=FMC$CLRFILE File=FMC$CACHE.:E05TSI                            TUE 07/29/97 16:39 Page:61
FMC$CACHETBL.SETX
      1431**DCL      1589>>IF
FMC$CACHETBL.SRDA
      1425**DCL      1589>>IF
FMC$CACHETBL.USECNT
      1429**DCL      1593>>IF
FMC$REMOVE
      1469**DCL-ENT  1595--CALL
FMC_CACHE$
        32**DCL      1420--IMP-PTR  1589>>IF       1589>>IF       1593>>IF       1596>>ASSIGN   1597>>ASSIGN
      1608>>IF       1610>>ASSIGN
FMC_CACHEPGCNT$
        33**DCL        33--IMP-PTR    33--REDEF
FMC_CACHESIZ
        32**DCL      1472>>IF       1516>>IF       1537>>IF
FMC_LOCK
        34**DCL      1501<>CALL     1507<>CALL     1522<>CALL     1531<>CALL     1546<>CALL     1562<>CALL
FMC_MASK
        34**DCL      1586>>ASSIGN
FM_SRZERO
       110**DCL      1525>>IF
FOUND
      1462**DCL      1584<<ASSIGN   1588>>DOUNTIL  1592<<ASSIGN   1609<<ASSIGN
FPTR
      1448**DCL      1449--REDEF    1481<<ASSIGN
FPTR$
      1449**DCL      1416--IMP-PTR  1482>>ASSIGN   1482>>ASSIGN   1483>>ASSIGN
HASH
      1455**DCL      1586<<ASSIGN   1589>>IF       1589>>IF       1593>>IF       1595>>CALL     1596>>ASSIGN
      1597>>ASSIGN   1608>>IF       1610>>ASSIGN
HFC$LOCK
       703**DCL-ENT  1501--CALL     1522--CALL     1546--CALL
HFC$UNLOCK
       703**DCL-ENT  1507--CALL     1531--CALL     1562--CALL
I
      1459**DCL      1485<<ASSIGN   1486>>DOWHILE  1487>>ASSIGN   1488>>IF       1490>>ASSIGN   1491<<ASSIGN
PL6.E3A0      #002=FMC$CLRFILE File=FMC$CACHE.:E05TSI                            TUE 07/29/97 16:39 Page:62
      1491>>ASSIGN   1495>>ASSIGN   1496<<ASSIGN   1496>>ASSIGN   1526<>CALL     1556<<DOINDEX  1557>>ASSIGN
MMJ$FIOP
      1468**DCL-ENT  1604--CALL
N
      1457**DCL      1583<<ASSIGN   1588>>DOUNTIL  1589>>IF       1589>>IF       1593>>IF       1595>>CALL
      1596>>ASSIGN   1597>>ASSIGN   1608>>IF       1610>>ASSIGN   1613<<ASSIGN   1613>>ASSIGN
NWORDS
      1458**DCL      1483<<ASSIGN   1486>>DOWHILE
PP
      1460**DCL      1596<<ASSIGN   1604<>CALL
PRAM
        22**DCL        21--PROC     1481>>ASSIGN   1514--ENTRY    1524>>ASSIGN   1535--ENTRY    1549>>ASSIGN
      1552>>ASSIGN
P_NSCPU
       404**DCL       405--REDEF
P_RESOURCE.RES
       277**DCL       344--REDEF
P_RESOURCE.RES.IOCACHE.CURRENT
       306**DCL      1599<<ASSIGN   1599>>ASSIGN   1600>>IF       1602>>ASSIGN
P_RESOURCE.RES.IOCACHE.MIN
       308**DCL      1600>>IF       1602<<ASSIGN
P_RESOURCE$
       357**DCL       245--IMP-PTR  1599>>ASSIGN   1599>>ASSIGN   1600>>IF       1600>>IF       1602>>ASSIGN
      1602>>ASSIGN
P_UPTIME
       393**DCL       394--REDEF
SDA
      1453**DCL      1487<<ASSIGN   1499>>ASSIGN   1503>>DOINDEX  1524<<ASSIGN   1525>>IF       1526<>CALL
      1528>>ASSIGN   1550<<ASSIGN   1557>>ASSIGN
SETX
      1451**DCL      1475<<ASSIGN   1519<<ASSIGN   1540<<ASSIGN   1586>>ASSIGN   1589>>IF
SRDA
      1452**DCL      1503<<DOINDEX  1526<>CALL     1528<<ASSIGN   1557<<ASSIGN   1580>>IF       1586>>ASSIGN
      1589>>IF
TEMP
      1461**DCL      1499<<ASSIGN   1503>>DOINDEX
PL6.E3A0      #002=FMC$CLRFILE File=FMC$CACHE.:E05TSI                            TUE 07/29/97 16:39 Page:63
XT
      1464**DCL      1549<<ASSIGN
XT.XTNSDA
      1466**DCL      1550>>ASSIGN
XT.XTNSIZE
      1465**DCL      1551>>IF       1554>>ASSIGN
XTNSIZ
      1454**DCL      1490<<ASSIGN   1495<<ASSIGN   1499>>ASSIGN   1552<<ASSIGN   1554<<ASSIGN   1556>>DOINDEX
PL6.E3A0      #002=FMC$CLRFILE File=FMC$CACHE.:E05TSI                            TUE 07/29/97 16:39 Page:64
              *** CROSS REFERENCE LISTING ***
    **     DENOTES     IDENTIFIER DEFINITION
    <<                 IDENTIFIER'S VALUE SET
    >>                 IDENTIFIER'S VALUE USED
    <>                 IDENTIFIER SET AND/OR USED
    --                 IDENTIFIER REFERENCED
PL6.E3A0      #002=FMC$CLRFILE File=FMC$CACHE.:E05TSI                            TUE 07/29/97 16:39 Page:65
              MINI UREF LISTING

F$CFU$     113**DCL
FM$SET$     114**DCL
FMC$CACHEPGCNT      33**DCL
FMC$CLR1    1514**ENTRY
FMC$CLR1EXT    1535**ENTRY
FMC$CLRFILE      21**PROC
FMC_CACHEPGCNT      33**DCL
FMC_CACHEPGCNT$R      33**DCL
FMC_CACHESIZN      32**DCL
FMC_MASKTBL      34**DCL
FMC_STATS$      32**DCL
FMC_TYPTBL$      32**DCL
FM_CFUWAIT     113**DCL
FM_CFUWGRB     113**DCL
FM_EOP     111**DCL
FM_FRMAX     110**DCL
FM_FRZERO     110**DCL
FM_GCT     114**DCL
FM_GIP     114**DCL
FM_GPSDA     111**DCL
FM_HASH     112**DCL
FM_MADSDA     111**DCL
FM_PADSDA     111**DCL
FM_SRMAX     110**DCL
FM_SYSACCTX     114**DCL
FM_SYSSETX     114**DCL
FM_TRUNC     112**DCL
FM_WSQ     112**DCL
F_CWLK     113**DCL
F_CWUSER     113**DCL
F_DCBLOCK     112**DCL
P$IODATA     358**DCL
PL6.E3A0      #002=FMC$CLRFILE File=FMC$CACHE.:E05TSI                            TUE 07/29/97 16:39 Page:66
P$TABLE     367**DCL
PH_CPU_MOUSED     422**DCL
PH_JIT_ENTRY     418**DCL
PH_MOUSE_ENTRY     414**DCL
PH_MOUSE_LOCK     421**DCL
PH_MOUSE_USERS     411**DCL
PH_MOUSE_USER_NUMBER     423**DCL
PH_MUS_PAGES     413**DCL
P_AUIS     399**DCL
P_AVAIL_MEM     406**DCL
P_AVGAVAIL_MEM     407**DCL
P_AVGETMF     396**DCL
P_AVGIOL     398**DCL
P_AVGRT90     395**DCL
P_CALCNT     383**DCL
P_CALCOMP     384**DCL
P_DCTXMAX     400**DCL
P_ETMF     377**DCL
P_GATE     403**DCL
P_IOLOAD     397**DCL
P_IOS     392**DCL
P_NINTS     378**DCL
P_NOW     402**DCL
P_NSCPU_SBIN     405**DCL
P_RT90     379**DCL
P_RUE#     375**DCL
P_SCHD#     376**DCL
P_STARTUP     380**DCL
P_STOPTIME     401**DCL
P_S_MIDLTIME     388**DCL
P_S_MIDLWIO     389**DCL
P_S_MIDLWRES     390**DCL
P_S_MIDLWRESIO     391**DCL
P_S_MXEQTIME     387**DCL
P_S_USRVTIME     386**DCL
P_S_UXEQTIME     385**DCL
PL6.E3A0      #002=FMC$CLRFILE File=FMC$CACHE.:E05TSI                            TUE 07/29/97 16:39 Page:67
P_UPTIME_SBIN     394**DCL
P_USRVTIME     382**DCL
P_UXEQTIME     381**DCL
WORD_     412**DCL

PL6.E3A0      #003=FMC$EA File=FMC$CACHE.:E05TSI                                 TUE 07/29/97 16:39 Page:68
      300        1        /*T***********************************************************/
      301        2        /*T*                                                         */
      302        3        /*T* Copyright (c) Bull HN Information Systems Inc., 1997    */
      303        4        /*T*                                                         */
      304        5        /*T***********************************************************/
      305        6        /*D*     NAME:     FMC$EA
      306        7                 PURPOSE:  End action routine for cache writes.
      307        8                 INPUT:    N$REQ - end action packet
      308        9
      309       10                 DESCRIPTION:
      310       11
      311       12                      If the buffer has been updated again while we were
      312       13                 writing the page out, then we need to write it again.
      313       14                      Otherwise, if there are no users on the page, then we
      314       15                 add the page to the linked list.  If the expire time is
      315       16                 zero, then we don't cache any pages, we just release it.
      316       17        */
      317       18                 %EJECT;
PL6.E3A0      #003=FMC$EA File=FMC$CACHE.:E05TSI                                 TUE 07/29/97 16:39 Page:69
      318       19        FMC$EA: PROC(N$REQ);
      319       20               %INCLUDE N$REQ;
      320       94               %INCLUDE FM_CACHE_R;
      321      106               %INCLUDE FM_CACHE_C;
      322      172               %INCLUDE FM_CNTRL_R;
      323      181               %INCLUDE FM_BUF_R;
      324      190               %INCLUDE FM$MACROS;
      325      565               %INCLUDE B_STRINGS_C;
      326      694               %INCLUDE B_MLSMAC_C;
      327     1636               %INCLUDE HF_LOCK_C;
      328     1650               %INCLUDE N_FC_C;
      329     1687               %INCLUDE P_PMDAT_R;
      330     1995        /* */
      331     1996    1          DCL B$LS$ PTR SYMREF;
      332     1997    1          DCL B$MISC$ PTR SYMREF READONLY;
      333     1998        /* */
      334     1999               %N$REQ(STCLASS="");
      335     2057               %FMC$CACHE;
      336     2080               %FMC$CACHE(FPTN=FMC$CACHE, ARRAY=NO, STCLASS="BASED(CACHE$)");
      337     2103               %FMC$TYPTBL;
      338     2108               %FM$GRAN(BASED="BASED(BUF$)");
      339     2112               %B_MLS(FPTN=B$MLNK, STCLASS=BASED);
      340     2927        /* */
      341     2928    1          DCL 1 DESCINIT CONSTANT,
      342     2929    1               2 BOUND UBIN(20) UNAL INIT(4095),  /* FRAME A PAGE */
      343     2930    1               2 FLGS BIT(3) INIT('7'O),          /* ALLOW READ/WRITE */
      344     2931    1               2 WSQ UBIN(9) UNAL INIT(0),        /* REAL PAGE NO */
      345     2932    1               2 TYP UBIN(4) UNAL INIT(2);        /* WSQ TYPE DESC */
      346     2933        /* */
      347     2934    1          DCL CACHE$ PTR;
      348     2935    1          DCL 1 EAINFO,
      349     2936    1               2 HASH UBIN(18) HALIGNED,
      350     2937    1               2 * UBIN(18) HALIGNED;
      351     2938    1          DCL EAINFOWD REDEF EAINFO SBIN;
      352     2939    1          DCL PP SBIN;
      353     2940    1          DCL HASH SBIN;
      354     2941    1          DCL BUF$ PTR;
PL6.E3A0      #003=FMC$EA File=FMC$CACHE.:E05TSI                                 TUE 07/29/97 16:39 Page:70
      355     2942    1          DCL VPNO SBIN;
      356     2943        /* */
      357     2944    1          DCL FMC$ADD ENTRY(1);
      358     2945    1          DCL FMC$REMOVE ENTRY(1);
      359     2946    1          DCL MMJ$FIOP ENTRY(1);
      360     2947    1          DCL MMJ$MAPIOP ENTRY(2);
      361     2948        /* */
      362     2949               %LOCK(G=FMC_LOCK);
      363     2952    1          EAINFOWD=N$REQ.EAINFO;
      364     2953
      365     2954    1          CACHE$=ADDR(FMC$CACHETBL(EAINFO.HASH));
      366     2955
      367     2956    1          IF FMC$CACHE.FLAGS.BUFUP AND NOT FMC$CACHE.FLAGS.ERR AND
      368     2957    1             (FMC$CACHE.USECNT = 1 OR
      369     2958    1              FMC$CACHE.UPCOUNT > FMC_LIMITS.UPLIMIT(FMC$CACHE.TYPE)) THEN
      370     2959    2             DO;   /* NEEDS TO BE WRITTEN AGAIN */
      371     2960    2             B$LS$->B$MLNK.MISC=DESCINIT;
      372     2961    2             B$LS$->B$MLNK.MISC.BASE=FMC$CACHE.PAGE*4096;
      373     2962    2             IF B$MISC$->FM$GRAN.NAVX+B$MISC$->FM$GRAN.AVAIL ~= 1024 THEN
      374     2963    2                N$REQ.BUFSIZE=4096;
      375     2964    2             ELSE
      376     2965    2                N$REQ.BUFSIZE=B$MISC$->FM$GRAN.NAVX*4;
      377     2966    2             N$REQ.OPFLG.REQ='1'B;
      378     2967    2             FMC$CACHE.FLAGS.BUFUP='0'B;
      379     2968                  %UNLOCK(G=FMC_LOCK);
      380     2971    2             END;  /* NEEDS TO BE WRITTEN AGAIN */
      381     2972    1          ELSE
      382     2973    2             DO;
      383     2974    2             FMC$CACHE.USECNT=FMC$CACHE.USECNT-1;
      384     2975    2             IF FMC$CACHE.USECNT = 0 THEN
      385     2976    2                IF FMC_LIMITS.EXPIRE(FMC$CACHE.TYPE) = 0 OR
      386     2977    2                   FMC$CACHE.FLAGS.ERR THEN
      387     2978    3                   DO;   /* RELEASE PAGE */
      388     2979    3                   PP=FMC$CACHE.PAGE;
      389     2980    3                   CALL MMJ$FIOP(PP);
      390     2981    3                   FMC$CACHE='0'B;
      391     2982                        %DEC_COUNTER(ITEM=IOCACHE);
PL6.E3A0      #003=FMC$EA File=FMC$CACHE.:E05TSI                                 TUE 07/29/97 16:39 Page:71
      392     2988    3                   END;  /* RELEASE PAGE */
      393     2989    2                ELSE
      394     2990    3                   DO;  /* ADD ENTRY */
      395     2991    3                   HASH=EAINFO.HASH;
      396     2992    3                   CALL FMC$ADD(HASH);
      397     2993    3                   END;  /* ADD ENTRY */
      398     2994                  %UNLOCK(G=FMC_LOCK);
      399     2997    2             END;
      400     2998
      401     2999    1          RETURN;
      402     3000    1          END FMC$EA;
      403     3001               %EOD;

PL6.E3A0      #003=FMC$EA File=FMC$CACHE.:E05TSI                                 TUE 07/29/97 16:39 Page:72
--  Include file information  --

   P_PMDAT_C.:E05TOU  is referenced.
   P_PMDAT_R.:E05TOU  cannot be made into a system file and is referenced.
   N_FC_C.:E05TOU  is referenced.
   HF_LOCK_C.:E05TOU  cannot be made into a system file and is referenced.
   B_MLSMAC_C.:E05TOU  is referenced.
   B_STRINGS_C.:E05TOU  is referenced.
   FM$MACROS.:E05TOU  is referenced.
   FM_BUF_R.:E05TOU  cannot be made into a system file and is referenced.
   FM_CNTRL_R.:E05TOU  cannot be made into a system file and is referenced.
   FM_CACHE_C.:E05TOU  is referenced.
   FM_CACHE_R.:E05TOU  cannot be made into a system file and is referenced.
   N$REQ.:E05TOU  is referenced.
      No diagnostics issued in procedure FMC$EA.

   Procedure FMC$EA requires 117 words for executable code.
   Procedure FMC$EA requires 12 words of local(AUTO) storage.

PL6.E3A0      #003=FMC$EA File=FMC$CACHE.:E05TSI                                 TUE 07/29/97 16:39 Page:73

 Object Unit name= FMC$EA                                     File name= FMC$CACHE.:E05TOU
 UTS= JUL 29 '97 16:39:23.52 TUE                              Compiler= PL-6/E31         Sev=      00
 SharedLib= :SHARED_SYSTEM                                    Alt SharedLib=


    ****  Control sections  ****

 Sect   Type Bound  Init  Size OctSiz  Section name(segment info)
    0  RoData even  UTS      1      1  FMC$EA
    1   Proc  even  none   117    165  FMC$EA
    2  RoData even  none     4      4  FMC$EA

    ****  Entry defs  ****

                              Check   Calling
                             calling  sequence
  Sect OctLoc Primary Altret sequence   type   Parms  Name
     1      0   yes            yes      Std        1  FMC$EA

  ****  Entry refs  ****

         Check        Calling
        calling       sequence
Altret sequence SRef   type   Args  Name
         yes           Std       1 HFC$LOCK
         yes           Std       1 HFC$UNLOCK
         yes           Std       1 MMJ$FIOP
         yes           Std       1 FMC$ADD
                       nStd      0 X66_AUTO_1
                       Std       0 B_CONSPOOL_D
                       nStd      0 X66_ARET
PL6.E3A0      #003=FMC$EA File=FMC$CACHE.:E05TSI                                 TUE 07/29/97 16:39 Page:74

  ****  Data refs  ****

  Flags:  r = read only, s = secondary
Flgs Name                             Flgs Name                             Flgs Name
     FMC_CACHE$                            FMC_TYPTBL$                           FMC_CACHEPGCNT$
     FMC_LOCK                              FMC_LIMITS                            P_RESOURCE$
     P_UPTIME                              P_NSCPU                               B$LS$
r    B$MISC$                               B_VECTNIL

  ****  Segment refs  ****

  Flags:  r = read only, s = secondary
Flgs Name                             Flgs Name                             Flgs Name
     ISSID
PL6.E3A0      #003=FMC$EA File=FMC$CACHE.:E05TSI                                 TUE 07/29/97 16:39 Page:75


      300        1        /*T***********************************************************/
      301        2        /*T*                                                         */
      302        3        /*T* Copyright (c) Bull HN Information Systems Inc., 1997    */
      303        4        /*T*                                                         */
      304        5        /*T***********************************************************/
      305        6        /*D*     NAME:     FMC$EA
      306        7                 PURPOSE:  End action routine for cache writes.
      307        8                 INPUT:    N$REQ - end action packet
      308        9
      309       10                 DESCRIPTION:
      310       11
      311       12                      If the buffer has been updated again while we were
      312       13                 writing the page out, then we need to write it again.
      313       14                      Otherwise, if there are no users on the page, then we
      314       15                 add the page to the linked list.  If the expire time is
      315       16                 zero, then we don't cache any pages, we just release it.
      316       17        */
      317       18                 %EJECT;
PL6.E3A0      #003=FMC$EA File=FMC$CACHE.:E05TSI                                 TUE 07/29/97 16:39 Page:76
      318       19        FMC$EA: PROC(N$REQ);

     19  1 000000   000000 700200 xent  FMC$EA       TSX0  ! X66_AUTO_1
         1 000001   000014 000001                    ZERO    12,1

      319       20               %INCLUDE N$REQ;
      320       94               %INCLUDE FM_CACHE_R;
      321      106               %INCLUDE FM_CACHE_C;
      322      172               %INCLUDE FM_CNTRL_R;
      323      181               %INCLUDE FM_BUF_R;
      324      190               %INCLUDE FM$MACROS;
      325      565               %INCLUDE B_STRINGS_C;
      326      694               %INCLUDE B_MLSMAC_C;
      327     1636               %INCLUDE HF_LOCK_C;
      328     1650               %INCLUDE N_FC_C;
      329     1687               %INCLUDE P_PMDAT_R;
      330     1995        /* */
      331     1996    1          DCL B$LS$ PTR SYMREF;
      332     1997    1          DCL B$MISC$ PTR SYMREF READONLY;
      333     1998        /* */
      334     1999               %N$REQ(STCLASS="");
      335     2057               %FMC$CACHE;
      336     2080               %FMC$CACHE(FPTN=FMC$CACHE, ARRAY=NO, STCLASS="BASED(CACHE$)");
      337     2103               %FMC$TYPTBL;
      338     2108               %FM$GRAN(BASED="BASED(BUF$)");
      339     2112               %B_MLS(FPTN=B$MLNK, STCLASS=BASED);
      340     2927        /* */
      341     2928    1          DCL 1 DESCINIT CONSTANT,
      342     2929    1               2 BOUND UBIN(20) UNAL INIT(4095),  /* FRAME A PAGE */
      343     2930    1               2 FLGS BIT(3) INIT('7'O),          /* ALLOW READ/WRITE */
      344     2931    1               2 WSQ UBIN(9) UNAL INIT(0),        /* REAL PAGE NO */
      345     2932    1               2 TYP UBIN(4) UNAL INIT(2);        /* WSQ TYPE DESC */
      346     2933        /* */
      347     2934    1          DCL CACHE$ PTR;
      348     2935    1          DCL 1 EAINFO,
      349     2936    1               2 HASH UBIN(18) HALIGNED,
      350     2937    1               2 * UBIN(18) HALIGNED;
PL6.E3A0      #003=FMC$EA File=FMC$CACHE.:E05TSI                                 TUE 07/29/97 16:39 Page:77
      351     2938    1          DCL EAINFOWD REDEF EAINFO SBIN;
      352     2939    1          DCL PP SBIN;
      353     2940    1          DCL HASH SBIN;
      354     2941    1          DCL BUF$ PTR;
      355     2942    1          DCL VPNO SBIN;
      356     2943        /* */
      357     2944    1          DCL FMC$ADD ENTRY(1);
      358     2945    1          DCL FMC$REMOVE ENTRY(1);
      359     2946    1          DCL MMJ$FIOP ENTRY(1);
      360     2947    1          DCL MMJ$MAPIOP ENTRY(2);
      361     2948        /* */
      362     2949               %LOCK(G=FMC_LOCK);

   2950  1 000002   000000 630400 2                  EPPR0   0
         1 000003   000017 631400 xsym               EPPR1   B_VECTNIL+15
         1 000004   000000 701000 xent               TSX1    HFC$LOCK
         1 000005   000000 011000                    NOP     0

      363     2952    1          EAINFOWD=N$REQ.EAINFO;

   2952  1 000006   200003 470500                    LDP0    @N$REQ,,AUTO
         1 000007   000024 235100                    LDA     20,,PR0
         1 000010   200005 755100                    STA     EAINFO,,AUTO

      364     2953
      365     2954    1          CACHE$=ADDR(FMC$CACHETBL(EAINFO.HASH));

   2954  1 000011   200005 236100                    LDQ     EAINFO,,AUTO
         1 000012   000022 772000                    QRL     18
         1 000013   000006 402003                    MPY     6,DU
         1 000014   000000 036000 xsym               ADLQ    FMC_CACHE$
         1 000015   200004 756100                    STQ     CACHE$,,AUTO

      366     2955
      367     2956    1          IF FMC$CACHE.FLAGS.BUFUP AND NOT FMC$CACHE.FLAGS.ERR AND

   2956  1 000016   200004 471500                    LDP1    CACHE$,,AUTO
PL6.E3A0      #003=FMC$EA File=FMC$CACHE.:E05TSI                                 TUE 07/29/97 16:39 Page:78
         1 000017   100004 236100                    LDQ     4,,PR1
         1 000020   000001 316007                    CANQ    1,DL
         1 000021   000105 600000 1                  TZE     s:2974
         1 000022   000002 316007                    CANQ    2,DL
         1 000023   000105 601000 1                  TNZ     s:2974
         1 000024   100002 720100                    LXL0    2,,PR1
         1 000025   000001 100003                    CMPX0   1,DU
         1 000026   000037 600000 1                  TZE     s:2960
         1 000027   100000 236100                    LDQ     0,,PR1
         1 000030   000032 772000                    QRL     26
         1 000031   001776 376007                    ANQ     1022,DL
         1 000032   000000 621006                    EAX1    0,QL
         1 000033   100003 236100                    LDQ     3,,PR1
         1 000034   000037 604000 1                  TMI     s:2960
         1 000035   000001 116011 xsym               CMPQ    FMC_LIMITS+1,X1
         1 000036   000105 604400 1                  TMOZ    s:2974

      368     2957    1             (FMC$CACHE.USECNT = 1 OR
      369     2958    1              FMC$CACHE.UPCOUNT > FMC_LIMITS.UPLIMIT(FMC$CACHE.TYPE)) THEN
      370     2959    2             DO;   /* NEEDS TO BE WRITTEN AGAIN */

      371     2960    2             B$LS$->B$MLNK.MISC=DESCINIT;

   2960  1 000037   000000 235000 0                  LDA     DESCINIT
         1 000040   000000 236003                    LDQ     0,DU
         1 000041   000000 473400 xsym               LDP3    B$LS$
         1 000042   300130 757100                    STAQ    88,,PR3

      372     2961    2             B$LS$->B$MLNK.MISC.BASE=FMC$CACHE.PAGE*4096;

   2961  1 000043   100002 236100                    LDQ     2,,PR1
         1 000044   000006 772000                    QRL     6
         1 000045   000001 376000 2                  ANQ     1
         1 000046   300131 756100                    STQ     89,,PR3

      373     2962    2             IF B$MISC$->FM$GRAN.NAVX+B$MISC$->FM$GRAN.AVAIL ~= 1024 THEN

PL6.E3A0      #003=FMC$EA File=FMC$CACHE.:E05TSI                                 TUE 07/29/97 16:39 Page:79
   2962  1 000047   000000 474400 xsym               LDP4    B$MISC$
         1 000050   400001 236100                    LDQ     1,,PR4
         1 000051   001777 376007                    ANQ     1023,DL
         1 000052   200012 756100                    STQ     BUF$+2,,AUTO
         1 000053   400001 236100                    LDQ     1,,PR4
         1 000054   000022 772000                    QRL     18
         1 000055   200012 036100                    ADLQ    BUF$+2,,AUTO
         1 000056   002000 116007                    CMPQ    1024,DL
         1 000057   000065 600000 1                  TZE     s:2965

      374     2963    2                N$REQ.BUFSIZE=4096;

   2963  1 000060   000004 236100                    LDQ     4,,PR0
         1 000061   177777 376007                    ANQ     65535,DL
         1 000062   002000 276003                    ORQ     1024,DU
         1 000063   000004 756100                    STQ     4,,PR0
         1 000064   000074 710000 1                  TRA     s:2966

      375     2964    2             ELSE
      376     2965    2                N$REQ.BUFSIZE=B$MISC$->FM$GRAN.NAVX*4;

   2965  1 000065   400001 236100                    LDQ     1,,PR4
         1 000066   000020 772000                    QRL     16
         1 000067   000002 376000 2                  ANQ     2
         1 000070   000020 736000                    QLS     16
         1 000071   000004 676100                    ERQ     4,,PR0
         1 000072   000034 376000 xsym               ANQ     B_VECTNIL+28
         1 000073   000004 656100                    ERSQ    4,,PR0

      377     2966    2             N$REQ.OPFLG.REQ='1'B;

   2966  1 000074   000002 236007                    LDQ     2,DL
         1 000075   000004 256100                    ORSQ    4,,PR0

      378     2967    2             FMC$CACHE.FLAGS.BUFUP='0'B;

   2967  1 000076   000003 236000 2                  LDQ     3
PL6.E3A0      #003=FMC$EA File=FMC$CACHE.:E05TSI                                 TUE 07/29/97 16:39 Page:80
         1 000077   100004 356100                    ANSQ    4,,PR1

      379     2968                  %UNLOCK(G=FMC_LOCK);

   2969  1 000100   000000 630400 2                  EPPR0   0
         1 000101   000017 631400 xsym               EPPR1   B_VECTNIL+15
         1 000102   000000 701000 xent               TSX1    HFC$UNLOCK
         1 000103   000000 011000                    NOP     0

      380     2971    2             END;  /* NEEDS TO BE WRITTEN AGAIN */

   2971  1 000104   000164 710000 1                  TRA     s:2999

      381     2972    1          ELSE
      382     2973    2             DO;

      383     2974    2             FMC$CACHE.USECNT=FMC$CACHE.USECNT-1;

   2974  1 000105   100002 720100                    LXL0    2,,PR1
         1 000106   777777 621010                    EAX1    -1,X0
         1 000107   100002 441100                    SXL1    2,,PR1

      384     2975    2             IF FMC$CACHE.USECNT = 0 THEN

   2975  1 000110   000160 601000 1                  TNZ     s:2995

      385     2976    2                IF FMC_LIMITS.EXPIRE(FMC$CACHE.TYPE) = 0 OR

   2976  1 000111   100000 236100                    LDQ     0,,PR1
         1 000112   000032 772000                    QRL     26
         1 000113   001776 376007                    ANQ     1022,DL
         1 000114   000000 235006 xsym               LDA     FMC_LIMITS,QL
         1 000115   000121 600000 1                  TZE     s:2979
         1 000116   100004 236100                    LDQ     4,,PR1
         1 000117   000002 316007                    CANQ    2,DL
         1 000120   000147 600000 1                  TZE     s:2991

PL6.E3A0      #003=FMC$EA File=FMC$CACHE.:E05TSI                                 TUE 07/29/97 16:39 Page:81
      386     2977    2                   FMC$CACHE.FLAGS.ERR THEN
      387     2978    3                   DO;   /* RELEASE PAGE */

      388     2979    3                   PP=FMC$CACHE.PAGE;

   2979  1 000121   100002 236100                    LDQ     2,,PR1
         1 000122   000022 772000                    QRL     18
         1 000123   200006 756100                    STQ     PP,,AUTO

      389     2980    3                   CALL MMJ$FIOP(PP);

   2980  1 000124   200006 633500                    EPPR3   PP,,AUTO
         1 000125   200012 453500                    STP3    BUF$+2,,AUTO
         1 000126   200012 630500                    EPPR0   BUF$+2,,AUTO
         1 000127   000017 631400 xsym               EPPR1   B_VECTNIL+15
         1 000130   000000 701000 xent               TSX1    MMJ$FIOP
         1 000131   000000 011000                    NOP     0

      390     2981    3                   FMC$CACHE='0'B;

   2981  1 000132   200004 470500                    LDP0    CACHE$,,AUTO
         1 000133   000100 100400                    MLR     fill='000'O
         1 000134   000002 000001 xsym               ADSC9   B_VECTNIL+2              cn=0,n=1
         1 000135   000000 000030                    ADSC9   0,,PR0                   cn=0,n=24

      391     2982                        %DEC_COUNTER(ITEM=IOCACHE);

   2983  1 000136   000000 471400 xsym               LDP1    P_RESOURCE$
         1 000137   100055 235100                    LDA     45,,PR1
         1 000140   000001 135007                    SBLA    1,DL
         1 000141   100055 755100                    STA     45,,PR1

   2984  1 000142   100055 236100                    LDQ     45,,PR1
         1 000143   100057 116100                    CMPQ    47,,PR1
         1 000144   000160 603000 1                  TRC     s:2995

   2986  1 000145   100057 756100                    STQ     47,,PR1
PL6.E3A0      #003=FMC$EA File=FMC$CACHE.:E05TSI                                 TUE 07/29/97 16:39 Page:82

      392     2988    3                   END;  /* RELEASE PAGE */

   2988  1 000146   000160 710000 1                  TRA     s:2995

      393     2989    2                ELSE
      394     2990    3                   DO;  /* ADD ENTRY */

      395     2991    3                   HASH=EAINFO.HASH;

   2991  1 000147   200005 235100                    LDA     EAINFO,,AUTO
         1 000150   000022 771000                    ARL     18
         1 000151   200007 755100                    STA     HASH,,AUTO

      396     2992    3                   CALL FMC$ADD(HASH);

   2992  1 000152   200007 633500                    EPPR3   HASH,,AUTO
         1 000153   200012 453500                    STP3    BUF$+2,,AUTO
         1 000154   200012 630500                    EPPR0   BUF$+2,,AUTO
         1 000155   000017 631400 xsym               EPPR1   B_VECTNIL+15
         1 000156   000000 701000 xent               TSX1    FMC$ADD
         1 000157   000000 011000                    NOP     0

      397     2993    3                   END;  /* ADD ENTRY */

      398     2994                  %UNLOCK(G=FMC_LOCK);

   2995  1 000160   000000 630400 2                  EPPR0   0
         1 000161   000017 631400 xsym               EPPR1   B_VECTNIL+15
         1 000162   000000 701000 xent               TSX1    HFC$UNLOCK
         1 000163   000000 011000                    NOP     0

      399     2997    2             END;

      400     2998
      401     2999    1          RETURN;

PL6.E3A0      #003=FMC$EA File=FMC$CACHE.:E05TSI                                 TUE 07/29/97 16:39 Page:83
   2999  1 000164   000000 702200 xent               TSX2  ! X66_ARET

DESCINIT
 Sect OctLoc
   0     000   001777 760002                                                    ....

(unnamed)
 Sect OctLoc
   2     000   000000 006000   007777 770000   000003 777774   777777 777776    ................
      402     3000    1          END FMC$EA;
      403     3001               %EOD;

PL6.E3A0      #003=FMC$EA File=FMC$CACHE.:E05TSI                                 TUE 07/29/97 16:39 Page:84
--  Include file information  --

   P_PMDAT_C.:E05TOU  is referenced.
   P_PMDAT_R.:E05TOU  cannot be made into a system file and is referenced.
   N_FC_C.:E05TOU  is referenced.
   HF_LOCK_C.:E05TOU  cannot be made into a system file and is referenced.
   B_MLSMAC_C.:E05TOU  is referenced.
   B_STRINGS_C.:E05TOU  is referenced.
   FM$MACROS.:E05TOU  is referenced.
   FM_BUF_R.:E05TOU  cannot be made into a system file and is referenced.
   FM_CNTRL_R.:E05TOU  cannot be made into a system file and is referenced.
   FM_CACHE_C.:E05TOU  is referenced.
   FM_CACHE_R.:E05TOU  cannot be made into a system file and is referenced.
   N$REQ.:E05TOU  is referenced.
      No diagnostics issued in procedure FMC$EA.
PL6.E3A0      #003=FMC$EA File=FMC$CACHE.:E05TSI                                 TUE 07/29/97 16:39 Page:85

 **** Variables and constants ****

  ****  Section 000 RoData FMC$EA

  ****  Scalars and arrays  ****
OctLoc.c.b A Datatyp(siz) R M Lvl/name                 OctLoc.c.b A Datatyp(siz) R M Lvl/name

     0-0-0/b STRC        r     1 DESCINIT

  ****  Auto variables  ****

  ****  Scalars and arrays  ****
OctLoc.c.b A Datatyp(siz) R M Lvl/name                 OctLoc.c.b A Datatyp(siz) R M Lvl/name

     3-0-0/w PTR         r     1 @N$REQ                    10-0-0/w PTR         r     1 BUF$
     4-0-0/w PTR         r     1 CACHE$                     5-0-0/h STRC        r     1 EAINFO
     5-0-0/w SBIN        r     1 EAINFOWD                   7-0-0/w SBIN        r     1 HASH
    *0-0-0/d STRC(1080)  r     1 N$REQ                      6-0-0/w SBIN        r     1 PP

  ****  SYMREF variables  ****

  ****  Scalars and arrays  ****
OctLoc.c.b A Datatyp(siz) R M Lvl/name                 OctLoc.c.b A Datatyp(siz) R M Lvl/name

     0-0-0/w PTR         r     1 B$LS$                      0-0-0/w PTR         r     1 B$MISC$
     0-0-0/w PTR         r     1 FMC_CACHE$                 0-0-0/w PTR         r     1 FMC_CACHEPGCNT$
     0-0-0/w STRC(72)    r     1 FMC_LIMITS(0:8191)
     0-0-0/b BIT (72)    r     1 FMC_LOCK                   0-0-0/w PTR         r     1 FMC_TYPTBL$
     0-0-0/w PTR         r     1 P_RESOURCE$

  ****  BASED and DCB variables  ****

  ****  Scalars and arrays  ****
OctLoc.c.b A Datatyp(siz) R M Lvl/name                 OctLoc.c.b A Datatyp(siz) R M Lvl/name

     0-0-0/d STRC(10368) r     1 B$MLNK                     0-0-0/w STRC(180)   r     1 FM$GRAN
     0-0-0/w STRC(216)   r     1 FMC$CACHE
PL6.E3A0      #003=FMC$EA File=FMC$CACHE.:E05TSI                                 TUE 07/29/97 16:39 Page:86
     0-0-0/w STRC(216)   r     1 FMC$CACHETBL(0:0)
     0-0-0/w STRC(2268)  r     1 P_RESOURCE


   Procedure FMC$EA requires 117 words for executable code.
   Procedure FMC$EA requires 12 words of local(AUTO) storage.
PL6.E3A0      #003=FMC$EA File=FMC$CACHE.:E05TSI                                 TUE 07/29/97 16:39 Page:87
          *** CROSS REFERENCE LISTING ***
**     DENOTES     IDENTIFIER DEFINITION
<<                 IDENTIFIER'S VALUE SET
>>                 IDENTIFIER'S VALUE USED
<>                 IDENTIFIER SET AND/OR USED
--                 IDENTIFIER REFERENCED
PL6.E3A0      #003=FMC$EA File=FMC$CACHE.:E05TSI                                 TUE 07/29/97 16:39 Page:88
          MINI XREF LISTING

B$LS$
      1996**DCL      2960>>ASSIGN   2961>>ASSIGN
B$MISC$
      1997**DCL      2962>>IF       2962>>IF       2965>>ASSIGN
B$MLNK.MISC
      2424**DCL      2960<<ASSIGN
B$MLNK.MISC.BASE
      2429**DCL      2961<<ASSIGN
BUF$
      2941**DCL      2109--IMP-PTR
CACHE$
      2934**DCL      2084--IMP-PTR  2954<<ASSIGN   2956>>IF       2956>>IF       2956>>IF       2956>>IF
      2956>>IF       2961>>ASSIGN   2967>>ASSIGN   2974>>ASSIGN   2974>>ASSIGN   2975>>IF       2976>>IF
      2976>>IF       2979>>ASSIGN   2981>>ASSIGN
DESCINIT
      2928**DCL      2960>>ASSIGN
EAINFO
      2935**DCL      2938--REDEF
EAINFO.HASH
      2936**DCL      2954>>ASSIGN   2991>>ASSIGN
EAINFOWD
      2938**DCL      2952<<ASSIGN
FM$GRAN.AVAIL
      2110**DCL      2962>>IF
FM$GRAN.NAVX
      2109**DCL      2962>>IF       2965>>ASSIGN
FMC$ADD
      2944**DCL-ENT  2992--CALL
FMC$CACHE
      2084**DCL      2981<<ASSIGN
FMC$CACHE.FLAGS.BUFUP
      2100**DCL      2956>>IF       2967<<ASSIGN
PL6.E3A0      #003=FMC$EA File=FMC$CACHE.:E05TSI                                 TUE 07/29/97 16:39 Page:89
FMC$CACHE.FLAGS.ERR
      2099**DCL      2956>>IF       2976>>IF
FMC$CACHE.PAGE
      2090**DCL      2961>>ASSIGN   2979>>ASSIGN
FMC$CACHE.TYPE
      2086**DCL      2956>>IF       2976>>IF
FMC$CACHE.UPCOUNT
      2092**DCL      2956>>IF
FMC$CACHE.USECNT
      2091**DCL      2956>>IF       2974<<ASSIGN   2974>>ASSIGN   2975>>IF
FMC$CACHETBL
      2059**DCL      2954--ASSIGN
FMC_CACHE$
       102**DCL      2059--IMP-PTR  2954>>ASSIGN
FMC_CACHEPGCNT$
       103**DCL       103--IMP-PTR   103--REDEF
FMC_LIMITS.EXPIRE
       180**DCL      2976>>IF
FMC_LIMITS.UPLIMIT
       180**DCL      2956>>IF
FMC_LOCK
       104**DCL      2950<>CALL     2969<>CALL     2995<>CALL
FMC_TYPTBL$
       102**DCL      2104--IMP-PTR
HASH
      2940**DCL      2991<<ASSIGN   2992<>CALL
HFC$LOCK
      1649**DCL-ENT  2950--CALL
HFC$UNLOCK
      1649**DCL-ENT  2969--CALL     2995--CALL
MMJ$FIOP
      2946**DCL-ENT  2980--CALL
N$REQ
      2008**DCL        19--PROC
N$REQ.BUFADDR
      2017**DCL      2018--REDEF    2018--REDEF
PL6.E3A0      #003=FMC$EA File=FMC$CACHE.:E05TSI                                 TUE 07/29/97 16:39 Page:90
N$REQ.BUFSIZE
      2011**DCL      2963<<ASSIGN   2965<<ASSIGN
N$REQ.DLA.DRELADDR
      2009**DCL      2009--REDEF
N$REQ.DVE.EOMCHAR
      2046**DCL      2047--REDEF
N$REQ.EAINFO
      2040**DCL      2040--REDEF    2952>>ASSIGN
N$REQ.EAINFOX
      2040**DCL      2041--REDEF
N$REQ.EVNTINFO
      2041**DCL      2041--REDEF
N$REQ.OPFLG.REQ
      2016**DCL      2966<<ASSIGN
N$REQ.STATUS
      2022**DCL      2028--REDEF
PP
      2939**DCL      2979<<ASSIGN   2980<>CALL
P_NSCPU
      1975**DCL      1976--REDEF
P_RESOURCE.RES
      1848**DCL      1915--REDEF
P_RESOURCE.RES.IOCACHE.CURRENT
      1877**DCL      2983<<ASSIGN   2983>>ASSIGN   2984>>IF       2986>>ASSIGN
P_RESOURCE.RES.IOCACHE.MIN
      1879**DCL      2984>>IF       2986<<ASSIGN
P_RESOURCE$
      1928**DCL      1816--IMP-PTR  2983>>ASSIGN   2983>>ASSIGN   2984>>IF       2984>>IF       2986>>ASSIGN
      2986>>ASSIGN
P_UPTIME
      1964**DCL      1965--REDEF
PL6.E3A0      #003=FMC$EA File=FMC$CACHE.:E05TSI                                 TUE 07/29/97 16:39 Page:91
              *** CROSS REFERENCE LISTING ***
    **     DENOTES     IDENTIFIER DEFINITION
    <<                 IDENTIFIER'S VALUE SET
    >>                 IDENTIFIER'S VALUE USED
    <>                 IDENTIFIER SET AND/OR USED
    --                 IDENTIFIER REFERENCED
PL6.E3A0      #003=FMC$EA File=FMC$CACHE.:E05TSI                                 TUE 07/29/97 16:39 Page:92
              MINI UREF LISTING

FM$BUF$     189**DCL
FMC$CACHEPGCNT     103**DCL
FMC$EA      19**PROC
FMC$REMOVE    2945**DCL-ENT
FMC$TYPTBL    2104**DCL
FMC_CACHEPGCNT     103**DCL
FMC_CACHEPGCNT$R     103**DCL
FMC_CACHESIZ     102**DCL
FMC_CACHESIZN     102**DCL
FMC_MASK     104**DCL
FMC_MASKTBL     104**DCL
FMC_STATS$     102**DCL
FM_WRCMP     180**DCL
MMJ$MAPIOP    2947**DCL-ENT
NI_IOLEAPERS     180**DCL
P$IODATA    1929**DCL
P$TABLE    1938**DCL
PH_CPU_MOUSED    1993**DCL
PH_JIT_ENTRY    1989**DCL
PH_MOUSE_ENTRY    1985**DCL
PH_MOUSE_LOCK    1992**DCL
PH_MOUSE_USERS    1982**DCL
PH_MOUSE_USER_NUMBER    1994**DCL
PH_MUS_PAGES    1984**DCL
P_AUIS    1970**DCL
P_AVAIL_MEM    1977**DCL
P_AVGAVAIL_MEM    1978**DCL
P_AVGETMF    1967**DCL
P_AVGIOL    1969**DCL
P_AVGRT90    1966**DCL
P_CALCNT    1954**DCL
P_CALCOMP    1955**DCL
PL6.E3A0      #003=FMC$EA File=FMC$CACHE.:E05TSI                                 TUE 07/29/97 16:39 Page:93
P_DCTXMAX    1971**DCL
P_ETMF    1948**DCL
P_GATE    1974**DCL
P_IOLOAD    1968**DCL
P_IOS    1963**DCL
P_NINTS    1949**DCL
P_NOW    1973**DCL
P_NSCPU_SBIN    1976**DCL
P_RT90    1950**DCL
P_RUE#    1946**DCL
P_SCHD#    1947**DCL
P_STARTUP    1951**DCL
P_STOPTIME    1972**DCL
P_S_MIDLTIME    1959**DCL
P_S_MIDLWIO    1960**DCL
P_S_MIDLWRES    1961**DCL
P_S_MIDLWRESIO    1962**DCL
P_S_MXEQTIME    1958**DCL
P_S_USRVTIME    1957**DCL
P_S_UXEQTIME    1956**DCL
P_UPTIME_SBIN    1965**DCL
P_USRVTIME    1953**DCL
P_UXEQTIME    1952**DCL
VPNO    2942**DCL
WORD_    1983**DCL

PL6.E3A0      #004=FMC$FINISH File=FMC$CACHE.:E05TSI                             TUE 07/29/97 16:39 Page:94
      404        1        /*T***********************************************************/
      405        2        /*T*                                                         */
      406        3        /*T* Copyright (c) Bull HN Information Systems Inc., 1997    */
      407        4        /*T*                                                         */
      408        5        /*T***********************************************************/
      409        6        /*D*     NAME:     FMC$FINISH
      410        7                 PURPOSE:  To do whatever when a user finishes using a page.
      411        8                 INPUT:    BUFNUM - Buffer number
      412        9                           BYTES - Number of bytes to write, if we need to
      413       10                           FC - What kind of write to do
      414       11                 OUTPUT:   FLAG - 1 if we could do the write
      415       12                                  0 if we couldn't do the write
      416       13                 DESCRIPTION:
      417       14                      If the page is in the cache table, then take the user
      418       15                 off of the page, and finish off the user.
      419       16                      Otherwise, if the expire time is greater than zero
      420       17                 see if we can find a slot for the user.  If we can, then
      421       18                 set up a cache table entry and finish off the user.
      422       19        */
      423       20                 %EJECT;
PL6.E3A0      #004=FMC$FINISH File=FMC$CACHE.:E05TSI                             TUE 07/29/97 16:39 Page:95
      424       21        FMC$FINISH: PROC(BUFNUM, BYTES, FC, FLAG) ALTRET;
      425       22    1          DCL BUFNUM SBIN;
      426       23    1          DCL BYTES SBIN;
      427       24    1          DCL FC SBIN;
      428       25    1          DCL FLAG SBIN;
      429       26        /* */
      430       27               %INCLUDE FM_CACHE_R;
      431       39               %INCLUDE FM_CACHE_C;
      432      105               %INCLUDE FM_CNTRL_R;
      433      114               %INCLUDE FM_DATA_R;
      434      128               %INCLUDE FM$CFU;
      435      173               %INCLUDE CP_6_SUBS;
      436      713               %INCLUDE HF_LOCK_C;
      437      727               %INCLUDE N_FC_C;
      438      764               %INCLUDE B$JIT;
      439     1367               %MACRO F$DCB(BASED=BASED);
      440     1368               %INCLUDE F$DCB;
      441     1417               %MEND;
      442     1418               %INCLUDE P_PMDAT_R;
      443     1726        /* */
      444     1727    1          DCL FMC$GETTYPE ENTRY(1);
      445     1728    1          DCL FAF$FRTOSR ENTRY(3) ALTRET;
      446     1729    1          DCL FMC$GETSLOT ENTRY(4) ALTRET;
      447     1730    1          DCL FMC$ADD ENTRY(1);
      448     1731    1          DCL FMC$CLR1 ENTRY(1);
      449     1732    1          DCL MMJ$FIOP ENTRY(1);
      450     1733    1          DCL MMJ$FBTOIOPM ENTRY(2);
      451     1734    1          DCL FMB$RIO ENTRY(9) ALTRET;
      452     1735    1          DCL FMC$EA ENTRY(1);
      453     1736    1          DCL MMJ$UNMAPIOP ENTRY(1);
      454     1737        /* */
      455     1738    1          DCL B$JIT$ PTR SYMREF;
      456     1739        /* */
      457     1740               %F$DCB(BASED="BASED(JDCB$)");
      458     1790               %FMC$CACHE;
      459     1813               %FMC$CACHE(FPTN=FMC$CACHE, ARRAY=NO, STCLASS="BASED(CACHE$)");
      460     1836               %FMC$TYPTBL;
PL6.E3A0      #004=FMC$FINISH File=FMC$CACHE.:E05TSI                             TUE 07/29/97 16:39 Page:96
      461     1841               %FM$CFU(BASED="BASED(CFU$)");
      462     1847        /* */
      463     1848    1          DCL JDCB$ PTR;
      464     1849    1          DCL CFU$ PTR;
      465     1850    1          DCL CACHE$ PTR;
      466     1851    1          DCL DA SBIN;
      467     1852    1          DCL SETX SBIN;
      468     1853    1          DCL SRDA SBIN;
      469     1854    1          DCL VPNO SBIN;
      470     1855    1          DCL TYPE SBIN;
      471     1856    1          DCL PP SBIN;
      472     1857    1          DCL GRANS SBIN;
      473     1858    1          DCL END_ACTION BIT(1) ALIGNED;
      474     1859    1          DCL HASH SBIN;
      475     1860    1          DCL 1 EAINFO,
      476     1861    1               2 HASH UBIN(18) HALIGNED,
      477     1862    1               2 * UBIN(18) HALIGNED;
      478     1863        /* */
      479     1864    1          JDCB$=B$JIT.DCB$;
      480     1865    1          FLAG=0;
      481     1866    1          HASH=F$DCB.BFR1.CX(BUFNUM);
      482     1867
      483     1868    1          IF FMC_CACHESIZ = 0 THEN
      484     1869    1             RETURN;
      485     1870
      486     1871    1          IF HASH > 0 THEN
      487     1872    2             DO;   /* GET USER OFF OF CACHE PAGE */
      488     1873    2             VPNO=F$DCB.BFR.BUFX(BUFNUM);
      489     1874    2             CALL FINISH ALTRET(ERR);
      490     1875    2             END;  /* GET USER OFF OF CACHE PAGE */
      491     1876    1          ELSE
      492     1877    2             DO;   /* CAN WE CACHE IT */
      493     1878    2             IF F$DCB.CFU$ = ADDR(NIL) THEN
      494     1879    2                RETURN;
      495     1880    2             CFU$=F$DCB.CFU$;
      496     1881    2             IF FM$CFU.SHARE = %ALL# AND
      497     1882    2                (FM$CFU.MODCNT ~= F$DCB.MODCNT) THEN
PL6.E3A0      #004=FMC$FINISH File=FMC$CACHE.:E05TSI                             TUE 07/29/97 16:39 Page:97
      498     1883    2                RETURN;
      499     1884    2             CALL FMC$GETTYPE(TYPE);
      500     1885    2             DA=F$DCB.BFR.DA(BUFNUM);
      501     1886    2             IF DA < FM_SRZERO THEN
      502     1887    2                CALL FAF$FRTOSR(DA, SRDA, GRANS) ALTRET(ERR);
      503     1888    2             ELSE
      504     1889    2                SRDA=DA;
      505     1890    2             IF FMC_LIMITS.EXPIRE(TYPE) > 0 THEN
      506     1891    3                DO;   /* YES WE CAN */
      507     1892    3                SETX=F$DCB.SETX;
      508     1893                     %HASH;
      509     1896    3                IF TYPE <= %CTYP_FIT THEN
      510     1897    3                   CALL FMC$CLR1(SRDA);
      511     1898
      512     1899                     %LOCK(G=FMC_LOCK);
      513     1902    3                CALL FMC$GETSLOT(HASH, TYPE, SRDA, CACHE$) ALTRET(NOCACHE);
      514     1903    3                VPNO=F$DCB.BFR.BUFX(BUFNUM);
      515     1904    3                CALL MMJ$FBTOIOPM(VPNO, PP);
      516     1905    3                FMC$CACHE.SRDA=SRDA;
      517     1906    3                FMC$CACHE.USECNT=1;
      518     1907    3                FMC$CACHE.PAGE=PP;
      519     1908    3                FMC$CACHE.SETX=F$DCB.SETX;
      520     1909    3                FMC$CACHE.TYPE=TYPE;
      521     1910                     %INC_COUNTER(ITEM=IOCACHE);
      522     1916                     %UNLOCK(G=FMC_LOCK);
      523     1919    3                CALL FINISH ALTRET(ERR);
      524     1920    3                END;  /* YES WE CAN */
      525     1921    2             END;   /* CAN WE CACHE IT */
      526     1922
      527     1923    1          RETURN;
      528     1924    1   ERR:   ALTRETURN;
      529     1925    1   NOCACHE: ;
      530     1926               %UNLOCK(G=FMC_LOCK);
      531     1929    1          RETURN;
      532     1930               %EJECT;
PL6.E3A0      #004=FMC$FINISH File=FMC$CACHE.:E05TSI                             TUE 07/29/97 16:39 Page:98
      533     1931        /*D*     ENTRY:    FMC$UPLIMIT
      534     1932                 PURPOSE:  To check UPLIMIT on the current granule, and, if
      535     1933                           necessary, write the granule.
      536     1934                 DESCRIPTION:
      537     1935                      The page is guaranteed to be updated, and is guaranteed
      538     1936                 to be in the cache.  If UPCOUNT for the page is greater than
      539     1937                 UPLIMIT for this type, write the page.  Else just return.
      540     1938        */
      541     1939    1   FMC$UPLIMIT: ENTRY(BUFNUM,BYTES,FC,FLAG) ALTRET;
      542     1940
      543     1941    1           JDCB$ = B$JIT.DCB$;
      544     1942    1           HASH = F$DCB.BFR1.CX(BUFNUM);
      545     1943    1           IF FMC_CACHESIZ = 0 THEN
      546     1944    1              RETURN;
      547     1945                %LOCK(G=FMC_LOCK);
      548     1948    1           CACHE$ = ADDR(FMC$CACHETBL(HASH));
      549     1949    1           FMC$CACHE.FLAGS.BUFUP = '1'B;
      550     1950    1           FMC$CACHE.UPCOUNT = FMC$CACHE.UPCOUNT + 1;
      551     1951    1           IF NOT FMC$CACHE.FLAGS.ERR AND
      552     1952    2                  FMC$CACHE.UPCOUNT > FMC_LIMITS.UPLIMIT(FMC$CACHE.TYPE) THEN DO;
      553     1953    2              PP = FMC$CACHE.PAGE;
      554     1954    2              FMC$CACHE.FLAGS.BUFUP = '0'B;
      555     1955    2              FMC$CACHE.UPCOUNT = 0;
      556     1956                   %UNLOCK(G=FMC_LOCK);
      557     1959    2              SRDA = FMC$CACHE.SRDA;
      558     1960    2              CALL FMB$RIO(0,PP,BYTES,SRDA,FC,-1,ENTADDR(NIL),0) ALTRET(IOERR);
      559     1961    2              RETURN;
      560     1962    2              END;
      561     1963                %UNLOCK(G=FMC_LOCK);
      562     1966    1           RETURN;
      563     1967    1   IOERR:  IF SRDA ~= -1 THEN
      564     1968    1              ALTRETURN;
      565     1969    1           RETURN;
      566     1970               %EJECT;
PL6.E3A0      #004=FMC$FINISH File=FMC$CACHE.:E05TSI                             TUE 07/29/97 16:39 Page:99
      567     1971        /*I*     NAME:     FINISH
      568     1972                 PURPOSE:  To finish off a user that has a page in the
      569     1973                           cache table.
      570     1974
      571     1975                 DESCRIPTION:
      572     1976
      573     1977                      If the page has been updated, then write the page out.
      574     1978                 Otherwise, just decrement the usecount.  If the page has
      575     1979                 the error bit set, or the expire time is zero, then get
      576     1980                 rid of the page.
      577     1981        */
      578     1982                 %EJECT;
PL6.E3A0      #004=FMC$FINISH File=FMC$CACHE.:E05TSI                             TUE 07/29/97 16:39 Page:100
      579     1983    1   FINISH: PROC ALTRET;
      580     1984        /* */
      581     1985               %LOCK(G=FMC_LOCK);
      582     1988
      583     1989    2          END_ACTION='0'B;
      584     1990    2          CACHE$=ADDR(FMC$CACHETBL(HASH));
      585     1991    2          IF F$DCB.BFR.BUFUP(BUFNUM) THEN
      586     1992    2             FMC$CACHE.FLAGS.BUFUP='1'B;
      587     1993
      588     1994    2          IF FMC$CACHE.FLAGS.BUFUP THEN
      589     1995    3             DO;   /* CACHE UPDATED */
      590     1996    3             IF F$DCB.BFR.BUFUP(BUFNUM) THEN
      591     1997    3                FMC$CACHE.UPCOUNT=FMC$CACHE.UPCOUNT+1;
      592     1998    3             ELSE
      593     1999    3                B$JIT.ACCESS.PACKS=B$JIT.ACCESS.PACKS-1;
      594     2000    3             END;  /* CACHE UPDATED */
      595     2001
      596     2002    2          IF FMC$CACHE.FLAGS.BUFUP AND NOT FMC$CACHE.FLAGS.ERR THEN
      597     2003    3             DO;   /* AN I/O */
      598     2004    3             IF FMC$CACHE.USECNT = 1 OR
      599     2005    3              FMC$CACHE.UPCOUNT > FMC_LIMITS.UPLIMIT(FMC$CACHE.TYPE) THEN
      600     2006    4                DO;   /* WRITE IT OUT */
      601     2007    4                END_ACTION='1'B;
      602     2008    4                PP=FMC$CACHE.PAGE;
      603     2009    4                EAINFO.HASH=HASH;
      604     2010    4                FMC$CACHE.FLAGS.BUFUP='0'B;
      605     2011    4                FMC$CACHE.UPCOUNT=0;
      606     2012                     %UNLOCK(G=FMC_LOCK);
      607     2015    4                SRDA=FMC$CACHE.SRDA;
      608     2016    4                CALL FMB$RIO(0, PP, BYTES, SRDA, FC, 0, ENTADDR(FMC$EA),
      609     2017    4                   EAINFO) ALTRET(IOERR);
      610     2018                     %LOCK(G=FMC_LOCK);
      611     2021    4                END;  /* WRITE IT OUT */
      612     2022    3             ELSE
      613     2023    4                DO;   /* FAKE AN I/O */
      614     2024    4                B$JIT.ACCESS.PACKS=B$JIT.ACCESS.PACKS+1;
      615     2025    4                FMC$CACHE.USECNT=FMC$CACHE.USECNT-1;
PL6.E3A0      #004=FMC$FINISH File=FMC$CACHE.:E05TSI                             TUE 07/29/97 16:39 Page:101
      616     2026    4                END;  /* FAKE AN I/O */
      617     2027    3             END;  /* AN I/O */
      618     2028    2          ELSE
      619     2029    2             FMC$CACHE.USECNT=FMC$CACHE.USECNT-1;
      620     2030
      621     2031    2          F$DCB.BFR1(BUFNUM)='0'B;
      622     2032    2          F$DCB.BFR(BUFNUM)=F$DCB.BFR(BUFNUM)&'000777777777'O;
      623     2033    2          CALL MMJ$UNMAPIOP(VPNO);
      624     2034
      625     2035    2          IF FMC$CACHE.USECNT = 0 AND NOT END_ACTION THEN
      626     2036    2             IF FMC$CACHE.FLAGS.ERR OR
      627     2037    2                FMC_LIMITS.EXPIRE(FMC$CACHE.TYPE) = 0 THEN
      628     2038    3                DO;   /* THROW PAGE AWAY */
      629     2039    3                PP=FMC$CACHE.PAGE;
      630     2040    3                CALL MMJ$FIOP(PP);
      631     2041    3                FMC$CACHE='0'B;
      632     2042                     %DEC_COUNTER(ITEM=IOCACHE);
      633     2048    3                END;  /* THROW PAGE AWAY */
      634     2049    2             ELSE
      635     2050    2                CALL FMC$ADD(HASH);
      636     2051
      637     2052    2          FLAG=1;
      638     2053               %UNLOCK(G=FMC_LOCK);
      639     2056
      640     2057    2          RETURN;
      641     2058
      642     2059    2   IOERR: IF SRDA ~= -1 THEN
      643     2060    2             ALTRETURN;
      644     2061               %LOCK(G=FMC_LOCK);
      645     2064    2          FMC$CACHE.USECNT = FMC$CACHE.USECNT - 1;
      646     2065    2          F$DCB.BFR1(BUFNUM)='0'B;
      647     2066    2          F$DCB.BFR(BUFNUM)=F$DCB.BFR(BUFNUM)&'000777777777'O;
      648     2067    2          CALL MMJ$UNMAPIOP(VPNO);
      649     2068    2          IF FMC$CACHE.USECNT = 0 THEN
      650     2069    2             CALL FMC$ADD(HASH);
      651     2070               %UNLOCK(G=FMC_LOCK);
      652     2073    2          RETURN;
PL6.E3A0      #004=FMC$FINISH File=FMC$CACHE.:E05TSI                             TUE 07/29/97 16:39 Page:102
      653     2074
      654     2075    2          END FINISH;
      655     2076    1          END FMC$FINISH;
      656     2077               %EOD;

PL6.E3A0      #004=FMC$FINISH File=FMC$CACHE.:E05TSI                             TUE 07/29/97 16:39 Page:103
--  Include file information  --

   P_PMDAT_C.:E05TOU  is referenced.
   P_PMDAT_R.:E05TOU  cannot be made into a system file and is referenced.
   F$DCB.:E05TOU  is referenced.
   B$JIT_C.:E05TOU  is referenced.
   B$JIT.:E05TOU  cannot be made into a system file and is referenced.
   N_FC_C.:E05TOU  is referenced.
   HF_LOCK_C.:E05TOU  cannot be made into a system file and is referenced.
   CP_6_SUBS.:E05TOU  is referenced.
   FM$CFU.:E05TOU  is referenced.
   FM_DATA_R.:E05TOU  cannot be made into a system file and is referenced.
   FM_CNTRL_R.:E05TOU  cannot be made into a system file and is referenced.
   FM_CACHE_C.:E05TOU  is referenced.
   FM_CACHE_R.:E05TOU  cannot be made into a system file and is referenced.
      No diagnostics issued in procedure FMC$FINISH.

   Procedure FMC$FINISH requires 455 words for executable code.
   Procedure FMC$FINISH requires 32 words of local(AUTO) storage.

PL6.E3A0      #004=FMC$FINISH File=FMC$CACHE.:E05TSI                             TUE 07/29/97 16:39 Page:104

 Object Unit name= FMC$FINISH                                 File name= FMC$CACHE.:E05TOU
 UTS= JUL 29 '97 16:39:47.20 TUE                              Compiler= PL-6/E31         Sev=      00
 SharedLib= :SHARED_SYSTEM                                    Alt SharedLib=


    ****  Control sections  ****

 Sect   Type Bound  Init  Size OctSiz  Section name(segment info)
    0   Proc  even  none   455    707  FMC$FINISH
    1  RoData even  none     5      5  FMC$FINISH

    ****  Entry defs  ****

                              Check   Calling
                             calling  sequence
  Sect OctLoc Primary Altret sequence   type   Parms  Name
     0      0   yes    yes     yes      Std        4  FMC$FINISH
     0    242          yes     yes      Std        4  FMC$UPLIMIT
PL6.E3A0      #004=FMC$FINISH File=FMC$CACHE.:E05TSI                             TUE 07/29/97 16:39 Page:105

  ****  Entry refs  ****

         Check        Calling
        calling       sequence
Altret sequence SRef   type   Args  Name
         yes           Std       1 FMC$GETTYPE
 yes     yes           Std       4 FMC$GETSLOT
         yes           Std       1 HFC$UNLOCK
 yes     yes           Std       3 FAF$FRTOSR
         yes           Std       1 FMC$CLR1
         yes           Std       1 HFC$LOCK
 yes     yes           Std       9 FMB$RIO
         yes           Std       2 MMJ$FBTOIOPM
         yes           Std       1 FMC$EA
         yes           Std       1 MMJ$UNMAPIOP
         yes           Std       1 MMJ$FIOP
         yes           Std       1 FMC$ADD
                       Std       0 B_CONSPOOL_D
                       nStd      0 X66_AUTO_4
                       nStd      0 X66_ARET
                       nStd      0 X66_AALT

  ****  Data refs  ****

  Flags:  r = read only, s = secondary
Flgs Name                             Flgs Name                             Flgs Name
     FMC_CACHE$                            FMC_TYPTBL$                           FMC_CACHESIZ
     FMC_CACHEPGCNT$                       FMC_LOCK                              FMC_MASK
     FMC_LIMITS                       r    FM_SRZERO                             P_RESOURCE$
     P_UPTIME                              P_NSCPU                               B$JIT$
     B_VECTNIL
PL6.E3A0      #004=FMC$FINISH File=FMC$CACHE.:E05TSI                             TUE 07/29/97 16:39 Page:106

  ****  Segment refs  ****

  Flags:  r = read only, s = secondary
Flgs Name                             Flgs Name                             Flgs Name
     ISSID
PL6.E3A0      #004=FMC$FINISH File=FMC$CACHE.:E05TSI                             TUE 07/29/97 16:39 Page:107


      404        1        /*T***********************************************************/
      405        2        /*T*                                                         */
      406        3        /*T* Copyright (c) Bull HN Information Systems Inc., 1997    */
      407        4        /*T*                                                         */
      408        5        /*T***********************************************************/
      409        6        /*D*     NAME:     FMC$FINISH
      410        7                 PURPOSE:  To do whatever when a user finishes using a page.
      411        8                 INPUT:    BUFNUM - Buffer number
      412        9                           BYTES - Number of bytes to write, if we need to
      413       10                           FC - What kind of write to do
      414       11                 OUTPUT:   FLAG - 1 if we could do the write
      415       12                                  0 if we couldn't do the write
      416       13                 DESCRIPTION:
      417       14                      If the page is in the cache table, then take the user
      418       15                 off of the page, and finish off the user.
      419       16                      Otherwise, if the expire time is greater than zero
      420       17                 see if we can find a slot for the user.  If we can, then
      421       18                 set up a cache table entry and finish off the user.
      422       19        */
      423       20                 %EJECT;
PL6.E3A0      #004=FMC$FINISH File=FMC$CACHE.:E05TSI                             TUE 07/29/97 16:39 Page:108
      424       21        FMC$FINISH: PROC(BUFNUM, BYTES, FC, FLAG) ALTRET;

     21  0 000000   000000 700200 xent  FMC$FINISH   TSX0  ! X66_AUTO_4
         0 000001   000040 000004                    ZERO    32,4

      425       22    1          DCL BUFNUM SBIN;
      426       23    1          DCL BYTES SBIN;
      427       24    1          DCL FC SBIN;
      428       25    1          DCL FLAG SBIN;
      429       26        /* */
      430       27               %INCLUDE FM_CACHE_R;
      431       39               %INCLUDE FM_CACHE_C;
      432      105               %INCLUDE FM_CNTRL_R;
      433      114               %INCLUDE FM_DATA_R;
      434      128               %INCLUDE FM$CFU;
      435      173               %INCLUDE CP_6_SUBS;
      436      713               %INCLUDE HF_LOCK_C;
      437      727               %INCLUDE N_FC_C;
      438      764               %INCLUDE B$JIT;
      439     1367               %MACRO F$DCB(BASED=BASED);
      440     1368               %INCLUDE F$DCB;
      441     1417               %MEND;
      442     1418               %INCLUDE P_PMDAT_R;
      443     1726        /* */
      444     1727    1          DCL FMC$GETTYPE ENTRY(1);
      445     1728    1          DCL FAF$FRTOSR ENTRY(3) ALTRET;
      446     1729    1          DCL FMC$GETSLOT ENTRY(4) ALTRET;
      447     1730    1          DCL FMC$ADD ENTRY(1);
      448     1731    1          DCL FMC$CLR1 ENTRY(1);
      449     1732    1          DCL MMJ$FIOP ENTRY(1);
      450     1733    1          DCL MMJ$FBTOIOPM ENTRY(2);
      451     1734    1          DCL FMB$RIO ENTRY(9) ALTRET;
      452     1735    1          DCL FMC$EA ENTRY(1);
      453     1736    1          DCL MMJ$UNMAPIOP ENTRY(1);
      454     1737        /* */
      455     1738    1          DCL B$JIT$ PTR SYMREF;
      456     1739        /* */
PL6.E3A0      #004=FMC$FINISH File=FMC$CACHE.:E05TSI                             TUE 07/29/97 16:39 Page:109
      457     1740               %F$DCB(BASED="BASED(JDCB$)");
      458     1790               %FMC$CACHE;
      459     1813               %FMC$CACHE(FPTN=FMC$CACHE, ARRAY=NO, STCLASS="BASED(CACHE$)");
      460     1836               %FMC$TYPTBL;
      461     1841               %FM$CFU(BASED="BASED(CFU$)");
      462     1847        /* */
      463     1848    1          DCL JDCB$ PTR;
      464     1849    1          DCL CFU$ PTR;
      465     1850    1          DCL CACHE$ PTR;
      466     1851    1          DCL DA SBIN;
      467     1852    1          DCL SETX SBIN;
      468     1853    1          DCL SRDA SBIN;
      469     1854    1          DCL VPNO SBIN;
      470     1855    1          DCL TYPE SBIN;
      471     1856    1          DCL PP SBIN;
      472     1857    1          DCL GRANS SBIN;
      473     1858    1          DCL END_ACTION BIT(1) ALIGNED;
      474     1859    1          DCL HASH SBIN;
      475     1860    1          DCL 1 EAINFO,
      476     1861    1               2 HASH UBIN(18) HALIGNED,
      477     1862    1               2 * UBIN(18) HALIGNED;
      478     1863        /* */
      479     1864    1          JDCB$=B$JIT.DCB$;

   1864  0 000002   000000 470400 xsym               LDP0    B$JIT$
         0 000003   000232 236100                    LDQ     154,,PR0
         0 000004   200007 756100                    STQ     JDCB$,,AUTO

      480     1865    1          FLAG=0;

   1865  0 000005   200006 471500                    LDP1    @FLAG,,AUTO
         0 000006   100000 450100                    STZ     0,,PR1

      481     1866    1          HASH=F$DCB.BFR1.CX(BUFNUM);

   1866  0 000007   200003 470500                    LDP0    @BUFNUM,,AUTO
         0 000010   000000 235100                    LDA     0,,PR0
PL6.E3A0      #004=FMC$FINISH File=FMC$CACHE.:E05TSI                             TUE 07/29/97 16:39 Page:110
         0 000011   200007 473500                    LDP3    JDCB$,,AUTO
         0 000012   300122 236105                    LDQ     82,AL,PR3
         0 000013   777777 376007                    ANQ     -1,DL
         0 000014   200022 756100                    STQ     HASH,,AUTO

      482     1867
      483     1868    1          IF FMC_CACHESIZ = 0 THEN

   1868  0 000015   000000 235000 xsym               LDA     FMC_CACHESIZ
         0 000016   000020 601000 0                  TNZ     s:1871

      484     1869    1             RETURN;

   1869  0 000017   000000 702200 xent               TSX2  ! X66_ARET

      485     1870
      486     1871    1          IF HASH > 0 THEN

   1871  0 000020   000000 116003                    CMPQ    0,DU
         0 000021   000032 604400 0                  TMOZ    s:1878

      487     1872    2             DO;   /* GET USER OFF OF CACHE PAGE */

      488     1873    2             VPNO=F$DCB.BFR.BUFX(BUFNUM);

   1873  0 000022   000000 235100                    LDA     0,,PR0
         0 000023   300115 236105                    LDQ     77,AL,PR3
         0 000024   000033 772000                    QRL     27
         0 000025   000037 376007                    ANQ     31,DL
         0 000026   200015 756100                    STQ     VPNO,,AUTO

      489     1874    2             CALL FINISH ALTRET(ERR);

   1874  0 000027   000366 701000 0                  TSX1    FINISH
         0 000030   000234 702000 0                  TSX2    ERR

      490     1875    2             END;  /* GET USER OFF OF CACHE PAGE */
PL6.E3A0      #004=FMC$FINISH File=FMC$CACHE.:E05TSI                             TUE 07/29/97 16:39 Page:111

   1875  0 000031   000233 710000 0                  TRA     s:1923

      491     1876    1          ELSE
      492     1877    2             DO;   /* CAN WE CACHE IT */

      493     1878    2             IF F$DCB.CFU$ = ADDR(NIL) THEN

   1878  0 000032   300066 236100                    LDQ     54,,PR3
         0 000033   000001 116000 xsym               CMPQ    B_VECTNIL+1
         0 000034   000036 601000 0                  TNZ     s:1880

      494     1879    2                RETURN;

   1879  0 000035   000000 702200 xent               TSX2  ! X66_ARET

      495     1880    2             CFU$=F$DCB.CFU$;

   1880  0 000036   200010 756100                    STQ     CFU$,,AUTO

      496     1881    2             IF FM$CFU.SHARE = %ALL# AND

   1881  0 000037   200010 474500                    LDP4    CFU$,,AUTO
         0 000040   400000 236100                    LDQ     0,,PR4
         0 000041   060000 376003                    ANQ     24576,DU
         0 000042   020000 116003                    CMPQ    8192,DU
         0 000043   000054 601000 0                  TNZ     s:1884
         0 000044   300100 236100                    LDQ     64,,PR3
         0 000045   000022 772000                    QRL     18
         0 000046   200026 756100                    STQ     EAINFO+3,,AUTO
         0 000047   400006 236100                    LDQ     6,,PR4
         0 000050   000025 772000                    QRL     21
         0 000051   200026 116100                    CMPQ    EAINFO+3,,AUTO
         0 000052   000054 600000 0                  TZE     s:1884

      497     1882    2                (FM$CFU.MODCNT ~= F$DCB.MODCNT) THEN
      498     1883    2                RETURN;
PL6.E3A0      #004=FMC$FINISH File=FMC$CACHE.:E05TSI                             TUE 07/29/97 16:39 Page:112

   1883  0 000053   000000 702200 xent               TSX2  ! X66_ARET

      499     1884    2             CALL FMC$GETTYPE(TYPE);

   1884  0 000054   200016 635500                    EPPR5   TYPE,,AUTO
         0 000055   200026 455500                    STP5    EAINFO+3,,AUTO
         0 000056   200026 630500                    EPPR0   EAINFO+3,,AUTO
         0 000057   000017 631400 xsym               EPPR1   B_VECTNIL+15
         0 000060   000000 701000 xent               TSX1    FMC$GETTYPE
         0 000061   000000 011000                    NOP     0

      500     1885    2             DA=F$DCB.BFR.DA(BUFNUM);

   1885  0 000062   200003 470500                    LDP0    @BUFNUM,,AUTO
         0 000063   000000 235100                    LDA     0,,PR0
         0 000064   200007 471500                    LDP1    JDCB$,,AUTO
         0 000065   100115 236105                    LDQ     77,AL,PR1
         0 000066   000032 376000 xsym               ANQ     B_VECTNIL+26
         0 000067   200012 756100                    STQ     DA,,AUTO

      501     1886    2             IF DA < FM_SRZERO THEN

   1886  0 000070   000073 604000 0                  TMI     s:1887
         0 000071   000000 116000 xsym               CMPQ    FM_SRZERO
         0 000072   000106 603000 0                  TRC     s:1889

      502     1887    2                CALL FAF$FRTOSR(DA, SRDA, GRANS) ALTRET(ERR);

   1887  0 000073   200020 633500                    EPPR3   GRANS,,AUTO
         0 000074   200030 453500                    STP3    EAINFO+5,,AUTO
         0 000075   200014 634500                    EPPR4   SRDA,,AUTO
         0 000076   200027 454500                    STP4    EAINFO+4,,AUTO
         0 000077   200012 635500                    EPPR5   DA,,AUTO
         0 000100   200026 455500                    STP5    EAINFO+3,,AUTO
         0 000101   200026 630500                    EPPR0   EAINFO+3,,AUTO
         0 000102   000021 631400 xsym               EPPR1   B_VECTNIL+17
PL6.E3A0      #004=FMC$FINISH File=FMC$CACHE.:E05TSI                             TUE 07/29/97 16:39 Page:113
         0 000103   000000 701000 xent               TSX1    FAF$FRTOSR
         0 000104   000234 702000 0                  TSX2    ERR
         0 000105   000107 710000 0                  TRA     s:1890

      503     1888    2             ELSE
      504     1889    2                SRDA=DA;

   1889  0 000106   200014 756100                    STQ     SRDA,,AUTO

      505     1890    2             IF FMC_LIMITS.EXPIRE(TYPE) > 0 THEN

   1890  0 000107   200016 235100                    LDA     TYPE,,AUTO
         0 000110   000001 735000                    ALS     1
         0 000111   000000 235005 xsym               LDA     FMC_LIMITS,AL
         0 000112   000233 604400 0                  TMOZ    s:1923

      506     1891    3                DO;   /* YES WE CAN */

      507     1892    3                SETX=F$DCB.SETX;

   1892  0 000113   200007 470500                    LDP0    JDCB$,,AUTO
         0 000114   000051 236100                    LDQ     41,,PR0
         0 000115   777777 376007                    ANQ     -1,DL
         0 000116   200013 756100                    STQ     SETX,,AUTO

      508     1893                     %HASH;

   1894  0 000117   200014 036100                    ADLQ    SRDA,,AUTO
         0 000120   000000 376000 xsym               ANQ     FMC_MASK
         0 000121   000002 736000                    QLS     2
         0 000122   000001 036007                    ADLQ    1,DL
         0 000123   200022 756100                    STQ     HASH,,AUTO

      509     1896    3                IF TYPE <= %CTYP_FIT THEN

   1896  0 000124   200016 235100                    LDA     TYPE,,AUTO
         0 000125   000004 115007                    CMPA    4,DL
PL6.E3A0      #004=FMC$FINISH File=FMC$CACHE.:E05TSI                             TUE 07/29/97 16:39 Page:114
         0 000126   000135 605400 0                  TPNZ    s:1900

      510     1897    3                   CALL FMC$CLR1(SRDA);

   1897  0 000127   200014 631500                    EPPR1   SRDA,,AUTO
         0 000130   200026 451500                    STP1    EAINFO+3,,AUTO
         0 000131   200026 630500                    EPPR0   EAINFO+3,,AUTO
         0 000132   000017 631400 xsym               EPPR1   B_VECTNIL+15
         0 000133   000000 701000 xent               TSX1    FMC$CLR1
         0 000134   000000 011000                    NOP     0

      511     1898
      512     1899                     %LOCK(G=FMC_LOCK);

   1900  0 000135   000000 630400 1                  EPPR0   0
         0 000136   000017 631400 xsym               EPPR1   B_VECTNIL+15
         0 000137   000000 701000 xent               TSX1    HFC$LOCK
         0 000140   000000 011000                    NOP     0

      513     1902    3                CALL FMC$GETSLOT(HASH, TYPE, SRDA, CACHE$) ALTRET(NOCACHE);

   1902  0 000141   200011 630500                    EPPR0   CACHE$,,AUTO
         0 000142   200031 450500                    STP0    EAINFO+6,,AUTO
         0 000143   200014 631500                    EPPR1   SRDA,,AUTO
         0 000144   200030 451500                    STP1    EAINFO+5,,AUTO
         0 000145   200016 633500                    EPPR3   TYPE,,AUTO
         0 000146   200027 453500                    STP3    EAINFO+4,,AUTO
         0 000147   200022 634500                    EPPR4   HASH,,AUTO
         0 000150   200026 454500                    STP4    EAINFO+3,,AUTO
         0 000151   200026 630500                    EPPR0   EAINFO+3,,AUTO
         0 000152   000022 631400 xsym               EPPR1   B_VECTNIL+18
         0 000153   000000 701000 xent               TSX1    FMC$GETSLOT
         0 000154   000235 702000 0                  TSX2    NOCACHE

      514     1903    3                VPNO=F$DCB.BFR.BUFX(BUFNUM);

   1903  0 000155   200003 470500                    LDP0    @BUFNUM,,AUTO
PL6.E3A0      #004=FMC$FINISH File=FMC$CACHE.:E05TSI                             TUE 07/29/97 16:39 Page:115
         0 000156   000000 235100                    LDA     0,,PR0
         0 000157   200007 471500                    LDP1    JDCB$,,AUTO
         0 000160   100115 236105                    LDQ     77,AL,PR1
         0 000161   000033 772000                    QRL     27
         0 000162   000037 376007                    ANQ     31,DL
         0 000163   200015 756100                    STQ     VPNO,,AUTO

      515     1904    3                CALL MMJ$FBTOIOPM(VPNO, PP);

   1904  0 000164   200017 633500                    EPPR3   PP,,AUTO
         0 000165   200027 453500                    STP3    EAINFO+4,,AUTO
         0 000166   200015 634500                    EPPR4   VPNO,,AUTO
         0 000167   200026 454500                    STP4    EAINFO+3,,AUTO
         0 000170   200026 630500                    EPPR0   EAINFO+3,,AUTO
         0 000171   000020 631400 xsym               EPPR1   B_VECTNIL+16
         0 000172   000000 701000 xent               TSX1    MMJ$FBTOIOPM
         0 000173   000000 011000                    NOP     0

      516     1905    3                FMC$CACHE.SRDA=SRDA;

   1905  0 000174   200011 470500                    LDP0    CACHE$,,AUTO
         0 000175   200014 236100                    LDQ     SRDA,,AUTO
         0 000176   000000 552134                    STBQ    0,'34'O,PR0

      517     1906    3                FMC$CACHE.USECNT=1;

   1906  0 000177   000001 220003                    LDX0    1,DU
         0 000200   200011 470500                    LDP0    CACHE$,,AUTO
         0 000201   000002 440100                    SXL0    2,,PR0

      518     1907    3                FMC$CACHE.PAGE=PP;

   1907  0 000202   200017 721100                    LXL1    PP,,AUTO
         0 000203   200011 470500                    LDP0    CACHE$,,AUTO
         0 000204   000002 741100                    STX1    2,,PR0

      519     1908    3                FMC$CACHE.SETX=F$DCB.SETX;
PL6.E3A0      #004=FMC$FINISH File=FMC$CACHE.:E05TSI                             TUE 07/29/97 16:39 Page:116

   1908  0 000205   200007 470500                    LDP0    JDCB$,,AUTO
         0 000206   000051 721100                    LXL1    41,,PR0
         0 000207   200011 471500                    LDP1    CACHE$,,AUTO
         0 000210   100004 741100                    STX1    4,,PR1

      520     1909    3                FMC$CACHE.TYPE=TYPE;

   1909  0 000211   200011 471500                    LDP1    CACHE$,,AUTO
         0 000212   200016 236100                    LDQ     TYPE,,AUTO
         0 000213   000033 736000                    QLS     27
         0 000214   100000 552140                    STBQ    0,'40'O,PR1

      521     1910                     %INC_COUNTER(ITEM=IOCACHE);

   1911  0 000215   000000 471400 xsym               LDP1    P_RESOURCE$
         0 000216   100055 235100                    LDA     45,,PR1
         0 000217   000001 035007                    ADLA    1,DL
         0 000220   100055 755100                    STA     45,,PR1

   1912  0 000221   100056 236100                    LDQ     46,,PR1
         0 000222   100055 116100                    CMPQ    45,,PR1
         0 000223   000225 603000 0                  TRC     s:1917

   1914  0 000224   100056 755100                    STA     46,,PR1

      522     1916                     %UNLOCK(G=FMC_LOCK);

   1917  0 000225   000000 630400 1                  EPPR0   0
         0 000226   000017 631400 xsym               EPPR1   B_VECTNIL+15
         0 000227   000000 701000 xent               TSX1    HFC$UNLOCK
         0 000230   000000 011000                    NOP     0

      523     1919    3                CALL FINISH ALTRET(ERR);

   1919  0 000231   000366 701000 0                  TSX1    FINISH
         0 000232   000234 702000 0                  TSX2    ERR
PL6.E3A0      #004=FMC$FINISH File=FMC$CACHE.:E05TSI                             TUE 07/29/97 16:39 Page:117

      524     1920    3                END;  /* YES WE CAN */

      525     1921    2             END;   /* CAN WE CACHE IT */

      526     1922
      527     1923    1          RETURN;

   1923  0 000233   000000 702200 xent               TSX2  ! X66_ARET

      528     1924    1   ERR:   ALTRETURN;

   1924  0 000234   000000 702200 xent  ERR          TSX2  ! X66_AALT

   1912  0 000235                       NOCACHE      null
      529     1925    1   NOCACHE: ;
      530     1926               %UNLOCK(G=FMC_LOCK);

   1927  0 000235   000000 630400 1                  EPPR0   0
         0 000236   000017 631400 xsym               EPPR1   B_VECTNIL+15
         0 000237   000000 701000 xent               TSX1    HFC$UNLOCK
         0 000240   000000 011000                    NOP     0

      531     1929    1          RETURN;

   1929  0 000241   000000 702200 xent               TSX2  ! X66_ARET

      532     1930               %EJECT;
PL6.E3A0      #004=FMC$FINISH File=FMC$CACHE.:E05TSI                             TUE 07/29/97 16:39 Page:118
      533     1931        /*D*     ENTRY:    FMC$UPLIMIT
      534     1932                 PURPOSE:  To check UPLIMIT on the current granule, and, if
      535     1933                           necessary, write the granule.
      536     1934                 DESCRIPTION:
      537     1935                      The page is guaranteed to be updated, and is guaranteed
      538     1936                 to be in the cache.  If UPCOUNT for the page is greater than
      539     1937                 UPLIMIT for this type, write the page.  Else just return.
      540     1938        */
      541     1939    1   FMC$UPLIMIT: ENTRY(BUFNUM,BYTES,FC,FLAG) ALTRET;

   1939  0 000242   000000 700200 xent  FMC$UPLIMIT  TSX0  ! X66_AUTO_4
         0 000243   000040 000004                    ZERO    32,4

      542     1940
      543     1941    1           JDCB$ = B$JIT.DCB$;

   1941  0 000244   000000 470400 xsym               LDP0    B$JIT$
         0 000245   000232 236100                    LDQ     154,,PR0
         0 000246   200007 756100                    STQ     JDCB$,,AUTO

      544     1942    1           HASH = F$DCB.BFR1.CX(BUFNUM);

   1942  0 000247   200003 471500                    LDP1    @BUFNUM,,AUTO
         0 000250   100000 235100                    LDA     0,,PR1
         0 000251   200007 473500                    LDP3    JDCB$,,AUTO
         0 000252   300122 236105                    LDQ     82,AL,PR3
         0 000253   777777 376007                    ANQ     -1,DL
         0 000254   200022 756100                    STQ     HASH,,AUTO

      545     1943    1           IF FMC_CACHESIZ = 0 THEN

   1943  0 000255   000000 235000 xsym               LDA     FMC_CACHESIZ
         0 000256   000260 601000 0                  TNZ     s:1946

      546     1944    1              RETURN;

   1944  0 000257   000000 702200 xent               TSX2  ! X66_ARET
PL6.E3A0      #004=FMC$FINISH File=FMC$CACHE.:E05TSI                             TUE 07/29/97 16:39 Page:119

      547     1945                %LOCK(G=FMC_LOCK);

   1946  0 000260   000000 630400 1                  EPPR0   0
         0 000261   000017 631400 xsym               EPPR1   B_VECTNIL+15
         0 000262   000000 701000 xent               TSX1    HFC$LOCK
         0 000263   000000 011000                    NOP     0

      548     1948    1           CACHE$ = ADDR(FMC$CACHETBL(HASH));

   1948  0 000264   200022 236100                    LDQ     HASH,,AUTO
         0 000265   000006 402003                    MPY     6,DU
         0 000266   000000 036000 xsym               ADLQ    FMC_CACHE$
         0 000267   200011 756100                    STQ     CACHE$,,AUTO

      549     1949    1           FMC$CACHE.FLAGS.BUFUP = '1'B;

   1949  0 000270   200011 470500                    LDP0    CACHE$,,AUTO
         0 000271   000001 236007                    LDQ     1,DL
         0 000272   000004 256100                    ORSQ    4,,PR0

      550     1950    1           FMC$CACHE.UPCOUNT = FMC$CACHE.UPCOUNT + 1;

   1950  0 000273   200011 470500                    LDP0    CACHE$,,AUTO
         0 000274   000003 235100                    LDA     3,,PR0
         0 000275   000001 035007                    ADLA    1,DL
         0 000276   000003 755100                    STA     3,,PR0

      551     1951    1           IF NOT FMC$CACHE.FLAGS.ERR AND

   1951  0 000277   200011 470500                    LDP0    CACHE$,,AUTO
         0 000300   000004 236100                    LDQ     4,,PR0
         0 000301   000002 316007                    CANQ    2,DL
         0 000302   000354 601000 0                  TNZ     s:1964
         0 000303   000000 236100                    LDQ     0,,PR0
         0 000304   000032 772000                    QRL     26
         0 000305   001776 376007                    ANQ     1022,DL
PL6.E3A0      #004=FMC$FINISH File=FMC$CACHE.:E05TSI                             TUE 07/29/97 16:39 Page:120
         0 000306   000000 620006                    EAX0    0,QL
         0 000307   000003 236100                    LDQ     3,,PR0
         0 000310   000313 604000 0                  TMI     s:1953
         0 000311   000001 116010 xsym               CMPQ    FMC_LIMITS+1,X0
         0 000312   000354 604400 0                  TMOZ    s:1964

      552     1952    2                  FMC$CACHE.UPCOUNT > FMC_LIMITS.UPLIMIT(FMC$CACHE.TYPE) THEN DO;

      553     1953    2              PP = FMC$CACHE.PAGE;

   1953  0 000313   000002 236100                    LDQ     2,,PR0
         0 000314   000022 772000                    QRL     18
         0 000315   200017 756100                    STQ     PP,,AUTO

      554     1954    2              FMC$CACHE.FLAGS.BUFUP = '0'B;

   1954  0 000316   000001 236000 1                  LDQ     1
         0 000317   000004 356100                    ANSQ    4,,PR0

      555     1955    2              FMC$CACHE.UPCOUNT = 0;

   1955  0 000320   200011 470500                    LDP0    CACHE$,,AUTO
         0 000321   000003 450100                    STZ     3,,PR0

      556     1956                   %UNLOCK(G=FMC_LOCK);

   1957  0 000322   000000 630400 1                  EPPR0   0
         0 000323   000017 631400 xsym               EPPR1   B_VECTNIL+15
         0 000324   000000 701000 xent               TSX1    HFC$UNLOCK
         0 000325   000000 011000                    NOP     0

      557     1959    2              SRDA = FMC$CACHE.SRDA;

   1959  0 000326   200011 470500                    LDP0    CACHE$,,AUTO
         0 000327   000000 236100                    LDQ     0,,PR0
         0 000330   000032 376000 xsym               ANQ     B_VECTNIL+26
         0 000331   200014 756100                    STQ     SRDA,,AUTO
PL6.E3A0      #004=FMC$FINISH File=FMC$CACHE.:E05TSI                             TUE 07/29/97 16:39 Page:121

      558     1960    2              CALL FMB$RIO(0,PP,BYTES,SRDA,FC,-1,ENTADDR(NIL),0) ALTRET(IOERR);

   1960  0 000332   000002 237000 1                  LDAQ    2
         0 000333   200034 757100                    STAQ    EAINFO+9,,AUTO
         0 000334   000004 236000 1                  LDQ     4
         0 000335   200005 235100                    LDA     @FC,,AUTO
         0 000336   200032 757100                    STAQ    EAINFO+7,,AUTO
         0 000337   200014 631500                    EPPR1   SRDA,,AUTO
         0 000340   200031 451500                    STP1    EAINFO+6,,AUTO
         0 000341   200004 236100                    LDQ     @BYTES,,AUTO
         0 000342   200030 756100                    STQ     EAINFO+5,,AUTO
         0 000343   200017 633500                    EPPR3   PP,,AUTO
         0 000344   200027 453500                    STP3    EAINFO+4,,AUTO
         0 000345   000002 236000 1                  LDQ     2
         0 000346   200026 756100                    STQ     EAINFO+3,,AUTO
         0 000347   200026 630500                    EPPR0   EAINFO+3,,AUTO
         0 000350   000026 631400 xsym               EPPR1   B_VECTNIL+22
         0 000351   000000 701000 xent               TSX1    FMB$RIO
         0 000352   000361 702000 0                  TSX2    IOERR

      559     1961    2              RETURN;

   1961  0 000353   000000 702200 xent               TSX2  ! X66_ARET

      560     1962    2              END;
      561     1963                %UNLOCK(G=FMC_LOCK);

   1964  0 000354   000000 630400 1                  EPPR0   0
         0 000355   000017 631400 xsym               EPPR1   B_VECTNIL+15
         0 000356   000000 701000 xent               TSX1    HFC$UNLOCK
         0 000357   000000 011000                    NOP     0

      562     1966    1           RETURN;

   1966  0 000360   000000 702200 xent               TSX2  ! X66_ARET

PL6.E3A0      #004=FMC$FINISH File=FMC$CACHE.:E05TSI                             TUE 07/29/97 16:39 Page:122
      563     1967    1   IOERR:  IF SRDA ~= -1 THEN

   1967  0 000361   200014 235100       IOERR        LDA     SRDA,,AUTO
         0 000362   000027 115000 xsym               CMPA    B_VECTNIL+23
         0 000363   000365 600000 0                  TZE     s:1969

      564     1968    1              ALTRETURN;

   1968  0 000364   000000 702200 xent               TSX2  ! X66_AALT

      565     1969    1           RETURN;

   1969  0 000365   000000 702200 xent               TSX2  ! X66_ARET

      566     1970               %EJECT;
PL6.E3A0      #004=FMC$FINISH File=FMC$CACHE.:E05TSI                             TUE 07/29/97 16:39 Page:123
      567     1971        /*I*     NAME:     FINISH
      568     1972                 PURPOSE:  To finish off a user that has a page in the
      569     1973                           cache table.
      570     1974
      571     1975                 DESCRIPTION:
      572     1976
      573     1977                      If the page has been updated, then write the page out.
      574     1978                 Otherwise, just decrement the usecount.  If the page has
      575     1979                 the error bit set, or the expire time is zero, then get
      576     1980                 rid of the page.
      577     1981        */
      578     1982                 %EJECT;
PL6.E3A0      #004=FMC$FINISH File=FMC$CACHE.:E05TSI                             TUE 07/29/97 16:39 Page:124
      579     1983    1   FINISH: PROC ALTRET;

   1983  0 000366   200024 741300       FINISH       STX1  ! EAINFO+1,,AUTO

      580     1984        /* */
      581     1985               %LOCK(G=FMC_LOCK);

   1986  0 000367   000000 630400 1                  EPPR0   0
         0 000370   000017 631400 xsym               EPPR1   B_VECTNIL+15
         0 000371   000000 701000 xent               TSX1    HFC$LOCK
         0 000372   000000 011000                    NOP     0

      582     1988
      583     1989    2          END_ACTION='0'B;

   1989  0 000373   200021 450100                    STZ     END_ACTION,,AUTO

      584     1990    2          CACHE$=ADDR(FMC$CACHETBL(HASH));

   1990  0 000374   200022 236100                    LDQ     HASH,,AUTO
         0 000375   000006 402003                    MPY     6,DU
         0 000376   000000 036000 xsym               ADLQ    FMC_CACHE$
         0 000377   200011 756100                    STQ     CACHE$,,AUTO

      585     1991    2          IF F$DCB.BFR.BUFUP(BUFNUM) THEN

   1991  0 000400   200003 470500                    LDP0    @BUFNUM,,AUTO
         0 000401   000000 235100                    LDA     0,,PR0
         0 000402   200007 471500                    LDP1    JDCB$,,AUTO
         0 000403   100115 234105                    SZN     77,AL,PR1
         0 000404   000410 605000 0                  TPL     s:1994

      586     1992    2             FMC$CACHE.FLAGS.BUFUP='1'B;

   1992  0 000405   200011 473500                    LDP3    CACHE$,,AUTO
         0 000406   000001 236007                    LDQ     1,DL
         0 000407   300004 256100                    ORSQ    4,,PR3
PL6.E3A0      #004=FMC$FINISH File=FMC$CACHE.:E05TSI                             TUE 07/29/97 16:39 Page:125

      587     1993
      588     1994    2          IF FMC$CACHE.FLAGS.BUFUP THEN

   1994  0 000410   200011 473500                    LDP3    CACHE$,,AUTO
         0 000411   300004 236100                    LDQ     4,,PR3
         0 000412   000001 316007                    CANQ    1,DL
         0 000413   000426 600000 0                  TZE     s:2002

      589     1995    3             DO;   /* CACHE UPDATED */

      590     1996    3             IF F$DCB.BFR.BUFUP(BUFNUM) THEN

   1996  0 000414   000000 235100                    LDA     0,,PR0
         0 000415   100115 234105                    SZN     77,AL,PR1
         0 000416   000423 605000 0                  TPL     s:1999

      591     1997    3                FMC$CACHE.UPCOUNT=FMC$CACHE.UPCOUNT+1;

   1997  0 000417   300003 235100                    LDA     3,,PR3
         0 000420   000001 035007                    ADLA    1,DL
         0 000421   300003 755100                    STA     3,,PR3
         0 000422   000426 710000 0                  TRA     s:2002

      592     1998    3             ELSE
      593     1999    3                B$JIT.ACCESS.PACKS=B$JIT.ACCESS.PACKS-1;

   1999  0 000423   000000 474400 xsym               LDP4    B$JIT$
         0 000424   000001 336007                    LCQ     1,DL
         0 000425   400327 056100                    ASQ     215,,PR4

      594     2000    3             END;  /* CACHE UPDATED */

      595     2001
      596     2002    2          IF FMC$CACHE.FLAGS.BUFUP AND NOT FMC$CACHE.FLAGS.ERR THEN

   2002  0 000426   200011 473500                    LDP3    CACHE$,,AUTO
PL6.E3A0      #004=FMC$FINISH File=FMC$CACHE.:E05TSI                             TUE 07/29/97 16:39 Page:126
         0 000427   300004 236100                    LDQ     4,,PR3
         0 000430   000001 316007                    CANQ    1,DL
         0 000431   000532 600000 0                  TZE     s:2029
         0 000432   000002 316007                    CANQ    2,DL
         0 000433   000532 601000 0                  TNZ     s:2029

      597     2003    3             DO;   /* AN I/O */

      598     2004    3             IF FMC$CACHE.USECNT = 1 OR

   2004  0 000434   300002 720100                    LXL0    2,,PR3
         0 000435   000001 100003                    CMPX0   1,DU
         0 000436   000447 600000 0                  TZE     s:2007
         0 000437   300000 236100                    LDQ     0,,PR3
         0 000440   000032 772000                    QRL     26
         0 000441   001776 376007                    ANQ     1022,DL
         0 000442   000000 621006                    EAX1    0,QL
         0 000443   300003 236100                    LDQ     3,,PR3
         0 000444   000447 604000 0                  TMI     s:2007
         0 000445   000001 116011 xsym               CMPQ    FMC_LIMITS+1,X1
         0 000446   000524 604400 0                  TMOZ    s:2024

      599     2005    3              FMC$CACHE.UPCOUNT > FMC_LIMITS.UPLIMIT(FMC$CACHE.TYPE) THEN
      600     2006    4                DO;   /* WRITE IT OUT */

      601     2007    4                END_ACTION='1'B;

   2007  0 000447   400000 236003                    LDQ     -131072,DU
         0 000450   200021 756100                    STQ     END_ACTION,,AUTO

      602     2008    4                PP=FMC$CACHE.PAGE;

   2008  0 000451   300002 236100                    LDQ     2,,PR3
         0 000452   000022 772000                    QRL     18
         0 000453   200017 756100                    STQ     PP,,AUTO

      603     2009    4                EAINFO.HASH=HASH;
PL6.E3A0      #004=FMC$FINISH File=FMC$CACHE.:E05TSI                             TUE 07/29/97 16:39 Page:127

   2009  0 000454   200022 720100                    LXL0    HASH,,AUTO
         0 000455   200023 740100                    STX0    EAINFO,,AUTO

      604     2010    4                FMC$CACHE.FLAGS.BUFUP='0'B;

   2010  0 000456   000001 236000 1                  LDQ     1
         0 000457   300004 356100                    ANSQ    4,,PR3

      605     2011    4                FMC$CACHE.UPCOUNT=0;

   2011  0 000460   200011 473500                    LDP3    CACHE$,,AUTO
         0 000461   300003 450100                    STZ     3,,PR3

      606     2012                     %UNLOCK(G=FMC_LOCK);

   2013  0 000462   000000 630400 1                  EPPR0   0
         0 000463   000017 631400 xsym               EPPR1   B_VECTNIL+15
         0 000464   000000 701000 xent               TSX1    HFC$UNLOCK
         0 000465   000000 011000                    NOP     0

      607     2015    4                SRDA=FMC$CACHE.SRDA;

   2015  0 000466   200011 470500                    LDP0    CACHE$,,AUTO
         0 000467   000000 236100                    LDQ     0,,PR0
         0 000470   000032 376000 xsym               ANQ     B_VECTNIL+26
         0 000471   200014 756100                    STQ     SRDA,,AUTO

      608     2016    4                CALL FMB$RIO(0, PP, BYTES, SRDA, FC, 0, ENTADDR(FMC$EA),

   2016  0 000472   000000 636000 xent               EAQ     FMC$EA
         0 000473   200026 756100                    STQ     EAINFO+3,,AUTO
         0 000474   200023 631500                    EPPR1   EAINFO,,AUTO
         0 000475   200037 451500                    STP1    EAINFO+12,,AUTO
         0 000476   200026 633500                    EPPR3   EAINFO+3,,AUTO
         0 000477   200036 453500                    STP3    EAINFO+11,,AUTO
         0 000500   000002 236000 1                  LDQ     2
PL6.E3A0      #004=FMC$FINISH File=FMC$CACHE.:E05TSI                             TUE 07/29/97 16:39 Page:128
         0 000501   200005 235100                    LDA     @FC,,AUTO
         0 000502   200034 757100                    STAQ    EAINFO+9,,AUTO
         0 000503   200014 634500                    EPPR4   SRDA,,AUTO
         0 000504   200033 454500                    STP4    EAINFO+8,,AUTO
         0 000505   200004 236100                    LDQ     @BYTES,,AUTO
         0 000506   200032 756100                    STQ     EAINFO+7,,AUTO
         0 000507   200017 635500                    EPPR5   PP,,AUTO
         0 000510   200031 455500                    STP5    EAINFO+6,,AUTO
         0 000511   000002 236000 1                  LDQ     2
         0 000512   200030 756100                    STQ     EAINFO+5,,AUTO
         0 000513   200030 630500                    EPPR0   EAINFO+5,,AUTO
         0 000514   000026 631400 xsym               EPPR1   B_VECTNIL+22
         0 000515   000000 701000 xent               TSX1    FMB$RIO
         0 000516   000635 702000 0                  TSX2    IOERR

      609     2017    4                   EAINFO) ALTRET(IOERR);
      610     2018                     %LOCK(G=FMC_LOCK);

   2019  0 000517   000000 630400 1                  EPPR0   0
         0 000520   000017 631400 xsym               EPPR1   B_VECTNIL+15
         0 000521   000000 701000 xent               TSX1    HFC$LOCK
         0 000522   000000 011000                    NOP     0

      611     2021    4                END;  /* WRITE IT OUT */

   2021  0 000523   000535 710000 0                  TRA     s:2031

      612     2022    3             ELSE
      613     2023    4                DO;   /* FAKE AN I/O */

      614     2024    4                B$JIT.ACCESS.PACKS=B$JIT.ACCESS.PACKS+1;

   2024  0 000524   000000 474400 xsym               LDP4    B$JIT$
         0 000525   400327 054100                    AOS     215,,PR4

      615     2025    4                FMC$CACHE.USECNT=FMC$CACHE.USECNT-1;

PL6.E3A0      #004=FMC$FINISH File=FMC$CACHE.:E05TSI                             TUE 07/29/97 16:39 Page:129
   2025  0 000526   300002 720100                    LXL0    2,,PR3
         0 000527   777777 621010                    EAX1    -1,X0
         0 000530   300002 441100                    SXL1    2,,PR3

      616     2026    4                END;  /* FAKE AN I/O */

      617     2027    3             END;  /* AN I/O */

   2027  0 000531   000535 710000 0                  TRA     s:2031

      618     2028    2          ELSE
      619     2029    2             FMC$CACHE.USECNT=FMC$CACHE.USECNT-1;

   2029  0 000532   300002 720100                    LXL0    2,,PR3
         0 000533   777777 621010                    EAX1    -1,X0
         0 000534   300002 441100                    SXL1    2,,PR3

      620     2030
      621     2031    2          F$DCB.BFR1(BUFNUM)='0'B;

   2031  0 000535   200003 470500                    LDP0    @BUFNUM,,AUTO
         0 000536   000000 235100                    LDA     0,,PR0
         0 000537   200007 471500                    LDP1    JDCB$,,AUTO
         0 000540   100122 450105                    STZ     82,AL,PR1

      622     2032    2          F$DCB.BFR(BUFNUM)=F$DCB.BFR(BUFNUM)&'000777777777'O;

   2032  0 000541   000000 235100                    LDA     0,,PR0
         0 000542   100115 236105                    LDQ     77,AL,PR1
         0 000543   000032 376000 xsym               ANQ     B_VECTNIL+26
         0 000544   100115 756105                    STQ     77,AL,PR1

      623     2033    2          CALL MMJ$UNMAPIOP(VPNO);

   2033  0 000545   200015 633500                    EPPR3   VPNO,,AUTO
         0 000546   200026 453500                    STP3    EAINFO+3,,AUTO
         0 000547   200026 630500                    EPPR0   EAINFO+3,,AUTO
PL6.E3A0      #004=FMC$FINISH File=FMC$CACHE.:E05TSI                             TUE 07/29/97 16:39 Page:130
         0 000550   000017 631400 xsym               EPPR1   B_VECTNIL+15
         0 000551   000000 701000 xent               TSX1    MMJ$UNMAPIOP
         0 000552   000000 011000                    NOP     0

      624     2034
      625     2035    2          IF FMC$CACHE.USECNT = 0 AND NOT END_ACTION THEN

   2035  0 000553   200011 470500                    LDP0    CACHE$,,AUTO
         0 000554   000002 720100                    LXL0    2,,PR0
         0 000555   000624 601000 0                  TNZ     s:2052
         0 000556   200021 234100                    SZN     END_ACTION,,AUTO
         0 000557   000624 604000 0                  TMI     s:2052

      626     2036    2             IF FMC$CACHE.FLAGS.ERR OR

   2036  0 000560   000004 236100                    LDQ     4,,PR0
         0 000561   000002 316007                    CANQ    2,DL
         0 000562   000570 601000 0                  TNZ     s:2039
         0 000563   000000 236100                    LDQ     0,,PR0
         0 000564   000032 772000                    QRL     26
         0 000565   001776 376007                    ANQ     1022,DL
         0 000566   000000 235006 xsym               LDA     FMC_LIMITS,QL
         0 000567   000616 601000 0                  TNZ     s:2050

      627     2037    2                FMC_LIMITS.EXPIRE(FMC$CACHE.TYPE) = 0 THEN
      628     2038    3                DO;   /* THROW PAGE AWAY */

      629     2039    3                PP=FMC$CACHE.PAGE;

   2039  0 000570   000002 236100                    LDQ     2,,PR0
         0 000571   000022 772000                    QRL     18
         0 000572   200017 756100                    STQ     PP,,AUTO

      630     2040    3                CALL MMJ$FIOP(PP);

   2040  0 000573   200017 631500                    EPPR1   PP,,AUTO
         0 000574   200026 451500                    STP1    EAINFO+3,,AUTO
PL6.E3A0      #004=FMC$FINISH File=FMC$CACHE.:E05TSI                             TUE 07/29/97 16:39 Page:131
         0 000575   200026 630500                    EPPR0   EAINFO+3,,AUTO
         0 000576   000017 631400 xsym               EPPR1   B_VECTNIL+15
         0 000577   000000 701000 xent               TSX1    MMJ$FIOP
         0 000600   000000 011000                    NOP     0

      631     2041    3                FMC$CACHE='0'B;

   2041  0 000601   200011 470500                    LDP0    CACHE$,,AUTO
         0 000602   000100 100400                    MLR     fill='000'O
         0 000603   000002 000001 xsym               ADSC9   B_VECTNIL+2              cn=0,n=1
         0 000604   000000 000030                    ADSC9   0,,PR0                   cn=0,n=24

      632     2042                     %DEC_COUNTER(ITEM=IOCACHE);

   2043  0 000605   000000 470400 xsym               LDP0    P_RESOURCE$
         0 000606   000055 235100                    LDA     45,,PR0
         0 000607   000001 135007                    SBLA    1,DL
         0 000610   000055 755100                    STA     45,,PR0

   2044  0 000611   000055 236100                    LDQ     45,,PR0
         0 000612   000057 116100                    CMPQ    47,,PR0
         0 000613   000624 603000 0                  TRC     s:2052

   2046  0 000614   000057 756100                    STQ     47,,PR0

      633     2048    3                END;  /* THROW PAGE AWAY */

   2048  0 000615   000624 710000 0                  TRA     s:2052

      634     2049    2             ELSE
      635     2050    2                CALL FMC$ADD(HASH);

   2050  0 000616   200022 631500                    EPPR1   HASH,,AUTO
         0 000617   200026 451500                    STP1    EAINFO+3,,AUTO
         0 000620   200026 630500                    EPPR0   EAINFO+3,,AUTO
         0 000621   000017 631400 xsym               EPPR1   B_VECTNIL+15
         0 000622   000000 701000 xent               TSX1    FMC$ADD
PL6.E3A0      #004=FMC$FINISH File=FMC$CACHE.:E05TSI                             TUE 07/29/97 16:39 Page:132
         0 000623   000000 011000                    NOP     0

      636     2051
      637     2052    2          FLAG=1;

   2052  0 000624   000001 235007                    LDA     1,DL
         0 000625   200006 470500                    LDP0    @FLAG,,AUTO
         0 000626   000000 755100                    STA     0,,PR0

      638     2053               %UNLOCK(G=FMC_LOCK);

   2054  0 000627   000000 630400 1                  EPPR0   0
         0 000630   000017 631400 xsym               EPPR1   B_VECTNIL+15
         0 000631   000000 701000 xent               TSX1    HFC$UNLOCK
         0 000632   000000 011000                    NOP     0

      639     2056
      640     2057    2          RETURN;

   2057  0 000633   200024 221300                    LDX1  ! EAINFO+1,,AUTO
         0 000634   000001 702211                    TSX2  ! 1,X1

      641     2058
      642     2059    2   IOERR: IF SRDA ~= -1 THEN

   2059  0 000635   200014 235100       IOERR        LDA     SRDA,,AUTO
         0 000636   000027 115000 xsym               CMPA    B_VECTNIL+23
         0 000637   000642 600000 0                  TZE     s:2062

      643     2060    2             ALTRETURN;

   2060  0 000640   200024 221300                    LDX1  ! EAINFO+1,,AUTO
         0 000641   000000 702211                    TSX2  ! 0,X1

      644     2061               %LOCK(G=FMC_LOCK);

   2062  0 000642   000000 630400 1                  EPPR0   0
PL6.E3A0      #004=FMC$FINISH File=FMC$CACHE.:E05TSI                             TUE 07/29/97 16:39 Page:133
         0 000643   000017 631400 xsym               EPPR1   B_VECTNIL+15
         0 000644   000000 701000 xent               TSX1    HFC$LOCK
         0 000645   000000 011000                    NOP     0

      645     2064    2          FMC$CACHE.USECNT = FMC$CACHE.USECNT - 1;

   2064  0 000646   200011 470500                    LDP0    CACHE$,,AUTO
         0 000647   000002 720100                    LXL0    2,,PR0
         0 000650   777777 621010                    EAX1    -1,X0
         0 000651   000002 441100                    SXL1    2,,PR0

      646     2065    2          F$DCB.BFR1(BUFNUM)='0'B;

   2065  0 000652   200003 470500                    LDP0    @BUFNUM,,AUTO
         0 000653   000000 235100                    LDA     0,,PR0
         0 000654   200007 471500                    LDP1    JDCB$,,AUTO
         0 000655   100122 450105                    STZ     82,AL,PR1

      647     2066    2          F$DCB.BFR(BUFNUM)=F$DCB.BFR(BUFNUM)&'000777777777'O;

   2066  0 000656   000000 235100                    LDA     0,,PR0
         0 000657   100115 236105                    LDQ     77,AL,PR1
         0 000660   000032 376000 xsym               ANQ     B_VECTNIL+26
         0 000661   100115 756105                    STQ     77,AL,PR1

      648     2067    2          CALL MMJ$UNMAPIOP(VPNO);

   2067  0 000662   200015 633500                    EPPR3   VPNO,,AUTO
         0 000663   200026 453500                    STP3    EAINFO+3,,AUTO
         0 000664   200026 630500                    EPPR0   EAINFO+3,,AUTO
         0 000665   000017 631400 xsym               EPPR1   B_VECTNIL+15
         0 000666   000000 701000 xent               TSX1    MMJ$UNMAPIOP
         0 000667   000000 011000                    NOP     0

      649     2068    2          IF FMC$CACHE.USECNT = 0 THEN

   2068  0 000670   200011 470500                    LDP0    CACHE$,,AUTO
PL6.E3A0      #004=FMC$FINISH File=FMC$CACHE.:E05TSI                             TUE 07/29/97 16:39 Page:134
         0 000671   000002 720100                    LXL0    2,,PR0
         0 000672   000701 601000 0                  TNZ     s:2071

      650     2069    2             CALL FMC$ADD(HASH);

   2069  0 000673   200022 631500                    EPPR1   HASH,,AUTO
         0 000674   200026 451500                    STP1    EAINFO+3,,AUTO
         0 000675   200026 630500                    EPPR0   EAINFO+3,,AUTO
         0 000676   000017 631400 xsym               EPPR1   B_VECTNIL+15
         0 000677   000000 701000 xent               TSX1    FMC$ADD
         0 000700   000000 011000                    NOP     0

      651     2070               %UNLOCK(G=FMC_LOCK);

   2071  0 000701   000000 630400 1                  EPPR0   0
         0 000702   000017 631400 xsym               EPPR1   B_VECTNIL+15
         0 000703   000000 701000 xent               TSX1    HFC$UNLOCK
         0 000704   000000 011000                    NOP     0

      652     2073    2          RETURN;

   2073  0 000705   200024 221300                    LDX1  ! EAINFO+1,,AUTO
         0 000706   000001 702211                    TSX2  ! 1,X1

(unnamed)
 Sect OctLoc
   1     000   000000 006000   777777 777776   000002 006000   000002 006000    ................
   1     004   000027 006000                                                    ....
      653     2074
      654     2075    2          END FINISH;
      655     2076    1          END FMC$FINISH;
      656     2077               %EOD;

PL6.E3A0      #004=FMC$FINISH File=FMC$CACHE.:E05TSI                             TUE 07/29/97 16:39 Page:135
--  Include file information  --

   P_PMDAT_C.:E05TOU  is referenced.
   P_PMDAT_R.:E05TOU  cannot be made into a system file and is referenced.
   F$DCB.:E05TOU  is referenced.
   B$JIT_C.:E05TOU  is referenced.
   B$JIT.:E05TOU  cannot be made into a system file and is referenced.
   N_FC_C.:E05TOU  is referenced.
   HF_LOCK_C.:E05TOU  cannot be made into a system file and is referenced.
   CP_6_SUBS.:E05TOU  is referenced.
   FM$CFU.:E05TOU  is referenced.
   FM_DATA_R.:E05TOU  cannot be made into a system file and is referenced.
   FM_CNTRL_R.:E05TOU  cannot be made into a system file and is referenced.
   FM_CACHE_C.:E05TOU  is referenced.
   FM_CACHE_R.:E05TOU  cannot be made into a system file and is referenced.
      No diagnostics issued in procedure FMC$FINISH.
PL6.E3A0      #004=FMC$FINISH File=FMC$CACHE.:E05TSI                             TUE 07/29/97 16:39 Page:136

 **** Variables and constants ****

  ****  Auto variables  ****

  ****  Scalars and arrays  ****
OctLoc.c.b A Datatyp(siz) R M Lvl/name                 OctLoc.c.b A Datatyp(siz) R M Lvl/name

     3-0-0/w PTR         r     1 @BUFNUM                    4-0-0/w PTR         r     1 @BYTES
     5-0-0/w PTR         r     1 @FC                        6-0-0/w PTR         r     1 @FLAG
    *0-0-0/w SBIN        r     1 BUFNUM                    *0-0-0/w SBIN        r     1 BYTES
    11-0-0/w PTR         r     1 CACHE$                    10-0-0/w PTR         r     1 CFU$
    12-0-0/w SBIN        r     1 DA                        23-0-0/h STRC        r     1 EAINFO
    21-0-0/w BIT         r     1 END_ACTION                *0-0-0/w SBIN        r     1 FC
    *0-0-0/w SBIN        r     1 FLAG                      20-0-0/w SBIN        r     1 GRANS
    22-0-0/w SBIN        r     1 HASH                       7-0-0/w PTR         r     1 JDCB$
    17-0-0/w SBIN        r     1 PP                        13-0-0/w SBIN        r     1 SETX
    14-0-0/w SBIN        r     1 SRDA                      16-0-0/w SBIN        r     1 TYPE
    15-0-0/w SBIN        r     1 VPNO

  ****  SYMREF variables  ****

  ****  Scalars and arrays  ****
OctLoc.c.b A Datatyp(siz) R M Lvl/name                 OctLoc.c.b A Datatyp(siz) R M Lvl/name

     0-0-0/w PTR         r     1 B$JIT$                     0-0-0/w PTR         r     1 FMC_CACHE$
     0-0-0/w PTR         r     1 FMC_CACHEPGCNT$            0-0-0/w SBIN        r     1 FMC_CACHESIZ
     0-0-0/w STRC(72)    r     1 FMC_LIMITS(0:8191)
     0-0-0/b BIT (72)    r     1 FMC_LOCK                   0-0-0/b BIT         r     1 FMC_MASK
     0-0-0/w PTR         r     1 FMC_TYPTBL$                0-0-0/w UBIN        r     1 FM_SRZERO
     0-0-0/w PTR         r     1 P_RESOURCE$

  ****  BASED and DCB variables  ****

  ****  Scalars and arrays  ****
OctLoc.c.b A Datatyp(siz) R M Lvl/name                 OctLoc.c.b A Datatyp(siz) R M Lvl/name

     0-0-0/d STRC(8856)  r     1 B$JIT                      0-0-0/d ASTR(3528)  r     1 F$DCB
PL6.E3A0      #004=FMC$FINISH File=FMC$CACHE.:E05TSI                             TUE 07/29/97 16:39 Page:137
     0-0-0/w STRC(288)   r     1 FM$CFU                     0-0-0/w STRC(216)   r     1 FMC$CACHE
     0-0-0/w STRC(216)   r     1 FMC$CACHETBL(0:0)
     0-0-0/w STRC(2268)  r     1 P_RESOURCE


   Procedure FMC$FINISH requires 455 words for executable code.
   Procedure FMC$FINISH requires 32 words of local(AUTO) storage.
PL6.E3A0      #004=FMC$FINISH File=FMC$CACHE.:E05TSI                             TUE 07/29/97 16:39 Page:138
          *** CROSS REFERENCE LISTING ***
**     DENOTES     IDENTIFIER DEFINITION
<<                 IDENTIFIER'S VALUE SET
>>                 IDENTIFIER'S VALUE USED
<>                 IDENTIFIER SET AND/OR USED
--                 IDENTIFIER REFERENCED
PL6.E3A0      #004=FMC$FINISH File=FMC$CACHE.:E05TSI                             TUE 07/29/97 16:39 Page:139
          MINI XREF LISTING

B$JIT.ACCESS.PACKS
      1359**DCL      1999<<ASSIGN   1999>>ASSIGN   2024<<ASSIGN   2024>>ASSIGN
B$JIT.CPFLAGS1.SLEAZE
      1185**DCL      1185--REDEF
B$JIT.DCB$
      1259**DCL      1864>>ASSIGN   1941>>ASSIGN
B$JIT.ERR.MID
      1092**DCL      1092--REDEF
B$JIT.JRESPEAK
      1253**DCL      1254--REDEF
B$JIT.ORIGINATOR_PORT.FROM_CR
      1362**DCL      1362--REDEF    1363--REDEF
B$JIT.PNR
      1266**DCL      1266--REDEF
B$JIT.TSLINE
      1360**DCL      1361--REDEF
B$JIT$
      1738**DCL      1086--IMP-PTR  1864>>ASSIGN   1941>>ASSIGN   1999>>ASSIGN   1999>>ASSIGN   2024>>ASSIGN
      2024>>ASSIGN
BUFNUM
        22**DCL        21--PROC     1866>>ASSIGN   1873>>ASSIGN   1885>>ASSIGN   1903>>ASSIGN   1939--ENTRY
      1942>>ASSIGN   1991>>IF       1996>>IF       2031>>ASSIGN   2032>>ASSIGN   2032>>ASSIGN   2065>>ASSIGN
      2066>>ASSIGN   2066>>ASSIGN
BYTES
        23**DCL        21--PROC     1939--ENTRY    1960<>CALL     2016<>CALL
CACHE$
      1850**DCL      1817--IMP-PTR  1902<>CALL     1905>>ASSIGN   1906>>ASSIGN   1907>>ASSIGN   1908>>ASSIGN
      1909>>ASSIGN   1948<<ASSIGN   1949>>ASSIGN   1950>>ASSIGN   1950>>ASSIGN   1951>>IF       1951>>IF
      1951>>IF       1953>>ASSIGN   1954>>ASSIGN   1955>>ASSIGN   1959>>ASSIGN   1990<<ASSIGN   1992>>ASSIGN
      1994>>IF       1997>>ASSIGN   1997>>ASSIGN   2002>>IF       2002>>IF       2004>>IF       2004>>IF
      2004>>IF       2008>>ASSIGN   2010>>ASSIGN   2011>>ASSIGN   2015>>ASSIGN   2025>>ASSIGN   2025>>ASSIGN
      2029>>ASSIGN   2029>>ASSIGN   2035>>IF       2036>>IF       2036>>IF       2039>>ASSIGN   2041>>ASSIGN
PL6.E3A0      #004=FMC$FINISH File=FMC$CACHE.:E05TSI                             TUE 07/29/97 16:39 Page:140
      2064>>ASSIGN   2064>>ASSIGN   2068>>IF
CFU$
      1849**DCL      1842--IMP-PTR  1880<<ASSIGN   1881>>IF       1881>>IF
DA
      1851**DCL      1885<<ASSIGN   1886>>IF       1887<>CALL     1889>>ASSIGN
EAINFO
      1860**DCL      2016<>CALL
EAINFO.HASH
      1861**DCL      2009<<ASSIGN
END_ACTION
      1858**DCL      1989<<ASSIGN   2007<<ASSIGN   2035>>IF
ERR
      1924**LABEL    1874--CALLALT  1887--CALLALT  1919--CALLALT
F$DCB.ACTPOS
      1766**DCL      1766--REDEF
F$DCB.ARS
      1741**DCL      1741--REDEF
F$DCB.ATTR
      1759**DCL      1760--REDEF
F$DCB.BFR
      1785**DCL      2032<<ASSIGN   2032>>ASSIGN   2066<<ASSIGN   2066>>ASSIGN
F$DCB.BFR.BUFUP
      1785**DCL      1991>>IF       1996>>IF
F$DCB.BFR.BUFX
      1786**DCL      1873>>ASSIGN   1903>>ASSIGN
F$DCB.BFR.DA
      1786**DCL      1885>>ASSIGN
F$DCB.BFR1
      1786**DCL      2031<<ASSIGN   2065<<ASSIGN
F$DCB.BFR1.CX
      1787**DCL      1866>>ASSIGN   1942>>ASSIGN
F$DCB.BORROW
      1774**DCL      1774--REDEF    1774--REDEF    1774--REDEF
F$DCB.CFU$
      1775**DCL      1878>>IF       1880>>ASSIGN
F$DCB.DCBNAME.L
PL6.E3A0      #004=FMC$FINISH File=FMC$CACHE.:E05TSI                             TUE 07/29/97 16:39 Page:141
      1788**DCL      1788--IMP-SIZ
F$DCB.EOMCHAR
      1745**DCL      1745--REDEF
F$DCB.FLDID
      1769**DCL      1769--REDEF
F$DCB.FORM$
      1763**DCL      1763--REDEF
F$DCB.FSECT
      1779**DCL      1779--REDEF
F$DCB.FSN
      1756**DCL      1756--REDEF    1756--REDEF    1757--REDEF
F$DCB.HEADER$
      1762**DCL      1762--REDEF
F$DCB.IXTNSIZE
      1760**DCL      1760--REDEF
F$DCB.LASTSTA$
      1750**DCL      1750--REDEF
F$DCB.LVL
      1775**DCL      1775--REDEF
F$DCB.MODCNT
      1780**DCL      1881>>IF
F$DCB.NAME.C
      1750**DCL      1750--REDEF
F$DCB.NOEOF
      1771**DCL      1771--REDEF
F$DCB.NRECS
      1761**DCL      1761--REDEF
F$DCB.NRECX
      1780**DCL      1780--REDEF
F$DCB.OHDR
      1772**DCL      1772--REDEF
F$DCB.ORG
      1755**DCL      1755--REDEF
F$DCB.PRECNO
      1778**DCL      1778--REDEF
F$DCB.RCSZ
PL6.E3A0      #004=FMC$FINISH File=FMC$CACHE.:E05TSI                             TUE 07/29/97 16:39 Page:142
      1783**DCL      1783--REDEF
F$DCB.RES
      1751**DCL      1751--REDEF
F$DCB.SETX
      1763**DCL      1763--REDEF    1892>>ASSIGN   1908>>ASSIGN
F$DCB.TAB$
      1762**DCL      1763--REDEF
F$DCB.TDA
      1777**DCL      1777--REDEF
F$DCB.WSN
      1752**DCL      1752--REDEF
FAF$FRTOSR
      1728**DCL-ENT  1887--CALL
FC
        24**DCL        21--PROC     1939--ENTRY    1960<>CALL     2016<>CALL
FINISH
      1983**PROC     1874--CALL     1919--CALL
FLAG
        25**DCL        21--PROC     1865<<ASSIGN   1939--ENTRY    2052<<ASSIGN
FM$CFU.ACCTX
      1843**DCL      1843--REDEF
FM$CFU.MODCNT
      1844**DCL      1881>>IF
FM$CFU.SHARE
      1842**DCL      1881>>IF
FMB$RIO
      1734**DCL-ENT  1960--CALL     2016--CALL
FMC$ADD
      1730**DCL-ENT  2050--CALL     2069--CALL
FMC$CACHE
      1817**DCL      2041<<ASSIGN
FMC$CACHE.FLAGS.BUFUP
      1833**DCL      1949<<ASSIGN   1954<<ASSIGN   1992<<ASSIGN   1994>>IF       2002>>IF       2010<<ASSIGN
FMC$CACHE.FLAGS.ERR
      1832**DCL      1951>>IF       2002>>IF       2036>>IF
FMC$CACHE.PAGE
PL6.E3A0      #004=FMC$FINISH File=FMC$CACHE.:E05TSI                             TUE 07/29/97 16:39 Page:143
      1823**DCL      1907<<ASSIGN   1953>>ASSIGN   2008>>ASSIGN   2039>>ASSIGN
FMC$CACHE.SETX
      1826**DCL      1908<<ASSIGN
FMC$CACHE.SRDA
      1820**DCL      1905<<ASSIGN   1959>>ASSIGN   2015>>ASSIGN
FMC$CACHE.TYPE
      1819**DCL      1909<<ASSIGN   1951>>IF       2004>>IF       2036>>IF
FMC$CACHE.UPCOUNT
      1825**DCL      1950<<ASSIGN   1950>>ASSIGN   1951>>IF       1955<<ASSIGN   1997<<ASSIGN   1997>>ASSIGN
      2004>>IF       2011<<ASSIGN
FMC$CACHE.USECNT
      1824**DCL      1906<<ASSIGN   2004>>IF       2025<<ASSIGN   2025>>ASSIGN   2029<<ASSIGN   2029>>ASSIGN
      2035>>IF       2064<<ASSIGN   2064>>ASSIGN   2068>>IF
FMC$CACHETBL
      1792**DCL      1948--ASSIGN   1990--ASSIGN
FMC$CLR1
      1731**DCL-ENT  1897--CALL
FMC$EA
      1735**DCL-ENT  2016--CALL
FMC$GETSLOT
      1729**DCL-ENT  1902--CALL
FMC$GETTYPE
      1727**DCL-ENT  1884--CALL
FMC_CACHE$
        35**DCL      1792--IMP-PTR  1948>>ASSIGN   1990>>ASSIGN
FMC_CACHEPGCNT$
        36**DCL        36--IMP-PTR    36--REDEF
FMC_CACHESIZ
        35**DCL      1868>>IF       1943>>IF
FMC_LIMITS.EXPIRE
       113**DCL      1890>>IF       2036>>IF
FMC_LIMITS.UPLIMIT
       113**DCL      1951>>IF       2004>>IF
FMC_LOCK
        37**DCL      1900<>CALL     1917<>CALL     1927<>CALL     1946<>CALL     1957<>CALL     1964<>CALL
      1986<>CALL     2013<>CALL     2019<>CALL     2054<>CALL     2062<>CALL     2071<>CALL
PL6.E3A0      #004=FMC$FINISH File=FMC$CACHE.:E05TSI                             TUE 07/29/97 16:39 Page:144
FMC_MASK
        37**DCL      1894>>ASSIGN
FMC_TYPTBL$
        35**DCL      1837--IMP-PTR
FM_SRZERO
       122**DCL      1886>>IF
GRANS
      1857**DCL      1887<>CALL
HASH
      1859**DCL      1866<<ASSIGN   1871>>IF       1894<<ASSIGN   1902<>CALL     1942<<ASSIGN   1948>>ASSIGN
      1990>>ASSIGN   2009>>ASSIGN   2050<>CALL     2069<>CALL
HFC$LOCK
       726**DCL-ENT  1900--CALL     1946--CALL     1986--CALL     2019--CALL     2062--CALL
HFC$UNLOCK
       726**DCL-ENT  1917--CALL     1927--CALL     1957--CALL     1964--CALL     2013--CALL     2054--CALL
      2071--CALL
IOERR
      1967**LABEL    1960--CALLALT
IOERR IN PROCEDURE FINISH
      2059**LABEL    2016--CALLALT
JDCB$
      1848**DCL      1741--IMP-PTR  1864<<ASSIGN   1866>>ASSIGN   1873>>ASSIGN   1878>>IF       1880>>ASSIGN
      1881>>IF       1885>>ASSIGN   1892>>ASSIGN   1903>>ASSIGN   1908>>ASSIGN   1941<<ASSIGN   1942>>ASSIGN
      1991>>IF       1996>>IF       2031>>ASSIGN   2032>>ASSIGN   2032>>ASSIGN   2065>>ASSIGN   2066>>ASSIGN
      2066>>ASSIGN
MMJ$FBTOIOPM
      1733**DCL-ENT  1904--CALL
MMJ$FIOP
      1732**DCL-ENT  2040--CALL
MMJ$UNMAPIOP
      1736**DCL-ENT  2033--CALL     2067--CALL
NOCACHE
      1912**LABEL    1902--CALLALT
PP
      1856**DCL      1904<>CALL     1907>>ASSIGN   1953<<ASSIGN   1960<>CALL     2008<<ASSIGN   2016<>CALL
      2039<<ASSIGN   2040<>CALL
PL6.E3A0      #004=FMC$FINISH File=FMC$CACHE.:E05TSI                             TUE 07/29/97 16:39 Page:145
P_NSCPU
      1706**DCL      1707--REDEF
P_RESOURCE.RES
      1579**DCL      1646--REDEF
P_RESOURCE.RES.IOCACHE.CURRENT
      1608**DCL      1911<<ASSIGN   1911>>ASSIGN   1912>>IF       1914>>ASSIGN   2043<<ASSIGN   2043>>ASSIGN
      2044>>IF       2046>>ASSIGN
P_RESOURCE.RES.IOCACHE.MIN
      1610**DCL      2044>>IF       2046<<ASSIGN
P_RESOURCE.RES.IOCACHE.PEAK
      1609**DCL      1912>>IF       1914<<ASSIGN
P_RESOURCE$
      1659**DCL      1547--IMP-PTR  1911>>ASSIGN   1911>>ASSIGN   1912>>IF       1912>>IF       1914>>ASSIGN
      1914>>ASSIGN   2043>>ASSIGN   2043>>ASSIGN   2044>>IF       2044>>IF       2046>>ASSIGN   2046>>ASSIGN
P_UPTIME
      1695**DCL      1696--REDEF
SETX
      1852**DCL      1892<<ASSIGN   1894>>ASSIGN
SRDA
      1853**DCL      1887<>CALL     1889<<ASSIGN   1894>>ASSIGN   1897<>CALL     1902<>CALL     1905>>ASSIGN
      1959<<ASSIGN   1960<>CALL     1967>>IF       2015<<ASSIGN   2016<>CALL     2059>>IF
TYPE
      1855**DCL      1884<>CALL     1890>>IF       1896>>IF       1902<>CALL     1909>>ASSIGN
VPNO
      1854**DCL      1873<<ASSIGN   1903<<ASSIGN   1904<>CALL     2033<>CALL     2067<>CALL
PL6.E3A0      #004=FMC$FINISH File=FMC$CACHE.:E05TSI                             TUE 07/29/97 16:39 Page:146
              *** CROSS REFERENCE LISTING ***
    **     DENOTES     IDENTIFIER DEFINITION
    <<                 IDENTIFIER'S VALUE SET
    >>                 IDENTIFIER'S VALUE USED
    <>                 IDENTIFIER SET AND/OR USED
    --                 IDENTIFIER REFERENCED
PL6.E3A0      #004=FMC$FINISH File=FMC$CACHE.:E05TSI                             TUE 07/29/97 16:39 Page:147
              MINI UREF LISTING

F$CFU$     125**DCL
FM$SET$     126**DCL
FMC$CACHEPGCNT      36**DCL
FMC$FINISH      21**PROC
FMC$TYPTBL    1837**DCL
FMC$UPLIMIT    1939**ENTRY
FMC_CACHEPGCNT      36**DCL
FMC_CACHEPGCNT$R      36**DCL
FMC_CACHESIZN      35**DCL
FMC_MASKTBL      37**DCL
FMC_STATS$      35**DCL
FM_CFUWAIT     125**DCL
FM_CFUWGRB     125**DCL
FM_EOP     123**DCL
FM_FRMAX     122**DCL
FM_FRZERO     122**DCL
FM_GCT     126**DCL
FM_GIP     126**DCL
FM_GPSDA     123**DCL
FM_HASH     124**DCL
FM_MADSDA     123**DCL
FM_PADSDA     123**DCL
FM_SRMAX     122**DCL
FM_SYSACCTX     126**DCL
FM_SYSSETX     126**DCL
FM_TRUNC     124**DCL
FM_WRCMP     113**DCL
FM_WSQ     124**DCL
F_CWLK     125**DCL
F_CWUSER     125**DCL
F_DCBLOCK     124**DCL
NI_IOLEAPERS     113**DCL
PL6.E3A0      #004=FMC$FINISH File=FMC$CACHE.:E05TSI                             TUE 07/29/97 16:39 Page:148
P$IODATA    1660**DCL
P$TABLE    1669**DCL
PH_CPU_MOUSED    1724**DCL
PH_JIT_ENTRY    1720**DCL
PH_MOUSE_ENTRY    1716**DCL
PH_MOUSE_LOCK    1723**DCL
PH_MOUSE_USERS    1713**DCL
PH_MOUSE_USER_NUMBER    1725**DCL
PH_MUS_PAGES    1715**DCL
P_AUIS    1701**DCL
P_AVAIL_MEM    1708**DCL
P_AVGAVAIL_MEM    1709**DCL
P_AVGETMF    1698**DCL
P_AVGIOL    1700**DCL
P_AVGRT90    1697**DCL
P_CALCNT    1685**DCL
P_CALCOMP    1686**DCL
P_DCTXMAX    1702**DCL
P_ETMF    1679**DCL
P_GATE    1705**DCL
P_IOLOAD    1699**DCL
P_IOS    1694**DCL
P_NINTS    1680**DCL
P_NOW    1704**DCL
P_NSCPU_SBIN    1707**DCL
P_RT90    1681**DCL
P_RUE#    1677**DCL
P_SCHD#    1678**DCL
P_STARTUP    1682**DCL
P_STOPTIME    1703**DCL
P_S_MIDLTIME    1690**DCL
P_S_MIDLWIO    1691**DCL
P_S_MIDLWRES    1692**DCL
P_S_MIDLWRESIO    1693**DCL
P_S_MXEQTIME    1689**DCL
P_S_USRVTIME    1688**DCL
PL6.E3A0      #004=FMC$FINISH File=FMC$CACHE.:E05TSI                             TUE 07/29/97 16:39 Page:149
P_S_UXEQTIME    1687**DCL
P_UPTIME_SBIN    1696**DCL
P_USRVTIME    1684**DCL
P_UXEQTIME    1683**DCL
WORD_    1714**DCL

PL6.E3A0      #005=FMC$FLUSHSET File=FMC$CACHE.:E05TSI                           TUE 07/29/97 16:40 Page:150
      657        1        /*T***********************************************************/
      658        2        /*T*                                                         */
      659        3        /*T* Copyright (c) Bull HN Information Systems Inc., 1997    */
      660        4        /*T*                                                         */
      661        5        /*T***********************************************************/
      662        6        /*D*     NAME:     FMC$FLUSHSET
      663        7                 PURPOSE:  To flush any cache pages associated with the
      664        8                           specified set that are unwritten due to the
      665        9                           set having been down.
      666       10                 INPUT:    SETX - setx of the set we want to write pages for
      667       11                 DESCRIPTION:
      668       12                      Make a long loop through the cache table, looking
      669       13                 at each entry to see if the setx matches.  If it does,
      670       14                 then if USECNT is zero and BUFUP is set, write the
      671       15                 associated page out and clear BUFUP.
      672       16        */
      673       17                 %EJECT;
PL6.E3A0      #005=FMC$FLUSHSET File=FMC$CACHE.:E05TSI                           TUE 07/29/97 16:40 Page:151
      674       18        FMC$FLUSHSET: PROC(SETX) ALTRET;
      675       19
      676       20    1     DCL SETX SBIN;
      677       21    1     DCL I UBIN;
      678       22    1     DCL FC UBIN;
      679       23    1     DCL PP UBIN;
      680       24    1     DCL SRDA UBIN;
      681       25    1     DCL B$JIT$ PTR SYMREF READONLY;
      682       26    1     DCL FMB$RIO ENTRY(9) ALTRET;
      683       27
      684       28        %INCLUDE B$JIT_C;
      685      342        %B$JIT0;
      686      431        %U$JIT1X;
      687      434        %M$JIT2X;
      688      437        %F$JIT3;
      689      442        %S$JIT4X;
      690      445        %J$JIT5X;
      691      448        %A$JIT6;
      692      458        %INCLUDE F$DCB;
      693      507        %INCLUDE FM_CACHE_R;
      694      519        %INCLUDE FM_CACHE_C;
      695      585        %INCLUDE HF_LOCK_C;
      696      599        %INCLUDE P_PMDAT_R;
      697      907        %INCLUDE N_FC_C;
      698      944        %FMC$CACHE;
      699      967        /* */
      700      968        /* */
      701      969    1          IF FMC_CACHESIZ = 0 THEN
      702      970    1             RETURN;
      703      971    1          B$JIT$->B$JIT.DCB$->F$DCB.SETX = SETX;
      704      972               %LOCK(G=FMC_LOCK);
      705      975    2          DO I = 1 TO FMC_CACHESIZ;
      706      976    2             IF FMC$CACHETBL.SETX(I) = SETX AND FMC$CACHETBL.USECNT(I) = 0
      707      977    3                  AND FMC$CACHETBL.FLAGS.BUFUP(I) THEN DO;
      708      978    3                PP = FMC$CACHETBL.PAGE(I);
      709      979    3                SRDA = FMC$CACHETBL.SRDA(I);
      710      980                     %UNLOCK(G=FMC_LOCK);
PL6.E3A0      #005=FMC$FLUSHSET File=FMC$CACHE.:E05TSI                           TUE 07/29/97 16:40 Page:152
      711      983    3                CALL FMB$RIO(0,PP,4096,SRDA,%N_WRBIN,-1,ENTADDR(NIL),0) ALTRET(IOERR);
      712      984                     %LOCK(G=FMC_LOCK);
      713      987    3                FMC$CACHETBL.FLAGS.BUFUP(I) = '0'B;
      714      988    3                FMC$CACHETBL.UPCOUNT(I) = 0;
      715      989    3                END;
      716      990    2             END;
      717      991               %UNLOCK(G=FMC_LOCK);
      718      994
      719      995    1          RETURN;
      720      996
      721      997    1   IOERR: ALTRETURN;
      722      998
      723      999    1          END FMC$FLUSHSET;
      724     1000               %EOD;

PL6.E3A0      #005=FMC$FLUSHSET File=FMC$CACHE.:E05TSI                           TUE 07/29/97 16:40 Page:153
--  Include file information  --

   N_FC_C.:E05TOU  is referenced.
   P_PMDAT_C.:E05TOU  is referenced.
   P_PMDAT_R.:E05TOU  cannot be made into a system file and is referenced.
   HF_LOCK_C.:E05TOU  cannot be made into a system file and is referenced.
   FM_CACHE_C.:E05TOU  is referenced.
   FM_CACHE_R.:E05TOU  cannot be made into a system file and is referenced.
   F$DCB.:E05TOU  cannot be made into a system file and is referenced.
   B$JIT_C.:E05TOU  is referenced.
      No diagnostics issued in procedure FMC$FLUSHSET.

   Procedure FMC$FLUSHSET requires 87 words for executable code.
   Procedure FMC$FLUSHSET requires 16 words of local(AUTO) storage.

PL6.E3A0      #005=FMC$FLUSHSET File=FMC$CACHE.:E05TSI                           TUE 07/29/97 16:40 Page:154

 Object Unit name= FMC$FLUSHSET                               File name= FMC$CACHE.:E05TOU
 UTS= JUL 29 '97 16:40:13.72 TUE                              Compiler= PL-6/E31         Sev=      00
 SharedLib= :SHARED_SYSTEM                                    Alt SharedLib=


    ****  Control sections  ****

 Sect   Type Bound  Init  Size OctSiz  Section name(segment info)
    0   Proc  even  none    87    127  FMC$FLUSHSET
    1  RoData even  none     8     10  FMC$FLUSHSET

    ****  Entry defs  ****

                              Check   Calling
                             calling  sequence
  Sect OctLoc Primary Altret sequence   type   Parms  Name
     0      0   yes    yes     yes      Std        1  FMC$FLUSHSET

  ****  Entry refs  ****

         Check        Calling
        calling       sequence
Altret sequence SRef   type   Args  Name
         yes           Std       1 HFC$LOCK
         yes           Std       1 HFC$UNLOCK
 yes     yes           Std       9 FMB$RIO
                       nStd      0 X66_AUTO_1
                       nStd      0 X66_ARET
                       Std       0 B_CONSPOOL_D
                       nStd      0 X66_AALT
PL6.E3A0      #005=FMC$FLUSHSET File=FMC$CACHE.:E05TSI                           TUE 07/29/97 16:40 Page:155

  ****  Data refs  ****

  Flags:  r = read only, s = secondary
Flgs Name                             Flgs Name                             Flgs Name
r    B$JIT$                                FMC_CACHE$                            FMC_CACHESIZ
     FMC_CACHEPGCNT$                       FMC_LOCK                              P_RESOURCE$
     P_UPTIME                              P_NSCPU                               B_VECTNIL

  ****  Segment refs  ****

  Flags:  r = read only, s = secondary
Flgs Name                             Flgs Name                             Flgs Name
     ISSID
PL6.E3A0      #005=FMC$FLUSHSET File=FMC$CACHE.:E05TSI                           TUE 07/29/97 16:40 Page:156


      657        1        /*T***********************************************************/
      658        2        /*T*                                                         */
      659        3        /*T* Copyright (c) Bull HN Information Systems Inc., 1997    */
      660        4        /*T*                                                         */
      661        5        /*T***********************************************************/
      662        6        /*D*     NAME:     FMC$FLUSHSET
      663        7                 PURPOSE:  To flush any cache pages associated with the
      664        8                           specified set that are unwritten due to the
      665        9                           set having been down.
      666       10                 INPUT:    SETX - setx of the set we want to write pages for
      667       11                 DESCRIPTION:
      668       12                      Make a long loop through the cache table, looking
      669       13                 at each entry to see if the setx matches.  If it does,
      670       14                 then if USECNT is zero and BUFUP is set, write the
      671       15                 associated page out and clear BUFUP.
      672       16        */
      673       17                 %EJECT;
PL6.E3A0      #005=FMC$FLUSHSET File=FMC$CACHE.:E05TSI                           TUE 07/29/97 16:40 Page:157
      674       18        FMC$FLUSHSET: PROC(SETX) ALTRET;

     18  0 000000   000000 700200 xent  FMC$FLUSHSET TSX0  ! X66_AUTO_1
         0 000001   000020 000001                    ZERO    16,1

      675       19
      676       20    1     DCL SETX SBIN;
      677       21    1     DCL I UBIN;
      678       22    1     DCL FC UBIN;
      679       23    1     DCL PP UBIN;
      680       24    1     DCL SRDA UBIN;
      681       25    1     DCL B$JIT$ PTR SYMREF READONLY;
      682       26    1     DCL FMB$RIO ENTRY(9) ALTRET;
      683       27
      684       28        %INCLUDE B$JIT_C;
      685      342        %B$JIT0;
      686      431        %U$JIT1X;
      687      434        %M$JIT2X;
      688      437        %F$JIT3;
      689      442        %S$JIT4X;
      690      445        %J$JIT5X;
      691      448        %A$JIT6;
      692      458        %INCLUDE F$DCB;
      693      507        %INCLUDE FM_CACHE_R;
      694      519        %INCLUDE FM_CACHE_C;
      695      585        %INCLUDE HF_LOCK_C;
      696      599        %INCLUDE P_PMDAT_R;
      697      907        %INCLUDE N_FC_C;
      698      944        %FMC$CACHE;
      699      967        /* */
      700      968        /* */
      701      969    1          IF FMC_CACHESIZ = 0 THEN

    969  0 000002   000000 235000 xsym               LDA     FMC_CACHESIZ
         0 000003   000005 601000 0                  TNZ     s:971

      702      970    1             RETURN;
PL6.E3A0      #005=FMC$FLUSHSET File=FMC$CACHE.:E05TSI                           TUE 07/29/97 16:40 Page:158

    970  0 000004   000000 702200 xent               TSX2  ! X66_ARET

      703      971    1          B$JIT$->B$JIT.DCB$->F$DCB.SETX = SETX;

    971  0 000005   000000 470400 xsym               LDP0    B$JIT$
         0 000006   000232 471500                    LDP1    154,,PR0
         0 000007   200003 473500                    LDP3    @SETX,,AUTO
         0 000010   300000 720100                    LXL0    0,,PR3
         0 000011   100051 440100                    SXL0    41,,PR1

      704      972               %LOCK(G=FMC_LOCK);

    973  0 000012   000000 630400 1                  EPPR0   0
         0 000013   000017 631400 xsym               EPPR1   B_VECTNIL+15
         0 000014   000000 701000 xent               TSX1    HFC$LOCK
         0 000015   000000 011000                    NOP     0

      705      975    2          DO I = 1 TO FMC_CACHESIZ;

    975  0 000016   000001 235007                    LDA     1,DL
         0 000017   200004 755100                    STA     I,,AUTO
         0 000020   000115 710000 0                  TRA     s:990+3

      706      976    2             IF FMC$CACHETBL.SETX(I) = SETX AND FMC$CACHETBL.USECNT(I) = 0

    976  0 000021   200003 470500                    LDP0    @SETX,,AUTO
         0 000022   200004 236100                    LDQ     I,,AUTO
         0 000023   000006 402007                    MPY     6,DL
         0 000024   000000 471400 xsym               LDP1    FMC_CACHE$
         0 000025   100004 236106                    LDQ     4,QL,PR1
         0 000026   000022 772000                    QRL     18
         0 000027   000000 116100                    CMPQ    0,,PR0
         0 000030   000112 601000 0                  TNZ     s:990
         0 000031   200004 236100                    LDQ     I,,AUTO
         0 000032   000006 402007                    MPY     6,DL
         0 000033   100002 720106                    LXL0    2,QL,PR1
PL6.E3A0      #005=FMC$FLUSHSET File=FMC$CACHE.:E05TSI                           TUE 07/29/97 16:40 Page:159
         0 000034   000112 601000 0                  TNZ     s:990
         0 000035   100004 236106                    LDQ     4,QL,PR1
         0 000036   000001 316007                    CANQ    1,DL
         0 000037   000112 600000 0                  TZE     s:990

      707      977    3                  AND FMC$CACHETBL.FLAGS.BUFUP(I) THEN DO;

      708      978    3                PP = FMC$CACHETBL.PAGE(I);

    978  0 000040   200004 236100                    LDQ     I,,AUTO
         0 000041   000006 402007                    MPY     6,DL
         0 000042   100002 236106                    LDQ     2,QL,PR1
         0 000043   000022 772000                    QRL     18
         0 000044   200006 756100                    STQ     PP,,AUTO

      709      979    3                SRDA = FMC$CACHETBL.SRDA(I);

    979  0 000045   200004 236100                    LDQ     I,,AUTO
         0 000046   000006 402007                    MPY     6,DL
         0 000047   100000 236106                    LDQ     0,QL,PR1
         0 000050   000032 376000 xsym               ANQ     B_VECTNIL+26
         0 000051   200007 756100                    STQ     SRDA,,AUTO

      710      980                     %UNLOCK(G=FMC_LOCK);

    981  0 000052   000000 630400 1                  EPPR0   0
         0 000053   000017 631400 xsym               EPPR1   B_VECTNIL+15
         0 000054   000000 701000 xent               TSX1    HFC$UNLOCK
         0 000055   000000 011000                    NOP     0

      711      983    3                CALL FMB$RIO(0,PP,4096,SRDA,%N_WRBIN,-1,ENTADDR(NIL),0) ALTRET(IOERR);

    983  0 000056   000002 237000 1                  LDAQ    2
         0 000057   200016 757100                    STAQ    SRDA+7,,AUTO
         0 000060   000004 237000 1                  LDAQ    4
         0 000061   200014 757100                    STAQ    SRDA+5,,AUTO
         0 000062   200007 630500                    EPPR0   SRDA,,AUTO
PL6.E3A0      #005=FMC$FLUSHSET File=FMC$CACHE.:E05TSI                           TUE 07/29/97 16:40 Page:160
         0 000063   200013 450500                    STP0    SRDA+4,,AUTO
         0 000064   000006 236000 1                  LDQ     6
         0 000065   200012 756100                    STQ     SRDA+3,,AUTO
         0 000066   200006 631500                    EPPR1   PP,,AUTO
         0 000067   200011 451500                    STP1    SRDA+2,,AUTO
         0 000070   000002 236000 1                  LDQ     2
         0 000071   200010 756100                    STQ     SRDA+1,,AUTO
         0 000072   200010 630500                    EPPR0   SRDA+1,,AUTO
         0 000073   000026 631400 xsym               EPPR1   B_VECTNIL+22
         0 000074   000000 701000 xent               TSX1    FMB$RIO
         0 000075   000126 702000 0                  TSX2    IOERR

      712      984                     %LOCK(G=FMC_LOCK);

    985  0 000076   000000 630400 1                  EPPR0   0
         0 000077   000017 631400 xsym               EPPR1   B_VECTNIL+15
         0 000100   000000 701000 xent               TSX1    HFC$LOCK
         0 000101   000000 011000                    NOP     0

      713      987    3                FMC$CACHETBL.FLAGS.BUFUP(I) = '0'B;

    987  0 000102   200004 236100                    LDQ     I,,AUTO
         0 000103   000006 402007                    MPY     6,DL
         0 000104   000000 470400 xsym               LDP0    FMC_CACHE$
         0 000105   000000 620006                    EAX0    0,QL
         0 000106   000007 236000 1                  LDQ     7
         0 000107   000004 356110                    ANSQ    4,X0,PR0

      714      988    3                FMC$CACHETBL.UPCOUNT(I) = 0;

    988  0 000110   000000 470400 xsym               LDP0    FMC_CACHE$
         0 000111   000003 450110                    STZ     3,X0,PR0

      715      989    3                END;

      716      990    2             END;

PL6.E3A0      #005=FMC$FLUSHSET File=FMC$CACHE.:E05TSI                           TUE 07/29/97 16:40 Page:161
    990  0 000112   200004 235100                    LDA     I,,AUTO
         0 000113   000001 035007                    ADLA    1,DL
         0 000114   200004 755100                    STA     I,,AUTO
         0 000115   200004 236100                    LDQ     I,,AUTO
         0 000116   000121 604000 0                  TMI     s:992
         0 000117   000000 116000 xsym               CMPQ    FMC_CACHESIZ
         0 000120   000021 604400 0                  TMOZ    s:976

      717      991               %UNLOCK(G=FMC_LOCK);

    992  0 000121   000000 630400 1                  EPPR0   0
         0 000122   000017 631400 xsym               EPPR1   B_VECTNIL+15
         0 000123   000000 701000 xent               TSX1    HFC$UNLOCK
         0 000124   000000 011000                    NOP     0

      718      994
      719      995    1          RETURN;

    995  0 000125   000000 702200 xent               TSX2  ! X66_ARET

      720      996
      721      997    1   IOERR: ALTRETURN;

    997  0 000126   000000 702200 xent  IOERR        TSX2  ! X66_AALT

(unnamed)
 Sect OctLoc
   1     000   000000 006000   000000 010000   000002 006000   000002 006000    ................
   1     004   000005 006000   000027 006000   000001 006000   777777 777776    ................
      722      998
      723      999    1          END FMC$FLUSHSET;
      724     1000               %EOD;

PL6.E3A0      #005=FMC$FLUSHSET File=FMC$CACHE.:E05TSI                           TUE 07/29/97 16:40 Page:162
--  Include file information  --

   N_FC_C.:E05TOU  is referenced.
   P_PMDAT_C.:E05TOU  is referenced.
   P_PMDAT_R.:E05TOU  cannot be made into a system file and is referenced.
   HF_LOCK_C.:E05TOU  cannot be made into a system file and is referenced.
   FM_CACHE_C.:E05TOU  is referenced.
   FM_CACHE_R.:E05TOU  cannot be made into a system file and is referenced.
   F$DCB.:E05TOU  cannot be made into a system file and is referenced.
   B$JIT_C.:E05TOU  is referenced.
      No diagnostics issued in procedure FMC$FLUSHSET.
PL6.E3A0      #005=FMC$FLUSHSET File=FMC$CACHE.:E05TSI                           TUE 07/29/97 16:40 Page:163

 **** Variables and constants ****

  ****  Auto variables  ****

  ****  Scalars and arrays  ****
OctLoc.c.b A Datatyp(siz) R M Lvl/name                 OctLoc.c.b A Datatyp(siz) R M Lvl/name

     3-0-0/w PTR         r     1 @SETX                      4-0-0/w UBIN        r     1 I
     6-0-0/w UBIN        r     1 PP                        *0-0-0/w SBIN        r     1 SETX
     7-0-0/w UBIN        r     1 SRDA

  ****  SYMREF variables  ****

  ****  Scalars and arrays  ****
OctLoc.c.b A Datatyp(siz) R M Lvl/name                 OctLoc.c.b A Datatyp(siz) R M Lvl/name

     0-0-0/w PTR         r     1 B$JIT$                     0-0-0/w PTR         r     1 FMC_CACHE$
     0-0-0/w PTR         r     1 FMC_CACHEPGCNT$            0-0-0/w SBIN        r     1 FMC_CACHESIZ
     0-0-0/b BIT (72)    r     1 FMC_LOCK                   0-0-0/w PTR         r     1 P_RESOURCE$

  ****  BASED and DCB variables  ****

  ****  Scalars and arrays  ****
OctLoc.c.b A Datatyp(siz) R M Lvl/name                 OctLoc.c.b A Datatyp(siz) R M Lvl/name

     0-0-0/d STRC(8856)  r     1 B$JIT                      0-0-0/d ASTR(3528)  r     1 F$DCB
     0-0-0/w STRC(216)   r     1 FMC$CACHETBL(0:0)


   Procedure FMC$FLUSHSET requires 87 words for executable code.
   Procedure FMC$FLUSHSET requires 16 words of local(AUTO) storage.
PL6.E3A0      #005=FMC$FLUSHSET File=FMC$CACHE.:E05TSI                           TUE 07/29/97 16:40 Page:164
          *** CROSS REFERENCE LISTING ***
**     DENOTES     IDENTIFIER DEFINITION
<<                 IDENTIFIER'S VALUE SET
>>                 IDENTIFIER'S VALUE USED
<>                 IDENTIFIER SET AND/OR USED
--                 IDENTIFIER REFERENCED
PL6.E3A0      #005=FMC$FLUSHSET File=FMC$CACHE.:E05TSI                           TUE 07/29/97 16:40 Page:165
          MINI XREF LISTING

B$JIT.DCB$
       438**DCL       971>>ASSIGN
B$JIT.ERR.MID
       349**DCL       349--REDEF
B$JIT.ORIGINATOR_PORT.FROM_CR
       453**DCL       453--REDEF     454--REDEF
B$JIT.TSLINE
       451**DCL       452--REDEF
B$JIT$
        25**DCL       343--IMP-PTR   971>>ASSIGN
F$DCB.ACTPOS
       484**DCL       484--REDEF
F$DCB.ARS
       459**DCL       459--REDEF
F$DCB.ATTR
       477**DCL       478--REDEF
F$DCB.BORROW
       492**DCL       492--REDEF     492--REDEF     492--REDEF
F$DCB.DCBNAME.L
       506**DCL       506--IMP-SIZ
F$DCB.EOMCHAR
       463**DCL       463--REDEF
F$DCB.FLDID
       487**DCL       487--REDEF
F$DCB.FORM$
       481**DCL       481--REDEF
F$DCB.FSECT
       497**DCL       497--REDEF
F$DCB.FSN
       474**DCL       474--REDEF     474--REDEF     475--REDEF
F$DCB.HEADER$
       480**DCL       480--REDEF
PL6.E3A0      #005=FMC$FLUSHSET File=FMC$CACHE.:E05TSI                           TUE 07/29/97 16:40 Page:166
F$DCB.IXTNSIZE
       478**DCL       478--REDEF
F$DCB.LASTSTA$
       468**DCL       468--REDEF
F$DCB.LVL
       493**DCL       493--REDEF
F$DCB.NAME.C
       468**DCL       468--REDEF
F$DCB.NOEOF
       489**DCL       489--REDEF
F$DCB.NRECS
       479**DCL       479--REDEF
F$DCB.NRECX
       498**DCL       498--REDEF
F$DCB.OHDR
       490**DCL       490--REDEF
F$DCB.ORG
       473**DCL       473--REDEF
F$DCB.PRECNO
       496**DCL       496--REDEF
F$DCB.RCSZ
       501**DCL       501--REDEF
F$DCB.RES
       469**DCL       469--REDEF
F$DCB.SETX
       481**DCL       481--REDEF     971<<ASSIGN
F$DCB.TAB$
       480**DCL       481--REDEF
F$DCB.TDA
       495**DCL       495--REDEF
F$DCB.WSN
       470**DCL       470--REDEF
FMB$RIO
        26**DCL-ENT   983--CALL
FMC$CACHETBL.FLAGS.BUFUP
       964**DCL       976>>IF        987<<ASSIGN
PL6.E3A0      #005=FMC$FLUSHSET File=FMC$CACHE.:E05TSI                           TUE 07/29/97 16:40 Page:167
FMC$CACHETBL.PAGE
       954**DCL       978>>ASSIGN
FMC$CACHETBL.SETX
       957**DCL       976>>IF
FMC$CACHETBL.SRDA
       951**DCL       979>>ASSIGN
FMC$CACHETBL.UPCOUNT
       956**DCL       988<<ASSIGN
FMC$CACHETBL.USECNT
       955**DCL       976>>IF
FMC_CACHE$
       515**DCL       946--IMP-PTR   976>>IF        976>>IF        976>>IF        978>>ASSIGN    979>>ASSIGN
       987>>ASSIGN    988>>ASSIGN
FMC_CACHEPGCNT$
       516**DCL       516--IMP-PTR   516--REDEF
FMC_CACHESIZ
       515**DCL       969>>IF        975>>DOINDEX
FMC_LOCK
       517**DCL       973<>CALL      981<>CALL      985<>CALL      992<>CALL
HFC$LOCK
       598**DCL-ENT   973--CALL      985--CALL
HFC$UNLOCK
       598**DCL-ENT   981--CALL      992--CALL
I
        21**DCL       975<<DOINDEX   976>>IF        976>>IF        976>>IF        978>>ASSIGN    979>>ASSIGN
       987>>ASSIGN    988>>ASSIGN
IOERR
       997**LABEL     983--CALLALT
PP
        23**DCL       978<<ASSIGN    983<>CALL
P_NSCPU
       887**DCL       888--REDEF
P_RESOURCE.RES
       760**DCL       827--REDEF
P_RESOURCE$
       840**DCL       728--IMP-PTR
PL6.E3A0      #005=FMC$FLUSHSET File=FMC$CACHE.:E05TSI                           TUE 07/29/97 16:40 Page:168
P_UPTIME
       876**DCL       877--REDEF
SETX
        20**DCL        18--PROC      971>>ASSIGN    976>>IF
SRDA
        24**DCL       979<<ASSIGN    983<>CALL
PL6.E3A0      #005=FMC$FLUSHSET File=FMC$CACHE.:E05TSI                           TUE 07/29/97 16:40 Page:169
              *** CROSS REFERENCE LISTING ***
    **     DENOTES     IDENTIFIER DEFINITION
    <<                 IDENTIFIER'S VALUE SET
    >>                 IDENTIFIER'S VALUE USED
    <>                 IDENTIFIER SET AND/OR USED
    --                 IDENTIFIER REFERENCED
PL6.E3A0      #005=FMC$FLUSHSET File=FMC$CACHE.:E05TSI                           TUE 07/29/97 16:40 Page:170
              MINI UREF LISTING

FC      22**DCL
FMC$CACHEPGCNT     516**DCL
FMC$FLUSHSET      18**PROC
FMC_CACHEPGCNT     516**DCL
FMC_CACHEPGCNT$R     516**DCL
FMC_CACHESIZN     515**DCL
FMC_MASK     517**DCL
FMC_MASKTBL     517**DCL
FMC_STATS$     515**DCL
FMC_TYPTBL$     515**DCL
P$IODATA     841**DCL
P$TABLE     850**DCL
PH_CPU_MOUSED     905**DCL
PH_JIT_ENTRY     901**DCL
PH_MOUSE_ENTRY     897**DCL
PH_MOUSE_LOCK     904**DCL
PH_MOUSE_USERS     894**DCL
PH_MOUSE_USER_NUMBER     906**DCL
PH_MUS_PAGES     896**DCL
P_AUIS     882**DCL
P_AVAIL_MEM     889**DCL
P_AVGAVAIL_MEM     890**DCL
P_AVGETMF     879**DCL
P_AVGIOL     881**DCL
P_AVGRT90     878**DCL
P_CALCNT     866**DCL
P_CALCOMP     867**DCL
P_DCTXMAX     883**DCL
P_ETMF     860**DCL
P_GATE     886**DCL
P_IOLOAD     880**DCL
P_IOS     875**DCL
PL6.E3A0      #005=FMC$FLUSHSET File=FMC$CACHE.:E05TSI                           TUE 07/29/97 16:40 Page:171
P_NINTS     861**DCL
P_NOW     885**DCL
P_NSCPU_SBIN     888**DCL
P_RT90     862**DCL
P_RUE#     858**DCL
P_SCHD#     859**DCL
P_STARTUP     863**DCL
P_STOPTIME     884**DCL
P_S_MIDLTIME     871**DCL
P_S_MIDLWIO     872**DCL
P_S_MIDLWRES     873**DCL
P_S_MIDLWRESIO     874**DCL
P_S_MXEQTIME     870**DCL
P_S_USRVTIME     869**DCL
P_S_UXEQTIME     868**DCL
P_UPTIME_SBIN     877**DCL
P_USRVTIME     865**DCL
P_UXEQTIME     864**DCL
WORD_     895**DCL

