PL6.E3A0      #006=FMC$GET File=FMC$CACHE.:E05TSI                                TUE 07/29/97 16:40 Page:172
      725        1        /*T***********************************************************/
      726        2        /*T*                                                         */
      727        3        /*T* Copyright (c) Bull HN Information Systems Inc., 1997    */
      728        4        /*T*                                                         */
      729        5        /*T***********************************************************/
      730        6        /*D*     NAME:     FMC$GET
      731        7                 PURPOSE:  To get a cached page for the user.
      732        8                 INPUT:    BUFNUM - Buffer number
      733        9                           DA - Disk address we want
      734       10                 OUTPUT:   BUF$ - Pointer to the buffer
      735       11                           FLAG - 1 if we could get the cached page
      736       12                                  0 if we couldn't
      737       13
      738       14                 DESCRIPTION:
      739       15
      740       16                      Set up the SRDA, granule type, and hash to the table
      741       17                 row that we want.
      742       18                      Check to see if the page is already in the cache, if
      743       19                 it was, then just return.
      744       20
      745       21                      Otherwise, try to get a slot in the cache table.  If
      746       22                 we could, then set up the cache table entry.  Then we get
      747       23                 a cache page, map the user onto it, and read the granule.
      748       24                 It is possible that another user will want a page while
      749       25                 we are actually in the process of reading the granule.  If
      750       26                 that happens, we set FMC$CACHE.FLAGS.WAIT.  Then we call
      751       27                 the scheduler routines to wake up any waiting users.
      752       28        */
      753       29                 %EJECT;
PL6.E3A0      #006=FMC$GET File=FMC$CACHE.:E05TSI                                TUE 07/29/97 16:40 Page:173
      754       30        FMC$GET: PROC(BUF$, BUFNUM, DA, FLAG) ALTRET;
      755       31    1          DCL BUF$ PTR;
      756       32    1          DCL BUFNUM SBIN;
      757       33    1          DCL DA SBIN;
      758       34    1          DCL FLAG SBIN;
      759       35        /* */
      760       36               %INCLUDE FM_CACHE_R;
      761       48               %INCLUDE FM_CACHE_C;
      762      114               %INCLUDE FM_CNTRL_R;
      763      123               %INCLUDE FM_DATA_R;
      764      137               %INCLUDE FM_BUF_R;
      765      146               %INCLUDE N_FC_C;
      766      183               %INCLUDE N$REQ;
      767      257               %INCLUDE FM$MACROS;
      768      632               %INCLUDE F_ERRORS_C;
      769      872               %INCLUDE HF_LOCK_C;
      770      886               %INCLUDE SS_SCHED_C;
      771     1119               %INCLUDE B$JIT;
      772     1722               %MACRO F$DCB(BASED=BASED);
      773     1723               %INCLUDE F$DCB;
      774     1772               %MEND;
      775     1773               %INCLUDE P_PMDAT_R;
      776     2081               %INCLUDE B_STRINGS_C;
      777     2210               %INCLUDE B_MLSMAC_C;
      778     3152        /* */
      779     3153    1          DCL SSR$REG ENTRY(3) ALTRET;
      780     3154    1          DCL SSR$RUE ENTRY(4);
      781     3155    1          DCL MMJ$GIOP ENTRY(1);
      782     3156    1          DCL MMJ$FBTOIOP ENTRY(2);
      783     3157    1          DCL MMJ$MAPIOP ENTRY(2);
      784     3158    1          DCL MMJ$UNMAPIOP ENTRY(1);
      785     3159    1          DCL NIQ$REL ENTRY(1) ALTRET;
      786     3160    1          DCL FMD$FLSHBUF ENTRY(1);
      787     3161    1          DCL FMD$FLSHBUFNR ENTRY(1);
      788     3162    1          DCL FMD$GETBUF ENTRY(3);
      789     3163    1          DCL FMB$QUEUE ENTRY(9) ALTRET;
      790     3164    1          DCL FMB$ERRTYP ENTRY(1);
PL6.E3A0      #006=FMC$GET File=FMC$CACHE.:E05TSI                                TUE 07/29/97 16:40 Page:174
      791     3165    1          DCL FMB$LOGERR ENTRY(11);
      792     3166    1          DCL FAF$FRTOSR ENTRY(3) ALTRET;
      793     3167    1          DCL FMC$GETTYPE ENTRY(1);
      794     3168    1          DCL FMC$GETSLOT ENTRY(4) ALTRET;
      795     3169    1          DCL FMC$ADD ENTRY(1);
      796     3170    1          DCL FMC$REMOVE ENTRY(1);
      797     3171    1          DCL FMC$RELCACHE ENTRY(1);
      798     3172        /* */
      799     3173    1          DCL 1 DESCINIT CONSTANT,
      800     3174    1               2 BOUND UBIN(20) UNAL INIT(4095),  /* FRAME A PAGE */
      801     3175    1               2 FLGS BIT(3) INIT('7'O),          /* ALLOW READ/WRITE */
      802     3176    1               2 WSQ UBIN(9) UNAL INIT(0),        /* REAL PAGE NO */
      803     3177    1               2 TYP UBIN(4) UNAL INIT(2);        /* WSQ TYPE DESC */
      804     3178    1          DCL ZAPBUF(0:4) CONSTANT BIT(36)
      805     3179    1             INIT('111111111111'O,'222222222222'O,'333333333333'O,
      806     3180    1                  '444444444444'O,'555555555555'O);
      807     3181        /* */
      808     3182    1          DCL B$JIT$ PTR SYMREF;
      809     3183    1          DCL S_CUN UBIN(36) SYMREF;
      810     3184    1          DCL B$LS$ PTR SYMREF;
      811     3185    1          DCL B$MISC$ PTR SYMREF READONLY;
      812     3186        /* */
      813     3187    1          DCL BUFFER CHAR(4096) BASED;
      814     3188        /* */
      815     3189    1          DCL JDCB$ PTR;
      816     3190    1          DCL SRDA SBIN;
      817     3191    1          DCL GRANS SBIN;
      818     3192    1          DCL HASH SBIN;
      819     3193    1          DCL I SBIN;
      820     3194    1          DCL N SBIN;
      821     3195    1          DCL CACHE$ PTR;
      822     3196    1          DCL TYPE SBIN;
      823     3197    1          DCL NEWPP SBIN;
      824     3198    1          DCL VPNO SBIN;
      825     3199    1          DCL SETX SBIN;
      826     3200    1          DCL PP SBIN;
      827     3201    1          DCL USER UBIN(9) CALIGNED;
PL6.E3A0      #006=FMC$GET File=FMC$CACHE.:E05TSI                                TUE 07/29/97 16:40 Page:175
      828     3202    1          DCL Q$ PTR;
      829     3203    1          DCL CODE SBIN;
      830     3204    1          DCL MISC SBIN;
      831     3205    1          DCL NOCACHE SBIN;
      832     3206        /* */
      833     3207               %SUB FCG#='0615'O;
      834     3208               %SUB MID#='04'O;
      835     3209        /* */
      836     3210               %FMC$CACHE;
      837     3233               %FMC$CACHE(FPTN=FMC$CACHE, ARRAY=NO, STCLASS="BASED(CACHE$)");
      838     3256               %FMC$STATS;
      839     3265               %F$DCB(BASED="BASED(JDCB$)");
      840     3315               %FM$GRAN(BASED="BASED(BUF$)");
      841     3319               %N$REQ(STCLASS="BASED(Q$)");
      842     3377               %ERRCODE(NAME=ERRWD, COD#=0);
      843     3381               %FM$CFU;
      844     3387               %B_MLS(FPTN=B$MLNK, STCLASS=BASED);
      845     4202        /* */
      846     4203    1          NOCACHE=0;
      847     4204    1          GOTO COMMON;
      848     4205    1   FMC$NOCACHE: ENTRY(BUF$, BUFNUM, DA, FLAG) ALTRET;
      849     4206    1          NOCACHE=1;
      850     4207
      851     4208    1   COMMON: ;
      852     4209    1          IF FMC_CACHESIZ = 0 THEN
      853     4210    2             DO;
      854     4211    2             FLAG=0;
      855     4212    2             RETURN;
      856     4213    2             END;
      857     4214
      858     4215    1          JDCB$=B$JIT.DCB$;
      859     4216    1          IF DA < FM_SRZERO THEN
      860     4217    1             CALL FAF$FRTOSR(DA, SRDA, GRANS) ALTRET(DAERR);
      861     4218    1          ELSE
      862     4219    1             SRDA=DA;
      863     4220    1          SETX=F$DCB.SETX;
      864     4221    1          CALL FMC$GETTYPE(TYPE);
PL6.E3A0      #006=FMC$GET File=FMC$CACHE.:E05TSI                                TUE 07/29/97 16:40 Page:176
      865     4222    1          FMC$STATS.ATTGET(TYPE)=FMC$STATS.ATTGET(TYPE)+1;
      866     4223
      867     4224               %HASH;
      868     4227
      869     4228    1          CALL CHECK_CACHE(FLAG);
      870     4229
      871     4230    1          IF FLAG = 1 OR NOCACHE = 1 THEN
      872     4231    1             RETURN;
      873     4232
      874     4233               %LOCK(G=FMC_LOCK);
      875     4236    1          CALL FMC$GETSLOT(HASH, TYPE, SRDA, CACHE$) ALTRET(NOCACHE);
      876     4237
      877     4238    1          FMC$CACHE.FLAGS.IO='1'B;
      878     4239    1          FMC$CACHE.SRDA=SRDA;
      879     4240    1          FMC$CACHE.USECNT=1;
      880     4241    1          FMC$CACHE.SETX=F$DCB.SETX;
      881     4242    1          FMC$CACHE.TYPE=TYPE;
      882     4243               %INC_COUNTER(ITEM=IOCACHE);
      883     4249               %UNLOCK(G=FMC_LOCK);
      884     4252
      885     4253    1          CALL FMD$FLSHBUF(BUFNUM);
      886     4254    1          CALL MMJ$GIOP(PP);
      887     4255    1          FMC$CACHE.PAGE=PP;
      888     4256    1          CALL MMJ$MAPIOP(VPNO, PP);
      889     4257    1          F$DCB.BFR.BUFX(BUFNUM)=VPNO;
      890     4258    1          F$DCB.BFR1.SIZ(BUFNUM)=1;
      891     4259    1          F$DCB.BFR1.CX(BUFNUM)=HASH;
      892     4260    1          F$DCB.BFR.DA(BUFNUM) = 0;
      893     4261    1          BUF$=FM$BUF$(F$DCB.BFR.BUFX(BUFNUM));
      894     4262    1          FM$GRAN=ZAPBUF;
      895     4263    1          Q$=ADDR(NIL);
      896     4264    1          CALL FMB$QUEUE(BUF$, 1, 4096, SRDA, %N_RDBIN, -1,
      897     4265    1             ENTADDR(NIL), 0, Q$) ALTRET(ERR1);
      898     4266    1          IF N$REQ.TYC ~= '1'B THEN
      899     4267    1             CALL LOGERR(2) ALTRET(ERR);
      900     4268    1          IF Q$ ~= ADDR(NIL) THEN
      901     4269    1             CALL NIQ$REL(Q$);
PL6.E3A0      #006=FMC$GET File=FMC$CACHE.:E05TSI                                TUE 07/29/97 16:40 Page:177
      902     4270
      903     4271               %LOCK(G=FMC_LOCK);
      904     4274    1          FMC$CACHE.FLAGS.IO='0'B;
      905     4275
      906     4276    1          IF FMC$CACHE.FLAGS.WAIT THEN
      907     4277    2             DO;   /* THERE WERE OTHERS WAITING */
      908     4278    2             CALL SSR$RUE(%SS_UQC, FMC$CACHE.USER);
      909     4279    2             END;  /* THERE WERE OTHERS WAITING */
      910     4280
      911     4281               %UNLOCK(G=FMC_LOCK);
      912     4284    1          FLAG=2;
      913     4285    1          RETURN;
      914     4286
      915     4287    1   DAERR: FLAG=0;
      916     4288    1          ALTRETURN;
      917     4289    1   ERR1:  CALL LOGERR(1);
      918     4290    1   ERR:   FLAG=0;
      919     4291    1          IF FMC$CACHE.FLAGS.WAIT THEN
      920     4292    1             CALL SSR$RUE(%SS_UQC, FMC$CACHE.USER);
      921     4293    1          ALTRETURN;
      922     4294    1   NOCACHE: FLAG=0;
      923     4295               %UNLOCK(G=FMC_LOCK);
      924     4298    1          RETURN;
      925     4299               %EJECT;
PL6.E3A0      #006=FMC$GET File=FMC$CACHE.:E05TSI                                TUE 07/29/97 16:40 Page:178
      926     4300        /*I*     NAME:     CHECK_CACHE
      927     4301                 PURPOSE:  To check to see if a page we want is already in
      928     4302                           the cache table.
      929     4303
      930     4304                 DESCRIPTION:
      931     4305
      932     4306                      Check all four entries in the row that we hashed to.
      933     4307                 If we didn't find it, then set the flag to zero, and return.
      934     4308
      935     4309                      If the usecount is zero, then remove the page from the
      936     4310                 linked list.
      937     4311
      938     4312                      If we are still actually reading the page, then call
      939     4313                 the scheduler routines to REG the user.  When we wake up
      940     4314                 do a quick check to see if everything is okay.
      941     4315
      942     4316                      If the NOCACHE flag is zero, then map the user onto
      943     4317                 the page.  If the NOCACHE flag is set, then the caller
      944     4318                 actually wants a copy of the granule that he can muck with.
      945     4319                 Get another page and make a copy of the granule that won't
      946     4320                 be the the cache table.
      947     4321        */
      948     4322                 %EJECT;
PL6.E3A0      #006=FMC$GET File=FMC$CACHE.:E05TSI                                TUE 07/29/97 16:40 Page:179
      949     4323    1   CHECK_CACHE: PROC(FLAG);
      950     4324    2          DCL FLAG SBIN;
      951     4325        /* */
      952     4326               %LOCK(G=FMC_LOCK);
      953     4329    2          I=0;
      954     4330    3          DO WHILE (I <= 3 AND
      955     4331    3             (FMC$CACHETBL.SRDA(HASH+I) ~= SRDA OR
      956     4332    3              FMC$CACHETBL.SETX(HASH+I) ~= SETX OR
      957     4333    3              FMC$CACHETBL.FLAGS.ERR(HASH+I)));
      958     4334    3             I=I+1;
      959     4335    3          END;  /* WHILE */
      960     4336
      961     4337    2          IF FMC$CACHETBL.SRDA(HASH+I) ~= SRDA OR
      962     4338    2             FMC$CACHETBL.SETX(HASH+I) ~= SETX OR
      963     4339    2             FMC$CACHETBL.FLAGS.ERR(HASH+I) THEN
      964     4340    3             DO;   /* NOT FOUND */
      965     4341                  %UNLOCK(G=FMC_LOCK);
      966     4344    3             FLAG=0;
      967     4345    3             RETURN;
      968     4346    3             END;  /* NOT FOUND */
      969     4347
      970     4348    2          HASH=HASH+I;
      971     4349    2          CACHE$=ADDR(FMC$CACHETBL(HASH));
      972     4350
      973     4351    2          IF FMC$CACHE.TYPE ~= TYPE THEN
      974     4352    3             DO;  /* Keep stats for type we found */
      975     4353                  /* ACS=BLOCK reads (e.g., from EFT) could cause types of
      976     4354                  Keyed, Indexed, or IREL files to be set differently than
      977     4355                  usual since F$DCB.LVL would probably be 0.              */
      978     4356    3             FMC$STATS.ATTGET(TYPE)=FMC$STATS.ATTGET(TYPE)-1;
      979     4357    3             TYPE=FMC$CACHE.TYPE;
      980     4358    3             FMC$STATS.ATTGET(TYPE)=FMC$STATS.ATTGET(TYPE)+1;
      981     4359    3             END; /* Keep stats for type we found */
      982     4360
      983     4361    2          IF FMC$CACHE.USECNT = 0 THEN
      984     4362    3             DO;
      985     4363    3             FMC$STATS.HITZERO(TYPE)=FMC$STATS.HITZERO(TYPE)+1;
PL6.E3A0      #006=FMC$GET File=FMC$CACHE.:E05TSI                                TUE 07/29/97 16:40 Page:180
      986     4364    3             CALL FMC$REMOVE(HASH);
      987     4365    3             END;
      988     4366    2          ELSE
      989     4367    2             FMC$STATS.HITNONZERO(TYPE)=FMC$STATS.HITNONZERO(TYPE)+1;
      990     4368
      991     4369    2          FMC$CACHE.USECNT=FMC$CACHE.USECNT+1;
      992     4370
      993     4371    2          IF FMC$CACHE.FLAGS.IO THEN
      994     4372    3             DO;   /* WE GOTTA WAIT */
      995     4373    3             USER=FMC$CACHE.USER;
      996     4374    3             IF USER = 0 THEN
      997     4375    4                DO;   /* FIRST ONE TO WAIT */
      998     4376    4                FMC$CACHE.USER=S_CUN;
      999     4377    4                FMC$CACHE.FLAGS.WAIT='1'B;
     1000     4378    4                END;  /* FIRST ONE TO WAIT */
     1001     4379    3             CALL SSR$REG(%SS_QC, USER, FMC_LOCK);
     1002     4380                  %LOCK(G=FMC_LOCK);
     1003     4383    3             IF FMC$CACHE.FLAGS.ERR OR FMC$CACHE.FLAGS.IO THEN
     1004     4384    4                DO;
     1005     4385                     %UNLOCK(G=FMC_LOCK);
     1006     4388    4                FLAG=0;
     1007     4389    4                CALL FMD$FLSHBUF(BUFNUM);
     1008     4390    4                F$DCB.BFR1.CX(BUFNUM)=HASH;
     1009     4391    4                CALL FMC$RELCACHE(BUFNUM);
     1010     4392    4                RETURN;
     1011     4393    4                END;
     1012     4394    3             END;  /* WE GOTTA WAIT */
     1013     4395
     1014     4396    2          IF NOCACHE = 0 THEN
     1015     4397    3             DO;   /* NORMAL */
     1016     4398                  %UNLOCK(G=FMC_LOCK);
     1017     4401    3             CALL FMD$FLSHBUF(BUFNUM);
     1018     4402    3             F$DCB.BFR1.CX(BUFNUM)=HASH;
     1019     4403    3             NEWPP=FMC$CACHE.PAGE;
     1020     4404    3             CALL MMJ$MAPIOP(VPNO, NEWPP);
     1021     4405    3             F$DCB.BFR.BUFX(BUFNUM)=VPNO;
     1022     4406    3             F$DCB.BFR1.SIZ(BUFNUM)=1;
PL6.E3A0      #006=FMC$GET File=FMC$CACHE.:E05TSI                                TUE 07/29/97 16:40 Page:181
     1023     4407    3             END;  /* NORMAL */
     1024     4408    2          ELSE
     1025     4409    3             DO;   /* MAKE AN UNCACHED COPY */
     1026     4410                  %UNLOCK(G=FMC_LOCK);
     1027     4413    3             CALL FMD$FLSHBUFNR(BUFNUM);
     1028     4414    3             CALL FMD$GETBUF(BUFNUM, 1, BUF$);
     1029     4415                  %LOCK(G=FMC_LOCK);
     1030     4418    3             B$LS$->B$MLNK.MISC=DESCINIT;
     1031     4419    3             B$LS$->B$MLNK.MISC.BASE=FMC$CACHE.PAGE*4096;
     1032     4420    3             BUF$->BUFFER=B$MISC$->BUFFER;
     1033     4421    3             FMC$CACHE.USECNT=FMC$CACHE.USECNT-1;
     1034     4422    3             IF FMC$CACHE.USECNT = 0 THEN
     1035     4423    3                CALL FMC$ADD(HASH);
     1036     4424    3             F$DCB.BFR.CVM(BUFNUM)='0'B;
     1037     4425                  %UNLOCK(G=FMC_LOCK);
     1038     4428    3             END;  /* MAKE AN UNCACHED COPY */
     1039     4429    2          B$JIT.ACCESS.PACKS=B$JIT.ACCESS.PACKS+1;
     1040     4430    2          FLAG=1;
     1041     4431
     1042     4432    2          RETURN;
     1043     4433    2          END CHECK_CACHE;
     1044     4434               %EJECT;
PL6.E3A0      #006=FMC$GET File=FMC$CACHE.:E05TSI                                TUE 07/29/97 16:40 Page:182
     1045     4435    1   LOGERR: PROC(ERR) ALTRET;
     1046     4436    2          DCL ERR SBIN;
     1047     4437        /* */
     1048     4438    2          FMC$CACHE.FLAGS.ERR='1'B;
     1049     4439    2          CALL FMB$ERRTYP(CODE);
     1050     4440    2          IF ERR = 2 THEN
     1051     4441    2             MISC=BITBIN(N$REQ.TYC);
     1052     4442    2          ELSE
     1053     4443    2             IF F$DCB.CFU$ = ADDR(NIL) THEN
     1054     4444    2                MISC=-1;
     1055     4445    2             ELSE
     1056     4446    2                MISC=F$DCB.CFU$->FM$CFU.UGRANS;
     1057     4447
     1058     4448    2          CALL FMB$LOGERR(CODE, ERR, 8, SRDA, BUF$, 0, 1, 2, MISC,,Q$);
     1059     4449
     1060     4450    2          IF Q$ ~= ADDR(NIL) THEN
     1061     4451    3             DO;
     1062     4452    3             CALL NIQ$REL(Q$);
     1063     4453    3             Q$=ADDR(NIL);
     1064     4454    3             END;
     1065     4455    2          IF CODE ~= %E$DI AND ERR = 2 THEN
     1066     4456    2             CODE=CODE-%E$MI+%E$MIIO;
     1067     4457    2          B$JIT.ERR=ERRWD;
     1068     4458    2          B$JIT.ERR.CODE=CODE;
     1069     4459    2          F$DCB.BFR.DA(BUFNUM)=SRDA;
     1070     4460    2          CALL FMC$RELCACHE(BUFNUM);
     1071     4461
     1072     4462    2          ALTRETURN;
     1073     4463    2          END LOGERR;
     1074     4464    1          END FMC$GET;
     1075     4465               %EOD;

PL6.E3A0      #006=FMC$GET File=FMC$CACHE.:E05TSI                                TUE 07/29/97 16:40 Page:183
--  Include file information  --

   B_MLSMAC_C.:E05TOU  is referenced.
   B_STRINGS_C.:E05TOU  is referenced.
   P_PMDAT_C.:E05TOU  is referenced.
   P_PMDAT_R.:E05TOU  cannot be made into a system file and is referenced.
   F$DCB.:E05TOU  is referenced.
   B$JIT_C.:E05TOU  is referenced.
   B$JIT.:E05TOU  cannot be made into a system file and is referenced.
   SS_SCHED_C.:E05TOU  is referenced.
   HF_LOCK_C.:E05TOU  cannot be made into a system file and is referenced.
   F_ERRORS_C.:E05TOU  is referenced.
   FM$MACROS.:E05TOU  is referenced.
   N$REQ.:E05TOU  is referenced.
   N_FC_C.:E05TOU  is referenced.
   FM_BUF_R.:E05TOU  cannot be made into a system file and is referenced.
   FM_DATA_R.:E05TOU  cannot be made into a system file and is referenced.
   FM_CNTRL_R.:E05TOU  cannot be made into a system file and is referenced.
   FM_CACHE_C.:E05TOU  is referenced.
   FM_CACHE_R.:E05TOU  cannot be made into a system file and is referenced.
      No diagnostics issued in procedure FMC$GET.

   Procedure FMC$GET requires 616 words for executable code.
   Procedure FMC$GET requires 38 words of local(AUTO) storage.

PL6.E3A0      #006=FMC$GET File=FMC$CACHE.:E05TSI                                TUE 07/29/97 16:40 Page:184

 Object Unit name= FMC$GET                                    File name= FMC$CACHE.:E05TOU
 UTS= JUL 29 '97 16:40:26.84 TUE                              Compiler= PL-6/E31         Sev=      00
 SharedLib= :SHARED_SYSTEM                                    Alt SharedLib=


    ****  Control sections  ****

 Sect   Type Bound  Init  Size OctSiz  Section name(segment info)
    0  RoData even  UTS      7      7  FMC$GET
    1   Proc  even  none   616   1150  FMC$GET
    2  RoData even  none    22     26  FMC$GET

    ****  Entry defs  ****

                              Check   Calling
                             calling  sequence
  Sect OctLoc Primary Altret sequence   type   Parms  Name
     1      0   yes    yes     yes      Std        4  FMC$GET
     1      4          yes     yes      Std        4  FMC$NOCACHE
PL6.E3A0      #006=FMC$GET File=FMC$CACHE.:E05TSI                                TUE 07/29/97 16:40 Page:185

  ****  Entry refs  ****

         Check        Calling
        calling       sequence
Altret sequence SRef   type   Args  Name
 yes     yes           Std       3 FAF$FRTOSR
         yes           Std       1 FMC$GETTYPE
 yes     yes           Std       4 FMC$GETSLOT
         yes           Std       1 HFC$UNLOCK
 yes     yes           Std       9 FMB$QUEUE
         yes           Std       2 MMJ$MAPIOP
         yes           Std       1 FMD$FLSHBUF
 yes     yes           Std       1 NIQ$REL
         yes           Std       1 HFC$LOCK
         yes           Std       1 MMJ$GIOP
         yes           Std       4 SSR$RUE
 yes     yes           Std       3 SSR$REG
         yes           Std       1 FMC$REMOVE
         yes           Std       1 FMC$RELCACHE
         yes           Std       1 FMD$FLSHBUFNR
         yes           Std       3 FMD$GETBUF
         yes           Std       1 FMC$ADD
         yes           Std       1 FMB$ERRTYP
         yes           Std      11 FMB$LOGERR
                       nStd      0 X66_AUTO_4
                       nStd      0 X66_ARET
                       Std       0 B_CONSPOOL_D
                       nStd      0 X66_AALT
PL6.E3A0      #006=FMC$GET File=FMC$CACHE.:E05TSI                                TUE 07/29/97 16:40 Page:186

  ****  Data refs  ****

  Flags:  r = read only, s = secondary
Flgs Name                             Flgs Name                             Flgs Name
     FMC_CACHE$                            FMC_STATS$                            FMC_CACHESIZ
     FMC_CACHEPGCNT$                       FMC_LOCK                              FMC_MASK
r    FM_SRZERO                             FM$BUF$                               P_RESOURCE$
     P_UPTIME                              P_NSCPU                               B$JIT$
     S_CUN                                 B$LS$                            r    B$MISC$
     B_VECTNIL

  ****  Segment refs  ****

  Flags:  r = read only, s = secondary
Flgs Name                             Flgs Name                             Flgs Name
     ISSID
PL6.E3A0      #006=FMC$GET File=FMC$CACHE.:E05TSI                                TUE 07/29/97 16:40 Page:187


      725        1        /*T***********************************************************/
      726        2        /*T*                                                         */
      727        3        /*T* Copyright (c) Bull HN Information Systems Inc., 1997    */
      728        4        /*T*                                                         */
      729        5        /*T***********************************************************/
      730        6        /*D*     NAME:     FMC$GET
      731        7                 PURPOSE:  To get a cached page for the user.
      732        8                 INPUT:    BUFNUM - Buffer number
      733        9                           DA - Disk address we want
      734       10                 OUTPUT:   BUF$ - Pointer to the buffer
      735       11                           FLAG - 1 if we could get the cached page
      736       12                                  0 if we couldn't
      737       13
      738       14                 DESCRIPTION:
      739       15
      740       16                      Set up the SRDA, granule type, and hash to the table
      741       17                 row that we want.
      742       18                      Check to see if the page is already in the cache, if
      743       19                 it was, then just return.
      744       20
      745       21                      Otherwise, try to get a slot in the cache table.  If
      746       22                 we could, then set up the cache table entry.  Then we get
      747       23                 a cache page, map the user onto it, and read the granule.
      748       24                 It is possible that another user will want a page while
      749       25                 we are actually in the process of reading the granule.  If
      750       26                 that happens, we set FMC$CACHE.FLAGS.WAIT.  Then we call
      751       27                 the scheduler routines to wake up any waiting users.
      752       28        */
      753       29                 %EJECT;
PL6.E3A0      #006=FMC$GET File=FMC$CACHE.:E05TSI                                TUE 07/29/97 16:40 Page:188
      754       30        FMC$GET: PROC(BUF$, BUFNUM, DA, FLAG) ALTRET;

     30  1 000000   000000 700200 xent  FMC$GET      TSX0  ! X66_AUTO_4
         1 000001   000046 000004                    ZERO    38,4

      755       31    1          DCL BUF$ PTR;
      756       32    1          DCL BUFNUM SBIN;
      757       33    1          DCL DA SBIN;
      758       34    1          DCL FLAG SBIN;
      759       35        /* */
      760       36               %INCLUDE FM_CACHE_R;
      761       48               %INCLUDE FM_CACHE_C;
      762      114               %INCLUDE FM_CNTRL_R;
      763      123               %INCLUDE FM_DATA_R;
      764      137               %INCLUDE FM_BUF_R;
      765      146               %INCLUDE N_FC_C;
      766      183               %INCLUDE N$REQ;
      767      257               %INCLUDE FM$MACROS;
      768      632               %INCLUDE F_ERRORS_C;
      769      872               %INCLUDE HF_LOCK_C;
      770      886               %INCLUDE SS_SCHED_C;
      771     1119               %INCLUDE B$JIT;
      772     1722               %MACRO F$DCB(BASED=BASED);
      773     1723               %INCLUDE F$DCB;
      774     1772               %MEND;
      775     1773               %INCLUDE P_PMDAT_R;
      776     2081               %INCLUDE B_STRINGS_C;
      777     2210               %INCLUDE B_MLSMAC_C;
      778     3152        /* */
      779     3153    1          DCL SSR$REG ENTRY(3) ALTRET;
      780     3154    1          DCL SSR$RUE ENTRY(4);
      781     3155    1          DCL MMJ$GIOP ENTRY(1);
      782     3156    1          DCL MMJ$FBTOIOP ENTRY(2);
      783     3157    1          DCL MMJ$MAPIOP ENTRY(2);
      784     3158    1          DCL MMJ$UNMAPIOP ENTRY(1);
      785     3159    1          DCL NIQ$REL ENTRY(1) ALTRET;
      786     3160    1          DCL FMD$FLSHBUF ENTRY(1);
PL6.E3A0      #006=FMC$GET File=FMC$CACHE.:E05TSI                                TUE 07/29/97 16:40 Page:189
      787     3161    1          DCL FMD$FLSHBUFNR ENTRY(1);
      788     3162    1          DCL FMD$GETBUF ENTRY(3);
      789     3163    1          DCL FMB$QUEUE ENTRY(9) ALTRET;
      790     3164    1          DCL FMB$ERRTYP ENTRY(1);
      791     3165    1          DCL FMB$LOGERR ENTRY(11);
      792     3166    1          DCL FAF$FRTOSR ENTRY(3) ALTRET;
      793     3167    1          DCL FMC$GETTYPE ENTRY(1);
      794     3168    1          DCL FMC$GETSLOT ENTRY(4) ALTRET;
      795     3169    1          DCL FMC$ADD ENTRY(1);
      796     3170    1          DCL FMC$REMOVE ENTRY(1);
      797     3171    1          DCL FMC$RELCACHE ENTRY(1);
      798     3172        /* */
      799     3173    1          DCL 1 DESCINIT CONSTANT,
      800     3174    1               2 BOUND UBIN(20) UNAL INIT(4095),  /* FRAME A PAGE */
      801     3175    1               2 FLGS BIT(3) INIT('7'O),          /* ALLOW READ/WRITE */
      802     3176    1               2 WSQ UBIN(9) UNAL INIT(0),        /* REAL PAGE NO */
      803     3177    1               2 TYP UBIN(4) UNAL INIT(2);        /* WSQ TYPE DESC */
      804     3178    1          DCL ZAPBUF(0:4) CONSTANT BIT(36)
      805     3179    1             INIT('111111111111'O,'222222222222'O,'333333333333'O,
      806     3180    1                  '444444444444'O,'555555555555'O);
      807     3181        /* */
      808     3182    1          DCL B$JIT$ PTR SYMREF;
      809     3183    1          DCL S_CUN UBIN(36) SYMREF;
      810     3184    1          DCL B$LS$ PTR SYMREF;
      811     3185    1          DCL B$MISC$ PTR SYMREF READONLY;
      812     3186        /* */
      813     3187    1          DCL BUFFER CHAR(4096) BASED;
      814     3188        /* */
      815     3189    1          DCL JDCB$ PTR;
      816     3190    1          DCL SRDA SBIN;
      817     3191    1          DCL GRANS SBIN;
      818     3192    1          DCL HASH SBIN;
      819     3193    1          DCL I SBIN;
      820     3194    1          DCL N SBIN;
      821     3195    1          DCL CACHE$ PTR;
      822     3196    1          DCL TYPE SBIN;
      823     3197    1          DCL NEWPP SBIN;
PL6.E3A0      #006=FMC$GET File=FMC$CACHE.:E05TSI                                TUE 07/29/97 16:40 Page:190
      824     3198    1          DCL VPNO SBIN;
      825     3199    1          DCL SETX SBIN;
      826     3200    1          DCL PP SBIN;
      827     3201    1          DCL USER UBIN(9) CALIGNED;
      828     3202    1          DCL Q$ PTR;
      829     3203    1          DCL CODE SBIN;
      830     3204    1          DCL MISC SBIN;
      831     3205    1          DCL NOCACHE SBIN;
      832     3206        /* */
      833     3207               %SUB FCG#='0615'O;
      834     3208               %SUB MID#='04'O;
      835     3209        /* */
      836     3210               %FMC$CACHE;
      837     3233               %FMC$CACHE(FPTN=FMC$CACHE, ARRAY=NO, STCLASS="BASED(CACHE$)");
      838     3256               %FMC$STATS;
      839     3265               %F$DCB(BASED="BASED(JDCB$)");
      840     3315               %FM$GRAN(BASED="BASED(BUF$)");
      841     3319               %N$REQ(STCLASS="BASED(Q$)");
      842     3377               %ERRCODE(NAME=ERRWD, COD#=0);
      843     3381               %FM$CFU;
      844     3387               %B_MLS(FPTN=B$MLNK, STCLASS=BASED);
      845     4202        /* */
      846     4203    1          NOCACHE=0;

   4203  1 000002   200027 450100                    STZ     NOCACHE,,AUTO

      847     4204    1          GOTO COMMON;

   4204  1 000003   000010 710000 1                  TRA     COMMON

      848     4205    1   FMC$NOCACHE: ENTRY(BUF$, BUFNUM, DA, FLAG) ALTRET;

   4205  1 000004   000000 700200 xent  FMC$NOCACHE  TSX0  ! X66_AUTO_4
         1 000005   000046 000004                    ZERO    38,4

      849     4206    1          NOCACHE=1;

PL6.E3A0      #006=FMC$GET File=FMC$CACHE.:E05TSI                                TUE 07/29/97 16:40 Page:191
   4206  1 000006   000001 235007                    LDA     1,DL
         1 000007   200027 755100                    STA     NOCACHE,,AUTO

   4206  1 000010                       COMMON       null
      850     4207
      851     4208    1   COMMON: ;
      852     4209    1          IF FMC_CACHESIZ = 0 THEN

   4209  1 000010   000000 235000 xsym               LDA     FMC_CACHESIZ
         1 000011   000015 601000 1                  TNZ     s:4215

      853     4210    2             DO;

      854     4211    2             FLAG=0;

   4211  1 000012   200006 470500                    LDP0    @FLAG,,AUTO
         1 000013   000000 450100                    STZ     0,,PR0

      855     4212    2             RETURN;

   4212  1 000014   000000 702200 xent               TSX2  ! X66_ARET

      856     4213    2             END;
      857     4214
      858     4215    1          JDCB$=B$JIT.DCB$;

   4215  1 000015   000000 470400 xsym               LDP0    B$JIT$
         1 000016   000232 236100                    LDQ     154,,PR0
         1 000017   200007 756100                    STQ     JDCB$,,AUTO

      859     4216    1          IF DA < FM_SRZERO THEN

   4216  1 000020   200005 471500                    LDP1    @DA,,AUTO
         1 000021   100000 236100                    LDQ     0,,PR1
         1 000022   000025 604000 1                  TMI     s:4217
         1 000023   000000 116000 xsym               CMPQ    FM_SRZERO
         1 000024   000040 603000 1                  TRC     s:4219
PL6.E3A0      #006=FMC$GET File=FMC$CACHE.:E05TSI                                TUE 07/29/97 16:40 Page:192

      860     4217    1             CALL FAF$FRTOSR(DA, SRDA, GRANS) ALTRET(DAERR);

   4217  1 000025   200011 633500                    EPPR3   GRANS,,AUTO
         1 000026   200034 453500                    STP3    @ERR+3,,AUTO
         1 000027   200010 634500                    EPPR4   SRDA,,AUTO
         1 000030   200033 454500                    STP4    @ERR+2,,AUTO
         1 000031   200005 236100                    LDQ     @DA,,AUTO
         1 000032   200032 756100                    STQ     @ERR+1,,AUTO
         1 000033   200032 630500                    EPPR0   @ERR+1,,AUTO
         1 000034   000021 631400 xsym               EPPR1   B_VECTNIL+17
         1 000035   000000 701000 xent               TSX1    FAF$FRTOSR
         1 000036   000337 702000 1                  TSX2    DAERR
         1 000037   000041 710000 1                  TRA     s:4220

      861     4218    1          ELSE
      862     4219    1             SRDA=DA;

   4219  1 000040   200010 756100                    STQ     SRDA,,AUTO

      863     4220    1          SETX=F$DCB.SETX;

   4220  1 000041   200007 470500                    LDP0    JDCB$,,AUTO
         1 000042   000051 236100                    LDQ     41,,PR0
         1 000043   777777 376007                    ANQ     -1,DL
         1 000044   200021 756100                    STQ     SETX,,AUTO

      864     4221    1          CALL FMC$GETTYPE(TYPE);

   4221  1 000045   200016 631500                    EPPR1   TYPE,,AUTO
         1 000046   200032 451500                    STP1    @ERR+1,,AUTO
         1 000047   200032 630500                    EPPR0   @ERR+1,,AUTO
         1 000050   000017 631400 xsym               EPPR1   B_VECTNIL+15
         1 000051   000000 701000 xent               TSX1    FMC$GETTYPE
         1 000052   000000 011000                    NOP     0

      865     4222    1          FMC$STATS.ATTGET(TYPE)=FMC$STATS.ATTGET(TYPE)+1;
PL6.E3A0      #006=FMC$GET File=FMC$CACHE.:E05TSI                                TUE 07/29/97 16:40 Page:193

   4222  1 000053   000000 470400 xsym               LDP0    FMC_STATS$
         1 000054   200016 720100                    LXL0    TYPE,,AUTO
         1 000055   000041 054110                    AOS     33,X0,PR0

      866     4223
      867     4224               %HASH;

   4225  1 000056   200010 236100                    LDQ     SRDA,,AUTO
         1 000057   200021 036100                    ADLQ    SETX,,AUTO
         1 000060   000000 376000 xsym               ANQ     FMC_MASK
         1 000061   000002 736000                    QLS     2
         1 000062   000001 036007                    ADLQ    1,DL
         1 000063   200012 756100                    STQ     HASH,,AUTO

      868     4227
      869     4228    1          CALL CHECK_CACHE(FLAG);

   4228  1 000064   200006 236100                    LDQ     @FLAG,,AUTO
         1 000065   200031 756100                    STQ     NOCACHE+2,,AUTO
         1 000066   000374 701000 1                  TSX1    CHECK_CACHE
         1 000067   000000 011000                    NOP     0

      870     4229
      871     4230    1          IF FLAG = 1 OR NOCACHE = 1 THEN

   4230  1 000070   200006 470500                    LDP0    @FLAG,,AUTO
         1 000071   000000 235100                    LDA     0,,PR0
         1 000072   000001 115007                    CMPA    1,DL
         1 000073   000077 600000 1                  TZE     s:4231
         1 000074   200027 236100                    LDQ     NOCACHE,,AUTO
         1 000075   000001 116007                    CMPQ    1,DL
         1 000076   000100 601000 1                  TNZ     s:4234

      872     4231    1             RETURN;

   4231  1 000077   000000 702200 xent               TSX2  ! X66_ARET
PL6.E3A0      #006=FMC$GET File=FMC$CACHE.:E05TSI                                TUE 07/29/97 16:40 Page:194

      873     4232
      874     4233               %LOCK(G=FMC_LOCK);

   4234  1 000100   000000 630400 2                  EPPR0   0
         1 000101   000017 631400 xsym               EPPR1   B_VECTNIL+15
         1 000102   000000 701000 xent               TSX1    HFC$LOCK
         1 000103   000000 011000                    NOP     0

      875     4236    1          CALL FMC$GETSLOT(HASH, TYPE, SRDA, CACHE$) ALTRET(NOCACHE);

   4236  1 000104   200015 630500                    EPPR0   CACHE$,,AUTO
         1 000105   200035 450500                    STP0    @ERR+4,,AUTO
         1 000106   200010 631500                    EPPR1   SRDA,,AUTO
         1 000107   200034 451500                    STP1    @ERR+3,,AUTO
         1 000110   200016 633500                    EPPR3   TYPE,,AUTO
         1 000111   200033 453500                    STP3    @ERR+2,,AUTO
         1 000112   200012 634500                    EPPR4   HASH,,AUTO
         1 000113   200032 454500                    STP4    @ERR+1,,AUTO
         1 000114   200032 630500                    EPPR0   @ERR+1,,AUTO
         1 000115   000022 631400 xsym               EPPR1   B_VECTNIL+18
         1 000116   000000 701000 xent               TSX1    FMC$GETSLOT
         1 000117   000365 702000 1                  TSX2    NOCACHE

      876     4237
      877     4238    1          FMC$CACHE.FLAGS.IO='1'B;

   4238  1 000120   200015 470500                    LDP0    CACHE$,,AUTO
         1 000121   000010 236007                    LDQ     8,DL
         1 000122   000004 256100                    ORSQ    4,,PR0

      878     4239    1          FMC$CACHE.SRDA=SRDA;

   4239  1 000123   200015 470500                    LDP0    CACHE$,,AUTO
         1 000124   200010 236100                    LDQ     SRDA,,AUTO
         1 000125   000000 552134                    STBQ    0,'34'O,PR0

PL6.E3A0      #006=FMC$GET File=FMC$CACHE.:E05TSI                                TUE 07/29/97 16:40 Page:195
      879     4240    1          FMC$CACHE.USECNT=1;

   4240  1 000126   000001 220003                    LDX0    1,DU
         1 000127   200015 470500                    LDP0    CACHE$,,AUTO
         1 000130   000002 440100                    SXL0    2,,PR0

      880     4241    1          FMC$CACHE.SETX=F$DCB.SETX;

   4241  1 000131   200007 470500                    LDP0    JDCB$,,AUTO
         1 000132   000051 721100                    LXL1    41,,PR0
         1 000133   200015 471500                    LDP1    CACHE$,,AUTO
         1 000134   100004 741100                    STX1    4,,PR1

      881     4242    1          FMC$CACHE.TYPE=TYPE;

   4242  1 000135   200015 471500                    LDP1    CACHE$,,AUTO
         1 000136   200016 236100                    LDQ     TYPE,,AUTO
         1 000137   000033 736000                    QLS     27
         1 000140   100000 552140                    STBQ    0,'40'O,PR1

      882     4243               %INC_COUNTER(ITEM=IOCACHE);

   4244  1 000141   000000 471400 xsym               LDP1    P_RESOURCE$
         1 000142   100055 235100                    LDA     45,,PR1
         1 000143   000001 035007                    ADLA    1,DL
         1 000144   100055 755100                    STA     45,,PR1

   4245  1 000145   100056 236100                    LDQ     46,,PR1
         1 000146   100055 116100                    CMPQ    45,,PR1
         1 000147   000151 603000 1                  TRC     s:4250

   4247  1 000150   100056 755100                    STA     46,,PR1

      883     4249               %UNLOCK(G=FMC_LOCK);

   4250  1 000151   000000 630400 2                  EPPR0   0
         1 000152   000017 631400 xsym               EPPR1   B_VECTNIL+15
PL6.E3A0      #006=FMC$GET File=FMC$CACHE.:E05TSI                                TUE 07/29/97 16:40 Page:196
         1 000153   000000 701000 xent               TSX1    HFC$UNLOCK
         1 000154   000000 011000                    NOP     0

      884     4252
      885     4253    1          CALL FMD$FLSHBUF(BUFNUM);

   4253  1 000155   200004 630500                    EPPR0   @BUFNUM,,AUTO
         1 000156   000017 631400 xsym               EPPR1   B_VECTNIL+15
         1 000157   000000 701000 xent               TSX1    FMD$FLSHBUF
         1 000160   000000 011000                    NOP     0

      886     4254    1          CALL MMJ$GIOP(PP);

   4254  1 000161   200022 630500                    EPPR0   PP,,AUTO
         1 000162   200032 450500                    STP0    @ERR+1,,AUTO
         1 000163   200032 630500                    EPPR0   @ERR+1,,AUTO
         1 000164   000017 631400 xsym               EPPR1   B_VECTNIL+15
         1 000165   000000 701000 xent               TSX1    MMJ$GIOP
         1 000166   000000 011000                    NOP     0

      887     4255    1          FMC$CACHE.PAGE=PP;

   4255  1 000167   200022 720100                    LXL0    PP,,AUTO
         1 000170   200015 470500                    LDP0    CACHE$,,AUTO
         1 000171   000002 740100                    STX0    2,,PR0

      888     4256    1          CALL MMJ$MAPIOP(VPNO, PP);

   4256  1 000172   200022 630500                    EPPR0   PP,,AUTO
         1 000173   200033 450500                    STP0    @ERR+2,,AUTO
         1 000174   200020 631500                    EPPR1   VPNO,,AUTO
         1 000175   200032 451500                    STP1    @ERR+1,,AUTO
         1 000176   200032 630500                    EPPR0   @ERR+1,,AUTO
         1 000177   000020 631400 xsym               EPPR1   B_VECTNIL+16
         1 000200   000000 701000 xent               TSX1    MMJ$MAPIOP
         1 000201   000000 011000                    NOP     0

PL6.E3A0      #006=FMC$GET File=FMC$CACHE.:E05TSI                                TUE 07/29/97 16:40 Page:197
      889     4257    1          F$DCB.BFR.BUFX(BUFNUM)=VPNO;

   4257  1 000202   200004 470500                    LDP0    @BUFNUM,,AUTO
         1 000203   000000 235100                    LDA     0,,PR0
         1 000204   200007 471500                    LDP1    JDCB$,,AUTO
         1 000205   200020 236100                    LDQ     VPNO,,AUTO
         1 000206   000033 736000                    QLS     27
         1 000207   100115 676105                    ERQ     77,AL,PR1
         1 000210   037000 376003                    ANQ     15872,DU
         1 000211   100115 656105                    ERSQ    77,AL,PR1

      890     4258    1          F$DCB.BFR1.SIZ(BUFNUM)=1;

   4258  1 000212   000000 235100                    LDA     0,,PR0
         1 000213   100122 236105                    LDQ     82,AL,PR1
         1 000214   000001 376000 2                  ANQ     1
         1 000215   000001 276003                    ORQ     1,DU
         1 000216   100122 756105                    STQ     82,AL,PR1

      891     4259    1          F$DCB.BFR1.CX(BUFNUM)=HASH;

   4259  1 000217   000000 235100                    LDA     0,,PR0
         1 000220   200012 720100                    LXL0    HASH,,AUTO
         1 000221   100122 440105                    SXL0    82,AL,PR1

      892     4260    1          F$DCB.BFR.DA(BUFNUM) = 0;

   4260  1 000222   000000 235100                    LDA     0,,PR0
         1 000223   777000 236003                    LDQ     -512,DU
         1 000224   100115 356105                    ANSQ    77,AL,PR1

      893     4261    1          BUF$=FM$BUF$(F$DCB.BFR.BUFX(BUFNUM));

   4261  1 000225   000000 235100                    LDA     0,,PR0
         1 000226   100115 236105                    LDQ     77,AL,PR1
         1 000227   000033 772000                    QRL     27
         1 000230   000037 376007                    ANQ     31,DL
PL6.E3A0      #006=FMC$GET File=FMC$CACHE.:E05TSI                                TUE 07/29/97 16:40 Page:198
         1 000231   000000 236006 xsym               LDQ     FM$BUF$,QL
         1 000232   200003 473500                    LDP3    @BUF$,,AUTO
         1 000233   300000 756100                    STQ     0,,PR3

      894     4262    1          FM$GRAN=ZAPBUF;

   4262  1 000234   300000 474500                    LDP4    0,,PR3
         1 000235   000100 100400                    MLR     fill='000'O
         1 000236   000001 000024 0                  ADSC9   ZAPBUF                   cn=0,n=20
         1 000237   400000 000024                    ADSC9   0,,PR4                   cn=0,n=20

      895     4263    1          Q$=ADDR(NIL);

   4263  1 000240   000001 236000 xsym               LDQ     B_VECTNIL+1
         1 000241   200024 756100                    STQ     Q$,,AUTO

      896     4264    1          CALL FMB$QUEUE(BUF$, 1, 4096, SRDA, %N_RDBIN, -1,

   4264  1 000242   200024 634500                    EPPR4   Q$,,AUTO
         1 000243   200042 454500                    STP4    @ERR+9,,AUTO
         1 000244   000004 237000 2                  LDAQ    4
         1 000245   200040 757100                    STAQ    @ERR+7,,AUTO
         1 000246   000006 237000 2                  LDAQ    6
         1 000247   200036 757100                    STAQ    @ERR+5,,AUTO
         1 000250   200010 635500                    EPPR5   SRDA,,AUTO
         1 000251   200035 455500                    STP5    @ERR+4,,AUTO
         1 000252   000010 236000 2                  LDQ     8
         1 000253   200034 756100                    STQ     @ERR+3,,AUTO
         1 000254   000011 236000 2                  LDQ     9
         1 000255   200003 235100                    LDA     @BUF$,,AUTO
         1 000256   200032 757100                    STAQ    @ERR+1,,AUTO
         1 000257   200032 630500                    EPPR0   @ERR+1,,AUTO
         1 000260   000002 631400 2                  EPPR1   2
         1 000261   000000 701000 xent               TSX1    FMB$QUEUE
         1 000262   000342 702000 1                  TSX2    ERR1

      897     4265    1             ENTADDR(NIL), 0, Q$) ALTRET(ERR1);
PL6.E3A0      #006=FMC$GET File=FMC$CACHE.:E05TSI                                TUE 07/29/97 16:40 Page:199
      898     4266    1          IF N$REQ.TYC ~= '1'B THEN

   4266  1 000263   200024 470500                    LDP0    Q$,,AUTO
         1 000264   000021 236100                    LDQ     17,,PR0
         1 000265   400000 116003                    CMPQ    -131072,DU
         1 000266   000273 600000 1                  TZE     s:4268

      899     4267    1             CALL LOGERR(2) ALTRET(ERR);

   4267  1 000267   000006 236000 2                  LDQ     6
         1 000270   200031 756100                    STQ     NOCACHE+2,,AUTO
         1 000271   001013 701000 1                  TSX1    LOGERR
         1 000272   000346 702000 1                  TSX2    ERR

      900     4268    1          IF Q$ ~= ADDR(NIL) THEN

   4268  1 000273   200024 236100                    LDQ     Q$,,AUTO
         1 000274   000001 116000 xsym               CMPQ    B_VECTNIL+1
         1 000275   000304 600000 1                  TZE     s:4272

      901     4269    1             CALL NIQ$REL(Q$);

   4269  1 000276   200024 630500                    EPPR0   Q$,,AUTO
         1 000277   200032 450500                    STP0    @ERR+1,,AUTO
         1 000300   200032 630500                    EPPR0   @ERR+1,,AUTO
         1 000301   000017 631400 xsym               EPPR1   B_VECTNIL+15
         1 000302   000000 701000 xent               TSX1    NIQ$REL
         1 000303   000000 011000                    NOP     0

      902     4270
      903     4271               %LOCK(G=FMC_LOCK);

   4272  1 000304   000000 630400 2                  EPPR0   0
         1 000305   000017 631400 xsym               EPPR1   B_VECTNIL+15
         1 000306   000000 701000 xent               TSX1    HFC$LOCK
         1 000307   000000 011000                    NOP     0

PL6.E3A0      #006=FMC$GET File=FMC$CACHE.:E05TSI                                TUE 07/29/97 16:40 Page:200
      904     4274    1          FMC$CACHE.FLAGS.IO='0'B;

   4274  1 000310   200015 470500                    LDP0    CACHE$,,AUTO
         1 000311   000012 236000 2                  LDQ     10
         1 000312   000004 356100                    ANSQ    4,,PR0

      905     4275
      906     4276    1          IF FMC$CACHE.FLAGS.WAIT THEN

   4276  1 000313   200015 470500                    LDP0    CACHE$,,AUTO
         1 000314   000004 236100                    LDQ     4,,PR0
         1 000315   000004 316007                    CANQ    4,DL
         1 000316   000327 600000 1                  TZE     s:4282

      907     4277    2             DO;   /* THERE WERE OTHERS WAITING */

      908     4278    2             CALL SSR$RUE(%SS_UQC, FMC$CACHE.USER);

   4278  1 000317   200015 236100                    LDQ     CACHE$,,AUTO
         1 000320   000014 036000 2                  ADLQ    12
         1 000321   000015 235000 2                  LDA     13
         1 000322   200032 757100                    STAQ    @ERR+1,,AUTO
         1 000323   200032 630500                    EPPR0   @ERR+1,,AUTO
         1 000324   000020 631400 xsym               EPPR1   B_VECTNIL+16
         1 000325   000000 701000 xent               TSX1    SSR$RUE
         1 000326   000000 011000                    NOP     0

      909     4279    2             END;  /* THERE WERE OTHERS WAITING */

      910     4280
      911     4281               %UNLOCK(G=FMC_LOCK);

   4282  1 000327   000000 630400 2                  EPPR0   0
         1 000330   000017 631400 xsym               EPPR1   B_VECTNIL+15
         1 000331   000000 701000 xent               TSX1    HFC$UNLOCK
         1 000332   000000 011000                    NOP     0

PL6.E3A0      #006=FMC$GET File=FMC$CACHE.:E05TSI                                TUE 07/29/97 16:40 Page:201
      912     4284    1          FLAG=2;

   4284  1 000333   000002 235007                    LDA     2,DL
         1 000334   200006 470500                    LDP0    @FLAG,,AUTO
         1 000335   000000 755100                    STA     0,,PR0

      913     4285    1          RETURN;

   4285  1 000336   000000 702200 xent               TSX2  ! X66_ARET

      914     4286
      915     4287    1   DAERR: FLAG=0;

   4287  1 000337   200006 470500       DAERR        LDP0    @FLAG,,AUTO
         1 000340   000000 450100                    STZ     0,,PR0

      916     4288    1          ALTRETURN;

   4288  1 000341   000000 702200 xent               TSX2  ! X66_AALT

      917     4289    1   ERR1:  CALL LOGERR(1);

   4289  1 000342   000011 236000 2     ERR1         LDQ     9
         1 000343   200031 756100                    STQ     NOCACHE+2,,AUTO
         1 000344   001013 701000 1                  TSX1    LOGERR
         1 000345   000000 011000                    NOP     0

      918     4290    1   ERR:   FLAG=0;

   4290  1 000346   200006 470500       ERR          LDP0    @FLAG,,AUTO
         1 000347   000000 450100                    STZ     0,,PR0

      919     4291    1          IF FMC$CACHE.FLAGS.WAIT THEN

   4291  1 000350   200015 471500                    LDP1    CACHE$,,AUTO
         1 000351   100004 236100                    LDQ     4,,PR1
         1 000352   000004 316007                    CANQ    4,DL
PL6.E3A0      #006=FMC$GET File=FMC$CACHE.:E05TSI                                TUE 07/29/97 16:40 Page:202
         1 000353   000364 600000 1                  TZE     s:4293

      920     4292    1             CALL SSR$RUE(%SS_UQC, FMC$CACHE.USER);

   4292  1 000354   200015 236100                    LDQ     CACHE$,,AUTO
         1 000355   000014 036000 2                  ADLQ    12
         1 000356   000015 235000 2                  LDA     13
         1 000357   200032 757100                    STAQ    @ERR+1,,AUTO
         1 000360   200032 630500                    EPPR0   @ERR+1,,AUTO
         1 000361   000020 631400 xsym               EPPR1   B_VECTNIL+16
         1 000362   000000 701000 xent               TSX1    SSR$RUE
         1 000363   000000 011000                    NOP     0

      921     4293    1          ALTRETURN;

   4293  1 000364   000000 702200 xent               TSX2  ! X66_AALT

      922     4294    1   NOCACHE: FLAG=0;

   4294  1 000365   200006 470500       NOCACHE      LDP0    @FLAG,,AUTO
         1 000366   000000 450100                    STZ     0,,PR0

      923     4295               %UNLOCK(G=FMC_LOCK);

   4296  1 000367   000000 630400 2                  EPPR0   0
         1 000370   000017 631400 xsym               EPPR1   B_VECTNIL+15
         1 000371   000000 701000 xent               TSX1    HFC$UNLOCK
         1 000372   000000 011000                    NOP     0

      924     4298    1          RETURN;

   4298  1 000373   000000 702200 xent               TSX2  ! X66_ARET

      925     4299               %EJECT;
PL6.E3A0      #006=FMC$GET File=FMC$CACHE.:E05TSI                                TUE 07/29/97 16:40 Page:203
      926     4300        /*I*     NAME:     CHECK_CACHE
      927     4301                 PURPOSE:  To check to see if a page we want is already in
      928     4302                           the cache table.
      929     4303
      930     4304                 DESCRIPTION:
      931     4305
      932     4306                      Check all four entries in the row that we hashed to.
      933     4307                 If we didn't find it, then set the flag to zero, and return.
      934     4308
      935     4309                      If the usecount is zero, then remove the page from the
      936     4310                 linked list.
      937     4311
      938     4312                      If we are still actually reading the page, then call
      939     4313                 the scheduler routines to REG the user.  When we wake up
      940     4314                 do a quick check to see if everything is okay.
      941     4315
      942     4316                      If the NOCACHE flag is zero, then map the user onto
      943     4317                 the page.  If the NOCACHE flag is set, then the caller
      944     4318                 actually wants a copy of the granule that he can muck with.
      945     4319                 Get another page and make a copy of the granule that won't
      946     4320                 be the the cache table.
      947     4321        */
      948     4322                 %EJECT;
PL6.E3A0      #006=FMC$GET File=FMC$CACHE.:E05TSI                                TUE 07/29/97 16:40 Page:204
      949     4323    1   CHECK_CACHE: PROC(FLAG);

   4323  1 000374   200030 741300       CHECK_CACHE  STX1  ! NOCACHE+1,,AUTO

      950     4324    2          DCL FLAG SBIN;
      951     4325        /* */
      952     4326               %LOCK(G=FMC_LOCK);

   4327  1 000375   000000 630400 2                  EPPR0   0
         1 000376   000017 631400 xsym               EPPR1   B_VECTNIL+15
         1 000377   000000 701000 xent               TSX1    HFC$LOCK
         1 000400   000000 011000                    NOP     0

      953     4329    2          I=0;

   4329  1 000401   200013 450100                    STZ     I,,AUTO

      954     4330    3          DO WHILE (I <= 3 AND

   4330  1 000402   000404 710000 1                  TRA     s:4335

      955     4331    3             (FMC$CACHETBL.SRDA(HASH+I) ~= SRDA OR
      956     4332    3              FMC$CACHETBL.SETX(HASH+I) ~= SETX OR
      957     4333    3              FMC$CACHETBL.FLAGS.ERR(HASH+I)));
      958     4334    3             I=I+1;

   4334  1 000403   200013 054100                    AOS     I,,AUTO

      959     4335    3          END;  /* WHILE */

   4335  1 000404   200013 235100                    LDA     I,,AUTO
         1 000405   000003 115007                    CMPA    3,DL
         1 000406   000434 605400 1                  TPNZ    s:4337
         1 000407   200012 236100                    LDQ     HASH,,AUTO
         1 000410   200013 036100                    ADLQ    I,,AUTO
         1 000411   000006 402007                    MPY     6,DL
         1 000412   000000 470400 xsym               LDP0    FMC_CACHE$
PL6.E3A0      #006=FMC$GET File=FMC$CACHE.:E05TSI                                TUE 07/29/97 16:40 Page:205
         1 000413   000000 236106                    LDQ     0,QL,PR0
         1 000414   000032 376000 xsym               ANQ     B_VECTNIL+26
         1 000415   200010 116100                    CMPQ    SRDA,,AUTO
         1 000416   000403 601000 1                  TNZ     s:4334
         1 000417   200012 236100                    LDQ     HASH,,AUTO
         1 000420   200013 036100                    ADLQ    I,,AUTO
         1 000421   000006 402007                    MPY     6,DL
         1 000422   000004 236106                    LDQ     4,QL,PR0
         1 000423   000022 772000                    QRL     18
         1 000424   200021 116100                    CMPQ    SETX,,AUTO
         1 000425   000403 601000 1                  TNZ     s:4334
         1 000426   200012 236100                    LDQ     HASH,,AUTO
         1 000427   200013 036100                    ADLQ    I,,AUTO
         1 000430   000006 402007                    MPY     6,DL
         1 000431   000004 236106                    LDQ     4,QL,PR0
         1 000432   000002 316007                    CANQ    2,DL
         1 000433   000403 601000 1                  TNZ     s:4334

      960     4336
      961     4337    2          IF FMC$CACHETBL.SRDA(HASH+I) ~= SRDA OR

   4337  1 000434   200012 236100                    LDQ     HASH,,AUTO
         1 000435   200013 036100                    ADLQ    I,,AUTO
         1 000436   000006 402007                    MPY     6,DL
         1 000437   000000 470400 xsym               LDP0    FMC_CACHE$
         1 000440   000000 236106                    LDQ     0,QL,PR0
         1 000441   000032 376000 xsym               ANQ     B_VECTNIL+26
         1 000442   200010 116100                    CMPQ    SRDA,,AUTO
         1 000443   000461 601000 1                  TNZ     s:4342
         1 000444   200012 236100                    LDQ     HASH,,AUTO
         1 000445   200013 036100                    ADLQ    I,,AUTO
         1 000446   000006 402007                    MPY     6,DL
         1 000447   000004 236106                    LDQ     4,QL,PR0
         1 000450   000022 772000                    QRL     18
         1 000451   200021 116100                    CMPQ    SETX,,AUTO
         1 000452   000461 601000 1                  TNZ     s:4342
         1 000453   200012 236100                    LDQ     HASH,,AUTO
PL6.E3A0      #006=FMC$GET File=FMC$CACHE.:E05TSI                                TUE 07/29/97 16:40 Page:206
         1 000454   200013 036100                    ADLQ    I,,AUTO
         1 000455   000006 402007                    MPY     6,DL
         1 000456   000004 236106                    LDQ     4,QL,PR0
         1 000457   000002 316007                    CANQ    2,DL
         1 000460   000471 600000 1                  TZE     s:4348

      962     4338    2             FMC$CACHETBL.SETX(HASH+I) ~= SETX OR
      963     4339    2             FMC$CACHETBL.FLAGS.ERR(HASH+I) THEN
      964     4340    3             DO;   /* NOT FOUND */

      965     4341                  %UNLOCK(G=FMC_LOCK);

   4342  1 000461   000000 630400 2                  EPPR0   0
         1 000462   000017 631400 xsym               EPPR1   B_VECTNIL+15
         1 000463   000000 701000 xent               TSX1    HFC$UNLOCK
         1 000464   000000 011000                    NOP     0

      966     4344    3             FLAG=0;

   4344  1 000465   200031 470500                    LDP0    @FLAG,,AUTO
         1 000466   000000 450100                    STZ     0,,PR0

      967     4345    3             RETURN;

   4345  1 000467   200030 221300                    LDX1  ! NOCACHE+1,,AUTO
         1 000470   000001 702211                    TSX2  ! 1,X1

      968     4346    3             END;  /* NOT FOUND */
      969     4347
      970     4348    2          HASH=HASH+I;

   4348  1 000471   200012 236100                    LDQ     HASH,,AUTO
         1 000472   200013 036100                    ADLQ    I,,AUTO
         1 000473   200012 756100                    STQ     HASH,,AUTO

      971     4349    2          CACHE$=ADDR(FMC$CACHETBL(HASH));

PL6.E3A0      #006=FMC$GET File=FMC$CACHE.:E05TSI                                TUE 07/29/97 16:40 Page:207
   4349  1 000474   000006 402003                    MPY     6,DU
         1 000475   000000 036000 xsym               ADLQ    FMC_CACHE$
         1 000476   200015 756100                    STQ     CACHE$,,AUTO

      972     4350
      973     4351    2          IF FMC$CACHE.TYPE ~= TYPE THEN

   4351  1 000477   200015 471500                    LDP1    CACHE$,,AUTO
         1 000500   100000 236100                    LDQ     0,,PR1
         1 000501   000033 772000                    QRL     27
         1 000502   200016 116100                    CMPQ    TYPE,,AUTO
         1 000503   000521 600000 1                  TZE     s:4361

      974     4352    3             DO;  /* Keep stats for type we found */

      975     4353                  /* ACS=BLOCK reads (e.g., from EFT) could cause types of
      976     4354                  Keyed, Indexed, or IREL files to be set differently than
      977     4355                  usual since F$DCB.LVL would probably be 0.              */
      978     4356    3             FMC$STATS.ATTGET(TYPE)=FMC$STATS.ATTGET(TYPE)-1;

   4356  1 000504   000000 473400 xsym               LDP3    FMC_STATS$
         1 000505   200016 720100                    LXL0    TYPE,,AUTO
         1 000506   000001 336007                    LCQ     1,DL
         1 000507   300041 056110                    ASQ     33,X0,PR3

      979     4357    3             TYPE=FMC$CACHE.TYPE;

   4357  1 000510   200015 470500                    LDP0    CACHE$,,AUTO
         1 000511   000000 236100                    LDQ     0,,PR0
         1 000512   000033 772000                    QRL     27
         1 000513   200016 756100                    STQ     TYPE,,AUTO

      980     4358    3             FMC$STATS.ATTGET(TYPE)=FMC$STATS.ATTGET(TYPE)+1;

   4358  1 000514   000000 471400 xsym               LDP1    FMC_STATS$
         1 000515   200016 720100                    LXL0    TYPE,,AUTO
         1 000516   100041 235106                    LDA     33,QL,PR1
PL6.E3A0      #006=FMC$GET File=FMC$CACHE.:E05TSI                                TUE 07/29/97 16:40 Page:208
         1 000517   000001 035007                    ADLA    1,DL
         1 000520   100041 755110                    STA     33,X0,PR1

      981     4359    3             END; /* Keep stats for type we found */

      982     4360
      983     4361    2          IF FMC$CACHE.USECNT = 0 THEN

   4361  1 000521   200015 470500                    LDP0    CACHE$,,AUTO
         1 000522   000002 720100                    LXL0    2,,PR0
         1 000523   000536 601000 1                  TNZ     s:4367

      984     4362    3             DO;

      985     4363    3             FMC$STATS.HITZERO(TYPE)=FMC$STATS.HITZERO(TYPE)+1;

   4363  1 000524   000000 471400 xsym               LDP1    FMC_STATS$
         1 000525   200016 721100                    LXL1    TYPE,,AUTO
         1 000526   100000 054111                    AOS     0,X1,PR1

      986     4364    3             CALL FMC$REMOVE(HASH);

   4364  1 000527   200012 630500                    EPPR0   HASH,,AUTO
         1 000530   200032 450500                    STP0    @ERR+1,,AUTO
         1 000531   200032 630500                    EPPR0   @ERR+1,,AUTO
         1 000532   000017 631400 xsym               EPPR1   B_VECTNIL+15
         1 000533   000000 701000 xent               TSX1    FMC$REMOVE
         1 000534   000000 011000                    NOP     0

      987     4365    3             END;

   4365  1 000535   000541 710000 1                  TRA     s:4369

      988     4366    2          ELSE
      989     4367    2             FMC$STATS.HITNONZERO(TYPE)=FMC$STATS.HITNONZERO(TYPE)+1;

   4367  1 000536   000000 471400 xsym               LDP1    FMC_STATS$
PL6.E3A0      #006=FMC$GET File=FMC$CACHE.:E05TSI                                TUE 07/29/97 16:40 Page:209
         1 000537   200016 721100                    LXL1    TYPE,,AUTO
         1 000540   100013 054111                    AOS     11,X1,PR1

      990     4368
      991     4369    2          FMC$CACHE.USECNT=FMC$CACHE.USECNT+1;

   4369  1 000541   200015 470500                    LDP0    CACHE$,,AUTO
         1 000542   000002 720100                    LXL0    2,,PR0
         1 000543   000001 621010                    EAX1    1,X0
         1 000544   000002 441100                    SXL1    2,,PR0

      992     4370
      993     4371    2          IF FMC$CACHE.FLAGS.IO THEN

   4371  1 000545   200015 470500                    LDP0    CACHE$,,AUTO
         1 000546   000004 236100                    LDQ     4,,PR0
         1 000547   000010 316007                    CANQ    8,DL
         1 000550   000640 600000 1                  TZE     s:4396

      994     4372    3             DO;   /* WE GOTTA WAIT */

      995     4373    3             USER=FMC$CACHE.USER;

   4373  1 000551   000004 236100                    LDQ     4,,PR0
         1 000552   000011 772000                    QRL     9
         1 000553   000777 376007                    ANQ     511,DL
         1 000554   000033 736000                    QLS     27
         1 000555   200023 756100                    STQ     USER,,AUTO

      996     4374    3             IF USER = 0 THEN

   4374  1 000556   200023 236100                    LDQ     USER,,AUTO
         1 000557   777000 316003                    CANQ    -512,DU
         1 000560   000567 601000 1                  TNZ     s:4379

      997     4375    4                DO;   /* FIRST ONE TO WAIT */

PL6.E3A0      #006=FMC$GET File=FMC$CACHE.:E05TSI                                TUE 07/29/97 16:40 Page:210
      998     4376    4                FMC$CACHE.USER=S_CUN;

   4376  1 000561   000000 236000 xsym               LDQ     S_CUN
         1 000562   000011 736000                    QLS     9
         1 000563   000004 552110                    STBQ    4,'10'O,PR0

      999     4377    4                FMC$CACHE.FLAGS.WAIT='1'B;

   4377  1 000564   200015 470500                    LDP0    CACHE$,,AUTO
         1 000565   000004 236007                    LDQ     4,DL
         1 000566   000004 256100                    ORSQ    4,,PR0

     1000     4378    4                END;  /* FIRST ONE TO WAIT */

     1001     4379    3             CALL SSR$REG(%SS_QC, USER, FMC_LOCK);

   4379  1 000567   000000 236000 2                  LDQ     0
         1 000570   200034 756100                    STQ     @ERR+3,,AUTO
         1 000571   200023 630500                    EPPR0   USER,,AUTO
         1 000572   200033 450500                    STP0    @ERR+2,,AUTO
         1 000573   000017 236000 2                  LDQ     15
         1 000574   200032 756100                    STQ     @ERR+1,,AUTO
         1 000575   200032 630500                    EPPR0   @ERR+1,,AUTO
         1 000576   000021 631400 xsym               EPPR1   B_VECTNIL+17
         1 000577   000000 701000 xent               TSX1    SSR$REG
         1 000600   000000 011000                    NOP     0

     1002     4380                  %LOCK(G=FMC_LOCK);

   4381  1 000601   000000 630400 2                  EPPR0   0
         1 000602   000017 631400 xsym               EPPR1   B_VECTNIL+15
         1 000603   000000 701000 xent               TSX1    HFC$LOCK
         1 000604   000000 011000                    NOP     0

     1003     4383    3             IF FMC$CACHE.FLAGS.ERR OR FMC$CACHE.FLAGS.IO THEN

   4383  1 000605   200015 470500                    LDP0    CACHE$,,AUTO
PL6.E3A0      #006=FMC$GET File=FMC$CACHE.:E05TSI                                TUE 07/29/97 16:40 Page:211
         1 000606   000004 236100                    LDQ     4,,PR0
         1 000607   000002 316007                    CANQ    2,DL
         1 000610   000613 601000 1                  TNZ     s:4386
         1 000611   000010 316007                    CANQ    8,DL
         1 000612   000640 600000 1                  TZE     s:4396

     1004     4384    4                DO;

     1005     4385                     %UNLOCK(G=FMC_LOCK);

   4386  1 000613   000000 630400 2                  EPPR0   0
         1 000614   000017 631400 xsym               EPPR1   B_VECTNIL+15
         1 000615   000000 701000 xent               TSX1    HFC$UNLOCK
         1 000616   000000 011000                    NOP     0

     1006     4388    4                FLAG=0;

   4388  1 000617   200031 470500                    LDP0    @FLAG,,AUTO
         1 000620   000000 450100                    STZ     0,,PR0

     1007     4389    4                CALL FMD$FLSHBUF(BUFNUM);

   4389  1 000621   200004 630500                    EPPR0   @BUFNUM,,AUTO
         1 000622   000017 631400 xsym               EPPR1   B_VECTNIL+15
         1 000623   000000 701000 xent               TSX1    FMD$FLSHBUF
         1 000624   000000 011000                    NOP     0

     1008     4390    4                F$DCB.BFR1.CX(BUFNUM)=HASH;

   4390  1 000625   200004 470500                    LDP0    @BUFNUM,,AUTO
         1 000626   000000 235100                    LDA     0,,PR0
         1 000627   200012 720100                    LXL0    HASH,,AUTO
         1 000630   200007 471500                    LDP1    JDCB$,,AUTO
         1 000631   100122 440105                    SXL0    82,AL,PR1

     1009     4391    4                CALL FMC$RELCACHE(BUFNUM);

PL6.E3A0      #006=FMC$GET File=FMC$CACHE.:E05TSI                                TUE 07/29/97 16:40 Page:212
   4391  1 000632   200004 630500                    EPPR0   @BUFNUM,,AUTO
         1 000633   000017 631400 xsym               EPPR1   B_VECTNIL+15
         1 000634   000000 701000 xent               TSX1    FMC$RELCACHE
         1 000635   000000 011000                    NOP     0

     1010     4392    4                RETURN;

   4392  1 000636   200030 221300                    LDX1  ! NOCACHE+1,,AUTO
         1 000637   000001 702211                    TSX2  ! 1,X1

     1011     4393    4                END;
     1012     4394    3             END;  /* WE GOTTA WAIT */
     1013     4395
     1014     4396    2          IF NOCACHE = 0 THEN

   4396  1 000640   200027 235100                    LDA     NOCACHE,,AUTO
         1 000641   000711 601000 1                  TNZ     s:4411

     1015     4397    3             DO;   /* NORMAL */

     1016     4398                  %UNLOCK(G=FMC_LOCK);

   4399  1 000642   000000 630400 2                  EPPR0   0
         1 000643   000017 631400 xsym               EPPR1   B_VECTNIL+15
         1 000644   000000 701000 xent               TSX1    HFC$UNLOCK
         1 000645   000000 011000                    NOP     0

     1017     4401    3             CALL FMD$FLSHBUF(BUFNUM);

   4401  1 000646   200004 630500                    EPPR0   @BUFNUM,,AUTO
         1 000647   000017 631400 xsym               EPPR1   B_VECTNIL+15
         1 000650   000000 701000 xent               TSX1    FMD$FLSHBUF
         1 000651   000000 011000                    NOP     0

     1018     4402    3             F$DCB.BFR1.CX(BUFNUM)=HASH;

   4402  1 000652   200004 470500                    LDP0    @BUFNUM,,AUTO
PL6.E3A0      #006=FMC$GET File=FMC$CACHE.:E05TSI                                TUE 07/29/97 16:40 Page:213
         1 000653   000000 235100                    LDA     0,,PR0
         1 000654   200012 720100                    LXL0    HASH,,AUTO
         1 000655   200007 471500                    LDP1    JDCB$,,AUTO
         1 000656   100122 440105                    SXL0    82,AL,PR1

     1019     4403    3             NEWPP=FMC$CACHE.PAGE;

   4403  1 000657   200015 473500                    LDP3    CACHE$,,AUTO
         1 000660   300002 236100                    LDQ     2,,PR3
         1 000661   000022 772000                    QRL     18
         1 000662   200017 756100                    STQ     NEWPP,,AUTO

     1020     4404    3             CALL MMJ$MAPIOP(VPNO, NEWPP);

   4404  1 000663   200017 634500                    EPPR4   NEWPP,,AUTO
         1 000664   200033 454500                    STP4    @ERR+2,,AUTO
         1 000665   200020 635500                    EPPR5   VPNO,,AUTO
         1 000666   200032 455500                    STP5    @ERR+1,,AUTO
         1 000667   200032 630500                    EPPR0   @ERR+1,,AUTO
         1 000670   000020 631400 xsym               EPPR1   B_VECTNIL+16
         1 000671   000000 701000 xent               TSX1    MMJ$MAPIOP
         1 000672   000000 011000                    NOP     0

     1021     4405    3             F$DCB.BFR.BUFX(BUFNUM)=VPNO;

   4405  1 000673   200004 470500                    LDP0    @BUFNUM,,AUTO
         1 000674   000000 235100                    LDA     0,,PR0
         1 000675   200007 471500                    LDP1    JDCB$,,AUTO
         1 000676   200020 236100                    LDQ     VPNO,,AUTO
         1 000677   000033 736000                    QLS     27
         1 000700   100115 676105                    ERQ     77,AL,PR1
         1 000701   037000 376003                    ANQ     15872,DU
         1 000702   100115 656105                    ERSQ    77,AL,PR1

     1022     4406    3             F$DCB.BFR1.SIZ(BUFNUM)=1;

   4406  1 000703   000000 235100                    LDA     0,,PR0
PL6.E3A0      #006=FMC$GET File=FMC$CACHE.:E05TSI                                TUE 07/29/97 16:40 Page:214
         1 000704   100122 236105                    LDQ     82,AL,PR1
         1 000705   000001 376000 2                  ANQ     1
         1 000706   000001 276003                    ORQ     1,DU
         1 000707   100122 756105                    STQ     82,AL,PR1

     1023     4407    3             END;  /* NORMAL */

   4407  1 000710   001004 710000 1                  TRA     s:4429

     1024     4408    2          ELSE
     1025     4409    3             DO;   /* MAKE AN UNCACHED COPY */

     1026     4410                  %UNLOCK(G=FMC_LOCK);

   4411  1 000711   000000 630400 2                  EPPR0   0
         1 000712   000017 631400 xsym               EPPR1   B_VECTNIL+15
         1 000713   000000 701000 xent               TSX1    HFC$UNLOCK
         1 000714   000000 011000                    NOP     0

     1027     4413    3             CALL FMD$FLSHBUFNR(BUFNUM);

   4413  1 000715   200004 630500                    EPPR0   @BUFNUM,,AUTO
         1 000716   000017 631400 xsym               EPPR1   B_VECTNIL+15
         1 000717   000000 701000 xent               TSX1    FMD$FLSHBUFNR
         1 000720   000000 011000                    NOP     0

     1028     4414    3             CALL FMD$GETBUF(BUFNUM, 1, BUF$);

   4414  1 000721   200003 236100                    LDQ     @BUF$,,AUTO
         1 000722   200034 756100                    STQ     @ERR+3,,AUTO
         1 000723   000011 236000 2                  LDQ     9
         1 000724   200004 235100                    LDA     @BUFNUM,,AUTO
         1 000725   200032 757100                    STAQ    @ERR+1,,AUTO
         1 000726   200032 630500                    EPPR0   @ERR+1,,AUTO
         1 000727   000021 631400 xsym               EPPR1   B_VECTNIL+17
         1 000730   000000 701000 xent               TSX1    FMD$GETBUF
         1 000731   000000 011000                    NOP     0
PL6.E3A0      #006=FMC$GET File=FMC$CACHE.:E05TSI                                TUE 07/29/97 16:40 Page:215

     1029     4415                  %LOCK(G=FMC_LOCK);

   4416  1 000732   000000 630400 2                  EPPR0   0
         1 000733   000017 631400 xsym               EPPR1   B_VECTNIL+15
         1 000734   000000 701000 xent               TSX1    HFC$LOCK
         1 000735   000000 011000                    NOP     0

     1030     4418    3             B$LS$->B$MLNK.MISC=DESCINIT;

   4418  1 000736   000000 235000 0                  LDA     DESCINIT
         1 000737   000000 236003                    LDQ     0,DU
         1 000740   000000 470400 xsym               LDP0    B$LS$
         1 000741   000130 757100                    STAQ    88,,PR0

     1031     4419    3             B$LS$->B$MLNK.MISC.BASE=FMC$CACHE.PAGE*4096;

   4419  1 000742   200015 471500                    LDP1    CACHE$,,AUTO
         1 000743   100002 236100                    LDQ     2,,PR1
         1 000744   000006 772000                    QRL     6
         1 000745   000020 376000 2                  ANQ     16
         1 000746   000131 756100                    STQ     89,,PR0

     1032     4420    3             BUF$->BUFFER=B$MISC$->BUFFER;

   4420  1 000747   200003 473500                    LDP3    @BUF$,,AUTO
         1 000750   300000 474500                    LDP4    0,,PR3
         1 000751   000000 475400 xsym               LDP5    B$MISC$
         1 000752   010000 220003                    LDX0    4096,DU
         1 000753   040140 100540                    MLR     fill='040'O
         1 000754   500000 000010                    ADSC9   0,,PR5                   cn=0,n=*X0
         1 000755   400000 000010                    ADSC9   0,,PR4                   cn=0,n=*X0

     1033     4421    3             FMC$CACHE.USECNT=FMC$CACHE.USECNT-1;

   4421  1 000756   200015 470500                    LDP0    CACHE$,,AUTO
         1 000757   000002 721100                    LXL1    2,,PR0
PL6.E3A0      #006=FMC$GET File=FMC$CACHE.:E05TSI                                TUE 07/29/97 16:40 Page:216
         1 000760   777777 622011                    EAX2    -1,X1
         1 000761   000002 442100                    SXL2    2,,PR0

     1034     4422    3             IF FMC$CACHE.USECNT = 0 THEN

   4422  1 000762   200015 470500                    LDP0    CACHE$,,AUTO
         1 000763   000002 721100                    LXL1    2,,PR0
         1 000764   000773 601000 1                  TNZ     s:4424

     1035     4423    3                CALL FMC$ADD(HASH);

   4423  1 000765   200012 631500                    EPPR1   HASH,,AUTO
         1 000766   200032 451500                    STP1    @ERR+1,,AUTO
         1 000767   200032 630500                    EPPR0   @ERR+1,,AUTO
         1 000770   000017 631400 xsym               EPPR1   B_VECTNIL+15
         1 000771   000000 701000 xent               TSX1    FMC$ADD
         1 000772   000000 011000                    NOP     0

     1036     4424    3             F$DCB.BFR.CVM(BUFNUM)='0'B;

   4424  1 000773   200004 470500                    LDP0    @BUFNUM,,AUTO
         1 000774   000000 235100                    LDA     0,,PR0
         1 000775   200007 471500                    LDP1    JDCB$,,AUTO
         1 000776   000021 236000 2                  LDQ     17
         1 000777   100115 356105                    ANSQ    77,AL,PR1

     1037     4425                  %UNLOCK(G=FMC_LOCK);

   4426  1 001000   000000 630400 2                  EPPR0   0
         1 001001   000017 631400 xsym               EPPR1   B_VECTNIL+15
         1 001002   000000 701000 xent               TSX1    HFC$UNLOCK
         1 001003   000000 011000                    NOP     0

     1038     4428    3             END;  /* MAKE AN UNCACHED COPY */

     1039     4429    2          B$JIT.ACCESS.PACKS=B$JIT.ACCESS.PACKS+1;

PL6.E3A0      #006=FMC$GET File=FMC$CACHE.:E05TSI                                TUE 07/29/97 16:40 Page:217
   4429  1 001004   000000 470400 xsym               LDP0    B$JIT$
         1 001005   000327 054100                    AOS     215,,PR0

     1040     4430    2          FLAG=1;

   4430  1 001006   000001 235007                    LDA     1,DL
         1 001007   200031 471500                    LDP1    @FLAG,,AUTO
         1 001010   100000 755100                    STA     0,,PR1

     1041     4431
     1042     4432    2          RETURN;

   4432  1 001011   200030 221300                    LDX1  ! NOCACHE+1,,AUTO
         1 001012   000001 702211                    TSX2  ! 1,X1

     1043     4433    2          END CHECK_CACHE;
     1044     4434               %EJECT;
PL6.E3A0      #006=FMC$GET File=FMC$CACHE.:E05TSI                                TUE 07/29/97 16:40 Page:218
     1045     4435    1   LOGERR: PROC(ERR) ALTRET;

   4435  1 001013   200030 741300       LOGERR       STX1  ! NOCACHE+1,,AUTO

     1046     4436    2          DCL ERR SBIN;
     1047     4437        /* */
     1048     4438    2          FMC$CACHE.FLAGS.ERR='1'B;

   4438  1 001014   200015 470500                    LDP0    CACHE$,,AUTO
         1 001015   000002 236007                    LDQ     2,DL
         1 001016   000004 256100                    ORSQ    4,,PR0

     1049     4439    2          CALL FMB$ERRTYP(CODE);

   4439  1 001017   200025 630500                    EPPR0   CODE,,AUTO
         1 001020   200032 450500                    STP0    @ERR+1,,AUTO
         1 001021   200032 630500                    EPPR0   @ERR+1,,AUTO
         1 001022   000017 631400 xsym               EPPR1   B_VECTNIL+15
         1 001023   000000 701000 xent               TSX1    FMB$ERRTYP
         1 001024   000000 011000                    NOP     0

     1050     4440    2          IF ERR = 2 THEN

   4440  1 001025   200031 470500                    LDP0    @ERR,,AUTO
         1 001026   000000 235100                    LDA     0,,PR0
         1 001027   000002 115007                    CMPA    2,DL
         1 001030   001035 601000 1                  TNZ     s:4443

     1051     4441    2             MISC=BITBIN(N$REQ.TYC);

   4441  1 001031   200024 471500                    LDP1    Q$,,AUTO
         1 001032   100021 235100                    LDA     17,,PR1
         1 001033   200026 755100                    STA     MISC,,AUTO
         1 001034   001050 710000 1                  TRA     s:4448

     1052     4442    2          ELSE
     1053     4443    2             IF F$DCB.CFU$ = ADDR(NIL) THEN
PL6.E3A0      #006=FMC$GET File=FMC$CACHE.:E05TSI                                TUE 07/29/97 16:40 Page:219

   4443  1 001035   200007 471500                    LDP1    JDCB$,,AUTO
         1 001036   100066 236100                    LDQ     54,,PR1
         1 001037   000001 116000 xsym               CMPQ    B_VECTNIL+1
         1 001040   001044 601000 1                  TNZ     s:4446

     1054     4444    2                MISC=-1;

   4444  1 001041   000001 335007                    LCA     1,DL
         1 001042   200026 755100                    STA     MISC,,AUTO
         1 001043   001050 710000 1                  TRA     s:4448

     1055     4445    2             ELSE
     1056     4446    2                MISC=F$DCB.CFU$->FM$CFU.UGRANS;

   4446  1 001044   100066 473500                    LDP3    54,,PR1
         1 001045   300004 236100                    LDQ     4,,PR3
         1 001046   000032 376000 xsym               ANQ     B_VECTNIL+26
         1 001047   200026 756100                    STQ     MISC,,AUTO

     1057     4447
     1058     4448    2          CALL FMB$LOGERR(CODE, ERR, 8, SRDA, BUF$, 0, 1, 2, MISC,,Q$);

   4448  1 001050   200024 631500                    EPPR1   Q$,,AUTO
         1 001051   200044 451500                    STP1    @ERR+11,,AUTO
         1 001052   000001 236000 xsym               LDQ     B_VECTNIL+1
         1 001053   200043 756100                    STQ     @ERR+10,,AUTO
         1 001054   200026 633500                    EPPR3   MISC,,AUTO
         1 001055   200042 453500                    STP3    @ERR+9,,AUTO
         1 001056   000024 237000 2                  LDAQ    20
         1 001057   200040 757100                    STAQ    @ERR+7,,AUTO
         1 001060   000004 236000 2                  LDQ     4
         1 001061   200003 235100                    LDA     @BUF$,,AUTO
         1 001062   200036 757100                    STAQ    @ERR+5,,AUTO
         1 001063   200010 634500                    EPPR4   SRDA,,AUTO
         1 001064   200035 454500                    STP4    @ERR+4,,AUTO
         1 001065   000023 236000 2                  LDQ     19
PL6.E3A0      #006=FMC$GET File=FMC$CACHE.:E05TSI                                TUE 07/29/97 16:40 Page:220
         1 001066   200034 756100                    STQ     @ERR+3,,AUTO
         1 001067   200031 236100                    LDQ     @ERR,,AUTO
         1 001070   200033 756100                    STQ     @ERR+2,,AUTO
         1 001071   200025 635500                    EPPR5   CODE,,AUTO
         1 001072   200032 455500                    STP5    @ERR+1,,AUTO
         1 001073   200032 630500                    EPPR0   @ERR+1,,AUTO
         1 001074   000022 631400 2                  EPPR1   18
         1 001075   000000 701000 xent               TSX1    FMB$LOGERR
         1 001076   000000 011000                    NOP     0

     1059     4449
     1060     4450    2          IF Q$ ~= ADDR(NIL) THEN

   4450  1 001077   200024 236100                    LDQ     Q$,,AUTO
         1 001100   000001 116000 xsym               CMPQ    B_VECTNIL+1
         1 001101   001112 600000 1                  TZE     s:4455

     1061     4451    3             DO;

     1062     4452    3             CALL NIQ$REL(Q$);

   4452  1 001102   200024 630500                    EPPR0   Q$,,AUTO
         1 001103   200032 450500                    STP0    @ERR+1,,AUTO
         1 001104   200032 630500                    EPPR0   @ERR+1,,AUTO
         1 001105   000017 631400 xsym               EPPR1   B_VECTNIL+15
         1 001106   000000 701000 xent               TSX1    NIQ$REL
         1 001107   000000 011000                    NOP     0

     1063     4453    3             Q$=ADDR(NIL);

   4453  1 001110   000001 236000 xsym               LDQ     B_VECTNIL+1
         1 001111   200024 756100                    STQ     Q$,,AUTO

     1064     4454    3             END;

     1065     4455    2          IF CODE ~= %E$DI AND ERR = 2 THEN

PL6.E3A0      #006=FMC$GET File=FMC$CACHE.:E05TSI                                TUE 07/29/97 16:40 Page:221
   4455  1 001112   200025 235100                    LDA     CODE,,AUTO
         1 001113   000011 115007                    CMPA    9,DL
         1 001114   001123 600000 1                  TZE     s:4457
         1 001115   200031 470500                    LDP0    @ERR,,AUTO
         1 001116   000000 235100                    LDA     0,,PR0
         1 001117   000002 115007                    CMPA    2,DL
         1 001120   001123 601000 1                  TNZ     s:4457

     1066     4456    2             CODE=CODE-%E$MI+%E$MIIO;

   4456  1 001121   000007 236007                    LDQ     7,DL
         1 001122   200025 056100                    ASQ     CODE,,AUTO

     1067     4457    2          B$JIT.ERR=ERRWD;

   4457  1 001123   000006 236000 0                  LDQ     ERRWD
         1 001124   000000 470400 xsym               LDP0    B$JIT$
         1 001125   000012 756100                    STQ     10,,PR0

     1068     4458    2          B$JIT.ERR.CODE=CODE;

   4458  1 001126   200025 236100                    LDQ     CODE,,AUTO
         1 001127   000003 736000                    QLS     3
         1 001130   000012 676100                    ERQ     10,,PR0
         1 001131   377770 376007                    ANQ     131064,DL
         1 001132   000012 656100                    ERSQ    10,,PR0

     1069     4459    2          F$DCB.BFR.DA(BUFNUM)=SRDA;

   4459  1 001133   200004 471500                    LDP1    @BUFNUM,,AUTO
         1 001134   100000 235100                    LDA     0,,PR1
         1 001135   200007 473500                    LDP3    JDCB$,,AUTO
         1 001136   200010 236100                    LDQ     SRDA,,AUTO
         1 001137   300115 676105                    ERQ     77,AL,PR3
         1 001140   000032 376000 xsym               ANQ     B_VECTNIL+26
         1 001141   300115 656105                    ERSQ    77,AL,PR3

PL6.E3A0      #006=FMC$GET File=FMC$CACHE.:E05TSI                                TUE 07/29/97 16:40 Page:222
     1070     4460    2          CALL FMC$RELCACHE(BUFNUM);

   4460  1 001142   200004 630500                    EPPR0   @BUFNUM,,AUTO
         1 001143   000017 631400 xsym               EPPR1   B_VECTNIL+15
         1 001144   000000 701000 xent               TSX1    FMC$RELCACHE
         1 001145   000000 011000                    NOP     0

     1071     4461
     1072     4462    2          ALTRETURN;

   4462  1 001146   200030 221300                    LDX1  ! NOCACHE+1,,AUTO
         1 001147   000000 702211                    TSX2  ! 0,X1

DESCINIT
 Sect OctLoc
   0     000   001777 760002                                                    ....

ZAPBUF
 Sect OctLoc
   0     001   111111 111111   222222 222222   333333 333333   444444 444444    IIII............
   0     005   555555 555555                                                    ....

ERRWD
 Sect OctLoc
   0     006   061504 000002                                                    1...

(unnamed)
 Sect OctLoc
   2     000   000000 006000   777000 777777   000011 000000   000000 010000    ................
   2     004   000002 006000   000002 006000   000004 006000   000027 006000    ................
   2     010   000003 006000   000003 006000   777777 777767   000000 000046    ...............&
   2     014   000004 400000   000013 006000   000000 000045   000016 006000    ...........%....
   2     020   007777 770000   737777 777777   000013 000000   000012 006000    ................
   2     024   000003 006000   000004 006000                                    ........
     1073     4463    2          END LOGERR;
     1074     4464    1          END FMC$GET;
     1075     4465               %EOD;
PL6.E3A0      #006=FMC$GET File=FMC$CACHE.:E05TSI                                TUE 07/29/97 16:40 Page:223

PL6.E3A0      #006=FMC$GET File=FMC$CACHE.:E05TSI                                TUE 07/29/97 16:40 Page:224
--  Include file information  --

   B_MLSMAC_C.:E05TOU  is referenced.
   B_STRINGS_C.:E05TOU  is referenced.
   P_PMDAT_C.:E05TOU  is referenced.
   P_PMDAT_R.:E05TOU  cannot be made into a system file and is referenced.
   F$DCB.:E05TOU  is referenced.
   B$JIT_C.:E05TOU  is referenced.
   B$JIT.:E05TOU  cannot be made into a system file and is referenced.
   SS_SCHED_C.:E05TOU  is referenced.
   HF_LOCK_C.:E05TOU  cannot be made into a system file and is referenced.
   F_ERRORS_C.:E05TOU  is referenced.
   FM$MACROS.:E05TOU  is referenced.
   N$REQ.:E05TOU  is referenced.
   N_FC_C.:E05TOU  is referenced.
   FM_BUF_R.:E05TOU  cannot be made into a system file and is referenced.
   FM_DATA_R.:E05TOU  cannot be made into a system file and is referenced.
   FM_CNTRL_R.:E05TOU  cannot be made into a system file and is referenced.
   FM_CACHE_C.:E05TOU  is referenced.
   FM_CACHE_R.:E05TOU  cannot be made into a system file and is referenced.
      No diagnostics issued in procedure FMC$GET.
PL6.E3A0      #006=FMC$GET File=FMC$CACHE.:E05TSI                                TUE 07/29/97 16:40 Page:225

 **** Variables and constants ****

  ****  Section 000 RoData FMC$GET

  ****  Scalars and arrays  ****
OctLoc.c.b A Datatyp(siz) R M Lvl/name                 OctLoc.c.b A Datatyp(siz) R M Lvl/name

     0-0-0/b STRC        r     1 DESCINIT                   6-0-0/b STRC        r     1 ERRWD
     1-0-0/b BIT         r     1 ZAPBUF(0:4)

  ****  Auto variables  ****

  ****  Scalars and arrays  ****
OctLoc.c.b A Datatyp(siz) R M Lvl/name                 OctLoc.c.b A Datatyp(siz) R M Lvl/name

     3-0-0/w PTR         r     1 @BUF$                      4-0-0/w PTR         r     1 @BUFNUM
     5-0-0/w PTR         r     1 @DA                       31-0-0/w PTR         r     1 @ERR
     6-0-0/w PTR         r     1 @FLAG                     31-0-0/w PTR         r     1 @FLAG
    *0-0-0/w PTR         r     1 BUF$                      *0-0-0/w SBIN        r     1 BUFNUM
    15-0-0/w PTR         r     1 CACHE$                    25-0-0/w SBIN        r     1 CODE
    *0-0-0/w SBIN        r     1 DA                        *0-0-0/w SBIN        r     1 ERR
    *0-0-0/w SBIN        r     1 FLAG                      *0-0-0/w SBIN        r     1 FLAG
    11-0-0/w SBIN        r     1 GRANS                     12-0-0/w SBIN        r     1 HASH
    13-0-0/w SBIN        r     1 I                          7-0-0/w PTR         r     1 JDCB$
    26-0-0/w SBIN        r     1 MISC                      17-0-0/w SBIN        r     1 NEWPP
    27-0-0/w SBIN        r     1 NOCACHE                   22-0-0/w SBIN        r     1 PP
    24-0-0/w PTR         r     1 Q$                        21-0-0/w SBIN        r     1 SETX
    10-0-0/w SBIN        r     1 SRDA                      16-0-0/w SBIN        r     1 TYPE
    23-0-0/c UBIN(9)     r     1 USER                      20-0-0/w SBIN        r     1 VPNO

  ****  SYMREF variables  ****

  ****  Scalars and arrays  ****
OctLoc.c.b A Datatyp(siz) R M Lvl/name                 OctLoc.c.b A Datatyp(siz) R M Lvl/name

     0-0-0/w PTR         r     1 B$JIT$                     0-0-0/w PTR         r     1 B$LS$
     0-0-0/w PTR         r     1 B$MISC$                    0-0-0/w PTR         r     1 FM$BUF$(0:31)
PL6.E3A0      #006=FMC$GET File=FMC$CACHE.:E05TSI                                TUE 07/29/97 16:40 Page:226
     0-0-0/w PTR         r     1 FMC_CACHE$                 0-0-0/w PTR         r     1 FMC_CACHEPGCNT$
     0-0-0/w SBIN        r     1 FMC_CACHESIZ               0-0-0/b BIT (72)    r     1 FMC_LOCK
     0-0-0/b BIT         r     1 FMC_MASK                   0-0-0/w PTR         r     1 FMC_STATS$
     0-0-0/w UBIN        r     1 FM_SRZERO                  0-0-0/w PTR         r     1 P_RESOURCE$
     0-0-0/w UBIN        r     1 S_CUN

  ****  BASED and DCB variables  ****

  ****  Scalars and arrays  ****
OctLoc.c.b A Datatyp(siz) R M Lvl/name                 OctLoc.c.b A Datatyp(siz) R M Lvl/name

     0-0-0/d STRC(8856)  r     1 B$JIT                      0-0-0/d STRC(10368) r     1 B$MLNK
     0-0-0/c CHAR(4096)  r     1 BUFFER                     0-0-0/d ASTR(3528)  r     1 F$DCB
     0-0-0/w STRC(288)   r     1 FM$CFU                     0-0-0/w STRC(180)   r     1 FM$GRAN
     0-0-0/w STRC(216)   r     1 FMC$CACHE
     0-0-0/w STRC(216)   r     1 FMC$CACHETBL(0:0)
     0-0-0/w STRC(2376)  r     1 FMC$STATS                  0-0-0/d STRC(1080)  r     1 N$REQ
     0-0-0/w STRC(2268)  r     1 P_RESOURCE


   Procedure FMC$GET requires 616 words for executable code.
   Procedure FMC$GET requires 38 words of local(AUTO) storage.
PL6.E3A0      #006=FMC$GET File=FMC$CACHE.:E05TSI                                TUE 07/29/97 16:40 Page:227
          *** CROSS REFERENCE LISTING ***
**     DENOTES     IDENTIFIER DEFINITION
<<                 IDENTIFIER'S VALUE SET
>>                 IDENTIFIER'S VALUE USED
<>                 IDENTIFIER SET AND/OR USED
--                 IDENTIFIER REFERENCED
PL6.E3A0      #006=FMC$GET File=FMC$CACHE.:E05TSI                                TUE 07/29/97 16:40 Page:228
          MINI XREF LISTING

B$JIT.ACCESS.PACKS
      1714**DCL      4429<<ASSIGN   4429>>ASSIGN
B$JIT.CPFLAGS1.SLEAZE
      1540**DCL      1540--REDEF
B$JIT.DCB$
      1614**DCL      4215>>ASSIGN
B$JIT.ERR
      1446**DCL      4457<<ASSIGN
B$JIT.ERR.CODE
      1447**DCL      4458<<ASSIGN
B$JIT.ERR.MID
      1447**DCL      1447--REDEF
B$JIT.JRESPEAK
      1608**DCL      1609--REDEF
B$JIT.ORIGINATOR_PORT.FROM_CR
      1717**DCL      1717--REDEF    1718--REDEF
B$JIT.PNR
      1621**DCL      1621--REDEF
B$JIT.TSLINE
      1715**DCL      1716--REDEF
B$JIT$
      3182**DCL      1441--IMP-PTR  4215>>ASSIGN   4429>>ASSIGN   4429>>ASSIGN   4457>>ASSIGN   4458>>ASSIGN
B$LS$
      3184**DCL      4418>>ASSIGN   4419>>ASSIGN
B$MISC$
      3185**DCL      4420>>ASSIGN
B$MLNK.MISC
      3699**DCL      4418<<ASSIGN
B$MLNK.MISC.BASE
      3704**DCL      4419<<ASSIGN
BUF$
        31**DCL        30--PROC     3316--IMP-PTR  4205--ENTRY    4261<<ASSIGN   4262>>ASSIGN   4264<>CALL
PL6.E3A0      #006=FMC$GET File=FMC$CACHE.:E05TSI                                TUE 07/29/97 16:40 Page:229
      4414<>CALL     4420>>ASSIGN   4448<>CALL
BUFFER
      3187**DCL      4420<<ASSIGN   4420>>ASSIGN
BUFNUM
        32**DCL        30--PROC     4205--ENTRY    4253<>CALL     4257>>ASSIGN   4258>>ASSIGN   4259>>ASSIGN
      4260>>ASSIGN   4261>>ASSIGN   4389<>CALL     4390>>ASSIGN   4391<>CALL     4401<>CALL     4402>>ASSIGN
      4405>>ASSIGN   4406>>ASSIGN   4413<>CALL     4414<>CALL     4424>>ASSIGN   4459>>ASSIGN   4460<>CALL
CACHE$
      3195**DCL      3237--IMP-PTR  4236<>CALL     4238>>ASSIGN   4239>>ASSIGN   4240>>ASSIGN   4241>>ASSIGN
      4242>>ASSIGN   4255>>ASSIGN   4274>>ASSIGN   4276>>IF       4278>>CALL     4291>>IF       4292>>CALL
      4349<<ASSIGN   4351>>IF       4357>>ASSIGN   4361>>IF       4369>>ASSIGN   4369>>ASSIGN   4371>>IF
      4373>>ASSIGN   4376>>ASSIGN   4377>>ASSIGN   4383>>IF       4383>>IF       4403>>ASSIGN   4419>>ASSIGN
      4421>>ASSIGN   4421>>ASSIGN   4422>>IF       4438>>ASSIGN
CHECK_CACHE
      4323**PROC     4228--CALL
CODE
      3203**DCL      4439<>CALL     4448<>CALL     4455>>IF       4456<<ASSIGN   4456>>ASSIGN   4458>>ASSIGN
COMMON
      4206**LABEL    4204--GOTO
DA
        33**DCL        30--PROC     4205--ENTRY    4216>>IF       4217<>CALL     4219>>ASSIGN
DAERR
      4287**LABEL    4217--CALLALT
DESCINIT
      3173**DCL      4418>>ASSIGN
ERR
      4290**LABEL    4267--CALLALT
ERR IN PROCEDURE LOGERR
      4436**DCL      4435--PROC     4440>>IF       4448<>CALL     4455>>IF
ERR1
      4289**LABEL    4264--CALLALT
ERRWD
      3378**DCL      4457>>ASSIGN
F$DCB.ACTPOS
      3291**DCL      3291--REDEF
F$DCB.ARS
PL6.E3A0      #006=FMC$GET File=FMC$CACHE.:E05TSI                                TUE 07/29/97 16:40 Page:230
      3266**DCL      3266--REDEF
F$DCB.ATTR
      3284**DCL      3285--REDEF
F$DCB.BFR.BUFX
      3311**DCL      4257<<ASSIGN   4261>>ASSIGN   4405<<ASSIGN
F$DCB.BFR.CVM
      3311**DCL      4424<<ASSIGN
F$DCB.BFR.DA
      3311**DCL      4260<<ASSIGN   4459<<ASSIGN
F$DCB.BFR1.CX
      3312**DCL      4259<<ASSIGN   4390<<ASSIGN   4402<<ASSIGN
F$DCB.BFR1.SIZ
      3311**DCL      4258<<ASSIGN   4406<<ASSIGN
F$DCB.BORROW
      3299**DCL      3299--REDEF    3299--REDEF    3299--REDEF
F$DCB.CFU$
      3300**DCL      4443>>IF       4446>>ASSIGN
F$DCB.DCBNAME.L
      3313**DCL      3313--IMP-SIZ
F$DCB.EOMCHAR
      3270**DCL      3270--REDEF
F$DCB.FLDID
      3294**DCL      3294--REDEF
F$DCB.FORM$
      3288**DCL      3288--REDEF
F$DCB.FSECT
      3304**DCL      3304--REDEF
F$DCB.FSN
      3281**DCL      3281--REDEF    3281--REDEF    3282--REDEF
F$DCB.HEADER$
      3287**DCL      3287--REDEF
F$DCB.IXTNSIZE
      3285**DCL      3285--REDEF
F$DCB.LASTSTA$
      3275**DCL      3275--REDEF
F$DCB.LVL
PL6.E3A0      #006=FMC$GET File=FMC$CACHE.:E05TSI                                TUE 07/29/97 16:40 Page:231
      3300**DCL      3300--REDEF
F$DCB.NAME.C
      3275**DCL      3275--REDEF
F$DCB.NOEOF
      3296**DCL      3296--REDEF
F$DCB.NRECS
      3286**DCL      3286--REDEF
F$DCB.NRECX
      3305**DCL      3305--REDEF
F$DCB.OHDR
      3297**DCL      3297--REDEF
F$DCB.ORG
      3280**DCL      3280--REDEF
F$DCB.PRECNO
      3303**DCL      3303--REDEF
F$DCB.RCSZ
      3308**DCL      3308--REDEF
F$DCB.RES
      3276**DCL      3276--REDEF
F$DCB.SETX
      3288**DCL      3288--REDEF    4220>>ASSIGN   4241>>ASSIGN
F$DCB.TAB$
      3287**DCL      3288--REDEF
F$DCB.TDA
      3302**DCL      3302--REDEF
F$DCB.WSN
      3277**DCL      3277--REDEF
FAF$FRTOSR
      3166**DCL-ENT  4217--CALL
FLAG
        34**DCL        30--PROC     4205--ENTRY    4211<<ASSIGN   4228<>CALL     4230>>IF       4284<<ASSIGN
      4287<<ASSIGN   4290<<ASSIGN   4294<<ASSIGN
FLAG IN PROCEDURE CHECK_CACHE
      4324**DCL      4323--PROC     4344<<ASSIGN   4388<<ASSIGN   4430<<ASSIGN
FM$BUF$
       145**DCL      4261>>ASSIGN
PL6.E3A0      #006=FMC$GET File=FMC$CACHE.:E05TSI                                TUE 07/29/97 16:40 Page:232
FM$CFU.ACCTX
      3383**DCL      3383--REDEF
FM$CFU.UGRANS
      3384**DCL      4446>>ASSIGN
FM$GRAN
      3316**DCL      4262<<ASSIGN
FMB$ERRTYP
      3164**DCL-ENT  4439--CALL
FMB$LOGERR
      3165**DCL-ENT  4448--CALL
FMB$QUEUE
      3163**DCL-ENT  4264--CALL
FMC$ADD
      3169**DCL-ENT  4423--CALL
FMC$CACHE.FLAGS.ERR
      3252**DCL      4383>>IF       4438<<ASSIGN
FMC$CACHE.FLAGS.IO
      3250**DCL      4238<<ASSIGN   4274<<ASSIGN   4371>>IF       4383>>IF
FMC$CACHE.FLAGS.WAIT
      3251**DCL      4276>>IF       4291>>IF       4377<<ASSIGN
FMC$CACHE.PAGE
      3243**DCL      4255<<ASSIGN   4403>>ASSIGN   4419>>ASSIGN
FMC$CACHE.SETX
      3246**DCL      4241<<ASSIGN
FMC$CACHE.SRDA
      3240**DCL      4239<<ASSIGN
FMC$CACHE.TYPE
      3239**DCL      4242<<ASSIGN   4351>>IF       4357>>ASSIGN
FMC$CACHE.USECNT
      3244**DCL      4240<<ASSIGN   4361>>IF       4369<<ASSIGN   4369>>ASSIGN   4421<<ASSIGN   4421>>ASSIGN
      4422>>IF
FMC$CACHE.USER
      3247**DCL      4278<>CALL     4292<>CALL     4373>>ASSIGN   4376<<ASSIGN
FMC$CACHETBL
      3212**DCL      4349--ASSIGN
FMC$CACHETBL.FLAGS.ERR
PL6.E3A0      #006=FMC$GET File=FMC$CACHE.:E05TSI                                TUE 07/29/97 16:40 Page:233
      3229**DCL      4330>>DOWHILE  4337>>IF
FMC$CACHETBL.SETX
      3223**DCL      4330>>DOWHILE  4337>>IF
FMC$CACHETBL.SRDA
      3217**DCL      4330>>DOWHILE  4337>>IF
FMC$GETSLOT
      3168**DCL-ENT  4236--CALL
FMC$GETTYPE
      3167**DCL-ENT  4221--CALL
FMC$RELCACHE
      3171**DCL-ENT  4391--CALL     4460--CALL
FMC$REMOVE
      3170**DCL-ENT  4364--CALL
FMC$STATS.ATTGET
      3261**DCL      4222<<ASSIGN   4222>>ASSIGN   4356<<ASSIGN   4356>>ASSIGN   4358<<ASSIGN   4358>>ASSIGN
FMC$STATS.HITNONZERO
      3259**DCL      4367<<ASSIGN   4367>>ASSIGN
FMC$STATS.HITZERO
      3258**DCL      4363<<ASSIGN   4363>>ASSIGN
FMC_CACHE$
        44**DCL      3212--IMP-PTR  4330>>DOWHILE  4330>>DOWHILE  4330>>DOWHILE  4337>>IF       4337>>IF
      4337>>IF       4349>>ASSIGN
FMC_CACHEPGCNT$
        45**DCL        45--IMP-PTR    45--REDEF
FMC_CACHESIZ
        44**DCL      4209>>IF
FMC_LOCK
        46**DCL      4234<>CALL     4250<>CALL     4272<>CALL     4282<>CALL     4296<>CALL     4327<>CALL
      4342<>CALL     4379<>CALL     4381<>CALL     4386<>CALL     4399<>CALL     4411<>CALL     4416<>CALL
      4426<>CALL
FMC_MASK
        46**DCL      4225>>ASSIGN
FMC_STATS$
        44**DCL      3257--IMP-PTR  4222>>ASSIGN   4222>>ASSIGN   4356>>ASSIGN   4356>>ASSIGN   4358>>ASSIGN
      4358>>ASSIGN   4363>>ASSIGN   4363>>ASSIGN   4367>>ASSIGN   4367>>ASSIGN
FMD$FLSHBUF
PL6.E3A0      #006=FMC$GET File=FMC$CACHE.:E05TSI                                TUE 07/29/97 16:40 Page:234
      3160**DCL-ENT  4253--CALL     4389--CALL     4401--CALL
FMD$FLSHBUFNR
      3161**DCL-ENT  4413--CALL
FMD$GETBUF
      3162**DCL-ENT  4414--CALL
FM_SRZERO
       131**DCL      4216>>IF
GRANS
      3191**DCL      4217<>CALL
HASH
      3192**DCL      4225<<ASSIGN   4236<>CALL     4259>>ASSIGN   4330>>DOWHILE  4330>>DOWHILE  4330>>DOWHILE
      4337>>IF       4337>>IF       4337>>IF       4348<<ASSIGN   4348>>ASSIGN   4349>>ASSIGN   4364<>CALL
      4390>>ASSIGN   4402>>ASSIGN   4423<>CALL
HFC$LOCK
       885**DCL-ENT  4234--CALL     4272--CALL     4327--CALL     4381--CALL     4416--CALL
HFC$UNLOCK
       885**DCL-ENT  4250--CALL     4282--CALL     4296--CALL     4342--CALL     4386--CALL     4399--CALL
      4411--CALL     4426--CALL
I
      3193**DCL      4329<<ASSIGN   4330>>DOWHILE  4330>>DOWHILE  4330>>DOWHILE  4330>>DOWHILE  4334<<ASSIGN
      4334>>ASSIGN   4337>>IF       4337>>IF       4337>>IF       4348>>ASSIGN
JDCB$
      3189**DCL      3266--IMP-PTR  4215<<ASSIGN   4220>>ASSIGN   4241>>ASSIGN   4257>>ASSIGN   4258>>ASSIGN
      4259>>ASSIGN   4260>>ASSIGN   4261>>ASSIGN   4390>>ASSIGN   4402>>ASSIGN   4405>>ASSIGN   4406>>ASSIGN
      4424>>ASSIGN   4443>>IF       4446>>ASSIGN   4459>>ASSIGN
LOGERR
      4435**PROC     4267--CALL     4289--CALL
MISC
      3204**DCL      4441<<ASSIGN   4444<<ASSIGN   4446<<ASSIGN   4448<>CALL
MMJ$GIOP
      3155**DCL-ENT  4254--CALL
MMJ$MAPIOP
      3157**DCL-ENT  4256--CALL     4404--CALL
N$REQ.BUFADDR
      3337**DCL      3338--REDEF    3338--REDEF
N$REQ.DLA.DRELADDR
PL6.E3A0      #006=FMC$GET File=FMC$CACHE.:E05TSI                                TUE 07/29/97 16:40 Page:235
      3329**DCL      3329--REDEF
N$REQ.DVE.EOMCHAR
      3366**DCL      3367--REDEF
N$REQ.EAINFO
      3360**DCL      3360--REDEF
N$REQ.EAINFOX
      3360**DCL      3361--REDEF
N$REQ.EVNTINFO
      3361**DCL      3361--REDEF
N$REQ.STATUS
      3342**DCL      3348--REDEF
N$REQ.TYC
      3350**DCL      4266>>IF       4441>>ASSIGN
NEWPP
      3197**DCL      4403<<ASSIGN   4404<>CALL
NIQ$REL
      3159**DCL-ENT  4269--CALL     4452--CALL
NOCACHE
      4294**LABEL    4203<<ASSIGN   4206<<ASSIGN   4230>>IF       4236--CALLALT  4396>>IF
PP
      3200**DCL      4254<>CALL     4255>>ASSIGN   4256<>CALL
P_NSCPU
      2061**DCL      2062--REDEF
P_RESOURCE.RES
      1934**DCL      2001--REDEF
P_RESOURCE.RES.IOCACHE.CURRENT
      1963**DCL      4244<<ASSIGN   4244>>ASSIGN   4245>>IF       4247>>ASSIGN
P_RESOURCE.RES.IOCACHE.PEAK
      1964**DCL      4245>>IF       4247<<ASSIGN
P_RESOURCE$
      2014**DCL      1902--IMP-PTR  4244>>ASSIGN   4244>>ASSIGN   4245>>IF       4245>>IF       4247>>ASSIGN
      4247>>ASSIGN
P_UPTIME
      2050**DCL      2051--REDEF
Q$
      3202**DCL      3328--IMP-PTR  4263<<ASSIGN   4264<>CALL     4266>>IF       4268>>IF       4269<>CALL
PL6.E3A0      #006=FMC$GET File=FMC$CACHE.:E05TSI                                TUE 07/29/97 16:40 Page:236
      4441>>ASSIGN   4448<>CALL     4450>>IF       4452<>CALL     4453<<ASSIGN
SETX
      3199**DCL      4220<<ASSIGN   4225>>ASSIGN   4330>>DOWHILE  4337>>IF
SRDA
      3190**DCL      4217<>CALL     4219<<ASSIGN   4225>>ASSIGN   4236<>CALL     4239>>ASSIGN   4264<>CALL
      4330>>DOWHILE  4337>>IF       4448<>CALL     4459>>ASSIGN
SSR$REG
      3153**DCL-ENT  4379--CALL
SSR$RUE
      3154**DCL-ENT  4278--CALL     4292--CALL
S_CUN
      3183**DCL      4376>>ASSIGN
TYPE
      3196**DCL      4221<>CALL     4222>>ASSIGN   4222>>ASSIGN   4236<>CALL     4242>>ASSIGN   4351>>IF
      4356>>ASSIGN   4356>>ASSIGN   4357<<ASSIGN   4358>>ASSIGN   4358>>ASSIGN   4363>>ASSIGN   4363>>ASSIGN
      4367>>ASSIGN   4367>>ASSIGN
USER
      3201**DCL      4373<<ASSIGN   4374>>IF       4379<>CALL
VPNO
      3198**DCL      4256<>CALL     4257>>ASSIGN   4404<>CALL     4405>>ASSIGN
ZAPBUF
      3178**DCL      4262>>ASSIGN
PL6.E3A0      #006=FMC$GET File=FMC$CACHE.:E05TSI                                TUE 07/29/97 16:40 Page:237
              *** CROSS REFERENCE LISTING ***
    **     DENOTES     IDENTIFIER DEFINITION
    <<                 IDENTIFIER'S VALUE SET
    >>                 IDENTIFIER'S VALUE USED
    <>                 IDENTIFIER SET AND/OR USED
    --                 IDENTIFIER REFERENCED
PL6.E3A0      #006=FMC$GET File=FMC$CACHE.:E05TSI                                TUE 07/29/97 16:40 Page:238
              MINI UREF LISTING

F$CFU$     134**DCL
FM$SET$     135**DCL
FMC$CACHEPGCNT      45**DCL
FMC$GET      30**PROC
FMC$NOCACHE    4205**ENTRY
FMC_CACHEPGCNT      45**DCL
FMC_CACHEPGCNT$R      45**DCL
FMC_CACHESIZN      44**DCL
FMC_LIMITS     122**DCL
FMC_MASKTBL      46**DCL
FMC_TYPTBL$      44**DCL
FM_CFUWAIT     134**DCL
FM_CFUWGRB     134**DCL
FM_EOP     132**DCL
FM_FRMAX     131**DCL
FM_FRZERO     131**DCL
FM_GCT     135**DCL
FM_GIP     135**DCL
FM_GPSDA     132**DCL
FM_HASH     133**DCL
FM_MADSDA     132**DCL
FM_PADSDA     132**DCL
FM_SRMAX     131**DCL
FM_SYSACCTX     135**DCL
FM_SYSSETX     135**DCL
FM_TRUNC     133**DCL
FM_WRCMP     122**DCL
FM_WSQ     133**DCL
F_CWLK     134**DCL
F_CWUSER     134**DCL
F_DCBLOCK     133**DCL
MMJ$FBTOIOP    3156**DCL-ENT
PL6.E3A0      #006=FMC$GET File=FMC$CACHE.:E05TSI                                TUE 07/29/97 16:40 Page:239
MMJ$UNMAPIOP    3158**DCL-ENT
N    3194**DCL
NI_IOLEAPERS     122**DCL
P$IODATA    2015**DCL
P$TABLE    2024**DCL
PH_CPU_MOUSED    2079**DCL
PH_JIT_ENTRY    2075**DCL
PH_MOUSE_ENTRY    2071**DCL
PH_MOUSE_LOCK    2078**DCL
PH_MOUSE_USERS    2068**DCL
PH_MOUSE_USER_NUMBER    2080**DCL
PH_MUS_PAGES    2070**DCL
P_AUIS    2056**DCL
P_AVAIL_MEM    2063**DCL
P_AVGAVAIL_MEM    2064**DCL
P_AVGETMF    2053**DCL
P_AVGIOL    2055**DCL
P_AVGRT90    2052**DCL
P_CALCNT    2040**DCL
P_CALCOMP    2041**DCL
P_DCTXMAX    2057**DCL
P_ETMF    2034**DCL
P_GATE    2060**DCL
P_IOLOAD    2054**DCL
P_IOS    2049**DCL
P_NINTS    2035**DCL
P_NOW    2059**DCL
P_NSCPU_SBIN    2062**DCL
P_RT90    2036**DCL
P_RUE#    2032**DCL
P_SCHD#    2033**DCL
P_STARTUP    2037**DCL
P_STOPTIME    2058**DCL
P_S_MIDLTIME    2045**DCL
P_S_MIDLWIO    2046**DCL
P_S_MIDLWRES    2047**DCL
PL6.E3A0      #006=FMC$GET File=FMC$CACHE.:E05TSI                                TUE 07/29/97 16:40 Page:240
P_S_MIDLWRESIO    2048**DCL
P_S_MXEQTIME    2044**DCL
P_S_USRVTIME    2043**DCL
P_S_UXEQTIME    2042**DCL
P_UPTIME_SBIN    2051**DCL
P_USRVTIME    2039**DCL
P_UXEQTIME    2038**DCL
WORD_    2069**DCL

PL6.E3A0      #007=FMC$GETSLOT File=FMC$CACHE.:E05TSI                            TUE 07/29/97 16:41 Page:241
     1076        1        /*T***********************************************************/
     1077        2        /*T*                                                         */
     1078        3        /*T* Copyright (c) Bull HN Information Systems Inc., 1997    */
     1079        4        /*T*                                                         */
     1080        5        /*T***********************************************************/
     1081        6        /*D*     NAME:     FMC$GETSLOT
     1082        7                 PURPOSE:  To try to find a free slot in the specified row.
     1083        8
     1084        9                 INPUT:    HASH - Row number we are looking at.
     1085       10                           TYPE - Granule type we are looking at
     1086       11                 OUTPUT:   CACHE$ - Pointer to the cache table entry we
     1087       12                                found
     1088       13
     1089       14                 DESCRIPTION:
     1090       15
     1091       16                      Loop until we find a cache table entry that unused, or
     1092       17                 we hit the end of the row.
     1093       18
     1094       19                      We can't free an entry that someone is currently using.
     1095       20                 So we try to free the entry that has a usecount of zero that
     1096       21                 is "most expired", or "closest to expiring".
     1097       22
     1098       23                      If we found an entry, then free the old entry if one
     1099       24                 exists, and return.
     1100       25
     1101       26                      Otherwise, we failed, altreturn.
     1102       27        */
     1103       28                 %EJECT;
PL6.E3A0      #007=FMC$GETSLOT File=FMC$CACHE.:E05TSI                            TUE 07/29/97 16:41 Page:242
     1104       29        FMC$GETSLOT: PROC(HASH, TYPE, SRDA, CACHE$) ALTRET;
     1105       30    1          DCL HASH SBIN;
     1106       31    1          DCL TYPE SBIN;
     1107       32    1          DCL CACHE$ PTR;
     1108       33    1          DCL SRDA SBIN;
     1109       34        /* */
     1110       35               %INCLUDE FM_CACHE_R;
     1111       47               %INCLUDE FM_CACHE_C;
     1112      113               %INCLUDE FM_CNTRL_R;
     1113      122               %INCLUDE HF_LOCK_C;
     1114      136               %INCLUDE B$JIT;
     1115      739               %MACRO F$DCB(BASED=BASED);
     1116      740               %INCLUDE F$DCB;
     1117      789               %MEND;
     1118      790               %INCLUDE P_PMDAT_R;
     1119     1098        /* */
     1120     1099               %FMC$CACHE;
     1121     1122               %FMC$CACHE(FPTN=FMC$CACHE, ARRAY=NO, STCLASS="BASED(CACHE$)");
     1122     1145               %FMC$TYPTBL;
     1123     1150               %FMC$STATS;
     1124     1159               %F$DCB;
     1125     1209        /* */
     1126     1210    1          DCL SSS$SYSTIME ENTRY(1);
     1127     1211    1          DCL FMC$REMOVE ENTRY(1);
     1128     1212    1          DCL FMC$CLR1 ENTRY(1);
     1129     1213    1          DCL MMJ$FIOP ENTRY(1);
     1130     1214        /* */
     1131     1215    1          DCL B$JIT$ PTR SYMREF;
     1132     1216        /* */
     1133     1217    1          DCL CURTIME UBIN;
     1134     1218    1          DCL N SBIN;
     1135     1219    1          DCL I SBIN;
     1136     1220    1          DCL ETIME SBIN;
     1137     1221    1          DCL TEMPTIME SBIN;
     1138     1222    1          DCL PP SBIN;
     1139     1223        /* TEMPORARY FLAG */
     1140     1224    1          DCL FLAG STATIC SBIN INIT(0);
PL6.E3A0      #007=FMC$GETSLOT File=FMC$CACHE.:E05TSI                            TUE 07/29/97 16:41 Page:243
     1141     1225        /* */
     1142     1226    1          FMC$STATS.ATTPUT(TYPE)=FMC$STATS.ATTPUT(TYPE)+1;
     1143     1227    1          CALL SSS$SYSTIME(CURTIME);
     1144     1228
     1145     1229    2   CLR:   DO I=0 TO 3;
     1146     1230    2             IF FMC$CACHETBL.SRDA(HASH+I) = SRDA AND
     1147     1231    2                FMC$CACHETBL.SETX(HASH+I) = B$JIT.DCB$->F$DCB.SETX THEN
     1148     1232    3                DO;   /* CLEAR ENTRY OUT */
     1149     1233                     %UNLOCK(G=FMC_LOCK);
     1150     1236    3                CALL FMC$CLR1(SRDA);
     1151     1237                     %LOCK(G=FMC_LOCK);
     1152     1240    3                EXIT CLR;
     1153     1241    3                END;  /* CLEAR ENTRY OUT */
     1154     1242    2          END;  /* DO I */
     1155     1243
     1156     1244    1          N=-1;
     1157     1245    2   SRCH:  DO I=0 TO 3;
     1158     1246    2             IF FMC$CACHETBL.SRDA(HASH+I) = 0 THEN
     1159     1247    3                DO;   /* USE FIRST EMPTY SLOT */
     1160     1248    3                N=I;
     1161     1249    3                EXIT SRCH;
     1162     1250    3                END;  /* USE FIRST EMPTY SLOT */
     1163     1251    2             ELSE
     1164     1252    2                IF FMC$CACHETBL.USECNT(HASH+I) = 0 AND
     1165     1253    2                   NOT FMC$CACHETBL.FLAGS.BUFUP(HASH+I) THEN
     1166     1254    3                   DO;   /* TRY TO USE THE SLOT */
     1167     1255    3                   TEMPTIME=CURTIME-FMC$CACHETBL.AGE(HASH+I)-
     1168     1256    3                            FMC_LIMITS.EXPIRE(FMC$CACHETBL.TYPE(HASH+I));
     1169     1257    3                   IF N < 0 OR (N >= 0 AND TEMPTIME > ETIME) THEN
     1170     1258    4                      DO;   /* BEST GUESS */
     1171     1259    4                      N=I;
     1172     1260    4                      ETIME=TEMPTIME;
     1173     1261    4                      END;  /* BEST GUESS */
     1174     1262    3                   END;  /* TRY TO USE THE SLOT */
     1175     1263    2          END;  /* DO I */
     1176     1264
     1177     1265    1          IF N >= 0 THEN
PL6.E3A0      #007=FMC$GETSLOT File=FMC$CACHE.:E05TSI                            TUE 07/29/97 16:41 Page:244
     1178     1266    2             DO;   /* WE HAVE A WINNER */
     1179     1267    2             HASH=HASH+N;
     1180     1268    2             CACHE$=ADDR(FMC$CACHETBL(HASH));
     1181     1269    2             IF FMC$CACHE.SRDA > 0 THEN
     1182     1270    3                DO;   /* GET RID OF OLD ENTRY */
     1183     1271    3                CALL FMC$REMOVE(HASH);
     1184     1272    3                PP=FMC$CACHE.PAGE;
     1185     1273    3                CALL MMJ$FIOP(PP);
     1186     1274    3                FMC$CACHETBL(HASH)='0'B;
     1187     1275                     %DEC_COUNTER(ITEM=IOCACHE);
     1188     1281    3                END;  /* GET RID OF OLD ENTRY */
     1189     1282    2             RETURN;
     1190     1283    2             END;  /* WE HAVE A WINNER */
     1191     1284
     1192     1285    1          FMC$STATS.FAILED(TYPE)=FMC$STATS.FAILED(TYPE)+1;
     1193     1286    1          ALTRETURN;
     1194     1287    1          END FMC$GETSLOT;
     1195     1288               %EOD;

PL6.E3A0      #007=FMC$GETSLOT File=FMC$CACHE.:E05TSI                            TUE 07/29/97 16:41 Page:245
--  Include file information  --

   P_PMDAT_C.:E05TOU  is referenced.
   P_PMDAT_R.:E05TOU  cannot be made into a system file and is referenced.
   F$DCB.:E05TOU  is referenced.
   B$JIT_C.:E05TOU  is referenced.
   B$JIT.:E05TOU  cannot be made into a system file and is referenced.
   HF_LOCK_C.:E05TOU  cannot be made into a system file and is referenced.
   FM_CNTRL_R.:E05TOU  cannot be made into a system file and is referenced.
   FM_CACHE_C.:E05TOU  is referenced.
   FM_CACHE_R.:E05TOU  cannot be made into a system file and is referenced.
      No diagnostics issued in procedure FMC$GETSLOT.

   Procedure FMC$GETSLOT requires 152 words for executable code.
   Procedure FMC$GETSLOT requires 16 words of local(AUTO) storage.

PL6.E3A0      #007=FMC$GETSLOT File=FMC$CACHE.:E05TSI                            TUE 07/29/97 16:41 Page:246

 Object Unit name= FMC$GETSLOT                                File name= FMC$CACHE.:E05TOU
 UTS= JUL 29 '97 16:41:09.48 TUE                              Compiler= PL-6/E31         Sev=      00
 SharedLib= :SHARED_SYSTEM                                    Alt SharedLib=


    ****  Control sections  ****

 Sect   Type Bound  Init  Size OctSiz  Section name(segment info)
    0   Data  even  none     1      1  FMC$GETSLOT
    1   Proc  even  none   152    230  FMC$GETSLOT
    2  RoData even  none     1      1  FMC$GETSLOT

    ****  Entry defs  ****

                              Check   Calling
                             calling  sequence
  Sect OctLoc Primary Altret sequence   type   Parms  Name
     1      0   yes    yes     yes      Std        4  FMC$GETSLOT

  ****  Entry refs  ****

         Check        Calling
        calling       sequence
Altret sequence SRef   type   Args  Name
         yes           Std       1 SSS$SYSTIME
         yes           Std       1 HFC$UNLOCK
         yes           Std       1 FMC$CLR1
         yes           Std       1 HFC$LOCK
         yes           Std       1 FMC$REMOVE
         yes           Std       1 MMJ$FIOP
                       nStd      0 X66_AUTO_4
                       Std       0 B_CONSPOOL_D
                       nStd      0 X66_ARET
                       nStd      0 X66_AALT
PL6.E3A0      #007=FMC$GETSLOT File=FMC$CACHE.:E05TSI                            TUE 07/29/97 16:41 Page:247

  ****  Data refs  ****

  Flags:  r = read only, s = secondary
Flgs Name                             Flgs Name                             Flgs Name
     FMC_CACHE$                            FMC_TYPTBL$                           FMC_STATS$
     FMC_CACHEPGCNT$                       FMC_LOCK                              FMC_LIMITS
     P_RESOURCE$                           P_UPTIME                              P_NSCPU
     B$JIT$                                B_VECTNIL

  ****  Segment refs  ****

  Flags:  r = read only, s = secondary
Flgs Name                             Flgs Name                             Flgs Name
     ISSID
PL6.E3A0      #007=FMC$GETSLOT File=FMC$CACHE.:E05TSI                            TUE 07/29/97 16:41 Page:248


     1076        1        /*T***********************************************************/
     1077        2        /*T*                                                         */
     1078        3        /*T* Copyright (c) Bull HN Information Systems Inc., 1997    */
     1079        4        /*T*                                                         */
     1080        5        /*T***********************************************************/
     1081        6        /*D*     NAME:     FMC$GETSLOT
     1082        7                 PURPOSE:  To try to find a free slot in the specified row.
     1083        8
     1084        9                 INPUT:    HASH - Row number we are looking at.
     1085       10                           TYPE - Granule type we are looking at
     1086       11                 OUTPUT:   CACHE$ - Pointer to the cache table entry we
     1087       12                                found
     1088       13
     1089       14                 DESCRIPTION:
     1090       15
     1091       16                      Loop until we find a cache table entry that unused, or
     1092       17                 we hit the end of the row.
     1093       18
     1094       19                      We can't free an entry that someone is currently using.
     1095       20                 So we try to free the entry that has a usecount of zero that
     1096       21                 is "most expired", or "closest to expiring".
     1097       22
     1098       23                      If we found an entry, then free the old entry if one
     1099       24                 exists, and return.
     1100       25
     1101       26                      Otherwise, we failed, altreturn.
     1102       27        */
     1103       28                 %EJECT;
PL6.E3A0      #007=FMC$GETSLOT File=FMC$CACHE.:E05TSI                            TUE 07/29/97 16:41 Page:249
     1104       29        FMC$GETSLOT: PROC(HASH, TYPE, SRDA, CACHE$) ALTRET;

     29  1 000000   000000 700200 xent  FMC$GETSLOT  TSX0  ! X66_AUTO_4
         1 000001   000020 000004                    ZERO    16,4

     1105       30    1          DCL HASH SBIN;
     1106       31    1          DCL TYPE SBIN;
     1107       32    1          DCL CACHE$ PTR;
     1108       33    1          DCL SRDA SBIN;
     1109       34        /* */
     1110       35               %INCLUDE FM_CACHE_R;
     1111       47               %INCLUDE FM_CACHE_C;
     1112      113               %INCLUDE FM_CNTRL_R;
     1113      122               %INCLUDE HF_LOCK_C;
     1114      136               %INCLUDE B$JIT;
     1115      739               %MACRO F$DCB(BASED=BASED);
     1116      740               %INCLUDE F$DCB;
     1117      789               %MEND;
     1118      790               %INCLUDE P_PMDAT_R;
     1119     1098        /* */
     1120     1099               %FMC$CACHE;
     1121     1122               %FMC$CACHE(FPTN=FMC$CACHE, ARRAY=NO, STCLASS="BASED(CACHE$)");
     1122     1145               %FMC$TYPTBL;
     1123     1150               %FMC$STATS;
     1124     1159               %F$DCB;
     1125     1209        /* */
     1126     1210    1          DCL SSS$SYSTIME ENTRY(1);
     1127     1211    1          DCL FMC$REMOVE ENTRY(1);
     1128     1212    1          DCL FMC$CLR1 ENTRY(1);
     1129     1213    1          DCL MMJ$FIOP ENTRY(1);
     1130     1214        /* */
     1131     1215    1          DCL B$JIT$ PTR SYMREF;
     1132     1216        /* */
     1133     1217    1          DCL CURTIME UBIN;
     1134     1218    1          DCL N SBIN;
     1135     1219    1          DCL I SBIN;
     1136     1220    1          DCL ETIME SBIN;
PL6.E3A0      #007=FMC$GETSLOT File=FMC$CACHE.:E05TSI                            TUE 07/29/97 16:41 Page:250
     1137     1221    1          DCL TEMPTIME SBIN;
     1138     1222    1          DCL PP SBIN;
     1139     1223        /* TEMPORARY FLAG */
     1140     1224    1          DCL FLAG STATIC SBIN INIT(0);
     1141     1225        /* */
     1142     1226    1          FMC$STATS.ATTPUT(TYPE)=FMC$STATS.ATTPUT(TYPE)+1;

   1226  1 000002   200004 470500                    LDP0    @TYPE,,AUTO
         1 000003   000000 235100                    LDA     0,,PR0
         1 000004   000000 471400 xsym               LDP1    FMC_STATS$
         1 000005   100054 054105                    AOS     44,AL,PR1

     1143     1227    1          CALL SSS$SYSTIME(CURTIME);

   1227  1 000006   200007 631500                    EPPR1   CURTIME,,AUTO
         1 000007   200016 451500                    STP1    PP+2,,AUTO
         1 000010   200016 630500                    EPPR0   PP+2,,AUTO
         1 000011   000017 631400 xsym               EPPR1   B_VECTNIL+15
         1 000012   000000 701000 xent               TSX1    SSS$SYSTIME
         1 000013   000000 011000                    NOP     0

     1144     1228
     1145     1229    2   CLR:   DO I=0 TO 3;

   1229  1 000014   200011 450100       CLR          STZ     I,,AUTO

     1146     1230    2             IF FMC$CACHETBL.SRDA(HASH+I) = SRDA AND

   1230  1 000015   200003 470500                    LDP0    @HASH,,AUTO
         1 000016   000000 236100                    LDQ     0,,PR0
         1 000017   200011 036100                    ADLQ    I,,AUTO
         1 000020   200005 471500                    LDP1    @SRDA,,AUTO
         1 000021   000006 402007                    MPY     6,DL
         1 000022   000000 473400 xsym               LDP3    FMC_CACHE$
         1 000023   300000 236106                    LDQ     0,QL,PR3
         1 000024   000032 376000 xsym               ANQ     B_VECTNIL+26
         1 000025   100000 116100                    CMPQ    0,,PR1
PL6.E3A0      #007=FMC$GETSLOT File=FMC$CACHE.:E05TSI                            TUE 07/29/97 16:41 Page:251
         1 000026   000054 601000 1                  TNZ     s:1242
         1 000027   000000 236100                    LDQ     0,,PR0
         1 000030   200011 036100                    ADLQ    I,,AUTO
         1 000031   000000 474400 xsym               LDP4    B$JIT$
         1 000032   400232 475500                    LDP5    154,,PR4
         1 000033   500051 720100                    LXL0    41,,PR5
         1 000034   000006 402007                    MPY     6,DL
         1 000035   300004 100106                    CMPX0   4,QL,PR3
         1 000036   000054 601000 1                  TNZ     s:1242

     1147     1231    2                FMC$CACHETBL.SETX(HASH+I) = B$JIT.DCB$->F$DCB.SETX THEN
     1148     1232    3                DO;   /* CLEAR ENTRY OUT */

     1149     1233                     %UNLOCK(G=FMC_LOCK);

   1234  1 000037   000000 630400 2                  EPPR0   0
         1 000040   000017 631400 xsym               EPPR1   B_VECTNIL+15
         1 000041   000000 701000 xent               TSX1    HFC$UNLOCK
         1 000042   000000 011000                    NOP     0

     1150     1236    3                CALL FMC$CLR1(SRDA);

   1236  1 000043   200005 630500                    EPPR0   @SRDA,,AUTO
         1 000044   000017 631400 xsym               EPPR1   B_VECTNIL+15
         1 000045   000000 701000 xent               TSX1    FMC$CLR1
         1 000046   000000 011000                    NOP     0

     1151     1237                     %LOCK(G=FMC_LOCK);

   1238  1 000047   000000 630400 2                  EPPR0   0
         1 000050   000017 631400 xsym               EPPR1   B_VECTNIL+15
         1 000051   000000 701000 xent               TSX1    HFC$LOCK
         1 000052   000000 011000                    NOP     0

     1152     1240    3                EXIT CLR;

   1240  1 000053   000060 710000 1                  TRA     s:1244
PL6.E3A0      #007=FMC$GETSLOT File=FMC$CACHE.:E05TSI                            TUE 07/29/97 16:41 Page:252

     1153     1241    3                END;  /* CLEAR ENTRY OUT */
     1154     1242    2          END;  /* DO I */

   1242  1 000054   200011 054100                    AOS     I,,AUTO
         1 000055   200011 235100                    LDA     I,,AUTO
         1 000056   000003 115007                    CMPA    3,DL
         1 000057   000015 604400 1                  TMOZ    s:1230

     1155     1243
     1156     1244    1          N=-1;

   1244  1 000060   000001 335007                    LCA     1,DL
         1 000061   200010 755100                    STA     N,,AUTO

     1157     1245    2   SRCH:  DO I=0 TO 3;

   1245  1 000062   200011 450100       SRCH         STZ     I,,AUTO

     1158     1246    2             IF FMC$CACHETBL.SRDA(HASH+I) = 0 THEN

   1246  1 000063   200003 470500                    LDP0    @HASH,,AUTO
         1 000064   000000 236100                    LDQ     0,,PR0
         1 000065   200011 036100                    ADLQ    I,,AUTO
         1 000066   000006 402007                    MPY     6,DL
         1 000067   000000 471400 xsym               LDP1    FMC_CACHE$
         1 000070   100000 236106                    LDQ     0,QL,PR1
         1 000071   000032 316000 xsym               CANQ    B_VECTNIL+26
         1 000072   000076 601000 1                  TNZ     s:1252

     1159     1247    3                DO;   /* USE FIRST EMPTY SLOT */

     1160     1248    3                N=I;

   1248  1 000073   200011 235100                    LDA     I,,AUTO
         1 000074   200010 755100                    STA     N,,AUTO

PL6.E3A0      #007=FMC$GETSLOT File=FMC$CACHE.:E05TSI                            TUE 07/29/97 16:41 Page:253
     1161     1249    3                EXIT SRCH;

   1249  1 000075   000146 710000 1                  TRA     s:1265

     1162     1250    3                END;  /* USE FIRST EMPTY SLOT */
     1163     1251    2             ELSE
     1164     1252    2                IF FMC$CACHETBL.USECNT(HASH+I) = 0 AND

   1252  1 000076   000000 236100                    LDQ     0,,PR0
         1 000077   200011 036100                    ADLQ    I,,AUTO
         1 000100   000006 402007                    MPY     6,DL
         1 000101   100002 720106                    LXL0    2,QL,PR1
         1 000102   000142 601000 1                  TNZ     s:1263
         1 000103   000000 236100                    LDQ     0,,PR0
         1 000104   200011 036100                    ADLQ    I,,AUTO
         1 000105   000006 402007                    MPY     6,DL
         1 000106   100004 236106                    LDQ     4,QL,PR1
         1 000107   000001 316007                    CANQ    1,DL
         1 000110   000142 601000 1                  TNZ     s:1263

     1165     1253    2                   NOT FMC$CACHETBL.FLAGS.BUFUP(HASH+I) THEN
     1166     1254    3                   DO;   /* TRY TO USE THE SLOT */

     1167     1255    3                   TEMPTIME=CURTIME-FMC$CACHETBL.AGE(HASH+I)-

   1255  1 000111   000000 236100                    LDQ     0,,PR0
         1 000112   200011 036100                    ADLQ    I,,AUTO
         1 000113   000006 402007                    MPY     6,DL
         1 000114   000000 620006                    EAX0    0,QL
         1 000115   200007 236100                    LDQ     CURTIME,,AUTO
         1 000116   100005 136110                    SBLQ    5,X0,PR1
         1 000117   200016 756100                    STQ     PP+2,,AUTO
         1 000120   000000 236100                    LDQ     0,,PR0
         1 000121   200011 036100                    ADLQ    I,,AUTO
         1 000122   000006 402007                    MPY     6,DL
         1 000123   100000 236106                    LDQ     0,QL,PR1
         1 000124   000032 772000                    QRL     26
PL6.E3A0      #007=FMC$GETSLOT File=FMC$CACHE.:E05TSI                            TUE 07/29/97 16:41 Page:254
         1 000125   001776 376007                    ANQ     1022,DL
         1 000126   000000 620006                    EAX0    0,QL
         1 000127   200016 236100                    LDQ     PP+2,,AUTO
         1 000130   000000 136010 xsym               SBLQ    FMC_LIMITS,X0
         1 000131   200013 756100                    STQ     TEMPTIME,,AUTO

     1168     1256    3                            FMC_LIMITS.EXPIRE(FMC$CACHETBL.TYPE(HASH+I));
     1169     1257    3                   IF N < 0 OR (N >= 0 AND TEMPTIME > ETIME) THEN

   1257  1 000132   200010 235100                    LDA     N,,AUTO
         1 000133   000137 604000 1                  TMI     s:1259
         1 000134   000142 604000 1                  TMI     s:1263
         1 000135   200012 116100                    CMPQ    ETIME,,AUTO
         1 000136   000142 604400 1                  TMOZ    s:1263

     1170     1258    4                      DO;   /* BEST GUESS */

     1171     1259    4                      N=I;

   1259  1 000137   200011 235100                    LDA     I,,AUTO
         1 000140   200010 755100                    STA     N,,AUTO

     1172     1260    4                      ETIME=TEMPTIME;

   1260  1 000141   200012 756100                    STQ     ETIME,,AUTO

     1173     1261    4                      END;  /* BEST GUESS */

     1174     1262    3                   END;  /* TRY TO USE THE SLOT */

     1175     1263    2          END;  /* DO I */

   1263  1 000142   200011 054100                    AOS     I,,AUTO
         1 000143   200011 235100                    LDA     I,,AUTO
         1 000144   000003 115007                    CMPA    3,DL
         1 000145   000063 604400 1                  TMOZ    s:1246

PL6.E3A0      #007=FMC$GETSLOT File=FMC$CACHE.:E05TSI                            TUE 07/29/97 16:41 Page:255
     1176     1264
     1177     1265    1          IF N >= 0 THEN

   1265  1 000146   200010 236100                    LDQ     N,,AUTO
         1 000147   000223 604000 1                  TMI     s:1285

     1178     1266    2             DO;   /* WE HAVE A WINNER */

     1179     1267    2             HASH=HASH+N;

   1267  1 000150   000000 036100                    ADLQ    0,,PR0
         1 000151   000000 756100                    STQ     0,,PR0

     1180     1268    2             CACHE$=ADDR(FMC$CACHETBL(HASH));

   1268  1 000152   000006 402007                    MPY     6,DL
         1 000153   000022 736000                    QLS     18
         1 000154   000000 036000 xsym               ADLQ    FMC_CACHE$
         1 000155   200006 471500                    LDP1    @CACHE$,,AUTO
         1 000156   100000 756100                    STQ     0,,PR1

     1181     1269    2             IF FMC$CACHE.SRDA > 0 THEN

   1269  1 000157   100000 473500                    LDP3    0,,PR1
         1 000160   300000 236100                    LDQ     0,,PR3
         1 000161   000032 316000 xsym               CANQ    B_VECTNIL+26
         1 000162   000222 600000 1                  TZE     s:1282

     1182     1270    3                DO;   /* GET RID OF OLD ENTRY */

     1183     1271    3                CALL FMC$REMOVE(HASH);

   1271  1 000163   200003 630500                    EPPR0   @HASH,,AUTO
         1 000164   000017 631400 xsym               EPPR1   B_VECTNIL+15
         1 000165   000000 701000 xent               TSX1    FMC$REMOVE
         1 000166   000000 011000                    NOP     0

PL6.E3A0      #007=FMC$GETSLOT File=FMC$CACHE.:E05TSI                            TUE 07/29/97 16:41 Page:256
     1184     1272    3                PP=FMC$CACHE.PAGE;

   1272  1 000167   200006 470500                    LDP0    @CACHE$,,AUTO
         1 000170   000000 471500                    LDP1    0,,PR0
         1 000171   100002 236100                    LDQ     2,,PR1
         1 000172   000022 772000                    QRL     18
         1 000173   200014 756100                    STQ     PP,,AUTO

     1185     1273    3                CALL MMJ$FIOP(PP);

   1273  1 000174   200014 631500                    EPPR1   PP,,AUTO
         1 000175   200016 451500                    STP1    PP+2,,AUTO
         1 000176   200016 630500                    EPPR0   PP+2,,AUTO
         1 000177   000017 631400 xsym               EPPR1   B_VECTNIL+15
         1 000200   000000 701000 xent               TSX1    MMJ$FIOP
         1 000201   000000 011000                    NOP     0

     1186     1274    3                FMC$CACHETBL(HASH)='0'B;

   1274  1 000202   200003 470500                    LDP0    @HASH,,AUTO
         1 000203   000000 236100                    LDQ     0,,PR0
         1 000204   000006 402007                    MPY     6,DL
         1 000205   000002 736000                    QLS     2
         1 000206   000000 471400 xsym               LDP1    FMC_CACHE$
         1 000207   000106 100400                    MLR     fill='000'O
         1 000210   000002 000001 xsym               ADSC9   B_VECTNIL+2              cn=0,n=1
         1 000211   100000 000030                    ADSC9   0,Q,PR1                  cn=0,n=24

     1187     1275                     %DEC_COUNTER(ITEM=IOCACHE);

   1276  1 000212   000000 471400 xsym               LDP1    P_RESOURCE$
         1 000213   100055 235100                    LDA     45,,PR1
         1 000214   000001 135007                    SBLA    1,DL
         1 000215   100055 755100                    STA     45,,PR1

   1277  1 000216   100055 236100                    LDQ     45,,PR1
         1 000217   100057 116100                    CMPQ    47,,PR1
PL6.E3A0      #007=FMC$GETSLOT File=FMC$CACHE.:E05TSI                            TUE 07/29/97 16:41 Page:257
         1 000220   000222 603000 1                  TRC     s:1282

   1279  1 000221   100057 756100                    STQ     47,,PR1

     1188     1281    3                END;  /* GET RID OF OLD ENTRY */

     1189     1282    2             RETURN;

   1282  1 000222   000000 702200 xent               TSX2  ! X66_ARET

     1190     1283    2             END;  /* WE HAVE A WINNER */
     1191     1284
     1192     1285    1          FMC$STATS.FAILED(TYPE)=FMC$STATS.FAILED(TYPE)+1;

   1285  1 000223   200004 473500                    LDP3    @TYPE,,AUTO
         1 000224   300000 235100                    LDA     0,,PR3
         1 000225   000000 474400 xsym               LDP4    FMC_STATS$
         1 000226   400026 054105                    AOS     22,AL,PR4

     1193     1286    1          ALTRETURN;

   1286  1 000227   000000 702200 xent               TSX2  ! X66_AALT

(unnamed)
 Sect OctLoc
   0     000   000000 000000                                                    ....

(unnamed)
 Sect OctLoc
   2     000   000000 006000                                                    ....
     1194     1287    1          END FMC$GETSLOT;
     1195     1288               %EOD;

PL6.E3A0      #007=FMC$GETSLOT File=FMC$CACHE.:E05TSI                            TUE 07/29/97 16:41 Page:258
--  Include file information  --

   P_PMDAT_C.:E05TOU  is referenced.
   P_PMDAT_R.:E05TOU  cannot be made into a system file and is referenced.
   F$DCB.:E05TOU  is referenced.
   B$JIT_C.:E05TOU  is referenced.
   B$JIT.:E05TOU  cannot be made into a system file and is referenced.
   HF_LOCK_C.:E05TOU  cannot be made into a system file and is referenced.
   FM_CNTRL_R.:E05TOU  cannot be made into a system file and is referenced.
   FM_CACHE_C.:E05TOU  is referenced.
   FM_CACHE_R.:E05TOU  cannot be made into a system file and is referenced.
      No diagnostics issued in procedure FMC$GETSLOT.
PL6.E3A0      #007=FMC$GETSLOT File=FMC$CACHE.:E05TSI                            TUE 07/29/97 16:41 Page:259

 **** Variables and constants ****

  ****  Auto variables  ****

  ****  Scalars and arrays  ****
OctLoc.c.b A Datatyp(siz) R M Lvl/name                 OctLoc.c.b A Datatyp(siz) R M Lvl/name

     6-0-0/w PTR         r     1 @CACHE$                    3-0-0/w PTR         r     1 @HASH
     5-0-0/w PTR         r     1 @SRDA                      4-0-0/w PTR         r     1 @TYPE
    *0-0-0/w PTR         r     1 CACHE$                     7-0-0/w UBIN        r     1 CURTIME
    12-0-0/w SBIN        r     1 ETIME                     *0-0-0/w SBIN        r     1 HASH
    11-0-0/w SBIN        r     1 I                         10-0-0/w SBIN        r     1 N
    14-0-0/w SBIN        r     1 PP                        *0-0-0/w SBIN        r     1 SRDA
    13-0-0/w SBIN        r     1 TEMPTIME                  *0-0-0/w SBIN        r     1 TYPE

  ****  SYMREF variables  ****

  ****  Scalars and arrays  ****
OctLoc.c.b A Datatyp(siz) R M Lvl/name                 OctLoc.c.b A Datatyp(siz) R M Lvl/name

     0-0-0/w PTR         r     1 B$JIT$                     0-0-0/w PTR         r     1 FMC_CACHE$
     0-0-0/w PTR         r     1 FMC_CACHEPGCNT$
     0-0-0/w STRC(72)    r     1 FMC_LIMITS(0:8191)
     0-0-0/b BIT (72)    r     1 FMC_LOCK                   0-0-0/w PTR         r     1 FMC_STATS$
     0-0-0/w PTR         r     1 FMC_TYPTBL$                0-0-0/w PTR         r     1 P_RESOURCE$

  ****  BASED and DCB variables  ****

  ****  Scalars and arrays  ****
OctLoc.c.b A Datatyp(siz) R M Lvl/name                 OctLoc.c.b A Datatyp(siz) R M Lvl/name

     0-0-0/d STRC(8856)  r     1 B$JIT                      0-0-0/d ASTR(3528)  r     1 F$DCB
     0-0-0/w STRC(216)   r     1 FMC$CACHE
     0-0-0/w STRC(216)   r     1 FMC$CACHETBL(0:0)
     0-0-0/w STRC(2376)  r     1 FMC$STATS                  0-0-0/w STRC(2268)  r     1 P_RESOURCE

PL6.E3A0      #007=FMC$GETSLOT File=FMC$CACHE.:E05TSI                            TUE 07/29/97 16:41 Page:260

   Procedure FMC$GETSLOT requires 152 words for executable code.
   Procedure FMC$GETSLOT requires 16 words of local(AUTO) storage.
PL6.E3A0      #007=FMC$GETSLOT File=FMC$CACHE.:E05TSI                            TUE 07/29/97 16:41 Page:261
          *** CROSS REFERENCE LISTING ***
**     DENOTES     IDENTIFIER DEFINITION
<<                 IDENTIFIER'S VALUE SET
>>                 IDENTIFIER'S VALUE USED
<>                 IDENTIFIER SET AND/OR USED
--                 IDENTIFIER REFERENCED
PL6.E3A0      #007=FMC$GETSLOT File=FMC$CACHE.:E05TSI                            TUE 07/29/97 16:41 Page:262
          MINI XREF LISTING

B$JIT.CPFLAGS1.SLEAZE
       557**DCL       557--REDEF
B$JIT.DCB$
       631**DCL      1230>>IF
B$JIT.ERR.MID
       464**DCL       464--REDEF
B$JIT.JRESPEAK
       625**DCL       626--REDEF
B$JIT.ORIGINATOR_PORT.FROM_CR
       734**DCL       734--REDEF     735--REDEF
B$JIT.PNR
       638**DCL       638--REDEF
B$JIT.TSLINE
       732**DCL       733--REDEF
B$JIT$
      1215**DCL       458--IMP-PTR  1230>>IF
CACHE$
        32**DCL        29--PROC     1126--IMP-PTR  1268<<ASSIGN   1269>>IF       1272>>ASSIGN
CLR
      1229**LABEL    1240--EXIT
CURTIME
      1217**DCL      1227<>CALL     1255>>ASSIGN
ETIME
      1220**DCL      1257>>IF       1260<<ASSIGN
F$DCB.ACTPOS
      1185**DCL      1185--REDEF
F$DCB.ARS
      1160**DCL      1160--REDEF
F$DCB.ATTR
      1178**DCL      1179--REDEF
F$DCB.BORROW
      1193**DCL      1193--REDEF    1193--REDEF    1193--REDEF
PL6.E3A0      #007=FMC$GETSLOT File=FMC$CACHE.:E05TSI                            TUE 07/29/97 16:41 Page:263
F$DCB.DCBNAME.L
      1207**DCL      1207--IMP-SIZ
F$DCB.EOMCHAR
      1164**DCL      1164--REDEF
F$DCB.FLDID
      1188**DCL      1188--REDEF
F$DCB.FORM$
      1182**DCL      1182--REDEF
F$DCB.FSECT
      1198**DCL      1198--REDEF
F$DCB.FSN
      1175**DCL      1175--REDEF    1175--REDEF    1176--REDEF
F$DCB.HEADER$
      1181**DCL      1181--REDEF
F$DCB.IXTNSIZE
      1179**DCL      1179--REDEF
F$DCB.LASTSTA$
      1169**DCL      1169--REDEF
F$DCB.LVL
      1194**DCL      1194--REDEF
F$DCB.NAME.C
      1169**DCL      1169--REDEF
F$DCB.NOEOF
      1190**DCL      1190--REDEF
F$DCB.NRECS
      1180**DCL      1180--REDEF
F$DCB.NRECX
      1199**DCL      1199--REDEF
F$DCB.OHDR
      1191**DCL      1191--REDEF
F$DCB.ORG
      1174**DCL      1174--REDEF
F$DCB.PRECNO
      1197**DCL      1197--REDEF
F$DCB.RCSZ
      1202**DCL      1202--REDEF
PL6.E3A0      #007=FMC$GETSLOT File=FMC$CACHE.:E05TSI                            TUE 07/29/97 16:41 Page:264
F$DCB.RES
      1170**DCL      1170--REDEF
F$DCB.SETX
      1182**DCL      1182--REDEF    1230>>IF
F$DCB.TAB$
      1181**DCL      1182--REDEF
F$DCB.TDA
      1196**DCL      1196--REDEF
F$DCB.WSN
      1171**DCL      1171--REDEF
FMC$CACHE.PAGE
      1132**DCL      1272>>ASSIGN
FMC$CACHE.SRDA
      1129**DCL      1269>>IF
FMC$CACHETBL
      1101**DCL      1268--ASSIGN   1274<<ASSIGN
FMC$CACHETBL.AGE
      1120**DCL      1255>>ASSIGN
FMC$CACHETBL.FLAGS.BUFUP
      1119**DCL      1252>>IF
FMC$CACHETBL.SETX
      1112**DCL      1230>>IF
FMC$CACHETBL.SRDA
      1106**DCL      1230>>IF       1246>>IF
FMC$CACHETBL.TYPE
      1105**DCL      1255>>ASSIGN
FMC$CACHETBL.USECNT
      1110**DCL      1252>>IF
FMC$CLR1
      1212**DCL-ENT  1236--CALL
FMC$REMOVE
      1211**DCL-ENT  1271--CALL
FMC$STATS.ATTPUT
      1156**DCL      1226<<ASSIGN   1226>>ASSIGN
FMC$STATS.FAILED
      1154**DCL      1285<<ASSIGN   1285>>ASSIGN
PL6.E3A0      #007=FMC$GETSLOT File=FMC$CACHE.:E05TSI                            TUE 07/29/97 16:41 Page:265
FMC_CACHE$
        43**DCL      1101--IMP-PTR  1230>>IF       1230>>IF       1246>>IF       1252>>IF       1252>>IF
      1255>>ASSIGN   1255>>ASSIGN   1268>>ASSIGN   1274>>ASSIGN
FMC_CACHEPGCNT$
        44**DCL        44--IMP-PTR    44--REDEF
FMC_LIMITS.EXPIRE
       121**DCL      1255>>ASSIGN
FMC_LOCK
        45**DCL      1234<>CALL     1238<>CALL
FMC_STATS$
        43**DCL      1151--IMP-PTR  1226>>ASSIGN   1226>>ASSIGN   1285>>ASSIGN   1285>>ASSIGN
FMC_TYPTBL$
        43**DCL      1146--IMP-PTR
HASH
        30**DCL        29--PROC     1230>>IF       1230>>IF       1246>>IF       1252>>IF       1252>>IF
      1255>>ASSIGN   1255>>ASSIGN   1267<<ASSIGN   1267>>ASSIGN   1268>>ASSIGN   1271<>CALL     1274>>ASSIGN
HFC$LOCK
       135**DCL-ENT  1238--CALL
HFC$UNLOCK
       135**DCL-ENT  1234--CALL
I
      1219**DCL      1229<<DOINDEX  1230>>IF       1230>>IF       1245<<DOINDEX  1246>>IF       1248>>ASSIGN
      1252>>IF       1252>>IF       1255>>ASSIGN   1255>>ASSIGN   1259>>ASSIGN
MMJ$FIOP
      1213**DCL-ENT  1273--CALL
N
      1218**DCL      1244<<ASSIGN   1248<<ASSIGN   1257>>IF       1257>>IF       1259<<ASSIGN   1265>>IF
      1267>>ASSIGN
PP
      1222**DCL      1272<<ASSIGN   1273<>CALL
P_NSCPU
      1078**DCL      1079--REDEF
P_RESOURCE.RES
       951**DCL      1018--REDEF
P_RESOURCE.RES.IOCACHE.CURRENT
       980**DCL      1276<<ASSIGN   1276>>ASSIGN   1277>>IF       1279>>ASSIGN
PL6.E3A0      #007=FMC$GETSLOT File=FMC$CACHE.:E05TSI                            TUE 07/29/97 16:41 Page:266
P_RESOURCE.RES.IOCACHE.MIN
       982**DCL      1277>>IF       1279<<ASSIGN
P_RESOURCE$
      1031**DCL       919--IMP-PTR  1276>>ASSIGN   1276>>ASSIGN   1277>>IF       1277>>IF       1279>>ASSIGN
      1279>>ASSIGN
P_UPTIME
      1067**DCL      1068--REDEF
SRCH
      1245**LABEL    1249--EXIT
SRDA
        33**DCL        29--PROC     1230>>IF       1236<>CALL
SSS$SYSTIME
      1210**DCL-ENT  1227--CALL
TEMPTIME
      1221**DCL      1255<<ASSIGN   1257>>IF       1260>>ASSIGN
TYPE
        31**DCL        29--PROC     1226>>ASSIGN   1226>>ASSIGN   1285>>ASSIGN   1285>>ASSIGN
PL6.E3A0      #007=FMC$GETSLOT File=FMC$CACHE.:E05TSI                            TUE 07/29/97 16:41 Page:267
              *** CROSS REFERENCE LISTING ***
    **     DENOTES     IDENTIFIER DEFINITION
    <<                 IDENTIFIER'S VALUE SET
    >>                 IDENTIFIER'S VALUE USED
    <>                 IDENTIFIER SET AND/OR USED
    --                 IDENTIFIER REFERENCED
PL6.E3A0      #007=FMC$GETSLOT File=FMC$CACHE.:E05TSI                            TUE 07/29/97 16:41 Page:268
              MINI UREF LISTING

FLAG    1224**DCL
FMC$CACHEPGCNT      44**DCL
FMC$GETSLOT      29**PROC
FMC$TYPTBL    1146**DCL
FMC_CACHEPGCNT      44**DCL
FMC_CACHEPGCNT$R      44**DCL
FMC_CACHESIZ      43**DCL
FMC_CACHESIZN      43**DCL
FMC_MASK      45**DCL
FMC_MASKTBL      45**DCL
FM_WRCMP     121**DCL
NI_IOLEAPERS     121**DCL
P$IODATA    1032**DCL
P$TABLE    1041**DCL
PH_CPU_MOUSED    1096**DCL
PH_JIT_ENTRY    1092**DCL
PH_MOUSE_ENTRY    1088**DCL
PH_MOUSE_LOCK    1095**DCL
PH_MOUSE_USERS    1085**DCL
PH_MOUSE_USER_NUMBER    1097**DCL
PH_MUS_PAGES    1087**DCL
P_AUIS    1073**DCL
P_AVAIL_MEM    1080**DCL
P_AVGAVAIL_MEM    1081**DCL
P_AVGETMF    1070**DCL
P_AVGIOL    1072**DCL
P_AVGRT90    1069**DCL
P_CALCNT    1057**DCL
P_CALCOMP    1058**DCL
P_DCTXMAX    1074**DCL
P_ETMF    1051**DCL
P_GATE    1077**DCL
PL6.E3A0      #007=FMC$GETSLOT File=FMC$CACHE.:E05TSI                            TUE 07/29/97 16:41 Page:269
P_IOLOAD    1071**DCL
P_IOS    1066**DCL
P_NINTS    1052**DCL
P_NOW    1076**DCL
P_NSCPU_SBIN    1079**DCL
P_RT90    1053**DCL
P_RUE#    1049**DCL
P_SCHD#    1050**DCL
P_STARTUP    1054**DCL
P_STOPTIME    1075**DCL
P_S_MIDLTIME    1062**DCL
P_S_MIDLWIO    1063**DCL
P_S_MIDLWRES    1064**DCL
P_S_MIDLWRESIO    1065**DCL
P_S_MXEQTIME    1061**DCL
P_S_USRVTIME    1060**DCL
P_S_UXEQTIME    1059**DCL
P_UPTIME_SBIN    1068**DCL
P_USRVTIME    1056**DCL
P_UXEQTIME    1055**DCL
WORD_    1086**DCL

PL6.E3A0      #008=FMC$GETTYPE File=FMC$CACHE.:E05TSI                            TUE 07/29/97 16:41 Page:270
     1196        1        /*T***********************************************************/
     1197        2        /*T*                                                         */
     1198        3        /*T* Copyright (c) Bull HN Information Systems Inc., 1997    */
     1199        4        /*T*                                                         */
     1200        5        /*T***********************************************************/
     1201        6        /*D*     NAME:     FMC$GETTYPE
     1202        7                 PURPOSE:  To set the granule type
     1203        8
     1204        9                 OUTPUT:   TYPE - granule type
     1205       10
     1206       11                 DESCRIPTION:
     1207       12                      We use a buncha DO CASEs to set the granule type to
     1208       13                 be used for caching purposes.
     1209       14        */
     1210       15                 %EJECT;
PL6.E3A0      #008=FMC$GETTYPE File=FMC$CACHE.:E05TSI                            TUE 07/29/97 16:41 Page:271
     1211       16        FMC$GETTYPE: PROC(TYPE);
     1212       17    1          DCL TYPE SBIN;
     1213       18        /* */
     1214       19               %INCLUDE FM_CACHE_R;
     1215       31               %INCLUDE FM_CACHE_C;
     1216       97               %INCLUDE FM$GRAN;
     1217      166               %INCLUDE CP_6_SUBS;
     1218      706               %INCLUDE B$JIT;
     1219     1309               %MACRO F$DCB(BASED=BASED);
     1220     1310               %INCLUDE F$DCB;
     1221     1359               %MEND;
     1222     1360        /* */
     1223     1361               %F$DCB(BASED="BASED(JDCB$)");
     1224     1411        /* */
     1225     1412    1          DCL B$JIT$ PTR SYMREF;
     1226     1413        /* */
     1227     1414    1          DCL JDCB$ PTR;
     1228     1415        /* */
     1229     1416    1          JDCB$=B$JIT.DCB$;
     1230     1417    2          DO CASE(F$DCB.GTYP);
     1231     1418    2             CASE(FMGTMAD);
     1232     1419    2                TYPE=%CTYP_MAD;
     1233     1420
     1234     1421    2             CASE(FMGTPAD);
     1235     1422    2                TYPE=%CTYP_PAD;
     1236     1423
     1237     1424    2             CASE(FMGTGP);
     1238     1425    2                TYPE=%CTYP_GP;
     1239     1426
     1240     1427    2             CASE(FMGTFD, FMGTFDSTAR);
     1241     1428    2                TYPE=%CTYP_FD;
     1242     1429
     1243     1430    2             CASE(FMGTFIT);
     1244     1431    2                TYPE=%CTYP_FIT;
     1245     1432
     1246     1433    2             CASE(FMGTFILE);
     1247     1434    3                DO CASE(F$DCB.ORG);
PL6.E3A0      #008=FMC$GETTYPE File=FMC$CACHE.:E05TSI                            TUE 07/29/97 16:41 Page:272
     1248     1435    3                   CASE(%CONSEC#);
     1249     1436    3                      TYPE=%CTYP_CONSEC;
     1250     1437
     1251     1438    3                   CASE(%RELATIVE#);
     1252     1439    3                      TYPE=%CTYP_REL;
     1253     1440
     1254     1441    3                   CASE(%KEYED#, %INDEXED#, %IREL#);
     1255     1442    4                      DO CASE(F$DCB.LVL);
     1256     1443    4                         CASE(0);
     1257     1444    4                            TYPE=%CTYP_INDEX;
     1258     1445
     1259     1446    4                         CASE(7);
     1260     1447    4                            TYPE=%CTYP_DATA;
     1261     1448
     1262     1449    4                         CASE(ELSE);
     1263     1450    4                            TYPE=%CTYP_UL;
     1264     1451    4                      END;
     1265     1452
     1266     1453    3                   CASE(ELSE);
     1267     1454    3                      TYPE=%CTYP_ELSE;
     1268     1455    3                END;
     1269     1456    2          END;
     1270     1457
     1271     1458    1          RETURN;
     1272     1459    1          END FMC$GETTYPE;
     1273     1460               %EOD;

PL6.E3A0      #008=FMC$GETTYPE File=FMC$CACHE.:E05TSI                            TUE 07/29/97 16:41 Page:273
--  Include file information  --

   F$DCB.:E05TOU  is referenced.
   B$JIT_C.:E05TOU  is referenced.
   B$JIT.:E05TOU  cannot be made into a system file and is referenced.
   CP_6_SUBS.:E05TOU  is referenced.
   FM$GRAN.:E05TOU  is referenced.
   FM_CACHE_C.:E05TOU  is referenced.
   FM_CACHE_R.:E05TOU  cannot be made into a system file and is referenced.
      No diagnostics issued in procedure FMC$GETTYPE.

   Procedure FMC$GETTYPE requires 96 words for executable code.
   Procedure FMC$GETTYPE requires 6 words of local(AUTO) storage.

PL6.E3A0      #008=FMC$GETTYPE File=FMC$CACHE.:E05TSI                            TUE 07/29/97 16:41 Page:274

 Object Unit name= FMC$GETTYPE                                File name= FMC$CACHE.:E05TOU
 UTS= JUL 29 '97 16:41:26.68 TUE                              Compiler= PL-6/E31         Sev=      00
 SharedLib= :SHARED_SYSTEM                                    Alt SharedLib=


    ****  Control sections  ****

 Sect   Type Bound  Init  Size OctSiz  Section name(segment info)
    0   Proc  even  none    96    140  FMC$GETTYPE

    ****  Entry defs  ****

                              Check   Calling
                             calling  sequence
  Sect OctLoc Primary Altret sequence   type   Parms  Name
     0      0   yes            yes      Std        1  FMC$GETTYPE

  ****  Entry refs  ****

         Check        Calling
        calling       sequence
Altret sequence SRef   type   Args  Name
                       nStd      0 X66_AUTO_1
                       nStd      0 X66_ARET

  ****  Data refs  ****

  Flags:  r = read only, s = secondary
Flgs Name                             Flgs Name                             Flgs Name
     FMC_CACHEPGCNT$                       B$JIT$
PL6.E3A0      #008=FMC$GETTYPE File=FMC$CACHE.:E05TSI                            TUE 07/29/97 16:41 Page:275


     1196        1        /*T***********************************************************/
     1197        2        /*T*                                                         */
     1198        3        /*T* Copyright (c) Bull HN Information Systems Inc., 1997    */
     1199        4        /*T*                                                         */
     1200        5        /*T***********************************************************/
     1201        6        /*D*     NAME:     FMC$GETTYPE
     1202        7                 PURPOSE:  To set the granule type
     1203        8
     1204        9                 OUTPUT:   TYPE - granule type
     1205       10
     1206       11                 DESCRIPTION:
     1207       12                      We use a buncha DO CASEs to set the granule type to
     1208       13                 be used for caching purposes.
     1209       14        */
     1210       15                 %EJECT;
PL6.E3A0      #008=FMC$GETTYPE File=FMC$CACHE.:E05TSI                            TUE 07/29/97 16:41 Page:276
     1211       16        FMC$GETTYPE: PROC(TYPE);

     16  0 000000   000000 700200 xent  FMC$GETTYPE  TSX0  ! X66_AUTO_1
         0 000001   000006 000001                    ZERO    6,1

     1212       17    1          DCL TYPE SBIN;
     1213       18        /* */
     1214       19               %INCLUDE FM_CACHE_R;
     1215       31               %INCLUDE FM_CACHE_C;
     1216       97               %INCLUDE FM$GRAN;
     1217      166               %INCLUDE CP_6_SUBS;
     1218      706               %INCLUDE B$JIT;
     1219     1309               %MACRO F$DCB(BASED=BASED);
     1220     1310               %INCLUDE F$DCB;
     1221     1359               %MEND;
     1222     1360        /* */
     1223     1361               %F$DCB(BASED="BASED(JDCB$)");
     1224     1411        /* */
     1225     1412    1          DCL B$JIT$ PTR SYMREF;
     1226     1413        /* */
     1227     1414    1          DCL JDCB$ PTR;
     1228     1415        /* */
     1229     1416    1          JDCB$=B$JIT.DCB$;

   1416  0 000002   000000 470400 xsym               LDP0    B$JIT$
         0 000003   000232 236100                    LDQ     154,,PR0
         0 000004   200004 756100                    STQ     JDCB$,,AUTO

     1230     1417    2          DO CASE(F$DCB.GTYP);

   1417  0 000005   200004 471500                    LDP1    JDCB$,,AUTO
         0 000006   100064 236100                    LDQ     52,,PR1
         0 000007   000035 772000                    QRL     29
         0 000010   000007 376007                    ANQ     7,DL
         0 000011   000010 116007                    CMPQ    8,DL
         0 000012   000014 602006 0                  TNC     s:1417+7,QL
         0 000013   000137 710000 0                  TRA     s:1458
PL6.E3A0      #008=FMC$GETTYPE File=FMC$CACHE.:E05TSI                            TUE 07/29/97 16:41 Page:277
         0 000014   000137 710000 0                  TRA     s:1458
         0 000015   000033 710000 0                  TRA     s:1425
         0 000016   000024 710000 0                  TRA     s:1419
         0 000017   000027 710000 0                  TRA     s:1422
         0 000020   000037 710000 0                  TRA     s:1428
         0 000021   000043 710000 0                  TRA     s:1431
         0 000022   000047 710000 0                  TRA     s:1434
         0 000023   000037 710000 0                  TRA     s:1428

     1231     1418    2             CASE(FMGTMAD);

     1232     1419    2                TYPE=%CTYP_MAD;

   1419  0 000024   200003 473500                    LDP3    @TYPE,,AUTO
         0 000025   300000 450100                    STZ     0,,PR3
         0 000026   000137 710000 0                  TRA     s:1458

     1233     1420
     1234     1421    2             CASE(FMGTPAD);

     1235     1422    2                TYPE=%CTYP_PAD;

   1422  0 000027   000001 235007                    LDA     1,DL
         0 000030   200003 473500                    LDP3    @TYPE,,AUTO
         0 000031   300000 755100                    STA     0,,PR3
         0 000032   000137 710000 0                  TRA     s:1458

     1236     1423
     1237     1424    2             CASE(FMGTGP);

     1238     1425    2                TYPE=%CTYP_GP;

   1425  0 000033   000002 235007                    LDA     2,DL
         0 000034   200003 473500                    LDP3    @TYPE,,AUTO
         0 000035   300000 755100                    STA     0,,PR3
         0 000036   000137 710000 0                  TRA     s:1458

PL6.E3A0      #008=FMC$GETTYPE File=FMC$CACHE.:E05TSI                            TUE 07/29/97 16:41 Page:278
     1239     1426
     1240     1427    2             CASE(FMGTFD, FMGTFDSTAR);

     1241     1428    2                TYPE=%CTYP_FD;

   1428  0 000037   000003 235007                    LDA     3,DL
         0 000040   200003 473500                    LDP3    @TYPE,,AUTO
         0 000041   300000 755100                    STA     0,,PR3
         0 000042   000137 710000 0                  TRA     s:1458

     1242     1429
     1243     1430    2             CASE(FMGTFIT);

     1244     1431    2                TYPE=%CTYP_FIT;

   1431  0 000043   000004 235007                    LDA     4,DL
         0 000044   200003 473500                    LDP3    @TYPE,,AUTO
         0 000045   300000 755100                    STA     0,,PR3
         0 000046   000137 710000 0                  TRA     s:1458

     1245     1432
     1246     1433    2             CASE(FMGTFILE);

     1247     1434    3                DO CASE(F$DCB.ORG);

   1434  0 000047   100032 236100                    LDQ     26,,PR1
         0 000050   000033 772000                    QRL     27
         0 000051   000016 116007                    CMPQ    14,DL
         0 000052   000054 602006 0                  TNC     s:1434+5,QL
         0 000053   000134 710000 0                  TRA     s:1454
         0 000054   000134 710000 0                  TRA     s:1454
         0 000055   000072 710000 0                  TRA     s:1436
         0 000056   000102 710000 0                  TRA     s:1442
         0 000057   000134 710000 0                  TRA     s:1454
         0 000060   000134 710000 0                  TRA     s:1454
         0 000061   000076 710000 0                  TRA     s:1439
         0 000062   000102 710000 0                  TRA     s:1442
PL6.E3A0      #008=FMC$GETTYPE File=FMC$CACHE.:E05TSI                            TUE 07/29/97 16:41 Page:279
         0 000063   000134 710000 0                  TRA     s:1454
         0 000064   000134 710000 0                  TRA     s:1454
         0 000065   000134 710000 0                  TRA     s:1454
         0 000066   000134 710000 0                  TRA     s:1454
         0 000067   000134 710000 0                  TRA     s:1454
         0 000070   000134 710000 0                  TRA     s:1454
         0 000071   000102 710000 0                  TRA     s:1442

     1248     1435    3                   CASE(%CONSEC#);

     1249     1436    3                      TYPE=%CTYP_CONSEC;

   1436  0 000072   000011 235007                    LDA     9,DL
         0 000073   200003 473500                    LDP3    @TYPE,,AUTO
         0 000074   300000 755100                    STA     0,,PR3
         0 000075   000137 710000 0                  TRA     s:1458

     1250     1437
     1251     1438    3                   CASE(%RELATIVE#);

     1252     1439    3                      TYPE=%CTYP_REL;

   1439  0 000076   000010 235007                    LDA     8,DL
         0 000077   200003 473500                    LDP3    @TYPE,,AUTO
         0 000100   300000 755100                    STA     0,,PR3
         0 000101   000137 710000 0                  TRA     s:1458

     1253     1440
     1254     1441    3                   CASE(%KEYED#, %INDEXED#, %IREL#);

     1255     1442    4                      DO CASE(F$DCB.LVL);

   1442  0 000102   100067 236100                    LDQ     55,,PR1
         0 000103   000036 772000                    QRL     30
         0 000104   000007 376007                    ANQ     7,DL
         0 000105   000010 116007                    CMPQ    8,DL
         0 000106   000110 602006 0                  TNC     s:1442+6,QL
PL6.E3A0      #008=FMC$GETTYPE File=FMC$CACHE.:E05TSI                            TUE 07/29/97 16:41 Page:280
         0 000107   000130 710000 0                  TRA     s:1450
         0 000110   000120 710000 0                  TRA     s:1444
         0 000111   000130 710000 0                  TRA     s:1450
         0 000112   000130 710000 0                  TRA     s:1450
         0 000113   000130 710000 0                  TRA     s:1450
         0 000114   000130 710000 0                  TRA     s:1450
         0 000115   000130 710000 0                  TRA     s:1450
         0 000116   000130 710000 0                  TRA     s:1450
         0 000117   000124 710000 0                  TRA     s:1447

     1256     1443    4                         CASE(0);

     1257     1444    4                            TYPE=%CTYP_INDEX;

   1444  0 000120   000006 235007                    LDA     6,DL
         0 000121   200003 473500                    LDP3    @TYPE,,AUTO
         0 000122   300000 755100                    STA     0,,PR3
         0 000123   000137 710000 0                  TRA     s:1458

     1258     1445
     1259     1446    4                         CASE(7);

     1260     1447    4                            TYPE=%CTYP_DATA;

   1447  0 000124   000007 235007                    LDA     7,DL
         0 000125   200003 473500                    LDP3    @TYPE,,AUTO
         0 000126   300000 755100                    STA     0,,PR3
         0 000127   000137 710000 0                  TRA     s:1458

     1261     1448
     1262     1449    4                         CASE(ELSE);

     1263     1450    4                            TYPE=%CTYP_UL;

   1450  0 000130   000005 235007                    LDA     5,DL
         0 000131   200003 473500                    LDP3    @TYPE,,AUTO
         0 000132   300000 755100                    STA     0,,PR3
PL6.E3A0      #008=FMC$GETTYPE File=FMC$CACHE.:E05TSI                            TUE 07/29/97 16:41 Page:281

     1264     1451    4                      END;

   1451  0 000133   000137 710000 0                  TRA     s:1458

     1265     1452
     1266     1453    3                   CASE(ELSE);

     1267     1454    3                      TYPE=%CTYP_ELSE;

   1454  0 000134   000012 235007                    LDA     10,DL
         0 000135   200003 473500                    LDP3    @TYPE,,AUTO
         0 000136   300000 755100                    STA     0,,PR3

     1268     1455    3                END;

     1269     1456    2          END;

     1270     1457
     1271     1458    1          RETURN;

   1458  0 000137   000000 702200 xent               TSX2  ! X66_ARET
     1272     1459    1          END FMC$GETTYPE;
     1273     1460               %EOD;

PL6.E3A0      #008=FMC$GETTYPE File=FMC$CACHE.:E05TSI                            TUE 07/29/97 16:41 Page:282
--  Include file information  --

   F$DCB.:E05TOU  is referenced.
   B$JIT_C.:E05TOU  is referenced.
   B$JIT.:E05TOU  cannot be made into a system file and is referenced.
   CP_6_SUBS.:E05TOU  is referenced.
   FM$GRAN.:E05TOU  is referenced.
   FM_CACHE_C.:E05TOU  is referenced.
   FM_CACHE_R.:E05TOU  cannot be made into a system file and is referenced.
      No diagnostics issued in procedure FMC$GETTYPE.
PL6.E3A0      #008=FMC$GETTYPE File=FMC$CACHE.:E05TSI                            TUE 07/29/97 16:41 Page:283

 **** Variables and constants ****

  ****  Auto variables  ****

  ****  Scalars and arrays  ****
OctLoc.c.b A Datatyp(siz) R M Lvl/name                 OctLoc.c.b A Datatyp(siz) R M Lvl/name

     3-0-0/w PTR         r     1 @TYPE                      4-0-0/w PTR         r     1 JDCB$
    *0-0-0/w SBIN        r     1 TYPE

  ****  SYMREF variables  ****

  ****  Scalars and arrays  ****
OctLoc.c.b A Datatyp(siz) R M Lvl/name                 OctLoc.c.b A Datatyp(siz) R M Lvl/name

     0-0-0/w PTR         r     1 B$JIT$                     0-0-0/w PTR         r     1 FMC_CACHEPGCNT$

  ****  BASED and DCB variables  ****

  ****  Scalars and arrays  ****
OctLoc.c.b A Datatyp(siz) R M Lvl/name                 OctLoc.c.b A Datatyp(siz) R M Lvl/name

     0-0-0/d STRC(8856)  r     1 B$JIT                      0-0-0/d ASTR(3528)  r     1 F$DCB


   Procedure FMC$GETTYPE requires 96 words for executable code.
   Procedure FMC$GETTYPE requires 6 words of local(AUTO) storage.
PL6.E3A0      #008=FMC$GETTYPE File=FMC$CACHE.:E05TSI                            TUE 07/29/97 16:41 Page:284
          *** CROSS REFERENCE LISTING ***
**     DENOTES     IDENTIFIER DEFINITION
<<                 IDENTIFIER'S VALUE SET
>>                 IDENTIFIER'S VALUE USED
<>                 IDENTIFIER SET AND/OR USED
--                 IDENTIFIER REFERENCED
PL6.E3A0      #008=FMC$GETTYPE File=FMC$CACHE.:E05TSI                            TUE 07/29/97 16:41 Page:285
          MINI XREF LISTING

B$JIT.CPFLAGS1.SLEAZE
      1127**DCL      1127--REDEF
B$JIT.DCB$
      1201**DCL      1416>>ASSIGN
B$JIT.ERR.MID
      1034**DCL      1034--REDEF
B$JIT.JRESPEAK
      1195**DCL      1196--REDEF
B$JIT.ORIGINATOR_PORT.FROM_CR
      1304**DCL      1304--REDEF    1305--REDEF
B$JIT.PNR
      1208**DCL      1208--REDEF
B$JIT.TSLINE
      1302**DCL      1303--REDEF
B$JIT$
      1412**DCL      1028--IMP-PTR  1416>>ASSIGN
F$DCB.ACTPOS
      1387**DCL      1387--REDEF
F$DCB.ARS
      1362**DCL      1362--REDEF
F$DCB.ATTR
      1380**DCL      1381--REDEF
F$DCB.BORROW
      1395**DCL      1395--REDEF    1395--REDEF    1395--REDEF
F$DCB.DCBNAME.L
      1409**DCL      1409--IMP-SIZ
F$DCB.EOMCHAR
      1366**DCL      1366--REDEF
F$DCB.FLDID
      1390**DCL      1390--REDEF
F$DCB.FORM$
      1384**DCL      1384--REDEF
PL6.E3A0      #008=FMC$GETTYPE File=FMC$CACHE.:E05TSI                            TUE 07/29/97 16:41 Page:286
F$DCB.FSECT
      1400**DCL      1400--REDEF
F$DCB.FSN
      1377**DCL      1377--REDEF    1377--REDEF    1378--REDEF
F$DCB.GTYP
      1391**DCL      1417>>DOCASE
F$DCB.HEADER$
      1383**DCL      1383--REDEF
F$DCB.IXTNSIZE
      1381**DCL      1381--REDEF
F$DCB.LASTSTA$
      1371**DCL      1371--REDEF
F$DCB.LVL
      1396**DCL      1396--REDEF    1442>>DOCASE
F$DCB.NAME.C
      1371**DCL      1371--REDEF
F$DCB.NOEOF
      1392**DCL      1392--REDEF
F$DCB.NRECS
      1382**DCL      1382--REDEF
F$DCB.NRECX
      1401**DCL      1401--REDEF
F$DCB.OHDR
      1393**DCL      1393--REDEF
F$DCB.ORG
      1376**DCL      1376--REDEF    1434>>DOCASE
F$DCB.PRECNO
      1399**DCL      1399--REDEF
F$DCB.RCSZ
      1404**DCL      1404--REDEF
F$DCB.RES
      1372**DCL      1372--REDEF
F$DCB.SETX
      1384**DCL      1384--REDEF
F$DCB.TAB$
      1383**DCL      1384--REDEF
PL6.E3A0      #008=FMC$GETTYPE File=FMC$CACHE.:E05TSI                            TUE 07/29/97 16:41 Page:287
F$DCB.TDA
      1398**DCL      1398--REDEF
F$DCB.WSN
      1373**DCL      1373--REDEF
FMC_CACHEPGCNT$
        28**DCL        28--IMP-PTR    28--REDEF
JDCB$
      1414**DCL      1362--IMP-PTR  1416<<ASSIGN   1417>>DOCASE   1434>>DOCASE   1442>>DOCASE
TYPE
        17**DCL        16--PROC     1419<<ASSIGN   1422<<ASSIGN   1425<<ASSIGN   1428<<ASSIGN   1431<<ASSIGN
      1436<<ASSIGN   1439<<ASSIGN   1444<<ASSIGN   1447<<ASSIGN   1450<<ASSIGN   1454<<ASSIGN
PL6.E3A0      #008=FMC$GETTYPE File=FMC$CACHE.:E05TSI                            TUE 07/29/97 16:41 Page:288
              *** CROSS REFERENCE LISTING ***
    **     DENOTES     IDENTIFIER DEFINITION
    <<                 IDENTIFIER'S VALUE SET
    >>                 IDENTIFIER'S VALUE USED
    <>                 IDENTIFIER SET AND/OR USED
    --                 IDENTIFIER REFERENCED
PL6.E3A0      #008=FMC$GETTYPE File=FMC$CACHE.:E05TSI                            TUE 07/29/97 16:41 Page:289
              MINI UREF LISTING

FMC$CACHEPGCNT      28**DCL
FMC$GETTYPE      16**PROC
FMC_CACHE$      27**DCL
FMC_CACHEPGCNT      28**DCL
FMC_CACHEPGCNT$R      28**DCL
FMC_CACHESIZ      27**DCL
FMC_CACHESIZN      27**DCL
FMC_LOCK      29**DCL
FMC_MASK      29**DCL
FMC_MASKTBL      29**DCL
FMC_STATS$      27**DCL
FMC_TYPTBL$      27**DCL

PL6.E3A0      #009=FMC$RELCACHE File=FMC$CACHE.:E05TSI                           TUE 07/29/97 16:41 Page:290
     1274        1        /*T***********************************************************/
     1275        2        /*T*                                                         */
     1276        3        /*T* Copyright (c) Bull HN Information Systems Inc., 1997    */
     1277        4        /*T*                                                         */
     1278        5        /*T***********************************************************/
     1279        6        /*D*     NAME:     FMC$RELCACHE
     1280        7                 PURPOSE:  To get rid a cache table entry.
     1281        8                 INPUT:    BUFNUM - buffer number
     1282        9
     1283       10                 DESCRIPTION:
     1284       11                      If the buffer has a cached granule, then take the
     1285       12                 user off of the page.  If the usecount is zero, then
     1286       13                 free the page.
     1287       14        */
     1288       15                 %EJECT;
PL6.E3A0      #009=FMC$RELCACHE File=FMC$CACHE.:E05TSI                           TUE 07/29/97 16:41 Page:291
     1289       16        FMC$RELCACHE: PROC(BUFNUM);
     1290       17    1          DCL BUFNUM SBIN;
     1291       18        /* */
     1292       19               %INCLUDE FM_CACHE_R;
     1293       31               %INCLUDE FM_CACHE_C;
     1294       97               %INCLUDE FM_DATA_R;
     1295      111               %INCLUDE HF_LOCK_C;
     1296      125               %MACRO F$DCB(BASED=BASED);
     1297      126               %INCLUDE F$DCB;
     1298      175               %MEND;
     1299      176               %INCLUDE B$JIT;
     1300      779               %INCLUDE P_PMDAT_R;
     1301     1087        /* */
     1302     1088    1          DCL B$JIT$ PTR SYMREF;
     1303     1089        /* */
     1304     1090               %FMC$CACHE;
     1305     1113               %FMC$CACHE(FPTN=FMC$CACHE,ARRAY=NO,STCLASS="BASED(CACHE$)");
     1306     1136               %F$DCB(BASED="BASED(JDCB$)");
     1307     1186        /* */
     1308     1187    1          DCL HASH SBIN;
     1309     1188    1          DCL JDCB$ PTR;
     1310     1189    1          DCL PAGE SBIN;
     1311     1190    1          DCL VPNO SBIN;
     1312     1191    1          DCL CACHE$ PTR;
     1313     1192    1          DCL N SBIN;
     1314     1193        /* */
     1315     1194    1          DCL MMJ$FIOP ENTRY(1);
     1316     1195    1          DCL MMJ$UNMAPIOP ENTRY(1);
     1317     1196        /* */
     1318     1197    1          JDCB$=B$JIT.DCB$;
     1319     1198    1          HASH=F$DCB.BFR1.CX(BUFNUM);
     1320     1199    1          IF HASH = 0 THEN
     1321     1200    1             RETURN;
     1322     1201
     1323     1202               %LOCK(G=FMC_LOCK);
     1324     1205    1          CACHE$=ADDR(FMC$CACHETBL(HASH));
     1325     1206    1          FMC$CACHE.USECNT=FMC$CACHE.USECNT-1;
PL6.E3A0      #009=FMC$RELCACHE File=FMC$CACHE.:E05TSI                           TUE 07/29/97 16:41 Page:292
     1326     1207    1          PAGE=FMC$CACHE.PAGE;
     1327     1208    1          VPNO=F$DCB.BFR.BUFX(BUFNUM);
     1328     1209    1          IF VPNO ~= 0 THEN
     1329     1210    1             CALL MMJ$UNMAPIOP(VPNO);
     1330     1211
     1331     1212    1          IF FMC$CACHE.USECNT = 0 THEN
     1332     1213    2             DO;   /* GET RID OF PAGE */
     1333     1214    2             CALL MMJ$FIOP(PAGE);
     1334     1215    2             FMC$CACHE='0'B;
     1335     1216                  %DEC_COUNTER(ITEM=IOCACHE);
     1336     1222    2             END;  /* GET RID OF PAGE */
     1337     1223
     1338     1224               %UNLOCK(G=FMC_LOCK);
     1339     1227    1          F$DCB.BFR(BUFNUM)=F$DCB.BFR(BUFNUM)&'000777777777'O;
     1340     1228    1          F$DCB.BFR1(BUFNUM)='0'B;
     1341     1229
     1342     1230    1          RETURN;
     1343     1231    1          END FMC$RELCACHE;
     1344     1232               %EOD;

PL6.E3A0      #009=FMC$RELCACHE File=FMC$CACHE.:E05TSI                           TUE 07/29/97 16:41 Page:293
--  Include file information  --

   P_PMDAT_C.:E05TOU  is referenced.
   P_PMDAT_R.:E05TOU  cannot be made into a system file and is referenced.
   B$JIT_C.:E05TOU  is referenced.
   B$JIT.:E05TOU  cannot be made into a system file and is referenced.
   F$DCB.:E05TOU  is referenced.
   HF_LOCK_C.:E05TOU  cannot be made into a system file and is referenced.
   FM_DATA_R.:E05TOU  cannot be made into a system file and is referenced.
   FM_CACHE_C.:E05TOU  is referenced.
   FM_CACHE_R.:E05TOU  cannot be made into a system file and is referenced.
      No diagnostics issued in procedure FMC$RELCACHE.

   Procedure FMC$RELCACHE requires 76 words for executable code.
   Procedure FMC$RELCACHE requires 12 words of local(AUTO) storage.

PL6.E3A0      #009=FMC$RELCACHE File=FMC$CACHE.:E05TSI                           TUE 07/29/97 16:41 Page:294

 Object Unit name= FMC$RELCACHE                               File name= FMC$CACHE.:E05TOU
 UTS= JUL 29 '97 16:41:39.76 TUE                              Compiler= PL-6/E31         Sev=      00
 SharedLib= :SHARED_SYSTEM                                    Alt SharedLib=


    ****  Control sections  ****

 Sect   Type Bound  Init  Size OctSiz  Section name(segment info)
    0   Proc  even  none    76    114  FMC$RELCACHE
    1  RoData even  none     1      1  FMC$RELCACHE

    ****  Entry defs  ****

                              Check   Calling
                             calling  sequence
  Sect OctLoc Primary Altret sequence   type   Parms  Name
     0      0   yes            yes      Std        1  FMC$RELCACHE

  ****  Entry refs  ****

         Check        Calling
        calling       sequence
Altret sequence SRef   type   Args  Name
         yes           Std       1 HFC$LOCK
         yes           Std       1 MMJ$UNMAPIOP
         yes           Std       1 HFC$UNLOCK
         yes           Std       1 MMJ$FIOP
                       Std       0 B_CONSPOOL_D
                       nStd      0 X66_AUTO_1
                       nStd      0 X66_ARET
PL6.E3A0      #009=FMC$RELCACHE File=FMC$CACHE.:E05TSI                           TUE 07/29/97 16:41 Page:295

  ****  Data refs  ****

  Flags:  r = read only, s = secondary
Flgs Name                             Flgs Name                             Flgs Name
     FMC_CACHE$                            FMC_CACHEPGCNT$                       FMC_LOCK
     P_RESOURCE$                           P_UPTIME                              P_NSCPU
     B$JIT$                                B_VECTNIL

  ****  Segment refs  ****

  Flags:  r = read only, s = secondary
Flgs Name                             Flgs Name                             Flgs Name
     ISSID
PL6.E3A0      #009=FMC$RELCACHE File=FMC$CACHE.:E05TSI                           TUE 07/29/97 16:41 Page:296


     1274        1        /*T***********************************************************/
     1275        2        /*T*                                                         */
     1276        3        /*T* Copyright (c) Bull HN Information Systems Inc., 1997    */
     1277        4        /*T*                                                         */
     1278        5        /*T***********************************************************/
     1279        6        /*D*     NAME:     FMC$RELCACHE
     1280        7                 PURPOSE:  To get rid a cache table entry.
     1281        8                 INPUT:    BUFNUM - buffer number
     1282        9
     1283       10                 DESCRIPTION:
     1284       11                      If the buffer has a cached granule, then take the
     1285       12                 user off of the page.  If the usecount is zero, then
     1286       13                 free the page.
     1287       14        */
     1288       15                 %EJECT;
PL6.E3A0      #009=FMC$RELCACHE File=FMC$CACHE.:E05TSI                           TUE 07/29/97 16:41 Page:297
     1289       16        FMC$RELCACHE: PROC(BUFNUM);

     16  0 000000   000000 700200 xent  FMC$RELCACHE TSX0  ! X66_AUTO_1
         0 000001   000014 000001                    ZERO    12,1

     1290       17    1          DCL BUFNUM SBIN;
     1291       18        /* */
     1292       19               %INCLUDE FM_CACHE_R;
     1293       31               %INCLUDE FM_CACHE_C;
     1294       97               %INCLUDE FM_DATA_R;
     1295      111               %INCLUDE HF_LOCK_C;
     1296      125               %MACRO F$DCB(BASED=BASED);
     1297      126               %INCLUDE F$DCB;
     1298      175               %MEND;
     1299      176               %INCLUDE B$JIT;
     1300      779               %INCLUDE P_PMDAT_R;
     1301     1087        /* */
     1302     1088    1          DCL B$JIT$ PTR SYMREF;
     1303     1089        /* */
     1304     1090               %FMC$CACHE;
     1305     1113               %FMC$CACHE(FPTN=FMC$CACHE,ARRAY=NO,STCLASS="BASED(CACHE$)");
     1306     1136               %F$DCB(BASED="BASED(JDCB$)");
     1307     1186        /* */
     1308     1187    1          DCL HASH SBIN;
     1309     1188    1          DCL JDCB$ PTR;
     1310     1189    1          DCL PAGE SBIN;
     1311     1190    1          DCL VPNO SBIN;
     1312     1191    1          DCL CACHE$ PTR;
     1313     1192    1          DCL N SBIN;
     1314     1193        /* */
     1315     1194    1          DCL MMJ$FIOP ENTRY(1);
     1316     1195    1          DCL MMJ$UNMAPIOP ENTRY(1);
     1317     1196        /* */
     1318     1197    1          JDCB$=B$JIT.DCB$;

   1197  0 000002   000000 470400 xsym               LDP0    B$JIT$
         0 000003   000232 236100                    LDQ     154,,PR0
PL6.E3A0      #009=FMC$RELCACHE File=FMC$CACHE.:E05TSI                           TUE 07/29/97 16:41 Page:298
         0 000004   200005 756100                    STQ     JDCB$,,AUTO

     1319     1198    1          HASH=F$DCB.BFR1.CX(BUFNUM);

   1198  0 000005   200003 471500                    LDP1    @BUFNUM,,AUTO
         0 000006   100000 235100                    LDA     0,,PR1
         0 000007   200005 473500                    LDP3    JDCB$,,AUTO
         0 000010   300122 236105                    LDQ     82,AL,PR3
         0 000011   777777 376007                    ANQ     -1,DL
         0 000012   200004 756100                    STQ     HASH,,AUTO

     1320     1199    1          IF HASH = 0 THEN

   1199  0 000013   000015 601000 0                  TNZ     s:1203

     1321     1200    1             RETURN;

   1200  0 000014   000000 702200 xent               TSX2  ! X66_ARET

     1322     1201
     1323     1202               %LOCK(G=FMC_LOCK);

   1203  0 000015   000000 630400 1                  EPPR0   0
         0 000016   000017 631400 xsym               EPPR1   B_VECTNIL+15
         0 000017   000000 701000 xent               TSX1    HFC$LOCK
         0 000020   000000 011000                    NOP     0

     1324     1205    1          CACHE$=ADDR(FMC$CACHETBL(HASH));

   1205  0 000021   200004 236100                    LDQ     HASH,,AUTO
         0 000022   000006 402003                    MPY     6,DU
         0 000023   000000 036000 xsym               ADLQ    FMC_CACHE$
         0 000024   200010 756100                    STQ     CACHE$,,AUTO

     1325     1206    1          FMC$CACHE.USECNT=FMC$CACHE.USECNT-1;

   1206  0 000025   200010 470500                    LDP0    CACHE$,,AUTO
PL6.E3A0      #009=FMC$RELCACHE File=FMC$CACHE.:E05TSI                           TUE 07/29/97 16:41 Page:299
         0 000026   000002 720100                    LXL0    2,,PR0
         0 000027   777777 621010                    EAX1    -1,X0
         0 000030   000002 441100                    SXL1    2,,PR0

     1326     1207    1          PAGE=FMC$CACHE.PAGE;

   1207  0 000031   000002 236100                    LDQ     2,,PR0
         0 000032   000022 772000                    QRL     18
         0 000033   200006 756100                    STQ     PAGE,,AUTO

     1327     1208    1          VPNO=F$DCB.BFR.BUFX(BUFNUM);

   1208  0 000034   200003 471500                    LDP1    @BUFNUM,,AUTO
         0 000035   100000 235100                    LDA     0,,PR1
         0 000036   200005 473500                    LDP3    JDCB$,,AUTO
         0 000037   300115 236105                    LDQ     77,AL,PR3
         0 000040   000033 772000                    QRL     27
         0 000041   000037 376007                    ANQ     31,DL
         0 000042   200007 756100                    STQ     VPNO,,AUTO

     1328     1209    1          IF VPNO ~= 0 THEN

   1209  0 000043   000052 600000 0                  TZE     s:1212

     1329     1210    1             CALL MMJ$UNMAPIOP(VPNO);

   1210  0 000044   200007 634500                    EPPR4   VPNO,,AUTO
         0 000045   200012 454500                    STP4    CACHE$+2,,AUTO
         0 000046   200012 630500                    EPPR0   CACHE$+2,,AUTO
         0 000047   000017 631400 xsym               EPPR1   B_VECTNIL+15
         0 000050   000000 701000 xent               TSX1    MMJ$UNMAPIOP
         0 000051   000000 011000                    NOP     0

     1330     1211
     1331     1212    1          IF FMC$CACHE.USECNT = 0 THEN

   1212  0 000052   200010 470500                    LDP0    CACHE$,,AUTO
PL6.E3A0      #009=FMC$RELCACHE File=FMC$CACHE.:E05TSI                           TUE 07/29/97 16:41 Page:300
         0 000053   000002 720100                    LXL0    2,,PR0
         0 000054   000077 601000 0                  TNZ     s:1225

     1332     1213    2             DO;   /* GET RID OF PAGE */

     1333     1214    2             CALL MMJ$FIOP(PAGE);

   1214  0 000055   200006 631500                    EPPR1   PAGE,,AUTO
         0 000056   200012 451500                    STP1    CACHE$+2,,AUTO
         0 000057   200012 630500                    EPPR0   CACHE$+2,,AUTO
         0 000060   000017 631400 xsym               EPPR1   B_VECTNIL+15
         0 000061   000000 701000 xent               TSX1    MMJ$FIOP
         0 000062   000000 011000                    NOP     0

     1334     1215    2             FMC$CACHE='0'B;

   1215  0 000063   200010 470500                    LDP0    CACHE$,,AUTO
         0 000064   000100 100400                    MLR     fill='000'O
         0 000065   000002 000001 xsym               ADSC9   B_VECTNIL+2              cn=0,n=1
         0 000066   000000 000030                    ADSC9   0,,PR0                   cn=0,n=24

     1335     1216                  %DEC_COUNTER(ITEM=IOCACHE);

   1217  0 000067   000000 471400 xsym               LDP1    P_RESOURCE$
         0 000070   100055 235100                    LDA     45,,PR1
         0 000071   000001 135007                    SBLA    1,DL
         0 000072   100055 755100                    STA     45,,PR1

   1218  0 000073   100055 236100                    LDQ     45,,PR1
         0 000074   100057 116100                    CMPQ    47,,PR1
         0 000075   000077 603000 0                  TRC     s:1225

   1220  0 000076   100057 756100                    STQ     47,,PR1

     1336     1222    2             END;  /* GET RID OF PAGE */

     1337     1223
PL6.E3A0      #009=FMC$RELCACHE File=FMC$CACHE.:E05TSI                           TUE 07/29/97 16:41 Page:301
     1338     1224               %UNLOCK(G=FMC_LOCK);

   1225  0 000077   000000 630400 1                  EPPR0   0
         0 000100   000017 631400 xsym               EPPR1   B_VECTNIL+15
         0 000101   000000 701000 xent               TSX1    HFC$UNLOCK
         0 000102   000000 011000                    NOP     0

     1339     1227    1          F$DCB.BFR(BUFNUM)=F$DCB.BFR(BUFNUM)&'000777777777'O;

   1227  0 000103   200003 470500                    LDP0    @BUFNUM,,AUTO
         0 000104   000000 235100                    LDA     0,,PR0
         0 000105   200005 471500                    LDP1    JDCB$,,AUTO
         0 000106   100115 236105                    LDQ     77,AL,PR1
         0 000107   000032 376000 xsym               ANQ     B_VECTNIL+26
         0 000110   100115 756105                    STQ     77,AL,PR1

     1340     1228    1          F$DCB.BFR1(BUFNUM)='0'B;

   1228  0 000111   000000 235100                    LDA     0,,PR0
         0 000112   100122 450105                    STZ     82,AL,PR1

     1341     1229
     1342     1230    1          RETURN;

   1230  0 000113   000000 702200 xent               TSX2  ! X66_ARET

(unnamed)
 Sect OctLoc
   1     000   000000 006000                                                    ....
     1343     1231    1          END FMC$RELCACHE;
     1344     1232               %EOD;

PL6.E3A0      #009=FMC$RELCACHE File=FMC$CACHE.:E05TSI                           TUE 07/29/97 16:41 Page:302
--  Include file information  --

   P_PMDAT_C.:E05TOU  is referenced.
   P_PMDAT_R.:E05TOU  cannot be made into a system file and is referenced.
   B$JIT_C.:E05TOU  is referenced.
   B$JIT.:E05TOU  cannot be made into a system file and is referenced.
   F$DCB.:E05TOU  is referenced.
   HF_LOCK_C.:E05TOU  cannot be made into a system file and is referenced.
   FM_DATA_R.:E05TOU  cannot be made into a system file and is referenced.
   FM_CACHE_C.:E05TOU  is referenced.
   FM_CACHE_R.:E05TOU  cannot be made into a system file and is referenced.
      No diagnostics issued in procedure FMC$RELCACHE.
PL6.E3A0      #009=FMC$RELCACHE File=FMC$CACHE.:E05TSI                           TUE 07/29/97 16:41 Page:303

 **** Variables and constants ****

  ****  Auto variables  ****

  ****  Scalars and arrays  ****
OctLoc.c.b A Datatyp(siz) R M Lvl/name                 OctLoc.c.b A Datatyp(siz) R M Lvl/name

     3-0-0/w PTR         r     1 @BUFNUM                   *0-0-0/w SBIN        r     1 BUFNUM
    10-0-0/w PTR         r     1 CACHE$                     4-0-0/w SBIN        r     1 HASH
     5-0-0/w PTR         r     1 JDCB$                      6-0-0/w SBIN        r     1 PAGE
     7-0-0/w SBIN        r     1 VPNO

  ****  SYMREF variables  ****

  ****  Scalars and arrays  ****
OctLoc.c.b A Datatyp(siz) R M Lvl/name                 OctLoc.c.b A Datatyp(siz) R M Lvl/name

     0-0-0/w PTR         r     1 B$JIT$                     0-0-0/w PTR         r     1 FMC_CACHE$
     0-0-0/w PTR         r     1 FMC_CACHEPGCNT$            0-0-0/b BIT (72)    r     1 FMC_LOCK
     0-0-0/w PTR         r     1 P_RESOURCE$

  ****  BASED and DCB variables  ****

  ****  Scalars and arrays  ****
OctLoc.c.b A Datatyp(siz) R M Lvl/name                 OctLoc.c.b A Datatyp(siz) R M Lvl/name

     0-0-0/d STRC(8856)  r     1 B$JIT                      0-0-0/d ASTR(3528)  r     1 F$DCB
     0-0-0/w STRC(216)   r     1 FMC$CACHE
     0-0-0/w STRC(216)   r     1 FMC$CACHETBL(0:0)
     0-0-0/w STRC(2268)  r     1 P_RESOURCE


   Procedure FMC$RELCACHE requires 76 words for executable code.
   Procedure FMC$RELCACHE requires 12 words of local(AUTO) storage.
PL6.E3A0      #009=FMC$RELCACHE File=FMC$CACHE.:E05TSI                           TUE 07/29/97 16:41 Page:304
          *** CROSS REFERENCE LISTING ***
**     DENOTES     IDENTIFIER DEFINITION
<<                 IDENTIFIER'S VALUE SET
>>                 IDENTIFIER'S VALUE USED
<>                 IDENTIFIER SET AND/OR USED
--                 IDENTIFIER REFERENCED
PL6.E3A0      #009=FMC$RELCACHE File=FMC$CACHE.:E05TSI                           TUE 07/29/97 16:41 Page:305
          MINI XREF LISTING

B$JIT.CPFLAGS1.SLEAZE
       597**DCL       597--REDEF
B$JIT.DCB$
       671**DCL      1197>>ASSIGN
B$JIT.ERR.MID
       504**DCL       504--REDEF
B$JIT.JRESPEAK
       665**DCL       666--REDEF
B$JIT.ORIGINATOR_PORT.FROM_CR
       774**DCL       774--REDEF     775--REDEF
B$JIT.PNR
       678**DCL       678--REDEF
B$JIT.TSLINE
       772**DCL       773--REDEF
B$JIT$
      1088**DCL       498--IMP-PTR  1197>>ASSIGN
BUFNUM
        17**DCL        16--PROC     1198>>ASSIGN   1208>>ASSIGN   1227>>ASSIGN   1227>>ASSIGN   1228>>ASSIGN
CACHE$
      1191**DCL      1117--IMP-PTR  1205<<ASSIGN   1206>>ASSIGN   1206>>ASSIGN   1207>>ASSIGN   1212>>IF
      1215>>ASSIGN
F$DCB.ACTPOS
      1162**DCL      1162--REDEF
F$DCB.ARS
      1137**DCL      1137--REDEF
F$DCB.ATTR
      1155**DCL      1156--REDEF
F$DCB.BFR
      1181**DCL      1227<<ASSIGN   1227>>ASSIGN
F$DCB.BFR.BUFX
      1182**DCL      1208>>ASSIGN
F$DCB.BFR1
PL6.E3A0      #009=FMC$RELCACHE File=FMC$CACHE.:E05TSI                           TUE 07/29/97 16:41 Page:306
      1182**DCL      1228<<ASSIGN
F$DCB.BFR1.CX
      1183**DCL      1198>>ASSIGN
F$DCB.BORROW
      1170**DCL      1170--REDEF    1170--REDEF    1170--REDEF
F$DCB.DCBNAME.L
      1184**DCL      1184--IMP-SIZ
F$DCB.EOMCHAR
      1141**DCL      1141--REDEF
F$DCB.FLDID
      1165**DCL      1165--REDEF
F$DCB.FORM$
      1159**DCL      1159--REDEF
F$DCB.FSECT
      1175**DCL      1175--REDEF
F$DCB.FSN
      1152**DCL      1152--REDEF    1152--REDEF    1153--REDEF
F$DCB.HEADER$
      1158**DCL      1158--REDEF
F$DCB.IXTNSIZE
      1156**DCL      1156--REDEF
F$DCB.LASTSTA$
      1146**DCL      1146--REDEF
F$DCB.LVL
      1171**DCL      1171--REDEF
F$DCB.NAME.C
      1146**DCL      1146--REDEF
F$DCB.NOEOF
      1167**DCL      1167--REDEF
F$DCB.NRECS
      1157**DCL      1157--REDEF
F$DCB.NRECX
      1176**DCL      1176--REDEF
F$DCB.OHDR
      1168**DCL      1168--REDEF
F$DCB.ORG
PL6.E3A0      #009=FMC$RELCACHE File=FMC$CACHE.:E05TSI                           TUE 07/29/97 16:41 Page:307
      1151**DCL      1151--REDEF
F$DCB.PRECNO
      1174**DCL      1174--REDEF
F$DCB.RCSZ
      1179**DCL      1179--REDEF
F$DCB.RES
      1147**DCL      1147--REDEF
F$DCB.SETX
      1159**DCL      1159--REDEF
F$DCB.TAB$
      1158**DCL      1159--REDEF
F$DCB.TDA
      1173**DCL      1173--REDEF
F$DCB.WSN
      1148**DCL      1148--REDEF
FMC$CACHE
      1117**DCL      1215<<ASSIGN
FMC$CACHE.PAGE
      1123**DCL      1207>>ASSIGN
FMC$CACHE.USECNT
      1124**DCL      1206<<ASSIGN   1206>>ASSIGN   1212>>IF
FMC$CACHETBL
      1092**DCL      1205--ASSIGN
FMC_CACHE$
        27**DCL      1092--IMP-PTR  1205>>ASSIGN
FMC_CACHEPGCNT$
        28**DCL        28--IMP-PTR    28--REDEF
FMC_LOCK
        29**DCL      1203<>CALL     1225<>CALL
HASH
      1187**DCL      1198<<ASSIGN   1199>>IF       1205>>ASSIGN
HFC$LOCK
       124**DCL-ENT  1203--CALL
HFC$UNLOCK
       124**DCL-ENT  1225--CALL
JDCB$
PL6.E3A0      #009=FMC$RELCACHE File=FMC$CACHE.:E05TSI                           TUE 07/29/97 16:41 Page:308
      1188**DCL      1137--IMP-PTR  1197<<ASSIGN   1198>>ASSIGN   1208>>ASSIGN   1227>>ASSIGN   1227>>ASSIGN
      1228>>ASSIGN
MMJ$FIOP
      1194**DCL-ENT  1214--CALL
MMJ$UNMAPIOP
      1195**DCL-ENT  1210--CALL
PAGE
      1189**DCL      1207<<ASSIGN   1214<>CALL
P_NSCPU
      1067**DCL      1068--REDEF
P_RESOURCE.RES
       940**DCL      1007--REDEF
P_RESOURCE.RES.IOCACHE.CURRENT
       969**DCL      1217<<ASSIGN   1217>>ASSIGN   1218>>IF       1220>>ASSIGN
P_RESOURCE.RES.IOCACHE.MIN
       971**DCL      1218>>IF       1220<<ASSIGN
P_RESOURCE$
      1020**DCL       908--IMP-PTR  1217>>ASSIGN   1217>>ASSIGN   1218>>IF       1218>>IF       1220>>ASSIGN
      1220>>ASSIGN
P_UPTIME
      1056**DCL      1057--REDEF
VPNO
      1190**DCL      1208<<ASSIGN   1209>>IF       1210<>CALL
PL6.E3A0      #009=FMC$RELCACHE File=FMC$CACHE.:E05TSI                           TUE 07/29/97 16:41 Page:309
              *** CROSS REFERENCE LISTING ***
    **     DENOTES     IDENTIFIER DEFINITION
    <<                 IDENTIFIER'S VALUE SET
    >>                 IDENTIFIER'S VALUE USED
    <>                 IDENTIFIER SET AND/OR USED
    --                 IDENTIFIER REFERENCED
PL6.E3A0      #009=FMC$RELCACHE File=FMC$CACHE.:E05TSI                           TUE 07/29/97 16:41 Page:310
              MINI UREF LISTING

F$CFU$     108**DCL
FM$SET$     109**DCL
FMC$CACHEPGCNT      28**DCL
FMC$RELCACHE      16**PROC
FMC_CACHEPGCNT      28**DCL
FMC_CACHEPGCNT$R      28**DCL
FMC_CACHESIZ      27**DCL
FMC_CACHESIZN      27**DCL
FMC_MASK      29**DCL
FMC_MASKTBL      29**DCL
FMC_STATS$      27**DCL
FMC_TYPTBL$      27**DCL
FM_CFUWAIT     108**DCL
FM_CFUWGRB     108**DCL
FM_EOP     106**DCL
FM_FRMAX     105**DCL
FM_FRZERO     105**DCL
FM_GCT     109**DCL
FM_GIP     109**DCL
FM_GPSDA     106**DCL
FM_HASH     107**DCL
FM_MADSDA     106**DCL
FM_PADSDA     106**DCL
FM_SRMAX     105**DCL
FM_SRZERO     105**DCL
FM_SYSACCTX     109**DCL
FM_SYSSETX     109**DCL
FM_TRUNC     107**DCL
FM_WSQ     107**DCL
F_CWLK     108**DCL
F_CWUSER     108**DCL
F_DCBLOCK     107**DCL
PL6.E3A0      #009=FMC$RELCACHE File=FMC$CACHE.:E05TSI                           TUE 07/29/97 16:41 Page:311
N    1192**DCL
P$IODATA    1021**DCL
P$TABLE    1030**DCL
PH_CPU_MOUSED    1085**DCL
PH_JIT_ENTRY    1081**DCL
PH_MOUSE_ENTRY    1077**DCL
PH_MOUSE_LOCK    1084**DCL
PH_MOUSE_USERS    1074**DCL
PH_MOUSE_USER_NUMBER    1086**DCL
PH_MUS_PAGES    1076**DCL
P_AUIS    1062**DCL
P_AVAIL_MEM    1069**DCL
P_AVGAVAIL_MEM    1070**DCL
P_AVGETMF    1059**DCL
P_AVGIOL    1061**DCL
P_AVGRT90    1058**DCL
P_CALCNT    1046**DCL
P_CALCOMP    1047**DCL
P_DCTXMAX    1063**DCL
P_ETMF    1040**DCL
P_GATE    1066**DCL
P_IOLOAD    1060**DCL
P_IOS    1055**DCL
P_NINTS    1041**DCL
P_NOW    1065**DCL
P_NSCPU_SBIN    1068**DCL
P_RT90    1042**DCL
P_RUE#    1038**DCL
P_SCHD#    1039**DCL
P_STARTUP    1043**DCL
P_STOPTIME    1064**DCL
P_S_MIDLTIME    1051**DCL
P_S_MIDLWIO    1052**DCL
P_S_MIDLWRES    1053**DCL
P_S_MIDLWRESIO    1054**DCL
P_S_MXEQTIME    1050**DCL
PL6.E3A0      #009=FMC$RELCACHE File=FMC$CACHE.:E05TSI                           TUE 07/29/97 16:41 Page:312
P_S_USRVTIME    1049**DCL
P_S_UXEQTIME    1048**DCL
P_UPTIME_SBIN    1057**DCL
P_USRVTIME    1045**DCL
P_UXEQTIME    1044**DCL
WORD_    1075**DCL

PL6.E3A0      #010=FMC$RELSCU File=FMC$CACHE.:E05TSI                             TUE 07/29/97 16:41 Page:313
     1345        1        /*T***********************************************************/
     1346        2        /*T*                                                         */
     1347        3        /*T* Copyright (c) Bull HN Information Systems Inc., 1997    */
     1348        4        /*T*                                                         */
     1349        5        /*T***********************************************************/
     1350        6        /*D*     NAME:     FMC$RELSCU
     1351        7                 PURPOSE:  To free one or more pages of memory at the
     1352        8                           request of memory management.
     1353        9                 DESCRIPTION:
     1354       10                      We loop once through the type table to release
     1355       11                 any pages in the requested range.
     1356       12
     1357       13        */
     1358       14                 %EJECT;
PL6.E3A0      #010=FMC$RELSCU File=FMC$CACHE.:E05TSI                             TUE 07/29/97 16:41 Page:314
     1359       15        FMC$RELSCU: PROC(LOWER_PAGE,UPPER_PAGE,PAGES_RELEASED) ALTRET;
     1360       16
     1361       17    1   DCL LOWER_PAGE UBIN WORD;
     1362       18    1   DCL UPPER_PAGE UBIN WORD;
     1363       19    1   DCL PAGES_RELEASED UBIN WORD;
     1364       20        %INCLUDE FM_CACHE_R;
     1365       32        %INCLUDE FM_CACHE_C;
     1366       98        %INCLUDE FM_CNTRL_R;
     1367      107        %INCLUDE P_PMDAT_R;
     1368      415        /* */
     1369      416        %FMC$CACHE;
     1370      439        %FMC$TYPTBL;
     1371      444        /* */
     1372      445    1   DCL HFC$LOCK ENTRY(1);
     1373      446    1   DCL HFC$UNLOCK ENTRY(1);
     1374      447    1   DCL FMC$REMOVE ENTRY(1);
     1375      448    1   DCL MMJ$FIOP ENTRY(1);
     1376      449        /* */
     1377      450    1   DCL TYPE SBIN;
     1378      451    1   DCL FLINK SBIN;
     1379      452    1   DCL NEWFLINK SBIN;
     1380      453    1   DCL PP SBIN;
     1381      454    1   DCL I SBIN ;
     1382      455        /**/
     1383      456    1          PAGES_RELEASED = 0;
     1384      457    1          CALL HFC$LOCK(FMC_LOCK);
     1385      458    2          DO TYPE = 0 TO %CACHETYPES - 1;
     1386      459    2             FLINK = FMC$TYPTBL.OLDEST(TYPE);
     1387      460    3             DO WHILE (FLINK > 0);
     1388      461    3               PP = FMC$CACHETBL.PAGE(FLINK);
     1389      462    4               IF PP >= LOWER_PAGE AND PP <= UPPER_PAGE THEN DO;
     1390      463    4                  CALL FMC$REMOVE(FLINK);
     1391      464    4                  CALL MMJ$FIOP(PP);
     1392      465    4                  PAGES_RELEASED = PAGES_RELEASED+1;
     1393      466    4                  NEWFLINK = FMC$CACHETBL.FLINK(FLINK);
     1394      467    4                  FMC$CACHETBL(FLINK) = '0'B;
     1395      468                       %DEC_COUNTER(ITEM=IOCACHE);
PL6.E3A0      #010=FMC$RELSCU File=FMC$CACHE.:E05TSI                             TUE 07/29/97 16:41 Page:315
     1396      474    4                  FLINK = NEWFLINK;
     1397      475    4                  END;
     1398      476    3               ELSE
     1399      477    3                  FLINK = FMC$CACHETBL.FLINK(FLINK);
     1400      478    3               END;
     1401      479    2             END;
     1402      480    1          CALL HFC$UNLOCK(FMC_LOCK);
     1403      481    1          RETURN;
     1404      482    1   END FMC$RELSCU;
     1405      483        %EOD;

PL6.E3A0      #010=FMC$RELSCU File=FMC$CACHE.:E05TSI                             TUE 07/29/97 16:41 Page:316
--  Include file information  --

   P_PMDAT_C.:E05TOU  is referenced.
   P_PMDAT_R.:E05TOU  cannot be made into a system file and is referenced.
   FM_CNTRL_R.:E05TOU  cannot be made into a system file and is referenced.
   FM_CACHE_C.:E05TOU  is referenced.
   FM_CACHE_R.:E05TOU  cannot be made into a system file and is referenced.
      No diagnostics issued in procedure FMC$RELSCU.

   Procedure FMC$RELSCU requires 86 words for executable code.
   Procedure FMC$RELSCU requires 14 words of local(AUTO) storage.

PL6.E3A0      #010=FMC$RELSCU File=FMC$CACHE.:E05TSI                             TUE 07/29/97 16:41 Page:317

 Object Unit name= FMC$RELSCU                                 File name= FMC$CACHE.:E05TOU
 UTS= JUL 29 '97 16:41:53.64 TUE                              Compiler= PL-6/E31         Sev=      00
 SharedLib= :SHARED_SYSTEM                                    Alt SharedLib=


    ****  Control sections  ****

 Sect   Type Bound  Init  Size OctSiz  Section name(segment info)
    0   Proc  even  none    86    126  FMC$RELSCU
    1  RoData even  none     1      1  FMC$RELSCU

    ****  Entry defs  ****

                              Check   Calling
                             calling  sequence
  Sect OctLoc Primary Altret sequence   type   Parms  Name
     0      0   yes    yes     yes      Std        3  FMC$RELSCU

  ****  Entry refs  ****

         Check        Calling
        calling       sequence
Altret sequence SRef   type   Args  Name
         yes           Std       1 HFC$LOCK
         yes           Std       1 FMC$REMOVE
         yes           Std       1 MMJ$FIOP
         yes           Std       1 HFC$UNLOCK
                       nStd      0 X66_AUTO_3
                       Std       0 B_CONSPOOL_D
                       nStd      0 X66_ARET
PL6.E3A0      #010=FMC$RELSCU File=FMC$CACHE.:E05TSI                             TUE 07/29/97 16:41 Page:318

  ****  Data refs  ****

  Flags:  r = read only, s = secondary
Flgs Name                             Flgs Name                             Flgs Name
     FMC_CACHE$                            FMC_TYPTBL$                           FMC_CACHEPGCNT$
     FMC_LOCK                              P_RESOURCE$                           P_UPTIME
     P_NSCPU                               B_VECTNIL

  ****  Segment refs  ****

  Flags:  r = read only, s = secondary
Flgs Name                             Flgs Name                             Flgs Name
     ISSID
PL6.E3A0      #010=FMC$RELSCU File=FMC$CACHE.:E05TSI                             TUE 07/29/97 16:41 Page:319


     1345        1        /*T***********************************************************/
     1346        2        /*T*                                                         */
     1347        3        /*T* Copyright (c) Bull HN Information Systems Inc., 1997    */
     1348        4        /*T*                                                         */
     1349        5        /*T***********************************************************/
     1350        6        /*D*     NAME:     FMC$RELSCU
     1351        7                 PURPOSE:  To free one or more pages of memory at the
     1352        8                           request of memory management.
     1353        9                 DESCRIPTION:
     1354       10                      We loop once through the type table to release
     1355       11                 any pages in the requested range.
     1356       12
     1357       13        */
     1358       14                 %EJECT;
PL6.E3A0      #010=FMC$RELSCU File=FMC$CACHE.:E05TSI                             TUE 07/29/97 16:41 Page:320
     1359       15        FMC$RELSCU: PROC(LOWER_PAGE,UPPER_PAGE,PAGES_RELEASED) ALTRET;

     15  0 000000   000000 700200 xent  FMC$RELSCU   TSX0  ! X66_AUTO_3
         0 000001   000016 000003                    ZERO    14,3

     1360       16
     1361       17    1   DCL LOWER_PAGE UBIN WORD;
     1362       18    1   DCL UPPER_PAGE UBIN WORD;
     1363       19    1   DCL PAGES_RELEASED UBIN WORD;
     1364       20        %INCLUDE FM_CACHE_R;
     1365       32        %INCLUDE FM_CACHE_C;
     1366       98        %INCLUDE FM_CNTRL_R;
     1367      107        %INCLUDE P_PMDAT_R;
     1368      415        /* */
     1369      416        %FMC$CACHE;
     1370      439        %FMC$TYPTBL;
     1371      444        /* */
     1372      445    1   DCL HFC$LOCK ENTRY(1);
     1373      446    1   DCL HFC$UNLOCK ENTRY(1);
     1374      447    1   DCL FMC$REMOVE ENTRY(1);
     1375      448    1   DCL MMJ$FIOP ENTRY(1);
     1376      449        /* */
     1377      450    1   DCL TYPE SBIN;
     1378      451    1   DCL FLINK SBIN;
     1379      452    1   DCL NEWFLINK SBIN;
     1380      453    1   DCL PP SBIN;
     1381      454    1   DCL I SBIN ;
     1382      455        /**/
     1383      456    1          PAGES_RELEASED = 0;

    456  0 000002   200005 470500                    LDP0    @PAGES_RELEASED,,AUTO
         0 000003   000000 450100                    STZ     0,,PR0

     1384      457    1          CALL HFC$LOCK(FMC_LOCK);

    457  0 000004   000000 630400 1                  EPPR0   0
         0 000005   000017 631400 xsym               EPPR1   B_VECTNIL+15
PL6.E3A0      #010=FMC$RELSCU File=FMC$CACHE.:E05TSI                             TUE 07/29/97 16:41 Page:321
         0 000006   000000 701000 xent               TSX1    HFC$LOCK
         0 000007   000000 011000                    NOP     0

     1385      458    2          DO TYPE = 0 TO %CACHETYPES - 1;

    458  0 000010   200006 450100                    STZ     TYPE,,AUTO
         0 000011   000116 710000 0                  TRA     s:479+1

     1386      459    2             FLINK = FMC$TYPTBL.OLDEST(TYPE);

    459  0 000012   200006 235100                    LDA     TYPE,,AUTO
         0 000013   000001 735000                    ALS     1
         0 000014   000000 470400 xsym               LDP0    FMC_TYPTBL$
         0 000015   000000 235105                    LDA     0,AL,PR0
         0 000016   200007 755100                    STA     FLINK,,AUTO

     1387      460    3             DO WHILE (FLINK > 0);

    460  0 000017   000115 604400 0                  TMOZ    s:479

     1388      461    3               PP = FMC$CACHETBL.PAGE(FLINK);

    461  0 000020   200007 236100                    LDQ     FLINK,,AUTO
         0 000021   000006 402007                    MPY     6,DL
         0 000022   000000 470400 xsym               LDP0    FMC_CACHE$
         0 000023   000002 236106                    LDQ     2,QL,PR0
         0 000024   000022 772000                    QRL     18
         0 000025   200011 756100                    STQ     PP,,AUTO

     1389      462    4               IF PP >= LOWER_PAGE AND PP <= UPPER_PAGE THEN DO;

    462  0 000026   200003 471500                    LDP1    @LOWER_PAGE,,AUTO
         0 000027   000106 604000 0                  TMI     s:477
         0 000030   100000 116100                    CMPQ    0,,PR1
         0 000031   000106 602000 0                  TNC     s:477
         0 000032   200004 473500                    LDP3    @UPPER_PAGE,,AUTO
         0 000033   000000 116003                    CMPQ    0,DU
PL6.E3A0      #010=FMC$RELSCU File=FMC$CACHE.:E05TSI                             TUE 07/29/97 16:41 Page:322
         0 000034   000040 604000 0                  TMI     s:463
         0 000035   300000 116100                    CMPQ    0,,PR3
         0 000036   000040 600000 0                  TZE     s:463
         0 000037   000106 603000 0                  TRC     s:477

     1390      463    4                  CALL FMC$REMOVE(FLINK);

    463  0 000040   200007 634500                    EPPR4   FLINK,,AUTO
         0 000041   200014 454500                    STP4    PP+3,,AUTO
         0 000042   200014 630500                    EPPR0   PP+3,,AUTO
         0 000043   000017 631400 xsym               EPPR1   B_VECTNIL+15
         0 000044   000000 701000 xent               TSX1    FMC$REMOVE
         0 000045   000000 011000                    NOP     0

     1391      464    4                  CALL MMJ$FIOP(PP);

    464  0 000046   200011 630500                    EPPR0   PP,,AUTO
         0 000047   200014 450500                    STP0    PP+3,,AUTO
         0 000050   200014 630500                    EPPR0   PP+3,,AUTO
         0 000051   000017 631400 xsym               EPPR1   B_VECTNIL+15
         0 000052   000000 701000 xent               TSX1    MMJ$FIOP
         0 000053   000000 011000                    NOP     0

     1392      465    4                  PAGES_RELEASED = PAGES_RELEASED+1;

    465  0 000054   200005 470500                    LDP0    @PAGES_RELEASED,,AUTO
         0 000055   000000 235100                    LDA     0,,PR0
         0 000056   000001 035007                    ADLA    1,DL
         0 000057   000000 755100                    STA     0,,PR0

     1393      466    4                  NEWFLINK = FMC$CACHETBL.FLINK(FLINK);

    466  0 000060   200007 236100                    LDQ     FLINK,,AUTO
         0 000061   000006 402007                    MPY     6,DL
         0 000062   000000 471400 xsym               LDP1    FMC_CACHE$
         0 000063   100001 236106                    LDQ     1,QL,PR1
         0 000064   000022 772000                    QRL     18
PL6.E3A0      #010=FMC$RELSCU File=FMC$CACHE.:E05TSI                             TUE 07/29/97 16:41 Page:323
         0 000065   200010 756100                    STQ     NEWFLINK,,AUTO

     1394      467    4                  FMC$CACHETBL(FLINK) = '0'B;

    467  0 000066   200007 236100                    LDQ     FLINK,,AUTO
         0 000067   000030 402007                    MPY     24,DL
         0 000070   000106 100400                    MLR     fill='000'O
         0 000071   000002 000001 xsym               ADSC9   B_VECTNIL+2              cn=0,n=1
         0 000072   100000 000030                    ADSC9   0,Q,PR1                  cn=0,n=24

     1395      468                       %DEC_COUNTER(ITEM=IOCACHE);

    469  0 000073   000000 471400 xsym               LDP1    P_RESOURCE$
         0 000074   100055 235100                    LDA     45,,PR1
         0 000075   000001 135007                    SBLA    1,DL
         0 000076   100055 755100                    STA     45,,PR1

    470  0 000077   100055 236100                    LDQ     45,,PR1
         0 000100   100057 116100                    CMPQ    47,,PR1
         0 000101   000103 603000 0                  TRC     s:474

    472  0 000102   100057 756100                    STQ     47,,PR1

     1396      474    4                  FLINK = NEWFLINK;

    474  0 000103   200010 235100                    LDA     NEWFLINK,,AUTO
         0 000104   200007 755100                    STA     FLINK,,AUTO

     1397      475    4                  END;

    475  0 000105   000113 710000 0                  TRA     s:478

     1398      476    3               ELSE
     1399      477    3                  FLINK = FMC$CACHETBL.FLINK(FLINK);

    477  0 000106   200007 236100                    LDQ     FLINK,,AUTO
         0 000107   000006 402007                    MPY     6,DL
PL6.E3A0      #010=FMC$RELSCU File=FMC$CACHE.:E05TSI                             TUE 07/29/97 16:41 Page:324
         0 000110   000001 236106                    LDQ     1,QL,PR0
         0 000111   000022 772000                    QRL     18
         0 000112   200007 756100                    STQ     FLINK,,AUTO

     1400      478    3               END;

    478  0 000113   200007 235100                    LDA     FLINK,,AUTO
         0 000114   000020 605400 0                  TPNZ    s:461

     1401      479    2             END;

    479  0 000115   200006 054100                    AOS     TYPE,,AUTO
         0 000116   200006 235100                    LDA     TYPE,,AUTO
         0 000117   000012 115007                    CMPA    10,DL
         0 000120   000012 604400 0                  TMOZ    s:459

     1402      480    1          CALL HFC$UNLOCK(FMC_LOCK);

    480  0 000121   000000 630400 1                  EPPR0   0
         0 000122   000017 631400 xsym               EPPR1   B_VECTNIL+15
         0 000123   000000 701000 xent               TSX1    HFC$UNLOCK
         0 000124   000000 011000                    NOP     0

     1403      481    1          RETURN;

    481  0 000125   000000 702200 xent               TSX2  ! X66_ARET

(unnamed)
 Sect OctLoc
   1     000   000000 006000                                                    ....
     1404      482    1   END FMC$RELSCU;
     1405      483        %EOD;

PL6.E3A0      #010=FMC$RELSCU File=FMC$CACHE.:E05TSI                             TUE 07/29/97 16:41 Page:325
--  Include file information  --

   P_PMDAT_C.:E05TOU  is referenced.
   P_PMDAT_R.:E05TOU  cannot be made into a system file and is referenced.
   FM_CNTRL_R.:E05TOU  cannot be made into a system file and is referenced.
   FM_CACHE_C.:E05TOU  is referenced.
   FM_CACHE_R.:E05TOU  cannot be made into a system file and is referenced.
      No diagnostics issued in procedure FMC$RELSCU.
PL6.E3A0      #010=FMC$RELSCU File=FMC$CACHE.:E05TSI                             TUE 07/29/97 16:41 Page:326

 **** Variables and constants ****

  ****  Auto variables  ****

  ****  Scalars and arrays  ****
OctLoc.c.b A Datatyp(siz) R M Lvl/name                 OctLoc.c.b A Datatyp(siz) R M Lvl/name

     3-0-0/w PTR         r     1 @LOWER_PAGE                5-0-0/w PTR         r     1 @PAGES_RELEASED
     4-0-0/w PTR         r     1 @UPPER_PAGE                7-0-0/w SBIN        r     1 FLINK
    *0-0-0/w UBIN        r     1 LOWER_PAGE                10-0-0/w SBIN        r     1 NEWFLINK
    *0-0-0/w UBIN        r     1 PAGES_RELEASED            11-0-0/w SBIN        r     1 PP
     6-0-0/w SBIN        r     1 TYPE                      *0-0-0/w UBIN        r     1 UPPER_PAGE

  ****  SYMREF variables  ****

  ****  Scalars and arrays  ****
OctLoc.c.b A Datatyp(siz) R M Lvl/name                 OctLoc.c.b A Datatyp(siz) R M Lvl/name

     0-0-0/w PTR         r     1 FMC_CACHE$                 0-0-0/w PTR         r     1 FMC_CACHEPGCNT$
     0-0-0/b BIT (72)    r     1 FMC_LOCK                   0-0-0/w PTR         r     1 FMC_TYPTBL$
     0-0-0/w PTR         r     1 P_RESOURCE$

  ****  BASED and DCB variables  ****

  ****  Scalars and arrays  ****
OctLoc.c.b A Datatyp(siz) R M Lvl/name                 OctLoc.c.b A Datatyp(siz) R M Lvl/name

     0-0-0/w STRC(216)   r     1 FMC$CACHETBL(0:0)
     0-0-0/w STRC(72)    r     1 FMC$TYPTBL(0:10)
     0-0-0/w STRC(2268)  r     1 P_RESOURCE


   Procedure FMC$RELSCU requires 86 words for executable code.
   Procedure FMC$RELSCU requires 14 words of local(AUTO) storage.
PL6.E3A0      #010=FMC$RELSCU File=FMC$CACHE.:E05TSI                             TUE 07/29/97 16:41 Page:327
          *** CROSS REFERENCE LISTING ***
**     DENOTES     IDENTIFIER DEFINITION
<<                 IDENTIFIER'S VALUE SET
>>                 IDENTIFIER'S VALUE USED
<>                 IDENTIFIER SET AND/OR USED
--                 IDENTIFIER REFERENCED
PL6.E3A0      #010=FMC$RELSCU File=FMC$CACHE.:E05TSI                             TUE 07/29/97 16:41 Page:328
          MINI XREF LISTING

FLINK
       451**DCL       459<<ASSIGN    460>>DOWHILE   461>>ASSIGN    463<>CALL      466>>ASSIGN    467>>ASSIGN
       474<<ASSIGN    477<<ASSIGN    477>>ASSIGN
FMC$CACHETBL
       418**DCL       467<<ASSIGN
FMC$CACHETBL.FLINK
       424**DCL       466>>ASSIGN    477>>ASSIGN
FMC$CACHETBL.PAGE
       426**DCL       461>>ASSIGN
FMC$REMOVE
       447**DCL-ENT   463--CALL
FMC$TYPTBL.OLDEST
       441**DCL       459>>ASSIGN
FMC_CACHE$
        28**DCL       418--IMP-PTR   461>>ASSIGN    466>>ASSIGN    467>>ASSIGN    477>>ASSIGN
FMC_CACHEPGCNT$
        29**DCL        29--IMP-PTR    29--REDEF
FMC_LOCK
        30**DCL       457<>CALL      480<>CALL
FMC_TYPTBL$
        28**DCL       440--IMP-PTR   459>>ASSIGN
HFC$LOCK
       445**DCL-ENT   457--CALL
HFC$UNLOCK
       446**DCL-ENT   480--CALL
LOWER_PAGE
        17**DCL        15--PROC      462>>IF
MMJ$FIOP
       448**DCL-ENT   464--CALL
NEWFLINK
       452**DCL       466<<ASSIGN    474>>ASSIGN
PAGES_RELEASED
PL6.E3A0      #010=FMC$RELSCU File=FMC$CACHE.:E05TSI                             TUE 07/29/97 16:41 Page:329
        19**DCL        15--PROC      456<<ASSIGN    465<<ASSIGN    465>>ASSIGN
PP
       453**DCL       461<<ASSIGN    462>>IF        462>>IF        464<>CALL
P_NSCPU
       395**DCL       396--REDEF
P_RESOURCE.RES
       268**DCL       335--REDEF
P_RESOURCE.RES.IOCACHE.CURRENT
       297**DCL       469<<ASSIGN    469>>ASSIGN    470>>IF        472>>ASSIGN
P_RESOURCE.RES.IOCACHE.MIN
       299**DCL       470>>IF        472<<ASSIGN
P_RESOURCE$
       348**DCL       236--IMP-PTR   469>>ASSIGN    469>>ASSIGN    470>>IF        470>>IF        472>>ASSIGN
       472>>ASSIGN
P_UPTIME
       384**DCL       385--REDEF
TYPE
       450**DCL       458<<DOINDEX   459>>ASSIGN
UPPER_PAGE
        18**DCL        15--PROC      462>>IF
PL6.E3A0      #010=FMC$RELSCU File=FMC$CACHE.:E05TSI                             TUE 07/29/97 16:41 Page:330
              *** CROSS REFERENCE LISTING ***
    **     DENOTES     IDENTIFIER DEFINITION
    <<                 IDENTIFIER'S VALUE SET
    >>                 IDENTIFIER'S VALUE USED
    <>                 IDENTIFIER SET AND/OR USED
    --                 IDENTIFIER REFERENCED
PL6.E3A0      #010=FMC$RELSCU File=FMC$CACHE.:E05TSI                             TUE 07/29/97 16:41 Page:331
              MINI UREF LISTING

FMC$CACHEPGCNT      29**DCL
FMC$RELSCU      15**PROC
FMC_CACHEPGCNT      29**DCL
FMC_CACHEPGCNT$R      29**DCL
FMC_CACHESIZ      28**DCL
FMC_CACHESIZN      28**DCL
FMC_LIMITS     106**DCL
FMC_MASK      30**DCL
FMC_MASKTBL      30**DCL
FMC_STATS$      28**DCL
FM_WRCMP     106**DCL
I     454**DCL
NI_IOLEAPERS     106**DCL
P$IODATA     349**DCL
P$TABLE     358**DCL
PH_CPU_MOUSED     413**DCL
PH_JIT_ENTRY     409**DCL
PH_MOUSE_ENTRY     405**DCL
PH_MOUSE_LOCK     412**DCL
PH_MOUSE_USERS     402**DCL
PH_MOUSE_USER_NUMBER     414**DCL
PH_MUS_PAGES     404**DCL
P_AUIS     390**DCL
P_AVAIL_MEM     397**DCL
P_AVGAVAIL_MEM     398**DCL
P_AVGETMF     387**DCL
P_AVGIOL     389**DCL
P_AVGRT90     386**DCL
P_CALCNT     374**DCL
P_CALCOMP     375**DCL
P_DCTXMAX     391**DCL
P_ETMF     368**DCL
PL6.E3A0      #010=FMC$RELSCU File=FMC$CACHE.:E05TSI                             TUE 07/29/97 16:41 Page:332
P_GATE     394**DCL
P_IOLOAD     388**DCL
P_IOS     383**DCL
P_NINTS     369**DCL
P_NOW     393**DCL
P_NSCPU_SBIN     396**DCL
P_RT90     370**DCL
P_RUE#     366**DCL
P_SCHD#     367**DCL
P_STARTUP     371**DCL
P_STOPTIME     392**DCL
P_S_MIDLTIME     379**DCL
P_S_MIDLWIO     380**DCL
P_S_MIDLWRES     381**DCL
P_S_MIDLWRESIO     382**DCL
P_S_MXEQTIME     378**DCL
P_S_USRVTIME     377**DCL
P_S_UXEQTIME     376**DCL
P_UPTIME_SBIN     385**DCL
P_USRVTIME     373**DCL
P_UXEQTIME     372**DCL
WORD_     403**DCL

PL6.E3A0      #011=FMC$RELPG File=FMC$CACHE.:E05TSI                              TUE 07/29/97 16:42 Page:333
     1406        1        /*T***********************************************************/
     1407        2        /*T*                                                         */
     1408        3        /*T* Copyright (c) Bull HN Information Systems Inc., 1997    */
     1409        4        /*T*                                                         */
     1410        5        /*T***********************************************************/
     1411        6        /*D*     NAME:     FMC$RELPG
     1412        7                 PURPOSE:  To free one or more pages of memory at the
     1413        8                           request of memory management.
     1414        9                 DESCRIPTION:
     1415       10                      First we loop once through the type table to release
     1416       11                 any pages that have expired.
     1417       12
     1418       13                      If we haven't freed anything, then we will try to
     1419       14                 free the "most expired" page.  Loop through the type table
     1420       15                 again, looking at the oldest entries, remembering which
     1421       16                 one is "most expired".  Then free that page.
     1422       17        */
     1423       18                 %EJECT;
PL6.E3A0      #011=FMC$RELPG File=FMC$CACHE.:E05TSI                              TUE 07/29/97 16:42 Page:334
     1424       19        FMC$RELPG: PROC ALTRET;
     1425       20               %INCLUDE FM_CACHE_R;
     1426       32               %INCLUDE FM_CACHE_C;
     1427       98               %INCLUDE FM_CNTRL_R;
     1428      107               %INCLUDE P_PMDAT_R;
     1429      415        /* */
     1430      416               %FMC$CACHE;
     1431      439               %FMC$TYPTBL;
     1432      444        /* */
     1433      445    1          DCL SSS$SYSTIME ENTRY(1);
     1434      446    1          DCL FMC$REMOVE ENTRY(1);
     1435      447    1          DCL MMJ$FIOP ENTRY(1);
     1436      448        /* */
     1437      449    1          DCL N SBIN;
     1438      450    1          DCL TYPE SBIN;
     1439      451    1          DCL FLINK SBIN;
     1440      452    1          DCL NEWFLINK SBIN;
     1441      453    1          DCL CURTIME UBIN;
     1442      454    1          DCL PP SBIN;
     1443      455    1          DCL I SBIN;
     1444      456    1          DCL J SBIN;
     1445      457    1          DCL OLDEXP SBIN;
     1446      458    1          DCL NEWEXP SBIN;
     1447      459        /* */
     1448      460    1          N=0;
     1449      461    1          CALL SSS$SYSTIME(CURTIME);
     1450      462               /*FMC$RELPG is called with FMC_LOCK locked, and leaves with it locked*/
     1451      463
     1452      464    2          DO TYPE=0 TO %CACHETYPES-1;
     1453      465    2             FLINK=FMC$TYPTBL.OLDEST(TYPE);
     1454      466    3             DO WHILE(FLINK > 0);
     1455      467    3                IF CURTIME-FMC$CACHETBL.AGE(FLINK) > FMC_LIMITS.EXPIRE(TYPE) THEN
     1456      468    4                   DO;   /* FREE ENTRY */
     1457      469    4                   CALL FMC$REMOVE(FLINK);
     1458      470    4                   PP=FMC$CACHETBL.PAGE(FLINK);
     1459      471    4                   CALL MMJ$FIOP(PP);
     1460      472    4                   N=N+1;
PL6.E3A0      #011=FMC$RELPG File=FMC$CACHE.:E05TSI                              TUE 07/29/97 16:42 Page:335
     1461      473    4                   NEWFLINK=FMC$CACHETBL.FLINK(FLINK);
     1462      474    4                   FMC$CACHETBL(FLINK)='0'B;
     1463      475                        %DEC_COUNTER(ITEM=IOCACHE);
     1464      481    4                   FLINK=NEWFLINK;
     1465      482    4                   END;  /* FREE ENTRY */
     1466      483    3                ELSE
     1467      484    3                   FLINK=-1;
     1468      485    3             END;  /* WHILE */
     1469      486    2          END;  /* DO TYPE */
     1470      487
     1471      488    1          IF N = 0 THEN
     1472      489    2             DO;  /* FREE "MOST EXPIRED" PAGE */
     1473      490    2             N=-1;
     1474      491    2             OLDEXP=0;
     1475      492    3             DO I=0 TO %CACHETYPES-1;
     1476      493    3                J=FMC$TYPTBL.OLDEST(I);
     1477      494    3                IF J > 0 THEN
     1478      495    4                   DO;   /* CHECK FOR OLDEST */
     1479      496    4                   NEWEXP=CURTIME-FMC$CACHETBL.AGE(J)-FMC_LIMITS.EXPIRE(I);
     1480      497    4                   IF N < 0 OR (NEWEXP > OLDEXP) THEN
     1481      498    5                      DO;   /* OLDEST */
     1482      499    5                      N=J;
     1483      500    5                      OLDEXP=NEWEXP;
     1484      501    5                      END;  /* OLDEST */
     1485      502    4                   END;  /* CHECK FOR OLDEST */
     1486      503    3             END;  /* DO I */
     1487      504    2             CALL FMC$REMOVE(N);
     1488      505    2             PP=FMC$CACHETBL.PAGE(N);
     1489      506    2             CALL MMJ$FIOP(PP);
     1490      507    2             FMC$CACHETBL(N)='0'B;
     1491      508                  %DEC_COUNTER(ITEM=IOCACHE);
     1492      514    2             END;  /* FREE "MOST EXPIRED" PAGE */
     1493      515
     1494      516    1          RETURN;
     1495      517    1          END FMC$RELPG;
     1496      518               %EOD;

PL6.E3A0      #011=FMC$RELPG File=FMC$CACHE.:E05TSI                              TUE 07/29/97 16:42 Page:336
--  Include file information  --

   P_PMDAT_C.:E05TOU  is referenced.
   P_PMDAT_R.:E05TOU  cannot be made into a system file and is referenced.
   FM_CNTRL_R.:E05TOU  cannot be made into a system file and is referenced.
   FM_CACHE_C.:E05TOU  is referenced.
   FM_CACHE_R.:E05TOU  cannot be made into a system file and is referenced.
      No diagnostics issued in procedure FMC$RELPG.

   Procedure FMC$RELPG requires 143 words for executable code.
   Procedure FMC$RELPG requires 16 words of local(AUTO) storage.

PL6.E3A0      #011=FMC$RELPG File=FMC$CACHE.:E05TSI                              TUE 07/29/97 16:42 Page:337

 Object Unit name= FMC$RELPG                                  File name= FMC$CACHE.:E05TOU
 UTS= JUL 29 '97 16:42:00.44 TUE                              Compiler= PL-6/E31         Sev=      00
 SharedLib= :SHARED_SYSTEM                                    Alt SharedLib=


    ****  Control sections  ****

 Sect   Type Bound  Init  Size OctSiz  Section name(segment info)
    0   Proc  even  none   143    217  FMC$RELPG

    ****  Entry defs  ****

                              Check   Calling
                             calling  sequence
  Sect OctLoc Primary Altret sequence   type   Parms  Name
     0      0   yes    yes     yes      Std        0  FMC$RELPG

  ****  Entry refs  ****

         Check        Calling
        calling       sequence
Altret sequence SRef   type   Args  Name
         yes           Std       1 SSS$SYSTIME
         yes           Std       1 FMC$REMOVE
         yes           Std       1 MMJ$FIOP
                       nStd      0 X66_AUTO_0
                       Std       0 B_CONSPOOL_D
                       nStd      0 X66_ARET

  ****  Data refs  ****

  Flags:  r = read only, s = secondary
Flgs Name                             Flgs Name                             Flgs Name
     FMC_CACHE$                            FMC_TYPTBL$                           FMC_CACHEPGCNT$
     FMC_LIMITS                            P_RESOURCE$                           P_UPTIME
     P_NSCPU                               B_VECTNIL
PL6.E3A0      #011=FMC$RELPG File=FMC$CACHE.:E05TSI                              TUE 07/29/97 16:42 Page:338


     1406        1        /*T***********************************************************/
     1407        2        /*T*                                                         */
     1408        3        /*T* Copyright (c) Bull HN Information Systems Inc., 1997    */
     1409        4        /*T*                                                         */
     1410        5        /*T***********************************************************/
     1411        6        /*D*     NAME:     FMC$RELPG
     1412        7                 PURPOSE:  To free one or more pages of memory at the
     1413        8                           request of memory management.
     1414        9                 DESCRIPTION:
     1415       10                      First we loop once through the type table to release
     1416       11                 any pages that have expired.
     1417       12
     1418       13                      If we haven't freed anything, then we will try to
     1419       14                 free the "most expired" page.  Loop through the type table
     1420       15                 again, looking at the oldest entries, remembering which
     1421       16                 one is "most expired".  Then free that page.
     1422       17        */
     1423       18                 %EJECT;
PL6.E3A0      #011=FMC$RELPG File=FMC$CACHE.:E05TSI                              TUE 07/29/97 16:42 Page:339
     1424       19        FMC$RELPG: PROC ALTRET;

     19  0 000000   000000 700200 xent  FMC$RELPG    TSX0  ! X66_AUTO_0
         0 000001   000020 000000                    ZERO    16,0

     1425       20               %INCLUDE FM_CACHE_R;
     1426       32               %INCLUDE FM_CACHE_C;
     1427       98               %INCLUDE FM_CNTRL_R;
     1428      107               %INCLUDE P_PMDAT_R;
     1429      415        /* */
     1430      416               %FMC$CACHE;
     1431      439               %FMC$TYPTBL;
     1432      444        /* */
     1433      445    1          DCL SSS$SYSTIME ENTRY(1);
     1434      446    1          DCL FMC$REMOVE ENTRY(1);
     1435      447    1          DCL MMJ$FIOP ENTRY(1);
     1436      448        /* */
     1437      449    1          DCL N SBIN;
     1438      450    1          DCL TYPE SBIN;
     1439      451    1          DCL FLINK SBIN;
     1440      452    1          DCL NEWFLINK SBIN;
     1441      453    1          DCL CURTIME UBIN;
     1442      454    1          DCL PP SBIN;
     1443      455    1          DCL I SBIN;
     1444      456    1          DCL J SBIN;
     1445      457    1          DCL OLDEXP SBIN;
     1446      458    1          DCL NEWEXP SBIN;
     1447      459        /* */
     1448      460    1          N=0;

    460  0 000002   200003 450100                    STZ     N,,AUTO

     1449      461    1          CALL SSS$SYSTIME(CURTIME);

    461  0 000003   200007 630500                    EPPR0   CURTIME,,AUTO
         0 000004   200016 450500                    STP0    NEWEXP+2,,AUTO
         0 000005   200016 630500                    EPPR0   NEWEXP+2,,AUTO
PL6.E3A0      #011=FMC$RELPG File=FMC$CACHE.:E05TSI                              TUE 07/29/97 16:42 Page:340
         0 000006   000017 631400 xsym               EPPR1   B_VECTNIL+15
         0 000007   000000 701000 xent               TSX1    SSS$SYSTIME
         0 000010   000000 011000                    NOP     0

     1450      462               /*FMC$RELPG is called with FMC_LOCK locked, and leaves with it locked*/
     1451      463
     1452      464    2          DO TYPE=0 TO %CACHETYPES-1;

    464  0 000011   200004 450100                    STZ     TYPE,,AUTO
         0 000012   000111 710000 0                  TRA     s:486+1

     1453      465    2             FLINK=FMC$TYPTBL.OLDEST(TYPE);

    465  0 000013   200004 235100                    LDA     TYPE,,AUTO
         0 000014   000001 735000                    ALS     1
         0 000015   000000 470400 xsym               LDP0    FMC_TYPTBL$
         0 000016   000000 235105                    LDA     0,AL,PR0
         0 000017   200005 755100                    STA     FLINK,,AUTO

     1454      466    3             DO WHILE(FLINK > 0);

    466  0 000020   000110 604400 0                  TMOZ    s:486

     1455      467    3                IF CURTIME-FMC$CACHETBL.AGE(FLINK) > FMC_LIMITS.EXPIRE(TYPE) THEN

    467  0 000021   200005 236100                    LDQ     FLINK,,AUTO
         0 000022   000006 402007                    MPY     6,DL
         0 000023   000000 470400 xsym               LDP0    FMC_CACHE$
         0 000024   000000 620006                    EAX0    0,QL
         0 000025   200007 236100                    LDQ     CURTIME,,AUTO
         0 000026   000005 136110                    SBLQ    5,X0,PR0
         0 000027   200004 235100                    LDA     TYPE,,AUTO
         0 000030   000001 735000                    ALS     1
         0 000031   000000 116005 xsym               CMPQ    FMC_LIMITS,AL
         0 000032   000104 604400 0                  TMOZ    s:484

     1456      468    4                   DO;   /* FREE ENTRY */
PL6.E3A0      #011=FMC$RELPG File=FMC$CACHE.:E05TSI                              TUE 07/29/97 16:42 Page:341

     1457      469    4                   CALL FMC$REMOVE(FLINK);

    469  0 000033   200005 631500                    EPPR1   FLINK,,AUTO
         0 000034   200016 451500                    STP1    NEWEXP+2,,AUTO
         0 000035   200016 630500                    EPPR0   NEWEXP+2,,AUTO
         0 000036   000017 631400 xsym               EPPR1   B_VECTNIL+15
         0 000037   000000 701000 xent               TSX1    FMC$REMOVE
         0 000040   000000 011000                    NOP     0

     1458      470    4                   PP=FMC$CACHETBL.PAGE(FLINK);

    470  0 000041   200005 236100                    LDQ     FLINK,,AUTO
         0 000042   000006 402007                    MPY     6,DL
         0 000043   000000 470400 xsym               LDP0    FMC_CACHE$
         0 000044   000002 236106                    LDQ     2,QL,PR0
         0 000045   000022 772000                    QRL     18
         0 000046   200010 756100                    STQ     PP,,AUTO

     1459      471    4                   CALL MMJ$FIOP(PP);

    471  0 000047   200010 631500                    EPPR1   PP,,AUTO
         0 000050   200016 451500                    STP1    NEWEXP+2,,AUTO
         0 000051   200016 630500                    EPPR0   NEWEXP+2,,AUTO
         0 000052   000017 631400 xsym               EPPR1   B_VECTNIL+15
         0 000053   000000 701000 xent               TSX1    MMJ$FIOP
         0 000054   000000 011000                    NOP     0

     1460      472    4                   N=N+1;

    472  0 000055   200003 054100                    AOS     N,,AUTO

     1461      473    4                   NEWFLINK=FMC$CACHETBL.FLINK(FLINK);

    473  0 000056   200005 236100                    LDQ     FLINK,,AUTO
         0 000057   000006 402007                    MPY     6,DL
         0 000060   000000 470400 xsym               LDP0    FMC_CACHE$
PL6.E3A0      #011=FMC$RELPG File=FMC$CACHE.:E05TSI                              TUE 07/29/97 16:42 Page:342
         0 000061   000001 236106                    LDQ     1,QL,PR0
         0 000062   000022 772000                    QRL     18
         0 000063   200006 756100                    STQ     NEWFLINK,,AUTO

     1462      474    4                   FMC$CACHETBL(FLINK)='0'B;

    474  0 000064   200005 236100                    LDQ     FLINK,,AUTO
         0 000065   000030 402007                    MPY     24,DL
         0 000066   000106 100400                    MLR     fill='000'O
         0 000067   000002 000001 xsym               ADSC9   B_VECTNIL+2              cn=0,n=1
         0 000070   000000 000030                    ADSC9   0,Q,PR0                  cn=0,n=24

     1463      475                        %DEC_COUNTER(ITEM=IOCACHE);

    476  0 000071   000000 470400 xsym               LDP0    P_RESOURCE$
         0 000072   000055 235100                    LDA     45,,PR0
         0 000073   000001 135007                    SBLA    1,DL
         0 000074   000055 755100                    STA     45,,PR0

    477  0 000075   000055 236100                    LDQ     45,,PR0
         0 000076   000057 116100                    CMPQ    47,,PR0
         0 000077   000101 603000 0                  TRC     s:481

    479  0 000100   000057 756100                    STQ     47,,PR0

     1464      481    4                   FLINK=NEWFLINK;

    481  0 000101   200006 235100                    LDA     NEWFLINK,,AUTO
         0 000102   200005 755100                    STA     FLINK,,AUTO

     1465      482    4                   END;  /* FREE ENTRY */

    482  0 000103   000106 710000 0                  TRA     s:485

     1466      483    3                ELSE
     1467      484    3                   FLINK=-1;

PL6.E3A0      #011=FMC$RELPG File=FMC$CACHE.:E05TSI                              TUE 07/29/97 16:42 Page:343
    484  0 000104   000001 336007                    LCQ     1,DL
         0 000105   200005 756100                    STQ     FLINK,,AUTO

     1468      485    3             END;  /* WHILE */

    485  0 000106   200005 235100                    LDA     FLINK,,AUTO
         0 000107   000021 605400 0                  TPNZ    s:467

     1469      486    2          END;  /* DO TYPE */

    486  0 000110   200004 054100                    AOS     TYPE,,AUTO
         0 000111   200004 235100                    LDA     TYPE,,AUTO
         0 000112   000012 115007                    CMPA    10,DL
         0 000113   000013 604400 0                  TMOZ    s:465

     1470      487
     1471      488    1          IF N = 0 THEN

    488  0 000114   200003 236100                    LDQ     N,,AUTO
         0 000115   000216 601000 0                  TNZ     s:516

     1472      489    2             DO;  /* FREE "MOST EXPIRED" PAGE */

     1473      490    2             N=-1;

    490  0 000116   000001 335007                    LCA     1,DL
         0 000117   200003 755100                    STA     N,,AUTO

     1474      491    2             OLDEXP=0;

    491  0 000120   200013 450100                    STZ     OLDEXP,,AUTO

     1475      492    3             DO I=0 TO %CACHETYPES-1;

    492  0 000121   200011 450100                    STZ     I,,AUTO
         0 000122   000153 710000 0                  TRA     s:503+1

PL6.E3A0      #011=FMC$RELPG File=FMC$CACHE.:E05TSI                              TUE 07/29/97 16:42 Page:344
     1476      493    3                J=FMC$TYPTBL.OLDEST(I);

    493  0 000123   200011 235100                    LDA     I,,AUTO
         0 000124   000001 735000                    ALS     1
         0 000125   000000 470400 xsym               LDP0    FMC_TYPTBL$
         0 000126   000000 235105                    LDA     0,AL,PR0
         0 000127   200012 755100                    STA     J,,AUTO

     1477      494    3                IF J > 0 THEN

    494  0 000130   000152 604400 0                  TMOZ    s:503

     1478      495    4                   DO;   /* CHECK FOR OLDEST */

     1479      496    4                   NEWEXP=CURTIME-FMC$CACHETBL.AGE(J)-FMC_LIMITS.EXPIRE(I);

    496  0 000131   200012 236100                    LDQ     J,,AUTO
         0 000132   000006 402007                    MPY     6,DL
         0 000133   000000 471400 xsym               LDP1    FMC_CACHE$
         0 000134   000000 620006                    EAX0    0,QL
         0 000135   200007 236100                    LDQ     CURTIME,,AUTO
         0 000136   100005 136110                    SBLQ    5,X0,PR1
         0 000137   200011 235100                    LDA     I,,AUTO
         0 000140   000001 735000                    ALS     1
         0 000141   000000 136005 xsym               SBLQ    FMC_LIMITS,AL
         0 000142   200014 756100                    STQ     NEWEXP,,AUTO

     1480      497    4                   IF N < 0 OR (NEWEXP > OLDEXP) THEN

    497  0 000143   200003 235100                    LDA     N,,AUTO
         0 000144   000147 604000 0                  TMI     s:499
         0 000145   200013 116100                    CMPQ    OLDEXP,,AUTO
         0 000146   000152 604400 0                  TMOZ    s:503

     1481      498    5                      DO;   /* OLDEST */

     1482      499    5                      N=J;
PL6.E3A0      #011=FMC$RELPG File=FMC$CACHE.:E05TSI                              TUE 07/29/97 16:42 Page:345

    499  0 000147   200012 235100                    LDA     J,,AUTO
         0 000150   200003 755100                    STA     N,,AUTO

     1483      500    5                      OLDEXP=NEWEXP;

    500  0 000151   200013 756100                    STQ     OLDEXP,,AUTO

     1484      501    5                      END;  /* OLDEST */

     1485      502    4                   END;  /* CHECK FOR OLDEST */

     1486      503    3             END;  /* DO I */

    503  0 000152   200011 054100                    AOS     I,,AUTO
         0 000153   200011 235100                    LDA     I,,AUTO
         0 000154   000012 115007                    CMPA    10,DL
         0 000155   000123 604400 0                  TMOZ    s:493

     1487      504    2             CALL FMC$REMOVE(N);

    504  0 000156   200003 630500                    EPPR0   N,,AUTO
         0 000157   200016 450500                    STP0    NEWEXP+2,,AUTO
         0 000160   200016 630500                    EPPR0   NEWEXP+2,,AUTO
         0 000161   000017 631400 xsym               EPPR1   B_VECTNIL+15
         0 000162   000000 701000 xent               TSX1    FMC$REMOVE
         0 000163   000000 011000                    NOP     0

     1488      505    2             PP=FMC$CACHETBL.PAGE(N);

    505  0 000164   200003 236100                    LDQ     N,,AUTO
         0 000165   000006 402007                    MPY     6,DL
         0 000166   000000 470400 xsym               LDP0    FMC_CACHE$
         0 000167   000002 236106                    LDQ     2,QL,PR0
         0 000170   000022 772000                    QRL     18
         0 000171   200010 756100                    STQ     PP,,AUTO

PL6.E3A0      #011=FMC$RELPG File=FMC$CACHE.:E05TSI                              TUE 07/29/97 16:42 Page:346
     1489      506    2             CALL MMJ$FIOP(PP);

    506  0 000172   200010 631500                    EPPR1   PP,,AUTO
         0 000173   200016 451500                    STP1    NEWEXP+2,,AUTO
         0 000174   200016 630500                    EPPR0   NEWEXP+2,,AUTO
         0 000175   000017 631400 xsym               EPPR1   B_VECTNIL+15
         0 000176   000000 701000 xent               TSX1    MMJ$FIOP
         0 000177   000000 011000                    NOP     0

     1490      507    2             FMC$CACHETBL(N)='0'B;

    507  0 000200   200003 236100                    LDQ     N,,AUTO
         0 000201   000030 402007                    MPY     24,DL
         0 000202   000000 470400 xsym               LDP0    FMC_CACHE$
         0 000203   000106 100400                    MLR     fill='000'O
         0 000204   000002 000001 xsym               ADSC9   B_VECTNIL+2              cn=0,n=1
         0 000205   000000 000030                    ADSC9   0,Q,PR0                  cn=0,n=24

     1491      508                  %DEC_COUNTER(ITEM=IOCACHE);

    509  0 000206   000000 470400 xsym               LDP0    P_RESOURCE$
         0 000207   000055 235100                    LDA     45,,PR0
         0 000210   000001 135007                    SBLA    1,DL
         0 000211   000055 755100                    STA     45,,PR0

    510  0 000212   000055 236100                    LDQ     45,,PR0
         0 000213   000057 116100                    CMPQ    47,,PR0
         0 000214   000216 603000 0                  TRC     s:516

    512  0 000215   000057 756100                    STQ     47,,PR0

     1492      514    2             END;  /* FREE "MOST EXPIRED" PAGE */

     1493      515
     1494      516    1          RETURN;

    516  0 000216   000000 702200 xent               TSX2  ! X66_ARET
PL6.E3A0      #011=FMC$RELPG File=FMC$CACHE.:E05TSI                              TUE 07/29/97 16:42 Page:347
     1495      517    1          END FMC$RELPG;
     1496      518               %EOD;

PL6.E3A0      #011=FMC$RELPG File=FMC$CACHE.:E05TSI                              TUE 07/29/97 16:42 Page:348
--  Include file information  --

   P_PMDAT_C.:E05TOU  is referenced.
   P_PMDAT_R.:E05TOU  cannot be made into a system file and is referenced.
   FM_CNTRL_R.:E05TOU  cannot be made into a system file and is referenced.
   FM_CACHE_C.:E05TOU  is referenced.
   FM_CACHE_R.:E05TOU  cannot be made into a system file and is referenced.
      No diagnostics issued in procedure FMC$RELPG.
PL6.E3A0      #011=FMC$RELPG File=FMC$CACHE.:E05TSI                              TUE 07/29/97 16:42 Page:349

 **** Variables and constants ****

  ****  Auto variables  ****

  ****  Scalars and arrays  ****
OctLoc.c.b A Datatyp(siz) R M Lvl/name                 OctLoc.c.b A Datatyp(siz) R M Lvl/name

     7-0-0/w UBIN        r     1 CURTIME                    5-0-0/w SBIN        r     1 FLINK
    11-0-0/w SBIN        r     1 I                         12-0-0/w SBIN        r     1 J
     3-0-0/w SBIN        r     1 N                         14-0-0/w SBIN        r     1 NEWEXP
     6-0-0/w SBIN        r     1 NEWFLINK                  13-0-0/w SBIN        r     1 OLDEXP
    10-0-0/w SBIN        r     1 PP                         4-0-0/w SBIN        r     1 TYPE

  ****  SYMREF variables  ****

  ****  Scalars and arrays  ****
OctLoc.c.b A Datatyp(siz) R M Lvl/name                 OctLoc.c.b A Datatyp(siz) R M Lvl/name

     0-0-0/w PTR         r     1 FMC_CACHE$                 0-0-0/w PTR         r     1 FMC_CACHEPGCNT$
     0-0-0/w STRC(72)    r     1 FMC_LIMITS(0:8191)
     0-0-0/w PTR         r     1 FMC_TYPTBL$                0-0-0/w PTR         r     1 P_RESOURCE$

  ****  BASED and DCB variables  ****

  ****  Scalars and arrays  ****
OctLoc.c.b A Datatyp(siz) R M Lvl/name                 OctLoc.c.b A Datatyp(siz) R M Lvl/name

     0-0-0/w STRC(216)   r     1 FMC$CACHETBL(0:0)
     0-0-0/w STRC(72)    r     1 FMC$TYPTBL(0:10)
     0-0-0/w STRC(2268)  r     1 P_RESOURCE


   Procedure FMC$RELPG requires 143 words for executable code.
   Procedure FMC$RELPG requires 16 words of local(AUTO) storage.
PL6.E3A0      #011=FMC$RELPG File=FMC$CACHE.:E05TSI                              TUE 07/29/97 16:42 Page:350
          *** CROSS REFERENCE LISTING ***
**     DENOTES     IDENTIFIER DEFINITION
<<                 IDENTIFIER'S VALUE SET
>>                 IDENTIFIER'S VALUE USED
<>                 IDENTIFIER SET AND/OR USED
--                 IDENTIFIER REFERENCED
PL6.E3A0      #011=FMC$RELPG File=FMC$CACHE.:E05TSI                              TUE 07/29/97 16:42 Page:351
          MINI XREF LISTING

CURTIME
       453**DCL       461<>CALL      467>>IF        496>>ASSIGN
FLINK
       451**DCL       465<<ASSIGN    466>>DOWHILE   467>>IF        469<>CALL      470>>ASSIGN    473>>ASSIGN
       474>>ASSIGN    481<<ASSIGN    484<<ASSIGN
FMC$CACHETBL
       418**DCL       474<<ASSIGN    507<<ASSIGN
FMC$CACHETBL.AGE
       437**DCL       467>>IF        496>>ASSIGN
FMC$CACHETBL.FLINK
       424**DCL       473>>ASSIGN
FMC$CACHETBL.PAGE
       426**DCL       470>>ASSIGN    505>>ASSIGN
FMC$REMOVE
       446**DCL-ENT   469--CALL      504--CALL
FMC$TYPTBL.OLDEST
       441**DCL       465>>ASSIGN    493>>ASSIGN
FMC_CACHE$
        28**DCL       418--IMP-PTR   467>>IF        470>>ASSIGN    473>>ASSIGN    474>>ASSIGN    496>>ASSIGN
       505>>ASSIGN    507>>ASSIGN
FMC_CACHEPGCNT$
        29**DCL        29--IMP-PTR    29--REDEF
FMC_LIMITS.EXPIRE
       106**DCL       467>>IF        496>>ASSIGN
FMC_TYPTBL$
        28**DCL       440--IMP-PTR   465>>ASSIGN    493>>ASSIGN
I
       455**DCL       492<<DOINDEX   493>>ASSIGN    496>>ASSIGN
J
       456**DCL       493<<ASSIGN    494>>IF        496>>ASSIGN    499>>ASSIGN
MMJ$FIOP
       447**DCL-ENT   471--CALL      506--CALL
PL6.E3A0      #011=FMC$RELPG File=FMC$CACHE.:E05TSI                              TUE 07/29/97 16:42 Page:352
N
       449**DCL       460<<ASSIGN    472<<ASSIGN    472>>ASSIGN    488>>IF        490<<ASSIGN    497>>IF
       499<<ASSIGN    504<>CALL      505>>ASSIGN    507>>ASSIGN
NEWEXP
       458**DCL       496<<ASSIGN    497>>IF        500>>ASSIGN
NEWFLINK
       452**DCL       473<<ASSIGN    481>>ASSIGN
OLDEXP
       457**DCL       491<<ASSIGN    497>>IF        500<<ASSIGN
PP
       454**DCL       470<<ASSIGN    471<>CALL      505<<ASSIGN    506<>CALL
P_NSCPU
       395**DCL       396--REDEF
P_RESOURCE.RES
       268**DCL       335--REDEF
P_RESOURCE.RES.IOCACHE.CURRENT
       297**DCL       476<<ASSIGN    476>>ASSIGN    477>>IF        479>>ASSIGN    509<<ASSIGN    509>>ASSIGN
       510>>IF        512>>ASSIGN
P_RESOURCE.RES.IOCACHE.MIN
       299**DCL       477>>IF        479<<ASSIGN    510>>IF        512<<ASSIGN
P_RESOURCE$
       348**DCL       236--IMP-PTR   476>>ASSIGN    476>>ASSIGN    477>>IF        477>>IF        479>>ASSIGN
       479>>ASSIGN    509>>ASSIGN    509>>ASSIGN    510>>IF        510>>IF        512>>ASSIGN    512>>ASSIGN
P_UPTIME
       384**DCL       385--REDEF
SSS$SYSTIME
       445**DCL-ENT   461--CALL
TYPE
       450**DCL       464<<DOINDEX   465>>ASSIGN    467>>IF
PL6.E3A0      #011=FMC$RELPG File=FMC$CACHE.:E05TSI                              TUE 07/29/97 16:42 Page:353
              *** CROSS REFERENCE LISTING ***
    **     DENOTES     IDENTIFIER DEFINITION
    <<                 IDENTIFIER'S VALUE SET
    >>                 IDENTIFIER'S VALUE USED
    <>                 IDENTIFIER SET AND/OR USED
    --                 IDENTIFIER REFERENCED
PL6.E3A0      #011=FMC$RELPG File=FMC$CACHE.:E05TSI                              TUE 07/29/97 16:42 Page:354
              MINI UREF LISTING

FMC$CACHEPGCNT      29**DCL
FMC$RELPG      19**PROC
FMC_CACHEPGCNT      29**DCL
FMC_CACHEPGCNT$R      29**DCL
FMC_CACHESIZ      28**DCL
FMC_CACHESIZN      28**DCL
FMC_LOCK      30**DCL
FMC_MASK      30**DCL
FMC_MASKTBL      30**DCL
FMC_STATS$      28**DCL
FM_WRCMP     106**DCL
NI_IOLEAPERS     106**DCL
P$IODATA     349**DCL
P$TABLE     358**DCL
PH_CPU_MOUSED     413**DCL
PH_JIT_ENTRY     409**DCL
PH_MOUSE_ENTRY     405**DCL
PH_MOUSE_LOCK     412**DCL
PH_MOUSE_USERS     402**DCL
PH_MOUSE_USER_NUMBER     414**DCL
PH_MUS_PAGES     404**DCL
P_AUIS     390**DCL
P_AVAIL_MEM     397**DCL
P_AVGAVAIL_MEM     398**DCL
P_AVGETMF     387**DCL
P_AVGIOL     389**DCL
P_AVGRT90     386**DCL
P_CALCNT     374**DCL
P_CALCOMP     375**DCL
P_DCTXMAX     391**DCL
P_ETMF     368**DCL
P_GATE     394**DCL
PL6.E3A0      #011=FMC$RELPG File=FMC$CACHE.:E05TSI                              TUE 07/29/97 16:42 Page:355
P_IOLOAD     388**DCL
P_IOS     383**DCL
P_NINTS     369**DCL
P_NOW     393**DCL
P_NSCPU_SBIN     396**DCL
P_RT90     370**DCL
P_RUE#     366**DCL
P_SCHD#     367**DCL
P_STARTUP     371**DCL
P_STOPTIME     392**DCL
P_S_MIDLTIME     379**DCL
P_S_MIDLWIO     380**DCL
P_S_MIDLWRES     381**DCL
P_S_MIDLWRESIO     382**DCL
P_S_MXEQTIME     378**DCL
P_S_USRVTIME     377**DCL
P_S_UXEQTIME     376**DCL
P_UPTIME_SBIN     385**DCL
P_USRVTIME     373**DCL
P_UXEQTIME     372**DCL
WORD_     403**DCL

PL6.E3A0      #012=FMC$RELSET File=FMC$CACHE.:E05TSI                             TUE 07/29/97 16:42 Page:356
     1497        1        /*T***********************************************************/
     1498        2        /*T*                                                         */
     1499        3        /*T* Copyright (c) Bull HN Information Systems Inc., 1997    */
     1500        4        /*T*                                                         */
     1501        5        /*T***********************************************************/
     1502        6        /*D*     NAME:     FMC$RELSET
     1503        7                 PURPOSE:  To free any cache pages associated with the
     1504        8                           specified set.
     1505        9                 INPUT:    SETX - setx of the set we want to free pages for
     1506       10                 DESCRIPTION:
     1507       11                      Make a long loop through the cache table, looking at
     1508       12                 each entry to see of the setx matches.  If it does, then
     1509       13                 free it.  If there are still users on it, then we have
     1510       14                 a problem.
     1511       15        */
     1512       16                 %EJECT;
PL6.E3A0      #012=FMC$RELSET File=FMC$CACHE.:E05TSI                             TUE 07/29/97 16:42 Page:357
     1513       17        FMC$RELSET: PROC(SETX) ALTRET;
     1514       18    1          DCL SETX SBIN;
     1515       19        /* */
     1516       20               %INCLUDE FM_CACHE_R;
     1517       32               %INCLUDE FM_CACHE_C;
     1518       98               %INCLUDE HF_LOCK_C;
     1519      112               %INCLUDE P_PMDAT_R;
     1520      420        /* */
     1521      421               %FMC$CACHE;
     1522      444        /* */
     1523      445    1          DCL FMC$REMOVE ENTRY(1);
     1524      446    1          DCL MMJ$FIOP ENTRY(1);
     1525      447        /* */
     1526      448    1          DCL I SBIN;
     1527      449    1          DCL PP SBIN;
     1528      450        /* */
     1529      451    1          IF FMC_CACHESIZ = 0 THEN
     1530      452    1             RETURN;
     1531      453
     1532      454               %LOCK(G=FMC_LOCK);
     1533      457    2          DO I=1 TO FMC_CACHESIZ;
     1534      458    2             IF FMC$CACHETBL.SETX(I) = SETX THEN
     1535      459    3                DO;   /* FOUND A SETX */
     1536      460    3                IF FMC$CACHETBL.USECNT(I) ~= 0 OR FMC$CACHETBL.FLAGS.BUFUP(I) THEN
     1537      461    3                   FMC$CACHETBL.FLAGS.ERR(I)='1'B;
     1538      462    3                ELSE
     1539      463    4                   DO;   /* RELEASE THE ENTRY */
     1540      464    4                   CALL FMC$REMOVE(I);
     1541      465    4                   PP=FMC$CACHETBL.PAGE(I);
     1542      466    4                   CALL MMJ$FIOP(PP);
     1543      467    4                   FMC$CACHETBL(I)='0'B;
     1544      468                        %DEC_COUNTER(ITEM=IOCACHE);
     1545      474    4                   END;  /* RELEASE THE ENTRY */
     1546      475    3                END;  /* FOUND A SETX */
     1547      476    2          END;  /* DO I */
     1548      477               %UNLOCK(G=FMC_LOCK);
     1549      480
PL6.E3A0      #012=FMC$RELSET File=FMC$CACHE.:E05TSI                             TUE 07/29/97 16:42 Page:358
     1550      481    1          RETURN;
     1551      482    1          END FMC$RELSET;
     1552      483               %EOD;

PL6.E3A0      #012=FMC$RELSET File=FMC$CACHE.:E05TSI                             TUE 07/29/97 16:42 Page:359
--  Include file information  --

   P_PMDAT_C.:E05TOU  is referenced.
   P_PMDAT_R.:E05TOU  cannot be made into a system file and is referenced.
   HF_LOCK_C.:E05TOU  cannot be made into a system file and is referenced.
   FM_CACHE_C.:E05TOU  is referenced.
   FM_CACHE_R.:E05TOU  cannot be made into a system file and is referenced.
      No diagnostics issued in procedure FMC$RELSET.

   Procedure FMC$RELSET requires 74 words for executable code.
   Procedure FMC$RELSET requires 8 words of local(AUTO) storage.

PL6.E3A0      #012=FMC$RELSET File=FMC$CACHE.:E05TSI                             TUE 07/29/97 16:42 Page:360

 Object Unit name= FMC$RELSET                                 File name= FMC$CACHE.:E05TOU
 UTS= JUL 29 '97 16:42:08.04 TUE                              Compiler= PL-6/E31         Sev=      00
 SharedLib= :SHARED_SYSTEM                                    Alt SharedLib=


    ****  Control sections  ****

 Sect   Type Bound  Init  Size OctSiz  Section name(segment info)
    0   Proc  even  none    74    112  FMC$RELSET
    1  RoData even  none     1      1  FMC$RELSET

    ****  Entry defs  ****

                              Check   Calling
                             calling  sequence
  Sect OctLoc Primary Altret sequence   type   Parms  Name
     0      0   yes    yes     yes      Std        1  FMC$RELSET

  ****  Entry refs  ****

         Check        Calling
        calling       sequence
Altret sequence SRef   type   Args  Name
         yes           Std       1 HFC$LOCK
         yes           Std       1 FMC$REMOVE
         yes           Std       1 MMJ$FIOP
         yes           Std       1 HFC$UNLOCK
                       nStd      0 X66_AUTO_1
                       nStd      0 X66_ARET
                       Std       0 B_CONSPOOL_D
PL6.E3A0      #012=FMC$RELSET File=FMC$CACHE.:E05TSI                             TUE 07/29/97 16:42 Page:361

  ****  Data refs  ****

  Flags:  r = read only, s = secondary
Flgs Name                             Flgs Name                             Flgs Name
     FMC_CACHE$                            FMC_CACHESIZ                          FMC_CACHEPGCNT$
     FMC_LOCK                              P_RESOURCE$                           P_UPTIME
     P_NSCPU                               B_VECTNIL

  ****  Segment refs  ****

  Flags:  r = read only, s = secondary
Flgs Name                             Flgs Name                             Flgs Name
     ISSID
PL6.E3A0      #012=FMC$RELSET File=FMC$CACHE.:E05TSI                             TUE 07/29/97 16:42 Page:362


     1497        1        /*T***********************************************************/
     1498        2        /*T*                                                         */
     1499        3        /*T* Copyright (c) Bull HN Information Systems Inc., 1997    */
     1500        4        /*T*                                                         */
     1501        5        /*T***********************************************************/
     1502        6        /*D*     NAME:     FMC$RELSET
     1503        7                 PURPOSE:  To free any cache pages associated with the
     1504        8                           specified set.
     1505        9                 INPUT:    SETX - setx of the set we want to free pages for
     1506       10                 DESCRIPTION:
     1507       11                      Make a long loop through the cache table, looking at
     1508       12                 each entry to see of the setx matches.  If it does, then
     1509       13                 free it.  If there are still users on it, then we have
     1510       14                 a problem.
     1511       15        */
     1512       16                 %EJECT;
PL6.E3A0      #012=FMC$RELSET File=FMC$CACHE.:E05TSI                             TUE 07/29/97 16:42 Page:363
     1513       17        FMC$RELSET: PROC(SETX) ALTRET;

     17  0 000000   000000 700200 xent  FMC$RELSET   TSX0  ! X66_AUTO_1
         0 000001   000010 000001                    ZERO    8,1

     1514       18    1          DCL SETX SBIN;
     1515       19        /* */
     1516       20               %INCLUDE FM_CACHE_R;
     1517       32               %INCLUDE FM_CACHE_C;
     1518       98               %INCLUDE HF_LOCK_C;
     1519      112               %INCLUDE P_PMDAT_R;
     1520      420        /* */
     1521      421               %FMC$CACHE;
     1522      444        /* */
     1523      445    1          DCL FMC$REMOVE ENTRY(1);
     1524      446    1          DCL MMJ$FIOP ENTRY(1);
     1525      447        /* */
     1526      448    1          DCL I SBIN;
     1527      449    1          DCL PP SBIN;
     1528      450        /* */
     1529      451    1          IF FMC_CACHESIZ = 0 THEN

    451  0 000002   000000 235000 xsym               LDA     FMC_CACHESIZ
         0 000003   000005 601000 0                  TNZ     s:455

     1530      452    1             RETURN;

    452  0 000004   000000 702200 xent               TSX2  ! X66_ARET

     1531      453
     1532      454               %LOCK(G=FMC_LOCK);

    455  0 000005   000000 630400 1                  EPPR0   0
         0 000006   000017 631400 xsym               EPPR1   B_VECTNIL+15
         0 000007   000000 701000 xent               TSX1    HFC$LOCK
         0 000010   000000 011000                    NOP     0

PL6.E3A0      #012=FMC$RELSET File=FMC$CACHE.:E05TSI                             TUE 07/29/97 16:42 Page:364
     1533      457    2          DO I=1 TO FMC_CACHESIZ;

    457  0 000011   000001 235007                    LDA     1,DL
         0 000012   200004 755100                    STA     I,,AUTO
         0 000013   000102 710000 0                  TRA     s:476+1

     1534      458    2             IF FMC$CACHETBL.SETX(I) = SETX THEN

    458  0 000014   200003 470500                    LDP0    @SETX,,AUTO
         0 000015   200004 236100                    LDQ     I,,AUTO
         0 000016   000006 402007                    MPY     6,DL
         0 000017   000000 471400 xsym               LDP1    FMC_CACHE$
         0 000020   100004 236106                    LDQ     4,QL,PR1
         0 000021   000022 772000                    QRL     18
         0 000022   000000 116100                    CMPQ    0,,PR0
         0 000023   000101 601000 0                  TNZ     s:476

     1535      459    3                DO;   /* FOUND A SETX */

     1536      460    3                IF FMC$CACHETBL.USECNT(I) ~= 0 OR FMC$CACHETBL.FLAGS.BUFUP(I) THEN

    460  0 000024   200004 236100                    LDQ     I,,AUTO
         0 000025   000006 402007                    MPY     6,DL
         0 000026   100002 720106                    LXL0    2,QL,PR1
         0 000027   000033 601000 0                  TNZ     s:461
         0 000030   100004 236106                    LDQ     4,QL,PR1
         0 000031   000001 316007                    CANQ    1,DL
         0 000032   000041 600000 0                  TZE     s:464

     1537      461    3                   FMC$CACHETBL.FLAGS.ERR(I)='1'B;

    461  0 000033   200004 236100                    LDQ     I,,AUTO
         0 000034   000006 402007                    MPY     6,DL
         0 000035   000000 620006                    EAX0    0,QL
         0 000036   000002 236007                    LDQ     2,DL
         0 000037   100004 256110                    ORSQ    4,X0,PR1
         0 000040   000101 710000 0                  TRA     s:476
PL6.E3A0      #012=FMC$RELSET File=FMC$CACHE.:E05TSI                             TUE 07/29/97 16:42 Page:365

     1538      462    3                ELSE
     1539      463    4                   DO;   /* RELEASE THE ENTRY */

     1540      464    4                   CALL FMC$REMOVE(I);

    464  0 000041   200004 633500                    EPPR3   I,,AUTO
         0 000042   200006 453500                    STP3    PP+1,,AUTO
         0 000043   200006 630500                    EPPR0   PP+1,,AUTO
         0 000044   000017 631400 xsym               EPPR1   B_VECTNIL+15
         0 000045   000000 701000 xent               TSX1    FMC$REMOVE
         0 000046   000000 011000                    NOP     0

     1541      465    4                   PP=FMC$CACHETBL.PAGE(I);

    465  0 000047   200004 236100                    LDQ     I,,AUTO
         0 000050   000006 402007                    MPY     6,DL
         0 000051   000000 470400 xsym               LDP0    FMC_CACHE$
         0 000052   000002 236106                    LDQ     2,QL,PR0
         0 000053   000022 772000                    QRL     18
         0 000054   200005 756100                    STQ     PP,,AUTO

     1542      466    4                   CALL MMJ$FIOP(PP);

    466  0 000055   200005 631500                    EPPR1   PP,,AUTO
         0 000056   200006 451500                    STP1    PP+1,,AUTO
         0 000057   200006 630500                    EPPR0   PP+1,,AUTO
         0 000060   000017 631400 xsym               EPPR1   B_VECTNIL+15
         0 000061   000000 701000 xent               TSX1    MMJ$FIOP
         0 000062   000000 011000                    NOP     0

     1543      467    4                   FMC$CACHETBL(I)='0'B;

    467  0 000063   200004 236100                    LDQ     I,,AUTO
         0 000064   000030 402007                    MPY     24,DL
         0 000065   000000 470400 xsym               LDP0    FMC_CACHE$
         0 000066   000106 100400                    MLR     fill='000'O
PL6.E3A0      #012=FMC$RELSET File=FMC$CACHE.:E05TSI                             TUE 07/29/97 16:42 Page:366
         0 000067   000002 000001 xsym               ADSC9   B_VECTNIL+2              cn=0,n=1
         0 000070   000000 000030                    ADSC9   0,Q,PR0                  cn=0,n=24

     1544      468                        %DEC_COUNTER(ITEM=IOCACHE);

    469  0 000071   000000 470400 xsym               LDP0    P_RESOURCE$
         0 000072   000055 235100                    LDA     45,,PR0
         0 000073   000001 135007                    SBLA    1,DL
         0 000074   000055 755100                    STA     45,,PR0

    470  0 000075   000055 236100                    LDQ     45,,PR0
         0 000076   000057 116100                    CMPQ    47,,PR0
         0 000077   000101 603000 0                  TRC     s:476

    472  0 000100   000057 756100                    STQ     47,,PR0

     1545      474    4                   END;  /* RELEASE THE ENTRY */

     1546      475    3                END;  /* FOUND A SETX */

     1547      476    2          END;  /* DO I */

    476  0 000101   200004 054100                    AOS     I,,AUTO
         0 000102   200004 236100                    LDQ     I,,AUTO
         0 000103   000000 116000 xsym               CMPQ    FMC_CACHESIZ
         0 000104   000014 604400 0                  TMOZ    s:458

     1548      477               %UNLOCK(G=FMC_LOCK);

    478  0 000105   000000 630400 1                  EPPR0   0
         0 000106   000017 631400 xsym               EPPR1   B_VECTNIL+15
         0 000107   000000 701000 xent               TSX1    HFC$UNLOCK
         0 000110   000000 011000                    NOP     0

     1549      480
     1550      481    1          RETURN;

PL6.E3A0      #012=FMC$RELSET File=FMC$CACHE.:E05TSI                             TUE 07/29/97 16:42 Page:367
    481  0 000111   000000 702200 xent               TSX2  ! X66_ARET

(unnamed)
 Sect OctLoc
   1     000   000000 006000                                                    ....
     1551      482    1          END FMC$RELSET;
     1552      483               %EOD;

PL6.E3A0      #012=FMC$RELSET File=FMC$CACHE.:E05TSI                             TUE 07/29/97 16:42 Page:368
--  Include file information  --

   P_PMDAT_C.:E05TOU  is referenced.
   P_PMDAT_R.:E05TOU  cannot be made into a system file and is referenced.
   HF_LOCK_C.:E05TOU  cannot be made into a system file and is referenced.
   FM_CACHE_C.:E05TOU  is referenced.
   FM_CACHE_R.:E05TOU  cannot be made into a system file and is referenced.
      No diagnostics issued in procedure FMC$RELSET.
PL6.E3A0      #012=FMC$RELSET File=FMC$CACHE.:E05TSI                             TUE 07/29/97 16:42 Page:369

 **** Variables and constants ****

  ****  Auto variables  ****

  ****  Scalars and arrays  ****
OctLoc.c.b A Datatyp(siz) R M Lvl/name                 OctLoc.c.b A Datatyp(siz) R M Lvl/name

     3-0-0/w PTR         r     1 @SETX                      4-0-0/w SBIN        r     1 I
     5-0-0/w SBIN        r     1 PP                        *0-0-0/w SBIN        r     1 SETX

  ****  SYMREF variables  ****

  ****  Scalars and arrays  ****
OctLoc.c.b A Datatyp(siz) R M Lvl/name                 OctLoc.c.b A Datatyp(siz) R M Lvl/name

     0-0-0/w PTR         r     1 FMC_CACHE$                 0-0-0/w PTR         r     1 FMC_CACHEPGCNT$
     0-0-0/w SBIN        r     1 FMC_CACHESIZ               0-0-0/b BIT (72)    r     1 FMC_LOCK
     0-0-0/w PTR         r     1 P_RESOURCE$

  ****  BASED and DCB variables  ****

  ****  Scalars and arrays  ****
OctLoc.c.b A Datatyp(siz) R M Lvl/name                 OctLoc.c.b A Datatyp(siz) R M Lvl/name

     0-0-0/w STRC(216)   r     1 FMC$CACHETBL(0:0)
     0-0-0/w STRC(2268)  r     1 P_RESOURCE


   Procedure FMC$RELSET requires 74 words for executable code.
   Procedure FMC$RELSET requires 8 words of local(AUTO) storage.
PL6.E3A0      #012=FMC$RELSET File=FMC$CACHE.:E05TSI                             TUE 07/29/97 16:42 Page:370
          *** CROSS REFERENCE LISTING ***
**     DENOTES     IDENTIFIER DEFINITION
<<                 IDENTIFIER'S VALUE SET
>>                 IDENTIFIER'S VALUE USED
<>                 IDENTIFIER SET AND/OR USED
--                 IDENTIFIER REFERENCED
PL6.E3A0      #012=FMC$RELSET File=FMC$CACHE.:E05TSI                             TUE 07/29/97 16:42 Page:371
          MINI XREF LISTING

FMC$CACHETBL
       423**DCL       467<<ASSIGN
FMC$CACHETBL.FLAGS.BUFUP
       441**DCL       460>>IF
FMC$CACHETBL.FLAGS.ERR
       440**DCL       461<<ASSIGN
FMC$CACHETBL.PAGE
       431**DCL       465>>ASSIGN
FMC$CACHETBL.SETX
       434**DCL       458>>IF
FMC$CACHETBL.USECNT
       432**DCL       460>>IF
FMC$REMOVE
       445**DCL-ENT   464--CALL
FMC_CACHE$
        28**DCL       423--IMP-PTR   458>>IF        460>>IF        460>>IF        461>>ASSIGN    465>>ASSIGN
       467>>ASSIGN
FMC_CACHEPGCNT$
        29**DCL        29--IMP-PTR    29--REDEF
FMC_CACHESIZ
        28**DCL       451>>IF        457>>DOINDEX
FMC_LOCK
        30**DCL       455<>CALL      478<>CALL
HFC$LOCK
       111**DCL-ENT   455--CALL
HFC$UNLOCK
       111**DCL-ENT   478--CALL
I
       448**DCL       457<<DOINDEX   458>>IF        460>>IF        460>>IF        461>>ASSIGN    464<>CALL
       465>>ASSIGN    467>>ASSIGN
MMJ$FIOP
       446**DCL-ENT   466--CALL
PL6.E3A0      #012=FMC$RELSET File=FMC$CACHE.:E05TSI                             TUE 07/29/97 16:42 Page:372
PP
       449**DCL       465<<ASSIGN    466<>CALL
P_NSCPU
       400**DCL       401--REDEF
P_RESOURCE.RES
       273**DCL       340--REDEF
P_RESOURCE.RES.IOCACHE.CURRENT
       302**DCL       469<<ASSIGN    469>>ASSIGN    470>>IF        472>>ASSIGN
P_RESOURCE.RES.IOCACHE.MIN
       304**DCL       470>>IF        472<<ASSIGN
P_RESOURCE$
       353**DCL       241--IMP-PTR   469>>ASSIGN    469>>ASSIGN    470>>IF        470>>IF        472>>ASSIGN
       472>>ASSIGN
P_UPTIME
       389**DCL       390--REDEF
SETX
        18**DCL        17--PROC      458>>IF
PL6.E3A0      #012=FMC$RELSET File=FMC$CACHE.:E05TSI                             TUE 07/29/97 16:42 Page:373
              *** CROSS REFERENCE LISTING ***
    **     DENOTES     IDENTIFIER DEFINITION
    <<                 IDENTIFIER'S VALUE SET
    >>                 IDENTIFIER'S VALUE USED
    <>                 IDENTIFIER SET AND/OR USED
    --                 IDENTIFIER REFERENCED
PL6.E3A0      #012=FMC$RELSET File=FMC$CACHE.:E05TSI                             TUE 07/29/97 16:42 Page:374
              MINI UREF LISTING

FMC$CACHEPGCNT      29**DCL
FMC$RELSET      17**PROC
FMC_CACHEPGCNT      29**DCL
FMC_CACHEPGCNT$R      29**DCL
FMC_CACHESIZN      28**DCL
FMC_MASK      30**DCL
FMC_MASKTBL      30**DCL
FMC_STATS$      28**DCL
FMC_TYPTBL$      28**DCL
P$IODATA     354**DCL
P$TABLE     363**DCL
PH_CPU_MOUSED     418**DCL
PH_JIT_ENTRY     414**DCL
PH_MOUSE_ENTRY     410**DCL
PH_MOUSE_LOCK     417**DCL
PH_MOUSE_USERS     407**DCL
PH_MOUSE_USER_NUMBER     419**DCL
PH_MUS_PAGES     409**DCL
P_AUIS     395**DCL
P_AVAIL_MEM     402**DCL
P_AVGAVAIL_MEM     403**DCL
P_AVGETMF     392**DCL
P_AVGIOL     394**DCL
P_AVGRT90     391**DCL
P_CALCNT     379**DCL
P_CALCOMP     380**DCL
P_DCTXMAX     396**DCL
P_ETMF     373**DCL
P_GATE     399**DCL
P_IOLOAD     393**DCL
P_IOS     388**DCL
P_NINTS     374**DCL
PL6.E3A0      #012=FMC$RELSET File=FMC$CACHE.:E05TSI                             TUE 07/29/97 16:42 Page:375
P_NOW     398**DCL
P_NSCPU_SBIN     401**DCL
P_RT90     375**DCL
P_RUE#     371**DCL
P_SCHD#     372**DCL
P_STARTUP     376**DCL
P_STOPTIME     397**DCL
P_S_MIDLTIME     384**DCL
P_S_MIDLWIO     385**DCL
P_S_MIDLWRES     386**DCL
P_S_MIDLWRESIO     387**DCL
P_S_MXEQTIME     383**DCL
P_S_USRVTIME     382**DCL
P_S_UXEQTIME     381**DCL
P_UPTIME_SBIN     390**DCL
P_USRVTIME     378**DCL
P_UXEQTIME     377**DCL
WORD_     408**DCL

