PL6.E3A0      #013=FMC$REMOVE File=FMC$CACHE.:E05TSI                             TUE 07/29/97 16:42 Page:376
     1553        1        /*T***********************************************************/
     1554        2        /*T*                                                         */
     1555        3        /*T* Copyright (c) Bull HN Information Systems Inc., 1997    */
     1556        4        /*T*                                                         */
     1557        5        /*T***********************************************************/
     1558        6        /*D*     NAME:     FMC$REMOVE
     1559        7                 PURPOSE:  To remove an entry from the linked list.
     1560        8                 INPUT:    HASH - Entry we want to remove
     1561        9                 DESCRIPTION:
     1562       10                      When we remove an entry it could be out of the
     1563       11                 middle of a list, so make sure the FLINKs and BLINKs
     1564       12                 if the surrounding entries point to the right place.
     1565       13                 Also, make sure that the type table oldest and newest
     1566       14                 are pointing to the right place.  Finally, decrement
     1567       15                 the cache page count.
     1568       16        */
     1569       17                 %EJECT;
PL6.E3A0      #013=FMC$REMOVE File=FMC$CACHE.:E05TSI                             TUE 07/29/97 16:42 Page:377
     1570       18        FMC$REMOVE: PROC(HASH);
     1571       19    1          DCL HASH SBIN;
     1572       20        /* */
     1573       21               %INCLUDE FM_CACHE_R;
     1574       33               %INCLUDE FM_CACHE_C;
     1575       99        /* */
     1576      100               %FMC$CACHE;
     1577      123               %FMC$TYPTBL;
     1578      128               %FMC$STATS;
     1579      137        /* */
     1580      138    1          DCL SC_FMC96 ENTRY CONV(2, 0);
     1581      139        /* */
     1582      140    1          DCL TYPE SBIN;
     1583      141    1          DCL FLINK SBIN;
     1584      142    1          DCL BLINK SBIN;
     1585      143        /* */
     1586      144    1          TYPE=FMC$CACHETBL.TYPE(HASH);
     1587      145    1          BLINK=FMC$TYPTBL.NEWEST(TYPE);
     1588      146    1          FLINK=FMC$TYPTBL.OLDEST(TYPE);
     1589      147    1          IF BLINK ~= 0 THEN
     1590      148    1             IF TYPE ~= FMC$CACHETBL.TYPE(BLINK) THEN
     1591      149    1                CALL SC_FMC96;
     1592      150    1          IF FLINK ~= 0 THEN
     1593      151    1             IF TYPE ~= FMC$CACHETBL.TYPE(FLINK) THEN
     1594      152    1                CALL SC_FMC96;
     1595      153
     1596      154    1          FLINK=FMC$CACHETBL.FLINK(HASH);
     1597      155    1          BLINK=FMC$CACHETBL.BLINK(HASH);
     1598      156
     1599      157    1          IF BLINK ~= 0 THEN
     1600      158    1             IF TYPE ~= FMC$CACHETBL.TYPE(BLINK) THEN
     1601      159    1                CALL SC_FMC96;
     1602      160    1          IF FLINK ~= 0 THEN
     1603      161    1             IF TYPE ~= FMC$CACHETBL.TYPE(FLINK) THEN
     1604      162    1                CALL SC_FMC96;
     1605      163
     1606      164    1          FMC$CACHETBL.BLINK(FLINK)=BLINK;
PL6.E3A0      #013=FMC$REMOVE File=FMC$CACHE.:E05TSI                             TUE 07/29/97 16:42 Page:378
     1607      165
     1608      166    1          FMC$CACHETBL.FLINK(BLINK)=FLINK;
     1609      167
     1610      168    1          IF HASH = FMC$TYPTBL.OLDEST(TYPE) THEN
     1611      169    1             FMC$TYPTBL.OLDEST(TYPE)=FLINK;
     1612      170
     1613      171    1          IF HASH = FMC$TYPTBL.NEWEST(TYPE) THEN
     1614      172    1             FMC$TYPTBL.NEWEST(TYPE)=BLINK;
     1615      173
     1616      174    1          FMC$CACHETBL.FLINK(HASH)=0;
     1617      175    1          FMC$CACHETBL.BLINK(HASH)=0;
     1618      176
     1619      177    1          FMC$CACHEPGCNT=FMC$CACHEPGCNT-1;
     1620      178    1          FMC$STATS.UNUSED(TYPE)=FMC$STATS.UNUSED(TYPE)-1;
     1621      179
     1622      180    1          RETURN;
     1623      181    1          END FMC$REMOVE;
     1624      182               %EOD;

PL6.E3A0      #013=FMC$REMOVE File=FMC$CACHE.:E05TSI                             TUE 07/29/97 16:42 Page:379
--  Include file information  --

   FM_CACHE_C.:E05TOU  is referenced.
   FM_CACHE_R.:E05TOU  cannot be made into a system file and is referenced.
      No diagnostics issued in procedure FMC$REMOVE.

   Procedure FMC$REMOVE requires 113 words for executable code.
   Procedure FMC$REMOVE requires 8 words of local(AUTO) storage.

PL6.E3A0      #013=FMC$REMOVE File=FMC$CACHE.:E05TSI                             TUE 07/29/97 16:42 Page:380

 Object Unit name= FMC$REMOVE                                 File name= FMC$CACHE.:E05TOU
 UTS= JUL 29 '97 16:42:15.32 TUE                              Compiler= PL-6/E31         Sev=      00
 SharedLib= :SHARED_SYSTEM                                    Alt SharedLib=


    ****  Control sections  ****

 Sect   Type Bound  Init  Size OctSiz  Section name(segment info)
    0   Proc  even  none   113    161  FMC$REMOVE

    ****  Entry defs  ****

                              Check   Calling
                             calling  sequence
  Sect OctLoc Primary Altret sequence   type   Parms  Name
     0      0   yes            yes      Std        1  FMC$REMOVE

  ****  Entry refs  ****

         Check        Calling
        calling       sequence
Altret sequence SRef   type   Args  Name
                       nStd      0 X66_AUTO_1
                       nStd      0 X66_ARET

  ****  Data refs  ****

  Flags:  r = read only, s = secondary
Flgs Name                             Flgs Name                             Flgs Name
     SC_FMC96                              FMC_CACHE$                            FMC_TYPTBL$
     FMC_STATS$                            FMC_CACHEPGCNT$
PL6.E3A0      #013=FMC$REMOVE File=FMC$CACHE.:E05TSI                             TUE 07/29/97 16:42 Page:381

  ****  Segment refs  ****

  Flags:  r = read only, s = secondary
Flgs Name                             Flgs Name                             Flgs Name
     ASLENTSID
PL6.E3A0      #013=FMC$REMOVE File=FMC$CACHE.:E05TSI                             TUE 07/29/97 16:42 Page:382


     1553        1        /*T***********************************************************/
     1554        2        /*T*                                                         */
     1555        3        /*T* Copyright (c) Bull HN Information Systems Inc., 1997    */
     1556        4        /*T*                                                         */
     1557        5        /*T***********************************************************/
     1558        6        /*D*     NAME:     FMC$REMOVE
     1559        7                 PURPOSE:  To remove an entry from the linked list.
     1560        8                 INPUT:    HASH - Entry we want to remove
     1561        9                 DESCRIPTION:
     1562       10                      When we remove an entry it could be out of the
     1563       11                 middle of a list, so make sure the FLINKs and BLINKs
     1564       12                 if the surrounding entries point to the right place.
     1565       13                 Also, make sure that the type table oldest and newest
     1566       14                 are pointing to the right place.  Finally, decrement
     1567       15                 the cache page count.
     1568       16        */
     1569       17                 %EJECT;
PL6.E3A0      #013=FMC$REMOVE File=FMC$CACHE.:E05TSI                             TUE 07/29/97 16:42 Page:383
     1570       18        FMC$REMOVE: PROC(HASH);

     18  0 000000   000000 700200 xent  FMC$REMOVE   TSX0  ! X66_AUTO_1
         0 000001   000010 000001                    ZERO    8,1

     1571       19    1          DCL HASH SBIN;
     1572       20        /* */
     1573       21               %INCLUDE FM_CACHE_R;
     1574       33               %INCLUDE FM_CACHE_C;
     1575       99        /* */
     1576      100               %FMC$CACHE;
     1577      123               %FMC$TYPTBL;
     1578      128               %FMC$STATS;
     1579      137        /* */
     1580      138    1          DCL SC_FMC96 ENTRY CONV(2, 0);
     1581      139        /* */
     1582      140    1          DCL TYPE SBIN;
     1583      141    1          DCL FLINK SBIN;
     1584      142    1          DCL BLINK SBIN;
     1585      143        /* */
     1586      144    1          TYPE=FMC$CACHETBL.TYPE(HASH);

    144  0 000002   200003 470500                    LDP0    @HASH,,AUTO
         0 000003   000000 236100                    LDQ     0,,PR0
         0 000004   000006 402007                    MPY     6,DL
         0 000005   000000 471400 xsym               LDP1    FMC_CACHE$
         0 000006   100000 236106                    LDQ     0,QL,PR1
         0 000007   000033 772000                    QRL     27
         0 000010   200004 756100                    STQ     TYPE,,AUTO

     1587      145    1          BLINK=FMC$TYPTBL.NEWEST(TYPE);

    145  0 000011   200004 235100                    LDA     TYPE,,AUTO
         0 000012   000001 735000                    ALS     1
         0 000013   000000 473400 xsym               LDP3    FMC_TYPTBL$
         0 000014   300001 235105                    LDA     1,AL,PR3
         0 000015   200006 755100                    STA     BLINK,,AUTO
PL6.E3A0      #013=FMC$REMOVE File=FMC$CACHE.:E05TSI                             TUE 07/29/97 16:42 Page:384

     1588      146    1          FLINK=FMC$TYPTBL.OLDEST(TYPE);

    146  0 000016   200004 235100                    LDA     TYPE,,AUTO
         0 000017   000001 735000                    ALS     1
         0 000020   300000 235105                    LDA     0,AL,PR3
         0 000021   200005 755100                    STA     FLINK,,AUTO

     1589      147    1          IF BLINK ~= 0 THEN

    147  0 000022   200006 235100                    LDA     BLINK,,AUTO
         0 000023   000034 600000 0                  TZE     s:150

     1590      148    1             IF TYPE ~= FMC$CACHETBL.TYPE(BLINK) THEN

    148  0 000024   200006 236100                    LDQ     BLINK,,AUTO
         0 000025   000006 402007                    MPY     6,DL
         0 000026   100000 236106                    LDQ     0,QL,PR1
         0 000027   000033 772000                    QRL     27
         0 000030   200004 116100                    CMPQ    TYPE,,AUTO
         0 000031   000034 600000 0                  TZE     s:150

     1591      149    1                CALL SC_FMC96;

    149  0 000032   000000 713400 xsym               CLIMB   SC_FMC96
         0 000033   000000 600000 xsid               climb   nvectors=         0

     1592      150    1          IF FLINK ~= 0 THEN

    150  0 000034   200005 235100                    LDA     FLINK,,AUTO
         0 000035   000047 600000 0                  TZE     s:154

     1593      151    1             IF TYPE ~= FMC$CACHETBL.TYPE(FLINK) THEN

    151  0 000036   200005 236100                    LDQ     FLINK,,AUTO
         0 000037   000006 402007                    MPY     6,DL
         0 000040   000000 470400 xsym               LDP0    FMC_CACHE$
PL6.E3A0      #013=FMC$REMOVE File=FMC$CACHE.:E05TSI                             TUE 07/29/97 16:42 Page:385
         0 000041   000000 236106                    LDQ     0,QL,PR0
         0 000042   000033 772000                    QRL     27
         0 000043   200004 116100                    CMPQ    TYPE,,AUTO
         0 000044   000047 600000 0                  TZE     s:154

     1594      152    1                CALL SC_FMC96;

    152  0 000045   000000 713400 xsym               CLIMB   SC_FMC96
         0 000046   000000 600000 xsid               climb   nvectors=         0

     1595      153
     1596      154    1          FLINK=FMC$CACHETBL.FLINK(HASH);

    154  0 000047   200003 470500                    LDP0    @HASH,,AUTO
         0 000050   000000 236100                    LDQ     0,,PR0
         0 000051   000006 402007                    MPY     6,DL
         0 000052   000000 471400 xsym               LDP1    FMC_CACHE$
         0 000053   100001 236106                    LDQ     1,QL,PR1
         0 000054   000022 772000                    QRL     18
         0 000055   200005 756100                    STQ     FLINK,,AUTO

     1597      155    1          BLINK=FMC$CACHETBL.BLINK(HASH);

    155  0 000056   000000 236100                    LDQ     0,,PR0
         0 000057   000006 402007                    MPY     6,DL
         0 000060   100001 236106                    LDQ     1,QL,PR1
         0 000061   777777 376007                    ANQ     -1,DL
         0 000062   200006 756100                    STQ     BLINK,,AUTO

     1598      156
     1599      157    1          IF BLINK ~= 0 THEN

    157  0 000063   000073 600000 0                  TZE     s:160

     1600      158    1             IF TYPE ~= FMC$CACHETBL.TYPE(BLINK) THEN

    158  0 000064   000006 402007                    MPY     6,DL
PL6.E3A0      #013=FMC$REMOVE File=FMC$CACHE.:E05TSI                             TUE 07/29/97 16:42 Page:386
         0 000065   100000 236106                    LDQ     0,QL,PR1
         0 000066   000033 772000                    QRL     27
         0 000067   200004 116100                    CMPQ    TYPE,,AUTO
         0 000070   000073 600000 0                  TZE     s:160

     1601      159    1                CALL SC_FMC96;

    159  0 000071   000000 713400 xsym               CLIMB   SC_FMC96
         0 000072   000000 600000 xsid               climb   nvectors=         0

     1602      160    1          IF FLINK ~= 0 THEN

    160  0 000073   200005 235100                    LDA     FLINK,,AUTO
         0 000074   000106 600000 0                  TZE     s:164

     1603      161    1             IF TYPE ~= FMC$CACHETBL.TYPE(FLINK) THEN

    161  0 000075   200005 236100                    LDQ     FLINK,,AUTO
         0 000076   000006 402007                    MPY     6,DL
         0 000077   000000 470400 xsym               LDP0    FMC_CACHE$
         0 000100   000000 236106                    LDQ     0,QL,PR0
         0 000101   000033 772000                    QRL     27
         0 000102   200004 116100                    CMPQ    TYPE,,AUTO
         0 000103   000106 600000 0                  TZE     s:164

     1604      162    1                CALL SC_FMC96;

    162  0 000104   000000 713400 xsym               CLIMB   SC_FMC96
         0 000105   000000 600000 xsid               climb   nvectors=         0

     1605      163
     1606      164    1          FMC$CACHETBL.BLINK(FLINK)=BLINK;

    164  0 000106   200005 236100                    LDQ     FLINK,,AUTO
         0 000107   000006 402007                    MPY     6,DL
         0 000110   200006 720100                    LXL0    BLINK,,AUTO
         0 000111   000000 470400 xsym               LDP0    FMC_CACHE$
PL6.E3A0      #013=FMC$REMOVE File=FMC$CACHE.:E05TSI                             TUE 07/29/97 16:42 Page:387
         0 000112   000001 440106                    SXL0    1,QL,PR0

     1607      165
     1608      166    1          FMC$CACHETBL.FLINK(BLINK)=FLINK;

    166  0 000113   200006 236100                    LDQ     BLINK,,AUTO
         0 000114   000006 402007                    MPY     6,DL
         0 000115   200005 721100                    LXL1    FLINK,,AUTO
         0 000116   000000 470400 xsym               LDP0    FMC_CACHE$
         0 000117   000001 741106                    STX1    1,QL,PR0

     1609      167
     1610      168    1          IF HASH = FMC$TYPTBL.OLDEST(TYPE) THEN

    168  0 000120   200003 470500                    LDP0    @HASH,,AUTO
         0 000121   200004 235100                    LDA     TYPE,,AUTO
         0 000122   000001 735000                    ALS     1
         0 000123   000000 471400 xsym               LDP1    FMC_TYPTBL$
         0 000124   000000 236100                    LDQ     0,,PR0
         0 000125   000132 604000 0                  TMI     s:171
         0 000126   100000 116105                    CMPQ    0,AL,PR1
         0 000127   000132 601000 0                  TNZ     s:171

     1611      169    1             FMC$TYPTBL.OLDEST(TYPE)=FLINK;

    169  0 000130   200005 236100                    LDQ     FLINK,,AUTO
         0 000131   100000 756105                    STQ     0,AL,PR1

     1612      170
     1613      171    1          IF HASH = FMC$TYPTBL.NEWEST(TYPE) THEN

    171  0 000132   000000 471400 xsym               LDP1    FMC_TYPTBL$
         0 000133   000000 236100                    LDQ     0,,PR0
         0 000134   000141 604000 0                  TMI     s:174
         0 000135   100001 116105                    CMPQ    1,AL,PR1
         0 000136   000141 601000 0                  TNZ     s:174

PL6.E3A0      #013=FMC$REMOVE File=FMC$CACHE.:E05TSI                             TUE 07/29/97 16:42 Page:388
     1614      172    1             FMC$TYPTBL.NEWEST(TYPE)=BLINK;

    172  0 000137   200006 236100                    LDQ     BLINK,,AUTO
         0 000140   100001 756105                    STQ     1,AL,PR1

     1615      173
     1616      174    1          FMC$CACHETBL.FLINK(HASH)=0;

    174  0 000141   000000 236100                    LDQ     0,,PR0
         0 000142   000006 402007                    MPY     6,DL
         0 000143   000000 222003                    LDX2    0,DU
         0 000144   000000 471400 xsym               LDP1    FMC_CACHE$
         0 000145   100001 742106                    STX2    1,QL,PR1

     1617      175    1          FMC$CACHETBL.BLINK(HASH)=0;

    175  0 000146   000000 236100                    LDQ     0,,PR0
         0 000147   000006 402007                    MPY     6,DL
         0 000150   000000 471400 xsym               LDP1    FMC_CACHE$
         0 000151   100001 442106                    SXL2    1,QL,PR1

     1618      176
     1619      177    1          FMC$CACHEPGCNT=FMC$CACHEPGCNT-1;

    177  0 000152   000000 471400 xsym               LDP1    FMC_CACHEPGCNT$
         0 000153   000001 336007                    LCQ     1,DL
         0 000154   100000 056100                    ASQ     0,,PR1

     1620      178    1          FMC$STATS.UNUSED(TYPE)=FMC$STATS.UNUSED(TYPE)-1;

    178  0 000155   000000 471400 xsym               LDP1    FMC_STATS$
         0 000156   200004 723100                    LXL3    TYPE,,AUTO
         0 000157   100067 056113                    ASQ     55,X3,PR1

     1621      179
     1622      180    1          RETURN;

PL6.E3A0      #013=FMC$REMOVE File=FMC$CACHE.:E05TSI                             TUE 07/29/97 16:42 Page:389
    180  0 000160   000000 702200 xent               TSX2  ! X66_ARET
     1623      181    1          END FMC$REMOVE;
     1624      182               %EOD;

PL6.E3A0      #013=FMC$REMOVE File=FMC$CACHE.:E05TSI                             TUE 07/29/97 16:42 Page:390
--  Include file information  --

   FM_CACHE_C.:E05TOU  is referenced.
   FM_CACHE_R.:E05TOU  cannot be made into a system file and is referenced.
      No diagnostics issued in procedure FMC$REMOVE.
PL6.E3A0      #013=FMC$REMOVE File=FMC$CACHE.:E05TSI                             TUE 07/29/97 16:42 Page:391

 **** Variables and constants ****

  ****  Auto variables  ****

  ****  Scalars and arrays  ****
OctLoc.c.b A Datatyp(siz) R M Lvl/name                 OctLoc.c.b A Datatyp(siz) R M Lvl/name

     3-0-0/w PTR         r     1 @HASH                      6-0-0/w SBIN        r     1 BLINK
     5-0-0/w SBIN        r     1 FLINK                     *0-0-0/w SBIN        r     1 HASH
     4-0-0/w SBIN        r     1 TYPE

  ****  SYMREF variables  ****

  ****  Scalars and arrays  ****
OctLoc.c.b A Datatyp(siz) R M Lvl/name                 OctLoc.c.b A Datatyp(siz) R M Lvl/name

     0-0-0/w PTR         r     1 FMC_CACHE$                 0-0-0/w PTR         r     1 FMC_CACHEPGCNT$
     0-0-0/w PTR         r     1 FMC_STATS$                 0-0-0/w PTR         r     1 FMC_TYPTBL$

  ****  BASED and DCB variables  ****

  ****  Scalars and arrays  ****
OctLoc.c.b A Datatyp(siz) R M Lvl/name                 OctLoc.c.b A Datatyp(siz) R M Lvl/name

     0-0-0/w SBIN        r     1 FMC$CACHEPGCNT
     0-0-0/w STRC(216)   r     1 FMC$CACHETBL(0:0)
     0-0-0/w STRC(2376)  r     1 FMC$STATS
     0-0-0/w STRC(72)    r     1 FMC$TYPTBL(0:10)


   Procedure FMC$REMOVE requires 113 words for executable code.
   Procedure FMC$REMOVE requires 8 words of local(AUTO) storage.
PL6.E3A0      #013=FMC$REMOVE File=FMC$CACHE.:E05TSI                             TUE 07/29/97 16:42 Page:392
          *** CROSS REFERENCE LISTING ***
**     DENOTES     IDENTIFIER DEFINITION
<<                 IDENTIFIER'S VALUE SET
>>                 IDENTIFIER'S VALUE USED
<>                 IDENTIFIER SET AND/OR USED
--                 IDENTIFIER REFERENCED
PL6.E3A0      #013=FMC$REMOVE File=FMC$CACHE.:E05TSI                             TUE 07/29/97 16:42 Page:393
          MINI XREF LISTING

BLINK
       142**DCL       145<<ASSIGN    147>>IF        148>>IF        155<<ASSIGN    157>>IF        158>>IF
       164>>ASSIGN    166>>ASSIGN    172>>ASSIGN
FLINK
       141**DCL       146<<ASSIGN    150>>IF        151>>IF        154<<ASSIGN    160>>IF        161>>IF
       164>>ASSIGN    166>>ASSIGN    169>>ASSIGN
FMC$CACHEPGCNT
        30**DCL       177<<ASSIGN    177>>ASSIGN
FMC$CACHETBL.BLINK
       109**DCL       155>>ASSIGN    164<<ASSIGN    175<<ASSIGN
FMC$CACHETBL.FLINK
       108**DCL       154>>ASSIGN    166<<ASSIGN    174<<ASSIGN
FMC$CACHETBL.TYPE
       106**DCL       144>>ASSIGN    148>>IF        151>>IF        158>>IF        161>>IF
FMC$STATS.UNUSED
       135**DCL       178<<ASSIGN    178>>ASSIGN
FMC$TYPTBL.NEWEST
       126**DCL       145>>ASSIGN    171>>IF        172<<ASSIGN
FMC$TYPTBL.OLDEST
       125**DCL       146>>ASSIGN    168>>IF        169<<ASSIGN
FMC_CACHE$
        29**DCL       102--IMP-PTR   144>>ASSIGN    148>>IF        151>>IF        154>>ASSIGN    155>>ASSIGN
       158>>IF        161>>IF        164>>ASSIGN    166>>ASSIGN    174>>ASSIGN    175>>ASSIGN
FMC_CACHEPGCNT$
        30**DCL        30--IMP-PTR    30--REDEF     177>>ASSIGN    177>>ASSIGN
FMC_STATS$
        29**DCL       129--IMP-PTR   178>>ASSIGN    178>>ASSIGN
FMC_TYPTBL$
        29**DCL       124--IMP-PTR   145>>ASSIGN    146>>ASSIGN    168>>IF        169>>ASSIGN    171>>IF
       172>>ASSIGN
HASH
        19**DCL        18--PROC      144>>ASSIGN    154>>ASSIGN    155>>ASSIGN    168>>IF        171>>IF
PL6.E3A0      #013=FMC$REMOVE File=FMC$CACHE.:E05TSI                             TUE 07/29/97 16:42 Page:394
       174>>ASSIGN    175>>ASSIGN
SC_FMC96
       138**DCL-ENT   149--CALL      152--CALL      159--CALL      162--CALL
TYPE
       140**DCL       144<<ASSIGN    145>>ASSIGN    146>>ASSIGN    148>>IF        151>>IF        158>>IF
       161>>IF        168>>IF        169>>ASSIGN    171>>IF        172>>ASSIGN    178>>ASSIGN    178>>ASSIGN
PL6.E3A0      #013=FMC$REMOVE File=FMC$CACHE.:E05TSI                             TUE 07/29/97 16:42 Page:395
              *** CROSS REFERENCE LISTING ***
    **     DENOTES     IDENTIFIER DEFINITION
    <<                 IDENTIFIER'S VALUE SET
    >>                 IDENTIFIER'S VALUE USED
    <>                 IDENTIFIER SET AND/OR USED
    --                 IDENTIFIER REFERENCED
PL6.E3A0      #013=FMC$REMOVE File=FMC$CACHE.:E05TSI                             TUE 07/29/97 16:42 Page:396
              MINI UREF LISTING

FMC$REMOVE      18**PROC
FMC_CACHEPGCNT      30**DCL
FMC_CACHEPGCNT$R      30**DCL
FMC_CACHESIZ      29**DCL
FMC_CACHESIZN      29**DCL
FMC_LOCK      31**DCL
FMC_MASK      31**DCL
FMC_MASKTBL      31**DCL

PL6.E3A0      #014=FMC$STASH File=FMC$CACHE.:E05TSI                              TUE 07/29/97 16:42 Page:397
     1625        1        /*T***********************************************************/
     1626        2        /*T*                                                         */
     1627        3        /*T* Copyright (c) Bull HN Information Systems Inc., 1997    */
     1628        4        /*T*                                                         */
     1629        5        /*T***********************************************************/
     1630        6        /*D*     NAME:     FMC$STASH
     1631        7                 PURPOSE:  To try to cache a buffer page without affecting
     1632        8                           the user's map.
     1633        9                 INPUT:    BUFNUM - Buffer number
     1634       10
     1635       11                 DESCRIPTION:
     1636       12                      First, hash to a row, then call GETSLOT to try
     1637       13                 to find a slot for it.  If there is one, then call
     1638       14                 FBTOIOPM to change the file buffer to an I/O page
     1639       15                 without changing the map.  Then, set up the cache
     1640       16                 table entry, and return.
     1641       17        */
     1642       18               %EJECT;
PL6.E3A0      #014=FMC$STASH File=FMC$CACHE.:E05TSI                              TUE 07/29/97 16:42 Page:398
     1643       19        FMC$STASH: PROC(BUFNUM);
     1644       20    1          DCL BUFNUM SBIN;
     1645       21        /* */
     1646       22               %INCLUDE FM_CACHE_R;
     1647       34               %INCLUDE FM_CACHE_C;
     1648      100               %INCLUDE B$JIT;
     1649      703               %INCLUDE HF_LOCK_C;
     1650      717               %MACRO F$DCB(BASED=BASED);
     1651      718               %INCLUDE F$DCB;
     1652      767               %MEND;
     1653      768               %INCLUDE P_PMDAT_R;
     1654     1076        /* */
     1655     1077               %F$DCB(BASED="BASED(JDCB$)");
     1656     1127               %FMC$CACHE(FPTN=FMC$CACHE, ARRAY=NO, STCLASS="BASED(CACHE$)");
     1657     1150        /* */
     1658     1151    1          DCL FAF$FRTOSR ENTRY(3) ALTRET;
     1659     1152    1          DCL FMC$GETSLOT ENTRY(4) ALTRET;
     1660     1153    1          DCL FMC$GETTYPE ENTRY(1);
     1661     1154    1          DCL MMJ$FBTOIOPM ENTRY(2);
     1662     1155        /* */
     1663     1156    1          DCL B$JIT$ PTR SYMREF;
     1664     1157    1          DCL FM_SRZERO UBIN SYMREF;
     1665     1158        /* */
     1666     1159    1          DCL JDCB$ PTR;
     1667     1160    1          DCL DA UBIN;
     1668     1161    1          DCL SRDA UBIN;
     1669     1162    1          DCL CACHE$ PTR;
     1670     1163    1          DCL SETX UBIN;
     1671     1164    1          DCL GRANS SBIN;
     1672     1165    1          DCL TYPE SBIN;
     1673     1166    1          DCL HASH SBIN;
     1674     1167    1          DCL VPNO SBIN;
     1675     1168    1          DCL PP SBIN;
     1676     1169        /* */
     1677     1170    1          IF FMC_CACHESIZ = 0 THEN
     1678     1171    1             RETURN;
     1679     1172
PL6.E3A0      #014=FMC$STASH File=FMC$CACHE.:E05TSI                              TUE 07/29/97 16:42 Page:399
     1680     1173    1          JDCB$=B$JIT.DCB$;
     1681     1174    1          DA=F$DCB.BFR.DA(BUFNUM);
     1682     1175    1          IF DA < FM_SRZERO THEN
     1683     1176    1             CALL FAF$FRTOSR(DA, SRDA, GRANS) ALTRET(NOCACHE);
     1684     1177    1          ELSE
     1685     1178    1             SRDA=DA;
     1686     1179
     1687     1180    1          SETX=F$DCB.SETX;
     1688     1181    1          CALL FMC$GETTYPE(TYPE);
     1689     1182               %HASH;
     1690     1185               %LOCK(G=FMC_LOCK);
     1691     1188
     1692     1189    1          CALL FMC$GETSLOT(HASH, TYPE, SRDA, CACHE$) ALTRET(NOCACHE1);
     1693     1190
     1694     1191    1          VPNO=F$DCB.BFR.BUFX(BUFNUM);
     1695     1192    1          CALL MMJ$FBTOIOPM(VPNO, PP);
     1696     1193
     1697     1194    1          FMC$CACHE.SRDA=SRDA;
     1698     1195    1          FMC$CACHE.USECNT=1;
     1699     1196    1          FMC$CACHE.SETX=SETX;
     1700     1197    1          FMC$CACHE.PAGE=PP;
     1701     1198    1          FMC$CACHE.TYPE=TYPE;
     1702     1199               %INC_COUNTER(ITEM=IOCACHE);
     1703     1205
     1704     1206               %UNLOCK(G=FMC_LOCK);
     1705     1209    1          F$DCB.BFR1.CX(BUFNUM)=HASH;
     1706     1210
     1707     1211    1   NOCACHE: ;
     1708     1212    1          RETURN;
     1709     1213    1   NOCACHE1: ;
     1710     1214               %UNLOCK(G=FMC_LOCK);
     1711     1217    1          RETURN;
     1712     1218    1          END FMC$STASH;

PL6.E3A0      #014=FMC$STASH File=FMC$CACHE.:E05TSI                              TUE 07/29/97 16:42 Page:400
--  Include file information  --

   P_PMDAT_C.:E05TOU  is referenced.
   P_PMDAT_R.:E05TOU  cannot be made into a system file and is referenced.
   F$DCB.:E05TOU  is referenced.
   HF_LOCK_C.:E05TOU  cannot be made into a system file and is referenced.
   B$JIT_C.:E05TOU  is referenced.
   B$JIT.:E05TOU  cannot be made into a system file and is referenced.
   FM_CACHE_C.:E05TOU  is referenced.
   FM_CACHE_R.:E05TOU  cannot be made into a system file and is referenced.
      No diagnostics issued in procedure FMC$STASH.

   Procedure FMC$STASH requires 114 words for executable code.
   Procedure FMC$STASH requires 18 words of local(AUTO) storage.

    No errors detected in file FMC$CACHE.:E05TSI    .

PL6.E3A0      #014=FMC$STASH File=FMC$CACHE.:E05TSI                              TUE 07/29/97 16:42 Page:401

 Object Unit name= FMC$STASH                                  File name= FMC$CACHE.:E05TOU
 UTS= JUL 29 '97 16:42:21.00 TUE                              Compiler= PL-6/E31         Sev=      00
 SharedLib= :SHARED_SYSTEM                                    Alt SharedLib=


    ****  Control sections  ****

 Sect   Type Bound  Init  Size OctSiz  Section name(segment info)
    0   Proc  even  none   114    162  FMC$STASH
    1  RoData even  none     1      1  FMC$STASH

    ****  Entry defs  ****

                              Check   Calling
                             calling  sequence
  Sect OctLoc Primary Altret sequence   type   Parms  Name
     0      0   yes            yes      Std        1  FMC$STASH

  ****  Entry refs  ****

         Check        Calling
        calling       sequence
Altret sequence SRef   type   Args  Name
 yes     yes           Std       3 FAF$FRTOSR
         yes           Std       1 FMC$GETTYPE
 yes     yes           Std       4 FMC$GETSLOT
         yes           Std       1 HFC$UNLOCK
         yes           Std       1 HFC$LOCK
         yes           Std       2 MMJ$FBTOIOPM
                       nStd      0 X66_AUTO_1
                       nStd      0 X66_ARET
                       Std       0 B_CONSPOOL_D
PL6.E3A0      #014=FMC$STASH File=FMC$CACHE.:E05TSI                              TUE 07/29/97 16:42 Page:402

  ****  Data refs  ****

  Flags:  r = read only, s = secondary
Flgs Name                             Flgs Name                             Flgs Name
     FMC_CACHESIZ                          FMC_CACHEPGCNT$                       FMC_LOCK
     FMC_MASK                              P_RESOURCE$                           P_UPTIME
     P_NSCPU                               B$JIT$                                FM_SRZERO
     B_VECTNIL

  ****  Segment refs  ****

  Flags:  r = read only, s = secondary
Flgs Name                             Flgs Name                             Flgs Name
     ISSID
PL6.E3A0      #014=FMC$STASH File=FMC$CACHE.:E05TSI                              TUE 07/29/97 16:42 Page:403


     1625        1        /*T***********************************************************/
     1626        2        /*T*                                                         */
     1627        3        /*T* Copyright (c) Bull HN Information Systems Inc., 1997    */
     1628        4        /*T*                                                         */
     1629        5        /*T***********************************************************/
     1630        6        /*D*     NAME:     FMC$STASH
     1631        7                 PURPOSE:  To try to cache a buffer page without affecting
     1632        8                           the user's map.
     1633        9                 INPUT:    BUFNUM - Buffer number
     1634       10
     1635       11                 DESCRIPTION:
     1636       12                      First, hash to a row, then call GETSLOT to try
     1637       13                 to find a slot for it.  If there is one, then call
     1638       14                 FBTOIOPM to change the file buffer to an I/O page
     1639       15                 without changing the map.  Then, set up the cache
     1640       16                 table entry, and return.
     1641       17        */
     1642       18               %EJECT;
PL6.E3A0      #014=FMC$STASH File=FMC$CACHE.:E05TSI                              TUE 07/29/97 16:42 Page:404
     1643       19        FMC$STASH: PROC(BUFNUM);

     19  0 000000   000000 700200 xent  FMC$STASH    TSX0  ! X66_AUTO_1
         0 000001   000022 000001                    ZERO    18,1

     1644       20    1          DCL BUFNUM SBIN;
     1645       21        /* */
     1646       22               %INCLUDE FM_CACHE_R;
     1647       34               %INCLUDE FM_CACHE_C;
     1648      100               %INCLUDE B$JIT;
     1649      703               %INCLUDE HF_LOCK_C;
     1650      717               %MACRO F$DCB(BASED=BASED);
     1651      718               %INCLUDE F$DCB;
     1652      767               %MEND;
     1653      768               %INCLUDE P_PMDAT_R;
     1654     1076        /* */
     1655     1077               %F$DCB(BASED="BASED(JDCB$)");
     1656     1127               %FMC$CACHE(FPTN=FMC$CACHE, ARRAY=NO, STCLASS="BASED(CACHE$)");
     1657     1150        /* */
     1658     1151    1          DCL FAF$FRTOSR ENTRY(3) ALTRET;
     1659     1152    1          DCL FMC$GETSLOT ENTRY(4) ALTRET;
     1660     1153    1          DCL FMC$GETTYPE ENTRY(1);
     1661     1154    1          DCL MMJ$FBTOIOPM ENTRY(2);
     1662     1155        /* */
     1663     1156    1          DCL B$JIT$ PTR SYMREF;
     1664     1157    1          DCL FM_SRZERO UBIN SYMREF;
     1665     1158        /* */
     1666     1159    1          DCL JDCB$ PTR;
     1667     1160    1          DCL DA UBIN;
     1668     1161    1          DCL SRDA UBIN;
     1669     1162    1          DCL CACHE$ PTR;
     1670     1163    1          DCL SETX UBIN;
     1671     1164    1          DCL GRANS SBIN;
     1672     1165    1          DCL TYPE SBIN;
     1673     1166    1          DCL HASH SBIN;
     1674     1167    1          DCL VPNO SBIN;
     1675     1168    1          DCL PP SBIN;
PL6.E3A0      #014=FMC$STASH File=FMC$CACHE.:E05TSI                              TUE 07/29/97 16:42 Page:405
     1676     1169        /* */
     1677     1170    1          IF FMC_CACHESIZ = 0 THEN

   1170  0 000002   000000 235000 xsym               LDA     FMC_CACHESIZ
         0 000003   000005 601000 0                  TNZ     s:1173

     1678     1171    1             RETURN;

   1171  0 000004   000000 702200 xent               TSX2  ! X66_ARET

     1679     1172
     1680     1173    1          JDCB$=B$JIT.DCB$;

   1173  0 000005   000000 470400 xsym               LDP0    B$JIT$
         0 000006   000232 236100                    LDQ     154,,PR0
         0 000007   200004 756100                    STQ     JDCB$,,AUTO

     1681     1174    1          DA=F$DCB.BFR.DA(BUFNUM);

   1174  0 000010   200003 471500                    LDP1    @BUFNUM,,AUTO
         0 000011   100000 235100                    LDA     0,,PR1
         0 000012   200004 473500                    LDP3    JDCB$,,AUTO
         0 000013   300115 236105                    LDQ     77,AL,PR3
         0 000014   000032 376000 xsym               ANQ     B_VECTNIL+26
         0 000015   200005 756100                    STQ     DA,,AUTO

     1682     1175    1          IF DA < FM_SRZERO THEN

   1175  0 000016   000000 116000 xsym               CMPQ    FM_SRZERO
         0 000017   000033 603000 0                  TRC     s:1178

     1683     1176    1             CALL FAF$FRTOSR(DA, SRDA, GRANS) ALTRET(NOCACHE);

   1176  0 000020   200011 634500                    EPPR4   GRANS,,AUTO
         0 000021   200020 454500                    STP4    PP+3,,AUTO
         0 000022   200006 635500                    EPPR5   SRDA,,AUTO
         0 000023   200017 455500                    STP5    PP+2,,AUTO
PL6.E3A0      #014=FMC$STASH File=FMC$CACHE.:E05TSI                              TUE 07/29/97 16:42 Page:406
         0 000024   200005 636500                    EPPR6   DA,,AUTO
         0 000025   200016 456500                    STP6    PP+1,,AUTO
         0 000026   200016 630500                    EPPR0   PP+1,,AUTO
         0 000027   000021 631400 xsym               EPPR1   B_VECTNIL+17
         0 000030   000000 701000 xent               TSX1    FAF$FRTOSR
         0 000031   000154 702000 0                  TSX2    NOCACHE
         0 000032   000034 710000 0                  TRA     s:1180

     1684     1177    1          ELSE
     1685     1178    1             SRDA=DA;

   1178  0 000033   200006 756100                    STQ     SRDA,,AUTO

     1686     1179
     1687     1180    1          SETX=F$DCB.SETX;

   1180  0 000034   200004 470500                    LDP0    JDCB$,,AUTO
         0 000035   000051 236100                    LDQ     41,,PR0
         0 000036   777777 376007                    ANQ     -1,DL
         0 000037   200010 756100                    STQ     SETX,,AUTO

     1688     1181    1          CALL FMC$GETTYPE(TYPE);

   1181  0 000040   200012 631500                    EPPR1   TYPE,,AUTO
         0 000041   200016 451500                    STP1    PP+1,,AUTO
         0 000042   200016 630500                    EPPR0   PP+1,,AUTO
         0 000043   000017 631400 xsym               EPPR1   B_VECTNIL+15
         0 000044   000000 701000 xent               TSX1    FMC$GETTYPE
         0 000045   000000 011000                    NOP     0

     1689     1182               %HASH;

   1183  0 000046   200006 236100                    LDQ     SRDA,,AUTO
         0 000047   200010 036100                    ADLQ    SETX,,AUTO
         0 000050   000000 376000 xsym               ANQ     FMC_MASK
         0 000051   000002 736000                    QLS     2
         0 000052   000001 036007                    ADLQ    1,DL
PL6.E3A0      #014=FMC$STASH File=FMC$CACHE.:E05TSI                              TUE 07/29/97 16:42 Page:407
         0 000053   200013 756100                    STQ     HASH,,AUTO

     1690     1185               %LOCK(G=FMC_LOCK);

   1186  0 000054   000000 630400 1                  EPPR0   0
         0 000055   000017 631400 xsym               EPPR1   B_VECTNIL+15
         0 000056   000000 701000 xent               TSX1    HFC$LOCK
         0 000057   000000 011000                    NOP     0

     1691     1188
     1692     1189    1          CALL FMC$GETSLOT(HASH, TYPE, SRDA, CACHE$) ALTRET(NOCACHE1);

   1189  0 000060   200007 630500                    EPPR0   CACHE$,,AUTO
         0 000061   200021 450500                    STP0    PP+4,,AUTO
         0 000062   200006 631500                    EPPR1   SRDA,,AUTO
         0 000063   200020 451500                    STP1    PP+3,,AUTO
         0 000064   200012 633500                    EPPR3   TYPE,,AUTO
         0 000065   200017 453500                    STP3    PP+2,,AUTO
         0 000066   200013 634500                    EPPR4   HASH,,AUTO
         0 000067   200016 454500                    STP4    PP+1,,AUTO
         0 000070   200016 630500                    EPPR0   PP+1,,AUTO
         0 000071   000022 631400 xsym               EPPR1   B_VECTNIL+18
         0 000072   000000 701000 xent               TSX1    FMC$GETSLOT
         0 000073   000155 702000 0                  TSX2    NOCACHE1

     1693     1190
     1694     1191    1          VPNO=F$DCB.BFR.BUFX(BUFNUM);

   1191  0 000074   200003 470500                    LDP0    @BUFNUM,,AUTO
         0 000075   000000 235100                    LDA     0,,PR0
         0 000076   200004 471500                    LDP1    JDCB$,,AUTO
         0 000077   100115 236105                    LDQ     77,AL,PR1
         0 000100   000033 772000                    QRL     27
         0 000101   000037 376007                    ANQ     31,DL
         0 000102   200014 756100                    STQ     VPNO,,AUTO

     1695     1192    1          CALL MMJ$FBTOIOPM(VPNO, PP);
PL6.E3A0      #014=FMC$STASH File=FMC$CACHE.:E05TSI                              TUE 07/29/97 16:42 Page:408

   1192  0 000103   200015 633500                    EPPR3   PP,,AUTO
         0 000104   200017 453500                    STP3    PP+2,,AUTO
         0 000105   200014 634500                    EPPR4   VPNO,,AUTO
         0 000106   200016 454500                    STP4    PP+1,,AUTO
         0 000107   200016 630500                    EPPR0   PP+1,,AUTO
         0 000110   000020 631400 xsym               EPPR1   B_VECTNIL+16
         0 000111   000000 701000 xent               TSX1    MMJ$FBTOIOPM
         0 000112   000000 011000                    NOP     0

     1696     1193
     1697     1194    1          FMC$CACHE.SRDA=SRDA;

   1194  0 000113   200007 470500                    LDP0    CACHE$,,AUTO
         0 000114   200006 236100                    LDQ     SRDA,,AUTO
         0 000115   000000 552134                    STBQ    0,'34'O,PR0

     1698     1195    1          FMC$CACHE.USECNT=1;

   1195  0 000116   000001 220003                    LDX0    1,DU
         0 000117   200007 470500                    LDP0    CACHE$,,AUTO
         0 000120   000002 440100                    SXL0    2,,PR0

     1699     1196    1          FMC$CACHE.SETX=SETX;

   1196  0 000121   200010 721100                    LXL1    SETX,,AUTO
         0 000122   200007 470500                    LDP0    CACHE$,,AUTO
         0 000123   000004 741100                    STX1    4,,PR0

     1700     1197    1          FMC$CACHE.PAGE=PP;

   1197  0 000124   200015 722100                    LXL2    PP,,AUTO
         0 000125   200007 470500                    LDP0    CACHE$,,AUTO
         0 000126   000002 742100                    STX2    2,,PR0

     1701     1198    1          FMC$CACHE.TYPE=TYPE;

PL6.E3A0      #014=FMC$STASH File=FMC$CACHE.:E05TSI                              TUE 07/29/97 16:42 Page:409
   1198  0 000127   200007 470500                    LDP0    CACHE$,,AUTO
         0 000130   200012 236100                    LDQ     TYPE,,AUTO
         0 000131   000033 736000                    QLS     27
         0 000132   000000 552140                    STBQ    0,'40'O,PR0

     1702     1199               %INC_COUNTER(ITEM=IOCACHE);

   1200  0 000133   000000 470400 xsym               LDP0    P_RESOURCE$
         0 000134   000055 235100                    LDA     45,,PR0
         0 000135   000001 035007                    ADLA    1,DL
         0 000136   000055 755100                    STA     45,,PR0

   1201  0 000137   000056 236100                    LDQ     46,,PR0
         0 000140   000055 116100                    CMPQ    45,,PR0
         0 000141   000143 603000 0                  TRC     s:1207

   1203  0 000142   000056 755100                    STA     46,,PR0

     1703     1205
     1704     1206               %UNLOCK(G=FMC_LOCK);

   1207  0 000143   000000 630400 1                  EPPR0   0
         0 000144   000017 631400 xsym               EPPR1   B_VECTNIL+15
         0 000145   000000 701000 xent               TSX1    HFC$UNLOCK
         0 000146   000000 011000                    NOP     0

     1705     1209    1          F$DCB.BFR1.CX(BUFNUM)=HASH;

   1209  0 000147   200003 470500                    LDP0    @BUFNUM,,AUTO
         0 000150   000000 235100                    LDA     0,,PR0
         0 000151   200013 720100                    LXL0    HASH,,AUTO
         0 000152   200004 471500                    LDP1    JDCB$,,AUTO
         0 000153   100122 440105                    SXL0    82,AL,PR1

   1209  0 000154                       NOCACHE      null
     1706     1210
     1707     1211    1   NOCACHE: ;
PL6.E3A0      #014=FMC$STASH File=FMC$CACHE.:E05TSI                              TUE 07/29/97 16:42 Page:410
     1708     1212    1          RETURN;

   1212  0 000154   000000 702200 xent               TSX2  ! X66_ARET

   1209  0 000155                       NOCACHE1     null
     1709     1213    1   NOCACHE1: ;
     1710     1214               %UNLOCK(G=FMC_LOCK);

   1215  0 000155   000000 630400 1                  EPPR0   0
         0 000156   000017 631400 xsym               EPPR1   B_VECTNIL+15
         0 000157   000000 701000 xent               TSX1    HFC$UNLOCK
         0 000160   000000 011000                    NOP     0

     1711     1217    1          RETURN;

   1217  0 000161   000000 702200 xent               TSX2  ! X66_ARET

(unnamed)
 Sect OctLoc
   1     000   000000 006000                                                    ....
     1712     1218    1          END FMC$STASH;

PL6.E3A0      #014=FMC$STASH File=FMC$CACHE.:E05TSI                              TUE 07/29/97 16:42 Page:411
--  Include file information  --

   P_PMDAT_C.:E05TOU  is referenced.
   P_PMDAT_R.:E05TOU  cannot be made into a system file and is referenced.
   F$DCB.:E05TOU  is referenced.
   HF_LOCK_C.:E05TOU  cannot be made into a system file and is referenced.
   B$JIT_C.:E05TOU  is referenced.
   B$JIT.:E05TOU  cannot be made into a system file and is referenced.
   FM_CACHE_C.:E05TOU  is referenced.
   FM_CACHE_R.:E05TOU  cannot be made into a system file and is referenced.
      No diagnostics issued in procedure FMC$STASH.
PL6.E3A0      #014=FMC$STASH File=FMC$CACHE.:E05TSI                              TUE 07/29/97 16:42 Page:412

 **** Variables and constants ****

  ****  Auto variables  ****

  ****  Scalars and arrays  ****
OctLoc.c.b A Datatyp(siz) R M Lvl/name                 OctLoc.c.b A Datatyp(siz) R M Lvl/name

     3-0-0/w PTR         r     1 @BUFNUM                   *0-0-0/w SBIN        r     1 BUFNUM
     7-0-0/w PTR         r     1 CACHE$                     5-0-0/w UBIN        r     1 DA
    11-0-0/w SBIN        r     1 GRANS                     13-0-0/w SBIN        r     1 HASH
     4-0-0/w PTR         r     1 JDCB$                     15-0-0/w SBIN        r     1 PP
    10-0-0/w UBIN        r     1 SETX                       6-0-0/w UBIN        r     1 SRDA
    12-0-0/w SBIN        r     1 TYPE                      14-0-0/w SBIN        r     1 VPNO

  ****  SYMREF variables  ****

  ****  Scalars and arrays  ****
OctLoc.c.b A Datatyp(siz) R M Lvl/name                 OctLoc.c.b A Datatyp(siz) R M Lvl/name

     0-0-0/w PTR         r     1 B$JIT$                     0-0-0/w PTR         r     1 FMC_CACHEPGCNT$
     0-0-0/w SBIN        r     1 FMC_CACHESIZ               0-0-0/b BIT (72)    r     1 FMC_LOCK
     0-0-0/b BIT         r     1 FMC_MASK                   0-0-0/w UBIN        r     1 FM_SRZERO
     0-0-0/w PTR         r     1 P_RESOURCE$

  ****  BASED and DCB variables  ****

  ****  Scalars and arrays  ****
OctLoc.c.b A Datatyp(siz) R M Lvl/name                 OctLoc.c.b A Datatyp(siz) R M Lvl/name

     0-0-0/d STRC(8856)  r     1 B$JIT                      0-0-0/d ASTR(3528)  r     1 F$DCB
     0-0-0/w STRC(216)   r     1 FMC$CACHE                  0-0-0/w STRC(2268)  r     1 P_RESOURCE


   Procedure FMC$STASH requires 114 words for executable code.
   Procedure FMC$STASH requires 18 words of local(AUTO) storage.
PL6.E3A0      #014=FMC$STASH File=FMC$CACHE.:E05TSI                              TUE 07/29/97 16:42 Page:413

    No errors detected in file FMC$CACHE.:E05TSI    .
PL6.E3A0      #014=FMC$STASH File=FMC$CACHE.:E05TSI                              TUE 07/29/97 16:42 Page:414
          *** CROSS REFERENCE LISTING ***
**     DENOTES     IDENTIFIER DEFINITION
<<                 IDENTIFIER'S VALUE SET
>>                 IDENTIFIER'S VALUE USED
<>                 IDENTIFIER SET AND/OR USED
--                 IDENTIFIER REFERENCED
PL6.E3A0      #014=FMC$STASH File=FMC$CACHE.:E05TSI                              TUE 07/29/97 16:42 Page:415
          MINI XREF LISTING

B$JIT.CPFLAGS1.SLEAZE
       521**DCL       521--REDEF
B$JIT.DCB$
       595**DCL      1173>>ASSIGN
B$JIT.ERR.MID
       428**DCL       428--REDEF
B$JIT.JRESPEAK
       589**DCL       590--REDEF
B$JIT.ORIGINATOR_PORT.FROM_CR
       698**DCL       698--REDEF     699--REDEF
B$JIT.PNR
       602**DCL       602--REDEF
B$JIT.TSLINE
       696**DCL       697--REDEF
B$JIT$
      1156**DCL       422--IMP-PTR  1173>>ASSIGN
BUFNUM
        20**DCL        19--PROC     1174>>ASSIGN   1191>>ASSIGN   1209>>ASSIGN
CACHE$
      1162**DCL      1131--IMP-PTR  1189<>CALL     1194>>ASSIGN   1195>>ASSIGN   1196>>ASSIGN   1197>>ASSIGN
      1198>>ASSIGN
DA
      1160**DCL      1174<<ASSIGN   1175>>IF       1176<>CALL     1178>>ASSIGN
F$DCB.ACTPOS
      1103**DCL      1103--REDEF
F$DCB.ARS
      1078**DCL      1078--REDEF
F$DCB.ATTR
      1096**DCL      1097--REDEF
F$DCB.BFR.BUFX
      1123**DCL      1191>>ASSIGN
F$DCB.BFR.DA
PL6.E3A0      #014=FMC$STASH File=FMC$CACHE.:E05TSI                              TUE 07/29/97 16:42 Page:416
      1123**DCL      1174>>ASSIGN
F$DCB.BFR1.CX
      1124**DCL      1209<<ASSIGN
F$DCB.BORROW
      1111**DCL      1111--REDEF    1111--REDEF    1111--REDEF
F$DCB.DCBNAME.L
      1125**DCL      1125--IMP-SIZ
F$DCB.EOMCHAR
      1082**DCL      1082--REDEF
F$DCB.FLDID
      1106**DCL      1106--REDEF
F$DCB.FORM$
      1100**DCL      1100--REDEF
F$DCB.FSECT
      1116**DCL      1116--REDEF
F$DCB.FSN
      1093**DCL      1093--REDEF    1093--REDEF    1094--REDEF
F$DCB.HEADER$
      1099**DCL      1099--REDEF
F$DCB.IXTNSIZE
      1097**DCL      1097--REDEF
F$DCB.LASTSTA$
      1087**DCL      1087--REDEF
F$DCB.LVL
      1112**DCL      1112--REDEF
F$DCB.NAME.C
      1087**DCL      1087--REDEF
F$DCB.NOEOF
      1108**DCL      1108--REDEF
F$DCB.NRECS
      1098**DCL      1098--REDEF
F$DCB.NRECX
      1117**DCL      1117--REDEF
F$DCB.OHDR
      1109**DCL      1109--REDEF
F$DCB.ORG
PL6.E3A0      #014=FMC$STASH File=FMC$CACHE.:E05TSI                              TUE 07/29/97 16:42 Page:417
      1092**DCL      1092--REDEF
F$DCB.PRECNO
      1115**DCL      1115--REDEF
F$DCB.RCSZ
      1120**DCL      1120--REDEF
F$DCB.RES
      1088**DCL      1088--REDEF
F$DCB.SETX
      1100**DCL      1100--REDEF    1180>>ASSIGN
F$DCB.TAB$
      1099**DCL      1100--REDEF
F$DCB.TDA
      1114**DCL      1114--REDEF
F$DCB.WSN
      1089**DCL      1089--REDEF
FAF$FRTOSR
      1151**DCL-ENT  1176--CALL
FMC$CACHE.PAGE
      1137**DCL      1197<<ASSIGN
FMC$CACHE.SETX
      1140**DCL      1196<<ASSIGN
FMC$CACHE.SRDA
      1134**DCL      1194<<ASSIGN
FMC$CACHE.TYPE
      1133**DCL      1198<<ASSIGN
FMC$CACHE.USECNT
      1138**DCL      1195<<ASSIGN
FMC$GETSLOT
      1152**DCL-ENT  1189--CALL
FMC$GETTYPE
      1153**DCL-ENT  1181--CALL
FMC_CACHEPGCNT$
        31**DCL        31--IMP-PTR    31--REDEF
FMC_CACHESIZ
        30**DCL      1170>>IF
FMC_LOCK
PL6.E3A0      #014=FMC$STASH File=FMC$CACHE.:E05TSI                              TUE 07/29/97 16:42 Page:418
        32**DCL      1186<>CALL     1207<>CALL     1215<>CALL
FMC_MASK
        32**DCL      1183>>ASSIGN
FM_SRZERO
      1157**DCL      1175>>IF
GRANS
      1164**DCL      1176<>CALL
HASH
      1166**DCL      1183<<ASSIGN   1189<>CALL     1209>>ASSIGN
HFC$LOCK
       716**DCL-ENT  1186--CALL
HFC$UNLOCK
       716**DCL-ENT  1207--CALL     1215--CALL
JDCB$
      1159**DCL      1078--IMP-PTR  1173<<ASSIGN   1174>>ASSIGN   1180>>ASSIGN   1191>>ASSIGN   1209>>ASSIGN
MMJ$FBTOIOPM
      1154**DCL-ENT  1192--CALL
NOCACHE
      1209**LABEL    1176--CALLALT
NOCACHE1
      1209**LABEL    1189--CALLALT
PP
      1168**DCL      1192<>CALL     1197>>ASSIGN
P_NSCPU
      1056**DCL      1057--REDEF
P_RESOURCE.RES
       929**DCL       996--REDEF
P_RESOURCE.RES.IOCACHE.CURRENT
       958**DCL      1200<<ASSIGN   1200>>ASSIGN   1201>>IF       1203>>ASSIGN
P_RESOURCE.RES.IOCACHE.PEAK
       959**DCL      1201>>IF       1203<<ASSIGN
P_RESOURCE$
      1009**DCL       897--IMP-PTR  1200>>ASSIGN   1200>>ASSIGN   1201>>IF       1201>>IF       1203>>ASSIGN
      1203>>ASSIGN
P_UPTIME
      1045**DCL      1046--REDEF
PL6.E3A0      #014=FMC$STASH File=FMC$CACHE.:E05TSI                              TUE 07/29/97 16:42 Page:419
SETX
      1163**DCL      1180<<ASSIGN   1183>>ASSIGN   1196>>ASSIGN
SRDA
      1161**DCL      1176<>CALL     1178<<ASSIGN   1183>>ASSIGN   1189<>CALL     1194>>ASSIGN
TYPE
      1165**DCL      1181<>CALL     1189<>CALL     1198>>ASSIGN
VPNO
      1167**DCL      1191<<ASSIGN   1192<>CALL
PL6.E3A0      #014=FMC$STASH File=FMC$CACHE.:E05TSI                              TUE 07/29/97 16:42 Page:420
              *** CROSS REFERENCE LISTING ***
    **     DENOTES     IDENTIFIER DEFINITION
    <<                 IDENTIFIER'S VALUE SET
    >>                 IDENTIFIER'S VALUE USED
    <>                 IDENTIFIER SET AND/OR USED
    --                 IDENTIFIER REFERENCED
PL6.E3A0      #014=FMC$STASH File=FMC$CACHE.:E05TSI                              TUE 07/29/97 16:42 Page:421
              MINI UREF LISTING

FMC$CACHEPGCNT      31**DCL
FMC$STASH      19**PROC
FMC_CACHE$      30**DCL
FMC_CACHEPGCNT      31**DCL
FMC_CACHEPGCNT$R      31**DCL
FMC_CACHESIZN      30**DCL
FMC_MASKTBL      32**DCL
FMC_STATS$      30**DCL
FMC_TYPTBL$      30**DCL
P$IODATA    1010**DCL
P$TABLE    1019**DCL
PH_CPU_MOUSED    1074**DCL
PH_JIT_ENTRY    1070**DCL
PH_MOUSE_ENTRY    1066**DCL
PH_MOUSE_LOCK    1073**DCL
PH_MOUSE_USERS    1063**DCL
PH_MOUSE_USER_NUMBER    1075**DCL
PH_MUS_PAGES    1065**DCL
P_AUIS    1051**DCL
P_AVAIL_MEM    1058**DCL
P_AVGAVAIL_MEM    1059**DCL
P_AVGETMF    1048**DCL
P_AVGIOL    1050**DCL
P_AVGRT90    1047**DCL
P_CALCNT    1035**DCL
P_CALCOMP    1036**DCL
P_DCTXMAX    1052**DCL
P_ETMF    1029**DCL
P_GATE    1055**DCL
P_IOLOAD    1049**DCL
P_IOS    1044**DCL
P_NINTS    1030**DCL
PL6.E3A0      #014=FMC$STASH File=FMC$CACHE.:E05TSI                              TUE 07/29/97 16:42 Page:422
P_NOW    1054**DCL
P_NSCPU_SBIN    1057**DCL
P_RT90    1031**DCL
P_RUE#    1027**DCL
P_SCHD#    1028**DCL
P_STARTUP    1032**DCL
P_STOPTIME    1053**DCL
P_S_MIDLTIME    1040**DCL
P_S_MIDLWIO    1041**DCL
P_S_MIDLWRES    1042**DCL
P_S_MIDLWRESIO    1043**DCL
P_S_MXEQTIME    1039**DCL
P_S_USRVTIME    1038**DCL
P_S_UXEQTIME    1037**DCL
P_UPTIME_SBIN    1046**DCL
P_USRVTIME    1034**DCL
P_UXEQTIME    1033**DCL
WORD_    1064**DCL
